PL6.E3A0      #004=VDP$WSCROLL_DOWN File=VDP$WINDOW_I_O.:VDA5TSI                 FRI 07/04/97 11:40 Page:321
     2257        1        /*M* VDP$WSCROLL_DOWN:  Scroll a window down.  */
     2258        2        /*T***********************************************************/
     2259        3        /*T*                                                         */
     2260        4        /*T* Copyright (c) Bull HN Information Systems Inc., 1997    */
     2261        5        /*T*                                                         */
     2262        6        /*T***********************************************************/
     2263        7        /*X* DMC,PLM=4,IND=0,DCI=4,CSI=2,IAD=2,DTI=2,AND,ECI=0,DIN=2,STI=2 */
     2264        8
     2265        9        /*P*  NAME:         VDP$WSCROLL_DOWN
     2266       10              PURPOSE:      Presenter's scroll-record-set-down module.
     2267       11              DESCRIPTION:  Called to scroll a record set down.
     2268       12        */
     2269       13
     2270       14        VDP$WSCROLL_DOWN: PROC ( SCROLL_WINDOW,
     2271       15              SCROLL_KEY,
     2272       16              SCROLL_SPEC,
     2273       17              SCROLL_DATA )
     2274       18              ALTRET;
     2275       19
     2276       20        /*D*  NAME:         VDP$WSCROLL_DOWN
     2277       21              CALL:         CALL VDP$WSCROLL_DOWN ( scroll_window,
     2278       22                                                    scroll_key,
     2279       23                                                    scroll_spec,
     2280       24                                                    scroll_data )
     2281       25                            ALTRET ( label );
     2282       26              PARAMETERS:   scroll_window is a VD$WINDOW_SPEC corresponding
     2283       27                            to the window to scroll;
     2284       28                            scroll_key is the key causing the scroll-down
     2285       29                            request.
     2286       30                            scroll_spec and scroll_data contain the spec and
     2287       31                            data components at the scroll_key
     2288       32              INTERFACE:    Called from VDP$WREAD when:
     2289       33                            1)  a record has been inserted or replaced;
     2290       34                            2)  an E$RECORDS_NEEDED altret was received
     2291       35                                and an appropriate record was found in the
     2292       36                                file.
     2293       37              ENVIRONMENT:  Nothing unusual.
PL6.E3A0      #004=VDP$WSCROLL_DOWN File=VDP$WINDOW_I_O.:VDA5TSI                 FRI 07/04/97 11:40 Page:322
     2294       38              INPUT:
     2295       39              OUTPUT:
     2296       40              SCRATCH:
     2297       41              DESCRIPTION:  If appropriate, scrolls the record set down,
     2298       42                            i.e., moves all or part of the record set in
     2299       43                            the EOF direction, thereby "losing" a record
     2300       44                            at the end of the record set if it's already
     2301       45                            full.
     2302       46                            The code within is really handling several
     2303       47                            different cases, not all of them actually
     2304       48                            requiring action by this routine.  This module
     2305       49                            really exists only such that there be only *1*
     2306       50                            fellow who actually scrolls the record set down
     2307       51                            (bugs, hopefully, being easier to find that way).
     2308       52                            Called because:
     2309       53                            1)  An E$RECORDS_NEEDED was received for the
     2310       54                                backwards (towards BOF) direction and an
     2311       55                                appropriate record was found in the file
     2312       56                                and written to the FEP.  We'll insert that
     2313       57                                key at the beginning of the record set and
     2314       58                                shuffle everything down 1, losing the last
     2315       59                                entry if the record set was already full.
     2316       60                                If the record set was empty, we'll add to
     2317       61                                the beginning.
     2318       62                            2)  A record was replaced.  We'll find the
     2319       63                                key in the record set already and RETURN.
     2320       64                            3)  A record was inserted.  We'll find a
     2321       65                                key in the record set which is greater
     2322       66                                than the key of the inserted record, and
     2323       67                                shuffle everything down 1 from there on,
     2324       68                                losing the last entry if the record set was
     2325       69                                already full.  If the inserted record is
     2326       70                                past the end of the record set and the
     2327       71                                record set's not full, we'll add to the
     2328       72                                end.  If the inserted record is past the
     2329       73                                end of the record set and the record set
     2330       74                                is full, we'll call VDP$SCROLL_UP.
PL6.E3A0      #004=VDP$WSCROLL_DOWN File=VDP$WINDOW_I_O.:VDA5TSI                 FRI 07/04/97 11:40 Page:323
     2331       75        */
     2332       76
     2333       77        %INCLUDE CP_6;
     2334      158          %INCLUDE VD_MACROS_M;
     2335     2373
     2336     2374            %VD$WINDOW_SPEC ( NAME = SCROLL_WINDOW,
     2337     2375            STCLASS = PARAM );
     2338     2441            %VD$KEY ( NAME = SCROLL_KEY,
     2339     2442            STCLASS = PARAM );
     2340     2456            %VD$SPEC ( NAME = SCROLL_SPEC,
     2341     2457            STCLASS = PARAM );
     2342     2471            %VD$BUFFER ( NAME = SCROLL_DATA,
     2343     2472            STCLASS = PARAM );
     2344     2530
     2345     2531            %VD$NUMBER ( NAME = VD_$$MON_PRES,
     2346     2532            STCLASS = SYMREF );
     2347     2577
     2348     2578    1     DCL RECORD_SET_INDEX SBIN;
     2349     2579    1     DCL RECORD_SET_KEY$ PTR;
     2350     2580    1     DCL RECORD_SET_SCROLL_INDEX SBIN;
     2351     2581    1     DCL SCROLL_KEY$ PTR;
     2352     2582    1     DCL SCROLL_NUMBER UBIN;
     2353     2583
     2354     2584        %FPT_DELREC (KEY=LAST_NUMBER);
     2355     2603    1     DCL LAST_NUMBER UBIN STATIC;
     2356     2604
     2357     2605          %VD$BUFFER;
     2358     2663          %VD$RECORD_SET ( NAME = RECORD$SET,
     2359     2664                           STCLASS = "BASED ( SCROLL_WINDOW.RECORD_SET$ )" );
     2360     2742          %VD$TEXTC;
     2361     2765        %VD$TEXTC_NUMBER;
     2362     2779          %VD$TEXTC_REMOTE;
     2363     2840          %VD$WINDOW_SPEC;
     2364     2906
     2365     2907    1     DCL VDG$MPRES_RETURN ENTRY (1);
     2366     2908    1     DCL VDG$MPRES_WSCROLL_DOWN ENTRY (2);
     2367     2909    1     DCL VDG$OALLOC ENTRY (3) ALTRET;
PL6.E3A0      #004=VDP$WSCROLL_DOWN File=VDP$WINDOW_I_O.:VDA5TSI                 FRI 07/04/97 11:40 Page:324
     2368     2910    1     DCL VDG$OCOPY ENTRY (2) ALTRET;
     2369     2911    1     DCL VDG$OFREE ENTRY (1) ALTRET;
     2370     2912    1     DCL VDP$WSCROLL_UP ENTRY (6) ALTRET;
     2371     2913        %EJECT;
PL6.E3A0      #004=VDP$WSCROLL_DOWN File=VDP$WINDOW_I_O.:VDA5TSI                 FRI 07/04/97 11:40 Page:325
     2372     2914    1       IF VD_$$MON_PRES.V# > 10
     2373     2915    1       THEN
     2374     2916    1         CALL VDG$MPRES_WSCROLL_DOWN ( SCROLL_WINDOW,
     2375     2917    1           SCROLL_KEY );
     2376     2918
     2377     2919            %GETKEY ( KEY = SCROLL_KEY,
     2378     2920            PTR = SCROLL_KEY$ );
     2379     2930    1       SCROLL_NUMBER = SCROLL_KEY$ -> VD$TEXTC_NUMBER.BYTES#;
     2380     2931    1       FPT_DELREC.V.DCB# = SCROLL_WINDOW.DCB#;
     2381     2932
     2382     2933    1   FIND_SCROLL_KEY:
     2383     2934    2       DO RECORD_SET_INDEX = 0 TO RECORD$SET.N_ENTRIES# - 1;
     2384     2935
     2385     2936              %GETKEY ( KEY = "RECORD$SET.DESC.KEY",
     2386     2937              INDX = RECORD_SET_INDEX,
     2387     2938              PTR = RECORD_SET_KEY$ );
     2388     2948
     2389     2949    2         LAST_NUMBER = RECORD_SET_KEY$ -> VD$TEXTC_NUMBER.BYTES#;
     2390     2950    2         IF LAST_NUMBER = SCROLL_NUMBER
     2391     2951    2         THEN
     2392     2952    2   REPLACE_SPEC_AND_DATA:
     2393     2953    3           DO;
     2394     2954    3             CALL VDG$OFREE ( RECORD$SET.DESC.DATA$ ( RECORD_SET_INDEX ) -> VD$BUFFER )
     2395     2955    4             WHENALTRETURN DO; ALTRETURN; END;
     2396     2956    3             CALL VDG$OCOPY ( SCROLL_DATA,
     2397     2957    3               RECORD$SET.DESC.DATA$ ( RECORD_SET_INDEX ) )
     2398     2958    4             WHENALTRETURN DO; ALTRETURN; END;
     2399     2959    3             RETURN;
     2400     2960    3           END REPLACE_SPEC_AND_DATA;
     2401     2961
     2402     2962    2         IF LAST_NUMBER > SCROLL_NUMBER
     2403     2963    2         THEN
     2404     2964    2   SHUFFLE_AND_INSERT:
     2405     2965    3           DO;
     2406     2966
     2407     2967    3             IF RECORD$SET.N_ENTRIES# = RECORD$SET.MX_ENTRIES#
     2408     2968    3             THEN
PL6.E3A0      #004=VDP$WSCROLL_DOWN File=VDP$WINDOW_I_O.:VDA5TSI                 FRI 07/04/97 11:40 Page:326
     2409     2969    3   LOP_OFF_LAST_ENTRY:
     2410     2970    4               DO;
     2411     2971    4                 IF RECORD_SET_INDEX+1 = RECORD$SET.N_ENTRIES#
     2412     2972    4                 THEN
     2413     2973    5                   DO;
     2414     2974        /* If the cursor was ever on the "eof" record, it is possible that VDH
     2415     2975           has deleted the first record we think it had, and still has the last
     2416     2976           one we're about to lose track of.  (See star 37412).  Make sure VDH
     2417     2977           doesn't have it, by deleting it from VDH's cache. */
     2418     2978
     2419     2979    6                     CALL M$DELREC (FPT_DELREC) WHENALTRETURN DO; END;
     2420     2980    5                   END;
     2421     2981                      %CLEARKEY ( KEY = "RECORD$SET.DESC.KEY",
     2422     2982                      INDX = "RECORD$SET.N_ENTRIES# - 1" );
     2423     2992    4                 SCROLL_WINDOW.EOB_DISPLAYED = %FALSE;
     2424     2993    4                 CALL VDG$OFREE ( RECORD$SET.DESC.DATA$ ( RECORD$SET.N_ENTRIES# - 1 )
              2993                          -> VD$BUFFER )
     2425     2994    5                 WHENALTRETURN DO; ALTRETURN; END;
     2426     2995    4               END LOP_OFF_LAST_ENTRY;
     2427     2996    3             ELSE
     2428     2997    3   EXPAND_RECORD_SET:
     2429     2998    4               DO;
     2430     2999    4                 RECORD$SET.N_ENTRIES# = RECORD$SET.N_ENTRIES# + 1;
     2431     3000    4               END EXPAND_RECORD_SET;
     2432     3001
     2433     3002    3   SHUFFLE_EVERYTHING_DOWN_1:
     2434     3003    4             DO;
     2435     3004    4               DO RECORD_SET_SCROLL_INDEX = RECORD$SET.N_ENTRIES# - 2
     2436     3005    5                 DOWNTO RECORD_SET_INDEX;
     2437     3006    5                 RECORD$SET.DESC ( RECORD_SET_SCROLL_INDEX + 1 ) =
     2438     3007    5                   RECORD$SET.DESC ( RECORD_SET_SCROLL_INDEX );
     2439     3008    5               END;
     2440     3009    4             END SHUFFLE_EVERYTHING_DOWN_1;
     2441     3010
     2442     3011    3             IF RECORD_SET_INDEX = 0
     2443     3012    3             THEN
     2444     3013    3               RECORD$SET.SQ_OFFSET# = RECORD$SET.SQ_OFFSET# - 1;
PL6.E3A0      #004=VDP$WSCROLL_DOWN File=VDP$WINDOW_I_O.:VDA5TSI                 FRI 07/04/97 11:40 Page:327
     2445     3014                  %COPYKEY ( FKEY = SCROLL_KEY,
     2446     3015                  TKEY = "RECORD$SET.DESC.KEY",
     2447     3016                  TINDX = RECORD_SET_INDEX );
     2448     3032    3             CALL VDG$OCOPY ( SCROLL_DATA,
     2449     3033    3               RECORD$SET.DESC.DATA$ ( RECORD_SET_INDEX ) )
     2450     3034    4             WHENALTRETURN DO; ALTRETURN; END;
     2451     3035
     2452     3036    3             RETURN;
     2453     3037
     2454     3038    3           END SHUFFLE_AND_INSERT;
     2455     3039
     2456     3040    2       END FIND_SCROLL_KEY;
     2457     3041
     2458     3042            /*  The key to insert is higher than any key in the record set
     2459     3043                (the record set may be empty).  */
     2460     3044    1       IF RECORD$SET.N_ENTRIES# = RECORD$SET.MX_ENTRIES#
     2461     3045    1       THEN
     2462     3046    1   OOPS_ITS_REALLY_A_SCROLL_UP:
     2463     3047    2         DO;
     2464     3048                /*  Here's the case where a record's inserted past EOF
     2465     3049                    and the record set's full.  */
     2466     3050    2           CALL VDP$WSCROLL_UP ( SCROLL_WINDOW,
     2467     3051    2             SCROLL_KEY,
     2468     3052    2             SCROLL_SPEC,
     2469     3053    2             SCROLL_DATA,
     2470     3054    2             /* no deletion_first_key */,
     2471     3055    2             /* no deletion_last_key */ )
     2472     3056    2           WHENALTRETURN
     2473     3057    3             DO;
     2474     3058    3               ALTRETURN;
     2475     3059    3             END;
     2476     3060    2         END OOPS_ITS_REALLY_A_SCROLL_UP;
     2477     3061    1       ELSE
     2478     3062    1   EXTEND_LAST_ENTRY:
     2479     3063    2         DO;
     2480     3064                /*  Here's the case where a record's inserted past EOF
     2481     3065                    and the record set's not full.  */
PL6.E3A0      #004=VDP$WSCROLL_DOWN File=VDP$WINDOW_I_O.:VDA5TSI                 FRI 07/04/97 11:40 Page:328
     2482     3066    2           RECORD$SET.N_ENTRIES# = RECORD$SET.N_ENTRIES# + 1;
     2483     3067                %COPYKEY ( FKEY = SCROLL_KEY,
     2484     3068                TKEY = "RECORD$SET.DESC.KEY",
     2485     3069                TINDX = "RECORD$SET.N_ENTRIES# - 1" );
     2486     3085    2           CALL VDG$OCOPY ( SCROLL_DATA,
     2487     3086    2             RECORD$SET.DESC.DATA$ ( RECORD$SET.N_ENTRIES# - 1 ) )
     2488     3087    3           WHENALTRETURN DO; ALTRETURN; END;
     2489     3088    2         END EXTEND_LAST_ENTRY;
     2490     3089
     2491     3090    1       IF VD_$$MON_PRES.V# > 10
     2492     3091    1       THEN
     2493     3092    1         CALL VDG$MPRES_RETURN ( SCROLL_WINDOW );
     2494     3093
     2495     3094    1       RETURN;
     2496     3095
     2497     3096    1   END VDP$WSCROLL_DOWN;
     2498     3097        %EOD;

PL6.E3A0      #004=VDP$WSCROLL_DOWN File=VDP$WINDOW_I_O.:VDA5TSI                 FRI 07/04/97 11:40 Page:329
--  Include file information  --

   VD_MACROS_M.:VDA5TOU  is referenced.
   CP_6.:LIBRARY  cannot be made into a system file and is referenced.
   B$JIT_C.:E04TOU  was found in the system file and is never referenced.
   CP_6_C.:E04TOU  was found in the system file and is referenced.
      No diagnostics issued in procedure VDP$WSCROLL_DOWN.

   Procedure VDP$WSCROLL_DOWN requires 266 words for executable code.
   Procedure VDP$WSCROLL_DOWN requires 14 words of local(AUTO) storage.

PL6.E3A0      #004=VDP$WSCROLL_DOWN File=VDP$WINDOW_I_O.:VDA5TSI                 FRI 07/04/97 11:40 Page:330

 Object Unit name= VDP$WSCROLL_DOWN                           File name= VDP$WINDOW_I_O.:VDA5TOU
 UTS= JUL 04 '97 11:40:58.32 FRI                              Compiler= PL-6/E31         Sev=      00
 SharedLib= :SHARED_SYSTEM                                    Alt SharedLib=


    ****  Control sections  ****

 Sect   Type Bound  Init  Size OctSiz  Section name(segment info)
    0   DCB   even  none     0      0  M$UC
    1   Data  even  none    11     13  VDP$WSCROLL_DOWN
    2   Proc  even  none   266    412  VDP$WSCROLL_DOWN
    3  RoData even  none     1      1  VDP$WSCROLL_DOWN

    ****  Entry defs  ****

                              Check   Calling
                             calling  sequence
  Sect OctLoc Primary Altret sequence   type   Parms  Name
     2      0   yes    yes     yes      Std        4  VDP$WSCROLL_DOWN

  ****  Entry refs  ****

         Check        Calling
        calling       sequence
Altret sequence SRef   type   Args  Name
         yes           Std       2 VDG$MPRES_WSCROLL_DOWN
 yes     yes           Std       1 VDG$OFREE
 yes     yes           Std       6 VDP$WSCROLL_UP
 yes     yes           Std       2 VDG$OCOPY
         yes           Std       1 VDG$MPRES_RETURN
                       nStd      0 X66_AUTO_4
                       Std       0 B_CONSPOOL_D
                       nStd      0 X66_AALT
                       nStd      0 X66_ARET
PL6.E3A0      #004=VDP$WSCROLL_DOWN File=VDP$WINDOW_I_O.:VDA5TSI                 FRI 07/04/97 11:40 Page:331

  ****  Data refs  ****

  Flags:  r = read only, s = secondary
Flgs Name                             Flgs Name                             Flgs Name
     M$UC                                  VD_$$MON_PRES                         B_VECTNIL

  ****  Segment refs  ****

  Flags:  r = read only, s = secondary
Flgs Name                             Flgs Name                             Flgs Name
     ISSID                                 NULLSID
PL6.E3A0      #004=VDP$WSCROLL_DOWN File=VDP$WINDOW_I_O.:VDA5TSI                 FRI 07/04/97 11:40 Page:332


     2257        1        /*M* VDP$WSCROLL_DOWN:  Scroll a window down.  */
     2258        2        /*T***********************************************************/
     2259        3        /*T*                                                         */
     2260        4        /*T* Copyright (c) Bull HN Information Systems Inc., 1997    */
     2261        5        /*T*                                                         */
     2262        6        /*T***********************************************************/
     2263        7        /*X* DMC,PLM=4,IND=0,DCI=4,CSI=2,IAD=2,DTI=2,AND,ECI=0,DIN=2,STI=2 */
     2264        8
     2265        9        /*P*  NAME:         VDP$WSCROLL_DOWN
     2266       10              PURPOSE:      Presenter's scroll-record-set-down module.
     2267       11              DESCRIPTION:  Called to scroll a record set down.
     2268       12        */
     2269       13
     2270       14        VDP$WSCROLL_DOWN: PROC ( SCROLL_WINDOW,

     14  2 000000   000000 700200 xent  VDP$WSCROLL* TSX0  ! X66_AUTO_4
         2 000001   000016 000004                    ZERO    14,4

     2271       15              SCROLL_KEY,
     2272       16              SCROLL_SPEC,
     2273       17              SCROLL_DATA )
     2274       18              ALTRET;
     2275       19
     2276       20        /*D*  NAME:         VDP$WSCROLL_DOWN
     2277       21              CALL:         CALL VDP$WSCROLL_DOWN ( scroll_window,
     2278       22                                                    scroll_key,
     2279       23                                                    scroll_spec,
     2280       24                                                    scroll_data )
     2281       25                            ALTRET ( label );
     2282       26              PARAMETERS:   scroll_window is a VD$WINDOW_SPEC corresponding
     2283       27                            to the window to scroll;
     2284       28                            scroll_key is the key causing the scroll-down
     2285       29                            request.
     2286       30                            scroll_spec and scroll_data contain the spec and
     2287       31                            data components at the scroll_key
     2288       32              INTERFACE:    Called from VDP$WREAD when:
PL6.E3A0      #004=VDP$WSCROLL_DOWN File=VDP$WINDOW_I_O.:VDA5TSI                 FRI 07/04/97 11:40 Page:333
     2289       33                            1)  a record has been inserted or replaced;
     2290       34                            2)  an E$RECORDS_NEEDED altret was received
     2291       35                                and an appropriate record was found in the
     2292       36                                file.
     2293       37              ENVIRONMENT:  Nothing unusual.
     2294       38              INPUT:
     2295       39              OUTPUT:
     2296       40              SCRATCH:
     2297       41              DESCRIPTION:  If appropriate, scrolls the record set down,
     2298       42                            i.e., moves all or part of the record set in
     2299       43                            the EOF direction, thereby "losing" a record
     2300       44                            at the end of the record set if it's already
     2301       45                            full.
     2302       46                            The code within is really handling several
     2303       47                            different cases, not all of them actually
     2304       48                            requiring action by this routine.  This module
     2305       49                            really exists only such that there be only *1*
     2306       50                            fellow who actually scrolls the record set down
     2307       51                            (bugs, hopefully, being easier to find that way).
     2308       52                            Called because:
     2309       53                            1)  An E$RECORDS_NEEDED was received for the
     2310       54                                backwards (towards BOF) direction and an
     2311       55                                appropriate record was found in the file
     2312       56                                and written to the FEP.  We'll insert that
     2313       57                                key at the beginning of the record set and
     2314       58                                shuffle everything down 1, losing the last
     2315       59                                entry if the record set was already full.
     2316       60                                If the record set was empty, we'll add to
     2317       61                                the beginning.
     2318       62                            2)  A record was replaced.  We'll find the
     2319       63                                key in the record set already and RETURN.
     2320       64                            3)  A record was inserted.  We'll find a
     2321       65                                key in the record set which is greater
     2322       66                                than the key of the inserted record, and
     2323       67                                shuffle everything down 1 from there on,
     2324       68                                losing the last entry if the record set was
     2325       69                                already full.  If the inserted record is
PL6.E3A0      #004=VDP$WSCROLL_DOWN File=VDP$WINDOW_I_O.:VDA5TSI                 FRI 07/04/97 11:40 Page:334
     2326       70                                past the end of the record set and the
     2327       71                                record set's not full, we'll add to the
     2328       72                                end.  If the inserted record is past the
     2329       73                                end of the record set and the record set
     2330       74                                is full, we'll call VDP$SCROLL_UP.
     2331       75        */
     2332       76
     2333       77        %INCLUDE CP_6;
     2334      158          %INCLUDE VD_MACROS_M;
     2335     2373
     2336     2374            %VD$WINDOW_SPEC ( NAME = SCROLL_WINDOW,
     2337     2375            STCLASS = PARAM );
     2338     2441            %VD$KEY ( NAME = SCROLL_KEY,
     2339     2442            STCLASS = PARAM );
     2340     2456            %VD$SPEC ( NAME = SCROLL_SPEC,
     2341     2457            STCLASS = PARAM );
     2342     2471            %VD$BUFFER ( NAME = SCROLL_DATA,
     2343     2472            STCLASS = PARAM );
     2344     2530
     2345     2531            %VD$NUMBER ( NAME = VD_$$MON_PRES,
     2346     2532            STCLASS = SYMREF );
     2347     2577
     2348     2578    1     DCL RECORD_SET_INDEX SBIN;
     2349     2579    1     DCL RECORD_SET_KEY$ PTR;
     2350     2580    1     DCL RECORD_SET_SCROLL_INDEX SBIN;
     2351     2581    1     DCL SCROLL_KEY$ PTR;
     2352     2582    1     DCL SCROLL_NUMBER UBIN;
     2353     2583
     2354     2584        %FPT_DELREC (KEY=LAST_NUMBER);
     2355     2603    1     DCL LAST_NUMBER UBIN STATIC;
     2356     2604
     2357     2605          %VD$BUFFER;
     2358     2663          %VD$RECORD_SET ( NAME = RECORD$SET,
     2359     2664                           STCLASS = "BASED ( SCROLL_WINDOW.RECORD_SET$ )" );
     2360     2742          %VD$TEXTC;
     2361     2765        %VD$TEXTC_NUMBER;
     2362     2779          %VD$TEXTC_REMOTE;
PL6.E3A0      #004=VDP$WSCROLL_DOWN File=VDP$WINDOW_I_O.:VDA5TSI                 FRI 07/04/97 11:40 Page:335
     2363     2840          %VD$WINDOW_SPEC;
     2364     2906
     2365     2907    1     DCL VDG$MPRES_RETURN ENTRY (1);
     2366     2908    1     DCL VDG$MPRES_WSCROLL_DOWN ENTRY (2);
     2367     2909    1     DCL VDG$OALLOC ENTRY (3) ALTRET;
     2368     2910    1     DCL VDG$OCOPY ENTRY (2) ALTRET;
     2369     2911    1     DCL VDG$OFREE ENTRY (1) ALTRET;
     2370     2912    1     DCL VDP$WSCROLL_UP ENTRY (6) ALTRET;
     2371     2913        %EJECT;
PL6.E3A0      #004=VDP$WSCROLL_DOWN File=VDP$WINDOW_I_O.:VDA5TSI                 FRI 07/04/97 11:40 Page:336
     2372     2914    1       IF VD_$$MON_PRES.V# > 10

   2914  2 000002   000003 235000 xsym               LDA     VD_$$MON_PRES+3
         2 000003   000012 115007                    CMPA    10,DL
         2 000004   000011 604400 2                  TMOZ    s:2927

     2373     2915    1       THEN
     2374     2916    1         CALL VDG$MPRES_WSCROLL_DOWN ( SCROLL_WINDOW,

   2916  2 000005   200003 630500                    EPPR0   @SCROLL_WINDOW,,AUTO
         2 000006   000020 631400 xsym               EPPR1   B_VECTNIL+16
         2 000007   000000 701000 xent               TSX1    VDG$MPRES_WSCROLL_DOWN
         2 000010   000000 011000                    NOP     0

     2375     2917    1           SCROLL_KEY );
     2376     2918
     2377     2919            %GETKEY ( KEY = SCROLL_KEY,
     2378     2920            PTR = SCROLL_KEY$ );

   2927  2 000011   200004 470500                    LDP0    @SCROLL_KEY,,AUTO
         2 000012   000000 720100                    LXL0    0,,PR0
         2 000013   000002 100003                    CMPX0   2,DU
         2 000014   000021 601000 2                  TNZ     s:2927+8

   2927  2 000015   000001 471500                    LDP1    1,,PR0
         2 000016   100002 633500                    EPPR3   2,,PR1
         2 000017   200012 453500                    STP3    SCROLL_KEY$,,AUTO
         2 000020   000024 710000 2                  TRA     s:2930

   2927  2 000021   200004 236100                    LDQ     @SCROLL_KEY,,AUTO
         2 000022   000001 036003                    ADLQ    1,DU
         2 000023   200012 756100                    STQ     SCROLL_KEY$,,AUTO

     2379     2930    1       SCROLL_NUMBER = SCROLL_KEY$ -> VD$TEXTC_NUMBER.BYTES#;

   2930  2 000024   200012 471500                    LDP1    SCROLL_KEY$,,AUTO
         2 000025   100000 236100                    LDQ     0,,PR1
PL6.E3A0      #004=VDP$WSCROLL_DOWN File=VDP$WINDOW_I_O.:VDA5TSI                 FRI 07/04/97 11:40 Page:337
         2 000026   000032 376000 xsym               ANQ     B_VECTNIL+26
         2 000027   200013 756100                    STQ     SCROLL_NUMBER,,AUTO

     2380     2931    1       FPT_DELREC.V.DCB# = SCROLL_WINDOW.DCB#;

   2931  2 000030   200003 473500                    LDP3    @SCROLL_WINDOW,,AUTO
         2 000031   300014 721100                    LXL1    12,,PR3
         2 000032   000010 741000 1                  STX1    FPT_DELREC+8

     2381     2932
     2382     2933    1   FIND_SCROLL_KEY:
     2383     2934    2       DO RECORD_SET_INDEX = 0 TO RECORD$SET.N_ENTRIES# - 1;

   2934  2 000033   200007 450100       FIND_SCROLL* STZ     RECORD_SET_INDEX,,AUTO
         2 000034   000306 710000 2                  TRA     s:3040+1

     2384     2935
     2385     2936              %GETKEY ( KEY = "RECORD$SET.DESC.KEY",
     2386     2937              INDX = RECORD_SET_INDEX,
     2387     2938              PTR = RECORD_SET_KEY$ );

   2945  2 000035   200003 470500                    LDP0    @SCROLL_WINDOW,,AUTO
         2 000036   000016 471500                    LDP1    14,,PR0
         2 000037   200007 236100                    LDQ     RECORD_SET_INDEX,,AUTO
         2 000040   000006 402007                    MPY     6,DL
         2 000041   100003 720106                    LXL0    3,QL,PR1
         2 000042   000002 100003                    CMPX0   2,DU
         2 000043   000050 601000 2                  TNZ     s:2945+11

   2945  2 000044   100004 473506                    LDP3    4,QL,PR1
         2 000045   300002 634500                    EPPR4   2,,PR3
         2 000046   200010 454500                    STP4    RECORD_SET_KEY$,,AUTO
         2 000047   000052 710000 2                  TRA     s:2949

   2945  2 000050   100004 633506                    EPPR3   4,QL,PR1
         2 000051   200010 453500                    STP3    RECORD_SET_KEY$,,AUTO

PL6.E3A0      #004=VDP$WSCROLL_DOWN File=VDP$WINDOW_I_O.:VDA5TSI                 FRI 07/04/97 11:40 Page:338
     2388     2948
     2389     2949    2         LAST_NUMBER = RECORD_SET_KEY$ -> VD$TEXTC_NUMBER.BYTES#;

   2949  2 000052   200010 473500                    LDP3    RECORD_SET_KEY$,,AUTO
         2 000053   300000 236100                    LDQ     0,,PR3
         2 000054   000032 376000 xsym               ANQ     B_VECTNIL+26
         2 000055   000012 756000 1                  STQ     LAST_NUMBER

     2390     2950    2         IF LAST_NUMBER = SCROLL_NUMBER

   2950  2 000056   200013 116100                    CMPQ    SCROLL_NUMBER,,AUTO
         2 000057   000111 601000 2                  TNZ     s:2962

     2391     2951    2         THEN
     2392     2952    2   REPLACE_SPEC_AND_DATA:
     2393     2953    3           DO;

   2953  2 000060                       REPLACE_SPE* null
     2394     2954    3            CALL VDG$OFREE ( RECORD$SET.DESC.DATA$ ( RECORD_SET_INDEX ) -> VD$BUFFER )

   2954  2 000060   200007 236100                    LDQ     RECORD_SET_INDEX,,AUTO
         2 000061   000006 402007                    MPY     6,DL
         2 000062   100007 474506                    LDP4    7,QL,PR1
         2 000063   200014 454500                    STP4    SCROLL_NUMBER+1,,AUTO
         2 000064   200014 630500                    EPPR0   SCROLL_NUMBER+1,,AUTO
         2 000065   000017 631400 xsym               EPPR1   B_VECTNIL+15
         2 000066   000000 701000 xent               TSX1    VDG$OFREE
         2 000067   000071 702000 2                  TSX2    s:2955
         2 000070   000072 710000 2                  TRA     s:2956

     2395     2955    4             WHENALTRETURN DO; ALTRETURN; END;

   2955  2 000071   000000 702200 xent               TSX2  ! X66_AALT

     2396     2956    3             CALL VDG$OCOPY ( SCROLL_DATA,

   2956  2 000072   200003 470500                    LDP0    @SCROLL_WINDOW,,AUTO
PL6.E3A0      #004=VDP$WSCROLL_DOWN File=VDP$WINDOW_I_O.:VDA5TSI                 FRI 07/04/97 11:40 Page:339
         2 000073   000016 471500                    LDP1    14,,PR0
         2 000074   200007 236100                    LDQ     RECORD_SET_INDEX,,AUTO
         2 000075   000006 402007                    MPY     6,DL
         2 000076   100007 633506                    EPPR3   7,QL,PR1
         2 000077   200015 453500                    STP3    SCROLL_NUMBER+2,,AUTO
         2 000100   200006 236100                    LDQ     @SCROLL_DATA,,AUTO
         2 000101   200014 756100                    STQ     SCROLL_NUMBER+1,,AUTO
         2 000102   200014 630500                    EPPR0   SCROLL_NUMBER+1,,AUTO
         2 000103   000020 631400 xsym               EPPR1   B_VECTNIL+16
         2 000104   000000 701000 xent               TSX1    VDG$OCOPY
         2 000105   000107 702000 2                  TSX2    s:2958
         2 000106   000110 710000 2                  TRA     s:2959

     2397     2957    3               RECORD$SET.DESC.DATA$ ( RECORD_SET_INDEX ) )
     2398     2958    4             WHENALTRETURN DO; ALTRETURN; END;

   2958  2 000107   000000 702200 xent               TSX2  ! X66_AALT

     2399     2959    3             RETURN;

   2959  2 000110   000000 702200 xent               TSX2  ! X66_ARET

     2400     2960    3           END REPLACE_SPEC_AND_DATA;
     2401     2961
     2402     2962    2         IF LAST_NUMBER > SCROLL_NUMBER

   2962  2 000111   000305 602000 2                  TNC     s:3040
         2 000112   000305 600000 2                  TZE     s:3040

     2403     2963    2         THEN
     2404     2964    2   SHUFFLE_AND_INSERT:
     2405     2965    3           DO;

   2965  2 000113                       SHUFFLE_AND* null
     2406     2966
     2407     2967    3             IF RECORD$SET.N_ENTRIES# = RECORD$SET.MX_ENTRIES#

PL6.E3A0      #004=VDP$WSCROLL_DOWN File=VDP$WINDOW_I_O.:VDA5TSI                 FRI 07/04/97 11:40 Page:340
   2967  2 000113   100002 720100                    LXL0    2,,PR1
         2 000114   100002 100100                    CMPX0   2,,PR1
         2 000115   000203 601000 2                  TNZ     EXPAND_RECORD_SET

     2408     2968    3             THEN
     2409     2969    3   LOP_OFF_LAST_ENTRY:
     2410     2970    4               DO;

   2970  2 000116                       LOP_OFF_LAS* null
     2411     2971    4                 IF RECORD_SET_INDEX+1 = RECORD$SET.N_ENTRIES#

   2971  2 000116   100002 236100                    LDQ     2,,PR1
         2 000117   000022 732000                    QRS     18
         2 000120   200014 756100                    STQ     SCROLL_NUMBER+1,,AUTO
         2 000121   200007 236100                    LDQ     RECORD_SET_INDEX,,AUTO
         2 000122   000001 036007                    ADLQ    1,DL
         2 000123   200014 116100                    CMPQ    SCROLL_NUMBER+1,,AUTO
         2 000124   000132 601000 2                  TNZ     s:2989

     2412     2972    4                 THEN
     2413     2973    5                   DO;

     2414     2974        /* If the cursor was ever on the "eof" record, it is possible that VDH
     2415     2975           has deleted the first record we think it had, and still has the last
     2416     2976           one we're about to lose track of.  (See star 37412).  Make sure VDH
     2417     2977           doesn't have it, by deleting it from VDH's cache. */
     2418     2978
     2419     2979    6                     CALL M$DELREC (FPT_DELREC) WHENALTRETURN DO; END;

   2979  2 000125   000000 630400 1                  EPPR0   FPT_DELREC
         2 000126   440002 713400                    CLIMB   alt,+16386
         2 000127   401400 401760                    pmme    nvectors=4
         2 000130   000132 702000 2                  TSX2    s:2989
         2 000131   000132 710000 2                  TRA     s:2989

     2420     2980    5                   END;

PL6.E3A0      #004=VDP$WSCROLL_DOWN File=VDP$WINDOW_I_O.:VDA5TSI                 FRI 07/04/97 11:40 Page:341
     2421     2981                      %CLEARKEY ( KEY = "RECORD$SET.DESC.KEY",
     2422     2982                      INDX = "RECORD$SET.N_ENTRIES# - 1" );

   2989  2 000132   200003 470500                    LDP0    @SCROLL_WINDOW,,AUTO
         2 000133   000016 471500                    LDP1    14,,PR0
         2 000134   100002 236100                    LDQ     2,,PR1
         2 000135   000022 732000                    QRS     18
         2 000136   000006 402007                    MPY     6,DL
         2 000137   177775 720106                    LXL0    -3,QL,PR1
         2 000140   000002 100003                    CMPX0   2,DU
         2 000141   000155 601000 2                  TNZ     s:2990+1

   2989  2 000142   100002 236100                    LDQ     2,,PR1
         2 000143   000022 732000                    QRS     18
         2 000144   000006 402007                    MPY     6,DL
         2 000145   177776 473506                    LDP3    -2,QL,PR1
         2 000146   200014 453500                    STP3    SCROLL_NUMBER+1,,AUTO
         2 000147   200014 630500                    EPPR0   SCROLL_NUMBER+1,,AUTO
         2 000150   000017 631400 xsym               EPPR1   B_VECTNIL+15
         2 000151   000000 701000 xent               TSX1    VDG$OFREE
         2 000152   000154 702000 2                  TSX2    s:2990
         2 000153   000155 710000 2                  TRA     s:2990+1

   2990  2 000154   000000 702200 xent               TSX2  ! X66_AALT

   2990  2 000155   200003 470500                    LDP0    @SCROLL_WINDOW,,AUTO
         2 000156   000016 471500                    LDP1    14,,PR0
         2 000157   100002 236100                    LDQ     2,,PR1
         2 000160   000022 732000                    QRS     18
         2 000161   000006 402007                    MPY     6,DL
         2 000162   177775 450106                    STZ     -3,QL,PR1
         2 000163   177776 450106                    STZ     -2,QL,PR1

     2423     2992    4                 SCROLL_WINDOW.EOB_DISPLAYED = %FALSE;

   2992  2 000164   000000 236000 3                  LDQ     0
         2 000165   000015 356100                    ANSQ    13,,PR0
PL6.E3A0      #004=VDP$WSCROLL_DOWN File=VDP$WINDOW_I_O.:VDA5TSI                 FRI 07/04/97 11:40 Page:342

     2424     2993    4                 CALL VDG$OFREE ( RECORD$SET.DESC.DATA$ ( RECORD$SET.N_ENTRIES# - 1 )
              2993                          -> VD$BUFFER )

   2993  2 000166   000016 471500                    LDP1    14,,PR0
         2 000167   100002 236100                    LDQ     2,,PR1
         2 000170   000022 732000                    QRS     18
         2 000171   000006 402007                    MPY     6,DL
         2 000172   100001 473506                    LDP3    1,QL,PR1
         2 000173   200014 453500                    STP3    SCROLL_NUMBER+1,,AUTO
         2 000174   200014 630500                    EPPR0   SCROLL_NUMBER+1,,AUTO
         2 000175   000017 631400 xsym               EPPR1   B_VECTNIL+15
         2 000176   000000 701000 xent               TSX1    VDG$OFREE
         2 000177   000201 702000 2                  TSX2    s:2994
         2 000200   000202 710000 2                  TRA     s:2995

     2425     2994    5                 WHENALTRETURN DO; ALTRETURN; END;

   2994  2 000201   000000 702200 xent               TSX2  ! X66_AALT

     2426     2995    4               END LOP_OFF_LAST_ENTRY;

   2995  2 000202   000206 710000 2                  TRA     SHUFFLE_EVERYTHING_DOWN_1

     2427     2996    3             ELSE
     2428     2997    3   EXPAND_RECORD_SET:
     2429     2998    4               DO;

   2998  2 000203                       EXPAND_RECO* null
     2430     2999    4                 RECORD$SET.N_ENTRIES# = RECORD$SET.N_ENTRIES# + 1;

   2999  2 000203   100002 221100                    LDX1    2,,PR1
         2 000204   000001 622011                    EAX2    1,X1
         2 000205   100002 742100                    STX2    2,,PR1

     2431     3000    4               END EXPAND_RECORD_SET;

PL6.E3A0      #004=VDP$WSCROLL_DOWN File=VDP$WINDOW_I_O.:VDA5TSI                 FRI 07/04/97 11:40 Page:343
     2432     3001
     2433     3002    3   SHUFFLE_EVERYTHING_DOWN_1:
     2434     3003    4             DO;

   3003  2 000206                       SHUFFLE_EVE* null
     2435     3004    4               DO RECORD_SET_SCROLL_INDEX = RECORD$SET.N_ENTRIES# - 2
     2436     3005    5                 DOWNTO RECORD_SET_INDEX;

   3005  2 000206   200003 470500                    LDP0    @SCROLL_WINDOW,,AUTO
         2 000207   000016 471500                    LDP1    14,,PR0
         2 000210   100002 236100                    LDQ     2,,PR1
         2 000211   000022 732000                    QRS     18
         2 000212   000002 136007                    SBLQ    2,DL
         2 000213   200011 756100                    STQ     RECORD_SET_SCROLL_INDEX,,AUTO
         2 000214   000226 710000 2                  TRA     s:3008+2

     2437     3006    5                 RECORD$SET.DESC ( RECORD_SET_SCROLL_INDEX + 1 ) =

   3006  2 000215   200003 470500                    LDP0    @SCROLL_WINDOW,,AUTO
         2 000216   000016 471500                    LDP1    14,,PR0
         2 000217   200011 236100                    LDQ     RECORD_SET_SCROLL_INDEX,,AUTO
         2 000220   000030 402007                    MPY     24,DL
         2 000221   000106 100506                    MLR     fill='000'O
         2 000222   100003 000030                    ADSC9   3,Q,PR1                  cn=0,n=24
         2 000223   100011 000030                    ADSC9   9,Q,PR1                  cn=0,n=24

     2438     3007    5                   RECORD$SET.DESC ( RECORD_SET_SCROLL_INDEX );
     2439     3008    5               END;

   3008  2 000224   000001 336007                    LCQ     1,DL
         2 000225   200011 056100                    ASQ     RECORD_SET_SCROLL_INDEX,,AUTO
         2 000226   200011 236100                    LDQ     RECORD_SET_SCROLL_INDEX,,AUTO
         2 000227   200007 116100                    CMPQ    RECORD_SET_INDEX,,AUTO
         2 000230   000215 605000 2                  TPL     s:3006

     2440     3009    4             END SHUFFLE_EVERYTHING_DOWN_1;

PL6.E3A0      #004=VDP$WSCROLL_DOWN File=VDP$WINDOW_I_O.:VDA5TSI                 FRI 07/04/97 11:40 Page:344
     2441     3010
     2442     3011    3             IF RECORD_SET_INDEX = 0

   3011  2 000231   200007 235100                    LDA     RECORD_SET_INDEX,,AUTO
         2 000232   000236 601000 2                  TNZ     s:3029

     2443     3012    3             THEN
     2444     3013    3               RECORD$SET.SQ_OFFSET# = RECORD$SET.SQ_OFFSET# - 1;

   3013  2 000233   000016 471500                    LDP1    14,,PR0
         2 000234   000001 336007                    LCQ     1,DL
         2 000235   100001 056100                    ASQ     1,,PR1

     2445     3014                  %COPYKEY ( FKEY = SCROLL_KEY,
     2446     3015                  TKEY = "RECORD$SET.DESC.KEY",
     2447     3016                  TINDX = RECORD_SET_INDEX );

   3029  2 000236   000016 471500                    LDP1    14,,PR0
         2 000237   200007 236100                    LDQ     RECORD_SET_INDEX,,AUTO
         2 000240   000006 402007                    MPY     6,DL
         2 000241   000002 736000                    QLS     2
         2 000242   200004 473500                    LDP3    @SCROLL_KEY,,AUTO
         2 000243   000106 100500                    MLR     fill='000'O
         2 000244   300000 000010                    ADSC9   0,,PR3                   cn=0,n=8
         2 000245   100003 000010                    ADSC9   3,Q,PR1                  cn=0,n=8

   3029  2 000246   300000 720100                    LXL0    0,,PR3
         2 000247   000002 100003                    CMPX0   2,DU
         2 000250   000266 601000 2                  TNZ     s:3032

   3029  2 000251   300001 471500                    LDP1    1,,PR3
         2 000252   000016 474500                    LDP4    14,,PR0
         2 000253   200007 236100                    LDQ     RECORD_SET_INDEX,,AUTO
         2 000254   000006 402007                    MPY     6,DL
         2 000255   400004 635506                    EPPR5   4,QL,PR4
         2 000256   200015 455500                    STP5    SCROLL_NUMBER+2,,AUTO
         2 000257   200014 451500                    STP1    SCROLL_NUMBER+1,,AUTO
PL6.E3A0      #004=VDP$WSCROLL_DOWN File=VDP$WINDOW_I_O.:VDA5TSI                 FRI 07/04/97 11:40 Page:345
         2 000260   200014 630500                    EPPR0   SCROLL_NUMBER+1,,AUTO
         2 000261   000020 631400 xsym               EPPR1   B_VECTNIL+16
         2 000262   000000 701000 xent               TSX1    VDG$OCOPY
         2 000263   000265 702000 2                  TSX2    s:3030
         2 000264   000266 710000 2                  TRA     s:3032

   3030  2 000265   000000 702200 xent               TSX2  ! X66_AALT

     2448     3032    3             CALL VDG$OCOPY ( SCROLL_DATA,

   3032  2 000266   200003 470500                    LDP0    @SCROLL_WINDOW,,AUTO
         2 000267   000016 471500                    LDP1    14,,PR0
         2 000270   200007 236100                    LDQ     RECORD_SET_INDEX,,AUTO
         2 000271   000006 402007                    MPY     6,DL
         2 000272   100007 633506                    EPPR3   7,QL,PR1
         2 000273   200015 453500                    STP3    SCROLL_NUMBER+2,,AUTO
         2 000274   200006 236100                    LDQ     @SCROLL_DATA,,AUTO
         2 000275   200014 756100                    STQ     SCROLL_NUMBER+1,,AUTO
         2 000276   200014 630500                    EPPR0   SCROLL_NUMBER+1,,AUTO
         2 000277   000020 631400 xsym               EPPR1   B_VECTNIL+16
         2 000300   000000 701000 xent               TSX1    VDG$OCOPY
         2 000301   000303 702000 2                  TSX2    s:3034
         2 000302   000304 710000 2                  TRA     s:3036

     2449     3033    3               RECORD$SET.DESC.DATA$ ( RECORD_SET_INDEX ) )
     2450     3034    4             WHENALTRETURN DO; ALTRETURN; END;

   3034  2 000303   000000 702200 xent               TSX2  ! X66_AALT

     2451     3035
     2452     3036    3             RETURN;

   3036  2 000304   000000 702200 xent               TSX2  ! X66_ARET

     2453     3037
     2454     3038    3           END SHUFFLE_AND_INSERT;
     2455     3039
PL6.E3A0      #004=VDP$WSCROLL_DOWN File=VDP$WINDOW_I_O.:VDA5TSI                 FRI 07/04/97 11:40 Page:346
     2456     3040    2       END FIND_SCROLL_KEY;

   3040  2 000305   200007 054100                    AOS     RECORD_SET_INDEX,,AUTO
         2 000306   200003 470500                    LDP0    @SCROLL_WINDOW,,AUTO
         2 000307   000016 471500                    LDP1    14,,PR0
         2 000310   100002 236100                    LDQ     2,,PR1
         2 000311   000022 732000                    QRS     18
         2 000312   200007 116100                    CMPQ    RECORD_SET_INDEX,,AUTO
         2 000313   000035 605400 2                  TPNZ    s:2945

     2457     3041
     2458     3042            /*  The key to insert is higher than any key in the record set
     2459     3043                (the record set may be empty).  */
     2460     3044    1       IF RECORD$SET.N_ENTRIES# = RECORD$SET.MX_ENTRIES#

   3044  2 000314   100002 720100                    LXL0    2,,PR1
         2 000315   100002 100100                    CMPX0   2,,PR1
         2 000316   000326 601000 2                  TNZ     EXTEND_LAST_ENTRY

     2461     3045    1       THEN
     2462     3046    1   OOPS_ITS_REALLY_A_SCROLL_UP:
     2463     3047    2         DO;

   3047  2 000317                       OOPS_ITS_RE* null
     2464     3048                /*  Here's the case where a record's inserted past EOF
     2465     3049                    and the record set's full.  */
     2466     3050    2           CALL VDP$WSCROLL_UP ( SCROLL_WINDOW,

   3050  2 000317   200003 630500                    EPPR0   @SCROLL_WINDOW,,AUTO
         2 000320   000022 631400 xsym               EPPR1   B_VECTNIL+18
         2 000321   000000 701000 xent               TSX1    VDP$WSCROLL_UP
         2 000322   000324 702000 2                  TSX2    s:3058
         2 000323   000325 710000 2                  TRA     s:3060

     2467     3051    2             SCROLL_KEY,
     2468     3052    2             SCROLL_SPEC,
     2469     3053    2             SCROLL_DATA,
PL6.E3A0      #004=VDP$WSCROLL_DOWN File=VDP$WINDOW_I_O.:VDA5TSI                 FRI 07/04/97 11:40 Page:347
     2470     3054    2             /* no deletion_first_key */,
     2471     3055    2             /* no deletion_last_key */ )
     2472     3056    2           WHENALTRETURN
     2473     3057    3             DO;

     2474     3058    3               ALTRETURN;

   3058  2 000324   000000 702200 xent               TSX2  ! X66_AALT

     2475     3059    3             END;
     2476     3060    2         END OOPS_ITS_REALLY_A_SCROLL_UP;

   3060  2 000325   000402 710000 2                  TRA     s:3090

     2477     3061    1       ELSE
     2478     3062    1   EXTEND_LAST_ENTRY:
     2479     3063    2         DO;

   3063  2 000326                       EXTEND_LAST* null
     2480     3064                /*  Here's the case where a record's inserted past EOF
     2481     3065                    and the record set's not full.  */
     2482     3066    2           RECORD$SET.N_ENTRIES# = RECORD$SET.N_ENTRIES# + 1;

   3066  2 000326   100002 221100                    LDX1    2,,PR1
         2 000327   000001 622011                    EAX2    1,X1
         2 000330   100002 742100                    STX2    2,,PR1

     2483     3067                %COPYKEY ( FKEY = SCROLL_KEY,
     2484     3068                TKEY = "RECORD$SET.DESC.KEY",
     2485     3069                TINDX = "RECORD$SET.N_ENTRIES# - 1" );

   3082  2 000331   000016 471500                    LDP1    14,,PR0
         2 000332   100002 236100                    LDQ     2,,PR1
         2 000333   000022 732000                    QRS     18
         2 000334   000006 402007                    MPY     6,DL
         2 000335   000002 736000                    QLS     2
         2 000336   200004 473500                    LDP3    @SCROLL_KEY,,AUTO
PL6.E3A0      #004=VDP$WSCROLL_DOWN File=VDP$WINDOW_I_O.:VDA5TSI                 FRI 07/04/97 11:40 Page:348
         2 000337   000106 100500                    MLR     fill='000'O
         2 000340   300000 000010                    ADSC9   0,,PR3                   cn=0,n=8
         2 000341   177775 000010                    ADSC9   -3,Q,PR1                 cn=0,n=8

   3082  2 000342   300000 720100                    LXL0    0,,PR3
         2 000343   000002 100003                    CMPX0   2,DU
         2 000344   000363 601000 2                  TNZ     s:3085

   3082  2 000345   300001 471500                    LDP1    1,,PR3
         2 000346   000016 474500                    LDP4    14,,PR0
         2 000347   400002 236100                    LDQ     2,,PR4
         2 000350   000022 732000                    QRS     18
         2 000351   000006 402007                    MPY     6,DL
         2 000352   477776 635506                    EPPR5   -2,QL,PR4
         2 000353   200015 455500                    STP5    SCROLL_NUMBER+2,,AUTO
         2 000354   200014 451500                    STP1    SCROLL_NUMBER+1,,AUTO
         2 000355   200014 630500                    EPPR0   SCROLL_NUMBER+1,,AUTO
         2 000356   000020 631400 xsym               EPPR1   B_VECTNIL+16
         2 000357   000000 701000 xent               TSX1    VDG$OCOPY
         2 000360   000362 702000 2                  TSX2    s:3083
         2 000361   000363 710000 2                  TRA     s:3085

   3083  2 000362   000000 702200 xent               TSX2  ! X66_AALT

     2486     3085    2           CALL VDG$OCOPY ( SCROLL_DATA,

   3085  2 000363   200003 470500                    LDP0    @SCROLL_WINDOW,,AUTO
         2 000364   000016 471500                    LDP1    14,,PR0
         2 000365   100002 236100                    LDQ     2,,PR1
         2 000366   000022 732000                    QRS     18
         2 000367   000006 402007                    MPY     6,DL
         2 000370   100001 633506                    EPPR3   1,QL,PR1
         2 000371   200015 453500                    STP3    SCROLL_NUMBER+2,,AUTO
         2 000372   200006 236100                    LDQ     @SCROLL_DATA,,AUTO
         2 000373   200014 756100                    STQ     SCROLL_NUMBER+1,,AUTO
         2 000374   200014 630500                    EPPR0   SCROLL_NUMBER+1,,AUTO
         2 000375   000020 631400 xsym               EPPR1   B_VECTNIL+16
PL6.E3A0      #004=VDP$WSCROLL_DOWN File=VDP$WINDOW_I_O.:VDA5TSI                 FRI 07/04/97 11:40 Page:349
         2 000376   000000 701000 xent               TSX1    VDG$OCOPY
         2 000377   000401 702000 2                  TSX2    s:3087
         2 000400   000402 710000 2                  TRA     s:3090

     2487     3086    2             RECORD$SET.DESC.DATA$ ( RECORD$SET.N_ENTRIES# - 1 ) )
     2488     3087    3           WHENALTRETURN DO; ALTRETURN; END;

   3087  2 000401   000000 702200 xent               TSX2  ! X66_AALT

     2489     3088    2         END EXTEND_LAST_ENTRY;

     2490     3089
     2491     3090    1       IF VD_$$MON_PRES.V# > 10

   3090  2 000402   000003 235000 xsym               LDA     VD_$$MON_PRES+3
         2 000403   000012 115007                    CMPA    10,DL
         2 000404   000411 604400 2                  TMOZ    s:3094

     2492     3091    1       THEN
     2493     3092    1         CALL VDG$MPRES_RETURN ( SCROLL_WINDOW );

   3092  2 000405   200003 630500                    EPPR0   @SCROLL_WINDOW,,AUTO
         2 000406   000017 631400 xsym               EPPR1   B_VECTNIL+15
         2 000407   000000 701000 xent               TSX1    VDG$MPRES_RETURN
         2 000410   000000 011000                    NOP     0

     2494     3093
     2495     3094    1       RETURN;

   3094  2 000411   000000 702200 xent               TSX2  ! X66_ARET
     2496     3095
     2497     3096    1   END VDP$WSCROLL_DOWN;
     2498     3097        %EOD;

PL6.E3A0      #004=VDP$WSCROLL_DOWN File=VDP$WINDOW_I_O.:VDA5TSI                 FRI 07/04/97 11:40 Page:350
--  Include file information  --

   VD_MACROS_M.:VDA5TOU  is referenced.
   CP_6.:LIBRARY  cannot be made into a system file and is referenced.
   B$JIT_C.:E04TOU  was found in the system file and is never referenced.
   CP_6_C.:E04TOU  was found in the system file and is referenced.
      No diagnostics issued in procedure VDP$WSCROLL_DOWN.
PL6.E3A0      #004=VDP$WSCROLL_DOWN File=VDP$WINDOW_I_O.:VDA5TSI                 FRI 07/04/97 11:40 Page:351

 **** Variables and constants ****

  ****  Section 001  Data  VDP$WSCROLL_DOWN

  ****  Scalars and arrays  ****
OctLoc.c.b A Datatyp(siz) R M Lvl/name                 OctLoc.c.b A Datatyp(siz) R M Lvl/name

     0-0-0/d STRC(360)   r     1 FPT_DELREC                12-0-0/w UBIN        r     1 LAST_NUMBER

  ****  Auto variables  ****

  ****  Scalars and arrays  ****
OctLoc.c.b A Datatyp(siz) R M Lvl/name                 OctLoc.c.b A Datatyp(siz) R M Lvl/name

     6-0-0/w PTR         r     1 @SCROLL_DATA               4-0-0/w PTR         r     1 @SCROLL_KEY
     5-0-0/w PTR         r     1 @SCROLL_SPEC               3-0-0/w PTR         r     1 @SCROLL_WINDOW
     7-0-0/w SBIN        r     1 RECORD_SET_INDEX          10-0-0/w PTR         r     1 RECORD_SET_KEY$
    11-0-0/w SBIN        r     1 RECORD_SET_SCROLL_INDEX
    *0-0-0/w ASTR(90)    r     1 SCROLL_DATA               *0-0-0/w STRC(72)    r     1 SCROLL_KEY
    12-0-0/w PTR         r     1 SCROLL_KEY$               13-0-0/w UBIN        r     1 SCROLL_NUMBER
    *0-0-0/w STRC(72)    r     1 SCROLL_SPEC               *0-0-0/w STRC(900)   r     1 SCROLL_WINDOW

  ****  SYMREF variables  ****

  ****  Scalars and arrays  ****
OctLoc.c.b A Datatyp(siz) R M Lvl/name                 OctLoc.c.b A Datatyp(siz) R M Lvl/name

     0-0-0/w STRC(144)   r     1 VD_$$MON_PRES

  ****  BASED and DCB variables  ****

  ****  Scalars and arrays  ****
OctLoc.c.b A Datatyp(siz) R M Lvl/name                 OctLoc.c.b A Datatyp(siz) R M Lvl/name

     0-0-0/w STRC(324)   r     1 RECORD$SET                 0-0-0/w ASTR(90)    r     1 VD$BUFFER
     0-0-0/w ASTR(9)     r     1 VD$TEXTC                   0-0-0/w STRC        r     1 VD$TEXTC_NUMBER
     0-0-0/w ASTR(81)    r     1 VD$TEXTC_REMOTE
PL6.E3A0      #004=VDP$WSCROLL_DOWN File=VDP$WINDOW_I_O.:VDA5TSI                 FRI 07/04/97 11:40 Page:352


   Procedure VDP$WSCROLL_DOWN requires 266 words for executable code.
   Procedure VDP$WSCROLL_DOWN requires 14 words of local(AUTO) storage.
PL6.E3A0      #004=VDP$WSCROLL_DOWN File=VDP$WINDOW_I_O.:VDA5TSI                 FRI 07/04/97 11:40 Page:353
          *** CROSS REFERENCE LISTING ***
**     DENOTES     IDENTIFIER DEFINITION
<<                 IDENTIFIER'S VALUE SET
>>                 IDENTIFIER'S VALUE USED
<>                 IDENTIFIER SET AND/OR USED
--                 IDENTIFIER REFERENCED
PL6.E3A0      #004=VDP$WSCROLL_DOWN File=VDP$WINDOW_I_O.:VDA5TSI                 FRI 07/04/97 11:40 Page:354
          MINI XREF LISTING

FPT_DELREC
      2595**DCL      2979<>CALL
FPT_DELREC.V
      2598**DCL      2595--DCLINIT
FPT_DELREC.V.DCB#
      2599**DCL      2931<<ASSIGN
LAST_NUMBER
      2603**DCL      2595--DCLINIT  2596--DCLINIT  2949<<ASSIGN   2950>>IF       2962>>IF
M$DELREC
        88**DCL-ENT  2979--CALL
RECORD$SET.DESC
      2709**DCL      3006<<ASSIGN   3006>>ASSIGN
RECORD$SET.DESC.DATA$
      2739**DCL      2954>>CALL     2954>>CALL     2956<>CALL     2993>>CALL     2993>>CALL     3032<>CALL
      3085<>CALL
RECORD$SET.DESC.KEY
      2721**DCL      2990<<ASSIGN   3029<<ASSIGN   3082<<ASSIGN
RECORD$SET.DESC.KEY.REP#
      2723**DCL      2945>>IF       2989>>IF
RECORD$SET.DESC.KEY.V$
      2723**DCL      2945>>ASSIGN   2945--ASSIGN   2989>>CALL     2989>>CALL     3029<>CALL     3082<>CALL
RECORD$SET.MX_ENTRIES#
      2698**DCL      2967>>IF       3044>>IF
RECORD$SET.N_ENTRIES#
      2698**DCL      2934>>DOINDEX  2967>>IF       2971>>IF       2989>>IF       2989>>CALL     2989>>CALL
      2990>>ASSIGN   2993>>CALL     2993>>CALL     2999<<ASSIGN   2999>>ASSIGN   3005>>DOINDEX  3044>>IF
      3066<<ASSIGN   3066>>ASSIGN   3082>>ASSIGN   3082>>CALL     3085>>CALL
RECORD$SET.SQ_OFFSET#
      2698**DCL      3013<<ASSIGN   3013>>ASSIGN
RECORD_SET_INDEX
      2578**DCL      2934<<DOINDEX  2945>>IF       2945>>ASSIGN   2945>>ASSIGN   2954>>CALL     2954>>CALL
      2956>>CALL     2971>>IF       3005>>DOINDEX  3011>>IF       3029>>ASSIGN   3029>>CALL     3032>>CALL
PL6.E3A0      #004=VDP$WSCROLL_DOWN File=VDP$WINDOW_I_O.:VDA5TSI                 FRI 07/04/97 11:40 Page:355
RECORD_SET_KEY$
      2579**DCL      2945<<ASSIGN   2945<<ASSIGN   2949>>ASSIGN
RECORD_SET_SCROLL_INDEX
      2580**DCL      3005<<DOINDEX  3006>>ASSIGN   3006>>ASSIGN
SCROLL_DATA
      2497**DCL        14--PROC     2956<>CALL     3032<>CALL     3050<>CALL     3085<>CALL
SCROLL_DATA.LENGTH#
      2523**DCL      2525--IMP-SIZ  2956>>CALL     3032>>CALL     3050>>CALL     3085>>CALL
SCROLL_KEY
      2450**DCL        14--PROC     2916<>CALL     3029>>ASSIGN   3050<>CALL     3082>>ASSIGN
SCROLL_KEY.REP#
      2454**DCL      2927>>IF       3029>>IF       3082>>IF
SCROLL_KEY.V$
      2454**DCL      2927>>ASSIGN   2927--ASSIGN   3029>>CALL     3029>>CALL     3082>>CALL     3082>>CALL
SCROLL_KEY$
      2581**DCL      2927<<ASSIGN   2927<<ASSIGN   2930>>ASSIGN
SCROLL_NUMBER
      2582**DCL      2930<<ASSIGN   2950>>IF       2962>>IF
SCROLL_SPEC
      2465**DCL        14--PROC     3050<>CALL
SCROLL_WINDOW
      2383**DCL        14--PROC     2916<>CALL     3050<>CALL     3092<>CALL
SCROLL_WINDOW.DCB#
      2426**DCL      2931>>ASSIGN
SCROLL_WINDOW.EOB_DISPLAYED
      2426**DCL      2992<<ASSIGN
SCROLL_WINDOW.RECORD_SET$
      2427**DCL      2672--IMP-PTR  2934>>DOINDEX  2945>>IF       2945>>ASSIGN   2945>>ASSIGN   2954>>CALL
      2954>>CALL     2956>>CALL     2967>>IF       2967>>IF       2971>>IF       2989>>IF       2989>>IF
      2989>>CALL     2989>>CALL     2989>>CALL     2989>>CALL     2990>>ASSIGN   2990>>ASSIGN   2993>>CALL
      2993>>CALL     2993>>CALL     2993>>CALL     2999>>ASSIGN   2999>>ASSIGN   3005>>DOINDEX  3006>>ASSIGN
      3006>>ASSIGN   3013>>ASSIGN   3013>>ASSIGN   3029>>ASSIGN   3029>>CALL     3032>>CALL     3044>>IF
      3044>>IF       3066>>ASSIGN   3066>>ASSIGN   3082>>ASSIGN   3082>>ASSIGN   3082>>CALL     3082>>CALL
      3085>>CALL     3085>>CALL
VD$BUFFER
      2630**DCL      2954<>CALL     2993<>CALL
PL6.E3A0      #004=VDP$WSCROLL_DOWN File=VDP$WINDOW_I_O.:VDA5TSI                 FRI 07/04/97 11:40 Page:356
VD$BUFFER.LENGTH#
      2656**DCL      2658--IMP-SIZ  2954>>CALL     2993>>CALL
VD$TEXTC.LENGTH#
      2758**DCL      2760--IMP-SIZ
VD$TEXTC_NUMBER.BYTES#
      2777**DCL      2930>>ASSIGN   2949>>ASSIGN
VD$TEXTC_REMOTE
      2804**DCL      2989<>CALL     3029<>CALL     3082<>CALL
VD$TEXTC_REMOTE.LENGTH#
      2833**DCL      2835--IMP-SIZ  2927--ASSIGN   2945--ASSIGN   2989>>CALL     3029>>CALL     3082>>CALL
VDG$MPRES_RETURN
      2907**DCL-ENT  3092--CALL
VDG$MPRES_WSCROLL_DOWN
      2908**DCL-ENT  2916--CALL
VDG$OCOPY
      2910**DCL-ENT  2956--CALL     3029--CALL     3032--CALL     3082--CALL     3085--CALL
VDG$OFREE
      2911**DCL-ENT  2954--CALL     2989--CALL     2993--CALL
VDP$WSCROLL_UP
      2912**DCL-ENT  3050--CALL
VD_$$MON_PRES.V#
      2574**DCL      2914>>IF       3090>>IF

PL6.E3A0      #005=VDP$WSCROLL_UP File=VDP$WINDOW_I_O.:VDA5TSI                   FRI 07/04/97 11:41 Page:357
     2499        1        /*M* VDP$WSCROLL_UP:  Scroll a window up.  */
     2500        2        /*T***********************************************************/
     2501        3        /*T*                                                         */
     2502        4        /*T* Copyright (c) Bull HN Information Systems Inc., 1997    */
     2503        5        /*T*                                                         */
     2504        6        /*T***********************************************************/
     2505        7        /*X* DMC,PLM=4,IND=0,DCI=4,CSI=2,IAD=2,DTI=2,AND,ECI=0,DIN=2,STI=2 */
     2506        8
     2507        9        VDP$WSCROLL_UP: PROC ( SCROLL_WINDOW,
     2508       10              SCROLL_KEY,
     2509       11              SCROLL_SPEC,
     2510       12              SCROLL_DATA,
     2511       13              DELETION_FIRST_KEY,
     2512       14              DELETION_LAST_KEY )
     2513       15              ALTRET;
     2514       16
     2515       17          %INCLUDE VD_MACROS_M;
     2516     2232
     2517     2233            %VD$WINDOW_SPEC ( NAME = SCROLL_WINDOW,
     2518     2234            STCLASS = PARAM );
     2519     2300            %VD$KEY ( NAME = SCROLL_KEY,
     2520     2301            STCLASS = PARAM );
     2521     2315            %VD$SPEC ( NAME = SCROLL_SPEC,
     2522     2316            STCLASS = PARAM );
     2523     2330            %VD$BUFFER ( NAME = SCROLL_DATA,
     2524     2331            STCLASS = PARAM );
     2525     2389            %VD$KEY ( NAME = DELETION_FIRST_KEY,
     2526     2390            STCLASS = PARAM );
     2527     2404            %VD$KEY ( NAME = DELETION_LAST_KEY,
     2528     2405            STCLASS = PARAM );
     2529     2419
     2530     2420            %VD$NUMBER ( NAME = VD_$$MON_PRES,
     2531     2421            STCLASS = SYMREF );
     2532     2466
     2533     2467    1     DCL DELETION_FIRST_INDEX SBIN;
     2534     2468    1     DCL DELETION_LAST_INDEX SBIN;
     2535     2469    1     DCL DELETION_FIRST_KEY$ PTR;
PL6.E3A0      #005=VDP$WSCROLL_UP File=VDP$WINDOW_I_O.:VDA5TSI                   FRI 07/04/97 11:41 Page:358
     2536     2470    1     DCL DELETION_LAST_KEY$ PTR;
     2537     2471    1     DCL RECORD_SET_INDEX SBIN;
     2538     2472    1     DCL RECORD_SET_KEY$ PTR;
     2539     2473    1     DCL RECORD_SET_SCROLL_INDEX SBIN;
     2540     2474    1     DCL SCROLL_COUNT UBIN;
     2541     2475
     2542     2476          %VD$BUFFER;
     2543     2534          %VD$RECORD_SET ( NAME = RECORD$SET,
     2544     2535                           STCLASS = "BASED ( SCROLL_WINDOW.RECORD_SET$ )" );
     2545     2613          %VD$TEXTC;
     2546     2636          %VD$TEXTC_REMOTE;
     2547     2697          %VD$WINDOW_SPEC;
     2548     2763
     2549     2764    1     DCL VDG$ESCREECH ENTRY (3);
     2550     2765    1     DCL VDG$MPRES_RETURN ENTRY (1);
     2551     2766    1     DCL VDG$MPRES_WSCROLL_UP ENTRY (4);
     2552     2767    1     DCL VDG$OCOPY ENTRY (2) ALTRET;
     2553     2768    1     DCL VDG$OFREE ENTRY (1) ALTRET;
     2554     2769        %EJECT;
PL6.E3A0      #005=VDP$WSCROLL_UP File=VDP$WINDOW_I_O.:VDA5TSI                   FRI 07/04/97 11:41 Page:359
     2555     2770    1       IF VD_$$MON_PRES.V# > 10
     2556     2771    1       THEN
     2557     2772    1         CALL VDG$MPRES_WSCROLL_UP ( SCROLL_WINDOW,
     2558     2773    1           SCROLL_KEY,
     2559     2774    1           DELETION_FIRST_KEY,
     2560     2775    1           DELETION_LAST_KEY );
     2561     2776
     2562     2777    1       IF ADDR ( SCROLL_KEY ) ~= ADDR ( NIL )
     2563     2778    1       THEN
     2564     2779    1   SHUFFLE_AND_INSERT:
     2565     2780    2         DO;
     2566     2781
     2567     2782    2           IF RECORD$SET.N_ENTRIES# = RECORD$SET.MX_ENTRIES#
     2568     2783    2           THEN
     2569     2784    2   SHUFFLE_EVERYTHING_UP_1:
     2570     2785    3             DO;
     2571     2786                    %CLEARKEY ( KEY = "RECORD$SET.DESC.KEY",
     2572     2787                    INDX = 0 );
     2573     2797    3               SCROLL_WINDOW.BOB_DISPLAYED = %FALSE;
     2574     2798    3               CALL VDG$OFREE ( RECORD$SET.DESC.DATA$ ( 0 ) -> VD$BUFFER )
     2575     2799    4               WHENALTRETURN DO; ALTRETURN; END;
     2576     2800
     2577     2801    4               DO RECORD_SET_SCROLL_INDEX = 1 TO RECORD$SET.N_ENTRIES# - 1;
     2578     2802    4                 RECORD$SET.DESC ( RECORD_SET_SCROLL_INDEX - 1 ) =
     2579     2803    4                   RECORD$SET.DESC ( RECORD_SET_SCROLL_INDEX );
     2580     2804    4               END;
     2581     2805    3               RECORD$SET.SQ_OFFSET# = RECORD$SET.SQ_OFFSET# + 1;
     2582     2806    3             END SHUFFLE_EVERYTHING_UP_1;
     2583     2807    2           ELSE
     2584     2808    2   EXTEND_LAST_ENTRY:
     2585     2809    3             DO;
     2586     2810    3               RECORD$SET.N_ENTRIES# = RECORD$SET.N_ENTRIES# + 1;
     2587     2811    3             END EXTEND_LAST_ENTRY;
     2588     2812
     2589     2813                %COPYKEY ( FKEY = SCROLL_KEY,
     2590     2814                TKEY = "RECORD$SET.DESC.KEY",
     2591     2815                TINDX = "RECORD$SET.N_ENTRIES# - 1" );
PL6.E3A0      #005=VDP$WSCROLL_UP File=VDP$WINDOW_I_O.:VDA5TSI                   FRI 07/04/97 11:41 Page:360
     2592     2831    2           CALL VDG$OCOPY ( SCROLL_DATA,
     2593     2832    2             RECORD$SET.DESC.DATA$ ( RECORD$SET.N_ENTRIES# - 1 ) )
     2594     2833    3           WHENALTRETURN DO; ALTRETURN; END;
     2595     2834
     2596     2835    2         END SHUFFLE_AND_INSERT;
     2597     2836    1       ELSE
     2598     2837    1   DELETE_BY_SHUFFLING:
     2599     2838    2         DO;
     2600     2839
     2601     2840                /*  If there's nothing in the RECORD_SET, give up.  */
     2602     2841    2           IF RECORD$SET.N_ENTRIES# = 0
     2603     2842    2           THEN
     2604     2843    2             RETURN;
     2605     2844
     2606     2845                %GETKEY ( KEY = DELETION_FIRST_KEY,
     2607     2846                PTR = DELETION_FIRST_KEY$ );
     2608     2856                %GETKEY ( KEY = DELETION_LAST_KEY,
     2609     2857                PTR = DELETION_LAST_KEY$ );
     2610     2867
     2611     2868                /*
     2612     2869                *   Set the defaults so that, if either or both of
     2613     2870                *       FIND_DELETION_LOWER_BOUND and/or _UPPER_BOUND finds no index,
     2614     2871                *       we'll end up with DELETION_FIRST_INDEX > _LAST_INDEX, and
     2615     2872                *       so will return without doing anything.
     2616     2873                *       (Test case:  DelRange is 5.5 - 5.6, record set is 1.0 - 10.0,
     2617     2874                *       but there are no records in the range 5.5 - 5.6 in the set.)
     2618     2875                */
     2619     2876    2           DELETION_FIRST_INDEX = RECORD$SET.N_ENTRIES#;
     2620     2877    2           DELETION_LAST_INDEX = -1;
     2621     2878
     2622     2879    2   FIND_DELETION_LOWER_BOUND:
     2623     2880    3           DO RECORD_SET_INDEX = 0 TO RECORD$SET.N_ENTRIES# - 1;
     2624     2881
     2625     2882                  %GETKEY ( KEY = "RECORD$SET.DESC.KEY",
     2626     2883                  INDX = RECORD_SET_INDEX,
     2627     2884                  PTR = RECORD_SET_KEY$ );
     2628     2894
PL6.E3A0      #005=VDP$WSCROLL_UP File=VDP$WINDOW_I_O.:VDA5TSI                   FRI 07/04/97 11:41 Page:361
     2629     2895    3             IF RECORD_SET_KEY$ -> VD$TEXTC.BYTES >=
     2630     2896    3               DELETION_FIRST_KEY$ -> VD$TEXTC.BYTES
     2631     2897    3             THEN
     2632     2898    4               DO;
     2633     2899    4                 DELETION_FIRST_INDEX = RECORD_SET_INDEX;
     2634     2900    4                 EXIT FIND_DELETION_LOWER_BOUND;
     2635     2901    4               END;
     2636     2902
     2637     2903    3           END FIND_DELETION_LOWER_BOUND;
     2638     2904
     2639     2905    2   FIND_DELETION_UPPER_BOUND:
     2640     2906    2           DO RECORD_SET_INDEX = RECORD$SET.N_ENTRIES# - 1
     2641     2907    3             DOWNTO 0;
     2642     2908
     2643     2909                  %GETKEY ( KEY = "RECORD$SET.DESC.KEY",
     2644     2910                  INDX = RECORD_SET_INDEX,
     2645     2911                  PTR = RECORD_SET_KEY$ );
     2646     2921
     2647     2922    3             IF RECORD_SET_KEY$ -> VD$TEXTC.BYTES <=
     2648     2923    3               DELETION_LAST_KEY$ -> VD$TEXTC.BYTES
     2649     2924    3             THEN
     2650     2925    4               DO;
     2651     2926    4                 DELETION_LAST_INDEX = RECORD_SET_INDEX;
     2652     2927    4                 EXIT FIND_DELETION_UPPER_BOUND;
     2653     2928    4               END;
     2654     2929
     2655     2930    3           END FIND_DELETION_UPPER_BOUND;
     2656     2931
     2657     2932                /*  If there was nothing in the RECORD_SET within
     2658     2933                    the deleted range, give up.  */
     2659     2934    2           IF DELETION_FIRST_INDEX > DELETION_LAST_INDEX
     2660     2935    2           THEN
     2661     2936    2             RETURN;
     2662     2937
     2663     2938    2           SCROLL_COUNT = DELETION_LAST_INDEX
     2664     2939    2             - DELETION_FIRST_INDEX
     2665     2940    2             + 1;
PL6.E3A0      #005=VDP$WSCROLL_UP File=VDP$WINDOW_I_O.:VDA5TSI                   FRI 07/04/97 11:41 Page:362
     2666     2941
     2667     2942    2   DELETE_LOWER_TO_UPPER_BOUND:
     2668     2943    2           DO RECORD_SET_SCROLL_INDEX = DELETION_FIRST_INDEX
     2669     2944    3             TO DELETION_LAST_INDEX;
     2670     2945
     2671     2946                  %CLEARKEY ( KEY = "RECORD$SET.DESC.KEY",
     2672     2947                  INDX = RECORD_SET_SCROLL_INDEX );
     2673     2957    3             CALL VDG$OFREE ( RECORD$SET.DESC.DATA$ ( RECORD_SET_SCROLL_INDEX ) ->
              2957                      VD$BUFFER )
     2674     2958    4             WHENALTRETURN DO; ALTRETURN; END;
     2675     2959
     2676     2960    3           END DELETE_LOWER_TO_UPPER_BOUND;
     2677     2961
     2678     2962    2   SHUFFLE_EVERYTHING_UP_N:
     2679     2963    2           DO RECORD_SET_SCROLL_INDEX = DELETION_LAST_INDEX + 1
     2680     2964    3             TO RECORD$SET.N_ENTRIES# - 1;
     2681     2965
     2682     2966    3             RECORD$SET.DESC ( RECORD_SET_SCROLL_INDEX - SCROLL_COUNT ) =
     2683     2967    3               RECORD$SET.DESC ( RECORD_SET_SCROLL_INDEX );
     2684     2968    3             RECORD$SET.DESC ( RECORD_SET_SCROLL_INDEX ) = %CLEAR;
     2685     2969
     2686     2970    3           END SHUFFLE_EVERYTHING_UP_N;
     2687     2971
     2688     2972    2           IF RECORD$SET.N_ENTRIES# - SCROLL_COUNT < 0
     2689     2973    2           THEN
     2690     2974    2             CALL VDG$ESCREECH;
     2691     2975    2           RECORD$SET.N_ENTRIES# = RECORD$SET.N_ENTRIES# - SCROLL_COUNT;
     2692     2976
     2693     2977    2         END DELETE_BY_SHUFFLING;
     2694     2978
     2695     2979    1       IF VD_$$MON_PRES.V# > 10
     2696     2980    1       THEN
     2697     2981    1         CALL VDG$MPRES_RETURN ( SCROLL_WINDOW );
     2698     2982
     2699     2983    1       RETURN;
     2700     2984
     2701     2985    1   END VDP$WSCROLL_UP;
PL6.E3A0      #005=VDP$WSCROLL_UP File=VDP$WINDOW_I_O.:VDA5TSI                   FRI 07/04/97 11:41 Page:363
     2702     2986        %EOD;

PL6.E3A0      #005=VDP$WSCROLL_UP File=VDP$WINDOW_I_O.:VDA5TSI                   FRI 07/04/97 11:41 Page:364
--  Include file information  --

   VD_MACROS_M.:VDA5TOU  is referenced.
   B$JIT_C.:E04TOU  was found in the system file and is never referenced.
   CP_6_C.:E04TOU  was found in the system file and is never referenced.
      No diagnostics issued in procedure VDP$WSCROLL_UP.

   Procedure VDP$WSCROLL_UP requires 313 words for executable code.
   Procedure VDP$WSCROLL_UP requires 22 words of local(AUTO) storage.

PL6.E3A0      #005=VDP$WSCROLL_UP File=VDP$WINDOW_I_O.:VDA5TSI                   FRI 07/04/97 11:41 Page:365

 Object Unit name= VDP$WSCROLL_UP                             File name= VDP$WINDOW_I_O.:VDA5TOU
 UTS= JUL 04 '97 11:41:09.68 FRI                              Compiler= PL-6/E31         Sev=      00
 SharedLib= :SHARED_SYSTEM                                    Alt SharedLib=


    ****  Control sections  ****

 Sect   Type Bound  Init  Size OctSiz  Section name(segment info)
    0   Proc  even  none   313    471  VDP$WSCROLL_UP

    ****  Entry defs  ****

                              Check   Calling
                             calling  sequence
  Sect OctLoc Primary Altret sequence   type   Parms  Name
     0      0   yes    yes     yes      Std        6  VDP$WSCROLL_UP

  ****  Entry refs  ****

         Check        Calling
        calling       sequence
Altret sequence SRef   type   Args  Name
         yes           Std       4 VDG$MPRES_WSCROLL_UP
 yes     yes           Std       1 VDG$OFREE
         yes           Std       3 VDG$ESCREECH
 yes     yes           Std       2 VDG$OCOPY
         yes           Std       1 VDG$MPRES_RETURN
                       nStd      0 X66_AUTO_N
                       Std       0 B_CONSPOOL_D
                       nStd      0 X66_AALT
                       nStd      0 X66_ARET
PL6.E3A0      #005=VDP$WSCROLL_UP File=VDP$WINDOW_I_O.:VDA5TSI                   FRI 07/04/97 11:41 Page:366

  ****  Data refs  ****

  Flags:  r = read only, s = secondary
Flgs Name                             Flgs Name                             Flgs Name
     VD_$$MON_PRES                         B_VECTNIL
PL6.E3A0      #005=VDP$WSCROLL_UP File=VDP$WINDOW_I_O.:VDA5TSI                   FRI 07/04/97 11:41 Page:367


     2499        1        /*M* VDP$WSCROLL_UP:  Scroll a window up.  */
     2500        2        /*T***********************************************************/
     2501        3        /*T*                                                         */
     2502        4        /*T* Copyright (c) Bull HN Information Systems Inc., 1997    */
     2503        5        /*T*                                                         */
     2504        6        /*T***********************************************************/
     2505        7        /*X* DMC,PLM=4,IND=0,DCI=4,CSI=2,IAD=2,DTI=2,AND,ECI=0,DIN=2,STI=2 */
     2506        8
     2507        9        VDP$WSCROLL_UP: PROC ( SCROLL_WINDOW,

      9  0 000000   000000 700200 xent  VDP$WSCROLL* TSX0  ! X66_AUTO_N
         0 000001   000026 000006                    ZERO    22,6

     2508       10              SCROLL_KEY,
     2509       11              SCROLL_SPEC,
     2510       12              SCROLL_DATA,
     2511       13              DELETION_FIRST_KEY,
     2512       14              DELETION_LAST_KEY )
     2513       15              ALTRET;
     2514       16
     2515       17          %INCLUDE VD_MACROS_M;
     2516     2232
     2517     2233            %VD$WINDOW_SPEC ( NAME = SCROLL_WINDOW,
     2518     2234            STCLASS = PARAM );
     2519     2300            %VD$KEY ( NAME = SCROLL_KEY,
     2520     2301            STCLASS = PARAM );
     2521     2315            %VD$SPEC ( NAME = SCROLL_SPEC,
     2522     2316            STCLASS = PARAM );
     2523     2330            %VD$BUFFER ( NAME = SCROLL_DATA,
     2524     2331            STCLASS = PARAM );
     2525     2389            %VD$KEY ( NAME = DELETION_FIRST_KEY,
     2526     2390            STCLASS = PARAM );
     2527     2404            %VD$KEY ( NAME = DELETION_LAST_KEY,
     2528     2405            STCLASS = PARAM );
     2529     2419
     2530     2420            %VD$NUMBER ( NAME = VD_$$MON_PRES,
PL6.E3A0      #005=VDP$WSCROLL_UP File=VDP$WINDOW_I_O.:VDA5TSI                   FRI 07/04/97 11:41 Page:368
     2531     2421            STCLASS = SYMREF );
     2532     2466
     2533     2467    1     DCL DELETION_FIRST_INDEX SBIN;
     2534     2468    1     DCL DELETION_LAST_INDEX SBIN;
     2535     2469    1     DCL DELETION_FIRST_KEY$ PTR;
     2536     2470    1     DCL DELETION_LAST_KEY$ PTR;
     2537     2471    1     DCL RECORD_SET_INDEX SBIN;
     2538     2472    1     DCL RECORD_SET_KEY$ PTR;
     2539     2473    1     DCL RECORD_SET_SCROLL_INDEX SBIN;
     2540     2474    1     DCL SCROLL_COUNT UBIN;
     2541     2475
     2542     2476          %VD$BUFFER;
     2543     2534          %VD$RECORD_SET ( NAME = RECORD$SET,
     2544     2535                           STCLASS = "BASED ( SCROLL_WINDOW.RECORD_SET$ )" );
     2545     2613          %VD$TEXTC;
     2546     2636          %VD$TEXTC_REMOTE;
     2547     2697          %VD$WINDOW_SPEC;
     2548     2763
     2549     2764    1     DCL VDG$ESCREECH ENTRY (3);
     2550     2765    1     DCL VDG$MPRES_RETURN ENTRY (1);
     2551     2766    1     DCL VDG$MPRES_WSCROLL_UP ENTRY (4);
     2552     2767    1     DCL VDG$OCOPY ENTRY (2) ALTRET;
     2553     2768    1     DCL VDG$OFREE ENTRY (1) ALTRET;
     2554     2769        %EJECT;
PL6.E3A0      #005=VDP$WSCROLL_UP File=VDP$WINDOW_I_O.:VDA5TSI                   FRI 07/04/97 11:41 Page:369
     2555     2770    1       IF VD_$$MON_PRES.V# > 10

   2770  0 000002   000003 235000 xsym               LDA     VD_$$MON_PRES+3
         0 000003   000012 115007                    CMPA    10,DL
         0 000004   000017 604400 0                  TMOZ    s:2777

     2556     2771    1       THEN
     2557     2772    1         CALL VDG$MPRES_WSCROLL_UP ( SCROLL_WINDOW,

   2772  0 000005   200010 236100                    LDQ     @DELETION_LAST_KEY,,AUTO
         0 000006   200007 235100                    LDA     @DELETION_FIRST_KEY,,AUTO
         0 000007   200024 757100                    STAQ    SCROLL_COUNT+4,,AUTO
         0 000010   200004 236100                    LDQ     @SCROLL_KEY,,AUTO
         0 000011   200003 235100                    LDA     @SCROLL_WINDOW,,AUTO
         0 000012   200022 757100                    STAQ    SCROLL_COUNT+2,,AUTO
         0 000013   200022 630500                    EPPR0   SCROLL_COUNT+2,,AUTO
         0 000014   000022 631400 xsym               EPPR1   B_VECTNIL+18
         0 000015   000000 701000 xent               TSX1    VDG$MPRES_WSCROLL_UP
         0 000016   000000 011000                    NOP     0

     2558     2773    1           SCROLL_KEY,
     2559     2774    1           DELETION_FIRST_KEY,
     2560     2775    1           DELETION_LAST_KEY );
     2561     2776
     2562     2777    1       IF ADDR ( SCROLL_KEY ) ~= ADDR ( NIL )

   2777  0 000017   200004 236100                    LDQ     @SCROLL_KEY,,AUTO
         0 000020   000001 116000 xsym               CMPQ    B_VECTNIL+1
         0 000021   000161 600000 0                  TZE     DELETE_BY_SHUFFLING

     2563     2778    1       THEN
     2564     2779    1   SHUFFLE_AND_INSERT:
     2565     2780    2         DO;

   2780  0 000022                       SHUFFLE_AND* null
     2566     2781
     2567     2782    2           IF RECORD$SET.N_ENTRIES# = RECORD$SET.MX_ENTRIES#
PL6.E3A0      #005=VDP$WSCROLL_UP File=VDP$WINDOW_I_O.:VDA5TSI                   FRI 07/04/97 11:41 Page:370

   2782  0 000022   200003 470500                    LDP0    @SCROLL_WINDOW,,AUTO
         0 000023   000016 471500                    LDP1    14,,PR0
         0 000024   100002 720100                    LXL0    2,,PR1
         0 000025   100002 100100                    CMPX0   2,,PR1
         0 000026   000104 601000 0                  TNZ     EXTEND_LAST_ENTRY

     2568     2783    2           THEN
     2569     2784    2   SHUFFLE_EVERYTHING_UP_1:
     2570     2785    3             DO;

   2785  0 000027                       SHUFFLE_EVE* null
     2571     2786                    %CLEARKEY ( KEY = "RECORD$SET.DESC.KEY",
     2572     2787                    INDX = 0 );

   2794  0 000027   100003 721100                    LXL1    3,,PR1
         0 000030   000002 101003                    CMPX1   2,DU
         0 000031   000042 601000 0                  TNZ     s:2795+1

   2794  0 000032   100004 473500                    LDP3    4,,PR1
         0 000033   200022 453500                    STP3    SCROLL_COUNT+2,,AUTO
         0 000034   200022 630500                    EPPR0   SCROLL_COUNT+2,,AUTO
         0 000035   000017 631400 xsym               EPPR1   B_VECTNIL+15
         0 000036   000000 701000 xent               TSX1    VDG$OFREE
         0 000037   000041 702000 0                  TSX2    s:2795
         0 000040   000042 710000 0                  TRA     s:2795+1

   2795  0 000041   000000 702200 xent               TSX2  ! X66_AALT

   2795  0 000042   200003 470500                    LDP0    @SCROLL_WINDOW,,AUTO
         0 000043   000016 471500                    LDP1    14,,PR0
         0 000044   100003 450100                    STZ     3,,PR1
         0 000045   100004 450100                    STZ     4,,PR1

     2573     2797    3               SCROLL_WINDOW.BOB_DISPLAYED = %FALSE;

   2797  0 000046   000031 236000 xsym               LDQ     B_VECTNIL+25
PL6.E3A0      #005=VDP$WSCROLL_UP File=VDP$WINDOW_I_O.:VDA5TSI                   FRI 07/04/97 11:41 Page:371
         0 000047   000015 356100                    ANSQ    13,,PR0

     2574     2798    3               CALL VDG$OFREE ( RECORD$SET.DESC.DATA$ ( 0 ) -> VD$BUFFER )

   2798  0 000050   000016 471500                    LDP1    14,,PR0
         0 000051   100007 473500                    LDP3    7,,PR1
         0 000052   200022 453500                    STP3    SCROLL_COUNT+2,,AUTO
         0 000053   200022 630500                    EPPR0   SCROLL_COUNT+2,,AUTO
         0 000054   000017 631400 xsym               EPPR1   B_VECTNIL+15
         0 000055   000000 701000 xent               TSX1    VDG$OFREE
         0 000056   000060 702000 0                  TSX2    s:2799
         0 000057   000061 710000 0                  TRA     s:2801

     2575     2799    4               WHENALTRETURN DO; ALTRETURN; END;

   2799  0 000060   000000 702200 xent               TSX2  ! X66_AALT

     2576     2800
     2577     2801    4               DO RECORD_SET_SCROLL_INDEX = 1 TO RECORD$SET.N_ENTRIES# - 1;

   2801  0 000061   000001 235007                    LDA     1,DL
         0 000062   200017 755100                    STA     RECORD_SET_SCROLL_INDEX,,AUTO
         0 000063   000074 710000 0                  TRA     s:2804+1

     2578     2802    4                 RECORD$SET.DESC ( RECORD_SET_SCROLL_INDEX - 1 ) =

   2802  0 000064   200003 470500                    LDP0    @SCROLL_WINDOW,,AUTO
         0 000065   000016 471500                    LDP1    14,,PR0
         0 000066   200017 236100                    LDQ     RECORD_SET_SCROLL_INDEX,,AUTO
         0 000067   000030 402007                    MPY     24,DL
         0 000070   000106 100506                    MLR     fill='000'O
         0 000071   100003 000030                    ADSC9   3,Q,PR1                  cn=0,n=24
         0 000072   177775 000030                    ADSC9   -3,Q,PR1                 cn=0,n=24

     2579     2803    4                   RECORD$SET.DESC ( RECORD_SET_SCROLL_INDEX );
     2580     2804    4               END;

PL6.E3A0      #005=VDP$WSCROLL_UP File=VDP$WINDOW_I_O.:VDA5TSI                   FRI 07/04/97 11:41 Page:372
   2804  0 000073   200017 054100                    AOS     RECORD_SET_SCROLL_INDEX,,AUTO
         0 000074   200003 470500                    LDP0    @SCROLL_WINDOW,,AUTO
         0 000075   000016 471500                    LDP1    14,,PR0
         0 000076   100002 236100                    LDQ     2,,PR1
         0 000077   000022 732000                    QRS     18
         0 000100   200017 116100                    CMPQ    RECORD_SET_SCROLL_INDEX,,AUTO
         0 000101   000064 605400 0                  TPNZ    s:2802

     2581     2805    3               RECORD$SET.SQ_OFFSET# = RECORD$SET.SQ_OFFSET# + 1;

   2805  0 000102   100001 054100                    AOS     1,,PR1

     2582     2806    3             END SHUFFLE_EVERYTHING_UP_1;

   2806  0 000103   000107 710000 0                  TRA     s:2828

     2583     2807    2           ELSE
     2584     2808    2   EXTEND_LAST_ENTRY:
     2585     2809    3             DO;

   2809  0 000104                       EXTEND_LAST* null
     2586     2810    3               RECORD$SET.N_ENTRIES# = RECORD$SET.N_ENTRIES# + 1;

   2810  0 000104   100002 221100                    LDX1    2,,PR1
         0 000105   000001 622011                    EAX2    1,X1
         0 000106   100002 742100                    STX2    2,,PR1

     2587     2811    3             END EXTEND_LAST_ENTRY;

     2588     2812
     2589     2813                %COPYKEY ( FKEY = SCROLL_KEY,
     2590     2814                TKEY = "RECORD$SET.DESC.KEY",
     2591     2815                TINDX = "RECORD$SET.N_ENTRIES# - 1" );

   2828  0 000107   000016 471500                    LDP1    14,,PR0
         0 000110   100002 236100                    LDQ     2,,PR1
         0 000111   000022 732000                    QRS     18
PL6.E3A0      #005=VDP$WSCROLL_UP File=VDP$WINDOW_I_O.:VDA5TSI                   FRI 07/04/97 11:41 Page:373
         0 000112   000006 402007                    MPY     6,DL
         0 000113   000002 736000                    QLS     2
         0 000114   200004 473500                    LDP3    @SCROLL_KEY,,AUTO
         0 000115   000106 100500                    MLR     fill='000'O
         0 000116   300000 000010                    ADSC9   0,,PR3                   cn=0,n=8
         0 000117   177775 000010                    ADSC9   -3,Q,PR1                 cn=0,n=8

   2828  0 000120   300000 720100                    LXL0    0,,PR3
         0 000121   000002 100003                    CMPX0   2,DU
         0 000122   000141 601000 0                  TNZ     s:2831

   2828  0 000123   300001 471500                    LDP1    1,,PR3
         0 000124   000016 474500                    LDP4    14,,PR0
         0 000125   400002 236100                    LDQ     2,,PR4
         0 000126   000022 732000                    QRS     18
         0 000127   000006 402007                    MPY     6,DL
         0 000130   477776 635506                    EPPR5   -2,QL,PR4
         0 000131   200023 455500                    STP5    SCROLL_COUNT+3,,AUTO
         0 000132   200022 451500                    STP1    SCROLL_COUNT+2,,AUTO
         0 000133   200022 630500                    EPPR0   SCROLL_COUNT+2,,AUTO
         0 000134   000020 631400 xsym               EPPR1   B_VECTNIL+16
         0 000135   000000 701000 xent               TSX1    VDG$OCOPY
         0 000136   000140 702000 0                  TSX2    s:2829
         0 000137   000141 710000 0                  TRA     s:2831

   2829  0 000140   000000 702200 xent               TSX2  ! X66_AALT

     2592     2831    2           CALL VDG$OCOPY ( SCROLL_DATA,

   2831  0 000141   200003 470500                    LDP0    @SCROLL_WINDOW,,AUTO
         0 000142   000016 471500                    LDP1    14,,PR0
         0 000143   100002 236100                    LDQ     2,,PR1
         0 000144   000022 732000                    QRS     18
         0 000145   000006 402007                    MPY     6,DL
         0 000146   100001 633506                    EPPR3   1,QL,PR1
         0 000147   200023 453500                    STP3    SCROLL_COUNT+3,,AUTO
         0 000150   200006 236100                    LDQ     @SCROLL_DATA,,AUTO
PL6.E3A0      #005=VDP$WSCROLL_UP File=VDP$WINDOW_I_O.:VDA5TSI                   FRI 07/04/97 11:41 Page:374
         0 000151   200022 756100                    STQ     SCROLL_COUNT+2,,AUTO
         0 000152   200022 630500                    EPPR0   SCROLL_COUNT+2,,AUTO
         0 000153   000020 631400 xsym               EPPR1   B_VECTNIL+16
         0 000154   000000 701000 xent               TSX1    VDG$OCOPY
         0 000155   000157 702000 0                  TSX2    s:2833
         0 000156   000160 710000 0                  TRA     s:2835

     2593     2832    2             RECORD$SET.DESC.DATA$ ( RECORD$SET.N_ENTRIES# - 1 ) )
     2594     2833    3           WHENALTRETURN DO; ALTRETURN; END;

   2833  0 000157   000000 702200 xent               TSX2  ! X66_AALT

     2595     2834
     2596     2835    2         END SHUFFLE_AND_INSERT;

   2835  0 000160   000461 710000 0                  TRA     s:2979

     2597     2836    1       ELSE
     2598     2837    1   DELETE_BY_SHUFFLING:
     2599     2838    2         DO;

   2838  0 000161                       DELETE_BY_S* null
     2600     2839
     2601     2840                /*  If there's nothing in the RECORD_SET, give up.  */
     2602     2841    2           IF RECORD$SET.N_ENTRIES# = 0

   2841  0 000161   200003 470500                    LDP0    @SCROLL_WINDOW,,AUTO
         0 000162   000016 471500                    LDP1    14,,PR0
         0 000163   100002 220100                    LDX0    2,,PR1
         0 000164   000166 601000 0                  TNZ     s:2853

     2603     2842    2           THEN
     2604     2843    2             RETURN;

   2843  0 000165   000000 702200 xent               TSX2  ! X66_ARET

     2605     2844
PL6.E3A0      #005=VDP$WSCROLL_UP File=VDP$WINDOW_I_O.:VDA5TSI                   FRI 07/04/97 11:41 Page:375
     2606     2845                %GETKEY ( KEY = DELETION_FIRST_KEY,
     2607     2846                PTR = DELETION_FIRST_KEY$ );

   2853  0 000166   200007 473500                    LDP3    @DELETION_FIRST_KEY,,AUTO
         0 000167   300000 721100                    LXL1    0,,PR3
         0 000170   000002 101003                    CMPX1   2,DU
         0 000171   000176 601000 0                  TNZ     s:2853+8

   2853  0 000172   300001 474500                    LDP4    1,,PR3
         0 000173   400002 635500                    EPPR5   2,,PR4
         0 000174   200013 455500                    STP5    DELETION_FIRST_KEY$,,AUTO
         0 000175   000201 710000 0                  TRA     s:2864

   2853  0 000176   200007 236100                    LDQ     @DELETION_FIRST_KEY,,AUTO
         0 000177   000001 036003                    ADLQ    1,DU
         0 000200   200013 756100                    STQ     DELETION_FIRST_KEY$,,AUTO

     2608     2856                %GETKEY ( KEY = DELETION_LAST_KEY,
     2609     2857                PTR = DELETION_LAST_KEY$ );

   2864  0 000201   200010 474500                    LDP4    @DELETION_LAST_KEY,,AUTO
         0 000202   400000 722100                    LXL2    0,,PR4
         0 000203   000002 102003                    CMPX2   2,DU
         0 000204   000211 601000 0                  TNZ     s:2864+8

   2864  0 000205   400001 475500                    LDP5    1,,PR4
         0 000206   500002 636500                    EPPR6   2,,PR5
         0 000207   200014 456500                    STP6    DELETION_LAST_KEY$,,AUTO
         0 000210   000214 710000 0                  TRA     s:2876

   2864  0 000211   200010 236100                    LDQ     @DELETION_LAST_KEY,,AUTO
         0 000212   000001 036003                    ADLQ    1,DU
         0 000213   200014 756100                    STQ     DELETION_LAST_KEY$,,AUTO

     2610     2867
     2611     2868                /*
     2612     2869                *   Set the defaults so that, if either or both of
PL6.E3A0      #005=VDP$WSCROLL_UP File=VDP$WINDOW_I_O.:VDA5TSI                   FRI 07/04/97 11:41 Page:376
     2613     2870                *       FIND_DELETION_LOWER_BOUND and/or _UPPER_BOUND finds no index,
     2614     2871                *       we'll end up with DELETION_FIRST_INDEX > _LAST_INDEX, and
     2615     2872                *       so will return without doing anything.
     2616     2873                *       (Test case:  DelRange is 5.5 - 5.6, record set is 1.0 - 10.0,
     2617     2874                *       but there are no records in the range 5.5 - 5.6 in the set.)
     2618     2875                */
     2619     2876    2           DELETION_FIRST_INDEX = RECORD$SET.N_ENTRIES#;

   2876  0 000214   100002 236100                    LDQ     2,,PR1
         0 000215   000022 732000                    QRS     18
         0 000216   200011 756100                    STQ     DELETION_FIRST_INDEX,,AUTO

     2620     2877    2           DELETION_LAST_INDEX = -1;

   2877  0 000217   000001 335007                    LCA     1,DL
         0 000220   200012 755100                    STA     DELETION_LAST_INDEX,,AUTO

     2621     2878
     2622     2879    2   FIND_DELETION_LOWER_BOUND:
     2623     2880    3           DO RECORD_SET_INDEX = 0 TO RECORD$SET.N_ENTRIES# - 1;

   2880  0 000221   200015 450100       FIND_DELETI* STZ     RECORD_SET_INDEX,,AUTO
         0 000222   000260 710000 0                  TRA     s:2903+1

     2624     2881
     2625     2882                  %GETKEY ( KEY = "RECORD$SET.DESC.KEY",
     2626     2883                  INDX = RECORD_SET_INDEX,
     2627     2884                  PTR = RECORD_SET_KEY$ );

   2891  0 000223   200003 470500                    LDP0    @SCROLL_WINDOW,,AUTO
         0 000224   000016 471500                    LDP1    14,,PR0
         0 000225   200015 236100                    LDQ     RECORD_SET_INDEX,,AUTO
         0 000226   000006 402007                    MPY     6,DL
         0 000227   100003 720106                    LXL0    3,QL,PR1
         0 000230   000002 100003                    CMPX0   2,DU
         0 000231   000236 601000 0                  TNZ     s:2891+11

PL6.E3A0      #005=VDP$WSCROLL_UP File=VDP$WINDOW_I_O.:VDA5TSI                   FRI 07/04/97 11:41 Page:377
   2891  0 000232   100004 473506                    LDP3    4,QL,PR1
         0 000233   300002 634500                    EPPR4   2,,PR3
         0 000234   200016 454500                    STP4    RECORD_SET_KEY$,,AUTO
         0 000235   000240 710000 0                  TRA     s:2895

   2891  0 000236   100004 633506                    EPPR3   4,QL,PR1
         0 000237   200016 453500                    STP3    RECORD_SET_KEY$,,AUTO

     2628     2894
     2629     2895    3             IF RECORD_SET_KEY$ -> VD$TEXTC.BYTES >=

   2895  0 000240   200016 473500                    LDP3    RECORD_SET_KEY$,,AUTO
         0 000241   300000 236100                    LDQ     0,,PR3
         0 000242   000033 772000                    QRL     27
         0 000243   200013 474500                    LDP4    DELETION_FIRST_KEY$,,AUTO
         0 000244   000000 620006                    EAX0    0,QL
         0 000245   400000 236100                    LDQ     0,,PR4
         0 000246   000033 772000                    QRL     27
         0 000247   000000 621006                    EAX1    0,QL
         0 000250   040140 106540                    CMPC    fill='040'O
         0 000251   300000 200010                    ADSC9   0,,PR3                   cn=1,n=*X0
         0 000252   400000 200011                    ADSC9   0,,PR4                   cn=1,n=*X1
         0 000253   000257 602000 0                  TNC     s:2903

     2630     2896    3               DELETION_FIRST_KEY$ -> VD$TEXTC.BYTES
     2631     2897    3             THEN
     2632     2898    4               DO;

     2633     2899    4                 DELETION_FIRST_INDEX = RECORD_SET_INDEX;

   2899  0 000254   200015 235100                    LDA     RECORD_SET_INDEX,,AUTO
         0 000255   200011 755100                    STA     DELETION_FIRST_INDEX,,AUTO

     2634     2900    4                 EXIT FIND_DELETION_LOWER_BOUND;

   2900  0 000256   000264 710000 0                  TRA     FIND_DELETION_UPPER_BOUND

PL6.E3A0      #005=VDP$WSCROLL_UP File=VDP$WINDOW_I_O.:VDA5TSI                   FRI 07/04/97 11:41 Page:378
     2635     2901    4               END;
     2636     2902
     2637     2903    3           END FIND_DELETION_LOWER_BOUND;

   2903  0 000257   200015 054100                    AOS     RECORD_SET_INDEX,,AUTO
         0 000260   100002 236100                    LDQ     2,,PR1
         0 000261   000022 732000                    QRS     18
         0 000262   200015 116100                    CMPQ    RECORD_SET_INDEX,,AUTO
         0 000263   000223 605400 0                  TPNZ    s:2891

     2638     2904
     2639     2905    2   FIND_DELETION_UPPER_BOUND:
     2640     2906    2           DO RECORD_SET_INDEX = RECORD$SET.N_ENTRIES# - 1
     2641     2907    3             DOWNTO 0;

   2907  0 000264   100002 236100       FIND_DELETI* LDQ     2,,PR1
         0 000265   000022 732000                    QRS     18
         0 000266   000001 136007                    SBLQ    1,DL
         0 000267   200015 756100                    STQ     RECORD_SET_INDEX,,AUTO
         0 000270   000327 710000 0                  TRA     s:2930+2

     2642     2908
     2643     2909                  %GETKEY ( KEY = "RECORD$SET.DESC.KEY",
     2644     2910                  INDX = RECORD_SET_INDEX,
     2645     2911                  PTR = RECORD_SET_KEY$ );

   2918  0 000271   200003 470500                    LDP0    @SCROLL_WINDOW,,AUTO
         0 000272   000016 471500                    LDP1    14,,PR0
         0 000273   200015 236100                    LDQ     RECORD_SET_INDEX,,AUTO
         0 000274   000006 402007                    MPY     6,DL
         0 000275   100003 720106                    LXL0    3,QL,PR1
         0 000276   000002 100003                    CMPX0   2,DU
         0 000277   000304 601000 0                  TNZ     s:2918+11

   2918  0 000300   100004 473506                    LDP3    4,QL,PR1
         0 000301   300002 634500                    EPPR4   2,,PR3
         0 000302   200016 454500                    STP4    RECORD_SET_KEY$,,AUTO
PL6.E3A0      #005=VDP$WSCROLL_UP File=VDP$WINDOW_I_O.:VDA5TSI                   FRI 07/04/97 11:41 Page:379
         0 000303   000306 710000 0                  TRA     s:2922

   2918  0 000304   100004 633506                    EPPR3   4,QL,PR1
         0 000305   200016 453500                    STP3    RECORD_SET_KEY$,,AUTO

     2646     2921
     2647     2922    3             IF RECORD_SET_KEY$ -> VD$TEXTC.BYTES <=

   2922  0 000306   200016 473500                    LDP3    RECORD_SET_KEY$,,AUTO
         0 000307   300000 236100                    LDQ     0,,PR3
         0 000310   000033 772000                    QRL     27
         0 000311   200014 474500                    LDP4    DELETION_LAST_KEY$,,AUTO
         0 000312   000000 620006                    EAX0    0,QL
         0 000313   400000 236100                    LDQ     0,,PR4
         0 000314   000033 772000                    QRL     27
         0 000315   000000 621006                    EAX1    0,QL
         0 000316   040140 106540                    CMPC    fill='040'O
         0 000317   400000 200011                    ADSC9   0,,PR4                   cn=1,n=*X1
         0 000320   300000 200010                    ADSC9   0,,PR3                   cn=1,n=*X0
         0 000321   000325 602000 0                  TNC     s:2930

     2648     2923    3               DELETION_LAST_KEY$ -> VD$TEXTC.BYTES
     2649     2924    3             THEN
     2650     2925    4               DO;

     2651     2926    4                 DELETION_LAST_INDEX = RECORD_SET_INDEX;

   2926  0 000322   200015 235100                    LDA     RECORD_SET_INDEX,,AUTO
         0 000323   200012 755100                    STA     DELETION_LAST_INDEX,,AUTO

     2652     2927    4                 EXIT FIND_DELETION_UPPER_BOUND;

   2927  0 000324   000331 710000 0                  TRA     s:2934

     2653     2928    4               END;
     2654     2929
     2655     2930    3           END FIND_DELETION_UPPER_BOUND;
PL6.E3A0      #005=VDP$WSCROLL_UP File=VDP$WINDOW_I_O.:VDA5TSI                   FRI 07/04/97 11:41 Page:380

   2930  0 000325   000001 336007                    LCQ     1,DL
         0 000326   200015 056100                    ASQ     RECORD_SET_INDEX,,AUTO
         0 000327   200015 235100                    LDA     RECORD_SET_INDEX,,AUTO
         0 000330   000271 605000 0                  TPL     s:2918

     2656     2931
     2657     2932                /*  If there was nothing in the RECORD_SET within
     2658     2933                    the deleted range, give up.  */
     2659     2934    2           IF DELETION_FIRST_INDEX > DELETION_LAST_INDEX

   2934  0 000331   200011 236100                    LDQ     DELETION_FIRST_INDEX,,AUTO
         0 000332   200012 116100                    CMPQ    DELETION_LAST_INDEX,,AUTO
         0 000333   000335 604400 0                  TMOZ    s:2938

     2660     2935    2           THEN
     2661     2936    2             RETURN;

   2936  0 000334   000000 702200 xent               TSX2  ! X66_ARET

     2662     2937
     2663     2938    2           SCROLL_COUNT = DELETION_LAST_INDEX

   2938  0 000335   200012 236100                    LDQ     DELETION_LAST_INDEX,,AUTO
         0 000336   200011 136100                    SBLQ    DELETION_FIRST_INDEX,,AUTO
         0 000337   000001 036007                    ADLQ    1,DL
         0 000340   200020 756100                    STQ     SCROLL_COUNT,,AUTO

     2664     2939    2             - DELETION_FIRST_INDEX
     2665     2940    2             + 1;
     2666     2941
     2667     2942    2   DELETE_LOWER_TO_UPPER_BOUND:
     2668     2943    2           DO RECORD_SET_SCROLL_INDEX = DELETION_FIRST_INDEX
     2669     2944    3             TO DELETION_LAST_INDEX;

   2944  0 000341   200011 235100       DELETE_LOWE* LDA     DELETION_FIRST_INDEX,,AUTO
         0 000342   200017 755100                    STA     RECORD_SET_SCROLL_INDEX,,AUTO
PL6.E3A0      #005=VDP$WSCROLL_UP File=VDP$WINDOW_I_O.:VDA5TSI                   FRI 07/04/97 11:41 Page:381
         0 000343   000403 710000 0                  TRA     s:2960+1

     2670     2945
     2671     2946                  %CLEARKEY ( KEY = "RECORD$SET.DESC.KEY",
     2672     2947                  INDX = RECORD_SET_SCROLL_INDEX );

   2954  0 000344   200003 470500                    LDP0    @SCROLL_WINDOW,,AUTO
         0 000345   000016 471500                    LDP1    14,,PR0
         0 000346   200017 236100                    LDQ     RECORD_SET_SCROLL_INDEX,,AUTO
         0 000347   000006 402007                    MPY     6,DL
         0 000350   100003 720106                    LXL0    3,QL,PR1
         0 000351   000002 100003                    CMPX0   2,DU
         0 000352   000363 601000 0                  TNZ     s:2955+1

   2954  0 000353   100004 473506                    LDP3    4,QL,PR1
         0 000354   200022 453500                    STP3    SCROLL_COUNT+2,,AUTO
         0 000355   200022 630500                    EPPR0   SCROLL_COUNT+2,,AUTO
         0 000356   000017 631400 xsym               EPPR1   B_VECTNIL+15
         0 000357   000000 701000 xent               TSX1    VDG$OFREE
         0 000360   000362 702000 0                  TSX2    s:2955
         0 000361   000363 710000 0                  TRA     s:2955+1

   2955  0 000362   000000 702200 xent               TSX2  ! X66_AALT

   2955  0 000363   200003 470500                    LDP0    @SCROLL_WINDOW,,AUTO
         0 000364   000016 471500                    LDP1    14,,PR0
         0 000365   200017 236100                    LDQ     RECORD_SET_SCROLL_INDEX,,AUTO
         0 000366   000006 402007                    MPY     6,DL
         0 000367   100003 450106                    STZ     3,QL,PR1
         0 000370   100004 450106                    STZ     4,QL,PR1

     2673     2957    3             CALL VDG$OFREE ( RECORD$SET.DESC.DATA$ ( RECORD_SET_SCROLL_INDEX ) ->
              2957                      VD$BUFFER )

   2957  0 000371   000016 471500                    LDP1    14,,PR0
         0 000372   100007 473506                    LDP3    7,QL,PR1
         0 000373   200022 453500                    STP3    SCROLL_COUNT+2,,AUTO
PL6.E3A0      #005=VDP$WSCROLL_UP File=VDP$WINDOW_I_O.:VDA5TSI                   FRI 07/04/97 11:41 Page:382
         0 000374   200022 630500                    EPPR0   SCROLL_COUNT+2,,AUTO
         0 000375   000017 631400 xsym               EPPR1   B_VECTNIL+15
         0 000376   000000 701000 xent               TSX1    VDG$OFREE
         0 000377   000401 702000 0                  TSX2    s:2958
         0 000400   000402 710000 0                  TRA     s:2960

     2674     2958    4             WHENALTRETURN DO; ALTRETURN; END;

   2958  0 000401   000000 702200 xent               TSX2  ! X66_AALT

     2675     2959
     2676     2960    3           END DELETE_LOWER_TO_UPPER_BOUND;

   2960  0 000402   200017 054100                    AOS     RECORD_SET_SCROLL_INDEX,,AUTO
         0 000403   200017 236100                    LDQ     RECORD_SET_SCROLL_INDEX,,AUTO
         0 000404   200012 116100                    CMPQ    DELETION_LAST_INDEX,,AUTO
         0 000405   000344 604400 0                  TMOZ    s:2954

     2677     2961
     2678     2962    2   SHUFFLE_EVERYTHING_UP_N:
     2679     2963    2           DO RECORD_SET_SCROLL_INDEX = DELETION_LAST_INDEX + 1
     2680     2964    3             TO RECORD$SET.N_ENTRIES# - 1;

   2964  0 000406   200012 235100       SHUFFLE_EVE* LDA     DELETION_LAST_INDEX,,AUTO
         0 000407   000001 035007                    ADLA    1,DL
         0 000410   200017 755100                    STA     RECORD_SET_SCROLL_INDEX,,AUTO
         0 000411   000437 710000 0                  TRA     s:2970+1

     2681     2965
     2682     2966    3             RECORD$SET.DESC ( RECORD_SET_SCROLL_INDEX - SCROLL_COUNT ) =

   2966  0 000412   200017 236100                    LDQ     RECORD_SET_SCROLL_INDEX,,AUTO
         0 000413   200020 136100                    SBLQ    SCROLL_COUNT,,AUTO
         0 000414   200003 470500                    LDP0    @SCROLL_WINDOW,,AUTO
         0 000415   000016 471500                    LDP1    14,,PR0
         0 000416   200022 756100                    STQ     SCROLL_COUNT+2,,AUTO
         0 000417   200017 236100                    LDQ     RECORD_SET_SCROLL_INDEX,,AUTO
PL6.E3A0      #005=VDP$WSCROLL_UP File=VDP$WINDOW_I_O.:VDA5TSI                   FRI 07/04/97 11:41 Page:383
         0 000420   000030 402007                    MPY     24,DL
         0 000421   200023 756100                    STQ     SCROLL_COUNT+3,,AUTO
         0 000422   200022 236100                    LDQ     SCROLL_COUNT+2,,AUTO
         0 000423   000030 402007                    MPY     24,DL
         0 000424   200023 235100                    LDA     SCROLL_COUNT+3,,AUTO
         0 000425   000106 100505                    MLR     fill='000'O
         0 000426   100003 000030                    ADSC9   3,A,PR1                  cn=0,n=24
         0 000427   100003 000030                    ADSC9   3,Q,PR1                  cn=0,n=24

     2683     2967    3               RECORD$SET.DESC ( RECORD_SET_SCROLL_INDEX );
     2684     2968    3             RECORD$SET.DESC ( RECORD_SET_SCROLL_INDEX ) = %CLEAR;

   2968  0 000430   000016 471500                    LDP1    14,,PR0
         0 000431   200017 236100                    LDQ     RECORD_SET_SCROLL_INDEX,,AUTO
         0 000432   000030 402007                    MPY     24,DL
         0 000433   000106 100400                    MLR     fill='000'O
         0 000434   000002 000001 xsym               ADSC9   B_VECTNIL+2              cn=0,n=1
         0 000435   100003 000030                    ADSC9   3,Q,PR1                  cn=0,n=24

     2685     2969
     2686     2970    3           END SHUFFLE_EVERYTHING_UP_N;

   2970  0 000436   200017 054100                    AOS     RECORD_SET_SCROLL_INDEX,,AUTO
         0 000437   200003 470500                    LDP0    @SCROLL_WINDOW,,AUTO
         0 000440   000016 471500                    LDP1    14,,PR0
         0 000441   100002 236100                    LDQ     2,,PR1
         0 000442   000022 732000                    QRS     18
         0 000443   200017 116100                    CMPQ    RECORD_SET_SCROLL_INDEX,,AUTO
         0 000444   000412 605400 0                  TPNZ    s:2966

     2687     2971
     2688     2972    2           IF RECORD$SET.N_ENTRIES# - SCROLL_COUNT < 0

   2972  0 000445   200020 136100                    SBLQ    SCROLL_COUNT,,AUTO
         0 000446   000452 605000 0                  TPL     s:2975

     2689     2973    2           THEN
PL6.E3A0      #005=VDP$WSCROLL_UP File=VDP$WINDOW_I_O.:VDA5TSI                   FRI 07/04/97 11:41 Page:384
     2690     2974    2             CALL VDG$ESCREECH;

   2974  0 000447   000002 631400 xsym               EPPR1   B_VECTNIL+2
         0 000450   000000 701000 xent               TSX1    VDG$ESCREECH
         0 000451   000000 011000                    NOP     0

     2691     2975    2           RECORD$SET.N_ENTRIES# = RECORD$SET.N_ENTRIES# - SCROLL_COUNT;

   2975  0 000452   200003 470500                    LDP0    @SCROLL_WINDOW,,AUTO
         0 000453   000016 471500                    LDP1    14,,PR0
         0 000454   100002 236100                    LDQ     2,,PR1
         0 000455   000022 732000                    QRS     18
         0 000456   200020 136100                    SBLQ    SCROLL_COUNT,,AUTO
         0 000457   000000 620006                    EAX0    0,QL
         0 000460   100002 740100                    STX0    2,,PR1

     2692     2976
     2693     2977    2         END DELETE_BY_SHUFFLING;

     2694     2978
     2695     2979    1       IF VD_$$MON_PRES.V# > 10

   2979  0 000461   000003 235000 xsym               LDA     VD_$$MON_PRES+3
         0 000462   000012 115007                    CMPA    10,DL
         0 000463   000470 604400 0                  TMOZ    s:2983

     2696     2980    1       THEN
     2697     2981    1         CALL VDG$MPRES_RETURN ( SCROLL_WINDOW );

   2981  0 000464   200003 630500                    EPPR0   @SCROLL_WINDOW,,AUTO
         0 000465   000017 631400 xsym               EPPR1   B_VECTNIL+15
         0 000466   000000 701000 xent               TSX1    VDG$MPRES_RETURN
         0 000467   000000 011000                    NOP     0

     2698     2982
     2699     2983    1       RETURN;

PL6.E3A0      #005=VDP$WSCROLL_UP File=VDP$WINDOW_I_O.:VDA5TSI                   FRI 07/04/97 11:41 Page:385
   2983  0 000470   000000 702200 xent               TSX2  ! X66_ARET
     2700     2984
     2701     2985    1   END VDP$WSCROLL_UP;
     2702     2986        %EOD;

PL6.E3A0      #005=VDP$WSCROLL_UP File=VDP$WINDOW_I_O.:VDA5TSI                   FRI 07/04/97 11:41 Page:386
--  Include file information  --

   VD_MACROS_M.:VDA5TOU  is referenced.
   B$JIT_C.:E04TOU  was found in the system file and is never referenced.
   CP_6_C.:E04TOU  was found in the system file and is never referenced.
      No diagnostics issued in procedure VDP$WSCROLL_UP.
PL6.E3A0      #005=VDP$WSCROLL_UP File=VDP$WINDOW_I_O.:VDA5TSI                   FRI 07/04/97 11:41 Page:387

 **** Variables and constants ****

  ****  Auto variables  ****

  ****  Scalars and arrays  ****
OctLoc.c.b A Datatyp(siz) R M Lvl/name                 OctLoc.c.b A Datatyp(siz) R M Lvl/name

     7-0-0/w PTR         r     1 @DELETION_FIRST_KEY       10-0-0/w PTR         r     1 @DELETION_LAST_KEY
     6-0-0/w PTR         r     1 @SCROLL_DATA               4-0-0/w PTR         r     1 @SCROLL_KEY
     5-0-0/w PTR         r     1 @SCROLL_SPEC               3-0-0/w PTR         r     1 @SCROLL_WINDOW
    11-0-0/w SBIN        r     1 DELETION_FIRST_INDEX      *0-0-0/w STRC(72)    r     1 DELETION_FIRST_KEY
    13-0-0/w PTR         r     1 DELETION_FIRST_KEY$       12-0-0/w SBIN        r     1 DELETION_LAST_INDEX
    *0-0-0/w STRC(72)    r     1 DELETION_LAST_KEY         14-0-0/w PTR         r     1 DELETION_LAST_KEY$
    15-0-0/w SBIN        r     1 RECORD_SET_INDEX          16-0-0/w PTR         r     1 RECORD_SET_KEY$
    17-0-0/w SBIN        r     1 RECORD_SET_SCROLL_INDEX
    20-0-0/w UBIN        r     1 SCROLL_COUNT              *0-0-0/w ASTR(90)    r     1 SCROLL_DATA
    *0-0-0/w STRC(72)    r     1 SCROLL_KEY                *0-0-0/w STRC(72)    r     1 SCROLL_SPEC
    *0-0-0/w STRC(900)   r     1 SCROLL_WINDOW

  ****  SYMREF variables  ****

  ****  Scalars and arrays  ****
OctLoc.c.b A Datatyp(siz) R M Lvl/name                 OctLoc.c.b A Datatyp(siz) R M Lvl/name

     0-0-0/w STRC(144)   r     1 VD_$$MON_PRES

  ****  BASED and DCB variables  ****

  ****  Scalars and arrays  ****
OctLoc.c.b A Datatyp(siz) R M Lvl/name                 OctLoc.c.b A Datatyp(siz) R M Lvl/name

     0-0-0/w STRC(324)   r     1 RECORD$SET                 0-0-0/w ASTR(90)    r     1 VD$BUFFER
     0-0-0/w ASTR(9)     r     1 VD$TEXTC                   0-0-0/w ASTR(81)    r     1 VD$TEXTC_REMOTE


   Procedure VDP$WSCROLL_UP requires 313 words for executable code.
PL6.E3A0      #005=VDP$WSCROLL_UP File=VDP$WINDOW_I_O.:VDA5TSI                   FRI 07/04/97 11:41 Page:388
   Procedure VDP$WSCROLL_UP requires 22 words of local(AUTO) storage.
PL6.E3A0      #005=VDP$WSCROLL_UP File=VDP$WINDOW_I_O.:VDA5TSI                   FRI 07/04/97 11:41 Page:389
          *** CROSS REFERENCE LISTING ***
**     DENOTES     IDENTIFIER DEFINITION
<<                 IDENTIFIER'S VALUE SET
>>                 IDENTIFIER'S VALUE USED
<>                 IDENTIFIER SET AND/OR USED
--                 IDENTIFIER REFERENCED
PL6.E3A0      #005=VDP$WSCROLL_UP File=VDP$WINDOW_I_O.:VDA5TSI                   FRI 07/04/97 11:41 Page:390
          MINI XREF LISTING

DELETION_FIRST_INDEX
      2467**DCL      2876<<ASSIGN   2899<<ASSIGN   2934>>IF       2938>>ASSIGN   2944>>DOINDEX
DELETION_FIRST_KEY
      2398**DCL         9--PROC     2772<>CALL
DELETION_FIRST_KEY.REP#
      2402**DCL      2853>>IF
DELETION_FIRST_KEY.V$
      2402**DCL      2853>>ASSIGN   2853--ASSIGN
DELETION_FIRST_KEY$
      2469**DCL      2853<<ASSIGN   2853<<ASSIGN   2895>>IF       2895>>IF
DELETION_LAST_INDEX
      2468**DCL      2877<<ASSIGN   2926<<ASSIGN   2934>>IF       2938>>ASSIGN   2944>>DOINDEX  2964>>DOINDEX
DELETION_LAST_KEY
      2413**DCL         9--PROC     2772<>CALL
DELETION_LAST_KEY.REP#
      2417**DCL      2864>>IF
DELETION_LAST_KEY.V$
      2417**DCL      2864>>ASSIGN   2864--ASSIGN
DELETION_LAST_KEY$
      2470**DCL      2864<<ASSIGN   2864<<ASSIGN   2922>>IF       2922>>IF
FIND_DELETION_LOWER_BOUND
      2880**LABEL    2900--EXIT
FIND_DELETION_UPPER_BOUND
      2907**LABEL    2927--EXIT
RECORD$SET.DESC
      2580**DCL      2802<<ASSIGN   2802>>ASSIGN   2966<<ASSIGN   2966>>ASSIGN   2968<<ASSIGN
RECORD$SET.DESC.DATA$
      2610**DCL      2798>>CALL     2798>>CALL     2831<>CALL     2957>>CALL     2957>>CALL
RECORD$SET.DESC.KEY
      2592**DCL      2795<<ASSIGN   2828<<ASSIGN   2955<<ASSIGN
RECORD$SET.DESC.KEY.REP#
      2594**DCL      2794>>IF       2891>>IF       2918>>IF       2954>>IF
PL6.E3A0      #005=VDP$WSCROLL_UP File=VDP$WINDOW_I_O.:VDA5TSI                   FRI 07/04/97 11:41 Page:391
RECORD$SET.DESC.KEY.V$
      2594**DCL      2794>>CALL     2794>>CALL     2828<>CALL     2891>>ASSIGN   2891--ASSIGN   2918>>ASSIGN
      2918--ASSIGN   2954>>CALL     2954>>CALL
RECORD$SET.MX_ENTRIES#
      2569**DCL      2782>>IF
RECORD$SET.N_ENTRIES#
      2569**DCL      2782>>IF       2801>>DOINDEX  2810<<ASSIGN   2810>>ASSIGN   2828>>ASSIGN   2828>>CALL
      2831>>CALL     2841>>IF       2876>>ASSIGN   2880>>DOINDEX  2907>>DOINDEX  2964>>DOINDEX  2972>>IF
      2975<<ASSIGN   2975>>ASSIGN
RECORD$SET.SQ_OFFSET#
      2569**DCL      2805<<ASSIGN   2805>>ASSIGN
RECORD_SET_INDEX
      2471**DCL      2880<<DOINDEX  2891>>IF       2891>>ASSIGN   2891>>ASSIGN   2899>>ASSIGN   2907<<DOINDEX
      2918>>IF       2918>>ASSIGN   2918>>ASSIGN   2926>>ASSIGN
RECORD_SET_KEY$
      2472**DCL      2891<<ASSIGN   2891<<ASSIGN   2895>>IF       2895>>IF       2918<<ASSIGN   2918<<ASSIGN
      2922>>IF       2922>>IF
RECORD_SET_SCROLL_INDEX
      2473**DCL      2801<<DOINDEX  2802>>ASSIGN   2802>>ASSIGN   2944<<DOINDEX  2954>>IF       2954>>CALL
      2954>>CALL     2955>>ASSIGN   2957>>CALL     2957>>CALL     2964<<DOINDEX  2966>>ASSIGN   2966>>ASSIGN
      2968>>ASSIGN
SCROLL_COUNT
      2474**DCL      2938<<ASSIGN   2966>>ASSIGN   2972>>IF       2975>>ASSIGN
SCROLL_DATA
      2356**DCL         9--PROC     2831<>CALL
SCROLL_DATA.LENGTH#
      2382**DCL      2384--IMP-SIZ  2831>>CALL
SCROLL_KEY
      2309**DCL         9--PROC     2772<>CALL     2777--IF       2828>>ASSIGN
SCROLL_KEY.REP#
      2313**DCL      2828>>IF
SCROLL_KEY.V$
      2313**DCL      2828>>CALL     2828>>CALL
SCROLL_SPEC
      2324**DCL         9--PROC
SCROLL_WINDOW
PL6.E3A0      #005=VDP$WSCROLL_UP File=VDP$WINDOW_I_O.:VDA5TSI                   FRI 07/04/97 11:41 Page:392
      2242**DCL         9--PROC     2772<>CALL     2981<>CALL
SCROLL_WINDOW.BOB_DISPLAYED
      2285**DCL      2797<<ASSIGN
SCROLL_WINDOW.RECORD_SET$
      2286**DCL      2543--IMP-PTR  2782>>IF       2782>>IF       2794>>IF       2794>>CALL     2794>>CALL
      2795>>ASSIGN   2798>>CALL     2798>>CALL     2801>>DOINDEX  2802>>ASSIGN   2802>>ASSIGN   2805>>ASSIGN
      2805>>ASSIGN   2810>>ASSIGN   2810>>ASSIGN   2828>>ASSIGN   2828>>ASSIGN   2828>>CALL     2828>>CALL
      2831>>CALL     2831>>CALL     2841>>IF       2876>>ASSIGN   2880>>DOINDEX  2891>>IF       2891>>ASSIGN
      2891>>ASSIGN   2907>>DOINDEX  2918>>IF       2918>>ASSIGN   2918>>ASSIGN   2954>>IF       2954>>CALL
      2954>>CALL     2955>>ASSIGN   2957>>CALL     2957>>CALL     2964>>DOINDEX  2966>>ASSIGN   2966>>ASSIGN
      2968>>ASSIGN   2972>>IF       2975>>ASSIGN   2975>>ASSIGN
VD$BUFFER
      2501**DCL      2798<>CALL     2957<>CALL
VD$BUFFER.LENGTH#
      2527**DCL      2529--IMP-SIZ  2798>>CALL     2957>>CALL
VD$TEXTC.BYTES
      2631**DCL      2895>>IF       2895>>IF       2922>>IF       2922>>IF
VD$TEXTC.LENGTH#
      2629**DCL      2631--IMP-SIZ  2895>>IF       2895>>IF       2922>>IF       2922>>IF
VD$TEXTC_REMOTE
      2661**DCL      2794<>CALL     2828<>CALL     2954<>CALL
VD$TEXTC_REMOTE.LENGTH#
      2690**DCL      2692--IMP-SIZ  2794>>CALL     2828>>CALL     2853--ASSIGN   2864--ASSIGN   2891--ASSIGN
      2918--ASSIGN   2954>>CALL
VDG$ESCREECH
      2764**DCL-ENT  2974--CALL
VDG$MPRES_RETURN
      2765**DCL-ENT  2981--CALL
VDG$MPRES_WSCROLL_UP
      2766**DCL-ENT  2772--CALL
VDG$OCOPY
      2767**DCL-ENT  2828--CALL     2831--CALL
VDG$OFREE
      2768**DCL-ENT  2794--CALL     2798--CALL     2954--CALL     2957--CALL
VD_$$MON_PRES.V#
      2463**DCL      2770>>IF       2979>>IF

PL6.E3A0      #006=VDP$WWRITE File=VDP$WINDOW_I_O.:VDA5TSI                       FRI 07/04/97 11:41 Page:393
     2703        1        /*M* VDP$WWRITE:  Write (1D Present) a SelectedBlock.  */
     2704        2        /*T***********************************************************/
     2705        3        /*T*                                                         */
     2706        4        /*T* Copyright (c) Bull HN Information Systems Inc., 1997    */
     2707        5        /*T*                                                         */
     2708        6        /*T***********************************************************/
     2709        7        /*X* DMC,PLM=4,IND=0,DCI=4,CSI=2,IAD=2,DTI=2,AND,ECI=0,DIN=2,STI=2 */
     2710        8
     2711        9        VDP$WWRITE: PROC (SELECTION)
     2712       10              ALTRET;
     2713       11
     2714       12          %INCLUDE VD_MACROS_M;
     2715     2227          %INCLUDE VD_PERR_C;
     2716     2375
     2717     2376            %VD$NUMBER ( NAME = VD_$$MON_PRES,
     2718     2377            STCLASS = SYMREF );
     2719     2422            %VD$NUMBER ( NAME = VD_$SCREEN,
     2720     2423            STCLASS = SYMREF );
     2721     2468
     2722     2469        %VD$OPERAND (NAME=SELECTION, STCLASS=PARAM);
     2723     2483
     2724     2484            %VD$BLOCK_DESC (NAME=SEL$BLOCK_DESC, STCLASS="BASED(SELECTION.EDIT_BLOCK$)");
     2725     2631            %VD$EVAL (NAME=SEL$EVAL, STCLASS="BASED(SELECTION.EVAL$)");
     2726     2876            %VD$LOCATION;
     2727     2904            %VD$STREAM (NAME=SEL$STREAM, STCLASS="BASED(SELECTION.STREAM$)");
     2728     3010            %VD$TEXTC;
     2729     3033            %VD$TEXTC_REMOTE;
     2730     3094
     2731     3095            %VD$LOCATION ( NAME = RREAD_LOCATION,
     2732     3096            STCLASS = AUTO );
     2733     3124            %VD$NODE_DESC ( NAME = RGET_NODE_DESC,
     2734     3125            STCLASS = AUTO );
     2735     3167
     2736     3168    1     DCL EVAL_ENDD_KEY$ PTR;
     2737     3169    1     DCL LOCATION$ PTR;
     2738     3170    1     DCL RECORD_COUNT SBIN;
     2739     3171    1     DCL RELATIVE SBIN;
PL6.E3A0      #006=VDP$WWRITE File=VDP$WINDOW_I_O.:VDA5TSI                       FRI 07/04/97 11:41 Page:394
     2740     3172    1     DCL RREAD_SAVED_KEY$ PTR;
     2741     3173    1     DCL STREAM_CURRENT_KEY$ PTR;
     2742     3174    1     DCL RCCL SBIN;
     2743     3175
     2744     3176    1     DCL VDE$RGET ENTRY (3) ALTRET;
     2745     3177    1     DCL VDE$RREAD ENTRY (4) ALTRET;
     2746     3178
     2747     3179    1     DCL VDG$EREPORT_ERROR ENTRY (1);
     2748     3180    1     DCL VDG$MPRES_RETURN ENTRY (1);
     2749     3181    1     DCL VDG$MPRES_WWRITE ENTRY (1);
     2750     3182    1     DCL VDG$WARNMSG ENTRY (4) ALTRET;
     2751     3183    1     DCL VDG$COMPARE_LOCS ENTRY (3) ALTRET;
     2752     3184
     2753     3185    1     DCL VDP$WFORMAT_RECORD ENTRY (2) ALTRET;
     2754     3186        %EJECT;
PL6.E3A0      #006=VDP$WWRITE File=VDP$WINDOW_I_O.:VDA5TSI                       FRI 07/04/97 11:41 Page:395
     2755     3187    1       IF VD_$SCREEN.V# >= %MN_SCREEN_EDITING_HEIGHT
     2756     3188    1       THEN
     2757     3189    1         RETURN;
     2758     3190
     2759     3191    1       IF VD_$$MON_PRES.V# > 0
     2760     3192    1       THEN
     2761     3193    1         CALL VDG$MPRES_WWRITE ( SELECTION );
     2762     3194
     2763     3195    1       RREAD_LOCATION = SEL$EVAL.RANGE.START;
     2764     3196    1       LOCATION$ = ADDR ( RREAD_LOCATION );
     2765     3197    1       RELATIVE = 0;
     2766     3198    1       RECORD_COUNT = 0;
     2767     3199
     2768     3200    1       IF SEL$EVAL.RANGE.ENDD.EOF THEN
     2769     3201    1         EVAL_ENDD_KEY$ = ADDR(NIL);
     2770     3202    2       ELSE DO;
     2771     3203                %GETKEY ( KEY = "SEL$EVAL.RANGE.ENDD.KEY",
     2772     3204                INDX = "SEL$BLOCK_DESC.OPTIONS.LEVEL# - 1",
     2773     3205                PTR = EVAL_ENDD_KEY$ );
     2774     3215    2         END;
     2775     3216    1       CALL VDG$COMPARE_LOCS (SEL$EVAL.RANGE.START, SEL$EVAL.RANGE.ENDD, RCCL);
     2776     3217
     2777     3218    1   DISPLAY_SELECTED_BLOCK:
     2778     3219    2       DO WHILE %TRUE;
     2779     3220
     2780     3221    2         CALL VDE$RREAD ( SEL$STREAM,
     2781     3222    2           SEL$BLOCK_DESC.RANGE,
     2782     3223    2           LOCATION$ -> VD$LOCATION,
     2783     3224    2           RELATIVE  /* relative position = forward 0 or 1 */ )
     2784     3225    3         WHENALTRETURN DO; ALTRETURN; END;
     2785     3226
     2786     3227    2         CALL VDE$RGET ( SEL$STREAM,
     2787     3228    2           SEL$BLOCK_DESC.RANGE,
     2788     3229    2           RGET_NODE_DESC )
     2789     3230    3         WHENALTRETURN DO; ALTRETURN; END;
     2790     3231
     2791     3232    2         IF RGET_NODE_DESC.KEY = %CLEAR
PL6.E3A0      #006=VDP$WWRITE File=VDP$WINDOW_I_O.:VDA5TSI                       FRI 07/04/97 11:41 Page:396
     2792     3233    2         THEN
     2793     3234    2           EXIT DISPLAY_SELECTED_BLOCK;
     2794     3235
     2795     3236              %GETKEY ( KEY = "SEL$STREAM.CURRENT.KEY",
     2796     3237              INDX = "SEL$BLOCK_DESC.OPTIONS.LEVEL# - 1",
     2797     3238              PTR = STREAM_CURRENT_KEY$ );
     2798     3248    2         IF EVAL_ENDD_KEY$~=ADDR(NIL) THEN
     2799     3249    2           IF STREAM_CURRENT_KEY$ -> VD$TEXTC.BYTES >
     2800     3250    2             EVAL_ENDD_KEY$ -> VD$TEXTC.BYTES
     2801     3251    2             OR ( STREAM_CURRENT_KEY$ -> VD$TEXTC.BYTES =
     2802     3252    2             EVAL_ENDD_KEY$ -> VD$TEXTC.BYTES
     2803     3253    2             AND RCCL ~= %RCCL_EQUAL
     2804     3254    2             AND SEL$EVAL.RANGE.ENDD.POSITION# = 0 )
     2805     3255    2           THEN
     2806     3256    2             EXIT DISPLAY_SELECTED_BLOCK;
     2807     3257
     2808     3258    2         RECORD_COUNT = RECORD_COUNT + 1;
     2809     3259
     2810     3260    2         CALL VDP$WFORMAT_RECORD ( RGET_NODE_DESC )
     2811     3261    3         WHENALTRETURN DO; ALTRETURN; END;
     2812     3262
     2813     3263    2         LOCATION$ = ADDR (NIL);
     2814     3264    2         RELATIVE = 1;
     2815     3265
     2816     3266    2       END DISPLAY_SELECTED_BLOCK;
     2817     3267
     2818     3268    1       IF RECORD_COUNT = 0
     2819     3269    1       THEN
     2820     3270    1   GIVE_NONE_ERROR:
     2821     3271    2         DO;
     2822     3272    2           CALL VDG$WARNMSG (%E$INFO_NONE);
     2823     3273    2           CALL VDG$EREPORT_ERROR;
     2824     3274    2         END GIVE_NONE_ERROR;
     2825     3275
     2826     3276    1       IF VD_$$MON_PRES.V# > 0
     2827     3277    1       THEN
     2828     3278    1         CALL VDG$MPRES_RETURN ( SELECTION );
PL6.E3A0      #006=VDP$WWRITE File=VDP$WINDOW_I_O.:VDA5TSI                       FRI 07/04/97 11:41 Page:397
     2829     3279
     2830     3280    1       RETURN;
     2831     3281
     2832     3282    1   END VDP$WWRITE;

PL6.E3A0      #006=VDP$WWRITE File=VDP$WINDOW_I_O.:VDA5TSI                       FRI 07/04/97 11:41 Page:398
--  Include file information  --

   VD_PERR_C.:VDA5TOU  is referenced.
   VD_MACROS_M.:VDA5TOU  is referenced.
   B$JIT_C.:E04TOU  was found in the system file and is never referenced.
   CP_6_C.:E04TOU  was found in the system file and is never referenced.
      No diagnostics issued in procedure VDP$WWRITE.

   Procedure VDP$WWRITE requires 163 words for executable code.
   Procedure VDP$WWRITE requires 30 words of local(AUTO) storage.

    No errors detected in file VDP$WINDOW_I_O.:VDA5TSI    .

PL6.E3A0      #006=VDP$WWRITE File=VDP$WINDOW_I_O.:VDA5TSI                       FRI 07/04/97 11:41 Page:399

 Object Unit name= VDP$WWRITE                                 File name= VDP$WINDOW_I_O.:VDA5TOU
 UTS= JUL 04 '97 11:41:19.96 FRI                              Compiler= PL-6/E31         Sev=      00
 SharedLib= :SHARED_SYSTEM                                    Alt SharedLib=


    ****  Control sections  ****

 Sect   Type Bound  Init  Size OctSiz  Section name(segment info)
    0   Proc  even  none   163    243  VDP$WWRITE
    1  RoData even  none     2      2  VDP$WWRITE

    ****  Entry defs  ****

                              Check   Calling
                             calling  sequence
  Sect OctLoc Primary Altret sequence   type   Parms  Name
     0      0   yes    yes     yes      Std        1  VDP$WWRITE

  ****  Entry refs  ****

         Check        Calling
        calling       sequence
Altret sequence SRef   type   Args  Name
         yes           Std       1 VDG$MPRES_WWRITE
 yes     yes           Std       3 VDE$RGET
         yes           Std       1 VDG$EREPORT_ERROR
 yes     yes           Std       3 VDG$COMPARE_LOCS
 yes     yes           Std       4 VDE$RREAD
         yes           Std       1 VDG$MPRES_RETURN
 yes     yes           Std       2 VDP$WFORMAT_RECORD
 yes     yes           Std       4 VDG$WARNMSG
                       nStd      0 X66_AUTO_1
                       nStd      0 X66_ARET
                       Std       0 B_CONSPOOL_D
                       nStd      0 X66_AALT
PL6.E3A0      #006=VDP$WWRITE File=VDP$WINDOW_I_O.:VDA5TSI                       FRI 07/04/97 11:41 Page:400

  ****  Data refs  ****

  Flags:  r = read only, s = secondary
Flgs Name                             Flgs Name                             Flgs Name
     VD_$$MON_PRES                         VD_$SCREEN                            B_VECTNIL

  ****  Segment refs  ****

  Flags:  r = read only, s = secondary
Flgs Name                             Flgs Name                             Flgs Name
     ISSID
PL6.E3A0      #006=VDP$WWRITE File=VDP$WINDOW_I_O.:VDA5TSI                       FRI 07/04/97 11:41 Page:401


     2703        1        /*M* VDP$WWRITE:  Write (1D Present) a SelectedBlock.  */
     2704        2        /*T***********************************************************/
     2705        3        /*T*                                                         */
     2706        4        /*T* Copyright (c) Bull HN Information Systems Inc., 1997    */
     2707        5        /*T*                                                         */
     2708        6        /*T***********************************************************/
     2709        7        /*X* DMC,PLM=4,IND=0,DCI=4,CSI=2,IAD=2,DTI=2,AND,ECI=0,DIN=2,STI=2 */
     2710        8
     2711        9        VDP$WWRITE: PROC (SELECTION)

      9  0 000000   000000 700200 xent  VDP$WWRITE   TSX0  ! X66_AUTO_1
         0 000001   000036 000001                    ZERO    30,1

     2712       10              ALTRET;
     2713       11
     2714       12          %INCLUDE VD_MACROS_M;
     2715     2227          %INCLUDE VD_PERR_C;
     2716     2375
     2717     2376            %VD$NUMBER ( NAME = VD_$$MON_PRES,
     2718     2377            STCLASS = SYMREF );
     2719     2422            %VD$NUMBER ( NAME = VD_$SCREEN,
     2720     2423            STCLASS = SYMREF );
     2721     2468
     2722     2469        %VD$OPERAND (NAME=SELECTION, STCLASS=PARAM);
     2723     2483
     2724     2484            %VD$BLOCK_DESC (NAME=SEL$BLOCK_DESC, STCLASS="BASED(SELECTION.EDIT_BLOCK$)");
     2725     2631            %VD$EVAL (NAME=SEL$EVAL, STCLASS="BASED(SELECTION.EVAL$)");
     2726     2876            %VD$LOCATION;
     2727     2904            %VD$STREAM (NAME=SEL$STREAM, STCLASS="BASED(SELECTION.STREAM$)");
     2728     3010            %VD$TEXTC;
     2729     3033            %VD$TEXTC_REMOTE;
     2730     3094
     2731     3095            %VD$LOCATION ( NAME = RREAD_LOCATION,
     2732     3096            STCLASS = AUTO );
     2733     3124            %VD$NODE_DESC ( NAME = RGET_NODE_DESC,
     2734     3125            STCLASS = AUTO );
PL6.E3A0      #006=VDP$WWRITE File=VDP$WINDOW_I_O.:VDA5TSI                       FRI 07/04/97 11:41 Page:402
     2735     3167
     2736     3168    1     DCL EVAL_ENDD_KEY$ PTR;
     2737     3169    1     DCL LOCATION$ PTR;
     2738     3170    1     DCL RECORD_COUNT SBIN;
     2739     3171    1     DCL RELATIVE SBIN;
     2740     3172    1     DCL RREAD_SAVED_KEY$ PTR;
     2741     3173    1     DCL STREAM_CURRENT_KEY$ PTR;
     2742     3174    1     DCL RCCL SBIN;
     2743     3175
     2744     3176    1     DCL VDE$RGET ENTRY (3) ALTRET;
     2745     3177    1     DCL VDE$RREAD ENTRY (4) ALTRET;
     2746     3178
     2747     3179    1     DCL VDG$EREPORT_ERROR ENTRY (1);
     2748     3180    1     DCL VDG$MPRES_RETURN ENTRY (1);
     2749     3181    1     DCL VDG$MPRES_WWRITE ENTRY (1);
     2750     3182    1     DCL VDG$WARNMSG ENTRY (4) ALTRET;
     2751     3183    1     DCL VDG$COMPARE_LOCS ENTRY (3) ALTRET;
     2752     3184
     2753     3185    1     DCL VDP$WFORMAT_RECORD ENTRY (2) ALTRET;
     2754     3186        %EJECT;
PL6.E3A0      #006=VDP$WWRITE File=VDP$WINDOW_I_O.:VDA5TSI                       FRI 07/04/97 11:41 Page:403
     2755     3187    1       IF VD_$SCREEN.V# >= %MN_SCREEN_EDITING_HEIGHT

   3187  0 000002   000003 235000 xsym               LDA     VD_$SCREEN+3
         0 000003   000003 115007                    CMPA    3,DL
         0 000004   000006 604000 0                  TMI     s:3191

     2756     3188    1       THEN
     2757     3189    1         RETURN;

   3189  0 000005   000000 702200 xent               TSX2  ! X66_ARET

     2758     3190
     2759     3191    1       IF VD_$$MON_PRES.V# > 0

   3191  0 000006   000003 236000 xsym               LDQ     VD_$$MON_PRES+3
         0 000007   000014 604400 0                  TMOZ    s:3195

     2760     3192    1       THEN
     2761     3193    1         CALL VDG$MPRES_WWRITE ( SELECTION );

   3193  0 000010   200003 630500                    EPPR0   @SELECTION,,AUTO
         0 000011   000017 631400 xsym               EPPR1   B_VECTNIL+15
         0 000012   000000 701000 xent               TSX1    VDG$MPRES_WWRITE
         0 000013   000000 011000                    NOP     0

     2762     3194
     2763     3195    1       RREAD_LOCATION = SEL$EVAL.RANGE.START;

   3195  0 000014   200003 470500                    LDP0    @SELECTION,,AUTO
         0 000015   000003 471500                    LDP1    3,,PR0
         0 000016   000100 100500                    MLR     fill='000'O
         0 000017   100024 000044                    ADSC9   20,,PR1                  cn=0,n=36
         0 000020   200004 000044                    ADSC9   RREAD_LOCATION,,AUTO     cn=0,n=36

     2764     3196    1       LOCATION$ = ADDR ( RREAD_LOCATION );

   3196  0 000021   200004 631500                    EPPR1   RREAD_LOCATION,,AUTO
PL6.E3A0      #006=VDP$WWRITE File=VDP$WINDOW_I_O.:VDA5TSI                       FRI 07/04/97 11:41 Page:404
         0 000022   200024 451500                    STP1    LOCATION$,,AUTO

     2765     3197    1       RELATIVE = 0;

   3197  0 000023   200026 450100                    STZ     RELATIVE,,AUTO

     2766     3198    1       RECORD_COUNT = 0;

   3198  0 000024   200025 450100                    STZ     RECORD_COUNT,,AUTO

     2767     3199
     2768     3200    1       IF SEL$EVAL.RANGE.ENDD.EOF THEN

   3200  0 000025   000003 473500                    LDP3    3,,PR0
         0 000026   300045 236100                    LDQ     37,,PR3
         0 000027   400000 316007                    CANQ    -131072,DL
         0 000030   000034 600000 0                  TZE     s:3212

     2769     3201    1         EVAL_ENDD_KEY$ = ADDR(NIL);

   3201  0 000031   000001 236000 xsym               LDQ     B_VECTNIL+1
         0 000032   200023 756100                    STQ     EVAL_ENDD_KEY$,,AUTO
         0 000033   000057 710000 0                  TRA     s:3216

     2770     3202    2       ELSE DO;

     2771     3203                %GETKEY ( KEY = "SEL$EVAL.RANGE.ENDD.KEY",
     2772     3204                INDX = "SEL$BLOCK_DESC.OPTIONS.LEVEL# - 1",
     2773     3205                PTR = EVAL_ENDD_KEY$ );

   3212  0 000034   000002 474500                    LDP4    2,,PR0
         0 000035   400026 236100                    LDQ     22,,PR4
         0 000036   000021 732000                    QRS     17
         0 000037   000000 376000 1                  ANQ     0
         0 000040   300033 720106                    LXL0    27,QL,PR3
         0 000041   000002 100003                    CMPX0   2,DU
         0 000042   000052 601000 0                  TNZ     s:3212+14
PL6.E3A0      #006=VDP$WWRITE File=VDP$WINDOW_I_O.:VDA5TSI                       FRI 07/04/97 11:41 Page:405

   3212  0 000043   400026 236100                    LDQ     22,,PR4
         0 000044   000021 732000                    QRS     17
         0 000045   000000 376000 1                  ANQ     0
         0 000046   300034 475506                    LDP5    28,QL,PR3
         0 000047   500002 636500                    EPPR6   2,,PR5
         0 000050   200023 456500                    STP6    EVAL_ENDD_KEY$,,AUTO
         0 000051   000057 710000 0                  TRA     s:3216

   3212  0 000052   400026 236100                    LDQ     22,,PR4
         0 000053   000021 732000                    QRS     17
         0 000054   000000 376000 1                  ANQ     0
         0 000055   300034 635506                    EPPR5   28,QL,PR3
         0 000056   200023 455500                    STP5    EVAL_ENDD_KEY$,,AUTO

     2774     3215    2         END;

     2775     3216    1       CALL VDG$COMPARE_LOCS (SEL$EVAL.RANGE.START, SEL$EVAL.RANGE.ENDD, RCCL);

   3216  0 000057   200031 634500                    EPPR4   RCCL,,AUTO
         0 000060   200034 454500                    STP4    RCCL+3,,AUTO
         0 000061   300035 635500                    EPPR5   29,,PR3
         0 000062   200033 455500                    STP5    RCCL+2,,AUTO
         0 000063   300024 636500                    EPPR6   20,,PR3
         0 000064   200032 456500                    STP6    RCCL+1,,AUTO
         0 000065   200032 630500                    EPPR0   RCCL+1,,AUTO
         0 000066   000021 631400 xsym               EPPR1   B_VECTNIL+17
         0 000067   000000 701000 xent               TSX1    VDG$COMPARE_LOCS
         0 000070   000000 011000                    NOP     0

     2776     3217
     2777     3218    1   DISPLAY_SELECTED_BLOCK:
     2778     3219    2       DO WHILE %TRUE;

   3219  0 000071                       DISPLAY_SEL* null
     2779     3220
     2780     3221    2         CALL VDE$RREAD ( SEL$STREAM,
PL6.E3A0      #006=VDP$WWRITE File=VDP$WINDOW_I_O.:VDA5TSI                       FRI 07/04/97 11:41 Page:406

   3221  0 000071   200003 470500                    LDP0    @SELECTION,,AUTO
         0 000072   000000 471500                    LDP1    0,,PR0
         0 000073   000002 473500                    LDP3    2,,PR0
         0 000074   200026 634500                    EPPR4   RELATIVE,,AUTO
         0 000075   200035 454500                    STP4    RCCL+4,,AUTO
         0 000076   200024 236100                    LDQ     LOCATION$,,AUTO
         0 000077   200034 756100                    STQ     RCCL+3,,AUTO
         0 000100   300003 635500                    EPPR5   3,,PR3
         0 000101   200033 455500                    STP5    RCCL+2,,AUTO
         0 000102   200032 451500                    STP1    RCCL+1,,AUTO
         0 000103   200032 630500                    EPPR0   RCCL+1,,AUTO
         0 000104   000022 631400 xsym               EPPR1   B_VECTNIL+18
         0 000105   000000 701000 xent               TSX1    VDE$RREAD
         0 000106   000110 702000 0                  TSX2    s:3225
         0 000107   000111 710000 0                  TRA     s:3227

     2781     3222    2           SEL$BLOCK_DESC.RANGE,
     2782     3223    2           LOCATION$ -> VD$LOCATION,
     2783     3224    2           RELATIVE  /* relative position = forward 0 or 1 */ )
     2784     3225    3         WHENALTRETURN DO; ALTRETURN; END;

   3225  0 000110   000000 702200 xent               TSX2  ! X66_AALT

     2785     3226
     2786     3227    2         CALL VDE$RGET ( SEL$STREAM,

   3227  0 000111   200003 470500                    LDP0    @SELECTION,,AUTO
         0 000112   000000 471500                    LDP1    0,,PR0
         0 000113   000002 473500                    LDP3    2,,PR0
         0 000114   200015 634500                    EPPR4   RGET_NODE_DESC,,AUTO
         0 000115   200034 454500                    STP4    RCCL+3,,AUTO
         0 000116   300003 635500                    EPPR5   3,,PR3
         0 000117   200033 455500                    STP5    RCCL+2,,AUTO
         0 000120   200032 451500                    STP1    RCCL+1,,AUTO
         0 000121   200032 630500                    EPPR0   RCCL+1,,AUTO
         0 000122   000021 631400 xsym               EPPR1   B_VECTNIL+17
PL6.E3A0      #006=VDP$WWRITE File=VDP$WINDOW_I_O.:VDA5TSI                       FRI 07/04/97 11:41 Page:407
         0 000123   000000 701000 xent               TSX1    VDE$RGET
         0 000124   000126 702000 0                  TSX2    s:3230
         0 000125   000127 710000 0                  TRA     s:3232

     2787     3228    2           SEL$BLOCK_DESC.RANGE,
     2788     3229    2           RGET_NODE_DESC )
     2789     3230    3         WHENALTRETURN DO; ALTRETURN; END;

   3230  0 000126   000000 702200 xent               TSX2  ! X66_AALT

     2790     3231
     2791     3232    2         IF RGET_NODE_DESC.KEY = %CLEAR

   3232  0 000127   000000 106500                    CMPC    fill='000'O
         0 000130   200015 000010                    ADSC9   RGET_NODE_DESC,,AUTO     cn=0,n=8
         0 000131   000002 000002 xsym               ADSC9   B_VECTNIL+2              cn=0,n=2
         0 000132   000223 600000 0                  TZE     s:3268

     2792     3233    2         THEN
     2793     3234    2           EXIT DISPLAY_SELECTED_BLOCK;
     2794     3235
     2795     3236              %GETKEY ( KEY = "SEL$STREAM.CURRENT.KEY",
     2796     3237              INDX = "SEL$BLOCK_DESC.OPTIONS.LEVEL# - 1",
     2797     3238              PTR = STREAM_CURRENT_KEY$ );

   3245  0 000133   200003 470500                    LDP0    @SELECTION,,AUTO
         0 000134   000002 471500                    LDP1    2,,PR0
         0 000135   000000 473500                    LDP3    0,,PR0
         0 000136   100026 236100                    LDQ     22,,PR1
         0 000137   000021 732000                    QRS     17
         0 000140   000000 376000 1                  ANQ     0
         0 000141   300004 720106                    LXL0    4,QL,PR3
         0 000142   000002 100003                    CMPX0   2,DU
         0 000143   000153 601000 0                  TNZ     s:3245+16

   3245  0 000144   100026 236100                    LDQ     22,,PR1
         0 000145   000021 732000                    QRS     17
PL6.E3A0      #006=VDP$WWRITE File=VDP$WINDOW_I_O.:VDA5TSI                       FRI 07/04/97 11:41 Page:408
         0 000146   000000 376000 1                  ANQ     0
         0 000147   300005 474506                    LDP4    5,QL,PR3
         0 000150   400002 635500                    EPPR5   2,,PR4
         0 000151   200030 455500                    STP5    STREAM_CURRENT_KEY$,,AUTO
         0 000152   000160 710000 0                  TRA     s:3248

   3245  0 000153   100026 236100                    LDQ     22,,PR1
         0 000154   000021 732000                    QRS     17
         0 000155   000000 376000 1                  ANQ     0
         0 000156   300005 634506                    EPPR4   5,QL,PR3
         0 000157   200030 454500                    STP4    STREAM_CURRENT_KEY$,,AUTO

     2798     3248    2         IF EVAL_ENDD_KEY$~=ADDR(NIL) THEN

   3248  0 000160   200023 236100                    LDQ     EVAL_ENDD_KEY$,,AUTO
         0 000161   000001 116000 xsym               CMPQ    B_VECTNIL+1
         0 000162   000205 600000 0                  TZE     s:3258

     2799     3249    2           IF STREAM_CURRENT_KEY$ -> VD$TEXTC.BYTES >

   3249  0 000163   200030 474500                    LDP4    STREAM_CURRENT_KEY$,,AUTO
         0 000164   400000 236100                    LDQ     0,,PR4
         0 000165   000033 772000                    QRL     27
         0 000166   200023 475500                    LDP5    EVAL_ENDD_KEY$,,AUTO
         0 000167   000000 620006                    EAX0    0,QL
         0 000170   500000 236100                    LDQ     0,,PR5
         0 000171   000033 772000                    QRL     27
         0 000172   000000 621006                    EAX1    0,QL
         0 000173   040140 106540                    CMPC    fill='040'O
         0 000174   500000 200011                    ADSC9   0,,PR5                   cn=1,n=*X1
         0 000175   400000 200010                    ADSC9   0,,PR4                   cn=1,n=*X0
         0 000176   000223 602000 0                  TNC     s:3268
         0 000177   000205 601000 0                  TNZ     s:3258
         0 000200   200031 235100                    LDA     RCCL,,AUTO
         0 000201   000205 600000 0                  TZE     s:3258
         0 000202   000003 476500                    LDP6    3,,PR0
         0 000203   600045 222100                    LDX2    37,,PR6
PL6.E3A0      #006=VDP$WWRITE File=VDP$WINDOW_I_O.:VDA5TSI                       FRI 07/04/97 11:41 Page:409
         0 000204   000223 600000 0                  TZE     s:3268

     2800     3250    2             EVAL_ENDD_KEY$ -> VD$TEXTC.BYTES
     2801     3251    2             OR ( STREAM_CURRENT_KEY$ -> VD$TEXTC.BYTES =
     2802     3252    2             EVAL_ENDD_KEY$ -> VD$TEXTC.BYTES
     2803     3253    2             AND RCCL ~= %RCCL_EQUAL
     2804     3254    2             AND SEL$EVAL.RANGE.ENDD.POSITION# = 0 )
     2805     3255    2           THEN
     2806     3256    2             EXIT DISPLAY_SELECTED_BLOCK;
     2807     3257
     2808     3258    2         RECORD_COUNT = RECORD_COUNT + 1;

   3258  0 000205   200025 054100                    AOS     RECORD_COUNT,,AUTO

     2809     3259
     2810     3260    2         CALL VDP$WFORMAT_RECORD ( RGET_NODE_DESC )

   3260  0 000206   200015 634500                    EPPR4   RGET_NODE_DESC,,AUTO
         0 000207   200032 454500                    STP4    RCCL+1,,AUTO
         0 000210   200032 630500                    EPPR0   RCCL+1,,AUTO
         0 000211   000017 631400 xsym               EPPR1   B_VECTNIL+15
         0 000212   000000 701000 xent               TSX1    VDP$WFORMAT_RECORD
         0 000213   000215 702000 0                  TSX2    s:3261
         0 000214   000216 710000 0                  TRA     s:3263

     2811     3261    3         WHENALTRETURN DO; ALTRETURN; END;

   3261  0 000215   000000 702200 xent               TSX2  ! X66_AALT

     2812     3262
     2813     3263    2         LOCATION$ = ADDR (NIL);

   3263  0 000216   000001 236000 xsym               LDQ     B_VECTNIL+1
         0 000217   200024 756100                    STQ     LOCATION$,,AUTO

     2814     3264    2         RELATIVE = 1;

PL6.E3A0      #006=VDP$WWRITE File=VDP$WINDOW_I_O.:VDA5TSI                       FRI 07/04/97 11:41 Page:410
   3264  0 000220   000001 235007                    LDA     1,DL
         0 000221   200026 755100                    STA     RELATIVE,,AUTO

     2815     3265
     2816     3266    2       END DISPLAY_SELECTED_BLOCK;

   3266  0 000222   000071 710000 0                  TRA     DISPLAY_SELECTED_BLOCK

     2817     3267
     2818     3268    1       IF RECORD_COUNT = 0

   3268  0 000223   200025 235100                    LDA     RECORD_COUNT,,AUTO
         0 000224   000234 601000 0                  TNZ     s:3276

     2819     3269    1       THEN
     2820     3270    1   GIVE_NONE_ERROR:
     2821     3271    2         DO;

   3271  0 000225                       GIVE_NONE_E* null
     2822     3272    2           CALL VDG$WARNMSG (%E$INFO_NONE);

   3272  0 000225   000001 630400 1                  EPPR0   1
         0 000226   000017 631400 xsym               EPPR1   B_VECTNIL+15
         0 000227   000000 701000 xent               TSX1    VDG$WARNMSG
         0 000230   000000 011000                    NOP     0

     2823     3273    2           CALL VDG$EREPORT_ERROR;

   3273  0 000231   000002 631400 xsym               EPPR1   B_VECTNIL+2
         0 000232   000000 701000 xent               TSX1    VDG$EREPORT_ERROR
         0 000233   000000 011000                    NOP     0

     2824     3274    2         END GIVE_NONE_ERROR;

     2825     3275
     2826     3276    1       IF VD_$$MON_PRES.V# > 0

PL6.E3A0      #006=VDP$WWRITE File=VDP$WINDOW_I_O.:VDA5TSI                       FRI 07/04/97 11:41 Page:411
   3276  0 000234   000003 235000 xsym               LDA     VD_$$MON_PRES+3
         0 000235   000242 604400 0                  TMOZ    s:3280

     2827     3277    1       THEN
     2828     3278    1         CALL VDG$MPRES_RETURN ( SELECTION );

   3278  0 000236   200003 630500                    EPPR0   @SELECTION,,AUTO
         0 000237   000017 631400 xsym               EPPR1   B_VECTNIL+15
         0 000240   000000 701000 xent               TSX1    VDG$MPRES_RETURN
         0 000241   000000 011000                    NOP     0

     2829     3279
     2830     3280    1       RETURN;

   3280  0 000242   000000 702200 xent               TSX2  ! X66_ARET
     2831     3281
     2832     3282    1   END VDP$WWRITE;

PL6.E3A0      #006=VDP$WWRITE File=VDP$WINDOW_I_O.:VDA5TSI                       FRI 07/04/97 11:41 Page:412
--  Include file information  --

   VD_PERR_C.:VDA5TOU  is referenced.
   VD_MACROS_M.:VDA5TOU  is referenced.
   B$JIT_C.:E04TOU  was found in the system file and is never referenced.
   CP_6_C.:E04TOU  was found in the system file and is never referenced.
      No diagnostics issued in procedure VDP$WWRITE.
PL6.E3A0      #006=VDP$WWRITE File=VDP$WINDOW_I_O.:VDA5TSI                       FRI 07/04/97 11:41 Page:413

 **** Variables and constants ****

  ****  Auto variables  ****

  ****  Scalars and arrays  ****
OctLoc.c.b A Datatyp(siz) R M Lvl/name                 OctLoc.c.b A Datatyp(siz) R M Lvl/name

     3-0-0/w PTR         r     1 @SELECTION                23-0-0/w PTR         r     1 EVAL_ENDD_KEY$
    24-0-0/w PTR         r     1 LOCATION$                 31-0-0/w SBIN        r     1 RCCL
    25-0-0/w SBIN        r     1 RECORD_COUNT              26-0-0/w SBIN        r     1 RELATIVE
    15-0-0/w STRC(216)   r     1 RGET_NODE_DESC             4-0-0/w STRC(324)   r     1 RREAD_LOCATION
    *0-0-0/w STRC(144)   r     1 SELECTION                 30-0-0/w PTR         r     1 STREAM_CURRENT_KEY$

  ****  SYMREF variables  ****

  ****  Scalars and arrays  ****
OctLoc.c.b A Datatyp(siz) R M Lvl/name                 OctLoc.c.b A Datatyp(siz) R M Lvl/name

     0-0-0/w STRC(144)   r     1 VD_$$MON_PRES              0-0-0/w STRC(144)   r     1 VD_$SCREEN

  ****  BASED and DCB variables  ****

  ****  Scalars and arrays  ****
OctLoc.c.b A Datatyp(siz) R M Lvl/name                 OctLoc.c.b A Datatyp(siz) R M Lvl/name

     0-0-0/w STRC(936)   r     1 SEL$BLOCK_DESC             0-0-0/w STRC(2124)  r     1 SEL$EVAL
     0-0-0/w STRC(864)   r     1 SEL$STREAM                 0-0-0/w STRC(324)   r     1 VD$LOCATION
     0-0-0/w ASTR(9)     r     1 VD$TEXTC                   0-0-0/w ASTR(81)    r     1 VD$TEXTC_REMOTE


   Procedure VDP$WWRITE requires 163 words for executable code.
   Procedure VDP$WWRITE requires 30 words of local(AUTO) storage.

    No errors detected in file VDP$WINDOW_I_O.:VDA5TSI    .
PL6.E3A0      #006=VDP$WWRITE File=VDP$WINDOW_I_O.:VDA5TSI                       FRI 07/04/97 11:41 Page:414
          *** CROSS REFERENCE LISTING ***
**     DENOTES     IDENTIFIER DEFINITION
<<                 IDENTIFIER'S VALUE SET
>>                 IDENTIFIER'S VALUE USED
<>                 IDENTIFIER SET AND/OR USED
--                 IDENTIFIER REFERENCED
PL6.E3A0      #006=VDP$WWRITE File=VDP$WINDOW_I_O.:VDA5TSI                       FRI 07/04/97 11:41 Page:415
          MINI XREF LISTING

DISPLAY_SELECTED_BLOCK
      3219**LABEL    3234--EXIT     3256--EXIT
EVAL_ENDD_KEY$
      3168**DCL      3201<<ASSIGN   3212<<ASSIGN   3212<<ASSIGN   3248>>IF       3249>>IF       3249>>IF
      3249>>IF       3249>>IF
LOCATION$
      3169**DCL      3196<<ASSIGN   3221>>CALL     3263<<ASSIGN
RCCL
      3174**DCL      3216<>CALL     3249>>IF
RECORD_COUNT
      3170**DCL      3198<<ASSIGN   3258<<ASSIGN   3258>>ASSIGN   3268>>IF
RELATIVE
      3171**DCL      3197<<ASSIGN   3221<>CALL     3264<<ASSIGN
RGET_NODE_DESC
      3133**DCL      3227<>CALL     3260<>CALL
RGET_NODE_DESC.KEY
      3147**DCL      3232>>IF
RREAD_LOCATION
      3104**DCL      3195<<ASSIGN   3196--ASSIGN
SEL$BLOCK_DESC.OPTIONS.LEVEL#
      2613**DCL      3212>>IF       3212>>ASSIGN   3212>>ASSIGN   3245>>IF       3245>>ASSIGN   3245>>ASSIGN
SEL$BLOCK_DESC.RANGE
      2542**DCL      3221<>CALL     3227<>CALL
SEL$EVAL.RANGE.ENDD
      2785**DCL      3216<>CALL
SEL$EVAL.RANGE.ENDD.EOF
      2801**DCL      3200>>IF
SEL$EVAL.RANGE.ENDD.KEY.REP#
      2799**DCL      3212>>IF
SEL$EVAL.RANGE.ENDD.KEY.V$
      2799**DCL      3212>>ASSIGN   3212--ASSIGN
SEL$EVAL.RANGE.ENDD.POSITION#
PL6.E3A0      #006=VDP$WWRITE File=VDP$WINDOW_I_O.:VDA5TSI                       FRI 07/04/97 11:41 Page:416
      2801**DCL      3249>>IF
SEL$EVAL.RANGE.START
      2757**DCL      3195>>ASSIGN   3216<>CALL
SEL$STREAM
      2912**DCL      3221<>CALL     3227<>CALL
SEL$STREAM.CURRENT.KEY.REP#
      2977**DCL      3245>>IF
SEL$STREAM.CURRENT.KEY.V$
      2977**DCL      3245>>ASSIGN   3245--ASSIGN
SELECTION
      2477**DCL         9--PROC     3193<>CALL     3278<>CALL
SELECTION.EDIT_BLOCK$
      2481**DCL      2492--IMP-PTR  3212>>IF       3212>>ASSIGN   3212>>ASSIGN   3221>>CALL     3227>>CALL
      3245>>IF       3245>>ASSIGN   3245>>ASSIGN
SELECTION.EVAL$
      2481**DCL      2639--IMP-PTR  3195>>ASSIGN   3200>>IF       3212>>IF       3212>>ASSIGN   3212>>ASSIGN
      3216>>CALL     3216>>CALL     3249>>IF
SELECTION.STREAM$
      2481**DCL      2912--IMP-PTR  3221>>CALL     3227>>CALL     3245>>IF       3245>>ASSIGN   3245>>ASSIGN
STREAM_CURRENT_KEY$
      3173**DCL      3245<<ASSIGN   3245<<ASSIGN   3249>>IF       3249>>IF       3249>>IF       3249>>IF
VD$LOCATION
      2884**DCL      3221<>CALL
VD$TEXTC.BYTES
      3028**DCL      3249>>IF       3249>>IF       3249>>IF       3249>>IF
VD$TEXTC.LENGTH#
      3026**DCL      3028--IMP-SIZ  3249>>IF       3249>>IF       3249>>IF       3249>>IF
VD$TEXTC_REMOTE.LENGTH#
      3087**DCL      3089--IMP-SIZ  3212--ASSIGN   3245--ASSIGN
VDE$RGET
      3176**DCL-ENT  3227--CALL
VDE$RREAD
      3177**DCL-ENT  3221--CALL
VDG$COMPARE_LOCS
      3183**DCL-ENT  3216--CALL
VDG$EREPORT_ERROR
PL6.E3A0      #006=VDP$WWRITE File=VDP$WINDOW_I_O.:VDA5TSI                       FRI 07/04/97 11:41 Page:417
      3179**DCL-ENT  3273--CALL
VDG$MPRES_RETURN
      3180**DCL-ENT  3278--CALL
VDG$MPRES_WWRITE
      3181**DCL-ENT  3193--CALL
VDG$WARNMSG
      3182**DCL-ENT  3272--CALL
VDP$WFORMAT_RECORD
      3185**DCL-ENT  3260--CALL
VD_$$MON_PRES.V#
      2419**DCL      3191>>IF       3276>>IF
VD_$SCREEN.V#
      2465**DCL      3187>>IF
