VERSION A05

PL6.E3A0      #001=VDW$LOAD File=VDW$WORKSPACE.:VDA5TSI                          FRI 07/04/97 11:41 Page:1
        1        1        /*M* VDW$WORKSPACE - Utility for the internal workspace */
        2        2        /*T***********************************************************/
        3        3        /*T*                                                         */
        4        4        /*T* Copyright (c) Bull HN Information Systems Inc., 1997    */
        5        5        /*T*                                                         */
        6        6        /*T***********************************************************/
        7        7
        8        8        /*X* MCR=NO, DMC=YES */
        9        9        /*T*/
       10       10
       11       11
       12       12        /*P* NAME: VDW$WORKSPACE
       13       13            PURPOSE:
       14       14                Utility to LOAD the internal workspace.
       15       15            DESCRIPTION:
       16       16                This module contains two external routines:
       17       17
       18       18                VDW$LOAD
       19       19                Given a workspace file, read it and rebuild its
       20       20                structures in the internal VD$WORKSPACE.  If there are
       21       21                already structures in the VD$WORKSPACE, selectively
       22       22                merge those from the file into the VD$WORKSPACE.
       23       23                Special handling is accorded to:
       24       24                Windows
       25       25                    Under certain conditions the entire internal Windows
       26       26                    file is freed (deleted) before we start loading; under
       27       27                    other conditions, all Windows-file nodes in the
       28       28                    workspace file are ignored (not loaded).
       29       29                Predefined Names-file nodes
       30       30                    Certain predefined names should not appear in
       31       31                    the workspace file:  names whose values are stored
       32       32                    elsewhere in the Windows, Structures, or History
       33       33                    files (e.g., THAT, HERE, CURRENT, $RANGE, $FP, $ENCLOSING, ...).
       34       34                    If these do appear in the workspace file, they are ignored.
       35       35                Predefined Structures-file nodes
       36       36                    Certain predefined Structures should not appear in
       37       37                    the workspace file.  If these do appear in the
PL6.E3A0      #001=VDW$LOAD File=VDW$WORKSPACE.:VDA5TSI                          FRI 07/04/97 11:41 Page:2
       38       38                    workspace file, they are ignored.
       39       39                As file nodes are read from the workspace file, they
       40       40                are written to the internal files via the Accessor, since
       41       41                there may be a window open to these files.  The Accessor
       42       42                will take care of updating global values, legal-value
       43       43                checking, protection of certain nodes of internal files
       44       44                against change by the user (in this case, loading entries
       45       45                from the workspace file is considered a change by the user,
       46       46                and is subject to VD$FILE_NODE.ACCESS protection), opening
       47       47                windows and their streams, etc.
       48       48
       49       49                VDW$RESTORE_NODE
       50       50                Given a single node from a workspace or History file,
       51       51                will restore it in it's original location, whether that is
       52       52                in an internal or external file, predefined or user-defined.
       53       53                Will also invoke any side-effects appropriate to the
       54       54                restoration of the node.
       55       55
       56       56                VDW$SAVE
       57       57                Given a stream open to a predefined file and an open SAVE-file, will
       58       58                copy all file-nodes from the predefined file to the SAVE-file in
       59       59                encoded form.
       60       60
       61       61                VDW$STOW_NODE
       62       62                Given a single node in a predefined file, will encode it and write
       63       63                it to a workspace file.
       64       64        */
       65       65
       66       66        /*D* NAME: VDW$LOAD
       67       67            PARAMETERS:
       68       68                LOAD_FLAGS - An ALIGNED array of BIT(1) UNAL flags.  Entries are
       69       69                    accessed using %PDFF_ values as subscripts.  Each bit flag
       70       70                    represents an internal file which may be loaded from the workspace
       71       71                    file; if a bit-flag in LOAD_FLAGS is off and the workspace file
       72       72                    contains a node for that file, we'll ignore the record in the
       73       73                    workspace file.
       74       74            INPUT:
PL6.E3A0      #001=VDW$LOAD File=VDW$WORKSPACE.:VDA5TSI                          FRI 07/04/97 11:41 Page:3
       75       75                VD_6E.CMD_STREAM$->VD$CMD_STREAM (the top entry on the
       76       76                    command-stream stack) must specify a workspace file which has
       77       77                    just been opened:  the next read from the file should
       78       78                    read the first record of the file.
       79       79                VD_6E.EQUALS$, .LOCATIONS$, .SYNONYMS$, .KEYINS$,
       80       80                    and .WINDOWS$ must point to open VD$STREAMs
       81       81                    for the Names and Windows internal files.  These files
       82       82                    must initially be empty.
       83       83                VD_6E.STRUCTURES$ must point to a VD$STREAM which is open
       84       84                    to at least a minimal Structures internal file.
       85       85                VD_6E.STRUCTURE_EXTERNAL$, _NAMES$, _STRUCTURES$, and _WINDOWS$
       86       86                    must point to the level-0 VD$FILE_NODEs for the appropriate
       87       87                    predefined entries in the Structures file.
       88       88                VD_$SCREEN is a VD$NUMBER for the $SCREEN predefined name.  It's .V#
       89       89                    must contain the number of lines of the terminal screen which
       90       90                    the user wants 6Edit to use.  (This is only used if we load
       91       91                    windows from the workspace file.)
       92       92            OUTPUT:
       93       93                VD_6E.WS will be loaded from the workspace file.  If any
       94       94                    editing windows were loaded, they have been declared and
       95       95                    their files opened.
       96       96            DESCRIPTION:
       97       97                Read records from the workspace file:  each one contains either:
       98       98                A header record (only the first record):
       99       99                    Save the header record's Spec component in VD_LAST_LOADED_FILE_SPEC.
      100      100                    In the VD$ENCODED_FILE_SPEC is a set of bit-flags (using %PDFF_
      101      101                        offsets) indicating the kinds of file-nodes this workspace
      102      102                        file contains.  If the file contains Windows nodes, and
      103      103                        LOAD_FLAGS says we're allowed to load Windows nodes, then
      104      104                        delete the current Windows file contents:  this will close
      105      105                        down all the current windows.
      106      106                A file node from a predefined file:
      107      107                    Restore the node to it's original predefined file.  This should
      108      108                        have all the side-effects necessary to restore the original
      109      109                        condition of the editor:  windows closed or re-opened, etc.
      110      110                Special handling for VD$WINDOW_SPECs:  Because of the way we tell the
      111      111                    FEP to create windows, we have to do some special-casing for
PL6.E3A0      #001=VDW$LOAD File=VDW$WORKSPACE.:VDA5TSI                          FRI 07/04/97 11:41 Page:4
      112      112                    the height of windows created from a workspace file.  As saved
      113      113                    in the workspace file, VD$WINDOW_SPECs contain the exact number
      114      114                    of lines the window is intended to occupy.  But when creating
      115      115                    the window (ie, when calling VDA$LWRITE to write the
      116      116                    VD$WINDOW_SPEC to the Accessor), the VD$WINDOW_SPEC must include
      117      117                    the height not only of itself, but of all windows which follow
      118      118                    it (are below it on the screen).  Therefore, we always create
      119      119                    each window using the entire remaining portion of the screen;
      120      120                    when the next window is created, it will take into account the
      121      121                    intended height of the previous window in order to determine
      122      122                    the "entire remaining portion" it's s'posed to use.
      123      123        */
      124      124
      125      125        VDW$LOAD: PROC (LOAD_FLAGS) ALTRET;
      126      126
      127      127        %INCLUDE VD_MACROS_M;
      128     2342        %INCLUDE VD_PERR_C;
      129     2490        %INCLUDE CP_6;
      130     2571        %INCLUDE CP_6_SUBS;
      131     3111        %INCLUDE B$JIT;
      132     3401
      133     3402
      134     3403    1   DCL 1 LOAD_FLAGS ALIGNED PARAM,
      135     3404              %VD$PDFF (NAME=F, STCLASS=PARAM, LEV=2, LAST=YES);
      136     3418
      137     3419
      138     3420        /*
      139     3421        *   POINTERIZE:  Code to turn a record-offset into a pointer.
      140     3422        *   PTR is the name of the pointer field in the object in ENCODED$NODE
      141     3423        *       which is to be converted from an offset into ENCODED_NODE$
      142     3424        *       into a real pointer.
      143     3425        */
      144     3426
      145     3427        %MACRO POINTERIZE (PTR="Must be supplied", BASE$=ENCODED_NODE$);
      146     3428                IF ADDR(PTR)->BASED$SBIN = 0 THEN
      147     3429                   PTR = ADDR(NIL);
      148     3430                ELSE
PL6.E3A0      #001=VDW$LOAD File=VDW$WORKSPACE.:VDA5TSI                          FRI 07/04/97 11:41 Page:5
      149     3431                   PTR = PINCRW(BASE$, ADDR(PTR)->BASED$SBIN);
      150     3432        %MEND;
      151     3433
      152     3434
      153     3435
      154     3436    1   DCL VDI$PREAD_FILE_READ     ENTRY (2) ALTRET;
      155     3437    1   DCL VDA$LDELETE             ENTRY (2) ALTRET;
      156     3438    1   DCL VDA$FCLOSE              ENTRY (1) ALTRET;
      157     3439    1   DCL VDG$ERRMSG              ENTRY (4) ALTRET;
      158     3440    1   DCL VDG$MONERR              ENTRY ALTRET;
      159     3441    1   DCL VDG$WARNMSG             ENTRY (4) ALTRET;
      160     3442    1   DCL VDG$OALLOC              ENTRY (3) ALTRET;
      161     3443    1   DCL VDG$OCOPY               ENTRY (2) ALTRET;
      162     3444    1   DCL VDG$OCOPY_RANGE         ENTRY (2) ALTRET;
      163     3445    1   DCL VDG$OFREE               ENTRY (1) ALTRET;
      164     3446    1   DCL VDG$OCLEAR_RANGE        ENTRY (1) ALTRET;
      165     3447    1   DCL VDW$RESTORE_NODE        ENTRY (3) ALTRET;
      166     3448    1   DCL VDG$EREPORT_ERROR   ENTRY (1);
      167     3449    1   DCL VDG$ESCREECH        ENTRY (3);
      168     3450
      169     3451
      170     3452        %VD_6E (NAME=VD_6E, STCLASS=SYMREF);
      171     3488        %VD$KEY (NAME=VD_KEY_NUMERIC_BOF, STCLASS=SYMREF);
      172     3502        %VD_OBJECTS (NAME=VD_OBJECTS, STCLASS=SYMREF);
      173     3542        %VD$NUMBER (NAME=VD_$SCREEN, STCLASS=SYMREF);
      174     3587        %VD$ENCODED_FILE_SPEC (NAME=VD_LAST_LOADED_FILE_SPEC, STCLASS=SYMREF);
      175     3616    1   DCL B$JIT$ PTR SYMREF;
      176     3617    1   DCL M$EI DCB;
      177     3618
      178     3619
      179     3620    1   DCL STREAM$ PTR;
      180     3621    1   DCL EOF BIT(1) ALIGNED;
      181     3622    1   DCL ENCODED_NODE$ PTR;
      182     3623    1   DCL SUM SBIN;
      183     3624    1   DCL BASED_ARRAY$ PTR;
      184     3625    1   DCL I SBIN;
      185     3626    1   DCL PREV_WINDOW_INTENDED_HEIGHT SBIN;
PL6.E3A0      #001=VDW$LOAD File=VDW$WORKSPACE.:VDA5TSI                          FRI 07/04/97 11:41 Page:6
      186     3627    1   DCL THIS_WINDOW_INTENDED_HEIGHT SBIN;
      187     3628    1   DCL WINDOW_SPEC$ PTR;
      188     3629
      189     3630
      190     3631        %VD$CMD_STREAM (NAME=CMD$STREAM, STCLASS="BASED(VD_6E.CMD_STREAM$)");
      191     3670        %VD$STREAM (NAME=STREAM, STCLASS="BASED(STREAM$)");
      192     3776        %VD$ENCODED_NODE (NAME=ENCODED$NODE, STCLASS="BASED(ENCODED_NODE$)");
      193     3897    1   DCL BASED$ARRAY (0:0) SBIN BASED(BASED_ARRAY$);
      194     3898    1   DCL BASED$SBIN SBIN BASED;
      195     3899        %VD$STREAM (NAME=WINDOWS$STREAM, STCLASS="BASED(VD_6E.WINDOWS$)");
      196     4005        %VD$WINDOW_SPEC (NAME=WINDOW$SPEC, STCLASS="BASED(WINDOW_SPEC$)");
      197     4071        %VD$WINDOW_SPEC;
      198     4137        %VD$PORT;
      199     4235        %VD$BUFFER;
      200     4293        %VD$ERR (NAME=VD$ERR, STCLASS="BASED(VD_6E.ERR_TAIL$)");
      201     4346
      202     4347
      203     4348
      204     4349    1           STREAM$ = ADDR(NIL);
      205     4350    1           PREV_WINDOW_INTENDED_HEIGHT = 0;
      206     4351
      207     4352                /*
      208     4353                *   Build a temporary stream to be used by VDW$RESTORE_NODE
      209     4354                *       for writing external-file nodes.
      210     4355                */
      211     4356    1           CALL VDG$OALLOC (%CLS_STREAM, STREAM$)
      212     4357    1             ALTRET (OALLOC_FAILED);
      213     4358
      214     4359                /*
      215     4360                *   Read, decode, and restore each record from the workspace file.
      216     4361                */
      217     4362
      218     4363    1           CMD$STREAM.REC_NUM# = 0;
      219     4364    1   EACH_WORKSPACE_RECORD:
      220     4365    2           DO UNTIL EOF;
      221     4366    2              CALL VDI$PREAD_FILE_READ (%MXNB_COMMAND, EOF)
      222     4367    2                ALTRET (PREAD_FILE_READ_FAILED);
PL6.E3A0      #001=VDW$LOAD File=VDW$WORKSPACE.:VDA5TSI                          FRI 07/04/97 11:41 Page:7
      223     4368    2              IF EOF THEN
      224     4369    2                 EXIT EACH_WORKSPACE_RECORD;
      225     4370    2              ENCODED_NODE$ = CMD$STREAM.RECORD$;
      226     4371    2              IF ENCODED$NODE.RECORD_ID ~= %CHR_ENCODED_RECID
      227     4372    2                OR ENCODED$NODE.RECORD_NUM# ~= CMD$STREAM.REC_NUM# THEN
      228     4373    2                 GOTO WS_FILE_INVALID_FAILURE;
      229     4374
      230     4375    2              SUM = 0;
      231     4376    2              BASED_ARRAY$ = PINCRW(ADDR(ENCODED$NODE.CHECKSUM#), 1);
      232     4377    2              DO I =
      233     4378    2                ((ENCODED$NODE.LENGTH# - POFFC(BASED_ARRAY$, ENCODED_NODE$)) /
      234     4379    3                %NB_PER_WORD) DOWNTO 0;
      235     4380    3                 SUM = SUM + BASED$ARRAY (I);
      236     4381    3                 END;
      237     4382    2              IF SUM ~= ENCODED$NODE.CHECKSUM# THEN
      238     4383    2                 GOTO WS_FILE_INVALID_FAILURE;
      239     4384
      240     4385    3              IF ENCODED$NODE.DESC.SPEC.TYPE# = %SPT_ENCODED_FILE_SPEC THEN DO;
      241     4386                      /* This looks like a header record */
      242     4387    3                 IF ENCODED$NODE.RECORD_NUM# ~= 0
      243     4388    3                   OR ENCODED$NODE.DESC.FILE_KEY ~= %CLEAR
      244     4389    3                   OR ENCODED$NODE.DESC.LOCATION ~= %CLEAR
      245     4390    3                   OR ADDR(ENCODED$NODE.DESC.DATA$)->BASED$SBIN ~= 0 THEN
      246     4391    3                    GOTO WS_FILE_INVALID_FAILURE;
      247     4392    3                 CALL HEADER_RECORD (ENCODED$NODE.DESC)
      248     4393    3                   ALTRET (HEADER_RECORD_FAILED);
      249     4394    3                 END;
      250     4395    3              ELSE DO;
      251     4396                      /* This is a file node to restore to its original location */
      252     4397    3                 CALL POINTERIZE_RECORD
      253     4398    3                   ALTRET (POINTERIZE_RECORD_FAILED);
      254     4399
      255     4400    3                 IF LOAD_FLAGS.F (%PDFF_WINDOWS)
      256     4401    3                   AND ENCODED$NODE.DESC.SPEC.TYPE# = %SPT_WINDOW_SPEC THEN
      257     4402    4   ADJUST_WINDOW_HEIGHT: DO;
      258     4403    4                    WINDOW_SPEC$ = ENCODED$NODE.DESC.SPEC.V$;
      259     4404    4                    THIS_WINDOW_INTENDED_HEIGHT = WINDOW$SPEC.COORDS.HEIGHT#;
PL6.E3A0      #001=VDW$LOAD File=VDW$WORKSPACE.:VDA5TSI                          FRI 07/04/97 11:41 Page:8
      260     4405    4                    IF NOT WINDOWS$STREAM.PORT$->VD$PORT.CURRENT.EOF THEN
      261     4406    4                       WINDOW$SPEC.COORDS.HEIGHT# = MAXIMUM (0,
      262     4407    4                         WINDOWS$STREAM.PORT$ ->
      263     4408    4                         VD$PORT.LEVEL.SPEC.V$ (%LVL_LOWER) ->
      264     4409    4                         VD$WINDOW_SPEC.COORDS.HEIGHT# -
      265     4410    4                         PREV_WINDOW_INTENDED_HEIGHT);
      266     4411    4                    ELSE  /* First window gets entire screen */
      267     4412    4                       WINDOW$SPEC.COORDS.HEIGHT# = VD_$SCREEN.V#;
      268     4413    4                    PREV_WINDOW_INTENDED_HEIGHT = THIS_WINDOW_INTENDED_HEIGHT;
      269     4414    4                    END ADJUST_WINDOW_HEIGHT;
      270     4415
      271     4416    3                 CALL VDW$RESTORE_NODE (STREAM, ENCODED$NODE.DESC, LOAD_FLAGS)
      272     4417    3                   ALTRET (WRESTORE_NODE_FAILED);
      273     4418    3                 END;
      274     4419
      275     4420    2              CMD$STREAM.REC_NUM# = CMD$STREAM.REC_NUM# + 1;
      276     4421    2              END EACH_WORKSPACE_RECORD;
      277     4422
      278     4423    2           IF STREAM$ ~= ADDR(NIL) THEN DO;
      279     4424    2              CALL VDA$FCLOSE (STREAM)
      280     4425    2                ALTRET (FCLOSE_FAILED);
      281     4426    2              CALL VDG$OFREE (STREAM)
      282     4427    2                ALTRET (OFREE_FAILED);
      283     4428    2              END;
      284     4429
      285     4430    1           RETURN;
      286     4431
      287     4432
      288     4433
      289     4434    1   WS_FILE_INVALID_FAILURE:
      290     4435    1           CALL VDG$ERRMSG (%E$BAD_WS_FILE,
      291     4436    1             , BINBIT (CMD$STREAM.REC_NUM#,36)) ALTRET (CLEAN_UP);
      292     4437    1           VD$ERR.DCB# = DCBNUM(M$EI);
      293     4438    1           GOTO CLEAN_UP;
      294     4439
      295     4440
      296     4441    1   POINTERIZE_RECORD_FAILED: ;
PL6.E3A0      #001=VDW$LOAD File=VDW$WORKSPACE.:VDA5TSI                          FRI 07/04/97 11:41 Page:9
      297     4442    1           CALL VDG$EREPORT_ERROR;
      298     4443    1   LDELETE_FAILED: ;
      299     4444    1   HEADER_RECORD_FAILED: ;
      300     4445    1   PREAD_FILE_READ_FAILED: ;
      301     4446    1   WRESTORE_NODE_FAILED: ;
      302     4447    1   CLEAN_UP:
      303     4448    2           IF STREAM$ ~= ADDR(NIL) THEN DO;
      304     4449    2              CALL VDA$FCLOSE (STREAM)
      305     4450    2                ALTRET (FCLOSE_FAILED);
      306     4451    2              CALL VDG$OFREE (STREAM)
      307     4452    2                ALTRET (OFREE_FAILED);
      308     4453    2              END;
      309     4454    1           ALTRETURN;
      310     4455
      311     4456
      312     4457    1   OALLOC_FAILED: ;
      313     4458    1   OFREE_FAILED: ;
      314     4459    1   FCLOSE_FAILED: ;
      315     4460    1           ALTRETURN;
      316     4461
      317     4462
      318     4463        %BOX (TITLE=POINTERIZE_RECORD, PAGE=YES);
              4471    1
              4475    1   /***************************************************************************
              4477    1    *                                                                         *
              4481    1            *                             POINTERIZE_RECORD                           *
              4483    1            *                                                                         *
              4485    1           ***************************************************************************/

      319     4489
      320     4490        /*I* NAME: POINTERIZE_RECORD
      321     4491            PARAMETERS:
      322     4492                None.
      323     4493            INPUT:
      324     4494                ENCODED$NODE is the VD$ENCODED_NODE for the workspace-file record.
      325     4495            OUTPUT:
      326     4496                ENCODED$NODE's record-offsets will be converted to real pointers.
PL6.E3A0      #001=VDW$LOAD File=VDW$WORKSPACE.:VDA5TSI                          FRI 07/04/97 11:41 Page:10
      327     4497                VD_ERR$ - If an error in the record is found, VD_ERR$ will
      328     4498                    point to the allocated VD$ERR for the error.  It's
      329     4499                    first substitution field will contain the %CLS_ code for
      330     4500                    the object in error, as a CLS_NUMBER.
      331     4501            DESCRIPTION:
      332     4502                Loop thru the objects in ENCODED$NODE; in these objects, all
      333     4503                pointers have been stored in the file as word-offsets into
      334     4504                the record of the object pointed-to.  Find these word
      335     4505                offsets, and replace them with pointers to the objects in
      336     4506                the workspace record.
      337     4507        */
      338     4508
      339     4509    1   POINTERIZE_RECORD: PROC ALTRET;
      340     4510
      341     4511
      342     4512    2   DCL OBJECT_HEADER$ PTR;
      343     4513    2   DCL OBJECT_LIMIT$ PTR;
      344     4514    2   DCL I SBIN;
      345     4515
      346     4516
      347     4517        %VD$OBJECT_HEADER (STCLASS="BASED(OBJECT_HEADER$)");
      348     4539        %VD$WINDOW_SPEC (STCLASS="BASED(OBJECT_HEADER$)");
      349     4605        %VD$WINDOW_BLOCK (STCLASS="BASED(OBJECT_HEADER$)");
      350     4642        %VD$RECORD_SET (STCLASS="BASED(OBJECT_HEADER$)");
      351     4720        %VD$STRUCTURE_SPEC (STCLASS="BASED(OBJECT_HEADER$)");
      352     4757        %VD$IT_ADJUST (STCLASS="BASED(OBJECT_HEADER$)");
      353     4794        %VD$IT_BLOCK_EXPR (STCLASS="BASED(OBJECT_HEADER$)");
      354     4944        %VD$IT_COMMAND (STCLASS="BASED(OBJECT_HEADER$)");
      355     4982        %VD$IT_OPERAND (STCLASS="BASED(OBJECT_HEADER$)");
      356     5048        %VD$IT_OPERATOR (STCLASS="BASED(OBJECT_HEADER$)");
      357     5085        %VD$IT_SELECT (STCLASS="BASED(OBJECT_HEADER$)");
      358     5122        %VD$BLOCK_DESC (STCLASS="BASED(OBJECT_HEADER$)");
      359     5269        %VD$BUFFER (STCLASS="BASED(OBJECT_HEADER$)");
      360     5327        %VD$BUFFER_HEADER (STCLASS="BASED(OBJECT_HEADER$)");
      361     5363        %VD$STRING_HEADER (STCLASS="BASED(OBJECT_HEADER$)");
      362     5399        %VD$PATTERN (STCLASS="BASED(OBJECT_HEADER$)");
      363     5450        %VD$EVAL (STCLASS="BASED(OBJECT_HEADER$)");
PL6.E3A0      #001=VDW$LOAD File=VDW$WORKSPACE.:VDA5TSI                          FRI 07/04/97 11:41 Page:11
      364     5695        %VD$FIT (STCLASS="BASED(OBJECT_HEADER$)");
      365     5731        %VD$POINTER (STCLASS="BASED(OBJECT_HEADER$)");
      366     5776
      367     5777
      368     5778
      369     5779    3           IF ENCODED$NODE.DESC.FILE_KEY.REP# = %REP_REMOTE THEN DO;
      370     5780                   %POINTERIZE (PTR=ENCODED$NODE.DESC.FILE_KEY.V$);
      371     5786    3              END;
      372     5787    2           CALL POINTERIZE_LOCATION (ENCODED$NODE.DESC.LOCATION);
      373     5788    3           IF ENCODED$NODE.DESC.SPEC.REP# = %REP_REMOTE THEN DO;
      374     5789                   %POINTERIZE (PTR=ENCODED$NODE.DESC.SPEC.V$);
      375     5795    3              END;
      376     5796                %POINTERIZE (PTR=ENCODED$NODE.DESC.DATA$);
      377     5802
      378     5803
      379     5804    2           OBJECT_HEADER$ = PINCRW(ENCODED_NODE$, SIZEW(ENCODED$NODE));
      380     5805    2           OBJECT_LIMIT$ = PINCRC(ADDR(ENCODED_NODE$->VD$BUFFER.BYTES),
      381     5806    2             ENCODED$NODE.LENGTH#);
      382     5807
      383     5808    2   EACH_OBJECT:
      384     5809    3           DO WHILE (POFFW(OBJECT_LIMIT$, OBJECT_HEADER$) > 0);
      385     5810
      386     5811    3   OBJECT_TYPE_CASES:
      387     5812    4              DO CASE (VD$OBJECT_HEADER.CLASS#);
      388     5813
      389     5814    4               CASE (%CLS_TEXTC_REMOTE, %CLS_FILE_KEY, %CLS_NAME_SPEC,
      390     5815    4                %CLS_STRUCTURE_LEVEL);
      391     5816                      %POINTERIZE (PTR=VD$STRING_HEADER.FLINK$);
      392     5822
      393     5823    4               CASE (%CLS_BUFFER, %CLS_NUMBER, %CLS_BOOLEAN, %CLS_FILE_STCLASS,
      394     5824    4                   %CLS_ORG, %CLS_KEY_TYPE, %CLS_EXIST, %CLS_NAME_DATA_TYPE,
      395     5825    4                   %CLS_COMPONENT, %CLS_POINT, %CLS_DIRECTION, %CLS_PROTECT);
      396     5826                      %POINTERIZE (PTR=VD$BUFFER_HEADER.FLINK$);
      397     5832
      398     5833    4               CASE (%CLS_WINDOW_SPEC);
      399     5834                      %POINTERIZE (PTR=VD$WINDOW_SPEC.FLINK$);
      400     5840    4                 VD$WINDOW_SPEC.OPERAND.STREAM$ = ADDR(NIL);
PL6.E3A0      #001=VDW$LOAD File=VDW$WORKSPACE.:VDA5TSI                          FRI 07/04/97 11:41 Page:12
      401     5841                      %POINTERIZE (PTR=VD$WINDOW_SPEC.OPERAND.INTREE$);
      402     5847                      %POINTERIZE (PTR=VD$WINDOW_SPEC.OPERAND.EDIT_BLOCK$);
      403     5853                      %POINTERIZE (PTR=VD$WINDOW_SPEC.OPERAND.EVAL$);
      404     5859                      %POINTERIZE (PTR=VD$WINDOW_SPEC.RECORD_SET$);
      405     5865                      %POINTERIZE (PTR=VD$WINDOW_SPEC.KEY_DEFINITION_BUFFER$);
      406     5871                      %POINTERIZE (PTR=VD$WINDOW_SPEC.TABS$);
      407     5877    5                 IF VD$WINDOW_SPEC.EOFMARK$~=ADDR(NIL) THEN DO;
      408     5878                         %POINTERIZE (PTR=VD$WINDOW_SPEC.EOFMARK$);
      409     5884    5                    END;
      410     5885
      411     5886    4               CASE (%CLS_WINDOW_BLOCK);
      412     5887                      %POINTERIZE (PTR=VD$WINDOW_BLOCK.FLINK$);
      413     5893                      %POINTERIZE (PTR=VD$WINDOW_BLOCK.EDIT_BLOCK$);
      414     5899                      %POINTERIZE (PTR=VD$WINDOW_BLOCK.EVAL$);
      415     5905
      416     5906    4               CASE (%CLS_RECORD_SET);
      417     5907    5                 DO I = 0 TO (VD$RECORD_SET.N_ENTRIES# - 1);
      418     5908    6                    IF VD$RECORD_SET.DESC.KEY.REP# (I) = %REP_REMOTE THEN DO;
      419     5909                            %POINTERIZE (PTR="VD$RECORD_SET.DESC.KEY.V$ (I)");
      420     5915    6                       END;
      421     5916    5                    END;
      422     5917
      423     5918    4               CASE (%CLS_STRUCTURE_SPEC);
      424     5919                      %POINTERIZE (PTR=VD$STRUCTURE_SPEC.FLINK$);
      425     5925                      %POINTERIZE (PTR=VD$STRUCTURE_SPEC.ACCESSOR$);
      426     5931                      %POINTERIZE (PTR=VD$STRUCTURE_SPEC.FIT$);
      427     5937
      428     5938    4               CASE (%CLS_IT_ADJUST);
      429     5939                      %POINTERIZE (PTR=VD$IT_ADJUST.PARENT$);
      430     5945                      %POINTERIZE (PTR=VD$IT_ADJUST.FLINK$);
      431     5951                      %POINTERIZE (PTR=VD$IT_ADJUST.MOVEMENTS$);
      432     5957                      %POINTERIZE (PTR=VD$IT_ADJUST.MOVEMENTS_TAIL$);
      433     5963
      434     5964    4               CASE (%CLS_IT_BLOCK_EXPR);
      435     5965                      %POINTERIZE (PTR=VD$IT_BLOCK_EXPR.FLINK$);
      436     5971    5                 IF VD$IT_BLOCK_EXPR.DOMAINN.FILE_KEY.REP# = %REP_REMOTE THEN DO;
      437     5972                         %POINTERIZE (PTR=VD$IT_BLOCK_EXPR.DOMAINN.FILE_KEY.V$);
PL6.E3A0      #001=VDW$LOAD File=VDW$WORKSPACE.:VDA5TSI                          FRI 07/04/97 11:41 Page:13
      438     5978    5                    END;
      439     5979    4                 CALL POINTERIZE_LOCATION (VD$IT_BLOCK_EXPR.DOMAINN.RANGE.START);
      440     5980    4                 CALL POINTERIZE_LOCATION (VD$IT_BLOCK_EXPR.DOMAINN.RANGE.ENDD);
      441     5981    4                 VD$IT_BLOCK_EXPR.OPTIONS.STRUCTURE$ = ADDR(NIL);
      442     5982    5                 IF VD$IT_BLOCK_EXPR.OPTIONS.KEY_INCR.REP# = %REP_REMOTE THEN DO;
      443     5983                         %POINTERIZE (PTR=VD$IT_BLOCK_EXPR.OPTIONS.KEY_INCR.V$);
      444     5989    5                    END;
      445     5990                      %POINTERIZE (PTR=VD$IT_BLOCK_EXPR.SELECTS$);
      446     5996                      %POINTERIZE (PTR=VD$IT_BLOCK_EXPR.SELECTS_TAIL$);
      447     6002
      448     6003    4               CASE (%CLS_IT_COMMAND);
      449     6004                      %POINTERIZE (PTR=VD$IT_COMMAND.PARENT$);
      450     6010                      %POINTERIZE (PTR=VD$IT_COMMAND.FLINK$);
      451     6016    5                 DO I = 0 TO %MX_COMMAND_PARAMS-1;
      452     6017                         %POINTERIZE (PTR="VD$IT_COMMAND.PARAM$ (I)");
      453     6023    5                    END;
      454     6024
      455     6025    4               CASE (%CLS_IT_OPERAND);
      456     6026                      %POINTERIZE (PTR=VD$IT_OPERAND.PARENT$);
      457     6032                      %POINTERIZE (PTR=VD$IT_OPERAND.FLINK$);
      458     6038    5                 IF VD$IT_OPERAND.KEY.REP# = %REP_REMOTE THEN DO;
      459     6039                         %POINTERIZE (PTR=VD$IT_OPERAND.KEY.V$);
      460     6045    5                    END;
      461     6046                      %POINTERIZE (PTR=VD$IT_OPERAND.PARAM$);
      462     6052
      463     6053    4               CASE (%CLS_IT_OPERATOR);
      464     6054                      %POINTERIZE (PTR=VD$IT_OPERATOR.PARENT$);
      465     6060                      %POINTERIZE (PTR=VD$IT_OPERATOR.FLINK$);
      466     6066                      %POINTERIZE (PTR=VD$IT_OPERATOR.OPERAND$);
      467     6072                      %POINTERIZE (PTR=VD$IT_OPERATOR.R_OPERAND$);
      468     6078
      469     6079    4               CASE (%CLS_IT_SELECT);
      470     6080                      %POINTERIZE (PTR=VD$IT_SELECT.PARENT$);
      471     6086                      %POINTERIZE (PTR=VD$IT_SELECT.FLINK$);
      472     6092                      %POINTERIZE (PTR=VD$IT_SELECT.ADJUSTS$);
      473     6098                      %POINTERIZE (PTR=VD$IT_SELECT.ADJUSTS_TAIL$);
      474     6104
PL6.E3A0      #001=VDW$LOAD File=VDW$WORKSPACE.:VDA5TSI                          FRI 07/04/97 11:41 Page:14
      475     6105    4               CASE (%CLS_BLOCK_DESC, %CLS_BLOCK_BUFFER);
      476     6106    5                 IF VD$OBJECT_HEADER.CLASS# = %CLS_BLOCK_BUFFER THEN DO;
      477     6107                         %POINTERIZE (PTR=VD$BUFFER_HEADER.FLINK$);
      478     6113    5                    OBJECT_HEADER$ = PALIGNW(ADDR(VD$BUFFER.BYTES));
      479     6114    5                    END;
      480     6115    5                 IF VD$BLOCK_DESC.FILE_KEY.REP# = %REP_REMOTE THEN DO;
      481     6116                         %POINTERIZE (PTR=VD$BLOCK_DESC.FILE_KEY.V$);
      482     6122    5                    END;
      483     6123    4                 CALL POINTERIZE_LOCATION (VD$BLOCK_DESC.RANGE.START);
      484     6124    4                 CALL POINTERIZE_LOCATION (VD$BLOCK_DESC.RANGE.ENDD);
      485     6125                      %POINTERIZE (PTR=VD$BLOCK_DESC.OPTIONS.STRUCTURE$);
      486     6131    5                 IF VD$BLOCK_DESC.OPTIONS.KEY_INCR.REP# = %REP_REMOTE THEN DO;
      487     6132                         %POINTERIZE (PTR=VD$BLOCK_DESC.OPTIONS.KEY_INCR.V$);
      488     6138    5                    END;
      489     6139
      490     6140    4               CASE (%CLS_PATTERN);
      491     6141    5                 DO I = 0 TO VD$PATTERN.N_ENTRIES# - 1;
      492     6142                         %POINTERIZE (PTR="VD$PATTERN.ENTRIES.MATCH$ (I)");
      493     6148    5                    END;
      494     6149
      495     6150    4               CASE (%CLS_EVAL);
      496     6151                      %POINTERIZE (PTR=VD$EVAL.BLINK$);
      497     6157    4                 CALL POINTERIZE_LOCATION (VD$EVAL.ENCLOSING.START);
      498     6158    4                 CALL POINTERIZE_LOCATION (VD$EVAL.ENCLOSING.ENDD);
      499     6159    4                 CALL POINTERIZE_LOCATION (VD$EVAL.RANGE.START);
      500     6160    4                 CALL POINTERIZE_LOCATION (VD$EVAL.RANGE.ENDD);
      501     6161        /*N**N**N* How do we pointerize VD$EVAL.NODE$?  It can't be stored
      502     6162        **N**N**N*  in the same record.  Maybe store a "walking index":
      503     6163        **N**N**N*  count of # of node when walking the InTree?
      504     6164        **N**N**N*/
      505     6165
      506     6166    4               CASE (%CLS_FIT);
      507     6167                      %POINTERIZE (PTR=VD$FIT.CODE2$);
      508     6173                      %POINTERIZE (PTR=VD$FIT.CODE3$);
      509     6179
      510     6180    4               CASE (%CLS_PTR_BLOCK_DESC, %CLS_PTR_FILE_NODE,
      511     6181    4                   %CLS_PTR_INTREE, %CLS_PTR_KEY, %CLS_PTR_LOCATION, %CLS_PTR_TEXTC);
PL6.E3A0      #001=VDW$LOAD File=VDW$WORKSPACE.:VDA5TSI                          FRI 07/04/97 11:41 Page:15
      512     6182                      %POINTERIZE (PTR=VD$POINTER.FLINK$);
      513     6188                      %POINTERIZE (PTR=VD$POINTER.V$);
      514     6194
      515     6195    4               CASE (%CLS_CMD_STREAM, %CLS_ENCODED_NODE, %CLS_DIR_NODE,
      516     6196    4                   %CLS_FILE_NODE, %CLS_STREAM, %CLS_PORT, ELSE);
      517     6197                      /* Invalid object class stored in workspace record */
      518     6198    4                 GOTO WS_FILE_INVALID_FAILURE;
      519     6199
      520     6200    4               END OBJECT_TYPE_CASES;
      521     6201
      522     6202    3              IF VD$OBJECT_HEADER.SIZE# = 0 THEN
      523     6203    3                 OBJECT_HEADER$ = PINCRW(OBJECT_HEADER$,
      524     6204    3                   VD_OBJECTS.SIZE (VD$OBJECT_HEADER.CLASS#));
      525     6205    3              ELSE
      526     6206    3                 OBJECT_HEADER$ = PINCRW(OBJECT_HEADER$,
      527     6207    3                   VD$OBJECT_HEADER.SIZE#);
      528     6208    3              END EACH_OBJECT;
      529     6209
      530     6210    2           OBJECT_HEADER$ = PINCRW(ENCODED_NODE$, SIZEW(ENCODED$NODE));
      531     6211
      532     6212    2   EACH_OBJECT_AGAIN:
      533     6213    3           DO WHILE (POFFW(OBJECT_LIMIT$, OBJECT_HEADER$) > 0);
      534     6214
      535     6215    3   OBJECT_TYPE_CASES_AGAIN:
      536     6216    4              DO CASE (VD$OBJECT_HEADER.CLASS#);
      537     6217
      538     6218    4               CASE (%CLS_BLOCK_DESC, %CLS_BLOCK_BUFFER);
      539     6219    4                 IF VD$OBJECT_HEADER.CLASS# = %CLS_BLOCK_BUFFER THEN
      540     6220    4                    OBJECT_HEADER$ = PALIGNW(ADDR(VD$BUFFER.BYTES));
      541     6221    4                 CALL POINTERIZE_STRUCTURE (VD$BLOCK_DESC.OPTIONS.STRUCTURE$);
      542     6222
      543     6223    4               CASE (%CLS_PTR_FILE_NODE);
      544     6224    4                 CALL POINTERIZE_STRUCTURE (VD$POINTER.V$);
      545     6225
      546     6226    4               CASE (ELSE);
      547     6227
      548     6228    4               END OBJECT_TYPE_CASES_AGAIN;
PL6.E3A0      #001=VDW$LOAD File=VDW$WORKSPACE.:VDA5TSI                          FRI 07/04/97 11:41 Page:16
      549     6229
      550     6230    3              IF VD$OBJECT_HEADER.SIZE# = 0 THEN
      551     6231    3                 OBJECT_HEADER$ = PINCRW(OBJECT_HEADER$,
      552     6232    3                   VD_OBJECTS.SIZE (VD$OBJECT_HEADER.CLASS#));
      553     6233    3              ELSE
      554     6234    3                 OBJECT_HEADER$ = PINCRW(OBJECT_HEADER$,
      555     6235    3                   VD$OBJECT_HEADER.SIZE#);
      556     6236    3              END EACH_OBJECT_AGAIN;
      557     6237
      558     6238    2           RETURN;
      559     6239
      560     6240
      561     6241
      562     6242    2   INVALID_WORKSPACE_FAILURE: ;
      563     6243    2   WS_FILE_INVALID_FAILURE: ;
      564     6244    2           CALL VDG$ERRMSG (%E$BAD_WS_FILE, BINBIT (VD$OBJECT_HEADER.CLASS#, 36),
      565     6245    3             BINBIT(CMD$STREAM.REC_NUM#, 36)) WHENRETURN DO;
      566     6246    3              VD$ERR.DCB# = DCBNUM(M$EI);
      567     6247    3              END;
      568     6248    2           ALTRETURN;
      569     6249
      570     6250        %BOX (TITLE=POINTERIZE_STRUCTURE);

              6262    2   /***************************************************************************
              6264    2    *                                                                         *
              6268    2            *                            POINTERIZE_STRUCTURE                         *
              6270    2            *                                                                         *
              6272    2           ***************************************************************************/

      571     6276
      572     6277        /*I* NAME: POINTERIZE_STRUCTURE
      573     6278            PARAMETERS:
      574     6279                STRUCTURE, actually an index into a VD$ENCODED_NODE, possibly zero.
      575     6280            INPUT:
      576     6281                ENCODED_NODE$ is addr of VD$ENCODED_NODE containing STRUCTURE.
      577     6282            OUTPUT:
      578     6283                STRUCTURE resolved to a pointer into the STRUCTURES internal file.
PL6.E3A0      #001=VDW$LOAD File=VDW$WORKSPACE.:VDA5TSI                          FRI 07/04/97 11:41 Page:17
      579     6284            DESCRIPTION:
      580     6285                If STRUCTURE ~= 0, read the key which STRUCTURE "indexes" to from
      581     6286                the internal STRUCTURES file, and place the address of that
      582     6287                VD$FILE_NODE into STRUCTURE.
      583     6288        */
      584     6289
      585     6290    2   POINTERIZE_STRUCTURE: PROC (STRUCTURE) ALTRET;
      586     6291
      587     6292    3   DCL STRUCTURE PTR PARAM;
      588     6293
      589     6294    3   DCL VDA$LREAD               ENTRY (4) ALTRET;
      590     6295
      591     6296        %VD$BLOCK_DESC;
      592     6443        %VD$BUFFER;
      593     6501        %VD$PORT;
      594     6599        %VD$STREAM;
      595     6705
      596     6706
      597     6707             /* %POINTERIZE (PTR=STRUCTURE); */
      598     6708    3           IF STRUCTURE ~= ADDR(NIL) THEN
      599     6709    3   READ_THE_STRUCTURES_FILE:
      600     6710    4           DO;
      601     6711    4              CALL VDA$LREAD (VD_6E.STRUCTURES$->VD$STREAM,
      602     6712    4                STRUCTURE->VD$BLOCK_DESC.RANGE.START, 0, %TRUE)
      603     6713    5              WHENALTRETURN DO; ALTRETURN; END;
      604     6714    4              IF VD_6E.STRUCTURES$->VD$STREAM.CURRENT.EOF = %TRUE THEN
      605     6715    4                 CALL VDG$ESCREECH;
      606     6716    4              STRUCTURE = VD_6E.STRUCTURES$->VD$STREAM.PORT$->
      607     6717    4                VD$PORT.LEVEL.INTERNAL$ (%LVL_LOWER);
      608     6718    4              END READ_THE_STRUCTURES_FILE;
      609     6719
      610     6720    3           RETURN;
      611     6721
      612     6722    3   END POINTERIZE_STRUCTURE;
      613     6723
      614     6724        %BOX (TITLE=POINTERIZE_LOCATION);

PL6.E3A0      #001=VDW$LOAD File=VDW$WORKSPACE.:VDA5TSI                          FRI 07/04/97 11:41 Page:18
              6736    3   /***************************************************************************
              6738    3    *                                                                         *
              6742    3            *                            POINTERIZE_LOCATION                          *
              6744    3            *                                                                         *
              6746    3           ***************************************************************************/

      615     6750
      616     6751        /*I* NAME: POINTERIZE_LOCATION
      617     6752            PARAMETERS:
      618     6753                LOCATION - VD$LOCATION to pointerize.
      619     6754            INPUT:
      620     6755                ENCODED_NODE$ is addr of VD$ENCODED_NODE containing LOCATION.
      621     6756            OUTPUT:
      622     6757                LOCATION's pointers will be resolved into actual pointers.
      623     6758            DESCRIPTION:
      624     6759                Go thru LOCATION's levels, and pointerize any offsets found.
      625     6760        */
      626     6761
      627     6762    2   POINTERIZE_LOCATION: PROC (LOCATION) ALTRET;
      628     6763
      629     6764        %VD$LOCATION (NAME=LOCATION, STCLASS=PARAM);
      630     6792
      631     6793
      632     6794    3   DCL LVL SBIN;
      633     6795
      634     6796
      635     6797
      636     6798    4           DO LVL = 0 TO (%(MX_LOCATION_LEVELS-1));
      637     6799    5              IF LOCATION.KEY.REP# (LVL) = %REP_REMOTE THEN DO;
      638     6800                      %POINTERIZE (PTR="LOCATION.KEY.V$ (LVL)");
      639     6806    5                 END;
      640     6807    4              END;
      641     6808    3           RETURN;
      642     6809
      643     6810    3   END POINTERIZE_LOCATION;
      644     6811
      645     6812    2   END POINTERIZE_RECORD;
PL6.E3A0      #001=VDW$LOAD File=VDW$WORKSPACE.:VDA5TSI                          FRI 07/04/97 11:41 Page:19
      646     6813
      647     6814        %BOX (TITLE=HEADER_RECORD, PAGE=YES);
              6822    2
              6826    2   /***************************************************************************
              6828    2    *                                                                         *
              6832    2            *                               HEADER_RECORD                             *
              6834    2            *                                                                         *
              6836    2           ***************************************************************************/

      648     6840
      649     6841        /*I* NAME:  HEADER_RECORD
      650     6842            PARAMETERS:
      651     6843                DESC - VD$ENCODED_DESC for the header record of a workspace file.
      652     6844                    It's .SPEC.TYPE# must be %SPT_ENCODED_FILE_SPEC.
      653     6845                                    !! CAUTION !!
      654     6846                        DESC is assumed to be unPOINTERIZEd:  its
      655     6847                        .SPEC.V$ isn't a pointer, but a word-offset
      656     6848                        from ENCODED_NODE$.
      657     6849            INPUT:
      658     6850                LOAD_FLAGS - An array of bits specifying which predefined files we're
      659     6851                    allowed to load from the workspace file.
      660     6852                ENCODED_NODE$ - Pointer to the VD$ENCODED_NODE read from the
      661     6853                    workspace file.
      662     6854            OUTPUT:
      663     6855                VD_LAST_LOADED_FILE_SPEC will contain DESC's VD$ENCODED_FILE_SPEC.
      664     6856                The entire contents of the Windows file may have been deleted.
      665     6857            DESCRIPTION:
      666     6858                Save DESC's Spec component in the global VD_LAST_LOADED_FILE_SPEC.
      667     6859                Check the bits in the ENCODED_FILE_SPEC indicating what types of
      668     6860                info is in the workspace file:
      669     6861                    If the workspace file contains Windows-file nodes, and LOAD_FLAGS
      670     6862                        says we're allowed to load Windows-file nodes, then delete the
      671     6863                        entire contents of the Windows file now, before we load the
      672     6864                        workspace file.
      673     6865                    If the workspace file contains Keyins, and LOAD_FLAGS says we're
      674     6866                        allowed to load Keyins, but the user's current terminal profile
      675     6867                        isn't the same as the terminal profile at the time the
PL6.E3A0      #001=VDW$LOAD File=VDW$WORKSPACE.:VDA5TSI                          FRI 07/04/97 11:41 Page:20
      676     6868                        workspace file was last modified, then warn the user.
      677     6869        */
      678     6870
      679     6871    1   HEADER_RECORD: PROC (DESC) ALTRET;
      680     6872
      681     6873        %VD$ENCODED_DESC (NAME=DESC, STCLASS=PARAM);
      682     6957
      683     6958
      684     6959        %FPT_GLINEATTR (STCLASS=STATIC, DCB=M$UC);
      685     6984
      686     6985
      687     6986
      688     6987        %VD$RANGE (NAME=DEL_FILE_RANGE, STCLASS=AUTO);
      689     7056        %VLP_LINEATTR (STCLASS=AUTO);
      690     7078        %VD$ENCODED_FILE_SPEC;
      691     7107
      692     7108
      693     7109
      694     7110    2           VD_LAST_LOADED_FILE_SPEC =
      695     7111    2             PINCRW(ENCODED_NODE$, ADDR(DESC.SPEC.V$)->BASED$SBIN) ->
      696     7112    2             VD$ENCODED_FILE_SPEC;
      697     7113
      698     7114    2           IF VD_LAST_LOADED_FILE_SPEC.CONTENTS (%PDFF_WINDOWS)
      699     7115    3             AND LOAD_FLAGS.F (%PDFF_WINDOWS) THEN DO;
      700     7116    3              DEL_FILE_RANGE = %CLEAR;
      701     7117    3              DEL_FILE_RANGE.START.KEY (%LVL_LOWER-1) =
      702     7118    3                VD_KEY_NUMERIC_BOF;   /* Windows-file keys are numeric */
      703     7119    3              DEL_FILE_RANGE.ENDD.EOF = %TRUE;
      704     7120    3              CALL VDA$LDELETE (WINDOWS$STREAM, DEL_FILE_RANGE)
      705     7121    3                ALTRET (LDELETE_FAILED);
      706     7122    3              END;
      707     7123
      708     7124    2           IF VD_LAST_LOADED_FILE_SPEC.CONTENTS (%PDFF_KEYINS)
      709     7125    2             AND LOAD_FLAGS.F (%PDFF_KEYINS)
      710     7126    3             AND B$JIT.MODE = %M_INT# THEN DO;
      711     7127    3              FPT_GLINEATTR.LINEATTR_ = VECTOR(VLP_LINEATTR);
      712     7128    3              CALL M$GLINEATTR (FPT_GLINEATTR)
PL6.E3A0      #001=VDW$LOAD File=VDW$WORKSPACE.:VDA5TSI                          FRI 07/04/97 11:41 Page:21
      713     7129    3                ALTRET (GLINEATTR_FAILED);
      714     7130    3              IF SUBSTR(VD_LAST_LOADED_FILE_SPEC.LAST_MODIFIED.PROFILE.BYTES, 0,
      715     7131    3                VD_LAST_LOADED_FILE_SPEC.LAST_MODIFIED.PROFILE.LENGTH#) ~=
      716     7132    3                SUBSTR(VLP_LINEATTR.PROTXTC.TXT, 0,
      717     7133    4                VLP_LINEATTR.PROTXTC.CNT) THEN DO;
      718     7134    4                 CALL VDG$WARNMSG (%E$WARN_SAVED_W_DIFF_PROFILE,
      719     7135    4                   VD_LAST_LOADED_FILE_SPEC.LAST_MODIFIED.PROFILE,
      720     7136    4                   VLP_LINEATTR.PROTXTC);
      721     7137    4                 CALL VDG$EREPORT_ERROR;
      722     7138    4                 END;
      723     7139    3              END;
      724     7140
      725     7141    2           RETURN;
      726     7142
      727     7143
      728     7144    2   GLINEATTR_FAILED:
      729     7145    2           CALL VDG$MONERR;
      730     7146    2           ALTRETURN;
      731     7147
      732     7148
      733     7149    2   LDELETE_FAILED: ;
      734     7150    2   OALLOC_FAILED: ;
      735     7151    2           ALTRETURN;
      736     7152
      737     7153    2   END HEADER_RECORD;
      738     7154
      739     7155
      740     7156    1   END VDW$LOAD;
      741     7157        %EOD;

PL6.E3A0      #001=VDW$LOAD File=VDW$WORKSPACE.:VDA5TSI                          FRI 07/04/97 11:41 Page:22
--  Include file information  --

   B$JIT.:LIBRARY  cannot be made into a system file and is referenced.
   CP_6_SUBS.:LIBRARY  is referenced.
   CP_6.:LIBRARY  cannot be made into a system file and is referenced.
   VD_PERR_C.:VDA5TOU  is referenced.
   VD_MACROS_M.:VDA5TOU  is referenced.
   B$JIT_C.:E04TOU  was found in the system file and is referenced.
   CP_6_C.:E04TOU  was found in the system file and is referenced.
      No diagnostics issued in procedure VDW$LOAD.

   Procedure VDW$LOAD requires 1130 words for executable code.
   Procedure VDW$LOAD requires 56 words of local(AUTO) storage.

PL6.E3A0      #001=VDW$LOAD File=VDW$WORKSPACE.:VDA5TSI                          FRI 07/04/97 11:41 Page:23

 Object Unit name= VDW$LOAD                                   File name= VDW$WORKSPACE.:VDA5TOU
 UTS= JUL 04 '97 11:41:42.72 FRI                              Compiler= PL-6/E31         Sev=      00
 SharedLib= :SHARED_SYSTEM                                    Alt SharedLib=


    ****  Control sections  ****

 Sect   Type Bound  Init  Size OctSiz  Section name(segment info)
    0   DCB   even  none     0      0  M$UC
    1   DCB   even  none     0      0  M$EI
    2   Data  even  none     8     10  VDW$LOAD
    3  RoData even  UTS      4      4  VDW$LOAD
    4   Proc  even  none  1130   2152  VDW$LOAD
    5  RoData even  none    14     16  VDW$LOAD

    ****  Entry defs  ****

                              Check   Calling
                             calling  sequence
  Sect OctLoc Primary Altret sequence   type   Parms  Name
     4      0   yes    yes     yes      Std        1  VDW$LOAD
PL6.E3A0      #001=VDW$LOAD File=VDW$WORKSPACE.:VDA5TSI                          FRI 07/04/97 11:41 Page:24

  ****  Entry refs  ****

         Check        Calling
        calling       sequence
Altret sequence SRef   type   Args  Name
 yes     yes           Std       3 VDG$OALLOC
         yes           Std       1 VDG$EREPORT_ERROR
 yes     yes           Std       2 VDI$PREAD_FILE_READ
 yes     yes           Std       3 VDW$RESTORE_NODE
 yes     yes           Std       1 VDA$FCLOSE
 yes     yes           Std       1 VDG$OFREE
 yes     yes           Std       4 VDG$ERRMSG
 yes     yes           Std       4 VDA$LREAD
         yes           Std       3 VDG$ESCREECH
 yes     yes           Std       2 VDA$LDELETE
 yes     yes           Std       0 VDG$MONERR
 yes     yes           Std       4 VDG$WARNMSG
                       nStd      0 X66_AUTO_1
                       Std       0 B_CONSPOOL_D
                       nStd      0 X66_ARET
                       nStd      0 X66_AALT

  ****  Data refs  ****

  Flags:  r = read only, s = secondary
Flgs Name                             Flgs Name                             Flgs Name
     M$UC                                  VD_6E                                 VD_KEY_NUMERIC_BOF
     VD_OBJECTS                            VD_$SCREEN                            VD_LAST_LOADED_FILE_SPEC
     B$JIT$                                M$EI                                  B_VECTNIL

  ****  Segment refs  ****

  Flags:  r = read only, s = secondary
Flgs Name                             Flgs Name                             Flgs Name
     ISSID                                 NULLSID
PL6.E3A0      #001=VDW$LOAD File=VDW$WORKSPACE.:VDA5TSI                          FRI 07/04/97 11:41 Page:25


        1        1        /*M* VDW$WORKSPACE - Utility for the internal workspace */
        2        2        /*T***********************************************************/
        3        3        /*T*                                                         */
        4        4        /*T* Copyright (c) Bull HN Information Systems Inc., 1997    */
        5        5        /*T*                                                         */
        6        6        /*T***********************************************************/
        7        7
        8        8        /*X* MCR=NO, DMC=YES */
        9        9        /*T*/
       10       10
       11       11
       12       12        /*P* NAME: VDW$WORKSPACE
       13       13            PURPOSE:
       14       14                Utility to LOAD the internal workspace.
       15       15            DESCRIPTION:
       16       16                This module contains two external routines:
       17       17
       18       18                VDW$LOAD
       19       19                Given a workspace file, read it and rebuild its
       20       20                structures in the internal VD$WORKSPACE.  If there are
       21       21                already structures in the VD$WORKSPACE, selectively
       22       22                merge those from the file into the VD$WORKSPACE.
       23       23                Special handling is accorded to:
       24       24                Windows
       25       25                    Under certain conditions the entire internal Windows
       26       26                    file is freed (deleted) before we start loading; under
       27       27                    other conditions, all Windows-file nodes in the
       28       28                    workspace file are ignored (not loaded).
       29       29                Predefined Names-file nodes
       30       30                    Certain predefined names should not appear in
       31       31                    the workspace file:  names whose values are stored
       32       32                    elsewhere in the Windows, Structures, or History
       33       33                    files (e.g., THAT, HERE, CURRENT, $RANGE, $FP, $ENCLOSING, ...).
       34       34                    If these do appear in the workspace file, they are ignored.
       35       35                Predefined Structures-file nodes
       36       36                    Certain predefined Structures should not appear in
PL6.E3A0      #001=VDW$LOAD File=VDW$WORKSPACE.:VDA5TSI                          FRI 07/04/97 11:41 Page:26
       37       37                    the workspace file.  If these do appear in the
       38       38                    workspace file, they are ignored.
       39       39                As file nodes are read from the workspace file, they
       40       40                are written to the internal files via the Accessor, since
       41       41                there may be a window open to these files.  The Accessor
       42       42                will take care of updating global values, legal-value
       43       43                checking, protection of certain nodes of internal files
       44       44                against change by the user (in this case, loading entries
       45       45                from the workspace file is considered a change by the user,
       46       46                and is subject to VD$FILE_NODE.ACCESS protection), opening
       47       47                windows and their streams, etc.
       48       48
       49       49                VDW$RESTORE_NODE
       50       50                Given a single node from a workspace or History file,
       51       51                will restore it in it's original location, whether that is
       52       52                in an internal or external file, predefined or user-defined.
       53       53                Will also invoke any side-effects appropriate to the
       54       54                restoration of the node.
       55       55
       56       56                VDW$SAVE
       57       57                Given a stream open to a predefined file and an open SAVE-file, will
       58       58                copy all file-nodes from the predefined file to the SAVE-file in
       59       59                encoded form.
       60       60
       61       61                VDW$STOW_NODE
       62       62                Given a single node in a predefined file, will encode it and write
       63       63                it to a workspace file.
       64       64        */
       65       65
       66       66        /*D* NAME: VDW$LOAD
       67       67            PARAMETERS:
       68       68                LOAD_FLAGS - An ALIGNED array of BIT(1) UNAL flags.  Entries are
       69       69                    accessed using %PDFF_ values as subscripts.  Each bit flag
       70       70                    represents an internal file which may be loaded from the workspace
       71       71                    file; if a bit-flag in LOAD_FLAGS is off and the workspace file
       72       72                    contains a node for that file, we'll ignore the record in the
       73       73                    workspace file.
PL6.E3A0      #001=VDW$LOAD File=VDW$WORKSPACE.:VDA5TSI                          FRI 07/04/97 11:41 Page:27
       74       74            INPUT:
       75       75                VD_6E.CMD_STREAM$->VD$CMD_STREAM (the top entry on the
       76       76                    command-stream stack) must specify a workspace file which has
       77       77                    just been opened:  the next read from the file should
       78       78                    read the first record of the file.
       79       79                VD_6E.EQUALS$, .LOCATIONS$, .SYNONYMS$, .KEYINS$,
       80       80                    and .WINDOWS$ must point to open VD$STREAMs
       81       81                    for the Names and Windows internal files.  These files
       82       82                    must initially be empty.
       83       83                VD_6E.STRUCTURES$ must point to a VD$STREAM which is open
       84       84                    to at least a minimal Structures internal file.
       85       85                VD_6E.STRUCTURE_EXTERNAL$, _NAMES$, _STRUCTURES$, and _WINDOWS$
       86       86                    must point to the level-0 VD$FILE_NODEs for the appropriate
       87       87                    predefined entries in the Structures file.
       88       88                VD_$SCREEN is a VD$NUMBER for the $SCREEN predefined name.  It's .V#
       89       89                    must contain the number of lines of the terminal screen which
       90       90                    the user wants 6Edit to use.  (This is only used if we load
       91       91                    windows from the workspace file.)
       92       92            OUTPUT:
       93       93                VD_6E.WS will be loaded from the workspace file.  If any
       94       94                    editing windows were loaded, they have been declared and
       95       95                    their files opened.
       96       96            DESCRIPTION:
       97       97                Read records from the workspace file:  each one contains either:
       98       98                A header record (only the first record):
       99       99                    Save the header record's Spec component in VD_LAST_LOADED_FILE_SPEC.
      100      100                    In the VD$ENCODED_FILE_SPEC is a set of bit-flags (using %PDFF_
      101      101                        offsets) indicating the kinds of file-nodes this workspace
      102      102                        file contains.  If the file contains Windows nodes, and
      103      103                        LOAD_FLAGS says we're allowed to load Windows nodes, then
      104      104                        delete the current Windows file contents:  this will close
      105      105                        down all the current windows.
      106      106                A file node from a predefined file:
      107      107                    Restore the node to it's original predefined file.  This should
      108      108                        have all the side-effects necessary to restore the original
      109      109                        condition of the editor:  windows closed or re-opened, etc.
      110      110                Special handling for VD$WINDOW_SPECs:  Because of the way we tell the
PL6.E3A0      #001=VDW$LOAD File=VDW$WORKSPACE.:VDA5TSI                          FRI 07/04/97 11:41 Page:28
      111      111                    FEP to create windows, we have to do some special-casing for
      112      112                    the height of windows created from a workspace file.  As saved
      113      113                    in the workspace file, VD$WINDOW_SPECs contain the exact number
      114      114                    of lines the window is intended to occupy.  But when creating
      115      115                    the window (ie, when calling VDA$LWRITE to write the
      116      116                    VD$WINDOW_SPEC to the Accessor), the VD$WINDOW_SPEC must include
      117      117                    the height not only of itself, but of all windows which follow
      118      118                    it (are below it on the screen).  Therefore, we always create
      119      119                    each window using the entire remaining portion of the screen;
      120      120                    when the next window is created, it will take into account the
      121      121                    intended height of the previous window in order to determine
      122      122                    the "entire remaining portion" it's s'posed to use.
      123      123        */
      124      124
      125      125        VDW$LOAD: PROC (LOAD_FLAGS) ALTRET;

    125  4 000000   000000 700200 xent  VDW$LOAD     TSX0  ! X66_AUTO_1
         4 000001   000070 000001                    ZERO    56,1

      126      126
      127      127        %INCLUDE VD_MACROS_M;
      128     2342        %INCLUDE VD_PERR_C;
      129     2490        %INCLUDE CP_6;
      130     2571        %INCLUDE CP_6_SUBS;
      131     3111        %INCLUDE B$JIT;
      132     3401
      133     3402
      134     3403    1   DCL 1 LOAD_FLAGS ALIGNED PARAM,
      135     3404              %VD$PDFF (NAME=F, STCLASS=PARAM, LEV=2, LAST=YES);
      136     3418
      137     3419
      138     3420        /*
      139     3421        *   POINTERIZE:  Code to turn a record-offset into a pointer.
      140     3422        *   PTR is the name of the pointer field in the object in ENCODED$NODE
      141     3423        *       which is to be converted from an offset into ENCODED_NODE$
      142     3424        *       into a real pointer.
      143     3425        */
PL6.E3A0      #001=VDW$LOAD File=VDW$WORKSPACE.:VDA5TSI                          FRI 07/04/97 11:41 Page:29
      144     3426
      145     3427        %MACRO POINTERIZE (PTR="Must be supplied", BASE$=ENCODED_NODE$);
      146     3428                IF ADDR(PTR)->BASED$SBIN = 0 THEN
      147     3429                   PTR = ADDR(NIL);
      148     3430                ELSE
      149     3431                   PTR = PINCRW(BASE$, ADDR(PTR)->BASED$SBIN);
      150     3432        %MEND;
      151     3433
      152     3434
      153     3435
      154     3436    1   DCL VDI$PREAD_FILE_READ     ENTRY (2) ALTRET;
      155     3437    1   DCL VDA$LDELETE             ENTRY (2) ALTRET;
      156     3438    1   DCL VDA$FCLOSE              ENTRY (1) ALTRET;
      157     3439    1   DCL VDG$ERRMSG              ENTRY (4) ALTRET;
      158     3440    1   DCL VDG$MONERR              ENTRY ALTRET;
      159     3441    1   DCL VDG$WARNMSG             ENTRY (4) ALTRET;
      160     3442    1   DCL VDG$OALLOC              ENTRY (3) ALTRET;
      161     3443    1   DCL VDG$OCOPY               ENTRY (2) ALTRET;
      162     3444    1   DCL VDG$OCOPY_RANGE         ENTRY (2) ALTRET;
      163     3445    1   DCL VDG$OFREE               ENTRY (1) ALTRET;
      164     3446    1   DCL VDG$OCLEAR_RANGE        ENTRY (1) ALTRET;
      165     3447    1   DCL VDW$RESTORE_NODE        ENTRY (3) ALTRET;
      166     3448    1   DCL VDG$EREPORT_ERROR   ENTRY (1);
      167     3449    1   DCL VDG$ESCREECH        ENTRY (3);
      168     3450
      169     3451
      170     3452        %VD_6E (NAME=VD_6E, STCLASS=SYMREF);
      171     3488        %VD$KEY (NAME=VD_KEY_NUMERIC_BOF, STCLASS=SYMREF);
      172     3502        %VD_OBJECTS (NAME=VD_OBJECTS, STCLASS=SYMREF);
      173     3542        %VD$NUMBER (NAME=VD_$SCREEN, STCLASS=SYMREF);
      174     3587        %VD$ENCODED_FILE_SPEC (NAME=VD_LAST_LOADED_FILE_SPEC, STCLASS=SYMREF);
      175     3616    1   DCL B$JIT$ PTR SYMREF;
      176     3617    1   DCL M$EI DCB;
      177     3618
      178     3619
      179     3620    1   DCL STREAM$ PTR;
      180     3621    1   DCL EOF BIT(1) ALIGNED;
PL6.E3A0      #001=VDW$LOAD File=VDW$WORKSPACE.:VDA5TSI                          FRI 07/04/97 11:41 Page:30
      181     3622    1   DCL ENCODED_NODE$ PTR;
      182     3623    1   DCL SUM SBIN;
      183     3624    1   DCL BASED_ARRAY$ PTR;
      184     3625    1   DCL I SBIN;
      185     3626    1   DCL PREV_WINDOW_INTENDED_HEIGHT SBIN;
      186     3627    1   DCL THIS_WINDOW_INTENDED_HEIGHT SBIN;
      187     3628    1   DCL WINDOW_SPEC$ PTR;
      188     3629
      189     3630
      190     3631        %VD$CMD_STREAM (NAME=CMD$STREAM, STCLASS="BASED(VD_6E.CMD_STREAM$)");
      191     3670        %VD$STREAM (NAME=STREAM, STCLASS="BASED(STREAM$)");
      192     3776        %VD$ENCODED_NODE (NAME=ENCODED$NODE, STCLASS="BASED(ENCODED_NODE$)");
      193     3897    1   DCL BASED$ARRAY (0:0) SBIN BASED(BASED_ARRAY$);
      194     3898    1   DCL BASED$SBIN SBIN BASED;
      195     3899        %VD$STREAM (NAME=WINDOWS$STREAM, STCLASS="BASED(VD_6E.WINDOWS$)");
      196     4005        %VD$WINDOW_SPEC (NAME=WINDOW$SPEC, STCLASS="BASED(WINDOW_SPEC$)");
      197     4071        %VD$WINDOW_SPEC;
      198     4137        %VD$PORT;
      199     4235        %VD$BUFFER;
      200     4293        %VD$ERR (NAME=VD$ERR, STCLASS="BASED(VD_6E.ERR_TAIL$)");
      201     4346
      202     4347
      203     4348
      204     4349    1           STREAM$ = ADDR(NIL);

   4349  4 000002   000001 236000 xsym               LDQ     B_VECTNIL+1
         4 000003   200004 756100                    STQ     STREAM$,,AUTO

      205     4350    1           PREV_WINDOW_INTENDED_HEIGHT = 0;

   4350  4 000004   200012 450100                    STZ     PREV_WINDOW_INTENDED_HEIGHT,,AUTO

      206     4351
      207     4352                /*
      208     4353                *   Build a temporary stream to be used by VDW$RESTORE_NODE
      209     4354                *       for writing external-file nodes.
      210     4355                */
PL6.E3A0      #001=VDW$LOAD File=VDW$WORKSPACE.:VDA5TSI                          FRI 07/04/97 11:41 Page:31
      211     4356    1           CALL VDG$OALLOC (%CLS_STREAM, STREAM$)

   4356  4 000005   200004 630500                    EPPR0   STREAM$,,AUTO
         4 000006   200063 450500                    STP0    VLP_LINEATTR+17,,AUTO
         4 000007   000001 236000 5                  LDQ     1
         4 000010   200062 756100                    STQ     VLP_LINEATTR+16,,AUTO
         4 000011   200062 630500                    EPPR0   VLP_LINEATTR+16,,AUTO
         4 000012   000020 631400 xsym               EPPR1   B_VECTNIL+16
         4 000013   000000 701000 xent               TSX1    VDG$OALLOC
         4 000014   000257 702000 4                  TSX2    OALLOC_FAILED

      212     4357    1             ALTRET (OALLOC_FAILED);
      213     4358
      214     4359                /*
      215     4360                *   Read, decode, and restore each record from the workspace file.
      216     4361                */
      217     4362
      218     4363    1           CMD$STREAM.REC_NUM# = 0;

   4363  4 000015   000026 470400 xsym               LDP0    VD_6E+22
         4 000016   000030 450100                    STZ     24,,PR0

      219     4364    1   EACH_WORKSPACE_RECORD:
      220     4365    2           DO UNTIL EOF;

   4365  4 000017                       EACH_WORKSP* null
      221     4366    2              CALL VDI$PREAD_FILE_READ (%MXNB_COMMAND, EOF)

   4366  4 000017   200005 630500                    EPPR0   EOF,,AUTO
         4 000020   200063 450500                    STP0    VLP_LINEATTR+17,,AUTO
         4 000021   000003 236000 5                  LDQ     3
         4 000022   200062 756100                    STQ     VLP_LINEATTR+16,,AUTO
         4 000023   200062 630500                    EPPR0   VLP_LINEATTR+16,,AUTO
         4 000024   000020 631400 xsym               EPPR1   B_VECTNIL+16
         4 000025   000000 701000 xent               TSX1    VDI$PREAD_FILE_READ
         4 000026   000243 702000 4                  TSX2    LDELETE_FAILED

PL6.E3A0      #001=VDW$LOAD File=VDW$WORKSPACE.:VDA5TSI                          FRI 07/04/97 11:41 Page:32
      222     4367    2                ALTRET (PREAD_FILE_READ_FAILED);
      223     4368    2              IF EOF THEN

   4368  4 000027   200005 234100                    SZN     EOF,,AUTO
         4 000030   000205 604000 4                  TMI     s:4423

      224     4369    2                 EXIT EACH_WORKSPACE_RECORD;
      225     4370    2              ENCODED_NODE$ = CMD$STREAM.RECORD$;

   4370  4 000031   000026 470400 xsym               LDP0    VD_6E+22
         4 000032   000025 236100                    LDQ     21,,PR0
         4 000033   200006 756100                    STQ     ENCODED_NODE$,,AUTO

      226     4371    2              IF ENCODED$NODE.RECORD_ID ~= %CHR_ENCODED_RECID

   4371  4 000034   200006 471500                    LDP1    ENCODED_NODE$,,AUTO
         4 000035   040000 106500                    CMPC    fill='040'O
         4 000036   100002 400015                    ADSC9   2,,PR1                   cn=2,n=13
         4 000037   000000 000015 3                  ADSC9   0                        cn=0,n=13
         4 000040   000221 601000 4                  TNZ     WS_FILE_INVALID_FAILURE
         4 000041   100011 236100                    LDQ     9,,PR1
         4 000042   000030 116100                    CMPQ    24,,PR0
         4 000043   000221 601000 4                  TNZ     WS_FILE_INVALID_FAILURE

      227     4372    2                OR ENCODED$NODE.RECORD_NUM# ~= CMD$STREAM.REC_NUM# THEN
      228     4373    2                 GOTO WS_FILE_INVALID_FAILURE;
      229     4374
      230     4375    2              SUM = 0;

   4375  4 000044   200007 450100                    STZ     SUM,,AUTO

      231     4376    2              BASED_ARRAY$ = PINCRW(ADDR(ENCODED$NODE.CHECKSUM#), 1);

   4376  4 000045   200006 236100                    LDQ     ENCODED_NODE$,,AUTO
         4 000046   000011 036003                    ADLQ    9,DU
         4 000047   200010 756100                    STQ     BASED_ARRAY$,,AUTO

PL6.E3A0      #001=VDW$LOAD File=VDW$WORKSPACE.:VDA5TSI                          FRI 07/04/97 11:41 Page:33
      232     4377    2              DO I =
      233     4378    2                ((ENCODED$NODE.LENGTH# - POFFC(BASED_ARRAY$, ENCODED_NODE$)) /
      234     4379    3                %NB_PER_WORD) DOWNTO 0;

   4379  4 000050   200006 236100                    LDQ     ENCODED_NODE$,,AUTO
         4 000051   000020 772000                    QRL     16
         4 000052   200062 756100                    STQ     VLP_LINEATTR+16,,AUTO
         4 000053   200010 236100                    LDQ     BASED_ARRAY$,,AUTO
         4 000054   000020 772000                    QRL     16
         4 000055   200062 136100                    SBLQ    VLP_LINEATTR+16,,AUTO
         4 000056   200063 756100                    STQ     VLP_LINEATTR+17,,AUTO
         4 000057   100002 236100                    LDQ     2,,PR1
         4 000060   000022 732000                    QRS     18
         4 000061   200063 136100                    SBLQ    VLP_LINEATTR+17,,AUTO
         4 000062   000004 506007                    DIV     4,DL
         4 000063   200011 756100                    STQ     I,,AUTO
         4 000064   000074 710000 4                  TRA     s:4381+2

      235     4380    3                 SUM = SUM + BASED$ARRAY (I);

   4380  4 000065   200010 470500                    LDP0    BASED_ARRAY$,,AUTO
         4 000066   200011 720100                    LXL0    I,,AUTO
         4 000067   200007 236100                    LDQ     SUM,,AUTO
         4 000070   000000 036110                    ADLQ    0,X0,PR0
         4 000071   200007 756100                    STQ     SUM,,AUTO

      236     4381    3                 END;

   4381  4 000072   000001 336007                    LCQ     1,DL
         4 000073   200011 056100                    ASQ     I,,AUTO
         4 000074   200011 235100                    LDA     I,,AUTO
         4 000075   000065 605000 4                  TPL     s:4380

      237     4382    2              IF SUM ~= ENCODED$NODE.CHECKSUM# THEN

   4382  4 000076   200006 470500                    LDP0    ENCODED_NODE$,,AUTO
         4 000077   200007 236100                    LDQ     SUM,,AUTO
PL6.E3A0      #001=VDW$LOAD File=VDW$WORKSPACE.:VDA5TSI                          FRI 07/04/97 11:41 Page:34
         4 000100   000010 116100                    CMPQ    8,,PR0
         4 000101   000221 601000 4                  TNZ     WS_FILE_INVALID_FAILURE

      238     4383    2                 GOTO WS_FILE_INVALID_FAILURE;
      239     4384
      240     4385    3              IF ENCODED$NODE.DESC.SPEC.TYPE# = %SPT_ENCODED_FILE_SPEC THEN DO;

   4385  4 000102   000026 220100                    LDX0    22,,PR0
         4 000103   000010 100003                    CMPX0   8,DU
         4 000104   000127 601000 4                  TNZ     s:4397

      241     4386                      /* This looks like a header record */
      242     4387    3                 IF ENCODED$NODE.RECORD_NUM# ~= 0

   4387  4 000105   000011 235100                    LDA     9,,PR0
         4 000106   000221 601000 4                  TNZ     WS_FILE_INVALID_FAILURE
         4 000107   000000 106500                    CMPC    fill='000'O
         4 000110   000012 000010                    ADSC9   10,,PR0                  cn=0,n=8
         4 000111   000002 000002 xsym               ADSC9   B_VECTNIL+2              cn=0,n=2
         4 000112   000221 601000 4                  TNZ     WS_FILE_INVALID_FAILURE
         4 000113   000000 106500                    CMPC    fill='000'O
         4 000114   000014 000044                    ADSC9   12,,PR0                  cn=0,n=36
         4 000115   000002 000002 xsym               ADSC9   B_VECTNIL+2              cn=0,n=2
         4 000116   000221 601000 4                  TNZ     WS_FILE_INVALID_FAILURE
         4 000117   000030 235100                    LDA     24,,PR0
         4 000120   000221 601000 4                  TNZ     WS_FILE_INVALID_FAILURE

      243     4388    3                   OR ENCODED$NODE.DESC.FILE_KEY ~= %CLEAR
      244     4389    3                   OR ENCODED$NODE.DESC.LOCATION ~= %CLEAR
      245     4390    3                   OR ADDR(ENCODED$NODE.DESC.DATA$)->BASED$SBIN ~= 0 THEN
      246     4391    3                    GOTO WS_FILE_INVALID_FAILURE;
      247     4392    3                 CALL HEADER_RECORD (ENCODED$NODE.DESC)

   4392  4 000121   200006 236100                    LDQ     ENCODED_NODE$,,AUTO
         4 000122   000012 036003                    ADLQ    10,DU
         4 000123   200017 756100                    STQ     WINDOW_SPEC$+3,,AUTO
         4 000124   002030 701000 4                  TSX1    HEADER_RECORD
PL6.E3A0      #001=VDW$LOAD File=VDW$WORKSPACE.:VDA5TSI                          FRI 07/04/97 11:41 Page:35
         4 000125   000243 702000 4                  TSX2    LDELETE_FAILED

      248     4393    3                   ALTRET (HEADER_RECORD_FAILED);
      249     4394    3                 END;

   4394  4 000126   000201 710000 4                  TRA     s:4420

      250     4395    3              ELSE DO;

      251     4396                      /* This is a file node to restore to its original location */
      252     4397    3                 CALL POINTERIZE_RECORD

   4397  4 000127   000260 701000 4                  TSX1    POINTERIZE_RECORD
         4 000130   000240 702000 4                  TSX2    POINTERIZE_RECORD_FAILED

      253     4398    3                   ALTRET (POINTERIZE_RECORD_FAILED);
      254     4399
      255     4400    3                 IF LOAD_FLAGS.F (%PDFF_WINDOWS)

   4400  4 000131   200003 470500                    LDP0    @LOAD_FLAGS,,AUTO
         4 000132   000000 236100                    LDQ     0,,PR0
         4 000133   004000 316003                    CANQ    2048,DU
         4 000134   000167 600000 4                  TZE     s:4416
         4 000135   200006 471500                    LDP1    ENCODED_NODE$,,AUTO
         4 000136   100026 220100                    LDX0    22,,PR1
         4 000137   000006 100003                    CMPX0   6,DU
         4 000140   000167 601000 4                  TNZ     s:4416

      256     4401    3                   AND ENCODED$NODE.DESC.SPEC.TYPE# = %SPT_WINDOW_SPEC THEN
      257     4402    4   ADJUST_WINDOW_HEIGHT: DO;

   4402  4 000141                       ADJUST_WIND* null
      258     4403    4                    WINDOW_SPEC$ = ENCODED$NODE.DESC.SPEC.V$;

   4403  4 000141   100027 236100                    LDQ     23,,PR1
         4 000142   200014 756100                    STQ     WINDOW_SPEC$,,AUTO

PL6.E3A0      #001=VDW$LOAD File=VDW$WORKSPACE.:VDA5TSI                          FRI 07/04/97 11:41 Page:36
      259     4404    4                    THIS_WINDOW_INTENDED_HEIGHT = WINDOW$SPEC.COORDS.HEIGHT#;

   4404  4 000143   200014 473500                    LDP3    WINDOW_SPEC$,,AUTO
         4 000144   300005 235100                    LDA     5,,PR3
         4 000145   200013 755100                    STA     THIS_WINDOW_INTENDED_HEIGHT,,AUTO

      260     4405    4                    IF NOT WINDOWS$STREAM.PORT$->VD$PORT.CURRENT.EOF THEN

   4405  4 000146   000006 474400 xsym               LDP4    VD_6E+6
         4 000147   400001 475500                    LDP5    1,,PR4
         4 000150   500022 236100                    LDQ     18,,PR5
         4 000151   400000 316007                    CANQ    -131072,DL
         4 000152   000163 601000 4                  TNZ     s:4412

      261     4406    4                       WINDOW$SPEC.COORDS.HEIGHT# = MAXIMUM (0,

   4406  4 000153   500035 476500                    LDP6    29,,PR5
         4 000154   600005 236100                    LDQ     5,,PR6
         4 000155   200012 136100                    SBLQ    PREV_WINDOW_INTENDED_HEIGHT,,AUTO
         4 000156   000000 116003                    CMPQ    0,DU
         4 000157   000161 605000 4                  TPL     s:4406+6
         4 000160   000000 236003                    LDQ     0,DU
         4 000161   300005 756100                    STQ     5,,PR3
         4 000162   000165 710000 4                  TRA     s:4413

      262     4407    4                         WINDOWS$STREAM.PORT$ ->
      263     4408    4                         VD$PORT.LEVEL.SPEC.V$ (%LVL_LOWER) ->
      264     4409    4                         VD$WINDOW_SPEC.COORDS.HEIGHT# -
      265     4410    4                         PREV_WINDOW_INTENDED_HEIGHT);
      266     4411    4                    ELSE  /* First window gets entire screen */
      267     4412    4                       WINDOW$SPEC.COORDS.HEIGHT# = VD_$SCREEN.V#;

   4412  4 000163   000003 235000 xsym               LDA     VD_$SCREEN+3
         4 000164   300005 755100                    STA     5,,PR3

      268     4413    4                    PREV_WINDOW_INTENDED_HEIGHT = THIS_WINDOW_INTENDED_HEIGHT;

PL6.E3A0      #001=VDW$LOAD File=VDW$WORKSPACE.:VDA5TSI                          FRI 07/04/97 11:41 Page:37
   4413  4 000165   200013 235100                    LDA     THIS_WINDOW_INTENDED_HEIGHT,,AUTO
         4 000166   200012 755100                    STA     PREV_WINDOW_INTENDED_HEIGHT,,AUTO

      269     4414    4                    END ADJUST_WINDOW_HEIGHT;

      270     4415
      271     4416    3                 CALL VDW$RESTORE_NODE (STREAM, ENCODED$NODE.DESC, LOAD_FLAGS)

   4416  4 000167   200003 236100                    LDQ     @LOAD_FLAGS,,AUTO
         4 000170   200064 756100                    STQ     VLP_LINEATTR+18,,AUTO
         4 000171   200006 236100                    LDQ     ENCODED_NODE$,,AUTO
         4 000172   000012 036003                    ADLQ    10,DU
         4 000173   200004 235100                    LDA     STREAM$,,AUTO
         4 000174   200062 757100                    STAQ    VLP_LINEATTR+16,,AUTO
         4 000175   200062 630500                    EPPR0   VLP_LINEATTR+16,,AUTO
         4 000176   000021 631400 xsym               EPPR1   B_VECTNIL+17
         4 000177   000000 701000 xent               TSX1    VDW$RESTORE_NODE
         4 000200   000243 702000 4                  TSX2    LDELETE_FAILED

      272     4417    3                   ALTRET (WRESTORE_NODE_FAILED);
      273     4418    3                 END;

      274     4419
      275     4420    2              CMD$STREAM.REC_NUM# = CMD$STREAM.REC_NUM# + 1;

   4420  4 000201   000026 470400 xsym               LDP0    VD_6E+22
         4 000202   000030 054100                    AOS     24,,PR0

      276     4421    2              END EACH_WORKSPACE_RECORD;

   4421  4 000203   200005 234100                    SZN     EOF,,AUTO
         4 000204   000017 605000 4                  TPL     EACH_WORKSPACE_RECORD

      277     4422
      278     4423    2           IF STREAM$ ~= ADDR(NIL) THEN DO;

   4423  4 000205   200004 236100                    LDQ     STREAM$,,AUTO
PL6.E3A0      #001=VDW$LOAD File=VDW$WORKSPACE.:VDA5TSI                          FRI 07/04/97 11:41 Page:38
         4 000206   000001 116000 xsym               CMPQ    B_VECTNIL+1
         4 000207   000220 600000 4                  TZE     s:4430

      279     4424    2              CALL VDA$FCLOSE (STREAM)

   4424  4 000210   200004 630500                    EPPR0   STREAM$,,AUTO
         4 000211   000017 631400 xsym               EPPR1   B_VECTNIL+15
         4 000212   000000 701000 xent               TSX1    VDA$FCLOSE
         4 000213   000257 702000 4                  TSX2    OALLOC_FAILED

      280     4425    2                ALTRET (FCLOSE_FAILED);
      281     4426    2              CALL VDG$OFREE (STREAM)

   4426  4 000214   200004 630500                    EPPR0   STREAM$,,AUTO
         4 000215   000017 631400 xsym               EPPR1   B_VECTNIL+15
         4 000216   000000 701000 xent               TSX1    VDG$OFREE
         4 000217   000257 702000 4                  TSX2    OALLOC_FAILED

      282     4427    2                ALTRET (OFREE_FAILED);
      283     4428    2              END;

      284     4429
      285     4430    1           RETURN;

   4430  4 000220   000000 702200 xent               TSX2  ! X66_ARET

      286     4431
      287     4432
      288     4433
      289     4434    1   WS_FILE_INVALID_FAILURE:
      290     4435    1           CALL VDG$ERRMSG (%E$BAD_WS_FILE,

   4435  4 000221   000026 236000 xsym  WS_FILE_INV* LDQ     VD_6E+22
         4 000222   000030 036003                    ADLQ    24,DU
         4 000223   200064 756100                    STQ     VLP_LINEATTR+18,,AUTO
         4 000224   000001 236000 xsym               LDQ     B_VECTNIL+1
         4 000225   000004 235000 5                  LDA     4
PL6.E3A0      #001=VDW$LOAD File=VDW$WORKSPACE.:VDA5TSI                          FRI 07/04/97 11:41 Page:39
         4 000226   200062 757100                    STAQ    VLP_LINEATTR+16,,AUTO
         4 000227   200062 630500                    EPPR0   VLP_LINEATTR+16,,AUTO
         4 000230   000021 631400 xsym               EPPR1   B_VECTNIL+17
         4 000231   000000 701000 xent               TSX1    VDG$ERRMSG
         4 000232   000243 702000 4                  TSX2    LDELETE_FAILED

      291     4436    1             , BINBIT (CMD$STREAM.REC_NUM#,36)) ALTRET (CLEAN_UP);
      292     4437    1           VD$ERR.DCB# = DCBNUM(M$EI);

   4437  4 000233   000000 236007 xsym               LDQ     M$EI,DL
         4 000234   000000 620006                    EAX0    0,QL
         4 000235   000032 470400 xsym               LDP0    VD_6E+26
         4 000236   000004 740100                    STX0    4,,PR0

      293     4438    1           GOTO CLEAN_UP;

   4438  4 000237   000243 710000 4                  TRA     LDELETE_FAILED

   4437  4 000240                       POINTERIZE_* null
      294     4439
      295     4440
      296     4441    1   POINTERIZE_RECORD_FAILED: ;
      297     4442    1           CALL VDG$EREPORT_ERROR;

   4442  4 000240   000002 631400 xsym               EPPR1   B_VECTNIL+2
         4 000241   000000 701000 xent               TSX1    VDG$EREPORT_ERROR
         4 000242   000000 011000                    NOP     0

   4437  4 000243                       LDELETE_FAI* null
   4437  4 000243                       HEADER_RECO* null
   4437  4 000243                       PREAD_FILE_* null
   4437  4 000243                       WRESTORE_NO* null
      298     4443    1   LDELETE_FAILED: ;
      299     4444    1   HEADER_RECORD_FAILED: ;
      300     4445    1   PREAD_FILE_READ_FAILED: ;
      301     4446    1   WRESTORE_NODE_FAILED: ;
      302     4447    1   CLEAN_UP:
PL6.E3A0      #001=VDW$LOAD File=VDW$WORKSPACE.:VDA5TSI                          FRI 07/04/97 11:41 Page:40
      303     4448    2           IF STREAM$ ~= ADDR(NIL) THEN DO;

   4448  4 000243   200004 236100       CLEAN_UP     LDQ     STREAM$,,AUTO
         4 000244   000001 116000 xsym               CMPQ    B_VECTNIL+1
         4 000245   000256 600000 4                  TZE     s:4454

      304     4449    2              CALL VDA$FCLOSE (STREAM)

   4449  4 000246   200004 630500                    EPPR0   STREAM$,,AUTO
         4 000247   000017 631400 xsym               EPPR1   B_VECTNIL+15
         4 000250   000000 701000 xent               TSX1    VDA$FCLOSE
         4 000251   000257 702000 4                  TSX2    OALLOC_FAILED

      305     4450    2                ALTRET (FCLOSE_FAILED);
      306     4451    2              CALL VDG$OFREE (STREAM)

   4451  4 000252   200004 630500                    EPPR0   STREAM$,,AUTO
         4 000253   000017 631400 xsym               EPPR1   B_VECTNIL+15
         4 000254   000000 701000 xent               TSX1    VDG$OFREE
         4 000255   000257 702000 4                  TSX2    OALLOC_FAILED

      307     4452    2                ALTRET (OFREE_FAILED);
      308     4453    2              END;

      309     4454    1           ALTRETURN;

   4454  4 000256   000000 702200 xent               TSX2  ! X66_AALT

   4448  4 000257                       OALLOC_FAIL* null
   4448  4 000257                       OFREE_FAILED null
   4448  4 000257                       FCLOSE_FAIL* null
      310     4455
      311     4456
      312     4457    1   OALLOC_FAILED: ;
      313     4458    1   OFREE_FAILED: ;
      314     4459    1   FCLOSE_FAILED: ;
      315     4460    1           ALTRETURN;
PL6.E3A0      #001=VDW$LOAD File=VDW$WORKSPACE.:VDA5TSI                          FRI 07/04/97 11:41 Page:41

   4460  4 000257   000000 702200 xent               TSX2  ! X66_AALT

      316     4461
      317     4462
      318     4463        %BOX (TITLE=POINTERIZE_RECORD, PAGE=YES);
              4471    1
              4475    1   /***************************************************************************
              4477    1    *                                                                         *
              4481    1            *                             POINTERIZE_RECORD                          *
              4483    1            *                                                                        *
              4485    1          ***************************************************************************/

      319     4489
      320     4490        /*I* NAME: POINTERIZE_RECORD
      321     4491            PARAMETERS:
      322     4492                None.
      323     4493            INPUT:
      324     4494                ENCODED$NODE is the VD$ENCODED_NODE for the workspace-file record.
      325     4495            OUTPUT:
      326     4496                ENCODED$NODE's record-offsets will be converted to real pointers.
      327     4497                VD_ERR$ - If an error in the record is found, VD_ERR$ will
      328     4498                    point to the allocated VD$ERR for the error.  It's
      329     4499                    first substitution field will contain the %CLS_ code for
      330     4500                    the object in error, as a CLS_NUMBER.
      331     4501            DESCRIPTION:
      332     4502                Loop thru the objects in ENCODED$NODE; in these objects, all
      333     4503                pointers have been stored in the file as word-offsets into
      334     4504                the record of the object pointed-to.  Find these word
      335     4505                offsets, and replace them with pointers to the objects in
      336     4506                the workspace record.
      337     4507        */
      338     4508
      339     4509    1   POINTERIZE_RECORD: PROC ALTRET;

   4509  4 000260   200016 741300       POINTERIZE_* STX1  ! WINDOW_SPEC$+2,,AUTO

PL6.E3A0      #001=VDW$LOAD File=VDW$WORKSPACE.:VDA5TSI                          FRI 07/04/97 11:41 Page:42
      340     4510
      341     4511
      342     4512    2   DCL OBJECT_HEADER$ PTR;
      343     4513    2   DCL OBJECT_LIMIT$ PTR;
      344     4514    2   DCL I SBIN;
      345     4515
      346     4516
      347     4517        %VD$OBJECT_HEADER (STCLASS="BASED(OBJECT_HEADER$)");
      348     4539        %VD$WINDOW_SPEC (STCLASS="BASED(OBJECT_HEADER$)");
      349     4605        %VD$WINDOW_BLOCK (STCLASS="BASED(OBJECT_HEADER$)");
      350     4642        %VD$RECORD_SET (STCLASS="BASED(OBJECT_HEADER$)");
      351     4720        %VD$STRUCTURE_SPEC (STCLASS="BASED(OBJECT_HEADER$)");
      352     4757        %VD$IT_ADJUST (STCLASS="BASED(OBJECT_HEADER$)");
      353     4794        %VD$IT_BLOCK_EXPR (STCLASS="BASED(OBJECT_HEADER$)");
      354     4944        %VD$IT_COMMAND (STCLASS="BASED(OBJECT_HEADER$)");
      355     4982        %VD$IT_OPERAND (STCLASS="BASED(OBJECT_HEADER$)");
      356     5048        %VD$IT_OPERATOR (STCLASS="BASED(OBJECT_HEADER$)");
      357     5085        %VD$IT_SELECT (STCLASS="BASED(OBJECT_HEADER$)");
      358     5122        %VD$BLOCK_DESC (STCLASS="BASED(OBJECT_HEADER$)");
      359     5269        %VD$BUFFER (STCLASS="BASED(OBJECT_HEADER$)");
      360     5327        %VD$BUFFER_HEADER (STCLASS="BASED(OBJECT_HEADER$)");
      361     5363        %VD$STRING_HEADER (STCLASS="BASED(OBJECT_HEADER$)");
      362     5399        %VD$PATTERN (STCLASS="BASED(OBJECT_HEADER$)");
      363     5450        %VD$EVAL (STCLASS="BASED(OBJECT_HEADER$)");
      364     5695        %VD$FIT (STCLASS="BASED(OBJECT_HEADER$)");
      365     5731        %VD$POINTER (STCLASS="BASED(OBJECT_HEADER$)");
      366     5776
      367     5777
      368     5778
      369     5779    3           IF ENCODED$NODE.DESC.FILE_KEY.REP# = %REP_REMOTE THEN DO;

   5779  4 000261   200006 470500                    LDP0    ENCODED_NODE$,,AUTO
         4 000262   000012 720100                    LXL0    10,,PR0
         4 000263   000002 100003                    CMPX0   2,DU
         4 000264   000276 601000 4                  TNZ     s:5787

      370     5780                   %POINTERIZE (PTR=ENCODED$NODE.DESC.FILE_KEY.V$);
PL6.E3A0      #001=VDW$LOAD File=VDW$WORKSPACE.:VDA5TSI                          FRI 07/04/97 11:41 Page:43

   5781  4 000265   000013 235100                    LDA     11,,PR0
         4 000266   000272 601000 4                  TNZ     s:5784

   5782  4 000267   000001 236000 xsym               LDQ     B_VECTNIL+1
         4 000270   000013 756100                    STQ     11,,PR0
         4 000271   000276 710000 4                  TRA     s:5787

   5784  4 000272   000013 236100                    LDQ     11,,PR0
         4 000273   000022 736000                    QLS     18
         4 000274   200006 036100                    ADLQ    ENCODED_NODE$,,AUTO
         4 000275   000013 756100                    STQ     11,,PR0

      371     5786    3              END;

      372     5787    2           CALL POINTERIZE_LOCATION (ENCODED$NODE.DESC.LOCATION);

   5787  4 000276   200006 236100                    LDQ     ENCODED_NODE$,,AUTO
         4 000277   000014 036003                    ADLQ    12,DU
         4 000300   200023 756100                    STQ     I+2,,AUTO
         4 000301   001775 701000 4                  TSX1    POINTERIZE_LOCATION
         4 000302   000000 011000                    NOP     0

      373     5788    3           IF ENCODED$NODE.DESC.SPEC.REP# = %REP_REMOTE THEN DO;

   5788  4 000303   200006 470500                    LDP0    ENCODED_NODE$,,AUTO
         4 000304   000026 720100                    LXL0    22,,PR0
         4 000305   000002 100003                    CMPX0   2,DU
         4 000306   000320 601000 4                  TNZ     s:5797

      374     5789                   %POINTERIZE (PTR=ENCODED$NODE.DESC.SPEC.V$);

   5790  4 000307   000027 235100                    LDA     23,,PR0
         4 000310   000314 601000 4                  TNZ     s:5793

   5791  4 000311   000001 236000 xsym               LDQ     B_VECTNIL+1
         4 000312   000027 756100                    STQ     23,,PR0
PL6.E3A0      #001=VDW$LOAD File=VDW$WORKSPACE.:VDA5TSI                          FRI 07/04/97 11:41 Page:44
         4 000313   000320 710000 4                  TRA     s:5797

   5793  4 000314   000027 236100                    LDQ     23,,PR0
         4 000315   000022 736000                    QLS     18
         4 000316   200006 036100                    ADLQ    ENCODED_NODE$,,AUTO
         4 000317   000027 756100                    STQ     23,,PR0

      375     5795    3              END;

      376     5796                %POINTERIZE (PTR=ENCODED$NODE.DESC.DATA$);

   5797  4 000320   000030 235100                    LDA     24,,PR0
         4 000321   000325 601000 4                  TNZ     s:5800

   5798  4 000322   000001 236000 xsym               LDQ     B_VECTNIL+1
         4 000323   000030 756100                    STQ     24,,PR0
         4 000324   000331 710000 4                  TRA     s:5804

   5800  4 000325   000030 236100                    LDQ     24,,PR0
         4 000326   000022 736000                    QLS     18
         4 000327   200006 036100                    ADLQ    ENCODED_NODE$,,AUTO
         4 000330   000030 756100                    STQ     24,,PR0

      377     5802
      378     5803
      379     5804    2           OBJECT_HEADER$ = PINCRW(ENCODED_NODE$, SIZEW(ENCODED$NODE));

   5804  4 000331   200006 236100                    LDQ     ENCODED_NODE$,,AUTO
         4 000332   000031 036003                    ADLQ    25,DU
         4 000333   200017 756100                    STQ     OBJECT_HEADER$,,AUTO

      380     5805    2           OBJECT_LIMIT$ = PINCRC(ADDR(ENCODED_NODE$->VD$BUFFER.BYTES),

   5805  4 000334   000002 236100                    LDQ     2,,PR0
         4 000335   000022 732000                    QRS     18
         4 000336   000020 736000                    QLS     16
         4 000337   000005 036000 5                  ADLQ    5
PL6.E3A0      #001=VDW$LOAD File=VDW$WORKSPACE.:VDA5TSI                          FRI 07/04/97 11:41 Page:45
         4 000340   200006 036100                    ADLQ    ENCODED_NODE$,,AUTO
         4 000341   200020 756100                    STQ     OBJECT_LIMIT$,,AUTO

      381     5806    2             ENCODED$NODE.LENGTH#);
      382     5807
      383     5808    2   EACH_OBJECT:
      384     5809    3           DO WHILE (POFFW(OBJECT_LIMIT$, OBJECT_HEADER$) > 0);

   5809  4 000342   001555 710000 4     EACH_OBJECT  TRA     s:6208

      385     5810
      386     5811    3   OBJECT_TYPE_CASES:
      387     5812    4              DO CASE (VD$OBJECT_HEADER.CLASS#);

   5812  4 000343   200017 470500       OBJECT_TYPE* LDP0    OBJECT_HEADER$,,AUTO
         4 000344   000000 220100                    LDX0    0,,PR0
         4 000345   000060 100003                    CMPX0   48,DU
         4 000346   000350 602010 4                  TNC     OBJECT_TYPE_CASES+5,X0
         4 000347   001537 710000 4                  TRA     s:6198
         4 000350   001537 710000 4                  TRA     s:6198
         4 000351   001305 710000 4                  TRA     s:6106
         4 000352   001305 710000 4                  TRA     s:6106
         4 000353   000442 710000 4                  TRA     s:5827
         4 000354   000442 710000 4                  TRA     s:5827
         4 000355   001537 710000 4                  TRA     s:6198
         4 000356   000442 710000 4                  TRA     s:5827
         4 000357   000442 710000 4                  TRA     s:5827
         4 000360   001537 710000 4                  TRA     s:6198
         4 000361   001537 710000 4                  TRA     s:6198
         4 000362   001537 710000 4                  TRA     s:6198
         4 000363   001433 710000 4                  TRA     s:6152
         4 000364   001537 710000 4                  TRA     s:6198
         4 000365   000442 710000 4                  TRA     s:5827
         4 000366   000430 710000 4                  TRA     s:5817
         4 000367   001537 710000 4                  TRA     s:6198
         4 000370   000442 710000 4                  TRA     s:5827
         4 000371   001471 710000 4                  TRA     s:6168
PL6.E3A0      #001=VDW$LOAD File=VDW$WORKSPACE.:VDA5TSI                          FRI 07/04/97 11:41 Page:46
         4 000372   000712 710000 4                  TRA     s:5940
         4 000373   000757 710000 4                  TRA     s:5966
         4 000374   001057 710000 4                  TRA     s:6005
         4 000375   001123 710000 4                  TRA     s:6027
         4 000376   001173 710000 4                  TRA     s:6055
         4 000377   001240 710000 4                  TRA     s:6081
         4 000400   000442 710000 4                  TRA     s:5827
         4 000401   000442 710000 4                  TRA     s:5827
         4 000402   000430 710000 4                  TRA     s:5817
         4 000403   000442 710000 4                  TRA     s:5827
         4 000404   000442 710000 4                  TRA     s:5827
         4 000405   001403 710000 4                  TRA     s:6141
         4 000406   000442 710000 4                  TRA     s:5827
         4 000407   001537 710000 4                  TRA     s:6198
         4 000410   001514 710000 4                  TRA     s:6183
         4 000411   001514 710000 4                  TRA     s:6183
         4 000412   001514 710000 4                  TRA     s:6183
         4 000413   001514 710000 4                  TRA     s:6183
         4 000414   001514 710000 4                  TRA     s:6183
         4 000415   001514 710000 4                  TRA     s:6183
         4 000416   000625 710000 4                  TRA     s:5907
         4 000417   001537 710000 4                  TRA     s:6198
         4 000420   000430 710000 4                  TRA     s:5817
         4 000421   000656 710000 4                  TRA     s:5920
         4 000422   001537 710000 4                  TRA     s:6198
         4 000423   000430 710000 4                  TRA     s:5817
         4 000424   000571 710000 4                  TRA     s:5888
         4 000425   000454 710000 4                  TRA     s:5835
         4 000426   001537 710000 4                  TRA     s:6198
         4 000427   000442 710000 4                  TRA     s:5827

      388     5813
      389     5814    4               CASE (%CLS_TEXTC_REMOTE, %CLS_FILE_KEY, %CLS_NAME_SPEC,

      390     5815    4                %CLS_STRUCTURE_LEVEL);
      391     5816                      %POINTERIZE (PTR=VD$STRING_HEADER.FLINK$);

PL6.E3A0      #001=VDW$LOAD File=VDW$WORKSPACE.:VDA5TSI                          FRI 07/04/97 11:41 Page:47
   5817  4 000430   000001 235100                    LDA     1,,PR0
         4 000431   000435 601000 4                  TNZ     s:5820

   5818  4 000432   000001 236000 xsym               LDQ     B_VECTNIL+1
         4 000433   000001 756100                    STQ     1,,PR0
         4 000434   001540 710000 4                  TRA     s:6202

   5820  4 000435   000001 236100                    LDQ     1,,PR0
         4 000436   000022 736000                    QLS     18
         4 000437   200006 036100                    ADLQ    ENCODED_NODE$,,AUTO
         4 000440   000001 756100                    STQ     1,,PR0
         4 000441   001540 710000 4                  TRA     s:6202

      392     5822
      393     5823    4               CASE (%CLS_BUFFER, %CLS_NUMBER, %CLS_BOOLEAN, %CLS_FILE_STCLASS,

      394     5824    4                   %CLS_ORG, %CLS_KEY_TYPE, %CLS_EXIST, %CLS_NAME_DATA_TYPE,
      395     5825    4                   %CLS_COMPONENT, %CLS_POINT, %CLS_DIRECTION, %CLS_PROTECT);
      396     5826                      %POINTERIZE (PTR=VD$BUFFER_HEADER.FLINK$);

   5827  4 000442   000001 235100                    LDA     1,,PR0
         4 000443   000447 601000 4                  TNZ     s:5830

   5828  4 000444   000001 236000 xsym               LDQ     B_VECTNIL+1
         4 000445   000001 756100                    STQ     1,,PR0
         4 000446   001540 710000 4                  TRA     s:6202

   5830  4 000447   000001 236100                    LDQ     1,,PR0
         4 000450   000022 736000                    QLS     18
         4 000451   200006 036100                    ADLQ    ENCODED_NODE$,,AUTO
         4 000452   000001 756100                    STQ     1,,PR0
         4 000453   001540 710000 4                  TRA     s:6202

      397     5832
      398     5833    4               CASE (%CLS_WINDOW_SPEC);

      399     5834                      %POINTERIZE (PTR=VD$WINDOW_SPEC.FLINK$);
PL6.E3A0      #001=VDW$LOAD File=VDW$WORKSPACE.:VDA5TSI                          FRI 07/04/97 11:41 Page:48

   5835  4 000454   000001 235100                    LDA     1,,PR0
         4 000455   000461 601000 4                  TNZ     s:5838

   5836  4 000456   000001 236000 xsym               LDQ     B_VECTNIL+1
         4 000457   000001 756100                    STQ     1,,PR0
         4 000460   000465 710000 4                  TRA     s:5840

   5838  4 000461   000001 236100                    LDQ     1,,PR0
         4 000462   000022 736000                    QLS     18
         4 000463   200006 036100                    ADLQ    ENCODED_NODE$,,AUTO
         4 000464   000001 756100                    STQ     1,,PR0

      400     5840    4                 VD$WINDOW_SPEC.OPERAND.STREAM$ = ADDR(NIL);

   5840  4 000465   000001 236000 xsym               LDQ     B_VECTNIL+1
         4 000466   000010 756100                    STQ     8,,PR0

      401     5841                      %POINTERIZE (PTR=VD$WINDOW_SPEC.OPERAND.INTREE$);

   5842  4 000467   000011 235100                    LDA     9,,PR0
         4 000470   000473 601000 4                  TNZ     s:5845

   5843  4 000471   000011 756100                    STQ     9,,PR0
         4 000472   000477 710000 4                  TRA     s:5848

   5845  4 000473   000011 236100                    LDQ     9,,PR0
         4 000474   000022 736000                    QLS     18
         4 000475   200006 036100                    ADLQ    ENCODED_NODE$,,AUTO
         4 000476   000011 756100                    STQ     9,,PR0

      402     5847                      %POINTERIZE (PTR=VD$WINDOW_SPEC.OPERAND.EDIT_BLOCK$);

   5848  4 000477   000012 235100                    LDA     10,,PR0
         4 000500   000504 601000 4                  TNZ     s:5851

   5849  4 000501   000001 236000 xsym               LDQ     B_VECTNIL+1
PL6.E3A0      #001=VDW$LOAD File=VDW$WORKSPACE.:VDA5TSI                          FRI 07/04/97 11:41 Page:49
         4 000502   000012 756100                    STQ     10,,PR0
         4 000503   000510 710000 4                  TRA     s:5854

   5851  4 000504   000012 236100                    LDQ     10,,PR0
         4 000505   000022 736000                    QLS     18
         4 000506   200006 036100                    ADLQ    ENCODED_NODE$,,AUTO
         4 000507   000012 756100                    STQ     10,,PR0

      403     5853                      %POINTERIZE (PTR=VD$WINDOW_SPEC.OPERAND.EVAL$);

   5854  4 000510   000013 235100                    LDA     11,,PR0
         4 000511   000515 601000 4                  TNZ     s:5857

   5855  4 000512   000001 236000 xsym               LDQ     B_VECTNIL+1
         4 000513   000013 756100                    STQ     11,,PR0
         4 000514   000521 710000 4                  TRA     s:5860

   5857  4 000515   000013 236100                    LDQ     11,,PR0
         4 000516   000022 736000                    QLS     18
         4 000517   200006 036100                    ADLQ    ENCODED_NODE$,,AUTO
         4 000520   000013 756100                    STQ     11,,PR0

      404     5859                      %POINTERIZE (PTR=VD$WINDOW_SPEC.RECORD_SET$);

   5860  4 000521   000016 235100                    LDA     14,,PR0
         4 000522   000526 601000 4                  TNZ     s:5863

   5861  4 000523   000001 236000 xsym               LDQ     B_VECTNIL+1
         4 000524   000016 756100                    STQ     14,,PR0
         4 000525   000532 710000 4                  TRA     s:5866

   5863  4 000526   000016 236100                    LDQ     14,,PR0
         4 000527   000022 736000                    QLS     18
         4 000530   200006 036100                    ADLQ    ENCODED_NODE$,,AUTO
         4 000531   000016 756100                    STQ     14,,PR0

      405     5865                      %POINTERIZE (PTR=VD$WINDOW_SPEC.KEY_DEFINITION_BUFFER$);
PL6.E3A0      #001=VDW$LOAD File=VDW$WORKSPACE.:VDA5TSI                          FRI 07/04/97 11:41 Page:50

   5866  4 000532   000030 235100                    LDA     24,,PR0
         4 000533   000537 601000 4                  TNZ     s:5869

   5867  4 000534   000001 236000 xsym               LDQ     B_VECTNIL+1
         4 000535   000030 756100                    STQ     24,,PR0
         4 000536   000543 710000 4                  TRA     s:5872

   5869  4 000537   000030 236100                    LDQ     24,,PR0
         4 000540   000022 736000                    QLS     18
         4 000541   200006 036100                    ADLQ    ENCODED_NODE$,,AUTO
         4 000542   000030 756100                    STQ     24,,PR0

      406     5871                      %POINTERIZE (PTR=VD$WINDOW_SPEC.TABS$);

   5872  4 000543   000024 235100                    LDA     20,,PR0
         4 000544   000550 601000 4                  TNZ     s:5875

   5873  4 000545   000001 236000 xsym               LDQ     B_VECTNIL+1
         4 000546   000024 756100                    STQ     20,,PR0
         4 000547   000554 710000 4                  TRA     s:5877

   5875  4 000550   000024 236100                    LDQ     20,,PR0
         4 000551   000022 736000                    QLS     18
         4 000552   200006 036100                    ADLQ    ENCODED_NODE$,,AUTO
         4 000553   000024 756100                    STQ     20,,PR0

      407     5877    5                 IF VD$WINDOW_SPEC.EOFMARK$~=ADDR(NIL) THEN DO;

   5877  4 000554   000025 236100                    LDQ     21,,PR0
         4 000555   000001 116000 xsym               CMPQ    B_VECTNIL+1
         4 000556   001540 600000 4                  TZE     s:6202

      408     5878                         %POINTERIZE (PTR=VD$WINDOW_SPEC.EOFMARK$);

   5879  4 000557   000025 235100                    LDA     21,,PR0
         4 000560   000564 601000 4                  TNZ     s:5882
PL6.E3A0      #001=VDW$LOAD File=VDW$WORKSPACE.:VDA5TSI                          FRI 07/04/97 11:41 Page:51

   5880  4 000561   000001 236000 xsym               LDQ     B_VECTNIL+1
         4 000562   000025 756100                    STQ     21,,PR0
         4 000563   001540 710000 4                  TRA     s:6202

   5882  4 000564   000025 236100                    LDQ     21,,PR0
         4 000565   000022 736000                    QLS     18
         4 000566   200006 036100                    ADLQ    ENCODED_NODE$,,AUTO
         4 000567   000025 756100                    STQ     21,,PR0

      409     5884    5                    END;

   5884  4 000570   001540 710000 4                  TRA     s:6202

      410     5885
      411     5886    4               CASE (%CLS_WINDOW_BLOCK);

      412     5887                      %POINTERIZE (PTR=VD$WINDOW_BLOCK.FLINK$);

   5888  4 000571   000001 235100                    LDA     1,,PR0
         4 000572   000576 601000 4                  TNZ     s:5891

   5889  4 000573   000001 236000 xsym               LDQ     B_VECTNIL+1
         4 000574   000001 756100                    STQ     1,,PR0
         4 000575   000602 710000 4                  TRA     s:5894

   5891  4 000576   000001 236100                    LDQ     1,,PR0
         4 000577   000022 736000                    QLS     18
         4 000600   200006 036100                    ADLQ    ENCODED_NODE$,,AUTO
         4 000601   000001 756100                    STQ     1,,PR0

      413     5893                      %POINTERIZE (PTR=VD$WINDOW_BLOCK.EDIT_BLOCK$);

   5894  4 000602   000003 235100                    LDA     3,,PR0
         4 000603   000607 601000 4                  TNZ     s:5897

   5895  4 000604   000001 236000 xsym               LDQ     B_VECTNIL+1
PL6.E3A0      #001=VDW$LOAD File=VDW$WORKSPACE.:VDA5TSI                          FRI 07/04/97 11:41 Page:52
         4 000605   000003 756100                    STQ     3,,PR0
         4 000606   000613 710000 4                  TRA     s:5900

   5897  4 000607   000003 236100                    LDQ     3,,PR0
         4 000610   000022 736000                    QLS     18
         4 000611   200006 036100                    ADLQ    ENCODED_NODE$,,AUTO
         4 000612   000003 756100                    STQ     3,,PR0

      414     5899                      %POINTERIZE (PTR=VD$WINDOW_BLOCK.EVAL$);

   5900  4 000613   000004 235100                    LDA     4,,PR0
         4 000614   000620 601000 4                  TNZ     s:5903

   5901  4 000615   000001 236000 xsym               LDQ     B_VECTNIL+1
         4 000616   000004 756100                    STQ     4,,PR0
         4 000617   001540 710000 4                  TRA     s:6202

   5903  4 000620   000004 236100                    LDQ     4,,PR0
         4 000621   000022 736000                    QLS     18
         4 000622   200006 036100                    ADLQ    ENCODED_NODE$,,AUTO
         4 000623   000004 756100                    STQ     4,,PR0
         4 000624   001540 710000 4                  TRA     s:6202

      415     5905
      416     5906    4               CASE (%CLS_RECORD_SET);

      417     5907    5                 DO I = 0 TO (VD$RECORD_SET.N_ENTRIES# - 1);

   5907  4 000625   200021 450100                    STZ     I,,AUTO
         4 000626   000651 710000 4                  TRA     s:5916+1

      418     5908    6                    IF VD$RECORD_SET.DESC.KEY.REP# (I) = %REP_REMOTE THEN DO;

   5908  4 000627   200021 236100                    LDQ     I,,AUTO
         4 000630   000006 402007                    MPY     6,DL
         4 000631   200017 470500                    LDP0    OBJECT_HEADER$,,AUTO
         4 000632   000003 720106                    LXL0    3,QL,PR0
PL6.E3A0      #001=VDW$LOAD File=VDW$WORKSPACE.:VDA5TSI                          FRI 07/04/97 11:41 Page:53
         4 000633   000002 100003                    CMPX0   2,DU
         4 000634   000650 601000 4                  TNZ     s:5916

      419     5909                            %POINTERIZE (PTR="VD$RECORD_SET.DESC.KEY.V$ (I)");

   5910  4 000635   000004 235106                    LDA     4,QL,PR0
         4 000636   000643 601000 4                  TNZ     s:5913

   5911  4 000637   000000 621006                    EAX1    0,QL
         4 000640   000001 236000 xsym               LDQ     B_VECTNIL+1
         4 000641   000004 756111                    STQ     4,X1,PR0
         4 000642   000650 710000 4                  TRA     s:5916

   5913  4 000643   000000 621006                    EAX1    0,QL
         4 000644   000004 236106                    LDQ     4,QL,PR0
         4 000645   000022 736000                    QLS     18
         4 000646   200006 036100                    ADLQ    ENCODED_NODE$,,AUTO
         4 000647   000004 756111                    STQ     4,X1,PR0

      420     5915    6                       END;

      421     5916    5                    END;

   5916  4 000650   200021 054100                    AOS     I,,AUTO
         4 000651   000002 236100                    LDQ     2,,PR0
         4 000652   000022 732000                    QRS     18
         4 000653   200021 116100                    CMPQ    I,,AUTO
         4 000654   000627 605400 4                  TPNZ    s:5908
         4 000655   001540 710000 4                  TRA     s:6202

      422     5917
      423     5918    4               CASE (%CLS_STRUCTURE_SPEC);

      424     5919                      %POINTERIZE (PTR=VD$STRUCTURE_SPEC.FLINK$);

   5920  4 000656   000001 235100                    LDA     1,,PR0
         4 000657   000663 601000 4                  TNZ     s:5923
PL6.E3A0      #001=VDW$LOAD File=VDW$WORKSPACE.:VDA5TSI                          FRI 07/04/97 11:41 Page:54

   5921  4 000660   000001 236000 xsym               LDQ     B_VECTNIL+1
         4 000661   000001 756100                    STQ     1,,PR0
         4 000662   000667 710000 4                  TRA     s:5926

   5923  4 000663   000001 236100                    LDQ     1,,PR0
         4 000664   000022 736000                    QLS     18
         4 000665   200006 036100                    ADLQ    ENCODED_NODE$,,AUTO
         4 000666   000001 756100                    STQ     1,,PR0

      425     5925                      %POINTERIZE (PTR=VD$STRUCTURE_SPEC.ACCESSOR$);

   5926  4 000667   000003 235100                    LDA     3,,PR0
         4 000670   000674 601000 4                  TNZ     s:5929

   5927  4 000671   000001 236000 xsym               LDQ     B_VECTNIL+1
         4 000672   000003 756100                    STQ     3,,PR0
         4 000673   000700 710000 4                  TRA     s:5932

   5929  4 000674   000003 236100                    LDQ     3,,PR0
         4 000675   000022 736000                    QLS     18
         4 000676   200006 036100                    ADLQ    ENCODED_NODE$,,AUTO
         4 000677   000003 756100                    STQ     3,,PR0

      426     5931                      %POINTERIZE (PTR=VD$STRUCTURE_SPEC.FIT$);

   5932  4 000700   000004 235100                    LDA     4,,PR0
         4 000701   000705 601000 4                  TNZ     s:5935

   5933  4 000702   000001 236000 xsym               LDQ     B_VECTNIL+1
         4 000703   000004 756100                    STQ     4,,PR0
         4 000704   001540 710000 4                  TRA     s:6202

   5935  4 000705   000004 236100                    LDQ     4,,PR0
         4 000706   000022 736000                    QLS     18
         4 000707   200006 036100                    ADLQ    ENCODED_NODE$,,AUTO
         4 000710   000004 756100                    STQ     4,,PR0
PL6.E3A0      #001=VDW$LOAD File=VDW$WORKSPACE.:VDA5TSI                          FRI 07/04/97 11:41 Page:55
         4 000711   001540 710000 4                  TRA     s:6202

      427     5937
      428     5938    4               CASE (%CLS_IT_ADJUST);

      429     5939                      %POINTERIZE (PTR=VD$IT_ADJUST.PARENT$);

   5940  4 000712   000001 235100                    LDA     1,,PR0
         4 000713   000717 601000 4                  TNZ     s:5943

   5941  4 000714   000001 236000 xsym               LDQ     B_VECTNIL+1
         4 000715   000001 756100                    STQ     1,,PR0
         4 000716   000723 710000 4                  TRA     s:5946

   5943  4 000717   000001 236100                    LDQ     1,,PR0
         4 000720   000022 736000                    QLS     18
         4 000721   200006 036100                    ADLQ    ENCODED_NODE$,,AUTO
         4 000722   000001 756100                    STQ     1,,PR0

      430     5945                      %POINTERIZE (PTR=VD$IT_ADJUST.FLINK$);

   5946  4 000723   000002 235100                    LDA     2,,PR0
         4 000724   000730 601000 4                  TNZ     s:5949

   5947  4 000725   000001 236000 xsym               LDQ     B_VECTNIL+1
         4 000726   000002 756100                    STQ     2,,PR0
         4 000727   000734 710000 4                  TRA     s:5952

   5949  4 000730   000002 236100                    LDQ     2,,PR0
         4 000731   000022 736000                    QLS     18
         4 000732   200006 036100                    ADLQ    ENCODED_NODE$,,AUTO
         4 000733   000002 756100                    STQ     2,,PR0

      431     5951                      %POINTERIZE (PTR=VD$IT_ADJUST.MOVEMENTS$);

   5952  4 000734   000004 235100                    LDA     4,,PR0
         4 000735   000741 601000 4                  TNZ     s:5955
PL6.E3A0      #001=VDW$LOAD File=VDW$WORKSPACE.:VDA5TSI                          FRI 07/04/97 11:41 Page:56

   5953  4 000736   000001 236000 xsym               LDQ     B_VECTNIL+1
         4 000737   000004 756100                    STQ     4,,PR0
         4 000740   000745 710000 4                  TRA     s:5958

   5955  4 000741   000004 236100                    LDQ     4,,PR0
         4 000742   000022 736000                    QLS     18
         4 000743   200006 036100                    ADLQ    ENCODED_NODE$,,AUTO
         4 000744   000004 756100                    STQ     4,,PR0

      432     5957                      %POINTERIZE (PTR=VD$IT_ADJUST.MOVEMENTS_TAIL$);

   5958  4 000745   000005 235100                    LDA     5,,PR0
         4 000746   000752 601000 4                  TNZ     s:5961

   5959  4 000747   000001 236000 xsym               LDQ     B_VECTNIL+1
         4 000750   000005 756100                    STQ     5,,PR0
         4 000751   001540 710000 4                  TRA     s:6202

   5961  4 000752   000005 236100                    LDQ     5,,PR0
         4 000753   000022 736000                    QLS     18
         4 000754   200006 036100                    ADLQ    ENCODED_NODE$,,AUTO
         4 000755   000005 756100                    STQ     5,,PR0
         4 000756   001540 710000 4                  TRA     s:6202

      433     5963
      434     5964    4               CASE (%CLS_IT_BLOCK_EXPR);

      435     5965                      %POINTERIZE (PTR=VD$IT_BLOCK_EXPR.FLINK$);

   5966  4 000757   000002 235100                    LDA     2,,PR0
         4 000760   000764 601000 4                  TNZ     s:5969

   5967  4 000761   000001 236000 xsym               LDQ     B_VECTNIL+1
         4 000762   000002 756100                    STQ     2,,PR0
         4 000763   000770 710000 4                  TRA     s:5971

PL6.E3A0      #001=VDW$LOAD File=VDW$WORKSPACE.:VDA5TSI                          FRI 07/04/97 11:41 Page:57
   5969  4 000764   000002 236100                    LDQ     2,,PR0
         4 000765   000022 736000                    QLS     18
         4 000766   200006 036100                    ADLQ    ENCODED_NODE$,,AUTO
         4 000767   000002 756100                    STQ     2,,PR0

      436     5971    5                 IF VD$IT_BLOCK_EXPR.DOMAINN.FILE_KEY.REP# = %REP_REMOTE THEN DO;

   5971  4 000770   000004 721100                    LXL1    4,,PR0
         4 000771   000002 101003                    CMPX1   2,DU
         4 000772   001004 601000 4                  TNZ     s:5979

      437     5972                         %POINTERIZE (PTR=VD$IT_BLOCK_EXPR.DOMAINN.FILE_KEY.V$);

   5973  4 000773   000005 235100                    LDA     5,,PR0
         4 000774   001000 601000 4                  TNZ     s:5976

   5974  4 000775   000001 236000 xsym               LDQ     B_VECTNIL+1
         4 000776   000005 756100                    STQ     5,,PR0
         4 000777   001004 710000 4                  TRA     s:5979

   5976  4 001000   000005 236100                    LDQ     5,,PR0
         4 001001   000022 736000                    QLS     18
         4 001002   200006 036100                    ADLQ    ENCODED_NODE$,,AUTO
         4 001003   000005 756100                    STQ     5,,PR0

      438     5978    5                    END;

      439     5979    4                 CALL POINTERIZE_LOCATION (VD$IT_BLOCK_EXPR.DOMAINN.RANGE.START);

   5979  4 001004   200017 236100                    LDQ     OBJECT_HEADER$,,AUTO
         4 001005   000006 036003                    ADLQ    6,DU
         4 001006   200023 756100                    STQ     I+2,,AUTO
         4 001007   001775 701000 4                  TSX1    POINTERIZE_LOCATION
         4 001010   000000 011000                    NOP     0

      440     5980    4                 CALL POINTERIZE_LOCATION (VD$IT_BLOCK_EXPR.DOMAINN.RANGE.ENDD);

PL6.E3A0      #001=VDW$LOAD File=VDW$WORKSPACE.:VDA5TSI                          FRI 07/04/97 11:41 Page:58
   5980  4 001011   200017 236100                    LDQ     OBJECT_HEADER$,,AUTO
         4 001012   000017 036003                    ADLQ    15,DU
         4 001013   200023 756100                    STQ     I+2,,AUTO
         4 001014   001775 701000 4                  TSX1    POINTERIZE_LOCATION
         4 001015   000000 011000                    NOP     0

      441     5981    4                 VD$IT_BLOCK_EXPR.OPTIONS.STRUCTURE$ = ADDR(NIL);

   5981  4 001016   000001 236000 xsym               LDQ     B_VECTNIL+1
         4 001017   200017 470500                    LDP0    OBJECT_HEADER$,,AUTO
         4 001020   000030 756100                    STQ     24,,PR0

      442     5982    5                 IF VD$IT_BLOCK_EXPR.OPTIONS.KEY_INCR.REP# = %REP_REMOTE THEN DO;

   5982  4 001021   000033 720100                    LXL0    27,,PR0
         4 001022   000002 100003                    CMPX0   2,DU
         4 001023   001034 601000 4                  TNZ     s:5991

      443     5983                         %POINTERIZE (PTR=VD$IT_BLOCK_EXPR.OPTIONS.KEY_INCR.V$);

   5984  4 001024   000034 235100                    LDA     28,,PR0
         4 001025   001030 601000 4                  TNZ     s:5987

   5985  4 001026   000034 756100                    STQ     28,,PR0
         4 001027   001034 710000 4                  TRA     s:5991

   5987  4 001030   000034 236100                    LDQ     28,,PR0
         4 001031   000022 736000                    QLS     18
         4 001032   200006 036100                    ADLQ    ENCODED_NODE$,,AUTO
         4 001033   000034 756100                    STQ     28,,PR0

      444     5989    5                    END;

      445     5990                      %POINTERIZE (PTR=VD$IT_BLOCK_EXPR.SELECTS$);

   5991  4 001034   000035 235100                    LDA     29,,PR0
         4 001035   001041 601000 4                  TNZ     s:5994
PL6.E3A0      #001=VDW$LOAD File=VDW$WORKSPACE.:VDA5TSI                          FRI 07/04/97 11:41 Page:59

   5992  4 001036   000001 236000 xsym               LDQ     B_VECTNIL+1
         4 001037   000035 756100                    STQ     29,,PR0
         4 001040   001045 710000 4                  TRA     s:5997

   5994  4 001041   000035 236100                    LDQ     29,,PR0
         4 001042   000022 736000                    QLS     18
         4 001043   200006 036100                    ADLQ    ENCODED_NODE$,,AUTO
         4 001044   000035 756100                    STQ     29,,PR0

      446     5996                      %POINTERIZE (PTR=VD$IT_BLOCK_EXPR.SELECTS_TAIL$);

   5997  4 001045   000036 235100                    LDA     30,,PR0
         4 001046   001052 601000 4                  TNZ     s:6000

   5998  4 001047   000001 236000 xsym               LDQ     B_VECTNIL+1
         4 001050   000036 756100                    STQ     30,,PR0
         4 001051   001540 710000 4                  TRA     s:6202

   6000  4 001052   000036 236100                    LDQ     30,,PR0
         4 001053   000022 736000                    QLS     18
         4 001054   200006 036100                    ADLQ    ENCODED_NODE$,,AUTO
         4 001055   000036 756100                    STQ     30,,PR0
         4 001056   001540 710000 4                  TRA     s:6202

      447     6002
      448     6003    4               CASE (%CLS_IT_COMMAND);

      449     6004                      %POINTERIZE (PTR=VD$IT_COMMAND.PARENT$);

   6005  4 001057   000001 235100                    LDA     1,,PR0
         4 001060   001064 601000 4                  TNZ     s:6008

   6006  4 001061   000001 236000 xsym               LDQ     B_VECTNIL+1
         4 001062   000001 756100                    STQ     1,,PR0
         4 001063   001070 710000 4                  TRA     s:6011

PL6.E3A0      #001=VDW$LOAD File=VDW$WORKSPACE.:VDA5TSI                          FRI 07/04/97 11:41 Page:60
   6008  4 001064   000001 236100                    LDQ     1,,PR0
         4 001065   000022 736000                    QLS     18
         4 001066   200006 036100                    ADLQ    ENCODED_NODE$,,AUTO
         4 001067   000001 756100                    STQ     1,,PR0

      450     6010                      %POINTERIZE (PTR=VD$IT_COMMAND.FLINK$);

   6011  4 001070   000002 235100                    LDA     2,,PR0
         4 001071   001075 601000 4                  TNZ     s:6014

   6012  4 001072   000001 236000 xsym               LDQ     B_VECTNIL+1
         4 001073   000002 756100                    STQ     2,,PR0
         4 001074   001101 710000 4                  TRA     s:6016

   6014  4 001075   000002 236100                    LDQ     2,,PR0
         4 001076   000022 736000                    QLS     18
         4 001077   200006 036100                    ADLQ    ENCODED_NODE$,,AUTO
         4 001100   000002 756100                    STQ     2,,PR0

      451     6016    5                 DO I = 0 TO %MX_COMMAND_PARAMS-1;

   6016  4 001101   200021 450100                    STZ     I,,AUTO
         4 001102   001117 710000 4                  TRA     s:6023+1

      452     6017                         %POINTERIZE (PTR="VD$IT_COMMAND.PARAM$ (I)");

   6018  4 001103   200017 470500                    LDP0    OBJECT_HEADER$,,AUTO
         4 001104   200021 720100                    LXL0    I,,AUTO
         4 001105   000006 235110                    LDA     6,X0,PR0
         4 001106   001112 601000 4                  TNZ     s:6021

   6019  4 001107   000001 236000 xsym               LDQ     B_VECTNIL+1
         4 001110   000006 756110                    STQ     6,X0,PR0
         4 001111   001116 710000 4                  TRA     s:6023

   6021  4 001112   000006 236110                    LDQ     6,X0,PR0
         4 001113   000022 736000                    QLS     18
PL6.E3A0      #001=VDW$LOAD File=VDW$WORKSPACE.:VDA5TSI                          FRI 07/04/97 11:41 Page:61
         4 001114   200006 036100                    ADLQ    ENCODED_NODE$,,AUTO
         4 001115   000006 756110                    STQ     6,X0,PR0

      453     6023    5                    END;

   6023  4 001116   200021 054100                    AOS     I,,AUTO
         4 001117   200021 235100                    LDA     I,,AUTO
         4 001120   000010 115007                    CMPA    8,DL
         4 001121   001103 604400 4                  TMOZ    s:6018
         4 001122   001540 710000 4                  TRA     s:6202

      454     6024
      455     6025    4               CASE (%CLS_IT_OPERAND);

      456     6026                      %POINTERIZE (PTR=VD$IT_OPERAND.PARENT$);

   6027  4 001123   000001 235100                    LDA     1,,PR0
         4 001124   001130 601000 4                  TNZ     s:6030

   6028  4 001125   000001 236000 xsym               LDQ     B_VECTNIL+1
         4 001126   000001 756100                    STQ     1,,PR0
         4 001127   001134 710000 4                  TRA     s:6033

   6030  4 001130   000001 236100                    LDQ     1,,PR0
         4 001131   000022 736000                    QLS     18
         4 001132   200006 036100                    ADLQ    ENCODED_NODE$,,AUTO
         4 001133   000001 756100                    STQ     1,,PR0

      457     6032                      %POINTERIZE (PTR=VD$IT_OPERAND.FLINK$);

   6033  4 001134   000002 235100                    LDA     2,,PR0
         4 001135   001141 601000 4                  TNZ     s:6036

   6034  4 001136   000001 236000 xsym               LDQ     B_VECTNIL+1
         4 001137   000002 756100                    STQ     2,,PR0
         4 001140   001145 710000 4                  TRA     s:6038

PL6.E3A0      #001=VDW$LOAD File=VDW$WORKSPACE.:VDA5TSI                          FRI 07/04/97 11:41 Page:62
   6036  4 001141   000002 236100                    LDQ     2,,PR0
         4 001142   000022 736000                    QLS     18
         4 001143   200006 036100                    ADLQ    ENCODED_NODE$,,AUTO
         4 001144   000002 756100                    STQ     2,,PR0

      458     6038    5                 IF VD$IT_OPERAND.KEY.REP# = %REP_REMOTE THEN DO;

   6038  4 001145   000006 721100                    LXL1    6,,PR0
         4 001146   000002 101003                    CMPX1   2,DU
         4 001147   001161 601000 4                  TNZ     s:6047

      459     6039                         %POINTERIZE (PTR=VD$IT_OPERAND.KEY.V$);

   6040  4 001150   000007 235100                    LDA     7,,PR0
         4 001151   001155 601000 4                  TNZ     s:6043

   6041  4 001152   000001 236000 xsym               LDQ     B_VECTNIL+1
         4 001153   000007 756100                    STQ     7,,PR0
         4 001154   001161 710000 4                  TRA     s:6047

   6043  4 001155   000007 236100                    LDQ     7,,PR0
         4 001156   000022 736000                    QLS     18
         4 001157   200006 036100                    ADLQ    ENCODED_NODE$,,AUTO
         4 001160   000007 756100                    STQ     7,,PR0

      460     6045    5                    END;

      461     6046                      %POINTERIZE (PTR=VD$IT_OPERAND.PARAM$);

   6047  4 001161   000010 235100                    LDA     8,,PR0
         4 001162   001166 601000 4                  TNZ     s:6050

   6048  4 001163   000001 236000 xsym               LDQ     B_VECTNIL+1
         4 001164   000010 756100                    STQ     8,,PR0
         4 001165   001540 710000 4                  TRA     s:6202

   6050  4 001166   000010 236100                    LDQ     8,,PR0
PL6.E3A0      #001=VDW$LOAD File=VDW$WORKSPACE.:VDA5TSI                          FRI 07/04/97 11:41 Page:63
         4 001167   000022 736000                    QLS     18
         4 001170   200006 036100                    ADLQ    ENCODED_NODE$,,AUTO
         4 001171   000010 756100                    STQ     8,,PR0
         4 001172   001540 710000 4                  TRA     s:6202

      462     6052
      463     6053    4               CASE (%CLS_IT_OPERATOR);

      464     6054                      %POINTERIZE (PTR=VD$IT_OPERATOR.PARENT$);

   6055  4 001173   000001 235100                    LDA     1,,PR0
         4 001174   001200 601000 4                  TNZ     s:6058

   6056  4 001175   000001 236000 xsym               LDQ     B_VECTNIL+1
         4 001176   000001 756100                    STQ     1,,PR0
         4 001177   001204 710000 4                  TRA     s:6061

   6058  4 001200   000001 236100                    LDQ     1,,PR0
         4 001201   000022 736000                    QLS     18
         4 001202   200006 036100                    ADLQ    ENCODED_NODE$,,AUTO
         4 001203   000001 756100                    STQ     1,,PR0

      465     6060                      %POINTERIZE (PTR=VD$IT_OPERATOR.FLINK$);

   6061  4 001204   000002 235100                    LDA     2,,PR0
         4 001205   001211 601000 4                  TNZ     s:6064

   6062  4 001206   000001 236000 xsym               LDQ     B_VECTNIL+1
         4 001207   000002 756100                    STQ     2,,PR0
         4 001210   001215 710000 4                  TRA     s:6067

   6064  4 001211   000002 236100                    LDQ     2,,PR0
         4 001212   000022 736000                    QLS     18
         4 001213   200006 036100                    ADLQ    ENCODED_NODE$,,AUTO
         4 001214   000002 756100                    STQ     2,,PR0

      466     6066                      %POINTERIZE (PTR=VD$IT_OPERATOR.OPERAND$);
PL6.E3A0      #001=VDW$LOAD File=VDW$WORKSPACE.:VDA5TSI                          FRI 07/04/97 11:41 Page:64

   6067  4 001215   000004 235100                    LDA     4,,PR0
         4 001216   001222 601000 4                  TNZ     s:6070

   6068  4 001217   000001 236000 xsym               LDQ     B_VECTNIL+1
         4 001220   000004 756100                    STQ     4,,PR0
         4 001221   001226 710000 4                  TRA     s:6073

   6070  4 001222   000004 236100                    LDQ     4,,PR0
         4 001223   000022 736000                    QLS     18
         4 001224   200006 036100                    ADLQ    ENCODED_NODE$,,AUTO
         4 001225   000004 756100                    STQ     4,,PR0

      467     6072                      %POINTERIZE (PTR=VD$IT_OPERATOR.R_OPERAND$);

   6073  4 001226   000005 235100                    LDA     5,,PR0
         4 001227   001233 601000 4                  TNZ     s:6076

   6074  4 001230   000001 236000 xsym               LDQ     B_VECTNIL+1
         4 001231   000005 756100                    STQ     5,,PR0
         4 001232   001540 710000 4                  TRA     s:6202

   6076  4 001233   000005 236100                    LDQ     5,,PR0
         4 001234   000022 736000                    QLS     18
         4 001235   200006 036100                    ADLQ    ENCODED_NODE$,,AUTO
         4 001236   000005 756100                    STQ     5,,PR0
         4 001237   001540 710000 4                  TRA     s:6202

      468     6078
      469     6079    4               CASE (%CLS_IT_SELECT);

      470     6080                      %POINTERIZE (PTR=VD$IT_SELECT.PARENT$);

   6081  4 001240   000001 235100                    LDA     1,,PR0
         4 001241   001245 601000 4                  TNZ     s:6084

   6082  4 001242   000001 236000 xsym               LDQ     B_VECTNIL+1
PL6.E3A0      #001=VDW$LOAD File=VDW$WORKSPACE.:VDA5TSI                          FRI 07/04/97 11:41 Page:65
         4 001243   000001 756100                    STQ     1,,PR0
         4 001244   001251 710000 4                  TRA     s:6087

   6084  4 001245   000001 236100                    LDQ     1,,PR0
         4 001246   000022 736000                    QLS     18
         4 001247   200006 036100                    ADLQ    ENCODED_NODE$,,AUTO
         4 001250   000001 756100                    STQ     1,,PR0

      471     6086                      %POINTERIZE (PTR=VD$IT_SELECT.FLINK$);

   6087  4 001251   000002 235100                    LDA     2,,PR0
         4 001252   001256 601000 4                  TNZ     s:6090

   6088  4 001253   000001 236000 xsym               LDQ     B_VECTNIL+1
         4 001254   000002 756100                    STQ     2,,PR0
         4 001255   001262 710000 4                  TRA     s:6093

   6090  4 001256   000002 236100                    LDQ     2,,PR0
         4 001257   000022 736000                    QLS     18
         4 001260   200006 036100                    ADLQ    ENCODED_NODE$,,AUTO
         4 001261   000002 756100                    STQ     2,,PR0

      472     6092                      %POINTERIZE (PTR=VD$IT_SELECT.ADJUSTS$);

   6093  4 001262   000004 235100                    LDA     4,,PR0
         4 001263   001267 601000 4                  TNZ     s:6096

   6094  4 001264   000001 236000 xsym               LDQ     B_VECTNIL+1
         4 001265   000004 756100                    STQ     4,,PR0
         4 001266   001273 710000 4                  TRA     s:6099

   6096  4 001267   000004 236100                    LDQ     4,,PR0
         4 001270   000022 736000                    QLS     18
         4 001271   200006 036100                    ADLQ    ENCODED_NODE$,,AUTO
         4 001272   000004 756100                    STQ     4,,PR0

      473     6098                      %POINTERIZE (PTR=VD$IT_SELECT.ADJUSTS_TAIL$);
PL6.E3A0      #001=VDW$LOAD File=VDW$WORKSPACE.:VDA5TSI                          FRI 07/04/97 11:41 Page:66

   6099  4 001273   000005 235100                    LDA     5,,PR0
         4 001274   001300 601000 4                  TNZ     s:6102

   6100  4 001275   000001 236000 xsym               LDQ     B_VECTNIL+1
         4 001276   000005 756100                    STQ     5,,PR0
         4 001277   001540 710000 4                  TRA     s:6202

   6102  4 001300   000005 236100                    LDQ     5,,PR0
         4 001301   000022 736000                    QLS     18
         4 001302   200006 036100                    ADLQ    ENCODED_NODE$,,AUTO
         4 001303   000005 756100                    STQ     5,,PR0
         4 001304   001540 710000 4                  TRA     s:6202

      474     6104
      475     6105    4               CASE (%CLS_BLOCK_DESC, %CLS_BLOCK_BUFFER);

      476     6106    5                 IF VD$OBJECT_HEADER.CLASS# = %CLS_BLOCK_BUFFER THEN DO;

   6106  4 001305   000001 100003                    CMPX0   1,DU
         4 001306   001325 601000 4                  TNZ     s:6115

      477     6107                         %POINTERIZE (PTR=VD$BUFFER_HEADER.FLINK$);

   6108  4 001307   000001 235100                    LDA     1,,PR0
         4 001310   001314 601000 4                  TNZ     s:6111

   6109  4 001311   000001 236000 xsym               LDQ     B_VECTNIL+1
         4 001312   000001 756100                    STQ     1,,PR0
         4 001313   001320 710000 4                  TRA     s:6113

   6111  4 001314   000001 236100                    LDQ     1,,PR0
         4 001315   000022 736000                    QLS     18
         4 001316   200006 036100                    ADLQ    ENCODED_NODE$,,AUTO
         4 001317   000001 756100                    STQ     1,,PR0

      478     6113    5                    OBJECT_HEADER$ = PALIGNW(ADDR(VD$BUFFER.BYTES));
PL6.E3A0      #001=VDW$LOAD File=VDW$WORKSPACE.:VDA5TSI                          FRI 07/04/97 11:41 Page:67

   6113  4 001320   200017 236100                    LDQ     OBJECT_HEADER$,,AUTO
         4 001321   000005 036000 5                  ADLQ    5
         4 001322   770000 036007                    ADLQ    -4096,DL
         4 001323   000006 376000 5                  ANQ     6
         4 001324   200017 756100                    STQ     OBJECT_HEADER$,,AUTO

      479     6114    5                    END;

      480     6115    5                 IF VD$BLOCK_DESC.FILE_KEY.REP# = %REP_REMOTE THEN DO;

   6115  4 001325   200017 470500                    LDP0    OBJECT_HEADER$,,AUTO
         4 001326   000001 720100                    LXL0    1,,PR0
         4 001327   000002 100003                    CMPX0   2,DU
         4 001330   001342 601000 4                  TNZ     s:6123

      481     6116                         %POINTERIZE (PTR=VD$BLOCK_DESC.FILE_KEY.V$);

   6117  4 001331   000002 235100                    LDA     2,,PR0
         4 001332   001336 601000 4                  TNZ     s:6120

   6118  4 001333   000001 236000 xsym               LDQ     B_VECTNIL+1
         4 001334   000002 756100                    STQ     2,,PR0
         4 001335   001342 710000 4                  TRA     s:6123

   6120  4 001336   000002 236100                    LDQ     2,,PR0
         4 001337   000022 736000                    QLS     18
         4 001340   200006 036100                    ADLQ    ENCODED_NODE$,,AUTO
         4 001341   000002 756100                    STQ     2,,PR0

      482     6122    5                    END;

      483     6123    4                 CALL POINTERIZE_LOCATION (VD$BLOCK_DESC.RANGE.START);

   6123  4 001342   200017 236100                    LDQ     OBJECT_HEADER$,,AUTO
         4 001343   000003 036003                    ADLQ    3,DU
         4 001344   200023 756100                    STQ     I+2,,AUTO
PL6.E3A0      #001=VDW$LOAD File=VDW$WORKSPACE.:VDA5TSI                          FRI 07/04/97 11:41 Page:68
         4 001345   001775 701000 4                  TSX1    POINTERIZE_LOCATION
         4 001346   000000 011000                    NOP     0

      484     6124    4                 CALL POINTERIZE_LOCATION (VD$BLOCK_DESC.RANGE.ENDD);

   6124  4 001347   200017 236100                    LDQ     OBJECT_HEADER$,,AUTO
         4 001350   000014 036003                    ADLQ    12,DU
         4 001351   200023 756100                    STQ     I+2,,AUTO
         4 001352   001775 701000 4                  TSX1    POINTERIZE_LOCATION
         4 001353   000000 011000                    NOP     0

      485     6125                      %POINTERIZE (PTR=VD$BLOCK_DESC.OPTIONS.STRUCTURE$);

   6126  4 001354   200017 470500                    LDP0    OBJECT_HEADER$,,AUTO
         4 001355   000025 235100                    LDA     21,,PR0
         4 001356   001362 601000 4                  TNZ     s:6129

   6127  4 001357   000001 236000 xsym               LDQ     B_VECTNIL+1
         4 001360   000025 756100                    STQ     21,,PR0
         4 001361   001366 710000 4                  TRA     s:6131

   6129  4 001362   000025 236100                    LDQ     21,,PR0
         4 001363   000022 736000                    QLS     18
         4 001364   200006 036100                    ADLQ    ENCODED_NODE$,,AUTO
         4 001365   000025 756100                    STQ     21,,PR0

      486     6131    5                 IF VD$BLOCK_DESC.OPTIONS.KEY_INCR.REP# = %REP_REMOTE THEN DO;

   6131  4 001366   000030 720100                    LXL0    24,,PR0
         4 001367   000002 100003                    CMPX0   2,DU
         4 001370   001540 601000 4                  TNZ     s:6202

      487     6132                         %POINTERIZE (PTR=VD$BLOCK_DESC.OPTIONS.KEY_INCR.V$);

   6133  4 001371   000031 235100                    LDA     25,,PR0
         4 001372   001376 601000 4                  TNZ     s:6136

PL6.E3A0      #001=VDW$LOAD File=VDW$WORKSPACE.:VDA5TSI                          FRI 07/04/97 11:41 Page:69
   6134  4 001373   000001 236000 xsym               LDQ     B_VECTNIL+1
         4 001374   000031 756100                    STQ     25,,PR0
         4 001375   001540 710000 4                  TRA     s:6202

   6136  4 001376   000031 236100                    LDQ     25,,PR0
         4 001377   000022 736000                    QLS     18
         4 001400   200006 036100                    ADLQ    ENCODED_NODE$,,AUTO
         4 001401   000031 756100                    STQ     25,,PR0

      488     6138    5                    END;

   6138  4 001402   001540 710000 4                  TRA     s:6202

      489     6139
      490     6140    4               CASE (%CLS_PATTERN);

      491     6141    5                 DO I = 0 TO VD$PATTERN.N_ENTRIES# - 1;

   6141  4 001403   200021 450100                    STZ     I,,AUTO
         4 001404   001426 710000 4                  TRA     s:6148+1

      492     6142                         %POINTERIZE (PTR="VD$PATTERN.ENTRIES.MATCH$ (I)");

   6143  4 001405   200021 235100                    LDA     I,,AUTO
         4 001406   000002 735000                    ALS     2
         4 001407   200017 470500                    LDP0    OBJECT_HEADER$,,AUTO
         4 001410   000006 235105                    LDA     6,AL,PR0
         4 001411   001417 601000 4                  TNZ     s:6146

   6144  4 001412   200021 235100                    LDA     I,,AUTO
         4 001413   000002 735000                    ALS     2
         4 001414   000001 236000 xsym               LDQ     B_VECTNIL+1
         4 001415   000006 756105                    STQ     6,AL,PR0
         4 001416   001425 710000 4                  TRA     s:6148

   6146  4 001417   200021 235100                    LDA     I,,AUTO
         4 001420   000002 735000                    ALS     2
PL6.E3A0      #001=VDW$LOAD File=VDW$WORKSPACE.:VDA5TSI                          FRI 07/04/97 11:41 Page:70
         4 001421   000006 236105                    LDQ     6,AL,PR0
         4 001422   000022 736000                    QLS     18
         4 001423   200006 036100                    ADLQ    ENCODED_NODE$,,AUTO
         4 001424   000006 756105                    STQ     6,AL,PR0

      493     6148    5                    END;

   6148  4 001425   200021 054100                    AOS     I,,AUTO
         4 001426   000002 236100                    LDQ     2,,PR0
         4 001427   000022 732000                    QRS     18
         4 001430   200021 116100                    CMPQ    I,,AUTO
         4 001431   001405 605400 4                  TPNZ    s:6143
         4 001432   001540 710000 4                  TRA     s:6202

      494     6149
      495     6150    4               CASE (%CLS_EVAL);

      496     6151                      %POINTERIZE (PTR=VD$EVAL.BLINK$);

   6152  4 001433   000001 235100                    LDA     1,,PR0
         4 001434   001440 601000 4                  TNZ     s:6155

   6153  4 001435   000001 236000 xsym               LDQ     B_VECTNIL+1
         4 001436   000001 756100                    STQ     1,,PR0
         4 001437   001444 710000 4                  TRA     s:6157

   6155  4 001440   000001 236100                    LDQ     1,,PR0
         4 001441   000022 736000                    QLS     18
         4 001442   200006 036100                    ADLQ    ENCODED_NODE$,,AUTO
         4 001443   000001 756100                    STQ     1,,PR0

      497     6157    4                 CALL POINTERIZE_LOCATION (VD$EVAL.ENCLOSING.START);

   6157  4 001444   200017 236100                    LDQ     OBJECT_HEADER$,,AUTO
         4 001445   000002 036003                    ADLQ    2,DU
         4 001446   200023 756100                    STQ     I+2,,AUTO
         4 001447   001775 701000 4                  TSX1    POINTERIZE_LOCATION
PL6.E3A0      #001=VDW$LOAD File=VDW$WORKSPACE.:VDA5TSI                          FRI 07/04/97 11:41 Page:71
         4 001450   000000 011000                    NOP     0

      498     6158    4                 CALL POINTERIZE_LOCATION (VD$EVAL.ENCLOSING.ENDD);

   6158  4 001451   200017 236100                    LDQ     OBJECT_HEADER$,,AUTO
         4 001452   000013 036003                    ADLQ    11,DU
         4 001453   200023 756100                    STQ     I+2,,AUTO
         4 001454   001775 701000 4                  TSX1    POINTERIZE_LOCATION
         4 001455   000000 011000                    NOP     0

      499     6159    4                 CALL POINTERIZE_LOCATION (VD$EVAL.RANGE.START);

   6159  4 001456   200017 236100                    LDQ     OBJECT_HEADER$,,AUTO
         4 001457   000024 036003                    ADLQ    20,DU
         4 001460   200023 756100                    STQ     I+2,,AUTO
         4 001461   001775 701000 4                  TSX1    POINTERIZE_LOCATION
         4 001462   000000 011000                    NOP     0

      500     6160    4                 CALL POINTERIZE_LOCATION (VD$EVAL.RANGE.ENDD);

   6160  4 001463   200017 236100                    LDQ     OBJECT_HEADER$,,AUTO
         4 001464   000035 036003                    ADLQ    29,DU
         4 001465   200023 756100                    STQ     I+2,,AUTO
         4 001466   001775 701000 4                  TSX1    POINTERIZE_LOCATION
         4 001467   000000 011000                    NOP     0
         4 001470   001540 710000 4                  TRA     s:6202

      501     6161        /*N**N**N* How do we pointerize VD$EVAL.NODE$?  It can't be stored
      502     6162        **N**N**N*  in the same record.  Maybe store a "walking index":
      503     6163        **N**N**N*  count of # of node when walking the InTree?
      504     6164        **N**N**N*/
      505     6165
      506     6166    4               CASE (%CLS_FIT);

      507     6167                      %POINTERIZE (PTR=VD$FIT.CODE2$);

   6168  4 001471   000001 235100                    LDA     1,,PR0
PL6.E3A0      #001=VDW$LOAD File=VDW$WORKSPACE.:VDA5TSI                          FRI 07/04/97 11:41 Page:72
         4 001472   001476 601000 4                  TNZ     s:6171

   6169  4 001473   000001 236000 xsym               LDQ     B_VECTNIL+1
         4 001474   000001 756100                    STQ     1,,PR0
         4 001475   001502 710000 4                  TRA     s:6174

   6171  4 001476   000001 236100                    LDQ     1,,PR0
         4 001477   000022 736000                    QLS     18
         4 001500   200006 036100                    ADLQ    ENCODED_NODE$,,AUTO
         4 001501   000001 756100                    STQ     1,,PR0

      508     6173                      %POINTERIZE (PTR=VD$FIT.CODE3$);

   6174  4 001502   000002 235100                    LDA     2,,PR0
         4 001503   001507 601000 4                  TNZ     s:6177

   6175  4 001504   000001 236000 xsym               LDQ     B_VECTNIL+1
         4 001505   000002 756100                    STQ     2,,PR0
         4 001506   001540 710000 4                  TRA     s:6202

   6177  4 001507   000002 236100                    LDQ     2,,PR0
         4 001510   000022 736000                    QLS     18
         4 001511   200006 036100                    ADLQ    ENCODED_NODE$,,AUTO
         4 001512   000002 756100                    STQ     2,,PR0
         4 001513   001540 710000 4                  TRA     s:6202

      509     6179
      510     6180    4               CASE (%CLS_PTR_BLOCK_DESC, %CLS_PTR_FILE_NODE,

      511     6181    4                   %CLS_PTR_INTREE, %CLS_PTR_KEY, %CLS_PTR_LOCATION, %CLS_PTR_TEXTC);
      512     6182                      %POINTERIZE (PTR=VD$POINTER.FLINK$);

   6183  4 001514   000001 235100                    LDA     1,,PR0
         4 001515   001521 601000 4                  TNZ     s:6186

   6184  4 001516   000001 236000 xsym               LDQ     B_VECTNIL+1
         4 001517   000001 756100                    STQ     1,,PR0
PL6.E3A0      #001=VDW$LOAD File=VDW$WORKSPACE.:VDA5TSI                          FRI 07/04/97 11:41 Page:73
         4 001520   001525 710000 4                  TRA     s:6189

   6186  4 001521   000001 236100                    LDQ     1,,PR0
         4 001522   000022 736000                    QLS     18
         4 001523   200006 036100                    ADLQ    ENCODED_NODE$,,AUTO
         4 001524   000001 756100                    STQ     1,,PR0

      513     6188                      %POINTERIZE (PTR=VD$POINTER.V$);

   6189  4 001525   000003 235100                    LDA     3,,PR0
         4 001526   001532 601000 4                  TNZ     s:6192

   6190  4 001527   000001 236000 xsym               LDQ     B_VECTNIL+1
         4 001530   000003 756100                    STQ     3,,PR0
         4 001531   001540 710000 4                  TRA     s:6202

   6192  4 001532   000003 236100                    LDQ     3,,PR0
         4 001533   000022 736000                    QLS     18
         4 001534   200006 036100                    ADLQ    ENCODED_NODE$,,AUTO
         4 001535   000003 756100                    STQ     3,,PR0
         4 001536   001540 710000 4                  TRA     s:6202

      514     6194
      515     6195    4               CASE (%CLS_CMD_STREAM, %CLS_ENCODED_NODE, %CLS_DIR_NODE,

      516     6196    4                   %CLS_FILE_NODE, %CLS_STREAM, %CLS_PORT, ELSE);
      517     6197                      /* Invalid object class stored in workspace record */
      518     6198    4                 GOTO WS_FILE_INVALID_FAILURE;

   6198  4 001537   001710 710000 4                  TRA     INVALID_WORKSPACE_FAILURE

      519     6199
      520     6200    4               END OBJECT_TYPE_CASES;

      521     6201
      522     6202    3              IF VD$OBJECT_HEADER.SIZE# = 0 THEN

PL6.E3A0      #001=VDW$LOAD File=VDW$WORKSPACE.:VDA5TSI                          FRI 07/04/97 11:41 Page:74
   6202  4 001540   200017 470500                    LDP0    OBJECT_HEADER$,,AUTO
         4 001541   000000 720100                    LXL0    0,,PR0
         4 001542   001552 601000 4                  TNZ     s:6206

      523     6203    3                 OBJECT_HEADER$ = PINCRW(OBJECT_HEADER$,

   6203  4 001543   000000 221100                    LDX1    0,,PR0
         4 001544   000000 021100                    ADLX1   0,,PR0
         4 001545   000000 222011 xsym               LDX2    VD_OBJECTS,X1
         4 001546   000000 636012                    EAQ     0,X2
         4 001547   200017 036100                    ADLQ    OBJECT_HEADER$,,AUTO
         4 001550   200017 756100                    STQ     OBJECT_HEADER$,,AUTO
         4 001551   001555 710000 4                  TRA     s:6208

      524     6204    3                   VD_OBJECTS.SIZE (VD$OBJECT_HEADER.CLASS#));
      525     6205    3              ELSE
      526     6206    3                 OBJECT_HEADER$ = PINCRW(OBJECT_HEADER$,

   6206  4 001552   000000 636010                    EAQ     0,X0
         4 001553   200017 036100                    ADLQ    OBJECT_HEADER$,,AUTO
         4 001554   200017 756100                    STQ     OBJECT_HEADER$,,AUTO

      527     6207    3                   VD$OBJECT_HEADER.SIZE#);
      528     6208    3              END EACH_OBJECT;

   6208  4 001555   200017 235100                    LDA     OBJECT_HEADER$,,AUTO
         4 001556   000022 771000                    ARL     18
         4 001557   200062 755100                    STA     VLP_LINEATTR+16,,AUTO
         4 001560   200020 236100                    LDQ     OBJECT_LIMIT$,,AUTO
         4 001561   000022 772000                    QRL     18
         4 001562   200062 136100                    SBLQ    VLP_LINEATTR+16,,AUTO
         4 001563   000343 605400 4                  TPNZ    OBJECT_TYPE_CASES

      529     6209
      530     6210    2           OBJECT_HEADER$ = PINCRW(ENCODED_NODE$, SIZEW(ENCODED$NODE));

   6210  4 001564   200006 236100                    LDQ     ENCODED_NODE$,,AUTO
PL6.E3A0      #001=VDW$LOAD File=VDW$WORKSPACE.:VDA5TSI                          FRI 07/04/97 11:41 Page:75
         4 001565   000031 036003                    ADLQ    25,DU
         4 001566   200017 756100                    STQ     OBJECT_HEADER$,,AUTO

      531     6211
      532     6212    2   EACH_OBJECT_AGAIN:
      533     6213    3           DO WHILE (POFFW(OBJECT_LIMIT$, OBJECT_HEADER$) > 0);

   6213  4 001567   001677 710000 4     EACH_OBJECT* TRA     s:6236

      534     6214
      535     6215    3   OBJECT_TYPE_CASES_AGAIN:
      536     6216    4              DO CASE (VD$OBJECT_HEADER.CLASS#);

   6216  4 001570   200017 470500       OBJECT_TYPE* LDP0    OBJECT_HEADER$,,AUTO
         4 001571   000000 220100                    LDX0    0,,PR0
         4 001572   000042 100003                    CMPX0   34,DU
         4 001573   001575 602010 4                  TNC     OBJECT_TYPE_CASES_AGAIN+5,X0
         4 001574   001662 710000 4                  TRA     s:6230
         4 001575   001662 710000 4                  TRA     s:6230
         4 001576   001637 710000 4                  TRA     s:6219
         4 001577   001637 710000 4                  TRA     s:6219
         4 001600   001662 710000 4                  TRA     s:6230
         4 001601   001662 710000 4                  TRA     s:6230
         4 001602   001662 710000 4                  TRA     s:6230
         4 001603   001662 710000 4                  TRA     s:6230
         4 001604   001662 710000 4                  TRA     s:6230
         4 001605   001662 710000 4                  TRA     s:6230
         4 001606   001662 710000 4                  TRA     s:6230
         4 001607   001662 710000 4                  TRA     s:6230
         4 001610   001662 710000 4                  TRA     s:6230
         4 001611   001662 710000 4                  TRA     s:6230
         4 001612   001662 710000 4                  TRA     s:6230
         4 001613   001662 710000 4                  TRA     s:6230
         4 001614   001662 710000 4                  TRA     s:6230
         4 001615   001662 710000 4                  TRA     s:6230
         4 001616   001662 710000 4                  TRA     s:6230
         4 001617   001662 710000 4                  TRA     s:6230
PL6.E3A0      #001=VDW$LOAD File=VDW$WORKSPACE.:VDA5TSI                          FRI 07/04/97 11:41 Page:76
         4 001620   001662 710000 4                  TRA     s:6230
         4 001621   001662 710000 4                  TRA     s:6230
         4 001622   001662 710000 4                  TRA     s:6230
         4 001623   001662 710000 4                  TRA     s:6230
         4 001624   001662 710000 4                  TRA     s:6230
         4 001625   001662 710000 4                  TRA     s:6230
         4 001626   001662 710000 4                  TRA     s:6230
         4 001627   001662 710000 4                  TRA     s:6230
         4 001630   001662 710000 4                  TRA     s:6230
         4 001631   001662 710000 4                  TRA     s:6230
         4 001632   001662 710000 4                  TRA     s:6230
         4 001633   001662 710000 4                  TRA     s:6230
         4 001634   001662 710000 4                  TRA     s:6230
         4 001635   001662 710000 4                  TRA     s:6230
         4 001636   001654 710000 4                  TRA     s:6224

      537     6217
      538     6218    4               CASE (%CLS_BLOCK_DESC, %CLS_BLOCK_BUFFER);

      539     6219    4                 IF VD$OBJECT_HEADER.CLASS# = %CLS_BLOCK_BUFFER THEN

   6219  4 001637   000001 100003                    CMPX0   1,DU
         4 001640   001646 601000 4                  TNZ     s:6221

      540     6220    4                    OBJECT_HEADER$ = PALIGNW(ADDR(VD$BUFFER.BYTES));

   6220  4 001641   200017 236100                    LDQ     OBJECT_HEADER$,,AUTO
         4 001642   000005 036000 5                  ADLQ    5
         4 001643   770000 036007                    ADLQ    -4096,DL
         4 001644   000006 376000 5                  ANQ     6
         4 001645   200017 756100                    STQ     OBJECT_HEADER$,,AUTO

      541     6221    4                 CALL POINTERIZE_STRUCTURE (VD$BLOCK_DESC.OPTIONS.STRUCTURE$);

   6221  4 001646   200017 236100                    LDQ     OBJECT_HEADER$,,AUTO
         4 001647   000025 036003                    ADLQ    21,DU
         4 001650   200023 756100                    STQ     I+2,,AUTO
PL6.E3A0      #001=VDW$LOAD File=VDW$WORKSPACE.:VDA5TSI                          FRI 07/04/97 11:41 Page:77
         4 001651   001734 701000 4                  TSX1    POINTERIZE_STRUCTURE
         4 001652   000000 011000                    NOP     0
         4 001653   001662 710000 4                  TRA     s:6230

      542     6222
      543     6223    4               CASE (%CLS_PTR_FILE_NODE);

      544     6224    4                 CALL POINTERIZE_STRUCTURE (VD$POINTER.V$);

   6224  4 001654   200017 236100                    LDQ     OBJECT_HEADER$,,AUTO
         4 001655   000003 036003                    ADLQ    3,DU
         4 001656   200023 756100                    STQ     I+2,,AUTO
         4 001657   001734 701000 4                  TSX1    POINTERIZE_STRUCTURE
         4 001660   000000 011000                    NOP     0
         4 001661   001662 710000 4                  TRA     s:6230

      545     6225
      546     6226    4               CASE (ELSE);

      547     6227
      548     6228    4               END OBJECT_TYPE_CASES_AGAIN;

      549     6229
      550     6230    3              IF VD$OBJECT_HEADER.SIZE# = 0 THEN

   6230  4 001662   200017 470500                    LDP0    OBJECT_HEADER$,,AUTO
         4 001663   000000 720100                    LXL0    0,,PR0
         4 001664   001674 601000 4                  TNZ     s:6234

      551     6231    3                 OBJECT_HEADER$ = PINCRW(OBJECT_HEADER$,

   6231  4 001665   000000 221100                    LDX1    0,,PR0
         4 001666   000000 021100                    ADLX1   0,,PR0
         4 001667   000000 222011 xsym               LDX2    VD_OBJECTS,X1
         4 001670   000000 636012                    EAQ     0,X2
         4 001671   200017 036100                    ADLQ    OBJECT_HEADER$,,AUTO
         4 001672   200017 756100                    STQ     OBJECT_HEADER$,,AUTO
PL6.E3A0      #001=VDW$LOAD File=VDW$WORKSPACE.:VDA5TSI                          FRI 07/04/97 11:41 Page:78
         4 001673   001677 710000 4                  TRA     s:6236

      552     6232    3                   VD_OBJECTS.SIZE (VD$OBJECT_HEADER.CLASS#));
      553     6233    3              ELSE
      554     6234    3                 OBJECT_HEADER$ = PINCRW(OBJECT_HEADER$,

   6234  4 001674   000000 636010                    EAQ     0,X0
         4 001675   200017 036100                    ADLQ    OBJECT_HEADER$,,AUTO
         4 001676   200017 756100                    STQ     OBJECT_HEADER$,,AUTO

      555     6235    3                   VD$OBJECT_HEADER.SIZE#);
      556     6236    3              END EACH_OBJECT_AGAIN;

   6236  4 001677   200017 235100                    LDA     OBJECT_HEADER$,,AUTO
         4 001700   000022 771000                    ARL     18
         4 001701   200062 755100                    STA     VLP_LINEATTR+16,,AUTO
         4 001702   200020 236100                    LDQ     OBJECT_LIMIT$,,AUTO
         4 001703   000022 772000                    QRL     18
         4 001704   200062 136100                    SBLQ    VLP_LINEATTR+16,,AUTO
         4 001705   001570 605400 4                  TPNZ    OBJECT_TYPE_CASES_AGAIN

      557     6237
      558     6238    2           RETURN;

   6238  4 001706   200016 221300                    LDX1  ! WINDOW_SPEC$+2,,AUTO
         4 001707   000001 702211                    TSX2  ! 1,X1

   6231  4 001710                       INVALID_WOR* null
   6231  4 001710                       WS_FILE_INV* null
      559     6239
      560     6240
      561     6241
      562     6242    2   INVALID_WORKSPACE_FAILURE: ;
      563     6243    2   WS_FILE_INVALID_FAILURE: ;
      564     6244    2           CALL VDG$ERRMSG (%E$BAD_WS_FILE, BINBIT (VD$OBJECT_HEADER.CLASS#, 36),

   6244  4 001710   000000 236100                    LDQ     0,,PR0
PL6.E3A0      #001=VDW$LOAD File=VDW$WORKSPACE.:VDA5TSI                          FRI 07/04/97 11:41 Page:79
         4 001711   000022 772000                    QRL     18
         4 001712   200062 756100                    STQ     VLP_LINEATTR+16,,AUTO
         4 001713   000026 236000 xsym               LDQ     VD_6E+22
         4 001714   000030 036003                    ADLQ    24,DU
         4 001715   200066 756100                    STQ     VLP_LINEATTR+20,,AUTO
         4 001716   200062 631500                    EPPR1   VLP_LINEATTR+16,,AUTO
         4 001717   200065 451500                    STP1    VLP_LINEATTR+19,,AUTO
         4 001720   000004 236000 5                  LDQ     4
         4 001721   200064 756100                    STQ     VLP_LINEATTR+18,,AUTO
         4 001722   200064 630500                    EPPR0   VLP_LINEATTR+18,,AUTO
         4 001723   000021 631400 xsym               EPPR1   B_VECTNIL+17
         4 001724   000000 701000 xent               TSX1    VDG$ERRMSG
         4 001725   001732 702000 4                  TSX2    s:6248

      565     6245    3             BINBIT(CMD$STREAM.REC_NUM#, 36)) WHENRETURN DO;

      566     6246    3              VD$ERR.DCB# = DCBNUM(M$EI);

   6246  4 001726   000000 236007 xsym               LDQ     M$EI,DL
         4 001727   000000 620006                    EAX0    0,QL
         4 001730   000032 470400 xsym               LDP0    VD_6E+26
         4 001731   000004 740100                    STX0    4,,PR0

      567     6247    3              END;

      568     6248    2           ALTRETURN;

   6248  4 001732   200016 221300                    LDX1  ! WINDOW_SPEC$+2,,AUTO
         4 001733   000000 702211                    TSX2  ! 0,X1

      569     6249
      570     6250        %BOX (TITLE=POINTERIZE_STRUCTURE);

              6262    2   /***************************************************************************
              6264    2    *                                                                         *
              6268    2            *                            POINTERIZE_STRUCTURE                        *
              6270    2            *                                                                        *
PL6.E3A0      #001=VDW$LOAD File=VDW$WORKSPACE.:VDA5TSI                          FRI 07/04/97 11:41 Page:80
              6272    2          ***************************************************************************/

      571     6276
      572     6277        /*I* NAME: POINTERIZE_STRUCTURE
      573     6278            PARAMETERS:
      574     6279                STRUCTURE, actually an index into a VD$ENCODED_NODE, possibly zero.
      575     6280            INPUT:
      576     6281                ENCODED_NODE$ is addr of VD$ENCODED_NODE containing STRUCTURE.
      577     6282            OUTPUT:
      578     6283                STRUCTURE resolved to a pointer into the STRUCTURES internal file.
      579     6284            DESCRIPTION:
      580     6285                If STRUCTURE ~= 0, read the key which STRUCTURE "indexes" to from
      581     6286                the internal STRUCTURES file, and place the address of that
      582     6287                VD$FILE_NODE into STRUCTURE.
      583     6288        */
      584     6289
      585     6290    2   POINTERIZE_STRUCTURE: PROC (STRUCTURE) ALTRET;

   6290  4 001734   200022 741300       POINTERIZE_* STX1  ! I+1,,AUTO

      586     6291
      587     6292    3   DCL STRUCTURE PTR PARAM;
      588     6293
      589     6294    3   DCL VDA$LREAD               ENTRY (4) ALTRET;
      590     6295
      591     6296        %VD$BLOCK_DESC;
      592     6443        %VD$BUFFER;
      593     6501        %VD$PORT;
      594     6599        %VD$STREAM;
      595     6705
      596     6706
      597     6707             /* %POINTERIZE (PTR=STRUCTURE); */
      598     6708    3           IF STRUCTURE ~= ADDR(NIL) THEN

   6708  4 001735   200023 470500                    LDP0    @STRUCTURE,,AUTO
         4 001736   000000 236100                    LDQ     0,,PR0
         4 001737   000001 116000 xsym               CMPQ    B_VECTNIL+1
PL6.E3A0      #001=VDW$LOAD File=VDW$WORKSPACE.:VDA5TSI                          FRI 07/04/97 11:41 Page:81
         4 001740   001773 600000 4                  TZE     s:6720

      599     6709    3   READ_THE_STRUCTURES_FILE:
      600     6710    4           DO;

   6710  4 001741                       READ_THE_ST* null
      601     6711    4              CALL VDA$LREAD (VD_6E.STRUCTURES$->VD$STREAM,

   6711  4 001741   000000 471500                    LDP1    0,,PR0
         4 001742   000010 237000 5                  LDAQ    8
         4 001743   200064 757100                    STAQ    VLP_LINEATTR+18,,AUTO
         4 001744   100003 633500                    EPPR3   3,,PR1
         4 001745   200063 453500                    STP3    VLP_LINEATTR+17,,AUTO
         4 001746   000005 236000 xsym               LDQ     VD_6E+5
         4 001747   200062 756100                    STQ     VLP_LINEATTR+16,,AUTO
         4 001750   200062 630500                    EPPR0   VLP_LINEATTR+16,,AUTO
         4 001751   000022 631400 xsym               EPPR1   B_VECTNIL+18
         4 001752   000000 701000 xent               TSX1    VDA$LREAD
         4 001753   001755 702000 4                  TSX2    s:6713
         4 001754   001757 710000 4                  TRA     s:6714

      602     6712    4                STRUCTURE->VD$BLOCK_DESC.RANGE.START, 0, %TRUE)
      603     6713    5              WHENALTRETURN DO; ALTRETURN; END;

   6713  4 001755   200022 221300                    LDX1  ! I+1,,AUTO
         4 001756   000000 702211                    TSX2  ! 0,X1

      604     6714    4              IF VD_6E.STRUCTURES$->VD$STREAM.CURRENT.EOF = %TRUE THEN

   6714  4 001757   000005 470400 xsym               LDP0    VD_6E+5
         4 001760   000016 236100                    LDQ     14,,PR0
         4 001761   400000 316007                    CANQ    -131072,DL
         4 001762   001766 600000 4                  TZE     s:6716

      605     6715    4                 CALL VDG$ESCREECH;

   6715  4 001763   000002 631400 xsym               EPPR1   B_VECTNIL+2
PL6.E3A0      #001=VDW$LOAD File=VDW$WORKSPACE.:VDA5TSI                          FRI 07/04/97 11:41 Page:82
         4 001764   000000 701000 xent               TSX1    VDG$ESCREECH
         4 001765   000000 011000                    NOP     0

      606     6716    4              STRUCTURE = VD_6E.STRUCTURES$->VD$STREAM.PORT$->

   6716  4 001766   000005 470400 xsym               LDP0    VD_6E+5
         4 001767   000001 471500                    LDP1    1,,PR0
         4 001770   100040 236100                    LDQ     32,,PR1
         4 001771   200023 473500                    LDP3    @STRUCTURE,,AUTO
         4 001772   300000 756100                    STQ     0,,PR3

      607     6717    4                VD$PORT.LEVEL.INTERNAL$ (%LVL_LOWER);
      608     6718    4              END READ_THE_STRUCTURES_FILE;

      609     6719
      610     6720    3           RETURN;

   6720  4 001773   200022 221300                    LDX1  ! I+1,,AUTO
         4 001774   000001 702211                    TSX2  ! 1,X1

      611     6721
      612     6722    3   END POINTERIZE_STRUCTURE;
      613     6723
      614     6724        %BOX (TITLE=POINTERIZE_LOCATION);

              6736    3   /***************************************************************************
              6738    3    *                                                                         *
              6742    3            *                            POINTERIZE_LOCATION                         *
              6744    3            *                                                                        *
              6746    3          ***************************************************************************/

      615     6750
      616     6751        /*I* NAME: POINTERIZE_LOCATION
      617     6752            PARAMETERS:
      618     6753                LOCATION - VD$LOCATION to pointerize.
      619     6754            INPUT:
      620     6755                ENCODED_NODE$ is addr of VD$ENCODED_NODE containing LOCATION.
PL6.E3A0      #001=VDW$LOAD File=VDW$WORKSPACE.:VDA5TSI                          FRI 07/04/97 11:41 Page:83
      621     6756            OUTPUT:
      622     6757                LOCATION's pointers will be resolved into actual pointers.
      623     6758            DESCRIPTION:
      624     6759                Go thru LOCATION's levels, and pointerize any offsets found.
      625     6760        */
      626     6761
      627     6762    2   POINTERIZE_LOCATION: PROC (LOCATION) ALTRET;

   6762  4 001775   200022 741300       POINTERIZE_* STX1  ! I+1,,AUTO

      628     6763
      629     6764        %VD$LOCATION (NAME=LOCATION, STCLASS=PARAM);
      630     6792
      631     6793
      632     6794    3   DCL LVL SBIN;
      633     6795
      634     6796
      635     6797
      636     6798    4           DO LVL = 0 TO (%(MX_LOCATION_LEVELS-1));

   6798  4 001776   200024 450100                    STZ     LVL,,AUTO

      637     6799    5              IF LOCATION.KEY.REP# (LVL) = %REP_REMOTE THEN DO;

   6799  4 001777   200024 235100                    LDA     LVL,,AUTO
         4 002000   000001 735000                    ALS     1
         4 002001   200023 470500                    LDP0    @LOCATION,,AUTO
         4 002002   000000 720105                    LXL0    0,AL,PR0
         4 002003   000002 100003                    CMPX0   2,DU
         4 002004   002022 601000 4                  TNZ     s:6807

      638     6800                      %POINTERIZE (PTR="LOCATION.KEY.V$ (LVL)");

   6801  4 002005   000001 235105                    LDA     1,AL,PR0
         4 002006   002014 601000 4                  TNZ     s:6804

   6802  4 002007   200024 235100                    LDA     LVL,,AUTO
PL6.E3A0      #001=VDW$LOAD File=VDW$WORKSPACE.:VDA5TSI                          FRI 07/04/97 11:41 Page:84
         4 002010   000001 735000                    ALS     1
         4 002011   000001 236000 xsym               LDQ     B_VECTNIL+1
         4 002012   000001 756105                    STQ     1,AL,PR0
         4 002013   002022 710000 4                  TRA     s:6807

   6804  4 002014   200024 235100                    LDA     LVL,,AUTO
         4 002015   000001 735000                    ALS     1
         4 002016   000001 236105                    LDQ     1,AL,PR0
         4 002017   000022 736000                    QLS     18
         4 002020   200006 036100                    ADLQ    ENCODED_NODE$,,AUTO
         4 002021   000001 756105                    STQ     1,AL,PR0

      639     6806    5                 END;

      640     6807    4              END;

   6807  4 002022   200024 054100                    AOS     LVL,,AUTO
         4 002023   200024 235100                    LDA     LVL,,AUTO
         4 002024   000003 115007                    CMPA    3,DL
         4 002025   001777 604400 4                  TMOZ    s:6799

      641     6808    3           RETURN;

   6808  4 002026   200022 221300                    LDX1  ! I+1,,AUTO
         4 002027   000001 702211                    TSX2  ! 1,X1

      642     6809
      643     6810    3   END POINTERIZE_LOCATION;
      644     6811
      645     6812    2   END POINTERIZE_RECORD;
      646     6813
      647     6814        %BOX (TITLE=HEADER_RECORD, PAGE=YES);
              6822    2
              6826    2   /***************************************************************************
              6828    2    *                                                                         *
              6832    2            *                               HEADER_RECORD                            *
              6834    2            *                                                                        *
PL6.E3A0      #001=VDW$LOAD File=VDW$WORKSPACE.:VDA5TSI                          FRI 07/04/97 11:41 Page:85
              6836    2          ***************************************************************************/

      648     6840
      649     6841        /*I* NAME:  HEADER_RECORD
      650     6842            PARAMETERS:
      651     6843                DESC - VD$ENCODED_DESC for the header record of a workspace file.
      652     6844                    It's .SPEC.TYPE# must be %SPT_ENCODED_FILE_SPEC.
      653     6845                                    !! CAUTION !!
      654     6846                        DESC is assumed to be unPOINTERIZEd:  its
      655     6847                        .SPEC.V$ isn't a pointer, but a word-offset
      656     6848                        from ENCODED_NODE$.
      657     6849            INPUT:
      658     6850                LOAD_FLAGS - An array of bits specifying which predefined files we're
      659     6851                    allowed to load from the workspace file.
      660     6852                ENCODED_NODE$ - Pointer to the VD$ENCODED_NODE read from the
      661     6853                    workspace file.
      662     6854            OUTPUT:
      663     6855                VD_LAST_LOADED_FILE_SPEC will contain DESC's VD$ENCODED_FILE_SPEC.
      664     6856                The entire contents of the Windows file may have been deleted.
      665     6857            DESCRIPTION:
      666     6858                Save DESC's Spec component in the global VD_LAST_LOADED_FILE_SPEC.
      667     6859                Check the bits in the ENCODED_FILE_SPEC indicating what types of
      668     6860                info is in the workspace file:
      669     6861                    If the workspace file contains Windows-file nodes, and LOAD_FLAGS
      670     6862                        says we're allowed to load Windows-file nodes, then delete the
      671     6863                        entire contents of the Windows file now, before we load the
      672     6864                        workspace file.
      673     6865                    If the workspace file contains Keyins, and LOAD_FLAGS says we're
      674     6866                        allowed to load Keyins, but the user's current terminal profile
      675     6867                        isn't the same as the terminal profile at the time the
      676     6868                        workspace file was last modified, then warn the user.
      677     6869        */
      678     6870
      679     6871    1   HEADER_RECORD: PROC (DESC) ALTRET;

   6871  4 002030   200016 741300       HEADER_RECO* STX1  ! WINDOW_SPEC$+2,,AUTO

PL6.E3A0      #001=VDW$LOAD File=VDW$WORKSPACE.:VDA5TSI                          FRI 07/04/97 11:41 Page:86
      680     6872
      681     6873        %VD$ENCODED_DESC (NAME=DESC, STCLASS=PARAM);
      682     6957
      683     6958
      684     6959        %FPT_GLINEATTR (STCLASS=STATIC, DCB=M$UC);
      685     6984
      686     6985
      687     6986
      688     6987        %VD$RANGE (NAME=DEL_FILE_RANGE, STCLASS=AUTO);
      689     7056        %VLP_LINEATTR (STCLASS=AUTO);
      690     7078        %VD$ENCODED_FILE_SPEC;
      691     7107
      692     7108
      693     7109
      694     7110    2           VD_LAST_LOADED_FILE_SPEC =

   7110  4 002031   200017 470500                    LDP0    @DESC,,AUTO
         4 002032   000015 236100                    LDQ     13,,PR0
         4 002033   000002 736000                    QLS     2
         4 002034   200006 471500                    LDP1    ENCODED_NODE$,,AUTO
         4 002035   000000 100506                    MLR     fill='000'O
         4 002036   100000 000040                    ADSC9   0,Q,PR1                  cn=0,n=32
         4 002037   000000 000040 xsym               ADSC9   VD_LAST_LOADED_FILE_SPEC cn=0,n=32

      695     7111    2             PINCRW(ENCODED_NODE$, ADDR(DESC.SPEC.V$)->BASED$SBIN) ->
      696     7112    2             VD$ENCODED_FILE_SPEC;
      697     7113
      698     7114    2           IF VD_LAST_LOADED_FILE_SPEC.CONTENTS (%PDFF_WINDOWS)

   7114  4 002040   000000 236000 xsym               LDQ     VD_LAST_LOADED_FILE_SPEC
         4 002041   004000 316003                    CANQ    2048,DU
         4 002042   002067 600000 4                  TZE     s:7124
         4 002043   200003 473500                    LDP3    @LOAD_FLAGS,,AUTO
         4 002044   300000 236100                    LDQ     0,,PR3
         4 002045   004000 316003                    CANQ    2048,DU
         4 002046   002067 600000 4                  TZE     s:7124

PL6.E3A0      #001=VDW$LOAD File=VDW$WORKSPACE.:VDA5TSI                          FRI 07/04/97 11:41 Page:87
      699     7115    3             AND LOAD_FLAGS.F (%PDFF_WINDOWS) THEN DO;

      700     7116    3              DEL_FILE_RANGE = %CLEAR;

   7116  4 002047   000100 100400                    MLR     fill='000'O
         4 002050   000002 000001 xsym               ADSC9   B_VECTNIL+2              cn=0,n=1
         4 002051   200020 000110                    ADSC9   DEL_FILE_RANGE,,AUTO     cn=0,n=72

      701     7117    3              DEL_FILE_RANGE.START.KEY (%LVL_LOWER-1) =

   7117  4 002052   000100 100400                    MLR     fill='000'O
         4 002053   000000 000010 xsym               ADSC9   VD_KEY_NUMERIC_BOF       cn=0,n=8
         4 002054   200020 000010                    ADSC9   DEL_FILE_RANGE,,AUTO     cn=0,n=8

      702     7118    3                VD_KEY_NUMERIC_BOF;   /* Windows-file keys are numeric */
      703     7119    3              DEL_FILE_RANGE.ENDD.EOF = %TRUE;

   7119  4 002055   400000 236007                    LDQ     -131072,DL
         4 002056   200041 256100                    ORSQ    LVL+13,,AUTO

      704     7120    3              CALL VDA$LDELETE (WINDOWS$STREAM, DEL_FILE_RANGE)

   7120  4 002057   200020 634500                    EPPR4   DEL_FILE_RANGE,,AUTO
         4 002060   200063 454500                    STP4    VLP_LINEATTR+17,,AUTO
         4 002061   000006 236000 xsym               LDQ     VD_6E+6
         4 002062   200062 756100                    STQ     VLP_LINEATTR+16,,AUTO
         4 002063   200062 630500                    EPPR0   VLP_LINEATTR+16,,AUTO
         4 002064   000020 631400 xsym               EPPR1   B_VECTNIL+16
         4 002065   000000 701000 xent               TSX1    VDA$LDELETE
         4 002066   002150 702000 4                  TSX2    LDELETE_FAILED

      705     7121    3                ALTRET (LDELETE_FAILED);
      706     7122    3              END;

      707     7123
      708     7124    2           IF VD_LAST_LOADED_FILE_SPEC.CONTENTS (%PDFF_KEYINS)

PL6.E3A0      #001=VDW$LOAD File=VDW$WORKSPACE.:VDA5TSI                          FRI 07/04/97 11:41 Page:88
   7124  4 002067   000000 236000 xsym               LDQ     VD_LAST_LOADED_FILE_SPEC
         4 002070   100000 316003                    CANQ    32768,DU
         4 002071   002141 600000 4                  TZE     s:7141
         4 002072   200003 470500                    LDP0    @LOAD_FLAGS,,AUTO
         4 002073   000000 236100                    LDQ     0,,PR0
         4 002074   100000 316003                    CANQ    32768,DU
         4 002075   002141 600000 4                  TZE     s:7141
         4 002076   000000 471400 xsym               LDP1    B$JIT$
         4 002077   100000 236100                    LDQ     0,,PR1
         4 002100   740000 376003                    ANQ     -16384,DU
         4 002101   140000 116003                    CMPQ    49152,DU
         4 002102   002141 601000 4                  TNZ     s:7141

      709     7125    2             AND LOAD_FLAGS.F (%PDFF_KEYINS)
      710     7126    3             AND B$JIT.MODE = %M_INT# THEN DO;

      711     7127    3              FPT_GLINEATTR.LINEATTR_ = VECTOR(VLP_LINEATTR);

   7127  4 002103   000007 235000 5                  LDA     7
         4 002104   200062 452500                    STP2    VLP_LINEATTR+16,,AUTO
         4 002105   200062 236100                    LDQ     VLP_LINEATTR+16,,AUTO
         4 002106   000042 036003                    ADLQ    34,DU
         4 002107   000004 757000 2                  STAQ    FPT_GLINEATTR+4

      712     7128    3              CALL M$GLINEATTR (FPT_GLINEATTR)

   7128  4 002110   000000 630400 2                  EPPR0   FPT_GLINEATTR
         4 002111   560005 713400                    CLIMB   alt,+57349
         4 002112   401000 401760                    pmme    nvectors=3
         4 002113   002143 702000 4                  TSX2    GLINEATTR_FAILED

      713     7129    3                ALTRET (GLINEATTR_FAILED);
      714     7130    3              IF SUBSTR(VD_LAST_LOADED_FILE_SPEC.LAST_MODIFIED.PROFILE.BYTES, 0,

   7130  4 002114   000005 236000 xsym               LDQ     VD_LAST_LOADED_FILE_SPEC+5
         4 002115   000033 772000                    QRL     27
         4 002116   000000 620006                    EAX0    0,QL
PL6.E3A0      #001=VDW$LOAD File=VDW$WORKSPACE.:VDA5TSI                          FRI 07/04/97 11:41 Page:89
         4 002117   200044 236100                    LDQ     VLP_LINEATTR+2,,AUTO
         4 002120   000033 772000                    QRL     27
         4 002121   000000 621006                    EAX1    0,QL
         4 002122   040140 106440                    CMPC    fill='040'O
         4 002123   000005 200010 xsym               ADSC9   VD_LAST_LOADED_FILE_SPEC+5 cn=1,n=*X0
         4 002124   200044 200011                    ADSC9   VLP_LINEATTR+2,,AUTO     cn=1,n=*X1
         4 002125   002141 600000 4                  TZE     s:7141

      715     7131    3                VD_LAST_LOADED_FILE_SPEC.LAST_MODIFIED.PROFILE.LENGTH#) ~=
      716     7132    3                SUBSTR(VLP_LINEATTR.PROTXTC.TXT, 0,
      717     7133    4                VLP_LINEATTR.PROTXTC.CNT) THEN DO;

      718     7134    4                 CALL VDG$WARNMSG (%E$WARN_SAVED_W_DIFF_PROFILE,

   7134  4 002126   200044 630500                    EPPR0   VLP_LINEATTR+2,,AUTO
         4 002127   200064 450500                    STP0    VLP_LINEATTR+18,,AUTO
         4 002130   000014 237000 5                  LDAQ    12
         4 002131   200062 757100                    STAQ    VLP_LINEATTR+16,,AUTO
         4 002132   200062 630500                    EPPR0   VLP_LINEATTR+16,,AUTO
         4 002133   000021 631400 xsym               EPPR1   B_VECTNIL+17
         4 002134   000000 701000 xent               TSX1    VDG$WARNMSG
         4 002135   000000 011000                    NOP     0

      719     7135    4                   VD_LAST_LOADED_FILE_SPEC.LAST_MODIFIED.PROFILE,
      720     7136    4                   VLP_LINEATTR.PROTXTC);
      721     7137    4                 CALL VDG$EREPORT_ERROR;

   7137  4 002136   000002 631400 xsym               EPPR1   B_VECTNIL+2
         4 002137   000000 701000 xent               TSX1    VDG$EREPORT_ERROR
         4 002140   000000 011000                    NOP     0

      722     7138    4                 END;

      723     7139    3              END;

      724     7140
      725     7141    2           RETURN;
PL6.E3A0      #001=VDW$LOAD File=VDW$WORKSPACE.:VDA5TSI                          FRI 07/04/97 11:41 Page:90

   7141  4 002141   200016 221300                    LDX1  ! WINDOW_SPEC$+2,,AUTO
         4 002142   000001 702211                    TSX2  ! 1,X1

      726     7142
      727     7143
      728     7144    2   GLINEATTR_FAILED:
      729     7145    2           CALL VDG$MONERR;

   7145  4 002143   000002 631400 xsym  GLINEATTR_F* EPPR1   B_VECTNIL+2
         4 002144   000000 701000 xent               TSX1    VDG$MONERR
         4 002145   000000 011000                    NOP     0

      730     7146    2           ALTRETURN;

   7146  4 002146   200016 221300                    LDX1  ! WINDOW_SPEC$+2,,AUTO
         4 002147   000000 702211                    TSX2  ! 0,X1

   7138  4 002150                       LDELETE_FAI* null
   7138  4 002150                       OALLOC_FAIL* null
      731     7147
      732     7148
      733     7149    2   LDELETE_FAILED: ;
      734     7150    2   OALLOC_FAILED: ;
      735     7151    2           ALTRETURN;

   7151  4 002150   200016 221300                    LDX1  ! WINDOW_SPEC$+2,,AUTO
         4 002151   000000 702211                    TSX2  ! 0,X1
      736     7152
      737     7153    2   END HEADER_RECORD;
      738     7154
      739     7155
      740     7156    1   END VDW$LOAD;
      741     7157        %EOD;

PL6.E3A0      #001=VDW$LOAD File=VDW$WORKSPACE.:VDA5TSI                          FRI 07/04/97 11:41 Page:91
--  Include file information  --

   B$JIT.:LIBRARY  cannot be made into a system file and is referenced.
   CP_6_SUBS.:LIBRARY  is referenced.
   CP_6.:LIBRARY  cannot be made into a system file and is referenced.
   VD_PERR_C.:VDA5TOU  is referenced.
   VD_MACROS_M.:VDA5TOU  is referenced.
   B$JIT_C.:E04TOU  was found in the system file and is referenced.
   CP_6_C.:E04TOU  was found in the system file and is referenced.
      No diagnostics issued in procedure VDW$LOAD.
PL6.E3A0      #001=VDW$LOAD File=VDW$WORKSPACE.:VDA5TSI                          FRI 07/04/97 11:41 Page:92

 **** Variables and constants ****

  ****  Section 002  Data  VDW$LOAD

  ****  Scalars and arrays  ****
OctLoc.c.b A Datatyp(siz) R M Lvl/name                 OctLoc.c.b A Datatyp(siz) R M Lvl/name

     0-0-0/d STRC(288)   r     1 FPT_GLINEATTR

  ****  Auto variables  ****

  ****  Scalars and arrays  ****
OctLoc.c.b A Datatyp(siz) R M Lvl/name                 OctLoc.c.b A Datatyp(siz) R M Lvl/name

    17-0-0/w PTR         r     1 @DESC                      3-0-0/w PTR         r     1 @LOAD_FLAGS
    23-0-0/w PTR         r     1 @LOCATION                 23-0-0/w PTR         r     1 @STRUCTURE
    10-0-0/w PTR         r     1 BASED_ARRAY$              20-0-0/w STRC(648)   r     1 DEL_FILE_RANGE
    *0-0-0/w STRC(540)   r     1 DESC                       6-0-0/w PTR         r     1 ENCODED_NODE$
     5-0-0/w BIT         r     1 EOF                       11-0-0/w SBIN        r     1 I
    21-0-0/w SBIN        r     1 I                         *0-0-0/w STRC(9)     r     1 LOAD_FLAGS
    *0-0-0/w STRC(324)   r     1 LOCATION                  24-0-0/w SBIN        r     1 LVL
    17-0-0/w PTR         r     1 OBJECT_HEADER$            20-0-0/w PTR         r     1 OBJECT_LIMIT$
    12-0-0/w SBIN        r     1 PREV_WINDOW_INTENDED_HEIGHT
     4-0-0/w PTR         r     1 STREAM$                   *0-0-0/w PTR         r     1 STRUCTURE
     7-0-0/w SBIN        r     1 SUM
    13-0-0/w SBIN        r     1 THIS_WINDOW_INTENDED_HEIGHT
    42-0-0/d STRC(576)   r     1 VLP_LINEATTR              14-0-0/w PTR         r     1 WINDOW_SPEC$

  ****  SYMREF variables  ****

  ****  Scalars and arrays  ****
OctLoc.c.b A Datatyp(siz) R M Lvl/name                 OctLoc.c.b A Datatyp(siz) R M Lvl/name

     0-0-0/w PTR         r     1 B$JIT$                     0-0-0/w STRC(144)   r     1 VD_$SCREEN
     0-0-0/w STRC(22644) r     1 VD_6E                      0-0-0/w STRC(72)    r     1 VD_KEY_NUMERIC_BOF
     0-0-0/w STRC(288)   r     1 VD_LAST_LOADED_FILE_SPEC
     0-0-0/w STRC(72)    r     1 VD_OBJECTS(0:98)
PL6.E3A0      #001=VDW$LOAD File=VDW$WORKSPACE.:VDA5TSI                          FRI 07/04/97 11:41 Page:93

  ****  BASED and DCB variables  ****

  ****  Scalars and arrays  ****
OctLoc.c.b A Datatyp(siz) R M Lvl/name                 OctLoc.c.b A Datatyp(siz) R M Lvl/name

     0-0-0/d STRC(8856)  r     1 B$JIT
     0-0-0/w SBIN        r     1 BASED$ARRAY(0:0)
     0-0-0/w SBIN        r     1 BASED$SBIN                 0-0-0/w STRC(900)   r     1 CMD$STREAM
     0-0-0/w STRC(900)   r     1 ENCODED$NODE               0-0-0N  NULL        r     1 M$EI
     0-0-0N  NULL        r     1 M$UC                       0-0-0/w STRC(864)   r     1 STREAM
     0-0-0/w STRC(936)   r     1 VD$BLOCK_DESC              0-0-0/w STRC(936)   r     1 VD$BLOCK_DESC
     0-0-0/w ASTR(90)    r     1 VD$BUFFER                  0-0-0/w ASTR(90)    r     1 VD$BUFFER
     0-0-0/w ASTR(90)    r     1 VD$BUFFER                  0-0-0/w STRC(90)    r     1 VD$BUFFER_HEADER
     0-0-0/w STRC(288)   r     1 VD$ENCODED_FILE_SPEC       0-0-0/w STRC(180)   r     1 VD$ERR
     0-0-0/w STRC(2124)  r     1 VD$EVAL                    0-0-0/w STRC(36972) r     1 VD$FIT
     0-0-0/w STRC(216)   r     1 VD$IT_ADJUST               0-0-0/w STRC(1116)  r     1 VD$IT_BLOCK_EXPR
     0-0-0/w STRC(540)   r     1 VD$IT_COMMAND              0-0-0/w STRC(324)   r     1 VD$IT_OPERAND
     0-0-0/w STRC(216)   r     1 VD$IT_OPERATOR             0-0-0/w STRC(216)   r     1 VD$IT_SELECT
     0-0-0/w STRC        r     1 VD$OBJECT_HEADER           0-0-0/w STRC(252)   r     1 VD$PATTERN
     0-0-0/w STRC(144)   r     1 VD$POINTER                 0-0-0/w STRC(1944)  r     1 VD$PORT
     0-0-0/w STRC(1944)  r     1 VD$PORT                    0-0-0/w STRC(324)   r     1 VD$RECORD_SET
     0-0-0/w STRC(864)   r     1 VD$STREAM                  0-0-0/w STRC(81)    r     1 VD$STRING_HEADER
     0-0-0/w STRC(180)   r     1 VD$STRUCTURE_SPEC          0-0-0/w STRC(180)   r     1 VD$WINDOW_BLOCK
     0-0-0/w STRC(900)   r     1 VD$WINDOW_SPEC             0-0-0/w STRC(900)   r     1 VD$WINDOW_SPEC
     0-0-0/w STRC(900)   r     1 WINDOW$SPEC                0-0-0/w STRC(864)   r     1 WINDOWS$STREAM


   Procedure VDW$LOAD requires 1130 words for executable code.
   Procedure VDW$LOAD requires 56 words of local(AUTO) storage.
PL6.E3A0      #001=VDW$LOAD File=VDW$WORKSPACE.:VDA5TSI                          FRI 07/04/97 11:41 Page:94
          *** CROSS REFERENCE LISTING ***
**     DENOTES     IDENTIFIER DEFINITION
<<                 IDENTIFIER'S VALUE SET
>>                 IDENTIFIER'S VALUE USED
<>                 IDENTIFIER SET AND/OR USED
--                 IDENTIFIER REFERENCED
PL6.E3A0      #001=VDW$LOAD File=VDW$WORKSPACE.:VDA5TSI                          FRI 07/04/97 11:41 Page:95
          MINI XREF LISTING

B$JIT.CPFLAGS1.SLEAZE
      3219**DCL      3219--REDEF
B$JIT.ERR.MID
      3126**DCL      3126--REDEF
B$JIT.JRESPEAK
      3287**DCL      3288--REDEF
B$JIT.MODE
      3120**DCL      7124>>IF
B$JIT.ORIGINATOR_PORT.FROM_CR
      3396**DCL      3396--REDEF    3397--REDEF
B$JIT.PNR
      3300**DCL      3300--REDEF
B$JIT.TSLINE
      3394**DCL      3395--REDEF
B$JIT$
      3616**DCL      3120--IMP-PTR  7124>>IF
BASED$ARRAY
      3897**DCL      4380>>ASSIGN
BASED$SBIN
      3898**DCL      4387>>IF       5781>>IF       5784>>ASSIGN   5790>>IF       5793>>ASSIGN   5797>>IF
      5800>>ASSIGN   5817>>IF       5820>>ASSIGN   5827>>IF       5830>>ASSIGN   5835>>IF       5838>>ASSIGN
      5842>>IF       5845>>ASSIGN   5848>>IF       5851>>ASSIGN   5854>>IF       5857>>ASSIGN   5860>>IF
      5863>>ASSIGN   5866>>IF       5869>>ASSIGN   5872>>IF       5875>>ASSIGN   5879>>IF       5882>>ASSIGN
      5888>>IF       5891>>ASSIGN   5894>>IF       5897>>ASSIGN   5900>>IF       5903>>ASSIGN   5910>>IF
      5913>>ASSIGN   5920>>IF       5923>>ASSIGN   5926>>IF       5929>>ASSIGN   5932>>IF       5935>>ASSIGN
      5940>>IF       5943>>ASSIGN   5946>>IF       5949>>ASSIGN   5952>>IF       5955>>ASSIGN   5958>>IF
      5961>>ASSIGN   5966>>IF       5969>>ASSIGN   5973>>IF       5976>>ASSIGN   5984>>IF       5987>>ASSIGN
      5991>>IF       5994>>ASSIGN   5997>>IF       6000>>ASSIGN   6005>>IF       6008>>ASSIGN   6011>>IF
      6014>>ASSIGN   6018>>IF       6021>>ASSIGN   6027>>IF       6030>>ASSIGN   6033>>IF       6036>>ASSIGN
      6040>>IF       6043>>ASSIGN   6047>>IF       6050>>ASSIGN   6055>>IF       6058>>ASSIGN   6061>>IF
      6064>>ASSIGN   6067>>IF       6070>>ASSIGN   6073>>IF       6076>>ASSIGN   6081>>IF       6084>>ASSIGN
      6087>>IF       6090>>ASSIGN   6093>>IF       6096>>ASSIGN   6099>>IF       6102>>ASSIGN   6108>>IF
PL6.E3A0      #001=VDW$LOAD File=VDW$WORKSPACE.:VDA5TSI                          FRI 07/04/97 11:41 Page:96
      6111>>ASSIGN   6117>>IF       6120>>ASSIGN   6126>>IF       6129>>ASSIGN   6133>>IF       6136>>ASSIGN
      6143>>IF       6146>>ASSIGN   6152>>IF       6155>>ASSIGN   6168>>IF       6171>>ASSIGN   6174>>IF
      6177>>ASSIGN   6183>>IF       6186>>ASSIGN   6189>>IF       6192>>ASSIGN   6801>>IF       6804>>ASSIGN
      7110>>ASSIGN
BASED_ARRAY$
      3624**DCL      3897--IMP-PTR  4376<<ASSIGN   4379>>DOINDEX  4380>>ASSIGN
CLEAN_UP
      4448**LABEL    4435--CALLALT  4438--GOTO
CMD$STREAM.RECORD$
      3666**DCL      4370>>ASSIGN
CMD$STREAM.REC_NUM#
      3668**DCL      4363<<ASSIGN   4371>>IF       4420<<ASSIGN   4420>>ASSIGN   4435>>CALL     6244>>CALL
DEL_FILE_RANGE IN PROCEDURE HEADER_RECORD
      6995**DCL      7116<<ASSIGN   7120<>CALL
DEL_FILE_RANGE.ENDD.EOF IN PROCEDURE HEADER_RECORD
      7053**DCL      7119<<ASSIGN
DEL_FILE_RANGE.START.KEY IN PROCEDURE HEADER_RECORD
      7021**DCL      7117<<ASSIGN
DESC IN PROCEDURE HEADER_RECORD
      6881**DCL      6871--PROC
DESC.SPEC.V$ IN PROCEDURE HEADER_RECORD
      6953**DCL      7110--ASSIGN
EACH_WORKSPACE_RECORD
      4365**LABEL    4369--EXIT
ENCODED$NODE
      3784**DCL      5804--ASSIGN   6210--ASSIGN
ENCODED$NODE.CHECKSUM#
      3811**DCL      4376--ASSIGN   4382>>IF
ENCODED$NODE.DESC
      3822**DCL      4392<>CALL     4416<>CALL
ENCODED$NODE.DESC.DATA$
      3894**DCL      4387--IF       5797--IF       5798<<ASSIGN   5800<<ASSIGN   5800--ASSIGN
ENCODED$NODE.DESC.FILE_KEY
      3834**DCL      4387>>IF
ENCODED$NODE.DESC.FILE_KEY.REP#
      3836**DCL      5779>>IF
PL6.E3A0      #001=VDW$LOAD File=VDW$WORKSPACE.:VDA5TSI                          FRI 07/04/97 11:41 Page:97
ENCODED$NODE.DESC.FILE_KEY.V$
      3836**DCL      5781--IF       5782<<ASSIGN   5784<<ASSIGN   5784--ASSIGN
ENCODED$NODE.DESC.LOCATION
      3848**DCL      4387>>IF       5787<>CALL
ENCODED$NODE.DESC.SPEC.REP#
      3892**DCL      5788>>IF
ENCODED$NODE.DESC.SPEC.TYPE#
      3892**DCL      4385>>IF       4400>>IF
ENCODED$NODE.DESC.SPEC.V$
      3892**DCL      4403>>ASSIGN   5790--IF       5791<<ASSIGN   5793<<ASSIGN   5793--ASSIGN
ENCODED$NODE.LENGTH#
      3810**DCL      4379>>DOINDEX  5805>>ASSIGN
ENCODED$NODE.RECORD_ID
      3810**DCL      4371>>IF
ENCODED$NODE.RECORD_NUM#
      3811**DCL      4371>>IF       4387>>IF
ENCODED_NODE$
      3622**DCL      3784--IMP-PTR  4370<<ASSIGN   4371>>IF       4371>>IF       4376>>ASSIGN   4379>>DOINDEX
      4379>>DOINDEX  4382>>IF       4385>>IF       4387>>IF       4387>>IF       4387>>IF       4387>>IF
      4392>>CALL     4400>>IF       4403>>ASSIGN   4416>>CALL     5779>>IF       5781>>IF       5782>>ASSIGN
      5784>>ASSIGN   5784>>ASSIGN   5784>>ASSIGN   5787>>CALL     5788>>IF       5790>>IF       5791>>ASSIGN
      5793>>ASSIGN   5793>>ASSIGN   5793>>ASSIGN   5797>>IF       5798>>ASSIGN   5800>>ASSIGN   5800>>ASSIGN
      5800>>ASSIGN   5804>>ASSIGN   5805>>ASSIGN   5805>>ASSIGN   5820>>ASSIGN   5830>>ASSIGN   5838>>ASSIGN
      5845>>ASSIGN   5851>>ASSIGN   5857>>ASSIGN   5863>>ASSIGN   5869>>ASSIGN   5875>>ASSIGN   5882>>ASSIGN
      5891>>ASSIGN   5897>>ASSIGN   5903>>ASSIGN   5913>>ASSIGN   5923>>ASSIGN   5929>>ASSIGN   5935>>ASSIGN
      5943>>ASSIGN   5949>>ASSIGN   5955>>ASSIGN   5961>>ASSIGN   5969>>ASSIGN   5976>>ASSIGN   5987>>ASSIGN
      5994>>ASSIGN   6000>>ASSIGN   6008>>ASSIGN   6014>>ASSIGN   6021>>ASSIGN   6030>>ASSIGN   6036>>ASSIGN
      6043>>ASSIGN   6050>>ASSIGN   6058>>ASSIGN   6064>>ASSIGN   6070>>ASSIGN   6076>>ASSIGN   6084>>ASSIGN
      6090>>ASSIGN   6096>>ASSIGN   6102>>ASSIGN   6111>>ASSIGN   6120>>ASSIGN   6129>>ASSIGN   6136>>ASSIGN
      6146>>ASSIGN   6155>>ASSIGN   6171>>ASSIGN   6177>>ASSIGN   6186>>ASSIGN   6192>>ASSIGN   6210>>ASSIGN
      6804>>ASSIGN   7110>>ASSIGN
EOF
      3621**DCL      4365>>DOUNTIL  4366<>CALL     4368>>IF
FCLOSE_FAILED
      4448**LABEL    4424--CALLALT  4449--CALLALT
FPT_GLINEATTR IN PROCEDURE HEADER_RECORD
PL6.E3A0      #001=VDW$LOAD File=VDW$WORKSPACE.:VDA5TSI                          FRI 07/04/97 11:41 Page:98
      6974**DCL      7128<>CALL
FPT_GLINEATTR.LINEATTR_ IN PROCEDURE HEADER_RECORD
      6980**DCL      7127<<ASSIGN
FPT_GLINEATTR.V IN PROCEDURE HEADER_RECORD
      6982**DCL      6976--DCLINIT
GLINEATTR_FAILED IN PROCEDURE HEADER_RECORD
      7145**LABEL    7128--CALLALT
HEADER_RECORD
      6871**PROC     4392--CALL
HEADER_RECORD_FAILED
      4437**LABEL    4392--CALLALT
I
      3625**DCL      4379<<DOINDEX  4380>>ASSIGN
I IN PROCEDURE POINTERIZE_RECORD
      4514**DCL      5907<<DOINDEX  5908>>IF       5910>>IF       5911>>ASSIGN   5913>>ASSIGN   5913>>ASSIGN
      6016<<DOINDEX  6018>>IF       6019>>ASSIGN   6021>>ASSIGN   6021>>ASSIGN   6141<<DOINDEX  6143>>IF
      6144>>ASSIGN   6146>>ASSIGN   6146>>ASSIGN
LDELETE_FAILED IN PROCEDURE HEADER_RECORD
      7138**LABEL    7120--CALLALT
LOAD_FLAGS
      3403**DCL       125--PROC     4416<>CALL
LOAD_FLAGS.F
      3415**DCL      4400>>IF       7114>>IF       7124>>IF
LOCATION IN PROCEDURE POINTERIZE_LOCATION
      6772**DCL      6762--PROC
LOCATION.KEY.REP# IN PROCEDURE POINTERIZE_LOCATION
      6788**DCL      6799>>IF
LOCATION.KEY.V$ IN PROCEDURE POINTERIZE_LOCATION
      6788**DCL      6801--IF       6802<<ASSIGN   6804<<ASSIGN   6804--ASSIGN
LVL IN PROCEDURE POINTERIZE_LOCATION
      6794**DCL      6798<<DOINDEX  6799>>IF       6801>>IF       6802>>ASSIGN   6804>>ASSIGN   6804>>ASSIGN
M$EI
      3617**DCL      4437>>ASSIGN   6246>>ASSIGN
M$GLINEATTR
      2524**DCL-ENT  7128--CALL
OALLOC_FAILED
PL6.E3A0      #001=VDW$LOAD File=VDW$WORKSPACE.:VDA5TSI                          FRI 07/04/97 11:41 Page:99
      4448**LABEL    4356--CALLALT
OBJECT_HEADER$ IN PROCEDURE POINTERIZE_RECORD
      4512**DCL      4533--IMP-PTR  4547--IMP-PTR  4613--IMP-PTR  4650--IMP-PTR  4728--IMP-PTR  4765--IMP-PTR
      4802--IMP-PTR  4952--IMP-PTR  4990--IMP-PTR  5056--IMP-PTR  5093--IMP-PTR  5130--IMP-PTR  5294--IMP-PTR
      5335--IMP-PTR  5371--IMP-PTR  5407--IMP-PTR  5458--IMP-PTR  5703--IMP-PTR  5747--IMP-PTR  5804<<ASSIGN
      5809>>DOWHILE  5812>>DOCASE   5817>>IF       5818>>ASSIGN   5820>>ASSIGN   5820>>ASSIGN   5827>>IF
      5828>>ASSIGN   5830>>ASSIGN   5830>>ASSIGN   5835>>IF       5836>>ASSIGN   5838>>ASSIGN   5838>>ASSIGN
      5840>>ASSIGN   5842>>IF       5843>>ASSIGN   5845>>ASSIGN   5845>>ASSIGN   5848>>IF       5849>>ASSIGN
      5851>>ASSIGN   5851>>ASSIGN   5854>>IF       5855>>ASSIGN   5857>>ASSIGN   5857>>ASSIGN   5860>>IF
      5861>>ASSIGN   5863>>ASSIGN   5863>>ASSIGN   5866>>IF       5867>>ASSIGN   5869>>ASSIGN   5869>>ASSIGN
      5872>>IF       5873>>ASSIGN   5875>>ASSIGN   5875>>ASSIGN   5877>>IF       5879>>IF       5880>>ASSIGN
      5882>>ASSIGN   5882>>ASSIGN   5888>>IF       5889>>ASSIGN   5891>>ASSIGN   5891>>ASSIGN   5894>>IF
      5895>>ASSIGN   5897>>ASSIGN   5897>>ASSIGN   5900>>IF       5901>>ASSIGN   5903>>ASSIGN   5903>>ASSIGN
      5907>>DOINDEX  5908>>IF       5910>>IF       5911>>ASSIGN   5913>>ASSIGN   5913>>ASSIGN   5920>>IF
      5921>>ASSIGN   5923>>ASSIGN   5923>>ASSIGN   5926>>IF       5927>>ASSIGN   5929>>ASSIGN   5929>>ASSIGN
      5932>>IF       5933>>ASSIGN   5935>>ASSIGN   5935>>ASSIGN   5940>>IF       5941>>ASSIGN   5943>>ASSIGN
      5943>>ASSIGN   5946>>IF       5947>>ASSIGN   5949>>ASSIGN   5949>>ASSIGN   5952>>IF       5953>>ASSIGN
      5955>>ASSIGN   5955>>ASSIGN   5958>>IF       5959>>ASSIGN   5961>>ASSIGN   5961>>ASSIGN   5966>>IF
      5967>>ASSIGN   5969>>ASSIGN   5969>>ASSIGN   5971>>IF       5973>>IF       5974>>ASSIGN   5976>>ASSIGN
      5976>>ASSIGN   5979>>CALL     5980>>CALL     5981>>ASSIGN   5982>>IF       5984>>IF       5985>>ASSIGN
      5987>>ASSIGN   5987>>ASSIGN   5991>>IF       5992>>ASSIGN   5994>>ASSIGN   5994>>ASSIGN   5997>>IF
      5998>>ASSIGN   6000>>ASSIGN   6000>>ASSIGN   6005>>IF       6006>>ASSIGN   6008>>ASSIGN   6008>>ASSIGN
      6011>>IF       6012>>ASSIGN   6014>>ASSIGN   6014>>ASSIGN   6018>>IF       6019>>ASSIGN   6021>>ASSIGN
      6021>>ASSIGN   6027>>IF       6028>>ASSIGN   6030>>ASSIGN   6030>>ASSIGN   6033>>IF       6034>>ASSIGN
      6036>>ASSIGN   6036>>ASSIGN   6038>>IF       6040>>IF       6041>>ASSIGN   6043>>ASSIGN   6043>>ASSIGN
      6047>>IF       6048>>ASSIGN   6050>>ASSIGN   6050>>ASSIGN   6055>>IF       6056>>ASSIGN   6058>>ASSIGN
      6058>>ASSIGN   6061>>IF       6062>>ASSIGN   6064>>ASSIGN   6064>>ASSIGN   6067>>IF       6068>>ASSIGN
      6070>>ASSIGN   6070>>ASSIGN   6073>>IF       6074>>ASSIGN   6076>>ASSIGN   6076>>ASSIGN   6081>>IF
      6082>>ASSIGN   6084>>ASSIGN   6084>>ASSIGN   6087>>IF       6088>>ASSIGN   6090>>ASSIGN   6090>>ASSIGN
      6093>>IF       6094>>ASSIGN   6096>>ASSIGN   6096>>ASSIGN   6099>>IF       6100>>ASSIGN   6102>>ASSIGN
      6102>>ASSIGN   6106>>IF       6108>>IF       6109>>ASSIGN   6111>>ASSIGN   6111>>ASSIGN   6113<<ASSIGN
      6113>>ASSIGN   6115>>IF       6117>>IF       6118>>ASSIGN   6120>>ASSIGN   6120>>ASSIGN   6123>>CALL
      6124>>CALL     6126>>IF       6127>>ASSIGN   6129>>ASSIGN   6129>>ASSIGN   6131>>IF       6133>>IF
      6134>>ASSIGN   6136>>ASSIGN   6136>>ASSIGN   6141>>DOINDEX  6143>>IF       6144>>ASSIGN   6146>>ASSIGN
      6146>>ASSIGN   6152>>IF       6153>>ASSIGN   6155>>ASSIGN   6155>>ASSIGN   6157>>CALL     6158>>CALL
      6159>>CALL     6160>>CALL     6168>>IF       6169>>ASSIGN   6171>>ASSIGN   6171>>ASSIGN   6174>>IF
PL6.E3A0      #001=VDW$LOAD File=VDW$WORKSPACE.:VDA5TSI                          FRI 07/04/97 11:41 Page:100
      6175>>ASSIGN   6177>>ASSIGN   6177>>ASSIGN   6183>>IF       6184>>ASSIGN   6186>>ASSIGN   6186>>ASSIGN
      6189>>IF       6190>>ASSIGN   6192>>ASSIGN   6192>>ASSIGN   6202>>IF       6203<<ASSIGN   6203>>ASSIGN
      6203>>ASSIGN   6206<<ASSIGN   6206>>ASSIGN   6206>>ASSIGN   6210<<ASSIGN   6213>>DOWHILE  6216>>DOCASE
      6219>>IF       6220<<ASSIGN   6220>>ASSIGN   6221>>CALL     6224>>CALL     6230>>IF       6231<<ASSIGN
      6231>>ASSIGN   6231>>ASSIGN   6234<<ASSIGN   6234>>ASSIGN   6234>>ASSIGN   6244>>CALL
OBJECT_LIMIT$ IN PROCEDURE POINTERIZE_RECORD
      4513**DCL      5805<<ASSIGN   5809>>DOWHILE  6213>>DOWHILE
OFREE_FAILED
      4448**LABEL    4426--CALLALT  4451--CALLALT
POINTERIZE_LOCATION IN PROCEDURE POINTERIZE_RECORD
      6762**PROC     5787--CALL     5979--CALL     5980--CALL     6123--CALL     6124--CALL     6157--CALL
      6158--CALL     6159--CALL     6160--CALL
POINTERIZE_RECORD
      4509**PROC     4397--CALL
POINTERIZE_RECORD_FAILED
      4437**LABEL    4397--CALLALT
POINTERIZE_STRUCTURE IN PROCEDURE POINTERIZE_RECORD
      6290**PROC     6221--CALL     6224--CALL
PREAD_FILE_READ_FAILED
      4437**LABEL    4366--CALLALT
PREV_WINDOW_INTENDED_HEIGHT
      3626**DCL      4350<<ASSIGN   4406>>ASSIGN   4413<<ASSIGN
STREAM
      3678**DCL      4416<>CALL     4424<>CALL     4426<>CALL     4449<>CALL     4451<>CALL
STREAM$
      3620**DCL      3678--IMP-PTR  4349<<ASSIGN   4356<>CALL     4416>>CALL     4423>>IF       4424>>CALL
      4426>>CALL     4448>>IF       4449>>CALL     4451>>CALL
STRUCTURE IN PROCEDURE POINTERIZE_STRUCTURE
      6292**DCL      6290--PROC     6708>>IF       6711>>CALL     6716<<ASSIGN
SUM
      3623**DCL      4375<<ASSIGN   4380<<ASSIGN   4380>>ASSIGN   4382>>IF
THIS_WINDOW_INTENDED_HEIGHT
      3627**DCL      4404<<ASSIGN   4413>>ASSIGN
VD$BLOCK_DESC.FILE_KEY.REP# IN PROCEDURE POINTERIZE_RECORD
      5168**DCL      6115>>IF
VD$BLOCK_DESC.FILE_KEY.V$ IN PROCEDURE POINTERIZE_RECORD
PL6.E3A0      #001=VDW$LOAD File=VDW$WORKSPACE.:VDA5TSI                          FRI 07/04/97 11:41 Page:101
      5168**DCL      6117--IF       6118<<ASSIGN   6120<<ASSIGN   6120--ASSIGN
VD$BLOCK_DESC.OPTIONS.KEY_INCR.REP# IN PROCEDURE POINTERIZE_RECORD
      5265**DCL      6131>>IF
VD$BLOCK_DESC.OPTIONS.KEY_INCR.V$ IN PROCEDURE POINTERIZE_RECORD
      5265**DCL      6133--IF       6134<<ASSIGN   6136<<ASSIGN   6136--ASSIGN
VD$BLOCK_DESC.OPTIONS.STRUCTURE$ IN PROCEDURE POINTERIZE_RECORD
      5251**DCL      6126--IF       6127<<ASSIGN   6129<<ASSIGN   6129--ASSIGN   6221<>CALL
VD$BLOCK_DESC.RANGE.ENDD IN PROCEDURE POINTERIZE_RECORD
      5220**DCL      6124<>CALL
VD$BLOCK_DESC.RANGE.START IN PROCEDURE POINTERIZE_RECORD
      5192**DCL      6123<>CALL
VD$BLOCK_DESC.RANGE.START IN PROCEDURE POINTERIZE_STRUCTURE
      6366**DCL      6711<>CALL
VD$BUFFER.LENGTH#
      4286**DCL      4288--IMP-SIZ
VD$BUFFER.BYTES IN PROCEDURE POINTERIZE_RECORD
      5322**DCL      5805--ASSIGN   6113--ASSIGN   6220--ASSIGN
VD$BUFFER.LENGTH# IN PROCEDURE POINTERIZE_RECORD
      5320**DCL      5322--IMP-SIZ
VD$BUFFER.LENGTH# IN PROCEDURE POINTERIZE_STRUCTURE
      6494**DCL      6496--IMP-SIZ
VD$BUFFER_HEADER.FLINK$ IN PROCEDURE POINTERIZE_RECORD
      5361**DCL      5827--IF       5828<<ASSIGN   5830<<ASSIGN   5830--ASSIGN   6108--IF       6109<<ASSIGN
      6111<<ASSIGN   6111--ASSIGN
VD$ENCODED_FILE_SPEC IN PROCEDURE HEADER_RECORD
      7086**DCL      7110>>ASSIGN
VD$ERR.DCB#
      4343**DCL      4437<<ASSIGN   6246<<ASSIGN
VD$EVAL.BLINK$ IN PROCEDURE POINTERIZE_RECORD
      5484**DCL      6152--IF       6153<<ASSIGN   6155<<ASSIGN   6155--ASSIGN
VD$EVAL.ENCLOSING.ENDD IN PROCEDURE POINTERIZE_RECORD
      5535**DCL      6158<>CALL
VD$EVAL.ENCLOSING.START IN PROCEDURE POINTERIZE_RECORD
      5507**DCL      6157<>CALL
VD$EVAL.RANGE.ENDD IN PROCEDURE POINTERIZE_RECORD
      5604**DCL      6160<>CALL
PL6.E3A0      #001=VDW$LOAD File=VDW$WORKSPACE.:VDA5TSI                          FRI 07/04/97 11:41 Page:102
VD$EVAL.RANGE.START IN PROCEDURE POINTERIZE_RECORD
      5576**DCL      6159<>CALL
VD$FIT.CODE2$ IN PROCEDURE POINTERIZE_RECORD
      5729**DCL      6168--IF       6169<<ASSIGN   6171<<ASSIGN   6171--ASSIGN
VD$FIT.CODE3$ IN PROCEDURE POINTERIZE_RECORD
      5729**DCL      6174--IF       6175<<ASSIGN   6177<<ASSIGN   6177--ASSIGN
VD$IT_ADJUST.FLINK$ IN PROCEDURE POINTERIZE_RECORD
      4791**DCL      5946--IF       5947<<ASSIGN   5949<<ASSIGN   5949--ASSIGN
VD$IT_ADJUST.MOVEMENTS$ IN PROCEDURE POINTERIZE_RECORD
      4791**DCL      5952--IF       5953<<ASSIGN   5955<<ASSIGN   5955--ASSIGN
VD$IT_ADJUST.MOVEMENTS_TAIL$ IN PROCEDURE POINTERIZE_RECORD
      4792**DCL      5958--IF       5959<<ASSIGN   5961<<ASSIGN   5961--ASSIGN
VD$IT_ADJUST.PARENT$ IN PROCEDURE POINTERIZE_RECORD
      4791**DCL      5940--IF       5941<<ASSIGN   5943<<ASSIGN   5943--ASSIGN
VD$IT_BLOCK_EXPR.DOMAINN.FILE_KEY.REP# IN PROCEDURE POINTERIZE_RECORD
      4842**DCL      5971>>IF
VD$IT_BLOCK_EXPR.DOMAINN.FILE_KEY.V$ IN PROCEDURE POINTERIZE_RECORD
      4842**DCL      5973--IF       5974<<ASSIGN   5976<<ASSIGN   5976--ASSIGN
VD$IT_BLOCK_EXPR.DOMAINN.RANGE.ENDD IN PROCEDURE POINTERIZE_RECORD
      4894**DCL      5980<>CALL
VD$IT_BLOCK_EXPR.DOMAINN.RANGE.START IN PROCEDURE POINTERIZE_RECORD
      4866**DCL      5979<>CALL
VD$IT_BLOCK_EXPR.FLINK$ IN PROCEDURE POINTERIZE_RECORD
      4828**DCL      5966--IF       5967<<ASSIGN   5969<<ASSIGN   5969--ASSIGN
VD$IT_BLOCK_EXPR.OPTIONS.KEY_INCR.REP# IN PROCEDURE POINTERIZE_RECORD
      4939**DCL      5982>>IF
VD$IT_BLOCK_EXPR.OPTIONS.KEY_INCR.V$ IN PROCEDURE POINTERIZE_RECORD
      4939**DCL      5984--IF       5985<<ASSIGN   5987<<ASSIGN   5987--ASSIGN
VD$IT_BLOCK_EXPR.OPTIONS.STRUCTURE$ IN PROCEDURE POINTERIZE_RECORD
      4925**DCL      5981<<ASSIGN
VD$IT_BLOCK_EXPR.SELECTS$ IN PROCEDURE POINTERIZE_RECORD
      4942**DCL      5991--IF       5992<<ASSIGN   5994<<ASSIGN   5994--ASSIGN
VD$IT_BLOCK_EXPR.SELECTS_TAIL$ IN PROCEDURE POINTERIZE_RECORD
      4942**DCL      5997--IF       5998<<ASSIGN   6000<<ASSIGN   6000--ASSIGN
VD$IT_COMMAND.FLINK$ IN PROCEDURE POINTERIZE_RECORD
      4978**DCL      6011--IF       6012<<ASSIGN   6014<<ASSIGN   6014--ASSIGN
PL6.E3A0      #001=VDW$LOAD File=VDW$WORKSPACE.:VDA5TSI                          FRI 07/04/97 11:41 Page:103
VD$IT_COMMAND.PARAM$ IN PROCEDURE POINTERIZE_RECORD
      4979**DCL      6018--IF       6019<<ASSIGN   6021<<ASSIGN   6021--ASSIGN
VD$IT_COMMAND.PARENT$ IN PROCEDURE POINTERIZE_RECORD
      4978**DCL      6005--IF       6006<<ASSIGN   6008<<ASSIGN   6008--ASSIGN
VD$IT_OPERAND.FLINK$ IN PROCEDURE POINTERIZE_RECORD
      5016**DCL      6033--IF       6034<<ASSIGN   6036<<ASSIGN   6036--ASSIGN
VD$IT_OPERAND.KEY.REP# IN PROCEDURE POINTERIZE_RECORD
      5044**DCL      6038>>IF
VD$IT_OPERAND.KEY.V$ IN PROCEDURE POINTERIZE_RECORD
      5044**DCL      6040--IF       6041<<ASSIGN   6043<<ASSIGN   6043--ASSIGN
VD$IT_OPERAND.PARAM$ IN PROCEDURE POINTERIZE_RECORD
      5046**DCL      6047--IF       6048<<ASSIGN   6050<<ASSIGN   6050--ASSIGN
VD$IT_OPERAND.PARENT$ IN PROCEDURE POINTERIZE_RECORD
      5016**DCL      6027--IF       6028<<ASSIGN   6030<<ASSIGN   6030--ASSIGN
VD$IT_OPERATOR.FLINK$ IN PROCEDURE POINTERIZE_RECORD
      5082**DCL      6061--IF       6062<<ASSIGN   6064<<ASSIGN   6064--ASSIGN
VD$IT_OPERATOR.OPERAND$ IN PROCEDURE POINTERIZE_RECORD
      5082**DCL      6067--IF       6068<<ASSIGN   6070<<ASSIGN   6070--ASSIGN
VD$IT_OPERATOR.PARENT$ IN PROCEDURE POINTERIZE_RECORD
      5082**DCL      6055--IF       6056<<ASSIGN   6058<<ASSIGN   6058--ASSIGN
VD$IT_OPERATOR.R_OPERAND$ IN PROCEDURE POINTERIZE_RECORD
      5083**DCL      6073--IF       6074<<ASSIGN   6076<<ASSIGN   6076--ASSIGN
VD$IT_SELECT.ADJUSTS$ IN PROCEDURE POINTERIZE_RECORD
      5120**DCL      6093--IF       6094<<ASSIGN   6096<<ASSIGN   6096--ASSIGN
VD$IT_SELECT.ADJUSTS_TAIL$ IN PROCEDURE POINTERIZE_RECORD
      5120**DCL      6099--IF       6100<<ASSIGN   6102<<ASSIGN   6102--ASSIGN
VD$IT_SELECT.FLINK$ IN PROCEDURE POINTERIZE_RECORD
      5119**DCL      6087--IF       6088<<ASSIGN   6090<<ASSIGN   6090--ASSIGN
VD$IT_SELECT.PARENT$ IN PROCEDURE POINTERIZE_RECORD
      5119**DCL      6081--IF       6082<<ASSIGN   6084<<ASSIGN   6084--ASSIGN
VD$OBJECT_HEADER.CLASS# IN PROCEDURE POINTERIZE_RECORD
      4537**DCL      5812>>DOCASE   6106>>IF       6203>>ASSIGN   6216>>DOCASE   6219>>IF       6231>>ASSIGN
      6244>>CALL
VD$OBJECT_HEADER.SIZE# IN PROCEDURE POINTERIZE_RECORD
      4537**DCL      6202>>IF       6206>>ASSIGN   6230>>IF       6234>>ASSIGN
VD$PATTERN.ENTRIES.MATCH$ IN PROCEDURE POINTERIZE_RECORD
PL6.E3A0      #001=VDW$LOAD File=VDW$WORKSPACE.:VDA5TSI                          FRI 07/04/97 11:41 Page:104
      5447**DCL      6143--IF       6144<<ASSIGN   6146<<ASSIGN   6146--ASSIGN
VD$PATTERN.N_ENTRIES# IN PROCEDURE POINTERIZE_RECORD
      5433**DCL      6141>>DOINDEX
VD$POINTER.FLINK$ IN PROCEDURE POINTERIZE_RECORD
      5773**DCL      6183--IF       6184<<ASSIGN   6186<<ASSIGN   6186--ASSIGN
VD$POINTER.V$ IN PROCEDURE POINTERIZE_RECORD
      5773**DCL      6189--IF       6190<<ASSIGN   6192<<ASSIGN   6192--ASSIGN   6224<>CALL
VD$PORT.CURRENT.EOF
      4214**DCL      4405>>IF
VD$PORT.LEVEL.SPEC.V$
      4230**DCL      4406>>ASSIGN
VD$PORT.LEVEL.INTERNAL$ IN PROCEDURE POINTERIZE_STRUCTURE
      6596**DCL      6716>>ASSIGN
VD$RECORD_SET.DESC.KEY.REP# IN PROCEDURE POINTERIZE_RECORD
      4701**DCL      5908>>IF
VD$RECORD_SET.DESC.KEY.V$ IN PROCEDURE POINTERIZE_RECORD
      4701**DCL      5910--IF       5911<<ASSIGN   5913<<ASSIGN   5913--ASSIGN
VD$RECORD_SET.N_ENTRIES# IN PROCEDURE POINTERIZE_RECORD
      4676**DCL      5907>>DOINDEX
VD$STREAM IN PROCEDURE POINTERIZE_STRUCTURE
      6607**DCL      6711<>CALL
VD$STREAM.CURRENT.EOF IN PROCEDURE POINTERIZE_STRUCTURE
      6674**DCL      6714>>IF
VD$STREAM.PORT$ IN PROCEDURE POINTERIZE_STRUCTURE
      6633**DCL      6716>>ASSIGN
VD$STRING_HEADER.FLINK$ IN PROCEDURE POINTERIZE_RECORD
      5397**DCL      5817--IF       5818<<ASSIGN   5820<<ASSIGN   5820--ASSIGN
VD$STRUCTURE_SPEC.ACCESSOR$ IN PROCEDURE POINTERIZE_RECORD
      4754**DCL      5926--IF       5927<<ASSIGN   5929<<ASSIGN   5929--ASSIGN
VD$STRUCTURE_SPEC.FIT$ IN PROCEDURE POINTERIZE_RECORD
      4754**DCL      5932--IF       5933<<ASSIGN   5935<<ASSIGN   5935--ASSIGN
VD$STRUCTURE_SPEC.FLINK$ IN PROCEDURE POINTERIZE_RECORD
      4754**DCL      5920--IF       5921<<ASSIGN   5923<<ASSIGN   5923--ASSIGN
VD$WINDOW_BLOCK.EDIT_BLOCK$ IN PROCEDURE POINTERIZE_RECORD
      4639**DCL      5894--IF       5895<<ASSIGN   5897<<ASSIGN   5897--ASSIGN
VD$WINDOW_BLOCK.EVAL$ IN PROCEDURE POINTERIZE_RECORD
PL6.E3A0      #001=VDW$LOAD File=VDW$WORKSPACE.:VDA5TSI                          FRI 07/04/97 11:41 Page:105
      4639**DCL      5900--IF       5901<<ASSIGN   5903<<ASSIGN   5903--ASSIGN
VD$WINDOW_BLOCK.FLINK$ IN PROCEDURE POINTERIZE_RECORD
      4639**DCL      5888--IF       5889<<ASSIGN   5891<<ASSIGN   5891--ASSIGN
VD$WINDOW_SPEC.COORDS.HEIGHT#
      4106**DCL      4406>>ASSIGN
VD$WINDOW_SPEC.EOFMARK$ IN PROCEDURE POINTERIZE_RECORD
      4601**DCL      5877>>IF       5879--IF       5880<<ASSIGN   5882<<ASSIGN   5882--ASSIGN
VD$WINDOW_SPEC.FLINK$ IN PROCEDURE POINTERIZE_RECORD
      4573**DCL      5835--IF       5836<<ASSIGN   5838<<ASSIGN   5838--ASSIGN
VD$WINDOW_SPEC.KEY_DEFINITION_BUFFER$ IN PROCEDURE POINTERIZE_RECORD
      4602**DCL      5866--IF       5867<<ASSIGN   5869<<ASSIGN   5869--ASSIGN
VD$WINDOW_SPEC.OPERAND.EDIT_BLOCK$ IN PROCEDURE POINTERIZE_RECORD
      4588**DCL      5848--IF       5849<<ASSIGN   5851<<ASSIGN   5851--ASSIGN
VD$WINDOW_SPEC.OPERAND.EVAL$ IN PROCEDURE POINTERIZE_RECORD
      4588**DCL      5854--IF       5855<<ASSIGN   5857<<ASSIGN   5857--ASSIGN
VD$WINDOW_SPEC.OPERAND.INTREE$ IN PROCEDURE POINTERIZE_RECORD
      4588**DCL      5842--IF       5843<<ASSIGN   5845<<ASSIGN   5845--ASSIGN
VD$WINDOW_SPEC.OPERAND.STREAM$ IN PROCEDURE POINTERIZE_RECORD
      4588**DCL      5840<<ASSIGN
VD$WINDOW_SPEC.RECORD_SET$ IN PROCEDURE POINTERIZE_RECORD
      4591**DCL      5860--IF       5861<<ASSIGN   5863<<ASSIGN   5863--ASSIGN
VD$WINDOW_SPEC.TABS$ IN PROCEDURE POINTERIZE_RECORD
      4600**DCL      5872--IF       5873<<ASSIGN   5875<<ASSIGN   5875--ASSIGN
VDA$FCLOSE
      3438**DCL-ENT  4424--CALL     4449--CALL
VDA$LDELETE
      3437**DCL-ENT  7120--CALL
VDA$LREAD IN PROCEDURE POINTERIZE_STRUCTURE
      6294**DCL-ENT  6711--CALL
VDG$EREPORT_ERROR
      3448**DCL-ENT  4442--CALL     7137--CALL
VDG$ERRMSG
      3439**DCL-ENT  4435--CALL     6244--CALL
VDG$ESCREECH
      3449**DCL-ENT  6715--CALL
VDG$MONERR
PL6.E3A0      #001=VDW$LOAD File=VDW$WORKSPACE.:VDA5TSI                          FRI 07/04/97 11:41 Page:106
      3440**DCL-ENT  7145--CALL
VDG$OALLOC
      3442**DCL-ENT  4356--CALL
VDG$OFREE
      3445**DCL-ENT  4426--CALL     4451--CALL
VDG$WARNMSG
      3441**DCL-ENT  7134--CALL
VDI$PREAD_FILE_READ
      3436**DCL-ENT  4366--CALL
VDW$RESTORE_NODE
      3447**DCL-ENT  4416--CALL
VD_$SCREEN.V#
      3584**DCL      4412>>ASSIGN
VD_6E.CMD_STREAM$
      3483**DCL      3639--IMP-PTR  4363>>ASSIGN   4370>>ASSIGN   4371>>IF       4420>>ASSIGN   4420>>ASSIGN
      4435>>CALL     6244>>CALL
VD_6E.ERR_TAIL$
      3484**DCL      4301--IMP-PTR  4437>>ASSIGN   6246>>ASSIGN
VD_6E.STRUCTURES$
      3465**DCL      6711>>CALL     6714>>IF       6716>>ASSIGN
VD_6E.WINDOWS$
      3466**DCL      3907--IMP-PTR  4405>>IF       4406>>ASSIGN   7120>>CALL
VD_KEY_NUMERIC_BOF
      3496**DCL      7117>>ASSIGN
VD_LAST_LOADED_FILE_SPEC
      3595**DCL      7110<<ASSIGN
VD_LAST_LOADED_FILE_SPEC.CONTENTS
      3610**DCL      7114>>IF       7124>>IF
VD_LAST_LOADED_FILE_SPEC.LAST_MODIFIED.PROFILE
      3613**DCL      7134<>CALL
VD_LAST_LOADED_FILE_SPEC.LAST_MODIFIED.PROFILE.BYTES
      3614**DCL      7130>>IF
VD_LAST_LOADED_FILE_SPEC.LAST_MODIFIED.PROFILE.LENGTH#
      3613**DCL      7130>>IF
VD_OBJECTS.SIZE
      3509**DCL      6203>>ASSIGN   6231>>ASSIGN
PL6.E3A0      #001=VDW$LOAD File=VDW$WORKSPACE.:VDA5TSI                          FRI 07/04/97 11:41 Page:107
VLP_LINEATTR IN PROCEDURE HEADER_RECORD
      7072**DCL      7127--ASSIGN
VLP_LINEATTR.PROFILE# IN PROCEDURE HEADER_RECORD
      7074**DCL      7074--REDEF
VLP_LINEATTR.PROTXTC IN PROCEDURE HEADER_RECORD
      7074**DCL      7134<>CALL
VLP_LINEATTR.PROTXTC.CNT IN PROCEDURE HEADER_RECORD
      7074**DCL      7130>>IF
VLP_LINEATTR.PROTXTC.TXT IN PROCEDURE HEADER_RECORD
      7075**DCL      7130>>IF
WINDOW$SPEC.COORDS.HEIGHT#
      4040**DCL      4404>>ASSIGN   4406<<ASSIGN   4412<<ASSIGN
WINDOWS$STREAM
      3907**DCL      7120<>CALL
WINDOWS$STREAM.PORT$
      3933**DCL      4405>>IF       4406>>ASSIGN
WINDOW_SPEC$
      3628**DCL      4013--IMP-PTR  4403<<ASSIGN   4404>>ASSIGN   4406>>ASSIGN   4412>>ASSIGN
WRESTORE_NODE_FAILED
      4437**LABEL    4416--CALLALT
WS_FILE_INVALID_FAILURE
      4435**LABEL    4373--GOTO     4383--GOTO     4391--GOTO
WS_FILE_INVALID_FAILURE IN PROCEDURE POINTERIZE_RECORD
      6231**LABEL    6198--GOTO

