VERSION A05

PL6.E3A0      #001=B_DELTA_D File=VD_DELTA_D.:VDA5TSI                            FRI 07/04/97 11:43 Page:1
        1        1        /*M* VD_DELTA_D - Default schema for DELTA */
        2        2        /*T***********************************************************/
        3        3        /*T*                                                         */
        4        4        /*T* Copyright (c) Bull HN Information Systems Inc., 1997    */
        5        5        /*T*                                                         */
        6        6        /*T***********************************************************/
        7        7        B_DELTA_D:PROC;
        8        8
        9        9    1   DCL B$JIT$ PTR SYMREF;
       10       10    1   DCL B$TCB$ PTR SYMREF;
       11       11
       12       12        %INCLUDE B$JIT;
       13      302 S      %INCLUDE CP_6_C;
       14      303        %B$ALT;
       15      311        %B$TCB (STCLASS="BASED(B$TCB$)");
       16      314        %F$DCB;
       17      371
       18      372        %INCLUDE VD_MACROS_M;
       19     2587        %INCLUDE XU_MACRO_C;
       20     5681        %INCLUDE XUE_MACRO_C;
       21     6425        %INCLUDE XUH_MACRO_C;
       22     6509        %INCLUDE XUM_MACRO_C;
       23     6536
       24     6537        %VD$ACCESS_OPTIONS (STCLASS=BASED);
       25     6566        %VD$ARRAY_OBJECT (STCLASS=BASED);
       26     6602        %VD$BLOCK_DESC (STCLASS=BASED);
       27     6749        %VD$BUFFER (STCLASS=BASED);
       28     6807        %VD$BUFFER_HEADER (STCLASS=BASED);
       29     6843        %VD$CMD_STREAM (STCLASS=BASED);
       30     6882        %VD$DCBS (STCLASS=BASED);
       31     6897        %VD$DIR_NODE (STCLASS=BASED);
       32     6935        %VD$ENCODED_DESC (STCLASS=BASED);
       33     7019        %VD$ENCODED_FILE_SPEC (STCLASS=BASED);
       34     7048        %VD$ENCODED_NODE (STCLASS=BASED);
       35     7169        %VD$ERR (STCLASS=BASED);
       36     7222        %VD$ERR_CODE (STCLASS=BASED);
       37     7237        %VD$EVAL (STCLASS=BASED);
PL6.E3A0      #001=B_DELTA_D File=VD_DELTA_D.:VDA5TSI                            FRI 07/04/97 11:43 Page:2
       38     7482        %VD$EVAL_OPTIONS (STCLASS=BASED);
       39     7497        %VD$EVAL_PATTERN (STCLASS=BASED);
       40     7604        %VD$FILE_KEY (STCLASS=BASED);
       41     7653        %VD$FILE_NODE (STCLASS=BASED);
       42     7746        %VD$FIT (STCLASS=BASED);
       43     7782        %VD$IT_ADJUST (STCLASS=BASED);
       44     7819        %VD$IT_BLOCK_EXPR (STCLASS=BASED);
       45     7969        %VD$IT_COMMAND (STCLASS=BASED);
       46     8007        %VD$IT_OPERAND (STCLASS=BASED);
       47     8073        %VD$IT_OPERATOR (STCLASS=BASED);
       48     8110        %VD$IT_SELECT (STCLASS=BASED);
       49     8147        %VD$KEY (STCLASS=BASED);
       50     8161        %VD$KEY_LOCAL (STCLASS=BASED);
       51     8176        %VD$KEY_NUMBER (STCLASS=BASED);
       52     8191        %VD$LOCATION (STCLASS=BASED);
       53     8219        %VD$LOCATION_PTRS (STCLASS=BASED);
       54     8234        %VD$NAC (STCLASS=BASED);
       55     8248        %VD$NAME_SPEC (STCLASS=BASED);
       56     8296        %VD$NODE_DESC (STCLASS=BASED);
       57     8338        %VD$NUMBER (STCLASS=BASED);
       58     8383        %VD$OBJECT_HEADER (STCLASS=BASED);
       59     8405        %VD$OPERAND (STCLASS=BASED);
       60     8419        %VD$PATTERN (STCLASS=BASED);
       61     8470        %VD$PATT_ENTRY (STCLASS=BASED);
       62     8485        %VD$PDFF (STCLASS=BASED);
       63     8499        %VD$POINTER (STCLASS=BASED);
       64     8544        %VD$PORT (STCLASS=BASED);
       65     8642        %VD$RANGE (STCLASS=BASED);
       66     8711        %VD$RECORD_SET (STCLASS=BASED);
       67     8789        %VD$SPEC (STCLASS=BASED);
       68     8803        %VD$SPEC_LOCAL (STCLASS=BASED);
       69     8818        %VD$STREAM (STCLASS=BASED);
       70     8924        %VD$STRING_HEADER (STCLASS=BASED);
       71     8960        %VD$STRUCTURE_LEVEL (STCLASS=BASED);
       72     9007        %VD$STRUCTURE_SPEC (STCLASS=BASED);
       73     9044        %VD$TABS (STCLASS=BASED);
       74     9081        %VD$TEXTC (STCLASS=BASED);
PL6.E3A0      #001=B_DELTA_D File=VD_DELTA_D.:VDA5TSI                            FRI 07/04/97 11:43 Page:3
       75     9104        %VD$TEXTC_NUMBER (STCLASS=BASED);
       76     9118        %VD$TEXTC_REMOTE (STCLASS=BASED);
       77     9179        %VD$WINDOW_BLOCK (STCLASS=BASED);
       78     9216        %VD$WINDOW_SPEC (STCLASS=BASED);
       79     9282        %VD$XLATE_ENTRY (STCLASS=BASED);
       80     9339        %VD$XLATE_LOCATIONS (STCLASS=BASED);
       81     9475
       82     9476        %VD_6E (NAME=VD_6E, STCLASS=SYMREF);
       83     9512        %VD$DCBS (NAME=VD_DCBS, STCLASS=SYMREF);
       84     9527    1   DCL VD_UTS_START UBIN SYMREF;
       85     9528    1   DCL VD_WORST_FLAGLEV UBIN SYMREF;
       86     9529    1   DCL VD_LAST_CWIN_ACTIVITY UBIN SYMREF;
       87     9530    1   DCL VD_FORCE_READ_FROM UBIN SYMREF;
       88     9531    1   DCL VD_SCREEN_HEIGHT SBIN SYMREF;
       89     9532    1   DCL VD_SCREEN_WIDTH SBIN SYMREF;
       90     9533    1   DCL VD_2DIM BIT(1) ALIGNED SYMREF;
       91     9534        %VLP_TRMCTL (FPTN=VD_ORIGINAL_EDTCTL, STCLASS=SYMREF);
       92     9574        %VLP_TRMCTL (FPTN=VD_ORIGINAL_TRMCTL, STCLASS=SYMREF);
       93     9614        %VLP_TAB (FPTN=VD_ORIGINAL_TAB, STCLASS=SYMREF);
       94     9628        %VLP_PLATEN (FPTN=VD_ORIGINAL_PLATEN, STCLASS=SYMREF);
       95     9650    1   DCL VD_CURRENT_WINDOW$ PTR SYMREF;
       96     9651    1   DCL VD_COMMAND_WINDOW$ PTR SYMREF;
       97     9652    1   DCL VD_STATIC_TEMP CHAR(%NB_STATIC_TEMP) SYMREF;
       98     9653    1   DCL VD_CMD_OBJECTS$ (0:%(MX_CMD_OBJECTS-1)) PTR SYMREF;
       99     9654        %VD$ENCODED_FILE_SPEC (NAME=VD_LAST_LOADED_FILE_SPEC, STCLASS=SYMREF);
      100     9683        %XUM$MCB (NAME=VD_MCB_SMALL, STCLASS=SYMREF);
      101     9687        %XUM$MCB (NAME=VD_MCB_LARGE, STCLASS=SYMREF);
      102     9691        %P_PCB (NAME=VD_PCB, STCLASS=SYMREF);
      103     9890        %XUG_INIT (STCLASS=SYMREF);
      104    10303        %XUG_GETCMD (STCLASS=SYMREF);
      105    10641        %XUH_PARAM (STCLASS=SYMREF);
      106    10702        %XUE_ECB (STCLASS=SYMREF);
      107    10904        %FPT_EXIT (FPTN=VD_EXIT, STCLASS=SYMREF);
      108    10919    1   DCL VD_RESERVED_TABLE$ (0:%MXNB_RESERVED_WORD) PTR SYMREF ALIGNED;
      109    10920        %VD_OBJECTS (NAME=VD_OBJECTS, STCLASS=SYMREF);
      110    10960        %VD_KEY (NAME=VD_KEY_SCRATCH_LEFTOVER, STCLASS=SYMREF);
      111    10996        %VD_FILE_KEY (NAME=VD_FKEY_SCRATCH_LEFTOVER, STCLASS=SYMREF);
PL6.E3A0      #001=B_DELTA_D File=VD_DELTA_D.:VDA5TSI                            FRI 07/04/97 11:43 Page:4
      112    11048        %VD_KEY (NAME=VD_KEY_SCRATCH_SOURCE, STCLASS=SYMREF);
      113    11084        %VD_FILE_KEY (NAME=VD_FKEY_SCRATCH_SOURCE, STCLASS=SYMREF);
      114    11136        %VD_LOCATION (NAME=VD_LOC_$LEFTOVER, STCLASS=SYMREF, INITS=1);
      115    11211        %VD_LOCATION (NAME=VD_LOC_$MATCHES, STCLASS=SYMREF, INITS=1);
      116    11286        %VD_LOCATION (NAME=VD_LOC_$NOT_COPIED, STCLASS=SYMREF, INITS=1);
      117    11361        %VD_LOCATION (NAME=VD_LOC_$RECORDS_DELETED, STCLASS=SYMREF);
      118    11401        %VD_LOCATION (NAME=VD_LOC_$RECORDS_INSERTED, STCLASS=SYMREF);
      119    11441        %VD_LOCATION (NAME=VD_LOC_$SITES, STCLASS=SYMREF, INITS=1);
      120    11516        %VD_KEY (NAME=VD_KEY_NUMERIC_BOF, STCLASS=SYMREF);
      121    11552        %VD_KEY (NAME=VD_KEY_FIRST_CONSEC_REC, STCLASS=SYMREF);
      122    11588    1   DCL VD_NODE_READERS$$ (0:%(MX_SPEC_TYPES-1)) EPTR SYMREF;
      123    11589    1   DCL VD_NODE_WRITERS$$ (0:%(MX_SPEC_TYPES-1)) EPTR SYMREF;
      124    11590        %VD_NUMBER (NAME=VD_$$INCANTATION, STCLASS=SYMREF);
      125    11637        %VD_NUMBER (NAME=VD_$$MON_ACC, STCLASS=SYMREF);
      126    11684        %VD_NUMBER (NAME=VD_$$MON_EVAL, STCLASS=SYMREF);
      127    11731        %VD_NUMBER (NAME=VD_$$MON_PRES, STCLASS=SYMREF);
      128    11778        %VD_NUMBER (NAME=VD_$$QUAC, STCLASS=SYMREF);
      129    11825        %VD_NUMBER (NAME=VD_$AUTOTAB, STCLASS=SYMREF);
      130    11872        %VD_NUMBER (NAME=VD_$BY, STCLASS=SYMREF);
      131    11919        %VD_NUMBER (NAME=VD_$CASE, STCLASS=SYMREF);
      132    11966        %VD_NUMBER (NAME=VD_$COMMAND, STCLASS=SYMREF);
      133    12013        %VD_NUMBER (NAME=VD_$COMPONENT, STCLASS=SYMREF);
      134    12060        %VD_NUMBER (NAME=VD_$DIRECTION, STCLASS=SYMREF);
      135    12107        %VD_NUMBER (NAME=VD_$EXIST, STCLASS=SYMREF);
      136    12154        %VD_NAME_SPEC (NAME=S_$HSCROLL, STCLASS=SYMREF);
      137    12205        %VD_NUMBER (NAME=VD_$HSCROLL, STCLASS=SYMREF);
      138    12252        %VD_NAME_SPEC (NAME=S_$HSCROLL_MARGIN, STCLASS=SYMREF);
      139    12303        %VD_NUMBER (NAME=VD_$HSCROLL_MARGIN, STCLASS=SYMREF);
      140    12350        %VD_NUMBER (NAME=VD_$INSERT, STCLASS=SYMREF);
      141    12397        %VD_NUMBER (NAME=VD_$KEY_GENERATION, STCLASS=SYMREF);
      142    12444        %VD_NUMBER (NAME=VD_$MATCHES, STCLASS=SYMREF);
      143    12491        %VD_NUMBER (NAME=VD_$MATCH_LIMIT, STCLASS=SYMREF);
      144    12538        %VD_NUMBER (NAME=VD_$MAX_COMMAND, STCLASS=SYMREF);
      145    12585        %VD_NUMBER (NAME=VD_$MAX_RECORD, STCLASS=SYMREF);
      146    12632        %VD_NUMBER (NAME=VD_$MIN_COMMAND, STCLASS=SYMREF);
      147    12679        %VD_NUMBER (NAME=VD_$MIN_RECORD, STCLASS=SYMREF);
      148    12726        %VD_POINTER (NAME=VD_$PATTERN, STCLASS=SYMREF, ICLASS=0);
PL6.E3A0      #001=B_DELTA_D File=VD_DELTA_D.:VDA5TSI                            FRI 07/04/97 11:43 Page:5
      149    12773        %VD_NUMBER (NAME=VD_$POINT, STCLASS=SYMREF);
      150    12820        %VD_NUMBER (NAME=VD_$PROTECT, STCLASS=SYMREF);
      151    12867        %VD_NUMBER (NAME=VD_$RECORDS_DELETED, STCLASS=SYMREF);
      152    12914        %VD_NUMBER (NAME=VD_$RECORDWRAP, STCLASS=SYMREF);
      153    12961        %VD_NUMBER (NAME=VD_$RECORDS_INSERTED, STCLASS=SYMREF);
      154    13008        %VD_NAME_SPEC (NAME=S_$SCREEN, STCLASS=SYMREF);
      155    13059        %VD_NUMBER (NAME=VD_$SCREEN, STCLASS=SYMREF);
      156    13106        /*%VD$NUMBER (NAME=VD_$SCROLL, STCLASS=SYMREF); */
      157    13107        %VD_NUMBER (NAME=VD_$SEARCH, STCLASS=SYMREF);
      158    13154        %VD_NUMBER (NAME=VD_$SITES, STCLASS=SYMREF);
      159    13201        %VD_NUMBER (NAME=VD_$SKIP, STCLASS=SYMREF);
      160    13248        %VD_NUMBER (NAME=VD_$STRIP_BLANKS, STCLASS=SYMREF);
      161    13295        %VD_POINTER (NAME=VD_$STRUCTURE, STCLASS=SYMREF, ICLASS=0);
      162    13342        %VD_NAME_SPEC (NAME=S_$VSCROLL, STCLASS=SYMREF);
      163    13393        %VD_NUMBER (NAME=VD_$VSCROLL, STCLASS=SYMREF);
      164    13440        %VD_NAME_SPEC (NAME=S_$VSCROLL_MARGIN, STCLASS=SYMREF);
      165    13491        %VD_NUMBER (NAME=VD_$VSCROLL_MARGIN, STCLASS=SYMREF);
      166    13538        %VD_NUMBER (NAME=VD_$WI_PERCENT, STCLASS=SYMREF);
      167    13585        %VD_NUMBER (NAME=VD_$WORDWRAP, STCLASS=SYMREF);
      168    13632        %VD_BUFFER (NAME=VD_$COMMENT, STCLASS=SYMREF,
      169    13633            MXNB=%MXNB_$COMMENT);
      170    13693        %VD_BUFFER (NAME=VD_$CONTEXT, STCLASS=SYMREF,
      171    13694            MXNB=%MXNB_FID);
      172    13754        %VD_BUFFER (NAME=VD_$CONTROL, STCLASS=SYMREF,
      173    13755            MXNB=%MXNB_$CONTROL);
      174    13815        %VD_BUFFER (NAME=VD_$DEFAULT_DESTINATION, STCLASS=SYMREF,
      175    13816            MXNB=%MXNB_DFLT_BLKEXPR);
      176    13876        %VD_BUFFER (NAME=VD_$DEFAULT_SOURCE, STCLASS=SYMREF,
      177    13877            MXNB=%MXNB_DFLT_BLKEXPR);
      178    13937        %VD_BUFFER (NAME=VD_$INTRO_1, STCLASS=SYMREF,
      179    13938            MXNB=%MXNB_$INTRO);
      180    13998        %VD_BUFFER (NAME=VD_$INTRO_2, STCLASS=SYMREF,
      181    13999            MXNB=%MXNB_$INTRO);
      182    14059        %VD_BUFFER (NAME=VD_$PAD, STCLASS=SYMREF,
      183    14060            MXNB=%MXNB_$PAD);
      184    14120        %VD_BUFFER (NAME=VD_$RESTORE, STCLASS=SYMREF,
      185    14121            MXNB=%MXNB_$RESTORE);
PL6.E3A0      #001=B_DELTA_D File=VD_DELTA_D.:VDA5TSI                            FRI 07/04/97 11:43 Page:6
      186    14181        %VD_BUFFER (NAME=VD_$WI_BORDER, STCLASS=SYMREF,
      187    14182            MXNB=1);
      188    14242        %VD_BUFFER (NAME=VD_$WS_STORAGE, STCLASS=SYMREF,
      189    14243            MXNB=1);
      190    14303        %VD$NODE_DESC (NAME=VDP_NODE_DESC, STCLASS=SYMREF);
      191    14345    1   DCL VDP_BUFFER$ PTR SYMREF;
      192    14346    1   DCL VDP_KEY$ PTR SYMREF;
      193    14347    1   DCL VDP_KEY_AND_BUFFER$ PTR SYMREF;
      194    14348    1   DCL VDP_SPEC$ PTR SYMREF;
      195    14349    1   DCL VDP_SOBS BIT(1) ALIGNED SYMREF;
      196    14350        %PARSE$OUT (NAME=P$OUT, STCLASS=BASED);
      197    14395        %PARSE$SYM (NAME=P$SYM, STCLASS=BASED);
      198    14433    1   END B_DELTA_D;

PL6.E3A0      #001=B_DELTA_D File=VD_DELTA_D.:VDA5TSI                            FRI 07/04/97 11:43 Page:7
--  Include file information  --

   XUM_MACRO_C.:LIBRARY  is referenced.
   XUH_MACRO_C.:LIBRARY  is referenced.
   XUE_MACRO_C.:LIBRARY  is referenced.
   XU_MACRO_C.:LIBRARY  is referenced.
   VD_MACROS_M.:VDA5TOU  is referenced.
   B$JIT.:LIBRARY  cannot be made into a system file and is referenced.
   B$JIT_C.:E04TOU  was found in the system file and is referenced.
   CP_6_C.:E04TOU  was found in the system file and is referenced.
      No diagnostics issued in procedure B_DELTA_D.

   No code generated for procedure B_DELTA_D .
   Procedure B_DELTA_D requires 4 words of local(AUTO) storage.

    No errors detected in file VD_DELTA_D.:VDA5TSI    .

PL6.E3A0      #001=B_DELTA_D File=VD_DELTA_D.:VDA5TSI                            FRI 07/04/97 11:43 Page:8

 Object Unit name= B_DELTA_D                                  File name= VD_DELTA_D.:VDA5TOU
 UTS= JUL 04 '97 11:43:33.40 FRI                              Compiler= PL-6/E31         Sev=      00
 SharedLib= :SHARED_SYSTEM                                    Alt SharedLib=


    ****  Control sections  ****

 Sect   Type Bound  Init  Size OctSiz  Section name(segment info)
    0   Proc  even  none     0      0  B_DELTA_D

    ****  Entry defs  ****

                              Check   Calling
                             calling  sequence
  Sect OctLoc Primary Altret sequence   type   Parms  Name
     0      0   yes            yes     ~proc       0  B_DELTA_D

  ****  Data refs  ****

  Flags:  r = read only, s = secondary
Flgs Name                             Flgs Name                             Flgs Name
     B$JIT$                                B$TCB$                                VD_NODE_READERS$$
     VD_NODE_WRITERS$$                     VD_$COMMENT                           VD_$CONTEXT
     VD_$CONTROL                           VD_$DEFAULT_DESTINATION               VD_$DEFAULT_SOURCE
     VD_$INTRO_1                           VD_$INTRO_2                           VD_$PAD
     VD_$RESTORE                           VD_$WI_BORDER                         VD_$WS_STORAGE
PL6.E3A0      #001=B_DELTA_D File=VD_DELTA_D.:VDA5TSI                            FRI 07/04/97 11:43 Page:9

        1        1        /*M* VD_DELTA_D - Default schema for DELTA */
        2        2        /*T***********************************************************/
        3        3        /*T*                                                         */
        4        4        /*T* Copyright (c) Bull HN Information Systems Inc., 1997    */
        5        5        /*T*                                                         */
        6        6        /*T***********************************************************/
        7        7        B_DELTA_D:PROC;
        8        8
        9        9    1   DCL B$JIT$ PTR SYMREF;
       10       10    1   DCL B$TCB$ PTR SYMREF;
       11       11
       12       12        %INCLUDE B$JIT;
       13      302 S      %INCLUDE CP_6_C;
       14      303        %B$ALT;
       15      311        %B$TCB (STCLASS="BASED(B$TCB$)");
       16      314        %F$DCB;
       17      371
       18      372        %INCLUDE VD_MACROS_M;
       19     2587        %INCLUDE XU_MACRO_C;
       20     5681        %INCLUDE XUE_MACRO_C;
       21     6425        %INCLUDE XUH_MACRO_C;
       22     6509        %INCLUDE XUM_MACRO_C;
       23     6536
       24     6537        %VD$ACCESS_OPTIONS (STCLASS=BASED);
       25     6566        %VD$ARRAY_OBJECT (STCLASS=BASED);
       26     6602        %VD$BLOCK_DESC (STCLASS=BASED);
       27     6749        %VD$BUFFER (STCLASS=BASED);
       28     6807        %VD$BUFFER_HEADER (STCLASS=BASED);
       29     6843        %VD$CMD_STREAM (STCLASS=BASED);
       30     6882        %VD$DCBS (STCLASS=BASED);
       31     6897        %VD$DIR_NODE (STCLASS=BASED);
       32     6935        %VD$ENCODED_DESC (STCLASS=BASED);
       33     7019        %VD$ENCODED_FILE_SPEC (STCLASS=BASED);
       34     7048        %VD$ENCODED_NODE (STCLASS=BASED);
       35     7169        %VD$ERR (STCLASS=BASED);
       36     7222        %VD$ERR_CODE (STCLASS=BASED);
       37     7237        %VD$EVAL (STCLASS=BASED);
PL6.E3A0      #001=B_DELTA_D File=VD_DELTA_D.:VDA5TSI                            FRI 07/04/97 11:43 Page:10
       38     7482        %VD$EVAL_OPTIONS (STCLASS=BASED);
       39     7497        %VD$EVAL_PATTERN (STCLASS=BASED);
       40     7604        %VD$FILE_KEY (STCLASS=BASED);
       41     7653        %VD$FILE_NODE (STCLASS=BASED);
       42     7746        %VD$FIT (STCLASS=BASED);
       43     7782        %VD$IT_ADJUST (STCLASS=BASED);
       44     7819        %VD$IT_BLOCK_EXPR (STCLASS=BASED);
       45     7969        %VD$IT_COMMAND (STCLASS=BASED);
       46     8007        %VD$IT_OPERAND (STCLASS=BASED);
       47     8073        %VD$IT_OPERATOR (STCLASS=BASED);
       48     8110        %VD$IT_SELECT (STCLASS=BASED);
       49     8147        %VD$KEY (STCLASS=BASED);
       50     8161        %VD$KEY_LOCAL (STCLASS=BASED);
       51     8176        %VD$KEY_NUMBER (STCLASS=BASED);
       52     8191        %VD$LOCATION (STCLASS=BASED);
       53     8219        %VD$LOCATION_PTRS (STCLASS=BASED);
       54     8234        %VD$NAC (STCLASS=BASED);
       55     8248        %VD$NAME_SPEC (STCLASS=BASED);
       56     8296        %VD$NODE_DESC (STCLASS=BASED);
       57     8338        %VD$NUMBER (STCLASS=BASED);
       58     8383        %VD$OBJECT_HEADER (STCLASS=BASED);
       59     8405        %VD$OPERAND (STCLASS=BASED);
       60     8419        %VD$PATTERN (STCLASS=BASED);
       61     8470        %VD$PATT_ENTRY (STCLASS=BASED);
       62     8485        %VD$PDFF (STCLASS=BASED);
       63     8499        %VD$POINTER (STCLASS=BASED);
       64     8544        %VD$PORT (STCLASS=BASED);
       65     8642        %VD$RANGE (STCLASS=BASED);
       66     8711        %VD$RECORD_SET (STCLASS=BASED);
       67     8789        %VD$SPEC (STCLASS=BASED);
       68     8803        %VD$SPEC_LOCAL (STCLASS=BASED);
       69     8818        %VD$STREAM (STCLASS=BASED);
       70     8924        %VD$STRING_HEADER (STCLASS=BASED);
       71     8960        %VD$STRUCTURE_LEVEL (STCLASS=BASED);
       72     9007        %VD$STRUCTURE_SPEC (STCLASS=BASED);
       73     9044        %VD$TABS (STCLASS=BASED);
       74     9081        %VD$TEXTC (STCLASS=BASED);
PL6.E3A0      #001=B_DELTA_D File=VD_DELTA_D.:VDA5TSI                            FRI 07/04/97 11:43 Page:11
       75     9104        %VD$TEXTC_NUMBER (STCLASS=BASED);
       76     9118        %VD$TEXTC_REMOTE (STCLASS=BASED);
       77     9179        %VD$WINDOW_BLOCK (STCLASS=BASED);
       78     9216        %VD$WINDOW_SPEC (STCLASS=BASED);
       79     9282        %VD$XLATE_ENTRY (STCLASS=BASED);
       80     9339        %VD$XLATE_LOCATIONS (STCLASS=BASED);
       81     9475
       82     9476        %VD_6E (NAME=VD_6E, STCLASS=SYMREF);
       83     9512        %VD$DCBS (NAME=VD_DCBS, STCLASS=SYMREF);
       84     9527    1   DCL VD_UTS_START UBIN SYMREF;
       85     9528    1   DCL VD_WORST_FLAGLEV UBIN SYMREF;
       86     9529    1   DCL VD_LAST_CWIN_ACTIVITY UBIN SYMREF;
       87     9530    1   DCL VD_FORCE_READ_FROM UBIN SYMREF;
       88     9531    1   DCL VD_SCREEN_HEIGHT SBIN SYMREF;
       89     9532    1   DCL VD_SCREEN_WIDTH SBIN SYMREF;
       90     9533    1   DCL VD_2DIM BIT(1) ALIGNED SYMREF;
       91     9534        %VLP_TRMCTL (FPTN=VD_ORIGINAL_EDTCTL, STCLASS=SYMREF);
       92     9574        %VLP_TRMCTL (FPTN=VD_ORIGINAL_TRMCTL, STCLASS=SYMREF);
       93     9614        %VLP_TAB (FPTN=VD_ORIGINAL_TAB, STCLASS=SYMREF);
       94     9628        %VLP_PLATEN (FPTN=VD_ORIGINAL_PLATEN, STCLASS=SYMREF);
       95     9650    1   DCL VD_CURRENT_WINDOW$ PTR SYMREF;
       96     9651    1   DCL VD_COMMAND_WINDOW$ PTR SYMREF;
       97     9652    1   DCL VD_STATIC_TEMP CHAR(%NB_STATIC_TEMP) SYMREF;
       98     9653    1   DCL VD_CMD_OBJECTS$ (0:%(MX_CMD_OBJECTS-1)) PTR SYMREF;
       99     9654        %VD$ENCODED_FILE_SPEC (NAME=VD_LAST_LOADED_FILE_SPEC, STCLASS=SYMREF);
      100     9683        %XUM$MCB (NAME=VD_MCB_SMALL, STCLASS=SYMREF);
      101     9687        %XUM$MCB (NAME=VD_MCB_LARGE, STCLASS=SYMREF);
      102     9691        %P_PCB (NAME=VD_PCB, STCLASS=SYMREF);
      103     9890        %XUG_INIT (STCLASS=SYMREF);
      104    10303        %XUG_GETCMD (STCLASS=SYMREF);
      105    10641        %XUH_PARAM (STCLASS=SYMREF);
      106    10702        %XUE_ECB (STCLASS=SYMREF);
      107    10904        %FPT_EXIT (FPTN=VD_EXIT, STCLASS=SYMREF);
      108    10919    1   DCL VD_RESERVED_TABLE$ (0:%MXNB_RESERVED_WORD) PTR SYMREF ALIGNED;
      109    10920        %VD_OBJECTS (NAME=VD_OBJECTS, STCLASS=SYMREF);
      110    10960        %VD_KEY (NAME=VD_KEY_SCRATCH_LEFTOVER, STCLASS=SYMREF);
      111    10996        %VD_FILE_KEY (NAME=VD_FKEY_SCRATCH_LEFTOVER, STCLASS=SYMREF);
PL6.E3A0      #001=B_DELTA_D File=VD_DELTA_D.:VDA5TSI                            FRI 07/04/97 11:43 Page:12
      112    11048        %VD_KEY (NAME=VD_KEY_SCRATCH_SOURCE, STCLASS=SYMREF);
      113    11084        %VD_FILE_KEY (NAME=VD_FKEY_SCRATCH_SOURCE, STCLASS=SYMREF);
      114    11136        %VD_LOCATION (NAME=VD_LOC_$LEFTOVER, STCLASS=SYMREF, INITS=1);
      115    11211        %VD_LOCATION (NAME=VD_LOC_$MATCHES, STCLASS=SYMREF, INITS=1);
      116    11286        %VD_LOCATION (NAME=VD_LOC_$NOT_COPIED, STCLASS=SYMREF, INITS=1);
      117    11361        %VD_LOCATION (NAME=VD_LOC_$RECORDS_DELETED, STCLASS=SYMREF);
      118    11401        %VD_LOCATION (NAME=VD_LOC_$RECORDS_INSERTED, STCLASS=SYMREF);
      119    11441        %VD_LOCATION (NAME=VD_LOC_$SITES, STCLASS=SYMREF, INITS=1);
      120    11516        %VD_KEY (NAME=VD_KEY_NUMERIC_BOF, STCLASS=SYMREF);
      121    11552        %VD_KEY (NAME=VD_KEY_FIRST_CONSEC_REC, STCLASS=SYMREF);
      122    11588    1   DCL VD_NODE_READERS$$ (0:%(MX_SPEC_TYPES-1)) EPTR SYMREF;
      123    11589    1   DCL VD_NODE_WRITERS$$ (0:%(MX_SPEC_TYPES-1)) EPTR SYMREF;
      124    11590        %VD_NUMBER (NAME=VD_$$INCANTATION, STCLASS=SYMREF);
      125    11637        %VD_NUMBER (NAME=VD_$$MON_ACC, STCLASS=SYMREF);
      126    11684        %VD_NUMBER (NAME=VD_$$MON_EVAL, STCLASS=SYMREF);
      127    11731        %VD_NUMBER (NAME=VD_$$MON_PRES, STCLASS=SYMREF);
      128    11778        %VD_NUMBER (NAME=VD_$$QUAC, STCLASS=SYMREF);
      129    11825        %VD_NUMBER (NAME=VD_$AUTOTAB, STCLASS=SYMREF);
      130    11872        %VD_NUMBER (NAME=VD_$BY, STCLASS=SYMREF);
      131    11919        %VD_NUMBER (NAME=VD_$CASE, STCLASS=SYMREF);
      132    11966        %VD_NUMBER (NAME=VD_$COMMAND, STCLASS=SYMREF);
      133    12013        %VD_NUMBER (NAME=VD_$COMPONENT, STCLASS=SYMREF);
      134    12060        %VD_NUMBER (NAME=VD_$DIRECTION, STCLASS=SYMREF);
      135    12107        %VD_NUMBER (NAME=VD_$EXIST, STCLASS=SYMREF);
      136    12154        %VD_NAME_SPEC (NAME=S_$HSCROLL, STCLASS=SYMREF);
      137    12205        %VD_NUMBER (NAME=VD_$HSCROLL, STCLASS=SYMREF);
      138    12252        %VD_NAME_SPEC (NAME=S_$HSCROLL_MARGIN, STCLASS=SYMREF);
      139    12303        %VD_NUMBER (NAME=VD_$HSCROLL_MARGIN, STCLASS=SYMREF);
      140    12350        %VD_NUMBER (NAME=VD_$INSERT, STCLASS=SYMREF);
      141    12397        %VD_NUMBER (NAME=VD_$KEY_GENERATION, STCLASS=SYMREF);
      142    12444        %VD_NUMBER (NAME=VD_$MATCHES, STCLASS=SYMREF);
      143    12491        %VD_NUMBER (NAME=VD_$MATCH_LIMIT, STCLASS=SYMREF);
      144    12538        %VD_NUMBER (NAME=VD_$MAX_COMMAND, STCLASS=SYMREF);
      145    12585        %VD_NUMBER (NAME=VD_$MAX_RECORD, STCLASS=SYMREF);
      146    12632        %VD_NUMBER (NAME=VD_$MIN_COMMAND, STCLASS=SYMREF);
      147    12679        %VD_NUMBER (NAME=VD_$MIN_RECORD, STCLASS=SYMREF);
      148    12726        %VD_POINTER (NAME=VD_$PATTERN, STCLASS=SYMREF, ICLASS=0);
PL6.E3A0      #001=B_DELTA_D File=VD_DELTA_D.:VDA5TSI                            FRI 07/04/97 11:43 Page:13
      149    12773        %VD_NUMBER (NAME=VD_$POINT, STCLASS=SYMREF);
      150    12820        %VD_NUMBER (NAME=VD_$PROTECT, STCLASS=SYMREF);
      151    12867        %VD_NUMBER (NAME=VD_$RECORDS_DELETED, STCLASS=SYMREF);
      152    12914        %VD_NUMBER (NAME=VD_$RECORDWRAP, STCLASS=SYMREF);
      153    12961        %VD_NUMBER (NAME=VD_$RECORDS_INSERTED, STCLASS=SYMREF);
      154    13008        %VD_NAME_SPEC (NAME=S_$SCREEN, STCLASS=SYMREF);
      155    13059        %VD_NUMBER (NAME=VD_$SCREEN, STCLASS=SYMREF);
      156    13106        /*%VD$NUMBER (NAME=VD_$SCROLL, STCLASS=SYMREF); */
      157    13107        %VD_NUMBER (NAME=VD_$SEARCH, STCLASS=SYMREF);
      158    13154        %VD_NUMBER (NAME=VD_$SITES, STCLASS=SYMREF);
      159    13201        %VD_NUMBER (NAME=VD_$SKIP, STCLASS=SYMREF);
      160    13248        %VD_NUMBER (NAME=VD_$STRIP_BLANKS, STCLASS=SYMREF);
      161    13295        %VD_POINTER (NAME=VD_$STRUCTURE, STCLASS=SYMREF, ICLASS=0);
      162    13342        %VD_NAME_SPEC (NAME=S_$VSCROLL, STCLASS=SYMREF);
      163    13393        %VD_NUMBER (NAME=VD_$VSCROLL, STCLASS=SYMREF);
      164    13440        %VD_NAME_SPEC (NAME=S_$VSCROLL_MARGIN, STCLASS=SYMREF);
      165    13491        %VD_NUMBER (NAME=VD_$VSCROLL_MARGIN, STCLASS=SYMREF);
      166    13538        %VD_NUMBER (NAME=VD_$WI_PERCENT, STCLASS=SYMREF);
      167    13585        %VD_NUMBER (NAME=VD_$WORDWRAP, STCLASS=SYMREF);
      168    13632        %VD_BUFFER (NAME=VD_$COMMENT, STCLASS=SYMREF,
      169    13633            MXNB=%MXNB_$COMMENT);
      170    13693        %VD_BUFFER (NAME=VD_$CONTEXT, STCLASS=SYMREF,
      171    13694            MXNB=%MXNB_FID);
      172    13754        %VD_BUFFER (NAME=VD_$CONTROL, STCLASS=SYMREF,
      173    13755            MXNB=%MXNB_$CONTROL);
      174    13815        %VD_BUFFER (NAME=VD_$DEFAULT_DESTINATION, STCLASS=SYMREF,
      175    13816            MXNB=%MXNB_DFLT_BLKEXPR);
      176    13876        %VD_BUFFER (NAME=VD_$DEFAULT_SOURCE, STCLASS=SYMREF,
      177    13877            MXNB=%MXNB_DFLT_BLKEXPR);
      178    13937        %VD_BUFFER (NAME=VD_$INTRO_1, STCLASS=SYMREF,
      179    13938            MXNB=%MXNB_$INTRO);
      180    13998        %VD_BUFFER (NAME=VD_$INTRO_2, STCLASS=SYMREF,
      181    13999            MXNB=%MXNB_$INTRO);
      182    14059        %VD_BUFFER (NAME=VD_$PAD, STCLASS=SYMREF,
      183    14060            MXNB=%MXNB_$PAD);
      184    14120        %VD_BUFFER (NAME=VD_$RESTORE, STCLASS=SYMREF,
      185    14121            MXNB=%MXNB_$RESTORE);
PL6.E3A0      #001=B_DELTA_D File=VD_DELTA_D.:VDA5TSI                            FRI 07/04/97 11:43 Page:14
      186    14181        %VD_BUFFER (NAME=VD_$WI_BORDER, STCLASS=SYMREF,
      187    14182            MXNB=1);
      188    14242        %VD_BUFFER (NAME=VD_$WS_STORAGE, STCLASS=SYMREF,
      189    14243            MXNB=1);
      190    14303        %VD$NODE_DESC (NAME=VDP_NODE_DESC, STCLASS=SYMREF);
      191    14345    1   DCL VDP_BUFFER$ PTR SYMREF;
      192    14346    1   DCL VDP_KEY$ PTR SYMREF;
      193    14347    1   DCL VDP_KEY_AND_BUFFER$ PTR SYMREF;
      194    14348    1   DCL VDP_SPEC$ PTR SYMREF;
      195    14349    1   DCL VDP_SOBS BIT(1) ALIGNED SYMREF;
      196    14350        %PARSE$OUT (NAME=P$OUT, STCLASS=BASED);
      197    14395        %PARSE$SYM (NAME=P$SYM, STCLASS=BASED);
      198    14433    1   END B_DELTA_D;

PL6.E3A0      #001=B_DELTA_D File=VD_DELTA_D.:VDA5TSI                            FRI 07/04/97 11:43 Page:15
--  Include file information  --

   XUM_MACRO_C.:LIBRARY  is referenced.
   XUH_MACRO_C.:LIBRARY  is referenced.
   XUE_MACRO_C.:LIBRARY  is referenced.
   XU_MACRO_C.:LIBRARY  is referenced.
   VD_MACROS_M.:VDA5TOU  is referenced.
   B$JIT.:LIBRARY  cannot be made into a system file and is referenced.
   B$JIT_C.:E04TOU  was found in the system file and is referenced.
   CP_6_C.:E04TOU  was found in the system file and is referenced.
      No diagnostics issued in procedure B_DELTA_D.
PL6.E3A0      #001=B_DELTA_D File=VD_DELTA_D.:VDA5TSI                            FRI 07/04/97 11:43 Page:16

 **** Variables and constants ****

  ****  SYMREF variables  ****

  ****  Scalars and arrays  ****
OctLoc.c.b A Datatyp(siz) R M Lvl/name                 OctLoc.c.b A Datatyp(siz) R M Lvl/name

     0-0-0/w PTR         r     1 B$JIT$                     0-0-0/w PTR         r     1 B$TCB$
     0-0-0/w ASTR(90)    r     1 VD_$COMMENT                0-0-0/w ASTR(90)    r     1 VD_$CONTEXT
     0-0-0/w ASTR(90)    r     1 VD_$CONTROL
     0-0-0/w ASTR(90)    r     1 VD_$DEFAULT_DESTINATION
     0-0-0/w ASTR(90)    r     1 VD_$DEFAULT_SOURCE         0-0-0/w ASTR(90)    r     1 VD_$INTRO_1
     0-0-0/w ASTR(90)    r     1 VD_$INTRO_2                0-0-0/w ASTR(90)    r     1 VD_$PAD
     0-0-0/w ASTR(90)    r     1 VD_$RESTORE                0-0-0/w ASTR(90)    r     1 VD_$WI_BORDER
     0-0-0/w ASTR(90)    r     1 VD_$WS_STORAGE
     0-0-0/w EPTR        r     1 VD_NODE_READERS$$(0:19)
     0-0-0/w EPTR        r     1 VD_NODE_WRITERS$$(0:19)

  ****  BASED and DCB variables  ****

  ****  Scalars and arrays  ****
OctLoc.c.b A Datatyp(siz) R M Lvl/name                 OctLoc.c.b A Datatyp(siz) R M Lvl/name

     0-0-0/d ASTR(3528)  r     1 F$DCB                      0-0-0/w ASTR(153)   r     1 P$SYM
     0-0-0/w ASTR(90)    r     1 VD$BUFFER                  0-0-0/w ASTR(9)     r     1 VD$TEXTC
     0-0-0/w ASTR(81)    r     1 VD$TEXTC_REMOTE


   No code generated for procedure B_DELTA_D .
   Procedure B_DELTA_D requires 4 words of local(AUTO) storage.

    No errors detected in file VD_DELTA_D.:VDA5TSI    .
PL6.E3A0      #001=B_DELTA_D File=VD_DELTA_D.:VDA5TSI                            FRI 07/04/97 11:43 Page:17
          *** CROSS REFERENCE LISTING ***
**     DENOTES     IDENTIFIER DEFINITION
<<                 IDENTIFIER'S VALUE SET
>>                 IDENTIFIER'S VALUE USED
<>                 IDENTIFIER SET AND/OR USED
--                 IDENTIFIER REFERENCED
PL6.E3A0      #001=B_DELTA_D File=VD_DELTA_D.:VDA5TSI                            FRI 07/04/97 11:43 Page:18
          MINI XREF LISTING

B$ALT.CODE
       305**DCL       305--REDEF     306--REDEF     306--REDEF
B$ALT.ERR.ERR#
       307**DCL       307--REDEF
B$ALT.EVID
       306**DCL       306--REDEF     306--REDEF
B$JIT.CPFLAGS1.SLEAZE
       120**DCL       120--REDEF
B$JIT.ERR.MID
        27**DCL        27--REDEF
B$JIT.JRESPEAK
       188**DCL       189--REDEF
B$JIT.ORIGINATOR_PORT.FROM_CR
       297**DCL       297--REDEF     298--REDEF
B$JIT.PNR
       201**DCL       201--REDEF
B$JIT.TSLINE
       295**DCL       296--REDEF
B$JIT$
         9**DCL        21--IMP-PTR
B$TCB$
        10**DCL       312--IMP-PTR
F$DCB.ACTPOS
       347**DCL       347--REDEF
F$DCB.ARS#
       321**DCL       321--REDEF
F$DCB.ATTR
       340**DCL       341--REDEF
F$DCB.BORROW
       355**DCL       355--REDEF     355--REDEF     355--REDEF
F$DCB.DCBNAME.L
       369**DCL       369--IMP-SIZ
PL6.E3A0      #001=B_DELTA_D File=VD_DELTA_D.:VDA5TSI                            FRI 07/04/97 11:43 Page:19
F$DCB.EOMCHAR#
       325**DCL       325--REDEF
F$DCB.FLDID
       350**DCL       350--REDEF
F$DCB.FORM$
       344**DCL       344--REDEF
F$DCB.FSECT
       360**DCL       360--REDEF
F$DCB.FSN#
       337**DCL       337--REDEF     337--REDEF     338--REDEF
F$DCB.HEADER$
       343**DCL       343--REDEF
F$DCB.IXTNSIZE#
       341**DCL       341--REDEF
F$DCB.LASTSTA$
       330**DCL       330--REDEF
F$DCB.LVL
       356**DCL       356--REDEF
F$DCB.NAME#.C
       331**DCL       331--REDEF
F$DCB.NOEOF
       353**DCL       353--REDEF
F$DCB.NRECS#
       342**DCL       342--REDEF
F$DCB.NRECX
       361**DCL       361--REDEF
F$DCB.OHDR
       353**DCL       353--REDEF
F$DCB.ORG#
       336**DCL       336--REDEF
F$DCB.PRECNO
       359**DCL       359--REDEF
F$DCB.RCSZ
       365**DCL       365--REDEF
F$DCB.RES#
       332**DCL       332--REDEF
PL6.E3A0      #001=B_DELTA_D File=VD_DELTA_D.:VDA5TSI                            FRI 07/04/97 11:43 Page:20
F$DCB.SETX
       344**DCL       344--REDEF
F$DCB.TAB$
       344**DCL       344--REDEF
F$DCB.TDA
       358**DCL       359--REDEF
F$DCB.WSN#
       332**DCL       332--REDEF
P$SYM.COUNT
     14425**DCL     14428--IMP-SIZ
VD$BUFFER.LENGTH#
      6800**DCL      6802--IMP-SIZ
VD$TEXTC.LENGTH#
      9097**DCL      9099--IMP-SIZ
VD$TEXTC_REMOTE.LENGTH#
      9172**DCL      9174--IMP-SIZ
VD_$COMMENT.LENGTH#
     13685**DCL     13687--IMP-SIZ
VD_$CONTEXT.LENGTH#
     13746**DCL     13748--IMP-SIZ
VD_$CONTROL.LENGTH#
     13807**DCL     13809--IMP-SIZ
VD_$DEFAULT_DESTINATION.LENGTH#
     13868**DCL     13870--IMP-SIZ
VD_$DEFAULT_SOURCE.LENGTH#
     13929**DCL     13931--IMP-SIZ
VD_$INTRO_1.LENGTH#
     13990**DCL     13992--IMP-SIZ
VD_$INTRO_2.LENGTH#
     14051**DCL     14053--IMP-SIZ
VD_$PAD.LENGTH#
     14112**DCL     14114--IMP-SIZ
VD_$RESTORE.LENGTH#
     14173**DCL     14175--IMP-SIZ
VD_$WI_BORDER.LENGTH#
     14234**DCL     14236--IMP-SIZ
PL6.E3A0      #001=B_DELTA_D File=VD_DELTA_D.:VDA5TSI                            FRI 07/04/97 11:43 Page:21
VD_$WS_STORAGE.LENGTH#
     14295**DCL     14297--IMP-SIZ
VD_EXIT.V.STEPCC#
     10916**DCL     10916--REDEF
VD_ORIGINAL_EDTCTL.BREAKCOUNT
      9563**DCL      9563--REDEF
VD_ORIGINAL_TRMCTL.BREAKCOUNT
      9603**DCL      9603--REDEF
XUG_GETCMD.OUT$
     10321**DCL     10327--REDEF
