PL6.E3A0      #003=VMA$ADD_RENTRY File=VMA$SUBR.:VMB6TSI                         WED 08/20/97 15:02 Page:110
      661        1        /*T***********************************************************/
      662        2        /*T*                                                         */
      663        3        /*T* Copyright (c) Bull HN Information Systems Inc., 1997    */
      664        4        /*T*                                                         */
      665        5        /*T***********************************************************/
      666        6        /*X* DMC,PLM=4,IND=4,CTI=2,DTI=0,ENI=0,ECI=0,CSI=0,DCI=4 */
      667        7        /*X* DMC,PLM=4,IND=4,CTI=2,DTI=0,ENI=0,ECI=0,CSI=0,DCI=4 */
      668        8        /*F*
      669        9             NAME: VMA$ADD_RENTRY
      670       10             PURPOSE:
      671       11                   To add a RESOLVED address entry to the VM_ADD_HEAD structure.
      672       12             DESCRIPTION:
      673       13                   This routine has four parameters:
      674       14
      675       15                      ACCT       - account number of this address.
      676       16                      FOLDER     - folder name of this address.
      677       17                      PASSWORD   - password for this address.
      678       18                      SITENAME   - sitename where this address resides.
      679       19
      680       20                   This routine will take these items, at least one is required,
      681       21                   and create a new entry in the address structure described
      682       22                   by VM_ADD_HEAD and VM_RADDRESS.
      683       23
      684       24                   This routine will not resue blocks on the FREED BLOCKS CHAIN.
      685       25                   This routine was built to run at the maximum speed possible
      686       26                   and therefore should only be used when space is not at
      687       27                   a premium and a specific order is not necessary.
      688       28                   VM_ADD_HEAD must be the last object in the data segment.
      689       29                   Everything after it will be stomped on.
      690       30        */
      691       31        VMA$ADD_RENTRY: PROC (ACCT,FOLDER,PASSWORD,SITENAME,ERR#,NAME_KEY) ALTRET;
      692       32        /***** Include files *****/
      693       33          %INCLUDE CP_6;
      694     5592          %INCLUDE CP_6_SUBS;
      695     6132          %INCLUDE VM_MACRO_C;
      696     7400          %INCLUDE VM_SUBS_C;
      697     7660          %INCLUDE VM_DATA_R;
PL6.E3A0      #003=VMA$ADD_RENTRY File=VMA$SUBR.:VMB6TSI                         WED 08/20/97 15:02 Page:111
      698     8091          %INCLUDE XUM_MACRO_C;
      699     8118        /***** Parameters *****/
      700     8119          %VLP_ACCT (FPTN=ACCT,STCLASS=" ");
      701     8132    1   DCL FOLDER CHAR(%SIZ_FOLDER);
      702     8133          %VLP_PASS (FPTN=PASSWORD,STCLASS=" ");
      703     8146    1   DCL SITENAME CHAR(%SIZ_SITENAME);
      704     8147    1   DCL ERR# BIT(1);
      705     8148    1   DCL NAME_KEY CHAR(20);
      706     8149        /***** Mail structures *****/
      707     8150          %VM_ADDTYPES;
      708     8154          %VM_ADD_HEAD;
      709     8183          %VM_RADDRESS (NAME=VM$RADDRESS,STCLASS=BASED);
      710     8218          %XUM$MCB (NAME=X$MCB,STCLASS=STATIC);
      711     8222        /***** Local variables *****/
      712     8223    1   DCL SITE CHAR(%SIZ_SITENAME);
      713     8224    1   DCL PTR$ PTR STATIC;
      714     8225    1   DCL LINK1$ PTR STATIC;
      715     8226    1   DCL LINK2$ PTR STATIC;
      716     8227        /***** External routines *****/
      717     8228    1   DCL VMA$ENLARGE_SEGMENT ENTRY(2) ALTRET;
      718     8229    1   DCL X$ALLOCATE ENTRY(1) ALTRET;
      719     8230    1   DCL X$DEALLOCATE ENTRY(1) ALTRET;
      720     8231        %EJECT;
PL6.E3A0      #003=VMA$ADD_RENTRY File=VMA$SUBR.:VMB6TSI                         WED 08/20/97 15:02 Page:112
      721     8232        /*
      722     8233             ***** Is this the first entry???
      723     8234        */
      724     8235    1       IF VM_ADD_HEAD.NUM_ENTRIES = 0
      725     8236    1       THEN
      726     8237    2       DO;
      727     8238    2           VM_ADD_HEAD.HEAD$ = ADDR(NIL);
      728     8239    2           VM_ADD_HEAD.FREE$ = ADDR(NIL);
      729     8240    2           VM_ADD_HEAD.NEXT$ = ADDR(VM_ADD_HEAD.WORK_AREA);
      730     8241    2       END;
      731     8242        /*
      732     8243             ***** Allocate space for this entry ...
      733     8244        */
      734     8245    1       X$MCB.TYPE = 0;
      735     8246    1       X$MCB.MIN_SIZE = SIZEC(VM$RADDRESS);
      736     8247    1       X$MCB.SEGMENT_BASE$ = VBASE(VM_ADDLIST_);
      737     8248    1       X$MCB.HI_SEGMENT$ = VM_ADD_HEAD.NEXT$;
      738     8249    1       X$MCB.FREE_HEAD$ = VM_ADD_HEAD.FREE$;
      739     8250    1       X$MCB.WKSZ = (VBOUND(VM_ADDLIST_)+1)/4;
      740     8251    1       X$MCB.SIZE = SIZEC(VM$RADDRESS);
      741     8252    1       CALL X$ALLOCATE (X$MCB)
      742     8253    1       WHENALTRETURN
      743     8254    2       DO;
      744     8255    2           CALL VMA$ENLARGE_SEGMENT (VM_ADDLIST_) ALTRET(E_ADD);
      745     8256    2           X$MCB.WKSZ = X$MCB.WKSZ + 1024;
      746     8257    2           CALL X$ALLOCATE (X$MCB) ALTRET(E_ADD);
      747     8258    2       END;
      748     8259    1       PTR$ = X$MCB.ADDRESS$;
      749     8260    1       VM_ADD_HEAD.NEXT$ = X$MCB.HI_SEGMENT$;
      750     8261    1       VM_ADD_HEAD.FREE$ = X$MCB.FREE_HEAD$;
      751     8262        /*
      752     8263             ***** Add new entry.
      753     8264                   Go for speed. Do not sort...
      754     8265        */
      755     8266    1       IF SITENAME = ' '
      756     8267    1       THEN                            /* Supply local sitename */
      757     8268    1           SITE = VM_SITENAME;
PL6.E3A0      #003=VMA$ADD_RENTRY File=VMA$SUBR.:VMB6TSI                         WED 08/20/97 15:02 Page:113
      758     8269    1       ELSE
      759     8270    1           SITE = SITENAME;
      760     8271    1       PTR$ -> VM$RADDRESS.NEXT$ = VM_ADD_HEAD.HEAD$;
      761     8272    1       PTR$ -> VM$RADDRESS.PREV$ = ADDR(NIL);
      762     8273    1       PTR$ -> VM$RADDRESS.TYPE = %VM_ADD_RESOLVED;
      763     8274    1       PTR$ -> VM$RADDRESS.ACCT = ACCT.ACCT#;
      764     8275    1       PTR$ -> VM$RADDRESS.FOLDER = FOLDER;
      765     8276    1       PTR$ -> VM$RADDRESS.PASS = PASSWORD.PASS#;
      766     8277    1       PTR$ -> VM$RADDRESS.SITENAME = SITE;
      767     8278    1       PTR$ -> VM$RADDRESS.FLAGS = %NO#;
      768     8279    1       IF ADDR(NAME_KEY) ~= ADDR(NIL)
      769     8280    1       THEN                            /* Use supplied value */
      770     8281    1           PTR$ -> VM$RADDRESS.NAME_KEY = NAME_KEY;
      771     8282    1       ELSE                            /* Use blanks */
      772     8283    1           PTR$ -> VM$RADDRESS.NAME_KEY = ' ';
      773     8284    1       IF ADDR(ERR#) ~= ADDR(NIL)
      774     8285    1       THEN
      775     8286    1           PTR$ -> VM$RADDRESS.FLAGS.UNDEF# = ERR#;
      776     8287    1       VM_ADD_HEAD.HEAD$ = PTR$;
      777     8288        /*
      778     8289             ***** Update NEXT$, NUM_ENTRIES and ADDRESS_SIZE ...
      779     8290        */
      780     8291    1       VM_ADD_HEAD.NEXT$ = X$MCB.HI_SEGMENT$;
      781     8292    1       VM_ADD_HEAD.FREE$ = X$MCB.FREE_HEAD$;
      782     8293    1       VM_ADD_HEAD.NUM_ENTRIES = VM_ADD_HEAD.NUM_ENTRIES + 1;
      783     8294    1       VM_ADD_HEAD.ADDRESS_SIZE = POFFW(VM_ADD_HEAD.NEXT$,VM_ADDLIST$);
      784     8295    1       IF PTR$ -> VM$RADDRESS.FLAGS.UNDEF#
      785     8296    1       THEN
      786     8297    1           VM_ADD_HEAD.FLAGS.ERR# = %YES#;
      787     8298    1       RETURN;
      788     8299        /**/
      789     8300    1   E_ADD:
      790     8301    1       ALTRETURN;
      791     8302        %EJECT;
PL6.E3A0      #003=VMA$ADD_RENTRY File=VMA$SUBR.:VMB6TSI                         WED 08/20/97 15:02 Page:114
      792     8303        /*F*
      793     8304             NAME: VMA$ADD_RENTRY_SORTED
      794     8305             PURPOSE:
      795     8306                   To add a RESOLVED addres entry in sorted order.
      796     8307             DESCRIPTION:
      797     8308                   This routine will do the same thing as VMA$ADD_RENTRY,
      798     8309                   except the entries will be in sorted order based on
      799     8310                   ACCT. These entries will be sorted after any UNRESOLVED
      800     8311                   entries.
      801     8312
      802     8313                   This routine will reuse blocks on the FREED BLOCKS CHAIN
      803     8314                   pointed to by VM_ADD_HEAD.FREE$ whenever possible.
      804     8315        */
      805     8316    1   VMA$ADD_RENTRY_SORTED: ENTRY (ACCT,FOLDER,PASSWORD,SITENAME,ERR#,NAME_KEY) ALTRET;
      806     8317        %EJECT;
PL6.E3A0      #003=VMA$ADD_RENTRY File=VMA$SUBR.:VMB6TSI                         WED 08/20/97 15:02 Page:115
      807     8318        /*
      808     8319             ***** Is this the first entry???
      809     8320        */
      810     8321    1       IF VM_ADD_HEAD.NUM_ENTRIES = 0
      811     8322    1       THEN
      812     8323    2       DO;
      813     8324    2           VM_ADD_HEAD.HEAD$ = ADDR(NIL);
      814     8325    2           VM_ADD_HEAD.FREE$ = ADDR(NIL);
      815     8326    2           VM_ADD_HEAD.NEXT$ = ADDR(VM_ADD_HEAD.WORK_AREA);
      816     8327    2       END;
      817     8328        /*
      818     8329             ***** Check for duplicate entry
      819     8330        */
      820     8331    1       LINK1$ = VM_ADD_HEAD.HEAD$;
      821     8332    2       DO WHILE LINK1$ ~= ADDR(NIL);
      822     8333    2           IF LINK1$ -> VM$RADDRESS.TYPE = %VM_ADD_RESOLVED
      823     8334    2             AND LINK1$ -> VM$RADDRESS.ACCT = ACCT.ACCT#
      824     8335    2             AND LINK1$ -> VM$RADDRESS.FOLDER = FOLDER
      825     8336    2             AND LINK1$ -> VM$RADDRESS.SITENAME = SITENAME
      826     8337    2             AND LINK1$ -> VM$RADDRESS.PASS = PASSWORD.PASS#
      827     8338    2           THEN
      828     8339    2               IF ADDR(NAME_KEY) = ADDR(NIL)
      829     8340    3               THEN DO;
      830     8341    3                   IF LINK1$ -> VM$RADDRESS.NAME_KEY = ' '
      831     8342    3                   THEN
      832     8343    3                       RETURN;
      833     8344    3               END;
      834     8345    3               ELSE DO;
      835     8346    3                   IF LINK1$ -> VM$RADDRESS.NAME_KEY = NAME_KEY
      836     8347    3                   THEN
      837     8348    3                       RETURN;
      838     8349    3               END;
      839     8350    2           LINK1$ = LINK1$ -> VM$RADDRESS.NEXT$;
      840     8351    2       END;
      841     8352        /*
      842     8353             ***** Allocate space for this entry ...
      843     8354        */
PL6.E3A0      #003=VMA$ADD_RENTRY File=VMA$SUBR.:VMB6TSI                         WED 08/20/97 15:02 Page:116
      844     8355    1       X$MCB.TYPE = 0;
      845     8356    1       X$MCB.MIN_SIZE = SIZEC(VM$RADDRESS);
      846     8357    1       X$MCB.SEGMENT_BASE$ = VBASE(VM_ADDLIST_);
      847     8358    1       X$MCB.HI_SEGMENT$ = VM_ADD_HEAD.NEXT$;
      848     8359    1       X$MCB.FREE_HEAD$ = VM_ADD_HEAD.FREE$;
      849     8360    1       X$MCB.WKSZ = (VBOUND(VM_ADDLIST_)+1)/4;
      850     8361    1       X$MCB.SIZE = SIZEC(VM$RADDRESS);
      851     8362    1       CALL X$ALLOCATE (X$MCB)
      852     8363    1       WHENALTRETURN
      853     8364    2       DO;
      854     8365    2           CALL VMA$ENLARGE_SEGMENT (VM_ADDLIST_) ALTRET(E_ADD);
      855     8366    2           X$MCB.WKSZ = X$MCB.WKSZ + 1024;
      856     8367    2           CALL X$ALLOCATE (X$MCB) ALTRET(E_ADD);
      857     8368    2       END;
      858     8369    1       PTR$ = X$MCB.ADDRESS$;
      859     8370    1       VM_ADD_HEAD.NEXT$ = X$MCB.HI_SEGMENT$;
      860     8371    1       VM_ADD_HEAD.FREE$ = X$MCB.FREE_HEAD$;
      861     8372        /*
      862     8373             ***** Store info ...
      863     8374        */
      864     8375    1       PTR$ -> VM$RADDRESS.NEXT$ = ADDR(NIL);
      865     8376    1       PTR$ -> VM$RADDRESS.PREV$ = ADDR(NIL);
      866     8377    1       PTR$ -> VM$RADDRESS.TYPE = %VM_ADD_RESOLVED;
      867     8378    1       PTR$ -> VM$RADDRESS.ACCT = ACCT.ACCT#;
      868     8379    1       PTR$ -> VM$RADDRESS.FOLDER = FOLDER;
      869     8380    1       PTR$ -> VM$RADDRESS.PASS = PASSWORD.PASS#;
      870     8381    1       PTR$ -> VM$RADDRESS.SITENAME = SITENAME;
      871     8382    1       PTR$ -> VM$RADDRESS.FLAGS = %NO#;
      872     8383    1       IF ADDR(NAME_KEY) ~= ADDR(NIL)
      873     8384    1       THEN                            /* Use supplied value */
      874     8385    1           PTR$ -> VM$RADDRESS.NAME_KEY = NAME_KEY;
      875     8386    1       ELSE                            /* Use blanks */
      876     8387    1           PTR$ -> VM$RADDRESS.NAME_KEY = ' ';
      877     8388    1       IF ADDR(ERR#) ~= ADDR(NIL)
      878     8389    1       THEN
      879     8390    1           PTR$ -> VM$RADDRESS.FLAGS.UNDEF# = ERR#;
      880     8391        /*
PL6.E3A0      #003=VMA$ADD_RENTRY File=VMA$SUBR.:VMB6TSI                         WED 08/20/97 15:02 Page:117
      881     8392             ***** First entry?
      882     8393        */
      883     8394    1       IF VM_ADD_HEAD.HEAD$ = ADDR(NIL)
      884     8395    1       THEN
      885     8396    2       DO;
      886     8397    2           VM_ADD_HEAD.HEAD$ = PTR$;
      887     8398    2           GOTO UPDATE_RENTRY;
      888     8399    2       END;
      889     8400        /*
      890     8401             ***** New first entry?
      891     8402        */
      892     8403    1       IF VM_ADD_HEAD.HEAD$ -> VM$RADDRESS.TYPE = %VM_ADD_RESOLVED
      893     8404    1         AND VM_ADD_HEAD.HEAD$ -> VM$RADDRESS.ACCT > ACCT.ACCT#
      894     8405    1       THEN
      895     8406    2       DO;
      896     8407    2           PTR$ -> VM$RADDRESS.NEXT$ = VM_ADD_HEAD.HEAD$;
      897     8408    2           VM_ADD_HEAD.HEAD$ -> VM$RADDRESS.PREV$ = PTR$;
      898     8409    2           VM_ADD_HEAD.HEAD$ = PTR$;
      899     8410    2           GOTO UPDATE_RENTRY;
      900     8411    2       END;
      901     8412        /*
      902     8413             ***** Insert at end of list ...
      903     8414        */
      904     8415    1       LINK1$ = VM_ADD_HEAD.HEAD$;
      905     8416    1       LINK2$ = ADDR(NIL);               /* Points to previous entry */
      906     8417    2       DO WHILE (LINK1$ ~= ADDR(NIL));
      907     8418    2           IF LINK1$ -> VM$RADDRESS.TYPE = %VM_ADD_RESOLVED
      908     8419    2             AND LINK1$ -> VM$RADDRESS.ACCT > ACCT.ACCT#
      909     8420    2           THEN                       /* Insert now */
      910     8421    2               EXIT;
      911     8422    2           LINK2$ = LINK1$;
      912     8423    2           LINK1$ = LINK1$ -> VM$RADDRESS.NEXT$;
      913     8424    2       END;                            /* Do while ... end */
      914     8425    1       IF LINK1$ = ADDR(NIL)
      915     8426    1       THEN                            /* Insert at end */
      916     8427    2       DO;
      917     8428    2           PTR$ -> VM$RADDRESS.PREV$ = LINK2$;
PL6.E3A0      #003=VMA$ADD_RENTRY File=VMA$SUBR.:VMB6TSI                         WED 08/20/97 15:02 Page:118
      918     8429    2           LINK2$ -> VM$RADDRESS.NEXT$ = PTR$;
      919     8430    2           GOTO UPDATE_RENTRY;
      920     8431    2       END;
      921     8432    1       ELSE                            /* Insert in middle */
      922     8433    2       DO;
      923     8434    2           PTR$ -> VM$RADDRESS.PREV$ = LINK1$ -> VM$RADDRESS.PREV$;
      924     8435    2           PTR$ -> VM$RADDRESS.NEXT$ = LINK1$;
      925     8436    2           LINK1$ -> VM$RADDRESS.PREV$ = PTR$;
      926     8437    2           IF LINK2$ ~= ADDR(NIL)
      927     8438    2           THEN                  /* Previous node exists */
      928     8439    2               LINK2$ -> VM$RADDRESS.NEXT$ = PTR$;
      929     8440    2       END;
      930     8441        /*
      931     8442             ***** Update NEXT$, NUM_ENTRIES and ADDRESS_SIZE ...
      932     8443        */
      933     8444    1   UPDATE_RENTRY:
      934     8445    1       VM_ADD_HEAD.NEXT$ = X$MCB.HI_SEGMENT$;
      935     8446    1       VM_ADD_HEAD.FREE$ = X$MCB.FREE_HEAD$;
      936     8447    1       VM_ADD_HEAD.NUM_ENTRIES = VM_ADD_HEAD.NUM_ENTRIES + 1;
      937     8448    1       VM_ADD_HEAD.ADDRESS_SIZE = POFFW(VM_ADD_HEAD.NEXT$,VM_ADDLIST$);
      938     8449    1       IF PTR$ -> VM$RADDRESS.FLAGS.UNDEF#
      939     8450    1       THEN
      940     8451    1           VM_ADD_HEAD.FLAGS.ERR# = %YES#;
      941     8452    1       RETURN;
      942     8453        %EJECT;
PL6.E3A0      #003=VMA$ADD_RENTRY File=VMA$SUBR.:VMB6TSI                         WED 08/20/97 15:02 Page:119
      943     8454        /*F*
      944     8455             NAME: VMA$DEL_RENTRY
      945     8456             PURPOSE:
      946     8457                   To delete a RESOLVED address entry from the address list.
      947     8458             DESCRIPTION:
      948     8459                   This routine will search the address list described
      949     8460                   by VM_ADD_HEAD to find an entry where the ACCT,
      950     8461                   FOLDER and SITENAME match the passed parameters.
      951     8462                   All other parameters will be ignored.
      952     8463
      953     8464                   NOTE: An ALTRETURN means that the entry was not found.
      954     8465        */
      955     8466    1   VMA$DEL_RENTRY: ENTRY (ACCT,FOLDER,PASSWORD,SITENAME,ERR#,NAME_KEY) ALTRET;
      956     8467        /*
      957     8468             ***** No entries?
      958     8469        */
      959     8470    1       IF VM_ADD_HEAD.NUM_ENTRIES = 0
      960     8471    1       THEN
      961     8472    1           ALTRETURN;
      962     8473    1       IF SITENAME = ' '
      963     8474    1       THEN                    /* supply local sitename */
      964     8475    1           SITE = VM_SITENAME;
      965     8476    1       ELSE
      966     8477    1           SITE = SITENAME;
      967     8478        /*
      968     8479             ***** Initialize ...
      969     8480        */
      970     8481    1       X$MCB.TYPE = 0;
      971     8482    1       X$MCB.MIN_SIZE = SIZEC(VM$RADDRESS);
      972     8483    1       X$MCB.SEGMENT_BASE$ = VBASE(VM_ADDLIST_);
      973     8484    1       X$MCB.HI_SEGMENT$ = VM_ADD_HEAD.NEXT$;
      974     8485    1       X$MCB.FREE_HEAD$ = VM_ADD_HEAD.FREE$;
      975     8486    1       X$MCB.WKSZ = (VBOUND(VM_ADDLIST_)+1)/4;
      976     8487        /*
      977     8488             ***** Search ...
      978     8489        */
      979     8490    1       LINK2$ = ADDR(NIL);
PL6.E3A0      #003=VMA$ADD_RENTRY File=VMA$SUBR.:VMB6TSI                         WED 08/20/97 15:02 Page:120
      980     8491    1       LINK1$ = VM_ADD_HEAD.HEAD$;
      981     8492    2       DO WHILE (LINK1$ ~= ADDR(NIL));
      982     8493    2           IF LINK1$ -> VM$RADDRESS.FOLDER ~= FOLDER
      983     8494    2           THEN                     /* No match */
      984     8495    2               GOTO END_DEL_SRCH;
      985     8496    2           IF LINK1$ -> VM$RADDRESS.ACCT ~= ACCT.ACCT#
      986     8497    2           THEN
      987     8498    2               GOTO END_DEL_SRCH;
      988     8499    2           IF LINK1$ -> VM$RADDRESS.SITENAME ~= ' '
      989     8500    3           THEN DO;
      990     8501    3               IF SITE ~= LINK1$ -> VM$RADDRESS.SITENAME
      991     8502    3               THEN
      992     8503    3                   GOTO END_DEL_SRCH;
      993     8504    3           END;
      994     8505    3           ELSE DO;
      995     8506    3               IF SITE ~= VM_SITENAME
      996     8507    3               THEN
      997     8508    3                   GOTO END_DEL_SRCH;
      998     8509    3           END;
      999     8510    2           IF LINK2$ ~= ADDR(NIL)
     1000     8511    2           THEN
     1001     8512    2               LINK2$ -> VM$RADDRESS.NEXT$ =
     1002     8513    2                 LINK1$ -> VM$RADDRESS.NEXT$;
     1003     8514    2           ELSE
     1004     8515    2               VM_ADD_HEAD.HEAD$ = LINK1$ -> VM$RADDRESS.NEXT$;
     1005     8516    2           IF LINK1$ -> VM$RADDRESS.NEXT$ ~= ADDR(NIL)
     1006     8517    2           THEN
     1007     8518    2               LINK1$ -> VM$RADDRESS.NEXT$ ->
     1008     8519    2                 VM$RADDRESS.PREV$ = LINK2$;
     1009     8520    2           X$MCB.ADDRESS$ = LINK1$;
     1010     8521    2           CALL X$DEALLOCATE (X$MCB);
     1011     8522    2           VM_ADD_HEAD.NUM_ENTRIES = VM_ADD_HEAD.NUM_ENTRIES - 1;
     1012     8523    2           VM_ADD_HEAD.NEXT$ = X$MCB.HI_SEGMENT$;
     1013     8524    2           VM_ADD_HEAD.FREE$ = X$MCB.FREE_HEAD$;
     1014     8525    2           RETURN;
     1015     8526    2   END_DEL_SRCH: ;
     1016     8527    2           LINK2$ = LINK1$;
PL6.E3A0      #003=VMA$ADD_RENTRY File=VMA$SUBR.:VMB6TSI                         WED 08/20/97 15:02 Page:121
     1017     8528    2           LINK1$ = LINK1$ -> VM$RADDRESS.NEXT$;
     1018     8529    2       END;                            /* Do while ... end */
     1019     8530        /*
     1020     8531             ***** If we fell out,
     1021     8532                   then the entry must not be defined ...
     1022     8533        */
     1023     8534    1       ALTRETURN;
     1024     8535    1   END VMA$ADD_RENTRY;
     1025     8536        %EOD;

PL6.E3A0      #003=VMA$ADD_RENTRY File=VMA$SUBR.:VMB6TSI                         WED 08/20/97 15:02 Page:122
--  Include file information  --

   XUM_MACRO_C.:LIB_E05  is referenced.
   B_MACROS_C.:LIB_E05  is referenced.
   VM_DATA_R.:VMB6TOU  cannot be made into a system file and is referenced.
   VM_SUBS_C.:VMB6TOU  is referenced.
   VM_MACRO_C.:VMB6TOU  is referenced.
   CP_6_SUBS.:LIB_E05  is referenced.
   CP_6_C.:LIB_E05  is referenced.
   CP_6.:LIB_E05  cannot be made into a system file and is referenced.
      No diagnostics issued in procedure VMA$ADD_RENTRY.

   Procedure VMA$ADD_RENTRY requires 452 words for executable code.
   Procedure VMA$ADD_RENTRY requires 14 words of local(AUTO) storage.

PL6.E3A0      #003=VMA$ADD_RENTRY File=VMA$SUBR.:VMB6TSI                         WED 08/20/97 15:02 Page:123

 Object Unit name= VMA$ADD_RENTRY                             File name= VMA$SUBR.:VMB6TOU
 UTS= AUG 20 '97 15:02:45.52 WED                              Compiler= PL-6/E31         Sev=      00
 SharedLib= :SHARED_SYSTEM                                    Alt SharedLib=


    ****  Control sections  ****

 Sect   Type Bound  Init  Size OctSiz  Section name(segment info)
    0   DCB   even  none     0      0  M$UC
    1   DCB   even  none     0      0  M$MAIL_FILE
    2   DCB   even  none     0      0  M$MAIL_CENTRAL
    3   DCB   even  none     0      0  M$MAIL_GLOBAL
    4   DCB   even  none     0      0  M$WORK
    5   DCB   even  none     0      0  M$MAIL_COMGROUP
    6   DCB   even  none     0      0  M$DO
    7   DCB   even  none     0      0  M$LO
    8   DCB   even  none     0      0  M$ME
    9   DCB   even  none     0      0  M$NODE
   10   DCB   even  none     0      0  M$SI
   11   Data  even  none    12     14  VMA$ADD_RENTRY
   12   Proc  even  none   452    704  VMA$ADD_RENTRY
   13  RoData even  none     5      5  VMA$ADD_RENTRY

    ****  Entry defs  ****

                              Check   Calling
                             calling  sequence
  Sect OctLoc Primary Altret sequence   type   Parms  Name
    12      0   yes    yes     yes      Std        6  VMA$ADD_RENTRY
    12    175          yes     yes      Std        6  VMA$ADD_RENTRY_SORTED
    12    541          yes     yes      Std        6  VMA$DEL_RENTRY
PL6.E3A0      #003=VMA$ADD_RENTRY File=VMA$SUBR.:VMB6TSI                         WED 08/20/97 15:02 Page:124

  ****  Entry refs  ****

         Check        Calling
        calling       sequence
Altret sequence SRef   type   Args  Name
 yes     yes           Std       1 X$ALLOCATE
 yes     yes           Std       1 X$DEALLOCATE
 yes     yes           Std       2 VMA$ENLARGE_SEGMENT
                       nStd      0 X66_AUTO_N
                       nStd      0 X66_ARET
                       nStd      0 X66_AALT

  ****  Data refs  ****

  Flags:  r = read only, s = secondary
Flgs Name                             Flgs Name                             Flgs Name
     M$UC                             r    VM_HEADER$                       r    VM_PROFILE$
r    VM_ADDLIST$                      r    VM_ADDREC$                       r    VM_WORK$
r    VM_SELECT$                       r    VM_PARSEAREA$                    r    VM_INPUT$
r    VM_COPY$                              VM_ENCLLIST$                          VM_ENCLREC$
     VM_HEADER_                            VM_HEADER_INIT_                       VM_PROFILE_
     VM_ADDLIST_                           VM_ADDREC_                            VM_WORK_
     VM_SELECT_                            VM_PARSEAREA_                         VM_INPUT_
     VM_COPY_                              VM_ENCLLIST_                          VM_ENCLREC_
     M$MAIL_FILE                           M$MAIL_CENTRAL                        M$MAIL_GLOBAL
     M$WORK                                M$MAIL_COMGROUP                       M$DO
     M$LO                                  M$ME                                  M$NODE
     M$SI                                  M$MAIL_FILE_NUM                       M$MAIL_CENTRAL_NUM
     M$MAIL_GLOBAL_NUM                     M$WORK_NUM                            M$MAIL_COMGROUP_NUM
     M$DO_NUM                              M$ME_NUM                              M$LO_NUM
     M$SI_NUM                              M$NODE_NUM                       r    B$JIT$
r    B$TCB$                                VM_MAIL_ACCT                          VM_NAME_MAP_NAME
     ERRMSG_FID                            VM_SEND_FILE_NAME                     VM_FORWARD_FILE_NAME
     VM_FORWARD_ENCL_NAME                  VM_FORWARD_FILE_PASS                  VM_MAILCG_NAME
     VM_SITENAME                           VM_MAILCG_SETSTA
PL6.E3A0      #003=VMA$ADD_RENTRY File=VMA$SUBR.:VMB6TSI                         WED 08/20/97 15:02 Page:125

  ****  Segment refs  ****

  Flags:  r = read only, s = secondary
Flgs Name                             Flgs Name                             Flgs Name
     NULLSID                               ISSID
PL6.E3A0      #003=VMA$ADD_RENTRY File=VMA$SUBR.:VMB6TSI                         WED 08/20/97 15:02 Page:126


      661        1        /*T***********************************************************/
      662        2        /*T*                                                         */
      663        3        /*T* Copyright (c) Bull HN Information Systems Inc., 1997    */
      664        4        /*T*                                                         */
      665        5        /*T***********************************************************/
      666        6        /*X* DMC,PLM=4,IND=4,CTI=2,DTI=0,ENI=0,ECI=0,CSI=0,DCI=4 */
      667        7        /*X* DMC,PLM=4,IND=4,CTI=2,DTI=0,ENI=0,ECI=0,CSI=0,DCI=4 */
      668        8        /*F*
      669        9             NAME: VMA$ADD_RENTRY
      670       10             PURPOSE:
      671       11                   To add a RESOLVED address entry to the VM_ADD_HEAD structure.
      672       12             DESCRIPTION:
      673       13                   This routine has four parameters:
      674       14
      675       15                      ACCT       - account number of this address.
      676       16                      FOLDER     - folder name of this address.
      677       17                      PASSWORD   - password for this address.
      678       18                      SITENAME   - sitename where this address resides.
      679       19
      680       20                   This routine will take these items, at least one is required,
      681       21                   and create a new entry in the address structure described
      682       22                   by VM_ADD_HEAD and VM_RADDRESS.
      683       23
      684       24                   This routine will not resue blocks on the FREED BLOCKS CHAIN.
      685       25                   This routine was built to run at the maximum speed possible
      686       26                   and therefore should only be used when space is not at
      687       27                   a premium and a specific order is not necessary.
      688       28                   VM_ADD_HEAD must be the last object in the data segment.
      689       29                   Everything after it will be stomped on.
      690       30        */
      691       31        VMA$ADD_RENTRY: PROC (ACCT,FOLDER,PASSWORD,SITENAME,ERR#,NAME_KEY) ALTRET;

     31 12 000000   000000 700200 xent  VMA$ADD_REN* TSX0  ! X66_AUTO_N
        12 000001   000016 000006                    ZERO    14,6

      692       32        /***** Include files *****/
PL6.E3A0      #003=VMA$ADD_RENTRY File=VMA$SUBR.:VMB6TSI                         WED 08/20/97 15:02 Page:127
      693       33          %INCLUDE CP_6;
      694     5592          %INCLUDE CP_6_SUBS;
      695     6132          %INCLUDE VM_MACRO_C;
      696     7400          %INCLUDE VM_SUBS_C;
      697     7660          %INCLUDE VM_DATA_R;
      698     8091          %INCLUDE XUM_MACRO_C;
      699     8118        /***** Parameters *****/
      700     8119          %VLP_ACCT (FPTN=ACCT,STCLASS=" ");
      701     8132    1   DCL FOLDER CHAR(%SIZ_FOLDER);
      702     8133          %VLP_PASS (FPTN=PASSWORD,STCLASS=" ");
      703     8146    1   DCL SITENAME CHAR(%SIZ_SITENAME);
      704     8147    1   DCL ERR# BIT(1);
      705     8148    1   DCL NAME_KEY CHAR(20);
      706     8149        /***** Mail structures *****/
      707     8150          %VM_ADDTYPES;
      708     8154          %VM_ADD_HEAD;
      709     8183          %VM_RADDRESS (NAME=VM$RADDRESS,STCLASS=BASED);
      710     8218          %XUM$MCB (NAME=X$MCB,STCLASS=STATIC);
      711     8222        /***** Local variables *****/
      712     8223    1   DCL SITE CHAR(%SIZ_SITENAME);
      713     8224    1   DCL PTR$ PTR STATIC;
      714     8225    1   DCL LINK1$ PTR STATIC;
      715     8226    1   DCL LINK2$ PTR STATIC;
      716     8227        /***** External routines *****/
      717     8228    1   DCL VMA$ENLARGE_SEGMENT ENTRY(2) ALTRET;
      718     8229    1   DCL X$ALLOCATE ENTRY(1) ALTRET;
      719     8230    1   DCL X$DEALLOCATE ENTRY(1) ALTRET;
      720     8231        %EJECT;
PL6.E3A0      #003=VMA$ADD_RENTRY File=VMA$SUBR.:VMB6TSI                         WED 08/20/97 15:02 Page:128
      721     8232        /*
      722     8233             ***** Is this the first entry???
      723     8234        */
      724     8235    1       IF VM_ADD_HEAD.NUM_ENTRIES = 0

   8235 12 000002   000000 470400 xsym               LDP0    VM_ADDLIST$
        12 000003   000001 235100                    LDA     1,,PR0
        12 000004   000013 601000 12                 TNZ     s:8245

      725     8236    1       THEN
      726     8237    2       DO;

      727     8238    2           VM_ADD_HEAD.HEAD$ = ADDR(NIL);

   8238 12 000005   000000 236000 13                 LDQ     0
        12 000006   000003 756100                    STQ     3,,PR0

      728     8239    2           VM_ADD_HEAD.FREE$ = ADDR(NIL);

   8239 12 000007   000004 756100                    STQ     4,,PR0

      729     8240    2           VM_ADD_HEAD.NEXT$ = ADDR(VM_ADD_HEAD.WORK_AREA);

   8240 12 000010   000000 236000 xsym               LDQ     VM_ADDLIST$
        12 000011   000006 036003                    ADLQ    6,DU
        12 000012   000005 756100                    STQ     5,,PR0

      730     8241    2       END;

      731     8242        /*
      732     8243             ***** Allocate space for this entry ...
      733     8244        */
      734     8245    1       X$MCB.TYPE = 0;

   8245 12 000013   000005 450000 11                 STZ     X$MCB+5

      735     8246    1       X$MCB.MIN_SIZE = SIZEC(VM$RADDRESS);
PL6.E3A0      #003=VMA$ADD_RENTRY File=VMA$SUBR.:VMB6TSI                         WED 08/20/97 15:02 Page:129

   8246 12 000014   000120 235007                    LDA     80,DL
        12 000015   000007 755000 11                 STA     X$MCB+7

      736     8247    1       X$MCB.SEGMENT_BASE$ = VBASE(VM_ADDLIST_);

   8247 12 000016   000001 236000 xsym               LDQ     VM_ADDLIST_+1
        12 000017   000002 756000 11                 STQ     X$MCB+2

      737     8248    1       X$MCB.HI_SEGMENT$ = VM_ADD_HEAD.NEXT$;

   8248 12 000020   000005 236100                    LDQ     5,,PR0
        12 000021   000003 756000 11                 STQ     X$MCB+3

      738     8249    1       X$MCB.FREE_HEAD$ = VM_ADD_HEAD.FREE$;

   8249 12 000022   000004 236100                    LDQ     4,,PR0
        12 000023   000001 756000 11                 STQ     X$MCB+1

      739     8250    1       X$MCB.WKSZ = (VBOUND(VM_ADDLIST_)+1)/4;

   8250 12 000024   000000 236000 xsym               LDQ     VM_ADDLIST_
        12 000025   000020 772000                    QRL     16
        12 000026   000001 036007                    ADLQ    1,DL
        12 000027   000002 772000                    QRL     2
        12 000030   000004 756000 11                 STQ     X$MCB+4

      740     8251    1       X$MCB.SIZE = SIZEC(VM$RADDRESS);

   8251 12 000031   000006 755000 11                 STA     X$MCB+6

      741     8252    1       CALL X$ALLOCATE (X$MCB)

   8252 12 000032   000002 630400 13                 EPPR0   2
        12 000033   000001 631400 13                 EPPR1   1
        12 000034   000000 701000 xent               TSX1    X$ALLOCATE
        12 000035   000037 702000 12                 TSX2    s:8255
PL6.E3A0      #003=VMA$ADD_RENTRY File=VMA$SUBR.:VMB6TSI                         WED 08/20/97 15:02 Page:130
        12 000036   000052 710000 12                 TRA     s:8259

      742     8253    1       WHENALTRETURN
      743     8254    2       DO;

      744     8255    2           CALL VMA$ENLARGE_SEGMENT (VM_ADDLIST_) ALTRET(E_ADD);

   8255 12 000037   000003 630400 13                 EPPR0   3
        12 000040   000001 631400 13                 EPPR1   1
        12 000041   000000 701000 xent               TSX1    VMA$ENLARGE_SEGMENT
        12 000042   000174 702000 12                 TSX2    E_ADD

      745     8256    2           X$MCB.WKSZ = X$MCB.WKSZ + 1024;

   8256 12 000043   000004 235000 11                 LDA     X$MCB+4
        12 000044   002000 035007                    ADLA    1024,DL
        12 000045   000004 755000 11                 STA     X$MCB+4

      746     8257    2           CALL X$ALLOCATE (X$MCB) ALTRET(E_ADD);

   8257 12 000046   000002 630400 13                 EPPR0   2
        12 000047   000001 631400 13                 EPPR1   1
        12 000050   000000 701000 xent               TSX1    X$ALLOCATE
        12 000051   000174 702000 12                 TSX2    E_ADD

      747     8258    2       END;

      748     8259    1       PTR$ = X$MCB.ADDRESS$;

   8259 12 000052   000000 236000 11                 LDQ     X$MCB
        12 000053   000011 756000 11                 STQ     PTR$

      749     8260    1       VM_ADD_HEAD.NEXT$ = X$MCB.HI_SEGMENT$;

   8260 12 000054   000003 236000 11                 LDQ     X$MCB+3
        12 000055   000000 470400 xsym               LDP0    VM_ADDLIST$
        12 000056   000005 756100                    STQ     5,,PR0
PL6.E3A0      #003=VMA$ADD_RENTRY File=VMA$SUBR.:VMB6TSI                         WED 08/20/97 15:02 Page:131

      750     8261    1       VM_ADD_HEAD.FREE$ = X$MCB.FREE_HEAD$;

   8261 12 000057   000001 236000 11                 LDQ     X$MCB+1
        12 000060   000004 756100                    STQ     4,,PR0

      751     8262        /*
      752     8263             ***** Add new entry.
      753     8264                   Go for speed. Do not sort...
      754     8265        */
      755     8266    1       IF SITENAME = ' '

   8266 12 000061   200006 471500                    LDP1    @SITENAME,,AUTO
        12 000062   040000 106500                    CMPC    fill='040'O
        12 000063   100000 000010                    ADSC9   0,,PR1                   cn=0,n=8
        12 000064   000004 000001 13                 ADSC9   4                        cn=0,n=1
        12 000065   000072 601000 12                 TNZ     s:8270

      756     8267    1       THEN                            /* Supply local sitename */
      757     8268    1           SITE = VM_SITENAME;

   8268 12 000066   040100 100400                    MLR     fill='040'O
        12 000067   000000 000010 xsym               ADSC9   VM_SITENAME              cn=0,n=8
        12 000070   200011 000010                    ADSC9   SITE,,AUTO               cn=0,n=8
        12 000071   000075 710000 12                 TRA     s:8271

      758     8269    1       ELSE
      759     8270    1           SITE = SITENAME;

   8270 12 000072   040100 100500                    MLR     fill='040'O
        12 000073   100000 000010                    ADSC9   0,,PR1                   cn=0,n=8
        12 000074   200011 000010                    ADSC9   SITE,,AUTO               cn=0,n=8

      760     8271    1       PTR$ -> VM$RADDRESS.NEXT$ = VM_ADD_HEAD.HEAD$;

   8271 12 000075   000003 236100                    LDQ     3,,PR0
        12 000076   000011 473400 11                 LDP3    PTR$
PL6.E3A0      #003=VMA$ADD_RENTRY File=VMA$SUBR.:VMB6TSI                         WED 08/20/97 15:02 Page:132
        12 000077   300000 756100                    STQ     0,,PR3

      761     8272    1       PTR$ -> VM$RADDRESS.PREV$ = ADDR(NIL);

   8272 12 000100   000000 236000 13                 LDQ     0
        12 000101   300001 756100                    STQ     1,,PR3

      762     8273    1       PTR$ -> VM$RADDRESS.TYPE = %VM_ADD_RESOLVED;

   8273 12 000102   000001 236003                    LDQ     1,DU
        12 000103   300002 552120                    STBQ    2,'20'O,PR3

      763     8274    1       PTR$ -> VM$RADDRESS.ACCT = ACCT.ACCT#;

   8274 12 000104   200003 474500                    LDP4    @ACCT,,AUTO
        12 000105   040100 100500                    MLR     fill='040'O
        12 000106   400000 000010                    ADSC9   0,,PR4                   cn=0,n=8
        12 000107   300021 600010                    ADSC9   17,,PR3                  cn=3,n=8

      764     8275    1       PTR$ -> VM$RADDRESS.FOLDER = FOLDER;

   8275 12 000110   200004 475500                    LDP5    @FOLDER,,AUTO
        12 000111   040100 100500                    MLR     fill='040'O
        12 000112   500000 000031                    ADSC9   0,,PR5                   cn=0,n=25
        12 000113   300007 400031                    ADSC9   7,,PR3                   cn=2,n=25

      765     8276    1       PTR$ -> VM$RADDRESS.PASS = PASSWORD.PASS#;

   8276 12 000114   200005 476500                    LDP6    @PASSWORD,,AUTO
        12 000115   040100 100500                    MLR     fill='040'O
        12 000116   600000 000010                    ADSC9   0,,PR6                   cn=0,n=8
        12 000117   300015 600010                    ADSC9   13,,PR3                  cn=3,n=8

      766     8277    1       PTR$ -> VM$RADDRESS.SITENAME = SITE;

   8277 12 000120   040100 100500                    MLR     fill='040'O
        12 000121   200011 000010                    ADSC9   SITE,,AUTO               cn=0,n=8
PL6.E3A0      #003=VMA$ADD_RENTRY File=VMA$SUBR.:VMB6TSI                         WED 08/20/97 15:02 Page:133
        12 000122   300017 600010                    ADSC9   15,,PR3                  cn=3,n=8

      767     8278    1       PTR$ -> VM$RADDRESS.FLAGS = %NO#;

   8278 12 000123   000000 236003                    LDQ     0,DU
        12 000124   300002 552140                    STBQ    2,'40'O,PR3

      768     8279    1       IF ADDR(NAME_KEY) ~= ADDR(NIL)

   8279 12 000125   200010 236100                    LDQ     @NAME_KEY,,AUTO
        12 000126   000000 116000 13                 CMPQ    0
        12 000127   000135 600000 12                 TZE     s:8283

      769     8280    1       THEN                            /* Use supplied value */
      770     8281    1           PTR$ -> VM$RADDRESS.NAME_KEY = NAME_KEY;

   8281 12 000130   200010 477500                    LDP7    @NAME_KEY,,AUTO
        12 000131   040100 100500                    MLR     fill='040'O
        12 000132   700000 000024                    ADSC9   0,,PR7                   cn=0,n=20
        12 000133   300002 400024                    ADSC9   2,,PR3                   cn=2,n=20
        12 000134   000140 710000 12                 TRA     s:8284

      771     8282    1       ELSE                            /* Use blanks */
      772     8283    1           PTR$ -> VM$RADDRESS.NAME_KEY = ' ';

   8283 12 000135   040100 100400                    MLR     fill='040'O
        12 000136   000004 000001 13                 ADSC9   4                        cn=0,n=1
        12 000137   300002 400024                    ADSC9   2,,PR3                   cn=2,n=20

      773     8284    1       IF ADDR(ERR#) ~= ADDR(NIL)

   8284 12 000140   200007 236100                    LDQ     @ERR#,,AUTO
        12 000141   000000 116000 13                 CMPQ    0
        12 000142   000147 600000 12                 TZE     s:8287

      774     8285    1       THEN
      775     8286    1           PTR$ -> VM$RADDRESS.FLAGS.UNDEF# = ERR#;
PL6.E3A0      #003=VMA$ADD_RENTRY File=VMA$SUBR.:VMB6TSI                         WED 08/20/97 15:02 Page:134

   8286 12 000143   200007 477500                    LDP7    @ERR#,,AUTO
        12 000144   003100 060500                    CSL     bolr='003'O
        12 000145   700000 000001                    BDSC    0,,PR7                   by=0,bit=0,n=1
        12 000146   300002 000001                    BDSC    2,,PR3                   by=0,bit=0,n=1

      776     8287    1       VM_ADD_HEAD.HEAD$ = PTR$;

   8287 12 000147   000011 236000 11                 LDQ     PTR$
        12 000150   000003 756100                    STQ     3,,PR0

      777     8288        /*
      778     8289             ***** Update NEXT$, NUM_ENTRIES and ADDRESS_SIZE ...
      779     8290        */
      780     8291    1       VM_ADD_HEAD.NEXT$ = X$MCB.HI_SEGMENT$;

   8291 12 000151   000003 236000 11                 LDQ     X$MCB+3
        12 000152   000005 756100                    STQ     5,,PR0

      781     8292    1       VM_ADD_HEAD.FREE$ = X$MCB.FREE_HEAD$;

   8292 12 000153   000001 236000 11                 LDQ     X$MCB+1
        12 000154   000004 756100                    STQ     4,,PR0

      782     8293    1       VM_ADD_HEAD.NUM_ENTRIES = VM_ADD_HEAD.NUM_ENTRIES + 1;

   8293 12 000155   000001 235100                    LDA     1,,PR0
        12 000156   000001 035007                    ADLA    1,DL
        12 000157   000001 755100                    STA     1,,PR0

      783     8294    1       VM_ADD_HEAD.ADDRESS_SIZE = POFFW(VM_ADD_HEAD.NEXT$,VM_ADDLIST$);

   8294 12 000160   000000 235000 xsym               LDA     VM_ADDLIST$
        12 000161   000022 771000                    ARL     18
        12 000162   200014 755100                    STA     SITE+3,,AUTO
        12 000163   000005 236100                    LDQ     5,,PR0
        12 000164   000022 772000                    QRL     18
PL6.E3A0      #003=VMA$ADD_RENTRY File=VMA$SUBR.:VMB6TSI                         WED 08/20/97 15:02 Page:135
        12 000165   200014 136100                    SBLQ    SITE+3,,AUTO
        12 000166   000000 756100                    STQ     0,,PR0

      784     8295    1       IF PTR$ -> VM$RADDRESS.FLAGS.UNDEF#

   8295 12 000167   300002 234100                    SZN     2,,PR3
        12 000170   000173 605000 12                 TPL     s:8298

      785     8296    1       THEN
      786     8297    1           VM_ADD_HEAD.FLAGS.ERR# = %YES#;

   8297 12 000171   400000 236003                    LDQ     -131072,DU
        12 000172   000002 256100                    ORSQ    2,,PR0

      787     8298    1       RETURN;

   8298 12 000173   000000 702200 xent               TSX2  ! X66_ARET

      788     8299        /**/
      789     8300    1   E_ADD:
      790     8301    1       ALTRETURN;

   8301 12 000174   000000 702200 xent  E_ADD        TSX2  ! X66_AALT

      791     8302        %EJECT;
PL6.E3A0      #003=VMA$ADD_RENTRY File=VMA$SUBR.:VMB6TSI                         WED 08/20/97 15:02 Page:136
      792     8303        /*F*
      793     8304             NAME: VMA$ADD_RENTRY_SORTED
      794     8305             PURPOSE:
      795     8306                   To add a RESOLVED addres entry in sorted order.
      796     8307             DESCRIPTION:
      797     8308                   This routine will do the same thing as VMA$ADD_RENTRY,
      798     8309                   except the entries will be in sorted order based on
      799     8310                   ACCT. These entries will be sorted after any UNRESOLVED
      800     8311                   entries.
      801     8312
      802     8313                   This routine will reuse blocks on the FREED BLOCKS CHAIN
      803     8314                   pointed to by VM_ADD_HEAD.FREE$ whenever possible.
      804     8315        */
      805     8316    1   VMA$ADD_RENTRY_SORTED: ENTRY (ACCT,FOLDER,PASSWORD,SITENAME,ERR#,NAME_KEY) ALTRET;

   8316 12 000175   000000 700200 xent  VMA$ADD_REN* TSX0  ! X66_AUTO_N
        12 000176   000016 000006                    ZERO    14,6

      806     8317        %EJECT;
PL6.E3A0      #003=VMA$ADD_RENTRY File=VMA$SUBR.:VMB6TSI                         WED 08/20/97 15:02 Page:137
      807     8318        /*
      808     8319             ***** Is this the first entry???
      809     8320        */
      810     8321    1       IF VM_ADD_HEAD.NUM_ENTRIES = 0

   8321 12 000177   000000 470400 xsym               LDP0    VM_ADDLIST$
        12 000200   000001 235100                    LDA     1,,PR0
        12 000201   000210 601000 12                 TNZ     s:8331

      811     8322    1       THEN
      812     8323    2       DO;

      813     8324    2           VM_ADD_HEAD.HEAD$ = ADDR(NIL);

   8324 12 000202   000000 236000 13                 LDQ     0
        12 000203   000003 756100                    STQ     3,,PR0

      814     8325    2           VM_ADD_HEAD.FREE$ = ADDR(NIL);

   8325 12 000204   000004 756100                    STQ     4,,PR0

      815     8326    2           VM_ADD_HEAD.NEXT$ = ADDR(VM_ADD_HEAD.WORK_AREA);

   8326 12 000205   000000 236000 xsym               LDQ     VM_ADDLIST$
        12 000206   000006 036003                    ADLQ    6,DU
        12 000207   000005 756100                    STQ     5,,PR0

      816     8327    2       END;

      817     8328        /*
      818     8329             ***** Check for duplicate entry
      819     8330        */
      820     8331    1       LINK1$ = VM_ADD_HEAD.HEAD$;

   8331 12 000210   000003 236100                    LDQ     3,,PR0
        12 000211   000012 756000 11                 STQ     LINK1$

PL6.E3A0      #003=VMA$ADD_RENTRY File=VMA$SUBR.:VMB6TSI                         WED 08/20/97 15:02 Page:138
      821     8332    2       DO WHILE LINK1$ ~= ADDR(NIL);

   8332 12 000212   000264 710000 12                 TRA     s:8351

      822     8333    2           IF LINK1$ -> VM$RADDRESS.TYPE = %VM_ADD_RESOLVED

   8333 12 000213   000012 470400 11                 LDP0    LINK1$
        12 000214   000002 236100                    LDQ     2,,PR0
        12 000215   000777 376003                    ANQ     511,DU
        12 000216   000001 116003                    CMPQ    1,DU
        12 000217   000262 601000 12                 TNZ     s:8350
        12 000220   200003 471500                    LDP1    @ACCT,,AUTO
        12 000221   040100 106500                    CMPC    fill='040'O
        12 000222   000021 600010                    ADSC9   17,,PR0                  cn=3,n=8
        12 000223   100000 000010                    ADSC9   0,,PR1                   cn=0,n=8
        12 000224   000262 601000 12                 TNZ     s:8350
        12 000225   200004 473500                    LDP3    @FOLDER,,AUTO
        12 000226   040100 106500                    CMPC    fill='040'O
        12 000227   000007 400031                    ADSC9   7,,PR0                   cn=2,n=25
        12 000230   300000 000031                    ADSC9   0,,PR3                   cn=0,n=25
        12 000231   000262 601000 12                 TNZ     s:8350
        12 000232   200006 474500                    LDP4    @SITENAME,,AUTO
        12 000233   040100 106500                    CMPC    fill='040'O
        12 000234   000017 600010                    ADSC9   15,,PR0                  cn=3,n=8
        12 000235   400000 000010                    ADSC9   0,,PR4                   cn=0,n=8
        12 000236   000262 601000 12                 TNZ     s:8350
        12 000237   200005 475500                    LDP5    @PASSWORD,,AUTO
        12 000240   040100 106500                    CMPC    fill='040'O
        12 000241   000015 600010                    ADSC9   13,,PR0                  cn=3,n=8
        12 000242   500000 000010                    ADSC9   0,,PR5                   cn=0,n=8
        12 000243   000262 601000 12                 TNZ     s:8350

      823     8334    2             AND LINK1$ -> VM$RADDRESS.ACCT = ACCT.ACCT#
      824     8335    2             AND LINK1$ -> VM$RADDRESS.FOLDER = FOLDER
      825     8336    2             AND LINK1$ -> VM$RADDRESS.SITENAME = SITENAME
      826     8337    2             AND LINK1$ -> VM$RADDRESS.PASS = PASSWORD.PASS#
      827     8338    2           THEN
PL6.E3A0      #003=VMA$ADD_RENTRY File=VMA$SUBR.:VMB6TSI                         WED 08/20/97 15:02 Page:139
      828     8339    2               IF ADDR(NAME_KEY) = ADDR(NIL)

   8339 12 000244   200010 236100                    LDQ     @NAME_KEY,,AUTO
        12 000245   000000 116000 13                 CMPQ    0
        12 000246   000254 601000 12                 TNZ     s:8346

      829     8340    3               THEN DO;

      830     8341    3                   IF LINK1$ -> VM$RADDRESS.NAME_KEY = ' '

   8341 12 000247   040000 106500                    CMPC    fill='040'O
        12 000250   000002 400024                    ADSC9   2,,PR0                   cn=2,n=20
        12 000251   000004 000001 13                 ADSC9   4                        cn=0,n=1
        12 000252   000262 601000 12                 TNZ     s:8350

      831     8342    3                   THEN
      832     8343    3                       RETURN;

   8343 12 000253   000000 702200 xent               TSX2  ! X66_ARET

      833     8344    3               END;
      834     8345    3               ELSE DO;

      835     8346    3                   IF LINK1$ -> VM$RADDRESS.NAME_KEY = NAME_KEY

   8346 12 000254   200010 476500                    LDP6    @NAME_KEY,,AUTO
        12 000255   040100 106500                    CMPC    fill='040'O
        12 000256   000002 400024                    ADSC9   2,,PR0                   cn=2,n=20
        12 000257   600000 000024                    ADSC9   0,,PR6                   cn=0,n=20
        12 000260   000262 601000 12                 TNZ     s:8350

      836     8347    3                   THEN
      837     8348    3                       RETURN;

   8348 12 000261   000000 702200 xent               TSX2  ! X66_ARET

      838     8349    3               END;
PL6.E3A0      #003=VMA$ADD_RENTRY File=VMA$SUBR.:VMB6TSI                         WED 08/20/97 15:02 Page:140
      839     8350    2           LINK1$ = LINK1$ -> VM$RADDRESS.NEXT$;

   8350 12 000262   000000 236100                    LDQ     0,,PR0
        12 000263   000012 756000 11                 STQ     LINK1$

      840     8351    2       END;

   8351 12 000264   000000 116000 13                 CMPQ    0
        12 000265   000213 601000 12                 TNZ     s:8333

      841     8352        /*
      842     8353             ***** Allocate space for this entry ...
      843     8354        */
      844     8355    1       X$MCB.TYPE = 0;

   8355 12 000266   000005 450000 11                 STZ     X$MCB+5

      845     8356    1       X$MCB.MIN_SIZE = SIZEC(VM$RADDRESS);

   8356 12 000267   000120 235007                    LDA     80,DL
        12 000270   000007 755000 11                 STA     X$MCB+7

      846     8357    1       X$MCB.SEGMENT_BASE$ = VBASE(VM_ADDLIST_);

   8357 12 000271   000001 236000 xsym               LDQ     VM_ADDLIST_+1
        12 000272   000002 756000 11                 STQ     X$MCB+2

      847     8358    1       X$MCB.HI_SEGMENT$ = VM_ADD_HEAD.NEXT$;

   8358 12 000273   000000 470400 xsym               LDP0    VM_ADDLIST$
        12 000274   000005 236100                    LDQ     5,,PR0
        12 000275   000003 756000 11                 STQ     X$MCB+3

      848     8359    1       X$MCB.FREE_HEAD$ = VM_ADD_HEAD.FREE$;

   8359 12 000276   000004 236100                    LDQ     4,,PR0
        12 000277   000001 756000 11                 STQ     X$MCB+1
PL6.E3A0      #003=VMA$ADD_RENTRY File=VMA$SUBR.:VMB6TSI                         WED 08/20/97 15:02 Page:141

      849     8360    1       X$MCB.WKSZ = (VBOUND(VM_ADDLIST_)+1)/4;

   8360 12 000300   000000 236000 xsym               LDQ     VM_ADDLIST_
        12 000301   000020 772000                    QRL     16
        12 000302   000001 036007                    ADLQ    1,DL
        12 000303   000002 772000                    QRL     2
        12 000304   000004 756000 11                 STQ     X$MCB+4

      850     8361    1       X$MCB.SIZE = SIZEC(VM$RADDRESS);

   8361 12 000305   000006 755000 11                 STA     X$MCB+6

      851     8362    1       CALL X$ALLOCATE (X$MCB)

   8362 12 000306   000002 630400 13                 EPPR0   2
        12 000307   000001 631400 13                 EPPR1   1
        12 000310   000000 701000 xent               TSX1    X$ALLOCATE
        12 000311   000313 702000 12                 TSX2    s:8365
        12 000312   000326 710000 12                 TRA     s:8369

      852     8363    1       WHENALTRETURN
      853     8364    2       DO;

      854     8365    2           CALL VMA$ENLARGE_SEGMENT (VM_ADDLIST_) ALTRET(E_ADD);

   8365 12 000313   000003 630400 13                 EPPR0   3
        12 000314   000001 631400 13                 EPPR1   1
        12 000315   000000 701000 xent               TSX1    VMA$ENLARGE_SEGMENT
        12 000316   000174 702000 12                 TSX2    E_ADD

      855     8366    2           X$MCB.WKSZ = X$MCB.WKSZ + 1024;

   8366 12 000317   000004 235000 11                 LDA     X$MCB+4
        12 000320   002000 035007                    ADLA    1024,DL
        12 000321   000004 755000 11                 STA     X$MCB+4

PL6.E3A0      #003=VMA$ADD_RENTRY File=VMA$SUBR.:VMB6TSI                         WED 08/20/97 15:02 Page:142
      856     8367    2           CALL X$ALLOCATE (X$MCB) ALTRET(E_ADD);

   8367 12 000322   000002 630400 13                 EPPR0   2
        12 000323   000001 631400 13                 EPPR1   1
        12 000324   000000 701000 xent               TSX1    X$ALLOCATE
        12 000325   000174 702000 12                 TSX2    E_ADD

      857     8368    2       END;

      858     8369    1       PTR$ = X$MCB.ADDRESS$;

   8369 12 000326   000000 236000 11                 LDQ     X$MCB
        12 000327   000011 756000 11                 STQ     PTR$

      859     8370    1       VM_ADD_HEAD.NEXT$ = X$MCB.HI_SEGMENT$;

   8370 12 000330   000003 236000 11                 LDQ     X$MCB+3
        12 000331   000000 470400 xsym               LDP0    VM_ADDLIST$
        12 000332   000005 756100                    STQ     5,,PR0

      860     8371    1       VM_ADD_HEAD.FREE$ = X$MCB.FREE_HEAD$;

   8371 12 000333   000001 236000 11                 LDQ     X$MCB+1
        12 000334   000004 756100                    STQ     4,,PR0

      861     8372        /*
      862     8373             ***** Store info ...
      863     8374        */
      864     8375    1       PTR$ -> VM$RADDRESS.NEXT$ = ADDR(NIL);

   8375 12 000335   000000 236000 13                 LDQ     0
        12 000336   000011 471400 11                 LDP1    PTR$
        12 000337   100000 756100                    STQ     0,,PR1

      865     8376    1       PTR$ -> VM$RADDRESS.PREV$ = ADDR(NIL);

   8376 12 000340   000000 236000 13                 LDQ     0
PL6.E3A0      #003=VMA$ADD_RENTRY File=VMA$SUBR.:VMB6TSI                         WED 08/20/97 15:02 Page:143
        12 000341   100001 756100                    STQ     1,,PR1

      866     8377    1       PTR$ -> VM$RADDRESS.TYPE = %VM_ADD_RESOLVED;

   8377 12 000342   000001 236003                    LDQ     1,DU
        12 000343   100002 552120                    STBQ    2,'20'O,PR1

      867     8378    1       PTR$ -> VM$RADDRESS.ACCT = ACCT.ACCT#;

   8378 12 000344   200003 473500                    LDP3    @ACCT,,AUTO
        12 000345   040100 100500                    MLR     fill='040'O
        12 000346   300000 000010                    ADSC9   0,,PR3                   cn=0,n=8
        12 000347   100021 600010                    ADSC9   17,,PR1                  cn=3,n=8

      868     8379    1       PTR$ -> VM$RADDRESS.FOLDER = FOLDER;

   8379 12 000350   200004 474500                    LDP4    @FOLDER,,AUTO
        12 000351   040100 100500                    MLR     fill='040'O
        12 000352   400000 000031                    ADSC9   0,,PR4                   cn=0,n=25
        12 000353   100007 400031                    ADSC9   7,,PR1                   cn=2,n=25

      869     8380    1       PTR$ -> VM$RADDRESS.PASS = PASSWORD.PASS#;

   8380 12 000354   200005 475500                    LDP5    @PASSWORD,,AUTO
        12 000355   040100 100500                    MLR     fill='040'O
        12 000356   500000 000010                    ADSC9   0,,PR5                   cn=0,n=8
        12 000357   100015 600010                    ADSC9   13,,PR1                  cn=3,n=8

      870     8381    1       PTR$ -> VM$RADDRESS.SITENAME = SITENAME;

   8381 12 000360   200006 476500                    LDP6    @SITENAME,,AUTO
        12 000361   040100 100500                    MLR     fill='040'O
        12 000362   600000 000010                    ADSC9   0,,PR6                   cn=0,n=8
        12 000363   100017 600010                    ADSC9   15,,PR1                  cn=3,n=8

      871     8382    1       PTR$ -> VM$RADDRESS.FLAGS = %NO#;

PL6.E3A0      #003=VMA$ADD_RENTRY File=VMA$SUBR.:VMB6TSI                         WED 08/20/97 15:02 Page:144
   8382 12 000364   000000 236003                    LDQ     0,DU
        12 000365   100002 552140                    STBQ    2,'40'O,PR1

      872     8383    1       IF ADDR(NAME_KEY) ~= ADDR(NIL)

   8383 12 000366   200010 236100                    LDQ     @NAME_KEY,,AUTO
        12 000367   000000 116000 13                 CMPQ    0
        12 000370   000376 600000 12                 TZE     s:8387

      873     8384    1       THEN                            /* Use supplied value */
      874     8385    1           PTR$ -> VM$RADDRESS.NAME_KEY = NAME_KEY;

   8385 12 000371   200010 477500                    LDP7    @NAME_KEY,,AUTO
        12 000372   040100 100500                    MLR     fill='040'O
        12 000373   700000 000024                    ADSC9   0,,PR7                   cn=0,n=20
        12 000374   100002 400024                    ADSC9   2,,PR1                   cn=2,n=20
        12 000375   000401 710000 12                 TRA     s:8388

      875     8386    1       ELSE                            /* Use blanks */
      876     8387    1           PTR$ -> VM$RADDRESS.NAME_KEY = ' ';

   8387 12 000376   040100 100400                    MLR     fill='040'O
        12 000377   000004 000001 13                 ADSC9   4                        cn=0,n=1
        12 000400   100002 400024                    ADSC9   2,,PR1                   cn=2,n=20

      877     8388    1       IF ADDR(ERR#) ~= ADDR(NIL)

   8388 12 000401   200007 236100                    LDQ     @ERR#,,AUTO
        12 000402   000000 116000 13                 CMPQ    0
        12 000403   000410 600000 12                 TZE     s:8394

      878     8389    1       THEN
      879     8390    1           PTR$ -> VM$RADDRESS.FLAGS.UNDEF# = ERR#;

   8390 12 000404   200007 477500                    LDP7    @ERR#,,AUTO
        12 000405   003100 060500                    CSL     bolr='003'O
        12 000406   700000 000001                    BDSC    0,,PR7                   by=0,bit=0,n=1
PL6.E3A0      #003=VMA$ADD_RENTRY File=VMA$SUBR.:VMB6TSI                         WED 08/20/97 15:02 Page:145
        12 000407   100002 000001                    BDSC    2,,PR1                   by=0,bit=0,n=1

      880     8391        /*
      881     8392             ***** First entry?
      882     8393        */
      883     8394    1       IF VM_ADD_HEAD.HEAD$ = ADDR(NIL)

   8394 12 000410   000003 236100                    LDQ     3,,PR0
        12 000411   000000 116000 13                 CMPQ    0
        12 000412   000416 601000 12                 TNZ     s:8403

      884     8395    1       THEN
      885     8396    2       DO;

      886     8397    2           VM_ADD_HEAD.HEAD$ = PTR$;

   8397 12 000413   000011 236000 11                 LDQ     PTR$
        12 000414   000003 756100                    STQ     3,,PR0

      887     8398    2           GOTO UPDATE_RENTRY;

   8398 12 000415   000514 710000 12                 TRA     UPDATE_RENTRY

      888     8399    2       END;
      889     8400        /*
      890     8401             ***** New first entry?
      891     8402        */
      892     8403    1       IF VM_ADD_HEAD.HEAD$ -> VM$RADDRESS.TYPE = %VM_ADD_RESOLVED

   8403 12 000416   000003 477500                    LDP7    3,,PR0
        12 000417   700002 236100                    LDQ     2,,PR7
        12 000420   000777 376003                    ANQ     511,DU
        12 000421   000001 116003                    CMPQ    1,DU
        12 000422   000436 601000 12                 TNZ     s:8415
        12 000423   040100 106500                    CMPC    fill='040'O
        12 000424   300000 000010                    ADSC9   0,,PR3                   cn=0,n=8
        12 000425   700021 600010                    ADSC9   17,,PR7                  cn=3,n=8
PL6.E3A0      #003=VMA$ADD_RENTRY File=VMA$SUBR.:VMB6TSI                         WED 08/20/97 15:02 Page:146
        12 000426   000436 603000 12                 TRC     s:8415

      893     8404    1         AND VM_ADD_HEAD.HEAD$ -> VM$RADDRESS.ACCT > ACCT.ACCT#
      894     8405    1       THEN
      895     8406    2       DO;

      896     8407    2           PTR$ -> VM$RADDRESS.NEXT$ = VM_ADD_HEAD.HEAD$;

   8407 12 000427   000003 236100                    LDQ     3,,PR0
        12 000430   100000 756100                    STQ     0,,PR1

      897     8408    2           VM_ADD_HEAD.HEAD$ -> VM$RADDRESS.PREV$ = PTR$;

   8408 12 000431   000003 477500                    LDP7    3,,PR0
        12 000432   000011 236000 11                 LDQ     PTR$
        12 000433   700001 756100                    STQ     1,,PR7

      898     8409    2           VM_ADD_HEAD.HEAD$ = PTR$;

   8409 12 000434   000003 756100                    STQ     3,,PR0

      899     8410    2           GOTO UPDATE_RENTRY;

   8410 12 000435   000514 710000 12                 TRA     UPDATE_RENTRY

      900     8411    2       END;
      901     8412        /*
      902     8413             ***** Insert at end of list ...
      903     8414        */
      904     8415    1       LINK1$ = VM_ADD_HEAD.HEAD$;

   8415 12 000436   000003 236100                    LDQ     3,,PR0
        12 000437   000012 756000 11                 STQ     LINK1$

      905     8416    1       LINK2$ = ADDR(NIL);               /* Points to previous entry */

   8416 12 000440   000000 236000 13                 LDQ     0
PL6.E3A0      #003=VMA$ADD_RENTRY File=VMA$SUBR.:VMB6TSI                         WED 08/20/97 15:02 Page:147
        12 000441   000013 756000 11                 STQ     LINK2$

      906     8417    2       DO WHILE (LINK1$ ~= ADDR(NIL));

   8417 12 000442   000461 710000 12                 TRA     s:8424

      907     8418    2           IF LINK1$ -> VM$RADDRESS.TYPE = %VM_ADD_RESOLVED

   8418 12 000443   000012 470400 11                 LDP0    LINK1$
        12 000444   000002 236100                    LDQ     2,,PR0
        12 000445   000777 376003                    ANQ     511,DU
        12 000446   000001 116003                    CMPQ    1,DU
        12 000447   000455 601000 12                 TNZ     s:8422
        12 000450   200003 471500                    LDP1    @ACCT,,AUTO
        12 000451   040100 106500                    CMPC    fill='040'O
        12 000452   100000 000010                    ADSC9   0,,PR1                   cn=0,n=8
        12 000453   000021 600010                    ADSC9   17,,PR0                  cn=3,n=8
        12 000454   000464 602000 12                 TNC     s:8425

      908     8419    2             AND LINK1$ -> VM$RADDRESS.ACCT > ACCT.ACCT#
      909     8420    2           THEN                       /* Insert now */
      910     8421    2               EXIT;
      911     8422    2           LINK2$ = LINK1$;

   8422 12 000455   000012 236000 11                 LDQ     LINK1$
        12 000456   000013 756000 11                 STQ     LINK2$

      912     8423    2           LINK1$ = LINK1$ -> VM$RADDRESS.NEXT$;

   8423 12 000457   000000 236100                    LDQ     0,,PR0
        12 000460   000012 756000 11                 STQ     LINK1$

      913     8424    2       END;                            /* Do while ... end */

   8424 12 000461   000012 236000 11                 LDQ     LINK1$
        12 000462   000000 116000 13                 CMPQ    0
        12 000463   000443 601000 12                 TNZ     s:8418
PL6.E3A0      #003=VMA$ADD_RENTRY File=VMA$SUBR.:VMB6TSI                         WED 08/20/97 15:02 Page:148

      914     8425    1       IF LINK1$ = ADDR(NIL)

   8425 12 000464   000012 236000 11                 LDQ     LINK1$
        12 000465   000000 116000 13                 CMPQ    0
        12 000466   000476 601000 12                 TNZ     s:8434

      915     8426    1       THEN                            /* Insert at end */
      916     8427    2       DO;

      917     8428    2           PTR$ -> VM$RADDRESS.PREV$ = LINK2$;

   8428 12 000467   000013 236000 11                 LDQ     LINK2$
        12 000470   000011 470400 11                 LDP0    PTR$
        12 000471   000001 756100                    STQ     1,,PR0

      918     8429    2           LINK2$ -> VM$RADDRESS.NEXT$ = PTR$;

   8429 12 000472   000011 236000 11                 LDQ     PTR$
        12 000473   000013 471400 11                 LDP1    LINK2$
        12 000474   100000 756100                    STQ     0,,PR1

      919     8430    2           GOTO UPDATE_RENTRY;

   8430 12 000475   000514 710000 12                 TRA     UPDATE_RENTRY

      920     8431    2       END;
      921     8432    1       ELSE                            /* Insert in middle */
      922     8433    2       DO;

      923     8434    2           PTR$ -> VM$RADDRESS.PREV$ = LINK1$ -> VM$RADDRESS.PREV$;

   8434 12 000476   000012 470400 11                 LDP0    LINK1$
        12 000477   000001 236100                    LDQ     1,,PR0
        12 000500   000011 471400 11                 LDP1    PTR$
        12 000501   100001 756100                    STQ     1,,PR1

PL6.E3A0      #003=VMA$ADD_RENTRY File=VMA$SUBR.:VMB6TSI                         WED 08/20/97 15:02 Page:149
      924     8435    2           PTR$ -> VM$RADDRESS.NEXT$ = LINK1$;

   8435 12 000502   000012 236000 11                 LDQ     LINK1$
        12 000503   100000 756100                    STQ     0,,PR1

      925     8436    2           LINK1$ -> VM$RADDRESS.PREV$ = PTR$;

   8436 12 000504   000011 236000 11                 LDQ     PTR$
        12 000505   000001 756100                    STQ     1,,PR0

      926     8437    2           IF LINK2$ ~= ADDR(NIL)

   8437 12 000506   000013 236000 11                 LDQ     LINK2$
        12 000507   000000 116000 13                 CMPQ    0
        12 000510   000514 600000 12                 TZE     UPDATE_RENTRY

      927     8438    2           THEN                  /* Previous node exists */
      928     8439    2               LINK2$ -> VM$RADDRESS.NEXT$ = PTR$;

   8439 12 000511   000011 236000 11                 LDQ     PTR$
        12 000512   000013 473400 11                 LDP3    LINK2$
        12 000513   300000 756100                    STQ     0,,PR3

      929     8440    2       END;

      930     8441        /*
      931     8442             ***** Update NEXT$, NUM_ENTRIES and ADDRESS_SIZE ...
      932     8443        */
      933     8444    1   UPDATE_RENTRY:
      934     8445    1       VM_ADD_HEAD.NEXT$ = X$MCB.HI_SEGMENT$;

   8445 12 000514   000003 236000 11    UPDATE_RENT* LDQ     X$MCB+3
        12 000515   000000 470400 xsym               LDP0    VM_ADDLIST$
        12 000516   000005 756100                    STQ     5,,PR0

      935     8446    1       VM_ADD_HEAD.FREE$ = X$MCB.FREE_HEAD$;

PL6.E3A0      #003=VMA$ADD_RENTRY File=VMA$SUBR.:VMB6TSI                         WED 08/20/97 15:02 Page:150
   8446 12 000517   000001 236000 11                 LDQ     X$MCB+1
        12 000520   000004 756100                    STQ     4,,PR0

      936     8447    1       VM_ADD_HEAD.NUM_ENTRIES = VM_ADD_HEAD.NUM_ENTRIES + 1;

   8447 12 000521   000001 235100                    LDA     1,,PR0
        12 000522   000001 035007                    ADLA    1,DL
        12 000523   000001 755100                    STA     1,,PR0

      937     8448    1       VM_ADD_HEAD.ADDRESS_SIZE = POFFW(VM_ADD_HEAD.NEXT$,VM_ADDLIST$);

   8448 12 000524   000000 235000 xsym               LDA     VM_ADDLIST$
        12 000525   000022 771000                    ARL     18
        12 000526   200014 755100                    STA     SITE+3,,AUTO
        12 000527   000005 236100                    LDQ     5,,PR0
        12 000530   000022 772000                    QRL     18
        12 000531   200014 136100                    SBLQ    SITE+3,,AUTO
        12 000532   000000 756100                    STQ     0,,PR0

      938     8449    1       IF PTR$ -> VM$RADDRESS.FLAGS.UNDEF#

   8449 12 000533   000011 471400 11                 LDP1    PTR$
        12 000534   100002 234100                    SZN     2,,PR1
        12 000535   000540 605000 12                 TPL     s:8452

      939     8450    1       THEN
      940     8451    1           VM_ADD_HEAD.FLAGS.ERR# = %YES#;

   8451 12 000536   400000 236003                    LDQ     -131072,DU
        12 000537   000002 256100                    ORSQ    2,,PR0

      941     8452    1       RETURN;

   8452 12 000540   000000 702200 xent               TSX2  ! X66_ARET

      942     8453        %EJECT;
PL6.E3A0      #003=VMA$ADD_RENTRY File=VMA$SUBR.:VMB6TSI                         WED 08/20/97 15:02 Page:151
      943     8454        /*F*
      944     8455             NAME: VMA$DEL_RENTRY
      945     8456             PURPOSE:
      946     8457                   To delete a RESOLVED address entry from the address list.
      947     8458             DESCRIPTION:
      948     8459                   This routine will search the address list described
      949     8460                   by VM_ADD_HEAD to find an entry where the ACCT,
      950     8461                   FOLDER and SITENAME match the passed parameters.
      951     8462                   All other parameters will be ignored.
      952     8463
      953     8464                   NOTE: An ALTRETURN means that the entry was not found.
      954     8465        */
      955     8466    1   VMA$DEL_RENTRY: ENTRY (ACCT,FOLDER,PASSWORD,SITENAME,ERR#,NAME_KEY) ALTRET;

   8466 12 000541   000000 700200 xent  VMA$DEL_REN* TSX0  ! X66_AUTO_N
        12 000542   000016 000006                    ZERO    14,6

      956     8467        /*
      957     8468             ***** No entries?
      958     8469        */
      959     8470    1       IF VM_ADD_HEAD.NUM_ENTRIES = 0

   8470 12 000543   000000 470400 xsym               LDP0    VM_ADDLIST$
        12 000544   000001 235100                    LDA     1,,PR0
        12 000545   000547 601000 12                 TNZ     s:8473

      960     8471    1       THEN
      961     8472    1           ALTRETURN;

   8472 12 000546   000000 702200 xent               TSX2  ! X66_AALT

      962     8473    1       IF SITENAME = ' '

   8473 12 000547   200006 471500                    LDP1    @SITENAME,,AUTO
        12 000550   040000 106500                    CMPC    fill='040'O
        12 000551   100000 000010                    ADSC9   0,,PR1                   cn=0,n=8
        12 000552   000004 000001 13                 ADSC9   4                        cn=0,n=1
PL6.E3A0      #003=VMA$ADD_RENTRY File=VMA$SUBR.:VMB6TSI                         WED 08/20/97 15:02 Page:152
        12 000553   000560 601000 12                 TNZ     s:8477

      963     8474    1       THEN                    /* supply local sitename */
      964     8475    1           SITE = VM_SITENAME;

   8475 12 000554   040100 100400                    MLR     fill='040'O
        12 000555   000000 000010 xsym               ADSC9   VM_SITENAME              cn=0,n=8
        12 000556   200011 000010                    ADSC9   SITE,,AUTO               cn=0,n=8
        12 000557   000563 710000 12                 TRA     s:8481

      965     8476    1       ELSE
      966     8477    1           SITE = SITENAME;

   8477 12 000560   040100 100500                    MLR     fill='040'O
        12 000561   100000 000010                    ADSC9   0,,PR1                   cn=0,n=8
        12 000562   200011 000010                    ADSC9   SITE,,AUTO               cn=0,n=8

      967     8478        /*
      968     8479             ***** Initialize ...
      969     8480        */
      970     8481    1       X$MCB.TYPE = 0;

   8481 12 000563   000005 450000 11                 STZ     X$MCB+5

      971     8482    1       X$MCB.MIN_SIZE = SIZEC(VM$RADDRESS);

   8482 12 000564   000120 235007                    LDA     80,DL
        12 000565   000007 755000 11                 STA     X$MCB+7

      972     8483    1       X$MCB.SEGMENT_BASE$ = VBASE(VM_ADDLIST_);

   8483 12 000566   000001 236000 xsym               LDQ     VM_ADDLIST_+1
        12 000567   000002 756000 11                 STQ     X$MCB+2

      973     8484    1       X$MCB.HI_SEGMENT$ = VM_ADD_HEAD.NEXT$;

   8484 12 000570   000005 236100                    LDQ     5,,PR0
PL6.E3A0      #003=VMA$ADD_RENTRY File=VMA$SUBR.:VMB6TSI                         WED 08/20/97 15:02 Page:153
        12 000571   000003 756000 11                 STQ     X$MCB+3

      974     8485    1       X$MCB.FREE_HEAD$ = VM_ADD_HEAD.FREE$;

   8485 12 000572   000004 236100                    LDQ     4,,PR0
        12 000573   000001 756000 11                 STQ     X$MCB+1

      975     8486    1       X$MCB.WKSZ = (VBOUND(VM_ADDLIST_)+1)/4;

   8486 12 000574   000000 236000 xsym               LDQ     VM_ADDLIST_
        12 000575   000020 772000                    QRL     16
        12 000576   000001 036007                    ADLQ    1,DL
        12 000577   000002 772000                    QRL     2
        12 000600   000004 756000 11                 STQ     X$MCB+4

      976     8487        /*
      977     8488             ***** Search ...
      978     8489        */
      979     8490    1       LINK2$ = ADDR(NIL);

   8490 12 000601   000000 236000 13                 LDQ     0
        12 000602   000013 756000 11                 STQ     LINK2$

      980     8491    1       LINK1$ = VM_ADD_HEAD.HEAD$;

   8491 12 000603   000003 236100                    LDQ     3,,PR0
        12 000604   000012 756000 11                 STQ     LINK1$

      981     8492    2       DO WHILE (LINK1$ ~= ADDR(NIL));

   8492 12 000605   000701 710000 12                 TRA     s:8529

      982     8493    2           IF LINK1$ -> VM$RADDRESS.FOLDER ~= FOLDER

   8493 12 000606   000012 470400 11                 LDP0    LINK1$
        12 000607   200004 471500                    LDP1    @FOLDER,,AUTO
        12 000610   040100 106500                    CMPC    fill='040'O
PL6.E3A0      #003=VMA$ADD_RENTRY File=VMA$SUBR.:VMB6TSI                         WED 08/20/97 15:02 Page:154
        12 000611   000007 400031                    ADSC9   7,,PR0                   cn=2,n=25
        12 000612   100000 000031                    ADSC9   0,,PR1                   cn=0,n=25
        12 000613   000675 601000 12                 TNZ     END_DEL_SRCH

      983     8494    2           THEN                     /* No match */
      984     8495    2               GOTO END_DEL_SRCH;
      985     8496    2           IF LINK1$ -> VM$RADDRESS.ACCT ~= ACCT.ACCT#

   8496 12 000614   200003 473500                    LDP3    @ACCT,,AUTO
        12 000615   040100 106500                    CMPC    fill='040'O
        12 000616   000021 600010                    ADSC9   17,,PR0                  cn=3,n=8
        12 000617   300000 000010                    ADSC9   0,,PR3                   cn=0,n=8
        12 000620   000675 601000 12                 TNZ     END_DEL_SRCH

      986     8497    2           THEN
      987     8498    2               GOTO END_DEL_SRCH;
      988     8499    2           IF LINK1$ -> VM$RADDRESS.SITENAME ~= ' '

   8499 12 000621   040000 106500                    CMPC    fill='040'O
        12 000622   000017 600010                    ADSC9   15,,PR0                  cn=3,n=8
        12 000623   000004 000001 13                 ADSC9   4                        cn=0,n=1
        12 000624   000632 600000 12                 TZE     s:8506

      989     8500    3           THEN DO;

      990     8501    3               IF SITE ~= LINK1$ -> VM$RADDRESS.SITENAME

   8501 12 000625   040100 106500                    CMPC    fill='040'O
        12 000626   200011 000010                    ADSC9   SITE,,AUTO               cn=0,n=8
        12 000627   000017 600010                    ADSC9   15,,PR0                  cn=3,n=8
        12 000630   000675 601000 12                 TNZ     END_DEL_SRCH

      991     8502    3               THEN
      992     8503    3                   GOTO END_DEL_SRCH;
      993     8504    3           END;

   8504 12 000631   000636 710000 12                 TRA     s:8510
PL6.E3A0      #003=VMA$ADD_RENTRY File=VMA$SUBR.:VMB6TSI                         WED 08/20/97 15:02 Page:155

      994     8505    3           ELSE DO;

      995     8506    3               IF SITE ~= VM_SITENAME

   8506 12 000632   040000 106500                    CMPC    fill='040'O
        12 000633   200011 000010                    ADSC9   SITE,,AUTO               cn=0,n=8
        12 000634   000000 000010 xsym               ADSC9   VM_SITENAME              cn=0,n=8
        12 000635   000675 601000 12                 TNZ     END_DEL_SRCH

      996     8507    3               THEN
      997     8508    3                   GOTO END_DEL_SRCH;
      998     8509    3           END;

      999     8510    2           IF LINK2$ ~= ADDR(NIL)

   8510 12 000636   000013 236000 11                 LDQ     LINK2$
        12 000637   000000 116000 13                 CMPQ    0
        12 000640   000645 600000 12                 TZE     s:8515

     1000     8511    2           THEN
     1001     8512    2               LINK2$ -> VM$RADDRESS.NEXT$ =

   8512 12 000641   000000 236100                    LDQ     0,,PR0
        12 000642   000013 474400 11                 LDP4    LINK2$
        12 000643   400000 756100                    STQ     0,,PR4
        12 000644   000650 710000 12                 TRA     s:8516

     1002     8513    2                 LINK1$ -> VM$RADDRESS.NEXT$;
     1003     8514    2           ELSE
     1004     8515    2               VM_ADD_HEAD.HEAD$ = LINK1$ -> VM$RADDRESS.NEXT$;

   8515 12 000645   000000 236100                    LDQ     0,,PR0
        12 000646   000000 474400 xsym               LDP4    VM_ADDLIST$
        12 000647   400003 756100                    STQ     3,,PR4

     1005     8516    2           IF LINK1$ -> VM$RADDRESS.NEXT$ ~= ADDR(NIL)
PL6.E3A0      #003=VMA$ADD_RENTRY File=VMA$SUBR.:VMB6TSI                         WED 08/20/97 15:02 Page:156

   8516 12 000650   000000 236100                    LDQ     0,,PR0
        12 000651   000000 116000 13                 CMPQ    0
        12 000652   000656 600000 12                 TZE     s:8520

     1006     8517    2           THEN
     1007     8518    2               LINK1$ -> VM$RADDRESS.NEXT$ ->

   8518 12 000653   000000 474500                    LDP4    0,,PR0
        12 000654   000013 236000 11                 LDQ     LINK2$
        12 000655   400001 756100                    STQ     1,,PR4

     1008     8519    2                 VM$RADDRESS.PREV$ = LINK2$;
     1009     8520    2           X$MCB.ADDRESS$ = LINK1$;

   8520 12 000656   000012 236000 11                 LDQ     LINK1$
        12 000657   000000 756000 11                 STQ     X$MCB

     1010     8521    2           CALL X$DEALLOCATE (X$MCB);

   8521 12 000660   000002 630400 13                 EPPR0   2
        12 000661   000001 631400 13                 EPPR1   1
        12 000662   000000 701000 xent               TSX1    X$DEALLOCATE
        12 000663   000000 011000                    NOP     0

     1011     8522    2           VM_ADD_HEAD.NUM_ENTRIES = VM_ADD_HEAD.NUM_ENTRIES - 1;

   8522 12 000664   000000 470400 xsym               LDP0    VM_ADDLIST$
        12 000665   000001 235100                    LDA     1,,PR0
        12 000666   000001 135007                    SBLA    1,DL
        12 000667   000001 755100                    STA     1,,PR0

     1012     8523    2           VM_ADD_HEAD.NEXT$ = X$MCB.HI_SEGMENT$;

   8523 12 000670   000003 236000 11                 LDQ     X$MCB+3
        12 000671   000005 756100                    STQ     5,,PR0

PL6.E3A0      #003=VMA$ADD_RENTRY File=VMA$SUBR.:VMB6TSI                         WED 08/20/97 15:02 Page:157
     1013     8524    2           VM_ADD_HEAD.FREE$ = X$MCB.FREE_HEAD$;

   8524 12 000672   000001 236000 11                 LDQ     X$MCB+1
        12 000673   000004 756100                    STQ     4,,PR0

     1014     8525    2           RETURN;

   8525 12 000674   000000 702200 xent               TSX2  ! X66_ARET

   8524 12 000675                       END_DEL_SRCH null
     1015     8526    2   END_DEL_SRCH: ;
     1016     8527    2           LINK2$ = LINK1$;

   8527 12 000675   000012 236000 11                 LDQ     LINK1$
        12 000676   000013 756000 11                 STQ     LINK2$

     1017     8528    2           LINK1$ = LINK1$ -> VM$RADDRESS.NEXT$;

   8528 12 000677   000000 236100                    LDQ     0,,PR0
        12 000700   000012 756000 11                 STQ     LINK1$

     1018     8529    2       END;                            /* Do while ... end */

   8529 12 000701   000000 116000 13                 CMPQ    0
        12 000702   000606 601000 12                 TNZ     s:8493

     1019     8530        /*
     1020     8531             ***** If we fell out,
     1021     8532                   then the entry must not be defined ...
     1022     8533        */
     1023     8534    1       ALTRETURN;

   8534 12 000703   000000 702200 xent               TSX2  ! X66_AALT

X$MCB
 Sect OctLoc
  11     000   ****** ******   ****** ******   ****** ******   ****** ******    ................
PL6.E3A0      #003=VMA$ADD_RENTRY File=VMA$SUBR.:VMB6TSI                         WED 08/20/97 15:02 Page:158

(unnamed)
 Sect OctLoc
  13     000   000000 006014   000001 000000   000000 006000   000000 006000    ................
  13     004   040040 040040
     1024     8535    1   END VMA$ADD_RENTRY;
     1025     8536        %EOD;

PL6.E3A0      #003=VMA$ADD_RENTRY File=VMA$SUBR.:VMB6TSI                         WED 08/20/97 15:02 Page:159
--  Include file information  --

   XUM_MACRO_C.:LIB_E05  is referenced.
   B_MACROS_C.:LIB_E05  is referenced.
   VM_DATA_R.:VMB6TOU  cannot be made into a system file and is referenced.
   VM_SUBS_C.:VMB6TOU  is referenced.
   VM_MACRO_C.:VMB6TOU  is referenced.
   CP_6_SUBS.:LIB_E05  is referenced.
   CP_6_C.:LIB_E05  is referenced.
   CP_6.:LIB_E05  cannot be made into a system file and is referenced.
      No diagnostics issued in procedure VMA$ADD_RENTRY.
PL6.E3A0      #003=VMA$ADD_RENTRY File=VMA$SUBR.:VMB6TSI                         WED 08/20/97 15:02 Page:160

 **** Variables and constants ****

  ****  Section 011  Data  VMA$ADD_RENTRY

  ****  Scalars and arrays  ****
OctLoc.c.b A Datatyp(siz) R M Lvl/name                 OctLoc.c.b A Datatyp(siz) R M Lvl/name

    12-0-0/w PTR         r     1 LINK1$                    13-0-0/w PTR         r     1 LINK2$
    11-0-0/w PTR         r     1 PTR$                       0-0-0/w STRC(324)   r     1 X$MCB

  ****  Auto variables  ****

  ****  Scalars and arrays  ****
OctLoc.c.b A Datatyp(siz) R M Lvl/name                 OctLoc.c.b A Datatyp(siz) R M Lvl/name

     3-0-0/w PTR         r     1 @ACCT                      7-0-0/w PTR         r     1 @ERR#
     4-0-0/w PTR         r     1 @FOLDER                   10-0-0/w PTR         r     1 @NAME_KEY
     5-0-0/w PTR         r     1 @PASSWORD                  6-0-0/w PTR         r     1 @SITENAME
    *0-0-0/c STRC(72)    r     1 ACCT                      *0-0-0/b BIT         r     1 ERR#
    *0-0-0/c CHAR(25)    r     1 FOLDER                    *0-0-0/c CHAR(20)    r     1 NAME_KEY
    *0-0-0/c STRC(72)    r     1 PASSWORD                  11-0-0/c CHAR(8)     r     1 SITE
    *0-0-0/c CHAR(8)     r     1 SITENAME

  ****  SYMREF variables  ****

  ****  Scalars and arrays  ****
OctLoc.c.b A Datatyp(siz) R M Lvl/name                 OctLoc.c.b A Datatyp(siz) R M Lvl/name

     0-0-0/w PTR               1 B$JIT$                     0-0-0/w PTR               1 B$TCB$
     0-0-0/c ASTR(9)     r     1 ERRMSG_FID                 0-0-0/w UBIN              1 M$DO_NUM
     0-0-0/w UBIN              1 M$LO_NUM                   0-0-0/w UBIN              1 M$MAIL_CENTRAL_NUM
     0-0-0/w UBIN              1 M$MAIL_COMGROUP_NUM        0-0-0/w UBIN              1 M$MAIL_FILE_NUM
     0-0-0/w UBIN              1 M$MAIL_GLOBAL_NUM          0-0-0/w UBIN              1 M$ME_NUM
     0-0-0/w UBIN              1 M$NODE_NUM                 0-0-0/w UBIN              1 M$SI_NUM
     0-0-0/w UBIN              1 M$WORK_NUM                 0-0-0/w PTR         r     1 VM_ADDLIST$
     0-0-0/d VECT        r     1 VM_ADDLIST_                0-0-0/w PTR               1 VM_ADDREC$
     0-0-0/d VECT              1 VM_ADDREC_                 0-0-0/w PTR               1 VM_COPY$
PL6.E3A0      #003=VMA$ADD_RENTRY File=VMA$SUBR.:VMB6TSI                         WED 08/20/97 15:02 Page:161
     0-0-0/d VECT              1 VM_COPY_                   0-0-0/w PTR               1 VM_ENCLLIST$
     0-0-0/d VECT              1 VM_ENCLLIST_               0-0-0/w PTR               1 VM_ENCLREC$
     0-0-0/d VECT              1 VM_ENCLREC_                0-0-0/c STRC(270)         1 VM_FORWARD_ENCL_NAME
     0-0-0/c STRC(270)         1 VM_FORWARD_FILE_NAME       0-0-0/c STRC(72)          1 VM_FORWARD_FILE_PASS
     0-0-0/w PTR               1 VM_HEADER$                 0-0-0/d VECT              1 VM_HEADER_
     0-0-0/d VECT              1 VM_HEADER_INIT_            0-0-0/w PTR               1 VM_INPUT$
     0-0-0/d VECT              1 VM_INPUT_                  0-0-0/c STRC(72)          1 VM_MAILCG_NAME
     0-0-0/w STRC(432)         1 VM_MAILCG_SETSTA           0-0-0/c STRC(72)          1 VM_MAIL_ACCT
     0-0-0/c STRC(54)          1 VM_NAME_MAP_NAME           0-0-0/w PTR               1 VM_PARSEAREA$
     0-0-0/d VECT              1 VM_PARSEAREA_              0-0-0/w PTR               1 VM_PROFILE$
     0-0-0/d VECT              1 VM_PROFILE_                0-0-0/w PTR               1 VM_SELECT$
     0-0-0/d VECT              1 VM_SELECT_                 0-0-0/c STRC(288)         1 VM_SEND_FILE_NAME
     0-0-0/c CHAR(8)     r     1 VM_SITENAME                0-0-0/w PTR               1 VM_WORK$
     0-0-0/d VECT              1 VM_WORK_

  ****  BASED and DCB variables  ****

  ****  Scalars and arrays  ****
OctLoc.c.b A Datatyp(siz) R M Lvl/name                 OctLoc.c.b A Datatyp(siz) R M Lvl/name

     0-0-0N  NULL        r     1 M$DO                       0-0-0N  NULL        r     1 M$LO
     0-0-0N  NULL        r     1 M$MAIL_CENTRAL             0-0-0N  NULL        r     1 M$MAIL_COMGROUP
     0-0-0N  NULL        r     1 M$MAIL_FILE                0-0-0N  NULL        r     1 M$MAIL_GLOBAL
     0-0-0N  NULL        r     1 M$ME                       0-0-0N  NULL        r     1 M$NODE
     0-0-0N  NULL        r     1 M$SI                       0-0-0N  NULL        r     1 M$UC
     0-0-0N  NULL        r     1 M$WORK                     0-0-0/w STRC(711)   r     1 VM$RADDRESS
     0-0-0/w STRC(252)   r     1 VM_ADD_HEAD                0-0-0/c ASTR(9)     r     1 X$STRING


   Procedure VMA$ADD_RENTRY requires 452 words for executable code.
   Procedure VMA$ADD_RENTRY requires 14 words of local(AUTO) storage.
PL6.E3A0      #003=VMA$ADD_RENTRY File=VMA$SUBR.:VMB6TSI                         WED 08/20/97 15:02 Page:162
          *** CROSS REFERENCE LISTING ***
**     DENOTES     IDENTIFIER DEFINITION
<<                 IDENTIFIER'S VALUE SET
>>                 IDENTIFIER'S VALUE USED
<>                 IDENTIFIER SET AND/OR USED
--                 IDENTIFIER REFERENCED
PL6.E3A0      #003=VMA$ADD_RENTRY File=VMA$SUBR.:VMB6TSI                         WED 08/20/97 15:02 Page:163
          MINI XREF LISTING

ACCT
      8130**DCL        31--PROC     8316--ENTRY    8466--ENTRY
ACCT.ACCT#
      8130**DCL      8274>>ASSIGN   8333>>IF       8378>>ASSIGN   8403>>IF       8418>>IF       8496>>IF
END_DEL_SRCH
      8524**LABEL    8495--GOTO     8498--GOTO     8503--GOTO     8508--GOTO
ERR#
      8147**DCL        31--PROC     8284--IF       8286>>ASSIGN   8316--ENTRY    8388--IF       8390>>ASSIGN
      8466--ENTRY
ERRMSG_FID.L#
      7936**DCL      7936--IMP-SIZ
E_ADD
      8301**LABEL    8255--CALLALT  8257--CALLALT  8365--CALLALT  8367--CALLALT
FOLDER
      8132**DCL        31--PROC     8275>>ASSIGN   8316--ENTRY    8333>>IF       8379>>ASSIGN   8466--ENTRY
      8493>>IF
LINK1$
      8225**DCL      8331<<ASSIGN   8332>>DOWHILE  8333>>IF       8333>>IF       8333>>IF       8333>>IF
      8333>>IF       8341>>IF       8346>>IF       8350<<ASSIGN   8350>>ASSIGN   8415<<ASSIGN   8417>>DOWHILE
      8418>>IF       8418>>IF       8422>>ASSIGN   8423<<ASSIGN   8423>>ASSIGN   8425>>IF       8434>>ASSIGN
      8435>>ASSIGN   8436>>ASSIGN   8491<<ASSIGN   8492>>DOWHILE  8493>>IF       8496>>IF       8499>>IF
      8501>>IF       8512>>ASSIGN   8515>>ASSIGN   8516>>IF       8518>>ASSIGN   8520>>ASSIGN   8527>>ASSIGN
      8528<<ASSIGN   8528>>ASSIGN
LINK2$
      8226**DCL      8416<<ASSIGN   8422<<ASSIGN   8428>>ASSIGN   8429>>ASSIGN   8437>>IF       8439>>ASSIGN
      8490<<ASSIGN   8510>>IF       8512>>ASSIGN   8518>>ASSIGN   8527<<ASSIGN
NAME_KEY
      8148**DCL        31--PROC     8279--IF       8281>>ASSIGN   8316--ENTRY    8339--IF       8346>>IF
      8383--IF       8385>>ASSIGN   8466--ENTRY
PASSWORD
      8144**DCL        31--PROC     8316--ENTRY    8466--ENTRY
PASSWORD.PASS#
PL6.E3A0      #003=VMA$ADD_RENTRY File=VMA$SUBR.:VMB6TSI                         WED 08/20/97 15:02 Page:164
      8144**DCL      8276>>ASSIGN   8333>>IF       8380>>ASSIGN
PTR$
      8224**DCL      8259<<ASSIGN   8271>>ASSIGN   8272>>ASSIGN   8273>>ASSIGN   8274>>ASSIGN   8275>>ASSIGN
      8276>>ASSIGN   8277>>ASSIGN   8278>>ASSIGN   8281>>ASSIGN   8283>>ASSIGN   8286>>ASSIGN   8287>>ASSIGN
      8295>>IF       8369<<ASSIGN   8375>>ASSIGN   8376>>ASSIGN   8377>>ASSIGN   8378>>ASSIGN   8379>>ASSIGN
      8380>>ASSIGN   8381>>ASSIGN   8382>>ASSIGN   8385>>ASSIGN   8387>>ASSIGN   8390>>ASSIGN   8397>>ASSIGN
      8407>>ASSIGN   8408>>ASSIGN   8409>>ASSIGN   8428>>ASSIGN   8429>>ASSIGN   8434>>ASSIGN   8435>>ASSIGN
      8436>>ASSIGN   8439>>ASSIGN   8449>>IF
SITE
      8223**DCL      8268<<ASSIGN   8270<<ASSIGN   8277>>ASSIGN   8475<<ASSIGN   8477<<ASSIGN   8501>>IF
      8506>>IF
SITENAME
      8146**DCL        31--PROC     8266>>IF       8270>>ASSIGN   8316--ENTRY    8333>>IF       8381>>ASSIGN
      8466--ENTRY    8473>>IF       8477>>ASSIGN
UPDATE_RENTRY
      8445**LABEL    8398--GOTO     8410--GOTO     8430--GOTO
VM$RADDRESS
      8193**DCL      8246--ASSIGN   8251--ASSIGN   8356--ASSIGN   8361--ASSIGN   8482--ASSIGN
VM$RADDRESS.ACCT
      8216**DCL      8274<<ASSIGN   8333>>IF       8378<<ASSIGN   8403>>IF       8418>>IF       8496>>IF
VM$RADDRESS.FLAGS
      8198**DCL      8278<<ASSIGN   8382<<ASSIGN
VM$RADDRESS.FLAGS.UNDEF#
      8199**DCL      8286<<ASSIGN   8295>>IF       8390<<ASSIGN   8449>>IF
VM$RADDRESS.FOLDER
      8208**DCL      8209--REDEF    8275<<ASSIGN   8333>>IF       8379<<ASSIGN   8493>>IF
VM$RADDRESS.NAME_KEY
      8206**DCL      8281<<ASSIGN   8283<<ASSIGN   8341>>IF       8346>>IF       8385<<ASSIGN   8387<<ASSIGN
VM$RADDRESS.NEXT$
      8194**DCL      8271<<ASSIGN   8350>>ASSIGN   8375<<ASSIGN   8407<<ASSIGN   8423>>ASSIGN   8429<<ASSIGN
      8435<<ASSIGN   8439<<ASSIGN   8512<<ASSIGN   8512>>ASSIGN   8515>>ASSIGN   8516>>IF       8518>>ASSIGN
      8528>>ASSIGN
VM$RADDRESS.PASS
      8213**DCL      8276<<ASSIGN   8333>>IF       8380<<ASSIGN
VM$RADDRESS.PREV$
      8196**DCL      8272<<ASSIGN   8376<<ASSIGN   8408<<ASSIGN   8428<<ASSIGN   8434<<ASSIGN   8434>>ASSIGN
PL6.E3A0      #003=VMA$ADD_RENTRY File=VMA$SUBR.:VMB6TSI                         WED 08/20/97 15:02 Page:165
      8436<<ASSIGN   8518<<ASSIGN
VM$RADDRESS.SITENAME
      8215**DCL      8277<<ASSIGN   8333>>IF       8381<<ASSIGN   8499>>IF       8501>>IF
VM$RADDRESS.TYPE
      8205**DCL      8273<<ASSIGN   8333>>IF       8377<<ASSIGN   8403>>IF       8418>>IF
VMA$ENLARGE_SEGMENT
      8228**DCL-ENT  8255--CALL     8365--CALL
VM_ADDLIST$
      7790**DCL      8164--IMP-PTR  8235>>IF       8238>>ASSIGN   8239>>ASSIGN   8240>>ASSIGN   8240>>ASSIGN
      8248>>ASSIGN   8249>>ASSIGN   8260>>ASSIGN   8261>>ASSIGN   8271>>ASSIGN   8287>>ASSIGN   8291>>ASSIGN
      8292>>ASSIGN   8293>>ASSIGN   8293>>ASSIGN   8294>>ASSIGN   8294>>ASSIGN   8294>>ASSIGN   8297>>ASSIGN
      8321>>IF       8324>>ASSIGN   8325>>ASSIGN   8326>>ASSIGN   8326>>ASSIGN   8331>>ASSIGN   8358>>ASSIGN
      8359>>ASSIGN   8370>>ASSIGN   8371>>ASSIGN   8394>>IF       8397>>ASSIGN   8403>>IF       8403>>IF
      8407>>ASSIGN   8408>>ASSIGN   8409>>ASSIGN   8415>>ASSIGN   8445>>ASSIGN   8446>>ASSIGN   8447>>ASSIGN
      8447>>ASSIGN   8448>>ASSIGN   8448>>ASSIGN   8448>>ASSIGN   8451>>ASSIGN   8470>>IF       8484>>ASSIGN
      8485>>ASSIGN   8491>>ASSIGN   8515>>ASSIGN   8522>>ASSIGN   8522>>ASSIGN   8523>>ASSIGN   8524>>ASSIGN
VM_ADDLIST_
      7814**DCL      8247>>ASSIGN   8250>>ASSIGN   8255<>CALL     8357>>ASSIGN   8360>>ASSIGN   8365<>CALL
      8483>>ASSIGN   8486>>ASSIGN
VM_ADD_HEAD.ADDRESS_SIZE
      8165**DCL      8294<<ASSIGN   8448<<ASSIGN
VM_ADD_HEAD.FLAGS.ERR#
      8170**DCL      8297<<ASSIGN   8451<<ASSIGN
VM_ADD_HEAD.FREE$
      8176**DCL      8239<<ASSIGN   8249>>ASSIGN   8261<<ASSIGN   8292<<ASSIGN   8325<<ASSIGN   8359>>ASSIGN
      8371<<ASSIGN   8446<<ASSIGN   8485>>ASSIGN   8524<<ASSIGN
VM_ADD_HEAD.HEAD$
      8174**DCL      8238<<ASSIGN   8271>>ASSIGN   8287<<ASSIGN   8324<<ASSIGN   8331>>ASSIGN   8394>>IF
      8397<<ASSIGN   8403>>IF       8403>>IF       8407>>ASSIGN   8408>>ASSIGN   8409<<ASSIGN   8415>>ASSIGN
      8491>>ASSIGN   8515<<ASSIGN
VM_ADD_HEAD.NEXT$
      8178**DCL      8240<<ASSIGN   8248>>ASSIGN   8260<<ASSIGN   8291<<ASSIGN   8294>>ASSIGN   8326<<ASSIGN
      8358>>ASSIGN   8370<<ASSIGN   8445<<ASSIGN   8448>>ASSIGN   8484>>ASSIGN   8523<<ASSIGN
VM_ADD_HEAD.NUM_ENTRIES
      8167**DCL      8235>>IF       8293<<ASSIGN   8293>>ASSIGN   8321>>IF       8447<<ASSIGN   8447>>ASSIGN
      8470>>IF       8522<<ASSIGN   8522>>ASSIGN
PL6.E3A0      #003=VMA$ADD_RENTRY File=VMA$SUBR.:VMB6TSI                         WED 08/20/97 15:02 Page:166
VM_ADD_HEAD.WORK_AREA
      8180**DCL      8240--ASSIGN   8326--ASSIGN
VM_SITENAME
      8059**DCL      8268>>ASSIGN   8475>>ASSIGN   8506>>IF
X$ALLOCATE
      8229**DCL-ENT  8252--CALL     8257--CALL     8362--CALL     8367--CALL
X$DEALLOCATE
      8230**DCL-ENT  8521--CALL
X$MCB
      8219**DCL      8252<>CALL     8257<>CALL     8362<>CALL     8367<>CALL     8521<>CALL
X$MCB.ADDRESS$
      8219**DCL      8259>>ASSIGN   8369>>ASSIGN   8520<<ASSIGN
X$MCB.FREE_HEAD$
      8219**DCL      8249<<ASSIGN   8261>>ASSIGN   8292>>ASSIGN   8359<<ASSIGN   8371>>ASSIGN   8446>>ASSIGN
      8485<<ASSIGN   8524>>ASSIGN
X$MCB.HI_SEGMENT$
      8219**DCL      8248<<ASSIGN   8260>>ASSIGN   8291>>ASSIGN   8358<<ASSIGN   8370>>ASSIGN   8445>>ASSIGN
      8484<<ASSIGN   8523>>ASSIGN
X$MCB.MIN_SIZE
      8220**DCL      8246<<ASSIGN   8356<<ASSIGN   8482<<ASSIGN
X$MCB.SEGMENT_BASE$
      8219**DCL      8247<<ASSIGN   8357<<ASSIGN   8483<<ASSIGN
X$MCB.SIZE
      8219**DCL      8251<<ASSIGN   8361<<ASSIGN
X$MCB.TYPE
      8219**DCL      8245<<ASSIGN   8355<<ASSIGN   8481<<ASSIGN
X$MCB.WKSZ
      8219**DCL      8250<<ASSIGN   8256<<ASSIGN   8256>>ASSIGN   8360<<ASSIGN   8366<<ASSIGN   8366>>ASSIGN
      8486<<ASSIGN
X$STRING.SIZ
      7782**DCL      7783--IMP-SIZ

PL6.E3A0      #004=VMA$ADD_UENTRY File=VMA$SUBR.:VMB6TSI                         WED 08/20/97 15:03 Page:167
     1026        1        /*T***********************************************************/
     1027        2        /*T*                                                         */
     1028        3        /*T* Copyright (c) Bull HN Information Systems Inc., 1997    */
     1029        4        /*T*                                                         */
     1030        5        /*T***********************************************************/
     1031        6        /*X* DMC,PLM=4,IND=4,CTI=2,DTI=0,ENI=0,ECI=0,CSI=0,DCI=4 */
     1032        7        /*X* DMC,PLM=4,IND=4,CTI=2,DTI=0,ENI=0,ECI=0,CSI=0,DCI=4 */
     1033        8        /*F*
     1034        9             NAME: VMA$ADD_UENTRY
     1035       10             PURPOSE:
     1036       11                   To add an UNRESOLVED address entry to the VM_ADD_HEAD structure.
     1037       12             DESCRIPTION:
     1038       13                   This routine has five parameters:
     1039       14
     1040       15                      NAME       - name of user for this address.
     1041       16                      FOLDER     - folder name of this address.
     1042       17                      PASSWORD   - password for this address.
     1043       18                      SITENAME   - sitename where this address resides.
     1044       19                      ERR#       - this address entry is an error.
     1045       20
     1046       21                   This routine will take these items, at least one is required,
     1047       22                   and create a new entry in the address structure described
     1048       23                   by VM_ADD_HEAD and VM_UADDRESS.
     1049       24
     1050       25                   This routine will not resue blocks on the FREED BLOCKS CHAIN.
     1051       26                   This routine was built to run at the maximum speed possible
     1052       27                   and therefore should only be used when space is not at
     1053       28                   a premium and a specific order is not necessary.
     1054       29                   VM_ADD_HEAD must be the last object in the data segment.
     1055       30                   Everything after it will be stomped on.
     1056       31        */
     1057       32        VMA$ADD_UENTRY: PROC (NAME,FOLDER,PASSWORD,SITENAME,ERR#,NAME_KEY) ALTRET;
     1058       33        /***** Include files *****/
     1059       34          %INCLUDE CP_6;
     1060     5593          %INCLUDE CP_6_SUBS;
     1061     6133          %INCLUDE VM_MACRO_C;
     1062     7401          %INCLUDE VM_SUBS_C;
PL6.E3A0      #004=VMA$ADD_UENTRY File=VMA$SUBR.:VMB6TSI                         WED 08/20/97 15:03 Page:168
     1063     7661          %INCLUDE VM_DATA_R;
     1064     8092          %INCLUDE XUM_MACRO_C;
     1065     8119            %include B$TABLES_C;
     1066     8227          %B$XL_UPPER(NAME=lower_UPPER);
     1067     8231        /***** Parameters *****/
     1068     8232          %TEXTC (NAME=NAME,STCLASS=" ");
     1069     8237    1   DCL FOLDER CHAR(%SIZ_FOLDER);
     1070     8238          %VLP_PASS (FPTN=PASSWORD,STCLASS=" ");
     1071     8251    1   DCL SITENAME CHAR(%SIZ_SITENAME);
     1072     8252    1   DCL ERR# BIT(1);
     1073     8253    1   DCL NAME_KEY CHAR(20);
     1074     8254    1   DCL TEMPBUF CHAR(%SIZ_LISTNAME) AUTO;   /* Same size as VM_LISTKEY.TEXT */
     1075     8255        /***** Mail structures *****/
     1076     8256          %VM_ADDTYPES;
     1077     8260          %VM_ADD_HEAD;
     1078     8289          %VM_UADDRESS (NAME=VM$UADDRESS,STCLASS=BASED);
     1079     8326          %VM_RADDRESS (NAME=VM$RADDRESS,STCLASS=BASED);
     1080     8361        /***** Local variables *****/
     1081     8362    1   DCL SITE CHAR(%SIZ_SITENAME);
     1082     8363    1   DCL PTR$ PTR STATIC;
     1083     8364    1   DCL LINK1$ PTR STATIC;
     1084     8365    1   DCL LINK2$ PTR STATIC;
     1085     8366    1   DCL CHARN CHAR(NAME.SIZ) BASED;
     1086     8367          %TEXTC (NAME=TEXTC,STCLASS=BASED);
     1087     8372          %XUM$MCB (NAME=X$MCB,STCLASS=STATIC);
     1088     8376        /***** External routines *****/
     1089     8377    1   DCL VMA$ENLARGE_SEGMENT ENTRY(2) ALTRET;
     1090     8378    1   DCL X$ALLOCATE ENTRY(1) ALTRET;
     1091     8379    1   DCL X$DEALLOCATE ENTRY(1) ALTRET;
     1092     8380        %EJECT;
PL6.E3A0      #004=VMA$ADD_UENTRY File=VMA$SUBR.:VMB6TSI                         WED 08/20/97 15:03 Page:169
     1093     8381        /*
     1094     8382             ***** Is this the first entry???
     1095     8383        */
     1096     8384    1       IF VM_ADD_HEAD.NUM_ENTRIES = 0
     1097     8385    1       THEN
     1098     8386    2       DO;
     1099     8387    2           VM_ADD_HEAD.HEAD$ = ADDR(NIL);
     1100     8388    2           VM_ADD_HEAD.FREE$ = ADDR(NIL);
     1101     8389    2           VM_ADD_HEAD.NEXT$ = ADDR(VM_ADD_HEAD.WORK_AREA);
     1102     8390    2       END;
     1103     8391        /*
     1104     8392             ***** Allocate space for this entry ...
     1105     8393        */
     1106     8394    1       X$MCB.TYPE = 0;
     1107     8395    1       X$MCB.MIN_SIZE = SIZEC(VM$RADDRESS);
     1108     8396    1       X$MCB.SEGMENT_BASE$ = VBASE(VM_ADDLIST_);
     1109     8397    1       X$MCB.HI_SEGMENT$ = VM_ADD_HEAD.NEXT$;
     1110     8398    1       X$MCB.FREE_HEAD$ = VM_ADD_HEAD.FREE$;
     1111     8399    1       X$MCB.WKSZ = (VBOUND(VM_ADDLIST_)+1)/4;
     1112     8400    1       X$MCB.SIZE = SIZEC(VM$UADDRESS) - SIZEC(VM$UADDRESS.USER_NAME.TEXT)
     1113     8401    1         + NAME.SIZ;
     1114     8402    1       CALL X$ALLOCATE (X$MCB)
     1115     8403    1       WHENALTRETURN
     1116     8404    2       DO;
     1117     8405    2           CALL VMA$ENLARGE_SEGMENT (VM_ADDLIST_) ALTRET(E_ADD);
     1118     8406    2           X$MCB.WKSZ = X$MCB.WKSZ + 1024;
     1119     8407    2           CALL X$ALLOCATE (X$MCB) ALTRET(E_ADD);
     1120     8408    2       END;
     1121     8409    1       PTR$ = X$MCB.ADDRESS$;
     1122     8410    1       VM_ADD_HEAD.NEXT$ = X$MCB.HI_SEGMENT$;
     1123     8411    1       VM_ADD_HEAD.FREE$ = X$MCB.FREE_HEAD$;
     1124     8412        /*
     1125     8413             ***** Add new entry ...
     1126     8414        */
     1127     8415    1       IF SITENAME = ' '
     1128     8416    1       THEN                            /* Supply local sitename */
     1129     8417    1           SITE = VM_SITENAME;
PL6.E3A0      #004=VMA$ADD_UENTRY File=VMA$SUBR.:VMB6TSI                         WED 08/20/97 15:03 Page:170
     1130     8418    1       ELSE
     1131     8419    1           SITE = SITENAME;
     1132     8420    1       PTR$ -> VM$UADDRESS.NEXT$ = VM_ADD_HEAD.HEAD$;
     1133     8421    1       PTR$ -> VM$UADDRESS.PREV$ = ADDR(NIL);
     1134     8422    1       PTR$ -> VM$UADDRESS.TYPE = %VM_ADD_UNRESOLVED;
     1135     8423    1       PTR$ -> VM$UADDRESS.USER_NAME.COUNT = NAME.SIZ;
     1136     8424    1       ADDR(PTR$ -> VM$UADDRESS.USER_NAME.TEXT) -> CHARN =NAME.TEXT;
     1137     8425    1       PTR$ -> VM$UADDRESS.FOLDER = FOLDER;
     1138     8426    1       PTR$ -> VM$UADDRESS.PASS = PASSWORD.PASS#;
     1139     8427    1       PTR$ -> VM$UADDRESS.SITENAME = SITE;
     1140     8428    1       PTR$ -> VM$UADDRESS.FLAGS = %NO#;
     1141     8429    1       IF ADDR(NAME_KEY) ~= ADDR(NIL)
     1142     8430    1       THEN                            /* Use supplied value */
     1143     8431    1           PTR$ -> VM$UADDRESS.NAME_KEY = NAME_KEY;
     1144     8432    1       ELSE                            /* Use blanks */
     1145     8433    1           PTR$ -> VM$UADDRESS.NAME_KEY = ' ';
     1146     8434    1       IF ADDR(ERR#) ~= ADDR(NIL)
     1147     8435    1       THEN
     1148     8436    1           PTR$ -> VM$UADDRESS.FLAGS.UNDEF# = ERR#;
     1149     8437    1       VM_ADD_HEAD.HEAD$ = PTR$;
     1150     8438        /*
     1151     8439             ***** Update NEXT$, NUM_ENTRIES and ADDRESS_SIZE ...
     1152     8440        */
     1153     8441    1       VM_ADD_HEAD.NEXT$ = X$MCB.HI_SEGMENT$;
     1154     8442    1       VM_ADD_HEAD.FREE$ = X$MCB.FREE_HEAD$;
     1155     8443    1       VM_ADD_HEAD.NUM_ENTRIES = VM_ADD_HEAD.NUM_ENTRIES + 1;
     1156     8444    1       VM_ADD_HEAD.ADDRESS_SIZE = POFFW(VM_ADD_HEAD.NEXT$,VM_ADDLIST$);
     1157     8445    1       IF PTR$ -> VM$UADDRESS.FLAGS.UNDEF#
     1158     8446    1       THEN
     1159     8447    1           VM_ADD_HEAD.FLAGS.ERR# = %YES#;
     1160     8448    1       RETURN;
     1161     8449        /**/
     1162     8450    1   E_ADD:
     1163     8451    1       ALTRETURN;
     1164     8452        %EJECT;
PL6.E3A0      #004=VMA$ADD_UENTRY File=VMA$SUBR.:VMB6TSI                         WED 08/20/97 15:03 Page:171
     1165     8453        /*F*
     1166     8454             NAME: VMA$ADD_UENTRY_SORTED
     1167     8455             PURPOSE:
     1168     8456                   To add an UNRESOLVED address entry in sorted order.
     1169     8457             DESCRIPTION:
     1170     8458                   This routine does about the same thing as VMA$ADD_UENTRY
     1171     8459                   except the entries are inserted into the address list
     1172     8460                   sorted by USER NAME. RESOLVED addresses (i.e. ACCT etc)
     1173     8461                   be sorted behind these entries.
     1174     8462
     1175     8463                   This routine will reuse blocks on the FREED BLOCKS CHAIN
     1176     8464                   pointed to by VM_ADD_HEAD.FREE$ whenever possible.
     1177     8465        */
     1178     8466        %EJECT;
PL6.E3A0      #004=VMA$ADD_UENTRY File=VMA$SUBR.:VMB6TSI                         WED 08/20/97 15:03 Page:172
     1179     8467    1   VMA$ADD_UENTRY_SORTED: ENTRY (NAME,FOLDER,PASSWORD,SITENAME,ERR#,NAME_KEY) ALTRET;
     1180     8468        /*
     1181     8469             ***** Is this the first entry???
     1182     8470        */
     1183     8471    1       IF VM_ADD_HEAD.NUM_ENTRIES = 0
     1184     8472    1       THEN
     1185     8473    2       DO;
     1186     8474    2           VM_ADD_HEAD.HEAD$ = ADDR(NIL);
     1187     8475    2           VM_ADD_HEAD.FREE$ = ADDR(NIL);
     1188     8476    2           VM_ADD_HEAD.NEXT$ = ADDR(VM_ADD_HEAD.WORK_AREA);
     1189     8477    2       END;
     1190     8478        /*
     1191     8479             ***** Check for duplicate entry
     1192     8480        */
     1193     8481    1       LINK1$ = VM_ADD_HEAD.HEAD$;
     1194     8482    2       DO WHILE LINK1$ ~= ADDR(NIL);
     1195     8483    2           IF LINK1$ -> VM$UADDRESS.TYPE = %VM_ADD_UNRESOLVED
     1196     8484    2             AND ADDR(LINK1$ -> VM$UADDRESS.USER_NAME) -> TEXTC.TEXT = NAME.TEXT
     1197     8485    2             AND LINK1$ -> VM$UADDRESS.FOLDER = FOLDER
     1198     8486    2             AND LINK1$ -> VM$UADDRESS.SITENAME = SITENAME
     1199     8487    2             AND LINK1$ -> VM$UADDRESS.PASS = PASSWORD.PASS#
     1200     8488    2           THEN
     1201     8489    2               IF ADDR(NAME_KEY) = ADDR(NIL)
     1202     8490    3               THEN DO;
     1203     8491    3                   IF LINK1$ -> VM$UADDRESS.NAME_KEY = ' '
     1204     8492    3                   THEN
     1205     8493    3                       RETURN;
     1206     8494    3               END;
     1207     8495    3               ELSE DO;
     1208     8496    3                   IF LINK1$ -> VM$UADDRESS.NAME_KEY = NAME_KEY
     1209     8497    3                   THEN
     1210     8498    3                       RETURN;
     1211     8499    3               END;
     1212     8500    2           LINK1$ = LINK1$ -> VM$UADDRESS.NEXT$;
     1213     8501    2       END;
     1214     8502        /*
     1215     8503             ***** Allocate space for this entry ...
PL6.E3A0      #004=VMA$ADD_UENTRY File=VMA$SUBR.:VMB6TSI                         WED 08/20/97 15:03 Page:173
     1216     8504        */
     1217     8505    1       X$MCB.TYPE = 0;
     1218     8506    1       X$MCB.MIN_SIZE = SIZEC(VM$RADDRESS);
     1219     8507    1       X$MCB.SEGMENT_BASE$ = VBASE(VM_ADDLIST_);
     1220     8508    1       X$MCB.HI_SEGMENT$ = VM_ADD_HEAD.NEXT$;
     1221     8509    1       X$MCB.FREE_HEAD$ = VM_ADD_HEAD.FREE$;
     1222     8510    1       X$MCB.WKSZ = (VBOUND(VM_ADDLIST_)+1)/4;
     1223     8511    1       X$MCB.SIZE = SIZEC(VM$UADDRESS) - SIZEC(VM$UADDRESS.USER_NAME.TEXT)
     1224     8512    1         + NAME.SIZ;
     1225     8513    1       CALL X$ALLOCATE (X$MCB)
     1226     8514    1       WHENALTRETURN
     1227     8515    2       DO;
     1228     8516    2           CALL VMA$ENLARGE_SEGMENT (VM_ADDLIST_) ALTRET(E_ADD);
     1229     8517    2           X$MCB.WKSZ = X$MCB.WKSZ + 1024;
     1230     8518    2           CALL X$ALLOCATE (X$MCB) ALTRET(E_ADD);
     1231     8519    2       END;
     1232     8520    1       PTR$ = X$MCB.ADDRESS$;
     1233     8521        /*
     1234     8522             ***** Add new entry ...
     1235     8523        */
     1236     8524    1       PTR$ -> VM$UADDRESS.NEXT$ = ADDR(NIL);
     1237     8525    1       PTR$ -> VM$UADDRESS.PREV$ = ADDR(NIL);
     1238     8526    1       PTR$ -> VM$UADDRESS.TYPE = %VM_ADD_UNRESOLVED;
     1239     8527    1       PTR$ -> VM$UADDRESS.USER_NAME.COUNT = NAME.SIZ;
     1240     8528    1       ADDR(PTR$ -> VM$UADDRESS.USER_NAME.TEXT) -> CHARN = NAME.TEXT;
     1241     8529    1       PTR$ -> VM$UADDRESS.FOLDER = FOLDER;
     1242     8530    1       PTR$ -> VM$UADDRESS.PASS = PASSWORD.PASS#;
     1243     8531    1       PTR$ -> VM$UADDRESS.SITENAME = SITENAME;
     1244     8532    1       PTR$ -> VM$UADDRESS.FLAGS = %NO#;
     1245     8533    1       IF ADDR(NAME_KEY) ~= ADDR(NIL)
     1246     8534    1       THEN                            /* Use supplied value */
     1247     8535    1           PTR$ -> VM$UADDRESS.NAME_KEY = NAME_KEY;
     1248     8536    1       ELSE                            /* Use blanks */
     1249     8537    1           PTR$ -> VM$UADDRESS.NAME_KEY = ' ';
     1250     8538    1       IF ADDR(ERR#) ~= ADDR(NIL)
     1251     8539    1       THEN
     1252     8540    1           PTR$ -> VM$UADDRESS.FLAGS.UNDEF# = ERR#;
PL6.E3A0      #004=VMA$ADD_UENTRY File=VMA$SUBR.:VMB6TSI                         WED 08/20/97 15:03 Page:174
     1253     8541        /*
     1254     8542             ***** First entry?
     1255     8543        */
     1256     8544    1       IF VM_ADD_HEAD.HEAD$ = ADDR(NIL)
     1257     8545    1       THEN
     1258     8546    2       DO;
     1259     8547    2           VM_ADD_HEAD.HEAD$ = PTR$;
     1260     8548    2           GOTO UPDATE_UENTRY;
     1261     8549    2       END;
     1262     8550        /*
     1263     8551             ***** New first entry?
     1264     8552        */
     1265     8553    1       IF VM_ADD_HEAD.HEAD$ -> VM$UADDRESS.TYPE = %VM_ADD_RESOLVED
     1266     8554    1         OR NAME.SIZ = 0
     1267     8555    1         OR (VM_ADD_HEAD.HEAD$ -> VM$UADDRESS.TYPE = %VM_ADD_UNRESOLVED
     1268     8556    1         AND VM_ADD_HEAD.HEAD$ -> VM$UADDRESS.USER_NAME.COUNT > 0
     1269     8557    1         AND VM_ADD_HEAD.HEAD$ -> VM$UADDRESS.USER_NAME.TEXT > NAME.TEXT)
     1270     8558    1       THEN
     1271     8559    2       DO;
     1272     8560    2           PTR$ -> VM$UADDRESS.NEXT$ = VM_ADD_HEAD.HEAD$;
     1273     8561    2           VM_ADD_HEAD.HEAD$ -> VM$UADDRESS.PREV$ = PTR$;
     1274     8562    2           VM_ADD_HEAD.HEAD$ = PTR$;
     1275     8563    2           GOTO UPDATE_UENTRY;
     1276     8564    2       END;
     1277     8565        /*
     1278     8566             ***** Insert at end of list ...
     1279     8567        */
     1280     8568    1       LINK1$ = VM_ADD_HEAD.HEAD$;
     1281     8569    1       LINK2$ = ADDR(NIL);               /* Points to previous entry */
     1282     8570    2       DO WHILE (LINK1$ ~= ADDR(NIL));
     1283     8571    2           IF LINK1$ -> VM$UADDRESS.TYPE = %VM_ADD_RESOLVED
     1284     8572    2           THEN                       /* Insert before this entry */
     1285     8573    2               EXIT;
     1286     8574    2           IF LINK1$ -> VM$UADDRESS.USER_NAME.COUNT > 0
     1287     8575    2             AND LINK1$ -> VM$UADDRESS.USER_NAME.TEXT > NAME.TEXT
     1288     8576    2           THEN                       /* Insert now */
     1289     8577    2               EXIT;
PL6.E3A0      #004=VMA$ADD_UENTRY File=VMA$SUBR.:VMB6TSI                         WED 08/20/97 15:03 Page:175
     1290     8578    2           LINK2$ = LINK1$;
     1291     8579    2           LINK1$ = LINK1$ -> VM$UADDRESS.NEXT$;
     1292     8580    2       END;                            /* Do while ... end */
     1293     8581    1       IF LINK1$ = ADDR(NIL)
     1294     8582    1       THEN                            /* Insert at end */
     1295     8583    2       DO;
     1296     8584    2           PTR$ -> VM$UADDRESS.PREV$ = LINK2$;
     1297     8585    2           LINK2$ -> VM$UADDRESS.NEXT$ = PTR$;
     1298     8586    2           GOTO UPDATE_UENTRY;
     1299     8587    2       END;
     1300     8588    1       ELSE                            /* Insert in middle */
     1301     8589    2       DO;
     1302     8590    2           PTR$ -> VM$UADDRESS.PREV$ = LINK1$ -> VM$UADDRESS.PREV$;
     1303     8591    2           PTR$ -> VM$UADDRESS.NEXT$ = LINK1$;
     1304     8592    2           LINK1$ -> VM$UADDRESS.PREV$ = PTR$;
     1305     8593    2           IF LINK2$ ~= ADDR(NIL)
     1306     8594    2           THEN                  /* Previous node exists */
     1307     8595    2               LINK2$ -> VM$UADDRESS.NEXT$ = PTR$;
     1308     8596    2       END;
     1309     8597        /*
     1310     8598             ***** Update NEXT$, NUM_ENTRIES and ADDRESS_SIZE ...
     1311     8599        */
     1312     8600    1   UPDATE_UENTRY:
     1313     8601    1       VM_ADD_HEAD.NEXT$ = X$MCB.HI_SEGMENT$;
     1314     8602    1       VM_ADD_HEAD.FREE$ = X$MCB.FREE_HEAD$;
     1315     8603    1       VM_ADD_HEAD.NUM_ENTRIES = VM_ADD_HEAD.NUM_ENTRIES + 1;
     1316     8604    1       VM_ADD_HEAD.ADDRESS_SIZE = POFFW(VM_ADD_HEAD.NEXT$,VM_ADDLIST$);
     1317     8605    1       IF PTR$ -> VM$UADDRESS.FLAGS.UNDEF#
     1318     8606    1       THEN
     1319     8607    1           VM_ADD_HEAD.FLAGS.ERR# = %YES#;
     1320     8608    1       RETURN;
     1321     8609        %EJECT;
PL6.E3A0      #004=VMA$ADD_UENTRY File=VMA$SUBR.:VMB6TSI                         WED 08/20/97 15:03 Page:176
     1322     8610        /*F*
     1323     8611             NAME: VMA$DEL_UENTRY
     1324     8612             PURPOSE:
     1325     8613                   To delete a UNRESOLVED address entry from the address list.
     1326     8614             DESCRIPTION:
     1327     8615                   This routine will search the address list described
     1328     8616                   by VM_ADD_HEAD to find an entry where the NAME,
     1329     8617                   FOLDER and SITENAME match the passed parameters.
     1330     8618                   All other parameters will be ignored.
     1331     8619
     1332     8620                   NOTE: An ALTRETURN means that the entry was not found.
     1333     8621        */
     1334     8622    1   VMA$DEL_UENTRY: ENTRY (NAME,FOLDER,PASSWORD,SITENAME,ERR#,NAME_KEY) ALTRET;
     1335     8623        /*
     1336     8624             ***** No entries?
     1337     8625        */
     1338     8626    1       IF VM_ADD_HEAD.NUM_ENTRIES = 0
     1339     8627    1       THEN
     1340     8628    1           ALTRETURN;
     1341     8629    1       IF SITENAME = ' '
     1342     8630    1       THEN                            /* Assume local site */
     1343     8631    1           SITE = VM_SITENAME;
     1344     8632    1       ELSE
     1345     8633    1           SITE = SITENAME;
     1346     8634        /*
     1347     8635             ***** Initialize ...
     1348     8636        */
     1349     8637    1       X$MCB.TYPE = 0;
     1350     8638    1       X$MCB.MIN_SIZE = SIZEC(VM$RADDRESS);
     1351     8639    1       X$MCB.SEGMENT_BASE$ = VBASE(VM_ADDLIST_);
     1352     8640    1       X$MCB.HI_SEGMENT$ = VM_ADD_HEAD.NEXT$;
     1353     8641    1       X$MCB.FREE_HEAD$ = VM_ADD_HEAD.FREE$;
     1354     8642    1       X$MCB.WKSZ = (VBOUND(VM_ADDLIST_)+1)/4;
     1355     8643        /*
     1356     8644             ***** Search ...
     1357     8645        */
     1358     8646    1       LINK2$ = ADDR(NIL);
PL6.E3A0      #004=VMA$ADD_UENTRY File=VMA$SUBR.:VMB6TSI                         WED 08/20/97 15:03 Page:177
     1359     8647    1       LINK1$ = VM_ADD_HEAD.HEAD$;
     1360     8648    2       DO WHILE (LINK1$ ~= ADDR(NIL));
     1361     8649    2           CALL XLATE(TEMPBUF,LOWER_UPPER,SUBSTR(LINK1$->VM$UADDRESS.
     1362     8650    2             USER_NAME.TEXT,0,LINK1$->VM$UADDRESS.USER_NAME.COUNT));
     1363     8651    2           IF SUBSTR(TEMPBUF,0,LINK1$->VM$UADDRESS.USER_NAME.COUNT) ~=
     1364     8652    2             SUBSTR(NAME.TEXT,0,NAME.SIZ)
     1365     8653    2           THEN
     1366     8654    2               GOTO END_DEL_SRCH;
     1367     8655    2           IF LINK1$ -> VM$UADDRESS.FOLDER ~= FOLDER
     1368     8656    2           THEN
     1369     8657    2               GOTO END_DEL_SRCH;
     1370     8658    2           IF LINK1$ -> VM$UADDRESS.SITENAME ~= ' '
     1371     8659    3           THEN DO;
     1372     8660    3               IF SITE ~= LINK1$ -> VM$UADDRESS.SITENAME
     1373     8661    3               THEN
     1374     8662    3                   GOTO END_DEL_SRCH;
     1375     8663    3           END;
     1376     8664    3           ELSE DO;
     1377     8665    3               IF SITE ~= VM_SITENAME
     1378     8666    3               THEN
     1379     8667    3                   GOTO END_DEL_SRCH;
     1380     8668    3           END;
     1381     8669        /*
     1382     8670             ***** Username, folder and sitename match.
     1383     8671                   Delete this entry ...
     1384     8672        */
     1385     8673    2           IF LINK2$ ~= ADDR(NIL)
     1386     8674    2           THEN
     1387     8675    2               LINK2$ -> VM$UADDRESS.NEXT$ =
     1388     8676    2                 LINK1$ -> VM$UADDRESS.NEXT$;
     1389     8677    2           ELSE
     1390     8678    2               VM_ADD_HEAD.HEAD$ = LINK1$ -> VM$UADDRESS.NEXT$;
     1391     8679    2           IF LINK1$ -> VM$UADDRESS.NEXT$ ~= ADDR(NIL)
     1392     8680    2           THEN
     1393     8681    2               LINK1$ -> VM$UADDRESS.NEXT$ ->
     1394     8682    2                 VM$UADDRESS.PREV$ = LINK2$;
     1395     8683    2           X$MCB.ADDRESS$ = LINK1$;
PL6.E3A0      #004=VMA$ADD_UENTRY File=VMA$SUBR.:VMB6TSI                         WED 08/20/97 15:03 Page:178
     1396     8684    2           CALL X$DEALLOCATE (X$MCB);
     1397     8685    2           VM_ADD_HEAD.NUM_ENTRIES = VM_ADD_HEAD.NUM_ENTRIES - 1;
     1398     8686    2           VM_ADD_HEAD.NEXT$ = X$MCB.HI_SEGMENT$;
     1399     8687    2           VM_ADD_HEAD.FREE$ = X$MCB.FREE_HEAD$;
     1400     8688    2           RETURN;
     1401     8689    2   END_DEL_SRCH:
     1402     8690    2           LINK2$ = LINK1$;
     1403     8691    2           LINK1$ = LINK1$ -> VM$UADDRESS.NEXT$;
     1404     8692    2       END;                            /* Do while ... end */
     1405     8693        /*
     1406     8694             ***** If we fell out,
     1407     8695                   then the entry must not be defined ...
     1408     8696        */
     1409     8697    1       ALTRETURN;
     1410     8698    1   END VMA$ADD_UENTRY;
     1411     8699        %EOD;

PL6.E3A0      #004=VMA$ADD_UENTRY File=VMA$SUBR.:VMB6TSI                         WED 08/20/97 15:03 Page:179
--  Include file information  --

   B$TABLES_C.:LIB_E05  cannot be made into a system file and is referenced.
   XUM_MACRO_C.:LIB_E05  is referenced.
   B_MACROS_C.:LIB_E05  is referenced.
   VM_DATA_R.:VMB6TOU  cannot be made into a system file and is referenced.
   VM_SUBS_C.:VMB6TOU  is referenced.
   VM_MACRO_C.:VMB6TOU  is referenced.
   CP_6_SUBS.:LIB_E05  is referenced.
   CP_6_C.:LIB_E05  is referenced.
   CP_6.:LIB_E05  cannot be made into a system file and is referenced.
      No diagnostics issued in procedure VMA$ADD_UENTRY.

   Procedure VMA$ADD_UENTRY requires 530 words for executable code.
   Procedure VMA$ADD_UENTRY requires 64 words of local(AUTO) storage.

PL6.E3A0      #004=VMA$ADD_UENTRY File=VMA$SUBR.:VMB6TSI                         WED 08/20/97 15:03 Page:180

 Object Unit name= VMA$ADD_UENTRY                             File name= VMA$SUBR.:VMB6TOU
 UTS= AUG 20 '97 15:03:05.20 WED                              Compiler= PL-6/E31         Sev=      00
 SharedLib= :SHARED_SYSTEM                                    Alt SharedLib=


    ****  Control sections  ****

 Sect   Type Bound  Init  Size OctSiz  Section name(segment info)
    0   DCB   even  none     0      0  M$UC
    1   DCB   even  none     0      0  M$MAIL_FILE
    2   DCB   even  none     0      0  M$MAIL_CENTRAL
    3   DCB   even  none     0      0  M$MAIL_GLOBAL
    4   DCB   even  none     0      0  M$WORK
    5   DCB   even  none     0      0  M$MAIL_COMGROUP
    6   DCB   even  none     0      0  M$DO
    7   DCB   even  none     0      0  M$LO
    8   DCB   even  none     0      0  M$ME
    9   DCB   even  none     0      0  M$NODE
   10   DCB   even  none     0      0  M$SI
   11   Data  even  none    12     14  VMA$ADD_UENTRY
   12   Proc  even  none   530   1022  VMA$ADD_UENTRY
   13  RoData even  none     5      5  VMA$ADD_UENTRY

    ****  Entry defs  ****

                              Check   Calling
                             calling  sequence
  Sect OctLoc Primary Altret sequence   type   Parms  Name
    12      0   yes    yes     yes      Std        6  VMA$ADD_UENTRY
    12    216          yes     yes      Std        6  VMA$ADD_UENTRY_SORTED
    12    636          yes     yes      Std        6  VMA$DEL_UENTRY
PL6.E3A0      #004=VMA$ADD_UENTRY File=VMA$SUBR.:VMB6TSI                         WED 08/20/97 15:03 Page:181

  ****  Entry refs  ****

         Check        Calling
        calling       sequence
Altret sequence SRef   type   Args  Name
         yes          ~proc      0 B_POINTER
 yes     yes           Std       1 X$ALLOCATE
 yes     yes           Std       1 X$DEALLOCATE
 yes     yes           Std       2 VMA$ENLARGE_SEGMENT
                       nStd      0 X66_AUTO_N
                       nStd      0 X66_ARET
                       nStd      0 X66_AALT

  ****  Data refs  ****

  Flags:  r = read only, s = secondary
Flgs Name                             Flgs Name                             Flgs Name
     M$UC                             r    VM_HEADER$                       r    VM_PROFILE$
r    VM_ADDLIST$                      r    VM_ADDREC$                       r    VM_WORK$
r    VM_SELECT$                       r    VM_PARSEAREA$                    r    VM_INPUT$
r    VM_COPY$                              VM_ENCLLIST$                          VM_ENCLREC$
     VM_HEADER_                            VM_HEADER_INIT_                       VM_PROFILE_
     VM_ADDLIST_                           VM_ADDREC_                            VM_WORK_
     VM_SELECT_                            VM_PARSEAREA_                         VM_INPUT_
     VM_COPY_                              VM_ENCLLIST_                          VM_ENCLREC_
     M$MAIL_FILE                           M$MAIL_CENTRAL                        M$MAIL_GLOBAL
     M$WORK                                M$MAIL_COMGROUP                       M$DO
     M$LO                                  M$ME                                  M$NODE
     M$SI                                  M$MAIL_FILE_NUM                       M$MAIL_CENTRAL_NUM
     M$MAIL_GLOBAL_NUM                     M$WORK_NUM                            M$MAIL_COMGROUP_NUM
     M$DO_NUM                              M$ME_NUM                              M$LO_NUM
     M$SI_NUM                              M$NODE_NUM                       r    B$JIT$
r    B$TCB$                                VM_MAIL_ACCT                          VM_NAME_MAP_NAME
     ERRMSG_FID                            VM_SEND_FILE_NAME                     VM_FORWARD_FILE_NAME
     VM_FORWARD_ENCL_NAME                  VM_FORWARD_FILE_PASS                  VM_MAILCG_NAME
     VM_SITENAME                           VM_MAILCG_SETSTA                 r    B$XL_UPPER$
PL6.E3A0      #004=VMA$ADD_UENTRY File=VMA$SUBR.:VMB6TSI                         WED 08/20/97 15:03 Page:182

  ****  Segment refs  ****

  Flags:  r = read only, s = secondary
Flgs Name                             Flgs Name                             Flgs Name
     NULLSID                               ISSID
PL6.E3A0      #004=VMA$ADD_UENTRY File=VMA$SUBR.:VMB6TSI                         WED 08/20/97 15:03 Page:183


     1026        1        /*T***********************************************************/
     1027        2        /*T*                                                         */
     1028        3        /*T* Copyright (c) Bull HN Information Systems Inc., 1997    */
     1029        4        /*T*                                                         */
     1030        5        /*T***********************************************************/
     1031        6        /*X* DMC,PLM=4,IND=4,CTI=2,DTI=0,ENI=0,ECI=0,CSI=0,DCI=4 */
     1032        7        /*X* DMC,PLM=4,IND=4,CTI=2,DTI=0,ENI=0,ECI=0,CSI=0,DCI=4 */
     1033        8        /*F*
     1034        9             NAME: VMA$ADD_UENTRY
     1035       10             PURPOSE:
     1036       11                   To add an UNRESOLVED address entry to the VM_ADD_HEAD structure.
     1037       12             DESCRIPTION:
     1038       13                   This routine has five parameters:
     1039       14
     1040       15                      NAME       - name of user for this address.
     1041       16                      FOLDER     - folder name of this address.
     1042       17                      PASSWORD   - password for this address.
     1043       18                      SITENAME   - sitename where this address resides.
     1044       19                      ERR#       - this address entry is an error.
     1045       20
     1046       21                   This routine will take these items, at least one is required,
     1047       22                   and create a new entry in the address structure described
     1048       23                   by VM_ADD_HEAD and VM_UADDRESS.
     1049       24
     1050       25                   This routine will not resue blocks on the FREED BLOCKS CHAIN.
     1051       26                   This routine was built to run at the maximum speed possible
     1052       27                   and therefore should only be used when space is not at
     1053       28                   a premium and a specific order is not necessary.
     1054       29                   VM_ADD_HEAD must be the last object in the data segment.
     1055       30                   Everything after it will be stomped on.
     1056       31        */
     1057       32        VMA$ADD_UENTRY: PROC (NAME,FOLDER,PASSWORD,SITENAME,ERR#,NAME_KEY) ALTRET;

     32 12 000000   000000 700200 xent  VMA$ADD_UEN* TSX0  ! X66_AUTO_N
        12 000001   000100 000006                    ZERO    64,6

PL6.E3A0      #004=VMA$ADD_UENTRY File=VMA$SUBR.:VMB6TSI                         WED 08/20/97 15:03 Page:184
     1058       33        /***** Include files *****/
     1059       34          %INCLUDE CP_6;
     1060     5593          %INCLUDE CP_6_SUBS;
     1061     6133          %INCLUDE VM_MACRO_C;
     1062     7401          %INCLUDE VM_SUBS_C;
     1063     7661          %INCLUDE VM_DATA_R;
     1064     8092          %INCLUDE XUM_MACRO_C;
     1065     8119            %include B$TABLES_C;
     1066     8227          %B$XL_UPPER(NAME=lower_UPPER);
     1067     8231        /***** Parameters *****/
     1068     8232          %TEXTC (NAME=NAME,STCLASS=" ");
     1069     8237    1   DCL FOLDER CHAR(%SIZ_FOLDER);
     1070     8238          %VLP_PASS (FPTN=PASSWORD,STCLASS=" ");
     1071     8251    1   DCL SITENAME CHAR(%SIZ_SITENAME);
     1072     8252    1   DCL ERR# BIT(1);
     1073     8253    1   DCL NAME_KEY CHAR(20);
     1074     8254    1   DCL TEMPBUF CHAR(%SIZ_LISTNAME) AUTO;   /* Same size as VM_LISTKEY.TEXT */
     1075     8255        /***** Mail structures *****/
     1076     8256          %VM_ADDTYPES;
     1077     8260          %VM_ADD_HEAD;
     1078     8289          %VM_UADDRESS (NAME=VM$UADDRESS,STCLASS=BASED);
     1079     8326          %VM_RADDRESS (NAME=VM$RADDRESS,STCLASS=BASED);
     1080     8361        /***** Local variables *****/
     1081     8362    1   DCL SITE CHAR(%SIZ_SITENAME);
     1082     8363    1   DCL PTR$ PTR STATIC;
     1083     8364    1   DCL LINK1$ PTR STATIC;
     1084     8365    1   DCL LINK2$ PTR STATIC;
     1085     8366    1   DCL CHARN CHAR(NAME.SIZ) BASED;
     1086     8367          %TEXTC (NAME=TEXTC,STCLASS=BASED);
     1087     8372          %XUM$MCB (NAME=X$MCB,STCLASS=STATIC);
     1088     8376        /***** External routines *****/
     1089     8377    1   DCL VMA$ENLARGE_SEGMENT ENTRY(2) ALTRET;
     1090     8378    1   DCL X$ALLOCATE ENTRY(1) ALTRET;
     1091     8379    1   DCL X$DEALLOCATE ENTRY(1) ALTRET;
     1092     8380        %EJECT;
PL6.E3A0      #004=VMA$ADD_UENTRY File=VMA$SUBR.:VMB6TSI                         WED 08/20/97 15:03 Page:185
     1093     8381        /*
     1094     8382             ***** Is this the first entry???
     1095     8383        */
     1096     8384    1       IF VM_ADD_HEAD.NUM_ENTRIES = 0

   8384 12 000002   000000 470400 xsym               LDP0    VM_ADDLIST$
        12 000003   000001 235100                    LDA     1,,PR0
        12 000004   000013 601000 12                 TNZ     s:8394

     1097     8385    1       THEN
     1098     8386    2       DO;

     1099     8387    2           VM_ADD_HEAD.HEAD$ = ADDR(NIL);

   8387 12 000005   000000 236000 13                 LDQ     0
        12 000006   000003 756100                    STQ     3,,PR0

     1100     8388    2           VM_ADD_HEAD.FREE$ = ADDR(NIL);

   8388 12 000007   000004 756100                    STQ     4,,PR0

     1101     8389    2           VM_ADD_HEAD.NEXT$ = ADDR(VM_ADD_HEAD.WORK_AREA);

   8389 12 000010   000000 236000 xsym               LDQ     VM_ADDLIST$
        12 000011   000006 036003                    ADLQ    6,DU
        12 000012   000005 756100                    STQ     5,,PR0

     1102     8390    2       END;

     1103     8391        /*
     1104     8392             ***** Allocate space for this entry ...
     1105     8393        */
     1106     8394    1       X$MCB.TYPE = 0;

   8394 12 000013   000010 450000 11                 STZ     X$MCB+5

     1107     8395    1       X$MCB.MIN_SIZE = SIZEC(VM$RADDRESS);
PL6.E3A0      #004=VMA$ADD_UENTRY File=VMA$SUBR.:VMB6TSI                         WED 08/20/97 15:03 Page:186

   8395 12 000014   000120 235007                    LDA     80,DL
        12 000015   000012 755000 11                 STA     X$MCB+7

     1108     8396    1       X$MCB.SEGMENT_BASE$ = VBASE(VM_ADDLIST_);

   8396 12 000016   000001 236000 xsym               LDQ     VM_ADDLIST_+1
        12 000017   000005 756000 11                 STQ     X$MCB+2

     1109     8397    1       X$MCB.HI_SEGMENT$ = VM_ADD_HEAD.NEXT$;

   8397 12 000020   000005 236100                    LDQ     5,,PR0
        12 000021   000006 756000 11                 STQ     X$MCB+3

     1110     8398    1       X$MCB.FREE_HEAD$ = VM_ADD_HEAD.FREE$;

   8398 12 000022   000004 236100                    LDQ     4,,PR0
        12 000023   000004 756000 11                 STQ     X$MCB+1

     1111     8399    1       X$MCB.WKSZ = (VBOUND(VM_ADDLIST_)+1)/4;

   8399 12 000024   000000 236000 xsym               LDQ     VM_ADDLIST_
        12 000025   000020 772000                    QRL     16
        12 000026   000001 036007                    ADLQ    1,DL
        12 000027   000002 772000                    QRL     2
        12 000030   000007 756000 11                 STQ     X$MCB+4

     1112     8400    1       X$MCB.SIZE = SIZEC(VM$UADDRESS) - SIZEC(VM$UADDRESS.USER_NAME.TEXT)

   8400 12 000031   200003 471500                    LDP1    @NAME,,AUTO
        12 000032   000100 101500                    MRL     fill='000'O
        12 000033   100000 000001                    ADSC9   0,,PR1                   cn=0,n=1
        12 000034   200076 000004                    ADSC9   SITE+3,,AUTO             cn=0,n=4
        12 000035   200076 236100                    LDQ     SITE+3,,AUTO
        12 000036   000110 036007                    ADLQ    72,DL
        12 000037   000011 756000 11                 STQ     X$MCB+6

PL6.E3A0      #004=VMA$ADD_UENTRY File=VMA$SUBR.:VMB6TSI                         WED 08/20/97 15:03 Page:187
     1113     8401    1         + NAME.SIZ;
     1114     8402    1       CALL X$ALLOCATE (X$MCB)

   8402 12 000040   000002 630400 13                 EPPR0   2
        12 000041   000001 631400 13                 EPPR1   1
        12 000042   000000 701000 xent               TSX1    X$ALLOCATE
        12 000043   000045 702000 12                 TSX2    s:8405
        12 000044   000060 710000 12                 TRA     s:8409

     1115     8403    1       WHENALTRETURN
     1116     8404    2       DO;

     1117     8405    2           CALL VMA$ENLARGE_SEGMENT (VM_ADDLIST_) ALTRET(E_ADD);

   8405 12 000045   000003 630400 13                 EPPR0   3
        12 000046   000001 631400 13                 EPPR1   1
        12 000047   000000 701000 xent               TSX1    VMA$ENLARGE_SEGMENT
        12 000050   000215 702000 12                 TSX2    E_ADD

     1118     8406    2           X$MCB.WKSZ = X$MCB.WKSZ + 1024;

   8406 12 000051   000007 235000 11                 LDA     X$MCB+4
        12 000052   002000 035007                    ADLA    1024,DL
        12 000053   000007 755000 11                 STA     X$MCB+4

     1119     8407    2           CALL X$ALLOCATE (X$MCB) ALTRET(E_ADD);

   8407 12 000054   000002 630400 13                 EPPR0   2
        12 000055   000001 631400 13                 EPPR1   1
        12 000056   000000 701000 xent               TSX1    X$ALLOCATE
        12 000057   000215 702000 12                 TSX2    E_ADD

     1120     8408    2       END;

     1121     8409    1       PTR$ = X$MCB.ADDRESS$;

   8409 12 000060   000003 236000 11                 LDQ     X$MCB
PL6.E3A0      #004=VMA$ADD_UENTRY File=VMA$SUBR.:VMB6TSI                         WED 08/20/97 15:03 Page:188
        12 000061   000000 756000 11                 STQ     PTR$

     1122     8410    1       VM_ADD_HEAD.NEXT$ = X$MCB.HI_SEGMENT$;

   8410 12 000062   000006 236000 11                 LDQ     X$MCB+3
        12 000063   000000 470400 xsym               LDP0    VM_ADDLIST$
        12 000064   000005 756100                    STQ     5,,PR0

     1123     8411    1       VM_ADD_HEAD.FREE$ = X$MCB.FREE_HEAD$;

   8411 12 000065   000004 236000 11                 LDQ     X$MCB+1
        12 000066   000004 756100                    STQ     4,,PR0

     1124     8412        /*
     1125     8413             ***** Add new entry ...
     1126     8414        */
     1127     8415    1       IF SITENAME = ' '

   8415 12 000067   200006 471500                    LDP1    @SITENAME,,AUTO
        12 000070   040000 106500                    CMPC    fill='040'O
        12 000071   100000 000010                    ADSC9   0,,PR1                   cn=0,n=8
        12 000072   000004 000001 13                 ADSC9   4                        cn=0,n=1
        12 000073   000100 601000 12                 TNZ     s:8419

     1128     8416    1       THEN                            /* Supply local sitename */
     1129     8417    1           SITE = VM_SITENAME;

   8417 12 000074   040100 100400                    MLR     fill='040'O
        12 000075   000000 000010 xsym               ADSC9   VM_SITENAME              cn=0,n=8
        12 000076   200073 000010                    ADSC9   SITE,,AUTO               cn=0,n=8
        12 000077   000103 710000 12                 TRA     s:8420

     1130     8418    1       ELSE
     1131     8419    1           SITE = SITENAME;

   8419 12 000100   040100 100500                    MLR     fill='040'O
        12 000101   100000 000010                    ADSC9   0,,PR1                   cn=0,n=8
PL6.E3A0      #004=VMA$ADD_UENTRY File=VMA$SUBR.:VMB6TSI                         WED 08/20/97 15:03 Page:189
        12 000102   200073 000010                    ADSC9   SITE,,AUTO               cn=0,n=8

     1132     8420    1       PTR$ -> VM$UADDRESS.NEXT$ = VM_ADD_HEAD.HEAD$;

   8420 12 000103   000003 236100                    LDQ     3,,PR0
        12 000104   000000 473400 11                 LDP3    PTR$
        12 000105   300000 756100                    STQ     0,,PR3

     1133     8421    1       PTR$ -> VM$UADDRESS.PREV$ = ADDR(NIL);

   8421 12 000106   000000 236000 13                 LDQ     0
        12 000107   300001 756100                    STQ     1,,PR3

     1134     8422    1       PTR$ -> VM$UADDRESS.TYPE = %VM_ADD_UNRESOLVED;

   8422 12 000110   000002 236003                    LDQ     2,DU
        12 000111   300002 552120                    STBQ    2,'20'O,PR3

     1135     8423    1       PTR$ -> VM$UADDRESS.USER_NAME.COUNT = NAME.SIZ;

   8423 12 000112   200003 474500                    LDP4    @NAME,,AUTO
        12 000113   000100 100500                    MLR     fill='000'O
        12 000114   400000 000001                    ADSC9   0,,PR4                   cn=0,n=1
        12 000115   300021 600001                    ADSC9   17,,PR3                  cn=3,n=1

     1136     8424    1       ADDR(PTR$ -> VM$UADDRESS.USER_NAME.TEXT) -> CHARN =NAME.TEXT;

   8424 12 000116   000100 101500                    MRL     fill='000'O
        12 000117   400000 000001                    ADSC9   0,,PR4                   cn=0,n=1
        12 000120   200076 000002                    ADSC9   SITE+3,,AUTO             cn=0,n=2
        12 000121   200076 220100                    LDX0    SITE+3,,AUTO
        12 000122   000100 101500                    MRL     fill='000'O
        12 000123   400000 000001                    ADSC9   0,,PR4                   cn=0,n=1
        12 000124   200077 000002                    ADSC9   SITE+4,,AUTO             cn=0,n=2
        12 000125   200077 221100                    LDX1    SITE+4,,AUTO
        12 000126   040140 100540                    MLR     fill='040'O
        12 000127   400000 200011                    ADSC9   0,,PR4                   cn=1,n=*X1
PL6.E3A0      #004=VMA$ADD_UENTRY File=VMA$SUBR.:VMB6TSI                         WED 08/20/97 15:03 Page:190
        12 000130   300022 000010                    ADSC9   18,,PR3                  cn=0,n=*X0

     1137     8425    1       PTR$ -> VM$UADDRESS.FOLDER = FOLDER;

   8425 12 000131   200004 475500                    LDP5    @FOLDER,,AUTO
        12 000132   040100 100500                    MLR     fill='040'O
        12 000133   500000 000031                    ADSC9   0,,PR5                   cn=0,n=25
        12 000134   300007 400031                    ADSC9   7,,PR3                   cn=2,n=25

     1138     8426    1       PTR$ -> VM$UADDRESS.PASS = PASSWORD.PASS#;

   8426 12 000135   200005 476500                    LDP6    @PASSWORD,,AUTO
        12 000136   040100 100500                    MLR     fill='040'O
        12 000137   600000 000010                    ADSC9   0,,PR6                   cn=0,n=8
        12 000140   300015 600010                    ADSC9   13,,PR3                  cn=3,n=8

     1139     8427    1       PTR$ -> VM$UADDRESS.SITENAME = SITE;

   8427 12 000141   040100 100500                    MLR     fill='040'O
        12 000142   200073 000010                    ADSC9   SITE,,AUTO               cn=0,n=8
        12 000143   300017 600010                    ADSC9   15,,PR3                  cn=3,n=8

     1140     8428    1       PTR$ -> VM$UADDRESS.FLAGS = %NO#;

   8428 12 000144   000000 236003                    LDQ     0,DU
        12 000145   300002 552140                    STBQ    2,'40'O,PR3

     1141     8429    1       IF ADDR(NAME_KEY) ~= ADDR(NIL)

   8429 12 000146   200010 236100                    LDQ     @NAME_KEY,,AUTO
        12 000147   000000 116000 13                 CMPQ    0
        12 000150   000156 600000 12                 TZE     s:8433

     1142     8430    1       THEN                            /* Use supplied value */
     1143     8431    1           PTR$ -> VM$UADDRESS.NAME_KEY = NAME_KEY;

   8431 12 000151   200010 477500                    LDP7    @NAME_KEY,,AUTO
PL6.E3A0      #004=VMA$ADD_UENTRY File=VMA$SUBR.:VMB6TSI                         WED 08/20/97 15:03 Page:191
        12 000152   040100 100500                    MLR     fill='040'O
        12 000153   700000 000024                    ADSC9   0,,PR7                   cn=0,n=20
        12 000154   300002 400024                    ADSC9   2,,PR3                   cn=2,n=20
        12 000155   000161 710000 12                 TRA     s:8434

     1144     8432    1       ELSE                            /* Use blanks */
     1145     8433    1           PTR$ -> VM$UADDRESS.NAME_KEY = ' ';

   8433 12 000156   040100 100400                    MLR     fill='040'O
        12 000157   000004 000001 13                 ADSC9   4                        cn=0,n=1
        12 000160   300002 400024                    ADSC9   2,,PR3                   cn=2,n=20

     1146     8434    1       IF ADDR(ERR#) ~= ADDR(NIL)

   8434 12 000161   200007 236100                    LDQ     @ERR#,,AUTO
        12 000162   000000 116000 13                 CMPQ    0
        12 000163   000170 600000 12                 TZE     s:8437

     1147     8435    1       THEN
     1148     8436    1           PTR$ -> VM$UADDRESS.FLAGS.UNDEF# = ERR#;

   8436 12 000164   200007 477500                    LDP7    @ERR#,,AUTO
        12 000165   003100 060500                    CSL     bolr='003'O
        12 000166   700000 000001                    BDSC    0,,PR7                   by=0,bit=0,n=1
        12 000167   300002 000001                    BDSC    2,,PR3                   by=0,bit=0,n=1

     1149     8437    1       VM_ADD_HEAD.HEAD$ = PTR$;

   8437 12 000170   000000 236000 11                 LDQ     PTR$
        12 000171   000003 756100                    STQ     3,,PR0

     1150     8438        /*
     1151     8439             ***** Update NEXT$, NUM_ENTRIES and ADDRESS_SIZE ...
     1152     8440        */
     1153     8441    1       VM_ADD_HEAD.NEXT$ = X$MCB.HI_SEGMENT$;

   8441 12 000172   000006 236000 11                 LDQ     X$MCB+3
PL6.E3A0      #004=VMA$ADD_UENTRY File=VMA$SUBR.:VMB6TSI                         WED 08/20/97 15:03 Page:192
        12 000173   000005 756100                    STQ     5,,PR0

     1154     8442    1       VM_ADD_HEAD.FREE$ = X$MCB.FREE_HEAD$;

   8442 12 000174   000004 236000 11                 LDQ     X$MCB+1
        12 000175   000004 756100                    STQ     4,,PR0

     1155     8443    1       VM_ADD_HEAD.NUM_ENTRIES = VM_ADD_HEAD.NUM_ENTRIES + 1;

   8443 12 000176   000001 235100                    LDA     1,,PR0
        12 000177   000001 035007                    ADLA    1,DL
        12 000200   000001 755100                    STA     1,,PR0

     1156     8444    1       VM_ADD_HEAD.ADDRESS_SIZE = POFFW(VM_ADD_HEAD.NEXT$,VM_ADDLIST$);

   8444 12 000201   000000 235000 xsym               LDA     VM_ADDLIST$
        12 000202   000022 771000                    ARL     18
        12 000203   200076 755100                    STA     SITE+3,,AUTO
        12 000204   000005 236100                    LDQ     5,,PR0
        12 000205   000022 772000                    QRL     18
        12 000206   200076 136100                    SBLQ    SITE+3,,AUTO
        12 000207   000000 756100                    STQ     0,,PR0

     1157     8445    1       IF PTR$ -> VM$UADDRESS.FLAGS.UNDEF#

   8445 12 000210   300002 234100                    SZN     2,,PR3
        12 000211   000214 605000 12                 TPL     s:8448

     1158     8446    1       THEN
     1159     8447    1           VM_ADD_HEAD.FLAGS.ERR# = %YES#;

   8447 12 000212   400000 236003                    LDQ     -131072,DU
        12 000213   000002 256100                    ORSQ    2,,PR0

     1160     8448    1       RETURN;

   8448 12 000214   000000 702200 xent               TSX2  ! X66_ARET
PL6.E3A0      #004=VMA$ADD_UENTRY File=VMA$SUBR.:VMB6TSI                         WED 08/20/97 15:03 Page:193

     1161     8449        /**/
     1162     8450    1   E_ADD:
     1163     8451    1       ALTRETURN;

   8451 12 000215   000000 702200 xent  E_ADD        TSX2  ! X66_AALT

     1164     8452        %EJECT;
PL6.E3A0      #004=VMA$ADD_UENTRY File=VMA$SUBR.:VMB6TSI                         WED 08/20/97 15:03 Page:194
     1165     8453        /*F*
     1166     8454             NAME: VMA$ADD_UENTRY_SORTED
     1167     8455             PURPOSE:
     1168     8456                   To add an UNRESOLVED address entry in sorted order.
     1169     8457             DESCRIPTION:
     1170     8458                   This routine does about the same thing as VMA$ADD_UENTRY
     1171     8459                   except the entries are inserted into the address list
     1172     8460                   sorted by USER NAME. RESOLVED addresses (i.e. ACCT etc)
     1173     8461                   be sorted behind these entries.
     1174     8462
     1175     8463                   This routine will reuse blocks on the FREED BLOCKS CHAIN
     1176     8464                   pointed to by VM_ADD_HEAD.FREE$ whenever possible.
     1177     8465        */
     1178     8466        %EJECT;
PL6.E3A0      #004=VMA$ADD_UENTRY File=VMA$SUBR.:VMB6TSI                         WED 08/20/97 15:03 Page:195
     1179     8467    1   VMA$ADD_UENTRY_SORTED: ENTRY (NAME,FOLDER,PASSWORD,SITENAME,ERR#,NAME_KEY) ALTRET;

   8467 12 000216   000000 700200 xent  VMA$ADD_UEN* TSX0  ! X66_AUTO_N
        12 000217   000100 000006                    ZERO    64,6

     1180     8468        /*
     1181     8469             ***** Is this the first entry???
     1182     8470        */
     1183     8471    1       IF VM_ADD_HEAD.NUM_ENTRIES = 0

   8471 12 000220   000000 470400 xsym               LDP0    VM_ADDLIST$
        12 000221   000001 235100                    LDA     1,,PR0
        12 000222   000231 601000 12                 TNZ     s:8481

     1184     8472    1       THEN
     1185     8473    2       DO;

     1186     8474    2           VM_ADD_HEAD.HEAD$ = ADDR(NIL);

   8474 12 000223   000000 236000 13                 LDQ     0
        12 000224   000003 756100                    STQ     3,,PR0

     1187     8475    2           VM_ADD_HEAD.FREE$ = ADDR(NIL);

   8475 12 000225   000004 756100                    STQ     4,,PR0

     1188     8476    2           VM_ADD_HEAD.NEXT$ = ADDR(VM_ADD_HEAD.WORK_AREA);

   8476 12 000226   000000 236000 xsym               LDQ     VM_ADDLIST$
        12 000227   000006 036003                    ADLQ    6,DU
        12 000230   000005 756100                    STQ     5,,PR0

     1189     8477    2       END;

     1190     8478        /*
     1191     8479             ***** Check for duplicate entry
     1192     8480        */
PL6.E3A0      #004=VMA$ADD_UENTRY File=VMA$SUBR.:VMB6TSI                         WED 08/20/97 15:03 Page:196
     1193     8481    1       LINK1$ = VM_ADD_HEAD.HEAD$;

   8481 12 000231   000003 236100                    LDQ     3,,PR0
        12 000232   000001 756000 11                 STQ     LINK1$

     1194     8482    2       DO WHILE LINK1$ ~= ADDR(NIL);

   8482 12 000233   000313 710000 12                 TRA     s:8501

     1195     8483    2           IF LINK1$ -> VM$UADDRESS.TYPE = %VM_ADD_UNRESOLVED

   8483 12 000234   000001 470400 11                 LDP0    LINK1$
        12 000235   000002 236100                    LDQ     2,,PR0
        12 000236   000777 376003                    ANQ     511,DU
        12 000237   000002 116003                    CMPQ    2,DU
        12 000240   000311 601000 12                 TNZ     s:8500
        12 000241   000021 720100                    LXL0    17,,PR0
        12 000242   000777 360003                    ANX0    511,DU
        12 000243   200003 471500                    LDP1    @NAME,,AUTO
        12 000244   000100 101500                    MRL     fill='000'O
        12 000245   100000 000001                    ADSC9   0,,PR1                   cn=0,n=1
        12 000246   200076 000002                    ADSC9   SITE+3,,AUTO             cn=0,n=2
        12 000247   200076 221100                    LDX1    SITE+3,,AUTO
        12 000250   040140 106540                    CMPC    fill='040'O
        12 000251   000022 000010                    ADSC9   18,,PR0                  cn=0,n=*X0
        12 000252   100000 200011                    ADSC9   0,,PR1                   cn=1,n=*X1
        12 000253   000311 601000 12                 TNZ     s:8500
        12 000254   200004 473500                    LDP3    @FOLDER,,AUTO
        12 000255   040100 106500                    CMPC    fill='040'O
        12 000256   000007 400031                    ADSC9   7,,PR0                   cn=2,n=25
        12 000257   300000 000031                    ADSC9   0,,PR3                   cn=0,n=25
        12 000260   000311 601000 12                 TNZ     s:8500
        12 000261   200006 474500                    LDP4    @SITENAME,,AUTO
        12 000262   040100 106500                    CMPC    fill='040'O
        12 000263   000017 600010                    ADSC9   15,,PR0                  cn=3,n=8
        12 000264   400000 000010                    ADSC9   0,,PR4                   cn=0,n=8
        12 000265   000311 601000 12                 TNZ     s:8500
PL6.E3A0      #004=VMA$ADD_UENTRY File=VMA$SUBR.:VMB6TSI                         WED 08/20/97 15:03 Page:197
        12 000266   200005 475500                    LDP5    @PASSWORD,,AUTO
        12 000267   040100 106500                    CMPC    fill='040'O
        12 000270   000015 600010                    ADSC9   13,,PR0                  cn=3,n=8
        12 000271   500000 000010                    ADSC9   0,,PR5                   cn=0,n=8
        12 000272   000311 601000 12                 TNZ     s:8500

     1196     8484    2             AND ADDR(LINK1$ -> VM$UADDRESS.USER_NAME) -> TEXTC.TEXT = NAME.TEXT
     1197     8485    2             AND LINK1$ -> VM$UADDRESS.FOLDER = FOLDER
     1198     8486    2             AND LINK1$ -> VM$UADDRESS.SITENAME = SITENAME
     1199     8487    2             AND LINK1$ -> VM$UADDRESS.PASS = PASSWORD.PASS#
     1200     8488    2           THEN
     1201     8489    2               IF ADDR(NAME_KEY) = ADDR(NIL)

   8489 12 000273   200010 236100                    LDQ     @NAME_KEY,,AUTO
        12 000274   000000 116000 13                 CMPQ    0
        12 000275   000303 601000 12                 TNZ     s:8496

     1202     8490    3               THEN DO;

     1203     8491    3                   IF LINK1$ -> VM$UADDRESS.NAME_KEY = ' '

   8491 12 000276   040000 106500                    CMPC    fill='040'O
        12 000277   000002 400024                    ADSC9   2,,PR0                   cn=2,n=20
        12 000300   000004 000001 13                 ADSC9   4                        cn=0,n=1
        12 000301   000311 601000 12                 TNZ     s:8500

     1204     8492    3                   THEN
     1205     8493    3                       RETURN;

   8493 12 000302   000000 702200 xent               TSX2  ! X66_ARET

     1206     8494    3               END;
     1207     8495    3               ELSE DO;

     1208     8496    3                   IF LINK1$ -> VM$UADDRESS.NAME_KEY = NAME_KEY

   8496 12 000303   200010 476500                    LDP6    @NAME_KEY,,AUTO
PL6.E3A0      #004=VMA$ADD_UENTRY File=VMA$SUBR.:VMB6TSI                         WED 08/20/97 15:03 Page:198
        12 000304   040100 106500                    CMPC    fill='040'O
        12 000305   000002 400024                    ADSC9   2,,PR0                   cn=2,n=20
        12 000306   600000 000024                    ADSC9   0,,PR6                   cn=0,n=20
        12 000307   000311 601000 12                 TNZ     s:8500

     1209     8497    3                   THEN
     1210     8498    3                       RETURN;

   8498 12 000310   000000 702200 xent               TSX2  ! X66_ARET

     1211     8499    3               END;
     1212     8500    2           LINK1$ = LINK1$ -> VM$UADDRESS.NEXT$;

   8500 12 000311   000000 236100                    LDQ     0,,PR0
        12 000312   000001 756000 11                 STQ     LINK1$

     1213     8501    2       END;

   8501 12 000313   000000 116000 13                 CMPQ    0
        12 000314   000234 601000 12                 TNZ     s:8483

     1214     8502        /*
     1215     8503             ***** Allocate space for this entry ...
     1216     8504        */
     1217     8505    1       X$MCB.TYPE = 0;

   8505 12 000315   000010 450000 11                 STZ     X$MCB+5

     1218     8506    1       X$MCB.MIN_SIZE = SIZEC(VM$RADDRESS);

   8506 12 000316   000120 235007                    LDA     80,DL
        12 000317   000012 755000 11                 STA     X$MCB+7

     1219     8507    1       X$MCB.SEGMENT_BASE$ = VBASE(VM_ADDLIST_);

   8507 12 000320   000001 236000 xsym               LDQ     VM_ADDLIST_+1
        12 000321   000005 756000 11                 STQ     X$MCB+2
PL6.E3A0      #004=VMA$ADD_UENTRY File=VMA$SUBR.:VMB6TSI                         WED 08/20/97 15:03 Page:199

     1220     8508    1       X$MCB.HI_SEGMENT$ = VM_ADD_HEAD.NEXT$;

   8508 12 000322   000000 470400 xsym               LDP0    VM_ADDLIST$
        12 000323   000005 236100                    LDQ     5,,PR0
        12 000324   000006 756000 11                 STQ     X$MCB+3

     1221     8509    1       X$MCB.FREE_HEAD$ = VM_ADD_HEAD.FREE$;

   8509 12 000325   000004 236100                    LDQ     4,,PR0
        12 000326   000004 756000 11                 STQ     X$MCB+1

     1222     8510    1       X$MCB.WKSZ = (VBOUND(VM_ADDLIST_)+1)/4;

   8510 12 000327   000000 236000 xsym               LDQ     VM_ADDLIST_
        12 000330   000020 772000                    QRL     16
        12 000331   000001 036007                    ADLQ    1,DL
        12 000332   000002 772000                    QRL     2
        12 000333   000007 756000 11                 STQ     X$MCB+4

     1223     8511    1       X$MCB.SIZE = SIZEC(VM$UADDRESS) - SIZEC(VM$UADDRESS.USER_NAME.TEXT)

   8511 12 000334   200003 471500                    LDP1    @NAME,,AUTO
        12 000335   000100 101500                    MRL     fill='000'O
        12 000336   100000 000001                    ADSC9   0,,PR1                   cn=0,n=1
        12 000337   200076 000004                    ADSC9   SITE+3,,AUTO             cn=0,n=4
        12 000340   200076 236100                    LDQ     SITE+3,,AUTO
        12 000341   000110 036007                    ADLQ    72,DL
        12 000342   000011 756000 11                 STQ     X$MCB+6

     1224     8512    1         + NAME.SIZ;
     1225     8513    1       CALL X$ALLOCATE (X$MCB)

   8513 12 000343   000002 630400 13                 EPPR0   2
        12 000344   000001 631400 13                 EPPR1   1
        12 000345   000000 701000 xent               TSX1    X$ALLOCATE
        12 000346   000350 702000 12                 TSX2    s:8516
PL6.E3A0      #004=VMA$ADD_UENTRY File=VMA$SUBR.:VMB6TSI                         WED 08/20/97 15:03 Page:200
        12 000347   000363 710000 12                 TRA     s:8520

     1226     8514    1       WHENALTRETURN
     1227     8515    2       DO;

     1228     8516    2           CALL VMA$ENLARGE_SEGMENT (VM_ADDLIST_) ALTRET(E_ADD);

   8516 12 000350   000003 630400 13                 EPPR0   3
        12 000351   000001 631400 13                 EPPR1   1
        12 000352   000000 701000 xent               TSX1    VMA$ENLARGE_SEGMENT
        12 000353   000215 702000 12                 TSX2    E_ADD

     1229     8517    2           X$MCB.WKSZ = X$MCB.WKSZ + 1024;

   8517 12 000354   000007 235000 11                 LDA     X$MCB+4
        12 000355   002000 035007                    ADLA    1024,DL
        12 000356   000007 755000 11                 STA     X$MCB+4

     1230     8518    2           CALL X$ALLOCATE (X$MCB) ALTRET(E_ADD);

   8518 12 000357   000002 630400 13                 EPPR0   2
        12 000360   000001 631400 13                 EPPR1   1
        12 000361   000000 701000 xent               TSX1    X$ALLOCATE
        12 000362   000215 702000 12                 TSX2    E_ADD

     1231     8519    2       END;

     1232     8520    1       PTR$ = X$MCB.ADDRESS$;

   8520 12 000363   000003 236000 11                 LDQ     X$MCB
        12 000364   000000 756000 11                 STQ     PTR$

     1233     8521        /*
     1234     8522             ***** Add new entry ...
     1235     8523        */
     1236     8524    1       PTR$ -> VM$UADDRESS.NEXT$ = ADDR(NIL);

PL6.E3A0      #004=VMA$ADD_UENTRY File=VMA$SUBR.:VMB6TSI                         WED 08/20/97 15:03 Page:201
   8524 12 000365   000000 236000 13                 LDQ     0
        12 000366   000000 470400 11                 LDP0    PTR$
        12 000367   000000 756100                    STQ     0,,PR0

     1237     8525    1       PTR$ -> VM$UADDRESS.PREV$ = ADDR(NIL);

   8525 12 000370   000000 236000 13                 LDQ     0
        12 000371   000001 756100                    STQ     1,,PR0

     1238     8526    1       PTR$ -> VM$UADDRESS.TYPE = %VM_ADD_UNRESOLVED;

   8526 12 000372   000002 236003                    LDQ     2,DU
        12 000373   000002 552120                    STBQ    2,'20'O,PR0

     1239     8527    1       PTR$ -> VM$UADDRESS.USER_NAME.COUNT = NAME.SIZ;

   8527 12 000374   200003 471500                    LDP1    @NAME,,AUTO
        12 000375   000100 100500                    MLR     fill='000'O
        12 000376   100000 000001                    ADSC9   0,,PR1                   cn=0,n=1
        12 000377   000021 600001                    ADSC9   17,,PR0                  cn=3,n=1

     1240     8528    1       ADDR(PTR$ -> VM$UADDRESS.USER_NAME.TEXT) -> CHARN = NAME.TEXT;

   8528 12 000400   000100 101500                    MRL     fill='000'O
        12 000401   100000 000001                    ADSC9   0,,PR1                   cn=0,n=1
        12 000402   200076 000002                    ADSC9   SITE+3,,AUTO             cn=0,n=2
        12 000403   200076 220100                    LDX0    SITE+3,,AUTO
        12 000404   000100 101500                    MRL     fill='000'O
        12 000405   100000 000001                    ADSC9   0,,PR1                   cn=0,n=1
        12 000406   200077 000002                    ADSC9   SITE+4,,AUTO             cn=0,n=2
        12 000407   200077 221100                    LDX1    SITE+4,,AUTO
        12 000410   040140 100540                    MLR     fill='040'O
        12 000411   100000 200011                    ADSC9   0,,PR1                   cn=1,n=*X1
        12 000412   000022 000010                    ADSC9   18,,PR0                  cn=0,n=*X0

     1241     8529    1       PTR$ -> VM$UADDRESS.FOLDER = FOLDER;

PL6.E3A0      #004=VMA$ADD_UENTRY File=VMA$SUBR.:VMB6TSI                         WED 08/20/97 15:03 Page:202
   8529 12 000413   200004 473500                    LDP3    @FOLDER,,AUTO
        12 000414   040100 100500                    MLR     fill='040'O
        12 000415   300000 000031                    ADSC9   0,,PR3                   cn=0,n=25
        12 000416   000007 400031                    ADSC9   7,,PR0                   cn=2,n=25

     1242     8530    1       PTR$ -> VM$UADDRESS.PASS = PASSWORD.PASS#;

   8530 12 000417   200005 474500                    LDP4    @PASSWORD,,AUTO
        12 000420   040100 100500                    MLR     fill='040'O
        12 000421   400000 000010                    ADSC9   0,,PR4                   cn=0,n=8
        12 000422   000015 600010                    ADSC9   13,,PR0                  cn=3,n=8

     1243     8531    1       PTR$ -> VM$UADDRESS.SITENAME = SITENAME;

   8531 12 000423   200006 475500                    LDP5    @SITENAME,,AUTO
        12 000424   040100 100500                    MLR     fill='040'O
        12 000425   500000 000010                    ADSC9   0,,PR5                   cn=0,n=8
        12 000426   000017 600010                    ADSC9   15,,PR0                  cn=3,n=8

     1244     8532    1       PTR$ -> VM$UADDRESS.FLAGS = %NO#;

   8532 12 000427   000000 236003                    LDQ     0,DU
        12 000430   000002 552140                    STBQ    2,'40'O,PR0

     1245     8533    1       IF ADDR(NAME_KEY) ~= ADDR(NIL)

   8533 12 000431   200010 236100                    LDQ     @NAME_KEY,,AUTO
        12 000432   000000 116000 13                 CMPQ    0
        12 000433   000441 600000 12                 TZE     s:8537

     1246     8534    1       THEN                            /* Use supplied value */
     1247     8535    1           PTR$ -> VM$UADDRESS.NAME_KEY = NAME_KEY;

   8535 12 000434   200010 476500                    LDP6    @NAME_KEY,,AUTO
        12 000435   040100 100500                    MLR     fill='040'O
        12 000436   600000 000024                    ADSC9   0,,PR6                   cn=0,n=20
        12 000437   000002 400024                    ADSC9   2,,PR0                   cn=2,n=20
PL6.E3A0      #004=VMA$ADD_UENTRY File=VMA$SUBR.:VMB6TSI                         WED 08/20/97 15:03 Page:203
        12 000440   000444 710000 12                 TRA     s:8538

     1248     8536    1       ELSE                            /* Use blanks */
     1249     8537    1           PTR$ -> VM$UADDRESS.NAME_KEY = ' ';

   8537 12 000441   040100 100400                    MLR     fill='040'O
        12 000442   000004 000001 13                 ADSC9   4                        cn=0,n=1
        12 000443   000002 400024                    ADSC9   2,,PR0                   cn=2,n=20

     1250     8538    1       IF ADDR(ERR#) ~= ADDR(NIL)

   8538 12 000444   200007 236100                    LDQ     @ERR#,,AUTO
        12 000445   000000 116000 13                 CMPQ    0
        12 000446   000453 600000 12                 TZE     s:8544

     1251     8539    1       THEN
     1252     8540    1           PTR$ -> VM$UADDRESS.FLAGS.UNDEF# = ERR#;

   8540 12 000447   200007 476500                    LDP6    @ERR#,,AUTO
        12 000450   003100 060500                    CSL     bolr='003'O
        12 000451   600000 000001                    BDSC    0,,PR6                   by=0,bit=0,n=1
        12 000452   000002 000001                    BDSC    2,,PR0                   by=0,bit=0,n=1

     1253     8541        /*
     1254     8542             ***** First entry?
     1255     8543        */
     1256     8544    1       IF VM_ADD_HEAD.HEAD$ = ADDR(NIL)

   8544 12 000453   000000 476400 xsym               LDP6    VM_ADDLIST$
        12 000454   600003 236100                    LDQ     3,,PR6
        12 000455   000000 116000 13                 CMPQ    0
        12 000456   000462 601000 12                 TNZ     s:8553

     1257     8545    1       THEN
     1258     8546    2       DO;

     1259     8547    2           VM_ADD_HEAD.HEAD$ = PTR$;
PL6.E3A0      #004=VMA$ADD_UENTRY File=VMA$SUBR.:VMB6TSI                         WED 08/20/97 15:03 Page:204

   8547 12 000457   000000 236000 11                 LDQ     PTR$
        12 000460   600003 756100                    STQ     3,,PR6

     1260     8548    2           GOTO UPDATE_UENTRY;

   8548 12 000461   000611 710000 12                 TRA     UPDATE_UENTRY

     1261     8549    2       END;
     1262     8550        /*
     1263     8551             ***** New first entry?
     1264     8552        */
     1265     8553    1       IF VM_ADD_HEAD.HEAD$ -> VM$UADDRESS.TYPE = %VM_ADD_RESOLVED

   8553 12 000462   600003 477500                    LDP7    3,,PR6
        12 000463   700002 236100                    LDQ     2,,PR7
        12 000464   000777 376003                    ANQ     511,DU
        12 000465   000001 116003                    CMPQ    1,DU
        12 000466   000515 600000 12                 TZE     s:8560
        12 000467   000100 101500                    MRL     fill='000'O
        12 000470   100000 000001                    ADSC9   0,,PR1                   cn=0,n=1
        12 000471   200076 000004                    ADSC9   SITE+3,,AUTO             cn=0,n=4
        12 000472   200076 236100                    LDQ     SITE+3,,AUTO
        12 000473   000000 116003                    CMPQ    0,DU
        12 000474   000515 600000 12                 TZE     s:8560
        12 000475   600003 477500                    LDP7    3,,PR6
        12 000476   700002 236100                    LDQ     2,,PR7
        12 000477   000777 376003                    ANQ     511,DU
        12 000500   000002 116003                    CMPQ    2,DU
        12 000501   000524 601000 12                 TNZ     s:8568
        12 000502   700021 236100                    LDQ     17,,PR7
        12 000503   000777 316007                    CANQ    511,DL
        12 000504   000524 600000 12                 TZE     s:8568
        12 000505   000100 101500                    MRL     fill='000'O
        12 000506   100000 000001                    ADSC9   0,,PR1                   cn=0,n=1
        12 000507   200077 000002                    ADSC9   SITE+4,,AUTO             cn=0,n=2
        12 000510   200077 220100                    LDX0    SITE+4,,AUTO
PL6.E3A0      #004=VMA$ADD_UENTRY File=VMA$SUBR.:VMB6TSI                         WED 08/20/97 15:03 Page:205
        12 000511   040100 106540                    CMPC    fill='040'O
        12 000512   100000 200010                    ADSC9   0,,PR1                   cn=1,n=*X0
        12 000513   700022 000310                    ADSC9   18,,PR7                  cn=0,n=200
        12 000514   000524 603000 12                 TRC     s:8568

     1266     8554    1         OR NAME.SIZ = 0
     1267     8555    1         OR (VM_ADD_HEAD.HEAD$ -> VM$UADDRESS.TYPE = %VM_ADD_UNRESOLVED
     1268     8556    1         AND VM_ADD_HEAD.HEAD$ -> VM$UADDRESS.USER_NAME.COUNT > 0
     1269     8557    1         AND VM_ADD_HEAD.HEAD$ -> VM$UADDRESS.USER_NAME.TEXT > NAME.TEXT)
     1270     8558    1       THEN
     1271     8559    2       DO;

     1272     8560    2           PTR$ -> VM$UADDRESS.NEXT$ = VM_ADD_HEAD.HEAD$;

   8560 12 000515   600003 236100                    LDQ     3,,PR6
        12 000516   000000 756100                    STQ     0,,PR0

     1273     8561    2           VM_ADD_HEAD.HEAD$ -> VM$UADDRESS.PREV$ = PTR$;

   8561 12 000517   600003 477500                    LDP7    3,,PR6
        12 000520   000000 236000 11                 LDQ     PTR$
        12 000521   700001 756100                    STQ     1,,PR7

     1274     8562    2           VM_ADD_HEAD.HEAD$ = PTR$;

   8562 12 000522   600003 756100                    STQ     3,,PR6

     1275     8563    2           GOTO UPDATE_UENTRY;

   8563 12 000523   000611 710000 12                 TRA     UPDATE_UENTRY

     1276     8564    2       END;
     1277     8565        /*
     1278     8566             ***** Insert at end of list ...
     1279     8567        */
     1280     8568    1       LINK1$ = VM_ADD_HEAD.HEAD$;

PL6.E3A0      #004=VMA$ADD_UENTRY File=VMA$SUBR.:VMB6TSI                         WED 08/20/97 15:03 Page:206
   8568 12 000524   600003 236100                    LDQ     3,,PR6
        12 000525   000001 756000 11                 STQ     LINK1$

     1281     8569    1       LINK2$ = ADDR(NIL);               /* Points to previous entry */

   8569 12 000526   000000 236000 13                 LDQ     0
        12 000527   000002 756000 11                 STQ     LINK2$

     1282     8570    2       DO WHILE (LINK1$ ~= ADDR(NIL));

   8570 12 000530   000556 710000 12                 TRA     s:8580

     1283     8571    2           IF LINK1$ -> VM$UADDRESS.TYPE = %VM_ADD_RESOLVED

   8571 12 000531   000001 470400 11                 LDP0    LINK1$
        12 000532   000002 236100                    LDQ     2,,PR0
        12 000533   000777 376003                    ANQ     511,DU
        12 000534   000001 116003                    CMPQ    1,DU
        12 000535   000561 600000 12                 TZE     s:8581

     1284     8572    2           THEN                       /* Insert before this entry */
     1285     8573    2               EXIT;
     1286     8574    2           IF LINK1$ -> VM$UADDRESS.USER_NAME.COUNT > 0

   8574 12 000536   000021 236100                    LDQ     17,,PR0
        12 000537   000777 316007                    CANQ    511,DL
        12 000540   000552 600000 12                 TZE     s:8578
        12 000541   200003 471500                    LDP1    @NAME,,AUTO
        12 000542   000100 101500                    MRL     fill='000'O
        12 000543   100000 000001                    ADSC9   0,,PR1                   cn=0,n=1
        12 000544   200076 000002                    ADSC9   SITE+3,,AUTO             cn=0,n=2
        12 000545   200076 220100                    LDX0    SITE+3,,AUTO
        12 000546   040100 106540                    CMPC    fill='040'O
        12 000547   100000 200010                    ADSC9   0,,PR1                   cn=1,n=*X0
        12 000550   000022 000310                    ADSC9   18,,PR0                  cn=0,n=200
        12 000551   000561 602000 12                 TNC     s:8581

PL6.E3A0      #004=VMA$ADD_UENTRY File=VMA$SUBR.:VMB6TSI                         WED 08/20/97 15:03 Page:207
     1287     8575    2             AND LINK1$ -> VM$UADDRESS.USER_NAME.TEXT > NAME.TEXT
     1288     8576    2           THEN                       /* Insert now */
     1289     8577    2               EXIT;
     1290     8578    2           LINK2$ = LINK1$;

   8578 12 000552   000001 236000 11                 LDQ     LINK1$
        12 000553   000002 756000 11                 STQ     LINK2$

     1291     8579    2           LINK1$ = LINK1$ -> VM$UADDRESS.NEXT$;

   8579 12 000554   000000 236100                    LDQ     0,,PR0
        12 000555   000001 756000 11                 STQ     LINK1$

     1292     8580    2       END;                            /* Do while ... end */

   8580 12 000556   000001 236000 11                 LDQ     LINK1$
        12 000557   000000 116000 13                 CMPQ    0
        12 000560   000531 601000 12                 TNZ     s:8571

     1293     8581    1       IF LINK1$ = ADDR(NIL)

   8581 12 000561   000001 236000 11                 LDQ     LINK1$
        12 000562   000000 116000 13                 CMPQ    0
        12 000563   000573 601000 12                 TNZ     s:8590

     1294     8582    1       THEN                            /* Insert at end */
     1295     8583    2       DO;

     1296     8584    2           PTR$ -> VM$UADDRESS.PREV$ = LINK2$;

   8584 12 000564   000002 236000 11                 LDQ     LINK2$
        12 000565   000000 470400 11                 LDP0    PTR$
        12 000566   000001 756100                    STQ     1,,PR0

     1297     8585    2           LINK2$ -> VM$UADDRESS.NEXT$ = PTR$;

   8585 12 000567   000000 236000 11                 LDQ     PTR$
PL6.E3A0      #004=VMA$ADD_UENTRY File=VMA$SUBR.:VMB6TSI                         WED 08/20/97 15:03 Page:208
        12 000570   000002 471400 11                 LDP1    LINK2$
        12 000571   100000 756100                    STQ     0,,PR1

     1298     8586    2           GOTO UPDATE_UENTRY;

   8586 12 000572   000611 710000 12                 TRA     UPDATE_UENTRY

     1299     8587    2       END;
     1300     8588    1       ELSE                            /* Insert in middle */
     1301     8589    2       DO;

     1302     8590    2           PTR$ -> VM$UADDRESS.PREV$ = LINK1$ -> VM$UADDRESS.PREV$;

   8590 12 000573   000001 470400 11                 LDP0    LINK1$
        12 000574   000001 236100                    LDQ     1,,PR0
        12 000575   000000 471400 11                 LDP1    PTR$
        12 000576   100001 756100                    STQ     1,,PR1

     1303     8591    2           PTR$ -> VM$UADDRESS.NEXT$ = LINK1$;

   8591 12 000577   000001 236000 11                 LDQ     LINK1$
        12 000600   100000 756100                    STQ     0,,PR1

     1304     8592    2           LINK1$ -> VM$UADDRESS.PREV$ = PTR$;

   8592 12 000601   000000 236000 11                 LDQ     PTR$
        12 000602   000001 756100                    STQ     1,,PR0

     1305     8593    2           IF LINK2$ ~= ADDR(NIL)

   8593 12 000603   000002 236000 11                 LDQ     LINK2$
        12 000604   000000 116000 13                 CMPQ    0
        12 000605   000611 600000 12                 TZE     UPDATE_UENTRY

     1306     8594    2           THEN                  /* Previous node exists */
     1307     8595    2               LINK2$ -> VM$UADDRESS.NEXT$ = PTR$;

PL6.E3A0      #004=VMA$ADD_UENTRY File=VMA$SUBR.:VMB6TSI                         WED 08/20/97 15:03 Page:209
   8595 12 000606   000000 236000 11                 LDQ     PTR$
        12 000607   000002 473400 11                 LDP3    LINK2$
        12 000610   300000 756100                    STQ     0,,PR3

     1308     8596    2       END;

     1309     8597        /*
     1310     8598             ***** Update NEXT$, NUM_ENTRIES and ADDRESS_SIZE ...
     1311     8599        */
     1312     8600    1   UPDATE_UENTRY:
     1313     8601    1       VM_ADD_HEAD.NEXT$ = X$MCB.HI_SEGMENT$;

   8601 12 000611   000006 236000 11    UPDATE_UENT* LDQ     X$MCB+3
        12 000612   000000 470400 xsym               LDP0    VM_ADDLIST$
        12 000613   000005 756100                    STQ     5,,PR0

     1314     8602    1       VM_ADD_HEAD.FREE$ = X$MCB.FREE_HEAD$;

   8602 12 000614   000004 236000 11                 LDQ     X$MCB+1
        12 000615   000004 756100                    STQ     4,,PR0

     1315     8603    1       VM_ADD_HEAD.NUM_ENTRIES = VM_ADD_HEAD.NUM_ENTRIES + 1;

   8603 12 000616   000001 235100                    LDA     1,,PR0
        12 000617   000001 035007                    ADLA    1,DL
        12 000620   000001 755100                    STA     1,,PR0

     1316     8604    1       VM_ADD_HEAD.ADDRESS_SIZE = POFFW(VM_ADD_HEAD.NEXT$,VM_ADDLIST$);

   8604 12 000621   000000 235000 xsym               LDA     VM_ADDLIST$
        12 000622   000022 771000                    ARL     18
        12 000623   200076 755100                    STA     SITE+3,,AUTO
        12 000624   000005 236100                    LDQ     5,,PR0
        12 000625   000022 772000                    QRL     18
        12 000626   200076 136100                    SBLQ    SITE+3,,AUTO
        12 000627   000000 756100                    STQ     0,,PR0

PL6.E3A0      #004=VMA$ADD_UENTRY File=VMA$SUBR.:VMB6TSI                         WED 08/20/97 15:03 Page:210
     1317     8605    1       IF PTR$ -> VM$UADDRESS.FLAGS.UNDEF#

   8605 12 000630   000000 471400 11                 LDP1    PTR$
        12 000631   100002 234100                    SZN     2,,PR1
        12 000632   000635 605000 12                 TPL     s:8608

     1318     8606    1       THEN
     1319     8607    1           VM_ADD_HEAD.FLAGS.ERR# = %YES#;

   8607 12 000633   400000 236003                    LDQ     -131072,DU
        12 000634   000002 256100                    ORSQ    2,,PR0

     1320     8608    1       RETURN;

   8608 12 000635   000000 702200 xent               TSX2  ! X66_ARET

     1321     8609        %EJECT;
PL6.E3A0      #004=VMA$ADD_UENTRY File=VMA$SUBR.:VMB6TSI                         WED 08/20/97 15:03 Page:211
     1322     8610        /*F*
     1323     8611             NAME: VMA$DEL_UENTRY
     1324     8612             PURPOSE:
     1325     8613                   To delete a UNRESOLVED address entry from the address list.
     1326     8614             DESCRIPTION:
     1327     8615                   This routine will search the address list described
     1328     8616                   by VM_ADD_HEAD to find an entry where the NAME,
     1329     8617                   FOLDER and SITENAME match the passed parameters.
     1330     8618                   All other parameters will be ignored.
     1331     8619
     1332     8620                   NOTE: An ALTRETURN means that the entry was not found.
     1333     8621        */
     1334     8622    1   VMA$DEL_UENTRY: ENTRY (NAME,FOLDER,PASSWORD,SITENAME,ERR#,NAME_KEY) ALTRET;

   8622 12 000636   000000 700200 xent  VMA$DEL_UEN* TSX0  ! X66_AUTO_N
        12 000637   000100 000006                    ZERO    64,6

     1335     8623        /*
     1336     8624             ***** No entries?
     1337     8625        */
     1338     8626    1       IF VM_ADD_HEAD.NUM_ENTRIES = 0

   8626 12 000640   000000 470400 xsym               LDP0    VM_ADDLIST$
        12 000641   000001 235100                    LDA     1,,PR0
        12 000642   000644 601000 12                 TNZ     s:8629

     1339     8627    1       THEN
     1340     8628    1           ALTRETURN;

   8628 12 000643   000000 702200 xent               TSX2  ! X66_AALT

     1341     8629    1       IF SITENAME = ' '

   8629 12 000644   200006 471500                    LDP1    @SITENAME,,AUTO
        12 000645   040000 106500                    CMPC    fill='040'O
        12 000646   100000 000010                    ADSC9   0,,PR1                   cn=0,n=8
        12 000647   000004 000001 13                 ADSC9   4                        cn=0,n=1
PL6.E3A0      #004=VMA$ADD_UENTRY File=VMA$SUBR.:VMB6TSI                         WED 08/20/97 15:03 Page:212
        12 000650   000655 601000 12                 TNZ     s:8633

     1342     8630    1       THEN                            /* Assume local site */
     1343     8631    1           SITE = VM_SITENAME;

   8631 12 000651   040100 100400                    MLR     fill='040'O
        12 000652   000000 000010 xsym               ADSC9   VM_SITENAME              cn=0,n=8
        12 000653   200073 000010                    ADSC9   SITE,,AUTO               cn=0,n=8
        12 000654   000660 710000 12                 TRA     s:8637

     1344     8632    1       ELSE
     1345     8633    1           SITE = SITENAME;

   8633 12 000655   040100 100500                    MLR     fill='040'O
        12 000656   100000 000010                    ADSC9   0,,PR1                   cn=0,n=8
        12 000657   200073 000010                    ADSC9   SITE,,AUTO               cn=0,n=8

     1346     8634        /*
     1347     8635             ***** Initialize ...
     1348     8636        */
     1349     8637    1       X$MCB.TYPE = 0;

   8637 12 000660   000010 450000 11                 STZ     X$MCB+5

     1350     8638    1       X$MCB.MIN_SIZE = SIZEC(VM$RADDRESS);

   8638 12 000661   000120 235007                    LDA     80,DL
        12 000662   000012 755000 11                 STA     X$MCB+7

     1351     8639    1       X$MCB.SEGMENT_BASE$ = VBASE(VM_ADDLIST_);

   8639 12 000663   000001 236000 xsym               LDQ     VM_ADDLIST_+1
        12 000664   000005 756000 11                 STQ     X$MCB+2

     1352     8640    1       X$MCB.HI_SEGMENT$ = VM_ADD_HEAD.NEXT$;

   8640 12 000665   000005 236100                    LDQ     5,,PR0
PL6.E3A0      #004=VMA$ADD_UENTRY File=VMA$SUBR.:VMB6TSI                         WED 08/20/97 15:03 Page:213
        12 000666   000006 756000 11                 STQ     X$MCB+3

     1353     8641    1       X$MCB.FREE_HEAD$ = VM_ADD_HEAD.FREE$;

   8641 12 000667   000004 236100                    LDQ     4,,PR0
        12 000670   000004 756000 11                 STQ     X$MCB+1

     1354     8642    1       X$MCB.WKSZ = (VBOUND(VM_ADDLIST_)+1)/4;

   8642 12 000671   000000 236000 xsym               LDQ     VM_ADDLIST_
        12 000672   000020 772000                    QRL     16
        12 000673   000001 036007                    ADLQ    1,DL
        12 000674   000002 772000                    QRL     2
        12 000675   000007 756000 11                 STQ     X$MCB+4

     1355     8643        /*
     1356     8644             ***** Search ...
     1357     8645        */
     1358     8646    1       LINK2$ = ADDR(NIL);

   8646 12 000676   000000 236000 13                 LDQ     0
        12 000677   000002 756000 11                 STQ     LINK2$

     1359     8647    1       LINK1$ = VM_ADD_HEAD.HEAD$;

   8647 12 000700   000003 236100                    LDQ     3,,PR0
        12 000701   000001 756000 11                 STQ     LINK1$

     1360     8648    2       DO WHILE (LINK1$ ~= ADDR(NIL));

   8648 12 000702   001017 710000 12                 TRA     s:8692

     1361     8649    2           CALL XLATE(TEMPBUF,LOWER_UPPER,SUBSTR(LINK1$->VM$UADDRESS.

   8649 12 000703   000001 470400 11                 LDP0    LINK1$
        12 000704   000021 720100                    LXL0    17,,PR0
        12 000705   000777 360003                    ANX0    511,DU
PL6.E3A0      #004=VMA$ADD_UENTRY File=VMA$SUBR.:VMB6TSI                         WED 08/20/97 15:03 Page:214
        12 000706   000000 471400 xsym               LDP1    B$XL_UPPER$
        12 000707   040100 160540                    MVT     fill='040'O
        12 000710   000022 000010                    ADSC9   18,,PR0                  cn=0,n=*X0
        12 000711   200011 000310                    ADSC9   TEMPBUF,,AUTO            cn=0,n=200
        12 000712   100000 000100                    ARG     0,,PR1

     1362     8650    2             USER_NAME.TEXT,0,LINK1$->VM$UADDRESS.USER_NAME.COUNT));
     1363     8651    2           IF SUBSTR(TEMPBUF,0,LINK1$->VM$UADDRESS.USER_NAME.COUNT) ~=

   8651 12 000713   000021 720100                    LXL0    17,,PR0
        12 000714   000777 360003                    ANX0    511,DU
        12 000715   200003 473500                    LDP3    @NAME,,AUTO
        12 000716   000100 101500                    MRL     fill='000'O
        12 000717   300000 000001                    ADSC9   0,,PR3                   cn=0,n=1
        12 000720   200076 000002                    ADSC9   SITE+3,,AUTO             cn=0,n=2
        12 000721   200076 221100                    LDX1    SITE+3,,AUTO
        12 000722   000100 101500                    MRL     fill='000'O
        12 000723   300000 000001                    ADSC9   0,,PR3                   cn=0,n=1
        12 000724   200077 000002                    ADSC9   SITE+4,,AUTO             cn=0,n=2
        12 000725   200077 222100                    LDX2    SITE+4,,AUTO
        12 000726   040140 106540                    CMPC    fill='040'O
        12 000727   200011 000010                    ADSC9   TEMPBUF,,AUTO            cn=0,n=*X0
        12 000730   300000 200012                    ADSC9   0,,PR3                   cn=1,n=*X2
        12 000731   001013 601000 12                 TNZ     END_DEL_SRCH

     1364     8652    2             SUBSTR(NAME.TEXT,0,NAME.SIZ)
     1365     8653    2           THEN
     1366     8654    2               GOTO END_DEL_SRCH;
     1367     8655    2           IF LINK1$ -> VM$UADDRESS.FOLDER ~= FOLDER

   8655 12 000732   200004 474500                    LDP4    @FOLDER,,AUTO
        12 000733   040100 106500                    CMPC    fill='040'O
        12 000734   000007 400031                    ADSC9   7,,PR0                   cn=2,n=25
        12 000735   400000 000031                    ADSC9   0,,PR4                   cn=0,n=25
        12 000736   001013 601000 12                 TNZ     END_DEL_SRCH

     1368     8656    2           THEN
PL6.E3A0      #004=VMA$ADD_UENTRY File=VMA$SUBR.:VMB6TSI                         WED 08/20/97 15:03 Page:215
     1369     8657    2               GOTO END_DEL_SRCH;
     1370     8658    2           IF LINK1$ -> VM$UADDRESS.SITENAME ~= ' '

   8658 12 000737   040000 106500                    CMPC    fill='040'O
        12 000740   000017 600010                    ADSC9   15,,PR0                  cn=3,n=8
        12 000741   000004 000001 13                 ADSC9   4                        cn=0,n=1
        12 000742   000750 600000 12                 TZE     s:8665

     1371     8659    3           THEN DO;

     1372     8660    3               IF SITE ~= LINK1$ -> VM$UADDRESS.SITENAME

   8660 12 000743   040100 106500                    CMPC    fill='040'O
        12 000744   200073 000010                    ADSC9   SITE,,AUTO               cn=0,n=8
        12 000745   000017 600010                    ADSC9   15,,PR0                  cn=3,n=8
        12 000746   001013 601000 12                 TNZ     END_DEL_SRCH

     1373     8661    3               THEN
     1374     8662    3                   GOTO END_DEL_SRCH;
     1375     8663    3           END;

   8663 12 000747   000754 710000 12                 TRA     s:8673

     1376     8664    3           ELSE DO;

     1377     8665    3               IF SITE ~= VM_SITENAME

   8665 12 000750   040000 106500                    CMPC    fill='040'O
        12 000751   200073 000010                    ADSC9   SITE,,AUTO               cn=0,n=8
        12 000752   000000 000010 xsym               ADSC9   VM_SITENAME              cn=0,n=8
        12 000753   001013 601000 12                 TNZ     END_DEL_SRCH

     1378     8666    3               THEN
     1379     8667    3                   GOTO END_DEL_SRCH;
     1380     8668    3           END;

     1381     8669        /*
PL6.E3A0      #004=VMA$ADD_UENTRY File=VMA$SUBR.:VMB6TSI                         WED 08/20/97 15:03 Page:216
     1382     8670             ***** Username, folder and sitename match.
     1383     8671                   Delete this entry ...
     1384     8672        */
     1385     8673    2           IF LINK2$ ~= ADDR(NIL)

   8673 12 000754   000002 236000 11                 LDQ     LINK2$
        12 000755   000000 116000 13                 CMPQ    0
        12 000756   000763 600000 12                 TZE     s:8678

     1386     8674    2           THEN
     1387     8675    2               LINK2$ -> VM$UADDRESS.NEXT$ =

   8675 12 000757   000000 236100                    LDQ     0,,PR0
        12 000760   000002 475400 11                 LDP5    LINK2$
        12 000761   500000 756100                    STQ     0,,PR5
        12 000762   000766 710000 12                 TRA     s:8679

     1388     8676    2                 LINK1$ -> VM$UADDRESS.NEXT$;
     1389     8677    2           ELSE
     1390     8678    2               VM_ADD_HEAD.HEAD$ = LINK1$ -> VM$UADDRESS.NEXT$;

   8678 12 000763   000000 236100                    LDQ     0,,PR0
        12 000764   000000 475400 xsym               LDP5    VM_ADDLIST$
        12 000765   500003 756100                    STQ     3,,PR5

     1391     8679    2           IF LINK1$ -> VM$UADDRESS.NEXT$ ~= ADDR(NIL)

   8679 12 000766   000000 236100                    LDQ     0,,PR0
        12 000767   000000 116000 13                 CMPQ    0
        12 000770   000774 600000 12                 TZE     s:8683

     1392     8680    2           THEN
     1393     8681    2               LINK1$ -> VM$UADDRESS.NEXT$ ->

   8681 12 000771   000000 475500                    LDP5    0,,PR0
        12 000772   000002 236000 11                 LDQ     LINK2$
        12 000773   500001 756100                    STQ     1,,PR5
PL6.E3A0      #004=VMA$ADD_UENTRY File=VMA$SUBR.:VMB6TSI                         WED 08/20/97 15:03 Page:217

     1394     8682    2                 VM$UADDRESS.PREV$ = LINK2$;
     1395     8683    2           X$MCB.ADDRESS$ = LINK1$;

   8683 12 000774   000001 236000 11                 LDQ     LINK1$
        12 000775   000003 756000 11                 STQ     X$MCB

     1396     8684    2           CALL X$DEALLOCATE (X$MCB);

   8684 12 000776   000002 630400 13                 EPPR0   2
        12 000777   000001 631400 13                 EPPR1   1
        12 001000   000000 701000 xent               TSX1    X$DEALLOCATE
        12 001001   000000 011000                    NOP     0

     1397     8685    2           VM_ADD_HEAD.NUM_ENTRIES = VM_ADD_HEAD.NUM_ENTRIES - 1;

   8685 12 001002   000000 470400 xsym               LDP0    VM_ADDLIST$
        12 001003   000001 235100                    LDA     1,,PR0
        12 001004   000001 135007                    SBLA    1,DL
        12 001005   000001 755100                    STA     1,,PR0

     1398     8686    2           VM_ADD_HEAD.NEXT$ = X$MCB.HI_SEGMENT$;

   8686 12 001006   000006 236000 11                 LDQ     X$MCB+3
        12 001007   000005 756100                    STQ     5,,PR0

     1399     8687    2           VM_ADD_HEAD.FREE$ = X$MCB.FREE_HEAD$;

   8687 12 001010   000004 236000 11                 LDQ     X$MCB+1
        12 001011   000004 756100                    STQ     4,,PR0

     1400     8688    2           RETURN;

   8688 12 001012   000000 702200 xent               TSX2  ! X66_ARET

     1401     8689    2   END_DEL_SRCH:
     1402     8690    2           LINK2$ = LINK1$;
PL6.E3A0      #004=VMA$ADD_UENTRY File=VMA$SUBR.:VMB6TSI                         WED 08/20/97 15:03 Page:218

   8690 12 001013   000001 236000 11    END_DEL_SRCH LDQ     LINK1$
        12 001014   000002 756000 11                 STQ     LINK2$

     1403     8691    2           LINK1$ = LINK1$ -> VM$UADDRESS.NEXT$;

   8691 12 001015   000000 236100                    LDQ     0,,PR0
        12 001016   000001 756000 11                 STQ     LINK1$

     1404     8692    2       END;                            /* Do while ... end */

   8692 12 001017   000000 116000 13                 CMPQ    0
        12 001020   000703 601000 12                 TNZ     s:8649

     1405     8693        /*
     1406     8694             ***** If we fell out,
     1407     8695                   then the entry must not be defined ...
     1408     8696        */
     1409     8697    1       ALTRETURN;

   8697 12 001021   000000 702200 xent               TSX2  ! X66_AALT

X$MCB
 Sect OctLoc
  11     003   ****** ******   ****** ******   ****** ******   ****** ******    ................

(unnamed)
 Sect OctLoc
  13     000   000000 006014   000001 000000   000003 006000   000000 006000    ................
  13     004   040040 040040
     1410     8698    1   END VMA$ADD_UENTRY;
     1411     8699        %EOD;

PL6.E3A0      #004=VMA$ADD_UENTRY File=VMA$SUBR.:VMB6TSI                         WED 08/20/97 15:03 Page:219
--  Include file information  --

   B$TABLES_C.:LIB_E05  cannot be made into a system file and is referenced.
   XUM_MACRO_C.:LIB_E05  is referenced.
   B_MACROS_C.:LIB_E05  is referenced.
   VM_DATA_R.:VMB6TOU  cannot be made into a system file and is referenced.
   VM_SUBS_C.:VMB6TOU  is referenced.
   VM_MACRO_C.:VMB6TOU  is referenced.
   CP_6_SUBS.:LIB_E05  is referenced.
   CP_6_C.:LIB_E05  is referenced.
   CP_6.:LIB_E05  cannot be made into a system file and is referenced.
      No diagnostics issued in procedure VMA$ADD_UENTRY.
PL6.E3A0      #004=VMA$ADD_UENTRY File=VMA$SUBR.:VMB6TSI                         WED 08/20/97 15:03 Page:220

 **** Variables and constants ****

  ****  Section 011  Data  VMA$ADD_UENTRY

  ****  Scalars and arrays  ****
OctLoc.c.b A Datatyp(siz) R M Lvl/name                 OctLoc.c.b A Datatyp(siz) R M Lvl/name

     1-0-0/w PTR         r     1 LINK1$                     2-0-0/w PTR         r     1 LINK2$
     0-0-0/w PTR         r     1 PTR$                       3-0-0/w STRC(324)   r     1 X$MCB

  ****  Auto variables  ****

  ****  Scalars and arrays  ****
OctLoc.c.b A Datatyp(siz) R M Lvl/name                 OctLoc.c.b A Datatyp(siz) R M Lvl/name

     7-0-0/w PTR         r     1 @ERR#                      4-0-0/w PTR         r     1 @FOLDER
     3-0-0/w PTR         r     1 @NAME                     10-0-0/w PTR         r     1 @NAME_KEY
     5-0-0/w PTR         r     1 @PASSWORD                  6-0-0/w PTR         r     1 @SITENAME
    *0-0-0/b BIT         r     1 ERR#                      *0-0-0/c CHAR(25)    r     1 FOLDER
    *0-0-0/c ASTR(9)     r     1 NAME                      *0-0-0/c CHAR(20)    r     1 NAME_KEY
    *0-0-0/c STRC(72)    r     1 PASSWORD                  73-0-0/c CHAR(8)     r     1 SITE
    *0-0-0/c CHAR(8)     r     1 SITENAME                  11-0-0/c CHAR(200)   r     1 TEMPBUF

  ****  SYMREF variables  ****

  ****  Scalars and arrays  ****
OctLoc.c.b A Datatyp(siz) R M Lvl/name                 OctLoc.c.b A Datatyp(siz) R M Lvl/name

     0-0-0/w PTR               1 B$JIT$                     0-0-0/w PTR               1 B$TCB$
     0-0-0/w PTR         r     1 B$XL_UPPER$                0-0-0/c ASTR(9)     r     1 ERRMSG_FID
     0-0-0/w UBIN              1 M$DO_NUM                   0-0-0/w UBIN              1 M$LO_NUM
     0-0-0/w UBIN              1 M$MAIL_CENTRAL_NUM         0-0-0/w UBIN              1 M$MAIL_COMGROUP_NUM
     0-0-0/w UBIN              1 M$MAIL_FILE_NUM            0-0-0/w UBIN              1 M$MAIL_GLOBAL_NUM
     0-0-0/w UBIN              1 M$ME_NUM                   0-0-0/w UBIN              1 M$NODE_NUM
     0-0-0/w UBIN              1 M$SI_NUM                   0-0-0/w UBIN              1 M$WORK_NUM
     0-0-0/w PTR         r     1 VM_ADDLIST$                0-0-0/d VECT        r     1 VM_ADDLIST_
     0-0-0/w PTR               1 VM_ADDREC$                 0-0-0/d VECT              1 VM_ADDREC_
PL6.E3A0      #004=VMA$ADD_UENTRY File=VMA$SUBR.:VMB6TSI                         WED 08/20/97 15:03 Page:221
     0-0-0/w PTR               1 VM_COPY$                   0-0-0/d VECT              1 VM_COPY_
     0-0-0/w PTR               1 VM_ENCLLIST$               0-0-0/d VECT              1 VM_ENCLLIST_
     0-0-0/w PTR               1 VM_ENCLREC$                0-0-0/d VECT              1 VM_ENCLREC_
     0-0-0/c STRC(270)         1 VM_FORWARD_ENCL_NAME       0-0-0/c STRC(270)         1 VM_FORWARD_FILE_NAME
     0-0-0/c STRC(72)          1 VM_FORWARD_FILE_PASS       0-0-0/w PTR               1 VM_HEADER$
     0-0-0/d VECT              1 VM_HEADER_                 0-0-0/d VECT              1 VM_HEADER_INIT_
     0-0-0/w PTR               1 VM_INPUT$                  0-0-0/d VECT              1 VM_INPUT_
     0-0-0/c STRC(72)          1 VM_MAILCG_NAME             0-0-0/w STRC(432)         1 VM_MAILCG_SETSTA
     0-0-0/c STRC(72)          1 VM_MAIL_ACCT               0-0-0/c STRC(54)          1 VM_NAME_MAP_NAME
     0-0-0/w PTR               1 VM_PARSEAREA$              0-0-0/d VECT              1 VM_PARSEAREA_
     0-0-0/w PTR               1 VM_PROFILE$                0-0-0/d VECT              1 VM_PROFILE_
     0-0-0/w PTR               1 VM_SELECT$                 0-0-0/d VECT              1 VM_SELECT_
     0-0-0/c STRC(288)         1 VM_SEND_FILE_NAME          0-0-0/c CHAR(8)     r     1 VM_SITENAME
     0-0-0/w PTR               1 VM_WORK$                   0-0-0/d VECT              1 VM_WORK_

  ****  BASED and DCB variables  ****

  ****  Scalars and arrays  ****
OctLoc.c.b A Datatyp(siz) R M Lvl/name                 OctLoc.c.b A Datatyp(siz) R M Lvl/name

     0-0-0/c ACHR        r     1 CHARN                      0-0-0/d STRC(4608)  r     1 LOWER_UPPER
     0-0-0N  NULL        r     1 M$DO                       0-0-0N  NULL        r     1 M$LO
     0-0-0N  NULL        r     1 M$MAIL_CENTRAL             0-0-0N  NULL        r     1 M$MAIL_COMGROUP
     0-0-0N  NULL        r     1 M$MAIL_FILE                0-0-0N  NULL        r     1 M$MAIL_GLOBAL
     0-0-0N  NULL        r     1 M$ME                       0-0-0N  NULL        r     1 M$NODE
     0-0-0N  NULL        r     1 M$SI                       0-0-0N  NULL        r     1 M$UC
     0-0-0N  NULL        r     1 M$WORK                     0-0-0/c ASTR(9)     r     1 TEXTC
     0-0-0/w STRC(711)   r     1 VM$RADDRESS                0-0-0/w STRC(2448)  r     1 VM$UADDRESS
     0-0-0/w STRC(252)   r     1 VM_ADD_HEAD                0-0-0/c ASTR(9)     r     1 X$STRING


   Procedure VMA$ADD_UENTRY requires 530 words for executable code.
   Procedure VMA$ADD_UENTRY requires 64 words of local(AUTO) storage.
PL6.E3A0      #004=VMA$ADD_UENTRY File=VMA$SUBR.:VMB6TSI                         WED 08/20/97 15:03 Page:222
          *** CROSS REFERENCE LISTING ***
**     DENOTES     IDENTIFIER DEFINITION
<<                 IDENTIFIER'S VALUE SET
>>                 IDENTIFIER'S VALUE USED
<>                 IDENTIFIER SET AND/OR USED
--                 IDENTIFIER REFERENCED
PL6.E3A0      #004=VMA$ADD_UENTRY File=VMA$SUBR.:VMB6TSI                         WED 08/20/97 15:03 Page:223
          MINI XREF LISTING

B$XL_UPPER$
      8228**DCL      8229--IMP-PTR  8649>>CALLBLT
CHARN
      8366**DCL      8424<<ASSIGN   8528<<ASSIGN
END_DEL_SRCH
      8690**LABEL    8654--GOTO     8657--GOTO     8662--GOTO     8667--GOTO
ERR#
      8252**DCL        32--PROC     8434--IF       8436>>ASSIGN   8467--ENTRY    8538--IF       8540>>ASSIGN
      8622--ENTRY
ERRMSG_FID.L#
      7937**DCL      7937--IMP-SIZ
E_ADD
      8451**LABEL    8405--CALLALT  8407--CALLALT  8516--CALLALT  8518--CALLALT
FOLDER
      8237**DCL        32--PROC     8425>>ASSIGN   8467--ENTRY    8483>>IF       8529>>ASSIGN   8622--ENTRY
      8655>>IF
LINK1$
      8364**DCL      8481<<ASSIGN   8482>>DOWHILE  8483>>IF       8483>>IF       8483>>IF       8483>>IF
      8483>>IF       8483>>IF       8491>>IF       8496>>IF       8500<<ASSIGN   8500>>ASSIGN   8568<<ASSIGN
      8570>>DOWHILE  8571>>IF       8574>>IF       8574>>IF       8578>>ASSIGN   8579<<ASSIGN   8579>>ASSIGN
      8581>>IF       8590>>ASSIGN   8591>>ASSIGN   8592>>ASSIGN   8647<<ASSIGN   8648>>DOWHILE  8649>>CALLBLT
      8649>>CALLBLT  8651>>IF       8655>>IF       8658>>IF       8660>>IF       8675>>ASSIGN   8678>>ASSIGN
      8679>>IF       8681>>ASSIGN   8683>>ASSIGN   8690>>ASSIGN   8691<<ASSIGN   8691>>ASSIGN
LINK2$
      8365**DCL      8569<<ASSIGN   8578<<ASSIGN   8584>>ASSIGN   8585>>ASSIGN   8593>>IF       8595>>ASSIGN
      8646<<ASSIGN   8673>>IF       8675>>ASSIGN   8681>>ASSIGN   8690<<ASSIGN
LOWER_UPPER
      8229**DCL      8649>>CALLBLT
NAME
      8233**DCL        32--PROC     8467--ENTRY    8622--ENTRY
NAME.SIZ
      8234**DCL      8235--IMP-SIZ  8366--IMP-SIZ  8400>>ASSIGN   8423>>ASSIGN   8424>>ASSIGN   8424>>ASSIGN
PL6.E3A0      #004=VMA$ADD_UENTRY File=VMA$SUBR.:VMB6TSI                         WED 08/20/97 15:03 Page:224
      8483>>IF       8511>>ASSIGN   8527>>ASSIGN   8528>>ASSIGN   8528>>ASSIGN   8553>>IF       8553>>IF
      8574>>IF       8651>>IF       8651>>IF
NAME.TEXT
      8235**DCL      8424>>ASSIGN   8483>>IF       8528>>ASSIGN   8553>>IF       8574>>IF       8651>>IF
NAME_KEY
      8253**DCL        32--PROC     8429--IF       8431>>ASSIGN   8467--ENTRY    8489--IF       8496>>IF
      8533--IF       8535>>ASSIGN   8622--ENTRY
PASSWORD
      8249**DCL        32--PROC     8467--ENTRY    8622--ENTRY
PASSWORD.PASS#
      8249**DCL      8426>>ASSIGN   8483>>IF       8530>>ASSIGN
PTR$
      8363**DCL      8409<<ASSIGN   8420>>ASSIGN   8421>>ASSIGN   8422>>ASSIGN   8423>>ASSIGN   8424>>ASSIGN
      8425>>ASSIGN   8426>>ASSIGN   8427>>ASSIGN   8428>>ASSIGN   8431>>ASSIGN   8433>>ASSIGN   8436>>ASSIGN
      8437>>ASSIGN   8445>>IF       8520<<ASSIGN   8524>>ASSIGN   8525>>ASSIGN   8526>>ASSIGN   8527>>ASSIGN
      8528>>ASSIGN   8529>>ASSIGN   8530>>ASSIGN   8531>>ASSIGN   8532>>ASSIGN   8535>>ASSIGN   8537>>ASSIGN
      8540>>ASSIGN   8547>>ASSIGN   8560>>ASSIGN   8561>>ASSIGN   8562>>ASSIGN   8584>>ASSIGN   8585>>ASSIGN
      8590>>ASSIGN   8591>>ASSIGN   8592>>ASSIGN   8595>>ASSIGN   8605>>IF
SITE
      8362**DCL      8417<<ASSIGN   8419<<ASSIGN   8427>>ASSIGN   8631<<ASSIGN   8633<<ASSIGN   8660>>IF
      8665>>IF
SITENAME
      8251**DCL        32--PROC     8415>>IF       8419>>ASSIGN   8467--ENTRY    8483>>IF       8531>>ASSIGN
      8622--ENTRY    8629>>IF       8633>>ASSIGN
TEMPBUF
      8254**DCL      8649<<CALLBLT  8651>>IF
TEXTC.SIZ
      8369**DCL      8370--IMP-SIZ  8483>>IF
TEXTC.TEXT
      8370**DCL      8483>>IF
UPDATE_UENTRY
      8601**LABEL    8548--GOTO     8563--GOTO     8586--GOTO
VM$RADDRESS
      8336**DCL      8395--ASSIGN   8506--ASSIGN   8638--ASSIGN
VM$RADDRESS.FOLDER
      8351**DCL      8352--REDEF
PL6.E3A0      #004=VMA$ADD_UENTRY File=VMA$SUBR.:VMB6TSI                         WED 08/20/97 15:03 Page:225
VM$UADDRESS
      8299**DCL      8400--ASSIGN   8511--ASSIGN
VM$UADDRESS.FLAGS
      8304**DCL      8428<<ASSIGN   8532<<ASSIGN
VM$UADDRESS.FLAGS.UNDEF#
      8305**DCL      8436<<ASSIGN   8445>>IF       8540<<ASSIGN   8605>>IF
VM$UADDRESS.FOLDER
      8314**DCL      8315--REDEF    8425<<ASSIGN   8483>>IF       8529<<ASSIGN   8655>>IF
VM$UADDRESS.NAME_KEY
      8312**DCL      8431<<ASSIGN   8433<<ASSIGN   8491>>IF       8496>>IF       8535<<ASSIGN   8537<<ASSIGN
VM$UADDRESS.NEXT$
      8300**DCL      8420<<ASSIGN   8500>>ASSIGN   8524<<ASSIGN   8560<<ASSIGN   8579>>ASSIGN   8585<<ASSIGN
      8591<<ASSIGN   8595<<ASSIGN   8675<<ASSIGN   8675>>ASSIGN   8678>>ASSIGN   8679>>IF       8681>>ASSIGN
      8691>>ASSIGN
VM$UADDRESS.PASS
      8319**DCL      8426<<ASSIGN   8483>>IF       8530<<ASSIGN
VM$UADDRESS.PREV$
      8302**DCL      8421<<ASSIGN   8525<<ASSIGN   8561<<ASSIGN   8584<<ASSIGN   8590<<ASSIGN   8590>>ASSIGN
      8592<<ASSIGN   8681<<ASSIGN
VM$UADDRESS.SITENAME
      8321**DCL      8427<<ASSIGN   8483>>IF       8531<<ASSIGN   8658>>IF       8660>>IF
VM$UADDRESS.TYPE
      8311**DCL      8422<<ASSIGN   8483>>IF       8526<<ASSIGN   8553>>IF       8553>>IF       8571>>IF
VM$UADDRESS.USER_NAME
      8322**DCL      8483--IF       8483--IF
VM$UADDRESS.USER_NAME.COUNT
      8323**DCL      8423<<ASSIGN   8527<<ASSIGN   8553>>IF       8574>>IF       8649>>CALLBLT  8651>>IF
VM$UADDRESS.USER_NAME.TEXT
      8324**DCL      8400--ASSIGN   8424--ASSIGN   8511--ASSIGN   8528--ASSIGN   8553>>IF       8574>>IF
      8649>>CALLBLT
VMA$ENLARGE_SEGMENT
      8377**DCL-ENT  8405--CALL     8516--CALL
VM_ADDLIST$
      7791**DCL      8270--IMP-PTR  8384>>IF       8387>>ASSIGN   8388>>ASSIGN   8389>>ASSIGN   8389>>ASSIGN
      8397>>ASSIGN   8398>>ASSIGN   8410>>ASSIGN   8411>>ASSIGN   8420>>ASSIGN   8437>>ASSIGN   8441>>ASSIGN
      8442>>ASSIGN   8443>>ASSIGN   8443>>ASSIGN   8444>>ASSIGN   8444>>ASSIGN   8444>>ASSIGN   8447>>ASSIGN
PL6.E3A0      #004=VMA$ADD_UENTRY File=VMA$SUBR.:VMB6TSI                         WED 08/20/97 15:03 Page:226
      8471>>IF       8474>>ASSIGN   8475>>ASSIGN   8476>>ASSIGN   8476>>ASSIGN   8481>>ASSIGN   8508>>ASSIGN
      8509>>ASSIGN   8544>>IF       8547>>ASSIGN   8553>>IF       8553>>IF       8553>>IF       8553>>IF
      8560>>ASSIGN   8561>>ASSIGN   8562>>ASSIGN   8568>>ASSIGN   8601>>ASSIGN   8602>>ASSIGN   8603>>ASSIGN
      8603>>ASSIGN   8604>>ASSIGN   8604>>ASSIGN   8604>>ASSIGN   8607>>ASSIGN   8626>>IF       8640>>ASSIGN
      8641>>ASSIGN   8647>>ASSIGN   8678>>ASSIGN   8685>>ASSIGN   8685>>ASSIGN   8686>>ASSIGN   8687>>ASSIGN
VM_ADDLIST_
      7815**DCL      8396>>ASSIGN   8399>>ASSIGN   8405<>CALL     8507>>ASSIGN   8510>>ASSIGN   8516<>CALL
      8639>>ASSIGN   8642>>ASSIGN
VM_ADD_HEAD.ADDRESS_SIZE
      8271**DCL      8444<<ASSIGN   8604<<ASSIGN
VM_ADD_HEAD.FLAGS.ERR#
      8276**DCL      8447<<ASSIGN   8607<<ASSIGN
VM_ADD_HEAD.FREE$
      8282**DCL      8388<<ASSIGN   8398>>ASSIGN   8411<<ASSIGN   8442<<ASSIGN   8475<<ASSIGN   8509>>ASSIGN
      8602<<ASSIGN   8641>>ASSIGN   8687<<ASSIGN
VM_ADD_HEAD.HEAD$
      8280**DCL      8387<<ASSIGN   8420>>ASSIGN   8437<<ASSIGN   8474<<ASSIGN   8481>>ASSIGN   8544>>IF
      8547<<ASSIGN   8553>>IF       8553>>IF       8553>>IF       8553>>IF       8560>>ASSIGN   8561>>ASSIGN
      8562<<ASSIGN   8568>>ASSIGN   8647>>ASSIGN   8678<<ASSIGN
VM_ADD_HEAD.NEXT$
      8284**DCL      8389<<ASSIGN   8397>>ASSIGN   8410<<ASSIGN   8441<<ASSIGN   8444>>ASSIGN   8476<<ASSIGN
      8508>>ASSIGN   8601<<ASSIGN   8604>>ASSIGN   8640>>ASSIGN   8686<<ASSIGN
VM_ADD_HEAD.NUM_ENTRIES
      8273**DCL      8384>>IF       8443<<ASSIGN   8443>>ASSIGN   8471>>IF       8603<<ASSIGN   8603>>ASSIGN
      8626>>IF       8685<<ASSIGN   8685>>ASSIGN
VM_ADD_HEAD.WORK_AREA
      8286**DCL      8389--ASSIGN   8476--ASSIGN
VM_SITENAME
      8060**DCL      8417>>ASSIGN   8631>>ASSIGN   8665>>IF
X$ALLOCATE
      8378**DCL-ENT  8402--CALL     8407--CALL     8513--CALL     8518--CALL
X$DEALLOCATE
      8379**DCL-ENT  8684--CALL
X$MCB
      8373**DCL      8402<>CALL     8407<>CALL     8513<>CALL     8518<>CALL     8684<>CALL
X$MCB.ADDRESS$
PL6.E3A0      #004=VMA$ADD_UENTRY File=VMA$SUBR.:VMB6TSI                         WED 08/20/97 15:03 Page:227
      8373**DCL      8409>>ASSIGN   8520>>ASSIGN   8683<<ASSIGN
X$MCB.FREE_HEAD$
      8373**DCL      8398<<ASSIGN   8411>>ASSIGN   8442>>ASSIGN   8509<<ASSIGN   8602>>ASSIGN   8641<<ASSIGN
      8687>>ASSIGN
X$MCB.HI_SEGMENT$
      8373**DCL      8397<<ASSIGN   8410>>ASSIGN   8441>>ASSIGN   8508<<ASSIGN   8601>>ASSIGN   8640<<ASSIGN
      8686>>ASSIGN
X$MCB.MIN_SIZE
      8374**DCL      8395<<ASSIGN   8506<<ASSIGN   8638<<ASSIGN
X$MCB.SEGMENT_BASE$
      8373**DCL      8396<<ASSIGN   8507<<ASSIGN   8639<<ASSIGN
X$MCB.SIZE
      8373**DCL      8400<<ASSIGN   8511<<ASSIGN
X$MCB.TYPE
      8373**DCL      8394<<ASSIGN   8505<<ASSIGN   8637<<ASSIGN
X$MCB.WKSZ
      8373**DCL      8399<<ASSIGN   8406<<ASSIGN   8406>>ASSIGN   8510<<ASSIGN   8517<<ASSIGN   8517>>ASSIGN
      8642<<ASSIGN
X$STRING.SIZ
      7783**DCL      7784--IMP-SIZ

PL6.E3A0      #005=VMA$GET_NEXT_ENTRY File=VMA$SUBR.:VMB6TSI                     WED 08/20/97 15:03 Page:228
     1412        1        /*T***********************************************************/
     1413        2        /*T*                                                         */
     1414        3        /*T* Copyright (c) Bull HN Information Systems Inc., 1997    */
     1415        4        /*T*                                                         */
     1416        5        /*T***********************************************************/
     1417        6        /*X* DMC,PLM=4,IND=4,CTI=2,DTI=0,ENI=0,ECI=0,CSI=0,DCI=4 */
     1418        7        /*X* DMC,PLM=4,IND=4,CTI=2,DTI=0,ENI=0,ECI=0,CSI=0,DCI=4 */
     1419        8        /*F*
     1420        9             NAME: VMA$GET_NEXT_ENTRY
     1421       10             PURPOSE:
     1422       11                  To retrieve the next address spec. from the address list.
     1423       12             DESCRIPTION:
     1424       13                  This routine will return the next address spec. in the address
     1425       14                  list. It handles pointers that do not point to the correct
     1426       15                  addresses, only offsets.
     1427       16
     1428       17                  This routine has four parameters:
     1429       18                   VM_UADDRESS - return information.
     1430       19                   VM_RADDRESS - return information.
     1431       20                   NEXT$       - pointer to the next entry on the address list.
     1432       21                                 This pointer is based upon the original record,
     1433       22                                 and has no relation to the current location
     1434       23                                 of this entry in memory.
     1435       24                   WORK$       - pointer to the frame of memory that contains
     1436       25                                 the address list to retrieve the entry from.
     1437       26        */
     1438       27        VMA$GET_NEXT_ENTRY: PROC (VM_UADDRESS,VM_RADDRESS,NEXT$,WORK$) ALTRET;
     1439       28        /***** Include files *****/
     1440       29          %INCLUDE B_ERRORS_C;
     1441     1156          %INCLUDE CP_6;
     1442     6715          %INCLUDE CP_6_SUBS;
     1443     7255          %INCLUDE VM_MACRO_C;
     1444     8523          %INCLUDE VM_SUBS_C;
     1445     8783          %INCLUDE VM_DATA_R;
     1446     9214        /***** Parameters *****/
     1447     9215          %VM_ADDTYPES;
     1448     9219          %VM_UADDRESS (STCLASS=" ");
PL6.E3A0      #005=VMA$GET_NEXT_ENTRY File=VMA$SUBR.:VMB6TSI                     WED 08/20/97 15:03 Page:229
     1449     9256          %VM_RADDRESS (STCLASS=" ");
     1450     9291    1   DCL NEXT$ PTR;
     1451     9292    1   DCL WORK$ PTR;
     1452     9293        /***** Local variables *****/
     1453     9294    1   DCL OFFSET UBIN WORD AUTO;
     1454     9295    1   DCL PTR$ PTR AUTO;
     1455     9296    1   DCL TEMP$ PTR AUTO;
     1456     9297          %POINTER (NAME=TEMP_PTR,STCLASS="REDEF TEMP$");
     1457     9302    1   DCL TMP UBIN STATIC;
     1458     9303    1   DCL CHARN CHAR(TMP) BASED;
     1459     9304        /***** Mail structures *****/
     1460     9305          %VM_ADD_HEAD (STCLASS="BASED(WORK$)");
     1461     9334          %VM_UADDRESS (NAME=VM$UADDRESS,STCLASS=BASED);
     1462     9371          %VM_RADDRESS (NAME=VM$RADDRESS,STCLASS=BASED);
     1463     9406        %EJECT;
PL6.E3A0      #005=VMA$GET_NEXT_ENTRY File=VMA$SUBR.:VMB6TSI                     WED 08/20/97 15:03 Page:230
     1464     9407        /*
     1465     9408             ***** If no more entries, then altreturn ...
     1466     9409        */
     1467     9410    1       IF NEXT$ = ADDR(NIL)
     1468     9411    1       THEN
     1469     9412    1           ALTRETURN;
     1470     9413        /*
     1471     9414             ***** Calculate the offset from the beginning of the
     1472     9415                   original structure to the entry in question ...
     1473     9416        */
     1474     9417    1       TEMP$ = NEXT$;
     1475     9418    1       TEMP_PTR.OFFSET = 0;
     1476     9419    1       OFFSET = POFFW(NEXT$,TEMP$);
     1477     9420        /*
     1478     9421             ***** Calculate the address of the new structure ...
     1479     9422        */
     1480     9423    1       PTR$ = PINCRW(WORK$,OFFSET);
     1481     9424        /*
     1482     9425             ***** Get the next entry ...
     1483     9426        */
     1484     9427        /*
     1485     9428            Avoid trapping out near end of segment */
     1486     9429
     1487     9430    1       VM_RADDRESS = PTR$->VM$RADDRESS;
     1488     9431    1       IF VM_RADDRESS.TYPE = %VM_ADD_UNRESOLVED
     1489     9432    2       THEN DO;
     1490     9433    2           TMP = SIZEC(VM_UADDRESS) - SIZEC(VM_UADDRESS.USER_NAME.TEXT)
     1491     9434    2             + PTR$->VM$UADDRESS.USER_NAME.COUNT;
     1492     9435    2           ADDR(VM_UADDRESS)->CHARN = PTR$->CHARN;
     1493     9436    2       END;
     1494     9437    1       ELSE VM_UADDRESS = VM_RADDRESS; /* Stuff as much as possible */
     1495     9438    1       NEXT$ = VM_RADDRESS.NEXT$;
     1496     9439    1       RETURN;
     1497     9440    1   END VMA$GET_NEXT_ENTRY;
     1498     9441        %EOD;

PL6.E3A0      #005=VMA$GET_NEXT_ENTRY File=VMA$SUBR.:VMB6TSI                     WED 08/20/97 15:03 Page:231
--  Include file information  --

   B_MACROS_C.:LIB_E05  is referenced.
   VM_DATA_R.:VMB6TOU  cannot be made into a system file and is referenced.
   VM_SUBS_C.:VMB6TOU  is referenced.
   VM_MACRO_C.:VMB6TOU  is referenced.
   CP_6_SUBS.:LIB_E05  is referenced.
   CP_6_C.:LIB_E05  is referenced.
   CP_6.:LIB_E05  cannot be made into a system file and is referenced.
   B_ERRORS_C.:LIB_E05  is referenced.
      No diagnostics issued in procedure VMA$GET_NEXT_ENTRY.

   Procedure VMA$GET_NEXT_ENTRY requires 47 words for executable code.
   Procedure VMA$GET_NEXT_ENTRY requires 12 words of local(AUTO) storage.

PL6.E3A0      #005=VMA$GET_NEXT_ENTRY File=VMA$SUBR.:VMB6TSI                     WED 08/20/97 15:03 Page:232

 Object Unit name= VMA$GET_NEXT_ENTRY                         File name= VMA$SUBR.:VMB6TOU
 UTS= AUG 20 '97 15:03:26.08 WED                              Compiler= PL-6/E31         Sev=      00
 SharedLib= :SHARED_SYSTEM                                    Alt SharedLib=


    ****  Control sections  ****

 Sect   Type Bound  Init  Size OctSiz  Section name(segment info)
    0   DCB   even  none     0      0  M$UC
    1   DCB   even  none     0      0  M$MAIL_FILE
    2   DCB   even  none     0      0  M$MAIL_CENTRAL
    3   DCB   even  none     0      0  M$MAIL_GLOBAL
    4   DCB   even  none     0      0  M$WORK
    5   DCB   even  none     0      0  M$MAIL_COMGROUP
    6   DCB   even  none     0      0  M$DO
    7   DCB   even  none     0      0  M$LO
    8   DCB   even  none     0      0  M$ME
    9   DCB   even  none     0      0  M$NODE
   10   DCB   even  none     0      0  M$SI
   11   Data  even  none     1      1  VMA$GET_NEXT_ENTRY
   12   Proc  even  none    47     57  VMA$GET_NEXT_ENTRY
   13  RoData even  none     1      1  VMA$GET_NEXT_ENTRY

    ****  Entry defs  ****

                              Check   Calling
                             calling  sequence
  Sect OctLoc Primary Altret sequence   type   Parms  Name
    12      0   yes    yes     yes      Std        4  VMA$GET_NEXT_ENTRY
PL6.E3A0      #005=VMA$GET_NEXT_ENTRY File=VMA$SUBR.:VMB6TSI                     WED 08/20/97 15:03 Page:233

  ****  Entry refs  ****

         Check        Calling
        calling       sequence
Altret sequence SRef   type   Args  Name
                       nStd      0 X66_AUTO_4
                       nStd      0 X66_AALT
                       nStd      0 X66_ARET

  ****  Data refs  ****

  Flags:  r = read only, s = secondary
Flgs Name                             Flgs Name                             Flgs Name
     M$UC                             r    VM_HEADER$                       r    VM_PROFILE$
r    VM_ADDLIST$                      r    VM_ADDREC$                       r    VM_WORK$
r    VM_SELECT$                       r    VM_PARSEAREA$                    r    VM_INPUT$
r    VM_COPY$                              VM_ENCLLIST$                          VM_ENCLREC$
     VM_HEADER_                            VM_HEADER_INIT_                       VM_PROFILE_
     VM_ADDLIST_                           VM_ADDREC_                            VM_WORK_
     VM_SELECT_                            VM_PARSEAREA_                         VM_INPUT_
     VM_COPY_                              VM_ENCLLIST_                          VM_ENCLREC_
     M$MAIL_FILE                           M$MAIL_CENTRAL                        M$MAIL_GLOBAL
     M$WORK                                M$MAIL_COMGROUP                       M$DO
     M$LO                                  M$ME                                  M$NODE
     M$SI                                  M$MAIL_FILE_NUM                       M$MAIL_CENTRAL_NUM
     M$MAIL_GLOBAL_NUM                     M$WORK_NUM                            M$MAIL_COMGROUP_NUM
     M$DO_NUM                              M$ME_NUM                              M$LO_NUM
     M$SI_NUM                              M$NODE_NUM                       r    B$JIT$
r    B$TCB$                                VM_MAIL_ACCT                          VM_NAME_MAP_NAME
     ERRMSG_FID                            VM_SEND_FILE_NAME                     VM_FORWARD_FILE_NAME
     VM_FORWARD_ENCL_NAME                  VM_FORWARD_FILE_PASS                  VM_MAILCG_NAME
     VM_SITENAME                           VM_MAILCG_SETSTA
PL6.E3A0      #005=VMA$GET_NEXT_ENTRY File=VMA$SUBR.:VMB6TSI                     WED 08/20/97 15:03 Page:234

  ****  Segment refs  ****

  Flags:  r = read only, s = secondary
Flgs Name                             Flgs Name                             Flgs Name
     NULLSID
PL6.E3A0      #005=VMA$GET_NEXT_ENTRY File=VMA$SUBR.:VMB6TSI                     WED 08/20/97 15:03 Page:235


     1412        1        /*T***********************************************************/
     1413        2        /*T*                                                         */
     1414        3        /*T* Copyright (c) Bull HN Information Systems Inc., 1997    */
     1415        4        /*T*                                                         */
     1416        5        /*T***********************************************************/
     1417        6        /*X* DMC,PLM=4,IND=4,CTI=2,DTI=0,ENI=0,ECI=0,CSI=0,DCI=4 */
     1418        7        /*X* DMC,PLM=4,IND=4,CTI=2,DTI=0,ENI=0,ECI=0,CSI=0,DCI=4 */
     1419        8        /*F*
     1420        9             NAME: VMA$GET_NEXT_ENTRY
     1421       10             PURPOSE:
     1422       11                  To retrieve the next address spec. from the address list.
     1423       12             DESCRIPTION:
     1424       13                  This routine will return the next address spec. in the address
     1425       14                  list. It handles pointers that do not point to the correct
     1426       15                  addresses, only offsets.
     1427       16
     1428       17                  This routine has four parameters:
     1429       18                   VM_UADDRESS - return information.
     1430       19                   VM_RADDRESS - return information.
     1431       20                   NEXT$       - pointer to the next entry on the address list.
     1432       21                                 This pointer is based upon the original record,
     1433       22                                 and has no relation to the current location
     1434       23                                 of this entry in memory.
     1435       24                   WORK$       - pointer to the frame of memory that contains
     1436       25                                 the address list to retrieve the entry from.
     1437       26        */
     1438       27        VMA$GET_NEXT_ENTRY: PROC (VM_UADDRESS,VM_RADDRESS,NEXT$,WORK$) ALTRET;

     27 12 000000   000000 700200 xent  VMA$GET_NEX* TSX0  ! X66_AUTO_4
        12 000001   000014 000004                    ZERO    12,4

     1439       28        /***** Include files *****/
     1440       29          %INCLUDE B_ERRORS_C;
     1441     1156          %INCLUDE CP_6;
     1442     6715          %INCLUDE CP_6_SUBS;
     1443     7255          %INCLUDE VM_MACRO_C;
PL6.E3A0      #005=VMA$GET_NEXT_ENTRY File=VMA$SUBR.:VMB6TSI                     WED 08/20/97 15:03 Page:236
     1444     8523          %INCLUDE VM_SUBS_C;
     1445     8783          %INCLUDE VM_DATA_R;
     1446     9214        /***** Parameters *****/
     1447     9215          %VM_ADDTYPES;
     1448     9219          %VM_UADDRESS (STCLASS=" ");
     1449     9256          %VM_RADDRESS (STCLASS=" ");
     1450     9291    1   DCL NEXT$ PTR;
     1451     9292    1   DCL WORK$ PTR;
     1452     9293        /***** Local variables *****/
     1453     9294    1   DCL OFFSET UBIN WORD AUTO;
     1454     9295    1   DCL PTR$ PTR AUTO;
     1455     9296    1   DCL TEMP$ PTR AUTO;
     1456     9297          %POINTER (NAME=TEMP_PTR,STCLASS="REDEF TEMP$");
     1457     9302    1   DCL TMP UBIN STATIC;
     1458     9303    1   DCL CHARN CHAR(TMP) BASED;
     1459     9304        /***** Mail structures *****/
     1460     9305          %VM_ADD_HEAD (STCLASS="BASED(WORK$)");
     1461     9334          %VM_UADDRESS (NAME=VM$UADDRESS,STCLASS=BASED);
     1462     9371          %VM_RADDRESS (NAME=VM$RADDRESS,STCLASS=BASED);
     1463     9406        %EJECT;
PL6.E3A0      #005=VMA$GET_NEXT_ENTRY File=VMA$SUBR.:VMB6TSI                     WED 08/20/97 15:03 Page:237
     1464     9407        /*
     1465     9408             ***** If no more entries, then altreturn ...
     1466     9409        */
     1467     9410    1       IF NEXT$ = ADDR(NIL)

   9410 12 000002   200005 470500                    LDP0    @NEXT$,,AUTO
        12 000003   000000 236100                    LDQ     0,,PR0
        12 000004   000000 116000 13                 CMPQ    0
        12 000005   000007 601000 12                 TNZ     s:9417

     1468     9411    1       THEN
     1469     9412    1           ALTRETURN;

   9412 12 000006   000000 702200 xent               TSX2  ! X66_AALT

     1470     9413        /*
     1471     9414             ***** Calculate the offset from the beginning of the
     1472     9415                   original structure to the entry in question ...
     1473     9416        */
     1474     9417    1       TEMP$ = NEXT$;

   9417 12 000007   200011 756100                    STQ     TEMP$,,AUTO

     1475     9418    1       TEMP_PTR.OFFSET = 0;

   9418 12 000010   000000 236003                    LDQ     0,DU
        12 000011   200011 752174                    STCQ    TEMP$,'74'O,AUTO

     1476     9419    1       OFFSET = POFFW(NEXT$,TEMP$);

   9419 12 000012   200011 235100                    LDA     TEMP$,,AUTO
        12 000013   000022 771000                    ARL     18
        12 000014   200012 755100                    STA     TEMP$+1,,AUTO
        12 000015   000000 236100                    LDQ     0,,PR0
        12 000016   000022 772000                    QRL     18
        12 000017   200012 136100                    SBLQ    TEMP$+1,,AUTO
        12 000020   200007 756100                    STQ     OFFSET,,AUTO
PL6.E3A0      #005=VMA$GET_NEXT_ENTRY File=VMA$SUBR.:VMB6TSI                     WED 08/20/97 15:03 Page:238

     1477     9420        /*
     1478     9421             ***** Calculate the address of the new structure ...
     1479     9422        */
     1480     9423    1       PTR$ = PINCRW(WORK$,OFFSET);

   9423 12 000021   200006 471500                    LDP1    @WORK$,,AUTO
        12 000022   100000 473500                    LDP3    0,,PR1
        12 000023   300000 634506                    EPPR4   0,QL,PR3
        12 000024   200010 454500                    STP4    PTR$,,AUTO

     1481     9424        /*
     1482     9425             ***** Get the next entry ...
     1483     9426        */
     1484     9427        /*
     1485     9428            Avoid trapping out near end of segment */
     1486     9429
     1487     9430    1       VM_RADDRESS = PTR$->VM$RADDRESS;

   9430 12 000025   200004 475500                    LDP5    @VM_RADDRESS,,AUTO
        12 000026   000100 100500                    MLR     fill='000'O
        12 000027   400000 000117                    ADSC9   0,,PR4                   cn=0,n=79
        12 000030   500000 000117                    ADSC9   0,,PR5                   cn=0,n=79

     1488     9431    1       IF VM_RADDRESS.TYPE = %VM_ADD_UNRESOLVED

   9431 12 000031   500002 236100                    LDQ     2,,PR5
        12 000032   000777 376003                    ANQ     511,DU
        12 000033   000002 116003                    CMPQ    2,DU
        12 000034   000050 601000 12                 TNZ     s:9437

     1489     9432    2       THEN DO;

     1490     9433    2           TMP = SIZEC(VM_UADDRESS) - SIZEC(VM_UADDRESS.USER_NAME.TEXT)

   9433 12 000035   400021 236100                    LDQ     17,,PR4
        12 000036   000777 376007                    ANQ     511,DL
PL6.E3A0      #005=VMA$GET_NEXT_ENTRY File=VMA$SUBR.:VMB6TSI                     WED 08/20/97 15:03 Page:239
        12 000037   000110 036007                    ADLQ    72,DL
        12 000040   000000 756000 11                 STQ     TMP

     1491     9434    2             + PTR$->VM$UADDRESS.USER_NAME.COUNT;
     1492     9435    2           ADDR(VM_UADDRESS)->CHARN = PTR$->CHARN;

   9435 12 000041   000000 620006                    EAX0    0,QL
        12 000042   200003 473500                    LDP3    @VM_UADDRESS,,AUTO
        12 000043   000000 721000 11                 LXL1    TMP
        12 000044   040140 100540                    MLR     fill='040'O
        12 000045   400000 000010                    ADSC9   0,,PR4                   cn=0,n=*X0
        12 000046   300000 000011                    ADSC9   0,,PR3                   cn=0,n=*X1

     1493     9436    2       END;

   9436 12 000047   000054 710000 12                 TRA     s:9438

     1494     9437    1       ELSE VM_UADDRESS = VM_RADDRESS; /* Stuff as much as possible */

   9437 12 000050   200003 473500                    LDP3    @VM_UADDRESS,,AUTO
        12 000051   000100 100500                    MLR     fill='000'O
        12 000052   500000 000117                    ADSC9   0,,PR5                   cn=0,n=79
        12 000053   300000 000420                    ADSC9   0,,PR3                   cn=0,n=272

     1495     9438    1       NEXT$ = VM_RADDRESS.NEXT$;

   9438 12 000054   500000 236100                    LDQ     0,,PR5
        12 000055   000000 756100                    STQ     0,,PR0

     1496     9439    1       RETURN;

   9439 12 000056   000000 702200 xent               TSX2  ! X66_ARET

(unnamed)
 Sect OctLoc
  13     000   000000 006014                                                    ....
     1497     9440    1   END VMA$GET_NEXT_ENTRY;
PL6.E3A0      #005=VMA$GET_NEXT_ENTRY File=VMA$SUBR.:VMB6TSI                     WED 08/20/97 15:03 Page:240
     1498     9441        %EOD;

PL6.E3A0      #005=VMA$GET_NEXT_ENTRY File=VMA$SUBR.:VMB6TSI                     WED 08/20/97 15:03 Page:241
--  Include file information  --

   B_MACROS_C.:LIB_E05  is referenced.
   VM_DATA_R.:VMB6TOU  cannot be made into a system file and is referenced.
   VM_SUBS_C.:VMB6TOU  is referenced.
   VM_MACRO_C.:VMB6TOU  is referenced.
   CP_6_SUBS.:LIB_E05  is referenced.
   CP_6_C.:LIB_E05  is referenced.
   CP_6.:LIB_E05  cannot be made into a system file and is referenced.
   B_ERRORS_C.:LIB_E05  is referenced.
      No diagnostics issued in procedure VMA$GET_NEXT_ENTRY.
PL6.E3A0      #005=VMA$GET_NEXT_ENTRY File=VMA$SUBR.:VMB6TSI                     WED 08/20/97 15:03 Page:242

 **** Variables and constants ****

  ****  Section 011  Data  VMA$GET_NEXT_ENTRY

  ****  Scalars and arrays  ****
OctLoc.c.b A Datatyp(siz) R M Lvl/name                 OctLoc.c.b A Datatyp(siz) R M Lvl/name

     0-0-0/w UBIN        r     1 TMP

  ****  Auto variables  ****

  ****  Scalars and arrays  ****
OctLoc.c.b A Datatyp(siz) R M Lvl/name                 OctLoc.c.b A Datatyp(siz) R M Lvl/name

     5-0-0/w PTR         r     1 @NEXT$                     4-0-0/w PTR         r     1 @VM_RADDRESS
     3-0-0/w PTR         r     1 @VM_UADDRESS               6-0-0/w PTR         r     1 @WORK$
    *0-0-0/w PTR         r     1 NEXT$                      7-0-0/w UBIN        r     1 OFFSET
    10-0-0/w PTR         r     1 PTR$                      11-0-0/w PTR         r     1 TEMP$
    11-0-0/w STRC        r     1 TEMP_PTR                  *0-0-0/w STRC(711)   r     1 VM_RADDRESS
    *0-0-0/w STRC(2448)  r     1 VM_UADDRESS               *0-0-0/w PTR         r     1 WORK$

  ****  SYMREF variables  ****

  ****  Scalars and arrays  ****
OctLoc.c.b A Datatyp(siz) R M Lvl/name                 OctLoc.c.b A Datatyp(siz) R M Lvl/name

     0-0-0/w PTR               1 B$JIT$                     0-0-0/w PTR               1 B$TCB$
     0-0-0/c ASTR(9)     r     1 ERRMSG_FID                 0-0-0/w UBIN              1 M$DO_NUM
     0-0-0/w UBIN              1 M$LO_NUM                   0-0-0/w UBIN              1 M$MAIL_CENTRAL_NUM
     0-0-0/w UBIN              1 M$MAIL_COMGROUP_NUM        0-0-0/w UBIN              1 M$MAIL_FILE_NUM
     0-0-0/w UBIN              1 M$MAIL_GLOBAL_NUM          0-0-0/w UBIN              1 M$ME_NUM
     0-0-0/w UBIN              1 M$NODE_NUM                 0-0-0/w UBIN              1 M$SI_NUM
     0-0-0/w UBIN              1 M$WORK_NUM                 0-0-0/w PTR               1 VM_ADDLIST$
     0-0-0/d VECT              1 VM_ADDLIST_                0-0-0/w PTR               1 VM_ADDREC$
     0-0-0/d VECT              1 VM_ADDREC_                 0-0-0/w PTR               1 VM_COPY$
     0-0-0/d VECT              1 VM_COPY_                   0-0-0/w PTR               1 VM_ENCLLIST$
     0-0-0/d VECT              1 VM_ENCLLIST_               0-0-0/w PTR               1 VM_ENCLREC$
PL6.E3A0      #005=VMA$GET_NEXT_ENTRY File=VMA$SUBR.:VMB6TSI                     WED 08/20/97 15:03 Page:243
     0-0-0/d VECT              1 VM_ENCLREC_                0-0-0/c STRC(270)         1 VM_FORWARD_ENCL_NAME
     0-0-0/c STRC(270)         1 VM_FORWARD_FILE_NAME       0-0-0/c STRC(72)          1 VM_FORWARD_FILE_PASS
     0-0-0/w PTR               1 VM_HEADER$                 0-0-0/d VECT              1 VM_HEADER_
     0-0-0/d VECT              1 VM_HEADER_INIT_            0-0-0/w PTR               1 VM_INPUT$
     0-0-0/d VECT              1 VM_INPUT_                  0-0-0/c STRC(72)          1 VM_MAILCG_NAME
     0-0-0/w STRC(432)         1 VM_MAILCG_SETSTA           0-0-0/c STRC(72)          1 VM_MAIL_ACCT
     0-0-0/c STRC(54)          1 VM_NAME_MAP_NAME           0-0-0/w PTR               1 VM_PARSEAREA$
     0-0-0/d VECT              1 VM_PARSEAREA_              0-0-0/w PTR               1 VM_PROFILE$
     0-0-0/d VECT              1 VM_PROFILE_                0-0-0/w PTR               1 VM_SELECT$
     0-0-0/d VECT              1 VM_SELECT_                 0-0-0/c STRC(288)         1 VM_SEND_FILE_NAME
     0-0-0/c CHAR(8)           1 VM_SITENAME                0-0-0/w PTR               1 VM_WORK$
     0-0-0/d VECT              1 VM_WORK_

  ****  BASED and DCB variables  ****

  ****  Scalars and arrays  ****
OctLoc.c.b A Datatyp(siz) R M Lvl/name                 OctLoc.c.b A Datatyp(siz) R M Lvl/name

     0-0-0/c ACHR        r     1 CHARN                      0-0-0N  NULL        r     1 M$DO
     0-0-0N  NULL        r     1 M$LO                       0-0-0N  NULL        r     1 M$MAIL_CENTRAL
     0-0-0N  NULL        r     1 M$MAIL_COMGROUP            0-0-0N  NULL        r     1 M$MAIL_FILE
     0-0-0N  NULL        r     1 M$MAIL_GLOBAL              0-0-0N  NULL        r     1 M$ME
     0-0-0N  NULL        r     1 M$NODE                     0-0-0N  NULL        r     1 M$SI
     0-0-0N  NULL        r     1 M$UC                       0-0-0N  NULL        r     1 M$WORK
     0-0-0/w STRC(711)   r     1 VM$RADDRESS                0-0-0/w STRC(2448)  r     1 VM$UADDRESS
     0-0-0/w STRC(252)         1 VM_ADD_HEAD                0-0-0/c ASTR(9)     r     1 X$STRING


   Procedure VMA$GET_NEXT_ENTRY requires 47 words for executable code.
   Procedure VMA$GET_NEXT_ENTRY requires 12 words of local(AUTO) storage.
PL6.E3A0      #005=VMA$GET_NEXT_ENTRY File=VMA$SUBR.:VMB6TSI                     WED 08/20/97 15:03 Page:244
          *** CROSS REFERENCE LISTING ***
**     DENOTES     IDENTIFIER DEFINITION
<<                 IDENTIFIER'S VALUE SET
>>                 IDENTIFIER'S VALUE USED
<>                 IDENTIFIER SET AND/OR USED
--                 IDENTIFIER REFERENCED
PL6.E3A0      #005=VMA$GET_NEXT_ENTRY File=VMA$SUBR.:VMB6TSI                     WED 08/20/97 15:03 Page:245
          MINI XREF LISTING

CHARN
      9303**DCL      9435<<ASSIGN   9435>>ASSIGN
ERRMSG_FID.L#
      9059**DCL      9059--IMP-SIZ
NEXT$
      9291**DCL        27--PROC     9410>>IF       9417>>ASSIGN   9419>>ASSIGN   9438<<ASSIGN
OFFSET
      9294**DCL      9419<<ASSIGN   9423>>ASSIGN
PTR$
      9295**DCL      9423<<ASSIGN   9430>>ASSIGN   9433>>ASSIGN   9435>>ASSIGN
TEMP$
      9296**DCL      9298--REDEF    9417<<ASSIGN   9419>>ASSIGN
TEMP_PTR.OFFSET
      9299**DCL      9418<<ASSIGN
TMP
      9302**DCL      9303--IMP-SIZ  9433<<ASSIGN   9435>>ASSIGN   9435>>ASSIGN
VM$RADDRESS
      9381**DCL      9430>>ASSIGN
VM$RADDRESS.FOLDER
      9396**DCL      9397--REDEF
VM$UADDRESS.FOLDER
      9359**DCL      9360--REDEF
VM$UADDRESS.USER_NAME.COUNT
      9368**DCL      9433>>ASSIGN
VM_RADDRESS
      9266**DCL        27--PROC     9430<<ASSIGN   9437>>ASSIGN
VM_RADDRESS.FOLDER
      9281**DCL      9282--REDEF
VM_RADDRESS.NEXT$
      9267**DCL      9438>>ASSIGN
VM_RADDRESS.TYPE
      9278**DCL      9431>>IF
PL6.E3A0      #005=VMA$GET_NEXT_ENTRY File=VMA$SUBR.:VMB6TSI                     WED 08/20/97 15:03 Page:246
VM_UADDRESS
      9229**DCL        27--PROC     9433--ASSIGN   9435--ASSIGN   9437<<ASSIGN
VM_UADDRESS.FOLDER
      9244**DCL      9245--REDEF
VM_UADDRESS.USER_NAME.TEXT
      9254**DCL      9433--ASSIGN
WORK$
      9292**DCL        27--PROC     9315--IMP-PTR  9423>>ASSIGN
X$STRING.SIZ
      8905**DCL      8906--IMP-SIZ

