PL6.E3A0      #006=VMA$GET_LIST File=VMA$SUBR.:VMB6TSI                           WED 08/20/97 15:03 Page:247
     1499        1        /*T***********************************************************/
     1500        2        /*T*                                                         */
     1501        3        /*T* Copyright (c) Bull HN Information Systems Inc., 1997    */
     1502        4        /*T*                                                         */
     1503        5        /*T***********************************************************/
     1504        6        /*X* DMC,PLM=4,IND=4,CTI=2,DTI=0,ENI=0,ECI=0,CSI=0,DCI=4 */
     1505        7        /*X* DMC,PLM=4,IND=4,CTI=2,DTI=0,ENI=0,ECI=0,CSI=0,DCI=4 */
     1506        8        /*F*
     1507        9             NAME: VMA$GET_LIST
     1508       10             PURPOSE:
     1509       11                  To read the specified LIST definition into a data segment.
     1510       12             DESCRIPTION:
     1511       13                  The LIST definition will be read from the currently open folder
     1512       14                  into the data segment based on BUF$. The structure VM_ADD_HEAD
     1513       15                  describes the structure to be written/read.
     1514       16
     1515       17                  Since part of the USER definition is in the same form as
     1516       18                  a LIST definition, this routine may also be used to
     1517       19                  read a specified USER definition. The only difference
     1518       20                  between the two definitions is the TYPE field in the KEY.
     1519       21        */
     1520       22        VMA$GET_LIST: PROC (VM_LISTKEY,BUF$,DCB#) ALTRET;
     1521       23        /***** Include files *****/
     1522       24          %INCLUDE B_ERRORS_C;
     1523     1151          %INCLUDE CP_6;
     1524     6710          %INCLUDE CP_6_SUBS;
     1525     7250          %INCLUDE VM_MACRO_C;
     1526     8518          %INCLUDE VM_SUBS_C;
     1527     8778          %INCLUDE VM_DATA_R;
     1528     9209            %include B$TABLES_C;
     1529     9317          %B$XL_UPPER(NAME=lower_UPPER);
     1530     9321        /***** Parameters *****/
     1531     9322          %VM_KEYTYPES;
     1532     9343          %VM_LISTKEY (STCLASS=" ");
     1533     9359    1   DCL BUF$ PTR;                           /* Ptr to buffer to read into */
     1534     9360    1   DCL DCB# UBIN WORD;                     /* Open to current folder */
     1535     9361        /***** External routines *****/
PL6.E3A0      #006=VMA$GET_LIST File=VMA$SUBR.:VMB6TSI                           WED 08/20/97 15:03 Page:248
     1536     9362    1   DCL VMA$ENLARGE_SEGMENT ENTRY(2) ALTRET;
     1537     9363    1   DCL VMA$COMPRESS_BLANKS ENTRY(1);
     1538     9364        /***** Local variables *****/
     1539     9365    1   DCL BUF_ VECTOR AUTO;
     1540     9366    1   DCL LEN UBIN WORD AUTO;
     1541     9367    1   DCL TEMPBUF CHAR(%SIZ_LISTNAME) AUTO;   /* Same size as VM_LISTKEY.TEXT */
     1542     9368    1   DCL TYPE UBIN WORD AUTO;
     1543     9369        /***** Based structures *****/
     1544     9370          %B$TCB (STCLASS="BASED(B$TCB$)");
     1545     9373          %B$ALT;
     1546     9381        /***** Fpts *****/
     1547     9382          %FPT_DELREC (FPTN=DELETE_LIST,STCLASS=STATIC);
     1548     9401          %FPT_READ (FPTN=READ_LIST,KEYS=YES,STCLASS=STATIC);
     1549     9440          %FPT_READ (FPTN=READ_NEXT,KEYR=YES,KEYS=NO);
     1550     9479          %FPT_PRECORD (FPTN=MOVE_LIST,STCLASS=STATIC);
     1551     9500          %FPT_WRITE (FPTN=WRITE_LIST,ONEWKEY=YES,STCLASS=STATIC);
     1552     9531        /***** Mail structures *****/
     1553     9532          %VM_ADD_HEAD (STCLASS="BASED(BUF$)");
     1554     9561        %EJECT;
PL6.E3A0      #006=VMA$GET_LIST File=VMA$SUBR.:VMB6TSI                           WED 08/20/97 15:03 Page:249
     1555     9562        /*
     1556     9563             ***** Initialization ...
     1557     9564        */
     1558     9565    1       CALL SETUP_KEY;
     1559     9566    1   READ_AGAIN:
     1560     9567    1       CALL SETUP_BUFFER;
     1561     9568    1       READ_LIST.V.DCB# = DCB#;
     1562     9569    1       READ_LIST.KEY_ = VECTOR(VM_LISTKEY);
     1563     9570    1       READ_LIST.BUF_ = BUF_;
     1564     9571    1       CALL M$READ (READ_LIST) ALTRET(E_READ);
     1565     9572    1       RETURN;
     1566     9573        /**/
     1567     9574    1   E_READ:
     1568     9575    1       IF B$TCB.ALT$ -> B$ALT.ERR.CODE = %E$LD
     1569     9576    1       THEN
     1570     9577    2       DO;                          /* Enlarge the segment and try again */
     1571     9578    2           IF BUF$ = VM_ADDLIST$ THEN CALL VMA$ENLARGE_SEGMENT (VM_ADDLIST_,1024)
              9578                    ALTRET(E_PMME);
     1572     9579    2           ELSE
     1573     9580    2               CALL VMA$ENLARGE_SEGMENT (VM_WORK_,1024) ALTRET(E_PMME);
     1574     9581    2           GOTO READ_AGAIN;
     1575     9582    2       END;
     1576     9583    1       IF B$TCB.ALT$ -> B$ALT.ERR.CODE = %E$NOFILE
     1577     9584    1       THEN
     1578     9585    2       DO;                          /* Report that folder doesn't exist */
     1579     9586    2           ALTRETURN;
     1580     9587    2       END;
     1581     9588        /**/
     1582     9589    1   E_PMME:
     1583     9590    1       ALTRETURN;
     1584     9591        %EJECT;
PL6.E3A0      #006=VMA$GET_LIST File=VMA$SUBR.:VMB6TSI                           WED 08/20/97 15:03 Page:250
     1585     9592        /*F*
     1586     9593             NAME: VMA$GET_LIST_NEXT
     1587     9594             PURPOSE:
     1588     9595                   To read the next LIST definition after the one specified.
     1589     9596             DESCRIPTION:
     1590     9597                   This routine will read the next LIST definition record
     1591     9598                   after the one specified in VM_LISTKEY. VM_LISTKEY after
     1592     9599                   the read will contain the new LIST name. Therefore,
     1593     9600                   VM_LISTKEY may not be a constant.
     1594     9601        */
     1595     9602    1   VMA$GET_LIST_NEXT: ENTRY (VM_LISTKEY,BUF$,DCB#) ALTRET;
     1596     9603        /*
     1597     9604             ***** Initialization ...
     1598     9605        */
     1599     9606    1       CALL SETUP_BUFFER;
     1600     9607    1       CALL SETUP_KEY;
     1601     9608        /*
     1602     9609             ***** Save the type of VM_LISTKEY.
     1603     9610                   Since this routine handles VM_TYPE_LIST and
     1604     9611                   VM_TYPE_USER it is necessary to know which type
     1605     9612                   was requested in order to determine when a record
     1606     9613                   has been read that does not match the requested type ...
     1607     9614        */
     1608     9615    1       TYPE = VM_LISTKEY.TYPE;
     1609     9616        /*
     1610     9617             ***** Position to the specified record ...
     1611     9618        */
     1612     9619    1       MOVE_LIST.V.DCB# = DCB#;
     1613     9620    1       MOVE_LIST.KEY_ = VECTOR(VM_LISTKEY);
     1614     9621    1       MOVE_LIST.V.KEYS# = %YES#;
     1615     9622    1       MOVE_LIST.V.N# = 0;               /* Position to specified key */
     1616     9623    1       CALL M$PRECORD (MOVE_LIST)
     1617     9624    2       WHENRETURN DO;
     1618     9625    2           MOVE_LIST.V.KEYS# = %NO#; /* if there, position to the one after it */
     1619     9626    2           MOVE_LIST.V.N# = 1;
     1620     9627    3           CALL M$PRECORD (MOVE_LIST) WHENALTRETURN DO; END;
     1621     9628    2       END;
PL6.E3A0      #006=VMA$GET_LIST File=VMA$SUBR.:VMB6TSI                           WED 08/20/97 15:03 Page:251
     1622     9629    1       READ_NEXT.V.DCB# = DCB#;
     1623     9630    1       READ_NEXT.KEY_ = VECTOR(VM_LISTKEY);
     1624     9631    1       READ_NEXT.BUF_ = BUF_;
     1625     9632        /*
     1626     9633             ***** Blank out the key ...
     1627     9634        */
     1628     9635    1       VM_LISTKEY.COUNT = LENGTHC(VM_LISTKEY.TEXT);
     1629     9636    1       VM_LISTKEY.TEXT = ' ';
     1630     9637    1       CALL M$READ (READ_NEXT) ALTRET(E_READ);
     1631     9638        /*
     1632     9639             ***** If the type of this record does not match the
     1633     9640                   type of the requested record, then altreturn ...
     1634     9641        */
     1635     9642    1       IF TYPE ~= VM_LISTKEY.TYPE
     1636     9643    1       THEN
     1637     9644    2       DO;
     1638     9645    2           VM_LISTKEY.TYPE = TYPE; /* Restore the type */
     1639     9646    2           VM_LISTKEY.TEXT = ' ';
     1640     9647    2           VM_LISTKEY.COUNT = LENGTHC(VM_LISTKEY);
     1641     9648    2           ALTRETURN;
     1642     9649    2       END;
     1643     9650        /**/
     1644     9651    1       RETURN;
     1645     9652        %EJECT;
PL6.E3A0      #006=VMA$GET_LIST File=VMA$SUBR.:VMB6TSI                           WED 08/20/97 15:03 Page:252
     1646     9653        /*F*
     1647     9654             NAME: VMA$PUT_LIST
     1648     9655             PURPOSE:
     1649     9656                  To write the specified LIST definition into the correct folder.
     1650     9657             DESCRIPTION:
     1651     9658                  This routine will write the definition for a LIST into the
     1652     9659                  currently open folder.
     1653     9660        */
     1654     9661    1   VMA$PUT_LIST: ENTRY (VM_LISTKEY,BUF$,DCB#) ALTRET;
     1655     9662        /*
     1656     9663             ***** Initialization ...
     1657     9664        */
     1658     9665    1       CALL SETUP_BUFFER;
     1659     9666    1       CALL SETUP_KEY;
     1660     9667    1       WRITE_LIST.BUF_ = BUF_;
     1661     9668    1       WRITE_LIST.BUF_.BOUND = (VM_ADD_HEAD.ADDRESS_SIZE * 4) - 1;
     1662     9669        /*
     1663     9670             ***** Write it ...
     1664     9671        */
     1665     9672    1       WRITE_LIST.V.DCB# = DCB#;
     1666     9673    1       WRITE_LIST.KEY_ = VECTOR(VM_LISTKEY);
     1667     9674    1       CALL M$WRITE (WRITE_LIST) ALTRET(E_WRITE);
     1668     9675    1       RETURN;
     1669     9676        /**/
     1670     9677    1   E_WRITE:
     1671     9678    1       ALTRETURN;
     1672     9679        %EJECT;
PL6.E3A0      #006=VMA$GET_LIST File=VMA$SUBR.:VMB6TSI                           WED 08/20/97 15:03 Page:253
     1673     9680        /*F*
     1674     9681             NAME: VMA$DEL_LIST
     1675     9682             PURPOSE:
     1676     9683                   To delete the specified LIST definition.
     1677     9684             DESCRIPTION:
     1678     9685                   This routine will delete the definition for the specified
     1679     9686                   LIST from the specified folder.
     1680     9687        */
     1681     9688    1   VMA$DEL_LIST: ENTRY (VM_LISTKEY,BUF$,DCB#) ALTRET;
     1682     9689        /*
     1683     9690             ***** Setup the correct key ...
     1684     9691        */
     1685     9692    1       CALL SETUP_KEY;
     1686     9693    1       DELETE_LIST.KEY_ = VECTOR(VM_LISTKEY);
     1687     9694        /*
     1688     9695             ***** Do it!
     1689     9696        */
     1690     9697    1       DELETE_LIST.V.DCB# = DCB#;
     1691     9698    1       CALL M$DELREC (DELETE_LIST) ALTRET(E_PMME);
     1692     9699    1       RETURN;
     1693     9700        %EJECT;
PL6.E3A0      #006=VMA$GET_LIST File=VMA$SUBR.:VMB6TSI                           WED 08/20/97 15:03 Page:254
     1694     9701    1   SETUP_KEY: PROC;
     1695     9702        /*
     1696     9703             ***** Translate lower case to upper (just in case) ...
     1697     9704        */
     1698     9705    2       TEMPBUF = VM_LISTKEY.TEXT;
     1699     9706    2       CALL XLATE (VM_LISTKEY.TEXT,LOWER_UPPER,TEMPBUF);
     1700     9707    2       VM_LISTKEY.COUNT = LENGTHC(VM_LISTKEY.TEXT);
     1701     9708    2       CALL VMA$COMPRESS_BLANKS (ADDR(VM_LISTKEY));
     1702     9709    2       RETURN;
     1703     9710    2   END SETUP_KEY;
     1704     9711        %EJECT;
PL6.E3A0      #006=VMA$GET_LIST File=VMA$SUBR.:VMB6TSI                           WED 08/20/97 15:03 Page:255
     1705     9712    1   SETUP_BUFFER: PROC;
     1706     9713    2   DCL TVEC_ VECTOR;
     1707     9714        /*
     1708     9715             ***** Determine the buffer to read into/write from ...
     1709     9716        */
     1710     9717    2       IF BUF$ = VM_ADDLIST$ THEN TVEC_ = VM_ADDLIST_;
     1711     9718    2       ELSE TVEC_ = VM_WORK_;
     1712     9719    2       BUF_ = TVEC_;
     1713     9720    2       VBOUND(BUF_) = POFFC(PINCRC(VBASE(TVEC_),VBOUND(TVEC_)),BUF$)-1;
     1714     9721    2       VBASE(BUF_) = BUF$;
     1715     9722    2       RETURN;
     1716     9723    2   END SETUP_BUFFER;
     1717     9724    1   END VMA$GET_LIST;
     1718     9725        %EOD;

PL6.E3A0      #006=VMA$GET_LIST File=VMA$SUBR.:VMB6TSI                           WED 08/20/97 15:03 Page:256
--  Include file information  --

   B$TABLES_C.:LIB_E05  cannot be made into a system file and is referenced.
   B_MACROS_C.:LIB_E05  is referenced.
   VM_DATA_R.:VMB6TOU  cannot be made into a system file and is referenced.
   VM_SUBS_C.:VMB6TOU  is referenced.
   VM_MACRO_C.:VMB6TOU  is referenced.
   CP_6_SUBS.:LIB_E05  is referenced.
   CP_6_C.:LIB_E05  is referenced.
   CP_6.:LIB_E05  cannot be made into a system file and is referenced.
   B_ERRORS_C.:LIB_E05  is referenced.
      No diagnostics issued in procedure VMA$GET_LIST.

   Procedure VMA$GET_LIST requires 210 words for executable code.
   Procedure VMA$GET_LIST requires 66 words of local(AUTO) storage.

PL6.E3A0      #006=VMA$GET_LIST File=VMA$SUBR.:VMB6TSI                           WED 08/20/97 15:03 Page:257

 Object Unit name= VMA$GET_LIST                               File name= VMA$SUBR.:VMB6TOU
 UTS= AUG 20 '97 15:03:41.04 WED                              Compiler= PL-6/E31         Sev=      00
 SharedLib= :SHARED_SYSTEM                                    Alt SharedLib=


    ****  Control sections  ****

 Sect   Type Bound  Init  Size OctSiz  Section name(segment info)
    0   DCB   even  none     0      0  M$UC
    1   DCB   even  none     0      0  M$MAIL_FILE
    2   DCB   even  none     0      0  M$MAIL_CENTRAL
    3   DCB   even  none     0      0  M$MAIL_GLOBAL
    4   DCB   even  none     0      0  M$WORK
    5   DCB   even  none     0      0  M$MAIL_COMGROUP
    6   DCB   even  none     0      0  M$DO
    7   DCB   even  none     0      0  M$LO
    8   DCB   even  none     0      0  M$ME
    9   DCB   even  none     0      0  M$NODE
   10   DCB   even  none     0      0  M$SI
   11   Data  even  none    60     74  VMA$GET_LIST
   12   Proc  even  none   210    322  VMA$GET_LIST
   13  RoData even  none    14     16  VMA$GET_LIST

    ****  Entry defs  ****

                              Check   Calling
                             calling  sequence
  Sect OctLoc Primary Altret sequence   type   Parms  Name
    12      0   yes    yes     yes      Std        3  VMA$GET_LIST
    12     53          yes     yes      Std        3  VMA$GET_LIST_NEXT
    12    160          yes     yes      Std        3  VMA$PUT_LIST
    12    215          yes     yes      Std        3  VMA$DEL_LIST
PL6.E3A0      #006=VMA$GET_LIST File=VMA$SUBR.:VMB6TSI                           WED 08/20/97 15:03 Page:258

  ****  Entry refs  ****

         Check        Calling
        calling       sequence
Altret sequence SRef   type   Args  Name
         yes          ~proc      0 B_POINTER
 yes     yes           Std       2 VMA$ENLARGE_SEGMENT
         yes           Std       1 VMA$COMPRESS_BLANKS
                       nStd      0 X66_AUTO_3
                       nStd      0 X66_ARET
                       nStd      0 X66_AALT

  ****  Data refs  ****

  Flags:  r = read only, s = secondary
Flgs Name                             Flgs Name                             Flgs Name
     M$UC                             r    VM_HEADER$                       r    VM_PROFILE$
r    VM_ADDLIST$                      r    VM_ADDREC$                       r    VM_WORK$
r    VM_SELECT$                       r    VM_PARSEAREA$                    r    VM_INPUT$
r    VM_COPY$                              VM_ENCLLIST$                          VM_ENCLREC$
     VM_HEADER_                            VM_HEADER_INIT_                       VM_PROFILE_
     VM_ADDLIST_                           VM_ADDREC_                            VM_WORK_
     VM_SELECT_                            VM_PARSEAREA_                         VM_INPUT_
     VM_COPY_                              VM_ENCLLIST_                          VM_ENCLREC_
     M$MAIL_FILE                           M$MAIL_CENTRAL                        M$MAIL_GLOBAL
     M$WORK                                M$MAIL_COMGROUP                       M$DO
     M$LO                                  M$ME                                  M$NODE
     M$SI                                  M$MAIL_FILE_NUM                       M$MAIL_CENTRAL_NUM
     M$MAIL_GLOBAL_NUM                     M$WORK_NUM                            M$MAIL_COMGROUP_NUM
     M$DO_NUM                              M$ME_NUM                              M$LO_NUM
     M$SI_NUM                              M$NODE_NUM                       r    B$JIT$
r    B$TCB$                                VM_MAIL_ACCT                          VM_NAME_MAP_NAME
     ERRMSG_FID                            VM_SEND_FILE_NAME                     VM_FORWARD_FILE_NAME
     VM_FORWARD_ENCL_NAME                  VM_FORWARD_FILE_PASS                  VM_MAILCG_NAME
     VM_SITENAME                           VM_MAILCG_SETSTA                 r    B$XL_UPPER$
PL6.E3A0      #006=VMA$GET_LIST File=VMA$SUBR.:VMB6TSI                           WED 08/20/97 15:03 Page:259

  ****  Segment refs  ****

  Flags:  r = read only, s = secondary
Flgs Name                             Flgs Name                             Flgs Name
     ISSID                                 NULLSID
PL6.E3A0      #006=VMA$GET_LIST File=VMA$SUBR.:VMB6TSI                           WED 08/20/97 15:03 Page:260


     1499        1        /*T***********************************************************/
     1500        2        /*T*                                                         */
     1501        3        /*T* Copyright (c) Bull HN Information Systems Inc., 1997    */
     1502        4        /*T*                                                         */
     1503        5        /*T***********************************************************/
     1504        6        /*X* DMC,PLM=4,IND=4,CTI=2,DTI=0,ENI=0,ECI=0,CSI=0,DCI=4 */
     1505        7        /*X* DMC,PLM=4,IND=4,CTI=2,DTI=0,ENI=0,ECI=0,CSI=0,DCI=4 */
     1506        8        /*F*
     1507        9             NAME: VMA$GET_LIST
     1508       10             PURPOSE:
     1509       11                  To read the specified LIST definition into a data segment.
     1510       12             DESCRIPTION:
     1511       13                  The LIST definition will be read from the currently open folder
     1512       14                  into the data segment based on BUF$. The structure VM_ADD_HEAD
     1513       15                  describes the structure to be written/read.
     1514       16
     1515       17                  Since part of the USER definition is in the same form as
     1516       18                  a LIST definition, this routine may also be used to
     1517       19                  read a specified USER definition. The only difference
     1518       20                  between the two definitions is the TYPE field in the KEY.
     1519       21        */
     1520       22        VMA$GET_LIST: PROC (VM_LISTKEY,BUF$,DCB#) ALTRET;

     22 12 000000   000000 700200 xent  VMA$GET_LIST TSX0  ! X66_AUTO_3
        12 000001   000102 000003                    ZERO    66,3

     1521       23        /***** Include files *****/
     1522       24          %INCLUDE B_ERRORS_C;
     1523     1151          %INCLUDE CP_6;
     1524     6710          %INCLUDE CP_6_SUBS;
     1525     7250          %INCLUDE VM_MACRO_C;
     1526     8518          %INCLUDE VM_SUBS_C;
     1527     8778          %INCLUDE VM_DATA_R;
     1528     9209            %include B$TABLES_C;
     1529     9317          %B$XL_UPPER(NAME=lower_UPPER);
     1530     9321        /***** Parameters *****/
PL6.E3A0      #006=VMA$GET_LIST File=VMA$SUBR.:VMB6TSI                           WED 08/20/97 15:03 Page:261
     1531     9322          %VM_KEYTYPES;
     1532     9343          %VM_LISTKEY (STCLASS=" ");
     1533     9359    1   DCL BUF$ PTR;                           /* Ptr to buffer to read into */
     1534     9360    1   DCL DCB# UBIN WORD;                     /* Open to current folder */
     1535     9361        /***** External routines *****/
     1536     9362    1   DCL VMA$ENLARGE_SEGMENT ENTRY(2) ALTRET;
     1537     9363    1   DCL VMA$COMPRESS_BLANKS ENTRY(1);
     1538     9364        /***** Local variables *****/
     1539     9365    1   DCL BUF_ VECTOR AUTO;
     1540     9366    1   DCL LEN UBIN WORD AUTO;
     1541     9367    1   DCL TEMPBUF CHAR(%SIZ_LISTNAME) AUTO;   /* Same size as VM_LISTKEY.TEXT */
     1542     9368    1   DCL TYPE UBIN WORD AUTO;
     1543     9369        /***** Based structures *****/
     1544     9370          %B$TCB (STCLASS="BASED(B$TCB$)");
     1545     9373          %B$ALT;
     1546     9381        /***** Fpts *****/
     1547     9382          %FPT_DELREC (FPTN=DELETE_LIST,STCLASS=STATIC);
     1548     9401          %FPT_READ (FPTN=READ_LIST,KEYS=YES,STCLASS=STATIC);
     1549     9440          %FPT_READ (FPTN=READ_NEXT,KEYR=YES,KEYS=NO);
     1550     9479          %FPT_PRECORD (FPTN=MOVE_LIST,STCLASS=STATIC);
     1551     9500          %FPT_WRITE (FPTN=WRITE_LIST,ONEWKEY=YES,STCLASS=STATIC);
     1552     9531        /***** Mail structures *****/
     1553     9532          %VM_ADD_HEAD (STCLASS="BASED(BUF$)");
     1554     9561        %EJECT;
PL6.E3A0      #006=VMA$GET_LIST File=VMA$SUBR.:VMB6TSI                           WED 08/20/97 15:03 Page:262
     1555     9562        /*
     1556     9563             ***** Initialization ...
     1557     9564        */
     1558     9565    1       CALL SETUP_KEY;

   9565 12 000002   000234 701000 12                 TSX1    SETUP_KEY
        12 000003   000000 011000                    NOP     0

     1559     9566    1   READ_AGAIN:
     1560     9567    1       CALL SETUP_BUFFER;

   9567 12 000004   000263 701000 12    READ_AGAIN   TSX1    SETUP_BUFFER
        12 000005   000000 011000                    NOP     0

     1561     9568    1       READ_LIST.V.DCB# = DCB#;

   9568 12 000006   200005 470500                    LDP0    @DCB#,,AUTO
        12 000007   000000 720100                    LXL0    0,,PR0
        12 000010   000022 740000 11                 STX0    READ_LIST+8

     1562     9569    1       READ_LIST.KEY_ = VECTOR(VM_LISTKEY);

   9569 12 000011   000000 235000 13                 LDA     0
        12 000012   200003 236100                    LDQ     @VM_LISTKEY,,AUTO
        12 000013   000014 757000 11                 STAQ    READ_LIST+2

     1563     9570    1       READ_LIST.BUF_ = BUF_;

   9570 12 000014   200006 237100                    LDAQ    BUF_,,AUTO
        12 000015   000016 757000 11                 STAQ    READ_LIST+4

     1564     9571    1       CALL M$READ (READ_LIST) ALTRET(E_READ);

   9571 12 000016   000012 630400 11                 EPPR0   READ_LIST
        12 000017   440000 713400                    CLIMB   alt,read
        12 000020   401400 401760                    pmme    nvectors=4
        12 000021   000023 702000 12                 TSX2    E_READ
PL6.E3A0      #006=VMA$GET_LIST File=VMA$SUBR.:VMB6TSI                           WED 08/20/97 15:03 Page:263

     1565     9572    1       RETURN;

   9572 12 000022   000000 702200 xent               TSX2  ! X66_ARET

     1566     9573        /**/
     1567     9574    1   E_READ:
     1568     9575    1       IF B$TCB.ALT$ -> B$ALT.ERR.CODE = %E$LD

   9575 12 000023   000000 470400 xsym  E_READ       LDP0    B$TCB$
        12 000024   000000 471500                    LDP1    0,,PR0
        12 000025   100102 236100                    LDQ     66,,PR1
        12 000026   377770 376007                    ANQ     131064,DL
        12 000027   000070 116007                    CMPQ    56,DL
        12 000030   000047 601000 12                 TNZ     s:9583

     1569     9576    1       THEN
     1570     9577    2       DO;                          /* Enlarge the segment and try again */

     1571     9578    2           IF BUF$ = VM_ADDLIST$ THEN CALL VMA$ENLARGE_SEGMENT (VM_ADDLIST_,1024)
              9578                    ALTRET(E_PMME);

   9578 12 000031   200004 473500                    LDP3    @BUF$,,AUTO
        12 000032   300000 236100                    LDQ     0,,PR3
        12 000033   000000 116000 xsym               CMPQ    VM_ADDLIST$
        12 000034   000042 601000 12                 TNZ     s:9580

   9578 12 000035   000003 630400 13                 EPPR0   3
        12 000036   000001 631400 13                 EPPR1   1
        12 000037   000000 701000 xent               TSX1    VMA$ENLARGE_SEGMENT
        12 000040   000052 702000 12                 TSX2    E_PMME
        12 000041   000046 710000 12                 TRA     s:9581

     1572     9579    2           ELSE
     1573     9580    2               CALL VMA$ENLARGE_SEGMENT (VM_WORK_,1024) ALTRET(E_PMME);

   9580 12 000042   000005 630400 13                 EPPR0   5
PL6.E3A0      #006=VMA$GET_LIST File=VMA$SUBR.:VMB6TSI                           WED 08/20/97 15:03 Page:264
        12 000043   000001 631400 13                 EPPR1   1
        12 000044   000000 701000 xent               TSX1    VMA$ENLARGE_SEGMENT
        12 000045   000052 702000 12                 TSX2    E_PMME

     1574     9581    2           GOTO READ_AGAIN;

   9581 12 000046   000004 710000 12                 TRA     READ_AGAIN

     1575     9582    2       END;
     1576     9583    1       IF B$TCB.ALT$ -> B$ALT.ERR.CODE = %E$NOFILE

   9583 12 000047   001610 116007                    CMPQ    904,DL
        12 000050   000052 601000 12                 TNZ     E_PMME

     1577     9584    1       THEN
     1578     9585    2       DO;                          /* Report that folder doesn't exist */

     1579     9586    2           ALTRETURN;

   9586 12 000051   000000 702200 xent               TSX2  ! X66_AALT

     1580     9587    2       END;
     1581     9588        /**/
     1582     9589    1   E_PMME:
     1583     9590    1       ALTRETURN;

   9590 12 000052   000000 702200 xent  E_PMME       TSX2  ! X66_AALT

     1584     9591        %EJECT;
PL6.E3A0      #006=VMA$GET_LIST File=VMA$SUBR.:VMB6TSI                           WED 08/20/97 15:03 Page:265
     1585     9592        /*F*
     1586     9593             NAME: VMA$GET_LIST_NEXT
     1587     9594             PURPOSE:
     1588     9595                   To read the next LIST definition after the one specified.
     1589     9596             DESCRIPTION:
     1590     9597                   This routine will read the next LIST definition record
     1591     9598                   after the one specified in VM_LISTKEY. VM_LISTKEY after
     1592     9599                   the read will contain the new LIST name. Therefore,
     1593     9600                   VM_LISTKEY may not be a constant.
     1594     9601        */
     1595     9602    1   VMA$GET_LIST_NEXT: ENTRY (VM_LISTKEY,BUF$,DCB#) ALTRET;

   9602 12 000053   000000 700200 xent  VMA$GET_LIS* TSX0  ! X66_AUTO_3
        12 000054   000102 000003                    ZERO    66,3

     1596     9603        /*
     1597     9604             ***** Initialization ...
     1598     9605        */
     1599     9606    1       CALL SETUP_BUFFER;

   9606 12 000055   000263 701000 12                 TSX1    SETUP_BUFFER
        12 000056   000000 011000                    NOP     0

     1600     9607    1       CALL SETUP_KEY;

   9607 12 000057   000234 701000 12                 TSX1    SETUP_KEY
        12 000060   000000 011000                    NOP     0

     1601     9608        /*
     1602     9609             ***** Save the type of VM_LISTKEY.
     1603     9610                   Since this routine handles VM_TYPE_LIST and
     1604     9611                   VM_TYPE_USER it is necessary to know which type
     1605     9612                   was requested in order to determine when a record
     1606     9613                   has been read that does not match the requested type ...
     1607     9614        */
     1608     9615    1       TYPE = VM_LISTKEY.TYPE;

PL6.E3A0      #006=VMA$GET_LIST File=VMA$SUBR.:VMB6TSI                           WED 08/20/97 15:03 Page:266
   9615 12 000061   200003 470500                    LDP0    @VM_LISTKEY,,AUTO
        12 000062   000100 101500                    MRL     fill='000'O
        12 000063   000000 200001                    ADSC9   0,,PR0                   cn=1,n=1
        12 000064   200073 000004                    ADSC9   TYPE,,AUTO               cn=0,n=4

     1609     9616        /*
     1610     9617             ***** Position to the specified record ...
     1611     9618        */
     1612     9619    1       MOVE_LIST.V.DCB# = DCB#;

   9619 12 000065   200005 471500                    LDP1    @DCB#,,AUTO
        12 000066   100000 720100                    LXL0    0,,PR1
        12 000067   000054 740000 11                 STX0    MOVE_LIST+6

     1613     9620    1       MOVE_LIST.KEY_ = VECTOR(VM_LISTKEY);

   9620 12 000070   000000 235000 13                 LDA     0
        12 000071   200003 236100                    LDQ     @VM_LISTKEY,,AUTO
        12 000072   000050 757000 11                 STAQ    MOVE_LIST+2

     1614     9621    1       MOVE_LIST.V.KEYS# = %YES#;

   9621 12 000073   400000 236007                    LDQ     -131072,DL
        12 000074   000054 256000 11                 ORSQ    MOVE_LIST+6

     1615     9622    1       MOVE_LIST.V.N# = 0;               /* Position to specified key */

   9622 12 000075   000055 450000 11                 STZ     MOVE_LIST+7

     1616     9623    1       CALL M$PRECORD (MOVE_LIST)

   9623 12 000076   000046 630400 11                 EPPR0   MOVE_LIST
        12 000077   440003 713400                    CLIMB   alt,+16387
        12 000100   401000 401760                    pmme    nvectors=3
        12 000101   000113 702000 12                 TSX2    s:9629

     1617     9624    2       WHENRETURN DO;
PL6.E3A0      #006=VMA$GET_LIST File=VMA$SUBR.:VMB6TSI                           WED 08/20/97 15:03 Page:267

     1618     9625    2           MOVE_LIST.V.KEYS# = %NO#; /* if there, position to the one after it */

   9625 12 000102   000007 236000 13                 LDQ     7
        12 000103   000054 356000 11                 ANSQ    MOVE_LIST+6

     1619     9626    2           MOVE_LIST.V.N# = 1;

   9626 12 000104   000001 235007                    LDA     1,DL
        12 000105   000055 755000 11                 STA     MOVE_LIST+7

     1620     9627    3           CALL M$PRECORD (MOVE_LIST) WHENALTRETURN DO; END;

   9627 12 000106   000046 630400 11                 EPPR0   MOVE_LIST
        12 000107   440003 713400                    CLIMB   alt,+16387
        12 000110   401000 401760                    pmme    nvectors=3
        12 000111   000113 702000 12                 TSX2    s:9629
        12 000112   000113 710000 12                 TRA     s:9629

     1621     9628    2       END;

     1622     9629    1       READ_NEXT.V.DCB# = DCB#;

   9629 12 000113   200005 470500                    LDP0    @DCB#,,AUTO
        12 000114   000000 720100                    LXL0    0,,PR0
        12 000115   000040 740000 11                 STX0    READ_NEXT+8

     1623     9630    1       READ_NEXT.KEY_ = VECTOR(VM_LISTKEY);

   9630 12 000116   000000 235000 13                 LDA     0
        12 000117   200003 236100                    LDQ     @VM_LISTKEY,,AUTO
        12 000120   000032 757000 11                 STAQ    READ_NEXT+2

     1624     9631    1       READ_NEXT.BUF_ = BUF_;

   9631 12 000121   200006 237100                    LDAQ    BUF_,,AUTO
        12 000122   000034 757000 11                 STAQ    READ_NEXT+4
PL6.E3A0      #006=VMA$GET_LIST File=VMA$SUBR.:VMB6TSI                           WED 08/20/97 15:03 Page:268

     1625     9632        /*
     1626     9633             ***** Blank out the key ...
     1627     9634        */
     1628     9635    1       VM_LISTKEY.COUNT = LENGTHC(VM_LISTKEY.TEXT);

   9635 12 000123   200003 471500                    LDP1    @VM_LISTKEY,,AUTO
        12 000124   000100 101400                    MRL     fill='000'O
        12 000125   000011 000004 13                 ADSC9   9                        cn=0,n=4
        12 000126   100000 000001                    ADSC9   0,,PR1                   cn=0,n=1

     1629     9636    1       VM_LISTKEY.TEXT = ' ';

   9636 12 000127   040100 100400                    MLR     fill='040'O
        12 000130   000012 000001 13                 ADSC9   10                       cn=0,n=1
        12 000131   100000 400310                    ADSC9   0,,PR1                   cn=2,n=200

     1630     9637    1       CALL M$READ (READ_NEXT) ALTRET(E_READ);

   9637 12 000132   000030 630400 11                 EPPR0   READ_NEXT
        12 000133   440000 713400                    CLIMB   alt,read
        12 000134   401400 401760                    pmme    nvectors=4
        12 000135   000023 702000 12                 TSX2    E_READ

     1631     9638        /*
     1632     9639             ***** If the type of this record does not match the
     1633     9640                   type of the requested record, then altreturn ...
     1634     9641        */
     1635     9642    1       IF TYPE ~= VM_LISTKEY.TYPE

   9642 12 000136   200003 470500                    LDP0    @VM_LISTKEY,,AUTO
        12 000137   000100 101500                    MRL     fill='000'O
        12 000140   000000 200001                    ADSC9   0,,PR0                   cn=1,n=1
        12 000141   200100 000004                    ADSC9   TVEC_+2,,AUTO            cn=0,n=4
        12 000142   200100 236100                    LDQ     TVEC_+2,,AUTO
        12 000143   200073 116100                    CMPQ    TYPE,,AUTO
        12 000144   000157 600000 12                 TZE     s:9651
PL6.E3A0      #006=VMA$GET_LIST File=VMA$SUBR.:VMB6TSI                           WED 08/20/97 15:03 Page:269

     1636     9643    1       THEN
     1637     9644    2       DO;

     1638     9645    2           VM_LISTKEY.TYPE = TYPE; /* Restore the type */

   9645 12 000145   000100 101500                    MRL     fill='000'O
        12 000146   200073 000004                    ADSC9   TYPE,,AUTO               cn=0,n=4
        12 000147   000000 200001                    ADSC9   0,,PR0                   cn=1,n=1

     1639     9646    2           VM_LISTKEY.TEXT = ' ';

   9646 12 000150   040100 100400                    MLR     fill='040'O
        12 000151   000012 000001 13                 ADSC9   10                       cn=0,n=1
        12 000152   000000 400310                    ADSC9   0,,PR0                   cn=2,n=200

     1640     9647    2           VM_LISTKEY.COUNT = LENGTHC(VM_LISTKEY);

   9647 12 000153   000100 101400                    MRL     fill='000'O
        12 000154   000013 000004 13                 ADSC9   11                       cn=0,n=4
        12 000155   000000 000001                    ADSC9   0,,PR0                   cn=0,n=1

     1641     9648    2           ALTRETURN;

   9648 12 000156   000000 702200 xent               TSX2  ! X66_AALT

     1642     9649    2       END;
     1643     9650        /**/
     1644     9651    1       RETURN;

   9651 12 000157   000000 702200 xent               TSX2  ! X66_ARET

     1645     9652        %EJECT;
PL6.E3A0      #006=VMA$GET_LIST File=VMA$SUBR.:VMB6TSI                           WED 08/20/97 15:03 Page:270
     1646     9653        /*F*
     1647     9654             NAME: VMA$PUT_LIST
     1648     9655             PURPOSE:
     1649     9656                  To write the specified LIST definition into the correct folder.
     1650     9657             DESCRIPTION:
     1651     9658                  This routine will write the definition for a LIST into the
     1652     9659                  currently open folder.
     1653     9660        */
     1654     9661    1   VMA$PUT_LIST: ENTRY (VM_LISTKEY,BUF$,DCB#) ALTRET;

   9661 12 000160   000000 700200 xent  VMA$PUT_LIST TSX0  ! X66_AUTO_3
        12 000161   000102 000003                    ZERO    66,3

     1655     9662        /*
     1656     9663             ***** Initialization ...
     1657     9664        */
     1658     9665    1       CALL SETUP_BUFFER;

   9665 12 000162   000263 701000 12                 TSX1    SETUP_BUFFER
        12 000163   000000 011000                    NOP     0

     1659     9666    1       CALL SETUP_KEY;

   9666 12 000164   000234 701000 12                 TSX1    SETUP_KEY
        12 000165   000000 011000                    NOP     0

     1660     9667    1       WRITE_LIST.BUF_ = BUF_;

   9667 12 000166   200006 237100                    LDAQ    BUF_,,AUTO
        12 000167   000064 757000 11                 STAQ    WRITE_LIST+4

     1661     9668    1       WRITE_LIST.BUF_.BOUND = (VM_ADD_HEAD.ADDRESS_SIZE * 4) - 1;

   9668 12 000170   200004 470500                    LDP0    @BUF$,,AUTO
        12 000171   000000 471500                    LDP1    0,,PR0
        12 000172   100000 236100                    LDQ     0,,PR1
        12 000173   000002 736000                    QLS     2
PL6.E3A0      #006=VMA$GET_LIST File=VMA$SUBR.:VMB6TSI                           WED 08/20/97 15:03 Page:271
        12 000174   000001 136007                    SBLQ    1,DL
        12 000175   000020 736000                    QLS     16
        12 000176   000064 676000 11                 ERQ     WRITE_LIST+4
        12 000177   000014 376000 13                 ANQ     12
        12 000200   000064 656000 11                 ERSQ    WRITE_LIST+4

     1662     9669        /*
     1663     9670             ***** Write it ...
     1664     9671        */
     1665     9672    1       WRITE_LIST.V.DCB# = DCB#;

   9672 12 000201   200005 471500                    LDP1    @DCB#,,AUTO
        12 000202   100000 720100                    LXL0    0,,PR1
        12 000203   000070 740000 11                 STX0    WRITE_LIST+8

     1666     9673    1       WRITE_LIST.KEY_ = VECTOR(VM_LISTKEY);

   9673 12 000204   000000 235000 13                 LDA     0
        12 000205   200003 236100                    LDQ     @VM_LISTKEY,,AUTO
        12 000206   000062 757000 11                 STAQ    WRITE_LIST+2

     1667     9674    1       CALL M$WRITE (WRITE_LIST) ALTRET(E_WRITE);

   9674 12 000207   000060 630400 11                 EPPR0   WRITE_LIST
        12 000210   440001 713400                    CLIMB   alt,write
        12 000211   401400 401760                    pmme    nvectors=4
        12 000212   000214 702000 12                 TSX2    E_WRITE

     1668     9675    1       RETURN;

   9675 12 000213   000000 702200 xent               TSX2  ! X66_ARET

     1669     9676        /**/
     1670     9677    1   E_WRITE:
     1671     9678    1       ALTRETURN;

   9678 12 000214   000000 702200 xent  E_WRITE      TSX2  ! X66_AALT
PL6.E3A0      #006=VMA$GET_LIST File=VMA$SUBR.:VMB6TSI                           WED 08/20/97 15:03 Page:272

     1672     9679        %EJECT;
PL6.E3A0      #006=VMA$GET_LIST File=VMA$SUBR.:VMB6TSI                           WED 08/20/97 15:03 Page:273
     1673     9680        /*F*
     1674     9681             NAME: VMA$DEL_LIST
     1675     9682             PURPOSE:
     1676     9683                   To delete the specified LIST definition.
     1677     9684             DESCRIPTION:
     1678     9685                   This routine will delete the definition for the specified
     1679     9686                   LIST from the specified folder.
     1680     9687        */
     1681     9688    1   VMA$DEL_LIST: ENTRY (VM_LISTKEY,BUF$,DCB#) ALTRET;

   9688 12 000215   000000 700200 xent  VMA$DEL_LIST TSX0  ! X66_AUTO_3
        12 000216   000102 000003                    ZERO    66,3

     1682     9689        /*
     1683     9690             ***** Setup the correct key ...
     1684     9691        */
     1685     9692    1       CALL SETUP_KEY;

   9692 12 000217   000234 701000 12                 TSX1    SETUP_KEY
        12 000220   000000 011000                    NOP     0

     1686     9693    1       DELETE_LIST.KEY_ = VECTOR(VM_LISTKEY);

   9693 12 000221   000000 235000 13                 LDA     0
        12 000222   200003 236100                    LDQ     @VM_LISTKEY,,AUTO
        12 000223   000002 757000 11                 STAQ    DELETE_LIST+2

     1687     9694        /*
     1688     9695             ***** Do it!
     1689     9696        */
     1690     9697    1       DELETE_LIST.V.DCB# = DCB#;

   9697 12 000224   200005 470500                    LDP0    @DCB#,,AUTO
        12 000225   000000 720100                    LXL0    0,,PR0
        12 000226   000010 740000 11                 STX0    DELETE_LIST+8

     1691     9698    1       CALL M$DELREC (DELETE_LIST) ALTRET(E_PMME);
PL6.E3A0      #006=VMA$GET_LIST File=VMA$SUBR.:VMB6TSI                           WED 08/20/97 15:03 Page:274

   9698 12 000227   000000 630400 11                 EPPR0   DELETE_LIST
        12 000230   440002 713400                    CLIMB   alt,+16386
        12 000231   401400 401760                    pmme    nvectors=4
        12 000232   000052 702000 12                 TSX2    E_PMME

     1692     9699    1       RETURN;

   9699 12 000233   000000 702200 xent               TSX2  ! X66_ARET

     1693     9700        %EJECT;
PL6.E3A0      #006=VMA$GET_LIST File=VMA$SUBR.:VMB6TSI                           WED 08/20/97 15:03 Page:275
     1694     9701    1   SETUP_KEY: PROC;

   9701 12 000234   200074 741300       SETUP_KEY    STX1  ! TYPE+1,,AUTO

     1695     9702        /*
     1696     9703             ***** Translate lower case to upper (just in case) ...
     1697     9704        */
     1698     9705    2       TEMPBUF = VM_LISTKEY.TEXT;

   9705 12 000235   200003 470500                    LDP0    @VM_LISTKEY,,AUTO
        12 000236   040100 100500                    MLR     fill='040'O
        12 000237   000000 400310                    ADSC9   0,,PR0                   cn=2,n=200
        12 000240   200011 000310                    ADSC9   TEMPBUF,,AUTO            cn=0,n=200

     1699     9706    2       CALL XLATE (VM_LISTKEY.TEXT,LOWER_UPPER,TEMPBUF);

   9706 12 000241   000000 471400 xsym               LDP1    B$XL_UPPER$
        12 000242   040100 160500                    MVT     fill='040'O
        12 000243   200011 000310                    ADSC9   TEMPBUF,,AUTO            cn=0,n=200
        12 000244   000000 400310                    ADSC9   0,,PR0                   cn=2,n=200
        12 000245   100000 000100                    ARG     0,,PR1

     1700     9707    2       VM_LISTKEY.COUNT = LENGTHC(VM_LISTKEY.TEXT);

   9707 12 000246   000100 101400                    MRL     fill='000'O
        12 000247   000011 000004 13                 ADSC9   9                        cn=0,n=4
        12 000250   000000 000001                    ADSC9   0,,PR0                   cn=0,n=1

     1701     9708    2       CALL VMA$COMPRESS_BLANKS (ADDR(VM_LISTKEY));

   9708 12 000251   200003 236100                    LDQ     @VM_LISTKEY,,AUTO
        12 000252   200100 756100                    STQ     TVEC_+2,,AUTO
        12 000253   200100 633500                    EPPR3   TVEC_+2,,AUTO
        12 000254   200101 453500                    STP3    TVEC_+3,,AUTO
        12 000255   200101 630500                    EPPR0   TVEC_+3,,AUTO
        12 000256   000015 631400 13                 EPPR1   13
        12 000257   000000 701000 xent               TSX1    VMA$COMPRESS_BLANKS
PL6.E3A0      #006=VMA$GET_LIST File=VMA$SUBR.:VMB6TSI                           WED 08/20/97 15:03 Page:276
        12 000260   000000 011000                    NOP     0

     1702     9709    2       RETURN;

   9709 12 000261   200074 221300                    LDX1  ! TYPE+1,,AUTO
        12 000262   000001 702211                    TSX2  ! 1,X1

     1703     9710    2   END SETUP_KEY;
     1704     9711        %EJECT;
PL6.E3A0      #006=VMA$GET_LIST File=VMA$SUBR.:VMB6TSI                           WED 08/20/97 15:03 Page:277
     1705     9712    1   SETUP_BUFFER: PROC;

   9712 12 000263   200074 741300       SETUP_BUFFER STX1  ! TYPE+1,,AUTO

     1706     9713    2   DCL TVEC_ VECTOR;
     1707     9714        /*
     1708     9715             ***** Determine the buffer to read into/write from ...
     1709     9716        */
     1710     9717    2       IF BUF$ = VM_ADDLIST$ THEN TVEC_ = VM_ADDLIST_;

   9717 12 000264   200004 470500                    LDP0    @BUF$,,AUTO
        12 000265   000000 236100                    LDQ     0,,PR0
        12 000266   000000 116000 xsym               CMPQ    VM_ADDLIST$
        12 000267   000273 601000 12                 TNZ     s:9718

   9717 12 000270   000000 237000 xsym               LDAQ    VM_ADDLIST_
        12 000271   200076 757100                    STAQ    TVEC_,,AUTO
        12 000272   000275 710000 12                 TRA     s:9719

     1711     9718    2       ELSE TVEC_ = VM_WORK_;

   9718 12 000273   000000 237000 xsym               LDAQ    VM_WORK_
        12 000274   200076 757100                    STAQ    TVEC_,,AUTO

     1712     9719    2       BUF_ = TVEC_;

   9719 12 000275   200076 237100                    LDAQ    TVEC_,,AUTO
        12 000276   200006 757100                    STAQ    BUF_,,AUTO

     1713     9720    2       VBOUND(BUF_) = POFFC(PINCRC(VBASE(TVEC_),VBOUND(TVEC_)),BUF$)-1;

   9720 12 000277   200076 236100                    LDQ     TVEC_,,AUTO
        12 000300   000020 772000                    QRL     16
        12 000301   000020 736000                    QLS     16
        12 000302   200077 036100                    ADLQ    TVEC_+1,,AUTO
        12 000303   000020 772000                    QRL     16
        12 000304   200100 756100                    STQ     TVEC_+2,,AUTO
PL6.E3A0      #006=VMA$GET_LIST File=VMA$SUBR.:VMB6TSI                           WED 08/20/97 15:03 Page:278
        12 000305   000000 236100                    LDQ     0,,PR0
        12 000306   000020 772000                    QRL     16
        12 000307   200101 756100                    STQ     TVEC_+3,,AUTO
        12 000310   200100 236100                    LDQ     TVEC_+2,,AUTO
        12 000311   200101 136100                    SBLQ    TVEC_+3,,AUTO
        12 000312   000001 136007                    SBLQ    1,DL
        12 000313   000020 736000                    QLS     16
        12 000314   200006 676100                    ERQ     BUF_,,AUTO
        12 000315   000014 376000 13                 ANQ     12
        12 000316   200006 656100                    ERSQ    BUF_,,AUTO

     1714     9721    2       VBASE(BUF_) = BUF$;

   9721 12 000317   000000 236100                    LDQ     0,,PR0
        12 000320   200007 756100                    STQ     BUF_+1,,AUTO

     1715     9722    2       RETURN;

   9722 12 000321   000001 702211                    TSX2  ! 1,X1

DELETE_LIST
 Sect OctLoc
  11     000   000001 777640   000010 006000   000000 177640   000000 006014    ................
  11     004   000000 177640   000000 006014   000000 177640   000000 006014    ................
  11     010   000000 000000   000000 000000                                    ........

READ_LIST
 Sect OctLoc
  11     012   000005 777640   000022 006000   000000 177640   000000 006014    ................
  11     016   000000 177640   000000 006014   000000 177640   000000 006014    ................
  11     022   000000 600000   000000 000000   000000 000000   000000 000000    ................
  11     026   000000 000000   000000 000000                                    ........

READ_NEXT
 Sect OctLoc
  11     030   000005 777640   000040 006000   000000 177640   000000 006014    ..... ..........
  11     034   000000 177640   000000 006014   000000 177640   000000 006014    ................
PL6.E3A0      #006=VMA$GET_LIST File=VMA$SUBR.:VMB6TSI                           WED 08/20/97 15:03 Page:279
  11     040   000000 500000   000000 000000   000000 000000   000000 000000    ................
  11     044   000000 000000   000000 000000                                    ........

MOVE_LIST
 Sect OctLoc
  11     046   000003 777640   000054 006000   000000 177640   000000 006014    .....,..........
  11     052   000000 177640   000000 006014   000000 000000   000000 000000    ................
  11     056   000000 000000   0***** ******                                    ........

WRITE_LIST
 Sect OctLoc
  11     060   000003 777640   000070 006000   000000 177640   000000 006014    .....8..........
  11     064   000000 177640   000000 006014   000000 177640   000000 006014    ................
  11     070   000000 400400   000000 000000   000000 000000   000000 000000    ................

(unnamed)
 Sect OctLoc
  13     000   000062 377640   000002 000000   000000 002000   000000 006000    .2..............
  13     004   000002 006000   000000 006000   000002 006000   777777 377777    ................
  13     010   000000 006014   000000 000310   040040 040040   000000 000312    ........    ....
  13     014   777777 600000   000001 000000                                    ........
     1716     9723    2   END SETUP_BUFFER;
     1717     9724    1   END VMA$GET_LIST;
     1718     9725        %EOD;

PL6.E3A0      #006=VMA$GET_LIST File=VMA$SUBR.:VMB6TSI                           WED 08/20/97 15:03 Page:280
--  Include file information  --

   B$TABLES_C.:LIB_E05  cannot be made into a system file and is referenced.
   B_MACROS_C.:LIB_E05  is referenced.
   VM_DATA_R.:VMB6TOU  cannot be made into a system file and is referenced.
   VM_SUBS_C.:VMB6TOU  is referenced.
   VM_MACRO_C.:VMB6TOU  is referenced.
   CP_6_SUBS.:LIB_E05  is referenced.
   CP_6_C.:LIB_E05  is referenced.
   CP_6.:LIB_E05  cannot be made into a system file and is referenced.
   B_ERRORS_C.:LIB_E05  is referenced.
      No diagnostics issued in procedure VMA$GET_LIST.
PL6.E3A0      #006=VMA$GET_LIST File=VMA$SUBR.:VMB6TSI                           WED 08/20/97 15:03 Page:281

 **** Variables and constants ****

  ****  Section 011  Data  VMA$GET_LIST

  ****  Scalars and arrays  ****
OctLoc.c.b A Datatyp(siz) R M Lvl/name                 OctLoc.c.b A Datatyp(siz) R M Lvl/name

     0-0-0/d STRC(360)   r     1 DELETE_LIST               46-0-0/d STRC(360)   r     1 MOVE_LIST
    12-0-0/d STRC(504)   r     1 READ_LIST                 30-0-0/d STRC(504)   r     1 READ_NEXT
    60-0-0/d STRC(432)   r     1 WRITE_LIST

  ****  Auto variables  ****

  ****  Scalars and arrays  ****
OctLoc.c.b A Datatyp(siz) R M Lvl/name                 OctLoc.c.b A Datatyp(siz) R M Lvl/name

     4-0-0/w PTR         r     1 @BUF$                      5-0-0/w PTR         r     1 @DCB#
     3-0-0/w PTR         r     1 @VM_LISTKEY               *0-0-0/w PTR         r     1 BUF$
     6-0-0/d VECT        r     1 BUF_                      *0-0-0/w UBIN        r     1 DCB#
    10-0-0/w UBIN              1 LEN                       11-0-0/c CHAR(200)   r     1 TEMPBUF
    76-0-0/d VECT        r     1 TVEC_                     73-0-0/w UBIN        r     1 TYPE
    *0-0-0/c STRC(1818)  r     1 VM_LISTKEY

  ****  SYMREF variables  ****

  ****  Scalars and arrays  ****
OctLoc.c.b A Datatyp(siz) R M Lvl/name                 OctLoc.c.b A Datatyp(siz) R M Lvl/name

     0-0-0/w PTR               1 B$JIT$                     0-0-0/w PTR         r     1 B$TCB$
     0-0-0/w PTR         r     1 B$XL_UPPER$                0-0-0/c ASTR(9)     r     1 ERRMSG_FID
     0-0-0/w UBIN              1 M$DO_NUM                   0-0-0/w UBIN              1 M$LO_NUM
     0-0-0/w UBIN              1 M$MAIL_CENTRAL_NUM         0-0-0/w UBIN              1 M$MAIL_COMGROUP_NUM
     0-0-0/w UBIN              1 M$MAIL_FILE_NUM            0-0-0/w UBIN              1 M$MAIL_GLOBAL_NUM
     0-0-0/w UBIN              1 M$ME_NUM                   0-0-0/w UBIN              1 M$NODE_NUM
     0-0-0/w UBIN              1 M$SI_NUM                   0-0-0/w UBIN              1 M$WORK_NUM
     0-0-0/w PTR         r     1 VM_ADDLIST$                0-0-0/d VECT        r     1 VM_ADDLIST_
     0-0-0/w PTR               1 VM_ADDREC$                 0-0-0/d VECT              1 VM_ADDREC_
PL6.E3A0      #006=VMA$GET_LIST File=VMA$SUBR.:VMB6TSI                           WED 08/20/97 15:03 Page:282
     0-0-0/w PTR               1 VM_COPY$                   0-0-0/d VECT              1 VM_COPY_
     0-0-0/w PTR               1 VM_ENCLLIST$               0-0-0/d VECT              1 VM_ENCLLIST_
     0-0-0/w PTR               1 VM_ENCLREC$                0-0-0/d VECT              1 VM_ENCLREC_
     0-0-0/c STRC(270)         1 VM_FORWARD_ENCL_NAME       0-0-0/c STRC(270)         1 VM_FORWARD_FILE_NAME
     0-0-0/c STRC(72)          1 VM_FORWARD_FILE_PASS       0-0-0/w PTR               1 VM_HEADER$
     0-0-0/d VECT              1 VM_HEADER_                 0-0-0/d VECT              1 VM_HEADER_INIT_
     0-0-0/w PTR               1 VM_INPUT$                  0-0-0/d VECT              1 VM_INPUT_
     0-0-0/c STRC(72)          1 VM_MAILCG_NAME             0-0-0/w STRC(432)         1 VM_MAILCG_SETSTA
     0-0-0/c STRC(72)          1 VM_MAIL_ACCT               0-0-0/c STRC(54)          1 VM_NAME_MAP_NAME
     0-0-0/w PTR               1 VM_PARSEAREA$              0-0-0/d VECT              1 VM_PARSEAREA_
     0-0-0/w PTR               1 VM_PROFILE$                0-0-0/d VECT              1 VM_PROFILE_
     0-0-0/w PTR               1 VM_SELECT$                 0-0-0/d VECT              1 VM_SELECT_
     0-0-0/c STRC(288)         1 VM_SEND_FILE_NAME          0-0-0/c CHAR(8)           1 VM_SITENAME
     0-0-0/w PTR               1 VM_WORK$                   0-0-0/d VECT        r     1 VM_WORK_

  ****  BASED and DCB variables  ****

  ****  Scalars and arrays  ****
OctLoc.c.b A Datatyp(siz) R M Lvl/name                 OctLoc.c.b A Datatyp(siz) R M Lvl/name

     0-0-0/w STRC(2448)  r     1 B$ALT                      0-0-0/w STRC(144)   r     1 B$TCB
     0-0-0/d STRC(4608)  r     1 LOWER_UPPER                0-0-0N  NULL        r     1 M$DO
     0-0-0N  NULL        r     1 M$LO                       0-0-0N  NULL        r     1 M$MAIL_CENTRAL
     0-0-0N  NULL        r     1 M$MAIL_COMGROUP            0-0-0N  NULL        r     1 M$MAIL_FILE
     0-0-0N  NULL        r     1 M$MAIL_GLOBAL              0-0-0N  NULL        r     1 M$ME
     0-0-0N  NULL        r     1 M$NODE                     0-0-0N  NULL        r     1 M$SI
     0-0-0N  NULL        r     1 M$UC                       0-0-0N  NULL        r     1 M$WORK
     0-0-0/w STRC(252)   r     1 VM_ADD_HEAD                0-0-0/c ASTR(9)     r     1 X$STRING


   Procedure VMA$GET_LIST requires 210 words for executable code.
   Procedure VMA$GET_LIST requires 66 words of local(AUTO) storage.
PL6.E3A0      #006=VMA$GET_LIST File=VMA$SUBR.:VMB6TSI                           WED 08/20/97 15:03 Page:283
          *** CROSS REFERENCE LISTING ***
**     DENOTES     IDENTIFIER DEFINITION
<<                 IDENTIFIER'S VALUE SET
>>                 IDENTIFIER'S VALUE USED
<>                 IDENTIFIER SET AND/OR USED
--                 IDENTIFIER REFERENCED
PL6.E3A0      #006=VMA$GET_LIST File=VMA$SUBR.:VMB6TSI                           WED 08/20/97 15:03 Page:284
          MINI XREF LISTING

B$ALT.CODE
      9375**DCL      9375--REDEF    9376--REDEF    9376--REDEF
B$ALT.ERR.CODE
      9377**DCL      9575>>IF       9583>>IF
B$ALT.ERR.ERR#
      9377**DCL      9377--REDEF
B$ALT.EVID
      9376**DCL      9376--REDEF    9376--REDEF
B$TCB.ALT$
      9371**DCL      9575>>IF       9583>>IF
B$TCB$
      8986**DCL      9371--IMP-PTR  9575>>IF       9583>>IF
B$XL_UPPER$
      9318**DCL      9319--IMP-PTR  9706>>CALLBLT
BUF$
      9359**DCL        22--PROC     9542--IMP-PTR  9578>>IF       9602--ENTRY    9661--ENTRY    9668>>ASSIGN
      9688--ENTRY    9717>>IF       9720>>ASSIGN   9721>>ASSIGN
BUF_
      9365**DCL      9570>>ASSIGN   9631>>ASSIGN   9667>>ASSIGN   9719<<ASSIGN   9720<<ASSIGN   9721<<ASSIGN
DCB#
      9360**DCL        22--PROC     9568>>ASSIGN   9602--ENTRY    9619>>ASSIGN   9629>>ASSIGN   9661--ENTRY
      9672>>ASSIGN   9688--ENTRY    9697>>ASSIGN
DELETE_LIST
      9393**DCL      9698<>CALL
DELETE_LIST.KEY_
      9393**DCL      9693<<ASSIGN
DELETE_LIST.V
      9396**DCL      9393--DCLINIT
DELETE_LIST.V.DCB#
      9397**DCL      9697<<ASSIGN
ERRMSG_FID.L#
      9054**DCL      9054--IMP-SIZ
PL6.E3A0      #006=VMA$GET_LIST File=VMA$SUBR.:VMB6TSI                           WED 08/20/97 15:03 Page:285
E_PMME
      9590**LABEL    9578--CALLALT  9580--CALLALT  9698--CALLALT
E_READ
      9575**LABEL    9571--CALLALT  9637--CALLALT
E_WRITE
      9678**LABEL    9674--CALLALT
LOWER_UPPER
      9319**DCL      9706>>CALLBLT
M$DELREC
      6640**DCL-ENT  9698--CALL
M$PRECORD
      6642**DCL-ENT  9623--CALL     9627--CALL
M$READ
      6639**DCL-ENT  9571--CALL     9637--CALL
M$WRITE
      6639**DCL-ENT  9674--CALL
MOVE_LIST
      9490**DCL      9623<>CALL     9627<>CALL
MOVE_LIST.KEY_
      9490**DCL      9620<<ASSIGN
MOVE_LIST.V
      9492**DCL      9490--DCLINIT
MOVE_LIST.V.DCB#
      9492**DCL      9619<<ASSIGN
MOVE_LIST.V.KEYS#
      9493**DCL      9621<<ASSIGN   9625<<ASSIGN
MOVE_LIST.V.N#
      9496**DCL      9622<<ASSIGN   9626<<ASSIGN
READ_AGAIN
      9567**LABEL    9581--GOTO
READ_LIST
      9418**DCL      9571<>CALL
READ_LIST.BUF_
      9420**DCL      9570<<ASSIGN
READ_LIST.KEY_
      9418**DCL      9569<<ASSIGN
PL6.E3A0      #006=VMA$GET_LIST File=VMA$SUBR.:VMB6TSI                           WED 08/20/97 15:03 Page:286
READ_LIST.STATION_
      9421**DCL      9422--REDEF
READ_LIST.V
      9422**DCL      9418--DCLINIT
READ_LIST.V.DCB#
      9422**DCL      9568<<ASSIGN
READ_LIST.V.DVBYTE.REREAD#
      9433**DCL      9433--REDEF
READ_LIST.V.INDX#
      9431**DCL      9431--REDEF
READ_NEXT
      9457**DCL      9637<>CALL
READ_NEXT.BUF_
      9459**DCL      9631<<ASSIGN
READ_NEXT.KEY_
      9457**DCL      9630<<ASSIGN
READ_NEXT.STATION_
      9460**DCL      9461--REDEF
READ_NEXT.V
      9461**DCL      9457--DCLINIT
READ_NEXT.V.DCB#
      9461**DCL      9629<<ASSIGN
READ_NEXT.V.DVBYTE.REREAD#
      9472**DCL      9472--REDEF
READ_NEXT.V.INDX#
      9470**DCL      9470--REDEF
SETUP_BUFFER
      9712**PROC     9567--CALL     9606--CALL     9665--CALL
SETUP_KEY
      9701**PROC     9565--CALL     9607--CALL     9666--CALL     9692--CALL
TEMPBUF
      9367**DCL      9705<<ASSIGN   9706>>CALLBLT
TVEC_ IN PROCEDURE SETUP_BUFFER
      9713**DCL      9717<<ASSIGN   9718<<ASSIGN   9719>>ASSIGN   9720>>ASSIGN   9720>>ASSIGN
TYPE
      9368**DCL      9615<<ASSIGN   9642>>IF       9645>>ASSIGN
PL6.E3A0      #006=VMA$GET_LIST File=VMA$SUBR.:VMB6TSI                           WED 08/20/97 15:03 Page:287
VMA$COMPRESS_BLANKS
      9363**DCL-ENT  9708--CALL
VMA$ENLARGE_SEGMENT
      9362**DCL-ENT  9578--CALL     9580--CALL
VM_ADDLIST$
      8908**DCL      9578>>IF       9717>>IF
VM_ADDLIST_
      8932**DCL      9578<>CALL     9717>>ASSIGN
VM_ADD_HEAD.ADDRESS_SIZE
      9543**DCL      9668>>ASSIGN
VM_LISTKEY
      9353**DCL        22--PROC     9569--ASSIGN   9602--ENTRY    9620--ASSIGN   9630--ASSIGN   9647--ASSIGN
      9661--ENTRY    9673--ASSIGN   9688--ENTRY    9693--ASSIGN   9708--CALL
VM_LISTKEY.COUNT
      9354**DCL      9635<<ASSIGN   9647<<ASSIGN   9707<<ASSIGN
VM_LISTKEY.TEXT
      9357**DCL      9635--ASSIGN   9636<<ASSIGN   9646<<ASSIGN   9705>>ASSIGN   9706<<CALLBLT  9707--ASSIGN
VM_LISTKEY.TYPE
      9355**DCL      9615>>ASSIGN   9642>>IF       9645<<ASSIGN
VM_WORK_
      8934**DCL      9580<>CALL     9718>>ASSIGN
WRITE_LIST
      9517**DCL      9674<>CALL
WRITE_LIST.BUF_
      9517**DCL      9667<<ASSIGN
WRITE_LIST.BUF_.BOUND
      9517**DCL      9668<<ASSIGN
WRITE_LIST.KEY_
      9517**DCL      9673<<ASSIGN
WRITE_LIST.STATION_
      9519**DCL      9519--REDEF
WRITE_LIST.V
      9520**DCL      9517--DCLINIT
WRITE_LIST.V.DCB#
      9520**DCL      9672<<ASSIGN
WRITE_LIST.V.DVBYTE.VFC#
PL6.E3A0      #006=VMA$GET_LIST File=VMA$SUBR.:VMB6TSI                           WED 08/20/97 15:03 Page:288
      9526**DCL      9526--REDEF
X$STRING.SIZ
      8900**DCL      8901--IMP-SIZ

PL6.E3A0      #007=VMA$GET_ADD_RECORD File=VMA$SUBR.:VMB6TSI                     WED 08/20/97 15:04 Page:289
     1719        1        /*T***********************************************************/
     1720        2        /*T*                                                         */
     1721        3        /*T* Copyright (c) Bull HN Information Systems Inc., 1997    */
     1722        4        /*T*                                                         */
     1723        5        /*T***********************************************************/
     1724        6        /*X* DMC,PLM=4,IND=4,CTI=2,DTI=0,ENI=0,ECI=0,CSI=0,DCI=4 */
     1725        7        /*X* DMC,PLM=4,IND=4,CTI=2,DTI=0,ENI=0,ECI=0,CSI=0,DCI=4 */
     1726        8        /*F*
     1727        9             NAME: VMA$GET_ADD_RECORD
     1728       10             PURPOSE:
     1729       11                   To read the specified address record from the specified file.
     1730       12             DESCRIPTION:
     1731       13                   The purpose of these routines is to manipulate ADDRESS
     1732       14                   records. That is, records passed between SEND and MAILMAN
     1733       15                   with a TYPE of VM_TYPE_TO, VM_TYPE_C and VM_TYPE_BC.
     1734       16
     1735       17                   This routine has three parameters:
     1736       18                      TYPE   - type of record to read.
     1737       19                      BUF_   - vector of area to read/write info to/from.
     1738       20                      DCB#   - dcb which points to the file to access.
     1739       21                       NUMBER - Optional message number, default is 0.
     1740       22        */
     1741       23        VMA$GET_ADD_RECORD: PROC (TYPE,BUF_,DCB#,NUMBER) ALTRET;
     1742       24        /***** Include files *****/
     1743       25          %INCLUDE B_ERRORS_C;
     1744     1152          %INCLUDE CP_6;
     1745     6711          %INCLUDE CP_6_SUBS;
     1746     7251          %INCLUDE VM_MACRO_C;
     1747     8519          %INCLUDE VM_DATA_R;
     1748     8950        /***** Parameters *****/
     1749     8951    1   DCL TYPE UBIN WORD;
     1750     8952    1   DCL BUF_ VECTOR;
     1751     8953    1   DCL DCB# UBIN WORD;
     1752     8954    1   DCL NUMBER UBIN WORD;
     1753     8955        /***** Based structures *****/
     1754     8956          %B$TCB (STCLASS="BASED(B$TCB$)");
     1755     8959          %B$ALT;
PL6.E3A0      #007=VMA$GET_ADD_RECORD File=VMA$SUBR.:VMB6TSI                     WED 08/20/97 15:04 Page:290
     1756     8967        /***** External routines *****/
     1757     8968    1   DCL VMA$ENLARGE_SEGMENT ENTRY(2) ALTRET;
     1758     8969        /***** Fpts *****/
     1759     8970          %FPT_DELREC (FPTN=DELETE_ADDRESS,KEY=VM_INFOKEY);
     1760     8989          %FPT_READ (FPTN=READ_ADDRESS,KEYS=YES,KEY=VM_INFOKEY);
     1761     9028          %FPT_WRITE (FPTN=WRITE_ADDRESS,ONEWKEY=YES,KEY=VM_INFOKEY);
     1762     9059        /***** Mail structures *****/
     1763     9060          %VM_KEYTYPES;
     1764     9081          %VM_INFOKEY (STCLASS=STATIC);
     1765     9098          %VM_ADD_HEAD (STCLASS=BASED);
     1766     9127        %EJECT;
PL6.E3A0      #007=VMA$GET_ADD_RECORD File=VMA$SUBR.:VMB6TSI                     WED 08/20/97 15:04 Page:291
     1767     9128        /*
     1768     9129             ***** Setup the key ...
     1769     9130        */
     1770     9131    1       CALL SETUP_KEY;
     1771     9132        /*
     1772     9133             ***** Read the address record ...
     1773     9134        */
     1774     9135    1       READ_ADDRESS.BUF_ = BUF_;
     1775     9136    1       READ_ADDRESS.V.DCB# = DCB#;
     1776     9137    1   READ_AGAIN:
     1777     9138    1       CALL M$READ (READ_ADDRESS) ALTRET(E_READ);
     1778     9139    1       RETURN;
     1779     9140        /**/
     1780     9141    1   E_READ:
     1781     9142    1       IF B$TCB.ALT$ -> B$ALT.ERR.CODE = %E$LD
     1782     9143    1       THEN
     1783     9144    2       DO;                          /* Enlarge the segment and try again */
     1784     9145    2           CALL VMA$ENLARGE_SEGMENT (BUF_,1024) ALTRET(E_PMME);
     1785     9146    2           READ_ADDRESS.BUF_ = BUF_;
     1786     9147    2           GOTO READ_AGAIN;
     1787     9148    2       END;
     1788     9149    1       IF B$TCB.ALT$ -> B$ALT.ERR.CODE = %E$NOFILE
     1789     9150    1       THEN
     1790     9151    2       DO;                          /* Report that folder doesn't exist */
     1791     9152    2           ALTRETURN;
     1792     9153    2       END;
     1793     9154        /**/
     1794     9155    1   E_PMME:
     1795     9156    1       ALTRETURN;
     1796     9157        %EJECT;
PL6.E3A0      #007=VMA$GET_ADD_RECORD File=VMA$SUBR.:VMB6TSI                     WED 08/20/97 15:04 Page:292
     1797     9158        /*F*
     1798     9159             NAME: VMA$PUT_ADD_RECORD
     1799     9160             PURPOSE:
     1800     9161                   To write the specified address record into the specified file.
     1801     9162             DESCRIPTION:
     1802     9163                   This routine has three parameters:
     1803     9164                      TYPE   - type of record to write.
     1804     9165                      BUF_   - vector of area to read/write info to/from.
     1805     9166                      DCB#   - dcb which points to the file to access.
     1806     9167                       NUMBER - Optional message number, default is 0.
     1807     9168        */
     1808     9169    1   VMA$PUT_ADD_RECORD: ENTRY(TYPE,BUF_,DCB#,NUMBER) ALTRET;
     1809     9170        %EJECT;
PL6.E3A0      #007=VMA$GET_ADD_RECORD File=VMA$SUBR.:VMB6TSI                     WED 08/20/97 15:04 Page:293
     1810     9171        /*
     1811     9172             ***** Setup the key ...
     1812     9173        */
     1813     9174    1       CALL SETUP_KEY;
     1814     9175        /*
     1815     9176             ***** Write the address record ...
     1816     9177        */
     1817     9178    1       WRITE_ADDRESS.BUF_ = BUF_;
     1818     9179    1       WRITE_ADDRESS.BUF_.BOUND = (VBASE(BUF_) -> VM_ADD_HEAD.ADDRESS_SIZE * 4) - 1;
     1819     9180    1       WRITE_ADDRESS.V.DCB# = DCB#;
     1820     9181    1       CALL M$WRITE (WRITE_ADDRESS) ALTRET(E_WRITE);
     1821     9182    1       RETURN;
     1822     9183        /**/
     1823     9184    1   E_WRITE:
     1824     9185    1       ALTRETURN;
     1825     9186        %EJECT;
PL6.E3A0      #007=VMA$GET_ADD_RECORD File=VMA$SUBR.:VMB6TSI                     WED 08/20/97 15:04 Page:294
     1826     9187        /*F*
     1827     9188             NAME: VMA$DEL_ADD_RECORD
     1828     9189             PURPOSE:
     1829     9190                   To delete the specified address record from the specified file.
     1830     9191             DESCRIPTION:
     1831     9192                   This routine has three parameters:
     1832     9193                      TYPE   - type of record to delete.
     1833     9194                      BUF_   - unused.
     1834     9195                      DCB#   - dcb which points to the file to access.
     1835     9196                       NUMBER - Optional message number, default is 0.
     1836     9197        */
     1837     9198    1   VMA$DEL_ADD_RECORD: ENTRY(TYPE,BUF_,DCB#,NUMBER) ALTRET;
     1838     9199        %EJECT;
PL6.E3A0      #007=VMA$GET_ADD_RECORD File=VMA$SUBR.:VMB6TSI                     WED 08/20/97 15:04 Page:295
     1839     9200        /*
     1840     9201             ***** Setup the key ...
     1841     9202        */
     1842     9203    1       CALL SETUP_KEY;
     1843     9204        /*
     1844     9205             ***** Delete the address record ...
     1845     9206        */
     1846     9207    1       DELETE_ADDRESS.V.DCB# = DCB#;
     1847     9208    1       CALL M$DELREC (DELETE_ADDRESS) ALTRET(E_DELETE);
     1848     9209    1       RETURN;
     1849     9210        /**/
     1850     9211    1   E_DELETE:
     1851     9212    1       ALTRETURN;
     1852     9213        %EJECT;
PL6.E3A0      #007=VMA$GET_ADD_RECORD File=VMA$SUBR.:VMB6TSI                     WED 08/20/97 15:04 Page:296
     1853     9214    1   SETUP_KEY: PROC;
     1854     9215    2       VM_INFOKEY.TYPE = TYPE;
     1855     9216    2       IF ADDR(NUMBER) = ADDR(NIL) THEN VM_INFOKEY.MESSAGE_NUMBER = 0;
     1856     9217    2       ELSE VM_INFOKEY.MESSAGE_NUMBER = NUMBER;
     1857     9218    2       RETURN;
     1858     9219    2   END SETUP_KEY;
     1859     9220    1   END VMA$GET_ADD_RECORD;
     1860     9221        %EOD;

PL6.E3A0      #007=VMA$GET_ADD_RECORD File=VMA$SUBR.:VMB6TSI                     WED 08/20/97 15:04 Page:297
--  Include file information  --

   B_MACROS_C.:LIB_E05  is referenced.
   VM_DATA_R.:VMB6TOU  cannot be made into a system file and is referenced.
   VM_MACRO_C.:VMB6TOU  is referenced.
   CP_6_SUBS.:LIB_E05  is referenced.
   CP_6_C.:LIB_E05  is referenced.
   CP_6.:LIB_E05  cannot be made into a system file and is referenced.
   B_ERRORS_C.:LIB_E05  is referenced.
      No diagnostics issued in procedure VMA$GET_ADD_RECORD.

   Procedure VMA$GET_ADD_RECORD requires 90 words for executable code.
   Procedure VMA$GET_ADD_RECORD requires 12 words of local(AUTO) storage.

PL6.E3A0      #007=VMA$GET_ADD_RECORD File=VMA$SUBR.:VMB6TSI                     WED 08/20/97 15:04 Page:298

 Object Unit name= VMA$GET_ADD_RECORD                         File name= VMA$SUBR.:VMB6TOU
 UTS= AUG 20 '97 15:04:00.36 WED                              Compiler= PL-6/E31         Sev=      00
 SharedLib= :SHARED_SYSTEM                                    Alt SharedLib=


    ****  Control sections  ****

 Sect   Type Bound  Init  Size OctSiz  Section name(segment info)
    0   DCB   even  none     0      0  M$UC
    1   DCB   even  none     0      0  M$MAIL_FILE
    2   DCB   even  none     0      0  M$MAIL_CENTRAL
    3   DCB   even  none     0      0  M$MAIL_GLOBAL
    4   DCB   even  none     0      0  M$WORK
    5   DCB   even  none     0      0  M$MAIL_COMGROUP
    6   DCB   even  none     0      0  M$DO
    7   DCB   even  none     0      0  M$LO
    8   DCB   even  none     0      0  M$ME
    9   DCB   even  none     0      0  M$NODE
   10   DCB   even  none     0      0  M$SI
   11   Data  even  none    38     46  VMA$GET_ADD_RECORD
   12   Proc  even  none    90    132  VMA$GET_ADD_RECORD
   13  RoData even  none     6      6  VMA$GET_ADD_RECORD

    ****  Entry defs  ****

                              Check   Calling
                             calling  sequence
  Sect OctLoc Primary Altret sequence   type   Parms  Name
    12      0   yes    yes     yes      Std        4  VMA$GET_ADD_RECORD
    12     44          yes     yes      Std        4  VMA$PUT_ADD_RECORD
    12     74          yes     yes      Std        4  VMA$DEL_ADD_RECORD
PL6.E3A0      #007=VMA$GET_ADD_RECORD File=VMA$SUBR.:VMB6TSI                     WED 08/20/97 15:04 Page:299

  ****  Entry refs  ****

         Check        Calling
        calling       sequence
Altret sequence SRef   type   Args  Name
 yes     yes           Std       2 VMA$ENLARGE_SEGMENT
                       nStd      0 X66_AUTO_4
                       nStd      0 X66_ARET
                       nStd      0 X66_AALT

  ****  Data refs  ****

  Flags:  r = read only, s = secondary
Flgs Name                             Flgs Name                             Flgs Name
     M$UC                             r    VM_HEADER$                       r    VM_PROFILE$
r    VM_ADDLIST$                      r    VM_ADDREC$                       r    VM_WORK$
r    VM_SELECT$                       r    VM_PARSEAREA$                    r    VM_INPUT$
r    VM_COPY$                              VM_ENCLLIST$                          VM_ENCLREC$
     VM_HEADER_                            VM_HEADER_INIT_                       VM_PROFILE_
     VM_ADDLIST_                           VM_ADDREC_                            VM_WORK_
     VM_SELECT_                            VM_PARSEAREA_                         VM_INPUT_
     VM_COPY_                              VM_ENCLLIST_                          VM_ENCLREC_
     M$MAIL_FILE                           M$MAIL_CENTRAL                        M$MAIL_GLOBAL
     M$WORK                                M$MAIL_COMGROUP                       M$DO
     M$LO                                  M$ME                                  M$NODE
     M$SI                                  M$MAIL_FILE_NUM                       M$MAIL_CENTRAL_NUM
     M$MAIL_GLOBAL_NUM                     M$WORK_NUM                            M$MAIL_COMGROUP_NUM
     M$DO_NUM                              M$ME_NUM                              M$LO_NUM
     M$SI_NUM                              M$NODE_NUM                       r    B$JIT$
r    B$TCB$                                VM_MAIL_ACCT                          VM_NAME_MAP_NAME
     ERRMSG_FID                            VM_SEND_FILE_NAME                     VM_FORWARD_FILE_NAME
     VM_FORWARD_ENCL_NAME                  VM_FORWARD_FILE_PASS                  VM_MAILCG_NAME
     VM_SITENAME                           VM_MAILCG_SETSTA
PL6.E3A0      #007=VMA$GET_ADD_RECORD File=VMA$SUBR.:VMB6TSI                     WED 08/20/97 15:04 Page:300

  ****  Segment refs  ****

  Flags:  r = read only, s = secondary
Flgs Name                             Flgs Name                             Flgs Name
     ISSID                                 NULLSID
PL6.E3A0      #007=VMA$GET_ADD_RECORD File=VMA$SUBR.:VMB6TSI                     WED 08/20/97 15:04 Page:301


     1719        1        /*T***********************************************************/
     1720        2        /*T*                                                         */
     1721        3        /*T* Copyright (c) Bull HN Information Systems Inc., 1997    */
     1722        4        /*T*                                                         */
     1723        5        /*T***********************************************************/
     1724        6        /*X* DMC,PLM=4,IND=4,CTI=2,DTI=0,ENI=0,ECI=0,CSI=0,DCI=4 */
     1725        7        /*X* DMC,PLM=4,IND=4,CTI=2,DTI=0,ENI=0,ECI=0,CSI=0,DCI=4 */
     1726        8        /*F*
     1727        9             NAME: VMA$GET_ADD_RECORD
     1728       10             PURPOSE:
     1729       11                   To read the specified address record from the specified file.
     1730       12             DESCRIPTION:
     1731       13                   The purpose of these routines is to manipulate ADDRESS
     1732       14                   records. That is, records passed between SEND and MAILMAN
     1733       15                   with a TYPE of VM_TYPE_TO, VM_TYPE_C and VM_TYPE_BC.
     1734       16
     1735       17                   This routine has three parameters:
     1736       18                      TYPE   - type of record to read.
     1737       19                      BUF_   - vector of area to read/write info to/from.
     1738       20                      DCB#   - dcb which points to the file to access.
     1739       21                       NUMBER - Optional message number, default is 0.
     1740       22        */
     1741       23        VMA$GET_ADD_RECORD: PROC (TYPE,BUF_,DCB#,NUMBER) ALTRET;

     23 12 000000   000000 700200 xent  VMA$GET_ADD* TSX0  ! X66_AUTO_4
        12 000001   000014 000004                    ZERO    12,4

     1742       24        /***** Include files *****/
     1743       25          %INCLUDE B_ERRORS_C;
     1744     1152          %INCLUDE CP_6;
     1745     6711          %INCLUDE CP_6_SUBS;
     1746     7251          %INCLUDE VM_MACRO_C;
     1747     8519          %INCLUDE VM_DATA_R;
     1748     8950        /***** Parameters *****/
     1749     8951    1   DCL TYPE UBIN WORD;
     1750     8952    1   DCL BUF_ VECTOR;
PL6.E3A0      #007=VMA$GET_ADD_RECORD File=VMA$SUBR.:VMB6TSI                     WED 08/20/97 15:04 Page:302
     1751     8953    1   DCL DCB# UBIN WORD;
     1752     8954    1   DCL NUMBER UBIN WORD;
     1753     8955        /***** Based structures *****/
     1754     8956          %B$TCB (STCLASS="BASED(B$TCB$)");
     1755     8959          %B$ALT;
     1756     8967        /***** External routines *****/
     1757     8968    1   DCL VMA$ENLARGE_SEGMENT ENTRY(2) ALTRET;
     1758     8969        /***** Fpts *****/
     1759     8970          %FPT_DELREC (FPTN=DELETE_ADDRESS,KEY=VM_INFOKEY);
     1760     8989          %FPT_READ (FPTN=READ_ADDRESS,KEYS=YES,KEY=VM_INFOKEY);
     1761     9028          %FPT_WRITE (FPTN=WRITE_ADDRESS,ONEWKEY=YES,KEY=VM_INFOKEY);
     1762     9059        /***** Mail structures *****/
     1763     9060          %VM_KEYTYPES;
     1764     9081          %VM_INFOKEY (STCLASS=STATIC);
     1765     9098          %VM_ADD_HEAD (STCLASS=BASED);
     1766     9127        %EJECT;
PL6.E3A0      #007=VMA$GET_ADD_RECORD File=VMA$SUBR.:VMB6TSI                     WED 08/20/97 15:04 Page:303
     1767     9128        /*
     1768     9129             ***** Setup the key ...
     1769     9130        */
     1770     9131    1       CALL SETUP_KEY;

   9131 12 000002   000111 701000 12                 TSX1    SETUP_KEY
        12 000003   000000 011000                    NOP     0

     1771     9132        /*
     1772     9133             ***** Read the address record ...
     1773     9134        */
     1774     9135    1       READ_ADDRESS.BUF_ = BUF_;

   9135 12 000004   200004 470500                    LDP0    @BUF_,,AUTO
        12 000005   000000 237100                    LDAQ    0,,PR0
        12 000006   000016 757000 11                 STAQ    READ_ADDRESS+4

     1775     9136    1       READ_ADDRESS.V.DCB# = DCB#;

   9136 12 000007   200005 471500                    LDP1    @DCB#,,AUTO
        12 000010   100000 720100                    LXL0    0,,PR1
        12 000011   000022 740000 11                 STX0    READ_ADDRESS+8

     1776     9137    1   READ_AGAIN:
     1777     9138    1       CALL M$READ (READ_ADDRESS) ALTRET(E_READ);

   9138 12 000012   000012 630400 11    READ_AGAIN   EPPR0   READ_ADDRESS
        12 000013   440000 713400                    CLIMB   alt,read
        12 000014   401400 401760                    pmme    nvectors=4
        12 000015   000017 702000 12                 TSX2    E_READ

     1778     9139    1       RETURN;

   9139 12 000016   000000 702200 xent               TSX2  ! X66_ARET

     1779     9140        /**/
     1780     9141    1   E_READ:
PL6.E3A0      #007=VMA$GET_ADD_RECORD File=VMA$SUBR.:VMB6TSI                     WED 08/20/97 15:04 Page:304
     1781     9142    1       IF B$TCB.ALT$ -> B$ALT.ERR.CODE = %E$LD

   9142 12 000017   000000 470400 xsym  E_READ       LDP0    B$TCB$
        12 000020   000000 471500                    LDP1    0,,PR0
        12 000021   100102 236100                    LDQ     66,,PR1
        12 000022   377770 376007                    ANQ     131064,DL
        12 000023   000070 116007                    CMPQ    56,DL
        12 000024   000040 601000 12                 TNZ     s:9149

     1782     9143    1       THEN
     1783     9144    2       DO;                          /* Enlarge the segment and try again */

     1784     9145    2           CALL VMA$ENLARGE_SEGMENT (BUF_,1024) ALTRET(E_PMME);

   9145 12 000025   000002 236000 13                 LDQ     2
        12 000026   200004 235100                    LDA     @BUF_,,AUTO
        12 000027   200012 757100                    STAQ    @NUMBER+4,,AUTO
        12 000030   200012 630500                    EPPR0   @NUMBER+4,,AUTO
        12 000031   000000 631400 13                 EPPR1   0
        12 000032   000000 701000 xent               TSX1    VMA$ENLARGE_SEGMENT
        12 000033   000043 702000 12                 TSX2    E_PMME

     1785     9146    2           READ_ADDRESS.BUF_ = BUF_;

   9146 12 000034   200004 470500                    LDP0    @BUF_,,AUTO
        12 000035   000000 237100                    LDAQ    0,,PR0
        12 000036   000016 757000 11                 STAQ    READ_ADDRESS+4

     1786     9147    2           GOTO READ_AGAIN;

   9147 12 000037   000012 710000 12                 TRA     READ_AGAIN

     1787     9148    2       END;
     1788     9149    1       IF B$TCB.ALT$ -> B$ALT.ERR.CODE = %E$NOFILE

   9149 12 000040   001610 116007                    CMPQ    904,DL
        12 000041   000043 601000 12                 TNZ     E_PMME
PL6.E3A0      #007=VMA$GET_ADD_RECORD File=VMA$SUBR.:VMB6TSI                     WED 08/20/97 15:04 Page:305

     1789     9150    1       THEN
     1790     9151    2       DO;                          /* Report that folder doesn't exist */

     1791     9152    2           ALTRETURN;

   9152 12 000042   000000 702200 xent               TSX2  ! X66_AALT

     1792     9153    2       END;
     1793     9154        /**/
     1794     9155    1   E_PMME:
     1795     9156    1       ALTRETURN;

   9156 12 000043   000000 702200 xent  E_PMME       TSX2  ! X66_AALT

     1796     9157        %EJECT;
PL6.E3A0      #007=VMA$GET_ADD_RECORD File=VMA$SUBR.:VMB6TSI                     WED 08/20/97 15:04 Page:306
     1797     9158        /*F*
     1798     9159             NAME: VMA$PUT_ADD_RECORD
     1799     9160             PURPOSE:
     1800     9161                   To write the specified address record into the specified file.
     1801     9162             DESCRIPTION:
     1802     9163                   This routine has three parameters:
     1803     9164                      TYPE   - type of record to write.
     1804     9165                      BUF_   - vector of area to read/write info to/from.
     1805     9166                      DCB#   - dcb which points to the file to access.
     1806     9167                       NUMBER - Optional message number, default is 0.
     1807     9168        */
     1808     9169    1   VMA$PUT_ADD_RECORD: ENTRY(TYPE,BUF_,DCB#,NUMBER) ALTRET;

   9169 12 000044   000000 700200 xent  VMA$PUT_ADD* TSX0  ! X66_AUTO_4
        12 000045   000014 000004                    ZERO    12,4

     1809     9170        %EJECT;
PL6.E3A0      #007=VMA$GET_ADD_RECORD File=VMA$SUBR.:VMB6TSI                     WED 08/20/97 15:04 Page:307
     1810     9171        /*
     1811     9172             ***** Setup the key ...
     1812     9173        */
     1813     9174    1       CALL SETUP_KEY;

   9174 12 000046   000111 701000 12                 TSX1    SETUP_KEY
        12 000047   000000 011000                    NOP     0

     1814     9175        /*
     1815     9176             ***** Write the address record ...
     1816     9177        */
     1817     9178    1       WRITE_ADDRESS.BUF_ = BUF_;

   9178 12 000050   200004 470500                    LDP0    @BUF_,,AUTO
        12 000051   000000 237100                    LDAQ    0,,PR0
        12 000052   000034 757000 11                 STAQ    WRITE_ADDRESS+4

     1818     9179    1       WRITE_ADDRESS.BUF_.BOUND = (VBASE(BUF_) -> VM_ADD_HEAD.ADDRESS_SIZE * 4) - 1;

   9179 12 000053   000001 471500                    LDP1    1,,PR0
        12 000054   100000 236100                    LDQ     0,,PR1
        12 000055   000002 736000                    QLS     2
        12 000056   000001 136007                    SBLQ    1,DL
        12 000057   000020 736000                    QLS     16
        12 000060   000034 676000 11                 ERQ     WRITE_ADDRESS+4
        12 000061   000003 376000 13                 ANQ     3
        12 000062   000034 656000 11                 ERSQ    WRITE_ADDRESS+4

     1819     9180    1       WRITE_ADDRESS.V.DCB# = DCB#;

   9180 12 000063   200005 471500                    LDP1    @DCB#,,AUTO
        12 000064   100000 720100                    LXL0    0,,PR1
        12 000065   000040 740000 11                 STX0    WRITE_ADDRESS+8

     1820     9181    1       CALL M$WRITE (WRITE_ADDRESS) ALTRET(E_WRITE);

   9181 12 000066   000030 630400 11                 EPPR0   WRITE_ADDRESS
PL6.E3A0      #007=VMA$GET_ADD_RECORD File=VMA$SUBR.:VMB6TSI                     WED 08/20/97 15:04 Page:308
        12 000067   440001 713400                    CLIMB   alt,write
        12 000070   401400 401760                    pmme    nvectors=4
        12 000071   000073 702000 12                 TSX2    E_WRITE

     1821     9182    1       RETURN;

   9182 12 000072   000000 702200 xent               TSX2  ! X66_ARET

     1822     9183        /**/
     1823     9184    1   E_WRITE:
     1824     9185    1       ALTRETURN;

   9185 12 000073   000000 702200 xent  E_WRITE      TSX2  ! X66_AALT

     1825     9186        %EJECT;
PL6.E3A0      #007=VMA$GET_ADD_RECORD File=VMA$SUBR.:VMB6TSI                     WED 08/20/97 15:04 Page:309
     1826     9187        /*F*
     1827     9188             NAME: VMA$DEL_ADD_RECORD
     1828     9189             PURPOSE:
     1829     9190                   To delete the specified address record from the specified file.
     1830     9191             DESCRIPTION:
     1831     9192                   This routine has three parameters:
     1832     9193                      TYPE   - type of record to delete.
     1833     9194                      BUF_   - unused.
     1834     9195                      DCB#   - dcb which points to the file to access.
     1835     9196                       NUMBER - Optional message number, default is 0.
     1836     9197        */
     1837     9198    1   VMA$DEL_ADD_RECORD: ENTRY(TYPE,BUF_,DCB#,NUMBER) ALTRET;

   9198 12 000074   000000 700200 xent  VMA$DEL_ADD* TSX0  ! X66_AUTO_4
        12 000075   000014 000004                    ZERO    12,4

     1838     9199        %EJECT;
PL6.E3A0      #007=VMA$GET_ADD_RECORD File=VMA$SUBR.:VMB6TSI                     WED 08/20/97 15:04 Page:310
     1839     9200        /*
     1840     9201             ***** Setup the key ...
     1841     9202        */
     1842     9203    1       CALL SETUP_KEY;

   9203 12 000076   000111 701000 12                 TSX1    SETUP_KEY
        12 000077   000000 011000                    NOP     0

     1843     9204        /*
     1844     9205             ***** Delete the address record ...
     1845     9206        */
     1846     9207    1       DELETE_ADDRESS.V.DCB# = DCB#;

   9207 12 000100   200005 470500                    LDP0    @DCB#,,AUTO
        12 000101   000000 720100                    LXL0    0,,PR0
        12 000102   000010 740000 11                 STX0    DELETE_ADDRESS+8

     1847     9208    1       CALL M$DELREC (DELETE_ADDRESS) ALTRET(E_DELETE);

   9208 12 000103   000000 630400 11                 EPPR0   DELETE_ADDRESS
        12 000104   440002 713400                    CLIMB   alt,+16386
        12 000105   401400 401760                    pmme    nvectors=4
        12 000106   000110 702000 12                 TSX2    E_DELETE

     1848     9209    1       RETURN;

   9209 12 000107   000000 702200 xent               TSX2  ! X66_ARET

     1849     9210        /**/
     1850     9211    1   E_DELETE:
     1851     9212    1       ALTRETURN;

   9212 12 000110   000000 702200 xent  E_DELETE     TSX2  ! X66_AALT

     1852     9213        %EJECT;
PL6.E3A0      #007=VMA$GET_ADD_RECORD File=VMA$SUBR.:VMB6TSI                     WED 08/20/97 15:04 Page:311
     1853     9214    1   SETUP_KEY: PROC;

   9214 12 000111   200010 741300       SETUP_KEY    STX1  ! @NUMBER+2,,AUTO

     1854     9215    2       VM_INFOKEY.TYPE = TYPE;

   9215 12 000112   200003 470500                    LDP0    @TYPE,,AUTO
        12 000113   000000 236100                    LDQ     0,,PR0
        12 000114   000022 736000                    QLS     18
        12 000115   000044 552020 11                 STBQ    VM_INFOKEY,'20'O

     1855     9216    2       IF ADDR(NUMBER) = ADDR(NIL) THEN VM_INFOKEY.MESSAGE_NUMBER = 0;

   9216 12 000116   200006 236100                    LDQ     @NUMBER,,AUTO
        12 000117   000004 116000 13                 CMPQ    4
        12 000120   000125 601000 12                 TNZ     s:9217

   9216 12 000121   000000 100400                    MLR     fill='000'O
        12 000122   000005 000004 13                 ADSC9   5                        cn=0,n=4
        12 000123   000044 400004 11                 ADSC9   VM_INFOKEY               cn=2,n=4
        12 000124   000131 710000 12                 TRA     s:9218

     1856     9217    2       ELSE VM_INFOKEY.MESSAGE_NUMBER = NUMBER;

   9217 12 000125   200006 471500                    LDP1    @NUMBER,,AUTO
        12 000126   000000 100500                    MLR     fill='000'O
        12 000127   100000 000004                    ADSC9   0,,PR1                   cn=0,n=4
        12 000130   000044 400004 11                 ADSC9   VM_INFOKEY               cn=2,n=4

     1857     9218    2       RETURN;

   9218 12 000131   000001 702211                    TSX2  ! 1,X1

DELETE_ADDRESS
 Sect OctLoc
  11     000   000001 777640   000010 006000   000001 377640   000044 006000    .............$..
  11     004   000000 177640   000000 006014   000000 177640   000000 006014    ................
PL6.E3A0      #007=VMA$GET_ADD_RECORD File=VMA$SUBR.:VMB6TSI                     WED 08/20/97 15:04 Page:312
  11     010   000000 000000   000000 000000                                    ........

READ_ADDRESS
 Sect OctLoc
  11     012   000005 777640   000022 006000   000001 377640   000044 006000    .............$..
  11     016   000000 177640   000000 006014   000000 177640   000000 006014    ................
  11     022   000000 600000   000000 000000   000000 000000   000000 000000    ................
  11     026   000000 000000   000000 000000                                    ........

WRITE_ADDRESS
 Sect OctLoc
  11     030   000003 777640   000040 006000   000001 377640   000044 006000    ..... .......$..
  11     034   000000 177640   000000 006014   000000 177640   000000 006014    ................
  11     040   000000 400400   000000 000000   000000 000000   000000 000000    ................

VM_INFOKEY
 Sect OctLoc
  11     044   005000 000000   000000 ******                                    ........

(unnamed)
 Sect OctLoc
  13     000   000002 000000   000000 002000   000001 006000   777777 600000    ................
  13     004   000000 006014   000000 000000                                    ........
     1858     9219    2   END SETUP_KEY;
     1859     9220    1   END VMA$GET_ADD_RECORD;
     1860     9221        %EOD;

PL6.E3A0      #007=VMA$GET_ADD_RECORD File=VMA$SUBR.:VMB6TSI                     WED 08/20/97 15:04 Page:313
--  Include file information  --

   B_MACROS_C.:LIB_E05  is referenced.
   VM_DATA_R.:VMB6TOU  cannot be made into a system file and is referenced.
   VM_MACRO_C.:VMB6TOU  is referenced.
   CP_6_SUBS.:LIB_E05  is referenced.
   CP_6_C.:LIB_E05  is referenced.
   CP_6.:LIB_E05  cannot be made into a system file and is referenced.
   B_ERRORS_C.:LIB_E05  is referenced.
      No diagnostics issued in procedure VMA$GET_ADD_RECORD.
PL6.E3A0      #007=VMA$GET_ADD_RECORD File=VMA$SUBR.:VMB6TSI                     WED 08/20/97 15:04 Page:314

 **** Variables and constants ****

  ****  Section 011  Data  VMA$GET_ADD_RECORD

  ****  Scalars and arrays  ****
OctLoc.c.b A Datatyp(siz) R M Lvl/name                 OctLoc.c.b A Datatyp(siz) R M Lvl/name

     0-0-0/d STRC(360)   r     1 DELETE_ADDRESS            12-0-0/d STRC(504)   r     1 READ_ADDRESS
    44-0-0/c STRC(54)    r     1 VM_INFOKEY                30-0-0/d STRC(432)   r     1 WRITE_ADDRESS

  ****  Auto variables  ****

  ****  Scalars and arrays  ****
OctLoc.c.b A Datatyp(siz) R M Lvl/name                 OctLoc.c.b A Datatyp(siz) R M Lvl/name

     4-0-0/w PTR         r     1 @BUF_                      5-0-0/w PTR         r     1 @DCB#
     6-0-0/w PTR         r     1 @NUMBER                    3-0-0/w PTR         r     1 @TYPE
    *0-0-0/d VECT        r     1 BUF_                      *0-0-0/w UBIN        r     1 DCB#
    *0-0-0/w UBIN        r     1 NUMBER                    *0-0-0/w UBIN        r     1 TYPE

  ****  SYMREF variables  ****

  ****  Scalars and arrays  ****
OctLoc.c.b A Datatyp(siz) R M Lvl/name                 OctLoc.c.b A Datatyp(siz) R M Lvl/name

     0-0-0/w PTR               1 B$JIT$                     0-0-0/w PTR         r     1 B$TCB$
     0-0-0/c ASTR(9)     r     1 ERRMSG_FID                 0-0-0/w UBIN              1 M$DO_NUM
     0-0-0/w UBIN              1 M$LO_NUM                   0-0-0/w UBIN              1 M$MAIL_CENTRAL_NUM
     0-0-0/w UBIN              1 M$MAIL_COMGROUP_NUM        0-0-0/w UBIN              1 M$MAIL_FILE_NUM
     0-0-0/w UBIN              1 M$MAIL_GLOBAL_NUM          0-0-0/w UBIN              1 M$ME_NUM
     0-0-0/w UBIN              1 M$NODE_NUM                 0-0-0/w UBIN              1 M$SI_NUM
     0-0-0/w UBIN              1 M$WORK_NUM                 0-0-0/w PTR               1 VM_ADDLIST$
     0-0-0/d VECT              1 VM_ADDLIST_                0-0-0/w PTR               1 VM_ADDREC$
     0-0-0/d VECT              1 VM_ADDREC_                 0-0-0/w PTR               1 VM_COPY$
     0-0-0/d VECT              1 VM_COPY_                   0-0-0/w PTR               1 VM_ENCLLIST$
     0-0-0/d VECT              1 VM_ENCLLIST_               0-0-0/w PTR               1 VM_ENCLREC$
     0-0-0/d VECT              1 VM_ENCLREC_                0-0-0/c STRC(270)         1 VM_FORWARD_ENCL_NAME
PL6.E3A0      #007=VMA$GET_ADD_RECORD File=VMA$SUBR.:VMB6TSI                     WED 08/20/97 15:04 Page:315
     0-0-0/c STRC(270)         1 VM_FORWARD_FILE_NAME       0-0-0/c STRC(72)          1 VM_FORWARD_FILE_PASS
     0-0-0/w PTR               1 VM_HEADER$                 0-0-0/d VECT              1 VM_HEADER_
     0-0-0/d VECT              1 VM_HEADER_INIT_            0-0-0/w PTR               1 VM_INPUT$
     0-0-0/d VECT              1 VM_INPUT_                  0-0-0/c STRC(72)          1 VM_MAILCG_NAME
     0-0-0/w STRC(432)         1 VM_MAILCG_SETSTA           0-0-0/c STRC(72)          1 VM_MAIL_ACCT
     0-0-0/c STRC(54)          1 VM_NAME_MAP_NAME           0-0-0/w PTR               1 VM_PARSEAREA$
     0-0-0/d VECT              1 VM_PARSEAREA_              0-0-0/w PTR               1 VM_PROFILE$
     0-0-0/d VECT              1 VM_PROFILE_                0-0-0/w PTR               1 VM_SELECT$
     0-0-0/d VECT              1 VM_SELECT_                 0-0-0/c STRC(288)         1 VM_SEND_FILE_NAME
     0-0-0/c CHAR(8)           1 VM_SITENAME                0-0-0/w PTR               1 VM_WORK$
     0-0-0/d VECT              1 VM_WORK_

  ****  BASED and DCB variables  ****

  ****  Scalars and arrays  ****
OctLoc.c.b A Datatyp(siz) R M Lvl/name                 OctLoc.c.b A Datatyp(siz) R M Lvl/name

     0-0-0/w STRC(2448)  r     1 B$ALT                      0-0-0/w STRC(144)   r     1 B$TCB
     0-0-0N  NULL        r     1 M$DO                       0-0-0N  NULL        r     1 M$LO
     0-0-0N  NULL        r     1 M$MAIL_CENTRAL             0-0-0N  NULL        r     1 M$MAIL_COMGROUP
     0-0-0N  NULL        r     1 M$MAIL_FILE                0-0-0N  NULL        r     1 M$MAIL_GLOBAL
     0-0-0N  NULL        r     1 M$ME                       0-0-0N  NULL        r     1 M$NODE
     0-0-0N  NULL        r     1 M$SI                       0-0-0N  NULL        r     1 M$UC
     0-0-0N  NULL        r     1 M$WORK                     0-0-0/w STRC(252)   r     1 VM_ADD_HEAD
     0-0-0/c ASTR(9)     r     1 X$STRING


   Procedure VMA$GET_ADD_RECORD requires 90 words for executable code.
   Procedure VMA$GET_ADD_RECORD requires 12 words of local(AUTO) storage.
PL6.E3A0      #007=VMA$GET_ADD_RECORD File=VMA$SUBR.:VMB6TSI                     WED 08/20/97 15:04 Page:316
          *** CROSS REFERENCE LISTING ***
**     DENOTES     IDENTIFIER DEFINITION
<<                 IDENTIFIER'S VALUE SET
>>                 IDENTIFIER'S VALUE USED
<>                 IDENTIFIER SET AND/OR USED
--                 IDENTIFIER REFERENCED
PL6.E3A0      #007=VMA$GET_ADD_RECORD File=VMA$SUBR.:VMB6TSI                     WED 08/20/97 15:04 Page:317
          MINI XREF LISTING

B$ALT.CODE
      8961**DCL      8961--REDEF    8962--REDEF    8962--REDEF
B$ALT.ERR.CODE
      8963**DCL      9142>>IF       9149>>IF
B$ALT.ERR.ERR#
      8963**DCL      8963--REDEF
B$ALT.EVID
      8962**DCL      8962--REDEF    8962--REDEF
B$TCB.ALT$
      8957**DCL      9142>>IF       9149>>IF
B$TCB$
      8727**DCL      8957--IMP-PTR  9142>>IF       9149>>IF
BUF_
      8952**DCL        23--PROC     9135>>ASSIGN   9145<>CALL     9146>>ASSIGN   9169--ENTRY    9178>>ASSIGN
      9179>>ASSIGN   9198--ENTRY
DCB#
      8953**DCL        23--PROC     9136>>ASSIGN   9169--ENTRY    9180>>ASSIGN   9198--ENTRY    9207>>ASSIGN
DELETE_ADDRESS
      8981**DCL      9208<>CALL
DELETE_ADDRESS.V
      8984**DCL      8981--DCLINIT
DELETE_ADDRESS.V.DCB#
      8985**DCL      9207<<ASSIGN
ERRMSG_FID.L#
      8795**DCL      8795--IMP-SIZ
E_DELETE
      9212**LABEL    9208--CALLALT
E_PMME
      9156**LABEL    9145--CALLALT
E_READ
      9142**LABEL    9138--CALLALT
E_WRITE
PL6.E3A0      #007=VMA$GET_ADD_RECORD File=VMA$SUBR.:VMB6TSI                     WED 08/20/97 15:04 Page:318
      9185**LABEL    9181--CALLALT
M$DELREC
      6641**DCL-ENT  9208--CALL
M$READ
      6640**DCL-ENT  9138--CALL
M$WRITE
      6640**DCL-ENT  9181--CALL
NUMBER
      8954**DCL        23--PROC     9169--ENTRY    9198--ENTRY    9216--IF       9217>>ASSIGN
READ_ADDRESS
      9006**DCL      9138<>CALL
READ_ADDRESS.BUF_
      9008**DCL      9135<<ASSIGN   9146<<ASSIGN
READ_ADDRESS.STATION_
      9009**DCL      9010--REDEF
READ_ADDRESS.V
      9010**DCL      9006--DCLINIT
READ_ADDRESS.V.DCB#
      9010**DCL      9136<<ASSIGN
READ_ADDRESS.V.DVBYTE.REREAD#
      9021**DCL      9021--REDEF
READ_ADDRESS.V.INDX#
      9019**DCL      9019--REDEF
READ_AGAIN
      9138**LABEL    9147--GOTO
SETUP_KEY
      9214**PROC     9131--CALL     9174--CALL     9203--CALL
TYPE
      8951**DCL        23--PROC     9169--ENTRY    9198--ENTRY    9215>>ASSIGN
VMA$ENLARGE_SEGMENT
      8968**DCL-ENT  9145--CALL
VM_ADD_HEAD.ADDRESS_SIZE
      9109**DCL      9179>>ASSIGN
VM_INFOKEY
      9091**DCL      8981--DCLINIT  8982--DCLINIT  9006--DCLINIT  9007--DCLINIT  9045--DCLINIT
VM_INFOKEY.MESSAGE_NUMBER
PL6.E3A0      #007=VMA$GET_ADD_RECORD File=VMA$SUBR.:VMB6TSI                     WED 08/20/97 15:04 Page:319
      9095**DCL      9216<<ASSIGN   9217<<ASSIGN
VM_INFOKEY.TYPE
      9093**DCL      9215<<ASSIGN
WRITE_ADDRESS
      9045**DCL      9181<>CALL
WRITE_ADDRESS.BUF_
      9045**DCL      9178<<ASSIGN
WRITE_ADDRESS.BUF_.BOUND
      9045**DCL      9179<<ASSIGN
WRITE_ADDRESS.STATION_
      9047**DCL      9047--REDEF
WRITE_ADDRESS.V
      9048**DCL      9045--DCLINIT
WRITE_ADDRESS.V.DCB#
      9048**DCL      9180<<ASSIGN
WRITE_ADDRESS.V.DVBYTE.VFC#
      9054**DCL      9054--REDEF
X$STRING.SIZ
      8641**DCL      8642--IMP-SIZ

PL6.E3A0      #008=VMA$ENLARGE_SEGMENT File=VMA$SUBR.:VMB6TSI                    WED 08/20/97 15:04 Page:320
     1861        1        /*T***********************************************************/
     1862        2        /*T*                                                         */
     1863        3        /*T* Copyright (c) Bull HN Information Systems Inc., 1997    */
     1864        4        /*T*                                                         */
     1865        5        /*T***********************************************************/
     1866        6        /*X* DMC,PLM=4,IND=4,CTI=2,DTI=0,ENI=0,ECI=0,CSI=0,DCI=4 */
     1867        7        /*X* DMC,PLM=4,IND=4,CTI=2,DTI=0,ENI=0,ECI=0,CSI=0,DCI=4 */
     1868        8        /*F*
     1869        9             NAME: VMA$ENLARGE_SEGMENT
     1870       10             PURPOSE:
     1871       11                   To get memory in a specified data segment.
     1872       12             DESCRIPTION:
     1873       13                   This routine has two parameters.
     1874       14
     1875       15                   VECTOR_  - vector describing data segment to be enlarged.
     1876       16                   SIZE     - number of words to acquire. (optional. Default 1024)
     1877       17        */
     1878       18        VMA$ENLARGE_SEGMENT: PROC (VECTOR_, SIZE) ALTRET;
     1879       19        /***** Include files *****/
     1880       20          %INCLUDE CP_6;
     1881     5579          %INCLUDE CP_6_SUBS;
     1882     6119        /***** Parameters *****/
     1883     6120          %VLP_VECTOR(FPTN=VECTOR_,STCLASS=" ");
     1884     6135    1   DCL SIZE SBIN WORD;
     1885     6136        /***** Fpts *****/
     1886     6137          %FPT_GDS (FPTN=GET_MEMORY);
     1887     6153          %FPT_FDS (FPTN=REL_MEMORY);
     1888     6168        %EJECT;
PL6.E3A0      #008=VMA$ENLARGE_SEGMENT File=VMA$SUBR.:VMB6TSI                    WED 08/20/97 15:04 Page:321
     1889     6169    1       IF ADDR(SIZE) = ADDR(NIL)
     1890     6170    1       THEN                            /* Assume 1 page */
     1891     6171    1           GET_MEMORY.V.SEGSIZE# = 1024;
     1892     6172    1       ELSE                            /* Get as many as requested */
     1893     6173    1           GET_MEMORY.V.SEGSIZE# = SIZE;
     1894     6174    1       GET_MEMORY.RESULTS_ = VECTOR(VECTOR_);
     1895     6175    1       CALL M$GDS (GET_MEMORY) ALTRET(E_PMME);
     1896     6176    1       RETURN;
     1897     6177        %EJECT;
PL6.E3A0      #008=VMA$ENLARGE_SEGMENT File=VMA$SUBR.:VMB6TSI                    WED 08/20/97 15:04 Page:322
     1898     6178        /*F*
     1899     6179             NAME: VMA$SHRINK_SEGMENT
     1900     6180             PURPOSE:
     1901     6181                   To release memory in a specified data segment.
     1902     6182             DESCRIPTION:
     1903     6183                   This routine has two parameters.
     1904     6184
     1905     6185                   VECTOR_  - vector describing data segment to be shrunk.
     1906     6186                   SIZE     - number of words to release. (optional. Default all)
     1907     6187        */
     1908     6188    1   VMA$SHRINK_SEGMENT: ENTRY (VECTOR_, SIZE) ALTRET;
     1909     6189        /**/
     1910     6190    1       IF ADDR(SIZE) = ADDR(NIL)
     1911     6191    1       THEN                            /* Release entire segment */
     1912     6192    1           REL_MEMORY.V.SEGSIZE# = (VECTOR_.W1.VSIZE#+1)/4;
     1913     6193    1       ELSE                       /* Only release requested number of words */
     1914     6194    1           REL_MEMORY.V.SEGSIZE# = SIZE;
     1915     6195    1       REL_MEMORY.RESULTS_ = VECTOR(VECTOR_);
     1916     6196    1       CALL M$FDS (REL_MEMORY) ALTRET(E_PMME);
     1917     6197    1       RETURN;
     1918     6198        /**/
     1919     6199    1   E_PMME:
     1920     6200    1       ALTRETURN;
     1921     6201    1   END VMA$ENLARGE_SEGMENT;
     1922     6202        %EOD;

PL6.E3A0      #008=VMA$ENLARGE_SEGMENT File=VMA$SUBR.:VMB6TSI                    WED 08/20/97 15:04 Page:323
--  Include file information  --

   CP_6_SUBS.:LIB_E05  is referenced.
   CP_6_C.:LIB_E05  is referenced.
   CP_6.:LIB_E05  cannot be made into a system file and is referenced.
      No diagnostics issued in procedure VMA$ENLARGE_SEGMENT.

   Procedure VMA$ENLARGE_SEGMENT requires 44 words for executable code.
   Procedure VMA$ENLARGE_SEGMENT requires 6 words of local(AUTO) storage.

PL6.E3A0      #008=VMA$ENLARGE_SEGMENT File=VMA$SUBR.:VMB6TSI                    WED 08/20/97 15:04 Page:324

 Object Unit name= VMA$ENLARGE_SEGMENT                        File name= VMA$SUBR.:VMB6TOU
 UTS= AUG 20 '97 15:04:16.44 WED                              Compiler= PL-6/E31         Sev=      00
 SharedLib= :SHARED_SYSTEM                                    Alt SharedLib=


    ****  Control sections  ****

 Sect   Type Bound  Init  Size OctSiz  Section name(segment info)
    0   DCB   even  none     0      0  M$UC
    1   Data  even  none    12     14  VMA$ENLARGE_SEGMENT
    2   Proc  even  none    44     54  VMA$ENLARGE_SEGMENT
    3  RoData even  none     2      2  VMA$ENLARGE_SEGMENT

    ****  Entry defs  ****

                              Check   Calling
                             calling  sequence
  Sect OctLoc Primary Altret sequence   type   Parms  Name
     2      0   yes    yes     yes      Std        2  VMA$ENLARGE_SEGMENT
     2     23          yes     yes      Std        2  VMA$SHRINK_SEGMENT

  ****  Entry refs  ****

         Check        Calling
        calling       sequence
Altret sequence SRef   type   Args  Name
                       nStd      0 X66_AUTO_2
                       nStd      0 X66_ARET
                       nStd      0 X66_AALT

  ****  Data refs  ****

  Flags:  r = read only, s = secondary
Flgs Name                             Flgs Name                             Flgs Name
     M$UC
PL6.E3A0      #008=VMA$ENLARGE_SEGMENT File=VMA$SUBR.:VMB6TSI                    WED 08/20/97 15:04 Page:325

  ****  Segment refs  ****

  Flags:  r = read only, s = secondary
Flgs Name                             Flgs Name                             Flgs Name
     ISSID                                 NULLSID
PL6.E3A0      #008=VMA$ENLARGE_SEGMENT File=VMA$SUBR.:VMB6TSI                    WED 08/20/97 15:04 Page:326


     1861        1        /*T***********************************************************/
     1862        2        /*T*                                                         */
     1863        3        /*T* Copyright (c) Bull HN Information Systems Inc., 1997    */
     1864        4        /*T*                                                         */
     1865        5        /*T***********************************************************/
     1866        6        /*X* DMC,PLM=4,IND=4,CTI=2,DTI=0,ENI=0,ECI=0,CSI=0,DCI=4 */
     1867        7        /*X* DMC,PLM=4,IND=4,CTI=2,DTI=0,ENI=0,ECI=0,CSI=0,DCI=4 */
     1868        8        /*F*
     1869        9             NAME: VMA$ENLARGE_SEGMENT
     1870       10             PURPOSE:
     1871       11                   To get memory in a specified data segment.
     1872       12             DESCRIPTION:
     1873       13                   This routine has two parameters.
     1874       14
     1875       15                   VECTOR_  - vector describing data segment to be enlarged.
     1876       16                   SIZE     - number of words to acquire. (optional. Default 1024)
     1877       17        */
     1878       18        VMA$ENLARGE_SEGMENT: PROC (VECTOR_, SIZE) ALTRET;

     18  2 000000   000000 700200 xent  VMA$ENLARGE* TSX0  ! X66_AUTO_2
         2 000001   000006 000002                    ZERO    6,2

     1879       19        /***** Include files *****/
     1880       20          %INCLUDE CP_6;
     1881     5579          %INCLUDE CP_6_SUBS;
     1882     6119        /***** Parameters *****/
     1883     6120          %VLP_VECTOR(FPTN=VECTOR_,STCLASS=" ");
     1884     6135    1   DCL SIZE SBIN WORD;
     1885     6136        /***** Fpts *****/
     1886     6137          %FPT_GDS (FPTN=GET_MEMORY);
     1887     6153          %FPT_FDS (FPTN=REL_MEMORY);
     1888     6168        %EJECT;
PL6.E3A0      #008=VMA$ENLARGE_SEGMENT File=VMA$SUBR.:VMB6TSI                    WED 08/20/97 15:04 Page:327
     1889     6169    1       IF ADDR(SIZE) = ADDR(NIL)

   6169  2 000002   200004 236100                    LDQ     @SIZE,,AUTO
         2 000003   000000 116000 3                  CMPQ    0
         2 000004   000010 601000 2                  TNZ     s:6173

     1890     6170    1       THEN                            /* Assume 1 page */
     1891     6171    1           GET_MEMORY.V.SEGSIZE# = 1024;

   6171  2 000005   002000 220003                    LDX0    1024,DU
         2 000006   000004 440000 1                  SXL0    GET_MEMORY+4
         2 000007   000013 710000 2                  TRA     s:6174

     1892     6172    1       ELSE                            /* Get as many as requested */
     1893     6173    1           GET_MEMORY.V.SEGSIZE# = SIZE;

   6173  2 000010   200004 470500                    LDP0    @SIZE,,AUTO
         2 000011   000000 720100                    LXL0    0,,PR0
         2 000012   000004 440000 1                  SXL0    GET_MEMORY+4

     1894     6174    1       GET_MEMORY.RESULTS_ = VECTOR(VECTOR_);

   6174  2 000013   000001 235000 3                  LDA     1
         2 000014   200003 236100                    LDQ     @VECTOR_,,AUTO
         2 000015   000002 757000 1                  STAQ    GET_MEMORY+2

     1895     6175    1       CALL M$GDS (GET_MEMORY) ALTRET(E_PMME);

   6175  2 000016   000000 630400 1                  EPPR0   GET_MEMORY
         2 000017   430001 713400                    CLIMB   alt,gds
         2 000020   400400 401760                    pmme    nvectors=2
         2 000021   000053 702000 2                  TSX2    E_PMME

     1896     6176    1       RETURN;

   6176  2 000022   000000 702200 xent               TSX2  ! X66_ARET

PL6.E3A0      #008=VMA$ENLARGE_SEGMENT File=VMA$SUBR.:VMB6TSI                    WED 08/20/97 15:04 Page:328
     1897     6177        %EJECT;
PL6.E3A0      #008=VMA$ENLARGE_SEGMENT File=VMA$SUBR.:VMB6TSI                    WED 08/20/97 15:04 Page:329
     1898     6178        /*F*
     1899     6179             NAME: VMA$SHRINK_SEGMENT
     1900     6180             PURPOSE:
     1901     6181                   To release memory in a specified data segment.
     1902     6182             DESCRIPTION:
     1903     6183                   This routine has two parameters.
     1904     6184
     1905     6185                   VECTOR_  - vector describing data segment to be shrunk.
     1906     6186                   SIZE     - number of words to release. (optional. Default all)
     1907     6187        */
     1908     6188    1   VMA$SHRINK_SEGMENT: ENTRY (VECTOR_, SIZE) ALTRET;

   6188  2 000023   000000 700200 xent  VMA$SHRINK_* TSX0  ! X66_AUTO_2
         2 000024   000006 000002                    ZERO    6,2

     1909     6189        /**/
     1910     6190    1       IF ADDR(SIZE) = ADDR(NIL)

   6190  2 000025   200004 236100                    LDQ     @SIZE,,AUTO
         2 000026   000000 116000 3                  CMPQ    0
         2 000027   000040 601000 2                  TNZ     s:6194

     1911     6191    1       THEN                            /* Release entire segment */
     1912     6192    1           REL_MEMORY.V.SEGSIZE# = (VECTOR_.W1.VSIZE#+1)/4;

   6192  2 000030   200003 470500                    LDP0    @VECTOR_,,AUTO
         2 000031   000000 236100                    LDQ     0,,PR0
         2 000032   000020 772000                    QRL     16
         2 000033   000001 036007                    ADLQ    1,DL
         2 000034   000002 772000                    QRL     2
         2 000035   000000 620006                    EAX0    0,QL
         2 000036   000012 440000 1                  SXL0    REL_MEMORY+4
         2 000037   000043 710000 2                  TRA     s:6195

     1913     6193    1       ELSE                       /* Only release requested number of words */
     1914     6194    1           REL_MEMORY.V.SEGSIZE# = SIZE;

PL6.E3A0      #008=VMA$ENLARGE_SEGMENT File=VMA$SUBR.:VMB6TSI                    WED 08/20/97 15:04 Page:330
   6194  2 000040   200004 470500                    LDP0    @SIZE,,AUTO
         2 000041   000000 720100                    LXL0    0,,PR0
         2 000042   000012 440000 1                  SXL0    REL_MEMORY+4

     1915     6195    1       REL_MEMORY.RESULTS_ = VECTOR(VECTOR_);

   6195  2 000043   000001 235000 3                  LDA     1
         2 000044   200003 236100                    LDQ     @VECTOR_,,AUTO
         2 000045   000010 757000 1                  STAQ    REL_MEMORY+2

     1916     6196    1       CALL M$FDS (REL_MEMORY) ALTRET(E_PMME);

   6196  2 000046   000006 630400 1                  EPPR0   REL_MEMORY
         2 000047   430002 713400                    CLIMB   alt,fds
         2 000050   400400 401760                    pmme    nvectors=2
         2 000051   000053 702000 2                  TSX2    E_PMME

     1917     6197    1       RETURN;

   6197  2 000052   000000 702200 xent               TSX2  ! X66_ARET

     1918     6198        /**/
     1919     6199    1   E_PMME:
     1920     6200    1       ALTRETURN;

   6200  2 000053   000000 702200 xent  E_PMME       TSX2  ! X66_AALT

GET_MEMORY
 Sect OctLoc
   1     000   000001 777640   000004 006000   000000 177640   000000 006014    ................
   1     004   000600 000000   ****** ******                                    ........

REL_MEMORY
 Sect OctLoc
   1     006   000001 777640   000012 006000   000000 177640   000000 006014    ................
   1     012   000000 000000   ****** ******                                    ........

PL6.E3A0      #008=VMA$ENLARGE_SEGMENT File=VMA$SUBR.:VMB6TSI                    WED 08/20/97 15:04 Page:331
(unnamed)
 Sect OctLoc
   3     000   000000 006014   000001 777640                                    ........
     1921     6201    1   END VMA$ENLARGE_SEGMENT;
     1922     6202        %EOD;

PL6.E3A0      #008=VMA$ENLARGE_SEGMENT File=VMA$SUBR.:VMB6TSI                    WED 08/20/97 15:04 Page:332
--  Include file information  --

   CP_6_SUBS.:LIB_E05  is referenced.
   CP_6_C.:LIB_E05  is referenced.
   CP_6.:LIB_E05  cannot be made into a system file and is referenced.
      No diagnostics issued in procedure VMA$ENLARGE_SEGMENT.
PL6.E3A0      #008=VMA$ENLARGE_SEGMENT File=VMA$SUBR.:VMB6TSI                    WED 08/20/97 15:04 Page:333

 **** Variables and constants ****

  ****  Section 001  Data  VMA$ENLARGE_SEGMENT

  ****  Scalars and arrays  ****
OctLoc.c.b A Datatyp(siz) R M Lvl/name                 OctLoc.c.b A Datatyp(siz) R M Lvl/name

     0-0-0/d STRC(216)   r     1 GET_MEMORY                 6-0-0/d STRC(216)   r     1 REL_MEMORY

  ****  Auto variables  ****

  ****  Scalars and arrays  ****
OctLoc.c.b A Datatyp(siz) R M Lvl/name                 OctLoc.c.b A Datatyp(siz) R M Lvl/name

     4-0-0/w PTR         r     1 @SIZE                      3-0-0/w PTR         r     1 @VECTOR_
    *0-0-0/w SBIN        r     1 SIZE                      *0-0-0/d STRC(72)    r     1 VECTOR_

  ****  BASED and DCB variables  ****

  ****  Scalars and arrays  ****
OctLoc.c.b A Datatyp(siz) R M Lvl/name                 OctLoc.c.b A Datatyp(siz) R M Lvl/name

     0-0-0N  NULL        r     1 M$UC


   Procedure VMA$ENLARGE_SEGMENT requires 44 words for executable code.
   Procedure VMA$ENLARGE_SEGMENT requires 6 words of local(AUTO) storage.
PL6.E3A0      #008=VMA$ENLARGE_SEGMENT File=VMA$SUBR.:VMB6TSI                    WED 08/20/97 15:04 Page:334
          *** CROSS REFERENCE LISTING ***
**     DENOTES     IDENTIFIER DEFINITION
<<                 IDENTIFIER'S VALUE SET
>>                 IDENTIFIER'S VALUE USED
<>                 IDENTIFIER SET AND/OR USED
--                 IDENTIFIER REFERENCED
PL6.E3A0      #008=VMA$ENLARGE_SEGMENT File=VMA$SUBR.:VMB6TSI                    WED 08/20/97 15:04 Page:335
          MINI XREF LISTING

E_PMME
      6200**LABEL    6175--CALLALT  6196--CALLALT
GET_MEMORY
      6148**DCL      6175<>CALL
GET_MEMORY.RESULTS_
      6148**DCL      6174<<ASSIGN
GET_MEMORY.V
      6148**DCL      6148--DCLINIT
GET_MEMORY.V.SEGSIZE#
      6151**DCL      6171<<ASSIGN   6173<<ASSIGN
M$FDS
      5542**DCL-ENT  6196--CALL
M$GDS
      5542**DCL-ENT  6175--CALL
REL_MEMORY
      6164**DCL      6196<>CALL
REL_MEMORY.RESULTS_
      6164**DCL      6195<<ASSIGN
REL_MEMORY.V
      6164**DCL      6164--DCLINIT
REL_MEMORY.V.SEGSIZE#
      6166**DCL      6192<<ASSIGN   6194<<ASSIGN
SIZE
      6135**DCL        18--PROC     6169--IF       6173>>ASSIGN   6188--ENTRY    6190--IF       6194>>ASSIGN
VECTOR_
      6131**DCL        18--PROC     6174--ASSIGN   6188--ENTRY    6195--ASSIGN
VECTOR_.W1.VSIZE#
      6131**DCL      6192>>ASSIGN
VECTOR_.W2
      6132**DCL      6133--REDEF

PL6.E3A0      #009=VMA$GET_SITE_NAME File=VMA$SUBR.:VMB6TSI                      WED 08/20/97 15:04 Page:336
     1923        1        /*T***********************************************************/
     1924        2        /*T*                                                         */
     1925        3        /*T* Copyright (c) Bull HN Information Systems Inc., 1997    */
     1926        4        /*T*                                                         */
     1927        5        /*T***********************************************************/
     1928        6        /*X* DMC,PLM=4,IND=4,CTI=2,DTI=0,ENI=0,ECI=0,CSI=0,DCI=4 */
     1929        7        /*X* DMC,PLM=4,IND=4,CTI=2,DTI=0,ENI=0,ECI=0,CSI=0,DCI=4 */
     1930        8        /*F*
     1931        9             NAME: VMA$GET_SITE_NAME
     1932       10             PURPOSE:
     1933       11                   To get the name of the local site.
     1934       12             DESCRIPTION.
     1935       13                   Look in the :NODES file in :SYS for name of desired site.
     1936       14        */
     1937       15        VMA$GET_SITE_NAME: PROC (KEY_VALUE, SITENAME, NODETYPE, EXTERNAL) ALTRET;
     1938       16        /***** Include files *****/
     1939       17          %INCLUDE CP_6;
     1940     5576          %INCLUDE CP_6_SUBS;
     1941     6116          %INCLUDE VM_DATA_R;
     1942     6547          %INCLUDE VW_NODEATER_E;
     1943     6603            %include B$TABLES_C;
     1944     6711          %B$XL_UPPER(NAME=lower_UPPER);
     1945     6715        /***** Parameters *****/
     1946     6716    1   DCL KEY_VALUE CHAR(8);
     1947     6717    1   DCL SITENAME  CHAR(8);
     1948     6718    1   DCL NODETYPE UBIN WORD;
     1949     6719    1   DCL 1 EXTERNAL,
     1950     6720    1         2 SITENAME CHAR (8),
     1951     6721    1         2 ACCT CHAR (8);
     1952     6722        /***** Working storage *****/
     1953     6723    1   DCL 1 NODEOVR AUTO,
     1954     6724    1         2 PATH_NAME           CHAR(8),
     1955     6725    1         2 ACCT REDEF PATH_NAME CHAR (8),
     1956     6726    1         2 NODE_NAME           CHAR(8),
     1957     6727    1         2 TYPE_DEST UNAL      UBIN BYTE,
     1958     6728    1         2 MODE UNAL           UBIN BYTE,
     1959     6729    1         2 TYPE_PATH UNAL      UBIN BYTE,
PL6.E3A0      #009=VMA$GET_SITE_NAME File=VMA$SUBR.:VMB6TSI                      WED 08/20/97 15:04 Page:337
     1960     6730    1         2 SPEED UNAL          UBIN BYTE,
     1961     6731    1         2 TIME UNAL           UBIN HALF;
     1962     6732          %VLP_NAME (FPTN=IN_KEY,LEN=8,NAME=' ');
     1963     6759    1   DCL INDX UBIN WORD AUTO;
     1964     6760        /***** Fpts *****/
     1965     6761        %FPT_OPEN (FPTN=OPEN_SITE,
     1966     6762                       ASN=FILE,
     1967     6763                       FUN=IN,
     1968     6764                       ACCT=VM_NODE_ACCT,
     1969     6765                       NAME=SITE_MAP_NAME);
     1970     6874
     1971     6875        %VLP_NAME (FPTN=SITE_MAP_NAME,
     1972     6876                       NAME=':NODES');
     1973     6903
     1974     6904        %VLP_NAME (FPTN=KEY_IAM,
     1975     6905                       NAME='*IAM    ');
     1976     6932
     1977     6933        %FPT_READ (FPTN=READ_SITE,
     1978     6934                       DCB=M$WORK,
     1979     6935                       KEYS=YES,
     1980     6936                       KEYR=NO,
     1981     6937                       KEY=IN_KEY,
     1982     6938                       WAIT=YES);
     1983     6977
     1984     6978        %VLP_ACCT (FPTN=VM_NODE_ACCT,STCLASS="CONSTANT SYMDEF",ACCT=':SYS    ');
     1985     6991
     1986     6992        %F$DCB;
     1987     7049        %EJECT;
PL6.E3A0      #009=VMA$GET_SITE_NAME File=VMA$SUBR.:VMB6TSI                      WED 08/20/97 15:04 Page:338
     1988     7050    1       OPEN_SITE.V.DCB# = M$NODE_NUM;
     1989     7051    1       READ_SITE.V.DCB# = M$NODE_NUM;
     1990     7052        /**/
     1991     7053    1       CALL XLATE (IN_KEY.NAME#, LOWER_UPPER, KEY_VALUE);
     1992     7054    1       READ_SITE.BUF_ = VECTOR (NODEOVR);
     1993     7055    1       IN_KEY.L# = LENGTHC(IN_KEY.NAME#); /* All keys in :NODES are 8 bytes */
     1994     7056        /*
     1995     7057             ***** If :NODES is not yet open, then open it.
     1996     7058                   Then read the definition. Leave :NODES open ...
     1997     7059        */
     1998     7060    1       IF DCBADDR(M$NODE_NUM) -> F$DCB.FCD# = %NO#
     1999     7061    1       THEN                            /* :NODES is not open yet */
     2000     7062    1           CALL M$OPEN(OPEN_SITE) ALTRET(E_SITE);
     2001     7063
     2002     7064    1   READ_NODE:
     2003     7065
     2004     7066    1       CALL M$READ(READ_SITE) ALTRET(E_SITE);
     2005     7067        /*
     2006     7068          ***** If a synonym record(8 bytes) is read, then the record contains
     2007     7069          ***** the node/site name. Otherwise, the key is the node/site name.
     2008     7070          ***** This type of record is 22 bytes in length.
     2009     7071        */
     2010     7072        /*
     2011     7073          ***** Check for synon.  If we find one, move the primary name into the key
     2012     7074          ***** and go read again (unless we were simply identifying this site,
     2013     7075          ***** in which case we can return.
     2014     7076        */
     2015     7077    1       IF DCBADDR(M$NODE_NUM) -> F$DCB.ARS# = 8
     2016     7078    2       THEN DO;
     2017     7079    2           IF KEY_VALUE = '*IAM'
     2018     7080    3           THEN DO;
     2019     7081    3               SITENAME = NODEOVR.PATH_NAME;
     2020     7082    3               RETURN;
     2021     7083    3           END;
     2022     7084    2           IN_KEY.NAME# = NODEOVR.PATH_NAME;
     2023     7085    2           IF IN_KEY.NAME# ~= VM_SITENAME
     2024     7086    2           THEN
PL6.E3A0      #009=VMA$GET_SITE_NAME File=VMA$SUBR.:VMB6TSI                      WED 08/20/97 15:04 Page:339
     2025     7087    2               GOTO READ_NODE;
     2026     7088        /*
     2027     7089          ***** If synonym for local site, fall thru to return information.
     2028     7090        */
     2029     7091    2           NODEOVR.TYPE_DEST = %N_CP6ND#;
     2030     7092    2           IF IN_KEY.NAME# ~= VM_SITENAME
     2031     7093    2           THEN
     2032     7094    2               GOTO READ_NODE;
     2033     7095        /*
     2034     7096          ***** If synonym for local site, fall thru to return information.
     2035     7097        */
     2036     7098    2           NODEOVR.TYPE_DEST = %N_CP6ND#;
     2037     7099    2       END;
     2038     7100        /*
     2039     7101          ***** Not a synon (or it's a synon that we've resolved).
     2040     7102        */
     2041     7103    1       SITENAME = IN_KEY.NAME#;
     2042     7104        /*
     2043     7105          ***** Return optional info if requested.
     2044     7106        */
     2045     7107    1       IF ADDR(NODETYPE) ~= ADDR(NIL)
     2046     7108    1       THEN
     2047     7109    1           NODETYPE = NODEOVR.TYPE_DEST;
     2048     7110    1       IF ADDR(EXTERNAL) ~= ADDR(NIL)
     2049     7111    2       THEN DO;
     2050     7112    2           IF NODEOVR.TYPE_DEST = %N_EXTERNAL#
     2051     7113    3           THEN DO;
     2052     7114    3               EXTERNAL.SITENAME = NODEOVR.NODE_NAME;
     2053     7115    3               EXTERNAL.ACCT = NODEOVR.ACCT;
     2054     7116    3           END;
     2055     7117    3           ELSE DO;
     2056     7118    3               EXTERNAL.SITENAME = ' ';
     2057     7119    3               EXTERNAL.ACCT = ' ';
     2058     7120    3           END;
     2059     7121    2       END;
     2060     7122        /*
     2061     7123          ***** All done; bye bye.
PL6.E3A0      #009=VMA$GET_SITE_NAME File=VMA$SUBR.:VMB6TSI                      WED 08/20/97 15:04 Page:340
     2062     7124        */
     2063     7125    1       RETURN;
     2064     7126        /*
     2065     7127             ***** If no :NODES, or it is screwed up
     2066     7128                   then assume ' '. (looks better than local) ...
     2067     7129        */
     2068     7130    1   E_SITE:
     2069     7131    1       IF IN_KEY.NAME# = KEY_IAM.NAME#
     2070     7132    1       THEN                            /* Assume local */
     2071     7133    2       DO;
     2072     7134    2           SITENAME = ' ';
     2073     7135    2           RETURN;
     2074     7136    2       END;
     2075     7137    1       ELSE                            /* Error */
     2076     7138    1           ALTRETURN;
     2077     7139        /*
     2078     7140             ***** Must be trouble ...
     2079     7141        */
     2080     7142    1   END VMA$GET_SITE_NAME;
     2081     7143        %EOD;

PL6.E3A0      #009=VMA$GET_SITE_NAME File=VMA$SUBR.:VMB6TSI                      WED 08/20/97 15:04 Page:341
--  Include file information  --

   B$TABLES_C.:LIB_E05  cannot be made into a system file and is referenced.
   VW_NODEATER_E.:VMB6TOU  is referenced.
   B_MACROS_C.:LIB_E05  is referenced.
   VM_DATA_R.:VMB6TOU  cannot be made into a system file and is referenced.
   CP_6_SUBS.:LIB_E05  is referenced.
   CP_6_C.:LIB_E05  is referenced.
   CP_6.:LIB_E05  cannot be made into a system file and is referenced.
      No diagnostics issued in procedure VMA$GET_SITE_NAME.

   Procedure VMA$GET_SITE_NAME requires 107 words for executable code.
   Procedure VMA$GET_SITE_NAME requires 16 words of local(AUTO) storage.

PL6.E3A0      #009=VMA$GET_SITE_NAME File=VMA$SUBR.:VMB6TSI                      WED 08/20/97 15:04 Page:342

 Object Unit name= VMA$GET_SITE_NAME                          File name= VMA$SUBR.:VMB6TOU
 UTS= AUG 20 '97 15:04:26.12 WED                              Compiler= PL-6/E31         Sev=      00
 SharedLib= :SHARED_SYSTEM                                    Alt SharedLib=


    ****  Control sections  ****

 Sect   Type Bound  Init  Size OctSiz  Section name(segment info)
    0   DCB   even  none     0      0  M$UC
    1   DCB   even  none     0      0  M$MAIL_FILE
    2   DCB   even  none     0      0  M$MAIL_CENTRAL
    3   DCB   even  none     0      0  M$MAIL_GLOBAL
    4   DCB   even  none     0      0  M$WORK
    5   DCB   even  none     0      0  M$MAIL_COMGROUP
    6   DCB   even  none     0      0  M$DO
    7   DCB   even  none     0      0  M$LO
    8   DCB   even  none     0      0  M$ME
    9   DCB   even  none     0      0  M$NODE
   10   DCB   even  none     0      0  M$SI
   11   Data  even  none    82    122  VMA$GET_SITE_NAME
   12  RoData even  UTS      3      3  VMA$GET_SITE_NAME
   13   Proc  even  none   107    153  VMA$GET_SITE_NAME
   14  RoData even  none     4      4  VMA$GET_SITE_NAME

    ****  Entry defs  ****

                              Check   Calling
                             calling  sequence
  Sect OctLoc Primary Altret sequence   type   Parms  Name
    13      0   yes    yes     yes      Std        4  VMA$GET_SITE_NAME

  ****  Data defs  ****

 Sect OctLoc  Name                           Sect OctLoc  Name
   12      0  VM_NODE_ACCT
PL6.E3A0      #009=VMA$GET_SITE_NAME File=VMA$SUBR.:VMB6TSI                      WED 08/20/97 15:04 Page:343

  ****  Entry refs  ****

         Check        Calling
        calling       sequence
Altret sequence SRef   type   Args  Name
         yes          ~proc      0 B_POINTER
                       nStd      0 X66_AUTO_4
                       nStd      0 X66_ARET
                       nStd      0 X66_AALT

  ****  Data refs  ****

  Flags:  r = read only, s = secondary
Flgs Name                             Flgs Name                             Flgs Name
     M$UC                             r    VM_HEADER$                       r    VM_PROFILE$
r    VM_ADDLIST$                      r    VM_ADDREC$                       r    VM_WORK$
r    VM_SELECT$                       r    VM_PARSEAREA$                    r    VM_INPUT$
r    VM_COPY$                              VM_ENCLLIST$                          VM_ENCLREC$
     VM_HEADER_                            VM_HEADER_INIT_                       VM_PROFILE_
     VM_ADDLIST_                           VM_ADDREC_                            VM_WORK_
     VM_SELECT_                            VM_PARSEAREA_                         VM_INPUT_
     VM_COPY_                              VM_ENCLLIST_                          VM_ENCLREC_
     M$MAIL_FILE                           M$MAIL_CENTRAL                        M$MAIL_GLOBAL
     M$WORK                                M$MAIL_COMGROUP                       M$DO
     M$LO                                  M$ME                                  M$NODE
     M$SI                                  M$MAIL_FILE_NUM                       M$MAIL_CENTRAL_NUM
     M$MAIL_GLOBAL_NUM                     M$WORK_NUM                            M$MAIL_COMGROUP_NUM
     M$DO_NUM                              M$ME_NUM                              M$LO_NUM
     M$SI_NUM                              M$NODE_NUM                       r    B$JIT$
r    B$TCB$                                VM_MAIL_ACCT                          VM_NAME_MAP_NAME
     ERRMSG_FID                            VM_SEND_FILE_NAME                     VM_FORWARD_FILE_NAME
     VM_FORWARD_ENCL_NAME                  VM_FORWARD_FILE_PASS                  VM_MAILCG_NAME
     VM_SITENAME                           VM_MAILCG_SETSTA                 r    B$XL_UPPER$
PL6.E3A0      #009=VMA$GET_SITE_NAME File=VMA$SUBR.:VMB6TSI                      WED 08/20/97 15:04 Page:344

  ****  Segment refs  ****

  Flags:  r = read only, s = secondary
Flgs Name                             Flgs Name                             Flgs Name
     ISSID                                 NULLSID                               ROSID
PL6.E3A0      #009=VMA$GET_SITE_NAME File=VMA$SUBR.:VMB6TSI                      WED 08/20/97 15:04 Page:345


     1923        1        /*T***********************************************************/
     1924        2        /*T*                                                         */
     1925        3        /*T* Copyright (c) Bull HN Information Systems Inc., 1997    */
     1926        4        /*T*                                                         */
     1927        5        /*T***********************************************************/
     1928        6        /*X* DMC,PLM=4,IND=4,CTI=2,DTI=0,ENI=0,ECI=0,CSI=0,DCI=4 */
     1929        7        /*X* DMC,PLM=4,IND=4,CTI=2,DTI=0,ENI=0,ECI=0,CSI=0,DCI=4 */
     1930        8        /*F*
     1931        9             NAME: VMA$GET_SITE_NAME
     1932       10             PURPOSE:
     1933       11                   To get the name of the local site.
     1934       12             DESCRIPTION.
     1935       13                   Look in the :NODES file in :SYS for name of desired site.
     1936       14        */
     1937       15        VMA$GET_SITE_NAME: PROC (KEY_VALUE, SITENAME, NODETYPE, EXTERNAL) ALTRET;

     15 13 000000   000000 700200 xent  VMA$GET_SIT* TSX0  ! X66_AUTO_4
        13 000001   000020 000004                    ZERO    16,4

     1938       16        /***** Include files *****/
     1939       17          %INCLUDE CP_6;
     1940     5576          %INCLUDE CP_6_SUBS;
     1941     6116          %INCLUDE VM_DATA_R;
     1942     6547          %INCLUDE VW_NODEATER_E;
     1943     6603            %include B$TABLES_C;
     1944     6711          %B$XL_UPPER(NAME=lower_UPPER);
     1945     6715        /***** Parameters *****/
     1946     6716    1   DCL KEY_VALUE CHAR(8);
     1947     6717    1   DCL SITENAME  CHAR(8);
     1948     6718    1   DCL NODETYPE UBIN WORD;
     1949     6719    1   DCL 1 EXTERNAL,
     1950     6720    1         2 SITENAME CHAR (8),
     1951     6721    1         2 ACCT CHAR (8);
     1952     6722        /***** Working storage *****/
     1953     6723    1   DCL 1 NODEOVR AUTO,
     1954     6724    1         2 PATH_NAME           CHAR(8),
PL6.E3A0      #009=VMA$GET_SITE_NAME File=VMA$SUBR.:VMB6TSI                      WED 08/20/97 15:04 Page:346
     1955     6725    1         2 ACCT REDEF PATH_NAME CHAR (8),
     1956     6726    1         2 NODE_NAME           CHAR(8),
     1957     6727    1         2 TYPE_DEST UNAL      UBIN BYTE,
     1958     6728    1         2 MODE UNAL           UBIN BYTE,
     1959     6729    1         2 TYPE_PATH UNAL      UBIN BYTE,
     1960     6730    1         2 SPEED UNAL          UBIN BYTE,
     1961     6731    1         2 TIME UNAL           UBIN HALF;
     1962     6732          %VLP_NAME (FPTN=IN_KEY,LEN=8,NAME=' ');
     1963     6759    1   DCL INDX UBIN WORD AUTO;
     1964     6760        /***** Fpts *****/
     1965     6761        %FPT_OPEN (FPTN=OPEN_SITE,
     1966     6762                       ASN=FILE,
     1967     6763                       FUN=IN,
     1968     6764                       ACCT=VM_NODE_ACCT,
     1969     6765                       NAME=SITE_MAP_NAME);
     1970     6874
     1971     6875        %VLP_NAME (FPTN=SITE_MAP_NAME,
     1972     6876                       NAME=':NODES');
     1973     6903
     1974     6904        %VLP_NAME (FPTN=KEY_IAM,
     1975     6905                       NAME='*IAM    ');
     1976     6932
     1977     6933        %FPT_READ (FPTN=READ_SITE,
     1978     6934                       DCB=M$WORK,
     1979     6935                       KEYS=YES,
     1980     6936                       KEYR=NO,
     1981     6937                       KEY=IN_KEY,
     1982     6938                       WAIT=YES);
     1983     6977
     1984     6978        %VLP_ACCT (FPTN=VM_NODE_ACCT,STCLASS="CONSTANT SYMDEF",ACCT=':SYS    ');
     1985     6991
     1986     6992        %F$DCB;
     1987     7049        %EJECT;
PL6.E3A0      #009=VMA$GET_SITE_NAME File=VMA$SUBR.:VMB6TSI                      WED 08/20/97 15:04 Page:347
     1988     7050    1       OPEN_SITE.V.DCB# = M$NODE_NUM;

   7050 13 000002   000000 720000 xsym               LXL0    M$NODE_NUM
        13 000003   000050 740000 11                 STX0    OPEN_SITE+36

     1989     7051    1       READ_SITE.V.DCB# = M$NODE_NUM;

   7051 13 000004   000114 740000 11                 STX0    READ_SITE+8

     1990     7052        /**/
     1991     7053    1       CALL XLATE (IN_KEY.NAME#, LOWER_UPPER, KEY_VALUE);

   7053 13 000005   200003 470500                    LDP0    @KEY_VALUE,,AUTO
        13 000006   000000 471400 xsym               LDP1    B$XL_UPPER$
        13 000007   040000 160500                    MVT     fill='040'O
        13 000010   000000 000010                    ADSC9   0,,PR0                   cn=0,n=8
        13 000011   000000 200010 11                 ADSC9   IN_KEY                   cn=1,n=8
        13 000012   100000 000100                    ARG     0,,PR1

     1992     7054    1       READ_SITE.BUF_ = VECTOR (NODEOVR);

   7054 13 000013   000000 235000 14                 LDA     0
        13 000014   200016 452500                    STP2    INDX+1,,AUTO
        13 000015   200016 236100                    LDQ     INDX+1,,AUTO
        13 000016   000007 036003                    ADLQ    7,DU
        13 000017   000110 757000 11                 STAQ    READ_SITE+4

     1993     7055    1       IN_KEY.L# = LENGTHC(IN_KEY.NAME#); /* All keys in :NODES are 8 bytes */

   7055 13 000020   010000 236003                    LDQ     4096,DU
        13 000021   000000 552040 11                 STBQ    IN_KEY,'40'O

     1994     7056        /*
     1995     7057             ***** If :NODES is not yet open, then open it.
     1996     7058                   Then read the definition. Leave :NODES open ...
     1997     7059        */
     1998     7060    1       IF DCBADDR(M$NODE_NUM) -> F$DCB.FCD# = %NO#
PL6.E3A0      #009=VMA$GET_SITE_NAME File=VMA$SUBR.:VMB6TSI                      WED 08/20/97 15:04 Page:348

   7060 13 000022   000001 473400 14                 LDP3    1
        13 000023   300000 474500                    LDP4    0,,PR3
        13 000024   400000 475510                    LDP5    0,X0,PR4
        13 000025   500031 236100                    LDQ     25,,PR5
        13 000026   020000 316007                    CANQ    8192,DL
        13 000027   000034 601000 13                 TNZ     READ_NODE

     1999     7061    1       THEN                            /* :NODES is not open yet */
     2000     7062    1           CALL M$OPEN(OPEN_SITE) ALTRET(E_SITE);

   7062 13 000030   000004 630400 11                 EPPR0   OPEN_SITE
        13 000031   450000 713400                    CLIMB   alt,open
        13 000032   410400 401760                    pmme    nvectors=18
        13 000033   000141 702000 13                 TSX2    E_SITE

     2001     7063
     2002     7064    1   READ_NODE:
     2003     7065
     2004     7066    1       CALL M$READ(READ_SITE) ALTRET(E_SITE);

   7066 13 000034   000104 630400 11    READ_NODE    EPPR0   READ_SITE
        13 000035   440000 713400                    CLIMB   alt,read
        13 000036   401400 401760                    pmme    nvectors=4
        13 000037   000141 702000 13                 TSX2    E_SITE

     2005     7067        /*
     2006     7068          ***** If a synonym record(8 bytes) is read, then the record contains
     2007     7069          ***** the node/site name. Otherwise, the key is the node/site name.
     2008     7070          ***** This type of record is 22 bytes in length.
     2009     7071        */
     2010     7072        /*
     2011     7073          ***** Check for synon.  If we find one, move the primary name into the key
     2012     7074          ***** and go read again (unless we were simply identifying this site,
     2013     7075          ***** in which case we can return.
     2014     7076        */
     2015     7077    1       IF DCBADDR(M$NODE_NUM) -> F$DCB.ARS# = 8
PL6.E3A0      #009=VMA$GET_SITE_NAME File=VMA$SUBR.:VMB6TSI                      WED 08/20/97 15:04 Page:349

   7077 13 000040   000001 470400 14                 LDP0    1
        13 000041   000000 471500                    LDP1    0,,PR0
        13 000042   000000 720000 xsym               LXL0    M$NODE_NUM
        13 000043   100000 473510                    LDP3    0,X0,PR1
        13 000044   300000 235100                    LDA     0,,PR3
        13 000045   000010 115007                    CMPA    8,DL
        13 000046   000077 601000 13                 TNZ     s:7103

     2016     7078    2       THEN DO;

     2017     7079    2           IF KEY_VALUE = '*IAM'

   7079 13 000047   200003 474500                    LDP4    @KEY_VALUE,,AUTO
        13 000050   040000 106500                    CMPC    fill='040'O
        13 000051   400000 000010                    ADSC9   0,,PR4                   cn=0,n=8
        13 000052   000002 000004 12                 ADSC9   VM_NODE_ACCT+2           cn=0,n=4
        13 000053   000061 601000 13                 TNZ     s:7084

     2018     7080    3           THEN DO;

     2019     7081    3               SITENAME = NODEOVR.PATH_NAME;

   7081 13 000054   200004 475500                    LDP5    @SITENAME,,AUTO
        13 000055   040100 100500                    MLR     fill='040'O
        13 000056   200007 000010                    ADSC9   NODEOVR,,AUTO            cn=0,n=8
        13 000057   500000 000010                    ADSC9   0,,PR5                   cn=0,n=8

     2020     7082    3               RETURN;

   7082 13 000060   000000 702200 xent               TSX2  ! X66_ARET

     2021     7083    3           END;
     2022     7084    2           IN_KEY.NAME# = NODEOVR.PATH_NAME;

   7084 13 000061   040000 100500                    MLR     fill='040'O
        13 000062   200007 000010                    ADSC9   NODEOVR,,AUTO            cn=0,n=8
PL6.E3A0      #009=VMA$GET_SITE_NAME File=VMA$SUBR.:VMB6TSI                      WED 08/20/97 15:04 Page:350
        13 000063   000000 200010 11                 ADSC9   IN_KEY                   cn=1,n=8

     2023     7085    2           IF IN_KEY.NAME# ~= VM_SITENAME

   7085 13 000064   040000 106400                    CMPC    fill='040'O
        13 000065   000000 200010 11                 ADSC9   IN_KEY                   cn=1,n=8
        13 000066   000000 000010 xsym               ADSC9   VM_SITENAME              cn=0,n=8
        13 000067   000034 601000 13                 TNZ     READ_NODE

     2024     7086    2           THEN
     2025     7087    2               GOTO READ_NODE;
     2026     7088        /*
     2027     7089          ***** If synonym for local site, fall thru to return information.
     2028     7090        */
     2029     7091    2           NODEOVR.TYPE_DEST = %N_CP6ND#;

   7091 13 000070   147000 236003                    LDQ     52736,DU
        13 000071   200013 552140                    STBQ    NODEOVR+4,'40'O,AUTO

     2030     7092    2           IF IN_KEY.NAME# ~= VM_SITENAME

   7092 13 000072   040000 106400                    CMPC    fill='040'O
        13 000073   000000 200010 11                 ADSC9   IN_KEY                   cn=1,n=8
        13 000074   000000 000010 xsym               ADSC9   VM_SITENAME              cn=0,n=8
        13 000075   000034 601000 13                 TNZ     READ_NODE

     2031     7093    2           THEN
     2032     7094    2               GOTO READ_NODE;
     2033     7095        /*
     2034     7096          ***** If synonym for local site, fall thru to return information.
     2035     7097        */
     2036     7098    2           NODEOVR.TYPE_DEST = %N_CP6ND#;

   7098 13 000076   200013 552140                    STBQ    NODEOVR+4,'40'O,AUTO

     2037     7099    2       END;

PL6.E3A0      #009=VMA$GET_SITE_NAME File=VMA$SUBR.:VMB6TSI                      WED 08/20/97 15:04 Page:351
     2038     7100        /*
     2039     7101          ***** Not a synon (or it's a synon that we've resolved).
     2040     7102        */
     2041     7103    1       SITENAME = IN_KEY.NAME#;

   7103 13 000077   200004 474500                    LDP4    @SITENAME,,AUTO
        13 000100   040100 100400                    MLR     fill='040'O
        13 000101   000000 200010 11                 ADSC9   IN_KEY                   cn=1,n=8
        13 000102   400000 000010                    ADSC9   0,,PR4                   cn=0,n=8

     2042     7104        /*
     2043     7105          ***** Return optional info if requested.
     2044     7106        */
     2045     7107    1       IF ADDR(NODETYPE) ~= ADDR(NIL)

   7107 13 000103   200005 236100                    LDQ     @NODETYPE,,AUTO
        13 000104   000002 116000 14                 CMPQ    2
        13 000105   000112 600000 13                 TZE     s:7110

     2046     7108    1       THEN
     2047     7109    1           NODETYPE = NODEOVR.TYPE_DEST;

   7109 13 000106   200005 473500                    LDP3    @NODETYPE,,AUTO
        13 000107   200013 236100                    LDQ     NODEOVR+4,,AUTO
        13 000110   000033 772000                    QRL     27
        13 000111   300000 756100                    STQ     0,,PR3

     2048     7110    1       IF ADDR(EXTERNAL) ~= ADDR(NIL)

   7110 13 000112   200006 236100                    LDQ     @EXTERNAL,,AUTO
        13 000113   000002 116000 14                 CMPQ    2
        13 000114   000140 600000 13                 TZE     s:7125

     2049     7111    2       THEN DO;

     2050     7112    2           IF NODEOVR.TYPE_DEST = %N_EXTERNAL#

PL6.E3A0      #009=VMA$GET_SITE_NAME File=VMA$SUBR.:VMB6TSI                      WED 08/20/97 15:04 Page:352
   7112 13 000115   200013 236100                    LDQ     NODEOVR+4,,AUTO
        13 000116   777000 376003                    ANQ     -512,DU
        13 000117   157000 116003                    CMPQ    56832,DU
        13 000120   000131 601000 13                 TNZ     s:7118

     2051     7113    3           THEN DO;

     2052     7114    3               EXTERNAL.SITENAME = NODEOVR.NODE_NAME;

   7114 13 000121   200006 473500                    LDP3    @EXTERNAL,,AUTO
        13 000122   040100 100500                    MLR     fill='040'O
        13 000123   200011 000010                    ADSC9   NODEOVR+2,,AUTO          cn=0,n=8
        13 000124   300000 000010                    ADSC9   0,,PR3                   cn=0,n=8

     2053     7115    3               EXTERNAL.ACCT = NODEOVR.ACCT;

   7115 13 000125   040100 100500                    MLR     fill='040'O
        13 000126   200007 000010                    ADSC9   NODEOVR,,AUTO            cn=0,n=8
        13 000127   300002 000010                    ADSC9   2,,PR3                   cn=0,n=8

     2054     7116    3           END;

   7116 13 000130   000140 710000 13                 TRA     s:7125

     2055     7117    3           ELSE DO;

     2056     7118    3               EXTERNAL.SITENAME = ' ';

   7118 13 000131   200006 473500                    LDP3    @EXTERNAL,,AUTO
        13 000132   040100 100400                    MLR     fill='040'O
        13 000133   000003 000001 14                 ADSC9   3                        cn=0,n=1
        13 000134   300000 000010                    ADSC9   0,,PR3                   cn=0,n=8

     2057     7119    3               EXTERNAL.ACCT = ' ';

   7119 13 000135   040100 100400                    MLR     fill='040'O
        13 000136   000003 000001 14                 ADSC9   3                        cn=0,n=1
PL6.E3A0      #009=VMA$GET_SITE_NAME File=VMA$SUBR.:VMB6TSI                      WED 08/20/97 15:04 Page:353
        13 000137   300002 000010                    ADSC9   2,,PR3                   cn=0,n=8

     2058     7120    3           END;

     2059     7121    2       END;

     2060     7122        /*
     2061     7123          ***** All done; bye bye.
     2062     7124        */
     2063     7125    1       RETURN;

   7125 13 000140   000000 702200 xent               TSX2  ! X66_ARET

     2064     7126        /*
     2065     7127             ***** If no :NODES, or it is screwed up
     2066     7128                   then assume ' '. (looks better than local) ...
     2067     7129        */
     2068     7130    1   E_SITE:
     2069     7131    1       IF IN_KEY.NAME# = KEY_IAM.NAME#

   7131 13 000141   040000 106400       E_SITE       CMPC    fill='040'O
        13 000142   000000 200010 11                 ADSC9   IN_KEY                   cn=1,n=8
        13 000143   000100 200010 11                 ADSC9   KEY_IAM                  cn=1,n=8
        13 000144   000152 601000 13                 TNZ     s:7138

     2070     7132    1       THEN                            /* Assume local */
     2071     7133    2       DO;

     2072     7134    2           SITENAME = ' ';

   7134 13 000145   200004 470500                    LDP0    @SITENAME,,AUTO
        13 000146   040100 100400                    MLR     fill='040'O
        13 000147   000003 000001 14                 ADSC9   3                        cn=0,n=1
        13 000150   000000 000010                    ADSC9   0,,PR0                   cn=0,n=8

     2073     7135    2           RETURN;

PL6.E3A0      #009=VMA$GET_SITE_NAME File=VMA$SUBR.:VMB6TSI                      WED 08/20/97 15:04 Page:354
   7135 13 000151   000000 702200 xent               TSX2  ! X66_ARET

     2074     7136    2       END;
     2075     7137    1       ELSE                            /* Error */
     2076     7138    1           ALTRETURN;

   7138 13 000152   000000 702200 xent               TSX2  ! X66_AALT

IN_KEY
 Sect OctLoc
  11     000   001040 040040   040040 040040   040*** ******                    .        ...

OPEN_SITE
 Sect OctLoc
  11     004   000025 777640   000050 006000   000000 177640   000000 006014    .....(..........
  11     010   000000 177640   000000 006014   000001 577640   000076 006000    .............>..
  11     014   000000 177640   000000 006014   000000 177640   000000 006014    ................
  11     030*  000001 777640   000000 006000   000000 177640   000000 006014    ................
  11     034   000000 177640   000000 006014   000000 177640   000000 006014    ................
  11     050*  000000 000042   000000 002001   252525 000000   000040 252520    ..."......... ..
  11     054   000040 040040   000000 000000   000000 777777   000000 000000    .   ............
  11     060   000000 000000   000000 000000   000000 000000   000000 000000    ................
  11     064   251000 622000   000000 000000   000000 000000   111250 000000    ............I...
  11     070   040040 040040   000000 000000   000000 000000   000000 000000        ............
  11     074   000000 000000   ****** ******                                    ........

SITE_MAP_NAME
 Sect OctLoc
  11     076   006072 116117   104105 123***                                    .:NODES.

KEY_IAM
 Sect OctLoc
  11     100   010052 111101   115040 040040   040*** ******                    .*IAM    ...

READ_SITE
 Sect OctLoc
  11     104   000005 777640   000114 006000   000002 177640   000000 006000    .....L..........
PL6.E3A0      #009=VMA$GET_SITE_NAME File=VMA$SUBR.:VMB6TSI                      WED 08/20/97 15:04 Page:355
  11     110   000000 177640   000000 006014   000000 177640   000000 006014    ................
  11     114   000000 600000   000000 000000   000000 000000   000000 000000    ................
  11     120   000000 000000   000000 000000                                    ........

VM_NODE_ACCT
 Sect OctLoc
  12     000   072123 131123   040040 040040                                    :SYS

(unnamed)
 Sect OctLoc
  12     002   052111 101115                                                    *IAM

(unnamed)
 Sect OctLoc
  14     000   000005 377640   000000 006003   000000 006014   040040 040040    ............
     2077     7139        /*
     2078     7140             ***** Must be trouble ...
     2079     7141        */
     2080     7142    1   END VMA$GET_SITE_NAME;
     2081     7143        %EOD;

PL6.E3A0      #009=VMA$GET_SITE_NAME File=VMA$SUBR.:VMB6TSI                      WED 08/20/97 15:04 Page:356
--  Include file information  --

   B$TABLES_C.:LIB_E05  cannot be made into a system file and is referenced.
   VW_NODEATER_E.:VMB6TOU  is referenced.
   B_MACROS_C.:LIB_E05  is referenced.
   VM_DATA_R.:VMB6TOU  cannot be made into a system file and is referenced.
   CP_6_SUBS.:LIB_E05  is referenced.
   CP_6_C.:LIB_E05  is referenced.
   CP_6.:LIB_E05  cannot be made into a system file and is referenced.
      No diagnostics issued in procedure VMA$GET_SITE_NAME.
PL6.E3A0      #009=VMA$GET_SITE_NAME File=VMA$SUBR.:VMB6TSI                      WED 08/20/97 15:04 Page:357

 **** Variables and constants ****

  ****  Section 011  Data  VMA$GET_SITE_NAME

  ****  Scalars and arrays  ****
OctLoc.c.b A Datatyp(siz) R M Lvl/name                 OctLoc.c.b A Datatyp(siz) R M Lvl/name

     0-0-0/c STRC(81)    r     1 IN_KEY                   100-0-0/c STRC(81)    r     1 KEY_IAM
     4-0-0/d STRC(2088)  r     1 OPEN_SITE                104-0-0/d STRC(504)   r     1 READ_SITE
    76-0-0/c STRC(63)    r     1 SITE_MAP_NAME

  ****  Section 012 RoData VMA$GET_SITE_NAME

  ****  Scalars and arrays  ****
OctLoc.c.b A Datatyp(siz) R M Lvl/name                 OctLoc.c.b A Datatyp(siz) R M Lvl/name

     0-0-0/c STRC(72)    r     1 VM_NODE_ACCT

  ****  Auto variables  ****

  ****  Scalars and arrays  ****
OctLoc.c.b A Datatyp(siz) R M Lvl/name                 OctLoc.c.b A Datatyp(siz) R M Lvl/name

     6-0-0/w PTR         r     1 @EXTERNAL                  3-0-0/w PTR         r     1 @KEY_VALUE
     5-0-0/w PTR         r     1 @NODETYPE                  4-0-0/w PTR         r     1 @SITENAME
    *0-0-0/c STRC(144)   r     1 EXTERNAL                  15-0-0/w UBIN              1 INDX
    *0-0-0/c CHAR(8)     r     1 KEY_VALUE                  7-0-0/c STRC(198)   r     1 NODEOVR
    *0-0-0/w UBIN        r     1 NODETYPE                  *0-0-0/c CHAR(8)     r     1 SITENAME

  ****  SYMREF variables  ****

  ****  Scalars and arrays  ****
OctLoc.c.b A Datatyp(siz) R M Lvl/name                 OctLoc.c.b A Datatyp(siz) R M Lvl/name

     0-0-0/w PTR               1 B$JIT$                     0-0-0/w PTR               1 B$TCB$
     0-0-0/w PTR         r     1 B$XL_UPPER$                0-0-0/c ASTR(9)     r     1 ERRMSG_FID
     0-0-0/w UBIN              1 M$DO_NUM                   0-0-0/w UBIN              1 M$LO_NUM
PL6.E3A0      #009=VMA$GET_SITE_NAME File=VMA$SUBR.:VMB6TSI                      WED 08/20/97 15:04 Page:358
     0-0-0/w UBIN              1 M$MAIL_CENTRAL_NUM         0-0-0/w UBIN              1 M$MAIL_COMGROUP_NUM
     0-0-0/w UBIN              1 M$MAIL_FILE_NUM            0-0-0/w UBIN              1 M$MAIL_GLOBAL_NUM
     0-0-0/w UBIN              1 M$ME_NUM                   0-0-0/w UBIN        r     1 M$NODE_NUM
     0-0-0/w UBIN              1 M$SI_NUM                   0-0-0/w UBIN              1 M$WORK_NUM
     0-0-0/w PTR               1 VM_ADDLIST$                0-0-0/d VECT              1 VM_ADDLIST_
     0-0-0/w PTR               1 VM_ADDREC$                 0-0-0/d VECT              1 VM_ADDREC_
     0-0-0/w PTR               1 VM_COPY$                   0-0-0/d VECT              1 VM_COPY_
     0-0-0/w PTR               1 VM_ENCLLIST$               0-0-0/d VECT              1 VM_ENCLLIST_
     0-0-0/w PTR               1 VM_ENCLREC$                0-0-0/d VECT              1 VM_ENCLREC_
     0-0-0/c STRC(270)         1 VM_FORWARD_ENCL_NAME       0-0-0/c STRC(270)         1 VM_FORWARD_FILE_NAME
     0-0-0/c STRC(72)          1 VM_FORWARD_FILE_PASS       0-0-0/w PTR               1 VM_HEADER$
     0-0-0/d VECT              1 VM_HEADER_                 0-0-0/d VECT              1 VM_HEADER_INIT_
     0-0-0/w PTR               1 VM_INPUT$                  0-0-0/d VECT              1 VM_INPUT_
     0-0-0/c STRC(72)          1 VM_MAILCG_NAME             0-0-0/w STRC(432)         1 VM_MAILCG_SETSTA
     0-0-0/c STRC(72)          1 VM_MAIL_ACCT               0-0-0/c STRC(54)          1 VM_NAME_MAP_NAME
     0-0-0/w PTR               1 VM_PARSEAREA$              0-0-0/d VECT              1 VM_PARSEAREA_
     0-0-0/w PTR               1 VM_PROFILE$                0-0-0/d VECT              1 VM_PROFILE_
     0-0-0/w PTR               1 VM_SELECT$                 0-0-0/d VECT              1 VM_SELECT_
     0-0-0/c STRC(288)         1 VM_SEND_FILE_NAME          0-0-0/c CHAR(8)     r     1 VM_SITENAME
     0-0-0/w PTR               1 VM_WORK$                   0-0-0/d VECT              1 VM_WORK_

  ****  BASED and DCB variables  ****

  ****  Scalars and arrays  ****
OctLoc.c.b A Datatyp(siz) R M Lvl/name                 OctLoc.c.b A Datatyp(siz) R M Lvl/name

     0-0-0/d ASTR(3528)  r     1 F$DCB                      0-0-0/d STRC(4608)  r     1 LOWER_UPPER
     0-0-0N  NULL        r     1 M$DO                       0-0-0N  NULL        r     1 M$LO
     0-0-0N  NULL        r     1 M$MAIL_CENTRAL             0-0-0N  NULL        r     1 M$MAIL_COMGROUP
     0-0-0N  NULL        r     1 M$MAIL_FILE                0-0-0N  NULL        r     1 M$MAIL_GLOBAL
     0-0-0N  NULL        r     1 M$ME                       0-0-0N  NULL        r     1 M$NODE
     0-0-0N  NULL        r     1 M$SI                       0-0-0N  NULL        r     1 M$UC
     0-0-0N  NULL        r     1 M$WORK                     0-0-0/c ASTR(9)     r     1 X$STRING


   Procedure VMA$GET_SITE_NAME requires 107 words for executable code.
PL6.E3A0      #009=VMA$GET_SITE_NAME File=VMA$SUBR.:VMB6TSI                      WED 08/20/97 15:04 Page:359
   Procedure VMA$GET_SITE_NAME requires 16 words of local(AUTO) storage.
PL6.E3A0      #009=VMA$GET_SITE_NAME File=VMA$SUBR.:VMB6TSI                      WED 08/20/97 15:04 Page:360
          *** CROSS REFERENCE LISTING ***
**     DENOTES     IDENTIFIER DEFINITION
<<                 IDENTIFIER'S VALUE SET
>>                 IDENTIFIER'S VALUE USED
<>                 IDENTIFIER SET AND/OR USED
--                 IDENTIFIER REFERENCED
PL6.E3A0      #009=VMA$GET_SITE_NAME File=VMA$SUBR.:VMB6TSI                      WED 08/20/97 15:04 Page:361
          MINI XREF LISTING

B$XL_UPPER$
      6712**DCL      6713--IMP-PTR  7053>>CALLBLT
ERRMSG_FID.L#
      6392**DCL      6392--IMP-SIZ
EXTERNAL
      6719**DCL        15--PROC     7110--IF
EXTERNAL.ACCT
      6721**DCL      7115<<ASSIGN   7119<<ASSIGN
EXTERNAL.SITENAME
      6720**DCL      7114<<ASSIGN   7118<<ASSIGN
E_SITE
      7131**LABEL    7062--CALLALT  7066--CALLALT
F$DCB.ACTPOS
      7025**DCL      7025--REDEF
F$DCB.ARS#
      6999**DCL      6999--REDEF    7077>>IF
F$DCB.ATTR
      7018**DCL      7019--REDEF
F$DCB.BORROW
      7033**DCL      7033--REDEF    7033--REDEF    7033--REDEF
F$DCB.DCBNAME.L
      7047**DCL      7047--IMP-SIZ
F$DCB.EOMCHAR#
      7003**DCL      7003--REDEF
F$DCB.FCD#
      7012**DCL      7060>>IF
F$DCB.FLDID
      7028**DCL      7028--REDEF
F$DCB.FORM$
      7022**DCL      7022--REDEF
F$DCB.FSECT
      7038**DCL      7038--REDEF
PL6.E3A0      #009=VMA$GET_SITE_NAME File=VMA$SUBR.:VMB6TSI                      WED 08/20/97 15:04 Page:362
F$DCB.FSN#
      7015**DCL      7015--REDEF    7015--REDEF    7016--REDEF
F$DCB.HEADER$
      7021**DCL      7021--REDEF
F$DCB.IXTNSIZE#
      7019**DCL      7019--REDEF
F$DCB.LASTSTA$
      7008**DCL      7008--REDEF
F$DCB.LVL
      7034**DCL      7034--REDEF
F$DCB.NAME#.C
      7009**DCL      7009--REDEF
F$DCB.NOEOF
      7031**DCL      7031--REDEF
F$DCB.NRECS#
      7020**DCL      7020--REDEF
F$DCB.NRECX
      7039**DCL      7039--REDEF
F$DCB.OHDR
      7031**DCL      7031--REDEF
F$DCB.ORG#
      7014**DCL      7014--REDEF
F$DCB.PRECNO
      7037**DCL      7037--REDEF
F$DCB.RCSZ
      7043**DCL      7043--REDEF
F$DCB.RES#
      7010**DCL      7010--REDEF
F$DCB.SETX
      7022**DCL      7022--REDEF
F$DCB.TAB$
      7022**DCL      7022--REDEF
F$DCB.TDA
      7036**DCL      7037--REDEF
F$DCB.WSN#
      7010**DCL      7010--REDEF
PL6.E3A0      #009=VMA$GET_SITE_NAME File=VMA$SUBR.:VMB6TSI                      WED 08/20/97 15:04 Page:363
IN_KEY
      6757**DCL      6955--DCLINIT  6956--DCLINIT
IN_KEY.L#
      6757**DCL      7055<<ASSIGN
IN_KEY.NAME#
      6757**DCL      7053<<CALLBLT  7055--ASSIGN   7084<<ASSIGN   7085>>IF       7092>>IF       7103>>ASSIGN
      7131>>IF
KEY_IAM.NAME#
      6930**DCL      7131>>IF
KEY_VALUE
      6716**DCL        15--PROC     7053>>CALLBLT  7079>>IF
LOWER_UPPER
      6713**DCL      7053>>CALLBLT
M$NODE_NUM
      6320**DCL      7050>>ASSIGN   7051>>ASSIGN   7060--IF       7077--IF
M$OPEN
      5504**DCL-ENT  7062--CALL
M$READ
      5505**DCL-ENT  7066--CALL
NODEOVR
      6723**DCL      7054--ASSIGN
NODEOVR.ACCT
      6725**DCL      7115>>ASSIGN
NODEOVR.NODE_NAME
      6726**DCL      7114>>ASSIGN
NODEOVR.PATH_NAME
      6724**DCL      6725--REDEF    7081>>ASSIGN   7084>>ASSIGN
NODEOVR.TYPE_DEST
      6727**DCL      7091<<ASSIGN   7098<<ASSIGN   7109>>ASSIGN   7112>>IF
NODETYPE
      6718**DCL        15--PROC     7107--IF       7109<<ASSIGN
OPEN_SITE
      6830**DCL      7062<>CALL
OPEN_SITE.ACSVEH_
      6832**DCL      6833--REDEF
OPEN_SITE.ALTKEYS_
PL6.E3A0      #009=VMA$GET_SITE_NAME File=VMA$SUBR.:VMB6TSI                      WED 08/20/97 15:04 Page:364
      6838**DCL      6839--REDEF    6839--REDEF
OPEN_SITE.HDR_
      6837**DCL      6838--REDEF
OPEN_SITE.TAB_
      6836**DCL      6837--REDEF
OPEN_SITE.UHL_
      6830**DCL      6831--REDEF    6831--REDEF
OPEN_SITE.V
      6839**DCL      6830--DCLINIT
OPEN_SITE.V.DCB#
      6839**DCL      7050<<ASSIGN
OPEN_SITE.V.FSN#
      6870**DCL      6870--REDEF    6870--REDEF
OPEN_SITE.WSN_
      6836**DCL      6836--REDEF
READ_NODE
      7066**LABEL    7087--GOTO     7094--GOTO
READ_SITE
      6955**DCL      7066<>CALL
READ_SITE.BUF_
      6957**DCL      7054<<ASSIGN
READ_SITE.STATION_
      6958**DCL      6959--REDEF
READ_SITE.V
      6959**DCL      6955--DCLINIT
READ_SITE.V.DCB#
      6959**DCL      7051<<ASSIGN
READ_SITE.V.DVBYTE.REREAD#
      6970**DCL      6970--REDEF
READ_SITE.V.INDX#
      6968**DCL      6968--REDEF
SITENAME
      6717**DCL        15--PROC     7081<<ASSIGN   7103<<ASSIGN   7134<<ASSIGN
SITE_MAP_NAME
      6901**DCL      6831--DCLINIT
VM_NODE_ACCT
PL6.E3A0      #009=VMA$GET_SITE_NAME File=VMA$SUBR.:VMB6TSI                      WED 08/20/97 15:04 Page:365
      6989**DCL      6835--DCLINIT
VM_SITENAME
      6515**DCL      7085>>IF       7092>>IF
X$STRING.SIZ
      6238**DCL      6239--IMP-SIZ

PL6.E3A0      #010=VMA$MOREMEM File=VMA$SUBR.:VMB6TSI                            WED 08/20/97 15:04 Page:366
     2082        1        /*T***********************************************************/
     2083        2        /*T*                                                         */
     2084        3        /*T* Copyright (c) Bull HN Information Systems Inc., 1997    */
     2085        4        /*T*                                                         */
     2086        5        /*T***********************************************************/
     2087        6        /*X* DMC,PLM=4,IND=4,CTI=2,DTI=0,ENI=0,ECI=0,CSI=0,DCI=4 */
     2088        7        /*X* DMC,PLM=4,IND=4,CTI=2,DTI=0,ENI=0,ECI=0,CSI=0,DCI=4 */
     2089        8        /*F*
     2090        9            NAME: VMA$MOREMEM
     2091       10            PURPOSE:
     2092       11                  To get more memory for ADAPT
     2093       12            DESCRIPTION:
     2094       13                  This routine has three parameters:
     2095       14
     2096       15                  SIZE - number of words to acquire (optional: default is 1024)
     2097       16                  VECT_ - vector framing allocated memory.
     2098       17                  ERRCODE - error code which contains error code if altret is
     2099       18                            taken while trying to get memory.
     2100       19        */
     2101       20        VMA$MOREMEM: PROC (SIZE, VECT_, ERRCODE) ALTRET;
     2102       21        /***** Include files *****/
     2103       22        %INCLUDE CP_6;
     2104     5581        %INCLUDE CP_6_SUBS;
     2105     6121        %INCLUDE B$JIT;
     2106     6724        %INCLUDE VM_DATA_R;
     2107     7155        /***** Paramaters *****/
     2108     7156    1   DCL SIZE SBIN WORD;
     2109     7157        %VLP_VECTOR(FPTN=VECT_,STCLASS=" ");
     2110     7172        %VLP_ERRCODE(FPTN=ERRCODE,STCLASS=" ");
     2111     7217        /***** entry points *****/
     2112     7218    1   DCL VMA$ENLARGE_SEGMENT ENTRY(2) ALTRET;
     2113     7219    1   DCL VMA$SHRINK_SEGMENT ENTRY(2) ALTRET;
     2114     7220        /***** Macros *****/
     2115     7221        %B$TCB(STCLASS="BASED(B$TCB$)");
     2116     7224        %B$ALT;
     2117     7232        %EJECT;
PL6.E3A0      #010=VMA$MOREMEM File=VMA$SUBR.:VMB6TSI                            WED 08/20/97 15:04 Page:367
     2118     7233    2       IF SIZE < 0 THEN DO; /* if size parameter given is negative */
     2119     7234    2           SIZE = - SIZE; /* convert it to its positive value */
     2120     7235    2           CALL VMA$SHRINK_SEGMENT(VM_PARSEAREA_,SIZE) ALTRET(E_PMME);
     2121     7236    2           VECT_.PTR$ = ADDR(NIL);
     2122     7237    2           VECT_.W1.VSIZE# = 0;
     2123     7238    2       END; /* if size is negative */
     2124     7239    2       ELSE DO; /* if size is positive */
     2125     7240    2           VECT_.PTR$ = PINCRC(VBASE(VM_PARSEAREA_),VBOUND(VM_PARSEAREA_) + 1);
     2126     7241    2           CALL VMA$ENLARGE_SEGMENT (VM_PARSEAREA_,SIZE) ALTRET(E_PMME);
     2127     7242    2           VECT_.W1.VSIZE# = (SIZE * 4) - 1; /* set vector bound */
     2128     7243    2       END; /* if size is positive */
     2129     7244    1       RETURN;
     2130     7245    1   E_PMME:
     2131     7246    1       ERRCODE = B$TCB$->B$TCB.ALT$->B$ALT.ERR;
     2132     7247    1       ALTRETURN;
     2133     7248    1   END VMA$MOREMEM;
     2134     7249        %EOD;

PL6.E3A0      #010=VMA$MOREMEM File=VMA$SUBR.:VMB6TSI                            WED 08/20/97 15:04 Page:368
--  Include file information  --

   B_MACROS_C.:LIB_E05  is referenced.
   VM_DATA_R.:VMB6TOU  cannot be made into a system file and is referenced.
   B$JIT_C.:LIB_E05  is referenced.
   B$JIT.:LIB_E05  cannot be made into a system file and is referenced.
   CP_6_SUBS.:LIB_E05  is referenced.
   CP_6_C.:LIB_E05  is referenced.
   CP_6.:LIB_E05  cannot be made into a system file and is referenced.
      No diagnostics issued in procedure VMA$MOREMEM.

   Procedure VMA$MOREMEM requires 51 words for executable code.
   Procedure VMA$MOREMEM requires 8 words of local(AUTO) storage.

PL6.E3A0      #010=VMA$MOREMEM File=VMA$SUBR.:VMB6TSI                            WED 08/20/97 15:04 Page:369

 Object Unit name= VMA$MOREMEM                                File name= VMA$SUBR.:VMB6TOU
 UTS= AUG 20 '97 15:04:43.52 WED                              Compiler= PL-6/E31         Sev=      00
 SharedLib= :SHARED_SYSTEM                                    Alt SharedLib=


    ****  Control sections  ****

 Sect   Type Bound  Init  Size OctSiz  Section name(segment info)
    0   DCB   even  none     0      0  M$UC
    1   DCB   even  none     0      0  M$MAIL_FILE
    2   DCB   even  none     0      0  M$MAIL_CENTRAL
    3   DCB   even  none     0      0  M$MAIL_GLOBAL
    4   DCB   even  none     0      0  M$WORK
    5   DCB   even  none     0      0  M$MAIL_COMGROUP
    6   DCB   even  none     0      0  M$DO
    7   DCB   even  none     0      0  M$LO
    8   DCB   even  none     0      0  M$ME
    9   DCB   even  none     0      0  M$NODE
   10   DCB   even  none     0      0  M$SI
   11   Proc  even  none    51     63  VMA$MOREMEM
   12  RoData even  none     4      4  VMA$MOREMEM

    ****  Entry defs  ****

                              Check   Calling
                             calling  sequence
  Sect OctLoc Primary Altret sequence   type   Parms  Name
    11      0   yes    yes     yes      Std        3  VMA$MOREMEM
PL6.E3A0      #010=VMA$MOREMEM File=VMA$SUBR.:VMB6TSI                            WED 08/20/97 15:04 Page:370

  ****  Entry refs  ****

         Check        Calling
        calling       sequence
Altret sequence SRef   type   Args  Name
 yes     yes           Std       2 VMA$SHRINK_SEGMENT
 yes     yes           Std       2 VMA$ENLARGE_SEGMENT
                       nStd      0 X66_AUTO_3
                       nStd      0 X66_ARET
                       nStd      0 X66_AALT

  ****  Data refs  ****

  Flags:  r = read only, s = secondary
Flgs Name                             Flgs Name                             Flgs Name
     M$UC                             r    VM_HEADER$                       r    VM_PROFILE$
r    VM_ADDLIST$                      r    VM_ADDREC$                       r    VM_WORK$
r    VM_SELECT$                       r    VM_PARSEAREA$                    r    VM_INPUT$
r    VM_COPY$                              VM_ENCLLIST$                          VM_ENCLREC$
     VM_HEADER_                            VM_HEADER_INIT_                       VM_PROFILE_
     VM_ADDLIST_                           VM_ADDREC_                            VM_WORK_
     VM_SELECT_                            VM_PARSEAREA_                         VM_INPUT_
     VM_COPY_                              VM_ENCLLIST_                          VM_ENCLREC_
     M$MAIL_FILE                           M$MAIL_CENTRAL                        M$MAIL_GLOBAL
     M$WORK                                M$MAIL_COMGROUP                       M$DO
     M$LO                                  M$ME                                  M$NODE
     M$SI                                  M$MAIL_FILE_NUM                       M$MAIL_CENTRAL_NUM
     M$MAIL_GLOBAL_NUM                     M$WORK_NUM                            M$MAIL_COMGROUP_NUM
     M$DO_NUM                              M$ME_NUM                              M$LO_NUM
     M$SI_NUM                              M$NODE_NUM                       r    B$JIT$
r    B$TCB$                                VM_MAIL_ACCT                          VM_NAME_MAP_NAME
     ERRMSG_FID                            VM_SEND_FILE_NAME                     VM_FORWARD_FILE_NAME
     VM_FORWARD_ENCL_NAME                  VM_FORWARD_FILE_PASS                  VM_MAILCG_NAME
     VM_SITENAME                           VM_MAILCG_SETSTA
PL6.E3A0      #010=VMA$MOREMEM File=VMA$SUBR.:VMB6TSI                            WED 08/20/97 15:04 Page:371

  ****  Segment refs  ****

  Flags:  r = read only, s = secondary
Flgs Name                             Flgs Name                             Flgs Name
     NULLSID                               ISSID
PL6.E3A0      #010=VMA$MOREMEM File=VMA$SUBR.:VMB6TSI                            WED 08/20/97 15:04 Page:372


     2082        1        /*T***********************************************************/
     2083        2        /*T*                                                         */
     2084        3        /*T* Copyright (c) Bull HN Information Systems Inc., 1997    */
     2085        4        /*T*                                                         */
     2086        5        /*T***********************************************************/
     2087        6        /*X* DMC,PLM=4,IND=4,CTI=2,DTI=0,ENI=0,ECI=0,CSI=0,DCI=4 */
     2088        7        /*X* DMC,PLM=4,IND=4,CTI=2,DTI=0,ENI=0,ECI=0,CSI=0,DCI=4 */
     2089        8        /*F*
     2090        9            NAME: VMA$MOREMEM
     2091       10            PURPOSE:
     2092       11                  To get more memory for ADAPT
     2093       12            DESCRIPTION:
     2094       13                  This routine has three parameters:
     2095       14
     2096       15                  SIZE - number of words to acquire (optional: default is 1024)
     2097       16                  VECT_ - vector framing allocated memory.
     2098       17                  ERRCODE - error code which contains error code if altret is
     2099       18                            taken while trying to get memory.
     2100       19        */
     2101       20        VMA$MOREMEM: PROC (SIZE, VECT_, ERRCODE) ALTRET;

     20 11 000000   000000 700200 xent  VMA$MOREMEM  TSX0  ! X66_AUTO_3
        11 000001   000010 000003                    ZERO    8,3

     2102       21        /***** Include files *****/
     2103       22        %INCLUDE CP_6;
     2104     5581        %INCLUDE CP_6_SUBS;
     2105     6121        %INCLUDE B$JIT;
     2106     6724        %INCLUDE VM_DATA_R;
     2107     7155        /***** Paramaters *****/
     2108     7156    1   DCL SIZE SBIN WORD;
     2109     7157        %VLP_VECTOR(FPTN=VECT_,STCLASS=" ");
     2110     7172        %VLP_ERRCODE(FPTN=ERRCODE,STCLASS=" ");
     2111     7217        /***** entry points *****/
     2112     7218    1   DCL VMA$ENLARGE_SEGMENT ENTRY(2) ALTRET;
     2113     7219    1   DCL VMA$SHRINK_SEGMENT ENTRY(2) ALTRET;
PL6.E3A0      #010=VMA$MOREMEM File=VMA$SUBR.:VMB6TSI                            WED 08/20/97 15:04 Page:373
     2114     7220        /***** Macros *****/
     2115     7221        %B$TCB(STCLASS="BASED(B$TCB$)");
     2116     7224        %B$ALT;
     2117     7232        %EJECT;
PL6.E3A0      #010=VMA$MOREMEM File=VMA$SUBR.:VMB6TSI                            WED 08/20/97 15:04 Page:374
     2118     7233    2       IF SIZE < 0 THEN DO; /* if size parameter given is negative */

   7233 11 000002   200003 470500                    LDP0    @SIZE,,AUTO
        11 000003   000000 235100                    LDA     0,,PR0
        11 000004   000025 605000 11                 TPL     s:7240

     2119     7234    2           SIZE = - SIZE; /* convert it to its positive value */

   7234 11 000005   000000 235100                    LDA     0,,PR0
        11 000006   000000 531000                    NEG     0
        11 000007   000000 755100                    STA     0,,PR0

     2120     7235    2           CALL VMA$SHRINK_SEGMENT(VM_PARSEAREA_,SIZE) ALTRET(E_PMME);

   7235 11 000010   200003 236100                    LDQ     @SIZE,,AUTO
        11 000011   000001 235000 12                 LDA     1
        11 000012   200006 757100                    STAQ    @ERRCODE+1,,AUTO
        11 000013   200006 630500                    EPPR0   @ERRCODE+1,,AUTO
        11 000014   000000 631400 12                 EPPR1   0
        11 000015   000000 701000 xent               TSX1    VMA$SHRINK_SEGMENT
        11 000016   000055 702000 11                 TSX2    E_PMME

     2121     7236    2           VECT_.PTR$ = ADDR(NIL);

   7236 11 000017   000002 236000 12                 LDQ     2
        11 000020   200004 470500                    LDP0    @VECT_,,AUTO
        11 000021   000001 756100                    STQ     1,,PR0

     2122     7237    2           VECT_.W1.VSIZE# = 0;

   7237 11 000022   177777 236007                    LDQ     65535,DL
        11 000023   000000 356100                    ANSQ    0,,PR0

     2123     7238    2       END; /* if size is negative */

   7238 11 000024   000054 710000 11                 TRA     s:7244

PL6.E3A0      #010=VMA$MOREMEM File=VMA$SUBR.:VMB6TSI                            WED 08/20/97 15:04 Page:375
     2124     7239    2       ELSE DO; /* if size is positive */

     2125     7240    2           VECT_.PTR$ = PINCRC(VBASE(VM_PARSEAREA_),VBOUND(VM_PARSEAREA_) + 1);

   7240 11 000025   000000 236000 xsym               LDQ     VM_PARSEAREA_
        11 000026   000020 772000                    QRL     16
        11 000027   000020 736000                    QLS     16
        11 000030   200000 036007                    ADLQ    65536,DL
        11 000031   000001 036000 xsym               ADLQ    VM_PARSEAREA_+1
        11 000032   200004 471500                    LDP1    @VECT_,,AUTO
        11 000033   100001 756100                    STQ     1,,PR1

     2126     7241    2           CALL VMA$ENLARGE_SEGMENT (VM_PARSEAREA_,SIZE) ALTRET(E_PMME);

   7241 11 000034   200003 236100                    LDQ     @SIZE,,AUTO
        11 000035   000001 235000 12                 LDA     1
        11 000036   200006 757100                    STAQ    @ERRCODE+1,,AUTO
        11 000037   200006 630500                    EPPR0   @ERRCODE+1,,AUTO
        11 000040   000000 631400 12                 EPPR1   0
        11 000041   000000 701000 xent               TSX1    VMA$ENLARGE_SEGMENT
        11 000042   000055 702000 11                 TSX2    E_PMME

     2127     7242    2           VECT_.W1.VSIZE# = (SIZE * 4) - 1; /* set vector bound */

   7242 11 000043   200004 470500                    LDP0    @VECT_,,AUTO
        11 000044   200003 471500                    LDP1    @SIZE,,AUTO
        11 000045   100000 236100                    LDQ     0,,PR1
        11 000046   000002 736000                    QLS     2
        11 000047   000001 136007                    SBLQ    1,DL
        11 000050   000020 736000                    QLS     16
        11 000051   000000 676100                    ERQ     0,,PR0
        11 000052   000003 376000 12                 ANQ     3
        11 000053   000000 656100                    ERSQ    0,,PR0

     2128     7243    2       END; /* if size is positive */

     2129     7244    1       RETURN;
PL6.E3A0      #010=VMA$MOREMEM File=VMA$SUBR.:VMB6TSI                            WED 08/20/97 15:04 Page:376

   7244 11 000054   000000 702200 xent               TSX2  ! X66_ARET

     2130     7245    1   E_PMME:
     2131     7246    1       ERRCODE = B$TCB$->B$TCB.ALT$->B$ALT.ERR;

   7246 11 000055   000000 470400 xsym  E_PMME       LDP0    B$TCB$
        11 000056   000000 471500                    LDP1    0,,PR0
        11 000057   100102 236100                    LDQ     66,,PR1
        11 000060   200005 473500                    LDP3    @ERRCODE,,AUTO
        11 000061   300000 756100                    STQ     0,,PR3

     2132     7247    1       ALTRETURN;

   7247 11 000062   000000 702200 xent               TSX2  ! X66_AALT

(unnamed)
 Sect OctLoc
  12     000   000002 000000   000000 006000   000000 006014   777777 600000    ................
     2133     7248    1   END VMA$MOREMEM;
     2134     7249        %EOD;

PL6.E3A0      #010=VMA$MOREMEM File=VMA$SUBR.:VMB6TSI                            WED 08/20/97 15:04 Page:377
--  Include file information  --

   B_MACROS_C.:LIB_E05  is referenced.
   VM_DATA_R.:VMB6TOU  cannot be made into a system file and is referenced.
   B$JIT_C.:LIB_E05  is referenced.
   B$JIT.:LIB_E05  cannot be made into a system file and is referenced.
   CP_6_SUBS.:LIB_E05  is referenced.
   CP_6_C.:LIB_E05  is referenced.
   CP_6.:LIB_E05  cannot be made into a system file and is referenced.
      No diagnostics issued in procedure VMA$MOREMEM.
PL6.E3A0      #010=VMA$MOREMEM File=VMA$SUBR.:VMB6TSI                            WED 08/20/97 15:04 Page:378

 **** Variables and constants ****

  ****  Auto variables  ****

  ****  Scalars and arrays  ****
OctLoc.c.b A Datatyp(siz) R M Lvl/name                 OctLoc.c.b A Datatyp(siz) R M Lvl/name

     5-0-0/w PTR         r     1 @ERRCODE                   3-0-0/w PTR         r     1 @SIZE
     4-0-0/w PTR         r     1 @VECT_                    *0-0-0/w STRC        r     1 ERRCODE
    *0-0-0/w SBIN        r     1 SIZE                      *0-0-0/d STRC(72)    r     1 VECT_

  ****  SYMREF variables  ****

  ****  Scalars and arrays  ****
OctLoc.c.b A Datatyp(siz) R M Lvl/name                 OctLoc.c.b A Datatyp(siz) R M Lvl/name

     0-0-0/w PTR         r     1 B$JIT$                     0-0-0/w PTR         r     1 B$TCB$
     0-0-0/c ASTR(9)     r     1 ERRMSG_FID                 0-0-0/w UBIN              1 M$DO_NUM
     0-0-0/w UBIN              1 M$LO_NUM                   0-0-0/w UBIN              1 M$MAIL_CENTRAL_NUM
     0-0-0/w UBIN              1 M$MAIL_COMGROUP_NUM        0-0-0/w UBIN              1 M$MAIL_FILE_NUM
     0-0-0/w UBIN              1 M$MAIL_GLOBAL_NUM          0-0-0/w UBIN              1 M$ME_NUM
     0-0-0/w UBIN              1 M$NODE_NUM                 0-0-0/w UBIN              1 M$SI_NUM
     0-0-0/w UBIN              1 M$WORK_NUM                 0-0-0/w PTR               1 VM_ADDLIST$
     0-0-0/d VECT              1 VM_ADDLIST_                0-0-0/w PTR               1 VM_ADDREC$
     0-0-0/d VECT              1 VM_ADDREC_                 0-0-0/w PTR               1 VM_COPY$
     0-0-0/d VECT              1 VM_COPY_                   0-0-0/w PTR               1 VM_ENCLLIST$
     0-0-0/d VECT              1 VM_ENCLLIST_               0-0-0/w PTR               1 VM_ENCLREC$
     0-0-0/d VECT              1 VM_ENCLREC_                0-0-0/c STRC(270)         1 VM_FORWARD_ENCL_NAME
     0-0-0/c STRC(270)         1 VM_FORWARD_FILE_NAME       0-0-0/c STRC(72)          1 VM_FORWARD_FILE_PASS
     0-0-0/w PTR               1 VM_HEADER$                 0-0-0/d VECT              1 VM_HEADER_
     0-0-0/d VECT              1 VM_HEADER_INIT_            0-0-0/w PTR               1 VM_INPUT$
     0-0-0/d VECT              1 VM_INPUT_                  0-0-0/c STRC(72)          1 VM_MAILCG_NAME
     0-0-0/w STRC(432)         1 VM_MAILCG_SETSTA           0-0-0/c STRC(72)          1 VM_MAIL_ACCT
     0-0-0/c STRC(54)          1 VM_NAME_MAP_NAME           0-0-0/w PTR               1 VM_PARSEAREA$
     0-0-0/d VECT        r     1 VM_PARSEAREA_              0-0-0/w PTR               1 VM_PROFILE$
     0-0-0/d VECT              1 VM_PROFILE_                0-0-0/w PTR               1 VM_SELECT$
     0-0-0/d VECT              1 VM_SELECT_                 0-0-0/c STRC(288)         1 VM_SEND_FILE_NAME
PL6.E3A0      #010=VMA$MOREMEM File=VMA$SUBR.:VMB6TSI                            WED 08/20/97 15:04 Page:379
     0-0-0/c CHAR(8)           1 VM_SITENAME                0-0-0/w PTR               1 VM_WORK$
     0-0-0/d VECT              1 VM_WORK_

  ****  BASED and DCB variables  ****

  ****  Scalars and arrays  ****
OctLoc.c.b A Datatyp(siz) R M Lvl/name                 OctLoc.c.b A Datatyp(siz) R M Lvl/name

     0-0-0/w STRC(2448)  r     1 B$ALT                      0-0-0/d STRC(8856)        1 B$JIT
     0-0-0/w STRC(144)   r     1 B$TCB                      0-0-0N  NULL        r     1 M$DO
     0-0-0N  NULL        r     1 M$LO                       0-0-0N  NULL        r     1 M$MAIL_CENTRAL
     0-0-0N  NULL        r     1 M$MAIL_COMGROUP            0-0-0N  NULL        r     1 M$MAIL_FILE
     0-0-0N  NULL        r     1 M$MAIL_GLOBAL              0-0-0N  NULL        r     1 M$ME
     0-0-0N  NULL        r     1 M$NODE                     0-0-0N  NULL        r     1 M$SI
     0-0-0N  NULL        r     1 M$UC                       0-0-0N  NULL        r     1 M$WORK
     0-0-0/c ASTR(9)     r     1 X$STRING


   Procedure VMA$MOREMEM requires 51 words for executable code.
   Procedure VMA$MOREMEM requires 8 words of local(AUTO) storage.
PL6.E3A0      #010=VMA$MOREMEM File=VMA$SUBR.:VMB6TSI                            WED 08/20/97 15:04 Page:380
          *** CROSS REFERENCE LISTING ***
**     DENOTES     IDENTIFIER DEFINITION
<<                 IDENTIFIER'S VALUE SET
>>                 IDENTIFIER'S VALUE USED
<>                 IDENTIFIER SET AND/OR USED
--                 IDENTIFIER REFERENCED
PL6.E3A0      #010=VMA$MOREMEM File=VMA$SUBR.:VMB6TSI                            WED 08/20/97 15:04 Page:381
          MINI XREF LISTING

B$ALT.CODE
      7226**DCL      7226--REDEF    7227--REDEF    7227--REDEF
B$ALT.ERR
      7227**DCL      7246>>ASSIGN
B$ALT.ERR.ERR#
      7228**DCL      7228--REDEF
B$ALT.EVID
      7227**DCL      7227--REDEF    7227--REDEF
B$JIT.CPFLAGS1.SLEAZE
      6542**DCL      6542--REDEF
B$JIT.ERR.MID
      6449**DCL      6449--REDEF
B$JIT.JRESPEAK
      6610**DCL      6611--REDEF
B$JIT.ORIGINATOR_PORT.FROM_CR
      6719**DCL      6719--REDEF    6720--REDEF
B$JIT.PNR
      6623**DCL      6623--REDEF
B$JIT.TSLINE
      6717**DCL      6718--REDEF
B$JIT$
      6931**DCL      6443--IMP-PTR
B$TCB.ALT$
      7222**DCL      7246>>ASSIGN
B$TCB$
      6932**DCL      7222--IMP-PTR  7246>>ASSIGN
ERRCODE
      7184**DCL        20--PROC     7246<<ASSIGN
ERRMSG_FID.L#
      7000**DCL      7000--IMP-SIZ
E_PMME
      7246**LABEL    7235--CALLALT  7241--CALLALT
PL6.E3A0      #010=VMA$MOREMEM File=VMA$SUBR.:VMB6TSI                            WED 08/20/97 15:04 Page:382
SIZE
      7156**DCL        20--PROC     7233>>IF       7234<<ASSIGN   7234>>ASSIGN   7235<>CALL     7241<>CALL
      7242>>ASSIGN
VECT_
      7168**DCL        20--PROC
VECT_.PTR$
      7170**DCL      7236<<ASSIGN   7240<<ASSIGN
VECT_.W1.VSIZE#
      7168**DCL      7237<<ASSIGN   7242<<ASSIGN
VECT_.W2
      7169**DCL      7170--REDEF
VMA$ENLARGE_SEGMENT
      7218**DCL-ENT  7241--CALL
VMA$SHRINK_SEGMENT
      7219**DCL-ENT  7235--CALL
VM_PARSEAREA_
      6882**DCL      7235<>CALL     7240>>ASSIGN   7240>>ASSIGN   7241<>CALL
X$STRING.SIZ
      6846**DCL      6847--IMP-SIZ

PL6.E3A0      #011=VMA$OPEN_FOLDER File=VMA$SUBR.:VMB6TSI                        WED 08/20/97 15:04 Page:383
     2135        1        /*T***********************************************************/
     2136        2        /*T*                                                         */
     2137        3        /*T* Copyright (c) Bull HN Information Systems Inc., 1997    */
     2138        4        /*T*                                                         */
     2139        5        /*T***********************************************************/
     2140        6        /*X* DMC,PLM=4,IND=4,CTI=2,DTI=0,ENI=0,ECI=0,CSI=0,DCI=4 */
     2141        7        /*X* DMC,PLM=4,IND=4,CTI=2,DTI=0,ENI=0,ECI=0,CSI=0,DCI=4 */
     2142        8        /*F*
     2143        9             NAME: VMA$OPEN_FOLDER
     2144       10             PURPOSE:
     2145       11                   This routine will take an address and open the correct file.
     2146       12             DESCRIPTION:
     2147       13                   This routine will accept an address specification that
     2148       14                   has been resolved to a USER NAME or ACCOUNT along with
     2149       15                   FOLDER, PASSWORD and SITENAME and open the correct folder
     2150       16                   if possible.
     2151       17
     2152       18                   This routine will use defaults if fields are not filled in.
     2153       19                   Either an ACCOUNT or REGISTERED NAME must be supplied.
     2154       20                   The defaults are:
     2155       21
     2156       22                   FIELD         DEFAULT SUPPLIED
     2157       23                   -----         ----------------
     2158       24                   FOLDER        central folder for this user.
     2159       25                                 If an account was specified, then 'CENTRAL'.
     2160       26                   PASSWORD      none
     2161       27                   SITENAME      local sitename
     2162       28
     2163       29
     2164       30                   This routine has the following parameters:
     2165       31
     2166       32                      VM_FOLDER_INFO - place to store information describing
     2167       33                                       the folder that was opened.
     2168       34
     2169       35                      VM_RADDRESS   - The RESOLVED address describing the
     2170       36                                      folder to open.
     2171       37                      VM_UADDRESS   - The UNRESOLVED address describing the
PL6.E3A0      #011=VMA$OPEN_FOLDER File=VMA$SUBR.:VMB6TSI                        WED 08/20/97 15:04 Page:384
     2172       38                                      folder to open.
     2173       39
     2174       40                      DCB#          - DCB to open the folder with.
     2175       41
     2176       42                      EXIST         - Value to use for OPEN.V.EXIST# (optional)
     2177       43                                      Default value is OLDFILE.
     2178       44
     2179       45                      FUN           - Value to use for OPEN.V.FUN# (optional)
     2180       46                                      Default value is IN.
     2181       47        */
     2182       48        VMA$OPEN_FOLDER: PROC (VM_FOLDER_INFO,ADDRESS$,DCB#,EXIST,FUN) ALTRET;
     2183       49        /***** Include files *****/
     2184       50          %INCLUDE B$JIT;
     2185      653          %INCLUDE CP_6;
     2186     6212          %INCLUDE CP_6_SUBS;
     2187     6752          %INCLUDE FM$FIT;
     2188     6973          %INCLUDE VM_MACRO_C;
     2189     8241          %INCLUDE VM_SUBS_C;
     2190     8501          %INCLUDE VM_DATA_R;
     2191     8932        /***** Parameters *****/
     2192     8933          %VM_FOLDER_INFO (STCLASS=" ");
     2193     8985    1   DCL ADDRESS$ PTR;
     2194     8986    1   DCL DCB# UBIN WORD;
     2195     8987    1   DCL EXIST UBIN WORD;
     2196     8988    1   DCL FUN UBIN WORD;
     2197     8989        /***** Fpts *****/
     2198     8990          %FPT_OPEN (ACS=DIRECT,ASN=FILE,SCRUB=YES,ORG=KEYED,SHARE=ALL,SPARE=100);
     2199     9099          %FPT_MADMUCK (READ=YES, WRITE=NO, DELETE=NO);
     2200     9115          %VLP_ATTR (FPTN=FOLDER_ACCESS);
     2201     9129             %VLP_ACCESS (ACCT='ALL',NOLIST=YES,LAST=";");
     2202     9146        /*
     2203     9147           Change 1859 to the following when the folder-access-control
     2204     9148           stuff is implemented.  Not 'til then, though, cause it would
     2205     9149           lead to a security breach.
     2206     9150             %VLP_ACCESS (ACCT='?',nolist=yes,exec=yes,last=";");
     2207     9151          %VLP_ATTR (FPTN=FOLDER_VEHICLES);
     2208     9152             %VLP_ACSVEH (vehicle='mail?',delf=yes,delr=yes,read=yes,reattr=yes,
PL6.E3A0      #011=VMA$OPEN_FOLDER File=VMA$SUBR.:VMB6TSI                        WED 08/20/97 15:04 Page:385
     2209     9153                          upd=yes,wnew=yes);
     2210     9154             %VLP_ACSVEH (vehicle='send?',delf=yes,delr=yes,read=yes,reattr=yes,
     2211     9155                          upd=yes,wnew=yes);
     2212     9156             %VLP_ACSVEH (vehicle='calendar?',delf=yes,delr=yes,read=yes,reattr=yes,
     2213     9157                          upd=yes,wnew=yes,last=";");
     2214     9158        */
     2215     9159        /***** Mail structures *****/
     2216     9160              %VM_ADDTYPES;
     2217     9164            %VM_KEYTYPES;
     2218     9185        /***** Based structures *****/
     2219     9186            %VM_RADDRESS (NAME=VM$RADDRESS,STCLASS="BASED(ADDRESS$)");
     2220     9221          %VM_UADDRESS (NAME=VM$UADDRESS,STCLASS="BASED(ADDRESS$)");
     2221     9258        /***** Other macros *****/
     2222     9259        %FPT_CLOSE (FPTN=CLOSE_SAVE, STCLASS=STATIC,
     2223     9260                  DISP=SAVE);
     2224     9302          %CODE03;
     2225     9309          %CODE04;
     2226     9317              %VLP_NAME (FPTN=FID_NAME,STCLASS=STATIC);
     2227     9344          %VLP_SN (FPTN=PACKSET,N=1,STCLASS=AUTO);
     2228     9357          %F$DCB;
     2229     9414        /***** External routines *****/
     2230     9415    1   DCL XSF$LOCCODE ENTRY(2) ALTRET;
     2231     9416        /***** Local variables *****/
     2232     9417    1   DCL FIT$ PTR STATIC;
     2233     9418    1   DCL CODE UBIN WORD STATIC;
     2234     9419    1   DCL I UBIN WORD AUTO;
     2235     9420    1   DCL FIT_AREA                                 (0:1023) UBIN WORD AUTO DALIGNED;
     2236     9421        %EJECT;
PL6.E3A0      #011=VMA$OPEN_FOLDER File=VMA$SUBR.:VMB6TSI                        WED 08/20/97 15:04 Page:386
     2237     9422    1       IF ADDR(ADDRESS$) ~= ADDR(NIL) THEN
     2238     9423    1           IF VM$RADDRESS.TYPE = %VM_ADD_UNRESOLVED
     2239     9424    1           THEN
     2240     9425    2           DO;               /* Error!!! */
     2241     9426    2               ALTRETURN;
     2242     9427    2           END;
     2243     9428        /*
     2244     9429             ***** Initialize open fpt ...
     2245     9430        */
     2246     9431    1       FPT_OPEN.V.DCB# = DCB#;
     2247     9432    1       IF ADDR(EXIST) ~= ADDR(NIL)
     2248     9433    1       THEN                            /* Use the passed value */
     2249     9434    1           FPT_OPEN.V.EXIST# = EXIST;
     2250     9435    1       ELSE                            /* Use default */
     2251     9436    1           FPT_OPEN.V.EXIST# = %OLDFILE#;
     2252     9437    1       IF ADDR(FUN) ~= ADDR(NIL)
     2253     9438    1       THEN                            /* Use the passed value */
     2254     9439    1           FPT_OPEN.V.FUN# = FUN;
     2255     9440    1       ELSE                            /* Use default */
     2256     9441    1           FPT_OPEN.V.FUN# = %IN#;
     2257     9442    1       FPT_OPEN.FPARAM_ = VECTOR(FIT_AREA);
     2258     9443    1       FPT_OPEN.NAME_ = VECTOR(FID_NAME);
     2259     9444    1       FPT_OPEN.ACCT_ = VECTOR(VM_FOLDER_INFO.ACCT);
     2260     9445    1       FPT_OPEN.PASS_ = VECTOR(VM_FOLDER_INFO.PASS);
     2261     9446        /*
     2262     9447             ***** Is this address fully resolved?
     2263     9448                   or is more work necessary first ...
     2264     9449        */
     2265     9450    1       IF ADDR(ADDRESS$) = ADDR(NIL) THEN GOTO GOT_SPEC;
     2266     9451    1       IF VM$RADDRESS.NOMAD.DELIM = ' '
     2267     9452    1         AND VM$RADDRESS.NOMAD.PSID ~= ' '
     2268     9453    2       THEN DO;
     2269     9454    2           VM_FOLDER_INFO.FOLDER = VM$RADDRESS.NOMAD.FOLDER;
     2270     9455    2           VM_FOLDER_INFO.PSID = VM$RADDRESS.NOMAD.PSID;
     2271     9456    2       END;
     2272     9457    2       ELSE DO;
     2273     9458    2           VM_FOLDER_INFO.FOLDER = VM$RADDRESS.FOLDER;
PL6.E3A0      #011=VMA$OPEN_FOLDER File=VMA$SUBR.:VMB6TSI                        WED 08/20/97 15:04 Page:387
     2274     9459    2           VM_FOLDER_INFO.PSID = ' ';
     2275     9460    2       END;
     2276     9461
     2277     9462    1       IF VM_FOLDER_INFO.FOLDER = ' '
     2278     9463    1       THEN
     2279     9464    1           VM_FOLDER_INFO.FOLDER = 'CENTRAL';
     2280     9465        /**/
     2281     9466    1       IF VM$RADDRESS.ACCT ~= ' '
     2282     9467    1       THEN
     2283     9468    2       DO;                          /* Folder name supplied */
     2284     9469    2           VM_FOLDER_INFO.ACCT = VM$RADDRESS.ACCT;
     2285     9470    2       END;
     2286     9471    1       ELSE                            /* Default used */
     2287     9472    1           VM_FOLDER_INFO.ACCT = B$JIT.FACCN;
     2288     9473        /**/
     2289     9474    1       VM_FOLDER_INFO.PASS = VM$RADDRESS.PASS;
     2290     9475        /**/
     2291     9476    1       IF VM$RADDRESS.SITENAME ~= ' '
     2292     9477    1       THEN
     2293     9478    2       DO;                          /* Sitename supplied */
     2294     9479    2           VM_FOLDER_INFO.SITENAME = VM$RADDRESS.SITENAME;
     2295     9480    2       END;
     2296     9481    1       ELSE                            /* Default used */
     2297     9482    1           VM_FOLDER_INFO.SITENAME = VM_SITENAME;
     2298     9483        /*
     2299     9484             ***** Translate the folder name into a file name ...
     2300     9485        */
     2301     9486    1   GOT_SPEC:
     2302     9487        /*
     2303     9488             ***** Set up the packset name, if necessary.
     2304     9489        */
     2305     9490    1       IF VM_FOLDER_INFO.PSID = ' '
     2306     9491    1       THEN
     2307     9492    1           FPT_OPEN.SN_ = VECTOR (NIL);
     2308     9493    2       ELSE DO;
     2309     9494    2           PACKSET.NUM# = 1;
     2310     9495    2           PACKSET.SN#(0) = VM_FOLDER_INFO.PSID;
PL6.E3A0      #011=VMA$OPEN_FOLDER File=VMA$SUBR.:VMB6TSI                        WED 08/20/97 15:04 Page:388
     2311     9496    2           FPT_OPEN.SN_ = VECTOR (PACKSET);
     2312     9497    2       END;
     2313     9498    1       CALL CONCAT (FID_NAME.NAME#,':MAIL_',VM_FOLDER_INFO.FOLDER);
     2314     9499    1       CALL INDEX (I,' ',FID_NAME.NAME#);
     2315     9500    1       FID_NAME.L# = I;
     2316     9501        /*
     2317     9502             ***** If fun=create then supply access controls ...
     2318     9503        */
     2319     9504    1       IF FPT_OPEN.V.FUN# = %CREATE#
     2320     9505    1       THEN
     2321     9506    2       DO;
     2322     9507    2           FPT_OPEN.ACCESS_ = VECTOR(FOLDER_ACCESS);
     2323     9508        /*             FPT_OPEN.ACSVEH_ = VECTOR(FOLDER_VEHICLES); */
     2324     9509    2       END;
     2325     9510    2       ELSE DO;
     2326     9511    2           FPT_OPEN.ACCESS_ = VECTOR(NIL);
     2327     9512    2           FPT_OPEN.ACSVEH_ = VECTOR(NIL);
     2328     9513    2       END;
     2329     9514        /* If the folder is open, close it.  This covers the use command
     2330     9515           use where we are still using the old folder to resolve the address
     2331     9516           of the new folder. */
     2332     9517    1       IF DCBADDR(DCB#)->F$DCB.FCD#
     2333     9518    2       THEN DO;
     2334     9519    2           CLOSE_SAVE.V.DCB# = DCB#;
     2335     9520    3           CALL M$CLOSE (CLOSE_SAVE) WHENALTRETURN DO;
     2336     9521    3           END;
     2337     9522    2       END;
     2338     9523        /*
     2339     9524             ***** Open the file ...
     2340     9525        */
     2341     9526    1       CALL M$OPEN (FPT_OPEN) ALTRET(E_OPEN);
     2342     9527        /*
     2343     9528
     2344     9529             ***** Check to see if we need to fill in the current user's home
     2345     9530                   packset... this occurs if the folder_info did not contain
     2346     9531                   packset information, and the specified account is not in
     2347     9532                   the master account directory.
PL6.E3A0      #011=VMA$OPEN_FOLDER File=VMA$SUBR.:VMB6TSI                        WED 08/20/97 15:04 Page:389
     2348     9533        */
     2349     9534    1       IF VM_FOLDER_INFO.PSID = ' '
     2350     9535    2       THEN DO;
     2351     9536
     2352     9537    2           IF DCBADDR(DCB#) -> F$DCB.PSN# = ' '
     2353     9538    3           THEN DO;
     2354     9539
     2355     9540    3               FPT_MADMUCK.ACCT_ = VECTOR (DCBADDR(DCB#) -> F$DCB.ACCT#);
     2356     9541    3               FPT_MADMUCK.SN_ = VECTOR (PACKSET);
     2357     9542
     2358     9543    3               CALL M$MADMUCK (FPT_MADMUCK)
     2359     9544    4               WHENALTRETURN DO;
     2360     9545
     2361     9546    4                   VM_FOLDER_INFO.PSID = B$JIT.HPSN;
     2362     9547
     2363     9548    4               END;
     2364     9549
     2365     9550    3           END;
     2366     9551
     2367     9552    2           ELSE
     2368     9553    2               VM_FOLDER_INFO.PSID = DCBADDR(DCB#) -> F$DCB.PSN#;
     2369     9554
     2370     9555    2       END;
     2371     9556        /*
     2372     9557             ***** Set appropriate flags ...
     2373     9558        */
     2374     9559    1       VM_FOLDER_INFO.FLAGS.OPEN = %YES#;
     2375     9560    1       VM_FOLDER_INFO.FLAGS.UPDATE = DCBADDR(DCB#) -> F$DCB.FFLG.UPD#;
     2376     9561        /*
     2377     9562             ***** Is this user the owner of this file ...
     2378     9563        */
     2379     9564    1       VM_FOLDER_INFO.FLAGS.OWNER = DCBADDR(DCB#) -> F$DCB.OWNER;
     2380     9565        /*
     2381     9566             ***** Get various useful time stamps ...
     2382     9567        */
     2383     9568    1       CODE = 4;                         /* Look in CODE04 of the fit */
     2384     9569    1       FIT$ = ADDR(FIT_AREA);
PL6.E3A0      #011=VMA$OPEN_FOLDER File=VMA$SUBR.:VMB6TSI                        WED 08/20/97 15:04 Page:390
     2385     9570    1       CALL XSF$LOCCODE (FIT$,CODE) ALTRET(E_LOCCODE);
     2386     9571    1       VM_FOLDER_INFO.TIME.ACCESS = FIT$ -> CODE04.ACCESS.TIME;
     2387     9572    1       VM_FOLDER_INFO.TIME.CREATION = FIT$ -> CODE04.CREATION.TIME;
     2388     9573    1       VM_FOLDER_INFO.TIME.MODIFY = FIT$ -> CODE04.MODIFY.TIME;
     2389     9574        /*
     2390     9575             ***** Find out how many granules are unused ...
     2391     9576        */
     2392     9577    1       CODE = 3;
     2393     9578    1       FIT$ = ADDR(FIT_AREA);
     2394     9579    1       CALL XSF$LOCCODE (FIT$,CODE) ALTRET(E_LOCCODE);
     2395     9580    1       VM_FOLDER_INFO.NRECS = FIT$ -> CODE03.NRECS;
     2396     9581    1       VM_FOLDER_INFO.UGRANS = FIT$ -> CODE03.UGRANS;
     2397     9582    1       RETURN;
     2398     9583        /**/
     2399     9584    1   E_OPEN:
     2400     9585    1       ALTRETURN;
     2401     9586        /**/
     2402     9587    1   E_LOCCODE:
     2403     9588    1       RETURN;
     2404     9589    1   END VMA$OPEN_FOLDER;
     2405     9590        %EOD;

PL6.E3A0      #011=VMA$OPEN_FOLDER File=VMA$SUBR.:VMB6TSI                        WED 08/20/97 15:04 Page:391
--  Include file information  --

   B_MACROS_C.:LIB_E05  is referenced.
   VM_DATA_R.:VMB6TOU  cannot be made into a system file and is referenced.
   VM_SUBS_C.:VMB6TOU  is referenced.
   VM_MACRO_C.:VMB6TOU  is referenced.
   FM$FIT.:LIB_E05  is referenced.
   CP_6_SUBS.:LIB_E05  is referenced.
   CP_6_C.:LIB_E05  is referenced.
   CP_6.:LIB_E05  cannot be made into a system file and is referenced.
   B$JIT_C.:LIB_E05  is referenced.
   B$JIT.:LIB_E05  cannot be made into a system file and is referenced.
      No diagnostics issued in procedure VMA$OPEN_FOLDER.

   Procedure VMA$OPEN_FOLDER requires 274 words for executable code.
   Procedure VMA$OPEN_FOLDER requires 2064 words of local(AUTO) storage.

PL6.E3A0      #011=VMA$OPEN_FOLDER File=VMA$SUBR.:VMB6TSI                        WED 08/20/97 15:04 Page:392

 Object Unit name= VMA$OPEN_FOLDER                            File name= VMA$SUBR.:VMB6TOU
 UTS= AUG 20 '97 15:04:56.84 WED                              Compiler= PL-6/E31         Sev=      00
 SharedLib= :SHARED_SYSTEM                                    Alt SharedLib=


    ****  Control sections  ****

 Sect   Type Bound  Init  Size OctSiz  Section name(segment info)
    0   DCB   even  none     0      0  M$UC
    1   DCB   even  none     0      0  M$MAIL_FILE
    2   DCB   even  none     0      0  M$MAIL_CENTRAL
    3   DCB   even  none     0      0  M$MAIL_GLOBAL
    4   DCB   even  none     0      0  M$WORK
    5   DCB   even  none     0      0  M$MAIL_COMGROUP
    6   DCB   even  none     0      0  M$DO
    7   DCB   even  none     0      0  M$LO
    8   DCB   even  none     0      0  M$ME
    9   DCB   even  none     0      0  M$NODE
   10   DCB   even  none     0      0  M$SI
   11   Data  even  none   110    156  VMA$OPEN_FOLDER
   12  RoData even  UTS      4      4  VMA$OPEN_FOLDER
   13   Proc  even  none   274    422  VMA$OPEN_FOLDER
   14  RoData even  none    19     23  VMA$OPEN_FOLDER

    ****  Entry defs  ****

                              Check   Calling
                             calling  sequence
  Sect OctLoc Primary Altret sequence   type   Parms  Name
    13      0   yes    yes     yes      Std        5  VMA$OPEN_FOLDER
PL6.E3A0      #011=VMA$OPEN_FOLDER File=VMA$SUBR.:VMB6TSI                        WED 08/20/97 15:04 Page:393

  ****  Entry refs  ****

         Check        Calling
        calling       sequence
Altret sequence SRef   type   Args  Name
 yes     yes           Std       2 XSF$LOCCODE
                       nStd      0 X66_AUTO_5
                       nStd      0 X66_AALT
                       nStd      0 X66_ARET

  ****  Data refs  ****

  Flags:  r = read only, s = secondary
Flgs Name                             Flgs Name                             Flgs Name
     M$UC                             r    VM_HEADER$                       r    VM_PROFILE$
r    VM_ADDLIST$                      r    VM_ADDREC$                       r    VM_WORK$
r    VM_SELECT$                       r    VM_PARSEAREA$                    r    VM_INPUT$
r    VM_COPY$                              VM_ENCLLIST$                          VM_ENCLREC$
     VM_HEADER_                            VM_HEADER_INIT_                       VM_PROFILE_
     VM_ADDLIST_                           VM_ADDREC_                            VM_WORK_
     VM_SELECT_                            VM_PARSEAREA_                         VM_INPUT_
     VM_COPY_                              VM_ENCLLIST_                          VM_ENCLREC_
     M$MAIL_FILE                           M$MAIL_CENTRAL                        M$MAIL_GLOBAL
     M$WORK                                M$MAIL_COMGROUP                       M$DO
     M$LO                                  M$ME                                  M$NODE
     M$SI                                  M$MAIL_FILE_NUM                       M$MAIL_CENTRAL_NUM
     M$MAIL_GLOBAL_NUM                     M$WORK_NUM                            M$MAIL_COMGROUP_NUM
     M$DO_NUM                              M$ME_NUM                              M$LO_NUM
     M$SI_NUM                              M$NODE_NUM                       r    B$JIT$
r    B$TCB$                                VM_MAIL_ACCT                          VM_NAME_MAP_NAME
     ERRMSG_FID                            VM_SEND_FILE_NAME                     VM_FORWARD_FILE_NAME
     VM_FORWARD_ENCL_NAME                  VM_FORWARD_FILE_PASS                  VM_MAILCG_NAME
     VM_SITENAME                           VM_MAILCG_SETSTA
PL6.E3A0      #011=VMA$OPEN_FOLDER File=VMA$SUBR.:VMB6TSI                        WED 08/20/97 15:04 Page:394

  ****  Segment refs  ****

  Flags:  r = read only, s = secondary
Flgs Name                             Flgs Name                             Flgs Name
     ISSID                                 NULLSID                               ROSID
PL6.E3A0      #011=VMA$OPEN_FOLDER File=VMA$SUBR.:VMB6TSI                        WED 08/20/97 15:04 Page:395


     2135        1        /*T***********************************************************/
     2136        2        /*T*                                                         */
     2137        3        /*T* Copyright (c) Bull HN Information Systems Inc., 1997    */
     2138        4        /*T*                                                         */
     2139        5        /*T***********************************************************/
     2140        6        /*X* DMC,PLM=4,IND=4,CTI=2,DTI=0,ENI=0,ECI=0,CSI=0,DCI=4 */
     2141        7        /*X* DMC,PLM=4,IND=4,CTI=2,DTI=0,ENI=0,ECI=0,CSI=0,DCI=4 */
     2142        8        /*F*
     2143        9             NAME: VMA$OPEN_FOLDER
     2144       10             PURPOSE:
     2145       11                   This routine will take an address and open the correct file.
     2146       12             DESCRIPTION:
     2147       13                   This routine will accept an address specification that
     2148       14                   has been resolved to a USER NAME or ACCOUNT along with
     2149       15                   FOLDER, PASSWORD and SITENAME and open the correct folder
     2150       16                   if possible.
     2151       17
     2152       18                   This routine will use defaults if fields are not filled in.
     2153       19                   Either an ACCOUNT or REGISTERED NAME must be supplied.
     2154       20                   The defaults are:
     2155       21
     2156       22                   FIELD         DEFAULT SUPPLIED
     2157       23                   -----         ----------------
     2158       24                   FOLDER        central folder for this user.
     2159       25                                 If an account was specified, then 'CENTRAL'.
     2160       26                   PASSWORD      none
     2161       27                   SITENAME      local sitename
     2162       28
     2163       29
     2164       30                   This routine has the following parameters:
     2165       31
     2166       32                      VM_FOLDER_INFO - place to store information describing
     2167       33                                       the folder that was opened.
     2168       34
     2169       35                      VM_RADDRESS   - The RESOLVED address describing the
     2170       36                                      folder to open.
PL6.E3A0      #011=VMA$OPEN_FOLDER File=VMA$SUBR.:VMB6TSI                        WED 08/20/97 15:04 Page:396
     2171       37                      VM_UADDRESS   - The UNRESOLVED address describing the
     2172       38                                      folder to open.
     2173       39
     2174       40                      DCB#          - DCB to open the folder with.
     2175       41
     2176       42                      EXIST         - Value to use for OPEN.V.EXIST# (optional)
     2177       43                                      Default value is OLDFILE.
     2178       44
     2179       45                      FUN           - Value to use for OPEN.V.FUN# (optional)
     2180       46                                      Default value is IN.
     2181       47        */
     2182       48        VMA$OPEN_FOLDER: PROC (VM_FOLDER_INFO,ADDRESS$,DCB#,EXIST,FUN) ALTRET;

     48 13 000000   000000 700200 xent  VMA$OPEN_FO* TSX0  ! X66_AUTO_5
        13 000001   004020 000005                    ZERO    2064,5

     2183       49        /***** Include files *****/
     2184       50          %INCLUDE B$JIT;
     2185      653          %INCLUDE CP_6;
     2186     6212          %INCLUDE CP_6_SUBS;
     2187     6752          %INCLUDE FM$FIT;
     2188     6973          %INCLUDE VM_MACRO_C;
     2189     8241          %INCLUDE VM_SUBS_C;
     2190     8501          %INCLUDE VM_DATA_R;
     2191     8932        /***** Parameters *****/
     2192     8933          %VM_FOLDER_INFO (STCLASS=" ");
     2193     8985    1   DCL ADDRESS$ PTR;
     2194     8986    1   DCL DCB# UBIN WORD;
     2195     8987    1   DCL EXIST UBIN WORD;
     2196     8988    1   DCL FUN UBIN WORD;
     2197     8989        /***** Fpts *****/
     2198     8990          %FPT_OPEN (ACS=DIRECT,ASN=FILE,SCRUB=YES,ORG=KEYED,SHARE=ALL,SPARE=100);
     2199     9099          %FPT_MADMUCK (READ=YES, WRITE=NO, DELETE=NO);
     2200     9115          %VLP_ATTR (FPTN=FOLDER_ACCESS);
     2201     9129             %VLP_ACCESS (ACCT='ALL',NOLIST=YES,LAST=";");
     2202     9146        /*
     2203     9147           Change 1859 to the following when the folder-access-control
PL6.E3A0      #011=VMA$OPEN_FOLDER File=VMA$SUBR.:VMB6TSI                        WED 08/20/97 15:04 Page:397
     2204     9148           stuff is implemented.  Not 'til then, though, cause it would
     2205     9149           lead to a security breach.
     2206     9150             %VLP_ACCESS (ACCT='?',nolist=yes,exec=yes,last=";");
     2207     9151          %VLP_ATTR (FPTN=FOLDER_VEHICLES);
     2208     9152             %VLP_ACSVEH (vehicle='mail?',delf=yes,delr=yes,read=yes,reattr=yes,
     2209     9153                          upd=yes,wnew=yes);
     2210     9154             %VLP_ACSVEH (vehicle='send?',delf=yes,delr=yes,read=yes,reattr=yes,
     2211     9155                          upd=yes,wnew=yes);
     2212     9156             %VLP_ACSVEH (vehicle='calendar?',delf=yes,delr=yes,read=yes,reattr=yes,
     2213     9157                          upd=yes,wnew=yes,last=";");
     2214     9158        */
     2215     9159        /***** Mail structures *****/
     2216     9160              %VM_ADDTYPES;
     2217     9164            %VM_KEYTYPES;
     2218     9185        /***** Based structures *****/
     2219     9186            %VM_RADDRESS (NAME=VM$RADDRESS,STCLASS="BASED(ADDRESS$)");
     2220     9221          %VM_UADDRESS (NAME=VM$UADDRESS,STCLASS="BASED(ADDRESS$)");
     2221     9258        /***** Other macros *****/
     2222     9259        %FPT_CLOSE (FPTN=CLOSE_SAVE, STCLASS=STATIC,
     2223     9260                  DISP=SAVE);
     2224     9302          %CODE03;
     2225     9309          %CODE04;
     2226     9317              %VLP_NAME (FPTN=FID_NAME,STCLASS=STATIC);
     2227     9344          %VLP_SN (FPTN=PACKSET,N=1,STCLASS=AUTO);
     2228     9357          %F$DCB;
     2229     9414        /***** External routines *****/
     2230     9415    1   DCL XSF$LOCCODE ENTRY(2) ALTRET;
     2231     9416        /***** Local variables *****/
     2232     9417    1   DCL FIT$ PTR STATIC;
     2233     9418    1   DCL CODE UBIN WORD STATIC;
     2234     9419    1   DCL I UBIN WORD AUTO;
     2235     9420    1   DCL FIT_AREA                                 (0:1023) UBIN WORD AUTO DALIGNED;
     2236     9421        %EJECT;
PL6.E3A0      #011=VMA$OPEN_FOLDER File=VMA$SUBR.:VMB6TSI                        WED 08/20/97 15:04 Page:398
     2237     9422    1       IF ADDR(ADDRESS$) ~= ADDR(NIL) THEN

   9422 13 000002   200004 236100                    LDQ     @ADDRESS$,,AUTO
        13 000003   000000 116000 14                 CMPQ    0
        13 000004   000014 600000 13                 TZE     s:9431

     2238     9423    1           IF VM$RADDRESS.TYPE = %VM_ADD_UNRESOLVED

   9423 13 000005   200004 470500                    LDP0    @ADDRESS$,,AUTO
        13 000006   000000 471500                    LDP1    0,,PR0
        13 000007   100002 236100                    LDQ     2,,PR1
        13 000010   000777 376003                    ANQ     511,DU
        13 000011   000002 116003                    CMPQ    2,DU
        13 000012   000014 601000 13                 TNZ     s:9431

     2239     9424    1           THEN
     2240     9425    2           DO;               /* Error!!! */

     2241     9426    2               ALTRETURN;

   9426 13 000013   000000 702200 xent               TSX2  ! X66_AALT

     2242     9427    2           END;
     2243     9428        /*
     2244     9429             ***** Initialize open fpt ...
     2245     9430        */
     2246     9431    1       FPT_OPEN.V.DCB# = DCB#;

   9431 13 000014   200005 470500                    LDP0    @DCB#,,AUTO
        13 000015   000000 720100                    LXL0    0,,PR0
        13 000016   000044 740000 11                 STX0    FPT_OPEN+36

     2247     9432    1       IF ADDR(EXIST) ~= ADDR(NIL)

   9432 13 000017   200006 236100                    LDQ     @EXIST,,AUTO
        13 000020   000000 116000 14                 CMPQ    0
        13 000021   000031 600000 13                 TZE     s:9436
PL6.E3A0      #011=VMA$OPEN_FOLDER File=VMA$SUBR.:VMB6TSI                        WED 08/20/97 15:04 Page:399

     2248     9433    1       THEN                            /* Use the passed value */
     2249     9434    1           FPT_OPEN.V.EXIST# = EXIST;

   9434 13 000022   200006 471500                    LDP1    @EXIST,,AUTO
        13 000023   100000 236100                    LDQ     0,,PR1
        13 000024   000007 736000                    QLS     7
        13 000025   000044 676000 11                 ERQ     FPT_OPEN+36
        13 000026   000600 376007                    ANQ     384,DL
        13 000027   000044 656000 11                 ERSQ    FPT_OPEN+36
        13 000030   000035 710000 13                 TRA     s:9437

     2250     9435    1       ELSE                            /* Use default */
     2251     9436    1           FPT_OPEN.V.EXIST# = %OLDFILE#;

   9436 13 000031   000044 236000 11                 LDQ     FPT_OPEN+36
        13 000032   000001 376000 14                 ANQ     1
        13 000033   000400 276007                    ORQ     256,DL
        13 000034   000044 756000 11                 STQ     FPT_OPEN+36

     2252     9437    1       IF ADDR(FUN) ~= ADDR(NIL)

   9437 13 000035   200007 236100                    LDQ     @FUN,,AUTO
        13 000036   000000 116000 14                 CMPQ    0
        13 000037   000045 600000 13                 TZE     s:9441

     2253     9438    1       THEN                            /* Use the passed value */
     2254     9439    1           FPT_OPEN.V.FUN# = FUN;

   9439 13 000040   200007 471500                    LDP1    @FUN,,AUTO
        13 000041   100000 236100                    LDQ     0,,PR1
        13 000042   000011 736000                    QLS     9
        13 000043   000045 552010 11                 STBQ    FPT_OPEN+37,'10'O
        13 000044   000047 710000 13                 TRA     s:9442

     2255     9440    1       ELSE                            /* Use default */
     2256     9441    1           FPT_OPEN.V.FUN# = %IN#;
PL6.E3A0      #011=VMA$OPEN_FOLDER File=VMA$SUBR.:VMB6TSI                        WED 08/20/97 15:04 Page:400

   9441 13 000045   002000 236007                    LDQ     1024,DL
        13 000046   000045 552010 11                 STBQ    FPT_OPEN+37,'10'O

     2257     9442    1       FPT_OPEN.FPARAM_ = VECTOR(FIT_AREA);

   9442 13 000047   000002 235000 14                 LDA     2
        13 000050   204016 452500                    STP2    FIT_AREA+2048,,AUTO
        13 000051   204016 236100                    LDQ     FIT_AREA+2048,,AUTO
        13 000052   000016 036003                    ADLQ    14,DU
        13 000053   000030 757000 11                 STAQ    FPT_OPEN+24

     2258     9443    1       FPT_OPEN.NAME_ = VECTOR(FID_NAME);

   9443 13 000054   000004 237000 14                 LDAQ    4
        13 000055   000006 757000 11                 STAQ    FPT_OPEN+6

     2259     9444    1       FPT_OPEN.ACCT_ = VECTOR(VM_FOLDER_INFO.ACCT);

   9444 13 000056   000003 235000 14                 LDA     3
        13 000057   200003 236100                    LDQ     @VM_FOLDER_INFO,,AUTO
        13 000060   000006 036000 14                 ADLQ    6
        13 000061   000024 757000 11                 STAQ    FPT_OPEN+20

     2260     9445    1       FPT_OPEN.PASS_ = VECTOR(VM_FOLDER_INFO.PASS);

   9445 13 000062   000003 235000 14                 LDA     3
        13 000063   200003 236100                    LDQ     @VM_FOLDER_INFO,,AUTO
        13 000064   000007 036000 14                 ADLQ    7
        13 000065   000010 757000 11                 STAQ    FPT_OPEN+8

     2261     9446        /*
     2262     9447             ***** Is this address fully resolved?
     2263     9448                   or is more work necessary first ...
     2264     9449        */
     2265     9450    1       IF ADDR(ADDRESS$) = ADDR(NIL) THEN GOTO GOT_SPEC;

PL6.E3A0      #011=VMA$OPEN_FOLDER File=VMA$SUBR.:VMB6TSI                        WED 08/20/97 15:04 Page:401
   9450 13 000066   200004 236100                    LDQ     @ADDRESS$,,AUTO
        13 000067   000000 116000 14                 CMPQ    0
        13 000070   000167 600000 13                 TZE     GOT_SPEC

     2266     9451    1       IF VM$RADDRESS.NOMAD.DELIM = ' '

   9451 13 000071   200004 471500                    LDP1    @ADDRESS$,,AUTO
        13 000072   100000 473500                    LDP3    0,,PR1
        13 000073   300014 236100                    LDQ     12,,PR3
        13 000074   777000 376003                    ANQ     -512,DU
        13 000075   040000 116003                    CMPQ    16384,DU
        13 000076   000114 601000 13                 TNZ     s:9458
        13 000077   040000 106500                    CMPC    fill='040'O
        13 000100   300014 200006                    ADSC9   12,,PR3                  cn=1,n=6
        13 000101   000010 000001 14                 ADSC9   8                        cn=0,n=1
        13 000102   000114 600000 13                 TZE     s:9458

     2267     9452    1         AND VM$RADDRESS.NOMAD.PSID ~= ' '
     2268     9453    2       THEN DO;

     2269     9454    2           VM_FOLDER_INFO.FOLDER = VM$RADDRESS.NOMAD.FOLDER;

   9454 13 000103   200003 474500                    LDP4    @VM_FOLDER_INFO,,AUTO
        13 000104   040100 100500                    MLR     fill='040'O
        13 000105   300007 400022                    ADSC9   7,,PR3                   cn=2,n=18
        13 000106   400003 400031                    ADSC9   3,,PR4                   cn=2,n=25

     2270     9455    2           VM_FOLDER_INFO.PSID = VM$RADDRESS.NOMAD.PSID;

   9455 13 000107   100000 473500                    LDP3    0,,PR1
        13 000110   040100 100500                    MLR     fill='040'O
        13 000111   300014 200006                    ADSC9   12,,PR3                  cn=1,n=6
        13 000112   400000 000006                    ADSC9   0,,PR4                   cn=0,n=6

     2271     9456    2       END;

   9456 13 000113   000123 710000 13                 TRA     s:9462
PL6.E3A0      #011=VMA$OPEN_FOLDER File=VMA$SUBR.:VMB6TSI                        WED 08/20/97 15:04 Page:402

     2272     9457    2       ELSE DO;

     2273     9458    2           VM_FOLDER_INFO.FOLDER = VM$RADDRESS.FOLDER;

   9458 13 000114   200003 474500                    LDP4    @VM_FOLDER_INFO,,AUTO
        13 000115   040100 100500                    MLR     fill='040'O
        13 000116   300007 400031                    ADSC9   7,,PR3                   cn=2,n=25
        13 000117   400003 400031                    ADSC9   3,,PR4                   cn=2,n=25

     2274     9459    2           VM_FOLDER_INFO.PSID = ' ';

   9459 13 000120   040100 100400                    MLR     fill='040'O
        13 000121   000010 000001 14                 ADSC9   8                        cn=0,n=1
        13 000122   400000 000006                    ADSC9   0,,PR4                   cn=0,n=6

     2275     9460    2       END;

     2276     9461
     2277     9462    1       IF VM_FOLDER_INFO.FOLDER = ' '

   9462 13 000123   040000 106500                    CMPC    fill='040'O
        13 000124   400003 400031                    ADSC9   3,,PR4                   cn=2,n=25
        13 000125   000010 000001 14                 ADSC9   8                        cn=0,n=1
        13 000126   000132 601000 13                 TNZ     s:9466

     2278     9463    1       THEN
     2279     9464    1           VM_FOLDER_INFO.FOLDER = 'CENTRAL';

   9464 13 000127   040100 100400                    MLR     fill='040'O
        13 000130   000000 000007 12                 ADSC9   0                        cn=0,n=7
        13 000131   400003 400031                    ADSC9   3,,PR4                   cn=2,n=25

     2280     9465        /**/
     2281     9466    1       IF VM$RADDRESS.ACCT ~= ' '

   9466 13 000132   100000 473500                    LDP3    0,,PR1
PL6.E3A0      #011=VMA$OPEN_FOLDER File=VMA$SUBR.:VMB6TSI                        WED 08/20/97 15:04 Page:403
        13 000133   040000 106500                    CMPC    fill='040'O
        13 000134   300021 600010                    ADSC9   17,,PR3                  cn=3,n=8
        13 000135   000010 000001 14                 ADSC9   8                        cn=0,n=1
        13 000136   000143 600000 13                 TZE     s:9472

     2282     9467    1       THEN
     2283     9468    2       DO;                          /* Folder name supplied */

     2284     9469    2           VM_FOLDER_INFO.ACCT = VM$RADDRESS.ACCT;

   9469 13 000137   040100 100500                    MLR     fill='040'O
        13 000140   300021 600010                    ADSC9   17,,PR3                  cn=3,n=8
        13 000141   400001 400010                    ADSC9   1,,PR4                   cn=2,n=8

     2285     9470    2       END;

   9470 13 000142   000147 710000 13                 TRA     s:9474

     2286     9471    1       ELSE                            /* Default used */
     2287     9472    1           VM_FOLDER_INFO.ACCT = B$JIT.FACCN;

   9472 13 000143   000000 475400 xsym               LDP5    B$JIT$
        13 000144   040100 100500                    MLR     fill='040'O
        13 000145   500006 000010                    ADSC9   6,,PR5                   cn=0,n=8
        13 000146   400001 400010                    ADSC9   1,,PR4                   cn=2,n=8

     2288     9473        /**/
     2289     9474    1       VM_FOLDER_INFO.PASS = VM$RADDRESS.PASS;

   9474 13 000147   100000 473500                    LDP3    0,,PR1
        13 000150   040100 100500                    MLR     fill='040'O
        13 000151   300015 600010                    ADSC9   13,,PR3                  cn=3,n=8
        13 000152   400011 600010                    ADSC9   9,,PR4                   cn=3,n=8

     2290     9475        /**/
     2291     9476    1       IF VM$RADDRESS.SITENAME ~= ' '

PL6.E3A0      #011=VMA$OPEN_FOLDER File=VMA$SUBR.:VMB6TSI                        WED 08/20/97 15:04 Page:404
   9476 13 000153   100000 473500                    LDP3    0,,PR1
        13 000154   040000 106500                    CMPC    fill='040'O
        13 000155   300017 600010                    ADSC9   15,,PR3                  cn=3,n=8
        13 000156   000010 000001 14                 ADSC9   8                        cn=0,n=1
        13 000157   000164 600000 13                 TZE     s:9482

     2292     9477    1       THEN
     2293     9478    2       DO;                          /* Sitename supplied */

     2294     9479    2           VM_FOLDER_INFO.SITENAME = VM$RADDRESS.SITENAME;

   9479 13 000160   040100 100500                    MLR     fill='040'O
        13 000161   300017 600010                    ADSC9   15,,PR3                  cn=3,n=8
        13 000162   400013 600010                    ADSC9   11,,PR4                  cn=3,n=8

     2295     9480    2       END;

   9480 13 000163   000167 710000 13                 TRA     GOT_SPEC

     2296     9481    1       ELSE                            /* Default used */
     2297     9482    1           VM_FOLDER_INFO.SITENAME = VM_SITENAME;

   9482 13 000164   040100 100400                    MLR     fill='040'O
        13 000165   000000 000010 xsym               ADSC9   VM_SITENAME              cn=0,n=8
        13 000166   400013 600010                    ADSC9   11,,PR4                  cn=3,n=8

     2298     9483        /*
     2299     9484             ***** Translate the folder name into a file name ...
     2300     9485        */
     2301     9486    1   GOT_SPEC:
     2302     9487        /*
     2303     9488             ***** Set up the packset name, if necessary.
     2304     9489        */
     2305     9490    1       IF VM_FOLDER_INFO.PSID = ' '

   9490 13 000167   200003 471500       GOT_SPEC     LDP1    @VM_FOLDER_INFO,,AUTO
        13 000170   040000 106500                    CMPC    fill='040'O
PL6.E3A0      #011=VMA$OPEN_FOLDER File=VMA$SUBR.:VMB6TSI                        WED 08/20/97 15:04 Page:405
        13 000171   100000 000006                    ADSC9   0,,PR1                   cn=0,n=6
        13 000172   000010 000001 14                 ADSC9   8                        cn=0,n=1
        13 000173   000177 601000 13                 TNZ     s:9494

     2306     9491    1       THEN
     2307     9492    1           FPT_OPEN.SN_ = VECTOR (NIL);

   9492 13 000174   000012 237000 14                 LDAQ    10
        13 000175   000002 757000 11                 STAQ    FPT_OPEN+2
        13 000176   000211 710000 13                 TRA     s:9498

     2308     9493    2       ELSE DO;

     2309     9494    2           PACKSET.NUM# = 1;

   9494 13 000177   000001 235007                    LDA     1,DL
        13 000200   200010 755100                    STA     PACKSET,,AUTO

     2310     9495    2           PACKSET.SN#(0) = VM_FOLDER_INFO.PSID;

   9495 13 000201   040100 100500                    MLR     fill='040'O
        13 000202   100000 000006                    ADSC9   0,,PR1                   cn=0,n=6
        13 000203   200011 000006                    ADSC9   PACKSET+1,,AUTO          cn=0,n=6

     2311     9496    2           FPT_OPEN.SN_ = VECTOR (PACKSET);

   9496 13 000204   000011 235000 14                 LDA     9
        13 000205   204016 452500                    STP2    FIT_AREA+2048,,AUTO
        13 000206   204016 236100                    LDQ     FIT_AREA+2048,,AUTO
        13 000207   000010 036003                    ADLQ    8,DU
        13 000210   000002 757000 11                 STAQ    FPT_OPEN+2

     2312     9497    2       END;

     2313     9498    1       CALL CONCAT (FID_NAME.NAME#,':MAIL_',VM_FOLDER_INFO.FOLDER);

   9498 13 000211   040000 100400                    MLR     fill='040'O
PL6.E3A0      #011=VMA$OPEN_FOLDER File=VMA$SUBR.:VMB6TSI                        WED 08/20/97 15:04 Page:406
        13 000212   000002 000006 12                 ADSC9   2                        cn=0,n=6
        13 000213   000144 200006 11                 ADSC9   FID_NAME                 cn=1,n=6
        13 000214   040000 100500                    MLR     fill='040'O
        13 000215   100003 400031                    ADSC9   3,,PR1                   cn=2,n=25
        13 000216   000145 600031 11                 ADSC9   FID_NAME+1               cn=3,n=25

     2314     9499    1       CALL INDEX (I,' ',FID_NAME.NAME#);

   9499 13 000217   000000 124400                    SCM     mask='000'O
        13 000220   000144 200037 11                 ADSC9   FID_NAME                 cn=1,n=31
        13 000221   000010 000001 14                 ADSC9   8                        cn=0,n=1
        13 000222   200014 000100                    ARG     I,,AUTO

     2315     9500    1       FID_NAME.L# = I;

   9500 13 000223   200014 236100                    LDQ     I,,AUTO
        13 000224   000033 736000                    QLS     27
        13 000225   000144 552040 11                 STBQ    FID_NAME,'40'O

     2316     9501        /*
     2317     9502             ***** If fun=create then supply access controls ...
     2318     9503        */
     2319     9504    1       IF FPT_OPEN.V.FUN# = %CREATE#

   9504 13 000226   000045 236000 11                 LDQ     FPT_OPEN+37
        13 000227   777000 376007                    ANQ     -512,DL
        13 000230   003000 116007                    CMPQ    1536,DL
        13 000231   000235 601000 13                 TNZ     s:9511

     2320     9505    1       THEN
     2321     9506    2       DO;

     2322     9507    2           FPT_OPEN.ACCESS_ = VECTOR(FOLDER_ACCESS);

   9507 13 000232   000014 237000 14                 LDAQ    12
        13 000233   000012 757000 11                 STAQ    FPT_OPEN+10

PL6.E3A0      #011=VMA$OPEN_FOLDER File=VMA$SUBR.:VMB6TSI                        WED 08/20/97 15:04 Page:407
     2323     9508        /*             FPT_OPEN.ACSVEH_ = VECTOR(FOLDER_VEHICLES); */
     2324     9509    2       END;

   9509 13 000234   000241 710000 13                 TRA     s:9517

     2325     9510    2       ELSE DO;

     2326     9511    2           FPT_OPEN.ACCESS_ = VECTOR(NIL);

   9511 13 000235   000012 237000 14                 LDAQ    10
        13 000236   000012 757000 11                 STAQ    FPT_OPEN+10

     2327     9512    2           FPT_OPEN.ACSVEH_ = VECTOR(NIL);

   9512 13 000237   000012 237000 14                 LDAQ    10
        13 000240   000014 757000 11                 STAQ    FPT_OPEN+12

     2328     9513    2       END;

     2329     9514        /* If the folder is open, close it.  This covers the use command
     2330     9515           use where we are still using the old folder to resolve the address
     2331     9516           of the new folder. */
     2332     9517    1       IF DCBADDR(DCB#)->F$DCB.FCD#

   9517 13 000241   000016 470400 14                 LDP0    14
        13 000242   000000 471500                    LDP1    0,,PR0
        13 000243   200005 473500                    LDP3    @DCB#,,AUTO
        13 000244   300000 720100                    LXL0    0,,PR3
        13 000245   100000 474510                    LDP4    0,X0,PR1
        13 000246   400031 236100                    LDQ     25,,PR4
        13 000247   020000 316007                    CANQ    8192,DL
        13 000250   000257 600000 13                 TZE     s:9526

     2333     9518    2       THEN DO;

     2334     9519    2           CLOSE_SAVE.V.DCB# = DCB#;

PL6.E3A0      #011=VMA$OPEN_FOLDER File=VMA$SUBR.:VMB6TSI                        WED 08/20/97 15:04 Page:408
   9519 13 000251   000140 740000 11                 STX0    CLOSE_SAVE+26

     2335     9520    3           CALL M$CLOSE (CLOSE_SAVE) WHENALTRETURN DO;

   9520 13 000252   000106 630400 11                 EPPR0   CLOSE_SAVE
        13 000253   450001 713400                    CLIMB   alt,close
        13 000254   406000 401760                    pmme    nvectors=13
        13 000255   000257 702000 13                 TSX2    s:9526
        13 000256   000257 710000 13                 TRA     s:9526

     2336     9521    3           END;

     2337     9522    2       END;

     2338     9523        /*
     2339     9524             ***** Open the file ...
     2340     9525        */
     2341     9526    1       CALL M$OPEN (FPT_OPEN) ALTRET(E_OPEN);

   9526 13 000257   000000 630400 11                 EPPR0   FPT_OPEN
        13 000260   450000 713400                    CLIMB   alt,open
        13 000261   410400 401760                    pmme    nvectors=18
        13 000262   000420 702000 13                 TSX2    E_OPEN

     2342     9527        /*
     2343     9528
     2344     9529             ***** Check to see if we need to fill in the current user's home
     2345     9530                   packset... this occurs if the folder_info did not contain
     2346     9531                   packset information, and the specified account is not in
     2347     9532                   the master account directory.
     2348     9533        */
     2349     9534    1       IF VM_FOLDER_INFO.PSID = ' '

   9534 13 000263   200003 470500                    LDP0    @VM_FOLDER_INFO,,AUTO
        13 000264   040000 106500                    CMPC    fill='040'O
        13 000265   000000 000006                    ADSC9   0,,PR0                   cn=0,n=6
        13 000266   000010 000001 14                 ADSC9   8                        cn=0,n=1
PL6.E3A0      #011=VMA$OPEN_FOLDER File=VMA$SUBR.:VMB6TSI                        WED 08/20/97 15:04 Page:409
        13 000267   000331 601000 13                 TNZ     s:9559

     2350     9535    2       THEN DO;

     2351     9536
     2352     9537    2           IF DCBADDR(DCB#) -> F$DCB.PSN# = ' '

   9537 13 000270   000016 471400 14                 LDP1    14
        13 000271   100000 473500                    LDP3    0,,PR1
        13 000272   200005 474500                    LDP4    @DCB#,,AUTO
        13 000273   400000 720100                    LXL0    0,,PR4
        13 000274   300000 475510                    LDP5    0,X0,PR3
        13 000275   040000 106500                    CMPC    fill='040'O
        13 000276   500024 000006                    ADSC9   20,,PR5                  cn=0,n=6
        13 000277   000010 000001 14                 ADSC9   8                        cn=0,n=1
        13 000300   000326 601000 13                 TNZ     s:9553

     2353     9538    3           THEN DO;

     2354     9539
     2355     9540    3               FPT_MADMUCK.ACCT_ = VECTOR (DCBADDR(DCB#) -> F$DCB.ACCT#);

   9540 13 000301   000003 235000 14                 LDA     3
        13 000302   204016 455500                    STP5    FIT_AREA+2048,,AUTO
        13 000303   204016 236100                    LDQ     FIT_AREA+2048,,AUTO
        13 000304   000020 036003                    ADLQ    16,DU
        13 000305   000074 757000 11                 STAQ    FPT_MADMUCK+2

     2356     9541    3               FPT_MADMUCK.SN_ = VECTOR (PACKSET);

   9541 13 000306   000011 235000 14                 LDA     9
        13 000307   204016 452500                    STP2    FIT_AREA+2048,,AUTO
        13 000310   204016 236100                    LDQ     FIT_AREA+2048,,AUTO
        13 000311   000010 036003                    ADLQ    8,DU
        13 000312   000076 757000 11                 STAQ    FPT_MADMUCK+4

     2357     9542
PL6.E3A0      #011=VMA$OPEN_FOLDER File=VMA$SUBR.:VMB6TSI                        WED 08/20/97 15:04 Page:410
     2358     9543    3               CALL M$MADMUCK (FPT_MADMUCK)

   9543 13 000313   000072 630400 11                 EPPR0   FPT_MADMUCK
        13 000314   460005 713400                    CLIMB   alt,+24581
        13 000315   401000 401760                    pmme    nvectors=3
        13 000316   000320 702000 13                 TSX2    s:9546
        13 000317   000325 710000 13                 TRA     s:9550

     2359     9544    4               WHENALTRETURN DO;

     2360     9545
     2361     9546    4                   VM_FOLDER_INFO.PSID = B$JIT.HPSN;

   9546 13 000320   000000 470400 xsym               LDP0    B$JIT$
        13 000321   200003 471500                    LDP1    @VM_FOLDER_INFO,,AUTO
        13 000322   040100 100500                    MLR     fill='040'O
        13 000323   000234 000006                    ADSC9   156,,PR0                 cn=0,n=6
        13 000324   100000 000006                    ADSC9   0,,PR1                   cn=0,n=6

     2362     9547
     2363     9548    4               END;

     2364     9549
     2365     9550    3           END;

   9550 13 000325   000331 710000 13                 TRA     s:9559

     2366     9551
     2367     9552    2           ELSE
     2368     9553    2               VM_FOLDER_INFO.PSID = DCBADDR(DCB#) -> F$DCB.PSN#;

   9553 13 000326   040100 100500                    MLR     fill='040'O
        13 000327   500024 000006                    ADSC9   20,,PR5                  cn=0,n=6
        13 000330   000000 000006                    ADSC9   0,,PR0                   cn=0,n=6

     2369     9554
     2370     9555    2       END;
PL6.E3A0      #011=VMA$OPEN_FOLDER File=VMA$SUBR.:VMB6TSI                        WED 08/20/97 15:04 Page:411

     2371     9556        /*
     2372     9557             ***** Set appropriate flags ...
     2373     9558        */
     2374     9559    1       VM_FOLDER_INFO.FLAGS.OPEN = %YES#;

   9559 13 000331   200003 470500                    LDP0    @VM_FOLDER_INFO,,AUTO
        13 000332   010000 236003                    LDQ     4096,DU
        13 000333   000023 256100                    ORSQ    19,,PR0

     2375     9560    1       VM_FOLDER_INFO.FLAGS.UPDATE = DCBADDR(DCB#) -> F$DCB.FFLG.UPD#;

   9560 13 000334   000016 471400 14                 LDP1    14
        13 000335   100000 473500                    LDP3    0,,PR1
        13 000336   200005 474500                    LDP4    @DCB#,,AUTO
        13 000337   400000 720100                    LXL0    0,,PR4
        13 000340   300000 475510                    LDP5    0,X0,PR3
        13 000341   500004 236100                    LDQ     4,,PR5
        13 000342   000003 736000                    QLS     3
        13 000343   000023 676100                    ERQ     19,,PR0
        13 000344   400000 376003                    ANQ     -131072,DU
        13 000345   000023 656100                    ERSQ    19,,PR0

     2376     9561        /*
     2377     9562             ***** Is this user the owner of this file ...
     2378     9563        */
     2379     9564    1       VM_FOLDER_INFO.FLAGS.OWNER = DCBADDR(DCB#) -> F$DCB.OWNER;

   9564 13 000346   400000 720100                    LXL0    0,,PR4
        13 000347   300000 475510                    LDP5    0,X0,PR3
        13 000350   500064 236100                    LDQ     52,,PR5
        13 000351   000024 736000                    QLS     20
        13 000352   000023 676100                    ERQ     19,,PR0
        13 000353   200000 376003                    ANQ     65536,DU
        13 000354   000023 656100                    ERSQ    19,,PR0

     2380     9565        /*
PL6.E3A0      #011=VMA$OPEN_FOLDER File=VMA$SUBR.:VMB6TSI                        WED 08/20/97 15:04 Page:412
     2381     9566             ***** Get various useful time stamps ...
     2382     9567        */
     2383     9568    1       CODE = 4;                         /* Look in CODE04 of the fit */

   9568 13 000355   000004 235007                    LDA     4,DL
        13 000356   000155 755000 11                 STA     CODE

     2384     9569    1       FIT$ = ADDR(FIT_AREA);

   9569 13 000357   200016 635500                    EPPR5   FIT_AREA,,AUTO
        13 000360   000154 455400 11                 STP5    FIT$

     2385     9570    1       CALL XSF$LOCCODE (FIT$,CODE) ALTRET(E_LOCCODE);

   9570 13 000361   000020 630400 14                 EPPR0   16
        13 000362   000017 631400 14                 EPPR1   15
        13 000363   000000 701000 xent               TSX1    XSF$LOCCODE
        13 000364   000421 702000 13                 TSX2    E_LOCCODE

     2386     9571    1       VM_FOLDER_INFO.TIME.ACCESS = FIT$ -> CODE04.ACCESS.TIME;

   9571 13 000365   000154 470400 11                 LDP0    FIT$
        13 000366   200003 471500                    LDP1    @VM_FOLDER_INFO,,AUTO
        13 000367   000000 235100                    LDA     0,,PR0
        13 000370   100016 755100                    STA     14,,PR1

     2387     9572    1       VM_FOLDER_INFO.TIME.CREATION = FIT$ -> CODE04.CREATION.TIME;

   9572 13 000371   000154 470400 11                 LDP0    FIT$
        13 000372   000002 235100                    LDA     2,,PR0
        13 000373   100017 755100                    STA     15,,PR1

     2388     9573    1       VM_FOLDER_INFO.TIME.MODIFY = FIT$ -> CODE04.MODIFY.TIME;

   9573 13 000374   000154 470400 11                 LDP0    FIT$
        13 000375   000001 235100                    LDA     1,,PR0
        13 000376   100020 755100                    STA     16,,PR1
PL6.E3A0      #011=VMA$OPEN_FOLDER File=VMA$SUBR.:VMB6TSI                        WED 08/20/97 15:04 Page:413

     2389     9574        /*
     2390     9575             ***** Find out how many granules are unused ...
     2391     9576        */
     2392     9577    1       CODE = 3;

   9577 13 000377   000003 236007                    LDQ     3,DL
        13 000400   000155 756000 11                 STQ     CODE

     2393     9578    1       FIT$ = ADDR(FIT_AREA);

   9578 13 000401   200016 630500                    EPPR0   FIT_AREA,,AUTO
        13 000402   000154 450400 11                 STP0    FIT$

     2394     9579    1       CALL XSF$LOCCODE (FIT$,CODE) ALTRET(E_LOCCODE);

   9579 13 000403   000020 630400 14                 EPPR0   16
        13 000404   000017 631400 14                 EPPR1   15
        13 000405   000000 701000 xent               TSX1    XSF$LOCCODE
        13 000406   000421 702000 13                 TSX2    E_LOCCODE

     2395     9580    1       VM_FOLDER_INFO.NRECS = FIT$ -> CODE03.NRECS;

   9580 13 000407   000154 470400 11                 LDP0    FIT$
        13 000410   000002 235100                    LDA     2,,PR0
        13 000411   200003 471500                    LDP1    @VM_FOLDER_INFO,,AUTO
        13 000412   100021 755100                    STA     17,,PR1

     2396     9581    1       VM_FOLDER_INFO.UGRANS = FIT$ -> CODE03.UGRANS;

   9581 13 000413   000154 470400 11                 LDP0    FIT$
        13 000414   000000 236100                    LDQ     0,,PR0
        13 000415   000022 376000 14                 ANQ     18
        13 000416   100022 756100                    STQ     18,,PR1

     2397     9582    1       RETURN;

PL6.E3A0      #011=VMA$OPEN_FOLDER File=VMA$SUBR.:VMB6TSI                        WED 08/20/97 15:04 Page:414
   9582 13 000417   000000 702200 xent               TSX2  ! X66_ARET

     2398     9583        /**/
     2399     9584    1   E_OPEN:
     2400     9585    1       ALTRETURN;

   9585 13 000420   000000 702200 xent  E_OPEN       TSX2  ! X66_AALT

     2401     9586        /**/
     2402     9587    1   E_LOCCODE:
     2403     9588    1       RETURN;

   9588 13 000421   000000 702200 xent  E_LOCCODE    TSX2  ! X66_ARET

FPT_OPEN
 Sect OctLoc
  11     000   000025 777640   000044 006000   000000 177640   000000 006014    .....$..........
  11     004   000000 177640   000000 006014   000000 177640   000000 006014    ................
  11     044*  000000 400052   000000 000001   252525 002002   000040 252520    ...*......... ..
  11     050   000040 040040   000000 000000   000000 777777   000000 000000    .   ............
  11     054   000144 000000   000000 000000   000000 000000   000000 000000    .d..............
  11     060   251000 622000   000000 000000   000000 000000   111250 000000    ............I...
  11     064   040040 040040   000000 000000   000000 000000   000000 000000        ............
  11     070   000000 000000   ****** ******                                    ........

FPT_MADMUCK
 Sect OctLoc
  11     072   000001 777640   000100 006000   000000 177640   000000 006014    .....@..........
  11     076   000000 177640   000000 006014   000000 400000   000000 000000    ................

FOLDER_ACCESS
 Sect OctLoc
  11     102   000000 000003   010000 101114   114040 040040   040040 ******    ......ALL     ..

CLOSE_SAVE
 Sect OctLoc
  11     106   000003 777640   000140 006000   000000 177640   000000 006014    .....`..........
PL6.E3A0      #011=VMA$OPEN_FOLDER File=VMA$SUBR.:VMB6TSI                        WED 08/20/97 15:04 Page:415
  11     112   000000 177640   000000 006014   000000 177640   000000 006014    ................
  11     136*  000000 177640   000000 006014   000000 000002   000000 000040    ...............
  11     142   000220 000000   000000 000000                                    ........

FID_NAME
 Sect OctLoc
  11     144   037040 040040   040040 040040   040040 040040   040040 040040    .
  11     150   040040 040040   040040 040040   040040 040040   040040 040040

(unnamed)
 Sect OctLoc
  12     000   103105 116124   122101 114040   072115 101111   114137 040040    CENTRAL :MAIL_

(unnamed)
 Sect OctLoc
  14     000   000000 006014   777777 777177   003777 777640   000001 777640    ................
  14     004   000007 777640   000144 006000   000001 400000   000011 600000    .....d..........
  14     010   040040 040040   000003 777640   000000 177640   000000 006014        ............
  14     014   000003 777640   000102 006000   000000 006003   000002 000000    .....B..........
  14     020   000154 006000   000155 006000   000777 777777                    .l...m......
     2404     9589    1   END VMA$OPEN_FOLDER;
     2405     9590        %EOD;

PL6.E3A0      #011=VMA$OPEN_FOLDER File=VMA$SUBR.:VMB6TSI                        WED 08/20/97 15:04 Page:416
--  Include file information  --

   B_MACROS_C.:LIB_E05  is referenced.
   VM_DATA_R.:VMB6TOU  cannot be made into a system file and is referenced.
   VM_SUBS_C.:VMB6TOU  is referenced.
   VM_MACRO_C.:VMB6TOU  is referenced.
   FM$FIT.:LIB_E05  is referenced.
   CP_6_SUBS.:LIB_E05  is referenced.
   CP_6_C.:LIB_E05  is referenced.
   CP_6.:LIB_E05  cannot be made into a system file and is referenced.
   B$JIT_C.:LIB_E05  is referenced.
   B$JIT.:LIB_E05  cannot be made into a system file and is referenced.
      No diagnostics issued in procedure VMA$OPEN_FOLDER.
PL6.E3A0      #011=VMA$OPEN_FOLDER File=VMA$SUBR.:VMB6TSI                        WED 08/20/97 15:04 Page:417

 **** Variables and constants ****

  ****  Section 011  Data  VMA$OPEN_FOLDER

  ****  Scalars and arrays  ****
OctLoc.c.b A Datatyp(siz) R M Lvl/name                 OctLoc.c.b A Datatyp(siz) R M Lvl/name

   106-0-0/d STRC(1080)  r     1 CLOSE_SAVE               155-0-0/w UBIN        r     1 CODE
   144-0-0/c STRC(288)   r     1 FID_NAME                 154-0-0/w PTR         r     1 FIT$
   102-0-0/w STRC(126)   r     1 FOLDER_ACCESS             72-0-0/d STRC(288)   r     1 FPT_MADMUCK
     0-0-0/d STRC(2088)  r     1 FPT_OPEN

  ****  Auto variables  ****

  ****  Scalars and arrays  ****
OctLoc.c.b A Datatyp(siz) R M Lvl/name                 OctLoc.c.b A Datatyp(siz) R M Lvl/name

     4-0-0/w PTR         r     1 @ADDRESS$                  5-0-0/w PTR         r     1 @DCB#
     6-0-0/w PTR         r     1 @EXIST                     7-0-0/w PTR         r     1 @FUN
     3-0-0/w PTR         r     1 @VM_FOLDER_INFO           *0-0-0/w PTR         r     1 ADDRESS$
    *0-0-0/w UBIN        r     1 DCB#                      *0-0-0/w UBIN        r     1 EXIST
    16-0-0/d UBIN        r     1 FIT_AREA(0:1023)          *0-0-0/w UBIN        r     1 FUN
    14-0-0/w UBIN        r     1 I                         10-0-0/d STRC(90)    r     1 PACKSET
    *0-0-0/w STRC(2529)  r     1 VM_FOLDER_INFO

  ****  SYMREF variables  ****

  ****  Scalars and arrays  ****
OctLoc.c.b A Datatyp(siz) R M Lvl/name                 OctLoc.c.b A Datatyp(siz) R M Lvl/name

     0-0-0/w PTR         r     1 B$JIT$                     0-0-0/w PTR               1 B$TCB$
     0-0-0/c ASTR(9)     r     1 ERRMSG_FID                 0-0-0/w UBIN              1 M$DO_NUM
     0-0-0/w UBIN              1 M$LO_NUM                   0-0-0/w UBIN              1 M$MAIL_CENTRAL_NUM
     0-0-0/w UBIN              1 M$MAIL_COMGROUP_NUM        0-0-0/w UBIN              1 M$MAIL_FILE_NUM
     0-0-0/w UBIN              1 M$MAIL_GLOBAL_NUM          0-0-0/w UBIN              1 M$ME_NUM
     0-0-0/w UBIN              1 M$NODE_NUM                 0-0-0/w UBIN              1 M$SI_NUM
     0-0-0/w UBIN              1 M$WORK_NUM                 0-0-0/w PTR               1 VM_ADDLIST$
PL6.E3A0      #011=VMA$OPEN_FOLDER File=VMA$SUBR.:VMB6TSI                        WED 08/20/97 15:04 Page:418
     0-0-0/d VECT              1 VM_ADDLIST_                0-0-0/w PTR               1 VM_ADDREC$
     0-0-0/d VECT              1 VM_ADDREC_                 0-0-0/w PTR               1 VM_COPY$
     0-0-0/d VECT              1 VM_COPY_                   0-0-0/w PTR               1 VM_ENCLLIST$
     0-0-0/d VECT              1 VM_ENCLLIST_               0-0-0/w PTR               1 VM_ENCLREC$
     0-0-0/d VECT              1 VM_ENCLREC_                0-0-0/c STRC(270)         1 VM_FORWARD_ENCL_NAME
     0-0-0/c STRC(270)         1 VM_FORWARD_FILE_NAME       0-0-0/c STRC(72)          1 VM_FORWARD_FILE_PASS
     0-0-0/w PTR               1 VM_HEADER$                 0-0-0/d VECT              1 VM_HEADER_
     0-0-0/d VECT              1 VM_HEADER_INIT_            0-0-0/w PTR               1 VM_INPUT$
     0-0-0/d VECT              1 VM_INPUT_                  0-0-0/c STRC(72)          1 VM_MAILCG_NAME
     0-0-0/w STRC(432)         1 VM_MAILCG_SETSTA           0-0-0/c STRC(72)          1 VM_MAIL_ACCT
     0-0-0/c STRC(54)          1 VM_NAME_MAP_NAME           0-0-0/w PTR               1 VM_PARSEAREA$
     0-0-0/d VECT              1 VM_PARSEAREA_              0-0-0/w PTR               1 VM_PROFILE$
     0-0-0/d VECT              1 VM_PROFILE_                0-0-0/w PTR               1 VM_SELECT$
     0-0-0/d VECT              1 VM_SELECT_                 0-0-0/c STRC(288)         1 VM_SEND_FILE_NAME
     0-0-0/c CHAR(8)     r     1 VM_SITENAME                0-0-0/w PTR               1 VM_WORK$
     0-0-0/d VECT              1 VM_WORK_

  ****  BASED and DCB variables  ****

  ****  Scalars and arrays  ****
OctLoc.c.b A Datatyp(siz) R M Lvl/name                 OctLoc.c.b A Datatyp(siz) R M Lvl/name

     0-0-0/d STRC(8856)  r     1 B$JIT                      0-0-0/w STRC(324)   r     1 CODE03
     0-0-0/w STRC(396)   r     1 CODE04                     0-0-0/d ASTR(3528)  r     1 F$DCB
     0-0-0N  NULL        r     1 M$DO                       0-0-0N  NULL        r     1 M$LO
     0-0-0N  NULL        r     1 M$MAIL_CENTRAL             0-0-0N  NULL        r     1 M$MAIL_COMGROUP
     0-0-0N  NULL        r     1 M$MAIL_FILE                0-0-0N  NULL        r     1 M$MAIL_GLOBAL
     0-0-0N  NULL        r     1 M$ME                       0-0-0N  NULL        r     1 M$NODE
     0-0-0N  NULL        r     1 M$SI                       0-0-0N  NULL        r     1 M$UC
     0-0-0N  NULL        r     1 M$WORK                     0-0-0/w STRC(711)   r     1 VM$RADDRESS
     0-0-0/w STRC(2448)        1 VM$UADDRESS                0-0-0/c ASTR(9)     r     1 X$STRING


   Procedure VMA$OPEN_FOLDER requires 274 words for executable code.
   Procedure VMA$OPEN_FOLDER requires 2064 words of local(AUTO) storage.
PL6.E3A0      #011=VMA$OPEN_FOLDER File=VMA$SUBR.:VMB6TSI                        WED 08/20/97 15:04 Page:419
          *** CROSS REFERENCE LISTING ***
**     DENOTES     IDENTIFIER DEFINITION
<<                 IDENTIFIER'S VALUE SET
>>                 IDENTIFIER'S VALUE USED
<>                 IDENTIFIER SET AND/OR USED
--                 IDENTIFIER REFERENCED
PL6.E3A0      #011=VMA$OPEN_FOLDER File=VMA$SUBR.:VMB6TSI                        WED 08/20/97 15:04 Page:420
          MINI XREF LISTING

ADDRESS$
      8985**DCL        48--PROC     9196--IMP-PTR  9231--IMP-PTR  9422--IF       9423>>IF       9450--IF
      9451>>IF       9451>>IF       9454>>ASSIGN   9455>>ASSIGN   9458>>ASSIGN   9466>>IF       9469>>ASSIGN
      9474>>ASSIGN   9476>>IF       9479>>ASSIGN
B$JIT.CPFLAGS1.SLEAZE
       471**DCL       471--REDEF
B$JIT.ERR.MID
       378**DCL       378--REDEF
B$JIT.FACCN
       377**DCL      9472>>ASSIGN
B$JIT.HPSN
       545**DCL      9546>>ASSIGN
B$JIT.JRESPEAK
       539**DCL       540--REDEF
B$JIT.ORIGINATOR_PORT.FROM_CR
       648**DCL       648--REDEF     649--REDEF
B$JIT.PNR
       552**DCL       552--REDEF
B$JIT.TSLINE
       646**DCL       647--REDEF
B$JIT$
      8708**DCL       372--IMP-PTR  9472>>ASSIGN   9546>>ASSIGN
CLOSE_SAVE
      9283**DCL      9520<>CALL
CLOSE_SAVE.SN_
      9283**DCL      9283--REDEF
CLOSE_SAVE.UTL_
      9284**DCL      9284--REDEF
CLOSE_SAVE.V
      9288**DCL      9283--DCLINIT
CLOSE_SAVE.V.DCB#
      9289**DCL      9519<<ASSIGN
PL6.E3A0      #011=VMA$OPEN_FOLDER File=VMA$SUBR.:VMB6TSI                        WED 08/20/97 15:04 Page:421
CLOSE_SAVE.V.EXPIRE#
      9298**DCL      9298--REDEF
CLOSE_SAVE.V.TYPE#
      9296**DCL      9296--REDEF
CLOSE_SAVE.V.XTNSIZE#
      9293**DCL      9293--REDEF    9295--REDEF
CODE
      9418**DCL      9568<<ASSIGN   9570<>CALL     9577<<ASSIGN   9579<>CALL
CODE03.NRECS
      9305**DCL      9580>>ASSIGN
CODE03.UGRANS
      9303**DCL      9581>>ASSIGN
CODE04.ACCESS.TIME
      9314**DCL      9571>>ASSIGN
CODE04.CREATION.TIME
      9314**DCL      9572>>ASSIGN
CODE04.MODIFY.TIME
      9314**DCL      9573>>ASSIGN
DCB#
      8986**DCL        48--PROC     9431>>ASSIGN   9517--IF       9519>>ASSIGN   9537--IF       9540--ASSIGN
      9553--ASSIGN   9560--ASSIGN   9564--ASSIGN
ERRMSG_FID.L#
      8777**DCL      8777--IMP-SIZ
EXIST
      8987**DCL        48--PROC     9432--IF       9434>>ASSIGN
E_LOCCODE
      9588**LABEL    9570--CALLALT  9579--CALLALT
E_OPEN
      9585**LABEL    9526--CALLALT
F$DCB.ACCT#
      9374**DCL      9540--ASSIGN
F$DCB.ACTPOS
      9390**DCL      9390--REDEF
F$DCB.ARS#
      9364**DCL      9364--REDEF
F$DCB.ATTR
PL6.E3A0      #011=VMA$OPEN_FOLDER File=VMA$SUBR.:VMB6TSI                        WED 08/20/97 15:04 Page:422
      9383**DCL      9384--REDEF
F$DCB.BORROW
      9398**DCL      9398--REDEF    9398--REDEF    9398--REDEF
F$DCB.DCBNAME.L
      9412**DCL      9412--IMP-SIZ
F$DCB.EOMCHAR#
      9368**DCL      9368--REDEF
F$DCB.FCD#
      9377**DCL      9517>>IF
F$DCB.FFLG.UPD#
      9369**DCL      9560>>ASSIGN
F$DCB.FLDID
      9393**DCL      9393--REDEF
F$DCB.FORM$
      9387**DCL      9387--REDEF
F$DCB.FSECT
      9403**DCL      9403--REDEF
F$DCB.FSN#
      9380**DCL      9380--REDEF    9380--REDEF    9381--REDEF
F$DCB.HEADER$
      9386**DCL      9386--REDEF
F$DCB.IXTNSIZE#
      9384**DCL      9384--REDEF
F$DCB.LASTSTA$
      9373**DCL      9373--REDEF
F$DCB.LVL
      9399**DCL      9399--REDEF
F$DCB.NAME#.C
      9374**DCL      9374--REDEF
F$DCB.NOEOF
      9396**DCL      9396--REDEF
F$DCB.NRECS#
      9385**DCL      9385--REDEF
F$DCB.NRECX
      9404**DCL      9404--REDEF
F$DCB.OHDR
PL6.E3A0      #011=VMA$OPEN_FOLDER File=VMA$SUBR.:VMB6TSI                        WED 08/20/97 15:04 Page:423
      9396**DCL      9396--REDEF
F$DCB.ORG#
      9379**DCL      9379--REDEF
F$DCB.OWNER
      9396**DCL      9564>>ASSIGN
F$DCB.PRECNO
      9402**DCL      9402--REDEF
F$DCB.PSN#
      9374**DCL      9537>>IF       9553>>ASSIGN
F$DCB.RCSZ
      9408**DCL      9408--REDEF
F$DCB.RES#
      9375**DCL      9375--REDEF
F$DCB.SETX
      9387**DCL      9387--REDEF
F$DCB.TAB$
      9387**DCL      9387--REDEF
F$DCB.TDA
      9401**DCL      9402--REDEF
F$DCB.WSN#
      9375**DCL      9375--REDEF
FID_NAME
      9342**DCL      9443--ASSIGN
FID_NAME.L#
      9342**DCL      9500<<ASSIGN
FID_NAME.NAME#
      9342**DCL      9498<<CALLBLT  9499>>CALLBLT
FIT$
      9417**DCL      9569<<ASSIGN   9570<>CALL     9571>>ASSIGN   9572>>ASSIGN   9573>>ASSIGN   9578<<ASSIGN
      9579<>CALL     9580>>ASSIGN   9581>>ASSIGN
FIT_AREA
      9420**DCL      9442--ASSIGN   9569--ASSIGN   9578--ASSIGN
FOLDER_ACCESS
      9126**DCL      9507--ASSIGN
FOLDER_ACCESS.Q
      9127**DCL      9126--DCLINIT
PL6.E3A0      #011=VMA$OPEN_FOLDER File=VMA$SUBR.:VMB6TSI                        WED 08/20/97 15:04 Page:424
FPT_MADMUCK
      9110**DCL      9543<>CALL
FPT_MADMUCK.ACCT_
      9110**DCL      9540<<ASSIGN
FPT_MADMUCK.SN_
      9110**DCL      9541<<ASSIGN
FPT_MADMUCK.V
      9111**DCL      9110--DCLINIT
FPT_OPEN
      9055**DCL      9526<>CALL
FPT_OPEN.ACCESS_
      9057**DCL      9507<<ASSIGN   9511<<ASSIGN
FPT_OPEN.ACCT_
      9059**DCL      9444<<ASSIGN
FPT_OPEN.ACSVEH_
      9057**DCL      9058--REDEF    9512<<ASSIGN
FPT_OPEN.ALTKEYS_
      9063**DCL      9064--REDEF    9064--REDEF
FPT_OPEN.FPARAM_
      9060**DCL      9442<<ASSIGN
FPT_OPEN.HDR_
      9062**DCL      9063--REDEF
FPT_OPEN.NAME_
      9056**DCL      9443<<ASSIGN
FPT_OPEN.PASS_
      9057**DCL      9445<<ASSIGN
FPT_OPEN.SN_
      9055**DCL      9492<<ASSIGN   9496<<ASSIGN
FPT_OPEN.TAB_
      9061**DCL      9062--REDEF
FPT_OPEN.UHL_
      9055**DCL      9056--REDEF    9056--REDEF
FPT_OPEN.V
      9064**DCL      9055--DCLINIT
FPT_OPEN.V.DCB#
      9064**DCL      9431<<ASSIGN
PL6.E3A0      #011=VMA$OPEN_FOLDER File=VMA$SUBR.:VMB6TSI                        WED 08/20/97 15:04 Page:425
FPT_OPEN.V.EXIST#
      9068**DCL      9434<<ASSIGN   9436<<ASSIGN
FPT_OPEN.V.FSN#
      9095**DCL      9095--REDEF    9095--REDEF
FPT_OPEN.V.FUN#
      9074**DCL      9439<<ASSIGN   9441<<ASSIGN   9504>>IF
FPT_OPEN.WSN_
      9061**DCL      9061--REDEF
FUN
      8988**DCL        48--PROC     9437--IF       9439>>ASSIGN
GOT_SPEC
      9490**LABEL    9450--GOTO
I
      9419**DCL      9499<<CALLBLT  9500>>ASSIGN
M$CLOSE
      6140**DCL-ENT  9520--CALL
M$MADMUCK
      6148**DCL-ENT  9543--CALL
M$OPEN
      6140**DCL-ENT  9526--CALL
PACKSET
      9355**DCL      9496--ASSIGN   9541--ASSIGN
PACKSET.NUM#
      9355**DCL      9494<<ASSIGN
PACKSET.SN#
      9355**DCL      9495<<ASSIGN
VM$RADDRESS.ACCT
      9219**DCL      9466>>IF       9469>>ASSIGN
VM$RADDRESS.FOLDER
      9211**DCL      9212--REDEF    9458>>ASSIGN
VM$RADDRESS.NOMAD.DELIM
      9214**DCL      9451>>IF
VM$RADDRESS.NOMAD.FOLDER
      9213**DCL      9454>>ASSIGN
VM$RADDRESS.NOMAD.PSID
      9215**DCL      9451>>IF       9455>>ASSIGN
PL6.E3A0      #011=VMA$OPEN_FOLDER File=VMA$SUBR.:VMB6TSI                        WED 08/20/97 15:04 Page:426
VM$RADDRESS.PASS
      9216**DCL      9474>>ASSIGN
VM$RADDRESS.SITENAME
      9218**DCL      9476>>IF       9479>>ASSIGN
VM$RADDRESS.TYPE
      9208**DCL      9423>>IF
VM$UADDRESS.FOLDER
      9246**DCL      9247--REDEF
VM_FOLDER_INFO
      8943**DCL        48--PROC
VM_FOLDER_INFO.ACCT
      8946**DCL      9444--ASSIGN   9469<<ASSIGN   9472<<ASSIGN
VM_FOLDER_INFO.FLAGS.OPEN
      8977**DCL      9559<<ASSIGN
VM_FOLDER_INFO.FLAGS.OWNER
      8969**DCL      9564<<ASSIGN
VM_FOLDER_INFO.FLAGS.UPDATE
      8967**DCL      9560<<ASSIGN
VM_FOLDER_INFO.FOLDER
      8948**DCL      9454<<ASSIGN   9458<<ASSIGN   9462>>IF       9464<<ASSIGN   9498>>CALLBLT
VM_FOLDER_INFO.NRECS
      8962**DCL      9580<<ASSIGN
VM_FOLDER_INFO.PASS
      8950**DCL      9445--ASSIGN   9474<<ASSIGN
VM_FOLDER_INFO.PSID
      8944**DCL      9455<<ASSIGN   9459<<ASSIGN   9490>>IF       9495>>ASSIGN   9534>>IF       9546<<ASSIGN
      9553<<ASSIGN
VM_FOLDER_INFO.SITENAME
      8952**DCL      9479<<ASSIGN   9482<<ASSIGN
VM_FOLDER_INFO.TIME.ACCESS
      8956**DCL      9571<<ASSIGN
VM_FOLDER_INFO.TIME.CREATION
      8958**DCL      9572<<ASSIGN
VM_FOLDER_INFO.TIME.MODIFY
      8960**DCL      9573<<ASSIGN
VM_FOLDER_INFO.UGRANS
PL6.E3A0      #011=VMA$OPEN_FOLDER File=VMA$SUBR.:VMB6TSI                        WED 08/20/97 15:04 Page:427
      8964**DCL      9581<<ASSIGN
VM_SITENAME
      8900**DCL      9482>>ASSIGN
X$STRING.SIZ
      8623**DCL      8624--IMP-SIZ
XSF$LOCCODE
      9415**DCL-ENT  9570--CALL     9579--CALL

PL6.E3A0      #012=VMA$OPEN_GLOBAL File=VMA$SUBR.:VMB6TSI                        WED 08/20/97 15:05 Page:428
     2406        1        /*T***********************************************************/
     2407        2        /*T*                                                         */
     2408        3        /*T* Copyright (c) Bull HN Information Systems Inc., 1997    */
     2409        4        /*T*                                                         */
     2410        5        /*T***********************************************************/
     2411        6        /*X* DMC,PLM=4,IND=4,CTI=2,DTI=0,ENI=0,ECI=0,CSI=0,DCI=4 */
     2412        7        /*X* DMC,PLM=4,IND=4,CTI=2,DTI=0,ENI=0,ECI=0,CSI=0,DCI=4 */
     2413        8        /*F*
     2414        9             NAME: VMA$OPEN_GLOBAL
     2415       10             PURPOSE:
     2416       11                   To open the folder containing the GLOBAL LIST definitions.
     2417       12             DESCRIPTION:
     2418       13                   This routine will open :MAIL_CENTRAL.:MAIL
     2419       14                   This file contains the GLOBAL definitions for mailing
     2420       15                   LISTS which are used when resolving addresses. This file
     2421       16                   will be opened INPUT only. Whenever a definition needs to
     2422       17                   be updated the user must USE .:MAIL/CENTRAL and have
     2423       18                   write access.
     2424       19
     2425       20                   This routine has only one parameter.
     2426       21
     2427       22                      DCB# - number of DCB to open the file with.
     2428       23        */
     2429       24        VMA$OPEN_GLOBAL: PROC (DCB#) ALTRET;
     2430       25        /***** Include files *****/
     2431       26          %INCLUDE B_ERRORS_C;
     2432     1153          %INCLUDE CP_6;
     2433     6712          %INCLUDE CP_6_SUBS;
     2434     7252          %INCLUDE VM_DATA_R;
     2435     7683        /***** Parameters *****/
     2436     7684    1   DCL DCB# UBIN WORD;
     2437     7685        /***** Fpts *****/
     2438     7686          %FPT_OPEN (FPTN=OPEN_GLOBAL,
     2439     7687                     ACCT=VM_MAIL_ACCT,
     2440     7688                     ASN=FILE,
     2441     7689                     EXIST=OLDFILE,
     2442     7690                     FUN=IN,
PL6.E3A0      #012=VMA$OPEN_GLOBAL File=VMA$SUBR.:VMB6TSI                        WED 08/20/97 15:05 Page:429
     2443     7691                     NAME=GLOBAL_NAME,
     2444     7692                     SCRUB=YES,
     2445     7693                     SHARE=ALL,
     2446     7694                      STCLASS=STATIC);
     2447     7803          %VLP_NAME (FPTN=GLOBAL_NAME,NAME=':MAIL_CENTRAL',STCLASS=CONSTANT);
     2448     7830        %EJECT;
PL6.E3A0      #012=VMA$OPEN_GLOBAL File=VMA$SUBR.:VMB6TSI                        WED 08/20/97 15:05 Page:430
     2449     7831        /*
     2450     7832             ***** Open the file ...
     2451     7833        */
     2452     7834    1       OPEN_GLOBAL.V.DCB# = DCB#;
     2453     7835    1       CALL M$OPEN (OPEN_GLOBAL) ALTRET(E_PMME);
     2454     7836    1       RETURN;
     2455     7837        /**/
     2456     7838    1   E_PMME:
     2457     7839    1       ALTRETURN;
     2458     7840    1   END VMA$OPEN_GLOBAL;
     2459     7841        %EOD;

PL6.E3A0      #012=VMA$OPEN_GLOBAL File=VMA$SUBR.:VMB6TSI                        WED 08/20/97 15:05 Page:431
--  Include file information  --

   B_MACROS_C.:LIB_E05  is referenced.
   VM_DATA_R.:VMB6TOU  cannot be made into a system file and is referenced.
   CP_6_SUBS.:LIB_E05  is referenced.
   CP_6_C.:LIB_E05  is referenced.
   CP_6.:LIB_E05  cannot be made into a system file and is referenced.
   B_ERRORS_C.:LIB_E05  is referenced.
      No diagnostics issued in procedure VMA$OPEN_GLOBAL.

   Procedure VMA$OPEN_GLOBAL requires 11 words for executable code.
   Procedure VMA$OPEN_GLOBAL requires 4 words of local(AUTO) storage.

PL6.E3A0      #012=VMA$OPEN_GLOBAL File=VMA$SUBR.:VMB6TSI                        WED 08/20/97 15:05 Page:432

 Object Unit name= VMA$OPEN_GLOBAL                            File name= VMA$SUBR.:VMB6TOU
 UTS= AUG 20 '97 15:05:32.68 WED                              Compiler= PL-6/E31         Sev=      00
 SharedLib= :SHARED_SYSTEM                                    Alt SharedLib=


    ****  Control sections  ****

 Sect   Type Bound  Init  Size OctSiz  Section name(segment info)
    0   DCB   even  none     0      0  M$UC
    1   DCB   even  none     0      0  M$MAIL_FILE
    2   DCB   even  none     0      0  M$MAIL_CENTRAL
    3   DCB   even  none     0      0  M$MAIL_GLOBAL
    4   DCB   even  none     0      0  M$WORK
    5   DCB   even  none     0      0  M$MAIL_COMGROUP
    6   DCB   even  none     0      0  M$DO
    7   DCB   even  none     0      0  M$LO
    8   DCB   even  none     0      0  M$ME
    9   DCB   even  none     0      0  M$NODE
   10   DCB   even  none     0      0  M$SI
   11   Data  even  none    58     72  VMA$OPEN_GLOBAL
   12  RoData even  UTS      4      4  VMA$OPEN_GLOBAL
   13   Proc  even  none    11     13  VMA$OPEN_GLOBAL

    ****  Entry defs  ****

                              Check   Calling
                             calling  sequence
  Sect OctLoc Primary Altret sequence   type   Parms  Name
    13      0   yes    yes     yes      Std        1  VMA$OPEN_GLOBAL
PL6.E3A0      #012=VMA$OPEN_GLOBAL File=VMA$SUBR.:VMB6TSI                        WED 08/20/97 15:05 Page:433

  ****  Entry refs  ****

         Check        Calling
        calling       sequence
Altret sequence SRef   type   Args  Name
                       nStd      0 X66_AUTO_1
                       nStd      0 X66_ARET
                       nStd      0 X66_AALT

  ****  Data refs  ****

  Flags:  r = read only, s = secondary
Flgs Name                             Flgs Name                             Flgs Name
     M$UC                             r    VM_HEADER$                       r    VM_PROFILE$
r    VM_ADDLIST$                      r    VM_ADDREC$                       r    VM_WORK$
r    VM_SELECT$                       r    VM_PARSEAREA$                    r    VM_INPUT$
r    VM_COPY$                              VM_ENCLLIST$                          VM_ENCLREC$
     VM_HEADER_                            VM_HEADER_INIT_                       VM_PROFILE_
     VM_ADDLIST_                           VM_ADDREC_                            VM_WORK_
     VM_SELECT_                            VM_PARSEAREA_                         VM_INPUT_
     VM_COPY_                              VM_ENCLLIST_                          VM_ENCLREC_
     M$MAIL_FILE                           M$MAIL_CENTRAL                        M$MAIL_GLOBAL
     M$WORK                                M$MAIL_COMGROUP                       M$DO
     M$LO                                  M$ME                                  M$NODE
     M$SI                                  M$MAIL_FILE_NUM                       M$MAIL_CENTRAL_NUM
     M$MAIL_GLOBAL_NUM                     M$WORK_NUM                            M$MAIL_COMGROUP_NUM
     M$DO_NUM                              M$ME_NUM                              M$LO_NUM
     M$SI_NUM                              M$NODE_NUM                       r    B$JIT$
r    B$TCB$                                VM_MAIL_ACCT                          VM_NAME_MAP_NAME
     ERRMSG_FID                            VM_SEND_FILE_NAME                     VM_FORWARD_FILE_NAME
     VM_FORWARD_ENCL_NAME                  VM_FORWARD_FILE_PASS                  VM_MAILCG_NAME
     VM_SITENAME                           VM_MAILCG_SETSTA
PL6.E3A0      #012=VMA$OPEN_GLOBAL File=VMA$SUBR.:VMB6TSI                        WED 08/20/97 15:05 Page:434

  ****  Segment refs  ****

  Flags:  r = read only, s = secondary
Flgs Name                             Flgs Name                             Flgs Name
     ISSID                                 NULLSID
PL6.E3A0      #012=VMA$OPEN_GLOBAL File=VMA$SUBR.:VMB6TSI                        WED 08/20/97 15:05 Page:435


     2406        1        /*T***********************************************************/
     2407        2        /*T*                                                         */
     2408        3        /*T* Copyright (c) Bull HN Information Systems Inc., 1997    */
     2409        4        /*T*                                                         */
     2410        5        /*T***********************************************************/
     2411        6        /*X* DMC,PLM=4,IND=4,CTI=2,DTI=0,ENI=0,ECI=0,CSI=0,DCI=4 */
     2412        7        /*X* DMC,PLM=4,IND=4,CTI=2,DTI=0,ENI=0,ECI=0,CSI=0,DCI=4 */
     2413        8        /*F*
     2414        9             NAME: VMA$OPEN_GLOBAL
     2415       10             PURPOSE:
     2416       11                   To open the folder containing the GLOBAL LIST definitions.
     2417       12             DESCRIPTION:
     2418       13                   This routine will open :MAIL_CENTRAL.:MAIL
     2419       14                   This file contains the GLOBAL definitions for mailing
     2420       15                   LISTS which are used when resolving addresses. This file
     2421       16                   will be opened INPUT only. Whenever a definition needs to
     2422       17                   be updated the user must USE .:MAIL/CENTRAL and have
     2423       18                   write access.
     2424       19
     2425       20                   This routine has only one parameter.
     2426       21
     2427       22                      DCB# - number of DCB to open the file with.
     2428       23        */
     2429       24        VMA$OPEN_GLOBAL: PROC (DCB#) ALTRET;

     24 13 000000   000000 700200 xent  VMA$OPEN_GL* TSX0  ! X66_AUTO_1
        13 000001   000004 000001                    ZERO    4,1

     2430       25        /***** Include files *****/
     2431       26          %INCLUDE B_ERRORS_C;
     2432     1153          %INCLUDE CP_6;
     2433     6712          %INCLUDE CP_6_SUBS;
     2434     7252          %INCLUDE VM_DATA_R;
     2435     7683        /***** Parameters *****/
     2436     7684    1   DCL DCB# UBIN WORD;
     2437     7685        /***** Fpts *****/
PL6.E3A0      #012=VMA$OPEN_GLOBAL File=VMA$SUBR.:VMB6TSI                        WED 08/20/97 15:05 Page:436
     2438     7686          %FPT_OPEN (FPTN=OPEN_GLOBAL,
     2439     7687                     ACCT=VM_MAIL_ACCT,
     2440     7688                     ASN=FILE,
     2441     7689                     EXIST=OLDFILE,
     2442     7690                     FUN=IN,
     2443     7691                     NAME=GLOBAL_NAME,
     2444     7692                     SCRUB=YES,
     2445     7693                     SHARE=ALL,
     2446     7694                      STCLASS=STATIC);
     2447     7803          %VLP_NAME (FPTN=GLOBAL_NAME,NAME=':MAIL_CENTRAL',STCLASS=CONSTANT);
     2448     7830        %EJECT;
PL6.E3A0      #012=VMA$OPEN_GLOBAL File=VMA$SUBR.:VMB6TSI                        WED 08/20/97 15:05 Page:437
     2449     7831        /*
     2450     7832             ***** Open the file ...
     2451     7833        */
     2452     7834    1       OPEN_GLOBAL.V.DCB# = DCB#;

   7834 13 000002   200003 470500                    LDP0    @DCB#,,AUTO
        13 000003   000000 720100                    LXL0    0,,PR0
        13 000004   000044 740000 11                 STX0    OPEN_GLOBAL+36

     2453     7835    1       CALL M$OPEN (OPEN_GLOBAL) ALTRET(E_PMME);

   7835 13 000005   000000 630400 11                 EPPR0   OPEN_GLOBAL
        13 000006   450000 713400                    CLIMB   alt,open
        13 000007   410400 401760                    pmme    nvectors=18
        13 000010   000012 702000 13                 TSX2    E_PMME

     2454     7836    1       RETURN;

   7836 13 000011   000000 702200 xent               TSX2  ! X66_ARET

     2455     7837        /**/
     2456     7838    1   E_PMME:
     2457     7839    1       ALTRETURN;

   7839 13 000012   000000 702200 xent  E_PMME       TSX2  ! X66_AALT

OPEN_GLOBAL
 Sect OctLoc
  11     000   000025 777640   000044 006000   000000 177640   000000 006014    .....$..........
  11     004   000000 177640   000000 006014   000003 377640   000000 006000    ................
  11     010   000000 177640   000000 006014   000000 177640   000000 006014    ................
  11     024*  000001 777640   000000 006000   000000 177640   000000 006014    ................
  11     030   000000 177640   000000 006014   000000 177640   000000 006014    ................
  11     044*  000000 400452   000000 002001   252525 000000   000040 252520    ............. ..
  11     050   000040 040040   000000 000000   000000 777777   000000 000000    .   ............
  11     054   000000 000000   000000 000000   000000 000000   000000 000000    ................
  11     060   251000 622000   000000 000000   000000 000000   111250 000000    ............I...
PL6.E3A0      #012=VMA$OPEN_GLOBAL File=VMA$SUBR.:VMB6TSI                        WED 08/20/97 15:05 Page:438
  11     064   040040 040040   000000 000000   000000 000000   000000 000000        ............
  11     070   000000 000000   ****** ******                                    ........

GLOBAL_NAME
 Sect OctLoc
  12     000   015072 115101   111114 137103   105116 124122   101114 ******    .:MAIL_CENTRAL..
     2458     7840    1   END VMA$OPEN_GLOBAL;
     2459     7841        %EOD;

PL6.E3A0      #012=VMA$OPEN_GLOBAL File=VMA$SUBR.:VMB6TSI                        WED 08/20/97 15:05 Page:439
--  Include file information  --

   B_MACROS_C.:LIB_E05  is referenced.
   VM_DATA_R.:VMB6TOU  cannot be made into a system file and is referenced.
   CP_6_SUBS.:LIB_E05  is referenced.
   CP_6_C.:LIB_E05  is referenced.
   CP_6.:LIB_E05  cannot be made into a system file and is referenced.
   B_ERRORS_C.:LIB_E05  is referenced.
      No diagnostics issued in procedure VMA$OPEN_GLOBAL.
PL6.E3A0      #012=VMA$OPEN_GLOBAL File=VMA$SUBR.:VMB6TSI                        WED 08/20/97 15:05 Page:440

 **** Variables and constants ****

  ****  Section 011  Data  VMA$OPEN_GLOBAL

  ****  Scalars and arrays  ****
OctLoc.c.b A Datatyp(siz) R M Lvl/name                 OctLoc.c.b A Datatyp(siz) R M Lvl/name

     0-0-0/d STRC(2088)  r     1 OPEN_GLOBAL

  ****  Section 012 RoData VMA$OPEN_GLOBAL

  ****  Scalars and arrays  ****
OctLoc.c.b A Datatyp(siz) R M Lvl/name                 OctLoc.c.b A Datatyp(siz) R M Lvl/name

     0-0-0/c STRC(126)   r     1 GLOBAL_NAME

  ****  Auto variables  ****

  ****  Scalars and arrays  ****
OctLoc.c.b A Datatyp(siz) R M Lvl/name                 OctLoc.c.b A Datatyp(siz) R M Lvl/name

     3-0-0/w PTR         r     1 @DCB#                     *0-0-0/w UBIN        r     1 DCB#

  ****  SYMREF variables  ****

  ****  Scalars and arrays  ****
OctLoc.c.b A Datatyp(siz) R M Lvl/name                 OctLoc.c.b A Datatyp(siz) R M Lvl/name

     0-0-0/w PTR               1 B$JIT$                     0-0-0/w PTR               1 B$TCB$
     0-0-0/c ASTR(9)     r     1 ERRMSG_FID                 0-0-0/w UBIN              1 M$DO_NUM
     0-0-0/w UBIN              1 M$LO_NUM                   0-0-0/w UBIN              1 M$MAIL_CENTRAL_NUM
     0-0-0/w UBIN              1 M$MAIL_COMGROUP_NUM        0-0-0/w UBIN              1 M$MAIL_FILE_NUM
     0-0-0/w UBIN              1 M$MAIL_GLOBAL_NUM          0-0-0/w UBIN              1 M$ME_NUM
     0-0-0/w UBIN              1 M$NODE_NUM                 0-0-0/w UBIN              1 M$SI_NUM
     0-0-0/w UBIN              1 M$WORK_NUM                 0-0-0/w PTR               1 VM_ADDLIST$
     0-0-0/d VECT              1 VM_ADDLIST_                0-0-0/w PTR               1 VM_ADDREC$
     0-0-0/d VECT              1 VM_ADDREC_                 0-0-0/w PTR               1 VM_COPY$
PL6.E3A0      #012=VMA$OPEN_GLOBAL File=VMA$SUBR.:VMB6TSI                        WED 08/20/97 15:05 Page:441
     0-0-0/d VECT              1 VM_COPY_                   0-0-0/w PTR               1 VM_ENCLLIST$
     0-0-0/d VECT              1 VM_ENCLLIST_               0-0-0/w PTR               1 VM_ENCLREC$
     0-0-0/d VECT              1 VM_ENCLREC_                0-0-0/c STRC(270)         1 VM_FORWARD_ENCL_NAME
     0-0-0/c STRC(270)         1 VM_FORWARD_FILE_NAME       0-0-0/c STRC(72)          1 VM_FORWARD_FILE_PASS
     0-0-0/w PTR               1 VM_HEADER$                 0-0-0/d VECT              1 VM_HEADER_
     0-0-0/d VECT              1 VM_HEADER_INIT_            0-0-0/w PTR               1 VM_INPUT$
     0-0-0/d VECT              1 VM_INPUT_                  0-0-0/c STRC(72)          1 VM_MAILCG_NAME
     0-0-0/w STRC(432)         1 VM_MAILCG_SETSTA           0-0-0/c STRC(72)    r     1 VM_MAIL_ACCT
     0-0-0/c STRC(54)          1 VM_NAME_MAP_NAME           0-0-0/w PTR               1 VM_PARSEAREA$
     0-0-0/d VECT              1 VM_PARSEAREA_              0-0-0/w PTR               1 VM_PROFILE$
     0-0-0/d VECT              1 VM_PROFILE_                0-0-0/w PTR               1 VM_SELECT$
     0-0-0/d VECT              1 VM_SELECT_                 0-0-0/c STRC(288)         1 VM_SEND_FILE_NAME
     0-0-0/c CHAR(8)           1 VM_SITENAME                0-0-0/w PTR               1 VM_WORK$
     0-0-0/d VECT              1 VM_WORK_

  ****  BASED and DCB variables  ****

  ****  Scalars and arrays  ****
OctLoc.c.b A Datatyp(siz) R M Lvl/name                 OctLoc.c.b A Datatyp(siz) R M Lvl/name

     0-0-0N  NULL        r     1 M$DO                       0-0-0N  NULL        r     1 M$LO
     0-0-0N  NULL        r     1 M$MAIL_CENTRAL             0-0-0N  NULL        r     1 M$MAIL_COMGROUP
     0-0-0N  NULL        r     1 M$MAIL_FILE                0-0-0N  NULL        r     1 M$MAIL_GLOBAL
     0-0-0N  NULL        r     1 M$ME                       0-0-0N  NULL        r     1 M$NODE
     0-0-0N  NULL        r     1 M$SI                       0-0-0N  NULL        r     1 M$UC
     0-0-0N  NULL        r     1 M$WORK                     0-0-0/c ASTR(9)     r     1 X$STRING


   Procedure VMA$OPEN_GLOBAL requires 11 words for executable code.
   Procedure VMA$OPEN_GLOBAL requires 4 words of local(AUTO) storage.
PL6.E3A0      #012=VMA$OPEN_GLOBAL File=VMA$SUBR.:VMB6TSI                        WED 08/20/97 15:05 Page:442
          *** CROSS REFERENCE LISTING ***
**     DENOTES     IDENTIFIER DEFINITION
<<                 IDENTIFIER'S VALUE SET
>>                 IDENTIFIER'S VALUE USED
<>                 IDENTIFIER SET AND/OR USED
--                 IDENTIFIER REFERENCED
PL6.E3A0      #012=VMA$OPEN_GLOBAL File=VMA$SUBR.:VMB6TSI                        WED 08/20/97 15:05 Page:443
          MINI XREF LISTING

DCB#
      7684**DCL        24--PROC     7834>>ASSIGN
ERRMSG_FID.L#
      7528**DCL      7528--IMP-SIZ
E_PMME
      7839**LABEL    7835--CALLALT
GLOBAL_NAME
      7828**DCL      7760--DCLINIT
M$OPEN
      6640**DCL-ENT  7835--CALL
OPEN_GLOBAL
      7759**DCL      7835<>CALL
OPEN_GLOBAL.ACSVEH_
      7761**DCL      7762--REDEF
OPEN_GLOBAL.ALTKEYS_
      7767**DCL      7768--REDEF    7768--REDEF
OPEN_GLOBAL.HDR_
      7766**DCL      7767--REDEF
OPEN_GLOBAL.TAB_
      7765**DCL      7766--REDEF
OPEN_GLOBAL.UHL_
      7759**DCL      7760--REDEF    7760--REDEF
OPEN_GLOBAL.V
      7768**DCL      7759--DCLINIT
OPEN_GLOBAL.V.DCB#
      7768**DCL      7834<<ASSIGN
OPEN_GLOBAL.V.FSN#
      7799**DCL      7799--REDEF    7799--REDEF
OPEN_GLOBAL.WSN_
      7765**DCL      7765--REDEF
VM_MAIL_ACCT
      7474**DCL      7764--DCLINIT
PL6.E3A0      #012=VMA$OPEN_GLOBAL File=VMA$SUBR.:VMB6TSI                        WED 08/20/97 15:05 Page:444
X$STRING.SIZ
      7374**DCL      7375--IMP-SIZ

