VERSION B06

PL6.E3A0      #001=VMA$ADDRESS File=VMA$SUBR.:VMB6TSI                            WED 08/20/97 15:01 Page:1
        1        1        /*M* VMA$SUBR - Routines necessary to resolve addresses */
        2        2        /*T***********************************************************/
        3        3        /*T*                                                         */
        4        4        /*T* Copyright (c) Bull HN Information Systems Inc., 1997    */
        5        5        /*T*                                                         */
        6        6        /*T***********************************************************/
        7        7        /*X* DMC,PLM=4,IND=4,CTI=2,DTI=0,ENI=0,ECI=0,CSI=0,DCI=4 */
        8        8        /*X* DMC,PLM=4,IND=4,CTI=2,DTI=0,ENI=0,ECI=0,CSI=0,DCI=4 */
        9        9        /*F*
       10       10             NAME: VMA$ADDRESS
       11       11             PURPOSE:
       12       12                  To transform an ADDRESS into its internal form.
       13       13             DESCRIPTION:
       14       14                  This routine will accept a parse tree and turn it into
       15       15                  an address list.
       16       16
       17       17                  This list will then be used by VMA$EXPAND_ADDRESS.
       18       18
       19       19                  This routine has 4 parameters:
       20       20                   TREE$ - ptr to list of N addresses.
       21       21                   USER_NAME - info for defaults
       22       22                   VM_SEARCH_INFO - contains the SEARCH LIST  for resolving addresses.
       23       23                   EXPAND_FULL# - full address expansion(YES/NO) (optional. Default=NO)
       24       24              EXPAND_USER# - expand user def(YES/NO) (optional. Default=YES if EXPAND_FULL#)
       25       25        */
       26       26        VMA$ADDRESS: PROC (TREE$,USER_NAME,VM_SEARCH_INFO,EXPAND_FULL#,EXPAND_USER#) ALTRET;
       27       27        /***** Include files *****/
       28       28          %INCLUDE CP_6;
       29     5587          %INCLUDE CP_6_SUBS;
       30     6127          %INCLUDE VM_MACRO_C;
       31     7395          %INCLUDE VM_PERR_C;
       32     7690          %INCLUDE VM_SUBS_C;
       33     7950          %INCLUDE VM_DATA_R;
       34     8381          %INCLUDE VW_NODEATER_E;
       35     8437          %INCLUDE XU_MACRO_C;
       36    11543          %INCLUDE XU_SUBS_C;
       37    11635          %INCLUDE XUM_MACRO_C;
PL6.E3A0      #001=VMA$ADDRESS File=VMA$SUBR.:VMB6TSI                            WED 08/20/97 15:01 Page:2
       38    11662            %include B$TABLES_C;
       39    11770          %B$XL_UPPER(NAME=lower_UPPER);
       40    11774        /***** Parameters *****/
       41    11775    1   DCL TREE$ PTR;
       42    11776          %TEXTC (NAME=USER_NAME,STCLASS=" ");
       43    11781          %VM_SEARCH_INFO (STCLASS=" ");
       44    11808    1   DCL EXPAND_FULL# BIT(1);
       45    11809    1   DCL EXPAND_USER# BIT(1);
       46    11810        /***** Mail structures *****/
       47    11811          %VM_ADDTYPES;
       48    11815          %VM_ADD_HEAD;
       49    11844          %VM_UADDRESS (STCLASS=AUTO);
       50    11881        /***** Based structures *****/
       51    11882          %PARSE$OUT (NAME=P$B,STCLASS=BASED);
       52    11927          %PARSE$SYM (NAME=P$S,STCLASS=BASED);
       53    11965        /***** External routines *****/
       54    11966    1   DCL VMA$ADD_RENTRY ENTRY(6) ALTRET;
       55    11967    1   DCL VMA$ADD_UENTRY ENTRY(6) ALTRET;
       56    11968    1   DCL VMA$EXPAND_LIST ENTRY(5) ALTRET;
       57    11969    1   DCL VMA$EXPAND_LIST_GLOBAL ENTRY(5) ALTRET;
       58    11970    1   DCL VMA$ERRMSG ENTRY(5);
       59    11971    1   DCL VMA$GET_SITE_NAME ENTRY(4) ALTRET;
       60    11972        /***** Local variables *****/
       61    11973    1   DCL BLK1$ PTR STATIC;
       62    11974    1   DCL BLK2$ PTR STATIC;
       63    11975    1   DCL DOMAIN$ PTR;
       64    11976    1   DCL SITE$ PTR;
       65    11977    1   DCL SITETYPE UBIN;
       66    11978    1   DCL INDX1 SBIN WORD STATIC;
       67    11979    1   DCL INDX2 SBIN WORD STATIC;
       68    11980         %VLP_SN (FPTN=PSID,STCLASS=STATIC,N=1);
       69    11993          %VLP_ACCT (FPTN=ACCT,STCLASS=STATIC);
       70    12006          %VLP_NAME (FPTN=NAME,LEN=%SIZ_LISTNAME,STCLASS=STATIC);
       71    12033    1   DCL FOLDER CHAR(%SIZ_FOLDER) STATIC;
       72    12034          %VLP_PASS (FPTN=PASSWORD,STCLASS=STATIC);
       73    12047    1   DCL SITENAME CHAR(%SIZ_SITENAME) STATIC;
       74    12048          %VLP_NAME (FPTN=ERR_TEXT,LEN=31,NAME=' ');
PL6.E3A0      #001=VMA$ADDRESS File=VMA$SUBR.:VMB6TSI                            WED 08/20/97 15:01 Page:3
       75    12075    1   DCL SITE CHAR(8) STATIC;
       76    12076        /***** Error codes *****/
       77    12077          %VLP_ERRCODE (FPTN=E_BADWSN,FCG="VM",MID="A",
       78    12078                        ERR#=%E$BADWSN,STCLASS=CONSTANT);
       79    12123        /*E*    ERROR: VMA-E$BADWSN-0
       80    12124                MESSAGE: Site %U1 is undefined.
       81    12125        */
       82    12126              %VLP_ERRCODE (FPTN=E_BADDOMAIN, FCG="VM", MID="A",
       83    12127              ERR#=%E$BADDOMAIN, STCLASS=CONSTANT);
       84    12172        /*E*  ERROR: VMA-E$BADDOMAIN-0
       85    12173              MESSAGE: Domain %U1 is unknown or illegal.
       86    12174        */
       87    12175              %VLP_ERRCODE (FPTN=E_PSIDFOLDERTOOLONG,FCG="VM",MID="A",
       88    12176              ERR#=%E$PSIDFOLDERTOOLONG,STCLASS=CONSTANT);
       89    12221        /*E*     ERROR: VMA-E$PSIDFOLDERTOOLONG
       90    12222                 MESSAGE: This folder name is too long.  For mailboxes stored in
       91    12223                          nonpublic accounts, the length of the folder name may not
       92    12224                          exceed 18 characters.
       93    12225        */
       94    12226        %EJECT;
PL6.E3A0      #001=VMA$ADDRESS File=VMA$SUBR.:VMB6TSI                            WED 08/20/97 15:01 Page:4
       95    12227        /*
       96    12228             ***** Initialize VM_ADD_HEAD ...
       97    12229        */
       98    12230    1         VM_ADD_HEAD.NUM_ENTRIES = 0;
       99    12231    1       VM_ADD_HEAD.FLAGS = %NO#;
      100    12232        /*
      101    12233             ***** Expand an address list ...
      102    12234        */
      103    12235    2       DO INDX1 = 0 TO TREE$ -> P$B.NSUBLKS - 1;
      104    12236    2           BLK1$ = TREE$ -> P$B.SUBLK$(INDX1);
      105    12237        /*
      106    12238             ***** Init acct, USER_NAME, folder, password and sitename ...
      107    12239        */
      108    12240    2           PSID.SN#(0) = ' ';
      109    12241    2           ACCT.ACCT# = ' ';
      110    12242    2           NAME.L# = 0;
      111    12243    2           NAME.NAME# = ' ';
      112    12244    2           PASSWORD.PASS# = ' ';
      113    12245    2           SITENAME = ' ';
      114    12246    2           SITE = ' ';
      115    12247    2           DOMAIN$ = ADDR(NIL);
      116    12248    2           SITE$ = ADDR(NIL);
      117    12249    2           FOLDER = ' ';
      118    12250        /**/
      119    12251    3           DO INDX2 = 0 TO BLK1$ -> P$B.NSUBLKS - 1;
      120    12252    3               BLK2$ = BLK1$ -> P$B.SUBLK$(INDX2);
      121    12253    4               DO CASE (BLK2$ -> P$B.CODE);
      122    12254    4               CASE (%ADD_ACCT);
      123    12255    4                   ACCT.ACCT# = BLK2$ -> P$S.TEXT;
      124    12256    4               CASE(%ADD_PSID);
      125    12257    4                   PSID.SN#(0) = BLK2$ -> P$S.TEXT;
      126    12258    4               CASE (%ADD_FOLDER);
      127    12259    4                   FOLDER = BLK2$ -> P$S.TEXT;
      128    12260    4               CASE (%ADD_NAME);
      129    12261    4                   NAME.L# = BLK2$ -> P$S.COUNT;
      130    12262    4                   NAME.NAME# = BLK2$ -> P$S.TEXT;
      131    12263    4               CASE (%ADD_PASS);
PL6.E3A0      #001=VMA$ADDRESS File=VMA$SUBR.:VMB6TSI                            WED 08/20/97 15:01 Page:5
      132    12264    4                   PASSWORD.PASS# = BLK2$ -> P$S.TEXT;
      133    12265    4               CASE (%ADD_SITE);
      134    12266    4                   SITE$ = BLK2$;
      135    12267    4               CASE (%ADD_DOMAIN);
      136    12268    4                   DOMAIN$ = BLK2$;
      137    12269    4               END;                  /* Do case ... end */
      138    12270    3           END;                       /* Do INDX2 ... end */
      139    12271        /*
      140    12272              ***** Check to make sure that the folder name and packset id don't
      141    12273                    collide.
      142    12274        */
      143    12275
      144    12276    2           IF PSID.SN#(0) ~= ' '
      145    12277    3           THEN DO;
      146    12278
      147    12279    3               VM_UADDRESS.FOLDER = FOLDER;
      148    12280
      149    12281    3               IF VM_UADDRESS.NOMAD.DELIM ~= ' '
      150    12282    4               THEN DO;
      151    12283
      152    12284    4                   CALL VMA$ERRMSG (E_PSIDFOLDERTOOLONG);
      153    12285    4                   GOTO ERR;
      154    12286
      155    12287    4               END;
      156    12288
      157    12289    3               VM_UADDRESS.NOMAD.PSID = PSID.SN#(0);
      158    12290    3               FOLDER = VM_UADDRESS.FOLDER;
      159    12291
      160    12292    3           END;
      161    12293
      162    12294        /*
      163    12295              ***** If a domain was specified, check to make sure that the outermost
      164    12296                    subdomain can be mapped into a node name;  reject otherwise.  Then
      165    12297                    map the domain-name structure into the corresponding CP-6
      166    12298                    equivalent (e.g. "name@sd1.sd2.sd3" -> "name%sd1.sd2@sd3").
      167    12299        */
      168    12300    2           IF DOMAIN$ ~= ADDR(NIL)
PL6.E3A0      #001=VMA$ADDRESS File=VMA$SUBR.:VMB6TSI                            WED 08/20/97 15:01 Page:6
      169    12301    3           THEN DO;
      170    12302    3               SITE$ = DOMAIN$ -> P$B.SUBLK$(DOMAIN$ -> P$B.NSUBLKS - 1);
      171    12303    3               IF SITE$ -> P$S.COUNT > LENGTHC(SITENAME)
      172    12304    4               THEN DO;
      173    12305    4                   IF SITE$ -> P$S.COUNT < 32
      174    12306    5                   THEN DO;
      175    12307    5                       ERR_TEXT.NAME# = SITE$ -> P$S.TEXT;
      176    12308    5                       ERR_TEXT.L# = SITE$ -> P$S.COUNT;
      177    12309    5                   END;
      178    12310    5                   ELSE DO;
      179    12311    5                       CALL CONCAT (ERR_TEXT.NAME#, SUBSTR (SITE$ -> P$S.TEXT, 0, 28),
             12311                                '...');
      180    12312    5                       ERR_TEXT.L# = 31;
      181    12313    5                   END;
      182    12314    4                   CALL VMA$ERRMSG (E_BADDOMAIN,,VECTOR(ERR_TEXT));
      183    12315    4                   GOTO ERR;
      184    12316    4               END;
      185    12317    4               DO INDX2 = 0 TO DOMAIN$ -> P$B.NSUBLKS - 2;
      186    12318    4                   IF INDX2 = 0
      187    12319    4                   THEN
      188    12320    4                       CALL INSERT (NAME.NAME#, NAME.L#, , '%', DOMAIN$ -> P$B.SUBLK$(
             12320                                INDX2) -> P$S.TEXT);
      189    12321    4                   ELSE
      190    12322    4                       CALL INSERT (NAME.NAME#, NAME.L#, , '.', DOMAIN$ -> P$B.SUBLK$(
             12322                                INDX2) -> P$S.TEXT);
      191    12323    4                   NAME.L# = NAME.L# + DOMAIN$ -> P$B.SUBLK$(INDX2) -> P$S.COUNT + 1;
      192    12324    4               END;
      193    12325    3           END;
      194    12326        /*
      195    12327             ***** If a sitename was specified,
      196    12328                   verify that it is legal ...
      197    12329        */
      198    12330    2           IF SITE$ ~= ADDR(NIL)
      199    12331    3           THEN DO;
      200    12332    3               SITENAME = SITE$ -> P$S.TEXT;
      201    12333    3               CALL XLATE (SITE, LOWER_UPPER, SITENAME);
      202    12334    3               IF SITE = VM_SITENAME
PL6.E3A0      #001=VMA$ADDRESS File=VMA$SUBR.:VMB6TSI                            WED 08/20/97 15:01 Page:7
      203    12335    3               THEN
      204    12336    3                   IF DOMAIN$ ~= ADDR(NIL)
      205    12337    3                   THEN
      206    12338    3                       GOTO BAD_SITE;
      207    12339    3                   ELSE;
      208    12340    4               ELSE DO;
      209    12341    4                   CALL VMA$GET_SITE_NAME (SITENAME, SITE, SITETYPE)
      210    12342    5                   WHENALTRETURN DO;
      211    12343    5   BAD_SITE:           ERR_TEXT.NAME# = SITENAME;
      212    12344    5                       ERR_TEXT.L# = SITE$ -> P$S.COUNT;
      213    12345    5                       IF DOMAIN$ = ADDR(NIL)
      214    12346    5                       THEN
      215    12347    5                           CALL VMA$ERRMSG (E_BADWSN,,VECTOR(ERR_TEXT));
      216    12348    5                       ELSE
      217    12349    5                           CALL VMA$ERRMSG (E_BADDOMAIN,,VECTOR(ERR_TEXT));
      218    12350    5                       GOTO ERR;
      219    12351    5                   END;
      220    12352    5                   if SITETYPE ~= %N_EXTERNAL# then do;
      221    12353    5                       SITENAME = SITE;
      222    12354    5                       if DOMAIN$ ~= ADDR(NIL)
      223    12355    5                       THEN
      224    12356    5                           GOTO BAD_SITE;
      225    12357    5                   end; /* if sitetype ~= external site */
      226    12358    4               END;
      227    12359    3           END;
      228    12360        /*
      229    12361             ***** If neither an account nor user name was specified,
      230    12362                   then fill in the apropriate default information ...
      231    12363        */
      232    12364    2           IF ACCT.ACCT# = ' '
      233    12365    2             AND NAME.NAME# = ' '
      234    12366    2           THEN                       /* Fill in default */
      235    12367    3           DO;
      236    12368    3               IF SUBSTR(USER_NAME.TEXT,0,1) = '.'
      237    12369    3               THEN            /* User is not registered */
      238    12370    4               DO;
      239    12371    4                   ACCT.ACCT# = SUBSTR(USER_NAME.TEXT,1);
PL6.E3A0      #001=VMA$ADDRESS File=VMA$SUBR.:VMB6TSI                            WED 08/20/97 15:01 Page:8
      240    12372    4                   NAME.L# = 0;
      241    12373    4                   NAME.NAME# = ' ';
      242    12374    4               END;
      243    12375    3               ELSE            /* User is registered */
      244    12376    4               DO;
      245    12377    4                   ACCT.ACCT# = ' ';
      246    12378    4                   NAME.L# = USER_NAME.SIZ;
      247    12379    4                   NAME.NAME# = USER_NAME.TEXT;
      248    12380    4               END;
      249    12381    3           END;
      250    12382        /*
      251    12383             ***** If a user name (rather than an account) was specified,
      252    12384                   then resolve and add to address list ...
      253    12385        */
      254    12386    2           IF ACCT.ACCT# = ' '
      255    12387    2             AND NAME.NAME# ~= ' '
      256    12388    2           THEN
      257    12389    3           DO;
      258    12390    3               VM_UADDRESS.FOLDER = FOLDER;
      259    12391    3               VM_UADDRESS.PASS = PASSWORD.PASS#;
      260    12392    3               CALL XLATE (VM_UADDRESS.SITENAME, LOWER_UPPER, SITENAME);
      261    12393    3               VM_UADDRESS.USER_NAME.COUNT = NAME.L#;
      262    12394    3               VM_UADDRESS.USER_NAME.TEXT = NAME.NAME#;
      263    12395    3               IF ADDR(EXPAND_FULL#) ~= ADDR(NIL)
      264    12396    3                 AND EXPAND_FULL# = %YES#
      265    12397    3               THEN
      266    12398    3                   CALL VMA$EXPAND_LIST_GLOBAL (VM_UADDRESS,VBASE(VM_WORK_),
      267    12399    3                     VM_SEARCH_INFO,0,EXPAND_USER#) ALTRET(E_PMME);
      268    12400    3               ELSE
      269    12401    3                   CALL VMA$EXPAND_LIST (VM_UADDRESS,VBASE(VM_WORK_),
      270    12402    3                     VM_SEARCH_INFO,0,EXPAND_USER#) ALTRET(E_PMME);
      271    12403    3           END;                  /* Resolve name loop */
      272    12404        /*
      273    12405             ***** If an account was specified,
      274    12406                   then add to address list ...
      275    12407        */
      276    12408    2           IF ACCT.ACCT# ~= ' '
PL6.E3A0      #001=VMA$ADDRESS File=VMA$SUBR.:VMB6TSI                            WED 08/20/97 15:01 Page:9
      277    12409    2             AND NAME.NAME# = ' '
      278    12410    2           THEN
      279    12411    3           DO;
      280    12412    3               CALL VMA$ADD_RENTRY (ACCT,FOLDER,PASSWORD,SITE) ALTRET(E_PMME);
      281    12413    3           END;
      282    12414    3           DO NEVER;
      283    12415    3   ERR:        ;
      284    12416    3               VM_ADD_HEAD.FLAGS.ERR# = %YES#;
      285    12417    3           END;
      286    12418    2       END;                            /* Do INDX1 ... end */
      287    12419        /*
      288    12420             ***** If there are any errors in the address list
      289    12421                   then altreturn so they can be reported ...
      290    12422        */
      291    12423    1       IF VM_ADD_HEAD.FLAGS.ERR#
      292    12424    1       THEN
      293    12425    1           ALTRETURN;
      294    12426    1       ELSE
      295    12427    1           RETURN;
      296    12428        /**/
      297    12429    1   E_PMME:
      298    12430    1       ALTRETURN;
      299    12431    1   END VMA$ADDRESS;
      300    12432        %EOD;

PL6.E3A0      #001=VMA$ADDRESS File=VMA$SUBR.:VMB6TSI                            WED 08/20/97 15:01 Page:10
--  Include file information  --

   B$TABLES_C.:LIB_E05  cannot be made into a system file and is referenced.
   XUM_MACRO_C.:LIB_E05  is referenced.
   XU_SUBS_C.:LIB_E05  is referenced.
   XU_MACRO_C.:LIB_E05  is referenced.
   VW_NODEATER_E.:VMB6TOU  is referenced.
   B_MACROS_C.:LIB_E05  is referenced.
   VM_DATA_R.:VMB6TOU  cannot be made into a system file and is referenced.
   VM_SUBS_C.:VMB6TOU  is referenced.
   VM_PERR_C.:VMB6TOU  is referenced.
   VM_MACRO_C.:VMB6TOU  is referenced.
   CP_6_SUBS.:LIB_E05  is referenced.
   CP_6_C.:LIB_E05  is referenced.
   CP_6.:LIB_E05  cannot be made into a system file and is referenced.
      No diagnostics issued in procedure VMA$ADDRESS.

   Procedure VMA$ADDRESS requires 439 words for executable code.
   Procedure VMA$ADDRESS requires 86 words of local(AUTO) storage.

PL6.E3A0      #001=VMA$ADDRESS File=VMA$SUBR.:VMB6TSI                            WED 08/20/97 15:01 Page:11

 Object Unit name= VMA$ADDRESS                                File name= VMA$SUBR.:VMB6TOU
 UTS= AUG 20 '97 15:01:59.56 WED                              Compiler= PL-6/E31         Sev=      00
 SharedLib= :SHARED_SYSTEM                                    Alt SharedLib=


    ****  Control sections  ****

 Sect   Type Bound  Init  Size OctSiz  Section name(segment info)
    0   DCB   even  none     0      0  M$UC
    1   DCB   even  none     0      0  M$MAIL_FILE
    2   DCB   even  none     0      0  M$MAIL_CENTRAL
    3   DCB   even  none     0      0  M$MAIL_GLOBAL
    4   DCB   even  none     0      0  M$WORK
    5   DCB   even  none     0      0  M$MAIL_COMGROUP
    6   DCB   even  none     0      0  M$DO
    7   DCB   even  none     0      0  M$LO
    8   DCB   even  none     0      0  M$ME
    9   DCB   even  none     0      0  M$NODE
   10   DCB   even  none     0      0  M$SI
   11   Data  even  none    82    122  VMA$ADDRESS
   12  RoData even  UTS      4      4  VMA$ADDRESS
   13   Proc  even  none   439    667  VMA$ADDRESS
   14  RoData even  none    25     31  VMA$ADDRESS

    ****  Entry defs  ****

                              Check   Calling
                             calling  sequence
  Sect OctLoc Primary Altret sequence   type   Parms  Name
    13      0   yes    yes     yes      Std        5  VMA$ADDRESS
PL6.E3A0      #001=VMA$ADDRESS File=VMA$SUBR.:VMB6TSI                            WED 08/20/97 15:01 Page:12

  ****  Entry refs  ****

         Check        Calling
        calling       sequence
Altret sequence SRef   type   Args  Name
         yes          ~proc      0 B_POINTER
         yes           Std       5 VMA$ERRMSG
 yes     yes           Std       5 VMA$EXPAND_LIST_GLOBAL
 yes     yes           Std       5 VMA$EXPAND_LIST
 yes     yes           Std       6 VMA$ADD_RENTRY
 yes     yes           Std       4 VMA$GET_SITE_NAME
                       nStd      0 X66_AUTO_5
                       nStd      0 X66_AALT
                       nStd      0 X66_ARET

  ****  Data refs  ****

  Flags:  r = read only, s = secondary
Flgs Name                             Flgs Name                             Flgs Name
     M$UC                             r    VM_HEADER$                       r    VM_PROFILE$
r    VM_ADDLIST$                      r    VM_ADDREC$                       r    VM_WORK$
r    VM_SELECT$                       r    VM_PARSEAREA$                    r    VM_INPUT$
r    VM_COPY$                              VM_ENCLLIST$                          VM_ENCLREC$
     VM_HEADER_                            VM_HEADER_INIT_                       VM_PROFILE_
     VM_ADDLIST_                           VM_ADDREC_                            VM_WORK_
     VM_SELECT_                            VM_PARSEAREA_                         VM_INPUT_
     VM_COPY_                              VM_ENCLLIST_                          VM_ENCLREC_
     M$MAIL_FILE                           M$MAIL_CENTRAL                        M$MAIL_GLOBAL
     M$WORK                                M$MAIL_COMGROUP                       M$DO
     M$LO                                  M$ME                                  M$NODE
     M$SI                                  M$MAIL_FILE_NUM                       M$MAIL_CENTRAL_NUM
     M$MAIL_GLOBAL_NUM                     M$WORK_NUM                            M$MAIL_COMGROUP_NUM
     M$DO_NUM                              M$ME_NUM                              M$LO_NUM
     M$SI_NUM                              M$NODE_NUM                       r    B$JIT$
r    B$TCB$                                VM_MAIL_ACCT                          VM_NAME_MAP_NAME
     ERRMSG_FID                            VM_SEND_FILE_NAME                     VM_FORWARD_FILE_NAME
     VM_FORWARD_ENCL_NAME                  VM_FORWARD_FILE_PASS                  VM_MAILCG_NAME
PL6.E3A0      #001=VMA$ADDRESS File=VMA$SUBR.:VMB6TSI                            WED 08/20/97 15:01 Page:13
     VM_SITENAME                           VM_MAILCG_SETSTA                 r    B$XL_UPPER$

  ****  Segment refs  ****

  Flags:  r = read only, s = secondary
Flgs Name                             Flgs Name                             Flgs Name
     NULLSID                               ISSID
PL6.E3A0      #001=VMA$ADDRESS File=VMA$SUBR.:VMB6TSI                            WED 08/20/97 15:01 Page:14


        1        1        /*M* VMA$SUBR - Routines necessary to resolve addresses */
        2        2        /*T***********************************************************/
        3        3        /*T*                                                         */
        4        4        /*T* Copyright (c) Bull HN Information Systems Inc., 1997    */
        5        5        /*T*                                                         */
        6        6        /*T***********************************************************/
        7        7        /*X* DMC,PLM=4,IND=4,CTI=2,DTI=0,ENI=0,ECI=0,CSI=0,DCI=4 */
        8        8        /*X* DMC,PLM=4,IND=4,CTI=2,DTI=0,ENI=0,ECI=0,CSI=0,DCI=4 */
        9        9        /*F*
       10       10             NAME: VMA$ADDRESS
       11       11             PURPOSE:
       12       12                  To transform an ADDRESS into its internal form.
       13       13             DESCRIPTION:
       14       14                  This routine will accept a parse tree and turn it into
       15       15                  an address list.
       16       16
       17       17                  This list will then be used by VMA$EXPAND_ADDRESS.
       18       18
       19       19                  This routine has 4 parameters:
       20       20                   TREE$ - ptr to list of N addresses.
       21       21                   USER_NAME - info for defaults
       22       22                   VM_SEARCH_INFO - contains the SEARCH LIST  for resolving addresses.
       23       23                   EXPAND_FULL# - full address expansion(YES/NO) (optional. Default=NO)
       24       24             EXPAND_USER# - expand user def(YES/NO) (optional. Default=YES if EXPAND_FULL#)
       25       25        */
       26       26       VMA$ADDRESS: PROC (TREE$,USER_NAME,VM_SEARCH_INFO,EXPAND_FULL#,EXPAND_USER#) ALTRET;

     26 13 000000   000000 700200 xent  VMA$ADDRESS  TSX0  ! X66_AUTO_5
        13 000001   000126 000005                    ZERO    86,5

       27       27        /***** Include files *****/
       28       28          %INCLUDE CP_6;
       29     5587          %INCLUDE CP_6_SUBS;
       30     6127          %INCLUDE VM_MACRO_C;
       31     7395          %INCLUDE VM_PERR_C;
       32     7690          %INCLUDE VM_SUBS_C;
PL6.E3A0      #001=VMA$ADDRESS File=VMA$SUBR.:VMB6TSI                            WED 08/20/97 15:01 Page:15
       33     7950          %INCLUDE VM_DATA_R;
       34     8381          %INCLUDE VW_NODEATER_E;
       35     8437          %INCLUDE XU_MACRO_C;
       36    11543          %INCLUDE XU_SUBS_C;
       37    11635          %INCLUDE XUM_MACRO_C;
       38    11662            %include B$TABLES_C;
       39    11770          %B$XL_UPPER(NAME=lower_UPPER);
       40    11774        /***** Parameters *****/
       41    11775    1   DCL TREE$ PTR;
       42    11776          %TEXTC (NAME=USER_NAME,STCLASS=" ");
       43    11781          %VM_SEARCH_INFO (STCLASS=" ");
       44    11808    1   DCL EXPAND_FULL# BIT(1);
       45    11809    1   DCL EXPAND_USER# BIT(1);
       46    11810        /***** Mail structures *****/
       47    11811          %VM_ADDTYPES;
       48    11815          %VM_ADD_HEAD;
       49    11844          %VM_UADDRESS (STCLASS=AUTO);
       50    11881        /***** Based structures *****/
       51    11882          %PARSE$OUT (NAME=P$B,STCLASS=BASED);
       52    11927          %PARSE$SYM (NAME=P$S,STCLASS=BASED);
       53    11965        /***** External routines *****/
       54    11966    1   DCL VMA$ADD_RENTRY ENTRY(6) ALTRET;
       55    11967    1   DCL VMA$ADD_UENTRY ENTRY(6) ALTRET;
       56    11968    1   DCL VMA$EXPAND_LIST ENTRY(5) ALTRET;
       57    11969    1   DCL VMA$EXPAND_LIST_GLOBAL ENTRY(5) ALTRET;
       58    11970    1   DCL VMA$ERRMSG ENTRY(5);
       59    11971    1   DCL VMA$GET_SITE_NAME ENTRY(4) ALTRET;
       60    11972        /***** Local variables *****/
       61    11973    1   DCL BLK1$ PTR STATIC;
       62    11974    1   DCL BLK2$ PTR STATIC;
       63    11975    1   DCL DOMAIN$ PTR;
       64    11976    1   DCL SITE$ PTR;
       65    11977    1   DCL SITETYPE UBIN;
       66    11978    1   DCL INDX1 SBIN WORD STATIC;
       67    11979    1   DCL INDX2 SBIN WORD STATIC;
       68    11980         %VLP_SN (FPTN=PSID,STCLASS=STATIC,N=1);
       69    11993          %VLP_ACCT (FPTN=ACCT,STCLASS=STATIC);
PL6.E3A0      #001=VMA$ADDRESS File=VMA$SUBR.:VMB6TSI                            WED 08/20/97 15:01 Page:16
       70    12006          %VLP_NAME (FPTN=NAME,LEN=%SIZ_LISTNAME,STCLASS=STATIC);
       71    12033    1   DCL FOLDER CHAR(%SIZ_FOLDER) STATIC;
       72    12034          %VLP_PASS (FPTN=PASSWORD,STCLASS=STATIC);
       73    12047    1   DCL SITENAME CHAR(%SIZ_SITENAME) STATIC;
       74    12048          %VLP_NAME (FPTN=ERR_TEXT,LEN=31,NAME=' ');
       75    12075    1   DCL SITE CHAR(8) STATIC;
       76    12076        /***** Error codes *****/
       77    12077          %VLP_ERRCODE (FPTN=E_BADWSN,FCG="VM",MID="A",
       78    12078                        ERR#=%E$BADWSN,STCLASS=CONSTANT);
       79    12123        /*E*    ERROR: VMA-E$BADWSN-0
       80    12124                MESSAGE: Site %U1 is undefined.
       81    12125        */
       82    12126              %VLP_ERRCODE (FPTN=E_BADDOMAIN, FCG="VM", MID="A",
       83    12127              ERR#=%E$BADDOMAIN, STCLASS=CONSTANT);
       84    12172        /*E*  ERROR: VMA-E$BADDOMAIN-0
       85    12173              MESSAGE: Domain %U1 is unknown or illegal.
       86    12174        */
       87    12175              %VLP_ERRCODE (FPTN=E_PSIDFOLDERTOOLONG,FCG="VM",MID="A",
       88    12176              ERR#=%E$PSIDFOLDERTOOLONG,STCLASS=CONSTANT);
       89    12221        /*E*     ERROR: VMA-E$PSIDFOLDERTOOLONG
       90    12222                 MESSAGE: This folder name is too long.  For mailboxes stored in
       91    12223                          nonpublic accounts, the length of the folder name may not
       92    12224                          exceed 18 characters.
       93    12225        */
       94    12226        %EJECT;
PL6.E3A0      #001=VMA$ADDRESS File=VMA$SUBR.:VMB6TSI                            WED 08/20/97 15:01 Page:17
       95    12227        /*
       96    12228             ***** Initialize VM_ADD_HEAD ...
       97    12229        */
       98    12230    1         VM_ADD_HEAD.NUM_ENTRIES = 0;

  12230 13 000002   000000 470400 xsym               LDP0    VM_ADDLIST$
        13 000003   000001 450100                    STZ     1,,PR0

       99    12231    1       VM_ADD_HEAD.FLAGS = %NO#;

  12231 13 000004   000002 450100                    STZ     2,,PR0

      100    12232        /*
      101    12233             ***** Expand an address list ...
      102    12234        */
      103    12235    2       DO INDX1 = 0 TO TREE$ -> P$B.NSUBLKS - 1;

  12235 13 000005   000002 450000 11                 STZ     INDX1
        13 000006   000653 710000 13                 TRA     s:12418+1

      104    12236    2           BLK1$ = TREE$ -> P$B.SUBLK$(INDX1);

  12236 13 000007   200003 470500                    LDP0    @TREE$,,AUTO
        13 000010   000000 471500                    LDP1    0,,PR0
        13 000011   000002 720000 11                 LXL0    INDX1
        13 000012   100003 236110                    LDQ     3,X0,PR1
        13 000013   000000 756000 11                 STQ     BLK1$

      105    12237        /*
      106    12238             ***** Init acct, USER_NAME, folder, password and sitename ...
      107    12239        */
      108    12240    2           PSID.SN#(0) = ' ';

  12240 13 000014   040000 100400                    MLR     fill='040'O
        13 000015   000000 000001 14                 ADSC9   0                        cn=0,n=1
        13 000016   000005 000006 11                 ADSC9   PSID+1                   cn=0,n=6

PL6.E3A0      #001=VMA$ADDRESS File=VMA$SUBR.:VMB6TSI                            WED 08/20/97 15:01 Page:18
      109    12241    2           ACCT.ACCT# = ' ';

  12241 13 000017   000000 235000 14                 LDA     0
        13 000020   000000 236000 14                 LDQ     0
        13 000021   000010 757000 11                 STAQ    ACCT

      110    12242    2           NAME.L# = 0;

  12242 13 000022   000000 236003                    LDQ     0,DU
        13 000023   000012 552040 11                 STBQ    NAME,'40'O

      111    12243    2           NAME.NAME# = ' ';

  12243 13 000024   040000 100400                    MLR     fill='040'O
        13 000025   000000 000001 14                 ADSC9   0                        cn=0,n=1
        13 000026   000012 200310 11                 ADSC9   NAME                     cn=1,n=200

      112    12244    2           PASSWORD.PASS# = ' ';

  12244 13 000027   000000 235000 14                 LDA     0
        13 000030   000000 236000 14                 LDQ     0
        13 000031   000104 757000 11                 STAQ    PASSWORD

      113    12245    2           SITENAME = ' ';

  12245 13 000032   000000 235000 14                 LDA     0
        13 000033   000000 236000 14                 LDQ     0
        13 000034   000106 757000 11                 STAQ    SITENAME

      114    12246    2           SITE = ' ';

  12246 13 000035   000000 235000 14                 LDA     0
        13 000036   000000 236000 14                 LDQ     0
        13 000037   000120 757000 11                 STAQ    SITE

      115    12247    2           DOMAIN$ = ADDR(NIL);

PL6.E3A0      #001=VMA$ADDRESS File=VMA$SUBR.:VMB6TSI                            WED 08/20/97 15:01 Page:19
  12247 13 000040   000001 236000 14                 LDQ     1
        13 000041   200114 756100                    STQ     DOMAIN$,,AUTO

      116    12248    2           SITE$ = ADDR(NIL);

  12248 13 000042   200115 756100                    STQ     SITE$,,AUTO

      117    12249    2           FOLDER = ' ';

  12249 13 000043   040000 100400                    MLR     fill='040'O
        13 000044   000000 000001 14                 ADSC9   0                        cn=0,n=1
        13 000045   000075 000031 11                 ADSC9   FOLDER                   cn=0,n=25

      118    12250        /**/
      119    12251    3           DO INDX2 = 0 TO BLK1$ -> P$B.NSUBLKS - 1;

  12251 13 000046   000003 450000 11                 STZ     INDX2
        13 000047   000144 710000 13                 TRA     s:12270+1

      120    12252    3               BLK2$ = BLK1$ -> P$B.SUBLK$(INDX2);

  12252 13 000050   000000 470400 11                 LDP0    BLK1$
        13 000051   000003 720000 11                 LXL0    INDX2
        13 000052   000003 236110                    LDQ     3,X0,PR0
        13 000053   000001 756000 11                 STQ     BLK2$

      121    12253    4               DO CASE (BLK2$ -> P$B.CODE);

  12253 13 000054   000001 471400 11                 LDP1    BLK2$
        13 000055   100000 721100                    LXL1    0,,PR1
        13 000056   000012 101003                    CMPX1   10,DU
        13 000057   000061 602011 13                 TNC     s:12253+5,X1
        13 000060   000143 710000 13                 TRA     s:12270
        13 000061   000143 710000 13                 TRA     s:12270
        13 000062   000143 710000 13                 TRA     s:12270
        13 000063   000073 710000 13                 TRA     s:12255
        13 000064   000111 710000 13                 TRA     s:12259
PL6.E3A0      #001=VMA$ADDRESS File=VMA$SUBR.:VMB6TSI                            WED 08/20/97 15:01 Page:20
        13 000065   000120 710000 13                 TRA     s:12261
        13 000066   000131 710000 13                 TRA     s:12264
        13 000067   000140 710000 13                 TRA     s:12266
        13 000070   000143 710000 13                 TRA     s:12270
        13 000071   000102 710000 13                 TRA     s:12257
        13 000072   000142 710000 13                 TRA     s:12268

      122    12254    4               CASE (%ADD_ACCT);

      123    12255    4                   ACCT.ACCT# = BLK2$ -> P$S.TEXT;

  12255 13 000073   100004 236100                    LDQ     4,,PR1
        13 000074   000033 772000                    QRL     27
        13 000075   000000 622006                    EAX2    0,QL
        13 000076   040000 100540                    MLR     fill='040'O
        13 000077   100004 200012                    ADSC9   4,,PR1                   cn=1,n=*X2
        13 000100   000010 000010 11                 ADSC9   ACCT                     cn=0,n=8
        13 000101   000143 710000 13                 TRA     s:12270

      124    12256    4               CASE(%ADD_PSID);

      125    12257    4                   PSID.SN#(0) = BLK2$ -> P$S.TEXT;

  12257 13 000102   100004 236100                    LDQ     4,,PR1
        13 000103   000033 772000                    QRL     27
        13 000104   000000 622006                    EAX2    0,QL
        13 000105   040000 100540                    MLR     fill='040'O
        13 000106   100004 200012                    ADSC9   4,,PR1                   cn=1,n=*X2
        13 000107   000005 000006 11                 ADSC9   PSID+1                   cn=0,n=6
        13 000110   000143 710000 13                 TRA     s:12270

      126    12258    4               CASE (%ADD_FOLDER);

      127    12259    4                   FOLDER = BLK2$ -> P$S.TEXT;

  12259 13 000111   100004 236100                    LDQ     4,,PR1
        13 000112   000033 772000                    QRL     27
PL6.E3A0      #001=VMA$ADDRESS File=VMA$SUBR.:VMB6TSI                            WED 08/20/97 15:01 Page:21
        13 000113   000000 622006                    EAX2    0,QL
        13 000114   040000 100540                    MLR     fill='040'O
        13 000115   100004 200012                    ADSC9   4,,PR1                   cn=1,n=*X2
        13 000116   000075 000031 11                 ADSC9   FOLDER                   cn=0,n=25
        13 000117   000143 710000 13                 TRA     s:12270

      128    12260    4               CASE (%ADD_NAME);

      129    12261    4                   NAME.L# = BLK2$ -> P$S.COUNT;

  12261 13 000120   100004 236100                    LDQ     4,,PR1
        13 000121   000012 552040 11                 STBQ    NAME,'40'O

      130    12262    4                   NAME.NAME# = BLK2$ -> P$S.TEXT;

  12262 13 000122   100004 236100                    LDQ     4,,PR1
        13 000123   000033 772000                    QRL     27
        13 000124   000000 622006                    EAX2    0,QL
        13 000125   040000 100540                    MLR     fill='040'O
        13 000126   100004 200012                    ADSC9   4,,PR1                   cn=1,n=*X2
        13 000127   000012 200310 11                 ADSC9   NAME                     cn=1,n=200
        13 000130   000143 710000 13                 TRA     s:12270

      131    12263    4               CASE (%ADD_PASS);

      132    12264    4                   PASSWORD.PASS# = BLK2$ -> P$S.TEXT;

  12264 13 000131   100004 236100                    LDQ     4,,PR1
        13 000132   000033 772000                    QRL     27
        13 000133   000000 622006                    EAX2    0,QL
        13 000134   040000 100540                    MLR     fill='040'O
        13 000135   100004 200012                    ADSC9   4,,PR1                   cn=1,n=*X2
        13 000136   000104 000010 11                 ADSC9   PASSWORD                 cn=0,n=8
        13 000137   000143 710000 13                 TRA     s:12270

      133    12265    4               CASE (%ADD_SITE);

PL6.E3A0      #001=VMA$ADDRESS File=VMA$SUBR.:VMB6TSI                            WED 08/20/97 15:01 Page:22
      134    12266    4                   SITE$ = BLK2$;

  12266 13 000140   200115 756100                    STQ     SITE$,,AUTO
        13 000141   000143 710000 13                 TRA     s:12270

      135    12267    4               CASE (%ADD_DOMAIN);

      136    12268    4                   DOMAIN$ = BLK2$;

  12268 13 000142   200114 756100                    STQ     DOMAIN$,,AUTO

      137    12269    4               END;                  /* Do case ... end */

      138    12270    3           END;                       /* Do INDX2 ... end */

  12270 13 000143   000003 054000 11                 AOS     INDX2
        13 000144   000000 470400 11                 LDP0    BLK1$
        13 000145   000001 236100                    LDQ     1,,PR0
        13 000146   000022 772000                    QRL     18
        13 000147   000003 116000 11                 CMPQ    INDX2
        13 000150   000050 605400 13                 TPNZ    s:12252

      139    12271        /*
      140    12272              ***** Check to make sure that the folder name and packset id don't
      141    12273                    collide.
      142    12274        */
      143    12275
      144    12276    2           IF PSID.SN#(0) ~= ' '

  12276 13 000151   040000 106400                    CMPC    fill='040'O
        13 000152   000005 000006 11                 ADSC9   PSID+1                   cn=0,n=6
        13 000153   000000 000001 14                 ADSC9   0                        cn=0,n=1
        13 000154   000177 600000 13                 TZE     s:12300

      145    12277    3           THEN DO;

      146    12278
PL6.E3A0      #001=VMA$ADDRESS File=VMA$SUBR.:VMB6TSI                            WED 08/20/97 15:01 Page:23
      147    12279    3               VM_UADDRESS.FOLDER = FOLDER;

  12279 13 000155   040100 100400                    MLR     fill='040'O
        13 000156   000075 000031 11                 ADSC9   FOLDER                   cn=0,n=25
        13 000157   200017 400031                    ADSC9   VM_UADDRESS+7,,AUTO      cn=2,n=25

      148    12280
      149    12281    3               IF VM_UADDRESS.NOMAD.DELIM ~= ' '

  12281 13 000160   200024 236100                    LDQ     VM_UADDRESS+12,,AUTO
        13 000161   777000 376003                    ANQ     -512,DU
        13 000162   040000 116003                    CMPQ    16384,DU
        13 000163   000171 600000 13                 TZE     s:12289

      150    12282    4               THEN DO;

      151    12283
      152    12284    4                   CALL VMA$ERRMSG (E_PSIDFOLDERTOOLONG);

  12284 13 000164   000003 630400 14                 EPPR0   3
        13 000165   000002 631400 14                 EPPR1   2
        13 000166   000000 701000 xent               TSX1    VMA$ERRMSG
        13 000167   000000 011000                    NOP     0

      153    12285    4                   GOTO ERR;

  12285 13 000170   000647 710000 13                 TRA     ERR

      154    12286
      155    12287    4               END;
      156    12288
      157    12289    3               VM_UADDRESS.NOMAD.PSID = PSID.SN#(0);

  12289 13 000171   040100 100400                    MLR     fill='040'O
        13 000172   000005 000006 11                 ADSC9   PSID+1                   cn=0,n=6
        13 000173   200024 200006                    ADSC9   VM_UADDRESS+12,,AUTO     cn=1,n=6

PL6.E3A0      #001=VMA$ADDRESS File=VMA$SUBR.:VMB6TSI                            WED 08/20/97 15:01 Page:24
      158    12290    3               FOLDER = VM_UADDRESS.FOLDER;

  12290 13 000174   040000 100500                    MLR     fill='040'O
        13 000175   200017 400031                    ADSC9   VM_UADDRESS+7,,AUTO      cn=2,n=25
        13 000176   000075 000031 11                 ADSC9   FOLDER                   cn=0,n=25

      159    12291
      160    12292    3           END;

      161    12293
      162    12294        /*
      163    12295              ***** If a domain was specified, check to make sure that the outermost
      164    12296                    subdomain can be mapped into a node name;  reject otherwise.  Then
      165    12297                    map the domain-name structure into the corresponding CP-6
      166    12298                    equivalent (e.g. "name@sd1.sd2.sd3" -> "name%sd1.sd2@sd3").
      167    12299        */
      168    12300    2           IF DOMAIN$ ~= ADDR(NIL)

  12300 13 000177   200114 236100                    LDQ     DOMAIN$,,AUTO
        13 000200   000001 116000 14                 CMPQ    1
        13 000201   000360 600000 13                 TZE     s:12330

      169    12301    3           THEN DO;

      170    12302    3               SITE$ = DOMAIN$ -> P$B.SUBLK$(DOMAIN$ -> P$B.NSUBLKS - 1);

  12302 13 000202   200114 471500                    LDP1    DOMAIN$,,AUTO
        13 000203   100001 220100                    LDX0    1,,PR1
        13 000204   100002 236110                    LDQ     2,X0,PR1
        13 000205   200115 756100                    STQ     SITE$,,AUTO

      171    12303    3               IF SITE$ -> P$S.COUNT > LENGTHC(SITENAME)

  12303 13 000206   200115 473500                    LDP3    SITE$,,AUTO
        13 000207   300004 236100                    LDQ     4,,PR3
        13 000210   777000 376003                    ANQ     -512,DU
        13 000211   011000 116003                    CMPQ    4608,DU
PL6.E3A0      #001=VMA$ADDRESS File=VMA$SUBR.:VMB6TSI                            WED 08/20/97 15:01 Page:25
        13 000212   000252 602000 13                 TNC     s:12317

      172    12304    4               THEN DO;

      173    12305    4                   IF SITE$ -> P$S.COUNT < 32

  12305 13 000213   040000 116003                    CMPQ    16384,DU
        13 000214   000226 603000 13                 TRC     s:12311

      174    12306    5                   THEN DO;

      175    12307    5                       ERR_TEXT.NAME# = SITE$ -> P$S.TEXT;

  12307 13 000215   300004 236100                    LDQ     4,,PR3
        13 000216   000033 772000                    QRL     27
        13 000217   000000 621006                    EAX1    0,QL
        13 000220   040000 100540                    MLR     fill='040'O
        13 000221   300004 200011                    ADSC9   4,,PR3                   cn=1,n=*X1
        13 000222   000110 200037 11                 ADSC9   ERR_TEXT                 cn=1,n=31

      176    12308    5                       ERR_TEXT.L# = SITE$ -> P$S.COUNT;

  12308 13 000223   300004 236100                    LDQ     4,,PR3
        13 000224   000110 552040 11                 STBQ    ERR_TEXT,'40'O

      177    12309    5                   END;

  12309 13 000225   000240 710000 13                 TRA     s:12314

      178    12310    5                   ELSE DO;

      179    12311    5                       CALL CONCAT (ERR_TEXT.NAME#, SUBSTR (SITE$ -> P$S.TEXT, 0, 28),
             12311                                '...');

  12311 13 000226   300004 236100                    LDQ     4,,PR3
        13 000227   000033 772000                    QRL     27
        13 000230   040000 100500                    MLR     fill='040'O
PL6.E3A0      #001=VMA$ADDRESS File=VMA$SUBR.:VMB6TSI                            WED 08/20/97 15:01 Page:26
        13 000231   300004 200034                    ADSC9   4,,PR3                   cn=1,n=28
        13 000232   000110 200034 11                 ADSC9   ERR_TEXT                 cn=1,n=28
        13 000233   000003 236000 12                 LDQ     E_PSIDFOLDERTOOLONG+1
        13 000234   000011 772000                    QRL     9
        13 000235   000117 552034 11                 STBQ    ERR_TEXT+7,'34'O

      180    12312    5                       ERR_TEXT.L# = 31;

  12312 13 000236   037000 236003                    LDQ     15872,DU
        13 000237   000110 552040 11                 STBQ    ERR_TEXT,'40'O

      181    12313    5                   END;

      182    12314    4                   CALL VMA$ERRMSG (E_BADDOMAIN,,VECTOR(ERR_TEXT));

  12314 13 000240   000007 236000 14                 LDQ     7
        13 000241   200122 756100                    STQ     SITETYPE+4,,AUTO
        13 000242   000001 236000 14                 LDQ     1
        13 000243   000010 235000 14                 LDA     8
        13 000244   200120 757100                    STAQ    SITETYPE+2,,AUTO
        13 000245   200120 630500                    EPPR0   SITETYPE+2,,AUTO
        13 000246   000006 631400 14                 EPPR1   6
        13 000247   000000 701000 xent               TSX1    VMA$ERRMSG
        13 000250   000000 011000                    NOP     0

      183    12315    4                   GOTO ERR;

  12315 13 000251   000647 710000 13                 TRA     ERR

      184    12316    4               END;
      185    12317    4               DO INDX2 = 0 TO DOMAIN$ -> P$B.NSUBLKS - 2;

  12317 13 000252   000003 450000 11                 STZ     INDX2
        13 000253   000352 710000 13                 TRA     s:12324+1

      186    12318    4                   IF INDX2 = 0

PL6.E3A0      #001=VMA$ADDRESS File=VMA$SUBR.:VMB6TSI                            WED 08/20/97 15:01 Page:27
  12318 13 000254   000003 235000 11                 LDA     INDX2
        13 000255   000307 601000 13                 TNZ     s:12322

      187    12319    4                   THEN
      188    12320    4                       CALL INSERT (NAME.NAME#, NAME.L#, , '%', DOMAIN$ -> P$B.SUBLK$(
             12320                                INDX2) -> P$S.TEXT);

  12320 13 000256   200114 470500                    LDP0    DOMAIN$,,AUTO
        13 000257   000003 471505                    LDP1    3,AL,PR0
        13 000260   000003 720000 11                 LXL0    INDX2
        13 000261   000003 473510                    LDP3    3,X0,PR0
        13 000262   100004 236100                    LDQ     4,,PR1
        13 000263   000033 772000                    QRL     27
        13 000264   000000 621006                    EAX1    0,QL
        13 000265   000012 236000 11                 LDQ     NAME
        13 000266   000033 772000                    QRL     27
        13 000267   777467 622006                    EAX2    -201,QL
        13 000270   777777 662003                    ERX2    -1,DU
        13 000271   040046 100400                    MLR     fill='040'O
        13 000272   000011 000001 14                 ADSC9   9                        cn=0,n=1
        13 000273   000012 200012 11                 ADSC9   NAME,Q                   cn=1,n=*X2
        13 000274   200120 756100                    STQ     SITETYPE+2,,AUTO
        13 000275   000000 636012                    EAQ     0,X2
        13 000276   000022 772000                    QRL     18
        13 000277   000002 116007                    CMPQ    2,DL
        13 000300   000306 602000 13                 TNC     s:12320+24
        13 000301   777777 623012                    EAX3    -1,X2
        13 000302   200120 235100                    LDA     SITETYPE+2,,AUTO
        13 000303   040045 100540                    MLR     fill='040'O
        13 000304   300004 200011                    ADSC9   4,,PR3                   cn=1,n=*X1
        13 000305   000012 400013 11                 ADSC9   NAME,A                   cn=2,n=*X3
        13 000306   000337 710000 13                 TRA     s:12323

      189    12321    4                   ELSE
      190    12322    4                       CALL INSERT (NAME.NAME#, NAME.L#, , '.', DOMAIN$ -> P$B.SUBLK$(
             12322                                INDX2) -> P$S.TEXT);

PL6.E3A0      #001=VMA$ADDRESS File=VMA$SUBR.:VMB6TSI                            WED 08/20/97 15:01 Page:28
  12322 13 000307   200114 470500                    LDP0    DOMAIN$,,AUTO
        13 000310   000003 471505                    LDP1    3,AL,PR0
        13 000311   000003 720000 11                 LXL0    INDX2
        13 000312   000003 473510                    LDP3    3,X0,PR0
        13 000313   100004 236100                    LDQ     4,,PR1
        13 000314   000033 772000                    QRL     27
        13 000315   000000 621006                    EAX1    0,QL
        13 000316   000012 236000 11                 LDQ     NAME
        13 000317   000033 772000                    QRL     27
        13 000320   777467 622006                    EAX2    -201,QL
        13 000321   777777 662003                    ERX2    -1,DU
        13 000322   040046 100400                    MLR     fill='040'O
        13 000323   000012 000001 14                 ADSC9   10                       cn=0,n=1
        13 000324   000012 200012 11                 ADSC9   NAME,Q                   cn=1,n=*X2
        13 000325   200120 756100                    STQ     SITETYPE+2,,AUTO
        13 000326   000000 636012                    EAQ     0,X2
        13 000327   000022 772000                    QRL     18
        13 000330   000002 116007                    CMPQ    2,DL
        13 000331   000337 602000 13                 TNC     s:12323
        13 000332   777777 623012                    EAX3    -1,X2
        13 000333   200120 235100                    LDA     SITETYPE+2,,AUTO
        13 000334   040045 100540                    MLR     fill='040'O
        13 000335   300004 200011                    ADSC9   4,,PR3                   cn=1,n=*X1
        13 000336   000012 400013 11                 ADSC9   NAME,A                   cn=2,n=*X3

      191    12323    4                   NAME.L# = NAME.L# + DOMAIN$ -> P$B.SUBLK$(INDX2) -> P$S.COUNT + 1;

  12323 13 000337   000003 471510                    LDP1    3,X0,PR0
        13 000340   100004 236100                    LDQ     4,,PR1
        13 000341   000033 772000                    QRL     27
        13 000342   200120 756100                    STQ     SITETYPE+2,,AUTO
        13 000343   000012 236000 11                 LDQ     NAME
        13 000344   000033 772000                    QRL     27
        13 000345   200120 036100                    ADLQ    SITETYPE+2,,AUTO
        13 000346   000001 036007                    ADLQ    1,DL
        13 000347   000033 736000                    QLS     27
        13 000350   000012 552040 11                 STBQ    NAME,'40'O
PL6.E3A0      #001=VMA$ADDRESS File=VMA$SUBR.:VMB6TSI                            WED 08/20/97 15:01 Page:29

      192    12324    4               END;

  12324 13 000351   000003 054000 11                 AOS     INDX2
        13 000352   200114 470500                    LDP0    DOMAIN$,,AUTO
        13 000353   000001 236100                    LDQ     1,,PR0
        13 000354   000022 772000                    QRL     18
        13 000355   000002 136007                    SBLQ    2,DL
        13 000356   000003 116000 11                 CMPQ    INDX2
        13 000357   000254 605000 13                 TPL     s:12318

      193    12325    3           END;

      194    12326        /*
      195    12327             ***** If a sitename was specified,
      196    12328                   verify that it is legal ...
      197    12329        */
      198    12330    2           IF SITE$ ~= ADDR(NIL)

  12330 13 000360   200115 236100                    LDQ     SITE$,,AUTO
        13 000361   000001 116000 14                 CMPQ    1
        13 000362   000465 600000 13                 TZE     s:12364

      199    12331    3           THEN DO;

      200    12332    3               SITENAME = SITE$ -> P$S.TEXT;

  12332 13 000363   200115 470500                    LDP0    SITE$,,AUTO
        13 000364   000004 236100                    LDQ     4,,PR0
        13 000365   000033 772000                    QRL     27
        13 000366   000000 620006                    EAX0    0,QL
        13 000367   040000 100540                    MLR     fill='040'O
        13 000370   000004 200010                    ADSC9   4,,PR0                   cn=1,n=*X0
        13 000371   000106 000010 11                 ADSC9   SITENAME                 cn=0,n=8

      201    12333    3               CALL XLATE (SITE, LOWER_UPPER, SITENAME);

PL6.E3A0      #001=VMA$ADDRESS File=VMA$SUBR.:VMB6TSI                            WED 08/20/97 15:01 Page:30
  12333 13 000372   000000 471400 xsym               LDP1    B$XL_UPPER$
        13 000373   040000 160400                    MVT     fill='040'O
        13 000374   000106 000010 11                 ADSC9   SITENAME                 cn=0,n=8
        13 000375   000120 000010 11                 ADSC9   SITE                     cn=0,n=8
        13 000376   100000 000100                    ARG     0,,PR1

      202    12334    3               IF SITE = VM_SITENAME

  12334 13 000377   040000 106400                    CMPC    fill='040'O
        13 000400   000120 000010 11                 ADSC9   SITE                     cn=0,n=8
        13 000401   000000 000010 xsym               ADSC9   VM_SITENAME              cn=0,n=8
        13 000402   000407 601000 13                 TNZ     s:12341

      203    12335    3               THEN
      204    12336    3                   IF DOMAIN$ ~= ADDR(NIL)

  12336 13 000403   200114 236100                    LDQ     DOMAIN$,,AUTO
        13 000404   000001 116000 14                 CMPQ    1
        13 000405   000420 601000 13                 TNZ     BAD_SITE
        13 000406   000465 710000 13                 TRA     s:12364

      205    12337    3                   THEN
      206    12338    3                       GOTO BAD_SITE;
      207    12339    3                   ELSE;
      208    12340    4               ELSE DO;

      209    12341    4                   CALL VMA$GET_SITE_NAME (SITENAME, SITE, SITETYPE)

  12341 13 000407   200116 633500                    EPPR3   SITETYPE,,AUTO
        13 000410   200122 453500                    STP3    SITETYPE+4,,AUTO
        13 000411   000014 237000 14                 LDAQ    12
        13 000412   200120 757100                    STAQ    SITETYPE+2,,AUTO
        13 000413   200120 630500                    EPPR0   SITETYPE+2,,AUTO
        13 000414   000006 631400 14                 EPPR1   6
        13 000415   000000 701000 xent               TSX1    VMA$GET_SITE_NAME
        13 000416   000420 702000 13                 TSX2    BAD_SITE
        13 000417   000455 710000 13                 TRA     s:12352
PL6.E3A0      #001=VMA$ADDRESS File=VMA$SUBR.:VMB6TSI                            WED 08/20/97 15:01 Page:31

      210    12342    5                   WHENALTRETURN DO;

      211    12343    5   BAD_SITE:           ERR_TEXT.NAME# = SITENAME;

  12343 13 000420   040000 100400       BAD_SITE     MLR     fill='040'O
        13 000421   000106 000010 11                 ADSC9   SITENAME                 cn=0,n=8
        13 000422   000110 200037 11                 ADSC9   ERR_TEXT                 cn=1,n=31

      212    12344    5                       ERR_TEXT.L# = SITE$ -> P$S.COUNT;

  12344 13 000423   200115 470500                    LDP0    SITE$,,AUTO
        13 000424   000004 236100                    LDQ     4,,PR0
        13 000425   000110 552040 11                 STBQ    ERR_TEXT,'40'O

      213    12345    5                       IF DOMAIN$ = ADDR(NIL)

  12345 13 000426   200114 236100                    LDQ     DOMAIN$,,AUTO
        13 000427   000001 116000 14                 CMPQ    1
        13 000430   000443 601000 13                 TNZ     s:12349

      214    12346    5                       THEN
      215    12347    5                           CALL VMA$ERRMSG (E_BADWSN,,VECTOR(ERR_TEXT));

  12347 13 000431   000007 236000 14                 LDQ     7
        13 000432   200122 756100                    STQ     SITETYPE+4,,AUTO
        13 000433   000001 236000 14                 LDQ     1
        13 000434   000013 235000 14                 LDA     11
        13 000435   200120 757100                    STAQ    SITETYPE+2,,AUTO
        13 000436   200120 630500                    EPPR0   SITETYPE+2,,AUTO
        13 000437   000006 631400 14                 EPPR1   6
        13 000440   000000 701000 xent               TSX1    VMA$ERRMSG
        13 000441   000000 011000                    NOP     0
        13 000442   000454 710000 13                 TRA     s:12350

      216    12348    5                       ELSE
      217    12349    5                           CALL VMA$ERRMSG (E_BADDOMAIN,,VECTOR(ERR_TEXT));
PL6.E3A0      #001=VMA$ADDRESS File=VMA$SUBR.:VMB6TSI                            WED 08/20/97 15:01 Page:32

  12349 13 000443   000007 236000 14                 LDQ     7
        13 000444   200122 756100                    STQ     SITETYPE+4,,AUTO
        13 000445   000001 236000 14                 LDQ     1
        13 000446   000010 235000 14                 LDA     8
        13 000447   200120 757100                    STAQ    SITETYPE+2,,AUTO
        13 000450   200120 630500                    EPPR0   SITETYPE+2,,AUTO
        13 000451   000006 631400 14                 EPPR1   6
        13 000452   000000 701000 xent               TSX1    VMA$ERRMSG
        13 000453   000000 011000                    NOP     0

      218    12350    5                       GOTO ERR;

  12350 13 000454   000647 710000 13                 TRA     ERR

      219    12351    5                   END;
      220    12352    5                   if SITETYPE ~= %N_EXTERNAL# then do;

  12352 13 000455   200116 235100                    LDA     SITETYPE,,AUTO
        13 000456   000157 115007                    CMPA    111,DL
        13 000457   000465 600000 13                 TZE     s:12364

      221    12353    5                       SITENAME = SITE;

  12353 13 000460   000120 237000 11                 LDAQ    SITE
        13 000461   000106 757000 11                 STAQ    SITENAME

      222    12354    5                       if DOMAIN$ ~= ADDR(NIL)

  12354 13 000462   200114 236100                    LDQ     DOMAIN$,,AUTO
        13 000463   000001 116000 14                 CMPQ    1
        13 000464   000420 601000 13                 TNZ     BAD_SITE

      223    12355    5                       THEN
      224    12356    5                           GOTO BAD_SITE;
      225    12357    5                   end; /* if sitetype ~= external site */

PL6.E3A0      #001=VMA$ADDRESS File=VMA$SUBR.:VMB6TSI                            WED 08/20/97 15:01 Page:33
      226    12358    4               END;

      227    12359    3           END;

      228    12360        /*
      229    12361             ***** If neither an account nor user name was specified,
      230    12362                   then fill in the apropriate default information ...
      231    12363        */
      232    12364    2           IF ACCT.ACCT# = ' '

  12364 13 000465   000010 237000 11                 LDAQ    ACCT
        13 000466   000016 117000 14                 CMPAQ   14
        13 000467   000540 601000 13                 TNZ     s:12386
        13 000470   040000 106400                    CMPC    fill='040'O
        13 000471   000012 200310 11                 ADSC9   NAME                     cn=1,n=200
        13 000472   000000 000001 14                 ADSC9   0                        cn=0,n=1
        13 000473   000540 601000 13                 TNZ     s:12386

      233    12365    2             AND NAME.NAME# = ' '
      234    12366    2           THEN                       /* Fill in default */
      235    12367    3           DO;

      236    12368    3               IF SUBSTR(USER_NAME.TEXT,0,1) = '.'

  12368 13 000474   200004 470500                    LDP0    @USER_NAME,,AUTO
        13 000475   000100 101500                    MRL     fill='000'O
        13 000476   000000 000001                    ADSC9   0,,PR0                   cn=0,n=1
        13 000477   200120 000002                    ADSC9   SITETYPE+2,,AUTO         cn=0,n=2
        13 000500   200120 220100                    LDX0    SITETYPE+2,,AUTO
        13 000501   040000 106500                    CMPC    fill='040'O
        13 000502   000000 200001                    ADSC9   0,,PR0                   cn=1,n=1
        13 000503   000012 000001 14                 ADSC9   10                       cn=0,n=1
        13 000504   000523 601000 13                 TNZ     s:12377

      237    12369    3               THEN            /* User is not registered */
      238    12370    4               DO;

PL6.E3A0      #001=VMA$ADDRESS File=VMA$SUBR.:VMB6TSI                            WED 08/20/97 15:01 Page:34
      239    12371    4                   ACCT.ACCT# = SUBSTR(USER_NAME.TEXT,1);

  12371 13 000505   000100 101500                    MRL     fill='000'O
        13 000506   000000 000001                    ADSC9   0,,PR0                   cn=0,n=1
        13 000507   200120 000002                    ADSC9   SITETYPE+2,,AUTO         cn=0,n=2
        13 000510   200120 220100                    LDX0    SITETYPE+2,,AUTO
        13 000511   777777 621010                    EAX1    -1,X0
        13 000512   040000 100540                    MLR     fill='040'O
        13 000513   000000 400011                    ADSC9   0,,PR0                   cn=2,n=*X1
        13 000514   000010 000010 11                 ADSC9   ACCT                     cn=0,n=8

      240    12372    4                   NAME.L# = 0;

  12372 13 000515   000000 236003                    LDQ     0,DU
        13 000516   000012 552040 11                 STBQ    NAME,'40'O

      241    12373    4                   NAME.NAME# = ' ';

  12373 13 000517   040000 100400                    MLR     fill='040'O
        13 000520   000000 000001 14                 ADSC9   0                        cn=0,n=1
        13 000521   000012 200310 11                 ADSC9   NAME                     cn=1,n=200

      242    12374    4               END;

  12374 13 000522   000540 710000 13                 TRA     s:12386

      243    12375    3               ELSE            /* User is registered */
      244    12376    4               DO;

      245    12377    4                   ACCT.ACCT# = ' ';

  12377 13 000523   000000 235000 14                 LDA     0
        13 000524   000000 236000 14                 LDQ     0
        13 000525   000010 757000 11                 STAQ    ACCT

      246    12378    4                   NAME.L# = USER_NAME.SIZ;

PL6.E3A0      #001=VMA$ADDRESS File=VMA$SUBR.:VMB6TSI                            WED 08/20/97 15:01 Page:35
  12378 13 000526   000000 100500                    MLR     fill='000'O
        13 000527   000000 000001                    ADSC9   0,,PR0                   cn=0,n=1
        13 000530   000012 000001 11                 ADSC9   NAME                     cn=0,n=1

      247    12379    4                   NAME.NAME# = USER_NAME.TEXT;

  12379 13 000531   000100 101500                    MRL     fill='000'O
        13 000532   000000 000001                    ADSC9   0,,PR0                   cn=0,n=1
        13 000533   200120 000002                    ADSC9   SITETYPE+2,,AUTO         cn=0,n=2
        13 000534   200120 220100                    LDX0    SITETYPE+2,,AUTO
        13 000535   040000 100540                    MLR     fill='040'O
        13 000536   000000 200010                    ADSC9   0,,PR0                   cn=1,n=*X0
        13 000537   000012 200310 11                 ADSC9   NAME                     cn=1,n=200

      248    12380    4               END;

      249    12381    3           END;

      250    12382        /*
      251    12383             ***** If a user name (rather than an account) was specified,
      252    12384                   then resolve and add to address list ...
      253    12385        */
      254    12386    2           IF ACCT.ACCT# = ' '

  12386 13 000540   000010 237000 11                 LDAQ    ACCT
        13 000541   000016 117000 14                 CMPAQ   14
        13 000542   000633 601000 13                 TNZ     s:12408
        13 000543   040000 106400                    CMPC    fill='040'O
        13 000544   000012 200310 11                 ADSC9   NAME                     cn=1,n=200
        13 000545   000000 000001 14                 ADSC9   0                        cn=0,n=1
        13 000546   000633 600000 13                 TZE     s:12408

      255    12387    2             AND NAME.NAME# ~= ' '
      256    12388    2           THEN
      257    12389    3           DO;

      258    12390    3               VM_UADDRESS.FOLDER = FOLDER;
PL6.E3A0      #001=VMA$ADDRESS File=VMA$SUBR.:VMB6TSI                            WED 08/20/97 15:01 Page:36

  12390 13 000547   040100 100400                    MLR     fill='040'O
        13 000550   000075 000031 11                 ADSC9   FOLDER                   cn=0,n=25
        13 000551   200017 400031                    ADSC9   VM_UADDRESS+7,,AUTO      cn=2,n=25

      259    12391    3               VM_UADDRESS.PASS = PASSWORD.PASS#;

  12391 13 000552   040100 100400                    MLR     fill='040'O
        13 000553   000104 000010 11                 ADSC9   PASSWORD                 cn=0,n=8
        13 000554   200025 600010                    ADSC9   VM_UADDRESS+13,,AUTO     cn=3,n=8

      260    12392    3               CALL XLATE (VM_UADDRESS.SITENAME, LOWER_UPPER, SITENAME);

  12392 13 000555   000000 470400 xsym               LDP0    B$XL_UPPER$
        13 000556   040100 160400                    MVT     fill='040'O
        13 000557   000106 000010 11                 ADSC9   SITENAME                 cn=0,n=8
        13 000560   200027 600010                    ADSC9   VM_UADDRESS+15,,AUTO     cn=3,n=8
        13 000561   000000 000100                    ARG     0,,PR0

      261    12393    3               VM_UADDRESS.USER_NAME.COUNT = NAME.L#;

  12393 13 000562   000012 236000 11                 LDQ     NAME
        13 000563   000033 772000                    QRL     27
        13 000564   200031 552104                    STBQ    VM_UADDRESS+17,'04'O,AUTO

      262    12394    3               VM_UADDRESS.USER_NAME.TEXT = NAME.NAME#;

  12394 13 000565   040100 100400                    MLR     fill='040'O
        13 000566   000012 200310 11                 ADSC9   NAME                     cn=1,n=200
        13 000567   200032 000310                    ADSC9   VM_UADDRESS+18,,AUTO     cn=0,n=200

      263    12395    3               IF ADDR(EXPAND_FULL#) ~= ADDR(NIL)

  12395 13 000570   200006 236100                    LDQ     @EXPAND_FULL#,,AUTO
        13 000571   000001 116000 14                 CMPQ    1
        13 000572   000616 600000 13                 TZE     s:12401
        13 000573   200006 471500                    LDP1    @EXPAND_FULL#,,AUTO
PL6.E3A0      #001=VMA$ADDRESS File=VMA$SUBR.:VMB6TSI                            WED 08/20/97 15:01 Page:37
        13 000574   000000 066500                    CMPB    filb='0'B
        13 000575   100000 000001                    BDSC    0,,PR1                   by=0,bit=0,n=1
        13 000576   000020 000022 14                 BDSC    16                       by=0,bit=0,n=18
        13 000577   000616 600000 13                 TZE     s:12401

      264    12396    3                 AND EXPAND_FULL# = %YES#
      265    12397    3               THEN
      266    12398    3                   CALL VMA$EXPAND_LIST_GLOBAL (VM_UADDRESS,VBASE(VM_WORK_),

  12398 13 000600   200007 236100                    LDQ     @EXPAND_USER#,,AUTO
        13 000601   200124 756100                    STQ     SITETYPE+6,,AUTO
        13 000602   000022 236000 14                 LDQ     18
        13 000603   200005 235100                    LDA     @VM_SEARCH_INFO,,AUTO
        13 000604   200122 757100                    STAQ    SITETYPE+4,,AUTO
        13 000605   000023 236000 14                 LDQ     19
        13 000606   200121 756100                    STQ     SITETYPE+3,,AUTO
        13 000607   200010 633500                    EPPR3   VM_UADDRESS,,AUTO
        13 000610   200120 453500                    STP3    SITETYPE+2,,AUTO
        13 000611   200120 630500                    EPPR0   SITETYPE+2,,AUTO
        13 000612   000021 631400 14                 EPPR1   17
        13 000613   000000 701000 xent               TSX1    VMA$EXPAND_LIST_GLOBAL
        13 000614   000666 702000 13                 TSX2    E_PMME
        13 000615   000633 710000 13                 TRA     s:12408

      267    12399    3                     VM_SEARCH_INFO,0,EXPAND_USER#) ALTRET(E_PMME);
      268    12400    3               ELSE
      269    12401    3                   CALL VMA$EXPAND_LIST (VM_UADDRESS,VBASE(VM_WORK_),

  12401 13 000616   200007 236100                    LDQ     @EXPAND_USER#,,AUTO
        13 000617   200124 756100                    STQ     SITETYPE+6,,AUTO
        13 000620   000022 236000 14                 LDQ     18
        13 000621   200005 235100                    LDA     @VM_SEARCH_INFO,,AUTO
        13 000622   200122 757100                    STAQ    SITETYPE+4,,AUTO
        13 000623   000023 236000 14                 LDQ     19
        13 000624   200121 756100                    STQ     SITETYPE+3,,AUTO
        13 000625   200010 631500                    EPPR1   VM_UADDRESS,,AUTO
        13 000626   200120 451500                    STP1    SITETYPE+2,,AUTO
PL6.E3A0      #001=VMA$ADDRESS File=VMA$SUBR.:VMB6TSI                            WED 08/20/97 15:01 Page:38
        13 000627   200120 630500                    EPPR0   SITETYPE+2,,AUTO
        13 000630   000021 631400 14                 EPPR1   17
        13 000631   000000 701000 xent               TSX1    VMA$EXPAND_LIST
        13 000632   000666 702000 13                 TSX2    E_PMME

      270    12402    3                     VM_SEARCH_INFO,0,EXPAND_USER#) ALTRET(E_PMME);
      271    12403    3           END;                  /* Resolve name loop */

      272    12404        /*
      273    12405             ***** If an account was specified,
      274    12406                   then add to address list ...
      275    12407        */
      276    12408    2           IF ACCT.ACCT# ~= ' '

  12408 13 000633   000010 237000 11                 LDAQ    ACCT
        13 000634   000016 117000 14                 CMPAQ   14
        13 000635   000646 600000 13                 TZE     s:12414
        13 000636   040000 106400                    CMPC    fill='040'O
        13 000637   000012 200310 11                 ADSC9   NAME                     cn=1,n=200
        13 000640   000000 000001 14                 ADSC9   0                        cn=0,n=1
        13 000641   000646 601000 13                 TNZ     s:12414

      277    12409    2             AND NAME.NAME# = ' '
      278    12410    2           THEN
      279    12411    3           DO;

      280    12412    3               CALL VMA$ADD_RENTRY (ACCT,FOLDER,PASSWORD,SITE) ALTRET(E_PMME);

  12412 13 000642   000025 630400 14                 EPPR0   21
        13 000643   000024 631400 14                 EPPR1   20
        13 000644   000000 701000 xent               TSX1    VMA$ADD_RENTRY
        13 000645   000666 702000 13                 TSX2    E_PMME

      281    12413    3           END;

      282    12414    3           DO NEVER;

PL6.E3A0      #001=VMA$ADDRESS File=VMA$SUBR.:VMB6TSI                            WED 08/20/97 15:01 Page:39
  12414 13 000646   000652 710000 13                 TRA     s:12418

  12409 13 000647                       ERR          null
      283    12415    3   ERR:        ;
      284    12416    3               VM_ADD_HEAD.FLAGS.ERR# = %YES#;

  12416 13 000647   000000 470400 xsym               LDP0    VM_ADDLIST$
        13 000650   400000 236003                    LDQ     -131072,DU
        13 000651   000002 256100                    ORSQ    2,,PR0

      285    12417    3           END;

      286    12418    2       END;                            /* Do INDX1 ... end */

  12418 13 000652   000002 054000 11                 AOS     INDX1
        13 000653   200003 470500                    LDP0    @TREE$,,AUTO
        13 000654   000000 471500                    LDP1    0,,PR0
        13 000655   100001 236100                    LDQ     1,,PR1
        13 000656   000022 772000                    QRL     18
        13 000657   000002 116000 11                 CMPQ    INDX1
        13 000660   000007 605400 13                 TPNZ    s:12236

      287    12419        /*
      288    12420             ***** If there are any errors in the address list
      289    12421                   then altreturn so they can be reported ...
      290    12422        */
      291    12423    1       IF VM_ADD_HEAD.FLAGS.ERR#

  12423 13 000661   000000 473400 xsym               LDP3    VM_ADDLIST$
        13 000662   300002 234100                    SZN     2,,PR3
        13 000663   000665 605000 13                 TPL     s:12427

      292    12424    1       THEN
      293    12425    1           ALTRETURN;

  12425 13 000664   000000 702200 xent               TSX2  ! X66_AALT

PL6.E3A0      #001=VMA$ADDRESS File=VMA$SUBR.:VMB6TSI                            WED 08/20/97 15:01 Page:40
      294    12426    1       ELSE
      295    12427    1           RETURN;

  12427 13 000665   000000 702200 xent               TSX2  ! X66_ARET

      296    12428        /**/
      297    12429    1   E_PMME:
      298    12430    1       ALTRETURN;

  12430 13 000666   000000 702200 xent  E_PMME       TSX2  ! X66_AALT

PSID
 Sect OctLoc
  11     004   000000 000001   040040 040040   040040 ******                    ....      ..

ACCT
 Sect OctLoc
  11     010   040040 040040   040040 040040

NAME
 Sect OctLoc
  11     012   037040 040040   040040 040040   040040 040040   040040 040040    .
  11     016   040040 040040   040040 040040   040040 040040   040040 040040
  11     072*  040040 040040   040040 040040   040*** ******                             ...

FOLDER
 Sect OctLoc
  11     075   ****** ******   ****** ******   ****** ******   ****** ******    ................

PASSWORD
 Sect OctLoc
  11     104   040040 040040   040040 040040

ERR_TEXT
 Sect OctLoc
  11     110   001040 040040   040040 040040   040040 040040   040040 040040    .
  11     114   040040 040040   040040 040040   040040 040040   040040 040040
PL6.E3A0      #001=VMA$ADDRESS File=VMA$SUBR.:VMB6TSI                            WED 08/20/97 15:01 Page:41

E_BADWSN
 Sect OctLoc
  12     000   261501 000030                                                    ....

E_BADDOMAIN
 Sect OctLoc
  12     001   261501 001730                                                    ....

E_PSIDFOLDERTOOLONG
 Sect OctLoc
  12     002   261501 001720                                                    ....

(unnamed)
 Sect OctLoc
  12     003   056056 056040                                                    ...

(unnamed)
 Sect OctLoc
  14     000   040040 040040   000000 006014   000001 000000   000002 006000        ............
  14     004   000007 777640   000110 006000   000003 000000   000004 006000    .....H..........
  14     010   000001 006000   045040 040040   056040 040040   000000 006000    ....%   .   ....
  14     014   000106 006000   000120 006000   040040 040040   040040 040040    .F...P..
  14     020   000000 000000   000005 000000   000020 006000   000001 006000    ................
  14     024   000004 000000   000010 006000   000075 006000   000104 006000    .........=...D..
  14     030   000120 006000                                                    .P..
      299    12431    1   END VMA$ADDRESS;
      300    12432        %EOD;

PL6.E3A0      #001=VMA$ADDRESS File=VMA$SUBR.:VMB6TSI                            WED 08/20/97 15:01 Page:42
--  Include file information  --

   B$TABLES_C.:LIB_E05  cannot be made into a system file and is referenced.
   XUM_MACRO_C.:LIB_E05  is referenced.
   XU_SUBS_C.:LIB_E05  is referenced.
   XU_MACRO_C.:LIB_E05  is referenced.
   VW_NODEATER_E.:VMB6TOU  is referenced.
   B_MACROS_C.:LIB_E05  is referenced.
   VM_DATA_R.:VMB6TOU  cannot be made into a system file and is referenced.
   VM_SUBS_C.:VMB6TOU  is referenced.
   VM_PERR_C.:VMB6TOU  is referenced.
   VM_MACRO_C.:VMB6TOU  is referenced.
   CP_6_SUBS.:LIB_E05  is referenced.
   CP_6_C.:LIB_E05  is referenced.
   CP_6.:LIB_E05  cannot be made into a system file and is referenced.
      No diagnostics issued in procedure VMA$ADDRESS.
PL6.E3A0      #001=VMA$ADDRESS File=VMA$SUBR.:VMB6TSI                            WED 08/20/97 15:01 Page:43

 **** Variables and constants ****

  ****  Section 011  Data  VMA$ADDRESS

  ****  Scalars and arrays  ****
OctLoc.c.b A Datatyp(siz) R M Lvl/name                 OctLoc.c.b A Datatyp(siz) R M Lvl/name

    10-0-0/c STRC(72)    r     1 ACCT                       0-0-0/w PTR         r     1 BLK1$
     1-0-0/w PTR         r     1 BLK2$                    110-0-0/c STRC(288)   r     1 ERR_TEXT
    75-0-0/c CHAR(25)    r     1 FOLDER                     2-0-0/w SBIN        r     1 INDX1
     3-0-0/w SBIN        r     1 INDX2                     12-0-0/c STRC(1809)  r     1 NAME
   104-0-0/c STRC(72)    r     1 PASSWORD                   4-0-0/d STRC(90)    r     1 PSID
   120-0-0/c CHAR(8)     r     1 SITE                     106-0-0/c CHAR(8)     r     1 SITENAME

  ****  Section 012 RoData VMA$ADDRESS

  ****  Scalars and arrays  ****
OctLoc.c.b A Datatyp(siz) R M Lvl/name                 OctLoc.c.b A Datatyp(siz) R M Lvl/name

     1-0-0/w STRC        r     1 E_BADDOMAIN                0-0-0/w STRC        r     1 E_BADWSN
     2-0-0/w STRC        r     1 E_PSIDFOLDERTOOLONG

  ****  Auto variables  ****

  ****  Scalars and arrays  ****
OctLoc.c.b A Datatyp(siz) R M Lvl/name                 OctLoc.c.b A Datatyp(siz) R M Lvl/name

     6-0-0/w PTR         r     1 @EXPAND_FULL#              7-0-0/w PTR         r     1 @EXPAND_USER#
     3-0-0/w PTR         r     1 @TREE$                     4-0-0/w PTR         r     1 @USER_NAME
     5-0-0/w PTR         r     1 @VM_SEARCH_INFO          114-0-0/w PTR         r     1 DOMAIN$
    *0-0-0/b BIT         r     1 EXPAND_FULL#              *0-0-0/b BIT         r     1 EXPAND_USER#
   115-0-0/w PTR         r     1 SITE$                    116-0-0/w UBIN        r     1 SITETYPE
    *0-0-0/w PTR         r     1 TREE$                     *0-0-0/c ASTR(9)     r     1 USER_NAME
    *0-0-0/w STRC(1260)  r     1 VM_SEARCH_INFO            10-0-0/w STRC(2448)  r     1 VM_UADDRESS

  ****  SYMREF variables  ****

PL6.E3A0      #001=VMA$ADDRESS File=VMA$SUBR.:VMB6TSI                            WED 08/20/97 15:01 Page:44
  ****  Scalars and arrays  ****
OctLoc.c.b A Datatyp(siz) R M Lvl/name                 OctLoc.c.b A Datatyp(siz) R M Lvl/name

     0-0-0/w PTR               1 B$JIT$                     0-0-0/w PTR               1 B$TCB$
     0-0-0/w PTR         r     1 B$XL_UPPER$                0-0-0/c ASTR(9)     r     1 ERRMSG_FID
     0-0-0/w UBIN              1 M$DO_NUM                   0-0-0/w UBIN              1 M$LO_NUM
     0-0-0/w UBIN              1 M$MAIL_CENTRAL_NUM         0-0-0/w UBIN              1 M$MAIL_COMGROUP_NUM
     0-0-0/w UBIN              1 M$MAIL_FILE_NUM            0-0-0/w UBIN              1 M$MAIL_GLOBAL_NUM
     0-0-0/w UBIN              1 M$ME_NUM                   0-0-0/w UBIN              1 M$NODE_NUM
     0-0-0/w UBIN              1 M$SI_NUM                   0-0-0/w UBIN              1 M$WORK_NUM
     0-0-0/w PTR         r     1 VM_ADDLIST$                0-0-0/d VECT              1 VM_ADDLIST_
     0-0-0/w PTR               1 VM_ADDREC$                 0-0-0/d VECT              1 VM_ADDREC_
     0-0-0/w PTR               1 VM_COPY$                   0-0-0/d VECT              1 VM_COPY_
     0-0-0/w PTR               1 VM_ENCLLIST$               0-0-0/d VECT              1 VM_ENCLLIST_
     0-0-0/w PTR               1 VM_ENCLREC$                0-0-0/d VECT              1 VM_ENCLREC_
     0-0-0/c STRC(270)         1 VM_FORWARD_ENCL_NAME       0-0-0/c STRC(270)         1 VM_FORWARD_FILE_NAME
     0-0-0/c STRC(72)          1 VM_FORWARD_FILE_PASS       0-0-0/w PTR               1 VM_HEADER$
     0-0-0/d VECT              1 VM_HEADER_                 0-0-0/d VECT              1 VM_HEADER_INIT_
     0-0-0/w PTR               1 VM_INPUT$                  0-0-0/d VECT              1 VM_INPUT_
     0-0-0/c STRC(72)          1 VM_MAILCG_NAME             0-0-0/w STRC(432)         1 VM_MAILCG_SETSTA
     0-0-0/c STRC(72)          1 VM_MAIL_ACCT               0-0-0/c STRC(54)          1 VM_NAME_MAP_NAME
     0-0-0/w PTR               1 VM_PARSEAREA$              0-0-0/d VECT              1 VM_PARSEAREA_
     0-0-0/w PTR               1 VM_PROFILE$                0-0-0/d VECT              1 VM_PROFILE_
     0-0-0/w PTR               1 VM_SELECT$                 0-0-0/d VECT              1 VM_SELECT_
     0-0-0/c STRC(288)         1 VM_SEND_FILE_NAME          0-0-0/c CHAR(8)     r     1 VM_SITENAME
     0-0-0/w PTR               1 VM_WORK$                   0-0-0/d VECT        r     1 VM_WORK_

  ****  BASED and DCB variables  ****

  ****  Scalars and arrays  ****
OctLoc.c.b A Datatyp(siz) R M Lvl/name                 OctLoc.c.b A Datatyp(siz) R M Lvl/name

     0-0-0/d STRC(4608)  r     1 LOWER_UPPER                0-0-0N  NULL        r     1 M$DO
     0-0-0N  NULL        r     1 M$LO                       0-0-0N  NULL        r     1 M$MAIL_CENTRAL
     0-0-0N  NULL        r     1 M$MAIL_COMGROUP            0-0-0N  NULL        r     1 M$MAIL_FILE
     0-0-0N  NULL        r     1 M$MAIL_GLOBAL              0-0-0N  NULL        r     1 M$ME
     0-0-0N  NULL        r     1 M$NODE                     0-0-0N  NULL        r     1 M$SI
PL6.E3A0      #001=VMA$ADDRESS File=VMA$SUBR.:VMB6TSI                            WED 08/20/97 15:01 Page:45
     0-0-0N  NULL        r     1 M$UC                       0-0-0N  NULL        r     1 M$WORK
     0-0-0/w STRC(144)   r     1 P$B                        0-0-0/w ASTR(153)   r     1 P$S
     0-0-0/w STRC(252)   r     1 VM_ADD_HEAD                0-0-0/c ASTR(9)     r     1 X$STRING


   Procedure VMA$ADDRESS requires 439 words for executable code.
   Procedure VMA$ADDRESS requires 86 words of local(AUTO) storage.
PL6.E3A0      #001=VMA$ADDRESS File=VMA$SUBR.:VMB6TSI                            WED 08/20/97 15:01 Page:46
          *** CROSS REFERENCE LISTING ***
**     DENOTES     IDENTIFIER DEFINITION
<<                 IDENTIFIER'S VALUE SET
>>                 IDENTIFIER'S VALUE USED
<>                 IDENTIFIER SET AND/OR USED
--                 IDENTIFIER REFERENCED
PL6.E3A0      #001=VMA$ADDRESS File=VMA$SUBR.:VMB6TSI                            WED 08/20/97 15:01 Page:47
          MINI XREF LISTING

ACCT
     12004**DCL     12412<>CALL
ACCT.ACCT#
     12004**DCL     12241<<ASSIGN  12255<<ASSIGN  12364>>IF      12371<<ASSIGN  12377<<ASSIGN  12386>>IF
     12408>>IF
B$XL_UPPER$
     11771**DCL     11772--IMP-PTR 12333>>CALLBLT 12392>>CALLBLT
BAD_SITE
     12343**LABEL   12338--GOTO    12356--GOTO
BLK1$
     11973**DCL     12236<<ASSIGN  12251>>DOINDEX 12252>>ASSIGN
BLK2$
     11974**DCL     12252<<ASSIGN  12253>>DOCASE  12255>>ASSIGN  12255>>ASSIGN  12257>>ASSIGN  12257>>ASSIGN
     12259>>ASSIGN  12259>>ASSIGN  12261>>ASSIGN  12262>>ASSIGN  12262>>ASSIGN  12264>>ASSIGN  12264>>ASSIGN
     12266>>ASSIGN  12268>>ASSIGN
DOMAIN$
     11975**DCL     12247<<ASSIGN  12268<<ASSIGN  12300>>IF      12302>>ASSIGN  12302>>ASSIGN  12317>>DOINDEX
     12320>>CALLBLT 12320>>CALLBLT 12322>>CALLBLT 12322>>CALLBLT 12323>>ASSIGN  12336>>IF      12345>>IF
     12354>>IF
ERR
     12409**LABEL   12285--GOTO    12315--GOTO    12350--GOTO
ERRMSG_FID.L#
      8226**DCL      8226--IMP-SIZ
ERR_TEXT
     12073**DCL     12314--CALL    12347--CALL    12349--CALL
ERR_TEXT.L#
     12073**DCL     12308<<ASSIGN  12312<<ASSIGN  12344<<ASSIGN
ERR_TEXT.NAME#
     12073**DCL     12307<<ASSIGN  12311<<CALLBLT 12343<<ASSIGN
EXPAND_FULL#
     11808**DCL        26--PROC    12395--IF      12395>>IF
EXPAND_USER#
PL6.E3A0      #001=VMA$ADDRESS File=VMA$SUBR.:VMB6TSI                            WED 08/20/97 15:01 Page:48
     11809**DCL        26--PROC    12398<>CALL    12401<>CALL
E_BADDOMAIN
     12139**DCL     12314<>CALL    12349<>CALL
E_BADWSN
     12090**DCL     12347<>CALL
E_PMME
     12430**LABEL   12398--CALLALT 12401--CALLALT 12412--CALLALT
E_PSIDFOLDERTOOLONG
     12188**DCL     12284<>CALL
FOLDER
     12033**DCL     12249<<ASSIGN  12259<<ASSIGN  12279>>ASSIGN  12290<<ASSIGN  12390>>ASSIGN  12412<>CALL
INDX1
     11978**DCL     12235<<DOINDEX 12236>>ASSIGN
INDX2
     11979**DCL     12251<<DOINDEX 12252>>ASSIGN  12317<<DOINDEX 12318>>IF      12320>>CALLBLT 12320>>CALLBLT
     12322>>CALLBLT 12322>>CALLBLT 12323>>ASSIGN
LOWER_UPPER
     11772**DCL     12333>>CALLBLT 12392>>CALLBLT
NAME.L#
     12031**DCL     12242<<ASSIGN  12261<<ASSIGN  12320>>CALLBLT 12322>>CALLBLT 12323<<ASSIGN  12323>>ASSIGN
     12372<<ASSIGN  12378<<ASSIGN  12393>>ASSIGN
NAME.NAME#
     12031**DCL     12243<<ASSIGN  12262<<ASSIGN  12320<<CALLBLT 12322<<CALLBLT 12364>>IF      12373<<ASSIGN
     12379<<ASSIGN  12386>>IF      12394>>ASSIGN  12408>>IF
P$B.CODE
     11896**DCL     12253>>DOCASE
P$B.NSUBLKS
     11900**DCL     12235>>DOINDEX 12251>>DOINDEX 12302>>ASSIGN  12317>>DOINDEX
P$B.SUBLK$
     11921**DCL     12236>>ASSIGN  12252>>ASSIGN  12302>>ASSIGN  12320>>CALLBLT 12320>>CALLBLT 12322>>CALLBLT
     12322>>CALLBLT 12323>>ASSIGN
P$S.COUNT
     11957**DCL     11960--IMP-SIZ 12255>>ASSIGN  12257>>ASSIGN  12259>>ASSIGN  12261>>ASSIGN  12262>>ASSIGN
     12264>>ASSIGN  12303>>IF      12305>>IF      12307>>ASSIGN  12308>>ASSIGN  12311>>CALLBLT 12320>>CALLBLT
     12322>>CALLBLT 12323>>ASSIGN  12332>>ASSIGN  12344>>ASSIGN
P$S.TEXT
PL6.E3A0      #001=VMA$ADDRESS File=VMA$SUBR.:VMB6TSI                            WED 08/20/97 15:01 Page:49
     11960**DCL     12255>>ASSIGN  12257>>ASSIGN  12259>>ASSIGN  12262>>ASSIGN  12264>>ASSIGN  12307>>ASSIGN
     12311>>CALLBLT 12320>>CALLBLT 12322>>CALLBLT 12332>>ASSIGN
PASSWORD
     12045**DCL     12412<>CALL
PASSWORD.PASS#
     12045**DCL     12244<<ASSIGN  12264<<ASSIGN  12391>>ASSIGN
PSID.SN#
     11991**DCL     12240<<ASSIGN  12257<<ASSIGN  12276>>IF      12289>>ASSIGN
SITE
     12075**DCL     12246<<ASSIGN  12333<<CALLBLT 12334>>IF      12341<>CALL    12353>>ASSIGN  12412<>CALL
SITE$
     11976**DCL     12248<<ASSIGN  12266<<ASSIGN  12302<<ASSIGN  12303>>IF      12305>>IF      12307>>ASSIGN
     12307>>ASSIGN  12308>>ASSIGN  12311>>CALLBLT 12311>>CALLBLT 12330>>IF      12332>>ASSIGN  12332>>ASSIGN
     12344>>ASSIGN
SITENAME
     12047**DCL     12245<<ASSIGN  12303--IF      12332<<ASSIGN  12333>>CALLBLT 12341<>CALL    12343>>ASSIGN
     12353<<ASSIGN  12392>>CALLBLT
SITETYPE
     11977**DCL     12341<>CALL    12352>>IF
TREE$
     11775**DCL        26--PROC    12235>>DOINDEX 12236>>ASSIGN
USER_NAME
     11777**DCL        26--PROC
USER_NAME.SIZ
     11778**DCL     11779--IMP-SIZ 12368>>IF      12371>>ASSIGN  12378>>ASSIGN  12379>>ASSIGN
USER_NAME.TEXT
     11779**DCL     12368>>IF      12371>>ASSIGN  12379>>ASSIGN
VMA$ADD_RENTRY
     11966**DCL-ENT 12412--CALL
VMA$ERRMSG
     11970**DCL-ENT 12284--CALL    12314--CALL    12347--CALL    12349--CALL
VMA$EXPAND_LIST
     11968**DCL-ENT 12401--CALL
VMA$EXPAND_LIST_GLOBAL
     11969**DCL-ENT 12398--CALL
VMA$GET_SITE_NAME
PL6.E3A0      #001=VMA$ADDRESS File=VMA$SUBR.:VMB6TSI                            WED 08/20/97 15:01 Page:50
     11971**DCL-ENT 12341--CALL
VM_ADDLIST$
      8080**DCL     11825--IMP-PTR 12230>>ASSIGN  12231>>ASSIGN  12416>>ASSIGN  12423>>IF
VM_ADD_HEAD.FLAGS
     11830**DCL     12231<<ASSIGN
VM_ADD_HEAD.FLAGS.ERR#
     11831**DCL     12416<<ASSIGN  12423>>IF
VM_ADD_HEAD.NUM_ENTRIES
     11828**DCL     12230<<ASSIGN
VM_SEARCH_INFO
     11791**DCL        26--PROC    12398<>CALL    12401<>CALL
VM_SITENAME
      8349**DCL     12334>>IF
VM_UADDRESS
     11854**DCL     12398<>CALL    12401<>CALL
VM_UADDRESS.FOLDER
     11869**DCL     11870--REDEF   12279<<ASSIGN  12290>>ASSIGN  12390<<ASSIGN
VM_UADDRESS.NOMAD.DELIM
     11872**DCL     12281>>IF
VM_UADDRESS.NOMAD.PSID
     11873**DCL     12289<<ASSIGN
VM_UADDRESS.PASS
     11874**DCL     12391<<ASSIGN
VM_UADDRESS.SITENAME
     11876**DCL     12392<<CALLBLT
VM_UADDRESS.USER_NAME.COUNT
     11878**DCL     12393<<ASSIGN
VM_UADDRESS.USER_NAME.TEXT
     11879**DCL     12394<<ASSIGN
VM_WORK_
      8106**DCL     12398<>CALL    12401<>CALL
X$STRING.SIZ
      8072**DCL      8073--IMP-SIZ

PL6.E3A0      #002=VMA$EXPAND_LIST File=VMA$SUBR.:VMB6TSI                        WED 08/20/97 15:02 Page:51
      301        1        /*T***********************************************************/
      302        2        /*T*                                                         */
      303        3        /*T* Copyright (c) Bull HN Information Systems Inc., 1997    */
      304        4        /*T*                                                         */
      305        5        /*T***********************************************************/
      306        6        /*X* DMC,PLM=4,IND=4,CTI=2,DTI=0,ENI=0,ECI=0,CSI=0,DCI=4 */
      307        7        /*X* DMC,PLM=4,IND=4,CTI=2,DTI=0,ENI=0,ECI=0,CSI=0,DCI=4 */
      308        8        /*F*
      309        9             NAME: VMA$EXPAND_LIST
      310       10             PURPOSE:
      311       11                   This routine will resolve a LIST definition into GLOBAL info.
      312       12             DESCRIPTION:
      313       13                   This routine will resolve an address definition into a
      314       14                   list of GLOBAL address LISTs, REGISTERED NAMES, or accounts.
      315       15                   The ADDR_SPEC is assumed to be an address LIST. If it is
      316       16                   determined that it is not, then it must be a REGISTERED NAME
      317       17                   or account specification. Otherwise, an error will result.
      318       18
      319       19                   Once a globally defined address LIST is found, processing
      320       20                   will stop. This is so that space may be saved in the storage
      321       21                   of address specification lists.
      322       22
      323       23                   NOTE: This routine depends upon the calling routine setting
      324       24                         certain variables in the VM_ADD_HEAD structure in
      325       25                         order that correct performance will result.
      326       26
      327       27                         VM_ADD_HEAD.NUM_ENTRIES = 0;
      328       28                         VM_ADD_HEAD.FLAGS = '0'B;
      329       29
      330       30                   This routine has four parameters.
      331       31
      332       32                   ADDR_SPEC    - address to resolve.
      333       33                   WORK$        - ptr to next address in work area to be
      334       34                                  used for holding the new address LIST.
      335       35                                  VM_WORK_ describes the work area.
      336       36                   SEARCH_INFO  - array of DCB numbers which are open to
      337       37                                 folders to be used to resolve address LISTs.
PL6.E3A0      #002=VMA$EXPAND_LIST File=VMA$SUBR.:VMB6TSI                        WED 08/20/97 15:02 Page:52
      338       38                                 The last entry in this structure must point
      339       39                                 to the GLOBAL set of address LIST definitions.
      340       40                   SEARCH_LEVEL - starting index to use into SEARCH_INFO.
      341       41                                  Normally 0, but when recursion is found
      342       42                                  this number reflects the new level to
      343       43                                  start looking for the ADDR_SPEC.
      344       44                   EXPAND_USER# - Copy the user def to the finished list?
      345       45                                  (Optional. Only meaningful when EXPAND_FULL
      346       46                                  is specified. Default=YES.)
      347       47        */
      348       48        VMA$EXPAND_LIST: PROC (ADDR_SPEC,WORK$,VM_SEARCH_INFO,SEARCH_LEVEL,EXPAND_USER#)
                48            ALTRET;
      349       49        /***** Include files *****/
      350       50          %INCLUDE B_ERRORS_C;
      351     1177          %INCLUDE CP_6;
      352     6736          %INCLUDE CP_6_SUBS;
      353     7276          %INCLUDE VM_MACRO_C;
      354     8544          %INCLUDE VM_SUBS_C;
      355     8804          %INCLUDE VM_DATA_R;
      356     9235            %include B$TABLES_C;
      357     9343          %B$XL_UPPER(NAME=LOWER_UPPER);
      358     9347        /***** Parameters *****/
      359     9348          %VM_ADDTYPES;
      360     9352          %VM_KEYTYPES;
      361     9373          %VM_UADDRESS (NAME=ADDR_SPEC,STCLASS=" ");
      362     9410    1   DCL WORK$ PTR;
      363     9411          %VM_SEARCH_INFO (STCLASS=" ");
      364     9438    1   DCL SEARCH_LEVEL SBIN WORD;
      365     9439    1   DCL EXPAND_USER# BIT(1);
      366     9440        /***** External routines *****/
      367     9441    1   DCL VMA$ADD_RENTRY ENTRY(6) ALTRET;
      368     9442    1   DCL VMA$ADD_UENTRY ENTRY(6) ALTRET;
      369     9443    1   DCL VMA$GET_LIST ENTRY(3) ALTRET;
      370     9444    1   DCL VMA$GET_NEXT_ENTRY ENTRY(4) ALTRET;
      371     9445    1   DCL VMA$GET_SITE_NAME ENTRY (4) ALTRET;
      372     9446        /***** Local variables *****/
      373     9447    1   DCL NEXT$ PTR AUTO;
PL6.E3A0      #002=VMA$EXPAND_LIST File=VMA$SUBR.:VMB6TSI                        WED 08/20/97 15:02 Page:53
      374     9448    1   DCL SEARCH_INDX SBIN WORD AUTO;
      375     9449    1   DCL NEW_WORK$ PTR AUTO;
      376     9450    1   DCL NEW_SEARCH_LEVEL SBIN WORD AUTO;
      377     9451    1   DCL EXPAND# UBIN WORD AUTO;
      378     9452    1   DCL SITENAME CHAR (8);
      379     9453        /***** Based structures *****/
      380     9454          %B$TCB (STCLASS="BASED(B$TCB$)");
      381     9457          %B$ALT;
      382     9465        /***** Mail structures *****/
      383     9466        %SET LISTMAC='1'B;
      384     9467        %SET LISTEXP='1'B;
      385     9468        %SET LISTSUB='1'B;
      386     9469          %VM_ADD_HEAD (STCLASS="BASED(WORK$)");
              9470        %LSET LISTDIR='0'B;
              9479    1   DCL 1 VM_ADD_HEAD BASED(WORK$),
              9480    1         2 ADDRESS_SIZE UBIN WORD /*(0)/**/,
              9481                               /* Number of words in this address list */
              9482    1         2 NUM_ENTRIES UBIN WORD /*(0)/**/,
              9483                               /* Number of entries in list */
              9484    1         2 FLAGS,
              9485    1           3 ERR# BIT(1) UNAL /*('0'B)/**/,
              9486                               /* Some error found in address list */
              9487    1           3 RESERVED BIT(35) UNAL /*('0'B)/**/,
              9488                               /* Reserved for future expansion */
              9489    1         2 HEAD$ PTR /*(ADDR(NIL))/**/,
              9490                               /* Head of link list */
              9491    1         2 FREE$ PTR /*(ADDR(NIL))/**/,
              9492                               /* Ptr to first entry in free block list */
              9493    1         2 NEXT$ PTR /*(ADDR(NIL))/**/,
              9494                               /* Ptr to next available word in work area */
              9495    1         2 WORK_AREA UBIN WORD;
              9496                               /* First word of work area. */
      387     9498          %VM_RADDRESS (STCLASS=AUTO);
              9499        %LSET LISTDIR='0'B;
              9508    1   DCL 1 VM_RADDRESS AUTO,
              9509    1         2 NEXT$ PTR /*(ADDR(NIL))/**/,
              9510                               /* Ptr to next entry on list */
PL6.E3A0      #002=VMA$EXPAND_LIST File=VMA$SUBR.:VMB6TSI                        WED 08/20/97 15:02 Page:54
              9511    1         2 PREV$ PTR /*(ADDR(NIL))/**/,
              9512                               /* Ptr to previous entry on list */
              9513    1         2 FLAGS,
              9514    1           3 UNDEF# BIT (1) UNAL /*('0'B)/**/,
              9515                               /* This entry is not valid. Report as an error */
              9516    1           3 USER# BIT(1) UNAL /*('0'B)/**/,
              9517                               /* USER def, not LIST */
              9518    1           3 RESERVED BIT(7) UNAL /*('0'B)/**/,
              9519                               /* Reserved for future use */
              9520    1         2 TYPE UBIN BYTE UNAL /*(1)/**/,
              9521    1         2 NAME_KEY CHAR(20) CALIGNED /*(' ')/**/,
              9522                               /* Used only for USER definitions */
              9523    1         2 FOLDER CHAR(25) CALIGNED /*(' '*0)/**/,
              9524    1         2 NOMAD REDEF FOLDER,
              9525    1           3 FOLDER CHAR (18) CALIGNED,
              9526    1           3 DELIM CHAR (1) CALIGNED,
              9527    1           3 PSID CHAR (6) CALIGNED,
              9528    1         2 PASS CHAR(8) CALIGNED /*(' '*0)/**/,
              9529                               /* NOTE: Passwords are encrypted */
              9530    1         2 SITENAME CHAR(8) CALIGNED /*(' '*0)/**/,
              9531    1         2 ACCT CHAR(8) CALIGNED /*(' '*0)/**/;
      388     9533          %VM_UADDRESS (STCLASS=AUTO);
              9534        %LSET LISTDIR='0'B;
              9543    1   DCL 1 VM_UADDRESS AUTO,
              9544    1         2 NEXT$ PTR /*(ADDR(NIL))/**/,
              9545                               /* Ptr to next entry on list */
              9546    1         2 PREV$ PTR /*(ADDR(NIL))/**/,
              9547                               /* Ptr to previous entry on list */
              9548    1         2 FLAGS,
              9549    1           3 UNDEF# BIT (1) UNAL /*('0'B)/**/,
              9550                               /* This entry is not valid. Report as an error */
              9551    1           3 USER# BIT(1) UNAL /*('0'B)/**/,
              9552                               /* USER def, not LIST */
              9553    1           3 RESERVED BIT(7) UNAL /*('0'B)/**/,
              9554                               /* Reserved for future use */
              9555    1         2 TYPE UBIN BYTE UNAL /*(2)/**/,
              9556    1         2 NAME_KEY CHAR(20) CALIGNED /*(' ')/**/,
PL6.E3A0      #002=VMA$EXPAND_LIST File=VMA$SUBR.:VMB6TSI                        WED 08/20/97 15:02 Page:55
              9557                               /* Used only for USER definitions */
              9558    1         2 FOLDER CHAR(25) CALIGNED /*(' '*0)/**/,
              9559    1         2 NOMAD REDEF FOLDER,
              9560    1           3 FOLDER CHAR (18) CALIGNED,
              9561    1           3 DELIM CHAR (1) CALIGNED,
              9562    1           3 PSID CHAR (6) CALIGNED,
              9563    1         2 PASS CHAR(8) CALIGNED /*(' '*0)/**/,
              9564                               /* NOTE: Passwords are encrypted */
              9565    1         2 SITENAME CHAR(8) CALIGNED /*(' '*0)/**/,
              9566    1         2 USER_NAME,
              9567    1           3 COUNT UBIN BYTE CALIGNED /*(0)/**/,
              9568    1           3 TEXT CHAR(200) CALIGNED /*(' ')/**/;
      389     9570          %VM_LISTKEY (STCLASS=STATIC);
              9571        %LSET LISTDIR='0'B;
              9580    1   DCL 1 VM_LISTKEY STATIC,
              9581    1         2 COUNT UBIN BYTE CALIGNED INIT(201)/**/,
              9582    1         2 TYPE UBIN BYTE CALIGNED INIT(60)/**/,
              9583                        /* The type of the record to be accessed. */
              9584    1         2 TEXT CHAR(200) CALIGNED;
      390     9586          %VM_USERKEY (STCLASS=STATIC);
              9587        %LSET LISTDIR='0'B;
              9596    1   DCL 1 VM_USERKEY STATIC,
              9597    1         2 COUNT UBIN BYTE CALIGNED INIT(201)/**/,
              9598    1         2 TYPE UBIN BYTE CALIGNED INIT(80)/**/,
              9599                        /* The type of the record to be accessed. */
              9600    1         2 TEXT CHAR(200) CALIGNED;
      391     9602        %SET LISTMAC='0'B;
      392     9603        %SET LISTEXP='0'B;
      393     9604        %SET LISTSUB='0'B;
      394     9605          %VM_RADDRESS (NAME=VM$RADDRESS,STCLASS=BASED);
      395     9640          %VM_UADDRESS (NAME=VM$UADDRESS,STCLASS=BASED);
      396     9677        /***** Local substitutions *****/
      397     9678          %EQU EXPAND_FULL = 1;
      398     9679          %EQU EXPAND_LOCAL = 2;
      399     9680          %EQU EXPAND_GLOBAL = 3;
      400     9681        %EJECT;
PL6.E3A0      #002=VMA$EXPAND_LIST File=VMA$SUBR.:VMB6TSI                        WED 08/20/97 15:02 Page:56
      401     9682        /*
      402     9683             ***** Set the flag that determines whether to do a full
      403     9684                   or partial expansion ...
      404     9685        */
      405     9686    1       EXPAND# = %EXPAND_LOCAL;
      406     9687    1       GOTO EXPAND;
      407     9688        %EJECT;
PL6.E3A0      #002=VMA$EXPAND_LIST File=VMA$SUBR.:VMB6TSI                        WED 08/20/97 15:02 Page:57
      408     9689        /*F*
      409     9690             NAME: VMA$EXPAND_LIST_GLOBAL
      410     9691             PURPOSE:
      411     9692                   This routine will resolve a LIST definition to a user list.
      412     9693             DESCRIPTION:
      413     9694                   This routine works just as VMA$EXPAND_LIST does. The
      414     9695                   only difference is that it will not resolve the global
      415     9696                   USER specifications; instead, it returns the user names.
      416     9697        */
      417     9698    1   VMA$EXPAND_LIST_GLOBAL: ENTRY (ADDR_SPEC,WORK$,VM_SEARCH_INFO,SEARCH_LEVEL,
              9698            EXPAND_USER#) ALTRET;
      418     9699        /*
      419     9700             ***** Set the flag that determines whether to do a full
      420     9701                   or partial expansion ...
      421     9702        */
      422     9703    1       EXPAND# = %EXPAND_GLOBAL;
      423     9704    1       GOTO EXPAND;
      424     9705        %EJECT;
PL6.E3A0      #002=VMA$EXPAND_LIST File=VMA$SUBR.:VMB6TSI                        WED 08/20/97 15:02 Page:58
      425     9706        /*F*
      426     9707             NAME: VMA$EXPAND_LIST_FULL
      427     9708             PURPOSE:
      428     9709                   This routine will fully resolve a LIST definition.
      429     9710             DESCRIPTION:
      430     9711                   This routine works just as VMA$EXPAND_LIST does. The
      431     9712                   only difference is that it will resolve the address
      432     9713                   LIST specification into individual REGISTERED NAMES or
      433     9714                   accounts, rather just into GLOBAL LIST definitions,
      434     9715                   REGISTERED NAMES, or accounts.
      435     9716        */
      436     9717    1   VMA$EXPAND_LIST_FULL: ENTRY (ADDR_SPEC,WORK$,VM_SEARCH_INFO,SEARCH_LEVEL,
              9717            EXPAND_USER#) ALTRET;
      437     9718        /*
      438     9719             ***** Set the flag that determines whether to do a full
      439     9720                   or partial expansion ...
      440     9721        */
      441     9722    1       EXPAND# = %EXPAND_FULL;
      442     9723    1       GOTO EXPAND;
      443     9724        %EJECT;
PL6.E3A0      #002=VMA$EXPAND_LIST File=VMA$SUBR.:VMB6TSI                        WED 08/20/97 15:02 Page:59
      444     9725        /*
      445     9726             ***** Unless the address spec that is about to be expanded
      446     9727                   refers to the local site (primary or synonymous name)
      447     9728                   it must be copied exactly as is to the address list for
      448     9729                   later processing ...
      449     9730        */
      450     9731    1   EXPAND:
      451     9732    1       CALL VMA$GET_SITE_NAME (ADDR_SPEC.SITENAME, SITENAME)
      452     9733    2       WHENALTRETURN DO;
      453     9734    2           call xlate( SITENAME, LOWER_UPPER, ADDR_SPEC.SITENAME );
      454     9735    2       END;
      455     9736    1       IF SITENAME ~= ' ' AND SITENAME ~= VM_SITENAME
      456     9737    1       THEN                            /* Not a local definition */
      457     9738    2       DO;                          /* Copy ADDR_SPEC unchanged */
      458     9739    2           GOTO STORE_ADDRESS;
      459     9740    2       END;
      460     9741        /*
      461     9742             ***** Try to find a list definition for this ADDR_SPEC ...
      462     9743        */
      463     9744    1       VM_LISTKEY.TEXT = SUBSTR(ADDR_SPEC.USER_NAME.TEXT,0,ADDR_SPEC.USER_NAME.COUNT);
      464     9745    1       IF ADDR(SEARCH_LEVEL) ~= ADDR(NIL)
      465     9746    1       THEN
      466     9747    1           SEARCH_INDX = SEARCH_LEVEL;
      467     9748    1       ELSE                            /* Start at bottom */
      468     9749    1           SEARCH_INDX = 0;
      469     9750    1       IF (SEARCH_INDX + 1) > VM_SEARCH_INFO.NUM_ENTRIES
      470     9751    1       THEN                            /* Not that many levels available */
      471     9752    1           GOTO STORE_ERR_ADDRESS;
      472     9753    1   TRY_AGAIN:
      473     9754    1       CALL VMA$GET_LIST (VM_LISTKEY,WORK$,
      474     9755    1         VM_SEARCH_INFO.DCB#(SEARCH_INDX)) ALTRET(E_READ);
      475     9756    2       DO NEVER;
      476     9757    2   E_READ:
      477     9758    2           IF B$TCB.ALT$ -> B$ALT.ERR.CODE = %E$NOKEY
      478     9759    2           THEN
      479     9760    3           DO;                    /* Search another folder */
      480     9761    3               SEARCH_INDX = SEARCH_INDX + 1;
PL6.E3A0      #002=VMA$EXPAND_LIST File=VMA$SUBR.:VMB6TSI                        WED 08/20/97 15:02 Page:60
      481     9762    3               IF SEARCH_INDX = VM_SEARCH_INFO.NUM_ENTRIES
      482     9763    3               THEN            /* Must not be defined as a list */
      483     9764    4               DO;
      484     9765        /*
      485     9766             ***** See if it is a registered name ...
      486     9767        */
      487     9768    4                   VM_USERKEY.TEXT = VM_LISTKEY.TEXT;
      488     9769    4                   CALL VMA$GET_LIST (VM_USERKEY,WORK$,
      489     9770    4                     M$MAIL_GLOBAL_NUM) ALTRET(STORE_ERR_ADDRESS);
      490     9771    4                   IF EXPAND# ~= %EXPAND_FULL
      491     9772    4                   THEN /* Don't expand user def */
      492     9773    4                       GOTO STORE_ADDRESS;
      493     9774    4                   IF ADDR(EXPAND_USER#) ~= ADDR(NIL)
      494     9775    4                     AND EXPAND_USER# = %NO#
      495     9776    4                   THEN /* Don't expand user def */
      496     9777    4                       GOTO STORE_ADDRESS;
      497     9778    4                   ELSE
      498     9779    4                       GOTO MOVE_USER_DEF;
      499     9780    4               END;
      500     9781    3               GOTO TRY_AGAIN;
      501     9782    3           END;
      502     9783        /*
      503     9784             ***** Otherwise, some other bad error. Abort processing ...
      504     9785        */
      505     9786    2           ALTRETURN;
      506     9787    2       END;                            /* Do never ... end */
      507     9788        /*
      508     9789             ***** If the address list contains no entries,
      509     9790                   then this is an error. Report it...
      510     9791        */
      511     9792    1       IF VM_ADD_HEAD.NUM_ENTRIES = 0
      512     9793    1       THEN
      513     9794    2       DO;
      514     9795    2           GOTO STORE_ERR_ADDRESS;
      515     9796    2       END;
      516     9797        /*
      517     9798             ***** A definition was found.
PL6.E3A0      #002=VMA$EXPAND_LIST File=VMA$SUBR.:VMB6TSI                        WED 08/20/97 15:02 Page:61
      518     9799                   If the definition is the global address list
      519     9800                   definition then it must not be expanded any further,
      520     9801                   unless, EXPAND_FULL was specified.
      521     9802                   If not, then expand this definition ...
      522     9803        */
      523     9804    1       IF VM_SEARCH_INFO.DCB#(SEARCH_INDX) = M$MAIL_GLOBAL_NUM
      524     9805    1         AND EXPAND# = %EXPAND_LOCAL
      525     9806    1       THEN
      526     9807    2       DO;                          /* Expand no further */
      527     9808    2           GOTO STORE_ADDRESS;
      528     9809    2       END;
      529     9810        /*
      530     9811             ***** Try to resolve it further ...
      531     9812        */
      532     9813    1       NEXT$ = VM_ADD_HEAD.HEAD$;        /* First list def */
      533     9814    2       DO FOREVER;
      534     9815    2           CALL VMA$GET_NEXT_ENTRY (VM_UADDRESS,VM_RADDRESS,NEXT$,WORK$) ALTRET(
              9815                    END_LOOP);
      535     9816    2           IF VM_UADDRESS.TYPE = %VM_ADD_RESOLVED
      536     9817    2           THEN                       /* No further resolution needed */
      537     9818    3           DO;
      538     9819    3               CALL VMA$ADD_RENTRY (VM_RADDRESS.ACCT,VM_RADDRESS.FOLDER,
      539     9820    3                 VM_RADDRESS.PASS,VM_RADDRESS.SITENAME) ALTRET(E_PMME);
      540     9821    3           END;
      541     9822    2           ELSE                       /* Need to resolve this further */
      542     9823    3           DO;
      543     9824    3               NEW_WORK$ = PINCRW(WORK$,VM_ADD_HEAD.ADDRESS_SIZE);
      544     9825        /*
      545     9826             ***** If this entry is the same as the name of the
      546     9827                   ADDRESS_SPEC, then we have a recursive definition.
      547     9828                   Further expansion of this entry must take place at
      548     9829                   a higher level so as to avoid loops ...
      549     9830        */
      550     9831    3               IF SUBSTR(VM_UADDRESS.USER_NAME.TEXT,0,VM_UADDRESS.USER_NAME.COUNT) =
      551     9832    3                 SUBSTR(ADDR_SPEC.USER_NAME.TEXT,0,ADDR_SPEC.USER_NAME.COUNT)
      552     9833    3               THEN
      553     9834    3                   NEW_SEARCH_LEVEL = SEARCH_INDX + 1;
PL6.E3A0      #002=VMA$EXPAND_LIST File=VMA$SUBR.:VMB6TSI                        WED 08/20/97 15:02 Page:62
      554     9835    3               ELSE
      555     9836    3                   NEW_SEARCH_LEVEL = 0;
      556     9837                                                /*
      557     9838                                                     ***** If ADDR_SPEC contains a folder or
      558     9839                                           password spec, copy them into new address ...
      559     9840                                           */
      560     9841    3               IF ADDR_SPEC.FOLDER ~= ' '
      561     9842    3               THEN
      562     9843    3                   VM_UADDRESS.FOLDER = ADDR_SPEC.FOLDER;
      563     9844    3               IF ADDR_SPEC.PASS ~= ' '
      564     9845    3               THEN
      565     9846    3                   VM_UADDRESS.PASS = ADDR_SPEC.PASS;
      566     9847    3               IF EXPAND# = %EXPAND_FULL
      567     9848    3               THEN
      568     9849    3                   CALL VMA$EXPAND_LIST_FULL (VM_UADDRESS,NEW_WORK$,
      569     9850    3                     VM_SEARCH_INFO,NEW_SEARCH_LEVEL) ALTRET(NOT_DEFINED);
      570     9851    4               ELSE DO;
      571     9852    4                   IF EXPAND# = %EXPAND_GLOBAL
      572     9853    5                   THEN DO;
      573     9854        /*
      574     9855                ***** If we're not doing a FULL expansion, see if this resolves
      575     9856                      to a USER, and avoid further expansion if it does.
      576     9857        */
      577     9858    5                       VM_USERKEY.TEXT = SUBSTR (VM_UADDRESS.USER_NAME.TEXT, 0,
      578     9859    5                         VM_UADDRESS.USER_NAME.COUNT);
      579     9860    5                       CALL VMA$GET_LIST (VM_USERKEY,NEW_WORK$,M$MAIL_GLOBAL_NUM)
      580     9861    6                       WHENRETURN DO;
      581     9862    6                           CALL VMA$ADD_UENTRY (VM_UADDRESS.USER_NAME, VM_UADDRESS.
              9862                                    FOLDER,
      582     9863    6                             VM_UADDRESS.PASS, VM_UADDRESS.SITENAME, %NO#)
      583     9864    6                             ALTRET(E_PMME);
      584     9865    6                       END;
      585     9866    6                       WHENALTRETURN DO;
      586     9867    6                           CALL VMA$EXPAND_LIST_GLOBAL (VM_UADDRESS,NEW_WORK$,
      587     9868    6                             VM_SEARCH_INFO,NEW_SEARCH_LEVEL) ALTRET(NOT_DEFINED);
      588     9869    6                       END;
      589     9870    5                   END;
PL6.E3A0      #002=VMA$EXPAND_LIST File=VMA$SUBR.:VMB6TSI                        WED 08/20/97 15:02 Page:63
      590     9871    5                   ELSE DO;
      591     9872    5                       CALL VMA$EXPAND_LIST (VM_UADDRESS,NEW_WORK$,
      592     9873    5                         VM_SEARCH_INFO,NEW_SEARCH_LEVEL) ALTRET(NOT_DEFINED);
      593     9874    5                   END;
      594     9875    4               END;
      595     9876    3           END;
      596     9877    3           DO NEVER;
      597     9878    3   NOT_DEFINED: ;
      598     9879    3               ALTRETURN;
      599     9880    3           END;                       /* Do never ... end */
      600     9881    2       END;                            /* Do forever ... end */
      601     9882    1   END_LOOP:
      602     9883    1       RETURN;
      603     9884        /**/
      604     9885    1   E_PMME:
      605     9886    1       ALTRETURN;
      606     9887        /**/
      607     9888    1   MOVE_USER_DEF:
      608     9889    1       NEXT$ = VM_ADD_HEAD.HEAD$;
      609     9890    2       DO FOREVER;
      610     9891    2           CALL VMA$GET_NEXT_ENTRY (VM_UADDRESS,VM_RADDRESS,NEXT$,WORK$) ALTRET(
              9891                    END_MOVE_USER);
      611     9892        /*
      612     9893             ***** If ADDR_SPEC contains a folder or
      613     9894                   password spec, copy them into new address ...
      614     9895        */
      615     9896    2           IF ADDR_SPEC.FOLDER ~= ' '
      616     9897    2           THEN
      617     9898    3           DO;
      618     9899    3               VM_RADDRESS.FOLDER = ADDR_SPEC.FOLDER;
      619     9900    3               VM_UADDRESS.FOLDER = ADDR_SPEC.FOLDER;
      620     9901    3           END;
      621     9902    2           IF ADDR_SPEC.PASS ~= ' '
      622     9903    2           THEN
      623     9904    3           DO;
      624     9905    3               VM_RADDRESS.PASS = ADDR_SPEC.PASS;
      625     9906    3               VM_UADDRESS.PASS = ADDR_SPEC.PASS;
PL6.E3A0      #002=VMA$EXPAND_LIST File=VMA$SUBR.:VMB6TSI                        WED 08/20/97 15:02 Page:64
      626     9907    3           END;
      627     9908    2           IF VM_UADDRESS.TYPE = %VM_ADD_RESOLVED AND VM_RADDRESS.ACCT ~= ' '
      628     9909    2           THEN
      629     9910    2               CALL VMA$ADD_RENTRY (VM_RADDRESS.ACCT,VM_RADDRESS.FOLDER,
      630     9911    2                 VM_RADDRESS.PASS,VM_RADDRESS.SITENAME,%NO#,
      631     9912    2                 VM_RADDRESS.NAME_KEY) ALTRET(E_PMME);
      632     9913    3           ELSE DO;
      633     9914    3               IF VM_UADDRESS.TYPE = %VM_ADD_RESOLVED
      634     9915
      635     9916                                                /* User is defined only as (,,@site) */
      636     9917    3               THEN VM_UADDRESS.USER_NAME = ADDR_SPEC.USER_NAME;
      637     9918    3               CALL VMA$ADD_UENTRY (VM_UADDRESS.USER_NAME,VM_UADDRESS.FOLDER,
      638     9919    3                 VM_UADDRESS.PASS,VM_UADDRESS.SITENAME,%NO#,
      639     9920    3                 VM_UADDRESS.NAME_KEY) ALTRET(E_PMME);
      640     9921    3           END;
      641     9922        /*
      642     9923             ***** Depend upon VM_ADD_HEAD.HEAD$ to point
      643     9924                   to the entry just added ...
      644     9925        */
      645     9926    2           VM_ADDLIST$ -> VM_ADD_HEAD.HEAD$ -> VM$RADDRESS.FLAGS.USER# = %YES#;
      646     9927    2       END;                            /* Do forever ... end */
      647     9928    1   END_MOVE_USER:
      648     9929    1       RETURN;
      649     9930        /**/
      650     9931    1   STORE_ADDRESS:
      651     9932    1       CALL VMA$ADD_UENTRY (ADDR_SPEC.USER_NAME,ADDR_SPEC.FOLDER,
      652     9933    1         ADDR_SPEC.PASS,ADDR_SPEC.SITENAME,%NO#) ALTRET(E_PMME);
      653     9934    1       RETURN;
      654     9935        /**/
      655     9936    1   STORE_ERR_ADDRESS:
      656     9937    1       CALL VMA$ADD_UENTRY (ADDR_SPEC.USER_NAME,ADDR_SPEC.FOLDER,
      657     9938    1         ADDR_SPEC.PASS,ADDR_SPEC.SITENAME,%YES#) ALTRET(E_PMME);
      658     9939    1       RETURN;                           /** Used to altret **/
      659     9940    1   END VMA$EXPAND_LIST;
      660     9941        %EOD;

PL6.E3A0      #002=VMA$EXPAND_LIST File=VMA$SUBR.:VMB6TSI                        WED 08/20/97 15:02 Page:65
--  Include file information  --

   B$TABLES_C.:LIB_E05  cannot be made into a system file and is referenced.
   B_MACROS_C.:LIB_E05  is referenced.
   VM_DATA_R.:VMB6TOU  cannot be made into a system file and is referenced.
   VM_SUBS_C.:VMB6TOU  is referenced.
   VM_MACRO_C.:VMB6TOU  is referenced.
   CP_6_SUBS.:LIB_E05  is referenced.
   CP_6_C.:LIB_E05  is referenced.
   CP_6.:LIB_E05  cannot be made into a system file and is referenced.
   B_ERRORS_C.:LIB_E05  is referenced.
      No diagnostics issued in procedure VMA$EXPAND_LIST.

   Procedure VMA$EXPAND_LIST requires 426 words for executable code.
   Procedure VMA$EXPAND_LIST requires 116 words of local(AUTO) storage.

PL6.E3A0      #002=VMA$EXPAND_LIST File=VMA$SUBR.:VMB6TSI                        WED 08/20/97 15:02 Page:66

 Object Unit name= VMA$EXPAND_LIST                            File name= VMA$SUBR.:VMB6TOU
 UTS= AUG 20 '97 15:02:23.16 WED                              Compiler= PL-6/E31         Sev=      00
 SharedLib= :SHARED_SYSTEM                                    Alt SharedLib=


    ****  Control sections  ****

 Sect   Type Bound  Init  Size OctSiz  Section name(segment info)
    0   DCB   even  none     0      0  M$UC
    1   DCB   even  none     0      0  M$MAIL_FILE
    2   DCB   even  none     0      0  M$MAIL_CENTRAL
    3   DCB   even  none     0      0  M$MAIL_GLOBAL
    4   DCB   even  none     0      0  M$WORK
    5   DCB   even  none     0      0  M$MAIL_COMGROUP
    6   DCB   even  none     0      0  M$DO
    7   DCB   even  none     0      0  M$LO
    8   DCB   even  none     0      0  M$ME
    9   DCB   even  none     0      0  M$NODE
   10   DCB   even  none     0      0  M$SI
   11   Data  even  none   102    146  VMA$EXPAND_LIST
   12   Proc  even  none   426    652  VMA$EXPAND_LIST
   13  RoData even  none    28     34  VMA$EXPAND_LIST

    ****  Entry defs  ****

                              Check   Calling
                             calling  sequence
  Sect OctLoc Primary Altret sequence   type   Parms  Name
    12      0   yes    yes     yes      Std        5  VMA$EXPAND_LIST
    12      5          yes     yes      Std        5  VMA$EXPAND_LIST_GLOBAL
    12     12          yes     yes      Std        5  VMA$EXPAND_LIST_FULL
PL6.E3A0      #002=VMA$EXPAND_LIST File=VMA$SUBR.:VMB6TSI                        WED 08/20/97 15:02 Page:67

  ****  Entry refs  ****

         Check        Calling
        calling       sequence
Altret sequence SRef   type   Args  Name
         yes          ~proc      0 B_POINTER
 yes     yes           Std       4 VMA$GET_NEXT_ENTRY
 yes     yes           Std       4 VMA$GET_SITE_NAME
 yes     yes           Std       3 VMA$GET_LIST
 yes     yes           Std       6 VMA$ADD_RENTRY
 yes     yes           Std       6 VMA$ADD_UENTRY
                       nStd      0 X66_AUTO_5
                       nStd      0 X66_AALT
                       nStd      0 X66_ARET

  ****  Data refs  ****

  Flags:  r = read only, s = secondary
Flgs Name                             Flgs Name                             Flgs Name
     M$UC                             r    VM_HEADER$                       r    VM_PROFILE$
r    VM_ADDLIST$                      r    VM_ADDREC$                       r    VM_WORK$
r    VM_SELECT$                       r    VM_PARSEAREA$                    r    VM_INPUT$
r    VM_COPY$                              VM_ENCLLIST$                          VM_ENCLREC$
     VM_HEADER_                            VM_HEADER_INIT_                       VM_PROFILE_
     VM_ADDLIST_                           VM_ADDREC_                            VM_WORK_
     VM_SELECT_                            VM_PARSEAREA_                         VM_INPUT_
     VM_COPY_                              VM_ENCLLIST_                          VM_ENCLREC_
     M$MAIL_FILE                           M$MAIL_CENTRAL                        M$MAIL_GLOBAL
     M$WORK                                M$MAIL_COMGROUP                       M$DO
     M$LO                                  M$ME                                  M$NODE
     M$SI                                  M$MAIL_FILE_NUM                       M$MAIL_CENTRAL_NUM
     M$MAIL_GLOBAL_NUM                     M$WORK_NUM                            M$MAIL_COMGROUP_NUM
     M$DO_NUM                              M$ME_NUM                              M$LO_NUM
     M$SI_NUM                              M$NODE_NUM                       r    B$JIT$
r    B$TCB$                                VM_MAIL_ACCT                          VM_NAME_MAP_NAME
     ERRMSG_FID                            VM_SEND_FILE_NAME                     VM_FORWARD_FILE_NAME
     VM_FORWARD_ENCL_NAME                  VM_FORWARD_FILE_PASS                  VM_MAILCG_NAME
PL6.E3A0      #002=VMA$EXPAND_LIST File=VMA$SUBR.:VMB6TSI                        WED 08/20/97 15:02 Page:68
     VM_SITENAME                           VM_MAILCG_SETSTA                 r    B$XL_UPPER$

  ****  Segment refs  ****

  Flags:  r = read only, s = secondary
Flgs Name                             Flgs Name                             Flgs Name
     NULLSID                               ISSID
PL6.E3A0      #002=VMA$EXPAND_LIST File=VMA$SUBR.:VMB6TSI                        WED 08/20/97 15:02 Page:69


      301        1        /*T***********************************************************/
      302        2        /*T*                                                         */
      303        3        /*T* Copyright (c) Bull HN Information Systems Inc., 1997    */
      304        4        /*T*                                                         */
      305        5        /*T***********************************************************/
      306        6        /*X* DMC,PLM=4,IND=4,CTI=2,DTI=0,ENI=0,ECI=0,CSI=0,DCI=4 */
      307        7        /*X* DMC,PLM=4,IND=4,CTI=2,DTI=0,ENI=0,ECI=0,CSI=0,DCI=4 */
      308        8        /*F*
      309        9             NAME: VMA$EXPAND_LIST
      310       10             PURPOSE:
      311       11                   This routine will resolve a LIST definition into GLOBAL info.
      312       12             DESCRIPTION:
      313       13                   This routine will resolve an address definition into a
      314       14                   list of GLOBAL address LISTs, REGISTERED NAMES, or accounts.
      315       15                   The ADDR_SPEC is assumed to be an address LIST. If it is
      316       16                   determined that it is not, then it must be a REGISTERED NAME
      317       17                   or account specification. Otherwise, an error will result.
      318       18
      319       19                   Once a globally defined address LIST is found, processing
      320       20                   will stop. This is so that space may be saved in the storage
      321       21                   of address specification lists.
      322       22
      323       23                   NOTE: This routine depends upon the calling routine setting
      324       24                         certain variables in the VM_ADD_HEAD structure in
      325       25                         order that correct performance will result.
      326       26
      327       27                         VM_ADD_HEAD.NUM_ENTRIES = 0;
      328       28                         VM_ADD_HEAD.FLAGS = '0'B;
      329       29
      330       30                   This routine has four parameters.
      331       31
      332       32                   ADDR_SPEC    - address to resolve.
      333       33                   WORK$        - ptr to next address in work area to be
      334       34                                  used for holding the new address LIST.
      335       35                                  VM_WORK_ describes the work area.
      336       36                   SEARCH_INFO  - array of DCB numbers which are open to
PL6.E3A0      #002=VMA$EXPAND_LIST File=VMA$SUBR.:VMB6TSI                        WED 08/20/97 15:02 Page:70
      337       37                                 folders to be used to resolve address LISTs.
      338       38                                 The last entry in this structure must point
      339       39                                 to the GLOBAL set of address LIST definitions.
      340       40                   SEARCH_LEVEL - starting index to use into SEARCH_INFO.
      341       41                                  Normally 0, but when recursion is found
      342       42                                  this number reflects the new level to
      343       43                                  start looking for the ADDR_SPEC.
      344       44                   EXPAND_USER# - Copy the user def to the finished list?
      345       45                                  (Optional. Only meaningful when EXPAND_FULL
      346       46                                  is specified. Default=YES.)
      347       47        */
      348       48        VMA$EXPAND_LIST: PROC (ADDR_SPEC,WORK$,VM_SEARCH_INFO,SEARCH_LEVEL,EXPAND_USER#)
                48            ALTRET;

     48 12 000000   000000 700200 xent  VMA$EXPAND_* TSX0  ! X66_AUTO_5
        12 000001   000164 000005                    ZERO    116,5

      349       49        /***** Include files *****/
      350       50          %INCLUDE B_ERRORS_C;
      351     1177          %INCLUDE CP_6;
      352     6736          %INCLUDE CP_6_SUBS;
      353     7276          %INCLUDE VM_MACRO_C;
      354     8544          %INCLUDE VM_SUBS_C;
      355     8804          %INCLUDE VM_DATA_R;
      356     9235            %include B$TABLES_C;
      357     9343          %B$XL_UPPER(NAME=LOWER_UPPER);
      358     9347        /***** Parameters *****/
      359     9348          %VM_ADDTYPES;
      360     9352          %VM_KEYTYPES;
      361     9373          %VM_UADDRESS (NAME=ADDR_SPEC,STCLASS=" ");
      362     9410    1   DCL WORK$ PTR;
      363     9411          %VM_SEARCH_INFO (STCLASS=" ");
      364     9438    1   DCL SEARCH_LEVEL SBIN WORD;
      365     9439    1   DCL EXPAND_USER# BIT(1);
      366     9440        /***** External routines *****/
      367     9441    1   DCL VMA$ADD_RENTRY ENTRY(6) ALTRET;
      368     9442    1   DCL VMA$ADD_UENTRY ENTRY(6) ALTRET;
PL6.E3A0      #002=VMA$EXPAND_LIST File=VMA$SUBR.:VMB6TSI                        WED 08/20/97 15:02 Page:71
      369     9443    1   DCL VMA$GET_LIST ENTRY(3) ALTRET;
      370     9444    1   DCL VMA$GET_NEXT_ENTRY ENTRY(4) ALTRET;
      371     9445    1   DCL VMA$GET_SITE_NAME ENTRY (4) ALTRET;
      372     9446        /***** Local variables *****/
      373     9447    1   DCL NEXT$ PTR AUTO;
      374     9448    1   DCL SEARCH_INDX SBIN WORD AUTO;
      375     9449    1   DCL NEW_WORK$ PTR AUTO;
      376     9450    1   DCL NEW_SEARCH_LEVEL SBIN WORD AUTO;
      377     9451    1   DCL EXPAND# UBIN WORD AUTO;
      378     9452    1   DCL SITENAME CHAR (8);
      379     9453        /***** Based structures *****/
      380     9454          %B$TCB (STCLASS="BASED(B$TCB$)");
      381     9457          %B$ALT;
      382     9465        /***** Mail structures *****/
      383     9466        %SET LISTMAC='1'B;
      384     9467        %SET LISTEXP='1'B;
      385     9468        %SET LISTSUB='1'B;
      386     9469          %VM_ADD_HEAD (STCLASS="BASED(WORK$)");
              9470        %LSET LISTDIR='0'B;
              9479    1   DCL 1 VM_ADD_HEAD BASED(WORK$),
              9480    1         2 ADDRESS_SIZE UBIN WORD /*(0)/**/,
              9481                               /* Number of words in this address list */
              9482    1         2 NUM_ENTRIES UBIN WORD /*(0)/**/,
              9483                               /* Number of entries in list */
              9484    1         2 FLAGS,
              9485    1           3 ERR# BIT(1) UNAL /*('0'B)/**/,
              9486                               /* Some error found in address list */
              9487    1           3 RESERVED BIT(35) UNAL /*('0'B)/**/,
              9488                               /* Reserved for future expansion */
              9489    1         2 HEAD$ PTR /*(ADDR(NIL))/**/,
              9490                               /* Head of link list */
              9491    1         2 FREE$ PTR /*(ADDR(NIL))/**/,
              9492                               /* Ptr to first entry in free block list */
              9493    1         2 NEXT$ PTR /*(ADDR(NIL))/**/,
              9494                               /* Ptr to next available word in work area */
              9495    1         2 WORK_AREA UBIN WORD;
              9496                               /* First word of work area. */
PL6.E3A0      #002=VMA$EXPAND_LIST File=VMA$SUBR.:VMB6TSI                        WED 08/20/97 15:02 Page:72
      387     9498          %VM_RADDRESS (STCLASS=AUTO);
              9499        %LSET LISTDIR='0'B;
              9508    1   DCL 1 VM_RADDRESS AUTO,
              9509    1         2 NEXT$ PTR /*(ADDR(NIL))/**/,
              9510                               /* Ptr to next entry on list */
              9511    1         2 PREV$ PTR /*(ADDR(NIL))/**/,
              9512                               /* Ptr to previous entry on list */
              9513    1         2 FLAGS,
              9514    1           3 UNDEF# BIT (1) UNAL /*('0'B)/**/,
              9515                               /* This entry is not valid. Report as an error */
              9516    1           3 USER# BIT(1) UNAL /*('0'B)/**/,
              9517                               /* USER def, not LIST */
              9518    1           3 RESERVED BIT(7) UNAL /*('0'B)/**/,
              9519                               /* Reserved for future use */
              9520    1         2 TYPE UBIN BYTE UNAL /*(1)/**/,
              9521    1         2 NAME_KEY CHAR(20) CALIGNED /*(' ')/**/,
              9522                               /* Used only for USER definitions */
              9523    1         2 FOLDER CHAR(25) CALIGNED /*(' '*0)/**/,
              9524    1         2 NOMAD REDEF FOLDER,
              9525    1           3 FOLDER CHAR (18) CALIGNED,
              9526    1           3 DELIM CHAR (1) CALIGNED,
              9527    1           3 PSID CHAR (6) CALIGNED,
              9528    1         2 PASS CHAR(8) CALIGNED /*(' '*0)/**/,
              9529                               /* NOTE: Passwords are encrypted */
              9530    1         2 SITENAME CHAR(8) CALIGNED /*(' '*0)/**/,
              9531    1         2 ACCT CHAR(8) CALIGNED /*(' '*0)/**/;
      388     9533          %VM_UADDRESS (STCLASS=AUTO);
              9534        %LSET LISTDIR='0'B;
              9543    1   DCL 1 VM_UADDRESS AUTO,
              9544    1         2 NEXT$ PTR /*(ADDR(NIL))/**/,
              9545                               /* Ptr to next entry on list */
              9546    1         2 PREV$ PTR /*(ADDR(NIL))/**/,
              9547                               /* Ptr to previous entry on list */
              9548    1         2 FLAGS,
              9549    1           3 UNDEF# BIT (1) UNAL /*('0'B)/**/,
              9550                               /* This entry is not valid. Report as an error */
              9551    1           3 USER# BIT(1) UNAL /*('0'B)/**/,
PL6.E3A0      #002=VMA$EXPAND_LIST File=VMA$SUBR.:VMB6TSI                        WED 08/20/97 15:02 Page:73
              9552                               /* USER def, not LIST */
              9553    1           3 RESERVED BIT(7) UNAL /*('0'B)/**/,
              9554                               /* Reserved for future use */
              9555    1         2 TYPE UBIN BYTE UNAL /*(2)/**/,
              9556    1         2 NAME_KEY CHAR(20) CALIGNED /*(' ')/**/,
              9557                               /* Used only for USER definitions */
              9558    1         2 FOLDER CHAR(25) CALIGNED /*(' '*0)/**/,
              9559    1         2 NOMAD REDEF FOLDER,
              9560    1           3 FOLDER CHAR (18) CALIGNED,
              9561    1           3 DELIM CHAR (1) CALIGNED,
              9562    1           3 PSID CHAR (6) CALIGNED,
              9563    1         2 PASS CHAR(8) CALIGNED /*(' '*0)/**/,
              9564                               /* NOTE: Passwords are encrypted */
              9565    1         2 SITENAME CHAR(8) CALIGNED /*(' '*0)/**/,
              9566    1         2 USER_NAME,
              9567    1           3 COUNT UBIN BYTE CALIGNED /*(0)/**/,
              9568    1           3 TEXT CHAR(200) CALIGNED /*(' ')/**/;
      389     9570          %VM_LISTKEY (STCLASS=STATIC);
              9571        %LSET LISTDIR='0'B;
              9580    1   DCL 1 VM_LISTKEY STATIC,
              9581    1         2 COUNT UBIN BYTE CALIGNED INIT(201)/**/,
              9582    1         2 TYPE UBIN BYTE CALIGNED INIT(60)/**/,
              9583                        /* The type of the record to be accessed. */
              9584    1         2 TEXT CHAR(200) CALIGNED;
      390     9586          %VM_USERKEY (STCLASS=STATIC);
              9587        %LSET LISTDIR='0'B;
              9596    1   DCL 1 VM_USERKEY STATIC,
              9597    1         2 COUNT UBIN BYTE CALIGNED INIT(201)/**/,
              9598    1         2 TYPE UBIN BYTE CALIGNED INIT(80)/**/,
              9599                        /* The type of the record to be accessed. */
              9600    1         2 TEXT CHAR(200) CALIGNED;
      391     9602        %SET LISTMAC='0'B;
      392     9603        %SET LISTEXP='0'B;
      393     9604        %SET LISTSUB='0'B;
      394     9605          %VM_RADDRESS (NAME=VM$RADDRESS,STCLASS=BASED);
      395     9640          %VM_UADDRESS (NAME=VM$UADDRESS,STCLASS=BASED);
      396     9677        /***** Local substitutions *****/
PL6.E3A0      #002=VMA$EXPAND_LIST File=VMA$SUBR.:VMB6TSI                        WED 08/20/97 15:02 Page:74
      397     9678          %EQU EXPAND_FULL = 1;
      398     9679          %EQU EXPAND_LOCAL = 2;
      399     9680          %EQU EXPAND_GLOBAL = 3;
      400     9681        %EJECT;
PL6.E3A0      #002=VMA$EXPAND_LIST File=VMA$SUBR.:VMB6TSI                        WED 08/20/97 15:02 Page:75
      401     9682        /*
      402     9683             ***** Set the flag that determines whether to do a full
      403     9684                   or partial expansion ...
      404     9685        */
      405     9686    1       EXPAND# = %EXPAND_LOCAL;

   9686 12 000002   000002 235007                    LDA     2,DL
        12 000003   200014 755100                    STA     EXPAND#,,AUTO

      406     9687    1       GOTO EXPAND;

   9687 12 000004   000017 710000 12                 TRA     EXPAND

      407     9688        %EJECT;
PL6.E3A0      #002=VMA$EXPAND_LIST File=VMA$SUBR.:VMB6TSI                        WED 08/20/97 15:02 Page:76
      408     9689        /*F*
      409     9690             NAME: VMA$EXPAND_LIST_GLOBAL
      410     9691             PURPOSE:
      411     9692                   This routine will resolve a LIST definition to a user list.
      412     9693             DESCRIPTION:
      413     9694                   This routine works just as VMA$EXPAND_LIST does. The
      414     9695                   only difference is that it will not resolve the global
      415     9696                   USER specifications; instead, it returns the user names.
      416     9697        */
      417     9698    1   VMA$EXPAND_LIST_GLOBAL: ENTRY (ADDR_SPEC,WORK$,VM_SEARCH_INFO,SEARCH_LEVEL,
              9698            EXPAND_USER#) ALTRET;

   9698 12 000005   000000 700200 xent  VMA$EXPAND_* TSX0  ! X66_AUTO_5
        12 000006   000164 000005                    ZERO    116,5

      418     9699        /*
      419     9700             ***** Set the flag that determines whether to do a full
      420     9701                   or partial expansion ...
      421     9702        */
      422     9703    1       EXPAND# = %EXPAND_GLOBAL;

   9703 12 000007   000003 235007                    LDA     3,DL
        12 000010   200014 755100                    STA     EXPAND#,,AUTO

      423     9704    1       GOTO EXPAND;

   9704 12 000011   000017 710000 12                 TRA     EXPAND

      424     9705        %EJECT;
PL6.E3A0      #002=VMA$EXPAND_LIST File=VMA$SUBR.:VMB6TSI                        WED 08/20/97 15:02 Page:77
      425     9706        /*F*
      426     9707             NAME: VMA$EXPAND_LIST_FULL
      427     9708             PURPOSE:
      428     9709                   This routine will fully resolve a LIST definition.
      429     9710             DESCRIPTION:
      430     9711                   This routine works just as VMA$EXPAND_LIST does. The
      431     9712                   only difference is that it will resolve the address
      432     9713                   LIST specification into individual REGISTERED NAMES or
      433     9714                   accounts, rather just into GLOBAL LIST definitions,
      434     9715                   REGISTERED NAMES, or accounts.
      435     9716        */
      436     9717    1   VMA$EXPAND_LIST_FULL: ENTRY (ADDR_SPEC,WORK$,VM_SEARCH_INFO,SEARCH_LEVEL,
              9717            EXPAND_USER#) ALTRET;

   9717 12 000012   000000 700200 xent  VMA$EXPAND_* TSX0  ! X66_AUTO_5
        12 000013   000164 000005                    ZERO    116,5

      437     9718        /*
      438     9719             ***** Set the flag that determines whether to do a full
      439     9720                   or partial expansion ...
      440     9721        */
      441     9722    1       EXPAND# = %EXPAND_FULL;

   9722 12 000014   000001 235007                    LDA     1,DL
        12 000015   200014 755100                    STA     EXPAND#,,AUTO

      442     9723    1       GOTO EXPAND;

   9723 12 000016   000017 710000 12                 TRA     EXPAND

      443     9724        %EJECT;
PL6.E3A0      #002=VMA$EXPAND_LIST File=VMA$SUBR.:VMB6TSI                        WED 08/20/97 15:02 Page:78
      444     9725        /*
      445     9726             ***** Unless the address spec that is about to be expanded
      446     9727                   refers to the local site (primary or synonymous name)
      447     9728                   it must be copied exactly as is to the address list for
      448     9729                   later processing ...
      449     9730        */
      450     9731    1   EXPAND:
      451     9732    1       CALL VMA$GET_SITE_NAME (ADDR_SPEC.SITENAME, SITENAME)

   9732 12 000017   200015 630500       EXPAND       EPPR0   SITENAME,,AUTO
        12 000020   200151 450500                    STP0    VM_UADDRESS+70,,AUTO
        12 000021   200003 236100                    LDQ     @ADDR_SPEC,,AUTO
        12 000022   000001 036000 13                 ADLQ    1
        12 000023   200150 756100                    STQ     VM_UADDRESS+69,,AUTO
        12 000024   200150 630500                    EPPR0   VM_UADDRESS+69,,AUTO
        12 000025   000000 631400 13                 EPPR1   0
        12 000026   000000 701000 xent               TSX1    VMA$GET_SITE_NAME
        12 000027   000031 702000 12                 TSX2    s:9734
        12 000030   000037 710000 12                 TRA     s:9736

      452     9733    2       WHENALTRETURN DO;

      453     9734    2           call xlate( SITENAME, LOWER_UPPER, ADDR_SPEC.SITENAME );

   9734 12 000031   200003 470500                    LDP0    @ADDR_SPEC,,AUTO
        12 000032   000000 471400 xsym               LDP1    B$XL_UPPER$
        12 000033   040100 160500                    MVT     fill='040'O
        12 000034   000017 600010                    ADSC9   15,,PR0                  cn=3,n=8
        12 000035   200015 000010                    ADSC9   SITENAME,,AUTO           cn=0,n=8
        12 000036   100000 000100                    ARG     0,,PR1

      454     9735    2       END;

      455     9736    1       IF SITENAME ~= ' ' AND SITENAME ~= VM_SITENAME

   9736 12 000037   040000 106500                    CMPC    fill='040'O
        12 000040   200015 000010                    ADSC9   SITENAME,,AUTO           cn=0,n=8
PL6.E3A0      #002=VMA$EXPAND_LIST File=VMA$SUBR.:VMB6TSI                        WED 08/20/97 15:02 Page:79
        12 000041   000002 000001 13                 ADSC9   2                        cn=0,n=1
        12 000042   000050 600000 12                 TZE     s:9744
        12 000043   040000 106500                    CMPC    fill='040'O
        12 000044   200015 000010                    ADSC9   SITENAME,,AUTO           cn=0,n=8
        12 000045   000000 000010 xsym               ADSC9   VM_SITENAME              cn=0,n=8
        12 000046   000050 600000 12                 TZE     s:9744

      456     9737    1       THEN                            /* Not a local definition */
      457     9738    2       DO;                          /* Copy ADDR_SPEC unchanged */

      458     9739    2           GOTO STORE_ADDRESS;

   9739 12 000047   000604 710000 12                 TRA     STORE_ADDRESS

      459     9740    2       END;
      460     9741        /*
      461     9742             ***** Try to find a list definition for this ADDR_SPEC ...
      462     9743        */
      463     9744    1       VM_LISTKEY.TEXT = SUBSTR(ADDR_SPEC.USER_NAME.TEXT,0,ADDR_SPEC.USER_NAME.COUNT);

   9744 12 000050   200003 470500                    LDP0    @ADDR_SPEC,,AUTO
        12 000051   000021 720100                    LXL0    17,,PR0
        12 000052   000777 360003                    ANX0    511,DU
        12 000053   040000 100540                    MLR     fill='040'O
        12 000054   000022 000010                    ADSC9   18,,PR0                  cn=0,n=*X0
        12 000055   000000 400310 11                 ADSC9   VM_LISTKEY               cn=2,n=200

      464     9745    1       IF ADDR(SEARCH_LEVEL) ~= ADDR(NIL)

   9745 12 000056   200006 236100                    LDQ     @SEARCH_LEVEL,,AUTO
        12 000057   000003 116000 13                 CMPQ    3
        12 000060   000065 600000 12                 TZE     s:9749

      465     9746    1       THEN
      466     9747    1           SEARCH_INDX = SEARCH_LEVEL;

   9747 12 000061   200006 471500                    LDP1    @SEARCH_LEVEL,,AUTO
PL6.E3A0      #002=VMA$EXPAND_LIST File=VMA$SUBR.:VMB6TSI                        WED 08/20/97 15:02 Page:80
        12 000062   100000 235100                    LDA     0,,PR1
        12 000063   200011 755100                    STA     SEARCH_INDX,,AUTO
        12 000064   000066 710000 12                 TRA     s:9750

      467     9748    1       ELSE                            /* Start at bottom */
      468     9749    1           SEARCH_INDX = 0;

   9749 12 000065   200011 450100                    STZ     SEARCH_INDX,,AUTO

      469     9750    1       IF (SEARCH_INDX + 1) > VM_SEARCH_INFO.NUM_ENTRIES

   9750 12 000066   200005 471500                    LDP1    @VM_SEARCH_INFO,,AUTO
        12 000067   200011 236100                    LDQ     SEARCH_INDX,,AUTO
        12 000070   000073 604000 12                 TMI     TRY_AGAIN
        12 000071   100000 116100                    CMPQ    0,,PR1
        12 000072   000627 603000 12                 TRC     STORE_ERR_ADDRESS

      470     9751    1       THEN                            /* Not that many levels available */
      471     9752    1           GOTO STORE_ERR_ADDRESS;
      472     9753    1   TRY_AGAIN:
      473     9754    1       CALL VMA$GET_LIST (VM_LISTKEY,WORK$,

   9754 12 000073   200011 236100       TRY_AGAIN    LDQ     SEARCH_INDX,,AUTO
        12 000074   000022 736000                    QLS     18
        12 000075   000001 036003                    ADLQ    1,DU
        12 000076   200005 036100                    ADLQ    @VM_SEARCH_INFO,,AUTO
        12 000077   200152 756100                    STQ     VM_UADDRESS+71,,AUTO
        12 000100   200004 236100                    LDQ     @WORK$,,AUTO
        12 000101   000005 235000 13                 LDA     5
        12 000102   200150 757100                    STAQ    VM_UADDRESS+69,,AUTO
        12 000103   200150 630500                    EPPR0   VM_UADDRESS+69,,AUTO
        12 000104   000004 631400 13                 EPPR1   4
        12 000105   000000 701000 xent               TSX1    VMA$GET_LIST
        12 000106   000110 702000 12                 TSX2    E_READ

      474     9755    1         VM_SEARCH_INFO.DCB#(SEARCH_INDX)) ALTRET(E_READ);
      475     9756    2       DO NEVER;
PL6.E3A0      #002=VMA$EXPAND_LIST File=VMA$SUBR.:VMB6TSI                        WED 08/20/97 15:02 Page:81

   9756 12 000107   000156 710000 12                 TRA     s:9792

      476     9757    2   E_READ:
      477     9758    2           IF B$TCB.ALT$ -> B$ALT.ERR.CODE = %E$NOKEY

   9758 12 000110   000000 470400 xsym  E_READ       LDP0    B$TCB$
        12 000111   000000 471500                    LDP1    0,,PR0
        12 000112   100102 236100                    LDQ     66,,PR1
        12 000113   377770 376007                    ANQ     131064,DL
        12 000114   001020 116007                    CMPQ    528,DL
        12 000115   000155 601000 12                 TNZ     s:9786

      478     9759    2           THEN
      479     9760    3           DO;                    /* Search another folder */

      480     9761    3               SEARCH_INDX = SEARCH_INDX + 1;

   9761 12 000116   200011 054100                    AOS     SEARCH_INDX,,AUTO

      481     9762    3               IF SEARCH_INDX = VM_SEARCH_INFO.NUM_ENTRIES

   9762 12 000117   200005 473500                    LDP3    @VM_SEARCH_INFO,,AUTO
        12 000120   200011 236100                    LDQ     SEARCH_INDX,,AUTO
        12 000121   000154 604000 12                 TMI     s:9781
        12 000122   300000 116100                    CMPQ    0,,PR3
        12 000123   000154 601000 12                 TNZ     s:9781

      482     9763    3               THEN            /* Must not be defined as a list */
      483     9764    4               DO;

      484     9765        /*
      485     9766             ***** See if it is a registered name ...
      486     9767        */
      487     9768    4                   VM_USERKEY.TEXT = VM_LISTKEY.TEXT;

   9768 12 000124   040000 100400                    MLR     fill='040'O
PL6.E3A0      #002=VMA$EXPAND_LIST File=VMA$SUBR.:VMB6TSI                        WED 08/20/97 15:02 Page:82
        12 000125   000000 400310 11                 ADSC9   VM_LISTKEY               cn=2,n=200
        12 000126   000063 400310 11                 ADSC9   VM_USERKEY               cn=2,n=200

      488     9769    4                   CALL VMA$GET_LIST (VM_USERKEY,WORK$,

   9769 12 000127   000006 236000 13                 LDQ     6
        12 000130   200152 756100                    STQ     VM_UADDRESS+71,,AUTO
        12 000131   200004 236100                    LDQ     @WORK$,,AUTO
        12 000132   000007 235000 13                 LDA     7
        12 000133   200150 757100                    STAQ    VM_UADDRESS+69,,AUTO
        12 000134   200150 630500                    EPPR0   VM_UADDRESS+69,,AUTO
        12 000135   000004 631400 13                 EPPR1   4
        12 000136   000000 701000 xent               TSX1    VMA$GET_LIST
        12 000137   000627 702000 12                 TSX2    STORE_ERR_ADDRESS

      489     9770    4                     M$MAIL_GLOBAL_NUM) ALTRET(STORE_ERR_ADDRESS);
      490     9771    4                   IF EXPAND# ~= %EXPAND_FULL

   9771 12 000140   200014 235100                    LDA     EXPAND#,,AUTO
        12 000141   000001 115007                    CMPA    1,DL
        12 000142   000604 601000 12                 TNZ     STORE_ADDRESS

      491     9772    4                   THEN /* Don't expand user def */
      492     9773    4                       GOTO STORE_ADDRESS;
      493     9774    4                   IF ADDR(EXPAND_USER#) ~= ADDR(NIL)

   9774 12 000143   200007 236100                    LDQ     @EXPAND_USER#,,AUTO
        12 000144   000003 116000 13                 CMPQ    3
        12 000145   000153 600000 12                 TZE     s:9779
        12 000146   200007 470500                    LDP0    @EXPAND_USER#,,AUTO
        12 000147   000000 066500                    CMPB    filb='0'B
        12 000150   000000 000001                    BDSC    0,,PR0                   by=0,bit=0,n=1
        12 000151   000010 000022 13                 BDSC    8                        by=0,bit=0,n=18
        12 000152   000604 600000 12                 TZE     STORE_ADDRESS

      494     9775    4                     AND EXPAND_USER# = %NO#
      495     9776    4                   THEN /* Don't expand user def */
PL6.E3A0      #002=VMA$EXPAND_LIST File=VMA$SUBR.:VMB6TSI                        WED 08/20/97 15:02 Page:83
      496     9777    4                       GOTO STORE_ADDRESS;
      497     9778    4                   ELSE
      498     9779    4                       GOTO MOVE_USER_DEF;

   9779 12 000153   000431 710000 12                 TRA     MOVE_USER_DEF

      499     9780    4               END;
      500     9781    3               GOTO TRY_AGAIN;

   9781 12 000154   000073 710000 12                 TRA     TRY_AGAIN

      501     9782    3           END;
      502     9783        /*
      503     9784             ***** Otherwise, some other bad error. Abort processing ...
      504     9785        */
      505     9786    2           ALTRETURN;

   9786 12 000155   000000 702200 xent               TSX2  ! X66_AALT

      506     9787    2       END;                            /* Do never ... end */

      507     9788        /*
      508     9789             ***** If the address list contains no entries,
      509     9790                   then this is an error. Report it...
      510     9791        */
      511     9792    1       IF VM_ADD_HEAD.NUM_ENTRIES = 0

   9792 12 000156   200004 470500                    LDP0    @WORK$,,AUTO
        12 000157   000000 471500                    LDP1    0,,PR0
        12 000160   100001 235100                    LDA     1,,PR1
        12 000161   000163 601000 12                 TNZ     s:9804

      512     9793    1       THEN
      513     9794    2       DO;

      514     9795    2           GOTO STORE_ERR_ADDRESS;

PL6.E3A0      #002=VMA$EXPAND_LIST File=VMA$SUBR.:VMB6TSI                        WED 08/20/97 15:02 Page:84
   9795 12 000162   000627 710000 12                 TRA     STORE_ERR_ADDRESS

      515     9796    2       END;
      516     9797        /*
      517     9798             ***** A definition was found.
      518     9799                   If the definition is the global address list
      519     9800                   definition then it must not be expanded any further,
      520     9801                   unless, EXPAND_FULL was specified.
      521     9802                   If not, then expand this definition ...
      522     9803        */
      523     9804    1       IF VM_SEARCH_INFO.DCB#(SEARCH_INDX) = M$MAIL_GLOBAL_NUM

   9804 12 000163   200005 473500                    LDP3    @VM_SEARCH_INFO,,AUTO
        12 000164   200011 720100                    LXL0    SEARCH_INDX,,AUTO
        12 000165   300001 236110                    LDQ     1,X0,PR3
        12 000166   000000 116000 xsym               CMPQ    M$MAIL_GLOBAL_NUM
        12 000167   000174 601000 12                 TNZ     s:9813
        12 000170   200014 235100                    LDA     EXPAND#,,AUTO
        12 000171   000002 115007                    CMPA    2,DL
        12 000172   000174 601000 12                 TNZ     s:9813

      524     9805    1         AND EXPAND# = %EXPAND_LOCAL
      525     9806    1       THEN
      526     9807    2       DO;                          /* Expand no further */

      527     9808    2           GOTO STORE_ADDRESS;

   9808 12 000173   000604 710000 12                 TRA     STORE_ADDRESS

      528     9809    2       END;
      529     9810        /*
      530     9811             ***** Try to resolve it further ...
      531     9812        */
      532     9813    1       NEXT$ = VM_ADD_HEAD.HEAD$;        /* First list def */

   9813 12 000174   100003 236100                    LDQ     3,,PR1
        12 000175   200010 756100                    STQ     NEXT$,,AUTO
PL6.E3A0      #002=VMA$EXPAND_LIST File=VMA$SUBR.:VMB6TSI                        WED 08/20/97 15:02 Page:85

      533     9814    2       DO FOREVER;

      534     9815    2           CALL VMA$GET_NEXT_ENTRY (VM_UADDRESS,VM_RADDRESS,NEXT$,WORK$) ALTRET(
              9815                    END_LOOP);

   9815 12 000176   200004 236100                    LDQ     @WORK$,,AUTO
        12 000177   200153 756100                    STQ     VM_UADDRESS+72,,AUTO
        12 000200   200010 630500                    EPPR0   NEXT$,,AUTO
        12 000201   200152 450500                    STP0    VM_UADDRESS+71,,AUTO
        12 000202   200017 631500                    EPPR1   VM_RADDRESS,,AUTO
        12 000203   200151 451500                    STP1    VM_UADDRESS+70,,AUTO
        12 000204   200043 633500                    EPPR3   VM_UADDRESS,,AUTO
        12 000205   200150 453500                    STP3    VM_UADDRESS+69,,AUTO
        12 000206   200150 630500                    EPPR0   VM_UADDRESS+69,,AUTO
        12 000207   000011 631400 13                 EPPR1   9
        12 000210   000000 701000 xent               TSX1    VMA$GET_NEXT_ENTRY
        12 000211   000427 702000 12                 TSX2    END_LOOP

      535     9816    2           IF VM_UADDRESS.TYPE = %VM_ADD_RESOLVED

   9816 12 000212   200045 236100                    LDQ     VM_UADDRESS+2,,AUTO
        12 000213   000777 376003                    ANQ     511,DU
        12 000214   000001 116003                    CMPQ    1,DU
        12 000215   000243 601000 12                 TNZ     s:9824

      536     9817    2           THEN                       /* No further resolution needed */
      537     9818    3           DO;

      538     9819    3               CALL VMA$ADD_RENTRY (VM_RADDRESS.ACCT,VM_RADDRESS.FOLDER,

   9819 12 000216   200154 452500                    STP2    VM_UADDRESS+73,,AUTO
        12 000217   200154 236100                    LDQ     VM_UADDRESS+73,,AUTO
        12 000220   000012 036000 13                 ADLQ    10
        12 000221   200153 756100                    STQ     VM_UADDRESS+72,,AUTO
        12 000222   200155 452500                    STP2    VM_UADDRESS+74,,AUTO
        12 000223   200155 236100                    LDQ     VM_UADDRESS+74,,AUTO
PL6.E3A0      #002=VMA$EXPAND_LIST File=VMA$SUBR.:VMB6TSI                        WED 08/20/97 15:02 Page:86
        12 000224   000013 036000 13                 ADLQ    11
        12 000225   200152 756100                    STQ     VM_UADDRESS+71,,AUTO
        12 000226   200156 452500                    STP2    VM_UADDRESS+75,,AUTO
        12 000227   200156 236100                    LDQ     VM_UADDRESS+75,,AUTO
        12 000230   000014 036000 13                 ADLQ    12
        12 000231   200151 756100                    STQ     VM_UADDRESS+70,,AUTO
        12 000232   200157 452500                    STP2    VM_UADDRESS+76,,AUTO
        12 000233   200157 236100                    LDQ     VM_UADDRESS+76,,AUTO
        12 000234   000015 036000 13                 ADLQ    13
        12 000235   200150 756100                    STQ     VM_UADDRESS+69,,AUTO
        12 000236   200150 630500                    EPPR0   VM_UADDRESS+69,,AUTO
        12 000237   000011 631400 13                 EPPR1   9
        12 000240   000000 701000 xent               TSX1    VMA$ADD_RENTRY
        12 000241   000430 702000 12                 TSX2    E_PMME

      539     9820    3                 VM_RADDRESS.PASS,VM_RADDRESS.SITENAME) ALTRET(E_PMME);
      540     9821    3           END;

   9821 12 000242   000425 710000 12                 TRA     s:9877

      541     9822    2           ELSE                       /* Need to resolve this further */
      542     9823    3           DO;

      543     9824    3               NEW_WORK$ = PINCRW(WORK$,VM_ADD_HEAD.ADDRESS_SIZE);

   9824 12 000243   200004 470500                    LDP0    @WORK$,,AUTO
        12 000244   000000 471500                    LDP1    0,,PR0
        12 000245   100000 720100                    LXL0    0,,PR1
        12 000246   100000 633510                    EPPR3   0,X0,PR1
        12 000247   200012 453500                    STP3    NEW_WORK$,,AUTO

      544     9825        /*
      545     9826             ***** If this entry is the same as the name of the
      546     9827                   ADDRESS_SPEC, then we have a recursive definition.
      547     9828                   Further expansion of this entry must take place at
      548     9829                   a higher level so as to avoid loops ...
      549     9830        */
PL6.E3A0      #002=VMA$EXPAND_LIST File=VMA$SUBR.:VMB6TSI                        WED 08/20/97 15:02 Page:87
      550     9831    3               IF SUBSTR(VM_UADDRESS.USER_NAME.TEXT,0,VM_UADDRESS.USER_NAME.COUNT) =

   9831 12 000250   200064 720100                    LXL0    VM_UADDRESS+17,,AUTO
        12 000251   000777 360003                    ANX0    511,DU
        12 000252   200003 471500                    LDP1    @ADDR_SPEC,,AUTO
        12 000253   100021 721100                    LXL1    17,,PR1
        12 000254   000777 361003                    ANX1    511,DU
        12 000255   040140 106540                    CMPC    fill='040'O
        12 000256   200065 000010                    ADSC9   VM_UADDRESS+18,,AUTO     cn=0,n=*X0
        12 000257   100022 000011                    ADSC9   18,,PR1                  cn=0,n=*X1
        12 000260   000265 601000 12                 TNZ     s:9836

      551     9832    3                 SUBSTR(ADDR_SPEC.USER_NAME.TEXT,0,ADDR_SPEC.USER_NAME.COUNT)
      552     9833    3               THEN
      553     9834    3                   NEW_SEARCH_LEVEL = SEARCH_INDX + 1;

   9834 12 000261   200011 235100                    LDA     SEARCH_INDX,,AUTO
        12 000262   000001 035007                    ADLA    1,DL
        12 000263   200013 755100                    STA     NEW_SEARCH_LEVEL,,AUTO
        12 000264   000266 710000 12                 TRA     s:9841

      554     9835    3               ELSE
      555     9836    3                   NEW_SEARCH_LEVEL = 0;

   9836 12 000265   200013 450100                    STZ     NEW_SEARCH_LEVEL,,AUTO

      556     9837                                                /*
      557     9838                                                    ***** If ADDR_SPEC contains a folder or
      558     9839                                           password spec, copy them into new address ...
      559     9840                                           */
      560     9841    3               IF ADDR_SPEC.FOLDER ~= ' '

   9841 12 000266   040000 106500                    CMPC    fill='040'O
        12 000267   100007 400031                    ADSC9   7,,PR1                   cn=2,n=25
        12 000270   000002 000001 13                 ADSC9   2                        cn=0,n=1
        12 000271   000275 600000 12                 TZE     s:9844

PL6.E3A0      #002=VMA$EXPAND_LIST File=VMA$SUBR.:VMB6TSI                        WED 08/20/97 15:02 Page:88
      561     9842    3               THEN
      562     9843    3                   VM_UADDRESS.FOLDER = ADDR_SPEC.FOLDER;

   9843 12 000272   040100 100500                    MLR     fill='040'O
        12 000273   100007 400031                    ADSC9   7,,PR1                   cn=2,n=25
        12 000274   200052 400031                    ADSC9   VM_UADDRESS+7,,AUTO      cn=2,n=25

      563     9844    3               IF ADDR_SPEC.PASS ~= ' '

   9844 12 000275   040000 106500                    CMPC    fill='040'O
        12 000276   100015 600010                    ADSC9   13,,PR1                  cn=3,n=8
        12 000277   000002 000001 13                 ADSC9   2                        cn=0,n=1
        12 000300   000304 600000 12                 TZE     s:9847

      564     9845    3               THEN
      565     9846    3                   VM_UADDRESS.PASS = ADDR_SPEC.PASS;

   9846 12 000301   040100 100500                    MLR     fill='040'O
        12 000302   100015 600010                    ADSC9   13,,PR1                  cn=3,n=8
        12 000303   200060 600010                    ADSC9   VM_UADDRESS+13,,AUTO     cn=3,n=8

      566     9847    3               IF EXPAND# = %EXPAND_FULL

   9847 12 000304   200014 235100                    LDA     EXPAND#,,AUTO
        12 000305   000001 115007                    CMPA    1,DL
        12 000306   000324 601000 12                 TNZ     s:9852

      567     9848    3               THEN
      568     9849    3                   CALL VMA$EXPAND_LIST_FULL (VM_UADDRESS,NEW_WORK$,

   9849 12 000307   200013 634500                    EPPR4   NEW_SEARCH_LEVEL,,AUTO
        12 000310   200153 454500                    STP4    VM_UADDRESS+72,,AUTO
        12 000311   200005 236100                    LDQ     @VM_SEARCH_INFO,,AUTO
        12 000312   200152 756100                    STQ     VM_UADDRESS+71,,AUTO
        12 000313   200012 635500                    EPPR5   NEW_WORK$,,AUTO
        12 000314   200151 455500                    STP5    VM_UADDRESS+70,,AUTO
        12 000315   200043 636500                    EPPR6   VM_UADDRESS,,AUTO
PL6.E3A0      #002=VMA$EXPAND_LIST File=VMA$SUBR.:VMB6TSI                        WED 08/20/97 15:02 Page:89
        12 000316   200150 456500                    STP6    VM_UADDRESS+69,,AUTO
        12 000317   200150 630500                    EPPR0   VM_UADDRESS+69,,AUTO
        12 000320   000011 631400 13                 EPPR1   9
        12 000321   000012 701000 12                 TSX1    s:9717
        12 000322   000426 702000 12                 TSX2    NOT_DEFINED
        12 000323   000425 710000 12                 TRA     s:9877

      569     9850    3                     VM_SEARCH_INFO,NEW_SEARCH_LEVEL) ALTRET(NOT_DEFINED);
      570     9851    4               ELSE DO;

      571     9852    4                   IF EXPAND# = %EXPAND_GLOBAL

   9852 12 000324   000003 115007                    CMPA    3,DL
        12 000325   000411 601000 12                 TNZ     s:9872

      572     9853    5                   THEN DO;

      573     9854        /*
      574     9855                ***** If we're not doing a FULL expansion, see if this resolves
      575     9856                      to a USER, and avoid further expansion if it does.
      576     9857        */
      577     9858    5                       VM_USERKEY.TEXT = SUBSTR (VM_UADDRESS.USER_NAME.TEXT, 0,

   9858 12 000326   200064 720100                    LXL0    VM_UADDRESS+17,,AUTO
        12 000327   000777 360003                    ANX0    511,DU
        12 000330   040000 100540                    MLR     fill='040'O
        12 000331   200065 000010                    ADSC9   VM_UADDRESS+18,,AUTO     cn=0,n=*X0
        12 000332   000063 400310 11                 ADSC9   VM_USERKEY               cn=2,n=200

      578     9859    5                         VM_UADDRESS.USER_NAME.COUNT);
      579     9860    5                       CALL VMA$GET_LIST (VM_USERKEY,NEW_WORK$,M$MAIL_GLOBAL_NUM)

   9860 12 000333   000006 236000 13                 LDQ     6
        12 000334   200152 756100                    STQ     VM_UADDRESS+71,,AUTO
        12 000335   200012 634500                    EPPR4   NEW_WORK$,,AUTO
        12 000336   200151 454500                    STP4    VM_UADDRESS+70,,AUTO
        12 000337   000007 236000 13                 LDQ     7
PL6.E3A0      #002=VMA$EXPAND_LIST File=VMA$SUBR.:VMB6TSI                        WED 08/20/97 15:02 Page:90
        12 000340   200150 756100                    STQ     VM_UADDRESS+69,,AUTO
        12 000341   200150 630500                    EPPR0   VM_UADDRESS+69,,AUTO
        12 000342   000004 631400 13                 EPPR1   4
        12 000343   000000 701000 xent               TSX1    VMA$GET_LIST
        12 000344   000374 702000 12                 TSX2    s:9867

      580     9861    6                       WHENRETURN DO;

      581     9862    6                           CALL VMA$ADD_UENTRY (VM_UADDRESS.USER_NAME, VM_UADDRESS.
              9862                                    FOLDER,

   9862 12 000345   000017 236000 13                 LDQ     15
        12 000346   200154 756100                    STQ     VM_UADDRESS+73,,AUTO
        12 000347   200155 452500                    STP2    VM_UADDRESS+74,,AUTO
        12 000350   200155 236100                    LDQ     VM_UADDRESS+74,,AUTO
        12 000351   000020 036000 13                 ADLQ    16
        12 000352   200153 756100                    STQ     VM_UADDRESS+72,,AUTO
        12 000353   200156 452500                    STP2    VM_UADDRESS+75,,AUTO
        12 000354   200156 236100                    LDQ     VM_UADDRESS+75,,AUTO
        12 000355   000021 036000 13                 ADLQ    17
        12 000356   200152 756100                    STQ     VM_UADDRESS+71,,AUTO
        12 000357   200157 452500                    STP2    VM_UADDRESS+76,,AUTO
        12 000360   200157 236100                    LDQ     VM_UADDRESS+76,,AUTO
        12 000361   000022 036000 13                 ADLQ    18
        12 000362   200151 756100                    STQ     VM_UADDRESS+70,,AUTO
        12 000363   200160 452500                    STP2    VM_UADDRESS+77,,AUTO
        12 000364   200160 236100                    LDQ     VM_UADDRESS+77,,AUTO
        12 000365   000023 036000 13                 ADLQ    19
        12 000366   200150 756100                    STQ     VM_UADDRESS+69,,AUTO
        12 000367   200150 630500                    EPPR0   VM_UADDRESS+69,,AUTO
        12 000370   000016 631400 13                 EPPR1   14
        12 000371   000000 701000 xent               TSX1    VMA$ADD_UENTRY
        12 000372   000430 702000 12                 TSX2    E_PMME

      582     9863    6                             VM_UADDRESS.PASS, VM_UADDRESS.SITENAME, %NO#)
      583     9864    6                             ALTRET(E_PMME);
      584     9865    6                       END;
PL6.E3A0      #002=VMA$EXPAND_LIST File=VMA$SUBR.:VMB6TSI                        WED 08/20/97 15:02 Page:91

   9865 12 000373   000410 710000 12                 TRA     s:9870

      585     9866    6                       WHENALTRETURN DO;

      586     9867    6                           CALL VMA$EXPAND_LIST_GLOBAL (VM_UADDRESS,NEW_WORK$,

   9867 12 000374   200013 630500                    EPPR0   NEW_SEARCH_LEVEL,,AUTO
        12 000375   200153 450500                    STP0    VM_UADDRESS+72,,AUTO
        12 000376   200005 236100                    LDQ     @VM_SEARCH_INFO,,AUTO
        12 000377   200152 756100                    STQ     VM_UADDRESS+71,,AUTO
        12 000400   200012 631500                    EPPR1   NEW_WORK$,,AUTO
        12 000401   200151 451500                    STP1    VM_UADDRESS+70,,AUTO
        12 000402   200043 633500                    EPPR3   VM_UADDRESS,,AUTO
        12 000403   200150 453500                    STP3    VM_UADDRESS+69,,AUTO
        12 000404   200150 630500                    EPPR0   VM_UADDRESS+69,,AUTO
        12 000405   000011 631400 13                 EPPR1   9
        12 000406   000005 701000 12                 TSX1    s:9698
        12 000407   000426 702000 12                 TSX2    NOT_DEFINED

      587     9868    6                             VM_SEARCH_INFO,NEW_SEARCH_LEVEL) ALTRET(NOT_DEFINED);
      588     9869    6                       END;

      589     9870    5                   END;

   9870 12 000410   000425 710000 12                 TRA     s:9877

      590     9871    5                   ELSE DO;

      591     9872    5                       CALL VMA$EXPAND_LIST (VM_UADDRESS,NEW_WORK$,

   9872 12 000411   200013 634500                    EPPR4   NEW_SEARCH_LEVEL,,AUTO
        12 000412   200153 454500                    STP4    VM_UADDRESS+72,,AUTO
        12 000413   200005 236100                    LDQ     @VM_SEARCH_INFO,,AUTO
        12 000414   200152 756100                    STQ     VM_UADDRESS+71,,AUTO
        12 000415   200012 635500                    EPPR5   NEW_WORK$,,AUTO
        12 000416   200151 455500                    STP5    VM_UADDRESS+70,,AUTO
PL6.E3A0      #002=VMA$EXPAND_LIST File=VMA$SUBR.:VMB6TSI                        WED 08/20/97 15:02 Page:92
        12 000417   200043 636500                    EPPR6   VM_UADDRESS,,AUTO
        12 000420   200150 456500                    STP6    VM_UADDRESS+69,,AUTO
        12 000421   200150 630500                    EPPR0   VM_UADDRESS+69,,AUTO
        12 000422   000011 631400 13                 EPPR1   9
        12 000423   000000 701000 12                 TSX1    s:48
        12 000424   000426 702000 12                 TSX2    NOT_DEFINED

      592     9873    5                         VM_SEARCH_INFO,NEW_SEARCH_LEVEL) ALTRET(NOT_DEFINED);
      593     9874    5                   END;

      594     9875    4               END;

      595     9876    3           END;

      596     9877    3           DO NEVER;

   9877 12 000425   000176 710000 12                 TRA     s:9815

   9870 12 000426                       NOT_DEFINED  null
      597     9878    3   NOT_DEFINED: ;
      598     9879    3               ALTRETURN;

   9879 12 000426   000000 702200 xent               TSX2  ! X66_AALT

      599     9880    3           END;                       /* Do never ... end */

      600     9881    2       END;                            /* Do forever ... end */

      601     9882    1   END_LOOP:
      602     9883    1       RETURN;

   9883 12 000427   000000 702200 xent  END_LOOP     TSX2  ! X66_ARET

      603     9884        /**/
      604     9885    1   E_PMME:
      605     9886    1       ALTRETURN;

PL6.E3A0      #002=VMA$EXPAND_LIST File=VMA$SUBR.:VMB6TSI                        WED 08/20/97 15:02 Page:93
   9886 12 000430   000000 702200 xent  E_PMME       TSX2  ! X66_AALT

      606     9887        /**/
      607     9888    1   MOVE_USER_DEF:
      608     9889    1       NEXT$ = VM_ADD_HEAD.HEAD$;

   9889 12 000431   200004 470500       MOVE_USER_D* LDP0    @WORK$,,AUTO
        12 000432   000000 471500                    LDP1    0,,PR0
        12 000433   100003 236100                    LDQ     3,,PR1
        12 000434   200010 756100                    STQ     NEXT$,,AUTO

      609     9890    2       DO FOREVER;

      610     9891    2           CALL VMA$GET_NEXT_ENTRY (VM_UADDRESS,VM_RADDRESS,NEXT$,WORK$) ALTRET(
              9891                    END_MOVE_USER);

   9891 12 000435   200004 236100                    LDQ     @WORK$,,AUTO
        12 000436   200153 756100                    STQ     VM_UADDRESS+72,,AUTO
        12 000437   200010 630500                    EPPR0   NEXT$,,AUTO
        12 000440   200152 450500                    STP0    VM_UADDRESS+71,,AUTO
        12 000441   200017 631500                    EPPR1   VM_RADDRESS,,AUTO
        12 000442   200151 451500                    STP1    VM_UADDRESS+70,,AUTO
        12 000443   200043 633500                    EPPR3   VM_UADDRESS,,AUTO
        12 000444   200150 453500                    STP3    VM_UADDRESS+69,,AUTO
        12 000445   200150 630500                    EPPR0   VM_UADDRESS+69,,AUTO
        12 000446   000011 631400 13                 EPPR1   9
        12 000447   000000 701000 xent               TSX1    VMA$GET_NEXT_ENTRY
        12 000450   000603 702000 12                 TSX2    END_MOVE_USER

      611     9892        /*
      612     9893             ***** If ADDR_SPEC contains a folder or
      613     9894                   password spec, copy them into new address ...
      614     9895        */
      615     9896    2           IF ADDR_SPEC.FOLDER ~= ' '

   9896 12 000451   200003 470500                    LDP0    @ADDR_SPEC,,AUTO
        12 000452   040000 106500                    CMPC    fill='040'O
PL6.E3A0      #002=VMA$EXPAND_LIST File=VMA$SUBR.:VMB6TSI                        WED 08/20/97 15:02 Page:94
        12 000453   000007 400031                    ADSC9   7,,PR0                   cn=2,n=25
        12 000454   000002 000001 13                 ADSC9   2                        cn=0,n=1
        12 000455   000464 600000 12                 TZE     s:9902

      616     9897    2           THEN
      617     9898    3           DO;

      618     9899    3               VM_RADDRESS.FOLDER = ADDR_SPEC.FOLDER;

   9899 12 000456   040100 100500                    MLR     fill='040'O
        12 000457   000007 400031                    ADSC9   7,,PR0                   cn=2,n=25
        12 000460   200026 400031                    ADSC9   VM_RADDRESS+7,,AUTO      cn=2,n=25

      619     9900    3               VM_UADDRESS.FOLDER = ADDR_SPEC.FOLDER;

   9900 12 000461   040100 100500                    MLR     fill='040'O
        12 000462   000007 400031                    ADSC9   7,,PR0                   cn=2,n=25
        12 000463   200052 400031                    ADSC9   VM_UADDRESS+7,,AUTO      cn=2,n=25

      620     9901    3           END;

      621     9902    2           IF ADDR_SPEC.PASS ~= ' '

   9902 12 000464   040000 106500                    CMPC    fill='040'O
        12 000465   000015 600010                    ADSC9   13,,PR0                  cn=3,n=8
        12 000466   000002 000001 13                 ADSC9   2                        cn=0,n=1
        12 000467   000476 600000 12                 TZE     s:9908

      622     9903    2           THEN
      623     9904    3           DO;

      624     9905    3               VM_RADDRESS.PASS = ADDR_SPEC.PASS;

   9905 12 000470   040100 100500                    MLR     fill='040'O
        12 000471   000015 600010                    ADSC9   13,,PR0                  cn=3,n=8
        12 000472   200034 600010                    ADSC9   VM_RADDRESS+13,,AUTO     cn=3,n=8

PL6.E3A0      #002=VMA$EXPAND_LIST File=VMA$SUBR.:VMB6TSI                        WED 08/20/97 15:02 Page:95
      625     9906    3               VM_UADDRESS.PASS = ADDR_SPEC.PASS;

   9906 12 000473   040100 100500                    MLR     fill='040'O
        12 000474   000015 600010                    ADSC9   13,,PR0                  cn=3,n=8
        12 000475   200060 600010                    ADSC9   VM_UADDRESS+13,,AUTO     cn=3,n=8

      626     9907    3           END;

      627     9908    2           IF VM_UADDRESS.TYPE = %VM_ADD_RESOLVED AND VM_RADDRESS.ACCT ~= ' '

   9908 12 000476   200045 236100                    LDQ     VM_UADDRESS+2,,AUTO
        12 000477   000777 376003                    ANQ     511,DU
        12 000500   000001 116003                    CMPQ    1,DU
        12 000501   000540 601000 12                 TNZ     s:9914
        12 000502   040000 106500                    CMPC    fill='040'O
        12 000503   200040 600010                    ADSC9   VM_RADDRESS+17,,AUTO     cn=3,n=8
        12 000504   000002 000001 13                 ADSC9   2                        cn=0,n=1
        12 000505   000540 600000 12                 TZE     s:9914

      628     9909    2           THEN
      629     9910    2               CALL VMA$ADD_RENTRY (VM_RADDRESS.ACCT,VM_RADDRESS.FOLDER,

   9910 12 000506   200156 452500                    STP2    VM_UADDRESS+75,,AUTO
        12 000507   200156 236100                    LDQ     VM_UADDRESS+75,,AUTO
        12 000510   000025 036000 13                 ADLQ    21
        12 000511   000017 235000 13                 LDA     15
        12 000512   200154 757100                    STAQ    VM_UADDRESS+73,,AUTO
        12 000513   200157 452500                    STP2    VM_UADDRESS+76,,AUTO
        12 000514   200157 236100                    LDQ     VM_UADDRESS+76,,AUTO
        12 000515   000012 036000 13                 ADLQ    10
        12 000516   200153 756100                    STQ     VM_UADDRESS+72,,AUTO
        12 000517   200160 452500                    STP2    VM_UADDRESS+77,,AUTO
        12 000520   200160 236100                    LDQ     VM_UADDRESS+77,,AUTO
        12 000521   000013 036000 13                 ADLQ    11
        12 000522   200152 756100                    STQ     VM_UADDRESS+71,,AUTO
        12 000523   200161 452500                    STP2    VM_UADDRESS+78,,AUTO
        12 000524   200161 236100                    LDQ     VM_UADDRESS+78,,AUTO
PL6.E3A0      #002=VMA$EXPAND_LIST File=VMA$SUBR.:VMB6TSI                        WED 08/20/97 15:02 Page:96
        12 000525   000014 036000 13                 ADLQ    12
        12 000526   200151 756100                    STQ     VM_UADDRESS+70,,AUTO
        12 000527   200162 452500                    STP2    VM_UADDRESS+79,,AUTO
        12 000530   200162 236100                    LDQ     VM_UADDRESS+79,,AUTO
        12 000531   000015 036000 13                 ADLQ    13
        12 000532   200150 756100                    STQ     VM_UADDRESS+69,,AUTO
        12 000533   200150 630500                    EPPR0   VM_UADDRESS+69,,AUTO
        12 000534   000024 631400 13                 EPPR1   20
        12 000535   000000 701000 xent               TSX1    VMA$ADD_RENTRY
        12 000536   000430 702000 12                 TSX2    E_PMME
        12 000537   000576 710000 12                 TRA     s:9926

      630     9911    2                 VM_RADDRESS.PASS,VM_RADDRESS.SITENAME,%NO#,
      631     9912    2                 VM_RADDRESS.NAME_KEY) ALTRET(E_PMME);
      632     9913    3           ELSE DO;

      633     9914    3               IF VM_UADDRESS.TYPE = %VM_ADD_RESOLVED

   9914 12 000540   000001 116003                    CMPQ    1,DU
        12 000541   000545 601000 12                 TNZ     s:9918

      634     9915
      635     9916                                                /* User is defined only as (,,@site) */
      636     9917    3               THEN VM_UADDRESS.USER_NAME = ADDR_SPEC.USER_NAME;

   9917 12 000542   000100 100500                    MLR     fill='000'O
        12 000543   000021 600311                    ADSC9   17,,PR0                  cn=3,n=201
        12 000544   200064 600311                    ADSC9   VM_UADDRESS+17,,AUTO     cn=3,n=201

      637     9918    3               CALL VMA$ADD_UENTRY (VM_UADDRESS.USER_NAME,VM_UADDRESS.FOLDER,

   9918 12 000545   200156 452500                    STP2    VM_UADDRESS+75,,AUTO
        12 000546   200156 236100                    LDQ     VM_UADDRESS+75,,AUTO
        12 000547   000026 036000 13                 ADLQ    22
        12 000550   000017 235000 13                 LDA     15
        12 000551   200154 757100                    STAQ    VM_UADDRESS+73,,AUTO
        12 000552   200157 452500                    STP2    VM_UADDRESS+76,,AUTO
PL6.E3A0      #002=VMA$EXPAND_LIST File=VMA$SUBR.:VMB6TSI                        WED 08/20/97 15:02 Page:97
        12 000553   200157 236100                    LDQ     VM_UADDRESS+76,,AUTO
        12 000554   000020 036000 13                 ADLQ    16
        12 000555   200153 756100                    STQ     VM_UADDRESS+72,,AUTO
        12 000556   200160 452500                    STP2    VM_UADDRESS+77,,AUTO
        12 000557   200160 236100                    LDQ     VM_UADDRESS+77,,AUTO
        12 000560   000021 036000 13                 ADLQ    17
        12 000561   200152 756100                    STQ     VM_UADDRESS+71,,AUTO
        12 000562   200161 452500                    STP2    VM_UADDRESS+78,,AUTO
        12 000563   200161 236100                    LDQ     VM_UADDRESS+78,,AUTO
        12 000564   000022 036000 13                 ADLQ    18
        12 000565   200151 756100                    STQ     VM_UADDRESS+70,,AUTO
        12 000566   200162 452500                    STP2    VM_UADDRESS+79,,AUTO
        12 000567   200162 236100                    LDQ     VM_UADDRESS+79,,AUTO
        12 000570   000023 036000 13                 ADLQ    19
        12 000571   200150 756100                    STQ     VM_UADDRESS+69,,AUTO
        12 000572   200150 630500                    EPPR0   VM_UADDRESS+69,,AUTO
        12 000573   000024 631400 13                 EPPR1   20
        12 000574   000000 701000 xent               TSX1    VMA$ADD_UENTRY
        12 000575   000430 702000 12                 TSX2    E_PMME

      638     9919    3                 VM_UADDRESS.PASS,VM_UADDRESS.SITENAME,%NO#,
      639     9920    3                 VM_UADDRESS.NAME_KEY) ALTRET(E_PMME);
      640     9921    3           END;

      641     9922        /*
      642     9923             ***** Depend upon VM_ADD_HEAD.HEAD$ to point
      643     9924                   to the entry just added ...
      644     9925        */
      645     9926    2           VM_ADDLIST$ -> VM_ADD_HEAD.HEAD$ -> VM$RADDRESS.FLAGS.USER# = %YES#;

   9926 12 000576   000000 470400 xsym               LDP0    VM_ADDLIST$
        12 000577   000003 471500                    LDP1    3,,PR0
        12 000600   200000 236003                    LDQ     65536,DU
        12 000601   100002 256100                    ORSQ    2,,PR1

      646     9927    2       END;                            /* Do forever ... end */

PL6.E3A0      #002=VMA$EXPAND_LIST File=VMA$SUBR.:VMB6TSI                        WED 08/20/97 15:02 Page:98
   9927 12 000602   000435 710000 12                 TRA     s:9891

      647     9928    1   END_MOVE_USER:
      648     9929    1       RETURN;

   9929 12 000603   000000 702200 xent  END_MOVE_US* TSX2  ! X66_ARET

      649     9930        /**/
      650     9931    1   STORE_ADDRESS:
      651     9932    1       CALL VMA$ADD_UENTRY (ADDR_SPEC.USER_NAME,ADDR_SPEC.FOLDER,

   9932 12 000604   000017 236000 13    STORE_ADDRE* LDQ     15
        12 000605   200154 756100                    STQ     VM_UADDRESS+73,,AUTO
        12 000606   200003 236100                    LDQ     @ADDR_SPEC,,AUTO
        12 000607   000001 036000 13                 ADLQ    1
        12 000610   200153 756100                    STQ     VM_UADDRESS+72,,AUTO
        12 000611   200003 236100                    LDQ     @ADDR_SPEC,,AUTO
        12 000612   000027 036000 13                 ADLQ    23
        12 000613   200152 756100                    STQ     VM_UADDRESS+71,,AUTO
        12 000614   200003 236100                    LDQ     @ADDR_SPEC,,AUTO
        12 000615   000030 036000 13                 ADLQ    24
        12 000616   200151 756100                    STQ     VM_UADDRESS+70,,AUTO
        12 000617   200003 236100                    LDQ     @ADDR_SPEC,,AUTO
        12 000620   000031 036000 13                 ADLQ    25
        12 000621   200150 756100                    STQ     VM_UADDRESS+69,,AUTO
        12 000622   200150 630500                    EPPR0   VM_UADDRESS+69,,AUTO
        12 000623   000016 631400 13                 EPPR1   14
        12 000624   000000 701000 xent               TSX1    VMA$ADD_UENTRY
        12 000625   000430 702000 12                 TSX2    E_PMME

      652     9933    1         ADDR_SPEC.PASS,ADDR_SPEC.SITENAME,%NO#) ALTRET(E_PMME);
      653     9934    1       RETURN;

   9934 12 000626   000000 702200 xent               TSX2  ! X66_ARET

      654     9935        /**/
      655     9936    1   STORE_ERR_ADDRESS:
PL6.E3A0      #002=VMA$EXPAND_LIST File=VMA$SUBR.:VMB6TSI                        WED 08/20/97 15:02 Page:99
      656     9937    1       CALL VMA$ADD_UENTRY (ADDR_SPEC.USER_NAME,ADDR_SPEC.FOLDER,

   9937 12 000627   000033 236000 13    STORE_ERR_A* LDQ     27
        12 000630   200154 756100                    STQ     VM_UADDRESS+73,,AUTO
        12 000631   200003 236100                    LDQ     @ADDR_SPEC,,AUTO
        12 000632   000001 036000 13                 ADLQ    1
        12 000633   200153 756100                    STQ     VM_UADDRESS+72,,AUTO
        12 000634   200003 236100                    LDQ     @ADDR_SPEC,,AUTO
        12 000635   000027 036000 13                 ADLQ    23
        12 000636   200152 756100                    STQ     VM_UADDRESS+71,,AUTO
        12 000637   200003 236100                    LDQ     @ADDR_SPEC,,AUTO
        12 000640   000030 036000 13                 ADLQ    24
        12 000641   200151 756100                    STQ     VM_UADDRESS+70,,AUTO
        12 000642   200003 236100                    LDQ     @ADDR_SPEC,,AUTO
        12 000643   000031 036000 13                 ADLQ    25
        12 000644   200150 756100                    STQ     VM_UADDRESS+69,,AUTO
        12 000645   200150 630500                    EPPR0   VM_UADDRESS+69,,AUTO
        12 000646   000016 631400 13                 EPPR1   14
        12 000647   000000 701000 xent               TSX1    VMA$ADD_UENTRY
        12 000650   000430 702000 12                 TSX2    E_PMME

      657     9938    1         ADDR_SPEC.PASS,ADDR_SPEC.SITENAME,%YES#) ALTRET(E_PMME);
      658     9939    1       RETURN;                           /** Used to altret **/

   9939 12 000651   000000 702200 xent               TSX2  ! X66_ARET

VM_LISTKEY
 Sect OctLoc
  11     000   311074 ******   ****** ******   ****** ******   ****** ******    .<..............
  11     060*  ****** ******   ****** ******   ****** ******                    ............

VM_USERKEY
 Sect OctLoc
  11     063   311120 ******   ****** ******   ****** ******   ****** ******    .P..............
  11     143*  ****** ******   ****** ******   ****** ******                    ............

(unnamed)
PL6.E3A0      #002=VMA$EXPAND_LIST File=VMA$SUBR.:VMB6TSI                        WED 08/20/97 15:02 Page:100
 Sect OctLoc
  13     000   000002 000000   000017 600000   040040 040040   000000 006014    ........    ....
  13     004   000003 000000   000000 006000   000000 006000   000063 006000    .............3..
  13     010   000000 000000   000004 000000   000036 600000   000034 600000    ................
  13     014   000026 400000   000040 600000   000005 000000   000010 006000    ..... ..........
  13     020   000062 600000   000060 600000   000052 400000   000064 600000    .2...0...*...4..
  13     024   000006 000000   000021 400000   000045 400000   000015 600000    .........%......
  13     030   000007 400000   000021 600000   400000 000000   000032 006000    ................
      659     9940    1   END VMA$EXPAND_LIST;
      660     9941        %EOD;

PL6.E3A0      #002=VMA$EXPAND_LIST File=VMA$SUBR.:VMB6TSI                        WED 08/20/97 15:02 Page:101
--  Include file information  --

   B$TABLES_C.:LIB_E05  cannot be made into a system file and is referenced.
   B_MACROS_C.:LIB_E05  is referenced.
   VM_DATA_R.:VMB6TOU  cannot be made into a system file and is referenced.
   VM_SUBS_C.:VMB6TOU  is referenced.
   VM_MACRO_C.:VMB6TOU  is referenced.
   CP_6_SUBS.:LIB_E05  is referenced.
   CP_6_C.:LIB_E05  is referenced.
   CP_6.:LIB_E05  cannot be made into a system file and is referenced.
   B_ERRORS_C.:LIB_E05  is referenced.
      No diagnostics issued in procedure VMA$EXPAND_LIST.
PL6.E3A0      #002=VMA$EXPAND_LIST File=VMA$SUBR.:VMB6TSI                        WED 08/20/97 15:02 Page:102

 **** Variables and constants ****

  ****  Section 011  Data  VMA$EXPAND_LIST

  ****  Scalars and arrays  ****
OctLoc.c.b A Datatyp(siz) R M Lvl/name                 OctLoc.c.b A Datatyp(siz) R M Lvl/name

     0-0-0/c STRC(1818)  r     1 VM_LISTKEY                63-0-0/c STRC(1818)  r     1 VM_USERKEY

  ****  Auto variables  ****

  ****  Scalars and arrays  ****
OctLoc.c.b A Datatyp(siz) R M Lvl/name                 OctLoc.c.b A Datatyp(siz) R M Lvl/name

     3-0-0/w PTR         r     1 @ADDR_SPEC                 7-0-0/w PTR         r     1 @EXPAND_USER#
     6-0-0/w PTR         r     1 @SEARCH_LEVEL              5-0-0/w PTR         r     1 @VM_SEARCH_INFO
     4-0-0/w PTR         r     1 @WORK$                    *0-0-0/w STRC(2448)  r     1 ADDR_SPEC
    14-0-0/w UBIN        r     1 EXPAND#                   *0-0-0/b BIT         r     1 EXPAND_USER#
    13-0-0/w SBIN        r     1 NEW_SEARCH_LEVEL          12-0-0/w PTR         r     1 NEW_WORK$
    10-0-0/w PTR         r     1 NEXT$                     11-0-0/w SBIN        r     1 SEARCH_INDX
    *0-0-0/w SBIN        r     1 SEARCH_LEVEL              15-0-0/c CHAR(8)     r     1 SITENAME
    17-0-0/w STRC(711)   r     1 VM_RADDRESS               *0-0-0/w STRC(1260)  r     1 VM_SEARCH_INFO
    43-0-0/w STRC(2448)  r     1 VM_UADDRESS               *0-0-0/w PTR         r     1 WORK$

  ****  SYMREF variables  ****

  ****  Scalars and arrays  ****
OctLoc.c.b A Datatyp(siz) R M Lvl/name                 OctLoc.c.b A Datatyp(siz) R M Lvl/name

     0-0-0/w PTR               1 B$JIT$                     0-0-0/w PTR         r     1 B$TCB$
     0-0-0/w PTR         r     1 B$XL_UPPER$                0-0-0/c ASTR(9)     r     1 ERRMSG_FID
     0-0-0/w UBIN              1 M$DO_NUM                   0-0-0/w UBIN              1 M$LO_NUM
     0-0-0/w UBIN              1 M$MAIL_CENTRAL_NUM         0-0-0/w UBIN              1 M$MAIL_COMGROUP_NUM
     0-0-0/w UBIN              1 M$MAIL_FILE_NUM            0-0-0/w UBIN        r     1 M$MAIL_GLOBAL_NUM
     0-0-0/w UBIN              1 M$ME_NUM                   0-0-0/w UBIN              1 M$NODE_NUM
     0-0-0/w UBIN              1 M$SI_NUM                   0-0-0/w UBIN              1 M$WORK_NUM
     0-0-0/w PTR         r     1 VM_ADDLIST$                0-0-0/d VECT              1 VM_ADDLIST_
PL6.E3A0      #002=VMA$EXPAND_LIST File=VMA$SUBR.:VMB6TSI                        WED 08/20/97 15:02 Page:103
     0-0-0/w PTR               1 VM_ADDREC$                 0-0-0/d VECT              1 VM_ADDREC_
     0-0-0/w PTR               1 VM_COPY$                   0-0-0/d VECT              1 VM_COPY_
     0-0-0/w PTR               1 VM_ENCLLIST$               0-0-0/d VECT              1 VM_ENCLLIST_
     0-0-0/w PTR               1 VM_ENCLREC$                0-0-0/d VECT              1 VM_ENCLREC_
     0-0-0/c STRC(270)         1 VM_FORWARD_ENCL_NAME       0-0-0/c STRC(270)         1 VM_FORWARD_FILE_NAME
     0-0-0/c STRC(72)          1 VM_FORWARD_FILE_PASS       0-0-0/w PTR               1 VM_HEADER$
     0-0-0/d VECT              1 VM_HEADER_                 0-0-0/d VECT              1 VM_HEADER_INIT_
     0-0-0/w PTR               1 VM_INPUT$                  0-0-0/d VECT              1 VM_INPUT_
     0-0-0/c STRC(72)          1 VM_MAILCG_NAME             0-0-0/w STRC(432)         1 VM_MAILCG_SETSTA
     0-0-0/c STRC(72)          1 VM_MAIL_ACCT               0-0-0/c STRC(54)          1 VM_NAME_MAP_NAME
     0-0-0/w PTR               1 VM_PARSEAREA$              0-0-0/d VECT              1 VM_PARSEAREA_
     0-0-0/w PTR               1 VM_PROFILE$                0-0-0/d VECT              1 VM_PROFILE_
     0-0-0/w PTR               1 VM_SELECT$                 0-0-0/d VECT              1 VM_SELECT_
     0-0-0/c STRC(288)         1 VM_SEND_FILE_NAME          0-0-0/c CHAR(8)     r     1 VM_SITENAME
     0-0-0/w PTR               1 VM_WORK$                   0-0-0/d VECT              1 VM_WORK_

  ****  BASED and DCB variables  ****

  ****  Scalars and arrays  ****
OctLoc.c.b A Datatyp(siz) R M Lvl/name                 OctLoc.c.b A Datatyp(siz) R M Lvl/name

     0-0-0/w STRC(2448)  r     1 B$ALT                      0-0-0/w STRC(144)   r     1 B$TCB
     0-0-0/d STRC(4608)  r     1 LOWER_UPPER                0-0-0N  NULL        r     1 M$DO
     0-0-0N  NULL        r     1 M$LO                       0-0-0N  NULL        r     1 M$MAIL_CENTRAL
     0-0-0N  NULL        r     1 M$MAIL_COMGROUP            0-0-0N  NULL        r     1 M$MAIL_FILE
     0-0-0N  NULL        r     1 M$MAIL_GLOBAL              0-0-0N  NULL        r     1 M$ME
     0-0-0N  NULL        r     1 M$NODE                     0-0-0N  NULL        r     1 M$SI
     0-0-0N  NULL        r     1 M$UC                       0-0-0N  NULL        r     1 M$WORK
     0-0-0/w STRC(711)   r     1 VM$RADDRESS                0-0-0/w STRC(2448)        1 VM$UADDRESS
     0-0-0/w STRC(252)   r     1 VM_ADD_HEAD                0-0-0/c ASTR(9)     r     1 X$STRING


   Procedure VMA$EXPAND_LIST requires 426 words for executable code.
   Procedure VMA$EXPAND_LIST requires 116 words of local(AUTO) storage.
PL6.E3A0      #002=VMA$EXPAND_LIST File=VMA$SUBR.:VMB6TSI                        WED 08/20/97 15:02 Page:104
          *** CROSS REFERENCE LISTING ***
**     DENOTES     IDENTIFIER DEFINITION
<<                 IDENTIFIER'S VALUE SET
>>                 IDENTIFIER'S VALUE USED
<>                 IDENTIFIER SET AND/OR USED
--                 IDENTIFIER REFERENCED
PL6.E3A0      #002=VMA$EXPAND_LIST File=VMA$SUBR.:VMB6TSI                        WED 08/20/97 15:02 Page:105
          MINI XREF LISTING

ADDR_SPEC
      9383**DCL        48--PROC     9698--ENTRY    9717--ENTRY
ADDR_SPEC.FOLDER
      9398**DCL      9399--REDEF    9841>>IF       9843>>ASSIGN   9896>>IF       9899>>ASSIGN   9900>>ASSIGN
      9932<>CALL     9937<>CALL
ADDR_SPEC.PASS
      9403**DCL      9844>>IF       9846>>ASSIGN   9902>>IF       9905>>ASSIGN   9906>>ASSIGN   9932<>CALL
      9937<>CALL
ADDR_SPEC.SITENAME
      9405**DCL      9732<>CALL     9734>>CALLBLT  9932<>CALL     9937<>CALL
ADDR_SPEC.USER_NAME
      9406**DCL      9917>>ASSIGN   9932<>CALL     9937<>CALL
ADDR_SPEC.USER_NAME.COUNT
      9407**DCL      9744>>ASSIGN   9831>>IF
ADDR_SPEC.USER_NAME.TEXT
      9408**DCL      9744>>ASSIGN   9831>>IF
B$ALT.CODE
      9459**DCL      9459--REDEF    9460--REDEF    9460--REDEF
B$ALT.ERR.CODE
      9461**DCL      9758>>IF
B$ALT.ERR.ERR#
      9461**DCL      9461--REDEF
B$ALT.EVID
      9460**DCL      9460--REDEF    9460--REDEF
B$TCB.ALT$
      9455**DCL      9758>>IF
B$TCB$
      9012**DCL      9455--IMP-PTR  9758>>IF
B$XL_UPPER$
      9344**DCL      9345--IMP-PTR  9734>>CALLBLT
END_LOOP
      9883**LABEL    9815--CALLALT
PL6.E3A0      #002=VMA$EXPAND_LIST File=VMA$SUBR.:VMB6TSI                        WED 08/20/97 15:02 Page:106
END_MOVE_USER
      9929**LABEL    9891--CALLALT
ERRMSG_FID.L#
      9080**DCL      9080--IMP-SIZ
EXPAND
      9732**LABEL    9687--GOTO     9704--GOTO     9723--GOTO
EXPAND#
      9451**DCL      9686<<ASSIGN   9703<<ASSIGN   9722<<ASSIGN   9771>>IF       9804>>IF       9847>>IF
      9852>>IF
EXPAND_USER#
      9439**DCL        48--PROC     9698--ENTRY    9717--ENTRY    9774--IF       9774>>IF
E_PMME
      9886**LABEL    9819--CALLALT  9862--CALLALT  9910--CALLALT  9918--CALLALT  9932--CALLALT  9937--CALLALT
E_READ
      9758**LABEL    9754--CALLALT
LOWER_UPPER
      9345**DCL      9734>>CALLBLT
M$MAIL_GLOBAL_NUM
      8995**DCL      9769<>CALL     9804>>IF       9860<>CALL
MOVE_USER_DEF
      9889**LABEL    9779--GOTO
NEW_SEARCH_LEVEL
      9450**DCL      9834<<ASSIGN   9836<<ASSIGN   9849<>CALL     9867<>CALL     9872<>CALL
NEW_WORK$
      9449**DCL      9824<<ASSIGN   9849<>CALL     9860<>CALL     9867<>CALL     9872<>CALL
NEXT$
      9447**DCL      9813<<ASSIGN   9815<>CALL     9889<<ASSIGN   9891<>CALL
NOT_DEFINED
      9870**LABEL    9849--CALLALT  9867--CALLALT  9872--CALLALT
SEARCH_INDX
      9448**DCL      9747<<ASSIGN   9749<<ASSIGN   9750>>IF       9754>>CALL     9761<<ASSIGN   9761>>ASSIGN
      9762>>IF       9804>>IF       9834>>ASSIGN
SEARCH_LEVEL
      9438**DCL        48--PROC     9698--ENTRY    9717--ENTRY    9745--IF       9747>>ASSIGN
SITENAME
      9452**DCL      9732<>CALL     9734<<CALLBLT  9736>>IF       9736>>IF
PL6.E3A0      #002=VMA$EXPAND_LIST File=VMA$SUBR.:VMB6TSI                        WED 08/20/97 15:02 Page:107
STORE_ADDRESS
      9932**LABEL    9739--GOTO     9773--GOTO     9777--GOTO     9808--GOTO
STORE_ERR_ADDRESS
      9937**LABEL    9752--GOTO     9769--CALLALT  9795--GOTO
TRY_AGAIN
      9754**LABEL    9781--GOTO
VM$RADDRESS.FLAGS.USER#
      9623**DCL      9926<<ASSIGN
VM$RADDRESS.FOLDER
      9630**DCL      9631--REDEF
VM$UADDRESS.FOLDER
      9665**DCL      9666--REDEF
VMA$ADD_RENTRY
      9441**DCL-ENT  9819--CALL     9910--CALL
VMA$ADD_UENTRY
      9442**DCL-ENT  9862--CALL     9918--CALL     9932--CALL     9937--CALL
VMA$EXPAND_LIST
        48**PROC     9872--CALL
VMA$EXPAND_LIST_FULL
      9717**ENTRY    9849--CALL
VMA$EXPAND_LIST_GLOBAL
      9698**ENTRY    9867--CALL
VMA$GET_LIST
      9443**DCL-ENT  9754--CALL     9769--CALL     9860--CALL
VMA$GET_NEXT_ENTRY
      9444**DCL-ENT  9815--CALL     9891--CALL
VMA$GET_SITE_NAME
      9445**DCL-ENT  9732--CALL
VM_ADDLIST$
      8934**DCL      9926>>ASSIGN
VM_ADD_HEAD.ADDRESS_SIZE
      9480**DCL      9824>>ASSIGN
VM_ADD_HEAD.HEAD$
      9489**DCL      9813>>ASSIGN   9889>>ASSIGN   9926>>ASSIGN
VM_ADD_HEAD.NUM_ENTRIES
      9482**DCL      9792>>IF
PL6.E3A0      #002=VMA$EXPAND_LIST File=VMA$SUBR.:VMB6TSI                        WED 08/20/97 15:02 Page:108
VM_LISTKEY
      9580**DCL      9754<>CALL
VM_LISTKEY.TEXT
      9584**DCL      9744<<ASSIGN   9768>>ASSIGN
VM_RADDRESS
      9508**DCL      9815<>CALL     9891<>CALL
VM_RADDRESS.ACCT
      9531**DCL      9819<>CALL     9908>>IF       9910<>CALL
VM_RADDRESS.FOLDER
      9523**DCL      9524--REDEF    9819<>CALL     9899<<ASSIGN   9910<>CALL
VM_RADDRESS.NAME_KEY
      9521**DCL      9910<>CALL
VM_RADDRESS.PASS
      9528**DCL      9819<>CALL     9905<<ASSIGN   9910<>CALL
VM_RADDRESS.SITENAME
      9530**DCL      9819<>CALL     9910<>CALL
VM_SEARCH_INFO
      9421**DCL        48--PROC     9698--ENTRY    9717--ENTRY    9849<>CALL     9867<>CALL     9872<>CALL
VM_SEARCH_INFO.DCB#
      9424**DCL      9754<>CALL     9804>>IF
VM_SEARCH_INFO.NUM_ENTRIES
      9422**DCL      9750>>IF       9762>>IF
VM_SITENAME
      9203**DCL      9736>>IF
VM_UADDRESS
      9543**DCL      9815<>CALL     9849<>CALL     9867<>CALL     9872<>CALL     9891<>CALL
VM_UADDRESS.FOLDER
      9558**DCL      9559--REDEF    9843<<ASSIGN   9862<>CALL     9900<<ASSIGN   9918<>CALL
VM_UADDRESS.NAME_KEY
      9556**DCL      9918<>CALL
VM_UADDRESS.PASS
      9563**DCL      9846<<ASSIGN   9862<>CALL     9906<<ASSIGN   9918<>CALL
VM_UADDRESS.SITENAME
      9565**DCL      9862<>CALL     9918<>CALL
VM_UADDRESS.TYPE
      9555**DCL      9816>>IF       9908>>IF       9914>>IF
PL6.E3A0      #002=VMA$EXPAND_LIST File=VMA$SUBR.:VMB6TSI                        WED 08/20/97 15:02 Page:109
VM_UADDRESS.USER_NAME
      9566**DCL      9862<>CALL     9917<<ASSIGN   9918<>CALL
VM_UADDRESS.USER_NAME.COUNT
      9567**DCL      9831>>IF       9858>>ASSIGN
VM_UADDRESS.USER_NAME.TEXT
      9568**DCL      9831>>IF       9858>>ASSIGN
VM_USERKEY
      9596**DCL      9769<>CALL     9860<>CALL
VM_USERKEY.TEXT
      9600**DCL      9768<<ASSIGN   9858<<ASSIGN
WORK$
      9410**DCL        48--PROC     9479--IMP-PTR  9698--ENTRY    9717--ENTRY    9754<>CALL     9769<>CALL
      9792>>IF       9813>>ASSIGN   9815<>CALL     9824>>ASSIGN   9824>>ASSIGN   9889>>ASSIGN   9891<>CALL
X$STRING.SIZ
      8926**DCL      8927--IMP-SIZ

