PL6.E3A0      #013=VMA$OPEN_SRCH_LIST File=VMA$SUBR.:VMB6TSI                     WED 08/20/97 15:05 Page:445
     2460        1        /*T***********************************************************/
     2461        2        /*T*                                                         */
     2462        3        /*T* Copyright (c) Bull HN Information Systems Inc., 1997    */
     2463        4        /*T*                                                         */
     2464        5        /*T***********************************************************/
     2465        6        /*X* DMC,PLM=4,IND=4,CTI=2,DTI=0,ENI=0,ECI=0,CSI=0,DCI=4 */
     2466        7        /*X* DMC,PLM=4,IND=4,CTI=2,DTI=0,ENI=0,ECI=0,CSI=0,DCI=4 */
     2467        8        /*F*
     2468        9             NAME: VMA$OPEN_SRCH_LIST
     2469       10             PURPOSE:
     2470       11                   This routine will setup VM_SEARCH_INFO using the search list.
     2471       12             DESCRIPTION:
     2472       13                   This routine will setup the search info list with the DCB
     2473       14                   numbers of all folders to be searched.  GETDCB is called
     2474       15                   where needed.
     2475       16        */
     2476       17        VMA$OPEN_SRCH_LIST: PROC (VM_SEARCH_INFO) ALTRET;
     2477       18        /***** Include files *****/
     2478       19          %INCLUDE CP_6;
     2479     5578          %INCLUDE CP_6_SUBS;
     2480     6118          %INCLUDE VM_MACRO_C;
     2481     7386          %INCLUDE VM_SUBS_C;
     2482     7646          %INCLUDE VM_PERR_C;
     2483     7941          %INCLUDE VM_DATA_R;
     2484     8372          %VM_PROFILE;
     2485     8459          %VM_ADDTYPES;
     2486     8463          %VM_ADD_HEAD;
     2487     8492        /***** Parameters *****/
     2488     8493          %VM_SEARCH_INFO (STCLASS=" ");
     2489     8520        /***** Fpts *****/
     2490     8521          %FPT_GETDCB (STCLASS=STATIC);
     2491     8536          %FPT_CORRES (STCLASS=STATIC);
     2492     8550        /***** Based structures *****/
     2493     8551          %VM_RADDRESS (NAME=VM$RADDRESS,STCLASS="BASED(PTR$)");
     2494     8586          %VM_UADDRESS (NAME=VM$UADDRESS,STCLASS="BASED(PTR$)");
     2495     8623          %VM_FOLDER_INFO (STCLASS=AUTO);
     2496     8675          %VLP_NAME (FPTN=ADDRESS_TEXT,LEN=256,STCLASS=AUTO);
PL6.E3A0      #013=VMA$OPEN_SRCH_LIST File=VMA$SUBR.:VMB6TSI                     WED 08/20/97 15:05 Page:446
     2497     8702        /***** External routines *****/
     2498     8703    1   DCL VMA$EXPAND_LIST_FULL ENTRY(5) ALTRET;
     2499     8704    1   DCL VMA$ERRMSG ENTRY(5);
     2500     8705    1   DCL VMA$ADD_RENTRY ENTRY(6) ALTRET;
     2501     8706    1   DCL VMB$USE_SRCH ENTRY(7) ALTRET;
     2502     8707    1   DCL VMF$MAKE_ADDRESS2 ENTRY(3);
     2503     8708        /***** Local variables *****/
     2504     8709    1   DCL I UBIN WORD AUTO;
     2505     8710    1   DCL J UBIN WORD AUTO;
     2506     8711    1   DCL PTR$ PTR AUTO;
     2507     8712        %VLP_ERRCODE (FPTN=E_BADSRCH,FCG="VM",MID="A",
     2508     8713                       ERR#=%E$BADSRCH,STCLASS=CONSTANT);
     2509     8758        /*E*      ERROR: VMA-E$BADSRCH-0
     2510     8759                  MESSAGE: Error on SRCH folder %U1, this folder ignored
     2511     8760        */
     2512     8761        %EJECT;
PL6.E3A0      #013=VMA$OPEN_SRCH_LIST File=VMA$SUBR.:VMB6TSI                     WED 08/20/97 15:05 Page:447
     2513     8762    1         J=0;
     2514     8763    1       IF VM_SEARCH_INFO.CURRENT
     2515     8764    2       THEN DO;
     2516     8765    2           FPT_CORRES.V.DCB1# = M$MAIL_FILE_NUM; /* Open to same file */
     2517     8766    2           FPT_CORRES.V.DCB2# = M$MAIL_GLOBAL_NUM;
     2518     8767    2           CALL M$CORRES (FPT_CORRES) ALTRET(E_O_SLIST1);
     2519     8768    2           VM_SEARCH_INFO.DCB#(J) = M$MAIL_FILE_NUM;
     2520     8769    2           J=J+1;
     2521     8770    2       END;
     2522     8771    1   E_O_SLIST1:
     2523     8772    1       IF VM_SEARCH_INFO.GLOBAL
     2524     8773    2       THEN DO;
     2525     8774    2           VM_SEARCH_INFO.DCB#(J)=M$MAIL_GLOBAL_NUM;
     2526     8775    2           J=J+1;
     2527     8776    2       END;
     2528     8777    2       DO I=0 TO %VM_MAX_SRCH-1;
     2529     8778    2           IF VM_PROFILE.SEARCH_LIST$(I) ~= ADDR(NIL)
     2530     8779    3           THEN DO;
     2531     8780    3               PTR$ = VM_PROFILE.SEARCH_LIST$(I);
     2532     8781    3               IF VM_SEARCH_INFO.GETDCB#(J) = 0
     2533     8782    4               THEN DO;        /* Get a dcb for this slot */
     2534     8783    4                   FPT_GETDCB.DCBNUM_ = VECTOR(VM_SEARCH_INFO.GETDCB#(J));
     2535     8784    4                   CALL M$GETDCB(FPT_GETDCB) ALTRET(BADSRCH);
     2536     8785    4               END;
     2537     8786    3               VM_ADD_HEAD.NUM_ENTRIES = 0;
     2538     8787    3               VM_ADD_HEAD.FLAGS = '0'B;
     2539     8788    3               IF VM$RADDRESS.TYPE = %VM_ADD_RESOLVED
     2540     8789    3               THEN
     2541     8790    3                   CALL VMA$ADD_RENTRY (VM$RADDRESS.ACCT,VM$RADDRESS.FOLDER,
     2542     8791    3                     VM$RADDRESS.PASS,VM$RADDRESS.SITENAME,%NO#,
     2543     8792    3                     VM$RADDRESS.NAME_KEY) ALTRET(BADSRCH);
     2544     8793    3               ELSE
     2545     8794    3                   CALL VMA$EXPAND_LIST_FULL (VM$UADDRESS,VBASE(VM_WORK_),
     2546     8795    3                     VM_SEARCH_INFO,0,'0'B) ALTRET(BADSRCH);
     2547     8796    3               CALL VMB$USE_SRCH(,,VM_FOLDER_INFO,VM_SEARCH_INFO.GETDCB#(J),
     2548     8797    3                 VM_SEARCH_INFO,%IN#) ALTRET(BADSRCH);
     2549     8798                                                /* Shuffle dcbs */
PL6.E3A0      #013=VMA$OPEN_SRCH_LIST File=VMA$SUBR.:VMB6TSI                     WED 08/20/97 15:05 Page:448
     2550     8799    3               VM_SEARCH_INFO.DCB#(J) = VM_SEARCH_INFO.DCB#(J-1);
     2551     8800    3               VM_SEARCH_INFO.DCB#(J-1) = VM_SEARCH_INFO.GETDCB#(J);
     2552     8801    3               VM_SEARCH_INFO.MAP(J-1) = I;
     2553     8802    3               J=J+1;
     2554     8803    3               VM_SEARCH_INFO.NUM_ENTRIES = J;
     2555     8804    4               DO NEVER;
     2556     8805    4   BADSRCH:
     2557     8806    4                   ADDRESS_TEXT.L# = LENGTHC(ADDRESS_TEXT.NAME#);
     2558     8807    4                   CALL VMF$MAKE_ADDRESS2 (ADDRESS_TEXT,VM_PROFILE.SEARCH_LIST$(I)->
              8807                            VM$RADDRESS);
     2559     8808    4                   CALL VMA$ERRMSG(E_BADSRCH,,VECTOR(ADDRESS_TEXT));
     2560     8809    4               END;
     2561     8810    3           END;                  /* If not nil */
     2562     8811    2       END;                            /* Do i */
     2563     8812    1       VM_SEARCH_INFO.NUM_ENTRIES = J;
     2564     8813    1       VM_SEARCH_INFO.ACTIVE = '1'B;
     2565     8814    1       RETURN;
     2566     8815    1   END VMA$OPEN_SRCH_LIST;
     2567     8816        %EOD;

PL6.E3A0      #013=VMA$OPEN_SRCH_LIST File=VMA$SUBR.:VMB6TSI                     WED 08/20/97 15:05 Page:449
--  Include file information  --

   B_MACROS_C.:LIB_E05  is referenced.
   VM_DATA_R.:VMB6TOU  cannot be made into a system file and is referenced.
   VM_PERR_C.:VMB6TOU  is referenced.
   VM_SUBS_C.:VMB6TOU  is referenced.
   VM_MACRO_C.:VMB6TOU  is referenced.
   CP_6_SUBS.:LIB_E05  is referenced.
   CP_6_C.:LIB_E05  is referenced.
   CP_6.:LIB_E05  cannot be made into a system file and is referenced.
      No diagnostics issued in procedure VMA$OPEN_SRCH_LIST.

   Procedure VMA$OPEN_SRCH_LIST requires 162 words for executable code.
   Procedure VMA$OPEN_SRCH_LIST requires 152 words of local(AUTO) storage.

PL6.E3A0      #013=VMA$OPEN_SRCH_LIST File=VMA$SUBR.:VMB6TSI                     WED 08/20/97 15:05 Page:450

 Object Unit name= VMA$OPEN_SRCH_LIST                         File name= VMA$SUBR.:VMB6TOU
 UTS= AUG 20 '97 15:05:48.16 WED                              Compiler= PL-6/E31         Sev=      00
 SharedLib= :SHARED_SYSTEM                                    Alt SharedLib=


    ****  Control sections  ****

 Sect   Type Bound  Init  Size OctSiz  Section name(segment info)
    0   DCB   even  none     0      0  M$UC
    1   DCB   even  none     0      0  M$MAIL_FILE
    2   DCB   even  none     0      0  M$MAIL_CENTRAL
    3   DCB   even  none     0      0  M$MAIL_GLOBAL
    4   DCB   even  none     0      0  M$WORK
    5   DCB   even  none     0      0  M$MAIL_COMGROUP
    6   DCB   even  none     0      0  M$DO
    7   DCB   even  none     0      0  M$LO
    8   DCB   even  none     0      0  M$ME
    9   DCB   even  none     0      0  M$NODE
   10   DCB   even  none     0      0  M$SI
   11   Data  even  none    12     14  VMA$OPEN_SRCH_LIST
   12  RoData even  UTS      1      1  VMA$OPEN_SRCH_LIST
   13   Proc  even  none   162    242  VMA$OPEN_SRCH_LIST
   14  RoData even  none    17     21  VMA$OPEN_SRCH_LIST

    ****  Entry defs  ****

                              Check   Calling
                             calling  sequence
  Sect OctLoc Primary Altret sequence   type   Parms  Name
    13      0   yes    yes     yes      Std        1  VMA$OPEN_SRCH_LIST
PL6.E3A0      #013=VMA$OPEN_SRCH_LIST File=VMA$SUBR.:VMB6TSI                     WED 08/20/97 15:05 Page:451

  ****  Entry refs  ****

         Check        Calling
        calling       sequence
Altret sequence SRef   type   Args  Name
 yes     yes           Std       6 VMA$ADD_RENTRY
 yes     yes           Std       5 VMA$EXPAND_LIST_FULL
 yes     yes           Std       7 VMB$USE_SRCH
         yes           Std       5 VMA$ERRMSG
         yes           Std       3 VMF$MAKE_ADDRESS2
                       nStd      0 X66_AUTO_1
                       nStd      0 X66_ARET

  ****  Data refs  ****

  Flags:  r = read only, s = secondary
Flgs Name                             Flgs Name                             Flgs Name
     M$UC                             r    VM_HEADER$                       r    VM_PROFILE$
r    VM_ADDLIST$                      r    VM_ADDREC$                       r    VM_WORK$
r    VM_SELECT$                       r    VM_PARSEAREA$                    r    VM_INPUT$
r    VM_COPY$                              VM_ENCLLIST$                          VM_ENCLREC$
     VM_HEADER_                            VM_HEADER_INIT_                       VM_PROFILE_
     VM_ADDLIST_                           VM_ADDREC_                            VM_WORK_
     VM_SELECT_                            VM_PARSEAREA_                         VM_INPUT_
     VM_COPY_                              VM_ENCLLIST_                          VM_ENCLREC_
     M$MAIL_FILE                           M$MAIL_CENTRAL                        M$MAIL_GLOBAL
     M$WORK                                M$MAIL_COMGROUP                       M$DO
     M$LO                                  M$ME                                  M$NODE
     M$SI                                  M$MAIL_FILE_NUM                       M$MAIL_CENTRAL_NUM
     M$MAIL_GLOBAL_NUM                     M$WORK_NUM                            M$MAIL_COMGROUP_NUM
     M$DO_NUM                              M$ME_NUM                              M$LO_NUM
     M$SI_NUM                              M$NODE_NUM                       r    B$JIT$
r    B$TCB$                                VM_MAIL_ACCT                          VM_NAME_MAP_NAME
     ERRMSG_FID                            VM_SEND_FILE_NAME                     VM_FORWARD_FILE_NAME
     VM_FORWARD_ENCL_NAME                  VM_FORWARD_FILE_PASS                  VM_MAILCG_NAME
     VM_SITENAME                           VM_MAILCG_SETSTA
PL6.E3A0      #013=VMA$OPEN_SRCH_LIST File=VMA$SUBR.:VMB6TSI                     WED 08/20/97 15:05 Page:452

  ****  Segment refs  ****

  Flags:  r = read only, s = secondary
Flgs Name                             Flgs Name                             Flgs Name
     ISSID                                 NULLSID
PL6.E3A0      #013=VMA$OPEN_SRCH_LIST File=VMA$SUBR.:VMB6TSI                     WED 08/20/97 15:05 Page:453


     2460        1        /*T***********************************************************/
     2461        2        /*T*                                                         */
     2462        3        /*T* Copyright (c) Bull HN Information Systems Inc., 1997    */
     2463        4        /*T*                                                         */
     2464        5        /*T***********************************************************/
     2465        6        /*X* DMC,PLM=4,IND=4,CTI=2,DTI=0,ENI=0,ECI=0,CSI=0,DCI=4 */
     2466        7        /*X* DMC,PLM=4,IND=4,CTI=2,DTI=0,ENI=0,ECI=0,CSI=0,DCI=4 */
     2467        8        /*F*
     2468        9             NAME: VMA$OPEN_SRCH_LIST
     2469       10             PURPOSE:
     2470       11                   This routine will setup VM_SEARCH_INFO using the search list.
     2471       12             DESCRIPTION:
     2472       13                   This routine will setup the search info list with the DCB
     2473       14                   numbers of all folders to be searched.  GETDCB is called
     2474       15                   where needed.
     2475       16        */
     2476       17        VMA$OPEN_SRCH_LIST: PROC (VM_SEARCH_INFO) ALTRET;

     17 13 000000   000000 700200 xent  VMA$OPEN_SR* TSX0  ! X66_AUTO_1
        13 000001   000230 000001                    ZERO    152,1

     2477       18        /***** Include files *****/
     2478       19          %INCLUDE CP_6;
     2479     5578          %INCLUDE CP_6_SUBS;
     2480     6118          %INCLUDE VM_MACRO_C;
     2481     7386          %INCLUDE VM_SUBS_C;
     2482     7646          %INCLUDE VM_PERR_C;
     2483     7941          %INCLUDE VM_DATA_R;
     2484     8372          %VM_PROFILE;
     2485     8459          %VM_ADDTYPES;
     2486     8463          %VM_ADD_HEAD;
     2487     8492        /***** Parameters *****/
     2488     8493          %VM_SEARCH_INFO (STCLASS=" ");
     2489     8520        /***** Fpts *****/
     2490     8521          %FPT_GETDCB (STCLASS=STATIC);
     2491     8536          %FPT_CORRES (STCLASS=STATIC);
PL6.E3A0      #013=VMA$OPEN_SRCH_LIST File=VMA$SUBR.:VMB6TSI                     WED 08/20/97 15:05 Page:454
     2492     8550        /***** Based structures *****/
     2493     8551          %VM_RADDRESS (NAME=VM$RADDRESS,STCLASS="BASED(PTR$)");
     2494     8586          %VM_UADDRESS (NAME=VM$UADDRESS,STCLASS="BASED(PTR$)");
     2495     8623          %VM_FOLDER_INFO (STCLASS=AUTO);
     2496     8675          %VLP_NAME (FPTN=ADDRESS_TEXT,LEN=256,STCLASS=AUTO);
     2497     8702        /***** External routines *****/
     2498     8703    1   DCL VMA$EXPAND_LIST_FULL ENTRY(5) ALTRET;
     2499     8704    1   DCL VMA$ERRMSG ENTRY(5);
     2500     8705    1   DCL VMA$ADD_RENTRY ENTRY(6) ALTRET;
     2501     8706    1   DCL VMB$USE_SRCH ENTRY(7) ALTRET;
     2502     8707    1   DCL VMF$MAKE_ADDRESS2 ENTRY(3);
     2503     8708        /***** Local variables *****/
     2504     8709    1   DCL I UBIN WORD AUTO;
     2505     8710    1   DCL J UBIN WORD AUTO;
     2506     8711    1   DCL PTR$ PTR AUTO;
     2507     8712        %VLP_ERRCODE (FPTN=E_BADSRCH,FCG="VM",MID="A",
     2508     8713                       ERR#=%E$BADSRCH,STCLASS=CONSTANT);
     2509     8758        /*E*      ERROR: VMA-E$BADSRCH-0
     2510     8759                  MESSAGE: Error on SRCH folder %U1, this folder ignored
     2511     8760        */
     2512     8761        %EJECT;
PL6.E3A0      #013=VMA$OPEN_SRCH_LIST File=VMA$SUBR.:VMB6TSI                     WED 08/20/97 15:05 Page:455
     2513     8762    1         J=0;

   8762 13 000002   200215 450100                    STZ     J,,AUTO

     2514     8763    1       IF VM_SEARCH_INFO.CURRENT

   8763 13 000003   200003 470500                    LDP0    @VM_SEARCH_INFO,,AUTO
        13 000004   000042 236100                    LDQ     34,,PR0
        13 000005   100000 316003                    CANQ    32768,DU
        13 000006   000026 600000 13                 TZE     E_O_SLIST1

     2515     8764    2       THEN DO;

     2516     8765    2           FPT_CORRES.V.DCB1# = M$MAIL_FILE_NUM; /* Open to same file */

   8765 13 000007   000000 720000 xsym               LXL0    M$MAIL_FILE_NUM
        13 000010   000012 740000 11                 STX0    FPT_CORRES+2

     2517     8766    2           FPT_CORRES.V.DCB2# = M$MAIL_GLOBAL_NUM;

   8766 13 000011   000000 721000 xsym               LXL1    M$MAIL_GLOBAL_NUM
        13 000012   000012 441000 11                 SXL1    FPT_CORRES+2

     2518     8767    2           CALL M$CORRES (FPT_CORRES) ALTRET(E_O_SLIST1);

   8767 13 000013   000010 630400 11                 EPPR0   FPT_CORRES
        13 000014   460000 713400                    CLIMB   alt,+24576
        13 000015   400000 401760                    pmme    nvectors=1
        13 000016   000026 702000 13                 TSX2    E_O_SLIST1

     2519     8768    2           VM_SEARCH_INFO.DCB#(J) = M$MAIL_FILE_NUM;

   8768 13 000017   200003 470500                    LDP0    @VM_SEARCH_INFO,,AUTO
        13 000020   200215 720100                    LXL0    J,,AUTO
        13 000021   000000 235000 xsym               LDA     M$MAIL_FILE_NUM
        13 000022   000001 755110                    STA     1,X0,PR0

PL6.E3A0      #013=VMA$OPEN_SRCH_LIST File=VMA$SUBR.:VMB6TSI                     WED 08/20/97 15:05 Page:456
     2520     8769    2           J=J+1;

   8769 13 000023   200215 236100                    LDQ     J,,AUTO
        13 000024   000001 036007                    ADLQ    1,DL
        13 000025   200215 756100                    STQ     J,,AUTO

     2521     8770    2       END;

     2522     8771    1   E_O_SLIST1:
     2523     8772    1       IF VM_SEARCH_INFO.GLOBAL

   8772 13 000026   200003 470500       E_O_SLIST1   LDP0    @VM_SEARCH_INFO,,AUTO
        13 000027   000042 236100                    LDQ     34,,PR0
        13 000030   200000 316003                    CANQ    65536,DU
        13 000031   000040 600000 13                 TZE     s:8777

     2524     8773    2       THEN DO;

     2525     8774    2           VM_SEARCH_INFO.DCB#(J)=M$MAIL_GLOBAL_NUM;

   8774 13 000032   200215 720100                    LXL0    J,,AUTO
        13 000033   000000 235000 xsym               LDA     M$MAIL_GLOBAL_NUM
        13 000034   000001 755110                    STA     1,X0,PR0

     2526     8775    2           J=J+1;

   8775 13 000035   200215 236100                    LDQ     J,,AUTO
        13 000036   000001 036007                    ADLQ    1,DL
        13 000037   200215 756100                    STQ     J,,AUTO

     2527     8776    2       END;

     2528     8777    2       DO I=0 TO %VM_MAX_SRCH-1;

   8777 13 000040   200214 450100                    STZ     I,,AUTO
        13 000041   000231 710000 13                 TRA     s:8811+3

PL6.E3A0      #013=VMA$OPEN_SRCH_LIST File=VMA$SUBR.:VMB6TSI                     WED 08/20/97 15:05 Page:457
     2529     8778    2           IF VM_PROFILE.SEARCH_LIST$(I) ~= ADDR(NIL)

   8778 13 000042   000000 470400 xsym               LDP0    VM_PROFILE$
        13 000043   200214 720100                    LXL0    I,,AUTO
        13 000044   000115 236110                    LDQ     77,X0,PR0
        13 000045   000000 116000 14                 CMPQ    0
        13 000046   000226 600000 13                 TZE     s:8811

     2530     8779    3           THEN DO;

     2531     8780    3               PTR$ = VM_PROFILE.SEARCH_LIST$(I);

   8780 13 000047   200216 756100                    STQ     PTR$,,AUTO

     2532     8781    3               IF VM_SEARCH_INFO.GETDCB#(J) = 0

   8781 13 000050   200003 471500                    LDP1    @VM_SEARCH_INFO,,AUTO
        13 000051   200215 721100                    LXL1    J,,AUTO
        13 000052   100027 235111                    LDA     23,X1,PR1
        13 000053   000066 601000 13                 TNZ     s:8786

     2533     8782    4               THEN DO;        /* Get a dcb for this slot */

     2534     8783    4                   FPT_GETDCB.DCBNUM_ = VECTOR(VM_SEARCH_INFO.GETDCB#(J));

   8783 13 000054   777640 235007                    LDA     -96,DL
        13 000055   200215 236100                    LDQ     J,,AUTO
        13 000056   000022 736000                    QLS     18
        13 000057   000027 036003                    ADLQ    23,DU
        13 000060   200003 036100                    ADLQ    @VM_SEARCH_INFO,,AUTO
        13 000061   000004 757000 11                 STAQ    FPT_GETDCB+4

     2535     8784    4                   CALL M$GETDCB(FPT_GETDCB) ALTRET(BADSRCH);

   8784 13 000062   000000 630400 11                 EPPR0   FPT_GETDCB
        13 000063   460002 713400                    CLIMB   alt,+24578
        13 000064   401000 401760                    pmme    nvectors=3
PL6.E3A0      #013=VMA$OPEN_SRCH_LIST File=VMA$SUBR.:VMB6TSI                     WED 08/20/97 15:05 Page:458
        13 000065   000174 702000 13                 TSX2    BADSRCH

     2536     8785    4               END;

     2537     8786    3               VM_ADD_HEAD.NUM_ENTRIES = 0;

   8786 13 000066   000000 470400 xsym               LDP0    VM_ADDLIST$
        13 000067   000001 450100                    STZ     1,,PR0

     2538     8787    3               VM_ADD_HEAD.FLAGS = '0'B;

   8787 13 000070   000002 450100                    STZ     2,,PR0

     2539     8788    3               IF VM$RADDRESS.TYPE = %VM_ADD_RESOLVED

   8788 13 000071   200216 471500                    LDP1    PTR$,,AUTO
        13 000072   100002 236100                    LDQ     2,,PR1
        13 000073   000777 376003                    ANQ     511,DU
        13 000074   000001 116003                    CMPQ    1,DU
        13 000075   000123 601000 13                 TNZ     s:8794

     2540     8789    3               THEN
     2541     8790    3                   CALL VMA$ADD_RENTRY (VM$RADDRESS.ACCT,VM$RADDRESS.FOLDER,

   8790 13 000076   200216 236100                    LDQ     PTR$,,AUTO
        13 000077   000003 036000 14                 ADLQ    3
        13 000100   000004 235000 14                 LDA     4
        13 000101   200224 757100                    STAQ    PTR$+6,,AUTO
        13 000102   200216 236100                    LDQ     PTR$,,AUTO
        13 000103   000005 036000 14                 ADLQ    5
        13 000104   200223 756100                    STQ     PTR$+5,,AUTO
        13 000105   200216 236100                    LDQ     PTR$,,AUTO
        13 000106   000006 036000 14                 ADLQ    6
        13 000107   200222 756100                    STQ     PTR$+4,,AUTO
        13 000110   200216 236100                    LDQ     PTR$,,AUTO
        13 000111   000007 036000 14                 ADLQ    7
        13 000112   200221 756100                    STQ     PTR$+3,,AUTO
PL6.E3A0      #013=VMA$OPEN_SRCH_LIST File=VMA$SUBR.:VMB6TSI                     WED 08/20/97 15:05 Page:459
        13 000113   200216 236100                    LDQ     PTR$,,AUTO
        13 000114   000010 036000 14                 ADLQ    8
        13 000115   200220 756100                    STQ     PTR$+2,,AUTO
        13 000116   200220 630500                    EPPR0   PTR$+2,,AUTO
        13 000117   000001 631400 14                 EPPR1   1
        13 000120   000000 701000 xent               TSX1    VMA$ADD_RENTRY
        13 000121   000174 702000 13                 TSX2    BADSRCH
        13 000122   000136 710000 13                 TRA     s:8796

     2542     8791    3                     VM$RADDRESS.PASS,VM$RADDRESS.SITENAME,%NO#,
     2543     8792    3                     VM$RADDRESS.NAME_KEY) ALTRET(BADSRCH);
     2544     8793    3               ELSE
     2545     8794    3                   CALL VMA$EXPAND_LIST_FULL (VM$UADDRESS,VBASE(VM_WORK_),

   8794 13 000123   000004 236000 14                 LDQ     4
        13 000124   200224 756100                    STQ     PTR$+6,,AUTO
        13 000125   200003 235100                    LDA     @VM_SEARCH_INFO,,AUTO
        13 000126   200222 757100                    STAQ    PTR$+4,,AUTO
        13 000127   000012 236000 14                 LDQ     10
        13 000130   200216 235100                    LDA     PTR$,,AUTO
        13 000131   200220 757100                    STAQ    PTR$+2,,AUTO
        13 000132   200220 630500                    EPPR0   PTR$+2,,AUTO
        13 000133   000011 631400 14                 EPPR1   9
        13 000134   000000 701000 xent               TSX1    VMA$EXPAND_LIST_FULL
        13 000135   000174 702000 13                 TSX2    BADSRCH

     2546     8795    3                     VM_SEARCH_INFO,0,'0'B) ALTRET(BADSRCH);
     2547     8796    3               CALL VMB$USE_SRCH(,,VM_FOLDER_INFO,VM_SEARCH_INFO.GETDCB#(J),

   8796 13 000136   000014 236000 14                 LDQ     12
        13 000137   200003 235100                    LDA     @VM_SEARCH_INFO,,AUTO
        13 000140   200224 757100                    STAQ    PTR$+6,,AUTO
        13 000141   200215 236100                    LDQ     J,,AUTO
        13 000142   000022 736000                    QLS     18
        13 000143   000027 036003                    ADLQ    23,DU
        13 000144   200003 036100                    ADLQ    @VM_SEARCH_INFO,,AUTO
        13 000145   200223 756100                    STQ     PTR$+5,,AUTO
PL6.E3A0      #013=VMA$OPEN_SRCH_LIST File=VMA$SUBR.:VMB6TSI                     WED 08/20/97 15:05 Page:460
        13 000146   200004 630500                    EPPR0   VM_FOLDER_INFO,,AUTO
        13 000147   200222 450500                    STP0    PTR$+4,,AUTO
        13 000150   000000 236000 14                 LDQ     0
        13 000151   000000 235000 14                 LDA     0
        13 000152   200220 757100                    STAQ    PTR$+2,,AUTO
        13 000153   200220 630500                    EPPR0   PTR$+2,,AUTO
        13 000154   000001 631400 14                 EPPR1   1
        13 000155   000000 701000 xent               TSX1    VMB$USE_SRCH
        13 000156   000174 702000 13                 TSX2    BADSRCH

     2548     8797    3                 VM_SEARCH_INFO,%IN#) ALTRET(BADSRCH);
     2549     8798                                                /* Shuffle dcbs */
     2550     8799    3               VM_SEARCH_INFO.DCB#(J) = VM_SEARCH_INFO.DCB#(J-1);

   8799 13 000157   200003 470500                    LDP0    @VM_SEARCH_INFO,,AUTO
        13 000160   200215 720100                    LXL0    J,,AUTO
        13 000161   000000 235110                    LDA     0,X0,PR0
        13 000162   000001 755110                    STA     1,X0,PR0

     2551     8800    3               VM_SEARCH_INFO.DCB#(J-1) = VM_SEARCH_INFO.GETDCB#(J);

   8800 13 000163   000027 235110                    LDA     23,X0,PR0
        13 000164   000000 755110                    STA     0,X0,PR0

     2552     8801    3               VM_SEARCH_INFO.MAP(J-1) = I;

   8801 13 000165   200214 236100                    LDQ     I,,AUTO
        13 000166   000013 756110                    STQ     11,X0,PR0

     2553     8802    3               J=J+1;

   8802 13 000167   200215 235100                    LDA     J,,AUTO
        13 000170   000001 035007                    ADLA    1,DL
        13 000171   200215 755100                    STA     J,,AUTO

     2554     8803    3               VM_SEARCH_INFO.NUM_ENTRIES = J;

PL6.E3A0      #013=VMA$OPEN_SRCH_LIST File=VMA$SUBR.:VMB6TSI                     WED 08/20/97 15:05 Page:461
   8803 13 000172   000000 755100                    STA     0,,PR0

     2555     8804    4               DO NEVER;

   8804 13 000173   000226 710000 13                 TRA     s:8811

     2556     8805    4   BADSRCH:
     2557     8806    4                   ADDRESS_TEXT.L# = LENGTHC(ADDRESS_TEXT.NAME#);

   8806 13 000174   400000 236003       BADSRCH      LDQ     -131072,DU
        13 000175   200113 552140                    STBQ    ADDRESS_TEXT,'40'O,AUTO

     2558     8807    4                   CALL VMF$MAKE_ADDRESS2 (ADDRESS_TEXT,VM_PROFILE.SEARCH_LIST$(I)->
              8807                            VM$RADDRESS);

   8807 13 000176   000000 470400 xsym               LDP0    VM_PROFILE$
        13 000177   200214 720100                    LXL0    I,,AUTO
        13 000200   000115 471510                    LDP1    77,X0,PR0
        13 000201   200221 451500                    STP1    PTR$+3,,AUTO
        13 000202   200113 633500                    EPPR3   ADDRESS_TEXT,,AUTO
        13 000203   200220 453500                    STP3    PTR$+2,,AUTO
        13 000204   200220 630500                    EPPR0   PTR$+2,,AUTO
        13 000205   000015 631400 14                 EPPR1   13
        13 000206   000000 701000 xent               TSX1    VMF$MAKE_ADDRESS2
        13 000207   000000 011000                    NOP     0

     2559     8808    4                   CALL VMA$ERRMSG(E_BADSRCH,,VECTOR(ADDRESS_TEXT));

   8808 13 000210   000016 235000 14                 LDA     14
        13 000211   200220 452500                    STP2    PTR$+2,,AUTO
        13 000212   200220 236100                    LDQ     PTR$+2,,AUTO
        13 000213   000113 036003                    ADLQ    75,DU
        13 000214   200222 757100                    STAQ    PTR$+4,,AUTO
        13 000215   200222 630500                    EPPR0   PTR$+4,,AUTO
        13 000216   200226 450500                    STP0    PTR$+8,,AUTO
        13 000217   000000 236000 14                 LDQ     0
        13 000220   000020 235000 14                 LDA     16
PL6.E3A0      #013=VMA$OPEN_SRCH_LIST File=VMA$SUBR.:VMB6TSI                     WED 08/20/97 15:05 Page:462
        13 000221   200224 757100                    STAQ    PTR$+6,,AUTO
        13 000222   200224 630500                    EPPR0   PTR$+6,,AUTO
        13 000223   000017 631400 14                 EPPR1   15
        13 000224   000000 701000 xent               TSX1    VMA$ERRMSG
        13 000225   000000 011000                    NOP     0

     2560     8809    4               END;

     2561     8810    3           END;                  /* If not nil */

     2562     8811    2       END;                            /* Do i */

   8811 13 000226   200214 235100                    LDA     I,,AUTO
        13 000227   000001 035007                    ADLA    1,DL
        13 000230   200214 755100                    STA     I,,AUTO
        13 000231   200214 235100                    LDA     I,,AUTO
        13 000232   000004 115007                    CMPA    4,DL
        13 000233   000042 602000 13                 TNC     s:8778

     2563     8812    1       VM_SEARCH_INFO.NUM_ENTRIES = J;

   8812 13 000234   200003 470500                    LDP0    @VM_SEARCH_INFO,,AUTO
        13 000235   200215 236100                    LDQ     J,,AUTO
        13 000236   000000 756100                    STQ     0,,PR0

     2564     8813    1       VM_SEARCH_INFO.ACTIVE = '1'B;

   8813 13 000237   400000 236003                    LDQ     -131072,DU
        13 000240   000042 256100                    ORSQ    34,,PR0

     2565     8814    1       RETURN;

   8814 13 000241   000000 702200 xent               TSX2  ! X66_ARET

FPT_GETDCB
 Sect OctLoc
  11     000   000001 777640   000006 006000   000000 177640   000000 006014    ................
PL6.E3A0      #013=VMA$OPEN_SRCH_LIST File=VMA$SUBR.:VMB6TSI                     WED 08/20/97 15:05 Page:463
  11     004   000000 177640   000000 006014   000000 000000   000000 000000    ................

FPT_CORRES
 Sect OctLoc
  11     010   000001 777640   000012 006000   000000 000000   ****** ******    ................

E_BADSRCH
 Sect OctLoc
  12     000   261501 001570                                                    ....

(unnamed)
 Sect OctLoc
  14     000   000000 006014   000006 000000   000000 000000   000002 400000    ................
  14     004   000002 006000   000017 600000   000015 600000   000007 400000    ................
  14     010   000021 600000   000005 000000   000001 006000   000000 000002    ................
  14     014   000013 006000   000002 000000   000100 177640   000003 000000    .........@......
  14     020   000000 006000                                                    ....
     2566     8815    1   END VMA$OPEN_SRCH_LIST;
     2567     8816        %EOD;

PL6.E3A0      #013=VMA$OPEN_SRCH_LIST File=VMA$SUBR.:VMB6TSI                     WED 08/20/97 15:05 Page:464
--  Include file information  --

   B_MACROS_C.:LIB_E05  is referenced.
   VM_DATA_R.:VMB6TOU  cannot be made into a system file and is referenced.
   VM_PERR_C.:VMB6TOU  is referenced.
   VM_SUBS_C.:VMB6TOU  is referenced.
   VM_MACRO_C.:VMB6TOU  is referenced.
   CP_6_SUBS.:LIB_E05  is referenced.
   CP_6_C.:LIB_E05  is referenced.
   CP_6.:LIB_E05  cannot be made into a system file and is referenced.
      No diagnostics issued in procedure VMA$OPEN_SRCH_LIST.
PL6.E3A0      #013=VMA$OPEN_SRCH_LIST File=VMA$SUBR.:VMB6TSI                     WED 08/20/97 15:05 Page:465

 **** Variables and constants ****

  ****  Section 011  Data  VMA$OPEN_SRCH_LIST

  ****  Scalars and arrays  ****
OctLoc.c.b A Datatyp(siz) R M Lvl/name                 OctLoc.c.b A Datatyp(siz) R M Lvl/name

    10-0-0/d STRC(144)   r     1 FPT_CORRES                 0-0-0/d STRC(288)   r     1 FPT_GETDCB

  ****  Section 012 RoData VMA$OPEN_SRCH_LIST

  ****  Scalars and arrays  ****
OctLoc.c.b A Datatyp(siz) R M Lvl/name                 OctLoc.c.b A Datatyp(siz) R M Lvl/name

     0-0-0/w STRC        r     1 E_BADSRCH

  ****  Auto variables  ****

  ****  Scalars and arrays  ****
OctLoc.c.b A Datatyp(siz) R M Lvl/name                 OctLoc.c.b A Datatyp(siz) R M Lvl/name

     3-0-0/w PTR         r     1 @VM_SEARCH_INFO          113-0-0/c STRC(2313)  r     1 ADDRESS_TEXT
   214-0-0/w UBIN        r     1 I                        215-0-0/w UBIN        r     1 J
   216-0-0/w PTR         r     1 PTR$                       4-0-0/w STRC(2529)  r     1 VM_FOLDER_INFO
    *0-0-0/w STRC(1260)  r     1 VM_SEARCH_INFO

  ****  SYMREF variables  ****

  ****  Scalars and arrays  ****
OctLoc.c.b A Datatyp(siz) R M Lvl/name                 OctLoc.c.b A Datatyp(siz) R M Lvl/name

     0-0-0/w PTR               1 B$JIT$                     0-0-0/w PTR               1 B$TCB$
     0-0-0/c ASTR(9)     r     1 ERRMSG_FID                 0-0-0/w UBIN              1 M$DO_NUM
     0-0-0/w UBIN              1 M$LO_NUM                   0-0-0/w UBIN              1 M$MAIL_CENTRAL_NUM
     0-0-0/w UBIN              1 M$MAIL_COMGROUP_NUM        0-0-0/w UBIN        r     1 M$MAIL_FILE_NUM
     0-0-0/w UBIN        r     1 M$MAIL_GLOBAL_NUM          0-0-0/w UBIN              1 M$ME_NUM
     0-0-0/w UBIN              1 M$NODE_NUM                 0-0-0/w UBIN              1 M$SI_NUM
PL6.E3A0      #013=VMA$OPEN_SRCH_LIST File=VMA$SUBR.:VMB6TSI                     WED 08/20/97 15:05 Page:466
     0-0-0/w UBIN              1 M$WORK_NUM                 0-0-0/w PTR         r     1 VM_ADDLIST$
     0-0-0/d VECT              1 VM_ADDLIST_                0-0-0/w PTR               1 VM_ADDREC$
     0-0-0/d VECT              1 VM_ADDREC_                 0-0-0/w PTR               1 VM_COPY$
     0-0-0/d VECT              1 VM_COPY_                   0-0-0/w PTR               1 VM_ENCLLIST$
     0-0-0/d VECT              1 VM_ENCLLIST_               0-0-0/w PTR               1 VM_ENCLREC$
     0-0-0/d VECT              1 VM_ENCLREC_                0-0-0/c STRC(270)         1 VM_FORWARD_ENCL_NAME
     0-0-0/c STRC(270)         1 VM_FORWARD_FILE_NAME       0-0-0/c STRC(72)          1 VM_FORWARD_FILE_PASS
     0-0-0/w PTR               1 VM_HEADER$                 0-0-0/d VECT              1 VM_HEADER_
     0-0-0/d VECT              1 VM_HEADER_INIT_            0-0-0/w PTR               1 VM_INPUT$
     0-0-0/d VECT              1 VM_INPUT_                  0-0-0/c STRC(72)          1 VM_MAILCG_NAME
     0-0-0/w STRC(432)         1 VM_MAILCG_SETSTA           0-0-0/c STRC(72)          1 VM_MAIL_ACCT
     0-0-0/c STRC(54)          1 VM_NAME_MAP_NAME           0-0-0/w PTR               1 VM_PARSEAREA$
     0-0-0/d VECT              1 VM_PARSEAREA_              0-0-0/w PTR         r     1 VM_PROFILE$
     0-0-0/d VECT              1 VM_PROFILE_                0-0-0/w PTR               1 VM_SELECT$
     0-0-0/d VECT              1 VM_SELECT_                 0-0-0/c STRC(288)         1 VM_SEND_FILE_NAME
     0-0-0/c CHAR(8)           1 VM_SITENAME                0-0-0/w PTR               1 VM_WORK$
     0-0-0/d VECT        r     1 VM_WORK_

  ****  BASED and DCB variables  ****

  ****  Scalars and arrays  ****
OctLoc.c.b A Datatyp(siz) R M Lvl/name                 OctLoc.c.b A Datatyp(siz) R M Lvl/name

     0-0-0N  NULL        r     1 M$DO                       0-0-0N  NULL        r     1 M$LO
     0-0-0N  NULL        r     1 M$MAIL_CENTRAL             0-0-0N  NULL        r     1 M$MAIL_COMGROUP
     0-0-0N  NULL        r     1 M$MAIL_FILE                0-0-0N  NULL        r     1 M$MAIL_GLOBAL
     0-0-0N  NULL        r     1 M$ME                       0-0-0N  NULL        r     1 M$NODE
     0-0-0N  NULL        r     1 M$SI                       0-0-0N  NULL        r     1 M$UC
     0-0-0N  NULL        r     1 M$WORK                     0-0-0/w STRC(711)   r     1 VM$RADDRESS
     0-0-0/w STRC(2448)  r     1 VM$UADDRESS                0-0-0/w STRC(252)   r     1 VM_ADD_HEAD
     0-0-0/w STRC(4068)  r     1 VM_PROFILE                 0-0-0/c ASTR(9)     r     1 X$STRING


   Procedure VMA$OPEN_SRCH_LIST requires 162 words for executable code.
   Procedure VMA$OPEN_SRCH_LIST requires 152 words of local(AUTO) storage.
PL6.E3A0      #013=VMA$OPEN_SRCH_LIST File=VMA$SUBR.:VMB6TSI                     WED 08/20/97 15:05 Page:467
          *** CROSS REFERENCE LISTING ***
**     DENOTES     IDENTIFIER DEFINITION
<<                 IDENTIFIER'S VALUE SET
>>                 IDENTIFIER'S VALUE USED
<>                 IDENTIFIER SET AND/OR USED
--                 IDENTIFIER REFERENCED
PL6.E3A0      #013=VMA$OPEN_SRCH_LIST File=VMA$SUBR.:VMB6TSI                     WED 08/20/97 15:05 Page:468
          MINI XREF LISTING

ADDRESS_TEXT
      8700**DCL      8807<>CALL     8808--CALL
ADDRESS_TEXT.L#
      8700**DCL      8806<<ASSIGN
ADDRESS_TEXT.NAME#
      8700**DCL      8806--ASSIGN
BADSRCH
      8806**LABEL    8784--CALLALT  8790--CALLALT  8794--CALLALT  8796--CALLALT
ERRMSG_FID.L#
      8217**DCL      8217--IMP-SIZ
E_BADSRCH
      8725**DCL      8808<>CALL
E_O_SLIST1
      8772**LABEL    8767--CALLALT
FPT_CORRES
      8547**DCL      8767<>CALL
FPT_CORRES.V
      8547**DCL      8547--DCLINIT
FPT_CORRES.V.DCB1#
      8547**DCL      8765<<ASSIGN
FPT_CORRES.V.DCB2#
      8548**DCL      8766<<ASSIGN
FPT_GETDCB
      8532**DCL      8784<>CALL
FPT_GETDCB.DCBNUM_
      8532**DCL      8783<<ASSIGN
FPT_GETDCB.V
      8533**DCL      8532--DCLINIT
I
      8709**DCL      8777<<DOINDEX  8778>>IF       8780>>ASSIGN   8801>>ASSIGN   8807>>CALL
J
      8710**DCL      8762<<ASSIGN   8768>>ASSIGN   8769<<ASSIGN   8769>>ASSIGN   8774>>ASSIGN   8775<<ASSIGN
PL6.E3A0      #013=VMA$OPEN_SRCH_LIST File=VMA$SUBR.:VMB6TSI                     WED 08/20/97 15:05 Page:469
      8775>>ASSIGN   8781>>IF       8783>>ASSIGN   8796>>CALL     8799>>ASSIGN   8799>>ASSIGN   8800>>ASSIGN
      8800>>ASSIGN   8801>>ASSIGN   8802<<ASSIGN   8802>>ASSIGN   8803>>ASSIGN   8812>>ASSIGN
M$CORRES
      5511**DCL-ENT  8767--CALL
M$GETDCB
      5512**DCL-ENT  8784--CALL
M$MAIL_FILE_NUM
      8128**DCL      8765>>ASSIGN   8768>>ASSIGN
M$MAIL_GLOBAL_NUM
      8132**DCL      8766>>ASSIGN   8774>>ASSIGN
PTR$
      8711**DCL      8561--IMP-PTR  8596--IMP-PTR  8780<<ASSIGN   8788>>IF       8790>>CALL     8790>>CALL
      8790>>CALL     8790>>CALL     8790>>CALL     8794>>CALL
VM$RADDRESS
      8561**DCL      8807<>CALL
VM$RADDRESS.ACCT
      8584**DCL      8790<>CALL
VM$RADDRESS.FOLDER
      8576**DCL      8577--REDEF    8790<>CALL
VM$RADDRESS.NAME_KEY
      8574**DCL      8790<>CALL
VM$RADDRESS.PASS
      8581**DCL      8790<>CALL
VM$RADDRESS.SITENAME
      8583**DCL      8790<>CALL
VM$RADDRESS.TYPE
      8573**DCL      8788>>IF
VM$UADDRESS
      8596**DCL      8794<>CALL
VM$UADDRESS.FOLDER
      8611**DCL      8612--REDEF
VMA$ADD_RENTRY
      8705**DCL-ENT  8790--CALL
VMA$ERRMSG
      8704**DCL-ENT  8808--CALL
VMA$EXPAND_LIST_FULL
PL6.E3A0      #013=VMA$OPEN_SRCH_LIST File=VMA$SUBR.:VMB6TSI                     WED 08/20/97 15:05 Page:470
      8703**DCL-ENT  8794--CALL
VMB$USE_SRCH
      8706**DCL-ENT  8796--CALL
VMF$MAKE_ADDRESS2
      8707**DCL-ENT  8807--CALL
VM_ADDLIST$
      8071**DCL      8473--IMP-PTR  8786>>ASSIGN   8787>>ASSIGN
VM_ADD_HEAD.FLAGS
      8478**DCL      8787<<ASSIGN
VM_ADD_HEAD.NUM_ENTRIES
      8476**DCL      8786<<ASSIGN
VM_FOLDER_INFO
      8633**DCL      8796<>CALL
VM_PROFILE.SEARCH_LIST$
      8437**DCL      8778>>IF       8780>>ASSIGN   8807>>CALL
VM_PROFILE$
      8069**DCL      8382--IMP-PTR  8778>>IF       8780>>ASSIGN   8807>>CALL
VM_SEARCH_INFO
      8503**DCL        17--PROC     8794<>CALL     8796<>CALL
VM_SEARCH_INFO.ACTIVE
      8512**DCL      8813<<ASSIGN
VM_SEARCH_INFO.CURRENT
      8516**DCL      8763>>IF
VM_SEARCH_INFO.DCB#
      8506**DCL      8768<<ASSIGN   8774<<ASSIGN   8799<<ASSIGN   8799>>ASSIGN   8800<<ASSIGN
VM_SEARCH_INFO.GETDCB#
      8510**DCL      8781>>IF       8783--ASSIGN   8796<>CALL     8800>>ASSIGN
VM_SEARCH_INFO.GLOBAL
      8514**DCL      8772>>IF
VM_SEARCH_INFO.MAP
      8508**DCL      8801<<ASSIGN
VM_SEARCH_INFO.NUM_ENTRIES
      8504**DCL      8803<<ASSIGN   8812<<ASSIGN
VM_WORK_
      8097**DCL      8794<>CALL
X$STRING.SIZ
PL6.E3A0      #013=VMA$OPEN_SRCH_LIST File=VMA$SUBR.:VMB6TSI                     WED 08/20/97 15:05 Page:471
      8063**DCL      8064--IMP-SIZ

PL6.E3A0      #014=VMA$COMPRESS_BLANKS File=VMA$SUBR.:VMB6TSI                    WED 08/20/97 15:06 Page:472
     2568        1        /*T***********************************************************/
     2569        2        /*T*                                                         */
     2570        3        /*T* Copyright (c) Bull HN Information Systems Inc., 1997    */
     2571        4        /*T*                                                         */
     2572        5        /*T***********************************************************/
     2573        6        /*X* DMC,PLM=4,IND=4,CTI=2,DTI=0,ENI=0,ECI=0,CSI=0,DCI=4 */
     2574        7        /*X* DMC,PLM=4,IND=4,CTI=2,DTI=0,ENI=0,ECI=0,CSI=0,DCI=4 */
     2575        8        /*F*
     2576        9             NAME: VMA$COMPRESS_BLANKS
     2577       10             PURPOSE:
     2578       11                   To remove unnecessary blanks from a textc string.
     2579       12             DESCRIPTION:
     2580       13                   This routine will strip leading and trailing blanks and
     2581       14                   turn multiple interior blanks into a single blank.
     2582       15        */
     2583       16        VMA$COMPRESS_BLANKS: PROC (PTR$);
     2584       17          %INCLUDE B_MACROS_C;
     2585      128          %INCLUDE VM_SUBS_C;
     2586      388            %include B$TABLES_C;
     2587      496          %TEXTC (NAME=X$STRING);
     2588      501    1   DCL PTR$ PTR;
     2589      502    1   DCL INDX1 SBIN WORD AUTO;
     2590      503    1   DCL INDX2 SBIN WORD AUTO;
     2591      504    1   DCL DUMMY SBIN WORD AUTO;
     2592      505        %B$SR_NON_BLANK( NAME = NON_BLANKS );
     2593      509    1   DCL TEMPBUF CHAR(256) AUTO;
     2594      510        %EJECT;
PL6.E3A0      #014=VMA$COMPRESS_BLANKS File=VMA$SUBR.:VMB6TSI                    WED 08/20/97 15:06 Page:473
     2595      511    1       IF PTR$ -> X$STRING.TEXT = ' '
     2596      512    1       THEN                            /* All blanks */
     2597      513    2       DO;                          /* Return a null string */
     2598      514    2           PTR$ -> X$STRING.SIZ = 0;
     2599      515    2           RETURN;
     2600      516    2       END;
     2601      517        /*
     2602      518             ***** Search for first non-blank character
     2603      519                   starting at right end of string ...
     2604      520        */
     2605      521    1       CALL SEARCHR (INDX1,DUMMY,NON_BLANKS,PTR$->X$STRING.TEXT);
     2606      522    1       INDX1 = INDX1 + 1;
     2607      523    1       IF INDX1 < PTR$ -> X$STRING.SIZ
     2608      524    1       THEN                            /* Blank found */
     2609      525    1           IF SUBSTR(PTR$->X$STRING.TEXT,INDX1) = ' '
     2610      526    1           THEN                  /* Not an imbedded blank */
     2611      527    2           DO;               /* Strip them */
     2612      528    2               PTR$ -> X$STRING.SIZ = INDX1;
     2613      529    2           END;
     2614      530        /*
     2615      531             ***** Search for first non-blank character
     2616      532                   starting at left end of string ...
     2617      533        */
     2618      534    1       CALL SEARCH (INDX1,DUMMY,NON_BLANKS,PTR$->X$STRING.TEXT);
     2619      535    1       IF INDX1 = 0
     2620      536    1       THEN                            /* First character is non-blank */
     2621      537    1           GOTO COMPRESS_INTERIOR;
     2622      538    1       IF SUBSTR(PTR$ -> X$STRING.TEXT,0,INDX1-1) = ' '
     2623      539    1       THEN                            /* There were leading blanks */
     2624      540    2       DO;                          /* Strip them */
     2625      541    2           PTR$ -> X$STRING.TEXT = SUBSTR(PTR$ -> X$STRING.TEXT,INDX1);
     2626      542    2           PTR$ -> X$STRING.SIZ = PTR$ -> X$STRING.SIZ - INDX1;
     2627      543    2       END;
     2628      544        /*
     2629      545             ***** Now compress interior blanks ...
     2630      546        */
     2631      547    1   COMPRESS_INTERIOR:
PL6.E3A0      #014=VMA$COMPRESS_BLANKS File=VMA$SUBR.:VMB6TSI                    WED 08/20/97 15:06 Page:474
     2632      548    1       INDX2 = 0;
     2633      549    2       DO FOREVER;
     2634      550    2           CALL INDEX(INDX1,' ',PTR$->X$STRING.TEXT,INDX2) ALTRET(NO_BLANKS);
     2635      551    2           CALL SEARCH (INDX2,DUMMY,NON_BLANKS,PTR$->X$STRING.TEXT,INDX1);
     2636      552    2           IF INDX2 > INDX1 + 1
     2637      553    2           THEN                       /* More than 1 blank */
     2638      554    3           DO;                    /* Compress */
     2639      555    3               TEMPBUF = SUBSTR(PTR$ -> X$STRING.TEXT,INDX2);
     2640      556    3               CALL INSERT (PTR$ -> X$STRING.TEXT,INDX1+1,,TEMPBUF);
     2641      557    3               PTR$ -> X$STRING.SIZ = PTR$ -> X$STRING.SIZ -(INDX2-INDX1) + 1;
     2642      558    3           END;
     2643      559    2           INDX2 = INDX1 + 1;
     2644      560    2       END;                            /* Do forever ... end */
     2645      561    1   NO_BLANKS:
     2646      562    1       RETURN;
     2647      563    1   END VMA$COMPRESS_BLANKS;
     2648      564        %EOD;

PL6.E3A0      #014=VMA$COMPRESS_BLANKS File=VMA$SUBR.:VMB6TSI                    WED 08/20/97 15:06 Page:475
--  Include file information  --

   B$TABLES_C.:LIB_E05  cannot be made into a system file and is referenced.
   VM_SUBS_C.:VMB6TOU  is referenced.
   B_MACROS_C.:LIB_E05  is referenced.
      No diagnostics issued in procedure VMA$COMPRESS_BLANKS.

   Procedure VMA$COMPRESS_BLANKS requires 205 words for executable code.
   Procedure VMA$COMPRESS_BLANKS requires 76 words of local(AUTO) storage.

PL6.E3A0      #014=VMA$COMPRESS_BLANKS File=VMA$SUBR.:VMB6TSI                    WED 08/20/97 15:06 Page:476

 Object Unit name= VMA$COMPRESS_BLANKS                        File name= VMA$SUBR.:VMB6TOU
 UTS= AUG 20 '97 15:06:03.96 WED                              Compiler= PL-6/E31         Sev=      00
 SharedLib= :SHARED_SYSTEM                                    Alt SharedLib=


    ****  Control sections  ****

 Sect   Type Bound  Init  Size OctSiz  Section name(segment info)
    0   Proc  even  none   205    315  VMA$COMPRESS_BLANKS
    1  RoData even  none     2      2  VMA$COMPRESS_BLANKS

    ****  Entry defs  ****

                              Check   Calling
                             calling  sequence
  Sect OctLoc Primary Altret sequence   type   Parms  Name
     0      0   yes            yes      Std        1  VMA$COMPRESS_BLANKS

  ****  Entry refs  ****

         Check        Calling
        calling       sequence
Altret sequence SRef   type   Args  Name
         yes          ~proc      0 B_POINTER
                       nStd      0 X66_AUTO_1
                       nStd      0 X66_ARET

  ****  Data refs  ****

  Flags:  r = read only, s = secondary
Flgs Name                             Flgs Name                             Flgs Name
r    B$SR_NON_BLANK$
PL6.E3A0      #014=VMA$COMPRESS_BLANKS File=VMA$SUBR.:VMB6TSI                    WED 08/20/97 15:06 Page:477


     2568        1        /*T***********************************************************/
     2569        2        /*T*                                                         */
     2570        3        /*T* Copyright (c) Bull HN Information Systems Inc., 1997    */
     2571        4        /*T*                                                         */
     2572        5        /*T***********************************************************/
     2573        6        /*X* DMC,PLM=4,IND=4,CTI=2,DTI=0,ENI=0,ECI=0,CSI=0,DCI=4 */
     2574        7        /*X* DMC,PLM=4,IND=4,CTI=2,DTI=0,ENI=0,ECI=0,CSI=0,DCI=4 */
     2575        8        /*F*
     2576        9             NAME: VMA$COMPRESS_BLANKS
     2577       10             PURPOSE:
     2578       11                   To remove unnecessary blanks from a textc string.
     2579       12             DESCRIPTION:
     2580       13                   This routine will strip leading and trailing blanks and
     2581       14                   turn multiple interior blanks into a single blank.
     2582       15        */
     2583       16        VMA$COMPRESS_BLANKS: PROC (PTR$);

     16  0 000000   000000 700200 xent  VMA$COMPRES* TSX0  ! X66_AUTO_1
         0 000001   000114 000001                    ZERO    76,1

     2584       17          %INCLUDE B_MACROS_C;
     2585      128          %INCLUDE VM_SUBS_C;
     2586      388            %include B$TABLES_C;
     2587      496          %TEXTC (NAME=X$STRING);
     2588      501    1   DCL PTR$ PTR;
     2589      502    1   DCL INDX1 SBIN WORD AUTO;
     2590      503    1   DCL INDX2 SBIN WORD AUTO;
     2591      504    1   DCL DUMMY SBIN WORD AUTO;
     2592      505        %B$SR_NON_BLANK( NAME = NON_BLANKS );
     2593      509    1   DCL TEMPBUF CHAR(256) AUTO;
     2594      510        %EJECT;
PL6.E3A0      #014=VMA$COMPRESS_BLANKS File=VMA$SUBR.:VMB6TSI                    WED 08/20/97 15:06 Page:478
     2595      511    1       IF PTR$ -> X$STRING.TEXT = ' '

    511  0 000002   200003 470500                    LDP0    @PTR$,,AUTO
         0 000003   000000 471500                    LDP1    0,,PR0
         0 000004   000100 101500                    MRL     fill='000'O
         0 000005   100000 000001                    ADSC9   0,,PR1                   cn=0,n=1
         0 000006   200110 000002                    ADSC9   TEMPBUF+65,,AUTO         cn=0,n=2
         0 000007   200110 220100                    LDX0    TEMPBUF+65,,AUTO
         0 000010   040000 106540                    CMPC    fill='040'O
         0 000011   100000 200010                    ADSC9   0,,PR1                   cn=1,n=*X0
         0 000012   000000 000001 1                  ADSC9   0                        cn=0,n=1
         0 000013   000021 601000 0                  TNZ     s:521

     2596      512    1       THEN                            /* All blanks */
     2597      513    2       DO;                          /* Return a null string */

     2598      514    2           PTR$ -> X$STRING.SIZ = 0;

    514  0 000014   000000 471500                    LDP1    0,,PR0
         0 000015   000100 101400                    MRL     fill='000'O
         0 000016   000001 000004 1                  ADSC9   1                        cn=0,n=4
         0 000017   100000 000001                    ADSC9   0,,PR1                   cn=0,n=1

     2599      515    2           RETURN;

    515  0 000020   000000 702200 xent               TSX2  ! X66_ARET

     2600      516    2       END;
     2601      517        /*
     2602      518             ***** Search for first non-blank character
     2603      519                   starting at right end of string ...
     2604      520        */
     2605      521    1       CALL SEARCHR (INDX1,DUMMY,NON_BLANKS,PTR$->X$STRING.TEXT);

    521  0 000021   000000 471500                    LDP1    0,,PR0
         0 000022   000100 101500                    MRL     fill='000'O
         0 000023   100000 000001                    ADSC9   0,,PR1                   cn=0,n=1
PL6.E3A0      #014=VMA$COMPRESS_BLANKS File=VMA$SUBR.:VMB6TSI                    WED 08/20/97 15:06 Page:479
         0 000024   200110 000002                    ADSC9   TEMPBUF+65,,AUTO         cn=0,n=2
         0 000025   200110 220100                    LDX0    TEMPBUF+65,,AUTO
         0 000026   000000 636010                    EAQ     0,X0
         0 000027   000022 772000                    QRL     18
         0 000030   000000 473400 xsym               LDP3    B$SR_NON_BLANK$
         0 000031   000000 165540                    TCTR
         0 000032   100000 200010                    ADSC9   0,,PR1                   cn=1,n=*X0
         0 000033   300000 000100                    ARG     0,,PR3
         0 000034   200004 000100                    ARG     INDX1,,AUTO
         0 000035   200004 235100                    LDA     INDX1,,AUTO
         0 000036   000033 771000                    ARL     27
         0 000037   200006 755100                    STA     DUMMY,,AUTO
         0 000040   200004 551140                    STBA    INDX1,'40'O,AUTO
         0 000041   000044 606400 0                  TTN     s:522
         0 000042   200004 054100                    AOS     INDX1,,AUTO
         0 000043   200004 156100                    SSQ     INDX1,,AUTO

     2606      522    1       INDX1 = INDX1 + 1;

    522  0 000044   200004 054100                    AOS     INDX1,,AUTO

     2607      523    1       IF INDX1 < PTR$ -> X$STRING.SIZ

    523  0 000045   000000 471500                    LDP1    0,,PR0
         0 000046   000100 101500                    MRL     fill='000'O
         0 000047   100000 000001                    ADSC9   0,,PR1                   cn=0,n=1
         0 000050   200110 000004                    ADSC9   TEMPBUF+65,,AUTO         cn=0,n=4
         0 000051   200110 236100                    LDQ     TEMPBUF+65,,AUTO
         0 000052   200004 116100                    CMPQ    INDX1,,AUTO
         0 000053   000076 604400 0                  TMOZ    s:534

     2608      524    1       THEN                            /* Blank found */
     2609      525    1           IF SUBSTR(PTR$->X$STRING.TEXT,INDX1) = ' '

    525  0 000054   000000 471500                    LDP1    0,,PR0
         0 000055   000100 101500                    MRL     fill='000'O
         0 000056   100000 000001                    ADSC9   0,,PR1                   cn=0,n=1
PL6.E3A0      #014=VMA$COMPRESS_BLANKS File=VMA$SUBR.:VMB6TSI                    WED 08/20/97 15:06 Page:480
         0 000057   200110 000002                    ADSC9   TEMPBUF+65,,AUTO         cn=0,n=2
         0 000060   200110 220100                    LDX0    TEMPBUF+65,,AUTO
         0 000061   000000 636010                    EAQ     0,X0
         0 000062   000022 772000                    QRL     18
         0 000063   200004 136100                    SBLQ    INDX1,,AUTO
         0 000064   000000 621006                    EAX1    0,QL
         0 000065   200004 236100                    LDQ     INDX1,,AUTO
         0 000066   040000 106546                    CMPC    fill='040'O
         0 000067   100000 200011                    ADSC9   0,Q,PR1                  cn=1,n=*X1
         0 000070   000000 000001 1                  ADSC9   0                        cn=0,n=1
         0 000071   000076 601000 0                  TNZ     s:534

     2610      526    1           THEN                  /* Not an imbedded blank */
     2611      527    2           DO;               /* Strip them */

     2612      528    2               PTR$ -> X$STRING.SIZ = INDX1;

    528  0 000072   000000 471500                    LDP1    0,,PR0
         0 000073   000100 101500                    MRL     fill='000'O
         0 000074   200004 000004                    ADSC9   INDX1,,AUTO              cn=0,n=4
         0 000075   100000 000001                    ADSC9   0,,PR1                   cn=0,n=1

     2613      529    2           END;

     2614      530        /*
     2615      531             ***** Search for first non-blank character
     2616      532                   starting at left end of string ...
     2617      533        */
     2618      534    1       CALL SEARCH (INDX1,DUMMY,NON_BLANKS,PTR$->X$STRING.TEXT);

    534  0 000076   000000 471500                    LDP1    0,,PR0
         0 000077   000100 101500                    MRL     fill='000'O
         0 000100   100000 000001                    ADSC9   0,,PR1                   cn=0,n=1
         0 000101   200110 000002                    ADSC9   TEMPBUF+65,,AUTO         cn=0,n=2
         0 000102   200110 220100                    LDX0    TEMPBUF+65,,AUTO
         0 000103   000000 164540                    TCT
         0 000104   100000 200010                    ADSC9   0,,PR1                   cn=1,n=*X0
PL6.E3A0      #014=VMA$COMPRESS_BLANKS File=VMA$SUBR.:VMB6TSI                    WED 08/20/97 15:06 Page:481
         0 000105   300000 000100                    ARG     0,,PR3
         0 000106   200004 000100                    ARG     INDX1,,AUTO
         0 000107   200004 236100                    LDQ     INDX1,,AUTO
         0 000110   000044 737000                    LLS     36
         0 000111   000033 771000                    ARL     27
         0 000112   200006 755100                    STA     DUMMY,,AUTO
         0 000113   200004 551140                    STBA    INDX1,'40'O,AUTO

     2619      535    1       IF INDX1 = 0

    535  0 000114   200004 236100                    LDQ     INDX1,,AUTO
         0 000115   000164 600000 0                  TZE     COMPRESS_INTERIOR

     2620      536    1       THEN                            /* First character is non-blank */
     2621      537    1           GOTO COMPRESS_INTERIOR;
     2622      538    1       IF SUBSTR(PTR$ -> X$STRING.TEXT,0,INDX1-1) = ' '

    538  0 000116   000000 471500                    LDP1    0,,PR0
         0 000117   000100 101500                    MRL     fill='000'O
         0 000120   100000 000001                    ADSC9   0,,PR1                   cn=0,n=1
         0 000121   200110 000002                    ADSC9   TEMPBUF+65,,AUTO         cn=0,n=2
         0 000122   200110 220100                    LDX0    TEMPBUF+65,,AUTO
         0 000123   777777 621006                    EAX1    -1,QL
         0 000124   040000 106540                    CMPC    fill='040'O
         0 000125   100000 200011                    ADSC9   0,,PR1                   cn=1,n=*X1
         0 000126   000000 000001 1                  ADSC9   0                        cn=0,n=1
         0 000127   000164 601000 0                  TNZ     COMPRESS_INTERIOR

     2623      539    1       THEN                            /* There were leading blanks */
     2624      540    2       DO;                          /* Strip them */

     2625      541    2           PTR$ -> X$STRING.TEXT = SUBSTR(PTR$ -> X$STRING.TEXT,INDX1);

    541  0 000130   000000 471500                    LDP1    0,,PR0
         0 000131   000100 101500                    MRL     fill='000'O
         0 000132   100000 000001                    ADSC9   0,,PR1                   cn=0,n=1
         0 000133   200110 000002                    ADSC9   TEMPBUF+65,,AUTO         cn=0,n=2
PL6.E3A0      #014=VMA$COMPRESS_BLANKS File=VMA$SUBR.:VMB6TSI                    WED 08/20/97 15:06 Page:482
         0 000134   200110 220100                    LDX0    TEMPBUF+65,,AUTO
         0 000135   000000 474500                    LDP4    0,,PR0
         0 000136   000100 101500                    MRL     fill='000'O
         0 000137   400000 000001                    ADSC9   0,,PR4                   cn=0,n=1
         0 000140   200111 000002                    ADSC9   TEMPBUF+66,,AUTO         cn=0,n=2
         0 000141   200111 222100                    LDX2    TEMPBUF+66,,AUTO
         0 000142   000000 636012                    EAQ     0,X2
         0 000143   000022 772000                    QRL     18
         0 000144   200004 136100                    SBLQ    INDX1,,AUTO
         0 000145   000000 623006                    EAX3    0,QL
         0 000146   200004 236100                    LDQ     INDX1,,AUTO
         0 000147   040140 100546                    MLR     fill='040'O
         0 000150   400000 200013                    ADSC9   0,Q,PR4                  cn=1,n=*X3
         0 000151   100000 200010                    ADSC9   0,,PR1                   cn=1,n=*X0

     2626      542    2           PTR$ -> X$STRING.SIZ = PTR$ -> X$STRING.SIZ - INDX1;

    542  0 000152   000000 471500                    LDP1    0,,PR0
         0 000153   000100 101500                    MRL     fill='000'O
         0 000154   100000 000001                    ADSC9   0,,PR1                   cn=0,n=1
         0 000155   200110 000004                    ADSC9   TEMPBUF+65,,AUTO         cn=0,n=4
         0 000156   200110 236100                    LDQ     TEMPBUF+65,,AUTO
         0 000157   200004 136100                    SBLQ    INDX1,,AUTO
         0 000160   200111 756100                    STQ     TEMPBUF+66,,AUTO
         0 000161   000100 101500                    MRL     fill='000'O
         0 000162   200111 000004                    ADSC9   TEMPBUF+66,,AUTO         cn=0,n=4
         0 000163   100000 000001                    ADSC9   0,,PR1                   cn=0,n=1

     2627      543    2       END;

     2628      544        /*
     2629      545             ***** Now compress interior blanks ...
     2630      546        */
     2631      547    1   COMPRESS_INTERIOR:
     2632      548    1       INDX2 = 0;

    548  0 000164   200005 450100       COMPRESS_IN* STZ     INDX2,,AUTO
PL6.E3A0      #014=VMA$COMPRESS_BLANKS File=VMA$SUBR.:VMB6TSI                    WED 08/20/97 15:06 Page:483

     2633      549    2       DO FOREVER;

     2634      550    2           CALL INDEX(INDX1,' ',PTR$->X$STRING.TEXT,INDX2) ALTRET(NO_BLANKS);

    550  0 000165   200003 470500                    LDP0    @PTR$,,AUTO
         0 000166   000000 471500                    LDP1    0,,PR0
         0 000167   000100 101500                    MRL     fill='000'O
         0 000170   100000 000001                    ADSC9   0,,PR1                   cn=0,n=1
         0 000171   200110 000002                    ADSC9   TEMPBUF+65,,AUTO         cn=0,n=2
         0 000172   200110 220100                    LDX0    TEMPBUF+65,,AUTO
         0 000173   000000 636010                    EAQ     0,X0
         0 000174   000022 772000                    QRL     18
         0 000175   200005 136100                    SBLQ    INDX2,,AUTO
         0 000176   200111 756100                    STQ     TEMPBUF+66,,AUTO
         0 000177   200005 236100                    LDQ     INDX2,,AUTO
         0 000200   200111 721100                    LXL1    TEMPBUF+66,,AUTO
         0 000201   200005 235100                    LDA     INDX2,,AUTO
         0 000202   000000 124545                    SCM     mask='000'O
         0 000203   100000 200011                    ADSC9   0,A,PR1                  cn=1,n=*X1
         0 000204   000000 000001 1                  ADSC9   0                        cn=0,n=1
         0 000205   200004 000100                    ARG     INDX1,,AUTO
         0 000206   200004 056100                    ASQ     INDX1,,AUTO
         0 000207   000314 606400 0                  TTN     NO_BLANKS

     2635      551    2           CALL SEARCH (INDX2,DUMMY,NON_BLANKS,PTR$->X$STRING.TEXT,INDX1);

    551  0 000210   000000 471500                    LDP1    0,,PR0
         0 000211   000100 101500                    MRL     fill='000'O
         0 000212   100000 000001                    ADSC9   0,,PR1                   cn=0,n=1
         0 000213   200110 000002                    ADSC9   TEMPBUF+65,,AUTO         cn=0,n=2
         0 000214   200110 220100                    LDX0    TEMPBUF+65,,AUTO
         0 000215   000000 636010                    EAQ     0,X0
         0 000216   000022 772000                    QRL     18
         0 000217   200004 136100                    SBLQ    INDX1,,AUTO
         0 000220   200111 756100                    STQ     TEMPBUF+66,,AUTO
         0 000221   200004 236100                    LDQ     INDX1,,AUTO
PL6.E3A0      #014=VMA$COMPRESS_BLANKS File=VMA$SUBR.:VMB6TSI                    WED 08/20/97 15:06 Page:484
         0 000222   000000 473400 xsym               LDP3    B$SR_NON_BLANK$
         0 000223   200111 721100                    LXL1    TEMPBUF+66,,AUTO
         0 000224   000000 164546                    TCT
         0 000225   100000 200011                    ADSC9   0,Q,PR1                  cn=1,n=*X1
         0 000226   300000 000100                    ARG     0,,PR3
         0 000227   200005 000100                    ARG     INDX2,,AUTO
         0 000230   200005 235100                    LDA     INDX2,,AUTO
         0 000231   000033 771000                    ARL     27
         0 000232   200006 755100                    STA     DUMMY,,AUTO
         0 000233   200005 551140                    STBA    INDX2,'40'O,AUTO
         0 000234   200005 056100                    ASQ     INDX2,,AUTO

     2636      552    2           IF INDX2 > INDX1 + 1

    552  0 000235   000001 036007                    ADLQ    1,DL
         0 000236   200005 116100                    CMPQ    INDX2,,AUTO
         0 000237   000310 605000 0                  TPL     s:559

     2637      553    2           THEN                       /* More than 1 blank */
     2638      554    3           DO;                    /* Compress */

     2639      555    3               TEMPBUF = SUBSTR(PTR$ -> X$STRING.TEXT,INDX2);

    555  0 000240   000000 471500                    LDP1    0,,PR0
         0 000241   000100 101500                    MRL     fill='000'O
         0 000242   100000 000001                    ADSC9   0,,PR1                   cn=0,n=1
         0 000243   200110 000002                    ADSC9   TEMPBUF+65,,AUTO         cn=0,n=2
         0 000244   200110 220100                    LDX0    TEMPBUF+65,,AUTO
         0 000245   000000 636010                    EAQ     0,X0
         0 000246   000022 772000                    QRL     18
         0 000247   200005 136100                    SBLQ    INDX2,,AUTO
         0 000250   000000 621006                    EAX1    0,QL
         0 000251   200005 236100                    LDQ     INDX2,,AUTO
         0 000252   040100 100546                    MLR     fill='040'O
         0 000253   100000 200011                    ADSC9   0,Q,PR1                  cn=1,n=*X1
         0 000254   200007 000400                    ADSC9   TEMPBUF,,AUTO            cn=0,n=256

PL6.E3A0      #014=VMA$COMPRESS_BLANKS File=VMA$SUBR.:VMB6TSI                    WED 08/20/97 15:06 Page:485
     2640      556    3               CALL INSERT (PTR$ -> X$STRING.TEXT,INDX1+1,,TEMPBUF);

    556  0 000255   000000 471500                    LDP1    0,,PR0
         0 000256   000100 101500                    MRL     fill='000'O
         0 000257   100000 000001                    ADSC9   0,,PR1                   cn=0,n=1
         0 000260   200110 000002                    ADSC9   TEMPBUF+65,,AUTO         cn=0,n=2
         0 000261   200110 220100                    LDX0    TEMPBUF+65,,AUTO
         0 000262   000000 636010                    EAQ     0,X0
         0 000263   000022 772000                    QRL     18
         0 000264   200004 136100                    SBLQ    INDX1,,AUTO
         0 000265   777777 621006                    EAX1    -1,QL
         0 000266   200004 236100                    LDQ     INDX1,,AUTO
         0 000267   040146 100500                    MLR     fill='040'O
         0 000270   200007 000400                    ADSC9   TEMPBUF,,AUTO            cn=0,n=256
         0 000271   100000 400011                    ADSC9   0,Q,PR1                  cn=2,n=*X1

     2641      557    3               PTR$ -> X$STRING.SIZ = PTR$ -> X$STRING.SIZ -(INDX2-INDX1) + 1;

    557  0 000272   000000 471500                    LDP1    0,,PR0
         0 000273   200005 236100                    LDQ     INDX2,,AUTO
         0 000274   200004 136100                    SBLQ    INDX1,,AUTO
         0 000275   200110 756100                    STQ     TEMPBUF+65,,AUTO
         0 000276   000100 101500                    MRL     fill='000'O
         0 000277   100000 000001                    ADSC9   0,,PR1                   cn=0,n=1
         0 000300   200111 000004                    ADSC9   TEMPBUF+66,,AUTO         cn=0,n=4
         0 000301   200111 236100                    LDQ     TEMPBUF+66,,AUTO
         0 000302   200110 136100                    SBLQ    TEMPBUF+65,,AUTO
         0 000303   000001 036007                    ADLQ    1,DL
         0 000304   200112 756100                    STQ     TEMPBUF+67,,AUTO
         0 000305   000100 101500                    MRL     fill='000'O
         0 000306   200112 000004                    ADSC9   TEMPBUF+67,,AUTO         cn=0,n=4
         0 000307   100000 000001                    ADSC9   0,,PR1                   cn=0,n=1

     2642      558    3           END;

     2643      559    2           INDX2 = INDX1 + 1;

PL6.E3A0      #014=VMA$COMPRESS_BLANKS File=VMA$SUBR.:VMB6TSI                    WED 08/20/97 15:06 Page:486
    559  0 000310   200004 236100                    LDQ     INDX1,,AUTO
         0 000311   000001 036007                    ADLQ    1,DL
         0 000312   200005 756100                    STQ     INDX2,,AUTO

     2644      560    2       END;                            /* Do forever ... end */

    560  0 000313   000165 710000 0                  TRA     s:550

     2645      561    1   NO_BLANKS:
     2646      562    1       RETURN;

    562  0 000314   000000 702200 xent  NO_BLANKS    TSX2  ! X66_ARET

(unnamed)
 Sect OctLoc
   1     000   040040 040040   000000 000000                                        ....
     2647      563    1   END VMA$COMPRESS_BLANKS;
     2648      564        %EOD;

PL6.E3A0      #014=VMA$COMPRESS_BLANKS File=VMA$SUBR.:VMB6TSI                    WED 08/20/97 15:06 Page:487
--  Include file information  --

   B$TABLES_C.:LIB_E05  cannot be made into a system file and is referenced.
   VM_SUBS_C.:VMB6TOU  is referenced.
   B_MACROS_C.:LIB_E05  is referenced.
      No diagnostics issued in procedure VMA$COMPRESS_BLANKS.
PL6.E3A0      #014=VMA$COMPRESS_BLANKS File=VMA$SUBR.:VMB6TSI                    WED 08/20/97 15:06 Page:488

 **** Variables and constants ****

  ****  Auto variables  ****

  ****  Scalars and arrays  ****
OctLoc.c.b A Datatyp(siz) R M Lvl/name                 OctLoc.c.b A Datatyp(siz) R M Lvl/name

     3-0-0/w PTR         r     1 @PTR$                      6-0-0/w SBIN        r     1 DUMMY
     4-0-0/w SBIN        r     1 INDX1                      5-0-0/w SBIN        r     1 INDX2
    *0-0-0/w PTR         r     1 PTR$                       7-0-0/c CHAR(256)   r     1 TEMPBUF

  ****  SYMREF variables  ****

  ****  Scalars and arrays  ****
OctLoc.c.b A Datatyp(siz) R M Lvl/name                 OctLoc.c.b A Datatyp(siz) R M Lvl/name

     0-0-0/w PTR         r     1 B$SR_NON_BLANK$

  ****  BASED and DCB variables  ****

  ****  Scalars and arrays  ****
OctLoc.c.b A Datatyp(siz) R M Lvl/name                 OctLoc.c.b A Datatyp(siz) R M Lvl/name

     0-0-0/d STRC(4608)  r     1 NON_BLANKS                 0-0-0/c ASTR(9)     r     1 X$STRING


   Procedure VMA$COMPRESS_BLANKS requires 205 words for executable code.
   Procedure VMA$COMPRESS_BLANKS requires 76 words of local(AUTO) storage.
PL6.E3A0      #014=VMA$COMPRESS_BLANKS File=VMA$SUBR.:VMB6TSI                    WED 08/20/97 15:06 Page:489
          *** CROSS REFERENCE LISTING ***
**     DENOTES     IDENTIFIER DEFINITION
<<                 IDENTIFIER'S VALUE SET
>>                 IDENTIFIER'S VALUE USED
<>                 IDENTIFIER SET AND/OR USED
--                 IDENTIFIER REFERENCED
PL6.E3A0      #014=VMA$COMPRESS_BLANKS File=VMA$SUBR.:VMB6TSI                    WED 08/20/97 15:06 Page:490
          MINI XREF LISTING

B$SR_NON_BLANK$
       506**DCL       507--IMP-PTR   521>>CALLBLT   534>>CALLBLT   551>>CALLBLT
COMPRESS_INTERIOR
       548**LABEL     537--GOTO
DUMMY
       504**DCL       521<<CALLBLT   534<<CALLBLT   551<<CALLBLT
INDX1
       502**DCL       521<<CALLBLT   522<<ASSIGN    522>>ASSIGN    523>>IF        525>>IF        528>>ASSIGN
       534<<CALLBLT   535>>IF        538>>IF        541>>ASSIGN    542>>ASSIGN    550<<CALLBLT   551>>CALLBLT
       552>>IF        556>>CALLBLT   557>>ASSIGN    559>>ASSIGN
INDX2
       503**DCL       548<<ASSIGN    550>>CALLBLT   551<<CALLBLT   552>>IF        555>>ASSIGN    557>>ASSIGN
       559<<ASSIGN
NON_BLANKS
       507**DCL       521>>CALLBLT   534>>CALLBLT   551>>CALLBLT
NO_BLANKS
       562**LABEL     550--CALLALT
PTR$
       501**DCL        16--PROC      511>>IF        511>>IF        514>>ASSIGN    521>>CALLBLT   521>>CALLBLT
       523>>IF        525>>IF        525>>IF        528>>ASSIGN    534>>CALLBLT   534>>CALLBLT   538>>IF
       538>>IF        541>>ASSIGN    541>>ASSIGN    541>>ASSIGN    541>>ASSIGN    542>>ASSIGN    542>>ASSIGN
       550>>CALLBLT   550>>CALLBLT   551>>CALLBLT   551>>CALLBLT   555>>ASSIGN    555>>ASSIGN    556>>CALLBLT
       556>>CALLBLT   557>>ASSIGN    557>>ASSIGN
TEMPBUF
       509**DCL       555<<ASSIGN    556>>CALLBLT
X$STRING.SIZ
       498**DCL       499--IMP-SIZ   511>>IF        514<<ASSIGN    521>>CALLBLT   523>>IF        525>>IF
       528<<ASSIGN    534>>CALLBLT   538>>IF        541>>ASSIGN    541>>ASSIGN    542<<ASSIGN    542>>ASSIGN
       550>>CALLBLT   551>>CALLBLT   555>>ASSIGN    556>>CALLBLT   557<<ASSIGN    557>>ASSIGN
X$STRING.TEXT
       499**DCL       511>>IF        521>>CALLBLT   525>>IF        534>>CALLBLT   538>>IF        541<<ASSIGN
       541>>ASSIGN    550>>CALLBLT   551>>CALLBLT   555>>ASSIGN    556<<CALLBLT

PL6.E3A0      #015=VMA$ERRMSG File=VMA$SUBR.:VMB6TSI                             WED 08/20/97 15:06 Page:491
     2649        1        /*T***********************************************************/
     2650        2        /*T*                                                         */
     2651        3        /*T* Copyright (c) Bull HN Information Systems Inc., 1997    */
     2652        4        /*T*                                                         */
     2653        5        /*T***********************************************************/
     2654        6        /*X* DMC,PLM=4,IND=4,CTI=2,DTI=0,ENI=0,ECI=0,CSI=0,DCI=4 */
     2655        7        /*X* DMC,PLM=4,IND=4,CTI=2,DTI=0,ENI=0,ECI=0,CSI=0,DCI=4 */
     2656        8        /*F*
     2657        9             NAME: VMA$ERRMSG
     2658       10             PURPOSE:
     2659       11                   To diagnose errors for procedures called by SEND.
     2660       12             DESCRIPTION:
     2661       13                   If SEND is running in gateway mode (ie, if the GATEWAY
     2662       14                   option was specified on the invocation command), errors
     2663       15                   are indicated by calling M$ERR to pass the error code back
     2664       16                   to the invoking program.
     2665       17                   Otherwise, diagnostics are issued normally via XUR$ERRMSG.
     2666       18                   All procedures included in SEND should call this routine
     2667       19                   to avoid the possibility of diagnostics being written to
     2668       20                   the output stream in gateway mode, since this tends to
     2669       21                   wreak havoc on gateway programs.
     2670       22        */
     2671       23        VMA$ERRMSG: PROC (ERROR, ERRDCB, U1_, U2_, U3_);
     2672       24        /***** Include files *****/
     2673       25        %INCLUDE CP_6;
     2674     5584        %INCLUDE VM_DATA_R;
     2675     6015        %INCLUDE XUR_ENTRY;
     2676     6047        /***** Parameters *****/
     2677     6048        %VLP_ERRCODE (FPTN=ERROR, STCLASS=PARAM);
     2678     6093    1   DCL ERRDCB UBIN PARAM;
     2679     6094    1   DCL U1_ VECTOR PARAM;
     2680     6095    1   DCL U2_ VECTOR PARAM;
     2681     6096    1   DCL U3_ VECTOR PARAM;
     2682     6097        /***** Fpts *****/
     2683     6098        %FPT_ERR (FPTN=GATEWAY_ERROR, STEPCC=ERROR, CODE=ERRCODE);
     2684     6113        %VLP_ERRCODE (FPTN=ERRCODE);
     2685     6158        /***** Global data *****/
PL6.E3A0      #015=VMA$ERRMSG File=VMA$SUBR.:VMB6TSI                             WED 08/20/97 15:06 Page:492
     2686     6159    1   DCL GATEWAY BIT(1) STATIC SYMDEF INIT('0'B);
     2687     6160        %EJECT;
PL6.E3A0      #015=VMA$ERRMSG File=VMA$SUBR.:VMB6TSI                             WED 08/20/97 15:06 Page:493
     2688     6161    1       IF GATEWAY
     2689     6162    2       THEN DO;
     2690     6163    2           ERRCODE = ERROR;
     2691     6164    2           ERRCODE.SEV = MAXIMUM (ERRCODE.SEV, 4);
     2692     6165    2           CALL M$ERR (GATEWAY_ERROR);
     2693     6166    2       END;
     2694     6167
     2695     6168    1       CALL XUR$ERRMSG (ERROR, ERRDCB,, U1_, U2_, U3_);
     2696     6169    1       RETURN;
     2697     6170
     2698     6171    1   END VMA$ERRMSG;
     2699     6172        %EOD;

PL6.E3A0      #015=VMA$ERRMSG File=VMA$SUBR.:VMB6TSI                             WED 08/20/97 15:06 Page:494
--  Include file information  --

   XUR_ENTRY.:LIB_E05  cannot be made into a system file and is referenced.
   B_MACROS_C.:LIB_E05  is referenced.
   VM_DATA_R.:VMB6TOU  cannot be made into a system file and is referenced.
   CP_6_C.:LIB_E05  is referenced.
   CP_6.:LIB_E05  cannot be made into a system file and is referenced.
      No diagnostics issued in procedure VMA$ERRMSG.

   Procedure VMA$ERRMSG requires 31 words for executable code.
   Procedure VMA$ERRMSG requires 14 words of local(AUTO) storage.

PL6.E3A0      #015=VMA$ERRMSG File=VMA$SUBR.:VMB6TSI                             WED 08/20/97 15:06 Page:495

 Object Unit name= VMA$ERRMSG                                 File name= VMA$SUBR.:VMB6TOU
 UTS= AUG 20 '97 15:06:08.20 WED                              Compiler= PL-6/E31         Sev=      00
 SharedLib= :SHARED_SYSTEM                                    Alt SharedLib=


    ****  Control sections  ****

 Sect   Type Bound  Init  Size OctSiz  Section name(segment info)
    0   DCB   even  none     0      0  M$UC
    1   DCB   even  none     0      0  M$MAIL_FILE
    2   DCB   even  none     0      0  M$MAIL_CENTRAL
    3   DCB   even  none     0      0  M$MAIL_GLOBAL
    4   DCB   even  none     0      0  M$WORK
    5   DCB   even  none     0      0  M$MAIL_COMGROUP
    6   DCB   even  none     0      0  M$DO
    7   DCB   even  none     0      0  M$LO
    8   DCB   even  none     0      0  M$ME
    9   DCB   even  none     0      0  M$NODE
   10   DCB   even  none     0      0  M$SI
   11   Data  even  none     8     10  VMA$ERRMSG
   12   Proc  even  none    31     37  VMA$ERRMSG
   13  RoData even  none     2      2  VMA$ERRMSG

    ****  Entry defs  ****

                              Check   Calling
                             calling  sequence
  Sect OctLoc Primary Altret sequence   type   Parms  Name
    12      0   yes            yes      Std        5  VMA$ERRMSG

  ****  Data defs  ****

 Sect OctLoc  Name                           Sect OctLoc  Name
   11      7  GATEWAY
PL6.E3A0      #015=VMA$ERRMSG File=VMA$SUBR.:VMB6TSI                             WED 08/20/97 15:06 Page:496

  ****  Entry refs  ****

         Check        Calling
        calling       sequence
Altret sequence SRef   type   Args  Name
 yes     yes           Std       7 XUR$ERRMSG
                       nStd      0 X66_AUTO_5
                       nStd      0 X66_ARET

  ****  Data refs  ****

  Flags:  r = read only, s = secondary
Flgs Name                             Flgs Name                             Flgs Name
     M$UC                             r    VM_HEADER$                       r    VM_PROFILE$
r    VM_ADDLIST$                      r    VM_ADDREC$                       r    VM_WORK$
r    VM_SELECT$                       r    VM_PARSEAREA$                    r    VM_INPUT$
r    VM_COPY$                              VM_ENCLLIST$                          VM_ENCLREC$
     VM_HEADER_                            VM_HEADER_INIT_                       VM_PROFILE_
     VM_ADDLIST_                           VM_ADDREC_                            VM_WORK_
     VM_SELECT_                            VM_PARSEAREA_                         VM_INPUT_
     VM_COPY_                              VM_ENCLLIST_                          VM_ENCLREC_
     M$MAIL_FILE                           M$MAIL_CENTRAL                        M$MAIL_GLOBAL
     M$WORK                                M$MAIL_COMGROUP                       M$DO
     M$LO                                  M$ME                                  M$NODE
     M$SI                                  M$MAIL_FILE_NUM                       M$MAIL_CENTRAL_NUM
     M$MAIL_GLOBAL_NUM                     M$WORK_NUM                            M$MAIL_COMGROUP_NUM
     M$DO_NUM                              M$ME_NUM                              M$LO_NUM
     M$SI_NUM                              M$NODE_NUM                       r    B$JIT$
r    B$TCB$                                VM_MAIL_ACCT                          VM_NAME_MAP_NAME
     ERRMSG_FID                            VM_SEND_FILE_NAME                     VM_FORWARD_FILE_NAME
     VM_FORWARD_ENCL_NAME                  VM_FORWARD_FILE_PASS                  VM_MAILCG_NAME
     VM_SITENAME                           VM_MAILCG_SETSTA
PL6.E3A0      #015=VMA$ERRMSG File=VMA$SUBR.:VMB6TSI                             WED 08/20/97 15:06 Page:497

  ****  Segment refs  ****

  Flags:  r = read only, s = secondary
Flgs Name                             Flgs Name                             Flgs Name
     ISSID                                 NULLSID
PL6.E3A0      #015=VMA$ERRMSG File=VMA$SUBR.:VMB6TSI                             WED 08/20/97 15:06 Page:498


     2649        1        /*T***********************************************************/
     2650        2        /*T*                                                         */
     2651        3        /*T* Copyright (c) Bull HN Information Systems Inc., 1997    */
     2652        4        /*T*                                                         */
     2653        5        /*T***********************************************************/
     2654        6        /*X* DMC,PLM=4,IND=4,CTI=2,DTI=0,ENI=0,ECI=0,CSI=0,DCI=4 */
     2655        7        /*X* DMC,PLM=4,IND=4,CTI=2,DTI=0,ENI=0,ECI=0,CSI=0,DCI=4 */
     2656        8        /*F*
     2657        9             NAME: VMA$ERRMSG
     2658       10             PURPOSE:
     2659       11                   To diagnose errors for procedures called by SEND.
     2660       12             DESCRIPTION:
     2661       13                   If SEND is running in gateway mode (ie, if the GATEWAY
     2662       14                   option was specified on the invocation command), errors
     2663       15                   are indicated by calling M$ERR to pass the error code back
     2664       16                   to the invoking program.
     2665       17                   Otherwise, diagnostics are issued normally via XUR$ERRMSG.
     2666       18                   All procedures included in SEND should call this routine
     2667       19                   to avoid the possibility of diagnostics being written to
     2668       20                   the output stream in gateway mode, since this tends to
     2669       21                   wreak havoc on gateway programs.
     2670       22        */
     2671       23        VMA$ERRMSG: PROC (ERROR, ERRDCB, U1_, U2_, U3_);

     23 12 000000   000000 700200 xent  VMA$ERRMSG   TSX0  ! X66_AUTO_5
        12 000001   000016 000005                    ZERO    14,5

     2672       24        /***** Include files *****/
     2673       25        %INCLUDE CP_6;
     2674     5584        %INCLUDE VM_DATA_R;
     2675     6015        %INCLUDE XUR_ENTRY;
     2676     6047        /***** Parameters *****/
     2677     6048        %VLP_ERRCODE (FPTN=ERROR, STCLASS=PARAM);
     2678     6093    1   DCL ERRDCB UBIN PARAM;
     2679     6094    1   DCL U1_ VECTOR PARAM;
     2680     6095    1   DCL U2_ VECTOR PARAM;
PL6.E3A0      #015=VMA$ERRMSG File=VMA$SUBR.:VMB6TSI                             WED 08/20/97 15:06 Page:499
     2681     6096    1   DCL U3_ VECTOR PARAM;
     2682     6097        /***** Fpts *****/
     2683     6098        %FPT_ERR (FPTN=GATEWAY_ERROR, STEPCC=ERROR, CODE=ERRCODE);
     2684     6113        %VLP_ERRCODE (FPTN=ERRCODE);
     2685     6158        /***** Global data *****/
     2686     6159    1   DCL GATEWAY BIT(1) STATIC SYMDEF INIT('0'B);
     2687     6160        %EJECT;
PL6.E3A0      #015=VMA$ERRMSG File=VMA$SUBR.:VMB6TSI                             WED 08/20/97 15:06 Page:500
     2688     6161    1       IF GATEWAY

   6161 12 000002   000007 234000 11                 SZN     GATEWAY
        12 000003   000022 605000 12                 TPL     s:6168

     2689     6162    2       THEN DO;

     2690     6163    2           ERRCODE = ERROR;

   6163 12 000004   200003 470500                    LDP0    @ERROR,,AUTO
        12 000005   000000 236100                    LDQ     0,,PR0
        12 000006   000006 756000 11                 STQ     ERRCODE

     2691     6164    2           ERRCODE.SEV = MAXIMUM (ERRCODE.SEV, 4);

   6164 12 000007   000006 236000 11                 LDQ     ERRCODE
        12 000010   000007 376007                    ANQ     7,DL
        12 000011   000004 116007                    CMPQ    4,DL
        12 000012   000014 603000 12                 TRC     s:6164+5
        12 000013   000004 236007                    LDQ     4,DL
        12 000014   000006 676000 11                 ERQ     ERRCODE
        12 000015   000007 376007                    ANQ     7,DL
        12 000016   000006 656000 11                 ERSQ    ERRCODE

     2692     6165    2           CALL M$ERR (GATEWAY_ERROR);

   6165 12 000017   000000 630400 11                 EPPR0   GATEWAY_ERROR
        12 000020   000002 713400                    CLIMB   err
        12 000021   400400 401760                    pmme    nvectors=2

     2693     6166    2       END;

     2694     6167
     2695     6168    1       CALL XUR$ERRMSG (ERROR, ERRDCB,, U1_, U2_, U3_);

   6168 12 000022   200006 237100                    LDAQ    @U2_,,AUTO
        12 000023   200014 757100                    STAQ    @U3_+5,,AUTO
PL6.E3A0      #015=VMA$ERRMSG File=VMA$SUBR.:VMB6TSI                             WED 08/20/97 15:06 Page:501
        12 000024   200005 236100                    LDQ     @U1_,,AUTO
        12 000025   000001 235000 13                 LDA     1
        12 000026   200012 757100                    STAQ    @U3_+3,,AUTO
        12 000027   200004 236100                    LDQ     @ERRDCB,,AUTO
        12 000030   200003 235100                    LDA     @ERROR,,AUTO
        12 000031   200010 757100                    STAQ    @U3_+1,,AUTO
        12 000032   200010 630500                    EPPR0   @U3_+1,,AUTO
        12 000033   000000 631400 13                 EPPR1   0
        12 000034   000000 701000 xent               TSX1    XUR$ERRMSG
        12 000035   000000 011000                    NOP     0

     2696     6169    1       RETURN;

   6169 12 000036   000000 702200 xent               TSX2  ! X66_ARET

GATEWAY_ERROR
 Sect OctLoc
  11     000   000001 777640   000004 006000   000000 777640   000006 006000    ................
  11     004   004000 000000   000000 000000                                    ........

ERRCODE
 Sect OctLoc
  11     006   000000 000000                                                    ....

GATEWAY
 Sect OctLoc
  11     007   0***** ******                                                    ....

(unnamed)
 Sect OctLoc
  13     000   000006 000000   000000 006014                                    ........
     2697     6170
     2698     6171    1   END VMA$ERRMSG;
     2699     6172        %EOD;

PL6.E3A0      #015=VMA$ERRMSG File=VMA$SUBR.:VMB6TSI                             WED 08/20/97 15:06 Page:502
--  Include file information  --

   XUR_ENTRY.:LIB_E05  cannot be made into a system file and is referenced.
   B_MACROS_C.:LIB_E05  is referenced.
   VM_DATA_R.:VMB6TOU  cannot be made into a system file and is referenced.
   CP_6_C.:LIB_E05  is referenced.
   CP_6.:LIB_E05  cannot be made into a system file and is referenced.
      No diagnostics issued in procedure VMA$ERRMSG.
PL6.E3A0      #015=VMA$ERRMSG File=VMA$SUBR.:VMB6TSI                             WED 08/20/97 15:06 Page:503

 **** Variables and constants ****

  ****  Section 011  Data  VMA$ERRMSG

  ****  Scalars and arrays  ****
OctLoc.c.b A Datatyp(siz) R M Lvl/name                 OctLoc.c.b A Datatyp(siz) R M Lvl/name

     6-0-0/w STRC        r     1 ERRCODE                    7-0-0/b BIT         r     1 GATEWAY
     0-0-0/d STRC(216)   r     1 GATEWAY_ERROR

  ****  Auto variables  ****

  ****  Scalars and arrays  ****
OctLoc.c.b A Datatyp(siz) R M Lvl/name                 OctLoc.c.b A Datatyp(siz) R M Lvl/name

     4-0-0/w PTR         r     1 @ERRDCB                    3-0-0/w PTR         r     1 @ERROR
     5-0-0/w PTR         r     1 @U1_                       6-0-0/w PTR         r     1 @U2_
     7-0-0/w PTR         r     1 @U3_                      *0-0-0/w UBIN        r     1 ERRDCB
    *0-0-0/w STRC        r     1 ERROR                     *0-0-0/d VECT        r     1 U1_
    *0-0-0/d VECT        r     1 U2_                       *0-0-0/d VECT        r     1 U3_

  ****  SYMREF variables  ****

  ****  Scalars and arrays  ****
OctLoc.c.b A Datatyp(siz) R M Lvl/name                 OctLoc.c.b A Datatyp(siz) R M Lvl/name

     0-0-0/w PTR               1 B$JIT$                     0-0-0/w PTR               1 B$TCB$
     0-0-0/c ASTR(9)     r     1 ERRMSG_FID                 0-0-0/w UBIN              1 M$DO_NUM
     0-0-0/w UBIN              1 M$LO_NUM                   0-0-0/w UBIN              1 M$MAIL_CENTRAL_NUM
     0-0-0/w UBIN              1 M$MAIL_COMGROUP_NUM        0-0-0/w UBIN              1 M$MAIL_FILE_NUM
     0-0-0/w UBIN              1 M$MAIL_GLOBAL_NUM          0-0-0/w UBIN              1 M$ME_NUM
     0-0-0/w UBIN              1 M$NODE_NUM                 0-0-0/w UBIN              1 M$SI_NUM
     0-0-0/w UBIN              1 M$WORK_NUM                 0-0-0/w PTR               1 VM_ADDLIST$
     0-0-0/d VECT              1 VM_ADDLIST_                0-0-0/w PTR               1 VM_ADDREC$
     0-0-0/d VECT              1 VM_ADDREC_                 0-0-0/w PTR               1 VM_COPY$
     0-0-0/d VECT              1 VM_COPY_                   0-0-0/w PTR               1 VM_ENCLLIST$
     0-0-0/d VECT              1 VM_ENCLLIST_               0-0-0/w PTR               1 VM_ENCLREC$
PL6.E3A0      #015=VMA$ERRMSG File=VMA$SUBR.:VMB6TSI                             WED 08/20/97 15:06 Page:504
     0-0-0/d VECT              1 VM_ENCLREC_                0-0-0/c STRC(270)         1 VM_FORWARD_ENCL_NAME
     0-0-0/c STRC(270)         1 VM_FORWARD_FILE_NAME       0-0-0/c STRC(72)          1 VM_FORWARD_FILE_PASS
     0-0-0/w PTR               1 VM_HEADER$                 0-0-0/d VECT              1 VM_HEADER_
     0-0-0/d VECT              1 VM_HEADER_INIT_            0-0-0/w PTR               1 VM_INPUT$
     0-0-0/d VECT              1 VM_INPUT_                  0-0-0/c STRC(72)          1 VM_MAILCG_NAME
     0-0-0/w STRC(432)         1 VM_MAILCG_SETSTA           0-0-0/c STRC(72)          1 VM_MAIL_ACCT
     0-0-0/c STRC(54)          1 VM_NAME_MAP_NAME           0-0-0/w PTR               1 VM_PARSEAREA$
     0-0-0/d VECT              1 VM_PARSEAREA_              0-0-0/w PTR               1 VM_PROFILE$
     0-0-0/d VECT              1 VM_PROFILE_                0-0-0/w PTR               1 VM_SELECT$
     0-0-0/d VECT              1 VM_SELECT_                 0-0-0/c STRC(288)         1 VM_SEND_FILE_NAME
     0-0-0/c CHAR(8)           1 VM_SITENAME                0-0-0/w PTR               1 VM_WORK$
     0-0-0/d VECT              1 VM_WORK_

  ****  BASED and DCB variables  ****

  ****  Scalars and arrays  ****
OctLoc.c.b A Datatyp(siz) R M Lvl/name                 OctLoc.c.b A Datatyp(siz) R M Lvl/name

     0-0-0N  NULL        r     1 M$DO                       0-0-0N  NULL        r     1 M$LO
     0-0-0N  NULL        r     1 M$MAIL_CENTRAL             0-0-0N  NULL        r     1 M$MAIL_COMGROUP
     0-0-0N  NULL        r     1 M$MAIL_FILE                0-0-0N  NULL        r     1 M$MAIL_GLOBAL
     0-0-0N  NULL        r     1 M$ME                       0-0-0N  NULL        r     1 M$NODE
     0-0-0N  NULL        r     1 M$SI                       0-0-0N  NULL        r     1 M$UC
     0-0-0N  NULL        r     1 M$WORK                     0-0-0/c ASTR(9)     r     1 X$STRING


   Procedure VMA$ERRMSG requires 31 words for executable code.
   Procedure VMA$ERRMSG requires 14 words of local(AUTO) storage.
PL6.E3A0      #015=VMA$ERRMSG File=VMA$SUBR.:VMB6TSI                             WED 08/20/97 15:06 Page:505
          *** CROSS REFERENCE LISTING ***
**     DENOTES     IDENTIFIER DEFINITION
<<                 IDENTIFIER'S VALUE SET
>>                 IDENTIFIER'S VALUE USED
<>                 IDENTIFIER SET AND/OR USED
--                 IDENTIFIER REFERENCED
PL6.E3A0      #015=VMA$ERRMSG File=VMA$SUBR.:VMB6TSI                             WED 08/20/97 15:06 Page:506
          MINI XREF LISTING

ERRCODE
      6125**DCL      6109--DCLINIT  6163<<ASSIGN
ERRCODE.SEV
      6155**DCL      6164<<ASSIGN   6164>>ASSIGN
ERRDCB
      6093**DCL        23--PROC     6168<>CALL
ERRMSG_FID.L#
      5860**DCL      5860--IMP-SIZ
ERROR
      6060**DCL        23--PROC     6163>>ASSIGN   6168<>CALL
GATEWAY
      6159**DCL      6161>>IF
GATEWAY_ERROR
      6109**DCL      6165<>CALL
GATEWAY_ERROR.V
      6109**DCL      6109--DCLINIT
GATEWAY_ERROR.V.STEPCC#
      6110**DCL      6110--REDEF
M$ERR
      5524**DCL-ENT  6165--CALL
U1_
      6094**DCL        23--PROC     6168<>CALL
U2_
      6095**DCL        23--PROC     6168<>CALL
U3_
      6096**DCL        23--PROC     6168<>CALL
X$STRING.SIZ
      5706**DCL      5707--IMP-SIZ
XUR$ERRMSG
      6030**DCL-ENT  6168--CALL

PL6.E3A0      #016=VMA$OPEN_ENCL_SEGS File=VMA$SUBR.:VMB6TSI                     WED 08/20/97 15:06 Page:507
     2700        1        /*T***********************************************************/
     2701        2        /*T*                                                         */
     2702        3        /*T* Copyright (c) Bull HN Information Systems Inc., 1997    */
     2703        4        /*T*                                                         */
     2704        5        /*T***********************************************************/
     2705        6        /*X* DMC,PLM=4,IND=4,CTI=2,DTI=0,ENI=0,ECI=0,CSI=0,MCI,DCI=4 */
     2706        7        /*F*
     2707        8             NAME: VMA$OPEN_ENCL_SEGS
     2708        9             PURPOSE:
     2709       10                   To open virtual data segments to hold the enclosure
     2710       11                   context record and enclosure data records.
     2711       12             DESCRIPTION:
     2712       13        */
     2713       14        VMA$OPEN_ENCL_SEGS: PROC ALTRET;
     2714       15        /***** Include files *****/
     2715       16        %INCLUDE CP_6;
     2716     5575        %INCLUDE VM_DATA_R;
     2717     6006        %INCLUDE CP_6_SUBS;
     2718     6546        /***** Parameters *****/
     2719     6547        /***** Fpts *****/
     2720     6548        %FPT_OPEN (FPTN = OPEN_VIRT_ENCLLIST_CONS, STCLASS = CONSTANT);
     2721     6657        %FPT_OPEN (FPTN = OPEN_VIRT_ENCLREC_CONS, STCLASS = CONSTANT);
     2722     6766
     2723     6767        %FPT_OPEN (FPTN = OPEN_VIRT_ENCLLIST, STCLASS = AUTO);
     2724     6876        %FPT_OPEN (FPTN = OPEN_VIRT_ENCLREC, STCLASS = AUTO);
     2725     6985
     2726     6986        %VLP_VIRTUAL (FPTN = VIRT_ENCLLIST_CONS, STCLASS = CONSTANT,
     2727     6987                      INITIALIZE = NO,
     2728     6988                      PHYSICAL = 20,
     2729     6989                      SEGNUM = VS1,
     2730     6990                      SEGSIZE = 1048576);
     2731     7010        %VLP_VIRTUAL (FPTN = VIRT_ENCLLIST, STCLASS = AUTO);
     2732     7030
     2733     7031        %VLP_VIRTUAL (FPTN = VIRT_ENCLREC_CONS, STCLASS = CONSTANT,
     2734     7032                      INITIALIZE = NO,
     2735     7033                      PHYSICAL = 20,
     2736     7034                      SEGNUM = VS2,
PL6.E3A0      #016=VMA$OPEN_ENCL_SEGS File=VMA$SUBR.:VMB6TSI                     WED 08/20/97 15:06 Page:508
     2737     7035                      SEGSIZE = 1048576);
     2738     7055        %VLP_VIRTUAL (FPTN = VIRT_ENCLREC, STCLASS = AUTO);
     2739     7075
     2740     7076        %FPT_CLOSE (FPTN = CLOSE_VIRT_ENCLLIST_CONS, STCLASS = CONSTANT);
     2741     7118        %FPT_CLOSE (FPTN = CLOSE_VIRT_ENCLLIST,
     2742     7119                    STCLASS = AUTO,
     2743     7120                    DCB = M$VIRT1);
     2744     7162
     2745     7163        %FPT_CLOSE (FPTN = CLOSE_VIRT_ENCLREC_CONS, STCLASS = CONSTANT);
     2746     7205        %FPT_CLOSE (FPTN = CLOSE_VIRT_ENCLREC,
     2747     7206                    STCLASS = AUTO,
     2748     7207                    DCB = M$VIRT2);
     2749     7249
     2750     7250        /***** External Routines *****/
     2751     7251    1   DCL VMX$SHRINK_PTR ENTRY(4);
     2752     7252
     2753     7253        /***** DCBs *****/
     2754     7254    1   DCL M$VIRT1 DCB;
     2755     7255    1   DCL M$VIRT2 DCB;
     2756     7256
     2757     7257        /***** Static *****/
     2758     7258    1   DCL OFFSET SBIN WORD STATIC INIT(0);
     2759     7259    1   DCL SIZE   SBIN WORD STATIC INIT(1048576);
     2760     7260    1   DCL PAGESIZE SBIN WORD STATIC INIT(4096);
     2761     7261        %EJECT;
PL6.E3A0      #016=VMA$OPEN_ENCL_SEGS File=VMA$SUBR.:VMB6TSI                     WED 08/20/97 15:06 Page:509
     2762     7262    1       VIRT_ENCLLIST = VIRT_ENCLLIST_CONS;
     2763     7263    1       VIRT_ENCLREC = VIRT_ENCLREC_CONS;
     2764     7264
     2765     7265    1       OPEN_VIRT_ENCLLIST = OPEN_VIRT_ENCLLIST_CONS;
     2766     7266    1       OPEN_VIRT_ENCLLIST.V_ = VECTOR(OPEN_VIRT_ENCLLIST.V);
     2767     7267    1       OPEN_VIRT_ENCLLIST.V.FUN# = %CREATE#;
     2768     7268    1       OPEN_VIRT_ENCLLIST.V.ORG# = %KEYED#;
     2769     7269    1       OPEN_VIRT_ENCLLIST.V.ASN# = %FILE#;
     2770     7270    1       OPEN_VIRT_ENCLLIST.V.DISP# = %SCRATCH#;
     2771     7271    1       OPEN_VIRT_ENCLLIST.V.DCB# = DCBNUM(M$VIRT1);
     2772     7272    1       OPEN_VIRT_ENCLLIST.VIRTUAL_ = VECTOR(VIRT_ENCLLIST);
     2773     7273    1       CALL M$OPEN (OPEN_VIRT_ENCLLIST) ALTRET (E_PMME);
     2774     7274    1       CALL VMX$SHRINK_PTR (VIRT_ENCLLIST.PTR$,OFFSET,SIZE,VM_ENCLLIST$);
     2775     7275    1       VBASE(VM_ENCLLIST_) = VM_ENCLLIST$;
     2776     7276    1       VBOUND(VM_ENCLLIST_) = PAGESIZE-1;
     2777     7277
     2778     7278    1       OPEN_VIRT_ENCLREC = OPEN_VIRT_ENCLREC_CONS;
     2779     7279    1       OPEN_VIRT_ENCLREC.V_ = VECTOR(OPEN_VIRT_ENCLREC.V);
     2780     7280    1       OPEN_VIRT_ENCLREC.V.FUN# = %CREATE#;
     2781     7281    1       OPEN_VIRT_ENCLREC.V.ORG# = %KEYED#;
     2782     7282    1       OPEN_VIRT_ENCLREC.V.ASN# = %FILE#;
     2783     7283    1       OPEN_VIRT_ENCLREC.V.DISP# = %SCRATCH#;
     2784     7284    1       OPEN_VIRT_ENCLREC.V.DCB# = DCBNUM(M$VIRT2);
     2785     7285    1       OPEN_VIRT_ENCLREC.VIRTUAL_ = VECTOR(VIRT_ENCLREC);
     2786     7286    1       CALL M$OPEN (OPEN_VIRT_ENCLREC) ALTRET (E_PMME);
     2787     7287    1       CALL VMX$SHRINK_PTR (VIRT_ENCLREC.PTR$,OFFSET,SIZE,VM_ENCLREC$);
     2788     7288    1       VBASE(VM_ENCLREC_) = VM_ENCLREC$;
     2789     7289    1       VBOUND(VM_ENCLREC_) = PAGESIZE-1;
     2790     7290
     2791     7291    1       RETURN;
     2792     7292
     2793     7293        %EJECT;
PL6.E3A0      #016=VMA$OPEN_ENCL_SEGS File=VMA$SUBR.:VMB6TSI                     WED 08/20/97 15:06 Page:510
     2794     7294    1   VMA$CLOSE_ENCL_SEGS: ENTRY ALTRET;
     2795     7295
     2796     7296    1       CLOSE_VIRT_ENCLLIST = CLOSE_VIRT_ENCLLIST_CONS;
     2797     7297    1       CLOSE_VIRT_ENCLLIST.V_ = VECTOR(CLOSE_VIRT_ENCLLIST.V);
     2798     7298    1       CLOSE_VIRT_ENCLLIST.V.DCB# = DCBNUM(M$VIRT1);
     2799     7299
     2800     7300    1       CLOSE_VIRT_ENCLREC = CLOSE_VIRT_ENCLREC_CONS;
     2801     7301    1       CLOSE_VIRT_ENCLREC.V_ = VECTOR(CLOSE_VIRT_ENCLREC.V);
     2802     7302    1       CLOSE_VIRT_ENCLREC.V.DCB# = DCBNUM(M$VIRT1);
     2803     7303
     2804     7304    1       CALL M$CLOSE (CLOSE_VIRT_ENCLLIST) ALTRET (E_PMME);
     2805     7305    1       CALL M$CLOSE (CLOSE_VIRT_ENCLREC) ALTRET (E_PMME);
     2806     7306
     2807     7307    1       RETURN;
     2808     7308
     2809     7309    1   E_PMME:
     2810     7310
     2811     7311    1       ALTRETURN;
     2812     7312
     2813     7313    1   END VMA$OPEN_ENCL_SEGS;

PL6.E3A0      #016=VMA$OPEN_ENCL_SEGS File=VMA$SUBR.:VMB6TSI                     WED 08/20/97 15:06 Page:511
--  Include file information  --

   CP_6_SUBS.:LIB_E05  is referenced.
   B_MACROS_C.:LIB_E05  is referenced.
   VM_DATA_R.:VMB6TOU  cannot be made into a system file and is referenced.
   CP_6_C.:LIB_E05  is referenced.
   CP_6.:LIB_E05  cannot be made into a system file and is referenced.
      No diagnostics issued in procedure VMA$OPEN_ENCL_SEGS.

   Procedure VMA$OPEN_ENCL_SEGS requires 133 words for executable code.
   Procedure VMA$OPEN_ENCL_SEGS requires 208 words of local(AUTO) storage.

    No errors detected in file VMA$SUBR.:VMB6TSI    .

PL6.E3A0      #016=VMA$OPEN_ENCL_SEGS File=VMA$SUBR.:VMB6TSI                     WED 08/20/97 15:06 Page:512

 Object Unit name= VMA$OPEN_ENCL_SEGS                         File name= VMA$SUBR.:VMB6TOU
 UTS= AUG 20 '97 15:06:18.64 WED                              Compiler= PL-6/E31         Sev=      00
 SharedLib= :SHARED_SYSTEM                                    Alt SharedLib=


    ****  Control sections  ****

 Sect   Type Bound  Init  Size OctSiz  Section name(segment info)
    0   DCB   even  none     0      0  M$UC
    1   DCB   even  none     0      0  M$MAIL_FILE
    2   DCB   even  none     0      0  M$MAIL_CENTRAL
    3   DCB   even  none     0      0  M$MAIL_GLOBAL
    4   DCB   even  none     0      0  M$WORK
    5   DCB   even  none     0      0  M$MAIL_COMGROUP
    6   DCB   even  none     0      0  M$DO
    7   DCB   even  none     0      0  M$LO
    8   DCB   even  none     0      0  M$ME
    9   DCB   even  none     0      0  M$NODE
   10   DCB   even  none     0      0  M$SI
   11  RoData even  UTS    200    310  VMA$OPEN_ENCL_SEGS
   12   DCB   even  none     0      0  M$VIRT1
   13   DCB   even  none     0      0  M$VIRT2
   14   Data  even  none     3      3  VMA$OPEN_ENCL_SEGS
   15   Proc  even  none   133    205  VMA$OPEN_ENCL_SEGS
   16  RoData even  none    10     12  VMA$OPEN_ENCL_SEGS

    ****  Entry defs  ****

                              Check   Calling
                             calling  sequence
  Sect OctLoc Primary Altret sequence   type   Parms  Name
    15      0   yes    yes     yes      Std        0  VMA$OPEN_ENCL_SEGS
    15    143          yes     yes      Std        0  VMA$CLOSE_ENCL_SEGS
PL6.E3A0      #016=VMA$OPEN_ENCL_SEGS File=VMA$SUBR.:VMB6TSI                     WED 08/20/97 15:06 Page:513

  ****  Entry refs  ****

         Check        Calling
        calling       sequence
Altret sequence SRef   type   Args  Name
         yes           Std       4 VMX$SHRINK_PTR
                       nStd      0 X66_AUTO_0
                       nStd      0 X66_ARET
                       nStd      0 X66_AALT

  ****  Data refs  ****

  Flags:  r = read only, s = secondary
Flgs Name                             Flgs Name                             Flgs Name
     M$UC                             r    VM_HEADER$                       r    VM_PROFILE$
r    VM_ADDLIST$                      r    VM_ADDREC$                       r    VM_WORK$
r    VM_SELECT$                       r    VM_PARSEAREA$                    r    VM_INPUT$
r    VM_COPY$                              VM_ENCLLIST$                          VM_ENCLREC$
     VM_HEADER_                            VM_HEADER_INIT_                       VM_PROFILE_
     VM_ADDLIST_                           VM_ADDREC_                            VM_WORK_
     VM_SELECT_                            VM_PARSEAREA_                         VM_INPUT_
     VM_COPY_                              VM_ENCLLIST_                          VM_ENCLREC_
     M$MAIL_FILE                           M$MAIL_CENTRAL                        M$MAIL_GLOBAL
     M$WORK                                M$MAIL_COMGROUP                       M$DO
     M$LO                                  M$ME                                  M$NODE
     M$SI                                  M$MAIL_FILE_NUM                       M$MAIL_CENTRAL_NUM
     M$MAIL_GLOBAL_NUM                     M$WORK_NUM                            M$MAIL_COMGROUP_NUM
     M$DO_NUM                              M$ME_NUM                              M$LO_NUM
     M$SI_NUM                              M$NODE_NUM                       r    B$JIT$
r    B$TCB$                                VM_MAIL_ACCT                          VM_NAME_MAP_NAME
     ERRMSG_FID                            VM_SEND_FILE_NAME                     VM_FORWARD_FILE_NAME
     VM_FORWARD_ENCL_NAME                  VM_FORWARD_FILE_PASS                  VM_MAILCG_NAME
     VM_SITENAME                           VM_MAILCG_SETSTA                      M$VIRT1
     M$VIRT2
PL6.E3A0      #016=VMA$OPEN_ENCL_SEGS File=VMA$SUBR.:VMB6TSI                     WED 08/20/97 15:06 Page:514

  ****  Segment refs  ****

  Flags:  r = read only, s = secondary
Flgs Name                             Flgs Name                             Flgs Name
     ISSID                                 NULLSID
PL6.E3A0      #016=VMA$OPEN_ENCL_SEGS File=VMA$SUBR.:VMB6TSI                     WED 08/20/97 15:06 Page:515


     2700        1        /*T***********************************************************/
     2701        2        /*T*                                                         */
     2702        3        /*T* Copyright (c) Bull HN Information Systems Inc., 1997    */
     2703        4        /*T*                                                         */
     2704        5        /*T***********************************************************/
     2705        6        /*X* DMC,PLM=4,IND=4,CTI=2,DTI=0,ENI=0,ECI=0,CSI=0,MCI,DCI=4 */
     2706        7        /*F*
     2707        8             NAME: VMA$OPEN_ENCL_SEGS
     2708        9             PURPOSE:
     2709       10                   To open virtual data segments to hold the enclosure
     2710       11                   context record and enclosure data records.
     2711       12             DESCRIPTION:
     2712       13        */
     2713       14        VMA$OPEN_ENCL_SEGS: PROC ALTRET;

     14 15 000000   000000 700200 xent  VMA$OPEN_EN* TSX0  ! X66_AUTO_0
        15 000001   000320 000000                    ZERO    208,0

     2714       15        /***** Include files *****/
     2715       16        %INCLUDE CP_6;
     2716     5575        %INCLUDE VM_DATA_R;
     2717     6006        %INCLUDE CP_6_SUBS;
     2718     6546        /***** Parameters *****/
     2719     6547        /***** Fpts *****/
     2720     6548        %FPT_OPEN (FPTN = OPEN_VIRT_ENCLLIST_CONS, STCLASS = CONSTANT);
     2721     6657        %FPT_OPEN (FPTN = OPEN_VIRT_ENCLREC_CONS, STCLASS = CONSTANT);
     2722     6766
     2723     6767        %FPT_OPEN (FPTN = OPEN_VIRT_ENCLLIST, STCLASS = AUTO);
     2724     6876        %FPT_OPEN (FPTN = OPEN_VIRT_ENCLREC, STCLASS = AUTO);
     2725     6985
     2726     6986        %VLP_VIRTUAL (FPTN = VIRT_ENCLLIST_CONS, STCLASS = CONSTANT,
     2727     6987                      INITIALIZE = NO,
     2728     6988                      PHYSICAL = 20,
     2729     6989                      SEGNUM = VS1,
     2730     6990                      SEGSIZE = 1048576);
     2731     7010        %VLP_VIRTUAL (FPTN = VIRT_ENCLLIST, STCLASS = AUTO);
PL6.E3A0      #016=VMA$OPEN_ENCL_SEGS File=VMA$SUBR.:VMB6TSI                     WED 08/20/97 15:06 Page:516
     2732     7030
     2733     7031        %VLP_VIRTUAL (FPTN = VIRT_ENCLREC_CONS, STCLASS = CONSTANT,
     2734     7032                      INITIALIZE = NO,
     2735     7033                      PHYSICAL = 20,
     2736     7034                      SEGNUM = VS2,
     2737     7035                      SEGSIZE = 1048576);
     2738     7055        %VLP_VIRTUAL (FPTN = VIRT_ENCLREC, STCLASS = AUTO);
     2739     7075
     2740     7076        %FPT_CLOSE (FPTN = CLOSE_VIRT_ENCLLIST_CONS, STCLASS = CONSTANT);
     2741     7118        %FPT_CLOSE (FPTN = CLOSE_VIRT_ENCLLIST,
     2742     7119                    STCLASS = AUTO,
     2743     7120                    DCB = M$VIRT1);
     2744     7162
     2745     7163        %FPT_CLOSE (FPTN = CLOSE_VIRT_ENCLREC_CONS, STCLASS = CONSTANT);
     2746     7205        %FPT_CLOSE (FPTN = CLOSE_VIRT_ENCLREC,
     2747     7206                    STCLASS = AUTO,
     2748     7207                    DCB = M$VIRT2);
     2749     7249
     2750     7250        /***** External Routines *****/
     2751     7251    1   DCL VMX$SHRINK_PTR ENTRY(4);
     2752     7252
     2753     7253        /***** DCBs *****/
     2754     7254    1   DCL M$VIRT1 DCB;
     2755     7255    1   DCL M$VIRT2 DCB;
     2756     7256
     2757     7257        /***** Static *****/
     2758     7258    1   DCL OFFSET SBIN WORD STATIC INIT(0);
     2759     7259    1   DCL SIZE   SBIN WORD STATIC INIT(1048576);
     2760     7260    1   DCL PAGESIZE SBIN WORD STATIC INIT(4096);
     2761     7261        %EJECT;
PL6.E3A0      #016=VMA$OPEN_ENCL_SEGS File=VMA$SUBR.:VMB6TSI                     WED 08/20/97 15:06 Page:517
     2762     7262    1       VIRT_ENCLLIST = VIRT_ENCLLIST_CONS;

   7262 15 000002   000100 100400                    MLR     fill='000'O
        15 000003   000164 000060 11                 ADSC9   VIRT_ENCLLIST_CONS       cn=0,n=48
        15 000004   200170 000060                    ADSC9   VIRT_ENCLLIST,,AUTO      cn=0,n=48

     2763     7263    1       VIRT_ENCLREC = VIRT_ENCLREC_CONS;

   7263 15 000005   000100 100400                    MLR     fill='000'O
        15 000006   000200 000060 11                 ADSC9   VIRT_ENCLREC_CONS        cn=0,n=48
        15 000007   200204 000060                    ADSC9   VIRT_ENCLREC,,AUTO       cn=0,n=48

     2764     7264
     2765     7265    1       OPEN_VIRT_ENCLLIST = OPEN_VIRT_ENCLLIST_CONS;

   7265 15 000010   000100 100400                    MLR     fill='000'O
        15 000011   000000 000350 11                 ADSC9   OPEN_VIRT_ENCLLIST_CONS  cn=0,n=232
        15 000012   200004 000350                    ADSC9   OPEN_VIRT_ENCLLIST,,AUTO cn=0,n=232

     2766     7266    1       OPEN_VIRT_ENCLLIST.V_ = VECTOR(OPEN_VIRT_ENCLLIST.V);

   7266 15 000013   000000 235000 16                 LDA     0
        15 000014   200314 452500                    STP2    CLOSE_VIRT_ENCLREC+30,,AUTO
        15 000015   200314 236100                    LDQ     CLOSE_VIRT_ENCLREC+30,,AUTO
        15 000016   000050 036003                    ADLQ    40,DU
        15 000017   200004 757100                    STAQ    OPEN_VIRT_ENCLLIST,,AUTO

     2767     7267    1       OPEN_VIRT_ENCLLIST.V.FUN# = %CREATE#;

   7267 15 000020   003000 236007                    LDQ     1536,DL
        15 000021   200051 552110                    STBQ    OPEN_VIRT_ENCLLIST+37,'10'O,AUTO

     2768     7268    1       OPEN_VIRT_ENCLLIST.V.ORG# = %KEYED#;

   7268 15 000022   002000 236007                    LDQ     1024,DL
        15 000023   200052 552110                    STBQ    OPEN_VIRT_ENCLLIST+38,'10'O,AUTO

PL6.E3A0      #016=VMA$OPEN_ENCL_SEGS File=VMA$SUBR.:VMB6TSI                     WED 08/20/97 15:06 Page:518
     2769     7269    1       OPEN_VIRT_ENCLLIST.V.ASN# = %FILE#;

   7269 15 000024   000001 236007                    LDQ     1,DL
        15 000025   200051 552104                    STBQ    OPEN_VIRT_ENCLLIST+37,'04'O,AUTO

     2770     7270    1       OPEN_VIRT_ENCLLIST.V.DISP# = %SCRATCH#;

   7270 15 000026   200055 552104                    STBQ    OPEN_VIRT_ENCLLIST+41,'04'O,AUTO

     2771     7271    1       OPEN_VIRT_ENCLLIST.V.DCB# = DCBNUM(M$VIRT1);

   7271 15 000027   000000 236007 xsym               LDQ     M$VIRT1,DL
        15 000030   000000 620006                    EAX0    0,QL
        15 000031   200050 740100                    STX0    OPEN_VIRT_ENCLLIST+36,,AUTO

     2772     7272    1       OPEN_VIRT_ENCLLIST.VIRTUAL_ = VECTOR(VIRT_ENCLLIST);

   7272 15 000032   000001 235000 16                 LDA     1
        15 000033   200314 452500                    STP2    CLOSE_VIRT_ENCLREC+30,,AUTO
        15 000034   200314 236100                    LDQ     CLOSE_VIRT_ENCLREC+30,,AUTO
        15 000035   000170 036003                    ADLQ    120,DU
        15 000036   200010 757100                    STAQ    OPEN_VIRT_ENCLLIST+4,,AUTO

     2773     7273    1       CALL M$OPEN (OPEN_VIRT_ENCLLIST) ALTRET (E_PMME);

   7273 15 000037   200004 630500                    EPPR0   OPEN_VIRT_ENCLLIST,,AUTO
        15 000040   450000 713400                    CLIMB   alt,open
        15 000041   410400 401760                    pmme    nvectors=18
        15 000042   000204 702000 15                 TSX2    E_PMME

     2774     7274    1       CALL VMX$SHRINK_PTR (VIRT_ENCLLIST.PTR$,OFFSET,SIZE,VM_ENCLLIST$);

   7274 15 000043   000004 237000 16                 LDAQ    4
        15 000044   200316 757100                    STAQ    CLOSE_VIRT_ENCLREC+32,,AUTO
        15 000045   000003 236000 16                 LDQ     3
        15 000046   200315 756100                    STQ     CLOSE_VIRT_ENCLREC+31,,AUTO
        15 000047   200174 630500                    EPPR0   VIRT_ENCLLIST+4,,AUTO
PL6.E3A0      #016=VMA$OPEN_ENCL_SEGS File=VMA$SUBR.:VMB6TSI                     WED 08/20/97 15:06 Page:519
        15 000050   200314 450500                    STP0    CLOSE_VIRT_ENCLREC+30,,AUTO
        15 000051   200314 630500                    EPPR0   CLOSE_VIRT_ENCLREC+30,,AUTO
        15 000052   000002 631400 16                 EPPR1   2
        15 000053   000000 701000 xent               TSX1    VMX$SHRINK_PTR
        15 000054   000000 011000                    NOP     0

     2775     7275    1       VBASE(VM_ENCLLIST_) = VM_ENCLLIST$;

   7275 15 000055   000000 236000 xsym               LDQ     VM_ENCLLIST$
        15 000056   000001 756000 xsym               STQ     VM_ENCLLIST_+1

     2776     7276    1       VBOUND(VM_ENCLLIST_) = PAGESIZE-1;

   7276 15 000057   000002 236000 14                 LDQ     PAGESIZE
        15 000060   000001 136007                    SBLQ    1,DL
        15 000061   000020 736000                    QLS     16
        15 000062   000000 676000 xsym               ERQ     VM_ENCLLIST_
        15 000063   000006 376000 16                 ANQ     6
        15 000064   000000 656000 xsym               ERSQ    VM_ENCLLIST_

     2777     7277
     2778     7278    1       OPEN_VIRT_ENCLREC = OPEN_VIRT_ENCLREC_CONS;

   7278 15 000065   000100 100400                    MLR     fill='000'O
        15 000066   000072 000350 11                 ADSC9   OPEN_VIRT_ENCLREC_CONS   cn=0,n=232
        15 000067   200076 000350                    ADSC9   OPEN_VIRT_ENCLREC,,AUTO  cn=0,n=232

     2779     7279    1       OPEN_VIRT_ENCLREC.V_ = VECTOR(OPEN_VIRT_ENCLREC.V);

   7279 15 000070   000000 235000 16                 LDA     0
        15 000071   200314 452500                    STP2    CLOSE_VIRT_ENCLREC+30,,AUTO
        15 000072   200314 236100                    LDQ     CLOSE_VIRT_ENCLREC+30,,AUTO
        15 000073   000142 036003                    ADLQ    98,DU
        15 000074   200076 757100                    STAQ    OPEN_VIRT_ENCLREC,,AUTO

     2780     7280    1       OPEN_VIRT_ENCLREC.V.FUN# = %CREATE#;

PL6.E3A0      #016=VMA$OPEN_ENCL_SEGS File=VMA$SUBR.:VMB6TSI                     WED 08/20/97 15:06 Page:520
   7280 15 000075   003000 236007                    LDQ     1536,DL
        15 000076   200143 552110                    STBQ    OPEN_VIRT_ENCLREC+37,'10'O,AUTO

     2781     7281    1       OPEN_VIRT_ENCLREC.V.ORG# = %KEYED#;

   7281 15 000077   002000 236007                    LDQ     1024,DL
        15 000100   200144 552110                    STBQ    OPEN_VIRT_ENCLREC+38,'10'O,AUTO

     2782     7282    1       OPEN_VIRT_ENCLREC.V.ASN# = %FILE#;

   7282 15 000101   000001 236007                    LDQ     1,DL
        15 000102   200143 552104                    STBQ    OPEN_VIRT_ENCLREC+37,'04'O,AUTO

     2783     7283    1       OPEN_VIRT_ENCLREC.V.DISP# = %SCRATCH#;

   7283 15 000103   200147 552104                    STBQ    OPEN_VIRT_ENCLREC+41,'04'O,AUTO

     2784     7284    1       OPEN_VIRT_ENCLREC.V.DCB# = DCBNUM(M$VIRT2);

   7284 15 000104   000000 236007 xsym               LDQ     M$VIRT2,DL
        15 000105   000000 620006                    EAX0    0,QL
        15 000106   200142 740100                    STX0    OPEN_VIRT_ENCLREC+36,,AUTO

     2785     7285    1       OPEN_VIRT_ENCLREC.VIRTUAL_ = VECTOR(VIRT_ENCLREC);

   7285 15 000107   000001 235000 16                 LDA     1
        15 000110   200314 452500                    STP2    CLOSE_VIRT_ENCLREC+30,,AUTO
        15 000111   200314 236100                    LDQ     CLOSE_VIRT_ENCLREC+30,,AUTO
        15 000112   000204 036003                    ADLQ    132,DU
        15 000113   200102 757100                    STAQ    OPEN_VIRT_ENCLREC+4,,AUTO

     2786     7286    1       CALL M$OPEN (OPEN_VIRT_ENCLREC) ALTRET (E_PMME);

   7286 15 000114   200076 630500                    EPPR0   OPEN_VIRT_ENCLREC,,AUTO
        15 000115   450000 713400                    CLIMB   alt,open
        15 000116   410400 401760                    pmme    nvectors=18
        15 000117   000204 702000 15                 TSX2    E_PMME
PL6.E3A0      #016=VMA$OPEN_ENCL_SEGS File=VMA$SUBR.:VMB6TSI                     WED 08/20/97 15:06 Page:521

     2787     7287    1       CALL VMX$SHRINK_PTR (VIRT_ENCLREC.PTR$,OFFSET,SIZE,VM_ENCLREC$);

   7287 15 000120   000010 237000 16                 LDAQ    8
        15 000121   200316 757100                    STAQ    CLOSE_VIRT_ENCLREC+32,,AUTO
        15 000122   000003 236000 16                 LDQ     3
        15 000123   200315 756100                    STQ     CLOSE_VIRT_ENCLREC+31,,AUTO
        15 000124   200210 630500                    EPPR0   VIRT_ENCLREC+4,,AUTO
        15 000125   200314 450500                    STP0    CLOSE_VIRT_ENCLREC+30,,AUTO
        15 000126   200314 630500                    EPPR0   CLOSE_VIRT_ENCLREC+30,,AUTO
        15 000127   000002 631400 16                 EPPR1   2
        15 000130   000000 701000 xent               TSX1    VMX$SHRINK_PTR
        15 000131   000000 011000                    NOP     0

     2788     7288    1       VBASE(VM_ENCLREC_) = VM_ENCLREC$;

   7288 15 000132   000000 236000 xsym               LDQ     VM_ENCLREC$
        15 000133   000001 756000 xsym               STQ     VM_ENCLREC_+1

     2789     7289    1       VBOUND(VM_ENCLREC_) = PAGESIZE-1;

   7289 15 000134   000002 236000 14                 LDQ     PAGESIZE
        15 000135   000001 136007                    SBLQ    1,DL
        15 000136   000020 736000                    QLS     16
        15 000137   000000 676000 xsym               ERQ     VM_ENCLREC_
        15 000140   000006 376000 16                 ANQ     6
        15 000141   000000 656000 xsym               ERSQ    VM_ENCLREC_

     2790     7290
     2791     7291    1       RETURN;

   7291 15 000142   000000 702200 xent               TSX2  ! X66_ARET

     2792     7292
     2793     7293        %EJECT;
PL6.E3A0      #016=VMA$OPEN_ENCL_SEGS File=VMA$SUBR.:VMB6TSI                     WED 08/20/97 15:06 Page:522
     2794     7294    1   VMA$CLOSE_ENCL_SEGS: ENTRY ALTRET;

   7294 15 000143   000000 700200 xent  VMA$CLOSE_E* TSX0  ! X66_AUTO_0
        15 000144   000320 000000                    ZERO    208,0

     2795     7295
     2796     7296    1       CLOSE_VIRT_ENCLLIST = CLOSE_VIRT_ENCLLIST_CONS;

   7296 15 000145   000100 100400                    MLR     fill='000'O
        15 000146   000214 000170 11                 ADSC9   CLOSE_VIRT_ENCLLIST_CONS cn=0,n=120
        15 000147   200220 000170                    ADSC9   CLOSE_VIRT_ENCLLIST,,AUTO cn=0,n=120

     2797     7297    1       CLOSE_VIRT_ENCLLIST.V_ = VECTOR(CLOSE_VIRT_ENCLLIST.V);

   7297 15 000150   000007 235000 16                 LDA     7
        15 000151   200314 452500                    STP2    CLOSE_VIRT_ENCLREC+30,,AUTO
        15 000152   200314 236100                    LDQ     CLOSE_VIRT_ENCLREC+30,,AUTO
        15 000153   000252 036003                    ADLQ    170,DU
        15 000154   200220 757100                    STAQ    CLOSE_VIRT_ENCLLIST,,AUTO

     2798     7298    1       CLOSE_VIRT_ENCLLIST.V.DCB# = DCBNUM(M$VIRT1);

   7298 15 000155   000000 236007 xsym               LDQ     M$VIRT1,DL
        15 000156   000000 620006                    EAX0    0,QL
        15 000157   200252 740100                    STX0    CLOSE_VIRT_ENCLLIST+26,,AUTO

     2799     7299
     2800     7300    1       CLOSE_VIRT_ENCLREC = CLOSE_VIRT_ENCLREC_CONS;

   7300 15 000160   000100 100400                    MLR     fill='000'O
        15 000161   000252 000170 11                 ADSC9   CLOSE_VIRT_ENCLREC_CONS  cn=0,n=120
        15 000162   200256 000170                    ADSC9   CLOSE_VIRT_ENCLREC,,AUTO cn=0,n=120

     2801     7301    1       CLOSE_VIRT_ENCLREC.V_ = VECTOR(CLOSE_VIRT_ENCLREC.V);

   7301 15 000163   000007 235000 16                 LDA     7
        15 000164   200314 452500                    STP2    CLOSE_VIRT_ENCLREC+30,,AUTO
PL6.E3A0      #016=VMA$OPEN_ENCL_SEGS File=VMA$SUBR.:VMB6TSI                     WED 08/20/97 15:06 Page:523
        15 000165   200314 236100                    LDQ     CLOSE_VIRT_ENCLREC+30,,AUTO
        15 000166   000310 036003                    ADLQ    200,DU
        15 000167   200256 757100                    STAQ    CLOSE_VIRT_ENCLREC,,AUTO

     2802     7302    1       CLOSE_VIRT_ENCLREC.V.DCB# = DCBNUM(M$VIRT1);

   7302 15 000170   000000 236007 xsym               LDQ     M$VIRT1,DL
        15 000171   000000 621006                    EAX1    0,QL
        15 000172   200310 741100                    STX1    CLOSE_VIRT_ENCLREC+26,,AUTO

     2803     7303
     2804     7304    1       CALL M$CLOSE (CLOSE_VIRT_ENCLLIST) ALTRET (E_PMME);

   7304 15 000173   200220 630500                    EPPR0   CLOSE_VIRT_ENCLLIST,,AUTO
        15 000174   450001 713400                    CLIMB   alt,close
        15 000175   406000 401760                    pmme    nvectors=13
        15 000176   000204 702000 15                 TSX2    E_PMME

     2805     7305    1       CALL M$CLOSE (CLOSE_VIRT_ENCLREC) ALTRET (E_PMME);

   7305 15 000177   200256 630500                    EPPR0   CLOSE_VIRT_ENCLREC,,AUTO
        15 000200   450001 713400                    CLIMB   alt,close
        15 000201   406000 401760                    pmme    nvectors=13
        15 000202   000204 702000 15                 TSX2    E_PMME

     2806     7306
     2807     7307    1       RETURN;

   7307 15 000203   000000 702200 xent               TSX2  ! X66_ARET

     2808     7308
     2809     7309    1   E_PMME:
     2810     7310
     2811     7311    1       ALTRETURN;

   7311 15 000204   000000 702200 xent  E_PMME       TSX2  ! X66_AALT

PL6.E3A0      #016=VMA$OPEN_ENCL_SEGS File=VMA$SUBR.:VMB6TSI                     WED 08/20/97 15:06 Page:524
OPEN_VIRT_ENCLLIST_CONS
 Sect OctLoc
  11     000   000025 777640   000044 006000   000000 177640   000000 006014    .....$..........
  11     004   000000 177640   000000 006014   000000 177640   000000 006014    ................
  11     044*  000000 000042   000000 000000   252525 000000   000040 252520    ..."......... ..
  11     050   000040 040040   000000 000000   000000 777777   000000 000000    .   ............
  11     054   000000 000000   000000 000000   000000 000000   000000 000000    ................
  11     060   251000 622000   000000 000000   000000 000000   111250 000000    ............I...
  11     064   040040 040040   000000 000000   000000 000000   000000 000000        ............
  11     070   000000 000000   ****** ******                                    ........

OPEN_VIRT_ENCLREC_CONS
 Sect OctLoc
  11     072   000025 777640   000136 006000   000000 177640   000000 006014    .....^..........
  11     076   000000 177640   000000 006014   000000 177640   000000 006014    ................
  11     136*  000000 000042   000000 000000   252525 000000   000040 252520    ..."......... ..
  11     142   000040 040040   000000 000000   000000 777777   000000 000000    .   ............
  11     146   000000 000000   000000 000000   000000 000000   000000 000000    ................
  11     152   251000 622000   000000 000000   000000 000000   111250 000000    ............I...
  11     156   040040 040040   000000 000000   000000 000000   000000 000000        ............
  11     162   000000 000000   ****** ******                                    ........

VIRT_ENCLLIST_CONS
 Sect OctLoc
  11     164   000000 000001   000000 000000   000004 000000   000024 000012    ................
  11     170   000000 006014   000000 000000   000000 000000   000000 000000    ................
  11     174   000000 000000   000000 000000   000000 000000   000000 000000    ................

VIRT_ENCLREC_CONS
 Sect OctLoc
  11     200   000000 000002   000000 000000   000004 000000   000024 000012    ................
  11     204   000000 006014   000000 000000   000000 000000   000000 000000    ................
  11     210   000000 000000   000000 000000   000000 000000   000000 000000    ................

CLOSE_VIRT_ENCLLIST_CONS
 Sect OctLoc
  11     214   000003 777640   000246 006000   000000 177640   000000 006014    ................
PL6.E3A0      #016=VMA$OPEN_ENCL_SEGS File=VMA$SUBR.:VMB6TSI                     WED 08/20/97 15:06 Page:525
  11     220   000000 177640   000000 006014   000000 177640   000000 006014    ................
  11     244*  000000 177640   000000 006014   000000 000000   000000 000040    ...............
  11     250   000220 000000   000000 000000                                    ........

CLOSE_VIRT_ENCLREC_CONS
 Sect OctLoc
  11     252   000003 777640   000304 006000   000000 177640   000000 006014    ................
  11     256   000000 177640   000000 006014   000000 177640   000000 006014    ................
  11     302*  000000 177640   000000 006014   000000 000000   000000 000040    ...............
  11     306   000220 000000   000000 000000                                    ........

OFFSET
 Sect OctLoc
  14     000   000000 000000                                                    ....

SIZE
 Sect OctLoc
  14     001   000004 000000                                                    ....

PAGESIZE
 Sect OctLoc
  14     002   000000 010000                                                    ....

(unnamed)
 Sect OctLoc
  16     000   000025 777640   000013 777640   000004 000000   000000 006000    ................
  16     004   000001 006000   000000 006000   777777 600000   000003 777640    ................
  16     010   000001 006000   000000 006000                                    ........
     2812     7312
     2813     7313    1   END VMA$OPEN_ENCL_SEGS;

PL6.E3A0      #016=VMA$OPEN_ENCL_SEGS File=VMA$SUBR.:VMB6TSI                     WED 08/20/97 15:06 Page:526
--  Include file information  --

   CP_6_SUBS.:LIB_E05  is referenced.
   B_MACROS_C.:LIB_E05  is referenced.
   VM_DATA_R.:VMB6TOU  cannot be made into a system file and is referenced.
   CP_6_C.:LIB_E05  is referenced.
   CP_6.:LIB_E05  cannot be made into a system file and is referenced.
      No diagnostics issued in procedure VMA$OPEN_ENCL_SEGS.
PL6.E3A0      #016=VMA$OPEN_ENCL_SEGS File=VMA$SUBR.:VMB6TSI                     WED 08/20/97 15:06 Page:527

 **** Variables and constants ****

  ****  Section 011 RoData VMA$OPEN_ENCL_SEGS

  ****  Scalars and arrays  ****
OctLoc.c.b A Datatyp(siz) R M Lvl/name                 OctLoc.c.b A Datatyp(siz) R M Lvl/name

   214-0-0/d STRC(1080)  r     1 CLOSE_VIRT_ENCLLIST_CONS
   252-0-0/d STRC(1080)  r     1 CLOSE_VIRT_ENCLREC_CONS
     0-0-0/d STRC(2088)  r     1 OPEN_VIRT_ENCLLIST_CONS
    72-0-0/d STRC(2088)  r     1 OPEN_VIRT_ENCLREC_CONS
   164-0-0/w STRC(432)   r     1 VIRT_ENCLLIST_CONS       200-0-0/w STRC(432)   r     1 VIRT_ENCLREC_CONS

  ****  Section 014  Data  VMA$OPEN_ENCL_SEGS

  ****  Scalars and arrays  ****
OctLoc.c.b A Datatyp(siz) R M Lvl/name                 OctLoc.c.b A Datatyp(siz) R M Lvl/name

     0-0-0/w SBIN        r     1 OFFSET                     2-0-0/w SBIN        r     1 PAGESIZE
     1-0-0/w SBIN        r     1 SIZE

  ****  Auto variables  ****

  ****  Scalars and arrays  ****
OctLoc.c.b A Datatyp(siz) R M Lvl/name                 OctLoc.c.b A Datatyp(siz) R M Lvl/name

   220-0-0/d STRC(1080)  r     1 CLOSE_VIRT_ENCLLIST      256-0-0/d STRC(1080)  r     1 CLOSE_VIRT_ENCLREC
     4-0-0/d STRC(2088)  r     1 OPEN_VIRT_ENCLLIST        76-0-0/d STRC(2088)  r     1 OPEN_VIRT_ENCLREC
   170-0-0/w STRC(432)   r     1 VIRT_ENCLLIST            204-0-0/w STRC(432)   r     1 VIRT_ENCLREC

  ****  SYMREF variables  ****

  ****  Scalars and arrays  ****
OctLoc.c.b A Datatyp(siz) R M Lvl/name                 OctLoc.c.b A Datatyp(siz) R M Lvl/name

     0-0-0/w PTR               1 B$JIT$                     0-0-0/w PTR               1 B$TCB$
     0-0-0/c ASTR(9)     r     1 ERRMSG_FID                 0-0-0/w UBIN              1 M$DO_NUM
PL6.E3A0      #016=VMA$OPEN_ENCL_SEGS File=VMA$SUBR.:VMB6TSI                     WED 08/20/97 15:06 Page:528
     0-0-0/w UBIN              1 M$LO_NUM                   0-0-0/w UBIN              1 M$MAIL_CENTRAL_NUM
     0-0-0/w UBIN              1 M$MAIL_COMGROUP_NUM        0-0-0/w UBIN              1 M$MAIL_FILE_NUM
     0-0-0/w UBIN              1 M$MAIL_GLOBAL_NUM          0-0-0/w UBIN              1 M$ME_NUM
     0-0-0/w UBIN              1 M$NODE_NUM                 0-0-0/w UBIN              1 M$SI_NUM
     0-0-0/w UBIN              1 M$WORK_NUM                 0-0-0/w PTR               1 VM_ADDLIST$
     0-0-0/d VECT              1 VM_ADDLIST_                0-0-0/w PTR               1 VM_ADDREC$
     0-0-0/d VECT              1 VM_ADDREC_                 0-0-0/w PTR               1 VM_COPY$
     0-0-0/d VECT              1 VM_COPY_                   0-0-0/w PTR         r     1 VM_ENCLLIST$
     0-0-0/d VECT        r     1 VM_ENCLLIST_               0-0-0/w PTR         r     1 VM_ENCLREC$
     0-0-0/d VECT        r     1 VM_ENCLREC_                0-0-0/c STRC(270)         1 VM_FORWARD_ENCL_NAME
     0-0-0/c STRC(270)         1 VM_FORWARD_FILE_NAME       0-0-0/c STRC(72)          1 VM_FORWARD_FILE_PASS
     0-0-0/w PTR               1 VM_HEADER$                 0-0-0/d VECT              1 VM_HEADER_
     0-0-0/d VECT              1 VM_HEADER_INIT_            0-0-0/w PTR               1 VM_INPUT$
     0-0-0/d VECT              1 VM_INPUT_                  0-0-0/c STRC(72)          1 VM_MAILCG_NAME
     0-0-0/w STRC(432)         1 VM_MAILCG_SETSTA           0-0-0/c STRC(72)          1 VM_MAIL_ACCT
     0-0-0/c STRC(54)          1 VM_NAME_MAP_NAME           0-0-0/w PTR               1 VM_PARSEAREA$
     0-0-0/d VECT              1 VM_PARSEAREA_              0-0-0/w PTR               1 VM_PROFILE$
     0-0-0/d VECT              1 VM_PROFILE_                0-0-0/w PTR               1 VM_SELECT$
     0-0-0/d VECT              1 VM_SELECT_                 0-0-0/c STRC(288)         1 VM_SEND_FILE_NAME
     0-0-0/c CHAR(8)           1 VM_SITENAME                0-0-0/w PTR               1 VM_WORK$
     0-0-0/d VECT              1 VM_WORK_

  ****  BASED and DCB variables  ****

  ****  Scalars and arrays  ****
OctLoc.c.b A Datatyp(siz) R M Lvl/name                 OctLoc.c.b A Datatyp(siz) R M Lvl/name

     0-0-0N  NULL        r     1 M$DO                       0-0-0N  NULL        r     1 M$LO
     0-0-0N  NULL        r     1 M$MAIL_CENTRAL             0-0-0N  NULL        r     1 M$MAIL_COMGROUP
     0-0-0N  NULL        r     1 M$MAIL_FILE                0-0-0N  NULL        r     1 M$MAIL_GLOBAL
     0-0-0N  NULL        r     1 M$ME                       0-0-0N  NULL        r     1 M$NODE
     0-0-0N  NULL        r     1 M$SI                       0-0-0N  NULL        r     1 M$UC
     0-0-0N  NULL        r     1 M$VIRT1                    0-0-0N  NULL        r     1 M$VIRT2
     0-0-0N  NULL        r     1 M$WORK                     0-0-0/c ASTR(9)     r     1 X$STRING

PL6.E3A0      #016=VMA$OPEN_ENCL_SEGS File=VMA$SUBR.:VMB6TSI                     WED 08/20/97 15:06 Page:529

   Procedure VMA$OPEN_ENCL_SEGS requires 133 words for executable code.
   Procedure VMA$OPEN_ENCL_SEGS requires 208 words of local(AUTO) storage.

    No errors detected in file VMA$SUBR.:VMB6TSI    .
PL6.E3A0      #016=VMA$OPEN_ENCL_SEGS File=VMA$SUBR.:VMB6TSI                     WED 08/20/97 15:06 Page:530
          *** CROSS REFERENCE LISTING ***
**     DENOTES     IDENTIFIER DEFINITION
<<                 IDENTIFIER'S VALUE SET
>>                 IDENTIFIER'S VALUE USED
<>                 IDENTIFIER SET AND/OR USED
--                 IDENTIFIER REFERENCED
PL6.E3A0      #016=VMA$OPEN_ENCL_SEGS File=VMA$SUBR.:VMB6TSI                     WED 08/20/97 15:06 Page:531
          MINI XREF LISTING

CLOSE_VIRT_ENCLLIST
      7143**DCL      7296<<ASSIGN   7304<>CALL
CLOSE_VIRT_ENCLLIST.SN_
      7143**DCL      7143--REDEF
CLOSE_VIRT_ENCLLIST.UTL_
      7144**DCL      7144--REDEF
CLOSE_VIRT_ENCLLIST.V
      7148**DCL      7297--ASSIGN
CLOSE_VIRT_ENCLLIST.V.DCB#
      7149**DCL      7298<<ASSIGN
CLOSE_VIRT_ENCLLIST.V.EXPIRE#
      7158**DCL      7158--REDEF
CLOSE_VIRT_ENCLLIST.V.TYPE#
      7156**DCL      7156--REDEF
CLOSE_VIRT_ENCLLIST.V.XTNSIZE#
      7153**DCL      7153--REDEF    7155--REDEF
CLOSE_VIRT_ENCLLIST.V_
      7143**DCL      7297<<ASSIGN
CLOSE_VIRT_ENCLLIST_CONS
      7099**DCL      7296>>ASSIGN
CLOSE_VIRT_ENCLLIST_CONS.SN_
      7099**DCL      7099--REDEF
CLOSE_VIRT_ENCLLIST_CONS.UTL_
      7100**DCL      7100--REDEF
CLOSE_VIRT_ENCLLIST_CONS.V
      7104**DCL      7099--DCLINIT
CLOSE_VIRT_ENCLLIST_CONS.V.EXPIRE#
      7114**DCL      7114--REDEF
CLOSE_VIRT_ENCLLIST_CONS.V.TYPE#
      7112**DCL      7112--REDEF
CLOSE_VIRT_ENCLLIST_CONS.V.XTNSIZE#
      7109**DCL      7109--REDEF    7111--REDEF
PL6.E3A0      #016=VMA$OPEN_ENCL_SEGS File=VMA$SUBR.:VMB6TSI                     WED 08/20/97 15:06 Page:532
CLOSE_VIRT_ENCLREC
      7230**DCL      7300<<ASSIGN   7305<>CALL
CLOSE_VIRT_ENCLREC.SN_
      7230**DCL      7230--REDEF
CLOSE_VIRT_ENCLREC.UTL_
      7231**DCL      7231--REDEF
CLOSE_VIRT_ENCLREC.V
      7235**DCL      7301--ASSIGN
CLOSE_VIRT_ENCLREC.V.DCB#
      7236**DCL      7302<<ASSIGN
CLOSE_VIRT_ENCLREC.V.EXPIRE#
      7245**DCL      7245--REDEF
CLOSE_VIRT_ENCLREC.V.TYPE#
      7243**DCL      7243--REDEF
CLOSE_VIRT_ENCLREC.V.XTNSIZE#
      7240**DCL      7240--REDEF    7242--REDEF
CLOSE_VIRT_ENCLREC.V_
      7230**DCL      7301<<ASSIGN
CLOSE_VIRT_ENCLREC_CONS
      7186**DCL      7300>>ASSIGN
CLOSE_VIRT_ENCLREC_CONS.SN_
      7186**DCL      7186--REDEF
CLOSE_VIRT_ENCLREC_CONS.UTL_
      7187**DCL      7187--REDEF
CLOSE_VIRT_ENCLREC_CONS.V
      7191**DCL      7186--DCLINIT
CLOSE_VIRT_ENCLREC_CONS.V.EXPIRE#
      7201**DCL      7201--REDEF
CLOSE_VIRT_ENCLREC_CONS.V.TYPE#
      7199**DCL      7199--REDEF
CLOSE_VIRT_ENCLREC_CONS.V.XTNSIZE#
      7196**DCL      7196--REDEF    7198--REDEF
ERRMSG_FID.L#
      5851**DCL      5851--IMP-SIZ
E_PMME
      7311**LABEL    7273--CALLALT  7286--CALLALT  7304--CALLALT  7305--CALLALT
PL6.E3A0      #016=VMA$OPEN_ENCL_SEGS File=VMA$SUBR.:VMB6TSI                     WED 08/20/97 15:06 Page:533
M$CLOSE
      5503**DCL-ENT  7304--CALL     7305--CALL
M$OPEN
      5503**DCL-ENT  7273--CALL     7286--CALL
M$VIRT1
      7254**DCL      7271>>ASSIGN   7298>>ASSIGN   7302>>ASSIGN
M$VIRT2
      7255**DCL      7284>>ASSIGN
OFFSET
      7258**DCL      7274<>CALL     7287<>CALL
OPEN_VIRT_ENCLLIST
      6832**DCL      7265<<ASSIGN   7273<>CALL
OPEN_VIRT_ENCLLIST.ACSVEH_
      6834**DCL      6835--REDEF
OPEN_VIRT_ENCLLIST.ALTKEYS_
      6840**DCL      6841--REDEF    6841--REDEF
OPEN_VIRT_ENCLLIST.HDR_
      6839**DCL      6840--REDEF
OPEN_VIRT_ENCLLIST.TAB_
      6838**DCL      6839--REDEF
OPEN_VIRT_ENCLLIST.UHL_
      6832**DCL      6833--REDEF    6833--REDEF
OPEN_VIRT_ENCLLIST.V
      6841**DCL      7266--ASSIGN
OPEN_VIRT_ENCLLIST.V.ASN#
      6851**DCL      7269<<ASSIGN
OPEN_VIRT_ENCLLIST.V.DCB#
      6841**DCL      7271<<ASSIGN
OPEN_VIRT_ENCLLIST.V.DISP#
      6857**DCL      7270<<ASSIGN
OPEN_VIRT_ENCLLIST.V.FSN#
      6872**DCL      6872--REDEF    6872--REDEF
OPEN_VIRT_ENCLLIST.V.FUN#
      6851**DCL      7267<<ASSIGN
OPEN_VIRT_ENCLLIST.V.ORG#
      6852**DCL      7268<<ASSIGN
PL6.E3A0      #016=VMA$OPEN_ENCL_SEGS File=VMA$SUBR.:VMB6TSI                     WED 08/20/97 15:06 Page:534
OPEN_VIRT_ENCLLIST.VIRTUAL_
      6833**DCL      7272<<ASSIGN
OPEN_VIRT_ENCLLIST.V_
      6832**DCL      7266<<ASSIGN
OPEN_VIRT_ENCLLIST.WSN_
      6838**DCL      6838--REDEF
OPEN_VIRT_ENCLLIST_CONS
      6613**DCL      7265>>ASSIGN
OPEN_VIRT_ENCLLIST_CONS.ACSVEH_
      6615**DCL      6616--REDEF
OPEN_VIRT_ENCLLIST_CONS.ALTKEYS_
      6621**DCL      6622--REDEF    6622--REDEF
OPEN_VIRT_ENCLLIST_CONS.HDR_
      6620**DCL      6621--REDEF
OPEN_VIRT_ENCLLIST_CONS.TAB_
      6619**DCL      6620--REDEF
OPEN_VIRT_ENCLLIST_CONS.UHL_
      6613**DCL      6614--REDEF    6614--REDEF
OPEN_VIRT_ENCLLIST_CONS.V
      6622**DCL      6613--DCLINIT
OPEN_VIRT_ENCLLIST_CONS.V.FSN#
      6653**DCL      6653--REDEF    6653--REDEF
OPEN_VIRT_ENCLLIST_CONS.WSN_
      6619**DCL      6619--REDEF
OPEN_VIRT_ENCLREC
      6941**DCL      7278<<ASSIGN   7286<>CALL
OPEN_VIRT_ENCLREC.ACSVEH_
      6943**DCL      6944--REDEF
OPEN_VIRT_ENCLREC.ALTKEYS_
      6949**DCL      6950--REDEF    6950--REDEF
OPEN_VIRT_ENCLREC.HDR_
      6948**DCL      6949--REDEF
OPEN_VIRT_ENCLREC.TAB_
      6947**DCL      6948--REDEF
OPEN_VIRT_ENCLREC.UHL_
      6941**DCL      6942--REDEF    6942--REDEF
PL6.E3A0      #016=VMA$OPEN_ENCL_SEGS File=VMA$SUBR.:VMB6TSI                     WED 08/20/97 15:06 Page:535
OPEN_VIRT_ENCLREC.V
      6950**DCL      7279--ASSIGN
OPEN_VIRT_ENCLREC.V.ASN#
      6960**DCL      7282<<ASSIGN
OPEN_VIRT_ENCLREC.V.DCB#
      6950**DCL      7284<<ASSIGN
OPEN_VIRT_ENCLREC.V.DISP#
      6966**DCL      7283<<ASSIGN
OPEN_VIRT_ENCLREC.V.FSN#
      6981**DCL      6981--REDEF    6981--REDEF
OPEN_VIRT_ENCLREC.V.FUN#
      6960**DCL      7280<<ASSIGN
OPEN_VIRT_ENCLREC.V.ORG#
      6961**DCL      7281<<ASSIGN
OPEN_VIRT_ENCLREC.VIRTUAL_
      6942**DCL      7285<<ASSIGN
OPEN_VIRT_ENCLREC.V_
      6941**DCL      7279<<ASSIGN
OPEN_VIRT_ENCLREC.WSN_
      6947**DCL      6947--REDEF
OPEN_VIRT_ENCLREC_CONS
      6722**DCL      7278>>ASSIGN
OPEN_VIRT_ENCLREC_CONS.ACSVEH_
      6724**DCL      6725--REDEF
OPEN_VIRT_ENCLREC_CONS.ALTKEYS_
      6730**DCL      6731--REDEF    6731--REDEF
OPEN_VIRT_ENCLREC_CONS.HDR_
      6729**DCL      6730--REDEF
OPEN_VIRT_ENCLREC_CONS.TAB_
      6728**DCL      6729--REDEF
OPEN_VIRT_ENCLREC_CONS.UHL_
      6722**DCL      6723--REDEF    6723--REDEF
OPEN_VIRT_ENCLREC_CONS.V
      6731**DCL      6722--DCLINIT
OPEN_VIRT_ENCLREC_CONS.V.FSN#
      6762**DCL      6762--REDEF    6762--REDEF
PL6.E3A0      #016=VMA$OPEN_ENCL_SEGS File=VMA$SUBR.:VMB6TSI                     WED 08/20/97 15:06 Page:536
OPEN_VIRT_ENCLREC_CONS.WSN_
      6728**DCL      6728--REDEF
PAGESIZE
      7260**DCL      7276>>ASSIGN   7289>>ASSIGN
SIZE
      7259**DCL      7274<>CALL     7287<>CALL
VIRT_ENCLLIST
      7021**DCL      7262<<ASSIGN   7272--ASSIGN
VIRT_ENCLLIST.PTR$
      7025**DCL      7274<>CALL
VIRT_ENCLLIST_CONS
      7001**DCL      7262>>ASSIGN
VIRT_ENCLREC
      7066**DCL      7263<<ASSIGN   7285--ASSIGN
VIRT_ENCLREC.PTR$
      7070**DCL      7287<>CALL
VIRT_ENCLREC_CONS
      7046**DCL      7263>>ASSIGN
VMX$SHRINK_PTR
      7251**DCL-ENT  7274--CALL     7287--CALL
VM_ENCLLIST$
      5720**DCL      7274<>CALL     7275>>ASSIGN
VM_ENCLLIST_
      5736**DCL      7275<<ASSIGN   7276<<ASSIGN
VM_ENCLREC$
      5722**DCL      7287<>CALL     7288>>ASSIGN
VM_ENCLREC_
      5737**DCL      7288<<ASSIGN   7289<<ASSIGN
X$STRING.SIZ
      5697**DCL      5698--IMP-SIZ
