PL6.E3A0      #003=VMD$DI_SUBJECT File=VMD$DISPLAY.:VMB6TSI                      WED 08/20/97 15:09 Page:254
     1466        1        /*T***********************************************************/
     1467        2        /*T*                                                         */
     1468        3        /*T* Copyright (c) Bull HN Information Systems Inc., 1997    */
     1469        4        /*T*                                                         */
     1470        5        /*T***********************************************************/
     1471        6        /*X* DMC,PLM=4,IND=4,CTI=2,DTI=0,ENI=0,ECI=0,CSI=0,DCI=4 */
     1472        7        /*P*
     1473        8             NAME: VMD$DI_SUBJECT
     1474        9             DESCRIPTION: This routine will display the current SUBJECT field
     1475       10        */
     1476       11
     1477       12        VMD$DI_SUBJECT: PROC (VM_HEADER,DCB#);
     1478       13
     1479       14        /***** Include files *****/
     1480       15        %INCLUDE CP_6_SUBS;
     1481      555        %INCLUDE XU_FORMAT_C;
     1482      717        %INCLUDE CP_6;
     1483     6276        %INCLUDE VM_MACRO_C;
     1484     7544        %INCLUDE VM_SUBS_C;
     1485     7804        %INCLUDE VM_DATA_R;
     1486     8235        /***** Parameters *****/
     1487     8236        %VM_HEADER (STCLASS=" ");
     1488     8365    1   DCL DCB# UBIN WORD;
     1489     8366
     1490     8367        %F_FDS    (VECTR=VECT_ARRAY,
     1491     8368                   NVECS="1");
     1492     8481
     1493     8482    1   dcl VECT_ARRAY (0:2) vector daligned static;
     1494     8483
     1495     8484    1   dcl VM_NO_OR_YES$(0:1)    ptr symref readonly;
     1496     8485    1   dcl BSD                   sbin based;
     1497     8486
     1498     8487
     1499     8488
     1500     8489        %VLP_NAMEV( FPTN=VM_SUBJECT_FMT1,     STCLASS=SYMREF );
     1501     8496        %VLP_NAMEV( FPTN=VM_REFERENCE_FMT1,   STCLASS=SYMREF );
     1502     8503        %VLP_NAMEV( FPTN=VM_COPY_FMT1,        STCLASS=SYMREF );
PL6.E3A0      #003=VMD$DI_SUBJECT File=VMD$DISPLAY.:VMB6TSI                      WED 08/20/97 15:09 Page:255
     1503     8510        %VLP_NAMEV( FPTN=VM_BLIND_COPY_FMT1,  STCLASS=SYMREF );
     1504     8517        %VLP_NAMEV( FPTN=VM_TO_FMT,           STCLASS=SYMREF );
     1505     8524        %VLP_NAMEV( FPTN=VM_FCOPY_FMT,        STCLASS=SYMREF );
     1506     8531        %VLP_NAMEV( FPTN=VM_SIGNED_FMT,       STCLASS=SYMREF );
     1507     8538        %VLP_NAMEV( FPTN=VM_RR_FMT,           STCLASS=SYMREF );
     1508     8545        %VLP_NAMEV( FPTN=VM_RTO_FMT,          STCLASS=SYMREF );
     1509     8552        %VLP_NAMEV( FPTN=VM_DEFER_FMT,        STCLASS=SYMREF );
     1510     8559        %VLP_NAMEV( FPTN=VM_DEFER_FMT1,       STCLASS=SYMREF );
     1511     8566        %VLP_NAMEV( FPTN=VM_OPTS_FMT,         STCLASS=SYMREF );
     1512     8573        %VLP_NAMEV( FPTN=VM_OPTS_FMT1,        STCLASS=SYMREF );
     1513     8580        %VLP_NAMEV( FPTN=VM_OPTS_FMT2,        STCLASS=SYMREF );
     1514     8587        %VLP_NAMEV( FPTN=VM_DR_FMT,           STCLASS=SYMREF );
     1515     8594        %VLP_NAMEV( FPTN=VM_BROADCAST_FMT,    STCLASS=SYMREF );
     1516     8601        %VLP_NAMEV( FPTN=VN_NO_CHAR,          STCLASS=SYMREF );
     1517     8608        %VLP_NAMEV( FPTN=VN_YES_CHAR,         STCLASS=SYMREF );
     1518     8615
     1519     8616        %VLP_ERRCODE( FPTN=E_SUBJECT_FMT1,    STCLASS="SYMREF READONLY" );
     1520     8661              %VLP_ERRCODE( FPTN=E_REFERENCE_FMT1, STCLASS="SYMREF READONLY" );
     1521     8706              %VLP_ERRCODE( FPTN=E_COPY_FMT1, STCLASS="SYMREF READONLY" );
     1522     8751              %VLP_ERRCODE( FPTN=E_BLIND_COPY_FMT1, STCLASS="SYMREF READONLY" );
     1523     8796              %VLP_ERRCODE( FPTN=E_TO_FMT,    STCLASS="SYMREF READONLY" );
     1524     8841              %VLP_ERRCODE( FPTN=E_FCOPY_FMT, STCLASS="SYMREF READONLY" );
     1525     8886              %VLP_ERRCODE( FPTN=E_SIGNED_FMT, STCLASS="SYMREF READONLY" );
     1526     8931              %VLP_ERRCODE( FPTN=E_RR_FMT,    STCLASS="SYMREF READONLY" );
     1527     8976              %VLP_ERRCODE( FPTN=E_RTO_FMT,   STCLASS="SYMREF READONLY" );
     1528     9021              %VLP_ERRCODE( FPTN=E_DEFER_FMT, STCLASS="SYMREF READONLY" );
     1529     9066              %VLP_ERRCODE( FPTN=E_DEFER_FMT1, STCLASS="SYMREF READONLY" );
     1530     9111              %VLP_ERRCODE( FPTN=E_OPTS_FMT,  STCLASS="SYMREF READONLY" );
     1531     9156              %VLP_ERRCODE( FPTN=E_OPTS_FMT1, STCLASS="SYMREF READONLY" );
     1532     9201              %VLP_ERRCODE( FPTN=E_OPTS_FMT2, STCLASS="SYMREF READONLY" );
     1533     9246              %VLP_ERRCODE( FPTN=E_DR_FMT,    STCLASS="SYMREF READONLY" );
     1534     9291              %VLP_ERRCODE( FPTN=E_BROADCAST_FMT, STCLASS="SYMREF READONLY" );
     1535     9336              %VLP_ERRCODE( FPTN=E_NO_CHAR,   STCLASS="SYMREF READONLY" );
     1536     9381              %VLP_ERRCODE( FPTN=E_YES_CHAR,  STCLASS="SYMREF READONLY" );
     1537     9426
     1538     9427
     1539     9428
PL6.E3A0      #003=VMD$DI_SUBJECT File=VMD$DISPLAY.:VMB6TSI                      WED 08/20/97 15:09 Page:256
     1540     9429
     1541     9430    1   DCL SPACE CHAR(1) CONSTANT INIT(' ');
     1542     9431
     1543     9432    1   DCL VMD$WRITE_BUF ENTRY(1);
     1544     9433        %INIT_STR(DODCL=YES);
     1545     9456
     1546     9457        %EJECT;
PL6.E3A0      #003=VMD$DI_SUBJECT File=VMD$DISPLAY.:VMB6TSI                      WED 08/20/97 15:09 Page:257
     1547     9458
     1548     9459            %INIT_STR(STR=VM_SUBJECT_FMT1, CODE=E_SUBJECT_FMT1, TEST=YES, VECT="F_FDS.FMT_")
              9459                ;
     1549     9482    1       IF VM_HEADER.SUBJECT$ ~= ADDR(NIL) THEN
     1550     9483    1           CALL DISPLAY_FIELD (VM_HEADER.SUBJECT$);
     1551     9484    1       ELSE CALL DISPLAY_FIELD (VM_HEADER.REFERENCE$);
     1552     9485    1       RETURN;
     1553     9486        %EJECT;
PL6.E3A0      #003=VMD$DI_SUBJECT File=VMD$DISPLAY.:VMB6TSI                      WED 08/20/97 15:09 Page:258
     1554     9487        /*F*
     1555     9488             NAME: VMD$DI_TO
     1556     9489             PURPOSE: To display the TO field of the current message.
     1557     9490        */
     1558     9491    1   VMD$DI_TO: ENTRY (VM_HEADER,DCB#);
     1559     9492            %INIT_STR(STR=VM_TO_FMT, CODE=E_TO_FMT, TEST=YES, VECT="F_FDS.FMT_");
     1560     9515    1       CALL DISPLAY_FIELD (VM_HEADER.TO$);
     1561     9516    1       RETURN;
     1562     9517        %EJECT;
PL6.E3A0      #003=VMD$DI_SUBJECT File=VMD$DISPLAY.:VMB6TSI                      WED 08/20/97 15:09 Page:259
     1563     9518        /*F*
     1564     9519             NAME: VMD$DI_COPY
     1565     9520             PURPOSE: To display the COPY field of the current message.
     1566     9521        */
     1567     9522    1   VMD$DI_COPY: ENTRY (VM_HEADER,DCB#);
     1568     9523            %INIT_STR(STR=VM_COPY_FMT1, CODE=E_COPY_FMT1, TEST=YES, VECT="F_FDS.FMT_");
     1569     9546    1       CALL DISPLAY_FIELD (VM_HEADER.COPY$);
     1570     9547    1       RETURN;
     1571     9548        %EJECT;
PL6.E3A0      #003=VMD$DI_SUBJECT File=VMD$DISPLAY.:VMB6TSI                      WED 08/20/97 15:09 Page:260
     1572     9549        /*F*
     1573     9550             NAME: VMD$DI_BLIND
     1574     9551             PURPOSE: To display the BLIND COPY FIELD of the current message.
     1575     9552        */
     1576     9553    1   VMD$DI_BLIND: ENTRY (VM_HEADER,DCB#);
     1577     9554            %INIT_STR(STR=VM_BLIND_COPY_FMT1, CODE=E_BLIND_COPY_FMT1, TEST=YES, VECT=
              9554                "F_FDS.FMT_");
     1578     9577    1       CALL DISPLAY_FIELD (VM_HEADER.BLIND$);
     1579     9578    1       RETURN;
     1580     9579        %EJECT;
PL6.E3A0      #003=VMD$DI_SUBJECT File=VMD$DISPLAY.:VMB6TSI                      WED 08/20/97 15:09 Page:261
     1581     9580        /*F*
     1582     9581             NAME: VMD$DI_REFERENCE
     1583     9582             PURPOSE: To display the REFERENCE field of the current message.
     1584     9583        */
     1585     9584    1   VMD$DI_REFERENCE: ENTRY (VM_HEADER,DCB#);
     1586     9585            %INIT_STR(STR=VM_REFERENCE_FMT1, CODE=E_REFERENCE_FMT1, TEST=YES, VECT=
              9585                "F_FDS.FMT_");
     1587     9608    1       CALL DISPLAY_FIELD (VM_HEADER.REFERENCE$);
     1588     9609    1       RETURN;
     1589     9610        %EJECT;
PL6.E3A0      #003=VMD$DI_SUBJECT File=VMD$DISPLAY.:VMB6TSI                      WED 08/20/97 15:09 Page:262
     1590     9611        /*F*
     1591     9612             NAME: VMD$DI_FCOPY
     1592     9613             PURPOSE: To display the FILE COPY flag of the currnet message.
     1593     9614        */
     1594     9615    1   VMD$DI_FCOPY: ENTRY (VM_HEADER,DCB#);
     1595     9616            %INIT_STR(STR=VM_FCOPY_FMT, CODE=E_FCOPY_FMT, TEST=YES, VECT="F_FDS.FMT_");
     1596     9639            %INIT_STR(STR=VN_NO_CHAR, CODE=E_NO_CHAR, TEST=YES);
     1597     9662            %INIT_STR(STR=VN_YES_CHAR, CODE=E_YES_CHAR, TEST=YES);
     1598     9685    1       call DISPLAY_FIELD( VM_NO_OR_YES$( bitbin(VM_HEADER.STATUS.FCOPY) ) );
     1599     9686    1       RETURN;
     1600     9687        %EJECT;
PL6.E3A0      #003=VMD$DI_SUBJECT File=VMD$DISPLAY.:VMB6TSI                      WED 08/20/97 15:09 Page:263
     1601     9688        /*F*
     1602     9689             NAME: VMD$DI_SIGNED
     1603     9690             PURPOSE: To display the signed field of the current message.
     1604     9691        */
     1605     9692    1   VMD$DI_SIGNED: ENTRY (VM_HEADER,DCB#);
     1606     9693            %INIT_STR(STR=VM_SIGNED_FMT, CODE=E_SIGNED_FMT, TEST=YES, VECT="F_FDS.FMT_");
     1607     9716    1       CALL DISPLAY_FIELD (VM_HEADER.SIGNED$);
     1608     9717    1       RETURN;
     1609     9718        %EJECT;
PL6.E3A0      #003=VMD$DI_SUBJECT File=VMD$DISPLAY.:VMB6TSI                      WED 08/20/97 15:09 Page:264
     1610     9719        /*F*
     1611     9720             NAME: VMD$DI_RR
     1612     9721             PURPOSE: To display the RETURN RECEIPT flag of the current message.
     1613     9722        */
     1614     9723    1   VMD$DI_RR: ENTRY (VM_HEADER,DCB#);
     1615     9724            %INIT_STR(STR=VM_RR_FMT, CODE=E_RR_FMT, TEST=YES, VECT="F_FDS.FMT_");
     1616     9747            %INIT_STR(STR=VN_NO_CHAR, CODE=E_NO_CHAR, TEST=YES);
     1617     9770            %INIT_STR(STR=VN_YES_CHAR, CODE=E_YES_CHAR, TEST=YES);
     1618     9793    1       call DISPLAY_FIELD( VM_NO_OR_YES$( bitbin(VM_HEADER.STATUS.RR) ) );
     1619     9794    1       RETURN;
     1620     9795        %EJECT;
PL6.E3A0      #003=VMD$DI_SUBJECT File=VMD$DISPLAY.:VMB6TSI                      WED 08/20/97 15:09 Page:265
     1621     9796        /*F*
     1622     9797             NAME: VMD$DI_RTO
     1623     9798             PURPOSE: To display the REPLY TO field of the current message.
     1624     9799        */
     1625     9800    1   VMD$DI_RTO: ENTRY (VM_HEADER,DCB#);
     1626     9801            %INIT_STR(STR=VM_RTO_FMT, CODE=E_RTO_FMT, TEST=YES, VECT="F_FDS.FMT_");
     1627     9824    1       CALL DISPLAY_FIELD (VM_HEADER.REPLY_TO$);
     1628     9825    1       RETURN;
     1629     9826        %EJECT;
PL6.E3A0      #003=VMD$DI_SUBJECT File=VMD$DISPLAY.:VMB6TSI                      WED 08/20/97 15:09 Page:266
     1630     9827        /*F*
     1631     9828             NAME: VMD$DI_DEFER
     1632     9829             PURPOSE: To display the DELIVERY DATE of the current message.
     1633     9830        */
     1634     9831    1   VMD$DI_DEFER: ENTRY (VM_HEADER,DCB#);
     1635     9832    1       F_FDS.DCB# = DCB#;
     1636     9833    1       VECT_ARRAY(0) = VECTOR(VM_HEADER.DELIVERY_DATE);
     1637     9834    1       IF VM_HEADER.DELIVERY_DATE > 0
     1638     9835    1       THEN
     1639     9836                %INIT_STR(STR=VM_DEFER_FMT, CODE=E_DEFER_FMT, TEST=YES, VECT="F_FDS.FMT_");
     1640     9859    1       ELSE
     1641     9860                %INIT_STR(STR=VM_DEFER_FMT1, CODE=E_DEFER_FMT1, TEST=YES, VECT="F_FDS.FMT_")
              9860                    ;
     1642     9883    1       CALL VMD$WRITE_BUF (F_FDS);
     1643     9884    1       RETURN;
     1644     9885        %EJECT;
PL6.E3A0      #003=VMD$DI_SUBJECT File=VMD$DISPLAY.:VMB6TSI                      WED 08/20/97 15:09 Page:267
     1645     9886        /*F*
     1646     9887             NAME: VMD$DI_OPTS
     1647     9888             PURPOSE: To display various SEND options.
     1648     9889        */
     1649     9890    1   VMD$DI_OPTS: ENTRY (VM_HEADER,DCB#);
     1650     9891    1       F_FDS.DCB# = DCB#;
     1651     9892            %INIT_STR(STR=VN_NO_CHAR, CODE=E_NO_CHAR, TEST=YES);
     1652     9915            %INIT_STR(STR=VN_YES_CHAR, CODE=E_YES_CHAR, TEST=YES);
     1653     9938    1       VECT_ARRAY(0) = vector(VN_YES_CHAR.NAME#);
     1654     9939    1       VECT_ARRAY(1) = vector(VN_YES_CHAR.NAME#);
     1655     9940    1       vbase(VECT_ARRAY(0)) = pincrc(VM_NO_OR_YES$( bitbin(VM_HEADER.STATUS.DR) ),1);
     1656     9941    1       vbase(VECT_ARRAY(1)) = pincrc(VM_NO_OR_YES$( bitbin(VM_HEADER.STATUS.RR) ),1);
     1657     9942    1       IF VM_HEADER.DELIVERY_DATE > 0
     1658     9943    2       THEN DO;
     1659     9944    2           VECT_ARRAY(2) = VECTOR(VM_HEADER.DELIVERY_DATE);
     1660     9945    2           F_FDS.NVECS# = 3;
     1661     9946                %INIT_STR(STR=VM_OPTS_FMT, CODE=E_OPTS_FMT, TEST=YES, VECT="F_FDS.FMT_");
     1662     9969    2       END;
     1663     9970    1       ELSE
     1664     9971    2       DO;
     1665     9972    2           F_FDS.NVECS# = 2;
     1666     9973                %INIT_STR(STR=VM_OPTS_FMT1, CODE=E_OPTS_FMT1, TEST=YES, VECT="F_FDS.FMT_");
     1667     9996    2       END;
     1668     9997    1       CALL VMD$WRITE_BUF (F_FDS);
     1669     9998    1       VECT_ARRAY(0) = vector(VN_YES_CHAR.NAME#);
     1670     9999    1       VECT_ARRAY(1) = vector(VN_YES_CHAR.NAME#);
     1671    10000    1       vbase(VECT_ARRAY(0)) = pincrc(VM_NO_OR_YES$( bitbin(VM_HEADER.STATUS.BROADCAST)
             10000                ),1);
     1672    10001    1       vbase(VECT_ARRAY(1)) = pincrc(VM_NO_OR_YES$( bitbin(VM_HEADER.STATUS.FCOPY) ),1)
             10001                ;
     1673    10002    1       F_FDS.NVECS# = 2;
     1674    10003            %INIT_STR(STR=VM_OPTS_FMT2, CODE=E_OPTS_FMT2, TEST=YES, VECT="F_FDS.FMT_");
     1675    10026    1       CALL VMD$WRITE_BUF (F_FDS);
     1676    10027    1       F_FDS.NVECS# = 1;
     1677    10028    1       RETURN;
     1678    10029        %EJECT;
PL6.E3A0      #003=VMD$DI_SUBJECT File=VMD$DISPLAY.:VMB6TSI                      WED 08/20/97 15:09 Page:268
     1679    10030        /*F*
     1680    10031             NAME: VMD$DI_DR
     1681    10032             PURPOSE: To display the DELIVERY RECEIPT flag of the current message.
     1682    10033        */
     1683    10034    1   VMD$DI_DR: ENTRY (VM_HEADER,DCB#);
     1684    10035
     1685    10036            %INIT_STR(STR=VM_DR_FMT, CODE=E_DR_FMT, TEST=YES, VECT="F_FDS.FMT_");
     1686    10059            %INIT_STR(STR=VN_NO_CHAR, CODE=E_NO_CHAR, TEST=YES);
     1687    10082            %INIT_STR(STR=VN_YES_CHAR, CODE=E_YES_CHAR, TEST=YES);
     1688    10105    1       call DISPLAY_FIELD( VM_NO_OR_YES$( bitbin(VM_HEADER.STATUS.DR) ) );
     1689    10106    1       return;
     1690    10107        %EJECT;
PL6.E3A0      #003=VMD$DI_SUBJECT File=VMD$DISPLAY.:VMB6TSI                      WED 08/20/97 15:09 Page:269
     1691    10108        /*F*
     1692    10109             NAME: VMD$DI_BROADCAST
     1693    10110             PURPOSE: To display the BROADCAST flag of the current message.
     1694    10111        */
     1695    10112    1   VMD$DI_BROADCAST: ENTRY (VM_HEADER,DCB#);
     1696    10113
     1697    10114            %INIT_STR(STR=VM_BROADCAST_FMT, CODE=E_BROADCAST_FMT, TEST=YES, VECT=
             10114                "F_FDS.FMT_");
     1698    10137            %INIT_STR(STR=VN_NO_CHAR, CODE=E_NO_CHAR, TEST=YES);
     1699    10160            %INIT_STR(STR=VN_YES_CHAR, CODE=E_YES_CHAR, TEST=YES);
     1700    10183    1       call DISPLAY_FIELD( VM_NO_OR_YES$( bitbin(VM_HEADER.STATUS.BROADCAST) ) );
     1701    10184    1       return;
     1702    10185        %EJECT;
PL6.E3A0      #003=VMD$DI_SUBJECT File=VMD$DISPLAY.:VMB6TSI                      WED 08/20/97 15:09 Page:270
     1703    10186    1   DISPLAY_FIELD: PROC (PTR$);
     1704    10187        /*
     1705    10188             ***** This routine does the hard work.
     1706    10189                   PTR$ points to the field to display.
     1707    10190                   Assume that F_FDS.FMT_ is setup ...
     1708    10191        */
     1709    10192    2   DCL PTR$ PTR;
     1710    10193        /**/
     1711    10194    2       IF PTR$ ~= ADDR(NIL)
     1712    10195    2       THEN
     1713    10196    2           VECT_ARRAY(0) = VECTOR(PTR$ -> X$STRING.TEXT);
     1714    10197    2       ELSE
     1715    10198    2           VECT_ARRAY(0) = VECTOR(SPACE);
     1716    10199    2       F_FDS.DCB# = DCB#;
     1717    10200    2       CALL VMD$WRITE_BUF (F_FDS);
     1718    10201    2       RETURN;
     1719    10202    2   END DISPLAY_FIELD;
     1720    10203    1   END VMD$DI_SUBJECT;
     1721    10204        %EOD;

PL6.E3A0      #003=VMD$DI_SUBJECT File=VMD$DISPLAY.:VMB6TSI                      WED 08/20/97 15:09 Page:271
--  Include file information  --

   B_MACROS_C.:LIB_E05  is referenced.
   VM_DATA_R.:VMB6TOU  cannot be made into a system file and is referenced.
   VM_SUBS_C.:VMB6TOU  is referenced.
   VM_MACRO_C.:VMB6TOU  is referenced.
   CP_6_C.:LIB_E05  is referenced.
   CP_6.:LIB_E05  cannot be made into a system file and is referenced.
   XU_FORMAT_C.:LIB_E05  is referenced.
   CP_6_SUBS.:LIB_E05  is referenced.
      No diagnostics issued in procedure VMD$DI_SUBJECT.

   Procedure VMD$DI_SUBJECT requires 618 words for executable code.
   Procedure VMD$DI_SUBJECT requires 10 words of local(AUTO) storage.

PL6.E3A0      #003=VMD$DI_SUBJECT File=VMD$DISPLAY.:VMB6TSI                      WED 08/20/97 15:09 Page:272

 Object Unit name= VMD$DI_SUBJECT                             File name= VMD$DISPLAY.:VMB6TOU
 UTS= AUG 20 '97 15:09:42.12 WED                              Compiler= PL-6/E31         Sev=      00
 SharedLib= :SHARED_SYSTEM                                    Alt SharedLib=


    ****  Control sections  ****

 Sect   Type Bound  Init  Size OctSiz  Section name(segment info)
    0   DCB   even  none     0      0  M$UC
    1   DCB   even  none     0      0  M$MAIL_FILE
    2   DCB   even  none     0      0  M$MAIL_CENTRAL
    3   DCB   even  none     0      0  M$MAIL_GLOBAL
    4   DCB   even  none     0      0  M$WORK
    5   DCB   even  none     0      0  M$MAIL_COMGROUP
    6   DCB   even  none     0      0  M$DO
    7   DCB   even  none     0      0  M$LO
    8   DCB   even  none     0      0  M$ME
    9   DCB   even  none     0      0  M$NODE
   10   DCB   even  none     0      0  M$SI
   11   Data  even  none    36     44  VMD$DI_SUBJECT
   12  RoData even  UTS      1      1  VMD$DI_SUBJECT
   13   Proc  even  none   618   1152  VMD$DI_SUBJECT
   14  RoData even  none    76    114  VMD$DI_SUBJECT
PL6.E3A0      #003=VMD$DI_SUBJECT File=VMD$DISPLAY.:VMB6TSI                      WED 08/20/97 15:09 Page:273

    ****  Entry defs  ****

                              Check   Calling
                             calling  sequence
  Sect OctLoc Primary Altret sequence   type   Parms  Name
    13      0   yes            yes      Std        2  VMD$DI_SUBJECT
    13     43                  yes      Std        2  VMD$DI_TO
    13     74                  yes      Std        2  VMD$DI_COPY
    13    125                  yes      Std        2  VMD$DI_BLIND
    13    156                  yes      Std        2  VMD$DI_REFERENCE
    13    207                  yes      Std        2  VMD$DI_FCOPY
    13    271                  yes      Std        2  VMD$DI_SIGNED
    13    322                  yes      Std        2  VMD$DI_RR
    13    404                  yes      Std        2  VMD$DI_RTO
    13    435                  yes      Std        2  VMD$DI_DEFER
    13    521                  yes      Std        2  VMD$DI_OPTS
    13    751                  yes      Std        2  VMD$DI_DR
    13   1033                  yes      Std        2  VMD$DI_BROADCAST

  ****  Entry refs  ****

         Check        Calling
        calling       sequence
Altret sequence SRef   type   Args  Name
 yes     yes           Std       3 VMD$ERRMSG
         yes           Std       1 VMD$WRITE_BUF
                       nStd      0 X66_AUTO_2
                       nStd      0 X66_ARET
PL6.E3A0      #003=VMD$DI_SUBJECT File=VMD$DISPLAY.:VMB6TSI                      WED 08/20/97 15:09 Page:274

  ****  Data refs  ****

  Flags:  r = read only, s = secondary
Flgs Name                             Flgs Name                             Flgs Name
     M$UC                             r    VM_HEADER$                       r    VM_PROFILE$
r    VM_ADDLIST$                      r    VM_ADDREC$                       r    VM_WORK$
r    VM_SELECT$                       r    VM_PARSEAREA$                    r    VM_INPUT$
r    VM_COPY$                              VM_ENCLLIST$                          VM_ENCLREC$
     VM_HEADER_                            VM_HEADER_INIT_                       VM_PROFILE_
     VM_ADDLIST_                           VM_ADDREC_                            VM_WORK_
     VM_SELECT_                            VM_PARSEAREA_                         VM_INPUT_
     VM_COPY_                              VM_ENCLLIST_                          VM_ENCLREC_
     M$MAIL_FILE                           M$MAIL_CENTRAL                        M$MAIL_GLOBAL
     M$WORK                                M$MAIL_COMGROUP                       M$DO
     M$LO                                  M$ME                                  M$NODE
     M$SI                                  M$MAIL_FILE_NUM                       M$MAIL_CENTRAL_NUM
     M$MAIL_GLOBAL_NUM                     M$WORK_NUM                            M$MAIL_COMGROUP_NUM
     M$DO_NUM                              M$ME_NUM                              M$LO_NUM
     M$SI_NUM                              M$NODE_NUM                       r    B$JIT$
r    B$TCB$                                VM_MAIL_ACCT                          VM_NAME_MAP_NAME
     ERRMSG_FID                            VM_SEND_FILE_NAME                     VM_FORWARD_FILE_NAME
     VM_FORWARD_ENCL_NAME                  VM_FORWARD_FILE_PASS                  VM_MAILCG_NAME
     VM_SITENAME                           VM_MAILCG_SETSTA                 r    VM_NO_OR_YES$
     VM_SUBJECT_FMT1                       VM_REFERENCE_FMT1                     VM_COPY_FMT1
     VM_BLIND_COPY_FMT1                    VM_TO_FMT                             VM_FCOPY_FMT
     VM_SIGNED_FMT                         VM_RR_FMT                             VM_RTO_FMT
     VM_DEFER_FMT                          VM_DEFER_FMT1                         VM_OPTS_FMT
     VM_OPTS_FMT1                          VM_OPTS_FMT2                          VM_DR_FMT
     VM_BROADCAST_FMT                      VN_NO_CHAR                            VN_YES_CHAR
r    E_SUBJECT_FMT1                   r    E_REFERENCE_FMT1                 r    E_COPY_FMT1
r    E_BLIND_COPY_FMT1                r    E_TO_FMT                         r    E_FCOPY_FMT
r    E_SIGNED_FMT                     r    E_RR_FMT                         r    E_RTO_FMT
r    E_DEFER_FMT                      r    E_DEFER_FMT1                     r    E_OPTS_FMT
r    E_OPTS_FMT1                      r    E_OPTS_FMT2                      r    E_DR_FMT
r    E_BROADCAST_FMT                  r    E_NO_CHAR                        r    E_YES_CHAR
PL6.E3A0      #003=VMD$DI_SUBJECT File=VMD$DISPLAY.:VMB6TSI                      WED 08/20/97 15:09 Page:275

  ****  Segment refs  ****

  Flags:  r = read only, s = secondary
Flgs Name                             Flgs Name                             Flgs Name
     NULLSID                               ISSID
PL6.E3A0      #003=VMD$DI_SUBJECT File=VMD$DISPLAY.:VMB6TSI                      WED 08/20/97 15:09 Page:276


     1466        1        /*T***********************************************************/
     1467        2        /*T*                                                         */
     1468        3        /*T* Copyright (c) Bull HN Information Systems Inc., 1997    */
     1469        4        /*T*                                                         */
     1470        5        /*T***********************************************************/
     1471        6        /*X* DMC,PLM=4,IND=4,CTI=2,DTI=0,ENI=0,ECI=0,CSI=0,DCI=4 */
     1472        7        /*P*
     1473        8             NAME: VMD$DI_SUBJECT
     1474        9             DESCRIPTION: This routine will display the current SUBJECT field
     1475       10        */
     1476       11
     1477       12        VMD$DI_SUBJECT: PROC (VM_HEADER,DCB#);

     12 13 000000   000000 700200 xent  VMD$DI_SUBJ* TSX0  ! X66_AUTO_2
        13 000001   000012 000002                    ZERO    10,2

     1478       13
     1479       14        /***** Include files *****/
     1480       15        %INCLUDE CP_6_SUBS;
     1481      555        %INCLUDE XU_FORMAT_C;
     1482      717        %INCLUDE CP_6;
     1483     6276        %INCLUDE VM_MACRO_C;
     1484     7544        %INCLUDE VM_SUBS_C;
     1485     7804        %INCLUDE VM_DATA_R;
     1486     8235        /***** Parameters *****/
     1487     8236        %VM_HEADER (STCLASS=" ");
     1488     8365    1   DCL DCB# UBIN WORD;
     1489     8366
     1490     8367        %F_FDS    (VECTR=VECT_ARRAY,
     1491     8368                   NVECS="1");
     1492     8481
     1493     8482    1   dcl VECT_ARRAY (0:2) vector daligned static;
     1494     8483
     1495     8484    1   dcl VM_NO_OR_YES$(0:1)    ptr symref readonly;
     1496     8485    1   dcl BSD                   sbin based;
     1497     8486
PL6.E3A0      #003=VMD$DI_SUBJECT File=VMD$DISPLAY.:VMB6TSI                      WED 08/20/97 15:09 Page:277
     1498     8487
     1499     8488
     1500     8489        %VLP_NAMEV( FPTN=VM_SUBJECT_FMT1,     STCLASS=SYMREF );
     1501     8496        %VLP_NAMEV( FPTN=VM_REFERENCE_FMT1,   STCLASS=SYMREF );
     1502     8503        %VLP_NAMEV( FPTN=VM_COPY_FMT1,        STCLASS=SYMREF );
     1503     8510        %VLP_NAMEV( FPTN=VM_BLIND_COPY_FMT1,  STCLASS=SYMREF );
     1504     8517        %VLP_NAMEV( FPTN=VM_TO_FMT,           STCLASS=SYMREF );
     1505     8524        %VLP_NAMEV( FPTN=VM_FCOPY_FMT,        STCLASS=SYMREF );
     1506     8531        %VLP_NAMEV( FPTN=VM_SIGNED_FMT,       STCLASS=SYMREF );
     1507     8538        %VLP_NAMEV( FPTN=VM_RR_FMT,           STCLASS=SYMREF );
     1508     8545        %VLP_NAMEV( FPTN=VM_RTO_FMT,          STCLASS=SYMREF );
     1509     8552        %VLP_NAMEV( FPTN=VM_DEFER_FMT,        STCLASS=SYMREF );
     1510     8559        %VLP_NAMEV( FPTN=VM_DEFER_FMT1,       STCLASS=SYMREF );
     1511     8566        %VLP_NAMEV( FPTN=VM_OPTS_FMT,         STCLASS=SYMREF );
     1512     8573        %VLP_NAMEV( FPTN=VM_OPTS_FMT1,        STCLASS=SYMREF );
     1513     8580        %VLP_NAMEV( FPTN=VM_OPTS_FMT2,        STCLASS=SYMREF );
     1514     8587        %VLP_NAMEV( FPTN=VM_DR_FMT,           STCLASS=SYMREF );
     1515     8594        %VLP_NAMEV( FPTN=VM_BROADCAST_FMT,    STCLASS=SYMREF );
     1516     8601        %VLP_NAMEV( FPTN=VN_NO_CHAR,          STCLASS=SYMREF );
     1517     8608        %VLP_NAMEV( FPTN=VN_YES_CHAR,         STCLASS=SYMREF );
     1518     8615
     1519     8616        %VLP_ERRCODE( FPTN=E_SUBJECT_FMT1,    STCLASS="SYMREF READONLY" );
     1520     8661              %VLP_ERRCODE( FPTN=E_REFERENCE_FMT1, STCLASS="SYMREF READONLY" );
     1521     8706              %VLP_ERRCODE( FPTN=E_COPY_FMT1, STCLASS="SYMREF READONLY" );
     1522     8751              %VLP_ERRCODE( FPTN=E_BLIND_COPY_FMT1, STCLASS="SYMREF READONLY" );
     1523     8796              %VLP_ERRCODE( FPTN=E_TO_FMT,    STCLASS="SYMREF READONLY" );
     1524     8841              %VLP_ERRCODE( FPTN=E_FCOPY_FMT, STCLASS="SYMREF READONLY" );
     1525     8886              %VLP_ERRCODE( FPTN=E_SIGNED_FMT, STCLASS="SYMREF READONLY" );
     1526     8931              %VLP_ERRCODE( FPTN=E_RR_FMT,    STCLASS="SYMREF READONLY" );
     1527     8976              %VLP_ERRCODE( FPTN=E_RTO_FMT,   STCLASS="SYMREF READONLY" );
     1528     9021              %VLP_ERRCODE( FPTN=E_DEFER_FMT, STCLASS="SYMREF READONLY" );
     1529     9066              %VLP_ERRCODE( FPTN=E_DEFER_FMT1, STCLASS="SYMREF READONLY" );
     1530     9111              %VLP_ERRCODE( FPTN=E_OPTS_FMT,  STCLASS="SYMREF READONLY" );
     1531     9156              %VLP_ERRCODE( FPTN=E_OPTS_FMT1, STCLASS="SYMREF READONLY" );
     1532     9201              %VLP_ERRCODE( FPTN=E_OPTS_FMT2, STCLASS="SYMREF READONLY" );
     1533     9246              %VLP_ERRCODE( FPTN=E_DR_FMT,    STCLASS="SYMREF READONLY" );
     1534     9291              %VLP_ERRCODE( FPTN=E_BROADCAST_FMT, STCLASS="SYMREF READONLY" );
PL6.E3A0      #003=VMD$DI_SUBJECT File=VMD$DISPLAY.:VMB6TSI                      WED 08/20/97 15:09 Page:278
     1535     9336              %VLP_ERRCODE( FPTN=E_NO_CHAR,   STCLASS="SYMREF READONLY" );
     1536     9381              %VLP_ERRCODE( FPTN=E_YES_CHAR,  STCLASS="SYMREF READONLY" );
     1537     9426
     1538     9427
     1539     9428
     1540     9429
     1541     9430    1   DCL SPACE CHAR(1) CONSTANT INIT(' ');
     1542     9431
     1543     9432    1   DCL VMD$WRITE_BUF ENTRY(1);
     1544     9433        %INIT_STR(DODCL=YES);
     1545     9456
     1546     9457        %EJECT;
PL6.E3A0      #003=VMD$DI_SUBJECT File=VMD$DISPLAY.:VMB6TSI                      WED 08/20/97 15:09 Page:279
     1547     9458
     1548     9459           %INIT_STR(STR=VM_SUBJECT_FMT1, CODE=E_SUBJECT_FMT1, TEST=YES, VECT="F_FDS.FMT_")
              9459                ;

   9466 13 000002   000000 236000 xsym               LDQ     VM_SUBJECT_FMT1
        13 000003   000033 772000                    QRL     27
        13 000004   000000 620006                    EAX0    0,QL
        13 000005   040000 106440                    CMPC    fill='040'O
        13 000006   000000 200010 xsym               ADSC9   VM_SUBJECT_FMT1          cn=1,n=*X0
        13 000007   000000 000001 14                 ADSC9   0                        cn=0,n=1
        13 000010   000016 601000 13                 TNZ     s:9471

   9468 13 000011   000002 630400 14                 EPPR0   2
        13 000012   000001 631400 14                 EPPR1   1
        13 000013   000000 701000 xent               TSX1    VMD$ERRMSG
        13 000014   000000 011000                    NOP     0

   9469 13 000015   000023 710000 13                 TRA     s:9482

   9471 13 000016   000000 635010                    EAA     0,X0
        13 000017   000002 771000                    ARL     2
        13 000020   000140 135007                    SBLA    96,DL
        13 000021   000005 236000 14                 LDQ     5
        13 000022   000000 757000 11                 STAQ    F_FDS

     1549     9482    1       IF VM_HEADER.SUBJECT$ ~= ADDR(NIL) THEN

   9482 13 000023   200003 470500                    LDP0    @VM_HEADER,,AUTO
        13 000024   000030 236100                    LDQ     24,,PR0
        13 000025   000006 116000 14                 CMPQ    6
        13 000026   000035 600000 13                 TZE     s:9484

     1550     9483    1           CALL DISPLAY_FIELD (VM_HEADER.SUBJECT$);

   9483 13 000027   200003 236100                    LDQ     @VM_HEADER,,AUTO
        13 000030   000030 036003                    ADLQ    24,DU
        13 000031   200007 756100                    STQ     @DCB#+3,,AUTO
PL6.E3A0      #003=VMD$DI_SUBJECT File=VMD$DISPLAY.:VMB6TSI                      WED 08/20/97 15:09 Page:280
        13 000032   001115 701000 13                 TSX1    DISPLAY_FIELD
        13 000033   000000 011000                    NOP     0
        13 000034   000042 710000 13                 TRA     s:9485

     1551     9484    1       ELSE CALL DISPLAY_FIELD (VM_HEADER.REFERENCE$);

   9484 13 000035   200003 236100                    LDQ     @VM_HEADER,,AUTO
        13 000036   000024 036003                    ADLQ    20,DU
        13 000037   200007 756100                    STQ     @DCB#+3,,AUTO
        13 000040   001115 701000 13                 TSX1    DISPLAY_FIELD
        13 000041   000000 011000                    NOP     0

     1552     9485    1       RETURN;

   9485 13 000042   000000 702200 xent               TSX2  ! X66_ARET

     1553     9486        %EJECT;
PL6.E3A0      #003=VMD$DI_SUBJECT File=VMD$DISPLAY.:VMB6TSI                      WED 08/20/97 15:09 Page:281
     1554     9487        /*F*
     1555     9488             NAME: VMD$DI_TO
     1556     9489             PURPOSE: To display the TO field of the current message.
     1557     9490        */
     1558     9491    1   VMD$DI_TO: ENTRY (VM_HEADER,DCB#);

   9491 13 000043   000000 700200 xent  VMD$DI_TO    TSX0  ! X66_AUTO_2
        13 000044   000012 000002                    ZERO    10,2

     1559     9492            %INIT_STR(STR=VM_TO_FMT, CODE=E_TO_FMT, TEST=YES, VECT="F_FDS.FMT_");

   9499 13 000045   000000 236000 xsym               LDQ     VM_TO_FMT
        13 000046   000033 772000                    QRL     27
        13 000047   000000 620006                    EAX0    0,QL
        13 000050   040000 106440                    CMPC    fill='040'O
        13 000051   000000 200010 xsym               ADSC9   VM_TO_FMT                cn=1,n=*X0
        13 000052   000000 000001 14                 ADSC9   0                        cn=0,n=1
        13 000053   000061 601000 13                 TNZ     s:9504

   9501 13 000054   000007 630400 14                 EPPR0   7
        13 000055   000001 631400 14                 EPPR1   1
        13 000056   000000 701000 xent               TSX1    VMD$ERRMSG
        13 000057   000000 011000                    NOP     0

   9502 13 000060   000066 710000 13                 TRA     s:9515

   9504 13 000061   000000 635010                    EAA     0,X0
        13 000062   000002 771000                    ARL     2
        13 000063   000140 135007                    SBLA    96,DL
        13 000064   000012 236000 14                 LDQ     10
        13 000065   000000 757000 11                 STAQ    F_FDS

     1560     9515    1       CALL DISPLAY_FIELD (VM_HEADER.TO$);

   9515 13 000066   200003 236100                    LDQ     @VM_HEADER,,AUTO
        13 000067   000031 036003                    ADLQ    25,DU
        13 000070   200007 756100                    STQ     @DCB#+3,,AUTO
PL6.E3A0      #003=VMD$DI_SUBJECT File=VMD$DISPLAY.:VMB6TSI                      WED 08/20/97 15:09 Page:282
        13 000071   001115 701000 13                 TSX1    DISPLAY_FIELD
        13 000072   000000 011000                    NOP     0

     1561     9516    1       RETURN;

   9516 13 000073   000000 702200 xent               TSX2  ! X66_ARET

     1562     9517        %EJECT;
PL6.E3A0      #003=VMD$DI_SUBJECT File=VMD$DISPLAY.:VMB6TSI                      WED 08/20/97 15:09 Page:283
     1563     9518        /*F*
     1564     9519             NAME: VMD$DI_COPY
     1565     9520             PURPOSE: To display the COPY field of the current message.
     1566     9521        */
     1567     9522    1   VMD$DI_COPY: ENTRY (VM_HEADER,DCB#);

   9522 13 000074   000000 700200 xent  VMD$DI_COPY  TSX0  ! X66_AUTO_2
        13 000075   000012 000002                    ZERO    10,2

     1568     9523            %INIT_STR(STR=VM_COPY_FMT1, CODE=E_COPY_FMT1, TEST=YES, VECT="F_FDS.FMT_");

   9530 13 000076   000000 236000 xsym               LDQ     VM_COPY_FMT1
        13 000077   000033 772000                    QRL     27
        13 000100   000000 620006                    EAX0    0,QL
        13 000101   040000 106440                    CMPC    fill='040'O
        13 000102   000000 200010 xsym               ADSC9   VM_COPY_FMT1             cn=1,n=*X0
        13 000103   000000 000001 14                 ADSC9   0                        cn=0,n=1
        13 000104   000112 601000 13                 TNZ     s:9535

   9532 13 000105   000013 630400 14                 EPPR0   11
        13 000106   000001 631400 14                 EPPR1   1
        13 000107   000000 701000 xent               TSX1    VMD$ERRMSG
        13 000110   000000 011000                    NOP     0

   9533 13 000111   000117 710000 13                 TRA     s:9546

   9535 13 000112   000000 635010                    EAA     0,X0
        13 000113   000002 771000                    ARL     2
        13 000114   000140 135007                    SBLA    96,DL
        13 000115   000016 236000 14                 LDQ     14
        13 000116   000000 757000 11                 STAQ    F_FDS

     1569     9546    1       CALL DISPLAY_FIELD (VM_HEADER.COPY$);

   9546 13 000117   200003 236100                    LDQ     @VM_HEADER,,AUTO
        13 000120   000021 036003                    ADLQ    17,DU
        13 000121   200007 756100                    STQ     @DCB#+3,,AUTO
PL6.E3A0      #003=VMD$DI_SUBJECT File=VMD$DISPLAY.:VMB6TSI                      WED 08/20/97 15:09 Page:284
        13 000122   001115 701000 13                 TSX1    DISPLAY_FIELD
        13 000123   000000 011000                    NOP     0

     1570     9547    1       RETURN;

   9547 13 000124   000000 702200 xent               TSX2  ! X66_ARET

     1571     9548        %EJECT;
PL6.E3A0      #003=VMD$DI_SUBJECT File=VMD$DISPLAY.:VMB6TSI                      WED 08/20/97 15:09 Page:285
     1572     9549        /*F*
     1573     9550             NAME: VMD$DI_BLIND
     1574     9551             PURPOSE: To display the BLIND COPY FIELD of the current message.
     1575     9552        */
     1576     9553    1   VMD$DI_BLIND: ENTRY (VM_HEADER,DCB#);

   9553 13 000125   000000 700200 xent  VMD$DI_BLIND TSX0  ! X66_AUTO_2
        13 000126   000012 000002                    ZERO    10,2

     1577     9554            %INIT_STR(STR=VM_BLIND_COPY_FMT1, CODE=E_BLIND_COPY_FMT1, TEST=YES, VECT=
              9554                "F_FDS.FMT_");

   9561 13 000127   000000 236000 xsym               LDQ     VM_BLIND_COPY_FMT1
        13 000130   000033 772000                    QRL     27
        13 000131   000000 620006                    EAX0    0,QL
        13 000132   040000 106440                    CMPC    fill='040'O
        13 000133   000000 200010 xsym               ADSC9   VM_BLIND_COPY_FMT1       cn=1,n=*X0
        13 000134   000000 000001 14                 ADSC9   0                        cn=0,n=1
        13 000135   000143 601000 13                 TNZ     s:9566

   9563 13 000136   000017 630400 14                 EPPR0   15
        13 000137   000001 631400 14                 EPPR1   1
        13 000140   000000 701000 xent               TSX1    VMD$ERRMSG
        13 000141   000000 011000                    NOP     0

   9564 13 000142   000150 710000 13                 TRA     s:9577

   9566 13 000143   000000 635010                    EAA     0,X0
        13 000144   000002 771000                    ARL     2
        13 000145   000140 135007                    SBLA    96,DL
        13 000146   000022 236000 14                 LDQ     18
        13 000147   000000 757000 11                 STAQ    F_FDS

     1578     9577    1       CALL DISPLAY_FIELD (VM_HEADER.BLIND$);

   9577 13 000150   200003 236100                    LDQ     @VM_HEADER,,AUTO
        13 000151   000020 036003                    ADLQ    16,DU
PL6.E3A0      #003=VMD$DI_SUBJECT File=VMD$DISPLAY.:VMB6TSI                      WED 08/20/97 15:09 Page:286
        13 000152   200007 756100                    STQ     @DCB#+3,,AUTO
        13 000153   001115 701000 13                 TSX1    DISPLAY_FIELD
        13 000154   000000 011000                    NOP     0

     1579     9578    1       RETURN;

   9578 13 000155   000000 702200 xent               TSX2  ! X66_ARET

     1580     9579        %EJECT;
PL6.E3A0      #003=VMD$DI_SUBJECT File=VMD$DISPLAY.:VMB6TSI                      WED 08/20/97 15:09 Page:287
     1581     9580        /*F*
     1582     9581             NAME: VMD$DI_REFERENCE
     1583     9582             PURPOSE: To display the REFERENCE field of the current message.
     1584     9583        */
     1585     9584    1   VMD$DI_REFERENCE: ENTRY (VM_HEADER,DCB#);

   9584 13 000156   000000 700200 xent  VMD$DI_REFE* TSX0  ! X66_AUTO_2
        13 000157   000012 000002                    ZERO    10,2

     1586     9585            %INIT_STR(STR=VM_REFERENCE_FMT1, CODE=E_REFERENCE_FMT1, TEST=YES, VECT=
              9585                "F_FDS.FMT_");

   9592 13 000160   000000 236000 xsym               LDQ     VM_REFERENCE_FMT1
        13 000161   000033 772000                    QRL     27
        13 000162   000000 620006                    EAX0    0,QL
        13 000163   040000 106440                    CMPC    fill='040'O
        13 000164   000000 200010 xsym               ADSC9   VM_REFERENCE_FMT1        cn=1,n=*X0
        13 000165   000000 000001 14                 ADSC9   0                        cn=0,n=1
        13 000166   000174 601000 13                 TNZ     s:9597

   9594 13 000167   000023 630400 14                 EPPR0   19
        13 000170   000001 631400 14                 EPPR1   1
        13 000171   000000 701000 xent               TSX1    VMD$ERRMSG
        13 000172   000000 011000                    NOP     0

   9595 13 000173   000201 710000 13                 TRA     s:9608

   9597 13 000174   000000 635010                    EAA     0,X0
        13 000175   000002 771000                    ARL     2
        13 000176   000140 135007                    SBLA    96,DL
        13 000177   000026 236000 14                 LDQ     22
        13 000200   000000 757000 11                 STAQ    F_FDS

     1587     9608    1       CALL DISPLAY_FIELD (VM_HEADER.REFERENCE$);

   9608 13 000201   200003 236100                    LDQ     @VM_HEADER,,AUTO
        13 000202   000024 036003                    ADLQ    20,DU
PL6.E3A0      #003=VMD$DI_SUBJECT File=VMD$DISPLAY.:VMB6TSI                      WED 08/20/97 15:09 Page:288
        13 000203   200007 756100                    STQ     @DCB#+3,,AUTO
        13 000204   001115 701000 13                 TSX1    DISPLAY_FIELD
        13 000205   000000 011000                    NOP     0

     1588     9609    1       RETURN;

   9609 13 000206   000000 702200 xent               TSX2  ! X66_ARET

     1589     9610        %EJECT;
PL6.E3A0      #003=VMD$DI_SUBJECT File=VMD$DISPLAY.:VMB6TSI                      WED 08/20/97 15:09 Page:289
     1590     9611        /*F*
     1591     9612             NAME: VMD$DI_FCOPY
     1592     9613             PURPOSE: To display the FILE COPY flag of the currnet message.
     1593     9614        */
     1594     9615    1   VMD$DI_FCOPY: ENTRY (VM_HEADER,DCB#);

   9615 13 000207   000000 700200 xent  VMD$DI_FCOPY TSX0  ! X66_AUTO_2
        13 000210   000012 000002                    ZERO    10,2

     1595     9616            %INIT_STR(STR=VM_FCOPY_FMT, CODE=E_FCOPY_FMT, TEST=YES, VECT="F_FDS.FMT_");

   9623 13 000211   000000 236000 xsym               LDQ     VM_FCOPY_FMT
        13 000212   000033 772000                    QRL     27
        13 000213   000000 620006                    EAX0    0,QL
        13 000214   040000 106440                    CMPC    fill='040'O
        13 000215   000000 200010 xsym               ADSC9   VM_FCOPY_FMT             cn=1,n=*X0
        13 000216   000000 000001 14                 ADSC9   0                        cn=0,n=1
        13 000217   000225 601000 13                 TNZ     s:9628

   9625 13 000220   000027 630400 14                 EPPR0   23
        13 000221   000001 631400 14                 EPPR1   1
        13 000222   000000 701000 xent               TSX1    VMD$ERRMSG
        13 000223   000000 011000                    NOP     0

   9626 13 000224   000232 710000 13                 TRA     s:9646

   9628 13 000225   000000 635010                    EAA     0,X0
        13 000226   000002 771000                    ARL     2
        13 000227   000140 135007                    SBLA    96,DL
        13 000230   000032 236000 14                 LDQ     26
        13 000231   000000 757000 11                 STAQ    F_FDS

     1596     9639            %INIT_STR(STR=VN_NO_CHAR, CODE=E_NO_CHAR, TEST=YES);

   9646 13 000232   000000 236000 xsym               LDQ     VN_NO_CHAR
        13 000233   000033 772000                    QRL     27
        13 000234   000000 620006                    EAX0    0,QL
PL6.E3A0      #003=VMD$DI_SUBJECT File=VMD$DISPLAY.:VMB6TSI                      WED 08/20/97 15:09 Page:290
        13 000235   040000 106440                    CMPC    fill='040'O
        13 000236   000000 200010 xsym               ADSC9   VN_NO_CHAR               cn=1,n=*X0
        13 000237   000000 000001 14                 ADSC9   0                        cn=0,n=1
        13 000240   000245 601000 13                 TNZ     s:9669

   9648 13 000241   000034 630400 14                 EPPR0   28
        13 000242   000033 631400 14                 EPPR1   27
        13 000243   000000 701000 xent               TSX1    VMD$ERRMSG
        13 000244   000000 011000                    NOP     0

     1597     9662            %INIT_STR(STR=VN_YES_CHAR, CODE=E_YES_CHAR, TEST=YES);

   9669 13 000245   000000 236000 xsym               LDQ     VN_YES_CHAR
        13 000246   000033 772000                    QRL     27
        13 000247   000000 620006                    EAX0    0,QL
        13 000250   040000 106440                    CMPC    fill='040'O
        13 000251   000000 200010 xsym               ADSC9   VN_YES_CHAR              cn=1,n=*X0
        13 000252   000000 000001 14                 ADSC9   0                        cn=0,n=1
        13 000253   000260 601000 13                 TNZ     s:9685

   9671 13 000254   000036 630400 14                 EPPR0   30
        13 000255   000033 631400 14                 EPPR1   27
        13 000256   000000 701000 xent               TSX1    VMD$ERRMSG
        13 000257   000000 011000                    NOP     0

     1598     9685    1       call DISPLAY_FIELD( VM_NO_OR_YES$( bitbin(VM_HEADER.STATUS.FCOPY) ) );

   9685 13 000260   200003 470500                    LDP0    @VM_HEADER,,AUTO
        13 000261   000012 236100                    LDQ     10,,PR0
        13 000262   000031 772000                    QRL     25
        13 000263   000001 376007                    ANQ     1,DL
        13 000264   000000 631406 xsym               EPPR1   VM_NO_OR_YES$,QL
        13 000265   200007 451500                    STP1    @DCB#+3,,AUTO
        13 000266   001115 701000 13                 TSX1    DISPLAY_FIELD
        13 000267   000000 011000                    NOP     0

     1599     9686    1       RETURN;
PL6.E3A0      #003=VMD$DI_SUBJECT File=VMD$DISPLAY.:VMB6TSI                      WED 08/20/97 15:09 Page:291

   9686 13 000270   000000 702200 xent               TSX2  ! X66_ARET

     1600     9687        %EJECT;
PL6.E3A0      #003=VMD$DI_SUBJECT File=VMD$DISPLAY.:VMB6TSI                      WED 08/20/97 15:09 Page:292
     1601     9688        /*F*
     1602     9689             NAME: VMD$DI_SIGNED
     1603     9690             PURPOSE: To display the signed field of the current message.
     1604     9691        */
     1605     9692    1   VMD$DI_SIGNED: ENTRY (VM_HEADER,DCB#);

   9692 13 000271   000000 700200 xent  VMD$DI_SIGN* TSX0  ! X66_AUTO_2
        13 000272   000012 000002                    ZERO    10,2

     1606     9693            %INIT_STR(STR=VM_SIGNED_FMT, CODE=E_SIGNED_FMT, TEST=YES, VECT="F_FDS.FMT_");

   9700 13 000273   000000 236000 xsym               LDQ     VM_SIGNED_FMT
        13 000274   000033 772000                    QRL     27
        13 000275   000000 620006                    EAX0    0,QL
        13 000276   040000 106440                    CMPC    fill='040'O
        13 000277   000000 200010 xsym               ADSC9   VM_SIGNED_FMT            cn=1,n=*X0
        13 000300   000000 000001 14                 ADSC9   0                        cn=0,n=1
        13 000301   000307 601000 13                 TNZ     s:9705

   9702 13 000302   000040 630400 14                 EPPR0   32
        13 000303   000001 631400 14                 EPPR1   1
        13 000304   000000 701000 xent               TSX1    VMD$ERRMSG
        13 000305   000000 011000                    NOP     0

   9703 13 000306   000314 710000 13                 TRA     s:9716

   9705 13 000307   000000 635010                    EAA     0,X0
        13 000310   000002 771000                    ARL     2
        13 000311   000140 135007                    SBLA    96,DL
        13 000312   000043 236000 14                 LDQ     35
        13 000313   000000 757000 11                 STAQ    F_FDS

     1607     9716    1       CALL DISPLAY_FIELD (VM_HEADER.SIGNED$);

   9716 13 000314   200003 236100                    LDQ     @VM_HEADER,,AUTO
        13 000315   000027 036003                    ADLQ    23,DU
        13 000316   200007 756100                    STQ     @DCB#+3,,AUTO
PL6.E3A0      #003=VMD$DI_SUBJECT File=VMD$DISPLAY.:VMB6TSI                      WED 08/20/97 15:09 Page:293
        13 000317   001115 701000 13                 TSX1    DISPLAY_FIELD
        13 000320   000000 011000                    NOP     0

     1608     9717    1       RETURN;

   9717 13 000321   000000 702200 xent               TSX2  ! X66_ARET

     1609     9718        %EJECT;
PL6.E3A0      #003=VMD$DI_SUBJECT File=VMD$DISPLAY.:VMB6TSI                      WED 08/20/97 15:09 Page:294
     1610     9719        /*F*
     1611     9720             NAME: VMD$DI_RR
     1612     9721             PURPOSE: To display the RETURN RECEIPT flag of the current message.
     1613     9722        */
     1614     9723    1   VMD$DI_RR: ENTRY (VM_HEADER,DCB#);

   9723 13 000322   000000 700200 xent  VMD$DI_RR    TSX0  ! X66_AUTO_2
        13 000323   000012 000002                    ZERO    10,2

     1615     9724            %INIT_STR(STR=VM_RR_FMT, CODE=E_RR_FMT, TEST=YES, VECT="F_FDS.FMT_");

   9731 13 000324   000000 236000 xsym               LDQ     VM_RR_FMT
        13 000325   000033 772000                    QRL     27
        13 000326   000000 620006                    EAX0    0,QL
        13 000327   040000 106440                    CMPC    fill='040'O
        13 000330   000000 200010 xsym               ADSC9   VM_RR_FMT                cn=1,n=*X0
        13 000331   000000 000001 14                 ADSC9   0                        cn=0,n=1
        13 000332   000340 601000 13                 TNZ     s:9736

   9733 13 000333   000044 630400 14                 EPPR0   36
        13 000334   000001 631400 14                 EPPR1   1
        13 000335   000000 701000 xent               TSX1    VMD$ERRMSG
        13 000336   000000 011000                    NOP     0

   9734 13 000337   000345 710000 13                 TRA     s:9754

   9736 13 000340   000000 635010                    EAA     0,X0
        13 000341   000002 771000                    ARL     2
        13 000342   000140 135007                    SBLA    96,DL
        13 000343   000047 236000 14                 LDQ     39
        13 000344   000000 757000 11                 STAQ    F_FDS

     1616     9747            %INIT_STR(STR=VN_NO_CHAR, CODE=E_NO_CHAR, TEST=YES);

   9754 13 000345   000000 236000 xsym               LDQ     VN_NO_CHAR
        13 000346   000033 772000                    QRL     27
        13 000347   000000 620006                    EAX0    0,QL
PL6.E3A0      #003=VMD$DI_SUBJECT File=VMD$DISPLAY.:VMB6TSI                      WED 08/20/97 15:09 Page:295
        13 000350   040000 106440                    CMPC    fill='040'O
        13 000351   000000 200010 xsym               ADSC9   VN_NO_CHAR               cn=1,n=*X0
        13 000352   000000 000001 14                 ADSC9   0                        cn=0,n=1
        13 000353   000360 601000 13                 TNZ     s:9777

   9756 13 000354   000034 630400 14                 EPPR0   28
        13 000355   000033 631400 14                 EPPR1   27
        13 000356   000000 701000 xent               TSX1    VMD$ERRMSG
        13 000357   000000 011000                    NOP     0

     1617     9770            %INIT_STR(STR=VN_YES_CHAR, CODE=E_YES_CHAR, TEST=YES);

   9777 13 000360   000000 236000 xsym               LDQ     VN_YES_CHAR
        13 000361   000033 772000                    QRL     27
        13 000362   000000 620006                    EAX0    0,QL
        13 000363   040000 106440                    CMPC    fill='040'O
        13 000364   000000 200010 xsym               ADSC9   VN_YES_CHAR              cn=1,n=*X0
        13 000365   000000 000001 14                 ADSC9   0                        cn=0,n=1
        13 000366   000373 601000 13                 TNZ     s:9793

   9779 13 000367   000036 630400 14                 EPPR0   30
        13 000370   000033 631400 14                 EPPR1   27
        13 000371   000000 701000 xent               TSX1    VMD$ERRMSG
        13 000372   000000 011000                    NOP     0

     1618     9793    1       call DISPLAY_FIELD( VM_NO_OR_YES$( bitbin(VM_HEADER.STATUS.RR) ) );

   9793 13 000373   200003 470500                    LDP0    @VM_HEADER,,AUTO
        13 000374   000012 236100                    LDQ     10,,PR0
        13 000375   000037 772000                    QRL     31
        13 000376   000001 376007                    ANQ     1,DL
        13 000377   000000 631406 xsym               EPPR1   VM_NO_OR_YES$,QL
        13 000400   200007 451500                    STP1    @DCB#+3,,AUTO
        13 000401   001115 701000 13                 TSX1    DISPLAY_FIELD
        13 000402   000000 011000                    NOP     0

     1619     9794    1       RETURN;
PL6.E3A0      #003=VMD$DI_SUBJECT File=VMD$DISPLAY.:VMB6TSI                      WED 08/20/97 15:09 Page:296

   9794 13 000403   000000 702200 xent               TSX2  ! X66_ARET

     1620     9795        %EJECT;
PL6.E3A0      #003=VMD$DI_SUBJECT File=VMD$DISPLAY.:VMB6TSI                      WED 08/20/97 15:09 Page:297
     1621     9796        /*F*
     1622     9797             NAME: VMD$DI_RTO
     1623     9798             PURPOSE: To display the REPLY TO field of the current message.
     1624     9799        */
     1625     9800    1   VMD$DI_RTO: ENTRY (VM_HEADER,DCB#);

   9800 13 000404   000000 700200 xent  VMD$DI_RTO   TSX0  ! X66_AUTO_2
        13 000405   000012 000002                    ZERO    10,2

     1626     9801            %INIT_STR(STR=VM_RTO_FMT, CODE=E_RTO_FMT, TEST=YES, VECT="F_FDS.FMT_");

   9808 13 000406   000000 236000 xsym               LDQ     VM_RTO_FMT
        13 000407   000033 772000                    QRL     27
        13 000410   000000 620006                    EAX0    0,QL
        13 000411   040000 106440                    CMPC    fill='040'O
        13 000412   000000 200010 xsym               ADSC9   VM_RTO_FMT               cn=1,n=*X0
        13 000413   000000 000001 14                 ADSC9   0                        cn=0,n=1
        13 000414   000422 601000 13                 TNZ     s:9813

   9810 13 000415   000050 630400 14                 EPPR0   40
        13 000416   000001 631400 14                 EPPR1   1
        13 000417   000000 701000 xent               TSX1    VMD$ERRMSG
        13 000420   000000 011000                    NOP     0

   9811 13 000421   000427 710000 13                 TRA     s:9824

   9813 13 000422   000000 635010                    EAA     0,X0
        13 000423   000002 771000                    ARL     2
        13 000424   000140 135007                    SBLA    96,DL
        13 000425   000053 236000 14                 LDQ     43
        13 000426   000000 757000 11                 STAQ    F_FDS

     1627     9824    1       CALL DISPLAY_FIELD (VM_HEADER.REPLY_TO$);

   9824 13 000427   200003 236100                    LDQ     @VM_HEADER,,AUTO
        13 000430   000025 036003                    ADLQ    21,DU
        13 000431   200007 756100                    STQ     @DCB#+3,,AUTO
PL6.E3A0      #003=VMD$DI_SUBJECT File=VMD$DISPLAY.:VMB6TSI                      WED 08/20/97 15:09 Page:298
        13 000432   001115 701000 13                 TSX1    DISPLAY_FIELD
        13 000433   000000 011000                    NOP     0

     1628     9825    1       RETURN;

   9825 13 000434   000000 702200 xent               TSX2  ! X66_ARET

     1629     9826        %EJECT;
PL6.E3A0      #003=VMD$DI_SUBJECT File=VMD$DISPLAY.:VMB6TSI                      WED 08/20/97 15:09 Page:299
     1630     9827        /*F*
     1631     9828             NAME: VMD$DI_DEFER
     1632     9829             PURPOSE: To display the DELIVERY DATE of the current message.
     1633     9830        */
     1634     9831    1   VMD$DI_DEFER: ENTRY (VM_HEADER,DCB#);

   9831 13 000435   000000 700200 xent  VMD$DI_DEFER TSX0  ! X66_AUTO_2
        13 000436   000012 000002                    ZERO    10,2

     1635     9832    1       F_FDS.DCB# = DCB#;

   9832 13 000437   200004 470500                    LDP0    @DCB#,,AUTO
        13 000440   000000 720100                    LXL0    0,,PR0
        13 000441   000013 740000 11                 STX0    F_FDS+11

     1636     9833    1       VECT_ARRAY(0) = VECTOR(VM_HEADER.DELIVERY_DATE);

   9833 13 000442   777640 235007                    LDA     -96,DL
        13 000443   200003 236100                    LDQ     @VM_HEADER,,AUTO
        13 000444   000002 036003                    ADLQ    2,DU
        13 000445   000036 757000 11                 STAQ    VECT_ARRAY

     1637     9834    1       IF VM_HEADER.DELIVERY_DATE > 0

   9834 13 000446   200003 471500                    LDP1    @VM_HEADER,,AUTO
        13 000447   100002 235100                    LDA     2,,PR1
        13 000450   000473 600000 13                 TZE     s:9867

     1638     9835    1       THEN
     1639     9836                %INIT_STR(STR=VM_DEFER_FMT, CODE=E_DEFER_FMT, TEST=YES, VECT="F_FDS.FMT_");

   9843 13 000451   000000 236000 xsym               LDQ     VM_DEFER_FMT
        13 000452   000033 772000                    QRL     27
        13 000453   000000 621006                    EAX1    0,QL
        13 000454   040000 106440                    CMPC    fill='040'O
        13 000455   000000 200011 xsym               ADSC9   VM_DEFER_FMT             cn=1,n=*X1
        13 000456   000000 000001 14                 ADSC9   0                        cn=0,n=1
PL6.E3A0      #003=VMD$DI_SUBJECT File=VMD$DISPLAY.:VMB6TSI                      WED 08/20/97 15:09 Page:300
        13 000457   000465 601000 13                 TNZ     s:9848

   9845 13 000460   000054 630400 14                 EPPR0   44
        13 000461   000001 631400 14                 EPPR1   1
        13 000462   000000 701000 xent               TSX1    VMD$ERRMSG
        13 000463   000000 011000                    NOP     0

   9846 13 000464   000514 710000 13                 TRA     s:9883

   9848 13 000465   000000 635011                    EAA     0,X1
        13 000466   000002 771000                    ARL     2
        13 000467   000140 135007                    SBLA    96,DL
        13 000470   000057 236000 14                 LDQ     47
        13 000471   000000 757000 11                 STAQ    F_FDS

   9856 13 000472   000514 710000 13                 TRA     s:9883

     1640     9859    1       ELSE
     1641     9860               %INIT_STR(STR=VM_DEFER_FMT1, CODE=E_DEFER_FMT1, TEST=YES, VECT="F_FDS.FMT_")
              9860                    ;

   9867 13 000473   000000 236000 xsym               LDQ     VM_DEFER_FMT1
        13 000474   000033 772000                    QRL     27
        13 000475   000000 621006                    EAX1    0,QL
        13 000476   040000 106440                    CMPC    fill='040'O
        13 000477   000000 200011 xsym               ADSC9   VM_DEFER_FMT1            cn=1,n=*X1
        13 000500   000000 000001 14                 ADSC9   0                        cn=0,n=1
        13 000501   000507 601000 13                 TNZ     s:9872

   9869 13 000502   000060 630400 14                 EPPR0   48
        13 000503   000001 631400 14                 EPPR1   1
        13 000504   000000 701000 xent               TSX1    VMD$ERRMSG
        13 000505   000000 011000                    NOP     0

   9870 13 000506   000514 710000 13                 TRA     s:9883

   9872 13 000507   000000 635011                    EAA     0,X1
PL6.E3A0      #003=VMD$DI_SUBJECT File=VMD$DISPLAY.:VMB6TSI                      WED 08/20/97 15:09 Page:301
        13 000510   000002 771000                    ARL     2
        13 000511   000140 135007                    SBLA    96,DL
        13 000512   000063 236000 14                 LDQ     51
        13 000513   000000 757000 11                 STAQ    F_FDS

     1642     9883    1       CALL VMD$WRITE_BUF (F_FDS);

   9883 13 000514   000004 630400 14                 EPPR0   4
        13 000515   000064 631400 14                 EPPR1   52
        13 000516   000000 701000 xent               TSX1    VMD$WRITE_BUF
        13 000517   000000 011000                    NOP     0

     1643     9884    1       RETURN;

   9884 13 000520   000000 702200 xent               TSX2  ! X66_ARET

     1644     9885        %EJECT;
PL6.E3A0      #003=VMD$DI_SUBJECT File=VMD$DISPLAY.:VMB6TSI                      WED 08/20/97 15:09 Page:302
     1645     9886        /*F*
     1646     9887             NAME: VMD$DI_OPTS
     1647     9888             PURPOSE: To display various SEND options.
     1648     9889        */
     1649     9890    1   VMD$DI_OPTS: ENTRY (VM_HEADER,DCB#);

   9890 13 000521   000000 700200 xent  VMD$DI_OPTS  TSX0  ! X66_AUTO_2
        13 000522   000012 000002                    ZERO    10,2

     1650     9891    1       F_FDS.DCB# = DCB#;

   9891 13 000523   200004 470500                    LDP0    @DCB#,,AUTO
        13 000524   000000 720100                    LXL0    0,,PR0
        13 000525   000013 740000 11                 STX0    F_FDS+11

     1651     9892            %INIT_STR(STR=VN_NO_CHAR, CODE=E_NO_CHAR, TEST=YES);

   9899 13 000526   000000 236000 xsym               LDQ     VN_NO_CHAR
        13 000527   000033 772000                    QRL     27
        13 000530   000000 621006                    EAX1    0,QL
        13 000531   040000 106440                    CMPC    fill='040'O
        13 000532   000000 200011 xsym               ADSC9   VN_NO_CHAR               cn=1,n=*X1
        13 000533   000000 000001 14                 ADSC9   0                        cn=0,n=1
        13 000534   000541 601000 13                 TNZ     s:9922

   9901 13 000535   000034 630400 14                 EPPR0   28
        13 000536   000033 631400 14                 EPPR1   27
        13 000537   000000 701000 xent               TSX1    VMD$ERRMSG
        13 000540   000000 011000                    NOP     0

     1652     9915            %INIT_STR(STR=VN_YES_CHAR, CODE=E_YES_CHAR, TEST=YES);

   9922 13 000541   000000 236000 xsym               LDQ     VN_YES_CHAR
        13 000542   000033 772000                    QRL     27
        13 000543   000000 620006                    EAX0    0,QL
        13 000544   040000 106440                    CMPC    fill='040'O
        13 000545   000000 200010 xsym               ADSC9   VN_YES_CHAR              cn=1,n=*X0
PL6.E3A0      #003=VMD$DI_SUBJECT File=VMD$DISPLAY.:VMB6TSI                      WED 08/20/97 15:09 Page:303
        13 000546   000000 000001 14                 ADSC9   0                        cn=0,n=1
        13 000547   000554 601000 13                 TNZ     s:9938

   9924 13 000550   000036 630400 14                 EPPR0   30
        13 000551   000033 631400 14                 EPPR1   27
        13 000552   000000 701000 xent               TSX1    VMD$ERRMSG
        13 000553   000000 011000                    NOP     0

     1653     9938    1       VECT_ARRAY(0) = vector(VN_YES_CHAR.NAME#);

   9938 13 000554   000000 236000 xsym               LDQ     VN_YES_CHAR
        13 000555   000033 772000                    QRL     27
        13 000556   000064 737000                    LLS     52
        13 000557   000140 135007                    SBLA    96,DL
        13 000560   000065 236000 14                 LDQ     53
        13 000561   000036 757000 11                 STAQ    VECT_ARRAY

     1654     9939    1       VECT_ARRAY(1) = vector(VN_YES_CHAR.NAME#);

   9939 13 000562   000000 236000 xsym               LDQ     VN_YES_CHAR
        13 000563   000033 772000                    QRL     27
        13 000564   000064 737000                    LLS     52
        13 000565   000140 135007                    SBLA    96,DL
        13 000566   000065 236000 14                 LDQ     53
        13 000567   000040 757000 11                 STAQ    VECT_ARRAY+2

     1655     9940    1       vbase(VECT_ARRAY(0)) = pincrc(VM_NO_OR_YES$( bitbin(VM_HEADER.STATUS.DR) ),1);

   9940 13 000570   200003 470500                    LDP0    @VM_HEADER,,AUTO
        13 000571   000012 236100                    LDQ     10,,PR0
        13 000572   000024 772000                    QRL     20
        13 000573   000001 376007                    ANQ     1,DL
        13 000574   000000 236006 xsym               LDQ     VM_NO_OR_YES$,QL
        13 000575   200000 036007                    ADLQ    65536,DL
        13 000576   000037 756000 11                 STQ     VECT_ARRAY+1

     1656     9941    1       vbase(VECT_ARRAY(1)) = pincrc(VM_NO_OR_YES$( bitbin(VM_HEADER.STATUS.RR) ),1);
PL6.E3A0      #003=VMD$DI_SUBJECT File=VMD$DISPLAY.:VMB6TSI                      WED 08/20/97 15:09 Page:304

   9941 13 000577   000012 236100                    LDQ     10,,PR0
        13 000600   000037 772000                    QRL     31
        13 000601   000001 376007                    ANQ     1,DL
        13 000602   000000 236006 xsym               LDQ     VM_NO_OR_YES$,QL
        13 000603   200000 036007                    ADLQ    65536,DL
        13 000604   000041 756000 11                 STQ     VECT_ARRAY+3

     1657     9942    1       IF VM_HEADER.DELIVERY_DATE > 0

   9942 13 000605   000002 235100                    LDA     2,,PR0
        13 000606   000637 600000 13                 TZE     s:9972

     1658     9943    2       THEN DO;

     1659     9944    2           VECT_ARRAY(2) = VECTOR(VM_HEADER.DELIVERY_DATE);

   9944 13 000607   777640 235007                    LDA     -96,DL
        13 000610   200003 236100                    LDQ     @VM_HEADER,,AUTO
        13 000611   000002 036003                    ADLQ    2,DU
        13 000612   000042 757000 11                 STAQ    VECT_ARRAY+4

     1660     9945    2           F_FDS.NVECS# = 3;

   9945 13 000613   000003 235007                    LDA     3,DL
        13 000614   000011 755000 11                 STA     F_FDS+9

     1661     9946                %INIT_STR(STR=VM_OPTS_FMT, CODE=E_OPTS_FMT, TEST=YES, VECT="F_FDS.FMT_");

   9953 13 000615   000000 236000 xsym               LDQ     VM_OPTS_FMT
        13 000616   000033 772000                    QRL     27
        13 000617   000000 620006                    EAX0    0,QL
        13 000620   040000 106440                    CMPC    fill='040'O
        13 000621   000000 200010 xsym               ADSC9   VM_OPTS_FMT              cn=1,n=*X0
        13 000622   000000 000001 14                 ADSC9   0                        cn=0,n=1
        13 000623   000631 601000 13                 TNZ     s:9958

PL6.E3A0      #003=VMD$DI_SUBJECT File=VMD$DISPLAY.:VMB6TSI                      WED 08/20/97 15:09 Page:305
   9955 13 000624   000066 630400 14                 EPPR0   54
        13 000625   000001 631400 14                 EPPR1   1
        13 000626   000000 701000 xent               TSX1    VMD$ERRMSG
        13 000627   000000 011000                    NOP     0

   9956 13 000630   000662 710000 13                 TRA     s:9997

   9958 13 000631   000000 635010                    EAA     0,X0
        13 000632   000002 771000                    ARL     2
        13 000633   000140 135007                    SBLA    96,DL
        13 000634   000071 236000 14                 LDQ     57
        13 000635   000000 757000 11                 STAQ    F_FDS

     1662     9969    2       END;

   9969 13 000636   000662 710000 13                 TRA     s:9997

     1663     9970    1       ELSE
     1664     9971    2       DO;

     1665     9972    2           F_FDS.NVECS# = 2;

   9972 13 000637   000002 235007                    LDA     2,DL
        13 000640   000011 755000 11                 STA     F_FDS+9

     1666     9973                %INIT_STR(STR=VM_OPTS_FMT1, CODE=E_OPTS_FMT1, TEST=YES, VECT="F_FDS.FMT_");

   9980 13 000641   000000 236000 xsym               LDQ     VM_OPTS_FMT1
        13 000642   000033 772000                    QRL     27
        13 000643   000000 620006                    EAX0    0,QL
        13 000644   040000 106440                    CMPC    fill='040'O
        13 000645   000000 200010 xsym               ADSC9   VM_OPTS_FMT1             cn=1,n=*X0
        13 000646   000000 000001 14                 ADSC9   0                        cn=0,n=1
        13 000647   000655 601000 13                 TNZ     s:9985

   9982 13 000650   000072 630400 14                 EPPR0   58
        13 000651   000001 631400 14                 EPPR1   1
PL6.E3A0      #003=VMD$DI_SUBJECT File=VMD$DISPLAY.:VMB6TSI                      WED 08/20/97 15:09 Page:306
        13 000652   000000 701000 xent               TSX1    VMD$ERRMSG
        13 000653   000000 011000                    NOP     0

   9983 13 000654   000662 710000 13                 TRA     s:9997

   9985 13 000655   000000 635010                    EAA     0,X0
        13 000656   000002 771000                    ARL     2
        13 000657   000140 135007                    SBLA    96,DL
        13 000660   000075 236000 14                 LDQ     61
        13 000661   000000 757000 11                 STAQ    F_FDS

     1667     9996    2       END;

     1668     9997    1       CALL VMD$WRITE_BUF (F_FDS);

   9997 13 000662   000004 630400 14                 EPPR0   4
        13 000663   000064 631400 14                 EPPR1   52
        13 000664   000000 701000 xent               TSX1    VMD$WRITE_BUF
        13 000665   000000 011000                    NOP     0

     1669     9998    1       VECT_ARRAY(0) = vector(VN_YES_CHAR.NAME#);

   9998 13 000666   000000 236000 xsym               LDQ     VN_YES_CHAR
        13 000667   000033 772000                    QRL     27
        13 000670   000064 737000                    LLS     52
        13 000671   000140 135007                    SBLA    96,DL
        13 000672   000065 236000 14                 LDQ     53
        13 000673   000036 757000 11                 STAQ    VECT_ARRAY

     1670     9999    1       VECT_ARRAY(1) = vector(VN_YES_CHAR.NAME#);

   9999 13 000674   000000 236000 xsym               LDQ     VN_YES_CHAR
        13 000675   000033 772000                    QRL     27
        13 000676   000064 737000                    LLS     52
        13 000677   000140 135007                    SBLA    96,DL
        13 000700   000065 236000 14                 LDQ     53
        13 000701   000040 757000 11                 STAQ    VECT_ARRAY+2
PL6.E3A0      #003=VMD$DI_SUBJECT File=VMD$DISPLAY.:VMB6TSI                      WED 08/20/97 15:09 Page:307

     1671    10000    1       vbase(VECT_ARRAY(0)) = pincrc(VM_NO_OR_YES$( bitbin(VM_HEADER.STATUS.BROADCAST)
             10000                ),1);

  10000 13 000702   200003 470500                    LDP0    @VM_HEADER,,AUTO
        13 000703   000012 236100                    LDQ     10,,PR0
        13 000704   000022 772000                    QRL     18
        13 000705   000001 376007                    ANQ     1,DL
        13 000706   000000 236006 xsym               LDQ     VM_NO_OR_YES$,QL
        13 000707   200000 036007                    ADLQ    65536,DL
        13 000710   000037 756000 11                 STQ     VECT_ARRAY+1

     1672    10001    1      vbase(VECT_ARRAY(1)) = pincrc(VM_NO_OR_YES$( bitbin(VM_HEADER.STATUS.FCOPY) ),1)
             10001                ;

  10001 13 000711   000012 236100                    LDQ     10,,PR0
        13 000712   000031 772000                    QRL     25
        13 000713   000001 376007                    ANQ     1,DL
        13 000714   000000 236006 xsym               LDQ     VM_NO_OR_YES$,QL
        13 000715   200000 036007                    ADLQ    65536,DL
        13 000716   000041 756000 11                 STQ     VECT_ARRAY+3

     1673    10002    1       F_FDS.NVECS# = 2;

  10002 13 000717   000002 235007                    LDA     2,DL
        13 000720   000011 755000 11                 STA     F_FDS+9

     1674    10003            %INIT_STR(STR=VM_OPTS_FMT2, CODE=E_OPTS_FMT2, TEST=YES, VECT="F_FDS.FMT_");

  10010 13 000721   000000 236000 xsym               LDQ     VM_OPTS_FMT2
        13 000722   000033 772000                    QRL     27
        13 000723   000000 620006                    EAX0    0,QL
        13 000724   040000 106440                    CMPC    fill='040'O
        13 000725   000000 200010 xsym               ADSC9   VM_OPTS_FMT2             cn=1,n=*X0
        13 000726   000000 000001 14                 ADSC9   0                        cn=0,n=1
        13 000727   000735 601000 13                 TNZ     s:10015

PL6.E3A0      #003=VMD$DI_SUBJECT File=VMD$DISPLAY.:VMB6TSI                      WED 08/20/97 15:09 Page:308
  10012 13 000730   000076 630400 14                 EPPR0   62
        13 000731   000001 631400 14                 EPPR1   1
        13 000732   000000 701000 xent               TSX1    VMD$ERRMSG
        13 000733   000000 011000                    NOP     0

  10013 13 000734   000742 710000 13                 TRA     s:10026

  10015 13 000735   000000 635010                    EAA     0,X0
        13 000736   000002 771000                    ARL     2
        13 000737   000140 135007                    SBLA    96,DL
        13 000740   000101 236000 14                 LDQ     65
        13 000741   000000 757000 11                 STAQ    F_FDS

     1675    10026    1       CALL VMD$WRITE_BUF (F_FDS);

  10026 13 000742   000004 630400 14                 EPPR0   4
        13 000743   000064 631400 14                 EPPR1   52
        13 000744   000000 701000 xent               TSX1    VMD$WRITE_BUF
        13 000745   000000 011000                    NOP     0

     1676    10027    1       F_FDS.NVECS# = 1;

  10027 13 000746   000001 235007                    LDA     1,DL
        13 000747   000011 755000 11                 STA     F_FDS+9

     1677    10028    1       RETURN;

  10028 13 000750   000000 702200 xent               TSX2  ! X66_ARET

     1678    10029        %EJECT;
PL6.E3A0      #003=VMD$DI_SUBJECT File=VMD$DISPLAY.:VMB6TSI                      WED 08/20/97 15:09 Page:309
     1679    10030        /*F*
     1680    10031             NAME: VMD$DI_DR
     1681    10032             PURPOSE: To display the DELIVERY RECEIPT flag of the current message.
     1682    10033        */
     1683    10034    1   VMD$DI_DR: ENTRY (VM_HEADER,DCB#);

  10034 13 000751   000000 700200 xent  VMD$DI_DR    TSX0  ! X66_AUTO_2
        13 000752   000012 000002                    ZERO    10,2

     1684    10035
     1685    10036            %INIT_STR(STR=VM_DR_FMT, CODE=E_DR_FMT, TEST=YES, VECT="F_FDS.FMT_");

  10043 13 000753   000000 236000 xsym               LDQ     VM_DR_FMT
        13 000754   000033 772000                    QRL     27
        13 000755   000000 620006                    EAX0    0,QL
        13 000756   040000 106440                    CMPC    fill='040'O
        13 000757   000000 200010 xsym               ADSC9   VM_DR_FMT                cn=1,n=*X0
        13 000760   000000 000001 14                 ADSC9   0                        cn=0,n=1
        13 000761   000767 601000 13                 TNZ     s:10048

  10045 13 000762   000102 630400 14                 EPPR0   66
        13 000763   000001 631400 14                 EPPR1   1
        13 000764   000000 701000 xent               TSX1    VMD$ERRMSG
        13 000765   000000 011000                    NOP     0

  10046 13 000766   000774 710000 13                 TRA     s:10066

  10048 13 000767   000000 635010                    EAA     0,X0
        13 000770   000002 771000                    ARL     2
        13 000771   000140 135007                    SBLA    96,DL
        13 000772   000105 236000 14                 LDQ     69
        13 000773   000000 757000 11                 STAQ    F_FDS

     1686    10059            %INIT_STR(STR=VN_NO_CHAR, CODE=E_NO_CHAR, TEST=YES);

  10066 13 000774   000000 236000 xsym               LDQ     VN_NO_CHAR
        13 000775   000033 772000                    QRL     27
PL6.E3A0      #003=VMD$DI_SUBJECT File=VMD$DISPLAY.:VMB6TSI                      WED 08/20/97 15:09 Page:310
        13 000776   000000 620006                    EAX0    0,QL
        13 000777   040000 106440                    CMPC    fill='040'O
        13 001000   000000 200010 xsym               ADSC9   VN_NO_CHAR               cn=1,n=*X0
        13 001001   000000 000001 14                 ADSC9   0                        cn=0,n=1
        13 001002   001007 601000 13                 TNZ     s:10089

  10068 13 001003   000034 630400 14                 EPPR0   28
        13 001004   000033 631400 14                 EPPR1   27
        13 001005   000000 701000 xent               TSX1    VMD$ERRMSG
        13 001006   000000 011000                    NOP     0

     1687    10082            %INIT_STR(STR=VN_YES_CHAR, CODE=E_YES_CHAR, TEST=YES);

  10089 13 001007   000000 236000 xsym               LDQ     VN_YES_CHAR
        13 001010   000033 772000                    QRL     27
        13 001011   000000 620006                    EAX0    0,QL
        13 001012   040000 106440                    CMPC    fill='040'O
        13 001013   000000 200010 xsym               ADSC9   VN_YES_CHAR              cn=1,n=*X0
        13 001014   000000 000001 14                 ADSC9   0                        cn=0,n=1
        13 001015   001022 601000 13                 TNZ     s:10105

  10091 13 001016   000036 630400 14                 EPPR0   30
        13 001017   000033 631400 14                 EPPR1   27
        13 001020   000000 701000 xent               TSX1    VMD$ERRMSG
        13 001021   000000 011000                    NOP     0

     1688    10105    1       call DISPLAY_FIELD( VM_NO_OR_YES$( bitbin(VM_HEADER.STATUS.DR) ) );

  10105 13 001022   200003 470500                    LDP0    @VM_HEADER,,AUTO
        13 001023   000012 236100                    LDQ     10,,PR0
        13 001024   000024 772000                    QRL     20
        13 001025   000001 376007                    ANQ     1,DL
        13 001026   000000 631406 xsym               EPPR1   VM_NO_OR_YES$,QL
        13 001027   200007 451500                    STP1    @DCB#+3,,AUTO
        13 001030   001115 701000 13                 TSX1    DISPLAY_FIELD
        13 001031   000000 011000                    NOP     0

PL6.E3A0      #003=VMD$DI_SUBJECT File=VMD$DISPLAY.:VMB6TSI                      WED 08/20/97 15:09 Page:311
     1689    10106    1       return;

  10106 13 001032   000000 702200 xent               TSX2  ! X66_ARET

     1690    10107        %EJECT;
PL6.E3A0      #003=VMD$DI_SUBJECT File=VMD$DISPLAY.:VMB6TSI                      WED 08/20/97 15:09 Page:312
     1691    10108        /*F*
     1692    10109             NAME: VMD$DI_BROADCAST
     1693    10110             PURPOSE: To display the BROADCAST flag of the current message.
     1694    10111        */
     1695    10112    1   VMD$DI_BROADCAST: ENTRY (VM_HEADER,DCB#);

  10112 13 001033   000000 700200 xent  VMD$DI_BROA* TSX0  ! X66_AUTO_2
        13 001034   000012 000002                    ZERO    10,2

     1696    10113
     1697    10114            %INIT_STR(STR=VM_BROADCAST_FMT, CODE=E_BROADCAST_FMT, TEST=YES, VECT=
             10114                "F_FDS.FMT_");

  10121 13 001035   000000 236000 xsym               LDQ     VM_BROADCAST_FMT
        13 001036   000033 772000                    QRL     27
        13 001037   000000 620006                    EAX0    0,QL
        13 001040   040000 106440                    CMPC    fill='040'O
        13 001041   000000 200010 xsym               ADSC9   VM_BROADCAST_FMT         cn=1,n=*X0
        13 001042   000000 000001 14                 ADSC9   0                        cn=0,n=1
        13 001043   001051 601000 13                 TNZ     s:10126

  10123 13 001044   000106 630400 14                 EPPR0   70
        13 001045   000001 631400 14                 EPPR1   1
        13 001046   000000 701000 xent               TSX1    VMD$ERRMSG
        13 001047   000000 011000                    NOP     0

  10124 13 001050   001056 710000 13                 TRA     s:10144

  10126 13 001051   000000 635010                    EAA     0,X0
        13 001052   000002 771000                    ARL     2
        13 001053   000140 135007                    SBLA    96,DL
        13 001054   000111 236000 14                 LDQ     73
        13 001055   000000 757000 11                 STAQ    F_FDS

     1698    10137            %INIT_STR(STR=VN_NO_CHAR, CODE=E_NO_CHAR, TEST=YES);

  10144 13 001056   000000 236000 xsym               LDQ     VN_NO_CHAR
PL6.E3A0      #003=VMD$DI_SUBJECT File=VMD$DISPLAY.:VMB6TSI                      WED 08/20/97 15:09 Page:313
        13 001057   000033 772000                    QRL     27
        13 001060   000000 620006                    EAX0    0,QL
        13 001061   040000 106440                    CMPC    fill='040'O
        13 001062   000000 200010 xsym               ADSC9   VN_NO_CHAR               cn=1,n=*X0
        13 001063   000000 000001 14                 ADSC9   0                        cn=0,n=1
        13 001064   001071 601000 13                 TNZ     s:10167

  10146 13 001065   000034 630400 14                 EPPR0   28
        13 001066   000033 631400 14                 EPPR1   27
        13 001067   000000 701000 xent               TSX1    VMD$ERRMSG
        13 001070   000000 011000                    NOP     0

     1699    10160            %INIT_STR(STR=VN_YES_CHAR, CODE=E_YES_CHAR, TEST=YES);

  10167 13 001071   000000 236000 xsym               LDQ     VN_YES_CHAR
        13 001072   000033 772000                    QRL     27
        13 001073   000000 620006                    EAX0    0,QL
        13 001074   040000 106440                    CMPC    fill='040'O
        13 001075   000000 200010 xsym               ADSC9   VN_YES_CHAR              cn=1,n=*X0
        13 001076   000000 000001 14                 ADSC9   0                        cn=0,n=1
        13 001077   001104 601000 13                 TNZ     s:10183

  10169 13 001100   000036 630400 14                 EPPR0   30
        13 001101   000033 631400 14                 EPPR1   27
        13 001102   000000 701000 xent               TSX1    VMD$ERRMSG
        13 001103   000000 011000                    NOP     0

     1700    10183    1       call DISPLAY_FIELD( VM_NO_OR_YES$( bitbin(VM_HEADER.STATUS.BROADCAST) ) );

  10183 13 001104   200003 470500                    LDP0    @VM_HEADER,,AUTO
        13 001105   000012 236100                    LDQ     10,,PR0
        13 001106   000022 772000                    QRL     18
        13 001107   000001 376007                    ANQ     1,DL
        13 001110   000000 631406 xsym               EPPR1   VM_NO_OR_YES$,QL
        13 001111   200007 451500                    STP1    @DCB#+3,,AUTO
        13 001112   001115 701000 13                 TSX1    DISPLAY_FIELD
        13 001113   000000 011000                    NOP     0
PL6.E3A0      #003=VMD$DI_SUBJECT File=VMD$DISPLAY.:VMB6TSI                      WED 08/20/97 15:09 Page:314

     1701    10184    1       return;

  10184 13 001114   000000 702200 xent               TSX2  ! X66_ARET

     1702    10185        %EJECT;
PL6.E3A0      #003=VMD$DI_SUBJECT File=VMD$DISPLAY.:VMB6TSI                      WED 08/20/97 15:09 Page:315
     1703    10186    1   DISPLAY_FIELD: PROC (PTR$);

  10186 13 001115   200006 741300       DISPLAY_FIE* STX1  ! @DCB#+2,,AUTO

     1704    10187        /*
     1705    10188             ***** This routine does the hard work.
     1706    10189                   PTR$ points to the field to display.
     1707    10190                   Assume that F_FDS.FMT_ is setup ...
     1708    10191        */
     1709    10192    2   DCL PTR$ PTR;
     1710    10193        /**/
     1711    10194    2       IF PTR$ ~= ADDR(NIL)

  10194 13 001116   200007 470500                    LDP0    @PTR$,,AUTO
        13 001117   000000 236100                    LDQ     0,,PR0
        13 001120   000006 116000 14                 CMPQ    6
        13 001121   001137 600000 13                 TZE     s:10198

     1712    10195    2       THEN
     1713    10196    2           VECT_ARRAY(0) = VECTOR(PTR$ -> X$STRING.TEXT);

  10196 13 001122   000000 471500                    LDP1    0,,PR0
        13 001123   000100 101500                    MRL     fill='000'O
        13 001124   100000 000001                    ADSC9   0,,PR1                   cn=0,n=1
        13 001125   200010 000002                    ADSC9   @PTR$+1,,AUTO            cn=0,n=2
        13 001126   200010 220100                    LDX0    @PTR$+1,,AUTO
        13 001127   000000 635010                    EAA     0,X0
        13 001130   000002 771000                    ARL     2
        13 001131   000140 135007                    SBLA    96,DL
        13 001132   200011 451500                    STP1    @PTR$+2,,AUTO
        13 001133   200011 236100                    LDQ     @PTR$+2,,AUTO
        13 001134   200000 036007                    ADLQ    65536,DL
        13 001135   000036 757000 11                 STAQ    VECT_ARRAY
        13 001136   001141 710000 13                 TRA     s:10199

     1714    10197    2       ELSE
     1715    10198    2           VECT_ARRAY(0) = VECTOR(SPACE);
PL6.E3A0      #003=VMD$DI_SUBJECT File=VMD$DISPLAY.:VMB6TSI                      WED 08/20/97 15:09 Page:316

  10198 13 001137   000112 237000 14                 LDAQ    74
        13 001140   000036 757000 11                 STAQ    VECT_ARRAY

     1716    10199    2       F_FDS.DCB# = DCB#;

  10199 13 001141   200004 471500                    LDP1    @DCB#,,AUTO
        13 001142   100000 720100                    LXL0    0,,PR1
        13 001143   000013 740000 11                 STX0    F_FDS+11

     1717    10200    2       CALL VMD$WRITE_BUF (F_FDS);

  10200 13 001144   000004 630400 14                 EPPR0   4
        13 001145   000064 631400 14                 EPPR1   52
        13 001146   000000 701000 xent               TSX1    VMD$WRITE_BUF
        13 001147   000000 011000                    NOP     0

     1718    10201    2       RETURN;

  10201 13 001150   200006 221300                    LDX1  ! @DCB#+2,,AUTO
        13 001151   000001 702211                    TSX2  ! 1,X1

F_FDS
 Sect OctLoc
  11     000   000000 177640   000000 006014   000000 000000   000000 000000    ................
  11     004   000000 000000   000000 177640   000000 006014   000000 000001    ................
  11     010   000000 000000   000000 000001   000036 006000   000000 101500    ..............A.
  11     014   000000 000000   000000 000000   000000 000001   000000 000012    ................
  11     020   000000 000000   ****** ******   ****** ******   000000 000000    ................
  11     024   000000 000000   000000 000000   000000 000000   000000 006014    ................
  11     030   000000 006014   000000 006014   000000 006014   000000 000000    ................
  11     034   000000 000000   000000 000000                                    ........

VECT_ARRAY
 Sect OctLoc
  11     036   ****** ******   ****** ******   ****** ******   ****** ******    ................

PL6.E3A0      #003=VMD$DI_SUBJECT File=VMD$DISPLAY.:VMB6TSI                      WED 08/20/97 15:09 Page:317
SPACE
 Sect OctLoc
  12     000   040*** ******                                                     ...

(unnamed)
 Sect OctLoc
  14     000   040040 040040   000003 000000   000000 006000   000000 006000        ............
  14     004   000000 006000   000000 206000   000000 006014   000000 006000    ................
  14     010   000000 006000   000000 006000   000000 206000   000000 006000    ................
  14     030*  000000 006000   000000 006000   000000 206000   000002 000000    ................
  14     034   000000 006000   000000 006000   000000 006000   000000 006000    ................
  14     040   000000 006000   000000 006000   000000 006000   000000 206000    ................
  14     064*  000001 000000   000000 206000   000000 006000   000000 006000    ................
  14     070   000000 006000   000000 206000   000000 006000   000000 006000    ................
  14     110*  000000 006000   000000 206000   000000 177640   000000 006000    ................
     1719    10202    2   END DISPLAY_FIELD;
     1720    10203    1   END VMD$DI_SUBJECT;
     1721    10204        %EOD;

PL6.E3A0      #003=VMD$DI_SUBJECT File=VMD$DISPLAY.:VMB6TSI                      WED 08/20/97 15:09 Page:318
--  Include file information  --

   B_MACROS_C.:LIB_E05  is referenced.
   VM_DATA_R.:VMB6TOU  cannot be made into a system file and is referenced.
   VM_SUBS_C.:VMB6TOU  is referenced.
   VM_MACRO_C.:VMB6TOU  is referenced.
   CP_6_C.:LIB_E05  is referenced.
   CP_6.:LIB_E05  cannot be made into a system file and is referenced.
   XU_FORMAT_C.:LIB_E05  is referenced.
   CP_6_SUBS.:LIB_E05  is referenced.
      No diagnostics issued in procedure VMD$DI_SUBJECT.
PL6.E3A0      #003=VMD$DI_SUBJECT File=VMD$DISPLAY.:VMB6TSI                      WED 08/20/97 15:09 Page:319

 **** Variables and constants ****

  ****  Section 011  Data  VMD$DI_SUBJECT

  ****  Scalars and arrays  ****
OctLoc.c.b A Datatyp(siz) R M Lvl/name                 OctLoc.c.b A Datatyp(siz) R M Lvl/name

     0-0-0/w STRC(1080)  r     1 F_FDS
    36-0-0/d VECT        r     1 VECT_ARRAY(0:2)

  ****  Section 012 RoData VMD$DI_SUBJECT

  ****  Scalars and arrays  ****
OctLoc.c.b A Datatyp(siz) R M Lvl/name                 OctLoc.c.b A Datatyp(siz) R M Lvl/name

     0-0-0/c CHAR        r     1 SPACE

  ****  Auto variables  ****

  ****  Scalars and arrays  ****
OctLoc.c.b A Datatyp(siz) R M Lvl/name                 OctLoc.c.b A Datatyp(siz) R M Lvl/name

     4-0-0/w PTR         r     1 @DCB#                      7-0-0/w PTR         r     1 @PTR$
     3-0-0/w PTR         r     1 @VM_HEADER                *0-0-0/w UBIN        r     1 DCB#
    *0-0-0/w PTR         r     1 PTR$                      *0-0-0/w STRC(1332)  r     1 VM_HEADER

  ****  SYMREF variables  ****

  ****  Scalars and arrays  ****
OctLoc.c.b A Datatyp(siz) R M Lvl/name                 OctLoc.c.b A Datatyp(siz) R M Lvl/name

     0-0-0/w PTR               1 B$JIT$                     0-0-0/w PTR               1 B$TCB$
     0-0-0/c ASTR(9)     r     1 ERRMSG_FID                 0-0-0/w STRC        r     1 E_BLIND_COPY_FMT1
     0-0-0/w STRC        r     1 E_BROADCAST_FMT            0-0-0/w STRC        r     1 E_COPY_FMT1
     0-0-0/w STRC        r     1 E_DEFER_FMT                0-0-0/w STRC        r     1 E_DEFER_FMT1
     0-0-0/w STRC        r     1 E_DR_FMT                   0-0-0/w STRC        r     1 E_FCOPY_FMT
     0-0-0/w STRC        r     1 E_NO_CHAR                  0-0-0/w STRC        r     1 E_OPTS_FMT
PL6.E3A0      #003=VMD$DI_SUBJECT File=VMD$DISPLAY.:VMB6TSI                      WED 08/20/97 15:09 Page:320
     0-0-0/w STRC        r     1 E_OPTS_FMT1                0-0-0/w STRC        r     1 E_OPTS_FMT2
     0-0-0/w STRC        r     1 E_REFERENCE_FMT1           0-0-0/w STRC        r     1 E_RR_FMT
     0-0-0/w STRC        r     1 E_RTO_FMT                  0-0-0/w STRC        r     1 E_SIGNED_FMT
     0-0-0/w STRC        r     1 E_SUBJECT_FMT1             0-0-0/w STRC        r     1 E_TO_FMT
     0-0-0/w STRC        r     1 E_YES_CHAR                 0-0-0/w UBIN              1 M$DO_NUM
     0-0-0/w UBIN              1 M$LO_NUM                   0-0-0/w UBIN              1 M$MAIL_CENTRAL_NUM
     0-0-0/w UBIN              1 M$MAIL_COMGROUP_NUM        0-0-0/w UBIN              1 M$MAIL_FILE_NUM
     0-0-0/w UBIN              1 M$MAIL_GLOBAL_NUM          0-0-0/w UBIN              1 M$ME_NUM
     0-0-0/w UBIN              1 M$NODE_NUM                 0-0-0/w UBIN              1 M$SI_NUM
     0-0-0/w UBIN              1 M$WORK_NUM                 0-0-0/w PTR               1 VM_ADDLIST$
     0-0-0/d VECT              1 VM_ADDLIST_                0-0-0/w PTR               1 VM_ADDREC$
     0-0-0/d VECT              1 VM_ADDREC_                 0-0-0/c ASTR(9)     r     1 VM_BLIND_COPY_FMT1
     0-0-0/c ASTR(9)     r     1 VM_BROADCAST_FMT           0-0-0/w PTR               1 VM_COPY$
     0-0-0/d VECT              1 VM_COPY_                   0-0-0/c ASTR(9)     r     1 VM_COPY_FMT1
     0-0-0/c ASTR(9)     r     1 VM_DEFER_FMT               0-0-0/c ASTR(9)     r     1 VM_DEFER_FMT1
     0-0-0/c ASTR(9)     r     1 VM_DR_FMT                  0-0-0/w PTR               1 VM_ENCLLIST$
     0-0-0/d VECT              1 VM_ENCLLIST_               0-0-0/w PTR               1 VM_ENCLREC$
     0-0-0/d VECT              1 VM_ENCLREC_                0-0-0/c ASTR(9)     r     1 VM_FCOPY_FMT
     0-0-0/c STRC(270)         1 VM_FORWARD_ENCL_NAME       0-0-0/c STRC(270)         1 VM_FORWARD_FILE_NAME
     0-0-0/c STRC(72)          1 VM_FORWARD_FILE_PASS       0-0-0/w PTR               1 VM_HEADER$
     0-0-0/d VECT              1 VM_HEADER_                 0-0-0/d VECT              1 VM_HEADER_INIT_
     0-0-0/w PTR               1 VM_INPUT$                  0-0-0/d VECT              1 VM_INPUT_
     0-0-0/c STRC(72)          1 VM_MAILCG_NAME             0-0-0/w STRC(432)         1 VM_MAILCG_SETSTA
     0-0-0/c STRC(72)          1 VM_MAIL_ACCT               0-0-0/c STRC(54)          1 VM_NAME_MAP_NAME
     0-0-0/w PTR         r     1 VM_NO_OR_YES$(0:1)
     0-0-0/c ASTR(9)     r     1 VM_OPTS_FMT                0-0-0/c ASTR(9)     r     1 VM_OPTS_FMT1
     0-0-0/c ASTR(9)     r     1 VM_OPTS_FMT2               0-0-0/w PTR               1 VM_PARSEAREA$
     0-0-0/d VECT              1 VM_PARSEAREA_              0-0-0/w PTR               1 VM_PROFILE$
     0-0-0/d VECT              1 VM_PROFILE_                0-0-0/c ASTR(9)     r     1 VM_REFERENCE_FMT1
     0-0-0/c ASTR(9)     r     1 VM_RR_FMT                  0-0-0/c ASTR(9)     r     1 VM_RTO_FMT
     0-0-0/w PTR               1 VM_SELECT$                 0-0-0/d VECT              1 VM_SELECT_
     0-0-0/c STRC(288)         1 VM_SEND_FILE_NAME          0-0-0/c ASTR(9)     r     1 VM_SIGNED_FMT
     0-0-0/c CHAR(8)           1 VM_SITENAME                0-0-0/c ASTR(9)     r     1 VM_SUBJECT_FMT1
     0-0-0/c ASTR(9)     r     1 VM_TO_FMT                  0-0-0/w PTR               1 VM_WORK$
     0-0-0/d VECT              1 VM_WORK_                   0-0-0/c ASTR(9)     r     1 VN_NO_CHAR
     0-0-0/c ASTR(9)     r     1 VN_YES_CHAR

PL6.E3A0      #003=VMD$DI_SUBJECT File=VMD$DISPLAY.:VMB6TSI                      WED 08/20/97 15:09 Page:321
  ****  BASED and DCB variables  ****

  ****  Scalars and arrays  ****
OctLoc.c.b A Datatyp(siz) R M Lvl/name                 OctLoc.c.b A Datatyp(siz) R M Lvl/name

     0-0-0/w SBIN              1 BSD                        0-0-0N  NULL        r     1 M$DO
     0-0-0N  NULL        r     1 M$LO                       0-0-0N  NULL        r     1 M$MAIL_CENTRAL
     0-0-0N  NULL        r     1 M$MAIL_COMGROUP            0-0-0N  NULL        r     1 M$MAIL_FILE
     0-0-0N  NULL        r     1 M$MAIL_GLOBAL              0-0-0N  NULL        r     1 M$ME
     0-0-0N  NULL        r     1 M$NODE                     0-0-0N  NULL        r     1 M$SI
     0-0-0N  NULL        r     1 M$UC                       0-0-0N  NULL        r     1 M$WORK
     0-0-0/c ASTR(9)     r     1 X$STRING


   Procedure VMD$DI_SUBJECT requires 618 words for executable code.
   Procedure VMD$DI_SUBJECT requires 10 words of local(AUTO) storage.
PL6.E3A0      #003=VMD$DI_SUBJECT File=VMD$DISPLAY.:VMB6TSI                      WED 08/20/97 15:09 Page:322
          *** CROSS REFERENCE LISTING ***
**     DENOTES     IDENTIFIER DEFINITION
<<                 IDENTIFIER'S VALUE SET
>>                 IDENTIFIER'S VALUE USED
<>                 IDENTIFIER SET AND/OR USED
--                 IDENTIFIER REFERENCED
PL6.E3A0      #003=VMD$DI_SUBJECT File=VMD$DISPLAY.:VMB6TSI                      WED 08/20/97 15:09 Page:323
          MINI XREF LISTING

DCB#
      8365**DCL        12--PROC     9491--ENTRY    9522--ENTRY    9553--ENTRY    9584--ENTRY    9615--ENTRY
      9692--ENTRY    9723--ENTRY    9800--ENTRY    9831--ENTRY    9832>>ASSIGN   9890--ENTRY    9891>>ASSIGN
     10034--ENTRY   10112--ENTRY   10199>>ASSIGN
DISPLAY_FIELD
     10186**PROC     9483--CALL     9484--CALL     9515--CALL     9546--CALL     9577--CALL     9608--CALL
      9685--CALL     9716--CALL     9793--CALL     9824--CALL    10105--CALL    10183--CALL
ERRMSG_FID.L#
      8080**DCL      8080--IMP-SIZ
E_BLIND_COPY_FMT1
      8763**DCL      9563<>CALL
E_BROADCAST_FMT
      9303**DCL     10123<>CALL
E_COPY_FMT1
      8718**DCL      9532<>CALL
E_DEFER_FMT
      9033**DCL      9845<>CALL
E_DEFER_FMT1
      9078**DCL      9869<>CALL
E_DR_FMT
      9258**DCL     10045<>CALL
E_FCOPY_FMT
      8853**DCL      9625<>CALL
E_NO_CHAR
      9348**DCL      9648<>CALL     9756<>CALL     9901<>CALL    10068<>CALL    10146<>CALL
E_OPTS_FMT
      9123**DCL      9955<>CALL
E_OPTS_FMT1
      9168**DCL      9982<>CALL
E_OPTS_FMT2
      9213**DCL     10012<>CALL
E_REFERENCE_FMT1
PL6.E3A0      #003=VMD$DI_SUBJECT File=VMD$DISPLAY.:VMB6TSI                      WED 08/20/97 15:09 Page:324
      8673**DCL      9594<>CALL
E_RR_FMT
      8943**DCL      9733<>CALL
E_RTO_FMT
      8988**DCL      9810<>CALL
E_SIGNED_FMT
      8898**DCL      9702<>CALL
E_SUBJECT_FMT1
      8628**DCL      9468<>CALL
E_TO_FMT
      8808**DCL      9501<>CALL
E_YES_CHAR
      9393**DCL      9671<>CALL     9779<>CALL     9924<>CALL    10091<>CALL    10169<>CALL
F_FDS
      8382**DCL      9883<>CALL     9997<>CALL    10026<>CALL    10200<>CALL
F_FDS.DCB#
      8415**DCL      9832<<ASSIGN   9891<<ASSIGN  10199<<ASSIGN
F_FDS.FMT_
      8386**DCL      9468<>CALL     9471<<ASSIGN   9501<>CALL     9504<<ASSIGN   9532<>CALL     9535<<ASSIGN
      9563<>CALL     9566<<ASSIGN   9594<>CALL     9597<<ASSIGN   9625<>CALL     9628<<ASSIGN   9702<>CALL
      9705<<ASSIGN   9733<>CALL     9736<<ASSIGN   9810<>CALL     9813<<ASSIGN   9845<>CALL     9848<<ASSIGN
      9869<>CALL     9872<<ASSIGN   9955<>CALL     9958<<ASSIGN   9982<>CALL     9985<<ASSIGN  10012<>CALL
     10015<<ASSIGN  10045<>CALL    10048<<ASSIGN  10123<>CALL    10126<<ASSIGN
F_FDS.NVECS#
      8410**DCL      9945<<ASSIGN   9972<<ASSIGN  10002<<ASSIGN  10027<<ASSIGN
PTR$ IN PROCEDURE DISPLAY_FIELD
     10192**DCL     10186--PROC    10194>>IF      10196>>ASSIGN  10196>>ASSIGN
SPACE
      9430**DCL     10198--ASSIGN
VECT_ARRAY
      8482**DCL      8412--DCLINIT  9833<<ASSIGN   9938<<ASSIGN   9939<<ASSIGN   9940<<ASSIGN   9941<<ASSIGN
      9944<<ASSIGN   9998<<ASSIGN   9999<<ASSIGN  10000<<ASSIGN  10001<<ASSIGN  10196<<ASSIGN  10198<<ASSIGN
VMD$ERRMSG
      9436**DCL-ENT  9468--CALL     9501--CALL     9532--CALL     9563--CALL     9594--CALL     9625--CALL
      9648--CALL     9671--CALL     9702--CALL     9733--CALL     9756--CALL     9779--CALL     9810--CALL
      9845--CALL     9869--CALL     9901--CALL     9924--CALL     9955--CALL     9982--CALL    10012--CALL
PL6.E3A0      #003=VMD$DI_SUBJECT File=VMD$DISPLAY.:VMB6TSI                      WED 08/20/97 15:09 Page:325
     10045--CALL    10068--CALL    10091--CALL    10123--CALL    10146--CALL    10169--CALL
VMD$WRITE_BUF
      9432**DCL-ENT  9883--CALL     9997--CALL    10026--CALL    10200--CALL
VM_BLIND_COPY_FMT1
      8515**DCL      9563<>CALL
VM_BLIND_COPY_FMT1.L#
      8515**DCL      8515--IMP-SIZ  9561>>IF       9563>>CALL     9566>>ASSIGN   9566>>ASSIGN
VM_BLIND_COPY_FMT1.NAME#
      8515**DCL      9561>>IF       9566--ASSIGN
VM_BROADCAST_FMT
      8599**DCL     10123<>CALL
VM_BROADCAST_FMT.L#
      8599**DCL      8599--IMP-SIZ 10121>>IF      10123>>CALL    10126>>ASSIGN  10126>>ASSIGN
VM_BROADCAST_FMT.NAME#
      8599**DCL     10121>>IF      10126--ASSIGN
VM_COPY_FMT1
      8508**DCL      9532<>CALL
VM_COPY_FMT1.L#
      8508**DCL      8508--IMP-SIZ  9530>>IF       9532>>CALL     9535>>ASSIGN   9535>>ASSIGN
VM_COPY_FMT1.NAME#
      8508**DCL      9530>>IF       9535--ASSIGN
VM_DEFER_FMT
      8557**DCL      9845<>CALL
VM_DEFER_FMT.L#
      8557**DCL      8557--IMP-SIZ  9843>>IF       9845>>CALL     9848>>ASSIGN   9848>>ASSIGN
VM_DEFER_FMT.NAME#
      8557**DCL      9843>>IF       9848--ASSIGN
VM_DEFER_FMT1
      8564**DCL      9869<>CALL
VM_DEFER_FMT1.L#
      8564**DCL      8564--IMP-SIZ  9867>>IF       9869>>CALL     9872>>ASSIGN   9872>>ASSIGN
VM_DEFER_FMT1.NAME#
      8564**DCL      9867>>IF       9872--ASSIGN
VM_DR_FMT
      8592**DCL     10045<>CALL
VM_DR_FMT.L#
PL6.E3A0      #003=VMD$DI_SUBJECT File=VMD$DISPLAY.:VMB6TSI                      WED 08/20/97 15:09 Page:326
      8592**DCL      8592--IMP-SIZ 10043>>IF      10045>>CALL    10048>>ASSIGN  10048>>ASSIGN
VM_DR_FMT.NAME#
      8592**DCL     10043>>IF      10048--ASSIGN
VM_FCOPY_FMT
      8529**DCL      9625<>CALL
VM_FCOPY_FMT.L#
      8529**DCL      8529--IMP-SIZ  9623>>IF       9625>>CALL     9628>>ASSIGN   9628>>ASSIGN
VM_FCOPY_FMT.NAME#
      8529**DCL      9623>>IF       9628--ASSIGN
VM_HEADER
      8246**DCL        12--PROC     9491--ENTRY    9522--ENTRY    9553--ENTRY    9584--ENTRY    9615--ENTRY
      9692--ENTRY    9723--ENTRY    9800--ENTRY    9831--ENTRY    9890--ENTRY   10034--ENTRY   10112--ENTRY
VM_HEADER.BLIND$
      8332**DCL      9577<>CALL
VM_HEADER.COPY$
      8334**DCL      9546<>CALL
VM_HEADER.DELIVERY_DATE
      8251**DCL      9833--ASSIGN   9834>>IF       9942>>IF       9944--ASSIGN
VM_HEADER.REFERENCE$
      8340**DCL      9484<>CALL     9608<>CALL
VM_HEADER.REPLY_TO$
      8342**DCL      9824<>CALL
VM_HEADER.SIGNED$
      8346**DCL      9716<>CALL
VM_HEADER.STATUS.BROADCAST
      8297**DCL     10000>>ASSIGN  10183>>CALL
VM_HEADER.STATUS.DR
      8293**DCL      9940>>ASSIGN  10105>>CALL
VM_HEADER.STATUS.FCOPY
      8283**DCL      9685>>CALL    10001>>ASSIGN
VM_HEADER.STATUS.RR
      8269**DCL      9793>>CALL     9941>>ASSIGN
VM_HEADER.SUBJECT$
      8348**DCL      9482>>IF       9483<>CALL
VM_HEADER.TO$
      8350**DCL      9515<>CALL
PL6.E3A0      #003=VMD$DI_SUBJECT File=VMD$DISPLAY.:VMB6TSI                      WED 08/20/97 15:09 Page:327
VM_NO_OR_YES$
      8484**DCL      9685<>CALL     9793<>CALL     9940>>ASSIGN   9941>>ASSIGN  10000>>ASSIGN  10001>>ASSIGN
     10105<>CALL    10183<>CALL
VM_OPTS_FMT
      8571**DCL      9955<>CALL
VM_OPTS_FMT.L#
      8571**DCL      8571--IMP-SIZ  9953>>IF       9955>>CALL     9958>>ASSIGN   9958>>ASSIGN
VM_OPTS_FMT.NAME#
      8571**DCL      9953>>IF       9958--ASSIGN
VM_OPTS_FMT1
      8578**DCL      9982<>CALL
VM_OPTS_FMT1.L#
      8578**DCL      8578--IMP-SIZ  9980>>IF       9982>>CALL     9985>>ASSIGN   9985>>ASSIGN
VM_OPTS_FMT1.NAME#
      8578**DCL      9980>>IF       9985--ASSIGN
VM_OPTS_FMT2
      8585**DCL     10012<>CALL
VM_OPTS_FMT2.L#
      8585**DCL      8585--IMP-SIZ 10010>>IF      10012>>CALL    10015>>ASSIGN  10015>>ASSIGN
VM_OPTS_FMT2.NAME#
      8585**DCL     10010>>IF      10015--ASSIGN
VM_REFERENCE_FMT1
      8501**DCL      9594<>CALL
VM_REFERENCE_FMT1.L#
      8501**DCL      8501--IMP-SIZ  9592>>IF       9594>>CALL     9597>>ASSIGN   9597>>ASSIGN
VM_REFERENCE_FMT1.NAME#
      8501**DCL      9592>>IF       9597--ASSIGN
VM_RR_FMT
      8543**DCL      9733<>CALL
VM_RR_FMT.L#
      8543**DCL      8543--IMP-SIZ  9731>>IF       9733>>CALL     9736>>ASSIGN   9736>>ASSIGN
VM_RR_FMT.NAME#
      8543**DCL      9731>>IF       9736--ASSIGN
VM_RTO_FMT
      8550**DCL      9810<>CALL
VM_RTO_FMT.L#
PL6.E3A0      #003=VMD$DI_SUBJECT File=VMD$DISPLAY.:VMB6TSI                      WED 08/20/97 15:09 Page:328
      8550**DCL      8550--IMP-SIZ  9808>>IF       9810>>CALL     9813>>ASSIGN   9813>>ASSIGN
VM_RTO_FMT.NAME#
      8550**DCL      9808>>IF       9813--ASSIGN
VM_SIGNED_FMT
      8536**DCL      9702<>CALL
VM_SIGNED_FMT.L#
      8536**DCL      8536--IMP-SIZ  9700>>IF       9702>>CALL     9705>>ASSIGN   9705>>ASSIGN
VM_SIGNED_FMT.NAME#
      8536**DCL      9700>>IF       9705--ASSIGN
VM_SUBJECT_FMT1
      8494**DCL      9468<>CALL
VM_SUBJECT_FMT1.L#
      8494**DCL      8494--IMP-SIZ  9466>>IF       9468>>CALL     9471>>ASSIGN   9471>>ASSIGN
VM_SUBJECT_FMT1.NAME#
      8494**DCL      9466>>IF       9471--ASSIGN
VM_TO_FMT
      8522**DCL      9501<>CALL
VM_TO_FMT.L#
      8522**DCL      8522--IMP-SIZ  9499>>IF       9501>>CALL     9504>>ASSIGN   9504>>ASSIGN
VM_TO_FMT.NAME#
      8522**DCL      9499>>IF       9504--ASSIGN
VN_NO_CHAR
      8606**DCL      9648<>CALL     9756<>CALL     9901<>CALL    10068<>CALL    10146<>CALL
VN_NO_CHAR.L#
      8606**DCL      8606--IMP-SIZ  9646>>IF       9648>>CALL     9754>>IF       9756>>CALL     9899>>IF
      9901>>CALL    10066>>IF      10068>>CALL    10144>>IF      10146>>CALL
VN_NO_CHAR.NAME#
      8606**DCL      9646>>IF       9754>>IF       9899>>IF      10066>>IF      10144>>IF
VN_YES_CHAR
      8613**DCL      9671<>CALL     9779<>CALL     9924<>CALL    10091<>CALL    10169<>CALL
VN_YES_CHAR.L#
      8613**DCL      8613--IMP-SIZ  9669>>IF       9671>>CALL     9777>>IF       9779>>CALL     9922>>IF
      9924>>CALL     9938>>ASSIGN   9939>>ASSIGN   9998>>ASSIGN   9999>>ASSIGN  10089>>IF      10091>>CALL
     10167>>IF      10169>>CALL
VN_YES_CHAR.NAME#
      8613**DCL      9669>>IF       9777>>IF       9922>>IF       9938--ASSIGN   9939--ASSIGN   9998--ASSIGN
PL6.E3A0      #003=VMD$DI_SUBJECT File=VMD$DISPLAY.:VMB6TSI                      WED 08/20/97 15:09 Page:329
      9999--ASSIGN  10089>>IF      10167>>IF
X$STRING.SIZ
      7926**DCL      7927--IMP-SIZ 10196>>ASSIGN
X$STRING.TEXT
      7927**DCL     10196--ASSIGN

PL6.E3A0      #004=VMD$WRITE_BUF File=VMD$DISPLAY.:VMB6TSI                       WED 08/20/97 15:10 Page:330
     1722        1        /*T***********************************************************/
     1723        2        /*T*                                                         */
     1724        3        /*T* Copyright (c) Bull HN Information Systems Inc., 1997    */
     1725        4        /*T*                                                         */
     1726        5        /*T***********************************************************/
     1727        6        /*X* DMC,PLM=4,IND=4,CTI=2,DTI=0,ENI=0,ECI=0,CSI=0,DCI=4 */
     1728        7        /*P*
     1729        8            NAME: VMD$WRITE_BUF
     1730        9            PURPOSE:
     1731       10                  To perform the write for all calls to X$FORMAT.
     1732       11            DESCRIPTION:
     1733       12                  Primary function is to catch and report errors.
     1734       13        */
     1735       14        VMD$WRITE_BUF: PROC (F_FDS);
     1736       15        /***** Include files *****/
     1737       16        %INCLUDE CP_6;
     1738     5575        %INCLUDE CP_6_SUBS;
     1739     6115        %INCLUDE XU_FORMAT_C;
     1740     6277        %INCLUDE VM_DATA_R;
     1741     6708        /***** Parameters *****/
     1742     6709        %F_FDS (STCLASS=" ");
     1743     6822        /***** Fpts *****/
     1744     6823              %FPT_WRITE (FPTN=WRITE_BUF,STCLASS=STATIC);
     1745     6854        %F$DCB;
     1746     6911        /***** Local variables *****/
     1747     6912    1   DCL DISPLAY_BUF CHAR(512) STATIC;
     1748     6913    1   DCL HOLD_DCB# UBIN WORD STATIC;
     1749     6914    1   DCL TRUNCATE BIT (1);
     1750     6915    1   DCL WIDTH UBIN;
     1751     6916        /***** Based structures *****/
     1752     6917        %B$TCB (STCLASS="BASED(B$TCB$)");
     1753     6920        %B$ALT;
     1754     6928        /***** External routines *****/
     1755     6929    1   DCL X$FORMAT ENTRY(1);
     1756     6930    1   DCL VMA$ERRMSG ENTRY(5);
     1757     6931        %EJECT;
PL6.E3A0      #004=VMD$WRITE_BUF File=VMD$DISPLAY.:VMB6TSI                       WED 08/20/97 15:10 Page:331
     1758     6932    1       TRUNCATE = %NO#;
     1759     6933    1       GOTO FORMATTER;
     1760     6934
     1761     6935    1   VMD$WRITE_BUF_TRUNCATED: ENTRY (F_FDS);
     1762     6936
     1763     6937        /*D*  ENTRY:   VMD$WRITE_BUF_TRUNCATED
     1764     6938              DESCRIPTION: Identical to VMD$WRITE_BUF, save that if the output buffer
     1765     6939                 string is longer than the width of the output DCB's platen it is
     1766     6940                 truncated.
     1767     6941        */
     1768     6942
     1769     6943    1       TRUNCATE = %YES#;
     1770     6944
     1771     6945    1   FORMATTER:
     1772     6946
     1773     6947    1       IF DCBADDR(F_FDS.DCB#) -> F$DCB.WIDTH# > 0
     1774     6948    1       THEN
     1775     6949    1           WIDTH = MINIMUM(MAXIMUM(DCBADDR(F_FDS.DCB#) -> F$DCB.WIDTH#, 40),
     1776     6950    1             LENGTHC(DISPLAY_BUF));
     1777     6951    1       ELSE
     1778     6952    1           WIDTH = 255;
     1779     6953        /*
     1780     6954             ***** Remember the DCB# to write thru.
     1781     6955                   Do not let X$FORMAT do the write ...
     1782     6956        */
     1783     6957    1       HOLD_DCB# = F_FDS.DCB#;
     1784     6958    1       F_FDS.DCB# = 0;
     1785     6959        /*
     1786     6960             ***** Format the buffer ...
     1787     6961        */
     1788     6962    1       F_FDS.BUF_ = VECTOR(DISPLAY_BUF);
     1789     6963    1       CALL X$FORMAT (F_FDS);
     1790     6964        /*
     1791     6965             ***** Strip vfc ???
     1792     6966        */
     1793     6967    1       IF SUBSTR (DISPLAY_BUF,0,1) = 'A'
     1794     6968    2       THEN DO;
PL6.E3A0      #004=VMD$WRITE_BUF File=VMD$DISPLAY.:VMB6TSI                       WED 08/20/97 15:10 Page:332
     1795     6969    2           F_FDS.BUFX = F_FDS.BUFX - 1;
     1796     6970    2           WRITE_BUF.BUF_ = VECTOR(SUBSTR(DISPLAY_BUF,1,F_FDS.BUFX));
     1797     6971    2           WRITE_BUF.V.DVBYTE.VFC# = %NO#;
     1798     6972    2       END;
     1799     6973    2       ELSE DO;
     1800     6974    2           WIDTH = WIDTH + 1; /* allow for VFC */
     1801     6975    2           WRITE_BUF.BUF_ = VECTOR(SUBSTR(DISPLAY_BUF,0,F_FDS.BUFX));
     1802     6976    2           WRITE_BUF.V.DVBYTE.VFC# = %YES#;
     1803     6977    2       END;
     1804     6978        /*
     1805     6979             ***** If the buffer is to be truncated to the output device's width,
     1806     6980                   then clip the size in the fds appropriately.
     1807     6981        */
     1808     6982    1       IF TRUNCATE AND F_FDS.BUFX > WIDTH
     1809     6983    1       THEN
     1810     6984    1           WRITE_BUF.BUF_.BOUND = WIDTH - 1;
     1811     6985        /*
     1812     6986             ***** Write the buffer ...
     1813     6987        */
     1814     6988    1       WRITE_BUF.V.DCB# = HOLD_DCB#;
     1815     6989    1       F_FDS.DCB# = HOLD_DCB#;           /* Replace the DCB# for later use */
     1816     6990    1       CALL M$WRITE (WRITE_BUF) ALTRET(E_WRITE);
     1817     6991    1       RETURN;
     1818     6992        /**/
     1819     6993    1   E_WRITE:
     1820     6994    1       CALL VMA$ERRMSG (B$TCB.ALT$->B$ALT.ERR, B$TCB.ALT$->B$ALT.DCB#);
     1821     6995    1       RETURN;
     1822     6996    1   END VMD$WRITE_BUF;

PL6.E3A0      #004=VMD$WRITE_BUF File=VMD$DISPLAY.:VMB6TSI                       WED 08/20/97 15:10 Page:333
--  Include file information  --

   B_MACROS_C.:LIB_E05  is referenced.
   VM_DATA_R.:VMB6TOU  cannot be made into a system file and is referenced.
   XU_FORMAT_C.:LIB_E05  is referenced.
   CP_6_SUBS.:LIB_E05  is referenced.
   CP_6_C.:LIB_E05  is referenced.
   CP_6.:LIB_E05  cannot be made into a system file and is referenced.
      No diagnostics issued in procedure VMD$WRITE_BUF.

   Procedure VMD$WRITE_BUF requires 100 words for executable code.
   Procedure VMD$WRITE_BUF requires 8 words of local(AUTO) storage.

    No errors detected in file VMD$DISPLAY.:VMB6TSI    .

PL6.E3A0      #004=VMD$WRITE_BUF File=VMD$DISPLAY.:VMB6TSI                       WED 08/20/97 15:10 Page:334

 Object Unit name= VMD$WRITE_BUF                              File name= VMD$DISPLAY.:VMB6TOU
 UTS= AUG 20 '97 15:10:07.72 WED                              Compiler= PL-6/E31         Sev=      00
 SharedLib= :SHARED_SYSTEM                                    Alt SharedLib=


    ****  Control sections  ****

 Sect   Type Bound  Init  Size OctSiz  Section name(segment info)
    0   DCB   even  none     0      0  M$UC
    1   DCB   even  none     0      0  M$MAIL_FILE
    2   DCB   even  none     0      0  M$MAIL_CENTRAL
    3   DCB   even  none     0      0  M$MAIL_GLOBAL
    4   DCB   even  none     0      0  M$WORK
    5   DCB   even  none     0      0  M$MAIL_COMGROUP
    6   DCB   even  none     0      0  M$DO
    7   DCB   even  none     0      0  M$LO
    8   DCB   even  none     0      0  M$ME
    9   DCB   even  none     0      0  M$NODE
   10   DCB   even  none     0      0  M$SI
   11   Data  even  none   141    215  VMD$WRITE_BUF
   12   Proc  even  none   100    144  VMD$WRITE_BUF
   13  RoData even  none     9     11  VMD$WRITE_BUF

    ****  Entry defs  ****

                              Check   Calling
                             calling  sequence
  Sect OctLoc Primary Altret sequence   type   Parms  Name
    12      0   yes            yes      Std        1  VMD$WRITE_BUF
    12      4                  yes      Std        1  VMD$WRITE_BUF_TRUNCATED
PL6.E3A0      #004=VMD$WRITE_BUF File=VMD$DISPLAY.:VMB6TSI                       WED 08/20/97 15:10 Page:335

  ****  Entry refs  ****

         Check        Calling
        calling       sequence
Altret sequence SRef   type   Args  Name
         yes           Std       1 X$FORMAT
         yes           Std       5 VMA$ERRMSG
                       nStd      0 X66_AUTO_1
                       nStd      0 X66_ARET

  ****  Data refs  ****

  Flags:  r = read only, s = secondary
Flgs Name                             Flgs Name                             Flgs Name
     M$UC                             r    VM_HEADER$                       r    VM_PROFILE$
r    VM_ADDLIST$                      r    VM_ADDREC$                       r    VM_WORK$
r    VM_SELECT$                       r    VM_PARSEAREA$                    r    VM_INPUT$
r    VM_COPY$                              VM_ENCLLIST$                          VM_ENCLREC$
     VM_HEADER_                            VM_HEADER_INIT_                       VM_PROFILE_
     VM_ADDLIST_                           VM_ADDREC_                            VM_WORK_
     VM_SELECT_                            VM_PARSEAREA_                         VM_INPUT_
     VM_COPY_                              VM_ENCLLIST_                          VM_ENCLREC_
     M$MAIL_FILE                           M$MAIL_CENTRAL                        M$MAIL_GLOBAL
     M$WORK                                M$MAIL_COMGROUP                       M$DO
     M$LO                                  M$ME                                  M$NODE
     M$SI                                  M$MAIL_FILE_NUM                       M$MAIL_CENTRAL_NUM
     M$MAIL_GLOBAL_NUM                     M$WORK_NUM                            M$MAIL_COMGROUP_NUM
     M$DO_NUM                              M$ME_NUM                              M$LO_NUM
     M$SI_NUM                              M$NODE_NUM                       r    B$JIT$
r    B$TCB$                                VM_MAIL_ACCT                          VM_NAME_MAP_NAME
     ERRMSG_FID                            VM_SEND_FILE_NAME                     VM_FORWARD_FILE_NAME
     VM_FORWARD_ENCL_NAME                  VM_FORWARD_FILE_PASS                  VM_MAILCG_NAME
     VM_SITENAME                           VM_MAILCG_SETSTA
PL6.E3A0      #004=VMD$WRITE_BUF File=VMD$DISPLAY.:VMB6TSI                       WED 08/20/97 15:10 Page:336

  ****  Segment refs  ****

  Flags:  r = read only, s = secondary
Flgs Name                             Flgs Name                             Flgs Name
     ISSID                                 NULLSID                               ROSID
PL6.E3A0      #004=VMD$WRITE_BUF File=VMD$DISPLAY.:VMB6TSI                       WED 08/20/97 15:10 Page:337


     1722        1        /*T***********************************************************/
     1723        2        /*T*                                                         */
     1724        3        /*T* Copyright (c) Bull HN Information Systems Inc., 1997    */
     1725        4        /*T*                                                         */
     1726        5        /*T***********************************************************/
     1727        6        /*X* DMC,PLM=4,IND=4,CTI=2,DTI=0,ENI=0,ECI=0,CSI=0,DCI=4 */
     1728        7        /*P*
     1729        8            NAME: VMD$WRITE_BUF
     1730        9            PURPOSE:
     1731       10                  To perform the write for all calls to X$FORMAT.
     1732       11            DESCRIPTION:
     1733       12                  Primary function is to catch and report errors.
     1734       13        */
     1735       14        VMD$WRITE_BUF: PROC (F_FDS);

     14 12 000000   000000 700200 xent  VMD$WRITE_B* TSX0  ! X66_AUTO_1
        12 000001   000010 000001                    ZERO    8,1

     1736       15        /***** Include files *****/
     1737       16        %INCLUDE CP_6;
     1738     5575        %INCLUDE CP_6_SUBS;
     1739     6115        %INCLUDE XU_FORMAT_C;
     1740     6277        %INCLUDE VM_DATA_R;
     1741     6708        /***** Parameters *****/
     1742     6709        %F_FDS (STCLASS=" ");
     1743     6822        /***** Fpts *****/
     1744     6823              %FPT_WRITE (FPTN=WRITE_BUF,STCLASS=STATIC);
     1745     6854        %F$DCB;
     1746     6911        /***** Local variables *****/
     1747     6912    1   DCL DISPLAY_BUF CHAR(512) STATIC;
     1748     6913    1   DCL HOLD_DCB# UBIN WORD STATIC;
     1749     6914    1   DCL TRUNCATE BIT (1);
     1750     6915    1   DCL WIDTH UBIN;
     1751     6916        /***** Based structures *****/
     1752     6917        %B$TCB (STCLASS="BASED(B$TCB$)");
     1753     6920        %B$ALT;
PL6.E3A0      #004=VMD$WRITE_BUF File=VMD$DISPLAY.:VMB6TSI                       WED 08/20/97 15:10 Page:338
     1754     6928        /***** External routines *****/
     1755     6929    1   DCL X$FORMAT ENTRY(1);
     1756     6930    1   DCL VMA$ERRMSG ENTRY(5);
     1757     6931        %EJECT;
PL6.E3A0      #004=VMD$WRITE_BUF File=VMD$DISPLAY.:VMB6TSI                       WED 08/20/97 15:10 Page:339
     1758     6932    1       TRUNCATE = %NO#;

   6932 12 000002   200004 450100                    STZ     TRUNCATE,,AUTO

     1759     6933    1       GOTO FORMATTER;

   6933 12 000003   000010 710000 12                 TRA     FORMATTER

     1760     6934
     1761     6935    1   VMD$WRITE_BUF_TRUNCATED: ENTRY (F_FDS);

   6935 12 000004   000000 700200 xent  VMD$WRITE_B* TSX0  ! X66_AUTO_1
        12 000005   000010 000001                    ZERO    8,1

     1762     6936
     1763     6937        /*D*  ENTRY:   VMD$WRITE_BUF_TRUNCATED
     1764     6938              DESCRIPTION: Identical to VMD$WRITE_BUF, save that if the output buffer
     1765     6939                 string is longer than the width of the output DCB's platen it is
     1766     6940                 truncated.
     1767     6941        */
     1768     6942
     1769     6943    1       TRUNCATE = %YES#;

   6943 12 000006   400000 236003                    LDQ     -131072,DU
        12 000007   200004 756100                    STQ     TRUNCATE,,AUTO

     1770     6944
     1771     6945    1   FORMATTER:
     1772     6946
     1773     6947    1       IF DCBADDR(F_FDS.DCB#) -> F$DCB.WIDTH# > 0

   6947 12 000010   000000 470400 13    FORMATTER    LDP0    0
        12 000011   000000 471500                    LDP1    0,,PR0
        12 000012   200003 473500                    LDP3    @F_FDS,,AUTO
        12 000013   300013 220100                    LDX0    11,,PR3
        12 000014   100000 474510                    LDP4    0,X0,PR1
        12 000015   400004 236100                    LDQ     4,,PR4
PL6.E3A0      #004=VMD$WRITE_BUF File=VMD$DISPLAY.:VMB6TSI                       WED 08/20/97 15:10 Page:340
        12 000016   000777 316007                    CANQ    511,DL
        12 000017   000033 600000 12                 TZE     s:6952

     1774     6948    1       THEN
     1775     6949    1           WIDTH = MINIMUM(MAXIMUM(DCBADDR(F_FDS.DCB#) -> F$DCB.WIDTH#, 40),

   6949 12 000020   400004 236100                    LDQ     4,,PR4
        12 000021   000777 376007                    ANQ     511,DL
        12 000022   000050 116007                    CMPQ    40,DL
        12 000023   000025 603000 12                 TRC     s:6949+5
        12 000024   000050 236007                    LDQ     40,DL
        12 000025   001000 116007                    CMPQ    512,DL
        12 000026   000031 602000 12                 TNC     s:6949+9
        12 000027   000031 600000 12                 TZE     s:6949+9
        12 000030   001000 236007                    LDQ     512,DL
        12 000031   200005 756100                    STQ     WIDTH,,AUTO
        12 000032   000035 710000 12                 TRA     s:6957

     1776     6950    1             LENGTHC(DISPLAY_BUF));
     1777     6951    1       ELSE
     1778     6952    1           WIDTH = 255;

   6952 12 000033   000377 235007                    LDA     255,DL
        12 000034   200005 755100                    STA     WIDTH,,AUTO

     1779     6953        /*
     1780     6954             ***** Remember the DCB# to write thru.
     1781     6955                   Do not let X$FORMAT do the write ...
     1782     6956        */
     1783     6957    1       HOLD_DCB# = F_FDS.DCB#;

   6957 12 000035   300013 236100                    LDQ     11,,PR3
        12 000036   000022 732000                    QRS     18
        12 000037   000214 756000 11                 STQ     HOLD_DCB#

     1784     6958    1       F_FDS.DCB# = 0;

PL6.E3A0      #004=VMD$WRITE_BUF File=VMD$DISPLAY.:VMB6TSI                       WED 08/20/97 15:10 Page:341
   6958 12 000040   000000 221003                    LDX1    0,DU
        12 000041   300013 741100                    STX1    11,,PR3

     1785     6959        /*
     1786     6960             ***** Format the buffer ...
     1787     6961        */
     1788     6962    1       F_FDS.BUF_ = VECTOR(DISPLAY_BUF);

   6962 12 000042   000002 237000 13                 LDAQ    2
        12 000043   300005 755100                    STA     5,,PR3
        12 000044   300006 756100                    STQ     6,,PR3

     1789     6963    1       CALL X$FORMAT (F_FDS);

   6963 12 000045   200003 630500                    EPPR0   @F_FDS,,AUTO
        12 000046   000004 631400 13                 EPPR1   4
        12 000047   000000 701000 xent               TSX1    X$FORMAT
        12 000050   000000 011000                    NOP     0

     1790     6964        /*
     1791     6965             ***** Strip vfc ???
     1792     6966        */
     1793     6967    1       IF SUBSTR (DISPLAY_BUF,0,1) = 'A'

   6967 12 000051   000014 236000 11                 LDQ     DISPLAY_BUF
        12 000052   777000 376003                    ANQ     -512,DU
        12 000053   101000 116003                    CMPQ    33280,DU
        12 000054   000071 601000 12                 TNZ     s:6974

     1794     6968    2       THEN DO;

     1795     6969    2           F_FDS.BUFX = F_FDS.BUFX - 1;

   6969 12 000055   200003 470500                    LDP0    @F_FDS,,AUTO
        12 000056   000001 336007                    LCQ     1,DL
        12 000057   000007 056100                    ASQ     7,,PR0

PL6.E3A0      #004=VMD$WRITE_BUF File=VMD$DISPLAY.:VMB6TSI                       WED 08/20/97 15:10 Page:342
     1796     6970    2           WRITE_BUF.BUF_ = VECTOR(SUBSTR(DISPLAY_BUF,1,F_FDS.BUFX));

   6970 12 000060   000007 720100                    LXL0    7,,PR0
        12 000061   000000 635010                    EAA     0,X0
        12 000062   000002 771000                    ARL     2
        12 000063   000140 135007                    SBLA    96,DL
        12 000064   000005 236000 13                 LDQ     5
        12 000065   000004 757000 11                 STAQ    WRITE_BUF+4

     1797     6971    2           WRITE_BUF.V.DVBYTE.VFC# = %NO#;

   6971 12 000066   000006 236000 13                 LDQ     6
        12 000067   000013 356000 11                 ANSQ    WRITE_BUF+11

     1798     6972    2       END;

   6972 12 000070   000106 710000 12                 TRA     s:6982

     1799     6973    2       ELSE DO;

     1800     6974    2           WIDTH = WIDTH + 1; /* allow for VFC */

   6974 12 000071   200005 235100                    LDA     WIDTH,,AUTO
        12 000072   000001 035007                    ADLA    1,DL
        12 000073   200005 755100                    STA     WIDTH,,AUTO

     1801     6975    2           WRITE_BUF.BUF_ = VECTOR(SUBSTR(DISPLAY_BUF,0,F_FDS.BUFX));

   6975 12 000074   200003 470500                    LDP0    @F_FDS,,AUTO
        12 000075   000007 720100                    LXL0    7,,PR0
        12 000076   000000 636010                    EAQ     0,X0
        12 000077   000022 772000                    QRL     18
        12 000100   000064 737000                    LLS     52
        12 000101   000140 135007                    SBLA    96,DL
        12 000102   000003 236000 13                 LDQ     3
        12 000103   000004 757000 11                 STAQ    WRITE_BUF+4

PL6.E3A0      #004=VMD$WRITE_BUF File=VMD$DISPLAY.:VMB6TSI                       WED 08/20/97 15:10 Page:343
     1802     6976    2           WRITE_BUF.V.DVBYTE.VFC# = %YES#;

   6976 12 000104   100000 236003                    LDQ     32768,DU
        12 000105   000013 256000 11                 ORSQ    WRITE_BUF+11

     1803     6977    2       END;

     1804     6978        /*
     1805     6979             ***** If the buffer is to be truncated to the output device's width,
     1806     6980                   then clip the size in the fds appropriately.
     1807     6981        */
     1808     6982    1       IF TRUNCATE AND F_FDS.BUFX > WIDTH

   6982 12 000106   200004 234100                    SZN     TRUNCATE,,AUTO
        12 000107   000121 605000 12                 TPL     s:6988
        12 000110   200005 236100                    LDQ     WIDTH,,AUTO
        12 000111   000121 604000 12                 TMI     s:6988
        12 000112   000007 116100                    CMPQ    7,,PR0
        12 000113   000121 605000 12                 TPL     s:6988

     1809     6983    1       THEN
     1810     6984    1           WRITE_BUF.BUF_.BOUND = WIDTH - 1;

   6984 12 000114   000001 136007                    SBLQ    1,DL
        12 000115   000020 736000                    QLS     16
        12 000116   000004 676000 11                 ERQ     WRITE_BUF+4
        12 000117   000007 376000 13                 ANQ     7
        12 000120   000004 656000 11                 ERSQ    WRITE_BUF+4

     1811     6985        /*
     1812     6986             ***** Write the buffer ...
     1813     6987        */
     1814     6988    1       WRITE_BUF.V.DCB# = HOLD_DCB#;

   6988 12 000121   000214 720000 11                 LXL0    HOLD_DCB#
        12 000122   000010 740000 11                 STX0    WRITE_BUF+8

PL6.E3A0      #004=VMD$WRITE_BUF File=VMD$DISPLAY.:VMB6TSI                       WED 08/20/97 15:10 Page:344
     1815     6989    1       F_FDS.DCB# = HOLD_DCB#;           /* Replace the DCB# for later use */

   6989 12 000123   000013 740100                    STX0    11,,PR0

     1816     6990    1       CALL M$WRITE (WRITE_BUF) ALTRET(E_WRITE);

   6990 12 000124   000000 630400 11                 EPPR0   WRITE_BUF
        12 000125   440001 713400                    CLIMB   alt,write
        12 000126   401400 401760                    pmme    nvectors=4
        12 000127   000131 702000 12                 TSX2    E_WRITE

     1817     6991    1       RETURN;

   6991 12 000130   000000 702200 xent               TSX2  ! X66_ARET

     1818     6992        /**/
     1819     6993    1   E_WRITE:
     1820     6994    1       CALL VMA$ERRMSG (B$TCB.ALT$->B$ALT.ERR, B$TCB.ALT$->B$ALT.DCB#);

   6994 12 000131   000000 470400 xsym  E_WRITE      LDP0    B$TCB$
        12 000132   000000 471500                    LDP1    0,,PR0
        12 000133   100101 633500                    EPPR3   65,,PR1
        12 000134   200007 453500                    STP3    WIDTH+2,,AUTO
        12 000135   100102 634500                    EPPR4   66,,PR1
        12 000136   200006 454500                    STP4    WIDTH+1,,AUTO
        12 000137   200006 630500                    EPPR0   WIDTH+1,,AUTO
        12 000140   000010 631400 13                 EPPR1   8
        12 000141   000000 701000 xent               TSX1    VMA$ERRMSG
        12 000142   000000 011000                    NOP     0

     1821     6995    1       RETURN;

   6995 12 000143   000000 702200 xent               TSX2  ! X66_ARET

WRITE_BUF
 Sect OctLoc
  11     000   000003 777640   000010 006000   000000 177640   000000 006014    ................
PL6.E3A0      #004=VMD$WRITE_BUF File=VMD$DISPLAY.:VMB6TSI                       WED 08/20/97 15:10 Page:345
  11     004   000000 177640   000000 006014   000000 177640   000000 006014    ................
  11     010   000000 400400   000000 000000   000000 000000   000000 000000    ................

DISPLAY_BUF
 Sect OctLoc
  11     014   ****** ******   ****** ******   ****** ******   ****** ******    ................

(unnamed)
 Sect OctLoc
  13     000   000000 006003   000000 000000   000177 777640   000014 006000    ................
  13     004   000001 000000   000014 206000   677777 777777   777777 600000    ................
  13     010   000002 000000                                                    ....
     1822     6996    1   END VMD$WRITE_BUF;

PL6.E3A0      #004=VMD$WRITE_BUF File=VMD$DISPLAY.:VMB6TSI                       WED 08/20/97 15:10 Page:346
--  Include file information  --

   B_MACROS_C.:LIB_E05  is referenced.
   VM_DATA_R.:VMB6TOU  cannot be made into a system file and is referenced.
   XU_FORMAT_C.:LIB_E05  is referenced.
   CP_6_SUBS.:LIB_E05  is referenced.
   CP_6_C.:LIB_E05  is referenced.
   CP_6.:LIB_E05  cannot be made into a system file and is referenced.
      No diagnostics issued in procedure VMD$WRITE_BUF.
PL6.E3A0      #004=VMD$WRITE_BUF File=VMD$DISPLAY.:VMB6TSI                       WED 08/20/97 15:10 Page:347

 **** Variables and constants ****

  ****  Section 011  Data  VMD$WRITE_BUF

  ****  Scalars and arrays  ****
OctLoc.c.b A Datatyp(siz) R M Lvl/name                 OctLoc.c.b A Datatyp(siz) R M Lvl/name

    14-0-0/c CHAR(512)   r     1 DISPLAY_BUF              214-0-0/w UBIN        r     1 HOLD_DCB#
     0-0-0/d STRC(432)   r     1 WRITE_BUF

  ****  Auto variables  ****

  ****  Scalars and arrays  ****
OctLoc.c.b A Datatyp(siz) R M Lvl/name                 OctLoc.c.b A Datatyp(siz) R M Lvl/name

     3-0-0/w PTR         r     1 @F_FDS                    *0-0-0/w STRC(1080)  r     1 F_FDS
     4-0-0/b BIT         r     1 TRUNCATE                   5-0-0/w UBIN        r     1 WIDTH

  ****  SYMREF variables  ****

  ****  Scalars and arrays  ****
OctLoc.c.b A Datatyp(siz) R M Lvl/name                 OctLoc.c.b A Datatyp(siz) R M Lvl/name

     0-0-0/w PTR               1 B$JIT$                     0-0-0/w PTR         r     1 B$TCB$
     0-0-0/c ASTR(9)     r     1 ERRMSG_FID                 0-0-0/w UBIN              1 M$DO_NUM
     0-0-0/w UBIN              1 M$LO_NUM                   0-0-0/w UBIN              1 M$MAIL_CENTRAL_NUM
     0-0-0/w UBIN              1 M$MAIL_COMGROUP_NUM        0-0-0/w UBIN              1 M$MAIL_FILE_NUM
     0-0-0/w UBIN              1 M$MAIL_GLOBAL_NUM          0-0-0/w UBIN              1 M$ME_NUM
     0-0-0/w UBIN              1 M$NODE_NUM                 0-0-0/w UBIN              1 M$SI_NUM
     0-0-0/w UBIN              1 M$WORK_NUM                 0-0-0/w PTR               1 VM_ADDLIST$
     0-0-0/d VECT              1 VM_ADDLIST_                0-0-0/w PTR               1 VM_ADDREC$
     0-0-0/d VECT              1 VM_ADDREC_                 0-0-0/w PTR               1 VM_COPY$
     0-0-0/d VECT              1 VM_COPY_                   0-0-0/w PTR               1 VM_ENCLLIST$
     0-0-0/d VECT              1 VM_ENCLLIST_               0-0-0/w PTR               1 VM_ENCLREC$
     0-0-0/d VECT              1 VM_ENCLREC_                0-0-0/c STRC(270)         1 VM_FORWARD_ENCL_NAME
     0-0-0/c STRC(270)         1 VM_FORWARD_FILE_NAME       0-0-0/c STRC(72)          1 VM_FORWARD_FILE_PASS
     0-0-0/w PTR               1 VM_HEADER$                 0-0-0/d VECT              1 VM_HEADER_
PL6.E3A0      #004=VMD$WRITE_BUF File=VMD$DISPLAY.:VMB6TSI                       WED 08/20/97 15:10 Page:348
     0-0-0/d VECT              1 VM_HEADER_INIT_            0-0-0/w PTR               1 VM_INPUT$
     0-0-0/d VECT              1 VM_INPUT_                  0-0-0/c STRC(72)          1 VM_MAILCG_NAME
     0-0-0/w STRC(432)         1 VM_MAILCG_SETSTA           0-0-0/c STRC(72)          1 VM_MAIL_ACCT
     0-0-0/c STRC(54)          1 VM_NAME_MAP_NAME           0-0-0/w PTR               1 VM_PARSEAREA$
     0-0-0/d VECT              1 VM_PARSEAREA_              0-0-0/w PTR               1 VM_PROFILE$
     0-0-0/d VECT              1 VM_PROFILE_                0-0-0/w PTR               1 VM_SELECT$
     0-0-0/d VECT              1 VM_SELECT_                 0-0-0/c STRC(288)         1 VM_SEND_FILE_NAME
     0-0-0/c CHAR(8)           1 VM_SITENAME                0-0-0/w PTR               1 VM_WORK$
     0-0-0/d VECT              1 VM_WORK_

  ****  BASED and DCB variables  ****

  ****  Scalars and arrays  ****
OctLoc.c.b A Datatyp(siz) R M Lvl/name                 OctLoc.c.b A Datatyp(siz) R M Lvl/name

     0-0-0/w STRC(2448)  r     1 B$ALT                      0-0-0/w STRC(144)   r     1 B$TCB
     0-0-0/d ASTR(3528)  r     1 F$DCB                      0-0-0N  NULL        r     1 M$DO
     0-0-0N  NULL        r     1 M$LO                       0-0-0N  NULL        r     1 M$MAIL_CENTRAL
     0-0-0N  NULL        r     1 M$MAIL_COMGROUP            0-0-0N  NULL        r     1 M$MAIL_FILE
     0-0-0N  NULL        r     1 M$MAIL_GLOBAL              0-0-0N  NULL        r     1 M$ME
     0-0-0N  NULL        r     1 M$NODE                     0-0-0N  NULL        r     1 M$SI
     0-0-0N  NULL        r     1 M$UC                       0-0-0N  NULL        r     1 M$WORK
     0-0-0/c ASTR(9)     r     1 X$STRING


   Procedure VMD$WRITE_BUF requires 100 words for executable code.
   Procedure VMD$WRITE_BUF requires 8 words of local(AUTO) storage.

    No errors detected in file VMD$DISPLAY.:VMB6TSI    .
PL6.E3A0      #004=VMD$WRITE_BUF File=VMD$DISPLAY.:VMB6TSI                       WED 08/20/97 15:10 Page:349
          *** CROSS REFERENCE LISTING ***
**     DENOTES     IDENTIFIER DEFINITION
<<                 IDENTIFIER'S VALUE SET
>>                 IDENTIFIER'S VALUE USED
<>                 IDENTIFIER SET AND/OR USED
--                 IDENTIFIER REFERENCED
PL6.E3A0      #004=VMD$WRITE_BUF File=VMD$DISPLAY.:VMB6TSI                       WED 08/20/97 15:10 Page:350
          MINI XREF LISTING

B$ALT.CODE
      6922**DCL      6922--REDEF    6923--REDEF    6923--REDEF
B$ALT.DCB#
      6923**DCL      6994<>CALL
B$ALT.ERR
      6923**DCL      6994<>CALL
B$ALT.ERR.ERR#
      6924**DCL      6924--REDEF
B$ALT.EVID
      6923**DCL      6923--REDEF    6923--REDEF
B$TCB.ALT$
      6918**DCL      6994>>CALL     6994>>CALL
B$TCB$
      6485**DCL      6918--IMP-PTR  6994>>CALL     6994>>CALL
DISPLAY_BUF
      6912**DCL      6949--ASSIGN   6962--ASSIGN   6967>>IF       6970--ASSIGN   6975--ASSIGN
ERRMSG_FID.L#
      6553**DCL      6553--IMP-SIZ
E_WRITE
      6994**LABEL    6990--CALLALT
F$DCB.ACTPOS
      6887**DCL      6887--REDEF
F$DCB.ARS#
      6861**DCL      6861--REDEF
F$DCB.ATTR
      6880**DCL      6881--REDEF
F$DCB.BORROW
      6895**DCL      6895--REDEF    6895--REDEF    6895--REDEF
F$DCB.DCBNAME.L
      6909**DCL      6909--IMP-SIZ
F$DCB.EOMCHAR#
      6865**DCL      6865--REDEF
PL6.E3A0      #004=VMD$WRITE_BUF File=VMD$DISPLAY.:VMB6TSI                       WED 08/20/97 15:10 Page:351
F$DCB.FLDID
      6890**DCL      6890--REDEF
F$DCB.FORM$
      6884**DCL      6884--REDEF
F$DCB.FSECT
      6900**DCL      6900--REDEF
F$DCB.FSN#
      6877**DCL      6877--REDEF    6877--REDEF    6878--REDEF
F$DCB.HEADER$
      6883**DCL      6883--REDEF
F$DCB.IXTNSIZE#
      6881**DCL      6881--REDEF
F$DCB.LASTSTA$
      6870**DCL      6870--REDEF
F$DCB.LVL
      6896**DCL      6896--REDEF
F$DCB.NAME#.C
      6871**DCL      6871--REDEF
F$DCB.NOEOF
      6893**DCL      6893--REDEF
F$DCB.NRECS#
      6882**DCL      6882--REDEF
F$DCB.NRECX
      6901**DCL      6901--REDEF
F$DCB.OHDR
      6893**DCL      6893--REDEF
F$DCB.ORG#
      6876**DCL      6876--REDEF
F$DCB.PRECNO
      6899**DCL      6899--REDEF
F$DCB.RCSZ
      6905**DCL      6905--REDEF
F$DCB.RES#
      6872**DCL      6872--REDEF
F$DCB.SETX
      6884**DCL      6884--REDEF
PL6.E3A0      #004=VMD$WRITE_BUF File=VMD$DISPLAY.:VMB6TSI                       WED 08/20/97 15:10 Page:352
F$DCB.TAB$
      6884**DCL      6884--REDEF
F$DCB.TDA
      6898**DCL      6899--REDEF
F$DCB.WIDTH#
      6868**DCL      6947>>IF       6949>>ASSIGN
F$DCB.WSN#
      6872**DCL      6872--REDEF
FORMATTER
      6947**LABEL    6933--GOTO
F_FDS
      6723**DCL        14--PROC     6935--ENTRY    6963<>CALL
F_FDS.BUFX
      6747**DCL      6969<<ASSIGN   6969>>ASSIGN   6970>>ASSIGN   6975>>ASSIGN   6982>>IF
F_FDS.BUF_
      6740**DCL      6962<<ASSIGN
F_FDS.DCB#
      6756**DCL      6947--IF       6949--ASSIGN   6957>>ASSIGN   6958<<ASSIGN   6989<<ASSIGN
HOLD_DCB#
      6913**DCL      6957<<ASSIGN   6988>>ASSIGN   6989>>ASSIGN
M$WRITE
      5504**DCL-ENT  6990--CALL
TRUNCATE
      6914**DCL      6932<<ASSIGN   6943<<ASSIGN   6982>>IF
VMA$ERRMSG
      6930**DCL-ENT  6994--CALL
WIDTH
      6915**DCL      6949<<ASSIGN   6952<<ASSIGN   6974<<ASSIGN   6974>>ASSIGN   6982>>IF       6984>>ASSIGN
WRITE_BUF
      6840**DCL      6990<>CALL
WRITE_BUF.BUF_
      6840**DCL      6970<<ASSIGN   6975<<ASSIGN
WRITE_BUF.BUF_.BOUND
      6840**DCL      6984<<ASSIGN
WRITE_BUF.STATION_
      6842**DCL      6842--REDEF
PL6.E3A0      #004=VMD$WRITE_BUF File=VMD$DISPLAY.:VMB6TSI                       WED 08/20/97 15:10 Page:353
WRITE_BUF.V
      6843**DCL      6840--DCLINIT
WRITE_BUF.V.DCB#
      6843**DCL      6988<<ASSIGN
WRITE_BUF.V.DVBYTE.VFC#
      6849**DCL      6849--REDEF    6971<<ASSIGN   6976<<ASSIGN
X$FORMAT
      6929**DCL-ENT  6963--CALL
X$STRING.SIZ
      6399**DCL      6400--IMP-SIZ
