VERSION B06

PL6.E3A0      #001=VMD$DI_HEADER File=VMD$DISPLAY.:VMB6TSI                       WED 08/20/97 15:08 Page:1
        1        1        /*M* VMD$DISPLAY Display subroutines  */
        2        2        /*T***********************************************************/
        3        3        /*T*                                                         */
        4        4        /*T* Copyright (c) Bull HN Information Systems Inc., 1997    */
        5        5        /*T*                                                         */
        6        6        /*T***********************************************************/
        7        7        /*X* DMC,PLM=4,IND=4,CTI=2,DTI=0,ENI=0,ECI=0,CSI=0,DCI=4 */
        8        8
        9        9        /*P* NAME: VMD$DI_HEADER
       10       10             DESCRIPTION: THIS ROUINE WILL LIST THE CURRENT HEADER
       11       11        */
       12       12
       13       13        VMD$DI_HEADER: PROC (VM_HEADER,MESSAGE_NUMBER,DCB#);
       14       14
       15       15        /***** Include files *****/
       16       16        %INCLUDE CP_6_SUBS;
       17      556        %INCLUDE XU_FORMAT_C;
       18      718        %INCLUDE CP_6;
       19     6277        %INCLUDE VM_MACRO_C;
       20     7545        %INCLUDE VM_SUBS_C;
       21     7805        %INCLUDE VM_DATA_R;
       22     8236        %include VM_PERR_C;
       23     8531        /***** Parameters *****/
       24     8532        %VM_HEADER (STCLASS=" ");
       25     8661    1   DCL MESSAGE_NUMBER UBIN WORD;
       26     8662    1   DCL DCB# UBIN WORD;
       27     8663
       28     8664        %F_FDS(    VECTR = VECT_ARRAY );
       29     8777
       30     8778              %F$DCB;
       31     8835
       32     8836        %FPT_OPEN( FPTN=DEFAULT_OPEN_CONST, FUN=CREATE, DISP=NAMED, STCLASS=CONSTANT);
       33     8945        %FPT_OPEN( FPTN=DEFAULT_OPEN, STCLASS="");
       34     9054
       35     9055        %FPT_TIME  (FPTN=CONVERT_TIME,
       36     9056                    DEST=LOCAL,
       37     9057                    TSTAMP=UTS,
PL6.E3A0      #001=VMD$DI_HEADER File=VMD$DISPLAY.:VMB6TSI                       WED 08/20/97 15:08 Page:2
       38     9058                    DATE=DATE_STRING,
       39     9059                    TIME=TIME_STRING);
       40     9078
       41     9079
       42     9080        %VLP_NAME( FPTN=VM_HEADER_FMT, LEN=60,L=60, NAME=' ', STCLASS=STATIC);
       43     9107        %VLP_NAME( FPTN=VM_TITLE_FMT,  LEN=60,L=60, NAME=' ', STCLASS=STATIC);
       44     9134        %VLP_NAME( FPTN=VM_STATUS1,    LEN=16,L=16, NAME=' ', STCLASS=STATIC);
       45     9161        %VLP_NAME( FPTN=VM_STATUS2,    LEN=27,L=27, NAME=' ', STCLASS=STATIC);
       46     9188
       47     9189        %VLP_ERRCODE( FPTN=E_HEADER_FMT, FCG=VM,MID=D, STCLASS="CONSTANT SYMDEF",
       48     9190                      ERR#=%E$HEADER_FMT );
       49     9235        /*E* ERROR:   VMD-E$HEADER_FMT-0
       50     9236             MESSAGE0:"4D "A "A "A"4*D "xxx.0<>MA "A
       51     9237             DESCRIPTION:   '"' is mapped into %.  This is a format phrase.
       52     9238                            "xxx is modified at run time (field width).
       53     9239        */
       54     9240              %VLP_ERRCODE( FPTN=E_TITLE_FMT, FCG=VM,MID=D, STCLASS="CONSTANT SYMDEF",
       55     9241              ERR#=%E$TITLE_FMT );
       56     9286        /*E* ERROR:   VMD-E$TITLE_FMT-0
       57     9287             MESSAGE:msg#    when sent      recs"xxx.0<>MA "Asubject
       58     9288             DESCRIPTION: '"' is mapped into %.  This is a format phrase.
       59     9289                          "xxx is modified at run time to be a field width
       60     9290                          for the name.
       61     9291        */
       62     9292              %VLP_ERRCODE( FPTN=E_STATUS1, FCG=VM,MID=D, STCLASS="CONSTANT SYMDEF",
       63     9293              ERR#=%E$STATUS1  );
       64     9338        /*E* ERROR:   VMD-E$STATUS1-0
       65     9339             MESSAGE:dnum am pm(from)
       66     9340             DESCRIPTION: Codes associated with message displays.
       67     9341                          d -  deleted              0,1
       68     9342                          n -  new                  1,1
       69     9343                          u -  unexamined           2,1
       70     9344                          m -  marked               3,1
       71     9345                     (from) -  header display      10,6
       72     9346        */
       73     9347              %VLP_ERRCODE( FPTN=E_STATUS2, FCG=VM,MID=D, STCLASS="CONSTANT SYMDEF",
       74     9348              ERR#=%E$STATUS2   );
PL6.E3A0      #001=VMD$DI_HEADER File=VMD$DISPLAY.:VMB6TSI                       WED 08/20/97 15:08 Page:3
       75     9393        /*E* ERROR: VMD-E$STATUS2-0
       76     9394             MESSAGE:errackdlvfc ansfwdbrdrr enc
       77     9395             DESCRIPTION: More codes associated with message displays:
       78     9396                        err -  error             2  0,3
       79     9397                        ack -  acknowledgement   2  3,3
       80     9398                        dlv -  delivery report   2  6,3
       81     9399                         fc -  file copy         2  9,3
       82     9400                        ans -  answer            2 12,3
       83     9401                        fwd -  forward           2 15,3
       84     9402                        brd -  broadcast         2 18,3
       85     9403                         rr -  return receipt    2 21,3
       86     9404                        enc -  enclosures        2 24,3
       87     9405        */
       88     9406              %VLP_NAME( FPTN=VM_DATE_NUMBER_FMT, LEN=80,L=80, NAME=' ',
       89     9407              STCLASS="STATIC SYMDEF");
       90     9434        %VLP_ERRCODE( FPTN=E_DATE_NUMBER_FMT, STCLASS="CONSTANT SYMDEF",
       91     9435                      ERR#=%E$DATE_NUMBER_FMT, FCG=VM,MID=D     );
       92     9480        /*E* ERROR: VMD-E$DATE_NUMBER_FMT-0
       93     9481             MESSAGE:    Sent:"11-"L15..3U Rcvd: "L15..3U"49-Number:"57-"5LD
       94     9482        */
       95     9483
       96     9484              %VLP_NAME( FPTN=VM_TO_FROM_FMT, LEN=59,L=59, NAME=' ',
       97     9485              STCLASS="STATIC SYMDEF");
       98     9512        %VLP_ERRCODE( FPTN=E_TO_FROM_FMT,      STCLASS="CONSTANT SYMDEF",
       99     9513                      ERR#=%E$TO_FROM_FMT,      FCG=VM,MID=D        );
      100     9558        /*E* ERROR: VMD-E$TO_FROM_FMT-0
      101     9559             MESSAGE:      To:"11-"L35A"N("51-From:"57-"LA")
      102     9560        */
      103     9561
      104     9562              %VLP_NAME( FPTN=VM_SUBJECT_FMT, LEN=39,L=39, NAME=' ',
      105     9563              STCLASS="STATIC SYMDEF");
      106     9590        %VLP_NAME(  FPTN=VM_SUBJECT_FMT1,   LEN=39,L=39, NAME=' ',
      107     9591                    STCLASS="STATIC SYMDEF");
      108     9618        %VLP_ERRCODE( FPTN=E_SUBJECT_FMT,   STCLASS="CONSTANT SYMDEF",
      109     9619                      ERR#=%E$SUBJECT_FMT,  FCG=VM,MID=D    );
      110     9664              %VLP_ERRCODE( FPTN=E_SUBJECT_FMT1, STCLASS="CONSTANT SYMDEF",
      111     9665              ERR#=%E$SUBJECT_FMT,  FCG=VM,MID=D,   SEV=1 );
PL6.E3A0      #001=VMD$DI_HEADER File=VMD$DISPLAY.:VMB6TSI                       WED 08/20/97 15:08 Page:4
      112     9710        /*E* ERROR:  VMD-E$SUBJECT_FMT-0
      113     9711             MESSAGE: Subject:"11-"L70<A
      114     9712             MESSAGE1:Subject:"10-"L<A
      115     9713             DESCRIPTION:
      116     9714                      When displaying a message, MESSAGE0 is used,
      117     9715                      when displaying a particular item at the options
      118     9716                      prompt in SEND, MESSAGE1 is used.
      119     9717        */
      120     9718
      121     9719              %VLP_NAME( FPTN=VM_REPLY_TO_FMT, LEN=39,L=39, NAME=' ',
      122     9720              STCLASS="STATIC SYMDEF");
      123     9747        %VLP_ERRCODE( FPTN=E_REPLY_TO_FMT,  STCLASS="CONSTANT SYMDEF",
      124     9748                      ERR#=%E$REPLY_TO_FMT, FCG=VM,MID=D    );
      125     9793        /*E* ERROR: VMD-E$REPLY_TO_FMT-0
      126     9794             MESSAGE:Reply To:"11-"LA
      127     9795        */
      128     9796
      129     9797              %VLP_NAME( FPTN=VM_REFERENCE_FMT, LEN=39,L=39, NAME=' ',
      130     9798              STCLASS="STATIC SYMDEF");
      131     9825        %VLP_NAME(    FPTN=VM_REFERENCE_FMT1,LEN=39,L=39, NAME=' ',
      132     9826                      STCLASS="STATIC SYMDEF");
      133     9853        %VLP_ERRCODE( FPTN=E_REFERENCE_FMT, STCLASS="CONSTANT SYMDEF",
      134     9854                      ERR#=%E$REFERENCE_FMT,FCG=VM,MID=D    );
      135     9899              %VLP_ERRCODE( FPTN=E_REFERENCE_FMT1, STCLASS="CONSTANT SYMDEF",
      136     9900              ERR#=%E$REFERENCE_FMT, FCG=VM,MID=D,  SEV=1);
      137     9945        /*E* ERROR: VMD-E$REFERENCE_FMT-0
      138     9946             MESSAGE:      Re:"11-"LA
      139     9947             MESSAGE1:     Re:"10-"LA
      140     9948        */
      141     9949
      142     9950              %VLP_NAME( FPTN=VM_REFERENCE_AND_ID_FMT,LEN=23,L=23,NAME=' ',
      143     9951              STCLASS="STATIC SYMDEF");
      144     9978        %VLP_ERRCODE( FPTN=E_REFERENCE_AND_ID_FMT,STCLASS="CONSTANT SYMDEF",
      145     9979                      ERR#=%E$REFERENCE_AND_ID_FMT, FCG=VM,MID=D);
      146    10024        /*E* ERROR: VMD-E$REFERENCE_AND_ID_FMT-0
      147    10025             MESSAGE:"A #"D: "LA
      148    10026        */
PL6.E3A0      #001=VMD$DI_HEADER File=VMD$DISPLAY.:VMB6TSI                       WED 08/20/97 15:08 Page:5
      149    10027
      150    10028              %VLP_NAME( FPTN=VM_RE_STRING, LEN=23,L=23, NAME=' ',
      151    10029              STCLASS="STATIC SYMDEF");
      152    10056        %VLP_ERRCODE( FPTN=E_RE_STRING,     STCLASS="CONSTANT SYMDEF",
      153    10057                      ERR#=%E$RE_STRING,    FCG=VM,MID=D        );
      154    10102        /*E* ERROR: VMD-E$RE_STRING-0
      155    10103             MESSAGE:   Re
      156    10104             DESCRIPTION:
      157    10105                    E_RE_STRING is used with E_REFERENCE_AND_ID_FMT.  When
      158    10106                    translating it, don't make it longer than 3 characters.  If
      159    10107                    you want it longer than that, the whole header display will
      160    10108                    have to be shifted to the right.  In any case, make sure that
      161    10109                    it is right justified.
      162    10110        */
      163    10111
      164    10112              %VLP_NAME( FPTN=VM_COPY_FMT,  LEN=23,L=23, NAME=' ',
      165    10113              STCLASS="STATIC SYMDEF");
      166    10140        %VLP_NAME(    FPTN=VM_COPY_FMT1,    LEN=23,L=23, NAME=' ',
      167    10141                      STCLASS="STATIC SYMDEF");
      168    10168        %VLP_ERRCODE( FPTN=E_COPY_FMT,     STCLASS="CONSTANT SYMDEF",
      169    10169                      ERR#=%E$COPY_FMT,     FCG=VM,MID=D         );
      170    10214              %VLP_ERRCODE( FPTN=E_COPY_FMT1, STCLASS="CONSTANT SYMDEF",
      171    10215              ERR#=%E$COPY_FMT,    FCG=VM,MID=D,     SEV=1   );
      172    10260        /*E* ERROR: VMD-E$COPY_FMT-0
      173    10261             MESSAGE:       C:"11-"LA
      174    10262             MESSAGE1:      C:"10-"LA
      175    10263        */
      176    10264
      177    10265              %VLP_NAME( FPTN=VM_BLIND_COPY_FMT, LEN=23,L=23,NAME=' ',
      178    10266              STCLASS="STATIC SYMDEF");
      179    10293        %VLP_NAME(    FPTN=VM_BLIND_COPY_FMT1,LEN=23,L=23,NAME=' ',
      180    10294                      STCLASS="STATIC SYMDEF");
      181    10321        %VLP_ERRCODE( FPTN=E_BLIND_COPY_FMT, STCLASS="CONSTANT SYMDEF",
      182    10322                      ERR#=%E$BLIND_COPY_FMT,FCG=VM,MID=D       );
      183    10367              %VLP_ERRCODE( FPTN=E_BLIND_COPY_FMT1, STCLASS="CONSTANT SYMDEF",
      184    10368              ERR#=%E$BLIND_COPY_FMT, FCG=VM,MID=D,     SEV=1    );
      185    10413        /*E* ERROR: VMD-E$BLIND_COPY_FMT-0
PL6.E3A0      #001=VMD$DI_HEADER File=VMD$DISPLAY.:VMB6TSI                       WED 08/20/97 15:08 Page:6
      186    10414             MESSAGE:      Bc:"11-"LA
      187    10415             MESSAGE1:     Bc:"10-"LA
      188    10416        */
      189    10417
      190    10418              %VLP_NAME( FPTN=VM_CONTINUATION_FMT,LEN=19,L=19,NAME=' ',
      191    10419              STCLASS="STATIC SYMDEF");
      192    10446        %VLP_ERRCODE( FPTN=E_CONTINUATION_FMT,STCLASS="CONSTANT SYMDEF",
      193    10447                      ERR#=%E$CONTINUATION_FMT,FCG=VM,MID=D      );
      194    10492        /*E* ERROR: VMD-E$CONTINUATION_FMT-0
      195    10493             MESSAGE:"11-"<A
      196    10494        */
      197    10495
      198    10496              %VLP_NAME( FPTN=VM_ERROR_ADDRESS_FMT,LEN=43,L=43,NAME=' ',
      199    10497              STCLASS="STATIC SYMDEF");
      200    10524        %VLP_ERRCODE( FPTN=E_ERROR_ADDRESS_FMT,STCLASS="CONSTANT SYMDEF",
      201    10525                      ERR#=%E$ERROR_ADDRESS_FMT, FCG=VM,MID=D     );
      202    10570        /*E* ERROR: VMD-E$ERROR_ADDRESS_FMT-0
      203    10571             MESSAGE:  Address in question: "LA
      204    10572        */
      205    10573
      206    10574
      207    10575              %VLP_NAME( FPTN=VM_TO_FMT,    LEN=23,L=23, NAME=' ',
      208    10576              STCLASS="STATIC SYMDEF");
      209    10603        %VLP_ERRCODE( FPTN=E_TO_FMT,       STCLASS="CONSTANT SYMDEF",
      210    10604                      ERR#=%E$TO_FMT,       FCG=VM,MID=D          );
      211    10649        /*E* ERROR: VMD-E$TO_FMT-0
      212    10650             MESSAGE:     To:"10-"LA
      213    10651        */
      214    10652
      215    10653              %VLP_NAME( FPTN=VM_FCOPY_FMT, LEN=23,L=23, NAME=' ',
      216    10654              STCLASS="STATIC SYMDEF");
      217    10681        %VLP_ERRCODE( FPTN=E_FCOPY_FMT,     STCLASS="CONSTANT SYMDEF",
      218    10682                      ERR#=%E$FCOPY_FMT,    FCG=VM,MID=D         );
      219    10727        /*E* ERROR: VMD-E$FCOPY_FMT-0
      220    10728             MESSAGE: FCOPY ="10-"LA
      221    10729        */
      222    10730
PL6.E3A0      #001=VMD$DI_HEADER File=VMD$DISPLAY.:VMB6TSI                       WED 08/20/97 15:08 Page:7
      223    10731              %VLP_NAME( FPTN=VM_SIGNED_FMT, LEN=23,L=23, NAME=' ',
      224    10732              STCLASS="STATIC SYMDEF");
      225    10759        %VLP_ERRCODE( FPTN=E_SIGNED_FMT,    STCLASS="CONSTANT SYMDEF",
      226    10760                      ERR#=%E$SIGNED_FMT,   FCG=VM,MID=D         );
      227    10805        /*E* ERROR: VMD-E$SIGNED_FMT-0
      228    10806             MESSAGE:Signed ="10-"LA
      229    10807        */
      230    10808
      231    10809              %VLP_NAME( FPTN=VM_RR_FMT,    LEN=39,L=39, NAME=' ',
      232    10810              STCLASS="STATIC SYMDEF");
      233    10837        %VLP_ERRCODE( FPTN=E_RR_FMT,        STCLASS="CONSTANT SYMDEF",
      234    10838                      ERR#=%E$RR_FMT,       FCG=VM,MID=D         );
      235    10883        /*E* ERROR: VMD-E$RR_FMT-0
      236    10884             MESSAGE: Return Receipt = "19-"LA
      237    10885        */
      238    10886
      239    10887
      240    10888              %VLP_NAME( FPTN=VM_RTO_FMT,   LEN=39,L=39, NAME=' ',
      241    10889              STCLASS="STATIC SYMDEF");
      242    10916        %VLP_ERRCODE( FPTN=E_RTO_FMT,       STCLASS="CONSTANT SYMDEF",
      243    10917                      ERR#=%E$RTO_FMT,      FCG=VM,MID=D             );
      244    10962        /*E* ERROR: VMD-E$RTO_FMT-0
      245    10963             MESSAGE:Reply To = "12-"LA
      246    10964        */
      247    10965
      248    10966              %VLP_NAME( FPTN=VM_DEFER_FMT, LEN=39,L=39, NAME=' ',
      249    10967              STCLASS="STATIC SYMDEF");
      250    10994        %VLP_ERRCODE( FPTN=E_DEFER_FMT,     STCLASS="CONSTANT SYMDEF",
      251    10995                      ERR#=%E$DEFER_FMT,    FCG=VM,MID=D             );
      252    11040        /*E* ERROR: VMD-E$DEFER_FMT-0
      253    11041             MESSAGE: Defer ="10-"L15..3U
      254    11042        */
      255    11043
      256    11044              %VLP_NAME( FPTN=VM_DEFER_FMT1, LEN=39,L=39, NAME=' ',
      257    11045              STCLASS="STATIC SYMDEF");
      258    11072        %VLP_ERRCODE( FPTN=E_DEFER_FMT1,    STCLASS="CONSTANT SYMDEF",
      259    11073                      ERR#=%E$DEFER_FMT1,   FCG=VM,MID=D             );
PL6.E3A0      #001=VMD$DI_HEADER File=VMD$DISPLAY.:VMB6TSI                       WED 08/20/97 15:08 Page:8
      260    11118        /*E* ERROR: VMD-E$DEFER_FMT1-0
      261    11119             MESSAGE: Defer ="10-"LA
      262    11120        */
      263    11121
      264    11122              %VLP_NAME( FPTN=VM_OPTS_FMT,  LEN=83,L=83, NAME=' ',
      265    11123              STCLASS="STATIC SYMDEF");
      266    11150        %VLP_ERRCODE( FPTN=E_OPTS_FMT,      STCLASS="CONSTANT SYMDEF",
      267    11151                      ERR#=%E$OPTS_FMT,     FCG=VM,MID=D              );
      268    11196        /*E* ERROR: VMD-E$OPTS_FMT-0
      269    11197             MESSAGE:Options: Delivery Receipt = "A, Return Receipt = "A, Defer = "L15..3U
      270    11198        */
      271    11199
      272    11200              %VLP_NAME( FPTN=VM_OPTS_FMT1, LEN=83,L=83, NAME=' ',
      273    11201              STCLASS="STATIC SYMDEF");
      274    11228        %VLP_ERRCODE( FPTN=E_OPTS_FMT1,     STCLASS="CONSTANT SYMDEF",
      275    11229                      ERR#=%E$OPTS_FMT1,    FCG=VM,MID=D              );
      276    11274        /*E* ERROR: VMD-E$OPTS_FMT1-0
      277    11275             MESSAGE:Options: Delivery Receipt = "A, Return Receipt = "A
      278    11276        */
      279    11277
      280    11278              %VLP_NAME( FPTN=VM_OPTS_FMT2, LEN=83,L=83, NAME=' ',
      281    11279              STCLASS="STATIC SYMDEF");
      282    11306        %VLP_ERRCODE( FPTN=E_OPTS_FMT2,     STCLASS="CONSTANT SYMDEF",
      283    11307                      ERR#=%E$OPTS_FMT2,    FCG=VM,MID=D              );
      284    11352        /*E* ERROR: VMD-E$OPTS_FMT2-0
      285    11353             MESSAGE:         Broadcast = "A,        File Copy = "A
      286    11354        */
      287    11355
      288    11356              %VLP_NAME( FPTN=VM_DR_FMT,   LEN=39,L=39, NAME=' ',
      289    11357              STCLASS="STATIC SYMDEF" );
      290    11384        %VLP_ERRCODE( FPTN=E_DR_FMT,       STCLASS="CONSTANT SYMDEF",
      291    11385                      ERR#=%E$DR_FMT,      FCG=VM,MID=D               );
      292    11430        /*E* ERROR: VMD-E$DR_FMT-0
      293    11431             MESSAGE:Delivery Receipt = "20-"LA
      294    11432        */
      295    11433
      296    11434              %VLP_NAME( FPTN=VM_BROADCAST_FMT,LEN=39,L=39, NAME=' ',
PL6.E3A0      #001=VMD$DI_HEADER File=VMD$DISPLAY.:VMB6TSI                       WED 08/20/97 15:08 Page:9
      297    11435              STCLASS="STATIC SYMDEF"                         );
      298    11462        %VLP_ERRCODE( FPTN=E_BROADCAST_FMT, STCLASS="CONSTANT SYMDEF",
      299    11463                      ERR#=%E$BROADCAST_FMT,FCG=VM,MID=D              );
      300    11508        /*E* ERROR:  VMD-E$BROADCAST_FMT-0
      301    11509             MESSAGE:Broadcast = "13-"LA
      302    11510        */
      303    11511              %VLP_NAME( FPTN=VM_ENCL_1_FMT,   LEN=60,L=60,NAME=' ',
      304    11512              STCLASS="STATIC SYMDEF");
      305    11539        %VLP_ERRCODE( FPTN=E_ENCL_1_FMT,       STCLASS="CONSTANT SYMDEF",
      306    11540                      ERR#=%E$ENCL_1_FMT,       FCG=VM,MID=D               );
      307    11585        /*E* ERROR: VMD-E$ENCL_1_FMT-0
      308    11586             MESSAGE:    Encl: encl#   recs        Title
      309    11587        */
      310    11588              %VLP_NAME( FPTN=VM_ENCL_2_FMT,   LEN=60,L=60,NAME=' ',
      311    11589              STCLASS="STATIC SYMDEF");
      312    11616        %VLP_ERRCODE( FPTN=E_ENCL_2_FMT,       STCLASS="CONSTANT SYMDEF",
      313    11617                      ERR#=%E$ENCL_2_FMT,       FCG=VM,MID=D               );
      314    11662        /*E* ERROR: VMD-E$ENCL_2_FMT-0
      315    11663             MESSAGE:"12-"2D"A"17-"A"20-"11LD"31-"LT
      316    11664        */
      317    11665              %VLP_NAME( FPTN=VM_ENCL_FWD_FMT,  LEN=60,L=60,NAME=' ',
      318    11666              STCLASS="STATIC SYMDEF");
      319    11693        %VLP_ERRCODE( FPTN=E_ENCL_FWD_FMT,      STCLASS="CONSTANT SYMDEF",
      320    11694                      ERR#=%E$ENCL_FWD_FMT,      FCG=VM,MID=D              );
      321    11739        /*E* ERROR: VMD-E$ENCL_FWD_FMT-0
      322    11740             MESSAGE:    Encl: moved to enclosing mailgram
      323    11741        */
      324    11742
      325    11743
      326    11744    1   DCL NEED_TITLE_BAR BIT (1) STATIC SYMDEF INIT ('0'B);
      327    11745    1   DCL VECT_ARRAY (0:7) STATIC VECTOR;
      328    11746
      329    11747    1   DCL WORK_BUF CHAR(50);
      330    11748    1   DCL TEMPBUF CHAR(256);
      331    11749    1   DCL I SBIN WORD;
      332    11750    1   dcl IX sbin;
      333    11751    1   DCL FLAG_CHAR CHAR (1);
PL6.E3A0      #001=VMD$DI_HEADER File=VMD$DISPLAY.:VMB6TSI                       WED 08/20/97 15:08 Page:10
      334    11752    1   DCL MSG_TYPE CHAR (3);
      335    11753    1   DCL NAME_WIDTH UBIN;
      336    11754    1   DCL LEN SBIN WORD;
      337    11755    1   DCL SPACE CHAR(1) CONSTANT INIT(' ');
      338    11756    1   DCL UTS UBIN WORD STATIC;
      339    11757    1   DCL DATE_STRING CHAR (8) STATIC;
      340    11758    1   DCL TODAYS_DATE_STRING CHAR (8);
      341    11759    1   DCL TIME_STRING CHAR (11) STATIC;
      342    11760    1   DCL FORMATTED_DATE CHAR (11);
      343    11761
      344    11762    1   DCL VMD$WRITE_BUF_TRUNCATED ENTRY(1);
      345    11763        %INIT_STR(DODCL=YES);
      346    11786    1   dcl X$STRIP_BLANKS entry(1);
      347    11787
      348    11788        %SET LISTSUB='0'B;
      349    11789        %SET LISTMAC='0'B;
      350    11790        /***** Fpts *****/
      351    11791        %EJECT;
PL6.E3A0      #001=VMD$DI_HEADER File=VMD$DISPLAY.:VMB6TSI                       WED 08/20/97 15:08 Page:11
      352    11792
      353    11793    1       IF NOT DCBADDR(DCB#) -> F$DCB.FCD#
      354    11794    2       THEN DO;
      355    11795
      356    11796    2           DEFAULT_OPEN      = DEFAULT_OPEN_CONST;
      357    11797    2           DEFAULT_OPEN.V_   = vector(DEFAULT_OPEN.V);
      358    11798    2           DEFAULT_OPEN.V.DCB# = DCB#;
      359    11799    2           DEFAULT_OPEN.V.DCB# = DCB#;
      360    11800    3           CALL M$OPEN (DEFAULT_OPEN) WHENALTRETURN DO; END;
      361    11801    2       END;
      362    11802
      363    11803    1       IF DCBADDR(DCB#) -> F$DCB.WIDTH# > 0
      364    11804    1       THEN
      365    11805    1           NAME_WIDTH = MAXIMUM (10, DCBADDR(DCB#) -> F$DCB.WIDTH#/5);
      366    11806    1       ELSE
      367    11807    1           NAME_WIDTH = 20;
      368    11808
      369    11809            %INIT_STR( STR=VM_HEADER_FMT, CODE=E_HEADER_FMT, TEST=YES );
      370    11832    1       call index(IX,'.', VM_HEADER_FMT.NAME#);
      371    11833    1       call binchar( substr(VM_HEADER_FMT.NAME#,IX-3,3), NAME_WIDTH);
      372    11834
      373    11835            %INIT_STR( STR=VM_TITLE_FMT, CODE=E_TITLE_FMT,TEST=YES, VECT="F_FDS.FMT_");
      374    11858
      375    11859    1       call index(IX,'.', VM_TITLE_FMT.NAME#);
      376    11860    1       call binchar( substr(VM_TITLE_FMT.NAME#,IX-3,3), NAME_WIDTH);
      377    11861
      378    11862            %INIT_STR( STR=VM_STATUS1, CODE=E_STATUS1, TEST=YES );
      379    11885            %INIT_STR( STR=VM_STATUS2, CODE=E_STATUS2, TEST=YES );
      380    11908
      381    11909    1       F_FDS.DCB# = DCB#;
      382    11910
      383    11911    1       IF NEED_TITLE_BAR
      384    11912    2       THEN DO;
      385    11913
      386    11914    2           NEED_TITLE_BAR = %NO#;
      387    11915    2           VECT_ARRAY(0) = VECTOR (TEMPBUF);
      388    11916    2           TEMPBUF = substr(VM_STATUS1.NAME#,10,6);
PL6.E3A0      #001=VMD$DI_HEADER File=VMD$DISPLAY.:VMB6TSI                       WED 08/20/97 15:08 Page:12
      389    11917    2           F_FDS.NVECS# = 1;
      390    11918
      391    11919    2           CALL VMD$WRITE_BUF_TRUNCATED (F_FDS);
      392    11920
      393    11921    2       END;
      394    11922
      395    11923    1       VECT_ARRAY(0) = VECTOR(MESSAGE_NUMBER);
      396    11924
      397    11925    1       FLAG_CHAR = ' ';
      398    11926    1       IX = -1;
      399    11927    1       IF VM_HEADER.STATUS.DEL
      400    11928    1       then IX= 0;
      401    11929    1       else if not VM_HEADER.STATUS.OLD and not VM_HEADER.STATUS.MAKE_OLD
      402    11930    1           then IX = 1;
      403    11931    1           else if not VM_HEADER.STATUS.EXAM
      404    11932    1               then IX = 2;
      405    11933    1               else if VM_HEADER.STATUS.MARK
      406    11934    1                   then IX = 3;
      407    11935
      408    11936    1       if IX >= 0 then FLAG_CHAR = substr(VM_STATUS1.NAME#,IX,1);
      409    11937
      410    11938    1       VECT_ARRAY(1) = VECTOR(FLAG_CHAR);
      411    11939
      412    11940    1       CONVERT_TIME.V.SOURCE# = %CLOCK#;
      413    11941    1       CALL M$TIME (CONVERT_TIME);
      414    11942    1       TODAYS_DATE_STRING = DATE_STRING;
      415    11943
      416    11944    1       CONVERT_TIME.V.SOURCE# = %UTS#;
      417    11945    1       UTS = VM_HEADER.CREATION_DATE;
      418    11946    1       CALL M$TIME (CONVERT_TIME);
      419    11947
      420    11948    1       IF SUBSTR (DATE_STRING, 6, 2) = SUBSTR (TODAYS_DATE_STRING, 6, 2)
      421    11949    1       THEN
      422    11950    1           CALL CONCAT (FORMATTED_DATE, SUBSTR (DATE_STRING, 0, 5), ' ',
      423    11951    1             SUBSTR (TIME_STRING, 0, 5));
      424    11952    1       ELSE
      425    11953    2       do;
PL6.E3A0      #001=VMD$DI_HEADER File=VMD$DISPLAY.:VMB6TSI                       WED 08/20/97 15:08 Page:13
      426    11954    2           IX = 7;
      427    11955    2           if TIME_STRING < '12:00:00.00' then IX = 4;
      428    11956    2           call concat(FORMATTED_DATE, DATE_STRING, substr(VM_STATUS1.NAME#,IX,3));
      429    11957    2       end;
      430    11958
      431    11959    1       VECT_ARRAY(2) = VECTOR(FORMATTED_DATE);
      432    11960
      433    11961    1       IX = -1;
      434    11962    1       MSG_TYPE = ' ';
      435    11963    1       IF VM_HEADER.STATUS.ERR
      436    11964    1       then IX = 0;
      437    11965    1       else if VM_HEADER.STATUS.ACK
      438    11966    1           then IX = 3;
      439    11967    1           else if VM_HEADER.STATUS.DELIVERY
      440    11968    1               then IX = 6;
      441    11969    1               else if VM_HEADER.STATUS.FCOPY
      442    11970    1                   then IX = 9;
      443    11971    1                   else if VM_HEADER.STATUS.ANSWER
      444    11972    1                       then IX = 12;
      445    11973    1                       else if VM_HEADER.STATUS.FORWARDED
      446    11974    1                           then IX = 15;
      447    11975    1                           else if VM_HEADER.STATUS.BROADCAST
      448    11976    1                               then IX = 18;
      449    11977    1                               else if VM_HEADER.STATUS.RRACK
      450    11978    1                                   then IX = 21;
      451    11979    1                                   else if VM_HEADER.STATUS.ENCL
      452    11980    1                                       then IX = 24;
      453    11981    1       if IX >= 0
      454    11982    1       then MSG_TYPE = substr( VM_STATUS2.NAME#, IX, 3);
      455    11983
      456    11984    1       VECT_ARRAY(3) = VECTOR(MSG_TYPE);
      457    11985    1       VECT_ARRAY(4) = VECTOR(VM_HEADER.NUM_RECORDS);
      458    11986
      459    11987    1       IF VM_HEADER.FROM$ ~= ADDR(NIL)
      460    11988    1       THEN
      461    11989    2       DO;
      462    11990    2           CALL INDEX1R (I, '@', VM_HEADER.FROM$ -> X$STRING.TEXT);
PL6.E3A0      #001=VMD$DI_HEADER File=VMD$DISPLAY.:VMB6TSI                       WED 08/20/97 15:08 Page:14
      463    11991    2           CALL INDEX (I, ' /', SUBSTR (VM_HEADER.FROM$ -> X$STRING.TEXT, 0, I));
      464    11992    3           DO WHILE I > 0;
      465    11993    3               IF SUBSTR (VM_HEADER.FROM$ -> X$STRING.TEXT, I-1, 1) = ' '
      466    11994    3               THEN
      467    11995    3                   I = I - 1;
      468    11996    3               ELSE
      469    11997    3                   EXIT;
      470    11998    3           END;
      471    11999    2           IF I + 2 <= NAME_WIDTH
      472    12000    3           THEN DO;
      473    12001    3               CALL CONCAT (TEMPBUF, '(', SUBSTR (VM_HEADER.FROM$ -> X$STRING.TEXT, 0,
             12001                        I), ')');
      474    12002    3               LEN = I + 2;
      475    12003    3           END;
      476    12004    3           ELSE DO;
      477    12005    3               CALL CONCAT (TEMPBUF, '(', SUBSTR (VM_HEADER.FROM$ -> X$STRING.TEXT, 0,
             12005                        NAME_WIDTH - 2), '>');
      478    12006    3               LEN = NAME_WIDTH;
      479    12007    3           END;
      480    12008    2           VECT_ARRAY(5) = VECTOR(SUBSTR(TEMPBUF,0,LEN));
      481    12009    2       END;
      482    12010    1       ELSE
      483    12011    1           VECT_ARRAY(5) = VECTOR(SPACE);
      484    12012
      485    12013    1       IF VM_HEADER.SUBJECT$ ~= ADDR(NIL)
      486    12014    1         AND VM_HEADER.SUBJECT$ -> X$STRING.SIZ > 0
      487    12015    2       THEN DO;
      488    12016    2           CALL X$STRIP_BLANKS(VM_HEADER.SUBJECT$); /*strip blanks */
      489    12017    2           VECT_ARRAY(6) = VECTOR(VM_HEADER.SUBJECT$ -> X$STRING.TEXT);
      490    12018    2       END;
      491    12019    1       ELSE
      492    12020    1           VECT_ARRAY(6) = VECTOR(SPACE);
      493    12021
      494    12022    1       F_FDS.FMT_ = vector( substr(VM_HEADER_FMT.NAME#,,VM_HEADER_FMT.L#) );
      495    12023    1       F_FDS.NVECS# = 7;
      496    12024    1       CALL VMD$WRITE_BUF_TRUNCATED(F_FDS);
      497    12025    1       RETURN;
PL6.E3A0      #001=VMD$DI_HEADER File=VMD$DISPLAY.:VMB6TSI                       WED 08/20/97 15:08 Page:15
      498    12026
      499    12027    1   END VMD$DI_HEADER;
      500    12028        %EOD;

PL6.E3A0      #001=VMD$DI_HEADER File=VMD$DISPLAY.:VMB6TSI                       WED 08/20/97 15:08 Page:16
--  Include file information  --

   VM_PERR_C.:VMB6TOU  is referenced.
   B_MACROS_C.:LIB_E05  is referenced.
   VM_DATA_R.:VMB6TOU  cannot be made into a system file and is referenced.
   VM_SUBS_C.:VMB6TOU  is referenced.
   VM_MACRO_C.:VMB6TOU  is referenced.
   CP_6_C.:LIB_E05  is referenced.
   CP_6.:LIB_E05  cannot be made into a system file and is referenced.
   XU_FORMAT_C.:LIB_E05  is referenced.
   CP_6_SUBS.:LIB_E05  is referenced.
      No diagnostics issued in procedure VMD$DI_HEADER.

   Procedure VMD$DI_HEADER requires 428 words for executable code.
   Procedure VMD$DI_HEADER requires 154 words of local(AUTO) storage.

PL6.E3A0      #001=VMD$DI_HEADER File=VMD$DISPLAY.:VMB6TSI                       WED 08/20/97 15:08 Page:17

 Object Unit name= VMD$DI_HEADER                              File name= VMD$DISPLAY.:VMB6TOU
 UTS= AUG 20 '97 15:08:08.44 WED                              Compiler= PL-6/E31         Sev=      00
 SharedLib= :SHARED_SYSTEM                                    Alt SharedLib=


    ****  Control sections  ****

 Sect   Type Bound  Init  Size OctSiz  Section name(segment info)
    0   DCB   even  none     0      0  M$UC
    1   DCB   even  none     0      0  M$MAIL_FILE
    2   DCB   even  none     0      0  M$MAIL_CENTRAL
    3   DCB   even  none     0      0  M$MAIL_GLOBAL
    4   DCB   even  none     0      0  M$WORK
    5   DCB   even  none     0      0  M$MAIL_COMGROUP
    6   DCB   even  none     0      0  M$DO
    7   DCB   even  none     0      0  M$LO
    8   DCB   even  none     0      0  M$ME
    9   DCB   even  none     0      0  M$NODE
   10   DCB   even  none     0      0  M$SI
   11   Data  even  none   436    664  VMD$DI_HEADER
   12  RoData even  UTS     97    141  VMD$DI_HEADER
   13   Proc  even  none   428    654  VMD$DI_HEADER
   14  RoData even  none    27     33  VMD$DI_HEADER

    ****  Entry defs  ****

                              Check   Calling
                             calling  sequence
  Sect OctLoc Primary Altret sequence   type   Parms  Name
    13      0   yes            yes      Std        3  VMD$DI_HEADER
PL6.E3A0      #001=VMD$DI_HEADER File=VMD$DISPLAY.:VMB6TSI                       WED 08/20/97 15:08 Page:18

  ****  Data defs  ****

 Sect OctLoc  Name                           Sect OctLoc  Name
   12     72  E_HEADER_FMT                      12     73  E_TITLE_FMT
   12     74  E_STATUS1                         12     75  E_STATUS2
   11    126  VM_DATE_NUMBER_FMT                12     76  E_DATE_NUMBER_FMT
   11    153  VM_TO_FROM_FMT                    12     77  E_TO_FROM_FMT
   11    172  VM_SUBJECT_FMT                    11    204  VM_SUBJECT_FMT1
   12    100  E_SUBJECT_FMT                     12    101  E_SUBJECT_FMT1
   11    216  VM_REPLY_TO_FMT                   12    102  E_REPLY_TO_FMT
   11    230  VM_REFERENCE_FMT                  11    242  VM_REFERENCE_FMT1
   12    103  E_REFERENCE_FMT                   12    104  E_REFERENCE_FMT1
   11    254  VM_REFERENCE_AND_ID_FMT           12    105  E_REFERENCE_AND_ID_FMT
   11    262  VM_RE_STRING                      12    106  E_RE_STRING
   11    270  VM_COPY_FMT                       11    276  VM_COPY_FMT1
   12    107  E_COPY_FMT                        12    110  E_COPY_FMT1
   11    304  VM_BLIND_COPY_FMT                 11    312  VM_BLIND_COPY_FMT1
   12    111  E_BLIND_COPY_FMT                  12    112  E_BLIND_COPY_FMT1
   11    320  VM_CONTINUATION_FMT               12    113  E_CONTINUATION_FMT
   11    325  VM_ERROR_ADDRESS_FMT              12    114  E_ERROR_ADDRESS_FMT
   11    340  VM_TO_FMT                         12    115  E_TO_FMT
   11    346  VM_FCOPY_FMT                      12    116  E_FCOPY_FMT
   11    354  VM_SIGNED_FMT                     12    117  E_SIGNED_FMT
   11    362  VM_RR_FMT                         12    120  E_RR_FMT
   11    374  VM_RTO_FMT                        12    121  E_RTO_FMT
   11    406  VM_DEFER_FMT                      12    122  E_DEFER_FMT
   11    420  VM_DEFER_FMT1                     12    123  E_DEFER_FMT1
   11    432  VM_OPTS_FMT                       12    124  E_OPTS_FMT
   11    457  VM_OPTS_FMT1                      12    125  E_OPTS_FMT1
   11    504  VM_OPTS_FMT2                      12    126  E_OPTS_FMT2
   11    531  VM_DR_FMT                         12    127  E_DR_FMT
   11    543  VM_BROADCAST_FMT                  12    130  E_BROADCAST_FMT
   11    555  VM_ENCL_1_FMT                     12    131  E_ENCL_1_FMT
   11    575  VM_ENCL_2_FMT                     12    132  E_ENCL_2_FMT
   11    615  VM_ENCL_FWD_FMT                   12    133  E_ENCL_FWD_FMT
   11    635  NEED_TITLE_BAR
PL6.E3A0      #001=VMD$DI_HEADER File=VMD$DISPLAY.:VMB6TSI                       WED 08/20/97 15:08 Page:19

  ****  Entry refs  ****

         Check        Calling
        calling       sequence
Altret sequence SRef   type   Args  Name
 yes     yes           Std       3 VMD$ERRMSG
         yes           Std       1 X$STRIP_BLANKS
         yes           Std       1 VMD$WRITE_BUF_TRUNCATED
                       nStd      0 X66_AUTO_3
                       nStd      0 X66_ARET

  ****  Data refs  ****

  Flags:  r = read only, s = secondary
Flgs Name                             Flgs Name                             Flgs Name
     M$UC                             r    VM_HEADER$                       r    VM_PROFILE$
r    VM_ADDLIST$                      r    VM_ADDREC$                       r    VM_WORK$
r    VM_SELECT$                       r    VM_PARSEAREA$                    r    VM_INPUT$
r    VM_COPY$                              VM_ENCLLIST$                          VM_ENCLREC$
     VM_HEADER_                            VM_HEADER_INIT_                       VM_PROFILE_
     VM_ADDLIST_                           VM_ADDREC_                            VM_WORK_
     VM_SELECT_                            VM_PARSEAREA_                         VM_INPUT_
     VM_COPY_                              VM_ENCLLIST_                          VM_ENCLREC_
     M$MAIL_FILE                           M$MAIL_CENTRAL                        M$MAIL_GLOBAL
     M$WORK                                M$MAIL_COMGROUP                       M$DO
     M$LO                                  M$ME                                  M$NODE
     M$SI                                  M$MAIL_FILE_NUM                       M$MAIL_CENTRAL_NUM
     M$MAIL_GLOBAL_NUM                     M$WORK_NUM                            M$MAIL_COMGROUP_NUM
     M$DO_NUM                              M$ME_NUM                              M$LO_NUM
     M$SI_NUM                              M$NODE_NUM                       r    B$JIT$
r    B$TCB$                                VM_MAIL_ACCT                          VM_NAME_MAP_NAME
     ERRMSG_FID                            VM_SEND_FILE_NAME                     VM_FORWARD_FILE_NAME
     VM_FORWARD_ENCL_NAME                  VM_FORWARD_FILE_PASS                  VM_MAILCG_NAME
     VM_SITENAME                           VM_MAILCG_SETSTA
PL6.E3A0      #001=VMD$DI_HEADER File=VMD$DISPLAY.:VMB6TSI                       WED 08/20/97 15:08 Page:20

  ****  Segment refs  ****

  Flags:  r = read only, s = secondary
Flgs Name                             Flgs Name                             Flgs Name
     NULLSID                               ISSID                                 ROSID
PL6.E3A0      #001=VMD$DI_HEADER File=VMD$DISPLAY.:VMB6TSI                       WED 08/20/97 15:08 Page:21


        1        1        /*M* VMD$DISPLAY Display subroutines  */
        2        2        /*T***********************************************************/
        3        3        /*T*                                                         */
        4        4        /*T* Copyright (c) Bull HN Information Systems Inc., 1997    */
        5        5        /*T*                                                         */
        6        6        /*T***********************************************************/
        7        7        /*X* DMC,PLM=4,IND=4,CTI=2,DTI=0,ENI=0,ECI=0,CSI=0,DCI=4 */
        8        8
        9        9        /*P* NAME: VMD$DI_HEADER
       10       10             DESCRIPTION: THIS ROUINE WILL LIST THE CURRENT HEADER
       11       11        */
       12       12
       13       13        VMD$DI_HEADER: PROC (VM_HEADER,MESSAGE_NUMBER,DCB#);

     13 13 000000   000000 700200 xent  VMD$DI_HEAD* TSX0  ! X66_AUTO_3
        13 000001   000232 000003                    ZERO    154,3

       14       14
       15       15        /***** Include files *****/
       16       16        %INCLUDE CP_6_SUBS;
       17      556        %INCLUDE XU_FORMAT_C;
       18      718        %INCLUDE CP_6;
       19     6277        %INCLUDE VM_MACRO_C;
       20     7545        %INCLUDE VM_SUBS_C;
       21     7805        %INCLUDE VM_DATA_R;
       22     8236        %include VM_PERR_C;
       23     8531        /***** Parameters *****/
       24     8532        %VM_HEADER (STCLASS=" ");
       25     8661    1   DCL MESSAGE_NUMBER UBIN WORD;
       26     8662    1   DCL DCB# UBIN WORD;
       27     8663
       28     8664        %F_FDS(    VECTR = VECT_ARRAY );
       29     8777
       30     8778              %F$DCB;
       31     8835
       32     8836        %FPT_OPEN( FPTN=DEFAULT_OPEN_CONST, FUN=CREATE, DISP=NAMED, STCLASS=CONSTANT);
PL6.E3A0      #001=VMD$DI_HEADER File=VMD$DISPLAY.:VMB6TSI                       WED 08/20/97 15:08 Page:22
       33     8945        %FPT_OPEN( FPTN=DEFAULT_OPEN, STCLASS="");
       34     9054
       35     9055        %FPT_TIME  (FPTN=CONVERT_TIME,
       36     9056                    DEST=LOCAL,
       37     9057                    TSTAMP=UTS,
       38     9058                    DATE=DATE_STRING,
       39     9059                    TIME=TIME_STRING);
       40     9078
       41     9079
       42     9080        %VLP_NAME( FPTN=VM_HEADER_FMT, LEN=60,L=60, NAME=' ', STCLASS=STATIC);
       43     9107        %VLP_NAME( FPTN=VM_TITLE_FMT,  LEN=60,L=60, NAME=' ', STCLASS=STATIC);
       44     9134        %VLP_NAME( FPTN=VM_STATUS1,    LEN=16,L=16, NAME=' ', STCLASS=STATIC);
       45     9161        %VLP_NAME( FPTN=VM_STATUS2,    LEN=27,L=27, NAME=' ', STCLASS=STATIC);
       46     9188
       47     9189        %VLP_ERRCODE( FPTN=E_HEADER_FMT, FCG=VM,MID=D, STCLASS="CONSTANT SYMDEF",
       48     9190                      ERR#=%E$HEADER_FMT );
       49     9235        /*E* ERROR:   VMD-E$HEADER_FMT-0
       50     9236             MESSAGE0:"4D "A "A "A"4*D "xxx.0<>MA "A
       51     9237             DESCRIPTION:   '"' is mapped into %.  This is a format phrase.
       52     9238                            "xxx is modified at run time (field width).
       53     9239        */
       54     9240              %VLP_ERRCODE( FPTN=E_TITLE_FMT, FCG=VM,MID=D, STCLASS="CONSTANT SYMDEF",
       55     9241              ERR#=%E$TITLE_FMT );
       56     9286        /*E* ERROR:   VMD-E$TITLE_FMT-0
       57     9287             MESSAGE:msg#    when sent      recs"xxx.0<>MA "Asubject
       58     9288             DESCRIPTION: '"' is mapped into %.  This is a format phrase.
       59     9289                          "xxx is modified at run time to be a field width
       60     9290                          for the name.
       61     9291        */
       62     9292              %VLP_ERRCODE( FPTN=E_STATUS1, FCG=VM,MID=D, STCLASS="CONSTANT SYMDEF",
       63     9293              ERR#=%E$STATUS1  );
       64     9338        /*E* ERROR:   VMD-E$STATUS1-0
       65     9339             MESSAGE:dnum am pm(from)
       66     9340             DESCRIPTION: Codes associated with message displays.
       67     9341                          d -  deleted              0,1
       68     9342                          n -  new                  1,1
       69     9343                          u -  unexamined           2,1
PL6.E3A0      #001=VMD$DI_HEADER File=VMD$DISPLAY.:VMB6TSI                       WED 08/20/97 15:08 Page:23
       70     9344                          m -  marked               3,1
       71     9345                     (from) -  header display      10,6
       72     9346        */
       73     9347              %VLP_ERRCODE( FPTN=E_STATUS2, FCG=VM,MID=D, STCLASS="CONSTANT SYMDEF",
       74     9348              ERR#=%E$STATUS2   );
       75     9393        /*E* ERROR: VMD-E$STATUS2-0
       76     9394             MESSAGE:errackdlvfc ansfwdbrdrr enc
       77     9395             DESCRIPTION: More codes associated with message displays:
       78     9396                        err -  error             2  0,3
       79     9397                        ack -  acknowledgement   2  3,3
       80     9398                        dlv -  delivery report   2  6,3
       81     9399                         fc -  file copy         2  9,3
       82     9400                        ans -  answer            2 12,3
       83     9401                        fwd -  forward           2 15,3
       84     9402                        brd -  broadcast         2 18,3
       85     9403                         rr -  return receipt    2 21,3
       86     9404                        enc -  enclosures        2 24,3
       87     9405        */
       88     9406              %VLP_NAME( FPTN=VM_DATE_NUMBER_FMT, LEN=80,L=80, NAME=' ',
       89     9407              STCLASS="STATIC SYMDEF");
       90     9434        %VLP_ERRCODE( FPTN=E_DATE_NUMBER_FMT, STCLASS="CONSTANT SYMDEF",
       91     9435                      ERR#=%E$DATE_NUMBER_FMT, FCG=VM,MID=D     );
       92     9480        /*E* ERROR: VMD-E$DATE_NUMBER_FMT-0
       93     9481             MESSAGE:    Sent:"11-"L15..3U Rcvd: "L15..3U"49-Number:"57-"5LD
       94     9482        */
       95     9483
       96     9484              %VLP_NAME( FPTN=VM_TO_FROM_FMT, LEN=59,L=59, NAME=' ',
       97     9485              STCLASS="STATIC SYMDEF");
       98     9512        %VLP_ERRCODE( FPTN=E_TO_FROM_FMT,      STCLASS="CONSTANT SYMDEF",
       99     9513                      ERR#=%E$TO_FROM_FMT,      FCG=VM,MID=D        );
      100     9558        /*E* ERROR: VMD-E$TO_FROM_FMT-0
      101     9559             MESSAGE:      To:"11-"L35A"N("51-From:"57-"LA")
      102     9560        */
      103     9561
      104     9562              %VLP_NAME( FPTN=VM_SUBJECT_FMT, LEN=39,L=39, NAME=' ',
      105     9563              STCLASS="STATIC SYMDEF");
      106     9590        %VLP_NAME(  FPTN=VM_SUBJECT_FMT1,   LEN=39,L=39, NAME=' ',
PL6.E3A0      #001=VMD$DI_HEADER File=VMD$DISPLAY.:VMB6TSI                       WED 08/20/97 15:08 Page:24
      107     9591                    STCLASS="STATIC SYMDEF");
      108     9618        %VLP_ERRCODE( FPTN=E_SUBJECT_FMT,   STCLASS="CONSTANT SYMDEF",
      109     9619                      ERR#=%E$SUBJECT_FMT,  FCG=VM,MID=D    );
      110     9664              %VLP_ERRCODE( FPTN=E_SUBJECT_FMT1, STCLASS="CONSTANT SYMDEF",
      111     9665              ERR#=%E$SUBJECT_FMT,  FCG=VM,MID=D,   SEV=1 );
      112     9710        /*E* ERROR:  VMD-E$SUBJECT_FMT-0
      113     9711             MESSAGE: Subject:"11-"L70<A
      114     9712             MESSAGE1:Subject:"10-"L<A
      115     9713             DESCRIPTION:
      116     9714                      When displaying a message, MESSAGE0 is used,
      117     9715                      when displaying a particular item at the options
      118     9716                      prompt in SEND, MESSAGE1 is used.
      119     9717        */
      120     9718
      121     9719              %VLP_NAME( FPTN=VM_REPLY_TO_FMT, LEN=39,L=39, NAME=' ',
      122     9720              STCLASS="STATIC SYMDEF");
      123     9747        %VLP_ERRCODE( FPTN=E_REPLY_TO_FMT,  STCLASS="CONSTANT SYMDEF",
      124     9748                      ERR#=%E$REPLY_TO_FMT, FCG=VM,MID=D    );
      125     9793        /*E* ERROR: VMD-E$REPLY_TO_FMT-0
      126     9794             MESSAGE:Reply To:"11-"LA
      127     9795        */
      128     9796
      129     9797              %VLP_NAME( FPTN=VM_REFERENCE_FMT, LEN=39,L=39, NAME=' ',
      130     9798              STCLASS="STATIC SYMDEF");
      131     9825        %VLP_NAME(    FPTN=VM_REFERENCE_FMT1,LEN=39,L=39, NAME=' ',
      132     9826                      STCLASS="STATIC SYMDEF");
      133     9853        %VLP_ERRCODE( FPTN=E_REFERENCE_FMT, STCLASS="CONSTANT SYMDEF",
      134     9854                      ERR#=%E$REFERENCE_FMT,FCG=VM,MID=D    );
      135     9899              %VLP_ERRCODE( FPTN=E_REFERENCE_FMT1, STCLASS="CONSTANT SYMDEF",
      136     9900              ERR#=%E$REFERENCE_FMT, FCG=VM,MID=D,  SEV=1);
      137     9945        /*E* ERROR: VMD-E$REFERENCE_FMT-0
      138     9946             MESSAGE:      Re:"11-"LA
      139     9947             MESSAGE1:     Re:"10-"LA
      140     9948        */
      141     9949
      142     9950              %VLP_NAME( FPTN=VM_REFERENCE_AND_ID_FMT,LEN=23,L=23,NAME=' ',
      143     9951              STCLASS="STATIC SYMDEF");
PL6.E3A0      #001=VMD$DI_HEADER File=VMD$DISPLAY.:VMB6TSI                       WED 08/20/97 15:08 Page:25
      144     9978        %VLP_ERRCODE( FPTN=E_REFERENCE_AND_ID_FMT,STCLASS="CONSTANT SYMDEF",
      145     9979                      ERR#=%E$REFERENCE_AND_ID_FMT, FCG=VM,MID=D);
      146    10024        /*E* ERROR: VMD-E$REFERENCE_AND_ID_FMT-0
      147    10025             MESSAGE:"A #"D: "LA
      148    10026        */
      149    10027
      150    10028              %VLP_NAME( FPTN=VM_RE_STRING, LEN=23,L=23, NAME=' ',
      151    10029              STCLASS="STATIC SYMDEF");
      152    10056        %VLP_ERRCODE( FPTN=E_RE_STRING,     STCLASS="CONSTANT SYMDEF",
      153    10057                      ERR#=%E$RE_STRING,    FCG=VM,MID=D        );
      154    10102        /*E* ERROR: VMD-E$RE_STRING-0
      155    10103             MESSAGE:   Re
      156    10104             DESCRIPTION:
      157    10105                    E_RE_STRING is used with E_REFERENCE_AND_ID_FMT.  When
      158    10106                    translating it, don't make it longer than 3 characters.  If
      159    10107                    you want it longer than that, the whole header display will
      160    10108                    have to be shifted to the right.  In any case, make sure that
      161    10109                    it is right justified.
      162    10110        */
      163    10111
      164    10112              %VLP_NAME( FPTN=VM_COPY_FMT,  LEN=23,L=23, NAME=' ',
      165    10113              STCLASS="STATIC SYMDEF");
      166    10140        %VLP_NAME(    FPTN=VM_COPY_FMT1,    LEN=23,L=23, NAME=' ',
      167    10141                      STCLASS="STATIC SYMDEF");
      168    10168        %VLP_ERRCODE( FPTN=E_COPY_FMT,     STCLASS="CONSTANT SYMDEF",
      169    10169                      ERR#=%E$COPY_FMT,     FCG=VM,MID=D         );
      170    10214              %VLP_ERRCODE( FPTN=E_COPY_FMT1, STCLASS="CONSTANT SYMDEF",
      171    10215              ERR#=%E$COPY_FMT,    FCG=VM,MID=D,     SEV=1   );
      172    10260        /*E* ERROR: VMD-E$COPY_FMT-0
      173    10261             MESSAGE:       C:"11-"LA
      174    10262             MESSAGE1:      C:"10-"LA
      175    10263        */
      176    10264
      177    10265              %VLP_NAME( FPTN=VM_BLIND_COPY_FMT, LEN=23,L=23,NAME=' ',
      178    10266              STCLASS="STATIC SYMDEF");
      179    10293        %VLP_NAME(    FPTN=VM_BLIND_COPY_FMT1,LEN=23,L=23,NAME=' ',
      180    10294                      STCLASS="STATIC SYMDEF");
PL6.E3A0      #001=VMD$DI_HEADER File=VMD$DISPLAY.:VMB6TSI                       WED 08/20/97 15:08 Page:26
      181    10321        %VLP_ERRCODE( FPTN=E_BLIND_COPY_FMT, STCLASS="CONSTANT SYMDEF",
      182    10322                      ERR#=%E$BLIND_COPY_FMT,FCG=VM,MID=D       );
      183    10367              %VLP_ERRCODE( FPTN=E_BLIND_COPY_FMT1, STCLASS="CONSTANT SYMDEF",
      184    10368              ERR#=%E$BLIND_COPY_FMT, FCG=VM,MID=D,     SEV=1    );
      185    10413        /*E* ERROR: VMD-E$BLIND_COPY_FMT-0
      186    10414             MESSAGE:      Bc:"11-"LA
      187    10415             MESSAGE1:     Bc:"10-"LA
      188    10416        */
      189    10417
      190    10418              %VLP_NAME( FPTN=VM_CONTINUATION_FMT,LEN=19,L=19,NAME=' ',
      191    10419              STCLASS="STATIC SYMDEF");
      192    10446        %VLP_ERRCODE( FPTN=E_CONTINUATION_FMT,STCLASS="CONSTANT SYMDEF",
      193    10447                      ERR#=%E$CONTINUATION_FMT,FCG=VM,MID=D      );
      194    10492        /*E* ERROR: VMD-E$CONTINUATION_FMT-0
      195    10493             MESSAGE:"11-"<A
      196    10494        */
      197    10495
      198    10496              %VLP_NAME( FPTN=VM_ERROR_ADDRESS_FMT,LEN=43,L=43,NAME=' ',
      199    10497              STCLASS="STATIC SYMDEF");
      200    10524        %VLP_ERRCODE( FPTN=E_ERROR_ADDRESS_FMT,STCLASS="CONSTANT SYMDEF",
      201    10525                      ERR#=%E$ERROR_ADDRESS_FMT, FCG=VM,MID=D     );
      202    10570        /*E* ERROR: VMD-E$ERROR_ADDRESS_FMT-0
      203    10571             MESSAGE:  Address in question: "LA
      204    10572        */
      205    10573
      206    10574
      207    10575              %VLP_NAME( FPTN=VM_TO_FMT,    LEN=23,L=23, NAME=' ',
      208    10576              STCLASS="STATIC SYMDEF");
      209    10603        %VLP_ERRCODE( FPTN=E_TO_FMT,       STCLASS="CONSTANT SYMDEF",
      210    10604                      ERR#=%E$TO_FMT,       FCG=VM,MID=D          );
      211    10649        /*E* ERROR: VMD-E$TO_FMT-0
      212    10650             MESSAGE:     To:"10-"LA
      213    10651        */
      214    10652
      215    10653              %VLP_NAME( FPTN=VM_FCOPY_FMT, LEN=23,L=23, NAME=' ',
      216    10654              STCLASS="STATIC SYMDEF");
      217    10681        %VLP_ERRCODE( FPTN=E_FCOPY_FMT,     STCLASS="CONSTANT SYMDEF",
PL6.E3A0      #001=VMD$DI_HEADER File=VMD$DISPLAY.:VMB6TSI                       WED 08/20/97 15:08 Page:27
      218    10682                      ERR#=%E$FCOPY_FMT,    FCG=VM,MID=D         );
      219    10727        /*E* ERROR: VMD-E$FCOPY_FMT-0
      220    10728             MESSAGE: FCOPY ="10-"LA
      221    10729        */
      222    10730
      223    10731              %VLP_NAME( FPTN=VM_SIGNED_FMT, LEN=23,L=23, NAME=' ',
      224    10732              STCLASS="STATIC SYMDEF");
      225    10759        %VLP_ERRCODE( FPTN=E_SIGNED_FMT,    STCLASS="CONSTANT SYMDEF",
      226    10760                      ERR#=%E$SIGNED_FMT,   FCG=VM,MID=D         );
      227    10805        /*E* ERROR: VMD-E$SIGNED_FMT-0
      228    10806             MESSAGE:Signed ="10-"LA
      229    10807        */
      230    10808
      231    10809              %VLP_NAME( FPTN=VM_RR_FMT,    LEN=39,L=39, NAME=' ',
      232    10810              STCLASS="STATIC SYMDEF");
      233    10837        %VLP_ERRCODE( FPTN=E_RR_FMT,        STCLASS="CONSTANT SYMDEF",
      234    10838                      ERR#=%E$RR_FMT,       FCG=VM,MID=D         );
      235    10883        /*E* ERROR: VMD-E$RR_FMT-0
      236    10884             MESSAGE: Return Receipt = "19-"LA
      237    10885        */
      238    10886
      239    10887
      240    10888              %VLP_NAME( FPTN=VM_RTO_FMT,   LEN=39,L=39, NAME=' ',
      241    10889              STCLASS="STATIC SYMDEF");
      242    10916        %VLP_ERRCODE( FPTN=E_RTO_FMT,       STCLASS="CONSTANT SYMDEF",
      243    10917                      ERR#=%E$RTO_FMT,      FCG=VM,MID=D             );
      244    10962        /*E* ERROR: VMD-E$RTO_FMT-0
      245    10963             MESSAGE:Reply To = "12-"LA
      246    10964        */
      247    10965
      248    10966              %VLP_NAME( FPTN=VM_DEFER_FMT, LEN=39,L=39, NAME=' ',
      249    10967              STCLASS="STATIC SYMDEF");
      250    10994        %VLP_ERRCODE( FPTN=E_DEFER_FMT,     STCLASS="CONSTANT SYMDEF",
      251    10995                      ERR#=%E$DEFER_FMT,    FCG=VM,MID=D             );
      252    11040        /*E* ERROR: VMD-E$DEFER_FMT-0
      253    11041             MESSAGE: Defer ="10-"L15..3U
      254    11042        */
PL6.E3A0      #001=VMD$DI_HEADER File=VMD$DISPLAY.:VMB6TSI                       WED 08/20/97 15:08 Page:28
      255    11043
      256    11044              %VLP_NAME( FPTN=VM_DEFER_FMT1, LEN=39,L=39, NAME=' ',
      257    11045              STCLASS="STATIC SYMDEF");
      258    11072        %VLP_ERRCODE( FPTN=E_DEFER_FMT1,    STCLASS="CONSTANT SYMDEF",
      259    11073                      ERR#=%E$DEFER_FMT1,   FCG=VM,MID=D             );
      260    11118        /*E* ERROR: VMD-E$DEFER_FMT1-0
      261    11119             MESSAGE: Defer ="10-"LA
      262    11120        */
      263    11121
      264    11122              %VLP_NAME( FPTN=VM_OPTS_FMT,  LEN=83,L=83, NAME=' ',
      265    11123              STCLASS="STATIC SYMDEF");
      266    11150        %VLP_ERRCODE( FPTN=E_OPTS_FMT,      STCLASS="CONSTANT SYMDEF",
      267    11151                      ERR#=%E$OPTS_FMT,     FCG=VM,MID=D              );
      268    11196        /*E* ERROR: VMD-E$OPTS_FMT-0
      269    11197             MESSAGE:Options: Delivery Receipt = "A, Return Receipt = "A, Defer = "L15..3U
      270    11198        */
      271    11199
      272    11200              %VLP_NAME( FPTN=VM_OPTS_FMT1, LEN=83,L=83, NAME=' ',
      273    11201              STCLASS="STATIC SYMDEF");
      274    11228        %VLP_ERRCODE( FPTN=E_OPTS_FMT1,     STCLASS="CONSTANT SYMDEF",
      275    11229                      ERR#=%E$OPTS_FMT1,    FCG=VM,MID=D              );
      276    11274        /*E* ERROR: VMD-E$OPTS_FMT1-0
      277    11275             MESSAGE:Options: Delivery Receipt = "A, Return Receipt = "A
      278    11276        */
      279    11277
      280    11278              %VLP_NAME( FPTN=VM_OPTS_FMT2, LEN=83,L=83, NAME=' ',
      281    11279              STCLASS="STATIC SYMDEF");
      282    11306        %VLP_ERRCODE( FPTN=E_OPTS_FMT2,     STCLASS="CONSTANT SYMDEF",
      283    11307                      ERR#=%E$OPTS_FMT2,    FCG=VM,MID=D              );
      284    11352        /*E* ERROR: VMD-E$OPTS_FMT2-0
      285    11353             MESSAGE:         Broadcast = "A,        File Copy = "A
      286    11354        */
      287    11355
      288    11356              %VLP_NAME( FPTN=VM_DR_FMT,   LEN=39,L=39, NAME=' ',
      289    11357              STCLASS="STATIC SYMDEF" );
      290    11384        %VLP_ERRCODE( FPTN=E_DR_FMT,       STCLASS="CONSTANT SYMDEF",
      291    11385                      ERR#=%E$DR_FMT,      FCG=VM,MID=D               );
PL6.E3A0      #001=VMD$DI_HEADER File=VMD$DISPLAY.:VMB6TSI                       WED 08/20/97 15:08 Page:29
      292    11430        /*E* ERROR: VMD-E$DR_FMT-0
      293    11431             MESSAGE:Delivery Receipt = "20-"LA
      294    11432        */
      295    11433
      296    11434              %VLP_NAME( FPTN=VM_BROADCAST_FMT,LEN=39,L=39, NAME=' ',
      297    11435              STCLASS="STATIC SYMDEF"                         );
      298    11462        %VLP_ERRCODE( FPTN=E_BROADCAST_FMT, STCLASS="CONSTANT SYMDEF",
      299    11463                      ERR#=%E$BROADCAST_FMT,FCG=VM,MID=D              );
      300    11508        /*E* ERROR:  VMD-E$BROADCAST_FMT-0
      301    11509             MESSAGE:Broadcast = "13-"LA
      302    11510        */
      303    11511              %VLP_NAME( FPTN=VM_ENCL_1_FMT,   LEN=60,L=60,NAME=' ',
      304    11512              STCLASS="STATIC SYMDEF");
      305    11539        %VLP_ERRCODE( FPTN=E_ENCL_1_FMT,       STCLASS="CONSTANT SYMDEF",
      306    11540                      ERR#=%E$ENCL_1_FMT,       FCG=VM,MID=D               );
      307    11585        /*E* ERROR: VMD-E$ENCL_1_FMT-0
      308    11586             MESSAGE:    Encl: encl#   recs        Title
      309    11587        */
      310    11588              %VLP_NAME( FPTN=VM_ENCL_2_FMT,   LEN=60,L=60,NAME=' ',
      311    11589              STCLASS="STATIC SYMDEF");
      312    11616        %VLP_ERRCODE( FPTN=E_ENCL_2_FMT,       STCLASS="CONSTANT SYMDEF",
      313    11617                      ERR#=%E$ENCL_2_FMT,       FCG=VM,MID=D               );
      314    11662        /*E* ERROR: VMD-E$ENCL_2_FMT-0
      315    11663             MESSAGE:"12-"2D"A"17-"A"20-"11LD"31-"LT
      316    11664        */
      317    11665              %VLP_NAME( FPTN=VM_ENCL_FWD_FMT,  LEN=60,L=60,NAME=' ',
      318    11666              STCLASS="STATIC SYMDEF");
      319    11693        %VLP_ERRCODE( FPTN=E_ENCL_FWD_FMT,      STCLASS="CONSTANT SYMDEF",
      320    11694                      ERR#=%E$ENCL_FWD_FMT,      FCG=VM,MID=D              );
      321    11739        /*E* ERROR: VMD-E$ENCL_FWD_FMT-0
      322    11740             MESSAGE:    Encl: moved to enclosing mailgram
      323    11741        */
      324    11742
      325    11743
      326    11744    1   DCL NEED_TITLE_BAR BIT (1) STATIC SYMDEF INIT ('0'B);
      327    11745    1   DCL VECT_ARRAY (0:7) STATIC VECTOR;
      328    11746
PL6.E3A0      #001=VMD$DI_HEADER File=VMD$DISPLAY.:VMB6TSI                       WED 08/20/97 15:08 Page:30
      329    11747    1   DCL WORK_BUF CHAR(50);
      330    11748    1   DCL TEMPBUF CHAR(256);
      331    11749    1   DCL I SBIN WORD;
      332    11750    1   dcl IX sbin;
      333    11751    1   DCL FLAG_CHAR CHAR (1);
      334    11752    1   DCL MSG_TYPE CHAR (3);
      335    11753    1   DCL NAME_WIDTH UBIN;
      336    11754    1   DCL LEN SBIN WORD;
      337    11755    1   DCL SPACE CHAR(1) CONSTANT INIT(' ');
      338    11756    1   DCL UTS UBIN WORD STATIC;
      339    11757    1   DCL DATE_STRING CHAR (8) STATIC;
      340    11758    1   DCL TODAYS_DATE_STRING CHAR (8);
      341    11759    1   DCL TIME_STRING CHAR (11) STATIC;
      342    11760    1   DCL FORMATTED_DATE CHAR (11);
      343    11761
      344    11762    1   DCL VMD$WRITE_BUF_TRUNCATED ENTRY(1);
      345    11763        %INIT_STR(DODCL=YES);
      346    11786    1   dcl X$STRIP_BLANKS entry(1);
      347    11787
      348    11788        %SET LISTSUB='0'B;
      349    11789        %SET LISTMAC='0'B;
      350    11790        /***** Fpts *****/
      351    11791        %EJECT;
PL6.E3A0      #001=VMD$DI_HEADER File=VMD$DISPLAY.:VMB6TSI                       WED 08/20/97 15:08 Page:31
      352    11792
      353    11793    1       IF NOT DCBADDR(DCB#) -> F$DCB.FCD#

  11793 13 000002   000000 470400 14                 LDP0    0
        13 000003   000000 471500                    LDP1    0,,PR0
        13 000004   200005 473500                    LDP3    @DCB#,,AUTO
        13 000005   300000 720100                    LXL0    0,,PR3
        13 000006   100000 474510                    LDP4    0,X0,PR1
        13 000007   400031 236100                    LDQ     25,,PR4
        13 000010   020000 316007                    CANQ    8192,DL
        13 000011   000033 601000 13                 TNZ     s:11803

      354    11794    2       THEN DO;

      355    11795
      356    11796    2           DEFAULT_OPEN      = DEFAULT_OPEN_CONST;

  11796 13 000012   000100 100400                    MLR     fill='000'O
        13 000013   000000 000350 12                 ADSC9   DEFAULT_OPEN_CONST       cn=0,n=232
        13 000014   200006 000350                    ADSC9   DEFAULT_OPEN,,AUTO       cn=0,n=232

      357    11797    2           DEFAULT_OPEN.V_   = vector(DEFAULT_OPEN.V);

  11797 13 000015   000001 235000 14                 LDA     1
        13 000016   200230 452500                    STP2    FORMATTED_DATE+3,,AUTO
        13 000017   200230 236100                    LDQ     FORMATTED_DATE+3,,AUTO
        13 000020   000052 036003                    ADLQ    42,DU
        13 000021   200006 757100                    STAQ    DEFAULT_OPEN,,AUTO

      358    11798    2           DEFAULT_OPEN.V.DCB# = DCB#;

  11798 13 000022   300000 720100                    LXL0    0,,PR3
        13 000023   200052 740100                    STX0    DEFAULT_OPEN+36,,AUTO

      359    11799    2           DEFAULT_OPEN.V.DCB# = DCB#;

  11799 13 000024   300000 721100                    LXL1    0,,PR3
PL6.E3A0      #001=VMD$DI_HEADER File=VMD$DISPLAY.:VMB6TSI                       WED 08/20/97 15:08 Page:32
        13 000025   200052 741100                    STX1    DEFAULT_OPEN+36,,AUTO

      360    11800    3           CALL M$OPEN (DEFAULT_OPEN) WHENALTRETURN DO; END;

  11800 13 000026   200006 630500                    EPPR0   DEFAULT_OPEN,,AUTO
        13 000027   450000 713400                    CLIMB   alt,open
        13 000030   410400 401760                    pmme    nvectors=18
        13 000031   000033 702000 13                 TSX2    s:11803
        13 000032   000033 710000 13                 TRA     s:11803

      361    11801    2       END;

      362    11802
      363    11803    1       IF DCBADDR(DCB#) -> F$DCB.WIDTH# > 0

  11803 13 000033   000000 470400 14                 LDP0    0
        13 000034   000000 471500                    LDP1    0,,PR0
        13 000035   200005 473500                    LDP3    @DCB#,,AUTO
        13 000036   300000 720100                    LXL0    0,,PR3
        13 000037   100000 474510                    LDP4    0,X0,PR1
        13 000040   400004 236100                    LDQ     4,,PR4
        13 000041   000777 316007                    CANQ    511,DL
        13 000042   000053 600000 13                 TZE     s:11807

      364    11804    1       THEN
      365    11805    1           NAME_WIDTH = MAXIMUM (10, DCBADDR(DCB#) -> F$DCB.WIDTH#/5);

  11805 13 000043   400004 236100                    LDQ     4,,PR4
        13 000044   000777 376007                    ANQ     511,DL
        13 000045   000005 506007                    DIV     5,DL
        13 000046   000012 116007                    CMPQ    10,DL
        13 000047   000051 603000 13                 TRC     s:11805+6
        13 000050   000012 236007                    LDQ     10,DL
        13 000051   200221 756100                    STQ     NAME_WIDTH,,AUTO
        13 000052   000055 710000 13                 TRA     s:11816

      366    11806    1       ELSE
PL6.E3A0      #001=VMD$DI_HEADER File=VMD$DISPLAY.:VMB6TSI                       WED 08/20/97 15:08 Page:33
      367    11807    1           NAME_WIDTH = 20;

  11807 13 000053   000024 235007                    LDA     20,DL
        13 000054   200221 755100                    STA     NAME_WIDTH,,AUTO

      368    11808
      369    11809            %INIT_STR( STR=VM_HEADER_FMT, CODE=E_HEADER_FMT, TEST=YES );

  11816 13 000055   040000 106400                    CMPC    fill='040'O
        13 000056   000052 200074 11                 ADSC9   VM_HEADER_FMT            cn=1,n=60
        13 000057   000002 000001 14                 ADSC9   2                        cn=0,n=1
        13 000060   000065 601000 13                 TNZ     s:11832

  11818 13 000061   000004 630400 14                 EPPR0   4
        13 000062   000003 631400 14                 EPPR1   3
        13 000063   000000 701000 xent               TSX1    VMD$ERRMSG
        13 000064   000000 011000                    NOP     0

      370    11832    1       call index(IX,'.', VM_HEADER_FMT.NAME#);

  11832 13 000065   000000 124400                    SCM     mask='000'O
        13 000066   000052 200074 11                 ADSC9   VM_HEADER_FMT            cn=1,n=60
        13 000067   000006 000001 14                 ADSC9   6                        cn=0,n=1
        13 000070   200216 000100                    ARG     IX,,AUTO

      371    11833    1       call binchar( substr(VM_HEADER_FMT.NAME#,IX-3,3), NAME_WIDTH);

  11833 13 000071   200221 235100                    LDA     NAME_WIDTH,,AUTO
        13 000072   000044 773000                    LRL     36
        13 000073   200230 757100                    STAQ    FORMATTED_DATE+3,,AUTO
        13 000074   200216 235100                    LDA     IX,,AUTO
        13 000075   000005 301500                    BTD
        13 000076   200230 000010                    NDSC9   FORMATTED_DATE+3,,AUTO   cn=0,s=lsgnf,sf=0,n=8
        13 000077   000051 430003 11                 NDSC9   CONVERT_TIME+11,A        cn=2,s=nosgn,sf=0,n=3

      372    11834
      373    11835            %INIT_STR( STR=VM_TITLE_FMT, CODE=E_TITLE_FMT,TEST=YES, VECT="F_FDS.FMT_");
PL6.E3A0      #001=VMD$DI_HEADER File=VMD$DISPLAY.:VMB6TSI                       WED 08/20/97 15:08 Page:34

  11842 13 000100   040000 106400                    CMPC    fill='040'O
        13 000101   000072 200074 11                 ADSC9   VM_TITLE_FMT             cn=1,n=60
        13 000102   000002 000001 14                 ADSC9   2                        cn=0,n=1
        13 000103   000111 601000 13                 TNZ     s:11847

  11844 13 000104   000010 630400 14                 EPPR0   8
        13 000105   000007 631400 14                 EPPR1   7
        13 000106   000000 701000 xent               TSX1    VMD$ERRMSG
        13 000107   000000 011000                    NOP     0

  11845 13 000110   000117 710000 13                 TRA     s:11859

  11847 13 000111   000072 236000 11                 LDQ     VM_TITLE_FMT
        13 000112   000033 772000                    QRL     27
        13 000113   000064 737000                    LLS     52
        13 000114   000140 135007                    SBLA    96,DL
        13 000115   000013 236000 14                 LDQ     11
        13 000116   000000 757000 11                 STAQ    F_FDS

      374    11858
      375    11859    1       call index(IX,'.', VM_TITLE_FMT.NAME#);

  11859 13 000117   000000 124400                    SCM     mask='000'O
        13 000120   000072 200074 11                 ADSC9   VM_TITLE_FMT             cn=1,n=60
        13 000121   000006 000001 14                 ADSC9   6                        cn=0,n=1
        13 000122   200216 000100                    ARG     IX,,AUTO

      376    11860    1       call binchar( substr(VM_TITLE_FMT.NAME#,IX-3,3), NAME_WIDTH);

  11860 13 000123   200221 235100                    LDA     NAME_WIDTH,,AUTO
        13 000124   000044 773000                    LRL     36
        13 000125   200230 757100                    STAQ    FORMATTED_DATE+3,,AUTO
        13 000126   200216 235100                    LDA     IX,,AUTO
        13 000127   000005 301500                    BTD
        13 000130   200230 000010                    NDSC9   FORMATTED_DATE+3,,AUTO   cn=0,s=lsgnf,sf=0,n=8
        13 000131   000071 430003 11                 NDSC9   VM_HEADER_FMT+15,A       cn=2,s=nosgn,sf=0,n=3
PL6.E3A0      #001=VMD$DI_HEADER File=VMD$DISPLAY.:VMB6TSI                       WED 08/20/97 15:08 Page:35

      377    11861
      378    11862            %INIT_STR( STR=VM_STATUS1, CODE=E_STATUS1, TEST=YES );

  11869 13 000132   040000 106400                    CMPC    fill='040'O
        13 000133   000112 200020 11                 ADSC9   VM_STATUS1               cn=1,n=16
        13 000134   000002 000001 14                 ADSC9   2                        cn=0,n=1
        13 000135   000142 601000 13                 TNZ     s:11892

  11871 13 000136   000014 630400 14                 EPPR0   12
        13 000137   000003 631400 14                 EPPR1   3
        13 000140   000000 701000 xent               TSX1    VMD$ERRMSG
        13 000141   000000 011000                    NOP     0

      379    11885            %INIT_STR( STR=VM_STATUS2, CODE=E_STATUS2, TEST=YES );

  11892 13 000142   040000 106400                    CMPC    fill='040'O
        13 000143   000117 200033 11                 ADSC9   VM_STATUS2               cn=1,n=27
        13 000144   000002 000001 14                 ADSC9   2                        cn=0,n=1
        13 000145   000152 601000 13                 TNZ     s:11909

  11894 13 000146   000016 630400 14                 EPPR0   14
        13 000147   000003 631400 14                 EPPR1   3
        13 000150   000000 701000 xent               TSX1    VMD$ERRMSG
        13 000151   000000 011000                    NOP     0

      380    11908
      381    11909    1       F_FDS.DCB# = DCB#;

  11909 13 000152   200005 470500                    LDP0    @DCB#,,AUTO
        13 000153   000000 720100                    LXL0    0,,PR0
        13 000154   000013 740000 11                 STX0    F_FDS+11

      382    11910
      383    11911    1       IF NEED_TITLE_BAR

  11911 13 000155   000635 234000 11                 SZN     NEED_TITLE_BAR
PL6.E3A0      #001=VMD$DI_HEADER File=VMD$DISPLAY.:VMB6TSI                       WED 08/20/97 15:08 Page:36
        13 000156   000176 605000 13                 TPL     s:11923

      384    11912    2       THEN DO;

      385    11913
      386    11914    2           NEED_TITLE_BAR = %NO#;

  11914 13 000157   000635 450000 11                 STZ     NEED_TITLE_BAR

      387    11915    2           VECT_ARRAY(0) = VECTOR (TEMPBUF);

  11915 13 000160   000020 235000 14                 LDA     16
        13 000161   200230 452500                    STP2    FORMATTED_DATE+3,,AUTO
        13 000162   200230 236100                    LDQ     FORMATTED_DATE+3,,AUTO
        13 000163   000115 036003                    ADLQ    77,DU
        13 000164   000636 757000 11                 STAQ    VECT_ARRAY

      388    11916    2           TEMPBUF = substr(VM_STATUS1.NAME#,10,6);

  11916 13 000165   040100 100400                    MLR     fill='040'O
        13 000166   000114 600006 11                 ADSC9   VM_STATUS1+2             cn=3,n=6
        13 000167   200115 000400                    ADSC9   TEMPBUF,,AUTO            cn=0,n=256

      389    11917    2           F_FDS.NVECS# = 1;

  11917 13 000170   000001 235007                    LDA     1,DL
        13 000171   000011 755000 11                 STA     F_FDS+9

      390    11918
      391    11919    2           CALL VMD$WRITE_BUF_TRUNCATED (F_FDS);

  11919 13 000172   000012 630400 14                 EPPR0   10
        13 000173   000021 631400 14                 EPPR1   17
        13 000174   000000 701000 xent               TSX1    VMD$WRITE_BUF_TRUNCATED
        13 000175   000000 011000                    NOP     0

      392    11920
PL6.E3A0      #001=VMD$DI_HEADER File=VMD$DISPLAY.:VMB6TSI                       WED 08/20/97 15:08 Page:37
      393    11921    2       END;

      394    11922
      395    11923    1       VECT_ARRAY(0) = VECTOR(MESSAGE_NUMBER);

  11923 13 000176   777640 235007                    LDA     -96,DL
        13 000177   200004 236100                    LDQ     @MESSAGE_NUMBER,,AUTO
        13 000200   000636 757000 11                 STAQ    VECT_ARRAY

      396    11924
      397    11925    1       FLAG_CHAR = ' ';

  11925 13 000201   040000 236003                    LDQ     16384,DU
        13 000202   200217 756100                    STQ     FLAG_CHAR,,AUTO

      398    11926    1       IX = -1;

  11926 13 000203   000001 335007                    LCA     1,DL
        13 000204   200216 755100                    STA     IX,,AUTO

      399    11927    1       IF VM_HEADER.STATUS.DEL

  11927 13 000205   200003 470500                    LDP0    @VM_HEADER,,AUTO
        13 000206   000012 236100                    LDQ     10,,PR0
        13 000207   000400 316003                    CANQ    256,DU
        13 000210   000213 600000 13                 TZE     s:11929

      400    11928    1       then IX= 0;

  11928 13 000211   200216 450100                    STZ     IX,,AUTO
        13 000212   000233 710000 13                 TRA     s:11936

      401    11929    1       else if not VM_HEADER.STATUS.OLD and not VM_HEADER.STATUS.MAKE_OLD

  11929 13 000213   004000 316003                    CANQ    2048,DU
        13 000214   000222 601000 13                 TNZ     s:11931
        13 000215   002000 316003                    CANQ    1024,DU
PL6.E3A0      #001=VMD$DI_HEADER File=VMD$DISPLAY.:VMB6TSI                       WED 08/20/97 15:08 Page:38
        13 000216   000222 601000 13                 TNZ     s:11931

      402    11930    1           then IX = 1;

  11930 13 000217   000001 235007                    LDA     1,DL
        13 000220   200216 755100                    STA     IX,,AUTO
        13 000221   000233 710000 13                 TRA     s:11936

      403    11931    1           else if not VM_HEADER.STATUS.EXAM

  11931 13 000222   000012 430100                    FSZN    10,,PR0
        13 000223   000227 604000 13                 TMI     s:11933

      404    11932    1               then IX = 2;

  11932 13 000224   000002 235007                    LDA     2,DL
        13 000225   200216 755100                    STA     IX,,AUTO
        13 000226   000233 710000 13                 TRA     s:11936

      405    11933    1               else if VM_HEADER.STATUS.MARK

  11933 13 000227   000100 316003                    CANQ    64,DU
        13 000230   000233 600000 13                 TZE     s:11936

      406    11934    1                   then IX = 3;

  11934 13 000231   000003 235007                    LDA     3,DL
        13 000232   200216 755100                    STA     IX,,AUTO

      407    11935
      408    11936    1       if IX >= 0 then FLAG_CHAR = substr(VM_STATUS1.NAME#,IX,1);

  11936 13 000233   200216 235100                    LDA     IX,,AUTO
        13 000234   000240 604000 13                 TMI     s:11938

  11936 13 000235   040100 100405                    MLR     fill='040'O
        13 000236   000112 200001 11                 ADSC9   VM_STATUS1,A             cn=1,n=1
PL6.E3A0      #001=VMD$DI_HEADER File=VMD$DISPLAY.:VMB6TSI                       WED 08/20/97 15:08 Page:39
        13 000237   200217 000001                    ADSC9   FLAG_CHAR,,AUTO          cn=0,n=1

      409    11937
      410    11938    1       VECT_ARRAY(1) = VECTOR(FLAG_CHAR);

  11938 13 000240   177640 235007                    LDA     65440,DL
        13 000241   200230 452500                    STP2    FORMATTED_DATE+3,,AUTO
        13 000242   200230 236100                    LDQ     FORMATTED_DATE+3,,AUTO
        13 000243   000217 036003                    ADLQ    143,DU
        13 000244   000640 757000 11                 STAQ    VECT_ARRAY+2

      411    11939
      412    11940    1       CONVERT_TIME.V.SOURCE# = %CLOCK#;

  11940 13 000245   000000 236003                    LDQ     0,DU
        13 000246   000050 552040 11                 STBQ    CONVERT_TIME+10,'40'O

      413    11941    1       CALL M$TIME (CONVERT_TIME);

  11941 13 000247   000036 630400 11                 EPPR0   CONVERT_TIME
        13 000250   020004 713400                    CLIMB   8196
        13 000251   402000 401760                    pmme    nvectors=5

      414    11942    1       TODAYS_DATE_STRING = DATE_STRING;

  11942 13 000252   040100 100400                    MLR     fill='040'O
        13 000253   000657 000010 11                 ADSC9   DATE_STRING              cn=0,n=8
        13 000254   200223 000010                    ADSC9   TODAYS_DATE_STRING,,AUTO cn=0,n=8

      415    11943
      416    11944    1       CONVERT_TIME.V.SOURCE# = %UTS#;

  11944 13 000255   004000 236003                    LDQ     2048,DU
        13 000256   000050 552040 11                 STBQ    CONVERT_TIME+10,'40'O

      417    11945    1       UTS = VM_HEADER.CREATION_DATE;

PL6.E3A0      #001=VMD$DI_HEADER File=VMD$DISPLAY.:VMB6TSI                       WED 08/20/97 15:08 Page:40
  11945 13 000257   200003 470500                    LDP0    @VM_HEADER,,AUTO
        13 000260   000001 235100                    LDA     1,,PR0
        13 000261   000656 755000 11                 STA     UTS

      418    11946    1       CALL M$TIME (CONVERT_TIME);

  11946 13 000262   000036 630400 11                 EPPR0   CONVERT_TIME
        13 000263   020004 713400                    CLIMB   8196
        13 000264   402000 401760                    pmme    nvectors=5

      419    11947
      420    11948    1       IF SUBSTR (DATE_STRING, 6, 2) = SUBSTR (TODAYS_DATE_STRING, 6, 2)

  11948 13 000265   000660 236000 11                 LDQ     DATE_STRING+1
        13 000266   200224 676100                    ERQ     TODAYS_DATE_STRING+1,,AUTO
        13 000267   777777 376007                    ANQ     -1,DL
        13 000270   000302 601000 13                 TNZ     s:11954

      421    11949    1       THEN
      422    11950    1           CALL CONCAT (FORMATTED_DATE, SUBSTR (DATE_STRING, 0, 5), ' ',

  11950 13 000271   040100 100400                    MLR     fill='040'O
        13 000272   000657 000005 11                 ADSC9   DATE_STRING              cn=0,n=5
        13 000273   200225 000005                    ADSC9   FORMATTED_DATE,,AUTO     cn=0,n=5
        13 000274   000040 236003                    LDQ     32,DU
        13 000275   200226 552120                    STBQ    FORMATTED_DATE+1,'20'O,AUTO
        13 000276   040100 100400                    MLR     fill='040'O
        13 000277   000661 000005 11                 ADSC9   TIME_STRING              cn=0,n=5
        13 000300   200226 400005                    ADSC9   FORMATTED_DATE+1,,AUTO   cn=2,n=5
        13 000301   000321 710000 13                 TRA     s:11959

      423    11951    1             SUBSTR (TIME_STRING, 0, 5));
      424    11952    1       ELSE
      425    11953    2       do;

      426    11954    2           IX = 7;

PL6.E3A0      #001=VMD$DI_HEADER File=VMD$DISPLAY.:VMB6TSI                       WED 08/20/97 15:08 Page:41
  11954 13 000302   000007 235007                    LDA     7,DL
        13 000303   200216 755100                    STA     IX,,AUTO

      427    11955    2           if TIME_STRING < '12:00:00.00' then IX = 4;

  11955 13 000304   040000 106400                    CMPC    fill='040'O
        13 000305   000661 000013 11                 ADSC9   TIME_STRING              cn=0,n=11
        13 000306   000135 000013 12                 ADSC9   SPACE+1                  cn=0,n=11
        13 000307   000312 603000 13                 TRC     s:11956

  11955 13 000310   000004 236007                    LDQ     4,DL
        13 000311   200216 756100                    STQ     IX,,AUTO

      428    11956    2           call concat(FORMATTED_DATE, DATE_STRING, substr(VM_STATUS1.NAME#,IX,3));

  11956 13 000312   040100 100400                    MLR     fill='040'O
        13 000313   000657 000010 11                 ADSC9   DATE_STRING              cn=0,n=8
        13 000314   200225 000010                    ADSC9   FORMATTED_DATE,,AUTO     cn=0,n=8
        13 000315   200216 236100                    LDQ     IX,,AUTO
        13 000316   040100 100406                    MLR     fill='040'O
        13 000317   000112 200003 11                 ADSC9   VM_STATUS1,Q             cn=1,n=3
        13 000320   200227 000003                    ADSC9   FORMATTED_DATE+2,,AUTO   cn=0,n=3

      429    11957    2       end;

      430    11958
      431    11959    1       VECT_ARRAY(2) = VECTOR(FORMATTED_DATE);

  11959 13 000321   000022 235000 14                 LDA     18
        13 000322   200230 452500                    STP2    FORMATTED_DATE+3,,AUTO
        13 000323   200230 236100                    LDQ     FORMATTED_DATE+3,,AUTO
        13 000324   000225 036003                    ADLQ    149,DU
        13 000325   000642 757000 11                 STAQ    VECT_ARRAY+4

      432    11960
      433    11961    1       IX = -1;

PL6.E3A0      #001=VMD$DI_HEADER File=VMD$DISPLAY.:VMB6TSI                       WED 08/20/97 15:08 Page:42
  11961 13 000326   000001 335007                    LCA     1,DL
        13 000327   200216 755100                    STA     IX,,AUTO

      434    11962    1       MSG_TYPE = ' ';

  11962 13 000330   000023 236000 14                 LDQ     19
        13 000331   200220 756100                    STQ     MSG_TYPE,,AUTO

      435    11963    1       IF VM_HEADER.STATUS.ERR

  11963 13 000332   200003 470500                    LDP0    @VM_HEADER,,AUTO
        13 000333   000012 234100                    SZN     10,,PR0
        13 000334   000337 605000 13                 TPL     s:11965

      436    11964    1       then IX = 0;

  11964 13 000335   200216 450100                    STZ     IX,,AUTO
        13 000336   000407 710000 13                 TRA     s:11981

      437    11965    1       else if VM_HEADER.STATUS.ACK

  11965 13 000337   000012 236100                    LDQ     10,,PR0
        13 000340   100000 316003                    CANQ    32768,DU
        13 000341   000345 600000 13                 TZE     s:11967

      438    11966    1           then IX = 3;

  11966 13 000342   000003 235007                    LDA     3,DL
        13 000343   200216 755100                    STA     IX,,AUTO
        13 000344   000407 710000 13                 TRA     s:11981

      439    11967    1           else if VM_HEADER.STATUS.DELIVERY

  11967 13 000345   000002 316003                    CANQ    2,DU
        13 000346   000352 600000 13                 TZE     s:11969

      440    11968    1               then IX = 6;
PL6.E3A0      #001=VMD$DI_HEADER File=VMD$DISPLAY.:VMB6TSI                       WED 08/20/97 15:08 Page:43

  11968 13 000347   000006 235007                    LDA     6,DL
        13 000350   200216 755100                    STA     IX,,AUTO
        13 000351   000407 710000 13                 TRA     s:11981

      441    11969    1               else if VM_HEADER.STATUS.FCOPY

  11969 13 000352   000200 316003                    CANQ    128,DU
        13 000353   000357 600000 13                 TZE     s:11971

      442    11970    1                   then IX = 9;

  11970 13 000354   000011 235007                    LDA     9,DL
        13 000355   200216 755100                    STA     IX,,AUTO
        13 000356   000407 710000 13                 TRA     s:11981

      443    11971    1                   else if VM_HEADER.STATUS.ANSWER

  11971 13 000357   200000 316003                    CANQ    65536,DU
        13 000360   000364 600000 13                 TZE     s:11973

      444    11972    1                       then IX = 12;

  11972 13 000361   000014 235007                    LDA     12,DL
        13 000362   200216 755100                    STA     IX,,AUTO
        13 000363   000407 710000 13                 TRA     s:11981

      445    11973    1                       else if VM_HEADER.STATUS.FORWARDED

  11973 13 000364   000020 316003                    CANQ    16,DU
        13 000365   000371 600000 13                 TZE     s:11975

      446    11974    1                           then IX = 15;

  11974 13 000366   000017 235007                    LDA     15,DL
        13 000367   200216 755100                    STA     IX,,AUTO
        13 000370   000407 710000 13                 TRA     s:11981
PL6.E3A0      #001=VMD$DI_HEADER File=VMD$DISPLAY.:VMB6TSI                       WED 08/20/97 15:08 Page:44

      447    11975    1                           else if VM_HEADER.STATUS.BROADCAST

  11975 13 000371   000001 316003                    CANQ    1,DU
        13 000372   000376 600000 13                 TZE     s:11977

      448    11976    1                               then IX = 18;

  11976 13 000373   000022 235007                    LDA     18,DL
        13 000374   200216 755100                    STA     IX,,AUTO
        13 000375   000407 710000 13                 TRA     s:11981

      449    11977    1                               else if VM_HEADER.STATUS.RRACK

  11977 13 000376   020000 316007                    CANQ    8192,DL
        13 000377   000403 600000 13                 TZE     s:11979

      450    11978    1                                   then IX = 21;

  11978 13 000400   000025 235007                    LDA     21,DL
        13 000401   200216 755100                    STA     IX,,AUTO
        13 000402   000407 710000 13                 TRA     s:11981

      451    11979    1                                   else if VM_HEADER.STATUS.ENCL

  11979 13 000403   004000 316007                    CANQ    2048,DL
        13 000404   000407 600000 13                 TZE     s:11981

      452    11980    1                                       then IX = 24;

  11980 13 000405   000030 235007                    LDA     24,DL
        13 000406   200216 755100                    STA     IX,,AUTO

      453    11981    1       if IX >= 0

  11981 13 000407   200216 235100                    LDA     IX,,AUTO
        13 000410   000414 604000 13                 TMI     s:11984
PL6.E3A0      #001=VMD$DI_HEADER File=VMD$DISPLAY.:VMB6TSI                       WED 08/20/97 15:08 Page:45

      454    11982    1       then MSG_TYPE = substr( VM_STATUS2.NAME#, IX, 3);

  11982 13 000411   040100 100405                    MLR     fill='040'O
        13 000412   000117 200003 11                 ADSC9   VM_STATUS2,A             cn=1,n=3
        13 000413   200220 000003                    ADSC9   MSG_TYPE,,AUTO           cn=0,n=3

      455    11983
      456    11984    1       VECT_ARRAY(3) = VECTOR(MSG_TYPE);

  11984 13 000414   577640 235007                    LDA     -65632,DL
        13 000415   200230 452500                    STP2    FORMATTED_DATE+3,,AUTO
        13 000416   200230 236100                    LDQ     FORMATTED_DATE+3,,AUTO
        13 000417   000220 036003                    ADLQ    144,DU
        13 000420   000644 757000 11                 STAQ    VECT_ARRAY+6

      457    11985    1       VECT_ARRAY(4) = VECTOR(VM_HEADER.NUM_RECORDS);

  11985 13 000421   777640 235007                    LDA     -96,DL
        13 000422   200003 236100                    LDQ     @VM_HEADER,,AUTO
        13 000423   000011 036003                    ADLQ    9,DU
        13 000424   000646 757000 11                 STAQ    VECT_ARRAY+8

      458    11986
      459    11987    1       IF VM_HEADER.FROM$ ~= ADDR(NIL)

  11987 13 000425   000023 236100                    LDQ     19,,PR0
        13 000426   000024 116000 14                 CMPQ    20
        13 000427   000574 600000 13                 TZE     s:12011

      460    11988    1       THEN
      461    11989    2       DO;

      462    11990    2           CALL INDEX1R (I, '@', VM_HEADER.FROM$ -> X$STRING.TEXT);

  11990 13 000430   000023 471500                    LDP1    19,,PR0
        13 000431   000100 101500                    MRL     fill='000'O
PL6.E3A0      #001=VMD$DI_HEADER File=VMD$DISPLAY.:VMB6TSI                       WED 08/20/97 15:08 Page:46
        13 000432   100000 000001                    ADSC9   0,,PR1                   cn=0,n=1
        13 000433   200230 000002                    ADSC9   FORMATTED_DATE+3,,AUTO   cn=0,n=2
        13 000434   200230 220100                    LDX0    FORMATTED_DATE+3,,AUTO
        13 000435   000000 636010                    EAQ     0,X0
        13 000436   000022 772000                    QRL     18
        13 000437   000000 125540                    SCMR    mask='000'O
        13 000440   100000 200010                    ADSC9   0,,PR1                   cn=1,n=*X0
        13 000441   000025 000001 14                 ADSC9   21                       cn=0,n=1
        13 000442   200215 000100                    ARG     I,,AUTO
        13 000443   000446 606400 13                 TTN     s:11991
        13 000444   200215 054100                    AOS     I,,AUTO
        13 000445   200215 156100                    SSQ     I,,AUTO

      463    11991    2           CALL INDEX (I, ' /', SUBSTR (VM_HEADER.FROM$ -> X$STRING.TEXT, 0, I));

  11991 13 000446   000023 471500                    LDP1    19,,PR0
        13 000447   000100 101500                    MRL     fill='000'O
        13 000450   100000 000001                    ADSC9   0,,PR1                   cn=0,n=1
        13 000451   200230 000002                    ADSC9   FORMATTED_DATE+3,,AUTO   cn=0,n=2
        13 000452   200230 220100                    LDX0    FORMATTED_DATE+3,,AUTO
        13 000453   200215 721100                    LXL1    I,,AUTO
        13 000454   000000 120540                    SCD
        13 000455   100000 200011                    ADSC9   0,,PR1                   cn=1,n=*X1
        13 000456   000140 000002 12                 ADSC9   SPACE+4                  cn=0,n=2
        13 000457   200215 000100                    ARG     I,,AUTO
        13 000460   000462 607000 13                 TTF     s:11992
        13 000461   200215 054100                    AOS     I,,AUTO

      464    11992    3           DO WHILE I > 0;

  11992 13 000462   200215 236100                    LDQ     I,,AUTO
        13 000463   000503 604400 13                 TMOZ    s:11999

      465    11993    3               IF SUBSTR (VM_HEADER.FROM$ -> X$STRING.TEXT, I-1, 1) = ' '

  11993 13 000464   200003 470500                    LDP0    @VM_HEADER,,AUTO
        13 000465   000023 471500                    LDP1    19,,PR0
PL6.E3A0      #001=VMD$DI_HEADER File=VMD$DISPLAY.:VMB6TSI                       WED 08/20/97 15:08 Page:47
        13 000466   000100 101500                    MRL     fill='000'O
        13 000467   100000 000001                    ADSC9   0,,PR1                   cn=0,n=1
        13 000470   200230 000002                    ADSC9   FORMATTED_DATE+3,,AUTO   cn=0,n=2
        13 000471   200230 220100                    LDX0    FORMATTED_DATE+3,,AUTO
        13 000472   200215 235100                    LDA     I,,AUTO
        13 000473   040000 106505                    CMPC    fill='040'O
        13 000474   100000 000001                    ADSC9   0,A,PR1                  cn=0,n=1
        13 000475   000002 000001 14                 ADSC9   2                        cn=0,n=1
        13 000476   000503 601000 13                 TNZ     s:11999

      466    11994    3               THEN
      467    11995    3                   I = I - 1;

  11995 13 000477   000001 336007                    LCQ     1,DL
        13 000500   200215 056100                    ASQ     I,,AUTO
        13 000501   000502 710000 13                 TRA     s:11998

      468    11996    3               ELSE
      469    11997    3                   EXIT;
      470    11998    3           END;

  11998 13 000502   000464 605400 13                 TPNZ    s:11993

      471    11999    2           IF I + 2 <= NAME_WIDTH

  11999 13 000503   200215 236100                    LDQ     I,,AUTO
        13 000504   000002 036007                    ADLQ    2,DL
        13 000505   000511 604000 13                 TMI     s:12001
        13 000506   200221 116100                    CMPQ    NAME_WIDTH,,AUTO
        13 000507   000511 600000 13                 TZE     s:12001
        13 000510   000537 603000 13                 TRC     s:12005

      472    12000    3           THEN DO;

      473    12001    3               CALL CONCAT (TEMPBUF, '(', SUBSTR (VM_HEADER.FROM$ -> X$STRING.TEXT, 0,
             12001                        I), ')');

PL6.E3A0      #001=VMD$DI_HEADER File=VMD$DISPLAY.:VMB6TSI                       WED 08/20/97 15:08 Page:48
  12001 13 000511   000023 471500                    LDP1    19,,PR0
        13 000512   000100 101500                    MRL     fill='000'O
        13 000513   100000 000001                    ADSC9   0,,PR1                   cn=0,n=1
        13 000514   200230 000002                    ADSC9   FORMATTED_DATE+3,,AUTO   cn=0,n=2
        13 000515   200230 220100                    LDX0    FORMATTED_DATE+3,,AUTO
        13 000516   050000 236003                    LDQ     20480,DU
        13 000517   200115 756100                    STQ     TEMPBUF,,AUTO
        13 000520   200215 721100                    LXL1    I,,AUTO
        13 000521   040100 100540                    MLR     fill='040'O
        13 000522   100000 200011                    ADSC9   0,,PR1                   cn=1,n=*X1
        13 000523   200115 200377                    ADSC9   TEMPBUF,,AUTO            cn=1,n=255
        13 000524   200215 236100                    LDQ     I,,AUTO
        13 000525   000377 116007                    CMPQ    255,DL
        13 000526   000534 605000 13                 TPL     s:12002
        13 000527   777400 622006                    EAX2    -256,QL
        13 000530   777777 662003                    ERX2    -1,DU
        13 000531   040146 100400                    MLR     fill='040'O
        13 000532   000026 000001 14                 ADSC9   22                       cn=0,n=1
        13 000533   200115 200012                    ADSC9   TEMPBUF,Q,AUTO           cn=1,n=*X2

      474    12002    3               LEN = I + 2;

  12002 13 000534   000002 036007                    ADLQ    2,DL
        13 000535   200222 756100                    STQ     LEN,,AUTO

      475    12003    3           END;

  12003 13 000536   000564 710000 13                 TRA     s:12008

      476    12004    3           ELSE DO;

      477    12005    3               CALL CONCAT (TEMPBUF, '(', SUBSTR (VM_HEADER.FROM$ -> X$STRING.TEXT, 0,
             12005                        NAME_WIDTH - 2), '>');

  12005 13 000537   000023 471500                    LDP1    19,,PR0
        13 000540   000100 101500                    MRL     fill='000'O
        13 000541   100000 000001                    ADSC9   0,,PR1                   cn=0,n=1
PL6.E3A0      #001=VMD$DI_HEADER File=VMD$DISPLAY.:VMB6TSI                       WED 08/20/97 15:08 Page:49
        13 000542   200230 000002                    ADSC9   FORMATTED_DATE+3,,AUTO   cn=0,n=2
        13 000543   200230 220100                    LDX0    FORMATTED_DATE+3,,AUTO
        13 000544   050000 236003                    LDQ     20480,DU
        13 000545   200115 756100                    STQ     TEMPBUF,,AUTO
        13 000546   200221 721100                    LXL1    NAME_WIDTH,,AUTO
        13 000547   777776 622011                    EAX2    -2,X1
        13 000550   040100 100540                    MLR     fill='040'O
        13 000551   100000 200012                    ADSC9   0,,PR1                   cn=1,n=*X2
        13 000552   200115 200377                    ADSC9   TEMPBUF,,AUTO            cn=1,n=255
        13 000553   200221 236100                    LDQ     NAME_WIDTH,,AUTO
        13 000554   000401 116007                    CMPQ    257,DL
        13 000555   000563 603000 13                 TRC     s:12006
        13 000556   777376 623006                    EAX3    -258,QL
        13 000557   777777 663003                    ERX3    -1,DU
        13 000560   040146 100400                    MLR     fill='040'O
        13 000561   000027 000001 14                 ADSC9   23                       cn=0,n=1
        13 000562   200114 600013                    ADSC9   WORK_BUF+12,Q,AUTO       cn=3,n=*X3

      478    12006    3               LEN = NAME_WIDTH;

  12006 13 000563   200222 756100                    STQ     LEN,,AUTO

      479    12007    3           END;

      480    12008    2           VECT_ARRAY(5) = VECTOR(SUBSTR(TEMPBUF,0,LEN));

  12008 13 000564   200222 235100                    LDA     LEN,,AUTO
        13 000565   000020 735000                    ALS     16
        13 000566   000140 135007                    SBLA    96,DL
        13 000567   200230 452500                    STP2    FORMATTED_DATE+3,,AUTO
        13 000570   200230 236100                    LDQ     FORMATTED_DATE+3,,AUTO
        13 000571   000115 036003                    ADLQ    77,DU
        13 000572   000650 757000 11                 STAQ    VECT_ARRAY+10

      481    12009    2       END;

  12009 13 000573   000576 710000 13                 TRA     s:12013
PL6.E3A0      #001=VMD$DI_HEADER File=VMD$DISPLAY.:VMB6TSI                       WED 08/20/97 15:08 Page:50

      482    12010    1       ELSE
      483    12011    1           VECT_ARRAY(5) = VECTOR(SPACE);

  12011 13 000574   000030 237000 14                 LDAQ    24
        13 000575   000650 757000 11                 STAQ    VECT_ARRAY+10

      484    12012
      485    12013    1       IF VM_HEADER.SUBJECT$ ~= ADDR(NIL)

  12013 13 000576   000030 236100                    LDQ     24,,PR0
        13 000577   000024 116000 14                 CMPQ    20
        13 000600   000635 600000 13                 TZE     s:12020
        13 000601   000030 471500                    LDP1    24,,PR0
        13 000602   000100 101500                    MRL     fill='000'O
        13 000603   100000 000001                    ADSC9   0,,PR1                   cn=0,n=1
        13 000604   200230 000004                    ADSC9   FORMATTED_DATE+3,,AUTO   cn=0,n=4
        13 000605   200230 236100                    LDQ     FORMATTED_DATE+3,,AUTO
        13 000606   000000 116003                    CMPQ    0,DU
        13 000607   000635 600000 13                 TZE     s:12020

      486    12014    1         AND VM_HEADER.SUBJECT$ -> X$STRING.SIZ > 0
      487    12015    2       THEN DO;

      488    12016    2           CALL X$STRIP_BLANKS(VM_HEADER.SUBJECT$); /*strip blanks */

  12016 13 000610   200003 236100                    LDQ     @VM_HEADER,,AUTO
        13 000611   000030 036003                    ADLQ    24,DU
        13 000612   200230 756100                    STQ     FORMATTED_DATE+3,,AUTO
        13 000613   200230 630500                    EPPR0   FORMATTED_DATE+3,,AUTO
        13 000614   000021 631400 14                 EPPR1   17
        13 000615   000000 701000 xent               TSX1    X$STRIP_BLANKS
        13 000616   000000 011000                    NOP     0

      489    12017    2           VECT_ARRAY(6) = VECTOR(VM_HEADER.SUBJECT$ -> X$STRING.TEXT);

  12017 13 000617   200003 470500                    LDP0    @VM_HEADER,,AUTO
PL6.E3A0      #001=VMD$DI_HEADER File=VMD$DISPLAY.:VMB6TSI                       WED 08/20/97 15:08 Page:51
        13 000620   000030 471500                    LDP1    24,,PR0
        13 000621   000100 101500                    MRL     fill='000'O
        13 000622   100000 000001                    ADSC9   0,,PR1                   cn=0,n=1
        13 000623   200230 000002                    ADSC9   FORMATTED_DATE+3,,AUTO   cn=0,n=2
        13 000624   200230 220100                    LDX0    FORMATTED_DATE+3,,AUTO
        13 000625   000000 635010                    EAA     0,X0
        13 000626   000002 771000                    ARL     2
        13 000627   000140 135007                    SBLA    96,DL
        13 000630   200231 451500                    STP1    FORMATTED_DATE+4,,AUTO
        13 000631   200231 236100                    LDQ     FORMATTED_DATE+4,,AUTO
        13 000632   200000 036007                    ADLQ    65536,DL
        13 000633   000652 757000 11                 STAQ    VECT_ARRAY+12

      490    12018    2       END;

  12018 13 000634   000637 710000 13                 TRA     s:12022

      491    12019    1       ELSE
      492    12020    1           VECT_ARRAY(6) = VECTOR(SPACE);

  12020 13 000635   000030 237000 14                 LDAQ    24
        13 000636   000652 757000 11                 STAQ    VECT_ARRAY+12

      493    12021
      494    12022    1       F_FDS.FMT_ = vector( substr(VM_HEADER_FMT.NAME#,,VM_HEADER_FMT.L#) );

  12022 13 000637   000052 236000 11                 LDQ     VM_HEADER_FMT
        13 000640   000033 772000                    QRL     27
        13 000641   000064 737000                    LLS     52
        13 000642   000140 135007                    SBLA    96,DL
        13 000643   000032 236000 14                 LDQ     26
        13 000644   000000 757000 11                 STAQ    F_FDS

      495    12023    1       F_FDS.NVECS# = 7;

  12023 13 000645   000007 235007                    LDA     7,DL
        13 000646   000011 755000 11                 STA     F_FDS+9
PL6.E3A0      #001=VMD$DI_HEADER File=VMD$DISPLAY.:VMB6TSI                       WED 08/20/97 15:08 Page:52

      496    12024    1       CALL VMD$WRITE_BUF_TRUNCATED(F_FDS);

  12024 13 000647   000012 630400 14                 EPPR0   10
        13 000650   000021 631400 14                 EPPR1   17
        13 000651   000000 701000 xent               TSX1    VMD$WRITE_BUF_TRUNCATED
        13 000652   000000 011000                    NOP     0

      497    12025    1       RETURN;

  12025 13 000653   000000 702200 xent               TSX2  ! X66_ARET

F_FDS
 Sect OctLoc
  11     000   000000 177640   000000 006014   000000 000000   000000 000000    ................
  11     004   000000 000000   000000 177640   000000 006014   000000 000001    ................
  11     010   000000 000000   000000 000000   000636 006000   000000 101500    ..............A.
  11     014   000000 000000   000000 000000   000000 000001   000000 000012    ................
  11     020   000000 000000   ****** ******   ****** ******   000000 000000    ................
  11     024   000000 000000   000000 000000   000000 000000   000000 006014    ................
  11     030   000000 006014   000000 006014   000000 006014   000000 000000    ................
  11     034   000000 000000   000000 000000                                    ........

CONVERT_TIME
 Sect OctLoc
  11     036   000001 777640   000050 006000   000001 777640   000657 006000    .....(..........
  11     042   000002 577640   000661 006000   000000 177640   000000 006014    ................
  11     046   000000 777640   000656 006000   000003 000000   ****** ******    ................

VM_HEADER_FMT
 Sect OctLoc
  11     052   074040 040040   040040 040040   040040 040040   040040 040040    <
  11     056   040040 040040   040040 040040   040040 040040   040040 040040
  11     066*  040040 040040   040040 040040   040040 040040   040*** ******                 ...

VM_TITLE_FMT
 Sect OctLoc
PL6.E3A0      #001=VMD$DI_HEADER File=VMD$DISPLAY.:VMB6TSI                       WED 08/20/97 15:08 Page:53
  11     072   074040 040040   040040 040040   040040 040040   040040 040040    <
  11     076   040040 040040   040040 040040   040040 040040   040040 040040
  11     106*  040040 040040   040040 040040   040040 040040   040*** ******                 ...

VM_STATUS1
 Sect OctLoc
  11     112   020040 040040   040040 040040   040040 040040   040040 040040    .
  11     116   040*** ******                                                     ...

VM_STATUS2
 Sect OctLoc
  11     117   033040 040040   040040 040040   040040 040040   040040 040040    .
  11     123   040040 040040   040040 040040   040040 040040

VM_DATE_NUMBER_FMT
 Sect OctLoc
  11     126   120040 040040   040040 040040   040040 040040   040040 040040    P
  11     132   040040 040040   040040 040040   040040 040040   040040 040040
  11     152*  040*** ******                                                     ...

VM_TO_FROM_FMT
 Sect OctLoc
  11     153   073040 040040   040040 040040   040040 040040   040040 040040    ;
  11     157   040040 040040   040040 040040   040040 040040   040040 040040
  11     167*  040040 040040   040040 040040   040040 040040

VM_SUBJECT_FMT
 Sect OctLoc
  11     172   047040 040040   040040 040040   040040 040040   040040 040040    '
  11     176   040040 040040   040040 040040   040040 040040   040040 040040
  11     202   040040 040040   040040 040040

VM_SUBJECT_FMT1
 Sect OctLoc
  11     204   047040 040040   040040 040040   040040 040040   040040 040040    '
  11     210   040040 040040   040040 040040   040040 040040   040040 040040
  11     214   040040 040040   040040 040040
PL6.E3A0      #001=VMD$DI_HEADER File=VMD$DISPLAY.:VMB6TSI                       WED 08/20/97 15:08 Page:54

VM_REPLY_TO_FMT
 Sect OctLoc
  11     216   047040 040040   040040 040040   040040 040040   040040 040040    '
  11     222   040040 040040   040040 040040   040040 040040   040040 040040
  11     226   040040 040040   040040 040040

VM_REFERENCE_FMT
 Sect OctLoc
  11     230   047040 040040   040040 040040   040040 040040   040040 040040    '
  11     234   040040 040040   040040 040040   040040 040040   040040 040040
  11     240   040040 040040   040040 040040

VM_REFERENCE_FMT1
 Sect OctLoc
  11     242   047040 040040   040040 040040   040040 040040   040040 040040    '
  11     246   040040 040040   040040 040040   040040 040040   040040 040040
  11     252   040040 040040   040040 040040

VM_REFERENCE_AND_ID_FMT
 Sect OctLoc
  11     254   027040 040040   040040 040040   040040 040040   040040 040040    .
  11     260   040040 040040   040040 040040

VM_RE_STRING
 Sect OctLoc
  11     262   027040 040040   040040 040040   040040 040040   040040 040040    .
  11     266   040040 040040   040040 040040

VM_COPY_FMT
 Sect OctLoc
  11     270   027040 040040   040040 040040   040040 040040   040040 040040    .
  11     274   040040 040040   040040 040040

VM_COPY_FMT1
 Sect OctLoc
  11     276   027040 040040   040040 040040   040040 040040   040040 040040    .
PL6.E3A0      #001=VMD$DI_HEADER File=VMD$DISPLAY.:VMB6TSI                       WED 08/20/97 15:08 Page:55
  11     302   040040 040040   040040 040040

VM_BLIND_COPY_FMT
 Sect OctLoc
  11     304   027040 040040   040040 040040   040040 040040   040040 040040    .
  11     310   040040 040040   040040 040040

VM_BLIND_COPY_FMT1
 Sect OctLoc
  11     312   027040 040040   040040 040040   040040 040040   040040 040040    .
  11     316   040040 040040   040040 040040

VM_CONTINUATION_FMT
 Sect OctLoc
  11     320   023040 040040   040040 040040   040040 040040   040040 040040    .
  11     324   040040 040040

VM_ERROR_ADDRESS_FMT
 Sect OctLoc
  11     325   053040 040040   040040 040040   040040 040040   040040 040040    +
  11     331   040040 040040   040040 040040   040040 040040   040040 040040
  11     335   040040 040040   040040 040040   040040 040040

VM_TO_FMT
 Sect OctLoc
  11     340   027040 040040   040040 040040   040040 040040   040040 040040    .
  11     344   040040 040040   040040 040040

VM_FCOPY_FMT
 Sect OctLoc
  11     346   027040 040040   040040 040040   040040 040040   040040 040040    .
  11     352   040040 040040   040040 040040

VM_SIGNED_FMT
 Sect OctLoc
  11     354   027040 040040   040040 040040   040040 040040   040040 040040    .
  11     360   040040 040040   040040 040040
PL6.E3A0      #001=VMD$DI_HEADER File=VMD$DISPLAY.:VMB6TSI                       WED 08/20/97 15:08 Page:56

VM_RR_FMT
 Sect OctLoc
  11     362   047040 040040   040040 040040   040040 040040   040040 040040    '
  11     366   040040 040040   040040 040040   040040 040040   040040 040040
  11     372   040040 040040   040040 040040

VM_RTO_FMT
 Sect OctLoc
  11     374   047040 040040   040040 040040   040040 040040   040040 040040    '
  11     400   040040 040040   040040 040040   040040 040040   040040 040040
  11     404   040040 040040   040040 040040

VM_DEFER_FMT
 Sect OctLoc
  11     406   047040 040040   040040 040040   040040 040040   040040 040040    '
  11     412   040040 040040   040040 040040   040040 040040   040040 040040
  11     416   040040 040040   040040 040040

VM_DEFER_FMT1
 Sect OctLoc
  11     420   047040 040040   040040 040040   040040 040040   040040 040040    '
  11     424   040040 040040   040040 040040   040040 040040   040040 040040
  11     430   040040 040040   040040 040040

VM_OPTS_FMT
 Sect OctLoc
  11     432   123040 040040   040040 040040   040040 040040   040040 040040    S
  11     436   040040 040040   040040 040040   040040 040040   040040 040040
  11     456*  040040 040040

VM_OPTS_FMT1
 Sect OctLoc
  11     457   123040 040040   040040 040040   040040 040040   040040 040040    S
  11     463   040040 040040   040040 040040   040040 040040   040040 040040
  11     503*  040040 040040

PL6.E3A0      #001=VMD$DI_HEADER File=VMD$DISPLAY.:VMB6TSI                       WED 08/20/97 15:08 Page:57
VM_OPTS_FMT2
 Sect OctLoc
  11     504   123040 040040   040040 040040   040040 040040   040040 040040    S
  11     510   040040 040040   040040 040040   040040 040040   040040 040040
  11     530*  040040 040040

VM_DR_FMT
 Sect OctLoc
  11     531   047040 040040   040040 040040   040040 040040   040040 040040    '
  11     535   040040 040040   040040 040040   040040 040040   040040 040040
  11     541   040040 040040   040040 040040

VM_BROADCAST_FMT
 Sect OctLoc
  11     543   047040 040040   040040 040040   040040 040040   040040 040040    '
  11     547   040040 040040   040040 040040   040040 040040   040040 040040
  11     553   040040 040040   040040 040040

VM_ENCL_1_FMT
 Sect OctLoc
  11     555   074040 040040   040040 040040   040040 040040   040040 040040    <
  11     561   040040 040040   040040 040040   040040 040040   040040 040040
  11     571*  040040 040040   040040 040040   040040 040040   040*** ******                 ...

VM_ENCL_2_FMT
 Sect OctLoc
  11     575   074040 040040   040040 040040   040040 040040   040040 040040    <
  11     601   040040 040040   040040 040040   040040 040040   040040 040040
  11     611*  040040 040040   040040 040040   040040 040040   040*** ******                 ...

VM_ENCL_FWD_FMT
 Sect OctLoc
  11     615   074040 040040   040040 040040   040040 040040   040040 040040    <
  11     621   040040 040040   040040 040040   040040 040040   040040 040040
  11     631*  040040 040040   040040 040040   040040 040040   040*** ******                 ...

NEED_TITLE_BAR
PL6.E3A0      #001=VMD$DI_HEADER File=VMD$DISPLAY.:VMB6TSI                       WED 08/20/97 15:08 Page:58
 Sect OctLoc
  11     635   0***** ******                                                    ....

VECT_ARRAY
 Sect OctLoc
  11     636   ****** ******   ****** ******   ****** ******   ****** ******    ................

DEFAULT_OPEN_CONST
 Sect OctLoc
  12     000   000025 777640   000044 006000   000000 177640   000000 006014    .....$..........
  12     004   000000 177640   000000 006014   000000 177640   000000 006014    ................
  12     044*  000000 000042   000000 003000   252525 000000   000040 252520    ..."......... ..
  12     050   000040 040040   000000 000002   000000 777777   000000 000000    .   ............
  12     054   000000 000000   000000 000000   000000 000000   000000 000000    ................
  12     060   251000 622000   000000 000000   000000 000000   111250 000000    ............I...
  12     064   040040 040040   000000 000000   000000 000000   000000 000000        ............
  12     070   000000 000000   ****** ******                                    ........

E_HEADER_FMT
 Sect OctLoc
  12     072   261504 014430                                                    ....

E_TITLE_FMT
 Sect OctLoc
  12     073   261504 014400                                                    ....

E_STATUS1
 Sect OctLoc
  12     074   261504 014410                                                    ....

E_STATUS2
 Sect OctLoc
  12     075   261504 014420                                                    ....

E_DATE_NUMBER_FMT
 Sect OctLoc
  12     076   261504 014440                                                    ....
PL6.E3A0      #001=VMD$DI_HEADER File=VMD$DISPLAY.:VMB6TSI                       WED 08/20/97 15:08 Page:59

E_TO_FROM_FMT
 Sect OctLoc
  12     077   261504 014450                                                    ....

E_SUBJECT_FMT
 Sect OctLoc
  12     100   261504 014460                                                    ....

E_SUBJECT_FMT1
 Sect OctLoc
  12     101   261504 014461                                                    ....

E_REPLY_TO_FMT
 Sect OctLoc
  12     102   261504 014470                                                    ....

E_REFERENCE_FMT
 Sect OctLoc
  12     103   261504 014500                                                    ....

E_REFERENCE_FMT1
 Sect OctLoc
  12     104   261504 014501                                                    ....

E_REFERENCE_AND_ID_FMT
 Sect OctLoc
  12     105   261504 014510                                                    ....

E_RE_STRING
 Sect OctLoc
  12     106   261504 014370                                                    ....

E_COPY_FMT
 Sect OctLoc
  12     107   261504 014520                                                    ....

PL6.E3A0      #001=VMD$DI_HEADER File=VMD$DISPLAY.:VMB6TSI                       WED 08/20/97 15:08 Page:60
E_COPY_FMT1
 Sect OctLoc
  12     110   261504 014521                                                    ....

E_BLIND_COPY_FMT
 Sect OctLoc
  12     111   261504 014530                                                    ....

E_BLIND_COPY_FMT1
 Sect OctLoc
  12     112   261504 014531                                                    ....

E_CONTINUATION_FMT
 Sect OctLoc
  12     113   261504 014540                                                    ....

E_ERROR_ADDRESS_FMT
 Sect OctLoc
  12     114   261504 014550                                                    ....

E_TO_FMT
 Sect OctLoc
  12     115   261504 014560                                                    ....

E_FCOPY_FMT
 Sect OctLoc
  12     116   261504 014570                                                    ....

E_SIGNED_FMT
 Sect OctLoc
  12     117   261504 014600                                                    ....

E_RR_FMT
 Sect OctLoc
  12     120   261504 014610                                                    ....

E_RTO_FMT
PL6.E3A0      #001=VMD$DI_HEADER File=VMD$DISPLAY.:VMB6TSI                       WED 08/20/97 15:08 Page:61
 Sect OctLoc
  12     121   261504 014620                                                    ....

E_DEFER_FMT
 Sect OctLoc
  12     122   261504 014630                                                    ....

E_DEFER_FMT1
 Sect OctLoc
  12     123   261504 014640                                                    ....

E_OPTS_FMT
 Sect OctLoc
  12     124   261504 014650                                                    ....

E_OPTS_FMT1
 Sect OctLoc
  12     125   261504 014660                                                    ....

E_OPTS_FMT2
 Sect OctLoc
  12     126   261504 014670                                                    ....

E_DR_FMT
 Sect OctLoc
  12     127   261504 014700                                                    ....

E_BROADCAST_FMT
 Sect OctLoc
  12     130   261504 014710                                                    ....

E_ENCL_1_FMT
 Sect OctLoc
  12     131   261504 014720                                                    ....

E_ENCL_2_FMT
 Sect OctLoc
PL6.E3A0      #001=VMD$DI_HEADER File=VMD$DISPLAY.:VMB6TSI                       WED 08/20/97 15:08 Page:62
  12     132   261504 014730                                                    ....

E_ENCL_FWD_FMT
 Sect OctLoc
  12     133   261504 014740                                                    ....

SPACE
 Sect OctLoc
  12     134   040*** ******                                                     ...

(unnamed)
 Sect OctLoc
  12     135   061062 072060   060072 060060   056060 060040   040057 040040    12:00:00.00  /

(unnamed)
 Sect OctLoc
  14     000   000000 006003   000025 777640   040040 040040   000002 000000    ........    ....
  14     004   000072 006000   000052 006000   056040 040040   000003 000000    .:...*...   ....
  14     010   000073 006000   000072 006000   000000 006000   000072 206000    .;...:.......:..
  14     014   000074 006000   000112 006000   000075 006000   000117 006000    .<...J...=...O..
  14     020   000077 777640   000001 000000   000002 577640   040040 040000    .?..........   .
  14     024   000000 006014   100040 040040   051040 040040   076040 040040    ....@   )   >
  14     030   000000 177640   000134 006000   000052 206000                    .....\...*..
      498    12026
      499    12027    1   END VMD$DI_HEADER;
      500    12028        %EOD;

PL6.E3A0      #001=VMD$DI_HEADER File=VMD$DISPLAY.:VMB6TSI                       WED 08/20/97 15:08 Page:63
--  Include file information  --

   VM_PERR_C.:VMB6TOU  is referenced.
   B_MACROS_C.:LIB_E05  is referenced.
   VM_DATA_R.:VMB6TOU  cannot be made into a system file and is referenced.
   VM_SUBS_C.:VMB6TOU  is referenced.
   VM_MACRO_C.:VMB6TOU  is referenced.
   CP_6_C.:LIB_E05  is referenced.
   CP_6.:LIB_E05  cannot be made into a system file and is referenced.
   XU_FORMAT_C.:LIB_E05  is referenced.
   CP_6_SUBS.:LIB_E05  is referenced.
      No diagnostics issued in procedure VMD$DI_HEADER.
PL6.E3A0      #001=VMD$DI_HEADER File=VMD$DISPLAY.:VMB6TSI                       WED 08/20/97 15:08 Page:64

 **** Variables and constants ****

  ****  Section 011  Data  VMD$DI_HEADER

  ****  Scalars and arrays  ****
OctLoc.c.b A Datatyp(siz) R M Lvl/name                 OctLoc.c.b A Datatyp(siz) R M Lvl/name

    36-0-0/d STRC(432)   r     1 CONVERT_TIME             657-0-0/c CHAR(8)     r     1 DATE_STRING
     0-0-0/w STRC(1080)  r     1 F_FDS                    635-0-0/b BIT         r     1 NEED_TITLE_BAR
   661-0-0/c CHAR(11)    r     1 TIME_STRING              656-0-0/w UBIN        r     1 UTS
   636-0-0/d VECT        r     1 VECT_ARRAY(0:7)
   304-0-0/c STRC(216)         1 VM_BLIND_COPY_FMT        312-0-0/c STRC(216)         1 VM_BLIND_COPY_FMT1
   543-0-0/c STRC(360)         1 VM_BROADCAST_FMT         320-0-0/c STRC(180)         1 VM_CONTINUATION_FMT
   270-0-0/c STRC(216)         1 VM_COPY_FMT              276-0-0/c STRC(216)         1 VM_COPY_FMT1
   126-0-0/c STRC(729)         1 VM_DATE_NUMBER_FMT       406-0-0/c STRC(360)         1 VM_DEFER_FMT
   420-0-0/c STRC(360)         1 VM_DEFER_FMT1            531-0-0/c STRC(360)         1 VM_DR_FMT
   555-0-0/c STRC(549)         1 VM_ENCL_1_FMT            575-0-0/c STRC(549)         1 VM_ENCL_2_FMT
   615-0-0/c STRC(549)         1 VM_ENCL_FWD_FMT          325-0-0/c STRC(396)         1 VM_ERROR_ADDRESS_FMT
   346-0-0/c STRC(216)         1 VM_FCOPY_FMT              52-0-0/c STRC(549)   r     1 VM_HEADER_FMT
   432-0-0/c STRC(756)         1 VM_OPTS_FMT              457-0-0/c STRC(756)         1 VM_OPTS_FMT1
   504-0-0/c STRC(756)         1 VM_OPTS_FMT2
   254-0-0/c STRC(216)         1 VM_REFERENCE_AND_ID_FMT
   230-0-0/c STRC(360)         1 VM_REFERENCE_FMT         242-0-0/c STRC(360)         1 VM_REFERENCE_FMT1
   216-0-0/c STRC(360)         1 VM_REPLY_TO_FMT          262-0-0/c STRC(216)         1 VM_RE_STRING
   362-0-0/c STRC(360)         1 VM_RR_FMT                374-0-0/c STRC(360)         1 VM_RTO_FMT
   354-0-0/c STRC(216)         1 VM_SIGNED_FMT            112-0-0/c STRC(153)   r     1 VM_STATUS1
   117-0-0/c STRC(252)   r     1 VM_STATUS2               172-0-0/c STRC(360)         1 VM_SUBJECT_FMT
   204-0-0/c STRC(360)         1 VM_SUBJECT_FMT1           72-0-0/c STRC(549)   r     1 VM_TITLE_FMT
   340-0-0/c STRC(216)         1 VM_TO_FMT                153-0-0/c STRC(540)         1 VM_TO_FROM_FMT

  ****  Section 012 RoData VMD$DI_HEADER

  ****  Scalars and arrays  ****
OctLoc.c.b A Datatyp(siz) R M Lvl/name                 OctLoc.c.b A Datatyp(siz) R M Lvl/name

     0-0-0/d STRC(2088)  r     1 DEFAULT_OPEN_CONST       111-0-0/w STRC              1 E_BLIND_COPY_FMT
   112-0-0/w STRC              1 E_BLIND_COPY_FMT1        130-0-0/w STRC              1 E_BROADCAST_FMT
PL6.E3A0      #001=VMD$DI_HEADER File=VMD$DISPLAY.:VMB6TSI                       WED 08/20/97 15:08 Page:65
   113-0-0/w STRC              1 E_CONTINUATION_FMT       107-0-0/w STRC              1 E_COPY_FMT
   110-0-0/w STRC              1 E_COPY_FMT1               76-0-0/w STRC              1 E_DATE_NUMBER_FMT
   122-0-0/w STRC              1 E_DEFER_FMT              123-0-0/w STRC              1 E_DEFER_FMT1
   127-0-0/w STRC              1 E_DR_FMT                 131-0-0/w STRC              1 E_ENCL_1_FMT
   132-0-0/w STRC              1 E_ENCL_2_FMT             133-0-0/w STRC              1 E_ENCL_FWD_FMT
   114-0-0/w STRC              1 E_ERROR_ADDRESS_FMT      116-0-0/w STRC              1 E_FCOPY_FMT
    72-0-0/w STRC        r     1 E_HEADER_FMT             124-0-0/w STRC              1 E_OPTS_FMT
   125-0-0/w STRC              1 E_OPTS_FMT1              126-0-0/w STRC              1 E_OPTS_FMT2
   105-0-0/w STRC              1 E_REFERENCE_AND_ID_FMT
   103-0-0/w STRC              1 E_REFERENCE_FMT          104-0-0/w STRC              1 E_REFERENCE_FMT1
   102-0-0/w STRC              1 E_REPLY_TO_FMT           106-0-0/w STRC              1 E_RE_STRING
   120-0-0/w STRC              1 E_RR_FMT                 121-0-0/w STRC              1 E_RTO_FMT
   117-0-0/w STRC              1 E_SIGNED_FMT              74-0-0/w STRC        r     1 E_STATUS1
    75-0-0/w STRC        r     1 E_STATUS2                100-0-0/w STRC              1 E_SUBJECT_FMT
   101-0-0/w STRC              1 E_SUBJECT_FMT1            73-0-0/w STRC        r     1 E_TITLE_FMT
   115-0-0/w STRC              1 E_TO_FMT                  77-0-0/w STRC              1 E_TO_FROM_FMT
   134-0-0/c CHAR        r     1 SPACE

  ****  Auto variables  ****

  ****  Scalars and arrays  ****
OctLoc.c.b A Datatyp(siz) R M Lvl/name                 OctLoc.c.b A Datatyp(siz) R M Lvl/name

     5-0-0/w PTR         r     1 @DCB#                      4-0-0/w PTR         r     1 @MESSAGE_NUMBER
     3-0-0/w PTR         r     1 @VM_HEADER                *0-0-0/w UBIN        r     1 DCB#
     6-0-0/d STRC(2088)  r     1 DEFAULT_OPEN             217-0-0/c CHAR        r     1 FLAG_CHAR
   225-0-0/c CHAR(11)    r     1 FORMATTED_DATE           215-0-0/w SBIN        r     1 I
   216-0-0/w SBIN        r     1 IX                       222-0-0/w SBIN        r     1 LEN
    *0-0-0/w UBIN        r     1 MESSAGE_NUMBER           220-0-0/c CHAR(3)     r     1 MSG_TYPE
   221-0-0/w UBIN        r     1 NAME_WIDTH               115-0-0/c CHAR(256)   r     1 TEMPBUF
   223-0-0/c CHAR(8)     r     1 TODAYS_DATE_STRING        *0-0-0/w STRC(1332)  r     1 VM_HEADER
   100-0-0/c CHAR(50)          1 WORK_BUF

  ****  SYMREF variables  ****

  ****  Scalars and arrays  ****
OctLoc.c.b A Datatyp(siz) R M Lvl/name                 OctLoc.c.b A Datatyp(siz) R M Lvl/name
PL6.E3A0      #001=VMD$DI_HEADER File=VMD$DISPLAY.:VMB6TSI                       WED 08/20/97 15:08 Page:66

     0-0-0/w PTR               1 B$JIT$                     0-0-0/w PTR               1 B$TCB$
     0-0-0/c ASTR(9)     r     1 ERRMSG_FID                 0-0-0/w UBIN              1 M$DO_NUM
     0-0-0/w UBIN              1 M$LO_NUM                   0-0-0/w UBIN              1 M$MAIL_CENTRAL_NUM
     0-0-0/w UBIN              1 M$MAIL_COMGROUP_NUM        0-0-0/w UBIN              1 M$MAIL_FILE_NUM
     0-0-0/w UBIN              1 M$MAIL_GLOBAL_NUM          0-0-0/w UBIN              1 M$ME_NUM
     0-0-0/w UBIN              1 M$NODE_NUM                 0-0-0/w UBIN              1 M$SI_NUM
     0-0-0/w UBIN              1 M$WORK_NUM                 0-0-0/w PTR               1 VM_ADDLIST$
     0-0-0/d VECT              1 VM_ADDLIST_                0-0-0/w PTR               1 VM_ADDREC$
     0-0-0/d VECT              1 VM_ADDREC_                 0-0-0/w PTR               1 VM_COPY$
     0-0-0/d VECT              1 VM_COPY_                   0-0-0/w PTR               1 VM_ENCLLIST$
     0-0-0/d VECT              1 VM_ENCLLIST_               0-0-0/w PTR               1 VM_ENCLREC$
     0-0-0/d VECT              1 VM_ENCLREC_                0-0-0/c STRC(270)         1 VM_FORWARD_ENCL_NAME
     0-0-0/c STRC(270)         1 VM_FORWARD_FILE_NAME       0-0-0/c STRC(72)          1 VM_FORWARD_FILE_PASS
     0-0-0/w PTR               1 VM_HEADER$                 0-0-0/d VECT              1 VM_HEADER_
     0-0-0/d VECT              1 VM_HEADER_INIT_            0-0-0/w PTR               1 VM_INPUT$
     0-0-0/d VECT              1 VM_INPUT_                  0-0-0/c STRC(72)          1 VM_MAILCG_NAME
     0-0-0/w STRC(432)         1 VM_MAILCG_SETSTA           0-0-0/c STRC(72)          1 VM_MAIL_ACCT
     0-0-0/c STRC(54)          1 VM_NAME_MAP_NAME           0-0-0/w PTR               1 VM_PARSEAREA$
     0-0-0/d VECT              1 VM_PARSEAREA_              0-0-0/w PTR               1 VM_PROFILE$
     0-0-0/d VECT              1 VM_PROFILE_                0-0-0/w PTR               1 VM_SELECT$
     0-0-0/d VECT              1 VM_SELECT_                 0-0-0/c STRC(288)         1 VM_SEND_FILE_NAME
     0-0-0/c CHAR(8)           1 VM_SITENAME                0-0-0/w PTR               1 VM_WORK$
     0-0-0/d VECT              1 VM_WORK_

  ****  BASED and DCB variables  ****

  ****  Scalars and arrays  ****
OctLoc.c.b A Datatyp(siz) R M Lvl/name                 OctLoc.c.b A Datatyp(siz) R M Lvl/name

     0-0-0/d ASTR(3528)  r     1 F$DCB                      0-0-0N  NULL        r     1 M$DO
     0-0-0N  NULL        r     1 M$LO                       0-0-0N  NULL        r     1 M$MAIL_CENTRAL
     0-0-0N  NULL        r     1 M$MAIL_COMGROUP            0-0-0N  NULL        r     1 M$MAIL_FILE
     0-0-0N  NULL        r     1 M$MAIL_GLOBAL              0-0-0N  NULL        r     1 M$ME
     0-0-0N  NULL        r     1 M$NODE                     0-0-0N  NULL        r     1 M$SI
     0-0-0N  NULL        r     1 M$UC                       0-0-0N  NULL        r     1 M$WORK
     0-0-0/c ASTR(9)     r     1 X$STRING
PL6.E3A0      #001=VMD$DI_HEADER File=VMD$DISPLAY.:VMB6TSI                       WED 08/20/97 15:08 Page:67


   Procedure VMD$DI_HEADER requires 428 words for executable code.
   Procedure VMD$DI_HEADER requires 154 words of local(AUTO) storage.
PL6.E3A0      #001=VMD$DI_HEADER File=VMD$DISPLAY.:VMB6TSI                       WED 08/20/97 15:08 Page:68
          *** CROSS REFERENCE LISTING ***
**     DENOTES     IDENTIFIER DEFINITION
<<                 IDENTIFIER'S VALUE SET
>>                 IDENTIFIER'S VALUE USED
<>                 IDENTIFIER SET AND/OR USED
--                 IDENTIFIER REFERENCED
PL6.E3A0      #001=VMD$DI_HEADER File=VMD$DISPLAY.:VMB6TSI                       WED 08/20/97 15:08 Page:69
          MINI XREF LISTING

CONVERT_TIME
      9070**DCL     11941<>CALL    11946<>CALL
CONVERT_TIME.V
      9074**DCL      9070--DCLINIT
CONVERT_TIME.V.SOURCE#
      9074**DCL     11940<<ASSIGN  11944<<ASSIGN
DATE_STRING
     11757**DCL      9070--DCLINIT  9071--DCLINIT 11942>>ASSIGN  11948>>IF      11950>>CALLBLT 11956>>CALLBLT
DCB#
      8662**DCL        13--PROC    11793--IF      11798>>ASSIGN  11799>>ASSIGN  11803--IF      11805--ASSIGN
     11909>>ASSIGN
DEFAULT_OPEN
      9010**DCL     11796<<ASSIGN  11800<>CALL
DEFAULT_OPEN.ACSVEH_
      9012**DCL      9013--REDEF
DEFAULT_OPEN.ALTKEYS_
      9018**DCL      9019--REDEF    9019--REDEF
DEFAULT_OPEN.HDR_
      9017**DCL      9018--REDEF
DEFAULT_OPEN.TAB_
      9016**DCL      9017--REDEF
DEFAULT_OPEN.UHL_
      9010**DCL      9011--REDEF    9011--REDEF
DEFAULT_OPEN.V
      9019**DCL     11797--ASSIGN
DEFAULT_OPEN.V.DCB#
      9019**DCL     11798<<ASSIGN  11799<<ASSIGN
DEFAULT_OPEN.V.FSN#
      9050**DCL      9050--REDEF    9050--REDEF
DEFAULT_OPEN.V_
      9010**DCL     11797<<ASSIGN
DEFAULT_OPEN.WSN_
PL6.E3A0      #001=VMD$DI_HEADER File=VMD$DISPLAY.:VMB6TSI                       WED 08/20/97 15:08 Page:70
      9016**DCL      9016--REDEF
DEFAULT_OPEN_CONST
      8901**DCL     11796>>ASSIGN
DEFAULT_OPEN_CONST.ACSVEH_
      8903**DCL      8904--REDEF
DEFAULT_OPEN_CONST.ALTKEYS_
      8909**DCL      8910--REDEF    8910--REDEF
DEFAULT_OPEN_CONST.HDR_
      8908**DCL      8909--REDEF
DEFAULT_OPEN_CONST.TAB_
      8907**DCL      8908--REDEF
DEFAULT_OPEN_CONST.UHL_
      8901**DCL      8902--REDEF    8902--REDEF
DEFAULT_OPEN_CONST.V
      8910**DCL      8901--DCLINIT
DEFAULT_OPEN_CONST.V.FSN#
      8941**DCL      8941--REDEF    8941--REDEF
DEFAULT_OPEN_CONST.WSN_
      8907**DCL      8907--REDEF
ERRMSG_FID.L#
      8081**DCL      8081--IMP-SIZ
E_HEADER_FMT
      9202**DCL     11818<>CALL
E_STATUS1
      9305**DCL     11871<>CALL
E_STATUS2
      9360**DCL     11894<>CALL
E_TITLE_FMT
      9253**DCL     11844<>CALL
F$DCB.ACTPOS
      8811**DCL      8811--REDEF
F$DCB.ARS#
      8785**DCL      8785--REDEF
F$DCB.ATTR
      8804**DCL      8805--REDEF
F$DCB.BORROW
PL6.E3A0      #001=VMD$DI_HEADER File=VMD$DISPLAY.:VMB6TSI                       WED 08/20/97 15:08 Page:71
      8819**DCL      8819--REDEF    8819--REDEF    8819--REDEF
F$DCB.DCBNAME.L
      8833**DCL      8833--IMP-SIZ
F$DCB.EOMCHAR#
      8789**DCL      8789--REDEF
F$DCB.FCD#
      8798**DCL     11793>>IF
F$DCB.FLDID
      8814**DCL      8814--REDEF
F$DCB.FORM$
      8808**DCL      8808--REDEF
F$DCB.FSECT
      8824**DCL      8824--REDEF
F$DCB.FSN#
      8801**DCL      8801--REDEF    8801--REDEF    8802--REDEF
F$DCB.HEADER$
      8807**DCL      8807--REDEF
F$DCB.IXTNSIZE#
      8805**DCL      8805--REDEF
F$DCB.LASTSTA$
      8794**DCL      8794--REDEF
F$DCB.LVL
      8820**DCL      8820--REDEF
F$DCB.NAME#.C
      8795**DCL      8795--REDEF
F$DCB.NOEOF
      8817**DCL      8817--REDEF
F$DCB.NRECS#
      8806**DCL      8806--REDEF
F$DCB.NRECX
      8825**DCL      8825--REDEF
F$DCB.OHDR
      8817**DCL      8817--REDEF
F$DCB.ORG#
      8800**DCL      8800--REDEF
F$DCB.PRECNO
PL6.E3A0      #001=VMD$DI_HEADER File=VMD$DISPLAY.:VMB6TSI                       WED 08/20/97 15:08 Page:72
      8823**DCL      8823--REDEF
F$DCB.RCSZ
      8829**DCL      8829--REDEF
F$DCB.RES#
      8796**DCL      8796--REDEF
F$DCB.SETX
      8808**DCL      8808--REDEF
F$DCB.TAB$
      8808**DCL      8808--REDEF
F$DCB.TDA
      8822**DCL      8823--REDEF
F$DCB.WIDTH#
      8792**DCL     11803>>IF      11805>>ASSIGN
F$DCB.WSN#
      8796**DCL      8796--REDEF
FLAG_CHAR
     11751**DCL     11925<<ASSIGN  11936<<ASSIGN  11938--ASSIGN
FORMATTED_DATE
     11760**DCL     11950<<CALLBLT 11956<<CALLBLT 11959--ASSIGN
F_FDS
      8678**DCL     11919<>CALL    12024<>CALL
F_FDS.DCB#
      8711**DCL     11909<<ASSIGN
F_FDS.FMT_
      8682**DCL     11844<>CALL    11847<<ASSIGN  12022<<ASSIGN
F_FDS.NVECS#
      8706**DCL     11917<<ASSIGN  12023<<ASSIGN
I
     11749**DCL     11990<<CALLBLT 11991<<CALLBLT 11991>>CALLBLT 11992>>DOWHILE 11993>>IF      11995<<ASSIGN
     11995>>ASSIGN  11999>>IF      12001>>CALLBLT 12002>>ASSIGN
IX
     11750**DCL     11832<<CALLBLT 11833>>CALLBLT 11859<<CALLBLT 11860>>CALLBLT 11926<<ASSIGN  11928<<ASSIGN
     11930<<ASSIGN  11932<<ASSIGN  11934<<ASSIGN  11936>>IF      11936>>ASSIGN  11954<<ASSIGN  11955<<ASSIGN
     11956>>CALLBLT 11961<<ASSIGN  11964<<ASSIGN  11966<<ASSIGN  11968<<ASSIGN  11970<<ASSIGN  11972<<ASSIGN
     11974<<ASSIGN  11976<<ASSIGN  11978<<ASSIGN  11980<<ASSIGN  11981>>IF      11982>>ASSIGN
LEN
PL6.E3A0      #001=VMD$DI_HEADER File=VMD$DISPLAY.:VMB6TSI                       WED 08/20/97 15:08 Page:73
     11754**DCL     12002<<ASSIGN  12006<<ASSIGN  12008>>ASSIGN
M$OPEN
      6205**DCL-ENT 11800--CALL
M$TIME
      6272**DCL-ENT 11941--CALL    11946--CALL
MESSAGE_NUMBER
      8661**DCL        13--PROC    11923--ASSIGN
MSG_TYPE
     11752**DCL     11962<<ASSIGN  11982<<ASSIGN  11984--ASSIGN
NAME_WIDTH
     11753**DCL     11805<<ASSIGN  11807<<ASSIGN  11833>>CALLBLT 11860>>CALLBLT 11999>>IF      12005>>CALLBLT
     12006>>ASSIGN
NEED_TITLE_BAR
     11744**DCL     11911>>IF      11914<<ASSIGN
SPACE
     11755**DCL     12011--ASSIGN  12020--ASSIGN
TEMPBUF
     11748**DCL     11915--ASSIGN  11916<<ASSIGN  12001<<CALLBLT 12005<<CALLBLT 12008--ASSIGN
TIME_STRING
     11759**DCL      9072--DCLINIT  9073--DCLINIT 11950>>CALLBLT 11955>>IF
TODAYS_DATE_STRING
     11758**DCL     11942<<ASSIGN  11948>>IF
UTS
     11756**DCL      9074--DCLINIT 11945<<ASSIGN
VECT_ARRAY
     11745**DCL      8708--DCLINIT 11915<<ASSIGN  11923<<ASSIGN  11938<<ASSIGN  11959<<ASSIGN  11984<<ASSIGN
     11985<<ASSIGN  12008<<ASSIGN  12011<<ASSIGN  12017<<ASSIGN  12020<<ASSIGN
VMD$ERRMSG
     11766**DCL-ENT 11818--CALL    11844--CALL    11871--CALL    11894--CALL
VMD$WRITE_BUF_TRUNCATED
     11762**DCL-ENT 11919--CALL    12024--CALL
VM_HEADER
      8542**DCL        13--PROC
VM_HEADER.CREATION_DATE
      8545**DCL     11945>>ASSIGN
VM_HEADER.FROM$
PL6.E3A0      #001=VMD$DI_HEADER File=VMD$DISPLAY.:VMB6TSI                       WED 08/20/97 15:08 Page:74
      8634**DCL     11987>>IF      11990>>CALLBLT 11990>>CALLBLT 11991>>CALLBLT 11991>>CALLBLT 11993>>IF
     11993>>IF      12001>>CALLBLT 12001>>CALLBLT 12005>>CALLBLT 12005>>CALLBLT
VM_HEADER.NUM_RECORDS
      8553**DCL     11985--ASSIGN
VM_HEADER.STATUS.ACK
      8561**DCL     11965>>IF
VM_HEADER.STATUS.ANSWER
      8559**DCL     11971>>IF
VM_HEADER.STATUS.BROADCAST
      8593**DCL     11975>>IF
VM_HEADER.STATUS.DEL
      8577**DCL     11927>>IF
VM_HEADER.STATUS.DELIVERY
      8591**DCL     11967>>IF
VM_HEADER.STATUS.ENCL
      8607**DCL     11979>>IF
VM_HEADER.STATUS.ERR
      8556**DCL     11963>>IF
VM_HEADER.STATUS.EXAM
      8575**DCL     11931>>IF
VM_HEADER.STATUS.FCOPY
      8579**DCL     11969>>IF
VM_HEADER.STATUS.FORWARDED
      8585**DCL     11973>>IF
VM_HEADER.STATUS.MAKE_OLD
      8572**DCL     11929>>IF
VM_HEADER.STATUS.MARK
      8581**DCL     11933>>IF
VM_HEADER.STATUS.OLD
      8569**DCL     11929>>IF
VM_HEADER.STATUS.RRACK
      8603**DCL     11977>>IF
VM_HEADER.SUBJECT$
      8644**DCL     12013>>IF      12013>>IF      12016<>CALL    12017>>ASSIGN  12017>>ASSIGN
VM_HEADER_FMT
      9105**DCL     11818<>CALL
PL6.E3A0      #001=VMD$DI_HEADER File=VMD$DISPLAY.:VMB6TSI                       WED 08/20/97 15:08 Page:75
VM_HEADER_FMT.L#
      9105**DCL     12022>>ASSIGN
VM_HEADER_FMT.NAME#
      9105**DCL     11816>>IF      11832>>CALLBLT 11833<<CALLBLT 12022--ASSIGN
VM_STATUS1
      9159**DCL     11871<>CALL
VM_STATUS1.NAME#
      9159**DCL     11869>>IF      11916>>ASSIGN  11936>>ASSIGN  11956>>CALLBLT
VM_STATUS2
      9186**DCL     11894<>CALL
VM_STATUS2.NAME#
      9186**DCL     11892>>IF      11982>>ASSIGN
VM_TITLE_FMT
      9132**DCL     11844<>CALL
VM_TITLE_FMT.L#
      9132**DCL     11847>>ASSIGN
VM_TITLE_FMT.NAME#
      9132**DCL     11842>>IF      11847--ASSIGN  11859>>CALLBLT 11860<<CALLBLT
X$STRING.SIZ
      7927**DCL      7928--IMP-SIZ 11990>>CALLBLT 11991>>CALLBLT 11993>>IF      12001>>CALLBLT 12005>>CALLBLT
     12013>>IF      12017>>ASSIGN
X$STRING.TEXT
      7928**DCL     11990>>CALLBLT 11991>>CALLBLT 11993>>IF      12001>>CALLBLT 12005>>CALLBLT 12017--ASSIGN
X$STRIP_BLANKS
     11786**DCL-ENT 12016--CALL

