VERSION B06

PL6.E3A0      #001=VMD$DI_LIST File=VMD$DISPLAY2.:VMB6TSI                        WED 08/20/97 15:10 Page:1
        1        1        /*M* VMD$DISPLAY2 Display subroutines  */
        2        2        /*T***********************************************************/
        3        3        /*T*                                                         */
        4        4        /*T* Copyright (c) Bull HN Information Systems Inc., 1997    */
        5        5        /*T*                                                         */
        6        6        /*T***********************************************************/
        7        7        /*X* DMC,PLM=4,IND=4,CTI=2,DTI=0,ENI=0,ECI=0,CSI=0,DCI=4 */
        8        8        /*F*
        9        9             NAME: VMD$DI_LIST
       10       10             PURPOSE:
       11       11                   To display the definition of a specified LIST.
       12       12             DESCRIPTION:
       13       13                   This routine will DISPLAY the contents of the specified
       14       14                   mailing LIST. This routine expects the definition to
       15       15                   be stored in the data segment based upon VM_ADDLIST$.
       16       16                   It also expects the name of the LIST to be passed
       17       17                   as a parameter in the form of VM_LISTKEY.
       18       18
       19       19
       20       20                   The following parameters are required:
       21       21                      VM_LISTKEY   - key used to read the definition.
       22       22                      DCB#         - number of the DCB to display thru.
       23       23                        SRCH#        - Index in search info table giving the
       24       24                                       DCB used to get this list.
       25       25                        VM_SEARCH_INFO
       26       26        */
       27       27        VMD$DI_LIST: PROC (VM_LISTKEY,DCB#,SRCH#,VM_SEARCH_INFO);
       28       28        /***** Include files *****/
       29       29          %INCLUDE CP_6;
       30     5588          %INCLUDE CP_6_SUBS;
       31     6128          %INCLUDE VM_MACRO_C;
       32     7396          %INCLUDE VM_PERR_C;
       33     7691          %INCLUDE VM_SUBS_C;
       34     7951          %INCLUDE VM_DATA_R;
       35     8382          %INCLUDE XU_FORMAT_C;
       36     8544          %INCLUDE XUR_ENTRY;
       37     8576        /***** Parameters *****/
PL6.E3A0      #001=VMD$DI_LIST File=VMD$DISPLAY2.:VMB6TSI                        WED 08/20/97 15:10 Page:2
       38     8577          %VM_KEYTYPES;
       39     8598          %VM_LISTKEY (STCLASS=" ");
       40     8614    1   DCL DCB# UBIN WORD;
       41     8615    1   DCL SRCH# UBIN WORD;
       42     8616        %VM_SEARCH_INFO (STCLASS=" ");
       43     8643        /***** External routines *****/
       44     8644    1   DCL VMA$GET_NEXT_ENTRY ENTRY(4) ALTRET;
       45     8645    1   DCL VMA$COMPRESS_BLANKS ENTRY(1);
       46     8646    1   DCL VMF$MAKE_ADDRESS2 ENTRY(3);
       47     8647    1   DCL VMD$WRITE_BUF ENTRY(1);
       48     8648        %INIT_STR(DODCL=YES);
       49     8671        /***** Fpts *****/
       50     8672        %F$DCB;
       51     8729            %VM_ADDTYPES;
       52     8733            %VM_ADD_HEAD;
       53     8762          %VM_RADDRESS (NAME=VM_RADDRESS,STCLASS=AUTO);
       54     8797          %VM_UADDRESS (NAME=VM_UADDRESS,STCLASS=AUTO);
       55     8834        %VM_RADDRESS (NAME=VM$RADDRESS, STCLASS=BASED);
       56     8869        %VM_PROFILE;
       57     8956          %F_FDS (VECTR=VECT_ARRAY);
       58     9069              %F_FDS (NAME=SPACE_LINE,VECTR=VECT_ARRAY,FMT=BLANK_LINE_FMT,NVECS=0);
       59     9182    1   DCL VECT_ARRAY(0:2) VECTOR DALIGNED STATIC;
       60     9183    1   DCL NULL_CHARS CHAR(0) CONSTANT INIT ('null');
       61     9184        /***** Formats *****/
       62     9185    1   DCL BLANK_LINE_FMT CHAR(0) CONSTANT INIT
       63     9186    1        ('%1X');
       64     9187        /**/
       65     9188    1   DCL HEADER_FMT CHAR(0) CONSTANT INIT
       66     9189    1        ('Definition for: %A');
       67     9190    1   DCL HEADER_FMT_LIST CHAR(0) CONSTANT INIT
       68     9191    1        ('Definition for: %A (%A)');
       69     9192    1   DCL GLOBAL_TEXT CHAR(0) STATIC INIT('** GLOBAL **');
       70     9193        /**/
       71     9194    1   DCL LIST_FMT CHAR(0) CONSTANT INIT
       72     9195    1        ('%5X%<>A');
       73     9196        /**/
       74     9197    1   DCL USER_FMT CHAR(0) CONSTANT INIT
PL6.E3A0      #001=VMD$DI_LIST File=VMD$DISPLAY2.:VMB6TSI                        WED 08/20/97 15:10 Page:3
       75     9198    1        ('%5X(.%<>A,%<>A,%<>A)');
       76     9199        /***** Local variables *****/
       77     9200    1   DCL ACCN CHAR(8) AUTO;
       78     9201    1   DCL UNAME CHAR(12) AUTO;
       79     9202    1   DCL NEXT$ PTR AUTO;
       80     9203          %VLP_NAME (FPTN=LISTNAME,LEN=200,STCLASS=AUTO);
       81     9230          %VLP_NAME (FPTN=ADDRESS_TEXT,LEN=256,STCLASS=AUTO);
       82     9257    1   DCL ONE UBIN WORD CONSTANT INIT(1);
       83     9258    1   DCL ZERO UBIN WORD CONSTANT INIT(0);
       84     9259        /***** Error codes *****/
       85     9260        %VLP_ERRCODE (FPTN=E_EMPTYDEF,FCG="VM",MID="D",
       86     9261                      ERR#=%E$EMPTYDEF,STCLASS=CONSTANT);
       87     9306        /*E*    ERROR: VMD-E$EMPTYDEF-0
       88     9307                MESSAGE: %U1 is an empty definition.
       89     9308        */
       90     9309              %VLP_NAME( FPTN=VM_HEADER_FMT2,   LEN=80,L=80,NAME=' ',
       91     9310              STCLASS="STATIC SYMDEF");
       92     9337        %VLP_NAME( FPTN=VM_HEADER_FMT_LIST,     LEN=80,L=80,NAME=' ',
       93     9338                   STCLASS="STATIC SYMDEF");
       94     9365        %VLP_NAME( FPTN=VM_GLOBAL_TEXT,         LEN=80,L=80,NAME=' ',
       95     9366                   STCLASS="STATIC SYMDEF");
       96     9393        %VLP_NAME( FPTN=VM_RECEIVERS,           LEN=31,L=31,NAME=' ',
       97     9394                   STCLASS="STATIC SYMDEF");
       98     9421        %VLP_NAME( FPTN=VM_SENDER,              LEN=31,L=31,NAME=' ',
       99     9422                   STCLASS="STATIC SYMDEF");
      100     9449        %VLP_NAME( FPTN=VM_FULL,                LEN=31,L=31,NAME=' ',
      101     9450                   STCLASS="STATIC SYMDEF");
      102     9477        %VLP_NAME( FPTN=VM_PROFILE_FLAGS1_FMT,  LEN=80,L=80,NAME=' ',
      103     9478                   STCLASS="STATIC SYMDEF");
      104     9505        %VLP_NAME( FPTN=VM_PROFILE_FLAGS2_FMT,  LEN=80,L=80,NAME=' ',
      105     9506                   STCLASS="STATIC SYMDEF");
      106     9533        %VLP_NAME( FPTN=VM_PROFILE_FLAGS3_FMT,  LEN=80,L=80,NAME=' ',
      107     9534                   STCLASS="STATIC SYMDEF");
      108     9561        %VLP_NAME( FPTN=VM_PROFILE_FLAGS4_FMT,  LEN=80,L=80,NAME=' ',
      109     9562                   STCLASS="STATIC SYMDEF");
      110     9589        %VLP_NAME( FPTN=VM_PROFILE_FFOLDER_FMT, LEN=80,L=80,NAME=' ',
      111     9590                   STCLASS="STATIC SYMDEF");
PL6.E3A0      #001=VMD$DI_LIST File=VMD$DISPLAY2.:VMB6TSI                        WED 08/20/97 15:10 Page:4
      112     9617        %VLP_NAME( FPTN=VM_PROFILE_REPLY_FMT,   LEN=80,L=80,NAME=' ',
      113     9618                   STCLASS="STATIC SYMDEF");
      114     9645        %VLP_NAME( FPTN=VM_PROFILE_SETUP_FMT,   LEN=80,L=80,NAME=' ',
      115     9646                   STCLASS="STATIC SYMDEF");
      116     9673        %VLP_NAME( FPTN=VM_PROFILE_SIGNED_FMT,  LEN=80,L=80,NAME=' ',
      117     9674                   STCLASS="STATIC SYMDEF");
      118     9701        %VLP_NAME( FPTN=VM_PROFILE_SRCH_FMT,    LEN=80,L=80,NAME=' ',
      119     9702                   STCLASS="STATIC SYMDEF");
      120     9729        %VLP_NAME( FPTN=VM_PROFILE_SRCH2_FMT,   LEN=80,L=80,NAME=' ',
      121     9730                   STCLASS="STATIC SYMDEF");
      122     9757        %VLP_NAME( FPTN=VM_PROFILE_EDITOR_FMT,  LEN=80,L=80,NAME=' ',
      123     9758                   STCLASS="STATIC SYMDEF");
      124     9785        %VLP_NAME( FPTN=VM_FOLDER_FMT,          LEN=80,L=80,NAME=' ',
      125     9786                   STCLASS="STATIC SYMDEF");
      126     9813        %VLP_NAME( FPTN=VM_FOLDER_CHAR_FMT,     LEN=80,L=80,NAME=' ',
      127     9814                   STCLASS="STATIC SYMDEF");
      128     9841
      129     9842
      130     9843        %VLP_ERRCODE( FPTN=E_FOLDER_CHAR_FMT,       STCLASS="CONSTANT SYMDEF",
      131     9844                      ERR#=%E$FOLDER_CHAR_FMT,      FCG=VM,MID=D);
      132     9889              %VLP_ERRCODE( FPTN=E_FOLDER_FMT,      STCLASS="CONSTANT SYMDEF",
      133     9890              ERR#=%E$FOLDER_FMT,           FCG=VM,MID=D);
      134     9935              %VLP_ERRCODE( FPTN=E_FULL,            STCLASS="CONSTANT SYMDEF",
      135     9936              ERR#=%E$FULL,                 FCG=VM,MID=D      );
      136     9981              %VLP_ERRCODE( FPTN=E_RECEIVERS,       STCLASS="CONSTANT SYMDEF",
      137     9982              ERR#=%E$RECEIVERS,            FCG=VM,MID=D      );
      138    10027              %VLP_ERRCODE( FPTN=E_SENDER,          STCLASS="CONSTANT SYMDEF",
      139    10028              ERR#=%E$SENDER,               FCG=VM,MID=D      );
      140    10073              %VLP_ERRCODE( FPTN=E_GLOBAL_TEXT,     STCLASS="CONSTANT SYMDEF",
      141    10074              ERR#=%E$GLOBAL_TEXT,          FCG=VM,MID=D      );
      142    10119              %VLP_ERRCODE( FPTN=E_HEADER_FMT2,     STCLASS="CONSTANT SYMDEF",
      143    10120              ERR#=%E$HEADER_FMT2,          FCG=VM,MID=D      );
      144    10165              %VLP_ERRCODE( FPTN=E_HEADER_FMT_LIST, STCLASS="CONSTANT SYMDEF",
      145    10166              ERR#=%E$HEADER_FMT_LIST,      FCG=VM,MID=D      );
      146    10211              %VLP_ERRCODE( FPTN=E_PROFILE_EDITOR_FMT, STCLASS="CONSTANT SYMDEF",
      147    10212              ERR#=%E$PROFILE_EDITOR_FMT,   FCG=VM,MID=D      );
      148    10257              %VLP_ERRCODE( FPTN=E_PROFILE_FFOLDER_FMT, STCLASS="CONSTANT SYMDEF",
PL6.E3A0      #001=VMD$DI_LIST File=VMD$DISPLAY2.:VMB6TSI                        WED 08/20/97 15:10 Page:5
      149    10258              ERR#=%E$PROFILE_FFOLDER_FMT,  FCG=VM,MID=D      );
      150    10303              %VLP_ERRCODE( FPTN=E_PROFILE_FLAGS1_FMT, STCLASS="CONSTANT SYMDEF",
      151    10304              ERR#=%E$PROFILE_FLAGS1_FMT,   FCG=VM,MID=D      );
      152    10349              %VLP_ERRCODE( FPTN=E_PROFILE_FLAGS2_FMT, STCLASS="CONSTANT SYMDEF",
      153    10350              ERR#=%E$PROFILE_FLAGS2_FMT,   FCG=VM,MID=D      );
      154    10395              %VLP_ERRCODE( FPTN=E_PROFILE_FLAGS3_FMT, STCLASS="CONSTANT SYMDEF",
      155    10396              ERR#=%E$PROFILE_FLAGS3_FMT,   FCG=VM,MID=D      );
      156    10441              %VLP_ERRCODE( FPTN=E_PROFILE_FLAGS4_FMT, STCLASS="CONSTANT SYMDEF",
      157    10442              ERR#=%E$PROFILE_FLAGS4_FMT,   FCG=VM,MID=D      );
      158    10487              %VLP_ERRCODE( FPTN=E_PROFILE_REPLY_FMT, STCLASS="CONSTANT SYMDEF",
      159    10488              ERR#=%E$PROFILE_REPLY_FMT,    FCG=VM,MID=D      );
      160    10533              %VLP_ERRCODE( FPTN=E_PROFILE_SETUP_FMT, STCLASS="CONSTANT SYMDEF",
      161    10534              ERR#=%E$PROFILE_SETUP_FMT,    FCG=VM,MID=D      );
      162    10579              %VLP_ERRCODE( FPTN=E_PROFILE_SIGNED_FMT, STCLASS="CONSTANT SYMDEF",
      163    10580              ERR#=%E$PROFILE_SIGNED_FMT,   FCG=VM,MID=D      );
      164    10625              %VLP_ERRCODE( FPTN=E_PROFILE_SRCH2_FMT, STCLASS="CONSTANT SYMDEF",
      165    10626              ERR#=%E$PROFILE_SRCH2_FMT,    FCG=VM,MID=D      );
      166    10671              %VLP_ERRCODE( FPTN=E_PROFILE_SRCH_FMT, STCLASS="CONSTANT SYMDEF",
      167    10672              ERR#=%E$PROFILE_SRCH_FMT,     FCG=VM,MID=D      );
      168    10717
      169    10718
      170    10719        /*E* ERROR: VMD-E$HEADER_FMT2-0
      171    10720             MESSAGE:Definition for: "A
      172    10721        */
      173    10722        /*E* ERROR: VMD-E$HEADER_FMT_LIST-0
      174    10723             MESSAGE:Definition for: "A ("A)
      175    10724        */
      176    10725        /*E* ERROR: VMD-E$GLOBAL_TEXT-0
      177    10726             MESSAGE:** Global **
      178    10727        */
      179    10728        /*E* ERROR: VMD-E$RECEIVERS-0
      180    10729             MESSAGE:Receivers
      181    10730        */
      182    10731        /*E* ERROR: VMD-E$SENDER-0
      183    10732             MESSAGE:Sender
      184    10733        */
      185    10734        /*E* ERROR: VMD-E$FULL-0
PL6.E3A0      #001=VMD$DI_LIST File=VMD$DISPLAY2.:VMB6TSI                        WED 08/20/97 15:10 Page:6
      186    10735             MESSAGE:FULL
      187    10736        */
      188    10737        /*E* ERROR: VMD-E$PROFILE_FLAGS1_FMT-0
      189    10738             MESSAGE:"5XFCopy = "A, Granules = "D, Headers = "A, AutoEdit = "A
      190    10739        */
      191    10740        /*E* ERROR: VMD-E$PROFILE_FLAGS2_FMT-0
      192    10741            MESSAGE:"5XPage = "A, Renumber = "A, Return Receipt = "A, Delivery Receipt = "A
      193    10742        */
      194    10743        /*E* ERROR: VMD-E$PROFILE_FLAGS3_FMT-0
      195    10744             MESSAGE:"5XDisplayTrace = "A, Combine = "A, Answer = "A, Preprocess = "A
      196    10745        */
      197    10746        /*E* ERROR:VMD-E$PROFILE_FLAGS4_FMT-0
      198    10747             MESSAGE:"5XExtended Address Display = "A, Delete on Detach = "A
      199    10748        */
      200    10749        /*E* ERROR: VMD-E$PROFILE_FFOLDER_FMT-0
      201    10750             MESSAGE:"5XFile Folder="A
      202    10751        */
      203    10752        /*E* ERROR: VMD-E$PROFILE_REPLY_FMT-0
      204    10753             MESSAGE:"5XReply To='"A'
      205    10754        */
      206    10755        /*E* ERROR: VMD-E$PROFILE_SETUP_FMT-0
      207    10756             MESSAGE:"5XSetup='"A'
      208    10757        */
      209    10758        /*E* ERROR: VMD-E$PROFILE_SIGNED_FMT-0
      210    10759             MESSAGE:"5XSigned='"A'
      211    10760        */
      212    10761        /*E* ERROR: VMD-E$PROFILE_SRCH_FMT-0
      213    10762             MESSAGE:"5XSrch = "N("A,")"A
      214    10763        */
      215    10764        /*E* ERROR: VMD-E$PROFILE_SRCH2_FMT-0
      216    10765             MESSAGE:"5X       "A
      217    10766        */
      218    10767        /*E* ERROR: VMD-E$PROFILE_EDITOR_FMT-0
      219    10768             MESSAGE:"5XEditor='"A'
      220    10769        */
      221    10770        /*E* ERROR: VMD-E$FOLDER_FMT-0
      222    10771             MESSAGE:"2X"1A"4X"5D"1X"4D"1X"4D"1X"4*D"2X"1X/"<>A
PL6.E3A0      #001=VMD$DI_LIST File=VMD$DISPLAY2.:VMB6TSI                        WED 08/20/97 15:10 Page:7
      223    10772        */
      224    10773        /*E* ERROR: VMD-E$FOLDER_CHAR_FMT-0
      225    10774             MESSAGE:"2X"1A"4X"5D"1X"4D"1X"4D"1X"4A"2X"1X/"<>A
      226    10775        */
      227    10776        %EJECT;
PL6.E3A0      #001=VMD$DI_LIST File=VMD$DISPLAY2.:VMB6TSI                        WED 08/20/97 15:10 Page:8
      228    10777    1       CALL SETUP ALTRET(NO_MORE);
      229    10778        /*
      230    10779             ***** Print the definition ...
      231    10780        */
      232    10781    1       F_FDS.FMT_ = VECTOR(LIST_FMT);
      233    10782    1       F_FDS.NVECS# = 1;
      234    10783    2       DO FOREVER;
      235    10784    2           CALL VMA$GET_NEXT_ENTRY (VM_UADDRESS,VM_RADDRESS,NEXT$,VM_ADDLIST$) ALTRET(
             10784                    NO_MORE);
      236    10785    2           ADDRESS_TEXT.L# = LENGTHC(ADDRESS_TEXT.NAME#);
      237    10786    2           CALL VMF$MAKE_ADDRESS2 (ADDRESS_TEXT,VM_UADDRESS);
      238    10787    2           IF ADDRESS_TEXT.L# ~= 0
      239    10788    2           THEN
      240    10789    2               VECT_ARRAY(0) = VECTOR(SUBSTR(ADDRESS_TEXT.NAME#,0,ADDRESS_TEXT.L#));
      241    10790    2           ELSE
      242    10791    2               VECT_ARRAY(0) = VECTOR(NULL_CHARS);
      243    10792    2           CALL VMD$WRITE_BUF (F_FDS);
      244    10793    2       END;                            /* Do forever ... end */
      245    10794        /**/
      246    10795    1   NO_MORE:
      247    10796    1       IF VM_ADD_HEAD.NUM_ENTRIES ~= 0    /* if list contains no entries */
      248    10797    1       THEN
      249    10798    1           CALL VMD$WRITE_BUF (SPACE_LINE);
      250    10799    1       RETURN;
      251    10800        %EJECT;
PL6.E3A0      #001=VMD$DI_LIST File=VMD$DISPLAY2.:VMB6TSI                        WED 08/20/97 15:10 Page:9
      252    10801        /*F*
      253    10802             NAME: VMD$DI_USER
      254    10803             PURPOSE:
      255    10804                   To display the definition of a specified USER.
      256    10805             DESCRIPTION:
      257    10806                   This routine expects the definition to be stored in
      258    10807                   the data segment based upon VM_ADDLIST$.
      259    10808                   It also expects the name of the USER to be passed as
      260    10809                   a parameter in the form of VM_USERKEY.
      261    10810
      262    10811                   The following parameters are required:
      263    10812                      VM_USERKEY   - key used to read the definition.
      264    10813                      DCB#         - number of the DCB to display thru.
      265    10814        */
      266    10815    1   VMD$DI_USER: ENTRY (VM_LISTKEY,DCB#);
      267    10816    1       CALL SETUP ALTRET(NO_MORE);
      268    10817                       /* Only display account info if user has access to the global
      269    10818                          file other than via processor priv */
      270    10819    1       IF DCBADDR(M$MAIL_GLOBAL_NUM)->F$DCB.FFLG.EXEC#
      271    10820    1       THEN
      272    10821    1           GOTO NO_MORE_DI_USER;
      273    10822        /*
      274    10823             ***** Print the definition ...
      275    10824        */
      276    10825    1       F_FDS.FMT_ = VECTOR(USER_FMT);
      277    10826    1       F_FDS.NVECS# = 3;
      278    10827    2       DO FOREVER;
      279    10828    2           CALL VMA$GET_NEXT_ENTRY (VM_UADDRESS,VM_RADDRESS,NEXT$,VM_ADDLIST$) ALTRET(
             10828                    NO_MORE_DI_USER);
      280    10829        /*
      281    10830             ***** Break up the NAME_KEY into accn and uname ...
      282    10831        */
      283    10832    2           ACCN = SUBSTR(VM_RADDRESS.NAME_KEY,0,8);
      284    10833    2           UNAME = SUBSTR(VM_RADDRESS.NAME_KEY,8);
      285    10834    2           VECT_ARRAY(0) = VECTOR(ACCN);
      286    10835    2           VECT_ARRAY(1) = VECTOR(UNAME);
      287    10836    2           ADDRESS_TEXT.L# = LENGTHC(ADDRESS_TEXT.NAME#);
PL6.E3A0      #001=VMD$DI_LIST File=VMD$DISPLAY2.:VMB6TSI                        WED 08/20/97 15:10 Page:10
      288    10837    2           CALL VMF$MAKE_ADDRESS2 (ADDRESS_TEXT,VM_UADDRESS);
      289    10838    2           IF ADDRESS_TEXT.L# ~= 0
      290    10839    2           THEN
      291    10840    2               VECT_ARRAY(2) = VECTOR(SUBSTR(ADDRESS_TEXT.NAME#,0,ADDRESS_TEXT.L#));
      292    10841    2           ELSE
      293    10842    2               VECT_ARRAY(2) = VECTOR(NULL_CHARS);
      294    10843    2           CALL VMD$WRITE_BUF (F_FDS);
      295    10844    2       END;                            /* Do forever ... end */
      296    10845    1   NO_MORE_DI_USER:
      297    10846    1       RETURN;
      298    10847        %EJECT;
PL6.E3A0      #001=VMD$DI_LIST File=VMD$DISPLAY2.:VMB6TSI                        WED 08/20/97 15:10 Page:11
      299    10848    1   SETUP: PROC ALTRET;
      300    10849        /*
      301    10850             ***** Setup the name of the list in
      302    10851                   an easier to use form (i.e. TEXTC)...
      303    10852        */
      304    10853    2       LISTNAME.NAME# = VM_LISTKEY.TEXT;
      305    10854    2       LISTNAME.L# = LENGTHC(LISTNAME.NAME#);
      306    10855    2       CALL VMA$COMPRESS_BLANKS (ADDR(LISTNAME));
      307    10856        /*
      308    10857             ***** If this list contains no entries,
      309    10858                   then report as an error ...
      310    10859        */
      311    10860    2       IF VM_ADD_HEAD.NUM_ENTRIES = 0
      312    10861    2       THEN
      313    10862    3       DO;
      314    10863    3           CALL XUR$ERRMSG (E_EMPTYDEF,,DCB#,VECTOR(LISTNAME));
      315    10864    3           ALTRETURN;
      316    10865    3       END;
      317    10866        /*
      318    10867             ***** Initialize ...
      319    10868        */
      320    10869    2       SPACE_LINE.DCB# = DCB#;
      321    10870    2       F_FDS.DCB# = DCB#;
      322    10871    2       NEXT$ = VM_ADD_HEAD.HEAD$;
      323    10872        /*
      324    10873             ***** Print a blank line before (and after) this display ...
      325    10874        */
      326    10875    2       CALL VMD$WRITE_BUF (SPACE_LINE);
      327    10876        /*
      328    10877             ***** Print the heading ...
      329    10878        */
      330    10879    2       VECT_ARRAY(0) = VECTOR(SUBSTR(LISTNAME.NAME#,0,LISTNAME.L#));
      331    10880    2       IF ADDR(SRCH#) ~= ADDR(NIL)
      332    10881    3       THEN DO;
      333    10882    3           IF VM_SEARCH_INFO.DCB#(SRCH#) = M$MAIL_FILE_NUM
      334    10883    4           THEN DO;
      335    10884    4               F_FDS.NVECS# = 1;
PL6.E3A0      #001=VMD$DI_LIST File=VMD$DISPLAY2.:VMB6TSI                        WED 08/20/97 15:10 Page:12
      336    10885                    %INIT_STR(STR=VM_HEADER_FMT2,CODE=E_HEADER_FMT2,TEST=YES,VECT=
             10885                        "F_FDS.FMT_");
      337    10908    4           END;
      338    10909    3           ELSE IF VM_SEARCH_INFO.DCB#(SRCH#) = M$MAIL_GLOBAL_NUM
      339    10910    4               THEN DO;
      340    10911    4                   F_FDS.NVECS# = 2;
      341    10912                        %INIT_STR(STR=VM_GLOBAL_TEXT,CODE=E_GLOBAL_TEXT,TEST=YES,VECT=
             10912                            "VECT_ARRAY(1)");
      342    10935                        %INIT_STR(STR=VM_HEADER_FMT_LIST,CODE=E_HEADER_FMT_LIST,TEST=YES,
             10935                            VECT="F_FDS.FMT_");
      343    10958    4               END;
      344    10959    4               ELSE DO;
      345    10960    4                   ADDRESS_TEXT.L# = LENGTHC(ADDRESS_TEXT.NAME#);
      346    10961    4                   CALL VMF$MAKE_ADDRESS2 (ADDRESS_TEXT,
      347    10962    4                     VM_PROFILE.SEARCH_LIST$(VM_SEARCH_INFO.MAP(SRCH#))->VM$RADDRESS);
      348    10963    4                   VECT_ARRAY(1) = VECTOR(SUBSTR(ADDRESS_TEXT.NAME#,0,ADDRESS_TEXT.L#))
             10963                            ;
      349    10964    4                   F_FDS.NVECS# = 2;
      350    10965                        %INIT_STR(STR=VM_HEADER_FMT_LIST,CODE=E_HEADER_FMT_LIST,TEST=YES,
             10965                            VECT="F_FDS.FMT_");
      351    10988    4               END;
      352    10989    3           CALL VMD$WRITE_BUF (F_FDS);
      353    10990    3       END;
      354    10991    3       ELSE DO;
      355    10992    3           F_FDS.NVECS# = 1;
      356    10993                %INIT_STR(STR=VM_HEADER_FMT2,CODE=E_HEADER_FMT2,TEST=YES,VECT="F_FDS.FMT_");
      357    11016    3           CALL VMD$WRITE_BUF (F_FDS);
      358    11017    3       END;
      359    11018    2       RETURN;
      360    11019    2   END SETUP;
      361    11020    1   END VMD$DI_LIST;
      362    11021        %EOD;

PL6.E3A0      #001=VMD$DI_LIST File=VMD$DISPLAY2.:VMB6TSI                        WED 08/20/97 15:10 Page:13
--  Include file information  --

   XUR_ENTRY.:LIB_E05  cannot be made into a system file and is referenced.
   XU_FORMAT_C.:LIB_E05  is referenced.
   B_MACROS_C.:LIB_E05  is referenced.
   VM_DATA_R.:VMB6TOU  cannot be made into a system file and is referenced.
   VM_SUBS_C.:VMB6TOU  is referenced.
   VM_PERR_C.:VMB6TOU  is referenced.
   VM_MACRO_C.:VMB6TOU  is referenced.
   CP_6_SUBS.:LIB_E05  is referenced.
   CP_6_C.:LIB_E05  is referenced.
   CP_6.:LIB_E05  cannot be made into a system file and is referenced.
      No diagnostics issued in procedure VMD$DI_LIST.

   Procedure VMD$DI_LIST requires 313 words for executable code.
   Procedure VMD$DI_LIST requires 228 words of local(AUTO) storage.

PL6.E3A0      #001=VMD$DI_LIST File=VMD$DISPLAY2.:VMB6TSI                        WED 08/20/97 15:10 Page:14

 Object Unit name= VMD$DI_LIST                                File name= VMD$DISPLAY2.:VMB6TOU
 UTS= AUG 20 '97 15:10:31.64 WED                              Compiler= PL-6/E31         Sev=      00
 SharedLib= :SHARED_SYSTEM                                    Alt SharedLib=


    ****  Control sections  ****

 Sect   Type Bound  Init  Size OctSiz  Section name(segment info)
    0   DCB   even  none     0      0  M$UC
    1   DCB   even  none     0      0  M$MAIL_FILE
    2   DCB   even  none     0      0  M$MAIL_CENTRAL
    3   DCB   even  none     0      0  M$MAIL_GLOBAL
    4   DCB   even  none     0      0  M$WORK
    5   DCB   even  none     0      0  M$MAIL_COMGROUP
    6   DCB   even  none     0      0  M$DO
    7   DCB   even  none     0      0  M$LO
    8   DCB   even  none     0      0  M$ME
    9   DCB   even  none     0      0  M$NODE
   10   DCB   even  none     0      0  M$SI
   11   Data  even  none   429    655  VMD$DI_LIST
   12  RoData even  UTS     42     52  VMD$DI_LIST
   13   Proc  even  none   313    471  VMD$DI_LIST
   14  RoData even  none    34     42  VMD$DI_LIST

    ****  Entry defs  ****

                              Check   Calling
                             calling  sequence
  Sect OctLoc Primary Altret sequence   type   Parms  Name
    13      0   yes            yes      Std        4  VMD$DI_LIST
    13     71                  yes      Std        2  VMD$DI_USER
PL6.E3A0      #001=VMD$DI_LIST File=VMD$DISPLAY2.:VMB6TSI                        WED 08/20/97 15:10 Page:15

  ****  Data defs  ****

 Sect OctLoc  Name                           Sect OctLoc  Name
   11    105  VM_HEADER_FMT2                    11    132  VM_HEADER_FMT_LIST
   11    157  VM_GLOBAL_TEXT                    11    204  VM_RECEIVERS
   11    214  VM_SENDER                         11    224  VM_FULL
   11    234  VM_PROFILE_FLAGS1_FMT             11    261  VM_PROFILE_FLAGS2_FMT
   11    306  VM_PROFILE_FLAGS3_FMT             11    333  VM_PROFILE_FLAGS4_FMT
   11    360  VM_PROFILE_FFOLDER_FMT            11    405  VM_PROFILE_REPLY_FMT
   11    432  VM_PROFILE_SETUP_FMT              11    457  VM_PROFILE_SIGNED_FMT
   11    504  VM_PROFILE_SRCH_FMT               11    531  VM_PROFILE_SRCH2_FMT
   11    556  VM_PROFILE_EDITOR_FMT             11    603  VM_FOLDER_FMT
   11    630  VM_FOLDER_CHAR_FMT                12     27  E_FOLDER_CHAR_FMT
   12     30  E_FOLDER_FMT                      12     31  E_FULL
   12     32  E_RECEIVERS                       12     33  E_SENDER
   12     34  E_GLOBAL_TEXT                     12     35  E_HEADER_FMT2
   12     36  E_HEADER_FMT_LIST                 12     37  E_PROFILE_EDITOR_FMT
   12     40  E_PROFILE_FFOLDER_FMT             12     41  E_PROFILE_FLAGS1_FMT
   12     42  E_PROFILE_FLAGS2_FMT              12     43  E_PROFILE_FLAGS3_FMT
   12     44  E_PROFILE_FLAGS4_FMT              12     45  E_PROFILE_REPLY_FMT
   12     46  E_PROFILE_SETUP_FMT               12     47  E_PROFILE_SIGNED_FMT
   12     50  E_PROFILE_SRCH2_FMT               12     51  E_PROFILE_SRCH_FMT

  ****  Entry refs  ****

         Check        Calling
        calling       sequence
Altret sequence SRef   type   Args  Name
 yes     yes           Std       4 VMA$GET_NEXT_ENTRY
         yes           Std       3 VMF$MAKE_ADDRESS2
         yes           Std       1 VMD$WRITE_BUF
         yes           Std       1 VMA$COMPRESS_BLANKS
 yes     yes           Std       7 XUR$ERRMSG
 yes     yes           Std       3 VMD$ERRMSG
                       nStd      0 X66_AUTO_4
                       nStd      0 X66_ARET
PL6.E3A0      #001=VMD$DI_LIST File=VMD$DISPLAY2.:VMB6TSI                        WED 08/20/97 15:10 Page:16

  ****  Data refs  ****

  Flags:  r = read only, s = secondary
Flgs Name                             Flgs Name                             Flgs Name
     M$UC                             r    VM_HEADER$                       r    VM_PROFILE$
r    VM_ADDLIST$                      r    VM_ADDREC$                       r    VM_WORK$
r    VM_SELECT$                       r    VM_PARSEAREA$                    r    VM_INPUT$
r    VM_COPY$                              VM_ENCLLIST$                          VM_ENCLREC$
     VM_HEADER_                            VM_HEADER_INIT_                       VM_PROFILE_
     VM_ADDLIST_                           VM_ADDREC_                            VM_WORK_
     VM_SELECT_                            VM_PARSEAREA_                         VM_INPUT_
     VM_COPY_                              VM_ENCLLIST_                          VM_ENCLREC_
     M$MAIL_FILE                           M$MAIL_CENTRAL                        M$MAIL_GLOBAL
     M$WORK                                M$MAIL_COMGROUP                       M$DO
     M$LO                                  M$ME                                  M$NODE
     M$SI                                  M$MAIL_FILE_NUM                       M$MAIL_CENTRAL_NUM
     M$MAIL_GLOBAL_NUM                     M$WORK_NUM                            M$MAIL_COMGROUP_NUM
     M$DO_NUM                              M$ME_NUM                              M$LO_NUM
     M$SI_NUM                              M$NODE_NUM                       r    B$JIT$
r    B$TCB$                                VM_MAIL_ACCT                          VM_NAME_MAP_NAME
     ERRMSG_FID                            VM_SEND_FILE_NAME                     VM_FORWARD_FILE_NAME
     VM_FORWARD_ENCL_NAME                  VM_FORWARD_FILE_PASS                  VM_MAILCG_NAME
     VM_SITENAME                           VM_MAILCG_SETSTA

  ****  Segment refs  ****

  Flags:  r = read only, s = secondary
Flgs Name                             Flgs Name                             Flgs Name
     NULLSID                               ISSID                                 ROSID
PL6.E3A0      #001=VMD$DI_LIST File=VMD$DISPLAY2.:VMB6TSI                        WED 08/20/97 15:10 Page:17


        1        1        /*M* VMD$DISPLAY2 Display subroutines  */
        2        2        /*T***********************************************************/
        3        3        /*T*                                                         */
        4        4        /*T* Copyright (c) Bull HN Information Systems Inc., 1997    */
        5        5        /*T*                                                         */
        6        6        /*T***********************************************************/
        7        7        /*X* DMC,PLM=4,IND=4,CTI=2,DTI=0,ENI=0,ECI=0,CSI=0,DCI=4 */
        8        8        /*F*
        9        9             NAME: VMD$DI_LIST
       10       10             PURPOSE:
       11       11                   To display the definition of a specified LIST.
       12       12             DESCRIPTION:
       13       13                   This routine will DISPLAY the contents of the specified
       14       14                   mailing LIST. This routine expects the definition to
       15       15                   be stored in the data segment based upon VM_ADDLIST$.
       16       16                   It also expects the name of the LIST to be passed
       17       17                   as a parameter in the form of VM_LISTKEY.
       18       18
       19       19
       20       20                   The following parameters are required:
       21       21                      VM_LISTKEY   - key used to read the definition.
       22       22                      DCB#         - number of the DCB to display thru.
       23       23                        SRCH#        - Index in search info table giving the
       24       24                                       DCB used to get this list.
       25       25                        VM_SEARCH_INFO
       26       26        */
       27       27        VMD$DI_LIST: PROC (VM_LISTKEY,DCB#,SRCH#,VM_SEARCH_INFO);

     27 13 000000   000000 700200 xent  VMD$DI_LIST  TSX0  ! X66_AUTO_4
        13 000001   000344 000004                    ZERO    228,4

       28       28        /***** Include files *****/
       29       29          %INCLUDE CP_6;
       30     5588          %INCLUDE CP_6_SUBS;
       31     6128          %INCLUDE VM_MACRO_C;
       32     7396          %INCLUDE VM_PERR_C;
PL6.E3A0      #001=VMD$DI_LIST File=VMD$DISPLAY2.:VMB6TSI                        WED 08/20/97 15:10 Page:18
       33     7691          %INCLUDE VM_SUBS_C;
       34     7951          %INCLUDE VM_DATA_R;
       35     8382          %INCLUDE XU_FORMAT_C;
       36     8544          %INCLUDE XUR_ENTRY;
       37     8576        /***** Parameters *****/
       38     8577          %VM_KEYTYPES;
       39     8598          %VM_LISTKEY (STCLASS=" ");
       40     8614    1   DCL DCB# UBIN WORD;
       41     8615    1   DCL SRCH# UBIN WORD;
       42     8616        %VM_SEARCH_INFO (STCLASS=" ");
       43     8643        /***** External routines *****/
       44     8644    1   DCL VMA$GET_NEXT_ENTRY ENTRY(4) ALTRET;
       45     8645    1   DCL VMA$COMPRESS_BLANKS ENTRY(1);
       46     8646    1   DCL VMF$MAKE_ADDRESS2 ENTRY(3);
       47     8647    1   DCL VMD$WRITE_BUF ENTRY(1);
       48     8648        %INIT_STR(DODCL=YES);
       49     8671        /***** Fpts *****/
       50     8672        %F$DCB;
       51     8729            %VM_ADDTYPES;
       52     8733            %VM_ADD_HEAD;
       53     8762          %VM_RADDRESS (NAME=VM_RADDRESS,STCLASS=AUTO);
       54     8797          %VM_UADDRESS (NAME=VM_UADDRESS,STCLASS=AUTO);
       55     8834        %VM_RADDRESS (NAME=VM$RADDRESS, STCLASS=BASED);
       56     8869        %VM_PROFILE;
       57     8956          %F_FDS (VECTR=VECT_ARRAY);
       58     9069              %F_FDS (NAME=SPACE_LINE,VECTR=VECT_ARRAY,FMT=BLANK_LINE_FMT,NVECS=0);
       59     9182    1   DCL VECT_ARRAY(0:2) VECTOR DALIGNED STATIC;
       60     9183    1   DCL NULL_CHARS CHAR(0) CONSTANT INIT ('null');
       61     9184        /***** Formats *****/
       62     9185    1   DCL BLANK_LINE_FMT CHAR(0) CONSTANT INIT
       63     9186    1        ('%1X');
       64     9187        /**/
       65     9188    1   DCL HEADER_FMT CHAR(0) CONSTANT INIT
       66     9189    1        ('Definition for: %A');
       67     9190    1   DCL HEADER_FMT_LIST CHAR(0) CONSTANT INIT
       68     9191    1        ('Definition for: %A (%A)');
       69     9192    1   DCL GLOBAL_TEXT CHAR(0) STATIC INIT('** GLOBAL **');
PL6.E3A0      #001=VMD$DI_LIST File=VMD$DISPLAY2.:VMB6TSI                        WED 08/20/97 15:10 Page:19
       70     9193        /**/
       71     9194    1   DCL LIST_FMT CHAR(0) CONSTANT INIT
       72     9195    1        ('%5X%<>A');
       73     9196        /**/
       74     9197    1   DCL USER_FMT CHAR(0) CONSTANT INIT
       75     9198    1        ('%5X(.%<>A,%<>A,%<>A)');
       76     9199        /***** Local variables *****/
       77     9200    1   DCL ACCN CHAR(8) AUTO;
       78     9201    1   DCL UNAME CHAR(12) AUTO;
       79     9202    1   DCL NEXT$ PTR AUTO;
       80     9203          %VLP_NAME (FPTN=LISTNAME,LEN=200,STCLASS=AUTO);
       81     9230          %VLP_NAME (FPTN=ADDRESS_TEXT,LEN=256,STCLASS=AUTO);
       82     9257    1   DCL ONE UBIN WORD CONSTANT INIT(1);
       83     9258    1   DCL ZERO UBIN WORD CONSTANT INIT(0);
       84     9259        /***** Error codes *****/
       85     9260        %VLP_ERRCODE (FPTN=E_EMPTYDEF,FCG="VM",MID="D",
       86     9261                      ERR#=%E$EMPTYDEF,STCLASS=CONSTANT);
       87     9306        /*E*    ERROR: VMD-E$EMPTYDEF-0
       88     9307                MESSAGE: %U1 is an empty definition.
       89     9308        */
       90     9309              %VLP_NAME( FPTN=VM_HEADER_FMT2,   LEN=80,L=80,NAME=' ',
       91     9310              STCLASS="STATIC SYMDEF");
       92     9337        %VLP_NAME( FPTN=VM_HEADER_FMT_LIST,     LEN=80,L=80,NAME=' ',
       93     9338                   STCLASS="STATIC SYMDEF");
       94     9365        %VLP_NAME( FPTN=VM_GLOBAL_TEXT,         LEN=80,L=80,NAME=' ',
       95     9366                   STCLASS="STATIC SYMDEF");
       96     9393        %VLP_NAME( FPTN=VM_RECEIVERS,           LEN=31,L=31,NAME=' ',
       97     9394                   STCLASS="STATIC SYMDEF");
       98     9421        %VLP_NAME( FPTN=VM_SENDER,              LEN=31,L=31,NAME=' ',
       99     9422                   STCLASS="STATIC SYMDEF");
      100     9449        %VLP_NAME( FPTN=VM_FULL,                LEN=31,L=31,NAME=' ',
      101     9450                   STCLASS="STATIC SYMDEF");
      102     9477        %VLP_NAME( FPTN=VM_PROFILE_FLAGS1_FMT,  LEN=80,L=80,NAME=' ',
      103     9478                   STCLASS="STATIC SYMDEF");
      104     9505        %VLP_NAME( FPTN=VM_PROFILE_FLAGS2_FMT,  LEN=80,L=80,NAME=' ',
      105     9506                   STCLASS="STATIC SYMDEF");
      106     9533        %VLP_NAME( FPTN=VM_PROFILE_FLAGS3_FMT,  LEN=80,L=80,NAME=' ',
PL6.E3A0      #001=VMD$DI_LIST File=VMD$DISPLAY2.:VMB6TSI                        WED 08/20/97 15:10 Page:20
      107     9534                   STCLASS="STATIC SYMDEF");
      108     9561        %VLP_NAME( FPTN=VM_PROFILE_FLAGS4_FMT,  LEN=80,L=80,NAME=' ',
      109     9562                   STCLASS="STATIC SYMDEF");
      110     9589        %VLP_NAME( FPTN=VM_PROFILE_FFOLDER_FMT, LEN=80,L=80,NAME=' ',
      111     9590                   STCLASS="STATIC SYMDEF");
      112     9617        %VLP_NAME( FPTN=VM_PROFILE_REPLY_FMT,   LEN=80,L=80,NAME=' ',
      113     9618                   STCLASS="STATIC SYMDEF");
      114     9645        %VLP_NAME( FPTN=VM_PROFILE_SETUP_FMT,   LEN=80,L=80,NAME=' ',
      115     9646                   STCLASS="STATIC SYMDEF");
      116     9673        %VLP_NAME( FPTN=VM_PROFILE_SIGNED_FMT,  LEN=80,L=80,NAME=' ',
      117     9674                   STCLASS="STATIC SYMDEF");
      118     9701        %VLP_NAME( FPTN=VM_PROFILE_SRCH_FMT,    LEN=80,L=80,NAME=' ',
      119     9702                   STCLASS="STATIC SYMDEF");
      120     9729        %VLP_NAME( FPTN=VM_PROFILE_SRCH2_FMT,   LEN=80,L=80,NAME=' ',
      121     9730                   STCLASS="STATIC SYMDEF");
      122     9757        %VLP_NAME( FPTN=VM_PROFILE_EDITOR_FMT,  LEN=80,L=80,NAME=' ',
      123     9758                   STCLASS="STATIC SYMDEF");
      124     9785        %VLP_NAME( FPTN=VM_FOLDER_FMT,          LEN=80,L=80,NAME=' ',
      125     9786                   STCLASS="STATIC SYMDEF");
      126     9813        %VLP_NAME( FPTN=VM_FOLDER_CHAR_FMT,     LEN=80,L=80,NAME=' ',
      127     9814                   STCLASS="STATIC SYMDEF");
      128     9841
      129     9842
      130     9843        %VLP_ERRCODE( FPTN=E_FOLDER_CHAR_FMT,       STCLASS="CONSTANT SYMDEF",
      131     9844                      ERR#=%E$FOLDER_CHAR_FMT,      FCG=VM,MID=D);
      132     9889              %VLP_ERRCODE( FPTN=E_FOLDER_FMT,      STCLASS="CONSTANT SYMDEF",
      133     9890              ERR#=%E$FOLDER_FMT,           FCG=VM,MID=D);
      134     9935              %VLP_ERRCODE( FPTN=E_FULL,            STCLASS="CONSTANT SYMDEF",
      135     9936              ERR#=%E$FULL,                 FCG=VM,MID=D      );
      136     9981              %VLP_ERRCODE( FPTN=E_RECEIVERS,       STCLASS="CONSTANT SYMDEF",
      137     9982              ERR#=%E$RECEIVERS,            FCG=VM,MID=D      );
      138    10027              %VLP_ERRCODE( FPTN=E_SENDER,          STCLASS="CONSTANT SYMDEF",
      139    10028              ERR#=%E$SENDER,               FCG=VM,MID=D      );
      140    10073              %VLP_ERRCODE( FPTN=E_GLOBAL_TEXT,     STCLASS="CONSTANT SYMDEF",
      141    10074              ERR#=%E$GLOBAL_TEXT,          FCG=VM,MID=D      );
      142    10119              %VLP_ERRCODE( FPTN=E_HEADER_FMT2,     STCLASS="CONSTANT SYMDEF",
      143    10120              ERR#=%E$HEADER_FMT2,          FCG=VM,MID=D      );
PL6.E3A0      #001=VMD$DI_LIST File=VMD$DISPLAY2.:VMB6TSI                        WED 08/20/97 15:10 Page:21
      144    10165              %VLP_ERRCODE( FPTN=E_HEADER_FMT_LIST, STCLASS="CONSTANT SYMDEF",
      145    10166              ERR#=%E$HEADER_FMT_LIST,      FCG=VM,MID=D      );
      146    10211              %VLP_ERRCODE( FPTN=E_PROFILE_EDITOR_FMT, STCLASS="CONSTANT SYMDEF",
      147    10212              ERR#=%E$PROFILE_EDITOR_FMT,   FCG=VM,MID=D      );
      148    10257              %VLP_ERRCODE( FPTN=E_PROFILE_FFOLDER_FMT, STCLASS="CONSTANT SYMDEF",
      149    10258              ERR#=%E$PROFILE_FFOLDER_FMT,  FCG=VM,MID=D      );
      150    10303              %VLP_ERRCODE( FPTN=E_PROFILE_FLAGS1_FMT, STCLASS="CONSTANT SYMDEF",
      151    10304              ERR#=%E$PROFILE_FLAGS1_FMT,   FCG=VM,MID=D      );
      152    10349              %VLP_ERRCODE( FPTN=E_PROFILE_FLAGS2_FMT, STCLASS="CONSTANT SYMDEF",
      153    10350              ERR#=%E$PROFILE_FLAGS2_FMT,   FCG=VM,MID=D      );
      154    10395              %VLP_ERRCODE( FPTN=E_PROFILE_FLAGS3_FMT, STCLASS="CONSTANT SYMDEF",
      155    10396              ERR#=%E$PROFILE_FLAGS3_FMT,   FCG=VM,MID=D      );
      156    10441              %VLP_ERRCODE( FPTN=E_PROFILE_FLAGS4_FMT, STCLASS="CONSTANT SYMDEF",
      157    10442              ERR#=%E$PROFILE_FLAGS4_FMT,   FCG=VM,MID=D      );
      158    10487              %VLP_ERRCODE( FPTN=E_PROFILE_REPLY_FMT, STCLASS="CONSTANT SYMDEF",
      159    10488              ERR#=%E$PROFILE_REPLY_FMT,    FCG=VM,MID=D      );
      160    10533              %VLP_ERRCODE( FPTN=E_PROFILE_SETUP_FMT, STCLASS="CONSTANT SYMDEF",
      161    10534              ERR#=%E$PROFILE_SETUP_FMT,    FCG=VM,MID=D      );
      162    10579              %VLP_ERRCODE( FPTN=E_PROFILE_SIGNED_FMT, STCLASS="CONSTANT SYMDEF",
      163    10580              ERR#=%E$PROFILE_SIGNED_FMT,   FCG=VM,MID=D      );
      164    10625              %VLP_ERRCODE( FPTN=E_PROFILE_SRCH2_FMT, STCLASS="CONSTANT SYMDEF",
      165    10626              ERR#=%E$PROFILE_SRCH2_FMT,    FCG=VM,MID=D      );
      166    10671              %VLP_ERRCODE( FPTN=E_PROFILE_SRCH_FMT, STCLASS="CONSTANT SYMDEF",
      167    10672              ERR#=%E$PROFILE_SRCH_FMT,     FCG=VM,MID=D      );
      168    10717
      169    10718
      170    10719        /*E* ERROR: VMD-E$HEADER_FMT2-0
      171    10720             MESSAGE:Definition for: "A
      172    10721        */
      173    10722        /*E* ERROR: VMD-E$HEADER_FMT_LIST-0
      174    10723             MESSAGE:Definition for: "A ("A)
      175    10724        */
      176    10725        /*E* ERROR: VMD-E$GLOBAL_TEXT-0
      177    10726             MESSAGE:** Global **
      178    10727        */
      179    10728        /*E* ERROR: VMD-E$RECEIVERS-0
      180    10729             MESSAGE:Receivers
PL6.E3A0      #001=VMD$DI_LIST File=VMD$DISPLAY2.:VMB6TSI                        WED 08/20/97 15:10 Page:22
      181    10730        */
      182    10731        /*E* ERROR: VMD-E$SENDER-0
      183    10732             MESSAGE:Sender
      184    10733        */
      185    10734        /*E* ERROR: VMD-E$FULL-0
      186    10735             MESSAGE:FULL
      187    10736        */
      188    10737        /*E* ERROR: VMD-E$PROFILE_FLAGS1_FMT-0
      189    10738             MESSAGE:"5XFCopy = "A, Granules = "D, Headers = "A, AutoEdit = "A
      190    10739        */
      191    10740        /*E* ERROR: VMD-E$PROFILE_FLAGS2_FMT-0
      192    10741            MESSAGE:"5XPage = "A, Renumber = "A, Return Receipt = "A, Delivery Receipt = "A
      193    10742        */
      194    10743        /*E* ERROR: VMD-E$PROFILE_FLAGS3_FMT-0
      195    10744             MESSAGE:"5XDisplayTrace = "A, Combine = "A, Answer = "A, Preprocess = "A
      196    10745        */
      197    10746        /*E* ERROR:VMD-E$PROFILE_FLAGS4_FMT-0
      198    10747             MESSAGE:"5XExtended Address Display = "A, Delete on Detach = "A
      199    10748        */
      200    10749        /*E* ERROR: VMD-E$PROFILE_FFOLDER_FMT-0
      201    10750             MESSAGE:"5XFile Folder="A
      202    10751        */
      203    10752        /*E* ERROR: VMD-E$PROFILE_REPLY_FMT-0
      204    10753             MESSAGE:"5XReply To='"A'
      205    10754        */
      206    10755        /*E* ERROR: VMD-E$PROFILE_SETUP_FMT-0
      207    10756             MESSAGE:"5XSetup='"A'
      208    10757        */
      209    10758        /*E* ERROR: VMD-E$PROFILE_SIGNED_FMT-0
      210    10759             MESSAGE:"5XSigned='"A'
      211    10760        */
      212    10761        /*E* ERROR: VMD-E$PROFILE_SRCH_FMT-0
      213    10762             MESSAGE:"5XSrch = "N("A,")"A
      214    10763        */
      215    10764        /*E* ERROR: VMD-E$PROFILE_SRCH2_FMT-0
      216    10765             MESSAGE:"5X       "A
      217    10766        */
PL6.E3A0      #001=VMD$DI_LIST File=VMD$DISPLAY2.:VMB6TSI                        WED 08/20/97 15:10 Page:23
      218    10767        /*E* ERROR: VMD-E$PROFILE_EDITOR_FMT-0
      219    10768             MESSAGE:"5XEditor='"A'
      220    10769        */
      221    10770        /*E* ERROR: VMD-E$FOLDER_FMT-0
      222    10771             MESSAGE:"2X"1A"4X"5D"1X"4D"1X"4D"1X"4*D"2X"1X/"<>A
      223    10772        */
      224    10773        /*E* ERROR: VMD-E$FOLDER_CHAR_FMT-0
      225    10774             MESSAGE:"2X"1A"4X"5D"1X"4D"1X"4D"1X"4A"2X"1X/"<>A
      226    10775        */
      227    10776        %EJECT;
PL6.E3A0      #001=VMD$DI_LIST File=VMD$DISPLAY2.:VMB6TSI                        WED 08/20/97 15:10 Page:24
      228    10777    1       CALL SETUP ALTRET(NO_MORE);

  10777 13 000002   000202 701000 13                 TSX1    SETUP
        13 000003   000061 702000 13                 TSX2    NO_MORE

      229    10778        /*
      230    10779             ***** Print the definition ...
      231    10780        */
      232    10781    1       F_FDS.FMT_ = VECTOR(LIST_FMT);

  10781 13 000004   000000 237000 14                 LDAQ    0
        13 000005   000000 757000 11                 STAQ    F_FDS

      233    10782    1       F_FDS.NVECS# = 1;

  10782 13 000006   000001 235007                    LDA     1,DL
        13 000007   000011 755000 11                 STA     F_FDS+9

      234    10783    2       DO FOREVER;

      235    10784    2           CALL VMA$GET_NEXT_ENTRY (VM_UADDRESS,VM_RADDRESS,NEXT$,VM_ADDLIST$) ALTRET(
             10784                    NO_MORE);

  10784 13 000010   000003 236000 14                 LDQ     3
        13 000011   200337 756100                    STQ     ADDRESS_TEXT+71,,AUTO
        13 000012   200144 630500                    EPPR0   NEXT$,,AUTO
        13 000013   200336 450500                    STP0    ADDRESS_TEXT+70,,AUTO
        13 000014   200007 631500                    EPPR1   VM_RADDRESS,,AUTO
        13 000015   200335 451500                    STP1    ADDRESS_TEXT+69,,AUTO
        13 000016   200033 633500                    EPPR3   VM_UADDRESS,,AUTO
        13 000017   200334 453500                    STP3    ADDRESS_TEXT+68,,AUTO
        13 000020   200334 630500                    EPPR0   ADDRESS_TEXT+68,,AUTO
        13 000021   000002 631400 14                 EPPR1   2
        13 000022   000000 701000 xent               TSX1    VMA$GET_NEXT_ENTRY
        13 000023   000061 702000 13                 TSX2    NO_MORE

      236    10785    2           ADDRESS_TEXT.L# = LENGTHC(ADDRESS_TEXT.NAME#);
PL6.E3A0      #001=VMD$DI_LIST File=VMD$DISPLAY2.:VMB6TSI                        WED 08/20/97 15:10 Page:25

  10785 13 000024   400000 236003                    LDQ     -131072,DU
        13 000025   200230 552140                    STBQ    ADDRESS_TEXT,'40'O,AUTO

      237    10786    2           CALL VMF$MAKE_ADDRESS2 (ADDRESS_TEXT,VM_UADDRESS);

  10786 13 000026   200033 630500                    EPPR0   VM_UADDRESS,,AUTO
        13 000027   200335 450500                    STP0    ADDRESS_TEXT+69,,AUTO
        13 000030   200230 631500                    EPPR1   ADDRESS_TEXT,,AUTO
        13 000031   200334 451500                    STP1    ADDRESS_TEXT+68,,AUTO
        13 000032   200334 630500                    EPPR0   ADDRESS_TEXT+68,,AUTO
        13 000033   000004 631400 14                 EPPR1   4
        13 000034   000000 701000 xent               TSX1    VMF$MAKE_ADDRESS2
        13 000035   000000 011000                    NOP     0

      238    10787    2           IF ADDRESS_TEXT.L# ~= 0

  10787 13 000036   200230 236100                    LDQ     ADDRESS_TEXT,,AUTO
        13 000037   777000 316003                    CANQ    -512,DU
        13 000040   000052 600000 13                 TZE     s:10791

      239    10788    2           THEN
      240    10789    2               VECT_ARRAY(0) = VECTOR(SUBSTR(ADDRESS_TEXT.NAME#,0,ADDRESS_TEXT.L#));

  10789 13 000041   200230 236100                    LDQ     ADDRESS_TEXT,,AUTO
        13 000042   000033 772000                    QRL     27
        13 000043   000064 737000                    LLS     52
        13 000044   000140 135007                    SBLA    96,DL
        13 000045   200334 452500                    STP2    ADDRESS_TEXT+68,,AUTO
        13 000046   200334 236100                    LDQ     ADDRESS_TEXT+68,,AUTO
        13 000047   000005 036000 14                 ADLQ    5
        13 000050   000074 757000 11                 STAQ    VECT_ARRAY
        13 000051   000054 710000 13                 TRA     s:10792

      241    10790    2           ELSE
      242    10791    2               VECT_ARRAY(0) = VECTOR(NULL_CHARS);

PL6.E3A0      #001=VMD$DI_LIST File=VMD$DISPLAY2.:VMB6TSI                        WED 08/20/97 15:10 Page:26
  10791 13 000052   000006 237000 14                 LDAQ    6
        13 000053   000074 757000 11                 STAQ    VECT_ARRAY

      243    10792    2           CALL VMD$WRITE_BUF (F_FDS);

  10792 13 000054   000011 630400 14                 EPPR0   9
        13 000055   000010 631400 14                 EPPR1   8
        13 000056   000000 701000 xent               TSX1    VMD$WRITE_BUF
        13 000057   000000 011000                    NOP     0

      244    10793    2       END;                            /* Do forever ... end */

  10793 13 000060   000010 710000 13                 TRA     s:10784

      245    10794        /**/
      246    10795    1   NO_MORE:
      247    10796    1       IF VM_ADD_HEAD.NUM_ENTRIES ~= 0    /* if list contains no entries */

  10796 13 000061   000000 470400 xsym  NO_MORE      LDP0    VM_ADDLIST$
        13 000062   000001 235100                    LDA     1,,PR0
        13 000063   000070 600000 13                 TZE     s:10799

      248    10797    1       THEN
      249    10798    1           CALL VMD$WRITE_BUF (SPACE_LINE);

  10798 13 000064   000012 630400 14                 EPPR0   10
        13 000065   000010 631400 14                 EPPR1   8
        13 000066   000000 701000 xent               TSX1    VMD$WRITE_BUF
        13 000067   000000 011000                    NOP     0

      250    10799    1       RETURN;

  10799 13 000070   000000 702200 xent               TSX2  ! X66_ARET

      251    10800        %EJECT;
PL6.E3A0      #001=VMD$DI_LIST File=VMD$DISPLAY2.:VMB6TSI                        WED 08/20/97 15:10 Page:27
      252    10801        /*F*
      253    10802             NAME: VMD$DI_USER
      254    10803             PURPOSE:
      255    10804                   To display the definition of a specified USER.
      256    10805             DESCRIPTION:
      257    10806                   This routine expects the definition to be stored in
      258    10807                   the data segment based upon VM_ADDLIST$.
      259    10808                   It also expects the name of the USER to be passed as
      260    10809                   a parameter in the form of VM_USERKEY.
      261    10810
      262    10811                   The following parameters are required:
      263    10812                      VM_USERKEY   - key used to read the definition.
      264    10813                      DCB#         - number of the DCB to display thru.
      265    10814        */
      266    10815    1   VMD$DI_USER: ENTRY (VM_LISTKEY,DCB#);

  10815 13 000071   000000 700200 xent  VMD$DI_USER  TSX0  ! X66_AUTO_4
        13 000072   000344 000004                    ZERO    228,4

      267    10816    1       CALL SETUP ALTRET(NO_MORE);

  10816 13 000073   000202 701000 13                 TSX1    SETUP
        13 000074   000061 702000 13                 TSX2    NO_MORE

      268    10817                       /* Only display account info if user has access to the global
      269    10818                          file other than via processor priv */
      270    10819    1       IF DCBADDR(M$MAIL_GLOBAL_NUM)->F$DCB.FFLG.EXEC#

  10819 13 000075   000013 470400 14                 LDP0    11
        13 000076   000000 471500                    LDP1    0,,PR0
        13 000077   000000 720000 xsym               LXL0    M$MAIL_GLOBAL_NUM
        13 000100   100000 473510                    LDP3    0,X0,PR1
        13 000101   300004 236100                    LDQ     4,,PR3
        13 000102   002000 316003                    CANQ    1024,DU
        13 000103   000201 601000 13                 TNZ     NO_MORE_DI_USER

      271    10820    1       THEN
PL6.E3A0      #001=VMD$DI_LIST File=VMD$DISPLAY2.:VMB6TSI                        WED 08/20/97 15:10 Page:28
      272    10821    1           GOTO NO_MORE_DI_USER;
      273    10822        /*
      274    10823             ***** Print the definition ...
      275    10824        */
      276    10825    1       F_FDS.FMT_ = VECTOR(USER_FMT);

  10825 13 000104   000014 237000 14                 LDAQ    12
        13 000105   000000 757000 11                 STAQ    F_FDS

      277    10826    1       F_FDS.NVECS# = 3;

  10826 13 000106   000003 235007                    LDA     3,DL
        13 000107   000011 755000 11                 STA     F_FDS+9

      278    10827    2       DO FOREVER;

      279    10828    2           CALL VMA$GET_NEXT_ENTRY (VM_UADDRESS,VM_RADDRESS,NEXT$,VM_ADDLIST$) ALTRET(
             10828                    NO_MORE_DI_USER);

  10828 13 000110   000003 236000 14                 LDQ     3
        13 000111   200337 756100                    STQ     ADDRESS_TEXT+71,,AUTO
        13 000112   200144 630500                    EPPR0   NEXT$,,AUTO
        13 000113   200336 450500                    STP0    ADDRESS_TEXT+70,,AUTO
        13 000114   200007 631500                    EPPR1   VM_RADDRESS,,AUTO
        13 000115   200335 451500                    STP1    ADDRESS_TEXT+69,,AUTO
        13 000116   200033 633500                    EPPR3   VM_UADDRESS,,AUTO
        13 000117   200334 453500                    STP3    ADDRESS_TEXT+68,,AUTO
        13 000120   200334 630500                    EPPR0   ADDRESS_TEXT+68,,AUTO
        13 000121   000002 631400 14                 EPPR1   2
        13 000122   000000 701000 xent               TSX1    VMA$GET_NEXT_ENTRY
        13 000123   000201 702000 13                 TSX2    NO_MORE_DI_USER

      280    10829        /*
      281    10830             ***** Break up the NAME_KEY into accn and uname ...
      282    10831        */
      283    10832    2           ACCN = SUBSTR(VM_RADDRESS.NAME_KEY,0,8);

PL6.E3A0      #001=VMD$DI_LIST File=VMD$DISPLAY2.:VMB6TSI                        WED 08/20/97 15:10 Page:29
  10832 13 000124   040100 100500                    MLR     fill='040'O
        13 000125   200011 400010                    ADSC9   VM_RADDRESS+2,,AUTO      cn=2,n=8
        13 000126   200137 000010                    ADSC9   ACCN,,AUTO               cn=0,n=8

      284    10833    2           UNAME = SUBSTR(VM_RADDRESS.NAME_KEY,8);

  10833 13 000127   040100 100500                    MLR     fill='040'O
        13 000130   200013 400014                    ADSC9   VM_RADDRESS+4,,AUTO      cn=2,n=12
        13 000131   200141 000014                    ADSC9   UNAME,,AUTO              cn=0,n=12

      285    10834    2           VECT_ARRAY(0) = VECTOR(ACCN);

  10834 13 000132   000016 235000 14                 LDA     14
        13 000133   200334 452500                    STP2    ADDRESS_TEXT+68,,AUTO
        13 000134   200334 236100                    LDQ     ADDRESS_TEXT+68,,AUTO
        13 000135   000137 036003                    ADLQ    95,DU
        13 000136   000074 757000 11                 STAQ    VECT_ARRAY

      286    10835    2           VECT_ARRAY(1) = VECTOR(UNAME);

  10835 13 000137   000017 235000 14                 LDA     15
        13 000140   200334 452500                    STP2    ADDRESS_TEXT+68,,AUTO
        13 000141   200334 236100                    LDQ     ADDRESS_TEXT+68,,AUTO
        13 000142   000141 036003                    ADLQ    97,DU
        13 000143   000076 757000 11                 STAQ    VECT_ARRAY+2

      287    10836    2           ADDRESS_TEXT.L# = LENGTHC(ADDRESS_TEXT.NAME#);

  10836 13 000144   400000 236003                    LDQ     -131072,DU
        13 000145   200230 552140                    STBQ    ADDRESS_TEXT,'40'O,AUTO

      288    10837    2           CALL VMF$MAKE_ADDRESS2 (ADDRESS_TEXT,VM_UADDRESS);

  10837 13 000146   200033 630500                    EPPR0   VM_UADDRESS,,AUTO
        13 000147   200335 450500                    STP0    ADDRESS_TEXT+69,,AUTO
        13 000150   200230 631500                    EPPR1   ADDRESS_TEXT,,AUTO
        13 000151   200334 451500                    STP1    ADDRESS_TEXT+68,,AUTO
PL6.E3A0      #001=VMD$DI_LIST File=VMD$DISPLAY2.:VMB6TSI                        WED 08/20/97 15:10 Page:30
        13 000152   200334 630500                    EPPR0   ADDRESS_TEXT+68,,AUTO
        13 000153   000004 631400 14                 EPPR1   4
        13 000154   000000 701000 xent               TSX1    VMF$MAKE_ADDRESS2
        13 000155   000000 011000                    NOP     0

      289    10838    2           IF ADDRESS_TEXT.L# ~= 0

  10838 13 000156   200230 236100                    LDQ     ADDRESS_TEXT,,AUTO
        13 000157   777000 316003                    CANQ    -512,DU
        13 000160   000172 600000 13                 TZE     s:10842

      290    10839    2           THEN
      291    10840    2               VECT_ARRAY(2) = VECTOR(SUBSTR(ADDRESS_TEXT.NAME#,0,ADDRESS_TEXT.L#));

  10840 13 000161   200230 236100                    LDQ     ADDRESS_TEXT,,AUTO
        13 000162   000033 772000                    QRL     27
        13 000163   000064 737000                    LLS     52
        13 000164   000140 135007                    SBLA    96,DL
        13 000165   200334 452500                    STP2    ADDRESS_TEXT+68,,AUTO
        13 000166   200334 236100                    LDQ     ADDRESS_TEXT+68,,AUTO
        13 000167   000005 036000 14                 ADLQ    5
        13 000170   000100 757000 11                 STAQ    VECT_ARRAY+4
        13 000171   000174 710000 13                 TRA     s:10843

      292    10841    2           ELSE
      293    10842    2               VECT_ARRAY(2) = VECTOR(NULL_CHARS);

  10842 13 000172   000006 237000 14                 LDAQ    6
        13 000173   000100 757000 11                 STAQ    VECT_ARRAY+4

      294    10843    2           CALL VMD$WRITE_BUF (F_FDS);

  10843 13 000174   000011 630400 14                 EPPR0   9
        13 000175   000010 631400 14                 EPPR1   8
        13 000176   000000 701000 xent               TSX1    VMD$WRITE_BUF
        13 000177   000000 011000                    NOP     0

PL6.E3A0      #001=VMD$DI_LIST File=VMD$DISPLAY2.:VMB6TSI                        WED 08/20/97 15:10 Page:31
      295    10844    2       END;                            /* Do forever ... end */

  10844 13 000200   000110 710000 13                 TRA     s:10828

      296    10845    1   NO_MORE_DI_USER:
      297    10846    1       RETURN;

  10846 13 000201   000000 702200 xent  NO_MORE_DI_* TSX2  ! X66_ARET

      298    10847        %EJECT;
PL6.E3A0      #001=VMD$DI_LIST File=VMD$DISPLAY2.:VMB6TSI                        WED 08/20/97 15:10 Page:32
      299    10848    1   SETUP: PROC ALTRET;

  10848 13 000202   200332 741300       SETUP        STX1  ! ADDRESS_TEXT+66,,AUTO

      300    10849        /*
      301    10850             ***** Setup the name of the list in
      302    10851                   an easier to use form (i.e. TEXTC)...
      303    10852        */
      304    10853    2       LISTNAME.NAME# = VM_LISTKEY.TEXT;

  10853 13 000203   200003 470500                    LDP0    @VM_LISTKEY,,AUTO
        13 000204   040100 100500                    MLR     fill='040'O
        13 000205   000000 400310                    ADSC9   0,,PR0                   cn=2,n=200
        13 000206   200145 200310                    ADSC9   LISTNAME,,AUTO           cn=1,n=200

      305    10854    2       LISTNAME.L# = LENGTHC(LISTNAME.NAME#);

  10854 13 000207   310000 236003                    LDQ     102400,DU
        13 000210   200145 552140                    STBQ    LISTNAME,'40'O,AUTO

      306    10855    2       CALL VMA$COMPRESS_BLANKS (ADDR(LISTNAME));

  10855 13 000211   200145 631500                    EPPR1   LISTNAME,,AUTO
        13 000212   200334 451500                    STP1    ADDRESS_TEXT+68,,AUTO
        13 000213   200334 633500                    EPPR3   ADDRESS_TEXT+68,,AUTO
        13 000214   200335 453500                    STP3    ADDRESS_TEXT+69,,AUTO
        13 000215   200335 630500                    EPPR0   ADDRESS_TEXT+69,,AUTO
        13 000216   000010 631400 14                 EPPR1   8
        13 000217   000000 701000 xent               TSX1    VMA$COMPRESS_BLANKS
        13 000220   000000 011000                    NOP     0

      307    10856        /*
      308    10857             ***** If this list contains no entries,
      309    10858                   then report as an error ...
      310    10859        */
      311    10860    2       IF VM_ADD_HEAD.NUM_ENTRIES = 0

PL6.E3A0      #001=VMD$DI_LIST File=VMD$DISPLAY2.:VMB6TSI                        WED 08/20/97 15:10 Page:33
  10860 13 000221   000000 470400 xsym               LDP0    VM_ADDLIST$
        13 000222   000001 235100                    LDA     1,,PR0
        13 000223   000246 601000 13                 TNZ     s:10869

      312    10861    2       THEN
      313    10862    3       DO;

      314    10863    3           CALL XUR$ERRMSG (E_EMPTYDEF,,DCB#,VECTOR(LISTNAME));

  10863 13 000224   000020 235000 14                 LDA     16
        13 000225   200334 452500                    STP2    ADDRESS_TEXT+68,,AUTO
        13 000226   200334 236100                    LDQ     ADDRESS_TEXT+68,,AUTO
        13 000227   000145 036003                    ADLQ    101,DU
        13 000230   200336 757100                    STAQ    ADDRESS_TEXT+70,,AUTO
        13 000231   200336 631500                    EPPR1   ADDRESS_TEXT+70,,AUTO
        13 000232   200343 451500                    STP1    ADDRESS_TEXT+75,,AUTO
        13 000233   200004 236100                    LDQ     @DCB#,,AUTO
        13 000234   200342 756100                    STQ     ADDRESS_TEXT+74,,AUTO
        13 000235   000021 236000 14                 LDQ     17
        13 000236   000022 235000 14                 LDA     18
        13 000237   200340 757100                    STAQ    ADDRESS_TEXT+72,,AUTO
        13 000240   200340 630500                    EPPR0   ADDRESS_TEXT+72,,AUTO
        13 000241   000002 631400 14                 EPPR1   2
        13 000242   000000 701000 xent               TSX1    XUR$ERRMSG
        13 000243   000000 011000                    NOP     0

      315    10864    3           ALTRETURN;

  10864 13 000244   200332 221300                    LDX1  ! ADDRESS_TEXT+66,,AUTO
        13 000245   000000 702211                    TSX2  ! 0,X1

      316    10865    3       END;
      317    10866        /*
      318    10867             ***** Initialize ...
      319    10868        */
      320    10869    2       SPACE_LINE.DCB# = DCB#;

PL6.E3A0      #001=VMD$DI_LIST File=VMD$DISPLAY2.:VMB6TSI                        WED 08/20/97 15:10 Page:34
  10869 13 000246   200004 471500                    LDP1    @DCB#,,AUTO
        13 000247   100000 720100                    LXL0    0,,PR1
        13 000250   000051 740000 11                 STX0    SPACE_LINE+11

      321    10870    2       F_FDS.DCB# = DCB#;

  10870 13 000251   100000 721100                    LXL1    0,,PR1
        13 000252   000013 741000 11                 STX1    F_FDS+11

      322    10871    2       NEXT$ = VM_ADD_HEAD.HEAD$;

  10871 13 000253   000003 236100                    LDQ     3,,PR0
        13 000254   200144 756100                    STQ     NEXT$,,AUTO

      323    10872        /*
      324    10873             ***** Print a blank line before (and after) this display ...
      325    10874        */
      326    10875    2       CALL VMD$WRITE_BUF (SPACE_LINE);

  10875 13 000255   000012 630400 14                 EPPR0   10
        13 000256   000010 631400 14                 EPPR1   8
        13 000257   000000 701000 xent               TSX1    VMD$WRITE_BUF
        13 000260   000000 011000                    NOP     0

      327    10876        /*
      328    10877             ***** Print the heading ...
      329    10878        */
      330    10879    2       VECT_ARRAY(0) = VECTOR(SUBSTR(LISTNAME.NAME#,0,LISTNAME.L#));

  10879 13 000261   200145 236100                    LDQ     LISTNAME,,AUTO
        13 000262   000033 772000                    QRL     27
        13 000263   000064 737000                    LLS     52
        13 000264   000140 135007                    SBLA    96,DL
        13 000265   200334 452500                    STP2    ADDRESS_TEXT+68,,AUTO
        13 000266   200334 236100                    LDQ     ADDRESS_TEXT+68,,AUTO
        13 000267   000023 036000 14                 ADLQ    19
        13 000270   000074 757000 11                 STAQ    VECT_ARRAY
PL6.E3A0      #001=VMD$DI_LIST File=VMD$DISPLAY2.:VMB6TSI                        WED 08/20/97 15:10 Page:35

      331    10880    2       IF ADDR(SRCH#) ~= ADDR(NIL)

  10880 13 000271   200005 236100                    LDQ     @SRCH#,,AUTO
        13 000272   000021 116000 14                 CMPQ    17
        13 000273   000442 600000 13                 TZE     s:10992

      332    10881    3       THEN DO;

      333    10882    3           IF VM_SEARCH_INFO.DCB#(SRCH#) = M$MAIL_FILE_NUM

  10882 13 000274   200005 470500                    LDP0    @SRCH#,,AUTO
        13 000275   000000 720100                    LXL0    0,,PR0
        13 000276   200006 471500                    LDP1    @VM_SEARCH_INFO,,AUTO
        13 000277   100001 236110                    LDQ     1,X0,PR1
        13 000300   000000 116000 xsym               CMPQ    M$MAIL_FILE_NUM
        13 000301   000324 601000 13                 TNZ     s:10909

      334    10883    4           THEN DO;

      335    10884    4               F_FDS.NVECS# = 1;

  10884 13 000302   000001 235007                    LDA     1,DL
        13 000303   000011 755000 11                 STA     F_FDS+9

      336    10885                    %INIT_STR(STR=VM_HEADER_FMT2,CODE=E_HEADER_FMT2,TEST=YES,VECT=
             10885                        "F_FDS.FMT_");

  10892 13 000304   040000 106400                    CMPC    fill='040'O
        13 000305   000105 200120 11                 ADSC9   VM_HEADER_FMT2           cn=1,n=80
        13 000306   000024 000001 14                 ADSC9   20                       cn=0,n=1
        13 000307   000315 601000 13                 TNZ     s:10897

  10894 13 000310   000026 630400 14                 EPPR0   22
        13 000311   000025 631400 14                 EPPR1   21
        13 000312   000000 701000 xent               TSX1    VMD$ERRMSG
        13 000313   000000 011000                    NOP     0
PL6.E3A0      #001=VMD$DI_LIST File=VMD$DISPLAY2.:VMB6TSI                        WED 08/20/97 15:10 Page:36

  10895 13 000314   000435 710000 13                 TRA     s:10989

  10897 13 000315   000105 236000 11                 LDQ     VM_HEADER_FMT2
        13 000316   000033 772000                    QRL     27
        13 000317   000064 737000                    LLS     52
        13 000320   000140 135007                    SBLA    96,DL
        13 000321   000031 236000 14                 LDQ     25
        13 000322   000000 757000 11                 STAQ    F_FDS

      337    10908    4           END;

  10908 13 000323   000435 710000 13                 TRA     s:10989

      338    10909    3           ELSE IF VM_SEARCH_INFO.DCB#(SRCH#) = M$MAIL_GLOBAL_NUM

  10909 13 000324   000000 116000 xsym               CMPQ    M$MAIL_GLOBAL_NUM
        13 000325   000367 601000 13                 TNZ     s:10960

      339    10910    4               THEN DO;

      340    10911    4                   F_FDS.NVECS# = 2;

  10911 13 000326   000002 235007                    LDA     2,DL
        13 000327   000011 755000 11                 STA     F_FDS+9

      341    10912                        %INIT_STR(STR=VM_GLOBAL_TEXT,CODE=E_GLOBAL_TEXT,TEST=YES,VECT=
             10912                            "VECT_ARRAY(1)");

  10919 13 000330   040000 106400                    CMPC    fill='040'O
        13 000331   000157 200120 11                 ADSC9   VM_GLOBAL_TEXT           cn=1,n=80
        13 000332   000024 000001 14                 ADSC9   20                       cn=0,n=1
        13 000333   000341 601000 13                 TNZ     s:10924

  10921 13 000334   000032 630400 14                 EPPR0   26
        13 000335   000025 631400 14                 EPPR1   21
        13 000336   000000 701000 xent               TSX1    VMD$ERRMSG
PL6.E3A0      #001=VMD$DI_LIST File=VMD$DISPLAY2.:VMB6TSI                        WED 08/20/97 15:10 Page:37
        13 000337   000000 011000                    NOP     0

  10922 13 000340   000347 710000 13                 TRA     s:10942

  10924 13 000341   000157 236000 11                 LDQ     VM_GLOBAL_TEXT
        13 000342   000033 772000                    QRL     27
        13 000343   000064 737000                    LLS     52
        13 000344   000140 135007                    SBLA    96,DL
        13 000345   000035 236000 14                 LDQ     29
        13 000346   000076 757000 11                 STAQ    VECT_ARRAY+2

      342    10935                        %INIT_STR(STR=VM_HEADER_FMT_LIST,CODE=E_HEADER_FMT_LIST,TEST=YES,
             10935                            VECT="F_FDS.FMT_");

  10942 13 000347   040000 106400                    CMPC    fill='040'O
        13 000350   000132 200120 11                 ADSC9   VM_HEADER_FMT_LIST       cn=1,n=80
        13 000351   000024 000001 14                 ADSC9   20                       cn=0,n=1
        13 000352   000360 601000 13                 TNZ     s:10947

  10944 13 000353   000036 630400 14                 EPPR0   30
        13 000354   000025 631400 14                 EPPR1   21
        13 000355   000000 701000 xent               TSX1    VMD$ERRMSG
        13 000356   000000 011000                    NOP     0

  10945 13 000357   000435 710000 13                 TRA     s:10989

  10947 13 000360   000132 236000 11                 LDQ     VM_HEADER_FMT_LIST
        13 000361   000033 772000                    QRL     27
        13 000362   000064 737000                    LLS     52
        13 000363   000140 135007                    SBLA    96,DL
        13 000364   000041 236000 14                 LDQ     33
        13 000365   000000 757000 11                 STAQ    F_FDS

      343    10958    4               END;

  10958 13 000366   000435 710000 13                 TRA     s:10989

PL6.E3A0      #001=VMD$DI_LIST File=VMD$DISPLAY2.:VMB6TSI                        WED 08/20/97 15:10 Page:38
      344    10959    4               ELSE DO;

      345    10960    4                   ADDRESS_TEXT.L# = LENGTHC(ADDRESS_TEXT.NAME#);

  10960 13 000367   400000 236003                    LDQ     -131072,DU
        13 000370   200230 552140                    STBQ    ADDRESS_TEXT,'40'O,AUTO

      346    10961    4                   CALL VMF$MAKE_ADDRESS2 (ADDRESS_TEXT,

  10961 13 000371   000000 720100                    LXL0    0,,PR0
        13 000372   100014 721110                    LXL1    12,X0,PR1
        13 000373   000000 473400 xsym               LDP3    VM_PROFILE$
        13 000374   300115 474511                    LDP4    77,X1,PR3
        13 000375   200335 454500                    STP4    ADDRESS_TEXT+69,,AUTO
        13 000376   200230 635500                    EPPR5   ADDRESS_TEXT,,AUTO
        13 000377   200334 455500                    STP5    ADDRESS_TEXT+68,,AUTO
        13 000400   200334 630500                    EPPR0   ADDRESS_TEXT+68,,AUTO
        13 000401   000004 631400 14                 EPPR1   4
        13 000402   000000 701000 xent               TSX1    VMF$MAKE_ADDRESS2
        13 000403   000000 011000                    NOP     0

      347    10962    4                     VM_PROFILE.SEARCH_LIST$(VM_SEARCH_INFO.MAP(SRCH#))->VM$RADDRESS);
      348    10963    4                  VECT_ARRAY(1) = VECTOR(SUBSTR(ADDRESS_TEXT.NAME#,0,ADDRESS_TEXT.L#))
             10963                            ;

  10963 13 000404   200230 236100                    LDQ     ADDRESS_TEXT,,AUTO
        13 000405   000033 772000                    QRL     27
        13 000406   000064 737000                    LLS     52
        13 000407   000140 135007                    SBLA    96,DL
        13 000410   200334 452500                    STP2    ADDRESS_TEXT+68,,AUTO
        13 000411   200334 236100                    LDQ     ADDRESS_TEXT+68,,AUTO
        13 000412   000005 036000 14                 ADLQ    5
        13 000413   000076 757000 11                 STAQ    VECT_ARRAY+2

      349    10964    4                   F_FDS.NVECS# = 2;

  10964 13 000414   000002 235007                    LDA     2,DL
PL6.E3A0      #001=VMD$DI_LIST File=VMD$DISPLAY2.:VMB6TSI                        WED 08/20/97 15:10 Page:39
        13 000415   000011 755000 11                 STA     F_FDS+9

      350    10965                        %INIT_STR(STR=VM_HEADER_FMT_LIST,CODE=E_HEADER_FMT_LIST,TEST=YES,
             10965                            VECT="F_FDS.FMT_");

  10972 13 000416   040000 106400                    CMPC    fill='040'O
        13 000417   000132 200120 11                 ADSC9   VM_HEADER_FMT_LIST       cn=1,n=80
        13 000420   000024 000001 14                 ADSC9   20                       cn=0,n=1
        13 000421   000427 601000 13                 TNZ     s:10977

  10974 13 000422   000036 630400 14                 EPPR0   30
        13 000423   000025 631400 14                 EPPR1   21
        13 000424   000000 701000 xent               TSX1    VMD$ERRMSG
        13 000425   000000 011000                    NOP     0

  10975 13 000426   000435 710000 13                 TRA     s:10989

  10977 13 000427   000132 236000 11                 LDQ     VM_HEADER_FMT_LIST
        13 000430   000033 772000                    QRL     27
        13 000431   000064 737000                    LLS     52
        13 000432   000140 135007                    SBLA    96,DL
        13 000433   000041 236000 14                 LDQ     33
        13 000434   000000 757000 11                 STAQ    F_FDS

      351    10988    4               END;

      352    10989    3           CALL VMD$WRITE_BUF (F_FDS);

  10989 13 000435   000011 630400 14                 EPPR0   9
        13 000436   000010 631400 14                 EPPR1   8
        13 000437   000000 701000 xent               TSX1    VMD$WRITE_BUF
        13 000440   000000 011000                    NOP     0

      353    10990    3       END;

  10990 13 000441   000467 710000 13                 TRA     s:11018

PL6.E3A0      #001=VMD$DI_LIST File=VMD$DISPLAY2.:VMB6TSI                        WED 08/20/97 15:10 Page:40
      354    10991    3       ELSE DO;

      355    10992    3           F_FDS.NVECS# = 1;

  10992 13 000442   000001 235007                    LDA     1,DL
        13 000443   000011 755000 11                 STA     F_FDS+9

      356    10993               %INIT_STR(STR=VM_HEADER_FMT2,CODE=E_HEADER_FMT2,TEST=YES,VECT="F_FDS.FMT_");

  11000 13 000444   040000 106400                    CMPC    fill='040'O
        13 000445   000105 200120 11                 ADSC9   VM_HEADER_FMT2           cn=1,n=80
        13 000446   000024 000001 14                 ADSC9   20                       cn=0,n=1
        13 000447   000455 601000 13                 TNZ     s:11005

  11002 13 000450   000026 630400 14                 EPPR0   22
        13 000451   000025 631400 14                 EPPR1   21
        13 000452   000000 701000 xent               TSX1    VMD$ERRMSG
        13 000453   000000 011000                    NOP     0

  11003 13 000454   000463 710000 13                 TRA     s:11016

  11005 13 000455   000105 236000 11                 LDQ     VM_HEADER_FMT2
        13 000456   000033 772000                    QRL     27
        13 000457   000064 737000                    LLS     52
        13 000460   000140 135007                    SBLA    96,DL
        13 000461   000031 236000 14                 LDQ     25
        13 000462   000000 757000 11                 STAQ    F_FDS

      357    11016    3           CALL VMD$WRITE_BUF (F_FDS);

  11016 13 000463   000011 630400 14                 EPPR0   9
        13 000464   000010 631400 14                 EPPR1   8
        13 000465   000000 701000 xent               TSX1    VMD$WRITE_BUF
        13 000466   000000 011000                    NOP     0

      358    11017    3       END;

PL6.E3A0      #001=VMD$DI_LIST File=VMD$DISPLAY2.:VMB6TSI                        WED 08/20/97 15:10 Page:41
      359    11018    2       RETURN;

  11018 13 000467   200332 221300                    LDX1  ! ADDRESS_TEXT+66,,AUTO
        13 000470   000001 702211                    TSX2  ! 1,X1

F_FDS
 Sect OctLoc
  11     000   000000 177640   000000 006014   000000 000000   000000 000000    ................
  11     004   000000 000000   000000 177640   000000 006014   000000 000001    ................
  11     010   000000 000000   000000 000000   000074 006000   000000 101500    .........<....A.
  11     014   000000 000000   000000 000000   000000 000001   000000 000012    ................
  11     020   000000 000000   ****** ******   ****** ******   000000 000000    ................
  11     024   000000 000000   000000 000000   000000 000000   000000 006014    ................
  11     030   000000 006014   000000 006014   000000 006014   000000 000000    ................
  11     034   000000 000000   000000 000000                                    ........

SPACE_LINE
 Sect OctLoc
  11     036   000000 577640   000001 006000   000000 000000   000000 000000    ................
  11     042   000000 000000   000000 177640   000000 006014   000000 000001    ................
  11     046   000000 000000   000000 000000   000074 006000   000000 101500    .........<....A.
  11     052   000000 000000   000000 000000   000000 000001   000000 000012    ................
  11     056   000000 000000   ****** ******   ****** ******   000000 000000    ................
  11     062   000000 000000   000000 000000   000000 000000   000000 006014    ................
  11     066   000000 006014   000000 006014   000000 006014   000000 000000    ................
  11     072   000000 000000   000000 000000                                    ........

VECT_ARRAY
 Sect OctLoc
  11     074   ****** ******   ****** ******   ****** ******   ****** ******    ................

GLOBAL_TEXT
 Sect OctLoc
  11     102   052052 040107   114117 102101   114040 052052                    ** GLOBAL **

VM_HEADER_FMT2
 Sect OctLoc
PL6.E3A0      #001=VMD$DI_LIST File=VMD$DISPLAY2.:VMB6TSI                        WED 08/20/97 15:10 Page:42
  11     105   120040 040040   040040 040040   040040 040040   040040 040040    P
  11     111   040040 040040   040040 040040   040040 040040   040040 040040
  11     131*  040*** ******                                                     ...

VM_HEADER_FMT_LIST
 Sect OctLoc
  11     132   120040 040040   040040 040040   040040 040040   040040 040040    P
  11     136   040040 040040   040040 040040   040040 040040   040040 040040
  11     156*  040*** ******                                                     ...

VM_GLOBAL_TEXT
 Sect OctLoc
  11     157   120040 040040   040040 040040   040040 040040   040040 040040    P
  11     163   040040 040040   040040 040040   040040 040040   040040 040040
  11     203*  040*** ******                                                     ...

VM_RECEIVERS
 Sect OctLoc
  11     204   037040 040040   040040 040040   040040 040040   040040 040040    .
  11     210   040040 040040   040040 040040   040040 040040   040040 040040

VM_SENDER
 Sect OctLoc
  11     214   037040 040040   040040 040040   040040 040040   040040 040040    .
  11     220   040040 040040   040040 040040   040040 040040   040040 040040

VM_FULL
 Sect OctLoc
  11     224   037040 040040   040040 040040   040040 040040   040040 040040    .
  11     230   040040 040040   040040 040040   040040 040040   040040 040040

VM_PROFILE_FLAGS1_FMT
 Sect OctLoc
  11     234   120040 040040   040040 040040   040040 040040   040040 040040    P
  11     240   040040 040040   040040 040040   040040 040040   040040 040040
  11     260*  040*** ******                                                     ...

PL6.E3A0      #001=VMD$DI_LIST File=VMD$DISPLAY2.:VMB6TSI                        WED 08/20/97 15:10 Page:43
VM_PROFILE_FLAGS2_FMT
 Sect OctLoc
  11     261   120040 040040   040040 040040   040040 040040   040040 040040    P
  11     265   040040 040040   040040 040040   040040 040040   040040 040040
  11     305*  040*** ******                                                     ...

VM_PROFILE_FLAGS3_FMT
 Sect OctLoc
  11     306   120040 040040   040040 040040   040040 040040   040040 040040    P
  11     312   040040 040040   040040 040040   040040 040040   040040 040040
  11     332*  040*** ******                                                     ...

VM_PROFILE_FLAGS4_FMT
 Sect OctLoc
  11     333   120040 040040   040040 040040   040040 040040   040040 040040    P
  11     337   040040 040040   040040 040040   040040 040040   040040 040040
  11     357*  040*** ******                                                     ...

VM_PROFILE_FFOLDER_FMT
 Sect OctLoc
  11     360   120040 040040   040040 040040   040040 040040   040040 040040    P
  11     364   040040 040040   040040 040040   040040 040040   040040 040040
  11     404*  040*** ******                                                     ...

VM_PROFILE_REPLY_FMT
 Sect OctLoc
  11     405   120040 040040   040040 040040   040040 040040   040040 040040    P
  11     411   040040 040040   040040 040040   040040 040040   040040 040040
  11     431*  040*** ******                                                     ...

VM_PROFILE_SETUP_FMT
 Sect OctLoc
  11     432   120040 040040   040040 040040   040040 040040   040040 040040    P
  11     436   040040 040040   040040 040040   040040 040040   040040 040040
  11     456*  040*** ******                                                     ...

VM_PROFILE_SIGNED_FMT
PL6.E3A0      #001=VMD$DI_LIST File=VMD$DISPLAY2.:VMB6TSI                        WED 08/20/97 15:10 Page:44
 Sect OctLoc
  11     457   120040 040040   040040 040040   040040 040040   040040 040040    P
  11     463   040040 040040   040040 040040   040040 040040   040040 040040
  11     503*  040*** ******                                                     ...

VM_PROFILE_SRCH_FMT
 Sect OctLoc
  11     504   120040 040040   040040 040040   040040 040040   040040 040040    P
  11     510   040040 040040   040040 040040   040040 040040   040040 040040
  11     530*  040*** ******                                                     ...

VM_PROFILE_SRCH2_FMT
 Sect OctLoc
  11     531   120040 040040   040040 040040   040040 040040   040040 040040    P
  11     535   040040 040040   040040 040040   040040 040040   040040 040040
  11     555*  040*** ******                                                     ...

VM_PROFILE_EDITOR_FMT
 Sect OctLoc
  11     556   120040 040040   040040 040040   040040 040040   040040 040040    P
  11     562   040040 040040   040040 040040   040040 040040   040040 040040
  11     602*  040*** ******                                                     ...

VM_FOLDER_FMT
 Sect OctLoc
  11     603   120040 040040   040040 040040   040040 040040   040040 040040    P
  11     607   040040 040040   040040 040040   040040 040040   040040 040040
  11     627*  040*** ******                                                     ...

VM_FOLDER_CHAR_FMT
 Sect OctLoc
  11     630   120040 040040   040040 040040   040040 040040   040040 040040    P
  11     634   040040 040040   040040 040040   040040 040040   040040 040040
  11     654*  040*** ******                                                     ...

NULL_CHARS
 Sect OctLoc
PL6.E3A0      #001=VMD$DI_LIST File=VMD$DISPLAY2.:VMB6TSI                        WED 08/20/97 15:10 Page:45
  12     000   156165 154154                                                    null

BLANK_LINE_FMT
 Sect OctLoc
  12     001   045061 130***                                                    %1X.

HEADER_FMT
 Sect OctLoc
  12     002   104145 146151   156151 164151   157156 040146   157162 072040    Definition for:
  12     006   045101 ******                                                    %A..

HEADER_FMT_LIST
 Sect OctLoc
  12     007   104145 146151   156151 164151   157156 040146   157162 072040    Definition for:
  12     013   045101 040050   045101 051***                                    %A (%A).

LIST_FMT
 Sect OctLoc
  12     015   045065 130045   074076 101***                                    %5X%<>A.

USER_FMT
 Sect OctLoc
  12     017   045065 130050   056045 074076   101054 045074   076101 054045    %5X(.%<>A,%<>A,%
  12     023   074076 101051                                                    <>A)

ONE
 Sect OctLoc
  12     024   000000 000001                                                    ....

ZERO
 Sect OctLoc
  12     025   000000 000000                                                    ....

E_EMPTYDEF
 Sect OctLoc
  12     026   261504 001500                                                    ....

PL6.E3A0      #001=VMD$DI_LIST File=VMD$DISPLAY2.:VMB6TSI                        WED 08/20/97 15:10 Page:46
E_FOLDER_CHAR_FMT
 Sect OctLoc
  12     027   261504 026110                                                    ...H

E_FOLDER_FMT
 Sect OctLoc
  12     030   261504 026100                                                    ...@

E_FULL
 Sect OctLoc
  12     031   261504 026070                                                    ...8

E_RECEIVERS
 Sect OctLoc
  12     032   261504 026120                                                    ...P

E_SENDER
 Sect OctLoc
  12     033   261504 026130                                                    ...X

E_GLOBAL_TEXT
 Sect OctLoc
  12     034   261504 026060                                                    ...0

E_HEADER_FMT2
 Sect OctLoc
  12     035   261504 025700                                                    ....

E_HEADER_FMT_LIST
 Sect OctLoc
  12     036   261504 025710                                                    ....

E_PROFILE_EDITOR_FMT
 Sect OctLoc
  12     037   261504 026050                                                    ...(

E_PROFILE_FFOLDER_FMT
PL6.E3A0      #001=VMD$DI_LIST File=VMD$DISPLAY2.:VMB6TSI                        WED 08/20/97 15:10 Page:47
 Sect OctLoc
  12     040   261504 025770                                                    ....

E_PROFILE_FLAGS1_FMT
 Sect OctLoc
  12     041   261504 025740                                                    ....

E_PROFILE_FLAGS2_FMT
 Sect OctLoc
  12     042   261504 025750                                                    ....

E_PROFILE_FLAGS3_FMT
 Sect OctLoc
  12     043   261504 025760                                                    ....

E_PROFILE_FLAGS4_FMT
 Sect OctLoc
  12     044   261504 027340                                                    ....

E_PROFILE_REPLY_FMT
 Sect OctLoc
  12     045   261504 026000                                                    ....

E_PROFILE_SETUP_FMT
 Sect OctLoc
  12     046   261504 026010                                                    ....

E_PROFILE_SIGNED_FMT
 Sect OctLoc
  12     047   261504 026020                                                    ....

E_PROFILE_SRCH2_FMT
 Sect OctLoc
  12     050   261504 026040                                                    ...

E_PROFILE_SRCH_FMT
 Sect OctLoc
PL6.E3A0      #001=VMD$DI_LIST File=VMD$DISPLAY2.:VMB6TSI                        WED 08/20/97 15:10 Page:48
  12     051   261504 026030                                                    ....

(unnamed)
 Sect OctLoc
  14     000   000001 577640   000015 006000   000004 000000   000000 006000    ................
  14     004   000002 000000   000230 200000   000000 777640   000000 006000    ................
  14     010   000001 000000   000000 006000   000036 006000   000000 006003    ................
  14     014   000004 777640   000017 006000   000001 777640   000002 777640    ................
  14     020   000062 177640   000000 006014   000026 006000   000145 200000    .2...........e..
  14     024   040040 040040   000003 000000   000035 006000   000105 006000        .........E..
  14     030   000000 006000   000105 206000   000034 006000   000157 006000    .....E.......o..
  14     034   000076 006000   000157 206000   000036 006000   000132 006000    .>...o.......Z..
  14     040   000000 006000   000132 206000                                    .....Z..
      360    11019    2   END SETUP;
      361    11020    1   END VMD$DI_LIST;
      362    11021        %EOD;

PL6.E3A0      #001=VMD$DI_LIST File=VMD$DISPLAY2.:VMB6TSI                        WED 08/20/97 15:10 Page:49
--  Include file information  --

   XUR_ENTRY.:LIB_E05  cannot be made into a system file and is referenced.
   XU_FORMAT_C.:LIB_E05  is referenced.
   B_MACROS_C.:LIB_E05  is referenced.
   VM_DATA_R.:VMB6TOU  cannot be made into a system file and is referenced.
   VM_SUBS_C.:VMB6TOU  is referenced.
   VM_PERR_C.:VMB6TOU  is referenced.
   VM_MACRO_C.:VMB6TOU  is referenced.
   CP_6_SUBS.:LIB_E05  is referenced.
   CP_6_C.:LIB_E05  is referenced.
   CP_6.:LIB_E05  cannot be made into a system file and is referenced.
      No diagnostics issued in procedure VMD$DI_LIST.
PL6.E3A0      #001=VMD$DI_LIST File=VMD$DISPLAY2.:VMB6TSI                        WED 08/20/97 15:10 Page:50

 **** Variables and constants ****

  ****  Section 011  Data  VMD$DI_LIST

  ****  Scalars and arrays  ****
OctLoc.c.b A Datatyp(siz) R M Lvl/name                 OctLoc.c.b A Datatyp(siz) R M Lvl/name

     0-0-0/w STRC(1080)  r     1 F_FDS                    102-0-0/c CHAR(12)          1 GLOBAL_TEXT
    36-0-0/w STRC(1080)  r     1 SPACE_LINE
    74-0-0/d VECT        r     1 VECT_ARRAY(0:2)
   630-0-0/c STRC(729)         1 VM_FOLDER_CHAR_FMT       603-0-0/c STRC(729)         1 VM_FOLDER_FMT
   224-0-0/c STRC(288)         1 VM_FULL                  157-0-0/c STRC(729)   r     1 VM_GLOBAL_TEXT
   105-0-0/c STRC(729)   r     1 VM_HEADER_FMT2           132-0-0/c STRC(729)   r     1 VM_HEADER_FMT_LIST
   556-0-0/c STRC(729)         1 VM_PROFILE_EDITOR_FMT
   360-0-0/c STRC(729)         1 VM_PROFILE_FFOLDER_FMT
   234-0-0/c STRC(729)         1 VM_PROFILE_FLAGS1_FMT
   261-0-0/c STRC(729)         1 VM_PROFILE_FLAGS2_FMT
   306-0-0/c STRC(729)         1 VM_PROFILE_FLAGS3_FMT
   333-0-0/c STRC(729)         1 VM_PROFILE_FLAGS4_FMT
   405-0-0/c STRC(729)         1 VM_PROFILE_REPLY_FMT     432-0-0/c STRC(729)         1 VM_PROFILE_SETUP_FMT
   457-0-0/c STRC(729)         1 VM_PROFILE_SIGNED_FMT
   531-0-0/c STRC(729)         1 VM_PROFILE_SRCH2_FMT     504-0-0/c STRC(729)         1 VM_PROFILE_SRCH_FMT
   204-0-0/c STRC(288)         1 VM_RECEIVERS             214-0-0/c STRC(288)         1 VM_SENDER

  ****  Section 012 RoData VMD$DI_LIST

  ****  Scalars and arrays  ****
OctLoc.c.b A Datatyp(siz) R M Lvl/name                 OctLoc.c.b A Datatyp(siz) R M Lvl/name

     1-0-0/c CHAR(3)     r     1 BLANK_LINE_FMT            26-0-0/w STRC        r     1 E_EMPTYDEF
    27-0-0/w STRC              1 E_FOLDER_CHAR_FMT         30-0-0/w STRC              1 E_FOLDER_FMT
    31-0-0/w STRC              1 E_FULL                    34-0-0/w STRC        r     1 E_GLOBAL_TEXT
    35-0-0/w STRC        r     1 E_HEADER_FMT2             36-0-0/w STRC        r     1 E_HEADER_FMT_LIST
    37-0-0/w STRC              1 E_PROFILE_EDITOR_FMT
    40-0-0/w STRC              1 E_PROFILE_FFOLDER_FMT
    41-0-0/w STRC              1 E_PROFILE_FLAGS1_FMT      42-0-0/w STRC              1 E_PROFILE_FLAGS2_FMT
    43-0-0/w STRC              1 E_PROFILE_FLAGS3_FMT      44-0-0/w STRC              1 E_PROFILE_FLAGS4_FMT
PL6.E3A0      #001=VMD$DI_LIST File=VMD$DISPLAY2.:VMB6TSI                        WED 08/20/97 15:10 Page:51
    45-0-0/w STRC              1 E_PROFILE_REPLY_FMT       46-0-0/w STRC              1 E_PROFILE_SETUP_FMT
    47-0-0/w STRC              1 E_PROFILE_SIGNED_FMT      50-0-0/w STRC              1 E_PROFILE_SRCH2_FMT
    51-0-0/w STRC              1 E_PROFILE_SRCH_FMT        32-0-0/w STRC              1 E_RECEIVERS
    33-0-0/w STRC              1 E_SENDER                   2-0-0/c CHAR(18)          1 HEADER_FMT
     7-0-0/c CHAR(23)          1 HEADER_FMT_LIST           15-0-0/c CHAR(7)     r     1 LIST_FMT
     0-0-0/c CHAR(4)     r     1 NULL_CHARS                24-0-0/w UBIN              1 ONE
    17-0-0/c CHAR(20)    r     1 USER_FMT                  25-0-0/w UBIN              1 ZERO

  ****  Auto variables  ****

  ****  Scalars and arrays  ****
OctLoc.c.b A Datatyp(siz) R M Lvl/name                 OctLoc.c.b A Datatyp(siz) R M Lvl/name

     4-0-0/w PTR         r     1 @DCB#                      5-0-0/w PTR         r     1 @SRCH#
     3-0-0/w PTR         r     1 @VM_LISTKEY                6-0-0/w PTR         r     1 @VM_SEARCH_INFO
   137-0-0/c CHAR(8)     r     1 ACCN                     230-0-0/c STRC(2313)  r     1 ADDRESS_TEXT
    *0-0-0/w UBIN        r     1 DCB#                     145-0-0/c STRC(1809)  r     1 LISTNAME
   144-0-0/w PTR         r     1 NEXT$                     *0-0-0/w UBIN        r     1 SRCH#
   141-0-0/c CHAR(12)    r     1 UNAME                     *0-0-0/c STRC(1818)  r     1 VM_LISTKEY
     7-0-0/w STRC(711)   r     1 VM_RADDRESS               *0-0-0/w STRC(1260)  r     1 VM_SEARCH_INFO
    33-0-0/w STRC(2448)  r     1 VM_UADDRESS

  ****  SYMREF variables  ****

  ****  Scalars and arrays  ****
OctLoc.c.b A Datatyp(siz) R M Lvl/name                 OctLoc.c.b A Datatyp(siz) R M Lvl/name

     0-0-0/w PTR               1 B$JIT$                     0-0-0/w PTR               1 B$TCB$
     0-0-0/c ASTR(9)     r     1 ERRMSG_FID                 0-0-0/w UBIN              1 M$DO_NUM
     0-0-0/w UBIN              1 M$LO_NUM                   0-0-0/w UBIN              1 M$MAIL_CENTRAL_NUM
     0-0-0/w UBIN              1 M$MAIL_COMGROUP_NUM        0-0-0/w UBIN        r     1 M$MAIL_FILE_NUM
     0-0-0/w UBIN        r     1 M$MAIL_GLOBAL_NUM          0-0-0/w UBIN              1 M$ME_NUM
     0-0-0/w UBIN              1 M$NODE_NUM                 0-0-0/w UBIN              1 M$SI_NUM
     0-0-0/w UBIN              1 M$WORK_NUM                 0-0-0/w PTR         r     1 VM_ADDLIST$
     0-0-0/d VECT              1 VM_ADDLIST_                0-0-0/w PTR               1 VM_ADDREC$
     0-0-0/d VECT              1 VM_ADDREC_                 0-0-0/w PTR               1 VM_COPY$
     0-0-0/d VECT              1 VM_COPY_                   0-0-0/w PTR               1 VM_ENCLLIST$
PL6.E3A0      #001=VMD$DI_LIST File=VMD$DISPLAY2.:VMB6TSI                        WED 08/20/97 15:10 Page:52
     0-0-0/d VECT              1 VM_ENCLLIST_               0-0-0/w PTR               1 VM_ENCLREC$
     0-0-0/d VECT              1 VM_ENCLREC_                0-0-0/c STRC(270)         1 VM_FORWARD_ENCL_NAME
     0-0-0/c STRC(270)         1 VM_FORWARD_FILE_NAME       0-0-0/c STRC(72)          1 VM_FORWARD_FILE_PASS
     0-0-0/w PTR               1 VM_HEADER$                 0-0-0/d VECT              1 VM_HEADER_
     0-0-0/d VECT              1 VM_HEADER_INIT_            0-0-0/w PTR               1 VM_INPUT$
     0-0-0/d VECT              1 VM_INPUT_                  0-0-0/c STRC(72)          1 VM_MAILCG_NAME
     0-0-0/w STRC(432)         1 VM_MAILCG_SETSTA           0-0-0/c STRC(72)          1 VM_MAIL_ACCT
     0-0-0/c STRC(54)          1 VM_NAME_MAP_NAME           0-0-0/w PTR               1 VM_PARSEAREA$
     0-0-0/d VECT              1 VM_PARSEAREA_              0-0-0/w PTR         r     1 VM_PROFILE$
     0-0-0/d VECT              1 VM_PROFILE_                0-0-0/w PTR               1 VM_SELECT$
     0-0-0/d VECT              1 VM_SELECT_                 0-0-0/c STRC(288)         1 VM_SEND_FILE_NAME
     0-0-0/c CHAR(8)           1 VM_SITENAME                0-0-0/w PTR               1 VM_WORK$
     0-0-0/d VECT              1 VM_WORK_

  ****  BASED and DCB variables  ****

  ****  Scalars and arrays  ****
OctLoc.c.b A Datatyp(siz) R M Lvl/name                 OctLoc.c.b A Datatyp(siz) R M Lvl/name

     0-0-0/d ASTR(3528)  r     1 F$DCB                      0-0-0N  NULL        r     1 M$DO
     0-0-0N  NULL        r     1 M$LO                       0-0-0N  NULL        r     1 M$MAIL_CENTRAL
     0-0-0N  NULL        r     1 M$MAIL_COMGROUP            0-0-0N  NULL        r     1 M$MAIL_FILE
     0-0-0N  NULL        r     1 M$MAIL_GLOBAL              0-0-0N  NULL        r     1 M$ME
     0-0-0N  NULL        r     1 M$NODE                     0-0-0N  NULL        r     1 M$SI
     0-0-0N  NULL        r     1 M$UC                       0-0-0N  NULL        r     1 M$WORK
     0-0-0/w STRC(711)   r     1 VM$RADDRESS                0-0-0/w STRC(252)   r     1 VM_ADD_HEAD
     0-0-0/w STRC(4068)  r     1 VM_PROFILE                 0-0-0/c ASTR(9)     r     1 X$STRING


   Procedure VMD$DI_LIST requires 313 words for executable code.
   Procedure VMD$DI_LIST requires 228 words of local(AUTO) storage.
PL6.E3A0      #001=VMD$DI_LIST File=VMD$DISPLAY2.:VMB6TSI                        WED 08/20/97 15:10 Page:53
          *** CROSS REFERENCE LISTING ***
**     DENOTES     IDENTIFIER DEFINITION
<<                 IDENTIFIER'S VALUE SET
>>                 IDENTIFIER'S VALUE USED
<>                 IDENTIFIER SET AND/OR USED
--                 IDENTIFIER REFERENCED
PL6.E3A0      #001=VMD$DI_LIST File=VMD$DISPLAY2.:VMB6TSI                        WED 08/20/97 15:10 Page:54
          MINI XREF LISTING

ACCN
      9200**DCL     10832<<ASSIGN  10834--ASSIGN
ADDRESS_TEXT
      9255**DCL     10786<>CALL    10837<>CALL    10961<>CALL
ADDRESS_TEXT.L#
      9255**DCL     10785<<ASSIGN  10787>>IF      10789>>ASSIGN  10836<<ASSIGN  10838>>IF      10840>>ASSIGN
     10960<<ASSIGN  10963>>ASSIGN
ADDRESS_TEXT.NAME#
      9255**DCL     10785--ASSIGN  10789--ASSIGN  10836--ASSIGN  10840--ASSIGN  10960--ASSIGN  10963--ASSIGN
BLANK_LINE_FMT
      9185**DCL      9088--DCLINIT  9090--DCLINIT
DCB#
      8614**DCL        27--PROC    10815--ENTRY   10863<>CALL    10869>>ASSIGN  10870>>ASSIGN
ERRMSG_FID.L#
      8227**DCL      8227--IMP-SIZ
E_EMPTYDEF
      9273**DCL     10863<>CALL
E_GLOBAL_TEXT
     10086**DCL     10921<>CALL
E_HEADER_FMT2
     10132**DCL     10894<>CALL    11002<>CALL
E_HEADER_FMT_LIST
     10178**DCL     10944<>CALL    10974<>CALL
F$DCB.ACTPOS
      8705**DCL      8705--REDEF
F$DCB.ARS#
      8679**DCL      8679--REDEF
F$DCB.ATTR
      8698**DCL      8699--REDEF
F$DCB.BORROW
      8713**DCL      8713--REDEF    8713--REDEF    8713--REDEF
F$DCB.DCBNAME.L
PL6.E3A0      #001=VMD$DI_LIST File=VMD$DISPLAY2.:VMB6TSI                        WED 08/20/97 15:10 Page:55
      8727**DCL      8727--IMP-SIZ
F$DCB.EOMCHAR#
      8683**DCL      8683--REDEF
F$DCB.FFLG.EXEC#
      8685**DCL     10819>>IF
F$DCB.FLDID
      8708**DCL      8708--REDEF
F$DCB.FORM$
      8702**DCL      8702--REDEF
F$DCB.FSECT
      8718**DCL      8718--REDEF
F$DCB.FSN#
      8695**DCL      8695--REDEF    8695--REDEF    8696--REDEF
F$DCB.HEADER$
      8701**DCL      8701--REDEF
F$DCB.IXTNSIZE#
      8699**DCL      8699--REDEF
F$DCB.LASTSTA$
      8688**DCL      8688--REDEF
F$DCB.LVL
      8714**DCL      8714--REDEF
F$DCB.NAME#.C
      8689**DCL      8689--REDEF
F$DCB.NOEOF
      8711**DCL      8711--REDEF
F$DCB.NRECS#
      8700**DCL      8700--REDEF
F$DCB.NRECX
      8719**DCL      8719--REDEF
F$DCB.OHDR
      8711**DCL      8711--REDEF
F$DCB.ORG#
      8694**DCL      8694--REDEF
F$DCB.PRECNO
      8717**DCL      8717--REDEF
F$DCB.RCSZ
PL6.E3A0      #001=VMD$DI_LIST File=VMD$DISPLAY2.:VMB6TSI                        WED 08/20/97 15:10 Page:56
      8723**DCL      8723--REDEF
F$DCB.RES#
      8690**DCL      8690--REDEF
F$DCB.SETX
      8702**DCL      8702--REDEF
F$DCB.TAB$
      8702**DCL      8702--REDEF
F$DCB.TDA
      8716**DCL      8717--REDEF
F$DCB.WSN#
      8690**DCL      8690--REDEF
F_FDS
      8970**DCL     10792<>CALL    10843<>CALL    10989<>CALL    11016<>CALL
F_FDS.DCB#
      9003**DCL     10870<<ASSIGN
F_FDS.FMT_
      8974**DCL     10781<<ASSIGN  10825<<ASSIGN  10894<>CALL    10897<<ASSIGN  10944<>CALL    10947<<ASSIGN
     10974<>CALL    10977<<ASSIGN  11002<>CALL    11005<<ASSIGN
F_FDS.NVECS#
      8998**DCL     10782<<ASSIGN  10826<<ASSIGN  10884<<ASSIGN  10911<<ASSIGN  10964<<ASSIGN  10992<<ASSIGN
LISTNAME
      9228**DCL     10855--CALL    10863--CALL
LISTNAME.L#
      9228**DCL     10854<<ASSIGN  10879>>ASSIGN
LISTNAME.NAME#
      9228**DCL     10853<<ASSIGN  10854--ASSIGN  10879--ASSIGN
LIST_FMT
      9194**DCL     10781--ASSIGN
M$MAIL_FILE_NUM
      8138**DCL     10882>>IF
M$MAIL_GLOBAL_NUM
      8142**DCL     10819--IF      10909>>IF
NEXT$
      9202**DCL     10784<>CALL    10828<>CALL    10871<<ASSIGN
NO_MORE
     10796**LABEL   10777--CALLALT 10784--CALLALT 10816--CALLALT
PL6.E3A0      #001=VMD$DI_LIST File=VMD$DISPLAY2.:VMB6TSI                        WED 08/20/97 15:10 Page:57
NO_MORE_DI_USER
     10846**LABEL   10821--GOTO    10828--CALLALT
NULL_CHARS
      9183**DCL     10791--ASSIGN  10842--ASSIGN
SETUP
     10848**PROC    10777--CALL    10816--CALL
SPACE_LINE
      9083**DCL     10798<>CALL    10875<>CALL
SPACE_LINE.DCB#
      9116**DCL     10869<<ASSIGN
SRCH#
      8615**DCL        27--PROC    10880--IF      10882>>IF      10909>>IF      10961>>CALL
UNAME
      9201**DCL     10833<<ASSIGN  10835--ASSIGN
USER_FMT
      9197**DCL     10825--ASSIGN
VECT_ARRAY
      9182**DCL      9000--DCLINIT  9113--DCLINIT 10789<<ASSIGN  10791<<ASSIGN  10834<<ASSIGN  10835<<ASSIGN
     10840<<ASSIGN  10842<<ASSIGN  10879<<ASSIGN  10921<>CALL    10924<<ASSIGN  10963<<ASSIGN
VM$RADDRESS
      8844**DCL     10961<>CALL
VM$RADDRESS.FOLDER
      8859**DCL      8860--REDEF
VMA$COMPRESS_BLANKS
      8645**DCL-ENT 10855--CALL
VMA$GET_NEXT_ENTRY
      8644**DCL-ENT 10784--CALL    10828--CALL
VMD$ERRMSG
      8651**DCL-ENT 10894--CALL    10921--CALL    10944--CALL    10974--CALL    11002--CALL
VMD$WRITE_BUF
      8647**DCL-ENT 10792--CALL    10798--CALL    10843--CALL    10875--CALL    10989--CALL    11016--CALL
VMF$MAKE_ADDRESS2
      8646**DCL-ENT 10786--CALL    10837--CALL    10961--CALL
VM_ADDLIST$
      8081**DCL      8743--IMP-PTR 10784<>CALL    10796>>IF      10828<>CALL    10860>>IF      10871>>ASSIGN
VM_ADD_HEAD.HEAD$
PL6.E3A0      #001=VMD$DI_LIST File=VMD$DISPLAY2.:VMB6TSI                        WED 08/20/97 15:10 Page:58
      8753**DCL     10871>>ASSIGN
VM_ADD_HEAD.NUM_ENTRIES
      8746**DCL     10796>>IF      10860>>IF
VM_GLOBAL_TEXT
      9391**DCL     10921<>CALL
VM_GLOBAL_TEXT.L#
      9391**DCL     10924>>ASSIGN
VM_GLOBAL_TEXT.NAME#
      9391**DCL     10919>>IF      10924--ASSIGN
VM_HEADER_FMT2
      9335**DCL     10894<>CALL    11002<>CALL
VM_HEADER_FMT2.L#
      9335**DCL     10897>>ASSIGN  11005>>ASSIGN
VM_HEADER_FMT2.NAME#
      9335**DCL     10892>>IF      10897--ASSIGN  11000>>IF      11005--ASSIGN
VM_HEADER_FMT_LIST
      9363**DCL     10944<>CALL    10974<>CALL
VM_HEADER_FMT_LIST.L#
      9363**DCL     10947>>ASSIGN  10977>>ASSIGN
VM_HEADER_FMT_LIST.NAME#
      9363**DCL     10942>>IF      10947--ASSIGN  10972>>IF      10977--ASSIGN
VM_LISTKEY
      8608**DCL        27--PROC    10815--ENTRY
VM_LISTKEY.TEXT
      8612**DCL     10853>>ASSIGN
VM_PROFILE.SEARCH_LIST$
      8934**DCL     10961>>CALL
VM_PROFILE$
      8079**DCL      8879--IMP-PTR 10961>>CALL
VM_RADDRESS
      8772**DCL     10784<>CALL    10828<>CALL
VM_RADDRESS.FOLDER
      8787**DCL      8788--REDEF
VM_RADDRESS.NAME_KEY
      8785**DCL     10832>>ASSIGN  10833>>ASSIGN
VM_SEARCH_INFO
PL6.E3A0      #001=VMD$DI_LIST File=VMD$DISPLAY2.:VMB6TSI                        WED 08/20/97 15:10 Page:59
      8626**DCL        27--PROC
VM_SEARCH_INFO.DCB#
      8629**DCL     10882>>IF      10909>>IF
VM_SEARCH_INFO.MAP
      8631**DCL     10961>>CALL
VM_UADDRESS
      8807**DCL     10784<>CALL    10786<>CALL    10828<>CALL    10837<>CALL
VM_UADDRESS.FOLDER
      8822**DCL      8823--REDEF
X$STRING.SIZ
      8073**DCL      8074--IMP-SIZ
XUR$ERRMSG
      8559**DCL-ENT 10863--CALL

PL6.E3A0      #002=VMD$DI_FOLDER File=VMD$DISPLAY2.:VMB6TSI                      WED 08/20/97 15:11 Page:60
      363        1        /*T***********************************************************/
      364        2        /*T*                                                         */
      365        3        /*T* Copyright (c) Bull HN Information Systems Inc., 1997    */
      366        4        /*T*                                                         */
      367        5        /*T***********************************************************/
      368        6        /*X* DMC,PLM=4,IND=4,CTI=2,DTI=0,ENI=0,ECI=0,CSI=0,DCI=4 */
      369        7        /*F*
      370        8             NAME: VMD$DI_FOLDER
      371        9             PURPOSE:
      372       10                   To display information about the specified folder.
      373       11             DESCRIPTION:
      374       12                   This routine has three parameters:
      375       13
      376       14                      VM_PROFILE     - PROFILE from this folder.
      377       15                      DCB#           - number of the DCB to display thru.
      378       16        */
      379       17        VMD$DI_FOLDER: PROC (VM_FOLDER_INFO,DCB#);
      380       18        /***** Include files *****/
      381       19          %INCLUDE CP_6;
      382     5578          %INCLUDE CP_6_SUBS;
      383     6118          %INCLUDE VM_MACRO_C;
      384     7386          %INCLUDE VM_PERR_C;
      385     7681          %INCLUDE VM_SUBS_C;
      386     7941          %INCLUDE VM_DATA_R;
      387     8372          %INCLUDE XU_FORMAT_C;
      388     8534          %INCLUDE XUR_ENTRY;
      389     8566        /***** Parameters *****/
      390     8567          %VM_FOLDER_INFO (STCLASS=" ");
      391     8619          %VM_PROFILE;
      392     8706    1   DCL DCB# UBIN WORD;
      393     8707        /***** External routines *****/
      394     8708    1   DCL VMD$WRITE_BUF ENTRY(1);
      395     8709        %INIT_STR(DODCL=YES);
      396     8732        /***** Fpts *****/
      397     8733            %F_FDS (VECTR=VECT_ARRAY,NVECS="6");
      398     8846    1   DCL VECT_ARRAY(0:9) VECTOR DALIGNED STATIC;
      399     8847        /***** Formats *****/
PL6.E3A0      #002=VMD$DI_FOLDER File=VMD$DISPLAY2.:VMB6TSI                      WED 08/20/97 15:11 Page:61
      400     8848        %VLP_NAMEV( FPTN=VM_FOLDER_FMT,    STCLASS=SYMREF);
      401     8855        %VLP_NAMEV( FPTN=VM_FOLDER_CHAR_FMT, STCLASS=SYMREF);
      402     8862
      403     8863        %VLP_NAMEV( FPTN=VN_YES_CHAR,        STCLASS=SYMREF);
      404     8870        %VLP_NAMEV( FPTN=VN_NO_CHAR,         STCLASS=SYMREF);
      405     8877        %VLP_NAMEV( FPTN=VM_FULL,            STCLASS=SYMREF);
      406     8884
      407     8885        %VLP_ERRCODE( FPTN=E_FOLDER_FMT,     STCLASS="SYMREF READONLY");
      408     8930              %VLP_ERRCODE( FPTN=E_FOLDER_CHAR_FMT,STCLASS="SYMREF READONLY");
      409     8975              %VLP_ERRCODE( FPTN=E_YES_CHAR, STCLASS="SYMREF READONLY");
      410     9020              %VLP_ERRCODE( FPTN=E_NO_CHAR,  STCLASS="SYMREF READONLY");
      411     9065              %VLP_ERRCODE( FPTN=E_FULL,     STCLASS="SYMREF READONLY");
      412     9110
      413     9111        /***** Local variables *****/
      414     9112    1   dcl  VM_NO_OR_YES$( 0:1 )    ptr symref readonly;
      415     9113    1   DCL TEMP SBIN WORD AUTO;
      416     9114    1   DCL TEMPBUF CHAR(4) AUTO;
      417     9115        %EJECT;
PL6.E3A0      #002=VMD$DI_FOLDER File=VMD$DISPLAY2.:VMB6TSI                      WED 08/20/97 15:11 Page:62
      418     9116             %INIT_STR(STR=VN_YES_CHAR,       CODE=E_YES_CHAR,    TEST=YES);
      419     9139            %INIT_STR(STR=VN_NO_CHAR, CODE=E_NO_CHAR, TEST=YES);
      420     9162            %INIT_STR(STR=VM_FOLDER_FMT, CODE=E_FOLDER_FMT, TEST=YES);
      421     9185            %INIT_STR(STR=VM_FOLDER_CHAR_FMT,CODE=E_FOLDER_CHAR_FMT,TEST=YES);
      422     9208
      423     9209    1       VECT_ARRAY(0) = vector(VN_YES_CHAR.NAME#);
      424     9210    1       vbase(VECT_ARRAY(0))= pincrc( VM_NO_OR_YES$( bitbin(VM_FOLDER_INFO.FLAGS.OWNER)
              9210                ), 1);
      425     9211        /**/
      426     9212    1       VECT_ARRAY(1) = VECTOR(VM_PROFILE.NUM_MESSAGES);
      427     9213        /**/
      428     9214    1       VECT_ARRAY(2) = VECTOR(VM_PROFILE.NUM_NEW_MESSAGES);
      429     9215        /**/
      430     9216        /**/
      431     9217    1       VECT_ARRAY(3) = VECTOR(VM_FOLDER_INFO.UGRANS);
      432     9218        /**/
      433     9219    1       IF VM_PROFILE.GRANULES = 0
      434     9220    1       THEN
      435     9221    2       DO;
      436     9222    2           TEMPBUF = '   -';
      437     9223                %INIT_STR(STR=VM_FOLDER_CHAR_FMT,CODE=E_FOLDER_CHAR_FMT,TEST=YES,VECT=
              9223                    "F_FDS.FMT_");
      438     9246    2           VECT_ARRAY(4) = VECTOR(TEMPBUF);
      439     9247    2       END;
      440     9248    1       ELSE
      441     9249    2       DO;
      442     9250    2           TEMP = VM_PROFILE.GRANULES - VM_FOLDER_INFO.UGRANS;
      443     9251    2           IF TEMP <= 0
      444     9252    2           THEN
      445     9253    3           DO;
      446     9254                    %INIT_STR(STR=VM_FULL,CODE=E_FULL,TEST=YES);
      447     9277    3               TEMPBUF = VM_FULL.NAME#;
      448     9278                    %INIT_STR(STR=VM_FOLDER_CHAR_FMT,CODE=E_FOLDER_CHAR_FMT,TEST=YES,VECT=
              9278                        "F_FDS.FMT_");
      449     9301    3               VECT_ARRAY(4) = VECTOR(TEMPBUF);
      450     9302    3           END;
      451     9303    2           ELSE
PL6.E3A0      #002=VMD$DI_FOLDER File=VMD$DISPLAY2.:VMB6TSI                      WED 08/20/97 15:11 Page:63
      452     9304    3           DO;
      453     9305                    %INIT_STR(STR=VM_FOLDER_FMT,CODE=E_FOLDER_FMT,TEST=YES,VECT="F_FDS.FMT_"
              9305                        );
      454     9328    3               VECT_ARRAY(4) = VECTOR(TEMP);
      455     9329    3               TEMP=VM_PROFILE.GRANULES;
      456     9330    3           END;
      457     9331    2       END;
      458     9332        /**/
      459     9333    1       VECT_ARRAY(5) = VECTOR(VM_FOLDER_INFO.FOLDER);
      460     9334        /**/
      461     9335    1       F_FDS.DCB# = DCB#;
      462     9336    1       CALL VMD$WRITE_BUF (F_FDS);
      463     9337    1       RETURN;
      464     9338    1   END VMD$DI_FOLDER;
      465     9339        %EOD;

PL6.E3A0      #002=VMD$DI_FOLDER File=VMD$DISPLAY2.:VMB6TSI                      WED 08/20/97 15:11 Page:64
--  Include file information  --

   XUR_ENTRY.:LIB_E05  cannot be made into a system file and is referenced.
   XU_FORMAT_C.:LIB_E05  is referenced.
   B_MACROS_C.:LIB_E05  is referenced.
   VM_DATA_R.:VMB6TOU  cannot be made into a system file and is referenced.
   VM_SUBS_C.:VMB6TOU  is referenced.
   VM_PERR_C.:VMB6TOU  is referenced.
   VM_MACRO_C.:VMB6TOU  is referenced.
   CP_6_SUBS.:LIB_E05  is referenced.
   CP_6_C.:LIB_E05  is referenced.
   CP_6.:LIB_E05  cannot be made into a system file and is referenced.
      No diagnostics issued in procedure VMD$DI_FOLDER.

   Procedure VMD$DI_FOLDER requires 180 words for executable code.
   Procedure VMD$DI_FOLDER requires 10 words of local(AUTO) storage.

PL6.E3A0      #002=VMD$DI_FOLDER File=VMD$DISPLAY2.:VMB6TSI                      WED 08/20/97 15:11 Page:65

 Object Unit name= VMD$DI_FOLDER                              File name= VMD$DISPLAY2.:VMB6TOU
 UTS= AUG 20 '97 15:11:00.76 WED                              Compiler= PL-6/E31         Sev=      00
 SharedLib= :SHARED_SYSTEM                                    Alt SharedLib=


    ****  Control sections  ****

 Sect   Type Bound  Init  Size OctSiz  Section name(segment info)
    0   DCB   even  none     0      0  M$UC
    1   DCB   even  none     0      0  M$MAIL_FILE
    2   DCB   even  none     0      0  M$MAIL_CENTRAL
    3   DCB   even  none     0      0  M$MAIL_GLOBAL
    4   DCB   even  none     0      0  M$WORK
    5   DCB   even  none     0      0  M$MAIL_COMGROUP
    6   DCB   even  none     0      0  M$DO
    7   DCB   even  none     0      0  M$LO
    8   DCB   even  none     0      0  M$ME
    9   DCB   even  none     0      0  M$NODE
   10   DCB   even  none     0      0  M$SI
   11   Data  even  none    50     62  VMD$DI_FOLDER
   12  RoData even  UTS      1      1  VMD$DI_FOLDER
   13   Proc  even  none   180    264  VMD$DI_FOLDER
   14  RoData even  none    25     31  VMD$DI_FOLDER

    ****  Entry defs  ****

                              Check   Calling
                             calling  sequence
  Sect OctLoc Primary Altret sequence   type   Parms  Name
    13      0   yes            yes      Std        2  VMD$DI_FOLDER
PL6.E3A0      #002=VMD$DI_FOLDER File=VMD$DISPLAY2.:VMB6TSI                      WED 08/20/97 15:11 Page:66

  ****  Entry refs  ****

         Check        Calling
        calling       sequence
Altret sequence SRef   type   Args  Name
 yes     yes           Std       3 VMD$ERRMSG
         yes           Std       1 VMD$WRITE_BUF
                       nStd      0 X66_AUTO_2
                       nStd      0 X66_ARET

  ****  Data refs  ****

  Flags:  r = read only, s = secondary
Flgs Name                             Flgs Name                             Flgs Name
     M$UC                             r    VM_HEADER$                       r    VM_PROFILE$
r    VM_ADDLIST$                      r    VM_ADDREC$                       r    VM_WORK$
r    VM_SELECT$                       r    VM_PARSEAREA$                    r    VM_INPUT$
r    VM_COPY$                              VM_ENCLLIST$                          VM_ENCLREC$
     VM_HEADER_                            VM_HEADER_INIT_                       VM_PROFILE_
     VM_ADDLIST_                           VM_ADDREC_                            VM_WORK_
     VM_SELECT_                            VM_PARSEAREA_                         VM_INPUT_
     VM_COPY_                              VM_ENCLLIST_                          VM_ENCLREC_
     M$MAIL_FILE                           M$MAIL_CENTRAL                        M$MAIL_GLOBAL
     M$WORK                                M$MAIL_COMGROUP                       M$DO
     M$LO                                  M$ME                                  M$NODE
     M$SI                                  M$MAIL_FILE_NUM                       M$MAIL_CENTRAL_NUM
     M$MAIL_GLOBAL_NUM                     M$WORK_NUM                            M$MAIL_COMGROUP_NUM
     M$DO_NUM                              M$ME_NUM                              M$LO_NUM
     M$SI_NUM                              M$NODE_NUM                       r    B$JIT$
r    B$TCB$                                VM_MAIL_ACCT                          VM_NAME_MAP_NAME
     ERRMSG_FID                            VM_SEND_FILE_NAME                     VM_FORWARD_FILE_NAME
     VM_FORWARD_ENCL_NAME                  VM_FORWARD_FILE_PASS                  VM_MAILCG_NAME
     VM_SITENAME                           VM_MAILCG_SETSTA                      VM_FOLDER_FMT
     VM_FOLDER_CHAR_FMT                    VN_YES_CHAR                           VN_NO_CHAR
     VM_FULL                          r    E_FOLDER_FMT                     r    E_FOLDER_CHAR_FMT
r    E_YES_CHAR                       r    E_NO_CHAR                        r    E_FULL
r    VM_NO_OR_YES$
PL6.E3A0      #002=VMD$DI_FOLDER File=VMD$DISPLAY2.:VMB6TSI                      WED 08/20/97 15:11 Page:67

  ****  Segment refs  ****

  Flags:  r = read only, s = secondary
Flgs Name                             Flgs Name                             Flgs Name
     NULLSID                               ISSID
PL6.E3A0      #002=VMD$DI_FOLDER File=VMD$DISPLAY2.:VMB6TSI                      WED 08/20/97 15:11 Page:68


      363        1        /*T***********************************************************/
      364        2        /*T*                                                         */
      365        3        /*T* Copyright (c) Bull HN Information Systems Inc., 1997    */
      366        4        /*T*                                                         */
      367        5        /*T***********************************************************/
      368        6        /*X* DMC,PLM=4,IND=4,CTI=2,DTI=0,ENI=0,ECI=0,CSI=0,DCI=4 */
      369        7        /*F*
      370        8             NAME: VMD$DI_FOLDER
      371        9             PURPOSE:
      372       10                   To display information about the specified folder.
      373       11             DESCRIPTION:
      374       12                   This routine has three parameters:
      375       13
      376       14                      VM_PROFILE     - PROFILE from this folder.
      377       15                      DCB#           - number of the DCB to display thru.
      378       16        */
      379       17        VMD$DI_FOLDER: PROC (VM_FOLDER_INFO,DCB#);

     17 13 000000   000000 700200 xent  VMD$DI_FOLD* TSX0  ! X66_AUTO_2
        13 000001   000012 000002                    ZERO    10,2

      380       18        /***** Include files *****/
      381       19          %INCLUDE CP_6;
      382     5578          %INCLUDE CP_6_SUBS;
      383     6118          %INCLUDE VM_MACRO_C;
      384     7386          %INCLUDE VM_PERR_C;
      385     7681          %INCLUDE VM_SUBS_C;
      386     7941          %INCLUDE VM_DATA_R;
      387     8372          %INCLUDE XU_FORMAT_C;
      388     8534          %INCLUDE XUR_ENTRY;
      389     8566        /***** Parameters *****/
      390     8567          %VM_FOLDER_INFO (STCLASS=" ");
      391     8619          %VM_PROFILE;
      392     8706    1   DCL DCB# UBIN WORD;
      393     8707        /***** External routines *****/
      394     8708    1   DCL VMD$WRITE_BUF ENTRY(1);
PL6.E3A0      #002=VMD$DI_FOLDER File=VMD$DISPLAY2.:VMB6TSI                      WED 08/20/97 15:11 Page:69
      395     8709        %INIT_STR(DODCL=YES);
      396     8732        /***** Fpts *****/
      397     8733            %F_FDS (VECTR=VECT_ARRAY,NVECS="6");
      398     8846    1   DCL VECT_ARRAY(0:9) VECTOR DALIGNED STATIC;
      399     8847        /***** Formats *****/
      400     8848        %VLP_NAMEV( FPTN=VM_FOLDER_FMT,    STCLASS=SYMREF);
      401     8855        %VLP_NAMEV( FPTN=VM_FOLDER_CHAR_FMT, STCLASS=SYMREF);
      402     8862
      403     8863        %VLP_NAMEV( FPTN=VN_YES_CHAR,        STCLASS=SYMREF);
      404     8870        %VLP_NAMEV( FPTN=VN_NO_CHAR,         STCLASS=SYMREF);
      405     8877        %VLP_NAMEV( FPTN=VM_FULL,            STCLASS=SYMREF);
      406     8884
      407     8885        %VLP_ERRCODE( FPTN=E_FOLDER_FMT,     STCLASS="SYMREF READONLY");
      408     8930              %VLP_ERRCODE( FPTN=E_FOLDER_CHAR_FMT,STCLASS="SYMREF READONLY");
      409     8975              %VLP_ERRCODE( FPTN=E_YES_CHAR, STCLASS="SYMREF READONLY");
      410     9020              %VLP_ERRCODE( FPTN=E_NO_CHAR,  STCLASS="SYMREF READONLY");
      411     9065              %VLP_ERRCODE( FPTN=E_FULL,     STCLASS="SYMREF READONLY");
      412     9110
      413     9111        /***** Local variables *****/
      414     9112    1   dcl  VM_NO_OR_YES$( 0:1 )    ptr symref readonly;
      415     9113    1   DCL TEMP SBIN WORD AUTO;
      416     9114    1   DCL TEMPBUF CHAR(4) AUTO;
      417     9115        %EJECT;
PL6.E3A0      #002=VMD$DI_FOLDER File=VMD$DISPLAY2.:VMB6TSI                      WED 08/20/97 15:11 Page:70
      418     9116             %INIT_STR(STR=VN_YES_CHAR,       CODE=E_YES_CHAR,    TEST=YES);

   9123 13 000002   000000 236000 xsym               LDQ     VN_YES_CHAR
        13 000003   000033 772000                    QRL     27
        13 000004   000000 620006                    EAX0    0,QL
        13 000005   040000 106440                    CMPC    fill='040'O
        13 000006   000000 200010 xsym               ADSC9   VN_YES_CHAR              cn=1,n=*X0
        13 000007   000000 000001 14                 ADSC9   0                        cn=0,n=1
        13 000010   000015 601000 13                 TNZ     s:9146

   9125 13 000011   000002 630400 14                 EPPR0   2
        13 000012   000001 631400 14                 EPPR1   1
        13 000013   000000 701000 xent               TSX1    VMD$ERRMSG
        13 000014   000000 011000                    NOP     0

      419     9139            %INIT_STR(STR=VN_NO_CHAR, CODE=E_NO_CHAR, TEST=YES);

   9146 13 000015   000000 236000 xsym               LDQ     VN_NO_CHAR
        13 000016   000033 772000                    QRL     27
        13 000017   000000 620006                    EAX0    0,QL
        13 000020   040000 106440                    CMPC    fill='040'O
        13 000021   000000 200010 xsym               ADSC9   VN_NO_CHAR               cn=1,n=*X0
        13 000022   000000 000001 14                 ADSC9   0                        cn=0,n=1
        13 000023   000030 601000 13                 TNZ     s:9169

   9148 13 000024   000004 630400 14                 EPPR0   4
        13 000025   000001 631400 14                 EPPR1   1
        13 000026   000000 701000 xent               TSX1    VMD$ERRMSG
        13 000027   000000 011000                    NOP     0

      420     9162            %INIT_STR(STR=VM_FOLDER_FMT, CODE=E_FOLDER_FMT, TEST=YES);

   9169 13 000030   000000 236000 xsym               LDQ     VM_FOLDER_FMT
        13 000031   000033 772000                    QRL     27
        13 000032   000000 620006                    EAX0    0,QL
        13 000033   040000 106440                    CMPC    fill='040'O
        13 000034   000000 200010 xsym               ADSC9   VM_FOLDER_FMT            cn=1,n=*X0
PL6.E3A0      #002=VMD$DI_FOLDER File=VMD$DISPLAY2.:VMB6TSI                      WED 08/20/97 15:11 Page:71
        13 000035   000000 000001 14                 ADSC9   0                        cn=0,n=1
        13 000036   000043 601000 13                 TNZ     s:9192

   9171 13 000037   000006 630400 14                 EPPR0   6
        13 000040   000001 631400 14                 EPPR1   1
        13 000041   000000 701000 xent               TSX1    VMD$ERRMSG
        13 000042   000000 011000                    NOP     0

      421     9185            %INIT_STR(STR=VM_FOLDER_CHAR_FMT,CODE=E_FOLDER_CHAR_FMT,TEST=YES);

   9192 13 000043   000000 236000 xsym               LDQ     VM_FOLDER_CHAR_FMT
        13 000044   000033 772000                    QRL     27
        13 000045   000000 620006                    EAX0    0,QL
        13 000046   040000 106440                    CMPC    fill='040'O
        13 000047   000000 200010 xsym               ADSC9   VM_FOLDER_CHAR_FMT       cn=1,n=*X0
        13 000050   000000 000001 14                 ADSC9   0                        cn=0,n=1
        13 000051   000056 601000 13                 TNZ     s:9209

   9194 13 000052   000010 630400 14                 EPPR0   8
        13 000053   000001 631400 14                 EPPR1   1
        13 000054   000000 701000 xent               TSX1    VMD$ERRMSG
        13 000055   000000 011000                    NOP     0

      422     9208
      423     9209    1       VECT_ARRAY(0) = vector(VN_YES_CHAR.NAME#);

   9209 13 000056   000000 236000 xsym               LDQ     VN_YES_CHAR
        13 000057   000033 772000                    QRL     27
        13 000060   000064 737000                    LLS     52
        13 000061   000140 135007                    SBLA    96,DL
        13 000062   000012 236000 14                 LDQ     10
        13 000063   000036 757000 11                 STAQ    VECT_ARRAY

      424     9210    1       vbase(VECT_ARRAY(0))= pincrc( VM_NO_OR_YES$( bitbin(VM_FOLDER_INFO.FLAGS.OWNER)
              9210                ), 1);

   9210 13 000064   200003 470500                    LDP0    @VM_FOLDER_INFO,,AUTO
PL6.E3A0      #002=VMD$DI_FOLDER File=VMD$DISPLAY2.:VMB6TSI                      WED 08/20/97 15:11 Page:72
        13 000065   000023 236100                    LDQ     19,,PR0
        13 000066   000042 772000                    QRL     34
        13 000067   000001 376007                    ANQ     1,DL
        13 000070   000000 236006 xsym               LDQ     VM_NO_OR_YES$,QL
        13 000071   200000 036007                    ADLQ    65536,DL
        13 000072   000037 756000 11                 STQ     VECT_ARRAY+1

      425     9211        /**/
      426     9212    1       VECT_ARRAY(1) = VECTOR(VM_PROFILE.NUM_MESSAGES);

   9212 13 000073   777640 235007                    LDA     -96,DL
        13 000074   000000 236000 xsym               LDQ     VM_PROFILE$
        13 000075   000005 036003                    ADLQ    5,DU
        13 000076   000040 757000 11                 STAQ    VECT_ARRAY+2

      427     9213        /**/
      428     9214    1       VECT_ARRAY(2) = VECTOR(VM_PROFILE.NUM_NEW_MESSAGES);

   9214 13 000077   777640 235007                    LDA     -96,DL
        13 000100   000000 236000 xsym               LDQ     VM_PROFILE$
        13 000101   000006 036003                    ADLQ    6,DU
        13 000102   000042 757000 11                 STAQ    VECT_ARRAY+4

      429     9215        /**/
      430     9216        /**/
      431     9217    1       VECT_ARRAY(3) = VECTOR(VM_FOLDER_INFO.UGRANS);

   9217 13 000103   777640 235007                    LDA     -96,DL
        13 000104   200003 236100                    LDQ     @VM_FOLDER_INFO,,AUTO
        13 000105   000022 036003                    ADLQ    18,DU
        13 000106   000044 757000 11                 STAQ    VECT_ARRAY+6

      432     9218        /**/
      433     9219    1       IF VM_PROFILE.GRANULES = 0

   9219 13 000107   000000 471400 xsym               LDP1    VM_PROFILE$
        13 000110   100012 235100                    LDA     10,,PR1
PL6.E3A0      #002=VMD$DI_FOLDER File=VMD$DISPLAY2.:VMB6TSI                      WED 08/20/97 15:11 Page:73
        13 000111   000143 601000 13                 TNZ     s:9250

      434     9220    1       THEN
      435     9221    2       DO;

      436     9222    2           TEMPBUF = '   -';

   9222 13 000112   000000 236000 12                 LDQ     0
        13 000113   200006 756100                    STQ     TEMPBUF,,AUTO

      437     9223                %INIT_STR(STR=VM_FOLDER_CHAR_FMT,CODE=E_FOLDER_CHAR_FMT,TEST=YES,VECT=
              9223                    "F_FDS.FMT_");

   9230 13 000114   000000 236000 xsym               LDQ     VM_FOLDER_CHAR_FMT
        13 000115   000033 772000                    QRL     27
        13 000116   000000 620006                    EAX0    0,QL
        13 000117   040000 106440                    CMPC    fill='040'O
        13 000120   000000 200010 xsym               ADSC9   VM_FOLDER_CHAR_FMT       cn=1,n=*X0
        13 000121   000000 000001 14                 ADSC9   0                        cn=0,n=1
        13 000122   000130 601000 13                 TNZ     s:9235

   9232 13 000123   000014 630400 14                 EPPR0   12
        13 000124   000013 631400 14                 EPPR1   11
        13 000125   000000 701000 xent               TSX1    VMD$ERRMSG
        13 000126   000000 011000                    NOP     0

   9233 13 000127   000135 710000 13                 TRA     s:9246

   9235 13 000130   000000 635010                    EAA     0,X0
        13 000131   000002 771000                    ARL     2
        13 000132   000140 135007                    SBLA    96,DL
        13 000133   000017 236000 14                 LDQ     15
        13 000134   000000 757000 11                 STAQ    F_FDS

      438     9246    2           VECT_ARRAY(4) = VECTOR(TEMPBUF);

   9246 13 000135   777640 235007                    LDA     -96,DL
PL6.E3A0      #002=VMD$DI_FOLDER File=VMD$DISPLAY2.:VMB6TSI                      WED 08/20/97 15:11 Page:74
        13 000136   200010 452500                    STP2    TEMPBUF+2,,AUTO
        13 000137   200010 236100                    LDQ     TEMPBUF+2,,AUTO
        13 000140   000006 036003                    ADLQ    6,DU
        13 000141   000046 757000 11                 STAQ    VECT_ARRAY+8

      439     9247    2       END;

   9247 13 000142   000250 710000 13                 TRA     s:9333

      440     9248    1       ELSE
      441     9249    2       DO;

      442     9250    2           TEMP = VM_PROFILE.GRANULES - VM_FOLDER_INFO.UGRANS;

   9250 13 000143   100012 236100                    LDQ     10,,PR1
        13 000144   000022 136100                    SBLQ    18,,PR0
        13 000145   200005 756100                    STQ     TEMP,,AUTO

      443     9251    2           IF TEMP <= 0

   9251 13 000146   000217 605400 13                 TPNZ    s:9312

      444     9252    2           THEN
      445     9253    3           DO;

      446     9254                    %INIT_STR(STR=VM_FULL,CODE=E_FULL,TEST=YES);

   9261 13 000147   000000 236000 xsym               LDQ     VM_FULL
        13 000150   000033 772000                    QRL     27
        13 000151   000000 620006                    EAX0    0,QL
        13 000152   040000 106440                    CMPC    fill='040'O
        13 000153   000000 200010 xsym               ADSC9   VM_FULL                  cn=1,n=*X0
        13 000154   000000 000001 14                 ADSC9   0                        cn=0,n=1
        13 000155   000162 601000 13                 TNZ     s:9277

   9263 13 000156   000020 630400 14                 EPPR0   16
        13 000157   000001 631400 14                 EPPR1   1
PL6.E3A0      #002=VMD$DI_FOLDER File=VMD$DISPLAY2.:VMB6TSI                      WED 08/20/97 15:11 Page:75
        13 000160   000000 701000 xent               TSX1    VMD$ERRMSG
        13 000161   000000 011000                    NOP     0

      447     9277    3               TEMPBUF = VM_FULL.NAME#;

   9277 13 000162   000000 236000 xsym               LDQ     VM_FULL
        13 000163   000033 772000                    QRL     27
        13 000164   000000 620006                    EAX0    0,QL
        13 000165   040100 100440                    MLR     fill='040'O
        13 000166   000000 200010 xsym               ADSC9   VM_FULL                  cn=1,n=*X0
        13 000167   200006 000004                    ADSC9   TEMPBUF,,AUTO            cn=0,n=4

      448     9278                    %INIT_STR(STR=VM_FOLDER_CHAR_FMT,CODE=E_FOLDER_CHAR_FMT,TEST=YES,VECT=
              9278                        "F_FDS.FMT_");

   9285 13 000170   000000 236000 xsym               LDQ     VM_FOLDER_CHAR_FMT
        13 000171   000033 772000                    QRL     27
        13 000172   000000 621006                    EAX1    0,QL
        13 000173   040000 106440                    CMPC    fill='040'O
        13 000174   000000 200011 xsym               ADSC9   VM_FOLDER_CHAR_FMT       cn=1,n=*X1
        13 000175   000000 000001 14                 ADSC9   0                        cn=0,n=1
        13 000176   000204 601000 13                 TNZ     s:9290

   9287 13 000177   000014 630400 14                 EPPR0   12
        13 000200   000013 631400 14                 EPPR1   11
        13 000201   000000 701000 xent               TSX1    VMD$ERRMSG
        13 000202   000000 011000                    NOP     0

   9288 13 000203   000211 710000 13                 TRA     s:9301

   9290 13 000204   000000 635011                    EAA     0,X1
        13 000205   000002 771000                    ARL     2
        13 000206   000140 135007                    SBLA    96,DL
        13 000207   000017 236000 14                 LDQ     15
        13 000210   000000 757000 11                 STAQ    F_FDS

      449     9301    3               VECT_ARRAY(4) = VECTOR(TEMPBUF);
PL6.E3A0      #002=VMD$DI_FOLDER File=VMD$DISPLAY2.:VMB6TSI                      WED 08/20/97 15:11 Page:76

   9301 13 000211   777640 235007                    LDA     -96,DL
        13 000212   200010 452500                    STP2    TEMPBUF+2,,AUTO
        13 000213   200010 236100                    LDQ     TEMPBUF+2,,AUTO
        13 000214   000006 036003                    ADLQ    6,DU
        13 000215   000046 757000 11                 STAQ    VECT_ARRAY+8

      450     9302    3           END;

   9302 13 000216   000250 710000 13                 TRA     s:9333

      451     9303    2           ELSE
      452     9304    3           DO;

      453     9305                   %INIT_STR(STR=VM_FOLDER_FMT,CODE=E_FOLDER_FMT,TEST=YES,VECT="F_FDS.FMT_"
              9305                        );

   9312 13 000217   000000 236000 xsym               LDQ     VM_FOLDER_FMT
        13 000220   000033 772000                    QRL     27
        13 000221   000000 620006                    EAX0    0,QL
        13 000222   040000 106440                    CMPC    fill='040'O
        13 000223   000000 200010 xsym               ADSC9   VM_FOLDER_FMT            cn=1,n=*X0
        13 000224   000000 000001 14                 ADSC9   0                        cn=0,n=1
        13 000225   000233 601000 13                 TNZ     s:9317

   9314 13 000226   000022 630400 14                 EPPR0   18
        13 000227   000013 631400 14                 EPPR1   11
        13 000230   000000 701000 xent               TSX1    VMD$ERRMSG
        13 000231   000000 011000                    NOP     0

   9315 13 000232   000240 710000 13                 TRA     s:9328

   9317 13 000233   000000 635010                    EAA     0,X0
        13 000234   000002 771000                    ARL     2
        13 000235   000140 135007                    SBLA    96,DL
        13 000236   000025 236000 14                 LDQ     21
        13 000237   000000 757000 11                 STAQ    F_FDS
PL6.E3A0      #002=VMD$DI_FOLDER File=VMD$DISPLAY2.:VMB6TSI                      WED 08/20/97 15:11 Page:77

      454     9328    3               VECT_ARRAY(4) = VECTOR(TEMP);

   9328 13 000240   777640 235007                    LDA     -96,DL
        13 000241   200010 452500                    STP2    TEMPBUF+2,,AUTO
        13 000242   200010 236100                    LDQ     TEMPBUF+2,,AUTO
        13 000243   000005 036003                    ADLQ    5,DU
        13 000244   000046 757000 11                 STAQ    VECT_ARRAY+8

      455     9329    3               TEMP=VM_PROFILE.GRANULES;

   9329 13 000245   000000 470400 xsym               LDP0    VM_PROFILE$
        13 000246   000012 235100                    LDA     10,,PR0
        13 000247   200005 755100                    STA     TEMP,,AUTO

      456     9330    3           END;

      457     9331    2       END;

      458     9332        /**/
      459     9333    1       VECT_ARRAY(5) = VECTOR(VM_FOLDER_INFO.FOLDER);

   9333 13 000250   000026 235000 14                 LDA     22
        13 000251   200003 236100                    LDQ     @VM_FOLDER_INFO,,AUTO
        13 000252   000027 036000 14                 ADLQ    23
        13 000253   000050 757000 11                 STAQ    VECT_ARRAY+10

      460     9334        /**/
      461     9335    1       F_FDS.DCB# = DCB#;

   9335 13 000254   200004 470500                    LDP0    @DCB#,,AUTO
        13 000255   000000 720100                    LXL0    0,,PR0
        13 000256   000013 740000 11                 STX0    F_FDS+11

      462     9336    1       CALL VMD$WRITE_BUF (F_FDS);

   9336 13 000257   000016 630400 14                 EPPR0   14
PL6.E3A0      #002=VMD$DI_FOLDER File=VMD$DISPLAY2.:VMB6TSI                      WED 08/20/97 15:11 Page:78
        13 000260   000030 631400 14                 EPPR1   24
        13 000261   000000 701000 xent               TSX1    VMD$WRITE_BUF
        13 000262   000000 011000                    NOP     0

      463     9337    1       RETURN;

   9337 13 000263   000000 702200 xent               TSX2  ! X66_ARET

F_FDS
 Sect OctLoc
  11     000   000000 177640   000000 006014   000000 000000   000000 000000    ................
  11     004   000000 000000   000000 177640   000000 006014   000000 000001    ................
  11     010   000000 000000   000000 000006   000036 006000   000000 101500    ..............A.
  11     014   000000 000000   000000 000000   000000 000001   000000 000012    ................
  11     020   000000 000000   ****** ******   ****** ******   000000 000000    ................
  11     024   000000 000000   000000 000000   000000 000000   000000 006014    ................
  11     030   000000 006014   000000 006014   000000 006014   000000 000000    ................
  11     034   000000 000000   000000 000000                                    ........

VECT_ARRAY
 Sect OctLoc
  11     036   ****** ******   ****** ******   ****** ******   ****** ******    ................

(unnamed)
 Sect OctLoc
  12     000   040040 040055                                                       -

(unnamed)
 Sect OctLoc
  14     000   040040 040040   000002 000000   000000 006000   000000 006000        ............
  14     004   000000 006000   000000 006000   000000 006000   000000 006000    ................
  14     010   000000 006000   000000 006000   000000 206000   000003 000000    ................
  14     014   000000 006000   000000 006000   000000 006000   000000 206000    ................
  14     020   000000 006000   000000 006000   000000 006000   000000 006000    ................
  14     024   000000 006000   000000 206000   000006 177640   000003 400000    ................
  14     030   000001 000000                                                    ....
      464     9338    1   END VMD$DI_FOLDER;
PL6.E3A0      #002=VMD$DI_FOLDER File=VMD$DISPLAY2.:VMB6TSI                      WED 08/20/97 15:11 Page:79
      465     9339        %EOD;

PL6.E3A0      #002=VMD$DI_FOLDER File=VMD$DISPLAY2.:VMB6TSI                      WED 08/20/97 15:11 Page:80
--  Include file information  --

   XUR_ENTRY.:LIB_E05  cannot be made into a system file and is referenced.
   XU_FORMAT_C.:LIB_E05  is referenced.
   B_MACROS_C.:LIB_E05  is referenced.
   VM_DATA_R.:VMB6TOU  cannot be made into a system file and is referenced.
   VM_SUBS_C.:VMB6TOU  is referenced.
   VM_PERR_C.:VMB6TOU  is referenced.
   VM_MACRO_C.:VMB6TOU  is referenced.
   CP_6_SUBS.:LIB_E05  is referenced.
   CP_6_C.:LIB_E05  is referenced.
   CP_6.:LIB_E05  cannot be made into a system file and is referenced.
      No diagnostics issued in procedure VMD$DI_FOLDER.
PL6.E3A0      #002=VMD$DI_FOLDER File=VMD$DISPLAY2.:VMB6TSI                      WED 08/20/97 15:11 Page:81

 **** Variables and constants ****

  ****  Section 011  Data  VMD$DI_FOLDER

  ****  Scalars and arrays  ****
OctLoc.c.b A Datatyp(siz) R M Lvl/name                 OctLoc.c.b A Datatyp(siz) R M Lvl/name

     0-0-0/w STRC(1080)  r     1 F_FDS
    36-0-0/d VECT        r     1 VECT_ARRAY(0:9)

  ****  Auto variables  ****

  ****  Scalars and arrays  ****
OctLoc.c.b A Datatyp(siz) R M Lvl/name                 OctLoc.c.b A Datatyp(siz) R M Lvl/name

     4-0-0/w PTR         r     1 @DCB#                      3-0-0/w PTR         r     1 @VM_FOLDER_INFO
    *0-0-0/w UBIN        r     1 DCB#                       5-0-0/w SBIN        r     1 TEMP
     6-0-0/c CHAR(4)     r     1 TEMPBUF                   *0-0-0/w STRC(2529)  r     1 VM_FOLDER_INFO

  ****  SYMREF variables  ****

  ****  Scalars and arrays  ****
OctLoc.c.b A Datatyp(siz) R M Lvl/name                 OctLoc.c.b A Datatyp(siz) R M Lvl/name

     0-0-0/w PTR               1 B$JIT$                     0-0-0/w PTR               1 B$TCB$
     0-0-0/c ASTR(9)     r     1 ERRMSG_FID                 0-0-0/w STRC        r     1 E_FOLDER_CHAR_FMT
     0-0-0/w STRC        r     1 E_FOLDER_FMT               0-0-0/w STRC        r     1 E_FULL
     0-0-0/w STRC        r     1 E_NO_CHAR                  0-0-0/w STRC        r     1 E_YES_CHAR
     0-0-0/w UBIN              1 M$DO_NUM                   0-0-0/w UBIN              1 M$LO_NUM
     0-0-0/w UBIN              1 M$MAIL_CENTRAL_NUM         0-0-0/w UBIN              1 M$MAIL_COMGROUP_NUM
     0-0-0/w UBIN              1 M$MAIL_FILE_NUM            0-0-0/w UBIN              1 M$MAIL_GLOBAL_NUM
     0-0-0/w UBIN              1 M$ME_NUM                   0-0-0/w UBIN              1 M$NODE_NUM
     0-0-0/w UBIN              1 M$SI_NUM                   0-0-0/w UBIN              1 M$WORK_NUM
     0-0-0/w PTR               1 VM_ADDLIST$                0-0-0/d VECT              1 VM_ADDLIST_
     0-0-0/w PTR               1 VM_ADDREC$                 0-0-0/d VECT              1 VM_ADDREC_
     0-0-0/w PTR               1 VM_COPY$                   0-0-0/d VECT              1 VM_COPY_
     0-0-0/w PTR               1 VM_ENCLLIST$               0-0-0/d VECT              1 VM_ENCLLIST_
PL6.E3A0      #002=VMD$DI_FOLDER File=VMD$DISPLAY2.:VMB6TSI                      WED 08/20/97 15:11 Page:82
     0-0-0/w PTR               1 VM_ENCLREC$                0-0-0/d VECT              1 VM_ENCLREC_
     0-0-0/c ASTR(9)     r     1 VM_FOLDER_CHAR_FMT         0-0-0/c ASTR(9)     r     1 VM_FOLDER_FMT
     0-0-0/c STRC(270)         1 VM_FORWARD_ENCL_NAME       0-0-0/c STRC(270)         1 VM_FORWARD_FILE_NAME
     0-0-0/c STRC(72)          1 VM_FORWARD_FILE_PASS       0-0-0/c ASTR(9)     r     1 VM_FULL
     0-0-0/w PTR               1 VM_HEADER$                 0-0-0/d VECT              1 VM_HEADER_
     0-0-0/d VECT              1 VM_HEADER_INIT_            0-0-0/w PTR               1 VM_INPUT$
     0-0-0/d VECT              1 VM_INPUT_                  0-0-0/c STRC(72)          1 VM_MAILCG_NAME
     0-0-0/w STRC(432)         1 VM_MAILCG_SETSTA           0-0-0/c STRC(72)          1 VM_MAIL_ACCT
     0-0-0/c STRC(54)          1 VM_NAME_MAP_NAME
     0-0-0/w PTR         r     1 VM_NO_OR_YES$(0:1)
     0-0-0/w PTR               1 VM_PARSEAREA$              0-0-0/d VECT              1 VM_PARSEAREA_
     0-0-0/w PTR         r     1 VM_PROFILE$                0-0-0/d VECT              1 VM_PROFILE_
     0-0-0/w PTR               1 VM_SELECT$                 0-0-0/d VECT              1 VM_SELECT_
     0-0-0/c STRC(288)         1 VM_SEND_FILE_NAME          0-0-0/c CHAR(8)           1 VM_SITENAME
     0-0-0/w PTR               1 VM_WORK$                   0-0-0/d VECT              1 VM_WORK_
     0-0-0/c ASTR(9)     r     1 VN_NO_CHAR                 0-0-0/c ASTR(9)     r     1 VN_YES_CHAR

  ****  BASED and DCB variables  ****

  ****  Scalars and arrays  ****
OctLoc.c.b A Datatyp(siz) R M Lvl/name                 OctLoc.c.b A Datatyp(siz) R M Lvl/name

     0-0-0N  NULL        r     1 M$DO                       0-0-0N  NULL        r     1 M$LO
     0-0-0N  NULL        r     1 M$MAIL_CENTRAL             0-0-0N  NULL        r     1 M$MAIL_COMGROUP
     0-0-0N  NULL        r     1 M$MAIL_FILE                0-0-0N  NULL        r     1 M$MAIL_GLOBAL
     0-0-0N  NULL        r     1 M$ME                       0-0-0N  NULL        r     1 M$NODE
     0-0-0N  NULL        r     1 M$SI                       0-0-0N  NULL        r     1 M$UC
     0-0-0N  NULL        r     1 M$WORK                     0-0-0/w STRC(4068)  r     1 VM_PROFILE
     0-0-0/c ASTR(9)     r     1 X$STRING


   Procedure VMD$DI_FOLDER requires 180 words for executable code.
   Procedure VMD$DI_FOLDER requires 10 words of local(AUTO) storage.
PL6.E3A0      #002=VMD$DI_FOLDER File=VMD$DISPLAY2.:VMB6TSI                      WED 08/20/97 15:11 Page:83
          *** CROSS REFERENCE LISTING ***
**     DENOTES     IDENTIFIER DEFINITION
<<                 IDENTIFIER'S VALUE SET
>>                 IDENTIFIER'S VALUE USED
<>                 IDENTIFIER SET AND/OR USED
--                 IDENTIFIER REFERENCED
PL6.E3A0      #002=VMD$DI_FOLDER File=VMD$DISPLAY2.:VMB6TSI                      WED 08/20/97 15:11 Page:84
          MINI XREF LISTING

DCB#
      8706**DCL        17--PROC     9335>>ASSIGN
ERRMSG_FID.L#
      8217**DCL      8217--IMP-SIZ
E_FOLDER_CHAR_FMT
      8942**DCL      9194<>CALL     9232<>CALL     9287<>CALL
E_FOLDER_FMT
      8897**DCL      9171<>CALL     9314<>CALL
E_FULL
      9077**DCL      9263<>CALL
E_NO_CHAR
      9032**DCL      9148<>CALL
E_YES_CHAR
      8987**DCL      9125<>CALL
F_FDS
      8747**DCL      9336<>CALL
F_FDS.DCB#
      8780**DCL      9335<<ASSIGN
F_FDS.FMT_
      8751**DCL      9232<>CALL     9235<<ASSIGN   9287<>CALL     9290<<ASSIGN   9314<>CALL     9317<<ASSIGN
TEMP
      9113**DCL      9250<<ASSIGN   9251>>IF       9328--ASSIGN   9329<<ASSIGN
TEMPBUF
      9114**DCL      9222<<ASSIGN   9246--ASSIGN   9277<<ASSIGN   9301--ASSIGN
VECT_ARRAY
      8846**DCL      8777--DCLINIT  9209<<ASSIGN   9210<<ASSIGN   9212<<ASSIGN   9214<<ASSIGN   9217<<ASSIGN
      9246<<ASSIGN   9301<<ASSIGN   9328<<ASSIGN   9333<<ASSIGN
VMD$ERRMSG
      8712**DCL-ENT  9125--CALL     9148--CALL     9171--CALL     9194--CALL     9232--CALL     9263--CALL
      9287--CALL     9314--CALL
VMD$WRITE_BUF
      8708**DCL-ENT  9336--CALL
PL6.E3A0      #002=VMD$DI_FOLDER File=VMD$DISPLAY2.:VMB6TSI                      WED 08/20/97 15:11 Page:85
VM_FOLDER_CHAR_FMT
      8860**DCL      9194<>CALL     9232<>CALL     9287<>CALL
VM_FOLDER_CHAR_FMT.L#
      8860**DCL      8860--IMP-SIZ  9192>>IF       9194>>CALL     9230>>IF       9232>>CALL     9235>>ASSIGN
      9235>>ASSIGN   9285>>IF       9287>>CALL     9290>>ASSIGN   9290>>ASSIGN
VM_FOLDER_CHAR_FMT.NAME#
      8860**DCL      9192>>IF       9230>>IF       9235--ASSIGN   9285>>IF       9290--ASSIGN
VM_FOLDER_FMT
      8853**DCL      9171<>CALL     9314<>CALL
VM_FOLDER_FMT.L#
      8853**DCL      8853--IMP-SIZ  9169>>IF       9171>>CALL     9312>>IF       9314>>CALL     9317>>ASSIGN
      9317>>ASSIGN
VM_FOLDER_FMT.NAME#
      8853**DCL      9169>>IF       9312>>IF       9317--ASSIGN
VM_FOLDER_INFO
      8577**DCL        17--PROC
VM_FOLDER_INFO.FLAGS.OWNER
      8603**DCL      9210>>ASSIGN
VM_FOLDER_INFO.FOLDER
      8582**DCL      9333--ASSIGN
VM_FOLDER_INFO.UGRANS
      8598**DCL      9217--ASSIGN   9250>>ASSIGN
VM_FULL
      8882**DCL      9263<>CALL
VM_FULL.L#
      8882**DCL      8882--IMP-SIZ  9261>>IF       9263>>CALL     9277>>ASSIGN
VM_FULL.NAME#
      8882**DCL      9261>>IF       9277>>ASSIGN
VM_NO_OR_YES$
      9112**DCL      9210>>ASSIGN
VM_PROFILE.GRANULES
      8676**DCL      9219>>IF       9250>>ASSIGN   9329>>ASSIGN
VM_PROFILE.NUM_MESSAGES
      8666**DCL      9212--ASSIGN
VM_PROFILE.NUM_NEW_MESSAGES
      8668**DCL      9214--ASSIGN
PL6.E3A0      #002=VMD$DI_FOLDER File=VMD$DISPLAY2.:VMB6TSI                      WED 08/20/97 15:11 Page:86
VM_PROFILE$
      8069**DCL      8629--IMP-PTR  9212>>ASSIGN   9214>>ASSIGN   9219>>IF       9250>>ASSIGN   9329>>ASSIGN
VN_NO_CHAR
      8875**DCL      9148<>CALL
VN_NO_CHAR.L#
      8875**DCL      8875--IMP-SIZ  9146>>IF       9148>>CALL
VN_NO_CHAR.NAME#
      8875**DCL      9146>>IF
VN_YES_CHAR
      8868**DCL      9125<>CALL
VN_YES_CHAR.L#
      8868**DCL      8868--IMP-SIZ  9123>>IF       9125>>CALL     9209>>ASSIGN
VN_YES_CHAR.NAME#
      8868**DCL      9123>>IF       9209--ASSIGN
X$STRING.SIZ
      8063**DCL      8064--IMP-SIZ

PL6.E3A0      #003=VMD$DI_PROFILE File=VMD$DISPLAY2.:VMB6TSI                     WED 08/20/97 15:11 Page:87
      466        1        /*T***********************************************************/
      467        2        /*T*                                                         */
      468        3        /*T* Copyright (c) Bull HN Information Systems Inc., 1997    */
      469        4        /*T*                                                         */
      470        5        /*T***********************************************************/
      471        6        /*X* DMC,PLM=4,IND=4,CTI=2,DTI=0,ENI=0,ECI=0,CSI=0,DCI=4 */
      472        7        /*P* NAME: VMD$DI_PROFILE
      473        8             DESCRIPTION: This routine will display the MAIL PROFILE.
      474        9        */
      475       10        VMD$DI_PROFILE: PROC (DCB#);
      476       11
      477       12        /***** Include files *****/
      478       13          %INCLUDE B_SEGIDS_C;
      479      552          %INCLUDE CP_6;
      480     6111          %INCLUDE CP_6_SUBS;
      481     6651          %INCLUDE VM_MACRO_C;
      482     7919          %INCLUDE VM_SUBS_C;
      483     8179          %INCLUDE VM_DATA_R;
      484     8610          %INCLUDE XU_FORMAT_C;
      485     8772        /***** Parameters *****/
      486     8773    1   DCL DCB# UBIN WORD;
      487     8774    1   DCL I SBIN AUTO;
      488     8775    1   DCL J SBIN AUTO;
      489     8776    1   DCL TMP$ PTR;
      490     8777        %POINTER (NAME=TMPR$,STCLASS="REDEF TMP$");
      491     8782        /***** External routines *****/
      492     8783    1   DCL VMF$MAKE_ADDRESS2 ENTRY(3);
      493     8784    1   DCL VMD$WRITE_BUF ENTRY(1);
      494     8785        %INIT_STR(DODCL=YES);
      495     8808        /***** Fpts *****/
      496     8809            %VM_PROFILE;
      497     8896          %F_FDS (VECTR=VECT_ARRAY);
      498     9009              %F_FDS (NAME=SPACE_LINE,VECTR=VECT_ARRAY,FMT=BLANK_LINE_FMT,NVECS=0);
      499     9122    1   DCL VECT_ARRAY(0:8) VECTOR DALIGNED STATIC;
      500     9123          %VLP_NAME (FPTN=ADDRESS_TEXT,LEN=256,STCLASS=AUTO);
      501     9150    1   DCL 1 NAME_ARRAY(0:%(VM_MAX_SRCH-1)),
      502     9151    1         2 L# UBIN(9) UNAL,
PL6.E3A0      #003=VMD$DI_PROFILE File=VMD$DISPLAY2.:VMB6TSI                     WED 08/20/97 15:11 Page:88
      503     9152    1         2 NAME# CHAR(127);
      504     9153        /***** Mail structures *****/
      505     9154          %VM_ADDTYPES;
      506     9158          %VM_RADDRESS (NAME=VM$RADDRESS,STCLASS=BASED);
      507     9193          %VM_UADDRESS (NAME=VM$UADDRESS,STCLASS=BASED);
      508     9230        /***** Formats *****/
      509     9231    1   DCL BLANK_LINE_FMT CHAR(0) CONSTANT INIT
      510     9232    1        ('%1X');
      511     9233        /**/
      512     9234        %VLP_NAMEV( FPTN=VM_PROFILE_FLAGS1_FMT,  STCLASS=SYMREF);
      513     9241        %VLP_NAMEV( FPTN=VM_PROFILE_FLAGS2_FMT,  STCLASS=SYMREF);
      514     9248        %VLP_NAMEV( FPTN=VM_PROFILE_FLAGS3_FMT,  STCLASS=SYMREF);
      515     9255        %VLP_NAMEV( FPTN=VM_PROFILE_FLAGS4_FMT,  STCLASS=SYMREF);
      516     9262        %VLP_NAMEV( FPTN=VM_PROFILE_FFOLDER_FMT, STCLASS=SYMREF);
      517     9269        %VLP_NAMEV( FPTN=VM_PROFILE_REPLY_FMT,   STCLASS=SYMREF);
      518     9276        %VLP_NAMEV( FPTN=VM_PROFILE_SETUP_FMT,   STCLASS=SYMREF);
      519     9283        %VLP_NAMEV( FPTN=VM_PROFILE_SIGNED_FMT,  STCLASS=SYMREF);
      520     9290        %VLP_NAMEV( FPTN=VM_PROFILE_SRCH_FMT,    STCLASS=SYMREF);
      521     9297        %VLP_NAMEV( FPTN=VM_PROFILE_SRCH2_FMT,   STCLASS=SYMREF);
      522     9304        %VLP_NAMEV( FPTN=VM_PROFILE_EDITOR_FMT,  STCLASS=SYMREF);
      523     9311        %VLP_NAMEV( FPTN=VN_YES_CHAR,            STCLASS=SYMREF);
      524     9318        %VLP_NAMEV( FPTN=VM_SENDER,              STCLASS=SYMREF);
      525     9325        %VLP_NAMEV( FPTN=VM_RECEIVERS,           STCLASS=SYMREF);
      526     9332        %VLP_NAMEV( FPTN=VN_NO_CHAR,             STCLASS=SYMREF);
      527     9339
      528     9340        %VLP_ERRCODE( FPTN=E_PROFILE_FLAGS1_FMT,  STCLASS="SYMREF READONLY");
      529     9385              %VLP_ERRCODE( FPTN=E_PROFILE_FLAGS2_FMT, STCLASS="SYMREF READONLY");
      530     9430              %VLP_ERRCODE( FPTN=E_PROFILE_FLAGS3_FMT, STCLASS="SYMREF READONLY");
      531     9475              %VLP_ERRCODE( FPTN=E_PROFILE_FLAGS4_FMT, STCLASS="SYMREF READONLY");
      532     9520              %VLP_ERRCODE( FPTN=E_PROFILE_FFOLDER_FMT, STCLASS="SYMREF READONLY");
      533     9565              %VLP_ERRCODE( FPTN=E_PROFILE_REPLY_FMT, STCLASS="SYMREF READONLY");
      534     9610              %VLP_ERRCODE( FPTN=E_PROFILE_SETUP_FMT, STCLASS="SYMREF READONLY");
      535     9655              %VLP_ERRCODE( FPTN=E_PROFILE_SIGNED_FMT, STCLASS="SYMREF READONLY");
      536     9700              %VLP_ERRCODE( FPTN=E_PROFILE_SRCH_FMT, STCLASS="SYMREF READONLY");
      537     9745              %VLP_ERRCODE( FPTN=E_PROFILE_SRCH2_FMT, STCLASS="SYMREF READONLY");
      538     9790              %VLP_ERRCODE( FPTN=E_PROFILE_EDITOR_FMT, STCLASS="SYMREF READONLY");
      539     9835              %VLP_ERRCODE( FPTN=E_YES_CHAR,      STCLASS="SYMREF READONLY");
PL6.E3A0      #003=VMD$DI_PROFILE File=VMD$DISPLAY2.:VMB6TSI                     WED 08/20/97 15:11 Page:89
      540     9880              %VLP_ERRCODE( FPTN=E_SENDER,        STCLASS="SYMREF READONLY");
      541     9925              %VLP_ERRCODE( FPTN=E_RECEIVERS,     STCLASS="SYMREF READONLY");
      542     9970              %VLP_ERRCODE( FPTN=E_NO_CHAR,       STCLASS="SYMREF READONLY");
      543    10015    1   dcl  VM_NO_OR_YES$(0:1)   ptr symref readonly;
      544    10016
      545    10017        %EJECT;
PL6.E3A0      #003=VMD$DI_PROFILE File=VMD$DISPLAY2.:VMB6TSI                     WED 08/20/97 15:11 Page:90
      546    10018    1       F_FDS.DCB# = DCB#;
      547    10019    1       SPACE_LINE.DCB# = DCB#;
      548    10020        /**/
      549    10021    1       CALL VMD$WRITE_BUF (SPACE_LINE);
      550    10022        /**/
      551    10023            %INIT_STR( STR=VN_YES_CHAR, CODE=E_YES_CHAR, TEST=YES);
      552    10046            %INIT_STR( STR=VN_NO_CHAR, CODE=E_NO_CHAR, TEST=YES);
      553    10069    1       VECT_ARRAY(0) = vector(VN_YES_CHAR.NAME#);
      554    10070    1       VECT_ARRAY(2) = vector(VN_YES_CHAR.NAME#);
      555    10071    1       VECT_ARRAY(3) = vector(VN_YES_CHAR.NAME#);
      556    10072    1       vbase(VECT_ARRAY(0))=pincrc(VM_NO_OR_YES$(bitbin(VM_PROFILE.OPT.FCOPY)),1);
      557    10073        /**/
      558    10074    1       VECT_ARRAY(1) = VECTOR(VM_PROFILE.GRANULES);
      559    10075        /**/
      560    10076    1       vbase(VECT_ARRAY(2))=pincrc(VM_NO_OR_YES$(bitbin(VM_PROFILE.OPT.HEADERS)),1);
      561    10077
      562    10078    1       vbase(VECT_ARRAY(3))=pincrc(VM_NO_OR_YES$(bitbin(VM_PROFILE.OPT.AUTO_EDIT)),1);
      563    10079        /**/
      564    10080    1       F_FDS.NVECS# = 4;
      565    10081            %INIT_STR(STR=VM_PROFILE_FLAGS1_FMT,CODE=E_PROFILE_FLAGS1_FMT,TEST=YES,VECT=
             10081                "F_FDS.FMT_");
      566    10104    1       CALL VMD$WRITE_BUF (F_FDS);
      567    10105        /**/
      568    10106    1       VECT_ARRAY(1) = vector(VN_YES_CHAR.NAME#);
      569    10107    1       vbase(VECT_ARRAY(0))=pincrc(VM_NO_OR_YES$(bitbin(VM_PROFILE.OPT.PAGE)),1);
      570    10108
      571    10109    1       vbase(VECT_ARRAY(1))=pincrc(VM_NO_OR_YES$(bitbin(VM_PROFILE.OPT.RENUMBER)),1);
      572    10110
      573    10111    1       vbase(VECT_ARRAY(2))=pincrc(VM_NO_OR_YES$(bitbin(VM_PROFILE.OPT.RETURN_RECEIPT))
             10111                ,1);
      574    10112
      575    10113    1       vbase(VECT_ARRAY(3))=pincrc(VM_NO_OR_YES$(bitbin(VM_PROFILE.OPT.DELIVERY_RECEIPT
             10113                )),1);
      576    10114        /**/
      577    10115    1       F_FDS.NVECS# = 4;
      578    10116            %INIT_STR(STR=VM_PROFILE_FLAGS2_FMT,CODE=E_PROFILE_FLAGS2_FMT,TEST=YES,VECT=
             10116                "F_FDS.FMT_");
PL6.E3A0      #003=VMD$DI_PROFILE File=VMD$DISPLAY2.:VMB6TSI                     WED 08/20/97 15:11 Page:91
      579    10139    1       CALL VMD$WRITE_BUF (F_FDS);
      580    10140        /**/
      581    10141    1       vbase(VECT_ARRAY(0))=pincrc(VM_NO_OR_YES$(bitbin(VM_PROFILE.OPT.DISPTRACE)),1);
      582    10142
      583    10143    1       vbase(VECT_ARRAY(1))=pincrc(VM_NO_OR_YES$(bitbin(VM_PROFILE.OPT.COMBINE)),1);
      584    10144    1       IF VM_PROFILE.OPT.ANS_RECEIVERS
      585    10145    2       THEN DO;
      586    10146                %INIT_STR(STR=VM_RECEIVERS,CODE=E_RECEIVERS,TEST=YES,
      587    10147                VECT="VECT_ARRAY(2)");
      588    10170    2       END;
      589    10171    2       ELSE DO;
      590    10172                %INIT_STR(STR=VM_SENDER,CODE=E_SENDER,TEST=YES,
      591    10173                VECT="VECT_ARRAY(2)");
      592    10196    2       END;
      593    10197    1       vbase(VECT_ARRAY(3))=pincrc(VM_NO_OR_YES$(bitbin(VM_PROFILE.OPT.PREPROCESS)),1);
      594    10198        /**/
      595    10199    1       F_FDS.NVECS# = 4;
      596    10200            %INIT_STR(STR=VM_PROFILE_FLAGS3_FMT,CODE=E_PROFILE_FLAGS3_FMT,TEST=YES,VECT=
             10200                "F_FDS.FMT_");
      597    10223    1       CALL VMD$WRITE_BUF (F_FDS);
      598    10224        /**/
      599    10225    1       vbase(VECT_ARRAY(0))=pincrc(VM_NO_OR_YES$(bitbin(VM_PROFILE.OPT.EXT_ADDR_DISP)),
             10225                1);
      600    10226    1       vbase(VECT_ARRAY(1))=pincrc(VM_NO_OR_YES$(bitbin(VM_PROFILE.OPT.DEL_ON_DETACH)),
             10226                1);
      601    10227    1       F_FDS.NVECS# = 2;
      602    10228            %INIT_STR(STR=VM_PROFILE_FLAGS4_FMT,CODE=E_PROFILE_FLAGS4_FMT,TEST=YES,VECT=
             10228                "F_FDS.FMT_");
      603    10251    1       CALL VMD$WRITE_BUF (F_FDS);
      604    10252        /*
      605    10253             ***** Display the file folder ...
      606    10254        */
      607    10255    1       IF VM_PROFILE.FILE_FOLDER$ ~= ADDR(NIL)
      608    10256    1       THEN
      609    10257    2       DO;
      610    10258    2           ADDRESS_TEXT.L# = LENGTHC(ADDRESS_TEXT.NAME#);
      611    10259    2           CALL VMF$MAKE_ADDRESS2 (ADDRESS_TEXT,VM_PROFILE.FILE_FOLDER$ -> VM$RADDRESS)
PL6.E3A0      #003=VMD$DI_PROFILE File=VMD$DISPLAY2.:VMB6TSI                     WED 08/20/97 15:11 Page:92
             10259                    ;
      612    10260    2           VECT_ARRAY(0) = VECTOR(SUBSTR(ADDRESS_TEXT.NAME#,0,ADDRESS_TEXT.L#));
      613    10261    2           F_FDS.NVECS# = 1;
      614    10262                %INIT_STR(STR=VM_PROFILE_FFOLDER_FMT,CODE=E_PROFILE_FFOLDER_FMT,TEST=YES,
             10262                    VECT="F_FDS.FMT_");
      615    10285    2           CALL VMD$WRITE_BUF (F_FDS);
      616    10286    2       END;
      617    10287        /*
      618    10288             ***** Display the search list ...
      619    10289        */
      620    10290    1       J=0;
      621    10291    2       DO I=0 TO %VM_MAX_SRCH-1;
      622    10292    2           IF VM_PROFILE.SEARCH_LIST$(I) ~= ADDR(NIL)
      623    10293    3           THEN DO;
      624    10294    3               NAME_ARRAY.L#(J) = LENGTHC(NAME_ARRAY.NAME#(0));
      625    10295    3               CALL VMF$MAKE_ADDRESS2 (NAME_ARRAY(J),VM_PROFILE.SEARCH_LIST$(I) ->
             10295                        VM$RADDRESS);
      626    10296    3               VECT_ARRAY(J+1) = VECTOR(SUBSTR(NAME_ARRAY.NAME#(J),0,NAME_ARRAY.L#(J)))
             10296                        ;
      627    10297    3               J=J+1;
      628    10298    3           END;
      629    10299    2       END;
      630    10300    1       IF J > 0
      631    10301    2       THEN DO;
      632    10302    2           F_FDS.NVECS# = J+1;
      633    10303    2           VECT_ARRAY(0) = VECTOR(J);
      634    10304    2           J=J-1;
      635    10305                %INIT_STR(STR=VM_PROFILE_SRCH_FMT,CODE=E_PROFILE_SRCH_FMT,TEST=YES,VECT=
             10305                    "F_FDS.FMT_");
      636    10328    2           CALL VMD$WRITE_BUF (F_FDS);
      637    10329    2       END;
      638    10330        /*
      639    10331             ***** Display the setup command ...
      640    10332        */
      641    10333    1       IF VM_PROFILE.SETUP.COUNT ~= 0
      642    10334    1       THEN
      643    10335    2       DO;
PL6.E3A0      #003=VMD$DI_PROFILE File=VMD$DISPLAY2.:VMB6TSI                     WED 08/20/97 15:11 Page:93
      644    10336    2           VECT_ARRAY(0) = VECTOR(SUBSTR(VM_PROFILE.SETUP.TEXT,0,VM_PROFILE.SETUP.COUNT
             10336                    ));
      645    10337    2           F_FDS.NVECS# = 1;
      646    10338                %INIT_STR(STR=VM_PROFILE_SETUP_FMT,CODE=E_PROFILE_SETUP_FMT,TEST=YES,VECT=
             10338                    "F_FDS.FMT_");
      647    10361    2           CALL VMD$WRITE_BUF (F_FDS);
      648    10362    2       END;
      649    10363        /*
      650    10364             ***** Display the signed field ...
      651    10365        */
      652    10366    1       IF VM_PROFILE.SIGNED$ ~= ADDR(NIL)
      653    10367    1       THEN
      654    10368    2       DO;
      655    10369    2           VECT_ARRAY(0) = VECTOR(VM_PROFILE.SIGNED$->X$STRING.TEXT);
      656    10370    2           F_FDS.NVECS# = 1;
      657    10371                %INIT_STR(STR=VM_PROFILE_SIGNED_FMT,CODE=E_PROFILE_SIGNED_FMT,TEST=YES,VECT=
             10371                    "F_FDS.FMT_");
      658    10394    2           CALL VMD$WRITE_BUF (F_FDS);
      659    10395    2       END;
      660    10396        /*
      661    10397             ***** Display the editor field ...
      662    10398        */
      663    10399    1       TMP$ = VM_PROFILE.EDITOR$;
      664    10400    1       IF TMP$ ~= ADDR(NIL) AND TMPR$.SEGID = %DS3SID
      665    10401    1       THEN
      666    10402    2       DO;
      667    10403    2           VECT_ARRAY(0) = VECTOR(VM_PROFILE.EDITOR$->X$STRING.TEXT);
      668    10404    2           F_FDS.NVECS# = 1;
      669    10405                %INIT_STR(STR=VM_PROFILE_EDITOR_FMT,CODE=E_PROFILE_EDITOR_FMT,TEST=YES,VECT=
             10405                    "F_FDS.FMT_");
      670    10428    2           CALL VMD$WRITE_BUF (F_FDS);
      671    10429    2       END;
      672    10430    1       TMP$ = VM_PROFILE.REPLY_TO$;
      673    10431    1       IF TMP$ ~= ADDR(NIL) AND TMPR$.SEGID = %DS3SID
      674    10432    1       THEN
      675    10433    2       DO;
      676    10434    2           VECT_ARRAY(0) = VECTOR(VM_PROFILE.REPLY_TO$->X$STRING.TEXT);
PL6.E3A0      #003=VMD$DI_PROFILE File=VMD$DISPLAY2.:VMB6TSI                     WED 08/20/97 15:11 Page:94
      677    10435    2           F_FDS.NVECS# = 1;
      678    10436                %INIT_STR(STR=VM_PROFILE_REPLY_FMT,CODE=E_PROFILE_REPLY_FMT,TEST=YES,VECT=
             10436                    "F_FDS.FMT_");
      679    10459    2           CALL VMD$WRITE_BUF (F_FDS);
      680    10460    2       END;
      681    10461    1   END VMD$DI_PROFILE;

PL6.E3A0      #003=VMD$DI_PROFILE File=VMD$DISPLAY2.:VMB6TSI                     WED 08/20/97 15:11 Page:95
--  Include file information  --

   XU_FORMAT_C.:LIB_E05  is referenced.
   B_MACROS_C.:LIB_E05  is referenced.
   VM_DATA_R.:VMB6TOU  cannot be made into a system file and is referenced.
   VM_SUBS_C.:VMB6TOU  is referenced.
   VM_MACRO_C.:VMB6TOU  is referenced.
   CP_6_SUBS.:LIB_E05  is referenced.
   CP_6_C.:LIB_E05  is referenced.
   CP_6.:LIB_E05  cannot be made into a system file and is referenced.
   B_SEGIDS_C.:LIB_E05  is referenced.
      No diagnostics issued in procedure VMD$DI_PROFILE.

   Procedure VMD$DI_PROFILE requires 549 words for executable code.
   Procedure VMD$DI_PROFILE requires 202 words of local(AUTO) storage.

    No errors detected in file VMD$DISPLAY2.:VMB6TSI    .

PL6.E3A0      #003=VMD$DI_PROFILE File=VMD$DISPLAY2.:VMB6TSI                     WED 08/20/97 15:11 Page:96

 Object Unit name= VMD$DI_PROFILE                             File name= VMD$DISPLAY2.:VMB6TOU
 UTS= AUG 20 '97 15:11:17.76 WED                              Compiler= PL-6/E31         Sev=      00
 SharedLib= :SHARED_SYSTEM                                    Alt SharedLib=


    ****  Control sections  ****

 Sect   Type Bound  Init  Size OctSiz  Section name(segment info)
    0   DCB   even  none     0      0  M$UC
    1   DCB   even  none     0      0  M$MAIL_FILE
    2   DCB   even  none     0      0  M$MAIL_CENTRAL
    3   DCB   even  none     0      0  M$MAIL_GLOBAL
    4   DCB   even  none     0      0  M$WORK
    5   DCB   even  none     0      0  M$MAIL_COMGROUP
    6   DCB   even  none     0      0  M$DO
    7   DCB   even  none     0      0  M$LO
    8   DCB   even  none     0      0  M$ME
    9   DCB   even  none     0      0  M$NODE
   10   DCB   even  none     0      0  M$SI
   11   Data  even  none    78    116  VMD$DI_PROFILE
   12  RoData even  UTS      1      1  VMD$DI_PROFILE
   13   Proc  even  none   549   1045  VMD$DI_PROFILE
   14  RoData even  none    63     77  VMD$DI_PROFILE

    ****  Entry defs  ****

                              Check   Calling
                             calling  sequence
  Sect OctLoc Primary Altret sequence   type   Parms  Name
    13      0   yes            yes      Std        1  VMD$DI_PROFILE
PL6.E3A0      #003=VMD$DI_PROFILE File=VMD$DISPLAY2.:VMB6TSI                     WED 08/20/97 15:11 Page:97

  ****  Entry refs  ****

         Check        Calling
        calling       sequence
Altret sequence SRef   type   Args  Name
         yes           Std       1 VMD$WRITE_BUF
 yes     yes           Std       3 VMD$ERRMSG
         yes           Std       3 VMF$MAKE_ADDRESS2
                       nStd      0 X66_AUTO_1
                       nStd      0 X66_ARET

  ****  Data refs  ****

  Flags:  r = read only, s = secondary
Flgs Name                             Flgs Name                             Flgs Name
     M$UC                             r    VM_HEADER$                       r    VM_PROFILE$
r    VM_ADDLIST$                      r    VM_ADDREC$                       r    VM_WORK$
r    VM_SELECT$                       r    VM_PARSEAREA$                    r    VM_INPUT$
r    VM_COPY$                              VM_ENCLLIST$                          VM_ENCLREC$
     VM_HEADER_                            VM_HEADER_INIT_                       VM_PROFILE_
     VM_ADDLIST_                           VM_ADDREC_                            VM_WORK_
     VM_SELECT_                            VM_PARSEAREA_                         VM_INPUT_
     VM_COPY_                              VM_ENCLLIST_                          VM_ENCLREC_
     M$MAIL_FILE                           M$MAIL_CENTRAL                        M$MAIL_GLOBAL
     M$WORK                                M$MAIL_COMGROUP                       M$DO
     M$LO                                  M$ME                                  M$NODE
     M$SI                                  M$MAIL_FILE_NUM                       M$MAIL_CENTRAL_NUM
     M$MAIL_GLOBAL_NUM                     M$WORK_NUM                            M$MAIL_COMGROUP_NUM
     M$DO_NUM                              M$ME_NUM                              M$LO_NUM
     M$SI_NUM                              M$NODE_NUM                       r    B$JIT$
r    B$TCB$                                VM_MAIL_ACCT                          VM_NAME_MAP_NAME
     ERRMSG_FID                            VM_SEND_FILE_NAME                     VM_FORWARD_FILE_NAME
     VM_FORWARD_ENCL_NAME                  VM_FORWARD_FILE_PASS                  VM_MAILCG_NAME
     VM_SITENAME                           VM_MAILCG_SETSTA                      VM_PROFILE_FLAGS1_FMT
     VM_PROFILE_FLAGS2_FMT                 VM_PROFILE_FLAGS3_FMT                 VM_PROFILE_FLAGS4_FMT
     VM_PROFILE_FFOLDER_FMT                VM_PROFILE_REPLY_FMT                  VM_PROFILE_SETUP_FMT
     VM_PROFILE_SIGNED_FMT                 VM_PROFILE_SRCH_FMT                   VM_PROFILE_SRCH2_FMT
PL6.E3A0      #003=VMD$DI_PROFILE File=VMD$DISPLAY2.:VMB6TSI                     WED 08/20/97 15:11 Page:98
     VM_PROFILE_EDITOR_FMT                 VN_YES_CHAR                           VM_SENDER
     VM_RECEIVERS                          VN_NO_CHAR                       r    E_PROFILE_FLAGS1_FMT
r    E_PROFILE_FLAGS2_FMT             r    E_PROFILE_FLAGS3_FMT             r    E_PROFILE_FLAGS4_FMT
r    E_PROFILE_FFOLDER_FMT            r    E_PROFILE_REPLY_FMT              r    E_PROFILE_SETUP_FMT
r    E_PROFILE_SIGNED_FMT             r    E_PROFILE_SRCH_FMT               r    E_PROFILE_SRCH2_FMT
r    E_PROFILE_EDITOR_FMT             r    E_YES_CHAR                       r    E_SENDER
r    E_RECEIVERS                      r    E_NO_CHAR                        r    VM_NO_OR_YES$

  ****  Segment refs  ****

  Flags:  r = read only, s = secondary
Flgs Name                             Flgs Name                             Flgs Name
     NULLSID                               ISSID
PL6.E3A0      #003=VMD$DI_PROFILE File=VMD$DISPLAY2.:VMB6TSI                     WED 08/20/97 15:11 Page:99


      466        1        /*T***********************************************************/
      467        2        /*T*                                                         */
      468        3        /*T* Copyright (c) Bull HN Information Systems Inc., 1997    */
      469        4        /*T*                                                         */
      470        5        /*T***********************************************************/
      471        6        /*X* DMC,PLM=4,IND=4,CTI=2,DTI=0,ENI=0,ECI=0,CSI=0,DCI=4 */
      472        7        /*P* NAME: VMD$DI_PROFILE
      473        8             DESCRIPTION: This routine will display the MAIL PROFILE.
      474        9        */
      475       10        VMD$DI_PROFILE: PROC (DCB#);

     10 13 000000   000000 700200 xent  VMD$DI_PROF* TSX0  ! X66_AUTO_1
        13 000001   000312 000001                    ZERO    202,1

      476       11
      477       12        /***** Include files *****/
      478       13          %INCLUDE B_SEGIDS_C;
      479      552          %INCLUDE CP_6;
      480     6111          %INCLUDE CP_6_SUBS;
      481     6651          %INCLUDE VM_MACRO_C;
      482     7919          %INCLUDE VM_SUBS_C;
      483     8179          %INCLUDE VM_DATA_R;
      484     8610          %INCLUDE XU_FORMAT_C;
      485     8772        /***** Parameters *****/
      486     8773    1   DCL DCB# UBIN WORD;
      487     8774    1   DCL I SBIN AUTO;
      488     8775    1   DCL J SBIN AUTO;
      489     8776    1   DCL TMP$ PTR;
      490     8777        %POINTER (NAME=TMPR$,STCLASS="REDEF TMP$");
      491     8782        /***** External routines *****/
      492     8783    1   DCL VMF$MAKE_ADDRESS2 ENTRY(3);
      493     8784    1   DCL VMD$WRITE_BUF ENTRY(1);
      494     8785        %INIT_STR(DODCL=YES);
      495     8808        /***** Fpts *****/
      496     8809            %VM_PROFILE;
      497     8896          %F_FDS (VECTR=VECT_ARRAY);
PL6.E3A0      #003=VMD$DI_PROFILE File=VMD$DISPLAY2.:VMB6TSI                     WED 08/20/97 15:11 Page:100
      498     9009              %F_FDS (NAME=SPACE_LINE,VECTR=VECT_ARRAY,FMT=BLANK_LINE_FMT,NVECS=0);
      499     9122    1   DCL VECT_ARRAY(0:8) VECTOR DALIGNED STATIC;
      500     9123          %VLP_NAME (FPTN=ADDRESS_TEXT,LEN=256,STCLASS=AUTO);
      501     9150    1   DCL 1 NAME_ARRAY(0:%(VM_MAX_SRCH-1)),
      502     9151    1         2 L# UBIN(9) UNAL,
      503     9152    1         2 NAME# CHAR(127);
      504     9153        /***** Mail structures *****/
      505     9154          %VM_ADDTYPES;
      506     9158          %VM_RADDRESS (NAME=VM$RADDRESS,STCLASS=BASED);
      507     9193          %VM_UADDRESS (NAME=VM$UADDRESS,STCLASS=BASED);
      508     9230        /***** Formats *****/
      509     9231    1   DCL BLANK_LINE_FMT CHAR(0) CONSTANT INIT
      510     9232    1        ('%1X');
      511     9233        /**/
      512     9234        %VLP_NAMEV( FPTN=VM_PROFILE_FLAGS1_FMT,  STCLASS=SYMREF);
      513     9241        %VLP_NAMEV( FPTN=VM_PROFILE_FLAGS2_FMT,  STCLASS=SYMREF);
      514     9248        %VLP_NAMEV( FPTN=VM_PROFILE_FLAGS3_FMT,  STCLASS=SYMREF);
      515     9255        %VLP_NAMEV( FPTN=VM_PROFILE_FLAGS4_FMT,  STCLASS=SYMREF);
      516     9262        %VLP_NAMEV( FPTN=VM_PROFILE_FFOLDER_FMT, STCLASS=SYMREF);
      517     9269        %VLP_NAMEV( FPTN=VM_PROFILE_REPLY_FMT,   STCLASS=SYMREF);
      518     9276        %VLP_NAMEV( FPTN=VM_PROFILE_SETUP_FMT,   STCLASS=SYMREF);
      519     9283        %VLP_NAMEV( FPTN=VM_PROFILE_SIGNED_FMT,  STCLASS=SYMREF);
      520     9290        %VLP_NAMEV( FPTN=VM_PROFILE_SRCH_FMT,    STCLASS=SYMREF);
      521     9297        %VLP_NAMEV( FPTN=VM_PROFILE_SRCH2_FMT,   STCLASS=SYMREF);
      522     9304        %VLP_NAMEV( FPTN=VM_PROFILE_EDITOR_FMT,  STCLASS=SYMREF);
      523     9311        %VLP_NAMEV( FPTN=VN_YES_CHAR,            STCLASS=SYMREF);
      524     9318        %VLP_NAMEV( FPTN=VM_SENDER,              STCLASS=SYMREF);
      525     9325        %VLP_NAMEV( FPTN=VM_RECEIVERS,           STCLASS=SYMREF);
      526     9332        %VLP_NAMEV( FPTN=VN_NO_CHAR,             STCLASS=SYMREF);
      527     9339
      528     9340        %VLP_ERRCODE( FPTN=E_PROFILE_FLAGS1_FMT,  STCLASS="SYMREF READONLY");
      529     9385              %VLP_ERRCODE( FPTN=E_PROFILE_FLAGS2_FMT, STCLASS="SYMREF READONLY");
      530     9430              %VLP_ERRCODE( FPTN=E_PROFILE_FLAGS3_FMT, STCLASS="SYMREF READONLY");
      531     9475              %VLP_ERRCODE( FPTN=E_PROFILE_FLAGS4_FMT, STCLASS="SYMREF READONLY");
      532     9520              %VLP_ERRCODE( FPTN=E_PROFILE_FFOLDER_FMT, STCLASS="SYMREF READONLY");
      533     9565              %VLP_ERRCODE( FPTN=E_PROFILE_REPLY_FMT, STCLASS="SYMREF READONLY");
      534     9610              %VLP_ERRCODE( FPTN=E_PROFILE_SETUP_FMT, STCLASS="SYMREF READONLY");
PL6.E3A0      #003=VMD$DI_PROFILE File=VMD$DISPLAY2.:VMB6TSI                     WED 08/20/97 15:11 Page:101
      535     9655              %VLP_ERRCODE( FPTN=E_PROFILE_SIGNED_FMT, STCLASS="SYMREF READONLY");
      536     9700              %VLP_ERRCODE( FPTN=E_PROFILE_SRCH_FMT, STCLASS="SYMREF READONLY");
      537     9745              %VLP_ERRCODE( FPTN=E_PROFILE_SRCH2_FMT, STCLASS="SYMREF READONLY");
      538     9790              %VLP_ERRCODE( FPTN=E_PROFILE_EDITOR_FMT, STCLASS="SYMREF READONLY");
      539     9835              %VLP_ERRCODE( FPTN=E_YES_CHAR,      STCLASS="SYMREF READONLY");
      540     9880              %VLP_ERRCODE( FPTN=E_SENDER,        STCLASS="SYMREF READONLY");
      541     9925              %VLP_ERRCODE( FPTN=E_RECEIVERS,     STCLASS="SYMREF READONLY");
      542     9970              %VLP_ERRCODE( FPTN=E_NO_CHAR,       STCLASS="SYMREF READONLY");
      543    10015    1   dcl  VM_NO_OR_YES$(0:1)   ptr symref readonly;
      544    10016
      545    10017        %EJECT;
PL6.E3A0      #003=VMD$DI_PROFILE File=VMD$DISPLAY2.:VMB6TSI                     WED 08/20/97 15:11 Page:102
      546    10018    1       F_FDS.DCB# = DCB#;

  10018 13 000002   200003 470500                    LDP0    @DCB#,,AUTO
        13 000003   000000 720100                    LXL0    0,,PR0
        13 000004   000013 740000 11                 STX0    F_FDS+11

      547    10019    1       SPACE_LINE.DCB# = DCB#;

  10019 13 000005   000000 721100                    LXL1    0,,PR0
        13 000006   000051 741000 11                 STX1    SPACE_LINE+11

      548    10020        /**/
      549    10021    1       CALL VMD$WRITE_BUF (SPACE_LINE);

  10021 13 000007   000001 630400 14                 EPPR0   1
        13 000010   000000 631400 14                 EPPR1   0
        13 000011   000000 701000 xent               TSX1    VMD$WRITE_BUF
        13 000012   000000 011000                    NOP     0

      550    10022        /**/
      551    10023            %INIT_STR( STR=VN_YES_CHAR, CODE=E_YES_CHAR, TEST=YES);

  10030 13 000013   000000 236000 xsym               LDQ     VN_YES_CHAR
        13 000014   000033 772000                    QRL     27
        13 000015   000000 620006                    EAX0    0,QL
        13 000016   040000 106440                    CMPC    fill='040'O
        13 000017   000000 200010 xsym               ADSC9   VN_YES_CHAR              cn=1,n=*X0
        13 000020   000002 000001 14                 ADSC9   2                        cn=0,n=1
        13 000021   000026 601000 13                 TNZ     s:10053

  10032 13 000022   000004 630400 14                 EPPR0   4
        13 000023   000003 631400 14                 EPPR1   3
        13 000024   000000 701000 xent               TSX1    VMD$ERRMSG
        13 000025   000000 011000                    NOP     0

      552    10046            %INIT_STR( STR=VN_NO_CHAR, CODE=E_NO_CHAR, TEST=YES);

PL6.E3A0      #003=VMD$DI_PROFILE File=VMD$DISPLAY2.:VMB6TSI                     WED 08/20/97 15:11 Page:103
  10053 13 000026   000000 236000 xsym               LDQ     VN_NO_CHAR
        13 000027   000033 772000                    QRL     27
        13 000030   000000 620006                    EAX0    0,QL
        13 000031   040000 106440                    CMPC    fill='040'O
        13 000032   000000 200010 xsym               ADSC9   VN_NO_CHAR               cn=1,n=*X0
        13 000033   000002 000001 14                 ADSC9   2                        cn=0,n=1
        13 000034   000041 601000 13                 TNZ     s:10069

  10055 13 000035   000006 630400 14                 EPPR0   6
        13 000036   000003 631400 14                 EPPR1   3
        13 000037   000000 701000 xent               TSX1    VMD$ERRMSG
        13 000040   000000 011000                    NOP     0

      553    10069    1       VECT_ARRAY(0) = vector(VN_YES_CHAR.NAME#);

  10069 13 000041   000000 236000 xsym               LDQ     VN_YES_CHAR
        13 000042   000033 772000                    QRL     27
        13 000043   000064 737000                    LLS     52
        13 000044   000140 135007                    SBLA    96,DL
        13 000045   000010 236000 14                 LDQ     8
        13 000046   000074 757000 11                 STAQ    VECT_ARRAY

      554    10070    1       VECT_ARRAY(2) = vector(VN_YES_CHAR.NAME#);

  10070 13 000047   000000 236000 xsym               LDQ     VN_YES_CHAR
        13 000050   000033 772000                    QRL     27
        13 000051   000064 737000                    LLS     52
        13 000052   000140 135007                    SBLA    96,DL
        13 000053   000010 236000 14                 LDQ     8
        13 000054   000100 757000 11                 STAQ    VECT_ARRAY+4

      555    10071    1       VECT_ARRAY(3) = vector(VN_YES_CHAR.NAME#);

  10071 13 000055   000000 236000 xsym               LDQ     VN_YES_CHAR
        13 000056   000033 772000                    QRL     27
        13 000057   000064 737000                    LLS     52
        13 000060   000140 135007                    SBLA    96,DL
PL6.E3A0      #003=VMD$DI_PROFILE File=VMD$DISPLAY2.:VMB6TSI                     WED 08/20/97 15:11 Page:104
        13 000061   000010 236000 14                 LDQ     8
        13 000062   000102 757000 11                 STAQ    VECT_ARRAY+6

      556    10072    1       vbase(VECT_ARRAY(0))=pincrc(VM_NO_OR_YES$(bitbin(VM_PROFILE.OPT.FCOPY)),1);

  10072 13 000063   000000 470400 xsym               LDP0    VM_PROFILE$
        13 000064   000000 236100                    LDQ     0,,PR0
        13 000065   000007 772000                    QRL     7
        13 000066   000001 376007                    ANQ     1,DL
        13 000067   000000 236006 xsym               LDQ     VM_NO_OR_YES$,QL
        13 000070   200000 036007                    ADLQ    65536,DL
        13 000071   000075 756000 11                 STQ     VECT_ARRAY+1

      557    10073        /**/
      558    10074    1       VECT_ARRAY(1) = VECTOR(VM_PROFILE.GRANULES);

  10074 13 000072   777640 235007                    LDA     -96,DL
        13 000073   000000 236000 xsym               LDQ     VM_PROFILE$
        13 000074   000012 036003                    ADLQ    10,DU
        13 000075   000076 757000 11                 STAQ    VECT_ARRAY+2

      559    10075        /**/
      560    10076    1       vbase(VECT_ARRAY(2))=pincrc(VM_NO_OR_YES$(bitbin(VM_PROFILE.OPT.HEADERS)),1);

  10076 13 000076   000000 236100                    LDQ     0,,PR0
        13 000077   000010 772000                    QRL     8
        13 000100   000001 376007                    ANQ     1,DL
        13 000101   000000 236006 xsym               LDQ     VM_NO_OR_YES$,QL
        13 000102   200000 036007                    ADLQ    65536,DL
        13 000103   000101 756000 11                 STQ     VECT_ARRAY+5

      561    10077
      562    10078    1       vbase(VECT_ARRAY(3))=pincrc(VM_NO_OR_YES$(bitbin(VM_PROFILE.OPT.AUTO_EDIT)),1);

  10078 13 000104   000000 236100                    LDQ     0,,PR0
        13 000105   000003 772000                    QRL     3
        13 000106   000001 376007                    ANQ     1,DL
PL6.E3A0      #003=VMD$DI_PROFILE File=VMD$DISPLAY2.:VMB6TSI                     WED 08/20/97 15:11 Page:105
        13 000107   000000 236006 xsym               LDQ     VM_NO_OR_YES$,QL
        13 000110   200000 036007                    ADLQ    65536,DL
        13 000111   000103 756000 11                 STQ     VECT_ARRAY+7

      563    10079        /**/
      564    10080    1       F_FDS.NVECS# = 4;

  10080 13 000112   000004 235007                    LDA     4,DL
        13 000113   000011 755000 11                 STA     F_FDS+9

      565    10081            %INIT_STR(STR=VM_PROFILE_FLAGS1_FMT,CODE=E_PROFILE_FLAGS1_FMT,TEST=YES,VECT=
             10081                "F_FDS.FMT_");

  10088 13 000114   000000 236000 xsym               LDQ     VM_PROFILE_FLAGS1_FMT
        13 000115   000033 772000                    QRL     27
        13 000116   000000 620006                    EAX0    0,QL
        13 000117   040000 106440                    CMPC    fill='040'O
        13 000120   000000 200010 xsym               ADSC9   VM_PROFILE_FLAGS1_FMT    cn=1,n=*X0
        13 000121   000002 000001 14                 ADSC9   2                        cn=0,n=1
        13 000122   000130 601000 13                 TNZ     s:10093

  10090 13 000123   000012 630400 14                 EPPR0   10
        13 000124   000011 631400 14                 EPPR1   9
        13 000125   000000 701000 xent               TSX1    VMD$ERRMSG
        13 000126   000000 011000                    NOP     0

  10091 13 000127   000135 710000 13                 TRA     s:10104

  10093 13 000130   000000 635010                    EAA     0,X0
        13 000131   000002 771000                    ARL     2
        13 000132   000140 135007                    SBLA    96,DL
        13 000133   000015 236000 14                 LDQ     13
        13 000134   000000 757000 11                 STAQ    F_FDS

      566    10104    1       CALL VMD$WRITE_BUF (F_FDS);

  10104 13 000135   000014 630400 14                 EPPR0   12
PL6.E3A0      #003=VMD$DI_PROFILE File=VMD$DISPLAY2.:VMB6TSI                     WED 08/20/97 15:11 Page:106
        13 000136   000000 631400 14                 EPPR1   0
        13 000137   000000 701000 xent               TSX1    VMD$WRITE_BUF
        13 000140   000000 011000                    NOP     0

      567    10105        /**/
      568    10106    1       VECT_ARRAY(1) = vector(VN_YES_CHAR.NAME#);

  10106 13 000141   000000 236000 xsym               LDQ     VN_YES_CHAR
        13 000142   000033 772000                    QRL     27
        13 000143   000064 737000                    LLS     52
        13 000144   000140 135007                    SBLA    96,DL
        13 000145   000010 236000 14                 LDQ     8
        13 000146   000076 757000 11                 STAQ    VECT_ARRAY+2

      569    10107    1       vbase(VECT_ARRAY(0))=pincrc(VM_NO_OR_YES$(bitbin(VM_PROFILE.OPT.PAGE)),1);

  10107 13 000147   000000 470400 xsym               LDP0    VM_PROFILE$
        13 000150   000000 236100                    LDQ     0,,PR0
        13 000151   000004 772000                    QRL     4
        13 000152   000001 376007                    ANQ     1,DL
        13 000153   000000 236006 xsym               LDQ     VM_NO_OR_YES$,QL
        13 000154   200000 036007                    ADLQ    65536,DL
        13 000155   000075 756000 11                 STQ     VECT_ARRAY+1

      570    10108
      571    10109    1       vbase(VECT_ARRAY(1))=pincrc(VM_NO_OR_YES$(bitbin(VM_PROFILE.OPT.RENUMBER)),1);

  10109 13 000156   000000 236100                    LDQ     0,,PR0
        13 000157   000005 772000                    QRL     5
        13 000160   000001 376007                    ANQ     1,DL
        13 000161   000000 236006 xsym               LDQ     VM_NO_OR_YES$,QL
        13 000162   200000 036007                    ADLQ    65536,DL
        13 000163   000077 756000 11                 STQ     VECT_ARRAY+3

      572    10110
      573    10111    1      vbase(VECT_ARRAY(2))=pincrc(VM_NO_OR_YES$(bitbin(VM_PROFILE.OPT.RETURN_RECEIPT))
             10111                ,1);
PL6.E3A0      #003=VMD$DI_PROFILE File=VMD$DISPLAY2.:VMB6TSI                     WED 08/20/97 15:11 Page:107

  10111 13 000164   000000 236100                    LDQ     0,,PR0
        13 000165   000006 772000                    QRL     6
        13 000166   000001 376007                    ANQ     1,DL
        13 000167   000000 236006 xsym               LDQ     VM_NO_OR_YES$,QL
        13 000170   200000 036007                    ADLQ    65536,DL
        13 000171   000101 756000 11                 STQ     VECT_ARRAY+5

      574    10112
      575    10113    1      vbase(VECT_ARRAY(3))=pincrc(VM_NO_OR_YES$(bitbin(VM_PROFILE.OPT.DELIVERY_RECEIPT
             10113                )),1);

  10113 13 000172   000000 236100                    LDQ     0,,PR0
        13 000173   000001 376007                    ANQ     1,DL
        13 000174   000000 236006 xsym               LDQ     VM_NO_OR_YES$,QL
        13 000175   200000 036007                    ADLQ    65536,DL
        13 000176   000103 756000 11                 STQ     VECT_ARRAY+7

      576    10114        /**/
      577    10115    1       F_FDS.NVECS# = 4;

  10115 13 000177   000004 235007                    LDA     4,DL
        13 000200   000011 755000 11                 STA     F_FDS+9

      578    10116            %INIT_STR(STR=VM_PROFILE_FLAGS2_FMT,CODE=E_PROFILE_FLAGS2_FMT,TEST=YES,VECT=
             10116                "F_FDS.FMT_");

  10123 13 000201   000000 236000 xsym               LDQ     VM_PROFILE_FLAGS2_FMT
        13 000202   000033 772000                    QRL     27
        13 000203   000000 620006                    EAX0    0,QL
        13 000204   040000 106440                    CMPC    fill='040'O
        13 000205   000000 200010 xsym               ADSC9   VM_PROFILE_FLAGS2_FMT    cn=1,n=*X0
        13 000206   000002 000001 14                 ADSC9   2                        cn=0,n=1
        13 000207   000215 601000 13                 TNZ     s:10128

  10125 13 000210   000016 630400 14                 EPPR0   14
        13 000211   000011 631400 14                 EPPR1   9
PL6.E3A0      #003=VMD$DI_PROFILE File=VMD$DISPLAY2.:VMB6TSI                     WED 08/20/97 15:11 Page:108
        13 000212   000000 701000 xent               TSX1    VMD$ERRMSG
        13 000213   000000 011000                    NOP     0

  10126 13 000214   000222 710000 13                 TRA     s:10139

  10128 13 000215   000000 635010                    EAA     0,X0
        13 000216   000002 771000                    ARL     2
        13 000217   000140 135007                    SBLA    96,DL
        13 000220   000021 236000 14                 LDQ     17
        13 000221   000000 757000 11                 STAQ    F_FDS

      579    10139    1       CALL VMD$WRITE_BUF (F_FDS);

  10139 13 000222   000014 630400 14                 EPPR0   12
        13 000223   000000 631400 14                 EPPR1   0
        13 000224   000000 701000 xent               TSX1    VMD$WRITE_BUF
        13 000225   000000 011000                    NOP     0

      580    10140        /**/
      581    10141    1       vbase(VECT_ARRAY(0))=pincrc(VM_NO_OR_YES$(bitbin(VM_PROFILE.OPT.DISPTRACE)),1);

  10141 13 000226   000000 470400 xsym               LDP0    VM_PROFILE$
        13 000227   000000 236100                    LDQ     0,,PR0
        13 000230   000002 772000                    QRL     2
        13 000231   000001 376007                    ANQ     1,DL
        13 000232   000000 236006 xsym               LDQ     VM_NO_OR_YES$,QL
        13 000233   200000 036007                    ADLQ    65536,DL
        13 000234   000075 756000 11                 STQ     VECT_ARRAY+1

      582    10142
      583    10143    1       vbase(VECT_ARRAY(1))=pincrc(VM_NO_OR_YES$(bitbin(VM_PROFILE.OPT.COMBINE)),1);

  10143 13 000235   000000 236100                    LDQ     0,,PR0
        13 000236   000001 772000                    QRL     1
        13 000237   000001 376007                    ANQ     1,DL
        13 000240   000000 236006 xsym               LDQ     VM_NO_OR_YES$,QL
        13 000241   200000 036007                    ADLQ    65536,DL
PL6.E3A0      #003=VMD$DI_PROFILE File=VMD$DISPLAY2.:VMB6TSI                     WED 08/20/97 15:11 Page:109
        13 000242   000077 756000 11                 STQ     VECT_ARRAY+3

      584    10144    1       IF VM_PROFILE.OPT.ANS_RECEIVERS

  10144 13 000243   000001 234100                    SZN     1,,PR0
        13 000244   000267 605000 13                 TPL     s:10180

      585    10145    2       THEN DO;

      586    10146                %INIT_STR(STR=VM_RECEIVERS,CODE=E_RECEIVERS,TEST=YES,
      587    10147                VECT="VECT_ARRAY(2)");

  10154 13 000245   000000 236000 xsym               LDQ     VM_RECEIVERS
        13 000246   000033 772000                    QRL     27
        13 000247   000000 620006                    EAX0    0,QL
        13 000250   040000 106440                    CMPC    fill='040'O
        13 000251   000000 200010 xsym               ADSC9   VM_RECEIVERS             cn=1,n=*X0
        13 000252   000002 000001 14                 ADSC9   2                        cn=0,n=1
        13 000253   000261 601000 13                 TNZ     s:10159

  10156 13 000254   000022 630400 14                 EPPR0   18
        13 000255   000011 631400 14                 EPPR1   9
        13 000256   000000 701000 xent               TSX1    VMD$ERRMSG
        13 000257   000000 011000                    NOP     0

  10157 13 000260   000310 710000 13                 TRA     s:10197

  10159 13 000261   000000 635010                    EAA     0,X0
        13 000262   000002 771000                    ARL     2
        13 000263   000140 135007                    SBLA    96,DL
        13 000264   000025 236000 14                 LDQ     21
        13 000265   000100 757000 11                 STAQ    VECT_ARRAY+4

      588    10170    2       END;

  10170 13 000266   000310 710000 13                 TRA     s:10197

PL6.E3A0      #003=VMD$DI_PROFILE File=VMD$DISPLAY2.:VMB6TSI                     WED 08/20/97 15:11 Page:110
      589    10171    2       ELSE DO;

      590    10172                %INIT_STR(STR=VM_SENDER,CODE=E_SENDER,TEST=YES,
      591    10173                VECT="VECT_ARRAY(2)");

  10180 13 000267   000000 236000 xsym               LDQ     VM_SENDER
        13 000270   000033 772000                    QRL     27
        13 000271   000000 620006                    EAX0    0,QL
        13 000272   040000 106440                    CMPC    fill='040'O
        13 000273   000000 200010 xsym               ADSC9   VM_SENDER                cn=1,n=*X0
        13 000274   000002 000001 14                 ADSC9   2                        cn=0,n=1
        13 000275   000303 601000 13                 TNZ     s:10185

  10182 13 000276   000026 630400 14                 EPPR0   22
        13 000277   000011 631400 14                 EPPR1   9
        13 000300   000000 701000 xent               TSX1    VMD$ERRMSG
        13 000301   000000 011000                    NOP     0

  10183 13 000302   000310 710000 13                 TRA     s:10197

  10185 13 000303   000000 635010                    EAA     0,X0
        13 000304   000002 771000                    ARL     2
        13 000305   000140 135007                    SBLA    96,DL
        13 000306   000031 236000 14                 LDQ     25
        13 000307   000100 757000 11                 STAQ    VECT_ARRAY+4

      592    10196    2       END;

      593    10197    1      vbase(VECT_ARRAY(3))=pincrc(VM_NO_OR_YES$(bitbin(VM_PROFILE.OPT.PREPROCESS)),1);

  10197 13 000310   000000 470400 xsym               LDP0    VM_PROFILE$
        13 000311   000001 236100                    LDQ     1,,PR0
        13 000312   000042 772000                    QRL     34
        13 000313   000001 376007                    ANQ     1,DL
        13 000314   000000 236006 xsym               LDQ     VM_NO_OR_YES$,QL
        13 000315   200000 036007                    ADLQ    65536,DL
        13 000316   000103 756000 11                 STQ     VECT_ARRAY+7
PL6.E3A0      #003=VMD$DI_PROFILE File=VMD$DISPLAY2.:VMB6TSI                     WED 08/20/97 15:11 Page:111

      594    10198        /**/
      595    10199    1       F_FDS.NVECS# = 4;

  10199 13 000317   000004 235007                    LDA     4,DL
        13 000320   000011 755000 11                 STA     F_FDS+9

      596    10200            %INIT_STR(STR=VM_PROFILE_FLAGS3_FMT,CODE=E_PROFILE_FLAGS3_FMT,TEST=YES,VECT=
             10200                "F_FDS.FMT_");

  10207 13 000321   000000 236000 xsym               LDQ     VM_PROFILE_FLAGS3_FMT
        13 000322   000033 772000                    QRL     27
        13 000323   000000 620006                    EAX0    0,QL
        13 000324   040000 106440                    CMPC    fill='040'O
        13 000325   000000 200010 xsym               ADSC9   VM_PROFILE_FLAGS3_FMT    cn=1,n=*X0
        13 000326   000002 000001 14                 ADSC9   2                        cn=0,n=1
        13 000327   000335 601000 13                 TNZ     s:10212

  10209 13 000330   000032 630400 14                 EPPR0   26
        13 000331   000011 631400 14                 EPPR1   9
        13 000332   000000 701000 xent               TSX1    VMD$ERRMSG
        13 000333   000000 011000                    NOP     0

  10210 13 000334   000342 710000 13                 TRA     s:10223

  10212 13 000335   000000 635010                    EAA     0,X0
        13 000336   000002 771000                    ARL     2
        13 000337   000140 135007                    SBLA    96,DL
        13 000340   000035 236000 14                 LDQ     29
        13 000341   000000 757000 11                 STAQ    F_FDS

      597    10223    1       CALL VMD$WRITE_BUF (F_FDS);

  10223 13 000342   000014 630400 14                 EPPR0   12
        13 000343   000000 631400 14                 EPPR1   0
        13 000344   000000 701000 xent               TSX1    VMD$WRITE_BUF
        13 000345   000000 011000                    NOP     0
PL6.E3A0      #003=VMD$DI_PROFILE File=VMD$DISPLAY2.:VMB6TSI                     WED 08/20/97 15:11 Page:112

      598    10224        /**/
      599    10225    1      vbase(VECT_ARRAY(0))=pincrc(VM_NO_OR_YES$(bitbin(VM_PROFILE.OPT.EXT_ADDR_DISP)),
             10225                1);

  10225 13 000346   000000 470400 xsym               LDP0    VM_PROFILE$
        13 000347   000001 236100                    LDQ     1,,PR0
        13 000350   000041 772000                    QRL     33
        13 000351   000001 376007                    ANQ     1,DL
        13 000352   000000 236006 xsym               LDQ     VM_NO_OR_YES$,QL
        13 000353   200000 036007                    ADLQ    65536,DL
        13 000354   000075 756000 11                 STQ     VECT_ARRAY+1

      600    10226    1      vbase(VECT_ARRAY(1))=pincrc(VM_NO_OR_YES$(bitbin(VM_PROFILE.OPT.DEL_ON_DETACH)),
             10226                1);

  10226 13 000355   000001 236100                    LDQ     1,,PR0
        13 000356   000040 772000                    QRL     32
        13 000357   000001 376007                    ANQ     1,DL
        13 000360   000000 236006 xsym               LDQ     VM_NO_OR_YES$,QL
        13 000361   200000 036007                    ADLQ    65536,DL
        13 000362   000077 756000 11                 STQ     VECT_ARRAY+3

      601    10227    1       F_FDS.NVECS# = 2;

  10227 13 000363   000002 235007                    LDA     2,DL
        13 000364   000011 755000 11                 STA     F_FDS+9

      602    10228            %INIT_STR(STR=VM_PROFILE_FLAGS4_FMT,CODE=E_PROFILE_FLAGS4_FMT,TEST=YES,VECT=
             10228                "F_FDS.FMT_");

  10235 13 000365   000000 236000 xsym               LDQ     VM_PROFILE_FLAGS4_FMT
        13 000366   000033 772000                    QRL     27
        13 000367   000000 620006                    EAX0    0,QL
        13 000370   040000 106440                    CMPC    fill='040'O
        13 000371   000000 200010 xsym               ADSC9   VM_PROFILE_FLAGS4_FMT    cn=1,n=*X0
        13 000372   000002 000001 14                 ADSC9   2                        cn=0,n=1
PL6.E3A0      #003=VMD$DI_PROFILE File=VMD$DISPLAY2.:VMB6TSI                     WED 08/20/97 15:11 Page:113
        13 000373   000401 601000 13                 TNZ     s:10240

  10237 13 000374   000036 630400 14                 EPPR0   30
        13 000375   000011 631400 14                 EPPR1   9
        13 000376   000000 701000 xent               TSX1    VMD$ERRMSG
        13 000377   000000 011000                    NOP     0

  10238 13 000400   000406 710000 13                 TRA     s:10251

  10240 13 000401   000000 635010                    EAA     0,X0
        13 000402   000002 771000                    ARL     2
        13 000403   000140 135007                    SBLA    96,DL
        13 000404   000041 236000 14                 LDQ     33
        13 000405   000000 757000 11                 STAQ    F_FDS

      603    10251    1       CALL VMD$WRITE_BUF (F_FDS);

  10251 13 000406   000014 630400 14                 EPPR0   12
        13 000407   000000 631400 14                 EPPR1   0
        13 000410   000000 701000 xent               TSX1    VMD$WRITE_BUF
        13 000411   000000 011000                    NOP     0

      604    10252        /*
      605    10253             ***** Display the file folder ...
      606    10254        */
      607    10255    1       IF VM_PROFILE.FILE_FOLDER$ ~= ADDR(NIL)

  10255 13 000412   000000 470400 xsym               LDP0    VM_PROFILE$
        13 000413   000114 236100                    LDQ     76,,PR0
        13 000414   000042 116000 14                 CMPQ    34
        13 000415   000467 600000 13                 TZE     s:10290

      608    10256    1       THEN
      609    10257    2       DO;

      610    10258    2           ADDRESS_TEXT.L# = LENGTHC(ADDRESS_TEXT.NAME#);

PL6.E3A0      #003=VMD$DI_PROFILE File=VMD$DISPLAY2.:VMB6TSI                     WED 08/20/97 15:11 Page:114
  10258 13 000416   400000 236003                    LDQ     -131072,DU
        13 000417   200007 552140                    STBQ    ADDRESS_TEXT,'40'O,AUTO

      611    10259    2          CALL VMF$MAKE_ADDRESS2 (ADDRESS_TEXT,VM_PROFILE.FILE_FOLDER$ -> VM$RADDRESS)
             10259                    ;

  10259 13 000420   000114 471500                    LDP1    76,,PR0
        13 000421   200311 451500                    STP1    NAME_ARRAY+129,,AUTO
        13 000422   200007 633500                    EPPR3   ADDRESS_TEXT,,AUTO
        13 000423   200310 453500                    STP3    NAME_ARRAY+128,,AUTO
        13 000424   200310 630500                    EPPR0   NAME_ARRAY+128,,AUTO
        13 000425   000003 631400 14                 EPPR1   3
        13 000426   000000 701000 xent               TSX1    VMF$MAKE_ADDRESS2
        13 000427   000000 011000                    NOP     0

      612    10260    2           VECT_ARRAY(0) = VECTOR(SUBSTR(ADDRESS_TEXT.NAME#,0,ADDRESS_TEXT.L#));

  10260 13 000430   200007 236100                    LDQ     ADDRESS_TEXT,,AUTO
        13 000431   000033 772000                    QRL     27
        13 000432   000064 737000                    LLS     52
        13 000433   000140 135007                    SBLA    96,DL
        13 000434   200310 452500                    STP2    NAME_ARRAY+128,,AUTO
        13 000435   200310 236100                    LDQ     NAME_ARRAY+128,,AUTO
        13 000436   000043 036000 14                 ADLQ    35
        13 000437   000074 757000 11                 STAQ    VECT_ARRAY

      613    10261    2           F_FDS.NVECS# = 1;

  10261 13 000440   000001 235007                    LDA     1,DL
        13 000441   000011 755000 11                 STA     F_FDS+9

      614    10262                %INIT_STR(STR=VM_PROFILE_FFOLDER_FMT,CODE=E_PROFILE_FFOLDER_FMT,TEST=YES,
             10262                    VECT="F_FDS.FMT_");

  10269 13 000442   000000 236000 xsym               LDQ     VM_PROFILE_FFOLDER_FMT
        13 000443   000033 772000                    QRL     27
        13 000444   000000 620006                    EAX0    0,QL
PL6.E3A0      #003=VMD$DI_PROFILE File=VMD$DISPLAY2.:VMB6TSI                     WED 08/20/97 15:11 Page:115
        13 000445   040000 106440                    CMPC    fill='040'O
        13 000446   000000 200010 xsym               ADSC9   VM_PROFILE_FFOLDER_FMT   cn=1,n=*X0
        13 000447   000002 000001 14                 ADSC9   2                        cn=0,n=1
        13 000450   000456 601000 13                 TNZ     s:10274

  10271 13 000451   000044 630400 14                 EPPR0   36
        13 000452   000011 631400 14                 EPPR1   9
        13 000453   000000 701000 xent               TSX1    VMD$ERRMSG
        13 000454   000000 011000                    NOP     0

  10272 13 000455   000463 710000 13                 TRA     s:10285

  10274 13 000456   000000 635010                    EAA     0,X0
        13 000457   000002 771000                    ARL     2
        13 000460   000140 135007                    SBLA    96,DL
        13 000461   000047 236000 14                 LDQ     39
        13 000462   000000 757000 11                 STAQ    F_FDS

      615    10285    2           CALL VMD$WRITE_BUF (F_FDS);

  10285 13 000463   000014 630400 14                 EPPR0   12
        13 000464   000000 631400 14                 EPPR1   0
        13 000465   000000 701000 xent               TSX1    VMD$WRITE_BUF
        13 000466   000000 011000                    NOP     0

      616    10286    2       END;

      617    10287        /*
      618    10288             ***** Display the search list ...
      619    10289        */
      620    10290    1       J=0;

  10290 13 000467   200005 450100                    STZ     J,,AUTO

      621    10291    2       DO I=0 TO %VM_MAX_SRCH-1;

  10291 13 000470   200004 450100                    STZ     I,,AUTO
PL6.E3A0      #003=VMD$DI_PROFILE File=VMD$DISPLAY2.:VMB6TSI                     WED 08/20/97 15:11 Page:116
        13 000471   000540 710000 13                 TRA     s:10299+1

      622    10292    2           IF VM_PROFILE.SEARCH_LIST$(I) ~= ADDR(NIL)

  10292 13 000472   000000 470400 xsym               LDP0    VM_PROFILE$
        13 000473   200004 720100                    LXL0    I,,AUTO
        13 000474   000115 236110                    LDQ     77,X0,PR0
        13 000475   000042 116000 14                 CMPQ    34
        13 000476   000537 600000 13                 TZE     s:10299

      623    10293    3           THEN DO;

      624    10294    3               NAME_ARRAY.L#(J) = LENGTHC(NAME_ARRAY.NAME#(0));

  10294 13 000477   200005 235100                    LDA     J,,AUTO
        13 000500   000005 735000                    ALS     5
        13 000501   200110 236105                    LDQ     NAME_ARRAY,AL,AUTO
        13 000502   000050 376000 14                 ANQ     40
        13 000503   177000 276003                    ORQ     65024,DU
        13 000504   200110 756105                    STQ     NAME_ARRAY,AL,AUTO

      625    10295    3               CALL VMF$MAKE_ADDRESS2 (NAME_ARRAY(J),VM_PROFILE.SEARCH_LIST$(I) ->
             10295                        VM$RADDRESS);

  10295 13 000505   000115 471510                    LDP1    77,X0,PR0
        13 000506   200311 451500                    STP1    NAME_ARRAY+129,,AUTO
        13 000507   200005 235100                    LDA     J,,AUTO
        13 000510   000005 735000                    ALS     5
        13 000511   200110 633505                    EPPR3   NAME_ARRAY,AL,AUTO
        13 000512   200310 453500                    STP3    NAME_ARRAY+128,,AUTO
        13 000513   200310 630500                    EPPR0   NAME_ARRAY+128,,AUTO
        13 000514   000003 631400 14                 EPPR1   3
        13 000515   000000 701000 xent               TSX1    VMF$MAKE_ADDRESS2
        13 000516   000000 011000                    NOP     0

      626    10296    3              VECT_ARRAY(J+1) = VECTOR(SUBSTR(NAME_ARRAY.NAME#(J),0,NAME_ARRAY.L#(J)))
             10296                        ;
PL6.E3A0      #003=VMD$DI_PROFILE File=VMD$DISPLAY2.:VMB6TSI                     WED 08/20/97 15:11 Page:117

  10296 13 000517   200005 235100                    LDA     J,,AUTO
        13 000520   000001 735000                    ALS     1
        13 000521   200005 236100                    LDQ     J,,AUTO
        13 000522   000005 736000                    QLS     5
        13 000523   200110 236106                    LDQ     NAME_ARRAY,QL,AUTO
        13 000524   000033 772000                    QRL     27
        13 000525   000000 620005                    EAX0    0,AL
        13 000526   000064 737000                    LLS     52
        13 000527   000140 135007                    SBLA    96,DL
        13 000530   200310 452500                    STP2    NAME_ARRAY+128,,AUTO
        13 000531   200005 236100                    LDQ     J,,AUTO
        13 000532   000027 736000                    QLS     23
        13 000533   000051 036000 14                 ADLQ    41
        13 000534   200310 036100                    ADLQ    NAME_ARRAY+128,,AUTO
        13 000535   000076 757010 11                 STAQ    VECT_ARRAY+2,X0

      627    10297    3               J=J+1;

  10297 13 000536   200005 054100                    AOS     J,,AUTO

      628    10298    3           END;

      629    10299    2       END;

  10299 13 000537   200004 054100                    AOS     I,,AUTO
        13 000540   200004 235100                    LDA     I,,AUTO
        13 000541   000003 115007                    CMPA    3,DL
        13 000542   000472 604400 13                 TMOZ    s:10292

      630    10300    1       IF J > 0

  10300 13 000543   200005 236100                    LDQ     J,,AUTO
        13 000544   000603 604400 13                 TMOZ    s:10333

      631    10301    2       THEN DO;

PL6.E3A0      #003=VMD$DI_PROFILE File=VMD$DISPLAY2.:VMB6TSI                     WED 08/20/97 15:11 Page:118
      632    10302    2           F_FDS.NVECS# = J+1;

  10302 13 000545   000001 036007                    ADLQ    1,DL
        13 000546   000011 756000 11                 STQ     F_FDS+9

      633    10303    2           VECT_ARRAY(0) = VECTOR(J);

  10303 13 000547   777640 235007                    LDA     -96,DL
        13 000550   200310 452500                    STP2    NAME_ARRAY+128,,AUTO
        13 000551   200310 236100                    LDQ     NAME_ARRAY+128,,AUTO
        13 000552   000005 036003                    ADLQ    5,DU
        13 000553   000074 757000 11                 STAQ    VECT_ARRAY

      634    10304    2           J=J-1;

  10304 13 000554   000001 336007                    LCQ     1,DL
        13 000555   200005 056100                    ASQ     J,,AUTO

      635    10305                %INIT_STR(STR=VM_PROFILE_SRCH_FMT,CODE=E_PROFILE_SRCH_FMT,TEST=YES,VECT=
             10305                    "F_FDS.FMT_");

  10312 13 000556   000000 236000 xsym               LDQ     VM_PROFILE_SRCH_FMT
        13 000557   000033 772000                    QRL     27
        13 000560   000000 620006                    EAX0    0,QL
        13 000561   040000 106440                    CMPC    fill='040'O
        13 000562   000000 200010 xsym               ADSC9   VM_PROFILE_SRCH_FMT      cn=1,n=*X0
        13 000563   000002 000001 14                 ADSC9   2                        cn=0,n=1
        13 000564   000572 601000 13                 TNZ     s:10317

  10314 13 000565   000052 630400 14                 EPPR0   42
        13 000566   000011 631400 14                 EPPR1   9
        13 000567   000000 701000 xent               TSX1    VMD$ERRMSG
        13 000570   000000 011000                    NOP     0

  10315 13 000571   000577 710000 13                 TRA     s:10328

  10317 13 000572   000000 635010                    EAA     0,X0
PL6.E3A0      #003=VMD$DI_PROFILE File=VMD$DISPLAY2.:VMB6TSI                     WED 08/20/97 15:11 Page:119
        13 000573   000002 771000                    ARL     2
        13 000574   000140 135007                    SBLA    96,DL
        13 000575   000055 236000 14                 LDQ     45
        13 000576   000000 757000 11                 STAQ    F_FDS

      636    10328    2           CALL VMD$WRITE_BUF (F_FDS);

  10328 13 000577   000014 630400 14                 EPPR0   12
        13 000600   000000 631400 14                 EPPR1   0
        13 000601   000000 701000 xent               TSX1    VMD$WRITE_BUF
        13 000602   000000 011000                    NOP     0

      637    10329    2       END;

      638    10330        /*
      639    10331             ***** Display the setup command ...
      640    10332        */
      641    10333    1       IF VM_PROFILE.SETUP.COUNT ~= 0

  10333 13 000603   000000 470400 xsym               LDP0    VM_PROFILE$
        13 000604   000013 236100                    LDQ     11,,PR0
        13 000605   777000 316003                    CANQ    -512,DU
        13 000606   000645 600000 13                 TZE     s:10366

      642    10334    1       THEN
      643    10335    2       DO;

      644    10336    2          VECT_ARRAY(0) = VECTOR(SUBSTR(VM_PROFILE.SETUP.TEXT,0,VM_PROFILE.SETUP.COUNT
             10336                    ));

  10336 13 000607   000013 236100                    LDQ     11,,PR0
        13 000610   000033 772000                    QRL     27
        13 000611   000064 737000                    LLS     52
        13 000612   000140 135007                    SBLA    96,DL
        13 000613   000000 236000 xsym               LDQ     VM_PROFILE$
        13 000614   000056 036000 14                 ADLQ    46
        13 000615   000074 757000 11                 STAQ    VECT_ARRAY
PL6.E3A0      #003=VMD$DI_PROFILE File=VMD$DISPLAY2.:VMB6TSI                     WED 08/20/97 15:11 Page:120

      645    10337    2           F_FDS.NVECS# = 1;

  10337 13 000616   000001 235007                    LDA     1,DL
        13 000617   000011 755000 11                 STA     F_FDS+9

      646    10338                %INIT_STR(STR=VM_PROFILE_SETUP_FMT,CODE=E_PROFILE_SETUP_FMT,TEST=YES,VECT=
             10338                    "F_FDS.FMT_");

  10345 13 000620   000000 236000 xsym               LDQ     VM_PROFILE_SETUP_FMT
        13 000621   000033 772000                    QRL     27
        13 000622   000000 620006                    EAX0    0,QL
        13 000623   040000 106440                    CMPC    fill='040'O
        13 000624   000000 200010 xsym               ADSC9   VM_PROFILE_SETUP_FMT     cn=1,n=*X0
        13 000625   000002 000001 14                 ADSC9   2                        cn=0,n=1
        13 000626   000634 601000 13                 TNZ     s:10350

  10347 13 000627   000057 630400 14                 EPPR0   47
        13 000630   000011 631400 14                 EPPR1   9
        13 000631   000000 701000 xent               TSX1    VMD$ERRMSG
        13 000632   000000 011000                    NOP     0

  10348 13 000633   000641 710000 13                 TRA     s:10361

  10350 13 000634   000000 635010                    EAA     0,X0
        13 000635   000002 771000                    ARL     2
        13 000636   000140 135007                    SBLA    96,DL
        13 000637   000062 236000 14                 LDQ     50
        13 000640   000000 757000 11                 STAQ    F_FDS

      647    10361    2           CALL VMD$WRITE_BUF (F_FDS);

  10361 13 000641   000014 630400 14                 EPPR0   12
        13 000642   000000 631400 14                 EPPR1   0
        13 000643   000000 701000 xent               TSX1    VMD$WRITE_BUF
        13 000644   000000 011000                    NOP     0

PL6.E3A0      #003=VMD$DI_PROFILE File=VMD$DISPLAY2.:VMB6TSI                     WED 08/20/97 15:11 Page:121
      648    10362    2       END;

      649    10363        /*
      650    10364             ***** Display the signed field ...
      651    10365        */
      652    10366    1       IF VM_PROFILE.SIGNED$ ~= ADDR(NIL)

  10366 13 000645   000000 470400 xsym               LDP0    VM_PROFILE$
        13 000646   000126 236100                    LDQ     86,,PR0
        13 000647   000042 116000 14                 CMPQ    34
        13 000650   000714 600000 13                 TZE     s:10399

      653    10367    1       THEN
      654    10368    2       DO;

      655    10369    2           VECT_ARRAY(0) = VECTOR(VM_PROFILE.SIGNED$->X$STRING.TEXT);

  10369 13 000651   000126 471500                    LDP1    86,,PR0
        13 000652   000100 101500                    MRL     fill='000'O
        13 000653   100000 000001                    ADSC9   0,,PR1                   cn=0,n=1
        13 000654   200310 000002                    ADSC9   NAME_ARRAY+128,,AUTO     cn=0,n=2
        13 000655   200310 220100                    LDX0    NAME_ARRAY+128,,AUTO
        13 000656   000000 635010                    EAA     0,X0
        13 000657   000002 771000                    ARL     2
        13 000660   000140 135007                    SBLA    96,DL
        13 000661   200311 451500                    STP1    NAME_ARRAY+129,,AUTO
        13 000662   200311 236100                    LDQ     NAME_ARRAY+129,,AUTO
        13 000663   200000 036007                    ADLQ    65536,DL
        13 000664   000074 757000 11                 STAQ    VECT_ARRAY

      656    10370    2           F_FDS.NVECS# = 1;

  10370 13 000665   000001 235007                    LDA     1,DL
        13 000666   000011 755000 11                 STA     F_FDS+9

      657    10371               %INIT_STR(STR=VM_PROFILE_SIGNED_FMT,CODE=E_PROFILE_SIGNED_FMT,TEST=YES,VECT=
             10371                    "F_FDS.FMT_");
PL6.E3A0      #003=VMD$DI_PROFILE File=VMD$DISPLAY2.:VMB6TSI                     WED 08/20/97 15:11 Page:122

  10378 13 000667   000000 236000 xsym               LDQ     VM_PROFILE_SIGNED_FMT
        13 000670   000033 772000                    QRL     27
        13 000671   000000 620006                    EAX0    0,QL
        13 000672   040000 106440                    CMPC    fill='040'O
        13 000673   000000 200010 xsym               ADSC9   VM_PROFILE_SIGNED_FMT    cn=1,n=*X0
        13 000674   000002 000001 14                 ADSC9   2                        cn=0,n=1
        13 000675   000703 601000 13                 TNZ     s:10383

  10380 13 000676   000063 630400 14                 EPPR0   51
        13 000677   000011 631400 14                 EPPR1   9
        13 000700   000000 701000 xent               TSX1    VMD$ERRMSG
        13 000701   000000 011000                    NOP     0

  10381 13 000702   000710 710000 13                 TRA     s:10394

  10383 13 000703   000000 635010                    EAA     0,X0
        13 000704   000002 771000                    ARL     2
        13 000705   000140 135007                    SBLA    96,DL
        13 000706   000066 236000 14                 LDQ     54
        13 000707   000000 757000 11                 STAQ    F_FDS

      658    10394    2           CALL VMD$WRITE_BUF (F_FDS);

  10394 13 000710   000014 630400 14                 EPPR0   12
        13 000711   000000 631400 14                 EPPR1   0
        13 000712   000000 701000 xent               TSX1    VMD$WRITE_BUF
        13 000713   000000 011000                    NOP     0

      659    10395    2       END;

      660    10396        /*
      661    10397             ***** Display the editor field ...
      662    10398        */
      663    10399    1       TMP$ = VM_PROFILE.EDITOR$;

  10399 13 000714   000000 470400 xsym               LDP0    VM_PROFILE$
PL6.E3A0      #003=VMD$DI_PROFILE File=VMD$DISPLAY2.:VMB6TSI                     WED 08/20/97 15:11 Page:123
        13 000715   000137 236100                    LDQ     95,,PR0
        13 000716   200006 756100                    STQ     TMP$,,AUTO

      664    10400    1       IF TMP$ ~= ADDR(NIL) AND TMPR$.SEGID = %DS3SID

  10400 13 000717   000042 116000 14                 CMPQ    34
        13 000720   000770 600000 13                 TZE     s:10430
        13 000721   200006 236100                    LDQ     TMP$,,AUTO
        13 000722   007777 376007                    ANQ     4095,DL
        13 000723   006006 116007                    CMPQ    3078,DL
        13 000724   000770 601000 13                 TNZ     s:10430

      665    10401    1       THEN
      666    10402    2       DO;

      667    10403    2           VECT_ARRAY(0) = VECTOR(VM_PROFILE.EDITOR$->X$STRING.TEXT);

  10403 13 000725   000137 471500                    LDP1    95,,PR0
        13 000726   000100 101500                    MRL     fill='000'O
        13 000727   100000 000001                    ADSC9   0,,PR1                   cn=0,n=1
        13 000730   200310 000002                    ADSC9   NAME_ARRAY+128,,AUTO     cn=0,n=2
        13 000731   200310 220100                    LDX0    NAME_ARRAY+128,,AUTO
        13 000732   000000 635010                    EAA     0,X0
        13 000733   000002 771000                    ARL     2
        13 000734   000140 135007                    SBLA    96,DL
        13 000735   200311 451500                    STP1    NAME_ARRAY+129,,AUTO
        13 000736   200311 236100                    LDQ     NAME_ARRAY+129,,AUTO
        13 000737   200000 036007                    ADLQ    65536,DL
        13 000740   000074 757000 11                 STAQ    VECT_ARRAY

      668    10404    2           F_FDS.NVECS# = 1;

  10404 13 000741   000001 235007                    LDA     1,DL
        13 000742   000011 755000 11                 STA     F_FDS+9

      669    10405               %INIT_STR(STR=VM_PROFILE_EDITOR_FMT,CODE=E_PROFILE_EDITOR_FMT,TEST=YES,VECT=
             10405                    "F_FDS.FMT_");
PL6.E3A0      #003=VMD$DI_PROFILE File=VMD$DISPLAY2.:VMB6TSI                     WED 08/20/97 15:11 Page:124

  10412 13 000743   000000 236000 xsym               LDQ     VM_PROFILE_EDITOR_FMT
        13 000744   000033 772000                    QRL     27
        13 000745   000000 620006                    EAX0    0,QL
        13 000746   040000 106440                    CMPC    fill='040'O
        13 000747   000000 200010 xsym               ADSC9   VM_PROFILE_EDITOR_FMT    cn=1,n=*X0
        13 000750   000002 000001 14                 ADSC9   2                        cn=0,n=1
        13 000751   000757 601000 13                 TNZ     s:10417

  10414 13 000752   000067 630400 14                 EPPR0   55
        13 000753   000011 631400 14                 EPPR1   9
        13 000754   000000 701000 xent               TSX1    VMD$ERRMSG
        13 000755   000000 011000                    NOP     0

  10415 13 000756   000764 710000 13                 TRA     s:10428

  10417 13 000757   000000 635010                    EAA     0,X0
        13 000760   000002 771000                    ARL     2
        13 000761   000140 135007                    SBLA    96,DL
        13 000762   000072 236000 14                 LDQ     58
        13 000763   000000 757000 11                 STAQ    F_FDS

      670    10428    2           CALL VMD$WRITE_BUF (F_FDS);

  10428 13 000764   000014 630400 14                 EPPR0   12
        13 000765   000000 631400 14                 EPPR1   0
        13 000766   000000 701000 xent               TSX1    VMD$WRITE_BUF
        13 000767   000000 011000                    NOP     0

      671    10429    2       END;

      672    10430    1       TMP$ = VM_PROFILE.REPLY_TO$;

  10430 13 000770   000000 470400 xsym               LDP0    VM_PROFILE$
        13 000771   000140 236100                    LDQ     96,,PR0
        13 000772   200006 756100                    STQ     TMP$,,AUTO

PL6.E3A0      #003=VMD$DI_PROFILE File=VMD$DISPLAY2.:VMB6TSI                     WED 08/20/97 15:11 Page:125
      673    10431    1       IF TMP$ ~= ADDR(NIL) AND TMPR$.SEGID = %DS3SID

  10431 13 000773   000042 116000 14                 CMPQ    34
        13 000774   001044 600000 13                 TZE     s:10461
        13 000775   200006 236100                    LDQ     TMP$,,AUTO
        13 000776   007777 376007                    ANQ     4095,DL
        13 000777   006006 116007                    CMPQ    3078,DL
        13 001000   001044 601000 13                 TNZ     s:10461

      674    10432    1       THEN
      675    10433    2       DO;

      676    10434    2           VECT_ARRAY(0) = VECTOR(VM_PROFILE.REPLY_TO$->X$STRING.TEXT);

  10434 13 001001   000140 471500                    LDP1    96,,PR0
        13 001002   000100 101500                    MRL     fill='000'O
        13 001003   100000 000001                    ADSC9   0,,PR1                   cn=0,n=1
        13 001004   200310 000002                    ADSC9   NAME_ARRAY+128,,AUTO     cn=0,n=2
        13 001005   200310 220100                    LDX0    NAME_ARRAY+128,,AUTO
        13 001006   000000 635010                    EAA     0,X0
        13 001007   000002 771000                    ARL     2
        13 001010   000140 135007                    SBLA    96,DL
        13 001011   200311 451500                    STP1    NAME_ARRAY+129,,AUTO
        13 001012   200311 236100                    LDQ     NAME_ARRAY+129,,AUTO
        13 001013   200000 036007                    ADLQ    65536,DL
        13 001014   000074 757000 11                 STAQ    VECT_ARRAY

      677    10435    2           F_FDS.NVECS# = 1;

  10435 13 001015   000001 235007                    LDA     1,DL
        13 001016   000011 755000 11                 STA     F_FDS+9

      678    10436                %INIT_STR(STR=VM_PROFILE_REPLY_FMT,CODE=E_PROFILE_REPLY_FMT,TEST=YES,VECT=
             10436                    "F_FDS.FMT_");

  10443 13 001017   000000 236000 xsym               LDQ     VM_PROFILE_REPLY_FMT
        13 001020   000033 772000                    QRL     27
PL6.E3A0      #003=VMD$DI_PROFILE File=VMD$DISPLAY2.:VMB6TSI                     WED 08/20/97 15:11 Page:126
        13 001021   000000 620006                    EAX0    0,QL
        13 001022   040000 106440                    CMPC    fill='040'O
        13 001023   000000 200010 xsym               ADSC9   VM_PROFILE_REPLY_FMT     cn=1,n=*X0
        13 001024   000002 000001 14                 ADSC9   2                        cn=0,n=1
        13 001025   001033 601000 13                 TNZ     s:10448

  10445 13 001026   000073 630400 14                 EPPR0   59
        13 001027   000011 631400 14                 EPPR1   9
        13 001030   000000 701000 xent               TSX1    VMD$ERRMSG
        13 001031   000000 011000                    NOP     0

  10446 13 001032   001040 710000 13                 TRA     s:10459

  10448 13 001033   000000 635010                    EAA     0,X0
        13 001034   000002 771000                    ARL     2
        13 001035   000140 135007                    SBLA    96,DL
        13 001036   000076 236000 14                 LDQ     62
        13 001037   000000 757000 11                 STAQ    F_FDS

      679    10459    2           CALL VMD$WRITE_BUF (F_FDS);

  10459 13 001040   000014 630400 14                 EPPR0   12
        13 001041   000000 631400 14                 EPPR1   0
        13 001042   000000 701000 xent               TSX1    VMD$WRITE_BUF
        13 001043   000000 011000                    NOP     0

      680    10460    2       END;

      681    10461    1   END VMD$DI_PROFILE;

  10461 13 001044   000000 702200 xent               TSX2  ! X66_ARET

F_FDS
 Sect OctLoc
  11     000   000000 177640   000000 006014   000000 000000   000000 000000    ................
  11     004   000000 000000   000000 177640   000000 006014   000000 000001    ................
  11     010   000000 000000   000000 000000   000074 006000   000000 101500    .........<....A.
PL6.E3A0      #003=VMD$DI_PROFILE File=VMD$DISPLAY2.:VMB6TSI                     WED 08/20/97 15:11 Page:127
  11     014   000000 000000   000000 000000   000000 000001   000000 000012    ................
  11     020   000000 000000   ****** ******   ****** ******   000000 000000    ................
  11     024   000000 000000   000000 000000   000000 000000   000000 006014    ................
  11     030   000000 006014   000000 006014   000000 006014   000000 000000    ................
  11     034   000000 000000   000000 000000                                    ........

SPACE_LINE
 Sect OctLoc
  11     036   000000 577640   000000 006000   000000 000000   000000 000000    ................
  11     042   000000 000000   000000 177640   000000 006014   000000 000001    ................
  11     046   000000 000000   000000 000000   000074 006000   000000 101500    .........<....A.
  11     052   000000 000000   000000 000000   000000 000001   000000 000012    ................
  11     056   000000 000000   ****** ******   ****** ******   000000 000000    ................
  11     062   000000 000000   000000 000000   000000 000000   000000 006014    ................
  11     066   000000 006014   000000 006014   000000 006014   000000 000000    ................
  11     072   000000 000000   000000 000000                                    ........

VECT_ARRAY
 Sect OctLoc
  11     074   ****** ******   ****** ******   ****** ******   ****** ******    ................

BLANK_LINE_FMT
 Sect OctLoc
  12     000   045061 130***                                                    %1X.

(unnamed)
 Sect OctLoc
  14     000   000001 000000   000036 006000   040040 040040   000002 000000    ........    ....
  14     004   000000 006000   000000 006000   000000 006000   000000 006000    ................
  14     010   000000 206000   000003 000000   000000 006000   000000 006000    ................
  14     014   000000 006000   000000 206000   000000 006000   000000 006000    ................
  14     024*  000100 006000   000000 206000   000000 006000   000000 006000    .@..............
  14     034*  000000 006000   000000 206000   000000 006000   000000 006000    ................
  14     040   000000 006000   000000 206000   000000 006014   000007 200000    ................
  14     044   000000 006000   000000 006000   000000 006000   000000 206000    ................
  14     050   000777 777777   000110 200000   000000 006000   000000 006000    .....H..........
  14     054   000000 006000   000000 206000   000013 200000   000000 006000    ................
PL6.E3A0      #003=VMD$DI_PROFILE File=VMD$DISPLAY2.:VMB6TSI                     WED 08/20/97 15:11 Page:128
  14     060   000000 006000   000000 006000   000000 206000   000000 006000    ................
  14     074*  000000 006000   000000 006000   000000 206000                    ............

PL6.E3A0      #003=VMD$DI_PROFILE File=VMD$DISPLAY2.:VMB6TSI                     WED 08/20/97 15:11 Page:129
--  Include file information  --

   XU_FORMAT_C.:LIB_E05  is referenced.
   B_MACROS_C.:LIB_E05  is referenced.
   VM_DATA_R.:VMB6TOU  cannot be made into a system file and is referenced.
   VM_SUBS_C.:VMB6TOU  is referenced.
   VM_MACRO_C.:VMB6TOU  is referenced.
   CP_6_SUBS.:LIB_E05  is referenced.
   CP_6_C.:LIB_E05  is referenced.
   CP_6.:LIB_E05  cannot be made into a system file and is referenced.
   B_SEGIDS_C.:LIB_E05  is referenced.
      No diagnostics issued in procedure VMD$DI_PROFILE.
PL6.E3A0      #003=VMD$DI_PROFILE File=VMD$DISPLAY2.:VMB6TSI                     WED 08/20/97 15:11 Page:130

 **** Variables and constants ****

  ****  Section 011  Data  VMD$DI_PROFILE

  ****  Scalars and arrays  ****
OctLoc.c.b A Datatyp(siz) R M Lvl/name                 OctLoc.c.b A Datatyp(siz) R M Lvl/name

     0-0-0/w STRC(1080)  r     1 F_FDS                     36-0-0/w STRC(1080)  r     1 SPACE_LINE
    74-0-0/d VECT        r     1 VECT_ARRAY(0:8)

  ****  Section 012 RoData VMD$DI_PROFILE

  ****  Scalars and arrays  ****
OctLoc.c.b A Datatyp(siz) R M Lvl/name                 OctLoc.c.b A Datatyp(siz) R M Lvl/name

     0-0-0/c CHAR(3)     r     1 BLANK_LINE_FMT

  ****  Auto variables  ****

  ****  Scalars and arrays  ****
OctLoc.c.b A Datatyp(siz) R M Lvl/name                 OctLoc.c.b A Datatyp(siz) R M Lvl/name

     3-0-0/w PTR         r     1 @DCB#                      7-0-0/c STRC(2313)  r     1 ADDRESS_TEXT
    *0-0-0/w UBIN        r     1 DCB#                       4-0-0/w SBIN        r     1 I
     5-0-0/w SBIN        r     1 J
   110-0-0/c STRC(1152)  r     1 NAME_ARRAY(0:3)
     6-0-0/w PTR         r     1 TMP$                       6-0-0/w STRC        r     1 TMPR$

  ****  SYMREF variables  ****

  ****  Scalars and arrays  ****
OctLoc.c.b A Datatyp(siz) R M Lvl/name                 OctLoc.c.b A Datatyp(siz) R M Lvl/name

     0-0-0/w PTR               1 B$JIT$                     0-0-0/w PTR               1 B$TCB$
     0-0-0/c ASTR(9)     r     1 ERRMSG_FID                 0-0-0/w STRC        r     1 E_NO_CHAR
     0-0-0/w STRC        r     1 E_PROFILE_EDITOR_FMT
     0-0-0/w STRC        r     1 E_PROFILE_FFOLDER_FMT
PL6.E3A0      #003=VMD$DI_PROFILE File=VMD$DISPLAY2.:VMB6TSI                     WED 08/20/97 15:11 Page:131
     0-0-0/w STRC        r     1 E_PROFILE_FLAGS1_FMT       0-0-0/w STRC        r     1 E_PROFILE_FLAGS2_FMT
     0-0-0/w STRC        r     1 E_PROFILE_FLAGS3_FMT       0-0-0/w STRC        r     1 E_PROFILE_FLAGS4_FMT
     0-0-0/w STRC        r     1 E_PROFILE_REPLY_FMT        0-0-0/w STRC        r     1 E_PROFILE_SETUP_FMT
     0-0-0/w STRC        r     1 E_PROFILE_SIGNED_FMT       0-0-0/w STRC              1 E_PROFILE_SRCH2_FMT
     0-0-0/w STRC        r     1 E_PROFILE_SRCH_FMT         0-0-0/w STRC        r     1 E_RECEIVERS
     0-0-0/w STRC        r     1 E_SENDER                   0-0-0/w STRC        r     1 E_YES_CHAR
     0-0-0/w UBIN              1 M$DO_NUM                   0-0-0/w UBIN              1 M$LO_NUM
     0-0-0/w UBIN              1 M$MAIL_CENTRAL_NUM         0-0-0/w UBIN              1 M$MAIL_COMGROUP_NUM
     0-0-0/w UBIN              1 M$MAIL_FILE_NUM            0-0-0/w UBIN              1 M$MAIL_GLOBAL_NUM
     0-0-0/w UBIN              1 M$ME_NUM                   0-0-0/w UBIN              1 M$NODE_NUM
     0-0-0/w UBIN              1 M$SI_NUM                   0-0-0/w UBIN              1 M$WORK_NUM
     0-0-0/w PTR               1 VM_ADDLIST$                0-0-0/d VECT              1 VM_ADDLIST_
     0-0-0/w PTR               1 VM_ADDREC$                 0-0-0/d VECT              1 VM_ADDREC_
     0-0-0/w PTR               1 VM_COPY$                   0-0-0/d VECT              1 VM_COPY_
     0-0-0/w PTR               1 VM_ENCLLIST$               0-0-0/d VECT              1 VM_ENCLLIST_
     0-0-0/w PTR               1 VM_ENCLREC$                0-0-0/d VECT              1 VM_ENCLREC_
     0-0-0/c STRC(270)         1 VM_FORWARD_ENCL_NAME       0-0-0/c STRC(270)         1 VM_FORWARD_FILE_NAME
     0-0-0/c STRC(72)          1 VM_FORWARD_FILE_PASS       0-0-0/w PTR               1 VM_HEADER$
     0-0-0/d VECT              1 VM_HEADER_                 0-0-0/d VECT              1 VM_HEADER_INIT_
     0-0-0/w PTR               1 VM_INPUT$                  0-0-0/d VECT              1 VM_INPUT_
     0-0-0/c STRC(72)          1 VM_MAILCG_NAME             0-0-0/w STRC(432)         1 VM_MAILCG_SETSTA
     0-0-0/c STRC(72)          1 VM_MAIL_ACCT               0-0-0/c STRC(54)          1 VM_NAME_MAP_NAME
     0-0-0/w PTR         r     1 VM_NO_OR_YES$(0:1)
     0-0-0/w PTR               1 VM_PARSEAREA$              0-0-0/d VECT              1 VM_PARSEAREA_
     0-0-0/w PTR         r     1 VM_PROFILE$                0-0-0/d VECT              1 VM_PROFILE_
     0-0-0/c ASTR(9)     r     1 VM_PROFILE_EDITOR_FMT
     0-0-0/c ASTR(9)     r     1 VM_PROFILE_FFOLDER_FMT
     0-0-0/c ASTR(9)     r     1 VM_PROFILE_FLAGS1_FMT
     0-0-0/c ASTR(9)     r     1 VM_PROFILE_FLAGS2_FMT
     0-0-0/c ASTR(9)     r     1 VM_PROFILE_FLAGS3_FMT
     0-0-0/c ASTR(9)     r     1 VM_PROFILE_FLAGS4_FMT
     0-0-0/c ASTR(9)     r     1 VM_PROFILE_REPLY_FMT       0-0-0/c ASTR(9)     r     1 VM_PROFILE_SETUP_FMT
     0-0-0/c ASTR(9)     r     1 VM_PROFILE_SIGNED_FMT
     0-0-0/c ASTR(9)     r     1 VM_PROFILE_SRCH2_FMT       0-0-0/c ASTR(9)     r     1 VM_PROFILE_SRCH_FMT
     0-0-0/c ASTR(9)     r     1 VM_RECEIVERS               0-0-0/w PTR               1 VM_SELECT$
     0-0-0/d VECT              1 VM_SELECT_                 0-0-0/c ASTR(9)     r     1 VM_SENDER
     0-0-0/c STRC(288)         1 VM_SEND_FILE_NAME          0-0-0/c CHAR(8)           1 VM_SITENAME
PL6.E3A0      #003=VMD$DI_PROFILE File=VMD$DISPLAY2.:VMB6TSI                     WED 08/20/97 15:11 Page:132
     0-0-0/w PTR               1 VM_WORK$                   0-0-0/d VECT              1 VM_WORK_
     0-0-0/c ASTR(9)     r     1 VN_NO_CHAR                 0-0-0/c ASTR(9)     r     1 VN_YES_CHAR

  ****  BASED and DCB variables  ****

  ****  Scalars and arrays  ****
OctLoc.c.b A Datatyp(siz) R M Lvl/name                 OctLoc.c.b A Datatyp(siz) R M Lvl/name

     0-0-0N  NULL        r     1 M$DO                       0-0-0N  NULL        r     1 M$LO
     0-0-0N  NULL        r     1 M$MAIL_CENTRAL             0-0-0N  NULL        r     1 M$MAIL_COMGROUP
     0-0-0N  NULL        r     1 M$MAIL_FILE                0-0-0N  NULL        r     1 M$MAIL_GLOBAL
     0-0-0N  NULL        r     1 M$ME                       0-0-0N  NULL        r     1 M$NODE
     0-0-0N  NULL        r     1 M$SI                       0-0-0N  NULL        r     1 M$UC
     0-0-0N  NULL        r     1 M$WORK                     0-0-0/w STRC(711)   r     1 VM$RADDRESS
     0-0-0/w STRC(2448)        1 VM$UADDRESS                0-0-0/w STRC(4068)  r     1 VM_PROFILE
     0-0-0/c ASTR(9)     r     1 X$STRING


   Procedure VMD$DI_PROFILE requires 549 words for executable code.
   Procedure VMD$DI_PROFILE requires 202 words of local(AUTO) storage.

    No errors detected in file VMD$DISPLAY2.:VMB6TSI    .
PL6.E3A0      #003=VMD$DI_PROFILE File=VMD$DISPLAY2.:VMB6TSI                     WED 08/20/97 15:11 Page:133
          *** CROSS REFERENCE LISTING ***
**     DENOTES     IDENTIFIER DEFINITION
<<                 IDENTIFIER'S VALUE SET
>>                 IDENTIFIER'S VALUE USED
<>                 IDENTIFIER SET AND/OR USED
--                 IDENTIFIER REFERENCED
PL6.E3A0      #003=VMD$DI_PROFILE File=VMD$DISPLAY2.:VMB6TSI                     WED 08/20/97 15:11 Page:134
          MINI XREF LISTING

ADDRESS_TEXT
      9148**DCL     10259<>CALL
ADDRESS_TEXT.L#
      9148**DCL     10258<<ASSIGN  10260>>ASSIGN
ADDRESS_TEXT.NAME#
      9148**DCL     10258--ASSIGN  10260--ASSIGN
BLANK_LINE_FMT
      9231**DCL      9028--DCLINIT  9030--DCLINIT
DCB#
      8773**DCL        10--PROC    10018>>ASSIGN  10019>>ASSIGN
ERRMSG_FID.L#
      8455**DCL      8455--IMP-SIZ
E_NO_CHAR
      9982**DCL     10055<>CALL
E_PROFILE_EDITOR_FMT
      9802**DCL     10414<>CALL
E_PROFILE_FFOLDER_FMT
      9532**DCL     10271<>CALL
E_PROFILE_FLAGS1_FMT
      9352**DCL     10090<>CALL
E_PROFILE_FLAGS2_FMT
      9397**DCL     10125<>CALL
E_PROFILE_FLAGS3_FMT
      9442**DCL     10209<>CALL
E_PROFILE_FLAGS4_FMT
      9487**DCL     10237<>CALL
E_PROFILE_REPLY_FMT
      9577**DCL     10445<>CALL
E_PROFILE_SETUP_FMT
      9622**DCL     10347<>CALL
E_PROFILE_SIGNED_FMT
      9667**DCL     10380<>CALL
PL6.E3A0      #003=VMD$DI_PROFILE File=VMD$DISPLAY2.:VMB6TSI                     WED 08/20/97 15:11 Page:135
E_PROFILE_SRCH_FMT
      9712**DCL     10314<>CALL
E_RECEIVERS
      9937**DCL     10156<>CALL
E_SENDER
      9892**DCL     10182<>CALL
E_YES_CHAR
      9847**DCL     10032<>CALL
F_FDS
      8910**DCL     10104<>CALL    10139<>CALL    10223<>CALL    10251<>CALL    10285<>CALL    10328<>CALL
     10361<>CALL    10394<>CALL    10428<>CALL    10459<>CALL
F_FDS.DCB#
      8943**DCL     10018<<ASSIGN
F_FDS.FMT_
      8914**DCL     10090<>CALL    10093<<ASSIGN  10125<>CALL    10128<<ASSIGN  10209<>CALL    10212<<ASSIGN
     10237<>CALL    10240<<ASSIGN  10271<>CALL    10274<<ASSIGN  10314<>CALL    10317<<ASSIGN  10347<>CALL
     10350<<ASSIGN  10380<>CALL    10383<<ASSIGN  10414<>CALL    10417<<ASSIGN  10445<>CALL    10448<<ASSIGN
F_FDS.NVECS#
      8938**DCL     10080<<ASSIGN  10115<<ASSIGN  10199<<ASSIGN  10227<<ASSIGN  10261<<ASSIGN  10302<<ASSIGN
     10337<<ASSIGN  10370<<ASSIGN  10404<<ASSIGN  10435<<ASSIGN
I
      8774**DCL     10291<<DOINDEX 10292>>IF      10295>>CALL
J
      8775**DCL     10290<<ASSIGN  10294>>ASSIGN  10295>>CALL    10296>>ASSIGN  10296>>ASSIGN  10296>>ASSIGN
     10297<<ASSIGN  10297>>ASSIGN  10300>>IF      10302>>ASSIGN  10303--ASSIGN  10304<<ASSIGN  10304>>ASSIGN
NAME_ARRAY
      9150**DCL     10295<>CALL
NAME_ARRAY.L#
      9151**DCL     10294<<ASSIGN  10296>>ASSIGN
NAME_ARRAY.NAME#
      9152**DCL     10294--ASSIGN  10296--ASSIGN
SPACE_LINE
      9023**DCL     10021<>CALL
SPACE_LINE.DCB#
      9056**DCL     10019<<ASSIGN
TMP$
PL6.E3A0      #003=VMD$DI_PROFILE File=VMD$DISPLAY2.:VMB6TSI                     WED 08/20/97 15:11 Page:136
      8776**DCL      8778--REDEF   10399<<ASSIGN  10400>>IF      10430<<ASSIGN  10431>>IF
TMPR$.SEGID
      8780**DCL     10400>>IF      10431>>IF
VECT_ARRAY
      9122**DCL      8940--DCLINIT  9053--DCLINIT 10069<<ASSIGN  10070<<ASSIGN  10071<<ASSIGN  10072<<ASSIGN
     10074<<ASSIGN  10076<<ASSIGN  10078<<ASSIGN  10106<<ASSIGN  10107<<ASSIGN  10109<<ASSIGN  10111<<ASSIGN
     10113<<ASSIGN  10141<<ASSIGN  10143<<ASSIGN  10156<>CALL    10159<<ASSIGN  10182<>CALL    10185<<ASSIGN
     10197<<ASSIGN  10225<<ASSIGN  10226<<ASSIGN  10260<<ASSIGN  10296<<ASSIGN  10303<<ASSIGN  10336<<ASSIGN
     10369<<ASSIGN  10403<<ASSIGN  10434<<ASSIGN
VM$RADDRESS
      9168**DCL     10259<>CALL    10295<>CALL
VM$RADDRESS.FOLDER
      9183**DCL      9184--REDEF
VM$UADDRESS.FOLDER
      9218**DCL      9219--REDEF
VMD$ERRMSG
      8788**DCL-ENT 10032--CALL    10055--CALL    10090--CALL    10125--CALL    10156--CALL    10182--CALL
     10209--CALL    10237--CALL    10271--CALL    10314--CALL    10347--CALL    10380--CALL    10414--CALL
     10445--CALL
VMD$WRITE_BUF
      8784**DCL-ENT 10021--CALL    10104--CALL    10139--CALL    10223--CALL    10251--CALL    10285--CALL
     10328--CALL    10361--CALL    10394--CALL    10428--CALL    10459--CALL
VMF$MAKE_ADDRESS2
      8783**DCL-ENT 10259--CALL    10295--CALL
VM_NO_OR_YES$
     10015**DCL     10072>>ASSIGN  10076>>ASSIGN  10078>>ASSIGN  10107>>ASSIGN  10109>>ASSIGN  10111>>ASSIGN
     10113>>ASSIGN  10141>>ASSIGN  10143>>ASSIGN  10197>>ASSIGN  10225>>ASSIGN  10226>>ASSIGN
VM_PROFILE.EDITOR$
      8885**DCL     10399>>ASSIGN  10403>>ASSIGN  10403>>ASSIGN
VM_PROFILE.FILE_FOLDER$
      8872**DCL     10255>>IF      10259>>CALL
VM_PROFILE.GRANULES
      8866**DCL     10074--ASSIGN
VM_PROFILE.OPT.ANS_RECEIVERS
      8841**DCL     10144>>IF
VM_PROFILE.OPT.AUTO_EDIT
PL6.E3A0      #003=VMD$DI_PROFILE File=VMD$DISPLAY2.:VMB6TSI                     WED 08/20/97 15:11 Page:137
      8833**DCL     10078>>ASSIGN
VM_PROFILE.OPT.COMBINE
      8837**DCL     10143>>ASSIGN
VM_PROFILE.OPT.DELIVERY_RECEIPT
      8839**DCL     10113>>ASSIGN
VM_PROFILE.OPT.DEL_ON_DETACH
      8847**DCL     10226>>ASSIGN
VM_PROFILE.OPT.DISPTRACE
      8835**DCL     10141>>ASSIGN
VM_PROFILE.OPT.EXT_ADDR_DISP
      8845**DCL     10225>>ASSIGN
VM_PROFILE.OPT.FCOPY
      8825**DCL     10072>>ASSIGN
VM_PROFILE.OPT.HEADERS
      8823**DCL     10076>>ASSIGN
VM_PROFILE.OPT.PAGE
      8831**DCL     10107>>ASSIGN
VM_PROFILE.OPT.PREPROCESS
      8843**DCL     10197>>ASSIGN
VM_PROFILE.OPT.RENUMBER
      8829**DCL     10109>>ASSIGN
VM_PROFILE.OPT.RETURN_RECEIPT
      8827**DCL     10111>>ASSIGN
VM_PROFILE.REPLY_TO$
      8887**DCL     10430>>ASSIGN  10434>>ASSIGN  10434>>ASSIGN
VM_PROFILE.SEARCH_LIST$
      8874**DCL     10292>>IF      10295>>CALL
VM_PROFILE.SETUP.COUNT
      8870**DCL     10333>>IF      10336>>ASSIGN
VM_PROFILE.SETUP.TEXT
      8871**DCL     10336--ASSIGN
VM_PROFILE.SIGNED$
      8876**DCL     10366>>IF      10369>>ASSIGN  10369>>ASSIGN
VM_PROFILE$
      8307**DCL      8819--IMP-PTR 10072>>ASSIGN  10074>>ASSIGN  10076>>ASSIGN  10078>>ASSIGN  10107>>ASSIGN
     10109>>ASSIGN  10111>>ASSIGN  10113>>ASSIGN  10141>>ASSIGN  10143>>ASSIGN  10144>>IF      10197>>ASSIGN
PL6.E3A0      #003=VMD$DI_PROFILE File=VMD$DISPLAY2.:VMB6TSI                     WED 08/20/97 15:11 Page:138
     10225>>ASSIGN  10226>>ASSIGN  10255>>IF      10259>>CALL    10292>>IF      10295>>CALL    10333>>IF
     10336>>ASSIGN  10336>>ASSIGN  10366>>IF      10369>>ASSIGN  10369>>ASSIGN  10399>>ASSIGN  10403>>ASSIGN
     10403>>ASSIGN  10430>>ASSIGN  10434>>ASSIGN  10434>>ASSIGN
VM_PROFILE_EDITOR_FMT
      9309**DCL     10414<>CALL
VM_PROFILE_EDITOR_FMT.L#
      9309**DCL      9309--IMP-SIZ 10412>>IF      10414>>CALL    10417>>ASSIGN  10417>>ASSIGN
VM_PROFILE_EDITOR_FMT.NAME#
      9309**DCL     10412>>IF      10417--ASSIGN
VM_PROFILE_FFOLDER_FMT
      9267**DCL     10271<>CALL
VM_PROFILE_FFOLDER_FMT.L#
      9267**DCL      9267--IMP-SIZ 10269>>IF      10271>>CALL    10274>>ASSIGN  10274>>ASSIGN
VM_PROFILE_FFOLDER_FMT.NAME#
      9267**DCL     10269>>IF      10274--ASSIGN
VM_PROFILE_FLAGS1_FMT
      9239**DCL     10090<>CALL
VM_PROFILE_FLAGS1_FMT.L#
      9239**DCL      9239--IMP-SIZ 10088>>IF      10090>>CALL    10093>>ASSIGN  10093>>ASSIGN
VM_PROFILE_FLAGS1_FMT.NAME#
      9239**DCL     10088>>IF      10093--ASSIGN
VM_PROFILE_FLAGS2_FMT
      9246**DCL     10125<>CALL
VM_PROFILE_FLAGS2_FMT.L#
      9246**DCL      9246--IMP-SIZ 10123>>IF      10125>>CALL    10128>>ASSIGN  10128>>ASSIGN
VM_PROFILE_FLAGS2_FMT.NAME#
      9246**DCL     10123>>IF      10128--ASSIGN
VM_PROFILE_FLAGS3_FMT
      9253**DCL     10209<>CALL
VM_PROFILE_FLAGS3_FMT.L#
      9253**DCL      9253--IMP-SIZ 10207>>IF      10209>>CALL    10212>>ASSIGN  10212>>ASSIGN
VM_PROFILE_FLAGS3_FMT.NAME#
      9253**DCL     10207>>IF      10212--ASSIGN
VM_PROFILE_FLAGS4_FMT
      9260**DCL     10237<>CALL
VM_PROFILE_FLAGS4_FMT.L#
PL6.E3A0      #003=VMD$DI_PROFILE File=VMD$DISPLAY2.:VMB6TSI                     WED 08/20/97 15:11 Page:139
      9260**DCL      9260--IMP-SIZ 10235>>IF      10237>>CALL    10240>>ASSIGN  10240>>ASSIGN
VM_PROFILE_FLAGS4_FMT.NAME#
      9260**DCL     10235>>IF      10240--ASSIGN
VM_PROFILE_REPLY_FMT
      9274**DCL     10445<>CALL
VM_PROFILE_REPLY_FMT.L#
      9274**DCL      9274--IMP-SIZ 10443>>IF      10445>>CALL    10448>>ASSIGN  10448>>ASSIGN
VM_PROFILE_REPLY_FMT.NAME#
      9274**DCL     10443>>IF      10448--ASSIGN
VM_PROFILE_SETUP_FMT
      9281**DCL     10347<>CALL
VM_PROFILE_SETUP_FMT.L#
      9281**DCL      9281--IMP-SIZ 10345>>IF      10347>>CALL    10350>>ASSIGN  10350>>ASSIGN
VM_PROFILE_SETUP_FMT.NAME#
      9281**DCL     10345>>IF      10350--ASSIGN
VM_PROFILE_SIGNED_FMT
      9288**DCL     10380<>CALL
VM_PROFILE_SIGNED_FMT.L#
      9288**DCL      9288--IMP-SIZ 10378>>IF      10380>>CALL    10383>>ASSIGN  10383>>ASSIGN
VM_PROFILE_SIGNED_FMT.NAME#
      9288**DCL     10378>>IF      10383--ASSIGN
VM_PROFILE_SRCH2_FMT.L#
      9302**DCL      9302--IMP-SIZ
VM_PROFILE_SRCH_FMT
      9295**DCL     10314<>CALL
VM_PROFILE_SRCH_FMT.L#
      9295**DCL      9295--IMP-SIZ 10312>>IF      10314>>CALL    10317>>ASSIGN  10317>>ASSIGN
VM_PROFILE_SRCH_FMT.NAME#
      9295**DCL     10312>>IF      10317--ASSIGN
VM_RECEIVERS
      9330**DCL     10156<>CALL
VM_RECEIVERS.L#
      9330**DCL      9330--IMP-SIZ 10154>>IF      10156>>CALL    10159>>ASSIGN  10159>>ASSIGN
VM_RECEIVERS.NAME#
      9330**DCL     10154>>IF      10159--ASSIGN
VM_SENDER
PL6.E3A0      #003=VMD$DI_PROFILE File=VMD$DISPLAY2.:VMB6TSI                     WED 08/20/97 15:11 Page:140
      9323**DCL     10182<>CALL
VM_SENDER.L#
      9323**DCL      9323--IMP-SIZ 10180>>IF      10182>>CALL    10185>>ASSIGN  10185>>ASSIGN
VM_SENDER.NAME#
      9323**DCL     10180>>IF      10185--ASSIGN
VN_NO_CHAR
      9337**DCL     10055<>CALL
VN_NO_CHAR.L#
      9337**DCL      9337--IMP-SIZ 10053>>IF      10055>>CALL
VN_NO_CHAR.NAME#
      9337**DCL     10053>>IF
VN_YES_CHAR
      9316**DCL     10032<>CALL
VN_YES_CHAR.L#
      9316**DCL      9316--IMP-SIZ 10030>>IF      10032>>CALL    10069>>ASSIGN  10070>>ASSIGN  10071>>ASSIGN
     10106>>ASSIGN
VN_YES_CHAR.NAME#
      9316**DCL     10030>>IF      10069--ASSIGN  10070--ASSIGN  10071--ASSIGN  10106--ASSIGN
X$STRING.SIZ
      8301**DCL      8302--IMP-SIZ 10369>>ASSIGN  10403>>ASSIGN  10434>>ASSIGN
X$STRING.TEXT
      8302**DCL     10369--ASSIGN  10403--ASSIGN  10434--ASSIGN
