PL6.E3A0      #007=VMD$GET_SITE File=VMD$SUBR.:VMB6TSI                           WED 08/20/97 15:13 Page:213
      977        1        /*T***********************************************************/
      978        2        /*T*                                                         */
      979        3        /*T* Copyright (c) Bull HN Information Systems Inc., 1997    */
      980        4        /*T*                                                         */
      981        5        /*T***********************************************************/
      982        6        /*X* DMC,PLM=4,IND=4,CTI=2,DTI=0,ENI=0,ECI=0,CSI=0,DCI=4 */
      983        7        /*F*
      984        8             NAME: VMD$GET_SITE
      985        9             PURPOSE:
      986       10                  To read a specified VM_SITE record from the mail folder.
      987       11             DESCRIPTION:
      988       12                  None.
      989       13        */
      990       14        VMD$GET_SITE: PROC (VM_SITE,DCB#) ALTRET;
      991       15        /***** Include files *****/
      992       16          %INCLUDE CP_6;
      993     5575          %INCLUDE VM_MACRO_C;
      994     6843          %INCLUDE VM_DATA_R;
      995     7274          %VM_KEYTYPES;
      996     7295        /***** Parameters *****/
      997     7296    1   DCL DCB# UBIN WORD;
      998     7297          %VM_SITE (NAME=VM_SITE,STCLASS=" ");
      999     7321        /***** Fpts *****/
     1000     7322          %FPT_READ (FPTN=READ_SITE,KEY=VM_SITEKEY,KEYS=YES);
     1001     7361          %FPT_WRITE (FPTN=WRITE_SITE,KEY=VM_SITEKEY,ONEWKEY=YES);
     1002     7392        /***** Mail structures *****/
     1003     7393          %VM_SITEKEY (NAME=VM_SITEKEY,STCLASS=CONSTANT);
     1004     7408        %EJECT;
PL6.E3A0      #007=VMD$GET_SITE File=VMD$SUBR.:VMB6TSI                           WED 08/20/97 15:13 Page:214
     1005     7409    1       READ_SITE.V.DCB# = DCB#;
     1006     7410    1       READ_SITE.BUF_ = VECTOR(VM_SITE);
     1007     7411    1       CALL M$READ (READ_SITE) ALTRET(E_PMME);
     1008     7412    1       RETURN;
     1009     7413        %EJECT;
PL6.E3A0      #007=VMD$GET_SITE File=VMD$SUBR.:VMB6TSI                           WED 08/20/97 15:13 Page:215
     1010     7414    1   VMD$PUT_SITE: ENTRY (VM_SITE,DCB#) ALTRET;
     1011     7415    1       WRITE_SITE.V.DCB# = DCB#;
     1012     7416    1       WRITE_SITE.BUF_ = VECTOR(VM_SITE);
     1013     7417    1       CALL M$WRITE (WRITE_SITE) ALTRET(E_PMME);
     1014     7418    1       RETURN;
     1015     7419        %EJECT;
PL6.E3A0      #007=VMD$GET_SITE File=VMD$SUBR.:VMB6TSI                           WED 08/20/97 15:13 Page:216
     1016     7420    1   E_PMME:
     1017     7421    1       ALTRETURN;
     1018     7422    1   END VMD$GET_SITE;
     1019     7423        %EOD;

PL6.E3A0      #007=VMD$GET_SITE File=VMD$SUBR.:VMB6TSI                           WED 08/20/97 15:13 Page:217
--  Include file information  --

   B_MACROS_C.:LIB_E05  is referenced.
   VM_DATA_R.:VMB6TOU  cannot be made into a system file and is referenced.
   VM_MACRO_C.:VMB6TOU  is referenced.
   CP_6_C.:LIB_E05  is referenced.
   CP_6.:LIB_E05  cannot be made into a system file and is referenced.
      No diagnostics issued in procedure VMD$GET_SITE.

   Procedure VMD$GET_SITE requires 27 words for executable code.
   Procedure VMD$GET_SITE requires 6 words of local(AUTO) storage.

PL6.E3A0      #007=VMD$GET_SITE File=VMD$SUBR.:VMB6TSI                           WED 08/20/97 15:13 Page:218

 Object Unit name= VMD$GET_SITE                               File name= VMD$SUBR.:VMB6TOU
 UTS= AUG 20 '97 15:13:44.00 WED                              Compiler= PL-6/E31         Sev=      00
 SharedLib= :SHARED_SYSTEM                                    Alt SharedLib=


    ****  Control sections  ****

 Sect   Type Bound  Init  Size OctSiz  Section name(segment info)
    0   DCB   even  none     0      0  M$UC
    1   DCB   even  none     0      0  M$MAIL_FILE
    2   DCB   even  none     0      0  M$MAIL_CENTRAL
    3   DCB   even  none     0      0  M$MAIL_GLOBAL
    4   DCB   even  none     0      0  M$WORK
    5   DCB   even  none     0      0  M$MAIL_COMGROUP
    6   DCB   even  none     0      0  M$DO
    7   DCB   even  none     0      0  M$LO
    8   DCB   even  none     0      0  M$ME
    9   DCB   even  none     0      0  M$NODE
   10   DCB   even  none     0      0  M$SI
   11   Data  even  none    26     32  VMD$GET_SITE
   12  RoData even  UTS      1      1  VMD$GET_SITE
   13   Proc  even  none    27     33  VMD$GET_SITE
   14  RoData even  none     1      1  VMD$GET_SITE

    ****  Entry defs  ****

                              Check   Calling
                             calling  sequence
  Sect OctLoc Primary Altret sequence   type   Parms  Name
    13      0   yes    yes     yes      Std        2  VMD$GET_SITE
    13     15          yes     yes      Std        2  VMD$PUT_SITE
PL6.E3A0      #007=VMD$GET_SITE File=VMD$SUBR.:VMB6TSI                           WED 08/20/97 15:13 Page:219

  ****  Entry refs  ****

         Check        Calling
        calling       sequence
Altret sequence SRef   type   Args  Name
                       nStd      0 X66_AUTO_2
                       nStd      0 X66_ARET
                       nStd      0 X66_AALT

  ****  Data refs  ****

  Flags:  r = read only, s = secondary
Flgs Name                             Flgs Name                             Flgs Name
     M$UC                             r    VM_HEADER$                       r    VM_PROFILE$
r    VM_ADDLIST$                      r    VM_ADDREC$                       r    VM_WORK$
r    VM_SELECT$                       r    VM_PARSEAREA$                    r    VM_INPUT$
r    VM_COPY$                              VM_ENCLLIST$                          VM_ENCLREC$
     VM_HEADER_                            VM_HEADER_INIT_                       VM_PROFILE_
     VM_ADDLIST_                           VM_ADDREC_                            VM_WORK_
     VM_SELECT_                            VM_PARSEAREA_                         VM_INPUT_
     VM_COPY_                              VM_ENCLLIST_                          VM_ENCLREC_
     M$MAIL_FILE                           M$MAIL_CENTRAL                        M$MAIL_GLOBAL
     M$WORK                                M$MAIL_COMGROUP                       M$DO
     M$LO                                  M$ME                                  M$NODE
     M$SI                                  M$MAIL_FILE_NUM                       M$MAIL_CENTRAL_NUM
     M$MAIL_GLOBAL_NUM                     M$WORK_NUM                            M$MAIL_COMGROUP_NUM
     M$DO_NUM                              M$ME_NUM                              M$LO_NUM
     M$SI_NUM                              M$NODE_NUM                       r    B$JIT$
r    B$TCB$                                VM_MAIL_ACCT                          VM_NAME_MAP_NAME
     ERRMSG_FID                            VM_SEND_FILE_NAME                     VM_FORWARD_FILE_NAME
     VM_FORWARD_ENCL_NAME                  VM_FORWARD_FILE_PASS                  VM_MAILCG_NAME
     VM_SITENAME                           VM_MAILCG_SETSTA
PL6.E3A0      #007=VMD$GET_SITE File=VMD$SUBR.:VMB6TSI                           WED 08/20/97 15:13 Page:220

  ****  Segment refs  ****

  Flags:  r = read only, s = secondary
Flgs Name                             Flgs Name                             Flgs Name
     ISSID                                 NULLSID
PL6.E3A0      #007=VMD$GET_SITE File=VMD$SUBR.:VMB6TSI                           WED 08/20/97 15:13 Page:221


      977        1        /*T***********************************************************/
      978        2        /*T*                                                         */
      979        3        /*T* Copyright (c) Bull HN Information Systems Inc., 1997    */
      980        4        /*T*                                                         */
      981        5        /*T***********************************************************/
      982        6        /*X* DMC,PLM=4,IND=4,CTI=2,DTI=0,ENI=0,ECI=0,CSI=0,DCI=4 */
      983        7        /*F*
      984        8             NAME: VMD$GET_SITE
      985        9             PURPOSE:
      986       10                  To read a specified VM_SITE record from the mail folder.
      987       11             DESCRIPTION:
      988       12                  None.
      989       13        */
      990       14        VMD$GET_SITE: PROC (VM_SITE,DCB#) ALTRET;

     14 13 000000   000000 700200 xent  VMD$GET_SITE TSX0  ! X66_AUTO_2
        13 000001   000006 000002                    ZERO    6,2

      991       15        /***** Include files *****/
      992       16          %INCLUDE CP_6;
      993     5575          %INCLUDE VM_MACRO_C;
      994     6843          %INCLUDE VM_DATA_R;
      995     7274          %VM_KEYTYPES;
      996     7295        /***** Parameters *****/
      997     7296    1   DCL DCB# UBIN WORD;
      998     7297          %VM_SITE (NAME=VM_SITE,STCLASS=" ");
      999     7321        /***** Fpts *****/
     1000     7322          %FPT_READ (FPTN=READ_SITE,KEY=VM_SITEKEY,KEYS=YES);
     1001     7361          %FPT_WRITE (FPTN=WRITE_SITE,KEY=VM_SITEKEY,ONEWKEY=YES);
     1002     7392        /***** Mail structures *****/
     1003     7393          %VM_SITEKEY (NAME=VM_SITEKEY,STCLASS=CONSTANT);
     1004     7408        %EJECT;
PL6.E3A0      #007=VMD$GET_SITE File=VMD$SUBR.:VMB6TSI                           WED 08/20/97 15:13 Page:222
     1005     7409    1       READ_SITE.V.DCB# = DCB#;

   7409 13 000002   200004 470500                    LDP0    @DCB#,,AUTO
        13 000003   000000 720100                    LXL0    0,,PR0
        13 000004   000010 740000 11                 STX0    READ_SITE+8

     1006     7410    1       READ_SITE.BUF_ = VECTOR(VM_SITE);

   7410 13 000005   000000 235000 14                 LDA     0
        13 000006   200003 236100                    LDQ     @VM_SITE,,AUTO
        13 000007   000004 757000 11                 STAQ    READ_SITE+4

     1007     7411    1       CALL M$READ (READ_SITE) ALTRET(E_PMME);

   7411 13 000010   000000 630400 11                 EPPR0   READ_SITE
        13 000011   440000 713400                    CLIMB   alt,read
        13 000012   401400 401760                    pmme    nvectors=4
        13 000013   000032 702000 13                 TSX2    E_PMME

     1008     7412    1       RETURN;

   7412 13 000014   000000 702200 xent               TSX2  ! X66_ARET

     1009     7413        %EJECT;
PL6.E3A0      #007=VMD$GET_SITE File=VMD$SUBR.:VMB6TSI                           WED 08/20/97 15:13 Page:223
     1010     7414    1   VMD$PUT_SITE: ENTRY (VM_SITE,DCB#) ALTRET;

   7414 13 000015   000000 700200 xent  VMD$PUT_SITE TSX0  ! X66_AUTO_2
        13 000016   000006 000002                    ZERO    6,2

     1011     7415    1       WRITE_SITE.V.DCB# = DCB#;

   7415 13 000017   200004 470500                    LDP0    @DCB#,,AUTO
        13 000020   000000 720100                    LXL0    0,,PR0
        13 000021   000026 740000 11                 STX0    WRITE_SITE+8

     1012     7416    1       WRITE_SITE.BUF_ = VECTOR(VM_SITE);

   7416 13 000022   000000 235000 14                 LDA     0
        13 000023   200003 236100                    LDQ     @VM_SITE,,AUTO
        13 000024   000022 757000 11                 STAQ    WRITE_SITE+4

     1013     7417    1       CALL M$WRITE (WRITE_SITE) ALTRET(E_PMME);

   7417 13 000025   000016 630400 11                 EPPR0   WRITE_SITE
        13 000026   440001 713400                    CLIMB   alt,write
        13 000027   401400 401760                    pmme    nvectors=4
        13 000030   000032 702000 13                 TSX2    E_PMME

     1014     7418    1       RETURN;

   7418 13 000031   000000 702200 xent               TSX2  ! X66_ARET

     1015     7419        %EJECT;
PL6.E3A0      #007=VMD$GET_SITE File=VMD$SUBR.:VMB6TSI                           WED 08/20/97 15:13 Page:224
     1016     7420    1   E_PMME:
     1017     7421    1       ALTRETURN;

   7421 13 000032   000000 702200 xent  E_PMME       TSX2  ! X66_AALT

READ_SITE
 Sect OctLoc
  11     000   000005 777640   000010 006000   000000 377640   000000 006000    ................
  11     004   000000 177640   000000 006014   000000 177640   000000 006014    ................
  11     010   000000 600000   000000 000000   000000 000000   000000 000000    ................
  11     014   000000 000000   000000 000000                                    ........

WRITE_SITE
 Sect OctLoc
  11     016   000003 777640   000026 006000   000000 377640   000000 006000    ................
  11     022   000000 177640   000000 006014   000000 177640   000000 006014    ................
  11     026   000000 400400   000000 000000   000000 000000   000000 000000    ................

VM_SITEKEY
 Sect OctLoc
  12     000   001012 ******                                                    ....

(unnamed)
 Sect OctLoc
  14     000   000067 777640                                                    .7..
     1018     7422    1   END VMD$GET_SITE;
     1019     7423        %EOD;

PL6.E3A0      #007=VMD$GET_SITE File=VMD$SUBR.:VMB6TSI                           WED 08/20/97 15:13 Page:225
--  Include file information  --

   B_MACROS_C.:LIB_E05  is referenced.
   VM_DATA_R.:VMB6TOU  cannot be made into a system file and is referenced.
   VM_MACRO_C.:VMB6TOU  is referenced.
   CP_6_C.:LIB_E05  is referenced.
   CP_6.:LIB_E05  cannot be made into a system file and is referenced.
      No diagnostics issued in procedure VMD$GET_SITE.
PL6.E3A0      #007=VMD$GET_SITE File=VMD$SUBR.:VMB6TSI                           WED 08/20/97 15:13 Page:226

 **** Variables and constants ****

  ****  Section 011  Data  VMD$GET_SITE

  ****  Scalars and arrays  ****
OctLoc.c.b A Datatyp(siz) R M Lvl/name                 OctLoc.c.b A Datatyp(siz) R M Lvl/name

     0-0-0/d STRC(504)   r     1 READ_SITE                 16-0-0/d STRC(432)   r     1 WRITE_SITE

  ****  Section 012 RoData VMD$GET_SITE

  ****  Scalars and arrays  ****
OctLoc.c.b A Datatyp(siz) R M Lvl/name                 OctLoc.c.b A Datatyp(siz) R M Lvl/name

     0-0-0/c STRC(18)    r     1 VM_SITEKEY

  ****  Auto variables  ****

  ****  Scalars and arrays  ****
OctLoc.c.b A Datatyp(siz) R M Lvl/name                 OctLoc.c.b A Datatyp(siz) R M Lvl/name

     4-0-0/w PTR         r     1 @DCB#                      3-0-0/w PTR         r     1 @VM_SITE
    *0-0-0/w UBIN        r     1 DCB#                      *0-0-0/w STRC(2016)  r     1 VM_SITE

  ****  SYMREF variables  ****

  ****  Scalars and arrays  ****
OctLoc.c.b A Datatyp(siz) R M Lvl/name                 OctLoc.c.b A Datatyp(siz) R M Lvl/name

     0-0-0/w PTR               1 B$JIT$                     0-0-0/w PTR               1 B$TCB$
     0-0-0/c ASTR(9)     r     1 ERRMSG_FID                 0-0-0/w UBIN              1 M$DO_NUM
     0-0-0/w UBIN              1 M$LO_NUM                   0-0-0/w UBIN              1 M$MAIL_CENTRAL_NUM
     0-0-0/w UBIN              1 M$MAIL_COMGROUP_NUM        0-0-0/w UBIN              1 M$MAIL_FILE_NUM
     0-0-0/w UBIN              1 M$MAIL_GLOBAL_NUM          0-0-0/w UBIN              1 M$ME_NUM
     0-0-0/w UBIN              1 M$NODE_NUM                 0-0-0/w UBIN              1 M$SI_NUM
     0-0-0/w UBIN              1 M$WORK_NUM                 0-0-0/w PTR               1 VM_ADDLIST$
     0-0-0/d VECT              1 VM_ADDLIST_                0-0-0/w PTR               1 VM_ADDREC$
PL6.E3A0      #007=VMD$GET_SITE File=VMD$SUBR.:VMB6TSI                           WED 08/20/97 15:13 Page:227
     0-0-0/d VECT              1 VM_ADDREC_                 0-0-0/w PTR               1 VM_COPY$
     0-0-0/d VECT              1 VM_COPY_                   0-0-0/w PTR               1 VM_ENCLLIST$
     0-0-0/d VECT              1 VM_ENCLLIST_               0-0-0/w PTR               1 VM_ENCLREC$
     0-0-0/d VECT              1 VM_ENCLREC_                0-0-0/c STRC(270)         1 VM_FORWARD_ENCL_NAME
     0-0-0/c STRC(270)         1 VM_FORWARD_FILE_NAME       0-0-0/c STRC(72)          1 VM_FORWARD_FILE_PASS
     0-0-0/w PTR               1 VM_HEADER$                 0-0-0/d VECT              1 VM_HEADER_
     0-0-0/d VECT              1 VM_HEADER_INIT_            0-0-0/w PTR               1 VM_INPUT$
     0-0-0/d VECT              1 VM_INPUT_                  0-0-0/c STRC(72)          1 VM_MAILCG_NAME
     0-0-0/w STRC(432)         1 VM_MAILCG_SETSTA           0-0-0/c STRC(72)          1 VM_MAIL_ACCT
     0-0-0/c STRC(54)          1 VM_NAME_MAP_NAME           0-0-0/w PTR               1 VM_PARSEAREA$
     0-0-0/d VECT              1 VM_PARSEAREA_              0-0-0/w PTR               1 VM_PROFILE$
     0-0-0/d VECT              1 VM_PROFILE_                0-0-0/w PTR               1 VM_SELECT$
     0-0-0/d VECT              1 VM_SELECT_                 0-0-0/c STRC(288)         1 VM_SEND_FILE_NAME
     0-0-0/c CHAR(8)           1 VM_SITENAME                0-0-0/w PTR               1 VM_WORK$
     0-0-0/d VECT              1 VM_WORK_

  ****  BASED and DCB variables  ****

  ****  Scalars and arrays  ****
OctLoc.c.b A Datatyp(siz) R M Lvl/name                 OctLoc.c.b A Datatyp(siz) R M Lvl/name

     0-0-0N  NULL        r     1 M$DO                       0-0-0N  NULL        r     1 M$LO
     0-0-0N  NULL        r     1 M$MAIL_CENTRAL             0-0-0N  NULL        r     1 M$MAIL_COMGROUP
     0-0-0N  NULL        r     1 M$MAIL_FILE                0-0-0N  NULL        r     1 M$MAIL_GLOBAL
     0-0-0N  NULL        r     1 M$ME                       0-0-0N  NULL        r     1 M$NODE
     0-0-0N  NULL        r     1 M$SI                       0-0-0N  NULL        r     1 M$UC
     0-0-0N  NULL        r     1 M$WORK                     0-0-0/c ASTR(9)     r     1 X$STRING


   Procedure VMD$GET_SITE requires 27 words for executable code.
   Procedure VMD$GET_SITE requires 6 words of local(AUTO) storage.
PL6.E3A0      #007=VMD$GET_SITE File=VMD$SUBR.:VMB6TSI                           WED 08/20/97 15:13 Page:228
          *** CROSS REFERENCE LISTING ***
**     DENOTES     IDENTIFIER DEFINITION
<<                 IDENTIFIER'S VALUE SET
>>                 IDENTIFIER'S VALUE USED
<>                 IDENTIFIER SET AND/OR USED
--                 IDENTIFIER REFERENCED
PL6.E3A0      #007=VMD$GET_SITE File=VMD$SUBR.:VMB6TSI                           WED 08/20/97 15:13 Page:229
          MINI XREF LISTING

DCB#
      7296**DCL        14--PROC     7409>>ASSIGN   7414--ENTRY    7415>>ASSIGN
ERRMSG_FID.L#
      7119**DCL      7119--IMP-SIZ
E_PMME
      7421**LABEL    7411--CALLALT  7417--CALLALT
M$READ
      5504**DCL-ENT  7411--CALL
M$WRITE
      5504**DCL-ENT  7417--CALL
READ_SITE
      7339**DCL      7411<>CALL
READ_SITE.BUF_
      7341**DCL      7410<<ASSIGN
READ_SITE.STATION_
      7342**DCL      7343--REDEF
READ_SITE.V
      7343**DCL      7339--DCLINIT
READ_SITE.V.DCB#
      7343**DCL      7409<<ASSIGN
READ_SITE.V.DVBYTE.REREAD#
      7354**DCL      7354--REDEF
READ_SITE.V.INDX#
      7352**DCL      7352--REDEF
VM_SITE
      7307**DCL        14--PROC     7410--ASSIGN   7414--ENTRY    7416--ASSIGN
VM_SITEKEY
      7403**DCL      7339--DCLINIT  7340--DCLINIT  7378--DCLINIT
WRITE_SITE
      7378**DCL      7417<>CALL
WRITE_SITE.BUF_
      7378**DCL      7416<<ASSIGN
PL6.E3A0      #007=VMD$GET_SITE File=VMD$SUBR.:VMB6TSI                           WED 08/20/97 15:13 Page:230
WRITE_SITE.STATION_
      7380**DCL      7380--REDEF
WRITE_SITE.V
      7381**DCL      7378--DCLINIT
WRITE_SITE.V.DCB#
      7381**DCL      7415<<ASSIGN
WRITE_SITE.V.DVBYTE.VFC#
      7387**DCL      7387--REDEF
X$STRING.SIZ
      6965**DCL      6966--IMP-SIZ

PL6.E3A0      #008=VMD$ERRMSG File=VMD$SUBR.:VMB6TSI                             WED 08/20/97 15:13 Page:231
     1020        1        /*T***********************************************************/
     1021        2        /*T*                                                         */
     1022        3        /*T* Copyright (c) Bull HN Information Systems Inc., 1997    */
     1023        4        /*T*                                                         */
     1024        5        /*T***********************************************************/
     1025        6        /*X* DMC,PLM=4,IND=4,CTI=2,DTI=0,ENI=0,ECI=0,CSI=0,DCI=4 */
     1026        7        /*F*
     1027        8             NAME: VMD$ERRMSG
     1028        9             PURPOSE:
     1029       10                  To obtain the text of an errmsg.
     1030       11             DESCRIPTION:
     1031       12                  This routine is used throughtout the mail system for
     1032       13                  obtaining the text of an errmsg for subsequent use
     1033       14                  as format strings for the formatter (X$WRITE), as prompt
     1034       15                  strings for M$PROMPT, or any other language dependent
     1035       16                  literals.
     1036       17             PARAMETERS:
     1037       18                   ERRCODE - %VLP_ERRCODE - input parameter, code for msg to
     1038       19                                            obtain
     1039       20                   STRING -  %VLP_NAME    - output parameter, containing the
     1040       21                                            text of the message
     1041       22             ERROR CONDITIONS:
     1042       23                   This routine will M$XXX if a message for the code can't be
     1043       24                   found.
     1044       25                   A diagnostic message is printed if the errmsg text is longer
     1045       26                   than the declared size of STRING
     1046       27        */
     1047       28        VMD$ERRMSG: proc(ERRCODE, STRING, VECT) altret;
     1048       29        %INCLUDE CP_6;
     1049     5588        %INCLUDE XUR_ENTRY;
     1050     5620        %INCLUDE VM_PERR_C;
     1051     5915        %INCLUDE VM_DATA_R;
     1052     6346        %INCLUDE B$TABLES_C;
     1053     6454        %B$SR_NON_BLANK;
     1054     6458        /*
     1055     6459           This xlate table is used for translating double quote (") to %,
     1056     6460           since i can't figure out how to tell M$ERRMSG not to remove the
PL6.E3A0      #008=VMD$ERRMSG File=VMD$SUBR.:VMB6TSI                             WED 08/20/97 15:13 Page:232
     1057     6461           % character.  It also translates & to sp.  The & character is used
     1058     6462           when trailing blanks are requested on the message string.
     1059     6463        */
     1060     6464    1   DCL 1 XL CONSTANT DALIGNED,
     1061     6465    1         2 * (0:511) UBIN BYTE CALIGNED INIT
     1062     6466    1   (0,1,2,3,4,5,6,7,8,9,10,11,12,13,14,15,16,17,18,19,20,21,22,23,24,25,
     1063     6467    1   26,27,28,29,30,31,32,33,37,35,36,37,32,39,40,41,42,43,44,45,46,47,48,
     1064     6468    1   49,50,51,52,53,54,55,56,57,58,59,60,61,62,63,64,65,66,67,68,69,70,71,
     1065     6469    1   72,73,74,75,76,77,78,79,80,81,82,83,84,85,86,87,88,89,90,91,92,93,
     1066     6470    1   94,95,96,97,98,99,100,101,102,103,104,105,106,107,108,109,110,111,
     1067     6471    1   112,113,114,115,116,117,118,119,120,121,122,123,124,125,126,127,0*0);
     1068     6472
     1069     6473        /* Parameters */
     1070     6474        %VLP_ERRCODE (FPTN=ERRCODE, STCLASS=PARAM);
     1071     6519              %VLP_NAME (FPTN=STRING, STCLASS=PARAM);
     1072     6546    1   dcl  VECT  vector aligned;
     1073     6547
     1074     6548        /* Constant dcls */
     1075     6549        %FPT_ERRMSG (FPTN=C$GET_STRING,
     1076     6550                   INCLCODE=NO,
     1077     6551                   SUBAC=NO,
     1078     6552                   SUBDC=NO,
     1079     6553                   SUBFN=NO,
     1080     6554                   SUBSN=NO,
     1081     6555                   SUBMESS=YES,
     1082     6556                   RESULTS=VLR_ERRMSG,
     1083     6557                   FILEACCT=ERRMSG_FILE_ACCT,
     1084     6558                   FILENAME=ERRMSG_FILE_NAME,
     1085     6559                   STCLASS=CONSTANT);
     1086     6586        %VLR_ERRMSG;
     1087     6608        %VLP_ACCT (FPTN=ERRMSG_FILE_ACCT);
     1088     6621        %VLP_NAME (FPTN=ERRMSG_FILE_NAME);
     1089     6648        %VLP_ERRCODE (FPTN=NO_ERRMSG,
     1090     6649                   FCG="VM",MID="D",
     1091     6650                   ERR#=%E$NO_ERRMSG,
     1092     6651                   STCLASS=CONSTANT);
     1093     6696        /*E* ERROR: VMD-E$NO_ERRMSG-8
PL6.E3A0      #008=VMD$ERRMSG File=VMD$SUBR.:VMB6TSI                             WED 08/20/97 15:13 Page:233
     1094     6697             MESSAGE:No message for code %U1, Please report this
     1095     6698                     problem to your system manager.
     1096     6699        */
     1097     6700              %VLP_ERRCODE (FPTN=MSGTOOLONG,
     1098     6701              FCG="VM",MID="D",
     1099     6702              ERR#=%E$MSGTOOLONG,
     1100     6703              STCLASS=CONSTANT);
     1101     6748        /*E* ERROR: VMD-E$MSGTOOLONG-8
     1102     6749             MESSAGE:The error message is too long, Please report this
     1103     6750                     problem to your system manager.
     1104     6751        */
     1105     6752        /* Locals */
     1106     6753              %FPT_ERRMSG (FPTN=A$GET_STRING,
     1107     6754              STCLASS=AUTO);
     1108     6781    1   dcl TEMP_BUF char(120);
     1109     6782    1   dcl DUMMY ubin;
     1110     6783    1   dcl IX ubin;
     1111     6784
     1112     6785    1       call index(IX, '.', ERRMSG_FID.NAME#);
     1113     6786    1       ERRMSG_FILE_NAME.L#  = IX;
     1114     6787    1       ERRMSG_FILE_NAME.NAME# = substr(ERRMSG_FID.NAME#, 0, IX);
     1115     6788    1       if IX >= ERRMSG_FID.L# - 1
     1116     6789    1       then ERRMSG_FILE_ACCT.ACCT# = ':SYS';
     1117     6790    1       else ERRMSG_FILE_ACCT.ACCT# = substr(ERRMSG_FID.NAME#, IX+1);
     1118     6791
     1119     6792    1       A$GET_STRING     = C$GET_STRING;
     1120     6793    1       A$GET_STRING.V_  = vector(A$GET_STRING.V);
     1121     6794    1       A$GET_STRING.CODE_ = vector(ERRCODE);
     1122     6795    1       A$GET_STRING.BUF_ = vector(TEMP_BUF);
     1123     6796    1       TEMP_BUF = ' ';
     1124     6797    2       call M$ERRMSG (A$GET_STRING) whenaltreturn do; ; end;
     1125     6798
     1126     6799    1       call searchr(IX,DUMMY,B$SR_NON_BLANK,TEMP_BUF);
     1127     6800    1       if IX > SIZEC (STRING.NAME#)
     1128     6801    1       then call XUR$ERRMSG (MSGTOOLONG);
     1129     6802    1       else STRING.L# = IX;
     1130     6803
PL6.E3A0      #008=VMD$ERRMSG File=VMD$SUBR.:VMB6TSI                             WED 08/20/97 15:13 Page:234
     1131     6804    1       call XLATE (STRING.NAME#, XL, substr(TEMP_BUF,1,STRING.L#));
     1132     6805    1       if VLR_ERRMSG.NOMSG then
     1133     6806    2       do;
     1134     6807    2           call XUR$ERRMSG (NO_ERRMSG,,, vector(STRING));
     1135     6808    2           call M$XXX;
     1136     6809    2       end;
     1137     6810    1       if addr(VECT) ~= addr(nil)
     1138     6811    1       then VECT = vector( substr(STRING.NAME#,,IX) );
     1139     6812    1       return;
     1140     6813    1   end VMD$ERRMSG;
     1141     6814        %EOD;

PL6.E3A0      #008=VMD$ERRMSG File=VMD$SUBR.:VMB6TSI                             WED 08/20/97 15:13 Page:235
--  Include file information  --

   B$TABLES_C.:LIB_E05  cannot be made into a system file and is referenced.
   B_MACROS_C.:LIB_E05  is referenced.
   VM_DATA_R.:VMB6TOU  cannot be made into a system file and is referenced.
   VM_PERR_C.:VMB6TOU  is referenced.
   XUR_ENTRY.:LIB_E05  cannot be made into a system file and is referenced.
   CP_6_C.:LIB_E05  is referenced.
   CP_6.:LIB_E05  cannot be made into a system file and is referenced.
      No diagnostics issued in procedure VMD$ERRMSG.

   Procedure VMD$ERRMSG requires 143 words for executable code.
   Procedure VMD$ERRMSG requires 72 words of local(AUTO) storage.

PL6.E3A0      #008=VMD$ERRMSG File=VMD$SUBR.:VMB6TSI                             WED 08/20/97 15:13 Page:236

 Object Unit name= VMD$ERRMSG                                 File name= VMD$SUBR.:VMB6TOU
 UTS= AUG 20 '97 15:13:55.80 WED                              Compiler= PL-6/E31         Sev=      00
 SharedLib= :SHARED_SYSTEM                                    Alt SharedLib=


    ****  Control sections  ****

 Sect   Type Bound  Init  Size OctSiz  Section name(segment info)
    0   DCB   even  none     0      0  M$UC
    1   DCB   even  none     0      0  M$MAIL_FILE
    2   DCB   even  none     0      0  M$MAIL_CENTRAL
    3   DCB   even  none     0      0  M$MAIL_GLOBAL
    4   DCB   even  none     0      0  M$WORK
    5   DCB   even  none     0      0  M$MAIL_COMGROUP
    6   DCB   even  none     0      0  M$DO
    7   DCB   even  none     0      0  M$LO
    8   DCB   even  none     0      0  M$ME
    9   DCB   even  none     0      0  M$NODE
   10   DCB   even  none     0      0  M$SI
   11  RoData even  UTS    157    235  VMD$ERRMSG
   12   Data  even  none    14     16  VMD$ERRMSG
   13   Proc  even  none   143    217  VMD$ERRMSG
   14  RoData even  none     9     11  VMD$ERRMSG

    ****  Entry defs  ****

                              Check   Calling
                             calling  sequence
  Sect OctLoc Primary Altret sequence   type   Parms  Name
    13      0   yes    yes     yes      Std        3  VMD$ERRMSG
PL6.E3A0      #008=VMD$ERRMSG File=VMD$SUBR.:VMB6TSI                             WED 08/20/97 15:13 Page:237

  ****  Entry refs  ****

         Check        Calling
        calling       sequence
Altret sequence SRef   type   Args  Name
         yes          ~proc      0 B_POINTER
 yes     yes           Std       7 XUR$ERRMSG
                       nStd      0 X66_AUTO_3
                       nStd      0 X66_ARET

  ****  Data refs  ****

  Flags:  r = read only, s = secondary
Flgs Name                             Flgs Name                             Flgs Name
     M$UC                             r    VM_HEADER$                       r    VM_PROFILE$
r    VM_ADDLIST$                      r    VM_ADDREC$                       r    VM_WORK$
r    VM_SELECT$                       r    VM_PARSEAREA$                    r    VM_INPUT$
r    VM_COPY$                              VM_ENCLLIST$                          VM_ENCLREC$
     VM_HEADER_                            VM_HEADER_INIT_                       VM_PROFILE_
     VM_ADDLIST_                           VM_ADDREC_                            VM_WORK_
     VM_SELECT_                            VM_PARSEAREA_                         VM_INPUT_
     VM_COPY_                              VM_ENCLLIST_                          VM_ENCLREC_
     M$MAIL_FILE                           M$MAIL_CENTRAL                        M$MAIL_GLOBAL
     M$WORK                                M$MAIL_COMGROUP                       M$DO
     M$LO                                  M$ME                                  M$NODE
     M$SI                                  M$MAIL_FILE_NUM                       M$MAIL_CENTRAL_NUM
     M$MAIL_GLOBAL_NUM                     M$WORK_NUM                            M$MAIL_COMGROUP_NUM
     M$DO_NUM                              M$ME_NUM                              M$LO_NUM
     M$SI_NUM                              M$NODE_NUM                       r    B$JIT$
r    B$TCB$                                VM_MAIL_ACCT                          VM_NAME_MAP_NAME
     ERRMSG_FID                            VM_SEND_FILE_NAME                     VM_FORWARD_FILE_NAME
     VM_FORWARD_ENCL_NAME                  VM_FORWARD_FILE_PASS                  VM_MAILCG_NAME
     VM_SITENAME                           VM_MAILCG_SETSTA                 r    B$SR_NON_BLANK$
PL6.E3A0      #008=VMD$ERRMSG File=VMD$SUBR.:VMB6TSI                             WED 08/20/97 15:13 Page:238

  ****  Segment refs  ****

  Flags:  r = read only, s = secondary
Flgs Name                             Flgs Name                             Flgs Name
     ISSID                                 NULLSID
PL6.E3A0      #008=VMD$ERRMSG File=VMD$SUBR.:VMB6TSI                             WED 08/20/97 15:13 Page:239


     1020        1        /*T***********************************************************/
     1021        2        /*T*                                                         */
     1022        3        /*T* Copyright (c) Bull HN Information Systems Inc., 1997    */
     1023        4        /*T*                                                         */
     1024        5        /*T***********************************************************/
     1025        6        /*X* DMC,PLM=4,IND=4,CTI=2,DTI=0,ENI=0,ECI=0,CSI=0,DCI=4 */
     1026        7        /*F*
     1027        8             NAME: VMD$ERRMSG
     1028        9             PURPOSE:
     1029       10                  To obtain the text of an errmsg.
     1030       11             DESCRIPTION:
     1031       12                  This routine is used throughtout the mail system for
     1032       13                  obtaining the text of an errmsg for subsequent use
     1033       14                  as format strings for the formatter (X$WRITE), as prompt
     1034       15                  strings for M$PROMPT, or any other language dependent
     1035       16                  literals.
     1036       17             PARAMETERS:
     1037       18                   ERRCODE - %VLP_ERRCODE - input parameter, code for msg to
     1038       19                                            obtain
     1039       20                   STRING -  %VLP_NAME    - output parameter, containing the
     1040       21                                            text of the message
     1041       22             ERROR CONDITIONS:
     1042       23                   This routine will M$XXX if a message for the code can't be
     1043       24                   found.
     1044       25                   A diagnostic message is printed if the errmsg text is longer
     1045       26                   than the declared size of STRING
     1046       27        */
     1047       28        VMD$ERRMSG: proc(ERRCODE, STRING, VECT) altret;

     28 13 000000   000000 700200 xent  VMD$ERRMSG   TSX0  ! X66_AUTO_3
        13 000001   000110 000003                    ZERO    72,3

     1048       29        %INCLUDE CP_6;
     1049     5588        %INCLUDE XUR_ENTRY;
     1050     5620        %INCLUDE VM_PERR_C;
     1051     5915        %INCLUDE VM_DATA_R;
PL6.E3A0      #008=VMD$ERRMSG File=VMD$SUBR.:VMB6TSI                             WED 08/20/97 15:13 Page:240
     1052     6346        %INCLUDE B$TABLES_C;
     1053     6454        %B$SR_NON_BLANK;
     1054     6458        /*
     1055     6459           This xlate table is used for translating double quote (") to %,
     1056     6460           since i can't figure out how to tell M$ERRMSG not to remove the
     1057     6461           % character.  It also translates & to sp.  The & character is used
     1058     6462           when trailing blanks are requested on the message string.
     1059     6463        */
     1060     6464    1   DCL 1 XL CONSTANT DALIGNED,
     1061     6465    1         2 * (0:511) UBIN BYTE CALIGNED INIT
     1062     6466    1   (0,1,2,3,4,5,6,7,8,9,10,11,12,13,14,15,16,17,18,19,20,21,22,23,24,25,
     1063     6467    1   26,27,28,29,30,31,32,33,37,35,36,37,32,39,40,41,42,43,44,45,46,47,48,
     1064     6468    1   49,50,51,52,53,54,55,56,57,58,59,60,61,62,63,64,65,66,67,68,69,70,71,
     1065     6469    1   72,73,74,75,76,77,78,79,80,81,82,83,84,85,86,87,88,89,90,91,92,93,
     1066     6470    1   94,95,96,97,98,99,100,101,102,103,104,105,106,107,108,109,110,111,
     1067     6471    1   112,113,114,115,116,117,118,119,120,121,122,123,124,125,126,127,0*0);
     1068     6472
     1069     6473        /* Parameters */
     1070     6474        %VLP_ERRCODE (FPTN=ERRCODE, STCLASS=PARAM);
     1071     6519              %VLP_NAME (FPTN=STRING, STCLASS=PARAM);
     1072     6546    1   dcl  VECT  vector aligned;
     1073     6547
     1074     6548        /* Constant dcls */
     1075     6549        %FPT_ERRMSG (FPTN=C$GET_STRING,
     1076     6550                   INCLCODE=NO,
     1077     6551                   SUBAC=NO,
     1078     6552                   SUBDC=NO,
     1079     6553                   SUBFN=NO,
     1080     6554                   SUBSN=NO,
     1081     6555                   SUBMESS=YES,
     1082     6556                   RESULTS=VLR_ERRMSG,
     1083     6557                   FILEACCT=ERRMSG_FILE_ACCT,
     1084     6558                   FILENAME=ERRMSG_FILE_NAME,
     1085     6559                   STCLASS=CONSTANT);
     1086     6586        %VLR_ERRMSG;
     1087     6608        %VLP_ACCT (FPTN=ERRMSG_FILE_ACCT);
     1088     6621        %VLP_NAME (FPTN=ERRMSG_FILE_NAME);
PL6.E3A0      #008=VMD$ERRMSG File=VMD$SUBR.:VMB6TSI                             WED 08/20/97 15:13 Page:241
     1089     6648        %VLP_ERRCODE (FPTN=NO_ERRMSG,
     1090     6649                   FCG="VM",MID="D",
     1091     6650                   ERR#=%E$NO_ERRMSG,
     1092     6651                   STCLASS=CONSTANT);
     1093     6696        /*E* ERROR: VMD-E$NO_ERRMSG-8
     1094     6697             MESSAGE:No message for code %U1, Please report this
     1095     6698                     problem to your system manager.
     1096     6699        */
     1097     6700              %VLP_ERRCODE (FPTN=MSGTOOLONG,
     1098     6701              FCG="VM",MID="D",
     1099     6702              ERR#=%E$MSGTOOLONG,
     1100     6703              STCLASS=CONSTANT);
     1101     6748        /*E* ERROR: VMD-E$MSGTOOLONG-8
     1102     6749             MESSAGE:The error message is too long, Please report this
     1103     6750                     problem to your system manager.
     1104     6751        */
     1105     6752        /* Locals */
     1106     6753              %FPT_ERRMSG (FPTN=A$GET_STRING,
     1107     6754              STCLASS=AUTO);
     1108     6781    1   dcl TEMP_BUF char(120);
     1109     6782    1   dcl DUMMY ubin;
     1110     6783    1   dcl IX ubin;
     1111     6784
     1112     6785    1       call index(IX, '.', ERRMSG_FID.NAME#);

   6785 13 000002   000000 236000 xsym               LDQ     ERRMSG_FID
        13 000003   000033 772000                    QRL     27
        13 000004   000000 620006                    EAX0    0,QL
        13 000005   000000 124440                    SCM     mask='000'O
        13 000006   000000 200010 xsym               ADSC9   ERRMSG_FID               cn=1,n=*X0
        13 000007   000000 000001 14                 ADSC9   0                        cn=0,n=1
        13 000010   200077 000100                    ARG     IX,,AUTO

     1113     6786    1       ERRMSG_FILE_NAME.L#  = IX;

   6786 13 000011   200077 236100                    LDQ     IX,,AUTO
        13 000012   000033 736000                    QLS     27
PL6.E3A0      #008=VMD$ERRMSG File=VMD$SUBR.:VMB6TSI                             WED 08/20/97 15:13 Page:242
        13 000013   000006 552040 12                 STBQ    ERRMSG_FILE_NAME,'40'O

     1114     6787    1       ERRMSG_FILE_NAME.NAME# = substr(ERRMSG_FID.NAME#, 0, IX);

   6787 13 000014   200077 721100                    LXL1    IX,,AUTO
        13 000015   040000 100440                    MLR     fill='040'O
        13 000016   000000 200011 xsym               ADSC9   ERRMSG_FID               cn=1,n=*X1
        13 000017   000006 200037 12                 ADSC9   ERRMSG_FILE_NAME         cn=1,n=31

     1115     6788    1       if IX >= ERRMSG_FID.L# - 1

   6788 13 000020   000000 236000 xsym               LDQ     ERRMSG_FID
        13 000021   000033 772000                    QRL     27
        13 000022   000001 136007                    SBLQ    1,DL
        13 000023   000027 604000 13                 TMI     s:6789
        13 000024   200077 116100                    CMPQ    IX,,AUTO
        13 000025   000027 600000 13                 TZE     s:6789
        13 000026   000033 603000 13                 TRC     s:6790

     1116     6789    1       then ERRMSG_FILE_ACCT.ACCT# = ':SYS';

   6789 13 000027   000234 235000 11                 LDA     MSGTOOLONG+1
        13 000030   000001 236000 14                 LDQ     1
        13 000031   000004 757000 12                 STAQ    ERRMSG_FILE_ACCT
        13 000032   000043 710000 13                 TRA     s:6792

     1117     6790    1       else ERRMSG_FILE_ACCT.ACCT# = substr(ERRMSG_FID.NAME#, IX+1);

   6790 13 000033   000000 636010                    EAQ     0,X0
        13 000034   000022 772000                    QRL     18
        13 000035   200077 136100                    SBLQ    IX,,AUTO
        13 000036   777777 622006                    EAX2    -1,QL
        13 000037   200077 235100                    LDA     IX,,AUTO
        13 000040   040000 100445                    MLR     fill='040'O
        13 000041   000000 400012 xsym               ADSC9   ERRMSG_FID,A             cn=2,n=*X2
        13 000042   000004 000010 12                 ADSC9   ERRMSG_FILE_ACCT         cn=0,n=8

PL6.E3A0      #008=VMD$ERRMSG File=VMD$SUBR.:VMB6TSI                             WED 08/20/97 15:13 Page:243
     1118     6791
     1119     6792    1       A$GET_STRING     = C$GET_STRING;

   6792 13 000043   000100 100400                    MLR     fill='000'O
        13 000044   000200 000150 11                 ADSC9   C$GET_STRING             cn=0,n=104
        13 000045   200006 000150                    ADSC9   A$GET_STRING,,AUTO       cn=0,n=104

     1120     6793    1       A$GET_STRING.V_  = vector(A$GET_STRING.V);

   6793 13 000046   000002 235000 14                 LDA     2
        13 000047   200100 452500                    STP2    IX+1,,AUTO
        13 000050   200100 236100                    LDQ     IX+1,,AUTO
        13 000051   000034 036003                    ADLQ    28,DU
        13 000052   200006 757100                    STAQ    A$GET_STRING,,AUTO

     1121     6794    1       A$GET_STRING.CODE_ = vector(ERRCODE);

   6794 13 000053   777640 235007                    LDA     -96,DL
        13 000054   200003 236100                    LDQ     @ERRCODE,,AUTO
        13 000055   200010 757100                    STAQ    A$GET_STRING+2,,AUTO

     1122     6795    1       A$GET_STRING.BUF_ = vector(TEMP_BUF);

   6795 13 000056   000003 235000 14                 LDA     3
        13 000057   200100 452500                    STP2    IX+1,,AUTO
        13 000060   200100 236100                    LDQ     IX+1,,AUTO
        13 000061   000040 036003                    ADLQ    32,DU
        13 000062   200012 757100                    STAQ    A$GET_STRING+4,,AUTO

     1123     6796    1       TEMP_BUF = ' ';

   6796 13 000063   040100 100400                    MLR     fill='040'O
        13 000064   000001 000001 14                 ADSC9   1                        cn=0,n=1
        13 000065   200040 000170                    ADSC9   TEMP_BUF,,AUTO           cn=0,n=120

     1124     6797    2       call M$ERRMSG (A$GET_STRING) whenaltreturn do; ; end;

PL6.E3A0      #008=VMD$ERRMSG File=VMD$SUBR.:VMB6TSI                             WED 08/20/97 15:13 Page:244
   6797 13 000066   200006 630500                    EPPR0   A$GET_STRING,,AUTO
        13 000067   420000 713400                    CLIMB   alt,+8192
        13 000070   405000 401760                    pmme    nvectors=11
        13 000071   000073 702000 13                 TSX2    s:6799
        13 000072   000073 710000 13                 TRA     s:6799

     1125     6798
     1126     6799    1       call searchr(IX,DUMMY,B$SR_NON_BLANK,TEMP_BUF);

   6799 13 000073   000000 470400 xsym               LDP0    B$SR_NON_BLANK$
        13 000074   000000 165500                    TCTR
        13 000075   200040 000170                    ADSC9   TEMP_BUF,,AUTO           cn=0,n=120
        13 000076   000000 000100                    ARG     0,,PR0
        13 000077   200077 000100                    ARG     IX,,AUTO
        13 000100   200077 235100                    LDA     IX,,AUTO
        13 000101   000033 771000                    ARL     27
        13 000102   200076 755100                    STA     DUMMY,,AUTO
        13 000103   200077 551140                    STBA    IX,'40'O,AUTO
        13 000104   000107 606400 13                 TTN     s:6800
        13 000105   000167 236007                    LDQ     119,DL
        13 000106   200077 156100                    SSQ     IX,,AUTO

     1127     6800    1       if IX > SIZEC (STRING.NAME#)

   6800 13 000107   200004 471500                    LDP1    @STRING,,AUTO
        13 000110   000100 101500                    MRL     fill='000'O
        13 000111   100000 000001                    ADSC9   0,,PR1                   cn=0,n=1
        13 000112   200100 000002                    ADSC9   IX+1,,AUTO               cn=0,n=2
        13 000113   200100 220100                    LDX0    IX+1,,AUTO
        13 000114   000000 636010                    EAQ     0,X0
        13 000115   000022 772000                    QRL     18
        13 000116   200077 116100                    CMPQ    IX,,AUTO
        13 000117   000125 603000 13                 TRC     s:6802

     1128     6801    1       then call XUR$ERRMSG (MSGTOOLONG);

   6801 13 000120   000005 630400 14                 EPPR0   5
PL6.E3A0      #008=VMD$ERRMSG File=VMD$SUBR.:VMB6TSI                             WED 08/20/97 15:13 Page:245
        13 000121   000004 631400 14                 EPPR1   4
        13 000122   000000 701000 xent               TSX1    XUR$ERRMSG
        13 000123   000000 011000                    NOP     0
        13 000124   000130 710000 13                 TRA     s:6804

     1129     6802    1       else STRING.L# = IX;

   6802 13 000125   000100 101500                    MRL     fill='000'O
        13 000126   200077 000004                    ADSC9   IX,,AUTO                 cn=0,n=4
        13 000127   100000 000001                    ADSC9   0,,PR1                   cn=0,n=1

     1130     6803
     1131     6804    1       call XLATE (STRING.NAME#, XL, substr(TEMP_BUF,1,STRING.L#));

   6804 13 000130   200004 470500                    LDP0    @STRING,,AUTO
        13 000131   000100 101500                    MRL     fill='000'O
        13 000132   000000 000001                    ADSC9   0,,PR0                   cn=0,n=1
        13 000133   200100 000002                    ADSC9   IX+1,,AUTO               cn=0,n=2
        13 000134   200100 220100                    LDX0    IX+1,,AUTO
        13 000135   000100 101500                    MRL     fill='000'O
        13 000136   000000 000001                    ADSC9   0,,PR0                   cn=0,n=1
        13 000137   200101 000002                    ADSC9   IX+2,,AUTO               cn=0,n=2
        13 000140   200101 221100                    LDX1    IX+2,,AUTO
        13 000141   040140 160540                    MVT     fill='040'O
        13 000142   200040 200011                    ADSC9   TEMP_BUF,,AUTO           cn=1,n=*X1
        13 000143   000000 200010                    ADSC9   0,,PR0                   cn=1,n=*X0
        13 000144   000000 000000 11                 ARG     XL

     1132     6805    1       if VLR_ERRMSG.NOMSG then

   6805 13 000145   000000 236000 12                 LDQ     VLR_ERRMSG
        13 000146   100000 316003                    CANQ    32768,DU
        13 000147   000176 600000 13                 TZE     s:6810

     1133     6806    2       do;

     1134     6807    2           call XUR$ERRMSG (NO_ERRMSG,,, vector(STRING));
PL6.E3A0      #008=VMD$ERRMSG File=VMD$SUBR.:VMB6TSI                             WED 08/20/97 15:13 Page:246

   6807 13 000150   000100 101500                    MRL     fill='000'O
        13 000151   000000 000001                    ADSC9   0,,PR0                   cn=0,n=1
        13 000152   200100 000002                    ADSC9   IX+1,,AUTO               cn=0,n=2
        13 000153   200100 220100                    LDX0    IX+1,,AUTO
        13 000154   000001 621010                    EAX1    1,X0
        13 000155   000000 635011                    EAA     0,X1
        13 000156   000002 771000                    ARL     2
        13 000157   000140 135007                    SBLA    96,DL
        13 000160   200004 236100                    LDQ     @STRING,,AUTO
        13 000161   200102 757100                    STAQ    IX+3,,AUTO
        13 000162   200102 631500                    EPPR1   IX+3,,AUTO
        13 000163   200107 451500                    STP1    IX+8,,AUTO
        13 000164   000007 236000 14                 LDQ     7
        13 000165   200106 756100                    STQ     IX+7,,AUTO
        13 000166   000010 235000 14                 LDA     8
        13 000167   200104 757100                    STAQ    IX+5,,AUTO
        13 000170   200104 630500                    EPPR0   IX+5,,AUTO
        13 000171   000006 631400 14                 EPPR1   6
        13 000172   000000 701000 xent               TSX1    XUR$ERRMSG
        13 000173   000000 011000                    NOP     0

     1135     6808    2           call M$XXX;

   6808 13 000174   000003 713400                    CLIMB   3
        13 000175   000000 401760                    pmme    nvectors=0

     1136     6809    2       end;

     1137     6810    1       if addr(VECT) ~= addr(nil)

   6810 13 000176   200005 236100                    LDQ     @VECT,,AUTO
        13 000177   000007 116000 14                 CMPQ    7
        13 000200   000216 600000 13                 TZE     s:6812

     1138     6811    1       then VECT = vector( substr(STRING.NAME#,,IX) );

PL6.E3A0      #008=VMD$ERRMSG File=VMD$SUBR.:VMB6TSI                             WED 08/20/97 15:13 Page:247
   6811 13 000201   200004 470500                    LDP0    @STRING,,AUTO
        13 000202   000100 101500                    MRL     fill='000'O
        13 000203   000000 000001                    ADSC9   0,,PR0                   cn=0,n=1
        13 000204   200100 000002                    ADSC9   IX+1,,AUTO               cn=0,n=2
        13 000205   200100 220100                    LDX0    IX+1,,AUTO
        13 000206   200077 235100                    LDA     IX,,AUTO
        13 000207   000020 735000                    ALS     16
        13 000210   000140 135007                    SBLA    96,DL
        13 000211   200004 236100                    LDQ     @STRING,,AUTO
        13 000212   200000 036007                    ADLQ    65536,DL
        13 000213   200005 471500                    LDP1    @VECT,,AUTO
        13 000214   100000 755100                    STA     0,,PR1
        13 000215   100001 756100                    STQ     1,,PR1

     1139     6812    1       return;

   6812 13 000216   000000 702200 xent               TSX2  ! X66_ARET

XL
 Sect OctLoc
  11     000   000001 002003   004005 006007   010011 012013   014015 016017    ................
  11     004   020021 022023   024025 026027   030031 032033   034035 036037    ................
  11     010   040041 045043   044045 040047   050051 052053   054055 056057     !%#$% '()*+,-./
  11     014   060061 062063   064065 066067   070071 072073   074075 076077    0123456789:;<=>?
  11     020   100101 102103   104105 106107   110111 112113   114115 116117    @ABCDEFGHIJKLMNO
  11     024   120121 122123   124125 126127   130131 132133   134135 136137    PQRSTUVWXYZ[\]^_
  11     030   140141 142143   144145 146147   150151 152153   154155 156157    `abcdefghijklmno
  11     034   160161 162163   164165 166167   170171 172173   174175 176177    pqrstuvwxyz{|}~.
  11     040   000000 000000   000000 000000   000000 000000   000000 000000    ................
  11     174*  000000 000000   000000 000000   000000 000000   000000 000000    ................

C$GET_STRING
 Sect OctLoc
  11     200   000003 777640   000226 006000   000000 177640   000000 006014    ................
  11     204   000000 177640   000000 006014   000007 777640   000006 006000    ................
  11     210   000001 777640   000004 006000   000000 177640   000000 006014    ................
  11     214   000000 177640   000000 006014   000000 177640   000000 006014    ................
PL6.E3A0      #008=VMD$ERRMSG File=VMD$SUBR.:VMB6TSI                             WED 08/20/97 15:13 Page:248
  11     220   000000 177640   000000 006014   000003 777640   000000 006000    ................
  11     224   000000 177640   000000 006014   000000 000000   000000 000000    ................
  11     230   201000 030001   040000 000000                                    .... ...

NO_ERRMSG
 Sect OctLoc
  11     232   261504 020160                                                    ...p

MSGTOOLONG
 Sect OctLoc
  11     233   261504 020170                                                    ...x

(unnamed)
 Sect OctLoc
  11     234   072123 131123                                                    :SYS

VLR_ERRMSG
 Sect OctLoc
  12     000   00000* ***000   000000 000000   000000 000000   ****** ******    ................

ERRMSG_FILE_ACCT
 Sect OctLoc
  12     004   040040 040040   040040 040040

ERRMSG_FILE_NAME
 Sect OctLoc
  12     006   037040 040040   040040 040040   040040 040040   040040 040040    .
  12     012   040040 040040   040040 040040   040040 040040   040040 040040

(unnamed)
 Sect OctLoc
  14     000   056040 040040   040040 040040   000003 777640   000035 777640    .       ........
  14     004   000001 000000   000233 006000   000004 000000   000000 006014    ................
  14     010   000232 006000                                                    ....
     1140     6813    1   end VMD$ERRMSG;
     1141     6814        %EOD;

PL6.E3A0      #008=VMD$ERRMSG File=VMD$SUBR.:VMB6TSI                             WED 08/20/97 15:13 Page:249
--  Include file information  --

   B$TABLES_C.:LIB_E05  cannot be made into a system file and is referenced.
   B_MACROS_C.:LIB_E05  is referenced.
   VM_DATA_R.:VMB6TOU  cannot be made into a system file and is referenced.
   VM_PERR_C.:VMB6TOU  is referenced.
   XUR_ENTRY.:LIB_E05  cannot be made into a system file and is referenced.
   CP_6_C.:LIB_E05  is referenced.
   CP_6.:LIB_E05  cannot be made into a system file and is referenced.
      No diagnostics issued in procedure VMD$ERRMSG.
PL6.E3A0      #008=VMD$ERRMSG File=VMD$SUBR.:VMB6TSI                             WED 08/20/97 15:13 Page:250

 **** Variables and constants ****

  ****  Section 011 RoData VMD$ERRMSG

  ****  Scalars and arrays  ****
OctLoc.c.b A Datatyp(siz) R M Lvl/name                 OctLoc.c.b A Datatyp(siz) R M Lvl/name

   200-0-0/d STRC(936)   r     1 C$GET_STRING             233-0-0/w STRC        r     1 MSGTOOLONG
   232-0-0/w STRC        r     1 NO_ERRMSG                  0-0-0/d STRC(4608)  r     1 XL

  ****  Section 012  Data  VMD$ERRMSG

  ****  Scalars and arrays  ****
OctLoc.c.b A Datatyp(siz) R M Lvl/name                 OctLoc.c.b A Datatyp(siz) R M Lvl/name

     4-0-0/c STRC(72)    r     1 ERRMSG_FILE_ACCT           6-0-0/c STRC(288)   r     1 ERRMSG_FILE_NAME
     0-0-0/d STRC(144)   r     1 VLR_ERRMSG

  ****  Auto variables  ****

  ****  Scalars and arrays  ****
OctLoc.c.b A Datatyp(siz) R M Lvl/name                 OctLoc.c.b A Datatyp(siz) R M Lvl/name

     3-0-0/w PTR         r     1 @ERRCODE                   4-0-0/w PTR         r     1 @STRING
     5-0-0/w PTR         r     1 @VECT                      6-0-0/d STRC(936)   r     1 A$GET_STRING
    76-0-0/w UBIN        r     1 DUMMY                     *0-0-0/w STRC        r     1 ERRCODE
    77-0-0/w UBIN        r     1 IX                        *0-0-0/c ASTR(9)     r     1 STRING
    40-0-0/c CHAR(120)   r     1 TEMP_BUF                  *0-0-0/w VECT        r     1 VECT

  ****  SYMREF variables  ****

  ****  Scalars and arrays  ****
OctLoc.c.b A Datatyp(siz) R M Lvl/name                 OctLoc.c.b A Datatyp(siz) R M Lvl/name

     0-0-0/w PTR               1 B$JIT$                     0-0-0/w PTR         r     1 B$SR_NON_BLANK$
     0-0-0/w PTR               1 B$TCB$                     0-0-0/c ASTR(9)     r     1 ERRMSG_FID
     0-0-0/w UBIN              1 M$DO_NUM                   0-0-0/w UBIN              1 M$LO_NUM
PL6.E3A0      #008=VMD$ERRMSG File=VMD$SUBR.:VMB6TSI                             WED 08/20/97 15:13 Page:251
     0-0-0/w UBIN              1 M$MAIL_CENTRAL_NUM         0-0-0/w UBIN              1 M$MAIL_COMGROUP_NUM
     0-0-0/w UBIN              1 M$MAIL_FILE_NUM            0-0-0/w UBIN              1 M$MAIL_GLOBAL_NUM
     0-0-0/w UBIN              1 M$ME_NUM                   0-0-0/w UBIN              1 M$NODE_NUM
     0-0-0/w UBIN              1 M$SI_NUM                   0-0-0/w UBIN              1 M$WORK_NUM
     0-0-0/w PTR               1 VM_ADDLIST$                0-0-0/d VECT              1 VM_ADDLIST_
     0-0-0/w PTR               1 VM_ADDREC$                 0-0-0/d VECT              1 VM_ADDREC_
     0-0-0/w PTR               1 VM_COPY$                   0-0-0/d VECT              1 VM_COPY_
     0-0-0/w PTR               1 VM_ENCLLIST$               0-0-0/d VECT              1 VM_ENCLLIST_
     0-0-0/w PTR               1 VM_ENCLREC$                0-0-0/d VECT              1 VM_ENCLREC_
     0-0-0/c STRC(270)         1 VM_FORWARD_ENCL_NAME       0-0-0/c STRC(270)         1 VM_FORWARD_FILE_NAME
     0-0-0/c STRC(72)          1 VM_FORWARD_FILE_PASS       0-0-0/w PTR               1 VM_HEADER$
     0-0-0/d VECT              1 VM_HEADER_                 0-0-0/d VECT              1 VM_HEADER_INIT_
     0-0-0/w PTR               1 VM_INPUT$                  0-0-0/d VECT              1 VM_INPUT_
     0-0-0/c STRC(72)          1 VM_MAILCG_NAME             0-0-0/w STRC(432)         1 VM_MAILCG_SETSTA
     0-0-0/c STRC(72)          1 VM_MAIL_ACCT               0-0-0/c STRC(54)          1 VM_NAME_MAP_NAME
     0-0-0/w PTR               1 VM_PARSEAREA$              0-0-0/d VECT              1 VM_PARSEAREA_
     0-0-0/w PTR               1 VM_PROFILE$                0-0-0/d VECT              1 VM_PROFILE_
     0-0-0/w PTR               1 VM_SELECT$                 0-0-0/d VECT              1 VM_SELECT_
     0-0-0/c STRC(288)         1 VM_SEND_FILE_NAME          0-0-0/c CHAR(8)           1 VM_SITENAME
     0-0-0/w PTR               1 VM_WORK$                   0-0-0/d VECT              1 VM_WORK_

  ****  BASED and DCB variables  ****

  ****  Scalars and arrays  ****
OctLoc.c.b A Datatyp(siz) R M Lvl/name                 OctLoc.c.b A Datatyp(siz) R M Lvl/name

     0-0-0/d STRC(4608)  r     1 B$SR_NON_BLANK             0-0-0N  NULL        r     1 M$DO
     0-0-0N  NULL        r     1 M$LO                       0-0-0N  NULL        r     1 M$MAIL_CENTRAL
     0-0-0N  NULL        r     1 M$MAIL_COMGROUP            0-0-0N  NULL        r     1 M$MAIL_FILE
     0-0-0N  NULL        r     1 M$MAIL_GLOBAL              0-0-0N  NULL        r     1 M$ME
     0-0-0N  NULL        r     1 M$NODE                     0-0-0N  NULL        r     1 M$SI
     0-0-0N  NULL        r     1 M$UC                       0-0-0N  NULL        r     1 M$WORK
     0-0-0/c ASTR(9)     r     1 X$STRING


   Procedure VMD$ERRMSG requires 143 words for executable code.
PL6.E3A0      #008=VMD$ERRMSG File=VMD$SUBR.:VMB6TSI                             WED 08/20/97 15:13 Page:252
   Procedure VMD$ERRMSG requires 72 words of local(AUTO) storage.
PL6.E3A0      #008=VMD$ERRMSG File=VMD$SUBR.:VMB6TSI                             WED 08/20/97 15:13 Page:253
          *** CROSS REFERENCE LISTING ***
**     DENOTES     IDENTIFIER DEFINITION
<<                 IDENTIFIER'S VALUE SET
>>                 IDENTIFIER'S VALUE USED
<>                 IDENTIFIER SET AND/OR USED
--                 IDENTIFIER REFERENCED
PL6.E3A0      #008=VMD$ERRMSG File=VMD$SUBR.:VMB6TSI                             WED 08/20/97 15:13 Page:254
          MINI XREF LISTING

A$GET_STRING
      6765**DCL      6792<<ASSIGN   6797<>CALL
A$GET_STRING.BUF_
      6765**DCL      6795<<ASSIGN
A$GET_STRING.CODE_
      6765**DCL      6794<<ASSIGN
A$GET_STRING.V
      6769**DCL      6793--ASSIGN
A$GET_STRING.V_
      6765**DCL      6793<<ASSIGN
B$SR_NON_BLANK
      6456**DCL      6799>>CALLBLT
B$SR_NON_BLANK$
      6455**DCL      6456--IMP-PTR  6799>>CALLBLT
C$GET_STRING
      6570**DCL      6792>>ASSIGN
C$GET_STRING.V
      6574**DCL      6570--DCLINIT
DUMMY
      6782**DCL      6799<<CALLBLT
ERRCODE
      6486**DCL        28--PROC     6794--ASSIGN
ERRMSG_FID.L#
      6191**DCL      6191--IMP-SIZ  6785>>CALLBLT  6787>>ASSIGN   6788>>IF       6790>>ASSIGN
ERRMSG_FID.NAME#
      6191**DCL      6785>>CALLBLT  6787>>ASSIGN   6790>>ASSIGN
ERRMSG_FILE_ACCT
      6619**DCL      6571--DCLINIT
ERRMSG_FILE_ACCT.ACCT#
      6619**DCL      6789<<ASSIGN   6790<<ASSIGN
ERRMSG_FILE_NAME
      6646**DCL      6571--DCLINIT
PL6.E3A0      #008=VMD$ERRMSG File=VMD$SUBR.:VMB6TSI                             WED 08/20/97 15:13 Page:255
ERRMSG_FILE_NAME.L#
      6646**DCL      6786<<ASSIGN
ERRMSG_FILE_NAME.NAME#
      6646**DCL      6787<<ASSIGN
IX
      6783**DCL      6785<<CALLBLT  6786>>ASSIGN   6787>>ASSIGN   6788>>IF       6790>>ASSIGN   6799<<CALLBLT
      6800>>IF       6802>>ASSIGN   6811>>ASSIGN
M$ERRMSG
      5579**DCL-ENT  6797--CALL
M$XXX
      5528**DCL-ENT  6808--CALL
MSGTOOLONG
      6715**DCL      6801<>CALL
NO_ERRMSG
      6663**DCL      6807<>CALL
STRING
      6544**DCL        28--PROC     6807--CALL
STRING.L#
      6544**DCL      6544--IMP-SIZ  6800>>IF       6802<<ASSIGN   6804>>CALLBLT  6804>>CALLBLT  6807>>CALL
      6811>>ASSIGN
STRING.NAME#
      6544**DCL      6800--IF       6804<<CALLBLT  6811--ASSIGN
TEMP_BUF
      6781**DCL      6795--ASSIGN   6796<<ASSIGN   6799>>CALLBLT  6804>>CALLBLT
VECT
      6546**DCL        28--PROC     6810--IF       6811<<ASSIGN
VLR_ERRMSG
      6597**DCL      6574--DCLINIT
VLR_ERRMSG.NOMSG
      6597**DCL      6805>>IF
X$STRING.SIZ
      6037**DCL      6038--IMP-SIZ
XL
      6464**DCL      6804>>CALLBLT
XUR$ERRMSG
      5603**DCL-ENT  6801--CALL     6807--CALL

PL6.E3A0      #009=VMD$GETNODES File=VMD$SUBR.:VMB6TSI                           WED 08/20/97 15:14 Page:256
     1142        1        /*T***********************************************************/
     1143        2        /*T*                                                         */
     1144        3        /*T* Copyright (c) Bull HN Information Systems Inc., 1997    */
     1145        4        /*T*                                                         */
     1146        5        /*T***********************************************************/
     1147        6        /*X* DMC,PLM=4,IND=4,CTI=2,DTI=0,ENI=0,ECI=0,CSI=0,DCI=4 */
     1148        7        /*P*
     1149        8          NAME: VMD$GETNODES
     1150        9          PURPOSE:
     1151       10               To select the proper set of parse nodes based on the NATL
     1152       11               flag in the JIT.
     1153       12           PARAMETERS:
     1154       13               NATL_LIST - is the parallel array of national language chars
     1155       14                           and the address of the corresponding set of parse
     1156       15                           nodes.
     1157       16               NODES$   - is the return parameter containing a pointer to the
     1158       17                          nodes for this user's native language.
     1159       18           DESCRIPTION:
     1160       19               A straightforward linear search is done of the NATL_LIST native
     1161       20               language chars until one matching that in the JIT is found. The
     1162       21               the address of the corresponding set of parse nodes is then
     1163       22               copied to PARSE_NODES.  The routine returns the basic parse
     1164       23               nodes if no match is found.
     1165       24        */
     1166       25        VMD$GETNODES:PROC(NATL_LIST, NODES$, NODEFID, NODENAMES);
     1167       26            %include B$JIT;
     1168      629            %include CP_6;
     1169     6188            %include CP_6_SUBS;
     1170     6728            %include VM_MACRO_C;
     1171     7996            %include VM_DATA_R;
     1172     8427
     1173     8428        /****  Parameters   *******/
     1174     8429
     1175     8430        %NATL_PAIRS(STCLASS=PARAM, NAME=NATL_LIST);
     1176     8448
     1177     8449    1   dcl NODES$     ptr;
     1178     8450
PL6.E3A0      #009=VMD$GETNODES File=VMD$SUBR.:VMB6TSI                           WED 08/20/97 15:14 Page:257
     1179     8451        %VLP_NAMEV( FPTN = NODEFID,            STCLASS="");
     1180     8458
     1181     8459    1   dcl 1     NODENAMES      aligned,
     1182     8460    1         2  INDX           ubin(18) caligned,
     1183     8461    1         2  L              ubin(9)  caligned,
     1184     8462    1         2  NAME           char(NODENAMES.L);
     1185     8463
     1186     8464    1   dcl  M$LM  dcb;
     1187     8465
     1188     8466        /*******  Local  data     *********/
     1189     8467
     1190     8468    1   dcl I            ubin;
     1191     8469    1   dcl CH           char(1);
     1192     8470    1   dcl CHARI        char(I) based;
     1193     8471    1   dcl GOT_SEG      sbin;
     1194     8472    1   dcl NODE_CASE    sbin;
     1195     8473    1   dcl DCB$         ptr;
     1196     8474
     1197     8475    1   dcl 1  SEGNODES       daligned based(VM_ADDREC$),
     1198     8476    1         2  WORDS(0:100)sbin aligned,
     1199     8477    1         2  CHARS       redef WORDS char(404);
     1200     8478
     1201     8479        %PARSE_NODES(NAME=NODES_TO_USE$,STCLASS="");
     1202     8514
     1203     8515        %F$DCB(STCLASS=BASED);
     1204     8572
     1205     8573
     1206     8574        /*********  External subroutines  *********/
     1207     8575
     1208     8576    1   dcl  VMA$ENLARGE_SEGMENT     entry(2) altret;
     1209     8577
     1210     8578        /**********     Fpts      *************/
     1211     8579
     1212     8580        %FPT_OPEN( FPTN = OPEN_NODEDEFS,      STCLASS=CONSTANT,
     1213     8581                   ASN  = FILE,
     1214     8582                   ACS  = DS6,
     1215     8583                   SHARE= IN,
PL6.E3A0      #009=VMD$GETNODES File=VMD$SUBR.:VMB6TSI                           WED 08/20/97 15:14 Page:258
     1216     8584                   FUN  = IN);
     1217     8693
     1218     8694        %FPT_OPEN( STCLASS="" );
     1219     8803
     1220     8804        %VLP_NAME( FPTN = NODENAME, LEN=31,   STCLASS="");
     1221     8831
     1222     8832        %VLP_ACCT( FPTN = NODEACCT,           STCLASS="");
     1223     8845
     1224     8846
     1225     8847        %FPT_GETDCB(  FPTN = GETDCB_CONST,    STCLASS=CONSTANT,
     1226     8848                      DCBNAME = NODEKEY   );
     1227     8863
     1228     8864        %FPT_GETDCB(  FPTN = GETDCB,          STCLASS="");
     1229     8879
     1230     8880
     1231     8881        %FPT_RELDCB(  FPTN = RELDCB_CONST,    STCLASS=CONSTANT);
     1232     8895        %FPT_RELDCB(  FPTN = RELDCB,          STCLASS=""      );
     1233     8909
     1234     8910        %VLP_NAME(    FPTN = NODEKEY,         STCLASS="CONSTANT",
     1235     8911                      NAME = 'NODE'                             );
     1236     8938
     1237     8939        %FPT_CLOSE(   FPTN = FPT_CLOSE_CONST, STCLASS=CONSTANT,
     1238     8940                      DISP = SAVE                               );
     1239     8982
     1240     8983        %FPT_CLOSE(   FPTN = FPT_CLOSE,       STCLASS="");
     1241     9025
     1242     9026
     1243     9027        %eject;
PL6.E3A0      #009=VMD$GETNODES File=VMD$SUBR.:VMB6TSI                           WED 08/20/97 15:14 Page:259
     1244     9028        /**************************************************************/
     1245     9029        /**                     P r o c e d u r e                    **/
     1246     9030        /**************************************************************/
     1247     9031
     1248     9032    1       CH = B$JIT.LANG;
     1249     9033    1       GOT_SEG = 0;
     1250     9034    1       NODE_CASE = 0;
     1251     9035    1       if addr(NODEFID) = addr(nil) or addr(NODENAMES) = addr(nil)
     1252     9036    1       then goto NONAMES;
     1253     9037
     1254     9038    1       NODENAME = NODEFID;
     1255     9039    2       if CH ~= ' ' then do;
     1256     9040    2           substr(NODENAME.NAME#,NODENAME.L#,1) = CH;
     1257     9041    2           NODENAME.L# = NODENAME.L# + 1;
     1258     9042    2       end;
     1259     9043    1       NODEACCT.ACCT# = B$JIT.FACCN;
     1260     9044
     1261     9045    2       if B$JIT.SWITCH(0) = '0'b then do;
     1262     9046    2           NODEACCT.ACCT# = dcbaddr( dcbnum(M$LM) )->F$DCB.ACCT#;
     1263     9047    2           NODE_CASE = 2;
     1264     9048    2       end;
     1265     9049
     1266     9050    1       FPT_OPEN = OPEN_NODEDEFS;
     1267     9051    1       FPT_OPEN.V_ = vector(FPT_OPEN.V);
     1268     9052    1       FPT_OPEN.NAME_ = vector(NODENAME);
     1269     9053    1       FPT_OPEN.ACCT_ = vector(NODEACCT);
     1270     9054
     1271     9055    1       GETDCB = GETDCB_CONST;
     1272     9056    1       GETDCB.V_ = vector(GETDCB.V);
     1273     9057    1       GETDCB.DCBNUM_ = vector(FPT_OPEN.V.DCB#);
     1274     9058
     1275     9059    1       call M$GETDCB( GETDCB ) altret(USE_CONST);
     1276     9060    1       DCB$ = dcbaddr( FPT_OPEN.V.DCB# );
     1277     9061    1   TRY_OPEN:
     1278     9062    1       call CLEANUP(1);
     1279     9063    1       call M$OPEN(FPT_OPEN)   altret(REL_DCB);
     1280     9064    1       if DCB$->F$DCB.TYPE#          ~= 'Pn'     or
PL6.E3A0      #009=VMD$GETNODES File=VMD$SUBR.:VMB6TSI                           WED 08/20/97 15:14 Page:260
     1281     9065    1         DCB$->F$DCB.ORG#           ~= %RANDOM# or
     1282     9066    1         DCB$->F$DCB.ACS#           ~= %DS6#
     1283     9067    1       then goto REL_DCB;
     1284     9068
     1285     9069    1       if (SEGNODES.WORDS(0)+1023)/1024+1 ~= DCB$->F$DCB.IXTNSIZE#  or
     1286     9070    1         SEGNODES.WORDS(1) ~= 0        or /*Mbz*/
     1287     9071    1         SEGNODES.WORDS(2) >= SEGNODES.WORDS(0)-3 or /*Uts*/
     1288     9072    1         SEGNODES.WORDS(3) >= SEGNODES.WORDS(2)-1 /*Toc*/
     1289     9073    1       then goto REL_DCB;
     1290     9074
     1291     9075    1       call SETUP_SEG_NODES altret(REL_DCB);
     1292     9076    1       return;
     1293     9077
     1294     9078    2       do while '0'b;
     1295     9079    2   REL_DCB:
     1296     9080    3           do case( NODE_CASE );
     1297     9081    3           case(0);
     1298     9082    3               NODE_CASE = NODE_CASE + 1;
     1299     9083    3               if B$JIT.ACCN = B$JIT.FACCN then goto REL_DCB;
     1300     9084    3               NODEACCT.ACCT# = B$JIT.ACCN;
     1301     9085    3               goto TRY_OPEN;
     1302     9086    3           case(1);
     1303     9087    3               NODE_CASE = NODE_CASE + 1;
     1304     9088    3               if B$JIT.ACCN = dcbaddr(dcbnum(M$LM))->F$DCB.ACCT# or
     1305     9089    3                 B$JIT.FACCN = dcbaddr(dcbnum(M$LM))->F$DCB.ACCT#
     1306     9090    3               then goto REL_DCB;
     1307     9091    3               NODEACCT.ACCT# = dcbaddr(dcbnum(M$LM))->F$DCB.ACCT#;
     1308     9092    3               goto TRY_OPEN;
     1309     9093    3           case(2);
     1310     9094    3               NODE_CASE = NODE_CASE + 1;
     1311     9095    3               if B$JIT.ACCN = ':SYS'                            or
     1312     9096    3                 B$JIT.FACCN = ':SYS'                            or
     1313     9097    3                 ':SYS'      = dcbaddr(dcbnum(M$LM))->F$DCB.ACCT#
     1314     9098    3               then goto REL_DCB;
     1315     9099    3               NODEACCT.ACCT# = ':SYS';
     1316     9100    3               goto TRY_OPEN;
     1317     9101    3           end;
PL6.E3A0      #009=VMD$GETNODES File=VMD$SUBR.:VMB6TSI                           WED 08/20/97 15:14 Page:261
     1318     9102    2   USE_CONST:
     1319     9103    2           call CLEANUP;
     1320     9104    2       end;
     1321     9105    1   NONAMES:
     1322     9106    1       call index(I, B$JIT.LANG, NATL_LIST.NATLS)
     1323     9107    2       whenaltreturn do;
     1324     9108    2           I = 0;
     1325     9109    2       end;
     1326     9110    1       NODES$ = NATL_LIST.PARSE_NODES$(I);
     1327     9111    1       return;
     1328     9112
     1329     9113        %eject;
PL6.E3A0      #009=VMD$GETNODES File=VMD$SUBR.:VMB6TSI                           WED 08/20/97 15:14 Page:262
     1330     9114
     1331     9115        /*I*    NAME:    VMD$SETUP_SEG_NODES
     1332     9116                PURPOSE: To fill the NODES_TO_USE$ array in with the
     1333     9117                         pointers to the required nodes.
     1334     9118
     1335     9119                DESCRIPTION:
     1336     9120                         The required node list is a structure of
     1337     9121                         multiple NN variables followed one after
     1338     9122                         another until the last entry which is
     1339     9123                         signified by a 0 length textc name.
     1340     9124
     1341     9125                         The nodes in memory consist of a similar
     1342     9126                         table with the offset of the node definition
     1343     9127                         from the start of the segment as the first
     1344     9128                         2 bytes (instead of the index in NODES_TO_USE$).
     1345     9129
     1346     9130                         If a required node name is not found, this
     1347     9131                         subroutine altreturns.  It assumes that the
     1348     9132                         basic validity tests for the parse nodes have
     1349     9133                         been made before it starts.
     1350     9134        */
     1351     9135
     1352     9136    1   SETUP_SEG_NODES: proc altret;
     1353     9137
     1354     9138
     1355     9139        /* *    NAME:          Nn
     1356     9140                PURPOSE:       To define a required node name.
     1357     9141
     1358     9142                DESCRIPTION:   This structure is passed to VMD$GETNODES.
     1359     9143                               The passed structure contains multiple
     1360     9144                               entries, following each other until an
     1361     9145                               entry with a name length of 0 is found.
     1362     9146
     1363     9147                               Each entry contains the index to store
     1364     9148                               the pointer to this node in NODES_TO_USE$
     1365     9149                               the length of the node name and the text
     1366     9150                               of the node name.
PL6.E3A0      #009=VMD$GETNODES File=VMD$SUBR.:VMB6TSI                           WED 08/20/97 15:14 Page:263
     1367     9151        */
     1368     9152    2   dcl 1  NN             caligned based(NN$),
     1369     9153        /**     The nodename entry we are looking up.  **/
     1370     9154    2         2  INDX        ubin(18) caligned,
     1371     9155    2         2  L           ubin(9)  caligned,
     1372     9156    2         2  NAME        char(NN.L)  caligned;
     1373     9157
     1374     9158
     1375     9159        /* *    NAME:          Nentry
     1376     9160                PURPOSE:       To define the available node names.
     1377     9161
     1378     9162                DESCRIPTION:   The memory resident version of the nodes
     1379     9163                               contains a pointer to the list of node
     1380     9164                               names (and their offsets) in the third word
     1381     9165                               of the nodes.  The half word at this offset
     1382     9166                               contains the number of names in the list.
     1383     9167                               The name/offset table begins 2 bytes after
     1384     9168                               the number of names in the list.
     1385     9169
     1386     9170                               For each name in the list, the nentry
     1387     9171                               structure is used to locate the name of the
     1388     9172                               node and its offset from the beginning of
     1389     9173                               the node segment.
     1390     9174        */
     1391     9175    2   dcl 1  NENTRY         caligned based(CN$),
     1392     9176        /**     The node position table entry          **/
     1393     9177    2         2  OFFSET      ubin(18) caligned, /** Offset of node   **/
     1394     9178    2         2  L           ubin(9)  caligned, /** Length of name   **/
     1395     9179    2         2  NAME        char(NENTRY.L)  caligned;
     1396     9180
     1397     9181    2   dcl  NN$               ptr;             /**  Pointer to nn entry we need.   */
     1398     9182    2   dcl  SN$               ptr;             /**  Start of nentry table          */
     1399     9183    2   dcl  CN$               ptr;             /**  Current nentry                 */
     1400     9184
     1401     9185    2   dcl  INDX              sbin;
     1402     9186    2   dcl  I                 sbin;
     1403     9187    2   dcl  NLEN              sbin;            /** Number of names in nentry       */
PL6.E3A0      #009=VMD$GETNODES File=VMD$SUBR.:VMB6TSI                           WED 08/20/97 15:14 Page:264
     1404     9188
     1405     9189        /**************************************************************/
     1406     9190        /**                    P r o c e d u r e                     **/
     1407     9191        /**************************************************************/
     1408     9192
     1409     9193    2       NN$ = addr(NODENAMES);             /** Names of nodes we must locate   */
     1410     9194
     1411     9195        /**  Now look at the nodes we have read           */
     1412     9196    2       SN$ = pincrw( ADDR(SEGNODES), SEGNODES.WORDS(3) );
     1413     9197        /**  Now we are pointing at the names and offsets of the nodes
     1414     9198             that we have just read in.                                    **/
     1415     9199    2       NLEN = SN$->NENTRY.OFFSET;         /** Total number of definitions    **/
     1416     9200    2       SN$  = pincrc(SN$,2);              /** Point at first definition      **/
     1417     9201
     1418     9202    3       do while( NN.L > 0  );
     1419     9203        /**  For each node that we need....      **/
     1420     9204    3           INDX = NN.INDX;
     1421     9205    3           CN$ = SN$;
     1422     9206    3           I  = NLEN;
     1423     9207
     1424     9208    3   LOOKUP:
     1425     9209    4           do while I > 0;
     1426     9210        /**  Look through the names of the nodes that we have  **/
     1427     9211    4               if NENTRY.NAME = NN.NAME
     1428     9212    4               then goto FOUND;
     1429     9213
     1430     9214    4               CN$ = pincrc(CN$,3+NENTRY.L);
     1431     9215    4               I = I - 1;
     1432     9216    4           end;
     1433     9217
     1434     9218    3           altreturn;                    /** Can't find a required node!  **/
     1435     9219
     1436     9220    3   FOUND:
     1437     9221    3           NODES_TO_USE$( INDX ) = pincrw(addr(SEGNODES),NENTRY.OFFSET);
     1438     9222    3           NN$ = pincrc(NN$, 3 + NN.L);
     1439     9223    3       end;
     1440     9224
PL6.E3A0      #009=VMD$GETNODES File=VMD$SUBR.:VMB6TSI                           WED 08/20/97 15:14 Page:265
     1441     9225    2       NODES$ = addr( NODES_TO_USE$ );
     1442     9226                       /***********  Set the error message fid to this account  *******/
     1443     9227    2       call index(I,'.',ERRMSG_FID.NAME#);
     1444     9228    2       substr(ERRMSG_FID.NAME#,I+1) = NODEACCT.ACCT#;
     1445     9229    2       return;
     1446     9230
     1447     9231    2   end SETUP_SEG_NODES;
     1448     9232        %eject;
PL6.E3A0      #009=VMD$GETNODES File=VMD$SUBR.:VMB6TSI                           WED 08/20/97 15:14 Page:266
     1449     9233
     1450     9234        /*I*    NAME:       VMD$CLEANUP
     1451     9235                PURPOSE:    To close the current dcb and optionally
     1452     9236                            release it.
     1453     9237
     1454     9238                DESCRIPTION:   The only parameter indicates that the
     1455     9239                               dcb in FPT_OPEN.V.DCB# is only to be
     1456     9240                               closed if its value is not equal to 0.
     1457     9241
     1458     9242                               The dcb in FPT_OPEN.V.DCB# is closed if
     1459     9243                               it is open and optionally released.
     1460     9244        */
     1461     9245    1   CLEANUP: proc(CLOSEONLY);
     1462     9246
     1463     9247    2   dcl  CLOSEONLY      sbin;
     1464     9248
     1465     9249    3       if FPT_OPEN.V.DCB# ~= 0 then do;
     1466     9250    4           if dcbaddr( FPT_OPEN.V.DCB# )->F$DCB.FCD#='1'b then do;
     1467     9251    4               FPT_CLOSE = FPT_CLOSE_CONST;
     1468     9252    4               FPT_CLOSE.V_ = vector(FPT_CLOSE.V);
     1469     9253    4               FPT_CLOSE.V.DCB# = FPT_OPEN.V.DCB#;
     1470     9254    5               call M$CLOSE( FPT_CLOSE ) whenaltreturn do; ; end;
     1471     9255    4           end;
     1472     9256    3           if addr(CLOSEONLY) ~= addr(nil) and CLOSEONLY ~= 0
     1473     9257    3           then return;
     1474     9258
     1475     9259    3           RELDCB  = RELDCB_CONST;
     1476     9260    3           RELDCB.V_ = vector(RELDCB.V);
     1477     9261    3           RELDCB.V.DCB# = FPT_OPEN.V.DCB#;
     1478     9262    4           call M$RELDCB( RELDCB ) whenaltreturn do; ; end;
     1479     9263    3       end;
     1480     9264    2       FPT_OPEN.V.DCB# = 0;
     1481     9265    2       return;
     1482     9266
     1483     9267    2   end CLEANUP;
     1484     9268    1   END VMD$GETNODES;

PL6.E3A0      #009=VMD$GETNODES File=VMD$SUBR.:VMB6TSI                           WED 08/20/97 15:14 Page:267
--  Include file information  --

   B_MACROS_C.:LIB_E05  is referenced.
   VM_DATA_R.:VMB6TOU  cannot be made into a system file and is referenced.
   VM_MACRO_C.:VMB6TOU  is referenced.
   CP_6_SUBS.:LIB_E05  is referenced.
   CP_6_C.:LIB_E05  is referenced.
   CP_6.:LIB_E05  cannot be made into a system file and is referenced.
   B$JIT_C.:LIB_E05  is referenced.
   B$JIT.:LIB_E05  cannot be made into a system file and is referenced.
      No diagnostics issued in procedure VMD$GETNODES.

   Procedure VMD$GETNODES requires 356 words for executable code.
   Procedure VMD$GETNODES requires 162 words of local(AUTO) storage.

    No errors detected in file VMD$SUBR.:VMB6TSI    .

PL6.E3A0      #009=VMD$GETNODES File=VMD$SUBR.:VMB6TSI                           WED 08/20/97 15:14 Page:268

 Object Unit name= VMD$GETNODES                               File name= VMD$SUBR.:VMB6TOU
 UTS= AUG 20 '97 15:14:10.24 WED                              Compiler= PL-6/E31         Sev=      00
 SharedLib= :SHARED_SYSTEM                                    Alt SharedLib=


    ****  Control sections  ****

 Sect   Type Bound  Init  Size OctSiz  Section name(segment info)
    0   DCB   even  none     0      0  M$UC
    1   DCB   even  none     0      0  M$MAIL_FILE
    2   DCB   even  none     0      0  M$MAIL_CENTRAL
    3   DCB   even  none     0      0  M$MAIL_GLOBAL
    4   DCB   even  none     0      0  M$WORK
    5   DCB   even  none     0      0  M$MAIL_COMGROUP
    6   DCB   even  none     0      0  M$DO
    7   DCB   even  none     0      0  M$LO
    8   DCB   even  none     0      0  M$ME
    9   DCB   even  none     0      0  M$NODE
   10   DCB   even  none     0      0  M$SI
   11   DCB   even  none     0      0  M$LM
   12  RoData even  UTS    104    150  VMD$GETNODES
   13   Proc  even  none   356    544  VMD$GETNODES
   14  RoData even  none    11     13  VMD$GETNODES

    ****  Entry defs  ****

                              Check   Calling
                             calling  sequence
  Sect OctLoc Primary Altret sequence   type   Parms  Name
    13      0   yes            yes      Std        4  VMD$GETNODES
PL6.E3A0      #009=VMD$GETNODES File=VMD$SUBR.:VMB6TSI                           WED 08/20/97 15:14 Page:269

  ****  Entry refs  ****

         Check        Calling
        calling       sequence
Altret sequence SRef   type   Args  Name
                       nStd      0 X66_AUTO_4
                       nStd      0 X66_ARET

  ****  Data refs  ****

  Flags:  r = read only, s = secondary
Flgs Name                             Flgs Name                             Flgs Name
     M$UC                             r    VM_HEADER$                       r    VM_PROFILE$
r    VM_ADDLIST$                      r    VM_ADDREC$                       r    VM_WORK$
r    VM_SELECT$                       r    VM_PARSEAREA$                    r    VM_INPUT$
r    VM_COPY$                              VM_ENCLLIST$                          VM_ENCLREC$
     VM_HEADER_                            VM_HEADER_INIT_                       VM_PROFILE_
     VM_ADDLIST_                           VM_ADDREC_                            VM_WORK_
     VM_SELECT_                            VM_PARSEAREA_                         VM_INPUT_
     VM_COPY_                              VM_ENCLLIST_                          VM_ENCLREC_
     M$MAIL_FILE                           M$MAIL_CENTRAL                        M$MAIL_GLOBAL
     M$WORK                                M$MAIL_COMGROUP                       M$DO
     M$LO                                  M$ME                                  M$NODE
     M$SI                                  M$MAIL_FILE_NUM                       M$MAIL_CENTRAL_NUM
     M$MAIL_GLOBAL_NUM                     M$WORK_NUM                            M$MAIL_COMGROUP_NUM
     M$DO_NUM                              M$ME_NUM                              M$LO_NUM
     M$SI_NUM                              M$NODE_NUM                       r    B$JIT$
r    B$TCB$                                VM_MAIL_ACCT                          VM_NAME_MAP_NAME
     ERRMSG_FID                            VM_SEND_FILE_NAME                     VM_FORWARD_FILE_NAME
     VM_FORWARD_ENCL_NAME                  VM_FORWARD_FILE_PASS                  VM_MAILCG_NAME
     VM_SITENAME                           VM_MAILCG_SETSTA                      M$LM
PL6.E3A0      #009=VMD$GETNODES File=VMD$SUBR.:VMB6TSI                           WED 08/20/97 15:14 Page:270

  ****  Segment refs  ****

  Flags:  r = read only, s = secondary
Flgs Name                             Flgs Name                             Flgs Name
     ISSID                                 NULLSID                               ROSID
PL6.E3A0      #009=VMD$GETNODES File=VMD$SUBR.:VMB6TSI                           WED 08/20/97 15:14 Page:271


     1142        1        /*T***********************************************************/
     1143        2        /*T*                                                         */
     1144        3        /*T* Copyright (c) Bull HN Information Systems Inc., 1997    */
     1145        4        /*T*                                                         */
     1146        5        /*T***********************************************************/
     1147        6        /*X* DMC,PLM=4,IND=4,CTI=2,DTI=0,ENI=0,ECI=0,CSI=0,DCI=4 */
     1148        7        /*P*
     1149        8          NAME: VMD$GETNODES
     1150        9          PURPOSE:
     1151       10               To select the proper set of parse nodes based on the NATL
     1152       11               flag in the JIT.
     1153       12           PARAMETERS:
     1154       13               NATL_LIST - is the parallel array of national language chars
     1155       14                           and the address of the corresponding set of parse
     1156       15                           nodes.
     1157       16               NODES$   - is the return parameter containing a pointer to the
     1158       17                          nodes for this user's native language.
     1159       18           DESCRIPTION:
     1160       19               A straightforward linear search is done of the NATL_LIST native
     1161       20               language chars until one matching that in the JIT is found. The
     1162       21               the address of the corresponding set of parse nodes is then
     1163       22               copied to PARSE_NODES.  The routine returns the basic parse
     1164       23               nodes if no match is found.
     1165       24        */
     1166       25        VMD$GETNODES:PROC(NATL_LIST, NODES$, NODEFID, NODENAMES);

     25 13 000000   000000 700200 xent  VMD$GETNODES TSX0  ! X66_AUTO_4
        13 000001   000242 000004                    ZERO    162,4

     1167       26            %include B$JIT;
     1168      629            %include CP_6;
     1169     6188            %include CP_6_SUBS;
     1170     6728            %include VM_MACRO_C;
     1171     7996            %include VM_DATA_R;
     1172     8427
     1173     8428        /****  Parameters   *******/
PL6.E3A0      #009=VMD$GETNODES File=VMD$SUBR.:VMB6TSI                           WED 08/20/97 15:14 Page:272
     1174     8429
     1175     8430        %NATL_PAIRS(STCLASS=PARAM, NAME=NATL_LIST);
     1176     8448
     1177     8449    1   dcl NODES$     ptr;
     1178     8450
     1179     8451        %VLP_NAMEV( FPTN = NODEFID,            STCLASS="");
     1180     8458
     1181     8459    1   dcl 1     NODENAMES      aligned,
     1182     8460    1         2  INDX           ubin(18) caligned,
     1183     8461    1         2  L              ubin(9)  caligned,
     1184     8462    1         2  NAME           char(NODENAMES.L);
     1185     8463
     1186     8464    1   dcl  M$LM  dcb;
     1187     8465
     1188     8466        /*******  Local  data     *********/
     1189     8467
     1190     8468    1   dcl I            ubin;
     1191     8469    1   dcl CH           char(1);
     1192     8470    1   dcl CHARI        char(I) based;
     1193     8471    1   dcl GOT_SEG      sbin;
     1194     8472    1   dcl NODE_CASE    sbin;
     1195     8473    1   dcl DCB$         ptr;
     1196     8474
     1197     8475    1   dcl 1  SEGNODES       daligned based(VM_ADDREC$),
     1198     8476    1         2  WORDS(0:100)sbin aligned,
     1199     8477    1         2  CHARS       redef WORDS char(404);
     1200     8478
     1201     8479        %PARSE_NODES(NAME=NODES_TO_USE$,STCLASS="");
     1202     8514
     1203     8515        %F$DCB(STCLASS=BASED);
     1204     8572
     1205     8573
     1206     8574        /*********  External subroutines  *********/
     1207     8575
     1208     8576    1   dcl  VMA$ENLARGE_SEGMENT     entry(2) altret;
     1209     8577
     1210     8578        /**********     Fpts      *************/
PL6.E3A0      #009=VMD$GETNODES File=VMD$SUBR.:VMB6TSI                           WED 08/20/97 15:14 Page:273
     1211     8579
     1212     8580        %FPT_OPEN( FPTN = OPEN_NODEDEFS,      STCLASS=CONSTANT,
     1213     8581                   ASN  = FILE,
     1214     8582                   ACS  = DS6,
     1215     8583                   SHARE= IN,
     1216     8584                   FUN  = IN);
     1217     8693
     1218     8694        %FPT_OPEN( STCLASS="" );
     1219     8803
     1220     8804        %VLP_NAME( FPTN = NODENAME, LEN=31,   STCLASS="");
     1221     8831
     1222     8832        %VLP_ACCT( FPTN = NODEACCT,           STCLASS="");
     1223     8845
     1224     8846
     1225     8847        %FPT_GETDCB(  FPTN = GETDCB_CONST,    STCLASS=CONSTANT,
     1226     8848                      DCBNAME = NODEKEY   );
     1227     8863
     1228     8864        %FPT_GETDCB(  FPTN = GETDCB,          STCLASS="");
     1229     8879
     1230     8880
     1231     8881        %FPT_RELDCB(  FPTN = RELDCB_CONST,    STCLASS=CONSTANT);
     1232     8895        %FPT_RELDCB(  FPTN = RELDCB,          STCLASS=""      );
     1233     8909
     1234     8910        %VLP_NAME(    FPTN = NODEKEY,         STCLASS="CONSTANT",
     1235     8911                      NAME = 'NODE'                             );
     1236     8938
     1237     8939        %FPT_CLOSE(   FPTN = FPT_CLOSE_CONST, STCLASS=CONSTANT,
     1238     8940                      DISP = SAVE                               );
     1239     8982
     1240     8983        %FPT_CLOSE(   FPTN = FPT_CLOSE,       STCLASS="");
     1241     9025
     1242     9026
     1243     9027        %eject;
PL6.E3A0      #009=VMD$GETNODES File=VMD$SUBR.:VMB6TSI                           WED 08/20/97 15:14 Page:274
     1244     9028        /**************************************************************/
     1245     9029        /**                     P r o c e d u r e                    **/
     1246     9030        /**************************************************************/
     1247     9031
     1248     9032    1       CH = B$JIT.LANG;

   9032 13 000002   000000 470400 xsym               LDP0    B$JIT$
        13 000003   000145 236100                    LDQ     101,,PR0
        13 000004   000033 736000                    QLS     27
        13 000005   000000 276000 14                 ORQ     0
        13 000006   200010 756100                    STQ     CH,,AUTO

     1249     9033    1       GOT_SEG = 0;

   9033 13 000007   200011 450100                    STZ     GOT_SEG,,AUTO

     1250     9034    1       NODE_CASE = 0;

   9034 13 000010   200012 450100                    STZ     NODE_CASE,,AUTO

     1251     9035    1       if addr(NODEFID) = addr(nil) or addr(NODENAMES) = addr(nil)

   9035 13 000011   200005 236100                    LDQ     @NODEFID,,AUTO
        13 000012   000001 116000 14                 CMPQ    1
        13 000013   000277 600000 13                 TZE     NONAMES
        13 000014   200006 236100                    LDQ     @NODENAMES,,AUTO
        13 000015   000001 116000 14                 CMPQ    1
        13 000016   000277 600000 13                 TZE     NONAMES

     1252     9036    1       then goto NONAMES;
     1253     9037
     1254     9038    1       NODENAME = NODEFID;

   9038 13 000017   200005 471500                    LDP1    @NODEFID,,AUTO
        13 000020   000100 101500                    MRL     fill='000'O
        13 000021   100000 000001                    ADSC9   0,,PR1                   cn=0,n=1
        13 000022   200240 000002                    ADSC9   NLEN+2,,AUTO             cn=0,n=2
PL6.E3A0      #009=VMD$GETNODES File=VMD$SUBR.:VMB6TSI                           WED 08/20/97 15:14 Page:275
        13 000023   200240 220100                    LDX0    NLEN+2,,AUTO
        13 000024   000001 621010                    EAX1    1,X0
        13 000025   000100 100540                    MLR     fill='000'O
        13 000026   100000 000011                    ADSC9   0,,PR1                   cn=0,n=*X1
        13 000027   200144 000040                    ADSC9   NODENAME,,AUTO           cn=0,n=32

     1255     9039    2       if CH ~= ' ' then do;

   9039 13 000030   200010 236100                    LDQ     CH,,AUTO
        13 000031   777000 376003                    ANQ     -512,DU
        13 000032   040000 116003                    CMPQ    16384,DU
        13 000033   000044 600000 13                 TZE     s:9043

     1256     9040    2           substr(NODENAME.NAME#,NODENAME.L#,1) = CH;

   9040 13 000034   200144 236100                    LDQ     NODENAME,,AUTO
        13 000035   000033 772000                    QRL     27
        13 000036   040106 100500                    MLR     fill='040'O
        13 000037   200010 000001                    ADSC9   CH,,AUTO                 cn=0,n=1
        13 000040   200144 200001                    ADSC9   NODENAME,Q,AUTO          cn=1,n=1

     1257     9041    2           NODENAME.L# = NODENAME.L# + 1;

   9041 13 000041   200144 236100                    LDQ     NODENAME,,AUTO
        13 000042   001000 036003                    ADLQ    512,DU
        13 000043   200144 552140                    STBQ    NODENAME,'40'O,AUTO

     1258     9042    2       end;

     1259     9043    1       NODEACCT.ACCT# = B$JIT.FACCN;

   9043 13 000044   000006 237100                    LDAQ    6,,PR0
        13 000045   200154 757100                    STAQ    NODEACCT,,AUTO

     1260     9044
     1261     9045    2       if B$JIT.SWITCH(0) = '0'b then do;

PL6.E3A0      #009=VMD$GETNODES File=VMD$SUBR.:VMB6TSI                           WED 08/20/97 15:14 Page:276
   9045 13 000046   000031 234100                    SZN     25,,PR0
        13 000047   000060 604000 13                 TMI     s:9050

     1262     9046    2           NODEACCT.ACCT# = dcbaddr( dcbnum(M$LM) )->F$DCB.ACCT#;

   9046 13 000050   000000 236007 xsym               LDQ     M$LM,DL
        13 000051   000002 473400 14                 LDP3    2
        13 000052   300000 474500                    LDP4    0,,PR3
        13 000053   400000 475506                    LDP5    0,QL,PR4
        13 000054   500020 237100                    LDAQ    16,,PR5
        13 000055   200154 757100                    STAQ    NODEACCT,,AUTO

     1263     9047    2           NODE_CASE = 2;

   9047 13 000056   000002 235007                    LDA     2,DL
        13 000057   200012 755100                    STA     NODE_CASE,,AUTO

     1264     9048    2       end;

     1265     9049
     1266     9050    1       FPT_OPEN = OPEN_NODEDEFS;

   9050 13 000060   000100 100400                    MLR     fill='000'O
        13 000061   000000 000350 12                 ADSC9   OPEN_NODEDEFS            cn=0,n=232
        13 000062   200052 000350                    ADSC9   FPT_OPEN,,AUTO           cn=0,n=232

     1267     9051    1       FPT_OPEN.V_ = vector(FPT_OPEN.V);

   9051 13 000063   000003 235000 14                 LDA     3
        13 000064   200240 452500                    STP2    NLEN+2,,AUTO
        13 000065   200240 236100                    LDQ     NLEN+2,,AUTO
        13 000066   000116 036003                    ADLQ    78,DU
        13 000067   200052 757100                    STAQ    FPT_OPEN,,AUTO

     1268     9052    1       FPT_OPEN.NAME_ = vector(NODENAME);

   9052 13 000070   000004 235000 14                 LDA     4
PL6.E3A0      #009=VMD$GETNODES File=VMD$SUBR.:VMB6TSI                           WED 08/20/97 15:14 Page:277
        13 000071   200240 452500                    STP2    NLEN+2,,AUTO
        13 000072   200240 236100                    LDQ     NLEN+2,,AUTO
        13 000073   000144 036003                    ADLQ    100,DU
        13 000074   200060 757100                    STAQ    FPT_OPEN+6,,AUTO

     1269     9053    1       FPT_OPEN.ACCT_ = vector(NODEACCT);

   9053 13 000075   000005 235000 14                 LDA     5
        13 000076   200240 452500                    STP2    NLEN+2,,AUTO
        13 000077   200240 236100                    LDQ     NLEN+2,,AUTO
        13 000100   000154 036003                    ADLQ    108,DU
        13 000101   200076 757100                    STAQ    FPT_OPEN+20,,AUTO

     1270     9054
     1271     9055    1       GETDCB = GETDCB_CONST;

   9055 13 000102   000100 100400                    MLR     fill='000'O
        13 000103   000072 000040 12                 ADSC9   GETDCB_CONST             cn=0,n=32
        13 000104   200156 000040                    ADSC9   GETDCB,,AUTO             cn=0,n=32

     1272     9056    1       GETDCB.V_ = vector(GETDCB.V);

   9056 13 000105   000005 235000 14                 LDA     5
        13 000106   200240 452500                    STP2    NLEN+2,,AUTO
        13 000107   200240 236100                    LDQ     NLEN+2,,AUTO
        13 000110   000164 036003                    ADLQ    116,DU
        13 000111   200156 757100                    STAQ    GETDCB,,AUTO

     1273     9057    1       GETDCB.DCBNUM_ = vector(FPT_OPEN.V.DCB#);

   9057 13 000112   377640 235007                    LDA     130976,DL
        13 000113   200240 452500                    STP2    NLEN+2,,AUTO
        13 000114   200240 236100                    LDQ     NLEN+2,,AUTO
        13 000115   000116 036003                    ADLQ    78,DU
        13 000116   200162 757100                    STAQ    GETDCB+4,,AUTO

     1274     9058
PL6.E3A0      #009=VMD$GETNODES File=VMD$SUBR.:VMB6TSI                           WED 08/20/97 15:14 Page:278
     1275     9059    1       call M$GETDCB( GETDCB ) altret(USE_CONST);

   9059 13 000117   200156 630500                    EPPR0   GETDCB,,AUTO
        13 000120   460002 713400                    CLIMB   alt,+24578
        13 000121   401000 401760                    pmme    nvectors=3
        13 000122   000273 702000 13                 TSX2    USE_CONST

     1276     9060    1       DCB$ = dcbaddr( FPT_OPEN.V.DCB# );

   9060 13 000123   000002 470400 14                 LDP0    2
        13 000124   000000 471500                    LDP1    0,,PR0
        13 000125   200116 220100                    LDX0    FPT_OPEN+36,,AUTO
        13 000126   100000 236110                    LDQ     0,X0,PR1
        13 000127   200013 756100                    STQ     DCB$,,AUTO

     1277     9061    1   TRY_OPEN:
     1278     9062    1       call CLEANUP(1);

   9062 13 000130   000007 236000 14    TRY_OPEN     LDQ     7
        13 000131   200231 756100                    STQ     FPT_CLOSE+31,,AUTO
        13 000132   000462 701000 13                 TSX1    CLEANUP
        13 000133   000000 011000                    NOP     0

     1279     9063    1       call M$OPEN(FPT_OPEN)   altret(REL_DCB);

   9063 13 000134   200052 630500                    EPPR0   FPT_OPEN,,AUTO
        13 000135   450000 713400                    CLIMB   alt,open
        13 000136   410400 401760                    pmme    nvectors=18
        13 000137   000200 702000 13                 TSX2    REL_DCB

     1280     9064    1       if DCB$->F$DCB.TYPE#          ~= 'Pn'     or

   9064 13 000140   200013 470500                    LDP0    DCB$,,AUTO
        13 000141   000025 720100                    LXL0    21,,PR0
        13 000142   000146 100000 12                 CMPX0   FPT_CLOSE_CONST+30
        13 000143   000200 601000 13                 TNZ     REL_DCB
        13 000144   000032 236100                    LDQ     26,,PR0
PL6.E3A0      #009=VMD$GETNODES File=VMD$SUBR.:VMB6TSI                           WED 08/20/97 15:14 Page:279
        13 000145   777000 376003                    ANQ     -512,DU
        13 000146   003000 116003                    CMPQ    1536,DU
        13 000147   000200 601000 13                 TNZ     REL_DCB
        13 000150   000036 236100                    LDQ     30,,PR0
        13 000151   000777 376007                    ANQ     511,DL
        13 000152   000011 116007                    CMPQ    9,DL
        13 000153   000200 601000 13                 TNZ     REL_DCB

     1281     9065    1         DCB$->F$DCB.ORG#           ~= %RANDOM# or
     1282     9066    1         DCB$->F$DCB.ACS#           ~= %DS6#
     1283     9067    1       then goto REL_DCB;
     1284     9068
     1285     9069    1       if (SEGNODES.WORDS(0)+1023)/1024+1 ~= DCB$->F$DCB.IXTNSIZE#  or

   9069 13 000154   000000 471400 xsym               LDP1    VM_ADDREC$
        13 000155   100000 236100                    LDQ     0,,PR1
        13 000156   001777 036007                    ADLQ    1023,DL
        13 000157   002000 506007                    DIV     1024,DL
        13 000160   000001 036007                    ADLQ    1,DL
        13 000161   000041 116100                    CMPQ    33,,PR0
        13 000162   000200 601000 13                 TNZ     REL_DCB
        13 000163   100001 235100                    LDA     1,,PR1
        13 000164   000200 601000 13                 TNZ     REL_DCB
        13 000165   100000 236100                    LDQ     0,,PR1
        13 000166   000003 136007                    SBLQ    3,DL
        13 000167   100002 116100                    CMPQ    2,,PR1
        13 000170   000200 604400 13                 TMOZ    REL_DCB
        13 000171   100002 236100                    LDQ     2,,PR1
        13 000172   000001 136007                    SBLQ    1,DL
        13 000173   100003 116100                    CMPQ    3,,PR1
        13 000174   000200 604400 13                 TMOZ    REL_DCB

     1286     9070    1         SEGNODES.WORDS(1) ~= 0        or /*Mbz*/
     1287     9071    1         SEGNODES.WORDS(2) >= SEGNODES.WORDS(0)-3 or /*Uts*/
     1288     9072    1         SEGNODES.WORDS(3) >= SEGNODES.WORDS(2)-1 /*Toc*/
     1289     9073    1       then goto REL_DCB;
     1290     9074
PL6.E3A0      #009=VMD$GETNODES File=VMD$SUBR.:VMB6TSI                           WED 08/20/97 15:14 Page:280
     1291     9075    1       call SETUP_SEG_NODES altret(REL_DCB);

   9075 13 000175   000316 701000 13                 TSX1    SETUP_SEG_NODES
        13 000176   000200 702000 13                 TSX2    REL_DCB

     1292     9076    1       return;

   9076 13 000177   000000 702200 xent               TSX2  ! X66_ARET

     1293     9077
     1294     9078    2       do while '0'b;

     1295     9079    2   REL_DCB:
     1296     9080    3           do case( NODE_CASE );

   9080 13 000200   200012 235100       REL_DCB      LDA     NODE_CASE,,AUTO
        13 000201   000003 115007                    CMPA    3,DL
        13 000202   000204 602005 13                 TNC     REL_DCB+4,AL
        13 000203   000273 710000 13                 TRA     USE_CONST
        13 000204   000207 710000 13                 TRA     s:9082
        13 000205   000221 710000 13                 TRA     s:9087
        13 000206   000245 710000 13                 TRA     s:9094

     1297     9081    3           case(0);

     1298     9082    3               NODE_CASE = NODE_CASE + 1;

   9082 13 000207   200012 054100                    AOS     NODE_CASE,,AUTO

     1299     9083    3               if B$JIT.ACCN = B$JIT.FACCN then goto REL_DCB;

   9083 13 000210   000000 470400 xsym               LDP0    B$JIT$
        13 000211   040100 106500                    CMPC    fill='040'O
        13 000212   000001 000010                    ADSC9   1,,PR0                   cn=0,n=8
        13 000213   000006 000010                    ADSC9   6,,PR0                   cn=0,n=8
        13 000214   000200 600000 13                 TZE     REL_DCB

PL6.E3A0      #009=VMD$GETNODES File=VMD$SUBR.:VMB6TSI                           WED 08/20/97 15:14 Page:281
     1300     9084    3               NODEACCT.ACCT# = B$JIT.ACCN;

   9084 13 000215   040100 100500                    MLR     fill='040'O
        13 000216   000001 000010                    ADSC9   1,,PR0                   cn=0,n=8
        13 000217   200154 000010                    ADSC9   NODEACCT,,AUTO           cn=0,n=8

     1301     9085    3               goto TRY_OPEN;

   9085 13 000220   000130 710000 13                 TRA     TRY_OPEN

     1302     9086    3           case(1);

     1303     9087    3               NODE_CASE = NODE_CASE + 1;

   9087 13 000221   200012 054100                    AOS     NODE_CASE,,AUTO

     1304     9088    3               if B$JIT.ACCN = dcbaddr(dcbnum(M$LM))->F$DCB.ACCT# or

   9088 13 000222   000000 236007 xsym               LDQ     M$LM,DL
        13 000223   000002 470400 14                 LDP0    2
        13 000224   000000 471500                    LDP1    0,,PR0
        13 000225   100000 473506                    LDP3    0,QL,PR1
        13 000226   000000 474400 xsym               LDP4    B$JIT$
        13 000227   040100 106500                    CMPC    fill='040'O
        13 000230   400001 000010                    ADSC9   1,,PR4                   cn=0,n=8
        13 000231   300020 000010                    ADSC9   16,,PR3                  cn=0,n=8
        13 000232   000200 600000 13                 TZE     REL_DCB
        13 000233   000000 236007 xsym               LDQ     M$LM,DL
        13 000234   100000 473506                    LDP3    0,QL,PR1
        13 000235   400006 237100                    LDAQ    6,,PR4
        13 000236   300020 117100                    CMPAQ   16,,PR3
        13 000237   000200 600000 13                 TZE     REL_DCB

     1305     9089    3                 B$JIT.FACCN = dcbaddr(dcbnum(M$LM))->F$DCB.ACCT#
     1306     9090    3               then goto REL_DCB;
     1307     9091    3               NODEACCT.ACCT# = dcbaddr(dcbnum(M$LM))->F$DCB.ACCT#;

PL6.E3A0      #009=VMD$GETNODES File=VMD$SUBR.:VMB6TSI                           WED 08/20/97 15:14 Page:282
   9091 13 000240   000000 236007 xsym               LDQ     M$LM,DL
        13 000241   100000 473506                    LDP3    0,QL,PR1
        13 000242   300020 237100                    LDAQ    16,,PR3
        13 000243   200154 757100                    STAQ    NODEACCT,,AUTO

     1308     9092    3               goto TRY_OPEN;

   9092 13 000244   000130 710000 13                 TRA     TRY_OPEN

     1309     9093    3           case(2);

     1310     9094    3               NODE_CASE = NODE_CASE + 1;

   9094 13 000245   200012 054100                    AOS     NODE_CASE,,AUTO

     1311     9095    3               if B$JIT.ACCN = ':SYS'                            or

   9095 13 000246   000000 470400 xsym               LDP0    B$JIT$
        13 000247   040000 106500                    CMPC    fill='040'O
        13 000250   000001 000010                    ADSC9   1,,PR0                   cn=0,n=8
        13 000251   000147 000004 12                 ADSC9   FPT_CLOSE_CONST+31       cn=0,n=4
        13 000252   000200 600000 13                 TZE     REL_DCB
        13 000253   040000 106500                    CMPC    fill='040'O
        13 000254   000006 000010                    ADSC9   6,,PR0                   cn=0,n=8
        13 000255   000147 000004 12                 ADSC9   FPT_CLOSE_CONST+31       cn=0,n=4
        13 000256   000200 600000 13                 TZE     REL_DCB
        13 000257   000000 236007 xsym               LDQ     M$LM,DL
        13 000260   000002 471400 14                 LDP1    2
        13 000261   100000 473500                    LDP3    0,,PR1
        13 000262   300000 474506                    LDP4    0,QL,PR3
        13 000263   040100 106400                    CMPC    fill='040'O
        13 000264   000147 000004 12                 ADSC9   FPT_CLOSE_CONST+31       cn=0,n=4
        13 000265   400020 000010                    ADSC9   16,,PR4                  cn=0,n=8
        13 000266   000200 600000 13                 TZE     REL_DCB

     1312     9096    3                 B$JIT.FACCN = ':SYS'                            or
     1313     9097    3                 ':SYS'      = dcbaddr(dcbnum(M$LM))->F$DCB.ACCT#
PL6.E3A0      #009=VMD$GETNODES File=VMD$SUBR.:VMB6TSI                           WED 08/20/97 15:14 Page:283
     1314     9098    3               then goto REL_DCB;
     1315     9099    3               NODEACCT.ACCT# = ':SYS';

   9099 13 000267   000147 235000 12                 LDA     FPT_CLOSE_CONST+31
        13 000270   000010 236000 14                 LDQ     8
        13 000271   200154 757100                    STAQ    NODEACCT,,AUTO

     1316     9100    3               goto TRY_OPEN;

   9100 13 000272   000130 710000 13                 TRA     TRY_OPEN

     1317     9101    3           end;

     1318     9102    2   USE_CONST:
     1319     9103    2           call CLEANUP;

   9103 13 000273   000001 236000 14    USE_CONST    LDQ     1
        13 000274   200231 756100                    STQ     FPT_CLOSE+31,,AUTO
        13 000275   000462 701000 13                 TSX1    CLEANUP
        13 000276   000000 011000                    NOP     0

     1320     9104    2       end;

     1321     9105    1   NONAMES:
     1322     9106    1       call index(I, B$JIT.LANG, NATL_LIST.NATLS)

   9106 13 000277   200003 470500       NONAMES      LDP0    @NATL_LIST,,AUTO
        13 000300   000000 471400 xsym               LDP1    B$JIT$
        13 000301   000100 124500                    SCM     mask='000'O
        13 000302   000000 000005                    ADSC9   0,,PR0                   cn=0,n=5
        13 000303   100145 600001                    ADSC9   101,,PR1                 cn=3,n=1
        13 000304   200007 000100                    ARG     I,,AUTO
        13 000305   000307 606400 13                 TTN     s:9108
        13 000306   000310 710000 13                 TRA     s:9110

     1323     9107    2       whenaltreturn do;

PL6.E3A0      #009=VMD$GETNODES File=VMD$SUBR.:VMB6TSI                           WED 08/20/97 15:14 Page:284
     1324     9108    2           I = 0;

   9108 13 000307   200007 450100                    STZ     I,,AUTO

     1325     9109    2       end;

     1326     9110    1       NODES$ = NATL_LIST.PARSE_NODES$(I);

   9110 13 000310   200003 470500                    LDP0    @NATL_LIST,,AUTO
        13 000311   200007 720100                    LXL0    I,,AUTO
        13 000312   000002 236110                    LDQ     2,X0,PR0
        13 000313   200004 471500                    LDP1    @NODES$,,AUTO
        13 000314   100000 756100                    STQ     0,,PR1

     1327     9111    1       return;

   9111 13 000315   000000 702200 xent               TSX2  ! X66_ARET

     1328     9112
     1329     9113        %eject;
PL6.E3A0      #009=VMD$GETNODES File=VMD$SUBR.:VMB6TSI                           WED 08/20/97 15:14 Page:285
     1330     9114
     1331     9115        /*I*    NAME:    VMD$SETUP_SEG_NODES
     1332     9116                PURPOSE: To fill the NODES_TO_USE$ array in with the
     1333     9117                         pointers to the required nodes.
     1334     9118
     1335     9119                DESCRIPTION:
     1336     9120                         The required node list is a structure of
     1337     9121                         multiple NN variables followed one after
     1338     9122                         another until the last entry which is
     1339     9123                         signified by a 0 length textc name.
     1340     9124
     1341     9125                         The nodes in memory consist of a similar
     1342     9126                         table with the offset of the node definition
     1343     9127                         from the start of the segment as the first
     1344     9128                         2 bytes (instead of the index in NODES_TO_USE$).
     1345     9129
     1346     9130                         If a required node name is not found, this
     1347     9131                         subroutine altreturns.  It assumes that the
     1348     9132                         basic validity tests for the parse nodes have
     1349     9133                         been made before it starts.
     1350     9134        */
     1351     9135
     1352     9136    1   SETUP_SEG_NODES: proc altret;

   9136 13 000316   200230 741300       SETUP_SEG_N* STX1  ! FPT_CLOSE+30,,AUTO

     1353     9137
     1354     9138
     1355     9139        /* *    NAME:          Nn
     1356     9140                PURPOSE:       To define a required node name.
     1357     9141
     1358     9142                DESCRIPTION:   This structure is passed to VMD$GETNODES.
     1359     9143                               The passed structure contains multiple
     1360     9144                               entries, following each other until an
     1361     9145                               entry with a name length of 0 is found.
     1362     9146
     1363     9147                               Each entry contains the index to store
PL6.E3A0      #009=VMD$GETNODES File=VMD$SUBR.:VMB6TSI                           WED 08/20/97 15:14 Page:286
     1364     9148                               the pointer to this node in NODES_TO_USE$
     1365     9149                               the length of the node name and the text
     1366     9150                               of the node name.
     1367     9151        */
     1368     9152    2   dcl 1  NN             caligned based(NN$),
     1369     9153        /**     The nodename entry we are looking up.  **/
     1370     9154    2         2  INDX        ubin(18) caligned,
     1371     9155    2         2  L           ubin(9)  caligned,
     1372     9156    2         2  NAME        char(NN.L)  caligned;
     1373     9157
     1374     9158
     1375     9159        /* *    NAME:          Nentry
     1376     9160                PURPOSE:       To define the available node names.
     1377     9161
     1378     9162                DESCRIPTION:   The memory resident version of the nodes
     1379     9163                               contains a pointer to the list of node
     1380     9164                               names (and their offsets) in the third word
     1381     9165                               of the nodes.  The half word at this offset
     1382     9166                               contains the number of names in the list.
     1383     9167                               The name/offset table begins 2 bytes after
     1384     9168                               the number of names in the list.
     1385     9169
     1386     9170                               For each name in the list, the nentry
     1387     9171                               structure is used to locate the name of the
     1388     9172                               node and its offset from the beginning of
     1389     9173                               the node segment.
     1390     9174        */
     1391     9175    2   dcl 1  NENTRY         caligned based(CN$),
     1392     9176        /**     The node position table entry          **/
     1393     9177    2         2  OFFSET      ubin(18) caligned, /** Offset of node   **/
     1394     9178    2         2  L           ubin(9)  caligned, /** Length of name   **/
     1395     9179    2         2  NAME        char(NENTRY.L)  caligned;
     1396     9180
     1397     9181    2   dcl  NN$               ptr;             /**  Pointer to nn entry we need.   */
     1398     9182    2   dcl  SN$               ptr;             /**  Start of nentry table          */
     1399     9183    2   dcl  CN$               ptr;             /**  Current nentry                 */
     1400     9184
PL6.E3A0      #009=VMD$GETNODES File=VMD$SUBR.:VMB6TSI                           WED 08/20/97 15:14 Page:287
     1401     9185    2   dcl  INDX              sbin;
     1402     9186    2   dcl  I                 sbin;
     1403     9187    2   dcl  NLEN              sbin;            /** Number of names in nentry       */
     1404     9188
     1405     9189        /**************************************************************/
     1406     9190        /**                    P r o c e d u r e                     **/
     1407     9191        /**************************************************************/
     1408     9192
     1409     9193    2       NN$ = addr(NODENAMES);             /** Names of nodes we must locate   */

   9193 13 000317   200006 236100                    LDQ     @NODENAMES,,AUTO
        13 000320   200231 756100                    STQ     NN$,,AUTO

     1410     9194
     1411     9195        /**  Now look at the nodes we have read           */
     1412     9196    2       SN$ = pincrw( ADDR(SEGNODES), SEGNODES.WORDS(3) );

   9196 13 000321   000000 470400 xsym               LDP0    VM_ADDREC$
        13 000322   000003 236100                    LDQ     3,,PR0
        13 000323   000022 736000                    QLS     18
        13 000324   000000 036000 xsym               ADLQ    VM_ADDREC$
        13 000325   200232 756100                    STQ     SN$,,AUTO

     1413     9197        /**  Now we are pointing at the names and offsets of the nodes
     1414     9198             that we have just read in.                                    **/
     1415     9199    2       NLEN = SN$->NENTRY.OFFSET;         /** Total number of definitions    **/

   9199 13 000326   200232 471500                    LDP1    SN$,,AUTO
        13 000327   000100 101500                    MRL     fill='000'O
        13 000330   100000 000002                    ADSC9   0,,PR1                   cn=0,n=2
        13 000331   200236 000004                    ADSC9   NLEN,,AUTO               cn=0,n=4

     1416     9200    2       SN$  = pincrc(SN$,2);              /** Point at first definition      **/

   9200 13 000332   400000 036007                    ADLQ    -131072,DL
        13 000333   200232 756100                    STQ     SN$,,AUTO

PL6.E3A0      #009=VMD$GETNODES File=VMD$SUBR.:VMB6TSI                           WED 08/20/97 15:14 Page:288
     1417     9201
     1418     9202    3       do while( NN.L > 0  );

   9202 13 000334   200231 471500                    LDP1    NN$,,AUTO
        13 000335   000100 101500                    MRL     fill='000'O
        13 000336   100000 400001                    ADSC9   0,,PR1                   cn=2,n=1
        13 000337   200240 000004                    ADSC9   NLEN+2,,AUTO             cn=0,n=4
        13 000340   200240 236100                    LDQ     NLEN+2,,AUTO
        13 000341   000000 116003                    CMPQ    0,DU
        13 000342   000436 600000 13                 TZE     s:9225

     1419     9203        /**  For each node that we need....      **/
     1420     9204    3           INDX = NN.INDX;

   9204 13 000343   200231 470500                    LDP0    NN$,,AUTO
        13 000344   000100 101500                    MRL     fill='000'O
        13 000345   000000 000002                    ADSC9   0,,PR0                   cn=0,n=2
        13 000346   200234 000004                    ADSC9   INDX,,AUTO               cn=0,n=4

     1421     9205    3           CN$ = SN$;

   9205 13 000347   200232 236100                    LDQ     SN$,,AUTO
        13 000350   200233 756100                    STQ     CN$,,AUTO

     1422     9206    3           I  = NLEN;

   9206 13 000351   200236 235100                    LDA     NLEN,,AUTO
        13 000352   200235 755100                    STA     I,,AUTO

     1423     9207
     1424     9208    3   LOOKUP:
     1425     9209    4           do while I > 0;

   9209 13 000353   000405 604400 13    LOOKUP       TMOZ    s:9218

     1426     9210        /**  Look through the names of the nodes that we have  **/
     1427     9211    4               if NENTRY.NAME = NN.NAME
PL6.E3A0      #009=VMD$GETNODES File=VMD$SUBR.:VMB6TSI                           WED 08/20/97 15:14 Page:289

   9211 13 000354   200233 470500                    LDP0    CN$,,AUTO
        13 000355   000100 101500                    MRL     fill='000'O
        13 000356   000000 400001                    ADSC9   0,,PR0                   cn=2,n=1
        13 000357   200240 000002                    ADSC9   NLEN+2,,AUTO             cn=0,n=2
        13 000360   200240 220100                    LDX0    NLEN+2,,AUTO
        13 000361   200231 471500                    LDP1    NN$,,AUTO
        13 000362   000100 101500                    MRL     fill='000'O
        13 000363   100000 400001                    ADSC9   0,,PR1                   cn=2,n=1
        13 000364   200241 000002                    ADSC9   NLEN+3,,AUTO             cn=0,n=2
        13 000365   200241 221100                    LDX1    NLEN+3,,AUTO
        13 000366   040140 106540                    CMPC    fill='040'O
        13 000367   000000 600010                    ADSC9   0,,PR0                   cn=3,n=*X0
        13 000370   100000 600011                    ADSC9   0,,PR1                   cn=3,n=*X1
        13 000371   000407 600000 13                 TZE     FOUND

     1428     9212    4               then goto FOUND;
     1429     9213
     1430     9214    4               CN$ = pincrc(CN$,3+NENTRY.L);

   9214 13 000372   000100 101500                    MRL     fill='000'O
        13 000373   000000 400001                    ADSC9   0,,PR0                   cn=2,n=1
        13 000374   200240 000004                    ADSC9   NLEN+2,,AUTO             cn=0,n=4
        13 000375   200240 236100                    LDQ     NLEN+2,,AUTO
        13 000376   000020 736000                    QLS     16
        13 000377   600000 036007                    ADLQ    -65536,DL
        13 000400   200233 036100                    ADLQ    CN$,,AUTO
        13 000401   200233 756100                    STQ     CN$,,AUTO

     1431     9215    4               I = I - 1;

   9215 13 000402   000001 336007                    LCQ     1,DL
        13 000403   200235 056100                    ASQ     I,,AUTO

     1432     9216    4           end;

   9216 13 000404   000354 605400 13                 TPNZ    s:9211
PL6.E3A0      #009=VMD$GETNODES File=VMD$SUBR.:VMB6TSI                           WED 08/20/97 15:14 Page:290

     1433     9217
     1434     9218    3           altreturn;                    /** Can't find a required node!  **/

   9218 13 000405   200230 221300                    LDX1  ! FPT_CLOSE+30,,AUTO
        13 000406   000000 702211                    TSX2  ! 0,X1

     1435     9219
     1436     9220    3   FOUND:
     1437     9221    3           NODES_TO_USE$( INDX ) = pincrw(addr(SEGNODES),NENTRY.OFFSET);

   9221 13 000407   000100 100500       FOUND        MLR     fill='000'O
        13 000410   000000 000002                    ADSC9   0,,PR0                   cn=0,n=2
        13 000411   200240 000004                    ADSC9   NLEN+2,,AUTO             cn=0,n=4
        13 000412   200240 220100                    LDX0    NLEN+2,,AUTO
        13 000413   000000 636010                    EAQ     0,X0
        13 000414   000000 036000 xsym               ADLQ    VM_ADDREC$
        13 000415   200234 722100                    LXL2    INDX,,AUTO
        13 000416   200014 756112                    STQ     NODES_TO_USE$,X2,AUTO

     1438     9222    3           NN$ = pincrc(NN$, 3 + NN.L);

   9222 13 000417   000100 101500                    MRL     fill='000'O
        13 000420   100000 400001                    ADSC9   0,,PR1                   cn=2,n=1
        13 000421   200240 000004                    ADSC9   NLEN+2,,AUTO             cn=0,n=4
        13 000422   200240 236100                    LDQ     NLEN+2,,AUTO
        13 000423   000020 736000                    QLS     16
        13 000424   600000 036007                    ADLQ    -65536,DL
        13 000425   200231 036100                    ADLQ    NN$,,AUTO
        13 000426   200231 756100                    STQ     NN$,,AUTO

     1439     9223    3       end;

   9223 13 000427   200231 471500                    LDP1    NN$,,AUTO
        13 000430   000100 101500                    MRL     fill='000'O
        13 000431   100000 400001                    ADSC9   0,,PR1                   cn=2,n=1
        13 000432   200240 000004                    ADSC9   NLEN+2,,AUTO             cn=0,n=4
PL6.E3A0      #009=VMD$GETNODES File=VMD$SUBR.:VMB6TSI                           WED 08/20/97 15:14 Page:291
        13 000433   200240 236100                    LDQ     NLEN+2,,AUTO
        13 000434   000000 116003                    CMPQ    0,DU
        13 000435   000343 601000 13                 TNZ     s:9204

     1440     9224
     1441     9225    2       NODES$ = addr( NODES_TO_USE$ );

   9225 13 000436   200014 630500                    EPPR0   NODES_TO_USE$,,AUTO
        13 000437   200004 473500                    LDP3    @NODES$,,AUTO
        13 000440   300000 450500                    STP0    0,,PR3

     1442     9226                       /***********  Set the error message fid to this account  *******/
     1443     9227    2       call index(I,'.',ERRMSG_FID.NAME#);

   9227 13 000441   000000 236000 xsym               LDQ     ERRMSG_FID
        13 000442   000033 772000                    QRL     27
        13 000443   000000 620006                    EAX0    0,QL
        13 000444   000000 124440                    SCM     mask='000'O
        13 000445   000000 200010 xsym               ADSC9   ERRMSG_FID               cn=1,n=*X0
        13 000446   000011 000001 14                 ADSC9   9                        cn=0,n=1
        13 000447   200235 000100                    ARG     I,,AUTO

     1444     9228    2       substr(ERRMSG_FID.NAME#,I+1) = NODEACCT.ACCT#;

   9228 13 000450   000000 636010                    EAQ     0,X0
        13 000451   000022 772000                    QRL     18
        13 000452   200235 136100                    SBLQ    I,,AUTO
        13 000453   777777 621006                    EAX1    -1,QL
        13 000454   200235 235100                    LDA     I,,AUTO
        13 000455   040045 100500                    MLR     fill='040'O
        13 000456   200154 000010                    ADSC9   NODEACCT,,AUTO           cn=0,n=8
        13 000457   000000 400011 xsym               ADSC9   ERRMSG_FID,A             cn=2,n=*X1

     1445     9229    2       return;

   9229 13 000460   200230 221300                    LDX1  ! FPT_CLOSE+30,,AUTO
        13 000461   000001 702211                    TSX2  ! 1,X1
PL6.E3A0      #009=VMD$GETNODES File=VMD$SUBR.:VMB6TSI                           WED 08/20/97 15:14 Page:292

     1446     9230
     1447     9231    2   end SETUP_SEG_NODES;
     1448     9232        %eject;
PL6.E3A0      #009=VMD$GETNODES File=VMD$SUBR.:VMB6TSI                           WED 08/20/97 15:14 Page:293
     1449     9233
     1450     9234        /*I*    NAME:       VMD$CLEANUP
     1451     9235                PURPOSE:    To close the current dcb and optionally
     1452     9236                            release it.
     1453     9237
     1454     9238                DESCRIPTION:   The only parameter indicates that the
     1455     9239                               dcb in FPT_OPEN.V.DCB# is only to be
     1456     9240                               closed if its value is not equal to 0.
     1457     9241
     1458     9242                               The dcb in FPT_OPEN.V.DCB# is closed if
     1459     9243                               it is open and optionally released.
     1460     9244        */
     1461     9245    1   CLEANUP: proc(CLOSEONLY);

   9245 13 000462   200230 741300       CLEANUP      STX1  ! FPT_CLOSE+30,,AUTO

     1462     9246
     1463     9247    2   dcl  CLOSEONLY      sbin;
     1464     9248
     1465     9249    3       if FPT_OPEN.V.DCB# ~= 0 then do;

   9249 13 000463   200116 220100                    LDX0    FPT_OPEN+36,,AUTO
        13 000464   000540 600000 13                 TZE     s:9264

     1466     9250    4           if dcbaddr( FPT_OPEN.V.DCB# )->F$DCB.FCD#='1'b then do;

   9250 13 000465   000002 470400 14                 LDP0    2
        13 000466   000000 471500                    LDP1    0,,PR0
        13 000467   100000 473510                    LDP3    0,X0,PR1
        13 000470   300031 236100                    LDQ     25,,PR3
        13 000471   020000 316007                    CANQ    8192,DL
        13 000472   000511 600000 13                 TZE     s:9256

     1467     9251    4               FPT_CLOSE = FPT_CLOSE_CONST;

   9251 13 000473   000100 100400                    MLR     fill='000'O
        13 000474   000110 000170 12                 ADSC9   FPT_CLOSE_CONST          cn=0,n=120
PL6.E3A0      #009=VMD$GETNODES File=VMD$SUBR.:VMB6TSI                           WED 08/20/97 15:14 Page:294
        13 000475   200172 000170                    ADSC9   FPT_CLOSE,,AUTO          cn=0,n=120

     1468     9252    4               FPT_CLOSE.V_ = vector(FPT_CLOSE.V);

   9252 13 000476   000012 235000 14                 LDA     10
        13 000477   200240 452500                    STP2    NLEN+2,,AUTO
        13 000500   200240 236100                    LDQ     NLEN+2,,AUTO
        13 000501   000224 036003                    ADLQ    148,DU
        13 000502   200172 757100                    STAQ    FPT_CLOSE,,AUTO

     1469     9253    4               FPT_CLOSE.V.DCB# = FPT_OPEN.V.DCB#;

   9253 13 000503   200224 740100                    STX0    FPT_CLOSE+26,,AUTO

     1470     9254    5               call M$CLOSE( FPT_CLOSE ) whenaltreturn do; ; end;

   9254 13 000504   200172 630500                    EPPR0   FPT_CLOSE,,AUTO
        13 000505   450001 713400                    CLIMB   alt,close
        13 000506   406000 401760                    pmme    nvectors=13
        13 000507   000511 702000 13                 TSX2    s:9256
        13 000510   000511 710000 13                 TRA     s:9256

     1471     9255    4           end;

     1472     9256    3           if addr(CLOSEONLY) ~= addr(nil) and CLOSEONLY ~= 0

   9256 13 000511   200231 236100                    LDQ     @CLOSEONLY,,AUTO
        13 000512   000001 116000 14                 CMPQ    1
        13 000513   000521 600000 13                 TZE     s:9259
        13 000514   200231 470500                    LDP0    @CLOSEONLY,,AUTO
        13 000515   000000 235100                    LDA     0,,PR0
        13 000516   000521 600000 13                 TZE     s:9259

     1473     9257    3           then return;

   9257 13 000517   200230 221300                    LDX1  ! FPT_CLOSE+30,,AUTO
        13 000520   000001 702211                    TSX2  ! 1,X1
PL6.E3A0      #009=VMD$GETNODES File=VMD$SUBR.:VMB6TSI                           WED 08/20/97 15:14 Page:295

     1474     9258
     1475     9259    3           RELDCB  = RELDCB_CONST;

   9259 13 000521   000100 100400                    MLR     fill='000'O
        13 000522   000102 000020 12                 ADSC9   RELDCB_CONST             cn=0,n=16
        13 000523   200166 000020                    ADSC9   RELDCB,,AUTO             cn=0,n=16

     1476     9260    3           RELDCB.V_ = vector(RELDCB.V);

   9260 13 000524   000005 235000 14                 LDA     5
        13 000525   200240 452500                    STP2    NLEN+2,,AUTO
        13 000526   200240 236100                    LDQ     NLEN+2,,AUTO
        13 000527   000170 036003                    ADLQ    120,DU
        13 000530   200166 757100                    STAQ    RELDCB,,AUTO

     1477     9261    3           RELDCB.V.DCB# = FPT_OPEN.V.DCB#;

   9261 13 000531   200116 220100                    LDX0    FPT_OPEN+36,,AUTO
        13 000532   200170 740100                    STX0    RELDCB+2,,AUTO

     1478     9262    4           call M$RELDCB( RELDCB ) whenaltreturn do; ; end;

   9262 13 000533   200166 630500                    EPPR0   RELDCB,,AUTO
        13 000534   460003 713400                    CLIMB   alt,+24579
        13 000535   400000 401760                    pmme    nvectors=1
        13 000536   000540 702000 13                 TSX2    s:9264
        13 000537   000540 710000 13                 TRA     s:9264

     1479     9263    3       end;

     1480     9264    2       FPT_OPEN.V.DCB# = 0;

   9264 13 000540   000000 220003                    LDX0    0,DU
        13 000541   200116 740100                    STX0    FPT_OPEN+36,,AUTO

     1481     9265    2       return;
PL6.E3A0      #009=VMD$GETNODES File=VMD$SUBR.:VMB6TSI                           WED 08/20/97 15:14 Page:296

   9265 13 000542   200230 221300                    LDX1  ! FPT_CLOSE+30,,AUTO
        13 000543   000001 702211                    TSX2  ! 1,X1

OPEN_NODEDEFS
 Sect OctLoc
  12     000   000025 777640   000044 006000   000000 177640   000000 006014    .....$..........
  12     004   000000 177640   000000 006014   000000 177640   000000 006014    ................
  12     044*  000000 000062   000000 002001   252525 000011   000040 252520    ...2......... ..
  12     050   000040 040040   000000 000000   000000 777777   000000 000000    .   ............
  12     054   000000 000000   000000 000000   000000 000000   000000 000000    ................
  12     060   251000 622000   000000 000000   000000 000000   111250 000000    ............I...
  12     064   040040 040040   000000 000000   000000 000000   000000 000000        ............
  12     070   000000 000000   ****** ******                                    ........

GETDCB_CONST
 Sect OctLoc
  12     072   000001 777640   000100 006000   000001 177640   000106 006000    .....@.......F..
  12     076   000000 177640   000000 006014   000000 000000   000000 000000    ................

RELDCB_CONST
 Sect OctLoc
  12     102   000001 777640   000104 006000   000000 000000   000000 000000    .....D..........

NODEKEY
 Sect OctLoc
  12     106   004116 117104   105*** ******                                    .NODE...

FPT_CLOSE_CONST
 Sect OctLoc
  12     110   000003 777640   000142 006000   000000 177640   000000 006014    .....b..........
  12     114   000000 177640   000000 006014   000000 177640   000000 006014    ................
  12     140*  000000 177640   000000 006014   000000 000002   000000 000040    ...............
  12     144   000220 000000   000000 000000                                    ........

(unnamed)
 Sect OctLoc
PL6.E3A0      #009=VMD$GETNODES File=VMD$SUBR.:VMB6TSI                           WED 08/20/97 15:14 Page:297
  12     146   120156 040040   072123 131123                                    Pn  :SYS

(unnamed)
 Sect OctLoc
  14     000   000040 040040   000000 006014   000000 006003   000025 777640    .   ............
  14     004   000007 777640   000001 777640   000000 000001   000006 006000    ................
  14     010   040040 040040   056040 040040   000003 777640                        .   ....
     1482     9266
     1483     9267    2   end CLEANUP;
     1484     9268    1   END VMD$GETNODES;

PL6.E3A0      #009=VMD$GETNODES File=VMD$SUBR.:VMB6TSI                           WED 08/20/97 15:14 Page:298
--  Include file information  --

   B_MACROS_C.:LIB_E05  is referenced.
   VM_DATA_R.:VMB6TOU  cannot be made into a system file and is referenced.
   VM_MACRO_C.:VMB6TOU  is referenced.
   CP_6_SUBS.:LIB_E05  is referenced.
   CP_6_C.:LIB_E05  is referenced.
   CP_6.:LIB_E05  cannot be made into a system file and is referenced.
   B$JIT_C.:LIB_E05  is referenced.
   B$JIT.:LIB_E05  cannot be made into a system file and is referenced.
      No diagnostics issued in procedure VMD$GETNODES.
PL6.E3A0      #009=VMD$GETNODES File=VMD$SUBR.:VMB6TSI                           WED 08/20/97 15:14 Page:299

 **** Variables and constants ****

  ****  Section 012 RoData VMD$GETNODES

  ****  Scalars and arrays  ****
OctLoc.c.b A Datatyp(siz) R M Lvl/name                 OctLoc.c.b A Datatyp(siz) R M Lvl/name

   110-0-0/d STRC(1080)  r     1 FPT_CLOSE_CONST           72-0-0/d STRC(288)   r     1 GETDCB_CONST
   106-0-0/c STRC(45)    r     1 NODEKEY                    0-0-0/d STRC(2088)  r     1 OPEN_NODEDEFS
   102-0-0/d STRC(144)   r     1 RELDCB_CONST

  ****  Auto variables  ****

  ****  Scalars and arrays  ****
OctLoc.c.b A Datatyp(siz) R M Lvl/name                 OctLoc.c.b A Datatyp(siz) R M Lvl/name

   231-0-0/w PTR         r     1 @CLOSEONLY                 3-0-0/w PTR         r     1 @NATL_LIST
     5-0-0/w PTR         r     1 @NODEFID                   6-0-0/w PTR         r     1 @NODENAMES
     4-0-0/w PTR         r     1 @NODES$                   10-0-0/c CHAR        r     1 CH
    *0-0-0/w SBIN        r     1 CLOSEONLY                233-0-0/w PTR         r     1 CN$
    13-0-0/w PTR         r     1 DCB$                     172-0-0/d STRC(1080)  r     1 FPT_CLOSE
    52-0-0/d STRC(2088)  r     1 FPT_OPEN                 156-0-0/d STRC(288)   r     1 GETDCB
    11-0-0/w SBIN        r     1 GOT_SEG                    7-0-0/w UBIN        r     1 I
   235-0-0/w SBIN        r     1 I                        234-0-0/w SBIN        r     1 INDX
    *0-0-0/w STRC(252)   r     1 NATL_LIST                236-0-0/w SBIN        r     1 NLEN
   231-0-0/w PTR         r     1 NN$                      154-0-0/c STRC(72)    r     1 NODEACCT
    *0-0-0/c ASTR(9)     r     1 NODEFID                  144-0-0/c STRC(288)   r     1 NODENAME
    *0-0-0/w ASTR(27)    r     1 NODENAMES                 *0-0-0/w PTR         r     1 NODES$
    14-0-0/w PTR         r     1 NODES_TO_USE$(0:29)
    12-0-0/w SBIN        r     1 NODE_CASE                166-0-0/d STRC(144)   r     1 RELDCB
   232-0-0/w PTR         r     1 SN$

  ****  SYMREF variables  ****

  ****  Scalars and arrays  ****
OctLoc.c.b A Datatyp(siz) R M Lvl/name                 OctLoc.c.b A Datatyp(siz) R M Lvl/name

PL6.E3A0      #009=VMD$GETNODES File=VMD$SUBR.:VMB6TSI                           WED 08/20/97 15:14 Page:300
     0-0-0/w PTR         r     1 B$JIT$                     0-0-0/w PTR               1 B$TCB$
     0-0-0/c ASTR(9)     r     1 ERRMSG_FID                 0-0-0/w UBIN              1 M$DO_NUM
     0-0-0/w UBIN              1 M$LO_NUM                   0-0-0/w UBIN              1 M$MAIL_CENTRAL_NUM
     0-0-0/w UBIN              1 M$MAIL_COMGROUP_NUM        0-0-0/w UBIN              1 M$MAIL_FILE_NUM
     0-0-0/w UBIN              1 M$MAIL_GLOBAL_NUM          0-0-0/w UBIN              1 M$ME_NUM
     0-0-0/w UBIN              1 M$NODE_NUM                 0-0-0/w UBIN              1 M$SI_NUM
     0-0-0/w UBIN              1 M$WORK_NUM                 0-0-0/w PTR               1 VM_ADDLIST$
     0-0-0/d VECT              1 VM_ADDLIST_                0-0-0/w PTR         r     1 VM_ADDREC$
     0-0-0/d VECT              1 VM_ADDREC_                 0-0-0/w PTR               1 VM_COPY$
     0-0-0/d VECT              1 VM_COPY_                   0-0-0/w PTR               1 VM_ENCLLIST$
     0-0-0/d VECT              1 VM_ENCLLIST_               0-0-0/w PTR               1 VM_ENCLREC$
     0-0-0/d VECT              1 VM_ENCLREC_                0-0-0/c STRC(270)         1 VM_FORWARD_ENCL_NAME
     0-0-0/c STRC(270)         1 VM_FORWARD_FILE_NAME       0-0-0/c STRC(72)          1 VM_FORWARD_FILE_PASS
     0-0-0/w PTR               1 VM_HEADER$                 0-0-0/d VECT              1 VM_HEADER_
     0-0-0/d VECT              1 VM_HEADER_INIT_            0-0-0/w PTR               1 VM_INPUT$
     0-0-0/d VECT              1 VM_INPUT_                  0-0-0/c STRC(72)          1 VM_MAILCG_NAME
     0-0-0/w STRC(432)         1 VM_MAILCG_SETSTA           0-0-0/c STRC(72)          1 VM_MAIL_ACCT
     0-0-0/c STRC(54)          1 VM_NAME_MAP_NAME           0-0-0/w PTR               1 VM_PARSEAREA$
     0-0-0/d VECT              1 VM_PARSEAREA_              0-0-0/w PTR               1 VM_PROFILE$
     0-0-0/d VECT              1 VM_PROFILE_                0-0-0/w PTR               1 VM_SELECT$
     0-0-0/d VECT              1 VM_SELECT_                 0-0-0/c STRC(288)         1 VM_SEND_FILE_NAME
     0-0-0/c CHAR(8)           1 VM_SITENAME                0-0-0/w PTR               1 VM_WORK$
     0-0-0/d VECT              1 VM_WORK_

  ****  BASED and DCB variables  ****

  ****  Scalars and arrays  ****
OctLoc.c.b A Datatyp(siz) R M Lvl/name                 OctLoc.c.b A Datatyp(siz) R M Lvl/name

     0-0-0/d STRC(8856)  r     1 B$JIT                      0-0-0/c ACHR              1 CHARI
     0-0-0/d ASTR(3528)  r     1 F$DCB                      0-0-0N  NULL        r     1 M$DO
     0-0-0N  NULL        r     1 M$LM                       0-0-0N  NULL        r     1 M$LO
     0-0-0N  NULL        r     1 M$MAIL_CENTRAL             0-0-0N  NULL        r     1 M$MAIL_COMGROUP
     0-0-0N  NULL        r     1 M$MAIL_FILE                0-0-0N  NULL        r     1 M$MAIL_GLOBAL
     0-0-0N  NULL        r     1 M$ME                       0-0-0N  NULL        r     1 M$NODE
     0-0-0N  NULL        r     1 M$SI                       0-0-0N  NULL        r     1 M$UC
     0-0-0N  NULL        r     1 M$WORK                     0-0-0/c ASTR(27)    r     1 NENTRY
PL6.E3A0      #009=VMD$GETNODES File=VMD$SUBR.:VMB6TSI                           WED 08/20/97 15:14 Page:301
     0-0-0/c ASTR(27)    r     1 NN                         0-0-0/d STRC(3636)  r     1 SEGNODES
     0-0-0/c ASTR(9)     r     1 X$STRING


   Procedure VMD$GETNODES requires 356 words for executable code.
   Procedure VMD$GETNODES requires 162 words of local(AUTO) storage.

    No errors detected in file VMD$SUBR.:VMB6TSI    .
PL6.E3A0      #009=VMD$GETNODES File=VMD$SUBR.:VMB6TSI                           WED 08/20/97 15:14 Page:302
          *** CROSS REFERENCE LISTING ***
**     DENOTES     IDENTIFIER DEFINITION
<<                 IDENTIFIER'S VALUE SET
>>                 IDENTIFIER'S VALUE USED
<>                 IDENTIFIER SET AND/OR USED
--                 IDENTIFIER REFERENCED
PL6.E3A0      #009=VMD$GETNODES File=VMD$SUBR.:VMB6TSI                           WED 08/20/97 15:14 Page:303
          MINI XREF LISTING

B$JIT.ACCN
       353**DCL      9083>>IF       9084>>ASSIGN   9088>>IF       9095>>IF
B$JIT.CPFLAGS1.SLEAZE
       447**DCL       447--REDEF
B$JIT.ERR.MID
       354**DCL       354--REDEF
B$JIT.FACCN
       353**DCL      9043>>ASSIGN   9083>>IF       9088>>IF       9095>>IF
B$JIT.JRESPEAK
       515**DCL       516--REDEF
B$JIT.LANG
       489**DCL      9032>>ASSIGN   9106>>CALLBLT
B$JIT.ORIGINATOR_PORT.FROM_CR
       624**DCL       624--REDEF     625--REDEF
B$JIT.PNR
       528**DCL       528--REDEF
B$JIT.SWITCH
       441**DCL      9045>>IF
B$JIT.TSLINE
       622**DCL       623--REDEF
B$JIT$
      8203**DCL       348--IMP-PTR  9032>>ASSIGN   9043>>ASSIGN   9045>>IF       9083>>IF       9083>>IF
      9084>>ASSIGN   9088>>IF       9088>>IF       9095>>IF       9095>>IF       9106>>CALLBLT
CH
      8469**DCL      9032<<ASSIGN   9039>>IF       9040>>ASSIGN
CLEANUP
      9245**PROC     9062--CALL     9103--CALL
CLOSEONLY IN PROCEDURE CLEANUP
      9247**DCL      9245--PROC     9256--IF       9256>>IF
CN$ IN PROCEDURE SETUP_SEG_NODES
      9183**DCL      9175--IMP-PTR  9205<<ASSIGN   9211>>IF       9211>>IF       9214<<ASSIGN   9214>>ASSIGN
      9214>>ASSIGN   9221>>ASSIGN
PL6.E3A0      #009=VMD$GETNODES File=VMD$SUBR.:VMB6TSI                           WED 08/20/97 15:14 Page:304
DCB$
      8473**DCL      9060<<ASSIGN   9064>>IF       9064>>IF       9064>>IF       9069>>IF
ERRMSG_FID.L#
      8272**DCL      8272--IMP-SIZ  9227>>CALLBLT  9228>>ASSIGN
ERRMSG_FID.NAME#
      8272**DCL      9227>>CALLBLT  9228<<ASSIGN
F$DCB.ACCT#
      8532**DCL      9046>>ASSIGN   9088>>IF       9088>>IF       9091>>ASSIGN   9095>>IF
F$DCB.ACS#
      8540**DCL      9064>>IF
F$DCB.ACTPOS
      8548**DCL      8548--REDEF
F$DCB.ARS#
      8522**DCL      8522--REDEF
F$DCB.ATTR
      8541**DCL      8542--REDEF
F$DCB.BORROW
      8556**DCL      8556--REDEF    8556--REDEF    8556--REDEF
F$DCB.DCBNAME.L
      8570**DCL      8570--IMP-SIZ
F$DCB.EOMCHAR#
      8526**DCL      8526--REDEF
F$DCB.FCD#
      8535**DCL      9250>>IF
F$DCB.FLDID
      8551**DCL      8551--REDEF
F$DCB.FORM$
      8545**DCL      8545--REDEF
F$DCB.FSECT
      8561**DCL      8561--REDEF
F$DCB.FSN#
      8538**DCL      8538--REDEF    8538--REDEF    8539--REDEF
F$DCB.HEADER$
      8544**DCL      8544--REDEF
F$DCB.IXTNSIZE#
      8542**DCL      8542--REDEF    9069>>IF
PL6.E3A0      #009=VMD$GETNODES File=VMD$SUBR.:VMB6TSI                           WED 08/20/97 15:14 Page:305
F$DCB.LASTSTA$
      8531**DCL      8531--REDEF
F$DCB.LVL
      8557**DCL      8557--REDEF
F$DCB.NAME#.C
      8532**DCL      8532--REDEF
F$DCB.NOEOF
      8554**DCL      8554--REDEF
F$DCB.NRECS#
      8543**DCL      8543--REDEF
F$DCB.NRECX
      8562**DCL      8562--REDEF
F$DCB.OHDR
      8554**DCL      8554--REDEF
F$DCB.ORG#
      8537**DCL      8537--REDEF    9064>>IF
F$DCB.PRECNO
      8560**DCL      8560--REDEF
F$DCB.RCSZ
      8566**DCL      8566--REDEF
F$DCB.RES#
      8533**DCL      8533--REDEF
F$DCB.SETX
      8545**DCL      8545--REDEF
F$DCB.TAB$
      8545**DCL      8545--REDEF
F$DCB.TDA
      8559**DCL      8560--REDEF
F$DCB.TYPE#
      8533**DCL      9064>>IF
F$DCB.WSN#
      8533**DCL      8533--REDEF
FOUND IN PROCEDURE SETUP_SEG_NODES
      9221**LABEL    9212--GOTO
FPT_CLOSE
      9006**DCL      9251<<ASSIGN   9254<>CALL
PL6.E3A0      #009=VMD$GETNODES File=VMD$SUBR.:VMB6TSI                           WED 08/20/97 15:14 Page:306
FPT_CLOSE.SN_
      9006**DCL      9006--REDEF
FPT_CLOSE.UTL_
      9007**DCL      9007--REDEF
FPT_CLOSE.V
      9011**DCL      9252--ASSIGN
FPT_CLOSE.V.DCB#
      9012**DCL      9253<<ASSIGN
FPT_CLOSE.V.EXPIRE#
      9021**DCL      9021--REDEF
FPT_CLOSE.V.TYPE#
      9019**DCL      9019--REDEF
FPT_CLOSE.V.XTNSIZE#
      9016**DCL      9016--REDEF    9018--REDEF
FPT_CLOSE.V_
      9006**DCL      9252<<ASSIGN
FPT_CLOSE_CONST
      8963**DCL      9251>>ASSIGN
FPT_CLOSE_CONST.SN_
      8963**DCL      8963--REDEF
FPT_CLOSE_CONST.UTL_
      8964**DCL      8964--REDEF
FPT_CLOSE_CONST.V
      8968**DCL      8963--DCLINIT
FPT_CLOSE_CONST.V.EXPIRE#
      8978**DCL      8978--REDEF
FPT_CLOSE_CONST.V.TYPE#
      8976**DCL      8976--REDEF
FPT_CLOSE_CONST.V.XTNSIZE#
      8973**DCL      8973--REDEF    8975--REDEF
FPT_OPEN
      8759**DCL      9050<<ASSIGN   9063<>CALL
FPT_OPEN.ACCT_
      8763**DCL      9053<<ASSIGN
FPT_OPEN.ACSVEH_
      8761**DCL      8762--REDEF
PL6.E3A0      #009=VMD$GETNODES File=VMD$SUBR.:VMB6TSI                           WED 08/20/97 15:14 Page:307
FPT_OPEN.ALTKEYS_
      8767**DCL      8768--REDEF    8768--REDEF
FPT_OPEN.HDR_
      8766**DCL      8767--REDEF
FPT_OPEN.NAME_
      8760**DCL      9052<<ASSIGN
FPT_OPEN.TAB_
      8765**DCL      8766--REDEF
FPT_OPEN.UHL_
      8759**DCL      8760--REDEF    8760--REDEF
FPT_OPEN.V
      8768**DCL      9051--ASSIGN
FPT_OPEN.V.DCB#
      8768**DCL      9057--ASSIGN   9060--ASSIGN   9249>>IF       9250--IF       9253>>ASSIGN   9261>>ASSIGN
      9264<<ASSIGN
FPT_OPEN.V.FSN#
      8799**DCL      8799--REDEF    8799--REDEF
FPT_OPEN.V_
      8759**DCL      9051<<ASSIGN
FPT_OPEN.WSN_
      8765**DCL      8765--REDEF
GETDCB
      8875**DCL      9055<<ASSIGN   9059<>CALL
GETDCB.DCBNUM_
      8875**DCL      9057<<ASSIGN
GETDCB.V
      8876**DCL      9056--ASSIGN
GETDCB.V_
      8875**DCL      9056<<ASSIGN
GETDCB_CONST
      8859**DCL      9055>>ASSIGN
GETDCB_CONST.V
      8860**DCL      8859--DCLINIT
GOT_SEG
      8471**DCL      9033<<ASSIGN
I
PL6.E3A0      #009=VMD$GETNODES File=VMD$SUBR.:VMB6TSI                           WED 08/20/97 15:14 Page:308
      8468**DCL      8470--IMP-SIZ  9106<<CALLBLT  9108<<ASSIGN   9110>>ASSIGN
I IN PROCEDURE SETUP_SEG_NODES
      9186**DCL      9206<<ASSIGN   9209>>DOWHILE  9215<<ASSIGN   9215>>ASSIGN   9227<<CALLBLT  9228>>ASSIGN
INDX IN PROCEDURE SETUP_SEG_NODES
      9185**DCL      9204<<ASSIGN   9221>>ASSIGN
M$CLOSE
      6116**DCL-ENT  9254--CALL
M$GETDCB
      6122**DCL-ENT  9059--CALL
M$LM
      8464**DCL      9046--ASSIGN   9088--IF       9088--IF       9091--ASSIGN   9095--IF
M$OPEN
      6116**DCL-ENT  9063--CALL
M$RELDCB
      6122**DCL-ENT  9262--CALL
NATL_LIST
      8443**DCL        25--PROC
NATL_LIST.NATLS
      8444**DCL      9106>>CALLBLT
NATL_LIST.PARSE_NODES$
      8445**DCL      9110>>ASSIGN
NENTRY.L IN PROCEDURE SETUP_SEG_NODES
      9178**DCL      9179--IMP-SIZ  9211>>IF       9214>>ASSIGN
NENTRY.NAME IN PROCEDURE SETUP_SEG_NODES
      9179**DCL      9211>>IF
NENTRY.OFFSET IN PROCEDURE SETUP_SEG_NODES
      9177**DCL      9199>>ASSIGN   9221>>ASSIGN
NLEN IN PROCEDURE SETUP_SEG_NODES
      9187**DCL      9199<<ASSIGN   9206>>ASSIGN
NN.INDX IN PROCEDURE SETUP_SEG_NODES
      9154**DCL      9204>>ASSIGN
NN.L IN PROCEDURE SETUP_SEG_NODES
      9155**DCL      9156--IMP-SIZ  9202>>DOWHILE  9211>>IF       9222>>ASSIGN
NN.NAME IN PROCEDURE SETUP_SEG_NODES
      9156**DCL      9211>>IF
NN$ IN PROCEDURE SETUP_SEG_NODES
PL6.E3A0      #009=VMD$GETNODES File=VMD$SUBR.:VMB6TSI                           WED 08/20/97 15:14 Page:309
      9181**DCL      9152--IMP-PTR  9193<<ASSIGN   9202>>DOWHILE  9204>>ASSIGN   9211>>IF       9211>>IF
      9222<<ASSIGN   9222>>ASSIGN   9222>>ASSIGN
NODEACCT
      8843**DCL      9053--ASSIGN
NODEACCT.ACCT#
      8843**DCL      9043<<ASSIGN   9046<<ASSIGN   9084<<ASSIGN   9091<<ASSIGN   9099<<ASSIGN   9228>>ASSIGN
NODEFID
      8456**DCL        25--PROC     9035--IF       9038>>ASSIGN
NODEFID.L#
      8456**DCL      8456--IMP-SIZ  9038>>ASSIGN
NODEKEY
      8936**DCL      8859--DCLINIT
NODENAME
      8829**DCL      9038<<ASSIGN   9052--ASSIGN
NODENAME.L#
      8829**DCL      9040>>ASSIGN   9041<<ASSIGN   9041>>ASSIGN
NODENAME.NAME#
      8829**DCL      9040<<ASSIGN
NODENAMES
      8459**DCL        25--PROC     9035--IF       9193--ASSIGN
NODENAMES.L
      8461**DCL      8462--IMP-SIZ
NODES$
      8449**DCL        25--PROC     9110<<ASSIGN   9225<<ASSIGN
NODES_TO_USE$
      8502**DCL      9221<<ASSIGN   9225--ASSIGN
NODE_CASE
      8472**DCL      9034<<ASSIGN   9047<<ASSIGN   9080>>DOCASE   9082<<ASSIGN   9082>>ASSIGN   9087<<ASSIGN
      9087>>ASSIGN   9094<<ASSIGN   9094>>ASSIGN
NONAMES
      9106**LABEL    9036--GOTO
OPEN_NODEDEFS
      8649**DCL      9050>>ASSIGN
OPEN_NODEDEFS.ACSVEH_
      8651**DCL      8652--REDEF
OPEN_NODEDEFS.ALTKEYS_
PL6.E3A0      #009=VMD$GETNODES File=VMD$SUBR.:VMB6TSI                           WED 08/20/97 15:14 Page:310
      8657**DCL      8658--REDEF    8658--REDEF
OPEN_NODEDEFS.HDR_
      8656**DCL      8657--REDEF
OPEN_NODEDEFS.TAB_
      8655**DCL      8656--REDEF
OPEN_NODEDEFS.UHL_
      8649**DCL      8650--REDEF    8650--REDEF
OPEN_NODEDEFS.V
      8658**DCL      8649--DCLINIT
OPEN_NODEDEFS.V.FSN#
      8689**DCL      8689--REDEF    8689--REDEF
OPEN_NODEDEFS.WSN_
      8655**DCL      8655--REDEF
RELDCB
      8906**DCL      9259<<ASSIGN   9262<>CALL
RELDCB.V
      8906**DCL      9260--ASSIGN
RELDCB.V.DCB#
      8906**DCL      9261<<ASSIGN
RELDCB.V_
      8906**DCL      9260<<ASSIGN
RELDCB_CONST
      8892**DCL      9259>>ASSIGN
RELDCB_CONST.V
      8892**DCL      8892--DCLINIT
REL_DCB
      9080**LABEL    9063--CALLALT  9067--GOTO     9073--GOTO     9075--CALLALT  9083--GOTO     9090--GOTO
      9098--GOTO
SEGNODES
      8475**DCL      9196--ASSIGN   9221--ASSIGN
SEGNODES.WORDS
      8476**DCL      8477--REDEF    9069>>IF       9069>>IF       9069>>IF       9069>>IF       9069>>IF
      9069>>IF       9196>>ASSIGN
SETUP_SEG_NODES
      9136**PROC     9075--CALL
SN$ IN PROCEDURE SETUP_SEG_NODES
PL6.E3A0      #009=VMD$GETNODES File=VMD$SUBR.:VMB6TSI                           WED 08/20/97 15:14 Page:311
      9182**DCL      9196<<ASSIGN   9199>>ASSIGN   9200<<ASSIGN   9200>>ASSIGN   9205>>ASSIGN
TRY_OPEN
      9062**LABEL    9085--GOTO     9092--GOTO     9100--GOTO
USE_CONST
      9103**LABEL    9059--CALLALT
VM_ADDREC$
      8128**DCL      8475--IMP-PTR  9069>>IF       9069>>IF       9069>>IF       9069>>IF       9069>>IF
      9069>>IF       9196>>ASSIGN   9196>>ASSIGN   9221>>ASSIGN
X$STRING.SIZ
      8118**DCL      8119--IMP-SIZ
