VERSION B06

PL6.E3A0      #001=VMM$DUMMY File=VMM$DUMMY.:VMB6TSI                             WED 08/20/97 15:16 Page:1
        1        1        /*M* VMM$DUMMY - SUPPLY SREFS FOR SEND AND MAIL */
        2        2        /*T***********************************************************/
        3        3        /*T*                                                         */
        4        4        /*T* Copyright (c) Bull HN Information Systems Inc., 1997    */
        5        5        /*T*                                                         */
        6        6        /*T***********************************************************/
        7        7        VMM$DUMMY: PROC;
        8        8    1   DCL VO_NEED_READ BIT(1) CONSTANT SYMDEF INIT('0'B);
        9        9    1   DCL VO_READ_CG UBIN WORD CONSTANT SYMDEF;
       10       10    1   DCL VO_PROCESS BIT(1) CONSTANT SYMDEF INIT('0'B);
       11       11    1   VOM$PROCESS: ENTRY;
       12       12    1   END VMM$DUMMY;

PL6.E3A0      #001=VMM$DUMMY File=VMM$DUMMY.:VMB6TSI                             WED 08/20/97 15:16 Page:2
      No diagnostics issued in procedure VMM$DUMMY.

   Procedure VMM$DUMMY requires 6 words for executable code.
   Procedure VMM$DUMMY requires 4 words of local(AUTO) storage.

    No errors detected in file VMM$DUMMY.:VMB6TSI    .

PL6.E3A0      #001=VMM$DUMMY File=VMM$DUMMY.:VMB6TSI                             WED 08/20/97 15:16 Page:3

 Object Unit name= VMM$DUMMY                                  File name= VMM$DUMMY.:VMB6TOU
 UTS= AUG 20 '97 15:16:46.40 WED                              Compiler= PL-6/E31         Sev=      00
 SharedLib= :SHARED_SYSTEM                                    Alt SharedLib=


    ****  Control sections  ****

 Sect   Type Bound  Init  Size OctSiz  Section name(segment info)
    0  RoData even  UTS      3      3  VMM$DUMMY
    1   Proc  even  none     6      6  VMM$DUMMY

    ****  Entry defs  ****

                              Check   Calling
                             calling  sequence
  Sect OctLoc Primary Altret sequence   type   Parms  Name
     1      0   yes            yes      Std        0  VMM$DUMMY
     1      3                  yes      Std        0  VOM$PROCESS

  ****  Data defs  ****

 Sect OctLoc  Name                           Sect OctLoc  Name
    0      0  VO_NEED_READ                       0      1  VO_READ_CG
    0      2  VO_PROCESS

  ****  Entry refs  ****

         Check        Calling
        calling       sequence
Altret sequence SRef   type   Args  Name
                       nStd      0 X66_AUTO_0
                       nStd      0 X66_ARET
PL6.E3A0      #001=VMM$DUMMY File=VMM$DUMMY.:VMB6TSI                             WED 08/20/97 15:16 Page:4


        1        1        /*M* VMM$DUMMY - SUPPLY SREFS FOR SEND AND MAIL */
        2        2        /*T***********************************************************/
        3        3        /*T*                                                         */
        4        4        /*T* Copyright (c) Bull HN Information Systems Inc., 1997    */
        5        5        /*T*                                                         */
        6        6        /*T***********************************************************/
        7        7        VMM$DUMMY: PROC;

      7  1 000000   000000 700200 xent  VMM$DUMMY    TSX0  ! X66_AUTO_0
         1 000001   000004 000000                    ZERO    4,0
         1 000002   000005 710000 1                  TRA     s:12

        8        8    1   DCL VO_NEED_READ BIT(1) CONSTANT SYMDEF INIT('0'B);
        9        9    1   DCL VO_READ_CG UBIN WORD CONSTANT SYMDEF;
       10       10    1   DCL VO_PROCESS BIT(1) CONSTANT SYMDEF INIT('0'B);
       11       11    1   VOM$PROCESS: ENTRY;

     11  1 000003   000000 700200 xent  VOM$PROCESS  TSX0  ! X66_AUTO_0
         1 000004   000004 000000                    ZERO    4,0

       12       12    1   END VMM$DUMMY;

     12  1 000005   000000 702200 xent               TSX2  ! X66_ARET

VO_NEED_READ
 Sect OctLoc
   0     000   0***** ******                                                    ....

VO_PROCESS
 Sect OctLoc
   0     002   0***** ******                                                    ....

PL6.E3A0      #001=VMM$DUMMY File=VMM$DUMMY.:VMB6TSI                             WED 08/20/97 15:16 Page:5
      No diagnostics issued in procedure VMM$DUMMY.
PL6.E3A0      #001=VMM$DUMMY File=VMM$DUMMY.:VMB6TSI                             WED 08/20/97 15:16 Page:6

 **** Variables and constants ****

  ****  Section 000 RoData VMM$DUMMY

  ****  Scalars and arrays  ****
OctLoc.c.b A Datatyp(siz) R M Lvl/name                 OctLoc.c.b A Datatyp(siz) R M Lvl/name

     0-0-0/b BIT               1 VO_NEED_READ               2-0-0/b BIT               1 VO_PROCESS
     1-0-0/w UBIN              1 VO_READ_CG


   Procedure VMM$DUMMY requires 6 words for executable code.
   Procedure VMM$DUMMY requires 4 words of local(AUTO) storage.

    No errors detected in file VMM$DUMMY.:VMB6TSI    .
PL6.E3A0      #001=VMM$DUMMY File=VMM$DUMMY.:VMB6TSI                             WED 08/20/97 15:16 Page:7
          *** CROSS REFERENCE LISTING ***
**     DENOTES     IDENTIFIER DEFINITION
<<                 IDENTIFIER'S VALUE SET
>>                 IDENTIFIER'S VALUE USED
<>                 IDENTIFIER SET AND/OR USED
--                 IDENTIFIER REFERENCED
PL6.E3A0      #001=VMM$DUMMY File=VMM$DUMMY.:VMB6TSI                             WED 08/20/97 15:16 Page:8
          MINI XREF LISTING

