PL6.E3A0      #004=VMM$COMBINE_MESSAGE File=VMM$MESSAGE.:VMB6TSI                 WED 08/20/97 15:18 Page:158
      850        1        /*T***********************************************************/
      851        2        /*T*                                                         */
      852        3        /*T* Copyright (c) Bull HN Information Systems Inc., 1997    */
      853        4        /*T*                                                         */
      854        5        /*T***********************************************************/
      855        6        /*X* DMC,PLM=4,IND=4,CTI=2,DTI=0,ENI=0,ECI=0,CSI=0,DCI=4 */
      856        7        VMM$COMBINE_MESSAGE: PROC (DCB_IN, MSG_NUMBER_IN, DCB_OUT) ALTRET;
      857        8        /*P*  NAME: VMM$COMBINE_MESSAGE
      858        9              PURPOSE: Combines error and response information with an existing
      859       10                       mailgram.
      860       11              DESCRIPTION:
      861       12                    This routine is called from MAILMAN during message delivery,
      862       13                    and from MAIL during MOVE MESSAGE and COPY MESSAGE.  It attempts
      863       14                    to insert information from an ERR, ACK, ANS, or DELIVERY mailgram
      864       15                    into the trace record area of the original mailgram from which
      865       16                    the ERR etc. was spawned.
      866       17              INPUT:   VM_HEADER contains the header of the new mailgram to be
      867       18                                combined;
      868       19                       VM_PROFILE contains the profile of the mailbox into which this
      869       20                                mailgram is being inserted.
      870       21              OUTPUT:  Normal return:  the input mailgram has been combined with its
      871       22                                originator in this folder.
      872       23                       Alternate return:  the input mailgram has not been combined.
      873       24                       Both:  VM_HEADER has probably been trashed, and must be reread.
      874       25        */
      875       26
      876       27    1   DCL DCB_IN UBIN;
      877       28    1   DCL MSG_NUMBER_IN UBIN;
      878       29    1   DCL DCB_OUT UBIN;
      879       30    1   DCL MSG_NUMBER_OUT UBIN;
      880       31
      881       32        %INCLUDE CP_6;
      882     5591        %INCLUDE CP_6_SUBS;
      883     6131        %INCLUDE VM_DATA_R;
      884     6562        %INCLUDE VM_MACRO_C;
      885     7830        %INCLUDE VM_PERR_C;
      886     8125
PL6.E3A0      #004=VMM$COMBINE_MESSAGE File=VMM$MESSAGE.:VMB6TSI                 WED 08/20/97 15:18 Page:159
      887     8126    1   DCL COUNT UBIN;
      888     8127    1   DCL COUNT1 UBIN;
      889     8128    1   DCL MESSAGE_NUMBER UBIN;
      890     8129    1   DCL NUM_RECORDS UBIN;
      891     8130    1   DCL I UBIN;
      892     8131    1   DCL J UBIN;
      893     8132    1   DCL ID CHAR (255);
      894     8133    1   DCL 1 ANSWER_ID,
      895     8134    1         2 COUNT UBIN BYTE CALIGNED,
      896     8135    1         2 TEXT CHAR (511);
      897     8136    1   DCL 1 SENDER,
      898     8137    1         2 COUNT UBIN BYTE CALIGNED,
      899     8138    1         2 TEXT CHAR (511);
      900     8139    1   DCL 1 BAD_ADDRESS,
      901     8140    1         2 COUNT UBIN BYTE CALIGNED,
      902     8141    1         2 TEXT CHAR (511);
      903     8142
      904     8143        %VLP_ERRCODE (FPTN=E_ACKED,FCG="VO",MID="M",
      905     8144                      ERR#=%E$ACKED,STCLASS=CONSTANT);
      906     8189
      907     8190              %VLP_ERRCODE (FPTN=E_RRACKED,FCG="VO",MID="M",
      908     8191              ERR#=%E$RRACKED,STCLASS=CONSTANT);
      909     8236
      910     8237              %VLP_ERRCODE (FPTN=E_ANSWERED,FCG="VO",MID="M",
      911     8238              ERR#=%E$ANSWERED,STCLASS=CONSTANT);
      912     8283
      913     8284              %FPT_ENQ (FPTN=ENQ_HEADER,
      914     8285              SHARE=NONE,
      915     8286              WAIT=YES,
      916     8287              RNAME=VM_HEADRES);
      917     8305
      918     8306        %FPT_DEQ (FPTN=DEQ_HEADER,
      919     8307                  RNAME=VM_HEADRES);
      920     8324
      921     8325        %VM_HEADRES (STCLASS=STATIC);
      922     8339
      923     8340        %VM_BODYTYPES;
PL6.E3A0      #004=VMM$COMBINE_MESSAGE File=VMM$MESSAGE.:VMB6TSI                 WED 08/20/97 15:18 Page:160
      924     8346        %VM_KEYTYPES;
      925     8367        %VM_PROFILE;
      926     8454        %VM_HEADER;
      927     8583        %VM_HEADER (NAME=SAVED_HEADER, STCLASS=AUTO);
      928     8712        %VM_BODYREC (NAME=VM_BODYREC_ENCODED, STCLASS=AUTO, ERR_FORMAT=YES);
      929     8744        %VM_BODYREC (NAME=OLD_BODYREC_ENCODED, STCLASS=AUTO, ERR_FORMAT=YES);
      930     8776        %VM_BODYREC (NAME=VM$BODYREC_ENCODED, STCLASS=BASED, VARYLEN=YES,
      931     8777                             ERR_FORMAT=YES);
      932     8809        %VM_BODYREC (NAME=INIT_BODYREC_ENCODED, STCLASS=CONSTANT,
      933     8810                             TYP=%VM_BODY_ENCODED_ERR, ERR_FORMAT=YES);
      934     8842
      935     8843    1   DCL VMD$GET_HEADER ENTRY (2) ALTRET;
      936     8844    1   DCL VMD$PUT_HEADER ENTRY (2) ALTRET;
      937     8845    1   DCL VMD$GET_BODY ENTRY (9) ALTRET;
      938     8846    1   DCL VMD$GET_TRACE ENTRY (7) ALTRET;
      939     8847    1   DCL VMD$PUT_TRACE ENTRY (7) ALTRET;
      940     8848    1   DCL VMD$GET_ID ENTRY (3) ALTRET;
      941     8849
      942     8850        %EJECT;
PL6.E3A0      #004=VMM$COMBINE_MESSAGE File=VMM$MESSAGE.:VMB6TSI                 WED 08/20/97 15:18 Page:161
      943     8851    1       IF (NOT VM_HEADER.STATUS.ERR AND NOT VM_HEADER.STATUS.ACK
      944     8852    1         AND NOT VM_HEADER.STATUS.RRACK
      945     8853    1         AND NOT VM_HEADER.STATUS.ANSWER AND NOT VM_HEADER.STATUS.DELIVERY)
      946     8854    1         OR VM_HEADER.REFERS_TO_ID$ = ADDR(NIL)
      947     8855    1       THEN
      948     8856    1           ALTRETURN;
      949     8857
      950     8858    1       CALL VMD$GET_ID (VM_HEADER.REFERS_TO_ID$ -> X$STRING, DCB_OUT,
      951     8859    1         MESSAGE_NUMBER)
      952     8860    2       WHENALTRETURN DO;
      953     8861    2           ALTRETURN;
      954     8862    2       END;
      955     8863
      956     8864    1       SAVED_HEADER = VM_HEADER;
      957     8865
      958     8866    1       IF VM_HEADER.UNIQUE_ID$ = ADDR(NIL)
      959     8867    1       THEN
      960     8868    1           ANSWER_ID = '0'B;
      961     8869    1       ELSE
      962     8870    1           ANSWER_ID = VM_HEADER.UNIQUE_ID$ -> X$STRING;
      963     8871
      964     8872    1       ID = VM_HEADER.REFERS_TO_ID$ -> X$STRING.TEXT;
      965     8873
      966     8874    1       IF VM_HEADER.FROM$ = ADDR(NIL)
      967     8875    1       THEN
      968     8876    1           SENDER.COUNT = 0;
      969     8877    1       ELSE
      970     8878    1           SENDER = VM_HEADER.FROM$ -> X$STRING;
      971     8879
      972     8880    1       IF VM_HEADER.BAD_ADDRESS$ = ADDR(NIL)
      973     8881    1       THEN
      974     8882    1           BAD_ADDRESS.COUNT = 0;
      975     8883    1       ELSE
      976     8884    1           BAD_ADDRESS = VM_HEADER.BAD_ADDRESS$ -> X$STRING;
      977     8885
      978     8886    1       VM_HEADRES.RES# = MESSAGE_NUMBER;
      979     8887    1       ENQ_HEADER.V.DCB# = DCB_OUT;
PL6.E3A0      #004=VMM$COMBINE_MESSAGE File=VMM$MESSAGE.:VMB6TSI                 WED 08/20/97 15:18 Page:162
      980     8888    1       DEQ_HEADER.V.DCB# = DCB_OUT;
      981     8889
      982     8890    1       CALL M$ENQ (ENQ_HEADER)
      983     8891    2       WHENALTRETURN DO;
      984     8892    2           CALL M$ERR;
      985     8893    2       END;
      986     8894
      987     8895    1       CALL VMD$GET_HEADER (MESSAGE_NUMBER, DCB_OUT) ALTRET (BAILOUT);
      988     8896
      989     8897    1       IF VM_HEADER.UNIQUE_ID$ = ADDR(NIL)
      990     8898    1         OR VM_HEADER.UNIQUE_ID$ -> X$STRING.TEXT ~= ID
      991     8899    1       THEN
      992     8900    1           GOTO BAILOUT;
      993     8901
      994     8902    1       IF SAVED_HEADER.STATUS.DELIVERY
      995     8903    1         OR (SAVED_HEADER.STATUS.ERR AND SAVED_HEADER.ERROR = '0'B)
      996     8904    2       THEN DO;
      997     8905
      998     8906    2           NUM_RECORDS = VM_HEADER.NUM_TRACE_RECORDS;
      999     8907
     1000     8908    3           DO I = 0 TO SAVED_HEADER.NUM_RECORDS - 1;
     1001     8909
     1002     8910    3               VM_BODYREC_ENCODED = '0'B;
     1003     8911
     1004     8912    3               CALL VMD$GET_BODY (0, DCB_IN, I, COUNT, ,
     1005     8913    3                 VM_BODYREC_ENCODED) ALTRET (DONE_DELIVERY);
     1006     8914
     1007     8915    4   ADD_IF_UNIQUE: DO;
     1008     8916
     1009     8917    5                   DO J = 0 TO NUM_RECORDS - 1;
     1010     8918
     1011     8919    5                       OLD_BODYREC_ENCODED = '0'B;
     1012     8920
     1013     8921    5                       CALL VMD$GET_TRACE (MESSAGE_NUMBER, DCB_OUT, J,
     1014     8922    5                         COUNT1, , OLD_BODYREC_ENCODED)
     1015     8923    6                       WHENRETURN DO;
     1016     8924    6                           IF VM_BODYREC_ENCODED = OLD_BODYREC_ENCODED
PL6.E3A0      #004=VMM$COMBINE_MESSAGE File=VMM$MESSAGE.:VMB6TSI                 WED 08/20/97 15:18 Page:163
     1017     8925    6                           THEN
     1018     8926    6                               EXIT ADD_IF_UNIQUE;
     1019     8927    6                       END;
     1020     8928
     1021     8929    5                   END;
     1022     8930
     1023     8931    4                   CALL VMD$PUT_TRACE (MESSAGE_NUMBER, DCB_OUT,
     1024     8932    4                     VM_HEADER.NUM_TRACE_RECORDS, COUNT, , VM_BODYREC_ENCODED);
     1025     8933
     1026     8934    4                   VM_HEADER.NUM_TRACE_RECORDS = VM_HEADER.NUM_TRACE_RECORDS + 1;
     1027     8935
     1028     8936    4               END ADD_IF_UNIQUE;
     1029     8937
     1030     8938    3           END;
     1031     8939
     1032     8940    2   DONE_DELIVERY:
     1033     8941
     1034     8942    2           CALL VMD$PUT_HEADER (MESSAGE_NUMBER, DCB_OUT) ALTRET (BAILOUT);
     1035     8943
     1036     8944    3           CALL M$DEQ (DEQ_HEADER) WHENALTRETURN DO; END;
     1037     8945
     1038     8946    2           RETURN;
     1039     8947    2       END;
     1040     8948
     1041     8949    1       VM_BODYREC_ENCODED = INIT_BODYREC_ENCODED;
     1042     8950    1       VM_BODYREC_ENCODED.VALUE.DATA.STUFF = '0'B;
     1043     8951    1       VM_BODYREC_ENCODED.VALUE.DATA.UTS = SAVED_HEADER.CREATION_DATE;
     1044     8952
     1045     8953    1       IF SAVED_HEADER.STATUS.RRACK
     1046     8954    2       THEN DO;
     1047     8955
     1048     8956    2           VM_BODYREC_ENCODED.VALUE.DATA.ERR = E_RRACKED;
     1049     8957    2           CALL PACK (VM_BODYREC_ENCODED.VALUE.DATA.STUFF, COUNT, SENDER);
     1050     8958
     1051     8959    2       END;
     1052     8960
     1053     8961    1       IF SAVED_HEADER.STATUS.ACK
PL6.E3A0      #004=VMM$COMBINE_MESSAGE File=VMM$MESSAGE.:VMB6TSI                 WED 08/20/97 15:18 Page:164
     1054     8962    2       THEN DO;
     1055     8963
     1056     8964    2           VM_BODYREC_ENCODED.VALUE.DATA.ERR = E_ACKED;
     1057     8965    2           CALL PACK (VM_BODYREC_ENCODED.VALUE.DATA.STUFF, COUNT, SENDER);
     1058     8966
     1059     8967    2       END;
     1060     8968
     1061     8969    1       IF SAVED_HEADER.STATUS.ANSWER
     1062     8970    2       THEN DO;
     1063     8971
     1064     8972    2           VM_BODYREC_ENCODED.VALUE.DATA.ERR = E_ANSWERED;
     1065     8973    2           CALL PACK (VM_BODYREC_ENCODED.VALUE.DATA.STUFF, COUNT, SENDER, ANSWER_ID);
     1066     8974
     1067     8975    2       END;
     1068     8976
     1069     8977    1       IF SAVED_HEADER.STATUS.ERR
     1070     8978    2       THEN DO;
     1071     8979
     1072     8980    2           VM_BODYREC_ENCODED.VALUE.DATA.ERR = SAVED_HEADER.ERROR;
     1073     8981    2           CALL PACK (VM_BODYREC_ENCODED.VALUE.DATA.STUFF, COUNT, BAD_ADDRESS);
     1074     8982
     1075     8983    2       END;
     1076     8984
     1077     8985    1       COUNT = COUNT + LENGTHC(VM_BODYREC_ENCODED) - LENGTHC(VM_BODYREC_ENCODED.VALUE.
              8985                DATA.STUFF);
     1078     8986    1       VM_BODYREC_ENCODED.VALUE.COUNT = COUNT;
     1079     8987
     1080     8988    2       DO I = 0 TO VM_HEADER.NUM_TRACE_RECORDS - 1;
     1081     8989
     1082     8990    2           OLD_BODYREC_ENCODED = '0'B;
     1083     8991
     1084     8992    2           CALL VMD$GET_TRACE (MESSAGE_NUMBER, DCB_OUT, I, J, , OLD_BODYREC_ENCODED)
     1085     8993    3           WHENRETURN DO;
     1086     8994
     1087     8995    3               IF VM_BODYREC_ENCODED = OLD_BODYREC_ENCODED
     1088     8996    3               THEN
     1089     8997    3                   IF SAVED_HEADER.STATUS.ANSWER
PL6.E3A0      #004=VMM$COMBINE_MESSAGE File=VMM$MESSAGE.:VMB6TSI                 WED 08/20/97 15:18 Page:165
     1090     8998    3                   THEN /* don't discard reply messsage for ANS */
     1091     8999    3                       GOTO BAILOUT;
     1092     9000    3                   ELSE
     1093     9001    3                       GOTO DONE;
     1094     9002
     1095     9003    3           END;
     1096     9004
     1097     9005    2       END;
     1098     9006
     1099     9007    1       CALL VMD$PUT_TRACE (MESSAGE_NUMBER, DCB_OUT,
     1100     9008    1         VM_HEADER.NUM_TRACE_RECORDS, COUNT, , VM_BODYREC_ENCODED) ALTRET (BAILOUT);
     1101     9009
     1102     9010    1       VM_HEADER.NUM_TRACE_RECORDS = VM_HEADER.NUM_TRACE_RECORDS + 1;
     1103     9011
     1104     9012    1       CALL VMD$PUT_HEADER (MESSAGE_NUMBER, DCB_OUT) ALTRET (BAILOUT);
     1105     9013    1   DONE: ;
     1106     9014    2       CALL M$DEQ (DEQ_HEADER) WHENALTRETURN DO; END;
     1107     9015
     1108     9016    1       RETURN;
     1109     9017
     1110     9018    1   BAILOUT:
     1111     9019    2       CALL M$DEQ (DEQ_HEADER) WHENALTRETURN DO; END;
     1112     9020
     1113     9021    1       ALTRETURN;
     1114     9022
     1115     9023        %EJECT;
PL6.E3A0      #004=VMM$COMBINE_MESSAGE File=VMM$MESSAGE.:VMB6TSI                 WED 08/20/97 15:18 Page:166
     1116     9024    1   PACK: PROC (BUFFER, COUNT, T1, T2);
     1117     9025
     1118     9026    2   DCL BUFFER (0:504) UBIN BYTE CALIGNED;
     1119     9027    2   DCL COUNT UBIN;
     1120     9028    2   DCL 1 T1,
     1121     9029    2         2 COUNT UBIN BYTE CALIGNED,
     1122     9030    2         2 TEXT CHAR (T1.COUNT);
     1123     9031    2   DCL 1 T2,
     1124     9032    2         2 COUNT UBIN BYTE CALIGNED,
     1125     9033    2         2 TEXT CHAR (T1.COUNT);
     1126     9034    2   DCL TSTRING CHAR (TSIZ) BASED;
     1127     9035    2   DCL TSIZ UBIN;
     1128     9036
     1129     9037    2       IF ADDR(T1) = ADDR(NIL) OR T1.COUNT = 0
     1130     9038    3       THEN DO;
     1131     9039    3           BUFFER(0) = 0;
     1132     9040    3           COUNT = 1;
     1133     9041    3       END;
     1134     9042    3       ELSE DO;
     1135     9043    3           TSIZ = T1.COUNT + 1;
     1136     9044    3           ADDR(BUFFER(0)) -> TSTRING = ADDR(T1) -> TSTRING;
     1137     9045    3           COUNT = TSIZ;
     1138     9046    3       END;
     1139     9047
     1140     9048    2       IF ADDR(T2) = ADDR(NIL) OR T2.COUNT = 0
     1141     9049    3       THEN DO;
     1142     9050    3           BUFFER(COUNT) = 0;
     1143     9051    3           COUNT = COUNT + 1;
     1144     9052    3       END;
     1145     9053    3       ELSE DO;
     1146     9054    3           TSIZ = T2.COUNT + 1;
     1147     9055    3           ADDR(BUFFER(COUNT)) -> TSTRING = ADDR(T2) -> TSTRING;
     1148     9056    3           COUNT = COUNT + TSIZ;
     1149     9057    3       END;
     1150     9058
     1151     9059    2       BUFFER(COUNT) = 0;
     1152     9060    2       COUNT = COUNT + 1;
PL6.E3A0      #004=VMM$COMBINE_MESSAGE File=VMM$MESSAGE.:VMB6TSI                 WED 08/20/97 15:18 Page:167
     1153     9061
     1154     9062    2       RETURN;
     1155     9063
     1156     9064    2   END PACK;
     1157     9065
     1158     9066    1   END VMM$COMBINE_MESSAGE;

PL6.E3A0      #004=VMM$COMBINE_MESSAGE File=VMM$MESSAGE.:VMB6TSI                 WED 08/20/97 15:18 Page:168
--  Include file information  --

   VM_PERR_C.:VMB6TOU  is referenced.
   VM_MACRO_C.:VMB6TOU  is referenced.
   B_MACROS_C.:LIB_E05  is referenced.
   VM_DATA_R.:VMB6TOU  cannot be made into a system file and is referenced.
   CP_6_SUBS.:LIB_E05  is referenced.
   CP_6_C.:LIB_E05  is referenced.
   CP_6.:LIB_E05  cannot be made into a system file and is referenced.
      No diagnostics issued in procedure VMM$COMBINE_MESSAGE.

   Procedure VMM$COMBINE_MESSAGE requires 454 words for executable code.
   Procedure VMM$COMBINE_MESSAGE requires 664 words of local(AUTO) storage.

    No errors detected in file VMM$MESSAGE.:VMB6TSI    .

PL6.E3A0      #004=VMM$COMBINE_MESSAGE File=VMM$MESSAGE.:VMB6TSI                 WED 08/20/97 15:18 Page:169

 Object Unit name= VMM$COMBINE_MESSAGE                        File name= VMM$MESSAGE.:VMB6TOU
 UTS= AUG 20 '97 15:18:31.92 WED                              Compiler= PL-6/E31         Sev=      00
 SharedLib= :SHARED_SYSTEM                                    Alt SharedLib=


    ****  Control sections  ****

 Sect   Type Bound  Init  Size OctSiz  Section name(segment info)
    0   DCB   even  none     0      0  M$UC
    1   DCB   even  none     0      0  M$MAIL_FILE
    2   DCB   even  none     0      0  M$MAIL_CENTRAL
    3   DCB   even  none     0      0  M$MAIL_GLOBAL
    4   DCB   even  none     0      0  M$WORK
    5   DCB   even  none     0      0  M$MAIL_COMGROUP
    6   DCB   even  none     0      0  M$DO
    7   DCB   even  none     0      0  M$LO
    8   DCB   even  none     0      0  M$ME
    9   DCB   even  none     0      0  M$NODE
   10   DCB   even  none     0      0  M$SI
   11  RoData even  UTS     80    120  VMM$COMBINE_MESSAGE
   12   Data  even  none    20     24  VMM$COMBINE_MESSAGE
   13   Proc  even  none   454    706  VMM$COMBINE_MESSAGE
   14  RoData even  none     6      6  VMM$COMBINE_MESSAGE

    ****  Entry defs  ****

                              Check   Calling
                             calling  sequence
  Sect OctLoc Primary Altret sequence   type   Parms  Name
    13      0   yes    yes     yes      Std        3  VMM$COMBINE_MESSAGE
PL6.E3A0      #004=VMM$COMBINE_MESSAGE File=VMM$MESSAGE.:VMB6TSI                 WED 08/20/97 15:18 Page:170

  ****  Entry refs  ****

         Check        Calling
        calling       sequence
Altret sequence SRef   type   Args  Name
 yes     yes           Std       3 VMD$GET_ID
 yes     yes           Std       2 VMD$GET_HEADER
 yes     yes           Std       2 VMD$PUT_HEADER
 yes     yes           Std       9 VMD$GET_BODY
 yes     yes           Std       7 VMD$GET_TRACE
 yes     yes           Std       7 VMD$PUT_TRACE
                       nStd      0 X66_AUTO_3
                       nStd      0 X66_AALT
                       nStd      0 X66_ARET

  ****  Data refs  ****

  Flags:  r = read only, s = secondary
Flgs Name                             Flgs Name                             Flgs Name
     M$UC                             r    VM_HEADER$                       r    VM_PROFILE$
r    VM_ADDLIST$                      r    VM_ADDREC$                       r    VM_WORK$
r    VM_SELECT$                       r    VM_PARSEAREA$                    r    VM_INPUT$
r    VM_COPY$                              VM_ENCLLIST$                          VM_ENCLREC$
     VM_HEADER_                            VM_HEADER_INIT_                       VM_PROFILE_
     VM_ADDLIST_                           VM_ADDREC_                            VM_WORK_
     VM_SELECT_                            VM_PARSEAREA_                         VM_INPUT_
     VM_COPY_                              VM_ENCLLIST_                          VM_ENCLREC_
     M$MAIL_FILE                           M$MAIL_CENTRAL                        M$MAIL_GLOBAL
     M$WORK                                M$MAIL_COMGROUP                       M$DO
     M$LO                                  M$ME                                  M$NODE
     M$SI                                  M$MAIL_FILE_NUM                       M$MAIL_CENTRAL_NUM
     M$MAIL_GLOBAL_NUM                     M$WORK_NUM                            M$MAIL_COMGROUP_NUM
     M$DO_NUM                              M$ME_NUM                              M$LO_NUM
     M$SI_NUM                              M$NODE_NUM                       r    B$JIT$
r    B$TCB$                                VM_MAIL_ACCT                          VM_NAME_MAP_NAME
     ERRMSG_FID                            VM_SEND_FILE_NAME                     VM_FORWARD_FILE_NAME
     VM_FORWARD_ENCL_NAME                  VM_FORWARD_FILE_PASS                  VM_MAILCG_NAME
PL6.E3A0      #004=VMM$COMBINE_MESSAGE File=VMM$MESSAGE.:VMB6TSI                 WED 08/20/97 15:18 Page:171
     VM_SITENAME                           VM_MAILCG_SETSTA

  ****  Segment refs  ****

  Flags:  r = read only, s = secondary
Flgs Name                             Flgs Name                             Flgs Name
     ISSID                                 NULLSID
PL6.E3A0      #004=VMM$COMBINE_MESSAGE File=VMM$MESSAGE.:VMB6TSI                 WED 08/20/97 15:18 Page:172


      850        1        /*T***********************************************************/
      851        2        /*T*                                                         */
      852        3        /*T* Copyright (c) Bull HN Information Systems Inc., 1997    */
      853        4        /*T*                                                         */
      854        5        /*T***********************************************************/
      855        6        /*X* DMC,PLM=4,IND=4,CTI=2,DTI=0,ENI=0,ECI=0,CSI=0,DCI=4 */
      856        7        VMM$COMBINE_MESSAGE: PROC (DCB_IN, MSG_NUMBER_IN, DCB_OUT) ALTRET;

      7 13 000000   000000 700200 xent  VMM$COMBINE* TSX0  ! X66_AUTO_3
        13 000001   001230 000003                    ZERO    664,3

      857        8        /*P*  NAME: VMM$COMBINE_MESSAGE
      858        9              PURPOSE: Combines error and response information with an existing
      859       10                       mailgram.
      860       11              DESCRIPTION:
      861       12                    This routine is called from MAILMAN during message delivery,
      862       13                    and from MAIL during MOVE MESSAGE and COPY MESSAGE.  It attempts
      863       14                    to insert information from an ERR, ACK, ANS, or DELIVERY mailgram
      864       15                    into the trace record area of the original mailgram from which
      865       16                    the ERR etc. was spawned.
      866       17              INPUT:   VM_HEADER contains the header of the new mailgram to be
      867       18                                combined;
      868       19                       VM_PROFILE contains the profile of the mailbox into which this
      869       20                                mailgram is being inserted.
      870       21              OUTPUT:  Normal return:  the input mailgram has been combined with its
      871       22                                originator in this folder.
      872       23                       Alternate return:  the input mailgram has not been combined.
      873       24                       Both:  VM_HEADER has probably been trashed, and must be reread.
      874       25        */
      875       26
      876       27    1   DCL DCB_IN UBIN;
      877       28    1   DCL MSG_NUMBER_IN UBIN;
      878       29    1   DCL DCB_OUT UBIN;
      879       30    1   DCL MSG_NUMBER_OUT UBIN;
      880       31
      881       32        %INCLUDE CP_6;
PL6.E3A0      #004=VMM$COMBINE_MESSAGE File=VMM$MESSAGE.:VMB6TSI                 WED 08/20/97 15:18 Page:173
      882     5591        %INCLUDE CP_6_SUBS;
      883     6131        %INCLUDE VM_DATA_R;
      884     6562        %INCLUDE VM_MACRO_C;
      885     7830        %INCLUDE VM_PERR_C;
      886     8125
      887     8126    1   DCL COUNT UBIN;
      888     8127    1   DCL COUNT1 UBIN;
      889     8128    1   DCL MESSAGE_NUMBER UBIN;
      890     8129    1   DCL NUM_RECORDS UBIN;
      891     8130    1   DCL I UBIN;
      892     8131    1   DCL J UBIN;
      893     8132    1   DCL ID CHAR (255);
      894     8133    1   DCL 1 ANSWER_ID,
      895     8134    1         2 COUNT UBIN BYTE CALIGNED,
      896     8135    1         2 TEXT CHAR (511);
      897     8136    1   DCL 1 SENDER,
      898     8137    1         2 COUNT UBIN BYTE CALIGNED,
      899     8138    1         2 TEXT CHAR (511);
      900     8139    1   DCL 1 BAD_ADDRESS,
      901     8140    1         2 COUNT UBIN BYTE CALIGNED,
      902     8141    1         2 TEXT CHAR (511);
      903     8142
      904     8143        %VLP_ERRCODE (FPTN=E_ACKED,FCG="VO",MID="M",
      905     8144                      ERR#=%E$ACKED,STCLASS=CONSTANT);
      906     8189
      907     8190              %VLP_ERRCODE (FPTN=E_RRACKED,FCG="VO",MID="M",
      908     8191              ERR#=%E$RRACKED,STCLASS=CONSTANT);
      909     8236
      910     8237              %VLP_ERRCODE (FPTN=E_ANSWERED,FCG="VO",MID="M",
      911     8238              ERR#=%E$ANSWERED,STCLASS=CONSTANT);
      912     8283
      913     8284              %FPT_ENQ (FPTN=ENQ_HEADER,
      914     8285              SHARE=NONE,
      915     8286              WAIT=YES,
      916     8287              RNAME=VM_HEADRES);
      917     8305
      918     8306        %FPT_DEQ (FPTN=DEQ_HEADER,
PL6.E3A0      #004=VMM$COMBINE_MESSAGE File=VMM$MESSAGE.:VMB6TSI                 WED 08/20/97 15:18 Page:174
      919     8307                  RNAME=VM_HEADRES);
      920     8324
      921     8325        %VM_HEADRES (STCLASS=STATIC);
      922     8339
      923     8340        %VM_BODYTYPES;
      924     8346        %VM_KEYTYPES;
      925     8367        %VM_PROFILE;
      926     8454        %VM_HEADER;
      927     8583        %VM_HEADER (NAME=SAVED_HEADER, STCLASS=AUTO);
      928     8712        %VM_BODYREC (NAME=VM_BODYREC_ENCODED, STCLASS=AUTO, ERR_FORMAT=YES);
      929     8744        %VM_BODYREC (NAME=OLD_BODYREC_ENCODED, STCLASS=AUTO, ERR_FORMAT=YES);
      930     8776        %VM_BODYREC (NAME=VM$BODYREC_ENCODED, STCLASS=BASED, VARYLEN=YES,
      931     8777                             ERR_FORMAT=YES);
      932     8809        %VM_BODYREC (NAME=INIT_BODYREC_ENCODED, STCLASS=CONSTANT,
      933     8810                             TYP=%VM_BODY_ENCODED_ERR, ERR_FORMAT=YES);
      934     8842
      935     8843    1   DCL VMD$GET_HEADER ENTRY (2) ALTRET;
      936     8844    1   DCL VMD$PUT_HEADER ENTRY (2) ALTRET;
      937     8845    1   DCL VMD$GET_BODY ENTRY (9) ALTRET;
      938     8846    1   DCL VMD$GET_TRACE ENTRY (7) ALTRET;
      939     8847    1   DCL VMD$PUT_TRACE ENTRY (7) ALTRET;
      940     8848    1   DCL VMD$GET_ID ENTRY (3) ALTRET;
      941     8849
      942     8850        %EJECT;
PL6.E3A0      #004=VMM$COMBINE_MESSAGE File=VMM$MESSAGE.:VMB6TSI                 WED 08/20/97 15:18 Page:175
      943     8851    1       IF (NOT VM_HEADER.STATUS.ERR AND NOT VM_HEADER.STATUS.ACK

   8851 13 000002   000000 470400 xsym               LDP0    VM_HEADER$
        13 000003   000012 234100                    SZN     10,,PR0
        13 000004   000016 604000 13                 TMI     s:8851+12
        13 000005   000012 236100                    LDQ     10,,PR0
        13 000006   100000 316003                    CANQ    32768,DU
        13 000007   000016 601000 13                 TNZ     s:8851+12
        13 000010   020000 316007                    CANQ    8192,DL
        13 000011   000016 601000 13                 TNZ     s:8851+12
        13 000012   200000 316003                    CANQ    65536,DU
        13 000013   000016 601000 13                 TNZ     s:8851+12
        13 000014   000002 316003                    CANQ    2,DU
        13 000015   000021 600000 13                 TZE     s:8856
        13 000016   000033 236100                    LDQ     27,,PR0
        13 000017   000000 116000 14                 CMPQ    0
        13 000020   000022 601000 13                 TNZ     s:8858

      944     8852    1         AND NOT VM_HEADER.STATUS.RRACK
      945     8853    1         AND NOT VM_HEADER.STATUS.ANSWER AND NOT VM_HEADER.STATUS.DELIVERY)
      946     8854    1         OR VM_HEADER.REFERS_TO_ID$ = ADDR(NIL)
      947     8855    1       THEN
      948     8856    1           ALTRETURN;

   8856 13 000021   000000 702200 xent               TSX2  ! X66_AALT

      949     8857
      950     8858    1       CALL VMD$GET_ID (VM_HEADER.REFERS_TO_ID$ -> X$STRING, DCB_OUT,

   8858 13 000022   000033 471500                    LDP1    27,,PR0
        13 000023   200011 633500                    EPPR3   MESSAGE_NUMBER,,AUTO
        13 000024   201224 453500                    STP3    TSIZ+3,,AUTO
        13 000025   200005 236100                    LDQ     @DCB_OUT,,AUTO
        13 000026   201223 756100                    STQ     TSIZ+2,,AUTO
        13 000027   201222 451500                    STP1    TSIZ+1,,AUTO
        13 000030   201222 630500                    EPPR0   TSIZ+1,,AUTO
        13 000031   000001 631400 14                 EPPR1   1
PL6.E3A0      #004=VMM$COMBINE_MESSAGE File=VMM$MESSAGE.:VMB6TSI                 WED 08/20/97 15:18 Page:176
        13 000032   000000 701000 xent               TSX1    VMD$GET_ID
        13 000033   000035 702000 13                 TSX2    s:8861
        13 000034   000036 710000 13                 TRA     s:8864

      951     8859    1         MESSAGE_NUMBER)
      952     8860    2       WHENALTRETURN DO;

      953     8861    2           ALTRETURN;

   8861 13 000035   000000 702200 xent               TSX2  ! X66_AALT

      954     8862    2       END;
      955     8863
      956     8864    1       SAVED_HEADER = VM_HEADER;

   8864 13 000036   000000 470400 xsym               LDP0    VM_HEADER$
        13 000037   000100 100500                    MLR     fill='000'O
        13 000040   000000 000224                    ADSC9   0,,PR0                   cn=0,n=148
        13 000041   200715 000224                    ADSC9   SAVED_HEADER,,AUTO       cn=0,n=148

      957     8865
      958     8866    1       IF VM_HEADER.UNIQUE_ID$ = ADDR(NIL)

   8866 13 000042   000032 236100                    LDQ     26,,PR0
        13 000043   000000 116000 14                 CMPQ    0
        13 000044   000051 601000 13                 TNZ     s:8870

      959     8867    1       THEN
      960     8868    1           ANSWER_ID = '0'B;

   8868 13 000045   000100 100400                    MLR     fill='000'O
        13 000046   000002 000001 14                 ADSC9   2                        cn=0,n=1
        13 000047   200115 001000                    ADSC9   ANSWER_ID,,AUTO          cn=0,n=512
        13 000050   000062 710000 13                 TRA     s:8872

      961     8869    1       ELSE
      962     8870    1           ANSWER_ID = VM_HEADER.UNIQUE_ID$ -> X$STRING;
PL6.E3A0      #004=VMM$COMBINE_MESSAGE File=VMM$MESSAGE.:VMB6TSI                 WED 08/20/97 15:18 Page:177

   8870 13 000051   000032 471500                    LDP1    26,,PR0
        13 000052   000100 101500                    MRL     fill='000'O
        13 000053   100000 000001                    ADSC9   0,,PR1                   cn=0,n=1
        13 000054   201222 000002                    ADSC9   TSIZ+1,,AUTO             cn=0,n=2
        13 000055   201222 220100                    LDX0    TSIZ+1,,AUTO
        13 000056   000001 621010                    EAX1    1,X0
        13 000057   000100 100540                    MLR     fill='000'O
        13 000060   100000 000011                    ADSC9   0,,PR1                   cn=0,n=*X1
        13 000061   200115 001000                    ADSC9   ANSWER_ID,,AUTO          cn=0,n=512

      963     8871
      964     8872    1       ID = VM_HEADER.REFERS_TO_ID$ -> X$STRING.TEXT;

   8872 13 000062   000033 471500                    LDP1    27,,PR0
        13 000063   000100 101500                    MRL     fill='000'O
        13 000064   100000 000001                    ADSC9   0,,PR1                   cn=0,n=1
        13 000065   201222 000002                    ADSC9   TSIZ+1,,AUTO             cn=0,n=2
        13 000066   201222 220100                    LDX0    TSIZ+1,,AUTO
        13 000067   040100 100540                    MLR     fill='040'O
        13 000070   100000 200010                    ADSC9   0,,PR1                   cn=1,n=*X0
        13 000071   200015 000377                    ADSC9   ID,,AUTO                 cn=0,n=255

      965     8873
      966     8874    1       IF VM_HEADER.FROM$ = ADDR(NIL)

   8874 13 000072   000023 236100                    LDQ     19,,PR0
        13 000073   000000 116000 14                 CMPQ    0
        13 000074   000100 601000 13                 TNZ     s:8878

      967     8875    1       THEN
      968     8876    1           SENDER.COUNT = 0;

   8876 13 000075   000000 236003                    LDQ     0,DU
        13 000076   200315 552140                    STBQ    SENDER,'40'O,AUTO
        13 000077   000111 710000 13                 TRA     s:8880

PL6.E3A0      #004=VMM$COMBINE_MESSAGE File=VMM$MESSAGE.:VMB6TSI                 WED 08/20/97 15:18 Page:178
      969     8877    1       ELSE
      970     8878    1           SENDER = VM_HEADER.FROM$ -> X$STRING;

   8878 13 000100   000023 471500                    LDP1    19,,PR0
        13 000101   000100 101500                    MRL     fill='000'O
        13 000102   100000 000001                    ADSC9   0,,PR1                   cn=0,n=1
        13 000103   201222 000002                    ADSC9   TSIZ+1,,AUTO             cn=0,n=2
        13 000104   201222 220100                    LDX0    TSIZ+1,,AUTO
        13 000105   000001 621010                    EAX1    1,X0
        13 000106   000100 100540                    MLR     fill='000'O
        13 000107   100000 000011                    ADSC9   0,,PR1                   cn=0,n=*X1
        13 000110   200315 001000                    ADSC9   SENDER,,AUTO             cn=0,n=512

      971     8879
      972     8880    1       IF VM_HEADER.BAD_ADDRESS$ = ADDR(NIL)

   8880 13 000111   000017 236100                    LDQ     15,,PR0
        13 000112   000000 116000 14                 CMPQ    0
        13 000113   000117 601000 13                 TNZ     s:8884

      973     8881    1       THEN
      974     8882    1           BAD_ADDRESS.COUNT = 0;

   8882 13 000114   000000 236003                    LDQ     0,DU
        13 000115   200515 552140                    STBQ    BAD_ADDRESS,'40'O,AUTO
        13 000116   000130 710000 13                 TRA     s:8886

      975     8883    1       ELSE
      976     8884    1           BAD_ADDRESS = VM_HEADER.BAD_ADDRESS$ -> X$STRING;

   8884 13 000117   000017 471500                    LDP1    15,,PR0
        13 000120   000100 101500                    MRL     fill='000'O
        13 000121   100000 000001                    ADSC9   0,,PR1                   cn=0,n=1
        13 000122   201222 000002                    ADSC9   TSIZ+1,,AUTO             cn=0,n=2
        13 000123   201222 220100                    LDX0    TSIZ+1,,AUTO
        13 000124   000001 621010                    EAX1    1,X0
        13 000125   000100 100540                    MLR     fill='000'O
PL6.E3A0      #004=VMM$COMBINE_MESSAGE File=VMM$MESSAGE.:VMB6TSI                 WED 08/20/97 15:18 Page:179
        13 000126   100000 000011                    ADSC9   0,,PR1                   cn=0,n=*X1
        13 000127   200515 001000                    ADSC9   BAD_ADDRESS,,AUTO        cn=0,n=512

      977     8885
      978     8886    1       VM_HEADRES.RES# = MESSAGE_NUMBER;

   8886 13 000130   000000 100500                    MLR     fill='000'O
        13 000131   200011 000004                    ADSC9   MESSAGE_NUMBER,,AUTO     cn=0,n=4
        13 000132   000022 200004 12                 ADSC9   VM_HEADRES               cn=1,n=4

      979     8887    1       ENQ_HEADER.V.DCB# = DCB_OUT;

   8887 13 000133   200005 471500                    LDP1    @DCB_OUT,,AUTO
        13 000134   100000 720100                    LXL0    0,,PR1
        13 000135   000006 740000 12                 STX0    ENQ_HEADER+6

      980     8888    1       DEQ_HEADER.V.DCB# = DCB_OUT;

   8888 13 000136   100000 721100                    LXL1    0,,PR1
        13 000137   000020 741000 12                 STX1    DEQ_HEADER+6

      981     8889
      982     8890    1       CALL M$ENQ (ENQ_HEADER)

   8890 13 000140   000000 630400 12                 EPPR0   ENQ_HEADER
        13 000141   420002 713400                    CLIMB   alt,+8194
        13 000142   401000 401760                    pmme    nvectors=3
        13 000143   000145 702000 13                 TSX2    s:8892
        13 000144   000147 710000 13                 TRA     s:8895

      983     8891    2       WHENALTRETURN DO;

      984     8892    2           CALL M$ERR;

   8892 13 000145   000002 713400                    CLIMB   err
        13 000146   000000 401760                    pmme    nvectors=0

PL6.E3A0      #004=VMM$COMBINE_MESSAGE File=VMM$MESSAGE.:VMB6TSI                 WED 08/20/97 15:18 Page:180
      985     8893    2       END;

      986     8894
      987     8895    1       CALL VMD$GET_HEADER (MESSAGE_NUMBER, DCB_OUT) ALTRET (BAILOUT);

   8895 13 000147   200005 236100                    LDQ     @DCB_OUT,,AUTO
        13 000150   201223 756100                    STQ     TSIZ+2,,AUTO
        13 000151   200011 630500                    EPPR0   MESSAGE_NUMBER,,AUTO
        13 000152   201222 450500                    STP0    TSIZ+1,,AUTO
        13 000153   201222 630500                    EPPR0   TSIZ+1,,AUTO
        13 000154   000003 631400 14                 EPPR1   3
        13 000155   000000 701000 xent               TSX1    VMD$GET_HEADER
        13 000156   000556 702000 13                 TSX2    BAILOUT

      988     8896
      989     8897    1       IF VM_HEADER.UNIQUE_ID$ = ADDR(NIL)

   8897 13 000157   000000 470400 xsym               LDP0    VM_HEADER$
        13 000160   000032 236100                    LDQ     26,,PR0
        13 000161   000000 116000 14                 CMPQ    0
        13 000162   000556 600000 13                 TZE     BAILOUT
        13 000163   000032 471500                    LDP1    26,,PR0
        13 000164   000100 101500                    MRL     fill='000'O
        13 000165   100000 000001                    ADSC9   0,,PR1                   cn=0,n=1
        13 000166   201222 000002                    ADSC9   TSIZ+1,,AUTO             cn=0,n=2
        13 000167   201222 220100                    LDX0    TSIZ+1,,AUTO
        13 000170   040100 106540                    CMPC    fill='040'O
        13 000171   100000 200010                    ADSC9   0,,PR1                   cn=1,n=*X0
        13 000172   200015 000377                    ADSC9   ID,,AUTO                 cn=0,n=255
        13 000173   000556 601000 13                 TNZ     BAILOUT

      990     8898    1         OR VM_HEADER.UNIQUE_ID$ -> X$STRING.TEXT ~= ID
      991     8899    1       THEN
      992     8900    1           GOTO BAILOUT;
      993     8901
      994     8902    1       IF SAVED_HEADER.STATUS.DELIVERY

PL6.E3A0      #004=VMM$COMBINE_MESSAGE File=VMM$MESSAGE.:VMB6TSI                 WED 08/20/97 15:18 Page:181
   8902 13 000174   200727 236100                    LDQ     SAVED_HEADER+10,,AUTO
        13 000175   000002 316003                    CANQ    2,DU
        13 000176   000203 601000 13                 TNZ     s:8906
        13 000177   200727 234100                    SZN     SAVED_HEADER+10,,AUTO
        13 000200   000341 605000 13                 TPL     s:8949
        13 000201   200731 235100                    LDA     SAVED_HEADER+12,,AUTO
        13 000202   000341 601000 13                 TNZ     s:8949

      995     8903    1         OR (SAVED_HEADER.STATUS.ERR AND SAVED_HEADER.ERROR = '0'B)
      996     8904    2       THEN DO;

      997     8905
      998     8906    2           NUM_RECORDS = VM_HEADER.NUM_TRACE_RECORDS;

   8906 13 000203   000034 235100                    LDA     28,,PR0
        13 000204   200012 755100                    STA     NUM_RECORDS,,AUTO

      999     8907
     1000     8908    3           DO I = 0 TO SAVED_HEADER.NUM_RECORDS - 1;

   8908 13 000205   200013 450100                    STZ     I,,AUTO
        13 000206   000320 710000 13                 TRA     s:8938+3

     1001     8909
     1002     8910    3               VM_BODYREC_ENCODED = '0'B;

   8910 13 000207   000100 100400                    MLR     fill='000'O
        13 000210   000002 000001 14                 ADSC9   2                        cn=0,n=1
        13 000211   200762 000464                    ADSC9   VM_BODYREC_ENCODED,,AUTO cn=0,n=308

     1003     8911
     1004     8912    3               CALL VMD$GET_BODY (0, DCB_IN, I, COUNT, ,

   8912 13 000212   200762 630500                    EPPR0   VM_BODYREC_ENCODED,,AUTO
        13 000213   201227 450500                    STP0    TSIZ+6,,AUTO
        13 000214   000000 236000 14                 LDQ     0
        13 000215   201226 756100                    STQ     TSIZ+5,,AUTO
PL6.E3A0      #004=VMM$COMBINE_MESSAGE File=VMM$MESSAGE.:VMB6TSI                 WED 08/20/97 15:18 Page:182
        13 000216   200007 631500                    EPPR1   COUNT,,AUTO
        13 000217   201225 451500                    STP1    TSIZ+4,,AUTO
        13 000220   200013 633500                    EPPR3   I,,AUTO
        13 000221   201224 453500                    STP3    TSIZ+3,,AUTO
        13 000222   200003 236100                    LDQ     @DCB_IN,,AUTO
        13 000223   000005 235000 14                 LDA     5
        13 000224   201222 757100                    STAQ    TSIZ+1,,AUTO
        13 000225   201222 630500                    EPPR0   TSIZ+1,,AUTO
        13 000226   000004 631400 14                 EPPR1   4
        13 000227   000000 701000 xent               TSX1    VMD$GET_BODY
        13 000230   000323 702000 13                 TSX2    DONE_DELIVERY

     1005     8913    3                 VM_BODYREC_ENCODED) ALTRET (DONE_DELIVERY);
     1006     8914
     1007     8915    4   ADD_IF_UNIQUE: DO;

   8915 13 000231                       ADD_IF_UNIQ* null
     1008     8916
     1009     8917    5                   DO J = 0 TO NUM_RECORDS - 1;

   8917 13 000231   200014 450100                    STZ     J,,AUTO
        13 000232   000265 710000 13                 TRA     s:8929+3

     1010     8918
     1011     8919    5                       OLD_BODYREC_ENCODED = '0'B;

   8919 13 000233   000100 100400                    MLR     fill='000'O
        13 000234   000002 000001 14                 ADSC9   2                        cn=0,n=1
        13 000235   201077 000464                    ADSC9   OLD_BODYREC_ENCODED,,AUTO cn=0,n=308

     1012     8920
     1013     8921    5                       CALL VMD$GET_TRACE (MESSAGE_NUMBER, DCB_OUT, J,

   8921 13 000236   201077 630500                    EPPR0   OLD_BODYREC_ENCODED,,AUTO
        13 000237   201227 450500                    STP0    TSIZ+6,,AUTO
        13 000240   000000 236000 14                 LDQ     0
        13 000241   201226 756100                    STQ     TSIZ+5,,AUTO
PL6.E3A0      #004=VMM$COMBINE_MESSAGE File=VMM$MESSAGE.:VMB6TSI                 WED 08/20/97 15:18 Page:183
        13 000242   200010 631500                    EPPR1   COUNT1,,AUTO
        13 000243   201225 451500                    STP1    TSIZ+4,,AUTO
        13 000244   200014 633500                    EPPR3   J,,AUTO
        13 000245   201224 453500                    STP3    TSIZ+3,,AUTO
        13 000246   200005 236100                    LDQ     @DCB_OUT,,AUTO
        13 000247   201223 756100                    STQ     TSIZ+2,,AUTO
        13 000250   200011 634500                    EPPR4   MESSAGE_NUMBER,,AUTO
        13 000251   201222 454500                    STP4    TSIZ+1,,AUTO
        13 000252   201222 630500                    EPPR0   TSIZ+1,,AUTO
        13 000253   000004 631400 14                 EPPR1   4
        13 000254   000000 701000 xent               TSX1    VMD$GET_TRACE
        13 000255   000262 702000 13                 TSX2    s:8929

     1014     8922    5                         COUNT1, , OLD_BODYREC_ENCODED)
     1015     8923    6                       WHENRETURN DO;

     1016     8924    6                           IF VM_BODYREC_ENCODED = OLD_BODYREC_ENCODED

   8924 13 000256   000100 106500                    CMPC    fill='000'O
        13 000257   200762 000464                    ADSC9   VM_BODYREC_ENCODED,,AUTO cn=0,n=308
        13 000260   201077 000464                    ADSC9   OLD_BODYREC_ENCODED,,AUTO cn=0,n=308
        13 000261   000315 600000 13                 TZE     s:8938

     1017     8925    6                           THEN
     1018     8926    6                               EXIT ADD_IF_UNIQUE;
     1019     8927    6                       END;

     1020     8928
     1021     8929    5                   END;

   8929 13 000262   200014 235100                    LDA     J,,AUTO
        13 000263   000001 035007                    ADLA    1,DL
        13 000264   200014 755100                    STA     J,,AUTO
        13 000265   200014 236100                    LDQ     J,,AUTO
        13 000266   200012 116100                    CMPQ    NUM_RECORDS,,AUTO
        13 000267   000233 602000 13                 TNC     s:8919

PL6.E3A0      #004=VMM$COMBINE_MESSAGE File=VMM$MESSAGE.:VMB6TSI                 WED 08/20/97 15:18 Page:184
     1022     8930
     1023     8931    4                   CALL VMD$PUT_TRACE (MESSAGE_NUMBER, DCB_OUT,

   8931 13 000270   200762 630500                    EPPR0   VM_BODYREC_ENCODED,,AUTO
        13 000271   201227 450500                    STP0    TSIZ+6,,AUTO
        13 000272   000000 236000 14                 LDQ     0
        13 000273   201226 756100                    STQ     TSIZ+5,,AUTO
        13 000274   200007 631500                    EPPR1   COUNT,,AUTO
        13 000275   201225 451500                    STP1    TSIZ+4,,AUTO
        13 000276   000000 236000 xsym               LDQ     VM_HEADER$
        13 000277   000034 036003                    ADLQ    28,DU
        13 000300   201224 756100                    STQ     TSIZ+3,,AUTO
        13 000301   200005 236100                    LDQ     @DCB_OUT,,AUTO
        13 000302   201223 756100                    STQ     TSIZ+2,,AUTO
        13 000303   200011 633500                    EPPR3   MESSAGE_NUMBER,,AUTO
        13 000304   201222 453500                    STP3    TSIZ+1,,AUTO
        13 000305   201222 630500                    EPPR0   TSIZ+1,,AUTO
        13 000306   000004 631400 14                 EPPR1   4
        13 000307   000000 701000 xent               TSX1    VMD$PUT_TRACE
        13 000310   000000 011000                    NOP     0

     1024     8932    4                     VM_HEADER.NUM_TRACE_RECORDS, COUNT, , VM_BODYREC_ENCODED);
     1025     8933
     1026     8934    4                   VM_HEADER.NUM_TRACE_RECORDS = VM_HEADER.NUM_TRACE_RECORDS + 1;

   8934 13 000311   000000 470400 xsym               LDP0    VM_HEADER$
        13 000312   000034 235100                    LDA     28,,PR0
        13 000313   000001 035007                    ADLA    1,DL
        13 000314   000034 755100                    STA     28,,PR0

     1027     8935
     1028     8936    4               END ADD_IF_UNIQUE;

     1029     8937
     1030     8938    3           END;

   8938 13 000315   200013 235100                    LDA     I,,AUTO
PL6.E3A0      #004=VMM$COMBINE_MESSAGE File=VMM$MESSAGE.:VMB6TSI                 WED 08/20/97 15:18 Page:185
        13 000316   000001 035007                    ADLA    1,DL
        13 000317   200013 755100                    STA     I,,AUTO
        13 000320   200013 236100                    LDQ     I,,AUTO
        13 000321   200726 116100                    CMPQ    SAVED_HEADER+9,,AUTO
        13 000322   000207 602000 13                 TNC     s:8910

     1031     8939
     1032     8940    2   DONE_DELIVERY:
     1033     8941
     1034     8942    2           CALL VMD$PUT_HEADER (MESSAGE_NUMBER, DCB_OUT) ALTRET (BAILOUT);

   8942 13 000323   200005 236100       DONE_DELIVE* LDQ     @DCB_OUT,,AUTO
        13 000324   201223 756100                    STQ     TSIZ+2,,AUTO
        13 000325   200011 630500                    EPPR0   MESSAGE_NUMBER,,AUTO
        13 000326   201222 450500                    STP0    TSIZ+1,,AUTO
        13 000327   201222 630500                    EPPR0   TSIZ+1,,AUTO
        13 000330   000003 631400 14                 EPPR1   3
        13 000331   000000 701000 xent               TSX1    VMD$PUT_HEADER
        13 000332   000556 702000 13                 TSX2    BAILOUT

     1035     8943
     1036     8944    3           CALL M$DEQ (DEQ_HEADER) WHENALTRETURN DO; END;

   8944 13 000333   000012 630400 12                 EPPR0   DEQ_HEADER
        13 000334   420003 713400                    CLIMB   alt,+8195
        13 000335   401000 401760                    pmme    nvectors=3
        13 000336   000340 702000 13                 TSX2    s:8946
        13 000337   000340 710000 13                 TRA     s:8946

     1037     8945
     1038     8946    2           RETURN;

   8946 13 000340   000000 702200 xent               TSX2  ! X66_ARET

     1039     8947    2       END;
     1040     8948
     1041     8949    1       VM_BODYREC_ENCODED = INIT_BODYREC_ENCODED;
PL6.E3A0      #004=VMM$COMBINE_MESSAGE File=VMM$MESSAGE.:VMB6TSI                 WED 08/20/97 15:18 Page:186

   8949 13 000341   000100 100400                    MLR     fill='000'O
        13 000342   000003 000464 11                 ADSC9   INIT_BODYREC_ENCODED     cn=0,n=308
        13 000343   200762 000464                    ADSC9   VM_BODYREC_ENCODED,,AUTO cn=0,n=308

     1042     8950    1       VM_BODYREC_ENCODED.VALUE.DATA.STUFF = '0'B;

   8950 13 000344   000100 100400                    MLR     fill='000'O
        13 000345   000002 000001 14                 ADSC9   2                        cn=0,n=1
        13 000346   200766 000444                    ADSC9   VM_BODYREC_ENCODED+4,,AUTO cn=0,n=292

     1043     8951    1       VM_BODYREC_ENCODED.VALUE.DATA.UTS = SAVED_HEADER.CREATION_DATE;

   8951 13 000347   200716 235100                    LDA     SAVED_HEADER+1,,AUTO
        13 000350   200765 755100                    STA     VM_BODYREC_ENCODED+3,,AUTO

     1044     8952
     1045     8953    1       IF SAVED_HEADER.STATUS.RRACK

   8953 13 000351   020000 316007                    CANQ    8192,DL
        13 000352   000367 600000 13                 TZE     s:8961

     1046     8954    2       THEN DO;

     1047     8955
     1048     8956    2           VM_BODYREC_ENCODED.VALUE.DATA.ERR = E_RRACKED;

   8956 13 000353   000001 236000 11                 LDQ     E_RRACKED
        13 000354   200764 756100                    STQ     VM_BODYREC_ENCODED+2,,AUTO

     1049     8957    2           CALL PACK (VM_BODYREC_ENCODED.VALUE.DATA.STUFF, COUNT, SENDER);

   8957 13 000355   000000 236000 14                 LDQ     0
        13 000356   201220 756100                    STQ     @T1+1,,AUTO
        13 000357   200315 631500                    EPPR1   SENDER,,AUTO
        13 000360   201217 451500                    STP1    @COUNT+1,,AUTO
        13 000361   200007 633500                    EPPR3   COUNT,,AUTO
PL6.E3A0      #004=VMM$COMBINE_MESSAGE File=VMM$MESSAGE.:VMB6TSI                 WED 08/20/97 15:18 Page:187
        13 000362   201216 453500                    STP3    @BUFFER+1,,AUTO
        13 000363   200766 634500                    EPPR4   VM_BODYREC_ENCODED+4,,AUTO
        13 000364   201215 454500                    STP4    OLD_BODYREC_ENCODED+78,,AUTO
        13 000365   000564 701000 13                 TSX1    PACK
        13 000366   000000 011000                    NOP     0

     1050     8958
     1051     8959    2       END;

     1052     8960
     1053     8961    1       IF SAVED_HEADER.STATUS.ACK

   8961 13 000367   200727 236100                    LDQ     SAVED_HEADER+10,,AUTO
        13 000370   100000 316003                    CANQ    32768,DU
        13 000371   000406 600000 13                 TZE     s:8969

     1054     8962    2       THEN DO;

     1055     8963
     1056     8964    2           VM_BODYREC_ENCODED.VALUE.DATA.ERR = E_ACKED;

   8964 13 000372   000000 236000 11                 LDQ     E_ACKED
        13 000373   200764 756100                    STQ     VM_BODYREC_ENCODED+2,,AUTO

     1057     8965    2           CALL PACK (VM_BODYREC_ENCODED.VALUE.DATA.STUFF, COUNT, SENDER);

   8965 13 000374   000000 236000 14                 LDQ     0
        13 000375   201220 756100                    STQ     @T1+1,,AUTO
        13 000376   200315 630500                    EPPR0   SENDER,,AUTO
        13 000377   201217 450500                    STP0    @COUNT+1,,AUTO
        13 000400   200007 631500                    EPPR1   COUNT,,AUTO
        13 000401   201216 451500                    STP1    @BUFFER+1,,AUTO
        13 000402   200766 633500                    EPPR3   VM_BODYREC_ENCODED+4,,AUTO
        13 000403   201215 453500                    STP3    OLD_BODYREC_ENCODED+78,,AUTO
        13 000404   000564 701000 13                 TSX1    PACK
        13 000405   000000 011000                    NOP     0

PL6.E3A0      #004=VMM$COMBINE_MESSAGE File=VMM$MESSAGE.:VMB6TSI                 WED 08/20/97 15:18 Page:188
     1058     8966
     1059     8967    2       END;

     1060     8968
     1061     8969    1       IF SAVED_HEADER.STATUS.ANSWER

   8969 13 000406   200727 236100                    LDQ     SAVED_HEADER+10,,AUTO
        13 000407   200000 316003                    CANQ    65536,DU
        13 000410   000425 600000 13                 TZE     s:8977

     1062     8970    2       THEN DO;

     1063     8971
     1064     8972    2           VM_BODYREC_ENCODED.VALUE.DATA.ERR = E_ANSWERED;

   8972 13 000411   000002 236000 11                 LDQ     E_ANSWERED
        13 000412   200764 756100                    STQ     VM_BODYREC_ENCODED+2,,AUTO

     1065     8973    2           CALL PACK (VM_BODYREC_ENCODED.VALUE.DATA.STUFF, COUNT, SENDER, ANSWER_ID);

   8973 13 000413   200115 630500                    EPPR0   ANSWER_ID,,AUTO
        13 000414   201220 450500                    STP0    @T1+1,,AUTO
        13 000415   200315 631500                    EPPR1   SENDER,,AUTO
        13 000416   201217 451500                    STP1    @COUNT+1,,AUTO
        13 000417   200007 633500                    EPPR3   COUNT,,AUTO
        13 000420   201216 453500                    STP3    @BUFFER+1,,AUTO
        13 000421   200766 634500                    EPPR4   VM_BODYREC_ENCODED+4,,AUTO
        13 000422   201215 454500                    STP4    OLD_BODYREC_ENCODED+78,,AUTO
        13 000423   000564 701000 13                 TSX1    PACK
        13 000424   000000 011000                    NOP     0

     1066     8974
     1067     8975    2       END;

     1068     8976
     1069     8977    1       IF SAVED_HEADER.STATUS.ERR

PL6.E3A0      #004=VMM$COMBINE_MESSAGE File=VMM$MESSAGE.:VMB6TSI                 WED 08/20/97 15:18 Page:189
   8977 13 000425   200727 234100                    SZN     SAVED_HEADER+10,,AUTO
        13 000426   000443 605000 13                 TPL     s:8985

     1070     8978    2       THEN DO;

     1071     8979
     1072     8980    2           VM_BODYREC_ENCODED.VALUE.DATA.ERR = SAVED_HEADER.ERROR;

   8980 13 000427   200731 236100                    LDQ     SAVED_HEADER+12,,AUTO
        13 000430   200764 756100                    STQ     VM_BODYREC_ENCODED+2,,AUTO

     1073     8981    2           CALL PACK (VM_BODYREC_ENCODED.VALUE.DATA.STUFF, COUNT, BAD_ADDRESS);

   8981 13 000431   000000 236000 14                 LDQ     0
        13 000432   201220 756100                    STQ     @T1+1,,AUTO
        13 000433   200515 630500                    EPPR0   BAD_ADDRESS,,AUTO
        13 000434   201217 450500                    STP0    @COUNT+1,,AUTO
        13 000435   200007 631500                    EPPR1   COUNT,,AUTO
        13 000436   201216 451500                    STP1    @BUFFER+1,,AUTO
        13 000437   200766 633500                    EPPR3   VM_BODYREC_ENCODED+4,,AUTO
        13 000440   201215 453500                    STP3    OLD_BODYREC_ENCODED+78,,AUTO
        13 000441   000564 701000 13                 TSX1    PACK
        13 000442   000000 011000                    NOP     0

     1074     8982
     1075     8983    2       END;

     1076     8984
     1077     8985    1       COUNT = COUNT + LENGTHC(VM_BODYREC_ENCODED) - LENGTHC(VM_BODYREC_ENCODED.VALUE.
              8985                DATA.STUFF);

   8985 13 000443   200007 235100                    LDA     COUNT,,AUTO
        13 000444   000020 035007                    ADLA    16,DL
        13 000445   200007 755100                    STA     COUNT,,AUTO

     1078     8986    1       VM_BODYREC_ENCODED.VALUE.COUNT = COUNT;

PL6.E3A0      #004=VMM$COMBINE_MESSAGE File=VMM$MESSAGE.:VMB6TSI                 WED 08/20/97 15:18 Page:190
   8986 13 000446   200763 755100                    STA     VM_BODYREC_ENCODED+1,,AUTO

     1079     8987
     1080     8988    2       DO I = 0 TO VM_HEADER.NUM_TRACE_RECORDS - 1;

   8988 13 000447   200013 450100                    STZ     I,,AUTO
        13 000450   000507 710000 13                 TRA     s:9005+3

     1081     8989
     1082     8990    2           OLD_BODYREC_ENCODED = '0'B;

   8990 13 000451   000100 100400                    MLR     fill='000'O
        13 000452   000002 000001 14                 ADSC9   2                        cn=0,n=1
        13 000453   201077 000464                    ADSC9   OLD_BODYREC_ENCODED,,AUTO cn=0,n=308

     1083     8991
     1084     8992    2           CALL VMD$GET_TRACE (MESSAGE_NUMBER, DCB_OUT, I, J, , OLD_BODYREC_ENCODED)

   8992 13 000454   201077 630500                    EPPR0   OLD_BODYREC_ENCODED,,AUTO
        13 000455   201227 450500                    STP0    TSIZ+6,,AUTO
        13 000456   000000 236000 14                 LDQ     0
        13 000457   201226 756100                    STQ     TSIZ+5,,AUTO
        13 000460   200014 631500                    EPPR1   J,,AUTO
        13 000461   201225 451500                    STP1    TSIZ+4,,AUTO
        13 000462   200013 633500                    EPPR3   I,,AUTO
        13 000463   201224 453500                    STP3    TSIZ+3,,AUTO
        13 000464   200005 236100                    LDQ     @DCB_OUT,,AUTO
        13 000465   201223 756100                    STQ     TSIZ+2,,AUTO
        13 000466   200011 634500                    EPPR4   MESSAGE_NUMBER,,AUTO
        13 000467   201222 454500                    STP4    TSIZ+1,,AUTO
        13 000470   201222 630500                    EPPR0   TSIZ+1,,AUTO
        13 000471   000004 631400 14                 EPPR1   4
        13 000472   000000 701000 xent               TSX1    VMD$GET_TRACE
        13 000473   000504 702000 13                 TSX2    s:9005

     1085     8993    3           WHENRETURN DO;

PL6.E3A0      #004=VMM$COMBINE_MESSAGE File=VMM$MESSAGE.:VMB6TSI                 WED 08/20/97 15:18 Page:191
     1086     8994
     1087     8995    3               IF VM_BODYREC_ENCODED = OLD_BODYREC_ENCODED

   8995 13 000474   000100 106500                    CMPC    fill='000'O
        13 000475   200762 000464                    ADSC9   VM_BODYREC_ENCODED,,AUTO cn=0,n=308
        13 000476   201077 000464                    ADSC9   OLD_BODYREC_ENCODED,,AUTO cn=0,n=308
        13 000477   000504 601000 13                 TNZ     s:9005

     1088     8996    3               THEN
     1089     8997    3                   IF SAVED_HEADER.STATUS.ANSWER

   8997 13 000500   200727 236100                    LDQ     SAVED_HEADER+10,,AUTO
        13 000501   200000 316003                    CANQ    65536,DU
        13 000502   000556 601000 13                 TNZ     BAILOUT

     1090     8998    3                   THEN /* don't discard reply messsage for ANS */
     1091     8999    3                       GOTO BAILOUT;
     1092     9000    3                   ELSE
     1093     9001    3                       GOTO DONE;

   9001 13 000503   000550 710000 13                 TRA     DONE

     1094     9002
     1095     9003    3           END;
     1096     9004
     1097     9005    2       END;

   9005 13 000504   200013 235100                    LDA     I,,AUTO
        13 000505   000001 035007                    ADLA    1,DL
        13 000506   200013 755100                    STA     I,,AUTO
        13 000507   000000 470400 xsym               LDP0    VM_HEADER$
        13 000510   200013 236100                    LDQ     I,,AUTO
        13 000511   000034 116100                    CMPQ    28,,PR0
        13 000512   000451 602000 13                 TNC     s:8990

     1098     9006
     1099     9007    1       CALL VMD$PUT_TRACE (MESSAGE_NUMBER, DCB_OUT,
PL6.E3A0      #004=VMM$COMBINE_MESSAGE File=VMM$MESSAGE.:VMB6TSI                 WED 08/20/97 15:18 Page:192

   9007 13 000513   200762 631500                    EPPR1   VM_BODYREC_ENCODED,,AUTO
        13 000514   201227 451500                    STP1    TSIZ+6,,AUTO
        13 000515   000000 236000 14                 LDQ     0
        13 000516   201226 756100                    STQ     TSIZ+5,,AUTO
        13 000517   200007 633500                    EPPR3   COUNT,,AUTO
        13 000520   201225 453500                    STP3    TSIZ+4,,AUTO
        13 000521   000000 236000 xsym               LDQ     VM_HEADER$
        13 000522   000034 036003                    ADLQ    28,DU
        13 000523   201224 756100                    STQ     TSIZ+3,,AUTO
        13 000524   200005 236100                    LDQ     @DCB_OUT,,AUTO
        13 000525   201223 756100                    STQ     TSIZ+2,,AUTO
        13 000526   200011 634500                    EPPR4   MESSAGE_NUMBER,,AUTO
        13 000527   201222 454500                    STP4    TSIZ+1,,AUTO
        13 000530   201222 630500                    EPPR0   TSIZ+1,,AUTO
        13 000531   000004 631400 14                 EPPR1   4
        13 000532   000000 701000 xent               TSX1    VMD$PUT_TRACE
        13 000533   000556 702000 13                 TSX2    BAILOUT

     1100     9008    1         VM_HEADER.NUM_TRACE_RECORDS, COUNT, , VM_BODYREC_ENCODED) ALTRET (BAILOUT);
     1101     9009
     1102     9010    1       VM_HEADER.NUM_TRACE_RECORDS = VM_HEADER.NUM_TRACE_RECORDS + 1;

   9010 13 000534   000000 470400 xsym               LDP0    VM_HEADER$
        13 000535   000034 235100                    LDA     28,,PR0
        13 000536   000001 035007                    ADLA    1,DL
        13 000537   000034 755100                    STA     28,,PR0

     1103     9011
     1104     9012    1       CALL VMD$PUT_HEADER (MESSAGE_NUMBER, DCB_OUT) ALTRET (BAILOUT);

   9012 13 000540   200005 236100                    LDQ     @DCB_OUT,,AUTO
        13 000541   201223 756100                    STQ     TSIZ+2,,AUTO
        13 000542   200011 631500                    EPPR1   MESSAGE_NUMBER,,AUTO
        13 000543   201222 451500                    STP1    TSIZ+1,,AUTO
        13 000544   201222 630500                    EPPR0   TSIZ+1,,AUTO
        13 000545   000003 631400 14                 EPPR1   3
PL6.E3A0      #004=VMM$COMBINE_MESSAGE File=VMM$MESSAGE.:VMB6TSI                 WED 08/20/97 15:18 Page:193
        13 000546   000000 701000 xent               TSX1    VMD$PUT_HEADER
        13 000547   000556 702000 13                 TSX2    BAILOUT

   9010 13 000550                       DONE         null
     1105     9013    1   DONE: ;
     1106     9014    2       CALL M$DEQ (DEQ_HEADER) WHENALTRETURN DO; END;

   9014 13 000550   000012 630400 12                 EPPR0   DEQ_HEADER
        13 000551   420003 713400                    CLIMB   alt,+8195
        13 000552   401000 401760                    pmme    nvectors=3
        13 000553   000555 702000 13                 TSX2    s:9016
        13 000554   000555 710000 13                 TRA     s:9016

     1107     9015
     1108     9016    1       RETURN;

   9016 13 000555   000000 702200 xent               TSX2  ! X66_ARET

     1109     9017
     1110     9018    1   BAILOUT:
     1111     9019    2       CALL M$DEQ (DEQ_HEADER) WHENALTRETURN DO; END;

   9019 13 000556   000012 630400 12    BAILOUT      EPPR0   DEQ_HEADER
        13 000557   420003 713400                    CLIMB   alt,+8195
        13 000560   401000 401760                    pmme    nvectors=3
        13 000561   000563 702000 13                 TSX2    s:9021
        13 000562   000563 710000 13                 TRA     s:9021

     1112     9020
     1113     9021    1       ALTRETURN;

   9021 13 000563   000000 702200 xent               TSX2  ! X66_AALT

     1114     9022
     1115     9023        %EJECT;
PL6.E3A0      #004=VMM$COMBINE_MESSAGE File=VMM$MESSAGE.:VMB6TSI                 WED 08/20/97 15:18 Page:194
     1116     9024    1   PACK: PROC (BUFFER, COUNT, T1, T2);

   9024 13 000564   201214 741300       PACK         STX1  ! OLD_BODYREC_ENCODED+77,,AUTO

     1117     9025
     1118     9026    2   DCL BUFFER (0:504) UBIN BYTE CALIGNED;
     1119     9027    2   DCL COUNT UBIN;
     1120     9028    2   DCL 1 T1,
     1121     9029    2         2 COUNT UBIN BYTE CALIGNED,
     1122     9030    2         2 TEXT CHAR (T1.COUNT);
     1123     9031    2   DCL 1 T2,
     1124     9032    2         2 COUNT UBIN BYTE CALIGNED,
     1125     9033    2         2 TEXT CHAR (T1.COUNT);
     1126     9034    2   DCL TSTRING CHAR (TSIZ) BASED;
     1127     9035    2   DCL TSIZ UBIN;
     1128     9036
     1129     9037    2       IF ADDR(T1) = ADDR(NIL) OR T1.COUNT = 0

   9037 13 000565   201217 236100                    LDQ     @T1,,AUTO
        13 000566   000000 116000 14                 CMPQ    0
        13 000567   000577 600000 13                 TZE     s:9039
        13 000570   201217 470500                    LDP0    @T1,,AUTO
        13 000571   000100 101500                    MRL     fill='000'O
        13 000572   000000 000001                    ADSC9   0,,PR0                   cn=0,n=1
        13 000573   201222 000004                    ADSC9   TSIZ+1,,AUTO             cn=0,n=4
        13 000574   201222 236100                    LDQ     TSIZ+1,,AUTO
        13 000575   000000 116003                    CMPQ    0,DU
        13 000576   000607 601000 13                 TNZ     s:9043

     1130     9038    3       THEN DO;

     1131     9039    3           BUFFER(0) = 0;

   9039 13 000577   201215 470500                    LDP0    @BUFFER,,AUTO
        13 000600   000100 101400                    MRL     fill='000'O
        13 000601   000002 000004 14                 ADSC9   2                        cn=0,n=4
        13 000602   000000 000001                    ADSC9   0,,PR0                   cn=0,n=1
PL6.E3A0      #004=VMM$COMBINE_MESSAGE File=VMM$MESSAGE.:VMB6TSI                 WED 08/20/97 15:18 Page:195

     1132     9040    3           COUNT = 1;

   9040 13 000603   000001 235007                    LDA     1,DL
        13 000604   201216 471500                    LDP1    @COUNT,,AUTO
        13 000605   100000 755100                    STA     0,,PR1

     1133     9041    3       END;

   9041 13 000606   000626 710000 13                 TRA     s:9048

     1134     9042    3       ELSE DO;

     1135     9043    3           TSIZ = T1.COUNT + 1;

   9043 13 000607   000100 101500                    MRL     fill='000'O
        13 000610   000000 000001                    ADSC9   0,,PR0                   cn=0,n=1
        13 000611   201222 000004                    ADSC9   TSIZ+1,,AUTO             cn=0,n=4
        13 000612   201222 236100                    LDQ     TSIZ+1,,AUTO
        13 000613   000001 036007                    ADLQ    1,DL
        13 000614   201221 756100                    STQ     TSIZ,,AUTO

     1136     9044    3           ADDR(BUFFER(0)) -> TSTRING = ADDR(T1) -> TSTRING;

   9044 13 000615   000000 620006                    EAX0    0,QL
        13 000616   201215 471500                    LDP1    @BUFFER,,AUTO
        13 000617   201221 722100                    LXL2    TSIZ,,AUTO
        13 000620   040140 100540                    MLR     fill='040'O
        13 000621   000000 000010                    ADSC9   0,,PR0                   cn=0,n=*X0
        13 000622   100000 000012                    ADSC9   0,,PR1                   cn=0,n=*X2

     1137     9045    3           COUNT = TSIZ;

   9045 13 000623   201216 473500                    LDP3    @COUNT,,AUTO
        13 000624   201221 235100                    LDA     TSIZ,,AUTO
        13 000625   300000 755100                    STA     0,,PR3

PL6.E3A0      #004=VMM$COMBINE_MESSAGE File=VMM$MESSAGE.:VMB6TSI                 WED 08/20/97 15:18 Page:196
     1138     9046    3       END;

     1139     9047
     1140     9048    2       IF ADDR(T2) = ADDR(NIL) OR T2.COUNT = 0

   9048 13 000626   201220 236100                    LDQ     @T2,,AUTO
        13 000627   000000 116000 14                 CMPQ    0
        13 000630   000640 600000 13                 TZE     s:9050
        13 000631   201220 470500                    LDP0    @T2,,AUTO
        13 000632   000100 101500                    MRL     fill='000'O
        13 000633   000000 000001                    ADSC9   0,,PR0                   cn=0,n=1
        13 000634   201222 000004                    ADSC9   TSIZ+1,,AUTO             cn=0,n=4
        13 000635   201222 236100                    LDQ     TSIZ+1,,AUTO
        13 000636   000000 116003                    CMPQ    0,DU
        13 000637   000652 601000 13                 TNZ     s:9054

     1141     9049    3       THEN DO;

     1142     9050    3           BUFFER(COUNT) = 0;

   9050 13 000640   201216 470500                    LDP0    @COUNT,,AUTO
        13 000641   000000 235100                    LDA     0,,PR0
        13 000642   201215 471500                    LDP1    @BUFFER,,AUTO
        13 000643   000105 101400                    MRL     fill='000'O
        13 000644   000002 000004 14                 ADSC9   2                        cn=0,n=4
        13 000645   100000 000001                    ADSC9   0,A,PR1                  cn=0,n=1

     1143     9051    3           COUNT = COUNT + 1;

   9051 13 000646   000000 235100                    LDA     0,,PR0
        13 000647   000001 035007                    ADLA    1,DL
        13 000650   000000 755100                    STA     0,,PR0

     1144     9052    3       END;

   9052 13 000651   000673 710000 13                 TRA     s:9059

PL6.E3A0      #004=VMM$COMBINE_MESSAGE File=VMM$MESSAGE.:VMB6TSI                 WED 08/20/97 15:18 Page:197
     1145     9053    3       ELSE DO;

     1146     9054    3           TSIZ = T2.COUNT + 1;

   9054 13 000652   000100 101500                    MRL     fill='000'O
        13 000653   000000 000001                    ADSC9   0,,PR0                   cn=0,n=1
        13 000654   201222 000004                    ADSC9   TSIZ+1,,AUTO             cn=0,n=4
        13 000655   201222 236100                    LDQ     TSIZ+1,,AUTO
        13 000656   000001 036007                    ADLQ    1,DL
        13 000657   201221 756100                    STQ     TSIZ,,AUTO

     1147     9055    3           ADDR(BUFFER(COUNT)) -> TSTRING = ADDR(T2) -> TSTRING;

   9055 13 000660   201216 471500                    LDP1    @COUNT,,AUTO
        13 000661   100000 235100                    LDA     0,,PR1
        13 000662   000000 620006                    EAX0    0,QL
        13 000663   201215 473500                    LDP3    @BUFFER,,AUTO
        13 000664   201221 721100                    LXL1    TSIZ,,AUTO
        13 000665   040145 100540                    MLR     fill='040'O
        13 000666   000000 000010                    ADSC9   0,,PR0                   cn=0,n=*X0
        13 000667   300000 000011                    ADSC9   0,A,PR3                  cn=0,n=*X1

     1148     9056    3           COUNT = COUNT + TSIZ;

   9056 13 000670   100000 236100                    LDQ     0,,PR1
        13 000671   201221 036100                    ADLQ    TSIZ,,AUTO
        13 000672   100000 756100                    STQ     0,,PR1

     1149     9057    3       END;

     1150     9058
     1151     9059    2       BUFFER(COUNT) = 0;

   9059 13 000673   201216 470500                    LDP0    @COUNT,,AUTO
        13 000674   000000 235100                    LDA     0,,PR0
        13 000675   201215 471500                    LDP1    @BUFFER,,AUTO
        13 000676   000105 101400                    MRL     fill='000'O
PL6.E3A0      #004=VMM$COMBINE_MESSAGE File=VMM$MESSAGE.:VMB6TSI                 WED 08/20/97 15:18 Page:198
        13 000677   000002 000004 14                 ADSC9   2                        cn=0,n=4
        13 000700   100000 000001                    ADSC9   0,A,PR1                  cn=0,n=1

     1152     9060    2       COUNT = COUNT + 1;

   9060 13 000701   000000 235100                    LDA     0,,PR0
        13 000702   000001 035007                    ADLA    1,DL
        13 000703   000000 755100                    STA     0,,PR0

     1153     9061
     1154     9062    2       RETURN;

   9062 13 000704   201214 221300                    LDX1  ! OLD_BODYREC_ENCODED+77,,AUTO
        13 000705   000001 702211                    TSX2  ! 1,X1

E_ACKED
 Sect OctLoc
  11     000   261715 013070                                                    ...8

E_RRACKED
 Sect OctLoc
  11     001   261715 013110                                                    ...H

E_ANSWERED
 Sect OctLoc
  11     002   261715 013100                                                    ...@

INIT_BODYREC_ENCODED
 Sect OctLoc
  11     003   003000 000000   ****** ******   ****** ******   ****** ******    ................
  11     117*  ****** ******                                                    ....

ENQ_HEADER
 Sect OctLoc
  12     000   000003 777640   000006 006000   000001 177640   000022 006000    ................
  12     004   000000 177640   000000 006014   000000 540000   777777 777777    ................
  12     010   000000 000000   000000 000000                                    ........
PL6.E3A0      #004=VMM$COMBINE_MESSAGE File=VMM$MESSAGE.:VMB6TSI                 WED 08/20/97 15:18 Page:199

DEQ_HEADER
 Sect OctLoc
  12     012   000001 777640   000020 006000   000001 177640   000022 006000    ................
  12     016   000000 177640   000000 006014   000000 400000   000000 000000    ................

VM_HEADRES
 Sect OctLoc
  12     022   004000 000000   000*** ******                                    ........

(unnamed)
 Sect OctLoc
  14     000   000000 006014   000003 000000   000000 000000   000002 000000    ................
  14     004   000006 000000   000002 006000                                    ........
     1155     9063
     1156     9064    2   END PACK;
     1157     9065
     1158     9066    1   END VMM$COMBINE_MESSAGE;

PL6.E3A0      #004=VMM$COMBINE_MESSAGE File=VMM$MESSAGE.:VMB6TSI                 WED 08/20/97 15:18 Page:200
--  Include file information  --

   VM_PERR_C.:VMB6TOU  is referenced.
   VM_MACRO_C.:VMB6TOU  is referenced.
   B_MACROS_C.:LIB_E05  is referenced.
   VM_DATA_R.:VMB6TOU  cannot be made into a system file and is referenced.
   CP_6_SUBS.:LIB_E05  is referenced.
   CP_6_C.:LIB_E05  is referenced.
   CP_6.:LIB_E05  cannot be made into a system file and is referenced.
      No diagnostics issued in procedure VMM$COMBINE_MESSAGE.
PL6.E3A0      #004=VMM$COMBINE_MESSAGE File=VMM$MESSAGE.:VMB6TSI                 WED 08/20/97 15:18 Page:201

 **** Variables and constants ****

  ****  Section 011 RoData VMM$COMBINE_MESSAGE

  ****  Scalars and arrays  ****
OctLoc.c.b A Datatyp(siz) R M Lvl/name                 OctLoc.c.b A Datatyp(siz) R M Lvl/name

     0-0-0/w STRC        r     1 E_ACKED                    2-0-0/w STRC        r     1 E_ANSWERED
     1-0-0/w STRC        r     1 E_RRACKED                  3-0-0/w STRC(2772)  r     1 INIT_BODYREC_ENCODED

  ****  Section 012  Data  VMM$COMBINE_MESSAGE

  ****  Scalars and arrays  ****
OctLoc.c.b A Datatyp(siz) R M Lvl/name                 OctLoc.c.b A Datatyp(siz) R M Lvl/name

    12-0-0/d STRC(288)   r     1 DEQ_HEADER                 0-0-0/d STRC(360)   r     1 ENQ_HEADER
    22-0-0/c STRC(45)    r     1 VM_HEADRES

  ****  Auto variables  ****

  ****  Scalars and arrays  ****
OctLoc.c.b A Datatyp(siz) R M Lvl/name                 OctLoc.c.b A Datatyp(siz) R M Lvl/name

  1215-0-0/w PTR         r     1 @BUFFER                 1216-0-0/w PTR         r     1 @COUNT
     3-0-0/w PTR         r     1 @DCB_IN                    5-0-0/w PTR         r     1 @DCB_OUT
     4-0-0/w PTR         r     1 @MSG_NUMBER_IN          1217-0-0/w PTR         r     1 @T1
  1220-0-0/w PTR         r     1 @T2                      115-0-0/c STRC(4608)  r     1 ANSWER_ID
   515-0-0/c STRC(4608)  r     1 BAD_ADDRESS               *0-0-0/c UBIN(9)     r     1 BUFFER(0:504)
     7-0-0/w UBIN        r     1 COUNT                     *0-0-0/w UBIN        r     1 COUNT
    10-0-0/w UBIN        r     1 COUNT1                    *0-0-0/w UBIN        r     1 DCB_IN
    *0-0-0/w UBIN        r     1 DCB_OUT                   13-0-0/w UBIN        r     1 I
    15-0-0/c CHAR(255)   r     1 ID                        14-0-0/w UBIN        r     1 J
    11-0-0/w UBIN        r     1 MESSAGE_NUMBER            *0-0-0/w UBIN        r     1 MSG_NUMBER_IN
     6-0-0/w UBIN              1 MSG_NUMBER_OUT            12-0-0/w UBIN        r     1 NUM_RECORDS
  1077-0-0/w STRC(2772)  r     1 OLD_BODYREC_ENCODED      715-0-0/w STRC(1332)  r     1 SAVED_HEADER
   315-0-0/c STRC(4608)  r     1 SENDER                    *0-0-0/c ASTR(9)     r     1 T1
    *0-0-0/c ASTR(9)     r     1 T2                      1221-0-0/w UBIN        r     1 TSIZ
PL6.E3A0      #004=VMM$COMBINE_MESSAGE File=VMM$MESSAGE.:VMB6TSI                 WED 08/20/97 15:18 Page:202
   762-0-0/w STRC(2772)  r     1 VM_BODYREC_ENCODED

  ****  SYMREF variables  ****

  ****  Scalars and arrays  ****
OctLoc.c.b A Datatyp(siz) R M Lvl/name                 OctLoc.c.b A Datatyp(siz) R M Lvl/name

     0-0-0/w PTR               1 B$JIT$                     0-0-0/w PTR               1 B$TCB$
     0-0-0/c ASTR(9)     r     1 ERRMSG_FID                 0-0-0/w UBIN              1 M$DO_NUM
     0-0-0/w UBIN              1 M$LO_NUM                   0-0-0/w UBIN              1 M$MAIL_CENTRAL_NUM
     0-0-0/w UBIN              1 M$MAIL_COMGROUP_NUM        0-0-0/w UBIN              1 M$MAIL_FILE_NUM
     0-0-0/w UBIN              1 M$MAIL_GLOBAL_NUM          0-0-0/w UBIN              1 M$ME_NUM
     0-0-0/w UBIN              1 M$NODE_NUM                 0-0-0/w UBIN              1 M$SI_NUM
     0-0-0/w UBIN              1 M$WORK_NUM                 0-0-0/w PTR               1 VM_ADDLIST$
     0-0-0/d VECT              1 VM_ADDLIST_                0-0-0/w PTR               1 VM_ADDREC$
     0-0-0/d VECT              1 VM_ADDREC_                 0-0-0/w PTR               1 VM_COPY$
     0-0-0/d VECT              1 VM_COPY_                   0-0-0/w PTR               1 VM_ENCLLIST$
     0-0-0/d VECT              1 VM_ENCLLIST_               0-0-0/w PTR               1 VM_ENCLREC$
     0-0-0/d VECT              1 VM_ENCLREC_                0-0-0/c STRC(270)         1 VM_FORWARD_ENCL_NAME
     0-0-0/c STRC(270)         1 VM_FORWARD_FILE_NAME       0-0-0/c STRC(72)          1 VM_FORWARD_FILE_PASS
     0-0-0/w PTR         r     1 VM_HEADER$                 0-0-0/d VECT              1 VM_HEADER_
     0-0-0/d VECT              1 VM_HEADER_INIT_            0-0-0/w PTR               1 VM_INPUT$
     0-0-0/d VECT              1 VM_INPUT_                  0-0-0/c STRC(72)          1 VM_MAILCG_NAME
     0-0-0/w STRC(432)         1 VM_MAILCG_SETSTA           0-0-0/c STRC(72)          1 VM_MAIL_ACCT
     0-0-0/c STRC(54)          1 VM_NAME_MAP_NAME           0-0-0/w PTR               1 VM_PARSEAREA$
     0-0-0/d VECT              1 VM_PARSEAREA_              0-0-0/w PTR         r     1 VM_PROFILE$
     0-0-0/d VECT              1 VM_PROFILE_                0-0-0/w PTR               1 VM_SELECT$
     0-0-0/d VECT              1 VM_SELECT_                 0-0-0/c STRC(288)         1 VM_SEND_FILE_NAME
     0-0-0/c CHAR(8)           1 VM_SITENAME                0-0-0/w PTR               1 VM_WORK$
     0-0-0/d VECT              1 VM_WORK_

  ****  BASED and DCB variables  ****

  ****  Scalars and arrays  ****
OctLoc.c.b A Datatyp(siz) R M Lvl/name                 OctLoc.c.b A Datatyp(siz) R M Lvl/name

     0-0-0N  NULL        r     1 M$DO                       0-0-0N  NULL        r     1 M$LO
PL6.E3A0      #004=VMM$COMBINE_MESSAGE File=VMM$MESSAGE.:VMB6TSI                 WED 08/20/97 15:18 Page:203
     0-0-0N  NULL        r     1 M$MAIL_CENTRAL             0-0-0N  NULL        r     1 M$MAIL_COMGROUP
     0-0-0N  NULL        r     1 M$MAIL_FILE                0-0-0N  NULL        r     1 M$MAIL_GLOBAL
     0-0-0N  NULL        r     1 M$ME                       0-0-0N  NULL        r     1 M$NODE
     0-0-0N  NULL        r     1 M$SI                       0-0-0N  NULL        r     1 M$UC
     0-0-0N  NULL        r     1 M$WORK                     0-0-0/c ACHR        r     1 TSTRING
     0-0-0/w STRC(2772)        1 VM$BODYREC_ENCODED         0-0-0/w STRC(1332)  r     1 VM_HEADER
     0-0-0/w STRC(4068)        1 VM_PROFILE                 0-0-0/c ASTR(9)     r     1 X$STRING


   Procedure VMM$COMBINE_MESSAGE requires 454 words for executable code.
   Procedure VMM$COMBINE_MESSAGE requires 664 words of local(AUTO) storage.

    No errors detected in file VMM$MESSAGE.:VMB6TSI    .
PL6.E3A0      #004=VMM$COMBINE_MESSAGE File=VMM$MESSAGE.:VMB6TSI                 WED 08/20/97 15:18 Page:204
          *** CROSS REFERENCE LISTING ***
**     DENOTES     IDENTIFIER DEFINITION
<<                 IDENTIFIER'S VALUE SET
>>                 IDENTIFIER'S VALUE USED
<>                 IDENTIFIER SET AND/OR USED
--                 IDENTIFIER REFERENCED
PL6.E3A0      #004=VMM$COMBINE_MESSAGE File=VMM$MESSAGE.:VMB6TSI                 WED 08/20/97 15:18 Page:205
          MINI XREF LISTING

ADD_IF_UNIQUE
      8915**LABEL    8926--EXIT
ANSWER_ID
      8133**DCL      8868<<ASSIGN   8870<<ASSIGN   8973<>CALL
BAD_ADDRESS
      8139**DCL      8884<<ASSIGN   8981<>CALL
BAD_ADDRESS.COUNT
      8140**DCL      8882<<ASSIGN
BAILOUT
      9019**LABEL    8895--CALLALT  8900--GOTO     8942--CALLALT  8999--GOTO     9007--CALLALT  9012--CALLALT
BUFFER IN PROCEDURE PACK
      9026**DCL      9024--PROC     9039<<ASSIGN   9044--ASSIGN   9050<<ASSIGN   9055--ASSIGN   9059<<ASSIGN
COUNT
      8126**DCL      8912<>CALL     8931<>CALL     8957<>CALL     8965<>CALL     8973<>CALL     8981<>CALL
      8985<<ASSIGN   8985>>ASSIGN   8986>>ASSIGN   9007<>CALL
COUNT IN PROCEDURE PACK
      9027**DCL      9024--PROC     9040<<ASSIGN   9045<<ASSIGN   9050>>ASSIGN   9051<<ASSIGN   9051>>ASSIGN
      9055>>ASSIGN   9056<<ASSIGN   9056>>ASSIGN   9059>>ASSIGN   9060<<ASSIGN   9060>>ASSIGN
COUNT1
      8127**DCL      8921<>CALL
DCB_IN
        27**DCL         7--PROC     8912<>CALL
DCB_OUT
        29**DCL         7--PROC     8858<>CALL     8887>>ASSIGN   8888>>ASSIGN   8895<>CALL     8921<>CALL
      8931<>CALL     8942<>CALL     8992<>CALL     9007<>CALL     9012<>CALL
DEQ_HEADER
      8318**DCL      8944<>CALL     9014<>CALL     9019<>CALL
DEQ_HEADER.V
      8319**DCL      8318--DCLINIT
DEQ_HEADER.V.DCB#
      8319**DCL      8888<<ASSIGN
DONE
PL6.E3A0      #004=VMM$COMBINE_MESSAGE File=VMM$MESSAGE.:VMB6TSI                 WED 08/20/97 15:18 Page:206
      9010**LABEL    9001--GOTO
DONE_DELIVERY
      8942**LABEL    8912--CALLALT
ENQ_HEADER
      8298**DCL      8890<>CALL
ENQ_HEADER.V
      8299**DCL      8298--DCLINIT
ENQ_HEADER.V.DCB#
      8299**DCL      8887<<ASSIGN
ERRMSG_FID.L#
      6407**DCL      6407--IMP-SIZ
E_ACKED
      8156**DCL      8964>>ASSIGN
E_ANSWERED
      8250**DCL      8972>>ASSIGN
E_RRACKED
      8203**DCL      8956>>ASSIGN
I
      8130**DCL      8908<<DOINDEX  8912<>CALL     8988<<DOINDEX  8992<>CALL
ID
      8132**DCL      8872<<ASSIGN   8897>>IF
INIT_BODYREC_ENCODED
      8820**DCL      8949>>ASSIGN
J
      8131**DCL      8917<<DOINDEX  8921<>CALL     8992<>CALL
M$DEQ
      5586**DCL-ENT  8944--CALL     9014--CALL     9019--CALL
M$ENQ
      5585**DCL-ENT  8890--CALL
M$ERR
      5531**DCL-ENT  8892--CALL
MESSAGE_NUMBER
      8128**DCL      8858<>CALL     8886>>ASSIGN   8895<>CALL     8921<>CALL     8931<>CALL     8942<>CALL
      8992<>CALL     9007<>CALL     9012<>CALL
MSG_NUMBER_IN
        28**DCL         7--PROC
PL6.E3A0      #004=VMM$COMBINE_MESSAGE File=VMM$MESSAGE.:VMB6TSI                 WED 08/20/97 15:18 Page:207
NUM_RECORDS
      8129**DCL      8906<<ASSIGN   8917>>DOINDEX
OLD_BODYREC_ENCODED
      8754**DCL      8919<<ASSIGN   8921<>CALL     8924>>IF       8990<<ASSIGN   8992<>CALL     8995>>IF
PACK
      9024**PROC     8957--CALL     8965--CALL     8973--CALL     8981--CALL
SAVED_HEADER
      8593**DCL      8864<<ASSIGN
SAVED_HEADER.CREATION_DATE
      8596**DCL      8951>>ASSIGN
SAVED_HEADER.ERROR
      8666**DCL      8902>>IF       8980>>ASSIGN
SAVED_HEADER.NUM_RECORDS
      8604**DCL      8908>>DOINDEX
SAVED_HEADER.STATUS.ACK
      8612**DCL      8961>>IF
SAVED_HEADER.STATUS.ANSWER
      8610**DCL      8969>>IF       8997>>IF
SAVED_HEADER.STATUS.DELIVERY
      8642**DCL      8902>>IF
SAVED_HEADER.STATUS.ERR
      8607**DCL      8902>>IF       8977>>IF
SAVED_HEADER.STATUS.RRACK
      8654**DCL      8953>>IF
SENDER
      8136**DCL      8878<<ASSIGN   8957<>CALL     8965<>CALL     8973<>CALL
SENDER.COUNT
      8137**DCL      8876<<ASSIGN
T1 IN PROCEDURE PACK
      9028**DCL      9024--PROC     9037--IF       9044--ASSIGN
T1.COUNT IN PROCEDURE PACK
      9029**DCL      9030--IMP-SIZ  9033--IMP-SIZ  9037>>IF       9043>>ASSIGN
T2 IN PROCEDURE PACK
      9031**DCL      9024--PROC     9048--IF       9055--ASSIGN
T2.COUNT IN PROCEDURE PACK
      9032**DCL      9048>>IF       9054>>ASSIGN
PL6.E3A0      #004=VMM$COMBINE_MESSAGE File=VMM$MESSAGE.:VMB6TSI                 WED 08/20/97 15:18 Page:208
TSIZ IN PROCEDURE PACK
      9035**DCL      9034--IMP-SIZ  9043<<ASSIGN   9044>>ASSIGN   9044>>ASSIGN   9045>>ASSIGN   9054<<ASSIGN
      9055>>ASSIGN   9055>>ASSIGN   9056>>ASSIGN
TSTRING IN PROCEDURE PACK
      9034**DCL      9044<<ASSIGN   9044>>ASSIGN   9055<<ASSIGN   9055>>ASSIGN
VMD$GET_BODY
      8845**DCL-ENT  8912--CALL
VMD$GET_HEADER
      8843**DCL-ENT  8895--CALL
VMD$GET_ID
      8848**DCL-ENT  8858--CALL
VMD$GET_TRACE
      8846**DCL-ENT  8921--CALL     8992--CALL
VMD$PUT_HEADER
      8844**DCL-ENT  8942--CALL     9012--CALL
VMD$PUT_TRACE
      8847**DCL-ENT  8931--CALL     9007--CALL
VM_BODYREC_ENCODED
      8722**DCL      8910<<ASSIGN   8912<>CALL     8924>>IF       8931<>CALL     8949<<ASSIGN   8985--ASSIGN
      8995>>IF       9007<>CALL
VM_BODYREC_ENCODED.VALUE.COUNT
      8728**DCL      8986<<ASSIGN
VM_BODYREC_ENCODED.VALUE.DATA.ERR
      8732**DCL      8956<<ASSIGN   8964<<ASSIGN   8972<<ASSIGN   8980<<ASSIGN
VM_BODYREC_ENCODED.VALUE.DATA.STUFF
      8734**DCL      8950<<ASSIGN   8957<>CALL     8965<>CALL     8973<>CALL     8981<>CALL     8985--ASSIGN
VM_BODYREC_ENCODED.VALUE.DATA.UTS
      8733**DCL      8951<<ASSIGN
VM_HEADER
      8464**DCL      8864>>ASSIGN
VM_HEADER.BAD_ADDRESS$
      8548**DCL      8880>>IF       8884>>ASSIGN   8884>>ASSIGN
VM_HEADER.FROM$
      8556**DCL      8874>>IF       8878>>ASSIGN   8878>>ASSIGN
VM_HEADER.NUM_TRACE_RECORDS
      8574**DCL      8906>>ASSIGN   8931<>CALL     8934<<ASSIGN   8934>>ASSIGN   8988>>DOINDEX  9007<>CALL
PL6.E3A0      #004=VMM$COMBINE_MESSAGE File=VMM$MESSAGE.:VMB6TSI                 WED 08/20/97 15:18 Page:209
      9010<<ASSIGN   9010>>ASSIGN
VM_HEADER.REFERS_TO_ID$
      8572**DCL      8851>>IF       8858>>CALL     8858>>CALL     8872>>ASSIGN   8872>>ASSIGN
VM_HEADER.STATUS.ACK
      8483**DCL      8851>>IF
VM_HEADER.STATUS.ANSWER
      8481**DCL      8851>>IF
VM_HEADER.STATUS.DELIVERY
      8513**DCL      8851>>IF
VM_HEADER.STATUS.ERR
      8478**DCL      8851>>IF
VM_HEADER.STATUS.RRACK
      8525**DCL      8851>>IF
VM_HEADER.UNIQUE_ID$
      8570**DCL      8866>>IF       8870>>ASSIGN   8870>>ASSIGN   8897>>IF       8897>>IF       8897>>IF
VM_HEADER$
      6257**DCL      8464--IMP-PTR  8851>>IF       8851>>IF       8851>>IF       8851>>IF       8851>>IF
      8851>>IF       8858>>CALL     8858>>CALL     8864>>ASSIGN   8866>>IF       8870>>ASSIGN   8870>>ASSIGN
      8872>>ASSIGN   8872>>ASSIGN   8874>>IF       8878>>ASSIGN   8878>>ASSIGN   8880>>IF       8884>>ASSIGN
      8884>>ASSIGN   8897>>IF       8897>>IF       8897>>IF       8906>>ASSIGN   8931>>CALL     8934>>ASSIGN
      8934>>ASSIGN   8988>>DOINDEX  9007>>CALL     9010>>ASSIGN   9010>>ASSIGN
VM_HEADRES
      8335**DCL      8298--DCLINIT  8318--DCLINIT
VM_HEADRES.RES#
      8337**DCL      8886<<ASSIGN
VM_PROFILE$
      6259**DCL      8377--IMP-PTR
X$STRING
      6252**DCL      8858<>CALL     8870>>ASSIGN   8878>>ASSIGN   8884>>ASSIGN
X$STRING.SIZ
      6253**DCL      6254--IMP-SIZ  8858>>CALL     8870>>ASSIGN   8872>>ASSIGN   8878>>ASSIGN   8884>>ASSIGN
      8897>>IF
X$STRING.TEXT
      6254**DCL      8872>>ASSIGN   8897>>IF
