PL6.E3A0      #001=VMO$MAIL File=VMO$MAIL.:VMB6TSI                               WED 08/20/97 15:19 Page:1
        1        1        /*M* VMO$MAIL Mail handling main program  */
        2        2        /*T***********************************************************/
        3        3        /*T*                                                         */
        4        4        /*T* Copyright (c) Bull HN Information Systems Inc., 1997    */
        5        5        /*T*                                                         */
        6        6        /*T***********************************************************/
        7        7        /*X* DMC,PLM=4,IND=4,CTI=2,DTI=0,ENI=0,ECI=0,CSI=0,DCI=4 */
        8        8        /*P* NAME: VMO$MAIL
        9        9             DESCRIPTION: This module performs the message viewing functions
       10       10                       for the mail system. It gives the user the ablity to
       11       11                        display and maintain the mail files in his accounts.
       12       12             WARNING:  To save time, VMA$OPEN_SRCH_LIST is called only when
       13       13                  address expansion may be pending.  As of 4/83, only USE
       14       14                  and LIST can cause expansion in MAIL.  If new features
       15       15                  are added that may cause expansion, call VMA$OPEN_SRCH_LIST
       16       16                  if VM_SEARCH_INFO.ACTIVE is reset.  You have been warned.  HEP
       17       17
       18       18                  ENQ/DEQ discussion:  On 5/8/83 the comgroup method of
       19       19                  concurrency control was replaced by ENQ/DEQ.  Three things
       20       20                  are enqueued, the PROFILE record, the HEADER record, and
       21       21                  the FILE name.  The discussions below concern MAIL and
       22       22                  MAILMAN.  Send does not need to use this facility.
       23       23
       24       24                  PROFILE - Everyone enqueues this SHARE=NONE.  MAILMAN
       25       25                  uses WAIT_TIME of 2 seconds.  This allows time for a
       26       26                  comgroup nowait read event to get in, and mailman can
       27       27                  give a file name to send.  MAIL waits till he gets the
       28       28                  resource.  MAILMAN only holds it for a very short time,
       29       29                  and another MAIL won't hold it unless he's got exclusive
       30       30                  use of the folder, in which case there is no problem as only
       31       31                  one mail will be using it exclusive at a time.  MAILMAN will
       32       32                  be help up by long operations such as COPY, MOVE and RENUMBER,
       33       33                  but only the delivery of mail will be delayed, not the entry
       34       34                  and exit of every user of MAIL as is currently the case.
       35       35                  The delay will only occur if mailman is attempting to deliver
       36       36                  a message to a user doing one of the above long operations.
       37       37
PL6.E3A0      #001=VMO$MAIL File=VMO$MAIL.:VMB6TSI                               WED 08/20/97 15:19 Page:2
       38       38                  HEADER - MAILMAN enqueues a header SHARE=NONE, MAIL enqueues
       39       39                  it SHARE=ALL.  This is used to keep MAIL from reading
       40       40                  a message while MAILMAN is entering it in the folder.  MAIL
       41       41                  does the enque WAIT_TIME=0, if it altrets a special message
       42       42                  is returned to the user, "Message being delivered".
       43       43                  This method was used instead of a busy bit in the message
       44       44                  header to avoid problems if the system crashes while the
       45       45                  message was being built.
       46       46
       47       47                  FILE - MAILMAN does not use this facility.  MAIL uses it to
       48       48                  avoid multiple updater problems with other MAIL users.  The
       49       49                  file open SHARE option can not be used, since MAIL and MAILMAN
       50       50                  must be able to update the file at the same time all users
       51       51                  must open the file SHARE=ALL.  If a user has update access to
       52       52                  the file, the FILE resource is enqueued SHARE=NONE.  If the
       53       53                  file is read only, SHARE=ALL is used.  This will allow
       54       54                  multiple users on information or bulletin board folders, and
       55       55                  only on user at a time in personal folders residing in multi-user
       56       56                  accounts.
       57       57
       58       58                  Before MAIL writes the profile record into the folder, the
       59       59                  record is first read and the number of messages information
       60       60                  is merged into MAIL's copy of the profile.  Since MAILMAN
       61       61                  changes only this information and dosen't dequeue until the
       62       62                  record is re-written, the most current information is always
       63       63                  maintained in the folder.
       64       64                                                                            */
       65       65        VMO$MAIL: PROC MAIN;
       66       66
       67       67        /***** Include files *****/
       68       68        %INCLUDE B_ERRORS_C;
       69     1195        %INCLUDE B_SEGIDS_C;
       70     1734        %INCLUDE B$JIT;
       71     2337        %INCLUDE CP_6;
       72     7896        %INCLUDE CP_6_SUBS;
       73     8436        %INCLUDE VM_MACRO_C;
       74     9704        %INCLUDE VM_SUBS_C;
PL6.E3A0      #001=VMO$MAIL File=VMO$MAIL.:VMB6TSI                               WED 08/20/97 15:19 Page:3
       75     9964        %INCLUDE VM_PERR_C;
       76    10259        %INCLUDE VO_SUBS_C;
       77    10310        %INCLUDE XU_MACRO_C;
       78    13416        %INCLUDE XU_FORMAT_C;
       79    13578        %INCLUDE XUE_MACRO_C;
       80    14322        %INCLUDE XU_PERR_C;
       81    14513        %INCLUDE XUH_MACRO_C;
       82    14597        %INCLUDE XUM_MACRO_C;
       83    14624        %INCLUDE XUR_ENTRY;
       84    14656        %INCLUDE XUW_MACRO_C;
       85    14791        %INCLUDE VM_DATA_R;
       86    15222            %include B$TABLES_C;
       87    15330        %B$XL_UPPER(NAME=LOWER_UPPER);
       88    15334
       89    15335        %F$DCB;
       90    15392        %B$TCB (STCLASS="BASED(B$TCB$)");
       91    15395        %B$ALT;
       92    15403        %PARSE$OUT (NAME=P$B,STCLASS="BASED(BLK$)");
       93    15448        %PARSE$SYM (NAME=P$S,STCLASS="BASED(BLK$)");
       94    15486        %P_PCB (STCLASS=STATIC);
       95    15685
       96    15686        %XUG_GETCMD (NAME=XUG$GETCMD,STCLASS="BASED(XUG_GETCMD$)");
       97    16024    1   DCL XUG_GETCMD$ PTR;
       98    16025
       99    16026        %XUE_ENTRIES;
      100    16050        %XUR_INIT(ABORT=VMO$ABORT,MOREMEM=VMA$MOREMEM,PCB=P_PCB,PREPROCESS=YES,
      101    16051            COMMANDS=YES,INHIBIT_OUTPUT=YES);
      102    16150        /***** Partrge root nodes *****/
      103    16151    1   DCL MAIL_NODES PTR SYMREF;              /* Mail commands */
      104    16152    1   DCL SEND_CMD PTR SYMREF;                /* Mail address */
      105    16153    1   DCL MAIL_CMD PTR SYMREF;                /* Syntax for invoking mail from ibex */
      106    16154    1   DCL MODIFY_LIST PTR SYMREF;             /* Syntax for modify list subcommands */
      107    16155    1   DCL MODIFY_USER PTR SYMREF;             /* Syntax for modify user subcommands */
      108    16156        /*
      109    16157              Addresses of the nodes for the parser.  Ordinarily these will
      110    16158              have the values of the SYMDEFs above.  But with some imaginative
      111    16159              patching, these pointers can obtain values for user modified,
PL6.E3A0      #001=VMO$MAIL File=VMO$MAIL.:VMB6TSI                               WED 08/20/97 15:19 Page:4
      112    16160              (foriegn language) nodes.   */
      113    16161    1   DCL   MAIL_NODES$    PTR;
      114    16162    1   DCL   SEND_CMD$      PTR;
      115    16163    1   DCL   MAIL_CMD$      PTR;
      116    16164    1   DCL   MODIFY_LIST$   PTR;
      117    16165    1   DCL   MODIFY_USER$   PTR;
      118    16166    1   DCL   VM_ADDRESS_SPEC$ PTR   STATIC   SYMDEF;/* VME$SUBR needs it */
      119    16167    1   DCL   ADDRESS_SPEC   PTR   SYMREF;
      120    16168
      121    16169    1   DCL   BSD            SBIN  BASED;
      122    16170        /*
      123    16171              The following DCL's are for allowing multiple parse nodes
      124    16172              in different languages.
      125    16173        */
      126    16174        %PARSE_NODES (NAME=VM_DEFAULT_NODES,
      127    16175                    STCLASS="CONSTANT SYMDEF",
      128    16176                    N0=MAIL_NODES,
      129    16177                    N1=MAIL_CMD,
      130    16178                    N2=MODIFY_LIST,
      131    16179                    N3=MODIFY_USER,
      132    16180                    N15=SEND_CMD,
      133    16181                    N26=ADDRESS_SPEC);
      134    16216        %NATL_PAIRS (NAME=VM_NATL_PAIRS,
      135    16217                    STCLASS="CONSTANT SYMDEF",
      136    16218                    NATL_CHARS="' '*0",
      137    16219                    NODES$="ADDR(VM_DEFAULT_NODES), ADDR(NIL)*0");
      138    16237        %PARSE_NODES(NAME=NODES_TO_USE,
      139    16238                    STCLASS="BASED(NODES$)");
      140    16273    1   DCL   NODES$      PTR;
      141    16274
      142    16275    1   dcl 1  VM_NODENAMES   constant symdef
      143    16276
      144    16277                    %BUILD_NODENAMES( N=0, NAME=MAIL_NODES);
      145    16289                    %BUILD_NODENAMES( N=1, NAME=MAIL_CMD);
      146    16301                    %BUILD_NODENAMES( N=2, NAME=MODIFY_LIST);
      147    16313                    %BUILD_NODENAMES( N=3, NAME=MODIFY_USER);
      148    16325                    %BUILD_NODENAMES( N=15, NAME=SEND_CMD);
PL6.E3A0      #001=VMO$MAIL File=VMO$MAIL.:VMB6TSI                               WED 08/20/97 15:19 Page:5
      149    16337                    %BUILD_NODENAMES( N=26, NAME=ADDRESS_SPEC);
      150    16349
      151    16350                    %BUILD_NODENAMES( DONE=YES );
      152    16362
      153    16363        %VLP_NAME( FPTN=VM_NODEFID, NAME='VM_NODES', STCLASS="CONSTANT SYMDEF");
      154    16390        /***** External routines *****/
      155    16391    1   DCL VMA$ADD_RENTRY_SORTED ENTRY(6) ALTRET;
      156    16392    1   DCL VMA$ADD_UENTRY_SORTED ENTRY(6) ALTRET;
      157    16393    1   DCL VMA$COMPRESS_BLANKS ENTRY(1);
      158    16394    1   DCL VMA$DEL_LIST ENTRY(3) ALTRET;
      159    16395    1   DCL VMA$DEL_RENTRY ENTRY(6) ALTRET;
      160    16396    1   DCL VMA$DEL_UENTRY ENTRY(6) ALTRET;
      161    16397    1   DCL VMA$ENLARGE_SEGMENT ENTRY(2) ALTRET;
      162    16398    1   DCL VMA$GET_SITE_NAME ENTRY(4) ALTRET;
      163    16399    1   DCL VMA$GET_NEXT_ENTRY ENTRY(4) ALTRET;
      164    16400    1   DCL VMA$GET_LIST ENTRY(3) ALTRET;
      165    16401
      166    16402    1   DCL VMA$GET_LIST_NEXT ENTRY(3) ALTRET;
      167    16403    1   DCL VMA$MOREMEM ENTRY(3) ALTRET;
      168    16404    1   DCL VMA$OPEN_FOLDER ENTRY(5) ALTRET;
      169    16405    1   DCL VMA$OPEN_GLOBAL ENTRY(1) ALTRET;
      170    16406    1   DCL VMA$PUT_LIST ENTRY(3) ALTRET;
      171    16407    1   DCL VMB$FIND_DEFAULT ENTRY(7) ALTRET;
      172    16408    1   DCL VMB$USE_SPECIFIED ENTRY(7) ALTRET;
      173    16409    1   DCL VMB$USE_DEFAULT ENTRY(7) ALTRET;
      174    16410    1   DCL VMD$DI_FOLDER ENTRY(2);
      175    16411    1   DCL VMB$USE_SAME ENTRY(7) ALTRET;
      176    16412    1   dcl VMB$TESTREG entry(1) altret;
      177    16413    1   DCL VMA$OPEN_SRCH_LIST ENTRY(1) ALTRET;
      178    16414    1   DCL VMA$SHRINK_SEGMENT ENTRY(2) ALTRET;
      179    16415    1   DCL VMA$OPEN_ENCL_SEGS ENTRY ALTRET;
      180    16416    1   DCL VMA$PUT_ADD_RECORD ENTRY(4) ALTRET;
      181    16417    1   DCL VMD$DI_HEADER ENTRY(3);
      182    16418    1   DCL VMD$DI_LIST ENTRY(4);
      183    16419    1   DCL VMD$DI_MESSAGE ENTRY(6) ALTRET;
      184    16420    1   DCL VMD$DI_PROFILE ENTRY(1);
      185    16421    1   DCL VMD$DI_USER ENTRY(2);
PL6.E3A0      #001=VMO$MAIL File=VMO$MAIL.:VMB6TSI                               WED 08/20/97 15:19 Page:6
      186    16422    1   DCL VMD$DEL_HEADER ENTRY(2) ALTRET;
      187    16423    1   DCL VMD$EJECT ENTRY(1) ALTRET;
      188    16424        %INIT_STR(DODCL=YES);
      189    16447    1   DCL  VMD$GETNODES            ENTRY(4);
      190    16448    1   DCL VMD$GET_HEADER ENTRY(2) ALTRET;
      191    16449    1   DCL VMD$GET_HEADER_NEXT ENTRY(2) ALTRET;
      192    16450    1   DCL VMD$GET_HEADER_PREV ENTRY(2) ALTRET;
      193    16451    1   DCL VMD$PUT_HEADER ENTRY(2) ALTRET;
      194    16452    1   DCL VMD$GET_PROFILE ENTRY(1) ALTRET;
      195    16453    1   DCL VMD$PUT_PROFILE ENTRY(1) ALTRET;
      196    16454    1   DCL VMD$GET_ENCL ENTRY (9) ALTRET;
      197    16455    1   DCL VMD$PUT_ENCL ENTRY (9) ALTRET;
      198    16456    1   DCL VMD$DEL_ENCL ENTRY (9) ALTRET;
      199    16457    1   DCL VMD$PUT_ID ENTRY (3) ALTRET;
      200    16458    1   DCL VMD$WRITE_BUF ENTRY(1);             /* Takes place of X$FORMAT */
      201    16459    1   DCL VME$ACKNOWLEDGE ENTRY(3) ALTRET;
      202    16460    1   DCL VME$ANSWER ENTRY(3) ALTRET;
      203    16461    1   DCL VMF$FROM ENTRY(1) ALTRET;
      204    16462    1   DCL VMF$MAKE_ADDRESS1 ENTRY(2);
      205    16463    1   dcl VMF$MAKE_ADDRESS1PASS entry(2);   /** Adds password if present **/
      206    16464    1   DCL VMM$COPY_MESSAGE ENTRY(6) ALTRET;
      207    16465    1   DCL VMM$DELETE_MESSAGE ENTRY(2) ALTRET;
      208    16466    1   DCL VMM$COMBINE_MESSAGE ENTRY (3) ALTRET;
      209    16467    1   DCL VMM$EDIT_MESSAGE_OUT ENTRY (5) ALTRET;
      210    16468    1   DCL VMO$XCON ENTRY ASYNC;
      211    16469    1   DCL VMO$ABORT ENTRY;
      212    16470    1   DCL VMS$FMT_SELECT ENTRY(2);
      213    16471    1   DCL VMS$SELECT ENTRY(3) ALTRET;
      214    16472    1   DCL VMS$MOVE_SELECT ENTRY(3) ALTRET;
      215    16473    1   DCL VMA$GET_ADD_RECORD ENTRY(4) ALTRET;
      216    16474    1   DCL X$WILDCMP ENTRY(1) ALTRET;
      217    16475    1   DCL VMX$OCTBIN ENTRY(2);
      218    16476    1   DCL X$ALLOCATE ENTRY(1) ALTRET;
      219    16477    1   DCL X$DEALLOCATE ENTRY(1) ALTRET;
      220    16478    1   DCL X$HELP ENTRY(1) ALTRET;
      221    16479        /***** Symdef data *****/
      222    16480    1   DCL VMO_REMEMBER REMEMBER STATIC SYMDEF;
PL6.E3A0      #001=VMO$MAIL File=VMO$MAIL.:VMB6TSI                               WED 08/20/97 15:19 Page:7
      223    16481    1   DCL CURRENT_MESSAGE_NUMBER SBIN WORD STATIC SYMDEF INIT(0);
      224    16482    1   DCL NEED_TITLE_BAR BIT (1) SYMREF;
      225    16483        /***** Character data *****/
      226    16484
      227    16485    1   DCL KEY_VALUE CHAR(8) CALIGNED;
      228    16486    1   DCL WILDCARD_PATTERN CHAR(%SIZ_FOLDER);
      229    16487    1   DCL CURRENT_LINE CHAR (P_PCB.NCHARS) CALIGNED BASED (P_PCB.TEXT$);
      230    16488        %VLP_NAME (FPTN=LINK_CCBUF,LEN=256,STCLASS=STATIC);
      231    16515
      232    16516        %VLP_NAME (FPTN=WORK_STRING,LEN=511,STCLASS=STATIC);
      233    16543    1   DCL B_VERSION CHAR(1) SYMREF;           /* Mail version */
      234    16544    1   DCL 1 B$VERSION BASED,
      235    16545    1         2 L# UBIN BYTE CALIGNED,
      236    16546    1         2 NAME# CHAR(B$VERSION.L#) CALIGNED;
      237    16547        /***** Ptrs *****/
      238    16548    1   DCL OUT$ PTR;
      239    16549        %VLP_ERRCODE (FPTN=OUTERR,STCLASS="REDEF OUT$");
      240    16594    1   DCL BLK$ PTR AUTO;
      241    16595    1   DCL PTR1$ PTR AUTO;
      242    16596    1   DCL PTR2$ PTR AUTO;
      243    16597    1   DCL PTR3$ PTR AUTO;
      244    16598    1   DCL PTR4$ PTR AUTO;
      245    16599        %POINTER (NAME=PTR4R$,STCLASS="REDEF PTR4$");
      246    16604    1   DCL PTR5$ PTR AUTO;
      247    16605    1   DCL ENCL$ PTR;
      248    16606    1   DCL PAGESIZE SBIN WORD STATIC INIT(4096);
      249    16607        /***** Index counters *****/
      250    16608    1   DCL INDX1 SBIN WORD AUTO;
      251    16609    1   DCL INDX2 SBIN WORD STATIC SYMDEF;
      252    16610    1   DCL INDX3 SBIN WORD AUTO;
      253    16611    1   DCL INDX4 SBIN WORD AUTO;
      254    16612        /***** Other variables *****/
      255    16613    1   DCL WORK_UTS UBIN WORD STATIC;
      256    16614    1   DCL NEW_FLAG BIT(1) STATIC INIT('0'B);
      257    16615    1   DCL BREAK_TYPE UBIN WORD STATIC SYMDEF INIT(0);
      258    16616    1   DCL DCB# UBIN WORD STATIC;
      259    16617    1   DCL OUTDCB UBIN WORD STATIC INIT(DCBNUM(M$LO));
PL6.E3A0      #001=VMO$MAIL File=VMO$MAIL.:VMB6TSI                               WED 08/20/97 15:19 Page:8
      260    16618    1   DCL M$OUT_NUM UBIN WORD CONSTANT SYMDEF INIT(DCBNUM(M$OUT));
      261    16619    1   DCL SELECT_CURRENT BIT(1) STATIC;       /* Special select mode bit */
      262    16620    1   DCL FOLDER_WAS_OPEN BIT(1) STATIC SYMDEF;
      263    16621    1   DCL REOPENED_FOLDER BIT(1) STATIC;      /* For bad use recovery */
      264    16622    1   DCL COMBINED BIT (1);
      265    16623    1   DCL NONE BIT (1);
      266    16624    1   DCL MADE_OLD BIT(1);
      267    16625    1   DCL WILD BIT(1);
      268    16626        /***** Variables for list and user definitions *****/
      269    16627        %VLP_ACCT (FPTN=ADDRESS_ACCT,STCLASS=AUTO);
      270    16640        %VLP_ACCT (FPTN=ADDRESS_LACCN,STCLASS=AUTO);
      271    16653    1   DCL ADDRESS_LUNAME CHAR(12) AUTO;       /* Same size as B$JIT.UNAME */
      272    16654        %VLP_NAME (FPTN=ADDRESS_NAME,LEN=511,STCLASS=AUTO);
      273    16681        %VLP_PASS (FPTN=ADDRESS_PASS,STCLASS=AUTO);
      274    16694    1   DCL ADDRESS_FOLDER CHAR(%SIZ_FOLDER) AUTO;
      275    16695    1   DCL ADDRESS_SITENAME CHAR(%SIZ_SITENAME) AUTO;
      276    16696    1   DCL DOMAIN$ PTR;
      277    16697    1   DCL MAIL_PROMPT (0:2) CHAR STATIC INIT (BITASC('100000010'B),'p','>');
      278    16698        %VLP_NAME (FPTN=VM_MODIFY_LIST_PROMPT, LEN=15, L=15, NAME=' ', STCLASS=STATIC);
      279    16725        %VLP_ERRCODE (FPTN=E_MODIFY_LIST_PROMPT, STCLASS="CONSTANT SYMDEF",
      280    16726                    ERR#=%E$MODIFY_LIST_PROMPT,          FCG=VM,MID=O);
      281    16771        /*E*  ERROR: VMO-E$MODIFY_LIST_PROMPT-0
      282    16772              MESSAGE:pList>
      283    16773        */
      284    16774              %VLP_NAME (FPTN=VM_MODIFY_USER_PROMPT, LEN=15, L=15, NAME=' ', STCLASS=STATIC)
             16774                  ;
      285    16801        %VLP_ERRCODE (FPTN=E_MODIFY_USER_PROMPT, STCLASS="CONSTANT SYMDEF",
      286    16802                    ERR#=%E$MODIFY_USER_PROMPT,          FCG=VM,MID=O);
      287    16847        /*E*  ERROR: VMO-E$MODIFY_USER_PROMPT-0
      288    16848              MESSAGE:pUser>
      289    16849        */
      290    16850    1   DCL EXIT_MAIL# BIT(1) STATIC INIT(%NO#); /* End spec. on invocation */
      291    16851    1   DCL EXIT_MAIL_PEND# BIT(1) STATIC INIT(%NO#); /* allows read as setup command */
      292    16852    1   DCL PRINT_HEADER# BIT(1) STATIC;        /* Header spec. in profile? */
      293    16853    1   DCL OUTBUF CHAR(300) STATIC ;           /* Used as an output buffer */
      294    16854    1   DCL TEMPBUF CHAR(%SIZ_LISTNAME) AUTO;   /* Same size as VM_LISTKEY.TEXT */
      295    16855    1   DCL SIZE UBIN WORD STATIC INIT(0);
PL6.E3A0      #001=VMO$MAIL File=VMO$MAIL.:VMB6TSI                               WED 08/20/97 15:19 Page:9
      296    16856    1   DCL EJECT BIT (1);
      297    16857    1   DCL ANSI_TIME CHAR (8) STATIC;
      298    16858    1   DCL ANSI_DATE CHAR (6) STATIC;
      299    16859    1   DCL ID CHAR (511);
      300    16860    1   DCL COUNT SBIN;
      301    16861    1   DCL INDX1_CHARS CHAR(INDX1) BASED;
      302    16862        /***** Command processing variables *****/
      303    16863        %VLP_NAME (FPTN=NEXT_COMMAND_TEXT,LEN=511,STCLASS=AUTO);
      304    16890    1   DCL NEXT_COMMAND_ECHO# BIT(1) STATIC INIT(%NO#); /* Echo NEXT_COMMAND? */
      305    16891    1   DCL CURR_COMMAND_CODE UBIN WORD STATIC INIT(0); /* Current command */
      306    16892    1   DCL LAST_COMMAND_CODE UBIN WORD STATIC INIT(%CMD_LIST_MESSAGE);
      307    16893    1   DCL M$CMNDF_NUM UBIN WORD STATIC INIT(DCBNUM(M$CMNDF));
      308    16894
      309    16895
      310    16896        %EJECT;
PL6.E3A0      #001=VMO$MAIL File=VMO$MAIL.:VMB6TSI                               WED 08/20/97 15:19 Page:10
      311    16897        /*
      312    16898             ***** Macros that define mail structures ...
      313    16899        */
      314    16900        %VM_KEYTYPES;
      315    16921
      316    16922        %VM_ADDTYPES;
      317    16926
      318    16927        %VM_PROFILE;
      319    17014
      320    17015        %VM_PROFILE (NAME=CVM_PROFILE,STCLASS=CONSTANT);
      321    17102
      322    17103        %VM_HEADER;
      323    17232
      324    17233        %VM_INFOKEY (NAME=VM_HEADKEY,TYP=%VM_TYPE_HEAD);
      325    17250
      326    17251        %VM_INFOKEY;
      327    17268
      328    17269        %VM_BODYKEY;
      329    17289
      330    17290        %VM_LISTKEY;
      331    17306
      332    17307        %VM_LISTKEY (NAME=VM_LISTKEY2);
      333    17323
      334    17324        %VM_USERKEY;
      335    17340
      336    17341        %VM_USERKEY (NAME=VM_USERKEY2);
      337    17357
      338    17358        %VM_ADD_HEAD;
      339    17387
      340    17388        %VM_RADDRESS (NAME=VM$RADDRESS,STCLASS=BASED);
      341    17423
      342    17424        %VM_UADDRESS (NAME=VM$UADDRESS,STCLASS=BASED);
      343    17461
      344    17462        %VM_ID (NAME=VM_ID, STCLASS="BASED(VM_HEADER$)");
      345    17475
      346    17476        %VM_BODYTYPES;
      347    17482
PL6.E3A0      #001=VMO$MAIL File=VMO$MAIL.:VMB6TSI                               WED 08/20/97 15:19 Page:11
      348    17483
      349    17484        %VM_ADD_HEAD (NAME=VM_ENCL_HEAD,STCLASS="BASED(VM_ENCLLIST$)");
      350    17513
      351    17514        %VM_ENCLOS (STCLASS="BASED(ENCL$)");
      352    17545
      353    17546        %VM_BODYREC (NAME=VM_ENCLREC,VARYLEN=YES,STCLASS="BASED(VM_ENCLREC$)",TYP=
             17546            %VM_BODY_BINARY_ENCL);
      354    17578
      355    17579        %SET LISTMAC = '0'B;
      356    17580        %SET LISTSUB = '0'B;
      357    17581        %VM_RADDRESS (NAME=VM_RADDRESS,STCLASS=AUTO);
      358    17616
      359    17617        %VM_UADDRESS (NAME=VM_UADDRESS,STCLASS=AUTO);
      360    17654        %SET LISTMAC = '1'B;
      361    17655        %SET LISTSUB = '1'B;
      362    17656
      363    17657        %VM_CGBUFFER (STCLASS="STATIC SYMDEF");
             17658        %LSET LISTDIR='0'B;
             17667    1   DCL 1 VM_CGBUFFER STATIC SYMDEF,
             17668    1         2 STATION# CHAR(8) CALIGNED %INIT(' ')%CHARTEXT('/**/'),
             17669    1         2 COMMAND SBIN WORD CALIGNED %INIT(0)%CHARTEXT('/**/'),
             17670    1         2 FOLDER,
             17671    1           3 COUNT UBIN BYTE CALIGNED %INIT(0)%CHARTEXT('/**/'),
             17672    1           3 TEXT CHAR(25) CALIGNED %INIT(' ')%CHARTEXT('/**/'),
             17673    1         2 * SBIN HALF CALIGNED %INIT(0)%CHARTEXT('/**/'),
             17674    1         2 ACCT CHAR(8) CALIGNED %INIT(' ')%CHARTEXT('/**/'),
             17675    1         2 * CHAR(24) CALIGNED %INIT(' ')%CHARTEXT('/**/'),
             17676    1         2 FILE_NAME,
             17677    1           3 COUNT UBIN BYTE CALIGNED %INIT(0)%CHARTEXT('/**/'),
             17678    1           3 TEXT CHAR(31) CALIGNED %INIT(' ')%CHARTEXT('/**/'),
             17679    1         2 ERROR ,
             17680                      /* Error code returned by MAILMAN */
             17681    1           3 FCG BIT(12) UNAL,
             17682    1           3 MID BIT(6) UNAL,
             17683    1           3 MON BIT(1) UNAL,
             17684    1           3 ERR# UBIN(14) UNAL,
             17685    1           3 SEV UBIN(3) UNAL,
PL6.E3A0      #001=VMO$MAIL File=VMO$MAIL.:VMB6TSI                               WED 08/20/97 15:19 Page:12
             17686    1         2 * CHAR(36) CALIGNED %INIT(' ')%CHARTEXT('/**/');
      364    17688
      365    17689                                           /* Information on the users central folder */
      366    17690        %VM_FOLDER_INFO (NAME=VM_CENTRAL_FOLDER);
             17691        %LSET LISTDIR='0'B;
             17700    1   DCL 1 VM_CENTRAL_FOLDER STATIC,
             17701    1         2 PSID CHAR(6) CALIGNED %INIT(' ')%CHARTEXT('/**/'),
             17702                          /* Packset on which this folder resides */
             17703    1         2 ACCT CHAR(8) CALIGNED %INIT(' ')%CHARTEXT('/**/'),
             17704                            /* Account where this folder resides */
             17705    1         2 FOLDER CHAR(25) CALIGNED %INIT(' ')%CHARTEXT('/**/'),
             17706                            /* Name of this folder */
             17707    1         2 PASS CHAR(8) CALIGNED %INIT(' ')%CHARTEXT('/**/'),
             17708                            /* Password (if any) of this folder */
             17709    1         2 SITENAME CHAR(8) %INIT(' ')%CHARTEXT('/**/'),
             17710                            /* Site where this folder exists */
             17711    1         2 TIME,
             17712                            /* Various times of interest */
             17713    1           3 ACCESS UBIN WORD %INIT(0)%CHARTEXT('/**/'),
             17714                            /* Time that this file was last accessed */
             17715    1           3 CREATION UBIN WORD %INIT(0)%CHARTEXT('/**/'),
             17716                            /* Time that this file was created */
             17717    1           3 MODIFY UBIN WORD %INIT(0)%CHARTEXT('/**/'),
             17718                            /* Time that this file was last modified */
             17719    1         2 NRECS UBIN WORD %INIT(0)%CHARTEXT('/**/'),
             17720                            /* Number of records in this file */
             17721    1         2 UGRANS UBIN WORD %INIT(0)%CHARTEXT('/**/'),
             17722                            /* Number of granules currently in use */
             17723    1         2 FLAGS,
             17724    1           3 UPDATE BIT(1) UNAL %INIT('0'B)%CHARTEXT('/**/'),
             17725                            /* May the user UPDATE or just READ this folder */
             17726    1           3 OWNER BIT(1) UNAL %INIT('0'B)%CHARTEXT('/**/'),
             17727                            /* Is current user OWNER of this folder? */
             17728    1           3 ACCT_SPEC BIT(1) UNAL %INIT('0'B)%CHARTEXT('/**/'),
             17729                            /* Was a account specified in the address? */
             17730    1           3 FOLDER_SPEC BIT(1) UNAL %INIT('0'B)%CHARTEXT('/**/'),
             17731                            /* Was a folder specified in the address? */
PL6.E3A0      #001=VMO$MAIL File=VMO$MAIL.:VMB6TSI                               WED 08/20/97 15:19 Page:13
             17732    1           3 SITENAME_SPEC BIT(1) UNAL %INIT('0'B)%CHARTEXT('/**/'),
             17733                            /* Was a sitename specified in the address? */
             17734    1           3 OPEN BIT(1) UNAL %INIT('0'B)%CHARTEXT('/**/'),
             17735                            /* Has this folder been opened? */
             17736    1           3 RESERVED BIT(30) UNAL %INIT('0'B)%CHARTEXT('/**/'),
             17737    1         2 USER_NAME,
             17738                            /* Name that got us to this folder */
             17739    1           3 COUNT UBIN BYTE CALIGNED %INIT(0)%CHARTEXT('/**/'),
             17740    1           3 TEXT CHAR(200) CALIGNED %INIT(' ')%CHARTEXT('/**/');
      367    17742                                 /* Information on the folder currently being used */
      368    17743        %VM_FOLDER_INFO (NAME=VM_CURRENT_FOLDER,STCLASS="STATIC SYMDEF");
             17744        %LSET LISTDIR='0'B;
             17753    1   DCL 1 VM_CURRENT_FOLDER STATIC SYMDEF,
             17754    1         2 PSID CHAR(6) CALIGNED %INIT(' ')%CHARTEXT('/**/'),
             17755                          /* Packset on which this folder resides */
             17756    1         2 ACCT CHAR(8) CALIGNED %INIT(' ')%CHARTEXT('/**/'),
             17757                            /* Account where this folder resides */
             17758    1         2 FOLDER CHAR(25) CALIGNED %INIT(' ')%CHARTEXT('/**/'),
             17759                            /* Name of this folder */
             17760    1         2 PASS CHAR(8) CALIGNED %INIT(' ')%CHARTEXT('/**/'),
             17761                            /* Password (if any) of this folder */
             17762    1         2 SITENAME CHAR(8) %INIT(' ')%CHARTEXT('/**/'),
             17763                            /* Site where this folder exists */
             17764    1         2 TIME,
             17765                            /* Various times of interest */
             17766    1           3 ACCESS UBIN WORD %INIT(0)%CHARTEXT('/**/'),
             17767                            /* Time that this file was last accessed */
             17768    1           3 CREATION UBIN WORD %INIT(0)%CHARTEXT('/**/'),
             17769                            /* Time that this file was created */
             17770    1           3 MODIFY UBIN WORD %INIT(0)%CHARTEXT('/**/'),
             17771                            /* Time that this file was last modified */
             17772    1         2 NRECS UBIN WORD %INIT(0)%CHARTEXT('/**/'),
             17773                            /* Number of records in this file */
             17774    1         2 UGRANS UBIN WORD %INIT(0)%CHARTEXT('/**/'),
             17775                            /* Number of granules currently in use */
             17776    1         2 FLAGS,
             17777    1           3 UPDATE BIT(1) UNAL %INIT('0'B)%CHARTEXT('/**/'),
PL6.E3A0      #001=VMO$MAIL File=VMO$MAIL.:VMB6TSI                               WED 08/20/97 15:19 Page:14
             17778                            /* May the user UPDATE or just READ this folder */
             17779    1           3 OWNER BIT(1) UNAL %INIT('0'B)%CHARTEXT('/**/'),
             17780                            /* Is current user OWNER of this folder? */
             17781    1           3 ACCT_SPEC BIT(1) UNAL %INIT('0'B)%CHARTEXT('/**/'),
             17782                            /* Was a account specified in the address? */
             17783    1           3 FOLDER_SPEC BIT(1) UNAL %INIT('0'B)%CHARTEXT('/**/'),
             17784                            /* Was a folder specified in the address? */
             17785    1           3 SITENAME_SPEC BIT(1) UNAL %INIT('0'B)%CHARTEXT('/**/'),
             17786                            /* Was a sitename specified in the address? */
             17787    1           3 OPEN BIT(1) UNAL %INIT('0'B)%CHARTEXT('/**/'),
             17788                            /* Has this folder been opened? */
             17789    1           3 RESERVED BIT(30) UNAL %INIT('0'B)%CHARTEXT('/**/'),
             17790    1         2 USER_NAME,
             17791                            /* Name that got us to this folder */
             17792    1           3 COUNT UBIN BYTE CALIGNED %INIT(0)%CHARTEXT('/**/'),
             17793    1           3 TEXT CHAR(200) CALIGNED %INIT(' ')%CHARTEXT('/**/');
      369    17795        %VM_FOLDER_INFO (NAME=VM_CURRENT_FOLDER_SAVE,STCLASS=STATIC);
             17796        %LSET LISTDIR='0'B;
             17805    1   DCL 1 VM_CURRENT_FOLDER_SAVE STATIC,
             17806    1         2 PSID CHAR(6) CALIGNED %INIT(' ')%CHARTEXT('/**/'),
             17807                          /* Packset on which this folder resides */
             17808    1         2 ACCT CHAR(8) CALIGNED %INIT(' ')%CHARTEXT('/**/'),
             17809                            /* Account where this folder resides */
             17810    1         2 FOLDER CHAR(25) CALIGNED %INIT(' ')%CHARTEXT('/**/'),
             17811                            /* Name of this folder */
             17812    1         2 PASS CHAR(8) CALIGNED %INIT(' ')%CHARTEXT('/**/'),
             17813                            /* Password (if any) of this folder */
             17814    1         2 SITENAME CHAR(8) %INIT(' ')%CHARTEXT('/**/'),
             17815                            /* Site where this folder exists */
             17816    1         2 TIME,
             17817                            /* Various times of interest */
             17818    1           3 ACCESS UBIN WORD %INIT(0)%CHARTEXT('/**/'),
             17819                            /* Time that this file was last accessed */
             17820    1           3 CREATION UBIN WORD %INIT(0)%CHARTEXT('/**/'),
             17821                            /* Time that this file was created */
             17822    1           3 MODIFY UBIN WORD %INIT(0)%CHARTEXT('/**/'),
             17823                            /* Time that this file was last modified */
PL6.E3A0      #001=VMO$MAIL File=VMO$MAIL.:VMB6TSI                               WED 08/20/97 15:19 Page:15
             17824    1         2 NRECS UBIN WORD %INIT(0)%CHARTEXT('/**/'),
             17825                            /* Number of records in this file */
             17826    1         2 UGRANS UBIN WORD %INIT(0)%CHARTEXT('/**/'),
             17827                            /* Number of granules currently in use */
             17828    1         2 FLAGS,
             17829    1           3 UPDATE BIT(1) UNAL %INIT('0'B)%CHARTEXT('/**/'),
             17830                            /* May the user UPDATE or just READ this folder */
             17831    1           3 OWNER BIT(1) UNAL %INIT('0'B)%CHARTEXT('/**/'),
             17832                            /* Is current user OWNER of this folder? */
             17833    1           3 ACCT_SPEC BIT(1) UNAL %INIT('0'B)%CHARTEXT('/**/'),
             17834                            /* Was a account specified in the address? */
             17835    1           3 FOLDER_SPEC BIT(1) UNAL %INIT('0'B)%CHARTEXT('/**/'),
             17836                            /* Was a folder specified in the address? */
             17837    1           3 SITENAME_SPEC BIT(1) UNAL %INIT('0'B)%CHARTEXT('/**/'),
             17838                            /* Was a sitename specified in the address? */
             17839    1           3 OPEN BIT(1) UNAL %INIT('0'B)%CHARTEXT('/**/'),
             17840                            /* Has this folder been opened? */
             17841    1           3 RESERVED BIT(30) UNAL %INIT('0'B)%CHARTEXT('/**/'),
             17842    1         2 USER_NAME,
             17843                            /* Name that got us to this folder */
             17844    1           3 COUNT UBIN BYTE CALIGNED %INIT(0)%CHARTEXT('/**/'),
             17845    1           3 TEXT CHAR(200) CALIGNED %INIT(' ')%CHARTEXT('/**/');
      370    17847
      371    17848                                           /* Information on folders temporarily open */
      372    17849        %VM_FOLDER_INFO (NAME=VM_WORK_FOLDER,STCLASS="STATIC SYMDEF");
             17850        %LSET LISTDIR='0'B;
             17859    1   DCL 1 VM_WORK_FOLDER STATIC SYMDEF,
             17860    1         2 PSID CHAR(6) CALIGNED %INIT(' ')%CHARTEXT('/**/'),
             17861                          /* Packset on which this folder resides */
             17862    1         2 ACCT CHAR(8) CALIGNED %INIT(' ')%CHARTEXT('/**/'),
             17863                            /* Account where this folder resides */
             17864    1         2 FOLDER CHAR(25) CALIGNED %INIT(' ')%CHARTEXT('/**/'),
             17865                            /* Name of this folder */
             17866    1         2 PASS CHAR(8) CALIGNED %INIT(' ')%CHARTEXT('/**/'),
             17867                            /* Password (if any) of this folder */
             17868    1         2 SITENAME CHAR(8) %INIT(' ')%CHARTEXT('/**/'),
             17869                            /* Site where this folder exists */
PL6.E3A0      #001=VMO$MAIL File=VMO$MAIL.:VMB6TSI                               WED 08/20/97 15:19 Page:16
             17870    1         2 TIME,
             17871                            /* Various times of interest */
             17872    1           3 ACCESS UBIN WORD %INIT(0)%CHARTEXT('/**/'),
             17873                            /* Time that this file was last accessed */
             17874    1           3 CREATION UBIN WORD %INIT(0)%CHARTEXT('/**/'),
             17875                            /* Time that this file was created */
             17876    1           3 MODIFY UBIN WORD %INIT(0)%CHARTEXT('/**/'),
             17877                            /* Time that this file was last modified */
             17878    1         2 NRECS UBIN WORD %INIT(0)%CHARTEXT('/**/'),
             17879                            /* Number of records in this file */
             17880    1         2 UGRANS UBIN WORD %INIT(0)%CHARTEXT('/**/'),
             17881                            /* Number of granules currently in use */
             17882    1         2 FLAGS,
             17883    1           3 UPDATE BIT(1) UNAL %INIT('0'B)%CHARTEXT('/**/'),
             17884                            /* May the user UPDATE or just READ this folder */
             17885    1           3 OWNER BIT(1) UNAL %INIT('0'B)%CHARTEXT('/**/'),
             17886                            /* Is current user OWNER of this folder? */
             17887    1           3 ACCT_SPEC BIT(1) UNAL %INIT('0'B)%CHARTEXT('/**/'),
             17888                            /* Was a account specified in the address? */
             17889    1           3 FOLDER_SPEC BIT(1) UNAL %INIT('0'B)%CHARTEXT('/**/'),
             17890                            /* Was a folder specified in the address? */
             17891    1           3 SITENAME_SPEC BIT(1) UNAL %INIT('0'B)%CHARTEXT('/**/'),
             17892                            /* Was a sitename specified in the address? */
             17893    1           3 OPEN BIT(1) UNAL %INIT('0'B)%CHARTEXT('/**/'),
             17894                            /* Has this folder been opened? */
             17895    1           3 RESERVED BIT(30) UNAL %INIT('0'B)%CHARTEXT('/**/'),
             17896    1         2 USER_NAME,
             17897                            /* Name that got us to this folder */
             17898    1           3 COUNT UBIN BYTE CALIGNED %INIT(0)%CHARTEXT('/**/'),
             17899    1           3 TEXT CHAR(200) CALIGNED %INIT(' ')%CHARTEXT('/**/');
      373    17901
      374    17902                            /* Search list info describing how to resolve addresses */
      375    17903        %VM_SEARCH_INFO  (STCLASS=STATIC);
             17904        %LSET LISTDIR='0'B;
             17913    1   DCL 1 VM_SEARCH_INFO STATIC,
             17914    1         2 NUM_ENTRIES UBIN WORD,
             17915                            /* Number of folders to be searched */
PL6.E3A0      #001=VMO$MAIL File=VMO$MAIL.:VMB6TSI                               WED 08/20/97 15:19 Page:17
             17916    1         2 DCB# (0:10) UBIN WORD %INIT(0*11)%CHARTEXT('/**/'),
             17917                            /* Number of dcb which points to folder to search */
             17918    1         2 MAP(0:10) UBIN WORD %INIT(0*11)%CHARTEXT('/**/'),
             17919                           /* Maps entry numbers to SEARCH_LIST$ in profile */
             17920    1         2 GETDCB#(0:10) UBIN WORD %INIT(0*11)%CHARTEXT('/**/'),
             17921                            /* DCB number for this slot (via get dcb) */
             17922    1         2 ACTIVE BIT(1) UNAL %INIT('0'B)%CHARTEXT('/**/'),
             17923                            /* All files are open */
             17924    1         2 GLOBAL BIT(1) UNAL %INIT('0'B)%CHARTEXT('/**/'),
             17925                            /* Global folder exists */
             17926    1         2 CURRENT BIT(1) UNAL %INIT('0'B)%CHARTEXT('/**/'),
             17927                            /* Local folder exists */
             17928    1         2 * BIT(33) UNAL;
      376    17930
      377    17931                                                /* Wild card matching info */
      378    17932        %XUW_WILDCARD (FPTN=VM_WILDCARD,STCLASS=STATIC);
             17933        %LSET LISTDIR='0'B;
             17994    1   DCL 1 VM_WILDCARD STATIC DALIGNED,
             17995    1         2 PATTERN_ ALIGNED,
             17996    1           3 BOUND SBIN(20) UNAL INIT(SIZEV(NIL))/**/,
             17997    1           3 * BIT(12) INIT('7772'O)/**/,
             17998    1           3 * BIT(4) INIT('0'B)/**/,
             17999    1           3 PATTERN$ PTR INIT(ADDR(NIL))/**/,
             18000    1         2 INPUT_ ALIGNED,
             18001    1           3 BOUND SBIN(20) UNAL INIT(SIZEV(NIL))/**/,
             18002    1           3 * BIT(12) INIT('7772'O)/**/,
             18003    1           3 * BIT(4) INIT('0'B)/**/,
             18004    1           3 INPUT$ PTR INIT(ADDR(NIL))/**/,
             18005    1         2 TEMPLATE_ ALIGNED,
             18006    1           3 BOUND SBIN(20) UNAL INIT(SIZEV(NIL))/**/,
             18007    1           3 * BIT(12) INIT('7772'O)/**/,
             18008    1           3 * BIT(4) INIT('0'B)/**/,
             18009    1           3 TEMPLATE$ PTR INIT(ADDR(NIL))/**/,
             18010    1         2 OUTPUT_ ALIGNED,
             18011    1           3 BOUND SBIN(20) UNAL INIT(SIZEV(NIL))/**/,
             18012    1           3 * BIT(12) INIT('7772'O)/**/,
             18013    1           3 * BIT(4) INIT('0'B)/**/,
PL6.E3A0      #001=VMO$MAIL File=VMO$MAIL.:VMB6TSI                               WED 08/20/97 15:19 Page:18
             18014    1           3 OUTPUT$ PTR INIT(ADDR(NIL))/**/,
             18015    1         2 ERROR ALIGNED,
             18016    1           3 FCG BIT(12) UNAL INIT('0'O)/**/,
             18017    1           3 MID BIT(6) UNAL INIT('0'O)/**/,
             18018    1           3 MON BIT(1) UNAL INIT('0'B)/**/,
             18019    1           3 ERR# UBIN(14) UNAL INIT(0)/**/,
             18020    1           3 SEV UBIN(3) UNAL INIT(0)/**/,
             18021    1         2 WILD_CHAR# CALIGNED CHAR(1) INIT('?')/**/,
             18022    1         2 CONTAINS# BIT(1) UNAL INIT('0'B)/**/,
             18023    1         2 * BIT(8) UNAL INIT('0'B)/**/,
             18024    1         2 * BIT(18) UNAL INIT('0'B)/**/,
             18025    1         2 OUTPUT_LEN UBIN WORD ALIGNED INIT(0)/**/,
             18026    1         2 * BIT(36) ALIGNED INIT('0'B)/**/;
      379    18028        %SET LISTMAC = '0'B;
      380    18029        %SET LISTSUB = '0'B;
      381    18030        %EJECT;
PL6.E3A0      #001=VMO$MAIL File=VMO$MAIL.:VMB6TSI                               WED 08/20/97 15:19 Page:19
      382    18031        /***** Selection context information *****/
      383    18032        %SET LISTMAC='1'B;
      384    18033        %SET LISTSUB='1'B;
      385    18034        %VM_CONTEXT (NAME=VM$CONTEXT,STCLASS=BASED);
             18035        %LSET LISTDIR='0'B;
             18044    1   DCL 1 VM$CONTEXT BASED,
             18045    1         2 MESSAGE_POINTER SBIN WORD,
             18046                               /* Number of message currently being processed */
             18047    1         2 TRUTH_TREE$ PTR,
             18048                               /* Ptr to parse tree that contains TRUTH EXPRESSION */
             18049    1         2 NUM_ENTRIES UBIN WORD,
             18050                               /* Number of entries in the MESSAGE SET */
             18051    1         2 SET_INDX SBIN WORD,
             18052                               /* Which MESSAGE SET range is currently active? */
             18053    1         2 FLAGS,
             18054    1           3 INVERSE BIT(1) UNAL,
             18055                               /* Backwards? YES/NO. Default=NO */
             18056    1           3 NEXT BIT(1) UNAL,
             18057                               /* Pickup the NEXT message only */
             18058    1           3 PREV BIT(1) UNAL,
             18059                               /* Pickup the PREVIOUS message only */
             18060    1           3 RESERVED BIT(33) UNAL,
             18061    1         2 MESSAGE_SET (0:0),
             18062    1           3 LOW SBIN WORD,
             18063                               /* Low number in the range specification */
             18064    1           3 HIGH SBIN WORD;
             18065                               /* High number in the range specification */
      386    18067        %VM_SELECT (STCLASS=STATIC);
             18068        %LSET LISTDIR='0'B;
             18077    1   DCL 1 VM_SELECT STATIC,
             18078    1         2 ERROR,
             18079    1           3 FCG BIT(12) UNAL,
             18080    1           3 MID BIT(6) UNAL,
             18081    1           3 MON BIT(1) UNAL,
             18082    1           3 ERR# UBIN (14) UNAL,
             18083    1           3 SEV UBIN(3) UNAL,
             18084                               /* Error code returned from VMS$SELECT. */
PL6.E3A0      #001=VMO$MAIL File=VMO$MAIL.:VMB6TSI                               WED 08/20/97 15:19 Page:20
             18085    1         2 ERR_POS# UBIN WORD;
             18086                               /* Position where the error was found. */
      387    18088        %SET LISTMAC='0'B;
      388    18089        %SET LISTSUB='0'B;
      389    18090        %XUM$MCB (NAME=X$MCB,STCLASS=STATIC);
      390    18094    1   DCL CONTEXT_PTR$ (0:3) PTR STATIC;
      391    18095    1   DCL WHICH_CONTEXT UBIN WORD STATIC;
      392    18096        /* Which context is currently active? */
      393    18097          %EQU CONTEXT_CURRENT = 0;             /* The current context */
      394    18098          %EQU CONTEXT_SELECTED = 1;            /* The selected context */
      395    18099        /* Useful subs */
      396    18100          %SUB CURRENT_CONTEXT = "CONTEXT_PTR$(%CONTEXT_CURRENT)->VM$CONTEXT";
      397    18101          %SUB SELECTED_CONTEXT = "CONTEXT_PTR$(%CONTEXT_SELECTED)->VM$CONTEXT";
      398    18102    1   DCL NUM_MESSAGES_PROCESSED UBIN WORD;
      399    18103        %EJECT;
PL6.E3A0      #001=VMO$MAIL File=VMO$MAIL.:VMB6TSI                               WED 08/20/97 15:19 Page:21
      400    18104        /*
      401    18105             ***** The following declarations define variables
      402    18106                   that contain option values as set up by the
      403    18107                   INIT$SELECT_OPTS and other routines ...
      404    18108        */
      405    18109
      406    18110    1   DCL TEMP SBIN WORD;
      407    18111    1   DCL OPT_SITE CHAR(8);
      408    18112    1   DCL OPT_BYPASS BIT(1);
      409    18113    1   DCL OPT_NOUPDATE BIT(1);
      410    18114    1   DCL OPT_RECEIVERS BIT(1);
      411    18115    1   DCL OPT_FID CHAR(64) STATIC;
      412    18116    1   DCL OPT_EXIT BIT (1);
      413    18117    1   DCL OPT_QUIT BIT(1);
      414    18118    1   DCL OPT_SEED UBIN WORD STATIC;
      415    18119    1   DCL OPT_SEED$ PTR;
      416    18120    1   DCL OPT$SEED UBIN BASED(OPT_SEED$);
      417    18121
      418    18122        /***** Fpts *****/
      419    18123        %FPT_WAIT (FPTN=WAIT30, UNITS=30, STCLASS=CONSTANT);
      420    18137        %FPT_TIME  (FPTN=GET_ANSI_TIME,
      421    18138                    STCLASS=CONSTANT,
      422    18139                    SOURCE=UTS,
      423    18140                    DEST=ANS,
      424    18141                    TSTAMP=WORK_UTS,
      425    18142                    TIME=ANSI_TIME,
      426    18143                    DATE=ANSI_DATE);
      427    18162        %FPT_ENQ (FPTN=ENQ_PROFILE, STCLASS=STATIC,
      428    18163                  SHARE=NONE,
      429    18164                  WAIT=YES,
      430    18165                  RNAME=VM_PRORES);
      431    18183        %FPT_DEQ (FPTN=DEQ_PROFILE, STCLASS=STATIC,
      432    18184                  RNAME=VM_PRORES);
      433    18201        %VM_PRORES;
      434    18215        %VM_PRORES (NAME=VM_FILERES,RES='FILE');
      435    18229        %FPT_ENQ (FPTN=FILE_SHARE, STCLASS=CONSTANT,
      436    18230                  SHARE=ALL,
PL6.E3A0      #001=VMO$MAIL File=VMO$MAIL.:VMB6TSI                               WED 08/20/97 15:19 Page:22
      437    18231                  DCB=M$MAIL_FILE,
      438    18232                  WAIT=YES,
      439    18233                  WAIT_TIME=0,
      440    18234                  RNAME=VM_FILERES);
      441    18252        %FPT_ENQ (FPTN=FILE_NONE, STCLASS=CONSTANT,
      442    18253                  SHARE=NONE,
      443    18254                  DCB=M$MAIL_FILE,
      444    18255                  WAIT=YES,
      445    18256                  WAIT_TIME=0,
      446    18257                  RNAME=VM_FILERES);
      447    18275        %VM_HEADRES;
      448    18289        %FPT_ENQ (FPTN=ENQ_HEAD, STCLASS=CONSTANT,
      449    18290                  DCB=M$MAIL_FILE,
      450    18291                  RNAME=VM_HEADRES,
      451    18292                  WAIT_TIME=0,
      452    18293                  SHARE=ALL);
      453    18311        %FPT_DEQ (FPTN=DEQ_HEAD, STCLASS=CONSTANT,
      454    18312                  DCB=M$MAIL_FILE,
      455    18313                  RNAME=VM_HEADRES);
      456    18330
      457    18331        %FPT_YC (FPTN=RESET_#1,
      458    18332                 CMD=RESET_#1_CMD,
      459    18333                 ECHO=NO,
      460    18334                 NOERR=YES);
      461    18351
      462    18352    1   DCL RESET_#1_CMD CHAR(0) CONSTANT INIT('!RESET #1');
      463    18353
      464    18354        %FPT_YC (FPTN=RESET_#2,
      465    18355                 CMD=RESET_#2_CMD,
      466    18356                 ECHO=NO,
      467    18357                 NOERR=YES);
      468    18374
      469    18375    1   DCL RESET_#2_CMD CHAR(0) CONSTANT INIT('!RESET #2');
      470    18376
      471    18377        %FPT_YC (FPTN=RESET_#3,
      472    18378                 CMD=RESET_#3_CMD,
      473    18379                 ECHO=NO,
PL6.E3A0      #001=VMO$MAIL File=VMO$MAIL.:VMB6TSI                               WED 08/20/97 15:19 Page:23
      474    18380                 NOERR=YES);
      475    18397
      476    18398    1   DCL RESET_#3_CMD CHAR(0) CONSTANT INIT('!RESET #3');
      477    18399
      478    18400        %FPT_YC (FPTN=RESET_#4,
      479    18401                 CMD=RESET_#4_CMD,
      480    18402                 ECHO=NO,
      481    18403                 NOERR=YES);
      482    18420
      483    18421    1   DCL RESET_#4_CMD CHAR(0) CONSTANT INIT('!RESET #4');
      484    18422
      485    18423        %XUH_PARAM (NAME=HELP_PARAM,
      486    18424                       PROCACCT=SYSACCT,
      487    18425                       PROCNAME=MAIL_PROG_NAME,
      488    18426                       OUTDCB1=M$ME);
      489    18487
      490    18488              %VLP_NAME (FPTN=MAIL_PROG_NAME,
      491    18489              NAME='MAIL');
      492    18516
      493    18517
      494    18518        %FPT_INT     (UENTRY=XUR$BREAK);
      495    18532
      496    18533        %FPT_XCON (FPTN=SET_XCON,UENTRY=VMO$XCON);
      497    18547
      498    18548        %FPT_CLOSE (FPTN=CLOSE_SAVE,
      499    18549                    DISP=SAVE);
      500    18591        %FPT_CLOSE (FPTN=CLOSE_SCRATCH,
      501    18592                    DISP=SCRATCH);
      502    18634
      503    18635        %VLP_ERRCODE (FPTN=ERROR);
      504    18680
      505    18681              %VLP_NAME (FPTN=FID_NAME);
      506    18708
      507    18709        %VLP_ACCT (FPTN=FID_ACCT);
      508    18722
      509    18723        %VLP_PASS (FPTN=FID_PASS);
      510    18736
PL6.E3A0      #001=VMO$MAIL File=VMO$MAIL.:VMB6TSI                               WED 08/20/97 15:19 Page:24
      511    18737        %VLP_SN (FPTN=FID_SN);
      512    18750
      513    18751        %VLP_WSN (FPTN=FID_WSN);
      514    18764
      515    18765    1   DCL FID_ASN UBIN(9) STATIC;
      516    18766
      517    18767    1   DCL FID_RES CHAR(4) STATIC;
      518    18768
      519    18769        %VLR_FID (FPTN=FID_RESULTS,STCLASS=STATIC);
      520    18788
      521    18789        %FPT_FID  (FPTN=CHECK_FID,              /* Used to check a fid */
      522    18790                       RESULTS=FID_RESULTS,
      523    18791                       ACCT=FID_ACCT,
      524    18792                       ASN=FID_ASN,
      525    18793                       NAME=FID_NAME,
      526    18794                       PASS=FID_PASS,
      527    18795                       RES=FID_RES,
      528    18796                       TEXTFID=OPT_FID,
      529    18797                       SN=FID_SN,
      530    18798                       WSN=FID_WSN);
      531    18821
      532    18822        %FPT_OPEN (FPTN=OPEN_NEXT,
      533    18823                       ACCT=FID_ACCT,
      534    18824                       PASS=FID_PASS,
      535    18825                       ASN=FILE,
      536    18826                       DCB=M$WORK,
      537    18827                       FUN=IN,
      538    18828                       NXTF=YES,
      539    18829                       SHARE=NONE,
      540    18830                       TEST=YES);
      541    18939        /***** Name map fpts *****/
      542    18940        %FPT_OPEN (FPTN=OPEN_NAME_MAP,
      543    18941                        ACCT=VM_MAIL_ACCT,
      544    18942                        ACS=DIRECT,
      545    18943                        ASN=FILE,
      546    18944                        CTG=YES,
      547    18945                        DCB=M$NAME,
PL6.E3A0      #001=VMO$MAIL File=VMO$MAIL.:VMB6TSI                               WED 08/20/97 15:19 Page:25
      548    18946                        EXIST=OLDFILE,
      549    18947                        FUN=CREATE,
      550    18948                        NAME=VM_NAME_MAP_NAME,
      551    18949                        ORG=KEYED,
      552    18950                       SHARE=ALL,
      553    18951                       STCLASS=CONSTANT);
      554    19060        %FPT_DELREC (FPTN=DELREC_NAME_MAP,
      555    19061                        DCB=M$NAME,
      556    19062                       KEY=NAME_KEY,
      557    19063                       STCLASS=CONSTANT);
      558    19082
      559    19083
      560    19084        %FPT_WRITE (FPTN=WRITE_NAME_MAP,
      561    19085                        DCB=M$NAME,
      562    19086                        KEY=NAME_KEY);
      563    19117
      564    19118        %FPT_READ (FPTN=READ_NAME_MAP,
      565    19119                      DCB=M$NAME,
      566    19120                      BUF=WORK_STRING.NAME#,
      567    19121                      KEY=NAME_KEY,
      568    19122                      KEYS=YES,
      569    19123                       STCLASS=CONSTANT);
      570    19162
      571    19163        %VLP_NAME (FPTN=NAME_KEY,LEN=20,NAME=' ');
      572    19190
      573    19191        %FPT_CORRES (STCLASS=STATIC);
      574    19205
      575    19206        %FPT_LINK (FPTN=FPT_LINK,
      576    19207                       CMD=LINK_CCBUF);
      577    19225
      578    19226
      579    19227        %VLP_ACCT (FPTN=SYSACCT,ACCT=':SYS');
      580    19240
      581    19241        %FPT_OPEN (FPTN=OPEN_SEND_FILE,
      582    19242                       ACS=DIRECT,
      583    19243                       ASN=FILE,
      584    19244                       DCB=M$WORK,
PL6.E3A0      #001=VMO$MAIL File=VMO$MAIL.:VMB6TSI                               WED 08/20/97 15:19 Page:26
      585    19245                       EXIST=NEWFILE,
      586    19246                       FUN=CREATE,
      587    19247                       NAME=VM_SEND_FILE_NAME,
      588    19248                       ORG=KEYED,
      589    19249                       SCRUB=YES,
      590    19250                       STCLASS=CONSTANT);
      591    19359
      592    19360        %FPT_OPEN (FPTN=OPEN_FORWARD_FILE,
      593    19361                       ACS=SEQUEN,
      594    19362                       ASN=FILE,
      595    19363                       DCB=M$WORK,
      596    19364                       EXIST=NEWFILE,
      597    19365                       FUN=CREATE,
      598    19366                       NAME=VM_FORWARD_FILE_NAME,
      599    19367                       PASS=VM_FORWARD_FILE_PASS,
      600    19368                       ORG=CONSEC,
      601    19369                       SCRUB=YES,
      602    19370                       STCLASS=CONSTANT);
      603    19479        %FPT_OPEN (FPTN=OPEN_FORWARD_ENCL_FILE,
      604    19480                       ACS=DIRECT,
      605    19481                       ASN=FILE,
      606    19482                       DCB=M$ENCL,
      607    19483                       EXIST=NEWFILE,
      608    19484                       FUN=CREATE,
      609    19485                       NAME=VM_FORWARD_ENCL_NAME,
      610    19486                       PASS=VM_FORWARD_FILE_PASS,
      611    19487                       ORG=KEYED,
      612    19488                       SCRUB=YES,
      613    19489                       STCLASS=CONSTANT);
      614    19598        %FPT_OPEN (FPTN=REOPEN_FILE,
      615    19599                       FUN=UPDATE);
      616    19708        %FPT_TIME (FPTN=GET_TIME,
      617    19709                       SOURCE=CLOCK,
      618    19710                       DEST=UTS,
      619    19711                       TSTAMP=WORK_UTS);
      620    19730        /***** Fpts for output stream (M$LO) *****/
      621    19731        %FPT_OPEN (FPTN=OPEN_OUTPUT_STREAM_DEFAULT,
PL6.E3A0      #001=VMO$MAIL File=VMO$MAIL.:VMB6TSI                               WED 08/20/97 15:19 Page:27
      622    19732                       REASSIGN=YES,
      623    19733                       FUN=CREATE,
      624    19734                       EXIST=OLDFILE,
      625    19735                       SCRUB=YES,
      626    19736                       STCLASS=CONSTANT,
      627    19737                       DCB=M$LO);
      628    19846
      629    19847        /***** Fpts for command stream (M$SI) *****/
      630    19848        %FPT_OPEN (FPTN=OPEN_COMMAND_STREAM_DEFAULT,
      631    19849                       REASSIGN=YES,
      632    19850                       FUN=IN,
      633    19851                       ORG=CONSEC,
      634    19852                       ACS=SEQUEN,
      635    19853                       WSN=ERASE,
      636    19854                       SCRUB=YES,
      637    19855                       STCLASS=CONSTANT,
      638    19856                       DCB=M$SI);
      639    19965
      640    19966        %FPT_OPEN (FPTN=OPEN_COMMAND_STREAM,
      641    19967                       REASSIGN=NO,
      642    19968                       FUN=IN,
      643    19969                       ORG=CONSEC,
      644    19970                       ACS=SEQUEN,
      645    19971                       SCRUB=YES,
      646    19972                       DCB=M$CMNDF);
      647    20081
      648    20082        %FPT_OPEN (FPTN=OPEN_ENCL,
      649    20083                       DCB=M$ENCL,
      650    20084                       ORG=CONSEC,
      651    20085                       ASN=FILE);
      652    20194
      653    20195        %FPT_WRITE (FPTN=WRITE_ENCL,
      654    20196                       DCB=M$ENCL);
      655    20227
      656    20228        %FPT_LDEV (FPTN=PRINT_LDEV, STCLASS=CONSTANT,
      657    20229                  STREAMNAME='ALL');
      658    20254
PL6.E3A0      #001=VMO$MAIL File=VMO$MAIL.:VMB6TSI                               WED 08/20/97 15:19 Page:28
      659    20255        %FPT_PRECORD (STCLASS=CONSTANT,
      660    20256                  N=-1,
      661    20257                  DCB=M$MAIL_FILE);
      662    20278        %F_FDS (NAME=F_FDSME,DCB=M$ME,BUF=OUTBUF,VECTR=VECT_ARRAY);
      663    20391              %F_FDS (NAME=SPACE_LO,BUF=OUTBUF,DCB=M$LO,VECTR=VECT_ARRAY,
      664    20392              FMT=VM_BLANK_LINE_FMT,NVECS=0);
      665    20505              %F_FDS (NAME=F_FDSLO,BUF=OUTBUF,DCB=M$LO,VECTR=VECT_ARRAY);
      666    20618
      667    20619        /***** Misc variables *****/
      668    20620    1   DCL VECT_ARRAY (0:6) BIT(72) DALIGNED STATIC;
      669    20621    1   DCL DELETE_ENCL_FLAG BIT(1);
      670    20622        /***** Dcbs *****/
      671    20623    1   DCL M$NAME DCB;
      672    20624    1   DCL M$CMNDF DCB;
      673    20625    1   DCL M$LM DCB;
      674    20626    1   DCL M$EDIT DCB;
      675    20627    1   DCL M$OUT DCB;
      676    20628    1   DCL M$ENCL DCB;
      677    20629        /***** Formats *****/
      678    20630    1   DCL VM_BLANK_LINE_FMT  CHAR(0)         STATIC INIT('%1X');
      679    20631        %VLP_NAME (FPTN=VM_GREETING_FMT, LEN=80, L=80, NAME=' ', STCLASS=STATIC);
      680    20658        %VLP_ERRCODE (FPTN=E_GREETING_FMT,   STCLASS="CONSTANT SYMDEF",
      681    20659                    ERR#=%E$GREETING_FMT,      FCG=VM,MID=O);
      682    20704        /*E*  ERROR:VMO-E$GREETING_FMT-0
      683    20705              MESSAGE:Mail "T here
      684    20706        */
      685    20707              %VLP_NAME (FPTN=VM_FOLDER_HEADER1_FMT, LEN=80, L=80, NAME=' ', STCLASS=STATIC)
             20707                  ;
      686    20734        %VLP_ERRCODE (FPTN=E_FOLDER_HEADER1_FMT, STCLASS="CONSTANT SYMDEF",
      687    20735                    ERR#=%E$FOLDER_HEADER1_FMT,          FCG=VM, MID=O);
      688    20780        /*E*  ERROR:VMO-E$FOLDER_HEADER1_FMT-0
      689    20781              MESSAGE:"15..3U ."A
      690    20782        */
      691    20783              %VLP_NAME (FPTN=VM_FOLDER_HEADER2_FMT, LEN=80, L=80, NAME=' ', STCLASS=STATIC)
             20783                  ;
      692    20810        %VLP_ERRCODE (FPTN=E_FOLDER_HEADER2_FMT, STCLASS="CONSTANT SYMDEF",
      693    20811                    ERR#=%E$FOLDER_HEADER2_FMT,          FCG=VM,MID=O);
PL6.E3A0      #001=VMO$MAIL File=VMO$MAIL.:VMB6TSI                               WED 08/20/97 15:19 Page:29
      694    20856        /*E*  ERROR:VMO-E$FOLDER_HEADER2_FMT-0
      695    20857              MESSAGE:Owner  #Msgs #New Used Gran   Name
      696    20858        */
      697    20859              %VLP_NAME (FPTN=VM_FOLDER_DELETED_FMT, LEN=80, L=80, NAME=' ', STCLASS=STATIC)
             20859                  ;
      698    20886        %VLP_ERRCODE (FPTN=E_FOLDER_DELETED_FMT, STCLASS="CONSTANT SYMDEF",
      699    20887                    ERR#=%E$FOLDER_DELETED_FMT,          FCG=VM,MID=O);
      700    20932        /*E*  ERROR:VMO-E$FOLDER_DELETED_FMT-0
      701    20933              MESSAGE:"D folders deleted
      702    20934        */
      703    20935              %VLP_NAME (FPTN=VM_FOLDER_DISPLAYED_FMT, LEN=80, L=80, NAME=' ', STCLASS=
             20935                  STATIC);
      704    20962        %VLP_ERRCODE(FPTN=E_FOLDER_DISPLAYED_FMT, STCLASS="CONSTANT SYMDEF",
      705    20963                    ERR#=%E$FOLDER_DISPLAYED_FMT,        FCG=VM,MID=O);
      706    21008        /*E*  ERROR:VMO-E$FOLDER_DISPLAYED_FMT-0
      707    21009              MESSAGE:"D folders displayed
      708    21010        */
      709    21011              %VLP_NAME (FPTN=VM_COUNT_FMT, LEN=80, L=80, NAME = ' ', STCLASS=STATIC);
      710    21038        %VLP_ERRCODE (FPTN=E_COUNT_FMT, STCLASS="CONSTANT SYMDEF",
      711    21039                    ERR#=%E$COUNT_FMT,                   FCG=VM,MID=O);
      712    21084        /*E*  ERROR:VMO-E$COUNT_FMT-0
      713    21085              MESSAGE:"D messages found
      714    21086        */
      715    21087              %VLP_NAME (FPTN=VM_NO_MESSAGE_FMT, LEN=80, L=80, NAME=' ', STCLASS=STATIC);
      716    21114        %VLP_ERRCODE (FPTN=E_NO_MESSAGE_FMT, STCLASS="CONSTANT SYMDEF",
      717    21115                    ERR#=%E$NO_MESSAGE_FMT,              FCG=VM,MID=O);
      718    21160        /*E*  ERROR:VMO-E$NO_MESSAGE_FMT-0
      719    21161              MESSAGE:None found
      720    21162        */
      721    21163              %VLP_NAME (FPTN=VM_TIME_FMT, LEN=80, L=80, NAME=' ', STCLASS=STATIC);
      722    21190        %VLP_ERRCODE (FPTN=E_TIME_FMT, STCLASS="CONSTANT SYMDEF",
      723    21191                    ERR#=%E$TIME_FMT,                    FCG=VM,MID=O);
      724    21236        /*E*  ERROR:VMO-E$TIME_FMT-0
      725    21237              MESSAGE:"15..3U
      726    21238        */
      727    21239              %VLP_NAME (FPTN=VM_EMPTY_FOLDER_FMT, LEN=80, L=80, NAME=' ', STCLASS=STATIC);
      728    21266        %VLP_ERRCODE (FPTN=E_EMPTY_FOLDER_FMT, STCLASS="CONSTANT SYMDEF",
PL6.E3A0      #001=VMO$MAIL File=VMO$MAIL.:VMB6TSI                               WED 08/20/97 15:19 Page:30
      729    21267                    ERR#=%E$EMPTY_FOLDER_FMT,            FCG=VM,MID=O);
      730    21312        /*E*  ERROR:VMO-E$EMPTY_FOLDER_FMT-0,                FCG=VM,MID=O);
      731    21313              MESSAGE:Folder "A is empty
      732    21314        */
      733    21315              %VLP_NAME (FPTN=VM_NO_NEW_MESSAGE_FMT, LEN=80, L=80, NAME=' ', STCLASS=STATIC)
             21315                  ;
      734    21342        %VLP_ERRCODE (FPTN=E_NO_NEW_MESSAGE_FMT, STCLASS="CONSTANT SYMDEF",
      735    21343                    ERR#=%E$NO_NEW_MESSAGE_FMT,           FCG=VM,MID=O);
      736    21388        /*E*  ERROR:VMO-E$NO_NEW_MESSAGE_FMT-0,
      737    21389              MESSAGE:No NEW messages found
      738    21390        */
      739    21391              %VLP_NAME (FPTN=VM_CREATE_MSG_FMT, LEN=80, L=80, NAME=' ', STCLASS=STATIC);
      740    21418        %VLP_ERRCODE (FPTN=E_CREATE_MSG_FMT,   STCLASS="CONSTANT SYMDEF",
      741    21419                    ERR#=%E$CREATE_MSG_FMT,              FCG=VM,MID=O);
      742    21464        /*E*  ERROR:VMO-E$CREATE_MSG_FMT-0
      743    21465              MESSAGE:Folder %U1 created.
      744    21466        */
      745    21467              %VLP_ERRCODE (FPTN=E_USING_MSG_FMT, STCLASS="CONSTANT SYMDEF",
      746    21468              ERR#=%E$USING_MSG_FMT,                 FCG=VM,MID=O);
      747    21513        /*E*  ERROR:VMO-E$USING_MSG_FMT-0
      748    21514              MESSAGE:Using %U1
      749    21515        */
      750    21516              %VLP_NAME (FPTN=VM_MSGS_DELETED_FMT, LEN=80, L=80, NAME=' ', STCLASS=STATIC);
      751    21543        %VLP_ERRCODE (FPTN=E_MSGS_DELETED_FMT, STCLASS="CONSTANT SYMDEF",
      752    21544                    ERR#=%E$MSGS_DELETED_FMT,             FCG=VM,MID=O);
      753    21589        /*E*  ERROR:VMO-E$MSGS_DELETED_FMT-0,
      754    21590              MESSAGE:"D messages flagged for deletion
      755    21591        */
      756    21592              %VLP_NAME (FPTN=VM_MSGS_UNDELETED_FMT, LEN=80, L=80, NAME=' ', STCLASS=STATIC)
             21592                  ;
      757    21619        %VLP_ERRCODE (FPTN=E_MSGS_UNDELETED_FMT, STCLASS="CONSTANT SYMDEF",
      758    21620                    ERR#=%E$MSGS_UNDELETED_FMT,           FCG=VM,MID=O);
      759    21665        /*E*  ERROR:VMO-E$MSGS_UNDELETED_FMT-0
      760    21666              MESSAGE:"D messages no longer flagged for deletion
      761    21667        */
      762    21668              %VLP_NAME (FPTN=VM_MSGS_MARKED_FMT, LEN=80, L=80, NAME=' ', STCLASS=STATIC);
      763    21695        %VLP_ERRCODE (FPTN=E_MSGS_MARKED_FMT,  STCLASS="CONSTANT SYMDEF",
PL6.E3A0      #001=VMO$MAIL File=VMO$MAIL.:VMB6TSI                               WED 08/20/97 15:19 Page:31
      764    21696                    ERR#=%E$MSGS_MARKED_FMT,             FCG=VM,MID=O);
      765    21741        /*E*  ERROR:VMO-E$MSGS_MARKED_FMT-0
      766    21742              MESSAGE:"D messages marked
      767    21743        */
      768    21744              %VLP_NAME (FPTN=VM_MSGS_UNMARKED_FMT, LEN=80, L=80, NAME=' ', STCLASS=STATIC);
      769    21771        %VLP_ERRCODE (FPTN=E_MSGS_UNMARKED_FMT, STCLASS="CONSTANT SYMDEF",
      770    21772                    ERR#=%E$MSGS_UNMARKED_FMT,           FCG=VM,MID=O);
      771    21817        /*E*  ERROR:VMO-E$MSGS_UNMARKED_FMT-0
      772    21818              MESSAGE:"D messages no longer marked
      773    21819        */
      774    21820              %VLP_NAME (FPTN=VM_MSGS_COPIED_FMT, LEN=80, L=80, NAME=' ', STCLASS=STATIC);
      775    21847        %VLP_ERRCODE (FPTN=E_MSGS_COPIED_FMT,  STCLASS="CONSTANT SYMDEF",
      776    21848                       ERR#=%E$MSGS_COPIED_FMT,          FCG=VM,MID=O);
      777    21893        /*E*  ERROR:VMO-E$MSGS_COPIED_FMT-0
      778    21894              MESSAGE:"D messages copied
      779    21895        */
      780    21896              %VLP_NAME (FPTN=VM_MSGS_DISPLAYED_FMT, LEN=80, L=80, NAME=' ', STCLASS=STATIC)
             21896                  ;
      781    21923        %VLP_ERRCODE (FPTN=E_MSGS_DISPLAYED_FMT, STCLASS="CONSTANT SYMDEF",
      782    21924                    ERR#=%E$MSGS_DISPLAYED_FMT,             FCG=VM,MID=O);
      783    21969        /*E*  ERROR:VMO-E$MSGS_DISPLAYED_FMT-0
      784    21970              MESSAGE:"D messages displayed
      785    21971        */
      786    21972              %VLP_NAME (FPTN=VM_MSGS_LISTED_FMT, LEN=80, L=80, NAME=' ', STCLASS=STATIC);
      787    21999        %VLP_ERRCODE (FPTN=E_MSGS_LISTED_FMT,  STCLASS="CONSTANT SYMDEF",
      788    22000                    ERR#=%E$MSGS_LISTED_FMT,             FCG=VM,MID=O);
      789    22045        /*E*  ERROR:VMO-E$MSGS_LISTED_FMT-0
      790    22046              MESSAGE:"D messages listed
      791    22047        */
      792    22048              %VLP_NAME (FPTN=VM_LISTS_DELETED_FMT, LEN=80, L=80, NAME=' ', STCLASS=STATIC);
      793    22075        %VLP_ERRCODE (FPTN=E_LISTS_DELETED_FMT, STCLASS="CONSTANT SYMDEF",
      794    22076                    ERR#=%E$LISTS_DELETED_FMT,           FCG=VM,MID=O);
      795    22121        /*E*  ERROR:VMO-E$LISTS_DELETED_FMT-0
      796    22122              MESSAGE:"D list definitions deleted
      797    22123        */
      798    22124              %VLP_NAME (FPTN=VM_LISTS_DISPLAYED_FMT, LEN=80, L=80, NAME= ' ',STCLASS=STATIC
             22124                  );
PL6.E3A0      #001=VMO$MAIL File=VMO$MAIL.:VMB6TSI                               WED 08/20/97 15:19 Page:32
      799    22151        %VLP_ERRCODE (FPTN=E_LISTS_DISPLAYED_FMT, STCLASS="CONSTANT SYMDEF",
      800    22152                    ERR#=%E$LISTS_DISPLAYED_FMT,         FCG=VM,MID=O);
      801    22197        /*E*  ERROR:VMO-E$LISTS_DISPLAYED_FMT-0
      802    22198              MESSAGE:"D list definitions displayed
      803    22199        */
      804    22200              %VLP_NAME (FPTN=VM_USERS_DELETED_FMT, LEN=80, L=80, NAME=' ',STCLASS=STATIC);
      805    22227        %VLP_ERRCODE (FPTN=E_USERS_DELETED_FMT, STCLASS="CONSTANT SYMDEF",
      806    22228                    ERR#=%E$USERS_DELETED_FMT,           FCG=VM,MID=O);
      807    22273        /*E*  ERROR:VMO-E$USERS_DELETED_FMT-0
      808    22274              MESSAGE:"D user definitions deleted
      809    22275        */
      810    22276              %VLP_NAME (FPTN=VM_USERS_DISPLAYED_FMT, LEN=80, L=80, NAME=' ', STCLASS=STATIC
             22276                  );
      811    22303        %VLP_ERRCODE (FPTN=E_USERS_DISPLAYED_FMT, STCLASS="CONSTANT SYMDEF",
      812    22304                    ERR#=%E$USERS_DISPLAYED_FMT,         FCG=VM,MID=O);
      813    22349        /*E*  ERROR:VMO-E$USERS_DISPLAYED_FMT-0
      814    22350              MESSAGE:"D user definitions displayed
      815    22351        */
      816    22352              %VLP_NAME (FPTN=VM_STATUS_FOLDER_FMT, LEN=80, L=80, NAME=' ', STCLASS=STATIC);
      817    22379        %VLP_ERRCODE (FPTN=E_STATUS_FOLDER_FMT, STCLASS="CONSTANT SYMDEF",
      818    22380                    ERR#=%E$STATUS_FOLDER_FMT,           FCG=VM,MID=O);
      819    22425        /*E*  ERROR:VMO-E$STATUS_FOLDER_FMT-0
      820    22426              MESSAGE:"5XCurrent folder is "A
      821    22427        */
      822    22428              %VLP_NAME (FPTN=VM_STATUS_SCONTEXT_FMT, LEN=80, L=80, NAME=' ', STCLASS=STATIC
             22428                  );
      823    22455        %VLP_ERRCODE (FPTN=E_STATUS_SCONTEXT_FMT, STCLASS="CONSTANT SYMDEF",
      824    22456                    ERR#=%E$STATUS_SCONTEXT_FMT,         FCG=VM,MID=O);
      825    22501        /*E*  ERROR:VMO-E$STATUS_SCONTEXT_FMT-0
      826    22502              MESSAGE:"5XSelected Context is: "A
      827    22503        */
      828    22504              %VLP_NAME (FPTN=VM_STATUS_CCONTEXT_FMT, LEN=80, L=80, NAME=' ', STCLASS=STATIC
             22504                  );
      829    22531        %VLP_ERRCODE (FPTN=E_STATUS_CCONTEXT_FMT, STCLASS="CONSTANT SYMDEF",
      830    22532                    ERR#=%E$STATUS_CCONTEXT_FMT,         FCG=VM,MID=O);
      831    22577        /*E*  ERROR:VMO-E$STATUS_CCONTEXT_FMT-0
      832    22578              MESSAGE:"5XCurrent Context is: "A
PL6.E3A0      #001=VMO$MAIL File=VMO$MAIL.:VMB6TSI                               WED 08/20/97 15:19 Page:33
      833    22579        */
      834    22580              %VLP_NAME (FPTN=VM_STATUS_POSITION_FMT, LEN=80, L=80, NAME = ' ', STCLASS=
             22580                  STATIC);
      835    22607        %VLP_ERRCODE (FPTN=E_STATUS_POSITION_FMT, STCLASS="CONSTANT SYMDEF",
      836    22608                    ERR#=%E$STATUS_POSITION_FMT,         FCG=VM,MID=O);
      837    22653        /*E*  ERROR:VMO-E$STATUS_POSITION_FMT-0
      838    22654              MESSAGE:"5XMessage within Selected Context is: "D
      839    22655        */
      840    22656              %VLP_NAME (FPTN=VM_STATUS_POSITION_OUTSIDE_FMT, LEN=80, L=80, NAME=' ',
             22656                  STCLASS=STATIC);
      841    22683        %VLP_ERRCODE (FPTN=E_STATUS_POSITION_OUTSIDE_FMT, STCLASS="CONSTANT SYMDEF",
      842    22684                    ERR#=%E$STATUS_POSITION_OUTSIDE_FMT, FCG=VM,MID=O);
      843    22729        /*E*  ERROR:VMO-E$STATUS_POSITION_OUTSIDE_FMT-0
      844    22730              MESSAGE:"5XMessage position within Selected Context is: Outside Selected Range
      845    22731        */
      846    22732              %VLP_NAME (FPTN=VM_STATUS_DMSGS_FMT, LEN=80, L=80, NAME=' ', STCLASS=STATIC);
      847    22759        %VLP_ERRCODE (FPTN=E_STATUS_DMSGS_FMT, STCLASS="CONSTANT SYMDEF",
      848    22760                    ERR#=%E$STATUS_DMSGS_FMT,            FCG=VM,MID=O);
      849    22805        /*E*  ERROR:VMO-E$STATUS_DMSGS_FMT-0
      850    22806              MESSAGE:"5XNumber of messages  marked for deletion is "D
      851    22807        */
      852    22808              %VLP_NAME (FPTN=VM_STATUS_NMSGS_FMT, LEN=80, L=80, NAME=' ', STCLASS=STATIC);
      853    22835        %VLP_ERRCODE (FPTN=E_STATUS_NMSGS_FMT, STCLASS="CONSTANT SYMDEF",
      854    22836                    ERR#=%E$STATUS_NMSGS_FMT,            FCG=VM,MID=O);
      855    22881        /*E*  ERROR:VMO-E$STATUS_NMSGS_FMT-0
      856    22882              MESSAGE:"5XNumber of new messages is "D
      857    22883        */
      858    22884              %VLP_NAME (FPTN=VM_STATUS_TMSGS_FMT, LEN=80, L=80, NAME=' ', STCLASS=STATIC);
      859    22911        %VLP_ERRCODE (FPTN=E_STATUS_TMSGS_FMT, STCLASS="CONSTANT SYMDEF",
      860    22912                    ERR#=%E$STATUS_TMSGS_FMT,            FCG=VM,MID=O);
      861    22957        /*E*  ERROR:VMO-E$STATUS_TMSGS_FMT-0
      862    22958              MESSAGE:"5XTotal number of messages is "D
      863    22959        */
      864    22960              %VLP_NAME (FPTN=VM_STATUS_HMSGS_FMT, LEN=80, L=80, NAME=' ', STCLASS=STATIC);
      865    22987        %VLP_ERRCODE (FPTN=E_STATUS_HMSGS_FMT, STCLASS="CONSTANT SYMDEF",
      866    22988                    ERR#=%E$STATUS_HMSGS_FMT,            FCG=VM,MID=O);
      867    23033        /*E*  ERROR:VMO-E$STATUS_HMSGS_FMT-0
PL6.E3A0      #001=VMO$MAIL File=VMO$MAIL.:VMB6TSI                               WED 08/20/97 15:19 Page:34
      868    23034              MESSAGE:"5XHighest message number is "D
      869    23035        */
      870    23036              %VLP_NAME (FPTN=VM_USE_FULL_FMT, LEN=80, L=80, NAME=' ', STCLASS=STATIC);
      871    23063        %VLP_ERRCODE (FPTN=E_USE_FULL_FMT,     STCLASS="CONSTANT SYMDEF",
      872    23064                    ERR#=%E$USE_FULL_FMT,                FCG=VM,MID=O);
      873    23109        /*E*  ERROR:VMO-E$USE_FULL_FMT-0
      874    23110              MESSAGE:Folder "A is full
      875    23111        */
      876    23112              %VLP_NAME (FPTN=VM_USE_LOST_FMT, LEN=80, L=80, NAME=' ', STCLASS=STATIC);
      877    23139        %VLP_ERRCODE (FPTN=E_USE_LOST_FMT,     STCLASS="CONSTANT SYMDEF",
      878    23140                    ERR#=%E$USE_LOST_FMT,                FCG=VM,MID=O);
      879    23185        /*E*  ERROR:VMO-E$USE_LOST_FMT-0
      880    23186              MESSAGE:Warning: "D messages lost due to insufficient disk space.
      881    23187        */
      882    23188              %VLP_NAME (FPTN=VM_NEW_MESSAGE_FMT, LEN=80, L=80, NAME=' ', STCLASS=STATIC);
      883    23215        %VLP_ERRCODE (FPTN=E_NEW_MESSAGE_FMT,  STCLASS="CONSTANT SYMDEF",
      884    23216                    ERR#=%E$NEW_MESSAGE_FMT,             FCG=VM,MID=O);
      885    23261        /*E*  ERROR:VMO-E$NEW_MESSAGE_FMT-0
      886    23262              MESSAGE:A new message has been received.
      887    23263        */
      888    23264
      889    23265              %VLP_NAME (FPTN=USER_NAME,LEN=256,NAME=' ',STCLASS=STATIC);
      890    23292        %VLP_NAME (FPTN=VM_DETACH_OK_FMT, LEN=80, L=80, NAME=' ', STCLASS=STATIC);
      891    23319        %VLP_ERRCODE (FPTN=E_DETACH_OK_FMT,STCLASS="CONSTANT SYMDEF",
      892    23320                      ERR#=%E$DETACH_OK_FMT,        FCG="VM",MID="O");
      893    23365        /*E* ERROR:VMO-E$DETACH_OK_FMT
      894    23366             MESSAGE:Enclosure "D detached.
      895    23367        */
      896    23368              %VLP_NAME (FPTN=VM_DETACH_DELETE_OK_FMT, LEN=80, L=80, NAME=' ', STCLASS=
             23368                  STATIC);
      897    23395        %VLP_ERRCODE (FPTN=E_DETACH_DELETE_OK_FMT,STCLASS="CONSTANT SYMDEF",
      898    23396                      ERR#=%E$DETACH_DELETE_OK_FMT,        FCG="VM",MID="O");
      899    23441        /*E* ERROR:VMO-E$DETACH_DELETE_OK_FMT
      900    23442             MESSAGE:Enclosure "D detached and deleted.
      901    23443        */
      902    23444        /***** Embedded commands *****/
      903    23445              %VLP_NAME (FPTN=VM_END_NOUPDATE_CMD, LEN=15, L=15, NAME=' ', STCLASS=STATIC);
PL6.E3A0      #001=VMO$MAIL File=VMO$MAIL.:VMB6TSI                               WED 08/20/97 15:19 Page:35
      904    23472        %VLP_ERRCODE (FPTN=E_END_NOUPDATE_CMD, STCLASS="CONSTANT SYMDEF",
      905    23473                    ERR#=%E$END_NOUPDATE_CMD,            FCG=VM,MID=O);
      906    23518        /*E*  ERROR:VMO-E$END_NOUPDATE_CMD-0
      907    23519              MESSAGE:END NOUPDATE
      908    23520        */
      909    23521              %VLP_NAME (FPTN=VM_NEXT_CMD, LEN=15, L=15, NAME=' ', STCLASS=STATIC);
      910    23548        %VLP_ERRCODE (FPTN=E_NEXT_CMD,         STCLASS="CONSTANT SYMDEF",
      911    23549                    ERR#=%E$NEXT_CMD,                    FCG=VM,MID=O);
      912    23594        /*E*  ERROR:VMO-E$NEXT_CMD-0
      913    23595              MESSAGE:NEXT
      914    23596        */
      915    23597              %VLP_NAME (FPTN=VM_DI_NEXT_CMD, LEN=15, L=15, NAME=' ', STCLASS=STATIC);
      916    23624        %VLP_ERRCODE (FPTN=E_DI_NEXT_CMD,      STCLASS="CONSTANT SYMDEF",
      917    23625                    ERR#=%E$DI_NEXT_CMD,                 FCG=VM,MID=O);
      918    23670        /*E*  ERROR:VMO-E$DI_NEXT_CMD-0
      919    23671              MESSAGE:DI NEXT
      920    23672        */
      921    23673              %VLP_NAME (FPTN=VM_LIST_NEXT_CMD, LEN=15, L=15, NAME=' ', STCLASS=STATIC);
      922    23700        %VLP_ERRCODE (FPTN=E_LIST_NEXT_CMD,    STCLASS="CONSTANT SYMDEF",
      923    23701                    ERR#=%E$LIST_NEXT_CMD,               FCG=VM,MID=O);
      924    23746        /*E*  ERROR:VMO-E$LIST_NEXT_CMD-0
      925    23747              MESSAGE:LIST NEXT
      926    23748        */
      927    23749              %VLP_NAME (FPTN=VM_PREVIOUS_CMD, LEN=15, L=15, NAME=' ', STCLASS=STATIC);
      928    23776        %VLP_ERRCODE (FPTN=E_PREVIOUS_CMD,     STCLASS="CONSTANT SYMDEF",
      929    23777                    ERR#=%E$PREVIOUS_CMD,                FCG=VM,MID=O);
      930    23822        /*E*  ERROR:VMO-E$PREVIOUS_CMD-0
      931    23823              MESSAGE:PREVIOUS
      932    23824        */
      933    23825              %VLP_NAME (FPTN=VM_DI_PREVIOUS_CMD, LEN=15, L=15, NAME=' ', STCLASS=STATIC);
      934    23852        %VLP_ERRCODE (FPTN=E_DI_PREVIOUS_CMD,  STCLASS="CONSTANT SYMDEF",
      935    23853                    ERR#=%E$DI_PREVIOUS_CMD,            FCG=VM,MID=O);
      936    23898        /*E*  ERROR:VMO-E$DI_PREVIOUS_CMD-0
      937    23899              MESSAGE:DI PREVIOUS
      938    23900        */
      939    23901              %VLP_NAME (FPTN=VM_LIST_PREVIOUS_CMD, LEN=15, L=15, NAME=' ', STCLASS=STATIC);
      940    23928        %VLP_ERRCODE (FPTN=E_LIST_PREVIOUS_CMD, STCLASS="CONSTANT SYMDEF",
PL6.E3A0      #001=VMO$MAIL File=VMO$MAIL.:VMB6TSI                               WED 08/20/97 15:19 Page:36
      941    23929                    ERR#=%E$LIST_PREVIOUS_CMD,           FCG=VM,MID=O);
      942    23974        /*E*  ERROR:VMO-E$LIST_PREVIOUS_CMD-0
      943    23975              MESSAGE:LIST PREVIOUS
      944    23976        */
      945    23977              %VLP_NAME (FPTN=VM_DI_FIRST_CMD, LEN=15, L=15, NAME=' ', STCLASS=STATIC);
      946    24004        %VLP_ERRCODE (FPTN=E_DI_FIRST_CMD,     STCLASS="CONSTANT SYMDEF",
      947    24005                    ERR#=%E$DI_FIRST_CMD,                FCG=VM,MID=O);
      948    24050        /*E*  ERROR:VMO-E$DI_FIRST_CMD-0
      949    24051              MESSAGE:DI FIRST
      950    24052        */
      951    24053              %VLP_NAME (FPTN=VM_LIST_FIRST_CMD, LEN=15, L=15, NAME=' ', STCLASS=STATIC);
      952    24080        %VLP_ERRCODE (FPTN=E_LIST_FIRST_CMD,   STCLASS="CONSTANT SYMDEF",
      953    24081                    ERR#=%E$LIST_FIRST_CMD,              FCG=VM,MID=O);
      954    24126        /*E*  ERROR:VMO-E$LIST_FIRST_CMD-0
      955    24127              MESSAGE:LIST FIRST
      956    24128        */
      957    24129              %VLP_NAME (FPTN=VM_DI_THIS_CMD, LEN=15, L=15, NAME=' ', STCLASS=STATIC);
      958    24156        %VLP_ERRCODE (FPTN=E_DI_THIS_CMD,      STCLASS="CONSTANT SYMDEF",
      959    24157                    ERR#=%E$DI_THIS_CMD,                 FCG=VM,MID=O);
      960    24202        /*E*  ERROR:VMO-E$DI_THIS_CMD-0
      961    24203              MESSAGE:DI THIS
      962    24204        */
      963    24205              %VLP_NAME (FPTN=VM_LIST_THIS_CMD, LEN=15, L=15, NAME=' ', STCLASS=STATIC);
      964    24232        %VLP_ERRCODE (FPTN=E_LIST_THIS_CMD,    STCLASS="CONSTANT SYMDEF",
      965    24233                    ERR#=%E$LIST_THIS_CMD,               FCG=VM,MID=O);
      966    24278        /*E*  ERROR:VMO-E$LIST_THIS_CMD-0
      967    24279              MESSAGE:LIST THIS
      968    24280        */
      969    24281              %VLP_NAME (FPTN=VM_DI_LAST_CMD, LEN=15, L=15, NAME=' ', STCLASS=STATIC);
      970    24308        %VLP_ERRCODE (FPTN=E_DI_LAST_CMD,    STCLASS="CONSTANT SYMDEF",
      971    24309                    ERR#=%E$DI_LAST_CMD,               FCG=VM,MID=O);
      972    24354        /*E*  ERROR:VMO-E$DI_LAST_CMD-0,
      973    24355              MESSAGE:DI LAST
      974    24356        */
      975    24357              %VLP_NAME (FPTN=VM_LIST_LAST_CMD, LEN=15, L=15, NAME=' ', STCLASS=STATIC);
      976    24384        %VLP_ERRCODE (FPTN=E_LIST_LAST_CMD,    STCLASS="CONSTANT SYMDEF",
      977    24385                    ERR#=%E$LIST_LAST_CMD,               FCG=VM,MID=O);
PL6.E3A0      #001=VMO$MAIL File=VMO$MAIL.:VMB6TSI                               WED 08/20/97 15:19 Page:37
      978    24430        /*E*  ERROR:VMO-E$LIST_LAST_CMD-0
      979    24431              MESSAGE:LIST LAST
      980    24432        */
      981    24433              %VLP_NAME (FPTN=VM_DI_REST_CMD, LEN=15, L=15, NAME=' ', STCLASS=STATIC);
      982    24460        %VLP_ERRCODE (FPTN=E_DI_REST_CMD,      STCLASS="CONSTANT SYMDEF",
      983    24461                    ERR#=%E$DI_REST_CMD,                 FCG=VM,MID=O);
      984    24506        /*E*  ERROR:VMO-E$DI_REST_CMD-0
      985    24507              MESSAGE:DI REST
      986    24508        */
      987    24509              %VLP_NAME (FPTN=VM_LIST_REST_CMD, LEN=15, L=15, NAME=' ', STCLASS=STATIC);
      988    24536        %VLP_ERRCODE (FPTN=E_LIST_REST_CMD,    STCLASS="CONSTANT SYMDEF",
      989    24537                    ERR#=%E$LIST_REST_CMD,               FCG=VM,MID=O);
      990    24582        /*E*  ERROR:VMO-E$LIST_REST_CMD-0
      991    24583              MESSAGE:LIST REST
      992    24584        */
      993    24585              %VLP_NAME (FPTN=VM_END_CMD, LEN=15, L=15, NAME=' ', STCLASS=STATIC);
      994    24612        %VLP_ERRCODE (FPTN=E_END_CMD,          STCLASS="CONSTANT SYMDEF",
      995    24613                    ERR#=%E$END_CMD,                     FCG=VM,MID=O);
      996    24658        /*E*  ERROR:VMO-E$END_CMD-0
      997    24659              MESSAGE:END
      998    24660        */
      999    24661              %VLP_NAME (FPTN=VM_SEND_ANSWER, LEN=80, L=80, NAME=' ', STCLASS=STATIC);
     1000    24688        %VLP_ERRCODE (FPTN=E_SEND_ANSWER,      STCLASS="CONSTANT SYMDEF",
     1001    24689                    ERR#=%E$SEND_ANSWER,                 FCG=VM,MID=O);
     1002    24734        /*E*  ERROR:VMO-E$SEND_ANSWER-0
     1003    24735              MESSAGE:ANSWER
     1004    24736        */
     1005    24737              %VLP_NAME (FPTN=VM_SEND_ACKNOWLEDGE, LEN=80, L=80, NAME=' ', STCLASS=STATIC);
     1006    24764        %VLP_ERRCODE (FPTN=E_SEND_ACKNOWLEDGE, STCLASS="CONSTANT SYMDEF",
     1007    24765                    ERR#=%E$SEND_ACKNOWLEDGE,            FCG=VM,MID=O);
     1008    24810        /*E*  ERROR:VMO-E$SEND_ACKNOWLEDGE-0
     1009    24811              MESSAGE:ACKNOWLEDGE
     1010    24812        */
     1011    24813              %VLP_NAME (FPTN=VM_SEND_FORWARD, LEN=80, L=80, NAME=' ', STCLASS=STATIC);
     1012    24840        %VLP_ERRCODE (FPTN=E_SEND_FORWARD,     STCLASS="CONSTANT SYMDEF",
     1013    24841                    ERR#=%E$SEND_FORWARD,                FCG=VM,MID=O);
     1014    24886        /*E*  ERROR:VMO-E$SEND_FORWARD-0
PL6.E3A0      #001=VMO$MAIL File=VMO$MAIL.:VMB6TSI                               WED 08/20/97 15:19 Page:38
     1015    24887              MESSAGE:FORWARD
     1016    24888        */
     1017    24889              %VLP_NAME (FPTN=VM_SEND_FORWARD_ENCL, LEN=80, L=80, NAME=' ', STCLASS=STATIC);
     1018    24916        %VLP_ERRCODE (FPTN=E_SEND_FORWARD_ENCL,    STCLASS="CONSTANT SYMDEF",
     1019    24917                    ERR#=%E$SEND_FORWARD_ENCL,            FCG=VM,MID=O);
     1020    24962        /*E*   ERROR:VMO-E$SEND_FORWARD_ENCL-0
     1021    24963               MESSAGE:FORWARD ENCLOSURE
     1022    24964        */
     1023    24965              %VLP_NAME (FPTN=VM_SEND_MAIL, LEN=80, L=80, NAME=' ', STCLASS=STATIC);
     1024    24992        %VLP_ERRCODE (FPTN=E_SEND_MAIL,        STCLASS="CONSTANT SYMDEF",
     1025    24993                    ERR#=%E$SEND_MAIL,                   FCG=VM,MID=O);
     1026    25038        /*E*  ERROR:VMO-E$SEND_MAIL-0
     1027    25039              MESSAGE: (MAIL=
     1028    25040        */
     1029    25041              %VLP_NAME (FPTN=VM_SEND_NAME, STCLASS="STATIC SYMDEF", STCLASS=STATIC);
     1030    25068        %VLP_ERRCODE (FPTN=E_SEND_NAME,        STCLASS="CONSTANT SYMDEF",
     1031    25069                    ERR#=%E$SEND_NAME,                   FCG=VM,MID=O);
     1032    25114        /*E*  ERROR:VMO-E$SEND_NAME-0
     1033    25115              MESSAGE:SEND
     1034    25116        */
     1035    25117              %VLP_NAME (FPTN=VM_RESEND_NAME, STCLASS="STATIC SYMDEF", STCLASS=STATIC);
     1036    25144        %VLP_ERRCODE (FPTN=E_RESEND_NAME,        STCLASS="CONSTANT SYMDEF",
     1037    25145                    ERR#=%E$RESEND_NAME,                   FCG=VM,MID=O);
     1038    25190        /*E*  ERROR:VMO-E$RESEND_NAME-0
     1039    25191              MESSAGE:RESEND
     1040    25192        */
     1041    25193              %VLP_NAME (FPTN=VM_MAIL_SETUP, LEN=255, L=255, NAME=' ', STCLASS=STATIC);
     1042    25220        %VLP_ERRCODE (FPTN=E_MAIL_SETUP,       STCLASS="CONSTANT SYMDEF",
     1043    25221                    ERR#=%E$MAIL_SETUP,                  FCG=VM,MID=O);
     1044    25266        /*E*  ERROR:VMO-E$MAIL_SETUP-0
     1045    25267              MESSAGE:LIST NEW
     1046    25268        */
     1047    25269        /***** Error codes *****/
     1048    25270              %VLP_ERRCODE (FPTN=E_LISTEXISTS,FCG="VM",MID="O",
     1049    25271              ERR#=%E$LISTEXISTS,STCLASS=CONSTANT);
     1050    25316              %VLP_ERRCODE (FPTN=E_USEREXISTS,FCG="VM",MID="O",
     1051    25317              ERR#=%E$USEREXISTS,STCLASS=CONSTANT);
PL6.E3A0      #001=VMO$MAIL File=VMO$MAIL.:VMB6TSI                               WED 08/20/97 15:19 Page:39
     1052    25362              %VLP_ERRCODE (FPTN=E_NOTMCENTRAL,FCG="VM",MID="O",
     1053    25363              ERR#=%E$NOTMCENTRAL,STCLASS=CONSTANT);
     1054    25408              %VLP_ERRCODE (FPTN=E_FOLDERBUSY,FCG="VM",MID="O",
     1055    25409              ERR#=%E$FOLDERBUSY,STCLASS=CONSTANT);
     1056    25454        /*E*    ERROR: VMO-E$FOLDERBUSY-0
     1057    25455                MESSAGE: Folder %U1 is busy. Try again later.
     1058    25456        */
     1059    25457              %VLP_ERRCODE (FPTN=E_FOLDEROLD,FCG="VM",MID="O",
     1060    25458              ERR#=%E$FOLDEROLD,STCLASS=CONSTANT);
     1061    25503        /*E* ERROR: VMO-E$FOLDEROLD-0
     1062    25504             MESSAGE: Error encountered trying to use the %FN folder.
     1063    25505             MESSAGE1: This may not be a folder or it may be a pre-A00 folder that
     1064    25506                     is incompatible with the current version of MAIL. Delete or rename
     1065    25507                     the %FN file and recreate the folder using MAIL.
     1066    25508        */
     1067    25509              %VLP_ERRCODE (FPTN=E_NAMENTALLOWED,FCG="VM",MID="O",
     1068    25510              ERR#=%E$NAMENTALLOWED,STCLASS=CONSTANT);
     1069    25555        /*E*    ERROR: VMO-E$NAMENTALLOWED-0
     1070    25556                MESSAGE: Names are not allowed here.
     1071    25557        */
     1072    25558              %VLP_ERRCODE (FPTN=E_CRFERR,FCG="VM",MID="O",
     1073    25559              ERR#=%E$CRFERR,STCLASS=CONSTANT);
     1074    25604        /*E*    ERROR: VMO-E$CRFERR-0
     1075    25605                MESSAGE: Error encountered trying to create folder.
     1076    25606        */
     1077    25607              %VLP_ERRCODE (FPTN=E_DELFERR,FCG="VM",MID="O",
     1078    25608              ERR#=%E$DELFERR,STCLASS=CONSTANT);
     1079    25653        /*E*    ERROR: VMO-E$DELFERR-0
     1080    25654                MESSAGE: Error encountered trying to delete folder.
     1081    25655        */
     1082    25656              %VLP_ERRCODE (FPTN=E_NOTALLOW,FCG="VM",MID="O",
     1083    25657              ERR#=%E$NOTALLOW,STCLASS=CONSTANT);
     1084    25702              %VLP_ERRCODE (FPTN=E_UNDEFENTRY,FCG="VM",MID="O",
     1085    25703              ERR#=%E$UNDEFENTRY,STCLASS=CONSTANT);
     1086    25748        /*E* ERROR: VMO-E$UNDEFENTRY-0
     1087    25749             MESSAGE: That name is undefined.
     1088    25750        */
PL6.E3A0      #001=VMO$MAIL File=VMO$MAIL.:VMB6TSI                               WED 08/20/97 15:19 Page:40
     1089    25751              %VLP_ERRCODE (FPTN=E_NMENTRYEXISTS,FCG="VM",MID="O",
     1090    25752              ERR#=%E$NMENTRYEXISTS,STCLASS=CONSTANT);
     1091    25797        /*E* ERROR: VMO-E$NMENTRYEXISTS-0
     1092    25798             MESSAGE: User map entry %U1 points to user %U2.
     1093    25799        */
     1094    25800              %VLP_ERRCODE (FPTN=E_BLANKUSER,FCG="VM",MID="O",
     1095    25801              ERR#=%E$BLANKUSER,STCLASS=CONSTANT);
     1096    25846        /*E*    ERROR: VMO-E$BLANKUSER-0
     1097    25847                MESSAGE: User name can't be blank.
     1098    25848        */
     1099    25849              %VLP_ERRCODE (FPTN=E_CANTDELCUR,FCG="VM",MID="O",
     1100    25850              ERR#=%E$CANTDELCUR,STCLASS=CONSTANT);
     1101    25895        /*E*    ERROR: VMO-E$CANTDELCUR-0
     1102    25896                MESSAGE: Can't delete current folder
     1103    25897                MESSAGE1: You can't delete the folder you are currently USEing.
     1104    25898        */
     1105    25899              %VLP_ERRCODE (FPTN=E_CANTDELF,FCG="VM",MID="O",
     1106    25900              ERR#=%E$CANTDELF,STCLASS=CONSTANT);
     1107    25945        /*E*    ERROR: VMO-E$CANTDELF-0
     1108    25946                MESSAGE: Can't delete folder:
     1109    25947        */
     1110    25948              %VLP_ERRCODE (FPTN=E_TOOMANYSRCH,FCG="VM",MID="O",
     1111    25949              ERR#=%E$TOOMANYSRCH,STCLASS=CONSTANT);
     1112    25994        /*E*     ERROR: VMO-E$TOOMANYSRCH
     1113    25995                 MESSAGE: No more than 4 folders may be specified.
     1114    25996        */
     1115    25997              %VLP_ERRCODE (FPTN=E_NOCURFOLD,FCG="VM",MID="O",
     1116    25998              ERR#=%E$NOCURFOLD,STCLASS=CONSTANT);
     1117    26043        /*E*      ERROR: VMO-E$NOCURFOLD-0
     1118    26044                  MESSAGE: You currently have no folder open
     1119    26045        */
     1120    26046              %VLP_ERRCODE (FPTN=E_INPROG,FCG="VM",MID="O",
     1121    26047              ERR#=%E$INPROG,STCLASS=CONSTANT);
     1122    26092        /*E* ERROR: VMO-E$INPROG-0
     1123    26093             MESSAGE: This message is still being delivered.
     1124    26094             MESSAGE1: The MAILMAN ghost is currently moving the text of this
     1125    26095                     message into the folder.  None of the text can be accessed until
PL6.E3A0      #001=VMO$MAIL File=VMO$MAIL.:VMB6TSI                               WED 08/20/97 15:19 Page:41
     1126    26096                     the process is complete.  Try again later.
     1127    26097        */
     1128    26098              %VLP_ERRCODE (FPTN=E_CANTREN,FCG="VM",MID="O",
     1129    26099              ERR#=%E$CANTREN,STCLASS=CONSTANT);
     1130    26144        /*E* ERROR: VMO-E$CANTREN-0
     1131    26145             MESSAGE: Can't renumber now, MAILMAN is delivering a message.
     1132    26146        */
     1133    26147              %VLP_ERRCODE (FPTN=E_COMPACT,FCG="VM",MID="O",
     1134    26148              ERR#=%E$COMPACT,STCLASS=CONSTANT);
     1135    26193        /*E* ERROR: VMO-E$COMPACT-0
     1136    26194             MESSAGE: Compacting...
     1137    26195        */
     1138    26196              %VLP_ERRCODE (FPTN=E_RENFAILED,FCG="VM",MID="O",
     1139    26197              ERR#=%E$RENFAILED,STCLASS=CONSTANT);
     1140    26242        /*E* ERROR: VMO-E$RENFAILED-0
     1141    26243             MESSAGE: Renumber aborted
     1142    26244        */
     1143    26245              %VLP_ERRCODE (FPTN=E_CANTCOMPACT,FCG="VM",MID="O",
     1144    26246              ERR#=%E$CANTCOMPACT,STCLASS=CONSTANT);
     1145    26291        /*E* ERROR: VMO-E$CANTCOMPACT-0
     1146    26292             MESSAGE: Can't compact, file is busy or MAILMAN is delivering a message
     1147    26293        */
     1148    26294              %VLP_ERRCODE (FPTN=E_NOLIST,FCG="VM",MID="O",
     1149    26295              ERR#=%E$NOLIST,STCLASS=CONSTANT);
     1150    26340        /*E* ERROR: VMO-E$NOLIST-0
     1151    26341             MESSAGE: List does not exist.
     1152    26342        */
     1153    26343              %VLP_ERRCODE (FPTN=E_BADDOMAIN, FCG="VM", MID="O",
     1154    26344              ERR#=%E$BADDOMAIN, STCLASS=CONSTANT);
     1155    26389        /*E*  ERROR: VMO-E$BADDOMAIN-0
     1156    26390              MESSAGE: Domain %U1 is illegal.
     1157    26391        */
     1158    26392              %VLP_ERRCODE( FPTN=E_ANSBROAD,FCG="VM",MID="O",
     1159    26393              ERR#=%E$ANSBROAD,STCLASS=CONSTANT);
     1160    26438        /*E* ERROR:   VMO-E$ANSBROAD-0
     1161    26439             MESSAGE: It is not possible to ANSWER RECIEVERS a message
     1162    26440                      created with the BROADCAST option.
PL6.E3A0      #001=VMO$MAIL File=VMO$MAIL.:VMB6TSI                               WED 08/20/97 15:19 Page:42
     1163    26441        */
     1164    26442              %VLP_ERRCODE (FPTN=E_MEMERR,FCG="VM",MID="O",
     1165    26443              ERR#=%E$MEMERR,STCLASS=CONSTANT);
     1166    26488              %VLP_ERRCODE (FPTN=E_NEEDMID,FCG="VM",MID="O",
     1167    26489              ERR#=%E$NEEDMID,STCLASS=CONSTANT);
     1168    26534              %VLP_ERRCODE (FPTN=E_NOMORE,FCG="VM",MID="O",
     1169    26535              ERR#=%E$NOMORE,STCLASS=CONSTANT);
     1170    26580              %VLP_ERRCODE (FPTN=E_NOUPDATE,FCG="VM",MID="O",
     1171    26581              ERR#=%E$NOUPDATE,STCLASS=CONSTANT);
     1172    26626              %VLP_ERRCODE (FPTN=E_WERR,FCG="VM",MID="O",
     1173    26627              ERR#=%E$WERR,STCLASS=CONSTANT);
     1174    26672              %VLP_ERRCODE (FPTN=E_NOFILE,FCG="FM",MID="N",MON='1'B,
     1175    26673              ERR#=%E$NOFILE,STCLASS=CONSTANT);
     1176    26718              %VLP_ERRCODE (FPTN=E_BADRANGE,FCG="VM",MID="O",
     1177    26719              ERR#=%E$BADRANGE,STCLASS=CONSTANT);
     1178    26764        /*E* ERROR: VMO-E$BADRANGE
     1179    26765             MESSAGE: End of range is less than start.
     1180    26766        */
     1181    26767              %VLP_ERRCODE (FPTN=E_BIGNUM,FCG="VM",MID="O",
     1182    26768              ERR#=%E$BIGNUM,STCLASS=CONSTANT);
     1183    26813        /*E* ERROR: VMO-E$BIGNUM
     1184    26814             MESSAGE: Message number is too large.
     1185    26815        */
     1186    26816              %VLP_ERRCODE (FPTN=E_NEEDSEED,FCG="VM",MID="O",
     1187    26817              ERR#=%E$NEEDSEED,STCLASS=CONSTANT);
     1188    26862        /*E* ERROR: VMO-E$NEEDSEED
     1189    26863             MESSAGE:CRPT option must be specified for an encrypted message.
     1190    26864        */
     1191    26865              %VLP_ERRCODE (FPTN=E_DI_BADSEED,FCG="VM",MID="O",
     1192    26866              ERR#=%E$DI_BADSEED,STCLASS=CONSTANT);
     1193    26911        /*E* ERROR: VMO-E$DI_BADSEED
     1194    26912             MESSAGE:Incorrect decryption seed supplied; message body omitted.
     1195    26913        */
     1196    26914              %VLP_ERRCODE (FPTN=E_FWD_BADSEED,FCG="VM",MID="O",
     1197    26915              ERR#=%E$FWD_BADSEED,STCLASS=CONSTANT);
     1198    26960              %VLP_ERRCODE (FPTN=E_NOENCLS,FCG="VM",MID="O",
     1199    26961              ERR#=%E$NOENCLS,STCLASS=CONSTANT);
PL6.E3A0      #001=VMO$MAIL File=VMO$MAIL.:VMB6TSI                               WED 08/20/97 15:19 Page:43
     1200    27006        /*E* ERROR: VMO-%E$NOENCLS
     1201    27007             MESSAGE:No enclosures are attached to this message.
     1202    27008        */
     1203    27009              %VLP_ERRCODE (FPTN=E_DETALLOWSONE,FCG="VM",MID="O",
     1204    27010              ERR#=%E$DETALLOWSONE,STCLASS=CONSTANT);
     1205    27055        /*E* ERROR: VMO-%E$DETALLOWSONE
     1206    27056             MESSAGE:Can't detach. Too many messages in the current context.
     1207    27057             MESSAGE1:The DETACH command operates on a single message and more
     1208    27058                       than one is in the current selection context. Set the context
     1209    27059                       using LIST, DISPLAY, or SELECT and try again.
     1210    27060        */
     1211    27061              %VLP_ERRCODE (FPTN=E_ENCLNOTFOUND,FCG="VM",MID="O",
     1212    27062              ERR#=%E$ENCLNOTFOUND,STCLASS=CONSTANT);
     1213    27107        /*E* ERROR: VMO-%E$ENCLNOTFOUND
     1214    27108             MESSAGE:Enclosure not found.
     1215    27109        */
     1216    27110              %VLP_ERRCODE (FPTN=E_ENCLDELETED,FCG="VM",MID="O",
     1217    27111              ERR#=%E$ENCLDELETED,STCLASS=CONSTANT);
     1218    27156        /*E* ERROR: VMO-%E$ENCLDELETED
     1219    27157             MESSAGE:Enclosure has already been deleted.
     1220    27158        */
     1221    27159              %VLP_ERRCODE (FPTN=E_ENCLBROKEN,FCG="VM",MID="O",
     1222    27160              ERR#=%E$ENCLBROKEN,STCLASS=CONSTANT);
     1223    27205        /*E* ERROR: VMO-%E$ENCLBROKEN
     1224    27206             MESSAGE:Wrong number of records. This enclosure may be broken.
     1225    27207             MESSAGE1: The number of enclosure records found is less than the
     1226    27208                       number specified. The data in this enclosure may be
     1227    27209                       unreliable.
     1228    27210        */
     1229    27211        /*E* ERROR: VMO-E$FWD_BADSEED
     1230    27212             MESSAGE:Incorrect decryption seed supplied.
     1231    27213        */
     1232    27214        %EJECT;
PL6.E3A0      #001=VMO$MAIL File=VMO$MAIL.:VMB6TSI                               WED 08/20/97 15:19 Page:44
     1233    27215        /*
     1234    27216             ***** Initialize VM_CURRENT_FOLDER flags so
     1235    27217                   it is possible to report to mailman the
     1236    27218                   status of the current folder if we trap ...
     1237    27219        */
     1238    27220    1         VM_CURRENT_FOLDER.FLAGS = %NO#;
     1239    27221        /*
     1240    27222             ***** Reset dcbs #1 - #4
     1241    27223                   they cause problems later when M$LINKing
     1242    27224                   to other processors ...
     1243    27225        */
     1244    27226    1       IF B$JIT.PRFLAGS.SI
     1245    27227    1       THEN
     1246    27228    1           CALL M$YC (RESET_#1) ALTRET(IGNORE_YC1);
     1247    27229    1   IGNORE_YC1:
     1248    27230
     1249    27231    1       IF B$JIT.PRFLAGS.UI
     1250    27232    1       THEN
     1251    27233    1           CALL M$YC (RESET_#2) ALTRET(IGNORE_YC2);
     1252    27234    1   IGNORE_YC2:
     1253    27235
     1254    27236    1       IF B$JIT.PRFLAGS.OU
     1255    27237    1       THEN
     1256    27238    1           CALL M$YC (RESET_#3) ALTRET(IGNORE_YC3);
     1257    27239    1   IGNORE_YC3:
     1258    27240
     1259    27241    1       IF B$JIT.PRFLAGS.LS
     1260    27242    1       THEN
     1261    27243    1           CALL M$YC (RESET_#4) ALTRET(IGNORE_YC4);
     1262    27244    1   IGNORE_YC4: ;
     1263    27245
     1264    27246        /*
     1265    27247             ***** How data segments are used in mail/send/mailman ...
     1266    27248
     1267    27249                   Segments used in all modules
     1268    27250                   ----------------------------
     1269    27251                   VM_ADDLIST
PL6.E3A0      #001=VMO$MAIL File=VMO$MAIL.:VMB6TSI                               WED 08/20/97 15:19 Page:45
     1270    27252                      - used for building new address list (VMA$EXPAND_LIST).
     1271    27253
     1272    27254                   VM_HEADER
     1273    27255                      - used to contain the header of a message.
     1274    27256
     1275    27257                   VM_PROFILE
     1276    27258                      - used to contain the profile of a folder.
     1277    27259
     1278    27260                   VM_WORK
     1279    27261                      - used to contain list and user definitions when
     1280    27262                        expanding an address list.
     1281    27263
     1282    27264                   Segments used by only mail and send
     1283    27265                   -----------------------------------
     1284    27266                   VM_PARSEAREA
     1285    27267                      - used to contain input and parse info (XUR$GETCMD)
     1286    27268
     1287    27269                   VM_SELECT
     1288    27270                      - used to contain message selection contexts
     1289    27271                        Note: VM_SELECT shares a data segment with VM_PARSEAREA.
     1290    27272                        VM_SELECT occupies the first 1024 words and VM_PARSEAREA
     1291    27273                        the subsequent 2048 words (more if ADAPT needs memory).
     1292    27274
     1293    27275        */
     1294    27276    1       CALL VMA$ENLARGE_SEGMENT (VM_HEADER_,1024) ALTRET(E_PMME);
     1295    27277    1       CALL VMA$ENLARGE_SEGMENT (VM_PROFILE_,1024) ALTRET(E_PMME);
     1296    27278    1       CALL VMA$ENLARGE_SEGMENT (VM_ADDLIST_,1024) ALTRET(E_PMME);
     1297    27279    1       CALL VMA$ENLARGE_SEGMENT (VM_WORK_,1024) ALTRET(E_PMME);
     1298    27280    1       CALL VMA$ENLARGE_SEGMENT (VM_SELECT_,1024) ALTRET(E_PMME);
     1299    27281    1       CALL VMA$ENLARGE_SEGMENT (VM_PARSEAREA_,2048) ALTRET(E_PMME);
     1300    27282    1       VBASE(VM_PARSEAREA_) = PINCRW(VBASE(VM_PARSEAREA_),(VBOUND(VM_SELECT_)+3)/4);
     1301    27283    1       VBOUND(VM_PARSEAREA_) = VBOUND(VM_PARSEAREA_) - (VBOUND(VM_SELECT_) + 1);
     1302    27284    1       CALL VMA$OPEN_ENCL_SEGS ALTRET(E_PMME);
     1303    27285
     1304    27286        /*
     1305    27287             ***** Initilization of XUR$GETCMD data ...
     1306    27288        */
PL6.E3A0      #001=VMO$MAIL File=VMO$MAIL.:VMB6TSI                               WED 08/20/97 15:19 Page:46
     1307    27289    1       XUR_INIT.WORK_ = VM_PARSEAREA_;
     1308    27290    1       CALL XUR$INIT(XUR_INIT,,XUG_GETCMD$)
     1309    27291    2       WHENALTRETURN DO;
     1310    27292    2           CALL M$XXX;
     1311    27293    2       END;
     1312    27294    1       CALL XUR$SETERRMSG (ERRMSG_FID) ALTRET(E_PMME);
     1313    27295        /*
     1314    27296              Setup parse nodes for users native language.
     1315    27297        */
     1316    27298
     1317    27299    1       CALL VMD$GETNODES(VM_NATL_PAIRS,NODES$,VM_NODEFID,VM_NODENAMES);
     1318    27300    1       MAIL_NODES$ = NODES_TO_USE (%PN_MAIL_NODES);
     1319    27301    1       MAIL_CMD$ = NODES_TO_USE (%PN_MAIL_CMD);
     1320    27302    1       MODIFY_LIST$ = NODES_TO_USE (%PN_MODIFY_LIST);
     1321    27303    1       MODIFY_USER$ = NODES_TO_USE (%PN_MODIFY_USER);
     1322    27304    1       SEND_CMD$ = NODES_TO_USE (%PN_SEND_CMD);
     1323    27305    1       VM_ADDRESS_SPEC$ = NODES_TO_USE (%PN_ADDRESS_SPEC);
     1324    27306
     1325    27307        /*
     1326    27308             ***** Setup command input and echo dcbs ...
     1327    27309        */
     1328    27310    1       CALL M$OPEN (OPEN_COMMAND_STREAM_DEFAULT) ALTRET(E_PMME);
     1329    27311    1       CALL XUR$SETDCBS (M$SI_NUM,M$ME_NUM);
     1330    27312    1       CALL M$XCON(SET_XCON) ALTRET(E_PMME);
     1331    27313    1       CALL M$INT (FPT_INT) ALTRET(E_PMME);
     1332    27314    1       CALL XUR$DISABLE;
     1333    27315        /*
     1334    27316             ***** Open output stream (M$LO).
     1335    27317        */
     1336    27318    1       CALL M$OPEN (OPEN_OUTPUT_STREAM_DEFAULT) ALTRET(E_PMME);
     1337    27319
     1338    27320        /*
     1339    27321             ***** Get the user name of this user ...
     1340    27322        */
     1341    27323    1       USER_NAME.L# = LENGTHC(USER_NAME.NAME#);
     1342    27324    1       CALL VMF$FROM (USER_NAME) ALTRET(E_PMME);
     1343    27325        /*
PL6.E3A0      #001=VMO$MAIL File=VMO$MAIL.:VMB6TSI                               WED 08/20/97 15:19 Page:47
     1344    27326             ***** Get the name of this site ...
     1345    27327        */
     1346    27328    1       KEY_VALUE='*IAM';
     1347    27329    1       CALL VMA$GET_SITE_NAME (KEY_VALUE,VM_SITENAME) ALTRET(E_PMME);
     1348    27330
     1349    27331        /*
     1350    27332             ***** Open mailcg so we can talk to mailman ...
     1351    27333        */
     1352    27334    1       CALL BINCHAR(VM_MAILCG_SETSTA.MYSTATION#,B$JIT.SYSID);
     1353    27335    1       CALL INSERT(VM_MAILCG_SETSTA.MYSTATION#,0,4,'MAIL');
     1354    27336    1       REMEMBER END_LOOP IN VMO_REMEMBER;
     1355    27337        /*
     1356    27338             ***** Setup the default search list.
     1357    27339                   Therefore, open :MAIL_CENTRAL.:MAIL
     1358    27340                   if it exists. Otherwise, an unregistered system ...
     1359    27341        */
     1360    27342    1       CALL VMA$OPEN_GLOBAL (M$MAIL_GLOBAL_NUM)
     1361    27343    1       WHENRETURN
     1362    27344    2       DO;
     1363    27345    2           VM_SEARCH_INFO.NUM_ENTRIES = 1;
     1364    27346    2           VM_SEARCH_INFO.DCB#(0) = M$MAIL_GLOBAL_NUM;
     1365    27347    2           VM_SEARCH_INFO.GLOBAL = '1'B;
     1366    27348    2       END;
     1367    27349    1       WHENALTRETURN
     1368    27350    2       DO;
     1369    27351    2           VM_SEARCH_INFO.NUM_ENTRIES = 0;
     1370    27352    2           VM_SEARCH_INFO.GLOBAL = '0'B;
     1371    27353    2       END;
     1372    27354        /*
     1373    27355             ***** Open the user's central folder ...
     1374    27356        */
     1375    27357    1       CALL VMB$FIND_DEFAULT (,USER_NAME,VM_CENTRAL_FOLDER,
     1376    27358    1         M$MAIL_CENTRAL_NUM,VM_SEARCH_INFO)
     1377    27359    2       WHENRETURN DO;
     1378    27360    2           CALL VMB$USE_DEFAULT (,USER_NAME,VM_CURRENT_FOLDER,M$MAIL_FILE_NUM,
             27360                    VM_SEARCH_INFO,,'1'B)
     1379    27361    3           WHENRETURN DO;
PL6.E3A0      #001=VMO$MAIL File=VMO$MAIL.:VMB6TSI                               WED 08/20/97 15:19 Page:48
     1380    27362                            /* get profile, for srch list address resolution only */
     1381    27363    3               CALL VMD$GET_PROFILE(M$MAIL_FILE_NUM)
     1382    27364    4               WHENALTRETURN DO;
     1383    27365    5                   DO INDX1=0 TO %VM_MAX_SRCH-1;
     1384    27366    5                       VM_PROFILE.SEARCH_LIST$(INDX1)=ADDR(NIL);
     1385    27367    5                   END;
     1386    27368    4               END;
     1387    27369    3               VM_RADDRESS.NOMAD.FOLDER = VM_CURRENT_FOLDER.FOLDER;
     1388    27370    3               IF VM_PROFILE.FILE_FOLDER$ ~= ADDR(NIL)
     1389    27371    3                 AND (VM_PROFILE.FILE_FOLDER$->VM$RADDRESS.FOLDER='CENTRAL')
     1390    27372    3                 AND (VM_PROFILE.FILE_FOLDER$->VM$RADDRESS.ACCT=B$JIT.ACCN)
     1391    27373    4               THEN DO;
     1392    27374    4                   VM_PROFILE.FILE_FOLDER$ = ADDR(NIL);
     1393    27375    4                   CALL VMD$PUT_PROFILE(M$MAIL_FILE_NUM);
     1394    27376    4               END;
     1395    27377    3               VM_SEARCH_INFO.CURRENT = '1'B;
     1396    27378    3               IF VM_CURRENT_FOLDER.ACCT ~= VM_MAIL_ACCT.ACCT#
     1397    27379    3                 AND VM_CURRENT_FOLDER.FOLDER ~= 'CENTRAL'
     1398    27380    3                 AND VM_SEARCH_INFO.NUM_ENTRIES > 0
     1399    27381    4               THEN DO;
     1400    27382    4                   VM_SEARCH_INFO.NUM_ENTRIES = VM_SEARCH_INFO.NUM_ENTRIES+1;
     1401    27383    4                   VM_SEARCH_INFO.DCB#(1) = VM_SEARCH_INFO.DCB#(0);
     1402    27384    4               END;
     1403    27385    3               VM_SEARCH_INFO.DCB#(0) = M$MAIL_FILE_NUM;
     1404    27386        /* Only open for command line use resolution, so make it look closed */
     1405    27387    3               VM_CURRENT_FOLDER.FLAGS.OPEN = '0'B;
     1406    27388    3           END;
     1407    27389    3           WHENALTRETURN DO;
     1408    27390    3               VM_SEARCH_INFO.CURRENT = '0'B;
     1409    27391    3           END;
     1410    27392    2       END;
     1411    27393    1       WHENALTRETURN
     1412    27394    2       DO;
     1413    27395    2           VM_SEARCH_INFO.CURRENT = '0'B;
     1414    27396                                                /* ??? */
     1415    27397    2       END;
     1416    27398    1       IF ~ VM_SEARCH_INFO.CURRENT
PL6.E3A0      #001=VMO$MAIL File=VMO$MAIL.:VMB6TSI                               WED 08/20/97 15:19 Page:49
     1417    27399    2       THEN DO;
     1418    27400    3           DO INDX1=0 TO %VM_MAX_SRCH-1;
     1419    27401    3               VM_PROFILE.SEARCH_LIST$(INDX1)=ADDR(NIL);
     1420    27402    3           END;
     1421    27403    2       END;
     1422    27404        /*
     1423    27405             ***** Parse the invocation line ...
     1424    27406        */
     1425    27407    1       OUTBUF = B$JIT.CCBUF;
     1426    27408    1       SIZE = B$JIT.CCARS;
     1427    27409    1       CALL XUR$GETCMD(MAIL_CMD$->BSD,OUT$,MAIL_PROMPT,OUTBUF,SIZE) ALTRET(E_INVOKE);
     1428    27410    2       DO NEVER;
     1429    27411    2   E_INVOKE:
     1430    27412    2           CALL XUR$ERRPTR;
     1431    27413    2           CALL XUR$ERRMSG (OUTERR);
     1432    27414    2           CALL M$EXIT;
     1433    27415    2       END;                            /* Do never ... end */
     1434    27416    1       CURR_COMMAND_CODE = OUT$ -> P$B.CODE;
     1435    27417        /*
     1436    27418          ***** Write greeting thru(M$ME).
     1437    27419        */
     1438    27420    1       IF B$JIT.NEXTCC = %CC_FROMUC#
     1439    27421    1       THEN                            /* Greet the user */
     1440    27422    2       DO;
     1441    27423    2           F_FDSME.NVECS# = 1;
     1442    27424    2           VECT_ARRAY(0) = VECTOR (ADDR(B_VERSION) -> B$VERSION);
     1443    27425                %INIT_STR (CODE=E_GREETING_FMT, STR=VM_GREETING_FMT,
     1444    27426                VECT="F_FDSME.FMT_" );
     1445    27449    2           CALL VMD$WRITE_BUF (F_FDSME);
     1446    27450    2       END;
     1447    27451        /*
     1448    27452             ***** Initialize the selection criteria contexts ...
     1449    27453        */
     1450    27454    1       CALL INIT_CONTEXT (%CONTEXT_CURRENT);
     1451    27455    1       CALL INIT_CONTEXT (%CONTEXT_SELECTED);
     1452    27456        /*
     1453    27457             ***** Init other variables, flags ...
PL6.E3A0      #001=VMO$MAIL File=VMO$MAIL.:VMB6TSI                               WED 08/20/97 15:19 Page:50
     1454    27458        */
     1455    27459    1       EXIT_MAIL# = %NO#;
     1456    27460    1       OPT_NOUPDATE = %NO#;
     1457    27461    1       OPT_BYPASS = %NO#;
     1458    27462    1       MADE_OLD = %NO#;
     1459    27463    1       DELETE_ENCL_FLAG = %NO#;
     1460    27464        /*
     1461    27465             ***** Enable breaks now ...
     1462    27466        */
     1463    27467    1       CALL XUR$CLRENABLE;
     1464    27468    1       CALL PROCESS_CMD (CURR_COMMAND_CODE);
     1465    27469        /*
     1466    27470             ***** Now prompt the user for commands ...
     1467    27471        */
     1468    27472
     1469    27473    2       DO FOREVER;
     1470    27474        /*
     1471    27475             ***** Get the next command ...
     1472    27476        */
     1473    27477    2           IF NEXT_COMMAND_TEXT.L# ~= 0 /* An internal command */
     1474    27478    2           THEN
     1475    27479    3           DO;
     1476    27480    3               INDX1 = NEXT_COMMAND_TEXT.L#;
     1477    27481    3               CALL XUR$GETCMD (MAIL_NODES$->BSD,OUT$,,NEXT_COMMAND_TEXT.NAME#,
     1478    27482    4                 INDX1) WHENALTRETURN DO;
     1479    27483    4                   CALL XUR$ECHO (M$ME_NUM);
     1480    27484    4                   NEXT_COMMAND_ECHO# = %NO#;
     1481    27485    4                   NEXT_COMMAND_TEXT.L# = 0;
     1482    27486    4                   GOTO XUR_ERROR;
     1483    27487    4               END;
     1484    27488    3               IF NEXT_COMMAND_ECHO#
     1485    27489    3               THEN
     1486    27490    3                   CALL XUR$ECHO (M$ME_NUM);
     1487    27491    3               NEXT_COMMAND_ECHO# = %NO#;
     1488    27492    3               NEXT_COMMAND_TEXT.L# = 0;
     1489    27493
     1490    27494    3           END;
PL6.E3A0      #001=VMO$MAIL File=VMO$MAIL.:VMB6TSI                               WED 08/20/97 15:19 Page:51
     1491    27495    2           ELSE
     1492    27496    3           DO;
     1493    27497        /* Check for new mail */
     1494    27498    3               IF VM_CURRENT_FOLDER.FLAGS.OPEN
     1495    27499    4               THEN DO;
     1496    27500    4                   CALL CHECK_NEW (M$MAIL_FILE_NUM);
     1497    27501    5                   IF NEW_FLAG THEN DO;
     1498    27502    5                       CALL XUR$INFOMSG (E_NEW_MESSAGE_FMT,,M$ME_NUM);
     1499    27503    5                       NEW_FLAG = '0'B;
     1500    27504    5                   END;
     1501    27505    4               END;
     1502    27506    3               CALL XUR$GETCMD(MAIL_NODES$->BSD,OUT$,MAIL_PROMPT)ALTRET(XUR_ERROR);
     1503    27507    3           END;
     1504    27508    2           IF OUT$ = ADDR(NIL) THEN GOTO END_LOOP;
     1505    27509    2           CURR_COMMAND_CODE = OUT$ -> P$B.CODE;
     1506    27510
     1507    27511    2           CALL PROCESS_CMD (CURR_COMMAND_CODE);
     1508    27512    3           DO NEVER;
     1509    27513    3   XUR_ERROR :                             /* Error parsing command */
     1510    27514    4               DO SELECT (OUTERR.ERR#);
     1511    27515
     1512    27516    4                   SELECT (%E$EOF, %E$LDSC);
     1513    27517        /*
     1514    27518             ***** If an end-of-file is found, and we were reading from a command
     1515    27519                    file (M$CMNDF is open), close the file and commence reading
     1516    27520                   from the command stream (M$SI).  If line disconnects, and we're
     1517    27521                   reading from the terminal, then act like user entered 'END'.
     1518    27522        */
     1519    27523    4                   IF DCBADDR(M$CMNDF_NUM) -> F$DCB.FCD# = %NO#
     1520    27524    4                   THEN
     1521    27525    5                   DO;   /* Exit */
     1522    27526                            %INIT_STR (CODE=E_END_CMD, STR=VM_END_CMD, NEXT_CMD=
             27526                                NEXT_COMMAND_TEXT);
     1523    27549    5                       GOTO END_LOOP;
     1524    27550    5                   END;
     1525    27551    4                   ELSE
     1526    27552    5                   DO;   /* Connect back to command stream */
PL6.E3A0      #001=VMO$MAIL File=VMO$MAIL.:VMB6TSI                               WED 08/20/97 15:19 Page:52
     1527    27553    5                       CLOSE_SAVE.V.DCB# = M$CMNDF_NUM;
     1528    27554    5                       CALL M$CLOSE (CLOSE_SAVE) ALTRET(E_PMME);
     1529    27555    5                       CALL XUR$SETDCBS (M$SI_NUM);
     1530    27556    5                       IF EXIT_MAIL_PEND#
     1531    27557    6                       THEN DO;
     1532    27558    6                           EXIT_MAIL_PEND# = '0'B;
     1533    27559    6                           EXIT_MAIL# = '1'B;
     1534    27560    6                           GOTO END_LOOP;
     1535    27561    6                       END;
     1536    27562    5                   END;
     1537    27563
     1538    27564    4                   SELECT (ELSE);   /* Report the error */
     1539    27565    4               CALL XUR$ERRPTR;
     1540    27566    4               CALL XUR$ERRMSG (OUTERR);
     1541    27567    4               END;
     1542    27568    3           END;                       /* Do never ... end */
     1543    27569    2   END_LOOP:
     1544    27570        /*
     1545    27571             *****  Reset output DCB for display and list commands ...
     1546    27572        */
     1547    27573    2           F_FDSLO.DCB# = M$LO_NUM;
     1548    27574    2           IF OUTDCB ~= M$LO_NUM
     1549    27575    3           THEN DO;
     1550    27576    3               IF DCBADDR(OUTDCB) -> F$DCB.FCD#
     1551    27577    4               THEN DO;
     1552    27578    4                   CLOSE_SAVE.V.DCB# = OUTDCB;
     1553    27579    5                   CALL M$CLOSE (CLOSE_SAVE) WHENALTRETURN DO; END;
     1554    27580    4               END;
     1555    27581    3               OUTDCB = M$LO_NUM;
     1556    27582    3           END;
     1557    27583        /*
     1558    27584             ***** If EXIT_MAIL# is set and no messages have
     1559    27585                   been processed, then get out of here ...
     1560    27586        */
     1561    27587    2           IF EXIT_MAIL#
     1562    27588    2           THEN
     1563    27589    3           DO;
PL6.E3A0      #001=VMO$MAIL File=VMO$MAIL.:VMB6TSI                               WED 08/20/97 15:19 Page:53
     1564    27590    3               EXIT_MAIL# = %NO#;
     1565    27591    3               IF NUM_MESSAGES_PROCESSED = 0
     1566    27592    3               THEN
     1567    27593    4               DO;
     1568    27594                        %INIT_STR (CODE=E_END_CMD, STR=VM_END_CMD, NEXT_CMD=
             27594                            NEXT_COMMAND_TEXT);
     1569    27617    4               END;
     1570    27618    3               IF OPT_NOUPDATE
     1571    27619    3               THEN
     1572    27620    4               DO;
     1573    27621                        %INIT_STR (CODE=E_END_NOUPDATE_CMD, STR=VM_END_NOUPDATE_CMD,
             27621                            NEXT_CMD=NEXT_COMMAND_TEXT);
     1574    27644    4               END;
     1575    27645    3           END;
     1576    27646    2           CALL XUR$ENABLE;
     1577    27647    2       END;                            /* Do forever */
     1578    27648    1   E_PMME:
     1579    27649    1       ERROR = B$TCB.ALT$ -> B$ALT.ERR;
     1580    27650    1       DCB# = B$TCB.ALT$ -> B$ALT.DCB#;
     1581    27651    1       CALL XUR$ERRMSG (ERROR,DCB#);
     1582    27652        %EJECT;
PL6.E3A0      #001=VMO$MAIL File=VMO$MAIL.:VMB6TSI                               WED 08/20/97 15:19 Page:54
     1583    27653        /********************************************************************/
     1584    27654        /*F*    NAME:        PROCESS_CMD
     1585    27655                PURPOSE:     To process all MAIL commands.
     1586    27656                DESCRIPTION: This routine processes all MAIL commands.
     1587    27657                             The command to be processed is in CURR_COMMAND_CODE.
     1588    27658                             If there are any options for this command then
     1589    27659                             OUT$ will be non-nil. If there are no options
     1590    27660                             specified then use any options remaining from
     1591    27661                             previous commands. This mainly applies only to
     1592    27662                             SELECTION CLAUSES.
     1593    27663        */
     1594    27664        /********************************************************************/
     1595    27665    1   PROCESS_CMD: PROC (CURR_COMMAND_CODE);
     1596    27666
     1597    27667    2   DCL CURR_COMMAND_CODE UBIN WORD;
     1598    27668        /*
     1599    27669             ***** Initialization needed for each command ...
     1600    27670        */
     1601    27671    2       WHICH_CONTEXT = %CONTEXT_CURRENT; /* Default context to use */
     1602    27672    2       CURRENT_CONTEXT%.SET_INDX = -1;
     1603    27673    2       SELECTED_CONTEXT%.SET_INDX = -1;
     1604    27674    2       NEED_TITLE_BAR = %YES#;
     1605    27675        /*
     1606    27676             ***** Process the command ...
     1607    27677        */
     1608    27678    3       DO CASE(CURR_COMMAND_CODE);       /* Command number */
     1609    27679        %EJECT;
PL6.E3A0      #001=VMO$MAIL File=VMO$MAIL.:VMB6TSI                               WED 08/20/97 15:19 Page:55
     1610    27680        /* Acknowledge command */
     1611    27681    3       CASE (%CMD_ACKNOWLEDGE_MESSAGE);
     1612    27682    3           CALL NEED_UPDATE ALTRET(CONTINUE);
     1613    27683
     1614    27684    3           IF OUT$ -> P$B.NSUBLKS > 0
     1615    27685    3           THEN                       /* There are options */
     1616    27686    3               CALL INIT$SELECT_OPTS (OUT$->P$B.SUBLK$(0),%CMD_ACKNOWLEDGE_MESSAGE)
             27686                        ALTRET(CONTINUE);
     1617    27687    3           CALL FIX_CONTEXT;
     1618    27688    3           INDX1 = 0;
     1619    27689        /*
     1620    27690             ***** Acknowledge all the messages ...
     1621    27691        */
     1622    27692    4           DO FOREVER;
     1623    27693    4               CALL GET$MESSAGE ALTRET(END_ACK);
     1624    27694    4               CALL VMD$DI_HEADER (VM_HEADER,CURRENT_MESSAGE_NUMBER,M$ME_NUM);
     1625    27695    4               CALL DO$ACK (%YES#) ALTRET(E_PMME);
     1626    27696    4               INDX1 = INDX1 + 1;
     1627    27697    4           END;                       /* Do forever ... end */
     1628    27698    3   END_ACK:
     1629    27699    3           IF INDX1 = 0
     1630    27700    3           THEN
     1631    27701    3               CALL REPORT_ACTIVITY (INDX1,VM_NO_MESSAGE_FMT,%YES#,E_NO_MESSAGE_FMT);
     1632    27702        %EJECT;
PL6.E3A0      #001=VMO$MAIL File=VMO$MAIL.:VMB6TSI                               WED 08/20/97 15:19 Page:56
     1633    27703        /* Answer command */
     1634    27704    3       CASE (%CMD_ANSWER_MESSAGE);
     1635    27705    3           CALL NEED_UPDATE ALTRET(CONTINUE);
     1636    27706
     1637    27707    3           IF OUT$ -> P$B.NSUBLKS > 0
     1638    27708    3           THEN                       /* There are options */
     1639    27709    3               CALL INIT$SELECT_OPTS (OUT$->P$B.SUBLK$(0),%CMD_ANSWER_MESSAGE) ALTRET(
             27709                        CONTINUE);
     1640    27710    3           CALL FIX_CONTEXT;
     1641    27711    3           INDX1 = 0;                  /* Used as counter */
     1642    27712        /*
     1643    27713            ***** Determine if 'RECEIVERS' was specified. (default = no)
     1644    27714        */
     1645    27715    3           OPT_RECEIVERS = VM_PROFILE.OPT.ANS_RECEIVERS;
     1646    27716    3           IF OUT$ -> P$B.NSUBLKS > 1
     1647    27717    3           THEN                       /* Receivers or sender specified */
     1648    27718    4           DO CASE (OUT$ -> P$B.SUBLK$(1) -> P$B.CODE);
     1649    27719    4           CASE (%OPT_RECEIVERS);
     1650    27720    4               OPT_RECEIVERS = %YES#;
     1651    27721    4           CASE (%OPT_SENDER);
     1652    27722    4               OPT_RECEIVERS = %NO#;
     1653    27723    4           END;                   /* Do case ... end */
     1654    27724        /*
     1655    27725             ***** Build the command buffer to pass to send ...
     1656    27726        */
     1657    27727                %INIT_STR (CODE=E_SEND_ANSWER, STR=VM_SEND_ANSWER, TEST=YES);
     1658    27750    3           CALL BUILD_LINK_TO_SEND_CMD (VM_SEND_ANSWER);
     1659    27751        /*
     1660    27752             ***** Acknowledge all the messages ...
     1661    27753        */
     1662    27754    4           DO FOREVER;
     1663    27755    4               CALL GET$MESSAGE ALTRET(END_ANSWER);
     1664    27756    4               CALL M$OPEN (OPEN_SEND_FILE) ALTRET(E_PMME);
     1665    27757    4               CALL VMD$DI_HEADER (VM_HEADER,CURRENT_MESSAGE_NUMBER,M$ME_NUM);
     1666    27758    4               if OPT_RECEIVERS='1'b and VM_HEADER.STATUS.BROADCAST='1'b then
     1667    27759    5               do;
     1668    27760    5                   CALL XUR$ERRMSG (E_ANSBROAD);
PL6.E3A0      #001=VMO$MAIL File=VMO$MAIL.:VMB6TSI                               WED 08/20/97 15:19 Page:57
     1669    27761    5                   goto E_ANSWER;
     1670    27762    5               end;
     1671    27763    4               CALL VME$ANSWER (CURRENT_MESSAGE_NUMBER,USER_NAME,
     1672    27764    4                 OPT_RECEIVERS) ALTRET(E_ANSWER);
     1673    27765    4               CLOSE_SAVE.V.DCB# = M$WORK_NUM;
     1674    27766    4               CALL M$CLOSE (CLOSE_SAVE) ALTRET(E_PMME);
     1675    27767    4               CALL LINK_RUNIT
     1676    27768    4               WHENRETURN
     1677    27769    5               DO;
     1678    27770    5                   CALL VMD$GET_HEADER (CURRENT_MESSAGE_NUMBER,
     1679    27771    5                     M$MAIL_FILE_NUM) ALTRET(E_PMME);
     1680    27772    5               END;
     1681    27773    4               WHENALTRETURN
     1682    27774    5               DO;
     1683    27775    5                   CALL VMD$GET_HEADER (CURRENT_MESSAGE_NUMBER,
     1684    27776    5                     M$MAIL_FILE_NUM) ALTRET(E_PMME);
     1685    27777    5                   GOTO END_ANSWER;
     1686    27778    5               END;
     1687    27779    5               DO NEVER;
     1688    27780    5   E_ANSWER:                               /* Cleanup */
     1689    27781    5                   CLOSE_SCRATCH.V.DCB# = M$WORK_NUM;
     1690    27782    5                   CALL M$CLOSE (CLOSE_SCRATCH) ALTRET(E_PMME);
     1691    27783    5               END;                  /* Do never ... end */
     1692    27784    4               INDX1 = INDX1 + 1;
     1693    27785    4           END;                       /* Do forever ... end */
     1694    27786    3   END_ANSWER:
     1695    27787    3           IF INDX1 = 0
     1696    27788    3           THEN
     1697    27789    3               CALL REPORT_ACTIVITY (INDX1,VM_NO_MESSAGE_FMT,%YES#,E_NO_MESSAGE_FMT);
     1698    27790        %EJECT;
PL6.E3A0      #001=VMO$MAIL File=VMO$MAIL.:VMB6TSI                               WED 08/20/97 15:19 Page:58
     1699    27791        /* Null command.  Look for <lf> and <eod> */
     1700    27792    3       CASE(%CMD_BLANK);
     1701    27793    3           if dcbaddr(M$CMNDF_NUM)->F$DCB.FCD# = '1'B
     1702    27794    3           then substr(NEXT_COMMAND_TEXT.NAME#,2,1) = dcbaddr(M$CMNDF_NUM)->F$DCB.
             27794                    EOMCHAR#;
     1703    27795    3           else substr(NEXT_COMMAND_TEXT.NAME#,2,1) = dcbaddr(M$SI_NUM   )->F$DCB.
             27795                    EOMCHAR#;
     1704    27796
     1705    27797    3           if substr(NEXT_COMMAND_TEXT.NAME#,2,1) = BITASC('012'O) /* Lf */
     1706    27798    4           THEN DO;
     1707    27799                    %INIT_STR (CODE=E_NEXT_CMD, STR=VM_NEXT_CMD, NEXT_CMD=NEXT_COMMAND_TEXT,
             27799                        TEST=YES);
     1708    27822    4           END;
     1709    27823    3           else
     1710    27824    3               if substr(NEXT_COMMAND_TEXT.NAME#,2,1) = BITASC('004'O) /* Eod */
     1711    27825    4               then do;
     1712    27826                        %INIT_STR (CODE=E_PREVIOUS_CMD, STR=VM_PREVIOUS_CMD, NEXT_CMD=
             27826                            NEXT_COMMAND_TEXT, TEST=YES);
     1713    27849    4               END;
     1714    27850                                                /* Otherwise do nothing */
     1715    27851        %EJECT;
PL6.E3A0      #001=VMO$MAIL File=VMO$MAIL.:VMB6TSI                               WED 08/20/97 15:19 Page:59
     1716    27852        /* Copy and move commands */
     1717    27853    3       CASE (%CMD_COPY_MESSAGE);
     1718    27854    3           CALL NEED_FOLDER ALTRET(CONTINUE);
     1719    27855    3           GOTO COPY_MOVE;
     1720    27856    3       CASE (%CMD_MOVE_MESSAGE);
     1721    27857    3           CALL NEED_UPDATE ALTRET(CONTINUE);
     1722    27858    3   COPY_MOVE:
     1723    27859
     1724    27860    3           INDX1 = 0;                  /* Number of messages moved */
     1725    27861    3           INDX2 = 0;             /* Number of messages marked for deletion */
     1726    27862    3           IF NOT VM_SEARCH_INFO.ACTIVE THEN CALL VMA$OPEN_SRCH_LIST(VM_SEARCH_INFO);
     1727    27863    3           IF OUT$->P$B.NSUBLKS > 1
     1728    27864    4           THEN DO;
     1729    27865    4               CALL INIT$SELECT_OPTS (OUT$->P$B.SUBLK$(0),%CMD_COPY_MESSAGE) ALTRET(
             27865                        CONTINUE);
     1730    27866    4           END;
     1731    27867        /*
     1732    27868            ***** Set break type so that break control routine can perform cleanup
     1733    27869            ***** in case a break is hit.
     1734    27870        */
     1735    27871    3           FOLDER_WAS_OPEN = %YES#;
     1736    27872    3           BREAK_TYPE = CURR_COMMAND_CODE;
     1737    27873        /*
     1738    27874             ***** Open the destination ...
     1739    27875        */
     1740    27876    3           IF OUT$->P$B.NSUBLKS = 1
     1741    27877    4           THEN DO;
     1742    27878    4               CALL VMB$USE_SPECIFIED (OUT$->P$B.SUBLK$(0),USER_NAME,
     1743    27879    4                 VM_WORK_FOLDER,M$WORK_NUM,
     1744    27880    4                 VM_SEARCH_INFO,%UPDATE#) ALTRET(CANT_COPY);
     1745    27881    4           END;
     1746    27882    4           ELSE DO;
     1747    27883    4               CALL VMB$USE_SPECIFIED (OUT$->P$B.SUBLK$(1),
     1748    27884    4                 USER_NAME,VM_WORK_FOLDER,M$WORK_NUM,VM_SEARCH_INFO,
     1749    27885    4                 %UPDATE#) ALTRET(CANT_COPY);
     1750    27886    4           END;
     1751    27887    3           IF VM_WORK_FOLDER.FLAGS.UPDATE = %NO#
PL6.E3A0      #001=VMO$MAIL File=VMO$MAIL.:VMB6TSI                               WED 08/20/97 15:19 Page:60
     1752    27888    4           THEN DO;
     1753    27889    4               CALL XUR$ERRMSG(E_NOTALLOW);
     1754    27890    4               GOTO CANT_COPY;
     1755    27891    4           END;
     1756    27892        /*
     1757    27893             ***** Stash the profile for the current folder and
     1758    27894                   get the profile for the destination folder ...
     1759    27895        */
     1760    27896    3           PRINT_HEADER# = VM_PROFILE.OPT.HEADERS;
     1761    27897    3           IF VM_CURRENT_FOLDER.FLAGS.UPDATE = %YES#
     1762    27898    3           THEN
     1763    27899    3               CALL PUT_PROFILE (M$MAIL_FILE_NUM) ALTRET(E_PMME);
     1764    27900    3           VM_CURRENT_FOLDER.FLAGS.OPEN = %NO#; /* This keeps
     1765    27901                                           a bad profile record being written if we get
     1766    27902                                           ctl-y or otherwise xconed. */
     1767    27903    3           CALL VMD$GET_PROFILE (M$WORK_NUM) ALTRET(E_COPY);
     1768    27904        /*
     1769    27905             ***** Now move the messages ...
     1770    27906        */
     1771    27907    3           ENQ_PROFILE.V.DCB# = M$WORK_NUM;
     1772    27908    3           DEQ_PROFILE.V.DCB# = M$WORK_NUM;
     1773    27909    4           DO FOREVER;
     1774    27910    4               CALL M$ENQ (ENQ_PROFILE);
     1775    27911    4               CALL VMD$GET_PROFILE(M$WORK_NUM) ALTRET(E_COPY);
     1776    27912    4               CALL GET$MESSAGE ALTRET(END_COPY);
     1777    27913        /*
     1778    27914             ***** Display the header of the message if necessary ...
     1779    27915        */
     1780    27916    4               IF PRINT_HEADER#
     1781    27917    4               THEN
     1782    27918    4                   CALL VMD$DI_HEADER (VM_HEADER,CURRENT_MESSAGE_NUMBER,M$ME_NUM);
     1783    27919    4               CALL XUR$DISABLE;
     1784    27920    4               INDX1 = INDX1 + 1;
     1785    27921    4               COMBINED = %YES#;
     1786    27922    4               CALL VMM$COMBINE_MESSAGE (M$MAIL_FILE_NUM, CURRENT_MESSAGE_NUMBER,
             27922                        M$WORK_NUM)
     1787    27923    5               WHENALTRETURN DO;
PL6.E3A0      #001=VMO$MAIL File=VMO$MAIL.:VMB6TSI                               WED 08/20/97 15:19 Page:61
     1788    27924    5                   COMBINED = %NO#;
     1789    27925    5               END;
     1790    27926    4               CALL VMD$GET_HEADER (CURRENT_MESSAGE_NUMBER, M$MAIL_FILE_NUM);
     1791    27927    4               IF NOT COMBINED OR NOT VM_PROFILE.OPT.COMBINE
     1792    27928    4                 OR NOT (VM_HEADER.STATUS.ACK OR VM_HEADER.STATUS.RRACK
     1793    27929    4                 OR VM_HEADER.STATUS.DELIVERY)
     1794    27930    5               THEN DO;
     1795    27931    5                   VM_PROFILE.HI_MESSAGE_NUMBER = VM_PROFILE.HI_MESSAGE_NUMBER + 1;
     1796    27932    5                   VM_PROFILE.NUM_MESSAGES = VM_PROFILE.NUM_MESSAGES + 1;
     1797    27933    5                   IF CURR_COMMAND_CODE = %CMD_COPY_MESSAGE
     1798    27934    5                   THEN
     1799    27935    5                       VM_HEADER.STATUS.RR = %NO#;
     1800    27936    5                   VM_HEADER.STATUS.DEL = %NO#;
     1801    27937    5                   IF VM_HEADER.STATUS.MAKE_OLD
     1802    27938    6                   THEN DO;
     1803    27939    6                       VM_HEADER.STATUS.OLD = %YES#;
     1804    27940    6                       VM_HEADER.STATUS.MAKE_OLD = %NO#;
     1805    27941    6                   END;
     1806    27942    5                   IF NOT VM_HEADER.STATUS.OLD
     1807    27943    5                   THEN
     1808    27944    5                       VM_PROFILE.NUM_NEW_MESSAGES = VM_PROFILE.NUM_NEW_MESSAGES + 1;
     1809    27945    5                   CALL VMM$COPY_MESSAGE (CURRENT_MESSAGE_NUMBER, VM_PROFILE.
             27945                            HI_MESSAGE_NUMBER, M$MAIL_FILE_NUM, M$WORK_NUM) ALTRET (E_COPY);
     1810    27946    5               END;
     1811    27947        /*
     1812    27948             ***** If move command, then delete the current message ...
     1813    27949        */
     1814    27950    4               IF CURR_COMMAND_CODE = %CMD_MOVE_MESSAGE
     1815    27951    4               THEN
     1816    27952    5               DO;              /* Special move processing */
     1817    27953    5                   CALL VMD$GET_HEADER (CURRENT_MESSAGE_NUMBER,
     1818    27954    5                     M$MAIL_FILE_NUM) ALTRET(E_COPY);
     1819    27955    5                   IF VM_HEADER.STATUS.DEL = %NO#
     1820    27956    5                   THEN      /* Not yet marked for deletion */
     1821    27957    6                   DO;   /* Mark for deletion */
     1822    27958    6                       VM_HEADER.STATUS.DEL = %YES#;
     1823    27959    6                       CALL VMD$PUT_HEADER (CURRENT_MESSAGE_NUMBER,
PL6.E3A0      #001=VMO$MAIL File=VMO$MAIL.:VMB6TSI                               WED 08/20/97 15:19 Page:62
     1824    27960    6                         M$MAIL_FILE_NUM) ALTRET(E_COPY);
     1825    27961    6                       INDX2 = INDX2 + 1;
     1826    27962    6                   END;
     1827    27963    5               END;             /* Special move processing */
     1828    27964                  /* write profile and deq to give mailman a change to deliver, just
     1829    27965                     in case he's been waiting */
     1830    27966    4               CALL VMD$PUT_PROFILE(M$WORK_NUM) ALTRET(E_COPY);
     1831    27967    4               CALL M$DEQ (DEQ_PROFILE) ALTRET (E_COPY);
     1832    27968    4               CALL XUR$ENABLE;
     1833    27969    4           END;                       /* Do forever ... end */
     1834    27970        /*
     1835    27971             ***** Update the profile in the destination folder ...
     1836    27972        */
     1837    27973    3   END_COPY:
     1838    27974        /*
     1839    27975             ***** Report how many messages were copied or moved ...
     1840    27976        */
     1841    27977    3           CALL REPORT_ACTIVITY (INDX1,VM_MSGS_COPIED_FMT,%YES#,E_MSGS_COPIED_FMT);
     1842    27978    3           IF INDX2 > 0
     1843    27979    4           THEN DO;         /* Tell how many messages marked for deletion */
     1844    27980    4               CALL REPORT_ACTIVITY (INDX2,VM_MSGS_DELETED_FMT,%YES#,E_MSGS_DELETED_FMT
             27980                        );
     1845    27981    4           END;
     1846    27982        /*
     1847    27983             ***** Report any unexpected error ...
     1848    27984        */
     1849    27985    4           DO NEVER;
     1850    27986    4   E_COPY:
     1851    27987    4               ERROR = B$TCB.ALT$ -> B$ALT.ERR;
     1852    27988    4               CALL XUR$ERRMSG(ERROR,M$WORK_NUM);
     1853    27989    4               CALL XUR$ERRMSG(E_FOLDEROLD,M$WORK_NUM);
     1854    27990    4           END;
     1855    27991    3   CANT_COPY:
     1856    27992        /*
     1857    27993             ***** Make sure the destination folder is closed ...
     1858    27994        */
     1859    27995    3           IF DCBADDR(M$WORK_NUM) -> F$DCB.FCD#
PL6.E3A0      #001=VMO$MAIL File=VMO$MAIL.:VMB6TSI                               WED 08/20/97 15:19 Page:63
     1860    27996    4           THEN DO;
     1861    27997    4               CLOSE_SAVE.V.DCB# = M$WORK_NUM;
     1862    27998    4               CALL M$CLOSE (CLOSE_SAVE) ALTRET(E_PMME);
     1863    27999    4           END;
     1864    28000    3           VM_WORK_FOLDER.FLAGS.OPEN = %NO#;
     1865    28001        /*
     1866    28002             ***** Restore the profile for the current folder ...
     1867    28003        */
     1868    28004    3           CALL VMD$GET_PROFILE (M$MAIL_FILE_NUM) ALTRET(BAD_PROFILE);
     1869    28005    3           VM_PROFILE.NUM_DEL_MESSAGES = VM_PROFILE.NUM_DEL_MESSAGES + INDX2;
     1870    28006        /*
     1871    28007             ***** Reset special break controls ...
     1872    28008        */
     1873    28009    3           BREAK_TYPE = 0;
     1874    28010    3           VM_CURRENT_FOLDER.FLAGS.OPEN = %YES#;
     1875    28011        %EJECT;
PL6.E3A0      #001=VMO$MAIL File=VMO$MAIL.:VMB6TSI                               WED 08/20/97 15:19 Page:64
     1876    28012        /* Count command */
     1877    28013    3       CASE (%CMD_COUNT_MESSAGE);
     1878    28014    3           CALL NEED_FOLDER ALTRET(CONTINUE);
     1879    28015    3           IF OUT$ -> P$B.NSUBLKS > 0
     1880    28016    3           THEN                       /* There are options */
     1881    28017    3               CALL INIT$SELECT_OPTS (OUT$->P$B.SUBLK$(0),%CMD_COUNT_MESSAGE) ALTRET(
             28017                        CONTINUE);
     1882    28018    3           INDX1 = 0;
     1883    28019
     1884    28020    4           DO FOREVER;
     1885    28021
     1886    28022    4               CALL GET$MESSAGE ALTRET(END_COUNT);
     1887    28023    4               INDX1 = INDX1 + 1;
     1888    28024    4           END;                       /* Do forever */
     1889    28025    3   END_COUNT:
     1890    28026    3           CALL REPORT_ACTIVITY (INDX1,VM_COUNT_FMT,%YES#,E_COUNT_FMT);
     1891    28027        %EJECT;
PL6.E3A0      #001=VMO$MAIL File=VMO$MAIL.:VMB6TSI                               WED 08/20/97 15:19 Page:65
     1892    28028        /* Create folder command */
     1893    28029    3       CASE(%CMD_CREATE_FOLDER);
     1894    28030    3           CALL XUR$DISABLE;
     1895    28031        /*
     1896    28032             ***** Initialize the address variables ...
     1897    28033        */
     1898    28034    3           VM_RADDRESS.ACCT = VM_CENTRAL_FOLDER.ACCT;
     1899    28035    3           VM_RADDRESS.FOLDER = VM_CENTRAL_FOLDER.FOLDER;
     1900    28036    3           VM_RADDRESS.PASS = ' ';
     1901    28037    3           VM_RADDRESS.SITENAME = ' ';
     1902    28038                                                /*
     1903    28039                       ***** Repeat this loop once for each piece of the address ...
     1904    28040                       */
     1905    28041    3           IF OUT$ -> P$B.NSUBLKS > 0
     1906    28042    3           THEN
     1907    28043    4           DO;
     1908    28044    4               BLK$ = OUT$ -> P$B.SUBLK$(0);
     1909    28045    5               DO INDX1 = 0 TO BLK$ -> P$B.NSUBLKS - 1;
     1910    28046    5                   PTR1$ = BLK$ -> P$B.SUBLK$(INDX1);
     1911    28047    6                   DO CASE (PTR1$ -> P$B.CODE);
     1912    28048    6                   CASE (%ADD_ACCT);
     1913    28049    6                       VM_RADDRESS.ACCT = PTR1$ -> P$S.TEXT;
     1914    28050    6                   CASE (%ADD_FOLDER);
     1915    28051    6                       VM_RADDRESS.FOLDER = PTR1$ -> P$S.TEXT;
     1916    28052    6                   CASE (%ADD_NAME);
     1917    28053    6                       CALL XUR$ERRMSG (E_NAMENTALLOWED);
     1918    28054    6                       GOTO CONTINUE;
     1919    28055    6                   CASE (%ADD_PASS);
     1920    28056    6                       VM_RADDRESS.PASS = PTR1$ -> P$S.TEXT;
     1921    28057    6                   END;       /* Do case ... end */
     1922    28058    5               END;             /* Do INDX1 = ... end */
     1923    28059    4           END;
     1924    28060        /*
     1925    28061             ***** Now create the folder ...
     1926    28062        */
     1927    28063    3           VM_WORK_FOLDER.FLAGS = %NO#;
     1928    28064    3           CALL VMA$OPEN_FOLDER (VM_WORK_FOLDER,ADDR(VM_RADDRESS),
PL6.E3A0      #001=VMO$MAIL File=VMO$MAIL.:VMB6TSI                               WED 08/20/97 15:19 Page:66
     1929    28065    3             M$WORK_NUM,%ERROR#,%CREATE#) ALTRET(CANT_CREATE_FOLDER);
     1930    28066    3           VM_WORK_FOLDER.FLAGS.FOLDER_SPEC = '1'B;
     1931    28067    3           VM_WORK_FOLDER.SITENAME=' ';
     1932    28068    3           WORK_STRING.L#=SIZEC(WORK_STRING.NAME#);
     1933    28069    3           CALL GET_FOLDERNAME (VM_WORK_FOLDER);
     1934    28070    3           CALL XUR$INFOMSG (E_CREATE_MSG_FMT,, M$ME_NUM,VECTOR(WORK_STRING));
     1935    28071        /*
     1936    28072             ***** Give this folder a profile.
     1937    28073                   First store away our current profile,
     1938    28074                   reset important fields, write this profile
     1939    28075                   into the newly created folder, and then get
     1940    28076                   back the profile for our current folder ...
     1941    28077        */
     1942    28078    3           IF VM_CURRENT_FOLDER.FLAGS.UPDATE
     1943    28079    3           THEN                       /* Ok to stash profile */
     1944    28080    3               CALL PUT_PROFILE (M$MAIL_FILE_NUM) ALTRET(E_PMME);
     1945    28081    3           VM_PROFILE = CVM_PROFILE;
     1946    28082    3           VM_PROFILE.FREE$ = ADDR(NIL);
     1947    28083    3           VM_PROFILE.NEXT$ = ADDR(VM_PROFILE.WORK_AREA);
     1948    28084    3           CALL CONCAT (VM_PROFILE.NAME_KEY,B$JIT.ACCN,B$JIT.UNAME);
     1949    28085                %INIT_STR (CODE=E_MAIL_SETUP, STR=VM_MAIL_SETUP, TEST=YES);
     1950    28108    3           VM_PROFILE.SETUP.COUNT = VM_MAIL_SETUP.L#;
     1951    28109    3           VM_PROFILE.SETUP.TEXT = VM_MAIL_SETUP.NAME#;
     1952    28110    3           CALL VMD$PUT_PROFILE (M$WORK_NUM) ALTRET(E_PMME);
     1953    28111        /*
     1954    28112             ***** Close the file with disp=save so that the
     1955    28113                   file will be entered into the catalog. ...
     1956    28114        */
     1957    28115    3           CLOSE_SAVE.V.DCB# = M$WORK_NUM;
     1958    28116    3           CALL M$CLOSE (CLOSE_SAVE) ALTRET(E_PMME);
     1959    28117        /**/
     1960    28118    4           DO NEVER;
     1961    28119    4   CANT_CREATE_FOLDER:
     1962    28120    4               ERROR = B$TCB.ALT$ -> B$ALT.ERR;
     1963    28121    4               CALL XUR$ERRMSG(E_CRFERR);
     1964    28122    4               CALL XUR$ERRMSG (ERROR,M$WORK_NUM);
     1965    28123    4           END;                       /* Do never ... end */
PL6.E3A0      #001=VMO$MAIL File=VMO$MAIL.:VMB6TSI                               WED 08/20/97 15:19 Page:67
     1966    28124        /*
     1967    28125             ***** Get profile for the current folder back ...
     1968    28126        */
     1969    28127    3           IF VM_CURRENT_FOLDER.FLAGS.OPEN
     1970    28128    3           THEN                       /* A folder is open */
     1971    28129    3               CALL VMD$GET_PROFILE (M$MAIL_FILE_NUM) ALTRET(BAD_PROFILE);
     1972    28130        %EJECT;
PL6.E3A0      #001=VMO$MAIL File=VMO$MAIL.:VMB6TSI                               WED 08/20/97 15:19 Page:68
     1973    28131        /* Create list command */
     1974    28132    3       CASE(%CMD_CREATE_LIST);
     1975    28133    3           CALL NEED_UPDATE ALTRET(CONTINUE);
     1976    28134        /*E*    ERROR: VMO-E$LISTEXISTS-0
     1977    28135                MESSAGE: List %U1 already exists.
     1978    28136        */
     1979    28137        /*
     1980    28138             ***** Repeat this loop once for each list name defined ...
     1981    28139        */
     1982    28140    4           DO INDX1 = 0 TO OUT$ -> P$B.NSUBLKS - 1;
     1983    28141    4               BLK$ = OUT$ -> P$B.SUBLK$(INDX1);
     1984    28142        /*
     1985    28143             ***** Check if a list with this name exists ...
     1986    28144        */
     1987    28145    4               VM_LISTKEY.TEXT = BLK$ -> P$B.SUBLK$(0) -> P$S.TEXT;
     1988    28146    4               CALL VMA$GET_LIST (VM_LISTKEY,VM_ADDLIST$,
     1989    28147    4                 M$MAIL_FILE_NUM) ALTRET(E_CRLIST1);
     1990    28148        /*
     1991    28149             ***** It does exist...
     1992    28150                   Bug!!!
     1993    28151        */
     1994    28152    4               CALL XUR$ERRMSG (E_LISTEXISTS,,,
     1995    28153    4                 VECTOR(BLK$->P$B.SUBLK$(0)->P$S.TEXTC$->X$STRING));
     1996    28154    4               GOTO CREATE_LIST_END;
     1997    28155        /*
     1998    28156             ***** If attempting to create a global list,
     1999    28157                   first check to see if a user with this
     2000    28158                   name already exists. If so, then error ...
     2001    28159        */
     2002    28160    4   E_CRLIST1:  ;
     2003    28161    4               FPT_CORRES.V.DCB1# = M$MAIL_FILE_NUM;
     2004    28162    4               FPT_CORRES.V.DCB2# = M$MAIL_GLOBAL_NUM;
     2005    28163    4               CALL M$CORRES (FPT_CORRES) ALTRET(E_CRLIST2);
     2006    28164    4               GOTO E_CRLIST3;       /* Not same file */
     2007    28165    4   E_CRLIST2:  ;
     2008    28166    4               VM_USERKEY.TEXT = VM_LISTKEY.TEXT;
     2009    28167    4               CALL VMA$GET_LIST (VM_USERKEY,VM_ADDLIST$,
PL6.E3A0      #001=VMO$MAIL File=VMO$MAIL.:VMB6TSI                               WED 08/20/97 15:19 Page:69
     2010    28168    4                 M$MAIL_FILE_NUM) ALTRET(E_CRLIST3);
     2011    28169        /*
     2012    28170             ***** It does exist...
     2013    28171                   Bug!!!
     2014    28172        */
     2015    28173    4               CALL XUR$ERRMSG (E_USEREXISTS,,,
     2016    28174    4                 VECTOR(BLK$->P$B.SUBLK$(0)->P$S.TEXTC$->X$STRING));
     2017    28175    4               GOTO CREATE_LIST_END;
     2018    28176        /*
     2019    28177             ***** Ok to create the list ...
     2020    28178        */
     2021    28179    4   E_CRLIST3:  ;
     2022    28180        /*
     2023    28181             ***** Initialize VM_ADD_HEAD ...
     2024    28182        */
     2025    28183    4               VM_ADD_HEAD.NUM_ENTRIES = 0;
     2026    28184        /*
     2027    28185             ***** Repeat this loop once for each address in the definition ...
     2028    28186        */
     2029    28187    5               DO INDX2 = 1 TO BLK$ -> P$B.NSUBLKS - 1;
     2030    28188    5                   PTR2$ = BLK$ -> P$B.SUBLK$(INDX2);
     2031    28189        /*
     2032    28190             ***** Initialize the address variables ...
     2033    28191        */
     2034    28192    5                   ADDRESS_ACCT.ACCT# = ' ';
     2035    28193    5                   ADDRESS_NAME.L# = 0;
     2036    28194    5                   ADDRESS_NAME.NAME# = ' ';
     2037    28195    5                   ADDRESS_FOLDER = ' ';
     2038    28196    5                   ADDRESS_PASS.PASS# = ' ';
     2039    28197    5                   ADDRESS_SITENAME = ' ';
     2040    28198    5                   DOMAIN$ = ADDR(NIL);
     2041    28199                                                /*
     2042    28200                       ***** Repeat this loop once for each piece of the address ...
     2043    28201                       */
     2044    28202    6                   DO INDX3 = 0 TO PTR2$ -> P$B.NSUBLKS - 1;
     2045    28203    6                       PTR3$ = PTR2$ -> P$B.SUBLK$(INDX3);
     2046    28204    7                       DO CASE (PTR3$ -> P$B.CODE);
PL6.E3A0      #001=VMO$MAIL File=VMO$MAIL.:VMB6TSI                               WED 08/20/97 15:19 Page:70
     2047    28205    7                       CASE (%ADD_ACCT);
     2048    28206    7                           ADDRESS_ACCT.ACCT# = PTR3$ -> P$S.TEXT;
     2049    28207    7                       CASE (%ADD_FOLDER);
     2050    28208    7                           ADDRESS_FOLDER = PTR3$ -> P$S.TEXT;
     2051    28209    7                       CASE (%ADD_NAME);
     2052    28210    7                           ADDRESS_NAME.NAME# = PTR3$ -> P$S.TEXT;
     2053    28211    7                           ADDRESS_NAME.L# = PTR3$ -> P$S.COUNT;
     2054    28212    7                       CASE (%ADD_PASS);
     2055    28213    7                           ADDRESS_PASS.PASS# = PTR3$ -> P$S.TEXT;
     2056    28214    7                       CASE (%ADD_SITE);
     2057    28215    7                           ADDRESS_SITENAME = PTR3$ -> P$S.TEXT;
     2058    28216    7                       CASE (%ADD_DOMAIN);
     2059    28217    7                           DOMAIN$ = PTR3$;
     2060    28218    7                       END;      /* Do case ... end */
     2061    28219    6                   END;            /* Do INDX3 = ... end */
     2062    28220    5                   CALL TRANSFORM_DOMAIN (DOMAIN$, ADDRESS_SITENAME, ADDRESS_NAME)
     2063    28221    5                     ALTRET (CREATE_LIST_END);
     2064    28222        /*
     2065    28223             ***** Add this entry to the address list ...
     2066    28224        */
     2067    28225    5                   IF ADDRESS_ACCT.ACCT# = ' '
     2068    28226    5                     AND ADDRESS_NAME.NAME# = ' '
     2069    28227    5                   THEN           /* Fill in default */
     2070    28228    6                   DO;
     2071    28229    6                       IF SUBSTR(USER_NAME.NAME#,0,1) = '.'
     2072    28230    6                       THEN /* User is not registered */
     2073    28231    7                       DO;
     2074    28232    7                           ADDRESS_ACCT.ACCT# = SUBSTR(USER_NAME.NAME#,1);
     2075    28233    7                           ADDRESS_NAME.L# = 0;
     2076    28234    7                       END;
     2077    28235    6                       ELSE /* User is registered */
     2078    28236    7                       DO;
     2079    28237    7                           ADDRESS_NAME.L# = USER_NAME.L#;
     2080    28238    7                           ADDRESS_NAME.NAME# = USER_NAME.NAME#;
     2081    28239    7                       END;
     2082    28240    6                   END;
     2083    28241    5                   IF ADDRESS_NAME.L# ~= 0
PL6.E3A0      #001=VMO$MAIL File=VMO$MAIL.:VMB6TSI                               WED 08/20/97 15:19 Page:71
     2084    28242    5                   THEN           /* Store as unresolved address */
     2085    28243    6                   DO;
     2086    28244    6                       CALL VMA$ADD_UENTRY_SORTED (ADDRESS_NAME,ADDRESS_FOLDER,
     2087    28245    6                         ADDRESS_PASS,ADDRESS_SITENAME) ALTRET(E_PMME);
     2088    28246    6                   END;
     2089    28247    5                   ELSE           /* Store as resolved address */
     2090    28248    6                   DO;
     2091    28249    6                       CALL VMA$ADD_RENTRY_SORTED (ADDRESS_ACCT,ADDRESS_FOLDER,
     2092    28250    6                         ADDRESS_PASS,ADDRESS_SITENAME) ALTRET(E_PMME);
     2093    28251    6                   END;
     2094    28252    5               END;                  /* Do INDX2 = ... End */
     2095    28253        /*
     2096    28254             ***** Store the completed list ...
     2097    28255        */
     2098    28256    4               CALL VMA$PUT_LIST (VM_LISTKEY,VM_ADDLIST$,
     2099    28257    4                 M$MAIL_FILE_NUM) ALTRET(E_PMME);
     2100    28258    4   CREATE_LIST_END:
     2101    28259    4           END;                       /* Do INDX1 = ... end */
     2102    28260        %EJECT;
PL6.E3A0      #001=VMO$MAIL File=VMO$MAIL.:VMB6TSI                               WED 08/20/97 15:19 Page:72
     2103    28261        /* Create user command */
     2104    28262    3       CASE(%CMD_CREATE_USER);
     2105    28263        /*
     2106    28264             ***** A user definition consists of two parts:
     2107    28265                   1) a definition of where the user's mailbox resides.
     2108    28266                   2) the logon (accn,uname) that uniquely identifies this user.
     2109    28267
     2110    28268                   The first part is stored just as a list definition,
     2111    28269                   except for a different key to identify it as a user
     2112    28270                   rather than a list. The second part is stored in a
     2113    28271                   seperate file, i.e. :NAME.:MAIL ...
     2114    28272
     2115    28273                   The address spec (part one) is stored in the global
     2116    28274                   folder. The user must use this folder in order to
     2117    28275                   create a user definition. Otherwise, error!!!
     2118    28276        */
     2119    28277        /*E*    ERROR: VMO-E$USEREXISTS-0
     2120    28278                MESSAGE: User %U1 already exists.
     2121    28279        */
     2122    28280    3           CALL NEED_GLOBAL ALTRET(CONTINUE);
     2123    28281        /*
     2124    28282             ***** Check if this user already exists ...
     2125    28283        */
     2126    28284    3           VM_USERKEY.TEXT = OUT$ -> P$B.SUBLK$(0) -> P$S.TEXT;
     2127    28285        /*
     2128    28286             First see if the name is blank, blow him away is it is
     2129    28287        */
     2130    28288    3           IF VM_USERKEY.TEXT = ' '
     2131    28289    4           THEN DO;
     2132    28290    4               CALL XUR$ERRMSG(E_BLANKUSER);
     2133    28291    4               GOTO CONTINUE;
     2134    28292    4           END;
     2135    28293    3           CALL VMA$GET_LIST (VM_USERKEY,VM_ADDLIST$,
     2136    28294    3             M$MAIL_FILE_NUM) ALTRET(E_CRUSER1);
     2137    28295        /*
     2138    28296             ***** It does exist...
     2139    28297                   Bug!!!
PL6.E3A0      #001=VMO$MAIL File=VMO$MAIL.:VMB6TSI                               WED 08/20/97 15:19 Page:73
     2140    28298        */
     2141    28299    3           CALL XUR$ERRMSG (E_USEREXISTS,,,
     2142    28300    3             VECTOR(OUT$->P$B.SUBLK$(0)->P$S.TEXTC$->X$STRING));
     2143    28301    3           GOTO CREATE_USER_END2;
     2144    28302    3   E_CRUSER1: ;
     2145    28303        /*
     2146    28304             ***** Check if a list with this name exists ...
     2147    28305        */
     2148    28306    3           VM_LISTKEY.TEXT = VM_USERKEY.TEXT;
     2149    28307    3           CALL VMA$GET_LIST (VM_LISTKEY,VM_ADDLIST$,
     2150    28308    3             M$MAIL_FILE_NUM) ALTRET(E_CRUSER2);
     2151    28309        /*
     2152    28310             ***** It does exist...
     2153    28311                   Bug!!!
     2154    28312        */
     2155    28313    3           CALL XUR$ERRMSG (E_LISTEXISTS,,,
     2156    28314    3             VECTOR(OUT$->P$B.SUBLK$(0)->P$S.TEXTC$->X$STRING));
     2157    28315    3           GOTO CREATE_USER_END2;
     2158    28316        /*
     2159    28317             ***** Ok to create the user ...
     2160    28318        */
     2161    28319    3   E_CRUSER2: ;
     2162    28320        /*
     2163    28321             ***** Open the reverse name map file ...
     2164    28322        */
     2165    28323    3           CALL XUR$DISABLE;
     2166    28324    3           CALL M$OPEN (OPEN_NAME_MAP) ALTRET(E_PMME);
     2167    28325        /*
     2168    28326             ***** Initialize VM_ADD_HEAD ...
     2169    28327        */
     2170    28328    3           VM_ADD_HEAD.NUM_ENTRIES = 0;
     2171    28329    4           DO INDX1 = 1 TO OUT$ -> P$B.NSUBLKS - 1;
     2172    28330    4               BLK$ = OUT$ -> P$B.SUBLK$(INDX1);
     2173    28331        /*
     2174    28332             ***** Initialize the address variables ...
     2175    28333        */
     2176    28334    4               ADDRESS_ACCT.ACCT# = ' ';
PL6.E3A0      #001=VMO$MAIL File=VMO$MAIL.:VMB6TSI                               WED 08/20/97 15:19 Page:74
     2177    28335    4               ADDRESS_NAME.L# = 0;
     2178    28336    4               ADDRESS_NAME.NAME# = ' ';
     2179    28337    4               ADDRESS_FOLDER = ' ';
     2180    28338    4               ADDRESS_PASS.PASS# = ' ';
     2181    28339    4               ADDRESS_SITENAME = VM_SITENAME;
     2182    28340    4               ADDRESS_LACCN.ACCT# = ' '; /* Logon accn */
     2183    28341    4               ADDRESS_LUNAME = ' '; /* Logon uname */
     2184    28342    4               DOMAIN$ = ADDR(NIL);
     2185    28343        /*
     2186    28344             ***** Repeat this loop once for each part of the definition ...
     2187    28345        */
     2188    28346    5               DO INDX2 = 0 TO BLK$ -> P$B.NSUBLKS - 1;
     2189    28347    5                   PTR2$ = BLK$ -> P$B.SUBLK$(INDX2);
     2190    28348    6                   DO CASE (PTR2$ -> P$B.CODE);
     2191    28349    6                   CASE (%ADD_ACCT);
     2192    28350    6                       ADDRESS_LACCN.ACCT# = PTR2$ -> P$S.TEXT;
     2193    28351    6                   CASE (%ADD_UNAME);
     2194    28352    6                       ADDRESS_LUNAME = PTR2$ -> P$S.TEXT;
     2195    28353    6                   CASE (%ADD_ADDRESS);
     2196    28354                                                /*
     2197    28355                       ***** Repeat this loop once for each piece of the address ...
     2198    28356                       */
     2199    28357    7                       DO INDX3 = 0 TO PTR2$ -> P$B.NSUBLKS - 1;
     2200    28358    7                           PTR3$ = PTR2$ -> P$B.SUBLK$(INDX3);
     2201    28359    8                           DO CASE (PTR3$ -> P$B.CODE);
     2202    28360    8                           CASE (%ADD_ACCT);
     2203    28361    8                               ADDRESS_ACCT.ACCT# = PTR3$ -> P$S.TEXT;
     2204    28362    8                           CASE (%ADD_FOLDER);
     2205    28363    8                               ADDRESS_FOLDER = PTR3$ -> P$S.TEXT;
     2206    28364    8                           CASE (%ADD_NAME);
     2207    28365    8                               ADDRESS_NAME.NAME# = PTR3$ -> P$S.TEXT;
     2208    28366    8                               ADDRESS_NAME.L# = PTR3$ -> P$S.COUNT;
     2209    28367    8                           CASE (%ADD_PASS);
     2210    28368    8                               ADDRESS_PASS.PASS# = PTR3$ -> P$S.TEXT;
     2211    28369    8                           CASE (%ADD_SITE);
     2212    28370    8                               ADDRESS_SITENAME = PTR3$ -> P$S.TEXT;
     2213    28371    8                           CASE (%ADD_DOMAIN);
PL6.E3A0      #001=VMO$MAIL File=VMO$MAIL.:VMB6TSI                               WED 08/20/97 15:19 Page:75
     2214    28372    8                               DOMAIN$ = PTR3$;
     2215    28373    8                           END; /* Do case ... end */
     2216    28374    7                       END;      /* Do INDX3 = ... end */
     2217    28375    6                   END;            /* Do CASE(PTR2$) */
     2218    28376    5               END;                  /* Do INDX2 */
     2219    28377    4               CALL TRANSFORM_DOMAIN (DOMAIN$, ADDRESS_SITENAME, ADDRESS_NAME)
     2220    28378    4                 ALTRET (CREATE_USER_END);
     2221    28379        /*
     2222    28380             ***** Fill in default values ...
     2223    28381        */
     2224    28382    4               IF ADDRESS_ACCT.ACCT# = ' '
     2225    28383    4               THEN
     2226    28384    4                   ADDRESS_ACCT.ACCT# = ADDRESS_LACCN.ACCT#;
     2227    28385    4               ELSE IF ADDRESS_LACCN.ACCT# = ' ' THEN
     2228    28386    4                       ADDRESS_LACCN.ACCT# = ADDRESS_ACCT.ACCT#;
     2229    28387        /*
     2230    28388             ***** Store the reverse name map info if available ...
     2231    28389        */
     2232    28390    4               IF ADDRESS_LACCN.ACCT# ~= ' '
     2233    28391    4                 AND (ADDRESS_SITENAME = VM_SITENAME
     2234    28392    4                 OR ADDRESS_SITENAME = ' ')
     2235    28393    4               THEN                 /* Info avail */
     2236    28394    5               DO;
     2237    28395    5                   CALL CONCAT (NAME_KEY.NAME#,ADDRESS_LACCN.ACCT#,
     2238    28396    5                     ADDRESS_LUNAME);
     2239    28397    5                   NAME_KEY.L# = 20;
     2240    28398    5                   WRITE_NAME_MAP.BUF_ = VECTOR(OUT$ -> P$B.SUBLK$(0)
     2241    28399    5                     -> P$S.TEXT);
     2242    28400        /*
     2243    28401             ***** Check if this NAME_MAP entry already exists.
     2244    28402                   If it does, then error!!!
     2245    28403        */
     2246    28404    5                   CALL M$READ (READ_NAME_MAP)
     2247    28405    5                   WHENRETURN
     2248    28406    6                   DO;
     2249    28407    6                       IF OUT$->P$B.SUBLK$(0)->P$S.TEXT ~= SUBSTR(WORK_STRING.NAME#,
     2250    28408    6                         0, DCBADDR(DCBNUM(M$NAME)) -> F$DCB.ARS#)
PL6.E3A0      #001=VMO$MAIL File=VMO$MAIL.:VMB6TSI                               WED 08/20/97 15:19 Page:76
     2251    28409    7                       THEN DO;
     2252    28410    7                           IF DCBADDR(DCBNUM(M$NAME)) -> F$DCB.ARS# <= 31
     2253    28411    7                           THEN
     2254    28412    7                               WORK_STRING.L# = DCBADDR(DCBNUM(M$NAME)) -> F$DCB.ARS#;
     2255    28413    8                           ELSE DO;
     2256    28414    8                               WORK_STRING.L# = 31;
     2257    28415    8                               SUBSTR (WORK_STRING.NAME#,28,3) = '...';
     2258    28416    8                           END;
     2259    28417    7                           CALL XUR$ERRMSG (E_NMENTRYEXISTS,,,
     2260    28418    7                             VECTOR(NAME_KEY),VECTOR(WORK_STRING));
     2261    28419    7                           GOTO CREATE_USER_END;
     2262    28420    7                       END;
     2263    28421    6                   END;
     2264    28422    5                   CALL M$WRITE (WRITE_NAME_MAP) ALTRET(E_PMME);
     2265    28423    5               END;
     2266    28424    4               ELSE
     2267    28425    5               DO;
     2268    28426    5                   NAME_KEY.L# = 0;
     2269    28427    5                   NAME_KEY.NAME# = ' ';
     2270    28428    5               END;
     2271    28429        /*
     2272    28430             ***** Add this entry to the user list ...
     2273    28431        */
     2274    28432    4   ITS_OK:     IF ADDRESS_NAME.L# ~= 0
     2275    28433    4               THEN                 /* Store as unresolved address */
     2276    28434    5               DO;
     2277    28435    5                   CALL VMA$ADD_UENTRY_SORTED (ADDRESS_NAME,
     2278    28436    5                     ADDRESS_FOLDER,
     2279    28437    5                     ADDRESS_PASS,ADDRESS_SITENAME,%NO#,NAME_KEY.
     2280    28438    5                     NAME#) ALTRET(E_PMME);
     2281    28439    5               END;
     2282    28440    4               ELSE                 /* Store as resolved address */
     2283    28441    5               DO;
     2284    28442    5                   CALL VMA$ADD_RENTRY_SORTED (ADDRESS_ACCT,
     2285    28443    5                     ADDRESS_FOLDER,
     2286    28444    5                     ADDRESS_PASS,ADDRESS_SITENAME,%NO#,NAME_KEY.
     2287    28445    5                     NAME#) ALTRET(E_PMME);
PL6.E3A0      #001=VMO$MAIL File=VMO$MAIL.:VMB6TSI                               WED 08/20/97 15:19 Page:77
     2288    28446    5               END;
     2289    28447        /*
     2290    28448             ***** Store the completed list ...
     2291    28449        */
     2292    28450    4           END;
     2293    28451    3           CALL VMA$PUT_LIST (VM_USERKEY,VM_ADDLIST$,M$MAIL_FILE_NUM)
     2294    28452    3             ALTRET(E_PMME);
     2295    28453    3   CREATE_USER_END:
     2296    28454    3           CLOSE_SAVE.V.DCB# = DCBNUM(M$NAME);
     2297    28455    3           CALL M$CLOSE (CLOSE_SAVE) ALTRET(E_PMME);
     2298    28456    3   CREATE_USER_END2:
     2299    28457    3           CALL XUR$ENABLE;
     2300    28458        %EJECT;
PL6.E3A0      #001=VMO$MAIL File=VMO$MAIL.:VMB6TSI                               WED 08/20/97 15:19 Page:78
     2301    28459        /* Delete folder command */
     2302    28460    3       CASE (%CMD_DELETE_FOLDER);
     2303    28461        /*
     2304    28462             ***** Look at folders in the user's file directory acct ...
     2305    28463        */
     2306    28464    3           INDX2 = 0;                  /* Used as counter */
     2307    28465    3           VM_RADDRESS.ACCT = VM_CENTRAL_FOLDER.ACCT;
     2308    28466    3           VM_RADDRESS.FOLDER = 'CENTRAL';   /* Default is CENTRAL folder */
     2309    28467    3           VM_RADDRESS.PASS = ' ';
     2310    28468    3           VM_RADDRESS.SITENAME = ' ';
     2311    28469    3           VM_RADDRESS.TYPE = %VM_ADD_RESOLVED;
     2312    28470    3           IF OUT$ -> P$B.NSUBLKS ~= 0
     2313    28471    3           THEN
     2314    28472    4           DO;                    /* Pick up options */
     2315    28473    4               BLK$ = OUT$ -> P$B.SUBLK$(0);
     2316    28474        /*
     2317    28475             ***** Repeat this loop once for each piece of the address ...
     2318    28476        */
     2319    28477    5               DO INDX1 = 0 TO BLK$ -> P$B.NSUBLKS - 1;
     2320    28478    5                   PTR1$ = BLK$ -> P$B.SUBLK$(INDX1);
     2321    28479    6                   DO CASE (PTR1$ -> P$B.CODE);
     2322    28480    6                   CASE (%ADD_ACCT);
     2323    28481    6                       VM_RADDRESS.ACCT = PTR1$ -> P$S.TEXT;
     2324    28482    6                   CASE (%ADD_FOLDER);
     2325    28483    6                       VM_RADDRESS.FOLDER = PTR1$ -> P$S.TEXT;
     2326    28484    6                   CASE (%ADD_NAME);
     2327    28485    6                       CALL XUR$ERRMSG (E_NAMENTALLOWED);
     2328    28486    6                       GOTO CONTINUE;
     2329    28487    6                   CASE (%ADD_PASS);
     2330    28488    6                       VM_RADDRESS.PASS = PTR1$ -> P$S.TEXT;
     2331    28489    6                   END;       /* Do case ... end */
     2332    28490    5               END;             /* Do INDX1 = ... end */
     2333    28491    4           END;                  /* Pick up options */
     2334    28492        /**/
     2335    28493    3           IF VM_CURRENT_FOLDER.ACCT = VM_RADDRESS.ACCT
     2336    28494    3             AND VM_CURRENT_FOLDER.FOLDER = VM_RADDRESS.FOLDER
     2337    28495    4           THEN DO;
PL6.E3A0      #001=VMO$MAIL File=VMO$MAIL.:VMB6TSI                               WED 08/20/97 15:19 Page:79
     2338    28496    4               CALL XUR$ERRMSG (E_CANTDELCUR);
     2339    28497    4               GOTO CONTINUE;
     2340    28498    4           END;
     2341    28499    3           FID_ACCT.ACCT# = VM_RADDRESS.ACCT;
     2342    28500    3           FID_PASS.PASS# = VM_RADDRESS.PASS;
     2343    28501    3           CLOSE_SCRATCH.V.DCB# = M$WORK_NUM;
     2344    28502        /*
     2345    28503             ***** Wildcard specified ???
     2346    28504        */
     2347    28505    3           IF VM_RADDRESS.FOLDER = 'CENTRAL'
     2348    28506    3           THEN                       /* Supply name of central folder */
     2349    28507    3               VM_RADDRESS.FOLDER = VM_CENTRAL_FOLDER.FOLDER;
     2350    28508    3           WILDCARD_PATTERN = VM_RADDRESS.FOLDER;
     2351    28509    3           CALL INDEX(INDX1,'?',WILDCARD_PATTERN)
     2352    28510    4           WHENRETURN DO;
     2353    28511    4               WILD = %YES#;
     2354    28512    4           END;
     2355    28513    4           WHENALTRETURN DO;
     2356    28514    4               WILD = %NO#;
     2357    28515    4           END;
     2358    28516    3           CALL INDEX(INDX1,' ',WILDCARD_PATTERN);
     2359    28517    3           VM_WILDCARD.PATTERN_ = VECTOR(SUBSTR(WILDCARD_PATTERN,0,INDX1));
     2360    28518    3           OPEN_NEXT.NAME_ = VECTOR(FID_NAME);
     2361    28519    3           FID_NAME.NAME# = ':MAIL_';
     2362    28520    3           FID_NAME.L# = LENGTHC(':MAIL_');
     2363    28521    3           CALL GET_WILD_FOLDER ALTRET(END_DEL_FOLDER);
     2364    28522    3           OPEN_NEXT.NAME_ = VECTOR(NIL);
     2365    28523    4           DO FOREVER;
     2366    28524    4               CALL M$CLOSE (CLOSE_SCRATCH)
     2367    28525    5               WHENRETURN DO;
     2368    28526    5                   INDX2 = INDX2 + 1;
     2369    28527    5               END;
     2370    28528    5               WHENALTRETURN DO;
     2371    28529    5                   ERROR = B$TCB.ALT$->B$ALT.ERR;
     2372    28530    5                   CALL XUR$ERRMSG (E_CANTDELF);
     2373    28531    5                   CALL XUR$ERRMSG (ERROR,M$WORK_NUM);
     2374    28532    5               END;
PL6.E3A0      #001=VMO$MAIL File=VMO$MAIL.:VMB6TSI                               WED 08/20/97 15:19 Page:80
     2375    28533        /*
     2376    28534             ***** If wildcard specified, loop to process other matches ...
     2377    28535        */
     2378    28536    4               IF NOT WILD
     2379    28537    4               THEN
     2380    28538    4                   GOTO END_DEL_FOLDER;
     2381    28539    4               CALL GET_WILD_FOLDER ALTRET(END_DEL_FOLDER);
     2382    28540    4           END;                       /* Do forever ... end */
     2383    28541        /*
     2384    28542             ***** Get the profile for the current folder ...
     2385    28543        */
     2386    28544    3   END_DEL_FOLDER:
     2387    28545    3           CALL REPORT_ACTIVITY (INDX2,VM_FOLDER_DELETED_FMT,%NO#,E_FOLDER_DELETED_FMT)
             28545                    ;
     2388    28546        %EJECT;
PL6.E3A0      #001=VMO$MAIL File=VMO$MAIL.:VMB6TSI                               WED 08/20/97 15:19 Page:81
     2389    28547        /* Delete list command */
     2390    28548    3       CASE (%CMD_DELETE_LIST);
     2391    28549    3           CALL NEED_UPDATE ALTRET(CONTINUE);
     2392    28550    3           INDX2 = 0;                  /* Used as counter */
     2393    28551    3           CALL INDEX(INDX1,'?',OUT$->P$B.SUBLK$(0)->P$S.TEXT) ALTRET(
     2394    28552    3             NON_WILD_DEL_LIST);
     2395    28553    3           VM_WILDCARD.PATTERN_ = VECTOR(OUT$->P$B.SUBLK$(0)->P$S.TEXT);
     2396    28554    3           CALL XLATE (OUT$->P$B.SUBLK$(0)->P$S.TEXT, LOWER_UPPER,
     2397    28555    3             OUT$->P$B.SUBLK$(0)->P$S.TEXT);
     2398    28556    3           VM_LISTKEY.TEXT = ' ';      /* Start at first entry */
     2399    28557    3           VM_LISTKEY2 = VM_LISTKEY;   /* Remember previous entry */
     2400    28558    3           CALL VMA$GET_LIST_NEXT (VM_LISTKEY,VM_ADDLIST$,M$MAIL_FILE_NUM) ALTRET(
     2401    28559    3             END_DEL_LIST);
     2402    28560    4           DO FOREVER;
     2403    28561    4               VM_WILDCARD.INPUT_ = VECTOR(SUBSTR(VM_LISTKEY.TEXT,0,
     2404    28562    4                 VM_LISTKEY.COUNT-1)); /* One less for type */
     2405    28563    4               CALL X$WILDCMP (VM_WILDCARD)
     2406    28564    4               WHENRETURN
     2407    28565    5               DO;
     2408    28566    5                   CALL VMA$DEL_LIST (VM_LISTKEY,,M$MAIL_FILE_NUM) ALTRET(E_PMME);
     2409    28567    5                   INDX2 = INDX2 + 1;
     2410    28568    5               END;
     2411    28569    4               WHENALTRETURN
     2412    28570    5               DO;
     2413    28571    5                   VM_LISTKEY2 = VM_LISTKEY; /* New previous entry */
     2414    28572    5               END;
     2415    28573    4               VM_LISTKEY = VM_LISTKEY2; /* Previous needed to find next */
     2416    28574    4               CALL VMA$GET_LIST_NEXT (VM_LISTKEY,VM_ADDLIST$,M$MAIL_FILE_NUM)
     2417    28575    4                 ALTRET(END_DEL_LIST);
     2418    28576    4           END;                       /* Do forever ... end */
     2419    28577        /*
     2420    28578             ***** Handle non-wild case ...
     2421    28579        */
     2422    28580    4           DO NEVER;
     2423    28581    4   NON_WILD_DEL_LIST:
     2424    28582    4               VM_LISTKEY.TEXT = OUT$->P$B.SUBLK$(0)->P$S.TEXT;
     2425    28583    4               CALL VMA$DEL_LIST (VM_LISTKEY,VM_ADDLIST$,M$MAIL_FILE_NUM)
PL6.E3A0      #001=VMO$MAIL File=VMO$MAIL.:VMB6TSI                               WED 08/20/97 15:19 Page:82
     2426    28584    4               WHENALTRETURN
     2427    28585    5               DO;
     2428    28586    5                   IF B$TCB.ALT$ -> B$ALT.ERR.CODE = %E$NOKEY
     2429    28587    5                   THEN
     2430    28588    6                   DO;
     2431    28589    6                       CALL XUR$ERRMSG(E_NOLIST);
     2432    28590    6                       GOTO CONTINUE;
     2433    28591    6                   END;
     2434    28592    5                   ELSE
     2435    28593    5                       GOTO E_PMME;
     2436    28594    5               END;
     2437    28595    4               INDX2 = INDX2 + 1;
     2438    28596    4           END;                       /* Do never ... end */
     2439    28597    3   END_DEL_LIST: ;
     2440    28598    3           CALL REPORT_ACTIVITY (INDX2,VM_LISTS_DELETED_FMT,%NO#,E_LISTS_DELETED_FMT);
     2441    28599        %EJECT;
PL6.E3A0      #001=VMO$MAIL File=VMO$MAIL.:VMB6TSI                               WED 08/20/97 15:19 Page:83
     2442    28600        /* Delete user command */
     2443    28601    3       CASE (%CMD_DELETE_USER);
     2444    28602    3           CALL NEED_GLOBAL ALTRET(CONTINUE);
     2445    28603        /*
     2446    28604             ***** Open the reverse name map file ...
     2447    28605        */
     2448    28606    3           CALL XUR$DISABLE;
     2449    28607    3           CALL M$OPEN (OPEN_NAME_MAP) ALTRET(E_PMME);
     2450    28608    3           INDX2 = 0;                  /* Used as counter */
     2451    28609    3           CALL INDEX(INDX1,'?',OUT$->P$B.SUBLK$(0)->P$S.TEXT) ALTRET(
     2452    28610    3             NON_WILD_DEL_USER);
     2453    28611    3           VM_WILDCARD.PATTERN_ = VECTOR(OUT$->P$B.SUBLK$(0)->P$S.TEXT);
     2454    28612    3           CALL XLATE (OUT$->P$B.SUBLK$(0)->P$S.TEXT, LOWER_UPPER,
     2455    28613    3             OUT$->P$B.SUBLK$(0)->P$S.TEXT);
     2456    28614    3           VM_USERKEY.TEXT = ' ';      /* Start at first entry */
     2457    28615    3           VM_USERKEY2 = VM_USERKEY;   /* Remember previous entry */
     2458    28616    3           CALL VMA$GET_LIST_NEXT (VM_USERKEY,VM_ADDLIST$,M$MAIL_FILE_NUM) ALTRET(
     2459    28617    3             END_DEL_USER);
     2460    28618    4           DO FOREVER;
     2461    28619    4               VM_WILDCARD.INPUT_ = VECTOR(SUBSTR(VM_USERKEY.TEXT,0,
     2462    28620    4                 VM_USERKEY.COUNT-1)); /* One less for type */
     2463    28621    4               CALL X$WILDCMP (VM_WILDCARD)
     2464    28622    4               WHENRETURN
     2465    28623    5               DO;
     2466    28624        /*
     2467    28625             ***** Delete all reverse name map records for this user ...
     2468    28626        */
     2469    28627    5                   CALL DEL_NAMEMAP_ENTRIES ALTRET(END_DEL_USER);
     2470    28628        /*
     2471    28629             ***** Now delete the record ...
     2472    28630        */
     2473    28631    5                   CALL VMA$DEL_LIST (VM_USERKEY,,M$MAIL_FILE_NUM) ALTRET(E_PMME);
     2474    28632    5                   INDX2 = INDX2 + 1;
     2475    28633    5               END;
     2476    28634    4               WHENALTRETURN
     2477    28635    5               DO;
     2478    28636    5                   VM_USERKEY2 = VM_USERKEY; /* New previous entry */
PL6.E3A0      #001=VMO$MAIL File=VMO$MAIL.:VMB6TSI                               WED 08/20/97 15:19 Page:84
     2479    28637    5               END;
     2480    28638    4               VM_USERKEY = VM_USERKEY2; /* Previous needed to find next */
     2481    28639    4               CALL VMA$GET_LIST_NEXT (VM_USERKEY,VM_ADDLIST$,M$MAIL_FILE_NUM)
     2482    28640    4                 ALTRET(END_DEL_USER);
     2483    28641    4           END;                       /* Do forever ... end */
     2484    28642        /*
     2485    28643             ***** Handle non-wild case ...
     2486    28644        */
     2487    28645    4           DO NEVER;
     2488    28646    4   NON_WILD_DEL_USER:
     2489    28647    4               VM_USERKEY.TEXT = OUT$->P$B.SUBLK$(0)->P$S.TEXT;
     2490    28648    4               CALL VMA$GET_LIST (VM_USERKEY,VM_ADDLIST$,M$MAIL_FILE_NUM) ALTRET(
     2491    28649    4                 END_DEL_USER);
     2492    28650    4               CALL DEL_NAMEMAP_ENTRIES;
     2493    28651    4               CALL VMA$DEL_LIST (VM_USERKEY,VM_ADDLIST$,M$MAIL_FILE_NUM) ALTRET(
     2494    28652    4                 E_PMME);
     2495    28653    4               INDX2 = INDX2 + 1;
     2496    28654    4           END;                       /* Do never ... end */
     2497    28655    3   END_DEL_USER: ;
     2498    28656        /*
     2499    28657             ***** Close the reverse name map ...
     2500    28658        */
     2501    28659    3           CLOSE_SAVE.V.DCB# = DCBNUM(M$NAME);
     2502    28660    3           CALL M$CLOSE (CLOSE_SAVE) ALTRET(E_PMME);
     2503    28661    3           CALL XUR$ENABLE;
     2504    28662    3           CALL REPORT_ACTIVITY (INDX2,VM_USERS_DELETED_FMT,%NO#,E_USERS_DELETED_FMT);
     2505    28663        %EJECT;
PL6.E3A0      #001=VMO$MAIL File=VMO$MAIL.:VMB6TSI                               WED 08/20/97 15:19 Page:85
     2506    28664        /* Delete message command */
     2507    28665    3       CASE (%CMD_DELETE_MESSAGE);
     2508    28666    3           CALL NEED_UPDATE ALTRET(CONTINUE);
     2509    28667    3           CALL INIT$SELECT_OPTS (OUT$->P$B.SUBLK$(0),%CMD_DELETE_MESSAGE) ALTRET(
     2510    28668    3             CONTINUE);
     2511    28669    3           INDX1 = 0;                  /* Used as counter */
     2512    28670    3           NONE = %YES#;
     2513    28671    4           DO FOREVER;
     2514    28672    4               CALL GET$MESSAGE ALTRET(END_DELETE);
     2515    28673    4               NONE = %NO#;
     2516    28674        /*
     2517    28675             ***** Only delete messages that have been listed before
     2518    28676                   and that have not already been deleted.
     2519    28677        */
     2520    28678    4               IF (VM_HEADER.STATUS.OLD = %YES#
     2521    28679    4                 OR VM_HEADER.STATUS.MAKE_OLD = %YES#)
     2522    28680    4                 AND VM_HEADER.STATUS.DEL ~= %YES#
     2523    28681    5               THEN DO;             /* Message has been listed */
     2524    28682    5                   IF VM_PROFILE.OPT.HEADERS
     2525    28683    5                   THEN
     2526    28684    5                       CALL VMD$DI_HEADER(VM_HEADER,CURRENT_MESSAGE_NUMBER,M$ME_NUM);
     2527    28685    5                   CALL XUR$DISABLE;
     2528    28686    5                   VM_HEADER.STATUS.DEL = %YES#;
     2529    28687    5                   IF VM_PROFILE.LOW_DEL_NUM > CURRENT_MESSAGE_NUMBER
     2530    28688    5                   THEN VM_PROFILE.LOW_DEL_NUM = CURRENT_MESSAGE_NUMBER;
     2531    28689    5                   CALL VMD$PUT_HEADER (CURRENT_MESSAGE_NUMBER,M$MAIL_FILE_NUM)
     2532    28690    5                     ;
     2533    28691    5                   VM_PROFILE.NUM_DEL_MESSAGES = VM_PROFILE.NUM_DEL_MESSAGES +
     2534    28692    5                     1;
     2535    28693    5                   CALL PUT_PROFILE (M$MAIL_FILE_NUM) ALTRET(WRITE_ERROR);
     2536    28694    5                   CALL XUR$ENABLE;
     2537    28695    5                   INDX1 = INDX1 + 1; /* Deletions */
     2538    28696    5               END;             /* Do ... end */
     2539    28697    4           END;                       /* Do forever ... end  */
     2540    28698
     2541    28699    3   END_DELETE: ;
     2542    28700    3           CALL REPORT_ACTIVITY (INDX1,VM_MSGS_DELETED_FMT,NONE,E_MSGS_DELETED_FMT);
PL6.E3A0      #001=VMO$MAIL File=VMO$MAIL.:VMB6TSI                               WED 08/20/97 15:19 Page:86
     2543    28701        %EJECT;
PL6.E3A0      #001=VMO$MAIL File=VMO$MAIL.:VMB6TSI                               WED 08/20/97 15:19 Page:87
     2544    28702        /* Detach command */
     2545    28703    3       CASE (%CMD_DETACH);
     2546    28704    3           CALL NEED_FOLDER
     2547    28705    4           WHENALTRETURN DO;
     2548    28706    4               CALL XUR$ERRMSG (E_NOCURFOLD);
     2549    28707    4               GOTO CONTINUE;
     2550    28708    4           END;
     2551    28709    3           CALL GET$MESSAGE ALTRET (END_DETACH);
     2552    28710                /* Make sure there are nclosure for this mailgram */
     2553    28711    4           IF VM_HEADER.STATUS.ENCL = %NO# THEN DO;
     2554    28712    4               CALL XUR$ERRMSG (E_NOENCLS);
     2555    28713    4               GOTO CONTINUE;
     2556    28714    4           END;
     2557    28715
     2558    28716    3           IF NOT ( CURRENT_CONTEXT%.MESSAGE_SET.HIGH(0) - CURRENT_CONTEXT%.MESSAGE_SET
             28716                    .LOW(0) = 0 AND
     2559    28717    4             CURRENT_CONTEXT%.TRUTH_TREE$ = ADDR(NIL)) THEN DO;
     2560    28718                   /* some message about only one message may
     2561    28719                      be selected when using the DETACH command */
     2562    28720    4               CALL XUR$ERRMSG (E_DETALLOWSONE);
     2563    28721    4               GOTO CONTINUE;
     2564    28722    4           END;
     2565    28723    4           ELSE DO;
     2566    28724
     2567    28725                   /* Loop thru the parse nodes */
     2568    28726
     2569    28727    5               DO INDX1 = 0 TO OUT$ -> P$B.NSUBLKS - 1;
     2570    28728    5                   PTR1$ = OUT$ -> P$B.SUBLK$(INDX1);
     2571    28729    6                   DO CASE (PTR1$ -> P$B.CODE);
     2572    28730    6                   CASE (%DET_ENCLNUM);
     2573    28731    6                       CALL CHARBIN(INDX2,PTR1$->P$S.TEXTC$->X$STRING.TEXT);
     2574    28732    6   GET_ENCL:           CALL VMA$GET_ADD_RECORD(%VM_TYPE_ENCL, VM_ENCLLIST_,
             28732            M$MAIL_FILE_NUM,CURRENT_MESSAGE_NUMBER)
     2575    28733    7                       WHENALTRETURN DO;
     2576    28734    8                           IF B$TCB.ALT$->B$ALT.ERR.CODE=%E$LD THEN DO;
     2577    28735    8                               VBOUND(VM_ENCLREC_) = VBOUND(VM_ENCLREC_) + PAGESIZE;
     2578    28736    8                               GOTO GET_ENCL;
PL6.E3A0      #001=VMO$MAIL File=VMO$MAIL.:VMB6TSI                               WED 08/20/97 15:19 Page:88
     2579    28737    8                           END;
     2580    28738    7                       END;
     2581    28739    6                       ENCL$ = VM_ENCL_HEAD.HEAD$;
     2582    28740    7   FIND_ENCL:          DO FOREVER;
     2583    28741    8                           IF VM_ENCLOS.TYPE - %VM_TYPE_ENCL = INDX2 THEN DO;
     2584    28742    9                               IF VM_ENCLOS.FLAGS.DELETED THEN DO;
     2585    28743    9                                   CALL XUR$ERRMSG (E_ENCLDELETED);
     2586    28744    9                                   GOTO CONTINUE;
     2587    28745    9                               END;
     2588    28746    8                               ELSE
     2589    28747    8                                   EXIT FIND_ENCL;
     2590    28748    8                           END;
     2591    28749    8                           ELSE IF VM_ENCLOS.NEXT$ = ADDR(NIL) THEN DO;
     2592    28750    8                                   CALL XUR$ERRMSG (E_ENCLNOTFOUND);
     2593    28751    8                                   GOTO CONTINUE;
     2594    28752    8                               END;
     2595    28753    7                           ENCL$ = VM_ENCLOS.NEXT$;
     2596    28754    7                       END;
     2597    28755    6                   CASE (%DET_DELETE);
     2598    28756    6                       DELETE_ENCL_FLAG = %YES#;
     2599    28757    6                   CASE (%DET_OPTS);
     2600    28758    6                       CALL XUR$OPENOUT (DCBNUM(M$ENCL),PTR1$->P$B,OPEN_ENCL)
     2601    28759    7                       WHENALTRETURN DO;
     2602    28760    7                           CALL XUR$ERRMSG(XUG$GETCMD.ERR#,M$OUT_NUM);
     2603    28761    7                           GOTO CONTINUE;
     2604    28762    7                       END;
     2605    28763    6                   END;
     2606    28764    5               END;  /* INDX1 */
     2607    28765
     2608    28766    5               DO INDX3 = 0 TO VM_ENCLOS.NRECS - 1;
     2609    28767    5                   CALL VMD$GET_ENCL(CURRENT_MESSAGE_NUMBER,M$MAIL_FILE_NUM,INDX3,COUNT
             28767                            ,,,,INDX2,VM_ENCLREC$)
     2610    28768    6                   WHENALTRETURN DO;
     2611    28769    6                       CALL XUR$ERRMSG(E_ENCLBROKEN);
     2612    28770    6                       EXIT;
     2613    28771    6                   END;
     2614    28772    5                   WRITE_ENCL.BUF_.BUF$ = PINCRW(VM_ENCLREC$,2);
PL6.E3A0      #001=VMO$MAIL File=VMO$MAIL.:VMB6TSI                               WED 08/20/97 15:19 Page:89
     2615    28773    5                   WRITE_ENCL.BUF_.BOUND = COUNT - 1;
     2616    28774    5                   IF (COUNT = 0) THEN WRITE_ENCL.BUF_.BOUND = 0;
     2617    28775    5                   CALL M$WRITE (WRITE_ENCL)
     2618    28776    6                   WHENALTRETURN DO;
     2619    28777    6                       CALL XUR$ERRMSG(B$TCB.ALT$->B$ALT.ERR, M$OUT_NUM);
     2620    28778    6                       GOTO CONTINUE;
     2621    28779    6                   END;
     2622    28780    5               END;
     2623    28781
     2624    28782    4               CLOSE_SAVE.V.DCB# = DCBNUM(M$ENCL);
     2625    28783    4               CALL M$CLOSE (CLOSE_SAVE);
     2626    28784
     2627    28785                    /* if the delete option was used or del_on_detach is
     2628    28786                       set then delete the enclosure, set the delete flag
     2629    28787                       and save the context record */
     2630    28788
     2631    28789    5               IF VM_PROFILE.OPT.DEL_ON_DETACH OR DELETE_ENCL_FLAG THEN DO;
     2632    28790    5                   CALL VMD$DEL_ENCL(CURRENT_MESSAGE_NUMBER,M$MAIL_FILE_NUM,0,VM_ENCLOS
             28790                            .NRECS,,,,INDX2,VM_ENCLREC$);
     2633    28791    5                   VM_ENCLOS.FLAGS.DELETED = %YES#;
     2634    28792    5                   CALL VMA$PUT_ADD_RECORD (%VM_TYPE_ENCL,VM_ENCLLIST_,M$MAIL_FILE_NUM,
             28792                            CURRENT_MESSAGE_NUMBER);
     2635    28793    5               END;
     2636    28794
     2637    28795    4           END;
     2638    28796    3   END_DETACH:;
     2639    28797    3           IF VM_ENCLOS.FLAGS.DELETED THEN
     2640    28798    3               CALL REPORT_ACTIVITY (INDX2,VM_DETACH_DELETE_OK_FMT,%YES#,
             28798                        E_DETACH_DELETE_OK_FMT);
     2641    28799    3           ELSE
     2642    28800    3               CALL REPORT_ACTIVITY (INDX2,VM_DETACH_OK_FMT,%YES#,E_DETACH_OK_FMT);
     2643    28801        %EJECT;
PL6.E3A0      #001=VMO$MAIL File=VMO$MAIL.:VMB6TSI                               WED 08/20/97 15:19 Page:90
     2644    28802        /* Display list command */
     2645    28803    3       CASE (%CMD_DISPLAY_LIST);
     2646    28804    3           CALL NEED_FOLDER ALTRET(CONTINUE);
     2647    28805    3           IF NOT VM_SEARCH_INFO.ACTIVE THEN CALL VMA$OPEN_SRCH_LIST(VM_SEARCH_INFO);
     2648    28806    3           INDX2 = 0;                  /* Used as counter */
     2649    28807    3           IF OUT$ -> P$B.NSUBLKS = 0
     2650    28808    4           THEN DO;    /* Display all lists in current folder */
     2651    28809    4   DI_LIST_ALL:
     2652    28810    4               VM_LISTKEY.TEXT = ' ';
     2653    28811    5               DO FOREVER;
     2654    28812    5                   CALL VMA$GET_LIST_NEXT (VM_LISTKEY,VM_ADDLIST$,
     2655    28813    5                     M$MAIL_FILE_NUM) ALTRET(END_DI_LIST);
     2656    28814    5                   CALL VMD$DI_LIST (VM_LISTKEY,OUTDCB);
     2657    28815    5                   INDX2 = INDX2 + 1;
     2658    28816    5               END;
     2659    28817    4           END;
     2660    28818    4           ELSE DO;
     2661    28819        /*
     2662    28820                ***** Handle output clause, if any ...
     2663    28821        */
     2664    28822    4               BLK$ = OUT$ -> P$B.SUBLK$ (OUT$ -> P$B.NSUBLKS - 1);
     2665    28823    4               IF BLK$ -> P$B.CODE = %OPT_OUTPUT
     2666    28824    5               THEN DO;
     2667    28825    5                   CALL XUR$OPENOUT (M$OUT_NUM, BLK$ -> P$B)
     2668    28826    6                   WHENRETURN DO;
     2669    28827    6                       OUTDCB = M$OUT_NUM;
     2670    28828    6                   END;
     2671    28829    6                   WHENALTRETURN DO;
     2672    28830    6                       CALL XUR$ERRMSG (XUG$GETCMD.ERR#,M$OUT_NUM);
     2673    28831    6                       GOTO CONTINUE;
     2674    28832    6                   END;
     2675    28833    5                   IF OUT$ -> P$B.NSUBLKS = 1
     2676    28834    5                   THEN            /* No listname specified */
     2677    28835    5                       GOTO DI_LIST_ALL;
     2678    28836    5               END;
     2679    28837        /*
     2680    28838                ***** Handle wildcarded list ...
PL6.E3A0      #001=VMO$MAIL File=VMO$MAIL.:VMB6TSI                               WED 08/20/97 15:19 Page:91
     2681    28839        */
     2682    28840    4               CALL INDEX(INDX1,'?',OUT$->P$B.SUBLK$(0)->P$S.TEXT) ALTRET(
     2683    28841    4                 NON_WILD_DI_LIST);
     2684    28842    4               VM_WILDCARD.PATTERN_ = VECTOR(OUT$->P$B.SUBLK$(0)->P$S.TEXT);
     2685    28843    4               CALL XLATE(OUT$->P$B.SUBLK$(0)->P$S.TEXT, LOWER_UPPER,
     2686    28844    4                 OUT$->P$B.SUBLK$(0)->P$S.TEXT);
     2687    28845    5               DO INDX3=0 TO VM_SEARCH_INFO.NUM_ENTRIES-1;
     2688    28846    5                   IF INDX1 = 0
     2689    28847    5                   THEN
     2690    28848    5                       VM_LISTKEY.TEXT = ' '; /* Start at first entry */
     2691    28849    6                   ELSE DO;
     2692    28850    6                       VM_LISTKEY.TEXT = OUT$ -> P$B.SUBLK$(0) -> P$S.TEXT;
     2693    28851    6                       SUBSTR (VM_LISTKEY.TEXT, INDX1) = ' ';
     2694    28852    6                       SUBSTR (VM_LISTKEY.TEXT, INDX1-1, 1) = BINASC(ASCBIN(SUBSTR(
             28852                                VM_LISTKEY.TEXT, INDX1-1, 1)) - 1);
     2695    28853    6                   END;
     2696    28854    5   LIST_LOOP:
     2697    28855    5                   CALL VMA$GET_LIST_NEXT (VM_LISTKEY,VM_ADDLIST$,
     2698    28856    5                     VM_SEARCH_INFO.DCB#(INDX3)) ALTRET(NO_MATCH_DI_LIST);
     2699    28857    5                   IF INDX1 > 0
     2700    28858    5                     AND SUBSTR(VM_LISTKEY.TEXT, 0, INDX1) > SUBSTR(OUT$ -> P$B.SUBLK$(
             28858                              0) -> P$S.TEXT, 0, INDX1)
     2701    28859    5                   THEN
     2702    28860    5                       GOTO NO_MATCH_DI_LIST;
     2703    28861    5                   VM_WILDCARD.INPUT_ = VECTOR(SUBSTR(VM_LISTKEY.TEXT,0,
     2704    28862    5                     VM_LISTKEY.COUNT-1)); /* One less for type */
     2705    28863    5                   CALL X$WILDCMP (VM_WILDCARD) ALTRET(LIST_LOOP);
     2706    28864    5                   CALL VMD$DI_LIST (VM_LISTKEY,OUTDCB,INDX3,VM_SEARCH_INFO);
     2707    28865    5                   INDX2 = INDX2 + 1;
     2708    28866    5                   GOTO LIST_LOOP;
     2709    28867    5   NO_MATCH_DI_LIST:
     2710    28868    5               END;
     2711    28869        /*
     2712    28870             ***** Handle non-wild case ...
     2713    28871        */
     2714    28872    5               DO NEVER;
     2715    28873    5   NON_WILD_DI_LIST:
PL6.E3A0      #001=VMO$MAIL File=VMO$MAIL.:VMB6TSI                               WED 08/20/97 15:19 Page:92
     2716    28874    5                   VM_LISTKEY.TEXT = OUT$->P$B.SUBLK$(0)->P$S.TEXT;
     2717    28875    6                   DO INDX3=0 TO VM_SEARCH_INFO.NUM_ENTRIES-1;
     2718    28876    6                       CALL VMA$GET_LIST (VM_LISTKEY,VM_ADDLIST$,
     2719    28877    6                         VM_SEARCH_INFO.DCB#(INDX3))
     2720    28878    7                       WHENRETURN DO;
     2721    28879    7                           INDX2 = INDX2 + 1;
     2722    28880    7                           CALL VMD$DI_LIST (VM_LISTKEY,OUTDCB,INDX3,VM_SEARCH_INFO);
     2723    28881    7                           GOTO END_DI_LIST;
     2724    28882    7                       END;
     2725    28883    6                   END;
     2726    28884    5               END;             /* Do never ... end */
     2727    28885    4           END;
     2728    28886    3   END_DI_LIST: ;
     2729    28887    3           IF INDX2 ~= 1 OR NOT DCBADDR(OUTDCB) -> F$DCB.DDEV.UCOUT#
     2730    28888    3           THEN
     2731    28889    3               CALL REPORT_ACTIVITY (INDX2,VM_LISTS_DISPLAYED_FMT,%NO#,
             28889                        E_LISTS_DISPLAYED_FMT);
     2732    28890        %EJECT;
PL6.E3A0      #001=VMO$MAIL File=VMO$MAIL.:VMB6TSI                               WED 08/20/97 15:19 Page:93
     2733    28891        /* Display message command */
     2734    28892    3       CASE (%CMD_DISPLAY_MESSAGE);
     2735    28893    3           CALL NEED_FOLDER ALTRET(CONTINUE);
     2736    28894    3           OPT_SEED = 0;
     2737    28895    3           OPT_SEED$ = ADDR(OPT_SEED);
     2738    28896    3           LAST_COMMAND_CODE = %CMD_DISPLAY_MESSAGE;
     2739    28897    4           DO INDX1 = 0 TO OUT$ -> P$B.NSUBLKS - 1;
     2740    28898    4               BLK$ = OUT$ -> P$B.SUBLK$(INDX1);
     2741    28899    5               DO CASE (BLK$ -> P$B.CODE);
     2742    28900    5               CASE (%OPT_CRPT);
     2743    28901    5                   CALL VMX$OCTBIN (BLK$->P$B.SUBLK$(0)->P$S,OPT_SEED);
     2744    28902    5                   IF OPT_SEED = 0
     2745    28903    5                   THEN /* allow display w/o decryption */
     2746    28904    5                       OPT_SEED$ = ADDR(NIL);
     2747    28905    5               CASE (%OPT_OUTPUT);
     2748    28906    5                   CALL XUR$OPENOUT (M$OUT_NUM, BLK$ -> P$B)
     2749    28907    6                   WHENRETURN DO;
     2750    28908    6                       OUTDCB = M$OUT_NUM;
     2751    28909    6                   END;
     2752    28910    6                   WHENALTRETURN DO;
     2753    28911    6                       CALL XUR$ERRMSG (XUG$GETCMD.ERR#,M$OUT_NUM);
     2754    28912    6                       GOTO CONTINUE;
     2755    28913    6                   END;
     2756    28914    5               CASE (%OPT_SELECT);
     2757    28915    5                   CALL INIT$SELECT_OPTS (BLK$,%CMD_DISPLAY_MESSAGE) ALTRET(
     2758    28916    5                     CONTINUE);
     2759    28917    5               END;             /* Do case ... end */
     2760    28918    4           END;                  /* Do INDX1 = ... end */
     2761    28919
     2762    28920    3           INDX2 = 0;                  /* Used as counter */
     2763    28921    3           NONE = %YES#;
     2764    28922    4           DO FOREVER;
     2765    28923    4   DI_NEXT:
     2766    28924    4               CALL GET$MESSAGE ALTRET(END_DISP);
     2767    28925    4               NONE = %NO#;
     2768    28926    4               VM_PROFILE.HI_MESSAGE_NUMBER =
     2769    28927    4                 MAXIMUM( VM_PROFILE.HI_MESSAGE_NUMBER , CURRENT_MESSAGE_NUMBER );
PL6.E3A0      #001=VMO$MAIL File=VMO$MAIL.:VMB6TSI                               WED 08/20/97 15:19 Page:94
     2770    28928    4               IF VM_HEADER.STATUS.CRYPT
     2771    28929    4                 AND OPT_SEED = 0
     2772    28930    4                 AND OPT_SEED$ ~= ADDR(NIL)
     2773    28931    5               THEN DO;
     2774    28932    5                   CALL VMD$DI_HEADER (VM_HEADER,CURRENT_MESSAGE_NUMBER,OUTDCB);
     2775    28933    5                   CALL XUR$ERRMSG (E_NEEDSEED);
     2776    28934    5                   GOTO DI_NEXT;
     2777    28935    5               END;
     2778    28936    4               IF VM_PROFILE.OPT.PAGE
     2779    28937    4               THEN                 /* Go to top of page */
     2780    28938    4                   CALL VMD$EJECT(OUTDCB) ALTRET(E_PMME);
     2781    28939    4               CALL VMD$DI_MESSAGE(CURRENT_MESSAGE_NUMBER,
     2782    28940    4                 OUTDCB,M$MAIL_FILE_NUM,OPT$SEED,%NO#)
     2783    28941    5               WHENALTRETURN DO;
     2784    28942    5                   CALL XUR$ERRMSG (E_DI_BADSEED);
     2785    28943    5                   GOTO DI_NEXT;
     2786    28944    5               END;
     2787    28945    4               INDX2 = INDX2 + 1;
     2788    28946    4               IF VM_CURRENT_FOLDER.FLAGS.UPDATE
     2789    28947    4               THEN
     2790    28948    5               DO;
     2791    28949    5                   IF VM_HEADER.STATUS.EXAM = %NO#
     2792    28950    5                     OR VM_HEADER.STATUS.OLD = %NO#
     2793    28951    5                   THEN      /* Must set these flags */
     2794    28952    6                   DO;
     2795    28953    6                       CALL XUR$DISABLE;
     2796    28954    6                       IF NOT VM_HEADER.STATUS.OLD
     2797    28955    6                         AND NOT VM_HEADER.STATUS.MAKE_OLD
     2798    28956    6                       THEN
     2799    28957    6                           MADE_OLD = %YES#;
     2800    28958    6                       VM_HEADER.STATUS.EXAM = %YES#;
     2801    28959    6                       VM_HEADER.STATUS.MAKE_OLD = %YES#;
     2802    28960    6                       CALL VMD$PUT_HEADER (CURRENT_MESSAGE_NUMBER,
     2803    28961    6                         M$MAIL_FILE_NUM);
     2804    28962    6                       VM_PROFILE.NUM_MOLD_MESSAGES = VM_PROFILE.NUM_MOLD_MESSAGES + 1;
     2805    28963    6                       CALL PUT_PROFILE (M$MAIL_FILE_NUM)
     2806    28964    6                         ALTRET(WRITE_ERROR);
PL6.E3A0      #001=VMO$MAIL File=VMO$MAIL.:VMB6TSI                               WED 08/20/97 15:19 Page:95
     2807    28965    6                       CALL XUR$ENABLE;
     2808    28966    6                   END;
     2809    28967    5                   ELSE
     2810    28968        /*
     2811    28969          **** This code should never get excercised. Profile record may not get
     2812    28970          **** updated if the system crashes. This will set the num_mold_messages
     2813    28971          **** so that updating occurs at exit which sets vm_header.status.old.
     2814    28972        */
     2815    28973    6                   DO;
     2816    28974    6                       IF VM_HEADER.STATUS.EXAM = %YES#
     2817    28975    6                         AND VM_HEADER.STATUS.MAKE_OLD = %YES#
     2818    28976    6                         AND VM_PROFILE.NUM_MOLD_MESSAGES = 0 THEN
     2819    28977    7                       DO;
     2820    28978    7                           VM_PROFILE.NUM_MOLD_MESSAGES =
     2821    28979    7                             VM_PROFILE.NUM_MESSAGES;
     2822    28980    7                           CALL XUR$DISABLE;
     2823    28981    7                           CALL PUT_PROFILE (M$MAIL_FILE_NUM)
     2824    28982    7                             ALTRET(WRITE_ERROR);
     2825    28983    7                           CALL XUR$ENABLE;
     2826    28984    7                       END;
     2827    28985    6                   END;
     2828    28986    5                   IF VM_HEADER.STATUS.RR
     2829    28987    5                   THEN
     2830    28988    6                   DO;
     2831    28989    6                       IF VM_HEADER.FROM$ -> X$STRING.TEXT ~=
     2832    28990    6                         USER_NAME.NAME#
     2833    28991    7                       THEN DO;
     2834    28992    7                           CALL DO$ACK (%NO#)
     2835    28993    8                           WHENRETURN DO;
     2836    28994    8                               VM_HEADER.STATUS.RR = %NO#;
     2837    28995    8                               CALL VMD$PUT_HEADER (CURRENT_MESSAGE_NUMBER,
             28995                                        M$MAIL_FILE_NUM);
     2838    28996    8                           END;
     2839    28997    7                       END;
     2840    28998    6                   END;
     2841    28999    5               END;
     2842    29000    4           END;                       /* Do forever ... end  */
PL6.E3A0      #001=VMO$MAIL File=VMO$MAIL.:VMB6TSI                               WED 08/20/97 15:19 Page:96
     2843    29001
     2844    29002    3   END_DISP: ;
     2845    29003    3           IF INDX2 ~= 1 OR NOT DCBADDR(OUTDCB) -> F$DCB.DDEV.UCOUT#
     2846    29004    3           THEN
     2847    29005    3               CALL REPORT_ACTIVITY (INDX2,VM_MSGS_DISPLAYED_FMT,NONE,
     2848    29006    3                 E_MSGS_DISPLAYED_FMT);
     2849    29007        %EJECT;
PL6.E3A0      #001=VMO$MAIL File=VMO$MAIL.:VMB6TSI                               WED 08/20/97 15:19 Page:97
     2850    29008        /* Display profile */
     2851    29009    3       CASE (%CMD_DISPLAY_PROFILE);
     2852    29010    3           CALL NEED_FOLDER ALTRET(CONTINUE);
     2853    29011    3           IF OUT$ -> P$B.NSUBLKS > 0
     2854    29012    4           THEN DO;
     2855    29013    4               CALL XUR$OPENOUT (M$OUT_NUM, OUT$ -> P$B.SUBLK$(0) -> P$B)
     2856    29014    5               WHENRETURN DO;
     2857    29015    5                   OUTDCB = M$OUT_NUM;
     2858    29016    5               END;
     2859    29017    5               WHENALTRETURN DO;
     2860    29018    5                   CALL XUR$ERRMSG (XUG$GETCMD.ERR#,M$OUT_NUM);
     2861    29019    5                   GOTO CONTINUE;
     2862    29020    5               END;
     2863    29021    4           END;
     2864    29022    3           CALL VMD$DI_PROFILE (OUTDCB);
     2865    29023        %EJECT;
PL6.E3A0      #001=VMO$MAIL File=VMO$MAIL.:VMB6TSI                               WED 08/20/97 15:19 Page:98
     2866    29024        /* Display status command */
     2867    29025    3       CASE (%CMD_DISPLAY_STATUS);
     2868    29026    3           CALL NEED_FOLDER ALTRET(CONTINUE);
     2869    29027    3           IF OUT$ -> P$B.NSUBLKS > 0
     2870    29028    4           THEN DO;
     2871    29029    4               CALL XUR$OPENOUT (M$OUT_NUM, OUT$ -> P$B.SUBLK$(0) -> P$B)
     2872    29030    5               WHENRETURN DO;
     2873    29031    5                   OUTDCB = M$OUT_NUM;
     2874    29032    5               END;
     2875    29033    5               WHENALTRETURN DO;
     2876    29034    5                   CALL XUR$ERRMSG (XUG$GETCMD.ERR#,M$OUT_NUM);
     2877    29035    5                   GOTO CONTINUE;
     2878    29036    5               END;
     2879    29037    4           END;
     2880    29038    3           F_FDSLO.DCB# = OUTDCB;
     2881    29039    3           F_FDSLO.NVECS# = 0;
     2882    29040        /**/
     2883    29041    3           WORK_STRING.L# = LENGTHC(WORK_STRING.NAME#);
     2884    29042    3           CALL VMF$MAKE_ADDRESS1 (WORK_STRING,VM_CURRENT_FOLDER);
     2885    29043    3           VECT_ARRAY(0) = VECTOR(SUBSTR(WORK_STRING.NAME#,0,
     2886    29044    3             WORK_STRING.L#));
     2887    29045                %INIT_STR (CODE=E_STATUS_FOLDER_FMT, STR=VM_STATUS_FOLDER_FMT,
     2888    29046                VECT="F_FDSLO.FMT_", TEST=YES);
     2889    29069    3           F_FDSLO.NVECS# = 1;
     2890    29070    3           CALL VMD$WRITE_BUF (F_FDSLO);
     2891    29071        /**/
     2892    29072    3           WORK_STRING.L# = LENGTHC(WORK_STRING.NAME#);
     2893    29073    3           CALL VMS$FMT_SELECT (CURRENT_CONTEXT%,WORK_STRING);
     2894    29074                %INIT_STR (CODE=E_STATUS_CCONTEXT_FMT, STR=VM_STATUS_CCONTEXT_FMT,
     2895    29075                VECT="F_FDSLO.FMT_", TEST=YES);
     2896    29098    3           VECT_ARRAY(0) = VECTOR(SUBSTR(WORK_STRING.NAME#,0,WORK_STRING.L#));
     2897    29099    3           CALL VMD$WRITE_BUF (F_FDSLO);
     2898    29100        /**/
     2899    29101    3           WORK_STRING.L# = LENGTHC(WORK_STRING.NAME#);
     2900    29102    3           CALL VMS$FMT_SELECT (SELECTED_CONTEXT%,WORK_STRING);
     2901    29103                %INIT_STR (CODE=E_STATUS_SCONTEXT_FMT, STR=VM_STATUS_SCONTEXT_FMT,
     2902    29104                VECT="F_FDSLO.FMT_", TEST=YES);
PL6.E3A0      #001=VMO$MAIL File=VMO$MAIL.:VMB6TSI                               WED 08/20/97 15:19 Page:99
     2903    29127    3           VECT_ARRAY(0) = VECTOR(SUBSTR(WORK_STRING.NAME#,0,WORK_STRING.L#));
     2904    29128    3           CALL VMD$WRITE_BUF (F_FDSLO);
     2905    29129        /**/
     2906    29130    3           IF SELECTED_CONTEXT%.MESSAGE_POINTER = -1
     2907    29131    3           THEN
     2908    29132    4           DO;
     2909    29133                    %INIT_STR (CODE=E_STATUS_POSITION_OUTSIDE_FMT, STR=
             29133                        VM_STATUS_POSITION_OUTSIDE_FMT,
     2910    29134                    VECT="F_FDSLO.FMT_", TEST=YES);
     2911    29157    4               F_FDSLO.NVECS# = 0;
     2912    29158    4           END;
     2913    29159    3           ELSE
     2914    29160    4           DO;
     2915    29161    4               VECT_ARRAY(0) = VECTOR(SELECTED_CONTEXT%.MESSAGE_POINTER);
     2916    29162                    %INIT_STR (CODE=E_STATUS_POSITION_FMT, STR=VM_STATUS_POSITION_FMT,
     2917    29163                    VECT="F_FDSLO.FMT_", TEST=YES);
     2918    29186    4               F_FDSLO.NVECS# = 1;
     2919    29187    4           END;
     2920    29188    3           CALL VMD$WRITE_BUF (F_FDSLO);
     2921    29189        /**/
     2922    29190    3           F_FDSLO.NVECS# = 1;
     2923    29191                %INIT_STR (CODE=E_STATUS_DMSGS_FMT, STR=VM_STATUS_DMSGS_FMT,
     2924    29192                VECT="F_FDSLO.FMT_", TEST=YES);
     2925    29215    3           VECT_ARRAY(0) = VECTOR(VM_PROFILE.NUM_DEL_MESSAGES);
     2926    29216    3           CALL VMD$WRITE_BUF (F_FDSLO);
     2927    29217        /**/
     2928    29218                %INIT_STR (CODE=E_STATUS_NMSGS_FMT, STR=VM_STATUS_NMSGS_FMT,
     2929    29219                VECT="F_FDSLO.FMT_", TEST=YES);
     2930    29242    3           VECT_ARRAY(0) = VECTOR(VM_PROFILE.NUM_NEW_MESSAGES);
     2931    29243    3           CALL VMD$WRITE_BUF (F_FDSLO);
     2932    29244        /**/
     2933    29245                %INIT_STR (CODE=E_STATUS_TMSGS_FMT, STR=VM_STATUS_TMSGS_FMT,
     2934    29246                VECT="F_FDSLO.FMT_", TEST=YES);
     2935    29269    3           VECT_ARRAY(0) = VECTOR(VM_PROFILE.NUM_MESSAGES);
     2936    29270    3           CALL VMD$WRITE_BUF (F_FDSLO);
     2937    29271        /**/
     2938    29272                %INIT_STR (CODE=E_STATUS_HMSGS_FMT, STR=VM_STATUS_HMSGS_FMT,
PL6.E3A0      #001=VMO$MAIL File=VMO$MAIL.:VMB6TSI                               WED 08/20/97 15:19 Page:100
     2939    29273                VECT="F_FDSLO.FMT_", TEST=YES);
     2940    29296    3           VECT_ARRAY(0) = VECTOR(VM_PROFILE.HI_MESSAGE_NUMBER);
     2941    29297    3           CALL VMD$WRITE_BUF (F_FDSLO);
     2942    29298        %EJECT;
PL6.E3A0      #001=VMO$MAIL File=VMO$MAIL.:VMB6TSI                               WED 08/20/97 15:19 Page:101
     2943    29299        /* Display user command */
     2944    29300    3       CASE (%CMD_DISPLAY_USER);
     2945    29301    3           INDX2 = 0;                  /* Used as counter */
     2946    29302    3           IF OUT$ -> P$B.NSUBLKS = 0
     2947    29303    4           THEN DO;    /* Display all user definitions */
     2948    29304    4   DI_USER_ALL:
     2949    29305    4               VM_USERKEY.TEXT = ' ';
     2950    29306    5               DO FOREVER;
     2951    29307    5                   CALL VMA$GET_LIST_NEXT (VM_USERKEY,VM_ADDLIST$,
     2952    29308    5                     M$MAIL_GLOBAL_NUM) ALTRET(END_DI_USER);
     2953    29309    5                   CALL VMD$DI_USER (VM_USERKEY,OUTDCB);
     2954    29310    5                   INDX2 = INDX2 + 1;
     2955    29311    5               END;
     2956    29312    4           END;
     2957    29313    4           ELSE DO;
     2958    29314        /*
     2959    29315                ***** Handle output clause, if any ...
     2960    29316        */
     2961    29317    4               BLK$ = OUT$ -> P$B.SUBLK$ (OUT$ -> P$B.NSUBLKS - 1);
     2962    29318    4               IF BLK$ -> P$B.CODE = %OPT_OUTPUT
     2963    29319    5               THEN DO;
     2964    29320    5                   CALL XUR$OPENOUT (M$OUT_NUM, BLK$ -> P$B)
     2965    29321    6                   WHENRETURN DO;
     2966    29322    6                       OUTDCB = M$OUT_NUM;
     2967    29323    6                   END;
     2968    29324    6                   WHENALTRETURN DO;
     2969    29325    6                       CALL XUR$ERRMSG (XUG$GETCMD.ERR#,M$OUT_NUM);
     2970    29326    6                       GOTO CONTINUE;
     2971    29327    6                   END;
     2972    29328    5                   IF OUT$ -> P$B.NSUBLKS = 1
     2973    29329    5                   THEN            /* No name specified */
     2974    29330    5                       GOTO DI_USER_ALL;
     2975    29331    5               END;
     2976    29332        /*
     2977    29333                ***** Handle wildcarded name ...
     2978    29334        */
     2979    29335    4               CALL INDEX(INDX1,'?',OUT$->P$B.SUBLK$(0)->P$S.TEXT) ALTRET(
PL6.E3A0      #001=VMO$MAIL File=VMO$MAIL.:VMB6TSI                               WED 08/20/97 15:19 Page:102
     2980    29336    4                 NON_WILD_DI_USER);
     2981    29337    4               VM_WILDCARD.PATTERN_ = VECTOR(OUT$->P$B.SUBLK$(0)->P$S.TEXT);
     2982    29338    4               CALL XLATE(OUT$->P$B.SUBLK$(0)->P$S.TEXT, LOWER_UPPER,
     2983    29339    4                 OUT$->P$B.SUBLK$(0)->P$S.TEXT);
     2984    29340    4               IF INDX1 = 0
     2985    29341    4               THEN
     2986    29342    4                   VM_USERKEY.TEXT = ' '; /* Start at first entry */
     2987    29343    5               ELSE DO;
     2988    29344    5                   VM_USERKEY.TEXT = OUT$ -> P$B.SUBLK$(0) -> P$S.TEXT;
     2989    29345    5                   SUBSTR (VM_USERKEY.TEXT, INDX1) = ' ';
     2990    29346    5                   SUBSTR (VM_USERKEY.TEXT, INDX1-1, 1) = BINASC(ASCBIN(SUBSTR(
             29346                            VM_USERKEY.TEXT, INDX1-1, 1)) - 1);
     2991    29347    5               END;
     2992    29348    5               DO FOREVER;
     2993    29349    5                   CALL VMA$GET_LIST_NEXT (VM_USERKEY,VM_ADDLIST$,
     2994    29350    5                     M$MAIL_GLOBAL_NUM) ALTRET(END_DI_USER);
     2995    29351    5                   IF INDX1 > 0
     2996    29352    5                     AND SUBSTR(VM_USERKEY.TEXT, 0, INDX1) > SUBSTR(OUT$ -> P$B.SUBLK$(
             29352                              0) -> P$S.TEXT, 0, INDX1)
     2997    29353    5                   THEN
     2998    29354    5                       EXIT;
     2999    29355    5                   VM_WILDCARD.INPUT_ = VECTOR(SUBSTR(VM_USERKEY.TEXT,0,
     3000    29356    5                     VM_USERKEY.COUNT-1)); /* One less for type */
     3001    29357    5                   CALL X$WILDCMP (VM_WILDCARD) ALTRET(NO_MATCH_DI_USER);
     3002    29358    5                   CALL VMD$DI_USER (VM_USERKEY,OUTDCB);
     3003    29359    5                   INDX2 = INDX2 + 1;
     3004    29360    5   NO_MATCH_DI_USER:
     3005    29361    5               END;             /* Do forever ... end */
     3006    29362        /*
     3007    29363             ***** Handle non-wild case ...
     3008    29364        */
     3009    29365    5               DO NEVER;
     3010    29366    5   NON_WILD_DI_USER:
     3011    29367    5                   VM_USERKEY.TEXT = OUT$->P$B.SUBLK$(0)->P$S.TEXT;
     3012    29368    5                   CALL VMA$GET_LIST (VM_USERKEY,VM_ADDLIST$,
     3013    29369    5                     M$MAIL_GLOBAL_NUM) ALTRET(END_DI_USER);
     3014    29370    5                   CALL VMD$DI_USER (VM_USERKEY,OUTDCB);
PL6.E3A0      #001=VMO$MAIL File=VMO$MAIL.:VMB6TSI                               WED 08/20/97 15:19 Page:103
     3015    29371    5                   INDX2 = INDX2 + 1;
     3016    29372    5               END;             /* Do never ... end */
     3017    29373    4           END;
     3018    29374    3   END_DI_USER: ;
     3019    29375    3           IF INDX2 ~= 1 OR NOT DCBADDR(OUTDCB) -> F$DCB.DDEV.UCOUT#
     3020    29376    3           THEN
     3021    29377    3               CALL REPORT_ACTIVITY (INDX2,VM_USERS_DISPLAYED_FMT,%NO#,
             29377                        E_USERS_DISPLAYED_FMT);
     3022    29378        %EJECT;
PL6.E3A0      #001=VMO$MAIL File=VMO$MAIL.:VMB6TSI                               WED 08/20/97 15:19 Page:104
     3023    29379    3       CASE (%CMD_END);
     3024    29380    3           IF VM_CURRENT_FOLDER.FLAGS.OPEN
     3025    29381    3           THEN
     3026    29382    4           DO;
     3027    29383    4               IF OUT$ -> P$B.NSUBLKS = 0
     3028    29384    4               THEN            /* Noupdate not specified */
     3029    29385    4                   CALL UPDATE$MAIL (VM_PROFILE.OPT.RENUMBER);
     3030    29386    4               IF VM_CURRENT_FOLDER.FLAGS.UPDATE
     3031    29387    4               THEN            /* Ok to write profile */
     3032    29388    4                   CALL PUT_PROFILE (M$MAIL_FILE_NUM)
     3033    29389    5                   WHENALTRETURN DO;
     3034    29390    5                       ERROR = B$TCB.ALT$ -> B$ALT.ERR;
     3035    29391    5                       CALL XUR$ERRMSG(E_WERR);
     3036    29392    5                       CALL XUR$ERRMSG(ERROR,M$MAIL_FILE_NUM);
     3037    29393    5                   END;
     3038    29394    4               CLOSE_SAVE.V.DCB# = M$MAIL_FILE_NUM;
     3039    29395    4               CALL M$CLOSE (CLOSE_SAVE) ALTRET(E_PMME);
     3040    29396    4               VM_CURRENT_FOLDER.FLAGS = %NO#;
     3041    29397    4           END;
     3042    29398    3           CALL M$EXIT;
     3043    29399        %EJECT;
PL6.E3A0      #001=VMO$MAIL File=VMO$MAIL.:VMB6TSI                               WED 08/20/97 15:19 Page:105
     3044    29400        /* First message command */
     3045    29401    3       CASE(%CMD_FIRST_MESSAGE);
     3046    29402    3           IF LAST_COMMAND_CODE = %CMD_DISPLAY_MESSAGE
     3047    29403    3           THEN
     3048    29404                    %INIT_STR (CODE=E_DI_FIRST_CMD, STR=VM_DI_FIRST_CMD,
     3049    29405                      NEXT_CMD=NEXT_COMMAND_TEXT, TEST=YES);
     3050    29428    3           ELSE
     3051    29429                  %INIT_STR (CODE=E_LIST_FIRST_CMD, STR=VM_LIST_FIRST_CMD,
     3052    29430                  NEXT_CMD=NEXT_COMMAND_TEXT, TEST=YES);
     3053    29453    3           NEXT_COMMAND_TEXT.L# = LENGTHC('DI FIRST');
     3054    29454        %EJECT;
PL6.E3A0      #001=VMO$MAIL File=VMO$MAIL.:VMB6TSI                               WED 08/20/97 15:19 Page:106
     3055    29455        /* Forward command */
     3056    29456    3       CASE (%CMD_FORWARD_MESSAGE);
     3057    29457    3           CALL NEED_UPDATE ALTRET(CONTINUE);
     3058    29458    3           OPT_SEED = 0;
     3059    29459    3           OPT_SEED$ = ADDR(OPT_SEED);
     3060    29460    4           DO INDX1 = 0 TO OUT$ -> P$B.NSUBLKS - 1;
     3061    29461    4               BLK$ = OUT$ -> P$B.SUBLK$(INDX1);
     3062    29462    5               DO CASE (BLK$ -> P$B.CODE);
     3063    29463    5               CASE (%OPT_CRPT);
     3064    29464    5                   CALL VMX$OCTBIN (BLK$->P$B.SUBLK$(0)->P$S,OPT_SEED);
     3065    29465    5                   IF OPT_SEED = 0
     3066    29466    5                   THEN /* allow display w/o decryption */
     3067    29467    5                       OPT_SEED$ = ADDR(NIL);
     3068    29468    5               CASE (%OPT_SELECT);
     3069    29469    5                   CALL INIT$SELECT_OPTS (BLK$,%CMD_FORWARD_MESSAGE) ALTRET(CONTINUE);
     3070    29470    5               END;             /* Do case ... end */
     3071    29471    4           END;
     3072    29472    3           CALL FIX_CONTEXT;
     3073    29473    3           INDX1 = 0;
     3074    29474        /*
     3075    29475             ***** Build the command buffer to pass to send ...
     3076    29476        */
     3077    29477                %INIT_STR (CODE=E_SEND_FORWARD, STR=VM_SEND_FORWARD, TEST=YES);
     3078    29500    3           CALL BUILD_LINK_TO_SEND_CMD(VM_SEND_FORWARD);
     3079    29501        /*
     3080    29502             ***** Forward all the messages ...
     3081    29503        */
     3082    29504    4           DO FOREVER;
     3083    29505    4   FWD_NEXT:   ;
     3084    29506    4               CALL GET$MESSAGE ALTRET(END_FORWARD);
     3085    29507    4               INDX1 = INDX1 + 1;
     3086    29508    4               IF VM_HEADER.STATUS.CRYPT
     3087    29509    4                 AND OPT_SEED = 0
     3088    29510    4                 AND OPT_SEED$ ~= ADDR(NIL)
     3089    29511    5               THEN DO;
     3090    29512    5                   CALL XUR$ERRMSG (E_NEEDSEED);
     3091    29513    5                   GOTO CONTINUE;
PL6.E3A0      #001=VMO$MAIL File=VMO$MAIL.:VMB6TSI                               WED 08/20/97 15:19 Page:107
     3092    29514    5               END;
     3093    29515    4               CALL VMD$DI_HEADER (VM_HEADER,CURRENT_MESSAGE_NUMBER,M$ME_NUM);
     3094    29516        /*
     3095    29517             ***** Create the file to contain the message being forwarded ...
     3096    29518        */
     3097    29519    4               CALL M$OPEN (OPEN_FORWARD_FILE) ALTRET(E_PMME);
     3098    29520    4               CLOSE_SAVE.V.DCB# = M$WORK_NUM;
     3099    29521        /*
     3100    29522             ***** Now move the text into the file.
     3101    29523                   No vfc!!!
     3102    29524        */
     3103    29525    5               IF VM_HEADER.STATUS.ENCL = %NO# THEN DO;
     3104    29526    5                   CALL VMD$DI_MESSAGE (CURRENT_MESSAGE_NUMBER,M$WORK_NUM,
     3105    29527    5                     M$MAIL_FILE_NUM,OPT$SEED)
     3106    29528    6                   WHENALTRETURN DO;
     3107    29529    6                       CALL XUR$ERRMSG (E_FWD_BADSEED);
     3108    29530    6                       CALL M$CLOSE (CLOSE_SAVE) ALTRET(E_PMME);
     3109    29531    6                       GOTO FWD_NEXT;
     3110    29532    6                   END;
     3111    29533    5               END;
     3112    29534    5               ELSE IF VM_HEADER.STATUS.ENCL = %YES# THEN DO;
     3113    29535    5                       CALL VMD$DI_MESSAGE (CURRENT_MESSAGE_NUMBER,M$WORK_NUM,
     3114    29536    5                         M$MAIL_FILE_NUM,OPT$SEED,,%MAIL_FORWARD_ENCL)
     3115    29537    6                       WHENALTRETURN DO;
     3116    29538    6                           CALL XUR$ERRMSG (E_FWD_BADSEED);
     3117    29539    6                           CALL M$CLOSE (CLOSE_SAVE) ALTRET(E_PMME);
     3118    29540    6                           GOTO FWD_NEXT;
     3119    29541    6                       END;
     3120    29542    5                   END;
     3121    29543    4               CALL M$CLOSE (CLOSE_SAVE) ALTRET(E_PMME);
     3122    29544        /*
     3123    29545             ***** Now move enclosure records, if there are any ...
     3124    29546        */
     3125    29547    5               IF VM_HEADER.STATUS.ENCL = %YES# THEN DO;
     3126    29548                        %INIT_STR (CODE=E_SEND_FORWARD_ENCL, STR=VM_SEND_FORWARD_ENCL, TEST=
             29548                            YES);
     3127    29571    5                   CALL BUILD_LINK_TO_SEND_CMD(VM_SEND_FORWARD_ENCL);
PL6.E3A0      #001=VMO$MAIL File=VMO$MAIL.:VMB6TSI                               WED 08/20/97 15:19 Page:108
     3128    29572
     3129    29573    5                   CALL M$OPEN (OPEN_FORWARD_ENCL_FILE) ALTRET (E_PMME);
     3130    29574    5                   CLOSE_SAVE.V.DCB# = DCBNUM(M$ENCL);
     3131    29575
     3132    29576    5                   ENCL$ = VM_ENCL_HEAD.HEAD$;
     3133    29577    6                   DO INDX1 = 0 TO VM_ENCL_HEAD.NUM_ENTRIES - 1;
     3134    29578    7                       DO INDX3 = 0 TO VM_ENCLOS.NRECS - 1;
     3135    29579    7   GET_ENCL_REC:           CALL VMD$GET_ENCL(CURRENT_MESSAGE_NUMBER,
     3136    29580    7                             M$MAIL_FILE_NUM,INDX3,COUNT,,,,VM_ENCLOS.TYPE-%
             29580                                      VM_TYPE_ENCL,
     3137    29581    7                             VM_ENCLREC$)
     3138    29582    8                           WHENALTRETURN DO;
     3139    29583    9                               IF B$TCB.ALT$->B$ALT.ERR.CODE=%E$LD THEN DO;
     3140    29584    9                                   VBOUND(VM_ENCLREC_) = VBOUND(VM_ENCLREC_) + PAGESIZE
             29584                                            ;
     3141    29585    9                                   GOTO GET_ENCL_REC;
     3142    29586    9                               END;
     3143    29587    8                           END;
     3144    29588    7                           CALL VMD$PUT_ENCL (0,DCBNUM(M$ENCL),INDX3,COUNT,
     3145    29589    7                             0, ,DCBADDR(DCBNUM(M$ENCL))->F$DCB.DVBYTE,
     3146    29590    7                             VM_ENCLOS.TYPE-%VM_TYPE_ENCL,VM_ENCLREC$);
     3147    29591    7                       END; /* J */
     3148    29592    6                       ENCL$ = VM_ENCLOS.NEXT$;
     3149    29593    6                   END; /* I */
     3150    29594    5                   CALL VMA$PUT_ADD_RECORD (%VM_TYPE_ENCL,VM_ENCLLIST_,
     3151    29595    5                     DCBNUM(M$ENCL));
     3152    29596
     3153    29597    5                   CALL M$CLOSE (CLOSE_SAVE) ALTRET (E_PMME);
     3154    29598
     3155    29599    5               END; /* IF ENCL */
     3156    29600        /*
     3157    29601             ***** Link to SEND ...
     3158    29602        */
     3159    29603    4               CALL LINK_RUNIT
     3160    29604    4               WHENRETURN
     3161    29605    5               DO;
     3162    29606    5                   CALL VMD$GET_HEADER (CURRENT_MESSAGE_NUMBER,
PL6.E3A0      #001=VMO$MAIL File=VMO$MAIL.:VMB6TSI                               WED 08/20/97 15:19 Page:109
     3163    29607    5                     M$MAIL_FILE_NUM) ALTRET(E_PMME);
     3164    29608    5               END;
     3165    29609    4               WHENALTRETURN
     3166    29610    5               DO;
     3167    29611    5                   CALL VMD$GET_HEADER (CURRENT_MESSAGE_NUMBER,
     3168    29612    5                     M$MAIL_FILE_NUM) ALTRET(E_PMME);
     3169    29613    5                   GOTO END_FORWARD;
     3170    29614    5               END;
     3171    29615    4           END;                       /* Do forever ... end */
     3172    29616    3   END_FORWARD:
     3173    29617    3           REOPEN_FILE.V.DCB# = M$WORK_NUM;
     3174    29618    3           CALL M$OPEN (REOPEN_FILE)
     3175    29619    4           WHENRETURN DO;
     3176    29620    4               CLOSE_SCRATCH.V.DCB# = M$WORK_NUM;
     3177    29621    5               CALL M$CLOSE (CLOSE_SCRATCH) WHENALTRETURN DO; END;
     3178    29622    4           END;
     3179    29623    3           IF INDX1 = 0
     3180    29624    3           THEN
     3181    29625    3               CALL REPORT_ACTIVITY (INDX1,VM_NO_MESSAGE_FMT,%YES#,E_NO_MESSAGE_FMT);
     3182    29626    3           IF VM_CURRENT_FOLDER.FLAGS.OPEN
     3183    29627    3           THEN                       /* Ok to read profile */
     3184    29628    3               CALL VMD$GET_PROFILE (M$MAIL_FILE_NUM) ALTRET(BAD_PROFILE);
     3185    29629        %EJECT;
PL6.E3A0      #001=VMO$MAIL File=VMO$MAIL.:VMB6TSI                               WED 08/20/97 15:19 Page:110
     3186    29630        /* Goto command */
     3187    29631    3       CASE (%CMD_GOTO_MESSAGE);
     3188    29632    3           CALL NEED_FOLDER ALTRET(CONTINUE);
     3189    29633    3           CALL CHARBIN (INDX3,OUT$ -> P$B.SUBLK$(0) -> P$S.TEXT);
     3190    29634        /*
     3191    29635             ***** Determine if this message number is valid
     3192    29636                   according to the selected context info ...
     3193    29637        */
     3194    29638                                      /* $$$$$$$$$$$$$ code to be added $$$$$$$$$$$$$ */
     3195    29639    3           SELECTED_CONTEXT%.MESSAGE_POINTER = INDX3;
     3196    29640        /*
     3197    29641             ***** Now list or display this message ...
     3198    29642        */
     3199    29643    3           IF LAST_COMMAND_CODE = %CMD_DISPLAY_MESSAGE
     3200    29644    3           THEN
     3201    29645                    %INIT_STR (CODE=E_DI_THIS_CMD, STR=VM_DI_THIS_CMD,
     3202    29646                      NEXT_CMD=NEXT_COMMAND_TEXT, TEST=YES);
     3203    29669    3           ELSE
     3204    29670                  %INIT_STR (CODE=E_LIST_THIS_CMD, STR=VM_LIST_THIS_CMD,
     3205    29671                  NEXT_CMD=NEXT_COMMAND_TEXT, TEST=YES);
     3206    29694    3           NEXT_COMMAND_TEXT.L# = LENGTHC('DI THIS');
     3207    29695        %EJECT;
PL6.E3A0      #001=VMO$MAIL File=VMO$MAIL.:VMB6TSI                               WED 08/20/97 15:19 Page:111
     3208    29696        /* Help commands */
     3209    29697
     3210    29698    3       CASE(%CMD_HELP);
     3211    29699    3           HELP_PARAM.HELP$ = OUT$ -> P$B.SUBLK$(0) -> P$S.TEXTC$;
     3212    29700    3           HELP_PARAM.MORE# = %NO#;
     3213    29701    3           CALL XUR$HELP (HELP_PARAM);
     3214    29702
     3215    29703    3       CASE (%CMD_QUES1);
     3216    29704    3           CALL XUR$MOREMSG (HELP_PARAM) ALTRET(NO_MORE);
     3217    29705    3       CASE (%CMD_QUES2);
     3218    29706    3           CALL XUR$ALLMSG (HELP_PARAM) ALTRET(NO_MORE);
     3219    29707        /**/
     3220    29708    4           DO NEVER;
     3221    29709    4   NO_MORE:
     3222    29710        /*E*    ERROR: VMO-E$NOMORE-0
     3223    29711                MESSAGE: No messages available. */
     3224    29712    4               CALL XUR$ERRMSG (E_NOMORE);
     3225    29713    4           END;                       /* Do never ... end */
     3226    29714
     3227    29715
     3228    29716        %EJECT;
PL6.E3A0      #001=VMO$MAIL File=VMO$MAIL.:VMB6TSI                               WED 08/20/97 15:19 Page:112
     3229    29717        /* Last message command */
     3230    29718    3       CASE(%CMD_LAST_MESSAGE);
     3231    29719    3           IF LAST_COMMAND_CODE = %CMD_DISPLAY_MESSAGE
     3232    29720    3           THEN
     3233    29721                    %INIT_STR (CODE=E_DI_LAST_CMD, STR=VM_DI_LAST_CMD,
     3234    29722                      NEXT_CMD=NEXT_COMMAND_TEXT, TEST=YES);
     3235    29745    3           ELSE
     3236    29746                  %INIT_STR (CODE=E_LIST_LAST_CMD, STR=VM_LIST_LAST_CMD,
     3237    29747                  NEXT_CMD=NEXT_COMMAND_TEXT, TEST=YES);
     3238    29770        %EJECT;
PL6.E3A0      #001=VMO$MAIL File=VMO$MAIL.:VMB6TSI                               WED 08/20/97 15:19 Page:113
     3239    29771    3       CASE(%CMD_LINK);
     3240    29772    3           BLK$ = OUT$->P$B.SUBLK$(0);
     3241    29773    3           OPT_FID = BLK$->P$S.TEXT;
     3242    29774    3           IF OUT$->P$B.NSUBLKS = 2 THEN
     3243    29775    4           DO;                    /* Process the cc buffer for link     */
     3244    29776    4               LINK_CCBUF.L# = BLK$->P$S.COUNT;
     3245    29777    4               LINK_CCBUF.NAME# = BLK$->P$S.TEXT;
     3246    29778    4               BLK$ = OUT$->P$B.SUBLK$(1);
     3247    29779    4               IF BLK$ -> P$S.COUNT > 0
     3248    29780    4               THEN
     3249    29781    5               DO;
     3250    29782    5                   INDX4 = BLK$ -> P$S.COUNT + 1;
     3251    29783    5                   INDX3 = LINK_CCBUF.L#;
     3252    29784    5                   LINK_CCBUF.L# = LINK_CCBUF.L# + INDX4;
     3253    29785    5                   CALL INSERT(LINK_CCBUF.NAME#,INDX3,INDX4,' ',BLK$->P$S.TEXT);
     3254    29786    5               END;
     3255    29787    4               FPT_LINK.CP_CMD_ = VECTOR(LINK_CCBUF);
     3256    29788    4           END;
     3257    29789    3           ELSE
     3258    29790    3               FPT_LINK.CP_CMD_ = VECTOR(NIL);
     3259    29791
     3260    29792    3           CALL LINK_RUNIT;
     3261    29793    3           FPT_LINK.PSID_ = VECTOR(NIL);
     3262    29794    3           FPT_LINK.PASS_ = VECTOR(NIL);
     3263    29795    3           FPT_LINK.CP_CMD_ = VECTOR(NIL);
     3264    29796        %EJECT;
PL6.E3A0      #001=VMO$MAIL File=VMO$MAIL.:VMB6TSI                               WED 08/20/97 15:19 Page:114
     3265    29797        /* List folder command */
     3266    29798    3       CASE (%CMD_LIST_FOLDER,%CMD_DISPLAY_FOLDER);
     3267    29799        /*
     3268    29800             ***** Stash the profile for the current folder.
     3269    29801                   Need to get the profile for each folder to display ...
     3270    29802        */
     3271    29803    3           IF VM_CURRENT_FOLDER.FLAGS.UPDATE
     3272    29804    3           THEN
     3273    29805    4           DO;
     3274    29806    4               CALL PUT_PROFILE (M$MAIL_FILE_NUM) ALTRET(WRITE_ERROR);
     3275    29807    4           END;
     3276    29808    3           FOLDER_WAS_OPEN = VM_CURRENT_FOLDER.FLAGS.OPEN;
     3277    29809    3           VM_CURRENT_FOLDER.FLAGS.OPEN = '0'B; /* This keeps
     3278    29810                                           a bad profile record being written if we get
     3279    29811                                           ctl-y or otherwise xconed. */
     3280    29812    3           BREAK_TYPE = CURR_COMMAND_CODE;
     3281    29813        /*
     3282    29814             ***** Look at folders in the user's file directory acct ...
     3283    29815        */
     3284    29816    3           INDX2 = 0;                  /* Used as counter */
     3285    29817    3           VM_RADDRESS.ACCT = VM_CENTRAL_FOLDER.ACCT;
     3286    29818    3           VM_RADDRESS.FOLDER = '?';   /* Default is everything */
     3287    29819    3           VM_RADDRESS.PASS = ' ';
     3288    29820    3           VM_RADDRESS.SITENAME = ' ';
     3289    29821    3           VM_RADDRESS.TYPE = %VM_ADD_RESOLVED;
     3290    29822    3           IF OUT$ -> P$B.NSUBLKS ~= 0
     3291    29823    4           THEN DO;
     3292    29824        /*
     3293    29825                ***** Handle output clause, if any ...
     3294    29826        */
     3295    29827    4               BLK$ = OUT$ -> P$B.SUBLK$ (OUT$ -> P$B.NSUBLKS - 1);
     3296    29828    4               IF BLK$ -> P$B.CODE = %OPT_OUTPUT
     3297    29829    5               THEN DO;
     3298    29830    5                   CALL XUR$OPENOUT (M$OUT_NUM, BLK$ -> P$B)
     3299    29831    6                   WHENRETURN DO;
     3300    29832    6                       OUTDCB = M$OUT_NUM;
     3301    29833    6                   END;
PL6.E3A0      #001=VMO$MAIL File=VMO$MAIL.:VMB6TSI                               WED 08/20/97 15:19 Page:115
     3302    29834    6                   WHENALTRETURN DO;
     3303    29835    6                       CALL XUR$ERRMSG (XUG$GETCMD.ERR#,M$OUT_NUM);
     3304    29836    6                       GOTO END_LI_FOLDER;
     3305    29837    6                   END;
     3306    29838    5                   IF OUT$ -> P$B.NSUBLKS = 1
     3307    29839    5                   THEN            /* No listname specified */
     3308    29840    5                       GOTO LI_FOLD_ALL;
     3309    29841    5               END;
     3310    29842    4               BLK$ = OUT$ -> P$B.SUBLK$(0);
     3311    29843        /*
     3312    29844             ***** Repeat this loop once for each piece of the address ...
     3313    29845        */
     3314    29846    5               DO INDX1 = 0 TO BLK$ -> P$B.NSUBLKS - 1;
     3315    29847    5                   PTR1$ = BLK$ -> P$B.SUBLK$(INDX1);
     3316    29848    6                   DO CASE (PTR1$ -> P$B.CODE);
     3317    29849    6                   CASE (%ADD_ACCT);
     3318    29850    6                       VM_RADDRESS.ACCT = PTR1$ -> P$S.TEXT;
     3319    29851    6                   CASE (%ADD_FOLDER);
     3320    29852    6                       VM_RADDRESS.FOLDER = PTR1$ -> P$S.TEXT;
     3321    29853    6                   CASE (%ADD_NAME);
     3322    29854    6                       CALL XUR$ERRMSG (E_NAMENTALLOWED);
     3323    29855    6                       GOTO CONTINUE;
     3324    29856    6                   CASE (%ADD_PASS);
     3325    29857    6                       VM_RADDRESS.PASS = PTR1$ -> P$S.TEXT;
     3326    29858    6                   END;       /* Do case ... end */
     3327    29859    5               END;             /* Do INDX1 = ... end */
     3328    29860    4           END;                  /* Pick up options */
     3329    29861    3   LI_FOLD_ALL:
     3330    29862    3           FID_ACCT.ACCT# = VM_RADDRESS.ACCT;
     3331    29863    3           FID_PASS.PASS# = VM_RADDRESS.PASS;
     3332    29864    3           CLOSE_SAVE.V.DCB# = M$WORK_NUM;
     3333    29865        /*
     3334    29866             ***** Wildcard specified ???
     3335    29867        */
     3336    29868    3           IF VM_RADDRESS.FOLDER = 'CENTRAL'
     3337    29869    3           THEN                       /* Supply name of central folder */
     3338    29870    3               VM_RADDRESS.FOLDER = VM_CENTRAL_FOLDER.FOLDER;
PL6.E3A0      #001=VMO$MAIL File=VMO$MAIL.:VMB6TSI                               WED 08/20/97 15:19 Page:116
     3339    29871    3           WILDCARD_PATTERN = VM_RADDRESS.FOLDER;
     3340    29872    3           CALL INDEX(INDX1,'?',WILDCARD_PATTERN)
     3341    29873    4           WHENRETURN DO;
     3342    29874    4               WILD = %YES#;
     3343    29875    4           END;
     3344    29876    4           WHENALTRETURN DO;
     3345    29877    4               WILD = %NO#;
     3346    29878    4           END;
     3347    29879    3           CALL INDEX(INDX1,' ',WILDCARD_PATTERN);
     3348    29880    3           VM_WILDCARD.PATTERN_ = VECTOR(SUBSTR(WILDCARD_PATTERN,0,INDX1));
     3349    29881    3           OPEN_NEXT.NAME_ = VECTOR(FID_NAME);
     3350    29882    3           FID_NAME.NAME# = ':MAIL_';
     3351    29883    3           FID_NAME.L# = LENGTHC(':MAIL_');
     3352    29884    4           DO NEVER;
     3353    29885    4   LI_FOLD_ERR1:
     3354    29886    4               CALL XUR$ERRMSG (E_FOLDEROLD, M$WORK_NUM);
     3355    29887    4           END/*NEVER*/;
     3356    29888    3           CALL GET_WILD_FOLDER ALTRET(END_LI_FOLDER);
     3357    29889    3           CALL VMD$GET_PROFILE (M$WORK_NUM) ALTRET(LI_FOLD_ERR1);
     3358    29890        /*
     3359    29891             ***** Print the header ...
     3360    29892        */
     3361    29893    3           CALL M$TIME (GET_TIME);
     3362    29894                %INIT_STR (CODE=E_FOLDER_HEADER1_FMT, STR=VM_FOLDER_HEADER1_FMT,
     3363    29895                VECT="F_FDSLO.FMT_", TEST=YES);
     3364    29918    3           VECT_ARRAY(0) = VECTOR(WORK_UTS);
     3365    29919    3           VECT_ARRAY(1) = VECTOR(FID_ACCT.ACCT#);
     3366    29920    3           F_FDSLO.NVECS# = 2;
     3367    29921    3           F_FDSLO.DCB# = OUTDCB;
     3368    29922    3           CALL VMD$WRITE_BUF (F_FDSLO);
     3369    29923    3           F_FDSLO.NVECS# = 0;
     3370    29924                %INIT_STR (CODE=E_FOLDER_HEADER2_FMT, STR= VM_FOLDER_HEADER2_FMT,
     3371    29925                VECT="F_FDSLO.FMT_", TEST=YES);
     3372    29948    3           CALL VMD$WRITE_BUF (F_FDSLO);
     3373    29949    3           CALL VMD$DI_FOLDER (VM_WORK_FOLDER,OUTDCB);
     3374    29950    3           OPEN_NEXT.NAME_ = VECTOR(NIL);
     3375    29951    3           INDX2 = 1;
PL6.E3A0      #001=VMO$MAIL File=VMO$MAIL.:VMB6TSI                               WED 08/20/97 15:19 Page:117
     3376    29952        /*
     3377    29953             ***** If wildcard specified, loop to process other matches ...
     3378    29954        */
     3379    29955    4           DO WHILE WILD;
     3380    29956    5               DO NEVER;
     3381    29957    5   LI_FOLD_ERR2:   ;
     3382    29958    5                   CALL XUR$ERRMSG (E_FOLDEROLD, M$WORK_NUM);
     3383    29959    5               END/*NEVER*/;
     3384    29960    4               CALL GET_WILD_FOLDER ALTRET(END_LI_FOLDER);
     3385    29961    4               CALL VMD$GET_PROFILE (M$WORK_NUM) ALTRET(LI_FOLD_ERR2);
     3386    29962    4               CALL VMD$DI_FOLDER (VM_WORK_FOLDER,OUTDCB);
     3387    29963    4               INDX2 = INDX2 + 1;
     3388    29964    4           END/*WHILE WILD*/;
     3389    29965        /*
     3390    29966             ***** Get the profile for the current folder ...
     3391    29967        */
     3392    29968    3   END_LI_FOLDER:
     3393    29969    3           VM_CURRENT_FOLDER.FLAGS.OPEN = FOLDER_WAS_OPEN;
     3394    29970    3           IF DCBADDR(M$WORK_NUM) -> F$DCB.FCD#
     3395    29971    3           THEN                       /* Close it */
     3396    29972    3               CALL M$CLOSE (CLOSE_SAVE) ALTRET(E_PMME);
     3397    29973    3           IF VM_CURRENT_FOLDER.FLAGS.OPEN
     3398    29974    3           THEN
     3399    29975    3               CALL VMD$GET_PROFILE (M$MAIL_FILE_NUM) ALTRET(BAD_PROFILE);
     3400    29976    3           BREAK_TYPE = 0;
     3401    29977    3           CALL REPORT_ACTIVITY (INDX2,VM_FOLDER_DISPLAYED_FMT,%NO#,
             29977                    E_FOLDER_DISPLAYED_FMT);
     3402    29978        %EJECT;
PL6.E3A0      #001=VMO$MAIL File=VMO$MAIL.:VMB6TSI                               WED 08/20/97 15:19 Page:118
     3403    29979        /* List command */
     3404    29980    3       CASE (%CMD_LIST_MESSAGE);
     3405    29981    3           CALL NEED_FOLDER ALTRET(CONTINUE);
     3406    29982    4           DO INDX1 = 0 TO OUT$ -> P$B.NSUBLKS - 1;
     3407    29983    4               BLK$ = OUT$ -> P$B.SUBLK$(INDX1);
     3408    29984    5               DO CASE (BLK$ -> P$B.CODE);
     3409    29985    5               CASE (%OPT_SELECT);
     3410    29986    5                   CALL INIT$SELECT_OPTS (BLK$,%CMD_LIST_MESSAGE) ALTRET(CONTINUE);
     3411    29987    5               CASE (%OPT_OUTPUT);
     3412    29988    5                   CALL XUR$OPENOUT (M$OUT_NUM, BLK$ -> P$B)
     3413    29989    6                   WHENRETURN DO;
     3414    29990    6                       OUTDCB = M$OUT_NUM;
     3415    29991    6                   END;
     3416    29992    6                   WHENALTRETURN DO;
     3417    29993    6                       CALL XUR$ERRMSG (XUG$GETCMD.ERR#,M$OUT_NUM);
     3418    29994    6                       GOTO CONTINUE;
     3419    29995    6                   END;
     3420    29996    5               END;
     3421    29997    4           END;
     3422    29998    3           LAST_COMMAND_CODE = %CMD_LIST_MESSAGE;
     3423    29999
     3424    30000    3           INDX1 = 0;                  /* Used as counter */
     3425    30001    3           EJECT = VM_PROFILE.OPT.PAGE;
     3426    30002
     3427    30003    4           DO FOREVER;
     3428    30004
     3429    30005    4               CALL GET$MESSAGE ALTRET(END_LIST);
     3430    30006    4               IF EJECT
     3431    30007    5               THEN DO;
     3432    30008    5                   CALL VMD$EJECT (OUTDCB);
     3433    30009    5                   EJECT = %NO#;
     3434    30010    5               END;
     3435    30011    4               VM_PROFILE.HI_MESSAGE_NUMBER =
     3436    30012    4                 MAXIMUM( VM_PROFILE.HI_MESSAGE_NUMBER , CURRENT_MESSAGE_NUMBER );
     3437    30013    4               CALL VMD$DI_HEADER(VM_HEADER,CURRENT_MESSAGE_NUMBER,OUTDCB);
     3438    30014    4               INDX1 = INDX1 + 1;
     3439    30015    4               IF VM_CURRENT_FOLDER.FLAGS.UPDATE
PL6.E3A0      #001=VMO$MAIL File=VMO$MAIL.:VMB6TSI                               WED 08/20/97 15:19 Page:119
     3440    30016    4                 AND VM_HEADER.STATUS.MAKE_OLD = %NO#
     3441    30017    4                 AND VM_HEADER.STATUS.OLD = %NO#
     3442    30018    4               THEN
     3443    30019    5               DO;
     3444    30020    5                   CALL XUR$DISABLE;
     3445    30021    5                   VM_HEADER.STATUS.MAKE_OLD = %YES#;
     3446    30022    5                   CALL VMD$PUT_HEADER (CURRENT_MESSAGE_NUMBER,M$MAIL_FILE_NUM)
     3447    30023    5                     ;
     3448    30024    5                   VM_PROFILE.NUM_MOLD_MESSAGES = VM_PROFILE.NUM_MOLD_MESSAGES + 1;
     3449    30025    5                   MADE_OLD = %YES#;
     3450    30026    5                   CALL PUT_PROFILE (M$MAIL_FILE_NUM) ALTRET(WRITE_ERROR);
     3451    30027    5                   CALL XUR$ENABLE;
     3452    30028    5               END;
     3453    30029    4           END;                       /* Do forever ... end */
     3454    30030    3   END_LIST:
     3455    30031    3           IF INDX1 ~= 1 OR NOT DCBADDR(OUTDCB) -> F$DCB.DDEV.UCOUT#
     3456    30032    3           THEN
     3457    30033    3               CALL REPORT_ACTIVITY (INDX1,VM_MSGS_LISTED_FMT,%YES#,E_MSGS_LISTED_FMT);
     3458    30034        %EJECT;
PL6.E3A0      #001=VMO$MAIL File=VMO$MAIL.:VMB6TSI                               WED 08/20/97 15:19 Page:120
     3459    30035        /* Mark command */
     3460    30036    3       CASE(%CMD_MARK_MESSAGE);
     3461    30037    3           CALL NEED_UPDATE ALTRET(CONTINUE);
     3462    30038    3           IF OUT$ -> P$B.NSUBLKS > 0
     3463    30039    3           THEN                       /* There are options */
     3464    30040    3               CALL INIT$SELECT_OPTS (OUT$->P$B.SUBLK$(0),%CMD_MARK_MESSAGE) ALTRET(
             30040                        CONTINUE);
     3465    30041    3           INDX1 = 0;                  /* Used as counter */
     3466    30042    3           NONE = %YES#;
     3467    30043    4           DO FOREVER;
     3468    30044    4               CALL GET$MESSAGE ALTRET(END_MARK);
     3469    30045    4               NONE = %NO#;
     3470    30046
     3471    30047    4               IF VM_PROFILE.OPT.HEADERS
     3472    30048    4               THEN
     3473    30049    4                   CALL VMD$DI_HEADER(VM_HEADER,CURRENT_MESSAGE_NUMBER,M$LO_NUM);
     3474    30050
     3475    30051    4               IF VM_HEADER.STATUS.MARK = %NO#
     3476    30052    4               THEN                 /* Mark it now */
     3477    30053    5               DO;
     3478    30054    5                   CALL XUR$DISABLE;
     3479    30055    5                   VM_HEADER.STATUS.MARK = %YES#;
     3480    30056    5                   CALL VMD$PUT_HEADER (CURRENT_MESSAGE_NUMBER,M$MAIL_FILE_NUM);
     3481    30057    5                   CALL XUR$ENABLE;
     3482    30058    5                   INDX1 = INDX1 + 1;
     3483    30059    5               END;
     3484    30060    4           END;                       /* Do forever ... end  */
     3485    30061
     3486    30062    3   END_MARK: ;
     3487    30063    3           CALL REPORT_ACTIVITY (INDX1,VM_MSGS_MARKED_FMT,NONE,E_MSGS_MARKED_FMT);
     3488    30064
     3489    30065        %EJECT;
PL6.E3A0      #001=VMO$MAIL File=VMO$MAIL.:VMB6TSI                               WED 08/20/97 15:19 Page:121
     3490    30066        /* Modify list command */
     3491    30067    3       CASE (%CMD_MODIFY_LIST);
     3492    30068    3           CALL NEED_UPDATE ALTRET(CONTINUE);
     3493    30069        /*
     3494    30070             ***** Pickup the name of the list to modify ...
     3495    30071        */
     3496    30072    3           VM_LISTKEY.TEXT = OUT$ -> P$B.SUBLK$(0) -> P$S.TEXT;
     3497    30073    3           CALL VMA$GET_LIST (VM_LISTKEY,VM_ADDLIST$,M$MAIL_FILE_NUM)
     3498    30074    3           WHENALTRETURN
     3499    30075    4           DO;
     3500    30076    4               CALL XUR$ERRMSG(E_UNDEFENTRY);
     3501    30077    4               GOTO MOD_CASE_END;
     3502    30078        /*
     3503    30079             ***** Report that the specified list does not exist ...
     3504    30080        */
     3505    30081    4           END;
     3506    30082        /*
     3507    30083             ***** Now prompt for sub-commands ...
     3508    30084        */
     3509    30085    4           DO FOREVER;
     3510    30086    4   REPARSE:
     3511    30087                    %INIT_STR (CODE=E_MODIFY_LIST_PROMPT, STR=VM_MODIFY_LIST_PROMPT, TEST=
             30087                        YES);
     3512    30110    4               CALL XUR$GETCMD(MODIFY_LIST$->BSD,OUT$,
     3513    30111    4                 VECTOR(SUBSTR(VM_MODIFY_LIST_PROMPT.NAME#,0,VM_MODIFY_LIST_PROMPT.L#))
             30111                          )
     3514    30112    5               WHENALTRETURN DO;
     3515    30113    5                   CALL XUR$ERRPTR;
     3516    30114    5                   CALL XUR$ERRMSG (OUTERR);
     3517    30115    5                   GOTO REPARSE;
     3518    30116    5               END;
     3519    30117        /*
     3520    30118             ***** Initialize ...
     3521    30119        */
     3522    30120    4               ADDRESS_ACCT.ACCT# = ' ';
     3523    30121    4               ADDRESS_NAME.L# = 0;
     3524    30122    4               ADDRESS_NAME.NAME# = ' ';
PL6.E3A0      #001=VMO$MAIL File=VMO$MAIL.:VMB6TSI                               WED 08/20/97 15:19 Page:122
     3525    30123    4               ADDRESS_FOLDER = ' ';
     3526    30124    4               ADDRESS_PASS.PASS# = ' ';
     3527    30125    4               ADDRESS_SITENAME = ' ';
     3528    30126    4               DOMAIN$ = ADDR(NIL);
     3529    30127    4               IF OUT$ -> P$B.NSUBLKS = 0
     3530    30128    4               THEN
     3531    30129    4                   GOTO PROCESS_MODLIST_SUBC;
     3532    30130        /*
     3533    30131             ***** Repeat this loop once for each piece of the address ...
     3534    30132        */
     3535    30133    4               PTR2$ = OUT$ -> P$B.SUBLK$(0); /* Ptr to OPT_ADDRESS */
     3536    30134    5               DO INDX3 = 0 TO PTR2$ -> P$B.NSUBLKS - 1;
     3537    30135    5                   PTR3$ = PTR2$ -> P$B.SUBLK$(INDX3);
     3538    30136    6                   DO CASE (PTR3$ -> P$B.CODE);
     3539    30137    6                   CASE (%ADD_ACCT);
     3540    30138    6                       ADDRESS_ACCT.ACCT# = PTR3$ -> P$S.TEXT;
     3541    30139    6                   CASE (%ADD_FOLDER);
     3542    30140    6                       ADDRESS_FOLDER = PTR3$ -> P$S.TEXT;
     3543    30141    6                   CASE (%ADD_NAME);
     3544    30142    6                       ADDRESS_NAME.NAME# = PTR3$ -> P$S.TEXT;
     3545    30143    6                       ADDRESS_NAME.L# = PTR3$ -> P$S.COUNT;
     3546    30144    6                   CASE (%ADD_PASS);
     3547    30145    6                       ADDRESS_PASS.PASS# = PTR3$ -> P$S.TEXT;
     3548    30146    6                   CASE (%ADD_SITE);
     3549    30147    6                       ADDRESS_SITENAME = PTR3$ -> P$S.TEXT;
     3550    30148    6                   CASE (%ADD_DOMAIN);
     3551    30149    6                       DOMAIN$ = PTR3$;
     3552    30150    6                   END;            /* Do case ... end */
     3553    30151    5               END;                  /* Do INDX3 = ... end */
     3554    30152    4               CALL TRANSFORM_DOMAIN (DOMAIN$, ADDRESS_SITENAME, ADDRESS_NAME)
     3555    30153    4                 ALTRET (REPARSE);
     3556    30154        /*
     3557    30155             ***** Now process the sub-command ...
     3558    30156        */
     3559    30157    4   PROCESS_MODLIST_SUBC:
     3560    30158    5               DO CASE (OUT$ -> P$B.CODE);
     3561    30159    5               CASE(%MODIFY_BLANK);
PL6.E3A0      #001=VMO$MAIL File=VMO$MAIL.:VMB6TSI                               WED 08/20/97 15:19 Page:123
     3562    30160    5               CASE (%MODIFY_ADD);
     3563    30161    5                   IF ADDRESS_NAME.L# ~= 0
     3564    30162    5                   THEN           /* Store as unresolved address */
     3565    30163    5                       CALL VMA$ADD_UENTRY_SORTED (ADDRESS_NAME,
     3566    30164    5                         ADDRESS_FOLDER,ADDRESS_PASS,ADDRESS_SITENAME) ALTRET(E_PMME);
     3567    30165    5                   ELSE           /* Store as resolved address */
     3568    30166    5                       CALL VMA$ADD_RENTRY_SORTED (ADDRESS_ACCT,
     3569    30167    5                         ADDRESS_FOLDER,ADDRESS_PASS,ADDRESS_SITENAME) ALTRET(E_PMME);
     3570    30168    5               CASE (%MODIFY_DEL);
     3571    30169    5                   IF ADDRESS_NAME.L# ~= 0
     3572    30170    5                   THEN           /* Store as unresolved address */
     3573    30171    6                   DO;
     3574    30172    6                       SUBSTR(WORK_STRING.NAME#,0,ADDRESS_NAME.L#) =
     3575    30173    6                         SUBSTR(ADDRESS_NAME.NAME#,0,ADDRESS_NAME.L#);
     3576    30174    6                       CALL XLATE(SUBSTR(ADDRESS_NAME.NAME#,0,ADDRESS_NAME.L#),
     3577    30175    6                         LOWER_UPPER,SUBSTR(WORK_STRING.NAME#,0,ADDRESS_NAME.L#));
     3578    30176    6                       CALL VMA$DEL_UENTRY (ADDRESS_NAME,
     3579    30177    6                         ADDRESS_FOLDER,ADDRESS_PASS,ADDRESS_SITENAME) ALTRET(
             30177                                  E_MODLIST_DEL);
     3580    30178    6                   END;
     3581    30179    5                   ELSE           /* Store as resolved address */
     3582    30180    5                       CALL VMA$DEL_RENTRY (ADDRESS_ACCT,
     3583    30181    5                         ADDRESS_FOLDER,ADDRESS_PASS,ADDRESS_SITENAME)
     3584    30182    5                       WHENALTRETURN
     3585    30183    6                       DO;
     3586    30184    6   E_MODLIST_DEL:
     3587    30185    6                           CALL XUR$ERRMSG (E_UNDEFENTRY);
     3588    30186    6                       END;
     3589    30187    5               CASE (%MODIFY_DI);
     3590    30188    5                   CALL VMD$DI_LIST (VM_LISTKEY,M$ME_NUM);
     3591    30189    5               CASE (%MODIFY_END);
     3592    30190    5                   GOTO END_MOD_LIST;
     3593    30191    5               END;                  /* Do case ... end */
     3594    30192    4           END;                       /* Do forever ... end */
     3595    30193    3   END_MOD_LIST:
     3596    30194    3           CALL VMA$PUT_LIST (VM_LISTKEY,VM_ADDLIST$,M$MAIL_FILE_NUM) ALTRET(E_PMME);
     3597    30195    3   MOD_CASE_END:;
PL6.E3A0      #001=VMO$MAIL File=VMO$MAIL.:VMB6TSI                               WED 08/20/97 15:19 Page:124
     3598    30196        %EJECT;
PL6.E3A0      #001=VMO$MAIL File=VMO$MAIL.:VMB6TSI                               WED 08/20/97 15:19 Page:125
     3599    30197        /* Modify user command */
     3600    30198    3       CASE (%CMD_MODIFY_USER);
     3601    30199    3           CALL NEED_GLOBAL ALTRET(CONTINUE);
     3602    30200        /*
     3603    30201             ***** Pickup the name of the user to modify ...
     3604    30202        */
     3605    30203    3           TEMPBUF = OUT$ -> P$B.SUBLK$(0) -> P$S.TEXT;
     3606    30204    3           SIZE = OUT$ -> P$B.SUBLK$(0) -> P$S.COUNT;
     3607    30205    3           VM_USERKEY.TEXT = OUT$ -> P$B.SUBLK$(0) -> P$S.TEXT;
     3608    30206    3           CALL VMA$GET_LIST (VM_USERKEY,VM_ADDLIST$,M$MAIL_FILE_NUM)
     3609    30207    4           WHENALTRETURN DO;
     3610    30208    4               CALL XUR$ERRMSG(E_UNDEFENTRY);
     3611    30209    4               GOTO CONTINUE;
     3612    30210    4           END;
     3613    30211        /*
     3614    30212             ***** Now prompt for sub-commands ...
     3615    30213        */
     3616    30214    3           CLOSE_SAVE.V.DCB# = DCBNUM(M$NAME);
     3617    30215                %INIT_STR (CODE=E_MODIFY_USER_PROMPT, STR=VM_MODIFY_USER_PROMPT, TEST=YES);
     3618    30238    4           DO FOREVER;
     3619    30239    4   REPARSE_USER:
     3620    30240    4               CALL XUR$GETCMD(MODIFY_USER$->BSD,OUT$,
     3621    30241    4                 VECTOR(SUBSTR(VM_MODIFY_USER_PROMPT.NAME#,0,VM_MODIFY_USER_PROMPT.L#))
             30241                          )
     3622    30242    5               WHENALTRETURN DO;
     3623    30243    5                   CALL XUR$ERRPTR;
     3624    30244    5                   CALL XUR$ERRMSG (OUTERR);
     3625    30245    5                   GOTO REPARSE_USER;
     3626    30246    5               END;
     3627    30247        /*
     3628    30248             ***** Get address parts for subcommand, if any ...
     3629    30249        */
     3630    30250    4               IF OUT$ -> P$B.NSUBLKS > 0
     3631    30251    5               THEN DO;
     3632    30252    5                   ADDRESS_ACCT.ACCT# = ' ';
     3633    30253    5                   ADDRESS_NAME.L# = 0;
     3634    30254    5                   ADDRESS_NAME.NAME# = ' ';
PL6.E3A0      #001=VMO$MAIL File=VMO$MAIL.:VMB6TSI                               WED 08/20/97 15:19 Page:126
     3635    30255    5                   ADDRESS_FOLDER = ' ';
     3636    30256    5                   ADDRESS_PASS.PASS# = ' ';
     3637    30257    5                   ADDRESS_LACCN.ACCT# = ' ';
     3638    30258    5                   ADDRESS_LUNAME = ' ';
     3639    30259    5                   ADDRESS_SITENAME = VM_SITENAME;
     3640    30260    5                   DOMAIN$ = ADDR(NIL);
     3641    30261        /*
     3642    30262             ***** Repeat this loop once for each piece of the address ...
     3643    30263        */
     3644    30264    5                   BLK$ = OUT$ -> P$B.SUBLK$(0);
     3645    30265    6                   DO INDX2 = 0 TO BLK$ -> P$B.NSUBLKS - 1;
     3646    30266    6                       PTR2$ = BLK$ -> P$B.SUBLK$(INDX2);
     3647    30267    7                       DO CASE (PTR2$ -> P$B.CODE);
     3648    30268    7                       CASE (%ADD_ACCT);
     3649    30269    7                           ADDRESS_LACCN.ACCT# = PTR2$ -> P$S.TEXT;
     3650    30270    7                       CASE (%ADD_UNAME);
     3651    30271    7                           ADDRESS_LUNAME = PTR2$ -> P$S.TEXT;
     3652    30272    7                       CASE (%ADD_ADDRESS);
     3653    30273    8                           DO INDX3 = 0 TO PTR2$ -> P$B.NSUBLKS - 1;
     3654    30274    8                               PTR3$ = PTR2$ -> P$B.SUBLK$(INDX3);
     3655    30275    9                               DO CASE (PTR3$ -> P$B.CODE);
     3656    30276    9                               CASE (%ADD_ACCT);
     3657    30277    9                                   ADDRESS_ACCT.ACCT# = PTR3$ -> P$S.TEXT;
     3658    30278    9                               CASE (%ADD_FOLDER);
     3659    30279    9                                   ADDRESS_FOLDER = PTR3$ -> P$S.TEXT;
     3660    30280    9                               CASE (%ADD_NAME);
     3661    30281    9                                   ADDRESS_NAME.NAME# = PTR3$ -> P$S.TEXT;
     3662    30282    9                                   ADDRESS_NAME.L# = PTR3$ -> P$S.COUNT;
     3663    30283    9                               CASE (%ADD_PASS);
     3664    30284    9                                   ADDRESS_PASS.PASS# = PTR3$ -> P$S.TEXT;
     3665    30285    9                               CASE (%ADD_SITE);
     3666    30286    9                                   ADDRESS_SITENAME = PTR3$ -> P$S.TEXT;
     3667    30287    9                               CASE (%ADD_DOMAIN);
     3668    30288    9                                   DOMAIN$ = PTR3$;
     3669    30289    9                               END;
     3670    30290    8                           END;
     3671    30291    7                       END;
PL6.E3A0      #001=VMO$MAIL File=VMO$MAIL.:VMB6TSI                               WED 08/20/97 15:19 Page:127
     3672    30292    6                   END;
     3673    30293    5                   CALL TRANSFORM_DOMAIN (DOMAIN$, ADDRESS_SITENAME, ADDRESS_NAME)
     3674    30294    5                     ALTRET (REPARSE_USER);
     3675    30295    5                   IF ADDRESS_ACCT.ACCT# = ' '
     3676    30296    5                   THEN
     3677    30297    5                       ADDRESS_ACCT.ACCT# = ADDRESS_LACCN.ACCT#;
     3678    30298    5                   ELSE
     3679    30299    5                       IF ADDRESS_LACCN.ACCT# = ' '
     3680    30300    5                       THEN
     3681    30301    5                           ADDRESS_LACCN.ACCT# = ADDRESS_ACCT.ACCT#;
     3682    30302    5               END;
     3683    30303        /*
     3684    30304             ***** Now process the sub-command ...
     3685    30305        */
     3686    30306    5               DO CASE (OUT$ -> P$B.CODE);
     3687    30307    5               CASE(%MODIFY_BLANK);
     3688    30308    5               CASE (%MODIFY_ADD);
     3689    30309        /*
     3690    30310             ***** Store the reverse name map info if available ...
     3691    30311        */
     3692    30312    5                   IF ADDRESS_LACCN.ACCT# ~= ' '
     3693    30313    5                     AND (ADDRESS_SITENAME = VM_SITENAME OR ADDRESS_SITENAME = ' ')
     3694    30314    6                   THEN DO;              /* Info avail */
     3695    30315    6                       CALL XUR$DISABLE;
     3696    30316    6                       CALL M$OPEN (OPEN_NAME_MAP) ALTRET(E_PMME);
     3697    30317    6                       CALL CONCAT (NAME_KEY.NAME#,ADDRESS_LACCN.ACCT#,
     3698    30318    6                         ADDRESS_LUNAME);
     3699    30319    6                       NAME_KEY.L# = 20;
     3700    30320    6                       WRITE_NAME_MAP.BUF_ = VECTOR (SUBSTR(TEMPBUF,0,SIZE));
     3701    30321        /*
     3702    30322             ***** Check if this NAME_MAP entry already exists.
     3703    30323                   If it does, then error!!!
     3704    30324        */
     3705    30325    6                       CALL M$READ (READ_NAME_MAP)
     3706    30326    7                       WHENRETURN DO;
     3707    30327    7                           IF VM_USERKEY.TEXT ~= SUBSTR (WORK_STRING.NAME#, 0,
     3708    30328    7                             DCBADDR(DCBNUM(M$NAME)) -> F$DCB.ARS#)
PL6.E3A0      #001=VMO$MAIL File=VMO$MAIL.:VMB6TSI                               WED 08/20/97 15:19 Page:128
     3709    30329    8                           THEN DO;
     3710    30330    8                               IF DCBADDR(DCBNUM(M$NAME)) -> F$DCB.ARS# <= 21
     3711    30331    8                               THEN
     3712    30332    8                                   WORK_STRING.L# =
     3713    30333    8                                     DCBADDR(DCBNUM(M$NAME)) -> F$DCB.ARS#;
     3714    30334    9                               ELSE DO;
     3715    30335    9                                   WORK_STRING.L# = 31;
     3716    30336    9                                   SUBSTR (WORK_STRING.NAME#,28,3) = '...';
     3717    30337    9                               END;
     3718    30338    8                               CALL XUR$ERRMSG (E_NMENTRYEXISTS,,,
     3719    30339    8                                 VECTOR(NAME_KEY),VECTOR(WORK_STRING));
     3720    30340    8                               CALL M$CLOSE (CLOSE_SAVE) ALTRET(E_PMME);
     3721    30341    8                               CALL XUR$ENABLE;
     3722    30342    8                               GOTO REPARSE_USER;
     3723    30343    8                           END;
     3724    30344    7                       END;
     3725    30345    6                       CALL M$WRITE (WRITE_NAME_MAP) ALTRET(E_PMME);
     3726    30346    6                       CALL M$CLOSE (CLOSE_SAVE) ALTRET(E_PMME);
     3727    30347    6                       CALL XUR$ENABLE;
     3728    30348    6                   END;
     3729    30349    6                   ELSE DO;
     3730    30350    6                       NAME_KEY.L# = 0;
     3731    30351    6                       NAME_KEY.NAME# = ' ';
     3732    30352    6                   END;
     3733    30353        /*
     3734    30354             ***** Add this entry to the user list ...
     3735    30355        */
     3736    30356    5                   IF ADDRESS_NAME.L# ~= 0
     3737    30357    6                   THEN DO;              /* Store as unresolved address */
     3738    30358    6                       CALL VMA$ADD_UENTRY_SORTED (ADDRESS_NAME,ADDRESS_FOLDER,
     3739    30359    6                         ADDRESS_PASS,ADDRESS_SITENAME,%NO#,NAME_KEY.NAME#)
     3740    30360    6                         ALTRET(E_PMME);
     3741    30361    6                   END;
     3742    30362    6                   ELSE DO;              /* Store as resolved address */
     3743    30363    6                       CALL VMA$ADD_RENTRY_SORTED (ADDRESS_ACCT,ADDRESS_FOLDER,
     3744    30364    6                         ADDRESS_PASS,ADDRESS_SITENAME,%NO#,NAME_KEY.NAME#)
     3745    30365    6                         ALTRET(E_PMME);
PL6.E3A0      #001=VMO$MAIL File=VMO$MAIL.:VMB6TSI                               WED 08/20/97 15:19 Page:129
     3746    30366    6                   END;
     3747    30367    5               CASE (%MODIFY_DEL);
     3748    30368    5                   CALL CONCAT (NAME_KEY.NAME#,ADDRESS_LACCN.ACCT#,ADDRESS_LUNAME);
     3749    30369    5                   IF ADDRESS_NAME.L# ~= 0
     3750    30370    6                   THEN DO;         /* Delete unresolved address */
     3751    30371    6                       SUBSTR(WORK_STRING.NAME#,0,ADDRESS_NAME.L#) =
     3752    30372    6                         SUBSTR(ADDRESS_NAME.NAME#,0,ADDRESS_NAME.L#);
     3753    30373    6                       CALL XLATE(SUBSTR(ADDRESS_NAME.NAME#,0,ADDRESS_NAME.L#),
     3754    30374    6                         LOWER_UPPER,SUBSTR(WORK_STRING.NAME#,0,ADDRESS_NAME.L#));
     3755    30375    6                       CALL VMA$DEL_UENTRY (ADDRESS_NAME,ADDRESS_FOLDER,ADDRESS_PASS,
     3756    30376    6                         ADDRESS_SITENAME,%NO#,NAME_KEY.NAME#) ALTRET(E_MODUSER_DEL);
     3757    30377    6                   END;
     3758    30378    5                   ELSE             /* Delete resolved address */
     3759    30379    5                       CALL VMA$DEL_RENTRY (ADDRESS_ACCT,ADDRESS_FOLDER,ADDRESS_PASS,
     3760    30380    5                         ADDRESS_SITENAME,%NO#,NAME_KEY.NAME#)
     3761    30381    6                       WHENALTRETURN DO;
     3762    30382    6   E_MODUSER_DEL:
     3763    30383    6                           CALL XUR$ERRMSG (E_UNDEFENTRY);
     3764    30384    6                           GOTO REPARSE_USER;
     3765    30385    6                       END;
     3766    30386        /*
     3767    30387             ***** Delete the reverse name map info if present ...
     3768    30388        */
     3769    30389    5                   IF ADDRESS_LACCN.ACCT# ~= ' '
     3770    30390    5                     AND (ADDRESS_SITENAME = VM_SITENAME OR ADDRESS_SITENAME = ' ')
     3771    30391    6                   THEN DO;              /* Info avail */
     3772    30392    6                       CALL XUR$DISABLE;
     3773    30393    6                       CALL M$OPEN (OPEN_NAME_MAP) ALTRET(E_PMME);
     3774    30394    6                       CALL CONCAT (NAME_KEY.NAME#,ADDRESS_LACCN.ACCT#,
     3775    30395    6                         ADDRESS_LUNAME);
     3776    30396    6                       NAME_KEY.L# = 20;
     3777    30397    7                       CALL M$DELREC (DELREC_NAME_MAP) WHENALTRETURN DO; END;
     3778    30398    6                       CALL M$CLOSE (CLOSE_SAVE) ALTRET(E_PMME);
     3779    30399    6                       CALL XUR$ENABLE;
     3780    30400    6                   END;
     3781    30401    5               CASE (%MODIFY_DI);
     3782    30402    5                   CALL VMD$DI_USER (VM_USERKEY,M$ME_NUM);
PL6.E3A0      #001=VMO$MAIL File=VMO$MAIL.:VMB6TSI                               WED 08/20/97 15:19 Page:130
     3783    30403    5               CASE (%MODIFY_END);
     3784    30404    5                   GOTO END_MOD_USER;
     3785    30405    5               END;
     3786    30406    4           END;
     3787    30407    3   END_MOD_USER:
     3788    30408    3           CALL VMA$PUT_LIST (VM_USERKEY,VM_ADDLIST$,M$MAIL_FILE_NUM) ALTRET(E_PMME);
     3789    30409        %EJECT;
PL6.E3A0      #001=VMO$MAIL File=VMO$MAIL.:VMB6TSI                               WED 08/20/97 15:19 Page:131
     3790    30410        /* Next command */
     3791    30411    3       CASE (%CMD_NEXT_MESSAGE);
     3792    30412
     3793    30413    3           IF LAST_COMMAND_CODE = %CMD_DISPLAY_MESSAGE
     3794    30414    3           THEN
     3795    30415                    %INIT_STR (CODE=E_DI_NEXT_CMD, STR=VM_DI_NEXT_CMD,
     3796    30416                      NEXT_CMD=NEXT_COMMAND_TEXT, TEST=YES);
     3797    30439    3           ELSE
     3798    30440                  %INIT_STR (CODE=E_LIST_NEXT_CMD, STR=VM_LIST_NEXT_CMD,
     3799    30441                  NEXT_CMD=NEXT_COMMAND_TEXT, TEST=YES);
     3800    30464
     3801    30465        %EJECT;
PL6.E3A0      #001=VMO$MAIL File=VMO$MAIL.:VMB6TSI                               WED 08/20/97 15:19 Page:132
     3802    30466        /* Output command */
     3803    30467    3       CASE (%CMD_OUTPUT);
     3804    30468    3           CALL XUR$OPENOUT (M$LO_NUM, OUT$ -> P$B)
     3805    30469    4           WHENALTRETURN DO;
     3806    30470    4               CALL XUR$ERRMSG (XUG$GETCMD.ERR#,M$LO_NUM);
     3807    30471    4           END;
     3808    30472        %EJECT;
PL6.E3A0      #001=VMO$MAIL File=VMO$MAIL.:VMB6TSI                               WED 08/20/97 15:19 Page:133
     3809    30473        /* Page command */
     3810    30474    3       CASE (%CMD_PAGE);
     3811    30475    3           CALL VMD$EJECT(M$LO_NUM) ALTRET(E_PMME);
     3812    30476        %EJECT;
PL6.E3A0      #001=VMO$MAIL File=VMO$MAIL.:VMB6TSI                               WED 08/20/97 15:19 Page:134
     3813    30477                                                /* Print command */
     3814    30478    3       CASE (%CMD_PRINT);
     3815    30479    3           CALL M$LDEV (PRINT_LDEV) ALTRET(E_PMME);
     3816    30480        %EJECT;
PL6.E3A0      #001=VMO$MAIL File=VMO$MAIL.:VMB6TSI                               WED 08/20/97 15:19 Page:135
     3817    30481        /* Previous message command */
     3818    30482    3       CASE(%CMD_PREVIOUS_MESSAGE);
     3819    30483    3           IF LAST_COMMAND_CODE = %CMD_DISPLAY_MESSAGE
     3820    30484    3           THEN
     3821    30485                    %INIT_STR (CODE=E_DI_PREVIOUS_CMD, STR=VM_DI_PREVIOUS_CMD,
     3822    30486                      NEXT_CMD=NEXT_COMMAND_TEXT, TEST=YES);
     3823    30509    3           ELSE
     3824    30510                  %INIT_STR (CODE=E_LIST_PREVIOUS_CMD, STR=VM_LIST_PREVIOUS_CMD,
     3825    30511                  NEXT_CMD=NEXT_COMMAND_TEXT, TEST=YES);
     3826    30534        %EJECT;
PL6.E3A0      #001=VMO$MAIL File=VMO$MAIL.:VMB6TSI                               WED 08/20/97 15:19 Page:136
     3827    30535        /* Profile command */
     3828    30536    3       CASE (%CMD_PROFILE);
     3829    30537    3           CALL NEED_UPDATE ALTRET(CONTINUE);
     3830    30538        /*
     3831    30539             ***** Copy current profile to work segment so it can be restored
     3832    30540                   if new record won't fit ...
     3833    30541        */
     3834    30542    3           IF VBOUND (VM_PROFILE_) > VBOUND (VM_WORK_)
     3835    30543    4           THEN DO;
     3836    30544    4               INDX1 = (VBOUND (VM_PROFILE_) - VBOUND (VM_WORK_)) / 4;
     3837    30545    4               CALL VMA$ENLARGE_SEGMENT (VM_WORK_,INDX1) ALTRET(E_PMME);
     3838    30546    4           END;
     3839    30547    3           INDX1 = VM_PROFILE.PROFILE_SIZE * 4;
     3840    30548    3           VM_WORK$ -> INDX1_CHARS = VM_PROFILE$ -> INDX1_CHARS;
     3841    30549        /*
     3842    30550             ***** Setup for dynamic allocation of WORK_AREA ...
     3843    30551        */
     3844    30552    3           X$MCB.WKSZ = VM_PROFILE.PROFILE_SIZE -
     3845    30553    3             POFFW(ADDR(VM_PROFILE.WORK_AREA),ADDR(VM_PROFILE));
     3846    30554    3           X$MCB.FREE_HEAD$ = VM_PROFILE.FREE$;
     3847    30555    3           X$MCB.SEGMENT_BASE$ = ADDR(VM_PROFILE.WORK_AREA);
     3848    30556    3           X$MCB.HI_SEGMENT$ = VM_PROFILE.NEXT$;
     3849    30557    3           X$MCB.TYPE = 0;
     3850    30558        /**/
     3851    30559    4           DO INDX1 = 0 TO OUT$ -> P$B.NSUBLKS - 1;
     3852    30560
     3853    30561    4               BLK$ = OUT$ -> P$B.SUBLK$ (INDX1);
     3854    30562
     3855    30563    5               DO CASE (P$S.CODE);
     3856    30564
     3857    30565    5               CASE (%POPT_ANSWER);
     3858    30566    5                   IF P$B.SUBLK$(0) -> P$B.CODE = %OPT_RECEIVERS
     3859    30567    5                   THEN
     3860    30568    5                       VM_PROFILE.OPT.ANS_RECEIVERS = %YES#;
     3861    30569    5                   ELSE
     3862    30570    5                       VM_PROFILE.OPT.ANS_RECEIVERS = %NO#;
     3863    30571
PL6.E3A0      #001=VMO$MAIL File=VMO$MAIL.:VMB6TSI                               WED 08/20/97 15:19 Page:137
     3864    30572    5               CASE (%POPT_DELATTACH);
     3865    30573    5                   IF P$B.SUBLK$(0) -> P$B.CODE = %OPT_YES
     3866    30574    5                   THEN          /* Yes specified */
     3867    30575    5                       VM_PROFILE.OPT.DEL_ON_DETACH = %YES#;
     3868    30576    5                   ELSE          /* No specified */
     3869    30577    5                       VM_PROFILE.OPT.DEL_ON_DETACH = %NO#;
     3870    30578
     3871    30579    5               CASE (%POPT_EXTADDRDISP);
     3872    30580    5                   IF P$B.SUBLK$(0) -> P$B.CODE = %OPT_YES
     3873    30581    5                   THEN          /* Yes specified */
     3874    30582    5                       VM_PROFILE.OPT.EXT_ADDR_DISP = %YES#;
     3875    30583    5                   ELSE          /* No specified */
     3876    30584    5                       VM_PROFILE.OPT.EXT_ADDR_DISP = %NO#;
     3877    30585
     3878    30586    5               CASE (%POPT_AUTOEDIT);
     3879    30587    5                   IF P$B.SUBLK$(0) -> P$B.CODE = %OPT_YES
     3880    30588    5                   THEN           /* Yes specified */
     3881    30589    5                       VM_PROFILE.OPT.AUTO_EDIT = %YES#;
     3882    30590    5                   ELSE           /* No specified */
     3883    30591    5                       VM_PROFILE.OPT.AUTO_EDIT = %NO#;
     3884    30592
     3885    30593    5               CASE (%POPT_COMBINE);
     3886    30594    5                   IF P$B.SUBLK$(0) -> P$B.CODE = %OPT_YES
     3887    30595    5                   THEN           /* Yes specified */
     3888    30596    5                       VM_PROFILE.OPT.COMBINE = %YES#;
     3889    30597    5                   ELSE           /* No specified */
     3890    30598    5                       VM_PROFILE.OPT.COMBINE = %NO#;
     3891    30599
     3892    30600    5               CASE (%POPT_DR);
     3893    30601    5                   IF P$B.SUBLK$(0) -> P$B.CODE = %OPT_YES
     3894    30602    5                   THEN           /* Yes specified */
     3895    30603    5                       VM_PROFILE.OPT.DELIVERY_RECEIPT = %YES#;
     3896    30604    5                   ELSE           /* No specified */
     3897    30605    5                       VM_PROFILE.OPT.DELIVERY_RECEIPT = %NO#;
     3898    30606
     3899    30607    5               CASE (%POPT_DISPTRACE);
     3900    30608    5                   IF P$B.SUBLK$(0) -> P$B.CODE = %OPT_YES
PL6.E3A0      #001=VMO$MAIL File=VMO$MAIL.:VMB6TSI                               WED 08/20/97 15:19 Page:138
     3901    30609    5                   THEN           /* Yes specified */
     3902    30610    5                       VM_PROFILE.OPT.DISPTRACE = %YES#;
     3903    30611    5                   ELSE           /* No specified */
     3904    30612    5                       VM_PROFILE.OPT.DISPTRACE = %NO#;
     3905    30613
     3906    30614    5               CASE (%POPT_GRANULES) ;
     3907    30615    5                   CALL CHARBIN(TEMP,P$B.SUBLK$(0)->P$S.TEXT);
     3908    30616    5                   VM_PROFILE.GRANULES = TEMP;
     3909    30617
     3910    30618    5               CASE (%POPT_HEADERS);
     3911    30619    5                   IF P$B.SUBLK$(0) -> P$B.CODE = %OPT_YES
     3912    30620    5                   THEN           /* Yes specified */
     3913    30621    5                       VM_PROFILE.OPT.HEADERS = %YES#;
     3914    30622    5                   ELSE           /* No specified */
     3915    30623    5                       VM_PROFILE.OPT.HEADERS = %NO#;
     3916    30624
     3917    30625    5               CASE (%POPT_FCOPY);
     3918    30626    5                   IF P$B.SUBLK$(0) -> P$B.CODE = %OPT_YES
     3919    30627    5                   THEN           /* Yes specified */
     3920    30628    5                       VM_PROFILE.OPT.FCOPY = %YES#;
     3921    30629    5                   ELSE           /* No specified */
     3922    30630    5                       VM_PROFILE.OPT.FCOPY = %NO#;
     3923    30631
     3924    30632    5               CASE (%POPT_PAGE);
     3925    30633    5                   IF P$B.SUBLK$(0) -> P$B.CODE = %OPT_YES
     3926    30634    5                   THEN           /* Yes specified */
     3927    30635    5                       VM_PROFILE.OPT.PAGE = %YES#;
     3928    30636    5                   ELSE           /* No specified */
     3929    30637    5                       VM_PROFILE.OPT.PAGE = %NO#;
     3930    30638
     3931    30639    5               CASE (%POPT_PREP);
     3932    30640    5                   IF P$B.SUBLK$(0) -> P$B.CODE = %OPT_YES
     3933    30641    5                   THEN           /* Yes specified */
     3934    30642    5                       VM_PROFILE.OPT.PREPROCESS = %YES#;
     3935    30643    5                   ELSE           /* No specified */
     3936    30644    5                       VM_PROFILE.OPT.PREPROCESS = %NO#;
     3937    30645
PL6.E3A0      #001=VMO$MAIL File=VMO$MAIL.:VMB6TSI                               WED 08/20/97 15:19 Page:139
     3938    30646    5               CASE (%POPT_RENUMBER);
     3939    30647    5                   IF P$B.SUBLK$(0) -> P$B.CODE = %OPT_YES
     3940    30648    5                   THEN           /* Yes specified */
     3941    30649    5                       VM_PROFILE.OPT.RENUMBER = %YES#;
     3942    30650    5                   ELSE           /* No specified */
     3943    30651    5                       VM_PROFILE.OPT.RENUMBER = %NO#;
     3944    30652    5               CASE (%POPT_FFOLDER);
     3945    30653    5                   IF VM_PROFILE.FILE_FOLDER$ = ADDR(NIL)
     3946    30654    5                   THEN
     3947    30655    6                   DO;        /* Allocate space */
     3948    30656    6                       X$MCB.SIZE = SIZEC(VM$RADDRESS);
     3949    30657    6                       CALL X$ALLOCATE (X$MCB) ALTRET(E_ALLOCATE);
     3950    30658    6                       VM_PROFILE.FILE_FOLDER$ = X$MCB.ADDRESS$;
     3951    30659    6                   END;
     3952    30660    5                   BLK$ = BLK$ -> P$B.SUBLK$(0); /* To account for OPT_MID */
     3953    30661    5                   IF BLK$->P$B.CODE = %OPT_NONE
     3954    30662    6                   THEN DO;
     3955    30663    6                       X$MCB.ADDRESS$ = VM_PROFILE.FILE_FOLDER$;
     3956    30664    6                       CALL X$DEALLOCATE (X$MCB) ALTRET(E_ALLOCATE);
     3957    30665    6                       VM_PROFILE.FILE_FOLDER$ = ADDR(NIL);
     3958    30666    6                   END;
     3959    30667    6                   ELSE DO;
     3960    30668    6                       VM_RADDRESS.ACCT = VM_CURRENT_FOLDER.ACCT;
     3961    30669    6                       VM_RADDRESS.FOLDER = VM_CURRENT_FOLDER.FOLDER;
     3962    30670    6                       VM_RADDRESS.PASS = VM_CURRENT_FOLDER.PASS;
     3963    30671    6                       VM_RADDRESS.SITENAME = VM_CURRENT_FOLDER.SITENAME;
     3964    30672    6                       VM_RADDRESS.NEXT$ = ADDR(NIL);
     3965    30673    6                       VM_RADDRESS.PREV$ = ADDR(NIL);
     3966    30674    6                       VM_RADDRESS.FLAGS = %NO#;
     3967    30675    6                       VM_RADDRESS.TYPE = %VM_ADD_RESOLVED;
     3968    30676    7                       DO INDX2 = 0 TO BLK$ -> P$B.NSUBLKS - 1;
     3969    30677    7                           PTR1$ = BLK$ -> P$B.SUBLK$(INDX2);
     3970    30678    8                           DO CASE (PTR1$ -> P$B.CODE);
     3971    30679    8                           CASE (%ADD_ACCT);
     3972    30680    8                               VM_RADDRESS.ACCT = PTR1$ -> P$S.TEXT;
     3973    30681    8                           CASE (%ADD_FOLDER);
     3974    30682    8                               VM_RADDRESS.FOLDER = PTR1$ -> P$S.TEXT;
PL6.E3A0      #001=VMO$MAIL File=VMO$MAIL.:VMB6TSI                               WED 08/20/97 15:19 Page:140
     3975    30683    8                           CASE (%ADD_NAME);
     3976    30684    8                               CALL XUR$ERRMSG (E_NAMENTALLOWED);
     3977    30685    8                           CASE (%ADD_PASS);
     3978    30686    8                               VM_RADDRESS.PASS = PTR1$ -> P$S.TEXT;
     3979    30687    8                           END; /* Do case ... end */
     3980    30688    7                       END; /* Do INDX1 = ... end */
     3981    30689    6                       IF (VM_RADDRESS.FOLDER='CENTRAL') AND
     3982    30690    6                         (VM_RADDRESS.ACCT=B$JIT.ACCN)
     3983    30691    6                       THEN
     3984    30692    6                           VM_PROFILE.FILE_FOLDER$ = ADDR(NIL);
     3985    30693    6                       ELSE
     3986    30694    6                           VM_PROFILE.FILE_FOLDER$ -> VM$RADDRESS = VM_RADDRESS;
     3987    30695    6                   END;       /* If not none */
     3988    30696    5               CASE (%POPT_RR);
     3989    30697    5                   IF P$B.SUBLK$(0) -> P$B.CODE = %OPT_YES
     3990    30698    5                   THEN           /* Yes specified */
     3991    30699    5                       VM_PROFILE.OPT.RETURN_RECEIPT = %YES#;
     3992    30700    5                   ELSE           /* No specified */
     3993    30701    5                       VM_PROFILE.OPT.RETURN_RECEIPT = %NO#;
     3994    30702
     3995    30703    5               CASE (%POPT_RTO);
     3996    30704        /*
     3997    30705             ***** Release any allocated space ...
     3998    30706        */
     3999    30707    5                   IF VM_PROFILE.REPLY_TO$ ~= ADDR(NIL)
     4000    30708    5                   THEN
     4001    30709    6                   DO;
     4002    30710    6                       X$MCB.ADDRESS$ = VM_PROFILE.REPLY_TO$;
     4003    30711    6                       CALL X$DEALLOCATE (X$MCB) ALTRET(E_ALLOCATE);
     4004    30712    6                       VM_PROFILE.REPLY_TO$ = ADDR(NIL);
     4005    30713    6                   END;
     4006    30714        /* Check if none or null string was specified */
     4007    30715    5                   IF P$B.SUBLK$(0) -> P$B.CODE ~= %OPT_NONE AND P$B.SUBLK$(0)->P$B.
             30715                            SUBLK$(0) -> P$S.COUNT > 0
     4008    30716    5                   THEN
     4009    30717    6                   DO;
     4010    30718    6                       BLK$ = OUT$ -> P$B.SUBLK$(INDX1) -> P$B.SUBLK$(0);
PL6.E3A0      #001=VMO$MAIL File=VMO$MAIL.:VMB6TSI                               WED 08/20/97 15:19 Page:141
     4011    30719    6                       INDX2 = P$B.CPOS;
     4012    30720    6                       X$MCB.SIZE = (P_PCB.NCHARS - INDX2) + 1;
     4013    30721    6                       X$MCB.TYPE = 0; /* Bytes */
     4014    30722    6                       CALL X$ALLOCATE (X$MCB) ALTRET(E_ALLOCATE);
     4015    30723    6                       VM_PROFILE.REPLY_TO$ = X$MCB.ADDRESS$;
     4016    30724    6                       VM_PROFILE.REPLY_TO$ -> X$STRING.SIZ = X$MCB.SIZE - 1;
     4017    30725    6                       VM_PROFILE.REPLY_TO$ -> X$STRING.TEXT = SUBSTR(CURRENT_LINE,
             30725                                INDX2,P_PCB.NCHARS - INDX2);
     4018    30726    6                   END;
     4019    30727    5               CASE (%POPT_SETUP);
     4020    30728    5                   IF P$B.SUBLK$(0)->P$B.CODE = %OPT_NONE THEN VM_PROFILE.SETUP.COUNT =
             30728                            0;
     4021    30729    6                   ELSE DO;
     4022    30730    6                       VM_PROFILE.SETUP.COUNT = P$B.SUBLK$(0) -> P$S.COUNT;
     4023    30731    6                       VM_PROFILE.SETUP.TEXT = P$B.SUBLK$(0) -> P$S.TEXT;
     4024    30732    6                   END;
     4025    30733    5               CASE (%POPT_SIGNED);
     4026    30734        /*
     4027    30735             ***** Release any allocated space ...
     4028    30736        */
     4029    30737    5                   IF VM_PROFILE.SIGNED$ ~= ADDR(NIL)
     4030    30738    5                   THEN
     4031    30739    6                   DO;
     4032    30740    6                       X$MCB.ADDRESS$ = VM_PROFILE.SIGNED$;
     4033    30741    6                       CALL X$DEALLOCATE (X$MCB) ALTRET(E_ALLOCATE);
     4034    30742    6                       VM_PROFILE.SIGNED$ = ADDR(NIL);
     4035    30743    6                   END;
     4036    30744    5                   IF P$B.SUBLK$(0)->P$B.CODE ~= %OPT_NONE AND P$B.SUBLK$(0)->P$S.COUNT
             30744                            > 0
     4037    30745    5                   THEN
     4038    30746    6                   DO;
     4039    30747    6                       X$MCB.SIZE = P$B.SUBLK$(0)->P$S.COUNT + 1;
     4040    30748    6                       X$MCB.TYPE = 0; /* Bytes */
     4041    30749    6                       CALL X$ALLOCATE (X$MCB) ALTRET(E_ALLOCATE);
     4042    30750    6                       VM_PROFILE.SIGNED$ = X$MCB.ADDRESS$;
     4043    30751    6                       VM_PROFILE.SIGNED$ -> X$STRING.SIZ = P$B.SUBLK$(0) -> P$S.COUNT;
     4044    30752    6                       VM_PROFILE.SIGNED$ -> X$STRING.TEXT = P$B.SUBLK$(0) -> P$S.TEXT;
PL6.E3A0      #001=VMO$MAIL File=VMO$MAIL.:VMB6TSI                               WED 08/20/97 15:19 Page:142
     4045    30753    6                   END;
     4046    30754    5               CASE (%POPT_EDITOR);
     4047    30755        /*
     4048    30756             ***** Release any allocated space ...
     4049    30757        */
     4050    30758    5                   PTR4$ = VM_PROFILE.EDITOR$;
     4051    30759    5                   IF PTR4$ ~= ADDR(NIL) AND PTR4R$.SEGID = %DS3SID
     4052    30760    5                   THEN
     4053    30761    6                   DO;
     4054    30762    6                       X$MCB.ADDRESS$ = VM_PROFILE.EDITOR$;
     4055    30763    6                       CALL X$DEALLOCATE (X$MCB) ALTRET(E_ALLOCATE);
     4056    30764    6                       VM_PROFILE.EDITOR$ = ADDR(NIL);
     4057    30765    6                   END;
     4058    30766    5                   IF P$B.SUBLK$(0)->P$B.CODE ~= %OPT_NONE AND P$B.SUBLK$(0)->P$S.COUNT
             30766                            > 0
     4059    30767    5                   THEN
     4060    30768    6                   DO;
     4061    30769    6                       X$MCB.SIZE = P$B.SUBLK$(0)->P$S.COUNT + 1;
     4062    30770    6                       X$MCB.TYPE = 0; /* Bytes */
     4063    30771    6                       CALL X$ALLOCATE (X$MCB) ALTRET(E_ALLOCATE);
     4064    30772    6                       VM_PROFILE.EDITOR$ = X$MCB.ADDRESS$;
     4065    30773    6                       VM_PROFILE.EDITOR$ -> X$STRING.SIZ = P$B.SUBLK$(0) -> P$S.COUNT;
     4066    30774    6                       VM_PROFILE.EDITOR$ -> X$STRING.TEXT = P$B.SUBLK$(0) -> P$S.TEXT;
     4067    30775    6                   END;
     4068    30776    5               CASE (%POPT_SRCH);
     4069    30777    5                   IF BLK$->P$B.NSUBLKS > %VM_MAX_SRCH
     4070    30778    6                   THEN DO;
     4071    30779    6                       CALL XUR$ERRMSG (E_TOOMANYSRCH);
     4072    30780    6                       GOTO CONTINUE; /* abort processing */
     4073    30781    6                   END;
     4074    30782        /* An arbitary limit of 4 has been set on the number of srch folders. */
     4075    30783    6                   DO INDX4 = %VM_MAX_SRCH-1 DOWNTO 0;
     4076    30784    6                       IF VM_PROFILE.SEARCH_LIST$(INDX4) ~= ADDR(NIL)
     4077    30785    6                       THEN
     4078    30786    7                       DO;  /* Deallocate space */
     4079    30787    7                           X$MCB.ADDRESS$ = VM_PROFILE.SEARCH_LIST$(INDX4);
     4080    30788    7                           CALL X$DEALLOCATE (X$MCB);
PL6.E3A0      #001=VMO$MAIL File=VMO$MAIL.:VMB6TSI                               WED 08/20/97 15:19 Page:143
     4081    30789    7                           VM_PROFILE.SEARCH_LIST$(INDX4) = ADDR(NIL);
     4082    30790    7                       END;
     4083    30791    6                   END;
     4084    30792    5                   IF BLK$->P$B.SUBLK$(0)->P$B.CODE ~= %OPT_NONE
     4085    30793    6                   THEN DO;
     4086    30794    6                       PTR4$ = BLK$;
     4087    30795    7                       DO INDX4 = 0 TO PTR4$->P$B.NSUBLKS-1;
     4088    30796    7                           BLK$ = PTR4$ -> P$B.SUBLK$(INDX4);
             30796                                    /* To account for OPT_MID */
     4089    30797    7                           VM_RADDRESS.ACCT = ' ';
     4090    30798    7                           VM_RADDRESS.FOLDER = ' ';
     4091    30799    7                           VM_RADDRESS.PASS = ' ';
     4092    30800    7                           VM_RADDRESS.SITENAME = ' ';
     4093    30801    7                           VM_RADDRESS.NEXT$ = ADDR(NIL);
     4094    30802    7                           VM_RADDRESS.PREV$ = ADDR(NIL);
     4095    30803    7                           VM_RADDRESS.FLAGS = %NO#;
     4096    30804    7                           VM_RADDRESS.TYPE = %VM_ADD_RESOLVED;
     4097    30805    7                           VM_UADDRESS.USER_NAME.COUNT = 0;
     4098    30806    8                           DO INDX2 = 0 TO BLK$ -> P$B.NSUBLKS - 1;
     4099    30807    8                               PTR1$ = BLK$ -> P$B.SUBLK$(INDX2);
     4100    30808    9                               DO CASE (PTR1$ -> P$B.CODE);
     4101    30809    9                               CASE (%ADD_ACCT);
     4102    30810    9                                   VM_RADDRESS.ACCT = PTR1$ -> P$S.TEXT;
     4103    30811    9                               CASE (%ADD_FOLDER);
     4104    30812    9                                   VM_RADDRESS.FOLDER = PTR1$ -> P$S.TEXT;
     4105    30813    9                               CASE (%ADD_NAME);
     4106    30814    9                                   VM_UADDRESS.USER_NAME.COUNT = PTR1$ -> P$S.COUNT;
     4107    30815    9                                   VM_UADDRESS.USER_NAME.TEXT = PTR1$ -> P$S.TEXT;
     4108    30816    9                                   IF VM_UADDRESS.USER_NAME.COUNT = 0 THEN GOTO
             30816                                            NULL_ENTRY;
     4109    30817    9                               CASE (%ADD_PASS);
     4110    30818    9                                   VM_RADDRESS.PASS = PTR1$ -> P$S.TEXT;
     4111    30819    9                               END; /* Do case ... end */
     4112    30820    8                           END; /* Do INDX2 = ... end */
     4113    30821    7                           IF VM_UADDRESS.USER_NAME.COUNT > 0
     4114    30822    7                           THEN /* Store as unresolved address */
     4115    30823    8                           DO;
PL6.E3A0      #001=VMO$MAIL File=VMO$MAIL.:VMB6TSI                               WED 08/20/97 15:19 Page:144
     4116    30824    8                               X$MCB.SIZE = SIZEC(VM_UADDRESS) -
     4117    30825    8                                 SIZEC(VM_UADDRESS.USER_NAME.TEXT) +
     4118    30826    8                                 VM_UADDRESS.USER_NAME.COUNT;
     4119    30827    8                           END;
     4120    30828    7                           ELSE /* Store as resolved address */
     4121    30829    8                           DO;
     4122    30830    8                               X$MCB.SIZE = SIZEC(VM_RADDRESS);
     4123    30831    8                           END;
     4124    30832    7                           CALL X$ALLOCATE (X$MCB)
     4125    30833    7                           WHENALTRETURN
     4126    30834    8                           DO;
     4127    30835    8                               CALL VMA$ENLARGE_SEGMENT (VM_PROFILE_,
     4128    30836    8                                 1024) ALTRET(E_PMME);
     4129    30837    8                               X$MCB.WKSZ = X$MCB.WKSZ + 1024;
     4130    30838    8                               CALL X$ALLOCATE (X$MCB) ALTRET(E_ALLOCATE);
     4131    30839    8                           END;
     4132    30840    7                           VM_PROFILE.SEARCH_LIST$(INDX4) = X$MCB.ADDRESS$;
     4133    30841    7                           VM_PROFILE.SEARCH_LIST$(INDX4) -> VM$RADDRESS = VM_RADDRESS;
     4134    30842    7                           IF VM_UADDRESS.USER_NAME.COUNT > 0
     4135    30843    7                           THEN
     4136    30844    8                           DO;
     4137    30845    8                               VM_PROFILE.SEARCH_LIST$(INDX4) -> VM$UADDRESS.TYPE
     4138    30846    8                                 = %VM_ADD_UNRESOLVED;
     4139    30847    8                               VM_PROFILE.SEARCH_LIST$(INDX4) -> VM$UADDRESS.USER_NAME.
             30847                                        COUNT
     4140    30848    8                                 = VM_UADDRESS.USER_NAME.COUNT;
     4141    30849    8                               CALL INSERT (VM_PROFILE.SEARCH_LIST$(INDX4) ->
     4142    30850    8                                 VM$UADDRESS.USER_NAME.TEXT,0,VM_UADDRESS.USER_NAME.
             30850                                          COUNT,
     4143    30851    8                                 VM_UADDRESS.USER_NAME.TEXT);
     4144    30852    8                           END;
     4145    30853    7   NULL_ENTRY:
     4146    30854    7                       END; /* Do INDX4 */
     4147    30855                                 /* Close out current search list.  The new ones will be
     4148    30856                                    reopened if needed. */
     4149    30857    6                   END;       /* If not none */
     4150    30858    5                   CALL CLOSE_SEARCH;
PL6.E3A0      #001=VMO$MAIL File=VMO$MAIL.:VMB6TSI                               WED 08/20/97 15:19 Page:145
     4151    30859    5               END;                  /* End cases */
     4152    30860    4           END;                       /* Do INDX1 = ... end */
     4153    30861        /*
     4154    30862             ***** Store the profile (if allowed) ...
     4155    30863        */
     4156    30864    3           VM_PROFILE.NEXT$ = X$MCB.HI_SEGMENT$;
     4157    30865    3           VM_PROFILE.FREE$ = X$MCB.FREE_HEAD$;
     4158    30866    3           CALL PUT_PROFILE (M$MAIL_FILE_NUM)
     4159    30867    4           WHENALTRETURN DO;
     4160    30868    4               INDX1 = VM_WORK$ -> VM_PROFILE.PROFILE_SIZE * 4;
     4161    30869    4               VM_PROFILE$ -> INDX1_CHARS = VM_WORK$ -> INDX1_CHARS;
     4162    30870    4               ERROR = B$TCB.ALT$ -> B$ALT.ERR;
     4163    30871    4               CALL XUR$ERRMSG(E_WERR);
     4164    30872    4               CALL XUR$ERRMSG(ERROR,M$MAIL_FILE_NUM);
     4165    30873    4               CALL PUT_PROFILE (M$MAIL_FILE_NUM);
     4166    30874    4           END;
     4167    30875        %EJECT;
PL6.E3A0      #001=VMO$MAIL File=VMO$MAIL.:VMB6TSI                               WED 08/20/97 15:19 Page:146
     4168    30876        /* Read command */
     4169    30877    3       CASE (%CMD_READ);
     4170    30878        /*
     4171    30879             ***** Open M$CMNDF dcb to the specified command file.
     4172    30880        */
     4173    30881    3           IF OUT$ -> P$B.NSUBLKS > 0
     4174    30882    3           THEN
     4175    30883    4           DO;                    /* Get options, and open M$CMNDF */
     4176    30884    4               IF DCBADDR(M$CMNDF_NUM) -> F$DCB.FCD# /* Close if open */
     4177    30885    4               THEN
     4178    30886    5               DO;
     4179    30887    5                   CLOSE_SAVE.V.DCB# = M$CMNDF_NUM;
     4180    30888    5                   CALL M$CLOSE (CLOSE_SAVE);
     4181    30889    5               END;
     4182    30890    4               FID_NAME.NAME# = ' ';
     4183    30891    4               FID_NAME.L# = 0;
     4184    30892    4               FID_ACCT.ACCT# = B$JIT.FACCN;
     4185    30893    4               FID_PASS.PASS# = ' ';
     4186    30894    4               FID_WSN.WSN# = ' ';
     4187    30895    4               FID_RESULTS = '0'B;                /* Zap all flags */
     4188    30896
     4189    30897    4               OPT_FID = OUT$ -> P$B.SUBLK$(0) -> P$S.TEXT;
     4190    30898    4               CALL M$FID (CHECK_FID)
     4191    30899    5               WHENALTRETURN DO;
     4192    30900    5                   ERROR = B$TCB.ALT$ -> B$ALT.ERR;
     4193    30901    5                   CALL XUR$ERRPTR (OUT$ -> P$B.SUBLK$(0) -> P$S.CPOS);
     4194    30902    5                   CALL XUR$ERRMSG (ERROR);
     4195    30903    5                   GOTO CONTINUE;
     4196    30904    5               END;
     4197    30905        /*
     4198    30906             ***** Stuff the information into the open fpt ...
     4199    30907        */
     4200    30908    4               IF FID_RESULTS.ACCT = %NO#
     4201    30909    4               THEN            /* Default to current account */
     4202    30910    4                   FID_ACCT.ACCT# = B$JIT.FACCN;
     4203    30911    4               OPEN_COMMAND_STREAM.NAME_=VECTOR(FID_NAME);
     4204    30912    4               OPEN_COMMAND_STREAM.ACCT_=VECTOR(FID_ACCT);
PL6.E3A0      #001=VMO$MAIL File=VMO$MAIL.:VMB6TSI                               WED 08/20/97 15:19 Page:147
     4205    30913    4               IF FID_RESULTS.PASS
     4206    30914    4               THEN
     4207    30915    4                   OPEN_COMMAND_STREAM.PASS_=VECTOR(FID_PASS);
     4208    30916    4               IF FID_RESULTS.SN
     4209    30917    4               THEN
     4210    30918    4                   OPEN_COMMAND_STREAM.SN_=VECTOR(FID_SN);
     4211    30919    4               IF FID_RESULTS.WSN
     4212    30920    4               THEN
     4213    30921    4                   OPEN_COMMAND_STREAM.WSN_=VECTOR(FID_WSN);
     4214    30922    4               IF FID_RESULTS.RES
     4215    30923    4               THEN
     4216    30924    4                   OPEN_COMMAND_STREAM.V.RES#=FID_RES;
     4217    30925    4               OPEN_COMMAND_STREAM.V.ASN#=FID_ASN;
     4218    30926        /*      Prevent unauthorized access to :NODES and files in .:MAIL. */
     4219    30927    4               IF (FID_NAME.NAME# = ':NODES'
     4220    30928    4                 AND FID_ACCT.ACCT# = DCBADDR(DCBNUM(M$LM)) -> F$DCB.ACCT#)
     4221    30929    4                 OR DCBADDR(DCBNUM(M$LM)) -> F$DCB.ACCT# = ':MAIL'
     4222    30930    4               THEN
     4223    30931    4                   OPEN_COMMAND_STREAM.V.SETDCB# = %YES#;
     4224    30932    4               ELSE
     4225    30933    4                   OPEN_COMMAND_STREAM.V.SETDCB# = %NO#;
     4226    30934    4               OPEN_COMMAND_STREAM.V.INITZ.SCRUB# = %YES#;
     4227    30935    4               CALL M$OPEN(OPEN_COMMAND_STREAM)
     4228    30936    5               WHENRETURN DO;
     4229    30937    5                   IF OPEN_COMMAND_STREAM.V.SETDCB#
     4230    30938    6                   THEN DO;
     4231    30939    6                       ERROR = E_NOFILE;
     4232    30940    6                       GOTO READCMD_ERR;
     4233    30941    6                   END;
     4234    30942    5                   IF EXIT_MAIL#
     4235    30943    6                   THEN DO;
     4236    30944    6                       EXIT_MAIL# = '0'B;
     4237    30945    6                       EXIT_MAIL_PEND# = '1'B;
     4238    30946    6                   END;
     4239    30947    5                   CALL XUR$SETDCBS (M$CMNDF_NUM);
     4240    30948    5               END;
     4241    30949    5               WHENALTRETURN DO;
PL6.E3A0      #001=VMO$MAIL File=VMO$MAIL.:VMB6TSI                               WED 08/20/97 15:19 Page:148
     4242    30950    5                   ERROR = B$TCB.ALT$ -> B$ALT.ERR;
     4243    30951    5   READCMD_ERR:
     4244    30952    5                   DCB# = M$CMNDF_NUM;
     4245    30953    5                   IF EXIT_MAIL_PEND#
     4246    30954    6                   THEN DO;
     4247    30955    6                       EXIT_MAIL# = '1'B;
     4248    30956    6                       EXIT_MAIL_PEND# = '0'B;
     4249    30957    6                   END;
     4250    30958    5                   CALL XUR$ERRMSG (ERROR,DCB#);
     4251    30959    5                   CALL XUR$SETDCBS (M$SI_NUM);
     4252    30960    5               END;
     4253    30961    4           END;
     4254    30962    3           ELSE                       /* Open back to ME# */
     4255    30963    4           DO;
     4256    30964    4               IF EXIT_MAIL_PEND#
     4257    30965    5               THEN DO;
     4258    30966    5                   EXIT_MAIL# = '1'B;
     4259    30967    5                   EXIT_MAIL_PEND# = '0'B;
     4260    30968    5               END;
     4261    30969    4           END;
     4262    30970        %EJECT;
PL6.E3A0      #001=VMO$MAIL File=VMO$MAIL.:VMB6TSI                               WED 08/20/97 15:19 Page:149
     4263    30971        /* Resend message command */
     4264    30972    3       CASE (%CMD_RESEND_MESSAGE);
     4265    30973    3           CALL NEED_UPDATE ALTRET(CONTINUE);
     4266    30974    3           OPT_SEED = 0;
     4267    30975    3           OPT_SEED$ = ADDR(OPT_SEED);
     4268    30976    4           DO INDX1 = 0 TO OUT$ -> P$B.NSUBLKS - 1;
     4269    30977    4               BLK$ = OUT$ -> P$B.SUBLK$(INDX1);
     4270    30978    5               DO CASE (BLK$ -> P$B.CODE);
     4271    30979    5               CASE (%OPT_CRPT);
     4272    30980    5                   CALL VMX$OCTBIN (BLK$->P$B.SUBLK$(0)->P$S,OPT_SEED);
     4273    30981    5                   IF OPT_SEED = 0
     4274    30982    5                   THEN /* allow display w/o decryption */
     4275    30983    5                       OPT_SEED$ = ADDR(NIL);
     4276    30984    5               CASE (%OPT_SELECT);
     4277    30985    5                   CALL INIT$SELECT_OPTS (BLK$,%CMD_RESEND_MESSAGE) ALTRET(CONTINUE);
     4278    30986    5               END;             /* Do case ... end */
     4279    30987    4           END;
     4280    30988    3           CALL FIX_CONTEXT;
     4281    30989    3           INDX1 = 0;
     4282    30990        /*
     4283    30991             ***** Build the command buffer to pass to send ...
     4284    30992        */
     4285    30993                %INIT_STR (CODE=E_RESEND_NAME, STR=VM_RESEND_NAME, TEST=YES);
     4286    31016    3           WORK_STRING.L# = VM_RESEND_NAME.L# + 6;
     4287    31017    3           CALL CONCAT (WORK_STRING.NAME#, ADDR(VM_RESEND_NAME) -> X$STRING.TEXT,
     4288    31018    3             ' *BODY');
     4289    31019    3           CALL BUILD_LINK_TO_SEND_CMD(WORK_STRING);
     4290    31020        /*
     4291    31021             ***** Resend all the messages ...
     4292    31022        */
     4293    31023    4           DO FOREVER;
     4294    31024    4   RESEND_NEXT: ;
     4295    31025    4               CALL GET$MESSAGE ALTRET(END_RESEND);
     4296    31026    4               INDX1 = INDX1 + 1;
     4297    31027    4               IF VM_HEADER.STATUS.CRYPT
     4298    31028    4                 AND OPT_SEED = 0
     4299    31029    4                 AND OPT_SEED$ ~= ADDR(NIL)
PL6.E3A0      #001=VMO$MAIL File=VMO$MAIL.:VMB6TSI                               WED 08/20/97 15:19 Page:150
     4300    31030    5               THEN DO;
     4301    31031    5                   CALL XUR$ERRMSG (E_NEEDSEED);
     4302    31032    5                   GOTO CONTINUE;
     4303    31033    5               END;
     4304    31034    4               CALL VMD$DI_HEADER (VM_HEADER,CURRENT_MESSAGE_NUMBER,M$ME_NUM);
     4305    31035        /*
     4306    31036             ***** Create the file to contain the message being resent ...
     4307    31037        */
     4308    31038    4               CALL VMM$EDIT_MESSAGE_OUT (CURRENT_MESSAGE_NUMBER,OPT$SEED,
     4309    31039    4                 M$MAIL_FILE_NUM,%NO#) ALTRET(E_PMME);
     4310    31040        /*
     4311    31041             ***** Link to SEND ...
     4312    31042        */
     4313    31043    4               CALL LINK_RUNIT
     4314    31044    4               WHENRETURN
     4315    31045    5               DO;
     4316    31046    5                   CALL VMD$GET_HEADER (CURRENT_MESSAGE_NUMBER,
     4317    31047    5                     M$MAIL_FILE_NUM) ALTRET(E_PMME);
     4318    31048    5               END;
     4319    31049    4               WHENALTRETURN
     4320    31050    5               DO;
     4321    31051    5                   CALL VMD$GET_HEADER (CURRENT_MESSAGE_NUMBER,
     4322    31052    5                     M$MAIL_FILE_NUM) ALTRET(E_PMME);
     4323    31053    5                   GOTO END_RESEND;
     4324    31054    5               END;
     4325    31055    4           END;                       /* Do forever ... end */
     4326    31056    3   END_RESEND:
     4327    31057    3           REOPEN_FILE.V.DCB# = DCBNUM(M$EDIT);
     4328    31058    3           CALL M$OPEN (REOPEN_FILE)
     4329    31059    4           WHENRETURN DO;
     4330    31060    4               CLOSE_SCRATCH.V.DCB# = DCBNUM(M$EDIT);
     4331    31061    5               CALL M$CLOSE (CLOSE_SCRATCH) WHENALTRETURN DO; END;
     4332    31062    4           END;
     4333    31063    3           IF INDX1 = 0
     4334    31064    3           THEN
     4335    31065    3               CALL REPORT_ACTIVITY (INDX1,VM_NO_MESSAGE_FMT,%YES#,E_NO_MESSAGE_FMT);
     4336    31066    3           IF VM_CURRENT_FOLDER.FLAGS.OPEN
PL6.E3A0      #001=VMO$MAIL File=VMO$MAIL.:VMB6TSI                               WED 08/20/97 15:19 Page:151
     4337    31067    3           THEN                       /* Ok to read profile */
     4338    31068    3               CALL VMD$GET_PROFILE (M$MAIL_FILE_NUM) ALTRET(BAD_PROFILE);
     4339    31069        %EJECT;
PL6.E3A0      #001=VMO$MAIL File=VMO$MAIL.:VMB6TSI                               WED 08/20/97 15:19 Page:152
     4340    31070        /* Rest message command */
     4341    31071    3       CASE(%CMD_REST_MESSAGE);
     4342    31072    3           IF LAST_COMMAND_CODE = %CMD_DISPLAY_MESSAGE
     4343    31073    3           THEN
     4344    31074                    %INIT_STR (CODE=E_DI_REST_CMD, STR=VM_DI_REST_CMD,
     4345    31075                      NEXT_CMD=NEXT_COMMAND_TEXT, TEST=YES);
     4346    31098    3           ELSE
     4347    31099                  %INIT_STR (CODE=E_LIST_REST_CMD, STR=VM_LIST_REST_CMD,
     4348    31100                  NEXT_CMD=NEXT_COMMAND_TEXT, TEST=YES);
     4349    31123        %EJECT;
PL6.E3A0      #001=VMO$MAIL File=VMO$MAIL.:VMB6TSI                               WED 08/20/97 15:19 Page:153
     4350    31124        /* Renumber command */
     4351    31125    3       CASE (%CMD_RENUMBER);
     4352    31126    3           CALL NEED_UPDATE ALTRET(CONTINUE);
     4353    31127    3           IF OUT$ -> P$B.NSUBLKS = 0 THEN /* Check for renumber options */
     4354    31128
     4355    31129    3               CALL UPDATE$MAIL (%YES#); /* Plain renumber */
     4356    31130    3           ELSE
     4357    31131    3               CALL UPDATE$MAIL (%YES#,OUT$->P$B.SUBLK$(0)->P$B.CODE);
     4358    31132        /*
     4359    31133             ***** Reinitialize the selection contexts ...
     4360    31134        */
     4361    31135    3           CALL INIT_CONTEXT (%CONTEXT_CURRENT);
     4362    31136    3           CALL INIT_CONTEXT (%CONTEXT_SELECTED);
     4363    31137    3           IF VM_PROFILE.NUM_MESSAGES > 0
     4364    31138    3           THEN                       /* Select all */
     4365    31139    4           DO;
     4366    31140    4               SELECTED_CONTEXT%.MESSAGE_SET.LOW(0) = 1;
     4367    31141    4               SELECTED_CONTEXT%.MESSAGE_SET.HIGH(0) = %MAX_MSGNO;
     4368    31142    4               SELECTED_CONTEXT%.NUM_ENTRIES = 1;
     4369    31143    4               SELECTED_CONTEXT%.MESSAGE_POINTER = -1;
     4370    31144    4               SELECT_CURRENT = '1'B;
     4371    31145    4           END;
     4372    31146        %EJECT;
PL6.E3A0      #001=VMO$MAIL File=VMO$MAIL.:VMB6TSI                               WED 08/20/97 15:19 Page:154
     4373    31147        /* Select message command */
     4374    31148    3       CASE (%CMD_SELECT_MESSAGE);
     4375    31149    3           CALL NEED_FOLDER ALTRET(CONTINUE);
     4376    31150    3           SELECT_CURRENT = '0'B;
     4377    31151    3           CALL INIT$SELECT_OPTS (OUT$->P$B.SUBLK$(0),%CMD_SELECT_MESSAGE) ALTRET(
             31151                    CONTINUE);
     4378    31152        %EJECT;
PL6.E3A0      #001=VMO$MAIL File=VMO$MAIL.:VMB6TSI                               WED 08/20/97 15:19 Page:155
     4379    31153        /* Send command */
     4380    31154    3       CASE (%CMD_SEND);
     4381    31155    3           CALL NEED_UPDATE ALTRET(CONTINUE);
     4382    31156        /*
     4383    31157             ***** Build the command buffer to pass to send ...
     4384    31158        */
     4385    31159    3           WORK_STRING.L# = P_PCB.NCHARS;
     4386    31160    3           WORK_STRING.NAME# =CURRENT_LINE;
     4387    31161    3           CALL BUILD_LINK_TO_SEND_CMD (WORK_STRING);
     4388    31162        /*
     4389    31163             ***** Do it...
     4390    31164        */
     4391    31165    3           CALL LINK_RUNIT;
     4392    31166        %EJECT;
PL6.E3A0      #001=VMO$MAIL File=VMO$MAIL.:VMB6TSI                               WED 08/20/97 15:19 Page:156
     4393    31167        /* This message command */
     4394    31168    3       CASE(%CMD_THIS_MESSAGE);
     4395    31169    3           IF LAST_COMMAND_CODE = %CMD_DISPLAY_MESSAGE
     4396    31170    3           THEN
     4397    31171                    %INIT_STR (CODE=E_DI_THIS_CMD, STR=VM_DI_THIS_CMD,
     4398    31172                      NEXT_CMD=NEXT_COMMAND_TEXT, TEST=YES);
     4399    31195    3           ELSE
     4400    31196                  %INIT_STR (CODE=E_LIST_THIS_CMD, STR=VM_LIST_THIS_CMD,
     4401    31197                  NEXT_CMD=NEXT_COMMAND_TEXT, TEST=YES);
     4402    31220        %EJECT;
PL6.E3A0      #001=VMO$MAIL File=VMO$MAIL.:VMB6TSI                               WED 08/20/97 15:19 Page:157
     4403    31221        /* Time command */
     4404    31222    3       CASE (%CMD_TIME);
     4405    31223    3           CALL M$TIME(GET_TIME);
     4406    31224                %INIT_STR (CODE=E_TIME_FMT, STR=VM_TIME_FMT,
     4407    31225                VECT="F_FDSME.FMT_", TEST=YES);
     4408    31248    3           VECT_ARRAY(0) = VECTOR(WORK_UTS);
     4409    31249    3           F_FDSME.NVECS# = 1;
     4410    31250    3           CALL VMD$WRITE_BUF(F_FDSME);
     4411    31251        %EJECT;
PL6.E3A0      #001=VMO$MAIL File=VMO$MAIL.:VMB6TSI                               WED 08/20/97 15:19 Page:158
     4412    31252        /* Undelete command */
     4413    31253    3       CASE (%CMD_UNDELETE_MESSAGE);
     4414    31254    3           CALL NEED_UPDATE ALTRET(CONTINUE);
     4415    31255    3           IF OUT$ -> P$B.NSUBLKS > 0
     4416    31256    3           THEN                       /* There are options */
     4417    31257    3               CALL INIT$SELECT_OPTS (OUT$->P$B.SUBLK$(0),%CMD_UNDELETE_MESSAGE) ALTRET
             31257                        (CONTINUE);
     4418    31258    3           INDX1 = 0;                  /* Used as counter */
     4419    31259    3           NONE = %YES#;
     4420    31260    4           DO FOREVER;
     4421    31261    4               CALL GET$MESSAGE ALTRET(END_UNDELETE);
     4422    31262    4               NONE = %NO#;
     4423    31263
     4424    31264    4               IF VM_PROFILE.OPT.HEADERS
     4425    31265    4               THEN
     4426    31266    4                   CALL VMD$DI_HEADER(VM_HEADER,CURRENT_MESSAGE_NUMBER,M$ME_NUM);
     4427    31267
     4428    31268    4               IF VM_HEADER.STATUS.DEL
     4429    31269    4               THEN
     4430    31270    5               DO;              /* Remove the delete mark */
     4431    31271    5                   CALL XUR$DISABLE;
     4432    31272    5                   VM_HEADER.STATUS.DEL = %NO#;
     4433    31273    5                   CALL VMD$PUT_HEADER (CURRENT_MESSAGE_NUMBER,M$MAIL_FILE_NUM);
     4434    31274    5                   VM_PROFILE.NUM_DEL_MESSAGES = VM_PROFILE.NUM_DEL_MESSAGES - 1;
     4435    31275    5                   INDX1 = INDX1 + 1; /* Keep track of how many messages undeleted */
     4436    31276    5                   CALL PUT_PROFILE (M$MAIL_FILE_NUM) ALTRET(WRITE_ERROR);
     4437    31277    5               END;             /* Remove the delete mark */
     4438    31278    4               CALL XUR$ENABLE;
     4439    31279    4           END;                       /* Do forever ... end  */
     4440    31280
     4441    31281    3   END_UNDELETE: ;
     4442    31282    3           CALL REPORT_ACTIVITY (INDX1,VM_MSGS_UNDELETED_FMT,NONE,E_MSGS_UNDELETED_FMT)
             31282                    ;
     4443    31283
     4444    31284        %EJECT;
PL6.E3A0      #001=VMO$MAIL File=VMO$MAIL.:VMB6TSI                               WED 08/20/97 15:19 Page:159
     4445    31285        /* Unmark command */
     4446    31286    3       CASE(%CMD_UNMARK_MESSAGE);
     4447    31287    3           CALL NEED_UPDATE ALTRET(CONTINUE);
     4448    31288    3           IF OUT$ -> P$B.NSUBLKS > 0
     4449    31289    3           THEN                       /* There are options */
     4450    31290    3               CALL INIT$SELECT_OPTS (OUT$->P$B.SUBLK$(0),%CMD_UNMARK_MESSAGE) ALTRET(
             31290                        CONTINUE);
     4451    31291    3           INDX1 = 0;                  /* Used as counter */
     4452    31292    3           NONE = %YES#;
     4453    31293    4           DO FOREVER;
     4454    31294    4               CALL GET$MESSAGE ALTRET(END_UNMARK);
     4455    31295    4               NONE = %NO#;
     4456    31296
     4457    31297    4               IF VM_PROFILE.OPT.HEADERS
     4458    31298    4               THEN
     4459    31299    4                   CALL VMD$DI_HEADER(VM_HEADER,CURRENT_MESSAGE_NUMBER,M$LO_NUM);
     4460    31300    4               IF VM_HEADER.STATUS.MARK
     4461    31301    4               THEN
     4462    31302    5               DO;              /* Remove the mark */
     4463    31303
     4464    31304    5                   CALL XUR$DISABLE;
     4465    31305    5                   VM_HEADER.STATUS.MARK = %NO#;
     4466    31306    5                   CALL VMD$PUT_HEADER (CURRENT_MESSAGE_NUMBER,M$MAIL_FILE_NUM);
     4467    31307    5                   CALL XUR$ENABLE;
     4468    31308    5                   INDX1 = INDX1 + 1;
     4469    31309    5               END;             /* Remove the mark */
     4470    31310    4           END;                       /* Do forever ... end  */
     4471    31311
     4472    31312    3   END_UNMARK: ;
     4473    31313    3           CALL REPORT_ACTIVITY (INDX1,VM_MSGS_UNMARKED_FMT,NONE,E_MSGS_UNMARKED_FMT);
     4474    31314
     4475    31315        %EJECT;
PL6.E3A0      #001=VMO$MAIL File=VMO$MAIL.:VMB6TSI                               WED 08/20/97 15:19 Page:160
     4476    31316        /* Use command */
     4477    31317    3       CASE (%CMD_USE);
     4478    31318        /*
     4479    31319             ***** Process ...
     4480    31320        */
     4481    31321    3           NEXT_COMMAND_TEXT.L# = 0;
     4482    31322    3           REOPENED_FOLDER = '0'B;
     4483    31323    3           EXIT_MAIL# = %NO#;
     4484    31324    3           OPT_NOUPDATE = %NO#;
     4485    31325    3           OPT_BYPASS = %NO#;
     4486    31326        /*
     4487    31327             ***** Disable breaks ...
     4488    31328        */
     4489    31329    3           CALL XUR$DISABLE;
     4490    31330    3           NEXT_COMMAND_ECHO# = %NO#;
     4491    31331    3           IF VM_CURRENT_FOLDER.FLAGS.OPEN /* Check if file already open */
     4492    31332    3           THEN
     4493    31333    4           DO;
     4494    31334    5               DO INDX1 = 0 TO OUT$ -> P$B.NSUBLKS - 1;
     4495    31335    6                   DO CASE (OUT$ -> P$B.SUBLK$(INDX1) -> P$B.CODE);
     4496    31336    6                   CASE (%OPT_NOUPDATE);
     4497    31337    6                       OPT_NOUPDATE = %YES#;
     4498    31338    6                   CASE (ELSE);
     4499    31339    6                   END;
     4500    31340    5               END;
     4501    31341    4               IF NOT OPT_NOUPDATE
     4502    31342    4               THEN
     4503    31343    4                   CALL UPDATE$MAIL (VM_PROFILE.OPT.RENUMBER);
     4504    31344    4               IF VM_CURRENT_FOLDER.FLAGS.UPDATE
     4505    31345    4               THEN
     4506    31346    4                   CALL PUT_PROFILE (M$MAIL_FILE_NUM);
     4507    31347    4               FOLDER_WAS_OPEN = '1'B;
     4508    31348        /* The folder used to be closed here.  Now, it is left open for
     4509    31349           the next folders address resolution.  The close is done by
     4510    31350            VMA$OPEN_FOLDER, called by one of the VMB$USE routines.
     4511    31351        */
     4512    31352    4               VM_CURRENT_FOLDER.FLAGS = %NO#;
PL6.E3A0      #001=VMO$MAIL File=VMO$MAIL.:VMB6TSI                               WED 08/20/97 15:19 Page:161
     4513    31353    4               IF NOT VM_SEARCH_INFO.ACTIVE
     4514    31354    4               THEN CALL VMA$OPEN_SRCH_LIST(VM_SEARCH_INFO);
     4515    31355    4           END;
     4516    31356    3           ELSE
     4517    31357    3               FOLDER_WAS_OPEN = '0'B;
     4518    31358    3           IF NOT VM_SEARCH_INFO.ACTIVE
     4519    31359    3           THEN
     4520    31360    3               CALL VMA$OPEN_SRCH_LIST (VM_SEARCH_INFO);
     4521    31361        /*
     4522    31362             ***** Get specified options ...
     4523    31363        */
     4524    31364    3           OPT_NOUPDATE = %NO#;
     4525    31365    4           DO INDX1 = 0 TO OUT$ -> P$B.NSUBLKS - 1;
     4526    31366    4               BLK$ = OUT$ -> P$B.SUBLK$(INDX1);
     4527    31367    5               DO CASE (BLK$ -> P$B.CODE);
     4528    31368    5               CASE (%OPT_MID);
     4529    31369    5                   VM_CURRENT_FOLDER_SAVE = VM_CURRENT_FOLDER;
     4530    31370    5                   CALL VMB$USE_SPECIFIED (BLK$,USER_NAME,VM_CURRENT_FOLDER,
             31370                            M$MAIL_FILE_NUM,VM_SEARCH_INFO)
     4531    31371    6                   WHENRETURN DO;
     4532    31372    6                       VM_SEARCH_INFO.CURRENT = '1'B;
     4533    31373    6                   END;
     4534    31374    6                   WHENALTRETURN DO;
     4535    31375    6                       VM_SEARCH_INFO.CURRENT = '0'B;
     4536    31376    6                       IF NOT FOLDER_WAS_OPEN THEN GOTO NO_FOLD;
     4537    31377    6                       REOPENED_FOLDER = '1'B;
     4538    31378    6                       VM_CURRENT_FOLDER = VM_CURRENT_FOLDER_SAVE;
     4539    31379    6                       CALL VMA$OPEN_FOLDER (VM_CURRENT_FOLDER,,M$MAIL_FILE_NUM,%
             31379                                OLDFILE#,%UPDATE#)
     4540    31380    7                       WHENRETURN DO;
     4541    31381    7                           VM_SEARCH_INFO.CURRENT = '1'B;
     4542    31382    7                       END;
     4543    31383    7                       WHENALTRETURN DO;
     4544    31384    7                           CALL VMA$OPEN_FOLDER (VM_CURRENT_FOLDER,,M$MAIL_FILE_NUM,%
             31384                                    OLDFILE#,%IN#)
     4545    31385    8                           WHENRETURN DO;
     4546    31386    8                               VM_SEARCH_INFO.CURRENT = '1'B;
PL6.E3A0      #001=VMO$MAIL File=VMO$MAIL.:VMB6TSI                               WED 08/20/97 15:19 Page:162
     4547    31387    8                           END;
     4548    31388    8                           WHENALTRETURN DO;
     4549    31389    8                               GOTO CONTINUE;
     4550    31390    8                           END;
     4551    31391    7                       END;
     4552    31392    6                   END;
     4553    31393    5                   CALL CLOSE_SEARCH;
     4554    31394    5               CASE (%OPT_BYPASS);
     4555    31395    5                   OPT_BYPASS = %YES#;
     4556    31396    5               CASE (%OPT_ENDNOUPDATE);
     4557    31397        /*
     4558    31398             ***** Allowed on mail invocation only ...
     4559    31399        */
     4560    31400    5                   OPT_NOUPDATE = %YES#;
     4561    31401    5                   EXIT_MAIL# = %YES#;
     4562    31402    5               CASE (%OPT_ENDUPDATE);
     4563    31403        /*
     4564    31404             ***** Allowed on mail invocation only ...
     4565    31405        */
     4566    31406    5                   OPT_NOUPDATE = %NO#;
     4567    31407    5                   EXIT_MAIL# = %YES#;
     4568    31408    5               CASE (%OPT_NOUPDATE);
     4569    31409    5               END;                  /* Do case ... end */
     4570    31410    4           END;                       /* Do INDX1 = ... end */
     4571    31411        /*
     4572    31412             ***** If no folder was specified (VM_CURRENT_FOLDER.FLAGS.OPEN reset),
     4573    31413                   then open the default folder for this user ...
     4574    31414        */
     4575    31415    3           IF VM_CURRENT_FOLDER.FLAGS.OPEN = %NO# THEN
     4576    31416    4   FOLD_CREATE: DO;
     4577    31417    4               CALL CLOSE_SEARCH;
     4578    31418    4               CALL VMB$USE_DEFAULT (,USER_NAME,VM_CURRENT_FOLDER,M$MAIL_FILE_NUM,
             31418                        VM_SEARCH_INFO,,'1'B)
     4579    31419    5               WHENRETURN DO;
     4580    31420    5                   VM_SEARCH_INFO.CURRENT = %YES#;
     4581    31421    5               END;
     4582    31422    5               WHENALTRETURN DO;
PL6.E3A0      #001=VMO$MAIL File=VMO$MAIL.:VMB6TSI                               WED 08/20/97 15:19 Page:163
     4583    31423    6                   call VMB$TESTREG(USER_NAME) whenreturn do;
     4584    31424                            /* If user is registered...  */
     4585    31425        /*
     4586    31426             ***** User is already registered, create folder for him if one doesn't
     4587    31427             ***** already exist.
     4588    31428        */
     4589    31429    6                       VM_CURRENT_FOLDER.FLAGS=%NO#;
     4590    31430    6                       VM_RADDRESS.ACCT = VM_CURRENT_FOLDER.ACCT;
     4591    31431    6                       VM_RADDRESS.FOLDER = VM_CURRENT_FOLDER.FOLDER;
     4592    31432    6                       VM_RADDRESS.PASS = VM_CURRENT_FOLDER.PASS;
     4593    31433    6                       VM_RADDRESS.SITENAME = VM_CURRENT_FOLDER.SITENAME;
     4594    31434    6                       CALL VMA$OPEN_FOLDER (VM_CURRENT_FOLDER,
     4595    31435    6                         ADDR(VM_RADDRESS),M$MAIL_FILE_NUM,%ERROR#,
     4596    31436    6                         %CREATE#)
     4597    31437    7                       WHENALTRETURN DO;
     4598    31438    7                           IF B$TCB.ALT$->B$ALT.ERR.CODE = %E$CREATERR THEN
     4599    31439    8                           DO; /* Folder already exists, so open */
     4600    31440    8                               CALL VMA$OPEN_FOLDER(VM_CURRENT_FOLDER,
     4601    31441    8                                 ADDR(VM_RADDRESS),M$MAIL_FILE_NUM,
     4602    31442    8                                 %OLDFILE#,%UPDATE#) ALTRET(NO_FOLD_ERR);
     4603    31443    8                               EXIT FOLD_CREATE;
     4604    31444    8                           END;
     4605    31445    7                           ELSE
     4606    31446    7                               GOTO NO_FOLD_ERR;
     4607    31447    7                       END;
     4608    31448    6                       WORK_STRING.L#=SIZEC(WORK_STRING.NAME#);
     4609    31449    6                       CALL GET_FOLDERNAME (VM_CURRENT_FOLDER);
     4610    31450    6                       CALL XUR$INFOMSG (E_CREATE_MSG_FMT,,M$ME_NUM,VECTOR(WORK_STRING)
             31450                                );
     4611    31451    6                       VM_PROFILE = CVM_PROFILE; /* Build a default profile */
     4612    31452    6                       VM_PROFILE.FREE$ = ADDR(NIL);
     4613    31453    6                       VM_PROFILE.NEXT$ = ADDR(VM_PROFILE.WORK_AREA);
     4614    31454    6                       CALL CONCAT (VM_PROFILE.NAME_KEY,B$JIT.ACCN,B$JIT.UNAME);
     4615    31455                            %INIT_STR (CODE=E_MAIL_SETUP, STR=VM_MAIL_SETUP, TEST=YES);
     4616    31478    6                       VM_PROFILE.SETUP.COUNT = VM_MAIL_SETUP.L#;
     4617    31479    6                       VM_PROFILE.SETUP.TEXT = VM_MAIL_SETUP.NAME#;
     4618    31480    6                       CALL VMD$PUT_PROFILE (M$MAIL_FILE_NUM) ALTRET(E_PMME);
PL6.E3A0      #001=VMO$MAIL File=VMO$MAIL.:VMB6TSI                               WED 08/20/97 15:19 Page:164
     4619    31481        /*
     4620    31482             ***** Close the file so that it will be cataloged.
     4621    31483        */
     4622    31484    6                       CLOSE_SAVE.V.DCB# = M$MAIL_FILE_NUM;
     4623    31485    6                       CALL M$CLOSE (CLOSE_SAVE) ALTRET(E_PMME);
     4624    31486    6                       VM_CURRENT_FOLDER.FLAGS.OPEN = %NO#;
     4625    31487    6                       CALL CLOSE_SEARCH;
     4626    31488    6                       CALL VMB$USE_DEFAULT (,USER_NAME,VM_CURRENT_FOLDER,
     4627    31489    6                         M$MAIL_FILE_NUM,VM_SEARCH_INFO,,'1'B) ALTRET(NO_FOLD_ERR);
     4628    31490    6                       WORK_STRING.L#=SIZEC(WORK_STRING.NAME#);
     4629    31491    6                       CALL GET_FOLDERNAME (VM_CURRENT_FOLDER);
     4630    31492    6                       CALL XUR$INFOMSG(E_USING_MSG_FMT,,M$ME_NUM,VECTOR(WORK_STRING));
     4631    31493    6                   END;  /* else registered */
     4632    31494
     4633    31495    6                   whenaltreturn do;
     4634    31496                            /*  If user is not registered...  */
     4635    31497
     4636    31498    6                       IF B$JIT.ACCN = SUBSTR(USER_NAME.NAME#,1,8) THEN GOTO
             31498                                NO_FOLD_ERR;
     4637    31499                       /* Try his logon account */
     4638    31500    6                       USER_NAME.L# = LENGTHC(B$JIT.ACCN) + 1;
     4639    31501    6                       SUBSTR(USER_NAME.NAME#,1,8) = B$JIT.ACCN;
     4640    31502    6                       substr(USER_NAME.NAME#,,1) = '.';
     4641    31503    6                       CALL VMB$USE_DEFAULT (,USER_NAME,VM_CURRENT_FOLDER,
             31503                                M$MAIL_FILE_NUM,VM_SEARCH_INFO,,'1'B)
     4642    31504    6                         ALTRET(NO_FOLD_ERR);
     4643    31505    6                       WORK_STRING.L#=SIZEC(WORK_STRING.NAME#);
     4644    31506    6                       CALL GET_FOLDERNAME (VM_CURRENT_FOLDER);
     4645    31507    6                       call XUR$INFOMSG(E_USING_MSG_FMT,,M$ME_NUM,vector(WORK_STRING));
     4646    31508    6                   end;
     4647    31509    5               END;             /* whenaltreturn */
     4648    31510
     4649    31511    4           END;
     4650    31512    3           IF VM_CURRENT_FOLDER.FLAGS.UPDATE = %NO#
     4651    31513    3           THEN
     4652    31514    4           DO;
     4653    31515
PL6.E3A0      #001=VMO$MAIL File=VMO$MAIL.:VMB6TSI                               WED 08/20/97 15:19 Page:165
     4654    31516        /*E* ERROR: VMO-E$NOUPDATE-0
     4655    31517             MESSAGE: Mailbox open read only.
     4656    31518             */
     4657    31519    5               CALL M$ENQ (FILE_SHARE) WHENALTRETURN DO;
     4658    31520    5   FOLD_BUSY:
     4659    31521    5                   CLOSE_SAVE.V.DCB# = M$MAIL_FILE_NUM;
     4660    31522    5                   CALL M$CLOSE (CLOSE_SAVE) ALTRET(E_PMME);
     4661    31523    5                   VM_CURRENT_FOLDER.FLAGS.OPEN = %NO#;
     4662    31524        /**/
     4663    31525    5                   WORK_STRING.L# = LENGTHC(WORK_STRING.NAME#);
     4664    31526    5                   CALL GET_FOLDERNAME (VM_CURRENT_FOLDER);
     4665    31527    5                   CALL XUR$ERRMSG (E_FOLDERBUSY,,,VECTOR(WORK_STRING));
     4666    31528    5                   GOTO NO_FOLD;
     4667    31529    5               END;
     4668    31530    4               CALL XUR$ERRMSG(E_NOUPDATE);
     4669    31531    4           END;
     4670    31532    4           ELSE DO;                   /* Enq and see what we can get */
     4671    31533    5               CALL M$ENQ (FILE_NONE) WHENALTRETURN DO;
     4672    31534    5                   CALL M$ENQ (FILE_SHARE)
     4673    31535    6                   WHENRETURN DO;
     4674    31536    6                       VM_CURRENT_FOLDER.FLAGS.UPDATE= %NO#;
     4675    31537    6                       CALL XUR$ERRMSG(E_NOUPDATE);
     4676    31538    6                   END;
     4677    31539    6                   WHENALTRETURN DO;
     4678    31540    6                       GOTO FOLD_BUSY;
     4679    31541    6                   END;
     4680    31542    5               END;
     4681    31543    4           END;
     4682    31544        /*
     4683    31545             ***** Get the profile ...
     4684    31546        */
     4685    31547    3           CALL VMD$GET_PROFILE (M$MAIL_FILE_NUM) ALTRET(NO_PROFILE);
     4686    31548    3           VM_RADDRESS.NOMAD.FOLDER = VM_CURRENT_FOLDER.FOLDER;
     4687    31549    3           IF VM_PROFILE.FILE_FOLDER$ ~= ADDR(NIL)
     4688    31550    3             AND (VM_PROFILE.FILE_FOLDER$->VM$RADDRESS.FOLDER='CENTRAL')
     4689    31551    3             AND (VM_PROFILE.FILE_FOLDER$->VM$RADDRESS.ACCT=B$JIT.ACCN)
     4690    31552    4           THEN DO;
PL6.E3A0      #001=VMO$MAIL File=VMO$MAIL.:VMB6TSI                               WED 08/20/97 15:19 Page:166
     4691    31553    4               VM_PROFILE.FILE_FOLDER$ = ADDR(NIL);
     4692    31554    4               CALL VMD$PUT_PROFILE(M$MAIL_FILE_NUM);
     4693    31555    4           END;
     4694    31556        /*
     4695    31557           Put code here to check for incompatibilities between versions of MAIL
     4696    31558           that require extensive fixup.  There was code here up through A02 to
     4697    31559           disallow access to mail folders whose version code was not 'A00'
     4698    31560           (and therefore were built by the pre-release 'B03' MAIL.X);  code
     4699    31561           removed 3/12/86 by dcp to permit use of B00 as an official version number.
     4700    31562        */
     4701    31563    4           IF NOT REOPENED_FOLDER THEN DO;
     4702    31564        /*
     4703    31565             ***** If the folder is full, then notify the user ...
     4704    31566        */
     4705    31567    4               IF VM_PROFILE.GRANULES > 0
     4706    31568    4                 AND VM_PROFILE.GRANULES - VM_CURRENT_FOLDER.UGRANS <=0
     4707    31569    4               THEN            /* Report full!!! */
     4708    31570    5               DO;
     4709    31571    5                   WORK_STRING.L# = LENGTHC(WORK_STRING.NAME#);
     4710    31572    5                   CALL VMF$MAKE_ADDRESS1 (WORK_STRING,VM_CURRENT_FOLDER);
     4711    31573    5                   VECT_ARRAY(0) = VECTOR(SUBSTR(WORK_STRING.NAME#,0,WORK_STRING.L#));
     4712    31574    5                   F_FDSME.NVECS# = 1;
     4713    31575                        %INIT_STR (CODE=E_USE_FULL_FMT, STR=VM_USE_FULL_FMT,
     4714    31576                        VECT="F_FDSME.FMT_", TEST=YES);
     4715    31599    5                   CALL VMD$WRITE_BUF (F_FDSME);
     4716    31600    5               END;
     4717    31601    4               IF VM_PROFILE.NUM_LOST > 0
     4718    31602    4                 AND VM_PROFILE.NUM_LOST < %MAX_MSGNO /* for pre-B03 readonly folder */
     4719    31603    5               THEN DO;
     4720    31604                        %INIT_STR (CODE=E_USE_LOST_FMT, STR=VM_USE_LOST_FMT,
     4721    31605                        VECT="F_FDSME.FMT_", TEST=YES);
     4722    31628    5                   F_FDSME.NVECS# = 1;
     4723    31629    5                   VECT_ARRAY(0) = VECTOR (VM_PROFILE.NUM_LOST);
     4724    31630    5                   CALL VMD$WRITE_BUF (F_FDSME);
     4725    31631    5               END;
     4726    31632        /*
     4727    31633             ***** Reinitialize the selection contexts ...
PL6.E3A0      #001=VMO$MAIL File=VMO$MAIL.:VMB6TSI                               WED 08/20/97 15:19 Page:167
     4728    31634        */
     4729    31635    4               CALL INIT_CONTEXT (%CONTEXT_CURRENT);
     4730    31636    4               CALL INIT_CONTEXT (%CONTEXT_SELECTED);
     4731    31637    4               IF VM_PROFILE.NUM_MESSAGES = 0
     4732    31638    5               THEN DO;
     4733    31639    5                   SELECTED_CONTEXT%.NUM_ENTRIES = 0;
     4734    31640    5               END;
     4735    31641    4               ELSE
     4736    31642    5               DO;         /* Messages in this folder to process */
     4737    31643    5                   SELECTED_CONTEXT%.MESSAGE_SET.LOW(0) = 1;
     4738    31644    5                   SELECTED_CONTEXT%.MESSAGE_SET.HIGH(0) = %MAX_MSGNO;
     4739    31645    5                   SELECTED_CONTEXT%.NUM_ENTRIES = 1;
     4740    31646    5                   SELECT_CURRENT = '1'B;
     4741    31647    5                   SELECTED_CONTEXT%.MESSAGE_POINTER = -1;
     4742    31648    5               END;
     4743    31649    4               NUM_MESSAGES_PROCESSED = 0; /* How many in this folder */
     4744    31650        /*
     4745    31651             ***** Get the setup command out of the profile.
     4746    31652                   Unless, bypass was specified...
     4747    31653        */
     4748    31654    4               IF OPT_BYPASS = %NO#
     4749    31655    4               THEN
     4750    31656    5               DO;
     4751    31657    5                   NEXT_COMMAND_TEXT = VM_PROFILE.SETUP;
     4752    31658    5                   IF (NEXT_COMMAND_TEXT.L# ~= 0) AND (B$JIT.CPFLAGS1 AND %CP_ECHO#)
             31658                            THEN NEXT_COMMAND_ECHO# = %YES#;
     4753    31659    5               END;
     4754    31660    4           END;                  /* Not reopened */
     4755    31661    4           DO NEVER;
     4756    31662    4   NO_PROFILE:
     4757    31663    4               ERROR = B$TCB.ALT$ -> B$ALT.ERR;
     4758    31664    4               CALL XUR$ERRMSG(E_FOLDEROLD,B$TCB.ALT$->B$ALT.DCB#);
     4759    31665    4               CALL XUR$ERRMSG(ERROR,M$MAIL_FILE_NUM);
     4760    31666    4               CLOSE_SAVE.V.DCB# = M$MAIL_FILE_NUM;
     4761    31667    5               CALL M$CLOSE (CLOSE_SAVE) WHENALTRETURN DO;
     4762    31668    5               END;
     4763    31669    4               VM_CURRENT_FOLDER.FLAGS.OPEN = '0'B;
PL6.E3A0      #001=VMO$MAIL File=VMO$MAIL.:VMB6TSI                               WED 08/20/97 15:19 Page:168
     4764    31670    4               GOTO NO_FOLD;
     4765    31671    4   NO_FOLD_ERR:
     4766    31672    4               ERROR = B$TCB.ALT$ -> B$ALT.ERR;
     4767    31673    4               DCB# = B$TCB.ALT$ -> B$ALT.DCB#;
     4768    31674    4               CALL XUR$ERRMSG (ERROR,DCB#);
     4769    31675    4   NO_FOLD:
     4770    31676    4               CALL XUR$ERRMSG (E_NOCURFOLD);
     4771    31677    4               VM_SEARCH_INFO.ACTIVE = '0'B;
     4772    31678    4               VM_SEARCH_INFO.CURRENT= '0'B;
     4773    31679    5               DO INDX4=0 TO %VM_MAX_SRCH;
     4774    31680    5                   VM_PROFILE.SEARCH_LIST$(INDX4) = ADDR(NIL);
     4775    31681    5               END;
     4776    31682    4           END;                       /* Do never */
     4777    31683        /*
     4778    31684             ***** Enable breaks again ...
     4779    31685        */
     4780    31686    3           CALL XUR$ENABLE;
     4781    31687        %EJECT;
PL6.E3A0      #001=VMO$MAIL File=VMO$MAIL.:VMB6TSI                               WED 08/20/97 15:19 Page:169
     4782    31688        /* Wait command */
     4783    31689    3       CASE (%CMD_WAIT);
     4784    31690    3           CALL NEED_FOLDER ALTRET(CONTINUE);
     4785    31691    4           DO FOREVER;
     4786    31692    4               CALL CHECK_NEW (M$MAIL_FILE_NUM);
     4787    31693    4               IF NEW_FLAG THEN EXIT;
     4788    31694    4               CALL M$WAIT (WAIT30);
     4789    31695    4               NEW_FLAG='0'B;
     4790    31696    4           END;                       /* Do forever  (until new message) */
     4791    31697        /*
     4792    31698             ***** Notify the user that new messages have been delivered ...
     4793    31699        */
     4794    31700    3           CALL XUR$INFOMSG (E_NEW_MESSAGE_FMT,,M$ME_NUM);
     4795    31701    3           NEW_FLAG = %NO#;
     4796    31702        %EJECT;
PL6.E3A0      #001=VMO$MAIL File=VMO$MAIL.:VMB6TSI                               WED 08/20/97 15:19 Page:170
     4797    31703    3       END;                             /* End cases */
     4798    31704    2   CONTINUE: ;
     4799    31705    2       RETURN;
     4800    31706
     4801    31707
     4802    31708        %EJECT;
PL6.E3A0      #001=VMO$MAIL File=VMO$MAIL.:VMB6TSI                               WED 08/20/97 15:19 Page:171
     4803    31709    2   BAD_PROFILE:
     4804    31710    2       ERROR = B$TCB.ALT$ -> B$ALT.ERR;
     4805    31711    2       CALL XUR$ERRMSG(E_FOLDEROLD,B$TCB.ALT$->B$ALT.DCB#);
     4806    31712    2       CALL XUR$ERRMSG(ERROR,M$MAIL_FILE_NUM);
     4807    31713    2       CALL M$EXIT;
     4808    31714    2   WRITE_ERROR: ;
     4809    31715        /*E* ERROR: VMO-E$WERR-4
     4810    31716             MESSAGE: Error occurred while writing the mail file
     4811    31717             DESCRIPTION: While attempting to write to the mail file
     4812    31718                            a monitor error was encountered
     4813    31719              */
     4814    31720    2       ERROR = B$TCB.ALT$ -> B$ALT.ERR;
     4815    31721    2       CALL XUR$ERRMSG(E_WERR);
     4816    31722    2       CALL XUR$ERRMSG(ERROR,M$MAIL_FILE_NUM);
     4817    31723    2       GOTO CONTINUE;
     4818    31724
     4819    31725        /**/
     4820    31726    2   E_PMME:
     4821    31727    2       ERROR = B$TCB.ALT$ -> B$ALT.ERR;
     4822    31728    2       DCB# = B$TCB.ALT$ -> B$ALT.DCB#;
     4823    31729    2       CALL XUR$ERRMSG (ERROR,DCB#);
     4824    31730    2       CALL XUR$ENABLE;
     4825    31731    2       DEQ_PROFILE.V.DCB# = ENQ_PROFILE.V.DCB#;
     4826    31732    3       CALL M$DEQ (DEQ_PROFILE) WHENALTRETURN DO;
     4827    31733    3       END;
     4828    31734    2       GOTO CONTINUE;
     4829    31735        /**/
     4830    31736    2   E_ALLOCATE:
     4831    31737    2       CALL XUR$ERRMSG (X$MCB.ERR);
     4832    31738    2       GOTO CONTINUE;
     4833    31739    2   END PROCESS_CMD;
     4834    31740        %EJECT;
PL6.E3A0      #001=VMO$MAIL File=VMO$MAIL.:VMB6TSI                               WED 08/20/97 15:19 Page:172
     4835    31741        /********************************************************************/
     4836    31742        /*F*    NAME: NEED_FOLDER, NEED_UPDATE, NEED_GLOBAL
     4837    31743                PURPOSE: To verify that a folder is open, open for update,
     4838    31744                         or open for update to the global mailbox, before
     4839    31745                         executing a command.
     4840    31746        */
     4841    31747        /********************************************************************/
     4842    31748    1   NEED_FOLDER: PROC ALTRET;
     4843    31749    2       IF VM_CURRENT_FOLDER.FLAGS.OPEN THEN RETURN;
     4844    31750    2   NO_FOLDER:
     4845    31751    2       CALL XUR$ERRMSG (E_NEEDMID);
     4846    31752    2       ALTRETURN;
     4847    31753        /*E* ERROR: VMO-E$NEEDMID-1
     4848    31754          MESSAGE: That command is not permitted without a folder open.
     4849    31755          MESSAGE1: The USE command must be issued first to open a folder.
     4850    31756        */
     4851    31757    2   NEED_UPDATE: ENTRY ALTRET;
     4852    31758    2       IF NOT VM_CURRENT_FOLDER.FLAGS.OPEN THEN GOTO NO_FOLDER;
     4853    31759    2       IF VM_CURRENT_FOLDER.FLAGS.UPDATE THEN RETURN;
     4854    31760    2   NO_UPDATE:
     4855    31761    2       CALL XUR$ERRMSG (E_NOTALLOW);
     4856    31762    2       ALTRETURN;
     4857    31763        /*E* ERROR: VMO-E$NOTALLOW-0
     4858    31764             MESSAGE: Command not allowed when mailbox open for reading only.
     4859    31765        */
     4860    31766    2   NEED_GLOBAL: ENTRY ALTRET;
     4861    31767    2       IF NOT VM_CURRENT_FOLDER.FLAGS.OPEN THEN GOTO NO_FOLDER;
     4862    31768    2       IF NOT VM_CURRENT_FOLDER.FLAGS.UPDATE THEN GOTO NO_UPDATE;
     4863    31769    2       FPT_CORRES.V.DCB1# = M$MAIL_FILE_NUM;
     4864    31770    2       FPT_CORRES.V.DCB2# = M$MAIL_GLOBAL_NUM;
     4865    31771    2       CALL M$CORRES (FPT_CORRES)
     4866    31772    3       WHENRETURN DO;
     4867    31773    3           CALL XUR$ERRMSG (E_NOTMCENTRAL);
     4868    31774    3           ALTRETURN;
     4869    31775    3       END;
     4870    31776    2       RETURN;
     4871    31777        /*E*    ERROR: VMO-E$NOTMCENTRAL-0
PL6.E3A0      #001=VMO$MAIL File=VMO$MAIL.:VMB6TSI                               WED 08/20/97 15:19 Page:173
     4872    31778                MESSAGE: You cannot create/delete a USER except in .:MAIL/CENTRAL
     4873    31779                MESSAGE1: You are not USEing .:MAIL_CENTRAL
     4874    31780        */
     4875    31781    2   END;
     4876    31782        %EJECT;
PL6.E3A0      #001=VMO$MAIL File=VMO$MAIL.:VMB6TSI                               WED 08/20/97 15:19 Page:174
     4877    31783        /*********************************************************************/
     4878    31784        /*F*    NAME:   CLOSE_SEARCH
     4879    31785                PURPOSE: To close all open DCBS in the search list except
     4880    31786                         for the global and current folders.
     4881    31787        */
     4882    31788        /*********************************************************************/
     4883    31789    1   CLOSE_SEARCH: PROC;
     4884    31790    3       DO INDX4 = 0 TO VM_SEARCH_INFO.NUM_ENTRIES-1;
     4885    31791    3           IF VM_SEARCH_INFO.DCB#(INDX4) ~= M$MAIL_FILE_NUM AND
     4886    31792    3             VM_SEARCH_INFO.DCB#(INDX4) ~= M$MAIL_GLOBAL_NUM
     4887    31793    3           THEN
     4888    31794    3               IF DCBADDR(VM_SEARCH_INFO.DCB#(INDX4))->F$DCB.FCD#
     4889    31795    4               THEN DO;
     4890    31796    4                   CLOSE_SAVE.V.DCB# = VM_SEARCH_INFO.DCB#(INDX4);
     4891    31797    5                   CALL M$CLOSE (CLOSE_SAVE) WHENALTRETURN DO;
     4892    31798    5                   END;
     4893    31799    4               END;
     4894    31800    3       END;
     4895    31801    2       VM_SEARCH_INFO.ACTIVE = '0'B;
     4896    31802    2   END CLOSE_SEARCH;
     4897    31803        %EJECT;
PL6.E3A0      #001=VMO$MAIL File=VMO$MAIL.:VMB6TSI                               WED 08/20/97 15:19 Page:175
     4898    31804        /*********************************************************************/
     4899    31805        /*F*    NAME:       GET_WILD_FOLDER
     4900    31806                PURPOSE:    To open the next folder which matched wildcard.
     4901    31807                DESCRIPTION: ???
     4902    31808        */
     4903    31809        /*********************************************************************/
     4904    31810    1   GET_WILD_FOLDER: PROC ALTRET;
     4905    31811        /*
     4906    31812             ***** Make sure work DCB isn't left open ...
     4907    31813        */
     4908    31814    2       IF DCBADDR(M$WORK_NUM) -> F$DCB.FCD#
     4909    31815    3       THEN DO;
     4910    31816    3           CLOSE_SAVE.V.DCB# = M$WORK_NUM;
     4911    31817    4           CALL M$CLOSE (CLOSE_SAVE) WHENALTRETURN DO; END;
     4912    31818    3       END;
     4913    31819        /*
     4914    31820             ***** Find the next mail folder ...
     4915    31821        */
     4916    31822    3       DO WHILE WILD;
     4917    31823    3           CALL M$OPEN (OPEN_NEXT)
     4918    31824    4           WHENALTRETURN DO;
     4919    31825    4               IF B$TCB.ALT$ -> B$ALT.ERR.CODE = %E$FDEOF
     4920    31826    4               THEN                       /* End of file directory */
     4921    31827    4                   ALTRETURN;
     4922    31828    4               ELSE
     4923    31829    4                   GOTO E_PMME;
     4924    31830    4           END;                            /* Do never ... end */
     4925    31831    3           IF SUBSTR(DCBADDR(M$WORK_NUM)->F$DCB.NAME#.C,0,6) ~= ':MAIL_'
     4926    31832    3           THEN
     4927    31833    3               ALTRETURN;
     4928    31834    3           VM_WILDCARD.INPUT_ = VECTOR(VM_RADDRESS.FOLDER);
     4929    31835    3           VM_RADDRESS.FOLDER = SUBSTR(DCBADDR(M$WORK_NUM)->F$DCB.NAME#.C,6);
     4930    31836    3           CALL X$WILDCMP (VM_WILDCARD)
     4931    31837    4           WHENRETURN DO;
     4932    31838    4               GOTO MATCH_FOUND;
     4933    31839    4           END;
     4934    31840    4           DO NEVER;
PL6.E3A0      #001=VMO$MAIL File=VMO$MAIL.:VMB6TSI                               WED 08/20/97 15:19 Page:176
     4935    31841    4   E_PMME:     ;
     4936    31842    4               CALL XUR$ERRMSG (B$TCB.ALT$ -> B$ALT.ERR, M$WORK_NUM);
     4937    31843    4               IF NOT WILD
     4938    31844    4               THEN
     4939    31845    4                   ALTRETURN;
     4940    31846    4           END/*NEVER*/;
     4941    31847    3           OPEN_NEXT.NAME_ = VECTOR(NIL);
     4942    31848    3       END/*WHILE WILD*/;
     4943    31849        /*
     4944    31850             ***** When match found (or if not wild), open the folder
     4945    31851        */
     4946    31852    2   MATCH_FOUND: ;
     4947    31853    2       VM_WORK_FOLDER.FLAGS = '0'B;
     4948    31854    2       CALL VMA$OPEN_FOLDER (VM_WORK_FOLDER,ADDR(VM_RADDRESS),M$WORK_NUM,
     4949    31855    2         %OLDFILE#,%UPDATE#) ALTRET(E_PMME);
     4950    31856    2       RETURN;
     4951    31857    2   END GET_WILD_FOLDER;
     4952    31858        %EJECT;
PL6.E3A0      #001=VMO$MAIL File=VMO$MAIL.:VMB6TSI                               WED 08/20/97 15:19 Page:177
     4953    31859        /*********************************************************************/
     4954    31860        /*F*    NAME:        DEL_NAMEMAP_ENTRIES
     4955    31861                PURPOSE:     To delete all NAMEMAP entries for a USER.
     4956    31862                DESCRIPTION: This routine will delete all the entries in
     4957    31863                             the reverse name map (:NAME.:MAIL) which are found
     4958    31864                             in the definition pointed to by VM_ADD_HEAD.HEAD$.
     4959    31865        */
     4960    31866        /*********************************************************************/
     4961    31867    1   DEL_NAMEMAP_ENTRIES: PROC ALTRET;
     4962    31868    2       PTR1$ = VM_ADD_HEAD.HEAD$;
     4963    31869    2       NAME_KEY.L# = 20;
     4964    31870    3       DO FOREVER;
     4965    31871    3           CALL VMA$GET_NEXT_ENTRY (VM_UADDRESS,VM_RADDRESS,
     4966    31872    3             PTR1$,VM_ADDLIST$) ALTRET(END_DEL_NAME_MAP);
     4967    31873    3           NAME_KEY.NAME# = VM_UADDRESS.NAME_KEY;
     4968    31874    3           IF VM_UADDRESS.SITENAME = ' '
     4969    31875    3             OR VM_UADDRESS.SITENAME = VM_SITENAME
     4970    31876    3             AND NAME_KEY.NAME# ~= ' '
     4971    31877    3           THEN
     4972    31878    4           DO;
     4973    31879    4               CALL M$DELREC (DELREC_NAME_MAP) ALTRET(IGNORE);
     4974    31880    4   IGNORE:     ;
     4975    31881    4           END;
     4976    31882    3       END;                            /* Do forever ... end */
     4977    31883    2   END_DEL_NAME_MAP: ;
     4978    31884    2       RETURN;
     4979    31885    2   END DEL_NAMEMAP_ENTRIES;
     4980    31886        %EJECT;
PL6.E3A0      #001=VMO$MAIL File=VMO$MAIL.:VMB6TSI                               WED 08/20/97 15:19 Page:178
     4981    31887        /********************************************************************/
     4982    31888        /*F*    NAME: GET_FOLDERNAME
     4983    31889                PURPOSE: To obtain the current folder name for use in an
     4984    31890                         error message.
     4985    31891                DESCRIPTION: This routine will get the current folder name in
     4986    31892                             WORK_STRING, and, if it is too long to fit in an
     4987    31893                             error message substitution field, will truncate
     4988    31894                             it to fit.
     4989    31895        */
     4990    31896        /********************************************************************/
     4991    31897    1   GET_FOLDERNAME: PROC (FOLDER_SPEC);
     4992    31898        %VM_FOLDER_INFO (NAME=FOLDER_SPEC, STCLASS=PARAM);
     4993    31950        /**/
     4994    31951    2       WORK_STRING.L# = LENGTHC(WORK_STRING.NAME#);
     4995    31952    2       CALL VMF$MAKE_ADDRESS1 (WORK_STRING,FOLDER_SPEC);
     4996    31953    2       IF WORK_STRING.L# > 31
     4997    31954    3       THEN DO;
     4998    31955    3           WORK_STRING.L# = 31;
     4999    31956    3           SUBSTR (WORK_STRING.NAME#,28,3) = '...';
     5000    31957    3       END;
     5001    31958    2       RETURN;
     5002    31959    2   END GET_FOLDERNAME;
     5003    31960        %EJECT;
PL6.E3A0      #001=VMO$MAIL File=VMO$MAIL.:VMB6TSI                               WED 08/20/97 15:19 Page:179
     5004    31961        /*********************************************************************/
     5005    31962        /*F*    NAME:        LINK_RUNIT
     5006    31963                PURPOSE:     To M$LINK to specified rununit.
     5007    31964                DESCRIPTION: This routine will M$LINK to the specified
     5008    31965                             rununit and perform any necessary cleanup
     5009    31966                             so that MAIL works as though uninterrupted.
     5010    31967        */
     5011    31968        /*********************************************************************/
     5012    31969    1   LINK_RUNIT: PROC ALTRET;
     5013    31970    2       CALL XUR$DISABLE;
     5014    31971        /*
     5015    31972             ***** Write the profile out if updating is permitted.
     5016    31973        */
     5017    31974    2       IF VM_CURRENT_FOLDER.FLAGS.UPDATE = %YES#
     5018    31975    2       THEN
     5019    31976    2           CALL PUT_PROFILE (M$MAIL_FILE_NUM) ALTRET(E_PMME);
     5020    31977    2       VM_CURRENT_FOLDER.FLAGS.OPEN = %NO#;
     5021    31978        /*
     5022    31979             ***** Assume that FPT_LINK is setup correctly ...
     5023    31980        */
     5024    31981    2       CALL M$LINK (FPT_LINK)
     5025    31982    3       WHENALTRETURN DO;
     5026    31983    3           ERROR = B$TCB.ALT$ -> B$ALT.ERR;
     5027    31984    3           DCB# = B$TCB.ALT$ -> B$ALT.DCB#;
     5028    31985        /*
     5029    31986             ***** If the M$LINK failed because of rundownip
     5030    31987                   then exit mail now!
     5031    31988        */
     5032    31989    3           IF ERROR.ERR# = %E$EKEY
     5033    31990    3           THEN
     5034    31991    4           DO;
     5035    31992                    %INIT_STR (CODE=E_END_NOUPDATE_CMD, STR=VM_END_NOUPDATE_CMD,
     5036    31993                    NEXT_CMD=VM_END_NOUPDATE_CMD, TEST=YES);
     5037    32016    4               ALTRETURN;
     5038    32017    4           END;
     5039    32018    3           CALL XUR$ERRMSG (ERROR,DCB#);
     5040    32019    3       END;                            /* Do never ... end */
PL6.E3A0      #001=VMO$MAIL File=VMO$MAIL.:VMB6TSI                               WED 08/20/97 15:19 Page:180
     5041    32020    2       VM_CURRENT_FOLDER.FLAGS.OPEN = %YES#;
     5042    32021    2       IF VM_CURRENT_FOLDER.FLAGS.UPDATE = %NO#
     5043    32022    2       THEN
     5044    32023    3       DO;
     5045    32024
     5046    32025    4           CALL M$ENQ (FILE_SHARE) WHENALTRETURN DO;
     5047    32026    4   FOLD_BUSY:
     5048    32027    4               CLOSE_SAVE.V.DCB# = M$MAIL_FILE_NUM;
     5049    32028    4               CALL M$CLOSE (CLOSE_SAVE) ALTRET(E_PMME);
     5050    32029    4               VM_CURRENT_FOLDER.FLAGS.OPEN = %NO#;
     5051    32030        /**/
     5052    32031    4               WORK_STRING.L# = LENGTHC(WORK_STRING.NAME#);
     5053    32032    4               CALL GET_FOLDERNAME (VM_CURRENT_FOLDER);
     5054    32033    4               CALL XUR$ERRMSG (E_FOLDERBUSY,,,VECTOR(WORK_STRING));
     5055    32034    4               GOTO NO_FOLD;
     5056    32035    4           END;
     5057    32036    3           CALL XUR$ERRMSG(E_NOUPDATE);
     5058    32037    3       END;
     5059    32038    3       ELSE DO;                        /* Enq and see what we can get */
     5060    32039    4           CALL M$ENQ (FILE_NONE) WHENALTRETURN DO;
     5061    32040    4               CALL M$ENQ (FILE_SHARE)
     5062    32041    5               WHENRETURN DO;
     5063    32042    5                   VM_CURRENT_FOLDER.FLAGS.UPDATE = %NO#;
     5064    32043    5                   CALL XUR$ERRMSG(E_NOUPDATE);
     5065    32044    5               END;
     5066    32045    5               WHENALTRETURN DO;
     5067    32046    5                   GOTO FOLD_BUSY;
     5068    32047    5               END;
     5069    32048    4           END;
     5070    32049    3       END;
     5071    32050    3       DO NEVER;
     5072    32051    3   NO_FOLD:
     5073    32052    3           CALL XUR$ERRMSG (E_NOCURFOLD);
     5074    32053    3           VM_SEARCH_INFO.ACTIVE = '0'B;
     5075    32054    3           VM_SEARCH_INFO.CURRENT = '0'B;
     5076    32055    4           DO INDX4=0 TO %VM_MAX_SRCH;
     5077    32056    4               VM_PROFILE.SEARCH_LIST$(INDX4) = ADDR(NIL);
PL6.E3A0      #001=VMO$MAIL File=VMO$MAIL.:VMB6TSI                               WED 08/20/97 15:19 Page:181
     5078    32057    4           END;
     5079    32058    3       END;
     5080    32059        /*
     5081    32060             ***** Get the profile back ...
     5082    32061        */
     5083    32062    2       IF VM_CURRENT_FOLDER.FLAGS.OPEN
     5084    32063    2       THEN
     5085    32064    2           CALL VMD$GET_PROFILE (M$MAIL_FILE_NUM) ALTRET(E_PMME);
     5086    32065    2       CALL XUR$CLRENABLE;
     5087    32066    2       RETURN;
     5088    32067        /**/
     5089    32068    2   E_PMME:
     5090    32069    2       ERROR = B$TCB.ALT$ -> B$ALT.ERR;
     5091    32070    2       DCB# = B$TCB.ALT$ -> B$ALT.DCB#;
     5092    32071    2       CALL XUR$ERRMSG (ERROR,DCB#);
     5093    32072    2       CALL XUR$CLRENABLE;
     5094    32073    2       ALTRETURN;
     5095    32074    2   END LINK_RUNIT;
     5096    32075        %EJECT;
PL6.E3A0      #001=VMO$MAIL File=VMO$MAIL.:VMB6TSI                               WED 08/20/97 15:19 Page:182
     5097    32076        /*********************************************************************/
     5098    32077        /*F*    NAME:       REPORT_ACTIVITY
     5099    32078                PURPOSE:     To report values using specified formats.
     5100    32079                DESCRIPTION: This routine will report the value of VALUE
     5101    32080                             using the passed format (FMT_) unless VALUE
     5102    32081                             is zero and SUBSTITUTE is YES. Then the message
     5103    32082                             "No message found" will be printed.
     5104    32083        */
     5105    32084        /*********************************************************************/
     5106    32085    1   REPORT_ACTIVITY: PROC (VALUE, FMT, SUBSTITUTE#, CODE);
     5107    32086    2   DCL VALUE SBIN WORD;
     5108    32087        %VLP_NAME (FPTN=FMT, STCLASS=PARAM);
     5109    32114    2   DCL SUBSTITUTE# BIT(1);
     5110    32115    2   DCL CODE          UBIN;
     5111    32116        /**/
     5112    32117    2       IF VALUE = 0
     5113    32118    2         AND SUBSTITUTE# = %YES#
     5114    32119    2       THEN
     5115    32120    3       DO;
     5116    32121    3           F_FDSME.NVECS# = 0;
     5117    32122                %INIT_STR (CODE=E_NO_MESSAGE_FMT, STR=VM_NO_MESSAGE_FMT,
     5118    32123                VECT="F_FDSME.FMT_", TEST=YES);
     5119    32146    3       END;
     5120    32147    2       ELSE
     5121    32148    3       DO;
     5122    32149    3           VECT_ARRAY(0) = VECTOR(VALUE);
     5123    32150    3           F_FDSME.NVECS# = 1;
     5124    32151                %INIT_STR (CODE=CODE, STR=FMT, VECT="F_FDSME.FMT_", TEST=YES);
     5125    32174    3       END;
     5126    32175    2       CALL VMD$WRITE_BUF (F_FDSME);
     5127    32176    2       RETURN;
     5128    32177    2   END REPORT_ACTIVITY;
     5129    32178        %EJECT;
PL6.E3A0      #001=VMO$MAIL File=VMO$MAIL.:VMB6TSI                               WED 08/20/97 15:19 Page:183
     5130    32179        /*********************************************************************/
     5131    32180        /*F*    NAME:        INIT_CONTEXT
     5132    32181                PURPOSE:     To initialize the specified CONTEXT for SELECTIONS
     5133    32182                DESCRIPTION: This routine will reset all items in the specified
     5134    32183                             CONTEXT, i.e. SELECTION CONTEXT information.
     5135    32184        */
     5136    32185        /*********************************************************************/
     5137    32186    1   INIT_CONTEXT: PROC (WHICH_CONTEXT);
     5138    32187    2   DCL WHICH_CONTEXT UBIN WORD;
     5139    32188        /**/
     5140    32189    2       CONTEXT_PTR$(WHICH_CONTEXT) = PINCRW(VM_SELECT$,WHICH_CONTEXT*512);
     5141    32190    2       CONTEXT_PTR$(WHICH_CONTEXT) -> VM$CONTEXT.MESSAGE_POINTER = -1;
     5142    32191    2       CONTEXT_PTR$(WHICH_CONTEXT) -> VM$CONTEXT.TRUTH_TREE$ = ADDR(NIL);
     5143    32192    2       CONTEXT_PTR$(WHICH_CONTEXT) -> VM$CONTEXT.NUM_ENTRIES = 0;
     5144    32193    2       CONTEXT_PTR$(WHICH_CONTEXT) -> VM$CONTEXT.FLAGS = %NO#;
     5145    32194    2       RETURN;
     5146    32195    2   END INIT_CONTEXT;
     5147    32196        %EJECT;
PL6.E3A0      #001=VMO$MAIL File=VMO$MAIL.:VMB6TSI                               WED 08/20/97 15:19 Page:184
     5148    32197        /********************************************************************/
     5149    32198        /*F*    NAME:        FIX_CONTEXT
     5150    32199                PURPOSE:     To fix the top end of the message selection range.
     5151    32200                DESCRIPTION: If the current context range is the entire folder,
     5152    32201                             this routine limits it to the number of messages
     5153    32202                             currently in the folder, so that commands which
     5154    32203                             can add new messages don't get into a loop.
     5155    32204        */
     5156    32205        /********************************************************************/
     5157    32206    1   FIX_CONTEXT: PROC;
     5158    32207        /**/
     5159    32208    2       IF CURRENT_CONTEXT%.NUM_ENTRIES = 1
     5160    32209    2         AND CURRENT_CONTEXT%.MESSAGE_SET.LOW(0) = 1
     5161    32210    2         AND CURRENT_CONTEXT%.MESSAGE_SET.HIGH(0) = %MAX_MSGNO
     5162    32211    2       THEN
     5163    32212    2           CURRENT_CONTEXT%.MESSAGE_SET.HIGH(0) = VM_PROFILE.HI_MESSAGE_NUMBER;
     5164    32213    2       RETURN;
     5165    32214    2   END FIX_CONTEXT;
     5166    32215        %EJECT;
PL6.E3A0      #001=VMO$MAIL File=VMO$MAIL.:VMB6TSI                               WED 08/20/97 15:19 Page:185
     5167    32216        /*********************************************************************/
     5168    32217        /*F*    NAME:        INIT$SELECT_OPTS
     5169    32218                PURPOSE:     To initialize all SELECTION CRITIERIA tables.
     5170    32219                DESCRIPTION: This includes setting up the MESSAGE SET and
     5171    32220                             saving the parse tree for the TRUTH EXPRESSION.
     5172    32221        */
     5173    32222        /*********************************************************************/
     5174    32223    1   INIT$SELECT_OPTS: PROC (BLK$,COMMAND) ALTRET;
     5175    32224        /***** Parameters *****/
     5176    32225    2   DCL BLK$ PTR;
     5177    32226    2   DCL COMMAND UBIN WORD;
     5178    32227        /***** Local variables *****/
     5179    32228    2   DCL PTR1$ PTR STATIC;
     5180    32229    2   DCL PTR2$ PTR STATIC;
     5181    32230    2   DCL VALUE1 SBIN WORD STATIC;
     5182    32231    2   DCL VALUE2 SBIN WORD STATIC;
     5183    32232    2   DCL INDX1 SBIN WORD STATIC;
     5184    32233    2   DCL INDX2 SBIN WORD STATIC;
     5185    32234    2   DCL START_BLK SBIN WORD STATIC;
     5186    32235        %EJECT;
PL6.E3A0      #001=VMO$MAIL File=VMO$MAIL.:VMB6TSI                               WED 08/20/97 15:19 Page:186
     5187    32236        /*
     5188    32237             ***** If no options are present,
     5189    32238                   then assume all current. That is,
     5190    32239                   don't do anything ...
     5191    32240        */
     5192    32241    2       START_BLK = 0;
     5193    32242    2       IF BLK$ -> P$B.NSUBLKS = 0
     5194    32243    2       THEN
     5195    32244    2           RETURN;
     5196    32245        /*
     5197    32246             ***** The selection functions work on one of the
     5198    32247                   contexts. Therefore, they must be processed,
     5199    32248                   if they were specified, without initializing
     5200    32249                   the context info. All other selection criteria
     5201    32250                   depend upon a cleanly initialized context area ...
     5202    32251        */
     5203    32252    3       DO CASE (BLK$ -> P$B.SUBLK$(0) -> P$B.CODE);
     5204    32253    3       CASE (%SEL_PREVIOUS, %SEL_NEXT);
     5205    32254    3           NEED_TITLE_BAR = %NO#;
     5206    32255    3       CASE (ELSE);
     5207    32256    3       END;
     5208    32257    2   RELATIVE_FUNCTIONS:
     5209    32258    3       DO CASE (BLK$ -> P$B.SUBLK$(0) -> P$B.CODE);
     5210    32259    3       CASE (%SEL_SELECTED);
     5211    32260                            /* Copy the selected context into the current context */
     5212    32261    3           CALL INIT_CONTEXT (%CONTEXT_CURRENT);
     5213    32262    4           DO INDX1 = 0 TO SELECTED_CONTEXT%.NUM_ENTRIES;
     5214    32263    4               CURRENT_CONTEXT%.MESSAGE_SET.LOW(INDX1) =
     5215    32264    4                 SELECTED_CONTEXT%.MESSAGE_SET.LOW(INDX1);
     5216    32265    4               CURRENT_CONTEXT%.MESSAGE_SET.HIGH(INDX1) =
     5217    32266    4                 SELECTED_CONTEXT%.MESSAGE_SET.HIGH(INDX1);
     5218    32267    4           END;
     5219    32268    3           CURRENT_CONTEXT%.NUM_ENTRIES = SELECTED_CONTEXT%.NUM_ENTRIES;
     5220    32269    3           CURRENT_CONTEXT%.TRUTH_TREE$ = SELECTED_CONTEXT%.TRUTH_TREE$;
     5221    32270    3       CASE (%SEL_THIS);
     5222    32271        /*
     5223    32272          **** Already incremented so decrement so that the proper message is obtained.
PL6.E3A0      #001=VMO$MAIL File=VMO$MAIL.:VMB6TSI                               WED 08/20/97 15:19 Page:187
     5224    32273        */
     5225    32274    3           CURRENT_CONTEXT%.MESSAGE_POINTER = CURRENT_CONTEXT%.MESSAGE_POINTER - 1;
     5226    32275    3           CURRENT_CONTEXT%.MESSAGE_SET.LOW(0) = SELECTED_CONTEXT%.MESSAGE_POINTER;
     5227    32276    3           CURRENT_CONTEXT%.MESSAGE_SET.HIGH(0) = SELECTED_CONTEXT%.MESSAGE_POINTER;
     5228    32277    3           CURRENT_CONTEXT%.NUM_ENTRIES = 1;
     5229    32278    3       CASE (%SEL_FIRST,
     5230    32279    3             %SEL_NEXT,
     5231    32280    3             %SEL_REST);
     5232    32281    3           CALL INIT_CONTEXT (%CONTEXT_CURRENT);
     5233    32282        /*
     5234    32283             ***** If MESSAGE_POINTER has never been set (i.e. -1)
     5235    32284                   or if SEL_FIRST then start from first message ...
     5236    32285        */
     5237    32286    3           IF SELECTED_CONTEXT%.MESSAGE_POINTER = -1
     5238    32287    3             OR BLK$ -> P$B.SUBLK$(0) -> P$B.CODE = %SEL_FIRST
     5239    32288    3           THEN
     5240    32289    3               GOTO SELECT_FIRST;
     5241    32290        /*
     5242    32291             ***** Determine the first possible message number ...
     5243    32292        */
     5244    32293    4           DO INDX2 = 0 TO SELECTED_CONTEXT%.NUM_ENTRIES - 1;
     5245    32294    4               IF SELECTED_CONTEXT%.MESSAGE_SET.LOW(INDX2) <=
     5246    32295    4                 SELECTED_CONTEXT%.MESSAGE_POINTER
     5247    32296    4                 AND SELECTED_CONTEXT%.MESSAGE_SET.HIGH(INDX2) >=
     5248    32297    4                 SELECTED_CONTEXT%.MESSAGE_POINTER
     5249    32298    4               THEN
     5250    32299    4                   EXIT;
     5251    32300    4           END;                       /* Do INDX2 = ... end */
     5252    32301    3           IF SELECTED_CONTEXT%.MESSAGE_POINTER ~=
     5253    32302    3             SELECTED_CONTEXT%.MESSAGE_SET.HIGH(INDX2)
     5254    32303    3           THEN
     5255    32304    4           DO;
     5256    32305        /*
     5257    32306             ***** Use MESSAGE_POINTER + 1 as the beginning ...
     5258    32307        */
     5259    32308    4               CURRENT_CONTEXT%.MESSAGE_SET.LOW(0) =
     5260    32309    4                 SELECTED_CONTEXT%.MESSAGE_POINTER + 1;
PL6.E3A0      #001=VMO$MAIL File=VMO$MAIL.:VMB6TSI                               WED 08/20/97 15:19 Page:188
     5261    32310    4               CURRENT_CONTEXT%.MESSAGE_SET.HIGH(0) =
     5262    32311    4                 SELECTED_CONTEXT%.MESSAGE_SET.HIGH(INDX2);
     5263    32312    4               CURRENT_CONTEXT%.NUM_ENTRIES = 1;
     5264    32313    4               INDX2 = INDX2 + 1;
     5265    32314    4           END;
     5266    32315    3           ELSE
     5267    32316    4           DO;
     5268    32317        /*
     5269    32318             ***** Start at the next entry in the MESSAGE_SET
     5270    32319                   if there is one. Otherwise, rest is zero ...
     5271    32320        */
     5272    32321    4               IF INDX2 = SELECTED_CONTEXT%.NUM_ENTRIES - 1
     5273    32322    4               THEN
     5274    32323    5               DO;
     5275    32324    5                   EXIT RELATIVE_FUNCTIONS;
     5276    32325    5               END;
     5277    32326    4               ELSE
     5278    32327    5               DO;
     5279    32328    5                   INDX2 = INDX2 + 1;
     5280    32329    5               END;
     5281    32330    4           END;
     5282    32331    4           DO NEVER;
     5283    32332    4   SELECT_FIRST:
     5284    32333    4               CURRENT_CONTEXT%.MESSAGE_SET.LOW(0) =
     5285    32334    4                 SELECTED_CONTEXT%.MESSAGE_SET.LOW(0);
     5286    32335    4               CURRENT_CONTEXT%.MESSAGE_SET.HIGH(0) =
     5287    32336    4                 SELECTED_CONTEXT%.MESSAGE_SET.HIGH(0);
     5288    32337    4               CURRENT_CONTEXT%.NUM_ENTRIES = 1;
     5289    32338    4               INDX2 = 1;
     5290    32339    4           END;
     5291    32340    4           DO INDX1 = INDX2 TO SELECTED_CONTEXT%.NUM_ENTRIES - 1;
     5292    32341    4               CURRENT_CONTEXT%.MESSAGE_SET.LOW(CURRENT_CONTEXT%.NUM_ENTRIES) =
     5293    32342    4                 SELECTED_CONTEXT%.MESSAGE_SET.LOW(INDX1);
     5294    32343    4               CURRENT_CONTEXT%.MESSAGE_SET.HIGH(CURRENT_CONTEXT%.NUM_ENTRIES) =
     5295    32344    4                 SELECTED_CONTEXT%.MESSAGE_SET.HIGH(INDX1);
     5296    32345    4               CURRENT_CONTEXT%.NUM_ENTRIES = CURRENT_CONTEXT%.NUM_ENTRIES + 1;
     5297    32346    4           END;                       /* Do INDX1 = ... end */
PL6.E3A0      #001=VMO$MAIL File=VMO$MAIL.:VMB6TSI                               WED 08/20/97 15:19 Page:189
     5298    32347    3           CURRENT_CONTEXT%.TRUTH_TREE$ = SELECTED_CONTEXT%.TRUTH_TREE$;
     5299    32348    4           DO CASE (BLK$ -> P$B.SUBLK$(0) -> P$B.CODE);
     5300    32349    4           CASE (%SEL_FIRST,
     5301    32350    4             %SEL_NEXT);
     5302    32351    4               CURRENT_CONTEXT%.FLAGS.NEXT = %YES#;
     5303    32352    4           END;                        /* Do case ... end */
     5304    32353    3       CASE (%SEL_LAST,
     5305    32354    3             %SEL_PREVIOUS);
     5306    32355    3           CALL INIT_CONTEXT (%CONTEXT_CURRENT);
     5307    32356        /*
     5308    32357             ***** If MESSAGE_POINTER has never been set (i.e. -1)
     5309    32358                   or if SEL_LAST then start from last message ...
     5310    32359        */
     5311    32360    3           IF SELECTED_CONTEXT%.MESSAGE_POINTER = -1
     5312    32361    3             OR BLK$ -> P$B.SUBLK$(0) -> P$B.CODE = %SEL_LAST
     5313    32362    3           THEN
     5314    32363    3               GOTO SELECT_LAST;
     5315    32364        /*
     5316    32365             ***** Determine the last possible message number ...
     5317    32366        */
     5318    32367    4           DO INDX2 = SELECTED_CONTEXT%.NUM_ENTRIES -1 DOWNTO 0;
     5319    32368    4               IF SELECTED_CONTEXT%.MESSAGE_SET.LOW(INDX2) <=
     5320    32369    4                 SELECTED_CONTEXT%.MESSAGE_POINTER
     5321    32370    4                 AND SELECTED_CONTEXT%.MESSAGE_SET.HIGH(INDX2) >=
     5322    32371    4                 SELECTED_CONTEXT%.MESSAGE_POINTER
     5323    32372    4               THEN
     5324    32373    4                   EXIT;
     5325    32374    4           END;                       /* Do INDX2 = ... end */
     5326    32375    3           IF SELECTED_CONTEXT%.MESSAGE_POINTER ~=
     5327    32376    3             SELECTED_CONTEXT%.MESSAGE_SET.LOW(INDX2)
     5328    32377    3           THEN
     5329    32378    4           DO;
     5330    32379        /*
     5331    32380             ***** Use MESSAGE_POINTER as the beginning ...
     5332    32381        */
     5333    32382    4               CURRENT_CONTEXT%.MESSAGE_SET.HIGH(INDX2) =
     5334    32383    4                 SELECTED_CONTEXT%.MESSAGE_POINTER;
PL6.E3A0      #001=VMO$MAIL File=VMO$MAIL.:VMB6TSI                               WED 08/20/97 15:19 Page:190
     5335    32384    4               CURRENT_CONTEXT%.MESSAGE_SET.LOW(INDX2) =
     5336    32385    4                 SELECTED_CONTEXT%.MESSAGE_SET.LOW(INDX2);
     5337    32386    4               CURRENT_CONTEXT%.NUM_ENTRIES = 1;
     5338    32387    4               INDX2 = INDX2 - 1;
     5339    32388    4           END;
     5340    32389    3           ELSE
     5341    32390    4           DO;
     5342    32391        /*
     5343    32392             ***** Start at the previous entry in the MESSAGE_SET
     5344    32393                   if there is one. Otherwise, rest is zero ...
     5345    32394        */
     5346    32395    4               IF INDX2 = 0
     5347    32396    4               THEN
     5348    32397    5               DO;
     5349    32398    5                   EXIT RELATIVE_FUNCTIONS;
     5350    32399    5               END;
     5351    32400    4               ELSE
     5352    32401    5               DO;
     5353    32402    5                   INDX2 = INDX2 - 1;
     5354    32403    5               END;
     5355    32404    4           END;
     5356    32405    4           DO NEVER;
     5357    32406    4   SELECT_LAST:
     5358    32407    4               INDX2 = SELECTED_CONTEXT%.NUM_ENTRIES - 1;
     5359    32408    4               CURRENT_CONTEXT%.MESSAGE_SET.LOW(INDX2) =
     5360    32409    4                 SELECTED_CONTEXT%.MESSAGE_SET.LOW(INDX2);
     5361    32410    4               CURRENT_CONTEXT%.MESSAGE_SET.HIGH(INDX2) =
     5362    32411    4                 SELECTED_CONTEXT%.MESSAGE_SET.HIGH(INDX2) + 1;
     5363    32412    4               CURRENT_CONTEXT%.NUM_ENTRIES = 1;
     5364    32413    4               INDX2 = INDX2 - 1;
     5365    32414    4           END;
     5366    32415    4           DO INDX1 = INDX2 DOWNTO 0;
     5367    32416    4               CURRENT_CONTEXT%.MESSAGE_SET.LOW(INDX1) =
     5368    32417    4                 SELECTED_CONTEXT%.MESSAGE_SET.LOW(INDX1);
     5369    32418    4               CURRENT_CONTEXT%.MESSAGE_SET.HIGH(INDX1) =
     5370    32419    4                 SELECTED_CONTEXT%.MESSAGE_SET.HIGH(INDX1) + 1;
     5371    32420    4               CURRENT_CONTEXT%.NUM_ENTRIES = CURRENT_CONTEXT%.NUM_ENTRIES + 1;
PL6.E3A0      #001=VMO$MAIL File=VMO$MAIL.:VMB6TSI                               WED 08/20/97 15:19 Page:191
     5372    32421    4           END;
     5373    32422    3           CURRENT_CONTEXT%.TRUTH_TREE$ = SELECTED_CONTEXT%.TRUTH_TREE$;
     5374    32423    3           CURRENT_CONTEXT%.FLAGS.PREV = %YES#;
     5375    32424    3           CURRENT_CONTEXT%.FLAGS.INVERSE = %YES#;
     5376    32425    3       CASE (ELSE);
     5377    32426                                 /* Must be one of the other selection criteria items */
     5378    32427    3           GOTO OTHER_CRITERIA;
     5379    32428    3       END;
     5380    32429    2       IF BLK$ -> P$B.NSUBLKS = 2 THEN    /* IE. 'MOVE SEL TO NAME TO FOLDER' */
     5381    32430    3       DO;
     5382    32431    3           START_BLK = 1;
     5383    32432    3           GOTO FINISH_MOVE_CMD;
     5384    32433    3       END;
     5385    32434    2       WHICH_CONTEXT = %CONTEXT_SELECTED;
     5386    32435    2       RETURN;
     5387    32436        /*
     5388    32437             ***** Process selection criteria other than
     5389    32438                   selection functions ...
     5390    32439        */
     5391    32440    2   OTHER_CRITERIA: ;
     5392    32441        /*
     5393    32442             ***** Initialize the current context ...
     5394    32443        */
     5395    32444    2       CALL INIT_CONTEXT (%CONTEXT_CURRENT);
     5396    32445        /*
     5397    32446             ***** Stuff the message set info into the context table ...
     5398    32447        */
     5399    32448    2   FINISH_MOVE_CMD: ;
     5400    32449    3       DO INDX1 = START_BLK TO BLK$ -> P$B.NSUBLKS - 1;
     5401    32450    3           PTR1$ = BLK$ -> P$B.SUBLK$(INDX1);
     5402    32451    4           DO SELECT (PTR1$ -> P$B.CODE);
     5403    32452    4               SELECT (%SEL_ALL);
     5404    32453    4               IF COMMAND = %CMD_SELECT_MESSAGE
     5405    32454    4               THEN
     5406    32455    4                   SELECT_CURRENT = %YES#;
     5407    32456    4               CURRENT_CONTEXT%.MESSAGE_SET.LOW(0) = 1;
     5408    32457    4               CURRENT_CONTEXT%.MESSAGE_SET.HIGH(0) = %MAX_MSGNO;
PL6.E3A0      #001=VMO$MAIL File=VMO$MAIL.:VMB6TSI                               WED 08/20/97 15:19 Page:192
     5409    32458    4               CURRENT_CONTEXT%.NUM_ENTRIES = 1;
     5410    32459    4               SELECT (%SEL_RANGE);
     5411    32460    4               PTR2$ = PTR1$ -> P$B.SUBLK$(0) -> P$S.TEXTC$;
     5412    32461    4               CALL X$DEC_CONVERT (PTR2$,VALUE1) ALTRET(E_CONVERT);
     5413    32462    4               IF VALUE1 > %MAX_MSGNO
     5414    32463    4               THEN
     5415    32464    4                   GOTO E_CONVERT;
     5416    32465    4               CURRENT_CONTEXT%.MESSAGE_SET.LOW(INDX1) = VALUE1;
     5417    32466        /*
     5418    32467             ***** May be a range, not just a single number ..
     5419    32468        */
     5420    32469    4               IF PTR1$ -> P$B.NSUBLKS > 1
     5421    32470    4               THEN
     5422    32471    5               DO;
     5423    32472    5                   PTR2$ = PTR1$ -> P$B.SUBLK$(1) -> P$S.TEXTC$;
     5424    32473    5                   CALL X$DEC_CONVERT (PTR2$,VALUE2) ALTRET(E_CONVERT);
     5425    32474    5                   IF VALUE2 > %MAX_MSGNO
     5426    32475    6                   THEN DO;
     5427    32476    6                       PTR1$ = PTR1$ -> P$B.SUBLK$(1);
     5428    32477    6                       GOTO E_CONVERT;
     5429    32478    6                   END;
     5430    32479    5                   IF VALUE2 < VALUE1
     5431    32480    6                   THEN DO;
     5432    32481    6                       CALL XUR$ERRPTR (PTR1$->P$B.CPOS);
     5433    32482    6                       CALL XUR$ERRMSG (E_BADRANGE);
     5434    32483    6                       ALTRETURN;
     5435    32484    6                   END;
     5436    32485    5                   CURRENT_CONTEXT%.MESSAGE_SET.HIGH(INDX1) = VALUE2;
     5437    32486    5               END;
     5438    32487    4               ELSE                 /* Set high = low */
     5439    32488    4                   CURRENT_CONTEXT%.MESSAGE_SET.HIGH(INDX1) = VALUE1;
     5440    32489    4               CURRENT_CONTEXT%.NUM_ENTRIES = CURRENT_CONTEXT%.NUM_ENTRIES + 1;
     5441    32490    4               SELECT (%SEL_EXP);
     5442    32491        /*
     5443    32492             ***** Transplant the truth tree out of the parse tree area ...
     5444    32493        */
     5445    32494    4               IF (INDX1 = 0 AND BLK$ -> P$B.NSUBLKS = 1)
PL6.E3A0      #001=VMO$MAIL File=VMO$MAIL.:VMB6TSI                               WED 08/20/97 15:19 Page:193
             32494                        /* IE. 'MOVE TO NAME TO FOLDER' */
     5446    32495    4                 OR START_BLK = 1                 /* IE. 'MOVE SEL TO NAME TO FOLDER'*/
     5447    32496    5               THEN DO;
     5448    32497    5                   CURRENT_CONTEXT%.NUM_ENTRIES = SELECTED_CONTEXT%.NUM_ENTRIES;
     5449    32498    5                   CURRENT_CONTEXT%.MESSAGE_SET.LOW(0) = SELECTED_CONTEXT%.MESSAGE_SET.
             32498                            LOW(0);
     5450    32499    5                   CURRENT_CONTEXT%.MESSAGE_SET.HIGH(0) = SELECTED_CONTEXT%.MESSAGE_SET
             32499                            .HIGH(0);
     5451    32500    5               END;
     5452    32501    4               X$MCB.FREE_HEAD$ = ADDR(NIL);
     5453    32502    4               X$MCB.TYPE = 0;       /* Bytes */
     5454    32503    4               X$MCB.SEGMENT_BASE$ = ADDR(CURRENT_CONTEXT%.MESSAGE_SET.LOW(
             32503                        CURRENT_CONTEXT%.NUM_ENTRIES+1));
     5455    32504    4               X$MCB.HI_SEGMENT$ = X$MCB.SEGMENT_BASE$;
     5456    32505    4               X$MCB.WKSZ = 511 - POFFW(X$MCB.HI_SEGMENT$,CONTEXT_PTR$(%CONTEXT_CURRENT
             32505                        ));
     5457    32506    4               CALL VMS$MOVE_SELECT (X$MCB,PTR1$,CURRENT_CONTEXT%.TRUTH_TREE$) ALTRET(
             32506                        NO_SPACE);
     5458    32507    4               SELECT (ELSE);
     5459    32508    4           END;                        /* Do case ... end */
     5460    32509    3       END;                            /* Do indx = ... end */
     5461    32510        /*
     5462    32511             ***** If no message set was specified, then assume
     5463    32512                   all messages in the folder ...
     5464    32513        */
     5465    32514    2       IF CURRENT_CONTEXT%.NUM_ENTRIES = 0
     5466    32515    2       THEN
     5467    32516    3       DO;
     5468    32517    3           CURRENT_CONTEXT%.MESSAGE_SET.LOW(0) = 1;
     5469    32518    3           CURRENT_CONTEXT%.MESSAGE_SET.HIGH(0) = %MAX_MSGNO;
     5470    32519    3           CURRENT_CONTEXT%.NUM_ENTRIES = 1;
     5471    32520    3       END;
     5472    32521        /*
     5473    32522             ***** If this command modifies the selected context,
     5474    32523                   then copy the current context to the selected context ...
     5475    32524        */
     5476    32525    3       DO CASE (COMMAND);
PL6.E3A0      #001=VMO$MAIL File=VMO$MAIL.:VMB6TSI                               WED 08/20/97 15:19 Page:194
     5477    32526    3       CASE (%CMD_SELECT_MESSAGE);
     5478    32527    3           WHICH_CONTEXT = %CONTEXT_SELECTED;
     5479    32528    3           SELECTED_CONTEXT%.MESSAGE_POINTER = CURRENT_CONTEXT%.MESSAGE_POINTER;
     5480    32529    3           SELECTED_CONTEXT%.NUM_ENTRIES = CURRENT_CONTEXT%.NUM_ENTRIES;
     5481    32530    4           DO INDX1 = 0 TO SELECTED_CONTEXT%.NUM_ENTRIES - 1;
     5482    32531    4               SELECTED_CONTEXT%.MESSAGE_SET.LOW(INDX1) =
     5483    32532    4                 CURRENT_CONTEXT%.MESSAGE_SET.LOW(INDX1);
     5484    32533    4               SELECTED_CONTEXT%.MESSAGE_SET.HIGH(INDX1) =
     5485    32534    4                 CURRENT_CONTEXT%.MESSAGE_SET.HIGH(INDX1);
     5486    32535    4           END;
     5487    32536    3           IF CURRENT_CONTEXT%.TRUTH_TREE$ ~= ADDR(NIL)
     5488    32537    3           THEN                       /* Transplant the tree again */
     5489    32538    4           DO;
     5490    32539    4               X$MCB.FREE_HEAD$ = ADDR(NIL);
     5491    32540    4               X$MCB.TYPE = 0;  /* Bytes */
     5492    32541    4               X$MCB.SEGMENT_BASE$ =
     5493    32542    4                 ADDR(SELECTED_CONTEXT%.MESSAGE_SET.LOW(SELECTED_CONTEXT%.NUM_ENTRIES+1
             32542                          ));
     5494    32543    4               X$MCB.HI_SEGMENT$ = X$MCB.SEGMENT_BASE$;
     5495    32544    4               X$MCB.WKSZ = 511 - POFFW(X$MCB.HI_SEGMENT$,CONTEXT_PTR$(%
             32544                        CONTEXT_SELECTED));
     5496    32545    4               CALL VMS$MOVE_SELECT (X$MCB,CURRENT_CONTEXT%.TRUTH_TREE$,
     5497    32546    4                 SELECTED_CONTEXT%.TRUTH_TREE$) ALTRET(NO_SPACE);
     5498    32547    4           END;                  /* Transplant the tree */
     5499    32548    3           ELSE                       /* Remove the tree */
     5500    32549    3               SELECTED_CONTEXT%.TRUTH_TREE$ = ADDR(NIL);
     5501    32550    3       CASE (ELSE);
     5502    32551    3           WHICH_CONTEXT = %CONTEXT_CURRENT;
     5503    32552    3       END;                             /* Do case ... end */
     5504    32553    2       RETURN;
     5505    32554        /**/
     5506    32555    2   E_CONVERT:
     5507    32556    2       CALL XUR$ERRPTR (PTR1$->P$B.CPOS);
     5508    32557    2       CALL XUR$ERRMSG (E_BIGNUM);
     5509    32558    2       ALTRETURN;
     5510    32559        /**/
     5511    32560    2   NO_SPACE:
PL6.E3A0      #001=VMO$MAIL File=VMO$MAIL.:VMB6TSI                               WED 08/20/97 15:19 Page:195
     5512    32561    2       CALL XUR$ERRMSG (E_MEMERR);
     5513    32562    2       ALTRETURN;
     5514    32563    2   END INIT$SELECT_OPTS;
     5515    32564        %EJECT;
PL6.E3A0      #001=VMO$MAIL File=VMO$MAIL.:VMB6TSI                               WED 08/20/97 15:19 Page:196
     5516    32565        /*********************************************************************/
     5517    32566        /*F*    NAME:        GET$MESSAGE
     5518    32567                PURPOSE:     To get the next message to process.
     5519    32568                DESCRIPTION: This routine looks at the RANGE SPECIFICATION
     5520    32569                             and then gets the header for each message in
     5521    32570                             turn and then calls VMS$SELECT which determines
     5522    32571                             if the particular message matches the requesed
     5523    32572                             SELECTION EXPRESSION. This routine continues
     5524    32573                             until (1) a message matching all criteria is
     5525    32574                             found, (2) No messages are found.
     5526    32575        */
     5527    32576        /*********************************************************************/
     5528    32577    1   GET$MESSAGE: PROC ALTRET;
     5529    32578
     5530    32579    2   DCL INDX SBIN WORD STATIC;
     5531    32580    2   DCL VALUE SBIN WORD STATIC;
     5532    32581    2   DCL RESULT$ PTR STATIC;
     5533    32582    2   DCL STATUS_SAVE BIT(1);
     5534    32583
     5535    32584        /*
     5536    32585             ***** If there are no entries in the current context
     5537    32586                   then there are no messages selected. Go back ...
     5538    32587        */
     5539    32588    2       IF CURRENT_CONTEXT%.NUM_ENTRIES = 0
     5540    32589    2       THEN
     5541    32590    2           ALTRETURN;
     5542    32591        /*
     5543    32592             ***** If inverse order is specified
     5544    32593                   then go backwards thru the list ...
     5545    32594        */
     5546    32595    2       IF CURRENT_CONTEXT%.FLAGS.INVERSE
     5547    32596    2       THEN
     5548    32597    2           GOTO PROCESS_INVERSE;
     5549    32598    2       IF CURRENT_CONTEXT%.SET_INDX = -1
     5550    32599    2       THEN                            /* Set to first entry */
     5551    32600    2           GOTO BUMP_CONTEXT_INDX;
     5552    32601    3       DO WHILE (CURRENT_CONTEXT%.SET_INDX < CURRENT_CONTEXT%.NUM_ENTRIES);
PL6.E3A0      #001=VMO$MAIL File=VMO$MAIL.:VMB6TSI                               WED 08/20/97 15:19 Page:197
     5553    32602    4           DO FOREVER;
     5554    32603    4               CURRENT_MESSAGE_NUMBER = CURRENT_MESSAGE_NUMBER + 1;
     5555    32604    4               IF CURRENT_MESSAGE_NUMBER <
     5556    32605    4                 CURRENT_CONTEXT%.MESSAGE_SET.LOW(CURRENT_CONTEXT%.SET_INDX)
     5557    32606    4                 OR CURRENT_MESSAGE_NUMBER >
     5558    32607    4                 CURRENT_CONTEXT%.MESSAGE_SET.HIGH(CURRENT_CONTEXT%.SET_INDX)
     5559    32608    4               THEN                 /* Outside the range. Get another */
     5560    32609    4                   GOTO BUMP_CONTEXT_INDX;
     5561    32610                            /* Looks like its in range.  Get it.  Then test to see if
     5562    32611                               we got one that is still in range. */
     5563    32612    4               IF SELECT_CURRENT THEN SELECTED_CONTEXT%.MESSAGE_POINTER =
             32612                        CURRENT_MESSAGE_NUMBER;
     5564    32613    4               CALL VMD$GET_HEADER_NEXT (CURRENT_MESSAGE_NUMBER,
     5565    32614    4                 M$MAIL_FILE_NUM)
     5566    32615    4               WHENALTRETURN
     5567    32616        /*
     5568    32617          **** Altreturn if there are no more messages to process.
     5569    32618        */
     5570    32619    5               DO;
     5571    32620    5                   IF CURRENT_CONTEXT%.SET_INDX + 1 < CURRENT_CONTEXT%.
     5572    32621    5                     NUM_ENTRIES THEN
     5573    32622    5                       GOTO BUMP_CONTEXT_INDX; /* Get next */
     5574    32623    5                   ELSE
     5575    32624    5                       GOTO NO_HEADER;
     5576    32625    5               END;
     5577    32626    4               IF VM_HEADER.UNIQUE_ID$ = ADDR(NIL)
     5578    32627    4                 AND VM_CURRENT_FOLDER.FLAGS.UPDATE
     5579    32628    5               THEN DO;
     5580    32629    5                   CALL ASSIGN_A_MESSAGE_ID
     5581    32630    6                   WHENRETURN DO;
     5582    32631    6                       CALL VMD$PUT_HEADER (CURRENT_MESSAGE_NUMBER, M$MAIL_FILE_NUM);
     5583    32632    6                       CALL VMD$PUT_ID (VM_HEADER.UNIQUE_ID$ -> X$STRING,
     5584    32633    6                         M$MAIL_FILE_NUM, CURRENT_MESSAGE_NUMBER);
     5585    32634    6                   END;
     5586    32635    5               END;
     5587    32636    4               IF CURRENT_MESSAGE_NUMBER <
     5588    32637    4                 CURRENT_CONTEXT%.MESSAGE_SET.LOW(CURRENT_CONTEXT%.SET_INDX)
PL6.E3A0      #001=VMO$MAIL File=VMO$MAIL.:VMB6TSI                               WED 08/20/97 15:19 Page:198
     5589    32638    4                 OR CURRENT_MESSAGE_NUMBER >
     5590    32639    4                 CURRENT_CONTEXT%.MESSAGE_SET.HIGH(CURRENT_CONTEXT%.SET_INDX)
     5591    32640    4               THEN                 /* Outside the range. Get another */
     5592    32641    4                   GOTO BUMP_CONTEXT_INDX;
     5593    32642        /*
     5594    32643             ***** Check truth expression ...
     5595    32644        */
     5596    32645    4               IF CURRENT_CONTEXT%.TRUTH_TREE$ ~= ADDR(NIL)
     5597    32646    4               THEN
     5598    32647    5               DO;
     5599    32648    5                   CALL VMS$SELECT (CURRENT_CONTEXT%.TRUTH_TREE$,
     5600    32649    5                     VM_SELECT,RESULT$) ALTRET(E_EVAL);
     5601    32650    5                   CALL X$DEC_CONVERT (RESULT$,VALUE) ALTRET(E_DEC);
     5602    32651    5                   IF VALUE <= 0 THEN
     5603    32652    6                   DO;
     5604    32653        /*
     5605    32654          **** If the selection criterion includes exam and the message was just
     5606    32655          **** displayed, delete the record anyway.
     5607    32656        */
     5608    32657    6                       IF CURR_COMMAND_CODE = %CMD_DELETE_MESSAGE THEN
     5609    32658    7                       DO;
     5610    32659    7                           STATUS_SAVE = VM_HEADER.STATUS.EXAM;
     5611    32660    7                           VM_HEADER.STATUS.EXAM = ~VM_HEADER.STATUS.EXAM;
     5612    32661        /*
     5613    32662          **** Determine if it was the exam criterion that failed the test.
     5614    32663          **** If it was, then if it was just displayed, delete it.
     5615    32664        */
     5616    32665    7                           CALL VMS$SELECT (CURRENT_CONTEXT%.
     5617    32666    7                             TRUTH_TREE$,VM_SELECT,RESULT$)
     5618    32667    7                           WHENALTRETURN
     5619    32668    8                           DO;
     5620    32669    8                               VM_HEADER.STATUS.EXAM = STATUS_SAVE;
     5621    32670    8                               GOTO E_EVAL;
     5622    32671    8                           END;
     5623    32672    7                           VM_HEADER.STATUS.EXAM = STATUS_SAVE;
     5624    32673    7                           CALL X$DEC_CONVERT (RESULT$,
     5625    32674    7                             VALUE) ALTRET(E_DEC);
PL6.E3A0      #001=VMO$MAIL File=VMO$MAIL.:VMB6TSI                               WED 08/20/97 15:19 Page:199
     5626    32675    7                           IF VALUE <= 0 THEN
     5627    32676    7                               GOTO GET_NEXT_CONTEXT;
     5628    32677    7                           IF NOT VM_HEADER.STATUS.MAKE_OLD THEN
     5629    32678    7                               GOTO GET_NEXT_CONTEXT;
     5630    32679    7                           EXIT; /* Candidate for deletion */
     5631    32680    7                       END;
     5632    32681    6                       ELSE
     5633    32682    6                           GOTO GET_NEXT_CONTEXT;
     5634    32683    6                   END;
     5635    32684    5               END;
     5636    32685        /*
     5637    32686             ***** Save the context MESSAGE_POINTER ...
     5638    32687        */
     5639    32688    4               CONTEXT_PTR$(WHICH_CONTEXT)->VM$CONTEXT.MESSAGE_POINTER =
     5640    32689    4                 CURRENT_MESSAGE_NUMBER;
     5641    32690        /*
     5642    32691             ***** If next was specified,
     5643    32692                   then only this message is desired.
     5644    32693                   Forget the rest of the messages ...
     5645    32694        */
     5646    32695    4               IF CURRENT_CONTEXT%.FLAGS.NEXT
     5647    32696    4               THEN
     5648    32697    5               DO;
     5649    32698    5                   GOTO MAKE_NEW_CONTEXT;
     5650    32699    5               END;
     5651    32700        /*
     5652    32701             ***** Message matches all criteria ...
     5653    32702        */
     5654    32703    4               GOTO RETURN_MESSAGE;
     5655    32704    4   GET_NEXT_CONTEXT:
     5656    32705    4           END;                       /* Do forever ... end */
     5657    32706        /*
     5658    32707             ***** Bump the context SET_INDX ...
     5659    32708        */
     5660    32709    3   BUMP_CONTEXT_INDX:
     5661    32710    3           CURRENT_CONTEXT%.SET_INDX = CURRENT_CONTEXT%.SET_INDX + 1;
     5662    32711        /*
PL6.E3A0      #001=VMO$MAIL File=VMO$MAIL.:VMB6TSI                               WED 08/20/97 15:19 Page:200
     5663    32712             ***** Set CURRENT_MESSAGE_NUMBER to point to the next
     5664    32713                   message to be selected. Since it will be incrimented
     5665    32714                   by one (due to normal entry conditions) it must be
     5666    32715                   decrimented by one here ...
     5667    32716        */
     5668    32717    3           CURRENT_MESSAGE_NUMBER =
     5669    32718    3             CURRENT_CONTEXT%.MESSAGE_SET.LOW(CURRENT_CONTEXT%.SET_INDX) - 1;
     5670    32719    3       END;                            /* Do while ... end */
     5671    32720        /*
     5672    32721             ***** Unable to find anything that matches ...
     5673    32722        */
     5674    32723    2       GOTO NO_HEADER;
     5675    32724        %EJECT;
PL6.E3A0      #001=VMO$MAIL File=VMO$MAIL.:VMB6TSI                               WED 08/20/97 15:19 Page:201
     5676    32725    2   PROCESS_INVERSE:
     5677    32726    2       IF CURRENT_CONTEXT%.SET_INDX = -1
     5678    32727    2       THEN                            /* Set to first entry */
     5679    32728    3       DO;
     5680    32729    3           CURRENT_CONTEXT%.SET_INDX = CURRENT_CONTEXT%.NUM_ENTRIES;
     5681    32730    3           GOTO BUMP_CONTEXT_INVERSE;
     5682    32731    3       END;
     5683    32732    3       DO WHILE (CURRENT_CONTEXT%.SET_INDX >= 0);
     5684    32733    4           DO FOREVER;
     5685    32734    4               IF SELECT_CURRENT THEN SELECTED_CONTEXT%.MESSAGE_POINTER =
             32734                        CURRENT_MESSAGE_NUMBER;
     5686    32735    4               CALL VMD$GET_HEADER_PREV (CURRENT_MESSAGE_NUMBER,
     5687    32736    4                 M$MAIL_FILE_NUM)
     5688    32737    4               WHENALTRETURN
     5689    32738        /*
     5690    32739          **** Altreturn if there are no more messages to process.
     5691    32740        */
     5692    32741    5               DO;
     5693    32742    5                   IF CURRENT_CONTEXT%.SET_INDX - 1 >= 0 THEN
     5694    32743    5                       GOTO BUMP_CONTEXT_INVERSE;
     5695    32744    5                   ELSE
     5696    32745    5                       GOTO NO_HEADER;
     5697    32746    5               END;
     5698    32747    4               IF CURRENT_MESSAGE_NUMBER <
     5699    32748    4                 CURRENT_CONTEXT%.MESSAGE_SET.LOW(CURRENT_CONTEXT%.SET_INDX)
     5700    32749    4                 OR CURRENT_MESSAGE_NUMBER >
     5701    32750    4                 CURRENT_CONTEXT%.MESSAGE_SET.HIGH(CURRENT_CONTEXT%.SET_INDX)
     5702    32751    4               THEN                 /* Outside the range. Get another */
     5703    32752    4                   GOTO BUMP_CONTEXT_INVERSE;
     5704    32753        /*
     5705    32754             ***** Check truth expression ...
     5706    32755        */
     5707    32756    4               IF CURRENT_CONTEXT%.TRUTH_TREE$ ~= ADDR(NIL)
     5708    32757    4               THEN
     5709    32758    5               DO;
     5710    32759    5                   CALL VMS$SELECT (CURRENT_CONTEXT%.TRUTH_TREE$,
     5711    32760    5                     VM_SELECT,RESULT$) ALTRET(E_EVAL);
PL6.E3A0      #001=VMO$MAIL File=VMO$MAIL.:VMB6TSI                               WED 08/20/97 15:19 Page:202
     5712    32761    5                   CALL X$DEC_CONVERT (RESULT$,VALUE) ALTRET(E_DEC);
     5713    32762    5                   IF VALUE <= 0
     5714    32763    5                   THEN
     5715    32764    5                       GOTO GET_PREV_CONTEXT;
     5716    32765    5               END;
     5717    32766        /*
     5718    32767             ***** Save the context MESSAGE_POINTER ...
     5719    32768        */
     5720    32769    4               CONTEXT_PTR$(WHICH_CONTEXT)->VM$CONTEXT.MESSAGE_POINTER =
     5721    32770    4                 CURRENT_MESSAGE_NUMBER;
     5722    32771        /*
     5723    32772             ***** If previous was specified,
     5724    32773                   then only this message is desired.
     5725    32774                   Forget the rest of the messages ...
     5726    32775        */
     5727    32776    4               IF CURRENT_CONTEXT%.FLAGS.PREV
     5728    32777    4               THEN
     5729    32778    5               DO;
     5730    32779    5                   GOTO MAKE_NEW_CONTEXT;
     5731    32780    5               END;
     5732    32781        /*
     5733    32782             ***** Message matches all criteria ...
     5734    32783        */
     5735    32784    4               GOTO RETURN_MESSAGE;
     5736    32785    4   GET_PREV_CONTEXT:
     5737    32786    4           END;                       /* Do forever ... end */
     5738    32787        /*
     5739    32788             ***** Bump the context SET_INDX ...
     5740    32789        */
     5741    32790    3   BUMP_CONTEXT_INVERSE:
     5742    32791    3           CURRENT_CONTEXT%.SET_INDX = CURRENT_CONTEXT%.SET_INDX - 1;
     5743    32792        /*
     5744    32793             ***** Set CURRENT_MESSAGE_NUMBER to point to the next
     5745    32794                   message to be selected. ...
     5746    32795        */
     5747    32796    3           CURRENT_MESSAGE_NUMBER =
     5748    32797    3             CURRENT_CONTEXT%.MESSAGE_SET.HIGH(CURRENT_CONTEXT%.SET_INDX);
PL6.E3A0      #001=VMO$MAIL File=VMO$MAIL.:VMB6TSI                               WED 08/20/97 15:19 Page:203
     5749    32798    3       END;                            /* Do while ... end */
     5750    32799        /*
     5751    32800             ***** Unable to find anything that matches ...
     5752    32801        */
     5753    32802    2   NO_HEADER:
     5754    32803    2       ALTRETURN;
     5755    32804        /**/
     5756    32805    2   E_EVAL:
     5757    32806    2       CALL XUR$ERRPTR (VM_SELECT.ERR_POS#);
     5758    32807    2       CALL XUR$ERRMSG (VM_SELECT.ERROR);
     5759    32808    2       ALTRETURN;
     5760    32809        /**/
     5761    32810    2   E_DEC:
     5762    32811                                                /* Add call with E_NONDECIMAL */
     5763    32812    2       ALTRETURN;
     5764    32813        /*
     5765    32814             ***** Change the current context to contain only
     5766    32815                   the current message. Only for next and previous ...
     5767    32816        */
     5768    32817    2   MAKE_NEW_CONTEXT:
     5769    32818    2       CURRENT_CONTEXT%.NUM_ENTRIES = 1;
     5770    32819    2       CURRENT_CONTEXT%.SET_INDX = 2;     /* Signal that all have been found */
     5771    32820    2       CURRENT_CONTEXT%.MESSAGE_SET.LOW(0) = CURRENT_MESSAGE_NUMBER;
     5772    32821    2       CURRENT_CONTEXT%.MESSAGE_SET.HIGH(0) = CURRENT_MESSAGE_NUMBER;
     5773    32822    2       CURRENT_CONTEXT%.FLAGS = %NO#;
     5774    32823    2   RETURN_MESSAGE:
     5775    32824    2       IF SELECT_CURRENT THEN SELECTED_CONTEXT%.MESSAGE_POINTER =
             32824                CURRENT_MESSAGE_NUMBER;
     5776    32825    2       VM_HEADRES.RES# = CURRENT_MESSAGE_NUMBER;
     5777    32826    2       CALL M$ENQ (ENQ_HEAD)
     5778    32827    3       WHENALTRETURN DO;
     5779    32828    3           IF B$TCB.ALT$->B$ALT.ERR.CODE = %E$TIMELIMIT
     5780    32829    4           THEN DO;
     5781    32830    4               CALL VMD$DI_HEADER(VM_HEADER,CURRENT_MESSAGE_NUMBER,M$ME_NUM);
     5782    32831    4               CALL XUR$ERRMSG (E_INPROG);
     5783    32832    4               ALTRETURN;
     5784    32833    4           END;
PL6.E3A0      #001=VMO$MAIL File=VMO$MAIL.:VMB6TSI                               WED 08/20/97 15:19 Page:204
     5785    32834    3       END;
     5786    32835    3       CALL M$DEQ (DEQ_HEAD) WHENALTRETURN DO;
     5787    32836    3       END;
     5788    32837    2       NUM_MESSAGES_PROCESSED = NUM_MESSAGES_PROCESSED + 1;;
     5789    32838    2       RETURN;
     5790    32839    2   END GET$MESSAGE;
     5791    32840        %EJECT;
PL6.E3A0      #001=VMO$MAIL File=VMO$MAIL.:VMB6TSI                               WED 08/20/97 15:19 Page:205
     5792    32841    1   ASSIGN_A_MESSAGE_ID: PROC ALTRET;
     5793    32842
     5794    32843        /*
     5795    32844             ***** Construct a unique-ID string for this message, and put it
     5796    32845                   in the header.  The strings take the form:
     5797    32846
     5798    32847                 <yymmdd.hhmmssss@CP6>
     5799    32848
     5800    32849                   This code is executed when MAIL first processes any message
     5801    32850                   that does not already have a unique ID;  such messages may include
     5802    32851                   MAILMAN-generated packets such as ERRs and DELIVs, as well as
     5803    32852                   messages that originate in pre-B00 mail environments.
     5804    32853        */
     5805    32854
     5806    32855        %XUM$MCB (NAME=HEADER_MCB, STCLASS=AUTO);
     5807    32859
     5808    32860    2       WORK_UTS = VM_HEADER.CREATION_DATE;
     5809    32861    2       CALL M$TIME (GET_ANSI_TIME);
     5810    32862    2       CALL CONCAT (ID, '<', ANSI_DATE, '.', ANSI_TIME, '@CP6>');
     5811    32863    2       CALL INDEX (COUNT, ' ', ID);
     5812    32864    2       HEADER_MCB.SIZE = COUNT + 1;
     5813    32865    2       HEADER_MCB.TYPE = 0;
     5814    32866    2       HEADER_MCB.MIN_SIZE = 3;
     5815    32867    2       HEADER_MCB.SEGMENT_BASE$ = VM_HEADER$;
     5816    32868    2       HEADER_MCB.HI_SEGMENT$ = VM_HEADER.NEXT$;
     5817    32869    2       HEADER_MCB.FREE_HEAD$ = VM_HEADER.FREE$;
     5818    32870    2       HEADER_MCB.WKSZ = VM_HEADER.HEADER_SIZE;
     5819    32871    2       CALL X$ALLOCATE (HEADER_MCB) ALTRET (E_ALLOCATE);
     5820    32872    2       VM_HEADER.NEXT$ = PINCRW(HEADER_MCB.HI_SEGMENT$,1);
     5821    32873    2       VM_HEADER.UNIQUE_ID$ = HEADER_MCB.ADDRESS$;
     5822    32874    2       VM_HEADER.UNIQUE_ID$ -> X$STRING.SIZ = COUNT;
     5823    32875    2       VM_HEADER.UNIQUE_ID$ -> X$STRING.TEXT = ID;
     5824    32876
     5825    32877    2       RETURN;
     5826    32878
     5827    32879    2   E_ALLOCATE:
     5828    32880    2       ALTRETURN;
PL6.E3A0      #001=VMO$MAIL File=VMO$MAIL.:VMB6TSI                               WED 08/20/97 15:19 Page:206
     5829    32881
     5830    32882    2   END ASSIGN_A_MESSAGE_ID;
     5831    32883        %EJECT;
PL6.E3A0      #001=VMO$MAIL File=VMO$MAIL.:VMB6TSI                               WED 08/20/97 15:19 Page:207
     5832    32884        /*****************************************************************/
     5833    32885        /*F*      NAME: PUT_PROFILE
     5834    32886                  PURPOSE: Write the profile record to a folder
     5835    32887                  DESCRIPTION: Merges the new profile info from mail with
     5836    32888                               the new message counts from mailman.  Test
     5837    32889                               for new messages and notifies user if found.
     5838    32890
     5839    32891        */
     5840    32892        /*****************************************************************/
     5841    32893    1   PUT_PROFILE: PROC(DCB#) ALTRET;
     5842    32894    2   DCL DCB# UBIN;
     5843    32895    2   DCL CHECK BIT(1);
     5844    32896        %FPT_READ (FPTN=READ_PROFILE,KEY=VM_PROKEY,KEYS=YES,STCLASS=STATIC);
     5845    32935        %VM_PROFILE (NAME=VM_PROSTUB,STCLASS=AUTO); /* Big enuff for fixed fields */
     5846    33022        %VM_PROKEY (STCLASS=CONSTANT);
     5847    33037    2       CHECK = '0'B;
     5848    33038    2       if VM_CURRENT_FOLDER.FLAGS.OPEN = '0'B then return;
     5849    33039    2       GOTO COMMON;
     5850    33040        /*F*      NAME: CHECK_NEW
     5851    33041                  PURPOSE: checks to see if new mail has been stuffed.
     5852    33042                  DESCRIPTION: reads the fixed portion of the profile record
     5853    33043                               and tests the new message counts from mailman.
     5854    33044
     5855    33045        */
     5856    33046    2   CHECK_NEW: ENTRY(DCB#) ALTRET;
     5857    33047    2       CHECK='1'B;
     5858    33048    2   COMMON:
     5859    33049    2       READ_PROFILE.V.DCB# = DCB#;
     5860    33050    2       READ_PROFILE.BUF_ = VECTOR(VM_PROSTUB);
     5861    33051    3       IF ~ CHECK THEN DO;
     5862    33052    3           ENQ_PROFILE.V.DCB# = DCB#;
     5863    33053    3           CALL M$ENQ (ENQ_PROFILE) ALTRET(ALT);
     5864    33054    3       END;
     5865    33055    2       CALL M$READ (READ_PROFILE)        /* Get fixed fields */
     5866    33056    3       WHENALTRETURN DO;
     5867    33057    3           IF B$TCB.ALT$->B$ALT.ERR.CODE ~= %E$LD THEN GOTO ALT1;
     5868    33058    3       END;
PL6.E3A0      #001=VMO$MAIL File=VMO$MAIL.:VMB6TSI                               WED 08/20/97 15:19 Page:208
     5869    33059    2       IF VM_PROFILE.HI_MESSAGE_NUMBER < VM_PROSTUB.HI_MESSAGE_NUMBER
     5870    33060    2       THEN
     5871    33061    2           NEW_FLAG = %YES#;
     5872    33062    2       ELSE
     5873    33063    2           NEW_FLAG = %NO#;
     5874    33064    2       VM_PROFILE.NUM_MESSAGES = VM_PROSTUB.NUM_MESSAGES;
     5875    33065    2       VM_PROFILE.NUM_NEW_MESSAGES = VM_PROSTUB.NUM_NEW_MESSAGES;
     5876    33066    2       IF MADE_OLD
     5877    33067    3       THEN DO;
     5878    33068    3           VM_PROFILE.NUM_NEW_MESSAGES = VM_PROFILE.NUM_NEW_MESSAGES - 1;
     5879    33069    3           MADE_OLD = %NO#;
     5880    33070    3       END;
     5881    33071    2       VM_PROFILE.HI_MESSAGE_NUMBER = VM_PROSTUB.HI_MESSAGE_NUMBER;
     5882    33072    3       IF ~ CHECK THEN DO;
     5883    33073    3           CALL VMD$PUT_PROFILE(DCB#) ALTRET(ALT1);
     5884    33074    3           DEQ_PROFILE.V.DCB# = DCB#;
     5885    33075    4           CALL M$DEQ (DEQ_PROFILE) WHENALTRETURN DO;
     5886    33076    4           END;
     5887    33077    3       END;
     5888    33078    2       RETURN;
     5889    33079    2   ALT1:
     5890    33080    2       DEQ_PROFILE.V.DCB# = DCB#;
     5891    33081    3       CALL M$DEQ (DEQ_PROFILE) WHENALTRETURN DO;
     5892    33082    3       END;
     5893    33083    2   ALT: ALTRETURN;
     5894    33084    2   END PUT_PROFILE;
     5895    33085        %EJECT;
PL6.E3A0      #001=VMO$MAIL File=VMO$MAIL.:VMB6TSI                               WED 08/20/97 15:19 Page:209
     5896    33086        /********************************************************************/
     5897    33087        /*I* NAME: UPDATE$MAIL
     5898    33088             DESCRIPTION: Deletes all messages that have been marked as
     5899    33089                          DELETEd. It will RENUMBER the messages as necessary.
     5900    33090                          It will also reclaim unused granules as required.
     5901    33091        *********************************************************************/
     5902    33092    1   UPDATE$MAIL: PROC (RENUMBER#,HEADER_FIELD#);
     5903    33093        /*
     5904    33094             ***** EQUs for RENUMBER options ...
     5905    33095
     5906    33096        %EQU REN_OPT_DATE = 1;
     5907    33097        %EQU REN_OPT_FROM = 2;
     5908    33098        %EQU REN_OPT_REF  = 3;
     5909    33099        %EQU REN_OPT_SUBJ = 4;
     5910    33100        %EQU REN_OPT_TO   = 5;  */
     5911    33101    2   DCL INDX UBIN WORD STATIC;
     5912    33102    2   DCL NEXT_NUM UBIN WORD STATIC;
     5913    33103    2   DCL RECS_DELETED UBIN WORD STATIC;
     5914    33104    2   DCL RENUMBER# BIT(1);
     5915    33105    2   DCL HEADER_FIELD# UBIN HALF HALIGNED;
     5916    33106        %FPT_OPEN (FPTN=RENUM_OPEN,
     5917    33107                  ASN=FILE,
     5918    33108                  ORG=KEYED,
     5919    33109                  SHARE=NONE,
     5920    33110                  FUN=UPDATE,
     5921    33111                  STCLASS=STATIC);
     5922    33220        %FPT_READ (FPTN=READ_OLD, STCLASS=STATIC,
     5923    33221                  DCB=M$MAIL_FILE,
     5924    33222                  KEY=VLP_KEY,
     5925    33223                  KEYS=NO,
     5926    33224                  KEYR=YES);
     5927    33263        %FPT_WRITE (FPTN=WRITE_NEW, STCLASS=STATIC,
     5928    33264                  DCB=M$WORK,
     5929    33265                  KEY=VLP_KEY);
     5930    33296    2   DCL 1 VLP_KEY STATIC,
     5931    33297    2         2 COUNT UBIN(9) CALIGNED,
     5932    33298    2         2 TYPE UBIN(9) CALIGNED,
PL6.E3A0      #001=VMO$MAIL File=VMO$MAIL.:VMB6TSI                               WED 08/20/97 15:19 Page:210
     5933    33299    2         2 NUM UBIN WORD CALIGNED,
     5934    33300    2         2 * CHAR(249);
     5935    33301    2   DCL FPARAM_AREA CHAR(1024) AUTO DALIGNED;
     5936    33302        %VLP_NAME (FPTN=FID_NAME);
     5937    33329
     5938    33330    2       IF VM_CURRENT_FOLDER.FLAGS.UPDATE = %NO#
     5939    33331    2       THEN
     5940    33332    2           RETURN;
     5941    33333    2       CALL XUR$DISABLE;
     5942    33334    2       CALL PUT_PROFILE (M$MAIL_FILE_NUM);
     5943    33335    2       CALL M$ENQ(ENQ_PROFILE);
     5944    33336    2       RECS_DELETED=0;
     5945    33337    2       IF VM_PROFILE.HIGH_RECS < VM_CURRENT_FOLDER.NRECS THEN VM_PROFILE.HIGH_RECS =
             33337                VM_CURRENT_FOLDER.NRECS;
     5946    33338        /*N* Currently, all of this happens while enqueued. In the future, try
     5947    33339         to make in smarter */
     5948    33340        /*
     5949    33341             ***** If there are any messages that were new and
     5950    33342                   were marked old, or any messages were deleted,
     5951    33343                   then fix them up now ...
     5952    33344        */
     5953    33345    2       IF VM_PROFILE.NUM_DEL_MESSAGES = 0
     5954    33346    2         AND VM_PROFILE.NUM_MOLD_MESSAGES = 0
     5955    33347    2       THEN                            /* No messages to delete */
     5956    33348    2           GOTO NO_MORE;
     5957    33349        /*
     5958    33350             ***** Delete the messages marked for deletion ...
     5959    33351        */
     5960    33352    2       INDX = 0;                         /* Position before first message */
     5961    33353    2       VM_PROFILE.NUM_MESSAGES = 0;
     5962    33354    2       VM_PROFILE.NUM_NEW_MESSAGES = 0;
     5963    33355    3       DO FOREVER;
     5964    33356    3           CALL VMD$GET_HEADER_NEXT (INDX,M$MAIL_FILE_NUM) ALTRET(NO_MORE);
     5965    33357    3           VM_PROFILE.NUM_MESSAGES = VM_PROFILE.NUM_MESSAGES + 1;
     5966    33358    3           IF VM_HEADER.STATUS.DEL
     5967    33359    3           THEN
     5968    33360    4           DO;
PL6.E3A0      #001=VMO$MAIL File=VMO$MAIL.:VMB6TSI                               WED 08/20/97 15:19 Page:211
     5969    33361    4               CALL VMM$DELETE_MESSAGE (INDX,
     5970    33362    4                 M$MAIL_FILE_NUM) ALTRET(E_DELETE);
     5971    33363    4               VM_PROFILE.NUM_MESSAGES = VM_PROFILE.NUM_MESSAGES - 1;
     5972    33364    4               RECS_DELETED = RECS_DELETED + VM_HEADER.NUM_RECORDS;
     5973    33365    5               DO NEVER;
     5974    33366    5   E_DELETE:
     5975    33367                                                /* Bitch!!! */
     5976    33368    5               END;
     5977    33369    4           END;
     5978    33370    3           ELSE IF VM_HEADER.STATUS.MAKE_OLD
     5979    33371    3               THEN
     5980    33372    4               DO;
     5981    33373    4                   VM_HEADER.STATUS.OLD = %YES#;
     5982    33374    4                   VM_HEADER.STATUS.MAKE_OLD = %NO#;
     5983    33375    4                   CALL VMD$PUT_HEADER (INDX,
     5984    33376    4                     M$MAIL_FILE_NUM) ALTRET(E_PMME);
     5985    33377    4               END;
     5986    33378    3               ELSE IF NOT VM_HEADER.STATUS.OLD
     5987    33379    3                   THEN
     5988    33380    3                       VM_PROFILE.NUM_NEW_MESSAGES = VM_PROFILE.NUM_NEW_MESSAGES + 1;
     5989    33381    3           INDX = INDX + 1;
     5990    33382    3       END;                            /* Do forever ... end */
     5991    33383    2   NO_MORE:
     5992    33384    2       VM_PROFILE.NUM_DEL_MESSAGES = 0;
     5993    33385    2       VM_PROFILE.NUM_LOST = 0;
     5994    33386    2       VM_PROFILE.NUM_MOLD_MESSAGES = 0;
     5995    33387    2       VM_PROFILE.RECS_DELETED = VM_PROFILE.RECS_DELETED+RECS_DELETED;
     5996    33388        /*
     5997    33389             ***** Renumber ???
     5998    33390             ***** Don't renumber if there is nothing to delete or deletion is
     5999    33391             ***** for last message.
     6000    33392        */
     6001    33393    2       IF RENUMBER#
     6002    33394    2       THEN
     6003    33395    3       DO;
     6004    33396        /* We can't renumber the file if mailman is stuffing a message.
     6005    33397           The best way to tell if he is is by enqing the header of the high
PL6.E3A0      #001=VMO$MAIL File=VMO$MAIL.:VMB6TSI                               WED 08/20/97 15:19 Page:212
     6006    33398           message.  If we got it, he isn't.  He won't start one because we've
     6007    33399           already got the profile enqueued.
     6008    33400        */
     6009    33401    3           VM_HEADRES.RES# = VM_PROFILE.HI_MESSAGE_NUMBER;
     6010    33402    3           CALL M$ENQ (ENQ_HEAD)
     6011    33403    4           WHENALTRETURN DO;
     6012    33404    4               CALL XUR$ERRMSG (E_CANTREN);
     6013    33405    4               GOTO END_UPDATE;
     6014    33406    4           END;
     6015    33407    3           IF VM_PROFILE.NUM_MESSAGES = 0
     6016    33408    3           THEN
     6017    33409    4           DO;
     6018    33410    4               VM_PROFILE.HI_MESSAGE_NUMBER = 0;
     6019    33411    4               GOTO RELEASE_GRANULES;
     6020    33412    4           END;
     6021    33413    3           IF ADDR(HEADER_FIELD#) = ADDR(NIL) THEN
     6022    33414    4           DO;                   /* Plain vanilla renumber  */
     6023    33415    4               IF VM_PROFILE.LOW_DEL_NUM <= 9 * VM_PROFILE.HI_MESSAGE_NUMBER/10
     6024    33416    4                 OR (VM_PROFILE.HIGH_RECS < VM_PROFILE.RECS_DELETED * 10)
     6025    33417    5               THEN DO;
     6026    33418                                 /* If the first deleted message is less then 75% of
     6027    33419                                    the way thru the file, or more than 90% of the
     6028    33420                                    the data records deleted, then a complete copy will
     6029    33421                                    be faster.  Actually, what we'd like to know is
     6030    33422                                    the record position and not the message number,
     6031    33423                               but so it goes.  Also, if the copy will be done anyway
     6032    33424                               then just do the copy and don't juggle messages.
     6033    33425
     6034    33426                               */
     6035    33427    5                   CALL COPY_FOLDER;
     6036    33428    5               END;
     6037    33429    5               ELSE DO;
     6038    33430                            /* This method is very slow.  It will be the best method
     6039    33431                               for large folders where only the last message received
     6040    33432                               is deleted. */
     6041    33433    5                   NEXT_NUM = 0;
     6042    33434    5                   INDX = 0;
PL6.E3A0      #001=VMO$MAIL File=VMO$MAIL.:VMB6TSI                               WED 08/20/97 15:19 Page:213
     6043    33435    6                   DO WHILE (INDX <= VM_PROFILE.HI_MESSAGE_NUMBER);
     6044    33436    6                       CALL VMD$GET_HEADER_NEXT (INDX,M$MAIL_FILE_NUM) ALTRET(
             33436                                END_RENUMBER);
     6045    33437    6                       NEXT_NUM = NEXT_NUM + 1; /* Next avail. msg. number */
     6046    33438    6                       IF INDX ~= NEXT_NUM
     6047    33439    6                       THEN
     6048    33440    7                       DO;
     6049    33441    7                           CALL VMM$COPY_MESSAGE (INDX,NEXT_NUM,
     6050    33442    7                             M$MAIL_FILE_NUM,M$MAIL_FILE_NUM) ALTRET(E_PMME);
     6051    33443    7                           CALL VMM$DELETE_MESSAGE (INDX,M$MAIL_FILE_NUM) ALTRET(E_PMME
             33443                                    );
     6052    33444    7                       END;
     6053    33445    6                       ELSE /* Incriment ptr to next message */
     6054    33446    6                           INDX = INDX + 1;
     6055    33447    6                   END;    /* Do while ... end */
     6056    33448    5               END;          /* Else do */
     6057    33449    4           END;                  /* Plain vanilla */
     6058    33450    3           ELSE
     6059    33451    3               CALL SORT_FOLDER;  /* renumber by something else */
     6060    33452    3   END_RENUMBER: ;                        /* Do something????? */
     6061    33453    3           VM_PROFILE.HI_MESSAGE_NUMBER = NEXT_NUM;
     6062    33454    3           VM_PROFILE.NUM_MESSAGES = NEXT_NUM;
     6063    33455    3           VM_PROFILE.LOW_DEL_NUM = %MAX_MSGNO;
     6064    33456    3       END;                       /* If renum */
     6065    33457    3       ELSE DO;
     6066    33458        /*   ***** Catch users who deleted but hit ctl-y, or old folders that
     6067    33459             ***** got built before this code was added. Execute if more than 20%
     6068    33460             ***** of data records were deleted and folder exceeded 3 granules.
     6069    33461        */
     6070    33462    3   RELEASE_GRANULES:
     6071    33463    3           IF ((VM_PROFILE.HIGH_RECS <
     6072    33464    3             VM_PROFILE.RECS_DELETED * 5) OR VM_PROFILE.LOW_DEL_NUM=0)
     6073    33465    3             AND VM_CURRENT_FOLDER.UGRANS > 3
     6074    33466    3           THEN
     6075    33467    4           DO;
     6076    33468    4               CALL COPY_FOLDER;
     6077    33469    4               VM_PROFILE.LOW_DEL_NUM = %MAX_MSGNO;
PL6.E3A0      #001=VMO$MAIL File=VMO$MAIL.:VMB6TSI                               WED 08/20/97 15:19 Page:214
     6078    33470    4           END;
     6079    33471    3       END;
     6080    33472    2   END_UPDATE:
     6081    33473    2       CALL VMD$PUT_PROFILE(M$MAIL_FILE_NUM)
     6082    33474    3       WHENALTRETURN DO;          /* At least we'll know an error occurred */
     6083    33475    3           ERROR = B$TCB.ALT$ -> B$ALT.ERR;
     6084    33476    3           DCB# = B$TCB.ALT$ -> B$ALT.DCB#;
     6085    33477    3           CALL XUR$ERRMSG (ERROR,DCB#);
     6086    33478    3       END;
     6087    33479    3       CALL M$DEQ(DEQ_PROFILE) WHENALTRETURN DO;
     6088    33480    3       END;
     6089    33481    3       CALL M$DEQ(DEQ_HEAD) WHENALTRETURN DO;
     6090    33482    3       END;
     6091    33483    2       CALL XUR$ENABLE;
     6092    33484    2       RETURN;
     6093    33485        /**/
     6094    33486    2   E_PMME:
     6095    33487    3       CALL M$DEQ(DEQ_PROFILE) WHENALTRETURN DO;
     6096    33488    3       END;
     6097    33489    2       CALL XUR$ENABLE;
     6098    33490    2       ERROR = B$TCB.ALT$ -> B$ALT.ERR;
     6099    33491    2       DCB# = B$TCB.ALT$ -> B$ALT.DCB#;
     6100    33492    2       CALL XUR$ERRMSG (ERROR,DCB#);
     6101    33493    2       RETURN;
     6102    33494        %EJECT;
PL6.E3A0      #001=VMO$MAIL File=VMO$MAIL.:VMB6TSI                               WED 08/20/97 15:19 Page:215
     6103    33495    2   COPY_FOLDER: PROC;
     6104    33496        /*I*   NAME: COPY_FOLDER
     6105    33497               DESCRIPTION:
     6106    33498                       The following code goes thru the file, storing the
     6107    33499                       old message into an array indexed by the new message
     6108    33500                       number.  Once all the headers have been processed, the
     6109    33501                       other records are access. This time, the new message
     6110    33502                       number is determined by comparing the old message
     6111    33503                       message number with the contents of the array.  The records
     6112    33504                       are read into the HEADER_ area, the WORK_ area is used
     6113    33505                       for the array.
     6114    33506                       */
     6115    33507    3   DCL OLD_TYPE UBIN;
     6116    33508    3   DCL CUR_NUM UBIN;
     6117    33509    3   DCL HINDX UBIN;
     6118    33510    3   DCL WRITEIT BIT(1);
     6119    33511    3   DCL HOLE$ PTR STATIC;
     6120    33512    3   DCL MAIL_FILE$ PTR;
     6121    33513    3   DCL HMAX UBIN STATIC;
     6122    33514    3   DCL NEW_NUM UBIN STATIC;
     6123    33515    3   DCL                                        HOLE(0:1024) UBIN BASED(HOLE$);
     6124    33516    3       HOLE$ = VBASE(VM_WORK_);
     6125    33517    3       CALL XUR$ERRMSG (E_COMPACT,,M$ME_NUM);
     6126    33518    3       HMAX=VBOUND(VM_WORK_)/4;
     6127    33519    3       MAIL_FILE$ = DCBADDR(M$MAIL_FILE_NUM);
     6128    33520                                 /* Close the current folder, reopen it share=none */
     6129    33521    3       CLOSE_SAVE.V.DCB# = M$MAIL_FILE_NUM;
     6130    33522    3       VM_CURRENT_FOLDER.FLAGS.OPEN = '0'B;
     6131    33523    3       CALL M$CLOSE (CLOSE_SAVE);
     6132    33524    3       RENUM_OPEN.NAME_ = VECTOR(FID_NAME);
     6133    33525    3       CALL CONCAT(FID_NAME.NAME#,':MAIL_',VM_CURRENT_FOLDER.FOLDER);
     6134    33526    3       CALL INDEX (INDX,' ',FID_NAME.NAME#);
     6135    33527    3       FID_NAME.L# = INDX;
     6136    33528    3       RENUM_OPEN.ACCT_ = VECTOR(VM_CURRENT_FOLDER.ACCT);
     6137    33529    3       RENUM_OPEN.PASS_ = VECTOR(VM_CURRENT_FOLDER.PASS);
     6138    33530    3       RENUM_OPEN.V.ACS#=%DIRECT#;
     6139    33531    3       RENUM_OPEN.FPARAM_ = VECTOR(FPARAM_AREA);
PL6.E3A0      #001=VMO$MAIL File=VMO$MAIL.:VMB6TSI                               WED 08/20/97 15:19 Page:216
     6140    33532    3       RENUM_OPEN.V.DCB# = M$MAIL_FILE_NUM;
     6141    33533    3       RENUM_OPEN.V.FUN# = %IN#;
     6142    33534    3       RENUM_OPEN.IFPARAM_ = VECTOR(NIL);
     6143    33535    3       CALL M$OPEN (RENUM_OPEN) ALTRET(E_PMME2);
     6144    33536    3       RENUM_OPEN.V.DCB# = M$WORK_NUM;
     6145    33537    3       RENUM_OPEN.FPARAM_ = VECTOR(NIL);
     6146    33538    3       RENUM_OPEN.IFPARAM_ = VECTOR(FPARAM_AREA);
     6147    33539    3       RENUM_OPEN.V.FUN#=%CREATE#;
     6148    33540    3       RENUM_OPEN.V.EXIST# = %NEWFILE#;
     6149    33541    3       RENUM_OPEN.V.ORG# = %KEYED#;
     6150    33542    3       CALL M$OPEN (RENUM_OPEN) ALTRET(E_PMME);
     6151    33543    3       READ_OLD.BUF_ = VM_HEADER_;
     6152    33544    3       OLD_TYPE=0;
     6153    33545    3       IF RENUMBER# THEN NEXT_NUM = 0;
     6154    33546    3       ELSE NEXT_NUM = VM_PROFILE.HI_MESSAGE_NUMBER;
     6155    33547    4   READ_LOOP: DO WHILE('1'B);
     6156    33548    5   READ_AGAIN: CALL M$READ (READ_OLD) WHENALTRETURN DO;
     6157    33549    5               IF B$TCB.ALT$->B$ALT.ERR.CODE = %E$EOF THEN EXIT READ_LOOP;
     6158    33550    5               ELSE IF B$TCB.ALT$->B$ALT.ERR.CODE = %E$LD
     6159    33551    6                   THEN DO;
     6160    33552    6                       CALL VMA$ENLARGE_SEGMENT (VM_HEADER_, 1024) ALTRET(E_PMME);
     6161    33553    6                       READ_OLD.BUF_ = VM_HEADER_;
     6162    33554    6                       CALL M$PRECORD (FPT_PRECORD) ALTRET(E_PMME); /* Can't
     6163    33555                                                use cont, folder may be compressed */
     6164    33556    6                       GOTO READ_AGAIN;
     6165    33557    6                   END;
     6166    33558    5                   ELSE GOTO E_PMME;
     6167    33559    5           END;
     6168    33560    4           IF VLP_KEY.TYPE ~= OLD_TYPE
     6169    33561    5           THEN DO;
     6170    33562    5               OLD_TYPE = VLP_KEY.TYPE;
     6171    33563    5               CUR_NUM = 1;
     6172    33564    5               HINDX = 0;
     6173    33565    5           END;
     6174    33566    4           WRITEIT = '1'B;
     6175    33567    4           IF RENUMBER#
     6176    33568    5           THEN DO;
PL6.E3A0      #001=VMO$MAIL File=VMO$MAIL.:VMB6TSI                               WED 08/20/97 15:19 Page:217
     6177    33569    6               DO CASE(VLP_KEY.TYPE);
     6178    33570    6               CASE(%VM_TYPE_PRO,%VM_TYPE_LIST,%VM_TYPE_USER);
     6179    33571                                                /* Write it by default */
     6180    33572    6               CASE(%VM_TYPE_HEAD);
     6181    33573    6                   NEXT_NUM = NEXT_NUM+1;
     6182    33574    6                   HOLE(CUR_NUM) = VLP_KEY.NUM;
     6183    33575    6                   VLP_KEY.NUM = CUR_NUM;
     6184    33576    6                   CUR_NUM = CUR_NUM+1;
     6185    33577    7                   IF CUR_NUM > HMAX THEN DO;
     6186    33578    7                       CALL VMA$ENLARGE_SEGMENT (VM_WORK_, 1024) ALTRET(E_PMME);
     6187    33579    7                       HMAX = VBOUND(VM_WORK_)/4;
     6188    33580    7                   END;
     6189    33581                                                /* Write it by default */
     6190    33582    6               CASE(%VM_TYPE_ID);
     6191    33583    6                   WRITEIT = '0'B;
     6192    33584    6                   NEW_NUM = 0;
     6193    33585    7                   DO WHILE (NEW_NUM < NEXT_NUM AND NOT WRITEIT);
     6194    33586    7                       NEW_NUM = NEW_NUM + 1;
     6195    33587    7                       IF VM_ID.MESSAGE_NUMBER = HOLE(NEW_NUM)
     6196    33588    8                       THEN DO;
     6197    33589    8                           VM_ID.MESSAGE_NUMBER = NEW_NUM;
     6198    33590    8                           WRITEIT = '1'B;
     6199    33591    8                       END;
     6200    33592    7                   END;
     6201    33593    6               CASE(ELSE);
     6202    33594    6                   IF CUR_NUM > NEXT_NUM THEN WRITEIT='0'B;
     6203    33595    6                   ELSE IF VLP_KEY.NUM = HOLE(CUR_NUM)
     6204    33596    6                       THEN VLP_KEY.NUM = CUR_NUM;
     6205    33597    6                       ELSE IF VLP_KEY.NUM < HOLE(CUR_NUM)
     6206    33598    6                           THEN WRITEIT='0'B;
     6207    33599    6                           ELSE
     6208    33600    7   SR_LOOP:                DO WHILE (VLP_KEY.NUM > HOLE(CUR_NUM));
     6209    33601    7                               CUR_NUM = CUR_NUM+1;
     6210    33602    7                               IF CUR_NUM > NEXT_NUM
     6211    33603    8                               THEN DO;
     6212    33604    8                                   WRITEIT='0'B;
     6213    33605    8                                   EXIT SR_LOOP;
PL6.E3A0      #001=VMO$MAIL File=VMO$MAIL.:VMB6TSI                               WED 08/20/97 15:19 Page:218
     6214    33606    8                               END;
     6215    33607    7                               ELSE IF VLP_KEY.NUM = HOLE(CUR_NUM)
     6216    33608    7                                   THEN VLP_KEY.NUM = CUR_NUM;
     6217    33609    7                                   ELSE IF VLP_KEY.NUM < HOLE(CUR_NUM)
     6218    33610    7                                       THEN WRITEIT='0'B;
     6219    33611    7                           END; /* Do while */
     6220    33612    6               END;             /* Do case */
     6221    33613    5           END;                  /* If renum */
     6222    33614    5           IF WRITEIT THEN DO;
     6223    33615    5               WRITE_NEW.BUF_ = VM_HEADER_;
     6224    33616    5               IF MAIL_FILE$->F$DCB.ARS# = 0 THEN WRITE_NEW.BUF_ = VECTOR(NIL);
     6225    33617    5               ELSE WRITE_NEW.BUF_.BOUND = MAIL_FILE$->F$DCB.ARS#-1;
     6226    33618    5               WRITE_NEW.V.DVBYTE=MAIL_FILE$->F$DCB.DVBYTE;
     6227    33619    5               CALL M$WRITE(WRITE_NEW) ALTRET(E_PMME);
     6228    33620    5           END;
     6229    33621    4       END;                            /* Read loop */
     6230    33622    3       VM_PROFILE.RECS_DELETED=0;
     6231    33623    3       VM_PROFILE.HIGH_RECS = NEXT_NUM;
     6232    33624    3       CALL VMD$PUT_PROFILE(M$WORK_NUM) ALTRET(E_PMME);
     6233    33625    3       CLOSE_SAVE.V.DCB#=M$MAIL_FILE_NUM;
     6234    33626    3       CALL M$CLOSE (CLOSE_SAVE) ALTRET(E_PMME);
     6235    33627    3       CLOSE_SAVE.V.DCB#=M$WORK_NUM;
     6236    33628    3       CLOSE_SAVE.V.OPER.RELG# = '1'B;
     6237    33629    3       CALL M$CLOSE (CLOSE_SAVE) ALTRET(E_PMME);
     6238    33630    3       CLOSE_SAVE.V.OPER.RELG# = '0'B;
     6239    33631    3   CLEANUP:
     6240    33632    3       CALL VMB$USE_SAME (,,VM_CURRENT_FOLDER,M$MAIL_FILE_NUM);
     6241    33633    3       RETURN;
     6242    33634    3   E_PMME:
     6243    33635    3       ERROR = B$TCB.ALT$ -> B$ALT.ERR;
     6244    33636    3       DCB# = B$TCB.ALT$->B$ALT.DCB#;
     6245    33637    3       CALL XUR$ERRMSG (E_RENFAILED);
     6246    33638    3       CALL XUR$ERRMSG (ERROR,DCB#);
     6247    33639    3       CLOSE_SCRATCH.V.DCB# = M$WORK_NUM;
     6248    33640    4       CALL M$CLOSE (CLOSE_SCRATCH) WHENALTRETURN DO;
     6249    33641    4       END;
     6250    33642    3       NEXT_NUM = VM_PROFILE.HI_MESSAGE_NUMBER;
PL6.E3A0      #001=VMO$MAIL File=VMO$MAIL.:VMB6TSI                               WED 08/20/97 15:19 Page:219
     6251    33643    3       GOTO CLEANUP;
     6252    33644    3   E_PMME2:
     6253    33645    3       IF B$TCB.ALT$->B$ALT.ERR.CODE = %E$FILEBUSY
     6254    33646    4       THEN DO;
     6255    33647    4           CALL XUR$ERRMSG(E_CANTCOMPACT);
     6256    33648    4           NEXT_NUM = VM_PROFILE.HI_MESSAGE_NUMBER;
     6257    33649    4           GOTO CLEANUP;
     6258    33650    4       END;
     6259    33651    3       ELSE GOTO E_PMME;
     6260    33652    3   END COPY_FOLDER;
     6261    33653        %EJECT;
PL6.E3A0      #001=VMO$MAIL File=VMO$MAIL.:VMB6TSI                               WED 08/20/97 15:19 Page:220
     6262    33654    2   SORT_FOLDER: PROC;
     6263    33655        /*I*   NAME: SORT_FOLDER
     6264    33656               DESCRIPTION:
     6265    33657                       Alot of this module has been borrowed from the COPY_
     6266    33658                       FOLDER module, with the sort routine being new. The
     6267    33659                       message number is kept in HOLE.MSG_NUM. When sorting by
     6268    33660                       date, the date is kept in HOLE.SORT#. When sorting by a
     6269    33661                       character field, SORT# is an offset from the beginning
     6270    33662                       of STASH where the textc fields of interest are kept.
     6271    33663                       VM_WORK_ and VM_HEADER_ are used the same as in  COPY_
     6272    33664                       FOLDER. Some housekeeping is done in the char sort for
     6273    33665                       HOLE and STASH since they both live in WORK_.      */
     6274    33666        %FPT_PRECORD (FPTN = BOF, BOF = YES);
     6275    33687    3   DCL OLD_TYPE UBIN;
     6276    33688    3   DCL CUR_NUM UBIN;
     6277    33689    3   DCL HINDX UBIN WORD ALIGNED;
     6278    33690    3   DCL WRITEIT BIT(1);
     6279    33691    3   DCL HOLE$ PTR STATIC;
     6280    33692    3   DCL MAIL_FILE$ PTR;
     6281    33693    3   DCL HMAX UBIN STATIC;
     6282    33694    3   DCL NEW_NUM UBIN STATIC;
     6283    33695    3   DCL SIZE UBIN WORD;
     6284    33696    3   DCL TEMPLATE CHAR(SIZE) BASED;
     6285    33697    3   DCL 1 B$TEXTC BASED,
     6286    33698    3         2 L UBIN (9) UNAL,
     6287    33699    3         2 C CHAR(B$TEXTC.L);
     6288    33700    3   DCL STASH_LEN UBIN WORD;
     6289    33701    3   DCL STASH CHAR(STASH_LEN) BASED;
     6290    33702    3   DCL STASH$ PTR;
     6291    33703    3   DCL TEMP$  PTR;
     6292    33704    3   DCL NEXT$ PTR;
     6293    33705    3   DCL HIGH SBIN WORD STATIC INIT(0);
     6294    33706    3   DCL LOW  SBIN WORD STATIC INIT(0);
     6295    33707    3   DCL LAST SBIN WORD STATIC INIT(-1);
     6296    33708    3   DCL MID  SBIN WORD STATIC INIT(0);
     6297    33709    3   DCL I UBIN WORD;
     6298    33710    3   DCL FLDPTR$ PTR;
PL6.E3A0      #001=VMO$MAIL File=VMO$MAIL.:VMB6TSI                               WED 08/20/97 15:19 Page:221
     6299    33711    3   DCL VMX$MRL ENTRY(3);
     6300    33712    3   DCL 1 HOLE(0:1024) BASED(HOLE$) DALIGNED,
     6301    33713    3         2 MSG_NUM UBIN WORD ALIGNED,
     6302    33714    3         2 SORT# UBIN WORD ALIGNED;
     6303    33715    3       HOLE$ = VBASE(VM_WORK_);
     6304    33716    3       LAST = -1;
     6305    33717    3       CALL XUR$ERRMSG (E_COMPACT,,M$ME_NUM);
     6306    33718    3       HMAX=VBOUND(VM_WORK_)/4;
     6307    33719    4       IF HEADER_FIELD# > 1 THEN DO; /* If the sort field is char */
     6308    33720    4           CALL VMA$ENLARGE_SEGMENT (VM_WORK_, 1024) ALTRET(E_PMME);
     6309    33721    4           STASH$ = PINCRW(HOLE$, 1024);
     6310    33722    4           STASH$->B$TEXTC.L=0;
     6311    33723    4           STASH_LEN = 1;
     6312    33724    4       END;
     6313    33725    3       MAIL_FILE$ = DCBADDR(M$MAIL_FILE_NUM);
     6314    33726                                 /* Close the current folder, reopen it share=none */
     6315    33727    3       CLOSE_SAVE.V.DCB# = M$MAIL_FILE_NUM;
     6316    33728    3       VM_CURRENT_FOLDER.FLAGS.OPEN = '0'B;
     6317    33729    3       CALL M$CLOSE (CLOSE_SAVE);
     6318    33730    3       RENUM_OPEN.NAME_ = VECTOR(FID_NAME);
     6319    33731    3       CALL CONCAT(FID_NAME.NAME#,':MAIL_',VM_CURRENT_FOLDER.FOLDER);
     6320    33732    3       CALL INDEX (INDX,' ',FID_NAME.NAME#);
     6321    33733    3       FID_NAME.L# = INDX;
     6322    33734    3       RENUM_OPEN.ACCT_ = VECTOR(VM_CURRENT_FOLDER.ACCT);
     6323    33735    3       RENUM_OPEN.PASS_ = VECTOR(VM_CURRENT_FOLDER.PASS);
     6324    33736    3       RENUM_OPEN.V.ACS#=%DIRECT#;
     6325    33737    3       RENUM_OPEN.FPARAM_ = VECTOR(FPARAM_AREA);
     6326    33738    3       RENUM_OPEN.V.DCB# = M$MAIL_FILE_NUM;
     6327    33739    3       RENUM_OPEN.V.FUN# = %IN#;
     6328    33740    3       RENUM_OPEN.IFPARAM_ = VECTOR(NIL);
     6329    33741    3       CALL M$OPEN (RENUM_OPEN) ALTRET(E_PMME2);
     6330    33742    3       RENUM_OPEN.V.DCB# = M$WORK_NUM;
     6331    33743    3       RENUM_OPEN.FPARAM_ = VECTOR(NIL);
     6332    33744    3       RENUM_OPEN.IFPARAM_ = VECTOR(FPARAM_AREA);
     6333    33745    3       RENUM_OPEN.V.FUN#=%CREATE#;
     6334    33746    3       RENUM_OPEN.V.EXIST# = %NEWFILE#;
     6335    33747    3       RENUM_OPEN.V.ORG# = %KEYED#;
PL6.E3A0      #001=VMO$MAIL File=VMO$MAIL.:VMB6TSI                               WED 08/20/97 15:19 Page:222
     6336    33748    3       CALL M$OPEN (RENUM_OPEN) ALTRET(E_PMME);
     6337    33749    3       READ_OLD.BUF_ = VM_HEADER_;
     6338    33750    3       OLD_TYPE=0;
     6339    33751    3       IF RENUMBER# THEN NEXT_NUM = 0;
     6340    33752    3       ELSE NEXT_NUM = VM_PROFILE.HI_MESSAGE_NUMBER;
     6341    33753    4   SORT_LOOP: DO WHILE('1'B);
     6342    33754    5   READ_AGAIN_1: CALL M$READ (READ_OLD) WHENALTRETURN DO;
     6343    33755    5               IF B$TCB.ALT$->B$ALT.ERR.CODE = %E$EOF THEN EXIT SORT_LOOP;
     6344    33756    5               ELSE IF B$TCB.ALT$->B$ALT.ERR.CODE = %E$LD
     6345    33757    6                   THEN DO;
     6346    33758    6                       CALL VMA$ENLARGE_SEGMENT (VM_HEADER_, 1024) ALTRET(E_PMME);
     6347    33759    6                       READ_OLD.BUF_ = VM_HEADER_;
     6348    33760    6                       CALL M$PRECORD (FPT_PRECORD) ALTRET(E_PMME); /* Can't
     6349    33761                                                use cont, folder may be compressed */
     6350    33762    6                       GOTO READ_AGAIN_1;
     6351    33763    6                   END;
     6352    33764    5                   ELSE GOTO E_PMME;
     6353    33765    5           END;                         /* WHENALTRETURN */
     6354    33766    4           IF VLP_KEY.TYPE = %VM_TYPE_HEAD THEN
     6355    33767    5           DO;
     6356    33768    5               IF HEADER_FIELD# = %REN_OPT_DATE THEN
     6357    33769    6               DO;
     6358    33770    6                   IF (LAST+1)*2 >= HMAX THEN
     6359    33771    7                   DO;
     6360    33772    7                       CALL VMA$ENLARGE_SEGMENT (VM_WORK_, 1024) ALTRET (E_PMME);
     6361    33773    7                       HMAX = VBOUND(VM_WORK_)/4;
     6362    33774    7                   END;
     6363    33775
     6364    33776    6                   IF LAST < 0 THEN
     6365    33777    6                       GOTO PUT_AT_END_UBIN;
     6366    33778
     6367    33779    7                   IF LAST < 20 THEN DO;
     6368    33780
     6369    33781    8                       DO MID = 0 TO LAST;
     6370    33782    8                           IF HOLE.SORT#(MID) > VM_HEADER.CREATION_DATE
     6371    33783    8                           THEN GOTO FOUND_UBIN;
     6372    33784    8                       END;
PL6.E3A0      #001=VMO$MAIL File=VMO$MAIL.:VMB6TSI                               WED 08/20/97 15:19 Page:223
     6373    33785    7                       GOTO PUT_AT_END_UBIN;
     6374    33786    7                   END;
     6375    33787    7                   ELSE DO;
     6376    33788    7                       LOW = -1;
     6377    33789    7                       HIGH = LAST + 1;
     6378    33790    7   SPLIT_UBIN:         ;
     6379    33791    7                       MID = (LOW + HIGH)/2;
     6380    33792    7                       IF HOLE.SORT#(MID) < VM_HEADER.CREATION_DATE THEN
     6381    33793    7                           LOW = MID;
     6382    33794    7                       ELSE
     6383    33795    7                           IF HOLE.SORT#(MID) > VM_HEADER.CREATION_DATE THEN
     6384    33796    7                               HIGH = MID;
     6385    33797    7                           ELSE
     6386    33798    7                               GOTO FOUND_UBIN;
     6387    33799    7                       IF (LOW + 1) < HIGH THEN
     6388    33800    7                           GOTO SPLIT_UBIN;
     6389    33801    7                       IF HOLE.SORT#(MID) < VM_HEADER.CREATION_DATE THEN
     6390    33802    7                           MID = MID + 1;
     6391    33803    7                       IF MID > LAST THEN
     6392    33804    7                           GOTO PUT_AT_END_UBIN;
     6393    33805    7                   END;
     6394    33806    6   FOUND_UBIN:     ;
     6395    33807    6                   LAST = LAST + 1;
     6396    33808    6                   SIZE = (LAST - MID) * 8;
     6397    33809    6   MLR_UBIN:       ;
     6398    33810    6                   CALL VMX$MRL(ADDR(HOLE(MID))->TEMPLATE, ADDR(HOLE(MID+1))->TEMPLATE,
             33810                            SIZE);
     6399    33811    6                   HOLE.MSG_NUM(MID) = VLP_KEY.NUM;
     6400    33812    6                   HOLE.SORT#(MID) = VM_HEADER.CREATION_DATE;
     6401    33813
     6402    33814    7                   DO WHILE('0'B); /* Never! */
     6403    33815    7   PUT_AT_END_UBIN:    ;
     6404    33816    7                       LAST = LAST + 1;
     6405    33817    7                       HOLE.MSG_NUM(LAST) = VLP_KEY.NUM;
     6406    33818    7                       HOLE.SORT#(LAST) = VM_HEADER.CREATION_DATE;
     6407    33819    7                   END;
     6408    33820    6               END;                     /* IF DATE */
PL6.E3A0      #001=VMO$MAIL File=VMO$MAIL.:VMB6TSI                               WED 08/20/97 15:19 Page:224
     6409    33821    6               ELSE DO;                 /* IF CHAR FIELD */
     6410    33822
     6411    33823    7                   DO SELECT (HEADER_FIELD#);
     6412    33824    7                       SELECT (%REN_OPT_FROM);
     6413    33825    7                       FLDPTR$ = VM_HEADER.FROM$;
     6414    33826    7                       SELECT (%REN_OPT_REF);
     6415    33827    7                       FLDPTR$ = VM_HEADER.REFERENCE$;
     6416    33828    7                       SELECT (%REN_OPT_SUBJ);
     6417    33829    7                       FLDPTR$ = VM_HEADER.SUBJECT$;
     6418    33830    7                       SELECT (%REN_OPT_TO);
     6419    33831    7                       FLDPTR$ = VM_HEADER.TO$;
     6420    33832    7                   END; /* SELECT */
     6421    33833
     6422    33834    7                   IF (LAST+1)*2 >= HMAX THEN DO;
     6423    33835    7                       CALL VMA$ENLARGE_SEGMENT (VM_WORK_, 1024) ALTRET (E_PMME);
     6424    33836    7                       TEMP$ = PINCRW(STASH$,1024);
     6425    33837    7                       CALL VMX$MRL (STASH$->STASH,
     6426    33838    7                         TEMP$->STASH,
     6427    33839    7                         STASH_LEN);
     6428    33840    7                       STASH$ = PINCRW(STASH$,1024);
     6429    33841    7                       HMAX = POFFW(STASH$,HOLE$);
     6430    33842
     6431    33843    7                   END;
     6432    33844
     6433    33845    6                   IF FLDPTR$ = ADDR(NIL) THEN
     6434    33846    6                       GOTO NIL_PTR;
     6435    33847
     6436    33848    6                   IF (VBOUND(VM_WORK_) + 1) -
     6437    33849    7                     ((FLDPTR$->B$TEXTC.L+1) + STASH_LEN + ((HMAX+1)*4)) < 10 THEN DO;
     6438    33850
     6439    33851    7                       CALL VMA$ENLARGE_SEGMENT (VM_WORK_, 1024) ALTRET(E_PMME);
     6440    33852    7                   END;
     6441    33853
     6442    33854    6                   IF LAST < 0 THEN
     6443    33855    6                       GOTO PUT_AT_END_CHAR;
     6444    33856
     6445    33857    7                   IF LAST < 20 THEN DO;
PL6.E3A0      #001=VMO$MAIL File=VMO$MAIL.:VMB6TSI                               WED 08/20/97 15:19 Page:225
     6446    33858
     6447    33859    8                       DO MID = 0 TO LAST;
     6448    33860    9                           IF HOLE.SORT#(MID) > 0 THEN DO;
     6449    33861    9                               TEMP$ = PINCRC(STASH$,HOLE.SORT#(MID));
     6450    33862    9                               IF SUBSTR(TEMP$->B$TEXTC.C, 0, TEMP$->B$TEXTC.L) >
     6451    33863    9                                 SUBSTR(FLDPTR$->B$TEXTC.C, 0, FLDPTR$->B$TEXTC.L)
     6452    33864    9                               THEN GOTO FOUND_CHAR;
     6453    33865    9                           END;
     6454    33866    8                       END;
     6455    33867    7                       GOTO PUT_AT_END_CHAR;
     6456    33868    7                   END;
     6457    33869    7                   ELSE DO;
     6458    33870    7                       LOW = -1;
     6459    33871    7                       HIGH = LAST + 1;
     6460    33872    7   SPLIT_CHAR:         ;
     6461    33873    7                       MID = (LOW + HIGH)/2;
     6462    33874    8                       IF HOLE.SORT#(MID) > 0 THEN DO;
     6463    33875    8                           TEMP$ = PINCRC(STASH$, HOLE.SORT#(MID));
     6464    33876    8                           IF SUBSTR(TEMP$->B$TEXTC.C,0,TEMP$->B$TEXTC.L) <
     6465    33877    8                             SUBSTR(FLDPTR$->B$TEXTC.C, 0, FLDPTR$->B$TEXTC.L) THEN
     6466    33878    8                               LOW = MID;
     6467    33879    8                           ELSE
     6468    33880    8                               IF SUBSTR(TEMP$->B$TEXTC.C,0,TEMP$->B$TEXTC.L) >
     6469    33881    8                                 SUBSTR(FLDPTR$->B$TEXTC.C,0,FLDPTR$->B$TEXTC.L) THEN
     6470    33882    8                                   HIGH = MID;
     6471    33883    8                               ELSE
     6472    33884    8                                   GOTO FOUND_CHAR;
     6473    33885    8                           IF (LOW + 1) < HIGH THEN
     6474    33886    8                               GOTO SPLIT_CHAR;
     6475    33887    8                           IF SUBSTR(TEMP$->B$TEXTC.C,0,TEMP$->B$TEXTC.L) <
     6476    33888    8                             SUBSTR(FLDPTR$->B$TEXTC.C, 0, FLDPTR$->B$TEXTC.L) THEN
     6477    33889    8                               MID = MID + 1;
     6478    33890    8                           IF MID > LAST THEN
     6479    33891    8                               GOTO PUT_AT_END_CHAR;
     6480    33892    8                       END;
     6481    33893    8                       ELSE DO;
     6482    33894    8                           LOW = LOW + 1;
PL6.E3A0      #001=VMO$MAIL File=VMO$MAIL.:VMB6TSI                               WED 08/20/97 15:19 Page:226
     6483    33895    8                           IF LOW = LAST THEN
     6484    33896    8                               GOTO PUT_AT_END_CHAR;
     6485    33897    8                           ELSE
     6486    33898    8                               GOTO SPLIT_CHAR;
     6487    33899    8                       END;
     6488    33900    7                   END;
     6489    33901    6   FOUND_CHAR:     ;                  /* check for duplicates */
     6490    33902
     6491    33903    7   CHECK_DUPES:    DO I = MID TO LAST;
     6492    33904    7                       TEMP$ = PINCRC(STASH$,HOLE.SORT#(I));
     6493    33905    7                       IF I = LAST THEN
     6494    33906    7                           NEXT$ = PINCRC(STASH$,HOLE.SORT#(I));
     6495    33907    7                       ELSE
     6496    33908    7                           NEXT$ = PINCRC(STASH$,HOLE.SORT#(I+1));
     6497    33909
     6498    33910    7                       IF (SUBSTR(TEMP$->B$TEXTC.C,0,TEMP$->B$TEXTC.L) =
     6499    33911    7                         SUBSTR(FLDPTR$->B$TEXTC.C,0,FLDPTR$->B$TEXTC.L)) OR
     6500    33912    7                         (SUBSTR(NEXT$->B$TEXTC.C,0,NEXT$->B$TEXTC.L) =
     6501    33913    7                         SUBSTR(FLDPTR$->B$TEXTC.C,0,FLDPTR$->B$TEXTC.L))
     6502    33914    8                       THEN DO; /* nothing, just loop */
     6503    33915    8                       END;
     6504    33916    8                       ELSE DO;
     6505    33917    8                           MID = I;
     6506    33918    8                           TEMP$ = PINCRC(STASH$,HOLE.SORT#(MID));
     6507    33919    8                           EXIT CHECK_DUPES;
     6508    33920    8                       END;
     6509    33921    7                   END;
     6510    33922
     6511    33923    6                   LAST = LAST + 1;
     6512    33924    6                   SIZE = (LAST - MID) * 8;
     6513    33925    6   MLR_CHAR:       ;
     6514    33926    6                   CALL VMX$MRL(HOLE(MID), HOLE(MID+1), SIZE);
     6515    33927    6                   HOLE.MSG_NUM(MID) = VLP_KEY.NUM;
     6516    33928    6                   HOLE.SORT#(MID) = STASH_LEN + 1;
     6517    33929    6                   TEMP$ = PINCRC(STASH$,STASH_LEN + 1);
     6518    33930    6                   TEMP$->B$TEXTC.L = FLDPTR$->B$TEXTC.L;
     6519    33931    6                   TEMP$->B$TEXTC.C = FLDPTR$->B$TEXTC.C;
PL6.E3A0      #001=VMO$MAIL File=VMO$MAIL.:VMB6TSI                               WED 08/20/97 15:19 Page:227
     6520    33932    6                   STASH_LEN = STASH_LEN + FLDPTR$->B$TEXTC.L + 1;
     6521    33933    7                   DO WHILE('0'B); /* Never! */
     6522    33934    7   PUT_AT_END_CHAR:    ;
     6523    33935    7                       LAST = LAST + 1;
     6524    33936    7                       HOLE.MSG_NUM(LAST) = VLP_KEY.NUM;
     6525    33937    7                       HOLE.SORT#(LAST) = STASH_LEN + 1;
     6526    33938    7                       TEMP$ = PINCRC(STASH$,STASH_LEN + 1);
     6527    33939    7                       TEMP$->B$TEXTC.L = FLDPTR$->B$TEXTC.L;
     6528    33940    7                       TEMP$->B$TEXTC.C = FLDPTR$->B$TEXTC.C;
     6529    33941    7                       STASH_LEN = STASH_LEN + FLDPTR$->B$TEXTC.L + 1;
     6530    33942    7                   END;
     6531    33943
     6532    33944    7                   DO WHILE ('0'B); /* Never! */
     6533    33945    8   NIL_PTR:            DO MID = 0 TO LAST+1;
     6534    33946    8                           IF HOLE.SORT#(MID) > 0 /* 1st non-zero element */
     6535    33947    9                           THEN DO;
     6536    33948    9                               LAST = LAST + 1;
     6537    33949    9                               SIZE = (LAST - MID) * 8;
     6538    33950    9                               CALL VMX$MRL (HOLE(MID),
     6539    33951    9                                 HOLE(MID+1),
     6540    33952    9                                 SIZE);
     6541    33953    9                               HOLE.MSG_NUM(MID) = VLP_KEY.NUM;
     6542    33954    9                               HOLE.SORT#(MID) = 0;
     6543    33955    9                               EXIT NIL_PTR;
     6544    33956    9                           END;
     6545    33957    8                       END;
     6546    33958    7                   END;
     6547    33959    6               END;                     /* IF CHAR FIELD */
     6548    33960    5           END;                         /* If VLP_KEY.TYPE = HEADER */
     6549    33961    4       END;                           /* Sort loop */
     6550    33962        /* Now, go through the file a second time replacing the old
     6551    33963           message numbers with new ones.                           */
     6552    33964
     6553    33965    3       BOF.V.DCB# = M$MAIL_FILE_NUM;
     6554    33966    3       CALL M$PRECORD (BOF);
     6555    33967
     6556    33968    4   RENUMBER_LOOP: DO WHILE ('1'B);
PL6.E3A0      #001=VMO$MAIL File=VMO$MAIL.:VMB6TSI                               WED 08/20/97 15:19 Page:228
     6557    33969
     6558    33970    4           CALL M$READ (READ_OLD) WHENALTRETURN
     6559    33971    5           DO;
     6560    33972    5               IF B$TCB.ALT$->B$ALT.ERR.CODE = %E$EOF THEN
     6561    33973    5                   EXIT RENUMBER_LOOP;
     6562    33974    5               ELSE
     6563    33975    5                   GOTO E_PMME;
     6564    33976    5           END;
     6565    33977
     6566    33978    5           DO CASE (VLP_KEY.TYPE);
     6567    33979
     6568    33980    5           CASE(%VM_TYPE_PRO,%VM_TYPE_LIST,
     6569    33981    5             %VM_TYPE_USER,%VM_TYPE_ACC,
     6570    33982    5             %VM_TYPE_SITE);
     6571    33983
     6572    33984
     6573    33985    5           CASE(%VM_TYPE_ID);
     6574    33986    6               DO;
     6575    33987    6                   CALL GET_NEW_MSGNUM(VM_ID.MESSAGE_NUMBER);
     6576    33988    6                   VM_ID.MESSAGE_NUMBER = NEW_NUM;
     6577    33989    6               END;
     6578    33990
     6579    33991    5           CASE (ELSE);
     6580    33992    6               DO;
     6581    33993    6                   HINDX = VLP_KEY.NUM;
     6582    33994    6                   CALL GET_NEW_MSGNUM(HINDX);
     6583    33995    6                   VLP_KEY.NUM = NEW_NUM;
     6584    33996    6               END;
     6585    33997
     6586    33998    5           END;
     6587    33999
     6588    34000    4           WRITE_NEW.BUF_ = VM_HEADER_;
     6589    34001
     6590    34002    4           IF MAIL_FILE$->F$DCB.ARS# = 0 THEN
     6591    34003    4               WRITE_NEW.BUF_ = VECTOR(NIL);
     6592    34004    4           ELSE
     6593    34005    4               WRITE_NEW.BUF_.BOUND = MAIL_FILE$->F$DCB.ARS# - 1;
PL6.E3A0      #001=VMO$MAIL File=VMO$MAIL.:VMB6TSI                               WED 08/20/97 15:19 Page:229
     6594    34006
     6595    34007    4           WRITE_NEW.V.DVBYTE = MAIL_FILE$->F$DCB.DVBYTE;
     6596    34008    4           WRITE_NEW.KEY_ = VECTOR(VLP_KEY);
     6597    34009
     6598    34010    4           CALL M$WRITE (WRITE_NEW) ALTRET(E_PMME);
     6599    34011
     6600    34012    4       END; /* Renumber loop */
     6601    34013
     6602    34014
     6603    34015    3       NEXT_NUM = LAST + 1;
     6604    34016    3       VM_PROFILE.RECS_DELETED=0;
     6605    34017    3       VM_PROFILE.HI_MESSAGE_NUMBER = LAST + 1;
     6606    34018    3       VM_PROFILE.NUM_MESSAGES = LAST + 1;
     6607    34019    3       CALL VMD$PUT_PROFILE(M$WORK_NUM) ALTRET(E_PMME);
     6608    34020    3       CLOSE_SAVE.V.DCB#=M$MAIL_FILE_NUM;
     6609    34021    3       CALL M$CLOSE (CLOSE_SAVE) ALTRET(E_PMME);
     6610    34022    3       CLOSE_SAVE.V.DCB#=M$WORK_NUM;
     6611    34023    3       CLOSE_SAVE.V.OPER.RELG# = '1'B;
     6612    34024    3       CALL M$CLOSE (CLOSE_SAVE) ALTRET(E_PMME);
     6613    34025    3       CLOSE_SAVE.V.OPER.RELG# = '0'B;
     6614    34026    3   CLEANUP:
     6615    34027    3       CALL VMB$USE_SAME (,,VM_CURRENT_FOLDER,M$MAIL_FILE_NUM);
     6616    34028    3       CALL VMA$SHRINK_SEGMENT (VM_WORK_,);
     6617    34029    3       CALL VMA$ENLARGE_SEGMENT (VM_WORK_, 1024);
     6618    34030    3       RETURN;
     6619    34031    3   E_PMME:
     6620    34032    3       ERROR = B$TCB.ALT$ -> B$ALT.ERR;
     6621    34033    3       DCB# = B$TCB.ALT$->B$ALT.DCB#;
     6622    34034    3       CALL XUR$ERRMSG (E_RENFAILED);
     6623    34035    3       CALL XUR$ERRMSG (ERROR,DCB#);
     6624    34036    3       CLOSE_SCRATCH.V.DCB# = M$WORK_NUM;
     6625    34037    4       CALL M$CLOSE (CLOSE_SCRATCH) WHENALTRETURN DO;
     6626    34038    4       END;
     6627    34039    3       NEXT_NUM = VM_PROFILE.HI_MESSAGE_NUMBER;
     6628    34040    3       GOTO CLEANUP;
     6629    34041    3   E_PMME2:
     6630    34042    3       IF B$TCB.ALT$->B$ALT.ERR.CODE = %E$FILEBUSY
PL6.E3A0      #001=VMO$MAIL File=VMO$MAIL.:VMB6TSI                               WED 08/20/97 15:19 Page:230
     6631    34043    4       THEN DO;
     6632    34044    4           CALL XUR$ERRMSG(E_CANTCOMPACT);
     6633    34045    4           NEXT_NUM = VM_PROFILE.HI_MESSAGE_NUMBER;
     6634    34046    4           GOTO CLEANUP;
     6635    34047    4       END;
     6636    34048    3       ELSE GOTO E_PMME;
     6637    34049        /* END SORT_FOLDER; */
     6638    34050        %EJECT;
PL6.E3A0      #001=VMO$MAIL File=VMO$MAIL.:VMB6TSI                               WED 08/20/97 15:19 Page:231
     6639    34051    3   GET_NEW_MSGNUM: PROC (OLD_MSGNUM);
     6640    34052
     6641    34053    4   DCL OLD_MSGNUM UBIN WORD ALIGNED;
     6642    34054    4   DCL I UBIN WORD;
     6643    34055
     6644    34056    5   ARRAY_LOOP: DO I = 0 TO LAST;
     6645    34057    5           IF OLD_MSGNUM = HOLE.MSG_NUM(I) THEN
     6646    34058    6           DO;
     6647    34059    6               NEW_NUM = I + 1;
     6648    34060    6               EXIT ARRAY_LOOP;
     6649    34061    6           END;
     6650    34062    5       END;
     6651    34063
     6652    34064    4       RETURN;
     6653    34065
     6654    34066    4   END GET_NEW_MSGNUM;
     6655    34067    3   END SORT_FOLDER;
     6656    34068    2   END UPDATE$MAIL;
     6657    34069        %EJECT;
PL6.E3A0      #001=VMO$MAIL File=VMO$MAIL.:VMB6TSI                               WED 08/20/97 15:19 Page:232
     6658    34070    1   TRANSFORM_DOMAIN: PROC (DOMAIN$, SITENAME, NAME) ALTRET;
     6659    34071
     6660    34072    2   DCL DOMAIN$ PTR;
     6661    34073    2   DCL SITENAME CHAR (8);
     6662    34074        %VLP_NAME (FPTN=NAME, STCLASS=PARAM);
     6663    34101
     6664    34102    2   DCL SITE$ PTR;
     6665    34103    2   DCL INDX1 UBIN;
     6666    34104    2   DCL INDX2 UBIN;
     6667    34105
     6668    34106        /*
     6669    34107              ***** If a domain was specified, check to make sure that the outermost
     6670    34108                    subdomain can be mapped into a node name;  reject otherwise.  Then
     6671    34109                    map the domain-name structure into the corresponding CP-6
     6672    34110                    equivalent (e.g. "name@sd1.sd2.sd3" -> "name%sd1.sd2@sd3").
     6673    34111        */
     6674    34112    2       IF DOMAIN$ ~= ADDR(NIL)
     6675    34113    3       THEN DO;
     6676    34114    3           SITE$ = DOMAIN$ -> P$B.SUBLK$(DOMAIN$ -> P$B.NSUBLKS - 1);
     6677    34115    3           IF SITE$ -> P$S.COUNT > LENGTHC(SITENAME)
     6678    34116    4           THEN DO;
     6679    34117    4               CALL XUR$ERRMSG (E_BADDOMAIN,,,
     6680    34118    4                 VECTOR(SITE$->P$S.TEXTC$->X$STRING));
     6681    34119    4               ALTRETURN;
     6682    34120    4           END;
     6683    34121    3           SITENAME = SITE$->P$S.TEXT;
     6684    34122    4           DO INDX2 = 0 TO DOMAIN$ -> P$B.NSUBLKS - 2;
     6685    34123    4               INDX1 = NAME.L#;
     6686    34124    4               NAME.L# = NAME.L# + DOMAIN$ -> P$B.SUBLK$(INDX2) -> P$S.COUNT + 1;
     6687    34125    4               IF INDX2 = 0
     6688    34126    4               THEN
     6689    34127    4                   CALL INSERT (NAME.NAME#, INDX1, , '%', DOMAIN$ -> P$B.SUBLK$(INDX2)
             34127                            -> P$S.TEXT);
     6690    34128    4               ELSE
     6691    34129    4                   CALL INSERT (NAME.NAME#, INDX1, , '.', DOMAIN$ -> P$B.SUBLK$(INDX2)
             34129                            -> P$S.TEXT);
     6692    34130    4           END;
PL6.E3A0      #001=VMO$MAIL File=VMO$MAIL.:VMB6TSI                               WED 08/20/97 15:19 Page:233
     6693    34131    3       END;
     6694    34132
     6695    34133    2       RETURN;
     6696    34134
     6697    34135    2   END TRANSFORM_DOMAIN;
     6698    34136        %EJECT;
PL6.E3A0      #001=VMO$MAIL File=VMO$MAIL.:VMB6TSI                               WED 08/20/97 15:19 Page:234
     6699    34137        /********************************************************************/
     6700    34138        /*I*
     6701    34139             NAME: DO$ACK
     6702    34140             PURPOSE:
     6703    34141                   To acknowledge the current message.
     6704    34142        *********************************************************************/
     6705    34143    1   DO$ACK: PROC (EXPLICIT) ALTRET;
     6706    34144
     6707    34145    2   DCL EXPLICIT BIT(1);
     6708    34146        /*
     6709    34147          ***** Build the command buffer to pass to send ...
     6710    34148        */
     6711    34149              %INIT_STR (CODE=E_SEND_ACKNOWLEDGE, STR=VM_SEND_ACKNOWLEDGE, TEST=YES);
     6712    34172    2       CALL BUILD_LINK_TO_SEND_CMD (VM_SEND_ACKNOWLEDGE);
     6713    34173    2       CALL M$OPEN (OPEN_SEND_FILE) ALTRET(E_PMME);
     6714    34174    2       CALL VME$ACKNOWLEDGE (CURRENT_MESSAGE_NUMBER,USER_NAME,EXPLICIT)
     6715    34175    2         ALTRET(E_ACK);
     6716    34176    2       CLOSE_SAVE.V.DCB# = M$WORK_NUM;
     6717    34177    2       CALL M$CLOSE (CLOSE_SAVE) ALTRET(E_PMME);
     6718    34178    2       CALL LINK_RUNIT
     6719    34179    2       WHENRETURN
     6720    34180    3       DO;
     6721    34181    3           CALL VMD$GET_HEADER (CURRENT_MESSAGE_NUMBER,
     6722    34182    3             M$MAIL_FILE_NUM) ALTRET(E_PMME);
     6723    34183    3       END;
     6724    34184    2       WHENALTRETURN
     6725    34185    3       DO;
     6726    34186    3           CALL VMD$GET_HEADER (CURRENT_MESSAGE_NUMBER,
     6727    34187    3             M$MAIL_FILE_NUM) ALTRET(E_PMME);
     6728    34188    3           GOTO E_PMME;
     6729    34189    3       END;
     6730    34190    3       DO NEVER;
     6731    34191    3   E_ACK:                                  /* Cleanup */
     6732    34192    3           CLOSE_SCRATCH.V.DCB# = M$WORK_NUM;
     6733    34193    3           CALL M$CLOSE (CLOSE_SCRATCH) ALTRET(E_PMME);
     6734    34194    3       END;                            /* Do never ... end */
     6735    34195    2       RETURN;
PL6.E3A0      #001=VMO$MAIL File=VMO$MAIL.:VMB6TSI                               WED 08/20/97 15:19 Page:235
     6736    34196        /**/
     6737    34197    2   E_PMME:
     6738    34198    2       ALTRETURN;
     6739    34199    2   END DO$ACK;
     6740    34200        %EJECT;
PL6.E3A0      #001=VMO$MAIL File=VMO$MAIL.:VMB6TSI                               WED 08/20/97 15:19 Page:236
     6741    34201        /*****************************************************************/
     6742    34202        /*                                                               */
     6743    34203        /*I*       NAME:       BUILD_LINK_TO_SEND_CMD                    *
     6744    34204         *                                                               *
     6745    34205         *         PURPOSE:    To build a legal LINK TO SEND command.    *
     6746    34206         *                                                               *
     6747    34207         *****************************************************************/
     6748    34208
     6749    34209    1   BUILD_LINK_TO_SEND_CMD: PROC(NAME);
     6750    34210
     6751    34211        %VLP_NAME (FPTN=NAME, STCLASS=PARAM);
     6752    34238    2   dcl  LEN   sbin;
     6753    34239    2   dcl  CFLEN sbin;
     6754    34240
     6755    34241        /*
     6756    34242          *****    NAME is the text of the command to pass to send
     6757    34243          *****    1.    Insert command and start option (MAIL=
     6758    34244        */
     6759    34245    2       LINK_CCBUF = NAME;
     6760    34246            %INIT_STR (CODE=E_SEND_MAIL, STR=VM_SEND_MAIL, TEST=YES);
     6761    34269    2       CALL INSERT (LINK_CCBUF.NAME#, LINK_CCBUF.L#,, VM_SEND_MAIL.NAME#);
     6762    34270    2       LEN = NAME.L# + VM_SEND_MAIL.L#;
     6763    34271
     6764    34272        /*
     6765    34273          *****    2.    Pass SEND the name of the current folder
     6766    34274        */
     6767    34275    2       WORK_STRING.L# = lengthc(WORK_STRING.NAME#);
     6768    34276    2       call VMF$MAKE_ADDRESS1PASS (WORK_STRING,VM_CURRENT_FOLDER);
     6769    34277    2       SIZE = WORK_STRING.L#;
     6770    34278    2       substr(LINK_CCBUF.NAME#,LEN,SIZE) = substr(WORK_STRING.NAME#,,SIZE);
     6771    34279    2       substr(LINK_CCBUF.NAME#,LEN+SIZE,1) = ')';
     6772    34280
     6773    34281    2       SIZE = SIZE + LEN + 1;
     6774    34282    2       LINK_CCBUF.L# = SIZE;
     6775    34283        /*
     6776    34284          ***** Check for a valid user name.  If invalid, enclose in quotes
     6777    34285          ***** so that a registered name containing non-standard characters
PL6.E3A0      #001=VMO$MAIL File=VMO$MAIL.:VMB6TSI                               WED 08/20/97 15:19 Page:237
     6778    34286          ***** is acceptable.
     6779    34287        */
     6780    34288    2       CALL XUR$GETCMD (SEND_CMD$->BSD,OUT$,,LINK_CCBUF.NAME#,SIZE)
     6781    34289    3       whenaltreturn do;
     6782    34290    3           INDX2 = 0;
     6783    34291    3           CFLEN = VM_CURRENT_FOLDER.USER_NAME.COUNT;
     6784    34292    4           do while( INDX2 < CFLEN);
     6785    34293    4               if substr(WORK_STRING.NAME#,INDX2,1) ~= substr(VM_CURRENT_FOLDER.
             34293                        USER_NAME.TEXT,INDX2,1)
     6786    34294    4               then exit;
     6787    34295    4               INDX2 = INDX2 + 1;
     6788    34296    4           end;
     6789    34297
     6790    34298    3           substr(LINK_CCBUF.NAME#,LEN,1) = '''';
     6791    34299    3           substr(LINK_CCBUF.NAME#,LEN+1,CFLEN) = WORK_STRING.NAME#;
     6792    34300    3           LEN = LEN + 1 + CFLEN;
     6793    34301    3           substr(LINK_CCBUF.NAME#,LEN,1) = '''';
     6794    34302    3           SIZE = WORK_STRING.L# - INDX2;
     6795    34303    3           substr(LINK_CCBUF.NAME#,LEN+1,SIZE) = substr(WORK_STRING.NAME#,INDX2,SIZE);
     6796    34304    3           substr(LINK_CCBUF.NAME#,LEN+1+SIZE,1) = ')';
     6797    34305    3           SIZE = LEN + 2 + SIZE;
     6798    34306    3           LINK_CCBUF.L# = SIZE;
     6799    34307    3       end;
     6800    34308            %INIT_STR (CODE=E_SEND_NAME, STR=VM_SEND_NAME, TEST=YES);
     6801    34331    2       FPT_LINK.NAME_ = VECTOR(VM_SEND_NAME);
     6802    34332    2       FPT_LINK.ACCT_ = VECTOR(SYSACCT);
     6803    34333
     6804    34334    2       return;
     6805    34335
     6806    34336    2   end BUILD_LINK_TO_SEND_CMD;
     6807    34337    1   END VMO$MAIL;
     6808    34338        %EOD;

PL6.E3A0      #001=VMO$MAIL File=VMO$MAIL.:VMB6TSI                               WED 08/20/97 15:19 Page:238
--  Include file information  --

   B$TABLES_C.:LIB_E05  cannot be made into a system file and is referenced.
   B_MACROS_C.:LIB_E05  is referenced.
   VM_DATA_R.:VMB6TOU  cannot be made into a system file and is referenced.
   XUW_MACRO_C.:LIB_E05  is referenced.
   XUR_ENTRY.:LIB_E05  cannot be made into a system file and is referenced.
   XUM_MACRO_C.:LIB_E05  is referenced.
   XUH_MACRO_C.:LIB_E05  is referenced.
   XU_PERR_C.:LIB_E05  is referenced.
   XUE_MACRO_C.:LIB_E05  is referenced.
   XU_FORMAT_C.:LIB_E05  is referenced.
   XU_MACRO_C.:LIB_E05  is referenced.
   VO_SUBS_C.:VMB6TOU  is referenced.
   VM_PERR_C.:VMB6TOU  is referenced.
   VM_SUBS_C.:VMB6TOU  is referenced.
   VM_MACRO_C.:VMB6TOU  is referenced.
   CP_6_SUBS.:LIB_E05  is referenced.
   CP_6_C.:LIB_E05  is referenced.
   CP_6.:LIB_E05  cannot be made into a system file and is referenced.
   B$JIT_C.:LIB_E05  is referenced.
   B$JIT.:LIB_E05  cannot be made into a system file and is referenced.
   B_SEGIDS_C.:LIB_E05  is referenced.
   B_ERRORS_C.:LIB_E05  is referenced.
      No diagnostics issued in procedure VMO$MAIL.

   Procedure VMO$MAIL requires 10979 words for executable code.
   Procedure VMO$MAIL requires 978 words of local(AUTO) storage.

PL6.E3A0      #001=VMO$MAIL File=VMO$MAIL.:VMB6TSI                               WED 08/20/97 15:19 Page:239

 Object Unit name= VMO$MAIL                                   File name= VMO$MAIL.:VMB6TOU
 UTS= AUG 20 '97 15:19:11.04 WED                              Compiler= PL-6/E31         Sev=      00
 SharedLib= :SHARED_SYSTEM                                    Alt SharedLib=


    ****  Control sections  ****

 Sect   Type Bound  Init  Size OctSiz  Section name(segment info)
    0   DCB   even  none     0      0  M$UC
    1   DCB   even  none     0      0  M$MAIL_FILE
    2   DCB   even  none     0      0  M$MAIL_CENTRAL
    3   DCB   even  none     0      0  M$MAIL_GLOBAL
    4   DCB   even  none     0      0  M$WORK
    5   DCB   even  none     0      0  M$MAIL_COMGROUP
    6   DCB   even  none     0      0  M$DO
    7   DCB   even  none     0      0  M$LO
    8   DCB   even  none     0      0  M$ME
    9   DCB   even  none     0      0  M$NODE
   10   DCB   even  none     0      0  M$SI
   11   Data  even  none  2889   5511  VMO$MAIL
   12  RoData even  UTS    768   1400  VMO$MAIL
   13   DCB   even  none     0      0  M$NAME
   14   DCB   even  none     0      0  M$CMNDF
   15   DCB   even  none     0      0  M$LM
   16   DCB   even  none     0      0  M$EDIT
   17   DCB   even  none     0      0  M$OUT
   18   DCB   even  none     0      0  M$ENCL
   19   Proc  even  none 10979  25343  VMO$MAIL
   20  RoData even  none   460    714  VMO$MAIL

    ****  Entry defs  ****

                              Check   Calling
                             calling  sequence
  Sect OctLoc Primary Altret sequence   type   Parms  Name
    19      0   yes            yes      Main       0  VMO$MAIL
PL6.E3A0      #001=VMO$MAIL File=VMO$MAIL.:VMB6TSI                               WED 08/20/97 15:19 Page:240

  ****  Data defs  ****

 Sect OctLoc  Name                           Sect OctLoc  Name
   11     66  VM_ADDRESS_SPEC$                  12      0  VM_DEFAULT_NODES
   12     36  VM_NATL_PAIRS                     12     45  VM_NODENAMES
   12     72  VM_NODEFID                        11     70  VMO_REMEMBER
   11     72  CURRENT_MESSAGE_NUMBER            11    375  INDX2
   11    400  BREAK_TYPE                        12     75  M$OUT_NUM
   11    404  FOLDER_WAS_OPEN                   12     76  E_MODIFY_LIST_PROMPT
   12     77  E_MODIFY_USER_PROMPT              11   1070  VM_CGBUFFER
   11   1243  VM_CURRENT_FOLDER                 11   1461  VM_WORK_FOLDER
   12   1210  E_GREETING_FMT                    12   1211  E_FOLDER_HEADER1_FMT
   12   1212  E_FOLDER_HEADER2_FMT              12   1213  E_FOLDER_DELETED_FMT
   12   1214  E_FOLDER_DISPLAYED_FMT            12   1215  E_COUNT_FMT
   12   1216  E_NO_MESSAGE_FMT                  12   1217  E_TIME_FMT
   12   1220  E_EMPTY_FOLDER_FMT                12   1221  E_NO_NEW_MESSAGE_FMT
   12   1222  E_CREATE_MSG_FMT                  12   1223  E_USING_MSG_FMT
   12   1224  E_MSGS_DELETED_FMT                12   1225  E_MSGS_UNDELETED_FMT
   12   1226  E_MSGS_MARKED_FMT                 12   1227  E_MSGS_UNMARKED_FMT
   12   1230  E_MSGS_COPIED_FMT                 12   1231  E_MSGS_DISPLAYED_FMT
   12   1232  E_MSGS_LISTED_FMT                 12   1233  E_LISTS_DELETED_FMT
   12   1234  E_LISTS_DISPLAYED_FMT             12   1235  E_USERS_DELETED_FMT
   12   1236  E_USERS_DISPLAYED_FMT             12   1237  E_STATUS_FOLDER_FMT
   12   1240  E_STATUS_SCONTEXT_FMT             12   1241  E_STATUS_CCONTEXT_FMT
   12   1242  E_STATUS_POSITION_FMT             12   1243  E_STATUS_POSITION_OUTSIDE_FMT
   12   1244  E_STATUS_DMSGS_FMT                12   1245  E_STATUS_NMSGS_FMT
   12   1246  E_STATUS_TMSGS_FMT                12   1247  E_STATUS_HMSGS_FMT
   12   1250  E_USE_FULL_FMT                    12   1251  E_USE_LOST_FMT
   12   1252  E_NEW_MESSAGE_FMT                 12   1253  E_DETACH_OK_FMT
   12   1254  E_DETACH_DELETE_OK_FMT            12   1255  E_END_NOUPDATE_CMD
   12   1256  E_NEXT_CMD                        12   1257  E_DI_NEXT_CMD
   12   1260  E_LIST_NEXT_CMD                   12   1261  E_PREVIOUS_CMD
   12   1262  E_DI_PREVIOUS_CMD                 12   1263  E_LIST_PREVIOUS_CMD
   12   1264  E_DI_FIRST_CMD                    12   1265  E_LIST_FIRST_CMD
   12   1266  E_DI_THIS_CMD                     12   1267  E_LIST_THIS_CMD
   12   1270  E_DI_LAST_CMD                     12   1271  E_LIST_LAST_CMD
   12   1272  E_DI_REST_CMD                     12   1273  E_LIST_REST_CMD
PL6.E3A0      #001=VMO$MAIL File=VMO$MAIL.:VMB6TSI                               WED 08/20/97 15:19 Page:241
   12   1274  E_END_CMD                         12   1275  E_SEND_ANSWER
   12   1276  E_SEND_ACKNOWLEDGE                12   1277  E_SEND_FORWARD
   12   1300  E_SEND_FORWARD_ENCL               12   1301  E_SEND_MAIL
   11   5053  VM_SEND_NAME                      12   1302  E_SEND_NAME
   11   5063  VM_RESEND_NAME                    12   1303  E_RESEND_NAME
   12   1304  E_MAIL_SETUP

  ****  Entry refs  ****

         Check        Calling
        calling       sequence
Altret sequence SRef   type   Args  Name
         yes          ~proc      0 B_POINTER
 yes     yes           Std       0 VMA$OPEN_ENCL_SEGS
 yes     yes           Std       1 VMD$GET_PROFILE
         yes           Std       4 VMD$GETNODES
         yes           Std       0 XUR$DISABLE
 yes     yes           Std       7 XUR$INFOMSG
 yes     yes           Std       6 XUR$GETCMD
         yes           Std       0 VMO$ABORT
 yes     yes           Std       2 XTX$ADAPT
         yes          Async      0 XUR$BREAK
 yes     yes           Std       2 VMA$ENLARGE_SEGMENT
 yes     yes           Std       7 VMB$USE_DEFAULT
         yes           Std       1 VMD$WRITE_BUF
 yes     yes           Std       4 XUR$SETDCBS
         yes          Async      0 VMO$XCON
 yes     yes           Std       1 VMD$PUT_PROFILE
 yes     yes           Std       1 VMA$OPEN_GLOBAL
         yes           Std       0 XUR$CLRENABLE
 yes     yes           Std       3 VMD$ERRMSG
 yes     yes           Std       3 VMA$MOREMEM
 yes     yes           Std       7 VMB$FIND_DEFAULT
 yes     yes           Std       3 XUR$INIT
 yes     yes           Std       1 XUR$SETERRMSG
 yes     yes           Std       1 VMF$FROM
 yes     yes           Std       2 XUR$ERRPTR
PL6.E3A0      #001=VMO$MAIL File=VMO$MAIL.:VMB6TSI                               WED 08/20/97 15:19 Page:242
         yes           Std       0 XUR$ENABLE
 yes     yes           Std       1 XUR$ECHO
 yes     yes           Std       7 XUR$ERRMSG
 yes     yes           Std       4 VMA$GET_SITE_NAME
 yes     yes           Std       4 VMA$GET_ADD_RECORD
 yes     yes           Std       4 XUR$OPENOUT
 yes     yes           Std       1 X$DEALLOCATE
 yes     yes           Std       2 VMD$GET_HEADER
 yes     yes           Std       1 X$ALLOCATE
 yes     yes           Std       3 VMA$DEL_LIST
 yes     yes           Std       3 VMA$GET_LIST
         yes           Std       3 VMD$DI_HEADER
 yes     yes           Std       3 VME$ANSWER
 yes     yes           Std       6 VMD$DI_MESSAGE
 yes     yes           Std       3 VMA$PUT_LIST
 yes     yes           Std       9 VMD$PUT_ENCL
 yes     yes           Std       1 XUR$MOREMSG
 yes     yes           Std       1 VMA$OPEN_SRCH_LIST
 yes     yes           Std       2 VMD$PUT_HEADER
 yes     yes           Std       1 X$WILDCMP
 yes     yes           Std       9 VMD$GET_ENCL
 yes     yes           Std       1 XUR$HELP
         yes           Std       2 VMS$FMT_SELECT
 yes     yes           Std       3 VMM$COMBINE_MESSAGE
 yes     yes           Std       6 VMA$ADD_UENTRY_SORTED
         yes           Std       2 VMF$MAKE_ADDRESS1
 yes     yes           Std       1 XUR$ALLMSG
 yes     yes           Std       1 VMB$TESTREG
 yes     yes           Std       6 VMM$COPY_MESSAGE
         yes           Std       2 VMD$DI_FOLDER
 yes     yes           Std       6 VMA$DEL_RENTRY
 yes     yes           Std       6 VMA$ADD_RENTRY_SORTED
 yes     yes           Std       5 VMM$EDIT_MESSAGE_OUT
 yes     yes           Std       5 VMA$OPEN_FOLDER
 yes     yes           Std       9 VMD$DEL_ENCL
         yes           Std       2 VMX$OCTBIN
 yes     yes           Std       1 VMD$EJECT
PL6.E3A0      #001=VMO$MAIL File=VMO$MAIL.:VMB6TSI                               WED 08/20/97 15:19 Page:243
 yes     yes           Std       4 VMA$PUT_ADD_RECORD
         yes           Std       4 VMD$DI_LIST
         yes           Std       1 VMD$DI_PROFILE
 yes     yes           Std       6 VMA$DEL_UENTRY
 yes     yes           Std       7 VMB$USE_SPECIFIED
         yes           Std       2 VMD$DI_USER
 yes     yes           Std       3 VMA$GET_LIST_NEXT
 yes     yes           Std       4 VMA$GET_NEXT_ENTRY
 yes     yes           Std       2 X$DEC_CONVERT
 yes     yes           Std       3 VMS$MOVE_SELECT
 yes     yes           Std       2 VMD$GET_HEADER_NEXT
 yes     yes           Std       3 VMS$SELECT
 yes     yes           Std       2 VMD$GET_HEADER_PREV
 yes     yes           Std       3 VMD$PUT_ID
 yes     yes           Std       2 VMM$DELETE_MESSAGE
 yes     yes           Std       7 VMB$USE_SAME
 yes     yes           Std       2 VMA$SHRINK_SEGMENT
         yes           Std       3 VMX$MRL
 yes     yes           Std       3 VME$ACKNOWLEDGE
         yes           Std       2 VMF$MAKE_ADDRESS1PASS
                       nStd      0 X66_MAUTO
                       nStd      0 X66_MARET
PL6.E3A0      #001=VMO$MAIL File=VMO$MAIL.:VMB6TSI                               WED 08/20/97 15:19 Page:244

  ****  Data refs  ****

  Flags:  r = read only, s = secondary
Flgs Name                             Flgs Name                             Flgs Name
     M$UC                             r    VM_HEADER$                       r    VM_PROFILE$
r    VM_ADDLIST$                      r    VM_ADDREC$                       r    VM_WORK$
r    VM_SELECT$                       r    VM_PARSEAREA$                    r    VM_INPUT$
r    VM_COPY$                              VM_ENCLLIST$                          VM_ENCLREC$
     VM_HEADER_                            VM_HEADER_INIT_                       VM_PROFILE_
     VM_ADDLIST_                           VM_ADDREC_                            VM_WORK_
     VM_SELECT_                            VM_PARSEAREA_                         VM_INPUT_
     VM_COPY_                              VM_ENCLLIST_                          VM_ENCLREC_
     M$MAIL_FILE                           M$MAIL_CENTRAL                        M$MAIL_GLOBAL
     M$WORK                                M$MAIL_COMGROUP                       M$DO
     M$LO                                  M$ME                                  M$NODE
     M$SI                                  M$MAIL_FILE_NUM                       M$MAIL_CENTRAL_NUM
     M$MAIL_GLOBAL_NUM                     M$WORK_NUM                            M$MAIL_COMGROUP_NUM
     M$DO_NUM                              M$ME_NUM                              M$LO_NUM
     M$SI_NUM                              M$NODE_NUM                       r    B$JIT$
r    B$TCB$                                VM_MAIL_ACCT                          VM_NAME_MAP_NAME
     ERRMSG_FID                            VM_SEND_FILE_NAME                     VM_FORWARD_FILE_NAME
     VM_FORWARD_ENCL_NAME                  VM_FORWARD_FILE_PASS                  VM_MAILCG_NAME
     VM_SITENAME                           VM_MAILCG_SETSTA                 r    B$XL_UPPER$
     MAIL_NODES                            SEND_CMD                              MAIL_CMD
     MODIFY_LIST                           MODIFY_USER                           ADDRESS_SPEC
     NEED_TITLE_BAR                        B_VERSION                             M$NAME
     M$CMNDF                               M$LM                                  M$EDIT
     M$OUT                                 M$ENCL

  ****  Segment refs  ****

  Flags:  r = read only, s = secondary
Flgs Name                             Flgs Name                             Flgs Name
     NULLSID                               ISSID                                 ROSID
PL6.E3A0      #001=VMO$MAIL File=VMO$MAIL.:VMB6TSI                               WED 08/20/97 15:19 Page:245


        1        1        /*M* VMO$MAIL Mail handling main program  */
        2        2        /*T***********************************************************/
        3        3        /*T*                                                         */
        4        4        /*T* Copyright (c) Bull HN Information Systems Inc., 1997    */
        5        5        /*T*                                                         */
        6        6        /*T***********************************************************/
        7        7        /*X* DMC,PLM=4,IND=4,CTI=2,DTI=0,ENI=0,ECI=0,CSI=0,DCI=4 */
        8        8        /*P* NAME: VMO$MAIL
        9        9             DESCRIPTION: This module performs the message viewing functions
       10       10                       for the mail system. It gives the user the ablity to
       11       11                        display and maintain the mail files in his accounts.
       12       12             WARNING:  To save time, VMA$OPEN_SRCH_LIST is called only when
       13       13                  address expansion may be pending.  As of 4/83, only USE
       14       14                  and LIST can cause expansion in MAIL.  If new features
       15       15                  are added that may cause expansion, call VMA$OPEN_SRCH_LIST
       16       16                  if VM_SEARCH_INFO.ACTIVE is reset.  You have been warned.  HEP
       17       17
       18       18                  ENQ/DEQ discussion:  On 5/8/83 the comgroup method of
       19       19                  concurrency control was replaced by ENQ/DEQ.  Three things
       20       20                  are enqueued, the PROFILE record, the HEADER record, and
       21       21                  the FILE name.  The discussions below concern MAIL and
       22       22                  MAILMAN.  Send does not need to use this facility.
       23       23
       24       24                  PROFILE - Everyone enqueues this SHARE=NONE.  MAILMAN
       25       25                  uses WAIT_TIME of 2 seconds.  This allows time for a
       26       26                  comgroup nowait read event to get in, and mailman can
       27       27                  give a file name to send.  MAIL waits till he gets the
       28       28                  resource.  MAILMAN only holds it for a very short time,
       29       29                  and another MAIL won't hold it unless he's got exclusive
       30       30                  use of the folder, in which case there is no problem as only
       31       31                  one mail will be using it exclusive at a time.  MAILMAN will
       32       32                  be help up by long operations such as COPY, MOVE and RENUMBER,
       33       33                  but only the delivery of mail will be delayed, not the entry
       34       34                  and exit of every user of MAIL as is currently the case.
       35       35                  The delay will only occur if mailman is attempting to deliver
       36       36                  a message to a user doing one of the above long operations.
PL6.E3A0      #001=VMO$MAIL File=VMO$MAIL.:VMB6TSI                               WED 08/20/97 15:19 Page:246
       37       37
       38       38                  HEADER - MAILMAN enqueues a header SHARE=NONE, MAIL enqueues
       39       39                  it SHARE=ALL.  This is used to keep MAIL from reading
       40       40                  a message while MAILMAN is entering it in the folder.  MAIL
       41       41                  does the enque WAIT_TIME=0, if it altrets a special message
       42       42                  is returned to the user, "Message being delivered".
       43       43                  This method was used instead of a busy bit in the message
       44       44                  header to avoid problems if the system crashes while the
       45       45                  message was being built.
       46       46
       47       47                  FILE - MAILMAN does not use this facility.  MAIL uses it to
       48       48                  avoid multiple updater problems with other MAIL users.  The
       49       49                  file open SHARE option can not be used, since MAIL and MAILMAN
       50       50                  must be able to update the file at the same time all users
       51       51                  must open the file SHARE=ALL.  If a user has update access to
       52       52                  the file, the FILE resource is enqueued SHARE=NONE.  If the
       53       53                  file is read only, SHARE=ALL is used.  This will allow
       54       54                  multiple users on information or bulletin board folders, and
       55       55                  only on user at a time in personal folders residing in multi-user
       56       56                  accounts.
       57       57
       58       58                  Before MAIL writes the profile record into the folder, the
       59       59                  record is first read and the number of messages information
       60       60                  is merged into MAIL's copy of the profile.  Since MAILMAN
       61       61                  changes only this information and dosen't dequeue until the
       62       62                  record is re-written, the most current information is always
       63       63                  maintained in the folder.
       64       64                                                                            */
       65       65        VMO$MAIL: PROC MAIN;

     65 19 000000   000000 700200 xent  VMO$MAIL     TSX0  ! X66_MAUTO
        19 000001   001722 000000                    ZERO    978,0

       66       66
       67       67        /***** Include files *****/
       68       68        %INCLUDE B_ERRORS_C;
       69     1195        %INCLUDE B_SEGIDS_C;
PL6.E3A0      #001=VMO$MAIL File=VMO$MAIL.:VMB6TSI                               WED 08/20/97 15:19 Page:247
       70     1734        %INCLUDE B$JIT;
       71     2337        %INCLUDE CP_6;
       72     7896        %INCLUDE CP_6_SUBS;
       73     8436        %INCLUDE VM_MACRO_C;
       74     9704        %INCLUDE VM_SUBS_C;
       75     9964        %INCLUDE VM_PERR_C;
       76    10259        %INCLUDE VO_SUBS_C;
       77    10310        %INCLUDE XU_MACRO_C;
       78    13416        %INCLUDE XU_FORMAT_C;
       79    13578        %INCLUDE XUE_MACRO_C;
       80    14322        %INCLUDE XU_PERR_C;
       81    14513        %INCLUDE XUH_MACRO_C;
       82    14597        %INCLUDE XUM_MACRO_C;
       83    14624        %INCLUDE XUR_ENTRY;
       84    14656        %INCLUDE XUW_MACRO_C;
       85    14791        %INCLUDE VM_DATA_R;
       86    15222            %include B$TABLES_C;
       87    15330        %B$XL_UPPER(NAME=LOWER_UPPER);
       88    15334
       89    15335        %F$DCB;
       90    15392        %B$TCB (STCLASS="BASED(B$TCB$)");
       91    15395        %B$ALT;
       92    15403        %PARSE$OUT (NAME=P$B,STCLASS="BASED(BLK$)");
       93    15448        %PARSE$SYM (NAME=P$S,STCLASS="BASED(BLK$)");
       94    15486        %P_PCB (STCLASS=STATIC);
       95    15685
       96    15686        %XUG_GETCMD (NAME=XUG$GETCMD,STCLASS="BASED(XUG_GETCMD$)");
       97    16024    1   DCL XUG_GETCMD$ PTR;
       98    16025
       99    16026        %XUE_ENTRIES;
      100    16050        %XUR_INIT(ABORT=VMO$ABORT,MOREMEM=VMA$MOREMEM,PCB=P_PCB,PREPROCESS=YES,
      101    16051            COMMANDS=YES,INHIBIT_OUTPUT=YES);
      102    16150        /***** Partrge root nodes *****/
      103    16151    1   DCL MAIL_NODES PTR SYMREF;              /* Mail commands */
      104    16152    1   DCL SEND_CMD PTR SYMREF;                /* Mail address */
      105    16153    1   DCL MAIL_CMD PTR SYMREF;                /* Syntax for invoking mail from ibex */
      106    16154    1   DCL MODIFY_LIST PTR SYMREF;             /* Syntax for modify list subcommands */
PL6.E3A0      #001=VMO$MAIL File=VMO$MAIL.:VMB6TSI                               WED 08/20/97 15:19 Page:248
      107    16155    1   DCL MODIFY_USER PTR SYMREF;             /* Syntax for modify user subcommands */
      108    16156        /*
      109    16157              Addresses of the nodes for the parser.  Ordinarily these will
      110    16158              have the values of the SYMDEFs above.  But with some imaginative
      111    16159              patching, these pointers can obtain values for user modified,
      112    16160              (foriegn language) nodes.   */
      113    16161    1   DCL   MAIL_NODES$    PTR;
      114    16162    1   DCL   SEND_CMD$      PTR;
      115    16163    1   DCL   MAIL_CMD$      PTR;
      116    16164    1   DCL   MODIFY_LIST$   PTR;
      117    16165    1   DCL   MODIFY_USER$   PTR;
      118    16166    1   DCL   VM_ADDRESS_SPEC$ PTR   STATIC   SYMDEF;/* VME$SUBR needs it */
      119    16167    1   DCL   ADDRESS_SPEC   PTR   SYMREF;
      120    16168
      121    16169    1   DCL   BSD            SBIN  BASED;
      122    16170        /*
      123    16171              The following DCL's are for allowing multiple parse nodes
      124    16172              in different languages.
      125    16173        */
      126    16174        %PARSE_NODES (NAME=VM_DEFAULT_NODES,
      127    16175                    STCLASS="CONSTANT SYMDEF",
      128    16176                    N0=MAIL_NODES,
      129    16177                    N1=MAIL_CMD,
      130    16178                    N2=MODIFY_LIST,
      131    16179                    N3=MODIFY_USER,
      132    16180                    N15=SEND_CMD,
      133    16181                    N26=ADDRESS_SPEC);
      134    16216        %NATL_PAIRS (NAME=VM_NATL_PAIRS,
      135    16217                    STCLASS="CONSTANT SYMDEF",
      136    16218                    NATL_CHARS="' '*0",
      137    16219                    NODES$="ADDR(VM_DEFAULT_NODES), ADDR(NIL)*0");
      138    16237        %PARSE_NODES(NAME=NODES_TO_USE,
      139    16238                    STCLASS="BASED(NODES$)");
      140    16273    1   DCL   NODES$      PTR;
      141    16274
      142    16275    1   dcl 1  VM_NODENAMES   constant symdef
      143    16276
PL6.E3A0      #001=VMO$MAIL File=VMO$MAIL.:VMB6TSI                               WED 08/20/97 15:19 Page:249
      144    16277                    %BUILD_NODENAMES( N=0, NAME=MAIL_NODES);
      145    16289                    %BUILD_NODENAMES( N=1, NAME=MAIL_CMD);
      146    16301                    %BUILD_NODENAMES( N=2, NAME=MODIFY_LIST);
      147    16313                    %BUILD_NODENAMES( N=3, NAME=MODIFY_USER);
      148    16325                    %BUILD_NODENAMES( N=15, NAME=SEND_CMD);
      149    16337                    %BUILD_NODENAMES( N=26, NAME=ADDRESS_SPEC);
      150    16349
      151    16350                    %BUILD_NODENAMES( DONE=YES );
      152    16362
      153    16363        %VLP_NAME( FPTN=VM_NODEFID, NAME='VM_NODES', STCLASS="CONSTANT SYMDEF");
      154    16390        /***** External routines *****/
      155    16391    1   DCL VMA$ADD_RENTRY_SORTED ENTRY(6) ALTRET;
      156    16392    1   DCL VMA$ADD_UENTRY_SORTED ENTRY(6) ALTRET;
      157    16393    1   DCL VMA$COMPRESS_BLANKS ENTRY(1);
      158    16394    1   DCL VMA$DEL_LIST ENTRY(3) ALTRET;
      159    16395    1   DCL VMA$DEL_RENTRY ENTRY(6) ALTRET;
      160    16396    1   DCL VMA$DEL_UENTRY ENTRY(6) ALTRET;
      161    16397    1   DCL VMA$ENLARGE_SEGMENT ENTRY(2) ALTRET;
      162    16398    1   DCL VMA$GET_SITE_NAME ENTRY(4) ALTRET;
      163    16399    1   DCL VMA$GET_NEXT_ENTRY ENTRY(4) ALTRET;
      164    16400    1   DCL VMA$GET_LIST ENTRY(3) ALTRET;
      165    16401
      166    16402    1   DCL VMA$GET_LIST_NEXT ENTRY(3) ALTRET;
      167    16403    1   DCL VMA$MOREMEM ENTRY(3) ALTRET;
      168    16404    1   DCL VMA$OPEN_FOLDER ENTRY(5) ALTRET;
      169    16405    1   DCL VMA$OPEN_GLOBAL ENTRY(1) ALTRET;
      170    16406    1   DCL VMA$PUT_LIST ENTRY(3) ALTRET;
      171    16407    1   DCL VMB$FIND_DEFAULT ENTRY(7) ALTRET;
      172    16408    1   DCL VMB$USE_SPECIFIED ENTRY(7) ALTRET;
      173    16409    1   DCL VMB$USE_DEFAULT ENTRY(7) ALTRET;
      174    16410    1   DCL VMD$DI_FOLDER ENTRY(2);
      175    16411    1   DCL VMB$USE_SAME ENTRY(7) ALTRET;
      176    16412    1   dcl VMB$TESTREG entry(1) altret;
      177    16413    1   DCL VMA$OPEN_SRCH_LIST ENTRY(1) ALTRET;
      178    16414    1   DCL VMA$SHRINK_SEGMENT ENTRY(2) ALTRET;
      179    16415    1   DCL VMA$OPEN_ENCL_SEGS ENTRY ALTRET;
      180    16416    1   DCL VMA$PUT_ADD_RECORD ENTRY(4) ALTRET;
PL6.E3A0      #001=VMO$MAIL File=VMO$MAIL.:VMB6TSI                               WED 08/20/97 15:19 Page:250
      181    16417    1   DCL VMD$DI_HEADER ENTRY(3);
      182    16418    1   DCL VMD$DI_LIST ENTRY(4);
      183    16419    1   DCL VMD$DI_MESSAGE ENTRY(6) ALTRET;
      184    16420    1   DCL VMD$DI_PROFILE ENTRY(1);
      185    16421    1   DCL VMD$DI_USER ENTRY(2);
      186    16422    1   DCL VMD$DEL_HEADER ENTRY(2) ALTRET;
      187    16423    1   DCL VMD$EJECT ENTRY(1) ALTRET;
      188    16424        %INIT_STR(DODCL=YES);
      189    16447    1   DCL  VMD$GETNODES            ENTRY(4);
      190    16448    1   DCL VMD$GET_HEADER ENTRY(2) ALTRET;
      191    16449    1   DCL VMD$GET_HEADER_NEXT ENTRY(2) ALTRET;
      192    16450    1   DCL VMD$GET_HEADER_PREV ENTRY(2) ALTRET;
      193    16451    1   DCL VMD$PUT_HEADER ENTRY(2) ALTRET;
      194    16452    1   DCL VMD$GET_PROFILE ENTRY(1) ALTRET;
      195    16453    1   DCL VMD$PUT_PROFILE ENTRY(1) ALTRET;
      196    16454    1   DCL VMD$GET_ENCL ENTRY (9) ALTRET;
      197    16455    1   DCL VMD$PUT_ENCL ENTRY (9) ALTRET;
      198    16456    1   DCL VMD$DEL_ENCL ENTRY (9) ALTRET;
      199    16457    1   DCL VMD$PUT_ID ENTRY (3) ALTRET;
      200    16458    1   DCL VMD$WRITE_BUF ENTRY(1);             /* Takes place of X$FORMAT */
      201    16459    1   DCL VME$ACKNOWLEDGE ENTRY(3) ALTRET;
      202    16460    1   DCL VME$ANSWER ENTRY(3) ALTRET;
      203    16461    1   DCL VMF$FROM ENTRY(1) ALTRET;
      204    16462    1   DCL VMF$MAKE_ADDRESS1 ENTRY(2);
      205    16463    1   dcl VMF$MAKE_ADDRESS1PASS entry(2);   /** Adds password if present **/
      206    16464    1   DCL VMM$COPY_MESSAGE ENTRY(6) ALTRET;
      207    16465    1   DCL VMM$DELETE_MESSAGE ENTRY(2) ALTRET;
      208    16466    1   DCL VMM$COMBINE_MESSAGE ENTRY (3) ALTRET;
      209    16467    1   DCL VMM$EDIT_MESSAGE_OUT ENTRY (5) ALTRET;
      210    16468    1   DCL VMO$XCON ENTRY ASYNC;
      211    16469    1   DCL VMO$ABORT ENTRY;
      212    16470    1   DCL VMS$FMT_SELECT ENTRY(2);
      213    16471    1   DCL VMS$SELECT ENTRY(3) ALTRET;
      214    16472    1   DCL VMS$MOVE_SELECT ENTRY(3) ALTRET;
      215    16473    1   DCL VMA$GET_ADD_RECORD ENTRY(4) ALTRET;
      216    16474    1   DCL X$WILDCMP ENTRY(1) ALTRET;
      217    16475    1   DCL VMX$OCTBIN ENTRY(2);
PL6.E3A0      #001=VMO$MAIL File=VMO$MAIL.:VMB6TSI                               WED 08/20/97 15:19 Page:251
      218    16476    1   DCL X$ALLOCATE ENTRY(1) ALTRET;
      219    16477    1   DCL X$DEALLOCATE ENTRY(1) ALTRET;
      220    16478    1   DCL X$HELP ENTRY(1) ALTRET;
      221    16479        /***** Symdef data *****/
      222    16480    1   DCL VMO_REMEMBER REMEMBER STATIC SYMDEF;
      223    16481    1   DCL CURRENT_MESSAGE_NUMBER SBIN WORD STATIC SYMDEF INIT(0);
      224    16482    1   DCL NEED_TITLE_BAR BIT (1) SYMREF;
      225    16483        /***** Character data *****/
      226    16484
      227    16485    1   DCL KEY_VALUE CHAR(8) CALIGNED;
      228    16486    1   DCL WILDCARD_PATTERN CHAR(%SIZ_FOLDER);
      229    16487    1   DCL CURRENT_LINE CHAR (P_PCB.NCHARS) CALIGNED BASED (P_PCB.TEXT$);
      230    16488        %VLP_NAME (FPTN=LINK_CCBUF,LEN=256,STCLASS=STATIC);
      231    16515
      232    16516        %VLP_NAME (FPTN=WORK_STRING,LEN=511,STCLASS=STATIC);
      233    16543    1   DCL B_VERSION CHAR(1) SYMREF;           /* Mail version */
      234    16544    1   DCL 1 B$VERSION BASED,
      235    16545    1         2 L# UBIN BYTE CALIGNED,
      236    16546    1         2 NAME# CHAR(B$VERSION.L#) CALIGNED;
      237    16547        /***** Ptrs *****/
      238    16548    1   DCL OUT$ PTR;
      239    16549        %VLP_ERRCODE (FPTN=OUTERR,STCLASS="REDEF OUT$");
      240    16594    1   DCL BLK$ PTR AUTO;
      241    16595    1   DCL PTR1$ PTR AUTO;
      242    16596    1   DCL PTR2$ PTR AUTO;
      243    16597    1   DCL PTR3$ PTR AUTO;
      244    16598    1   DCL PTR4$ PTR AUTO;
      245    16599        %POINTER (NAME=PTR4R$,STCLASS="REDEF PTR4$");
      246    16604    1   DCL PTR5$ PTR AUTO;
      247    16605    1   DCL ENCL$ PTR;
      248    16606    1   DCL PAGESIZE SBIN WORD STATIC INIT(4096);
      249    16607        /***** Index counters *****/
      250    16608    1   DCL INDX1 SBIN WORD AUTO;
      251    16609    1   DCL INDX2 SBIN WORD STATIC SYMDEF;
      252    16610    1   DCL INDX3 SBIN WORD AUTO;
      253    16611    1   DCL INDX4 SBIN WORD AUTO;
      254    16612        /***** Other variables *****/
PL6.E3A0      #001=VMO$MAIL File=VMO$MAIL.:VMB6TSI                               WED 08/20/97 15:19 Page:252
      255    16613    1   DCL WORK_UTS UBIN WORD STATIC;
      256    16614    1   DCL NEW_FLAG BIT(1) STATIC INIT('0'B);
      257    16615    1   DCL BREAK_TYPE UBIN WORD STATIC SYMDEF INIT(0);
      258    16616    1   DCL DCB# UBIN WORD STATIC;
      259    16617    1   DCL OUTDCB UBIN WORD STATIC INIT(DCBNUM(M$LO));
      260    16618    1   DCL M$OUT_NUM UBIN WORD CONSTANT SYMDEF INIT(DCBNUM(M$OUT));
      261    16619    1   DCL SELECT_CURRENT BIT(1) STATIC;       /* Special select mode bit */
      262    16620    1   DCL FOLDER_WAS_OPEN BIT(1) STATIC SYMDEF;
      263    16621    1   DCL REOPENED_FOLDER BIT(1) STATIC;      /* For bad use recovery */
      264    16622    1   DCL COMBINED BIT (1);
      265    16623    1   DCL NONE BIT (1);
      266    16624    1   DCL MADE_OLD BIT(1);
      267    16625    1   DCL WILD BIT(1);
      268    16626        /***** Variables for list and user definitions *****/
      269    16627        %VLP_ACCT (FPTN=ADDRESS_ACCT,STCLASS=AUTO);
      270    16640        %VLP_ACCT (FPTN=ADDRESS_LACCN,STCLASS=AUTO);
      271    16653    1   DCL ADDRESS_LUNAME CHAR(12) AUTO;       /* Same size as B$JIT.UNAME */
      272    16654        %VLP_NAME (FPTN=ADDRESS_NAME,LEN=511,STCLASS=AUTO);
      273    16681        %VLP_PASS (FPTN=ADDRESS_PASS,STCLASS=AUTO);
      274    16694    1   DCL ADDRESS_FOLDER CHAR(%SIZ_FOLDER) AUTO;
      275    16695    1   DCL ADDRESS_SITENAME CHAR(%SIZ_SITENAME) AUTO;
      276    16696    1   DCL DOMAIN$ PTR;
      277    16697    1   DCL MAIL_PROMPT (0:2) CHAR STATIC INIT (BITASC('100000010'B),'p','>');
      278    16698        %VLP_NAME (FPTN=VM_MODIFY_LIST_PROMPT, LEN=15, L=15, NAME=' ', STCLASS=STATIC);
      279    16725        %VLP_ERRCODE (FPTN=E_MODIFY_LIST_PROMPT, STCLASS="CONSTANT SYMDEF",
      280    16726                    ERR#=%E$MODIFY_LIST_PROMPT,          FCG=VM,MID=O);
      281    16771        /*E*  ERROR: VMO-E$MODIFY_LIST_PROMPT-0
      282    16772              MESSAGE:pList>
      283    16773        */
      284    16774             %VLP_NAME (FPTN=VM_MODIFY_USER_PROMPT, LEN=15, L=15, NAME=' ', STCLASS=STATIC)
             16774                  ;
      285    16801        %VLP_ERRCODE (FPTN=E_MODIFY_USER_PROMPT, STCLASS="CONSTANT SYMDEF",
      286    16802                    ERR#=%E$MODIFY_USER_PROMPT,          FCG=VM,MID=O);
      287    16847        /*E*  ERROR: VMO-E$MODIFY_USER_PROMPT-0
      288    16848              MESSAGE:pUser>
      289    16849        */
      290    16850    1   DCL EXIT_MAIL# BIT(1) STATIC INIT(%NO#); /* End spec. on invocation */
PL6.E3A0      #001=VMO$MAIL File=VMO$MAIL.:VMB6TSI                               WED 08/20/97 15:19 Page:253
      291    16851    1   DCL EXIT_MAIL_PEND# BIT(1) STATIC INIT(%NO#); /* allows read as setup command */
      292    16852    1   DCL PRINT_HEADER# BIT(1) STATIC;        /* Header spec. in profile? */
      293    16853    1   DCL OUTBUF CHAR(300) STATIC ;           /* Used as an output buffer */
      294    16854    1   DCL TEMPBUF CHAR(%SIZ_LISTNAME) AUTO;   /* Same size as VM_LISTKEY.TEXT */
      295    16855    1   DCL SIZE UBIN WORD STATIC INIT(0);
      296    16856    1   DCL EJECT BIT (1);
      297    16857    1   DCL ANSI_TIME CHAR (8) STATIC;
      298    16858    1   DCL ANSI_DATE CHAR (6) STATIC;
      299    16859    1   DCL ID CHAR (511);
      300    16860    1   DCL COUNT SBIN;
      301    16861    1   DCL INDX1_CHARS CHAR(INDX1) BASED;
      302    16862        /***** Command processing variables *****/
      303    16863        %VLP_NAME (FPTN=NEXT_COMMAND_TEXT,LEN=511,STCLASS=AUTO);
      304    16890    1   DCL NEXT_COMMAND_ECHO# BIT(1) STATIC INIT(%NO#); /* Echo NEXT_COMMAND? */
      305    16891    1   DCL CURR_COMMAND_CODE UBIN WORD STATIC INIT(0); /* Current command */
      306    16892    1   DCL LAST_COMMAND_CODE UBIN WORD STATIC INIT(%CMD_LIST_MESSAGE);
      307    16893    1   DCL M$CMNDF_NUM UBIN WORD STATIC INIT(DCBNUM(M$CMNDF));
      308    16894
      309    16895
      310    16896        %EJECT;
PL6.E3A0      #001=VMO$MAIL File=VMO$MAIL.:VMB6TSI                               WED 08/20/97 15:19 Page:254
      311    16897        /*
      312    16898             ***** Macros that define mail structures ...
      313    16899        */
      314    16900        %VM_KEYTYPES;
      315    16921
      316    16922        %VM_ADDTYPES;
      317    16926
      318    16927        %VM_PROFILE;
      319    17014
      320    17015        %VM_PROFILE (NAME=CVM_PROFILE,STCLASS=CONSTANT);
      321    17102
      322    17103        %VM_HEADER;
      323    17232
      324    17233        %VM_INFOKEY (NAME=VM_HEADKEY,TYP=%VM_TYPE_HEAD);
      325    17250
      326    17251        %VM_INFOKEY;
      327    17268
      328    17269        %VM_BODYKEY;
      329    17289
      330    17290        %VM_LISTKEY;
      331    17306
      332    17307        %VM_LISTKEY (NAME=VM_LISTKEY2);
      333    17323
      334    17324        %VM_USERKEY;
      335    17340
      336    17341        %VM_USERKEY (NAME=VM_USERKEY2);
      337    17357
      338    17358        %VM_ADD_HEAD;
      339    17387
      340    17388        %VM_RADDRESS (NAME=VM$RADDRESS,STCLASS=BASED);
      341    17423
      342    17424        %VM_UADDRESS (NAME=VM$UADDRESS,STCLASS=BASED);
      343    17461
      344    17462        %VM_ID (NAME=VM_ID, STCLASS="BASED(VM_HEADER$)");
      345    17475
      346    17476        %VM_BODYTYPES;
      347    17482
PL6.E3A0      #001=VMO$MAIL File=VMO$MAIL.:VMB6TSI                               WED 08/20/97 15:19 Page:255
      348    17483
      349    17484        %VM_ADD_HEAD (NAME=VM_ENCL_HEAD,STCLASS="BASED(VM_ENCLLIST$)");
      350    17513
      351    17514        %VM_ENCLOS (STCLASS="BASED(ENCL$)");
      352    17545
      353    17546        %VM_BODYREC (NAME=VM_ENCLREC,VARYLEN=YES,STCLASS="BASED(VM_ENCLREC$)",TYP=
             17546            %VM_BODY_BINARY_ENCL);
      354    17578
      355    17579        %SET LISTMAC = '0'B;
      356    17580        %SET LISTSUB = '0'B;
      357    17581        %VM_RADDRESS (NAME=VM_RADDRESS,STCLASS=AUTO);
      358    17616
      359    17617        %VM_UADDRESS (NAME=VM_UADDRESS,STCLASS=AUTO);
      360    17654        %SET LISTMAC = '1'B;
      361    17655        %SET LISTSUB = '1'B;
      362    17656
      363    17657        %VM_CGBUFFER (STCLASS="STATIC SYMDEF");
             17658        %LSET LISTDIR='0'B;
             17667    1   DCL 1 VM_CGBUFFER STATIC SYMDEF,
             17668    1         2 STATION# CHAR(8) CALIGNED %INIT(' ')%CHARTEXT('/**/'),
             17669    1         2 COMMAND SBIN WORD CALIGNED %INIT(0)%CHARTEXT('/**/'),
             17670    1         2 FOLDER,
             17671    1           3 COUNT UBIN BYTE CALIGNED %INIT(0)%CHARTEXT('/**/'),
             17672    1           3 TEXT CHAR(25) CALIGNED %INIT(' ')%CHARTEXT('/**/'),
             17673    1         2 * SBIN HALF CALIGNED %INIT(0)%CHARTEXT('/**/'),
             17674    1         2 ACCT CHAR(8) CALIGNED %INIT(' ')%CHARTEXT('/**/'),
             17675    1         2 * CHAR(24) CALIGNED %INIT(' ')%CHARTEXT('/**/'),
             17676    1         2 FILE_NAME,
             17677    1           3 COUNT UBIN BYTE CALIGNED %INIT(0)%CHARTEXT('/**/'),
             17678    1           3 TEXT CHAR(31) CALIGNED %INIT(' ')%CHARTEXT('/**/'),
             17679    1         2 ERROR ,
             17680                      /* Error code returned by MAILMAN */
             17681    1           3 FCG BIT(12) UNAL,
             17682    1           3 MID BIT(6) UNAL,
             17683    1           3 MON BIT(1) UNAL,
             17684    1           3 ERR# UBIN(14) UNAL,
             17685    1           3 SEV UBIN(3) UNAL,
PL6.E3A0      #001=VMO$MAIL File=VMO$MAIL.:VMB6TSI                               WED 08/20/97 15:19 Page:256
             17686    1         2 * CHAR(36) CALIGNED %INIT(' ')%CHARTEXT('/**/');
      364    17688
      365    17689                                           /* Information on the users central folder */
      366    17690        %VM_FOLDER_INFO (NAME=VM_CENTRAL_FOLDER);
             17691        %LSET LISTDIR='0'B;
             17700    1   DCL 1 VM_CENTRAL_FOLDER STATIC,
             17701    1         2 PSID CHAR(6) CALIGNED %INIT(' ')%CHARTEXT('/**/'),
             17702                          /* Packset on which this folder resides */
             17703    1         2 ACCT CHAR(8) CALIGNED %INIT(' ')%CHARTEXT('/**/'),
             17704                            /* Account where this folder resides */
             17705    1         2 FOLDER CHAR(25) CALIGNED %INIT(' ')%CHARTEXT('/**/'),
             17706                            /* Name of this folder */
             17707    1         2 PASS CHAR(8) CALIGNED %INIT(' ')%CHARTEXT('/**/'),
             17708                            /* Password (if any) of this folder */
             17709    1         2 SITENAME CHAR(8) %INIT(' ')%CHARTEXT('/**/'),
             17710                            /* Site where this folder exists */
             17711    1         2 TIME,
             17712                            /* Various times of interest */
             17713    1           3 ACCESS UBIN WORD %INIT(0)%CHARTEXT('/**/'),
             17714                            /* Time that this file was last accessed */
             17715    1           3 CREATION UBIN WORD %INIT(0)%CHARTEXT('/**/'),
             17716                            /* Time that this file was created */
             17717    1           3 MODIFY UBIN WORD %INIT(0)%CHARTEXT('/**/'),
             17718                            /* Time that this file was last modified */
             17719    1         2 NRECS UBIN WORD %INIT(0)%CHARTEXT('/**/'),
             17720                            /* Number of records in this file */
             17721    1         2 UGRANS UBIN WORD %INIT(0)%CHARTEXT('/**/'),
             17722                            /* Number of granules currently in use */
             17723    1         2 FLAGS,
             17724    1           3 UPDATE BIT(1) UNAL %INIT('0'B)%CHARTEXT('/**/'),
             17725                            /* May the user UPDATE or just READ this folder */
             17726    1           3 OWNER BIT(1) UNAL %INIT('0'B)%CHARTEXT('/**/'),
             17727                            /* Is current user OWNER of this folder? */
             17728    1           3 ACCT_SPEC BIT(1) UNAL %INIT('0'B)%CHARTEXT('/**/'),
             17729                            /* Was a account specified in the address? */
             17730    1           3 FOLDER_SPEC BIT(1) UNAL %INIT('0'B)%CHARTEXT('/**/'),
             17731                            /* Was a folder specified in the address? */
PL6.E3A0      #001=VMO$MAIL File=VMO$MAIL.:VMB6TSI                               WED 08/20/97 15:19 Page:257
             17732    1           3 SITENAME_SPEC BIT(1) UNAL %INIT('0'B)%CHARTEXT('/**/'),
             17733                            /* Was a sitename specified in the address? */
             17734    1           3 OPEN BIT(1) UNAL %INIT('0'B)%CHARTEXT('/**/'),
             17735                            /* Has this folder been opened? */
             17736    1           3 RESERVED BIT(30) UNAL %INIT('0'B)%CHARTEXT('/**/'),
             17737    1         2 USER_NAME,
             17738                            /* Name that got us to this folder */
             17739    1           3 COUNT UBIN BYTE CALIGNED %INIT(0)%CHARTEXT('/**/'),
             17740    1           3 TEXT CHAR(200) CALIGNED %INIT(' ')%CHARTEXT('/**/');
      367    17742                                 /* Information on the folder currently being used */
      368    17743        %VM_FOLDER_INFO (NAME=VM_CURRENT_FOLDER,STCLASS="STATIC SYMDEF");
             17744        %LSET LISTDIR='0'B;
             17753    1   DCL 1 VM_CURRENT_FOLDER STATIC SYMDEF,
             17754    1         2 PSID CHAR(6) CALIGNED %INIT(' ')%CHARTEXT('/**/'),
             17755                          /* Packset on which this folder resides */
             17756    1         2 ACCT CHAR(8) CALIGNED %INIT(' ')%CHARTEXT('/**/'),
             17757                            /* Account where this folder resides */
             17758    1         2 FOLDER CHAR(25) CALIGNED %INIT(' ')%CHARTEXT('/**/'),
             17759                            /* Name of this folder */
             17760    1         2 PASS CHAR(8) CALIGNED %INIT(' ')%CHARTEXT('/**/'),
             17761                            /* Password (if any) of this folder */
             17762    1         2 SITENAME CHAR(8) %INIT(' ')%CHARTEXT('/**/'),
             17763                            /* Site where this folder exists */
             17764    1         2 TIME,
             17765                            /* Various times of interest */
             17766    1           3 ACCESS UBIN WORD %INIT(0)%CHARTEXT('/**/'),
             17767                            /* Time that this file was last accessed */
             17768    1           3 CREATION UBIN WORD %INIT(0)%CHARTEXT('/**/'),
             17769                            /* Time that this file was created */
             17770    1           3 MODIFY UBIN WORD %INIT(0)%CHARTEXT('/**/'),
             17771                            /* Time that this file was last modified */
             17772    1         2 NRECS UBIN WORD %INIT(0)%CHARTEXT('/**/'),
             17773                            /* Number of records in this file */
             17774    1         2 UGRANS UBIN WORD %INIT(0)%CHARTEXT('/**/'),
             17775                            /* Number of granules currently in use */
             17776    1         2 FLAGS,
             17777    1           3 UPDATE BIT(1) UNAL %INIT('0'B)%CHARTEXT('/**/'),
PL6.E3A0      #001=VMO$MAIL File=VMO$MAIL.:VMB6TSI                               WED 08/20/97 15:19 Page:258
             17778                            /* May the user UPDATE or just READ this folder */
             17779    1           3 OWNER BIT(1) UNAL %INIT('0'B)%CHARTEXT('/**/'),
             17780                            /* Is current user OWNER of this folder? */
             17781    1           3 ACCT_SPEC BIT(1) UNAL %INIT('0'B)%CHARTEXT('/**/'),
             17782                            /* Was a account specified in the address? */
             17783    1           3 FOLDER_SPEC BIT(1) UNAL %INIT('0'B)%CHARTEXT('/**/'),
             17784                            /* Was a folder specified in the address? */
             17785    1           3 SITENAME_SPEC BIT(1) UNAL %INIT('0'B)%CHARTEXT('/**/'),
             17786                            /* Was a sitename specified in the address? */
             17787    1           3 OPEN BIT(1) UNAL %INIT('0'B)%CHARTEXT('/**/'),
             17788                            /* Has this folder been opened? */
             17789    1           3 RESERVED BIT(30) UNAL %INIT('0'B)%CHARTEXT('/**/'),
             17790    1         2 USER_NAME,
             17791                            /* Name that got us to this folder */
             17792    1           3 COUNT UBIN BYTE CALIGNED %INIT(0)%CHARTEXT('/**/'),
             17793    1           3 TEXT CHAR(200) CALIGNED %INIT(' ')%CHARTEXT('/**/');
      369    17795        %VM_FOLDER_INFO (NAME=VM_CURRENT_FOLDER_SAVE,STCLASS=STATIC);
             17796        %LSET LISTDIR='0'B;
             17805    1   DCL 1 VM_CURRENT_FOLDER_SAVE STATIC,
             17806    1         2 PSID CHAR(6) CALIGNED %INIT(' ')%CHARTEXT('/**/'),
             17807                          /* Packset on which this folder resides */
             17808    1         2 ACCT CHAR(8) CALIGNED %INIT(' ')%CHARTEXT('/**/'),
             17809                            /* Account where this folder resides */
             17810    1         2 FOLDER CHAR(25) CALIGNED %INIT(' ')%CHARTEXT('/**/'),
             17811                            /* Name of this folder */
             17812    1         2 PASS CHAR(8) CALIGNED %INIT(' ')%CHARTEXT('/**/'),
             17813                            /* Password (if any) of this folder */
             17814    1         2 SITENAME CHAR(8) %INIT(' ')%CHARTEXT('/**/'),
             17815                            /* Site where this folder exists */
             17816    1         2 TIME,
             17817                            /* Various times of interest */
             17818    1           3 ACCESS UBIN WORD %INIT(0)%CHARTEXT('/**/'),
             17819                            /* Time that this file was last accessed */
             17820    1           3 CREATION UBIN WORD %INIT(0)%CHARTEXT('/**/'),
             17821                            /* Time that this file was created */
             17822    1           3 MODIFY UBIN WORD %INIT(0)%CHARTEXT('/**/'),
             17823                            /* Time that this file was last modified */
PL6.E3A0      #001=VMO$MAIL File=VMO$MAIL.:VMB6TSI                               WED 08/20/97 15:19 Page:259
             17824    1         2 NRECS UBIN WORD %INIT(0)%CHARTEXT('/**/'),
             17825                            /* Number of records in this file */
             17826    1         2 UGRANS UBIN WORD %INIT(0)%CHARTEXT('/**/'),
             17827                            /* Number of granules currently in use */
             17828    1         2 FLAGS,
             17829    1           3 UPDATE BIT(1) UNAL %INIT('0'B)%CHARTEXT('/**/'),
             17830                            /* May the user UPDATE or just READ this folder */
             17831    1           3 OWNER BIT(1) UNAL %INIT('0'B)%CHARTEXT('/**/'),
             17832                            /* Is current user OWNER of this folder? */
             17833    1           3 ACCT_SPEC BIT(1) UNAL %INIT('0'B)%CHARTEXT('/**/'),
             17834                            /* Was a account specified in the address? */
             17835    1           3 FOLDER_SPEC BIT(1) UNAL %INIT('0'B)%CHARTEXT('/**/'),
             17836                            /* Was a folder specified in the address? */
             17837    1           3 SITENAME_SPEC BIT(1) UNAL %INIT('0'B)%CHARTEXT('/**/'),
             17838                            /* Was a sitename specified in the address? */
             17839    1           3 OPEN BIT(1) UNAL %INIT('0'B)%CHARTEXT('/**/'),
             17840                            /* Has this folder been opened? */
             17841    1           3 RESERVED BIT(30) UNAL %INIT('0'B)%CHARTEXT('/**/'),
             17842    1         2 USER_NAME,
             17843                            /* Name that got us to this folder */
             17844    1           3 COUNT UBIN BYTE CALIGNED %INIT(0)%CHARTEXT('/**/'),
             17845    1           3 TEXT CHAR(200) CALIGNED %INIT(' ')%CHARTEXT('/**/');
      370    17847
      371    17848                                           /* Information on folders temporarily open */
      372    17849        %VM_FOLDER_INFO (NAME=VM_WORK_FOLDER,STCLASS="STATIC SYMDEF");
             17850        %LSET LISTDIR='0'B;
             17859    1   DCL 1 VM_WORK_FOLDER STATIC SYMDEF,
             17860    1         2 PSID CHAR(6) CALIGNED %INIT(' ')%CHARTEXT('/**/'),
             17861                          /* Packset on which this folder resides */
             17862    1         2 ACCT CHAR(8) CALIGNED %INIT(' ')%CHARTEXT('/**/'),
             17863                            /* Account where this folder resides */
             17864    1         2 FOLDER CHAR(25) CALIGNED %INIT(' ')%CHARTEXT('/**/'),
             17865                            /* Name of this folder */
             17866    1         2 PASS CHAR(8) CALIGNED %INIT(' ')%CHARTEXT('/**/'),
             17867                            /* Password (if any) of this folder */
             17868    1         2 SITENAME CHAR(8) %INIT(' ')%CHARTEXT('/**/'),
             17869                            /* Site where this folder exists */
PL6.E3A0      #001=VMO$MAIL File=VMO$MAIL.:VMB6TSI                               WED 08/20/97 15:19 Page:260
             17870    1         2 TIME,
             17871                            /* Various times of interest */
             17872    1           3 ACCESS UBIN WORD %INIT(0)%CHARTEXT('/**/'),
             17873                            /* Time that this file was last accessed */
             17874    1           3 CREATION UBIN WORD %INIT(0)%CHARTEXT('/**/'),
             17875                            /* Time that this file was created */
             17876    1           3 MODIFY UBIN WORD %INIT(0)%CHARTEXT('/**/'),
             17877                            /* Time that this file was last modified */
             17878    1         2 NRECS UBIN WORD %INIT(0)%CHARTEXT('/**/'),
             17879                            /* Number of records in this file */
             17880    1         2 UGRANS UBIN WORD %INIT(0)%CHARTEXT('/**/'),
             17881                            /* Number of granules currently in use */
             17882    1         2 FLAGS,
             17883    1           3 UPDATE BIT(1) UNAL %INIT('0'B)%CHARTEXT('/**/'),
             17884                            /* May the user UPDATE or just READ this folder */
             17885    1           3 OWNER BIT(1) UNAL %INIT('0'B)%CHARTEXT('/**/'),
             17886                            /* Is current user OWNER of this folder? */
             17887    1           3 ACCT_SPEC BIT(1) UNAL %INIT('0'B)%CHARTEXT('/**/'),
             17888                            /* Was a account specified in the address? */
             17889    1           3 FOLDER_SPEC BIT(1) UNAL %INIT('0'B)%CHARTEXT('/**/'),
             17890                            /* Was a folder specified in the address? */
             17891    1           3 SITENAME_SPEC BIT(1) UNAL %INIT('0'B)%CHARTEXT('/**/'),
             17892                            /* Was a sitename specified in the address? */
             17893    1           3 OPEN BIT(1) UNAL %INIT('0'B)%CHARTEXT('/**/'),
             17894                            /* Has this folder been opened? */
             17895    1           3 RESERVED BIT(30) UNAL %INIT('0'B)%CHARTEXT('/**/'),
             17896    1         2 USER_NAME,
             17897                            /* Name that got us to this folder */
             17898    1           3 COUNT UBIN BYTE CALIGNED %INIT(0)%CHARTEXT('/**/'),
             17899    1           3 TEXT CHAR(200) CALIGNED %INIT(' ')%CHARTEXT('/**/');
      373    17901
      374    17902                            /* Search list info describing how to resolve addresses */
      375    17903        %VM_SEARCH_INFO  (STCLASS=STATIC);
             17904        %LSET LISTDIR='0'B;
             17913    1   DCL 1 VM_SEARCH_INFO STATIC,
             17914    1         2 NUM_ENTRIES UBIN WORD,
             17915                            /* Number of folders to be searched */
PL6.E3A0      #001=VMO$MAIL File=VMO$MAIL.:VMB6TSI                               WED 08/20/97 15:19 Page:261
             17916    1         2 DCB# (0:10) UBIN WORD %INIT(0*11)%CHARTEXT('/**/'),
             17917                            /* Number of dcb which points to folder to search */
             17918    1         2 MAP(0:10) UBIN WORD %INIT(0*11)%CHARTEXT('/**/'),
             17919                           /* Maps entry numbers to SEARCH_LIST$ in profile */
             17920    1         2 GETDCB#(0:10) UBIN WORD %INIT(0*11)%CHARTEXT('/**/'),
             17921                            /* DCB number for this slot (via get dcb) */
             17922    1         2 ACTIVE BIT(1) UNAL %INIT('0'B)%CHARTEXT('/**/'),
             17923                            /* All files are open */
             17924    1         2 GLOBAL BIT(1) UNAL %INIT('0'B)%CHARTEXT('/**/'),
             17925                            /* Global folder exists */
             17926    1         2 CURRENT BIT(1) UNAL %INIT('0'B)%CHARTEXT('/**/'),
             17927                            /* Local folder exists */
             17928    1         2 * BIT(33) UNAL;
      376    17930
      377    17931                                                /* Wild card matching info */
      378    17932        %XUW_WILDCARD (FPTN=VM_WILDCARD,STCLASS=STATIC);
             17933        %LSET LISTDIR='0'B;
             17994    1   DCL 1 VM_WILDCARD STATIC DALIGNED,
             17995    1         2 PATTERN_ ALIGNED,
             17996    1           3 BOUND SBIN(20) UNAL INIT(SIZEV(NIL))/**/,
             17997    1           3 * BIT(12) INIT('7772'O)/**/,
             17998    1           3 * BIT(4) INIT('0'B)/**/,
             17999    1           3 PATTERN$ PTR INIT(ADDR(NIL))/**/,
             18000    1         2 INPUT_ ALIGNED,
             18001    1           3 BOUND SBIN(20) UNAL INIT(SIZEV(NIL))/**/,
             18002    1           3 * BIT(12) INIT('7772'O)/**/,
             18003    1           3 * BIT(4) INIT('0'B)/**/,
             18004    1           3 INPUT$ PTR INIT(ADDR(NIL))/**/,
             18005    1         2 TEMPLATE_ ALIGNED,
             18006    1           3 BOUND SBIN(20) UNAL INIT(SIZEV(NIL))/**/,
             18007    1           3 * BIT(12) INIT('7772'O)/**/,
             18008    1           3 * BIT(4) INIT('0'B)/**/,
             18009    1           3 TEMPLATE$ PTR INIT(ADDR(NIL))/**/,
             18010    1         2 OUTPUT_ ALIGNED,
             18011    1           3 BOUND SBIN(20) UNAL INIT(SIZEV(NIL))/**/,
             18012    1           3 * BIT(12) INIT('7772'O)/**/,
             18013    1           3 * BIT(4) INIT('0'B)/**/,
PL6.E3A0      #001=VMO$MAIL File=VMO$MAIL.:VMB6TSI                               WED 08/20/97 15:19 Page:262
             18014    1           3 OUTPUT$ PTR INIT(ADDR(NIL))/**/,
             18015    1         2 ERROR ALIGNED,
             18016    1           3 FCG BIT(12) UNAL INIT('0'O)/**/,
             18017    1           3 MID BIT(6) UNAL INIT('0'O)/**/,
             18018    1           3 MON BIT(1) UNAL INIT('0'B)/**/,
             18019    1           3 ERR# UBIN(14) UNAL INIT(0)/**/,
             18020    1           3 SEV UBIN(3) UNAL INIT(0)/**/,
             18021    1         2 WILD_CHAR# CALIGNED CHAR(1) INIT('?')/**/,
             18022    1         2 CONTAINS# BIT(1) UNAL INIT('0'B)/**/,
             18023    1         2 * BIT(8) UNAL INIT('0'B)/**/,
             18024    1         2 * BIT(18) UNAL INIT('0'B)/**/,
             18025    1         2 OUTPUT_LEN UBIN WORD ALIGNED INIT(0)/**/,
             18026    1         2 * BIT(36) ALIGNED INIT('0'B)/**/;
      379    18028        %SET LISTMAC = '0'B;
      380    18029        %SET LISTSUB = '0'B;
      381    18030        %EJECT;
PL6.E3A0      #001=VMO$MAIL File=VMO$MAIL.:VMB6TSI                               WED 08/20/97 15:19 Page:263
      382    18031        /***** Selection context information *****/
      383    18032        %SET LISTMAC='1'B;
      384    18033        %SET LISTSUB='1'B;
      385    18034        %VM_CONTEXT (NAME=VM$CONTEXT,STCLASS=BASED);
             18035        %LSET LISTDIR='0'B;
             18044    1   DCL 1 VM$CONTEXT BASED,
             18045    1         2 MESSAGE_POINTER SBIN WORD,
             18046                               /* Number of message currently being processed */
             18047    1         2 TRUTH_TREE$ PTR,
             18048                               /* Ptr to parse tree that contains TRUTH EXPRESSION */
             18049    1         2 NUM_ENTRIES UBIN WORD,
             18050                               /* Number of entries in the MESSAGE SET */
             18051    1         2 SET_INDX SBIN WORD,
             18052                               /* Which MESSAGE SET range is currently active? */
             18053    1         2 FLAGS,
             18054    1           3 INVERSE BIT(1) UNAL,
             18055                               /* Backwards? YES/NO. Default=NO */
             18056    1           3 NEXT BIT(1) UNAL,
             18057                               /* Pickup the NEXT message only */
             18058    1           3 PREV BIT(1) UNAL,
             18059                               /* Pickup the PREVIOUS message only */
             18060    1           3 RESERVED BIT(33) UNAL,
             18061    1         2 MESSAGE_SET (0:0),
             18062    1           3 LOW SBIN WORD,
             18063                               /* Low number in the range specification */
             18064    1           3 HIGH SBIN WORD;
             18065                               /* High number in the range specification */
      386    18067        %VM_SELECT (STCLASS=STATIC);
             18068        %LSET LISTDIR='0'B;
             18077    1   DCL 1 VM_SELECT STATIC,
             18078    1         2 ERROR,
             18079    1           3 FCG BIT(12) UNAL,
             18080    1           3 MID BIT(6) UNAL,
             18081    1           3 MON BIT(1) UNAL,
             18082    1           3 ERR# UBIN (14) UNAL,
             18083    1           3 SEV UBIN(3) UNAL,
             18084                               /* Error code returned from VMS$SELECT. */
PL6.E3A0      #001=VMO$MAIL File=VMO$MAIL.:VMB6TSI                               WED 08/20/97 15:19 Page:264
             18085    1         2 ERR_POS# UBIN WORD;
             18086                               /* Position where the error was found. */
      387    18088        %SET LISTMAC='0'B;
      388    18089        %SET LISTSUB='0'B;
      389    18090        %XUM$MCB (NAME=X$MCB,STCLASS=STATIC);
      390    18094    1   DCL CONTEXT_PTR$ (0:3) PTR STATIC;
      391    18095    1   DCL WHICH_CONTEXT UBIN WORD STATIC;
      392    18096        /* Which context is currently active? */
      393    18097          %EQU CONTEXT_CURRENT = 0;             /* The current context */
      394    18098          %EQU CONTEXT_SELECTED = 1;            /* The selected context */
      395    18099        /* Useful subs */
      396    18100          %SUB CURRENT_CONTEXT = "CONTEXT_PTR$(%CONTEXT_CURRENT)->VM$CONTEXT";
      397    18101          %SUB SELECTED_CONTEXT = "CONTEXT_PTR$(%CONTEXT_SELECTED)->VM$CONTEXT";
      398    18102    1   DCL NUM_MESSAGES_PROCESSED UBIN WORD;
      399    18103        %EJECT;
PL6.E3A0      #001=VMO$MAIL File=VMO$MAIL.:VMB6TSI                               WED 08/20/97 15:19 Page:265
      400    18104        /*
      401    18105             ***** The following declarations define variables
      402    18106                   that contain option values as set up by the
      403    18107                   INIT$SELECT_OPTS and other routines ...
      404    18108        */
      405    18109
      406    18110    1   DCL TEMP SBIN WORD;
      407    18111    1   DCL OPT_SITE CHAR(8);
      408    18112    1   DCL OPT_BYPASS BIT(1);
      409    18113    1   DCL OPT_NOUPDATE BIT(1);
      410    18114    1   DCL OPT_RECEIVERS BIT(1);
      411    18115    1   DCL OPT_FID CHAR(64) STATIC;
      412    18116    1   DCL OPT_EXIT BIT (1);
      413    18117    1   DCL OPT_QUIT BIT(1);
      414    18118    1   DCL OPT_SEED UBIN WORD STATIC;
      415    18119    1   DCL OPT_SEED$ PTR;
      416    18120    1   DCL OPT$SEED UBIN BASED(OPT_SEED$);
      417    18121
      418    18122        /***** Fpts *****/
      419    18123        %FPT_WAIT (FPTN=WAIT30, UNITS=30, STCLASS=CONSTANT);
      420    18137        %FPT_TIME  (FPTN=GET_ANSI_TIME,
      421    18138                    STCLASS=CONSTANT,
      422    18139                    SOURCE=UTS,
      423    18140                    DEST=ANS,
      424    18141                    TSTAMP=WORK_UTS,
      425    18142                    TIME=ANSI_TIME,
      426    18143                    DATE=ANSI_DATE);
      427    18162        %FPT_ENQ (FPTN=ENQ_PROFILE, STCLASS=STATIC,
      428    18163                  SHARE=NONE,
      429    18164                  WAIT=YES,
      430    18165                  RNAME=VM_PRORES);
      431    18183        %FPT_DEQ (FPTN=DEQ_PROFILE, STCLASS=STATIC,
      432    18184                  RNAME=VM_PRORES);
      433    18201        %VM_PRORES;
      434    18215        %VM_PRORES (NAME=VM_FILERES,RES='FILE');
      435    18229        %FPT_ENQ (FPTN=FILE_SHARE, STCLASS=CONSTANT,
      436    18230                  SHARE=ALL,
PL6.E3A0      #001=VMO$MAIL File=VMO$MAIL.:VMB6TSI                               WED 08/20/97 15:19 Page:266
      437    18231                  DCB=M$MAIL_FILE,
      438    18232                  WAIT=YES,
      439    18233                  WAIT_TIME=0,
      440    18234                  RNAME=VM_FILERES);
      441    18252        %FPT_ENQ (FPTN=FILE_NONE, STCLASS=CONSTANT,
      442    18253                  SHARE=NONE,
      443    18254                  DCB=M$MAIL_FILE,
      444    18255                  WAIT=YES,
      445    18256                  WAIT_TIME=0,
      446    18257                  RNAME=VM_FILERES);
      447    18275        %VM_HEADRES;
      448    18289        %FPT_ENQ (FPTN=ENQ_HEAD, STCLASS=CONSTANT,
      449    18290                  DCB=M$MAIL_FILE,
      450    18291                  RNAME=VM_HEADRES,
      451    18292                  WAIT_TIME=0,
      452    18293                  SHARE=ALL);
      453    18311        %FPT_DEQ (FPTN=DEQ_HEAD, STCLASS=CONSTANT,
      454    18312                  DCB=M$MAIL_FILE,
      455    18313                  RNAME=VM_HEADRES);
      456    18330
      457    18331        %FPT_YC (FPTN=RESET_#1,
      458    18332                 CMD=RESET_#1_CMD,
      459    18333                 ECHO=NO,
      460    18334                 NOERR=YES);
      461    18351
      462    18352    1   DCL RESET_#1_CMD CHAR(0) CONSTANT INIT('!RESET #1');
      463    18353
      464    18354        %FPT_YC (FPTN=RESET_#2,
      465    18355                 CMD=RESET_#2_CMD,
      466    18356                 ECHO=NO,
      467    18357                 NOERR=YES);
      468    18374
      469    18375    1   DCL RESET_#2_CMD CHAR(0) CONSTANT INIT('!RESET #2');
      470    18376
      471    18377        %FPT_YC (FPTN=RESET_#3,
      472    18378                 CMD=RESET_#3_CMD,
      473    18379                 ECHO=NO,
PL6.E3A0      #001=VMO$MAIL File=VMO$MAIL.:VMB6TSI                               WED 08/20/97 15:19 Page:267
      474    18380                 NOERR=YES);
      475    18397
      476    18398    1   DCL RESET_#3_CMD CHAR(0) CONSTANT INIT('!RESET #3');
      477    18399
      478    18400        %FPT_YC (FPTN=RESET_#4,
      479    18401                 CMD=RESET_#4_CMD,
      480    18402                 ECHO=NO,
      481    18403                 NOERR=YES);
      482    18420
      483    18421    1   DCL RESET_#4_CMD CHAR(0) CONSTANT INIT('!RESET #4');
      484    18422
      485    18423        %XUH_PARAM (NAME=HELP_PARAM,
      486    18424                       PROCACCT=SYSACCT,
      487    18425                       PROCNAME=MAIL_PROG_NAME,
      488    18426                       OUTDCB1=M$ME);
      489    18487
      490    18488              %VLP_NAME (FPTN=MAIL_PROG_NAME,
      491    18489              NAME='MAIL');
      492    18516
      493    18517
      494    18518        %FPT_INT     (UENTRY=XUR$BREAK);
      495    18532
      496    18533        %FPT_XCON (FPTN=SET_XCON,UENTRY=VMO$XCON);
      497    18547
      498    18548        %FPT_CLOSE (FPTN=CLOSE_SAVE,
      499    18549                    DISP=SAVE);
      500    18591        %FPT_CLOSE (FPTN=CLOSE_SCRATCH,
      501    18592                    DISP=SCRATCH);
      502    18634
      503    18635        %VLP_ERRCODE (FPTN=ERROR);
      504    18680
      505    18681              %VLP_NAME (FPTN=FID_NAME);
      506    18708
      507    18709        %VLP_ACCT (FPTN=FID_ACCT);
      508    18722
      509    18723        %VLP_PASS (FPTN=FID_PASS);
      510    18736
PL6.E3A0      #001=VMO$MAIL File=VMO$MAIL.:VMB6TSI                               WED 08/20/97 15:19 Page:268
      511    18737        %VLP_SN (FPTN=FID_SN);
      512    18750
      513    18751        %VLP_WSN (FPTN=FID_WSN);
      514    18764
      515    18765    1   DCL FID_ASN UBIN(9) STATIC;
      516    18766
      517    18767    1   DCL FID_RES CHAR(4) STATIC;
      518    18768
      519    18769        %VLR_FID (FPTN=FID_RESULTS,STCLASS=STATIC);
      520    18788
      521    18789        %FPT_FID  (FPTN=CHECK_FID,              /* Used to check a fid */
      522    18790                       RESULTS=FID_RESULTS,
      523    18791                       ACCT=FID_ACCT,
      524    18792                       ASN=FID_ASN,
      525    18793                       NAME=FID_NAME,
      526    18794                       PASS=FID_PASS,
      527    18795                       RES=FID_RES,
      528    18796                       TEXTFID=OPT_FID,
      529    18797                       SN=FID_SN,
      530    18798                       WSN=FID_WSN);
      531    18821
      532    18822        %FPT_OPEN (FPTN=OPEN_NEXT,
      533    18823                       ACCT=FID_ACCT,
      534    18824                       PASS=FID_PASS,
      535    18825                       ASN=FILE,
      536    18826                       DCB=M$WORK,
      537    18827                       FUN=IN,
      538    18828                       NXTF=YES,
      539    18829                       SHARE=NONE,
      540    18830                       TEST=YES);
      541    18939        /***** Name map fpts *****/
      542    18940        %FPT_OPEN (FPTN=OPEN_NAME_MAP,
      543    18941                        ACCT=VM_MAIL_ACCT,
      544    18942                        ACS=DIRECT,
      545    18943                        ASN=FILE,
      546    18944                        CTG=YES,
      547    18945                        DCB=M$NAME,
PL6.E3A0      #001=VMO$MAIL File=VMO$MAIL.:VMB6TSI                               WED 08/20/97 15:19 Page:269
      548    18946                        EXIST=OLDFILE,
      549    18947                        FUN=CREATE,
      550    18948                        NAME=VM_NAME_MAP_NAME,
      551    18949                        ORG=KEYED,
      552    18950                       SHARE=ALL,
      553    18951                       STCLASS=CONSTANT);
      554    19060        %FPT_DELREC (FPTN=DELREC_NAME_MAP,
      555    19061                        DCB=M$NAME,
      556    19062                       KEY=NAME_KEY,
      557    19063                       STCLASS=CONSTANT);
      558    19082
      559    19083
      560    19084        %FPT_WRITE (FPTN=WRITE_NAME_MAP,
      561    19085                        DCB=M$NAME,
      562    19086                        KEY=NAME_KEY);
      563    19117
      564    19118        %FPT_READ (FPTN=READ_NAME_MAP,
      565    19119                      DCB=M$NAME,
      566    19120                      BUF=WORK_STRING.NAME#,
      567    19121                      KEY=NAME_KEY,
      568    19122                      KEYS=YES,
      569    19123                       STCLASS=CONSTANT);
      570    19162
      571    19163        %VLP_NAME (FPTN=NAME_KEY,LEN=20,NAME=' ');
      572    19190
      573    19191        %FPT_CORRES (STCLASS=STATIC);
      574    19205
      575    19206        %FPT_LINK (FPTN=FPT_LINK,
      576    19207                       CMD=LINK_CCBUF);
      577    19225
      578    19226
      579    19227        %VLP_ACCT (FPTN=SYSACCT,ACCT=':SYS');
      580    19240
      581    19241        %FPT_OPEN (FPTN=OPEN_SEND_FILE,
      582    19242                       ACS=DIRECT,
      583    19243                       ASN=FILE,
      584    19244                       DCB=M$WORK,
PL6.E3A0      #001=VMO$MAIL File=VMO$MAIL.:VMB6TSI                               WED 08/20/97 15:19 Page:270
      585    19245                       EXIST=NEWFILE,
      586    19246                       FUN=CREATE,
      587    19247                       NAME=VM_SEND_FILE_NAME,
      588    19248                       ORG=KEYED,
      589    19249                       SCRUB=YES,
      590    19250                       STCLASS=CONSTANT);
      591    19359
      592    19360        %FPT_OPEN (FPTN=OPEN_FORWARD_FILE,
      593    19361                       ACS=SEQUEN,
      594    19362                       ASN=FILE,
      595    19363                       DCB=M$WORK,
      596    19364                       EXIST=NEWFILE,
      597    19365                       FUN=CREATE,
      598    19366                       NAME=VM_FORWARD_FILE_NAME,
      599    19367                       PASS=VM_FORWARD_FILE_PASS,
      600    19368                       ORG=CONSEC,
      601    19369                       SCRUB=YES,
      602    19370                       STCLASS=CONSTANT);
      603    19479        %FPT_OPEN (FPTN=OPEN_FORWARD_ENCL_FILE,
      604    19480                       ACS=DIRECT,
      605    19481                       ASN=FILE,
      606    19482                       DCB=M$ENCL,
      607    19483                       EXIST=NEWFILE,
      608    19484                       FUN=CREATE,
      609    19485                       NAME=VM_FORWARD_ENCL_NAME,
      610    19486                       PASS=VM_FORWARD_FILE_PASS,
      611    19487                       ORG=KEYED,
      612    19488                       SCRUB=YES,
      613    19489                       STCLASS=CONSTANT);
      614    19598        %FPT_OPEN (FPTN=REOPEN_FILE,
      615    19599                       FUN=UPDATE);
      616    19708        %FPT_TIME (FPTN=GET_TIME,
      617    19709                       SOURCE=CLOCK,
      618    19710                       DEST=UTS,
      619    19711                       TSTAMP=WORK_UTS);
      620    19730        /***** Fpts for output stream (M$LO) *****/
      621    19731        %FPT_OPEN (FPTN=OPEN_OUTPUT_STREAM_DEFAULT,
PL6.E3A0      #001=VMO$MAIL File=VMO$MAIL.:VMB6TSI                               WED 08/20/97 15:19 Page:271
      622    19732                       REASSIGN=YES,
      623    19733                       FUN=CREATE,
      624    19734                       EXIST=OLDFILE,
      625    19735                       SCRUB=YES,
      626    19736                       STCLASS=CONSTANT,
      627    19737                       DCB=M$LO);
      628    19846
      629    19847        /***** Fpts for command stream (M$SI) *****/
      630    19848        %FPT_OPEN (FPTN=OPEN_COMMAND_STREAM_DEFAULT,
      631    19849                       REASSIGN=YES,
      632    19850                       FUN=IN,
      633    19851                       ORG=CONSEC,
      634    19852                       ACS=SEQUEN,
      635    19853                       WSN=ERASE,
      636    19854                       SCRUB=YES,
      637    19855                       STCLASS=CONSTANT,
      638    19856                       DCB=M$SI);
      639    19965
      640    19966        %FPT_OPEN (FPTN=OPEN_COMMAND_STREAM,
      641    19967                       REASSIGN=NO,
      642    19968                       FUN=IN,
      643    19969                       ORG=CONSEC,
      644    19970                       ACS=SEQUEN,
      645    19971                       SCRUB=YES,
      646    19972                       DCB=M$CMNDF);
      647    20081
      648    20082        %FPT_OPEN (FPTN=OPEN_ENCL,
      649    20083                       DCB=M$ENCL,
      650    20084                       ORG=CONSEC,
      651    20085                       ASN=FILE);
      652    20194
      653    20195        %FPT_WRITE (FPTN=WRITE_ENCL,
      654    20196                       DCB=M$ENCL);
      655    20227
      656    20228        %FPT_LDEV (FPTN=PRINT_LDEV, STCLASS=CONSTANT,
      657    20229                  STREAMNAME='ALL');
      658    20254
PL6.E3A0      #001=VMO$MAIL File=VMO$MAIL.:VMB6TSI                               WED 08/20/97 15:19 Page:272
      659    20255        %FPT_PRECORD (STCLASS=CONSTANT,
      660    20256                  N=-1,
      661    20257                  DCB=M$MAIL_FILE);
      662    20278        %F_FDS (NAME=F_FDSME,DCB=M$ME,BUF=OUTBUF,VECTR=VECT_ARRAY);
      663    20391              %F_FDS (NAME=SPACE_LO,BUF=OUTBUF,DCB=M$LO,VECTR=VECT_ARRAY,
      664    20392              FMT=VM_BLANK_LINE_FMT,NVECS=0);
      665    20505              %F_FDS (NAME=F_FDSLO,BUF=OUTBUF,DCB=M$LO,VECTR=VECT_ARRAY);
      666    20618
      667    20619        /***** Misc variables *****/
      668    20620    1   DCL VECT_ARRAY (0:6) BIT(72) DALIGNED STATIC;
      669    20621    1   DCL DELETE_ENCL_FLAG BIT(1);
      670    20622        /***** Dcbs *****/
      671    20623    1   DCL M$NAME DCB;
      672    20624    1   DCL M$CMNDF DCB;
      673    20625    1   DCL M$LM DCB;
      674    20626    1   DCL M$EDIT DCB;
      675    20627    1   DCL M$OUT DCB;
      676    20628    1   DCL M$ENCL DCB;
      677    20629        /***** Formats *****/
      678    20630    1   DCL VM_BLANK_LINE_FMT  CHAR(0)         STATIC INIT('%1X');
      679    20631        %VLP_NAME (FPTN=VM_GREETING_FMT, LEN=80, L=80, NAME=' ', STCLASS=STATIC);
      680    20658        %VLP_ERRCODE (FPTN=E_GREETING_FMT,   STCLASS="CONSTANT SYMDEF",
      681    20659                    ERR#=%E$GREETING_FMT,      FCG=VM,MID=O);
      682    20704        /*E*  ERROR:VMO-E$GREETING_FMT-0
      683    20705              MESSAGE:Mail "T here
      684    20706        */
      685    20707             %VLP_NAME (FPTN=VM_FOLDER_HEADER1_FMT, LEN=80, L=80, NAME=' ', STCLASS=STATIC)
             20707                  ;
      686    20734        %VLP_ERRCODE (FPTN=E_FOLDER_HEADER1_FMT, STCLASS="CONSTANT SYMDEF",
      687    20735                    ERR#=%E$FOLDER_HEADER1_FMT,          FCG=VM, MID=O);
      688    20780        /*E*  ERROR:VMO-E$FOLDER_HEADER1_FMT-0
      689    20781              MESSAGE:"15..3U ."A
      690    20782        */
      691    20783             %VLP_NAME (FPTN=VM_FOLDER_HEADER2_FMT, LEN=80, L=80, NAME=' ', STCLASS=STATIC)
             20783                  ;
      692    20810        %VLP_ERRCODE (FPTN=E_FOLDER_HEADER2_FMT, STCLASS="CONSTANT SYMDEF",
      693    20811                    ERR#=%E$FOLDER_HEADER2_FMT,          FCG=VM,MID=O);
PL6.E3A0      #001=VMO$MAIL File=VMO$MAIL.:VMB6TSI                               WED 08/20/97 15:19 Page:273
      694    20856        /*E*  ERROR:VMO-E$FOLDER_HEADER2_FMT-0
      695    20857              MESSAGE:Owner  #Msgs #New Used Gran   Name
      696    20858        */
      697    20859             %VLP_NAME (FPTN=VM_FOLDER_DELETED_FMT, LEN=80, L=80, NAME=' ', STCLASS=STATIC)
             20859                  ;
      698    20886        %VLP_ERRCODE (FPTN=E_FOLDER_DELETED_FMT, STCLASS="CONSTANT SYMDEF",
      699    20887                    ERR#=%E$FOLDER_DELETED_FMT,          FCG=VM,MID=O);
      700    20932        /*E*  ERROR:VMO-E$FOLDER_DELETED_FMT-0
      701    20933              MESSAGE:"D folders deleted
      702    20934        */
      703    20935              %VLP_NAME (FPTN=VM_FOLDER_DISPLAYED_FMT, LEN=80, L=80, NAME=' ', STCLASS=
             20935                  STATIC);
      704    20962        %VLP_ERRCODE(FPTN=E_FOLDER_DISPLAYED_FMT, STCLASS="CONSTANT SYMDEF",
      705    20963                    ERR#=%E$FOLDER_DISPLAYED_FMT,        FCG=VM,MID=O);
      706    21008        /*E*  ERROR:VMO-E$FOLDER_DISPLAYED_FMT-0
      707    21009              MESSAGE:"D folders displayed
      708    21010        */
      709    21011              %VLP_NAME (FPTN=VM_COUNT_FMT, LEN=80, L=80, NAME = ' ', STCLASS=STATIC);
      710    21038        %VLP_ERRCODE (FPTN=E_COUNT_FMT, STCLASS="CONSTANT SYMDEF",
      711    21039                    ERR#=%E$COUNT_FMT,                   FCG=VM,MID=O);
      712    21084        /*E*  ERROR:VMO-E$COUNT_FMT-0
      713    21085              MESSAGE:"D messages found
      714    21086        */
      715    21087              %VLP_NAME (FPTN=VM_NO_MESSAGE_FMT, LEN=80, L=80, NAME=' ', STCLASS=STATIC);
      716    21114        %VLP_ERRCODE (FPTN=E_NO_MESSAGE_FMT, STCLASS="CONSTANT SYMDEF",
      717    21115                    ERR#=%E$NO_MESSAGE_FMT,              FCG=VM,MID=O);
      718    21160        /*E*  ERROR:VMO-E$NO_MESSAGE_FMT-0
      719    21161              MESSAGE:None found
      720    21162        */
      721    21163              %VLP_NAME (FPTN=VM_TIME_FMT, LEN=80, L=80, NAME=' ', STCLASS=STATIC);
      722    21190        %VLP_ERRCODE (FPTN=E_TIME_FMT, STCLASS="CONSTANT SYMDEF",
      723    21191                    ERR#=%E$TIME_FMT,                    FCG=VM,MID=O);
      724    21236        /*E*  ERROR:VMO-E$TIME_FMT-0
      725    21237              MESSAGE:"15..3U
      726    21238        */
      727    21239              %VLP_NAME (FPTN=VM_EMPTY_FOLDER_FMT, LEN=80, L=80, NAME=' ', STCLASS=STATIC);
      728    21266        %VLP_ERRCODE (FPTN=E_EMPTY_FOLDER_FMT, STCLASS="CONSTANT SYMDEF",
PL6.E3A0      #001=VMO$MAIL File=VMO$MAIL.:VMB6TSI                               WED 08/20/97 15:19 Page:274
      729    21267                    ERR#=%E$EMPTY_FOLDER_FMT,            FCG=VM,MID=O);
      730    21312        /*E*  ERROR:VMO-E$EMPTY_FOLDER_FMT-0,                FCG=VM,MID=O);
      731    21313              MESSAGE:Folder "A is empty
      732    21314        */
      733    21315             %VLP_NAME (FPTN=VM_NO_NEW_MESSAGE_FMT, LEN=80, L=80, NAME=' ', STCLASS=STATIC)
             21315                  ;
      734    21342        %VLP_ERRCODE (FPTN=E_NO_NEW_MESSAGE_FMT, STCLASS="CONSTANT SYMDEF",
      735    21343                    ERR#=%E$NO_NEW_MESSAGE_FMT,           FCG=VM,MID=O);
      736    21388        /*E*  ERROR:VMO-E$NO_NEW_MESSAGE_FMT-0,
      737    21389              MESSAGE:No NEW messages found
      738    21390        */
      739    21391              %VLP_NAME (FPTN=VM_CREATE_MSG_FMT, LEN=80, L=80, NAME=' ', STCLASS=STATIC);
      740    21418        %VLP_ERRCODE (FPTN=E_CREATE_MSG_FMT,   STCLASS="CONSTANT SYMDEF",
      741    21419                    ERR#=%E$CREATE_MSG_FMT,              FCG=VM,MID=O);
      742    21464        /*E*  ERROR:VMO-E$CREATE_MSG_FMT-0
      743    21465              MESSAGE:Folder %U1 created.
      744    21466        */
      745    21467              %VLP_ERRCODE (FPTN=E_USING_MSG_FMT, STCLASS="CONSTANT SYMDEF",
      746    21468              ERR#=%E$USING_MSG_FMT,                 FCG=VM,MID=O);
      747    21513        /*E*  ERROR:VMO-E$USING_MSG_FMT-0
      748    21514              MESSAGE:Using %U1
      749    21515        */
      750    21516              %VLP_NAME (FPTN=VM_MSGS_DELETED_FMT, LEN=80, L=80, NAME=' ', STCLASS=STATIC);
      751    21543        %VLP_ERRCODE (FPTN=E_MSGS_DELETED_FMT, STCLASS="CONSTANT SYMDEF",
      752    21544                    ERR#=%E$MSGS_DELETED_FMT,             FCG=VM,MID=O);
      753    21589        /*E*  ERROR:VMO-E$MSGS_DELETED_FMT-0,
      754    21590              MESSAGE:"D messages flagged for deletion
      755    21591        */
      756    21592             %VLP_NAME (FPTN=VM_MSGS_UNDELETED_FMT, LEN=80, L=80, NAME=' ', STCLASS=STATIC)
             21592                  ;
      757    21619        %VLP_ERRCODE (FPTN=E_MSGS_UNDELETED_FMT, STCLASS="CONSTANT SYMDEF",
      758    21620                    ERR#=%E$MSGS_UNDELETED_FMT,           FCG=VM,MID=O);
      759    21665        /*E*  ERROR:VMO-E$MSGS_UNDELETED_FMT-0
      760    21666              MESSAGE:"D messages no longer flagged for deletion
      761    21667        */
      762    21668              %VLP_NAME (FPTN=VM_MSGS_MARKED_FMT, LEN=80, L=80, NAME=' ', STCLASS=STATIC);
      763    21695        %VLP_ERRCODE (FPTN=E_MSGS_MARKED_FMT,  STCLASS="CONSTANT SYMDEF",
PL6.E3A0      #001=VMO$MAIL File=VMO$MAIL.:VMB6TSI                               WED 08/20/97 15:19 Page:275
      764    21696                    ERR#=%E$MSGS_MARKED_FMT,             FCG=VM,MID=O);
      765    21741        /*E*  ERROR:VMO-E$MSGS_MARKED_FMT-0
      766    21742              MESSAGE:"D messages marked
      767    21743        */
      768    21744             %VLP_NAME (FPTN=VM_MSGS_UNMARKED_FMT, LEN=80, L=80, NAME=' ', STCLASS=STATIC);
      769    21771        %VLP_ERRCODE (FPTN=E_MSGS_UNMARKED_FMT, STCLASS="CONSTANT SYMDEF",
      770    21772                    ERR#=%E$MSGS_UNMARKED_FMT,           FCG=VM,MID=O);
      771    21817        /*E*  ERROR:VMO-E$MSGS_UNMARKED_FMT-0
      772    21818              MESSAGE:"D messages no longer marked
      773    21819        */
      774    21820              %VLP_NAME (FPTN=VM_MSGS_COPIED_FMT, LEN=80, L=80, NAME=' ', STCLASS=STATIC);
      775    21847        %VLP_ERRCODE (FPTN=E_MSGS_COPIED_FMT,  STCLASS="CONSTANT SYMDEF",
      776    21848                       ERR#=%E$MSGS_COPIED_FMT,          FCG=VM,MID=O);
      777    21893        /*E*  ERROR:VMO-E$MSGS_COPIED_FMT-0
      778    21894              MESSAGE:"D messages copied
      779    21895        */
      780    21896             %VLP_NAME (FPTN=VM_MSGS_DISPLAYED_FMT, LEN=80, L=80, NAME=' ', STCLASS=STATIC)
             21896                  ;
      781    21923        %VLP_ERRCODE (FPTN=E_MSGS_DISPLAYED_FMT, STCLASS="CONSTANT SYMDEF",
      782    21924                    ERR#=%E$MSGS_DISPLAYED_FMT,             FCG=VM,MID=O);
      783    21969        /*E*  ERROR:VMO-E$MSGS_DISPLAYED_FMT-0
      784    21970              MESSAGE:"D messages displayed
      785    21971        */
      786    21972              %VLP_NAME (FPTN=VM_MSGS_LISTED_FMT, LEN=80, L=80, NAME=' ', STCLASS=STATIC);
      787    21999        %VLP_ERRCODE (FPTN=E_MSGS_LISTED_FMT,  STCLASS="CONSTANT SYMDEF",
      788    22000                    ERR#=%E$MSGS_LISTED_FMT,             FCG=VM,MID=O);
      789    22045        /*E*  ERROR:VMO-E$MSGS_LISTED_FMT-0
      790    22046              MESSAGE:"D messages listed
      791    22047        */
      792    22048             %VLP_NAME (FPTN=VM_LISTS_DELETED_FMT, LEN=80, L=80, NAME=' ', STCLASS=STATIC);
      793    22075        %VLP_ERRCODE (FPTN=E_LISTS_DELETED_FMT, STCLASS="CONSTANT SYMDEF",
      794    22076                    ERR#=%E$LISTS_DELETED_FMT,           FCG=VM,MID=O);
      795    22121        /*E*  ERROR:VMO-E$LISTS_DELETED_FMT-0
      796    22122              MESSAGE:"D list definitions deleted
      797    22123        */
      798    22124             %VLP_NAME (FPTN=VM_LISTS_DISPLAYED_FMT, LEN=80, L=80, NAME= ' ',STCLASS=STATIC
             22124                  );
PL6.E3A0      #001=VMO$MAIL File=VMO$MAIL.:VMB6TSI                               WED 08/20/97 15:19 Page:276
      799    22151        %VLP_ERRCODE (FPTN=E_LISTS_DISPLAYED_FMT, STCLASS="CONSTANT SYMDEF",
      800    22152                    ERR#=%E$LISTS_DISPLAYED_FMT,         FCG=VM,MID=O);
      801    22197        /*E*  ERROR:VMO-E$LISTS_DISPLAYED_FMT-0
      802    22198              MESSAGE:"D list definitions displayed
      803    22199        */
      804    22200              %VLP_NAME (FPTN=VM_USERS_DELETED_FMT, LEN=80, L=80, NAME=' ',STCLASS=STATIC);
      805    22227        %VLP_ERRCODE (FPTN=E_USERS_DELETED_FMT, STCLASS="CONSTANT SYMDEF",
      806    22228                    ERR#=%E$USERS_DELETED_FMT,           FCG=VM,MID=O);
      807    22273        /*E*  ERROR:VMO-E$USERS_DELETED_FMT-0
      808    22274              MESSAGE:"D user definitions deleted
      809    22275        */
      810    22276             %VLP_NAME (FPTN=VM_USERS_DISPLAYED_FMT, LEN=80, L=80, NAME=' ', STCLASS=STATIC
             22276                  );
      811    22303        %VLP_ERRCODE (FPTN=E_USERS_DISPLAYED_FMT, STCLASS="CONSTANT SYMDEF",
      812    22304                    ERR#=%E$USERS_DISPLAYED_FMT,         FCG=VM,MID=O);
      813    22349        /*E*  ERROR:VMO-E$USERS_DISPLAYED_FMT-0
      814    22350              MESSAGE:"D user definitions displayed
      815    22351        */
      816    22352             %VLP_NAME (FPTN=VM_STATUS_FOLDER_FMT, LEN=80, L=80, NAME=' ', STCLASS=STATIC);
      817    22379        %VLP_ERRCODE (FPTN=E_STATUS_FOLDER_FMT, STCLASS="CONSTANT SYMDEF",
      818    22380                    ERR#=%E$STATUS_FOLDER_FMT,           FCG=VM,MID=O);
      819    22425        /*E*  ERROR:VMO-E$STATUS_FOLDER_FMT-0
      820    22426              MESSAGE:"5XCurrent folder is "A
      821    22427        */
      822    22428             %VLP_NAME (FPTN=VM_STATUS_SCONTEXT_FMT, LEN=80, L=80, NAME=' ', STCLASS=STATIC
             22428                  );
      823    22455        %VLP_ERRCODE (FPTN=E_STATUS_SCONTEXT_FMT, STCLASS="CONSTANT SYMDEF",
      824    22456                    ERR#=%E$STATUS_SCONTEXT_FMT,         FCG=VM,MID=O);
      825    22501        /*E*  ERROR:VMO-E$STATUS_SCONTEXT_FMT-0
      826    22502              MESSAGE:"5XSelected Context is: "A
      827    22503        */
      828    22504             %VLP_NAME (FPTN=VM_STATUS_CCONTEXT_FMT, LEN=80, L=80, NAME=' ', STCLASS=STATIC
             22504                  );
      829    22531        %VLP_ERRCODE (FPTN=E_STATUS_CCONTEXT_FMT, STCLASS="CONSTANT SYMDEF",
      830    22532                    ERR#=%E$STATUS_CCONTEXT_FMT,         FCG=VM,MID=O);
      831    22577        /*E*  ERROR:VMO-E$STATUS_CCONTEXT_FMT-0
      832    22578              MESSAGE:"5XCurrent Context is: "A
PL6.E3A0      #001=VMO$MAIL File=VMO$MAIL.:VMB6TSI                               WED 08/20/97 15:19 Page:277
      833    22579        */
      834    22580              %VLP_NAME (FPTN=VM_STATUS_POSITION_FMT, LEN=80, L=80, NAME = ' ', STCLASS=
             22580                  STATIC);
      835    22607        %VLP_ERRCODE (FPTN=E_STATUS_POSITION_FMT, STCLASS="CONSTANT SYMDEF",
      836    22608                    ERR#=%E$STATUS_POSITION_FMT,         FCG=VM,MID=O);
      837    22653        /*E*  ERROR:VMO-E$STATUS_POSITION_FMT-0
      838    22654              MESSAGE:"5XMessage within Selected Context is: "D
      839    22655        */
      840    22656              %VLP_NAME (FPTN=VM_STATUS_POSITION_OUTSIDE_FMT, LEN=80, L=80, NAME=' ',
             22656                  STCLASS=STATIC);
      841    22683        %VLP_ERRCODE (FPTN=E_STATUS_POSITION_OUTSIDE_FMT, STCLASS="CONSTANT SYMDEF",
      842    22684                    ERR#=%E$STATUS_POSITION_OUTSIDE_FMT, FCG=VM,MID=O);
      843    22729        /*E*  ERROR:VMO-E$STATUS_POSITION_OUTSIDE_FMT-0
      844    22730             MESSAGE:"5XMessage position within Selected Context is: Outside Selected Range
      845    22731        */
      846    22732              %VLP_NAME (FPTN=VM_STATUS_DMSGS_FMT, LEN=80, L=80, NAME=' ', STCLASS=STATIC);
      847    22759        %VLP_ERRCODE (FPTN=E_STATUS_DMSGS_FMT, STCLASS="CONSTANT SYMDEF",
      848    22760                    ERR#=%E$STATUS_DMSGS_FMT,            FCG=VM,MID=O);
      849    22805        /*E*  ERROR:VMO-E$STATUS_DMSGS_FMT-0
      850    22806              MESSAGE:"5XNumber of messages  marked for deletion is "D
      851    22807        */
      852    22808              %VLP_NAME (FPTN=VM_STATUS_NMSGS_FMT, LEN=80, L=80, NAME=' ', STCLASS=STATIC);
      853    22835        %VLP_ERRCODE (FPTN=E_STATUS_NMSGS_FMT, STCLASS="CONSTANT SYMDEF",
      854    22836                    ERR#=%E$STATUS_NMSGS_FMT,            FCG=VM,MID=O);
      855    22881        /*E*  ERROR:VMO-E$STATUS_NMSGS_FMT-0
      856    22882              MESSAGE:"5XNumber of new messages is "D
      857    22883        */
      858    22884              %VLP_NAME (FPTN=VM_STATUS_TMSGS_FMT, LEN=80, L=80, NAME=' ', STCLASS=STATIC);
      859    22911        %VLP_ERRCODE (FPTN=E_STATUS_TMSGS_FMT, STCLASS="CONSTANT SYMDEF",
      860    22912                    ERR#=%E$STATUS_TMSGS_FMT,            FCG=VM,MID=O);
      861    22957        /*E*  ERROR:VMO-E$STATUS_TMSGS_FMT-0
      862    22958              MESSAGE:"5XTotal number of messages is "D
      863    22959        */
      864    22960              %VLP_NAME (FPTN=VM_STATUS_HMSGS_FMT, LEN=80, L=80, NAME=' ', STCLASS=STATIC);
      865    22987        %VLP_ERRCODE (FPTN=E_STATUS_HMSGS_FMT, STCLASS="CONSTANT SYMDEF",
      866    22988                    ERR#=%E$STATUS_HMSGS_FMT,            FCG=VM,MID=O);
      867    23033        /*E*  ERROR:VMO-E$STATUS_HMSGS_FMT-0
PL6.E3A0      #001=VMO$MAIL File=VMO$MAIL.:VMB6TSI                               WED 08/20/97 15:19 Page:278
      868    23034              MESSAGE:"5XHighest message number is "D
      869    23035        */
      870    23036              %VLP_NAME (FPTN=VM_USE_FULL_FMT, LEN=80, L=80, NAME=' ', STCLASS=STATIC);
      871    23063        %VLP_ERRCODE (FPTN=E_USE_FULL_FMT,     STCLASS="CONSTANT SYMDEF",
      872    23064                    ERR#=%E$USE_FULL_FMT,                FCG=VM,MID=O);
      873    23109        /*E*  ERROR:VMO-E$USE_FULL_FMT-0
      874    23110              MESSAGE:Folder "A is full
      875    23111        */
      876    23112              %VLP_NAME (FPTN=VM_USE_LOST_FMT, LEN=80, L=80, NAME=' ', STCLASS=STATIC);
      877    23139        %VLP_ERRCODE (FPTN=E_USE_LOST_FMT,     STCLASS="CONSTANT SYMDEF",
      878    23140                    ERR#=%E$USE_LOST_FMT,                FCG=VM,MID=O);
      879    23185        /*E*  ERROR:VMO-E$USE_LOST_FMT-0
      880    23186              MESSAGE:Warning: "D messages lost due to insufficient disk space.
      881    23187        */
      882    23188              %VLP_NAME (FPTN=VM_NEW_MESSAGE_FMT, LEN=80, L=80, NAME=' ', STCLASS=STATIC);
      883    23215        %VLP_ERRCODE (FPTN=E_NEW_MESSAGE_FMT,  STCLASS="CONSTANT SYMDEF",
      884    23216                    ERR#=%E$NEW_MESSAGE_FMT,             FCG=VM,MID=O);
      885    23261        /*E*  ERROR:VMO-E$NEW_MESSAGE_FMT-0
      886    23262              MESSAGE:A new message has been received.
      887    23263        */
      888    23264
      889    23265              %VLP_NAME (FPTN=USER_NAME,LEN=256,NAME=' ',STCLASS=STATIC);
      890    23292        %VLP_NAME (FPTN=VM_DETACH_OK_FMT, LEN=80, L=80, NAME=' ', STCLASS=STATIC);
      891    23319        %VLP_ERRCODE (FPTN=E_DETACH_OK_FMT,STCLASS="CONSTANT SYMDEF",
      892    23320                      ERR#=%E$DETACH_OK_FMT,        FCG="VM",MID="O");
      893    23365        /*E* ERROR:VMO-E$DETACH_OK_FMT
      894    23366             MESSAGE:Enclosure "D detached.
      895    23367        */
      896    23368              %VLP_NAME (FPTN=VM_DETACH_DELETE_OK_FMT, LEN=80, L=80, NAME=' ', STCLASS=
             23368                  STATIC);
      897    23395        %VLP_ERRCODE (FPTN=E_DETACH_DELETE_OK_FMT,STCLASS="CONSTANT SYMDEF",
      898    23396                      ERR#=%E$DETACH_DELETE_OK_FMT,        FCG="VM",MID="O");
      899    23441        /*E* ERROR:VMO-E$DETACH_DELETE_OK_FMT
      900    23442             MESSAGE:Enclosure "D detached and deleted.
      901    23443        */
      902    23444        /***** Embedded commands *****/
      903    23445              %VLP_NAME (FPTN=VM_END_NOUPDATE_CMD, LEN=15, L=15, NAME=' ', STCLASS=STATIC);
PL6.E3A0      #001=VMO$MAIL File=VMO$MAIL.:VMB6TSI                               WED 08/20/97 15:19 Page:279
      904    23472        %VLP_ERRCODE (FPTN=E_END_NOUPDATE_CMD, STCLASS="CONSTANT SYMDEF",
      905    23473                    ERR#=%E$END_NOUPDATE_CMD,            FCG=VM,MID=O);
      906    23518        /*E*  ERROR:VMO-E$END_NOUPDATE_CMD-0
      907    23519              MESSAGE:END NOUPDATE
      908    23520        */
      909    23521              %VLP_NAME (FPTN=VM_NEXT_CMD, LEN=15, L=15, NAME=' ', STCLASS=STATIC);
      910    23548        %VLP_ERRCODE (FPTN=E_NEXT_CMD,         STCLASS="CONSTANT SYMDEF",
      911    23549                    ERR#=%E$NEXT_CMD,                    FCG=VM,MID=O);
      912    23594        /*E*  ERROR:VMO-E$NEXT_CMD-0
      913    23595              MESSAGE:NEXT
      914    23596        */
      915    23597              %VLP_NAME (FPTN=VM_DI_NEXT_CMD, LEN=15, L=15, NAME=' ', STCLASS=STATIC);
      916    23624        %VLP_ERRCODE (FPTN=E_DI_NEXT_CMD,      STCLASS="CONSTANT SYMDEF",
      917    23625                    ERR#=%E$DI_NEXT_CMD,                 FCG=VM,MID=O);
      918    23670        /*E*  ERROR:VMO-E$DI_NEXT_CMD-0
      919    23671              MESSAGE:DI NEXT
      920    23672        */
      921    23673              %VLP_NAME (FPTN=VM_LIST_NEXT_CMD, LEN=15, L=15, NAME=' ', STCLASS=STATIC);
      922    23700        %VLP_ERRCODE (FPTN=E_LIST_NEXT_CMD,    STCLASS="CONSTANT SYMDEF",
      923    23701                    ERR#=%E$LIST_NEXT_CMD,               FCG=VM,MID=O);
      924    23746        /*E*  ERROR:VMO-E$LIST_NEXT_CMD-0
      925    23747              MESSAGE:LIST NEXT
      926    23748        */
      927    23749              %VLP_NAME (FPTN=VM_PREVIOUS_CMD, LEN=15, L=15, NAME=' ', STCLASS=STATIC);
      928    23776        %VLP_ERRCODE (FPTN=E_PREVIOUS_CMD,     STCLASS="CONSTANT SYMDEF",
      929    23777                    ERR#=%E$PREVIOUS_CMD,                FCG=VM,MID=O);
      930    23822        /*E*  ERROR:VMO-E$PREVIOUS_CMD-0
      931    23823              MESSAGE:PREVIOUS
      932    23824        */
      933    23825              %VLP_NAME (FPTN=VM_DI_PREVIOUS_CMD, LEN=15, L=15, NAME=' ', STCLASS=STATIC);
      934    23852        %VLP_ERRCODE (FPTN=E_DI_PREVIOUS_CMD,  STCLASS="CONSTANT SYMDEF",
      935    23853                    ERR#=%E$DI_PREVIOUS_CMD,            FCG=VM,MID=O);
      936    23898        /*E*  ERROR:VMO-E$DI_PREVIOUS_CMD-0
      937    23899              MESSAGE:DI PREVIOUS
      938    23900        */
      939    23901             %VLP_NAME (FPTN=VM_LIST_PREVIOUS_CMD, LEN=15, L=15, NAME=' ', STCLASS=STATIC);
      940    23928        %VLP_ERRCODE (FPTN=E_LIST_PREVIOUS_CMD, STCLASS="CONSTANT SYMDEF",
PL6.E3A0      #001=VMO$MAIL File=VMO$MAIL.:VMB6TSI                               WED 08/20/97 15:19 Page:280
      941    23929                    ERR#=%E$LIST_PREVIOUS_CMD,           FCG=VM,MID=O);
      942    23974        /*E*  ERROR:VMO-E$LIST_PREVIOUS_CMD-0
      943    23975              MESSAGE:LIST PREVIOUS
      944    23976        */
      945    23977              %VLP_NAME (FPTN=VM_DI_FIRST_CMD, LEN=15, L=15, NAME=' ', STCLASS=STATIC);
      946    24004        %VLP_ERRCODE (FPTN=E_DI_FIRST_CMD,     STCLASS="CONSTANT SYMDEF",
      947    24005                    ERR#=%E$DI_FIRST_CMD,                FCG=VM,MID=O);
      948    24050        /*E*  ERROR:VMO-E$DI_FIRST_CMD-0
      949    24051              MESSAGE:DI FIRST
      950    24052        */
      951    24053              %VLP_NAME (FPTN=VM_LIST_FIRST_CMD, LEN=15, L=15, NAME=' ', STCLASS=STATIC);
      952    24080        %VLP_ERRCODE (FPTN=E_LIST_FIRST_CMD,   STCLASS="CONSTANT SYMDEF",
      953    24081                    ERR#=%E$LIST_FIRST_CMD,              FCG=VM,MID=O);
      954    24126        /*E*  ERROR:VMO-E$LIST_FIRST_CMD-0
      955    24127              MESSAGE:LIST FIRST
      956    24128        */
      957    24129              %VLP_NAME (FPTN=VM_DI_THIS_CMD, LEN=15, L=15, NAME=' ', STCLASS=STATIC);
      958    24156        %VLP_ERRCODE (FPTN=E_DI_THIS_CMD,      STCLASS="CONSTANT SYMDEF",
      959    24157                    ERR#=%E$DI_THIS_CMD,                 FCG=VM,MID=O);
      960    24202        /*E*  ERROR:VMO-E$DI_THIS_CMD-0
      961    24203              MESSAGE:DI THIS
      962    24204        */
      963    24205              %VLP_NAME (FPTN=VM_LIST_THIS_CMD, LEN=15, L=15, NAME=' ', STCLASS=STATIC);
      964    24232        %VLP_ERRCODE (FPTN=E_LIST_THIS_CMD,    STCLASS="CONSTANT SYMDEF",
      965    24233                    ERR#=%E$LIST_THIS_CMD,               FCG=VM,MID=O);
      966    24278        /*E*  ERROR:VMO-E$LIST_THIS_CMD-0
      967    24279              MESSAGE:LIST THIS
      968    24280        */
      969    24281              %VLP_NAME (FPTN=VM_DI_LAST_CMD, LEN=15, L=15, NAME=' ', STCLASS=STATIC);
      970    24308        %VLP_ERRCODE (FPTN=E_DI_LAST_CMD,    STCLASS="CONSTANT SYMDEF",
      971    24309                    ERR#=%E$DI_LAST_CMD,               FCG=VM,MID=O);
      972    24354        /*E*  ERROR:VMO-E$DI_LAST_CMD-0,
      973    24355              MESSAGE:DI LAST
      974    24356        */
      975    24357              %VLP_NAME (FPTN=VM_LIST_LAST_CMD, LEN=15, L=15, NAME=' ', STCLASS=STATIC);
      976    24384        %VLP_ERRCODE (FPTN=E_LIST_LAST_CMD,    STCLASS="CONSTANT SYMDEF",
      977    24385                    ERR#=%E$LIST_LAST_CMD,               FCG=VM,MID=O);
PL6.E3A0      #001=VMO$MAIL File=VMO$MAIL.:VMB6TSI                               WED 08/20/97 15:19 Page:281
      978    24430        /*E*  ERROR:VMO-E$LIST_LAST_CMD-0
      979    24431              MESSAGE:LIST LAST
      980    24432        */
      981    24433              %VLP_NAME (FPTN=VM_DI_REST_CMD, LEN=15, L=15, NAME=' ', STCLASS=STATIC);
      982    24460        %VLP_ERRCODE (FPTN=E_DI_REST_CMD,      STCLASS="CONSTANT SYMDEF",
      983    24461                    ERR#=%E$DI_REST_CMD,                 FCG=VM,MID=O);
      984    24506        /*E*  ERROR:VMO-E$DI_REST_CMD-0
      985    24507              MESSAGE:DI REST
      986    24508        */
      987    24509              %VLP_NAME (FPTN=VM_LIST_REST_CMD, LEN=15, L=15, NAME=' ', STCLASS=STATIC);
      988    24536        %VLP_ERRCODE (FPTN=E_LIST_REST_CMD,    STCLASS="CONSTANT SYMDEF",
      989    24537                    ERR#=%E$LIST_REST_CMD,               FCG=VM,MID=O);
      990    24582        /*E*  ERROR:VMO-E$LIST_REST_CMD-0
      991    24583              MESSAGE:LIST REST
      992    24584        */
      993    24585              %VLP_NAME (FPTN=VM_END_CMD, LEN=15, L=15, NAME=' ', STCLASS=STATIC);
      994    24612        %VLP_ERRCODE (FPTN=E_END_CMD,          STCLASS="CONSTANT SYMDEF",
      995    24613                    ERR#=%E$END_CMD,                     FCG=VM,MID=O);
      996    24658        /*E*  ERROR:VMO-E$END_CMD-0
      997    24659              MESSAGE:END
      998    24660        */
      999    24661              %VLP_NAME (FPTN=VM_SEND_ANSWER, LEN=80, L=80, NAME=' ', STCLASS=STATIC);
     1000    24688        %VLP_ERRCODE (FPTN=E_SEND_ANSWER,      STCLASS="CONSTANT SYMDEF",
     1001    24689                    ERR#=%E$SEND_ANSWER,                 FCG=VM,MID=O);
     1002    24734        /*E*  ERROR:VMO-E$SEND_ANSWER-0
     1003    24735              MESSAGE:ANSWER
     1004    24736        */
     1005    24737              %VLP_NAME (FPTN=VM_SEND_ACKNOWLEDGE, LEN=80, L=80, NAME=' ', STCLASS=STATIC);
     1006    24764        %VLP_ERRCODE (FPTN=E_SEND_ACKNOWLEDGE, STCLASS="CONSTANT SYMDEF",
     1007    24765                    ERR#=%E$SEND_ACKNOWLEDGE,            FCG=VM,MID=O);
     1008    24810        /*E*  ERROR:VMO-E$SEND_ACKNOWLEDGE-0
     1009    24811              MESSAGE:ACKNOWLEDGE
     1010    24812        */
     1011    24813              %VLP_NAME (FPTN=VM_SEND_FORWARD, LEN=80, L=80, NAME=' ', STCLASS=STATIC);
     1012    24840        %VLP_ERRCODE (FPTN=E_SEND_FORWARD,     STCLASS="CONSTANT SYMDEF",
     1013    24841                    ERR#=%E$SEND_FORWARD,                FCG=VM,MID=O);
     1014    24886        /*E*  ERROR:VMO-E$SEND_FORWARD-0
PL6.E3A0      #001=VMO$MAIL File=VMO$MAIL.:VMB6TSI                               WED 08/20/97 15:19 Page:282
     1015    24887              MESSAGE:FORWARD
     1016    24888        */
     1017    24889             %VLP_NAME (FPTN=VM_SEND_FORWARD_ENCL, LEN=80, L=80, NAME=' ', STCLASS=STATIC);
     1018    24916        %VLP_ERRCODE (FPTN=E_SEND_FORWARD_ENCL,    STCLASS="CONSTANT SYMDEF",
     1019    24917                    ERR#=%E$SEND_FORWARD_ENCL,            FCG=VM,MID=O);
     1020    24962        /*E*   ERROR:VMO-E$SEND_FORWARD_ENCL-0
     1021    24963               MESSAGE:FORWARD ENCLOSURE
     1022    24964        */
     1023    24965              %VLP_NAME (FPTN=VM_SEND_MAIL, LEN=80, L=80, NAME=' ', STCLASS=STATIC);
     1024    24992        %VLP_ERRCODE (FPTN=E_SEND_MAIL,        STCLASS="CONSTANT SYMDEF",
     1025    24993                    ERR#=%E$SEND_MAIL,                   FCG=VM,MID=O);
     1026    25038        /*E*  ERROR:VMO-E$SEND_MAIL-0
     1027    25039              MESSAGE: (MAIL=
     1028    25040        */
     1029    25041              %VLP_NAME (FPTN=VM_SEND_NAME, STCLASS="STATIC SYMDEF", STCLASS=STATIC);
     1030    25068        %VLP_ERRCODE (FPTN=E_SEND_NAME,        STCLASS="CONSTANT SYMDEF",
     1031    25069                    ERR#=%E$SEND_NAME,                   FCG=VM,MID=O);
     1032    25114        /*E*  ERROR:VMO-E$SEND_NAME-0
     1033    25115              MESSAGE:SEND
     1034    25116        */
     1035    25117              %VLP_NAME (FPTN=VM_RESEND_NAME, STCLASS="STATIC SYMDEF", STCLASS=STATIC);
     1036    25144        %VLP_ERRCODE (FPTN=E_RESEND_NAME,        STCLASS="CONSTANT SYMDEF",
     1037    25145                    ERR#=%E$RESEND_NAME,                   FCG=VM,MID=O);
     1038    25190        /*E*  ERROR:VMO-E$RESEND_NAME-0
     1039    25191              MESSAGE:RESEND
     1040    25192        */
     1041    25193              %VLP_NAME (FPTN=VM_MAIL_SETUP, LEN=255, L=255, NAME=' ', STCLASS=STATIC);
     1042    25220        %VLP_ERRCODE (FPTN=E_MAIL_SETUP,       STCLASS="CONSTANT SYMDEF",
     1043    25221                    ERR#=%E$MAIL_SETUP,                  FCG=VM,MID=O);
     1044    25266        /*E*  ERROR:VMO-E$MAIL_SETUP-0
     1045    25267              MESSAGE:LIST NEW
     1046    25268        */
     1047    25269        /***** Error codes *****/
     1048    25270              %VLP_ERRCODE (FPTN=E_LISTEXISTS,FCG="VM",MID="O",
     1049    25271              ERR#=%E$LISTEXISTS,STCLASS=CONSTANT);
     1050    25316              %VLP_ERRCODE (FPTN=E_USEREXISTS,FCG="VM",MID="O",
     1051    25317              ERR#=%E$USEREXISTS,STCLASS=CONSTANT);
PL6.E3A0      #001=VMO$MAIL File=VMO$MAIL.:VMB6TSI                               WED 08/20/97 15:19 Page:283
     1052    25362              %VLP_ERRCODE (FPTN=E_NOTMCENTRAL,FCG="VM",MID="O",
     1053    25363              ERR#=%E$NOTMCENTRAL,STCLASS=CONSTANT);
     1054    25408              %VLP_ERRCODE (FPTN=E_FOLDERBUSY,FCG="VM",MID="O",
     1055    25409              ERR#=%E$FOLDERBUSY,STCLASS=CONSTANT);
     1056    25454        /*E*    ERROR: VMO-E$FOLDERBUSY-0
     1057    25455                MESSAGE: Folder %U1 is busy. Try again later.
     1058    25456        */
     1059    25457              %VLP_ERRCODE (FPTN=E_FOLDEROLD,FCG="VM",MID="O",
     1060    25458              ERR#=%E$FOLDEROLD,STCLASS=CONSTANT);
     1061    25503        /*E* ERROR: VMO-E$FOLDEROLD-0
     1062    25504             MESSAGE: Error encountered trying to use the %FN folder.
     1063    25505             MESSAGE1: This may not be a folder or it may be a pre-A00 folder that
     1064    25506                     is incompatible with the current version of MAIL. Delete or rename
     1065    25507                     the %FN file and recreate the folder using MAIL.
     1066    25508        */
     1067    25509              %VLP_ERRCODE (FPTN=E_NAMENTALLOWED,FCG="VM",MID="O",
     1068    25510              ERR#=%E$NAMENTALLOWED,STCLASS=CONSTANT);
     1069    25555        /*E*    ERROR: VMO-E$NAMENTALLOWED-0
     1070    25556                MESSAGE: Names are not allowed here.
     1071    25557        */
     1072    25558              %VLP_ERRCODE (FPTN=E_CRFERR,FCG="VM",MID="O",
     1073    25559              ERR#=%E$CRFERR,STCLASS=CONSTANT);
     1074    25604        /*E*    ERROR: VMO-E$CRFERR-0
     1075    25605                MESSAGE: Error encountered trying to create folder.
     1076    25606        */
     1077    25607              %VLP_ERRCODE (FPTN=E_DELFERR,FCG="VM",MID="O",
     1078    25608              ERR#=%E$DELFERR,STCLASS=CONSTANT);
     1079    25653        /*E*    ERROR: VMO-E$DELFERR-0
     1080    25654                MESSAGE: Error encountered trying to delete folder.
     1081    25655        */
     1082    25656              %VLP_ERRCODE (FPTN=E_NOTALLOW,FCG="VM",MID="O",
     1083    25657              ERR#=%E$NOTALLOW,STCLASS=CONSTANT);
     1084    25702              %VLP_ERRCODE (FPTN=E_UNDEFENTRY,FCG="VM",MID="O",
     1085    25703              ERR#=%E$UNDEFENTRY,STCLASS=CONSTANT);
     1086    25748        /*E* ERROR: VMO-E$UNDEFENTRY-0
     1087    25749             MESSAGE: That name is undefined.
     1088    25750        */
PL6.E3A0      #001=VMO$MAIL File=VMO$MAIL.:VMB6TSI                               WED 08/20/97 15:19 Page:284
     1089    25751              %VLP_ERRCODE (FPTN=E_NMENTRYEXISTS,FCG="VM",MID="O",
     1090    25752              ERR#=%E$NMENTRYEXISTS,STCLASS=CONSTANT);
     1091    25797        /*E* ERROR: VMO-E$NMENTRYEXISTS-0
     1092    25798             MESSAGE: User map entry %U1 points to user %U2.
     1093    25799        */
     1094    25800              %VLP_ERRCODE (FPTN=E_BLANKUSER,FCG="VM",MID="O",
     1095    25801              ERR#=%E$BLANKUSER,STCLASS=CONSTANT);
     1096    25846        /*E*    ERROR: VMO-E$BLANKUSER-0
     1097    25847                MESSAGE: User name can't be blank.
     1098    25848        */
     1099    25849              %VLP_ERRCODE (FPTN=E_CANTDELCUR,FCG="VM",MID="O",
     1100    25850              ERR#=%E$CANTDELCUR,STCLASS=CONSTANT);
     1101    25895        /*E*    ERROR: VMO-E$CANTDELCUR-0
     1102    25896                MESSAGE: Can't delete current folder
     1103    25897                MESSAGE1: You can't delete the folder you are currently USEing.
     1104    25898        */
     1105    25899              %VLP_ERRCODE (FPTN=E_CANTDELF,FCG="VM",MID="O",
     1106    25900              ERR#=%E$CANTDELF,STCLASS=CONSTANT);
     1107    25945        /*E*    ERROR: VMO-E$CANTDELF-0
     1108    25946                MESSAGE: Can't delete folder:
     1109    25947        */
     1110    25948              %VLP_ERRCODE (FPTN=E_TOOMANYSRCH,FCG="VM",MID="O",
     1111    25949              ERR#=%E$TOOMANYSRCH,STCLASS=CONSTANT);
     1112    25994        /*E*     ERROR: VMO-E$TOOMANYSRCH
     1113    25995                 MESSAGE: No more than 4 folders may be specified.
     1114    25996        */
     1115    25997              %VLP_ERRCODE (FPTN=E_NOCURFOLD,FCG="VM",MID="O",
     1116    25998              ERR#=%E$NOCURFOLD,STCLASS=CONSTANT);
     1117    26043        /*E*      ERROR: VMO-E$NOCURFOLD-0
     1118    26044                  MESSAGE: You currently have no folder open
     1119    26045        */
     1120    26046              %VLP_ERRCODE (FPTN=E_INPROG,FCG="VM",MID="O",
     1121    26047              ERR#=%E$INPROG,STCLASS=CONSTANT);
     1122    26092        /*E* ERROR: VMO-E$INPROG-0
     1123    26093             MESSAGE: This message is still being delivered.
     1124    26094             MESSAGE1: The MAILMAN ghost is currently moving the text of this
     1125    26095                     message into the folder.  None of the text can be accessed until
PL6.E3A0      #001=VMO$MAIL File=VMO$MAIL.:VMB6TSI                               WED 08/20/97 15:19 Page:285
     1126    26096                     the process is complete.  Try again later.
     1127    26097        */
     1128    26098              %VLP_ERRCODE (FPTN=E_CANTREN,FCG="VM",MID="O",
     1129    26099              ERR#=%E$CANTREN,STCLASS=CONSTANT);
     1130    26144        /*E* ERROR: VMO-E$CANTREN-0
     1131    26145             MESSAGE: Can't renumber now, MAILMAN is delivering a message.
     1132    26146        */
     1133    26147              %VLP_ERRCODE (FPTN=E_COMPACT,FCG="VM",MID="O",
     1134    26148              ERR#=%E$COMPACT,STCLASS=CONSTANT);
     1135    26193        /*E* ERROR: VMO-E$COMPACT-0
     1136    26194             MESSAGE: Compacting...
     1137    26195        */
     1138    26196              %VLP_ERRCODE (FPTN=E_RENFAILED,FCG="VM",MID="O",
     1139    26197              ERR#=%E$RENFAILED,STCLASS=CONSTANT);
     1140    26242        /*E* ERROR: VMO-E$RENFAILED-0
     1141    26243             MESSAGE: Renumber aborted
     1142    26244        */
     1143    26245              %VLP_ERRCODE (FPTN=E_CANTCOMPACT,FCG="VM",MID="O",
     1144    26246              ERR#=%E$CANTCOMPACT,STCLASS=CONSTANT);
     1145    26291        /*E* ERROR: VMO-E$CANTCOMPACT-0
     1146    26292             MESSAGE: Can't compact, file is busy or MAILMAN is delivering a message
     1147    26293        */
     1148    26294              %VLP_ERRCODE (FPTN=E_NOLIST,FCG="VM",MID="O",
     1149    26295              ERR#=%E$NOLIST,STCLASS=CONSTANT);
     1150    26340        /*E* ERROR: VMO-E$NOLIST-0
     1151    26341             MESSAGE: List does not exist.
     1152    26342        */
     1153    26343              %VLP_ERRCODE (FPTN=E_BADDOMAIN, FCG="VM", MID="O",
     1154    26344              ERR#=%E$BADDOMAIN, STCLASS=CONSTANT);
     1155    26389        /*E*  ERROR: VMO-E$BADDOMAIN-0
     1156    26390              MESSAGE: Domain %U1 is illegal.
     1157    26391        */
     1158    26392              %VLP_ERRCODE( FPTN=E_ANSBROAD,FCG="VM",MID="O",
     1159    26393              ERR#=%E$ANSBROAD,STCLASS=CONSTANT);
     1160    26438        /*E* ERROR:   VMO-E$ANSBROAD-0
     1161    26439             MESSAGE: It is not possible to ANSWER RECIEVERS a message
     1162    26440                      created with the BROADCAST option.
PL6.E3A0      #001=VMO$MAIL File=VMO$MAIL.:VMB6TSI                               WED 08/20/97 15:19 Page:286
     1163    26441        */
     1164    26442              %VLP_ERRCODE (FPTN=E_MEMERR,FCG="VM",MID="O",
     1165    26443              ERR#=%E$MEMERR,STCLASS=CONSTANT);
     1166    26488              %VLP_ERRCODE (FPTN=E_NEEDMID,FCG="VM",MID="O",
     1167    26489              ERR#=%E$NEEDMID,STCLASS=CONSTANT);
     1168    26534              %VLP_ERRCODE (FPTN=E_NOMORE,FCG="VM",MID="O",
     1169    26535              ERR#=%E$NOMORE,STCLASS=CONSTANT);
     1170    26580              %VLP_ERRCODE (FPTN=E_NOUPDATE,FCG="VM",MID="O",
     1171    26581              ERR#=%E$NOUPDATE,STCLASS=CONSTANT);
     1172    26626              %VLP_ERRCODE (FPTN=E_WERR,FCG="VM",MID="O",
     1173    26627              ERR#=%E$WERR,STCLASS=CONSTANT);
     1174    26672              %VLP_ERRCODE (FPTN=E_NOFILE,FCG="FM",MID="N",MON='1'B,
     1175    26673              ERR#=%E$NOFILE,STCLASS=CONSTANT);
     1176    26718              %VLP_ERRCODE (FPTN=E_BADRANGE,FCG="VM",MID="O",
     1177    26719              ERR#=%E$BADRANGE,STCLASS=CONSTANT);
     1178    26764        /*E* ERROR: VMO-E$BADRANGE
     1179    26765             MESSAGE: End of range is less than start.
     1180    26766        */
     1181    26767              %VLP_ERRCODE (FPTN=E_BIGNUM,FCG="VM",MID="O",
     1182    26768              ERR#=%E$BIGNUM,STCLASS=CONSTANT);
     1183    26813        /*E* ERROR: VMO-E$BIGNUM
     1184    26814             MESSAGE: Message number is too large.
     1185    26815        */
     1186    26816              %VLP_ERRCODE (FPTN=E_NEEDSEED,FCG="VM",MID="O",
     1187    26817              ERR#=%E$NEEDSEED,STCLASS=CONSTANT);
     1188    26862        /*E* ERROR: VMO-E$NEEDSEED
     1189    26863             MESSAGE:CRPT option must be specified for an encrypted message.
     1190    26864        */
     1191    26865              %VLP_ERRCODE (FPTN=E_DI_BADSEED,FCG="VM",MID="O",
     1192    26866              ERR#=%E$DI_BADSEED,STCLASS=CONSTANT);
     1193    26911        /*E* ERROR: VMO-E$DI_BADSEED
     1194    26912             MESSAGE:Incorrect decryption seed supplied; message body omitted.
     1195    26913        */
     1196    26914              %VLP_ERRCODE (FPTN=E_FWD_BADSEED,FCG="VM",MID="O",
     1197    26915              ERR#=%E$FWD_BADSEED,STCLASS=CONSTANT);
     1198    26960              %VLP_ERRCODE (FPTN=E_NOENCLS,FCG="VM",MID="O",
     1199    26961              ERR#=%E$NOENCLS,STCLASS=CONSTANT);
PL6.E3A0      #001=VMO$MAIL File=VMO$MAIL.:VMB6TSI                               WED 08/20/97 15:19 Page:287
     1200    27006        /*E* ERROR: VMO-%E$NOENCLS
     1201    27007             MESSAGE:No enclosures are attached to this message.
     1202    27008        */
     1203    27009              %VLP_ERRCODE (FPTN=E_DETALLOWSONE,FCG="VM",MID="O",
     1204    27010              ERR#=%E$DETALLOWSONE,STCLASS=CONSTANT);
     1205    27055        /*E* ERROR: VMO-%E$DETALLOWSONE
     1206    27056             MESSAGE:Can't detach. Too many messages in the current context.
     1207    27057             MESSAGE1:The DETACH command operates on a single message and more
     1208    27058                       than one is in the current selection context. Set the context
     1209    27059                       using LIST, DISPLAY, or SELECT and try again.
     1210    27060        */
     1211    27061              %VLP_ERRCODE (FPTN=E_ENCLNOTFOUND,FCG="VM",MID="O",
     1212    27062              ERR#=%E$ENCLNOTFOUND,STCLASS=CONSTANT);
     1213    27107        /*E* ERROR: VMO-%E$ENCLNOTFOUND
     1214    27108             MESSAGE:Enclosure not found.
     1215    27109        */
     1216    27110              %VLP_ERRCODE (FPTN=E_ENCLDELETED,FCG="VM",MID="O",
     1217    27111              ERR#=%E$ENCLDELETED,STCLASS=CONSTANT);
     1218    27156        /*E* ERROR: VMO-%E$ENCLDELETED
     1219    27157             MESSAGE:Enclosure has already been deleted.
     1220    27158        */
     1221    27159              %VLP_ERRCODE (FPTN=E_ENCLBROKEN,FCG="VM",MID="O",
     1222    27160              ERR#=%E$ENCLBROKEN,STCLASS=CONSTANT);
     1223    27205        /*E* ERROR: VMO-%E$ENCLBROKEN
     1224    27206             MESSAGE:Wrong number of records. This enclosure may be broken.
     1225    27207             MESSAGE1: The number of enclosure records found is less than the
     1226    27208                       number specified. The data in this enclosure may be
     1227    27209                       unreliable.
     1228    27210        */
     1229    27211        /*E* ERROR: VMO-E$FWD_BADSEED
     1230    27212             MESSAGE:Incorrect decryption seed supplied.
     1231    27213        */
     1232    27214        %EJECT;
PL6.E3A0      #001=VMO$MAIL File=VMO$MAIL.:VMB6TSI                               WED 08/20/97 15:19 Page:288
     1233    27215        /*
     1234    27216             ***** Initialize VM_CURRENT_FOLDER flags so
     1235    27217                   it is possible to report to mailman the
     1236    27218                   status of the current folder if we trap ...
     1237    27219        */
     1238    27220    1         VM_CURRENT_FOLDER.FLAGS = %NO#;

  27220 19 000002   001266 450000 11                 STZ     VM_CURRENT_FOLDER+19

     1239    27221        /*
     1240    27222             ***** Reset dcbs #1 - #4
     1241    27223                   they cause problems later when M$LINKing
     1242    27224                   to other processors ...
     1243    27225        */
     1244    27226    1       IF B$JIT.PRFLAGS.SI

  27226 19 000003   000000 470400 xsym               LDP0    B$JIT$
        19 000004   000030 234100                    SZN     24,,PR0
        19 000005   000012 605000 19                 TPL     IGNORE_YC1

     1245    27227    1       THEN
     1246    27228    1           CALL M$YC (RESET_#1) ALTRET(IGNORE_YC1);

  27228 19 000006   001742 630400 11                 EPPR0   RESET_#1
        19 000007   400011 713400                    CLIMB   alt,+9
        19 000010   401000 401760                    pmme    nvectors=3
        19 000011   000012 702000 19                 TSX2    IGNORE_YC1

     1247    27229    1   IGNORE_YC1:
     1248    27230
     1249    27231    1       IF B$JIT.PRFLAGS.UI

  27231 19 000012   000000 470400 xsym  IGNORE_YC1   LDP0    B$JIT$
        19 000013   000030 236100                    LDQ     24,,PR0
        19 000014   200000 316003                    CANQ    65536,DU
        19 000015   000022 600000 19                 TZE     IGNORE_YC2

PL6.E3A0      #001=VMO$MAIL File=VMO$MAIL.:VMB6TSI                               WED 08/20/97 15:19 Page:289
     1250    27232    1       THEN
     1251    27233    1           CALL M$YC (RESET_#2) ALTRET(IGNORE_YC2);

  27233 19 000016   001752 630400 11                 EPPR0   RESET_#2
        19 000017   400011 713400                    CLIMB   alt,+9
        19 000020   401000 401760                    pmme    nvectors=3
        19 000021   000022 702000 19                 TSX2    IGNORE_YC2

     1252    27234    1   IGNORE_YC2:
     1253    27235
     1254    27236    1       IF B$JIT.PRFLAGS.OU

  27236 19 000022   000000 470400 xsym  IGNORE_YC2   LDP0    B$JIT$
        19 000023   000030 236100                    LDQ     24,,PR0
        19 000024   100000 316003                    CANQ    32768,DU
        19 000025   000032 600000 19                 TZE     IGNORE_YC3

     1255    27237    1       THEN
     1256    27238    1           CALL M$YC (RESET_#3) ALTRET(IGNORE_YC3);

  27238 19 000026   001762 630400 11                 EPPR0   RESET_#3
        19 000027   400011 713400                    CLIMB   alt,+9
        19 000030   401000 401760                    pmme    nvectors=3
        19 000031   000032 702000 19                 TSX2    IGNORE_YC3

     1257    27239    1   IGNORE_YC3:
     1258    27240
     1259    27241    1       IF B$JIT.PRFLAGS.LS

  27241 19 000032   000000 470400 xsym  IGNORE_YC3   LDP0    B$JIT$
        19 000033   000030 236100                    LDQ     24,,PR0
        19 000034   040000 316003                    CANQ    16384,DU
        19 000035   000042 600000 19                 TZE     IGNORE_YC4

     1260    27242    1       THEN
     1261    27243    1           CALL M$YC (RESET_#4) ALTRET(IGNORE_YC4);

PL6.E3A0      #001=VMO$MAIL File=VMO$MAIL.:VMB6TSI                               WED 08/20/97 15:19 Page:290
  27243 19 000036   001772 630400 11                 EPPR0   RESET_#4
        19 000037   400011 713400                    CLIMB   alt,+9
        19 000040   401000 401760                    pmme    nvectors=3
        19 000041   000042 702000 19                 TSX2    IGNORE_YC4

  27241 19 000042                       IGNORE_YC4   null
     1262    27244    1   IGNORE_YC4: ;
     1263    27245
     1264    27246        /*
     1265    27247             ***** How data segments are used in mail/send/mailman ...
     1266    27248
     1267    27249                   Segments used in all modules
     1268    27250                   ----------------------------
     1269    27251                   VM_ADDLIST
     1270    27252                      - used for building new address list (VMA$EXPAND_LIST).
     1271    27253
     1272    27254                   VM_HEADER
     1273    27255                      - used to contain the header of a message.
     1274    27256
     1275    27257                   VM_PROFILE
     1276    27258                      - used to contain the profile of a folder.
     1277    27259
     1278    27260                   VM_WORK
     1279    27261                      - used to contain list and user definitions when
     1280    27262                        expanding an address list.
     1281    27263
     1282    27264                   Segments used by only mail and send
     1283    27265                   -----------------------------------
     1284    27266                   VM_PARSEAREA
     1285    27267                      - used to contain input and parse info (XUR$GETCMD)
     1286    27268
     1287    27269                   VM_SELECT
     1288    27270                      - used to contain message selection contexts
     1289    27271                        Note: VM_SELECT shares a data segment with VM_PARSEAREA.
     1290    27272                        VM_SELECT occupies the first 1024 words and VM_PARSEAREA
     1291    27273                        the subsequent 2048 words (more if ADAPT needs memory).
     1292    27274
PL6.E3A0      #001=VMO$MAIL File=VMO$MAIL.:VMB6TSI                               WED 08/20/97 15:19 Page:291
     1293    27275        */
     1294    27276    1       CALL VMA$ENLARGE_SEGMENT (VM_HEADER_,1024) ALTRET(E_PMME);

  27276 19 000042   000002 630400 20                 EPPR0   2
        19 000043   000000 631400 20                 EPPR1   0
        19 000044   000000 701000 xent               TSX1    VMA$ENLARGE_SEGMENT
        19 000045   001041 702000 19                 TSX2    E_PMME

     1295    27277    1       CALL VMA$ENLARGE_SEGMENT (VM_PROFILE_,1024) ALTRET(E_PMME);

  27277 19 000046   000004 630400 20                 EPPR0   4
        19 000047   000000 631400 20                 EPPR1   0
        19 000050   000000 701000 xent               TSX1    VMA$ENLARGE_SEGMENT
        19 000051   001041 702000 19                 TSX2    E_PMME

     1296    27278    1       CALL VMA$ENLARGE_SEGMENT (VM_ADDLIST_,1024) ALTRET(E_PMME);

  27278 19 000052   000006 630400 20                 EPPR0   6
        19 000053   000000 631400 20                 EPPR1   0
        19 000054   000000 701000 xent               TSX1    VMA$ENLARGE_SEGMENT
        19 000055   001041 702000 19                 TSX2    E_PMME

     1297    27279    1       CALL VMA$ENLARGE_SEGMENT (VM_WORK_,1024) ALTRET(E_PMME);

  27279 19 000056   000010 630400 20                 EPPR0   8
        19 000057   000000 631400 20                 EPPR1   0
        19 000060   000000 701000 xent               TSX1    VMA$ENLARGE_SEGMENT
        19 000061   001041 702000 19                 TSX2    E_PMME

     1298    27280    1       CALL VMA$ENLARGE_SEGMENT (VM_SELECT_,1024) ALTRET(E_PMME);

  27280 19 000062   000012 630400 20                 EPPR0   10
        19 000063   000000 631400 20                 EPPR1   0
        19 000064   000000 701000 xent               TSX1    VMA$ENLARGE_SEGMENT
        19 000065   001041 702000 19                 TSX2    E_PMME

     1299    27281    1       CALL VMA$ENLARGE_SEGMENT (VM_PARSEAREA_,2048) ALTRET(E_PMME);
PL6.E3A0      #001=VMO$MAIL File=VMO$MAIL.:VMB6TSI                               WED 08/20/97 15:19 Page:292

  27281 19 000066   000015 630400 20                 EPPR0   13
        19 000067   000000 631400 20                 EPPR1   0
        19 000070   000000 701000 xent               TSX1    VMA$ENLARGE_SEGMENT
        19 000071   001041 702000 19                 TSX2    E_PMME

     1300    27282    1       VBASE(VM_PARSEAREA_) = PINCRW(VBASE(VM_PARSEAREA_),(VBOUND(VM_SELECT_)+3)/4);

  27282 19 000072   000000 236000 xsym               LDQ     VM_SELECT_
        19 000073   000020 772000                    QRL     16
        19 000074   000003 036007                    ADLQ    3,DL
        19 000075   000002 772000                    QRL     2
        19 000076   000022 736000                    QLS     18
        19 000077   000001 036000 xsym               ADLQ    VM_PARSEAREA_+1
        19 000100   000001 756000 xsym               STQ     VM_PARSEAREA_+1

     1301    27283    1       VBOUND(VM_PARSEAREA_) = VBOUND(VM_PARSEAREA_) - (VBOUND(VM_SELECT_) + 1);

  27283 19 000101   000000 236000 xsym               LDQ     VM_SELECT_
        19 000102   000020 772000                    QRL     16
        19 000103   201706 756100                    STQ     I+100,,AUTO
        19 000104   000000 236000 xsym               LDQ     VM_PARSEAREA_
        19 000105   000020 772000                    QRL     16
        19 000106   201706 136100                    SBLQ    I+100,,AUTO
        19 000107   000001 136007                    SBLQ    1,DL
        19 000110   000020 736000                    QLS     16
        19 000111   000000 676000 xsym               ERQ     VM_PARSEAREA_
        19 000112   000017 376000 20                 ANQ     15
        19 000113   000000 656000 xsym               ERSQ    VM_PARSEAREA_

     1302    27284    1       CALL VMA$OPEN_ENCL_SEGS ALTRET(E_PMME);

  27284 19 000114   000020 631400 20                 EPPR1   16
        19 000115   000000 701000 xent               TSX1    VMA$OPEN_ENCL_SEGS
        19 000116   001041 702000 19                 TSX2    E_PMME

     1303    27285
PL6.E3A0      #001=VMO$MAIL File=VMO$MAIL.:VMB6TSI                               WED 08/20/97 15:19 Page:293
     1304    27286        /*
     1305    27287             ***** Initilization of XUR$GETCMD data ...
     1306    27288        */
     1307    27289    1       XUR_INIT.WORK_ = VM_PARSEAREA_;

  27289 19 000117   000000 237000 xsym               LDAQ    VM_PARSEAREA_
        19 000120   000023 755000 11                 STA     XUR_INIT+5
        19 000121   000024 756000 11                 STQ     XUR_INIT+6

     1308    27290    1       CALL XUR$INIT(XUR_INIT,,XUG_GETCMD$)

  27290 19 000122   200003 630500                    EPPR0   XUG_GETCMD$,,AUTO
        19 000123   201710 450500                    STP0    I+102,,AUTO
        19 000124   000022 236000 20                 LDQ     18
        19 000125   000023 235000 20                 LDA     19
        19 000126   201706 757100                    STAQ    I+100,,AUTO
        19 000127   201706 630500                    EPPR0   I+100,,AUTO
        19 000130   000021 631400 20                 EPPR1   17
        19 000131   000000 701000 xent               TSX1    XUR$INIT
        19 000132   000134 702000 19                 TSX2    s:27292
        19 000133   000136 710000 19                 TRA     s:27294

     1309    27291    2       WHENALTRETURN DO;

     1310    27292    2           CALL M$XXX;

  27292 19 000134   000003 713400                    CLIMB   3
        19 000135   000000 401760                    pmme    nvectors=0

     1311    27293    2       END;

     1312    27294    1       CALL XUR$SETERRMSG (ERRMSG_FID) ALTRET(E_PMME);

  27294 19 000136   000025 630400 20                 EPPR0   21
        19 000137   000024 631400 20                 EPPR1   20
        19 000140   000000 701000 xent               TSX1    XUR$SETERRMSG
        19 000141   001041 702000 19                 TSX2    E_PMME
PL6.E3A0      #001=VMO$MAIL File=VMO$MAIL.:VMB6TSI                               WED 08/20/97 15:19 Page:294

     1313    27295        /*
     1314    27296              Setup parse nodes for users native language.
     1315    27297        */
     1316    27298
     1317    27299    1       CALL VMD$GETNODES(VM_NATL_PAIRS,NODES$,VM_NODEFID,VM_NODENAMES);

  27299 19 000142   000030 237000 20                 LDAQ    24
        19 000143   201710 757100                    STAQ    I+102,,AUTO
        19 000144   200011 630500                    EPPR0   NODES$,,AUTO
        19 000145   201707 450500                    STP0    I+101,,AUTO
        19 000146   000027 236000 20                 LDQ     23
        19 000147   201706 756100                    STQ     I+100,,AUTO
        19 000150   201706 630500                    EPPR0   I+100,,AUTO
        19 000151   000026 631400 20                 EPPR1   22
        19 000152   000000 701000 xent               TSX1    VMD$GETNODES
        19 000153   000000 011000                    NOP     0

     1318    27300    1       MAIL_NODES$ = NODES_TO_USE (%PN_MAIL_NODES);

  27300 19 000154   200011 470500                    LDP0    NODES$,,AUTO
        19 000155   000000 236100                    LDQ     0,,PR0
        19 000156   200004 756100                    STQ     MAIL_NODES$,,AUTO

     1319    27301    1       MAIL_CMD$ = NODES_TO_USE (%PN_MAIL_CMD);

  27301 19 000157   000001 236100                    LDQ     1,,PR0
        19 000160   200006 756100                    STQ     MAIL_CMD$,,AUTO

     1320    27302    1       MODIFY_LIST$ = NODES_TO_USE (%PN_MODIFY_LIST);

  27302 19 000161   000002 236100                    LDQ     2,,PR0
        19 000162   200007 756100                    STQ     MODIFY_LIST$,,AUTO

     1321    27303    1       MODIFY_USER$ = NODES_TO_USE (%PN_MODIFY_USER);

  27303 19 000163   000003 236100                    LDQ     3,,PR0
PL6.E3A0      #001=VMO$MAIL File=VMO$MAIL.:VMB6TSI                               WED 08/20/97 15:19 Page:295
        19 000164   200010 756100                    STQ     MODIFY_USER$,,AUTO

     1322    27304    1       SEND_CMD$ = NODES_TO_USE (%PN_SEND_CMD);

  27304 19 000165   000017 236100                    LDQ     15,,PR0
        19 000166   200005 756100                    STQ     SEND_CMD$,,AUTO

     1323    27305    1       VM_ADDRESS_SPEC$ = NODES_TO_USE (%PN_ADDRESS_SPEC);

  27305 19 000167   000032 236100                    LDQ     26,,PR0
        19 000170   000066 756000 11                 STQ     VM_ADDRESS_SPEC$

     1324    27306
     1325    27307        /*
     1326    27308             ***** Setup command input and echo dcbs ...
     1327    27309        */
     1328    27310    1       CALL M$OPEN (OPEN_COMMAND_STREAM_DEFAULT) ALTRET(E_PMME);

  27310 19 000171   001060 630400 12                 EPPR0   OPEN_COMMAND_STREAM_DEFAULT
        19 000172   450000 713400                    CLIMB   alt,open
        19 000173   410400 401760                    pmme    nvectors=18
        19 000174   001041 702000 19                 TSX2    E_PMME

     1329    27311    1       CALL XUR$SETDCBS (M$SI_NUM,M$ME_NUM);

  27311 19 000175   000032 630400 20                 EPPR0   26
        19 000176   000000 631400 20                 EPPR1   0
        19 000177   000000 701000 xent               TSX1    XUR$SETDCBS
        19 000200   000000 011000                    NOP     0

     1330    27312    1       CALL M$XCON(SET_XCON) ALTRET(E_PMME);

  27312 19 000201   002102 630400 11                 EPPR0   SET_XCON
        19 000202   410003 713400                    CLIMB   alt,+4099
        19 000203   400400 401760                    pmme    nvectors=2
        19 000204   001041 702000 19                 TSX2    E_PMME

PL6.E3A0      #001=VMO$MAIL File=VMO$MAIL.:VMB6TSI                               WED 08/20/97 15:19 Page:296
     1331    27313    1       CALL M$INT (FPT_INT) ALTRET(E_PMME);

  27313 19 000205   002076 630400 11                 EPPR0   FPT_INT
        19 000206   410002 713400                    CLIMB   alt,+4098
        19 000207   400000 401760                    pmme    nvectors=1
        19 000210   001041 702000 19                 TSX2    E_PMME

     1332    27314    1       CALL XUR$DISABLE;

  27314 19 000211   000020 631400 20                 EPPR1   16
        19 000212   000000 701000 xent               TSX1    XUR$DISABLE
        19 000213   000000 011000                    NOP     0

     1333    27315        /*
     1334    27316             ***** Open output stream (M$LO).
     1335    27317        */
     1336    27318    1       CALL M$OPEN (OPEN_OUTPUT_STREAM_DEFAULT) ALTRET(E_PMME);

  27318 19 000214   000766 630400 12                 EPPR0   OPEN_OUTPUT_STREAM_DEFAULT
        19 000215   450000 713400                    CLIMB   alt,open
        19 000216   410400 401760                    pmme    nvectors=18
        19 000217   001041 702000 19                 TSX2    E_PMME

     1337    27319
     1338    27320        /*
     1339    27321             ***** Get the user name of this user ...
     1340    27322        */
     1341    27323    1       USER_NAME.L# = LENGTHC(USER_NAME.NAME#);

  27323 19 000220   400000 236003                    LDQ     -131072,DU
        19 000221   004427 552040 11                 STBQ    USER_NAME,'40'O

     1342    27324    1       CALL VMF$FROM (USER_NAME) ALTRET(E_PMME);

  27324 19 000222   000034 630400 20                 EPPR0   28
        19 000223   000024 631400 20                 EPPR1   20
        19 000224   000000 701000 xent               TSX1    VMF$FROM
PL6.E3A0      #001=VMO$MAIL File=VMO$MAIL.:VMB6TSI                               WED 08/20/97 15:19 Page:297
        19 000225   001041 702000 19                 TSX2    E_PMME

     1343    27325        /*
     1344    27326             ***** Get the name of this site ...
     1345    27327        */
     1346    27328    1       KEY_VALUE='*IAM';

  27328 19 000226   001356 235000 12                 LDA     VM_PROKEY+1
        19 000227   000035 236000 20                 LDQ     29
        19 000230   200012 757100                    STAQ    KEY_VALUE,,AUTO

     1347    27329    1       CALL VMA$GET_SITE_NAME (KEY_VALUE,VM_SITENAME) ALTRET(E_PMME);

  27329 19 000231   000036 236000 20                 LDQ     30
        19 000232   201707 756100                    STQ     I+101,,AUTO
        19 000233   200012 630500                    EPPR0   KEY_VALUE,,AUTO
        19 000234   201706 450500                    STP0    I+100,,AUTO
        19 000235   201706 630500                    EPPR0   I+100,,AUTO
        19 000236   000000 631400 20                 EPPR1   0
        19 000237   000000 701000 xent               TSX1    VMA$GET_SITE_NAME
        19 000240   001041 702000 19                 TSX2    E_PMME

     1348    27330
     1349    27331        /*
     1350    27332             ***** Open mailcg so we can talk to mailman ...
     1351    27333        */
     1352    27334    1       CALL BINCHAR(VM_MAILCG_SETSTA.MYSTATION#,B$JIT.SYSID);

  27334 19 000241   000000 470400 xsym               LDP0    B$JIT$
        19 000242   000000 236100                    LDQ     0,,PR0
        19 000243   777777 376007                    ANQ     -1,DL
        19 000244   000000 235003                    LDA     0,DU
        19 000245   201706 757100                    STAQ    I+100,,AUTO
        19 000246   000000 301500                    BTD
        19 000247   201706 000010                    NDSC9   I+100,,AUTO              cn=0,s=lsgnf,sf=0,n=8
        19 000250   000000 030010 xsym               NDSC9   VM_MAILCG_SETSTA         cn=0,s=nosgn,sf=0,n=8

PL6.E3A0      #001=VMO$MAIL File=VMO$MAIL.:VMB6TSI                               WED 08/20/97 15:19 Page:298
     1353    27335    1       CALL INSERT(VM_MAILCG_SETSTA.MYSTATION#,0,4,'MAIL');

  27335 19 000251   001357 236000 12                 LDQ     VM_PROKEY+2
        19 000252   000000 756000 xsym               STQ     VM_MAILCG_SETSTA

     1354    27336    1       REMEMBER END_LOOP IN VMO_REMEMBER;

  27336 19 000253   000764 635000 19                 EAA     END_LOOP
        19 000254   000070 452400 11                 STP2    VMO_REMEMBER
        19 000255   000071 755000 11                 STA     VMO_REMEMBER+1

     1355    27337        /*
     1356    27338             ***** Setup the default search list.
     1357    27339                   Therefore, open :MAIL_CENTRAL.:MAIL
     1358    27340                   if it exists. Otherwise, an unregistered system ...
     1359    27341        */
     1360    27342    1       CALL VMA$OPEN_GLOBAL (M$MAIL_GLOBAL_NUM)

  27342 19 000256   000037 630400 20                 EPPR0   31
        19 000257   000024 631400 20                 EPPR1   20
        19 000260   000000 701000 xent               TSX1    VMA$OPEN_GLOBAL
        19 000261   000271 702000 19                 TSX2    s:27351

     1361    27343    1       WHENRETURN
     1362    27344    2       DO;

     1363    27345    2           VM_SEARCH_INFO.NUM_ENTRIES = 1;

  27345 19 000262   000001 235007                    LDA     1,DL
        19 000263   001570 755000 11                 STA     VM_SEARCH_INFO

     1364    27346    2           VM_SEARCH_INFO.DCB#(0) = M$MAIL_GLOBAL_NUM;

  27346 19 000264   000000 236000 xsym               LDQ     M$MAIL_GLOBAL_NUM
        19 000265   001571 756000 11                 STQ     VM_SEARCH_INFO+1

     1365    27347    2           VM_SEARCH_INFO.GLOBAL = '1'B;
PL6.E3A0      #001=VMO$MAIL File=VMO$MAIL.:VMB6TSI                               WED 08/20/97 15:19 Page:299

  27347 19 000266   200000 236003                    LDQ     65536,DU
        19 000267   001632 256000 11                 ORSQ    VM_SEARCH_INFO+34

     1366    27348    2       END;

  27348 19 000270   000274 710000 19                 TRA     s:27357

     1367    27349    1       WHENALTRETURN
     1368    27350    2       DO;

     1369    27351    2           VM_SEARCH_INFO.NUM_ENTRIES = 0;

  27351 19 000271   001570 450000 11                 STZ     VM_SEARCH_INFO

     1370    27352    2           VM_SEARCH_INFO.GLOBAL = '0'B;

  27352 19 000272   000040 236000 20                 LDQ     32
        19 000273   001632 356000 11                 ANSQ    VM_SEARCH_INFO+34

     1371    27353    2       END;

     1372    27354        /*
     1373    27355             ***** Open the user's central folder ...
     1374    27356        */
     1375    27357    1       CALL VMB$FIND_DEFAULT (,USER_NAME,VM_CENTRAL_FOLDER,

  27357 19 000274   000042 236000 20                 LDQ     34
        19 000275   201712 756100                    STQ     I+104,,AUTO
        19 000276   000044 237000 20                 LDAQ    36
        19 000277   201710 757100                    STAQ    I+102,,AUTO
        19 000300   000034 236000 20                 LDQ     28
        19 000301   000022 235000 20                 LDA     18
        19 000302   201706 757100                    STAQ    I+100,,AUTO
        19 000303   201706 630500                    EPPR0   I+100,,AUTO
        19 000304   000041 631400 20                 EPPR1   33
        19 000305   000000 701000 xent               TSX1    VMB$FIND_DEFAULT
PL6.E3A0      #001=VMO$MAIL File=VMO$MAIL.:VMB6TSI                               WED 08/20/97 15:19 Page:300
        19 000306   000423 702000 19                 TSX2    s:27395

     1376    27358    1         M$MAIL_CENTRAL_NUM,VM_SEARCH_INFO)
     1377    27359    2       WHENRETURN DO;

     1378    27360    2           CALL VMB$USE_DEFAULT (,USER_NAME,VM_CURRENT_FOLDER,M$MAIL_FILE_NUM,
             27360                    VM_SEARCH_INFO,,'1'B)

  27360 19 000307   000050 236000 20                 LDQ     40
        19 000310   201714 756100                    STQ     I+106,,AUTO
        19 000311   000022 236000 20                 LDQ     18
        19 000312   000042 235000 20                 LDA     34
        19 000313   201712 757100                    STAQ    I+104,,AUTO
        19 000314   000052 237000 20                 LDAQ    42
        19 000315   201710 757100                    STAQ    I+102,,AUTO
        19 000316   000034 236000 20                 LDQ     28
        19 000317   000022 235000 20                 LDA     18
        19 000320   201706 757100                    STAQ    I+100,,AUTO
        19 000321   201706 630500                    EPPR0   I+100,,AUTO
        19 000322   000046 631400 20                 EPPR1   38
        19 000323   000000 701000 xent               TSX1    VMB$USE_DEFAULT
        19 000324   000420 702000 19                 TSX2    s:27390

     1379    27361    3           WHENRETURN DO;

     1380    27362                            /* get profile, for srch list address resolution only */
     1381    27363    3               CALL VMD$GET_PROFILE(M$MAIL_FILE_NUM)

  27363 19 000325   000053 630400 20                 EPPR0   43
        19 000326   000024 631400 20                 EPPR1   20
        19 000327   000000 701000 xent               TSX1    VMD$GET_PROFILE
        19 000330   000332 702000 19                 TSX2    s:27365
        19 000331   000344 710000 19                 TRA     s:27369

     1382    27364    4               WHENALTRETURN DO;

     1383    27365    5                   DO INDX1=0 TO %VM_MAX_SRCH-1;
PL6.E3A0      #001=VMO$MAIL File=VMO$MAIL.:VMB6TSI                               WED 08/20/97 15:19 Page:301

  27365 19 000332   200033 450100                    STZ     INDX1,,AUTO
        19 000333   000341 710000 19                 TRA     s:27367+1

     1384    27366    5                       VM_PROFILE.SEARCH_LIST$(INDX1)=ADDR(NIL);

  27366 19 000334   000022 236000 20                 LDQ     18
        19 000335   000000 470400 xsym               LDP0    VM_PROFILE$
        19 000336   200033 720100                    LXL0    INDX1,,AUTO
        19 000337   000115 756110                    STQ     77,X0,PR0

     1385    27367    5                   END;

  27367 19 000340   200033 054100                    AOS     INDX1,,AUTO
        19 000341   200033 235100                    LDA     INDX1,,AUTO
        19 000342   000003 115007                    CMPA    3,DL
        19 000343   000334 604400 19                 TMOZ    s:27366

     1386    27368    4               END;

     1387    27369    3               VM_RADDRESS.NOMAD.FOLDER = VM_CURRENT_FOLDER.FOLDER;

  27369 19 000344   040100 100400                    MLR     fill='040'O
        19 000345   001246 400022 11                 ADSC9   VM_CURRENT_FOLDER+3      cn=2,n=18
        19 000346   200760 400022                    ADSC9   VM_RADDRESS+7,,AUTO      cn=2,n=18

     1388    27370    3               IF VM_PROFILE.FILE_FOLDER$ ~= ADDR(NIL)

  27370 19 000347   000000 470400 xsym               LDP0    VM_PROFILE$
        19 000350   000114 236100                    LDQ     76,,PR0
        19 000351   000022 116000 20                 CMPQ    18
        19 000352   000373 600000 19                 TZE     s:27377
        19 000353   000114 471500                    LDP1    76,,PR0
        19 000354   040000 106500                    CMPC    fill='040'O
        19 000355   100007 400031                    ADSC9   7,,PR1                   cn=2,n=25
        19 000356   001360 000007 12                 ADSC9   VM_PROKEY+3              cn=0,n=7
        19 000357   000373 601000 19                 TNZ     s:27377
PL6.E3A0      #001=VMO$MAIL File=VMO$MAIL.:VMB6TSI                               WED 08/20/97 15:19 Page:302
        19 000360   000000 473400 xsym               LDP3    B$JIT$
        19 000361   040100 106500                    CMPC    fill='040'O
        19 000362   100021 600010                    ADSC9   17,,PR1                  cn=3,n=8
        19 000363   300001 000010                    ADSC9   1,,PR3                   cn=0,n=8
        19 000364   000373 601000 19                 TNZ     s:27377

     1389    27371    3                 AND (VM_PROFILE.FILE_FOLDER$->VM$RADDRESS.FOLDER='CENTRAL')
     1390    27372    3                 AND (VM_PROFILE.FILE_FOLDER$->VM$RADDRESS.ACCT=B$JIT.ACCN)
     1391    27373    4               THEN DO;

     1392    27374    4                   VM_PROFILE.FILE_FOLDER$ = ADDR(NIL);

  27374 19 000365   000022 236000 20                 LDQ     18
        19 000366   000114 756100                    STQ     76,,PR0

     1393    27375    4                   CALL VMD$PUT_PROFILE(M$MAIL_FILE_NUM);

  27375 19 000367   000053 630400 20                 EPPR0   43
        19 000370   000024 631400 20                 EPPR1   20
        19 000371   000000 701000 xent               TSX1    VMD$PUT_PROFILE
        19 000372   000000 011000                    NOP     0

     1394    27376    4               END;

     1395    27377    3               VM_SEARCH_INFO.CURRENT = '1'B;

  27377 19 000373   100000 236003                    LDQ     32768,DU
        19 000374   001632 256000 11                 ORSQ    VM_SEARCH_INFO+34

     1396    27378    3               IF VM_CURRENT_FOLDER.ACCT ~= VM_MAIL_ACCT.ACCT#

  27378 19 000375   040000 106400                    CMPC    fill='040'O
        19 000376   001244 400010 11                 ADSC9   VM_CURRENT_FOLDER+1      cn=2,n=8
        19 000377   000000 000010 xsym               ADSC9   VM_MAIL_ACCT             cn=0,n=8
        19 000400   000413 600000 19                 TZE     s:27385
        19 000401   040000 106400                    CMPC    fill='040'O
        19 000402   001246 400031 11                 ADSC9   VM_CURRENT_FOLDER+3      cn=2,n=25
PL6.E3A0      #001=VMO$MAIL File=VMO$MAIL.:VMB6TSI                               WED 08/20/97 15:19 Page:303
        19 000403   001360 000007 12                 ADSC9   VM_PROKEY+3              cn=0,n=7
        19 000404   000413 600000 19                 TZE     s:27385
        19 000405   001570 235000 11                 LDA     VM_SEARCH_INFO
        19 000406   000413 600000 19                 TZE     s:27385

     1397    27379    3                 AND VM_CURRENT_FOLDER.FOLDER ~= 'CENTRAL'
     1398    27380    3                 AND VM_SEARCH_INFO.NUM_ENTRIES > 0
     1399    27381    4               THEN DO;

     1400    27382    4                   VM_SEARCH_INFO.NUM_ENTRIES = VM_SEARCH_INFO.NUM_ENTRIES+1;

  27382 19 000407   000001 035007                    ADLA    1,DL
        19 000410   001570 755000 11                 STA     VM_SEARCH_INFO

     1401    27383    4                   VM_SEARCH_INFO.DCB#(1) = VM_SEARCH_INFO.DCB#(0);

  27383 19 000411   001571 235000 11                 LDA     VM_SEARCH_INFO+1
        19 000412   001572 755000 11                 STA     VM_SEARCH_INFO+2

     1402    27384    4               END;

     1403    27385    3               VM_SEARCH_INFO.DCB#(0) = M$MAIL_FILE_NUM;

  27385 19 000413   000000 235000 xsym               LDA     M$MAIL_FILE_NUM
        19 000414   001571 755000 11                 STA     VM_SEARCH_INFO+1

     1404    27386        /* Only open for command line use resolution, so make it look closed */
     1405    27387    3               VM_CURRENT_FOLDER.FLAGS.OPEN = '0'B;

  27387 19 000415   000054 236000 20                 LDQ     44
        19 000416   001266 356000 11                 ANSQ    VM_CURRENT_FOLDER+19

     1406    27388    3           END;

  27388 19 000417   000422 710000 19                 TRA     s:27392

     1407    27389    3           WHENALTRETURN DO;
PL6.E3A0      #001=VMO$MAIL File=VMO$MAIL.:VMB6TSI                               WED 08/20/97 15:19 Page:304

     1408    27390    3               VM_SEARCH_INFO.CURRENT = '0'B;

  27390 19 000420   000055 236000 20                 LDQ     45
        19 000421   001632 356000 11                 ANSQ    VM_SEARCH_INFO+34

     1409    27391    3           END;

     1410    27392    2       END;

  27392 19 000422   000425 710000 19                 TRA     s:27398

     1411    27393    1       WHENALTRETURN
     1412    27394    2       DO;

     1413    27395    2           VM_SEARCH_INFO.CURRENT = '0'B;

  27395 19 000423   000055 236000 20                 LDQ     45
        19 000424   001632 356000 11                 ANSQ    VM_SEARCH_INFO+34

     1414    27396                                                /* ??? */
     1415    27397    2       END;

     1416    27398    1       IF ~ VM_SEARCH_INFO.CURRENT

  27398 19 000425   001632 236000 11                 LDQ     VM_SEARCH_INFO+34
        19 000426   000002 736000                    QLS     2
        19 000427   400000 376003                    ANQ     -131072,DU
        19 000430   400000 676003                    ERQ     -131072,DU
        19 000431   000444 600000 19                 TZE     s:27407

     1417    27399    2       THEN DO;

     1418    27400    3           DO INDX1=0 TO %VM_MAX_SRCH-1;

  27400 19 000432   200033 450100                    STZ     INDX1,,AUTO
        19 000433   000441 710000 19                 TRA     s:27402+1
PL6.E3A0      #001=VMO$MAIL File=VMO$MAIL.:VMB6TSI                               WED 08/20/97 15:19 Page:305

     1419    27401    3               VM_PROFILE.SEARCH_LIST$(INDX1)=ADDR(NIL);

  27401 19 000434   000022 236000 20                 LDQ     18
        19 000435   000000 470400 xsym               LDP0    VM_PROFILE$
        19 000436   200033 720100                    LXL0    INDX1,,AUTO
        19 000437   000115 756110                    STQ     77,X0,PR0

     1420    27402    3           END;

  27402 19 000440   200033 054100                    AOS     INDX1,,AUTO
        19 000441   200033 235100                    LDA     INDX1,,AUTO
        19 000442   000003 115007                    CMPA    3,DL
        19 000443   000434 604400 19                 TMOZ    s:27401

     1421    27403    2       END;

     1422    27404        /*
     1423    27405             ***** Parse the invocation line ...
     1424    27406        */
     1425    27407    1       OUTBUF = B$JIT.CCBUF;

  27407 19 000444   000000 470400 xsym               LDP0    B$JIT$
        19 000445   040000 100500                    MLR     fill='040'O
        19 000446   000033 000400                    ADSC9   27,,PR0                  cn=0,n=256
        19 000447   000422 000454 11                 ADSC9   OUTBUF                   cn=0,n=300

     1426    27408    1       SIZE = B$JIT.CCARS;

  27408 19 000450   000032 236100                    LDQ     26,,PR0
        19 000451   000022 732000                    QRS     18
        19 000452   000535 756000 11                 STQ     SIZE

     1427    27409    1       CALL XUR$GETCMD(MAIL_CMD$->BSD,OUT$,MAIL_PROMPT,OUTBUF,SIZE) ALTRET(E_INVOKE);

  27409 19 000453   000056 236000 20                 LDQ     46
        19 000454   201712 756100                    STQ     I+104,,AUTO
PL6.E3A0      #001=VMO$MAIL File=VMO$MAIL.:VMB6TSI                               WED 08/20/97 15:19 Page:306
        19 000455   000060 237000 20                 LDAQ    48
        19 000456   201710 757100                    STAQ    I+102,,AUTO
        19 000457   200023 631500                    EPPR1   OUT$,,AUTO
        19 000460   201707 451500                    STP1    I+101,,AUTO
        19 000461   200006 236100                    LDQ     MAIL_CMD$,,AUTO
        19 000462   201706 756100                    STQ     I+100,,AUTO
        19 000463   201706 630500                    EPPR0   I+100,,AUTO
        19 000464   000041 631400 20                 EPPR1   33
        19 000465   000000 701000 xent               TSX1    XUR$GETCMD
        19 000466   000470 702000 19                 TSX2    E_INVOKE

     1428    27410    2       DO NEVER;

  27410 19 000467   000503 710000 19                 TRA     s:27416

     1429    27411    2   E_INVOKE:
     1430    27412    2           CALL XUR$ERRPTR;

  27412 19 000470   000020 631400 20    E_INVOKE     EPPR1   16
        19 000471   000000 701000 xent               TSX1    XUR$ERRPTR
        19 000472   000000 011000                    NOP     0

     1431    27413    2           CALL XUR$ERRMSG (OUTERR);

  27413 19 000473   200023 630500                    EPPR0   OUT$,,AUTO
        19 000474   201706 450500                    STP0    I+100,,AUTO
        19 000475   201706 630500                    EPPR0   I+100,,AUTO
        19 000476   000024 631400 20                 EPPR1   20
        19 000477   000000 701000 xent               TSX1    XUR$ERRMSG
        19 000500   000000 011000                    NOP     0

     1432    27414    2           CALL M$EXIT;

  27414 19 000501   000001 713400                    CLIMB   exit
        19 000502   000000 401760                    pmme    nvectors=0

     1433    27415    2       END;                            /* Do never ... end */
PL6.E3A0      #001=VMO$MAIL File=VMO$MAIL.:VMB6TSI                               WED 08/20/97 15:19 Page:307

     1434    27416    1       CURR_COMMAND_CODE = OUT$ -> P$B.CODE;

  27416 19 000503   200023 470500                    LDP0    OUT$,,AUTO
        19 000504   000000 236100                    LDQ     0,,PR0
        19 000505   777777 376007                    ANQ     -1,DL
        19 000506   000543 756000 11                 STQ     CURR_COMMAND_CODE

     1435    27417        /*
     1436    27418          ***** Write greeting thru(M$ME).
     1437    27419        */
     1438    27420    1       IF B$JIT.NEXTCC = %CC_FROMUC#

  27420 19 000507   000000 471400 xsym               LDP1    B$JIT$
        19 000510   100151 236100                    LDQ     105,,PR1
        19 000511   000777 376003                    ANQ     511,DU
        19 000512   000003 116003                    CMPQ    3,DU
        19 000513   000536 601000 19                 TNZ     s:27454

     1439    27421    1       THEN                            /* Greet the user */
     1440    27422    2       DO;

     1441    27423    2           F_FDSME.NVECS# = 1;

  27423 19 000514   000001 235007                    LDA     1,DL
        19 000515   002755 755000 11                 STA     F_FDSME+9

     1442    27424    2           VECT_ARRAY(0) = VECTOR (ADDR(B_VERSION) -> B$VERSION);

  27424 19 000516   000000 236000 xsym               LDQ     B_VERSION
        19 000517   000033 772000                    QRL     27
        19 000520   000001 620006                    EAX0    1,QL
        19 000521   000000 635010                    EAA     0,X0
        19 000522   000002 771000                    ARL     2
        19 000523   000140 135007                    SBLA    96,DL
        19 000524   000062 236000 20                 LDQ     50
        19 000525   003076 757000 11                 STAQ    VECT_ARRAY
PL6.E3A0      #001=VMO$MAIL File=VMO$MAIL.:VMB6TSI                               WED 08/20/97 15:19 Page:308

     1443    27425                %INIT_STR (CODE=E_GREETING_FMT, STR=VM_GREETING_FMT,
     1444    27426                VECT="F_FDSME.FMT_" );

  27441 19 000526   000063 630400 20                 EPPR0   51
        19 000527   000021 631400 20                 EPPR1   17
        19 000530   000000 701000 xent               TSX1    VMD$ERRMSG
        19 000531   000000 011000                    NOP     0

     1445    27449    2           CALL VMD$WRITE_BUF (F_FDSME);

  27449 19 000532   000065 630400 20                 EPPR0   53
        19 000533   000024 631400 20                 EPPR1   20
        19 000534   000000 701000 xent               TSX1    VMD$WRITE_BUF
        19 000535   000000 011000                    NOP     0

     1446    27450    2       END;

     1447    27451        /*
     1448    27452             ***** Initialize the selection criteria contexts ...
     1449    27453        */
     1450    27454    1       CALL INIT_CONTEXT (%CONTEXT_CURRENT);

  27454 19 000536   000066 236000 20                 LDQ     54
        19 000537   201123 756100                    STQ     LEN+1,,AUTO
        19 000540   017442 701000 19                 TSX1    INIT_CONTEXT
        19 000541   000000 011000                    NOP     0

     1451    27455    1       CALL INIT_CONTEXT (%CONTEXT_SELECTED);

  27455 19 000542   000070 236000 20                 LDQ     56
        19 000543   201123 756100                    STQ     LEN+1,,AUTO
        19 000544   017442 701000 19                 TSX1    INIT_CONTEXT
        19 000545   000000 011000                    NOP     0

     1452    27456        /*
     1453    27457             ***** Init other variables, flags ...
PL6.E3A0      #001=VMO$MAIL File=VMO$MAIL.:VMB6TSI                               WED 08/20/97 15:19 Page:309
     1454    27458        */
     1455    27459    1       EXIT_MAIL# = %NO#;

  27459 19 000546   000417 450000 11                 STZ     EXIT_MAIL#

     1456    27460    1       OPT_NOUPDATE = %NO#;

  27460 19 000547   201106 450100                    STZ     OPT_NOUPDATE,,AUTO

     1457    27461    1       OPT_BYPASS = %NO#;

  27461 19 000550   201105 450100                    STZ     OPT_BYPASS,,AUTO

     1458    27462    1       MADE_OLD = %NO#;

  27462 19 000551   200040 450100                    STZ     MADE_OLD,,AUTO

     1459    27463    1       DELETE_ENCL_FLAG = %NO#;

  27463 19 000552   201113 450100                    STZ     DELETE_ENCL_FLAG,,AUTO

     1460    27464        /*
     1461    27465             ***** Enable breaks now ...
     1462    27466        */
     1463    27467    1       CALL XUR$CLRENABLE;

  27467 19 000553   000020 631400 20                 EPPR1   16
        19 000554   000000 701000 xent               TSX1    XUR$CLRENABLE
        19 000555   000000 011000                    NOP     0

     1464    27468    1       CALL PROCESS_CMD (CURR_COMMAND_CODE);

  27468 19 000556   000071 236000 20                 LDQ     57
        19 000557   201115 756100                    STQ     DELETE_ENCL_FLAG+2,,AUTO
        19 000560   001055 701000 19                 TSX1    PROCESS_CMD
        19 000561   000000 011000                    NOP     0

PL6.E3A0      #001=VMO$MAIL File=VMO$MAIL.:VMB6TSI                               WED 08/20/97 15:19 Page:310
     1465    27469        /*
     1466    27470             ***** Now prompt the user for commands ...
     1467    27471        */
     1468    27472
     1469    27473    2       DO FOREVER;

     1470    27474        /*
     1471    27475             ***** Get the next command ...
     1472    27476        */
     1473    27477    2           IF NEXT_COMMAND_TEXT.L# ~= 0 /* An internal command */

  27477 19 000562   200551 236100                    LDQ     NEXT_COMMAND_TEXT,,AUTO
        19 000563   777000 316003                    CANQ    -512,DU
        19 000564   000632 600000 19                 TZE     s:27498

     1474    27478    2           THEN
     1475    27479    3           DO;

     1476    27480    3               INDX1 = NEXT_COMMAND_TEXT.L#;

  27480 19 000565   200551 236100                    LDQ     NEXT_COMMAND_TEXT,,AUTO
        19 000566   000033 772000                    QRL     27
        19 000567   200033 756100                    STQ     INDX1,,AUTO

     1477    27481    3               CALL XUR$GETCMD (MAIL_NODES$->BSD,OUT$,,NEXT_COMMAND_TEXT.NAME#,

  27481 19 000570   200033 630500                    EPPR0   INDX1,,AUTO
        19 000571   201712 450500                    STP0    I+104,,AUTO
        19 000572   201713 452500                    STP2    I+105,,AUTO
        19 000573   201713 236100                    LDQ     I+105,,AUTO
        19 000574   000072 036000 20                 ADLQ    58
        19 000575   000022 235000 20                 LDA     18
        19 000576   201710 757100                    STAQ    I+102,,AUTO
        19 000577   200023 631500                    EPPR1   OUT$,,AUTO
        19 000600   201707 451500                    STP1    I+101,,AUTO
        19 000601   200004 236100                    LDQ     MAIL_NODES$,,AUTO
        19 000602   201706 756100                    STQ     I+100,,AUTO
PL6.E3A0      #001=VMO$MAIL File=VMO$MAIL.:VMB6TSI                               WED 08/20/97 15:19 Page:311
        19 000603   201706 630500                    EPPR0   I+100,,AUTO
        19 000604   000041 631400 20                 EPPR1   33
        19 000605   000000 701000 xent               TSX1    XUR$GETCMD
        19 000606   000610 702000 19                 TSX2    s:27483
        19 000607   000620 710000 19                 TRA     s:27488

     1478    27482    4                 INDX1) WHENALTRETURN DO;

     1479    27483    4                   CALL XUR$ECHO (M$ME_NUM);

  27483 19 000610   000033 630400 20                 EPPR0   27
        19 000611   000024 631400 20                 EPPR1   20
        19 000612   000000 701000 xent               TSX1    XUR$ECHO
        19 000613   000000 011000                    NOP     0

     1480    27484    4                   NEXT_COMMAND_ECHO# = %NO#;

  27484 19 000614   000542 450000 11                 STZ     NEXT_COMMAND_ECHO#

     1481    27485    4                   NEXT_COMMAND_TEXT.L# = 0;

  27485 19 000615   000000 236003                    LDQ     0,DU
        19 000616   200551 552140                    STBQ    NEXT_COMMAND_TEXT,'40'O,AUTO

     1482    27486    4                   GOTO XUR_ERROR;

  27486 19 000617   000703 710000 19                 TRA     XUR_ERROR

     1483    27487    4               END;
     1484    27488    3               IF NEXT_COMMAND_ECHO#

  27488 19 000620   000542 234000 11                 SZN     NEXT_COMMAND_ECHO#
        19 000621   000626 605000 19                 TPL     s:27491

     1485    27489    3               THEN
     1486    27490    3                   CALL XUR$ECHO (M$ME_NUM);

PL6.E3A0      #001=VMO$MAIL File=VMO$MAIL.:VMB6TSI                               WED 08/20/97 15:19 Page:312
  27490 19 000622   000033 630400 20                 EPPR0   27
        19 000623   000024 631400 20                 EPPR1   20
        19 000624   000000 701000 xent               TSX1    XUR$ECHO
        19 000625   000000 011000                    NOP     0

     1487    27491    3               NEXT_COMMAND_ECHO# = %NO#;

  27491 19 000626   000542 450000 11                 STZ     NEXT_COMMAND_ECHO#

     1488    27492    3               NEXT_COMMAND_TEXT.L# = 0;

  27492 19 000627   000000 236003                    LDQ     0,DU
        19 000630   200551 552140                    STBQ    NEXT_COMMAND_TEXT,'40'O,AUTO

     1489    27493
     1490    27494    3           END;

  27494 19 000631   000667 710000 19                 TRA     s:27508

     1491    27495    2           ELSE
     1492    27496    3           DO;

     1493    27497        /* Check for new mail */
     1494    27498    3               IF VM_CURRENT_FOLDER.FLAGS.OPEN

  27498 19 000632   001266 236000 11                 LDQ     VM_CURRENT_FOLDER+19
        19 000633   010000 316003                    CANQ    4096,DU
        19 000634   000655 600000 19                 TZE     s:27506

     1495    27499    4               THEN DO;

     1496    27500    4                   CALL CHECK_NEW (M$MAIL_FILE_NUM);

  27500 19 000635   000053 236000 20                 LDQ     43
        19 000636   201523 756100                    STQ     INDX2+255,,AUTO
        19 000637   021327 701000 19                 TSX1    CHECK_NEW
        19 000640   000000 011000                    NOP     0
PL6.E3A0      #001=VMO$MAIL File=VMO$MAIL.:VMB6TSI                               WED 08/20/97 15:19 Page:313

     1497    27501    5                   IF NEW_FLAG THEN DO;

  27501 19 000641   000377 234000 11                 SZN     NEW_FLAG
        19 000642   000655 605000 19                 TPL     s:27506

     1498    27502    5                       CALL XUR$INFOMSG (E_NEW_MESSAGE_FMT,,M$ME_NUM);

  27502 19 000643   000033 236000 20                 LDQ     27
        19 000644   201710 756100                    STQ     I+102,,AUTO
        19 000645   000022 236000 20                 LDQ     18
        19 000646   000073 235000 20                 LDA     59
        19 000647   201706 757100                    STAQ    I+100,,AUTO
        19 000650   201706 630500                    EPPR0   I+100,,AUTO
        19 000651   000021 631400 20                 EPPR1   17
        19 000652   000000 701000 xent               TSX1    XUR$INFOMSG
        19 000653   000000 011000                    NOP     0

     1499    27503    5                       NEW_FLAG = '0'B;

  27503 19 000654   000377 450000 11                 STZ     NEW_FLAG

     1500    27504    5                   END;

     1501    27505    4               END;

     1502    27506    3               CALL XUR$GETCMD(MAIL_NODES$->BSD,OUT$,MAIL_PROMPT)ALTRET(XUR_ERROR);

  27506 19 000655   000060 236000 20                 LDQ     48
        19 000656   201710 756100                    STQ     I+102,,AUTO
        19 000657   200023 630500                    EPPR0   OUT$,,AUTO
        19 000660   201707 450500                    STP0    I+101,,AUTO
        19 000661   200004 236100                    LDQ     MAIL_NODES$,,AUTO
        19 000662   201706 756100                    STQ     I+100,,AUTO
        19 000663   201706 630500                    EPPR0   I+100,,AUTO
        19 000664   000021 631400 20                 EPPR1   17
        19 000665   000000 701000 xent               TSX1    XUR$GETCMD
PL6.E3A0      #001=VMO$MAIL File=VMO$MAIL.:VMB6TSI                               WED 08/20/97 15:19 Page:314
        19 000666   000703 702000 19                 TSX2    XUR_ERROR

     1503    27507    3           END;

     1504    27508    2           IF OUT$ = ADDR(NIL) THEN GOTO END_LOOP;

  27508 19 000667   200023 236100                    LDQ     OUT$,,AUTO
        19 000670   000022 116000 20                 CMPQ    18
        19 000671   000764 600000 19                 TZE     END_LOOP

     1505    27509    2           CURR_COMMAND_CODE = OUT$ -> P$B.CODE;

  27509 19 000672   200023 470500                    LDP0    OUT$,,AUTO
        19 000673   000000 236100                    LDQ     0,,PR0
        19 000674   777777 376007                    ANQ     -1,DL
        19 000675   000543 756000 11                 STQ     CURR_COMMAND_CODE

     1506    27510
     1507    27511    2           CALL PROCESS_CMD (CURR_COMMAND_CODE);

  27511 19 000676   000071 236000 20                 LDQ     57
        19 000677   201115 756100                    STQ     DELETE_ENCL_FLAG+2,,AUTO
        19 000700   001055 701000 19                 TSX1    PROCESS_CMD
        19 000701   000000 011000                    NOP     0

     1508    27512    3           DO NEVER;

  27512 19 000702   000764 710000 19                 TRA     END_LOOP

     1509    27513    3   XUR_ERROR :                             /* Error parsing command */
     1510    27514    4               DO SELECT (OUTERR.ERR#);

  27514 19 000703   200023 236100       XUR_ERROR    LDQ     OUT$,,AUTO
        19 000704   000003 772000                    QRL     3
        19 000705   037777 376007                    ANQ     16383,DL
        19 000706   000006 116007                    CMPQ    6,DL
        19 000707   000753 602000 19                 TNC     s:27565
PL6.E3A0      #001=VMO$MAIL File=VMO$MAIL.:VMB6TSI                               WED 08/20/97 15:19 Page:315
        19 000710   000715 600000 19                 TZE     s:27523
        19 000711   000003 736000                    QLS     3
        19 000712   000140 116007                    CMPQ    96,DL
        19 000713   000753 601000 19                 TNZ     s:27565
        19 000714   000715 710000 19                 TRA     s:27523

     1511    27515
     1512    27516    4                   SELECT (%E$EOF, %E$LDSC);

     1513    27517        /*
     1514    27518             ***** If an end-of-file is found, and we were reading from a command
     1515    27519                    file (M$CMNDF is open), close the file and commence reading
     1516    27520                   from the command stream (M$SI).  If line disconnects, and we're
     1517    27521                   reading from the terminal, then act like user entered 'END'.
     1518    27522        */
     1519    27523    4                   IF DCBADDR(M$CMNDF_NUM) -> F$DCB.FCD# = %NO#

  27523 19 000715   000074 470400 20                 LDP0    60
        19 000716   000000 471500                    LDP1    0,,PR0
        19 000717   000545 720000 11                 LXL0    M$CMNDF_NUM
        19 000720   100000 473510                    LDP3    0,X0,PR1
        19 000721   300031 236100                    LDQ     25,,PR3
        19 000722   020000 316007                    CANQ    8192,DL
        19 000723   000734 601000 19                 TNZ     s:27553

     1520    27524    4                   THEN
     1521    27525    5                   DO;   /* Exit */

     1522    27526                            %INIT_STR (CODE=E_END_CMD, STR=VM_END_CMD, NEXT_CMD=
             27526                                NEXT_COMMAND_TEXT);

  27541 19 000724   000075 630400 20                 EPPR0   61
        19 000725   000000 631400 20                 EPPR1   0
        19 000726   000000 701000 xent               TSX1    VMD$ERRMSG
        19 000727   000000 011000                    NOP     0

  27544 19 000730   000100 100400                    MLR     fill='000'O
PL6.E3A0      #001=VMO$MAIL File=VMO$MAIL.:VMB6TSI                               WED 08/20/97 15:19 Page:316
        19 000731   004676 000020 11                 ADSC9   VM_END_CMD               cn=0,n=16
        19 000732   200551 001000                    ADSC9   NEXT_COMMAND_TEXT,,AUTO  cn=0,n=512

     1523    27549    5                       GOTO END_LOOP;

  27549 19 000733   000764 710000 19                 TRA     END_LOOP

     1524    27550    5                   END;
     1525    27551    4                   ELSE
     1526    27552    5                   DO;   /* Connect back to command stream */

     1527    27553    5                       CLOSE_SAVE.V.DCB# = M$CMNDF_NUM;

  27553 19 000734   002142 740000 11                 STX0    CLOSE_SAVE+26

     1528    27554    5                       CALL M$CLOSE (CLOSE_SAVE) ALTRET(E_PMME);

  27554 19 000735   002110 630400 11                 EPPR0   CLOSE_SAVE
        19 000736   450001 713400                    CLIMB   alt,close
        19 000737   406000 401760                    pmme    nvectors=13
        19 000740   001041 702000 19                 TSX2    E_PMME

     1529    27555    5                       CALL XUR$SETDCBS (M$SI_NUM);

  27555 19 000741   000032 630400 20                 EPPR0   26
        19 000742   000024 631400 20                 EPPR1   20
        19 000743   000000 701000 xent               TSX1    XUR$SETDCBS
        19 000744   000000 011000                    NOP     0

     1530    27556    5                       IF EXIT_MAIL_PEND#

  27556 19 000745   000420 234000 11                 SZN     EXIT_MAIL_PEND#
        19 000746   000764 605000 19                 TPL     END_LOOP

     1531    27557    6                       THEN DO;

     1532    27558    6                           EXIT_MAIL_PEND# = '0'B;
PL6.E3A0      #001=VMO$MAIL File=VMO$MAIL.:VMB6TSI                               WED 08/20/97 15:19 Page:317

  27558 19 000747   000420 450000 11                 STZ     EXIT_MAIL_PEND#

     1533    27559    6                           EXIT_MAIL# = '1'B;

  27559 19 000750   400000 236003                    LDQ     -131072,DU
        19 000751   000417 756000 11                 STQ     EXIT_MAIL#

     1534    27560    6                           GOTO END_LOOP;

  27560 19 000752   000764 710000 19                 TRA     END_LOOP

     1535    27561    6                       END;
     1536    27562    5                   END;
     1537    27563
     1538    27564    4                   SELECT (ELSE);   /* Report the error */

     1539    27565    4               CALL XUR$ERRPTR;

  27565 19 000753   000020 631400 20                 EPPR1   16
        19 000754   000000 701000 xent               TSX1    XUR$ERRPTR
        19 000755   000000 011000                    NOP     0

     1540    27566    4               CALL XUR$ERRMSG (OUTERR);

  27566 19 000756   200023 630500                    EPPR0   OUT$,,AUTO
        19 000757   201706 450500                    STP0    I+100,,AUTO
        19 000760   201706 630500                    EPPR0   I+100,,AUTO
        19 000761   000024 631400 20                 EPPR1   20
        19 000762   000000 701000 xent               TSX1    XUR$ERRMSG
        19 000763   000000 011000                    NOP     0

     1541    27567    4               END;

     1542    27568    3           END;                       /* Do never ... end */

     1543    27569    2   END_LOOP:
PL6.E3A0      #001=VMO$MAIL File=VMO$MAIL.:VMB6TSI                               WED 08/20/97 15:19 Page:318
     1544    27570        /*
     1545    27571             *****  Reset output DCB for display and list commands ...
     1546    27572        */
     1547    27573    2           F_FDSLO.DCB# = M$LO_NUM;

  27573 19 000764   000000 720000 xsym  END_LOOP     LXL0    M$LO_NUM
        19 000765   003053 740000 11                 STX0    F_FDSLO+11

     1548    27574    2           IF OUTDCB ~= M$LO_NUM

  27574 19 000766   000402 236000 11                 LDQ     OUTDCB
        19 000767   000000 116000 xsym               CMPQ    M$LO_NUM
        19 000770   001010 600000 19                 TZE     s:27587

     1549    27575    3           THEN DO;

     1550    27576    3               IF DCBADDR(OUTDCB) -> F$DCB.FCD#

  27576 19 000771   000074 470400 20                 LDP0    60
        19 000772   000000 471500                    LDP1    0,,PR0
        19 000773   100000 473506                    LDP3    0,QL,PR1
        19 000774   300031 236100                    LDQ     25,,PR3
        19 000775   020000 316007                    CANQ    8192,DL
        19 000776   001006 600000 19                 TZE     s:27581

     1551    27577    4               THEN DO;

     1552    27578    4                   CLOSE_SAVE.V.DCB# = OUTDCB;

  27578 19 000777   000402 721000 11                 LXL1    OUTDCB
        19 001000   002142 741000 11                 STX1    CLOSE_SAVE+26

     1553    27579    5                   CALL M$CLOSE (CLOSE_SAVE) WHENALTRETURN DO; END;

  27579 19 001001   002110 630400 11                 EPPR0   CLOSE_SAVE
        19 001002   450001 713400                    CLIMB   alt,close
        19 001003   406000 401760                    pmme    nvectors=13
PL6.E3A0      #001=VMO$MAIL File=VMO$MAIL.:VMB6TSI                               WED 08/20/97 15:19 Page:319
        19 001004   001006 702000 19                 TSX2    s:27581
        19 001005   001006 710000 19                 TRA     s:27581

     1554    27580    4               END;

     1555    27581    3               OUTDCB = M$LO_NUM;

  27581 19 001006   000000 235000 xsym               LDA     M$LO_NUM
        19 001007   000402 755000 11                 STA     OUTDCB

     1556    27582    3           END;

     1557    27583        /*
     1558    27584             ***** If EXIT_MAIL# is set and no messages have
     1559    27585                   been processed, then get out of here ...
     1560    27586        */
     1561    27587    2           IF EXIT_MAIL#

  27587 19 001010   000417 234000 11                 SZN     EXIT_MAIL#
        19 001011   001035 605000 19                 TPL     s:27646

     1562    27588    2           THEN
     1563    27589    3           DO;

     1564    27590    3               EXIT_MAIL# = %NO#;

  27590 19 001012   000417 450000 11                 STZ     EXIT_MAIL#

     1565    27591    3               IF NUM_MESSAGES_PROCESSED = 0

  27591 19 001013   201101 235100                    LDA     NUM_MESSAGES_PROCESSED,,AUTO
        19 001014   001024 601000 19                 TNZ     s:27618

     1566    27592    3               THEN
     1567    27593    4               DO;

     1568    27594                        %INIT_STR (CODE=E_END_CMD, STR=VM_END_CMD, NEXT_CMD=
PL6.E3A0      #001=VMO$MAIL File=VMO$MAIL.:VMB6TSI                               WED 08/20/97 15:19 Page:320
             27594                            NEXT_COMMAND_TEXT);

  27609 19 001015   000075 630400 20                 EPPR0   61
        19 001016   000000 631400 20                 EPPR1   0
        19 001017   000000 701000 xent               TSX1    VMD$ERRMSG
        19 001020   000000 011000                    NOP     0

  27612 19 001021   000100 100400                    MLR     fill='000'O
        19 001022   004676 000020 11                 ADSC9   VM_END_CMD               cn=0,n=16
        19 001023   200551 001000                    ADSC9   NEXT_COMMAND_TEXT,,AUTO  cn=0,n=512

     1569    27617    4               END;

     1570    27618    3               IF OPT_NOUPDATE

  27618 19 001024   201106 234100                    SZN     OPT_NOUPDATE,,AUTO
        19 001025   001035 605000 19                 TPL     s:27646

     1571    27619    3               THEN
     1572    27620    4               DO;

     1573    27621                        %INIT_STR (CODE=E_END_NOUPDATE_CMD, STR=VM_END_NOUPDATE_CMD,
             27621                            NEXT_CMD=NEXT_COMMAND_TEXT);

  27636 19 001026   000077 630400 20                 EPPR0   63
        19 001027   000000 631400 20                 EPPR1   0
        19 001030   000000 701000 xent               TSX1    VMD$ERRMSG
        19 001031   000000 011000                    NOP     0

  27639 19 001032   000100 100400                    MLR     fill='000'O
        19 001033   004602 000020 11                 ADSC9   VM_END_NOUPDATE_CMD      cn=0,n=16
        19 001034   200551 001000                    ADSC9   NEXT_COMMAND_TEXT,,AUTO  cn=0,n=512

     1574    27644    4               END;

     1575    27645    3           END;

PL6.E3A0      #001=VMO$MAIL File=VMO$MAIL.:VMB6TSI                               WED 08/20/97 15:19 Page:321
     1576    27646    2           CALL XUR$ENABLE;

  27646 19 001035   000020 631400 20                 EPPR1   16
        19 001036   000000 701000 xent               TSX1    XUR$ENABLE
        19 001037   000000 011000                    NOP     0

     1577    27647    2       END;                            /* Do forever */

  27647 19 001040   000562 710000 19                 TRA     s:27477

     1578    27648    1   E_PMME:
     1579    27649    1       ERROR = B$TCB.ALT$ -> B$ALT.ERR;

  27649 19 001041   000000 470400 xsym  E_PMME       LDP0    B$TCB$
        19 001042   000000 471500                    LDP1    0,,PR0
        19 001043   100102 236100                    LDQ     66,,PR1
        19 001044   002204 756000 11                 STQ     ERROR

     1580    27650    1       DCB# = B$TCB.ALT$ -> B$ALT.DCB#;

  27650 19 001045   000000 471500                    LDP1    0,,PR0
        19 001046   100101 235100                    LDA     65,,PR1
        19 001047   000401 755000 11                 STA     DCB#

     1581    27651    1       CALL XUR$ERRMSG (ERROR,DCB#);

  27651 19 001050   000101 630400 20                 EPPR0   65
        19 001051   000000 631400 20                 EPPR1   0
        19 001052   000000 701000 xent               TSX1    XUR$ERRMSG
        19 001053   000000 011000                    NOP     0
        19 001054   025342 710000 19                 TRA     s:34337

     1582    27652        %EJECT;
PL6.E3A0      #001=VMO$MAIL File=VMO$MAIL.:VMB6TSI                               WED 08/20/97 15:19 Page:322
     1583    27653        /********************************************************************/
     1584    27654        /*F*    NAME:        PROCESS_CMD
     1585    27655                PURPOSE:     To process all MAIL commands.
     1586    27656                DESCRIPTION: This routine processes all MAIL commands.
     1587    27657                             The command to be processed is in CURR_COMMAND_CODE.
     1588    27658                             If there are any options for this command then
     1589    27659                             OUT$ will be non-nil. If there are no options
     1590    27660                             specified then use any options remaining from
     1591    27661                             previous commands. This mainly applies only to
     1592    27662                             SELECTION CLAUSES.
     1593    27663        */
     1594    27664        /********************************************************************/
     1595    27665    1   PROCESS_CMD: PROC (CURR_COMMAND_CODE);

  27665 19 001055   201114 741300       PROCESS_CMD  STX1  ! DELETE_ENCL_FLAG+1,,AUTO

     1596    27666
     1597    27667    2   DCL CURR_COMMAND_CODE UBIN WORD;
     1598    27668        /*
     1599    27669             ***** Initialization needed for each command ...
     1600    27670        */
     1601    27671    2       WHICH_CONTEXT = %CONTEXT_CURRENT; /* Default context to use */

  27671 19 001056   001667 450000 11                 STZ     WHICH_CONTEXT

     1602    27672    2       CURRENT_CONTEXT%.SET_INDX = -1;

  27672 19 001057   000001 335007                    LCA     1,DL
        19 001060   001663 470400 11                 LDP0    CONTEXT_PTR$
        19 001061   000003 755100                    STA     3,,PR0

     1603    27673    2       SELECTED_CONTEXT%.SET_INDX = -1;

  27673 19 001062   001664 471400 11                 LDP1    CONTEXT_PTR$+1
        19 001063   100003 755100                    STA     3,,PR1

     1604    27674    2       NEED_TITLE_BAR = %YES#;
PL6.E3A0      #001=VMO$MAIL File=VMO$MAIL.:VMB6TSI                               WED 08/20/97 15:19 Page:323

  27674 19 001064   400000 236003                    LDQ     -131072,DU
        19 001065   000000 756000 xsym               STQ     NEED_TITLE_BAR

     1605    27675        /*
     1606    27676             ***** Process the command ...
     1607    27677        */
     1608    27678    3       DO CASE(CURR_COMMAND_CODE);       /* Command number */

  27678 19 001066   201115 473500                    LDP3    @CURR_COMMAND_CODE,,AUTO
        19 001067   300000 235100                    LDA     0,,PR3
        19 001070   000067 115007                    CMPA    55,DL
        19 001071   001073 602005 19                 TNC     s:27678+5,AL
        19 001072   016452 710000 19                 TRA     CONTINUE
        19 001073   016452 710000 19                 TRA     CONTINUE
        19 001074   001162 710000 19                 TRA     s:27682
        19 001075   001235 710000 19                 TRA     s:27705
        19 001076   001504 710000 19                 TRA     s:27854
        19 001077   002115 710000 19                 TRA     s:28014
        19 001100   002147 710000 19                 TRA     s:28030
        19 001101   002421 710000 19                 TRA     s:28133
        19 001102   003020 710000 19                 TRA     s:28280
        19 001103   003617 710000 19                 TRA     s:28464
        19 001104   004061 710000 19                 TRA     s:28549
        19 001105   004432 710000 19                 TRA     s:28666
        19 001106   004237 710000 19                 TRA     s:28602
        19 001107   010060 710000 19                 TRA     s:29803
        19 001110   005143 710000 19                 TRA     s:28804
        19 001111   005477 710000 19                 TRA     s:28893
        19 001112   006051 710000 19                 TRA     s:29010
        19 001113   006110 710000 19                 TRA     s:29026
        19 001114   006526 710000 19                 TRA     s:29301
        19 001115   007006 710000 19                 TRA     s:29380
        19 001116   007060 710000 19                 TRA     s:29402
        19 001117   007115 710000 19                 TRA     s:29457
        19 001120   007671 710000 19                 TRA     s:29699
        19 001121   007723 710000 19                 TRA     s:29719
PL6.E3A0      #001=VMO$MAIL File=VMO$MAIL.:VMB6TSI                               WED 08/20/97 15:19 Page:324
        19 001122   010510 710000 19                 TRA     s:29981
        19 001123   010720 710000 19                 TRA     s:30037
        19 001124   011015 710000 19                 TRA     s:30068
        19 001125   011417 710000 19                 TRA     s:30199
        19 001126   001507 710000 19                 TRA     s:27857
        19 001127   012355 710000 19                 TRA     s:30413
        19 001130   012410 710000 19                 TRA     s:30468
        19 001131   012432 710000 19                 TRA     s:30475
        19 001132   012444 710000 19                 TRA     s:30483
        19 001133   012477 710000 19                 TRA     s:30537
        19 001134   007704 710000 19                 TRA     s:29704
        19 001135   007711 710000 19                 TRA     s:29706
        19 001136   014112 710000 19                 TRA     s:30881
        19 001137   014654 710000 19                 TRA     s:31126
        19 001140   014621 710000 19                 TRA     s:31072
        19 001141   014727 710000 19                 TRA     s:31149
        19 001142   014742 710000 19                 TRA     s:31155
        19 001143   014763 710000 19                 TRA     s:31169
        19 001144   015016 710000 19                 TRA     s:31223
        19 001145   015051 710000 19                 TRA     s:31254
        19 001146   015156 710000 19                 TRA     s:31287
        19 001147   015253 710000 19                 TRA     s:31321
        19 001150   016423 710000 19                 TRA     s:31690
        19 001151   016452 710000 19                 TRA     CONTINUE
        19 001152   007617 710000 19                 TRA     s:29632
        19 001153   010060 710000 19                 TRA     s:29803
        19 001154   016452 710000 19                 TRA     CONTINUE
        19 001155   001426 710000 19                 TRA     s:27793
        19 001156   012437 710000 19                 TRA     s:30479
        19 001157   007756 710000 19                 TRA     s:29772
        19 001160   014363 710000 19                 TRA     s:30973
        19 001161   004547 710000 19                 TRA     s:28704

     1609    27679        %EJECT;
PL6.E3A0      #001=VMO$MAIL File=VMO$MAIL.:VMB6TSI                               WED 08/20/97 15:19 Page:325
     1610    27680        /* Acknowledge command */
     1611    27681    3       CASE (%CMD_ACKNOWLEDGE_MESSAGE);

     1612    27682    3           CALL NEED_UPDATE ALTRET(CONTINUE);

  27682 19 001162   016562 701000 19                 TSX1    NEED_UPDATE
        19 001163   016452 702000 19                 TSX2    CONTINUE

     1613    27683
     1614    27684    3           IF OUT$ -> P$B.NSUBLKS > 0

  27684 19 001164   200023 470500                    LDP0    OUT$,,AUTO
        19 001165   000001 220100                    LDX0    1,,PR0
        19 001166   001176 600000 19                 TZE     s:27687

     1615    27685    3           THEN                       /* There are options */
     1616    27686    3               CALL INIT$SELECT_OPTS (OUT$->P$B.SUBLK$(0),%CMD_ACKNOWLEDGE_MESSAGE)
             27686                        ALTRET(CONTINUE);

  27686 19 001167   000070 236000 20                 LDQ     56
        19 001170   201120 756100                    STQ     @EXPLICIT+1,,AUTO
        19 001171   200023 236100                    LDQ     OUT$,,AUTO
        19 001172   000003 036003                    ADLQ    3,DU
        19 001173   201117 756100                    STQ     @CURR_COMMAND_CODE+2,,AUTO
        19 001174   017510 701000 19                 TSX1    INIT$SELECT_OPTS
        19 001175   016452 702000 19                 TSX2    CONTINUE

     1617    27687    3           CALL FIX_CONTEXT;

  27687 19 001176   017470 701000 19                 TSX1    FIX_CONTEXT
        19 001177   000000 011000                    NOP     0

     1618    27688    3           INDX1 = 0;

  27688 19 001200   200033 450100                    STZ     INDX1,,AUTO

     1619    27689        /*
PL6.E3A0      #001=VMO$MAIL File=VMO$MAIL.:VMB6TSI                               WED 08/20/97 15:19 Page:326
     1620    27690             ***** Acknowledge all the messages ...
     1621    27691        */
     1622    27692    4           DO FOREVER;

     1623    27693    4               CALL GET$MESSAGE ALTRET(END_ACK);

  27693 19 001201   020536 701000 19                 TSX1    GET$MESSAGE
        19 001202   001222 702000 19                 TSX2    END_ACK

     1624    27694    4               CALL VMD$DI_HEADER (VM_HEADER,CURRENT_MESSAGE_NUMBER,M$ME_NUM);

  27694 19 001203   000033 236000 20                 LDQ     27
        19 001204   201710 756100                    STQ     I+102,,AUTO
        19 001205   000103 236000 20                 LDQ     67
        19 001206   000000 235000 xsym               LDA     VM_HEADER$
        19 001207   201706 757100                    STAQ    I+100,,AUTO
        19 001210   201706 630500                    EPPR0   I+100,,AUTO
        19 001211   000021 631400 20                 EPPR1   17
        19 001212   000000 701000 xent               TSX1    VMD$DI_HEADER
        19 001213   000000 011000                    NOP     0

     1625    27695    4               CALL DO$ACK (%YES#) ALTRET(E_PMME);

  27695 19 001214   000050 236000 20                 LDQ     40
        19 001215   201117 756100                    STQ     @CURR_COMMAND_CODE+2,,AUTO
        19 001216   025040 701000 19                 TSX1    DO$ACK
        19 001217   016514 702000 19                 TSX2    E_PMME

     1626    27696    4               INDX1 = INDX1 + 1;

  27696 19 001220   200033 054100                    AOS     INDX1,,AUTO

     1627    27697    4           END;                       /* Do forever ... end */

  27697 19 001221   001201 710000 19                 TRA     s:27693

     1628    27698    3   END_ACK:
PL6.E3A0      #001=VMO$MAIL File=VMO$MAIL.:VMB6TSI                               WED 08/20/97 15:19 Page:327
     1629    27699    3           IF INDX1 = 0

  27699 19 001222   200033 235100       END_ACK      LDA     INDX1,,AUTO
        19 001223   016452 601000 19                 TNZ     CONTINUE

     1630    27700    3           THEN
     1631    27701    3               CALL REPORT_ACTIVITY (INDX1,VM_NO_MESSAGE_FMT,%YES#,E_NO_MESSAGE_FMT);

  27701 19 001224   000104 236000 20                 LDQ     68
        19 001225   201122 756100                    STQ     @NAME+1,,AUTO
        19 001226   000106 237000 20                 LDAQ    70
        19 001227   201120 757100                    STAQ    @EXPLICIT+1,,AUTO
        19 001230   200033 630500                    EPPR0   INDX1,,AUTO
        19 001231   201117 450500                    STP0    @CURR_COMMAND_CODE+2,,AUTO
        19 001232   017334 701000 19                 TSX1    REPORT_ACTIVITY
        19 001233   000000 011000                    NOP     0
        19 001234   016452 710000 19                 TRA     CONTINUE

     1632    27702        %EJECT;
PL6.E3A0      #001=VMO$MAIL File=VMO$MAIL.:VMB6TSI                               WED 08/20/97 15:19 Page:328
     1633    27703        /* Answer command */
     1634    27704    3       CASE (%CMD_ANSWER_MESSAGE);

     1635    27705    3           CALL NEED_UPDATE ALTRET(CONTINUE);

  27705 19 001235   016562 701000 19                 TSX1    NEED_UPDATE
        19 001236   016452 702000 19                 TSX2    CONTINUE

     1636    27706
     1637    27707    3           IF OUT$ -> P$B.NSUBLKS > 0

  27707 19 001237   200023 470500                    LDP0    OUT$,,AUTO
        19 001240   000001 220100                    LDX0    1,,PR0
        19 001241   001251 600000 19                 TZE     s:27710

     1638    27708    3           THEN                       /* There are options */
     1639    27709    3               CALL INIT$SELECT_OPTS (OUT$->P$B.SUBLK$(0),%CMD_ANSWER_MESSAGE) ALTRET(
             27709                        CONTINUE);

  27709 19 001242   000111 236000 20                 LDQ     73
        19 001243   201120 756100                    STQ     @EXPLICIT+1,,AUTO
        19 001244   200023 236100                    LDQ     OUT$,,AUTO
        19 001245   000003 036003                    ADLQ    3,DU
        19 001246   201117 756100                    STQ     @CURR_COMMAND_CODE+2,,AUTO
        19 001247   017510 701000 19                 TSX1    INIT$SELECT_OPTS
        19 001250   016452 702000 19                 TSX2    CONTINUE

     1640    27710    3           CALL FIX_CONTEXT;

  27710 19 001251   017470 701000 19                 TSX1    FIX_CONTEXT
        19 001252   000000 011000                    NOP     0

     1641    27711    3           INDX1 = 0;                  /* Used as counter */

  27711 19 001253   200033 450100                    STZ     INDX1,,AUTO

     1642    27712        /*
PL6.E3A0      #001=VMO$MAIL File=VMO$MAIL.:VMB6TSI                               WED 08/20/97 15:19 Page:329
     1643    27713            ***** Determine if 'RECEIVERS' was specified. (default = no)
     1644    27714        */
     1645    27715    3           OPT_RECEIVERS = VM_PROFILE.OPT.ANS_RECEIVERS;

  27715 19 001254   000000 470400 xsym               LDP0    VM_PROFILE$
        19 001255   000001 236100                    LDQ     1,,PR0
        19 001256   400000 376003                    ANQ     -131072,DU
        19 001257   201107 756100                    STQ     OPT_RECEIVERS,,AUTO

     1646    27716    3           IF OUT$ -> P$B.NSUBLKS > 1

  27716 19 001260   200023 471500                    LDP1    OUT$,,AUTO
        19 001261   100001 220100                    LDX0    1,,PR1
        19 001262   000002 100003                    CMPX0   2,DU
        19 001263   001302 602000 19                 TNC     s:27734

     1647    27717    3           THEN                       /* Receivers or sender specified */
     1648    27718    4           DO CASE (OUT$ -> P$B.SUBLK$(1) -> P$B.CODE);

  27718 19 001264   100004 473500                    LDP3    4,,PR1
        19 001265   300000 721100                    LXL1    0,,PR3
        19 001266   000005 101003                    CMPX1   5,DU
        19 001267   001271 602011 19                 TNC     s:27718+5,X1
        19 001270   001302 710000 19                 TRA     s:27734
        19 001271   001302 710000 19                 TRA     s:27734
        19 001272   001302 710000 19                 TRA     s:27734
        19 001273   001302 710000 19                 TRA     s:27734
        19 001274   001276 710000 19                 TRA     s:27720
        19 001275   001301 710000 19                 TRA     s:27722

     1649    27719    4           CASE (%OPT_RECEIVERS);

     1650    27720    4               OPT_RECEIVERS = %YES#;

  27720 19 001276   400000 236003                    LDQ     -131072,DU
        19 001277   201107 756100                    STQ     OPT_RECEIVERS,,AUTO
        19 001300   001302 710000 19                 TRA     s:27734
PL6.E3A0      #001=VMO$MAIL File=VMO$MAIL.:VMB6TSI                               WED 08/20/97 15:19 Page:330

     1651    27721    4           CASE (%OPT_SENDER);

     1652    27722    4               OPT_RECEIVERS = %NO#;

  27722 19 001301   201107 450100                    STZ     OPT_RECEIVERS,,AUTO

     1653    27723    4           END;                   /* Do case ... end */

     1654    27724        /*
     1655    27725             ***** Build the command buffer to pass to send ...
     1656    27726        */
     1657    27727                %INIT_STR (CODE=E_SEND_ANSWER, STR=VM_SEND_ANSWER, TEST=YES);

  27734 19 001302   040000 106400                    CMPC    fill='040'O
        19 001303   004702 200120 11                 ADSC9   VM_SEND_ANSWER           cn=1,n=80
        19 001304   000035 000001 20                 ADSC9   29                       cn=0,n=1
        19 001305   001312 601000 19                 TNZ     s:27750

  27736 19 001306   000112 630400 20                 EPPR0   74
        19 001307   000000 631400 20                 EPPR1   0
        19 001310   000000 701000 xent               TSX1    VMD$ERRMSG
        19 001311   000000 011000                    NOP     0

     1658    27750    3           CALL BUILD_LINK_TO_SEND_CMD (VM_SEND_ANSWER);

  27750 19 001312   000113 236000 20                 LDQ     75
        19 001313   201121 756100                    STQ     @SITENAME+1,,AUTO
        19 001314   025126 701000 19                 TSX1    BUILD_LINK_TO_SEND_CMD
        19 001315   000000 011000                    NOP     0

     1659    27751        /*
     1660    27752             ***** Acknowledge all the messages ...
     1661    27753        */
     1662    27754    4           DO FOREVER;

     1663    27755    4               CALL GET$MESSAGE ALTRET(END_ANSWER);
PL6.E3A0      #001=VMO$MAIL File=VMO$MAIL.:VMB6TSI                               WED 08/20/97 15:19 Page:331

  27755 19 001316   020536 701000 19                 TSX1    GET$MESSAGE
        19 001317   001413 702000 19                 TSX2    END_ANSWER

     1664    27756    4               CALL M$OPEN (OPEN_SEND_FILE) ALTRET(E_PMME);

  27756 19 001320   000510 630400 12                 EPPR0   OPEN_SEND_FILE
        19 001321   450000 713400                    CLIMB   alt,open
        19 001322   410400 401760                    pmme    nvectors=18
        19 001323   016514 702000 19                 TSX2    E_PMME

     1665    27757    4               CALL VMD$DI_HEADER (VM_HEADER,CURRENT_MESSAGE_NUMBER,M$ME_NUM);

  27757 19 001324   000033 236000 20                 LDQ     27
        19 001325   201710 756100                    STQ     I+102,,AUTO
        19 001326   000103 236000 20                 LDQ     67
        19 001327   000000 235000 xsym               LDA     VM_HEADER$
        19 001330   201706 757100                    STAQ    I+100,,AUTO
        19 001331   201706 630500                    EPPR0   I+100,,AUTO
        19 001332   000021 631400 20                 EPPR1   17
        19 001333   000000 701000 xent               TSX1    VMD$DI_HEADER
        19 001334   000000 011000                    NOP     0

     1666    27758    4               if OPT_RECEIVERS='1'b and VM_HEADER.STATUS.BROADCAST='1'b then

  27758 19 001335   201107 234100                    SZN     OPT_RECEIVERS,,AUTO
        19 001336   001350 605000 19                 TPL     s:27763
        19 001337   000000 470400 xsym               LDP0    VM_HEADER$
        19 001340   000012 236100                    LDQ     10,,PR0
        19 001341   000001 316003                    CANQ    1,DU
        19 001342   001350 600000 19                 TZE     s:27763

     1667    27759    5               do;

     1668    27760    5                   CALL XUR$ERRMSG (E_ANSBROAD);

  27760 19 001343   000114 630400 20                 EPPR0   76
PL6.E3A0      #001=VMO$MAIL File=VMO$MAIL.:VMB6TSI                               WED 08/20/97 15:19 Page:332
        19 001344   000024 631400 20                 EPPR1   20
        19 001345   000000 701000 xent               TSX1    XUR$ERRMSG
        19 001346   000000 011000                    NOP     0

     1669    27761    5                   goto E_ANSWER;

  27761 19 001347   001403 710000 19                 TRA     E_ANSWER

     1670    27762    5               end;
     1671    27763    4               CALL VME$ANSWER (CURRENT_MESSAGE_NUMBER,USER_NAME,

  27763 19 001350   201107 630500                    EPPR0   OPT_RECEIVERS,,AUTO
        19 001351   201710 450500                    STP0    I+102,,AUTO
        19 001352   000116 237000 20                 LDAQ    78
        19 001353   201706 757100                    STAQ    I+100,,AUTO
        19 001354   201706 630500                    EPPR0   I+100,,AUTO
        19 001355   000021 631400 20                 EPPR1   17
        19 001356   000000 701000 xent               TSX1    VME$ANSWER
        19 001357   001403 702000 19                 TSX2    E_ANSWER

     1672    27764    4                 OPT_RECEIVERS) ALTRET(E_ANSWER);
     1673    27765    4               CLOSE_SAVE.V.DCB# = M$WORK_NUM;

  27765 19 001360   000000 720000 xsym               LXL0    M$WORK_NUM
        19 001361   002142 740000 11                 STX0    CLOSE_SAVE+26

     1674    27766    4               CALL M$CLOSE (CLOSE_SAVE) ALTRET(E_PMME);

  27766 19 001362   002110 630400 11                 EPPR0   CLOSE_SAVE
        19 001363   450001 713400                    CLIMB   alt,close
        19 001364   406000 401760                    pmme    nvectors=13
        19 001365   016514 702000 19                 TSX2    E_PMME

     1675    27767    4               CALL LINK_RUNIT

  27767 19 001366   017111 701000 19                 TSX1    LINK_RUNIT
        19 001367   001375 702000 19                 TSX2    s:27775
PL6.E3A0      #001=VMO$MAIL File=VMO$MAIL.:VMB6TSI                               WED 08/20/97 15:19 Page:333

     1676    27768    4               WHENRETURN
     1677    27769    5               DO;

     1678    27770    5                   CALL VMD$GET_HEADER (CURRENT_MESSAGE_NUMBER,

  27770 19 001370   000120 630400 20                 EPPR0   80
        19 001371   000000 631400 20                 EPPR1   0
        19 001372   000000 701000 xent               TSX1    VMD$GET_HEADER
        19 001373   016514 702000 19                 TSX2    E_PMME

     1679    27771    5                     M$MAIL_FILE_NUM) ALTRET(E_PMME);
     1680    27772    5               END;

  27772 19 001374   001402 710000 19                 TRA     s:27779

     1681    27773    4               WHENALTRETURN
     1682    27774    5               DO;

     1683    27775    5                   CALL VMD$GET_HEADER (CURRENT_MESSAGE_NUMBER,

  27775 19 001375   000120 630400 20                 EPPR0   80
        19 001376   000000 631400 20                 EPPR1   0
        19 001377   000000 701000 xent               TSX1    VMD$GET_HEADER
        19 001400   016514 702000 19                 TSX2    E_PMME

     1684    27776    5                     M$MAIL_FILE_NUM) ALTRET(E_PMME);
     1685    27777    5                   GOTO END_ANSWER;

  27777 19 001401   001413 710000 19                 TRA     END_ANSWER

     1686    27778    5               END;
     1687    27779    5               DO NEVER;

  27779 19 001402   001411 710000 19                 TRA     s:27784

     1688    27780    5   E_ANSWER:                               /* Cleanup */
PL6.E3A0      #001=VMO$MAIL File=VMO$MAIL.:VMB6TSI                               WED 08/20/97 15:19 Page:334
     1689    27781    5                   CLOSE_SCRATCH.V.DCB# = M$WORK_NUM;

  27781 19 001403   000000 720000 xsym  E_ANSWER     LXL0    M$WORK_NUM
        19 001404   002200 740000 11                 STX0    CLOSE_SCRATCH+26

     1690    27782    5                   CALL M$CLOSE (CLOSE_SCRATCH) ALTRET(E_PMME);

  27782 19 001405   002146 630400 11                 EPPR0   CLOSE_SCRATCH
        19 001406   450001 713400                    CLIMB   alt,close
        19 001407   406000 401760                    pmme    nvectors=13
        19 001410   016514 702000 19                 TSX2    E_PMME

     1691    27783    5               END;                  /* Do never ... end */

     1692    27784    4               INDX1 = INDX1 + 1;

  27784 19 001411   200033 054100                    AOS     INDX1,,AUTO

     1693    27785    4           END;                       /* Do forever ... end */

  27785 19 001412   001316 710000 19                 TRA     s:27755

     1694    27786    3   END_ANSWER:
     1695    27787    3           IF INDX1 = 0

  27787 19 001413   200033 235100       END_ANSWER   LDA     INDX1,,AUTO
        19 001414   016452 601000 19                 TNZ     CONTINUE

     1696    27788    3           THEN
     1697    27789    3               CALL REPORT_ACTIVITY (INDX1,VM_NO_MESSAGE_FMT,%YES#,E_NO_MESSAGE_FMT);

  27789 19 001415   000104 236000 20                 LDQ     68
        19 001416   201122 756100                    STQ     @NAME+1,,AUTO
        19 001417   000106 237000 20                 LDAQ    70
        19 001420   201120 757100                    STAQ    @EXPLICIT+1,,AUTO
        19 001421   200033 630500                    EPPR0   INDX1,,AUTO
        19 001422   201117 450500                    STP0    @CURR_COMMAND_CODE+2,,AUTO
PL6.E3A0      #001=VMO$MAIL File=VMO$MAIL.:VMB6TSI                               WED 08/20/97 15:19 Page:335
        19 001423   017334 701000 19                 TSX1    REPORT_ACTIVITY
        19 001424   000000 011000                    NOP     0
        19 001425   016452 710000 19                 TRA     CONTINUE

     1698    27790        %EJECT;
PL6.E3A0      #001=VMO$MAIL File=VMO$MAIL.:VMB6TSI                               WED 08/20/97 15:19 Page:336
     1699    27791        /* Null command.  Look for <lf> and <eod> */
     1700    27792    3       CASE(%CMD_BLANK);

     1701    27793    3           if dcbaddr(M$CMNDF_NUM)->F$DCB.FCD# = '1'B

  27793 19 001426   000074 474400 20                 LDP4    60
        19 001427   400000 475500                    LDP5    0,,PR4
        19 001430   000545 720000 11                 LXL0    M$CMNDF_NUM
        19 001431   500000 476510                    LDP6    0,X0,PR5
        19 001432   600031 236100                    LDQ     25,,PR6
        19 001433   020000 316007                    CANQ    8192,DL
        19 001434   001440 600000 19                 TZE     s:27795

     1702    27794    3           then substr(NEXT_COMMAND_TEXT.NAME#,2,1) = dcbaddr(M$CMNDF_NUM)->F$DCB.
             27794                    EOMCHAR#;

  27794 19 001435   600003 236100                    LDQ     3,,PR6
        19 001436   200551 552104                    STBQ    NEXT_COMMAND_TEXT,'04'O,AUTO
        19 001437   001444 710000 19                 TRA     s:27797

     1703    27795    3           else substr(NEXT_COMMAND_TEXT.NAME#,2,1) = dcbaddr(M$SI_NUM   )->F$DCB.
             27795                    EOMCHAR#;

  27795 19 001440   000000 721000 xsym               LXL1    M$SI_NUM
        19 001441   500000 477511                    LDP7    0,X1,PR5
        19 001442   700003 236100                    LDQ     3,,PR7
        19 001443   200551 552104                    STBQ    NEXT_COMMAND_TEXT,'04'O,AUTO

     1704    27796
     1705    27797    3           if substr(NEXT_COMMAND_TEXT.NAME#,2,1) = BITASC('012'O) /* Lf */

  27797 19 001444   200551 236100                    LDQ     NEXT_COMMAND_TEXT,,AUTO
        19 001445   000777 376007                    ANQ     511,DL
        19 001446   000012 116007                    CMPQ    10,DL
        19 001447   001464 601000 19                 TNZ     s:27824

     1706    27798    4           THEN DO;
PL6.E3A0      #001=VMO$MAIL File=VMO$MAIL.:VMB6TSI                               WED 08/20/97 15:19 Page:337

     1707    27799                   %INIT_STR (CODE=E_NEXT_CMD, STR=VM_NEXT_CMD, NEXT_CMD=NEXT_COMMAND_TEXT,
             27799                        TEST=YES);

  27806 19 001450   040000 106400                    CMPC    fill='040'O
        19 001451   004606 200017 11                 ADSC9   VM_NEXT_CMD              cn=1,n=15
        19 001452   000035 000001 20                 ADSC9   29                       cn=0,n=1
        19 001453   001460 601000 19                 TNZ     s:27817

  27808 19 001454   000122 630400 20                 EPPR0   82
        19 001455   000000 631400 20                 EPPR1   0
        19 001456   000000 701000 xent               TSX1    VMD$ERRMSG
        19 001457   000000 011000                    NOP     0

  27817 19 001460   000100 100400                    MLR     fill='000'O
        19 001461   004606 000020 11                 ADSC9   VM_NEXT_CMD              cn=0,n=16
        19 001462   200551 001000                    ADSC9   NEXT_COMMAND_TEXT,,AUTO  cn=0,n=512

     1708    27822    4           END;

  27822 19 001463   016452 710000 19                 TRA     CONTINUE

     1709    27823    3           else
     1710    27824    3               if substr(NEXT_COMMAND_TEXT.NAME#,2,1) = BITASC('004'O) /* Eod */

  27824 19 001464   200551 236100                    LDQ     NEXT_COMMAND_TEXT,,AUTO
        19 001465   000777 376007                    ANQ     511,DL
        19 001466   000004 116007                    CMPQ    4,DL
        19 001467   016452 601000 19                 TNZ     CONTINUE

     1711    27825    4               then do;

     1712    27826                        %INIT_STR (CODE=E_PREVIOUS_CMD, STR=VM_PREVIOUS_CMD, NEXT_CMD=
             27826                            NEXT_COMMAND_TEXT, TEST=YES);

  27833 19 001470   040000 106400                    CMPC    fill='040'O
        19 001471   004622 200017 11                 ADSC9   VM_PREVIOUS_CMD          cn=1,n=15
PL6.E3A0      #001=VMO$MAIL File=VMO$MAIL.:VMB6TSI                               WED 08/20/97 15:19 Page:338
        19 001472   000035 000001 20                 ADSC9   29                       cn=0,n=1
        19 001473   001500 601000 19                 TNZ     s:27844

  27835 19 001474   000124 630400 20                 EPPR0   84
        19 001475   000000 631400 20                 EPPR1   0
        19 001476   000000 701000 xent               TSX1    VMD$ERRMSG
        19 001477   000000 011000                    NOP     0

  27844 19 001500   000100 100400                    MLR     fill='000'O
        19 001501   004622 000020 11                 ADSC9   VM_PREVIOUS_CMD          cn=0,n=16
        19 001502   200551 001000                    ADSC9   NEXT_COMMAND_TEXT,,AUTO  cn=0,n=512

     1713    27849    4               END;

  27849 19 001503   016452 710000 19                 TRA     CONTINUE

     1714    27850                                                /* Otherwise do nothing */
     1715    27851        %EJECT;
PL6.E3A0      #001=VMO$MAIL File=VMO$MAIL.:VMB6TSI                               WED 08/20/97 15:19 Page:339
     1716    27852        /* Copy and move commands */
     1717    27853    3       CASE (%CMD_COPY_MESSAGE);

     1718    27854    3           CALL NEED_FOLDER ALTRET(CONTINUE);

  27854 19 001504   016547 701000 19                 TSX1    NEED_FOLDER
        19 001505   016452 702000 19                 TSX2    CONTINUE

     1719    27855    3           GOTO COPY_MOVE;

  27855 19 001506   001511 710000 19                 TRA     COPY_MOVE

     1720    27856    3       CASE (%CMD_MOVE_MESSAGE);

     1721    27857    3           CALL NEED_UPDATE ALTRET(CONTINUE);

  27857 19 001507   016562 701000 19                 TSX1    NEED_UPDATE
        19 001510   016452 702000 19                 TSX2    CONTINUE

     1722    27858    3   COPY_MOVE:
     1723    27859
     1724    27860    3           INDX1 = 0;                  /* Number of messages moved */

  27860 19 001511   200033 450100       COPY_MOVE    STZ     INDX1,,AUTO

     1725    27861    3           INDX2 = 0;             /* Number of messages marked for deletion */

  27861 19 001512   000375 450000 11                 STZ     INDX2

     1726    27862    3           IF NOT VM_SEARCH_INFO.ACTIVE THEN CALL VMA$OPEN_SRCH_LIST(VM_SEARCH_INFO);

  27862 19 001513   001632 234000 11                 SZN     VM_SEARCH_INFO+34
        19 001514   001521 604000 19                 TMI     s:27863

  27862 19 001515   000042 630400 20                 EPPR0   34
        19 001516   000024 631400 20                 EPPR1   20
        19 001517   000000 701000 xent               TSX1    VMA$OPEN_SRCH_LIST
PL6.E3A0      #001=VMO$MAIL File=VMO$MAIL.:VMB6TSI                               WED 08/20/97 15:19 Page:340
        19 001520   000000 011000                    NOP     0

     1727    27863    3           IF OUT$->P$B.NSUBLKS > 1

  27863 19 001521   200023 470500                    LDP0    OUT$,,AUTO
        19 001522   000001 220100                    LDX0    1,,PR0
        19 001523   000002 100003                    CMPX0   2,DU
        19 001524   001534 602000 19                 TNC     s:27871

     1728    27864    4           THEN DO;

     1729    27865    4               CALL INIT$SELECT_OPTS (OUT$->P$B.SUBLK$(0),%CMD_COPY_MESSAGE) ALTRET(
             27865                        CONTINUE);

  27865 19 001525   000127 236000 20                 LDQ     87
        19 001526   201120 756100                    STQ     @EXPLICIT+1,,AUTO
        19 001527   200023 236100                    LDQ     OUT$,,AUTO
        19 001530   000003 036003                    ADLQ    3,DU
        19 001531   201117 756100                    STQ     @CURR_COMMAND_CODE+2,,AUTO
        19 001532   017510 701000 19                 TSX1    INIT$SELECT_OPTS
        19 001533   016452 702000 19                 TSX2    CONTINUE

     1730    27866    4           END;

     1731    27867        /*
     1732    27868            ***** Set break type so that break control routine can perform cleanup
     1733    27869            ***** in case a break is hit.
     1734    27870        */
     1735    27871    3           FOLDER_WAS_OPEN = %YES#;

  27871 19 001534   400000 236003                    LDQ     -131072,DU
        19 001535   000404 756000 11                 STQ     FOLDER_WAS_OPEN

     1736    27872    3           BREAK_TYPE = CURR_COMMAND_CODE;

  27872 19 001536   201115 470500                    LDP0    @CURR_COMMAND_CODE,,AUTO
        19 001537   000000 235100                    LDA     0,,PR0
PL6.E3A0      #001=VMO$MAIL File=VMO$MAIL.:VMB6TSI                               WED 08/20/97 15:19 Page:341
        19 001540   000400 755000 11                 STA     BREAK_TYPE

     1737    27873        /*
     1738    27874             ***** Open the destination ...
     1739    27875        */
     1740    27876    3           IF OUT$->P$B.NSUBLKS = 1

  27876 19 001541   200023 471500                    LDP1    OUT$,,AUTO
        19 001542   100001 220100                    LDX0    1,,PR1
        19 001543   000001 100003                    CMPX0   1,DU
        19 001544   001563 601000 19                 TNZ     s:27883

     1741    27877    4           THEN DO;

     1742    27878    4               CALL VMB$USE_SPECIFIED (OUT$->P$B.SUBLK$(0),USER_NAME,

  27878 19 001545   000042 237000 20                 LDAQ    34
        19 001546   201712 757100                    STAQ    I+104,,AUTO
        19 001547   000132 237000 20                 LDAQ    90
        19 001550   201710 757100                    STAQ    I+102,,AUTO
        19 001551   000034 236000 20                 LDQ     28
        19 001552   201707 756100                    STQ     I+101,,AUTO
        19 001553   200023 236100                    LDQ     OUT$,,AUTO
        19 001554   000003 036003                    ADLQ    3,DU
        19 001555   201706 756100                    STQ     I+100,,AUTO
        19 001556   201706 630500                    EPPR0   I+100,,AUTO
        19 001557   000130 631400 20                 EPPR1   88
        19 001560   000000 701000 xent               TSX1    VMB$USE_SPECIFIED
        19 001561   002063 702000 19                 TSX2    CANT_COPY

     1743    27879    4                 VM_WORK_FOLDER,M$WORK_NUM,
     1744    27880    4                 VM_SEARCH_INFO,%UPDATE#) ALTRET(CANT_COPY);
     1745    27881    4           END;

  27881 19 001562   001600 710000 19                 TRA     s:27887

     1746    27882    4           ELSE DO;
PL6.E3A0      #001=VMO$MAIL File=VMO$MAIL.:VMB6TSI                               WED 08/20/97 15:19 Page:342

     1747    27883    4               CALL VMB$USE_SPECIFIED (OUT$->P$B.SUBLK$(1),

  27883 19 001563   000042 237000 20                 LDAQ    34
        19 001564   201712 757100                    STAQ    I+104,,AUTO
        19 001565   000132 237000 20                 LDAQ    90
        19 001566   201710 757100                    STAQ    I+102,,AUTO
        19 001567   000034 236000 20                 LDQ     28
        19 001570   201707 756100                    STQ     I+101,,AUTO
        19 001571   200023 236100                    LDQ     OUT$,,AUTO
        19 001572   000004 036003                    ADLQ    4,DU
        19 001573   201706 756100                    STQ     I+100,,AUTO
        19 001574   201706 630500                    EPPR0   I+100,,AUTO
        19 001575   000130 631400 20                 EPPR1   88
        19 001576   000000 701000 xent               TSX1    VMB$USE_SPECIFIED
        19 001577   002063 702000 19                 TSX2    CANT_COPY

     1748    27884    4                 USER_NAME,VM_WORK_FOLDER,M$WORK_NUM,VM_SEARCH_INFO,
     1749    27885    4                 %UPDATE#) ALTRET(CANT_COPY);
     1750    27886    4           END;

     1751    27887    3           IF VM_WORK_FOLDER.FLAGS.UPDATE = %NO#

  27887 19 001600   001504 234000 11                 SZN     VM_WORK_FOLDER+19
        19 001601   001607 604000 19                 TMI     s:27896

     1752    27888    4           THEN DO;

     1753    27889    4               CALL XUR$ERRMSG(E_NOTALLOW);

  27889 19 001602   000131 630400 20                 EPPR0   89
        19 001603   000024 631400 20                 EPPR1   20
        19 001604   000000 701000 xent               TSX1    XUR$ERRMSG
        19 001605   000000 011000                    NOP     0

     1754    27890    4               GOTO CANT_COPY;

PL6.E3A0      #001=VMO$MAIL File=VMO$MAIL.:VMB6TSI                               WED 08/20/97 15:19 Page:343
  27890 19 001606   002063 710000 19                 TRA     CANT_COPY

     1755    27891    4           END;
     1756    27892        /*
     1757    27893             ***** Stash the profile for the current folder and
     1758    27894                   get the profile for the destination folder ...
     1759    27895        */
     1760    27896    3           PRINT_HEADER# = VM_PROFILE.OPT.HEADERS;

  27896 19 001607   000000 470400 xsym               LDP0    VM_PROFILE$
        19 001610   000000 236100                    LDQ     0,,PR0
        19 001611   000033 736000                    QLS     27
        19 001612   400000 376003                    ANQ     -131072,DU
        19 001613   000421 756000 11                 STQ     PRINT_HEADER#

     1761    27897    3           IF VM_CURRENT_FOLDER.FLAGS.UPDATE = %YES#

  27897 19 001614   001266 234000 11                 SZN     VM_CURRENT_FOLDER+19
        19 001615   001622 605000 19                 TPL     s:27900

     1762    27898    3           THEN
     1763    27899    3               CALL PUT_PROFILE (M$MAIL_FILE_NUM) ALTRET(E_PMME);

  27899 19 001616   000053 236000 20                 LDQ     43
        19 001617   201523 756100                    STQ     INDX2+255,,AUTO
        19 001620   021320 701000 19                 TSX1    PUT_PROFILE
        19 001621   016514 702000 19                 TSX2    E_PMME

     1764    27900    3           VM_CURRENT_FOLDER.FLAGS.OPEN = %NO#; /* This keeps

  27900 19 001622   000054 236000 20                 LDQ     44
        19 001623   001266 356000 11                 ANSQ    VM_CURRENT_FOLDER+19

     1765    27901                                           a bad profile record being written if we get
     1766    27902                                           ctl-y or otherwise xconed. */
     1767    27903    3           CALL VMD$GET_PROFILE (M$WORK_NUM) ALTRET(E_COPY);

PL6.E3A0      #001=VMO$MAIL File=VMO$MAIL.:VMB6TSI                               WED 08/20/97 15:19 Page:344
  27903 19 001624   000133 630400 20                 EPPR0   91
        19 001625   000024 631400 20                 EPPR1   20
        19 001626   000000 701000 xent               TSX1    VMD$GET_PROFILE
        19 001627   002047 702000 19                 TSX2    E_COPY

     1768    27904        /*
     1769    27905             ***** Now move the messages ...
     1770    27906        */
     1771    27907    3           ENQ_PROFILE.V.DCB# = M$WORK_NUM;

  27907 19 001630   000000 720000 xsym               LXL0    M$WORK_NUM
        19 001631   001720 740000 11                 STX0    ENQ_PROFILE+6

     1772    27908    3           DEQ_PROFILE.V.DCB# = M$WORK_NUM;

  27908 19 001632   001732 740000 11                 STX0    DEQ_PROFILE+6

     1773    27909    4           DO FOREVER;

     1774    27910    4               CALL M$ENQ (ENQ_PROFILE);

  27910 19 001633   001712 630400 11                 EPPR0   ENQ_PROFILE
        19 001634   020002 713400                    CLIMB   8194
        19 001635   401000 401760                    pmme    nvectors=3

     1775    27911    4               CALL VMD$GET_PROFILE(M$WORK_NUM) ALTRET(E_COPY);

  27911 19 001636   000133 630400 20                 EPPR0   91
        19 001637   000024 631400 20                 EPPR1   20
        19 001640   000000 701000 xent               TSX1    VMD$GET_PROFILE
        19 001641   002047 702000 19                 TSX2    E_COPY

     1776    27912    4               CALL GET$MESSAGE ALTRET(END_COPY);

  27912 19 001642   020536 701000 19                 TSX1    GET$MESSAGE
        19 001643   002024 702000 19                 TSX2    END_COPY

PL6.E3A0      #001=VMO$MAIL File=VMO$MAIL.:VMB6TSI                               WED 08/20/97 15:19 Page:345
     1777    27913        /*
     1778    27914             ***** Display the header of the message if necessary ...
     1779    27915        */
     1780    27916    4               IF PRINT_HEADER#

  27916 19 001644   000421 234000 11                 SZN     PRINT_HEADER#
        19 001645   001657 605000 19                 TPL     s:27919

     1781    27917    4               THEN
     1782    27918    4                   CALL VMD$DI_HEADER (VM_HEADER,CURRENT_MESSAGE_NUMBER,M$ME_NUM);

  27918 19 001646   000033 236000 20                 LDQ     27
        19 001647   201710 756100                    STQ     I+102,,AUTO
        19 001650   000103 236000 20                 LDQ     67
        19 001651   000000 235000 xsym               LDA     VM_HEADER$
        19 001652   201706 757100                    STAQ    I+100,,AUTO
        19 001653   201706 630500                    EPPR0   I+100,,AUTO
        19 001654   000021 631400 20                 EPPR1   17
        19 001655   000000 701000 xent               TSX1    VMD$DI_HEADER
        19 001656   000000 011000                    NOP     0

     1783    27919    4               CALL XUR$DISABLE;

  27919 19 001657   000020 631400 20                 EPPR1   16
        19 001660   000000 701000 xent               TSX1    XUR$DISABLE
        19 001661   000000 011000                    NOP     0

     1784    27920    4               INDX1 = INDX1 + 1;

  27920 19 001662   200033 054100                    AOS     INDX1,,AUTO

     1785    27921    4               COMBINED = %YES#;

  27921 19 001663   400000 236003                    LDQ     -131072,DU
        19 001664   200036 756100                    STQ     COMBINED,,AUTO

     1786    27922    4               CALL VMM$COMBINE_MESSAGE (M$MAIL_FILE_NUM, CURRENT_MESSAGE_NUMBER,
PL6.E3A0      #001=VMO$MAIL File=VMO$MAIL.:VMB6TSI                               WED 08/20/97 15:19 Page:346
             27922                        M$WORK_NUM)

  27922 19 001665   000134 630400 20                 EPPR0   92
        19 001666   000021 631400 20                 EPPR1   17
        19 001667   000000 701000 xent               TSX1    VMM$COMBINE_MESSAGE
        19 001670   001672 702000 19                 TSX2    s:27924
        19 001671   001673 710000 19                 TRA     s:27926

     1787    27923    5               WHENALTRETURN DO;

     1788    27924    5                   COMBINED = %NO#;

  27924 19 001672   200036 450100                    STZ     COMBINED,,AUTO

     1789    27925    5               END;

     1790    27926    4               CALL VMD$GET_HEADER (CURRENT_MESSAGE_NUMBER, M$MAIL_FILE_NUM);

  27926 19 001673   000120 630400 20                 EPPR0   80
        19 001674   000000 631400 20                 EPPR1   0
        19 001675   000000 701000 xent               TSX1    VMD$GET_HEADER
        19 001676   000000 011000                    NOP     0

     1791    27927    4               IF NOT COMBINED OR NOT VM_PROFILE.OPT.COMBINE

  27927 19 001677   200036 234100                    SZN     COMBINED,,AUTO
        19 001700   001715 605000 19                 TPL     s:27931
        19 001701   000000 470400 xsym               LDP0    VM_PROFILE$
        19 001702   000000 236100                    LDQ     0,,PR0
        19 001703   000002 316007                    CANQ    2,DL
        19 001704   001715 600000 19                 TZE     s:27931
        19 001705   000000 471400 xsym               LDP1    VM_HEADER$
        19 001706   100012 236100                    LDQ     10,,PR1
        19 001707   100000 316003                    CANQ    32768,DU
        19 001710   001765 601000 19                 TNZ     s:27950
        19 001711   020000 316007                    CANQ    8192,DL
        19 001712   001765 601000 19                 TNZ     s:27950
PL6.E3A0      #001=VMO$MAIL File=VMO$MAIL.:VMB6TSI                               WED 08/20/97 15:19 Page:347
        19 001713   000002 316003                    CANQ    2,DU
        19 001714   001765 601000 19                 TNZ     s:27950

     1792    27928    4                 OR NOT (VM_HEADER.STATUS.ACK OR VM_HEADER.STATUS.RRACK
     1793    27929    4                 OR VM_HEADER.STATUS.DELIVERY)
     1794    27930    5               THEN DO;

     1795    27931    5                   VM_PROFILE.HI_MESSAGE_NUMBER = VM_PROFILE.HI_MESSAGE_NUMBER + 1;

  27931 19 001715   000000 470400 xsym               LDP0    VM_PROFILE$
        19 001716   000011 235100                    LDA     9,,PR0
        19 001717   000001 035007                    ADLA    1,DL
        19 001720   000011 755100                    STA     9,,PR0

     1796    27932    5                   VM_PROFILE.NUM_MESSAGES = VM_PROFILE.NUM_MESSAGES + 1;

  27932 19 001721   000005 235100                    LDA     5,,PR0
        19 001722   000001 035007                    ADLA    1,DL
        19 001723   000005 755100                    STA     5,,PR0

     1797    27933    5                   IF CURR_COMMAND_CODE = %CMD_COPY_MESSAGE

  27933 19 001724   201115 471500                    LDP1    @CURR_COMMAND_CODE,,AUTO
        19 001725   100000 235100                    LDA     0,,PR1
        19 001726   000003 115007                    CMPA    3,DL
        19 001727   001733 601000 19                 TNZ     s:27936

     1798    27934    5                   THEN
     1799    27935    5                       VM_HEADER.STATUS.RR = %NO#;

  27935 19 001730   000000 473400 xsym               LDP3    VM_HEADER$
        19 001731   000137 236000 20                 LDQ     95
        19 001732   300012 356100                    ANSQ    10,,PR3

     1800    27936    5                   VM_HEADER.STATUS.DEL = %NO#;

  27936 19 001733   000000 473400 xsym               LDP3    VM_HEADER$
PL6.E3A0      #001=VMO$MAIL File=VMO$MAIL.:VMB6TSI                               WED 08/20/97 15:19 Page:348
        19 001734   000140 236000 20                 LDQ     96
        19 001735   300012 356100                    ANSQ    10,,PR3

     1801    27937    5                   IF VM_HEADER.STATUS.MAKE_OLD

  27937 19 001736   300012 236100                    LDQ     10,,PR3
        19 001737   002000 316003                    CANQ    1024,DU
        19 001740   001745 600000 19                 TZE     s:27942

     1802    27938    6                   THEN DO;

     1803    27939    6                       VM_HEADER.STATUS.OLD = %YES#;

  27939 19 001741   004000 236003                    LDQ     2048,DU
        19 001742   300012 256100                    ORSQ    10,,PR3

     1804    27940    6                       VM_HEADER.STATUS.MAKE_OLD = %NO#;

  27940 19 001743   000141 236000 20                 LDQ     97
        19 001744   300012 356100                    ANSQ    10,,PR3

     1805    27941    6                   END;

     1806    27942    5                   IF NOT VM_HEADER.STATUS.OLD

  27942 19 001745   300012 236100                    LDQ     10,,PR3
        19 001746   004000 316003                    CANQ    2048,DU
        19 001747   001753 601000 19                 TNZ     s:27945

     1807    27943    5                   THEN
     1808    27944    5                       VM_PROFILE.NUM_NEW_MESSAGES = VM_PROFILE.NUM_NEW_MESSAGES + 1;

  27944 19 001750   000006 235100                    LDA     6,,PR0
        19 001751   000001 035007                    ADLA    1,DL
        19 001752   000006 755100                    STA     6,,PR0

     1809    27945    5                   CALL VMM$COPY_MESSAGE (CURRENT_MESSAGE_NUMBER, VM_PROFILE.
PL6.E3A0      #001=VMO$MAIL File=VMO$MAIL.:VMB6TSI                               WED 08/20/97 15:19 Page:349
             27945                           HI_MESSAGE_NUMBER, M$MAIL_FILE_NUM, M$WORK_NUM) ALTRET (E_COPY);

  27945 19 001753   000142 237000 20                 LDAQ    98
        19 001754   201710 757100                    STAQ    I+102,,AUTO
        19 001755   000000 236000 xsym               LDQ     VM_PROFILE$
        19 001756   000011 036003                    ADLQ    9,DU
        19 001757   000103 235000 20                 LDA     67
        19 001760   201706 757100                    STAQ    I+100,,AUTO
        19 001761   201706 630500                    EPPR0   I+100,,AUTO
        19 001762   000026 631400 20                 EPPR1   22
        19 001763   000000 701000 xent               TSX1    VMM$COPY_MESSAGE
        19 001764   002047 702000 19                 TSX2    E_COPY

     1810    27946    5               END;

     1811    27947        /*
     1812    27948             ***** If move command, then delete the current message ...
     1813    27949        */
     1814    27950    4               IF CURR_COMMAND_CODE = %CMD_MOVE_MESSAGE

  27950 19 001765   201115 470500                    LDP0    @CURR_COMMAND_CODE,,AUTO
        19 001766   000000 235100                    LDA     0,,PR0
        19 001767   000033 115007                    CMPA    27,DL
        19 001770   002010 601000 19                 TNZ     s:27966

     1815    27951    4               THEN
     1816    27952    5               DO;              /* Special move processing */

     1817    27953    5                   CALL VMD$GET_HEADER (CURRENT_MESSAGE_NUMBER,

  27953 19 001771   000120 630400 20                 EPPR0   80
        19 001772   000000 631400 20                 EPPR1   0
        19 001773   000000 701000 xent               TSX1    VMD$GET_HEADER
        19 001774   002047 702000 19                 TSX2    E_COPY

     1818    27954    5                     M$MAIL_FILE_NUM) ALTRET(E_COPY);
     1819    27955    5                   IF VM_HEADER.STATUS.DEL = %NO#
PL6.E3A0      #001=VMO$MAIL File=VMO$MAIL.:VMB6TSI                               WED 08/20/97 15:19 Page:350

  27955 19 001775   000000 470400 xsym               LDP0    VM_HEADER$
        19 001776   000012 236100                    LDQ     10,,PR0
        19 001777   000400 316003                    CANQ    256,DU
        19 002000   002010 601000 19                 TNZ     s:27966

     1820    27956    5                   THEN      /* Not yet marked for deletion */
     1821    27957    6                   DO;   /* Mark for deletion */

     1822    27958    6                       VM_HEADER.STATUS.DEL = %YES#;

  27958 19 002001   000400 236003                    LDQ     256,DU
        19 002002   000012 256100                    ORSQ    10,,PR0

     1823    27959    6                       CALL VMD$PUT_HEADER (CURRENT_MESSAGE_NUMBER,

  27959 19 002003   000120 630400 20                 EPPR0   80
        19 002004   000000 631400 20                 EPPR1   0
        19 002005   000000 701000 xent               TSX1    VMD$PUT_HEADER
        19 002006   002047 702000 19                 TSX2    E_COPY

     1824    27960    6                         M$MAIL_FILE_NUM) ALTRET(E_COPY);
     1825    27961    6                       INDX2 = INDX2 + 1;

  27961 19 002007   000375 054000 11                 AOS     INDX2

     1826    27962    6                   END;

     1827    27963    5               END;             /* Special move processing */

     1828    27964                  /* write profile and deq to give mailman a change to deliver, just
     1829    27965                     in case he's been waiting */
     1830    27966    4               CALL VMD$PUT_PROFILE(M$WORK_NUM) ALTRET(E_COPY);

  27966 19 002010   000133 630400 20                 EPPR0   91
        19 002011   000024 631400 20                 EPPR1   20
        19 002012   000000 701000 xent               TSX1    VMD$PUT_PROFILE
PL6.E3A0      #001=VMO$MAIL File=VMO$MAIL.:VMB6TSI                               WED 08/20/97 15:19 Page:351
        19 002013   002047 702000 19                 TSX2    E_COPY

     1831    27967    4               CALL M$DEQ (DEQ_PROFILE) ALTRET (E_COPY);

  27967 19 002014   001724 630400 11                 EPPR0   DEQ_PROFILE
        19 002015   420003 713400                    CLIMB   alt,+8195
        19 002016   401000 401760                    pmme    nvectors=3
        19 002017   002047 702000 19                 TSX2    E_COPY

     1832    27968    4               CALL XUR$ENABLE;

  27968 19 002020   000020 631400 20                 EPPR1   16
        19 002021   000000 701000 xent               TSX1    XUR$ENABLE
        19 002022   000000 011000                    NOP     0

     1833    27969    4           END;                       /* Do forever ... end */

  27969 19 002023   001633 710000 19                 TRA     s:27910

     1834    27970        /*
     1835    27971             ***** Update the profile in the destination folder ...
     1836    27972        */
     1837    27973    3   END_COPY:
     1838    27974        /*
     1839    27975             ***** Report how many messages were copied or moved ...
     1840    27976        */
     1841    27977    3           CALL REPORT_ACTIVITY (INDX1,VM_MSGS_COPIED_FMT,%YES#,E_MSGS_COPIED_FMT);

  27977 19 002024   000144 236000 20    END_COPY     LDQ     100
        19 002025   201122 756100                    STQ     @NAME+1,,AUTO
        19 002026   000146 237000 20                 LDAQ    102
        19 002027   201120 757100                    STAQ    @EXPLICIT+1,,AUTO
        19 002030   200033 630500                    EPPR0   INDX1,,AUTO
        19 002031   201117 450500                    STP0    @CURR_COMMAND_CODE+2,,AUTO
        19 002032   017334 701000 19                 TSX1    REPORT_ACTIVITY
        19 002033   000000 011000                    NOP     0

PL6.E3A0      #001=VMO$MAIL File=VMO$MAIL.:VMB6TSI                               WED 08/20/97 15:19 Page:352
     1842    27978    3           IF INDX2 > 0

  27978 19 002034   000375 235000 11                 LDA     INDX2
        19 002035   002046 604400 19                 TMOZ    s:27985

     1843    27979    4           THEN DO;         /* Tell how many messages marked for deletion */

     1844    27980    4              CALL REPORT_ACTIVITY (INDX2,VM_MSGS_DELETED_FMT,%YES#,E_MSGS_DELETED_FMT
             27980                        );

  27980 19 002036   000150 236000 20                 LDQ     104
        19 002037   201122 756100                    STQ     @NAME+1,,AUTO
        19 002040   000152 237000 20                 LDAQ    106
        19 002041   201120 757100                    STAQ    @EXPLICIT+1,,AUTO
        19 002042   000154 236000 20                 LDQ     108
        19 002043   201117 756100                    STQ     @CURR_COMMAND_CODE+2,,AUTO
        19 002044   017334 701000 19                 TSX1    REPORT_ACTIVITY
        19 002045   000000 011000                    NOP     0

     1845    27981    4           END;

     1846    27982        /*
     1847    27983             ***** Report any unexpected error ...
     1848    27984        */
     1849    27985    4           DO NEVER;

  27985 19 002046   002063 710000 19                 TRA     CANT_COPY

     1850    27986    4   E_COPY:
     1851    27987    4               ERROR = B$TCB.ALT$ -> B$ALT.ERR;

  27987 19 002047   000000 470400 xsym  E_COPY       LDP0    B$TCB$
        19 002050   000000 471500                    LDP1    0,,PR0
        19 002051   100102 236100                    LDQ     66,,PR1
        19 002052   002204 756000 11                 STQ     ERROR

     1852    27988    4               CALL XUR$ERRMSG(ERROR,M$WORK_NUM);
PL6.E3A0      #001=VMO$MAIL File=VMO$MAIL.:VMB6TSI                               WED 08/20/97 15:19 Page:353

  27988 19 002053   000155 630400 20                 EPPR0   109
        19 002054   000000 631400 20                 EPPR1   0
        19 002055   000000 701000 xent               TSX1    XUR$ERRMSG
        19 002056   000000 011000                    NOP     0

     1853    27989    4               CALL XUR$ERRMSG(E_FOLDEROLD,M$WORK_NUM);

  27989 19 002057   000157 630400 20                 EPPR0   111
        19 002060   000000 631400 20                 EPPR1   0
        19 002061   000000 701000 xent               TSX1    XUR$ERRMSG
        19 002062   000000 011000                    NOP     0

     1854    27990    4           END;

     1855    27991    3   CANT_COPY:
     1856    27992        /*
     1857    27993             ***** Make sure the destination folder is closed ...
     1858    27994        */
     1859    27995    3           IF DCBADDR(M$WORK_NUM) -> F$DCB.FCD#

  27995 19 002063   000074 470400 20    CANT_COPY    LDP0    60
        19 002064   000000 471500                    LDP1    0,,PR0
        19 002065   000000 720000 xsym               LXL0    M$WORK_NUM
        19 002066   100000 473510                    LDP3    0,X0,PR1
        19 002067   300031 236100                    LDQ     25,,PR3
        19 002070   020000 316007                    CANQ    8192,DL
        19 002071   002077 600000 19                 TZE     s:28000

     1860    27996    4           THEN DO;

     1861    27997    4               CLOSE_SAVE.V.DCB# = M$WORK_NUM;

  27997 19 002072   002142 740000 11                 STX0    CLOSE_SAVE+26

     1862    27998    4               CALL M$CLOSE (CLOSE_SAVE) ALTRET(E_PMME);

PL6.E3A0      #001=VMO$MAIL File=VMO$MAIL.:VMB6TSI                               WED 08/20/97 15:19 Page:354
  27998 19 002073   002110 630400 11                 EPPR0   CLOSE_SAVE
        19 002074   450001 713400                    CLIMB   alt,close
        19 002075   406000 401760                    pmme    nvectors=13
        19 002076   016514 702000 19                 TSX2    E_PMME

     1863    27999    4           END;

     1864    28000    3           VM_WORK_FOLDER.FLAGS.OPEN = %NO#;

  28000 19 002077   000054 236000 20                 LDQ     44
        19 002100   001504 356000 11                 ANSQ    VM_WORK_FOLDER+19

     1865    28001        /*
     1866    28002             ***** Restore the profile for the current folder ...
     1867    28003        */
     1868    28004    3           CALL VMD$GET_PROFILE (M$MAIL_FILE_NUM) ALTRET(BAD_PROFILE);

  28004 19 002101   000053 630400 20                 EPPR0   43
        19 002102   000024 631400 20                 EPPR1   20
        19 002103   000000 701000 xent               TSX1    VMD$GET_PROFILE
        19 002104   016454 702000 19                 TSX2    BAD_PROFILE

     1869    28005    3           VM_PROFILE.NUM_DEL_MESSAGES = VM_PROFILE.NUM_DEL_MESSAGES + INDX2;

  28005 19 002105   000000 470400 xsym               LDP0    VM_PROFILE$
        19 002106   000007 236100                    LDQ     7,,PR0
        19 002107   000375 036000 11                 ADLQ    INDX2
        19 002110   000007 756100                    STQ     7,,PR0

     1870    28006        /*
     1871    28007             ***** Reset special break controls ...
     1872    28008        */
     1873    28009    3           BREAK_TYPE = 0;

  28009 19 002111   000400 450000 11                 STZ     BREAK_TYPE

     1874    28010    3           VM_CURRENT_FOLDER.FLAGS.OPEN = %YES#;
PL6.E3A0      #001=VMO$MAIL File=VMO$MAIL.:VMB6TSI                               WED 08/20/97 15:19 Page:355

  28010 19 002112   010000 236003                    LDQ     4096,DU
        19 002113   001266 256000 11                 ORSQ    VM_CURRENT_FOLDER+19
        19 002114   016452 710000 19                 TRA     CONTINUE

     1875    28011        %EJECT;
PL6.E3A0      #001=VMO$MAIL File=VMO$MAIL.:VMB6TSI                               WED 08/20/97 15:19 Page:356
     1876    28012        /* Count command */
     1877    28013    3       CASE (%CMD_COUNT_MESSAGE);

     1878    28014    3           CALL NEED_FOLDER ALTRET(CONTINUE);

  28014 19 002115   016547 701000 19                 TSX1    NEED_FOLDER
        19 002116   016452 702000 19                 TSX2    CONTINUE

     1879    28015    3           IF OUT$ -> P$B.NSUBLKS > 0

  28015 19 002117   200023 470500                    LDP0    OUT$,,AUTO
        19 002120   000001 220100                    LDX0    1,,PR0
        19 002121   002131 600000 19                 TZE     s:28018

     1880    28016    3           THEN                       /* There are options */
     1881    28017    3               CALL INIT$SELECT_OPTS (OUT$->P$B.SUBLK$(0),%CMD_COUNT_MESSAGE) ALTRET(
             28017                        CONTINUE);

  28017 19 002122   000162 236000 20                 LDQ     114
        19 002123   201120 756100                    STQ     @EXPLICIT+1,,AUTO
        19 002124   200023 236100                    LDQ     OUT$,,AUTO
        19 002125   000003 036003                    ADLQ    3,DU
        19 002126   201117 756100                    STQ     @CURR_COMMAND_CODE+2,,AUTO
        19 002127   017510 701000 19                 TSX1    INIT$SELECT_OPTS
        19 002130   016452 702000 19                 TSX2    CONTINUE

     1882    28018    3           INDX1 = 0;

  28018 19 002131   200033 450100                    STZ     INDX1,,AUTO

     1883    28019
     1884    28020    4           DO FOREVER;

     1885    28021
     1886    28022    4               CALL GET$MESSAGE ALTRET(END_COUNT);

  28022 19 002132   020536 701000 19                 TSX1    GET$MESSAGE
PL6.E3A0      #001=VMO$MAIL File=VMO$MAIL.:VMB6TSI                               WED 08/20/97 15:19 Page:357
        19 002133   002136 702000 19                 TSX2    END_COUNT

     1887    28023    4               INDX1 = INDX1 + 1;

  28023 19 002134   200033 054100                    AOS     INDX1,,AUTO

     1888    28024    4           END;                       /* Do forever */

  28024 19 002135   002132 710000 19                 TRA     s:28022

     1889    28025    3   END_COUNT:
     1890    28026    3           CALL REPORT_ACTIVITY (INDX1,VM_COUNT_FMT,%YES#,E_COUNT_FMT);

  28026 19 002136   000163 236000 20    END_COUNT    LDQ     115
        19 002137   201122 756100                    STQ     @NAME+1,,AUTO
        19 002140   000164 237000 20                 LDAQ    116
        19 002141   201120 757100                    STAQ    @EXPLICIT+1,,AUTO
        19 002142   200033 630500                    EPPR0   INDX1,,AUTO
        19 002143   201117 450500                    STP0    @CURR_COMMAND_CODE+2,,AUTO
        19 002144   017334 701000 19                 TSX1    REPORT_ACTIVITY
        19 002145   000000 011000                    NOP     0
        19 002146   016452 710000 19                 TRA     CONTINUE

     1891    28027        %EJECT;
PL6.E3A0      #001=VMO$MAIL File=VMO$MAIL.:VMB6TSI                               WED 08/20/97 15:19 Page:358
     1892    28028        /* Create folder command */
     1893    28029    3       CASE(%CMD_CREATE_FOLDER);

     1894    28030    3           CALL XUR$DISABLE;

  28030 19 002147   000020 631400 20                 EPPR1   16
        19 002150   000000 701000 xent               TSX1    XUR$DISABLE
        19 002151   000000 011000                    NOP     0

     1895    28031        /*
     1896    28032             ***** Initialize the address variables ...
     1897    28033        */
     1898    28034    3           VM_RADDRESS.ACCT = VM_CENTRAL_FOLDER.ACCT;

  28034 19 002152   040100 100400                    MLR     fill='040'O
        19 002153   001135 400010 11                 ADSC9   VM_CENTRAL_FOLDER+1      cn=2,n=8
        19 002154   200772 600010                    ADSC9   VM_RADDRESS+17,,AUTO     cn=3,n=8

     1899    28035    3           VM_RADDRESS.FOLDER = VM_CENTRAL_FOLDER.FOLDER;

  28035 19 002155   040100 100400                    MLR     fill='040'O
        19 002156   001137 400031 11                 ADSC9   VM_CENTRAL_FOLDER+3      cn=2,n=25
        19 002157   200760 400031                    ADSC9   VM_RADDRESS+7,,AUTO      cn=2,n=25

     1900    28036    3           VM_RADDRESS.PASS = ' ';

  28036 19 002160   040100 100400                    MLR     fill='040'O
        19 002161   000035 000001 20                 ADSC9   29                       cn=0,n=1
        19 002162   200766 600010                    ADSC9   VM_RADDRESS+13,,AUTO     cn=3,n=8

     1901    28037    3           VM_RADDRESS.SITENAME = ' ';

  28037 19 002163   040100 100400                    MLR     fill='040'O
        19 002164   000035 000001 20                 ADSC9   29                       cn=0,n=1
        19 002165   200770 600010                    ADSC9   VM_RADDRESS+15,,AUTO     cn=3,n=8

     1902    28038                                                /*
PL6.E3A0      #001=VMO$MAIL File=VMO$MAIL.:VMB6TSI                               WED 08/20/97 15:19 Page:359
     1903    28039                       ***** Repeat this loop once for each piece of the address ...
     1904    28040                       */
     1905    28041    3           IF OUT$ -> P$B.NSUBLKS > 0

  28041 19 002166   200023 470500                    LDP0    OUT$,,AUTO
        19 002167   000001 220100                    LDX0    1,,PR0
        19 002170   002253 600000 19                 TZE     s:28063

     1906    28042    3           THEN
     1907    28043    4           DO;

     1908    28044    4               BLK$ = OUT$ -> P$B.SUBLK$(0);

  28044 19 002171   000003 236100                    LDQ     3,,PR0
        19 002172   200024 756100                    STQ     BLK$,,AUTO

     1909    28045    5               DO INDX1 = 0 TO BLK$ -> P$B.NSUBLKS - 1;

  28045 19 002173   200033 450100                    STZ     INDX1,,AUTO
        19 002174   002246 710000 19                 TRA     s:28058+1

     1910    28046    5                   PTR1$ = BLK$ -> P$B.SUBLK$(INDX1);

  28046 19 002175   200024 470500                    LDP0    BLK$,,AUTO
        19 002176   200033 720100                    LXL0    INDX1,,AUTO
        19 002177   000003 236110                    LDQ     3,X0,PR0
        19 002200   200025 756100                    STQ     PTR1$,,AUTO

     1911    28047    6                   DO CASE (PTR1$ -> P$B.CODE);

  28047 19 002201   200025 471500                    LDP1    PTR1$,,AUTO
        19 002202   100000 721100                    LXL1    0,,PR1
        19 002203   000006 101003                    CMPX1   6,DU
        19 002204   002206 602011 19                 TNC     s:28047+5,X1
        19 002205   002245 710000 19                 TRA     s:28058
        19 002206   002245 710000 19                 TRA     s:28058
        19 002207   002245 710000 19                 TRA     s:28058
PL6.E3A0      #001=VMO$MAIL File=VMO$MAIL.:VMB6TSI                               WED 08/20/97 15:19 Page:360
        19 002210   002214 710000 19                 TRA     s:28049
        19 002211   002223 710000 19                 TRA     s:28051
        19 002212   002232 710000 19                 TRA     s:28053
        19 002213   002237 710000 19                 TRA     s:28056

     1912    28048    6                   CASE (%ADD_ACCT);

     1913    28049    6                       VM_RADDRESS.ACCT = PTR1$ -> P$S.TEXT;

  28049 19 002214   100004 236100                    LDQ     4,,PR1
        19 002215   000033 772000                    QRL     27
        19 002216   000000 622006                    EAX2    0,QL
        19 002217   040100 100540                    MLR     fill='040'O
        19 002220   100004 200012                    ADSC9   4,,PR1                   cn=1,n=*X2
        19 002221   200772 600010                    ADSC9   VM_RADDRESS+17,,AUTO     cn=3,n=8
        19 002222   002245 710000 19                 TRA     s:28058

     1914    28050    6                   CASE (%ADD_FOLDER);

     1915    28051    6                       VM_RADDRESS.FOLDER = PTR1$ -> P$S.TEXT;

  28051 19 002223   100004 236100                    LDQ     4,,PR1
        19 002224   000033 772000                    QRL     27
        19 002225   000000 622006                    EAX2    0,QL
        19 002226   040100 100540                    MLR     fill='040'O
        19 002227   100004 200012                    ADSC9   4,,PR1                   cn=1,n=*X2
        19 002230   200760 400031                    ADSC9   VM_RADDRESS+7,,AUTO      cn=2,n=25
        19 002231   002245 710000 19                 TRA     s:28058

     1916    28052    6                   CASE (%ADD_NAME);

     1917    28053    6                       CALL XUR$ERRMSG (E_NAMENTALLOWED);

  28053 19 002232   000166 630400 20                 EPPR0   118
        19 002233   000024 631400 20                 EPPR1   20
        19 002234   000000 701000 xent               TSX1    XUR$ERRMSG
        19 002235   000000 011000                    NOP     0
PL6.E3A0      #001=VMO$MAIL File=VMO$MAIL.:VMB6TSI                               WED 08/20/97 15:19 Page:361

     1918    28054    6                       GOTO CONTINUE;

  28054 19 002236   016452 710000 19                 TRA     CONTINUE

     1919    28055    6                   CASE (%ADD_PASS);

     1920    28056    6                       VM_RADDRESS.PASS = PTR1$ -> P$S.TEXT;

  28056 19 002237   100004 236100                    LDQ     4,,PR1
        19 002240   000033 772000                    QRL     27
        19 002241   000000 622006                    EAX2    0,QL
        19 002242   040100 100540                    MLR     fill='040'O
        19 002243   100004 200012                    ADSC9   4,,PR1                   cn=1,n=*X2
        19 002244   200766 600010                    ADSC9   VM_RADDRESS+13,,AUTO     cn=3,n=8

     1921    28057    6                   END;       /* Do case ... end */

     1922    28058    5               END;             /* Do INDX1 = ... end */

  28058 19 002245   200033 054100                    AOS     INDX1,,AUTO
        19 002246   200024 470500                    LDP0    BLK$,,AUTO
        19 002247   000001 236100                    LDQ     1,,PR0
        19 002250   000022 772000                    QRL     18
        19 002251   200033 116100                    CMPQ    INDX1,,AUTO
        19 002252   002175 605400 19                 TPNZ    s:28046

     1923    28059    4           END;

     1924    28060        /*
     1925    28061             ***** Now create the folder ...
     1926    28062        */
     1927    28063    3           VM_WORK_FOLDER.FLAGS = %NO#;

  28063 19 002253   001504 450000 11                 STZ     VM_WORK_FOLDER+19

     1928    28064    3           CALL VMA$OPEN_FOLDER (VM_WORK_FOLDER,ADDR(VM_RADDRESS),
PL6.E3A0      #001=VMO$MAIL File=VMO$MAIL.:VMB6TSI                               WED 08/20/97 15:19 Page:362

  28064 19 002254   200751 630500                    EPPR0   VM_RADDRESS,,AUTO
        19 002255   201706 450500                    STP0    I+100,,AUTO
        19 002256   000170 237000 20                 LDAQ    120
        19 002257   201712 757100                    STAQ    I+104,,AUTO
        19 002260   000133 236000 20                 LDQ     91
        19 002261   201711 756100                    STQ     I+103,,AUTO
        19 002262   201706 631500                    EPPR1   I+100,,AUTO
        19 002263   201710 451500                    STP1    I+102,,AUTO
        19 002264   000132 236000 20                 LDQ     90
        19 002265   201707 756100                    STQ     I+101,,AUTO
        19 002266   201707 630500                    EPPR0   I+101,,AUTO
        19 002267   000041 631400 20                 EPPR1   33
        19 002270   000000 701000 xent               TSX1    VMA$OPEN_FOLDER
        19 002271   002375 702000 19                 TSX2    CANT_CREATE_FOLDER

     1929    28065    3             M$WORK_NUM,%ERROR#,%CREATE#) ALTRET(CANT_CREATE_FOLDER);
     1930    28066    3           VM_WORK_FOLDER.FLAGS.FOLDER_SPEC = '1'B;

  28066 19 002272   040000 236003                    LDQ     16384,DU
        19 002273   001504 256000 11                 ORSQ    VM_WORK_FOLDER+19

     1931    28067    3           VM_WORK_FOLDER.SITENAME=' ';

  28067 19 002274   040000 100400                    MLR     fill='040'O
        19 002275   000035 000001 20                 ADSC9   29                       cn=0,n=1
        19 002276   001474 600010 11                 ADSC9   VM_WORK_FOLDER+11        cn=3,n=8

     1932    28068    3           WORK_STRING.L#=SIZEC(WORK_STRING.NAME#);

  28068 19 002277   777000 236003                    LDQ     -512,DU
        19 002300   000174 552040 11                 STBQ    WORK_STRING,'40'O

     1933    28069    3           CALL GET_FOLDERNAME (VM_WORK_FOLDER);

  28069 19 002301   000132 236000 20                 LDQ     90
        19 002302   201123 756100                    STQ     LEN+1,,AUTO
PL6.E3A0      #001=VMO$MAIL File=VMO$MAIL.:VMB6TSI                               WED 08/20/97 15:19 Page:363
        19 002303   017064 701000 19                 TSX1    GET_FOLDERNAME
        19 002304   000000 011000                    NOP     0

     1934    28070    3           CALL XUR$INFOMSG (E_CREATE_MSG_FMT,, M$ME_NUM,VECTOR(WORK_STRING));

  28070 19 002305   000174 237000 20                 LDAQ    124
        19 002306   201710 757100                    STAQ    I+102,,AUTO
        19 002307   000022 236000 20                 LDQ     18
        19 002310   000176 235000 20                 LDA     126
        19 002311   201706 757100                    STAQ    I+100,,AUTO
        19 002312   201706 630500                    EPPR0   I+100,,AUTO
        19 002313   000026 631400 20                 EPPR1   22
        19 002314   000000 701000 xent               TSX1    XUR$INFOMSG
        19 002315   000000 011000                    NOP     0

     1935    28071        /*
     1936    28072             ***** Give this folder a profile.
     1937    28073                   First store away our current profile,
     1938    28074                   reset important fields, write this profile
     1939    28075                   into the newly created folder, and then get
     1940    28076                   back the profile for our current folder ...
     1941    28077        */
     1942    28078    3           IF VM_CURRENT_FOLDER.FLAGS.UPDATE

  28078 19 002316   001266 234000 11                 SZN     VM_CURRENT_FOLDER+19
        19 002317   002324 605000 19                 TPL     s:28081

     1943    28079    3           THEN                       /* Ok to stash profile */
     1944    28080    3               CALL PUT_PROFILE (M$MAIL_FILE_NUM) ALTRET(E_PMME);

  28080 19 002320   000053 236000 20                 LDQ     43
        19 002321   201523 756100                    STQ     INDX2+255,,AUTO
        19 002322   021320 701000 19                 TSX1    PUT_PROFILE
        19 002323   016514 702000 19                 TSX2    E_PMME

     1945    28081    3           VM_PROFILE = CVM_PROFILE;

PL6.E3A0      #001=VMO$MAIL File=VMO$MAIL.:VMB6TSI                               WED 08/20/97 15:19 Page:364
  28081 19 002324   000000 470400 xsym               LDP0    VM_PROFILE$
        19 002325   000100 100400                    MLR     fill='000'O
        19 002326   000100 000704 12                 ADSC9   CVM_PROFILE              cn=0,n=452
        19 002327   000000 000704                    ADSC9   0,,PR0                   cn=0,n=452

     1946    28082    3           VM_PROFILE.FREE$ = ADDR(NIL);

  28082 19 002330   000022 236000 20                 LDQ     18
        19 002331   000003 756100                    STQ     3,,PR0

     1947    28083    3           VM_PROFILE.NEXT$ = ADDR(VM_PROFILE.WORK_AREA);

  28083 19 002332   000000 236000 xsym               LDQ     VM_PROFILE$
        19 002333   000160 036003                    ADLQ    112,DU
        19 002334   000004 756100                    STQ     4,,PR0

     1948    28084    3           CALL CONCAT (VM_PROFILE.NAME_KEY,B$JIT.ACCN,B$JIT.UNAME);

  28084 19 002335   000000 471400 xsym               LDP1    B$JIT$
        19 002336   040100 100500                    MLR     fill='040'O
        19 002337   100001 000010                    ADSC9   1,,PR1                   cn=0,n=8
        19 002340   000127 000010                    ADSC9   87,,PR0                  cn=0,n=8
        19 002341   040100 100500                    MLR     fill='040'O
        19 002342   100003 000014                    ADSC9   3,,PR1                   cn=0,n=12
        19 002343   000131 000014                    ADSC9   89,,PR0                  cn=0,n=12

     1949    28085                %INIT_STR (CODE=E_MAIL_SETUP, STR=VM_MAIL_SETUP, TEST=YES);

  28092 19 002344   040000 106400                    CMPC    fill='040'O
        19 002345   005073 200377 11                 ADSC9   VM_MAIL_SETUP            cn=1,n=255
        19 002346   000035 000001 20                 ADSC9   29                       cn=0,n=1
        19 002347   002354 601000 19                 TNZ     s:28108

  28094 19 002350   000177 630400 20                 EPPR0   127
        19 002351   000000 631400 20                 EPPR1   0
        19 002352   000000 701000 xent               TSX1    VMD$ERRMSG
        19 002353   000000 011000                    NOP     0
PL6.E3A0      #001=VMO$MAIL File=VMO$MAIL.:VMB6TSI                               WED 08/20/97 15:19 Page:365

     1950    28108    3           VM_PROFILE.SETUP.COUNT = VM_MAIL_SETUP.L#;

  28108 19 002354   000000 470400 xsym               LDP0    VM_PROFILE$
        19 002355   005073 236000 11                 LDQ     VM_MAIL_SETUP
        19 002356   000013 552140                    STBQ    11,'40'O,PR0

     1951    28109    3           VM_PROFILE.SETUP.TEXT = VM_MAIL_SETUP.NAME#;

  28109 19 002357   040100 100400                    MLR     fill='040'O
        19 002360   005073 200377 11                 ADSC9   VM_MAIL_SETUP            cn=1,n=255
        19 002361   000013 200400                    ADSC9   11,,PR0                  cn=1,n=256

     1952    28110    3           CALL VMD$PUT_PROFILE (M$WORK_NUM) ALTRET(E_PMME);

  28110 19 002362   000133 630400 20                 EPPR0   91
        19 002363   000024 631400 20                 EPPR1   20
        19 002364   000000 701000 xent               TSX1    VMD$PUT_PROFILE
        19 002365   016514 702000 19                 TSX2    E_PMME

     1953    28111        /*
     1954    28112             ***** Close the file with disp=save so that the
     1955    28113                   file will be entered into the catalog. ...
     1956    28114        */
     1957    28115    3           CLOSE_SAVE.V.DCB# = M$WORK_NUM;

  28115 19 002366   000000 720000 xsym               LXL0    M$WORK_NUM
        19 002367   002142 740000 11                 STX0    CLOSE_SAVE+26

     1958    28116    3           CALL M$CLOSE (CLOSE_SAVE) ALTRET(E_PMME);

  28116 19 002370   002110 630400 11                 EPPR0   CLOSE_SAVE
        19 002371   450001 713400                    CLIMB   alt,close
        19 002372   406000 401760                    pmme    nvectors=13
        19 002373   016514 702000 19                 TSX2    E_PMME

     1959    28117        /**/
PL6.E3A0      #001=VMO$MAIL File=VMO$MAIL.:VMB6TSI                               WED 08/20/97 15:19 Page:366
     1960    28118    4           DO NEVER;

  28118 19 002374   002411 710000 19                 TRA     s:28127

     1961    28119    4   CANT_CREATE_FOLDER:
     1962    28120    4               ERROR = B$TCB.ALT$ -> B$ALT.ERR;

  28120 19 002375   000000 470400 xsym  CANT_CREATE* LDP0    B$TCB$
        19 002376   000000 471500                    LDP1    0,,PR0
        19 002377   100102 236100                    LDQ     66,,PR1
        19 002400   002204 756000 11                 STQ     ERROR

     1963    28121    4               CALL XUR$ERRMSG(E_CRFERR);

  28121 19 002401   000201 630400 20                 EPPR0   129
        19 002402   000024 631400 20                 EPPR1   20
        19 002403   000000 701000 xent               TSX1    XUR$ERRMSG
        19 002404   000000 011000                    NOP     0

     1964    28122    4               CALL XUR$ERRMSG (ERROR,M$WORK_NUM);

  28122 19 002405   000155 630400 20                 EPPR0   109
        19 002406   000000 631400 20                 EPPR1   0
        19 002407   000000 701000 xent               TSX1    XUR$ERRMSG
        19 002410   000000 011000                    NOP     0

     1965    28123    4           END;                       /* Do never ... end */

     1966    28124        /*
     1967    28125             ***** Get profile for the current folder back ...
     1968    28126        */
     1969    28127    3           IF VM_CURRENT_FOLDER.FLAGS.OPEN

  28127 19 002411   001266 236000 11                 LDQ     VM_CURRENT_FOLDER+19
        19 002412   010000 316003                    CANQ    4096,DU
        19 002413   016452 600000 19                 TZE     CONTINUE

PL6.E3A0      #001=VMO$MAIL File=VMO$MAIL.:VMB6TSI                               WED 08/20/97 15:19 Page:367
     1970    28128    3           THEN                       /* A folder is open */
     1971    28129    3               CALL VMD$GET_PROFILE (M$MAIL_FILE_NUM) ALTRET(BAD_PROFILE);

  28129 19 002414   000053 630400 20                 EPPR0   43
        19 002415   000024 631400 20                 EPPR1   20
        19 002416   000000 701000 xent               TSX1    VMD$GET_PROFILE
        19 002417   016454 702000 19                 TSX2    BAD_PROFILE
        19 002420   016452 710000 19                 TRA     CONTINUE

     1972    28130        %EJECT;
PL6.E3A0      #001=VMO$MAIL File=VMO$MAIL.:VMB6TSI                               WED 08/20/97 15:19 Page:368
     1973    28131        /* Create list command */
     1974    28132    3       CASE(%CMD_CREATE_LIST);

     1975    28133    3           CALL NEED_UPDATE ALTRET(CONTINUE);

  28133 19 002421   016562 701000 19                 TSX1    NEED_UPDATE
        19 002422   016452 702000 19                 TSX2    CONTINUE

     1976    28134        /*E*    ERROR: VMO-E$LISTEXISTS-0
     1977    28135                MESSAGE: List %U1 already exists.
     1978    28136        */
     1979    28137        /*
     1980    28138             ***** Repeat this loop once for each list name defined ...
     1981    28139        */
     1982    28140    4           DO INDX1 = 0 TO OUT$ -> P$B.NSUBLKS - 1;

  28140 19 002423   200033 450100                    STZ     INDX1,,AUTO
        19 002424   003012 710000 19                 TRA     CREATE_LIST_END+1

     1983    28141    4               BLK$ = OUT$ -> P$B.SUBLK$(INDX1);

  28141 19 002425   200023 470500                    LDP0    OUT$,,AUTO
        19 002426   200033 720100                    LXL0    INDX1,,AUTO
        19 002427   000003 236110                    LDQ     3,X0,PR0
        19 002430   200024 756100                    STQ     BLK$,,AUTO

     1984    28142        /*
     1985    28143             ***** Check if a list with this name exists ...
     1986    28144        */
     1987    28145    4               VM_LISTKEY.TEXT = BLK$ -> P$B.SUBLK$(0) -> P$S.TEXT;

  28145 19 002431   200024 471500                    LDP1    BLK$,,AUTO
        19 002432   100003 473500                    LDP3    3,,PR1
        19 002433   300004 236100                    LDQ     4,,PR3
        19 002434   000033 772000                    QRL     27
        19 002435   000000 621006                    EAX1    0,QL
        19 002436   040000 100540                    MLR     fill='040'O
PL6.E3A0      #001=VMO$MAIL File=VMO$MAIL.:VMB6TSI                               WED 08/20/97 15:19 Page:369
        19 002437   300004 200011                    ADSC9   4,,PR3                   cn=1,n=*X1
        19 002440   000554 400310 11                 ADSC9   VM_LISTKEY               cn=2,n=200

     1988    28146    4               CALL VMA$GET_LIST (VM_LISTKEY,VM_ADDLIST$,

  28146 19 002441   000202 630400 20                 EPPR0   130
        19 002442   000021 631400 20                 EPPR1   17
        19 002443   000000 701000 xent               TSX1    VMA$GET_LIST
        19 002444   002476 702000 19                 TSX2    E_CRLIST1

     1989    28147    4                 M$MAIL_FILE_NUM) ALTRET(E_CRLIST1);
     1990    28148        /*
     1991    28149             ***** It does exist...
     1992    28150                   Bug!!!
     1993    28151        */
     1994    28152    4               CALL XUR$ERRMSG (E_LISTEXISTS,,,

  28152 19 002445   200024 470500                    LDP0    BLK$,,AUTO
        19 002446   000003 471500                    LDP1    3,,PR0
        19 002447   100003 473500                    LDP3    3,,PR1
        19 002450   000100 101500                    MRL     fill='000'O
        19 002451   300000 000001                    ADSC9   0,,PR3                   cn=0,n=1
        19 002452   201706 000002                    ADSC9   I+100,,AUTO              cn=0,n=2
        19 002453   201706 220100                    LDX0    I+100,,AUTO
        19 002454   000001 621010                    EAX1    1,X0
        19 002455   000000 635011                    EAA     0,X1
        19 002456   000002 771000                    ARL     2
        19 002457   000140 135007                    SBLA    96,DL
        19 002460   201707 453500                    STP3    I+101,,AUTO
        19 002461   201707 236100                    LDQ     I+101,,AUTO
        19 002462   201710 757100                    STAQ    I+102,,AUTO
        19 002463   201710 631500                    EPPR1   I+102,,AUTO
        19 002464   201715 451500                    STP1    I+107,,AUTO
        19 002465   000022 236000 20                 LDQ     18
        19 002466   201714 756100                    STQ     I+106,,AUTO
        19 002467   000205 235000 20                 LDA     133
        19 002470   201712 757100                    STAQ    I+104,,AUTO
PL6.E3A0      #001=VMO$MAIL File=VMO$MAIL.:VMB6TSI                               WED 08/20/97 15:19 Page:370
        19 002471   201712 630500                    EPPR0   I+104,,AUTO
        19 002472   000026 631400 20                 EPPR1   22
        19 002473   000000 701000 xent               TSX1    XUR$ERRMSG
        19 002474   000000 011000                    NOP     0

     1995    28153    4                 VECTOR(BLK$->P$B.SUBLK$(0)->P$S.TEXTC$->X$STRING));
     1996    28154    4               GOTO CREATE_LIST_END;

  28154 19 002475   003011 710000 19                 TRA     CREATE_LIST_END

  28153 19 002476                       E_CRLIST1    null
     1997    28155        /*
     1998    28156             ***** If attempting to create a global list,
     1999    28157                   first check to see if a user with this
     2000    28158                   name already exists. If so, then error ...
     2001    28159        */
     2002    28160    4   E_CRLIST1:  ;
     2003    28161    4               FPT_CORRES.V.DCB1# = M$MAIL_FILE_NUM;

  28161 19 002476   000000 720000 xsym               LXL0    M$MAIL_FILE_NUM
        19 002477   002412 740000 11                 STX0    FPT_CORRES+2

     2004    28162    4               FPT_CORRES.V.DCB2# = M$MAIL_GLOBAL_NUM;

  28162 19 002500   000000 721000 xsym               LXL1    M$MAIL_GLOBAL_NUM
        19 002501   002412 441000 11                 SXL1    FPT_CORRES+2

     2005    28163    4               CALL M$CORRES (FPT_CORRES) ALTRET(E_CRLIST2);

  28163 19 002502   002410 630400 11                 EPPR0   FPT_CORRES
        19 002503   460000 713400                    CLIMB   alt,+24576
        19 002504   400000 401760                    pmme    nvectors=1
        19 002505   002507 702000 19                 TSX2    E_CRLIST2

     2006    28164    4               GOTO E_CRLIST3;       /* Not same file */

  28164 19 002506   002547 710000 19                 TRA     E_CRLIST3
PL6.E3A0      #001=VMO$MAIL File=VMO$MAIL.:VMB6TSI                               WED 08/20/97 15:19 Page:371

  28162 19 002507                       E_CRLIST2    null
     2007    28165    4   E_CRLIST2:  ;
     2008    28166    4               VM_USERKEY.TEXT = VM_LISTKEY.TEXT;

  28166 19 002507   040000 100400                    MLR     fill='040'O
        19 002510   000554 400310 11                 ADSC9   VM_LISTKEY               cn=2,n=200
        19 002511   000722 400310 11                 ADSC9   VM_USERKEY               cn=2,n=200

     2009    28167    4               CALL VMA$GET_LIST (VM_USERKEY,VM_ADDLIST$,

  28167 19 002512   000206 630400 20                 EPPR0   134
        19 002513   000021 631400 20                 EPPR1   17
        19 002514   000000 701000 xent               TSX1    VMA$GET_LIST
        19 002515   002547 702000 19                 TSX2    E_CRLIST3

     2010    28168    4                 M$MAIL_FILE_NUM) ALTRET(E_CRLIST3);
     2011    28169        /*
     2012    28170             ***** It does exist...
     2013    28171                   Bug!!!
     2014    28172        */
     2015    28173    4               CALL XUR$ERRMSG (E_USEREXISTS,,,

  28173 19 002516   200024 470500                    LDP0    BLK$,,AUTO
        19 002517   000003 471500                    LDP1    3,,PR0
        19 002520   100003 473500                    LDP3    3,,PR1
        19 002521   000100 101500                    MRL     fill='000'O
        19 002522   300000 000001                    ADSC9   0,,PR3                   cn=0,n=1
        19 002523   201706 000002                    ADSC9   I+100,,AUTO              cn=0,n=2
        19 002524   201706 220100                    LDX0    I+100,,AUTO
        19 002525   000001 621010                    EAX1    1,X0
        19 002526   000000 635011                    EAA     0,X1
        19 002527   000002 771000                    ARL     2
        19 002530   000140 135007                    SBLA    96,DL
        19 002531   201707 453500                    STP3    I+101,,AUTO
        19 002532   201707 236100                    LDQ     I+101,,AUTO
        19 002533   201710 757100                    STAQ    I+102,,AUTO
PL6.E3A0      #001=VMO$MAIL File=VMO$MAIL.:VMB6TSI                               WED 08/20/97 15:19 Page:372
        19 002534   201710 631500                    EPPR1   I+102,,AUTO
        19 002535   201715 451500                    STP1    I+107,,AUTO
        19 002536   000022 236000 20                 LDQ     18
        19 002537   201714 756100                    STQ     I+106,,AUTO
        19 002540   000211 235000 20                 LDA     137
        19 002541   201712 757100                    STAQ    I+104,,AUTO
        19 002542   201712 630500                    EPPR0   I+104,,AUTO
        19 002543   000026 631400 20                 EPPR1   22
        19 002544   000000 701000 xent               TSX1    XUR$ERRMSG
        19 002545   000000 011000                    NOP     0

     2016    28174    4                 VECTOR(BLK$->P$B.SUBLK$(0)->P$S.TEXTC$->X$STRING));
     2017    28175    4               GOTO CREATE_LIST_END;

  28175 19 002546   003011 710000 19                 TRA     CREATE_LIST_END

  28166 19 002547                       E_CRLIST3    null
     2018    28176        /*
     2019    28177             ***** Ok to create the list ...
     2020    28178        */
     2021    28179    4   E_CRLIST3:  ;
     2022    28180        /*
     2023    28181             ***** Initialize VM_ADD_HEAD ...
     2024    28182        */
     2025    28183    4               VM_ADD_HEAD.NUM_ENTRIES = 0;

  28183 19 002547   000000 470400 xsym               LDP0    VM_ADDLIST$
        19 002550   000001 450100                    STZ     1,,PR0

     2026    28184        /*
     2027    28185             ***** Repeat this loop once for each address in the definition ...
     2028    28186        */
     2029    28187    5               DO INDX2 = 1 TO BLK$ -> P$B.NSUBLKS - 1;

  28187 19 002551   000001 235007                    LDA     1,DL
        19 002552   000375 755000 11                 STA     INDX2
        19 002553   003000 710000 19                 TRA     s:28252+1
PL6.E3A0      #001=VMO$MAIL File=VMO$MAIL.:VMB6TSI                               WED 08/20/97 15:19 Page:373

     2030    28188    5                   PTR2$ = BLK$ -> P$B.SUBLK$(INDX2);

  28188 19 002554   200024 470500                    LDP0    BLK$,,AUTO
        19 002555   000375 720000 11                 LXL0    INDX2
        19 002556   000003 236110                    LDQ     3,X0,PR0
        19 002557   200026 756100                    STQ     PTR2$,,AUTO

     2031    28189        /*
     2032    28190             ***** Initialize the address variables ...
     2033    28191        */
     2034    28192    5                   ADDRESS_ACCT.ACCT# = ' ';

  28192 19 002560   000035 235000 20                 LDA     29
        19 002561   000035 236000 20                 LDQ     29
        19 002562   200042 757100                    STAQ    ADDRESS_ACCT,,AUTO

     2035    28193    5                   ADDRESS_NAME.L# = 0;

  28193 19 002563   000000 236003                    LDQ     0,DU
        19 002564   200051 552140                    STBQ    ADDRESS_NAME,'40'O,AUTO

     2036    28194    5                   ADDRESS_NAME.NAME# = ' ';

  28194 19 002565   040100 100400                    MLR     fill='040'O
        19 002566   000035 000001 20                 ADSC9   29                       cn=0,n=1
        19 002567   200051 200777                    ADSC9   ADDRESS_NAME,,AUTO       cn=1,n=511

     2037    28195    5                   ADDRESS_FOLDER = ' ';

  28195 19 002570   040100 100400                    MLR     fill='040'O
        19 002571   000035 000001 20                 ADSC9   29                       cn=0,n=1
        19 002572   200253 000031                    ADSC9   ADDRESS_FOLDER,,AUTO     cn=0,n=25

     2038    28196    5                   ADDRESS_PASS.PASS# = ' ';

  28196 19 002573   000035 235000 20                 LDA     29
PL6.E3A0      #001=VMO$MAIL File=VMO$MAIL.:VMB6TSI                               WED 08/20/97 15:19 Page:374
        19 002574   000035 236000 20                 LDQ     29
        19 002575   200251 755100                    STA     ADDRESS_PASS,,AUTO
        19 002576   200252 756100                    STQ     ADDRESS_PASS+1,,AUTO

     2039    28197    5                   ADDRESS_SITENAME = ' ';

  28197 19 002577   000035 235000 20                 LDA     29
        19 002600   000035 236000 20                 LDQ     29
        19 002601   200262 757100                    STAQ    ADDRESS_SITENAME,,AUTO

     2040    28198    5                   DOMAIN$ = ADDR(NIL);

  28198 19 002602   000022 236000 20                 LDQ     18
        19 002603   200264 756100                    STQ     DOMAIN$,,AUTO

     2041    28199                                                /*
     2042    28200                       ***** Repeat this loop once for each piece of the address ...
     2043    28201                       */
     2044    28202    6                   DO INDX3 = 0 TO PTR2$ -> P$B.NSUBLKS - 1;

  28202 19 002604   200034 450100                    STZ     INDX3,,AUTO
        19 002605   002700 710000 19                 TRA     s:28219+1

     2045    28203    6                       PTR3$ = PTR2$ -> P$B.SUBLK$(INDX3);

  28203 19 002606   200026 470500                    LDP0    PTR2$,,AUTO
        19 002607   200034 720100                    LXL0    INDX3,,AUTO
        19 002610   000003 236110                    LDQ     3,X0,PR0
        19 002611   200027 756100                    STQ     PTR3$,,AUTO

     2046    28204    7                       DO CASE (PTR3$ -> P$B.CODE);

  28204 19 002612   200027 471500                    LDP1    PTR3$,,AUTO
        19 002613   100000 721100                    LXL1    0,,PR1
        19 002614   000012 101003                    CMPX1   10,DU
        19 002615   002617 602011 19                 TNC     s:28204+5,X1
        19 002616   002677 710000 19                 TRA     s:28219
PL6.E3A0      #001=VMO$MAIL File=VMO$MAIL.:VMB6TSI                               WED 08/20/97 15:19 Page:375
        19 002617   002677 710000 19                 TRA     s:28219
        19 002620   002677 710000 19                 TRA     s:28219
        19 002621   002631 710000 19                 TRA     s:28206
        19 002622   002640 710000 19                 TRA     s:28208
        19 002623   002647 710000 19                 TRA     s:28210
        19 002624   002660 710000 19                 TRA     s:28213
        19 002625   002667 710000 19                 TRA     s:28215
        19 002626   002677 710000 19                 TRA     s:28219
        19 002627   002677 710000 19                 TRA     s:28219
        19 002630   002676 710000 19                 TRA     s:28217

     2047    28205    7                       CASE (%ADD_ACCT);

     2048    28206    7                           ADDRESS_ACCT.ACCT# = PTR3$ -> P$S.TEXT;

  28206 19 002631   100004 236100                    LDQ     4,,PR1
        19 002632   000033 772000                    QRL     27
        19 002633   000000 622006                    EAX2    0,QL
        19 002634   040100 100540                    MLR     fill='040'O
        19 002635   100004 200012                    ADSC9   4,,PR1                   cn=1,n=*X2
        19 002636   200042 000010                    ADSC9   ADDRESS_ACCT,,AUTO       cn=0,n=8
        19 002637   002677 710000 19                 TRA     s:28219

     2049    28207    7                       CASE (%ADD_FOLDER);

     2050    28208    7                           ADDRESS_FOLDER = PTR3$ -> P$S.TEXT;

  28208 19 002640   100004 236100                    LDQ     4,,PR1
        19 002641   000033 772000                    QRL     27
        19 002642   000000 622006                    EAX2    0,QL
        19 002643   040100 100540                    MLR     fill='040'O
        19 002644   100004 200012                    ADSC9   4,,PR1                   cn=1,n=*X2
        19 002645   200253 000031                    ADSC9   ADDRESS_FOLDER,,AUTO     cn=0,n=25
        19 002646   002677 710000 19                 TRA     s:28219

     2051    28209    7                       CASE (%ADD_NAME);

PL6.E3A0      #001=VMO$MAIL File=VMO$MAIL.:VMB6TSI                               WED 08/20/97 15:19 Page:376
     2052    28210    7                           ADDRESS_NAME.NAME# = PTR3$ -> P$S.TEXT;

  28210 19 002647   100004 236100                    LDQ     4,,PR1
        19 002650   000033 772000                    QRL     27
        19 002651   000000 622006                    EAX2    0,QL
        19 002652   040100 100540                    MLR     fill='040'O
        19 002653   100004 200012                    ADSC9   4,,PR1                   cn=1,n=*X2
        19 002654   200051 200777                    ADSC9   ADDRESS_NAME,,AUTO       cn=1,n=511

     2053    28211    7                           ADDRESS_NAME.L# = PTR3$ -> P$S.COUNT;

  28211 19 002655   100004 236100                    LDQ     4,,PR1
        19 002656   200051 552140                    STBQ    ADDRESS_NAME,'40'O,AUTO
        19 002657   002677 710000 19                 TRA     s:28219

     2054    28212    7                       CASE (%ADD_PASS);

     2055    28213    7                           ADDRESS_PASS.PASS# = PTR3$ -> P$S.TEXT;

  28213 19 002660   100004 236100                    LDQ     4,,PR1
        19 002661   000033 772000                    QRL     27
        19 002662   000000 622006                    EAX2    0,QL
        19 002663   040100 100540                    MLR     fill='040'O
        19 002664   100004 200012                    ADSC9   4,,PR1                   cn=1,n=*X2
        19 002665   200251 000010                    ADSC9   ADDRESS_PASS,,AUTO       cn=0,n=8
        19 002666   002677 710000 19                 TRA     s:28219

     2056    28214    7                       CASE (%ADD_SITE);

     2057    28215    7                           ADDRESS_SITENAME = PTR3$ -> P$S.TEXT;

  28215 19 002667   100004 236100                    LDQ     4,,PR1
        19 002670   000033 772000                    QRL     27
        19 002671   000000 622006                    EAX2    0,QL
        19 002672   040100 100540                    MLR     fill='040'O
        19 002673   100004 200012                    ADSC9   4,,PR1                   cn=1,n=*X2
        19 002674   200262 000010                    ADSC9   ADDRESS_SITENAME,,AUTO   cn=0,n=8
PL6.E3A0      #001=VMO$MAIL File=VMO$MAIL.:VMB6TSI                               WED 08/20/97 15:19 Page:377
        19 002675   002677 710000 19                 TRA     s:28219

     2058    28216    7                       CASE (%ADD_DOMAIN);

     2059    28217    7                           DOMAIN$ = PTR3$;

  28217 19 002676   200264 756100                    STQ     DOMAIN$,,AUTO

     2060    28218    7                       END;      /* Do case ... end */

     2061    28219    6                   END;            /* Do INDX3 = ... end */

  28219 19 002677   200034 054100                    AOS     INDX3,,AUTO
        19 002700   200026 470500                    LDP0    PTR2$,,AUTO
        19 002701   000001 236100                    LDQ     1,,PR0
        19 002702   000022 772000                    QRL     18
        19 002703   200034 116100                    CMPQ    INDX3,,AUTO
        19 002704   002606 605400 19                 TPNZ    s:28203

     2062    28220    5                   CALL TRANSFORM_DOMAIN (DOMAIN$, ADDRESS_SITENAME, ADDRESS_NAME)

  28220 19 002705   200051 631500                    EPPR1   ADDRESS_NAME,,AUTO
        19 002706   201121 451500                    STP1    @SITENAME+1,,AUTO
        19 002707   200262 633500                    EPPR3   ADDRESS_SITENAME,,AUTO
        19 002710   201120 453500                    STP3    @EXPLICIT+1,,AUTO
        19 002711   200264 634500                    EPPR4   DOMAIN$,,AUTO
        19 002712   201117 454500                    STP4    @CURR_COMMAND_CODE+2,,AUTO
        19 002713   024636 701000 19                 TSX1    TRANSFORM_DOMAIN
        19 002714   003011 702000 19                 TSX2    CREATE_LIST_END

     2063    28221    5                     ALTRET (CREATE_LIST_END);
     2064    28222        /*
     2065    28223             ***** Add this entry to the address list ...
     2066    28224        */
     2067    28225    5                   IF ADDRESS_ACCT.ACCT# = ' '

  28225 19 002715   200042 237100                    LDAQ    ADDRESS_ACCT,,AUTO
PL6.E3A0      #001=VMO$MAIL File=VMO$MAIL.:VMB6TSI                               WED 08/20/97 15:19 Page:378
        19 002716   000212 117000 20                 CMPAQ   138
        19 002717   002743 601000 19                 TNZ     s:28241
        19 002720   040000 106500                    CMPC    fill='040'O
        19 002721   200051 200777                    ADSC9   ADDRESS_NAME,,AUTO       cn=1,n=511
        19 002722   000035 000001 20                 ADSC9   29                       cn=0,n=1
        19 002723   002743 601000 19                 TNZ     s:28241

     2068    28226    5                     AND ADDRESS_NAME.NAME# = ' '
     2069    28227    5                   THEN           /* Fill in default */
     2070    28228    6                   DO;

     2071    28229    6                       IF SUBSTR(USER_NAME.NAME#,0,1) = '.'

  28229 19 002724   004427 236000 11                 LDQ     USER_NAME
        19 002725   000777 376003                    ANQ     511,DU
        19 002726   000056 116003                    CMPQ    46,DU
        19 002727   002736 601000 19                 TNZ     s:28237

     2072    28230    6                       THEN /* User is not registered */
     2073    28231    7                       DO;

     2074    28232    7                           ADDRESS_ACCT.ACCT# = SUBSTR(USER_NAME.NAME#,1);

  28232 19 002730   040100 100400                    MLR     fill='040'O
        19 002731   004427 400010 11                 ADSC9   USER_NAME                cn=2,n=8
        19 002732   200042 000010                    ADSC9   ADDRESS_ACCT,,AUTO       cn=0,n=8

     2075    28233    7                           ADDRESS_NAME.L# = 0;

  28233 19 002733   000000 236003                    LDQ     0,DU
        19 002734   200051 552140                    STBQ    ADDRESS_NAME,'40'O,AUTO

     2076    28234    7                       END;

  28234 19 002735   002743 710000 19                 TRA     s:28241

     2077    28235    6                       ELSE /* User is registered */
PL6.E3A0      #001=VMO$MAIL File=VMO$MAIL.:VMB6TSI                               WED 08/20/97 15:19 Page:379
     2078    28236    7                       DO;

     2079    28237    7                           ADDRESS_NAME.L# = USER_NAME.L#;

  28237 19 002736   004427 236000 11                 LDQ     USER_NAME
        19 002737   200051 552140                    STBQ    ADDRESS_NAME,'40'O,AUTO

     2080    28238    7                           ADDRESS_NAME.NAME# = USER_NAME.NAME#;

  28238 19 002740   040100 100400                    MLR     fill='040'O
        19 002741   004427 200400 11                 ADSC9   USER_NAME                cn=1,n=256
        19 002742   200051 200777                    ADSC9   ADDRESS_NAME,,AUTO       cn=1,n=511

     2081    28239    7                       END;

     2082    28240    6                   END;

     2083    28241    5                   IF ADDRESS_NAME.L# ~= 0

  28241 19 002743   200051 236100                    LDQ     ADDRESS_NAME,,AUTO
        19 002744   777000 316003                    CANQ    -512,DU
        19 002745   002763 600000 19                 TZE     s:28249

     2084    28242    5                   THEN           /* Store as unresolved address */
     2085    28243    6                   DO;

     2086    28244    6                       CALL VMA$ADD_UENTRY_SORTED (ADDRESS_NAME,ADDRESS_FOLDER,

  28244 19 002746   200262 630500                    EPPR0   ADDRESS_SITENAME,,AUTO
        19 002747   201711 450500                    STP0    I+103,,AUTO
        19 002750   200251 631500                    EPPR1   ADDRESS_PASS,,AUTO
        19 002751   201710 451500                    STP1    I+102,,AUTO
        19 002752   200253 633500                    EPPR3   ADDRESS_FOLDER,,AUTO
        19 002753   201707 453500                    STP3    I+101,,AUTO
        19 002754   200051 634500                    EPPR4   ADDRESS_NAME,,AUTO
        19 002755   201706 454500                    STP4    I+100,,AUTO
        19 002756   201706 630500                    EPPR0   I+100,,AUTO
PL6.E3A0      #001=VMO$MAIL File=VMO$MAIL.:VMB6TSI                               WED 08/20/97 15:19 Page:380
        19 002757   000026 631400 20                 EPPR1   22
        19 002760   000000 701000 xent               TSX1    VMA$ADD_UENTRY_SORTED
        19 002761   016514 702000 19                 TSX2    E_PMME

     2087    28245    6                         ADDRESS_PASS,ADDRESS_SITENAME) ALTRET(E_PMME);
     2088    28246    6                   END;

  28246 19 002762   002777 710000 19                 TRA     s:28252

     2089    28247    5                   ELSE           /* Store as resolved address */
     2090    28248    6                   DO;

     2091    28249    6                       CALL VMA$ADD_RENTRY_SORTED (ADDRESS_ACCT,ADDRESS_FOLDER,

  28249 19 002763   200262 630500                    EPPR0   ADDRESS_SITENAME,,AUTO
        19 002764   201711 450500                    STP0    I+103,,AUTO
        19 002765   200251 631500                    EPPR1   ADDRESS_PASS,,AUTO
        19 002766   201710 451500                    STP1    I+102,,AUTO
        19 002767   200253 633500                    EPPR3   ADDRESS_FOLDER,,AUTO
        19 002770   201707 453500                    STP3    I+101,,AUTO
        19 002771   200042 634500                    EPPR4   ADDRESS_ACCT,,AUTO
        19 002772   201706 454500                    STP4    I+100,,AUTO
        19 002773   201706 630500                    EPPR0   I+100,,AUTO
        19 002774   000026 631400 20                 EPPR1   22
        19 002775   000000 701000 xent               TSX1    VMA$ADD_RENTRY_SORTED
        19 002776   016514 702000 19                 TSX2    E_PMME

     2092    28250    6                         ADDRESS_PASS,ADDRESS_SITENAME) ALTRET(E_PMME);
     2093    28251    6                   END;

     2094    28252    5               END;                  /* Do INDX2 = ... End */

  28252 19 002777   000375 054000 11                 AOS     INDX2
        19 003000   200024 470500                    LDP0    BLK$,,AUTO
        19 003001   000001 236100                    LDQ     1,,PR0
        19 003002   000022 772000                    QRL     18
        19 003003   000375 116000 11                 CMPQ    INDX2
PL6.E3A0      #001=VMO$MAIL File=VMO$MAIL.:VMB6TSI                               WED 08/20/97 15:19 Page:381
        19 003004   002554 605400 19                 TPNZ    s:28188

     2095    28253        /*
     2096    28254             ***** Store the completed list ...
     2097    28255        */
     2098    28256    4               CALL VMA$PUT_LIST (VM_LISTKEY,VM_ADDLIST$,

  28256 19 003005   000202 630400 20                 EPPR0   130
        19 003006   000021 631400 20                 EPPR1   17
        19 003007   000000 701000 xent               TSX1    VMA$PUT_LIST
        19 003010   016514 702000 19                 TSX2    E_PMME

     2099    28257    4                 M$MAIL_FILE_NUM) ALTRET(E_PMME);
     2100    28258    4   CREATE_LIST_END:
     2101    28259    4           END;                       /* Do INDX1 = ... end */

  28259 19 003011   200033 054100       CREATE_LIST* AOS     INDX1,,AUTO
        19 003012   200023 470500                    LDP0    OUT$,,AUTO
        19 003013   000001 236100                    LDQ     1,,PR0
        19 003014   000022 772000                    QRL     18
        19 003015   200033 116100                    CMPQ    INDX1,,AUTO
        19 003016   002425 605400 19                 TPNZ    s:28141
        19 003017   016452 710000 19                 TRA     CONTINUE

     2102    28260        %EJECT;
PL6.E3A0      #001=VMO$MAIL File=VMO$MAIL.:VMB6TSI                               WED 08/20/97 15:19 Page:382
     2103    28261        /* Create user command */
     2104    28262    3       CASE(%CMD_CREATE_USER);

     2105    28263        /*
     2106    28264             ***** A user definition consists of two parts:
     2107    28265                   1) a definition of where the user's mailbox resides.
     2108    28266                   2) the logon (accn,uname) that uniquely identifies this user.
     2109    28267
     2110    28268                   The first part is stored just as a list definition,
     2111    28269                   except for a different key to identify it as a user
     2112    28270                   rather than a list. The second part is stored in a
     2113    28271                   seperate file, i.e. :NAME.:MAIL ...
     2114    28272
     2115    28273                   The address spec (part one) is stored in the global
     2116    28274                   folder. The user must use this folder in order to
     2117    28275                   create a user definition. Otherwise, error!!!
     2118    28276        */
     2119    28277        /*E*    ERROR: VMO-E$USEREXISTS-0
     2120    28278                MESSAGE: User %U1 already exists.
     2121    28279        */
     2122    28280    3           CALL NEED_GLOBAL ALTRET(CONTINUE);

  28280 19 003020   016577 701000 19                 TSX1    NEED_GLOBAL
        19 003021   016452 702000 19                 TSX2    CONTINUE

     2123    28281        /*
     2124    28282             ***** Check if this user already exists ...
     2125    28283        */
     2126    28284    3           VM_USERKEY.TEXT = OUT$ -> P$B.SUBLK$(0) -> P$S.TEXT;

  28284 19 003022   200023 470500                    LDP0    OUT$,,AUTO
        19 003023   000003 471500                    LDP1    3,,PR0
        19 003024   100004 236100                    LDQ     4,,PR1
        19 003025   000033 772000                    QRL     27
        19 003026   000000 620006                    EAX0    0,QL
        19 003027   040000 100540                    MLR     fill='040'O
        19 003030   100004 200010                    ADSC9   4,,PR1                   cn=1,n=*X0
PL6.E3A0      #001=VMO$MAIL File=VMO$MAIL.:VMB6TSI                               WED 08/20/97 15:19 Page:383
        19 003031   000722 400310 11                 ADSC9   VM_USERKEY               cn=2,n=200

     2127    28285        /*
     2128    28286             First see if the name is blank, blow him away is it is
     2129    28287        */
     2130    28288    3           IF VM_USERKEY.TEXT = ' '

  28288 19 003032   040000 106400                    CMPC    fill='040'O
        19 003033   000722 400310 11                 ADSC9   VM_USERKEY               cn=2,n=200
        19 003034   000035 000001 20                 ADSC9   29                       cn=0,n=1
        19 003035   003043 601000 19                 TNZ     s:28293

     2131    28289    4           THEN DO;

     2132    28290    4               CALL XUR$ERRMSG(E_BLANKUSER);

  28290 19 003036   000214 630400 20                 EPPR0   140
        19 003037   000024 631400 20                 EPPR1   20
        19 003040   000000 701000 xent               TSX1    XUR$ERRMSG
        19 003041   000000 011000                    NOP     0

     2133    28291    4               GOTO CONTINUE;

  28291 19 003042   016452 710000 19                 TRA     CONTINUE

     2134    28292    4           END;
     2135    28293    3           CALL VMA$GET_LIST (VM_USERKEY,VM_ADDLIST$,

  28293 19 003043   000206 630400 20                 EPPR0   134
        19 003044   000021 631400 20                 EPPR1   17
        19 003045   000000 701000 xent               TSX1    VMA$GET_LIST
        19 003046   003100 702000 19                 TSX2    E_CRUSER1

     2136    28294    3             M$MAIL_FILE_NUM) ALTRET(E_CRUSER1);
     2137    28295        /*
     2138    28296             ***** It does exist...
     2139    28297                   Bug!!!
PL6.E3A0      #001=VMO$MAIL File=VMO$MAIL.:VMB6TSI                               WED 08/20/97 15:19 Page:384
     2140    28298        */
     2141    28299    3           CALL XUR$ERRMSG (E_USEREXISTS,,,

  28299 19 003047   200023 470500                    LDP0    OUT$,,AUTO
        19 003050   000003 471500                    LDP1    3,,PR0
        19 003051   100003 473500                    LDP3    3,,PR1
        19 003052   000100 101500                    MRL     fill='000'O
        19 003053   300000 000001                    ADSC9   0,,PR3                   cn=0,n=1
        19 003054   201706 000002                    ADSC9   I+100,,AUTO              cn=0,n=2
        19 003055   201706 220100                    LDX0    I+100,,AUTO
        19 003056   000001 621010                    EAX1    1,X0
        19 003057   000000 635011                    EAA     0,X1
        19 003060   000002 771000                    ARL     2
        19 003061   000140 135007                    SBLA    96,DL
        19 003062   201707 453500                    STP3    I+101,,AUTO
        19 003063   201707 236100                    LDQ     I+101,,AUTO
        19 003064   201710 757100                    STAQ    I+102,,AUTO
        19 003065   201710 631500                    EPPR1   I+102,,AUTO
        19 003066   201715 451500                    STP1    I+107,,AUTO
        19 003067   000022 236000 20                 LDQ     18
        19 003070   201714 756100                    STQ     I+106,,AUTO
        19 003071   000211 235000 20                 LDA     137
        19 003072   201712 757100                    STAQ    I+104,,AUTO
        19 003073   201712 630500                    EPPR0   I+104,,AUTO
        19 003074   000026 631400 20                 EPPR1   22
        19 003075   000000 701000 xent               TSX1    XUR$ERRMSG
        19 003076   000000 011000                    NOP     0

     2142    28300    3             VECTOR(OUT$->P$B.SUBLK$(0)->P$S.TEXTC$->X$STRING));
     2143    28301    3           GOTO CREATE_USER_END2;

  28301 19 003077   003613 710000 19                 TRA     CREATE_USER_END2

  28300 19 003100                       E_CRUSER1    null
     2144    28302    3   E_CRUSER1: ;
     2145    28303        /*
     2146    28304             ***** Check if a list with this name exists ...
PL6.E3A0      #001=VMO$MAIL File=VMO$MAIL.:VMB6TSI                               WED 08/20/97 15:19 Page:385
     2147    28305        */
     2148    28306    3           VM_LISTKEY.TEXT = VM_USERKEY.TEXT;

  28306 19 003100   040000 100400                    MLR     fill='040'O
        19 003101   000722 400310 11                 ADSC9   VM_USERKEY               cn=2,n=200
        19 003102   000554 400310 11                 ADSC9   VM_LISTKEY               cn=2,n=200

     2149    28307    3           CALL VMA$GET_LIST (VM_LISTKEY,VM_ADDLIST$,

  28307 19 003103   000202 630400 20                 EPPR0   130
        19 003104   000021 631400 20                 EPPR1   17
        19 003105   000000 701000 xent               TSX1    VMA$GET_LIST
        19 003106   003140 702000 19                 TSX2    E_CRUSER2

     2150    28308    3             M$MAIL_FILE_NUM) ALTRET(E_CRUSER2);
     2151    28309        /*
     2152    28310             ***** It does exist...
     2153    28311                   Bug!!!
     2154    28312        */
     2155    28313    3           CALL XUR$ERRMSG (E_LISTEXISTS,,,

  28313 19 003107   200023 470500                    LDP0    OUT$,,AUTO
        19 003110   000003 471500                    LDP1    3,,PR0
        19 003111   100003 473500                    LDP3    3,,PR1
        19 003112   000100 101500                    MRL     fill='000'O
        19 003113   300000 000001                    ADSC9   0,,PR3                   cn=0,n=1
        19 003114   201706 000002                    ADSC9   I+100,,AUTO              cn=0,n=2
        19 003115   201706 220100                    LDX0    I+100,,AUTO
        19 003116   000001 621010                    EAX1    1,X0
        19 003117   000000 635011                    EAA     0,X1
        19 003120   000002 771000                    ARL     2
        19 003121   000140 135007                    SBLA    96,DL
        19 003122   201707 453500                    STP3    I+101,,AUTO
        19 003123   201707 236100                    LDQ     I+101,,AUTO
        19 003124   201710 757100                    STAQ    I+102,,AUTO
        19 003125   201710 631500                    EPPR1   I+102,,AUTO
        19 003126   201715 451500                    STP1    I+107,,AUTO
PL6.E3A0      #001=VMO$MAIL File=VMO$MAIL.:VMB6TSI                               WED 08/20/97 15:19 Page:386
        19 003127   000022 236000 20                 LDQ     18
        19 003130   201714 756100                    STQ     I+106,,AUTO
        19 003131   000205 235000 20                 LDA     133
        19 003132   201712 757100                    STAQ    I+104,,AUTO
        19 003133   201712 630500                    EPPR0   I+104,,AUTO
        19 003134   000026 631400 20                 EPPR1   22
        19 003135   000000 701000 xent               TSX1    XUR$ERRMSG
        19 003136   000000 011000                    NOP     0

     2156    28314    3             VECTOR(OUT$->P$B.SUBLK$(0)->P$S.TEXTC$->X$STRING));
     2157    28315    3           GOTO CREATE_USER_END2;

  28315 19 003137   003613 710000 19                 TRA     CREATE_USER_END2

  28306 19 003140                       E_CRUSER2    null
     2158    28316        /*
     2159    28317             ***** Ok to create the user ...
     2160    28318        */
     2161    28319    3   E_CRUSER2: ;
     2162    28320        /*
     2163    28321             ***** Open the reverse name map file ...
     2164    28322        */
     2165    28323    3           CALL XUR$DISABLE;

  28323 19 003140   000020 631400 20                 EPPR1   16
        19 003141   000000 701000 xent               TSX1    XUR$DISABLE
        19 003142   000000 011000                    NOP     0

     2166    28324    3           CALL M$OPEN (OPEN_NAME_MAP) ALTRET(E_PMME);

  28324 19 003143   000366 630400 12                 EPPR0   OPEN_NAME_MAP
        19 003144   450000 713400                    CLIMB   alt,open
        19 003145   410400 401760                    pmme    nvectors=18
        19 003146   016514 702000 19                 TSX2    E_PMME

     2167    28325        /*
     2168    28326             ***** Initialize VM_ADD_HEAD ...
PL6.E3A0      #001=VMO$MAIL File=VMO$MAIL.:VMB6TSI                               WED 08/20/97 15:19 Page:387
     2169    28327        */
     2170    28328    3           VM_ADD_HEAD.NUM_ENTRIES = 0;

  28328 19 003147   000000 470400 xsym               LDP0    VM_ADDLIST$
        19 003150   000001 450100                    STZ     1,,PR0

     2171    28329    4           DO INDX1 = 1 TO OUT$ -> P$B.NSUBLKS - 1;

  28329 19 003151   000001 235007                    LDA     1,DL
        19 003152   200033 755100                    STA     INDX1,,AUTO
        19 003153   003573 710000 19                 TRA     s:28450+1

     2172    28330    4               BLK$ = OUT$ -> P$B.SUBLK$(INDX1);

  28330 19 003154   200023 470500                    LDP0    OUT$,,AUTO
        19 003155   200033 720100                    LXL0    INDX1,,AUTO
        19 003156   000003 236110                    LDQ     3,X0,PR0
        19 003157   200024 756100                    STQ     BLK$,,AUTO

     2173    28331        /*
     2174    28332             ***** Initialize the address variables ...
     2175    28333        */
     2176    28334    4               ADDRESS_ACCT.ACCT# = ' ';

  28334 19 003160   000035 235000 20                 LDA     29
        19 003161   000035 236000 20                 LDQ     29
        19 003162   200042 757100                    STAQ    ADDRESS_ACCT,,AUTO

     2177    28335    4               ADDRESS_NAME.L# = 0;

  28335 19 003163   000000 236003                    LDQ     0,DU
        19 003164   200051 552140                    STBQ    ADDRESS_NAME,'40'O,AUTO

     2178    28336    4               ADDRESS_NAME.NAME# = ' ';

  28336 19 003165   040100 100400                    MLR     fill='040'O
        19 003166   000035 000001 20                 ADSC9   29                       cn=0,n=1
PL6.E3A0      #001=VMO$MAIL File=VMO$MAIL.:VMB6TSI                               WED 08/20/97 15:19 Page:388
        19 003167   200051 200777                    ADSC9   ADDRESS_NAME,,AUTO       cn=1,n=511

     2179    28337    4               ADDRESS_FOLDER = ' ';

  28337 19 003170   040100 100400                    MLR     fill='040'O
        19 003171   000035 000001 20                 ADSC9   29                       cn=0,n=1
        19 003172   200253 000031                    ADSC9   ADDRESS_FOLDER,,AUTO     cn=0,n=25

     2180    28338    4               ADDRESS_PASS.PASS# = ' ';

  28338 19 003173   000035 235000 20                 LDA     29
        19 003174   000035 236000 20                 LDQ     29
        19 003175   200251 755100                    STA     ADDRESS_PASS,,AUTO
        19 003176   200252 756100                    STQ     ADDRESS_PASS+1,,AUTO

     2181    28339    4               ADDRESS_SITENAME = VM_SITENAME;

  28339 19 003177   040100 100400                    MLR     fill='040'O
        19 003200   000000 000010 xsym               ADSC9   VM_SITENAME              cn=0,n=8
        19 003201   200262 000010                    ADSC9   ADDRESS_SITENAME,,AUTO   cn=0,n=8

     2182    28340    4               ADDRESS_LACCN.ACCT# = ' '; /* Logon accn */

  28340 19 003202   000035 235000 20                 LDA     29
        19 003203   000035 236000 20                 LDQ     29
        19 003204   200044 757100                    STAQ    ADDRESS_LACCN,,AUTO

     2183    28341    4               ADDRESS_LUNAME = ' '; /* Logon uname */

  28341 19 003205   040100 100400                    MLR     fill='040'O
        19 003206   000035 000001 20                 ADSC9   29                       cn=0,n=1
        19 003207   200046 000014                    ADSC9   ADDRESS_LUNAME,,AUTO     cn=0,n=12

     2184    28342    4               DOMAIN$ = ADDR(NIL);

  28342 19 003210   000022 236000 20                 LDQ     18
        19 003211   200264 756100                    STQ     DOMAIN$,,AUTO
PL6.E3A0      #001=VMO$MAIL File=VMO$MAIL.:VMB6TSI                               WED 08/20/97 15:19 Page:389

     2185    28343        /*
     2186    28344             ***** Repeat this loop once for each part of the definition ...
     2187    28345        */
     2188    28346    5               DO INDX2 = 0 TO BLK$ -> P$B.NSUBLKS - 1;

  28346 19 003212   000375 450000 11                 STZ     INDX2
        19 003213   003355 710000 19                 TRA     s:28376+1

     2189    28347    5                   PTR2$ = BLK$ -> P$B.SUBLK$(INDX2);

  28347 19 003214   200024 470500                    LDP0    BLK$,,AUTO
        19 003215   000375 720000 11                 LXL0    INDX2
        19 003216   000003 236110                    LDQ     3,X0,PR0
        19 003217   200026 756100                    STQ     PTR2$,,AUTO

     2190    28348    6                   DO CASE (PTR2$ -> P$B.CODE);

  28348 19 003220   200026 471500                    LDP1    PTR2$,,AUTO
        19 003221   100000 721100                    LXL1    0,,PR1
        19 003222   000010 101003                    CMPX1   8,DU
        19 003223   003225 602011 19                 TNC     s:28348+5,X1
        19 003224   003354 710000 19                 TRA     s:28376
        19 003225   003354 710000 19                 TRA     s:28376
        19 003226   003253 710000 19                 TRA     s:28357
        19 003227   003235 710000 19                 TRA     s:28350
        19 003230   003354 710000 19                 TRA     s:28376
        19 003231   003354 710000 19                 TRA     s:28376
        19 003232   003354 710000 19                 TRA     s:28376
        19 003233   003354 710000 19                 TRA     s:28376
        19 003234   003244 710000 19                 TRA     s:28352

     2191    28349    6                   CASE (%ADD_ACCT);

     2192    28350    6                       ADDRESS_LACCN.ACCT# = PTR2$ -> P$S.TEXT;

  28350 19 003235   100004 236100                    LDQ     4,,PR1
PL6.E3A0      #001=VMO$MAIL File=VMO$MAIL.:VMB6TSI                               WED 08/20/97 15:19 Page:390
        19 003236   000033 772000                    QRL     27
        19 003237   000000 622006                    EAX2    0,QL
        19 003240   040100 100540                    MLR     fill='040'O
        19 003241   100004 200012                    ADSC9   4,,PR1                   cn=1,n=*X2
        19 003242   200044 000010                    ADSC9   ADDRESS_LACCN,,AUTO      cn=0,n=8
        19 003243   003354 710000 19                 TRA     s:28376

     2193    28351    6                   CASE (%ADD_UNAME);

     2194    28352    6                       ADDRESS_LUNAME = PTR2$ -> P$S.TEXT;

  28352 19 003244   100004 236100                    LDQ     4,,PR1
        19 003245   000033 772000                    QRL     27
        19 003246   000000 622006                    EAX2    0,QL
        19 003247   040100 100540                    MLR     fill='040'O
        19 003250   100004 200012                    ADSC9   4,,PR1                   cn=1,n=*X2
        19 003251   200046 000014                    ADSC9   ADDRESS_LUNAME,,AUTO     cn=0,n=12
        19 003252   003354 710000 19                 TRA     s:28376

     2195    28353    6                   CASE (%ADD_ADDRESS);

     2196    28354                                                /*
     2197    28355                       ***** Repeat this loop once for each piece of the address ...
     2198    28356                       */
     2199    28357    7                       DO INDX3 = 0 TO PTR2$ -> P$B.NSUBLKS - 1;

  28357 19 003253   200034 450100                    STZ     INDX3,,AUTO
        19 003254   003347 710000 19                 TRA     s:28374+1

     2200    28358    7                           PTR3$ = PTR2$ -> P$B.SUBLK$(INDX3);

  28358 19 003255   200026 470500                    LDP0    PTR2$,,AUTO
        19 003256   200034 720100                    LXL0    INDX3,,AUTO
        19 003257   000003 236110                    LDQ     3,X0,PR0
        19 003260   200027 756100                    STQ     PTR3$,,AUTO

     2201    28359    8                           DO CASE (PTR3$ -> P$B.CODE);
PL6.E3A0      #001=VMO$MAIL File=VMO$MAIL.:VMB6TSI                               WED 08/20/97 15:19 Page:391

  28359 19 003261   200027 471500                    LDP1    PTR3$,,AUTO
        19 003262   100000 721100                    LXL1    0,,PR1
        19 003263   000012 101003                    CMPX1   10,DU
        19 003264   003266 602011 19                 TNC     s:28359+5,X1
        19 003265   003346 710000 19                 TRA     s:28374
        19 003266   003346 710000 19                 TRA     s:28374
        19 003267   003346 710000 19                 TRA     s:28374
        19 003270   003300 710000 19                 TRA     s:28361
        19 003271   003307 710000 19                 TRA     s:28363
        19 003272   003316 710000 19                 TRA     s:28365
        19 003273   003327 710000 19                 TRA     s:28368
        19 003274   003336 710000 19                 TRA     s:28370
        19 003275   003346 710000 19                 TRA     s:28374
        19 003276   003346 710000 19                 TRA     s:28374
        19 003277   003345 710000 19                 TRA     s:28372

     2202    28360    8                           CASE (%ADD_ACCT);

     2203    28361    8                               ADDRESS_ACCT.ACCT# = PTR3$ -> P$S.TEXT;

  28361 19 003300   100004 236100                    LDQ     4,,PR1
        19 003301   000033 772000                    QRL     27
        19 003302   000000 622006                    EAX2    0,QL
        19 003303   040100 100540                    MLR     fill='040'O
        19 003304   100004 200012                    ADSC9   4,,PR1                   cn=1,n=*X2
        19 003305   200042 000010                    ADSC9   ADDRESS_ACCT,,AUTO       cn=0,n=8
        19 003306   003346 710000 19                 TRA     s:28374

     2204    28362    8                           CASE (%ADD_FOLDER);

     2205    28363    8                               ADDRESS_FOLDER = PTR3$ -> P$S.TEXT;

  28363 19 003307   100004 236100                    LDQ     4,,PR1
        19 003310   000033 772000                    QRL     27
        19 003311   000000 622006                    EAX2    0,QL
        19 003312   040100 100540                    MLR     fill='040'O
PL6.E3A0      #001=VMO$MAIL File=VMO$MAIL.:VMB6TSI                               WED 08/20/97 15:19 Page:392
        19 003313   100004 200012                    ADSC9   4,,PR1                   cn=1,n=*X2
        19 003314   200253 000031                    ADSC9   ADDRESS_FOLDER,,AUTO     cn=0,n=25
        19 003315   003346 710000 19                 TRA     s:28374

     2206    28364    8                           CASE (%ADD_NAME);

     2207    28365    8                               ADDRESS_NAME.NAME# = PTR3$ -> P$S.TEXT;

  28365 19 003316   100004 236100                    LDQ     4,,PR1
        19 003317   000033 772000                    QRL     27
        19 003320   000000 622006                    EAX2    0,QL
        19 003321   040100 100540                    MLR     fill='040'O
        19 003322   100004 200012                    ADSC9   4,,PR1                   cn=1,n=*X2
        19 003323   200051 200777                    ADSC9   ADDRESS_NAME,,AUTO       cn=1,n=511

     2208    28366    8                               ADDRESS_NAME.L# = PTR3$ -> P$S.COUNT;

  28366 19 003324   100004 236100                    LDQ     4,,PR1
        19 003325   200051 552140                    STBQ    ADDRESS_NAME,'40'O,AUTO
        19 003326   003346 710000 19                 TRA     s:28374

     2209    28367    8                           CASE (%ADD_PASS);

     2210    28368    8                               ADDRESS_PASS.PASS# = PTR3$ -> P$S.TEXT;

  28368 19 003327   100004 236100                    LDQ     4,,PR1
        19 003330   000033 772000                    QRL     27
        19 003331   000000 622006                    EAX2    0,QL
        19 003332   040100 100540                    MLR     fill='040'O
        19 003333   100004 200012                    ADSC9   4,,PR1                   cn=1,n=*X2
        19 003334   200251 000010                    ADSC9   ADDRESS_PASS,,AUTO       cn=0,n=8
        19 003335   003346 710000 19                 TRA     s:28374

     2211    28369    8                           CASE (%ADD_SITE);

     2212    28370    8                               ADDRESS_SITENAME = PTR3$ -> P$S.TEXT;

PL6.E3A0      #001=VMO$MAIL File=VMO$MAIL.:VMB6TSI                               WED 08/20/97 15:19 Page:393
  28370 19 003336   100004 236100                    LDQ     4,,PR1
        19 003337   000033 772000                    QRL     27
        19 003340   000000 622006                    EAX2    0,QL
        19 003341   040100 100540                    MLR     fill='040'O
        19 003342   100004 200012                    ADSC9   4,,PR1                   cn=1,n=*X2
        19 003343   200262 000010                    ADSC9   ADDRESS_SITENAME,,AUTO   cn=0,n=8
        19 003344   003346 710000 19                 TRA     s:28374

     2213    28371    8                           CASE (%ADD_DOMAIN);

     2214    28372    8                               DOMAIN$ = PTR3$;

  28372 19 003345   200264 756100                    STQ     DOMAIN$,,AUTO

     2215    28373    8                           END; /* Do case ... end */

     2216    28374    7                       END;      /* Do INDX3 = ... end */

  28374 19 003346   200034 054100                    AOS     INDX3,,AUTO
        19 003347   200026 470500                    LDP0    PTR2$,,AUTO
        19 003350   000001 236100                    LDQ     1,,PR0
        19 003351   000022 772000                    QRL     18
        19 003352   200034 116100                    CMPQ    INDX3,,AUTO
        19 003353   003255 605400 19                 TPNZ    s:28358

     2217    28375    6                   END;            /* Do CASE(PTR2$) */

     2218    28376    5               END;                  /* Do INDX2 */

  28376 19 003354   000375 054000 11                 AOS     INDX2
        19 003355   200024 470500                    LDP0    BLK$,,AUTO
        19 003356   000001 236100                    LDQ     1,,PR0
        19 003357   000022 772000                    QRL     18
        19 003360   000375 116000 11                 CMPQ    INDX2
        19 003361   003214 605400 19                 TPNZ    s:28347

     2219    28377    4               CALL TRANSFORM_DOMAIN (DOMAIN$, ADDRESS_SITENAME, ADDRESS_NAME)
PL6.E3A0      #001=VMO$MAIL File=VMO$MAIL.:VMB6TSI                               WED 08/20/97 15:19 Page:394

  28377 19 003362   200051 631500                    EPPR1   ADDRESS_NAME,,AUTO
        19 003363   201121 451500                    STP1    @SITENAME+1,,AUTO
        19 003364   200262 633500                    EPPR3   ADDRESS_SITENAME,,AUTO
        19 003365   201120 453500                    STP3    @EXPLICIT+1,,AUTO
        19 003366   200264 634500                    EPPR4   DOMAIN$,,AUTO
        19 003367   201117 454500                    STP4    @CURR_COMMAND_CODE+2,,AUTO
        19 003370   024636 701000 19                 TSX1    TRANSFORM_DOMAIN
        19 003371   003604 702000 19                 TSX2    CREATE_USER_END

     2220    28378    4                 ALTRET (CREATE_USER_END);
     2221    28379        /*
     2222    28380             ***** Fill in default values ...
     2223    28381        */
     2224    28382    4               IF ADDRESS_ACCT.ACCT# = ' '

  28382 19 003372   200042 237100                    LDAQ    ADDRESS_ACCT,,AUTO
        19 003373   000212 117000 20                 CMPAQ   138
        19 003374   003400 601000 19                 TNZ     s:28385

     2225    28383    4               THEN
     2226    28384    4                   ADDRESS_ACCT.ACCT# = ADDRESS_LACCN.ACCT#;

  28384 19 003375   200044 237100                    LDAQ    ADDRESS_LACCN,,AUTO
        19 003376   200042 757100                    STAQ    ADDRESS_ACCT,,AUTO
        19 003377   003405 710000 19                 TRA     s:28390

     2227    28385    4               ELSE IF ADDRESS_LACCN.ACCT# = ' ' THEN

  28385 19 003400   200044 237100                    LDAQ    ADDRESS_LACCN,,AUTO
        19 003401   000212 117000 20                 CMPAQ   138
        19 003402   003405 601000 19                 TNZ     s:28390

     2228    28386    4                       ADDRESS_LACCN.ACCT# = ADDRESS_ACCT.ACCT#;

  28386 19 003403   200042 237100                    LDAQ    ADDRESS_ACCT,,AUTO
        19 003404   200044 757100                    STAQ    ADDRESS_LACCN,,AUTO
PL6.E3A0      #001=VMO$MAIL File=VMO$MAIL.:VMB6TSI                               WED 08/20/97 15:19 Page:395

     2229    28387        /*
     2230    28388             ***** Store the reverse name map info if available ...
     2231    28389        */
     2232    28390    4               IF ADDRESS_LACCN.ACCT# ~= ' '

  28390 19 003405   200044 237100                    LDAQ    ADDRESS_LACCN,,AUTO
        19 003406   000212 117000 20                 CMPAQ   138
        19 003407   003525 600000 19                 TZE     s:28426
        19 003410   040000 106500                    CMPC    fill='040'O
        19 003411   200262 000010                    ADSC9   ADDRESS_SITENAME,,AUTO   cn=0,n=8
        19 003412   000000 000010 xsym               ADSC9   VM_SITENAME              cn=0,n=8
        19 003413   003417 600000 19                 TZE     s:28395
        19 003414   200262 237100                    LDAQ    ADDRESS_SITENAME,,AUTO
        19 003415   000212 117000 20                 CMPAQ   138
        19 003416   003525 601000 19                 TNZ     s:28426

     2233    28391    4                 AND (ADDRESS_SITENAME = VM_SITENAME
     2234    28392    4                 OR ADDRESS_SITENAME = ' ')
     2235    28393    4               THEN                 /* Info avail */
     2236    28394    5               DO;

     2237    28395    5                   CALL CONCAT (NAME_KEY.NAME#,ADDRESS_LACCN.ACCT#,

  28395 19 003417   040000 100500                    MLR     fill='040'O
        19 003420   200044 000010                    ADSC9   ADDRESS_LACCN,,AUTO      cn=0,n=8
        19 003421   002402 200010 11                 ADSC9   NAME_KEY                 cn=1,n=8
        19 003422   040000 100500                    MLR     fill='040'O
        19 003423   200046 000014                    ADSC9   ADDRESS_LUNAME,,AUTO     cn=0,n=12
        19 003424   002404 200014 11                 ADSC9   NAME_KEY+2               cn=1,n=12

     2238    28396    5                     ADDRESS_LUNAME);
     2239    28397    5                   NAME_KEY.L# = 20;

  28397 19 003425   024000 236003                    LDQ     10240,DU
        19 003426   002402 552040 11                 STBQ    NAME_KEY,'40'O

PL6.E3A0      #001=VMO$MAIL File=VMO$MAIL.:VMB6TSI                               WED 08/20/97 15:19 Page:396
     2240    28398    5                   WRITE_NAME_MAP.BUF_ = VECTOR(OUT$ -> P$B.SUBLK$(0)

  28398 19 003427   200023 470500                    LDP0    OUT$,,AUTO
        19 003430   000003 471500                    LDP1    3,,PR0
        19 003431   100004 236100                    LDQ     4,,PR1
        19 003432   000033 772000                    QRL     27
        19 003433   000064 737000                    LLS     52
        19 003434   000140 135007                    SBLA    96,DL
        19 003435   201706 451500                    STP1    I+100,,AUTO
        19 003436   201706 236100                    LDQ     I+100,,AUTO
        19 003437   000215 036000 20                 ADLQ    141
        19 003440   002372 757000 11                 STAQ    WRITE_NAME_MAP+4

     2241    28399    5                     -> P$S.TEXT);
     2242    28400        /*
     2243    28401             ***** Check if this NAME_MAP entry already exists.
     2244    28402                   If it does, then error!!!
     2245    28403        */
     2246    28404    5                   CALL M$READ (READ_NAME_MAP)

  28404 19 003441   000472 630400 12                 EPPR0   READ_NAME_MAP
        19 003442   440000 713400                    CLIMB   alt,read
        19 003443   401400 401760                    pmme    nvectors=4
        19 003444   003520 702000 19                 TSX2    s:28422

     2247    28405    5                   WHENRETURN
     2248    28406    6                   DO;

     2249    28407    6                       IF OUT$->P$B.SUBLK$(0)->P$S.TEXT ~= SUBSTR(WORK_STRING.NAME#,

  28407 19 003445   200023 470500                    LDP0    OUT$,,AUTO
        19 003446   000003 471500                    LDP1    3,,PR0
        19 003447   100004 236100                    LDQ     4,,PR1
        19 003450   000033 772000                    QRL     27
        19 003451   000000 620006                    EAX0    0,QL
        19 003452   000000 236007 xsym               LDQ     M$NAME,DL
        19 003453   000074 473400 20                 LDP3    60
PL6.E3A0      #001=VMO$MAIL File=VMO$MAIL.:VMB6TSI                               WED 08/20/97 15:19 Page:397
        19 003454   300000 474500                    LDP4    0,,PR3
        19 003455   400000 475506                    LDP5    0,QL,PR4
        19 003456   500000 721100                    LXL1    0,,PR5
        19 003457   040040 106540                    CMPC    fill='040'O
        19 003460   100004 200010                    ADSC9   4,,PR1                   cn=1,n=*X0
        19 003461   000174 200011 11                 ADSC9   WORK_STRING              cn=1,n=*X1
        19 003462   003520 600000 19                 TZE     s:28422

     2250    28408    6                         0, DCBADDR(DCBNUM(M$NAME)) -> F$DCB.ARS#)
     2251    28409    7                       THEN DO;

     2252    28410    7                           IF DCBADDR(DCBNUM(M$NAME)) -> F$DCB.ARS# <= 31

  28410 19 003463   000000 236007 xsym               LDQ     M$NAME,DL
        19 003464   400000 475506                    LDP5    0,QL,PR4
        19 003465   500000 235100                    LDA     0,,PR5
        19 003466   000037 115007                    CMPA    31,DL
        19 003467   003476 605400 19                 TPNZ    s:28414

     2253    28411    7                           THEN
     2254    28412    7                               WORK_STRING.L# = DCBADDR(DCBNUM(M$NAME)) -> F$DCB.ARS#;

  28412 19 003470   000000 236007 xsym               LDQ     M$NAME,DL
        19 003471   400000 475506                    LDP5    0,QL,PR4
        19 003472   500000 236100                    LDQ     0,,PR5
        19 003473   000033 736000                    QLS     27
        19 003474   000174 552040 11                 STBQ    WORK_STRING,'40'O
        19 003475   003503 710000 19                 TRA     s:28417

     2255    28413    8                           ELSE DO;

     2256    28414    8                               WORK_STRING.L# = 31;

  28414 19 003476   037000 236003                    LDQ     15872,DU
        19 003477   000174 552040 11                 STBQ    WORK_STRING,'40'O

     2257    28415    8                               SUBSTR (WORK_STRING.NAME#,28,3) = '...';
PL6.E3A0      #001=VMO$MAIL File=VMO$MAIL.:VMB6TSI                               WED 08/20/97 15:19 Page:398

  28415 19 003500   001362 236000 12                 LDQ     VM_PROKEY+5
        19 003501   000011 772000                    QRL     9
        19 003502   000203 552034 11                 STBQ    WORK_STRING+7,'34'O

     2258    28416    8                           END;

     2259    28417    7                           CALL XUR$ERRMSG (E_NMENTRYEXISTS,,,

  28417 19 003503   000175 236000 20                 LDQ     125
        19 003504   201712 756100                    STQ     I+104,,AUTO
        19 003505   000220 236000 20                 LDQ     144
        19 003506   000022 235000 20                 LDA     18
        19 003507   201710 757100                    STAQ    I+102,,AUTO
        19 003510   000022 236000 20                 LDQ     18
        19 003511   000221 235000 20                 LDA     145
        19 003512   201706 757100                    STAQ    I+100,,AUTO
        19 003513   201706 630500                    EPPR0   I+100,,AUTO
        19 003514   000041 631400 20                 EPPR1   33
        19 003515   000000 701000 xent               TSX1    XUR$ERRMSG
        19 003516   000000 011000                    NOP     0

     2260    28418    7                             VECTOR(NAME_KEY),VECTOR(WORK_STRING));
     2261    28419    7                           GOTO CREATE_USER_END;

  28419 19 003517   003604 710000 19                 TRA     CREATE_USER_END

     2262    28420    7                       END;
     2263    28421    6                   END;
     2264    28422    5                   CALL M$WRITE (WRITE_NAME_MAP) ALTRET(E_PMME);

  28422 19 003520   002366 630400 11                 EPPR0   WRITE_NAME_MAP
        19 003521   440001 713400                    CLIMB   alt,write
        19 003522   401400 401760                    pmme    nvectors=4
        19 003523   016514 702000 19                 TSX2    E_PMME

     2265    28423    5               END;
PL6.E3A0      #001=VMO$MAIL File=VMO$MAIL.:VMB6TSI                               WED 08/20/97 15:19 Page:399

  28423 19 003524   003532 710000 19                 TRA     ITS_OK

     2266    28424    4               ELSE
     2267    28425    5               DO;

     2268    28426    5                   NAME_KEY.L# = 0;

  28426 19 003525   000000 236003                    LDQ     0,DU
        19 003526   002402 552040 11                 STBQ    NAME_KEY,'40'O

     2269    28427    5                   NAME_KEY.NAME# = ' ';

  28427 19 003527   040000 100400                    MLR     fill='040'O
        19 003530   000035 000001 20                 ADSC9   29                       cn=0,n=1
        19 003531   002402 200024 11                 ADSC9   NAME_KEY                 cn=1,n=20

     2270    28428    5               END;

     2271    28429        /*
     2272    28430             ***** Add this entry to the user list ...
     2273    28431        */
     2274    28432    4   ITS_OK:     IF ADDRESS_NAME.L# ~= 0

  28432 19 003532   200051 236100       ITS_OK       LDQ     ADDRESS_NAME,,AUTO
        19 003533   777000 316003                    CANQ    -512,DU
        19 003534   003554 600000 19                 TZE     s:28442

     2275    28433    4               THEN                 /* Store as unresolved address */
     2276    28434    5               DO;

     2277    28435    5                   CALL VMA$ADD_UENTRY_SORTED (ADDRESS_NAME,

  28435 19 003535   000222 237000 20                 LDAQ    146
        19 003536   201712 757100                    STAQ    I+104,,AUTO
        19 003537   200262 630500                    EPPR0   ADDRESS_SITENAME,,AUTO
        19 003540   201711 450500                    STP0    I+103,,AUTO
PL6.E3A0      #001=VMO$MAIL File=VMO$MAIL.:VMB6TSI                               WED 08/20/97 15:19 Page:400
        19 003541   200251 631500                    EPPR1   ADDRESS_PASS,,AUTO
        19 003542   201710 451500                    STP1    I+102,,AUTO
        19 003543   200253 633500                    EPPR3   ADDRESS_FOLDER,,AUTO
        19 003544   201707 453500                    STP3    I+101,,AUTO
        19 003545   200051 634500                    EPPR4   ADDRESS_NAME,,AUTO
        19 003546   201706 454500                    STP4    I+100,,AUTO
        19 003547   201706 630500                    EPPR0   I+100,,AUTO
        19 003550   000130 631400 20                 EPPR1   88
        19 003551   000000 701000 xent               TSX1    VMA$ADD_UENTRY_SORTED
        19 003552   016514 702000 19                 TSX2    E_PMME

     2278    28436    5                     ADDRESS_FOLDER,
     2279    28437    5                     ADDRESS_PASS,ADDRESS_SITENAME,%NO#,NAME_KEY.
     2280    28438    5                     NAME#) ALTRET(E_PMME);
     2281    28439    5               END;

  28439 19 003553   003572 710000 19                 TRA     s:28450

     2282    28440    4               ELSE                 /* Store as resolved address */
     2283    28441    5               DO;

     2284    28442    5                   CALL VMA$ADD_RENTRY_SORTED (ADDRESS_ACCT,

  28442 19 003554   000222 237000 20                 LDAQ    146
        19 003555   201712 757100                    STAQ    I+104,,AUTO
        19 003556   200262 630500                    EPPR0   ADDRESS_SITENAME,,AUTO
        19 003557   201711 450500                    STP0    I+103,,AUTO
        19 003560   200251 631500                    EPPR1   ADDRESS_PASS,,AUTO
        19 003561   201710 451500                    STP1    I+102,,AUTO
        19 003562   200253 633500                    EPPR3   ADDRESS_FOLDER,,AUTO
        19 003563   201707 453500                    STP3    I+101,,AUTO
        19 003564   200042 634500                    EPPR4   ADDRESS_ACCT,,AUTO
        19 003565   201706 454500                    STP4    I+100,,AUTO
        19 003566   201706 630500                    EPPR0   I+100,,AUTO
        19 003567   000130 631400 20                 EPPR1   88
        19 003570   000000 701000 xent               TSX1    VMA$ADD_RENTRY_SORTED
        19 003571   016514 702000 19                 TSX2    E_PMME
PL6.E3A0      #001=VMO$MAIL File=VMO$MAIL.:VMB6TSI                               WED 08/20/97 15:19 Page:401

     2285    28443    5                     ADDRESS_FOLDER,
     2286    28444    5                     ADDRESS_PASS,ADDRESS_SITENAME,%NO#,NAME_KEY.
     2287    28445    5                     NAME#) ALTRET(E_PMME);
     2288    28446    5               END;

     2289    28447        /*
     2290    28448             ***** Store the completed list ...
     2291    28449        */
     2292    28450    4           END;

  28450 19 003572   200033 054100                    AOS     INDX1,,AUTO
        19 003573   200023 470500                    LDP0    OUT$,,AUTO
        19 003574   000001 236100                    LDQ     1,,PR0
        19 003575   000022 772000                    QRL     18
        19 003576   200033 116100                    CMPQ    INDX1,,AUTO
        19 003577   003154 605400 19                 TPNZ    s:28330

     2293    28451    3           CALL VMA$PUT_LIST (VM_USERKEY,VM_ADDLIST$,M$MAIL_FILE_NUM)

  28451 19 003600   000206 630400 20                 EPPR0   134
        19 003601   000021 631400 20                 EPPR1   17
        19 003602   000000 701000 xent               TSX1    VMA$PUT_LIST
        19 003603   016514 702000 19                 TSX2    E_PMME

     2294    28452    3             ALTRET(E_PMME);
     2295    28453    3   CREATE_USER_END:
     2296    28454    3           CLOSE_SAVE.V.DCB# = DCBNUM(M$NAME);

  28454 19 003604   000000 236007 xsym  CREATE_USER* LDQ     M$NAME,DL
        19 003605   000000 620006                    EAX0    0,QL
        19 003606   002142 740000 11                 STX0    CLOSE_SAVE+26

     2297    28455    3           CALL M$CLOSE (CLOSE_SAVE) ALTRET(E_PMME);

  28455 19 003607   002110 630400 11                 EPPR0   CLOSE_SAVE
        19 003610   450001 713400                    CLIMB   alt,close
PL6.E3A0      #001=VMO$MAIL File=VMO$MAIL.:VMB6TSI                               WED 08/20/97 15:19 Page:402
        19 003611   406000 401760                    pmme    nvectors=13
        19 003612   016514 702000 19                 TSX2    E_PMME

     2298    28456    3   CREATE_USER_END2:
     2299    28457    3           CALL XUR$ENABLE;

  28457 19 003613   000020 631400 20    CREATE_USER* EPPR1   16
        19 003614   000000 701000 xent               TSX1    XUR$ENABLE
        19 003615   000000 011000                    NOP     0
        19 003616   016452 710000 19                 TRA     CONTINUE

     2300    28458        %EJECT;
PL6.E3A0      #001=VMO$MAIL File=VMO$MAIL.:VMB6TSI                               WED 08/20/97 15:19 Page:403
     2301    28459        /* Delete folder command */
     2302    28460    3       CASE (%CMD_DELETE_FOLDER);

     2303    28461        /*
     2304    28462             ***** Look at folders in the user's file directory acct ...
     2305    28463        */
     2306    28464    3           INDX2 = 0;                  /* Used as counter */

  28464 19 003617   000375 450000 11                 STZ     INDX2

     2307    28465    3           VM_RADDRESS.ACCT = VM_CENTRAL_FOLDER.ACCT;

  28465 19 003620   040100 100400                    MLR     fill='040'O
        19 003621   001135 400010 11                 ADSC9   VM_CENTRAL_FOLDER+1      cn=2,n=8
        19 003622   200772 600010                    ADSC9   VM_RADDRESS+17,,AUTO     cn=3,n=8

     2308    28466    3           VM_RADDRESS.FOLDER = 'CENTRAL';   /* Default is CENTRAL folder */

  28466 19 003623   040100 100400                    MLR     fill='040'O
        19 003624   001360 000007 12                 ADSC9   VM_PROKEY+3              cn=0,n=7
        19 003625   200760 400031                    ADSC9   VM_RADDRESS+7,,AUTO      cn=2,n=25

     2309    28467    3           VM_RADDRESS.PASS = ' ';

  28467 19 003626   040100 100400                    MLR     fill='040'O
        19 003627   000035 000001 20                 ADSC9   29                       cn=0,n=1
        19 003630   200766 600010                    ADSC9   VM_RADDRESS+13,,AUTO     cn=3,n=8

     2310    28468    3           VM_RADDRESS.SITENAME = ' ';

  28468 19 003631   040100 100400                    MLR     fill='040'O
        19 003632   000035 000001 20                 ADSC9   29                       cn=0,n=1
        19 003633   200770 600010                    ADSC9   VM_RADDRESS+15,,AUTO     cn=3,n=8

     2311    28469    3           VM_RADDRESS.TYPE = %VM_ADD_RESOLVED;

  28469 19 003634   000001 236003                    LDQ     1,DU
PL6.E3A0      #001=VMO$MAIL File=VMO$MAIL.:VMB6TSI                               WED 08/20/97 15:19 Page:404
        19 003635   200753 552120                    STBQ    VM_RADDRESS+2,'20'O,AUTO

     2312    28470    3           IF OUT$ -> P$B.NSUBLKS ~= 0

  28470 19 003636   200023 474500                    LDP4    OUT$,,AUTO
        19 003637   400001 220100                    LDX0    1,,PR4
        19 003640   003723 600000 19                 TZE     s:28493

     2313    28471    3           THEN
     2314    28472    4           DO;                    /* Pick up options */

     2315    28473    4               BLK$ = OUT$ -> P$B.SUBLK$(0);

  28473 19 003641   400003 236100                    LDQ     3,,PR4
        19 003642   200024 756100                    STQ     BLK$,,AUTO

     2316    28474        /*
     2317    28475             ***** Repeat this loop once for each piece of the address ...
     2318    28476        */
     2319    28477    5               DO INDX1 = 0 TO BLK$ -> P$B.NSUBLKS - 1;

  28477 19 003643   200033 450100                    STZ     INDX1,,AUTO
        19 003644   003716 710000 19                 TRA     s:28490+1

     2320    28478    5                   PTR1$ = BLK$ -> P$B.SUBLK$(INDX1);

  28478 19 003645   200024 470500                    LDP0    BLK$,,AUTO
        19 003646   200033 720100                    LXL0    INDX1,,AUTO
        19 003647   000003 236110                    LDQ     3,X0,PR0
        19 003650   200025 756100                    STQ     PTR1$,,AUTO

     2321    28479    6                   DO CASE (PTR1$ -> P$B.CODE);

  28479 19 003651   200025 471500                    LDP1    PTR1$,,AUTO
        19 003652   100000 721100                    LXL1    0,,PR1
        19 003653   000006 101003                    CMPX1   6,DU
        19 003654   003656 602011 19                 TNC     s:28479+5,X1
PL6.E3A0      #001=VMO$MAIL File=VMO$MAIL.:VMB6TSI                               WED 08/20/97 15:19 Page:405
        19 003655   003715 710000 19                 TRA     s:28490
        19 003656   003715 710000 19                 TRA     s:28490
        19 003657   003715 710000 19                 TRA     s:28490
        19 003660   003664 710000 19                 TRA     s:28481
        19 003661   003673 710000 19                 TRA     s:28483
        19 003662   003702 710000 19                 TRA     s:28485
        19 003663   003707 710000 19                 TRA     s:28488

     2322    28480    6                   CASE (%ADD_ACCT);

     2323    28481    6                       VM_RADDRESS.ACCT = PTR1$ -> P$S.TEXT;

  28481 19 003664   100004 236100                    LDQ     4,,PR1
        19 003665   000033 772000                    QRL     27
        19 003666   000000 622006                    EAX2    0,QL
        19 003667   040100 100540                    MLR     fill='040'O
        19 003670   100004 200012                    ADSC9   4,,PR1                   cn=1,n=*X2
        19 003671   200772 600010                    ADSC9   VM_RADDRESS+17,,AUTO     cn=3,n=8
        19 003672   003715 710000 19                 TRA     s:28490

     2324    28482    6                   CASE (%ADD_FOLDER);

     2325    28483    6                       VM_RADDRESS.FOLDER = PTR1$ -> P$S.TEXT;

  28483 19 003673   100004 236100                    LDQ     4,,PR1
        19 003674   000033 772000                    QRL     27
        19 003675   000000 622006                    EAX2    0,QL
        19 003676   040100 100540                    MLR     fill='040'O
        19 003677   100004 200012                    ADSC9   4,,PR1                   cn=1,n=*X2
        19 003700   200760 400031                    ADSC9   VM_RADDRESS+7,,AUTO      cn=2,n=25
        19 003701   003715 710000 19                 TRA     s:28490

     2326    28484    6                   CASE (%ADD_NAME);

     2327    28485    6                       CALL XUR$ERRMSG (E_NAMENTALLOWED);

  28485 19 003702   000166 630400 20                 EPPR0   118
PL6.E3A0      #001=VMO$MAIL File=VMO$MAIL.:VMB6TSI                               WED 08/20/97 15:19 Page:406
        19 003703   000024 631400 20                 EPPR1   20
        19 003704   000000 701000 xent               TSX1    XUR$ERRMSG
        19 003705   000000 011000                    NOP     0

     2328    28486    6                       GOTO CONTINUE;

  28486 19 003706   016452 710000 19                 TRA     CONTINUE

     2329    28487    6                   CASE (%ADD_PASS);

     2330    28488    6                       VM_RADDRESS.PASS = PTR1$ -> P$S.TEXT;

  28488 19 003707   100004 236100                    LDQ     4,,PR1
        19 003710   000033 772000                    QRL     27
        19 003711   000000 622006                    EAX2    0,QL
        19 003712   040100 100540                    MLR     fill='040'O
        19 003713   100004 200012                    ADSC9   4,,PR1                   cn=1,n=*X2
        19 003714   200766 600010                    ADSC9   VM_RADDRESS+13,,AUTO     cn=3,n=8

     2331    28489    6                   END;       /* Do case ... end */

     2332    28490    5               END;             /* Do INDX1 = ... end */

  28490 19 003715   200033 054100                    AOS     INDX1,,AUTO
        19 003716   200024 470500                    LDP0    BLK$,,AUTO
        19 003717   000001 236100                    LDQ     1,,PR0
        19 003720   000022 772000                    QRL     18
        19 003721   200033 116100                    CMPQ    INDX1,,AUTO
        19 003722   003645 605400 19                 TPNZ    s:28478

     2333    28491    4           END;                  /* Pick up options */

     2334    28492        /**/
     2335    28493    3           IF VM_CURRENT_FOLDER.ACCT = VM_RADDRESS.ACCT

  28493 19 003723   040100 106400                    CMPC    fill='040'O
        19 003724   001244 400010 11                 ADSC9   VM_CURRENT_FOLDER+1      cn=2,n=8
PL6.E3A0      #001=VMO$MAIL File=VMO$MAIL.:VMB6TSI                               WED 08/20/97 15:19 Page:407
        19 003725   200772 600010                    ADSC9   VM_RADDRESS+17,,AUTO     cn=3,n=8
        19 003726   003740 601000 19                 TNZ     s:28499
        19 003727   040100 106400                    CMPC    fill='040'O
        19 003730   001246 400031 11                 ADSC9   VM_CURRENT_FOLDER+3      cn=2,n=25
        19 003731   200760 400031                    ADSC9   VM_RADDRESS+7,,AUTO      cn=2,n=25
        19 003732   003740 601000 19                 TNZ     s:28499

     2336    28494    3             AND VM_CURRENT_FOLDER.FOLDER = VM_RADDRESS.FOLDER
     2337    28495    4           THEN DO;

     2338    28496    4               CALL XUR$ERRMSG (E_CANTDELCUR);

  28496 19 003733   000224 630400 20                 EPPR0   148
        19 003734   000024 631400 20                 EPPR1   20
        19 003735   000000 701000 xent               TSX1    XUR$ERRMSG
        19 003736   000000 011000                    NOP     0

     2339    28497    4               GOTO CONTINUE;

  28497 19 003737   016452 710000 19                 TRA     CONTINUE

     2340    28498    4           END;
     2341    28499    3           FID_ACCT.ACCT# = VM_RADDRESS.ACCT;

  28499 19 003740   040000 100500                    MLR     fill='040'O
        19 003741   200772 600010                    ADSC9   VM_RADDRESS+17,,AUTO     cn=3,n=8
        19 003742   002215 000010 11                 ADSC9   FID_ACCT                 cn=0,n=8

     2342    28500    3           FID_PASS.PASS# = VM_RADDRESS.PASS;

  28500 19 003743   040000 100500                    MLR     fill='040'O
        19 003744   200766 600010                    ADSC9   VM_RADDRESS+13,,AUTO     cn=3,n=8
        19 003745   002217 000010 11                 ADSC9   FID_PASS                 cn=0,n=8

     2343    28501    3           CLOSE_SCRATCH.V.DCB# = M$WORK_NUM;

  28501 19 003746   000000 720000 xsym               LXL0    M$WORK_NUM
PL6.E3A0      #001=VMO$MAIL File=VMO$MAIL.:VMB6TSI                               WED 08/20/97 15:19 Page:408
        19 003747   002200 740000 11                 STX0    CLOSE_SCRATCH+26

     2344    28502        /*
     2345    28503             ***** Wildcard specified ???
     2346    28504        */
     2347    28505    3           IF VM_RADDRESS.FOLDER = 'CENTRAL'

  28505 19 003750   040000 106500                    CMPC    fill='040'O
        19 003751   200760 400031                    ADSC9   VM_RADDRESS+7,,AUTO      cn=2,n=25
        19 003752   001360 000007 12                 ADSC9   VM_PROKEY+3              cn=0,n=7
        19 003753   003757 601000 19                 TNZ     s:28508

     2348    28506    3           THEN                       /* Supply name of central folder */
     2349    28507    3               VM_RADDRESS.FOLDER = VM_CENTRAL_FOLDER.FOLDER;

  28507 19 003754   040100 100400                    MLR     fill='040'O
        19 003755   001137 400031 11                 ADSC9   VM_CENTRAL_FOLDER+3      cn=2,n=25
        19 003756   200760 400031                    ADSC9   VM_RADDRESS+7,,AUTO      cn=2,n=25

     2350    28508    3           WILDCARD_PATTERN = VM_RADDRESS.FOLDER;

  28508 19 003757   040100 100500                    MLR     fill='040'O
        19 003760   200760 400031                    ADSC9   VM_RADDRESS+7,,AUTO      cn=2,n=25
        19 003761   200014 000031                    ADSC9   WILDCARD_PATTERN,,AUTO   cn=0,n=25

     2351    28509    3           CALL INDEX(INDX1,'?',WILDCARD_PATTERN)

  28509 19 003762   000000 124500                    SCM     mask='000'O
        19 003763   200014 000031                    ADSC9   WILDCARD_PATTERN,,AUTO   cn=0,n=25
        19 003764   000225 000001 20                 ADSC9   149                      cn=0,n=1
        19 003765   200033 000100                    ARG     INDX1,,AUTO
        19 003766   003772 606400 19                 TTN     s:28514

     2352    28510    4           WHENRETURN DO;

     2353    28511    4               WILD = %YES#;

PL6.E3A0      #001=VMO$MAIL File=VMO$MAIL.:VMB6TSI                               WED 08/20/97 15:19 Page:409
  28511 19 003767   400000 236003                    LDQ     -131072,DU
        19 003770   200041 756100                    STQ     WILD,,AUTO

     2354    28512    4           END;

  28512 19 003771   003773 710000 19                 TRA     s:28516

     2355    28513    4           WHENALTRETURN DO;

     2356    28514    4               WILD = %NO#;

  28514 19 003772   200041 450100                    STZ     WILD,,AUTO

     2357    28515    4           END;

     2358    28516    3           CALL INDEX(INDX1,' ',WILDCARD_PATTERN);

  28516 19 003773   000000 124500                    SCM     mask='000'O
        19 003774   200014 000031                    ADSC9   WILDCARD_PATTERN,,AUTO   cn=0,n=25
        19 003775   000035 000001 20                 ADSC9   29                       cn=0,n=1
        19 003776   200033 000100                    ARG     INDX1,,AUTO

     2359    28517    3           VM_WILDCARD.PATTERN_ = VECTOR(SUBSTR(WILDCARD_PATTERN,0,INDX1));

  28517 19 003777   200033 235100                    LDA     INDX1,,AUTO
        19 004000   000020 735000                    ALS     16
        19 004001   000140 135007                    SBLA    96,DL
        19 004002   201706 452500                    STP2    I+100,,AUTO
        19 004003   201706 236100                    LDQ     I+100,,AUTO
        19 004004   000014 036003                    ADLQ    12,DU
        19 004005   001634 757000 11                 STAQ    VM_WILDCARD

     2360    28518    3           OPEN_NEXT.NAME_ = VECTOR(FID_NAME);

  28518 19 004006   000226 237000 20                 LDAQ    150
        19 004007   002302 757000 11                 STAQ    OPEN_NEXT+6

PL6.E3A0      #001=VMO$MAIL File=VMO$MAIL.:VMB6TSI                               WED 08/20/97 15:19 Page:410
     2361    28519    3           FID_NAME.NAME# = ':MAIL_';

  28519 19 004010   040000 100400                    MLR     fill='040'O
        19 004011   001363 000006 12                 ADSC9   VM_PROKEY+6              cn=0,n=6
        19 004012   002205 200037 11                 ADSC9   FID_NAME                 cn=1,n=31

     2362    28520    3           FID_NAME.L# = LENGTHC(':MAIL_');

  28520 19 004013   006000 236003                    LDQ     3072,DU
        19 004014   002205 552040 11                 STBQ    FID_NAME,'40'O

     2363    28521    3           CALL GET_WILD_FOLDER ALTRET(END_DEL_FOLDER);

  28521 19 004015   016664 701000 19                 TSX1    GET_WILD_FOLDER
        19 004016   004050 702000 19                 TSX2    END_DEL_FOLDER

     2364    28522    3           OPEN_NEXT.NAME_ = VECTOR(NIL);

  28522 19 004017   000230 237000 20                 LDAQ    152
        19 004020   002302 757000 11                 STAQ    OPEN_NEXT+6

     2365    28523    4           DO FOREVER;

     2366    28524    4               CALL M$CLOSE (CLOSE_SCRATCH)

  28524 19 004021   002146 630400 11                 EPPR0   CLOSE_SCRATCH
        19 004022   450001 713400                    CLIMB   alt,close
        19 004023   406000 401760                    pmme    nvectors=13
        19 004024   004027 702000 19                 TSX2    s:28529

     2367    28525    5               WHENRETURN DO;

     2368    28526    5                   INDX2 = INDX2 + 1;

  28526 19 004025   000375 054000 11                 AOS     INDX2

     2369    28527    5               END;
PL6.E3A0      #001=VMO$MAIL File=VMO$MAIL.:VMB6TSI                               WED 08/20/97 15:19 Page:411

  28527 19 004026   004043 710000 19                 TRA     s:28536

     2370    28528    5               WHENALTRETURN DO;

     2371    28529    5                   ERROR = B$TCB.ALT$->B$ALT.ERR;

  28529 19 004027   000000 470400 xsym               LDP0    B$TCB$
        19 004030   000000 471500                    LDP1    0,,PR0
        19 004031   100102 236100                    LDQ     66,,PR1
        19 004032   002204 756000 11                 STQ     ERROR

     2372    28530    5                   CALL XUR$ERRMSG (E_CANTDELF);

  28530 19 004033   000232 630400 20                 EPPR0   154
        19 004034   000024 631400 20                 EPPR1   20
        19 004035   000000 701000 xent               TSX1    XUR$ERRMSG
        19 004036   000000 011000                    NOP     0

     2373    28531    5                   CALL XUR$ERRMSG (ERROR,M$WORK_NUM);

  28531 19 004037   000155 630400 20                 EPPR0   109
        19 004040   000000 631400 20                 EPPR1   0
        19 004041   000000 701000 xent               TSX1    XUR$ERRMSG
        19 004042   000000 011000                    NOP     0

     2374    28532    5               END;

     2375    28533        /*
     2376    28534             ***** If wildcard specified, loop to process other matches ...
     2377    28535        */
     2378    28536    4               IF NOT WILD

  28536 19 004043   200041 234100                    SZN     WILD,,AUTO
        19 004044   004050 605000 19                 TPL     END_DEL_FOLDER

     2379    28537    4               THEN
PL6.E3A0      #001=VMO$MAIL File=VMO$MAIL.:VMB6TSI                               WED 08/20/97 15:19 Page:412
     2380    28538    4                   GOTO END_DEL_FOLDER;
     2381    28539    4               CALL GET_WILD_FOLDER ALTRET(END_DEL_FOLDER);

  28539 19 004045   016664 701000 19                 TSX1    GET_WILD_FOLDER
        19 004046   004050 702000 19                 TSX2    END_DEL_FOLDER

     2382    28540    4           END;                       /* Do forever ... end */

  28540 19 004047   004021 710000 19                 TRA     s:28524

     2383    28541        /*
     2384    28542             ***** Get the profile for the current folder ...
     2385    28543        */
     2386    28544    3   END_DEL_FOLDER:
     2387    28545    3          CALL REPORT_ACTIVITY (INDX2,VM_FOLDER_DELETED_FMT,%NO#,E_FOLDER_DELETED_FMT)
             28545                    ;

  28545 19 004050   000233 236000 20    END_DEL_FOL* LDQ     155
        19 004051   201122 756100                    STQ     @NAME+1,,AUTO
        19 004052   000234 237000 20                 LDAQ    156
        19 004053   201120 757100                    STAQ    @EXPLICIT+1,,AUTO
        19 004054   000154 236000 20                 LDQ     108
        19 004055   201117 756100                    STQ     @CURR_COMMAND_CODE+2,,AUTO
        19 004056   017334 701000 19                 TSX1    REPORT_ACTIVITY
        19 004057   000000 011000                    NOP     0
        19 004060   016452 710000 19                 TRA     CONTINUE

     2388    28546        %EJECT;
PL6.E3A0      #001=VMO$MAIL File=VMO$MAIL.:VMB6TSI                               WED 08/20/97 15:19 Page:413
     2389    28547        /* Delete list command */
     2390    28548    3       CASE (%CMD_DELETE_LIST);

     2391    28549    3           CALL NEED_UPDATE ALTRET(CONTINUE);

  28549 19 004061   016562 701000 19                 TSX1    NEED_UPDATE
        19 004062   016452 702000 19                 TSX2    CONTINUE

     2392    28550    3           INDX2 = 0;                  /* Used as counter */

  28550 19 004063   000375 450000 11                 STZ     INDX2

     2393    28551    3           CALL INDEX(INDX1,'?',OUT$->P$B.SUBLK$(0)->P$S.TEXT) ALTRET(

  28551 19 004064   200023 470500                    LDP0    OUT$,,AUTO
        19 004065   000003 471500                    LDP1    3,,PR0
        19 004066   100004 236100                    LDQ     4,,PR1
        19 004067   000033 772000                    QRL     27
        19 004070   000000 620006                    EAX0    0,QL
        19 004071   000000 124540                    SCM     mask='000'O
        19 004072   100004 200010                    ADSC9   4,,PR1                   cn=1,n=*X0
        19 004073   000225 000001 20                 ADSC9   149                      cn=0,n=1
        19 004074   200033 000100                    ARG     INDX1,,AUTO
        19 004075   004175 606400 19                 TTN     NON_WILD_DEL_LIST

     2394    28552    3             NON_WILD_DEL_LIST);
     2395    28553    3           VM_WILDCARD.PATTERN_ = VECTOR(OUT$->P$B.SUBLK$(0)->P$S.TEXT);

  28553 19 004076   000003 471500                    LDP1    3,,PR0
        19 004077   100004 236100                    LDQ     4,,PR1
        19 004100   000033 772000                    QRL     27
        19 004101   000064 737000                    LLS     52
        19 004102   000140 135007                    SBLA    96,DL
        19 004103   201706 451500                    STP1    I+100,,AUTO
        19 004104   201706 236100                    LDQ     I+100,,AUTO
        19 004105   000215 036000 20                 ADLQ    141
        19 004106   001634 757000 11                 STAQ    VM_WILDCARD
PL6.E3A0      #001=VMO$MAIL File=VMO$MAIL.:VMB6TSI                               WED 08/20/97 15:19 Page:414

     2396    28554    3           CALL XLATE (OUT$->P$B.SUBLK$(0)->P$S.TEXT, LOWER_UPPER,

  28554 19 004107   000003 471500                    LDP1    3,,PR0
        19 004110   100004 236100                    LDQ     4,,PR1
        19 004111   000033 772000                    QRL     27
        19 004112   000000 620006                    EAX0    0,QL
        19 004113   000000 473400 xsym               LDP3    B$XL_UPPER$
        19 004114   000000 621006                    EAX1    0,QL
        19 004115   040140 160540                    MVT     fill='040'O
        19 004116   100004 200010                    ADSC9   4,,PR1                   cn=1,n=*X0
        19 004117   100004 200011                    ADSC9   4,,PR1                   cn=1,n=*X1
        19 004120   300000 000100                    ARG     0,,PR3

     2397    28555    3             OUT$->P$B.SUBLK$(0)->P$S.TEXT);
     2398    28556    3           VM_LISTKEY.TEXT = ' ';      /* Start at first entry */

  28556 19 004121   040000 100400                    MLR     fill='040'O
        19 004122   000035 000001 20                 ADSC9   29                       cn=0,n=1
        19 004123   000554 400310 11                 ADSC9   VM_LISTKEY               cn=2,n=200

     2399    28557    3           VM_LISTKEY2 = VM_LISTKEY;   /* Remember previous entry */

  28557 19 004124   000000 100400                    MLR     fill='000'O
        19 004125   000554 000312 11                 ADSC9   VM_LISTKEY               cn=0,n=202
        19 004126   000637 000312 11                 ADSC9   VM_LISTKEY2              cn=0,n=202

     2400    28558    3           CALL VMA$GET_LIST_NEXT (VM_LISTKEY,VM_ADDLIST$,M$MAIL_FILE_NUM) ALTRET(

  28558 19 004127   000202 630400 20                 EPPR0   130
        19 004130   000021 631400 20                 EPPR1   17
        19 004131   000000 701000 xent               TSX1    VMA$GET_LIST_NEXT
        19 004132   004226 702000 19                 TSX2    END_DEL_LIST

     2401    28559    3             END_DEL_LIST);
     2402    28560    4           DO FOREVER;

PL6.E3A0      #001=VMO$MAIL File=VMO$MAIL.:VMB6TSI                               WED 08/20/97 15:19 Page:415
     2403    28561    4               VM_WILDCARD.INPUT_ = VECTOR(SUBSTR(VM_LISTKEY.TEXT,0,

  28561 19 004133   000554 236000 11                 LDQ     VM_LISTKEY
        19 004134   000033 772000                    QRL     27
        19 004135   777777 620006                    EAX0    -1,QL
        19 004136   000000 635010                    EAA     0,X0
        19 004137   000002 771000                    ARL     2
        19 004140   000140 135007                    SBLA    96,DL
        19 004141   000236 236000 20                 LDQ     158
        19 004142   001636 757000 11                 STAQ    VM_WILDCARD+2

     2404    28562    4                 VM_LISTKEY.COUNT-1)); /* One less for type */
     2405    28563    4               CALL X$WILDCMP (VM_WILDCARD)

  28563 19 004143   000237 630400 20                 EPPR0   159
        19 004144   000024 631400 20                 EPPR1   20
        19 004145   000000 701000 xent               TSX1    X$WILDCMP
        19 004146   004162 702000 19                 TSX2    s:28571

     2406    28564    4               WHENRETURN
     2407    28565    5               DO;

     2408    28566    5                   CALL VMA$DEL_LIST (VM_LISTKEY,,M$MAIL_FILE_NUM) ALTRET(E_PMME);

  28566 19 004147   000053 236000 20                 LDQ     43
        19 004150   201710 756100                    STQ     I+102,,AUTO
        19 004151   000022 236000 20                 LDQ     18
        19 004152   000202 235000 20                 LDA     130
        19 004153   201706 757100                    STAQ    I+100,,AUTO
        19 004154   201706 630500                    EPPR0   I+100,,AUTO
        19 004155   000021 631400 20                 EPPR1   17
        19 004156   000000 701000 xent               TSX1    VMA$DEL_LIST
        19 004157   016514 702000 19                 TSX2    E_PMME

     2409    28567    5                   INDX2 = INDX2 + 1;

  28567 19 004160   000375 054000 11                 AOS     INDX2
PL6.E3A0      #001=VMO$MAIL File=VMO$MAIL.:VMB6TSI                               WED 08/20/97 15:19 Page:416

     2410    28568    5               END;

  28568 19 004161   004165 710000 19                 TRA     s:28573

     2411    28569    4               WHENALTRETURN
     2412    28570    5               DO;

     2413    28571    5                   VM_LISTKEY2 = VM_LISTKEY; /* New previous entry */

  28571 19 004162   000000 100400                    MLR     fill='000'O
        19 004163   000554 000312 11                 ADSC9   VM_LISTKEY               cn=0,n=202
        19 004164   000637 000312 11                 ADSC9   VM_LISTKEY2              cn=0,n=202

     2414    28572    5               END;

     2415    28573    4               VM_LISTKEY = VM_LISTKEY2; /* Previous needed to find next */

  28573 19 004165   000000 100400                    MLR     fill='000'O
        19 004166   000637 000312 11                 ADSC9   VM_LISTKEY2              cn=0,n=202
        19 004167   000554 000312 11                 ADSC9   VM_LISTKEY               cn=0,n=202

     2416    28574    4               CALL VMA$GET_LIST_NEXT (VM_LISTKEY,VM_ADDLIST$,M$MAIL_FILE_NUM)

  28574 19 004170   000202 630400 20                 EPPR0   130
        19 004171   000021 631400 20                 EPPR1   17
        19 004172   000000 701000 xent               TSX1    VMA$GET_LIST_NEXT
        19 004173   004226 702000 19                 TSX2    END_DEL_LIST

     2417    28575    4                 ALTRET(END_DEL_LIST);
     2418    28576    4           END;                       /* Do forever ... end */

  28576 19 004174   004133 710000 19                 TRA     s:28561

     2419    28577        /*
     2420    28578             ***** Handle non-wild case ...
     2421    28579        */
PL6.E3A0      #001=VMO$MAIL File=VMO$MAIL.:VMB6TSI                               WED 08/20/97 15:19 Page:417
     2422    28580    4           DO NEVER;

     2423    28581    4   NON_WILD_DEL_LIST:
     2424    28582    4               VM_LISTKEY.TEXT = OUT$->P$B.SUBLK$(0)->P$S.TEXT;

  28582 19 004175   200023 470500       NON_WILD_DE* LDP0    OUT$,,AUTO
        19 004176   000003 471500                    LDP1    3,,PR0
        19 004177   100004 236100                    LDQ     4,,PR1
        19 004200   000033 772000                    QRL     27
        19 004201   000000 620006                    EAX0    0,QL
        19 004202   040000 100540                    MLR     fill='040'O
        19 004203   100004 200010                    ADSC9   4,,PR1                   cn=1,n=*X0
        19 004204   000554 400310 11                 ADSC9   VM_LISTKEY               cn=2,n=200

     2425    28583    4               CALL VMA$DEL_LIST (VM_LISTKEY,VM_ADDLIST$,M$MAIL_FILE_NUM)

  28583 19 004205   000202 630400 20                 EPPR0   130
        19 004206   000021 631400 20                 EPPR1   17
        19 004207   000000 701000 xent               TSX1    VMA$DEL_LIST
        19 004210   004212 702000 19                 TSX2    s:28586
        19 004211   004225 710000 19                 TRA     s:28595

     2426    28584    4               WHENALTRETURN
     2427    28585    5               DO;

     2428    28586    5                   IF B$TCB.ALT$ -> B$ALT.ERR.CODE = %E$NOKEY

  28586 19 004212   000000 470400 xsym               LDP0    B$TCB$
        19 004213   000000 471500                    LDP1    0,,PR0
        19 004214   100102 236100                    LDQ     66,,PR1
        19 004215   377770 376007                    ANQ     131064,DL
        19 004216   001020 116007                    CMPQ    528,DL
        19 004217   016514 601000 19                 TNZ     E_PMME

     2429    28587    5                   THEN
     2430    28588    6                   DO;

PL6.E3A0      #001=VMO$MAIL File=VMO$MAIL.:VMB6TSI                               WED 08/20/97 15:19 Page:418
     2431    28589    6                       CALL XUR$ERRMSG(E_NOLIST);

  28589 19 004220   000240 630400 20                 EPPR0   160
        19 004221   000024 631400 20                 EPPR1   20
        19 004222   000000 701000 xent               TSX1    XUR$ERRMSG
        19 004223   000000 011000                    NOP     0

     2432    28590    6                       GOTO CONTINUE;

  28590 19 004224   016452 710000 19                 TRA     CONTINUE

     2433    28591    6                   END;
     2434    28592    5                   ELSE
     2435    28593    5                       GOTO E_PMME;
     2436    28594    5               END;
     2437    28595    4               INDX2 = INDX2 + 1;

  28595 19 004225   000375 054000 11                 AOS     INDX2

     2438    28596    4           END;                       /* Do never ... end */

  28589 19 004226                       END_DEL_LIST null
     2439    28597    3   END_DEL_LIST: ;
     2440    28598    3           CALL REPORT_ACTIVITY (INDX2,VM_LISTS_DELETED_FMT,%NO#,E_LISTS_DELETED_FMT);

  28598 19 004226   000241 236000 20                 LDQ     161
        19 004227   201122 756100                    STQ     @NAME+1,,AUTO
        19 004230   000242 237000 20                 LDAQ    162
        19 004231   201120 757100                    STAQ    @EXPLICIT+1,,AUTO
        19 004232   000154 236000 20                 LDQ     108
        19 004233   201117 756100                    STQ     @CURR_COMMAND_CODE+2,,AUTO
        19 004234   017334 701000 19                 TSX1    REPORT_ACTIVITY
        19 004235   000000 011000                    NOP     0
        19 004236   016452 710000 19                 TRA     CONTINUE

     2441    28599        %EJECT;
PL6.E3A0      #001=VMO$MAIL File=VMO$MAIL.:VMB6TSI                               WED 08/20/97 15:19 Page:419
     2442    28600        /* Delete user command */
     2443    28601    3       CASE (%CMD_DELETE_USER);

     2444    28602    3           CALL NEED_GLOBAL ALTRET(CONTINUE);

  28602 19 004237   016577 701000 19                 TSX1    NEED_GLOBAL
        19 004240   016452 702000 19                 TSX2    CONTINUE

     2445    28603        /*
     2446    28604             ***** Open the reverse name map file ...
     2447    28605        */
     2448    28606    3           CALL XUR$DISABLE;

  28606 19 004241   000020 631400 20                 EPPR1   16
        19 004242   000000 701000 xent               TSX1    XUR$DISABLE
        19 004243   000000 011000                    NOP     0

     2449    28607    3           CALL M$OPEN (OPEN_NAME_MAP) ALTRET(E_PMME);

  28607 19 004244   000366 630400 12                 EPPR0   OPEN_NAME_MAP
        19 004245   450000 713400                    CLIMB   alt,open
        19 004246   410400 401760                    pmme    nvectors=18
        19 004247   016514 702000 19                 TSX2    E_PMME

     2450    28608    3           INDX2 = 0;                  /* Used as counter */

  28608 19 004250   000375 450000 11                 STZ     INDX2

     2451    28609    3           CALL INDEX(INDX1,'?',OUT$->P$B.SUBLK$(0)->P$S.TEXT) ALTRET(

  28609 19 004251   200023 470500                    LDP0    OUT$,,AUTO
        19 004252   000003 471500                    LDP1    3,,PR0
        19 004253   100004 236100                    LDQ     4,,PR1
        19 004254   000033 772000                    QRL     27
        19 004255   000000 620006                    EAX0    0,QL
        19 004256   000000 124540                    SCM     mask='000'O
        19 004257   100004 200010                    ADSC9   4,,PR1                   cn=1,n=*X0
PL6.E3A0      #001=VMO$MAIL File=VMO$MAIL.:VMB6TSI                               WED 08/20/97 15:19 Page:420
        19 004260   000225 000001 20                 ADSC9   149                      cn=0,n=1
        19 004261   200033 000100                    ARG     INDX1,,AUTO
        19 004262   004364 606400 19                 TTN     NON_WILD_DEL_USER

     2452    28610    3             NON_WILD_DEL_USER);
     2453    28611    3           VM_WILDCARD.PATTERN_ = VECTOR(OUT$->P$B.SUBLK$(0)->P$S.TEXT);

  28611 19 004263   000003 471500                    LDP1    3,,PR0
        19 004264   100004 236100                    LDQ     4,,PR1
        19 004265   000033 772000                    QRL     27
        19 004266   000064 737000                    LLS     52
        19 004267   000140 135007                    SBLA    96,DL
        19 004270   201706 451500                    STP1    I+100,,AUTO
        19 004271   201706 236100                    LDQ     I+100,,AUTO
        19 004272   000215 036000 20                 ADLQ    141
        19 004273   001634 757000 11                 STAQ    VM_WILDCARD

     2454    28612    3           CALL XLATE (OUT$->P$B.SUBLK$(0)->P$S.TEXT, LOWER_UPPER,

  28612 19 004274   000003 471500                    LDP1    3,,PR0
        19 004275   100004 236100                    LDQ     4,,PR1
        19 004276   000033 772000                    QRL     27
        19 004277   000000 620006                    EAX0    0,QL
        19 004300   000000 473400 xsym               LDP3    B$XL_UPPER$
        19 004301   000000 621006                    EAX1    0,QL
        19 004302   040140 160540                    MVT     fill='040'O
        19 004303   100004 200010                    ADSC9   4,,PR1                   cn=1,n=*X0
        19 004304   100004 200011                    ADSC9   4,,PR1                   cn=1,n=*X1
        19 004305   300000 000100                    ARG     0,,PR3

     2455    28613    3             OUT$->P$B.SUBLK$(0)->P$S.TEXT);
     2456    28614    3           VM_USERKEY.TEXT = ' ';      /* Start at first entry */

  28614 19 004306   040000 100400                    MLR     fill='040'O
        19 004307   000035 000001 20                 ADSC9   29                       cn=0,n=1
        19 004310   000722 400310 11                 ADSC9   VM_USERKEY               cn=2,n=200

PL6.E3A0      #001=VMO$MAIL File=VMO$MAIL.:VMB6TSI                               WED 08/20/97 15:19 Page:421
     2457    28615    3           VM_USERKEY2 = VM_USERKEY;   /* Remember previous entry */

  28615 19 004311   000000 100400                    MLR     fill='000'O
        19 004312   000722 000312 11                 ADSC9   VM_USERKEY               cn=0,n=202
        19 004313   001005 000312 11                 ADSC9   VM_USERKEY2              cn=0,n=202

     2458    28616    3           CALL VMA$GET_LIST_NEXT (VM_USERKEY,VM_ADDLIST$,M$MAIL_FILE_NUM) ALTRET(

  28616 19 004314   000206 630400 20                 EPPR0   134
        19 004315   000021 631400 20                 EPPR1   17
        19 004316   000000 701000 xent               TSX1    VMA$GET_LIST_NEXT
        19 004317   004407 702000 19                 TSX2    END_DEL_USER

     2459    28617    3             END_DEL_USER);
     2460    28618    4           DO FOREVER;

     2461    28619    4               VM_WILDCARD.INPUT_ = VECTOR(SUBSTR(VM_USERKEY.TEXT,0,

  28619 19 004320   000722 236000 11                 LDQ     VM_USERKEY
        19 004321   000033 772000                    QRL     27
        19 004322   777777 620006                    EAX0    -1,QL
        19 004323   000000 635010                    EAA     0,X0
        19 004324   000002 771000                    ARL     2
        19 004325   000140 135007                    SBLA    96,DL
        19 004326   000244 236000 20                 LDQ     164
        19 004327   001636 757000 11                 STAQ    VM_WILDCARD+2

     2462    28620    4                 VM_USERKEY.COUNT-1)); /* One less for type */
     2463    28621    4               CALL X$WILDCMP (VM_WILDCARD)

  28621 19 004330   000237 630400 20                 EPPR0   159
        19 004331   000024 631400 20                 EPPR1   20
        19 004332   000000 701000 xent               TSX1    X$WILDCMP
        19 004333   004351 702000 19                 TSX2    s:28636

     2464    28622    4               WHENRETURN
     2465    28623    5               DO;
PL6.E3A0      #001=VMO$MAIL File=VMO$MAIL.:VMB6TSI                               WED 08/20/97 15:19 Page:422

     2466    28624        /*
     2467    28625             ***** Delete all reverse name map records for this user ...
     2468    28626        */
     2469    28627    5                   CALL DEL_NAMEMAP_ENTRIES ALTRET(END_DEL_USER);

  28627 19 004334   017014 701000 19                 TSX1    DEL_NAMEMAP_ENTRIES
        19 004335   004407 702000 19                 TSX2    END_DEL_USER

     2470    28628        /*
     2471    28629             ***** Now delete the record ...
     2472    28630        */
     2473    28631    5                   CALL VMA$DEL_LIST (VM_USERKEY,,M$MAIL_FILE_NUM) ALTRET(E_PMME);

  28631 19 004336   000053 236000 20                 LDQ     43
        19 004337   201710 756100                    STQ     I+102,,AUTO
        19 004340   000022 236000 20                 LDQ     18
        19 004341   000206 235000 20                 LDA     134
        19 004342   201706 757100                    STAQ    I+100,,AUTO
        19 004343   201706 630500                    EPPR0   I+100,,AUTO
        19 004344   000021 631400 20                 EPPR1   17
        19 004345   000000 701000 xent               TSX1    VMA$DEL_LIST
        19 004346   016514 702000 19                 TSX2    E_PMME

     2474    28632    5                   INDX2 = INDX2 + 1;

  28632 19 004347   000375 054000 11                 AOS     INDX2

     2475    28633    5               END;

  28633 19 004350   004354 710000 19                 TRA     s:28638

     2476    28634    4               WHENALTRETURN
     2477    28635    5               DO;

     2478    28636    5                   VM_USERKEY2 = VM_USERKEY; /* New previous entry */

PL6.E3A0      #001=VMO$MAIL File=VMO$MAIL.:VMB6TSI                               WED 08/20/97 15:19 Page:423
  28636 19 004351   000000 100400                    MLR     fill='000'O
        19 004352   000722 000312 11                 ADSC9   VM_USERKEY               cn=0,n=202
        19 004353   001005 000312 11                 ADSC9   VM_USERKEY2              cn=0,n=202

     2479    28637    5               END;

     2480    28638    4               VM_USERKEY = VM_USERKEY2; /* Previous needed to find next */

  28638 19 004354   000000 100400                    MLR     fill='000'O
        19 004355   001005 000312 11                 ADSC9   VM_USERKEY2              cn=0,n=202
        19 004356   000722 000312 11                 ADSC9   VM_USERKEY               cn=0,n=202

     2481    28639    4               CALL VMA$GET_LIST_NEXT (VM_USERKEY,VM_ADDLIST$,M$MAIL_FILE_NUM)

  28639 19 004357   000206 630400 20                 EPPR0   134
        19 004360   000021 631400 20                 EPPR1   17
        19 004361   000000 701000 xent               TSX1    VMA$GET_LIST_NEXT
        19 004362   004407 702000 19                 TSX2    END_DEL_USER

     2482    28640    4                 ALTRET(END_DEL_USER);
     2483    28641    4           END;                       /* Do forever ... end */

  28641 19 004363   004320 710000 19                 TRA     s:28619

     2484    28642        /*
     2485    28643             ***** Handle non-wild case ...
     2486    28644        */
     2487    28645    4           DO NEVER;

     2488    28646    4   NON_WILD_DEL_USER:
     2489    28647    4               VM_USERKEY.TEXT = OUT$->P$B.SUBLK$(0)->P$S.TEXT;

  28647 19 004364   200023 470500       NON_WILD_DE* LDP0    OUT$,,AUTO
        19 004365   000003 471500                    LDP1    3,,PR0
        19 004366   100004 236100                    LDQ     4,,PR1
        19 004367   000033 772000                    QRL     27
        19 004370   000000 620006                    EAX0    0,QL
PL6.E3A0      #001=VMO$MAIL File=VMO$MAIL.:VMB6TSI                               WED 08/20/97 15:19 Page:424
        19 004371   040000 100540                    MLR     fill='040'O
        19 004372   100004 200010                    ADSC9   4,,PR1                   cn=1,n=*X0
        19 004373   000722 400310 11                 ADSC9   VM_USERKEY               cn=2,n=200

     2490    28648    4               CALL VMA$GET_LIST (VM_USERKEY,VM_ADDLIST$,M$MAIL_FILE_NUM) ALTRET(

  28648 19 004374   000206 630400 20                 EPPR0   134
        19 004375   000021 631400 20                 EPPR1   17
        19 004376   000000 701000 xent               TSX1    VMA$GET_LIST
        19 004377   004407 702000 19                 TSX2    END_DEL_USER

     2491    28649    4                 END_DEL_USER);
     2492    28650    4               CALL DEL_NAMEMAP_ENTRIES;

  28650 19 004400   017014 701000 19                 TSX1    DEL_NAMEMAP_ENTRIES
        19 004401   000000 011000                    NOP     0

     2493    28651    4               CALL VMA$DEL_LIST (VM_USERKEY,VM_ADDLIST$,M$MAIL_FILE_NUM) ALTRET(

  28651 19 004402   000206 630400 20                 EPPR0   134
        19 004403   000021 631400 20                 EPPR1   17
        19 004404   000000 701000 xent               TSX1    VMA$DEL_LIST
        19 004405   016514 702000 19                 TSX2    E_PMME

     2494    28652    4                 E_PMME);
     2495    28653    4               INDX2 = INDX2 + 1;

  28653 19 004406   000375 054000 11                 AOS     INDX2

     2496    28654    4           END;                       /* Do never ... end */

  28652 19 004407                       END_DEL_USER null
     2497    28655    3   END_DEL_USER: ;
     2498    28656        /*
     2499    28657             ***** Close the reverse name map ...
     2500    28658        */
     2501    28659    3           CLOSE_SAVE.V.DCB# = DCBNUM(M$NAME);
PL6.E3A0      #001=VMO$MAIL File=VMO$MAIL.:VMB6TSI                               WED 08/20/97 15:19 Page:425

  28659 19 004407   000000 236007 xsym               LDQ     M$NAME,DL
        19 004410   000000 620006                    EAX0    0,QL
        19 004411   002142 740000 11                 STX0    CLOSE_SAVE+26

     2502    28660    3           CALL M$CLOSE (CLOSE_SAVE) ALTRET(E_PMME);

  28660 19 004412   002110 630400 11                 EPPR0   CLOSE_SAVE
        19 004413   450001 713400                    CLIMB   alt,close
        19 004414   406000 401760                    pmme    nvectors=13
        19 004415   016514 702000 19                 TSX2    E_PMME

     2503    28661    3           CALL XUR$ENABLE;

  28661 19 004416   000020 631400 20                 EPPR1   16
        19 004417   000000 701000 xent               TSX1    XUR$ENABLE
        19 004420   000000 011000                    NOP     0

     2504    28662    3           CALL REPORT_ACTIVITY (INDX2,VM_USERS_DELETED_FMT,%NO#,E_USERS_DELETED_FMT);

  28662 19 004421   000245 236000 20                 LDQ     165
        19 004422   201122 756100                    STQ     @NAME+1,,AUTO
        19 004423   000246 237000 20                 LDAQ    166
        19 004424   201120 757100                    STAQ    @EXPLICIT+1,,AUTO
        19 004425   000154 236000 20                 LDQ     108
        19 004426   201117 756100                    STQ     @CURR_COMMAND_CODE+2,,AUTO
        19 004427   017334 701000 19                 TSX1    REPORT_ACTIVITY
        19 004430   000000 011000                    NOP     0
        19 004431   016452 710000 19                 TRA     CONTINUE

     2505    28663        %EJECT;
PL6.E3A0      #001=VMO$MAIL File=VMO$MAIL.:VMB6TSI                               WED 08/20/97 15:19 Page:426
     2506    28664        /* Delete message command */
     2507    28665    3       CASE (%CMD_DELETE_MESSAGE);

     2508    28666    3           CALL NEED_UPDATE ALTRET(CONTINUE);

  28666 19 004432   016562 701000 19                 TSX1    NEED_UPDATE
        19 004433   016452 702000 19                 TSX2    CONTINUE

     2509    28667    3           CALL INIT$SELECT_OPTS (OUT$->P$B.SUBLK$(0),%CMD_DELETE_MESSAGE) ALTRET(

  28667 19 004434   000251 236000 20                 LDQ     169
        19 004435   201120 756100                    STQ     @EXPLICIT+1,,AUTO
        19 004436   200023 236100                    LDQ     OUT$,,AUTO
        19 004437   000003 036003                    ADLQ    3,DU
        19 004440   201117 756100                    STQ     @CURR_COMMAND_CODE+2,,AUTO
        19 004441   017510 701000 19                 TSX1    INIT$SELECT_OPTS
        19 004442   016452 702000 19                 TSX2    CONTINUE

     2510    28668    3             CONTINUE);
     2511    28669    3           INDX1 = 0;                  /* Used as counter */

  28669 19 004443   200033 450100                    STZ     INDX1,,AUTO

     2512    28670    3           NONE = %YES#;

  28670 19 004444   400000 236003                    LDQ     -131072,DU
        19 004445   200037 756100                    STQ     NONE,,AUTO

     2513    28671    4           DO FOREVER;

     2514    28672    4               CALL GET$MESSAGE ALTRET(END_DELETE);

  28672 19 004446   020536 701000 19                 TSX1    GET$MESSAGE
        19 004447   004534 702000 19                 TSX2    END_DELETE

     2515    28673    4               NONE = %NO#;

PL6.E3A0      #001=VMO$MAIL File=VMO$MAIL.:VMB6TSI                               WED 08/20/97 15:19 Page:427
  28673 19 004450   200037 450100                    STZ     NONE,,AUTO

     2516    28674        /*
     2517    28675             ***** Only delete messages that have been listed before
     2518    28676                   and that have not already been deleted.
     2519    28677        */
     2520    28678    4               IF (VM_HEADER.STATUS.OLD = %YES#

  28678 19 004451   000000 470400 xsym               LDP0    VM_HEADER$
        19 004452   000012 236100                    LDQ     10,,PR0
        19 004453   004000 316003                    CANQ    2048,DU
        19 004454   004457 601000 19                 TNZ     s:28678+6
        19 004455   002000 316003                    CANQ    1024,DU
        19 004456   004446 600000 19                 TZE     s:28672
        19 004457   000400 316003                    CANQ    256,DU
        19 004460   004446 601000 19                 TNZ     s:28672

     2521    28679    4                 OR VM_HEADER.STATUS.MAKE_OLD = %YES#)
     2522    28680    4                 AND VM_HEADER.STATUS.DEL ~= %YES#
     2523    28681    5               THEN DO;             /* Message has been listed */

     2524    28682    5                   IF VM_PROFILE.OPT.HEADERS

  28682 19 004461   000000 471400 xsym               LDP1    VM_PROFILE$
        19 004462   100000 236100                    LDQ     0,,PR1
        19 004463   000400 316007                    CANQ    256,DL
        19 004464   004476 600000 19                 TZE     s:28685

     2525    28683    5                   THEN
     2526    28684    5                       CALL VMD$DI_HEADER(VM_HEADER,CURRENT_MESSAGE_NUMBER,M$ME_NUM);

  28684 19 004465   000033 236000 20                 LDQ     27
        19 004466   201710 756100                    STQ     I+102,,AUTO
        19 004467   000103 236000 20                 LDQ     67
        19 004470   000000 235000 xsym               LDA     VM_HEADER$
        19 004471   201706 757100                    STAQ    I+100,,AUTO
        19 004472   201706 630500                    EPPR0   I+100,,AUTO
PL6.E3A0      #001=VMO$MAIL File=VMO$MAIL.:VMB6TSI                               WED 08/20/97 15:19 Page:428
        19 004473   000021 631400 20                 EPPR1   17
        19 004474   000000 701000 xent               TSX1    VMD$DI_HEADER
        19 004475   000000 011000                    NOP     0

     2527    28685    5                   CALL XUR$DISABLE;

  28685 19 004476   000020 631400 20                 EPPR1   16
        19 004477   000000 701000 xent               TSX1    XUR$DISABLE
        19 004500   000000 011000                    NOP     0

     2528    28686    5                   VM_HEADER.STATUS.DEL = %YES#;

  28686 19 004501   000000 470400 xsym               LDP0    VM_HEADER$
        19 004502   000400 236003                    LDQ     256,DU
        19 004503   000012 256100                    ORSQ    10,,PR0

     2529    28687    5                   IF VM_PROFILE.LOW_DEL_NUM > CURRENT_MESSAGE_NUMBER

  28687 19 004504   000000 471400 xsym               LDP1    VM_PROFILE$
        19 004505   100134 236100                    LDQ     92,,PR1
        19 004506   004511 604000 19                 TMI     s:28688
        19 004507   000072 116000 11                 CMPQ    CURRENT_MESSAGE_NUMBER
        19 004510   004513 604400 19                 TMOZ    s:28689

     2530    28688    5                   THEN VM_PROFILE.LOW_DEL_NUM = CURRENT_MESSAGE_NUMBER;

  28688 19 004511   000072 235000 11                 LDA     CURRENT_MESSAGE_NUMBER
        19 004512   100134 755100                    STA     92,,PR1

     2531    28689    5                   CALL VMD$PUT_HEADER (CURRENT_MESSAGE_NUMBER,M$MAIL_FILE_NUM)

  28689 19 004513   000120 630400 20                 EPPR0   80
        19 004514   000000 631400 20                 EPPR1   0
        19 004515   000000 701000 xent               TSX1    VMD$PUT_HEADER
        19 004516   000000 011000                    NOP     0

     2532    28690    5                     ;
PL6.E3A0      #001=VMO$MAIL File=VMO$MAIL.:VMB6TSI                               WED 08/20/97 15:19 Page:429
     2533    28691    5                   VM_PROFILE.NUM_DEL_MESSAGES = VM_PROFILE.NUM_DEL_MESSAGES +

  28691 19 004517   000000 470400 xsym               LDP0    VM_PROFILE$
        19 004520   000007 235100                    LDA     7,,PR0
        19 004521   000001 035007                    ADLA    1,DL
        19 004522   000007 755100                    STA     7,,PR0

     2534    28692    5                     1;
     2535    28693    5                   CALL PUT_PROFILE (M$MAIL_FILE_NUM) ALTRET(WRITE_ERROR);

  28693 19 004523   000053 236000 20                 LDQ     43
        19 004524   201523 756100                    STQ     INDX2+255,,AUTO
        19 004525   021320 701000 19                 TSX1    PUT_PROFILE
        19 004526   016477 702000 19                 TSX2    WRITE_ERROR

     2536    28694    5                   CALL XUR$ENABLE;

  28694 19 004527   000020 631400 20                 EPPR1   16
        19 004530   000000 701000 xent               TSX1    XUR$ENABLE
        19 004531   000000 011000                    NOP     0

     2537    28695    5                   INDX1 = INDX1 + 1; /* Deletions */

  28695 19 004532   200033 054100                    AOS     INDX1,,AUTO

     2538    28696    5               END;             /* Do ... end */

     2539    28697    4           END;                       /* Do forever ... end  */

  28697 19 004533   004446 710000 19                 TRA     s:28672

  28692 19 004534                       END_DELETE   null
     2540    28698
     2541    28699    3   END_DELETE: ;
     2542    28700    3           CALL REPORT_ACTIVITY (INDX1,VM_MSGS_DELETED_FMT,NONE,E_MSGS_DELETED_FMT);

  28700 19 004534   000150 236000 20                 LDQ     104
PL6.E3A0      #001=VMO$MAIL File=VMO$MAIL.:VMB6TSI                               WED 08/20/97 15:19 Page:430
        19 004535   201122 756100                    STQ     @NAME+1,,AUTO
        19 004536   200037 630500                    EPPR0   NONE,,AUTO
        19 004537   201121 450500                    STP0    @SITENAME+1,,AUTO
        19 004540   000152 236000 20                 LDQ     106
        19 004541   201120 756100                    STQ     @EXPLICIT+1,,AUTO
        19 004542   200033 631500                    EPPR1   INDX1,,AUTO
        19 004543   201117 451500                    STP1    @CURR_COMMAND_CODE+2,,AUTO
        19 004544   017334 701000 19                 TSX1    REPORT_ACTIVITY
        19 004545   000000 011000                    NOP     0
        19 004546   016452 710000 19                 TRA     CONTINUE

     2543    28701        %EJECT;
PL6.E3A0      #001=VMO$MAIL File=VMO$MAIL.:VMB6TSI                               WED 08/20/97 15:19 Page:431
     2544    28702        /* Detach command */
     2545    28703    3       CASE (%CMD_DETACH);

     2546    28704    3           CALL NEED_FOLDER

  28704 19 004547   016547 701000 19                 TSX1    NEED_FOLDER
        19 004550   004552 702000 19                 TSX2    s:28706
        19 004551   004557 710000 19                 TRA     s:28709

     2547    28705    4           WHENALTRETURN DO;

     2548    28706    4               CALL XUR$ERRMSG (E_NOCURFOLD);

  28706 19 004552   000252 630400 20                 EPPR0   170
        19 004553   000024 631400 20                 EPPR1   20
        19 004554   000000 701000 xent               TSX1    XUR$ERRMSG
        19 004555   000000 011000                    NOP     0

     2549    28707    4               GOTO CONTINUE;

  28707 19 004556   016452 710000 19                 TRA     CONTINUE

     2550    28708    4           END;
     2551    28709    3           CALL GET$MESSAGE ALTRET (END_DETACH);

  28709 19 004557   020536 701000 19                 TSX1    GET$MESSAGE
        19 004560   005116 702000 19                 TSX2    END_DETACH

     2552    28710                /* Make sure there are nclosure for this mailgram */
     2553    28711    4           IF VM_HEADER.STATUS.ENCL = %NO# THEN DO;

  28711 19 004561   000000 470400 xsym               LDP0    VM_HEADER$
        19 004562   000012 236100                    LDQ     10,,PR0
        19 004563   004000 316007                    CANQ    2048,DL
        19 004564   004572 601000 19                 TNZ     s:28716

     2554    28712    4               CALL XUR$ERRMSG (E_NOENCLS);
PL6.E3A0      #001=VMO$MAIL File=VMO$MAIL.:VMB6TSI                               WED 08/20/97 15:19 Page:432

  28712 19 004565   000253 630400 20                 EPPR0   171
        19 004566   000024 631400 20                 EPPR1   20
        19 004567   000000 701000 xent               TSX1    XUR$ERRMSG
        19 004570   000000 011000                    NOP     0

     2555    28713    4               GOTO CONTINUE;

  28713 19 004571   016452 710000 19                 TRA     CONTINUE

     2556    28714    4           END;
     2557    28715
     2558    28716    3          IF NOT ( CURRENT_CONTEXT%.MESSAGE_SET.HIGH(0) - CURRENT_CONTEXT%.MESSAGE_SET
             28716                    .LOW(0) = 0 AND

  28716 19 004572   001663 471400 11                 LDP1    CONTEXT_PTR$
        19 004573   100006 236100                    LDQ     6,,PR1
        19 004574   100005 136100                    SBLQ    5,,PR1
        19 004575   004601 601000 19                 TNZ     s:28720
        19 004576   100001 236100                    LDQ     1,,PR1
        19 004577   000022 116000 20                 CMPQ    18
        19 004600   004606 600000 19                 TZE     s:28727

     2559    28717    4             CURRENT_CONTEXT%.TRUTH_TREE$ = ADDR(NIL)) THEN DO;

     2560    28718                   /* some message about only one message may
     2561    28719                      be selected when using the DETACH command */
     2562    28720    4               CALL XUR$ERRMSG (E_DETALLOWSONE);

  28720 19 004601   000254 630400 20                 EPPR0   172
        19 004602   000024 631400 20                 EPPR1   20
        19 004603   000000 701000 xent               TSX1    XUR$ERRMSG
        19 004604   000000 011000                    NOP     0

     2563    28721    4               GOTO CONTINUE;

  28721 19 004605   016452 710000 19                 TRA     CONTINUE
PL6.E3A0      #001=VMO$MAIL File=VMO$MAIL.:VMB6TSI                               WED 08/20/97 15:19 Page:433

     2564    28722    4           END;
     2565    28723    4           ELSE DO;

     2566    28724
     2567    28725                   /* Loop thru the parse nodes */
     2568    28726
     2569    28727    5               DO INDX1 = 0 TO OUT$ -> P$B.NSUBLKS - 1;

  28727 19 004606   200033 450100                    STZ     INDX1,,AUTO
        19 004607   004747 710000 19                 TRA     s:28764+1

     2570    28728    5                   PTR1$ = OUT$ -> P$B.SUBLK$(INDX1);

  28728 19 004610   200023 470500                    LDP0    OUT$,,AUTO
        19 004611   200033 720100                    LXL0    INDX1,,AUTO
        19 004612   000003 236110                    LDQ     3,X0,PR0
        19 004613   200025 756100                    STQ     PTR1$,,AUTO

     2571    28729    6                   DO CASE (PTR1$ -> P$B.CODE);

  28729 19 004614   200025 471500                    LDP1    PTR1$,,AUTO
        19 004615   100000 721100                    LXL1    0,,PR1
        19 004616   000006 101003                    CMPX1   6,DU
        19 004617   004621 602011 19                 TNC     s:28729+5,X1
        19 004620   004746 710000 19                 TRA     s:28764
        19 004621   004746 710000 19                 TRA     s:28764
        19 004622   004720 710000 19                 TRA     s:28758
        19 004623   004746 710000 19                 TRA     s:28764
        19 004624   004746 710000 19                 TRA     s:28764
        19 004625   004715 710000 19                 TRA     s:28756
        19 004626   004627 710000 19                 TRA     s:28731

     2572    28730    6                   CASE (%DET_ENCLNUM);

     2573    28731    6                       CALL CHARBIN(INDX2,PTR1$->P$S.TEXTC$->X$STRING.TEXT);

PL6.E3A0      #001=VMO$MAIL File=VMO$MAIL.:VMB6TSI                               WED 08/20/97 15:19 Page:434
  28731 19 004627   100003 473500                    LDP3    3,,PR1
        19 004630   000100 101500                    MRL     fill='000'O
        19 004631   300000 000001                    ADSC9   0,,PR3                   cn=0,n=1
        19 004632   201706 000002                    ADSC9   I+100,,AUTO              cn=0,n=2
        19 004633   201706 221100                    LDX1    I+100,,AUTO
        19 004634   000000 305540                    DTB
        19 004635   300000 230011                    NDSC9   0,,PR3                   cn=1,s=nosgn,sf=0,n=*X1
        19 004636   000375 000004 11                 NDSC9   INDX2                    cn=0,s=lsgnf,sf=0,n=4

     2574    28732    6   GET_ENCL:           CALL VMA$GET_ADD_RECORD(%VM_TYPE_ENCL, VM_ENCLLIST_,
             28732            M$MAIL_FILE_NUM,CURRENT_MESSAGE_NUMBER)

  28732 19 004637   000256 630400 20    GET_ENCL     EPPR0   174
        19 004640   000026 631400 20                 EPPR1   22
        19 004641   000000 701000 xent               TSX1    VMA$GET_ADD_RECORD
        19 004642   004644 702000 19                 TSX2    s:28734
        19 004643   004662 710000 19                 TRA     s:28739

     2575    28733    7                       WHENALTRETURN DO;

     2576    28734    8                           IF B$TCB.ALT$->B$ALT.ERR.CODE=%E$LD THEN DO;

  28734 19 004644   000000 470400 xsym               LDP0    B$TCB$
        19 004645   000000 471500                    LDP1    0,,PR0
        19 004646   100102 236100                    LDQ     66,,PR1
        19 004647   377770 376007                    ANQ     131064,DL
        19 004650   000070 116007                    CMPQ    56,DL
        19 004651   004662 601000 19                 TNZ     s:28739

     2577    28735    8                               VBOUND(VM_ENCLREC_) = VBOUND(VM_ENCLREC_) + PAGESIZE;

  28735 19 004652   000000 236000 xsym               LDQ     VM_ENCLREC_
        19 004653   000020 772000                    QRL     16
        19 004654   000374 036000 11                 ADLQ    PAGESIZE
        19 004655   000020 736000                    QLS     16
        19 004656   000000 676000 xsym               ERQ     VM_ENCLREC_
        19 004657   000017 376000 20                 ANQ     15
PL6.E3A0      #001=VMO$MAIL File=VMO$MAIL.:VMB6TSI                               WED 08/20/97 15:19 Page:435
        19 004660   000000 656000 xsym               ERSQ    VM_ENCLREC_

     2578    28736    8                               GOTO GET_ENCL;

  28736 19 004661   004637 710000 19                 TRA     GET_ENCL

     2579    28737    8                           END;
     2580    28738    7                       END;
     2581    28739    6                       ENCL$ = VM_ENCL_HEAD.HEAD$;

  28739 19 004662   000000 470400 xsym               LDP0    VM_ENCLLIST$
        19 004663   000003 236100                    LDQ     3,,PR0
        19 004664   200032 756100                    STQ     ENCL$,,AUTO

     2582    28740    7   FIND_ENCL:          DO FOREVER;

  28740 19 004665                       FIND_ENCL    null
     2583    28741    8                           IF VM_ENCLOS.TYPE - %VM_TYPE_ENCL = INDX2 THEN DO;

  28741 19 004665   200032 470500                    LDP0    ENCL$,,AUTO
        19 004666   000012 236100                    LDQ     10,,PR0
        19 004667   000033 772000                    QRL     27
        19 004670   000144 136007                    SBLQ    100,DL
        19 004671   000375 116000 11                 CMPQ    INDX2
        19 004672   004702 601000 19                 TNZ     s:28749

     2584    28742    9                               IF VM_ENCLOS.FLAGS.DELETED THEN DO;

  28742 19 004673   000002 234100                    SZN     2,,PR0
        19 004674   004714 605000 19                 TPL     s:28754+1

     2585    28743    9                                   CALL XUR$ERRMSG (E_ENCLDELETED);

  28743 19 004675   000262 630400 20                 EPPR0   178
        19 004676   000024 631400 20                 EPPR1   20
        19 004677   000000 701000 xent               TSX1    XUR$ERRMSG
        19 004700   000000 011000                    NOP     0
PL6.E3A0      #001=VMO$MAIL File=VMO$MAIL.:VMB6TSI                               WED 08/20/97 15:19 Page:436

     2586    28744    9                                   GOTO CONTINUE;

  28744 19 004701   016452 710000 19                 TRA     CONTINUE

     2587    28745    9                               END;
     2588    28746    8                               ELSE
     2589    28747    8                                   EXIT FIND_ENCL;
     2590    28748    8                           END;
     2591    28749    8                           ELSE IF VM_ENCLOS.NEXT$ = ADDR(NIL) THEN DO;

  28749 19 004702   000000 236100                    LDQ     0,,PR0
        19 004703   000022 116000 20                 CMPQ    18
        19 004704   004712 601000 19                 TNZ     s:28753

     2592    28750    8                                   CALL XUR$ERRMSG (E_ENCLNOTFOUND);

  28750 19 004705   000263 630400 20                 EPPR0   179
        19 004706   000024 631400 20                 EPPR1   20
        19 004707   000000 701000 xent               TSX1    XUR$ERRMSG
        19 004710   000000 011000                    NOP     0

     2593    28751    8                                   GOTO CONTINUE;

  28751 19 004711   016452 710000 19                 TRA     CONTINUE

     2594    28752    8                               END;
     2595    28753    7                           ENCL$ = VM_ENCLOS.NEXT$;

  28753 19 004712   200032 756100                    STQ     ENCL$,,AUTO

     2596    28754    7                       END;

  28754 19 004713   004665 710000 19                 TRA     FIND_ENCL
        19 004714   004746 710000 19                 TRA     s:28764

     2597    28755    6                   CASE (%DET_DELETE);
PL6.E3A0      #001=VMO$MAIL File=VMO$MAIL.:VMB6TSI                               WED 08/20/97 15:19 Page:437

     2598    28756    6                       DELETE_ENCL_FLAG = %YES#;

  28756 19 004715   400000 236003                    LDQ     -131072,DU
        19 004716   201113 756100                    STQ     DELETE_ENCL_FLAG,,AUTO
        19 004717   004746 710000 19                 TRA     s:28764

     2599    28757    6                   CASE (%DET_OPTS);

     2600    28758    6                       CALL XUR$OPENOUT (DCBNUM(M$ENCL),PTR1$->P$B,OPEN_ENCL)

  28758 19 004720   000000 236007 xsym               LDQ     M$ENCL,DL
        19 004721   201706 756100                    STQ     I+100,,AUTO
        19 004722   000264 236000 20                 LDQ     180
        19 004723   200025 235100                    LDA     PTR1$,,AUTO
        19 004724   201710 757100                    STAQ    I+102,,AUTO
        19 004725   201706 633500                    EPPR3   I+100,,AUTO
        19 004726   201707 453500                    STP3    I+101,,AUTO
        19 004727   201707 630500                    EPPR0   I+101,,AUTO
        19 004730   000021 631400 20                 EPPR1   17
        19 004731   000000 701000 xent               TSX1    XUR$OPENOUT
        19 004732   004734 702000 19                 TSX2    s:28760
        19 004733   004746 710000 19                 TRA     s:28764

     2601    28759    7                       WHENALTRETURN DO;

     2602    28760    7                           CALL XUR$ERRMSG(XUG$GETCMD.ERR#,M$OUT_NUM);

  28760 19 004734   000265 236000 20                 LDQ     181
        19 004735   201707 756100                    STQ     I+101,,AUTO
        19 004736   200003 236100                    LDQ     XUG_GETCMD$,,AUTO
        19 004737   000001 036003                    ADLQ    1,DU
        19 004740   201706 756100                    STQ     I+100,,AUTO
        19 004741   201706 630500                    EPPR0   I+100,,AUTO
        19 004742   000000 631400 20                 EPPR1   0
        19 004743   000000 701000 xent               TSX1    XUR$ERRMSG
        19 004744   000000 011000                    NOP     0
PL6.E3A0      #001=VMO$MAIL File=VMO$MAIL.:VMB6TSI                               WED 08/20/97 15:19 Page:438

     2603    28761    7                           GOTO CONTINUE;

  28761 19 004745   016452 710000 19                 TRA     CONTINUE

     2604    28762    7                       END;
     2605    28763    6                   END;

     2606    28764    5               END;  /* INDX1 */

  28764 19 004746   200033 054100                    AOS     INDX1,,AUTO
        19 004747   200023 470500                    LDP0    OUT$,,AUTO
        19 004750   000001 236100                    LDQ     1,,PR0
        19 004751   000022 772000                    QRL     18
        19 004752   200033 116100                    CMPQ    INDX1,,AUTO
        19 004753   004610 605400 19                 TPNZ    s:28728

     2607    28765
     2608    28766    5               DO INDX3 = 0 TO VM_ENCLOS.NRECS - 1;

  28766 19 004754   200034 450100                    STZ     INDX3,,AUTO
        19 004755   005044 710000 19                 TRA     s:28780+1

     2609    28767    5                  CALL VMD$GET_ENCL(CURRENT_MESSAGE_NUMBER,M$MAIL_FILE_NUM,INDX3,COUNT
             28767                            ,,,,INDX2,VM_ENCLREC$)

  28767 19 004756   000267 236000 20                 LDQ     183
        19 004757   201716 756100                    STQ     I+108,,AUTO
        19 004760   000154 236000 20                 LDQ     108
        19 004761   000022 235000 20                 LDA     18
        19 004762   201714 757100                    STAQ    I+106,,AUTO
        19 004763   000022 236000 20                 LDQ     18
        19 004764   000022 235000 20                 LDA     18
        19 004765   201712 757100                    STAQ    I+104,,AUTO
        19 004766   200550 630500                    EPPR0   COUNT,,AUTO
        19 004767   201711 450500                    STP0    I+103,,AUTO
        19 004770   200034 631500                    EPPR1   INDX3,,AUTO
PL6.E3A0      #001=VMO$MAIL File=VMO$MAIL.:VMB6TSI                               WED 08/20/97 15:19 Page:439
        19 004771   201710 451500                    STP1    I+102,,AUTO
        19 004772   000120 237000 20                 LDAQ    80
        19 004773   201706 757100                    STAQ    I+100,,AUTO
        19 004774   201706 630500                    EPPR0   I+100,,AUTO
        19 004775   000266 631400 20                 EPPR1   182
        19 004776   000000 701000 xent               TSX1    VMD$GET_ENCL
        19 004777   005001 702000 19                 TSX2    s:28769
        19 005000   005006 710000 19                 TRA     s:28772

     2610    28768    6                   WHENALTRETURN DO;

     2611    28769    6                       CALL XUR$ERRMSG(E_ENCLBROKEN);

  28769 19 005001   000270 630400 20                 EPPR0   184
        19 005002   000024 631400 20                 EPPR1   20
        19 005003   000000 701000 xent               TSX1    XUR$ERRMSG
        19 005004   000000 011000                    NOP     0

     2612    28770    6                       EXIT;

  28770 19 005005   005006 710000 19                 TRA     s:28772

     2613    28771    6                   END;
     2614    28772    5                   WRITE_ENCL.BUF_.BUF$ = PINCRW(VM_ENCLREC$,2);

  28772 19 005006   000000 236000 xsym               LDQ     VM_ENCLREC$
        19 005007   000002 036003                    ADLQ    2,DU
        19 005010   002735 756000 11                 STQ     WRITE_ENCL+5

     2615    28773    5                   WRITE_ENCL.BUF_.BOUND = COUNT - 1;

  28773 19 005011   200550 236100                    LDQ     COUNT,,AUTO
        19 005012   000001 136007                    SBLQ    1,DL
        19 005013   000020 736000                    QLS     16
        19 005014   002734 676000 11                 ERQ     WRITE_ENCL+4
        19 005015   000017 376000 20                 ANQ     15
        19 005016   002734 656000 11                 ERSQ    WRITE_ENCL+4
PL6.E3A0      #001=VMO$MAIL File=VMO$MAIL.:VMB6TSI                               WED 08/20/97 15:19 Page:440

     2616    28774    5                   IF (COUNT = 0) THEN WRITE_ENCL.BUF_.BOUND = 0;

  28774 19 005017   200550 235100                    LDA     COUNT,,AUTO
        19 005020   005023 601000 19                 TNZ     s:28775

  28774 19 005021   177777 236007                    LDQ     65535,DL
        19 005022   002734 356000 11                 ANSQ    WRITE_ENCL+4

     2617    28775    5                   CALL M$WRITE (WRITE_ENCL)

  28775 19 005023   002730 630400 11                 EPPR0   WRITE_ENCL
        19 005024   440001 713400                    CLIMB   alt,write
        19 005025   401400 401760                    pmme    nvectors=4
        19 005026   005030 702000 19                 TSX2    s:28777
        19 005027   005043 710000 19                 TRA     s:28780

     2618    28776    6                   WHENALTRETURN DO;

     2619    28777    6                       CALL XUR$ERRMSG(B$TCB.ALT$->B$ALT.ERR, M$OUT_NUM);

  28777 19 005030   000000 470400 xsym               LDP0    B$TCB$
        19 005031   000000 471500                    LDP1    0,,PR0
        19 005032   000265 236000 20                 LDQ     181
        19 005033   201707 756100                    STQ     I+101,,AUTO
        19 005034   100102 633500                    EPPR3   66,,PR1
        19 005035   201706 453500                    STP3    I+100,,AUTO
        19 005036   201706 630500                    EPPR0   I+100,,AUTO
        19 005037   000000 631400 20                 EPPR1   0
        19 005040   000000 701000 xent               TSX1    XUR$ERRMSG
        19 005041   000000 011000                    NOP     0

     2620    28778    6                       GOTO CONTINUE;

  28778 19 005042   016452 710000 19                 TRA     CONTINUE

     2621    28779    6                   END;
PL6.E3A0      #001=VMO$MAIL File=VMO$MAIL.:VMB6TSI                               WED 08/20/97 15:19 Page:441
     2622    28780    5               END;

  28780 19 005043   200034 054100                    AOS     INDX3,,AUTO
        19 005044   200032 470500                    LDP0    ENCL$,,AUTO
        19 005045   200034 236100                    LDQ     INDX3,,AUTO
        19 005046   004756 604000 19                 TMI     s:28767
        19 005047   000011 116100                    CMPQ    9,,PR0
        19 005050   004756 602000 19                 TNC     s:28767

     2623    28781
     2624    28782    4               CLOSE_SAVE.V.DCB# = DCBNUM(M$ENCL);

  28782 19 005051   000000 236007 xsym               LDQ     M$ENCL,DL
        19 005052   000000 620006                    EAX0    0,QL
        19 005053   002142 740000 11                 STX0    CLOSE_SAVE+26

     2625    28783    4               CALL M$CLOSE (CLOSE_SAVE);

  28783 19 005054   002110 630400 11                 EPPR0   CLOSE_SAVE
        19 005055   050001 713400                    CLIMB   close
        19 005056   406000 401760                    pmme    nvectors=13

     2626    28784
     2627    28785                    /* if the delete option was used or del_on_detach is
     2628    28786                       set then delete the enclosure, set the delete flag
     2629    28787                       and save the context record */
     2630    28788
     2631    28789    5               IF VM_PROFILE.OPT.DEL_ON_DETACH OR DELETE_ENCL_FLAG THEN DO;

  28789 19 005057   000000 470400 xsym               LDP0    VM_PROFILE$
        19 005060   000001 236100                    LDQ     1,,PR0
        19 005061   040000 316003                    CANQ    16384,DU
        19 005062   005065 601000 19                 TNZ     s:28790
        19 005063   201113 234100                    SZN     DELETE_ENCL_FLAG,,AUTO
        19 005064   005116 605000 19                 TPL     END_DETACH

     2632    28790    5                  CALL VMD$DEL_ENCL(CURRENT_MESSAGE_NUMBER,M$MAIL_FILE_NUM,0,VM_ENCLOS
PL6.E3A0      #001=VMO$MAIL File=VMO$MAIL.:VMB6TSI                               WED 08/20/97 15:19 Page:442
             28790                            .NRECS,,,,INDX2,VM_ENCLREC$);

  28790 19 005065   000267 236000 20                 LDQ     183
        19 005066   201716 756100                    STQ     I+108,,AUTO
        19 005067   000154 236000 20                 LDQ     108
        19 005070   000022 235000 20                 LDA     18
        19 005071   201714 757100                    STAQ    I+106,,AUTO
        19 005072   000022 236000 20                 LDQ     18
        19 005073   000022 235000 20                 LDA     18
        19 005074   201712 757100                    STAQ    I+104,,AUTO
        19 005075   200032 236100                    LDQ     ENCL$,,AUTO
        19 005076   000011 036003                    ADLQ    9,DU
        19 005077   000066 235000 20                 LDA     54
        19 005100   201710 757100                    STAQ    I+102,,AUTO
        19 005101   000120 237000 20                 LDAQ    80
        19 005102   201706 757100                    STAQ    I+100,,AUTO
        19 005103   201706 630500                    EPPR0   I+100,,AUTO
        19 005104   000266 631400 20                 EPPR1   182
        19 005105   000000 701000 xent               TSX1    VMD$DEL_ENCL
        19 005106   000000 011000                    NOP     0

     2633    28791    5                   VM_ENCLOS.FLAGS.DELETED = %YES#;

  28791 19 005107   200032 470500                    LDP0    ENCL$,,AUTO
        19 005110   400000 236003                    LDQ     -131072,DU
        19 005111   000002 256100                    ORSQ    2,,PR0

     2634    28792    5                  CALL VMA$PUT_ADD_RECORD (%VM_TYPE_ENCL,VM_ENCLLIST_,M$MAIL_FILE_NUM,
             28792                            CURRENT_MESSAGE_NUMBER);

  28792 19 005112   000256 630400 20                 EPPR0   174
        19 005113   000026 631400 20                 EPPR1   22
        19 005114   000000 701000 xent               TSX1    VMA$PUT_ADD_RECORD
        19 005115   000000 011000                    NOP     0

     2635    28793    5               END;

PL6.E3A0      #001=VMO$MAIL File=VMO$MAIL.:VMB6TSI                               WED 08/20/97 15:19 Page:443
     2636    28794
     2637    28795    4           END;

  28790 19 005116                       END_DETACH   null
     2638    28796    3   END_DETACH:;
     2639    28797    3           IF VM_ENCLOS.FLAGS.DELETED THEN

  28797 19 005116   200032 470500                    LDP0    ENCL$,,AUTO
        19 005117   000002 234100                    SZN     2,,PR0
        19 005120   005132 605000 19                 TPL     s:28800

     2640    28798    3               CALL REPORT_ACTIVITY (INDX2,VM_DETACH_DELETE_OK_FMT,%YES#,
             28798                        E_DETACH_DELETE_OK_FMT);

  28798 19 005121   000271 236000 20                 LDQ     185
        19 005122   201122 756100                    STQ     @NAME+1,,AUTO
        19 005123   000272 237000 20                 LDAQ    186
        19 005124   201120 757100                    STAQ    @EXPLICIT+1,,AUTO
        19 005125   000154 236000 20                 LDQ     108
        19 005126   201117 756100                    STQ     @CURR_COMMAND_CODE+2,,AUTO
        19 005127   017334 701000 19                 TSX1    REPORT_ACTIVITY
        19 005130   000000 011000                    NOP     0
        19 005131   016452 710000 19                 TRA     CONTINUE

     2641    28799    3           ELSE
     2642    28800    3               CALL REPORT_ACTIVITY (INDX2,VM_DETACH_OK_FMT,%YES#,E_DETACH_OK_FMT);

  28800 19 005132   000274 236000 20                 LDQ     188
        19 005133   201122 756100                    STQ     @NAME+1,,AUTO
        19 005134   000276 237000 20                 LDAQ    190
        19 005135   201120 757100                    STAQ    @EXPLICIT+1,,AUTO
        19 005136   000154 236000 20                 LDQ     108
        19 005137   201117 756100                    STQ     @CURR_COMMAND_CODE+2,,AUTO
        19 005140   017334 701000 19                 TSX1    REPORT_ACTIVITY
        19 005141   000000 011000                    NOP     0
        19 005142   016452 710000 19                 TRA     CONTINUE

PL6.E3A0      #001=VMO$MAIL File=VMO$MAIL.:VMB6TSI                               WED 08/20/97 15:19 Page:444
     2643    28801        %EJECT;
PL6.E3A0      #001=VMO$MAIL File=VMO$MAIL.:VMB6TSI                               WED 08/20/97 15:19 Page:445
     2644    28802        /* Display list command */
     2645    28803    3       CASE (%CMD_DISPLAY_LIST);

     2646    28804    3           CALL NEED_FOLDER ALTRET(CONTINUE);

  28804 19 005143   016547 701000 19                 TSX1    NEED_FOLDER
        19 005144   016452 702000 19                 TSX2    CONTINUE

     2647    28805    3           IF NOT VM_SEARCH_INFO.ACTIVE THEN CALL VMA$OPEN_SRCH_LIST(VM_SEARCH_INFO);

  28805 19 005145   001632 234000 11                 SZN     VM_SEARCH_INFO+34
        19 005146   005153 604000 19                 TMI     s:28806

  28805 19 005147   000042 630400 20                 EPPR0   34
        19 005150   000024 631400 20                 EPPR1   20
        19 005151   000000 701000 xent               TSX1    VMA$OPEN_SRCH_LIST
        19 005152   000000 011000                    NOP     0

     2648    28806    3           INDX2 = 0;                  /* Used as counter */

  28806 19 005153   000375 450000 11                 STZ     INDX2

     2649    28807    3           IF OUT$ -> P$B.NSUBLKS = 0

  28807 19 005154   200023 470500                    LDP0    OUT$,,AUTO
        19 005155   000001 220100                    LDX0    1,,PR0
        19 005156   005174 601000 19                 TNZ     s:28822

     2650    28808    4           THEN DO;    /* Display all lists in current folder */

     2651    28809    4   DI_LIST_ALL:
     2652    28810    4               VM_LISTKEY.TEXT = ' ';

  28810 19 005157   040000 100400       DI_LIST_ALL  MLR     fill='040'O
        19 005160   000035 000001 20                 ADSC9   29                       cn=0,n=1
        19 005161   000554 400310 11                 ADSC9   VM_LISTKEY               cn=2,n=200

PL6.E3A0      #001=VMO$MAIL File=VMO$MAIL.:VMB6TSI                               WED 08/20/97 15:19 Page:446
     2653    28811    5               DO FOREVER;

     2654    28812    5                   CALL VMA$GET_LIST_NEXT (VM_LISTKEY,VM_ADDLIST$,

  28812 19 005162   000202 630400 20                 EPPR0   130
        19 005163   000021 631400 20                 EPPR1   17
        19 005164   000000 701000 xent               TSX1    VMA$GET_LIST_NEXT
        19 005165   005454 702000 19                 TSX2    END_DI_LIST

     2655    28813    5                     M$MAIL_FILE_NUM) ALTRET(END_DI_LIST);
     2656    28814    5                   CALL VMD$DI_LIST (VM_LISTKEY,OUTDCB);

  28814 19 005166   000300 630400 20                 EPPR0   192
        19 005167   000000 631400 20                 EPPR1   0
        19 005170   000000 701000 xent               TSX1    VMD$DI_LIST
        19 005171   000000 011000                    NOP     0

     2657    28815    5                   INDX2 = INDX2 + 1;

  28815 19 005172   000375 054000 11                 AOS     INDX2

     2658    28816    5               END;

  28816 19 005173   005162 710000 19                 TRA     s:28812

     2659    28817    4           END;
     2660    28818    4           ELSE DO;

     2661    28819        /*
     2662    28820                ***** Handle output clause, if any ...
     2663    28821        */
     2664    28822    4               BLK$ = OUT$ -> P$B.SUBLK$ (OUT$ -> P$B.NSUBLKS - 1);

  28822 19 005174   000002 236110                    LDQ     2,X0,PR0
        19 005175   200024 756100                    STQ     BLK$,,AUTO

     2665    28823    4               IF BLK$ -> P$B.CODE = %OPT_OUTPUT
PL6.E3A0      #001=VMO$MAIL File=VMO$MAIL.:VMB6TSI                               WED 08/20/97 15:19 Page:447

  28823 19 005176   200024 471500                    LDP1    BLK$,,AUTO
        19 005177   100000 720100                    LXL0    0,,PR1
        19 005200   000005 100003                    CMPX0   5,DU
        19 005201   005231 601000 19                 TNZ     s:28840

     2666    28824    5               THEN DO;

     2667    28825    5                   CALL XUR$OPENOUT (M$OUT_NUM, BLK$ -> P$B)

  28825 19 005202   000265 235000 20                 LDA     181
        19 005203   201706 757100                    STAQ    I+100,,AUTO
        19 005204   201706 630500                    EPPR0   I+100,,AUTO
        19 005205   000000 631400 20                 EPPR1   0
        19 005206   000000 701000 xent               TSX1    XUR$OPENOUT
        19 005207   005213 702000 19                 TSX2    s:28830

     2668    28826    6                   WHENRETURN DO;

     2669    28827    6                       OUTDCB = M$OUT_NUM;

  28827 19 005210   000075 235000 12                 LDA     M$OUT_NUM
        19 005211   000402 755000 11                 STA     OUTDCB

     2670    28828    6                   END;

  28828 19 005212   005225 710000 19                 TRA     s:28833

     2671    28829    6                   WHENALTRETURN DO;

     2672    28830    6                       CALL XUR$ERRMSG (XUG$GETCMD.ERR#,M$OUT_NUM);

  28830 19 005213   000265 236000 20                 LDQ     181
        19 005214   201707 756100                    STQ     I+101,,AUTO
        19 005215   200003 236100                    LDQ     XUG_GETCMD$,,AUTO
        19 005216   000001 036003                    ADLQ    1,DU
        19 005217   201706 756100                    STQ     I+100,,AUTO
PL6.E3A0      #001=VMO$MAIL File=VMO$MAIL.:VMB6TSI                               WED 08/20/97 15:19 Page:448
        19 005220   201706 630500                    EPPR0   I+100,,AUTO
        19 005221   000000 631400 20                 EPPR1   0
        19 005222   000000 701000 xent               TSX1    XUR$ERRMSG
        19 005223   000000 011000                    NOP     0

     2673    28831    6                       GOTO CONTINUE;

  28831 19 005224   016452 710000 19                 TRA     CONTINUE

     2674    28832    6                   END;
     2675    28833    5                   IF OUT$ -> P$B.NSUBLKS = 1

  28833 19 005225   200023 470500                    LDP0    OUT$,,AUTO
        19 005226   000001 220100                    LDX0    1,,PR0
        19 005227   000001 100003                    CMPX0   1,DU
        19 005230   005157 600000 19                 TZE     DI_LIST_ALL

     2676    28834    5                   THEN            /* No listname specified */
     2677    28835    5                       GOTO DI_LIST_ALL;
     2678    28836    5               END;

     2679    28837        /*
     2680    28838                ***** Handle wildcarded list ...
     2681    28839        */
     2682    28840    4               CALL INDEX(INDX1,'?',OUT$->P$B.SUBLK$(0)->P$S.TEXT) ALTRET(

  28840 19 005231   000003 471500                    LDP1    3,,PR0
        19 005232   100004 236100                    LDQ     4,,PR1
        19 005233   000033 772000                    QRL     27
        19 005234   000000 620006                    EAX0    0,QL
        19 005235   000000 124540                    SCM     mask='000'O
        19 005236   100004 200010                    ADSC9   4,,PR1                   cn=1,n=*X0
        19 005237   000225 000001 20                 ADSC9   149                      cn=0,n=1
        19 005240   200033 000100                    ARG     INDX1,,AUTO
        19 005241   005410 606400 19                 TTN     NON_WILD_DI_LIST

     2683    28841    4                 NON_WILD_DI_LIST);
PL6.E3A0      #001=VMO$MAIL File=VMO$MAIL.:VMB6TSI                               WED 08/20/97 15:19 Page:449
     2684    28842    4               VM_WILDCARD.PATTERN_ = VECTOR(OUT$->P$B.SUBLK$(0)->P$S.TEXT);

  28842 19 005242   000003 471500                    LDP1    3,,PR0
        19 005243   100004 236100                    LDQ     4,,PR1
        19 005244   000033 772000                    QRL     27
        19 005245   000064 737000                    LLS     52
        19 005246   000140 135007                    SBLA    96,DL
        19 005247   201706 451500                    STP1    I+100,,AUTO
        19 005250   201706 236100                    LDQ     I+100,,AUTO
        19 005251   000215 036000 20                 ADLQ    141
        19 005252   001634 757000 11                 STAQ    VM_WILDCARD

     2685    28843    4               CALL XLATE(OUT$->P$B.SUBLK$(0)->P$S.TEXT, LOWER_UPPER,

  28843 19 005253   000003 471500                    LDP1    3,,PR0
        19 005254   100004 236100                    LDQ     4,,PR1
        19 005255   000033 772000                    QRL     27
        19 005256   000000 620006                    EAX0    0,QL
        19 005257   000000 473400 xsym               LDP3    B$XL_UPPER$
        19 005260   000000 621006                    EAX1    0,QL
        19 005261   040140 160540                    MVT     fill='040'O
        19 005262   100004 200010                    ADSC9   4,,PR1                   cn=1,n=*X0
        19 005263   100004 200011                    ADSC9   4,,PR1                   cn=1,n=*X1
        19 005264   300000 000100                    ARG     0,,PR3

     2686    28844    4                 OUT$->P$B.SUBLK$(0)->P$S.TEXT);
     2687    28845    5               DO INDX3=0 TO VM_SEARCH_INFO.NUM_ENTRIES-1;

  28845 19 005265   200034 450100                    STZ     INDX3,,AUTO
        19 005266   005403 710000 19                 TRA     NO_MATCH_DI_LIST+1

     2688    28846    5                   IF INDX1 = 0

  28846 19 005267   200033 235100                    LDA     INDX1,,AUTO
        19 005270   005275 601000 19                 TNZ     s:28850

     2689    28847    5                   THEN
PL6.E3A0      #001=VMO$MAIL File=VMO$MAIL.:VMB6TSI                               WED 08/20/97 15:19 Page:450
     2690    28848    5                       VM_LISTKEY.TEXT = ' '; /* Start at first entry */

  28848 19 005271   040000 100400                    MLR     fill='040'O
        19 005272   000035 000001 20                 ADSC9   29                       cn=0,n=1
        19 005273   000554 400310 11                 ADSC9   VM_LISTKEY               cn=2,n=200
        19 005274   005325 710000 19                 TRA     LIST_LOOP

     2691    28849    6                   ELSE DO;

     2692    28850    6                       VM_LISTKEY.TEXT = OUT$ -> P$B.SUBLK$(0) -> P$S.TEXT;

  28850 19 005275   200023 470500                    LDP0    OUT$,,AUTO
        19 005276   000003 471500                    LDP1    3,,PR0
        19 005277   100004 236100                    LDQ     4,,PR1
        19 005300   000033 772000                    QRL     27
        19 005301   000000 620006                    EAX0    0,QL
        19 005302   040000 100540                    MLR     fill='040'O
        19 005303   100004 200010                    ADSC9   4,,PR1                   cn=1,n=*X0
        19 005304   000554 400310 11                 ADSC9   VM_LISTKEY               cn=2,n=200

     2693    28851    6                       SUBSTR (VM_LISTKEY.TEXT, INDX1) = ' ';

  28851 19 005305   777467 620005                    EAX0    -201,AL
        19 005306   777777 660003                    ERX0    -1,DU
        19 005307   040045 100400                    MLR     fill='040'O
        19 005310   000035 000001 20                 ADSC9   29                       cn=0,n=1
        19 005311   000554 400010 11                 ADSC9   VM_LISTKEY,A             cn=2,n=*X0

     2694    28852    6                       SUBSTR (VM_LISTKEY.TEXT, INDX1-1, 1) = BINASC(ASCBIN(SUBSTR(
             28852                                VM_LISTKEY.TEXT, INDX1-1, 1)) - 1);

  28852 19 005312   000100 101405                    MRL     fill='000'O
        19 005313   000554 200001 11                 ADSC9   VM_LISTKEY,A             cn=1,n=1
        19 005314   201706 000004                    ADSC9   I+100,,AUTO              cn=0,n=4
        19 005315   201706 236100                    LDQ     I+100,,AUTO
        19 005316   000001 136007                    SBLQ    1,DL
        19 005317   000033 736000                    QLS     27
PL6.E3A0      #001=VMO$MAIL File=VMO$MAIL.:VMB6TSI                               WED 08/20/97 15:19 Page:451
        19 005320   000302 276000 20                 ORQ     194
        19 005321   201707 756100                    STQ     I+101,,AUTO
        19 005322   040005 100500                    MLR     fill='040'O
        19 005323   201707 000004                    ADSC9   I+101,,AUTO              cn=0,n=4
        19 005324   000554 200001 11                 ADSC9   VM_LISTKEY,A             cn=1,n=1

     2695    28853    6                   END;

     2696    28854    5   LIST_LOOP:
     2697    28855    5                   CALL VMA$GET_LIST_NEXT (VM_LISTKEY,VM_ADDLIST$,

  28855 19 005325   200034 720100       LIST_LOOP    LXL0    INDX3,,AUTO
        19 005326   001571 630410 11                 EPPR0   VM_SEARCH_INFO+1,X0
        19 005327   201710 450500                    STP0    I+102,,AUTO
        19 005330   000202 237000 20                 LDAQ    130
        19 005331   201706 757100                    STAQ    I+100,,AUTO
        19 005332   201706 630500                    EPPR0   I+100,,AUTO
        19 005333   000021 631400 20                 EPPR1   17
        19 005334   000000 701000 xent               TSX1    VMA$GET_LIST_NEXT
        19 005335   005402 702000 19                 TSX2    NO_MATCH_DI_LIST

     2698    28856    5                     VM_SEARCH_INFO.DCB#(INDX3)) ALTRET(NO_MATCH_DI_LIST);
     2699    28857    5                   IF INDX1 > 0

  28857 19 005336   200033 235100                    LDA     INDX1,,AUTO
        19 005337   005352 604400 19                 TMOZ    s:28861
        19 005340   200023 470500                    LDP0    OUT$,,AUTO
        19 005341   000003 471500                    LDP1    3,,PR0
        19 005342   100004 236100                    LDQ     4,,PR1
        19 005343   000033 772000                    QRL     27
        19 005344   000000 620005                    EAX0    0,AL
        19 005345   200033 721100                    LXL1    INDX1,,AUTO
        19 005346   040040 106540                    CMPC    fill='040'O
        19 005347   100004 200010                    ADSC9   4,,PR1                   cn=1,n=*X0
        19 005350   000554 400011 11                 ADSC9   VM_LISTKEY               cn=2,n=*X1
        19 005351   005402 602000 19                 TNC     NO_MATCH_DI_LIST

PL6.E3A0      #001=VMO$MAIL File=VMO$MAIL.:VMB6TSI                               WED 08/20/97 15:19 Page:452
     2700    28858    5                    AND SUBSTR(VM_LISTKEY.TEXT, 0, INDX1) > SUBSTR(OUT$ -> P$B.SUBLK$(
             28858                              0) -> P$S.TEXT, 0, INDX1)
     2701    28859    5                   THEN
     2702    28860    5                       GOTO NO_MATCH_DI_LIST;
     2703    28861    5                   VM_WILDCARD.INPUT_ = VECTOR(SUBSTR(VM_LISTKEY.TEXT,0,

  28861 19 005352   000554 236000 11                 LDQ     VM_LISTKEY
        19 005353   000033 772000                    QRL     27
        19 005354   777777 620006                    EAX0    -1,QL
        19 005355   000000 635010                    EAA     0,X0
        19 005356   000002 771000                    ARL     2
        19 005357   000140 135007                    SBLA    96,DL
        19 005360   000236 236000 20                 LDQ     158
        19 005361   001636 757000 11                 STAQ    VM_WILDCARD+2

     2704    28862    5                     VM_LISTKEY.COUNT-1)); /* One less for type */
     2705    28863    5                   CALL X$WILDCMP (VM_WILDCARD) ALTRET(LIST_LOOP);

  28863 19 005362   000237 630400 20                 EPPR0   159
        19 005363   000024 631400 20                 EPPR1   20
        19 005364   000000 701000 xent               TSX1    X$WILDCMP
        19 005365   005325 702000 19                 TSX2    LIST_LOOP

     2706    28864    5                   CALL VMD$DI_LIST (VM_LISTKEY,OUTDCB,INDX3,VM_SEARCH_INFO);

  28864 19 005366   000042 236000 20                 LDQ     34
        19 005367   201711 756100                    STQ     I+103,,AUTO
        19 005370   200034 630500                    EPPR0   INDX3,,AUTO
        19 005371   201710 450500                    STP0    I+102,,AUTO
        19 005372   000300 237000 20                 LDAQ    192
        19 005373   201706 757100                    STAQ    I+100,,AUTO
        19 005374   201706 630500                    EPPR0   I+100,,AUTO
        19 005375   000026 631400 20                 EPPR1   22
        19 005376   000000 701000 xent               TSX1    VMD$DI_LIST
        19 005377   000000 011000                    NOP     0

     2707    28865    5                   INDX2 = INDX2 + 1;
PL6.E3A0      #001=VMO$MAIL File=VMO$MAIL.:VMB6TSI                               WED 08/20/97 15:19 Page:453

  28865 19 005400   000375 054000 11                 AOS     INDX2

     2708    28866    5                   GOTO LIST_LOOP;

  28866 19 005401   005325 710000 19                 TRA     LIST_LOOP

     2709    28867    5   NO_MATCH_DI_LIST:
     2710    28868    5               END;

  28868 19 005402   200034 054100       NO_MATCH_DI* AOS     INDX3,,AUTO
        19 005403   200034 236100                    LDQ     INDX3,,AUTO
        19 005404   005267 604000 19                 TMI     s:28846
        19 005405   001570 116000 11                 CMPQ    VM_SEARCH_INFO
        19 005406   005267 602000 19                 TNC     s:28846

     2711    28869        /*
     2712    28870             ***** Handle non-wild case ...
     2713    28871        */
     2714    28872    5               DO NEVER;

  28872 19 005407   005454 710000 19                 TRA     END_DI_LIST

     2715    28873    5   NON_WILD_DI_LIST:
     2716    28874    5                   VM_LISTKEY.TEXT = OUT$->P$B.SUBLK$(0)->P$S.TEXT;

  28874 19 005410   200023 470500       NON_WILD_DI* LDP0    OUT$,,AUTO
        19 005411   000003 471500                    LDP1    3,,PR0
        19 005412   100004 236100                    LDQ     4,,PR1
        19 005413   000033 772000                    QRL     27
        19 005414   000000 620006                    EAX0    0,QL
        19 005415   040000 100540                    MLR     fill='040'O
        19 005416   100004 200010                    ADSC9   4,,PR1                   cn=1,n=*X0
        19 005417   000554 400310 11                 ADSC9   VM_LISTKEY               cn=2,n=200

     2717    28875    6                   DO INDX3=0 TO VM_SEARCH_INFO.NUM_ENTRIES-1;

PL6.E3A0      #001=VMO$MAIL File=VMO$MAIL.:VMB6TSI                               WED 08/20/97 15:19 Page:454
  28875 19 005420   200034 450100                    STZ     INDX3,,AUTO
        19 005421   005450 710000 19                 TRA     s:28883+1

     2718    28876    6                       CALL VMA$GET_LIST (VM_LISTKEY,VM_ADDLIST$,

  28876 19 005422   200034 720100                    LXL0    INDX3,,AUTO
        19 005423   001571 630410 11                 EPPR0   VM_SEARCH_INFO+1,X0
        19 005424   201710 450500                    STP0    I+102,,AUTO
        19 005425   000202 237000 20                 LDAQ    130
        19 005426   201706 757100                    STAQ    I+100,,AUTO
        19 005427   201706 630500                    EPPR0   I+100,,AUTO
        19 005430   000021 631400 20                 EPPR1   17
        19 005431   000000 701000 xent               TSX1    VMA$GET_LIST
        19 005432   005447 702000 19                 TSX2    s:28883

     2719    28877    6                         VM_SEARCH_INFO.DCB#(INDX3))
     2720    28878    7                       WHENRETURN DO;

     2721    28879    7                           INDX2 = INDX2 + 1;

  28879 19 005433   000375 054000 11                 AOS     INDX2

     2722    28880    7                           CALL VMD$DI_LIST (VM_LISTKEY,OUTDCB,INDX3,VM_SEARCH_INFO);

  28880 19 005434   000042 236000 20                 LDQ     34
        19 005435   201711 756100                    STQ     I+103,,AUTO
        19 005436   200034 630500                    EPPR0   INDX3,,AUTO
        19 005437   201710 450500                    STP0    I+102,,AUTO
        19 005440   000300 237000 20                 LDAQ    192
        19 005441   201706 757100                    STAQ    I+100,,AUTO
        19 005442   201706 630500                    EPPR0   I+100,,AUTO
        19 005443   000026 631400 20                 EPPR1   22
        19 005444   000000 701000 xent               TSX1    VMD$DI_LIST
        19 005445   000000 011000                    NOP     0

     2723    28881    7                           GOTO END_DI_LIST;

PL6.E3A0      #001=VMO$MAIL File=VMO$MAIL.:VMB6TSI                               WED 08/20/97 15:19 Page:455
  28881 19 005446   005454 710000 19                 TRA     END_DI_LIST

     2724    28882    7                       END;
     2725    28883    6                   END;

  28883 19 005447   200034 054100                    AOS     INDX3,,AUTO
        19 005450   200034 236100                    LDQ     INDX3,,AUTO
        19 005451   005422 604000 19                 TMI     s:28876
        19 005452   001570 116000 11                 CMPQ    VM_SEARCH_INFO
        19 005453   005422 602000 19                 TNC     s:28876

     2726    28884    5               END;             /* Do never ... end */

     2727    28885    4           END;

  28876 19 005454                       END_DI_LIST  null
     2728    28886    3   END_DI_LIST: ;
     2729    28887    3           IF INDX2 ~= 1 OR NOT DCBADDR(OUTDCB) -> F$DCB.DDEV.UCOUT#

  28887 19 005454   000375 235000 11                 LDA     INDX2
        19 005455   000001 115007                    CMPA    1,DL
        19 005456   005466 601000 19                 TNZ     s:28889
        19 005457   000074 470400 20                 LDP0    60
        19 005460   000000 471500                    LDP1    0,,PR0
        19 005461   000402 720000 11                 LXL0    OUTDCB
        19 005462   100000 473510                    LDP3    0,X0,PR1
        19 005463   300004 236100                    LDQ     4,,PR3
        19 005464   020000 316007                    CANQ    8192,DL
        19 005465   016452 601000 19                 TNZ     CONTINUE

     2730    28888    3           THEN
     2731    28889    3               CALL REPORT_ACTIVITY (INDX2,VM_LISTS_DISPLAYED_FMT,%NO#,
             28889                        E_LISTS_DISPLAYED_FMT);

  28889 19 005466   000303 236000 20                 LDQ     195
        19 005467   201122 756100                    STQ     @NAME+1,,AUTO
        19 005470   000304 237000 20                 LDAQ    196
PL6.E3A0      #001=VMO$MAIL File=VMO$MAIL.:VMB6TSI                               WED 08/20/97 15:19 Page:456
        19 005471   201120 757100                    STAQ    @EXPLICIT+1,,AUTO
        19 005472   000154 236000 20                 LDQ     108
        19 005473   201117 756100                    STQ     @CURR_COMMAND_CODE+2,,AUTO
        19 005474   017334 701000 19                 TSX1    REPORT_ACTIVITY
        19 005475   000000 011000                    NOP     0
        19 005476   016452 710000 19                 TRA     CONTINUE

     2732    28890        %EJECT;
PL6.E3A0      #001=VMO$MAIL File=VMO$MAIL.:VMB6TSI                               WED 08/20/97 15:19 Page:457
     2733    28891        /* Display message command */
     2734    28892    3       CASE (%CMD_DISPLAY_MESSAGE);

     2735    28893    3           CALL NEED_FOLDER ALTRET(CONTINUE);

  28893 19 005477   016547 701000 19                 TSX1    NEED_FOLDER
        19 005500   016452 702000 19                 TSX2    CONTINUE

     2736    28894    3           OPT_SEED = 0;

  28894 19 005501   001710 450000 11                 STZ     OPT_SEED

     2737    28895    3           OPT_SEED$ = ADDR(OPT_SEED);

  28895 19 005502   000306 236000 20                 LDQ     198
        19 005503   201112 756100                    STQ     OPT_SEED$,,AUTO

     2738    28896    3           LAST_COMMAND_CODE = %CMD_DISPLAY_MESSAGE;

  28896 19 005504   000016 235007                    LDA     14,DL
        19 005505   000544 755000 11                 STA     LAST_COMMAND_CODE

     2739    28897    4           DO INDX1 = 0 TO OUT$ -> P$B.NSUBLKS - 1;

  28897 19 005506   200033 450100                    STZ     INDX1,,AUTO
        19 005507   005577 710000 19                 TRA     s:28918+1

     2740    28898    4               BLK$ = OUT$ -> P$B.SUBLK$(INDX1);

  28898 19 005510   200023 470500                    LDP0    OUT$,,AUTO
        19 005511   200033 720100                    LXL0    INDX1,,AUTO
        19 005512   000003 236110                    LDQ     3,X0,PR0
        19 005513   200024 756100                    STQ     BLK$,,AUTO

     2741    28899    5               DO CASE (BLK$ -> P$B.CODE);

  28899 19 005514   200024 471500                    LDP1    BLK$,,AUTO
PL6.E3A0      #001=VMO$MAIL File=VMO$MAIL.:VMB6TSI                               WED 08/20/97 15:19 Page:458
        19 005515   100000 721100                    LXL1    0,,PR1
        19 005516   000006 101003                    CMPX1   6,DU
        19 005517   005521 602011 19                 TNC     s:28899+5,X1
        19 005520   005576 710000 19                 TRA     s:28918
        19 005521   005576 710000 19                 TRA     s:28918
        19 005522   005527 710000 19                 TRA     s:28901
        19 005523   005570 710000 19                 TRA     s:28915
        19 005524   005576 710000 19                 TRA     s:28918
        19 005525   005576 710000 19                 TRA     s:28918
        19 005526   005544 710000 19                 TRA     s:28906

     2742    28900    5               CASE (%OPT_CRPT);

     2743    28901    5                   CALL VMX$OCTBIN (BLK$->P$B.SUBLK$(0)->P$S,OPT_SEED);

  28901 19 005527   100003 473500                    LDP3    3,,PR1
        19 005530   000306 236000 20                 LDQ     198
        19 005531   201707 756100                    STQ     I+101,,AUTO
        19 005532   201706 453500                    STP3    I+100,,AUTO
        19 005533   201706 630500                    EPPR0   I+100,,AUTO
        19 005534   000000 631400 20                 EPPR1   0
        19 005535   000000 701000 xent               TSX1    VMX$OCTBIN
        19 005536   000000 011000                    NOP     0

     2744    28902    5                   IF OPT_SEED = 0

  28902 19 005537   001710 235000 11                 LDA     OPT_SEED
        19 005540   005576 601000 19                 TNZ     s:28918

     2745    28903    5                   THEN /* allow display w/o decryption */
     2746    28904    5                       OPT_SEED$ = ADDR(NIL);

  28904 19 005541   000022 236000 20                 LDQ     18
        19 005542   201112 756100                    STQ     OPT_SEED$,,AUTO
        19 005543   005576 710000 19                 TRA     s:28918

     2747    28905    5               CASE (%OPT_OUTPUT);
PL6.E3A0      #001=VMO$MAIL File=VMO$MAIL.:VMB6TSI                               WED 08/20/97 15:19 Page:459

     2748    28906    5                   CALL XUR$OPENOUT (M$OUT_NUM, BLK$ -> P$B)

  28906 19 005544   000265 235000 20                 LDA     181
        19 005545   201706 757100                    STAQ    I+100,,AUTO
        19 005546   201706 630500                    EPPR0   I+100,,AUTO
        19 005547   000000 631400 20                 EPPR1   0
        19 005550   000000 701000 xent               TSX1    XUR$OPENOUT
        19 005551   005555 702000 19                 TSX2    s:28911

     2749    28907    6                   WHENRETURN DO;

     2750    28908    6                       OUTDCB = M$OUT_NUM;

  28908 19 005552   000075 235000 12                 LDA     M$OUT_NUM
        19 005553   000402 755000 11                 STA     OUTDCB

     2751    28909    6                   END;

  28909 19 005554   005567 710000 19                 TRA     s:28912+1

     2752    28910    6                   WHENALTRETURN DO;

     2753    28911    6                       CALL XUR$ERRMSG (XUG$GETCMD.ERR#,M$OUT_NUM);

  28911 19 005555   000265 236000 20                 LDQ     181
        19 005556   201707 756100                    STQ     I+101,,AUTO
        19 005557   200003 236100                    LDQ     XUG_GETCMD$,,AUTO
        19 005560   000001 036003                    ADLQ    1,DU
        19 005561   201706 756100                    STQ     I+100,,AUTO
        19 005562   201706 630500                    EPPR0   I+100,,AUTO
        19 005563   000000 631400 20                 EPPR1   0
        19 005564   000000 701000 xent               TSX1    XUR$ERRMSG
        19 005565   000000 011000                    NOP     0

     2754    28912    6                       GOTO CONTINUE;

PL6.E3A0      #001=VMO$MAIL File=VMO$MAIL.:VMB6TSI                               WED 08/20/97 15:19 Page:460
  28912 19 005566   016452 710000 19                 TRA     CONTINUE
        19 005567   005576 710000 19                 TRA     s:28918

     2755    28913    6                   END;
     2756    28914    5               CASE (%OPT_SELECT);

     2757    28915    5                   CALL INIT$SELECT_OPTS (BLK$,%CMD_DISPLAY_MESSAGE) ALTRET(

  28915 19 005570   000310 236000 20                 LDQ     200
        19 005571   201120 756100                    STQ     @EXPLICIT+1,,AUTO
        19 005572   200024 633500                    EPPR3   BLK$,,AUTO
        19 005573   201117 453500                    STP3    @CURR_COMMAND_CODE+2,,AUTO
        19 005574   017510 701000 19                 TSX1    INIT$SELECT_OPTS
        19 005575   016452 702000 19                 TSX2    CONTINUE

     2758    28916    5                     CONTINUE);
     2759    28917    5               END;             /* Do case ... end */

     2760    28918    4           END;                  /* Do INDX1 = ... end */

  28918 19 005576   200033 054100                    AOS     INDX1,,AUTO
        19 005577   200023 470500                    LDP0    OUT$,,AUTO
        19 005600   000001 236100                    LDQ     1,,PR0
        19 005601   000022 772000                    QRL     18
        19 005602   200033 116100                    CMPQ    INDX1,,AUTO
        19 005603   005510 605400 19                 TPNZ    s:28898

     2761    28919
     2762    28920    3           INDX2 = 0;                  /* Used as counter */

  28920 19 005604   000375 450000 11                 STZ     INDX2

     2763    28921    3           NONE = %YES#;

  28921 19 005605   400000 236003                    LDQ     -131072,DU
        19 005606   200037 756100                    STQ     NONE,,AUTO

PL6.E3A0      #001=VMO$MAIL File=VMO$MAIL.:VMB6TSI                               WED 08/20/97 15:19 Page:461
     2764    28922    4           DO FOREVER;

     2765    28923    4   DI_NEXT:
     2766    28924    4               CALL GET$MESSAGE ALTRET(END_DISP);

  28924 19 005607   020536 701000 19    DI_NEXT      TSX1    GET$MESSAGE
        19 005610   006024 702000 19                 TSX2    END_DISP

     2767    28925    4               NONE = %NO#;

  28925 19 005611   200037 450100                    STZ     NONE,,AUTO

     2768    28926    4               VM_PROFILE.HI_MESSAGE_NUMBER =

  28926 19 005612   000072 236000 11                 LDQ     CURRENT_MESSAGE_NUMBER
        19 005613   000000 470400 xsym               LDP0    VM_PROFILE$
        19 005614   005617 604000 19                 TMI     s:28926+5
        19 005615   000011 116100                    CMPQ    9,,PR0
        19 005616   005620 603000 19                 TRC     s:28926+6
        19 005617   000011 236100                    LDQ     9,,PR0
        19 005620   000011 756100                    STQ     9,,PR0

     2769    28927    4                 MAXIMUM( VM_PROFILE.HI_MESSAGE_NUMBER , CURRENT_MESSAGE_NUMBER );
     2770    28928    4               IF VM_HEADER.STATUS.CRYPT

  28928 19 005621   000000 471400 xsym               LDP1    VM_HEADER$
        19 005622   100012 236100                    LDQ     10,,PR1
        19 005623   010000 316003                    CANQ    4096,DU
        19 005624   005650 600000 19                 TZE     s:28936
        19 005625   001710 235000 11                 LDA     OPT_SEED
        19 005626   005650 601000 19                 TNZ     s:28936
        19 005627   201112 236100                    LDQ     OPT_SEED$,,AUTO
        19 005630   000022 116000 20                 CMPQ    18
        19 005631   005650 600000 19                 TZE     s:28936

     2771    28929    4                 AND OPT_SEED = 0
     2772    28930    4                 AND OPT_SEED$ ~= ADDR(NIL)
PL6.E3A0      #001=VMO$MAIL File=VMO$MAIL.:VMB6TSI                               WED 08/20/97 15:19 Page:462
     2773    28931    5               THEN DO;

     2774    28932    5                   CALL VMD$DI_HEADER (VM_HEADER,CURRENT_MESSAGE_NUMBER,OUTDCB);

  28932 19 005632   000301 236000 20                 LDQ     193
        19 005633   201710 756100                    STQ     I+102,,AUTO
        19 005634   000103 236000 20                 LDQ     67
        19 005635   000000 235000 xsym               LDA     VM_HEADER$
        19 005636   201706 757100                    STAQ    I+100,,AUTO
        19 005637   201706 630500                    EPPR0   I+100,,AUTO
        19 005640   000021 631400 20                 EPPR1   17
        19 005641   000000 701000 xent               TSX1    VMD$DI_HEADER
        19 005642   000000 011000                    NOP     0

     2775    28933    5                   CALL XUR$ERRMSG (E_NEEDSEED);

  28933 19 005643   000311 630400 20                 EPPR0   201
        19 005644   000024 631400 20                 EPPR1   20
        19 005645   000000 701000 xent               TSX1    XUR$ERRMSG
        19 005646   000000 011000                    NOP     0

     2776    28934    5                   GOTO DI_NEXT;

  28934 19 005647   005607 710000 19                 TRA     DI_NEXT

     2777    28935    5               END;
     2778    28936    4               IF VM_PROFILE.OPT.PAGE

  28936 19 005650   000000 236100                    LDQ     0,,PR0
        19 005651   000020 316007                    CANQ    16,DL
        19 005652   005657 600000 19                 TZE     s:28939

     2779    28937    4               THEN                 /* Go to top of page */
     2780    28938    4                   CALL VMD$EJECT(OUTDCB) ALTRET(E_PMME);

  28938 19 005653   000301 630400 20                 EPPR0   193
        19 005654   000024 631400 20                 EPPR1   20
PL6.E3A0      #001=VMO$MAIL File=VMO$MAIL.:VMB6TSI                               WED 08/20/97 15:19 Page:463
        19 005655   000000 701000 xent               TSX1    VMD$EJECT
        19 005656   016514 702000 19                 TSX2    E_PMME

     2781    28939    4               CALL VMD$DI_MESSAGE(CURRENT_MESSAGE_NUMBER,

  28939 19 005657   000066 236000 20                 LDQ     54
        19 005660   201712 756100                    STQ     I+104,,AUTO
        19 005661   201112 236100                    LDQ     OPT_SEED$,,AUTO
        19 005662   000053 235000 20                 LDA     43
        19 005663   201710 757100                    STAQ    I+102,,AUTO
        19 005664   000312 237000 20                 LDAQ    202
        19 005665   201706 757100                    STAQ    I+100,,AUTO
        19 005666   201706 630500                    EPPR0   I+100,,AUTO
        19 005667   000041 631400 20                 EPPR1   33
        19 005670   000000 701000 xent               TSX1    VMD$DI_MESSAGE
        19 005671   005673 702000 19                 TSX2    s:28942
        19 005672   005700 710000 19                 TRA     s:28945

     2782    28940    4                 OUTDCB,M$MAIL_FILE_NUM,OPT$SEED,%NO#)
     2783    28941    5               WHENALTRETURN DO;

     2784    28942    5                   CALL XUR$ERRMSG (E_DI_BADSEED);

  28942 19 005673   000314 630400 20                 EPPR0   204
        19 005674   000024 631400 20                 EPPR1   20
        19 005675   000000 701000 xent               TSX1    XUR$ERRMSG
        19 005676   000000 011000                    NOP     0

     2785    28943    5                   GOTO DI_NEXT;

  28943 19 005677   005607 710000 19                 TRA     DI_NEXT

     2786    28944    5               END;
     2787    28945    4               INDX2 = INDX2 + 1;

  28945 19 005700   000375 054000 11                 AOS     INDX2

PL6.E3A0      #001=VMO$MAIL File=VMO$MAIL.:VMB6TSI                               WED 08/20/97 15:19 Page:464
     2788    28946    4               IF VM_CURRENT_FOLDER.FLAGS.UPDATE

  28946 19 005701   001266 234000 11                 SZN     VM_CURRENT_FOLDER+19
        19 005702   005607 605000 19                 TPL     DI_NEXT

     2789    28947    4               THEN
     2790    28948    5               DO;

     2791    28949    5                   IF VM_HEADER.STATUS.EXAM = %NO#

  28949 19 005703   000000 470400 xsym               LDP0    VM_HEADER$
        19 005704   000012 430100                    FSZN    10,,PR0
        19 005705   005711 605000 19                 TPL     s:28953
        19 005706   000012 236100                    LDQ     10,,PR0
        19 005707   004000 316003                    CANQ    2048,DU
        19 005710   005750 601000 19                 TNZ     s:28974

     2792    28950    5                     OR VM_HEADER.STATUS.OLD = %NO#
     2793    28951    5                   THEN      /* Must set these flags */
     2794    28952    6                   DO;

     2795    28953    6                       CALL XUR$DISABLE;

  28953 19 005711   000020 631400 20                 EPPR1   16
        19 005712   000000 701000 xent               TSX1    XUR$DISABLE
        19 005713   000000 011000                    NOP     0

     2796    28954    6                       IF NOT VM_HEADER.STATUS.OLD

  28954 19 005714   000000 470400 xsym               LDP0    VM_HEADER$
        19 005715   000012 236100                    LDQ     10,,PR0
        19 005716   004000 316003                    CANQ    2048,DU
        19 005717   005724 601000 19                 TNZ     s:28958
        19 005720   002000 316003                    CANQ    1024,DU
        19 005721   005724 601000 19                 TNZ     s:28958

     2797    28955    6                         AND NOT VM_HEADER.STATUS.MAKE_OLD
PL6.E3A0      #001=VMO$MAIL File=VMO$MAIL.:VMB6TSI                               WED 08/20/97 15:19 Page:465
     2798    28956    6                       THEN
     2799    28957    6                           MADE_OLD = %YES#;

  28957 19 005722   400000 236003                    LDQ     -131072,DU
        19 005723   200040 756100                    STQ     MADE_OLD,,AUTO

     2800    28958    6                       VM_HEADER.STATUS.EXAM = %YES#;

  28958 19 005724   001000 236003                    LDQ     512,DU
        19 005725   000012 256100                    ORSQ    10,,PR0

     2801    28959    6                       VM_HEADER.STATUS.MAKE_OLD = %YES#;

  28959 19 005726   002000 236003                    LDQ     1024,DU
        19 005727   000012 256100                    ORSQ    10,,PR0

     2802    28960    6                       CALL VMD$PUT_HEADER (CURRENT_MESSAGE_NUMBER,

  28960 19 005730   000120 630400 20                 EPPR0   80
        19 005731   000000 631400 20                 EPPR1   0
        19 005732   000000 701000 xent               TSX1    VMD$PUT_HEADER
        19 005733   000000 011000                    NOP     0

     2803    28961    6                         M$MAIL_FILE_NUM);
     2804    28962    6                      VM_PROFILE.NUM_MOLD_MESSAGES = VM_PROFILE.NUM_MOLD_MESSAGES + 1;

  28962 19 005734   000000 470400 xsym               LDP0    VM_PROFILE$
        19 005735   000010 235100                    LDA     8,,PR0
        19 005736   000001 035007                    ADLA    1,DL
        19 005737   000010 755100                    STA     8,,PR0

     2805    28963    6                       CALL PUT_PROFILE (M$MAIL_FILE_NUM)

  28963 19 005740   000053 236000 20                 LDQ     43
        19 005741   201523 756100                    STQ     INDX2+255,,AUTO
        19 005742   021320 701000 19                 TSX1    PUT_PROFILE
        19 005743   016477 702000 19                 TSX2    WRITE_ERROR
PL6.E3A0      #001=VMO$MAIL File=VMO$MAIL.:VMB6TSI                               WED 08/20/97 15:19 Page:466

     2806    28964    6                         ALTRET(WRITE_ERROR);
     2807    28965    6                       CALL XUR$ENABLE;

  28965 19 005744   000020 631400 20                 EPPR1   16
        19 005745   000000 701000 xent               TSX1    XUR$ENABLE
        19 005746   000000 011000                    NOP     0

     2808    28966    6                   END;

  28966 19 005747   005773 710000 19                 TRA     s:28986

     2809    28967    5                   ELSE
     2810    28968        /*
     2811    28969          **** This code should never get excercised. Profile record may not get
     2812    28970          **** updated if the system crashes. This will set the num_mold_messages
     2813    28971          **** so that updating occurs at exit which sets vm_header.status.old.
     2814    28972        */
     2815    28973    6                   DO;

     2816    28974    6                       IF VM_HEADER.STATUS.EXAM = %YES#

  28974 19 005750   000012 430100                    FSZN    10,,PR0
        19 005751   005773 605000 19                 TPL     s:28986
        19 005752   002000 316003                    CANQ    1024,DU
        19 005753   005773 600000 19                 TZE     s:28986
        19 005754   000000 471400 xsym               LDP1    VM_PROFILE$
        19 005755   100010 235100                    LDA     8,,PR1
        19 005756   005773 601000 19                 TNZ     s:28986

     2817    28975    6                         AND VM_HEADER.STATUS.MAKE_OLD = %YES#
     2818    28976    6                         AND VM_PROFILE.NUM_MOLD_MESSAGES = 0 THEN
     2819    28977    7                       DO;

     2820    28978    7                           VM_PROFILE.NUM_MOLD_MESSAGES =

  28978 19 005757   100005 235100                    LDA     5,,PR1
PL6.E3A0      #001=VMO$MAIL File=VMO$MAIL.:VMB6TSI                               WED 08/20/97 15:19 Page:467
        19 005760   100010 755100                    STA     8,,PR1

     2821    28979    7                             VM_PROFILE.NUM_MESSAGES;
     2822    28980    7                           CALL XUR$DISABLE;

  28980 19 005761   000020 631400 20                 EPPR1   16
        19 005762   000000 701000 xent               TSX1    XUR$DISABLE
        19 005763   000000 011000                    NOP     0

     2823    28981    7                           CALL PUT_PROFILE (M$MAIL_FILE_NUM)

  28981 19 005764   000053 236000 20                 LDQ     43
        19 005765   201523 756100                    STQ     INDX2+255,,AUTO
        19 005766   021320 701000 19                 TSX1    PUT_PROFILE
        19 005767   016477 702000 19                 TSX2    WRITE_ERROR

     2824    28982    7                             ALTRET(WRITE_ERROR);
     2825    28983    7                           CALL XUR$ENABLE;

  28983 19 005770   000020 631400 20                 EPPR1   16
        19 005771   000000 701000 xent               TSX1    XUR$ENABLE
        19 005772   000000 011000                    NOP     0

     2826    28984    7                       END;

     2827    28985    6                   END;

     2828    28986    5                   IF VM_HEADER.STATUS.RR

  28986 19 005773   000000 470400 xsym               LDP0    VM_HEADER$
        19 005774   000012 236100                    LDQ     10,,PR0
        19 005775   020000 316003                    CANQ    8192,DU
        19 005776   005607 600000 19                 TZE     DI_NEXT

     2829    28987    5                   THEN
     2830    28988    6                   DO;

PL6.E3A0      #001=VMO$MAIL File=VMO$MAIL.:VMB6TSI                               WED 08/20/97 15:19 Page:468
     2831    28989    6                       IF VM_HEADER.FROM$ -> X$STRING.TEXT ~=

  28989 19 005777   000023 471500                    LDP1    19,,PR0
        19 006000   000100 101500                    MRL     fill='000'O
        19 006001   100000 000001                    ADSC9   0,,PR1                   cn=0,n=1
        19 006002   201706 000002                    ADSC9   I+100,,AUTO              cn=0,n=2
        19 006003   201706 220100                    LDX0    I+100,,AUTO
        19 006004   040000 106540                    CMPC    fill='040'O
        19 006005   100000 200010                    ADSC9   0,,PR1                   cn=1,n=*X0
        19 006006   004427 200400 11                 ADSC9   USER_NAME                cn=1,n=256
        19 006007   005607 600000 19                 TZE     DI_NEXT

     2832    28990    6                         USER_NAME.NAME#
     2833    28991    7                       THEN DO;

     2834    28992    7                           CALL DO$ACK (%NO#)

  28992 19 006010   000066 236000 20                 LDQ     54
        19 006011   201117 756100                    STQ     @CURR_COMMAND_CODE+2,,AUTO
        19 006012   025040 701000 19                 TSX1    DO$ACK
        19 006013   006023 702000 19                 TSX2    s:29000

     2835    28993    8                           WHENRETURN DO;

     2836    28994    8                               VM_HEADER.STATUS.RR = %NO#;

  28994 19 006014   000000 470400 xsym               LDP0    VM_HEADER$
        19 006015   000137 236000 20                 LDQ     95
        19 006016   000012 356100                    ANSQ    10,,PR0

     2837    28995    8                               CALL VMD$PUT_HEADER (CURRENT_MESSAGE_NUMBER,
             28995                                        M$MAIL_FILE_NUM);

  28995 19 006017   000120 630400 20                 EPPR0   80
        19 006020   000000 631400 20                 EPPR1   0
        19 006021   000000 701000 xent               TSX1    VMD$PUT_HEADER
        19 006022   000000 011000                    NOP     0
PL6.E3A0      #001=VMO$MAIL File=VMO$MAIL.:VMB6TSI                               WED 08/20/97 15:19 Page:469

     2838    28996    8                           END;

     2839    28997    7                       END;

     2840    28998    6                   END;

     2841    28999    5               END;

     2842    29000    4           END;                       /* Do forever ... end  */

  29000 19 006023   005607 710000 19                 TRA     DI_NEXT

  28993 19 006024                       END_DISP     null
     2843    29001
     2844    29002    3   END_DISP: ;
     2845    29003    3           IF INDX2 ~= 1 OR NOT DCBADDR(OUTDCB) -> F$DCB.DDEV.UCOUT#

  29003 19 006024   000375 235000 11                 LDA     INDX2
        19 006025   000001 115007                    CMPA    1,DL
        19 006026   006036 601000 19                 TNZ     s:29005
        19 006027   000074 470400 20                 LDP0    60
        19 006030   000000 471500                    LDP1    0,,PR0
        19 006031   000402 720000 11                 LXL0    OUTDCB
        19 006032   100000 473510                    LDP3    0,X0,PR1
        19 006033   300004 236100                    LDQ     4,,PR3
        19 006034   020000 316007                    CANQ    8192,DL
        19 006035   016452 601000 19                 TNZ     CONTINUE

     2846    29004    3           THEN
     2847    29005    3               CALL REPORT_ACTIVITY (INDX2,VM_MSGS_DISPLAYED_FMT,NONE,

  29005 19 006036   000315 236000 20                 LDQ     205
        19 006037   201122 756100                    STQ     @NAME+1,,AUTO
        19 006040   200037 630500                    EPPR0   NONE,,AUTO
        19 006041   201121 450500                    STP0    @SITENAME+1,,AUTO
        19 006042   000316 236000 20                 LDQ     206
PL6.E3A0      #001=VMO$MAIL File=VMO$MAIL.:VMB6TSI                               WED 08/20/97 15:19 Page:470
        19 006043   201120 756100                    STQ     @EXPLICIT+1,,AUTO
        19 006044   000154 236000 20                 LDQ     108
        19 006045   201117 756100                    STQ     @CURR_COMMAND_CODE+2,,AUTO
        19 006046   017334 701000 19                 TSX1    REPORT_ACTIVITY
        19 006047   000000 011000                    NOP     0
        19 006050   016452 710000 19                 TRA     CONTINUE

     2848    29006    3                 E_MSGS_DISPLAYED_FMT);
     2849    29007        %EJECT;
PL6.E3A0      #001=VMO$MAIL File=VMO$MAIL.:VMB6TSI                               WED 08/20/97 15:19 Page:471
     2850    29008        /* Display profile */
     2851    29009    3       CASE (%CMD_DISPLAY_PROFILE);

     2852    29010    3           CALL NEED_FOLDER ALTRET(CONTINUE);

  29010 19 006051   016547 701000 19                 TSX1    NEED_FOLDER
        19 006052   016452 702000 19                 TSX2    CONTINUE

     2853    29011    3           IF OUT$ -> P$B.NSUBLKS > 0

  29011 19 006053   200023 470500                    LDP0    OUT$,,AUTO
        19 006054   000001 220100                    LDX0    1,,PR0
        19 006055   006103 600000 19                 TZE     s:29022

     2854    29012    4           THEN DO;

     2855    29013    4               CALL XUR$OPENOUT (M$OUT_NUM, OUT$ -> P$B.SUBLK$(0) -> P$B)

  29013 19 006056   000003 471500                    LDP1    3,,PR0
        19 006057   201707 451500                    STP1    I+101,,AUTO
        19 006060   000265 236000 20                 LDQ     181
        19 006061   201706 756100                    STQ     I+100,,AUTO
        19 006062   201706 630500                    EPPR0   I+100,,AUTO
        19 006063   000000 631400 20                 EPPR1   0
        19 006064   000000 701000 xent               TSX1    XUR$OPENOUT
        19 006065   006071 702000 19                 TSX2    s:29018

     2856    29014    5               WHENRETURN DO;

     2857    29015    5                   OUTDCB = M$OUT_NUM;

  29015 19 006066   000075 235000 12                 LDA     M$OUT_NUM
        19 006067   000402 755000 11                 STA     OUTDCB

     2858    29016    5               END;

  29016 19 006070   006103 710000 19                 TRA     s:29022
PL6.E3A0      #001=VMO$MAIL File=VMO$MAIL.:VMB6TSI                               WED 08/20/97 15:19 Page:472

     2859    29017    5               WHENALTRETURN DO;

     2860    29018    5                   CALL XUR$ERRMSG (XUG$GETCMD.ERR#,M$OUT_NUM);

  29018 19 006071   000265 236000 20                 LDQ     181
        19 006072   201707 756100                    STQ     I+101,,AUTO
        19 006073   200003 236100                    LDQ     XUG_GETCMD$,,AUTO
        19 006074   000001 036003                    ADLQ    1,DU
        19 006075   201706 756100                    STQ     I+100,,AUTO
        19 006076   201706 630500                    EPPR0   I+100,,AUTO
        19 006077   000000 631400 20                 EPPR1   0
        19 006100   000000 701000 xent               TSX1    XUR$ERRMSG
        19 006101   000000 011000                    NOP     0

     2861    29019    5                   GOTO CONTINUE;

  29019 19 006102   016452 710000 19                 TRA     CONTINUE

     2862    29020    5               END;
     2863    29021    4           END;

     2864    29022    3           CALL VMD$DI_PROFILE (OUTDCB);

  29022 19 006103   000301 630400 20                 EPPR0   193
        19 006104   000024 631400 20                 EPPR1   20
        19 006105   000000 701000 xent               TSX1    VMD$DI_PROFILE
        19 006106   000000 011000                    NOP     0
        19 006107   016452 710000 19                 TRA     CONTINUE

     2865    29023        %EJECT;
PL6.E3A0      #001=VMO$MAIL File=VMO$MAIL.:VMB6TSI                               WED 08/20/97 15:19 Page:473
     2866    29024        /* Display status command */
     2867    29025    3       CASE (%CMD_DISPLAY_STATUS);

     2868    29026    3           CALL NEED_FOLDER ALTRET(CONTINUE);

  29026 19 006110   016547 701000 19                 TSX1    NEED_FOLDER
        19 006111   016452 702000 19                 TSX2    CONTINUE

     2869    29027    3           IF OUT$ -> P$B.NSUBLKS > 0

  29027 19 006112   200023 470500                    LDP0    OUT$,,AUTO
        19 006113   000001 220100                    LDX0    1,,PR0
        19 006114   006142 600000 19                 TZE     s:29038

     2870    29028    4           THEN DO;

     2871    29029    4               CALL XUR$OPENOUT (M$OUT_NUM, OUT$ -> P$B.SUBLK$(0) -> P$B)

  29029 19 006115   000003 471500                    LDP1    3,,PR0
        19 006116   201707 451500                    STP1    I+101,,AUTO
        19 006117   000265 236000 20                 LDQ     181
        19 006120   201706 756100                    STQ     I+100,,AUTO
        19 006121   201706 630500                    EPPR0   I+100,,AUTO
        19 006122   000000 631400 20                 EPPR1   0
        19 006123   000000 701000 xent               TSX1    XUR$OPENOUT
        19 006124   006130 702000 19                 TSX2    s:29034

     2872    29030    5               WHENRETURN DO;

     2873    29031    5                   OUTDCB = M$OUT_NUM;

  29031 19 006125   000075 235000 12                 LDA     M$OUT_NUM
        19 006126   000402 755000 11                 STA     OUTDCB

     2874    29032    5               END;

  29032 19 006127   006142 710000 19                 TRA     s:29038
PL6.E3A0      #001=VMO$MAIL File=VMO$MAIL.:VMB6TSI                               WED 08/20/97 15:19 Page:474

     2875    29033    5               WHENALTRETURN DO;

     2876    29034    5                   CALL XUR$ERRMSG (XUG$GETCMD.ERR#,M$OUT_NUM);

  29034 19 006130   000265 236000 20                 LDQ     181
        19 006131   201707 756100                    STQ     I+101,,AUTO
        19 006132   200003 236100                    LDQ     XUG_GETCMD$,,AUTO
        19 006133   000001 036003                    ADLQ    1,DU
        19 006134   201706 756100                    STQ     I+100,,AUTO
        19 006135   201706 630500                    EPPR0   I+100,,AUTO
        19 006136   000000 631400 20                 EPPR1   0
        19 006137   000000 701000 xent               TSX1    XUR$ERRMSG
        19 006140   000000 011000                    NOP     0

     2877    29035    5                   GOTO CONTINUE;

  29035 19 006141   016452 710000 19                 TRA     CONTINUE

     2878    29036    5               END;
     2879    29037    4           END;

     2880    29038    3           F_FDSLO.DCB# = OUTDCB;

  29038 19 006142   000402 720000 11                 LXL0    OUTDCB
        19 006143   003053 740000 11                 STX0    F_FDSLO+11

     2881    29039    3           F_FDSLO.NVECS# = 0;

  29039 19 006144   003051 450000 11                 STZ     F_FDSLO+9

     2882    29040        /**/
     2883    29041    3           WORK_STRING.L# = LENGTHC(WORK_STRING.NAME#);

  29041 19 006145   777000 236003                    LDQ     -512,DU
        19 006146   000174 552040 11                 STBQ    WORK_STRING,'40'O

PL6.E3A0      #001=VMO$MAIL File=VMO$MAIL.:VMB6TSI                               WED 08/20/97 15:19 Page:475
     2884    29042    3           CALL VMF$MAKE_ADDRESS1 (WORK_STRING,VM_CURRENT_FOLDER);

  29042 19 006147   000051 630400 20                 EPPR0   41
        19 006150   000000 631400 20                 EPPR1   0
        19 006151   000000 701000 xent               TSX1    VMF$MAKE_ADDRESS1
        19 006152   000000 011000                    NOP     0

     2885    29043    3           VECT_ARRAY(0) = VECTOR(SUBSTR(WORK_STRING.NAME#,0,

  29043 19 006153   000174 236000 11                 LDQ     WORK_STRING
        19 006154   000033 772000                    QRL     27
        19 006155   000064 737000                    LLS     52
        19 006156   000140 135007                    SBLA    96,DL
        19 006157   000317 236000 20                 LDQ     207
        19 006160   003076 757000 11                 STAQ    VECT_ARRAY

     2886    29044    3             WORK_STRING.L#));
     2887    29045                %INIT_STR (CODE=E_STATUS_FOLDER_FMT, STR=VM_STATUS_FOLDER_FMT,
     2888    29046                VECT="F_FDSLO.FMT_", TEST=YES);

  29053 19 006161   040000 106400                    CMPC    fill='040'O
        19 006162   004033 200120 11                 ADSC9   VM_STATUS_FOLDER_FMT     cn=1,n=80
        19 006163   000035 000001 20                 ADSC9   29                       cn=0,n=1
        19 006164   006172 601000 19                 TNZ     s:29058

  29055 19 006165   000320 630400 20                 EPPR0   208
        19 006166   000021 631400 20                 EPPR1   17
        19 006167   000000 701000 xent               TSX1    VMD$ERRMSG
        19 006170   000000 011000                    NOP     0

  29056 19 006171   006200 710000 19                 TRA     s:29069

  29058 19 006172   004033 236000 11                 LDQ     VM_STATUS_FOLDER_FMT
        19 006173   000033 772000                    QRL     27
        19 006174   000064 737000                    LLS     52
        19 006175   000140 135007                    SBLA    96,DL
        19 006176   000323 236000 20                 LDQ     211
PL6.E3A0      #001=VMO$MAIL File=VMO$MAIL.:VMB6TSI                               WED 08/20/97 15:19 Page:476
        19 006177   003040 757000 11                 STAQ    F_FDSLO

     2889    29069    3           F_FDSLO.NVECS# = 1;

  29069 19 006200   000001 235007                    LDA     1,DL
        19 006201   003051 755000 11                 STA     F_FDSLO+9

     2890    29070    3           CALL VMD$WRITE_BUF (F_FDSLO);

  29070 19 006202   000322 630400 20                 EPPR0   210
        19 006203   000024 631400 20                 EPPR1   20
        19 006204   000000 701000 xent               TSX1    VMD$WRITE_BUF
        19 006205   000000 011000                    NOP     0

     2891    29071        /**/
     2892    29072    3           WORK_STRING.L# = LENGTHC(WORK_STRING.NAME#);

  29072 19 006206   777000 236003                    LDQ     -512,DU
        19 006207   000174 552040 11                 STBQ    WORK_STRING,'40'O

     2893    29073    3           CALL VMS$FMT_SELECT (CURRENT_CONTEXT%,WORK_STRING);

  29073 19 006210   000051 236000 20                 LDQ     41
        19 006211   001663 235000 11                 LDA     CONTEXT_PTR$
        19 006212   201706 757100                    STAQ    I+100,,AUTO
        19 006213   201706 630500                    EPPR0   I+100,,AUTO
        19 006214   000000 631400 20                 EPPR1   0
        19 006215   000000 701000 xent               TSX1    VMS$FMT_SELECT
        19 006216   000000 011000                    NOP     0

     2894    29074                %INIT_STR (CODE=E_STATUS_CCONTEXT_FMT, STR=VM_STATUS_CCONTEXT_FMT,
     2895    29075                VECT="F_FDSLO.FMT_", TEST=YES);

  29082 19 006217   040000 106400                    CMPC    fill='040'O
        19 006220   004105 200120 11                 ADSC9   VM_STATUS_CCONTEXT_FMT   cn=1,n=80
        19 006221   000035 000001 20                 ADSC9   29                       cn=0,n=1
        19 006222   006230 601000 19                 TNZ     s:29087
PL6.E3A0      #001=VMO$MAIL File=VMO$MAIL.:VMB6TSI                               WED 08/20/97 15:19 Page:477

  29084 19 006223   000324 630400 20                 EPPR0   212
        19 006224   000021 631400 20                 EPPR1   17
        19 006225   000000 701000 xent               TSX1    VMD$ERRMSG
        19 006226   000000 011000                    NOP     0

  29085 19 006227   006236 710000 19                 TRA     s:29098

  29087 19 006230   004105 236000 11                 LDQ     VM_STATUS_CCONTEXT_FMT
        19 006231   000033 772000                    QRL     27
        19 006232   000064 737000                    LLS     52
        19 006233   000140 135007                    SBLA    96,DL
        19 006234   000327 236000 20                 LDQ     215
        19 006235   003040 757000 11                 STAQ    F_FDSLO

     2896    29098    3           VECT_ARRAY(0) = VECTOR(SUBSTR(WORK_STRING.NAME#,0,WORK_STRING.L#));

  29098 19 006236   000174 236000 11                 LDQ     WORK_STRING
        19 006237   000033 772000                    QRL     27
        19 006240   000064 737000                    LLS     52
        19 006241   000140 135007                    SBLA    96,DL
        19 006242   000317 236000 20                 LDQ     207
        19 006243   003076 757000 11                 STAQ    VECT_ARRAY

     2897    29099    3           CALL VMD$WRITE_BUF (F_FDSLO);

  29099 19 006244   000322 630400 20                 EPPR0   210
        19 006245   000024 631400 20                 EPPR1   20
        19 006246   000000 701000 xent               TSX1    VMD$WRITE_BUF
        19 006247   000000 011000                    NOP     0

     2898    29100        /**/
     2899    29101    3           WORK_STRING.L# = LENGTHC(WORK_STRING.NAME#);

  29101 19 006250   777000 236003                    LDQ     -512,DU
        19 006251   000174 552040 11                 STBQ    WORK_STRING,'40'O

PL6.E3A0      #001=VMO$MAIL File=VMO$MAIL.:VMB6TSI                               WED 08/20/97 15:19 Page:478
     2900    29102    3           CALL VMS$FMT_SELECT (SELECTED_CONTEXT%,WORK_STRING);

  29102 19 006252   000051 236000 20                 LDQ     41
        19 006253   001664 235000 11                 LDA     CONTEXT_PTR$+1
        19 006254   201706 757100                    STAQ    I+100,,AUTO
        19 006255   201706 630500                    EPPR0   I+100,,AUTO
        19 006256   000000 631400 20                 EPPR1   0
        19 006257   000000 701000 xent               TSX1    VMS$FMT_SELECT
        19 006260   000000 011000                    NOP     0

     2901    29103                %INIT_STR (CODE=E_STATUS_SCONTEXT_FMT, STR=VM_STATUS_SCONTEXT_FMT,
     2902    29104                VECT="F_FDSLO.FMT_", TEST=YES);

  29111 19 006261   040000 106400                    CMPC    fill='040'O
        19 006262   004060 200120 11                 ADSC9   VM_STATUS_SCONTEXT_FMT   cn=1,n=80
        19 006263   000035 000001 20                 ADSC9   29                       cn=0,n=1
        19 006264   006272 601000 19                 TNZ     s:29116

  29113 19 006265   000330 630400 20                 EPPR0   216
        19 006266   000021 631400 20                 EPPR1   17
        19 006267   000000 701000 xent               TSX1    VMD$ERRMSG
        19 006270   000000 011000                    NOP     0

  29114 19 006271   006300 710000 19                 TRA     s:29127

  29116 19 006272   004060 236000 11                 LDQ     VM_STATUS_SCONTEXT_FMT
        19 006273   000033 772000                    QRL     27
        19 006274   000064 737000                    LLS     52
        19 006275   000140 135007                    SBLA    96,DL
        19 006276   000333 236000 20                 LDQ     219
        19 006277   003040 757000 11                 STAQ    F_FDSLO

     2903    29127    3           VECT_ARRAY(0) = VECTOR(SUBSTR(WORK_STRING.NAME#,0,WORK_STRING.L#));

  29127 19 006300   000174 236000 11                 LDQ     WORK_STRING
        19 006301   000033 772000                    QRL     27
        19 006302   000064 737000                    LLS     52
PL6.E3A0      #001=VMO$MAIL File=VMO$MAIL.:VMB6TSI                               WED 08/20/97 15:19 Page:479
        19 006303   000140 135007                    SBLA    96,DL
        19 006304   000317 236000 20                 LDQ     207
        19 006305   003076 757000 11                 STAQ    VECT_ARRAY

     2904    29128    3           CALL VMD$WRITE_BUF (F_FDSLO);

  29128 19 006306   000322 630400 20                 EPPR0   210
        19 006307   000024 631400 20                 EPPR1   20
        19 006310   000000 701000 xent               TSX1    VMD$WRITE_BUF
        19 006311   000000 011000                    NOP     0

     2905    29129        /**/
     2906    29130    3           IF SELECTED_CONTEXT%.MESSAGE_POINTER = -1

  29130 19 006312   001664 470400 11                 LDP0    CONTEXT_PTR$+1
        19 006313   000000 235100                    LDA     0,,PR0
        19 006314   000334 115000 20                 CMPA    220
        19 006315   006337 601000 19                 TNZ     s:29161

     2907    29131    3           THEN
     2908    29132    4           DO;

     2909    29133                    %INIT_STR (CODE=E_STATUS_POSITION_OUTSIDE_FMT, STR=
             29133                        VM_STATUS_POSITION_OUTSIDE_FMT,
     2910    29134                    VECT="F_FDSLO.FMT_", TEST=YES);

  29141 19 006316   040000 106400                    CMPC    fill='040'O
        19 006317   004157 200120 11                 ADSC9   VM_STATUS_POSITION_OUTSIDE_FMT cn=1,n=80
        19 006320   000035 000001 20                 ADSC9   29                       cn=0,n=1
        19 006321   006327 601000 19                 TNZ     s:29146

  29143 19 006322   000335 630400 20                 EPPR0   221
        19 006323   000021 631400 20                 EPPR1   17
        19 006324   000000 701000 xent               TSX1    VMD$ERRMSG
        19 006325   000000 011000                    NOP     0

  29144 19 006326   006335 710000 19                 TRA     s:29157
PL6.E3A0      #001=VMO$MAIL File=VMO$MAIL.:VMB6TSI                               WED 08/20/97 15:19 Page:480

  29146 19 006327   004157 236000 11                 LDQ     VM_STATUS_POSITION_OUTSIDE_FMT
        19 006330   000033 772000                    QRL     27
        19 006331   000064 737000                    LLS     52
        19 006332   000140 135007                    SBLA    96,DL
        19 006333   000340 236000 20                 LDQ     224
        19 006334   003040 757000 11                 STAQ    F_FDSLO

     2911    29157    4               F_FDSLO.NVECS# = 0;

  29157 19 006335   003051 450000 11                 STZ     F_FDSLO+9

     2912    29158    4           END;

  29158 19 006336   006363 710000 19                 TRA     s:29188

     2913    29159    3           ELSE
     2914    29160    4           DO;

     2915    29161    4               VECT_ARRAY(0) = VECTOR(SELECTED_CONTEXT%.MESSAGE_POINTER);

  29161 19 006337   777640 235007                    LDA     -96,DL
        19 006340   001664 236000 11                 LDQ     CONTEXT_PTR$+1
        19 006341   003076 757000 11                 STAQ    VECT_ARRAY

     2916    29162                    %INIT_STR (CODE=E_STATUS_POSITION_FMT, STR=VM_STATUS_POSITION_FMT,
     2917    29163                    VECT="F_FDSLO.FMT_", TEST=YES);

  29170 19 006342   040000 106400                    CMPC    fill='040'O
        19 006343   004132 200120 11                 ADSC9   VM_STATUS_POSITION_FMT   cn=1,n=80
        19 006344   000035 000001 20                 ADSC9   29                       cn=0,n=1
        19 006345   006353 601000 19                 TNZ     s:29175

  29172 19 006346   000341 630400 20                 EPPR0   225
        19 006347   000021 631400 20                 EPPR1   17
        19 006350   000000 701000 xent               TSX1    VMD$ERRMSG
        19 006351   000000 011000                    NOP     0
PL6.E3A0      #001=VMO$MAIL File=VMO$MAIL.:VMB6TSI                               WED 08/20/97 15:19 Page:481

  29173 19 006352   006361 710000 19                 TRA     s:29186

  29175 19 006353   004132 236000 11                 LDQ     VM_STATUS_POSITION_FMT
        19 006354   000033 772000                    QRL     27
        19 006355   000064 737000                    LLS     52
        19 006356   000140 135007                    SBLA    96,DL
        19 006357   000344 236000 20                 LDQ     228
        19 006360   003040 757000 11                 STAQ    F_FDSLO

     2918    29186    4               F_FDSLO.NVECS# = 1;

  29186 19 006361   000001 235007                    LDA     1,DL
        19 006362   003051 755000 11                 STA     F_FDSLO+9

     2919    29187    4           END;

     2920    29188    3           CALL VMD$WRITE_BUF (F_FDSLO);

  29188 19 006363   000322 630400 20                 EPPR0   210
        19 006364   000024 631400 20                 EPPR1   20
        19 006365   000000 701000 xent               TSX1    VMD$WRITE_BUF
        19 006366   000000 011000                    NOP     0

     2921    29189        /**/
     2922    29190    3           F_FDSLO.NVECS# = 1;

  29190 19 006367   000001 235007                    LDA     1,DL
        19 006370   003051 755000 11                 STA     F_FDSLO+9

     2923    29191                %INIT_STR (CODE=E_STATUS_DMSGS_FMT, STR=VM_STATUS_DMSGS_FMT,
     2924    29192                VECT="F_FDSLO.FMT_", TEST=YES);

  29199 19 006371   040000 106400                    CMPC    fill='040'O
        19 006372   004204 200120 11                 ADSC9   VM_STATUS_DMSGS_FMT      cn=1,n=80
        19 006373   000035 000001 20                 ADSC9   29                       cn=0,n=1
        19 006374   006402 601000 19                 TNZ     s:29204
PL6.E3A0      #001=VMO$MAIL File=VMO$MAIL.:VMB6TSI                               WED 08/20/97 15:19 Page:482

  29201 19 006375   000345 630400 20                 EPPR0   229
        19 006376   000021 631400 20                 EPPR1   17
        19 006377   000000 701000 xent               TSX1    VMD$ERRMSG
        19 006400   000000 011000                    NOP     0

  29202 19 006401   006410 710000 19                 TRA     s:29215

  29204 19 006402   004204 236000 11                 LDQ     VM_STATUS_DMSGS_FMT
        19 006403   000033 772000                    QRL     27
        19 006404   000064 737000                    LLS     52
        19 006405   000140 135007                    SBLA    96,DL
        19 006406   000350 236000 20                 LDQ     232
        19 006407   003040 757000 11                 STAQ    F_FDSLO

     2925    29215    3           VECT_ARRAY(0) = VECTOR(VM_PROFILE.NUM_DEL_MESSAGES);

  29215 19 006410   777640 235007                    LDA     -96,DL
        19 006411   000000 236000 xsym               LDQ     VM_PROFILE$
        19 006412   000007 036003                    ADLQ    7,DU
        19 006413   003076 757000 11                 STAQ    VECT_ARRAY

     2926    29216    3           CALL VMD$WRITE_BUF (F_FDSLO);

  29216 19 006414   000322 630400 20                 EPPR0   210
        19 006415   000024 631400 20                 EPPR1   20
        19 006416   000000 701000 xent               TSX1    VMD$WRITE_BUF
        19 006417   000000 011000                    NOP     0

     2927    29217        /**/
     2928    29218                %INIT_STR (CODE=E_STATUS_NMSGS_FMT, STR=VM_STATUS_NMSGS_FMT,
     2929    29219                VECT="F_FDSLO.FMT_", TEST=YES);

  29226 19 006420   040000 106400                    CMPC    fill='040'O
        19 006421   004231 200120 11                 ADSC9   VM_STATUS_NMSGS_FMT      cn=1,n=80
        19 006422   000035 000001 20                 ADSC9   29                       cn=0,n=1
        19 006423   006431 601000 19                 TNZ     s:29231
PL6.E3A0      #001=VMO$MAIL File=VMO$MAIL.:VMB6TSI                               WED 08/20/97 15:19 Page:483

  29228 19 006424   000351 630400 20                 EPPR0   233
        19 006425   000021 631400 20                 EPPR1   17
        19 006426   000000 701000 xent               TSX1    VMD$ERRMSG
        19 006427   000000 011000                    NOP     0

  29229 19 006430   006437 710000 19                 TRA     s:29242

  29231 19 006431   004231 236000 11                 LDQ     VM_STATUS_NMSGS_FMT
        19 006432   000033 772000                    QRL     27
        19 006433   000064 737000                    LLS     52
        19 006434   000140 135007                    SBLA    96,DL
        19 006435   000354 236000 20                 LDQ     236
        19 006436   003040 757000 11                 STAQ    F_FDSLO

     2930    29242    3           VECT_ARRAY(0) = VECTOR(VM_PROFILE.NUM_NEW_MESSAGES);

  29242 19 006437   777640 235007                    LDA     -96,DL
        19 006440   000000 236000 xsym               LDQ     VM_PROFILE$
        19 006441   000006 036003                    ADLQ    6,DU
        19 006442   003076 757000 11                 STAQ    VECT_ARRAY

     2931    29243    3           CALL VMD$WRITE_BUF (F_FDSLO);

  29243 19 006443   000322 630400 20                 EPPR0   210
        19 006444   000024 631400 20                 EPPR1   20
        19 006445   000000 701000 xent               TSX1    VMD$WRITE_BUF
        19 006446   000000 011000                    NOP     0

     2932    29244        /**/
     2933    29245                %INIT_STR (CODE=E_STATUS_TMSGS_FMT, STR=VM_STATUS_TMSGS_FMT,
     2934    29246                VECT="F_FDSLO.FMT_", TEST=YES);

  29253 19 006447   040000 106400                    CMPC    fill='040'O
        19 006450   004256 200120 11                 ADSC9   VM_STATUS_TMSGS_FMT      cn=1,n=80
        19 006451   000035 000001 20                 ADSC9   29                       cn=0,n=1
        19 006452   006460 601000 19                 TNZ     s:29258
PL6.E3A0      #001=VMO$MAIL File=VMO$MAIL.:VMB6TSI                               WED 08/20/97 15:19 Page:484

  29255 19 006453   000355 630400 20                 EPPR0   237
        19 006454   000021 631400 20                 EPPR1   17
        19 006455   000000 701000 xent               TSX1    VMD$ERRMSG
        19 006456   000000 011000                    NOP     0

  29256 19 006457   006466 710000 19                 TRA     s:29269

  29258 19 006460   004256 236000 11                 LDQ     VM_STATUS_TMSGS_FMT
        19 006461   000033 772000                    QRL     27
        19 006462   000064 737000                    LLS     52
        19 006463   000140 135007                    SBLA    96,DL
        19 006464   000360 236000 20                 LDQ     240
        19 006465   003040 757000 11                 STAQ    F_FDSLO

     2935    29269    3           VECT_ARRAY(0) = VECTOR(VM_PROFILE.NUM_MESSAGES);

  29269 19 006466   777640 235007                    LDA     -96,DL
        19 006467   000000 236000 xsym               LDQ     VM_PROFILE$
        19 006470   000005 036003                    ADLQ    5,DU
        19 006471   003076 757000 11                 STAQ    VECT_ARRAY

     2936    29270    3           CALL VMD$WRITE_BUF (F_FDSLO);

  29270 19 006472   000322 630400 20                 EPPR0   210
        19 006473   000024 631400 20                 EPPR1   20
        19 006474   000000 701000 xent               TSX1    VMD$WRITE_BUF
        19 006475   000000 011000                    NOP     0

     2937    29271        /**/
     2938    29272                %INIT_STR (CODE=E_STATUS_HMSGS_FMT, STR=VM_STATUS_HMSGS_FMT,
     2939    29273                VECT="F_FDSLO.FMT_", TEST=YES);

  29280 19 006476   040000 106400                    CMPC    fill='040'O
        19 006477   004303 200120 11                 ADSC9   VM_STATUS_HMSGS_FMT      cn=1,n=80
        19 006500   000035 000001 20                 ADSC9   29                       cn=0,n=1
        19 006501   006507 601000 19                 TNZ     s:29285
PL6.E3A0      #001=VMO$MAIL File=VMO$MAIL.:VMB6TSI                               WED 08/20/97 15:19 Page:485

  29282 19 006502   000361 630400 20                 EPPR0   241
        19 006503   000021 631400 20                 EPPR1   17
        19 006504   000000 701000 xent               TSX1    VMD$ERRMSG
        19 006505   000000 011000                    NOP     0

  29283 19 006506   006515 710000 19                 TRA     s:29296

  29285 19 006507   004303 236000 11                 LDQ     VM_STATUS_HMSGS_FMT
        19 006510   000033 772000                    QRL     27
        19 006511   000064 737000                    LLS     52
        19 006512   000140 135007                    SBLA    96,DL
        19 006513   000364 236000 20                 LDQ     244
        19 006514   003040 757000 11                 STAQ    F_FDSLO

     2940    29296    3           VECT_ARRAY(0) = VECTOR(VM_PROFILE.HI_MESSAGE_NUMBER);

  29296 19 006515   777640 235007                    LDA     -96,DL
        19 006516   000000 236000 xsym               LDQ     VM_PROFILE$
        19 006517   000011 036003                    ADLQ    9,DU
        19 006520   003076 757000 11                 STAQ    VECT_ARRAY

     2941    29297    3           CALL VMD$WRITE_BUF (F_FDSLO);

  29297 19 006521   000322 630400 20                 EPPR0   210
        19 006522   000024 631400 20                 EPPR1   20
        19 006523   000000 701000 xent               TSX1    VMD$WRITE_BUF
        19 006524   000000 011000                    NOP     0
        19 006525   016452 710000 19                 TRA     CONTINUE

     2942    29298        %EJECT;
PL6.E3A0      #001=VMO$MAIL File=VMO$MAIL.:VMB6TSI                               WED 08/20/97 15:19 Page:486
     2943    29299        /* Display user command */
     2944    29300    3       CASE (%CMD_DISPLAY_USER);

     2945    29301    3           INDX2 = 0;                  /* Used as counter */

  29301 19 006526   000375 450000 11                 STZ     INDX2

     2946    29302    3           IF OUT$ -> P$B.NSUBLKS = 0

  29302 19 006527   200023 474500                    LDP4    OUT$,,AUTO
        19 006530   400001 220100                    LDX0    1,,PR4
        19 006531   006547 601000 19                 TNZ     s:29317

     2947    29303    4           THEN DO;    /* Display all user definitions */

     2948    29304    4   DI_USER_ALL:
     2949    29305    4               VM_USERKEY.TEXT = ' ';

  29305 19 006532   040000 100400       DI_USER_ALL  MLR     fill='040'O
        19 006533   000035 000001 20                 ADSC9   29                       cn=0,n=1
        19 006534   000722 400310 11                 ADSC9   VM_USERKEY               cn=2,n=200

     2950    29306    5               DO FOREVER;

     2951    29307    5                   CALL VMA$GET_LIST_NEXT (VM_USERKEY,VM_ADDLIST$,

  29307 19 006535   000365 630400 20                 EPPR0   245
        19 006536   000021 631400 20                 EPPR1   17
        19 006537   000000 701000 xent               TSX1    VMA$GET_LIST_NEXT
        19 006540   006763 702000 19                 TSX2    END_DI_USER

     2952    29308    5                     M$MAIL_GLOBAL_NUM) ALTRET(END_DI_USER);
     2953    29309    5                   CALL VMD$DI_USER (VM_USERKEY,OUTDCB);

  29309 19 006541   000370 630400 20                 EPPR0   248
        19 006542   000000 631400 20                 EPPR1   0
        19 006543   000000 701000 xent               TSX1    VMD$DI_USER
PL6.E3A0      #001=VMO$MAIL File=VMO$MAIL.:VMB6TSI                               WED 08/20/97 15:19 Page:487
        19 006544   000000 011000                    NOP     0

     2954    29310    5                   INDX2 = INDX2 + 1;

  29310 19 006545   000375 054000 11                 AOS     INDX2

     2955    29311    5               END;

  29311 19 006546   006535 710000 19                 TRA     s:29307

     2956    29312    4           END;
     2957    29313    4           ELSE DO;

     2958    29314        /*
     2959    29315                ***** Handle output clause, if any ...
     2960    29316        */
     2961    29317    4               BLK$ = OUT$ -> P$B.SUBLK$ (OUT$ -> P$B.NSUBLKS - 1);

  29317 19 006547   400002 236110                    LDQ     2,X0,PR4
        19 006550   200024 756100                    STQ     BLK$,,AUTO

     2962    29318    4               IF BLK$ -> P$B.CODE = %OPT_OUTPUT

  29318 19 006551   200024 475500                    LDP5    BLK$,,AUTO
        19 006552   500000 720100                    LXL0    0,,PR5
        19 006553   000005 100003                    CMPX0   5,DU
        19 006554   006604 601000 19                 TNZ     s:29335

     2963    29319    5               THEN DO;

     2964    29320    5                   CALL XUR$OPENOUT (M$OUT_NUM, BLK$ -> P$B)

  29320 19 006555   000265 235000 20                 LDA     181
        19 006556   201706 757100                    STAQ    I+100,,AUTO
        19 006557   201706 630500                    EPPR0   I+100,,AUTO
        19 006560   000000 631400 20                 EPPR1   0
        19 006561   000000 701000 xent               TSX1    XUR$OPENOUT
PL6.E3A0      #001=VMO$MAIL File=VMO$MAIL.:VMB6TSI                               WED 08/20/97 15:19 Page:488
        19 006562   006566 702000 19                 TSX2    s:29325

     2965    29321    6                   WHENRETURN DO;

     2966    29322    6                       OUTDCB = M$OUT_NUM;

  29322 19 006563   000075 235000 12                 LDA     M$OUT_NUM
        19 006564   000402 755000 11                 STA     OUTDCB

     2967    29323    6                   END;

  29323 19 006565   006600 710000 19                 TRA     s:29328

     2968    29324    6                   WHENALTRETURN DO;

     2969    29325    6                       CALL XUR$ERRMSG (XUG$GETCMD.ERR#,M$OUT_NUM);

  29325 19 006566   000265 236000 20                 LDQ     181
        19 006567   201707 756100                    STQ     I+101,,AUTO
        19 006570   200003 236100                    LDQ     XUG_GETCMD$,,AUTO
        19 006571   000001 036003                    ADLQ    1,DU
        19 006572   201706 756100                    STQ     I+100,,AUTO
        19 006573   201706 630500                    EPPR0   I+100,,AUTO
        19 006574   000000 631400 20                 EPPR1   0
        19 006575   000000 701000 xent               TSX1    XUR$ERRMSG
        19 006576   000000 011000                    NOP     0

     2970    29326    6                       GOTO CONTINUE;

  29326 19 006577   016452 710000 19                 TRA     CONTINUE

     2971    29327    6                   END;
     2972    29328    5                   IF OUT$ -> P$B.NSUBLKS = 1

  29328 19 006600   200023 470500                    LDP0    OUT$,,AUTO
        19 006601   000001 220100                    LDX0    1,,PR0
        19 006602   000001 100003                    CMPX0   1,DU
PL6.E3A0      #001=VMO$MAIL File=VMO$MAIL.:VMB6TSI                               WED 08/20/97 15:19 Page:489
        19 006603   006532 600000 19                 TZE     DI_USER_ALL

     2973    29329    5                   THEN            /* No name specified */
     2974    29330    5                       GOTO DI_USER_ALL;
     2975    29331    5               END;

     2976    29332        /*
     2977    29333                ***** Handle wildcarded name ...
     2978    29334        */
     2979    29335    4               CALL INDEX(INDX1,'?',OUT$->P$B.SUBLK$(0)->P$S.TEXT) ALTRET(

  29335 19 006604   200023 470500                    LDP0    OUT$,,AUTO
        19 006605   000003 471500                    LDP1    3,,PR0
        19 006606   100004 236100                    LDQ     4,,PR1
        19 006607   000033 772000                    QRL     27
        19 006610   000000 620006                    EAX0    0,QL
        19 006611   000000 124540                    SCM     mask='000'O
        19 006612   100004 200010                    ADSC9   4,,PR1                   cn=1,n=*X0
        19 006613   000225 000001 20                 ADSC9   149                      cn=0,n=1
        19 006614   200033 000100                    ARG     INDX1,,AUTO
        19 006615   006742 606400 19                 TTN     NON_WILD_DI_USER

     2980    29336    4                 NON_WILD_DI_USER);
     2981    29337    4               VM_WILDCARD.PATTERN_ = VECTOR(OUT$->P$B.SUBLK$(0)->P$S.TEXT);

  29337 19 006616   000003 471500                    LDP1    3,,PR0
        19 006617   100004 236100                    LDQ     4,,PR1
        19 006620   000033 772000                    QRL     27
        19 006621   000064 737000                    LLS     52
        19 006622   000140 135007                    SBLA    96,DL
        19 006623   201706 451500                    STP1    I+100,,AUTO
        19 006624   201706 236100                    LDQ     I+100,,AUTO
        19 006625   000215 036000 20                 ADLQ    141
        19 006626   001634 757000 11                 STAQ    VM_WILDCARD

     2982    29338    4               CALL XLATE(OUT$->P$B.SUBLK$(0)->P$S.TEXT, LOWER_UPPER,

PL6.E3A0      #001=VMO$MAIL File=VMO$MAIL.:VMB6TSI                               WED 08/20/97 15:19 Page:490
  29338 19 006627   000003 471500                    LDP1    3,,PR0
        19 006630   100004 236100                    LDQ     4,,PR1
        19 006631   000033 772000                    QRL     27
        19 006632   000000 620006                    EAX0    0,QL
        19 006633   000000 473400 xsym               LDP3    B$XL_UPPER$
        19 006634   000000 621006                    EAX1    0,QL
        19 006635   040140 160540                    MVT     fill='040'O
        19 006636   100004 200010                    ADSC9   4,,PR1                   cn=1,n=*X0
        19 006637   100004 200011                    ADSC9   4,,PR1                   cn=1,n=*X1
        19 006640   300000 000100                    ARG     0,,PR3

     2983    29339    4                 OUT$->P$B.SUBLK$(0)->P$S.TEXT);
     2984    29340    4               IF INDX1 = 0

  29340 19 006641   200033 235100                    LDA     INDX1,,AUTO
        19 006642   006647 601000 19                 TNZ     s:29344

     2985    29341    4               THEN
     2986    29342    4                   VM_USERKEY.TEXT = ' '; /* Start at first entry */

  29342 19 006643   040000 100400                    MLR     fill='040'O
        19 006644   000035 000001 20                 ADSC9   29                       cn=0,n=1
        19 006645   000722 400310 11                 ADSC9   VM_USERKEY               cn=2,n=200
        19 006646   006677 710000 19                 TRA     s:29349

     2987    29343    5               ELSE DO;

     2988    29344    5                   VM_USERKEY.TEXT = OUT$ -> P$B.SUBLK$(0) -> P$S.TEXT;

  29344 19 006647   200023 470500                    LDP0    OUT$,,AUTO
        19 006650   000003 471500                    LDP1    3,,PR0
        19 006651   100004 236100                    LDQ     4,,PR1
        19 006652   000033 772000                    QRL     27
        19 006653   000000 620006                    EAX0    0,QL
        19 006654   040000 100540                    MLR     fill='040'O
        19 006655   100004 200010                    ADSC9   4,,PR1                   cn=1,n=*X0
        19 006656   000722 400310 11                 ADSC9   VM_USERKEY               cn=2,n=200
PL6.E3A0      #001=VMO$MAIL File=VMO$MAIL.:VMB6TSI                               WED 08/20/97 15:19 Page:491

     2989    29345    5                   SUBSTR (VM_USERKEY.TEXT, INDX1) = ' ';

  29345 19 006657   777467 620005                    EAX0    -201,AL
        19 006660   777777 660003                    ERX0    -1,DU
        19 006661   040045 100400                    MLR     fill='040'O
        19 006662   000035 000001 20                 ADSC9   29                       cn=0,n=1
        19 006663   000722 400010 11                 ADSC9   VM_USERKEY,A             cn=2,n=*X0

     2990    29346    5                   SUBSTR (VM_USERKEY.TEXT, INDX1-1, 1) = BINASC(ASCBIN(SUBSTR(
             29346                            VM_USERKEY.TEXT, INDX1-1, 1)) - 1);

  29346 19 006664   000100 101405                    MRL     fill='000'O
        19 006665   000722 200001 11                 ADSC9   VM_USERKEY,A             cn=1,n=1
        19 006666   201706 000004                    ADSC9   I+100,,AUTO              cn=0,n=4
        19 006667   201706 236100                    LDQ     I+100,,AUTO
        19 006670   000001 136007                    SBLQ    1,DL
        19 006671   000033 736000                    QLS     27
        19 006672   000302 276000 20                 ORQ     194
        19 006673   201707 756100                    STQ     I+101,,AUTO
        19 006674   040005 100500                    MLR     fill='040'O
        19 006675   201707 000004                    ADSC9   I+101,,AUTO              cn=0,n=4
        19 006676   000722 200001 11                 ADSC9   VM_USERKEY,A             cn=1,n=1

     2991    29347    5               END;

     2992    29348    5               DO FOREVER;

     2993    29349    5                   CALL VMA$GET_LIST_NEXT (VM_USERKEY,VM_ADDLIST$,

  29349 19 006677   000365 630400 20                 EPPR0   245
        19 006700   000021 631400 20                 EPPR1   17
        19 006701   000000 701000 xent               TSX1    VMA$GET_LIST_NEXT
        19 006702   006763 702000 19                 TSX2    END_DI_USER

     2994    29350    5                     M$MAIL_GLOBAL_NUM) ALTRET(END_DI_USER);
     2995    29351    5                   IF INDX1 > 0
PL6.E3A0      #001=VMO$MAIL File=VMO$MAIL.:VMB6TSI                               WED 08/20/97 15:19 Page:492

  29351 19 006703   200033 235100                    LDA     INDX1,,AUTO
        19 006704   006717 604400 19                 TMOZ    s:29355
        19 006705   200023 470500                    LDP0    OUT$,,AUTO
        19 006706   000003 471500                    LDP1    3,,PR0
        19 006707   100004 236100                    LDQ     4,,PR1
        19 006710   000033 772000                    QRL     27
        19 006711   000000 620005                    EAX0    0,AL
        19 006712   200033 721100                    LXL1    INDX1,,AUTO
        19 006713   040040 106540                    CMPC    fill='040'O
        19 006714   100004 200010                    ADSC9   4,,PR1                   cn=1,n=*X0
        19 006715   000722 400011 11                 ADSC9   VM_USERKEY               cn=2,n=*X1
        19 006716   006741 602000 19                 TNC     s:29365

     2996    29352    5                    AND SUBSTR(VM_USERKEY.TEXT, 0, INDX1) > SUBSTR(OUT$ -> P$B.SUBLK$(
             29352                              0) -> P$S.TEXT, 0, INDX1)
     2997    29353    5                   THEN
     2998    29354    5                       EXIT;
     2999    29355    5                   VM_WILDCARD.INPUT_ = VECTOR(SUBSTR(VM_USERKEY.TEXT,0,

  29355 19 006717   000722 236000 11                 LDQ     VM_USERKEY
        19 006720   000033 772000                    QRL     27
        19 006721   777777 620006                    EAX0    -1,QL
        19 006722   000000 635010                    EAA     0,X0
        19 006723   000002 771000                    ARL     2
        19 006724   000140 135007                    SBLA    96,DL
        19 006725   000244 236000 20                 LDQ     164
        19 006726   001636 757000 11                 STAQ    VM_WILDCARD+2

     3000    29356    5                     VM_USERKEY.COUNT-1)); /* One less for type */
     3001    29357    5                   CALL X$WILDCMP (VM_WILDCARD) ALTRET(NO_MATCH_DI_USER);

  29357 19 006727   000237 630400 20                 EPPR0   159
        19 006730   000024 631400 20                 EPPR1   20
        19 006731   000000 701000 xent               TSX1    X$WILDCMP
        19 006732   006740 702000 19                 TSX2    NO_MATCH_DI_USER

PL6.E3A0      #001=VMO$MAIL File=VMO$MAIL.:VMB6TSI                               WED 08/20/97 15:19 Page:493
     3002    29358    5                   CALL VMD$DI_USER (VM_USERKEY,OUTDCB);

  29358 19 006733   000370 630400 20                 EPPR0   248
        19 006734   000000 631400 20                 EPPR1   0
        19 006735   000000 701000 xent               TSX1    VMD$DI_USER
        19 006736   000000 011000                    NOP     0

     3003    29359    5                   INDX2 = INDX2 + 1;

  29359 19 006737   000375 054000 11                 AOS     INDX2

     3004    29360    5   NO_MATCH_DI_USER:
     3005    29361    5               END;             /* Do forever ... end */

  29361 19 006740   006677 710000 19    NO_MATCH_DI* TRA     s:29349

     3006    29362        /*
     3007    29363             ***** Handle non-wild case ...
     3008    29364        */
     3009    29365    5               DO NEVER;

  29365 19 006741   006763 710000 19                 TRA     END_DI_USER

     3010    29366    5   NON_WILD_DI_USER:
     3011    29367    5                   VM_USERKEY.TEXT = OUT$->P$B.SUBLK$(0)->P$S.TEXT;

  29367 19 006742   200023 470500       NON_WILD_DI* LDP0    OUT$,,AUTO
        19 006743   000003 471500                    LDP1    3,,PR0
        19 006744   100004 236100                    LDQ     4,,PR1
        19 006745   000033 772000                    QRL     27
        19 006746   000000 620006                    EAX0    0,QL
        19 006747   040000 100540                    MLR     fill='040'O
        19 006750   100004 200010                    ADSC9   4,,PR1                   cn=1,n=*X0
        19 006751   000722 400310 11                 ADSC9   VM_USERKEY               cn=2,n=200

     3012    29368    5                   CALL VMA$GET_LIST (VM_USERKEY,VM_ADDLIST$,

PL6.E3A0      #001=VMO$MAIL File=VMO$MAIL.:VMB6TSI                               WED 08/20/97 15:19 Page:494
  29368 19 006752   000365 630400 20                 EPPR0   245
        19 006753   000021 631400 20                 EPPR1   17
        19 006754   000000 701000 xent               TSX1    VMA$GET_LIST
        19 006755   006763 702000 19                 TSX2    END_DI_USER

     3013    29369    5                     M$MAIL_GLOBAL_NUM) ALTRET(END_DI_USER);
     3014    29370    5                   CALL VMD$DI_USER (VM_USERKEY,OUTDCB);

  29370 19 006756   000370 630400 20                 EPPR0   248
        19 006757   000000 631400 20                 EPPR1   0
        19 006760   000000 701000 xent               TSX1    VMD$DI_USER
        19 006761   000000 011000                    NOP     0

     3015    29371    5                   INDX2 = INDX2 + 1;

  29371 19 006762   000375 054000 11                 AOS     INDX2

     3016    29372    5               END;             /* Do never ... end */

     3017    29373    4           END;

  29373 19 006763                       END_DI_USER  null
     3018    29374    3   END_DI_USER: ;
     3019    29375    3           IF INDX2 ~= 1 OR NOT DCBADDR(OUTDCB) -> F$DCB.DDEV.UCOUT#

  29375 19 006763   000375 235000 11                 LDA     INDX2
        19 006764   000001 115007                    CMPA    1,DL
        19 006765   006775 601000 19                 TNZ     s:29377
        19 006766   000074 470400 20                 LDP0    60
        19 006767   000000 471500                    LDP1    0,,PR0
        19 006770   000402 720000 11                 LXL0    OUTDCB
        19 006771   100000 473510                    LDP3    0,X0,PR1
        19 006772   300004 236100                    LDQ     4,,PR3
        19 006773   020000 316007                    CANQ    8192,DL
        19 006774   016452 601000 19                 TNZ     CONTINUE

     3020    29376    3           THEN
