PL6.E3A0      #002=VMO$CLEANUP File=VMO$MAIL.:VMB6TSI                            WED 08/20/97 15:23 Page:1080
     6809        1        /*T***********************************************************/
     6810        2        /*T*                                                         */
     6811        3        /*T* Copyright (c) Bull HN Information Systems Inc., 1997    */
     6812        4        /*T*                                                         */
     6813        5        /*T***********************************************************/
     6814        6        /*X* DMC,PLM=4,IND=4,CTI=2,DTI=0,ENI=0,ECI=0,CSI=0,DCI=4 */
     6815        7        /*******************************************************************/
     6816        8        /*F*    NAME:        VMO$CLEANUP
     6817        9                PURPOSE:     To exit in an orderly manner from MAIL.
     6818       10                DESCRIPTION: All dcbs will be closed, EXIT CONTROL reset,
     6819       11                             and anything else necessary to shut MAIL down
     6820       12                             cleanly.
     6821       13        */
     6822       14
     6823       15        /*******************************************************************/
     6824       16        VMO$CLEANUP: PROC;
     6825       17        /***** Include files *****/
     6826       18        %INCLUDE CP_6;
     6827     5577        %INCLUDE CP_6_SUBS;
     6828     6117        %INCLUDE VM_DATA_R;
     6829     6548        %INCLUDE VM_MACRO_C;
     6830     7816        /***** Fpts *****/
     6831     7817        %FPT_CLOSE (FPTN=CLOSE_SAVE,DISP=SAVE);
     6832     7859        %FPT_CLOSE (FPTN=CLOSE_SCRATCH,DISP=SCRATCH);
     6833     7901        %F$DCB;
     6834     7958        %VM_FOLDER_INFO (NAME=VM_CURRENT_FOLDER, STCLASS=SYMREF);
     6835     8010    1   DCL M$OUT_NUM UBIN SYMREF;
     6836     8011        %EJECT;
PL6.E3A0      #002=VMO$CLEANUP File=VMO$MAIL.:VMB6TSI                            WED 08/20/97 15:23 Page:1081
     6837     8012    1       VM_CURRENT_FOLDER.FLAGS.UPDATE = %NO#;
     6838     8013        /*
     6839     8014             ***** Close all dcbs ...
     6840     8015        */
     6841     8016    1       IF DCBADDR(M$SI_NUM) -> F$DCB.FCD#
     6842     8017    1       THEN                            /* Close it */
     6843     8018    2       DO;
     6844     8019    2           CLOSE_SAVE.V.DCB# = M$SI_NUM;
     6845     8020    2           CALL M$CLOSE (CLOSE_SAVE) ALTRET(IGNORE_SI);
     6846     8021    2       END;
     6847     8022    1   IGNORE_SI:
     6848     8023    1       IF DCBADDR(M$NODE_NUM) -> F$DCB.FCD#
     6849     8024    1       THEN                            /* Close it */
     6850     8025    2       DO;
     6851     8026    2           CLOSE_SAVE.V.DCB# = M$NODE_NUM;
     6852     8027    2           CALL M$CLOSE (CLOSE_SAVE) ALTRET(IGNORE_NODE);
     6853     8028    2       END;
     6854     8029    1   IGNORE_NODE:;
     6855     8030    1       IF DCBADDR(M$LO_NUM) -> F$DCB.FCD#
     6856     8031    1       THEN
     6857     8032    2       DO;                          /* Close it */
     6858     8033    2           CLOSE_SAVE.V.DCB# = M$LO_NUM;
     6859     8034    2           CALL M$CLOSE (CLOSE_SAVE) ALTRET(IGNORE_LO);
     6860     8035    2       END;
     6861     8036    1   IGNORE_LO:
     6862     8037    1       IF DCBADDR(M$MAIL_FILE_NUM) -> F$DCB.FCD#
     6863     8038    1       THEN                            /* Close it */
     6864     8039    2       DO;
     6865     8040    2           CLOSE_SAVE.V.DCB# = M$MAIL_FILE_NUM;
     6866     8041    2           CALL M$CLOSE (CLOSE_SAVE) ALTRET(IGNORE_MAIL_FILE);
     6867     8042    2       END;
     6868     8043
     6869     8044    1   IGNORE_MAIL_FILE:
     6870     8045    1       IF DCBADDR(M$ME_NUM) -> F$DCB.FCD#
     6871     8046    1       THEN                            /* Close it */
     6872     8047    2       DO;
     6873     8048    2           CLOSE_SAVE.V.DCB# = M$ME_NUM;
PL6.E3A0      #002=VMO$CLEANUP File=VMO$MAIL.:VMB6TSI                            WED 08/20/97 15:23 Page:1082
     6874     8049    2           CALL M$CLOSE (CLOSE_SAVE) ALTRET(IGNORE_ME);
     6875     8050    2       END;
     6876     8051
     6877     8052    1   IGNORE_ME:
     6878     8053    1       IF DCBADDR(M$OUT_NUM) -> F$DCB.FCD#
     6879     8054    1       THEN                            /* Close it */
     6880     8055    2       DO;
     6881     8056    2           CLOSE_SAVE.V.DCB# = M$OUT_NUM;
     6882     8057    2           CALL M$CLOSE (CLOSE_SAVE) ALTRET(IGNORE_OUT);
     6883     8058    2       END;
     6884     8059
     6885     8060    1   IGNORE_OUT:
     6886     8061                  /* Do not close M$WORK as this may result in a partially renumbered
     6887     8062                  folder replacing the old one */
     6888     8063    1       RETURN;
     6889     8064    1   END VMO$CLEANUP;
     6890     8065        %EOD;

PL6.E3A0      #002=VMO$CLEANUP File=VMO$MAIL.:VMB6TSI                            WED 08/20/97 15:23 Page:1083
--  Include file information  --

   VM_MACRO_C.:VMB6TOU  is referenced.
   B_MACROS_C.:LIB_E05  is referenced.
   VM_DATA_R.:VMB6TOU  cannot be made into a system file and is referenced.
   CP_6_SUBS.:LIB_E05  is referenced.
   CP_6_C.:LIB_E05  is referenced.
   CP_6.:LIB_E05  cannot be made into a system file and is referenced.
      No diagnostics issued in procedure VMO$CLEANUP.

   Procedure VMO$CLEANUP requires 77 words for executable code.
   Procedure VMO$CLEANUP requires 4 words of local(AUTO) storage.

PL6.E3A0      #002=VMO$CLEANUP File=VMO$MAIL.:VMB6TSI                            WED 08/20/97 15:23 Page:1084

 Object Unit name= VMO$CLEANUP                                File name= VMO$MAIL.:VMB6TOU
 UTS= AUG 20 '97 15:23:57.28 WED                              Compiler= PL-6/E31         Sev=      00
 SharedLib= :SHARED_SYSTEM                                    Alt SharedLib=


    ****  Control sections  ****

 Sect   Type Bound  Init  Size OctSiz  Section name(segment info)
    0   DCB   even  none     0      0  M$UC
    1   DCB   even  none     0      0  M$MAIL_FILE
    2   DCB   even  none     0      0  M$MAIL_CENTRAL
    3   DCB   even  none     0      0  M$MAIL_GLOBAL
    4   DCB   even  none     0      0  M$WORK
    5   DCB   even  none     0      0  M$MAIL_COMGROUP
    6   DCB   even  none     0      0  M$DO
    7   DCB   even  none     0      0  M$LO
    8   DCB   even  none     0      0  M$ME
    9   DCB   even  none     0      0  M$NODE
   10   DCB   even  none     0      0  M$SI
   11   Data  even  none    60     74  VMO$CLEANUP
   12   Proc  even  none    77    115  VMO$CLEANUP
   13  RoData even  none     2      2  VMO$CLEANUP

    ****  Entry defs  ****

                              Check   Calling
                             calling  sequence
  Sect OctLoc Primary Altret sequence   type   Parms  Name
    12      0   yes            yes      Std        0  VMO$CLEANUP

  ****  Entry refs  ****

         Check        Calling
        calling       sequence
Altret sequence SRef   type   Args  Name
                       nStd      0 X66_AUTO_0
                       nStd      0 X66_ARET
PL6.E3A0      #002=VMO$CLEANUP File=VMO$MAIL.:VMB6TSI                            WED 08/20/97 15:23 Page:1085

  ****  Data refs  ****

  Flags:  r = read only, s = secondary
Flgs Name                             Flgs Name                             Flgs Name
     M$UC                             r    VM_HEADER$                       r    VM_PROFILE$
r    VM_ADDLIST$                      r    VM_ADDREC$                       r    VM_WORK$
r    VM_SELECT$                       r    VM_PARSEAREA$                    r    VM_INPUT$
r    VM_COPY$                              VM_ENCLLIST$                          VM_ENCLREC$
     VM_HEADER_                            VM_HEADER_INIT_                       VM_PROFILE_
     VM_ADDLIST_                           VM_ADDREC_                            VM_WORK_
     VM_SELECT_                            VM_PARSEAREA_                         VM_INPUT_
     VM_COPY_                              VM_ENCLLIST_                          VM_ENCLREC_
     M$MAIL_FILE                           M$MAIL_CENTRAL                        M$MAIL_GLOBAL
     M$WORK                                M$MAIL_COMGROUP                       M$DO
     M$LO                                  M$ME                                  M$NODE
     M$SI                                  M$MAIL_FILE_NUM                       M$MAIL_CENTRAL_NUM
     M$MAIL_GLOBAL_NUM                     M$WORK_NUM                            M$MAIL_COMGROUP_NUM
     M$DO_NUM                              M$ME_NUM                              M$LO_NUM
     M$SI_NUM                              M$NODE_NUM                       r    B$JIT$
r    B$TCB$                                VM_MAIL_ACCT                          VM_NAME_MAP_NAME
     ERRMSG_FID                            VM_SEND_FILE_NAME                     VM_FORWARD_FILE_NAME
     VM_FORWARD_ENCL_NAME                  VM_FORWARD_FILE_PASS                  VM_MAILCG_NAME
     VM_SITENAME                           VM_MAILCG_SETSTA                      VM_CURRENT_FOLDER
     M$OUT_NUM

  ****  Segment refs  ****

  Flags:  r = read only, s = secondary
Flgs Name                             Flgs Name                             Flgs Name
     ISSID                                 NULLSID                               ROSID
PL6.E3A0      #002=VMO$CLEANUP File=VMO$MAIL.:VMB6TSI                            WED 08/20/97 15:23 Page:1086


     6809        1        /*T***********************************************************/
     6810        2        /*T*                                                         */
     6811        3        /*T* Copyright (c) Bull HN Information Systems Inc., 1997    */
     6812        4        /*T*                                                         */
     6813        5        /*T***********************************************************/
     6814        6        /*X* DMC,PLM=4,IND=4,CTI=2,DTI=0,ENI=0,ECI=0,CSI=0,DCI=4 */
     6815        7        /*******************************************************************/
     6816        8        /*F*    NAME:        VMO$CLEANUP
     6817        9                PURPOSE:     To exit in an orderly manner from MAIL.
     6818       10                DESCRIPTION: All dcbs will be closed, EXIT CONTROL reset,
     6819       11                             and anything else necessary to shut MAIL down
     6820       12                             cleanly.
     6821       13        */
     6822       14
     6823       15        /*******************************************************************/
     6824       16        VMO$CLEANUP: PROC;

     16 12 000000   000000 700200 xent  VMO$CLEANUP  TSX0  ! X66_AUTO_0
        12 000001   000004 000000                    ZERO    4,0

     6825       17        /***** Include files *****/
     6826       18        %INCLUDE CP_6;
     6827     5577        %INCLUDE CP_6_SUBS;
     6828     6117        %INCLUDE VM_DATA_R;
     6829     6548        %INCLUDE VM_MACRO_C;
     6830     7816        /***** Fpts *****/
     6831     7817        %FPT_CLOSE (FPTN=CLOSE_SAVE,DISP=SAVE);
     6832     7859        %FPT_CLOSE (FPTN=CLOSE_SCRATCH,DISP=SCRATCH);
     6833     7901        %F$DCB;
     6834     7958        %VM_FOLDER_INFO (NAME=VM_CURRENT_FOLDER, STCLASS=SYMREF);
     6835     8010    1   DCL M$OUT_NUM UBIN SYMREF;
     6836     8011        %EJECT;
PL6.E3A0      #002=VMO$CLEANUP File=VMO$MAIL.:VMB6TSI                            WED 08/20/97 15:23 Page:1087
     6837     8012    1       VM_CURRENT_FOLDER.FLAGS.UPDATE = %NO#;

   8012 12 000002   000000 236000 13                 LDQ     0
        12 000003   000023 356000 xsym               ANSQ    VM_CURRENT_FOLDER+19

     6838     8013        /*
     6839     8014             ***** Close all dcbs ...
     6840     8015        */
     6841     8016    1       IF DCBADDR(M$SI_NUM) -> F$DCB.FCD#

   8016 12 000004   000001 470400 13                 LDP0    1
        12 000005   000000 471500                    LDP1    0,,PR0
        12 000006   000000 720000 xsym               LXL0    M$SI_NUM
        12 000007   100000 473510                    LDP3    0,X0,PR1
        12 000010   300031 236100                    LDQ     25,,PR3
        12 000011   020000 316007                    CANQ    8192,DL
        12 000012   000020 600000 12                 TZE     IGNORE_SI

     6842     8017    1       THEN                            /* Close it */
     6843     8018    2       DO;

     6844     8019    2           CLOSE_SAVE.V.DCB# = M$SI_NUM;

   8019 12 000013   000032 740000 11                 STX0    CLOSE_SAVE+26

     6845     8020    2           CALL M$CLOSE (CLOSE_SAVE) ALTRET(IGNORE_SI);

   8020 12 000014   000000 630400 11                 EPPR0   CLOSE_SAVE
        12 000015   450001 713400                    CLIMB   alt,close
        12 000016   406000 401760                    pmme    nvectors=13
        12 000017   000020 702000 12                 TSX2    IGNORE_SI

     6846     8021    2       END;

     6847     8022    1   IGNORE_SI:
     6848     8023    1       IF DCBADDR(M$NODE_NUM) -> F$DCB.FCD#

PL6.E3A0      #002=VMO$CLEANUP File=VMO$MAIL.:VMB6TSI                            WED 08/20/97 15:23 Page:1088
   8023 12 000020   000001 470400 13    IGNORE_SI    LDP0    1
        12 000021   000000 471500                    LDP1    0,,PR0
        12 000022   000000 720000 xsym               LXL0    M$NODE_NUM
        12 000023   100000 473510                    LDP3    0,X0,PR1
        12 000024   300031 236100                    LDQ     25,,PR3
        12 000025   020000 316007                    CANQ    8192,DL
        12 000026   000034 600000 12                 TZE     IGNORE_NODE

     6849     8024    1       THEN                            /* Close it */
     6850     8025    2       DO;

     6851     8026    2           CLOSE_SAVE.V.DCB# = M$NODE_NUM;

   8026 12 000027   000032 740000 11                 STX0    CLOSE_SAVE+26

     6852     8027    2           CALL M$CLOSE (CLOSE_SAVE) ALTRET(IGNORE_NODE);

   8027 12 000030   000000 630400 11                 EPPR0   CLOSE_SAVE
        12 000031   450001 713400                    CLIMB   alt,close
        12 000032   406000 401760                    pmme    nvectors=13
        12 000033   000034 702000 12                 TSX2    IGNORE_NODE

     6853     8028    2       END;

   8023 12 000034                       IGNORE_NODE  null
     6854     8029    1   IGNORE_NODE:;
     6855     8030    1       IF DCBADDR(M$LO_NUM) -> F$DCB.FCD#

   8030 12 000034   000001 470400 13                 LDP0    1
        12 000035   000000 471500                    LDP1    0,,PR0
        12 000036   000000 720000 xsym               LXL0    M$LO_NUM
        12 000037   100000 473510                    LDP3    0,X0,PR1
        12 000040   300031 236100                    LDQ     25,,PR3
        12 000041   020000 316007                    CANQ    8192,DL
        12 000042   000050 600000 12                 TZE     IGNORE_LO

     6856     8031    1       THEN
PL6.E3A0      #002=VMO$CLEANUP File=VMO$MAIL.:VMB6TSI                            WED 08/20/97 15:23 Page:1089
     6857     8032    2       DO;                          /* Close it */

     6858     8033    2           CLOSE_SAVE.V.DCB# = M$LO_NUM;

   8033 12 000043   000032 740000 11                 STX0    CLOSE_SAVE+26

     6859     8034    2           CALL M$CLOSE (CLOSE_SAVE) ALTRET(IGNORE_LO);

   8034 12 000044   000000 630400 11                 EPPR0   CLOSE_SAVE
        12 000045   450001 713400                    CLIMB   alt,close
        12 000046   406000 401760                    pmme    nvectors=13
        12 000047   000050 702000 12                 TSX2    IGNORE_LO

     6860     8035    2       END;

     6861     8036    1   IGNORE_LO:
     6862     8037    1       IF DCBADDR(M$MAIL_FILE_NUM) -> F$DCB.FCD#

   8037 12 000050   000001 470400 13    IGNORE_LO    LDP0    1
        12 000051   000000 471500                    LDP1    0,,PR0
        12 000052   000000 720000 xsym               LXL0    M$MAIL_FILE_NUM
        12 000053   100000 473510                    LDP3    0,X0,PR1
        12 000054   300031 236100                    LDQ     25,,PR3
        12 000055   020000 316007                    CANQ    8192,DL
        12 000056   000064 600000 12                 TZE     IGNORE_MAIL_FILE

     6863     8038    1       THEN                            /* Close it */
     6864     8039    2       DO;

     6865     8040    2           CLOSE_SAVE.V.DCB# = M$MAIL_FILE_NUM;

   8040 12 000057   000032 740000 11                 STX0    CLOSE_SAVE+26

     6866     8041    2           CALL M$CLOSE (CLOSE_SAVE) ALTRET(IGNORE_MAIL_FILE);

   8041 12 000060   000000 630400 11                 EPPR0   CLOSE_SAVE
        12 000061   450001 713400                    CLIMB   alt,close
PL6.E3A0      #002=VMO$CLEANUP File=VMO$MAIL.:VMB6TSI                            WED 08/20/97 15:23 Page:1090
        12 000062   406000 401760                    pmme    nvectors=13
        12 000063   000064 702000 12                 TSX2    IGNORE_MAIL_FILE

     6867     8042    2       END;

     6868     8043
     6869     8044    1   IGNORE_MAIL_FILE:
     6870     8045    1       IF DCBADDR(M$ME_NUM) -> F$DCB.FCD#

   8045 12 000064   000001 470400 13    IGNORE_MAIL* LDP0    1
        12 000065   000000 471500                    LDP1    0,,PR0
        12 000066   000000 720000 xsym               LXL0    M$ME_NUM
        12 000067   100000 473510                    LDP3    0,X0,PR1
        12 000070   300031 236100                    LDQ     25,,PR3
        12 000071   020000 316007                    CANQ    8192,DL
        12 000072   000100 600000 12                 TZE     IGNORE_ME

     6871     8046    1       THEN                            /* Close it */
     6872     8047    2       DO;

     6873     8048    2           CLOSE_SAVE.V.DCB# = M$ME_NUM;

   8048 12 000073   000032 740000 11                 STX0    CLOSE_SAVE+26

     6874     8049    2           CALL M$CLOSE (CLOSE_SAVE) ALTRET(IGNORE_ME);

   8049 12 000074   000000 630400 11                 EPPR0   CLOSE_SAVE
        12 000075   450001 713400                    CLIMB   alt,close
        12 000076   406000 401760                    pmme    nvectors=13
        12 000077   000100 702000 12                 TSX2    IGNORE_ME

     6875     8050    2       END;

     6876     8051
     6877     8052    1   IGNORE_ME:
     6878     8053    1       IF DCBADDR(M$OUT_NUM) -> F$DCB.FCD#

PL6.E3A0      #002=VMO$CLEANUP File=VMO$MAIL.:VMB6TSI                            WED 08/20/97 15:23 Page:1091
   8053 12 000100   000001 470400 13    IGNORE_ME    LDP0    1
        12 000101   000000 471500                    LDP1    0,,PR0
        12 000102   000000 720000 xsym               LXL0    M$OUT_NUM
        12 000103   100000 473510                    LDP3    0,X0,PR1
        12 000104   300031 236100                    LDQ     25,,PR3
        12 000105   020000 316007                    CANQ    8192,DL
        12 000106   000114 600000 12                 TZE     IGNORE_OUT

     6879     8054    1       THEN                            /* Close it */
     6880     8055    2       DO;

     6881     8056    2           CLOSE_SAVE.V.DCB# = M$OUT_NUM;

   8056 12 000107   000032 740000 11                 STX0    CLOSE_SAVE+26

     6882     8057    2           CALL M$CLOSE (CLOSE_SAVE) ALTRET(IGNORE_OUT);

   8057 12 000110   000000 630400 11                 EPPR0   CLOSE_SAVE
        12 000111   450001 713400                    CLIMB   alt,close
        12 000112   406000 401760                    pmme    nvectors=13
        12 000113   000114 702000 12                 TSX2    IGNORE_OUT

     6883     8058    2       END;

     6884     8059
     6885     8060    1   IGNORE_OUT:
     6886     8061                  /* Do not close M$WORK as this may result in a partially renumbered
     6887     8062                  folder replacing the old one */
     6888     8063    1       RETURN;

   8063 12 000114   000000 702200 xent  IGNORE_OUT   TSX2  ! X66_ARET

CLOSE_SAVE
 Sect OctLoc
  11     000   000003 777640   000032 006000   000000 177640   000000 006014    ................
  11     004   000000 177640   000000 006014   000000 177640   000000 006014    ................
  11     030*  000000 177640   000000 006014   000000 000002   000000 000040    ...............
PL6.E3A0      #002=VMO$CLEANUP File=VMO$MAIL.:VMB6TSI                            WED 08/20/97 15:23 Page:1092
  11     034   000220 000000   000000 000000                                    ........

CLOSE_SCRATCH
 Sect OctLoc
  11     036   000003 777640   000070 006000   000000 177640   000000 006014    .....8..........
  11     042   000000 177640   000000 006014   000000 177640   000000 006014    ................
  11     066*  000000 177640   000000 006014   000000 000001   000000 000040    ...............
  11     072   000220 000000   000000 000000                                    ........

(unnamed)
 Sect OctLoc
  13     000   377777 777777   000000 006003                                    ........
     6889     8064    1   END VMO$CLEANUP;
     6890     8065        %EOD;

PL6.E3A0      #002=VMO$CLEANUP File=VMO$MAIL.:VMB6TSI                            WED 08/20/97 15:23 Page:1093
--  Include file information  --

   VM_MACRO_C.:VMB6TOU  is referenced.
   B_MACROS_C.:LIB_E05  is referenced.
   VM_DATA_R.:VMB6TOU  cannot be made into a system file and is referenced.
   CP_6_SUBS.:LIB_E05  is referenced.
   CP_6_C.:LIB_E05  is referenced.
   CP_6.:LIB_E05  cannot be made into a system file and is referenced.
      No diagnostics issued in procedure VMO$CLEANUP.
PL6.E3A0      #002=VMO$CLEANUP File=VMO$MAIL.:VMB6TSI                            WED 08/20/97 15:23 Page:1094

 **** Variables and constants ****

  ****  Section 011  Data  VMO$CLEANUP

  ****  Scalars and arrays  ****
OctLoc.c.b A Datatyp(siz) R M Lvl/name                 OctLoc.c.b A Datatyp(siz) R M Lvl/name

     0-0-0/d STRC(1080)  r     1 CLOSE_SAVE                36-0-0/d STRC(1080)  r     1 CLOSE_SCRATCH

  ****  SYMREF variables  ****

  ****  Scalars and arrays  ****
OctLoc.c.b A Datatyp(siz) R M Lvl/name                 OctLoc.c.b A Datatyp(siz) R M Lvl/name

     0-0-0/w PTR               1 B$JIT$                     0-0-0/w PTR               1 B$TCB$
     0-0-0/c ASTR(9)     r     1 ERRMSG_FID                 0-0-0/w UBIN              1 M$DO_NUM
     0-0-0/w UBIN        r     1 M$LO_NUM                   0-0-0/w UBIN              1 M$MAIL_CENTRAL_NUM
     0-0-0/w UBIN              1 M$MAIL_COMGROUP_NUM        0-0-0/w UBIN        r     1 M$MAIL_FILE_NUM
     0-0-0/w UBIN              1 M$MAIL_GLOBAL_NUM          0-0-0/w UBIN        r     1 M$ME_NUM
     0-0-0/w UBIN        r     1 M$NODE_NUM                 0-0-0/w UBIN        r     1 M$OUT_NUM
     0-0-0/w UBIN        r     1 M$SI_NUM                   0-0-0/w UBIN              1 M$WORK_NUM
     0-0-0/w PTR               1 VM_ADDLIST$                0-0-0/d VECT              1 VM_ADDLIST_
     0-0-0/w PTR               1 VM_ADDREC$                 0-0-0/d VECT              1 VM_ADDREC_
     0-0-0/w PTR               1 VM_COPY$                   0-0-0/d VECT              1 VM_COPY_
     0-0-0/w STRC(2529)  r     1 VM_CURRENT_FOLDER          0-0-0/w PTR               1 VM_ENCLLIST$
     0-0-0/d VECT              1 VM_ENCLLIST_               0-0-0/w PTR               1 VM_ENCLREC$
     0-0-0/d VECT              1 VM_ENCLREC_                0-0-0/c STRC(270)         1 VM_FORWARD_ENCL_NAME
     0-0-0/c STRC(270)         1 VM_FORWARD_FILE_NAME       0-0-0/c STRC(72)          1 VM_FORWARD_FILE_PASS
     0-0-0/w PTR               1 VM_HEADER$                 0-0-0/d VECT              1 VM_HEADER_
     0-0-0/d VECT              1 VM_HEADER_INIT_            0-0-0/w PTR               1 VM_INPUT$
     0-0-0/d VECT              1 VM_INPUT_                  0-0-0/c STRC(72)          1 VM_MAILCG_NAME
     0-0-0/w STRC(432)         1 VM_MAILCG_SETSTA           0-0-0/c STRC(72)          1 VM_MAIL_ACCT
     0-0-0/c STRC(54)          1 VM_NAME_MAP_NAME           0-0-0/w PTR               1 VM_PARSEAREA$
     0-0-0/d VECT              1 VM_PARSEAREA_              0-0-0/w PTR               1 VM_PROFILE$
     0-0-0/d VECT              1 VM_PROFILE_                0-0-0/w PTR               1 VM_SELECT$
     0-0-0/d VECT              1 VM_SELECT_                 0-0-0/c STRC(288)         1 VM_SEND_FILE_NAME
     0-0-0/c CHAR(8)           1 VM_SITENAME                0-0-0/w PTR               1 VM_WORK$
PL6.E3A0      #002=VMO$CLEANUP File=VMO$MAIL.:VMB6TSI                            WED 08/20/97 15:23 Page:1095
     0-0-0/d VECT              1 VM_WORK_

  ****  BASED and DCB variables  ****

  ****  Scalars and arrays  ****
OctLoc.c.b A Datatyp(siz) R M Lvl/name                 OctLoc.c.b A Datatyp(siz) R M Lvl/name

     0-0-0/d ASTR(3528)  r     1 F$DCB                      0-0-0N  NULL        r     1 M$DO
     0-0-0N  NULL        r     1 M$LO                       0-0-0N  NULL        r     1 M$MAIL_CENTRAL
     0-0-0N  NULL        r     1 M$MAIL_COMGROUP            0-0-0N  NULL        r     1 M$MAIL_FILE
     0-0-0N  NULL        r     1 M$MAIL_GLOBAL              0-0-0N  NULL        r     1 M$ME
     0-0-0N  NULL        r     1 M$NODE                     0-0-0N  NULL        r     1 M$SI
     0-0-0N  NULL        r     1 M$UC                       0-0-0N  NULL        r     1 M$WORK
     0-0-0/c ASTR(9)     r     1 X$STRING


   Procedure VMO$CLEANUP requires 77 words for executable code.
   Procedure VMO$CLEANUP requires 4 words of local(AUTO) storage.
PL6.E3A0      #002=VMO$CLEANUP File=VMO$MAIL.:VMB6TSI                            WED 08/20/97 15:23 Page:1096
          *** CROSS REFERENCE LISTING ***
**     DENOTES     IDENTIFIER DEFINITION
<<                 IDENTIFIER'S VALUE SET
>>                 IDENTIFIER'S VALUE USED
<>                 IDENTIFIER SET AND/OR USED
--                 IDENTIFIER REFERENCED
PL6.E3A0      #002=VMO$CLEANUP File=VMO$MAIL.:VMB6TSI                            WED 08/20/97 15:23 Page:1097
          MINI XREF LISTING

CLOSE_SAVE
      7840**DCL      8020<>CALL     8027<>CALL     8034<>CALL     8041<>CALL     8049<>CALL     8057<>CALL
CLOSE_SAVE.SN_
      7840**DCL      7840--REDEF
CLOSE_SAVE.UTL_
      7841**DCL      7841--REDEF
CLOSE_SAVE.V
      7845**DCL      7840--DCLINIT
CLOSE_SAVE.V.DCB#
      7846**DCL      8019<<ASSIGN   8026<<ASSIGN   8033<<ASSIGN   8040<<ASSIGN   8048<<ASSIGN   8056<<ASSIGN
CLOSE_SAVE.V.EXPIRE#
      7855**DCL      7855--REDEF
CLOSE_SAVE.V.TYPE#
      7853**DCL      7853--REDEF
CLOSE_SAVE.V.XTNSIZE#
      7850**DCL      7850--REDEF    7852--REDEF
CLOSE_SCRATCH.SN_
      7882**DCL      7882--REDEF
CLOSE_SCRATCH.UTL_
      7883**DCL      7883--REDEF
CLOSE_SCRATCH.V
      7887**DCL      7882--DCLINIT
CLOSE_SCRATCH.V.EXPIRE#
      7897**DCL      7897--REDEF
CLOSE_SCRATCH.V.TYPE#
      7895**DCL      7895--REDEF
CLOSE_SCRATCH.V.XTNSIZE#
      7892**DCL      7892--REDEF    7894--REDEF
ERRMSG_FID.L#
      6393**DCL      6393--IMP-SIZ
F$DCB.ACTPOS
      7934**DCL      7934--REDEF
PL6.E3A0      #002=VMO$CLEANUP File=VMO$MAIL.:VMB6TSI                            WED 08/20/97 15:23 Page:1098
F$DCB.ARS#
      7908**DCL      7908--REDEF
F$DCB.ATTR
      7927**DCL      7928--REDEF
F$DCB.BORROW
      7942**DCL      7942--REDEF    7942--REDEF    7942--REDEF
F$DCB.DCBNAME.L
      7956**DCL      7956--IMP-SIZ
F$DCB.EOMCHAR#
      7912**DCL      7912--REDEF
F$DCB.FCD#
      7921**DCL      8016>>IF       8023>>IF       8030>>IF       8037>>IF       8045>>IF       8053>>IF
F$DCB.FLDID
      7937**DCL      7937--REDEF
F$DCB.FORM$
      7931**DCL      7931--REDEF
F$DCB.FSECT
      7947**DCL      7947--REDEF
F$DCB.FSN#
      7924**DCL      7924--REDEF    7924--REDEF    7925--REDEF
F$DCB.HEADER$
      7930**DCL      7930--REDEF
F$DCB.IXTNSIZE#
      7928**DCL      7928--REDEF
F$DCB.LASTSTA$
      7917**DCL      7917--REDEF
F$DCB.LVL
      7943**DCL      7943--REDEF
F$DCB.NAME#.C
      7918**DCL      7918--REDEF
F$DCB.NOEOF
      7940**DCL      7940--REDEF
F$DCB.NRECS#
      7929**DCL      7929--REDEF
F$DCB.NRECX
      7948**DCL      7948--REDEF
PL6.E3A0      #002=VMO$CLEANUP File=VMO$MAIL.:VMB6TSI                            WED 08/20/97 15:23 Page:1099
F$DCB.OHDR
      7940**DCL      7940--REDEF
F$DCB.ORG#
      7923**DCL      7923--REDEF
F$DCB.PRECNO
      7946**DCL      7946--REDEF
F$DCB.RCSZ
      7952**DCL      7952--REDEF
F$DCB.RES#
      7919**DCL      7919--REDEF
F$DCB.SETX
      7931**DCL      7931--REDEF
F$DCB.TAB$
      7931**DCL      7931--REDEF
F$DCB.TDA
      7945**DCL      7946--REDEF
F$DCB.WSN#
      7919**DCL      7919--REDEF
IGNORE_LO
      8037**LABEL    8034--CALLALT
IGNORE_MAIL_FILE
      8045**LABEL    8041--CALLALT
IGNORE_ME
      8053**LABEL    8049--CALLALT
IGNORE_NODE
      8023**LABEL    8027--CALLALT
IGNORE_OUT
      8063**LABEL    8057--CALLALT
IGNORE_SI
      8023**LABEL    8020--CALLALT
M$CLOSE
      5505**DCL-ENT  8020--CALL     8027--CALL     8034--CALL     8041--CALL     8049--CALL     8057--CALL
M$LO_NUM
      6318**DCL      8030--IF       8033>>ASSIGN
M$MAIL_FILE_NUM
      6304**DCL      8037--IF       8040>>ASSIGN
PL6.E3A0      #002=VMO$CLEANUP File=VMO$MAIL.:VMB6TSI                            WED 08/20/97 15:23 Page:1100
M$ME_NUM
      6316**DCL      8045--IF       8048>>ASSIGN
M$NODE_NUM
      6321**DCL      8023--IF       8026>>ASSIGN
M$OUT_NUM
      8010**DCL      8053--IF       8056>>ASSIGN
M$SI_NUM
      6320**DCL      8016--IF       8019>>ASSIGN
VM_CURRENT_FOLDER.FLAGS.UPDATE
      7992**DCL      8012<<ASSIGN
X$STRING.SIZ
      6239**DCL      6240--IMP-SIZ

PL6.E3A0      #003=VMO$XCON File=VMO$MAIL.:VMB6TSI                               WED 08/20/97 15:24 Page:1101
     6891        1        /*T***********************************************************/
     6892        2        /*T*                                                         */
     6893        3        /*T* Copyright (c) Bull HN Information Systems Inc., 1997    */
     6894        4        /*T*                                                         */
     6895        5        /*T***********************************************************/
     6896        6        /*X* DMC,PLM=4,IND=4,CTI=2,DTI=0,ENI=0,ECI=0,CSI=0,DCI=4 */
     6897        7        VMO$XCON: PROC ASYNC;
     6898        8        %INCLUDE CP_6;
     6899     5567        %INCLUDE VM_MACRO_C;
     6900     6835        %INCLUDE VM_PERR_C;
     6901     7130        %INCLUDE B_ERRORS_C;
     6902     8257        %INCLUDE CP_6_SUBS;
     6903     8797        %INCLUDE VM_DATA_R;
     6904     9228        %FPT_XCON (FPTN=RESET,STCLASS=CONSTANT);
     6905     9242        %VM_KEYTYPES;
     6906     9263        %VM_PROFILE (NAME=VM_PROSTUB,STCLASS=AUTO); /* Big enuff for fixed fields */
     6907     9350        %VM_PROKEY (STCLASS=CONSTANT);
     6908     9365        %FPT_READ (FPTN=READ_PROFILE,KEY=VM_PROKEY,KEYS=YES,DCB=M$MAIL_FILE,STCLASS=STATIC);
     6909     9404        %FPT_ENQ (FPTN=ENQ_PROFILE, STCLASS=CONSTANT,
     6910     9405             DCB=M$MAIL_FILE,
     6911     9406             RNAME=VM_PRORES,
     6912     9407             SHARE=NONE,
     6913     9408             WAIT=YES);
     6914     9426        %VM_PRORES;
     6915     9440        %VLP_ERRCODE (FPTN=E_PROWRERR,FCG="VM",MID="O",
     6916     9441                  ERR#=%E$PROWRERR,STCLASS=CONSTANT);
     6917     9486        /*E*      ERROR: VMO-E$PROWRERR-0
     6918     9487                  MESSAGE: Error writing PROFILE record, some new mail may be lost.
     6919     9488        */
     6920     9489              %B$TCB (STCLASS="BASED(B$TCB$)");
     6921     9492        %VM_PROFILE;
     6922     9579    1   DCL VMD$PUT_PROFILE ENTRY(1) ALTRET;
     6923     9580        %INCLUDE XUR_ENTRY;
     6924     9612        %B$ALT;
     6925     9620        /***** External routines *****/
     6926     9621    1   DCL VMO$CLEANUP ENTRY;
     6927     9622        /***** Symref data *****/
PL6.E3A0      #003=VMO$XCON File=VMO$MAIL.:VMB6TSI                               WED 08/20/97 15:24 Page:1102
     6928     9623        %VM_FOLDER_INFO (NAME=VM_CURRENT_FOLDER,STCLASS="SYMREF");
     6929     9675        %EJECT;
PL6.E3A0      #003=VMO$XCON File=VMO$MAIL.:VMB6TSI                               WED 08/20/97 15:24 Page:1103
     6930     9676    1       CALL M$XCON (RESET);              /* Incase the stuff below dosen't work
     6931     9677                                                   either */
     6932     9678    1       IF VM_CURRENT_FOLDER.FLAGS.OPEN AND VM_CURRENT_FOLDER.FLAGS.UPDATE THEN
     6933     9679    2       DO;
     6934     9680    2           READ_PROFILE.BUF_ = VECTOR(VM_PROSTUB);
     6935     9681    2           CALL M$ENQ (ENQ_PROFILE) ALTRET(ALT);
     6936     9682    2           CALL M$READ (READ_PROFILE) /* Get fixed fields */
     6937     9683    3           WHENALTRETURN DO;
     6938     9684    3               IF B$TCB.ALT$->B$ALT.ERR.CODE ~= %E$LD THEN GOTO ALT;
     6939     9685    3           END;
     6940     9686    2           VM_PROFILE.NUM_MESSAGES = VM_PROSTUB.NUM_MESSAGES;
     6941     9687    2           VM_PROFILE.NUM_NEW_MESSAGES = VM_PROSTUB.NUM_NEW_MESSAGES;
     6942     9688    2           VM_PROFILE.HI_MESSAGE_NUMBER = VM_PROSTUB.HI_MESSAGE_NUMBER;
     6943     9689    2           CALL VMD$PUT_PROFILE(M$MAIL_FILE_NUM) ALTRET(ALT);
     6944     9690    2       END;
     6945     9691    2       DO WHILE ('0'B);
     6946     9692    2   ALT:
     6947     9693    2           CALL XUR$ERRMSG(B$TCB.ALT$->B$ALT.ERR);
     6948     9694    2           CALL XUR$ERRMSG(E_PROWRERR);
     6949     9695    2       END;
     6950     9696        /*
     6951     9697             ***** Close all dcbs properly ...
     6952     9698        */
     6953     9699    1       CALL VMO$CLEANUP;
     6954     9700        /*
     6955     9701             ***** If the current folder is still marked
     6956     9702                   as open, then signal mailman that we are closed ...
     6957     9703        */
     6958     9704    1       CALL M$MERCS;
     6959     9705    1   END;
     6960     9706        %EOD;

PL6.E3A0      #003=VMO$XCON File=VMO$MAIL.:VMB6TSI                               WED 08/20/97 15:24 Page:1104
--  Include file information  --

   XUR_ENTRY.:LIB_E05  cannot be made into a system file and is referenced.
   B_MACROS_C.:LIB_E05  is referenced.
   VM_DATA_R.:VMB6TOU  cannot be made into a system file and is referenced.
   CP_6_SUBS.:LIB_E05  is referenced.
   B_ERRORS_C.:LIB_E05  is referenced.
   VM_PERR_C.:VMB6TOU  is referenced.
   VM_MACRO_C.:VMB6TOU  is referenced.
   CP_6_C.:LIB_E05  is referenced.
   CP_6.:LIB_E05  cannot be made into a system file and is referenced.
      No diagnostics issued in procedure VMO$XCON.

   Procedure VMO$XCON requires 60 words for executable code.
   Procedure VMO$XCON requires 118 words of local(AUTO) storage.

PL6.E3A0      #003=VMO$XCON File=VMO$MAIL.:VMB6TSI                               WED 08/20/97 15:24 Page:1105

 Object Unit name= VMO$XCON                                   File name= VMO$MAIL.:VMB6TOU
 UTS= AUG 20 '97 15:24:12.72 WED                              Compiler= PL-6/E31         Sev=      00
 SharedLib= :SHARED_SYSTEM                                    Alt SharedLib=


    ****  Control sections  ****

 Sect   Type Bound  Init  Size OctSiz  Section name(segment info)
    0   DCB   even  none     0      0  M$UC
    1   DCB   even  none     0      0  M$MAIL_FILE
    2   DCB   even  none     0      0  M$MAIL_CENTRAL
    3   DCB   even  none     0      0  M$MAIL_GLOBAL
    4   DCB   even  none     0      0  M$WORK
    5   DCB   even  none     0      0  M$MAIL_COMGROUP
    6   DCB   even  none     0      0  M$DO
    7   DCB   even  none     0      0  M$LO
    8   DCB   even  none     0      0  M$ME
    9   DCB   even  none     0      0  M$NODE
   10   DCB   even  none     0      0  M$SI
   11  RoData even  UTS     19     23  VMO$XCON
   12   Data  even  none    16     20  VMO$XCON
   13   Proc  even  none    60     74  VMO$XCON
   14  RoData even  none     5      5  VMO$XCON

    ****  Entry defs  ****

                              Check   Calling
                             calling  sequence
  Sect OctLoc Primary Altret sequence   type   Parms  Name
    13      0   yes            yes     Async       0  VMO$XCON
PL6.E3A0      #003=VMO$XCON File=VMO$MAIL.:VMB6TSI                               WED 08/20/97 15:24 Page:1106

  ****  Entry refs  ****

         Check        Calling
        calling       sequence
Altret sequence SRef   type   Args  Name
 yes     yes           Std       1 VMD$PUT_PROFILE
         yes           Std       0 VMO$CLEANUP
 yes     yes           Std       7 XUR$ERRMSG
                       nStd      0 X66_AAUTO
                       nStd      0 X66_AARET

  ****  Data refs  ****

  Flags:  r = read only, s = secondary
Flgs Name                             Flgs Name                             Flgs Name
     M$UC                             r    VM_HEADER$                       r    VM_PROFILE$
r    VM_ADDLIST$                      r    VM_ADDREC$                       r    VM_WORK$
r    VM_SELECT$                       r    VM_PARSEAREA$                    r    VM_INPUT$
r    VM_COPY$                              VM_ENCLLIST$                          VM_ENCLREC$
     VM_HEADER_                            VM_HEADER_INIT_                       VM_PROFILE_
     VM_ADDLIST_                           VM_ADDREC_                            VM_WORK_
     VM_SELECT_                            VM_PARSEAREA_                         VM_INPUT_
     VM_COPY_                              VM_ENCLLIST_                          VM_ENCLREC_
     M$MAIL_FILE                           M$MAIL_CENTRAL                        M$MAIL_GLOBAL
     M$WORK                                M$MAIL_COMGROUP                       M$DO
     M$LO                                  M$ME                                  M$NODE
     M$SI                                  M$MAIL_FILE_NUM                       M$MAIL_CENTRAL_NUM
     M$MAIL_GLOBAL_NUM                     M$WORK_NUM                            M$MAIL_COMGROUP_NUM
     M$DO_NUM                              M$ME_NUM                              M$LO_NUM
     M$SI_NUM                              M$NODE_NUM                       r    B$JIT$
r    B$TCB$                                VM_MAIL_ACCT                          VM_NAME_MAP_NAME
     ERRMSG_FID                            VM_SEND_FILE_NAME                     VM_FORWARD_FILE_NAME
     VM_FORWARD_ENCL_NAME                  VM_FORWARD_FILE_PASS                  VM_MAILCG_NAME
     VM_SITENAME                           VM_MAILCG_SETSTA                      VM_CURRENT_FOLDER
PL6.E3A0      #003=VMO$XCON File=VMO$MAIL.:VMB6TSI                               WED 08/20/97 15:24 Page:1107

  ****  Segment refs  ****

  Flags:  r = read only, s = secondary
Flgs Name                             Flgs Name                             Flgs Name
     ISSID                                 NULLSID
PL6.E3A0      #003=VMO$XCON File=VMO$MAIL.:VMB6TSI                               WED 08/20/97 15:24 Page:1108


     6891        1        /*T***********************************************************/
     6892        2        /*T*                                                         */
     6893        3        /*T* Copyright (c) Bull HN Information Systems Inc., 1997    */
     6894        4        /*T*                                                         */
     6895        5        /*T***********************************************************/
     6896        6        /*X* DMC,PLM=4,IND=4,CTI=2,DTI=0,ENI=0,ECI=0,CSI=0,DCI=4 */
     6897        7        VMO$XCON: PROC ASYNC;

      7 13 000000   000000 700200 xent  VMO$XCON     TSX0  ! X66_AAUTO
        13 000001   000166 000000                    ZERO    118,0

     6898        8        %INCLUDE CP_6;
     6899     5567        %INCLUDE VM_MACRO_C;
     6900     6835        %INCLUDE VM_PERR_C;
     6901     7130        %INCLUDE B_ERRORS_C;
     6902     8257        %INCLUDE CP_6_SUBS;
     6903     8797        %INCLUDE VM_DATA_R;
     6904     9228        %FPT_XCON (FPTN=RESET,STCLASS=CONSTANT);
     6905     9242        %VM_KEYTYPES;
     6906     9263        %VM_PROFILE (NAME=VM_PROSTUB,STCLASS=AUTO); /* Big enuff for fixed fields */
     6907     9350        %VM_PROKEY (STCLASS=CONSTANT);
     6908     9365       %FPT_READ (FPTN=READ_PROFILE,KEY=VM_PROKEY,KEYS=YES,DCB=M$MAIL_FILE,STCLASS=STATIC);
     6909     9404        %FPT_ENQ (FPTN=ENQ_PROFILE, STCLASS=CONSTANT,
     6910     9405             DCB=M$MAIL_FILE,
     6911     9406             RNAME=VM_PRORES,
     6912     9407             SHARE=NONE,
     6913     9408             WAIT=YES);
     6914     9426        %VM_PRORES;
     6915     9440        %VLP_ERRCODE (FPTN=E_PROWRERR,FCG="VM",MID="O",
     6916     9441                  ERR#=%E$PROWRERR,STCLASS=CONSTANT);
     6917     9486        /*E*      ERROR: VMO-E$PROWRERR-0
     6918     9487                  MESSAGE: Error writing PROFILE record, some new mail may be lost.
     6919     9488        */
     6920     9489              %B$TCB (STCLASS="BASED(B$TCB$)");
     6921     9492        %VM_PROFILE;
     6922     9579    1   DCL VMD$PUT_PROFILE ENTRY(1) ALTRET;
PL6.E3A0      #003=VMO$XCON File=VMO$MAIL.:VMB6TSI                               WED 08/20/97 15:24 Page:1109
     6923     9580        %INCLUDE XUR_ENTRY;
     6924     9612        %B$ALT;
     6925     9620        /***** External routines *****/
     6926     9621    1   DCL VMO$CLEANUP ENTRY;
     6927     9622        /***** Symref data *****/
     6928     9623        %VM_FOLDER_INFO (NAME=VM_CURRENT_FOLDER,STCLASS="SYMREF");
     6929     9675        %EJECT;
PL6.E3A0      #003=VMO$XCON File=VMO$MAIL.:VMB6TSI                               WED 08/20/97 15:24 Page:1110
     6930     9676    1       CALL M$XCON (RESET);              /* Incase the stuff below dosen't work

   9676 13 000002   000000 630400 11                 EPPR0   RESET
        13 000003   010003 713400                    CLIMB   4099
        13 000004   400400 401760                    pmme    nvectors=2

     6931     9677                                                   either */
     6932     9678    1       IF VM_CURRENT_FOLDER.FLAGS.OPEN AND VM_CURRENT_FOLDER.FLAGS.UPDATE THEN

   9678 13 000005   000023 236000 xsym               LDQ     VM_CURRENT_FOLDER+19
        13 000006   010000 316003                    CANQ    4096,DU
        13 000007   000051 600000 13                 TZE     s:9691
        13 000010   000023 234000 xsym               SZN     VM_CURRENT_FOLDER+19
        13 000011   000051 605000 13                 TPL     s:9691

     6933     9679    2       DO;

     6934     9680    2           READ_PROFILE.BUF_ = VECTOR(VM_PROSTUB);

   9680 13 000012   000000 235000 14                 LDA     0
        13 000013   200164 452500                    STP2    VM_PROSTUB+113,,AUTO
        13 000014   200164 236100                    LDQ     VM_PROSTUB+113,,AUTO
        13 000015   000003 036003                    ADLQ    3,DU
        13 000016   000004 757000 12                 STAQ    READ_PROFILE+4

     6935     9681    2           CALL M$ENQ (ENQ_PROFILE) ALTRET(ALT);

   9681 13 000017   000010 630400 11                 EPPR0   ENQ_PROFILE
        13 000020   420002 713400                    CLIMB   alt,+8194
        13 000021   401000 401760                    pmme    nvectors=3
        13 000022   000052 702000 13                 TSX2    ALT

     6936     9682    2           CALL M$READ (READ_PROFILE) /* Get fixed fields */

   9682 13 000023   000000 630400 12                 EPPR0   READ_PROFILE
        13 000024   440000 713400                    CLIMB   alt,read
        13 000025   401400 401760                    pmme    nvectors=4
PL6.E3A0      #003=VMO$XCON File=VMO$MAIL.:VMB6TSI                               WED 08/20/97 15:24 Page:1111
        13 000026   000030 702000 13                 TSX2    s:9684
        13 000027   000036 710000 13                 TRA     s:9686

     6937     9683    3           WHENALTRETURN DO;

     6938     9684    3               IF B$TCB.ALT$->B$ALT.ERR.CODE ~= %E$LD THEN GOTO ALT;

   9684 13 000030   000000 470400 xsym               LDP0    B$TCB$
        13 000031   000000 471500                    LDP1    0,,PR0
        13 000032   100102 236100                    LDQ     66,,PR1
        13 000033   377770 376007                    ANQ     131064,DL
        13 000034   000070 116007                    CMPQ    56,DL
        13 000035   000052 601000 13                 TNZ     ALT

     6939     9685    3           END;

     6940     9686    2           VM_PROFILE.NUM_MESSAGES = VM_PROSTUB.NUM_MESSAGES;

   9686 13 000036   000000 470400 xsym               LDP0    VM_PROFILE$
        13 000037   200010 235100                    LDA     VM_PROSTUB+5,,AUTO
        13 000040   000005 755100                    STA     5,,PR0

     6941     9687    2           VM_PROFILE.NUM_NEW_MESSAGES = VM_PROSTUB.NUM_NEW_MESSAGES;

   9687 13 000041   200011 236100                    LDQ     VM_PROSTUB+6,,AUTO
        13 000042   000006 756100                    STQ     6,,PR0

     6942     9688    2           VM_PROFILE.HI_MESSAGE_NUMBER = VM_PROSTUB.HI_MESSAGE_NUMBER;

   9688 13 000043   200014 235100                    LDA     VM_PROSTUB+9,,AUTO
        13 000044   000011 755100                    STA     9,,PR0

     6943     9689    2           CALL VMD$PUT_PROFILE(M$MAIL_FILE_NUM) ALTRET(ALT);

   9689 13 000045   000002 630400 14                 EPPR0   2
        13 000046   000001 631400 14                 EPPR1   1
        13 000047   000000 701000 xent               TSX1    VMD$PUT_PROFILE
PL6.E3A0      #003=VMO$XCON File=VMO$MAIL.:VMB6TSI                               WED 08/20/97 15:24 Page:1112
        13 000050   000052 702000 13                 TSX2    ALT

     6944     9690    2       END;

     6945     9691    2       DO WHILE ('0'B);

   9691 13 000051   000066 710000 13                 TRA     s:9699

     6946     9692    2   ALT:
     6947     9693    2           CALL XUR$ERRMSG(B$TCB.ALT$->B$ALT.ERR);

   9693 13 000052   000000 470400 xsym  ALT          LDP0    B$TCB$
        13 000053   000000 471500                    LDP1    0,,PR0
        13 000054   100102 633500                    EPPR3   66,,PR1
        13 000055   200164 453500                    STP3    VM_PROSTUB+113,,AUTO
        13 000056   200164 630500                    EPPR0   VM_PROSTUB+113,,AUTO
        13 000057   000001 631400 14                 EPPR1   1
        13 000060   000000 701000 xent               TSX1    XUR$ERRMSG
        13 000061   000000 011000                    NOP     0

     6948     9694    2           CALL XUR$ERRMSG(E_PROWRERR);

   9694 13 000062   000003 630400 14                 EPPR0   3
        13 000063   000001 631400 14                 EPPR1   1
        13 000064   000000 701000 xent               TSX1    XUR$ERRMSG
        13 000065   000000 011000                    NOP     0

     6949     9695    2       END;

     6950     9696        /*
     6951     9697             ***** Close all dcbs properly ...
     6952     9698        */
     6953     9699    1       CALL VMO$CLEANUP;

   9699 13 000066   000004 631400 14                 EPPR1   4
        13 000067   000000 701000 xent               TSX1    VMO$CLEANUP
        13 000070   000000 011000                    NOP     0
PL6.E3A0      #003=VMO$XCON File=VMO$MAIL.:VMB6TSI                               WED 08/20/97 15:24 Page:1113

     6954     9700        /*
     6955     9701             ***** If the current folder is still marked
     6956     9702                   as open, then signal mailman that we are closed ...
     6957     9703        */
     6958     9704    1       CALL M$MERCS;

   9704 13 000071   010014 713400                    CLIMB   4108
        13 000072   000000 401760                    pmme    nvectors=0

     6959     9705    1   END;

   9705 13 000073   000000 702200 xent               TSX2  ! X66_AARET

RESET
 Sect OctLoc
  11     000   000001 777640   000004 006000   000000 177640   000000 006014    ................
  11     004   000000 000000   000000 000000                                    ........

VM_PROKEY
 Sect OctLoc
  11     006   001001 ******                                                    ....

ENQ_PROFILE
 Sect OctLoc
  11     010   000003 777640   000016 006000   000001 777640   000016 006000    ................
  11     014   000000 177640   000000 006014   000000 540000   777777 777777    ................
  11     020   000000 000000   000000 000000                                    ........

E_PROWRERR
 Sect OctLoc
  11     022   261517 001620                                                    ....

READ_PROFILE
 Sect OctLoc
  12     000   000005 777640   000010 006000   000000 377640   000006 006000    ................
  12     004   000000 177640   000000 006014   000000 177640   000000 006014    ................
PL6.E3A0      #003=VMO$XCON File=VMO$MAIL.:VMB6TSI                               WED 08/20/97 15:24 Page:1114
  12     010   000000 600000   000000 000000   000000 000000   000000 000000    ................
  12     014   000000 000000   000000 000000                                    ........

VM_PRORES
 Sect OctLoc
  12     016   007120 122117   106111 114105                                    .PROFILE

(unnamed)
 Sect OctLoc
  14     000   000160 777640   000001 000000   000000 006000   000022 006000    .p..............
  14     004   000000 000000                                                    ....
     6960     9706        %EOD;

PL6.E3A0      #003=VMO$XCON File=VMO$MAIL.:VMB6TSI                               WED 08/20/97 15:24 Page:1115
--  Include file information  --

   XUR_ENTRY.:LIB_E05  cannot be made into a system file and is referenced.
   B_MACROS_C.:LIB_E05  is referenced.
   VM_DATA_R.:VMB6TOU  cannot be made into a system file and is referenced.
   CP_6_SUBS.:LIB_E05  is referenced.
   B_ERRORS_C.:LIB_E05  is referenced.
   VM_PERR_C.:VMB6TOU  is referenced.
   VM_MACRO_C.:VMB6TOU  is referenced.
   CP_6_C.:LIB_E05  is referenced.
   CP_6.:LIB_E05  cannot be made into a system file and is referenced.
      No diagnostics issued in procedure VMO$XCON.
PL6.E3A0      #003=VMO$XCON File=VMO$MAIL.:VMB6TSI                               WED 08/20/97 15:24 Page:1116

 **** Variables and constants ****

  ****  Section 011 RoData VMO$XCON

  ****  Scalars and arrays  ****
OctLoc.c.b A Datatyp(siz) R M Lvl/name                 OctLoc.c.b A Datatyp(siz) R M Lvl/name

    10-0-0/d STRC(360)   r     1 ENQ_PROFILE               22-0-0/w STRC        r     1 E_PROWRERR
     0-0-0/d STRC(216)   r     1 RESET                      6-0-0/c STRC(18)    r     1 VM_PROKEY

  ****  Section 012  Data  VMO$XCON

  ****  Scalars and arrays  ****
OctLoc.c.b A Datatyp(siz) R M Lvl/name                 OctLoc.c.b A Datatyp(siz) R M Lvl/name

     0-0-0/d STRC(504)   r     1 READ_PROFILE              16-0-0/c STRC(72)    r     1 VM_PRORES

  ****  Auto variables  ****

  ****  Scalars and arrays  ****
OctLoc.c.b A Datatyp(siz) R M Lvl/name                 OctLoc.c.b A Datatyp(siz) R M Lvl/name

     3-0-0/w STRC(4068)  r     1 VM_PROSTUB

  ****  SYMREF variables  ****

  ****  Scalars and arrays  ****
OctLoc.c.b A Datatyp(siz) R M Lvl/name                 OctLoc.c.b A Datatyp(siz) R M Lvl/name

     0-0-0/w PTR               1 B$JIT$                     0-0-0/w PTR         r     1 B$TCB$
     0-0-0/c ASTR(9)     r     1 ERRMSG_FID                 0-0-0/w UBIN              1 M$DO_NUM
     0-0-0/w UBIN              1 M$LO_NUM                   0-0-0/w UBIN              1 M$MAIL_CENTRAL_NUM
     0-0-0/w UBIN              1 M$MAIL_COMGROUP_NUM        0-0-0/w UBIN        r     1 M$MAIL_FILE_NUM
     0-0-0/w UBIN              1 M$MAIL_GLOBAL_NUM          0-0-0/w UBIN              1 M$ME_NUM
     0-0-0/w UBIN              1 M$NODE_NUM                 0-0-0/w UBIN              1 M$SI_NUM
     0-0-0/w UBIN              1 M$WORK_NUM                 0-0-0/w PTR               1 VM_ADDLIST$
     0-0-0/d VECT              1 VM_ADDLIST_                0-0-0/w PTR               1 VM_ADDREC$
PL6.E3A0      #003=VMO$XCON File=VMO$MAIL.:VMB6TSI                               WED 08/20/97 15:24 Page:1117
     0-0-0/d VECT              1 VM_ADDREC_                 0-0-0/w PTR               1 VM_COPY$
     0-0-0/d VECT              1 VM_COPY_                   0-0-0/w STRC(2529)  r     1 VM_CURRENT_FOLDER
     0-0-0/w PTR               1 VM_ENCLLIST$               0-0-0/d VECT              1 VM_ENCLLIST_
     0-0-0/w PTR               1 VM_ENCLREC$                0-0-0/d VECT              1 VM_ENCLREC_
     0-0-0/c STRC(270)         1 VM_FORWARD_ENCL_NAME       0-0-0/c STRC(270)         1 VM_FORWARD_FILE_NAME
     0-0-0/c STRC(72)          1 VM_FORWARD_FILE_PASS       0-0-0/w PTR               1 VM_HEADER$
     0-0-0/d VECT              1 VM_HEADER_                 0-0-0/d VECT              1 VM_HEADER_INIT_
     0-0-0/w PTR               1 VM_INPUT$                  0-0-0/d VECT              1 VM_INPUT_
     0-0-0/c STRC(72)          1 VM_MAILCG_NAME             0-0-0/w STRC(432)         1 VM_MAILCG_SETSTA
     0-0-0/c STRC(72)          1 VM_MAIL_ACCT               0-0-0/c STRC(54)          1 VM_NAME_MAP_NAME
     0-0-0/w PTR               1 VM_PARSEAREA$              0-0-0/d VECT              1 VM_PARSEAREA_
     0-0-0/w PTR         r     1 VM_PROFILE$                0-0-0/d VECT              1 VM_PROFILE_
     0-0-0/w PTR               1 VM_SELECT$                 0-0-0/d VECT              1 VM_SELECT_
     0-0-0/c STRC(288)         1 VM_SEND_FILE_NAME          0-0-0/c CHAR(8)           1 VM_SITENAME
     0-0-0/w PTR               1 VM_WORK$                   0-0-0/d VECT              1 VM_WORK_

  ****  BASED and DCB variables  ****

  ****  Scalars and arrays  ****
OctLoc.c.b A Datatyp(siz) R M Lvl/name                 OctLoc.c.b A Datatyp(siz) R M Lvl/name

     0-0-0/w STRC(2448)  r     1 B$ALT                      0-0-0/w STRC(144)   r     1 B$TCB
     0-0-0N  NULL        r     1 M$DO                       0-0-0N  NULL        r     1 M$LO
     0-0-0N  NULL        r     1 M$MAIL_CENTRAL             0-0-0N  NULL        r     1 M$MAIL_COMGROUP
     0-0-0N  NULL        r     1 M$MAIL_FILE                0-0-0N  NULL        r     1 M$MAIL_GLOBAL
     0-0-0N  NULL        r     1 M$ME                       0-0-0N  NULL        r     1 M$NODE
     0-0-0N  NULL        r     1 M$SI                       0-0-0N  NULL        r     1 M$UC
     0-0-0N  NULL        r     1 M$WORK                     0-0-0/w STRC(4068)  r     1 VM_PROFILE
     0-0-0/c ASTR(9)     r     1 X$STRING


   Procedure VMO$XCON requires 60 words for executable code.
   Procedure VMO$XCON requires 118 words of local(AUTO) storage.
PL6.E3A0      #003=VMO$XCON File=VMO$MAIL.:VMB6TSI                               WED 08/20/97 15:24 Page:1118
          *** CROSS REFERENCE LISTING ***
**     DENOTES     IDENTIFIER DEFINITION
<<                 IDENTIFIER'S VALUE SET
>>                 IDENTIFIER'S VALUE USED
<>                 IDENTIFIER SET AND/OR USED
--                 IDENTIFIER REFERENCED
PL6.E3A0      #003=VMO$XCON File=VMO$MAIL.:VMB6TSI                               WED 08/20/97 15:24 Page:1119
          MINI XREF LISTING

ALT
      9693**LABEL    9681--CALLALT  9684--GOTO     9689--CALLALT
B$ALT.CODE
      9614**DCL      9614--REDEF    9615--REDEF    9615--REDEF
B$ALT.ERR
      9615**DCL      9693<>CALL
B$ALT.ERR.CODE
      9616**DCL      9684>>IF
B$ALT.ERR.ERR#
      9616**DCL      9616--REDEF
B$ALT.EVID
      9615**DCL      9615--REDEF    9615--REDEF
B$TCB.ALT$
      9490**DCL      9684>>IF       9693>>CALL
B$TCB$
      9005**DCL      9490--IMP-PTR  9684>>IF       9693>>CALL
ENQ_PROFILE
      9419**DCL      9681<>CALL
ENQ_PROFILE.V
      9420**DCL      9419--DCLINIT
ERRMSG_FID.L#
      9073**DCL      9073--IMP-SIZ
E_PROWRERR
      9453**DCL      9694<>CALL
M$ENQ
      5561**DCL-ENT  9681--CALL
M$MAIL_FILE_NUM
      8984**DCL      9689<>CALL
M$MERCS
      5552**DCL-ENT  9704--CALL
M$READ
      5496**DCL-ENT  9682--CALL
PL6.E3A0      #003=VMO$XCON File=VMO$MAIL.:VMB6TSI                               WED 08/20/97 15:24 Page:1120
M$XCON
      5550**DCL-ENT  9676--CALL
READ_PROFILE
      9382**DCL      9682<>CALL
READ_PROFILE.BUF_
      9384**DCL      9680<<ASSIGN
READ_PROFILE.STATION_
      9385**DCL      9386--REDEF
READ_PROFILE.V
      9386**DCL      9382--DCLINIT
READ_PROFILE.V.DVBYTE.REREAD#
      9397**DCL      9397--REDEF
READ_PROFILE.V.INDX#
      9395**DCL      9395--REDEF
RESET
      9239**DCL      9676<>CALL
RESET.V
      9240**DCL      9239--DCLINIT
VMD$PUT_PROFILE
      9579**DCL-ENT  9689--CALL
VMO$CLEANUP
      9621**DCL-ENT  9699--CALL
VM_CURRENT_FOLDER.FLAGS.OPEN
      9667**DCL      9678>>IF
VM_CURRENT_FOLDER.FLAGS.UPDATE
      9657**DCL      9678>>IF
VM_PROFILE.HI_MESSAGE_NUMBER
      9547**DCL      9688<<ASSIGN
VM_PROFILE.NUM_MESSAGES
      9539**DCL      9686<<ASSIGN
VM_PROFILE.NUM_NEW_MESSAGES
      9541**DCL      9687<<ASSIGN
VM_PROFILE$
      8925**DCL      9502--IMP-PTR  9686>>ASSIGN   9687>>ASSIGN   9688>>ASSIGN
VM_PROKEY
      9360**DCL      9382--DCLINIT  9383--DCLINIT
PL6.E3A0      #003=VMO$XCON File=VMO$MAIL.:VMB6TSI                               WED 08/20/97 15:24 Page:1121
VM_PRORES
      9436**DCL      9419--DCLINIT
VM_PROSTUB
      9273**DCL      9680--ASSIGN
VM_PROSTUB.HI_MESSAGE_NUMBER
      9318**DCL      9688>>ASSIGN
VM_PROSTUB.NUM_MESSAGES
      9310**DCL      9686>>ASSIGN
VM_PROSTUB.NUM_NEW_MESSAGES
      9312**DCL      9687>>ASSIGN
X$STRING.SIZ
      8919**DCL      8920--IMP-SIZ
XUR$ERRMSG
      9595**DCL-ENT  9693--CALL     9694--CALL

PL6.E3A0      #004=VMO$ABORT File=VMO$MAIL.:VMB6TSI                              WED 08/20/97 15:24 Page:1122
     6961        1        /*T***********************************************************/
     6962        2        /*T*                                                         */
     6963        3        /*T* Copyright (c) Bull HN Information Systems Inc., 1997    */
     6964        4        /*T*                                                         */
     6965        5        /*T***********************************************************/
     6966        6        /*X* DMC,PLM=4,IND=4,CTI=2,DTI=0,ENI=0,ECI=0,CSI=0,DCI=4 */
     6967        7        VMO$ABORT: PROC;
     6968        8        %INCLUDE CP_6;
     6969     5567        %INCLUDE VM_MACRO_C;
     6970     6835        %INCLUDE VM_PERR_C;
     6971     7130        %INCLUDE VM_SUBS_C;
     6972     7390        %INCLUDE CP_6_SUBS;
     6973     7930        %INCLUDE VM_DATA_R;
     6974     8361        %INCLUDE XUR_ENTRY;
     6975     8393        %F$DCB;
     6976     8450        %B$TCB (STCLASS="BASED(B$TCB$)");
     6977     8453        %B$ALT;
     6978     8461        %VM_PROFILE;
     6979     8548        %VM_FOLDER_INFO (NAME=VM_CURRENT_FOLDER,STCLASS="SYMREF");
     6980     8600        %VM_FOLDER_INFO (NAME=VM_WORK_FOLDER,STCLASS="SYMREF");
     6981     8652        %FPT_CLOSE (FPTN=CLOSE_SAVE,DISP=SAVE);
     6982     8694        %VLP_ERRCODE (FPTN=ERROR);
     6983     8739              %VLP_ERRCODE (FPTN=E_FOLDEROLD,FCG="VM",MID="O",
     6984     8740              ERR#=%E$FOLDEROLD,STCLASS=CONSTANT);
     6985     8785    1   DCL VMD$GET_PROFILE ENTRY(1) ALTRET;
     6986     8786
     6987     8787
     6988     8788    1   DCL VMO_REMEMBER REMEMBER SYMREF;
     6989     8789    1   DCL BREAK_TYPE UBIN SYMREF;
     6990     8790    1   DCL FOLDER_WAS_OPEN BIT(1) SYMREF;
     6991     8791    1   DCL INDX2 UBIN SYMREF;
     6992     8792    1   DCL CURRENT_MESSAGE_NUMBER SBIN WORD SYMREF;
     6993     8793
     6994     8794    1       CURRENT_MESSAGE_NUMBER = 0;
     6995     8795
     6996     8796        /*
     6997     8797             ***** Clear any breaks...
PL6.E3A0      #004=VMO$ABORT File=VMO$MAIL.:VMB6TSI                              WED 08/20/97 15:24 Page:1123
     6998     8798        */
     6999     8799    1       CALL XUR$CLRENABLE;
     7000     8800    1       IF BREAK_TYPE > 0
     7001     8801    2       THEN DO;
     7002     8802    2           IF DCBADDR(M$WORK_NUM) -> F$DCB.FCD# THEN
     7003     8803    3           DO;
     7004     8804    3               CLOSE_SAVE.V.DCB# = M$WORK_NUM;
     7005     8805    3               CALL M$CLOSE(CLOSE_SAVE);
     7006     8806    3           END;
     7007     8807    2           VM_WORK_FOLDER.FLAGS.OPEN = %NO#;
     7008     8808        /*
     7009     8809             ***** Restore the profile for the current folder ...
     7010     8810        */
     7011     8811    2           VM_CURRENT_FOLDER.FLAGS.OPEN = FOLDER_WAS_OPEN;
     7012     8812    2           CALL VMD$GET_PROFILE (M$MAIL_FILE_NUM) ALTRET(BAD_PROFILE);
     7013     8813    2           IF BREAK_TYPE = %CMD_COPY_MESSAGE OR BREAK_TYPE = %CMD_MOVE_MESSAGE
     7014     8814    2           THEN
     7015     8815    2               VM_PROFILE.NUM_DEL_MESSAGES = VM_PROFILE.NUM_DEL_MESSAGES + INDX2;
     7016     8816    2       END;
     7017     8817
     7018     8818    2       DO NEVER;
     7019     8819    2   BAD_PROFILE:
     7020     8820    2           ERROR = B$TCB.ALT$ -> B$ALT.ERR;
     7021     8821    2           CALL XUR$ERRMSG(E_FOLDEROLD,B$TCB.ALT$->B$ALT.DCB#);
     7022     8822    2           CALL XUR$ERRMSG(ERROR,M$MAIL_FILE_NUM);
     7023     8823    2       END;
     7024     8824    1       UNWIND TO VMO_REMEMBER;
     7025     8825    1   END VMO$ABORT;

PL6.E3A0      #004=VMO$ABORT File=VMO$MAIL.:VMB6TSI                              WED 08/20/97 15:24 Page:1124
--  Include file information  --

   XUR_ENTRY.:LIB_E05  cannot be made into a system file and is referenced.
   B_MACROS_C.:LIB_E05  is referenced.
   VM_DATA_R.:VMB6TOU  cannot be made into a system file and is referenced.
   CP_6_SUBS.:LIB_E05  is referenced.
   VM_SUBS_C.:VMB6TOU  is referenced.
   VM_PERR_C.:VMB6TOU  is referenced.
   VM_MACRO_C.:VMB6TOU  is referenced.
   CP_6_C.:LIB_E05  is referenced.
   CP_6.:LIB_E05  cannot be made into a system file and is referenced.
      No diagnostics issued in procedure VMO$ABORT.

   Procedure VMO$ABORT requires 60 words for executable code.
   Procedure VMO$ABORT requires 6 words of local(AUTO) storage.

    No errors detected in file VMO$MAIL.:VMB6TSI    .

PL6.E3A0      #004=VMO$ABORT File=VMO$MAIL.:VMB6TSI                              WED 08/20/97 15:24 Page:1125

 Object Unit name= VMO$ABORT                                  File name= VMO$MAIL.:VMB6TOU
 UTS= AUG 20 '97 15:24:29.52 WED                              Compiler= PL-6/E31         Sev=      00
 SharedLib= :SHARED_SYSTEM                                    Alt SharedLib=


    ****  Control sections  ****

 Sect   Type Bound  Init  Size OctSiz  Section name(segment info)
    0   DCB   even  none     0      0  M$UC
    1   DCB   even  none     0      0  M$MAIL_FILE
    2   DCB   even  none     0      0  M$MAIL_CENTRAL
    3   DCB   even  none     0      0  M$MAIL_GLOBAL
    4   DCB   even  none     0      0  M$WORK
    5   DCB   even  none     0      0  M$MAIL_COMGROUP
    6   DCB   even  none     0      0  M$DO
    7   DCB   even  none     0      0  M$LO
    8   DCB   even  none     0      0  M$ME
    9   DCB   even  none     0      0  M$NODE
   10   DCB   even  none     0      0  M$SI
   11   Data  even  none    31     37  VMO$ABORT
   12  RoData even  UTS      1      1  VMO$ABORT
   13   Proc  even  none    60     74  VMO$ABORT
   14  RoData even  none     9     11  VMO$ABORT

    ****  Entry defs  ****

                              Check   Calling
                             calling  sequence
  Sect OctLoc Primary Altret sequence   type   Parms  Name
    13      0   yes            yes      Std        0  VMO$ABORT
PL6.E3A0      #004=VMO$ABORT File=VMO$MAIL.:VMB6TSI                              WED 08/20/97 15:24 Page:1126

  ****  Entry refs  ****

         Check        Calling
        calling       sequence
Altret sequence SRef   type   Args  Name
         yes           Std       0 XUR$CLRENABLE
 yes     yes           Std       1 VMD$GET_PROFILE
 yes     yes           Std       7 XUR$ERRMSG
                       nStd      0 X66_AUTO_0
                       nStd      0 X66_AUNWIND

  ****  Data refs  ****

  Flags:  r = read only, s = secondary
Flgs Name                             Flgs Name                             Flgs Name
     M$UC                             r    VM_HEADER$                       r    VM_PROFILE$
r    VM_ADDLIST$                      r    VM_ADDREC$                       r    VM_WORK$
r    VM_SELECT$                       r    VM_PARSEAREA$                    r    VM_INPUT$
r    VM_COPY$                              VM_ENCLLIST$                          VM_ENCLREC$
     VM_HEADER_                            VM_HEADER_INIT_                       VM_PROFILE_
     VM_ADDLIST_                           VM_ADDREC_                            VM_WORK_
     VM_SELECT_                            VM_PARSEAREA_                         VM_INPUT_
     VM_COPY_                              VM_ENCLLIST_                          VM_ENCLREC_
     M$MAIL_FILE                           M$MAIL_CENTRAL                        M$MAIL_GLOBAL
     M$WORK                                M$MAIL_COMGROUP                       M$DO
     M$LO                                  M$ME                                  M$NODE
     M$SI                                  M$MAIL_FILE_NUM                       M$MAIL_CENTRAL_NUM
     M$MAIL_GLOBAL_NUM                     M$WORK_NUM                            M$MAIL_COMGROUP_NUM
     M$DO_NUM                              M$ME_NUM                              M$LO_NUM
     M$SI_NUM                              M$NODE_NUM                       r    B$JIT$
r    B$TCB$                                VM_MAIL_ACCT                          VM_NAME_MAP_NAME
     ERRMSG_FID                            VM_SEND_FILE_NAME                     VM_FORWARD_FILE_NAME
     VM_FORWARD_ENCL_NAME                  VM_FORWARD_FILE_PASS                  VM_MAILCG_NAME
     VM_SITENAME                           VM_MAILCG_SETSTA                      VM_CURRENT_FOLDER
     VM_WORK_FOLDER                        VMO_REMEMBER                          BREAK_TYPE
     FOLDER_WAS_OPEN                       INDX2                                 CURRENT_MESSAGE_NUMBER
PL6.E3A0      #004=VMO$ABORT File=VMO$MAIL.:VMB6TSI                              WED 08/20/97 15:24 Page:1127

  ****  Segment refs  ****

  Flags:  r = read only, s = secondary
Flgs Name                             Flgs Name                             Flgs Name
     ISSID                                 NULLSID                               ROSID
PL6.E3A0      #004=VMO$ABORT File=VMO$MAIL.:VMB6TSI                              WED 08/20/97 15:24 Page:1128


     6961        1        /*T***********************************************************/
     6962        2        /*T*                                                         */
     6963        3        /*T* Copyright (c) Bull HN Information Systems Inc., 1997    */
     6964        4        /*T*                                                         */
     6965        5        /*T***********************************************************/
     6966        6        /*X* DMC,PLM=4,IND=4,CTI=2,DTI=0,ENI=0,ECI=0,CSI=0,DCI=4 */
     6967        7        VMO$ABORT: PROC;

      7 13 000000   000000 700200 xent  VMO$ABORT    TSX0  ! X66_AUTO_0
        13 000001   000006 000000                    ZERO    6,0

     6968        8        %INCLUDE CP_6;
     6969     5567        %INCLUDE VM_MACRO_C;
     6970     6835        %INCLUDE VM_PERR_C;
     6971     7130        %INCLUDE VM_SUBS_C;
     6972     7390        %INCLUDE CP_6_SUBS;
     6973     7930        %INCLUDE VM_DATA_R;
     6974     8361        %INCLUDE XUR_ENTRY;
     6975     8393        %F$DCB;
     6976     8450        %B$TCB (STCLASS="BASED(B$TCB$)");
     6977     8453        %B$ALT;
     6978     8461        %VM_PROFILE;
     6979     8548        %VM_FOLDER_INFO (NAME=VM_CURRENT_FOLDER,STCLASS="SYMREF");
     6980     8600        %VM_FOLDER_INFO (NAME=VM_WORK_FOLDER,STCLASS="SYMREF");
     6981     8652        %FPT_CLOSE (FPTN=CLOSE_SAVE,DISP=SAVE);
     6982     8694        %VLP_ERRCODE (FPTN=ERROR);
     6983     8739              %VLP_ERRCODE (FPTN=E_FOLDEROLD,FCG="VM",MID="O",
     6984     8740              ERR#=%E$FOLDEROLD,STCLASS=CONSTANT);
     6985     8785    1   DCL VMD$GET_PROFILE ENTRY(1) ALTRET;
     6986     8786
     6987     8787
     6988     8788    1   DCL VMO_REMEMBER REMEMBER SYMREF;
     6989     8789    1   DCL BREAK_TYPE UBIN SYMREF;
     6990     8790    1   DCL FOLDER_WAS_OPEN BIT(1) SYMREF;
     6991     8791    1   DCL INDX2 UBIN SYMREF;
     6992     8792    1   DCL CURRENT_MESSAGE_NUMBER SBIN WORD SYMREF;
PL6.E3A0      #004=VMO$ABORT File=VMO$MAIL.:VMB6TSI                              WED 08/20/97 15:24 Page:1129
     6993     8793
     6994     8794    1       CURRENT_MESSAGE_NUMBER = 0;

   8794 13 000002   000000 450000 xsym               STZ     CURRENT_MESSAGE_NUMBER

     6995     8795
     6996     8796        /*
     6997     8797             ***** Clear any breaks...
     6998     8798        */
     6999     8799    1       CALL XUR$CLRENABLE;

   8799 13 000003   000000 631400 14                 EPPR1   0
        13 000004   000000 701000 xent               TSX1    XUR$CLRENABLE
        13 000005   000000 011000                    NOP     0

     7000     8800    1       IF BREAK_TYPE > 0

   8800 13 000006   000000 235000 xsym               LDA     BREAK_TYPE
        13 000007   000047 600000 13                 TZE     s:8818

     7001     8801    2       THEN DO;

     7002     8802    2           IF DCBADDR(M$WORK_NUM) -> F$DCB.FCD# THEN

   8802 13 000010   000001 470400 14                 LDP0    1
        13 000011   000000 471500                    LDP1    0,,PR0
        13 000012   000000 720000 xsym               LXL0    M$WORK_NUM
        13 000013   100000 473510                    LDP3    0,X0,PR1
        13 000014   300031 236100                    LDQ     25,,PR3
        13 000015   020000 316007                    CANQ    8192,DL
        13 000016   000023 600000 13                 TZE     s:8807

     7003     8803    3           DO;

     7004     8804    3               CLOSE_SAVE.V.DCB# = M$WORK_NUM;

   8804 13 000017   000032 740000 11                 STX0    CLOSE_SAVE+26
PL6.E3A0      #004=VMO$ABORT File=VMO$MAIL.:VMB6TSI                              WED 08/20/97 15:24 Page:1130

     7005     8805    3               CALL M$CLOSE(CLOSE_SAVE);

   8805 13 000020   000000 630400 11                 EPPR0   CLOSE_SAVE
        13 000021   050001 713400                    CLIMB   close
        13 000022   406000 401760                    pmme    nvectors=13

     7006     8806    3           END;

     7007     8807    2           VM_WORK_FOLDER.FLAGS.OPEN = %NO#;

   8807 13 000023   000002 236000 14                 LDQ     2
        13 000024   000023 356000 xsym               ANSQ    VM_WORK_FOLDER+19

     7008     8808        /*
     7009     8809             ***** Restore the profile for the current folder ...
     7010     8810        */
     7011     8811    2           VM_CURRENT_FOLDER.FLAGS.OPEN = FOLDER_WAS_OPEN;

   8811 13 000025   000000 236000 xsym               LDQ     FOLDER_WAS_OPEN
        13 000026   000005 772000                    QRL     5
        13 000027   000023 676000 xsym               ERQ     VM_CURRENT_FOLDER+19
        13 000030   010000 376003                    ANQ     4096,DU
        13 000031   000023 656000 xsym               ERSQ    VM_CURRENT_FOLDER+19

     7012     8812    2           CALL VMD$GET_PROFILE (M$MAIL_FILE_NUM) ALTRET(BAD_PROFILE);

   8812 13 000032   000004 630400 14                 EPPR0   4
        13 000033   000003 631400 14                 EPPR1   3
        13 000034   000000 701000 xent               TSX1    VMD$GET_PROFILE
        13 000035   000050 702000 13                 TSX2    BAD_PROFILE

     7013     8813    2           IF BREAK_TYPE = %CMD_COPY_MESSAGE OR BREAK_TYPE = %CMD_MOVE_MESSAGE

   8813 13 000036   000000 235000 xsym               LDA     BREAK_TYPE
        13 000037   000003 115007                    CMPA    3,DL
        13 000040   000043 600000 13                 TZE     s:8815
PL6.E3A0      #004=VMO$ABORT File=VMO$MAIL.:VMB6TSI                              WED 08/20/97 15:24 Page:1131
        13 000041   000033 115007                    CMPA    27,DL
        13 000042   000047 601000 13                 TNZ     s:8818

     7014     8814    2           THEN
     7015     8815    2               VM_PROFILE.NUM_DEL_MESSAGES = VM_PROFILE.NUM_DEL_MESSAGES + INDX2;

   8815 13 000043   000000 470400 xsym               LDP0    VM_PROFILE$
        13 000044   000007 236100                    LDQ     7,,PR0
        13 000045   000000 036000 xsym               ADLQ    INDX2
        13 000046   000007 756100                    STQ     7,,PR0

     7016     8816    2       END;

     7017     8817
     7018     8818    2       DO NEVER;

   8818 13 000047   000071 710000 13                 TRA     s:8824

     7019     8819    2   BAD_PROFILE:
     7020     8820    2           ERROR = B$TCB.ALT$ -> B$ALT.ERR;

   8820 13 000050   000000 470400 xsym  BAD_PROFILE  LDP0    B$TCB$
        13 000051   000000 471500                    LDP1    0,,PR0
        13 000052   100102 236100                    LDQ     66,,PR1
        13 000053   000036 756000 11                 STQ     ERROR

     7021     8821    2           CALL XUR$ERRMSG(E_FOLDEROLD,B$TCB.ALT$->B$ALT.DCB#);

   8821 13 000054   000000 471500                    LDP1    0,,PR0
        13 000055   100101 633500                    EPPR3   65,,PR1
        13 000056   200005 453500                    STP3    5,,AUTO
        13 000057   000006 236000 14                 LDQ     6
        13 000060   200004 756100                    STQ     4,,AUTO
        13 000061   200004 630500                    EPPR0   4,,AUTO
        13 000062   000005 631400 14                 EPPR1   5
        13 000063   000000 701000 xent               TSX1    XUR$ERRMSG
        13 000064   000000 011000                    NOP     0
PL6.E3A0      #004=VMO$ABORT File=VMO$MAIL.:VMB6TSI                              WED 08/20/97 15:24 Page:1132

     7022     8822    2           CALL XUR$ERRMSG(ERROR,M$MAIL_FILE_NUM);

   8822 13 000065   000007 630400 14                 EPPR0   7
        13 000066   000005 631400 14                 EPPR1   5
        13 000067   000000 701000 xent               TSX1    XUR$ERRMSG
        13 000070   000000 011000                    NOP     0

     7023     8823    2       END;

     7024     8824    1       UNWIND TO VMO_REMEMBER;

   8824 13 000071   000000 237200 xsym               LDAQ  ! VMO_REMEMBER
        13 000072   000000 700200 xent               TSX0  ! X66_AUNWIND
        13 000073   000000 000200                    ZERO    0,128

CLOSE_SAVE
 Sect OctLoc
  11     000   000003 777640   000032 006000   000000 177640   000000 006014    ................
  11     004   000000 177640   000000 006014   000000 177640   000000 006014    ................
  11     030*  000000 177640   000000 006014   000000 000002   000000 000040    ...............
  11     034   000220 000000   000000 000000                                    ........

ERROR
 Sect OctLoc
  11     036   000000 000000                                                    ....

E_FOLDEROLD
 Sect OctLoc
  12     000   261517 010060                                                    ...0

(unnamed)
 Sect OctLoc
  14     000   000000 000000   000000 006003   767777 777777   000001 000000    ................
  14     004   000000 006000   000002 000000   000000 006000   000036 006000    ................
  14     010   000000 006000                                                    ....
     7025     8825    1   END VMO$ABORT;
PL6.E3A0      #004=VMO$ABORT File=VMO$MAIL.:VMB6TSI                              WED 08/20/97 15:24 Page:1133

PL6.E3A0      #004=VMO$ABORT File=VMO$MAIL.:VMB6TSI                              WED 08/20/97 15:24 Page:1134
--  Include file information  --

   XUR_ENTRY.:LIB_E05  cannot be made into a system file and is referenced.
   B_MACROS_C.:LIB_E05  is referenced.
   VM_DATA_R.:VMB6TOU  cannot be made into a system file and is referenced.
   CP_6_SUBS.:LIB_E05  is referenced.
   VM_SUBS_C.:VMB6TOU  is referenced.
   VM_PERR_C.:VMB6TOU  is referenced.
   VM_MACRO_C.:VMB6TOU  is referenced.
   CP_6_C.:LIB_E05  is referenced.
   CP_6.:LIB_E05  cannot be made into a system file and is referenced.
      No diagnostics issued in procedure VMO$ABORT.
PL6.E3A0      #004=VMO$ABORT File=VMO$MAIL.:VMB6TSI                              WED 08/20/97 15:24 Page:1135

 **** Variables and constants ****

  ****  Section 011  Data  VMO$ABORT

  ****  Scalars and arrays  ****
OctLoc.c.b A Datatyp(siz) R M Lvl/name                 OctLoc.c.b A Datatyp(siz) R M Lvl/name

     0-0-0/d STRC(1080)  r     1 CLOSE_SAVE                36-0-0/w STRC        r     1 ERROR

  ****  Section 012 RoData VMO$ABORT

  ****  Scalars and arrays  ****
OctLoc.c.b A Datatyp(siz) R M Lvl/name                 OctLoc.c.b A Datatyp(siz) R M Lvl/name

     0-0-0/w STRC        r     1 E_FOLDEROLD

  ****  SYMREF variables  ****

  ****  Scalars and arrays  ****
OctLoc.c.b A Datatyp(siz) R M Lvl/name                 OctLoc.c.b A Datatyp(siz) R M Lvl/name

     0-0-0/w PTR               1 B$JIT$                     0-0-0/w PTR         r     1 B$TCB$
     0-0-0/w UBIN        r     1 BREAK_TYPE
     0-0-0/w SBIN        r     1 CURRENT_MESSAGE_NUMBER
     0-0-0/c ASTR(9)     r     1 ERRMSG_FID                 0-0-0/b BIT         r     1 FOLDER_WAS_OPEN
     0-0-0/w UBIN        r     1 INDX2                      0-0-0/w UBIN              1 M$DO_NUM
     0-0-0/w UBIN              1 M$LO_NUM                   0-0-0/w UBIN              1 M$MAIL_CENTRAL_NUM
     0-0-0/w UBIN              1 M$MAIL_COMGROUP_NUM        0-0-0/w UBIN        r     1 M$MAIL_FILE_NUM
     0-0-0/w UBIN              1 M$MAIL_GLOBAL_NUM          0-0-0/w UBIN              1 M$ME_NUM
     0-0-0/w UBIN              1 M$NODE_NUM                 0-0-0/w UBIN              1 M$SI_NUM
     0-0-0/w UBIN        r     1 M$WORK_NUM                 0-0-0/d REMB        r     1 VMO_REMEMBER
     0-0-0/w PTR               1 VM_ADDLIST$                0-0-0/d VECT              1 VM_ADDLIST_
     0-0-0/w PTR               1 VM_ADDREC$                 0-0-0/d VECT              1 VM_ADDREC_
     0-0-0/w PTR               1 VM_COPY$                   0-0-0/d VECT              1 VM_COPY_
     0-0-0/w STRC(2529)  r     1 VM_CURRENT_FOLDER          0-0-0/w PTR               1 VM_ENCLLIST$
     0-0-0/d VECT              1 VM_ENCLLIST_               0-0-0/w PTR               1 VM_ENCLREC$
     0-0-0/d VECT              1 VM_ENCLREC_                0-0-0/c STRC(270)         1 VM_FORWARD_ENCL_NAME
PL6.E3A0      #004=VMO$ABORT File=VMO$MAIL.:VMB6TSI                              WED 08/20/97 15:24 Page:1136
     0-0-0/c STRC(270)         1 VM_FORWARD_FILE_NAME       0-0-0/c STRC(72)          1 VM_FORWARD_FILE_PASS
     0-0-0/w PTR               1 VM_HEADER$                 0-0-0/d VECT              1 VM_HEADER_
     0-0-0/d VECT              1 VM_HEADER_INIT_            0-0-0/w PTR               1 VM_INPUT$
     0-0-0/d VECT              1 VM_INPUT_                  0-0-0/c STRC(72)          1 VM_MAILCG_NAME
     0-0-0/w STRC(432)         1 VM_MAILCG_SETSTA           0-0-0/c STRC(72)          1 VM_MAIL_ACCT
     0-0-0/c STRC(54)          1 VM_NAME_MAP_NAME           0-0-0/w PTR               1 VM_PARSEAREA$
     0-0-0/d VECT              1 VM_PARSEAREA_              0-0-0/w PTR         r     1 VM_PROFILE$
     0-0-0/d VECT              1 VM_PROFILE_                0-0-0/w PTR               1 VM_SELECT$
     0-0-0/d VECT              1 VM_SELECT_                 0-0-0/c STRC(288)         1 VM_SEND_FILE_NAME
     0-0-0/c CHAR(8)           1 VM_SITENAME                0-0-0/w PTR               1 VM_WORK$
     0-0-0/d VECT              1 VM_WORK_                   0-0-0/w STRC(2529)  r     1 VM_WORK_FOLDER

  ****  BASED and DCB variables  ****

  ****  Scalars and arrays  ****
OctLoc.c.b A Datatyp(siz) R M Lvl/name                 OctLoc.c.b A Datatyp(siz) R M Lvl/name

     0-0-0/w STRC(2448)  r     1 B$ALT                      0-0-0/w STRC(144)   r     1 B$TCB
     0-0-0/d ASTR(3528)  r     1 F$DCB                      0-0-0N  NULL        r     1 M$DO
     0-0-0N  NULL        r     1 M$LO                       0-0-0N  NULL        r     1 M$MAIL_CENTRAL
     0-0-0N  NULL        r     1 M$MAIL_COMGROUP            0-0-0N  NULL        r     1 M$MAIL_FILE
     0-0-0N  NULL        r     1 M$MAIL_GLOBAL              0-0-0N  NULL        r     1 M$ME
     0-0-0N  NULL        r     1 M$NODE                     0-0-0N  NULL        r     1 M$SI
     0-0-0N  NULL        r     1 M$UC                       0-0-0N  NULL        r     1 M$WORK
     0-0-0/w STRC(4068)  r     1 VM_PROFILE                 0-0-0/c ASTR(9)     r     1 X$STRING


   Procedure VMO$ABORT requires 60 words for executable code.
   Procedure VMO$ABORT requires 6 words of local(AUTO) storage.

    No errors detected in file VMO$MAIL.:VMB6TSI    .
PL6.E3A0      #004=VMO$ABORT File=VMO$MAIL.:VMB6TSI                              WED 08/20/97 15:24 Page:1137
          *** CROSS REFERENCE LISTING ***
**     DENOTES     IDENTIFIER DEFINITION
<<                 IDENTIFIER'S VALUE SET
>>                 IDENTIFIER'S VALUE USED
<>                 IDENTIFIER SET AND/OR USED
--                 IDENTIFIER REFERENCED
PL6.E3A0      #004=VMO$ABORT File=VMO$MAIL.:VMB6TSI                              WED 08/20/97 15:24 Page:1138
          MINI XREF LISTING

B$ALT.CODE
      8455**DCL      8455--REDEF    8456--REDEF    8456--REDEF
B$ALT.DCB#
      8456**DCL      8821<>CALL
B$ALT.ERR
      8456**DCL      8820>>ASSIGN
B$ALT.ERR.ERR#
      8457**DCL      8457--REDEF
B$ALT.EVID
      8456**DCL      8456--REDEF    8456--REDEF
B$TCB.ALT$
      8451**DCL      8820>>ASSIGN   8821>>CALL
B$TCB$
      8138**DCL      8451--IMP-PTR  8820>>ASSIGN   8821>>CALL
BAD_PROFILE
      8820**LABEL    8812--CALLALT
BREAK_TYPE
      8789**DCL      8800>>IF       8813>>IF       8813>>IF
CLOSE_SAVE
      8675**DCL      8805<>CALL
CLOSE_SAVE.SN_
      8675**DCL      8675--REDEF
CLOSE_SAVE.UTL_
      8676**DCL      8676--REDEF
CLOSE_SAVE.V
      8680**DCL      8675--DCLINIT
CLOSE_SAVE.V.DCB#
      8681**DCL      8804<<ASSIGN
CLOSE_SAVE.V.EXPIRE#
      8690**DCL      8690--REDEF
CLOSE_SAVE.V.TYPE#
      8688**DCL      8688--REDEF
PL6.E3A0      #004=VMO$ABORT File=VMO$MAIL.:VMB6TSI                              WED 08/20/97 15:24 Page:1139
CLOSE_SAVE.V.XTNSIZE#
      8685**DCL      8685--REDEF    8687--REDEF
CURRENT_MESSAGE_NUMBER
      8792**DCL      8794<<ASSIGN
ERRMSG_FID.L#
      8206**DCL      8206--IMP-SIZ
ERROR
      8706**DCL      8820<<ASSIGN   8822<>CALL
E_FOLDEROLD
      8752**DCL      8821<>CALL
F$DCB.ACTPOS
      8426**DCL      8426--REDEF
F$DCB.ARS#
      8400**DCL      8400--REDEF
F$DCB.ATTR
      8419**DCL      8420--REDEF
F$DCB.BORROW
      8434**DCL      8434--REDEF    8434--REDEF    8434--REDEF
F$DCB.DCBNAME.L
      8448**DCL      8448--IMP-SIZ
F$DCB.EOMCHAR#
      8404**DCL      8404--REDEF
F$DCB.FCD#
      8413**DCL      8802>>IF
F$DCB.FLDID
      8429**DCL      8429--REDEF
F$DCB.FORM$
      8423**DCL      8423--REDEF
F$DCB.FSECT
      8439**DCL      8439--REDEF
F$DCB.FSN#
      8416**DCL      8416--REDEF    8416--REDEF    8417--REDEF
F$DCB.HEADER$
      8422**DCL      8422--REDEF
F$DCB.IXTNSIZE#
      8420**DCL      8420--REDEF
PL6.E3A0      #004=VMO$ABORT File=VMO$MAIL.:VMB6TSI                              WED 08/20/97 15:24 Page:1140
F$DCB.LASTSTA$
      8409**DCL      8409--REDEF
F$DCB.LVL
      8435**DCL      8435--REDEF
F$DCB.NAME#.C
      8410**DCL      8410--REDEF
F$DCB.NOEOF
      8432**DCL      8432--REDEF
F$DCB.NRECS#
      8421**DCL      8421--REDEF
F$DCB.NRECX
      8440**DCL      8440--REDEF
F$DCB.OHDR
      8432**DCL      8432--REDEF
F$DCB.ORG#
      8415**DCL      8415--REDEF
F$DCB.PRECNO
      8438**DCL      8438--REDEF
F$DCB.RCSZ
      8444**DCL      8444--REDEF
F$DCB.RES#
      8411**DCL      8411--REDEF
F$DCB.SETX
      8423**DCL      8423--REDEF
F$DCB.TAB$
      8423**DCL      8423--REDEF
F$DCB.TDA
      8437**DCL      8438--REDEF
F$DCB.WSN#
      8411**DCL      8411--REDEF
FOLDER_WAS_OPEN
      8790**DCL      8811>>ASSIGN
INDX2
      8791**DCL      8815>>ASSIGN
M$CLOSE
      5495**DCL-ENT  8805--CALL
PL6.E3A0      #004=VMO$ABORT File=VMO$MAIL.:VMB6TSI                              WED 08/20/97 15:24 Page:1141
M$MAIL_FILE_NUM
      8117**DCL      8812<>CALL     8822<>CALL
M$WORK_NUM
      8123**DCL      8802--IF       8804>>ASSIGN
VMD$GET_PROFILE
      8785**DCL-ENT  8812--CALL
VMO_REMEMBER
      8788**DCL      8824>>UNWIND
VM_CURRENT_FOLDER.FLAGS.OPEN
      8592**DCL      8811<<ASSIGN
VM_PROFILE.NUM_DEL_MESSAGES
      8512**DCL      8815<<ASSIGN   8815>>ASSIGN
VM_PROFILE$
      8058**DCL      8471--IMP-PTR  8815>>ASSIGN   8815>>ASSIGN
VM_WORK_FOLDER.FLAGS.OPEN
      8644**DCL      8807<<ASSIGN
X$STRING.SIZ
      8052**DCL      8053--IMP-SIZ
XUR$CLRENABLE
      8383**DCL-ENT  8799--CALL
XUR$ERRMSG
      8376**DCL-ENT  8821--CALL     8822--CALL
