PL6.E3A0      #001=VMO$MAIL File=VMO$MAIL.:VMB6TSI                               WED 08/20/97 15:19 Page:1026
M$CMNDF_NUM
     16893**DCL     27523--IF      27553>>ASSIGN  27793--IF      27794--ASSIGN  30884--IF      30887>>ASSIGN
     30947<>CALL    30952>>ASSIGN
M$CORRES
      7829**DCL-ENT 28163--CALL    31771--CALL
M$DELREC
      7826**DCL-ENT 30397--CALL    31879--CALL
M$DEQ
      7891**DCL-ENT 27967--CALL    31732--CALL    32835--CALL    33075--CALL    33081--CALL    33479--CALL
     33481--CALL    33487--CALL
M$EDIT
     20626**DCL     31057>>ASSIGN  31060>>ASSIGN
M$ENCL
     20628**DCL     28758<>CALL    28782>>ASSIGN  29574>>ASSIGN  29588<>CALL    29588--CALL    29594<>CALL
M$ENQ
      7890**DCL-ENT 27910--CALL    31519--CALL    31533--CALL    31534--CALL    32025--CALL    32039--CALL
     32040--CALL    32826--CALL    33053--CALL    33335--CALL    33402--CALL
M$EXIT
      7836**DCL-ENT 27414--CALL    29398--CALL    31713--CALL
M$FID
      7887**DCL-ENT 30898--CALL
M$INT
      7879**DCL-ENT 27313--CALL
M$LDEV
      7824**DCL-ENT 30479--CALL
M$LINK
      7836**DCL-ENT 31981--CALL
M$LM
     20625**DCL     30927--IF      30927--IF
M$LO_NUM
     14992**DCL     27573>>ASSIGN  27574>>IF      27581>>ASSIGN  30049<>CALL    30468<>CALL    30470<>CALL
     30475<>CALL    31299<>CALL
M$MAIL_CENTRAL_NUM
     14980**DCL     27357<>CALL
M$MAIL_FILE_NUM
     14978**DCL     27360<>CALL    27363<>CALL    27375<>CALL    27385>>ASSIGN  27500<>CALL    27770<>CALL
PL6.E3A0      #001=VMO$MAIL File=VMO$MAIL.:VMB6TSI                               WED 08/20/97 15:19 Page:1027
     27775<>CALL    27899<>CALL    27922<>CALL    27926<>CALL    27945<>CALL    27953<>CALL    27959<>CALL
     28004<>CALL    28080<>CALL    28129<>CALL    28146<>CALL    28161>>ASSIGN  28167<>CALL    28256<>CALL
     28293<>CALL    28307<>CALL    28451<>CALL    28558<>CALL    28566<>CALL    28574<>CALL    28583<>CALL
     28616<>CALL    28631<>CALL    28639<>CALL    28648<>CALL    28651<>CALL    28689<>CALL    28693<>CALL
     28732<>CALL    28767<>CALL    28790<>CALL    28792<>CALL    28812<>CALL    28939<>CALL    28960<>CALL
     28963<>CALL    28981<>CALL    28995<>CALL    29388<>CALL    29392<>CALL    29394>>ASSIGN  29526<>CALL
     29535<>CALL    29579<>CALL    29606<>CALL    29611<>CALL    29628<>CALL    29806<>CALL    29975<>CALL
     30022<>CALL    30026<>CALL    30056<>CALL    30073<>CALL    30194<>CALL    30206<>CALL    30408<>CALL
     30866<>CALL    30872<>CALL    30873<>CALL    31038<>CALL    31046<>CALL    31051<>CALL    31068<>CALL
     31273<>CALL    31276<>CALL    31306<>CALL    31346<>CALL    31370<>CALL    31379<>CALL    31384<>CALL
     31418<>CALL    31434<>CALL    31440<>CALL    31480<>CALL    31484>>ASSIGN  31488<>CALL    31503<>CALL
     31521>>ASSIGN  31547<>CALL    31554<>CALL    31665<>CALL    31666>>ASSIGN  31692<>CALL    31712<>CALL
     31722<>CALL    31769>>ASSIGN  31791>>IF      31976<>CALL    32027>>ASSIGN  32064<>CALL    32613<>CALL
     32631<>CALL    32632<>CALL    32735<>CALL    33334<>CALL    33356<>CALL    33361<>CALL    33375<>CALL
     33436<>CALL    33441<>CALL    33441<>CALL    33443<>CALL    33473<>CALL    33519--ASSIGN  33521>>ASSIGN
     33532>>ASSIGN  33625>>ASSIGN  33632<>CALL    33725--ASSIGN  33727>>ASSIGN  33738>>ASSIGN  33965>>ASSIGN
     34020>>ASSIGN  34027<>CALL    34181<>CALL    34186<>CALL
M$MAIL_GLOBAL_NUM
     14982**DCL     27342<>CALL    27346>>ASSIGN  28162>>ASSIGN  29307<>CALL    29349<>CALL    29368<>CALL
     31770>>ASSIGN  31791>>IF
M$ME_NUM
     14990**DCL     27311<>CALL    27483<>CALL    27490<>CALL    27502<>CALL    27694<>CALL    27757<>CALL
     27918<>CALL    28070<>CALL    28684<>CALL    29515<>CALL    30188<>CALL    30402<>CALL    31034<>CALL
     31266<>CALL    31450<>CALL    31492<>CALL    31507<>CALL    31700<>CALL    32830<>CALL    33517<>CALL
     33717<>CALL
M$NAME
     20623**DCL     28407--IF      28410--IF      28412--ASSIGN  28454>>ASSIGN  28659>>ASSIGN  30214>>ASSIGN
     30327--IF      30330--IF      30332--ASSIGN
M$OPEN
      7824**DCL-ENT 27310--CALL    27318--CALL    27756--CALL    28324--CALL    28607--CALL    29519--CALL
     29573--CALL    29618--CALL    30316--CALL    30393--CALL    30935--CALL    31058--CALL    31823--CALL
     33535--CALL    33542--CALL    33741--CALL    33748--CALL    34173--CALL
M$OUT_NUM
     16618**DCL     28760<>CALL    28777<>CALL    28825<>CALL    28827>>ASSIGN  28830<>CALL    28906<>CALL
     28908>>ASSIGN  28911<>CALL    29013<>CALL    29015>>ASSIGN  29018<>CALL    29029<>CALL    29031>>ASSIGN
     29034<>CALL    29320<>CALL    29322>>ASSIGN  29325<>CALL    29830<>CALL    29832>>ASSIGN  29835<>CALL
PL6.E3A0      #001=VMO$MAIL File=VMO$MAIL.:VMB6TSI                               WED 08/20/97 15:19 Page:1028
     29988<>CALL    29990>>ASSIGN  29993<>CALL
M$PRECORD
      7828**DCL-ENT 33554--CALL    33760--CALL    33966--CALL
M$READ
      7825**DCL-ENT 28404--CALL    30325--CALL    33055--CALL    33548--CALL    33754--CALL    33970--CALL
M$SI_NUM
     14994**DCL     27311<>CALL    27555<>CALL    27795--ASSIGN  30959<>CALL
M$TIME
      7891**DCL-ENT 29893--CALL    31223--CALL    32861--CALL
M$WAIT
      7882**DCL-ENT 31694--CALL
M$WORK_NUM
     14984**DCL     27765>>ASSIGN  27781>>ASSIGN  27878<>CALL    27883<>CALL    27903<>CALL    27907>>ASSIGN
     27908>>ASSIGN  27911<>CALL    27922<>CALL    27945<>CALL    27966<>CALL    27988<>CALL    27989<>CALL
     27995--IF      27997>>ASSIGN  28064<>CALL    28110<>CALL    28115>>ASSIGN  28122<>CALL    28501>>ASSIGN
     28531<>CALL    29520>>ASSIGN  29526<>CALL    29535<>CALL    29617>>ASSIGN  29620>>ASSIGN  29864>>ASSIGN
     29886<>CALL    29889<>CALL    29958<>CALL    29961<>CALL    29970--IF      31814--IF      31816>>ASSIGN
     31831--IF      31835--ASSIGN  31842<>CALL    31854<>CALL    33536>>ASSIGN  33624<>CALL    33627>>ASSIGN
     33639>>ASSIGN  33742>>ASSIGN  34019<>CALL    34022>>ASSIGN  34036>>ASSIGN  34176>>ASSIGN  34192>>ASSIGN
M$WRITE
      7825**DCL-ENT 28422--CALL    28775--CALL    30345--CALL    33619--CALL    34010--CALL
M$XCON
      7879**DCL-ENT 27312--CALL
M$XXX
      7836**DCL-ENT 27292--CALL
M$YC
      7838**DCL-ENT 27228--CALL    27233--CALL    27238--CALL    27243--CALL
MADE_OLD
     16624**DCL     27462<<ASSIGN  28957<<ASSIGN  30025<<ASSIGN  33066>>IF      33069<<ASSIGN
MAIL_CMD
     16153**DCL     16205--DCLINIT
MAIL_CMD$
     16163**DCL     27301<<ASSIGN  27409>>CALL
MAIL_FILE$ IN PROCEDURE COPY_FOLDER
     33512**DCL     33519<<ASSIGN  33616>>IF      33617>>ASSIGN  33618>>ASSIGN
MAIL_FILE$ IN PROCEDURE SORT_FOLDER
PL6.E3A0      #001=VMO$MAIL File=VMO$MAIL.:VMB6TSI                               WED 08/20/97 15:19 Page:1029
     33692**DCL     33725<<ASSIGN  34002>>IF      34005>>ASSIGN  34007>>ASSIGN
MAIL_NODES
     16151**DCL     16205--DCLINIT
MAIL_NODES$
     16161**DCL     27300<<ASSIGN  27481>>CALL    27506>>CALL
MAIL_PROG_NAME
     18514**DCL     18450--DCLINIT
MAIL_PROMPT
     16697**DCL     27409<>CALL    27506<>CALL
MAKE_NEW_CONTEXT IN PROCEDURE GET$MESSAGE
     32818**LABEL   32698--GOTO    32779--GOTO
MATCH_FOUND IN PROCEDURE GET_WILD_FOLDER
     31840**LABEL   31838--GOTO
MID IN PROCEDURE SORT_FOLDER
     33708**DCL     33781<<DOINDEX 33782>>IF      33791<<ASSIGN  33792>>IF      33793>>ASSIGN  33795>>IF
     33796>>ASSIGN  33801>>IF      33802<<ASSIGN  33802>>ASSIGN  33803>>IF      33808>>ASSIGN  33810>>CALL
     33810>>CALL    33811>>ASSIGN  33812>>ASSIGN  33859<<DOINDEX 33860>>IF      33861>>ASSIGN  33873<<ASSIGN
     33874>>IF      33875>>ASSIGN  33878>>ASSIGN  33882>>ASSIGN  33889<<ASSIGN  33889>>ASSIGN  33890>>IF
     33903>>DOINDEX 33917<<ASSIGN  33918>>ASSIGN  33924>>ASSIGN  33926>>CALL    33926>>CALL    33927>>ASSIGN
     33928>>ASSIGN  33945<<DOINDEX 33946>>IF      33949>>ASSIGN  33950>>CALL    33950>>CALL    33953>>ASSIGN
     33954>>ASSIGN
MODIFY_LIST
     16154**DCL     16205--DCLINIT
MODIFY_LIST$
     16164**DCL     27302<<ASSIGN  30110>>CALL
MODIFY_USER
     16155**DCL     16205--DCLINIT
MODIFY_USER$
     16165**DCL     27303<<ASSIGN  30240>>CALL
MOD_CASE_END IN PROCEDURE PROCESS_CMD
     30188**LABEL   30077--GOTO
NAME IN PROCEDURE BUILD_LINK_TO_SEND_CMD
     34236**DCL     34209--PROC    34245>>ASSIGN
NAME.L# IN PROCEDURE BUILD_LINK_TO_SEND_CMD
     34236**DCL     34236--IMP-SIZ 34245>>ASSIGN  34270>>ASSIGN
NAME IN PROCEDURE TRANSFORM_DOMAIN
PL6.E3A0      #001=VMO$MAIL File=VMO$MAIL.:VMB6TSI                               WED 08/20/97 15:19 Page:1030
     34099**DCL     34070--PROC
NAME.L# IN PROCEDURE TRANSFORM_DOMAIN
     34099**DCL     34099--IMP-SIZ 34123>>ASSIGN  34124<<ASSIGN  34124>>ASSIGN  34127>>CALLBLT 34129>>CALLBLT
NAME.NAME# IN PROCEDURE TRANSFORM_DOMAIN
     34099**DCL     34127<<CALLBLT 34129<<CALLBLT
NAME_KEY
     19188**DCL     19074--DCLINIT 19075--DCLINIT 19103--DCLINIT 19140--DCLINIT 19141--DCLINIT 28417--CALL
     30338--CALL
NAME_KEY.L#
     19188**DCL     28397<<ASSIGN  28426<<ASSIGN  30319<<ASSIGN  30350<<ASSIGN  30396<<ASSIGN  31869<<ASSIGN
NAME_KEY.NAME#
     19188**DCL     28395<<CALLBLT 28427<<ASSIGN  28435<>CALL    28442<>CALL    30317<<CALLBLT 30351<<ASSIGN
     30358<>CALL    30363<>CALL    30368<<CALLBLT 30375<>CALL    30379<>CALL    30394<<CALLBLT 31873<<ASSIGN
     31874>>IF
NEED_FOLDER
     31748**PROC    27854--CALL    28014--CALL    28704--CALL    28804--CALL    28893--CALL    29010--CALL
     29026--CALL    29632--CALL    29981--CALL    31149--CALL    31690--CALL
NEED_GLOBAL IN PROCEDURE NEED_FOLDER
     31766**ENTRY   28280--CALL    28602--CALL    30199--CALL
NEED_TITLE_BAR
     16482**DCL     27674<<ASSIGN  32254<<ASSIGN
NEED_UPDATE IN PROCEDURE NEED_FOLDER
     31757**ENTRY   27682--CALL    27705--CALL    27857--CALL    28133--CALL    28549--CALL    28666--CALL
     29457--CALL    30037--CALL    30068--CALL    30537--CALL    30973--CALL    31126--CALL    31155--CALL
     31254--CALL    31287--CALL
NEW_FLAG
     16614**DCL     27501>>IF      27503<<ASSIGN  31693>>IF      31695<<ASSIGN  31701<<ASSIGN  33061<<ASSIGN
     33063<<ASSIGN
NEW_NUM IN PROCEDURE COPY_FOLDER
     33514**DCL     33584<<ASSIGN  33585>>DOWHILE 33586<<ASSIGN  33586>>ASSIGN  33587>>IF      33589>>ASSIGN
NEW_NUM IN PROCEDURE SORT_FOLDER
     33694**DCL     33988>>ASSIGN  33995>>ASSIGN  34059<<ASSIGN
NEXT$ IN PROCEDURE SORT_FOLDER
     33704**DCL     33906<<ASSIGN  33908<<ASSIGN  33910>>IF      33910>>IF      33910>>IF
NEXT_COMMAND_ECHO#
     16890**DCL     27484<<ASSIGN  27488>>IF      27491<<ASSIGN  31330<<ASSIGN  31658<<ASSIGN
PL6.E3A0      #001=VMO$MAIL File=VMO$MAIL.:VMB6TSI                               WED 08/20/97 15:19 Page:1031
NEXT_COMMAND_TEXT
     16888**DCL     27544<<ASSIGN  27612<<ASSIGN  27639<<ASSIGN  27817<<ASSIGN  27844<<ASSIGN  29423<<ASSIGN
     29448<<ASSIGN  29664<<ASSIGN  29689<<ASSIGN  29740<<ASSIGN  29765<<ASSIGN  30434<<ASSIGN  30459<<ASSIGN
     30504<<ASSIGN  30529<<ASSIGN  31093<<ASSIGN  31118<<ASSIGN  31190<<ASSIGN  31215<<ASSIGN  31657<<ASSIGN
NEXT_COMMAND_TEXT.L#
     16888**DCL     27477>>IF      27480>>ASSIGN  27485<<ASSIGN  27492<<ASSIGN  29453<<ASSIGN  29694<<ASSIGN
     31321<<ASSIGN  31658>>IF
NEXT_COMMAND_TEXT.NAME#
     16888**DCL     27481<>CALL    27794<<ASSIGN  27795<<ASSIGN  27797>>IF      27824>>IF
NEXT_NUM IN PROCEDURE UPDATE$MAIL
     33102**DCL     33433<<ASSIGN  33437<<ASSIGN  33437>>ASSIGN  33438>>IF      33441<>CALL    33453>>ASSIGN
     33454>>ASSIGN  33545<<ASSIGN  33546<<ASSIGN  33573<<ASSIGN  33573>>ASSIGN  33585>>DOWHILE 33594>>IF
     33602>>IF      33623>>ASSIGN  33642<<ASSIGN  33648<<ASSIGN  33751<<ASSIGN  33752<<ASSIGN  34015<<ASSIGN
     34039<<ASSIGN  34045<<ASSIGN
NIL_PTR IN PROCEDURE SORT_FOLDER
     33945**LABEL   33846--GOTO    33955--EXIT
NODES$
     16273**DCL     16261--IMP-PTR 27299<>CALL    27300>>ASSIGN  27301>>ASSIGN  27302>>ASSIGN  27303>>ASSIGN
     27304>>ASSIGN  27305>>ASSIGN
NODES_TO_USE
     16261**DCL     27300>>ASSIGN  27301>>ASSIGN  27302>>ASSIGN  27303>>ASSIGN  27304>>ASSIGN  27305>>ASSIGN
NONE
     16623**DCL     28670<<ASSIGN  28673<<ASSIGN  28700<>CALL    28921<<ASSIGN  28925<<ASSIGN  29005<>CALL
     30042<<ASSIGN  30045<<ASSIGN  30063<>CALL    31259<<ASSIGN  31262<<ASSIGN  31282<>CALL    31292<<ASSIGN
     31295<<ASSIGN  31313<>CALL
NON_WILD_DEL_LIST IN PROCEDURE PROCESS_CMD
     28582**LABEL   28551--CALLALT
NON_WILD_DEL_USER IN PROCEDURE PROCESS_CMD
     28647**LABEL   28609--CALLALT
NON_WILD_DI_LIST IN PROCEDURE PROCESS_CMD
     28874**LABEL   28840--CALLALT
NON_WILD_DI_USER IN PROCEDURE PROCESS_CMD
     29367**LABEL   29335--CALLALT
NO_FOLD IN PROCEDURE LINK_RUNIT
     32052**LABEL   32034--GOTO
NO_FOLD IN PROCEDURE PROCESS_CMD
PL6.E3A0      #001=VMO$MAIL File=VMO$MAIL.:VMB6TSI                               WED 08/20/97 15:19 Page:1032
     31676**LABEL   31376--GOTO    31528--GOTO    31670--GOTO
NO_FOLDER IN PROCEDURE NEED_FOLDER
     31751**LABEL   31758--GOTO    31767--GOTO
NO_FOLD_ERR IN PROCEDURE PROCESS_CMD
     31672**LABEL   31440--CALLALT 31446--GOTO    31488--CALLALT 31498--GOTO    31503--CALLALT
NO_HEADER IN PROCEDURE GET$MESSAGE
     32803**LABEL   32624--GOTO    32723--GOTO    32745--GOTO
NO_MATCH_DI_LIST IN PROCEDURE PROCESS_CMD
     28868**LABEL   28855--CALLALT 28860--GOTO
NO_MATCH_DI_USER IN PROCEDURE PROCESS_CMD
     29361**LABEL   29357--CALLALT
NO_MORE IN PROCEDURE PROCESS_CMD
     29712**LABEL   29704--CALLALT 29706--CALLALT
NO_MORE IN PROCEDURE UPDATE$MAIL
     33384**LABEL   33348--GOTO    33356--CALLALT
NO_PROFILE IN PROCEDURE PROCESS_CMD
     31663**LABEL   31547--CALLALT
NO_SPACE IN PROCEDURE INIT$SELECT_OPTS
     32561**LABEL   32506--CALLALT 32545--CALLALT
NO_UPDATE IN PROCEDURE NEED_FOLDER
     31761**LABEL   31768--GOTO
NULL_ENTRY IN PROCEDURE PROCESS_CMD
     30854**LABEL   30816--GOTO
NUM_MESSAGES_PROCESSED
     18102**DCL     27591>>IF      31649<<ASSIGN  32837<<ASSIGN  32837>>ASSIGN
OLD_MSGNUM IN PROCEDURE GET_NEW_MSGNUM
     34053**DCL     34051--PROC    34057>>IF
OLD_TYPE IN PROCEDURE COPY_FOLDER
     33507**DCL     33544<<ASSIGN  33560>>IF      33562<<ASSIGN
OLD_TYPE IN PROCEDURE SORT_FOLDER
     33687**DCL     33750<<ASSIGN
OPEN_COMMAND_STREAM
     20037**DCL     30935<>CALL
OPEN_COMMAND_STREAM.ACCT_
     20041**DCL     30912<<ASSIGN
OPEN_COMMAND_STREAM.ACSVEH_
PL6.E3A0      #001=VMO$MAIL File=VMO$MAIL.:VMB6TSI                               WED 08/20/97 15:19 Page:1033
     20039**DCL     20040--REDEF
OPEN_COMMAND_STREAM.ALTKEYS_
     20045**DCL     20046--REDEF   20046--REDEF
OPEN_COMMAND_STREAM.HDR_
     20044**DCL     20045--REDEF
OPEN_COMMAND_STREAM.NAME_
     20038**DCL     30911<<ASSIGN
OPEN_COMMAND_STREAM.PASS_
     20039**DCL     30915<<ASSIGN
OPEN_COMMAND_STREAM.SN_
     20037**DCL     30918<<ASSIGN
OPEN_COMMAND_STREAM.TAB_
     20043**DCL     20044--REDEF
OPEN_COMMAND_STREAM.UHL_
     20037**DCL     20038--REDEF   20038--REDEF
OPEN_COMMAND_STREAM.V
     20046**DCL     20037--DCLINIT
OPEN_COMMAND_STREAM.V.ASN#
     20056**DCL     30925<<ASSIGN
OPEN_COMMAND_STREAM.V.FSN#
     20077**DCL     20077--REDEF   20077--REDEF
OPEN_COMMAND_STREAM.V.INITZ.SCRUB#
     20047**DCL     30934<<ASSIGN
OPEN_COMMAND_STREAM.V.RES#
     20061**DCL     30924<<ASSIGN
OPEN_COMMAND_STREAM.V.SETDCB#
     20047**DCL     30931<<ASSIGN  30933<<ASSIGN  30937>>IF
OPEN_COMMAND_STREAM.WSN_
     20043**DCL     20043--REDEF   30921<<ASSIGN
OPEN_COMMAND_STREAM_DEFAULT
     19921**DCL     27310<>CALL
OPEN_COMMAND_STREAM_DEFAULT.ACSVEH_
     19923**DCL     19924--REDEF
OPEN_COMMAND_STREAM_DEFAULT.ALTKEYS_
     19929**DCL     19930--REDEF   19930--REDEF
OPEN_COMMAND_STREAM_DEFAULT.HDR_
PL6.E3A0      #001=VMO$MAIL File=VMO$MAIL.:VMB6TSI                               WED 08/20/97 15:19 Page:1034
     19928**DCL     19929--REDEF
OPEN_COMMAND_STREAM_DEFAULT.TAB_
     19927**DCL     19928--REDEF
OPEN_COMMAND_STREAM_DEFAULT.UHL_
     19921**DCL     19922--REDEF   19922--REDEF
OPEN_COMMAND_STREAM_DEFAULT.V
     19930**DCL     19921--DCLINIT
OPEN_COMMAND_STREAM_DEFAULT.V.FSN#
     19961**DCL     19961--REDEF   19961--REDEF
OPEN_COMMAND_STREAM_DEFAULT.WSN_
     19927**DCL     19927--REDEF
OPEN_ENCL
     20150**DCL     28758<>CALL
OPEN_ENCL.ACSVEH_
     20152**DCL     20153--REDEF
OPEN_ENCL.ALTKEYS_
     20158**DCL     20159--REDEF   20159--REDEF
OPEN_ENCL.HDR_
     20157**DCL     20158--REDEF
OPEN_ENCL.TAB_
     20156**DCL     20157--REDEF
OPEN_ENCL.UHL_
     20150**DCL     20151--REDEF   20151--REDEF
OPEN_ENCL.V
     20159**DCL     20150--DCLINIT
OPEN_ENCL.V.FSN#
     20190**DCL     20190--REDEF   20190--REDEF
OPEN_ENCL.WSN_
     20156**DCL     20156--REDEF
OPEN_FORWARD_ENCL_FILE
     19554**DCL     29573<>CALL
OPEN_FORWARD_ENCL_FILE.ACSVEH_
     19556**DCL     19557--REDEF
OPEN_FORWARD_ENCL_FILE.ALTKEYS_
     19562**DCL     19563--REDEF   19563--REDEF
OPEN_FORWARD_ENCL_FILE.HDR_
PL6.E3A0      #001=VMO$MAIL File=VMO$MAIL.:VMB6TSI                               WED 08/20/97 15:19 Page:1035
     19561**DCL     19562--REDEF
OPEN_FORWARD_ENCL_FILE.TAB_
     19560**DCL     19561--REDEF
OPEN_FORWARD_ENCL_FILE.UHL_
     19554**DCL     19555--REDEF   19555--REDEF
OPEN_FORWARD_ENCL_FILE.V
     19563**DCL     19554--DCLINIT
OPEN_FORWARD_ENCL_FILE.V.FSN#
     19594**DCL     19594--REDEF   19594--REDEF
OPEN_FORWARD_ENCL_FILE.WSN_
     19560**DCL     19560--REDEF
OPEN_FORWARD_FILE
     19435**DCL     29519<>CALL
OPEN_FORWARD_FILE.ACSVEH_
     19437**DCL     19438--REDEF
OPEN_FORWARD_FILE.ALTKEYS_
     19443**DCL     19444--REDEF   19444--REDEF
OPEN_FORWARD_FILE.HDR_
     19442**DCL     19443--REDEF
OPEN_FORWARD_FILE.TAB_
     19441**DCL     19442--REDEF
OPEN_FORWARD_FILE.UHL_
     19435**DCL     19436--REDEF   19436--REDEF
OPEN_FORWARD_FILE.V
     19444**DCL     19435--DCLINIT
OPEN_FORWARD_FILE.V.FSN#
     19475**DCL     19475--REDEF   19475--REDEF
OPEN_FORWARD_FILE.WSN_
     19441**DCL     19441--REDEF
OPEN_NAME_MAP
     19016**DCL     28324<>CALL    28607<>CALL    30316<>CALL    30393<>CALL
OPEN_NAME_MAP.ACSVEH_
     19018**DCL     19019--REDEF
OPEN_NAME_MAP.ALTKEYS_
     19024**DCL     19025--REDEF   19025--REDEF
OPEN_NAME_MAP.HDR_
PL6.E3A0      #001=VMO$MAIL File=VMO$MAIL.:VMB6TSI                               WED 08/20/97 15:19 Page:1036
     19023**DCL     19024--REDEF
OPEN_NAME_MAP.TAB_
     19022**DCL     19023--REDEF
OPEN_NAME_MAP.UHL_
     19016**DCL     19017--REDEF   19017--REDEF
OPEN_NAME_MAP.V
     19025**DCL     19016--DCLINIT
OPEN_NAME_MAP.V.FSN#
     19056**DCL     19056--REDEF   19056--REDEF
OPEN_NAME_MAP.WSN_
     19022**DCL     19022--REDEF
OPEN_NEXT
     18895**DCL     31823<>CALL
OPEN_NEXT.ACSVEH_
     18897**DCL     18898--REDEF
OPEN_NEXT.ALTKEYS_
     18903**DCL     18904--REDEF   18904--REDEF
OPEN_NEXT.HDR_
     18902**DCL     18903--REDEF
OPEN_NEXT.NAME_
     18896**DCL     28518<<ASSIGN  28522<<ASSIGN  29881<<ASSIGN  29950<<ASSIGN  31847<<ASSIGN
OPEN_NEXT.TAB_
     18901**DCL     18902--REDEF
OPEN_NEXT.UHL_
     18895**DCL     18896--REDEF   18896--REDEF
OPEN_NEXT.V
     18904**DCL     18895--DCLINIT
OPEN_NEXT.V.FSN#
     18935**DCL     18935--REDEF   18935--REDEF
OPEN_NEXT.WSN_
     18901**DCL     18901--REDEF
OPEN_OUTPUT_STREAM_DEFAULT
     19802**DCL     27318<>CALL
OPEN_OUTPUT_STREAM_DEFAULT.ACSVEH_
     19804**DCL     19805--REDEF
OPEN_OUTPUT_STREAM_DEFAULT.ALTKEYS_
PL6.E3A0      #001=VMO$MAIL File=VMO$MAIL.:VMB6TSI                               WED 08/20/97 15:19 Page:1037
     19810**DCL     19811--REDEF   19811--REDEF
OPEN_OUTPUT_STREAM_DEFAULT.HDR_
     19809**DCL     19810--REDEF
OPEN_OUTPUT_STREAM_DEFAULT.TAB_
     19808**DCL     19809--REDEF
OPEN_OUTPUT_STREAM_DEFAULT.UHL_
     19802**DCL     19803--REDEF   19803--REDEF
OPEN_OUTPUT_STREAM_DEFAULT.V
     19811**DCL     19802--DCLINIT
OPEN_OUTPUT_STREAM_DEFAULT.V.FSN#
     19842**DCL     19842--REDEF   19842--REDEF
OPEN_OUTPUT_STREAM_DEFAULT.WSN_
     19808**DCL     19808--REDEF
OPEN_SEND_FILE
     19315**DCL     27756<>CALL    34173<>CALL
OPEN_SEND_FILE.ACSVEH_
     19317**DCL     19318--REDEF
OPEN_SEND_FILE.ALTKEYS_
     19323**DCL     19324--REDEF   19324--REDEF
OPEN_SEND_FILE.HDR_
     19322**DCL     19323--REDEF
OPEN_SEND_FILE.TAB_
     19321**DCL     19322--REDEF
OPEN_SEND_FILE.UHL_
     19315**DCL     19316--REDEF   19316--REDEF
OPEN_SEND_FILE.V
     19324**DCL     19315--DCLINIT
OPEN_SEND_FILE.V.FSN#
     19355**DCL     19355--REDEF   19355--REDEF
OPEN_SEND_FILE.WSN_
     19321**DCL     19321--REDEF
OPT$SEED
     18120**DCL     28939<>CALL    29526<>CALL    29535<>CALL    31038<>CALL
OPT_BYPASS
     18112**DCL     27461<<ASSIGN  31325<<ASSIGN  31395<<ASSIGN  31654>>IF
OPT_FID
PL6.E3A0      #001=VMO$MAIL File=VMO$MAIL.:VMB6TSI                               WED 08/20/97 15:19 Page:1038
     18115**DCL     18809--DCLINIT 29773<<ASSIGN  30897<<ASSIGN
OPT_NOUPDATE
     18113**DCL     27460<<ASSIGN  27618>>IF      31324<<ASSIGN  31337<<ASSIGN  31341>>IF      31364<<ASSIGN
     31400<<ASSIGN  31406<<ASSIGN
OPT_RECEIVERS
     18114**DCL     27715<<ASSIGN  27720<<ASSIGN  27722<<ASSIGN  27758>>IF      27763<>CALL
OPT_SEED
     18118**DCL     28894<<ASSIGN  28895--ASSIGN  28901<>CALL    28902>>IF      28928>>IF      29458<<ASSIGN
     29459--ASSIGN  29464<>CALL    29465>>IF      29508>>IF      30974<<ASSIGN  30975--ASSIGN  30980<>CALL
     30981>>IF      31027>>IF
OPT_SEED$
     18119**DCL     18120--IMP-PTR 28895<<ASSIGN  28904<<ASSIGN  28928>>IF      28939>>CALL    29459<<ASSIGN
     29467<<ASSIGN  29508>>IF      29526>>CALL    29535>>CALL    30975<<ASSIGN  30983<<ASSIGN  31027>>IF
     31038>>CALL
OTHER_CRITERIA IN PROCEDURE INIT$SELECT_OPTS
     32434**LABEL   32427--GOTO
OUT$
     16548**DCL     16561--REDEF   27409<>CALL    27416>>ASSIGN  27481<>CALL    27506<>CALL    27508>>IF
     27509>>ASSIGN  27684>>IF      27686>>CALL    27707>>IF      27709>>CALL    27716>>IF      27718>>DOCASE
     27863>>IF      27865>>CALL    27876>>IF      27878>>CALL    27883>>CALL    28015>>IF      28017>>CALL
     28041>>IF      28044>>ASSIGN  28140>>DOINDEX 28141>>ASSIGN  28284>>ASSIGN  28284>>ASSIGN  28299>>CALL
     28299>>CALL    28313>>CALL    28313>>CALL    28329>>DOINDEX 28330>>ASSIGN  28398>>ASSIGN  28398>>ASSIGN
     28407>>IF      28407>>IF      28470>>IF      28473>>ASSIGN  28551>>CALLBLT 28551>>CALLBLT 28553>>ASSIGN
     28553>>ASSIGN  28554>>CALLBLT 28554>>CALLBLT 28554>>CALLBLT 28554>>CALLBLT 28582>>ASSIGN  28582>>ASSIGN
     28609>>CALLBLT 28609>>CALLBLT 28611>>ASSIGN  28611>>ASSIGN  28612>>CALLBLT 28612>>CALLBLT 28612>>CALLBLT
     28612>>CALLBLT 28647>>ASSIGN  28647>>ASSIGN  28667>>CALL    28727>>DOINDEX 28728>>ASSIGN  28807>>IF
     28822>>ASSIGN  28822>>ASSIGN  28833>>IF      28840>>CALLBLT 28840>>CALLBLT 28842>>ASSIGN  28842>>ASSIGN
     28843>>CALLBLT 28843>>CALLBLT 28843>>CALLBLT 28843>>CALLBLT 28850>>ASSIGN  28850>>ASSIGN  28857>>IF
     28857>>IF      28874>>ASSIGN  28874>>ASSIGN  28897>>DOINDEX 28898>>ASSIGN  29011>>IF      29013>>CALL
     29027>>IF      29029>>CALL    29302>>IF      29317>>ASSIGN  29317>>ASSIGN  29328>>IF      29335>>CALLBLT
     29335>>CALLBLT 29337>>ASSIGN  29337>>ASSIGN  29338>>CALLBLT 29338>>CALLBLT 29338>>CALLBLT 29338>>CALLBLT
     29344>>ASSIGN  29344>>ASSIGN  29351>>IF      29351>>IF      29367>>ASSIGN  29367>>ASSIGN  29383>>IF
     29460>>DOINDEX 29461>>ASSIGN  29633>>CALLBLT 29633>>CALLBLT 29699>>ASSIGN  29772>>ASSIGN  29774>>IF
     29778>>ASSIGN  29822>>IF      29827>>ASSIGN  29827>>ASSIGN  29838>>IF      29842>>ASSIGN  29982>>DOINDEX
     29983>>ASSIGN  30038>>IF      30040>>CALL    30072>>ASSIGN  30072>>ASSIGN  30110<>CALL    30127>>IF
     30133>>ASSIGN  30158>>DOCASE  30203>>ASSIGN  30203>>ASSIGN  30204>>ASSIGN  30205>>ASSIGN  30205>>ASSIGN
PL6.E3A0      #001=VMO$MAIL File=VMO$MAIL.:VMB6TSI                               WED 08/20/97 15:19 Page:1039
     30240<>CALL    30250>>IF      30264>>ASSIGN  30306>>DOCASE  30468>>CALL    30559>>DOINDEX 30561>>ASSIGN
     30718>>ASSIGN  30881>>IF      30897>>ASSIGN  30897>>ASSIGN  30901>>CALL    30976>>DOINDEX 30977>>ASSIGN
     31127>>IF      31131>>CALL    31151>>CALL    31255>>IF      31257>>CALL    31288>>IF      31290>>CALL
     31334>>DOINDEX 31335>>DOCASE  31365>>DOINDEX 31366>>ASSIGN  34288<>CALL
OUTBUF
     16853**DCL     20310--DCLINIT 20312--DCLINIT 20424--DCLINIT 20426--DCLINIT 20537--DCLINIT 20539--DCLINIT
     27407<<ASSIGN  27409<>CALL
OUTDCB
     16617**DCL     27574>>IF      27576--IF      27578>>ASSIGN  27581<<ASSIGN  28814<>CALL    28827<<ASSIGN
     28864<>CALL    28880<>CALL    28887--IF      28908<<ASSIGN  28932<>CALL    28938<>CALL    28939<>CALL
     29003--IF      29015<<ASSIGN  29022<>CALL    29031<<ASSIGN  29038>>ASSIGN  29309<>CALL    29322<<ASSIGN
     29358<>CALL    29370<>CALL    29375--IF      29832<<ASSIGN  29921>>ASSIGN  29949<>CALL    29962<>CALL
     29990<<ASSIGN  30008<>CALL    30013<>CALL    30031--IF
OUTERR
     16561**DCL     27413<>CALL    27566<>CALL    30114<>CALL    30244<>CALL
OUTERR.ERR#
     16591**DCL     27514>>DOSELCT
P$B
     15409**DCL     28758<>CALL    28825<>CALL    28906<>CALL    29013<>CALL    29029<>CALL    29320<>CALL
     29830<>CALL    29988<>CALL    30468<>CALL
P$B.CODE
     15417**DCL     27416>>ASSIGN  27509>>ASSIGN  27718>>DOCASE  28047>>DOCASE  28204>>DOCASE  28348>>DOCASE
     28359>>DOCASE  28479>>DOCASE  28729>>DOCASE  28823>>IF      28899>>DOCASE  29318>>IF      29462>>DOCASE
     29828>>IF      29848>>DOCASE  29984>>DOCASE  30136>>DOCASE  30158>>DOCASE  30267>>DOCASE  30275>>DOCASE
     30306>>DOCASE  30566>>IF      30573>>IF      30580>>IF      30587>>IF      30594>>IF      30601>>IF
     30608>>IF      30619>>IF      30626>>IF      30633>>IF      30640>>IF      30647>>IF      30661>>IF
     30678>>DOCASE  30697>>IF      30715>>IF      30728>>IF      30744>>IF      30766>>IF      30792>>IF
     30808>>DOCASE  30978>>DOCASE  31131<>CALL    31335>>DOCASE  31367>>DOCASE  32252>>DOCASE  32258>>DOCASE
     32286>>IF      32348>>DOCASE  32360>>IF      32451>>DOSELCT
P$B.CPOS
     15435**DCL     30719>>ASSIGN  32481<>CALL    32556<>CALL
P$B.NSUBLKS
     15421**DCL     27684>>IF      27707>>IF      27716>>IF      27863>>IF      27876>>IF      28015>>IF
     28041>>IF      28045>>DOINDEX 28140>>DOINDEX 28187>>DOINDEX 28202>>DOINDEX 28329>>DOINDEX 28346>>DOINDEX
     28357>>DOINDEX 28470>>IF      28477>>DOINDEX 28727>>DOINDEX 28807>>IF      28822>>ASSIGN  28833>>IF
     28897>>DOINDEX 29011>>IF      29027>>IF      29302>>IF      29317>>ASSIGN  29328>>IF      29383>>IF
PL6.E3A0      #001=VMO$MAIL File=VMO$MAIL.:VMB6TSI                               WED 08/20/97 15:19 Page:1040
     29460>>DOINDEX 29774>>IF      29822>>IF      29827>>ASSIGN  29838>>IF      29846>>DOINDEX 29982>>DOINDEX
     30038>>IF      30127>>IF      30134>>DOINDEX 30250>>IF      30265>>DOINDEX 30273>>DOINDEX 30559>>DOINDEX
     30676>>DOINDEX 30777>>IF      30795>>DOINDEX 30806>>DOINDEX 30881>>IF      30976>>DOINDEX 31127>>IF
     31255>>IF      31288>>IF      31334>>DOINDEX 31365>>DOINDEX 32242>>IF      32429>>IF      32449>>DOINDEX
     32469>>IF      32494>>IF      34114>>ASSIGN  34122>>DOINDEX
P$B.SUBLK$
     15442**DCL     27686<>CALL    27709<>CALL    27718>>DOCASE  27865<>CALL    27878<>CALL    27883<>CALL
     28017<>CALL    28044>>ASSIGN  28046>>ASSIGN  28141>>ASSIGN  28145>>ASSIGN  28145>>ASSIGN  28152>>CALL
     28152>>CALL    28173>>CALL    28173>>CALL    28188>>ASSIGN  28203>>ASSIGN  28284>>ASSIGN  28284>>ASSIGN
     28299>>CALL    28299>>CALL    28313>>CALL    28313>>CALL    28330>>ASSIGN  28347>>ASSIGN  28358>>ASSIGN
     28398>>ASSIGN  28398>>ASSIGN  28407>>IF      28407>>IF      28473>>ASSIGN  28478>>ASSIGN  28551>>CALLBLT
     28551>>CALLBLT 28553>>ASSIGN  28553>>ASSIGN  28554>>CALLBLT 28554>>CALLBLT 28554>>CALLBLT 28554>>CALLBLT
     28582>>ASSIGN  28582>>ASSIGN  28609>>CALLBLT 28609>>CALLBLT 28611>>ASSIGN  28611>>ASSIGN  28612>>CALLBLT
     28612>>CALLBLT 28612>>CALLBLT 28612>>CALLBLT 28647>>ASSIGN  28647>>ASSIGN  28667<>CALL    28728>>ASSIGN
     28822>>ASSIGN  28840>>CALLBLT 28840>>CALLBLT 28842>>ASSIGN  28842>>ASSIGN  28843>>CALLBLT 28843>>CALLBLT
     28843>>CALLBLT 28843>>CALLBLT 28850>>ASSIGN  28850>>ASSIGN  28857>>IF      28857>>IF      28874>>ASSIGN
     28874>>ASSIGN  28898>>ASSIGN  28901>>CALL    28901>>CALL    29013>>CALL    29029>>CALL    29317>>ASSIGN
     29335>>CALLBLT 29335>>CALLBLT 29337>>ASSIGN  29337>>ASSIGN  29338>>CALLBLT 29338>>CALLBLT 29338>>CALLBLT
     29338>>CALLBLT 29344>>ASSIGN  29344>>ASSIGN  29351>>IF      29351>>IF      29367>>ASSIGN  29367>>ASSIGN
     29461>>ASSIGN  29464>>CALL    29464>>CALL    29633>>CALLBLT 29633>>CALLBLT 29699>>ASSIGN  29772>>ASSIGN
     29778>>ASSIGN  29827>>ASSIGN  29842>>ASSIGN  29847>>ASSIGN  29983>>ASSIGN  30040<>CALL    30072>>ASSIGN
     30072>>ASSIGN  30133>>ASSIGN  30135>>ASSIGN  30203>>ASSIGN  30203>>ASSIGN  30204>>ASSIGN  30205>>ASSIGN
     30205>>ASSIGN  30264>>ASSIGN  30266>>ASSIGN  30274>>ASSIGN  30561>>ASSIGN  30566>>IF      30573>>IF
     30580>>IF      30587>>IF      30594>>IF      30601>>IF      30608>>IF      30615>>CALLBLT 30615>>CALLBLT
     30619>>IF      30626>>IF      30633>>IF      30640>>IF      30647>>IF      30660>>ASSIGN  30677>>ASSIGN
     30697>>IF      30715>>IF      30715>>IF      30715>>IF      30718>>ASSIGN  30718>>ASSIGN  30728>>IF
     30730>>ASSIGN  30731>>ASSIGN  30731>>ASSIGN  30744>>IF      30744>>IF      30747>>ASSIGN  30751>>ASSIGN
     30752>>ASSIGN  30752>>ASSIGN  30766>>IF      30766>>IF      30769>>ASSIGN  30773>>ASSIGN  30774>>ASSIGN
     30774>>ASSIGN  30792>>IF      30796>>ASSIGN  30807>>ASSIGN  30897>>ASSIGN  30897>>ASSIGN  30901>>CALL
     30977>>ASSIGN  30980>>CALL    30980>>CALL    31131>>CALL    31151<>CALL    31257<>CALL    31290<>CALL
     31335>>DOCASE  31366>>ASSIGN  32252>>DOCASE  32258>>DOCASE  32286>>IF      32348>>DOCASE  32360>>IF
     32450>>ASSIGN  32460>>ASSIGN  32472>>ASSIGN  32476>>ASSIGN  34114>>ASSIGN  34124>>ASSIGN  34127>>CALLBLT
     34127>>CALLBLT 34129>>CALLBLT 34129>>CALLBLT
P$S
     15455**DCL     28901<>CALL    29464<>CALL    30980<>CALL
P$S.CODE
PL6.E3A0      #001=VMO$MAIL File=VMO$MAIL.:VMB6TSI                               WED 08/20/97 15:19 Page:1041
     15461**DCL     30563>>DOCASE
P$S.COUNT
     15478**DCL     15481--IMP-SIZ 28049>>ASSIGN  28051>>ASSIGN  28056>>ASSIGN  28145>>ASSIGN  28206>>ASSIGN
     28208>>ASSIGN  28210>>ASSIGN  28211>>ASSIGN  28213>>ASSIGN  28215>>ASSIGN  28284>>ASSIGN  28350>>ASSIGN
     28352>>ASSIGN  28361>>ASSIGN  28363>>ASSIGN  28365>>ASSIGN  28366>>ASSIGN  28368>>ASSIGN  28370>>ASSIGN
     28398>>ASSIGN  28407>>IF      28481>>ASSIGN  28483>>ASSIGN  28488>>ASSIGN  28551>>CALLBLT 28553>>ASSIGN
     28554>>CALLBLT 28554>>CALLBLT 28582>>ASSIGN  28609>>CALLBLT 28611>>ASSIGN  28612>>CALLBLT 28612>>CALLBLT
     28647>>ASSIGN  28840>>CALLBLT 28842>>ASSIGN  28843>>CALLBLT 28843>>CALLBLT 28850>>ASSIGN  28857>>IF
     28874>>ASSIGN  28901>>CALL    29335>>CALLBLT 29337>>ASSIGN  29338>>CALLBLT 29338>>CALLBLT 29344>>ASSIGN
     29351>>IF      29367>>ASSIGN  29464>>CALL    29633>>CALLBLT 29773>>ASSIGN  29776>>ASSIGN  29777>>ASSIGN
     29779>>IF      29782>>ASSIGN  29785>>CALLBLT 29850>>ASSIGN  29852>>ASSIGN  29857>>ASSIGN  30072>>ASSIGN
     30138>>ASSIGN  30140>>ASSIGN  30142>>ASSIGN  30143>>ASSIGN  30145>>ASSIGN  30147>>ASSIGN  30203>>ASSIGN
     30204>>ASSIGN  30205>>ASSIGN  30269>>ASSIGN  30271>>ASSIGN  30277>>ASSIGN  30279>>ASSIGN  30281>>ASSIGN
     30282>>ASSIGN  30284>>ASSIGN  30286>>ASSIGN  30615>>CALLBLT 30680>>ASSIGN  30682>>ASSIGN  30686>>ASSIGN
     30715>>IF      30730>>ASSIGN  30731>>ASSIGN  30744>>IF      30747>>ASSIGN  30751>>ASSIGN  30752>>ASSIGN
     30766>>IF      30769>>ASSIGN  30773>>ASSIGN  30774>>ASSIGN  30810>>ASSIGN  30812>>ASSIGN  30814>>ASSIGN
     30815>>ASSIGN  30818>>ASSIGN  30897>>ASSIGN  30980>>CALL    34115>>IF      34121>>ASSIGN  34124>>ASSIGN
     34127>>CALLBLT 34129>>CALLBLT
P$S.CPOS
     15470**DCL     30901<>CALL
P$S.TEXT
     15481**DCL     28049>>ASSIGN  28051>>ASSIGN  28056>>ASSIGN  28145>>ASSIGN  28206>>ASSIGN  28208>>ASSIGN
     28210>>ASSIGN  28213>>ASSIGN  28215>>ASSIGN  28284>>ASSIGN  28350>>ASSIGN  28352>>ASSIGN  28361>>ASSIGN
     28363>>ASSIGN  28365>>ASSIGN  28368>>ASSIGN  28370>>ASSIGN  28398--ASSIGN  28407>>IF      28481>>ASSIGN
     28483>>ASSIGN  28488>>ASSIGN  28551>>CALLBLT 28553--ASSIGN  28554<<CALLBLT 28554>>CALLBLT 28582>>ASSIGN
     28609>>CALLBLT 28611--ASSIGN  28612<<CALLBLT 28612>>CALLBLT 28647>>ASSIGN  28840>>CALLBLT 28842--ASSIGN
     28843<<CALLBLT 28843>>CALLBLT 28850>>ASSIGN  28857>>IF      28874>>ASSIGN  29335>>CALLBLT 29337--ASSIGN
     29338<<CALLBLT 29338>>CALLBLT 29344>>ASSIGN  29351>>IF      29367>>ASSIGN  29633>>CALLBLT 29773>>ASSIGN
     29777>>ASSIGN  29785>>CALLBLT 29850>>ASSIGN  29852>>ASSIGN  29857>>ASSIGN  30072>>ASSIGN  30138>>ASSIGN
     30140>>ASSIGN  30142>>ASSIGN  30145>>ASSIGN  30147>>ASSIGN  30203>>ASSIGN  30205>>ASSIGN  30269>>ASSIGN
     30271>>ASSIGN  30277>>ASSIGN  30279>>ASSIGN  30281>>ASSIGN  30284>>ASSIGN  30286>>ASSIGN  30615>>CALLBLT
     30680>>ASSIGN  30682>>ASSIGN  30686>>ASSIGN  30731>>ASSIGN  30752>>ASSIGN  30774>>ASSIGN  30810>>ASSIGN
     30812>>ASSIGN  30815>>ASSIGN  30818>>ASSIGN  30897>>ASSIGN  34121>>ASSIGN  34127>>CALLBLT 34129>>CALLBLT
P$S.TEXTC$
     15473**DCL     28152>>CALL    28152>>CALL    28173>>CALL    28173>>CALL    28299>>CALL    28299>>CALL
     28313>>CALL    28313>>CALL    28731>>CALLBLT 28731>>CALLBLT 29699>>ASSIGN  32460>>ASSIGN  32472>>ASSIGN
PL6.E3A0      #001=VMO$MAIL File=VMO$MAIL.:VMB6TSI                               WED 08/20/97 15:19 Page:1042
     34117>>CALL    34117>>CALL
PAGESIZE
     16606**DCL     28735>>ASSIGN  29584>>ASSIGN
PRINT_HEADER#
     16852**DCL     27896<<ASSIGN  27916>>IF
PRINT_LDEV
     20241**DCL     30479<>CALL
PRINT_LDEV.V
     20243**DCL     20241--DCLINIT
PROCESS_CMD
     27665**PROC    27468--CALL    27511--CALL
PROCESS_INVERSE IN PROCEDURE GET$MESSAGE
     32726**LABEL   32597--GOTO
PROCESS_MODLIST_SUBC IN PROCEDURE PROCESS_CMD
     30158**LABEL   30129--GOTO
PTR1$
     16595**DCL     28046<<ASSIGN  28047>>DOCASE  28049>>ASSIGN  28049>>ASSIGN  28051>>ASSIGN  28051>>ASSIGN
     28056>>ASSIGN  28056>>ASSIGN  28478<<ASSIGN  28479>>DOCASE  28481>>ASSIGN  28481>>ASSIGN  28483>>ASSIGN
     28483>>ASSIGN  28488>>ASSIGN  28488>>ASSIGN  28728<<ASSIGN  28729>>DOCASE  28731>>CALLBLT 28731>>CALLBLT
     28758>>CALL    29847<<ASSIGN  29848>>DOCASE  29850>>ASSIGN  29850>>ASSIGN  29852>>ASSIGN  29852>>ASSIGN
     29857>>ASSIGN  29857>>ASSIGN  30677<<ASSIGN  30678>>DOCASE  30680>>ASSIGN  30680>>ASSIGN  30682>>ASSIGN
     30682>>ASSIGN  30686>>ASSIGN  30686>>ASSIGN  30807<<ASSIGN  30808>>DOCASE  30810>>ASSIGN  30810>>ASSIGN
     30812>>ASSIGN  30812>>ASSIGN  30814>>ASSIGN  30815>>ASSIGN  30815>>ASSIGN  30818>>ASSIGN  30818>>ASSIGN
     31868<<ASSIGN  31871<>CALL
PTR1$ IN PROCEDURE INIT$SELECT_OPTS
     32228**DCL     32450<<ASSIGN  32451>>DOSELCT 32460>>ASSIGN  32469>>IF      32472>>ASSIGN  32476<<ASSIGN
     32476>>ASSIGN  32481>>CALL    32506<>CALL    32556>>CALL
PTR2$
     16596**DCL     28188<<ASSIGN  28202>>DOINDEX 28203>>ASSIGN  28347<<ASSIGN  28348>>DOCASE  28350>>ASSIGN
     28350>>ASSIGN  28352>>ASSIGN  28352>>ASSIGN  28357>>DOINDEX 28358>>ASSIGN  30133<<ASSIGN  30134>>DOINDEX
     30135>>ASSIGN  30266<<ASSIGN  30267>>DOCASE  30269>>ASSIGN  30269>>ASSIGN  30271>>ASSIGN  30271>>ASSIGN
     30273>>DOINDEX 30274>>ASSIGN
PTR2$ IN PROCEDURE INIT$SELECT_OPTS
     32229**DCL     32460<<ASSIGN  32461<>CALL    32472<<ASSIGN  32473<>CALL
PTR3$
     16597**DCL     28203<<ASSIGN  28204>>DOCASE  28206>>ASSIGN  28206>>ASSIGN  28208>>ASSIGN  28208>>ASSIGN
PL6.E3A0      #001=VMO$MAIL File=VMO$MAIL.:VMB6TSI                               WED 08/20/97 15:19 Page:1043
     28210>>ASSIGN  28210>>ASSIGN  28211>>ASSIGN  28213>>ASSIGN  28213>>ASSIGN  28215>>ASSIGN  28215>>ASSIGN
     28217>>ASSIGN  28358<<ASSIGN  28359>>DOCASE  28361>>ASSIGN  28361>>ASSIGN  28363>>ASSIGN  28363>>ASSIGN
     28365>>ASSIGN  28365>>ASSIGN  28366>>ASSIGN  28368>>ASSIGN  28368>>ASSIGN  28370>>ASSIGN  28370>>ASSIGN
     28372>>ASSIGN  30135<<ASSIGN  30136>>DOCASE  30138>>ASSIGN  30138>>ASSIGN  30140>>ASSIGN  30140>>ASSIGN
     30142>>ASSIGN  30142>>ASSIGN  30143>>ASSIGN  30145>>ASSIGN  30145>>ASSIGN  30147>>ASSIGN  30147>>ASSIGN
     30149>>ASSIGN  30274<<ASSIGN  30275>>DOCASE  30277>>ASSIGN  30277>>ASSIGN  30279>>ASSIGN  30279>>ASSIGN
     30281>>ASSIGN  30281>>ASSIGN  30282>>ASSIGN  30284>>ASSIGN  30284>>ASSIGN  30286>>ASSIGN  30286>>ASSIGN
     30288>>ASSIGN
PTR4$
     16598**DCL     16600--REDEF   30758<<ASSIGN  30759>>IF      30794<<ASSIGN  30795>>DOINDEX 30796>>ASSIGN
PTR4R$.SEGID
     16602**DCL     30759>>IF
PUT_AT_END_CHAR IN PROCEDURE SORT_FOLDER
     33932**LABEL   33855--GOTO    33867--GOTO    33891--GOTO    33896--GOTO
PUT_AT_END_UBIN IN PROCEDURE SORT_FOLDER
     33814**LABEL   33777--GOTO    33785--GOTO    33804--GOTO
PUT_PROFILE
     32893**PROC    27899--CALL    28080--CALL    28693--CALL    28963--CALL    28981--CALL    29388--CALL
     29806--CALL    30026--CALL    30866--CALL    30873--CALL    31276--CALL    31346--CALL    31976--CALL
     33334--CALL
P_PCB
     15504**DCL     16086--DCLINIT
P_PCB.NCHARS
     15651**DCL     16487--IMP-SIZ 30720>>ASSIGN  30725>>ASSIGN  30725>>ASSIGN  31159>>ASSIGN  31160>>ASSIGN
P_PCB.TEXT$
     15505**DCL     16487--IMP-PTR 30725>>ASSIGN  31160>>ASSIGN
READCMD_ERR IN PROCEDURE PROCESS_CMD
     30952**LABEL   30940--GOTO
READ_AGAIN IN PROCEDURE COPY_FOLDER
     33548**LABEL   33556--GOTO
READ_AGAIN_1 IN PROCEDURE SORT_FOLDER
     33754**LABEL   33762--GOTO
READ_LOOP IN PROCEDURE COPY_FOLDER
     33547**LABEL   33549--EXIT
READ_NAME_MAP
     19140**DCL     28404<>CALL    30325<>CALL
PL6.E3A0      #001=VMO$MAIL File=VMO$MAIL.:VMB6TSI                               WED 08/20/97 15:19 Page:1044
READ_NAME_MAP.STATION_
     19143**DCL     19144--REDEF
READ_NAME_MAP.V
     19144**DCL     19140--DCLINIT
READ_NAME_MAP.V.DVBYTE.REREAD#
     19155**DCL     19155--REDEF
READ_NAME_MAP.V.INDX#
     19153**DCL     19153--REDEF
READ_OLD IN PROCEDURE UPDATE$MAIL
     33241**DCL     33548<>CALL    33754<>CALL    33970<>CALL
READ_OLD.BUF_ IN PROCEDURE UPDATE$MAIL
     33243**DCL     33543<<ASSIGN  33553<<ASSIGN  33749<<ASSIGN  33759<<ASSIGN
READ_OLD.STATION_ IN PROCEDURE UPDATE$MAIL
     33244**DCL     33245--REDEF
READ_OLD.V IN PROCEDURE UPDATE$MAIL
     33245**DCL     33241--DCLINIT
READ_OLD.V.DVBYTE.REREAD# IN PROCEDURE UPDATE$MAIL
     33256**DCL     33256--REDEF
READ_OLD.V.INDX# IN PROCEDURE UPDATE$MAIL
     33254**DCL     33254--REDEF
READ_PROFILE IN PROCEDURE PUT_PROFILE
     32913**DCL     33055<>CALL
READ_PROFILE.BUF_ IN PROCEDURE PUT_PROFILE
     32915**DCL     33050<<ASSIGN
READ_PROFILE.STATION_ IN PROCEDURE PUT_PROFILE
     32916**DCL     32917--REDEF
READ_PROFILE.V IN PROCEDURE PUT_PROFILE
     32917**DCL     32913--DCLINIT
READ_PROFILE.V.DCB# IN PROCEDURE PUT_PROFILE
     32917**DCL     33049<<ASSIGN
READ_PROFILE.V.DVBYTE.REREAD# IN PROCEDURE PUT_PROFILE
     32928**DCL     32928--REDEF
READ_PROFILE.V.INDX# IN PROCEDURE PUT_PROFILE
     32926**DCL     32926--REDEF
RECS_DELETED IN PROCEDURE UPDATE$MAIL
     33103**DCL     33336<<ASSIGN  33364<<ASSIGN  33364>>ASSIGN  33387>>ASSIGN
PL6.E3A0      #001=VMO$MAIL File=VMO$MAIL.:VMB6TSI                               WED 08/20/97 15:19 Page:1045
RELATIVE_FUNCTIONS IN PROCEDURE INIT$SELECT_OPTS
     32258**LABEL   32324--EXIT    32398--EXIT
RELEASE_GRANULES IN PROCEDURE UPDATE$MAIL
     33463**LABEL   33411--GOTO
RENUMBER# IN PROCEDURE UPDATE$MAIL
     33104**DCL     33092--PROC    33393>>IF      33545>>IF      33567>>IF      33751>>IF
RENUMBER_LOOP IN PROCEDURE SORT_FOLDER
     33968**LABEL   33973--EXIT
RENUM_OPEN IN PROCEDURE UPDATE$MAIL
     33176**DCL     33535<>CALL    33542<>CALL    33741<>CALL    33748<>CALL
RENUM_OPEN.ACCT_ IN PROCEDURE UPDATE$MAIL
     33180**DCL     33528<<ASSIGN  33734<<ASSIGN
RENUM_OPEN.ACSVEH_ IN PROCEDURE UPDATE$MAIL
     33178**DCL     33179--REDEF
RENUM_OPEN.ALTKEYS_ IN PROCEDURE UPDATE$MAIL
     33184**DCL     33185--REDEF   33185--REDEF
RENUM_OPEN.FPARAM_ IN PROCEDURE UPDATE$MAIL
     33181**DCL     33531<<ASSIGN  33537<<ASSIGN  33737<<ASSIGN  33743<<ASSIGN
RENUM_OPEN.HDR_ IN PROCEDURE UPDATE$MAIL
     33183**DCL     33184--REDEF
RENUM_OPEN.IFPARAM_ IN PROCEDURE UPDATE$MAIL
     33181**DCL     33534<<ASSIGN  33538<<ASSIGN  33740<<ASSIGN  33744<<ASSIGN
RENUM_OPEN.NAME_ IN PROCEDURE UPDATE$MAIL
     33177**DCL     33524<<ASSIGN  33730<<ASSIGN
RENUM_OPEN.PASS_ IN PROCEDURE UPDATE$MAIL
     33178**DCL     33529<<ASSIGN  33735<<ASSIGN
RENUM_OPEN.TAB_ IN PROCEDURE UPDATE$MAIL
     33182**DCL     33183--REDEF
RENUM_OPEN.UHL_ IN PROCEDURE UPDATE$MAIL
     33176**DCL     33177--REDEF   33177--REDEF
RENUM_OPEN.V IN PROCEDURE UPDATE$MAIL
     33185**DCL     33176--DCLINIT
RENUM_OPEN.V.ACS# IN PROCEDURE UPDATE$MAIL
     33196**DCL     33530<<ASSIGN  33736<<ASSIGN
RENUM_OPEN.V.DCB# IN PROCEDURE UPDATE$MAIL
     33185**DCL     33532<<ASSIGN  33536<<ASSIGN  33738<<ASSIGN  33742<<ASSIGN
PL6.E3A0      #001=VMO$MAIL File=VMO$MAIL.:VMB6TSI                               WED 08/20/97 15:19 Page:1046
RENUM_OPEN.V.EXIST# IN PROCEDURE UPDATE$MAIL
     33189**DCL     33540<<ASSIGN  33746<<ASSIGN
RENUM_OPEN.V.FSN# IN PROCEDURE UPDATE$MAIL
     33216**DCL     33216--REDEF   33216--REDEF
RENUM_OPEN.V.FUN# IN PROCEDURE UPDATE$MAIL
     33195**DCL     33533<<ASSIGN  33539<<ASSIGN  33739<<ASSIGN  33745<<ASSIGN
RENUM_OPEN.V.ORG# IN PROCEDURE UPDATE$MAIL
     33196**DCL     33541<<ASSIGN  33747<<ASSIGN
RENUM_OPEN.WSN_ IN PROCEDURE UPDATE$MAIL
     33182**DCL     33182--REDEF
REOPENED_FOLDER
     16621**DCL     31322<<ASSIGN  31377<<ASSIGN  31563>>IF
REOPEN_FILE
     19664**DCL     29618<>CALL    31058<>CALL
REOPEN_FILE.ACSVEH_
     19666**DCL     19667--REDEF
REOPEN_FILE.ALTKEYS_
     19672**DCL     19673--REDEF   19673--REDEF
REOPEN_FILE.HDR_
     19671**DCL     19672--REDEF
REOPEN_FILE.TAB_
     19670**DCL     19671--REDEF
REOPEN_FILE.UHL_
     19664**DCL     19665--REDEF   19665--REDEF
REOPEN_FILE.V
     19673**DCL     19664--DCLINIT
REOPEN_FILE.V.DCB#
     19673**DCL     29617<<ASSIGN  31057<<ASSIGN
REOPEN_FILE.V.FSN#
     19704**DCL     19704--REDEF   19704--REDEF
REOPEN_FILE.WSN_
     19670**DCL     19670--REDEF
REPARSE IN PROCEDURE PROCESS_CMD
     30092**LABEL   30115--GOTO    30152--CALLALT
REPARSE_USER IN PROCEDURE PROCESS_CMD
     30240**LABEL   30245--GOTO    30293--CALLALT 30342--GOTO    30384--GOTO
PL6.E3A0      #001=VMO$MAIL File=VMO$MAIL.:VMB6TSI                               WED 08/20/97 15:19 Page:1047
REPORT_ACTIVITY
     32085**PROC    27701--CALL    27789--CALL    27977--CALL    27980--CALL    28026--CALL    28545--CALL
     28598--CALL    28662--CALL    28700--CALL    28798--CALL    28800--CALL    28889--CALL    29005--CALL
     29377--CALL    29625--CALL    29977--CALL    30033--CALL    30063--CALL    31065--CALL    31282--CALL
     31313--CALL
RESET_#1
     18347**DCL     27228<>CALL
RESET_#1.V
     18348**DCL     18347--DCLINIT
RESET_#1_CMD
     18352**DCL     18347--DCLINIT
RESET_#2
     18370**DCL     27233<>CALL
RESET_#2.V
     18371**DCL     18370--DCLINIT
RESET_#2_CMD
     18375**DCL     18370--DCLINIT
RESET_#3
     18393**DCL     27238<>CALL
RESET_#3.V
     18394**DCL     18393--DCLINIT
RESET_#3_CMD
     18398**DCL     18393--DCLINIT
RESET_#4
     18416**DCL     27243<>CALL
RESET_#4.V
     18417**DCL     18416--DCLINIT
RESET_#4_CMD
     18421**DCL     18416--DCLINIT
RESULT$ IN PROCEDURE GET$MESSAGE
     32581**DCL     32648<>CALL    32650<>CALL    32665<>CALL    32673<>CALL    32759<>CALL    32761<>CALL
RETURN_MESSAGE IN PROCEDURE GET$MESSAGE
     32824**LABEL   32703--GOTO    32784--GOTO
SELECT_CURRENT
     16619**DCL     31144<<ASSIGN  31150<<ASSIGN  31646<<ASSIGN  32455<<ASSIGN  32612>>IF      32734>>IF
     32824>>IF
PL6.E3A0      #001=VMO$MAIL File=VMO$MAIL.:VMB6TSI                               WED 08/20/97 15:19 Page:1048
SELECT_FIRST IN PROCEDURE INIT$SELECT_OPTS
     32333**LABEL   32289--GOTO
SELECT_LAST IN PROCEDURE INIT$SELECT_OPTS
     32407**LABEL   32363--GOTO
SEND_CMD
     16152**DCL     16208--DCLINIT
SEND_CMD$
     16162**DCL     27304<<ASSIGN  34288>>CALL
SET_XCON
     18544**DCL     27312<>CALL
SET_XCON.V
     18545**DCL     18544--DCLINIT
SITE$ IN PROCEDURE TRANSFORM_DOMAIN
     34102**DCL     34114<<ASSIGN  34115>>IF      34117>>CALL    34117>>CALL    34121>>ASSIGN  34121>>ASSIGN
SITENAME IN PROCEDURE TRANSFORM_DOMAIN
     34073**DCL     34070--PROC    34115--IF      34121<<ASSIGN
SIZE
     16855**DCL     27408<<ASSIGN  27409<>CALL    30204<<ASSIGN  30320>>ASSIGN  34277<<ASSIGN  34278>>ASSIGN
     34278>>ASSIGN  34279>>ASSIGN  34281<<ASSIGN  34281>>ASSIGN  34282>>ASSIGN  34288<>CALL    34302<<ASSIGN
     34303>>ASSIGN  34303>>ASSIGN  34304>>ASSIGN  34305<<ASSIGN  34305>>ASSIGN  34306>>ASSIGN
SIZE IN PROCEDURE SORT_FOLDER
     33695**DCL     33696--IMP-SIZ 33808<<ASSIGN  33810>>CALL    33810>>CALL    33810<>CALL    33924<<ASSIGN
     33926<>CALL    33949<<ASSIGN  33950<>CALL
SORT_FOLDER IN PROCEDURE UPDATE$MAIL
     33654**PROC    33451--CALL
SORT_LOOP IN PROCEDURE SORT_FOLDER
     33753**LABEL   33755--EXIT
SPLIT_CHAR IN PROCEDURE SORT_FOLDER
     33871**LABEL   33886--GOTO    33898--GOTO
SPLIT_UBIN IN PROCEDURE SORT_FOLDER
     33789**LABEL   33800--GOTO
SR_LOOP IN PROCEDURE COPY_FOLDER
     33600**LABEL   33605--EXIT
START_BLK IN PROCEDURE INIT$SELECT_OPTS
     32234**DCL     32241<<ASSIGN  32431<<ASSIGN  32449>>DOINDEX 32494>>IF
STASH IN PROCEDURE SORT_FOLDER
PL6.E3A0      #001=VMO$MAIL File=VMO$MAIL.:VMB6TSI                               WED 08/20/97 15:19 Page:1049
     33701**DCL     33837<>CALL    33837<>CALL
STASH$ IN PROCEDURE SORT_FOLDER
     33702**DCL     33721<<ASSIGN  33722>>ASSIGN  33836>>ASSIGN  33837>>CALL    33840<<ASSIGN  33840>>ASSIGN
     33841>>ASSIGN  33861>>ASSIGN  33875>>ASSIGN  33904>>ASSIGN  33906>>ASSIGN  33908>>ASSIGN  33918>>ASSIGN
     33929>>ASSIGN  33938>>ASSIGN
STASH_LEN IN PROCEDURE SORT_FOLDER
     33700**DCL     33701--IMP-SIZ 33723<<ASSIGN  33837>>CALL    33837>>CALL    33837<>CALL    33848>>IF
     33928>>ASSIGN  33929>>ASSIGN  33932<<ASSIGN  33932>>ASSIGN  33937>>ASSIGN  33938>>ASSIGN  33941<<ASSIGN
     33941>>ASSIGN
STATUS_SAVE IN PROCEDURE GET$MESSAGE
     32582**DCL     32659<<ASSIGN  32669>>ASSIGN  32672>>ASSIGN
SUBSTITUTE# IN PROCEDURE REPORT_ACTIVITY
     32114**DCL     32085--PROC    32117>>IF
SYSACCT
     19238**DCL     18451--DCLINIT 34332--ASSIGN
TEMP
     18110**DCL     30615<<CALLBLT 30616>>ASSIGN
TEMP$ IN PROCEDURE SORT_FOLDER
     33703**DCL     33836<<ASSIGN  33837>>CALL    33861<<ASSIGN  33862>>IF      33862>>IF      33862>>IF
     33875<<ASSIGN  33876>>IF      33876>>IF      33876>>IF      33880>>IF      33880>>IF      33880>>IF
     33887>>IF      33887>>IF      33887>>IF      33904<<ASSIGN  33910>>IF      33910>>IF      33910>>IF
     33918<<ASSIGN  33929<<ASSIGN  33930>>ASSIGN  33931>>ASSIGN  33931>>ASSIGN  33938<<ASSIGN  33939>>ASSIGN
     33940>>ASSIGN  33940>>ASSIGN
TEMPBUF
     16854**DCL     30203<<ASSIGN  30320--ASSIGN
TEMPLATE IN PROCEDURE SORT_FOLDER
     33696**DCL     33810<>CALL    33810<>CALL
TRANSFORM_DOMAIN
     34070**PROC    28220--CALL    28377--CALL    30152--CALL    30293--CALL
UPDATE$MAIL
     33092**PROC    29385--CALL    31129--CALL    31131--CALL    31343--CALL
USER_NAME
     23290**DCL     27324<>CALL    27357<>CALL    27360<>CALL    27763<>CALL    27878<>CALL    27883<>CALL
     31370<>CALL    31418<>CALL    31423<>CALL    31488<>CALL    31503<>CALL    34174<>CALL
USER_NAME.L#
     23290**DCL     27323<<ASSIGN  28237>>ASSIGN  31500<<ASSIGN
PL6.E3A0      #001=VMO$MAIL File=VMO$MAIL.:VMB6TSI                               WED 08/20/97 15:19 Page:1050
USER_NAME.NAME#
     23290**DCL     27323--ASSIGN  28229>>IF      28232>>ASSIGN  28238>>ASSIGN  28989>>IF      31498>>IF
     31501<<ASSIGN  31502<<ASSIGN
VALUE IN PROCEDURE GET$MESSAGE
     32580**DCL     32650<>CALL    32651>>IF      32673<>CALL    32675>>IF      32761<>CALL    32762>>IF
VALUE IN PROCEDURE REPORT_ACTIVITY
     32086**DCL     32085--PROC    32117>>IF      32149--ASSIGN
VALUE1 IN PROCEDURE INIT$SELECT_OPTS
     32230**DCL     32461<>CALL    32462>>IF      32465>>ASSIGN  32479>>IF      32488>>ASSIGN
VALUE2 IN PROCEDURE INIT$SELECT_OPTS
     32231**DCL     32473<>CALL    32474>>IF      32479>>IF      32485>>ASSIGN
VECT_ARRAY
     20620**DCL     20322--DCLINIT 20436--DCLINIT 20549--DCLINIT 27424<<ASSIGN  29043<<ASSIGN  29098<<ASSIGN
     29127<<ASSIGN  29161<<ASSIGN  29215<<ASSIGN  29242<<ASSIGN  29269<<ASSIGN  29296<<ASSIGN  29918<<ASSIGN
     29919<<ASSIGN  31248<<ASSIGN  31573<<ASSIGN  31629<<ASSIGN  32149<<ASSIGN
VLP_KEY IN PROCEDURE UPDATE$MAIL
     33296**DCL     33241--DCLINIT 33242--DCLINIT 33282--DCLINIT 34008--ASSIGN
VLP_KEY.NUM IN PROCEDURE UPDATE$MAIL
     33299**DCL     33574>>ASSIGN  33575<<ASSIGN  33595>>IF      33596<<ASSIGN  33597>>IF      33600>>DOWHILE
     33607>>IF      33608<<ASSIGN  33609>>IF      33811>>ASSIGN  33817>>ASSIGN  33927>>ASSIGN  33936>>ASSIGN
     33953>>ASSIGN  33993>>ASSIGN  33995<<ASSIGN
VLP_KEY.TYPE IN PROCEDURE UPDATE$MAIL
     33298**DCL     33560>>IF      33562>>ASSIGN  33569>>DOCASE  33766>>IF      33978>>DOCASE
VM$CONTEXT
     18044**DCL     29073<>CALL    29102<>CALL
VM$CONTEXT.FLAGS
     18053**DCL     32193<<ASSIGN  32822<<ASSIGN
VM$CONTEXT.FLAGS.INVERSE
     18054**DCL     32424<<ASSIGN  32595>>IF
VM$CONTEXT.FLAGS.NEXT
     18056**DCL     32351<<ASSIGN  32695>>IF
VM$CONTEXT.FLAGS.PREV
     18058**DCL     32423<<ASSIGN  32776>>IF
VM$CONTEXT.MESSAGE_POINTER
     18045**DCL     29130>>IF      29161--ASSIGN  29639<<ASSIGN  31143<<ASSIGN  31647<<ASSIGN  32190<<ASSIGN
     32274<<ASSIGN  32274>>ASSIGN  32275>>ASSIGN  32276>>ASSIGN  32286>>IF      32294>>IF      32294>>IF
PL6.E3A0      #001=VMO$MAIL File=VMO$MAIL.:VMB6TSI                               WED 08/20/97 15:19 Page:1051
     32301>>IF      32308>>ASSIGN  32360>>IF      32368>>IF      32368>>IF      32375>>IF      32382>>ASSIGN
     32528<<ASSIGN  32528>>ASSIGN  32612<<ASSIGN  32688<<ASSIGN  32734<<ASSIGN  32769<<ASSIGN  32824<<ASSIGN
VM$CONTEXT.MESSAGE_SET.HIGH
     18064**DCL     28716>>IF      31141<<ASSIGN  31644<<ASSIGN  32208>>IF      32212<<ASSIGN  32265<<ASSIGN
     32265>>ASSIGN  32276<<ASSIGN  32294>>IF      32301>>IF      32310<<ASSIGN  32310>>ASSIGN  32335<<ASSIGN
     32335>>ASSIGN  32343<<ASSIGN  32343>>ASSIGN  32368>>IF      32382<<ASSIGN  32410<<ASSIGN  32410>>ASSIGN
     32418<<ASSIGN  32418>>ASSIGN  32457<<ASSIGN  32485<<ASSIGN  32488<<ASSIGN  32499<<ASSIGN  32499>>ASSIGN
     32518<<ASSIGN  32533<<ASSIGN  32533>>ASSIGN  32604>>IF      32636>>IF      32747>>IF      32796>>ASSIGN
     32821<<ASSIGN
VM$CONTEXT.MESSAGE_SET.LOW
     18062**DCL     28716>>IF      31140<<ASSIGN  31643<<ASSIGN  32208>>IF      32263<<ASSIGN  32263>>ASSIGN
     32275<<ASSIGN  32294>>IF      32308<<ASSIGN  32333<<ASSIGN  32333>>ASSIGN  32341<<ASSIGN  32341>>ASSIGN
     32368>>IF      32375>>IF      32384<<ASSIGN  32384>>ASSIGN  32408<<ASSIGN  32408>>ASSIGN  32416<<ASSIGN
     32416>>ASSIGN  32456<<ASSIGN  32465<<ASSIGN  32498<<ASSIGN  32498>>ASSIGN  32503--ASSIGN  32517<<ASSIGN
     32531<<ASSIGN  32531>>ASSIGN  32541--ASSIGN  32604>>IF      32636>>IF      32717>>ASSIGN  32747>>IF
     32820<<ASSIGN
VM$CONTEXT.NUM_ENTRIES
     18049**DCL     31142<<ASSIGN  31639<<ASSIGN  31645<<ASSIGN  32192<<ASSIGN  32208>>IF      32262>>DOINDEX
     32268<<ASSIGN  32268>>ASSIGN  32277<<ASSIGN  32293>>DOINDEX 32312<<ASSIGN  32321>>IF      32337<<ASSIGN
     32340>>DOINDEX 32341>>ASSIGN  32343>>ASSIGN  32345<<ASSIGN  32345>>ASSIGN  32367>>DOINDEX 32386<<ASSIGN
     32407>>ASSIGN  32412<<ASSIGN  32420<<ASSIGN  32420>>ASSIGN  32458<<ASSIGN  32489<<ASSIGN  32489>>ASSIGN
     32497<<ASSIGN  32497>>ASSIGN  32503>>ASSIGN  32514>>IF      32519<<ASSIGN  32529<<ASSIGN  32529>>ASSIGN
     32530>>DOINDEX 32541>>ASSIGN  32588>>IF      32601>>DOWHILE 32620>>IF      32729>>ASSIGN  32818<<ASSIGN
VM$CONTEXT.SET_INDX
     18051**DCL     27672<<ASSIGN  27673<<ASSIGN  32598>>IF      32601>>DOWHILE 32604>>IF      32604>>IF
     32620>>IF      32636>>IF      32636>>IF      32710<<ASSIGN  32710>>ASSIGN  32717>>ASSIGN  32726>>IF
     32729<<ASSIGN  32732>>DOWHILE 32742>>IF      32747>>IF      32747>>IF      32791<<ASSIGN  32791>>ASSIGN
     32796>>ASSIGN  32819<<ASSIGN
VM$CONTEXT.TRUTH_TREE$
     18047**DCL     28716>>IF      32191<<ASSIGN  32269<<ASSIGN  32269>>ASSIGN  32347<<ASSIGN  32347>>ASSIGN
     32422<<ASSIGN  32422>>ASSIGN  32506<>CALL    32536>>IF      32545<>CALL    32545<>CALL    32549<<ASSIGN
     32645>>IF      32648<>CALL    32665<>CALL    32756>>IF      32759<>CALL
VM$RADDRESS
     17398**DCL     30656--ASSIGN  30694<<ASSIGN  30841<<ASSIGN
VM$RADDRESS.ACCT
     17421**DCL     27370>>IF      31549>>IF
PL6.E3A0      #001=VMO$MAIL File=VMO$MAIL.:VMB6TSI                               WED 08/20/97 15:19 Page:1052
VM$RADDRESS.FOLDER
     17413**DCL     17414--REDEF   27370>>IF      31549>>IF
VM$UADDRESS.FOLDER
     17449**DCL     17450--REDEF
VM$UADDRESS.TYPE
     17446**DCL     30845<<ASSIGN
VM$UADDRESS.USER_NAME.COUNT
     17458**DCL     30847<<ASSIGN
VM$UADDRESS.USER_NAME.TEXT
     17459**DCL     30849<<CALLBLT
VMA$ADD_RENTRY_SORTED
     16391**DCL-ENT 28249--CALL    28442--CALL    30166--CALL    30363--CALL
VMA$ADD_UENTRY_SORTED
     16392**DCL-ENT 28244--CALL    28435--CALL    30163--CALL    30358--CALL
VMA$DEL_LIST
     16394**DCL-ENT 28566--CALL    28583--CALL    28631--CALL    28651--CALL
VMA$DEL_RENTRY
     16395**DCL-ENT 30180--CALL    30379--CALL
VMA$DEL_UENTRY
     16396**DCL-ENT 30176--CALL    30375--CALL
VMA$ENLARGE_SEGMENT
     16397**DCL-ENT 27276--CALL    27277--CALL    27278--CALL    27279--CALL    27280--CALL    27281--CALL
     30545--CALL    30835--CALL    33552--CALL    33578--CALL    33720--CALL    33758--CALL    33772--CALL
     33835--CALL    33851--CALL    34029--CALL
VMA$GET_ADD_RECORD
     16473**DCL-ENT 28732--CALL
VMA$GET_LIST
     16400**DCL-ENT 28146--CALL    28167--CALL    28293--CALL    28307--CALL    28648--CALL    28876--CALL
     29368--CALL    30073--CALL    30206--CALL
VMA$GET_LIST_NEXT
     16402**DCL-ENT 28558--CALL    28574--CALL    28616--CALL    28639--CALL    28812--CALL    28855--CALL
     29307--CALL    29349--CALL
VMA$GET_NEXT_ENTRY
     16399**DCL-ENT 31871--CALL
VMA$GET_SITE_NAME
     16398**DCL-ENT 27329--CALL
PL6.E3A0      #001=VMO$MAIL File=VMO$MAIL.:VMB6TSI                               WED 08/20/97 15:19 Page:1053
VMA$MOREMEM
     16403**DCL-ENT 16095--DCLINIT
VMA$OPEN_ENCL_SEGS
     16415**DCL-ENT 27284--CALL
VMA$OPEN_FOLDER
     16404**DCL-ENT 28064--CALL    31379--CALL    31384--CALL    31434--CALL    31440--CALL    31854--CALL
VMA$OPEN_GLOBAL
     16405**DCL-ENT 27342--CALL
VMA$OPEN_SRCH_LIST
     16413**DCL-ENT 27862--CALL    28805--CALL    31354--CALL    31360--CALL
VMA$PUT_ADD_RECORD
     16416**DCL-ENT 28792--CALL    29594--CALL
VMA$PUT_LIST
     16406**DCL-ENT 28256--CALL    28451--CALL    30194--CALL    30408--CALL
VMA$SHRINK_SEGMENT
     16414**DCL-ENT 34028--CALL
VMB$FIND_DEFAULT
     16407**DCL-ENT 27357--CALL
VMB$TESTREG
     16412**DCL-ENT 31423--CALL
VMB$USE_DEFAULT
     16409**DCL-ENT 27360--CALL    31418--CALL    31488--CALL    31503--CALL
VMB$USE_SAME
     16411**DCL-ENT 33632--CALL    34027--CALL
VMB$USE_SPECIFIED
     16408**DCL-ENT 27878--CALL    27883--CALL    31370--CALL
VMD$DEL_ENCL
     16456**DCL-ENT 28790--CALL
VMD$DI_FOLDER
     16410**DCL-ENT 29949--CALL    29962--CALL
VMD$DI_HEADER
     16417**DCL-ENT 27694--CALL    27757--CALL    27918--CALL    28684--CALL    28932--CALL    29515--CALL
     30013--CALL    30049--CALL    31034--CALL    31266--CALL    31299--CALL    32830--CALL
VMD$DI_LIST
     16418**DCL-ENT 28814--CALL    28864--CALL    28880--CALL    30188--CALL
VMD$DI_MESSAGE
PL6.E3A0      #001=VMO$MAIL File=VMO$MAIL.:VMB6TSI                               WED 08/20/97 15:19 Page:1054
     16419**DCL-ENT 28939--CALL    29526--CALL    29535--CALL
VMD$DI_PROFILE
     16420**DCL-ENT 29022--CALL
VMD$DI_USER
     16421**DCL-ENT 29309--CALL    29358--CALL    29370--CALL    30402--CALL
VMD$EJECT
     16423**DCL-ENT 28938--CALL    30008--CALL    30475--CALL
VMD$ERRMSG
     16427**DCL-ENT 27441--CALL    27541--CALL    27609--CALL    27636--CALL    27736--CALL    27808--CALL
     27835--CALL    28094--CALL    29055--CALL    29084--CALL    29113--CALL    29143--CALL    29172--CALL
     29201--CALL    29228--CALL    29255--CALL    29282--CALL    29414--CALL    29439--CALL    29486--CALL
     29557--CALL    29655--CALL    29680--CALL    29731--CALL    29756--CALL    29904--CALL    29934--CALL
     30096--CALL    30224--CALL    30425--CALL    30450--CALL    30495--CALL    30520--CALL    31002--CALL
     31084--CALL    31109--CALL    31181--CALL    31206--CALL    31234--CALL    31464--CALL    31585--CALL
     31614--CALL    32002--CALL    32132--CALL    32160--CALL    34158--CALL    34255--CALL    34317--CALL
VMD$GETNODES
     16447**DCL-ENT 27299--CALL
VMD$GET_ENCL
     16454**DCL-ENT 28767--CALL    29579--CALL
VMD$GET_HEADER
     16448**DCL-ENT 27770--CALL    27775--CALL    27926--CALL    27953--CALL    29606--CALL    29611--CALL
     31046--CALL    31051--CALL    34181--CALL    34186--CALL
VMD$GET_HEADER_NEXT
     16449**DCL-ENT 32613--CALL    33356--CALL    33436--CALL
VMD$GET_HEADER_PREV
     16450**DCL-ENT 32735--CALL
VMD$GET_PROFILE
     16452**DCL-ENT 27363--CALL    27903--CALL    27911--CALL    28004--CALL    28129--CALL    29628--CALL
     29889--CALL    29961--CALL    29975--CALL    31068--CALL    31547--CALL    32064--CALL
VMD$PUT_ENCL
     16455**DCL-ENT 29588--CALL
VMD$PUT_HEADER
     16451**DCL-ENT 27959--CALL    28689--CALL    28960--CALL    28995--CALL    30022--CALL    30056--CALL
     31273--CALL    31306--CALL    32631--CALL    33375--CALL
VMD$PUT_ID
     16457**DCL-ENT 32632--CALL
PL6.E3A0      #001=VMO$MAIL File=VMO$MAIL.:VMB6TSI                               WED 08/20/97 15:19 Page:1055
VMD$PUT_PROFILE
     16453**DCL-ENT 27375--CALL    27966--CALL    28110--CALL    31480--CALL    31554--CALL    33073--CALL
     33473--CALL    33624--CALL    34019--CALL
VMD$WRITE_BUF
     16458**DCL-ENT 27449--CALL    29070--CALL    29099--CALL    29128--CALL    29188--CALL    29216--CALL
     29243--CALL    29270--CALL    29297--CALL    29922--CALL    29948--CALL    31250--CALL    31599--CALL
     31630--CALL    32175--CALL
VME$ACKNOWLEDGE
     16459**DCL-ENT 34174--CALL
VME$ANSWER
     16460**DCL-ENT 27763--CALL
VMF$FROM
     16461**DCL-ENT 27324--CALL
VMF$MAKE_ADDRESS1
     16462**DCL-ENT 29042--CALL    31572--CALL    31952--CALL
VMF$MAKE_ADDRESS1PASS
     16463**DCL-ENT 34276--CALL
VMM$COMBINE_MESSAGE
     16466**DCL-ENT 27922--CALL
VMM$COPY_MESSAGE
     16464**DCL-ENT 27945--CALL    33441--CALL
VMM$DELETE_MESSAGE
     16465**DCL-ENT 33361--CALL    33443--CALL
VMM$EDIT_MESSAGE_OUT
     16467**DCL-ENT 31038--CALL
VMO$ABORT
     16469**DCL-ENT 16083--DCLINIT
VMO$XCON
     16468**DCL-ENT 18545--DCLINIT
VMO_REMEMBER
     16480**DCL     27336<<REMEMBR
VMS$FMT_SELECT
     16470**DCL-ENT 29073--CALL    29102--CALL
VMS$MOVE_SELECT
     16472**DCL-ENT 32506--CALL    32545--CALL
VMS$SELECT
PL6.E3A0      #001=VMO$MAIL File=VMO$MAIL.:VMB6TSI                               WED 08/20/97 15:19 Page:1056
     16471**DCL-ENT 32648--CALL    32665--CALL    32759--CALL
VMX$MRL IN PROCEDURE SORT_FOLDER
     33711**DCL-ENT 33810--CALL    33837--CALL    33926--CALL    33950--CALL
VMX$OCTBIN
     16475**DCL-ENT 28901--CALL    29464--CALL    30980--CALL
VM_ADDLIST$
     14921**DCL     17368--IMP-PTR 28146<>CALL    28167<>CALL    28183>>ASSIGN  28256<>CALL    28293<>CALL
     28307<>CALL    28328>>ASSIGN  28451<>CALL    28558<>CALL    28574<>CALL    28583<>CALL    28616<>CALL
     28639<>CALL    28648<>CALL    28651<>CALL    28812<>CALL    28855<>CALL    28876<>CALL    29307<>CALL
     29349<>CALL    29368<>CALL    30073<>CALL    30194<>CALL    30206<>CALL    30408<>CALL    31868>>ASSIGN
     31871<>CALL
VM_ADDLIST_
     14945**DCL     27278<>CALL
VM_ADDRESS_SPEC$
     16166**DCL     27305<<ASSIGN
VM_ADD_HEAD.HEAD$
     17378**DCL     31868>>ASSIGN
VM_ADD_HEAD.NUM_ENTRIES
     17371**DCL     28183<<ASSIGN  28328<<ASSIGN
VM_BLANK_LINE_FMT
     20630**DCL     20411--DCLINIT 20413--DCLINIT
VM_CENTRAL_FOLDER
     17700**DCL     27357<>CALL
VM_CENTRAL_FOLDER.ACCT
     17703**DCL     28034>>ASSIGN  28465>>ASSIGN  29817>>ASSIGN
VM_CENTRAL_FOLDER.FOLDER
     17705**DCL     28035>>ASSIGN  28507>>ASSIGN  29870>>ASSIGN
VM_COUNT_FMT
     21036**DCL     28026<>CALL
VM_CURRENT_FOLDER
     17753**DCL     27360<>CALL    29042<>CALL    31369>>ASSIGN  31370<>CALL    31378<<ASSIGN  31379<>CALL
     31384<>CALL    31418<>CALL    31434<>CALL    31440<>CALL    31449<>CALL    31488<>CALL    31491<>CALL
     31503<>CALL    31506<>CALL    31526<>CALL    31572<>CALL    32032<>CALL    33632<>CALL    34027<>CALL
     34276<>CALL
VM_CURRENT_FOLDER.ACCT
     17756**DCL     27378>>IF      28493>>IF      30668>>ASSIGN  31430>>ASSIGN  33528--ASSIGN  33734--ASSIGN
PL6.E3A0      #001=VMO$MAIL File=VMO$MAIL.:VMB6TSI                               WED 08/20/97 15:19 Page:1057
VM_CURRENT_FOLDER.FLAGS
     17776**DCL     27220<<ASSIGN  29396<<ASSIGN  31352<<ASSIGN  31429<<ASSIGN
VM_CURRENT_FOLDER.FLAGS.OPEN
     17787**DCL     27387<<ASSIGN  27498>>IF      27900<<ASSIGN  28010<<ASSIGN  28127>>IF      29380>>IF
     29626>>IF      29808>>ASSIGN  29809<<ASSIGN  29969<<ASSIGN  29973>>IF      31066>>IF      31331>>IF
     31415>>IF      31486<<ASSIGN  31523<<ASSIGN  31669<<ASSIGN  31749>>IF      31758>>IF      31767>>IF
     31977<<ASSIGN  32020<<ASSIGN  32029<<ASSIGN  32062>>IF      33038>>IF      33522<<ASSIGN  33728<<ASSIGN
VM_CURRENT_FOLDER.FLAGS.UPDATE
     17777**DCL     27897>>IF      28078>>IF      28946>>IF      29386>>IF      29803>>IF      30015>>IF
     31344>>IF      31512>>IF      31536<<ASSIGN  31759>>IF      31768>>IF      31974>>IF      32021>>IF
     32042<<ASSIGN  32626>>IF      33330>>IF
VM_CURRENT_FOLDER.FOLDER
     17758**DCL     27369>>ASSIGN  27378>>IF      28493>>IF      30669>>ASSIGN  31431>>ASSIGN  31548>>ASSIGN
     33525>>CALLBLT 33731>>CALLBLT
VM_CURRENT_FOLDER.NRECS
     17772**DCL     33337>>IF      33337>>ASSIGN
VM_CURRENT_FOLDER.PASS
     17760**DCL     30670>>ASSIGN  31432>>ASSIGN  33529--ASSIGN  33735--ASSIGN
VM_CURRENT_FOLDER.SITENAME
     17762**DCL     30671>>ASSIGN  31433>>ASSIGN
VM_CURRENT_FOLDER.UGRANS
     17774**DCL     31567>>IF      33463>>IF
VM_CURRENT_FOLDER.USER_NAME.COUNT
     17792**DCL     34291>>ASSIGN
VM_CURRENT_FOLDER.USER_NAME.TEXT
     17793**DCL     34293>>IF
VM_CURRENT_FOLDER_SAVE
     17805**DCL     31369<<ASSIGN  31378>>ASSIGN
VM_DEFAULT_NODES
     16204**DCL     16234--DCLINIT
VM_DETACH_DELETE_OK_FMT
     23393**DCL     28798<>CALL
VM_DETACH_OK_FMT
     23317**DCL     28800<>CALL
VM_DI_FIRST_CMD
     24002**DCL     29414<>CALL    29423>>ASSIGN
PL6.E3A0      #001=VMO$MAIL File=VMO$MAIL.:VMB6TSI                               WED 08/20/97 15:19 Page:1058
VM_DI_FIRST_CMD.NAME#
     24002**DCL     29412>>IF
VM_DI_LAST_CMD
     24306**DCL     29731<>CALL    29740>>ASSIGN
VM_DI_LAST_CMD.NAME#
     24306**DCL     29729>>IF
VM_DI_NEXT_CMD
     23622**DCL     30425<>CALL    30434>>ASSIGN
VM_DI_NEXT_CMD.NAME#
     23622**DCL     30423>>IF
VM_DI_PREVIOUS_CMD
     23850**DCL     30495<>CALL    30504>>ASSIGN
VM_DI_PREVIOUS_CMD.NAME#
     23850**DCL     30493>>IF
VM_DI_REST_CMD
     24458**DCL     31084<>CALL    31093>>ASSIGN
VM_DI_REST_CMD.NAME#
     24458**DCL     31082>>IF
VM_DI_THIS_CMD
     24154**DCL     29655<>CALL    29664>>ASSIGN  31181<>CALL    31190>>ASSIGN
VM_DI_THIS_CMD.NAME#
     24154**DCL     29653>>IF      31179>>IF
VM_ENCLLIST$
     14936**DCL     17494--IMP-PTR 28739>>ASSIGN  29576>>ASSIGN  29577>>DOINDEX
VM_ENCLLIST_
     14952**DCL     28732<>CALL    28792<>CALL    29594<>CALL
VM_ENCLOS.FLAGS.DELETED
     17530**DCL     28742>>IF      28791<<ASSIGN  28797>>IF
VM_ENCLOS.NEXT$
     17525**DCL     28749>>IF      28753>>ASSIGN  29592>>ASSIGN
VM_ENCLOS.NRECS
     17538**DCL     28766>>DOINDEX 28790<>CALL    29578>>DOINDEX
VM_ENCLOS.TYPE
     17540**DCL     28741>>IF      29579>>CALL    29588>>CALL
VM_ENCLREC.VALUE.COUNT
     17562**DCL     17572--IMP-SIZ
PL6.E3A0      #001=VMO$MAIL File=VMO$MAIL.:VMB6TSI                               WED 08/20/97 15:19 Page:1059
VM_ENCLREC$
     14938**DCL     17556--IMP-PTR 28767<>CALL    28772>>ASSIGN  28790<>CALL    29579<>CALL    29588<>CALL
VM_ENCLREC_
     14953**DCL     28735<<ASSIGN  28735>>ASSIGN  29584<<ASSIGN  29584>>ASSIGN
VM_ENCL_HEAD.HEAD$
     17504**DCL     28739>>ASSIGN  29576>>ASSIGN
VM_ENCL_HEAD.NUM_ENTRIES
     17497**DCL     29577>>DOINDEX
VM_END_CMD
     24610**DCL     27541<>CALL    27544>>ASSIGN  27609<>CALL    27612>>ASSIGN
VM_END_NOUPDATE_CMD
     23470**DCL     27636<>CALL    27639>>ASSIGN  32002<>CALL    32011<<ASSIGN  32011>>ASSIGN
VM_END_NOUPDATE_CMD.NAME#
     23470**DCL     32000>>IF
VM_FILERES
     18225**DCL     18245--DCLINIT 18268--DCLINIT
VM_FOLDER_DELETED_FMT
     20884**DCL     28545<>CALL
VM_FOLDER_DISPLAYED_FMT
     20960**DCL     29977<>CALL
VM_FOLDER_HEADER1_FMT
     20732**DCL     29904<>CALL
VM_FOLDER_HEADER1_FMT.L#
     20732**DCL     29907>>ASSIGN
VM_FOLDER_HEADER1_FMT.NAME#
     20732**DCL     29902>>IF      29907--ASSIGN
VM_FOLDER_HEADER2_FMT
     20808**DCL     29934<>CALL
VM_FOLDER_HEADER2_FMT.L#
     20808**DCL     29937>>ASSIGN
VM_FOLDER_HEADER2_FMT.NAME#
     20808**DCL     29932>>IF      29937--ASSIGN
VM_FORWARD_ENCL_NAME
     15148**DCL     19555--DCLINIT
VM_FORWARD_FILE_NAME
     15121**DCL     19436--DCLINIT
PL6.E3A0      #001=VMO$MAIL File=VMO$MAIL.:VMB6TSI                               WED 08/20/97 15:19 Page:1060
VM_FORWARD_FILE_PASS
     15161**DCL     19437--DCLINIT 19556--DCLINIT
VM_GREETING_FMT
     20656**DCL     27441<>CALL
VM_HEADER
     17113**DCL     27694<>CALL    27757<>CALL    27918<>CALL    28684<>CALL    28932<>CALL    29515<>CALL
     30013<>CALL    30049<>CALL    31034<>CALL    31266<>CALL    31299<>CALL    32830<>CALL
VM_HEADER.CREATION_DATE
     17116**DCL     32860>>ASSIGN  33782>>IF      33792>>IF      33795>>IF      33801>>IF      33812>>ASSIGN
     33818>>ASSIGN
VM_HEADER.FREE$
     17193**DCL     32869>>ASSIGN
VM_HEADER.FROM$
     17205**DCL     28989>>IF      28989>>IF      33825>>ASSIGN
VM_HEADER.HEADER_SIZE
     17114**DCL     32870>>ASSIGN
VM_HEADER.NEXT$
     17195**DCL     32868>>ASSIGN  32872<<ASSIGN
VM_HEADER.NUM_RECORDS
     17124**DCL     33364>>ASSIGN
VM_HEADER.REFERENCE$
     17207**DCL     33827>>ASSIGN
VM_HEADER.STATUS.ACK
     17132**DCL     27927>>IF
VM_HEADER.STATUS.BROADCAST
     17164**DCL     27758>>IF
VM_HEADER.STATUS.CRYPT
     17138**DCL     28928>>IF      29508>>IF      31027>>IF
VM_HEADER.STATUS.DEL
     17148**DCL     27936<<ASSIGN  27955>>IF      27958<<ASSIGN  28678>>IF      28686<<ASSIGN  31268>>IF
     31272<<ASSIGN  33358>>IF
VM_HEADER.STATUS.DELIVERY
     17162**DCL     27927>>IF
VM_HEADER.STATUS.ENCL
     17178**DCL     28711>>IF      29525>>IF      29534>>IF      29547>>IF
VM_HEADER.STATUS.EXAM
PL6.E3A0      #001=VMO$MAIL File=VMO$MAIL.:VMB6TSI                               WED 08/20/97 15:19 Page:1061
     17146**DCL     28949>>IF      28958<<ASSIGN  28974>>IF      32659>>ASSIGN  32660<<ASSIGN  32660>>ASSIGN
     32669<<ASSIGN  32672<<ASSIGN
VM_HEADER.STATUS.MAKE_OLD
     17143**DCL     27937>>IF      27940<<ASSIGN  28678>>IF      28954>>IF      28959<<ASSIGN  28974>>IF
     30015>>IF      30021<<ASSIGN  32677>>IF      33370>>IF      33374<<ASSIGN
VM_HEADER.STATUS.MARK
     17152**DCL     30051>>IF      30055<<ASSIGN  31300>>IF      31305<<ASSIGN
VM_HEADER.STATUS.OLD
     17140**DCL     27939<<ASSIGN  27942>>IF      28678>>IF      28949>>IF      28954>>IF      30015>>IF
     33373<<ASSIGN  33378>>IF
VM_HEADER.STATUS.RR
     17136**DCL     27935<<ASSIGN  28986>>IF      28994<<ASSIGN
VM_HEADER.STATUS.RRACK
     17174**DCL     27927>>IF
VM_HEADER.SUBJECT$
     17215**DCL     33829>>ASSIGN
VM_HEADER.TO$
     17217**DCL     33831>>ASSIGN
VM_HEADER.UNIQUE_ID$
     17219**DCL     32626>>IF      32632>>CALL    32632>>CALL    32873<<ASSIGN  32874>>ASSIGN  32875>>ASSIGN
     32875>>ASSIGN
VM_HEADER$
     14917**DCL     17113--IMP-PTR 17472--IMP-PTR 27694>>CALL    27757>>CALL    27758>>IF      27918>>CALL
     27927>>IF      27927>>IF      27927>>IF      27935>>ASSIGN  27936>>ASSIGN  27937>>IF      27939>>ASSIGN
     27940>>ASSIGN  27942>>IF      27955>>IF      27958>>ASSIGN  28678>>IF      28678>>IF      28678>>IF
     28684>>CALL    28686>>ASSIGN  28711>>IF      28928>>IF      28932>>CALL    28949>>IF      28949>>IF
     28954>>IF      28954>>IF      28958>>ASSIGN  28959>>ASSIGN  28974>>IF      28974>>IF      28986>>IF
     28989>>IF      28989>>IF      28994>>ASSIGN  29508>>IF      29515>>CALL    29525>>IF      29534>>IF
     29547>>IF      30013>>CALL    30015>>IF      30015>>IF      30021>>ASSIGN  30049>>CALL    30051>>IF
     30055>>ASSIGN  31027>>IF      31034>>CALL    31266>>CALL    31268>>IF      31272>>ASSIGN  31299>>CALL
     31300>>IF      31305>>ASSIGN  32626>>IF      32632>>CALL    32632>>CALL    32659>>ASSIGN  32660>>ASSIGN
     32660>>ASSIGN  32669>>ASSIGN  32672>>ASSIGN  32677>>IF      32830>>CALL    32860>>ASSIGN  32867>>ASSIGN
     32868>>ASSIGN  32869>>ASSIGN  32870>>ASSIGN  32872>>ASSIGN  32873>>ASSIGN  32874>>ASSIGN  32875>>ASSIGN
     32875>>ASSIGN  33358>>IF      33364>>ASSIGN  33370>>IF      33373>>ASSIGN  33374>>ASSIGN  33378>>IF
     33587>>IF      33589>>ASSIGN  33782>>IF      33792>>IF      33795>>IF      33801>>IF      33812>>ASSIGN
     33818>>ASSIGN  33825>>ASSIGN  33827>>ASSIGN  33829>>ASSIGN  33831>>ASSIGN  33987>>CALL    33988>>ASSIGN
PL6.E3A0      #001=VMO$MAIL File=VMO$MAIL.:VMB6TSI                               WED 08/20/97 15:19 Page:1062
VM_HEADER_
     14942**DCL     27276<>CALL    33543>>ASSIGN  33552<>CALL    33553>>ASSIGN  33615>>ASSIGN  33749>>ASSIGN
     33758<>CALL    33759>>ASSIGN  34000>>ASSIGN
VM_HEADRES
     18285**DCL     18304--DCLINIT 18324--DCLINIT
VM_HEADRES.RES#
     18287**DCL     32825<<ASSIGN  33401<<ASSIGN
VM_ID.MESSAGE_NUMBER
     17473**DCL     33587>>IF      33589<<ASSIGN  33987<>CALL    33988<<ASSIGN
VM_LISTKEY
     17300**DCL     28146<>CALL    28256<>CALL    28307<>CALL    28557>>ASSIGN  28558<>CALL    28566<>CALL
     28571>>ASSIGN  28573<<ASSIGN  28574<>CALL    28583<>CALL    28812<>CALL    28814<>CALL    28855<>CALL
     28864<>CALL    28876<>CALL    28880<>CALL    30073<>CALL    30188<>CALL    30194<>CALL
VM_LISTKEY.COUNT
     17301**DCL     28561>>ASSIGN  28861>>ASSIGN
VM_LISTKEY.TEXT
     17304**DCL     28145<<ASSIGN  28166>>ASSIGN  28306<<ASSIGN  28556<<ASSIGN  28561--ASSIGN  28582<<ASSIGN
     28810<<ASSIGN  28848<<ASSIGN  28850<<ASSIGN  28851<<ASSIGN  28852<<ASSIGN  28852>>ASSIGN  28857>>IF
     28861--ASSIGN  28874<<ASSIGN  30072<<ASSIGN
VM_LISTKEY2
     17317**DCL     28557<<ASSIGN  28571<<ASSIGN  28573>>ASSIGN
VM_LISTS_DELETED_FMT
     22073**DCL     28598<>CALL
VM_LISTS_DISPLAYED_FMT
     22149**DCL     28889<>CALL
VM_LIST_FIRST_CMD
     24078**DCL     29439<>CALL    29448>>ASSIGN
VM_LIST_FIRST_CMD.NAME#
     24078**DCL     29437>>IF
VM_LIST_LAST_CMD
     24382**DCL     29756<>CALL    29765>>ASSIGN
VM_LIST_LAST_CMD.NAME#
     24382**DCL     29754>>IF
VM_LIST_NEXT_CMD
     23698**DCL     30450<>CALL    30459>>ASSIGN
VM_LIST_NEXT_CMD.NAME#
PL6.E3A0      #001=VMO$MAIL File=VMO$MAIL.:VMB6TSI                               WED 08/20/97 15:19 Page:1063
     23698**DCL     30448>>IF
VM_LIST_PREVIOUS_CMD
     23926**DCL     30520<>CALL    30529>>ASSIGN
VM_LIST_PREVIOUS_CMD.NAME#
     23926**DCL     30518>>IF
VM_LIST_REST_CMD
     24534**DCL     31109<>CALL    31118>>ASSIGN
VM_LIST_REST_CMD.NAME#
     24534**DCL     31107>>IF
VM_LIST_THIS_CMD
     24230**DCL     29680<>CALL    29689>>ASSIGN  31206<>CALL    31215>>ASSIGN
VM_LIST_THIS_CMD.NAME#
     24230**DCL     29678>>IF      31204>>IF
VM_MAILCG_SETSTA.MYSTATION#
     15208**DCL     27334<<CALLBLT 27335<<CALLBLT
VM_MAIL_ACCT
     15013**DCL     19021--DCLINIT
VM_MAIL_ACCT.ACCT#
     15013**DCL     27378>>IF
VM_MAIL_SETUP
     25218**DCL     28094<>CALL    31464<>CALL
VM_MAIL_SETUP.L#
     25218**DCL     28108>>ASSIGN  31478>>ASSIGN
VM_MAIL_SETUP.NAME#
     25218**DCL     28092>>IF      28109>>ASSIGN  31462>>IF      31479>>ASSIGN
VM_MODIFY_LIST_PROMPT
     16723**DCL     30096<>CALL
VM_MODIFY_LIST_PROMPT.L#
     16723**DCL     30110>>CALL
VM_MODIFY_LIST_PROMPT.NAME#
     16723**DCL     30094>>IF      30110--CALL
VM_MODIFY_USER_PROMPT
     16799**DCL     30224<>CALL
VM_MODIFY_USER_PROMPT.L#
     16799**DCL     30240>>CALL
VM_MODIFY_USER_PROMPT.NAME#
PL6.E3A0      #001=VMO$MAIL File=VMO$MAIL.:VMB6TSI                               WED 08/20/97 15:19 Page:1064
     16799**DCL     30222>>IF      30240--CALL
VM_MSGS_COPIED_FMT
     21845**DCL     27977<>CALL
VM_MSGS_DELETED_FMT
     21541**DCL     27980<>CALL    28700<>CALL
VM_MSGS_DISPLAYED_FMT
     21921**DCL     29005<>CALL
VM_MSGS_LISTED_FMT
     21997**DCL     30033<>CALL
VM_MSGS_MARKED_FMT
     21693**DCL     30063<>CALL
VM_MSGS_UNDELETED_FMT
     21617**DCL     31282<>CALL
VM_MSGS_UNMARKED_FMT
     21769**DCL     31313<>CALL
VM_NAME_MAP_NAME
     15040**DCL     19017--DCLINIT
VM_NATL_PAIRS
     16232**DCL     27299<>CALL
VM_NEXT_CMD
     23546**DCL     27808<>CALL    27817>>ASSIGN
VM_NEXT_CMD.NAME#
     23546**DCL     27806>>IF
VM_NODEFID
     16388**DCL     27299<>CALL
VM_NODENAMES
     16275**DCL     27299<>CALL
VM_NO_MESSAGE_FMT
     21112**DCL     27701<>CALL    27789<>CALL    29625<>CALL    31065<>CALL    32132<>CALL
VM_NO_MESSAGE_FMT.L#
     21112**DCL     32135>>ASSIGN
VM_NO_MESSAGE_FMT.NAME#
     21112**DCL     32130>>IF      32135--ASSIGN
VM_PARSEAREA_
     14949**DCL     27281<>CALL    27282<<ASSIGN  27282>>ASSIGN  27283<<ASSIGN  27283>>ASSIGN  27289>>ASSIGN
VM_PREVIOUS_CMD
PL6.E3A0      #001=VMO$MAIL File=VMO$MAIL.:VMB6TSI                               WED 08/20/97 15:19 Page:1065
     23774**DCL     27835<>CALL    27844>>ASSIGN
VM_PREVIOUS_CMD.NAME#
     23774**DCL     27833>>IF
VM_PROFILE
     16937**DCL     28081<<ASSIGN  30552--ASSIGN  31451<<ASSIGN
VM_PROFILE.EDITOR$
     17003**DCL     30758>>ASSIGN  30762>>ASSIGN  30764<<ASSIGN  30772<<ASSIGN  30773>>ASSIGN  30774>>ASSIGN
     30774>>ASSIGN
VM_PROFILE.FILE_FOLDER$
     16990**DCL     27370>>IF      27370>>IF      27370>>IF      27374<<ASSIGN  30653>>IF      30658<<ASSIGN
     30663>>ASSIGN  30665<<ASSIGN  30692<<ASSIGN  30694>>ASSIGN  31549>>IF      31549>>IF      31549>>IF
     31553<<ASSIGN
VM_PROFILE.FREE$
     16970**DCL     28082<<ASSIGN  30554>>ASSIGN  30865<<ASSIGN  31452<<ASSIGN
VM_PROFILE.GRANULES
     16984**DCL     30616<<ASSIGN  31567>>IF      31567>>IF
VM_PROFILE.HIGH_RECS
     17001**DCL     33337>>IF      33337<<ASSIGN  33415>>IF      33463>>IF      33623<<ASSIGN
VM_PROFILE.HI_MESSAGE_NUMBER
     16982**DCL     27931<<ASSIGN  27931>>ASSIGN  27945<>CALL    28926<<ASSIGN  28926>>ASSIGN  29296--ASSIGN
     30011<<ASSIGN  30011>>ASSIGN  32212>>ASSIGN  33059>>IF      33071<<ASSIGN  33401>>ASSIGN  33410<<ASSIGN
     33415>>IF      33435>>DOWHILE 33453<<ASSIGN  33546>>ASSIGN  33642>>ASSIGN  33648>>ASSIGN  33752>>ASSIGN
     34017<<ASSIGN  34039>>ASSIGN  34045>>ASSIGN
VM_PROFILE.LOW_DEL_NUM
     16998**DCL     28687>>IF      28688<<ASSIGN  33415>>IF      33455<<ASSIGN  33463>>IF      33469<<ASSIGN
VM_PROFILE.NAME_KEY
     16996**DCL     28084<<CALLBLT 31454<<CALLBLT
VM_PROFILE.NEXT$
     16972**DCL     28083<<ASSIGN  30556>>ASSIGN  30864<<ASSIGN  31453<<ASSIGN
VM_PROFILE.NUM_DEL_MESSAGES
     16978**DCL     28005<<ASSIGN  28005>>ASSIGN  28691<<ASSIGN  28691>>ASSIGN  29215--ASSIGN  31274<<ASSIGN
     31274>>ASSIGN  33345>>IF      33384<<ASSIGN
VM_PROFILE.NUM_LOST
     17007**DCL     31601>>IF      31601>>IF      31629--ASSIGN  33385<<ASSIGN
VM_PROFILE.NUM_MESSAGES
     16974**DCL     27932<<ASSIGN  27932>>ASSIGN  28978>>ASSIGN  29269--ASSIGN  31137>>IF      31637>>IF
PL6.E3A0      #001=VMO$MAIL File=VMO$MAIL.:VMB6TSI                               WED 08/20/97 15:19 Page:1066
     33064<<ASSIGN  33353<<ASSIGN  33357<<ASSIGN  33357>>ASSIGN  33363<<ASSIGN  33363>>ASSIGN  33407>>IF
     33454<<ASSIGN  34018<<ASSIGN
VM_PROFILE.NUM_MOLD_MESSAGES
     16980**DCL     28962<<ASSIGN  28962>>ASSIGN  28974>>IF      28978<<ASSIGN  30024<<ASSIGN  30024>>ASSIGN
     33345>>IF      33386<<ASSIGN
VM_PROFILE.NUM_NEW_MESSAGES
     16976**DCL     27944<<ASSIGN  27944>>ASSIGN  29242--ASSIGN  33065<<ASSIGN  33068<<ASSIGN  33068>>ASSIGN
     33354<<ASSIGN  33380<<ASSIGN  33380>>ASSIGN
VM_PROFILE.OPT.ANS_RECEIVERS
     16959**DCL     27715>>ASSIGN  30568<<ASSIGN  30570<<ASSIGN
VM_PROFILE.OPT.AUTO_EDIT
     16951**DCL     30589<<ASSIGN  30591<<ASSIGN
VM_PROFILE.OPT.COMBINE
     16955**DCL     27927>>IF      30596<<ASSIGN  30598<<ASSIGN
VM_PROFILE.OPT.DELIVERY_RECEIPT
     16957**DCL     30603<<ASSIGN  30605<<ASSIGN
VM_PROFILE.OPT.DEL_ON_DETACH
     16965**DCL     28789>>IF      30575<<ASSIGN  30577<<ASSIGN
VM_PROFILE.OPT.DISPTRACE
     16953**DCL     30610<<ASSIGN  30612<<ASSIGN
VM_PROFILE.OPT.EXT_ADDR_DISP
     16963**DCL     30582<<ASSIGN  30584<<ASSIGN
VM_PROFILE.OPT.FCOPY
     16943**DCL     30628<<ASSIGN  30630<<ASSIGN
VM_PROFILE.OPT.HEADERS
     16941**DCL     27896>>ASSIGN  28682>>IF      30047>>IF      30621<<ASSIGN  30623<<ASSIGN  31264>>IF
     31297>>IF
VM_PROFILE.OPT.PAGE
     16949**DCL     28936>>IF      30001>>ASSIGN  30635<<ASSIGN  30637<<ASSIGN
VM_PROFILE.OPT.PREPROCESS
     16961**DCL     30642<<ASSIGN  30644<<ASSIGN
VM_PROFILE.OPT.RENUMBER
     16947**DCL     29385<>CALL    30649<<ASSIGN  30651<<ASSIGN  31343<>CALL
VM_PROFILE.OPT.RETURN_RECEIPT
     16945**DCL     30699<<ASSIGN  30701<<ASSIGN
VM_PROFILE.PROFILE_SIZE
PL6.E3A0      #001=VMO$MAIL File=VMO$MAIL.:VMB6TSI                               WED 08/20/97 15:19 Page:1067
     16968**DCL     30547>>ASSIGN  30552>>ASSIGN  30868>>ASSIGN
VM_PROFILE.RECS_DELETED
     16999**DCL     33387<<ASSIGN  33387>>ASSIGN  33415>>IF      33463>>IF      33622<<ASSIGN  34016<<ASSIGN
VM_PROFILE.REPLY_TO$
     17005**DCL     30707>>IF      30710>>ASSIGN  30712<<ASSIGN  30723<<ASSIGN  30724>>ASSIGN  30725>>ASSIGN
     30725>>ASSIGN
VM_PROFILE.SEARCH_LIST$
     16992**DCL     27366<<ASSIGN  27401<<ASSIGN  30784>>IF      30787>>ASSIGN  30789<<ASSIGN  30840<<ASSIGN
     30841>>ASSIGN  30845>>ASSIGN  30847>>ASSIGN  30849>>CALLBLT 31680<<ASSIGN  32056<<ASSIGN
VM_PROFILE.SETUP
     16986**DCL     31657>>ASSIGN
VM_PROFILE.SETUP.COUNT
     16988**DCL     28108<<ASSIGN  30728<<ASSIGN  30730<<ASSIGN  31478<<ASSIGN
VM_PROFILE.SETUP.TEXT
     16989**DCL     28109<<ASSIGN  30731<<ASSIGN  31479<<ASSIGN
VM_PROFILE.SIGNED$
     16994**DCL     30737>>IF      30740>>ASSIGN  30742<<ASSIGN  30750<<ASSIGN  30751>>ASSIGN  30752>>ASSIGN
     30752>>ASSIGN
VM_PROFILE.WORK_AREA
     17011**DCL     28083--ASSIGN  30552--ASSIGN  30555--ASSIGN  31453--ASSIGN
VM_PROFILE$
     14919**DCL     16937--IMP-PTR 27366>>ASSIGN  27370>>IF      27370>>IF      27370>>IF      27374>>ASSIGN
     27401>>ASSIGN  27715>>ASSIGN  27896>>ASSIGN  27927>>IF      27931>>ASSIGN  27931>>ASSIGN  27932>>ASSIGN
     27932>>ASSIGN  27944>>ASSIGN  27944>>ASSIGN  27945>>CALL    28005>>ASSIGN  28005>>ASSIGN  28081>>ASSIGN
     28082>>ASSIGN  28083>>ASSIGN  28083>>ASSIGN  28084>>CALLBLT 28108>>ASSIGN  28109>>ASSIGN  28682>>IF
     28687>>IF      28688>>ASSIGN  28691>>ASSIGN  28691>>ASSIGN  28789>>IF      28926>>ASSIGN  28926>>ASSIGN
     28936>>IF      28962>>ASSIGN  28962>>ASSIGN  28974>>IF      28978>>ASSIGN  28978>>ASSIGN  29215>>ASSIGN
     29242>>ASSIGN  29269>>ASSIGN  29296>>ASSIGN  29385>>CALL    30001>>ASSIGN  30011>>ASSIGN  30011>>ASSIGN
     30024>>ASSIGN  30024>>ASSIGN  30047>>IF      30547>>ASSIGN  30548>>ASSIGN  30552>>ASSIGN  30552>>ASSIGN
     30552>>ASSIGN  30554>>ASSIGN  30555>>ASSIGN  30556>>ASSIGN  30568>>ASSIGN  30570>>ASSIGN  30575>>ASSIGN
     30577>>ASSIGN  30582>>ASSIGN  30584>>ASSIGN  30589>>ASSIGN  30591>>ASSIGN  30596>>ASSIGN  30598>>ASSIGN
     30603>>ASSIGN  30605>>ASSIGN  30610>>ASSIGN  30612>>ASSIGN  30616>>ASSIGN  30621>>ASSIGN  30623>>ASSIGN
     30628>>ASSIGN  30630>>ASSIGN  30635>>ASSIGN  30637>>ASSIGN  30642>>ASSIGN  30644>>ASSIGN  30649>>ASSIGN
     30651>>ASSIGN  30653>>IF      30658>>ASSIGN  30663>>ASSIGN  30665>>ASSIGN  30692>>ASSIGN  30694>>ASSIGN
     30699>>ASSIGN  30701>>ASSIGN  30707>>IF      30710>>ASSIGN  30712>>ASSIGN  30723>>ASSIGN  30724>>ASSIGN
     30725>>ASSIGN  30725>>ASSIGN  30728>>ASSIGN  30730>>ASSIGN  30731>>ASSIGN  30737>>IF      30740>>ASSIGN
PL6.E3A0      #001=VMO$MAIL File=VMO$MAIL.:VMB6TSI                               WED 08/20/97 15:19 Page:1068
     30742>>ASSIGN  30750>>ASSIGN  30751>>ASSIGN  30752>>ASSIGN  30752>>ASSIGN  30758>>ASSIGN  30762>>ASSIGN
     30764>>ASSIGN  30772>>ASSIGN  30773>>ASSIGN  30774>>ASSIGN  30774>>ASSIGN  30784>>IF      30787>>ASSIGN
     30789>>ASSIGN  30840>>ASSIGN  30841>>ASSIGN  30845>>ASSIGN  30847>>ASSIGN  30849>>CALLBLT 30864>>ASSIGN
     30865>>ASSIGN  30869>>ASSIGN  31137>>IF      31264>>IF      31274>>ASSIGN  31274>>ASSIGN  31297>>IF
     31343>>CALL    31451>>ASSIGN  31452>>ASSIGN  31453>>ASSIGN  31453>>ASSIGN  31454>>CALLBLT 31478>>ASSIGN
     31479>>ASSIGN  31549>>IF      31549>>IF      31549>>IF      31553>>ASSIGN  31567>>IF      31567>>IF
     31601>>IF      31601>>IF      31629>>ASSIGN  31637>>IF      31657>>ASSIGN  31680>>ASSIGN  32056>>ASSIGN
     32212>>ASSIGN  33059>>IF      33064>>ASSIGN  33065>>ASSIGN  33068>>ASSIGN  33068>>ASSIGN  33071>>ASSIGN
     33337>>IF      33337>>ASSIGN  33345>>IF      33345>>IF      33353>>ASSIGN  33354>>ASSIGN  33357>>ASSIGN
     33357>>ASSIGN  33363>>ASSIGN  33363>>ASSIGN  33380>>ASSIGN  33380>>ASSIGN  33384>>ASSIGN  33385>>ASSIGN
     33386>>ASSIGN  33387>>ASSIGN  33387>>ASSIGN  33401>>ASSIGN  33407>>IF      33410>>ASSIGN  33415>>IF
     33415>>IF      33415>>IF      33415>>IF      33435>>DOWHILE 33453>>ASSIGN  33454>>ASSIGN  33455>>ASSIGN
     33463>>IF      33463>>IF      33463>>IF      33469>>ASSIGN  33546>>ASSIGN  33622>>ASSIGN  33623>>ASSIGN
     33642>>ASSIGN  33648>>ASSIGN  33752>>ASSIGN  34016>>ASSIGN  34017>>ASSIGN  34018>>ASSIGN  34039>>ASSIGN
     34045>>ASSIGN
VM_PROFILE_
     14944**DCL     27277<>CALL    30542>>IF      30544>>ASSIGN  30835<>CALL
VM_PROKEY IN PROCEDURE PUT_PROFILE
     33032**DCL     32913--DCLINIT 32914--DCLINIT
VM_PRORES
     18211**DCL     18176--DCLINIT 18195--DCLINIT
VM_PROSTUB IN PROCEDURE PUT_PROFILE
     32945**DCL     33050--ASSIGN
VM_PROSTUB.HI_MESSAGE_NUMBER IN PROCEDURE PUT_PROFILE
     32990**DCL     33059>>IF      33071>>ASSIGN
VM_PROSTUB.NUM_MESSAGES IN PROCEDURE PUT_PROFILE
     32982**DCL     33064>>ASSIGN
VM_PROSTUB.NUM_NEW_MESSAGES IN PROCEDURE PUT_PROFILE
     32984**DCL     33065>>ASSIGN
VM_RADDRESS
     17591**DCL     28064--CALL    30694>>ASSIGN  30830--ASSIGN  30841>>ASSIGN  31434--CALL    31440--CALL
     31854--CALL    31871<>CALL
VM_RADDRESS.ACCT
     17614**DCL     28034<<ASSIGN  28049<<ASSIGN  28465<<ASSIGN  28481<<ASSIGN  28493>>IF      28499>>ASSIGN
     29817<<ASSIGN  29850<<ASSIGN  29862>>ASSIGN  30668<<ASSIGN  30680<<ASSIGN  30689>>IF      30797<<ASSIGN
     30810<<ASSIGN  31430<<ASSIGN
PL6.E3A0      #001=VMO$MAIL File=VMO$MAIL.:VMB6TSI                               WED 08/20/97 15:19 Page:1069
VM_RADDRESS.FLAGS
     17596**DCL     30674<<ASSIGN  30803<<ASSIGN
VM_RADDRESS.FOLDER
     17606**DCL     17607--REDEF   28035<<ASSIGN  28051<<ASSIGN  28466<<ASSIGN  28483<<ASSIGN  28493>>IF
     28505>>IF      28507<<ASSIGN  28508>>ASSIGN  29818<<ASSIGN  29852<<ASSIGN  29868>>IF      29870<<ASSIGN
     29871>>ASSIGN  30669<<ASSIGN  30682<<ASSIGN  30689>>IF      30798<<ASSIGN  30812<<ASSIGN  31431<<ASSIGN
     31834--ASSIGN  31835<<ASSIGN
VM_RADDRESS.NEXT$
     17592**DCL     30672<<ASSIGN  30801<<ASSIGN
VM_RADDRESS.NOMAD.FOLDER
     17608**DCL     27369<<ASSIGN  31548<<ASSIGN
VM_RADDRESS.PASS
     17611**DCL     28036<<ASSIGN  28056<<ASSIGN  28467<<ASSIGN  28488<<ASSIGN  28500>>ASSIGN  29819<<ASSIGN
     29857<<ASSIGN  29863>>ASSIGN  30670<<ASSIGN  30686<<ASSIGN  30799<<ASSIGN  30818<<ASSIGN  31432<<ASSIGN
VM_RADDRESS.PREV$
     17594**DCL     30673<<ASSIGN  30802<<ASSIGN
VM_RADDRESS.SITENAME
     17613**DCL     28037<<ASSIGN  28468<<ASSIGN  29820<<ASSIGN  30671<<ASSIGN  30800<<ASSIGN  31433<<ASSIGN
VM_RADDRESS.TYPE
     17603**DCL     28469<<ASSIGN  29821<<ASSIGN  30675<<ASSIGN  30804<<ASSIGN
VM_RESEND_NAME
     25142**DCL     31002<>CALL    31017--CALLBLT 31017--CALLBLT
VM_RESEND_NAME.L#
     25142**DCL     31016>>ASSIGN
VM_RESEND_NAME.NAME#
     25142**DCL     31000>>IF
VM_SEARCH_INFO
     17913**DCL     27357<>CALL    27360<>CALL    27862<>CALL    27878<>CALL    27883<>CALL    28805<>CALL
     28864<>CALL    28880<>CALL    31354<>CALL    31360<>CALL    31370<>CALL    31418<>CALL    31488<>CALL
     31503<>CALL
VM_SEARCH_INFO.ACTIVE
     17922**DCL     27862>>IF      28805>>IF      31353>>IF      31358>>IF      31677<<ASSIGN  31801<<ASSIGN
     32053<<ASSIGN
VM_SEARCH_INFO.CURRENT
     17926**DCL     27377<<ASSIGN  27390<<ASSIGN  27395<<ASSIGN  27398>>IF      31372<<ASSIGN  31375<<ASSIGN
     31381<<ASSIGN  31386<<ASSIGN  31420<<ASSIGN  31678<<ASSIGN  32054<<ASSIGN
PL6.E3A0      #001=VMO$MAIL File=VMO$MAIL.:VMB6TSI                               WED 08/20/97 15:19 Page:1070
VM_SEARCH_INFO.DCB#
     17916**DCL     27346<<ASSIGN  27383<<ASSIGN  27383>>ASSIGN  27385<<ASSIGN  28855<>CALL    28876<>CALL
     31791>>IF      31791>>IF      31794--IF      31796>>ASSIGN
VM_SEARCH_INFO.GLOBAL
     17924**DCL     27347<<ASSIGN  27352<<ASSIGN
VM_SEARCH_INFO.NUM_ENTRIES
     17914**DCL     27345<<ASSIGN  27351<<ASSIGN  27378>>IF      27382<<ASSIGN  27382>>ASSIGN  28845>>DOINDEX
     28875>>DOINDEX 31790>>DOINDEX
VM_SELECT
     18077**DCL     32648<>CALL    32665<>CALL    32759<>CALL
VM_SELECT.ERROR
     18078**DCL     32807<>CALL
VM_SELECT.ERR_POS#
     18085**DCL     32806<>CALL
VM_SELECT$
     14927**DCL     32189>>ASSIGN
VM_SELECT_
     14948**DCL     27280<>CALL    27282>>ASSIGN  27283>>ASSIGN
VM_SEND_ACKNOWLEDGE
     24762**DCL     34158<>CALL    34172<>CALL
VM_SEND_ACKNOWLEDGE.NAME#
     24762**DCL     34156>>IF
VM_SEND_ANSWER
     24686**DCL     27736<>CALL    27750<>CALL
VM_SEND_ANSWER.NAME#
     24686**DCL     27734>>IF
VM_SEND_FILE_NAME
     15094**DCL     19316--DCLINIT
VM_SEND_FORWARD
     24838**DCL     29486<>CALL    29500<>CALL
VM_SEND_FORWARD.NAME#
     24838**DCL     29484>>IF
VM_SEND_FORWARD_ENCL
     24914**DCL     29557<>CALL    29571<>CALL
VM_SEND_FORWARD_ENCL.NAME#
     24914**DCL     29555>>IF
PL6.E3A0      #001=VMO$MAIL File=VMO$MAIL.:VMB6TSI                               WED 08/20/97 15:19 Page:1071
VM_SEND_MAIL
     24990**DCL     34255<>CALL
VM_SEND_MAIL.L#
     24990**DCL     34270>>ASSIGN
VM_SEND_MAIL.NAME#
     24990**DCL     34253>>IF      34269>>CALLBLT
VM_SEND_NAME
     25066**DCL     34317<>CALL    34331--ASSIGN
VM_SEND_NAME.NAME#
     25066**DCL     34315>>IF
VM_SITENAME
     15190**DCL     27329<>CALL    28339>>ASSIGN  28390>>IF      30259>>ASSIGN  30312>>IF      30389>>IF
     31874>>IF
VM_STATUS_CCONTEXT_FMT
     22529**DCL     29084<>CALL
VM_STATUS_CCONTEXT_FMT.L#
     22529**DCL     29087>>ASSIGN
VM_STATUS_CCONTEXT_FMT.NAME#
     22529**DCL     29082>>IF      29087--ASSIGN
VM_STATUS_DMSGS_FMT
     22757**DCL     29201<>CALL
VM_STATUS_DMSGS_FMT.L#
     22757**DCL     29204>>ASSIGN
VM_STATUS_DMSGS_FMT.NAME#
     22757**DCL     29199>>IF      29204--ASSIGN
VM_STATUS_FOLDER_FMT
     22377**DCL     29055<>CALL
VM_STATUS_FOLDER_FMT.L#
     22377**DCL     29058>>ASSIGN
VM_STATUS_FOLDER_FMT.NAME#
     22377**DCL     29053>>IF      29058--ASSIGN
VM_STATUS_HMSGS_FMT
     22985**DCL     29282<>CALL
VM_STATUS_HMSGS_FMT.L#
     22985**DCL     29285>>ASSIGN
VM_STATUS_HMSGS_FMT.NAME#
PL6.E3A0      #001=VMO$MAIL File=VMO$MAIL.:VMB6TSI                               WED 08/20/97 15:19 Page:1072
     22985**DCL     29280>>IF      29285--ASSIGN
VM_STATUS_NMSGS_FMT
     22833**DCL     29228<>CALL
VM_STATUS_NMSGS_FMT.L#
     22833**DCL     29231>>ASSIGN
VM_STATUS_NMSGS_FMT.NAME#
     22833**DCL     29226>>IF      29231--ASSIGN
VM_STATUS_POSITION_FMT
     22605**DCL     29172<>CALL
VM_STATUS_POSITION_FMT.L#
     22605**DCL     29175>>ASSIGN
VM_STATUS_POSITION_FMT.NAME#
     22605**DCL     29170>>IF      29175--ASSIGN
VM_STATUS_POSITION_OUTSIDE_FMT
     22681**DCL     29143<>CALL
VM_STATUS_POSITION_OUTSIDE_FMT.L#
     22681**DCL     29146>>ASSIGN
VM_STATUS_POSITION_OUTSIDE_FMT.NAME#
     22681**DCL     29141>>IF      29146--ASSIGN
VM_STATUS_SCONTEXT_FMT
     22453**DCL     29113<>CALL
VM_STATUS_SCONTEXT_FMT.L#
     22453**DCL     29116>>ASSIGN
VM_STATUS_SCONTEXT_FMT.NAME#
     22453**DCL     29111>>IF      29116--ASSIGN
VM_STATUS_TMSGS_FMT
     22909**DCL     29255<>CALL
VM_STATUS_TMSGS_FMT.L#
     22909**DCL     29258>>ASSIGN
VM_STATUS_TMSGS_FMT.NAME#
     22909**DCL     29253>>IF      29258--ASSIGN
VM_TIME_FMT
     21188**DCL     31234<>CALL
VM_TIME_FMT.L#
     21188**DCL     31237>>ASSIGN
VM_TIME_FMT.NAME#
PL6.E3A0      #001=VMO$MAIL File=VMO$MAIL.:VMB6TSI                               WED 08/20/97 15:19 Page:1073
     21188**DCL     31232>>IF      31237--ASSIGN
VM_UADDRESS
     17627**DCL     30824--ASSIGN  31871<>CALL
VM_UADDRESS.FOLDER
     17642**DCL     17643--REDEF
VM_UADDRESS.NAME_KEY
     17640**DCL     31873>>ASSIGN
VM_UADDRESS.SITENAME
     17649**DCL     31874>>IF      31874>>IF
VM_UADDRESS.USER_NAME.COUNT
     17651**DCL     30805<<ASSIGN  30814<<ASSIGN  30816>>IF      30821>>IF      30824>>ASSIGN  30842>>IF
     30847>>ASSIGN  30849>>CALLBLT
VM_UADDRESS.USER_NAME.TEXT
     17652**DCL     30815<<ASSIGN  30824--ASSIGN  30849>>CALLBLT
VM_USERKEY
     17334**DCL     28167<>CALL    28293<>CALL    28451<>CALL    28615>>ASSIGN  28616<>CALL    28631<>CALL
     28636>>ASSIGN  28638<<ASSIGN  28639<>CALL    28648<>CALL    28651<>CALL    29307<>CALL    29309<>CALL
     29349<>CALL    29358<>CALL    29368<>CALL    29370<>CALL    30206<>CALL    30402<>CALL    30408<>CALL
VM_USERKEY.COUNT
     17335**DCL     28619>>ASSIGN  29355>>ASSIGN
VM_USERKEY.TEXT
     17338**DCL     28166<<ASSIGN  28284<<ASSIGN  28288>>IF      28306>>ASSIGN  28614<<ASSIGN  28619--ASSIGN
     28647<<ASSIGN  29305<<ASSIGN  29342<<ASSIGN  29344<<ASSIGN  29345<<ASSIGN  29346<<ASSIGN  29346>>ASSIGN
     29351>>IF      29355--ASSIGN  29367<<ASSIGN  30205<<ASSIGN  30327>>IF
VM_USERKEY2
     17351**DCL     28615<<ASSIGN  28636<<ASSIGN  28638>>ASSIGN
VM_USERS_DELETED_FMT
     22225**DCL     28662<>CALL
VM_USERS_DISPLAYED_FMT
     22301**DCL     29377<>CALL
VM_USE_FULL_FMT
     23061**DCL     31585<>CALL
VM_USE_FULL_FMT.L#
     23061**DCL     31588>>ASSIGN
VM_USE_FULL_FMT.NAME#
     23061**DCL     31583>>IF      31588--ASSIGN
PL6.E3A0      #001=VMO$MAIL File=VMO$MAIL.:VMB6TSI                               WED 08/20/97 15:19 Page:1074
VM_USE_LOST_FMT
     23137**DCL     31614<>CALL
VM_USE_LOST_FMT.L#
     23137**DCL     31617>>ASSIGN
VM_USE_LOST_FMT.NAME#
     23137**DCL     31612>>IF      31617--ASSIGN
VM_WILDCARD
     17994**DCL     28563<>CALL    28621<>CALL    28863<>CALL    29357<>CALL    31836<>CALL
VM_WILDCARD.INPUT_
     18000**DCL     28561<<ASSIGN  28619<<ASSIGN  28861<<ASSIGN  29355<<ASSIGN  31834<<ASSIGN
VM_WILDCARD.PATTERN_
     17995**DCL     28517<<ASSIGN  28553<<ASSIGN  28611<<ASSIGN  28842<<ASSIGN  29337<<ASSIGN  29880<<ASSIGN
VM_WORK$
     14925**DCL     30548>>ASSIGN  30868>>ASSIGN  30869>>ASSIGN
VM_WORK_
     14947**DCL     27279<>CALL    30542>>IF      30544>>ASSIGN  30545<>CALL    33516>>ASSIGN  33518>>ASSIGN
     33578<>CALL    33579>>ASSIGN  33715>>ASSIGN  33718>>ASSIGN  33720<>CALL    33772<>CALL    33773>>ASSIGN
     33835<>CALL    33848>>IF      33851<>CALL    34028<>CALL    34029<>CALL
VM_WORK_FOLDER
     17859**DCL     27878<>CALL    27883<>CALL    28064<>CALL    28069<>CALL    29949<>CALL    29962<>CALL
     31854<>CALL
VM_WORK_FOLDER.FLAGS
     17882**DCL     28063<<ASSIGN  31853<<ASSIGN
VM_WORK_FOLDER.FLAGS.FOLDER_SPEC
     17889**DCL     28066<<ASSIGN
VM_WORK_FOLDER.FLAGS.OPEN
     17893**DCL     28000<<ASSIGN
VM_WORK_FOLDER.FLAGS.UPDATE
     17883**DCL     27887>>IF
VM_WORK_FOLDER.SITENAME
     17868**DCL     28067<<ASSIGN
WAIT30
     18134**DCL     31694<>CALL
WAIT30.V
     18135**DCL     18134--DCLINIT
WHICH_CONTEXT
PL6.E3A0      #001=VMO$MAIL File=VMO$MAIL.:VMB6TSI                               WED 08/20/97 15:19 Page:1075
     18095**DCL     27671<<ASSIGN  32434<<ASSIGN  32527<<ASSIGN  32551<<ASSIGN  32688>>ASSIGN  32769>>ASSIGN
WHICH_CONTEXT IN PROCEDURE INIT_CONTEXT
     32187**DCL     32186--PROC    32189>>ASSIGN  32189>>ASSIGN  32190>>ASSIGN  32191>>ASSIGN  32192>>ASSIGN
     32193>>ASSIGN
WILD
     16625**DCL     28511<<ASSIGN  28514<<ASSIGN  28536>>IF      29874<<ASSIGN  29877<<ASSIGN  29955>>DOWHILE
     31822>>DOWHILE 31843>>IF
WILDCARD_PATTERN
     16486**DCL     28508<<ASSIGN  28509>>CALLBLT 28516>>CALLBLT 28517--ASSIGN  29871<<ASSIGN  29872>>CALLBLT
     29879>>CALLBLT 29880--ASSIGN
WORK_STRING
     16541**DCL     28070--CALL    28417--CALL    29042<>CALL    29073<>CALL    29102<>CALL    30338--CALL
     31019<>CALL    31161<>CALL    31450--CALL    31492--CALL    31507--CALL    31527--CALL    31572<>CALL
     31952<>CALL    32033--CALL    34276<>CALL
WORK_STRING.L#
     16541**DCL     28068<<ASSIGN  28412<<ASSIGN  28414<<ASSIGN  29041<<ASSIGN  29043>>ASSIGN  29072<<ASSIGN
     29098>>ASSIGN  29101<<ASSIGN  29127>>ASSIGN  30332<<ASSIGN  30335<<ASSIGN  31016<<ASSIGN  31159<<ASSIGN
     31448<<ASSIGN  31490<<ASSIGN  31505<<ASSIGN  31525<<ASSIGN  31571<<ASSIGN  31573>>ASSIGN  31951<<ASSIGN
     31953>>IF      31955<<ASSIGN  32031<<ASSIGN  34275<<ASSIGN  34277>>ASSIGN  34302>>ASSIGN
WORK_STRING.NAME#
     16541**DCL     19142--DCLINIT 19143--DCLINIT 28068--ASSIGN  28407>>IF      28415<<ASSIGN  29041--ASSIGN
     29043--ASSIGN  29072--ASSIGN  29098--ASSIGN  29101--ASSIGN  29127--ASSIGN  30172<<ASSIGN  30174>>CALLBLT
     30327>>IF      30336<<ASSIGN  30371<<ASSIGN  30373>>CALLBLT 31017<<CALLBLT 31160<<ASSIGN  31448--ASSIGN
     31490--ASSIGN  31505--ASSIGN  31525--ASSIGN  31571--ASSIGN  31573--ASSIGN  31951--ASSIGN  31956<<ASSIGN
     32031--ASSIGN  34275--ASSIGN  34278>>ASSIGN  34293>>IF      34299>>ASSIGN  34303>>ASSIGN
WORK_UTS
     16613**DCL     18158--DCLINIT 19726--DCLINIT 29918--ASSIGN  31248--ASSIGN  32860<<ASSIGN
WRITEIT IN PROCEDURE COPY_FOLDER
     33510**DCL     33566<<ASSIGN  33583<<ASSIGN  33585>>DOWHILE 33590<<ASSIGN  33594<<ASSIGN  33598<<ASSIGN
     33604<<ASSIGN  33610<<ASSIGN  33614>>IF
WRITE_ENCL
     20213**DCL     28775<>CALL
WRITE_ENCL.BUF_.BOUND
     20213**DCL     28773<<ASSIGN  28774<<ASSIGN
WRITE_ENCL.BUF_.BUF$
     20215**DCL     28772<<ASSIGN
PL6.E3A0      #001=VMO$MAIL File=VMO$MAIL.:VMB6TSI                               WED 08/20/97 15:19 Page:1076
WRITE_ENCL.STATION_
     20215**DCL     20215--REDEF
WRITE_ENCL.V
     20216**DCL     20213--DCLINIT
WRITE_ENCL.V.DVBYTE.VFC#
     20222**DCL     20222--REDEF
WRITE_ERROR IN PROCEDURE PROCESS_CMD
     31701**LABEL   28693--CALLALT 28963--CALLALT 28981--CALLALT 29806--CALLALT 30026--CALLALT 31276--CALLALT
WRITE_NAME_MAP
     19103**DCL     28422<>CALL    30345<>CALL
WRITE_NAME_MAP.BUF_
     19103**DCL     28398<<ASSIGN  30320<<ASSIGN
WRITE_NAME_MAP.STATION_
     19105**DCL     19105--REDEF
WRITE_NAME_MAP.V
     19106**DCL     19103--DCLINIT
WRITE_NAME_MAP.V.DVBYTE.VFC#
     19112**DCL     19112--REDEF
WRITE_NEW IN PROCEDURE UPDATE$MAIL
     33282**DCL     33619<>CALL    34010<>CALL
WRITE_NEW.BUF_ IN PROCEDURE UPDATE$MAIL
     33282**DCL     33615<<ASSIGN  33616<<ASSIGN  34000<<ASSIGN  34003<<ASSIGN
WRITE_NEW.BUF_.BOUND IN PROCEDURE UPDATE$MAIL
     33282**DCL     33617<<ASSIGN  34005<<ASSIGN
WRITE_NEW.KEY_ IN PROCEDURE UPDATE$MAIL
     33282**DCL     34008<<ASSIGN
WRITE_NEW.STATION_ IN PROCEDURE UPDATE$MAIL
     33284**DCL     33284--REDEF
WRITE_NEW.V IN PROCEDURE UPDATE$MAIL
     33285**DCL     33282--DCLINIT
WRITE_NEW.V.DVBYTE IN PROCEDURE UPDATE$MAIL
     33290**DCL     33618<<ASSIGN  34007<<ASSIGN
WRITE_NEW.V.DVBYTE.VFC# IN PROCEDURE UPDATE$MAIL
     33291**DCL     33291--REDEF
X$ALLOCATE
     16476**DCL-ENT 30657--CALL    30722--CALL    30749--CALL    30771--CALL    30832--CALL    30838--CALL
PL6.E3A0      #001=VMO$MAIL File=VMO$MAIL.:VMB6TSI                               WED 08/20/97 15:19 Page:1077
     32871--CALL
X$DEALLOCATE
     16477**DCL-ENT 30664--CALL    30711--CALL    30741--CALL    30763--CALL    30788--CALL
X$DEC_CONVERT
     16041**DCL-ENT 32461--CALL    32473--CALL    32650--CALL    32673--CALL    32761--CALL
X$MCB
     18091**DCL     30657<>CALL    30664<>CALL    30711<>CALL    30722<>CALL    30741<>CALL    30749<>CALL
     30763<>CALL    30771<>CALL    30788<>CALL    30832<>CALL    30838<>CALL    32506<>CALL    32545<>CALL
X$MCB.ADDRESS$
     18091**DCL     30658>>ASSIGN  30663<<ASSIGN  30710<<ASSIGN  30723>>ASSIGN  30740<<ASSIGN  30750>>ASSIGN
     30762<<ASSIGN  30772>>ASSIGN  30787<<ASSIGN  30840>>ASSIGN
X$MCB.ERR
     18092**DCL     31737<>CALL
X$MCB.FREE_HEAD$
     18091**DCL     30554<<ASSIGN  30865>>ASSIGN  32501<<ASSIGN  32539<<ASSIGN
X$MCB.HI_SEGMENT$
     18091**DCL     30556<<ASSIGN  30864>>ASSIGN  32504<<ASSIGN  32505>>ASSIGN  32543<<ASSIGN  32544>>ASSIGN
X$MCB.SEGMENT_BASE$
     18091**DCL     30555<<ASSIGN  32503<<ASSIGN  32504>>ASSIGN  32541<<ASSIGN  32543>>ASSIGN
X$MCB.SIZE
     18091**DCL     30656<<ASSIGN  30720<<ASSIGN  30724>>ASSIGN  30747<<ASSIGN  30769<<ASSIGN  30824<<ASSIGN
     30830<<ASSIGN
X$MCB.TYPE
     18091**DCL     30557<<ASSIGN  30721<<ASSIGN  30748<<ASSIGN  30770<<ASSIGN  32502<<ASSIGN  32540<<ASSIGN
X$MCB.WKSZ
     18091**DCL     30552<<ASSIGN  30837<<ASSIGN  30837>>ASSIGN  32505<<ASSIGN  32544<<ASSIGN
X$STRING
     14912**DCL     28152--CALL    28173--CALL    28299--CALL    28313--CALL    32632<>CALL    34117--CALL
X$STRING.SIZ
     14913**DCL     14914--IMP-SIZ 28152>>CALL    28173>>CALL    28299>>CALL    28313>>CALL    28731>>CALLBLT
     28989>>IF      30724<<ASSIGN  30725>>ASSIGN  30751<<ASSIGN  30752>>ASSIGN  30773<<ASSIGN  30774>>ASSIGN
     31017>>CALLBLT 32632>>CALL    32874<<ASSIGN  32875>>ASSIGN  34117>>CALL
X$STRING.TEXT
     14914**DCL     28731>>CALLBLT 28989>>IF      30725<<ASSIGN  30752<<ASSIGN  30774<<ASSIGN  31017>>CALLBLT
     32875<<ASSIGN
X$WILDCMP
PL6.E3A0      #001=VMO$MAIL File=VMO$MAIL.:VMB6TSI                               WED 08/20/97 15:19 Page:1078
     16474**DCL-ENT 28563--CALL    28621--CALL    28863--CALL    29357--CALL    31836--CALL
XTX$ADAPT
     16068**DCL-ENT 16147--DCLINIT
XUG$GETCMD.ERR#
     15710**DCL     28760<>CALL    28830<>CALL    28911<>CALL    29018<>CALL    29034<>CALL    29325<>CALL
     29835<>CALL    29993<>CALL    30470<>CALL
XUG$GETCMD.OUT$
     15704**DCL     15710--REDEF
XUG_GETCMD$
     16024**DCL     15699--IMP-PTR 27290<>CALL    28760>>CALL    28830>>CALL    28911>>CALL    29018>>CALL
     29034>>CALL    29325>>CALL    29835>>CALL    29993>>CALL    30470>>CALL
XUR$ALLMSG
     14650**DCL-ENT 29706--CALL
XUR$BREAK
     14643**DCL-ENT 18529--DCLINIT
XUR$CLRENABLE
     14646**DCL-ENT 27467--CALL    32065--CALL    32072--CALL
XUR$DISABLE
     14644**DCL-ENT 27314--CALL    27919--CALL    28030--CALL    28323--CALL    28606--CALL    28685--CALL
     28953--CALL    28980--CALL    30020--CALL    30054--CALL    30315--CALL    30392--CALL    31271--CALL
     31304--CALL    31329--CALL    31970--CALL    33333--CALL
XUR$ECHO
     14634**DCL-ENT 27483--CALL    27490--CALL
XUR$ENABLE
     14645**DCL-ENT 27646--CALL    27968--CALL    28457--CALL    28661--CALL    28694--CALL    28965--CALL
     28983--CALL    30027--CALL    30057--CALL    30341--CALL    30347--CALL    30399--CALL    31278--CALL
     31307--CALL    31686--CALL    31730--CALL    33483--CALL    33489--CALL
XUR$ERRMSG
     14639**DCL-ENT 27413--CALL    27566--CALL    27651--CALL    27760--CALL    27889--CALL    27988--CALL
     27989--CALL    28053--CALL    28121--CALL    28122--CALL    28152--CALL    28173--CALL    28290--CALL
     28299--CALL    28313--CALL    28417--CALL    28485--CALL    28496--CALL    28530--CALL    28531--CALL
     28589--CALL    28706--CALL    28712--CALL    28720--CALL    28743--CALL    28750--CALL    28760--CALL
     28769--CALL    28777--CALL    28830--CALL    28911--CALL    28933--CALL    28942--CALL    29018--CALL
     29034--CALL    29325--CALL    29391--CALL    29392--CALL    29512--CALL    29529--CALL    29538--CALL
     29712--CALL    29835--CALL    29854--CALL    29886--CALL    29958--CALL    29993--CALL    30076--CALL
     30114--CALL    30185--CALL    30208--CALL    30244--CALL    30338--CALL    30383--CALL    30470--CALL
PL6.E3A0      #001=VMO$MAIL File=VMO$MAIL.:VMB6TSI                               WED 08/20/97 15:19 Page:1079
     30684--CALL    30779--CALL    30871--CALL    30872--CALL    30902--CALL    30958--CALL    31031--CALL
     31527--CALL    31530--CALL    31537--CALL    31664--CALL    31665--CALL    31674--CALL    31676--CALL
     31711--CALL    31712--CALL    31721--CALL    31722--CALL    31729--CALL    31737--CALL    31751--CALL
     31761--CALL    31773--CALL    31842--CALL    32018--CALL    32033--CALL    32036--CALL    32043--CALL
     32052--CALL    32071--CALL    32482--CALL    32557--CALL    32561--CALL    32807--CALL    32831--CALL
     33404--CALL    33477--CALL    33492--CALL    33517--CALL    33637--CALL    33638--CALL    33647--CALL
     33717--CALL    34034--CALL    34035--CALL    34044--CALL    34117--CALL
XUR$ERRPTR
     14632**DCL-ENT 27412--CALL    27565--CALL    30113--CALL    30243--CALL    30901--CALL    32481--CALL
     32556--CALL    32806--CALL
XUR$GETCMD
     14631**DCL-ENT 27409--CALL    27481--CALL    27506--CALL    30110--CALL    30240--CALL    34288--CALL
XUR$HELP
     14648**DCL-ENT 29701--CALL
XUR$INFOMSG
     14640**DCL-ENT 27502--CALL    28070--CALL    31450--CALL    31492--CALL    31507--CALL    31700--CALL
XUR$INIT
     14636**DCL-ENT 27290--CALL
XUR$MOREMSG
     14649**DCL-ENT 29704--CALL
XUR$OPENOUT
     14653**DCL-ENT 28758--CALL    28825--CALL    28906--CALL    29013--CALL    29029--CALL    29320--CALL
     29830--CALL    29988--CALL    30468--CALL
XUR$SETDCBS
     14635**DCL-ENT 27311--CALL    27555--CALL    30947--CALL    30959--CALL
XUR$SETERRMSG
     14641**DCL-ENT 27294--CALL
XUR_ERROR
     27514**LABEL   27486--GOTO    27506--CALLALT
XUR_INIT
     16073**DCL     27290<>CALL
XUR_INIT.WORKR_
     16087**DCL     16088--REDEF
XUR_INIT.WORK_
     16088**DCL     27289<<ASSIGN

