PL6.E3A0      #004=VMS$FMT_EXP File=VMS$SELECT.:VMB6TSI                          WED 08/20/97 15:25 Page:157
      874        1        /*T***********************************************************/
      875        2        /*T*                                                         */
      876        3        /*T* Copyright (c) Bull HN Information Systems Inc., 1997    */
      877        4        /*T*                                                         */
      878        5        /*T***********************************************************/
      879        6        /*X* DMC,PLM=4,IND=4,CTI=2,DTI=0,ENI=0,ECI=0,CSI=0,DCI=4 */
      880        7        /*********************************************************************/
      881        8        /*F*
      882        9             NAME: VMS$FMT_EXP
      883       10             PURPOSE:
      884       11                   To take a sub tree and create a text representation.
      885       12             DESCRIPTION:
      886       13                   This routine is called by VMS$FMT_SELECT and recursively
      887       14                   by itself. Not to be called by any other routines!!!
      888       15        */
      889       16        /*********************************************************************/
      890       17        VMS$FMT_EXP: PROC (TREE$,TEXTC,CHARPOS);
      891       18        /***** Include files *****/
      892       19          %INCLUDE CP_6;
      893     5578          %INCLUDE CP_6_SUBS;
      894     6118          %INCLUDE VM_MACRO_C;
      895     7386          %INCLUDE VM_SUBS_C;
      896     7646          %INCLUDE VM_DATA_R;
      897     8077          %INCLUDE VM_PERR_C;
      898     8372          %INCLUDE XU_MACRO_C;
      899    11478          %INCLUDE XU_SUBS_C;
      900    11570        /***** Parameters *****/
      901    11571    1   DCL TREE$ PTR;
      902    11572          %TEXTC (NAME=TEXTC,STCLASS=" ");
      903    11577    1   DCL CHARPOS SBIN WORD;
      904    11578        %INIT_STR (DODCL=YES);
      905    11601        /***** Local variables *****/
      906    11602    1   DCL INDX1 SBIN WORD AUTO;
      907    11603    1   DCL INDX2 SBIN WORD AUTO;
      908    11604    1   DCL INDX3 SBIN WORD AUTO;
      909    11605    1   DCL PTR1$ PTR AUTO;
      910    11606    1   DCL PTR2$ PTR AUTO;
PL6.E3A0      #004=VMS$FMT_EXP File=VMS$SELECT.:VMB6TSI                          WED 08/20/97 15:25 Page:158
      911    11607    1   DCL PTR3$ PTR AUTO;
      912    11608    1   DCL DELIM CHAR(1) AUTO;
      913    11609    1   DCL END1 SBIN WORD AUTO;
      914    11610    1   DCL END2 SBIN WORD AUTO;
      915    11611    1   DCL END3 SBIN WORD AUTO;
      916    11612        /***** Based structures *****/
      917    11613          %PARSE$OUT (NAME=P$B,STCLASS=BASED);
      918    11658          %PARSE$SYM (NAME=P$S,STCLASS=BASED);
      919    11696        %VLP_NAME(FPTN=VM_CHAR_WHEN, LEN=15, L=15, NAME=' ', STCLASS="STATIC SYMDEF");
      920    11723        %VLP_ERRCODE (FPTN=E_CHAR_WHEN,        STCLASS="CONSTANT SYMDEF",
      921    11724                       ERR#=%E$CHAR_WHEN,      FCG=VM,MID=S);
      922    11769        /*E*  ERROR:VMS-E$CHAR_WHEN-0
      923    11770              MESSAGE: when&
      924    11771        */
      925    11772              %VLP_NAME (FPTN=VM_CHAR_BROADCAST, LEN=15, L=15, NAME=' ', STCLASS=
             11772                  "STATIC SYMDEF");
      926    11799        %VLP_ERRCODE (FPTN=E_CHAR_BROADCAST,   STCLASS="CONSTANT SYMDEF",
      927    11800                       ERR#=%E$CHAR_BROADCAST,           FCG=VM,MID=S);
      928    11845        /*E*  ERROR:VMS-E$CHAR_BROADCAST-0
      929    11846              MESSAGE:Broadcast
      930    11847        */
      931    11848              %VLP_NAME (FPTN=VM_CHAR_DELIVERY, LEN=15, L=15, NAME=' ', STCLASS=
             11848                  "STATIC SYMDEF");
      932    11875        %VLP_ERRCODE (FPTN=E_CHAR_DELIVERY,    STCLASS="CONSTANT SYMDEF",
      933    11876                       ERR#=%E$CHAR_DELIVERY,            FCG=VM,MID=S);
      934    11921        /*E*  ERROR:VMS-E$CHAR_DELIVERY-0
      935    11922              MESSAGE:Delivery
      936    11923        */
      937    11924              %VLP_NAME (FPTN=VM_CHAR_DELETED, LEN=15, L=15, NAME=' ', STCLASS=
             11924                  "STATIC SYMDEF");
      938    11951        %VLP_ERRCODE (FPTN=E_CHAR_DELETED,     STCLASS="CONSTANT SYMDEF",
      939    11952                       ERR#=%E$CHAR_DELETED,             FCG=VM,MID=S);
      940    11997        /*E*  ERROR:VMS-E$CHAR_DELETED-0
      941    11998              MESSAGE:Deleted
      942    11999        */
      943    12000              %VLP_NAME (FPTN=VM_CHAR_ERROR, LEN=15, L=15, NAME=' ', STCLASS="STATIC SYMDEF"
             12000                  );
PL6.E3A0      #004=VMS$FMT_EXP File=VMS$SELECT.:VMB6TSI                          WED 08/20/97 15:25 Page:159
      944    12027        %VLP_ERRCODE (FPTN=E_CHAR_ERROR,       STCLASS="CONSTANT SYMDEF",
      945    12028                       ERR#=%E$CHAR_ERROR,               FCG=VM,MID=S);
      946    12073        /*E*  ERROR:VMS-E$CHAR_ERROR-0
      947    12074              MESSAGE:Error
      948    12075        */
      949    12076              %VLP_NAME (FPTN=VM_CHAR_FCOPY, LEN=15, L=15, NAME=' ', STCLASS="STATIC SYMDEF"
             12076                  );
      950    12103        %VLP_ERRCODE (FPTN=E_CHAR_FCOPY,       STCLASS="CONSTANT SYMDEF",
      951    12104                       ERR#=%E$CHAR_FCOPY,               FCG=VM,MID=S);
      952    12149        /*E*  ERROR:VMS-E$CHAR_FCOPY-0
      953    12150              MESSAGE:FCopy
      954    12151        */
      955    12152              %VLP_NAME (FPTN=VM_CHAR_FROM, LEN=15, L=15, NAME=' ', STCLASS="STATIC SYMDEF")
             12152                  ;
      956    12179        %VLP_ERRCODE (FPTN=E_CHAR_FROM,        STCLASS="CONSTANT SYMDEF",
      957    12180                       ERR#=%E$CHAR_FROM,                FCG=VM,MID=S);
      958    12225        /*E*  ERROR:VMS-E$CHAR_FROM-0
      959    12226              MESSAGE:From
      960    12227        */
      961    12228              %VLP_NAME (FPTN=VM_CHAR_MARKED, LEN=15, L=15, NAME=' ', STCLASS=
             12228                  "STATIC SYMDEF");
      962    12255        %VLP_ERRCODE (FPTN=E_CHAR_MARKED,      STCLASS="CONSTANT SYMDEF",
      963    12256                       ERR#=%E$CHAR_MARKED,              FCG=VM,MID=S);
      964    12301        /*E*  ERROR:VMS-E$CHAR_MARKED-0
      965    12302              MESSAGE:Marked
      966    12303        */
      967    12304              %VLP_NAME (FPTN=VM_CHAR_NEW, LEN=15, L=15, NAME=' ', STCLASS="STATIC SYMDEF");
      968    12331        %VLP_ERRCODE (FPTN=E_CHAR_NEW,         STCLASS="CONSTANT SYMDEF",
      969    12332                       ERR#=%E$CHAR_NEW,                 FCG=VM,MID=S);
      970    12377        /*E*  ERROR:VMS-E$CHAR_NEW-0
      971    12378              MESSAGE:New
      972    12379        */
      973    12380              %VLP_NAME (FPTN=VM_CHAR_OLD, LEN=15, L=15, NAME=' ', STCLASS="STATIC SYMDEF");
      974    12407        %VLP_ERRCODE (FPTN=E_CHAR_OLD,         STCLASS="CONSTANT SYMDEF",
      975    12408                       ERR#=%E$CHAR_OLD,                 FCG=VM,MID=S);
      976    12453        /*E*  ERROR:VMS-E$CHAR_OLD-0
      977    12454              MESSAGE:Old&
PL6.E3A0      #004=VMS$FMT_EXP File=VMS$SELECT.:VMB6TSI                          WED 08/20/97 15:25 Page:160
      978    12455        */
      979    12456              %VLP_NAME (FPTN=VM_CHAR_AND, LEN=15, L=15, NAME=' ', STCLASS="STATIC SYMDEF");
      980    12483        %VLP_ERRCODE (FPTN=E_CHAR_AND,         STCLASS="CONSTANT SYMDEF",
      981    12484                       ERR#=%E$CHAR_AND,                 FCG=VM,MID=S);
      982    12529        /*E*  ERROR:VMS-E$CHAR_AND-0
      983    12530              MESSAGE:&and&
      984    12531        */
      985    12532              %VLP_NAME (FPTN=VM_CHAR_OR, LEN=15, L=15, NAME=' ', STCLASS="STATIC SYMDEF");
      986    12559        %VLP_ERRCODE (FPTN=E_CHAR_OR,          STCLASS="CONSTANT SYMDEF",
      987    12560                       ERR#=%E$CHAR_OR,                  FCG=VM,MID=S);
      988    12605        /*E*  ERROR:VMS-E$CHAR_OR-0
      989    12606              MESSAGE:&or&
      990    12607        */
      991    12608              %VLP_NAME (FPTN=VM_CHAR_NOT, LEN=15, L=15, NAME=' ', STCLASS="STATIC SYMDEF");
      992    12635        %VLP_ERRCODE (FPTN=E_CHAR_NOT,         STCLASS="CONSTANT SYMDEF",
      993    12636                       ERR#=%E$CHAR_NOT,                 FCG=VM,MID=S);
      994    12681        /*E*  ERROR:VMS-E$CHAR_NOT-0
      995    12682              MESSAGE:&not&
      996    12683        */
      997    12684              %VLP_NAME (FPTN=VM_CHAR_REFERENCE, LEN=15, L=15, NAME=' ', STCLASS=
             12684                  "STATIC SYMDEF");
      998    12711        %VLP_ERRCODE (FPTN=E_CHAR_REFERENCE,         STCLASS="CONSTANT SYMDEF",
      999    12712                       ERR#=%E$CHAR_REFERENCE,                 FCG=VM,MID=S);
     1000    12757        /*E*  ERROR:VMS-E$CHAR_REFERENCE-0
     1001    12758              MESSAGE:Reference
     1002    12759        */
     1003    12760              %VLP_NAME (FPTN=VM_CHAR_REPLYTO, LEN=15, L=15, NAME=' ', STCLASS=
             12760                  "STATIC SYMDEF");
     1004    12787        %VLP_ERRCODE (FPTN=E_CHAR_REPLYTO,         STCLASS="CONSTANT SYMDEF",
     1005    12788                       ERR#=%E$CHAR_REPLYTO,                 FCG=VM,MID=S);
     1006    12833        /*E*  ERROR:VMS-E$CHAR_REPLYTO-0
     1007    12834              MESSAGE:Reply To
     1008    12835        */
     1009    12836              %VLP_NAME (FPTN=VM_CHAR_SUBJECT, LEN=15, L=15, NAME=' ', STCLASS=
             12836                  "STATIC SYMDEF");
     1010    12863        %VLP_ERRCODE (FPTN=E_CHAR_SUBJECT,         STCLASS="CONSTANT SYMDEF",
     1011    12864                       ERR#=%E$CHAR_SUBJECT,                 FCG=VM,MID=S);
PL6.E3A0      #004=VMS$FMT_EXP File=VMS$SELECT.:VMB6TSI                          WED 08/20/97 15:25 Page:161
     1012    12909        /*E*  ERROR:VMS-E$CHAR_SUBJECT-0
     1013    12910              MESSAGE:Subject
     1014    12911        */
     1015    12912              %VLP_NAME (FPTN=VM_CHAR_TO, LEN=15, L=15, NAME=' ', STCLASS="STATIC SYMDEF");
     1016    12939        %VLP_ERRCODE (FPTN=E_CHAR_TO,         STCLASS="CONSTANT SYMDEF",
     1017    12940                       ERR#=%E$CHAR_TO,                 FCG=VM,MID=S);
     1018    12985        /*E*  ERROR:VMS-E$CHAR_TO-0
     1019    12986              MESSAGE:To
     1020    12987        */
     1021    12988              %VLP_NAME (FPTN=VM_CHAR_FWD, LEN=15, L=15, NAME=' ', STCLASS="STATIC SYMDEF");
     1022    13015        %VLP_ERRCODE (FPTN=E_CHAR_FWD,         STCLASS="CONSTANT SYMDEF",
     1023    13016                       ERR#=%E$CHAR_FWD,                 FCG=VM,MID=S);
     1024    13061        /*E*  ERROR:VMS-E$CHAR_FWD-0
     1025    13062              MESSAGE:Fwd
     1026    13063        */
     1027    13064              %VLP_NAME (FPTN=VM_CHAR_ANSWER, LEN=15, L=15, NAME=' ', STCLASS=
             13064                  "STATIC SYMDEF");
     1028    13091        %VLP_ERRCODE (FPTN=E_CHAR_ANSWER,         STCLASS="CONSTANT SYMDEF",
     1029    13092                       ERR#=%E$CHAR_ANSWER,                 FCG=VM,MID=S);
     1030    13137        /*E*  ERROR:VMS-E$CHAR_ANSWER-0
     1031    13138              MESSAGE:Answer
     1032    13139        */
     1033    13140              %VLP_NAME (FPTN=VM_CHAR_ACKNOWLEDGMENT, LEN=15, L=15, NAME=' ', STCLASS=
             13140                  "STATIC SYMDEF");
     1034    13167        %VLP_ERRCODE (FPTN=E_CHAR_ACKNOWLEDGMENT,         STCLASS="CONSTANT SYMDEF",
     1035    13168                       ERR#=%E$CHAR_ACKNOWLEDGMENT,                 FCG=VM,MID=S);
     1036    13213        /*E*  ERROR:VMS-E$CHAR_ACKNOWLEDGMENT-0
     1037    13214              MESSAGE:Acknowledgement
     1038    13215        */
     1039    13216              %VLP_NAME (FPTN=VM_CHAR_NEXT, LEN=15, L=15, NAME=' ', STCLASS="STATIC SYMDEF")
             13216                  ;
     1040    13243        %VLP_ERRCODE (FPTN=E_CHAR_NEXT,         STCLASS="CONSTANT SYMDEF",
     1041    13244                       ERR#=%E$CHAR_NEXT,                 FCG=VM,MID=S);
     1042    13289        /*E*  ERROR:VMS-E$CHAR_NEXT-0
     1043    13290              MESSAGE:Next
     1044    13291        */
     1045    13292              %VLP_NAME (FPTN=VM_CHAR_PREVIOUS, LEN=15, L=15, NAME=' ', STCLASS=
PL6.E3A0      #004=VMS$FMT_EXP File=VMS$SELECT.:VMB6TSI                          WED 08/20/97 15:25 Page:162
             13292                  "STATIC SYMDEF");
     1046    13319        %VLP_ERRCODE (FPTN=E_CHAR_PREVIOUS,         STCLASS="CONSTANT SYMDEF",
     1047    13320                       ERR#=%E$CHAR_PREVIOUS,                 FCG=VM,MID=S);
     1048    13365        /*E*  ERROR:VMS-E$CHAR_PREVIOUS-0
     1049    13366              MESSAGE:Previous
     1050    13367        */
     1051    13368              %VLP_NAME (FPTN=VM_CHAR_UNEXAMINED, LEN=15, L=15, NAME=' ', STCLASS=
             13368                  "STATIC SYMDEF");
     1052    13395        %VLP_ERRCODE (FPTN=E_CHAR_UNEXAMINED,         STCLASS="CONSTANT SYMDEF",
     1053    13396                       ERR#=%E$CHAR_UNEXAMINED,                 FCG=VM,MID=S);
     1054    13441        /*E*  ERROR:VMS-E$CHAR_UNEXAMINED-0
     1055    13442              MESSAGE:Unexamined
     1056    13443        */
     1057    13444              %VLP_NAME (FPTN=VM_CHAR_EXAMINED, LEN=15, L=15, NAME=' ', STCLASS=
             13444                  "STATIC SYMDEF");
     1058    13471        %VLP_ERRCODE (FPTN=E_CHAR_EXAMINED,         STCLASS="CONSTANT SYMDEF",
     1059    13472                       ERR#=%E$CHAR_EXAMINED,                 FCG=VM,MID=S);
     1060    13517        /*E*  ERROR:VMS-E$CHAR_EXAMINED-0
     1061    13518              MESSAGE:Examined
     1062    13519        */
     1063    13520              %VLP_NAME (FPTN=VM_CHAR_RR, LEN=15, L=15, NAME=' ', STCLASS="STATIC SYMDEF");
     1064    13547        %VLP_ERRCODE (FPTN=E_CHAR_RR,         STCLASS="CONSTANT SYMDEF",
     1065    13548                       ERR#=%E$CHAR_RR,                 FCG=VM,MID=S);
     1066    13593        /*E*  ERROR:VMS-E$CHAR_RR-0
     1067    13594              MESSAGE:RR
     1068    13595        */
     1069    13596              %VLP_NAME (FPTN=VM_CHAR_SENT, LEN=15, L=15, NAME=' ', STCLASS="STATIC SYMDEF")
             13596                  ;
     1070    13623        %VLP_ERRCODE (FPTN=E_CHAR_SENT,         STCLASS="CONSTANT SYMDEF",
     1071    13624                       ERR#=%E$CHAR_SENT,                 FCG=VM,MID=S);
     1072    13669        /*E*  ERROR:VMS-E$CHAR_SENT-0
     1073    13670              MESSAGE:Date Sent
     1074    13671        */
     1075    13672              %VLP_NAME (FPTN=VM_CHAR_RCVD, LEN=15, L=15, NAME=' ', STCLASS="STATIC SYMDEF")
             13672                  ;
     1076    13699        %VLP_ERRCODE (FPTN=E_CHAR_RCVD,         STCLASS="CONSTANT SYMDEF",
     1077    13700                       ERR#=%E$CHAR_RCVD,                 FCG=VM,MID=S);
PL6.E3A0      #004=VMS$FMT_EXP File=VMS$SELECT.:VMB6TSI                          WED 08/20/97 15:25 Page:163
     1078    13745        /*E*  ERROR:VMS-E$CHAR_RCVD-0
     1079    13746              MESSAGE:Date Rcvd
     1080    13747        */
     1081    13748        %EJECT;
PL6.E3A0      #004=VMS$FMT_EXP File=VMS$SELECT.:VMB6TSI                          WED 08/20/97 15:25 Page:164
     1082    13749    1         END1 = TREE$ -> P$B.NSUBLKS - 1;
     1083    13750    2       DO INDX1 = 0 TO END1;
     1084    13751    2           PTR1$ = TREE$ -> P$B.SUBLK$(INDX1);
     1085    13752    3           DO CASE (PTR1$ -> P$B.CODE);
     1086    13753    3           CASE (%SEL_EXP);
     1087    13754    3               CALL INSERT (TEXTC.TEXT,CHARPOS,,'(');
     1088    13755    3               CHARPOS = CHARPOS + 1;
     1089    13756    3               CALL VMS$FMT_EXP (PTR1$,TEXTC,CHARPOS);
     1090    13757    3               CALL INSERT (TEXTC.TEXT,CHARPOS,,')');
     1091    13758    3               CHARPOS = CHARPOS + 1;
     1092    13759    3           CASE (%SEL_ACKNOWLEDGMENT);
     1093    13760                    %INIT_STR (CODE=E_CHAR_ACKNOWLEDGMENT, TEST=YES,
     1094    13761                    STR=VM_CHAR_ACKNOWLEDGMENT);
     1095    13784    3               substr(TEXTC.TEXT,CHARPOS)=VM_CHAR_ACKNOWLEDGMENT.NAME#;
     1096    13785    3               CHARPOS = CHARPOS + VM_CHAR_ACKNOWLEDGMENT.L#;
     1097    13786    3           CASE (%SEL_ANSWER);
     1098    13787                    %INIT_STR (CODE=E_CHAR_ANSWER, STR=VM_CHAR_ANSWER, TEST=YES);
     1099    13810    3               substr(TEXTC.TEXT,CHARPOS)=VM_CHAR_ANSWER.NAME#;
     1100    13811    3               CHARPOS = CHARPOS + VM_CHAR_ANSWER.L#;
     1101    13812    3           CASE (%SEL_BROADCAST);
     1102    13813                    %INIT_STR (CODE=E_CHAR_BROADCAST, STR=VM_CHAR_BROADCAST, TEST=YES);
     1103    13836    3               substr(TEXTC.TEXT,CHARPOS) = VM_CHAR_BROADCAST.NAME#;
     1104    13837    3               CHARPOS = CHARPOS + VM_CHAR_BROADCAST.L#;
     1105    13838    3           CASE (%SEL_DELETED);
     1106    13839                    %INIT_STR (CODE=E_CHAR_DELETED, STR=VM_CHAR_DELETED, TEST=YES);
     1107    13862    3               substr(TEXTC.TEXT,CHARPOS) =  VM_CHAR_DELETED.NAME#;
     1108    13863    3               CHARPOS = CHARPOS + VM_CHAR_DELETED.L#;
     1109    13864    3           CASE (%SEL_DELIVERY);
     1110    13865                    %INIT_STR (CODE=E_CHAR_DELIVERY, STR=VM_CHAR_DELIVERY, TEST=YES);
     1111    13888    3               substr(TEXTC.TEXT,CHARPOS) =  VM_CHAR_DELIVERY.NAME#;
     1112    13889    3               CHARPOS = CHARPOS + VM_CHAR_DELIVERY.L#;
     1113    13890    3           CASE (%SEL_ERROR);
     1114    13891                    %INIT_STR (CODE=E_CHAR_ERROR, STR=VM_CHAR_ERROR, TEST=YES);
     1115    13914    3               substr(TEXTC.TEXT,CHARPOS) =  VM_CHAR_ERROR.NAME#;
     1116    13915    3               CHARPOS = CHARPOS + VM_CHAR_ERROR.L#;
     1117    13916    3           CASE (%SEL_EXAMINED);
     1118    13917                    %INIT_STR (CODE=E_CHAR_EXAMINED, STR=VM_CHAR_EXAMINED, TEST=YES);
PL6.E3A0      #004=VMS$FMT_EXP File=VMS$SELECT.:VMB6TSI                          WED 08/20/97 15:25 Page:165
     1119    13940    3               substr(TEXTC.TEXT,CHARPOS) =  VM_CHAR_EXAMINED.NAME#;
     1120    13941    3               CHARPOS = CHARPOS + VM_CHAR_EXAMINED.L#;
     1121    13942    3           CASE (%SEL_FCOPY);
     1122    13943                    %INIT_STR (CODE=E_CHAR_FCOPY, STR=VM_CHAR_FCOPY, TEST=YES);
     1123    13966    3               substr(TEXTC.TEXT,CHARPOS) =  VM_CHAR_FCOPY.NAME#;
     1124    13967    3               CHARPOS = CHARPOS + VM_CHAR_FCOPY.L#;
     1125    13968    3           CASE (%SEL_FWD);
     1126    13969                    %INIT_STR (CODE=E_CHAR_FWD, STR=VM_CHAR_FWD, TEST=YES);
     1127    13992    3               substr(TEXTC.TEXT,CHARPOS) =  VM_CHAR_FWD.NAME#;
     1128    13993    3               CHARPOS = CHARPOS + VM_CHAR_FWD.L#;
     1129    13994    3           CASE (%SEL_MARKED);
     1130    13995                    %INIT_STR (CODE=E_CHAR_MARKED, STR=VM_CHAR_MARKED, TEST=YES);
     1131    14018    3               substr(TEXTC.TEXT,CHARPOS) = VM_CHAR_MARKED.NAME#;
     1132    14019    3               CHARPOS = CHARPOS + VM_CHAR_MARKED.L#;
     1133    14020    3           CASE (%SEL_NEW);
     1134    14021                    %INIT_STR (CODE=E_CHAR_NEW, STR=VM_CHAR_NEW, TEST=YES);
     1135    14044    3               substr(TEXTC.TEXT,CHARPOS) =  VM_CHAR_NEW.NAME#;
     1136    14045    3               CHARPOS = CHARPOS + VM_CHAR_NEW.L#;
     1137    14046    3           CASE (%SEL_NEXT);
     1138    14047                    %INIT_STR (CODE=E_CHAR_NEXT, STR=VM_CHAR_NEXT, TEST=YES);
     1139    14070    3               substr(TEXTC.TEXT,CHARPOS) =  VM_CHAR_NEXT.NAME#;
     1140    14071    3               CHARPOS = CHARPOS + VM_CHAR_NEXT.L#;
     1141    14072    3           CASE (%SEL_PREVIOUS);
     1142    14073                    %INIT_STR (CODE=E_CHAR_PREVIOUS, STR=VM_CHAR_PREVIOUS, TEST=YES);
     1143    14096    3               substr(TEXTC.TEXT,CHARPOS) =  VM_CHAR_PREVIOUS.NAME#;
     1144    14097    3               CHARPOS = CHARPOS + VM_CHAR_PREVIOUS.L#;
     1145    14098    3           CASE (%SEL_OLD);
     1146    14099                    %INIT_STR (CODE=E_CHAR_OLD, STR=VM_CHAR_OLD, TEST=YES);
     1147    14122    3               substr(TEXTC.TEXT,CHARPOS) = VM_CHAR_OLD.NAME#;
     1148    14123    3               CHARPOS = CHARPOS + VM_CHAR_OLD.L#;
     1149    14124    3           CASE (%SEL_UNEXAMINED);
     1150    14125                    %INIT_STR (CODE=E_CHAR_UNEXAMINED, STR=VM_CHAR_UNEXAMINED, TEST=YES);
     1151    14148    3               substr(TEXTC.TEXT,CHARPOS) =  VM_CHAR_UNEXAMINED.NAME#;
     1152    14149    3               CHARPOS = CHARPOS + VM_CHAR_UNEXAMINED.L#;
     1153    14150    3           CASE (%SEL_AND);
     1154    14151                    %INIT_STR (CODE=E_CHAR_AND, STR=VM_CHAR_AND, TEST=YES);
     1155    14174    3               substr(TEXTC.TEXT,CHARPOS) =  VM_CHAR_AND.NAME#;
PL6.E3A0      #004=VMS$FMT_EXP File=VMS$SELECT.:VMB6TSI                          WED 08/20/97 15:25 Page:166
     1156    14175    3               CHARPOS = CHARPOS + VM_CHAR_AND.L#;
     1157    14176    3           CASE (%SEL_OR);
     1158    14177                    %INIT_STR (CODE=E_CHAR_OR, STR=VM_CHAR_OR, TEST=YES);
     1159    14200    3               substr(TEXTC.TEXT,CHARPOS) = VM_CHAR_OR.NAME#;
     1160    14201    3               CHARPOS = CHARPOS + VM_CHAR_OR.L#;
     1161    14202    3           CASE (%SEL_NOT);
     1162    14203                    %INIT_STR (CODE=E_CHAR_NOT, STR=VM_CHAR_NOT, TEST=YES);
     1163    14226    3               substr(TEXTC.TEXT,CHARPOS) = VM_CHAR_NOT.NAME#;
     1164    14227    3               CHARPOS = CHARPOS + VM_CHAR_NOT.L#;
     1165    14228    3           CASE (%SEL_RR);
     1166    14229                    %INIT_STR (CODE=E_CHAR_RR, STR=VM_CHAR_RR, TEST=YES);
     1167    14252    3               substr(TEXTC.TEXT,CHARPOS) = VM_CHAR_RR.NAME#;
     1168    14253    3               CHARPOS = CHARPOS + VM_CHAR_RR.L#;
     1169    14254    3           CASE (%SEL_FROM);
     1170    14255                    %INIT_STR (CODE=E_CHAR_FROM, STR=VM_CHAR_FROM, TEST=YES);
     1171    14278    3               call insert(TEXTC.TEXT, CHARPOS,,substr(VM_CHAR_FROM.NAME#,,VM_CHAR_FROM
             14278                        .L#));
     1172    14279    3               CHARPOS = CHARPOS + VM_CHAR_FROM.L# ;
     1173    14280    3               GOTO CMPR_STR;
     1174    14281    3           CASE (%SEL_REFERENCE);
     1175    14282                    %INIT_STR (CODE=E_CHAR_REFERENCE, STR=VM_CHAR_REFERENCE, TEST=YES);
     1176    14305    3               call insert(TEXTC.TEXT,CHARPOS,,substr(VM_CHAR_REFERENCE.NAME#,,
             14305                        VM_CHAR_REFERENCE.L#));
     1177    14306    3               CHARPOS = CHARPOS + VM_CHAR_REFERENCE.L#;
     1178    14307    3               GOTO CMPR_STR;
     1179    14308    3           CASE (%SEL_REPLY_TO);
     1180    14309                    %INIT_STR (CODE=E_CHAR_REPLYTO, STR=VM_CHAR_REPLYTO, TEST=YES);
     1181    14332    3               call insert(TEXTC.TEXT,CHARPOS,, substr(VM_CHAR_REPLYTO.NAME#,,
             14332                        VM_CHAR_REPLYTO.L#));
     1182    14333    3               CHARPOS = CHARPOS + VM_CHAR_REPLYTO.L#;
     1183    14334    3               GOTO CMPR_STR;
     1184    14335    3           CASE (%SEL_SUBJECT);
     1185    14336                    %INIT_STR (CODE=E_CHAR_SUBJECT, STR=VM_CHAR_SUBJECT, TEST=YES);
     1186    14359    3               call insert(TEXTC.TEXT,CHARPOS,, substr(VM_CHAR_SUBJECT.NAME#,,
             14359                        VM_CHAR_SUBJECT.L#));
     1187    14360    3               CHARPOS = CHARPOS + VM_CHAR_SUBJECT.L#;
     1188    14361    3               GOTO CMPR_STR;
PL6.E3A0      #004=VMS$FMT_EXP File=VMS$SELECT.:VMB6TSI                          WED 08/20/97 15:25 Page:167
     1189    14362    3           CASE (%SEL_TO);
     1190    14363                    %INIT_STR (CODE=E_CHAR_TO, STR=VM_CHAR_TO, TEST=YES);
     1191    14386    3               call insert(TEXTC.TEXT, CHARPOS,, substr(VM_CHAR_TO.NAME#,,VM_CHAR_TO.L#
             14386                        ));
     1192    14387    3               CHARPOS = CHARPOS + VM_CHAR_TO.L#;
     1193    14388    3   CMPR_STR:   ;
     1194    14389    4               DO CASE (PTR1$ -> P$B.SUBLK$(0) -> P$B.CODE);
     1195    14390    4               CASE (%OPTION_EQ);
     1196    14391    4                   CALL INSERT(TEXTC.TEXT, CHARPOS,, '=''');
     1197    14392    4                   CHARPOS = CHARPOS + LENGTHC('=''');
     1198    14393    4               CASE (%OPTION_NE);
     1199    14394    4                   CALL INSERT(TEXTC.TEXT, CHARPOS,, '~=''');
     1200    14395    4                   CHARPOS = CHARPOS + LENGTHC('~=''');
     1201    14396    4               END;
     1202    14397    3               PTR2$ = PTR1$ -> P$B.SUBLK$(0)->P$B.SUBLK$(0);
     1203    14398    3               CALL INSERT (TEXTC.TEXT,CHARPOS,,PTR2$ -> P$S.TEXT);
     1204    14399    3               CHARPOS = CHARPOS + PTR2$ -> P$S.COUNT;
     1205    14400    3               CALL INSERT (TEXTC.TEXT,CHARPOS,,'''');
     1206    14401    3               CHARPOS = CHARPOS + LENGTHC('''');
     1207    14402    3           CASE (%SEL_DATE_SENT);
     1208    14403                    %INIT_STR (CODE=E_CHAR_SENT, STR=VM_CHAR_SENT, TEST=YES);
     1209    14426    3               call insert(TEXTC.TEXT, CHARPOS,, substr(VM_CHAR_SENT.NAME#,,
             14426                        VM_CHAR_SENT.L#));
     1210    14427    3               CHARPOS = CHARPOS + VM_CHAR_SENT.L#;
     1211    14428    3               GOTO CMPR_DATE;
     1212    14429    3           CASE (%SEL_DATE_RCVD);
     1213    14430                    %INIT_STR (CODE=E_CHAR_RCVD, STR=VM_CHAR_RCVD, TEST=YES);
     1214    14453    3               call insert(TEXTC.TEXT, CHARPOS,, substr(VM_CHAR_RCVD.NAME#,,
             14453                        VM_CHAR_RCVD.L#));
     1215    14454    3               CHARPOS = CHARPOS + VM_CHAR_RCVD.L#;
     1216    14455    3   CMPR_DATE:  ;
     1217    14456    4               DO CASE (PTR1$ -> P$B.SUBLK$(0) -> P$B.CODE);
     1218    14457    4               CASE (%OPTION_EQ);
     1219    14458    4                   CALL INSERT(TEXTC.TEXT, CHARPOS,, '=');
     1220    14459    4                   CHARPOS = CHARPOS + LENGTHC('=');
     1221    14460    4               CASE (%OPTION_NE);
     1222    14461    4                   CALL INSERT(TEXTC.TEXT, CHARPOS,, '~=');
PL6.E3A0      #004=VMS$FMT_EXP File=VMS$SELECT.:VMB6TSI                          WED 08/20/97 15:25 Page:168
     1223    14462    4                   CHARPOS = CHARPOS + LENGTHC('~=');
     1224    14463    4               CASE (%OPTION_GT);
     1225    14464    4                   CALL INSERT(TEXTC.TEXT, CHARPOS,, '>');
     1226    14465    4                   CHARPOS = CHARPOS + LENGTHC('>');
     1227    14466    4               CASE (%OPTION_GE);
     1228    14467    4                   CALL INSERT(TEXTC.TEXT, CHARPOS,, '>=');
     1229    14468    4                   CHARPOS = CHARPOS + LENGTHC('>=');
     1230    14469    4               CASE (%OPTION_LT);
     1231    14470    4                   CALL INSERT(TEXTC.TEXT, CHARPOS,, '<');
     1232    14471    4                   CHARPOS = CHARPOS + LENGTHC('<');
     1233    14472    4               CASE (%OPTION_LE);
     1234    14473    4                   CALL INSERT(TEXTC.TEXT, CHARPOS,, '<=');
     1235    14474    4                   CHARPOS = CHARPOS + LENGTHC('<=');
     1236    14475    4               END;
     1237    14476    3               PTR2$ = PTR1$ -> P$B.SUBLK$(0) -> P$B.SUBLK$(0);
     1238    14477    3               END2 = PTR2$ -> P$B.NSUBLKS - 1;
     1239    14478    4               DO INDX2 = 0 TO END2;
     1240    14479    4                   PTR3$ = PTR2$ -> P$B.SUBLK$(INDX2);
     1241    14480    5                   DO CASE (PTR3$ -> P$B.CODE);
     1242    14481    5                   CASE (%OPTION_DATE);
     1243    14482    5                       DELIM = '/';
     1244    14483    5                   CASE (%OPTION_TIME);
     1245    14484    5                       DELIM = ':';
     1246    14485    5                   END;
     1247    14486    4                   END3 = PTR3$ -> P$B.NSUBLKS - 1;
     1248    14487    5                   DO INDX3 = 0 TO END3;
     1249    14488    5                       CALL INSERT(TEXTC.TEXT, CHARPOS,, PTR3$ -> P$B.SUBLK$(INDX3) ->
             14488                                P$S.TEXT);
     1250    14489    5                       CHARPOS = CHARPOS + PTR3$ -> P$B.SUBLK$(INDX3) -> P$S.COUNT;
     1251    14490    5                       IF INDX3 < END3
     1252    14491    6                       THEN DO;
     1253    14492    6                           CALL INSERT(TEXTC.TEXT, CHARPOS,, DELIM);
     1254    14493    6                           CHARPOS = CHARPOS + 1;
     1255    14494    6                       END;
     1256    14495    5                   END;
     1257    14496    4                   IF INDX2 < END2
     1258    14497    5                   THEN DO;
PL6.E3A0      #004=VMS$FMT_EXP File=VMS$SELECT.:VMB6TSI                          WED 08/20/97 15:25 Page:169
     1259    14498    5                       CALL INSERT(TEXTC.TEXT, CHARPOS,, ',');
     1260    14499    5                       CHARPOS = CHARPOS + 1;
     1261    14500    5                   END;
     1262    14501    4               END;
     1263    14502    3           END;                        /* Do case ... end */
     1264    14503    2           IF CHARPOS > 511
     1265    14504    2           THEN
     1266    14505    3           DO;
     1267    14506    3               CHARPOS = 511;
     1268    14507    3               RETURN;
     1269    14508    3           END;
     1270    14509    2       END;                            /* Do INDX1 = ... end */
     1271    14510    1       RETURN;
     1272    14511    1   END VMS$FMT_EXP;

PL6.E3A0      #004=VMS$FMT_EXP File=VMS$SELECT.:VMB6TSI                          WED 08/20/97 15:25 Page:170
--  Include file information  --

   XU_SUBS_C.:LIB_E05  is referenced.
   XU_MACRO_C.:LIB_E05  is referenced.
   VM_PERR_C.:VMB6TOU  is referenced.
   B_MACROS_C.:LIB_E05  is referenced.
   VM_DATA_R.:VMB6TOU  cannot be made into a system file and is referenced.
   VM_SUBS_C.:VMB6TOU  is referenced.
   VM_MACRO_C.:VMB6TOU  is referenced.
   CP_6_SUBS.:LIB_E05  is referenced.
   CP_6_C.:LIB_E05  is referenced.
   CP_6.:LIB_E05  cannot be made into a system file and is referenced.
      No diagnostics issued in procedure VMS$FMT_EXP.

   Procedure VMS$FMT_EXP requires 1186 words for executable code.
   Procedure VMS$FMT_EXP requires 20 words of local(AUTO) storage.

    No errors detected in file VMS$SELECT.:VMB6TSI    .

PL6.E3A0      #004=VMS$FMT_EXP File=VMS$SELECT.:VMB6TSI                          WED 08/20/97 15:25 Page:171

 Object Unit name= VMS$FMT_EXP                                File name= VMS$SELECT.:VMB6TOU
 UTS= AUG 20 '97 15:25:53.40 WED                              Compiler= PL-6/E31         Sev=      00
 SharedLib= :SHARED_SYSTEM                                    Alt SharedLib=


    ****  Control sections  ****

 Sect   Type Bound  Init  Size OctSiz  Section name(segment info)
    0   DCB   even  none     0      0  M$UC
    1   DCB   even  none     0      0  M$MAIL_FILE
    2   DCB   even  none     0      0  M$MAIL_CENTRAL
    3   DCB   even  none     0      0  M$MAIL_GLOBAL
    4   DCB   even  none     0      0  M$WORK
    5   DCB   even  none     0      0  M$MAIL_COMGROUP
    6   DCB   even  none     0      0  M$DO
    7   DCB   even  none     0      0  M$LO
    8   DCB   even  none     0      0  M$ME
    9   DCB   even  none     0      0  M$NODE
   10   DCB   even  none     0      0  M$SI
   11   Data  even  none   108    154  VMS$FMT_EXP
   12  RoData even  UTS     31     37  VMS$FMT_EXP
   13   Proc  even  none  1186   2242  VMS$FMT_EXP
   14  RoData even  none    62     76  VMS$FMT_EXP

    ****  Entry defs  ****

                              Check   Calling
                             calling  sequence
  Sect OctLoc Primary Altret sequence   type   Parms  Name
    13      0   yes            yes      Std        3  VMS$FMT_EXP
PL6.E3A0      #004=VMS$FMT_EXP File=VMS$SELECT.:VMB6TSI                          WED 08/20/97 15:25 Page:172

  ****  Data defs  ****

 Sect OctLoc  Name                           Sect OctLoc  Name
   11      0  VM_CHAR_WHEN                      12      0  E_CHAR_WHEN
   11      4  VM_CHAR_BROADCAST                 12      1  E_CHAR_BROADCAST
   11     10  VM_CHAR_DELIVERY                  12      2  E_CHAR_DELIVERY
   11     14  VM_CHAR_DELETED                   12      3  E_CHAR_DELETED
   11     20  VM_CHAR_ERROR                     12      4  E_CHAR_ERROR
   11     24  VM_CHAR_FCOPY                     12      5  E_CHAR_FCOPY
   11     30  VM_CHAR_FROM                      12      6  E_CHAR_FROM
   11     34  VM_CHAR_MARKED                    12      7  E_CHAR_MARKED
   11     40  VM_CHAR_NEW                       12     10  E_CHAR_NEW
   11     44  VM_CHAR_OLD                       12     11  E_CHAR_OLD
   11     50  VM_CHAR_AND                       12     12  E_CHAR_AND
   11     54  VM_CHAR_OR                        12     13  E_CHAR_OR
   11     60  VM_CHAR_NOT                       12     14  E_CHAR_NOT
   11     64  VM_CHAR_REFERENCE                 12     15  E_CHAR_REFERENCE
   11     70  VM_CHAR_REPLYTO                   12     16  E_CHAR_REPLYTO
   11     74  VM_CHAR_SUBJECT                   12     17  E_CHAR_SUBJECT
   11    100  VM_CHAR_TO                        12     20  E_CHAR_TO
   11    104  VM_CHAR_FWD                       12     21  E_CHAR_FWD
   11    110  VM_CHAR_ANSWER                    12     22  E_CHAR_ANSWER
   11    114  VM_CHAR_ACKNOWLEDGMENT            12     23  E_CHAR_ACKNOWLEDGMENT
   11    120  VM_CHAR_NEXT                      12     24  E_CHAR_NEXT
   11    124  VM_CHAR_PREVIOUS                  12     25  E_CHAR_PREVIOUS
   11    130  VM_CHAR_UNEXAMINED                12     26  E_CHAR_UNEXAMINED
   11    134  VM_CHAR_EXAMINED                  12     27  E_CHAR_EXAMINED
   11    140  VM_CHAR_RR                        12     30  E_CHAR_RR
   11    144  VM_CHAR_SENT                      12     31  E_CHAR_SENT
   11    150  VM_CHAR_RCVD                      12     32  E_CHAR_RCVD
PL6.E3A0      #004=VMS$FMT_EXP File=VMS$SELECT.:VMB6TSI                          WED 08/20/97 15:25 Page:173

  ****  Entry refs  ****

         Check        Calling
        calling       sequence
Altret sequence SRef   type   Args  Name
 yes     yes           Std       3 VMD$ERRMSG
                       nStd      0 X66_AUTO_3
                       nStd      0 X66_ARET

  ****  Data refs  ****

  Flags:  r = read only, s = secondary
Flgs Name                             Flgs Name                             Flgs Name
     M$UC                             r    VM_HEADER$                       r    VM_PROFILE$
r    VM_ADDLIST$                      r    VM_ADDREC$                       r    VM_WORK$
r    VM_SELECT$                       r    VM_PARSEAREA$                    r    VM_INPUT$
r    VM_COPY$                              VM_ENCLLIST$                          VM_ENCLREC$
     VM_HEADER_                            VM_HEADER_INIT_                       VM_PROFILE_
     VM_ADDLIST_                           VM_ADDREC_                            VM_WORK_
     VM_SELECT_                            VM_PARSEAREA_                         VM_INPUT_
     VM_COPY_                              VM_ENCLLIST_                          VM_ENCLREC_
     M$MAIL_FILE                           M$MAIL_CENTRAL                        M$MAIL_GLOBAL
     M$WORK                                M$MAIL_COMGROUP                       M$DO
     M$LO                                  M$ME                                  M$NODE
     M$SI                                  M$MAIL_FILE_NUM                       M$MAIL_CENTRAL_NUM
     M$MAIL_GLOBAL_NUM                     M$WORK_NUM                            M$MAIL_COMGROUP_NUM
     M$DO_NUM                              M$ME_NUM                              M$LO_NUM
     M$SI_NUM                              M$NODE_NUM                       r    B$JIT$
r    B$TCB$                                VM_MAIL_ACCT                          VM_NAME_MAP_NAME
     ERRMSG_FID                            VM_SEND_FILE_NAME                     VM_FORWARD_FILE_NAME
     VM_FORWARD_ENCL_NAME                  VM_FORWARD_FILE_PASS                  VM_MAILCG_NAME
     VM_SITENAME                           VM_MAILCG_SETSTA
PL6.E3A0      #004=VMS$FMT_EXP File=VMS$SELECT.:VMB6TSI                          WED 08/20/97 15:25 Page:174

  ****  Segment refs  ****

  Flags:  r = read only, s = secondary
Flgs Name                             Flgs Name                             Flgs Name
     ISSID
PL6.E3A0      #004=VMS$FMT_EXP File=VMS$SELECT.:VMB6TSI                          WED 08/20/97 15:25 Page:175


      874        1        /*T***********************************************************/
      875        2        /*T*                                                         */
      876        3        /*T* Copyright (c) Bull HN Information Systems Inc., 1997    */
      877        4        /*T*                                                         */
      878        5        /*T***********************************************************/
      879        6        /*X* DMC,PLM=4,IND=4,CTI=2,DTI=0,ENI=0,ECI=0,CSI=0,DCI=4 */
      880        7        /*********************************************************************/
      881        8        /*F*
      882        9             NAME: VMS$FMT_EXP
      883       10             PURPOSE:
      884       11                   To take a sub tree and create a text representation.
      885       12             DESCRIPTION:
      886       13                   This routine is called by VMS$FMT_SELECT and recursively
      887       14                   by itself. Not to be called by any other routines!!!
      888       15        */
      889       16        /*********************************************************************/
      890       17        VMS$FMT_EXP: PROC (TREE$,TEXTC,CHARPOS);

     17 13 000000   000000 700200 xent  VMS$FMT_EXP  TSX0  ! X66_AUTO_3
        13 000001   000024 000003                    ZERO    20,3

      891       18        /***** Include files *****/
      892       19          %INCLUDE CP_6;
      893     5578          %INCLUDE CP_6_SUBS;
      894     6118          %INCLUDE VM_MACRO_C;
      895     7386          %INCLUDE VM_SUBS_C;
      896     7646          %INCLUDE VM_DATA_R;
      897     8077          %INCLUDE VM_PERR_C;
      898     8372          %INCLUDE XU_MACRO_C;
      899    11478          %INCLUDE XU_SUBS_C;
      900    11570        /***** Parameters *****/
      901    11571    1   DCL TREE$ PTR;
      902    11572          %TEXTC (NAME=TEXTC,STCLASS=" ");
      903    11577    1   DCL CHARPOS SBIN WORD;
      904    11578        %INIT_STR (DODCL=YES);
      905    11601        /***** Local variables *****/
PL6.E3A0      #004=VMS$FMT_EXP File=VMS$SELECT.:VMB6TSI                          WED 08/20/97 15:25 Page:176
      906    11602    1   DCL INDX1 SBIN WORD AUTO;
      907    11603    1   DCL INDX2 SBIN WORD AUTO;
      908    11604    1   DCL INDX3 SBIN WORD AUTO;
      909    11605    1   DCL PTR1$ PTR AUTO;
      910    11606    1   DCL PTR2$ PTR AUTO;
      911    11607    1   DCL PTR3$ PTR AUTO;
      912    11608    1   DCL DELIM CHAR(1) AUTO;
      913    11609    1   DCL END1 SBIN WORD AUTO;
      914    11610    1   DCL END2 SBIN WORD AUTO;
      915    11611    1   DCL END3 SBIN WORD AUTO;
      916    11612        /***** Based structures *****/
      917    11613          %PARSE$OUT (NAME=P$B,STCLASS=BASED);
      918    11658          %PARSE$SYM (NAME=P$S,STCLASS=BASED);
      919    11696        %VLP_NAME(FPTN=VM_CHAR_WHEN, LEN=15, L=15, NAME=' ', STCLASS="STATIC SYMDEF");
      920    11723        %VLP_ERRCODE (FPTN=E_CHAR_WHEN,        STCLASS="CONSTANT SYMDEF",
      921    11724                       ERR#=%E$CHAR_WHEN,      FCG=VM,MID=S);
      922    11769        /*E*  ERROR:VMS-E$CHAR_WHEN-0
      923    11770              MESSAGE: when&
      924    11771        */
      925    11772              %VLP_NAME (FPTN=VM_CHAR_BROADCAST, LEN=15, L=15, NAME=' ', STCLASS=
             11772                  "STATIC SYMDEF");
      926    11799        %VLP_ERRCODE (FPTN=E_CHAR_BROADCAST,   STCLASS="CONSTANT SYMDEF",
      927    11800                       ERR#=%E$CHAR_BROADCAST,           FCG=VM,MID=S);
      928    11845        /*E*  ERROR:VMS-E$CHAR_BROADCAST-0
      929    11846              MESSAGE:Broadcast
      930    11847        */
      931    11848              %VLP_NAME (FPTN=VM_CHAR_DELIVERY, LEN=15, L=15, NAME=' ', STCLASS=
             11848                  "STATIC SYMDEF");
      932    11875        %VLP_ERRCODE (FPTN=E_CHAR_DELIVERY,    STCLASS="CONSTANT SYMDEF",
      933    11876                       ERR#=%E$CHAR_DELIVERY,            FCG=VM,MID=S);
      934    11921        /*E*  ERROR:VMS-E$CHAR_DELIVERY-0
      935    11922              MESSAGE:Delivery
      936    11923        */
      937    11924              %VLP_NAME (FPTN=VM_CHAR_DELETED, LEN=15, L=15, NAME=' ', STCLASS=
             11924                  "STATIC SYMDEF");
      938    11951        %VLP_ERRCODE (FPTN=E_CHAR_DELETED,     STCLASS="CONSTANT SYMDEF",
      939    11952                       ERR#=%E$CHAR_DELETED,             FCG=VM,MID=S);
PL6.E3A0      #004=VMS$FMT_EXP File=VMS$SELECT.:VMB6TSI                          WED 08/20/97 15:25 Page:177
      940    11997        /*E*  ERROR:VMS-E$CHAR_DELETED-0
      941    11998              MESSAGE:Deleted
      942    11999        */
      943    12000             %VLP_NAME (FPTN=VM_CHAR_ERROR, LEN=15, L=15, NAME=' ', STCLASS="STATIC SYMDEF"
             12000                  );
      944    12027        %VLP_ERRCODE (FPTN=E_CHAR_ERROR,       STCLASS="CONSTANT SYMDEF",
      945    12028                       ERR#=%E$CHAR_ERROR,               FCG=VM,MID=S);
      946    12073        /*E*  ERROR:VMS-E$CHAR_ERROR-0
      947    12074              MESSAGE:Error
      948    12075        */
      949    12076             %VLP_NAME (FPTN=VM_CHAR_FCOPY, LEN=15, L=15, NAME=' ', STCLASS="STATIC SYMDEF"
             12076                  );
      950    12103        %VLP_ERRCODE (FPTN=E_CHAR_FCOPY,       STCLASS="CONSTANT SYMDEF",
      951    12104                       ERR#=%E$CHAR_FCOPY,               FCG=VM,MID=S);
      952    12149        /*E*  ERROR:VMS-E$CHAR_FCOPY-0
      953    12150              MESSAGE:FCopy
      954    12151        */
      955    12152             %VLP_NAME (FPTN=VM_CHAR_FROM, LEN=15, L=15, NAME=' ', STCLASS="STATIC SYMDEF")
             12152                  ;
      956    12179        %VLP_ERRCODE (FPTN=E_CHAR_FROM,        STCLASS="CONSTANT SYMDEF",
      957    12180                       ERR#=%E$CHAR_FROM,                FCG=VM,MID=S);
      958    12225        /*E*  ERROR:VMS-E$CHAR_FROM-0
      959    12226              MESSAGE:From
      960    12227        */
      961    12228              %VLP_NAME (FPTN=VM_CHAR_MARKED, LEN=15, L=15, NAME=' ', STCLASS=
             12228                  "STATIC SYMDEF");
      962    12255        %VLP_ERRCODE (FPTN=E_CHAR_MARKED,      STCLASS="CONSTANT SYMDEF",
      963    12256                       ERR#=%E$CHAR_MARKED,              FCG=VM,MID=S);
      964    12301        /*E*  ERROR:VMS-E$CHAR_MARKED-0
      965    12302              MESSAGE:Marked
      966    12303        */
      967    12304             %VLP_NAME (FPTN=VM_CHAR_NEW, LEN=15, L=15, NAME=' ', STCLASS="STATIC SYMDEF");
      968    12331        %VLP_ERRCODE (FPTN=E_CHAR_NEW,         STCLASS="CONSTANT SYMDEF",
      969    12332                       ERR#=%E$CHAR_NEW,                 FCG=VM,MID=S);
      970    12377        /*E*  ERROR:VMS-E$CHAR_NEW-0
      971    12378              MESSAGE:New
      972    12379        */
PL6.E3A0      #004=VMS$FMT_EXP File=VMS$SELECT.:VMB6TSI                          WED 08/20/97 15:25 Page:178
      973    12380             %VLP_NAME (FPTN=VM_CHAR_OLD, LEN=15, L=15, NAME=' ', STCLASS="STATIC SYMDEF");
      974    12407        %VLP_ERRCODE (FPTN=E_CHAR_OLD,         STCLASS="CONSTANT SYMDEF",
      975    12408                       ERR#=%E$CHAR_OLD,                 FCG=VM,MID=S);
      976    12453        /*E*  ERROR:VMS-E$CHAR_OLD-0
      977    12454              MESSAGE:Old&
      978    12455        */
      979    12456             %VLP_NAME (FPTN=VM_CHAR_AND, LEN=15, L=15, NAME=' ', STCLASS="STATIC SYMDEF");
      980    12483        %VLP_ERRCODE (FPTN=E_CHAR_AND,         STCLASS="CONSTANT SYMDEF",
      981    12484                       ERR#=%E$CHAR_AND,                 FCG=VM,MID=S);
      982    12529        /*E*  ERROR:VMS-E$CHAR_AND-0
      983    12530              MESSAGE:&and&
      984    12531        */
      985    12532              %VLP_NAME (FPTN=VM_CHAR_OR, LEN=15, L=15, NAME=' ', STCLASS="STATIC SYMDEF");
      986    12559        %VLP_ERRCODE (FPTN=E_CHAR_OR,          STCLASS="CONSTANT SYMDEF",
      987    12560                       ERR#=%E$CHAR_OR,                  FCG=VM,MID=S);
      988    12605        /*E*  ERROR:VMS-E$CHAR_OR-0
      989    12606              MESSAGE:&or&
      990    12607        */
      991    12608             %VLP_NAME (FPTN=VM_CHAR_NOT, LEN=15, L=15, NAME=' ', STCLASS="STATIC SYMDEF");
      992    12635        %VLP_ERRCODE (FPTN=E_CHAR_NOT,         STCLASS="CONSTANT SYMDEF",
      993    12636                       ERR#=%E$CHAR_NOT,                 FCG=VM,MID=S);
      994    12681        /*E*  ERROR:VMS-E$CHAR_NOT-0
      995    12682              MESSAGE:&not&
      996    12683        */
      997    12684              %VLP_NAME (FPTN=VM_CHAR_REFERENCE, LEN=15, L=15, NAME=' ', STCLASS=
             12684                  "STATIC SYMDEF");
      998    12711        %VLP_ERRCODE (FPTN=E_CHAR_REFERENCE,         STCLASS="CONSTANT SYMDEF",
      999    12712                       ERR#=%E$CHAR_REFERENCE,                 FCG=VM,MID=S);
     1000    12757        /*E*  ERROR:VMS-E$CHAR_REFERENCE-0
     1001    12758              MESSAGE:Reference
     1002    12759        */
     1003    12760              %VLP_NAME (FPTN=VM_CHAR_REPLYTO, LEN=15, L=15, NAME=' ', STCLASS=
             12760                  "STATIC SYMDEF");
     1004    12787        %VLP_ERRCODE (FPTN=E_CHAR_REPLYTO,         STCLASS="CONSTANT SYMDEF",
     1005    12788                       ERR#=%E$CHAR_REPLYTO,                 FCG=VM,MID=S);
     1006    12833        /*E*  ERROR:VMS-E$CHAR_REPLYTO-0
     1007    12834              MESSAGE:Reply To
PL6.E3A0      #004=VMS$FMT_EXP File=VMS$SELECT.:VMB6TSI                          WED 08/20/97 15:25 Page:179
     1008    12835        */
     1009    12836              %VLP_NAME (FPTN=VM_CHAR_SUBJECT, LEN=15, L=15, NAME=' ', STCLASS=
             12836                  "STATIC SYMDEF");
     1010    12863        %VLP_ERRCODE (FPTN=E_CHAR_SUBJECT,         STCLASS="CONSTANT SYMDEF",
     1011    12864                       ERR#=%E$CHAR_SUBJECT,                 FCG=VM,MID=S);
     1012    12909        /*E*  ERROR:VMS-E$CHAR_SUBJECT-0
     1013    12910              MESSAGE:Subject
     1014    12911        */
     1015    12912              %VLP_NAME (FPTN=VM_CHAR_TO, LEN=15, L=15, NAME=' ', STCLASS="STATIC SYMDEF");
     1016    12939        %VLP_ERRCODE (FPTN=E_CHAR_TO,         STCLASS="CONSTANT SYMDEF",
     1017    12940                       ERR#=%E$CHAR_TO,                 FCG=VM,MID=S);
     1018    12985        /*E*  ERROR:VMS-E$CHAR_TO-0
     1019    12986              MESSAGE:To
     1020    12987        */
     1021    12988             %VLP_NAME (FPTN=VM_CHAR_FWD, LEN=15, L=15, NAME=' ', STCLASS="STATIC SYMDEF");
     1022    13015        %VLP_ERRCODE (FPTN=E_CHAR_FWD,         STCLASS="CONSTANT SYMDEF",
     1023    13016                       ERR#=%E$CHAR_FWD,                 FCG=VM,MID=S);
     1024    13061        /*E*  ERROR:VMS-E$CHAR_FWD-0
     1025    13062              MESSAGE:Fwd
     1026    13063        */
     1027    13064              %VLP_NAME (FPTN=VM_CHAR_ANSWER, LEN=15, L=15, NAME=' ', STCLASS=
             13064                  "STATIC SYMDEF");
     1028    13091        %VLP_ERRCODE (FPTN=E_CHAR_ANSWER,         STCLASS="CONSTANT SYMDEF",
     1029    13092                       ERR#=%E$CHAR_ANSWER,                 FCG=VM,MID=S);
     1030    13137        /*E*  ERROR:VMS-E$CHAR_ANSWER-0
     1031    13138              MESSAGE:Answer
     1032    13139        */
     1033    13140              %VLP_NAME (FPTN=VM_CHAR_ACKNOWLEDGMENT, LEN=15, L=15, NAME=' ', STCLASS=
             13140                  "STATIC SYMDEF");
     1034    13167        %VLP_ERRCODE (FPTN=E_CHAR_ACKNOWLEDGMENT,         STCLASS="CONSTANT SYMDEF",
     1035    13168                       ERR#=%E$CHAR_ACKNOWLEDGMENT,                 FCG=VM,MID=S);
     1036    13213        /*E*  ERROR:VMS-E$CHAR_ACKNOWLEDGMENT-0
     1037    13214              MESSAGE:Acknowledgement
     1038    13215        */
     1039    13216             %VLP_NAME (FPTN=VM_CHAR_NEXT, LEN=15, L=15, NAME=' ', STCLASS="STATIC SYMDEF")
             13216                  ;
     1040    13243        %VLP_ERRCODE (FPTN=E_CHAR_NEXT,         STCLASS="CONSTANT SYMDEF",
PL6.E3A0      #004=VMS$FMT_EXP File=VMS$SELECT.:VMB6TSI                          WED 08/20/97 15:25 Page:180
     1041    13244                       ERR#=%E$CHAR_NEXT,                 FCG=VM,MID=S);
     1042    13289        /*E*  ERROR:VMS-E$CHAR_NEXT-0
     1043    13290              MESSAGE:Next
     1044    13291        */
     1045    13292              %VLP_NAME (FPTN=VM_CHAR_PREVIOUS, LEN=15, L=15, NAME=' ', STCLASS=
             13292                  "STATIC SYMDEF");
     1046    13319        %VLP_ERRCODE (FPTN=E_CHAR_PREVIOUS,         STCLASS="CONSTANT SYMDEF",
     1047    13320                       ERR#=%E$CHAR_PREVIOUS,                 FCG=VM,MID=S);
     1048    13365        /*E*  ERROR:VMS-E$CHAR_PREVIOUS-0
     1049    13366              MESSAGE:Previous
     1050    13367        */
     1051    13368              %VLP_NAME (FPTN=VM_CHAR_UNEXAMINED, LEN=15, L=15, NAME=' ', STCLASS=
             13368                  "STATIC SYMDEF");
     1052    13395        %VLP_ERRCODE (FPTN=E_CHAR_UNEXAMINED,         STCLASS="CONSTANT SYMDEF",
     1053    13396                       ERR#=%E$CHAR_UNEXAMINED,                 FCG=VM,MID=S);
     1054    13441        /*E*  ERROR:VMS-E$CHAR_UNEXAMINED-0
     1055    13442              MESSAGE:Unexamined
     1056    13443        */
     1057    13444              %VLP_NAME (FPTN=VM_CHAR_EXAMINED, LEN=15, L=15, NAME=' ', STCLASS=
             13444                  "STATIC SYMDEF");
     1058    13471        %VLP_ERRCODE (FPTN=E_CHAR_EXAMINED,         STCLASS="CONSTANT SYMDEF",
     1059    13472                       ERR#=%E$CHAR_EXAMINED,                 FCG=VM,MID=S);
     1060    13517        /*E*  ERROR:VMS-E$CHAR_EXAMINED-0
     1061    13518              MESSAGE:Examined
     1062    13519        */
     1063    13520              %VLP_NAME (FPTN=VM_CHAR_RR, LEN=15, L=15, NAME=' ', STCLASS="STATIC SYMDEF");
     1064    13547        %VLP_ERRCODE (FPTN=E_CHAR_RR,         STCLASS="CONSTANT SYMDEF",
     1065    13548                       ERR#=%E$CHAR_RR,                 FCG=VM,MID=S);
     1066    13593        /*E*  ERROR:VMS-E$CHAR_RR-0
     1067    13594              MESSAGE:RR
     1068    13595        */
     1069    13596             %VLP_NAME (FPTN=VM_CHAR_SENT, LEN=15, L=15, NAME=' ', STCLASS="STATIC SYMDEF")
             13596                  ;
     1070    13623        %VLP_ERRCODE (FPTN=E_CHAR_SENT,         STCLASS="CONSTANT SYMDEF",
     1071    13624                       ERR#=%E$CHAR_SENT,                 FCG=VM,MID=S);
     1072    13669        /*E*  ERROR:VMS-E$CHAR_SENT-0
     1073    13670              MESSAGE:Date Sent
PL6.E3A0      #004=VMS$FMT_EXP File=VMS$SELECT.:VMB6TSI                          WED 08/20/97 15:25 Page:181
     1074    13671        */
     1075    13672             %VLP_NAME (FPTN=VM_CHAR_RCVD, LEN=15, L=15, NAME=' ', STCLASS="STATIC SYMDEF")
             13672                  ;
     1076    13699        %VLP_ERRCODE (FPTN=E_CHAR_RCVD,         STCLASS="CONSTANT SYMDEF",
     1077    13700                       ERR#=%E$CHAR_RCVD,                 FCG=VM,MID=S);
     1078    13745        /*E*  ERROR:VMS-E$CHAR_RCVD-0
     1079    13746              MESSAGE:Date Rcvd
     1080    13747        */
     1081    13748        %EJECT;
PL6.E3A0      #004=VMS$FMT_EXP File=VMS$SELECT.:VMB6TSI                          WED 08/20/97 15:25 Page:182
     1082    13749    1         END1 = TREE$ -> P$B.NSUBLKS - 1;

  13749 13 000002   200003 470500                    LDP0    @TREE$,,AUTO
        13 000003   000000 471500                    LDP1    0,,PR0
        13 000004   100001 236100                    LDQ     1,,PR1
        13 000005   000022 772000                    QRL     18
        13 000006   000001 136007                    SBLQ    1,DL
        13 000007   200015 756100                    STQ     END1,,AUTO

     1083    13750    2       DO INDX1 = 0 TO END1;

  13750 13 000010   200006 450100                    STZ     INDX1,,AUTO
        13 000011   002236 710000 13                 TRA     s:14509+1

     1084    13751    2           PTR1$ = TREE$ -> P$B.SUBLK$(INDX1);

  13751 13 000012   200003 470500                    LDP0    @TREE$,,AUTO
        13 000013   000000 471500                    LDP1    0,,PR0
        13 000014   200006 720100                    LXL0    INDX1,,AUTO
        13 000015   100003 236110                    LDQ     3,X0,PR1
        13 000016   200011 756100                    STQ     PTR1$,,AUTO

     1085    13752    3           DO CASE (PTR1$ -> P$B.CODE);

  13752 13 000017   200011 471500                    LDP1    PTR1$,,AUTO
        13 000020   100000 721100                    LXL1    0,,PR1
        13 000021   000164 101003                    CMPX1   116,DU
        13 000022   000024 602011 13                 TNC     s:13752+5,X1
        13 000023   002226 710000 13                 TRA     s:14503
        13 000024   002226 710000 13                 TRA     s:14503
        13 000025   002226 710000 13                 TRA     s:14503
        13 000026   001174 710000 13                 TRA     s:14210
        13 000027   001106 710000 13                 TRA     s:14158
        13 000030   001141 710000 13                 TRA     s:14184
        13 000031   002226 710000 13                 TRA     s:14503
        13 000032   002226 710000 13                 TRA     s:14503
        13 000033   002226 710000 13                 TRA     s:14503
PL6.E3A0      #004=VMS$FMT_EXP File=VMS$SELECT.:VMB6TSI                          WED 08/20/97 15:25 Page:183
        13 000034   002226 710000 13                 TRA     s:14503
        13 000035   002226 710000 13                 TRA     s:14503
        13 000036   002226 710000 13                 TRA     s:14503
        13 000037   000261 710000 13                 TRA     s:13768
        13 000040   000314 710000 13                 TRA     s:13794
        13 000041   000556 710000 13                 TRA     s:13950
        13 000042   000402 710000 13                 TRA     s:13846
        13 000043   000470 710000 13                 TRA     s:13898
        13 000044   000523 710000 13                 TRA     s:13924
        13 000045   001262 710000 13                 TRA     s:14262
        13 000046   000644 710000 13                 TRA     s:14002
        13 000047   000677 710000 13                 TRA     s:14028
        13 000050   001020 710000 13                 TRA     s:14106
        13 000051   001320 710000 13                 TRA     s:14289
        13 000052   001414 710000 13                 TRA     s:14343
        13 000053   001053 710000 13                 TRA     s:14132
        13 000054   000611 710000 13                 TRA     s:13976
        13 000055   001227 710000 13                 TRA     s:14236
        13 000056   001452 710000 13                 TRA     s:14370
        13 000057   001356 710000 13                 TRA     s:14316
        13 000060   000435 710000 13                 TRA     s:13872
        13 000061   000347 710000 13                 TRA     s:13820
        13 000062   000210 710000 13                 TRA     s:13754
        13 000063   002226 710000 13                 TRA     s:14503
        13 000064   002226 710000 13                 TRA     s:14503
        13 000065   001623 710000 13                 TRA     s:14410
        13 000066   001661 710000 13                 TRA     s:14437
        13 000067   002226 710000 13                 TRA     s:14503
        13 000070   002226 710000 13                 TRA     s:14503
        13 000071   002226 710000 13                 TRA     s:14503
        13 000072   002226 710000 13                 TRA     s:14503
        13 000073   002226 710000 13                 TRA     s:14503
        13 000074   002226 710000 13                 TRA     s:14503
        13 000075   002226 710000 13                 TRA     s:14503
        13 000076   002226 710000 13                 TRA     s:14503
        13 000077   002226 710000 13                 TRA     s:14503
        13 000100   002226 710000 13                 TRA     s:14503
PL6.E3A0      #004=VMS$FMT_EXP File=VMS$SELECT.:VMB6TSI                          WED 08/20/97 15:25 Page:184
        13 000101   002226 710000 13                 TRA     s:14503
        13 000102   002226 710000 13                 TRA     s:14503
        13 000103   002226 710000 13                 TRA     s:14503
        13 000104   002226 710000 13                 TRA     s:14503
        13 000105   002226 710000 13                 TRA     s:14503
        13 000106   002226 710000 13                 TRA     s:14503
        13 000107   002226 710000 13                 TRA     s:14503
        13 000110   002226 710000 13                 TRA     s:14503
        13 000111   002226 710000 13                 TRA     s:14503
        13 000112   002226 710000 13                 TRA     s:14503
        13 000113   002226 710000 13                 TRA     s:14503
        13 000114   002226 710000 13                 TRA     s:14503
        13 000115   002226 710000 13                 TRA     s:14503
        13 000116   002226 710000 13                 TRA     s:14503
        13 000117   002226 710000 13                 TRA     s:14503
        13 000120   002226 710000 13                 TRA     s:14503
        13 000121   002226 710000 13                 TRA     s:14503
        13 000122   002226 710000 13                 TRA     s:14503
        13 000123   002226 710000 13                 TRA     s:14503
        13 000124   002226 710000 13                 TRA     s:14503
        13 000125   002226 710000 13                 TRA     s:14503
        13 000126   002226 710000 13                 TRA     s:14503
        13 000127   002226 710000 13                 TRA     s:14503
        13 000130   002226 710000 13                 TRA     s:14503
        13 000131   002226 710000 13                 TRA     s:14503
        13 000132   002226 710000 13                 TRA     s:14503
        13 000133   002226 710000 13                 TRA     s:14503
        13 000134   002226 710000 13                 TRA     s:14503
        13 000135   002226 710000 13                 TRA     s:14503
        13 000136   002226 710000 13                 TRA     s:14503
        13 000137   002226 710000 13                 TRA     s:14503
        13 000140   002226 710000 13                 TRA     s:14503
        13 000141   002226 710000 13                 TRA     s:14503
        13 000142   002226 710000 13                 TRA     s:14503
        13 000143   002226 710000 13                 TRA     s:14503
        13 000144   002226 710000 13                 TRA     s:14503
        13 000145   002226 710000 13                 TRA     s:14503
PL6.E3A0      #004=VMS$FMT_EXP File=VMS$SELECT.:VMB6TSI                          WED 08/20/97 15:25 Page:185
        13 000146   002226 710000 13                 TRA     s:14503
        13 000147   002226 710000 13                 TRA     s:14503
        13 000150   002226 710000 13                 TRA     s:14503
        13 000151   002226 710000 13                 TRA     s:14503
        13 000152   002226 710000 13                 TRA     s:14503
        13 000153   002226 710000 13                 TRA     s:14503
        13 000154   002226 710000 13                 TRA     s:14503
        13 000155   002226 710000 13                 TRA     s:14503
        13 000156   002226 710000 13                 TRA     s:14503
        13 000157   002226 710000 13                 TRA     s:14503
        13 000160   002226 710000 13                 TRA     s:14503
        13 000161   002226 710000 13                 TRA     s:14503
        13 000162   002226 710000 13                 TRA     s:14503
        13 000163   002226 710000 13                 TRA     s:14503
        13 000164   002226 710000 13                 TRA     s:14503
        13 000165   002226 710000 13                 TRA     s:14503
        13 000166   002226 710000 13                 TRA     s:14503
        13 000167   002226 710000 13                 TRA     s:14503
        13 000170   002226 710000 13                 TRA     s:14503
        13 000171   002226 710000 13                 TRA     s:14503
        13 000172   002226 710000 13                 TRA     s:14503
        13 000173   002226 710000 13                 TRA     s:14503
        13 000174   002226 710000 13                 TRA     s:14503
        13 000175   002226 710000 13                 TRA     s:14503
        13 000176   002226 710000 13                 TRA     s:14503
        13 000177   002226 710000 13                 TRA     s:14503
        13 000200   002226 710000 13                 TRA     s:14503
        13 000201   002226 710000 13                 TRA     s:14503
        13 000202   002226 710000 13                 TRA     s:14503
        13 000203   002226 710000 13                 TRA     s:14503
        13 000204   002226 710000 13                 TRA     s:14503
        13 000205   002226 710000 13                 TRA     s:14503
        13 000206   000732 710000 13                 TRA     s:14054
        13 000207   000765 710000 13                 TRA     s:14080

     1086    13753    3           CASE (%SEL_EXP);

PL6.E3A0      #004=VMS$FMT_EXP File=VMS$SELECT.:VMB6TSI                          WED 08/20/97 15:25 Page:186
     1087    13754    3               CALL INSERT (TEXTC.TEXT,CHARPOS,,'(');

  13754 13 000210   200004 473500                    LDP3    @TEXTC,,AUTO
        13 000211   000100 101500                    MRL     fill='000'O
        13 000212   300000 000001                    ADSC9   0,,PR3                   cn=0,n=1
        13 000213   200020 000002                    ADSC9   END3+1,,AUTO             cn=0,n=2
        13 000214   200020 221100                    LDX1    END3+1,,AUTO
        13 000215   200005 474500                    LDP4    @CHARPOS,,AUTO
        13 000216   000000 636011                    EAQ     0,X1
        13 000217   000022 772000                    QRL     18
        13 000220   400000 136100                    SBLQ    0,,PR4
        13 000221   400000 235100                    LDA     0,,PR4
        13 000222   000000 622006                    EAX2    0,QL
        13 000223   040145 100400                    MLR     fill='040'O
        13 000224   000000 000001 14                 ADSC9   0                        cn=0,n=1
        13 000225   300000 200012                    ADSC9   0,A,PR3                  cn=1,n=*X2

     1088    13755    3               CHARPOS = CHARPOS + 1;

  13755 13 000226   400000 054100                    AOS     0,,PR4

     1089    13756    3               CALL VMS$FMT_EXP (PTR1$,TEXTC,CHARPOS);

  13756 13 000227   200005 236100                    LDQ     @CHARPOS,,AUTO
        13 000230   200022 756100                    STQ     END3+3,,AUTO
        13 000231   200004 236100                    LDQ     @TEXTC,,AUTO
        13 000232   200021 756100                    STQ     END3+2,,AUTO
        13 000233   200011 631500                    EPPR1   PTR1$,,AUTO
        13 000234   200020 451500                    STP1    END3+1,,AUTO
        13 000235   200020 630500                    EPPR0   END3+1,,AUTO
        13 000236   000001 631400 14                 EPPR1   1
        13 000237   000000 701000 13                 TSX1    s:17
        13 000240   000000 011000                    NOP     0

     1090    13757    3               CALL INSERT (TEXTC.TEXT,CHARPOS,,')');

  13757 13 000241   200004 470500                    LDP0    @TEXTC,,AUTO
PL6.E3A0      #004=VMS$FMT_EXP File=VMS$SELECT.:VMB6TSI                          WED 08/20/97 15:25 Page:187
        13 000242   000100 101500                    MRL     fill='000'O
        13 000243   000000 000001                    ADSC9   0,,PR0                   cn=0,n=1
        13 000244   200020 000002                    ADSC9   END3+1,,AUTO             cn=0,n=2
        13 000245   200020 220100                    LDX0    END3+1,,AUTO
        13 000246   200005 471500                    LDP1    @CHARPOS,,AUTO
        13 000247   000000 636010                    EAQ     0,X0
        13 000250   000022 772000                    QRL     18
        13 000251   100000 136100                    SBLQ    0,,PR1
        13 000252   100000 235100                    LDA     0,,PR1
        13 000253   000000 621006                    EAX1    0,QL
        13 000254   040145 100400                    MLR     fill='040'O
        13 000255   000002 000001 14                 ADSC9   2                        cn=0,n=1
        13 000256   000000 200011                    ADSC9   0,A,PR0                  cn=1,n=*X1

     1091    13758    3               CHARPOS = CHARPOS + 1;

  13758 13 000257   100000 054100                    AOS     0,,PR1
        13 000260   002226 710000 13                 TRA     s:14503

     1092    13759    3           CASE (%SEL_ACKNOWLEDGMENT);

     1093    13760                    %INIT_STR (CODE=E_CHAR_ACKNOWLEDGMENT, TEST=YES,
     1094    13761                    STR=VM_CHAR_ACKNOWLEDGMENT);

  13768 13 000261   040000 106400                    CMPC    fill='040'O
        13 000262   000114 200017 11                 ADSC9   VM_CHAR_ACKNOWLEDGMENT   cn=1,n=15
        13 000263   000003 000001 14                 ADSC9   3                        cn=0,n=1
        13 000264   000271 601000 13                 TNZ     s:13784

  13770 13 000265   000005 630400 14                 EPPR0   5
        13 000266   000004 631400 14                 EPPR1   4
        13 000267   000000 701000 xent               TSX1    VMD$ERRMSG
        13 000270   000000 011000                    NOP     0

     1095    13784    3               substr(TEXTC.TEXT,CHARPOS)=VM_CHAR_ACKNOWLEDGMENT.NAME#;

  13784 13 000271   200004 470500                    LDP0    @TEXTC,,AUTO
PL6.E3A0      #004=VMS$FMT_EXP File=VMS$SELECT.:VMB6TSI                          WED 08/20/97 15:25 Page:188
        13 000272   000100 101500                    MRL     fill='000'O
        13 000273   000000 000001                    ADSC9   0,,PR0                   cn=0,n=1
        13 000274   200020 000002                    ADSC9   END3+1,,AUTO             cn=0,n=2
        13 000275   200020 220100                    LDX0    END3+1,,AUTO
        13 000276   200005 471500                    LDP1    @CHARPOS,,AUTO
        13 000277   000000 636010                    EAQ     0,X0
        13 000300   000022 772000                    QRL     18
        13 000301   100000 136100                    SBLQ    0,,PR1
        13 000302   100000 235100                    LDA     0,,PR1
        13 000303   000000 621006                    EAX1    0,QL
        13 000304   040145 100400                    MLR     fill='040'O
        13 000305   000114 200017 11                 ADSC9   VM_CHAR_ACKNOWLEDGMENT   cn=1,n=15
        13 000306   000000 200011                    ADSC9   0,A,PR0                  cn=1,n=*X1

     1096    13785    3               CHARPOS = CHARPOS + VM_CHAR_ACKNOWLEDGMENT.L#;

  13785 13 000307   000114 236000 11                 LDQ     VM_CHAR_ACKNOWLEDGMENT
        13 000310   000033 772000                    QRL     27
        13 000311   100000 036100                    ADLQ    0,,PR1
        13 000312   100000 756100                    STQ     0,,PR1
        13 000313   002226 710000 13                 TRA     s:14503

     1097    13786    3           CASE (%SEL_ANSWER);

     1098    13787                    %INIT_STR (CODE=E_CHAR_ANSWER, STR=VM_CHAR_ANSWER, TEST=YES);

  13794 13 000314   040000 106400                    CMPC    fill='040'O
        13 000315   000110 200017 11                 ADSC9   VM_CHAR_ANSWER           cn=1,n=15
        13 000316   000003 000001 14                 ADSC9   3                        cn=0,n=1
        13 000317   000324 601000 13                 TNZ     s:13810

  13796 13 000320   000007 630400 14                 EPPR0   7
        13 000321   000004 631400 14                 EPPR1   4
        13 000322   000000 701000 xent               TSX1    VMD$ERRMSG
        13 000323   000000 011000                    NOP     0

     1099    13810    3               substr(TEXTC.TEXT,CHARPOS)=VM_CHAR_ANSWER.NAME#;
PL6.E3A0      #004=VMS$FMT_EXP File=VMS$SELECT.:VMB6TSI                          WED 08/20/97 15:25 Page:189

  13810 13 000324   200004 470500                    LDP0    @TEXTC,,AUTO
        13 000325   000100 101500                    MRL     fill='000'O
        13 000326   000000 000001                    ADSC9   0,,PR0                   cn=0,n=1
        13 000327   200020 000002                    ADSC9   END3+1,,AUTO             cn=0,n=2
        13 000330   200020 220100                    LDX0    END3+1,,AUTO
        13 000331   200005 471500                    LDP1    @CHARPOS,,AUTO
        13 000332   000000 636010                    EAQ     0,X0
        13 000333   000022 772000                    QRL     18
        13 000334   100000 136100                    SBLQ    0,,PR1
        13 000335   100000 235100                    LDA     0,,PR1
        13 000336   000000 621006                    EAX1    0,QL
        13 000337   040145 100400                    MLR     fill='040'O
        13 000340   000110 200017 11                 ADSC9   VM_CHAR_ANSWER           cn=1,n=15
        13 000341   000000 200011                    ADSC9   0,A,PR0                  cn=1,n=*X1

     1100    13811    3               CHARPOS = CHARPOS + VM_CHAR_ANSWER.L#;

  13811 13 000342   000110 236000 11                 LDQ     VM_CHAR_ANSWER
        13 000343   000033 772000                    QRL     27
        13 000344   100000 036100                    ADLQ    0,,PR1
        13 000345   100000 756100                    STQ     0,,PR1
        13 000346   002226 710000 13                 TRA     s:14503

     1101    13812    3           CASE (%SEL_BROADCAST);

     1102    13813                    %INIT_STR (CODE=E_CHAR_BROADCAST, STR=VM_CHAR_BROADCAST, TEST=YES);

  13820 13 000347   040000 106400                    CMPC    fill='040'O
        13 000350   000004 200017 11                 ADSC9   VM_CHAR_BROADCAST        cn=1,n=15
        13 000351   000003 000001 14                 ADSC9   3                        cn=0,n=1
        13 000352   000357 601000 13                 TNZ     s:13836

  13822 13 000353   000011 630400 14                 EPPR0   9
        13 000354   000004 631400 14                 EPPR1   4
        13 000355   000000 701000 xent               TSX1    VMD$ERRMSG
        13 000356   000000 011000                    NOP     0
PL6.E3A0      #004=VMS$FMT_EXP File=VMS$SELECT.:VMB6TSI                          WED 08/20/97 15:25 Page:190

     1103    13836    3               substr(TEXTC.TEXT,CHARPOS) = VM_CHAR_BROADCAST.NAME#;

  13836 13 000357   200004 470500                    LDP0    @TEXTC,,AUTO
        13 000360   000100 101500                    MRL     fill='000'O
        13 000361   000000 000001                    ADSC9   0,,PR0                   cn=0,n=1
        13 000362   200020 000002                    ADSC9   END3+1,,AUTO             cn=0,n=2
        13 000363   200020 220100                    LDX0    END3+1,,AUTO
        13 000364   200005 471500                    LDP1    @CHARPOS,,AUTO
        13 000365   000000 636010                    EAQ     0,X0
        13 000366   000022 772000                    QRL     18
        13 000367   100000 136100                    SBLQ    0,,PR1
        13 000370   100000 235100                    LDA     0,,PR1
        13 000371   000000 621006                    EAX1    0,QL
        13 000372   040145 100400                    MLR     fill='040'O
        13 000373   000004 200017 11                 ADSC9   VM_CHAR_BROADCAST        cn=1,n=15
        13 000374   000000 200011                    ADSC9   0,A,PR0                  cn=1,n=*X1

     1104    13837    3               CHARPOS = CHARPOS + VM_CHAR_BROADCAST.L#;

  13837 13 000375   000004 236000 11                 LDQ     VM_CHAR_BROADCAST
        13 000376   000033 772000                    QRL     27
        13 000377   100000 036100                    ADLQ    0,,PR1
        13 000400   100000 756100                    STQ     0,,PR1
        13 000401   002226 710000 13                 TRA     s:14503

     1105    13838    3           CASE (%SEL_DELETED);

     1106    13839                    %INIT_STR (CODE=E_CHAR_DELETED, STR=VM_CHAR_DELETED, TEST=YES);

  13846 13 000402   040000 106400                    CMPC    fill='040'O
        13 000403   000014 200017 11                 ADSC9   VM_CHAR_DELETED          cn=1,n=15
        13 000404   000003 000001 14                 ADSC9   3                        cn=0,n=1
        13 000405   000412 601000 13                 TNZ     s:13862

  13848 13 000406   000013 630400 14                 EPPR0   11
        13 000407   000004 631400 14                 EPPR1   4
PL6.E3A0      #004=VMS$FMT_EXP File=VMS$SELECT.:VMB6TSI                          WED 08/20/97 15:25 Page:191
        13 000410   000000 701000 xent               TSX1    VMD$ERRMSG
        13 000411   000000 011000                    NOP     0

     1107    13862    3               substr(TEXTC.TEXT,CHARPOS) =  VM_CHAR_DELETED.NAME#;

  13862 13 000412   200004 470500                    LDP0    @TEXTC,,AUTO
        13 000413   000100 101500                    MRL     fill='000'O
        13 000414   000000 000001                    ADSC9   0,,PR0                   cn=0,n=1
        13 000415   200020 000002                    ADSC9   END3+1,,AUTO             cn=0,n=2
        13 000416   200020 220100                    LDX0    END3+1,,AUTO
        13 000417   200005 471500                    LDP1    @CHARPOS,,AUTO
        13 000420   000000 636010                    EAQ     0,X0
        13 000421   000022 772000                    QRL     18
        13 000422   100000 136100                    SBLQ    0,,PR1
        13 000423   100000 235100                    LDA     0,,PR1
        13 000424   000000 621006                    EAX1    0,QL
        13 000425   040145 100400                    MLR     fill='040'O
        13 000426   000014 200017 11                 ADSC9   VM_CHAR_DELETED          cn=1,n=15
        13 000427   000000 200011                    ADSC9   0,A,PR0                  cn=1,n=*X1

     1108    13863    3               CHARPOS = CHARPOS + VM_CHAR_DELETED.L#;

  13863 13 000430   000014 236000 11                 LDQ     VM_CHAR_DELETED
        13 000431   000033 772000                    QRL     27
        13 000432   100000 036100                    ADLQ    0,,PR1
        13 000433   100000 756100                    STQ     0,,PR1
        13 000434   002226 710000 13                 TRA     s:14503

     1109    13864    3           CASE (%SEL_DELIVERY);

     1110    13865                    %INIT_STR (CODE=E_CHAR_DELIVERY, STR=VM_CHAR_DELIVERY, TEST=YES);

  13872 13 000435   040000 106400                    CMPC    fill='040'O
        13 000436   000010 200017 11                 ADSC9   VM_CHAR_DELIVERY         cn=1,n=15
        13 000437   000003 000001 14                 ADSC9   3                        cn=0,n=1
        13 000440   000445 601000 13                 TNZ     s:13888

PL6.E3A0      #004=VMS$FMT_EXP File=VMS$SELECT.:VMB6TSI                          WED 08/20/97 15:25 Page:192
  13874 13 000441   000015 630400 14                 EPPR0   13
        13 000442   000004 631400 14                 EPPR1   4
        13 000443   000000 701000 xent               TSX1    VMD$ERRMSG
        13 000444   000000 011000                    NOP     0

     1111    13888    3               substr(TEXTC.TEXT,CHARPOS) =  VM_CHAR_DELIVERY.NAME#;

  13888 13 000445   200004 470500                    LDP0    @TEXTC,,AUTO
        13 000446   000100 101500                    MRL     fill='000'O
        13 000447   000000 000001                    ADSC9   0,,PR0                   cn=0,n=1
        13 000450   200020 000002                    ADSC9   END3+1,,AUTO             cn=0,n=2
        13 000451   200020 220100                    LDX0    END3+1,,AUTO
        13 000452   200005 471500                    LDP1    @CHARPOS,,AUTO
        13 000453   000000 636010                    EAQ     0,X0
        13 000454   000022 772000                    QRL     18
        13 000455   100000 136100                    SBLQ    0,,PR1
        13 000456   100000 235100                    LDA     0,,PR1
        13 000457   000000 621006                    EAX1    0,QL
        13 000460   040145 100400                    MLR     fill='040'O
        13 000461   000010 200017 11                 ADSC9   VM_CHAR_DELIVERY         cn=1,n=15
        13 000462   000000 200011                    ADSC9   0,A,PR0                  cn=1,n=*X1

     1112    13889    3               CHARPOS = CHARPOS + VM_CHAR_DELIVERY.L#;

  13889 13 000463   000010 236000 11                 LDQ     VM_CHAR_DELIVERY
        13 000464   000033 772000                    QRL     27
        13 000465   100000 036100                    ADLQ    0,,PR1
        13 000466   100000 756100                    STQ     0,,PR1
        13 000467   002226 710000 13                 TRA     s:14503

     1113    13890    3           CASE (%SEL_ERROR);

     1114    13891                    %INIT_STR (CODE=E_CHAR_ERROR, STR=VM_CHAR_ERROR, TEST=YES);

  13898 13 000470   040000 106400                    CMPC    fill='040'O
        13 000471   000020 200017 11                 ADSC9   VM_CHAR_ERROR            cn=1,n=15
        13 000472   000003 000001 14                 ADSC9   3                        cn=0,n=1
PL6.E3A0      #004=VMS$FMT_EXP File=VMS$SELECT.:VMB6TSI                          WED 08/20/97 15:25 Page:193
        13 000473   000500 601000 13                 TNZ     s:13914

  13900 13 000474   000017 630400 14                 EPPR0   15
        13 000475   000004 631400 14                 EPPR1   4
        13 000476   000000 701000 xent               TSX1    VMD$ERRMSG
        13 000477   000000 011000                    NOP     0

     1115    13914    3               substr(TEXTC.TEXT,CHARPOS) =  VM_CHAR_ERROR.NAME#;

  13914 13 000500   200004 470500                    LDP0    @TEXTC,,AUTO
        13 000501   000100 101500                    MRL     fill='000'O
        13 000502   000000 000001                    ADSC9   0,,PR0                   cn=0,n=1
        13 000503   200020 000002                    ADSC9   END3+1,,AUTO             cn=0,n=2
        13 000504   200020 220100                    LDX0    END3+1,,AUTO
        13 000505   200005 471500                    LDP1    @CHARPOS,,AUTO
        13 000506   000000 636010                    EAQ     0,X0
        13 000507   000022 772000                    QRL     18
        13 000510   100000 136100                    SBLQ    0,,PR1
        13 000511   100000 235100                    LDA     0,,PR1
        13 000512   000000 621006                    EAX1    0,QL
        13 000513   040145 100400                    MLR     fill='040'O
        13 000514   000020 200017 11                 ADSC9   VM_CHAR_ERROR            cn=1,n=15
        13 000515   000000 200011                    ADSC9   0,A,PR0                  cn=1,n=*X1

     1116    13915    3               CHARPOS = CHARPOS + VM_CHAR_ERROR.L#;

  13915 13 000516   000020 236000 11                 LDQ     VM_CHAR_ERROR
        13 000517   000033 772000                    QRL     27
        13 000520   100000 036100                    ADLQ    0,,PR1
        13 000521   100000 756100                    STQ     0,,PR1
        13 000522   002226 710000 13                 TRA     s:14503

     1117    13916    3           CASE (%SEL_EXAMINED);

     1118    13917                    %INIT_STR (CODE=E_CHAR_EXAMINED, STR=VM_CHAR_EXAMINED, TEST=YES);

  13924 13 000523   040000 106400                    CMPC    fill='040'O
PL6.E3A0      #004=VMS$FMT_EXP File=VMS$SELECT.:VMB6TSI                          WED 08/20/97 15:25 Page:194
        13 000524   000134 200017 11                 ADSC9   VM_CHAR_EXAMINED         cn=1,n=15
        13 000525   000003 000001 14                 ADSC9   3                        cn=0,n=1
        13 000526   000533 601000 13                 TNZ     s:13940

  13926 13 000527   000021 630400 14                 EPPR0   17
        13 000530   000004 631400 14                 EPPR1   4
        13 000531   000000 701000 xent               TSX1    VMD$ERRMSG
        13 000532   000000 011000                    NOP     0

     1119    13940    3               substr(TEXTC.TEXT,CHARPOS) =  VM_CHAR_EXAMINED.NAME#;

  13940 13 000533   200004 470500                    LDP0    @TEXTC,,AUTO
        13 000534   000100 101500                    MRL     fill='000'O
        13 000535   000000 000001                    ADSC9   0,,PR0                   cn=0,n=1
        13 000536   200020 000002                    ADSC9   END3+1,,AUTO             cn=0,n=2
        13 000537   200020 220100                    LDX0    END3+1,,AUTO
        13 000540   200005 471500                    LDP1    @CHARPOS,,AUTO
        13 000541   000000 636010                    EAQ     0,X0
        13 000542   000022 772000                    QRL     18
        13 000543   100000 136100                    SBLQ    0,,PR1
        13 000544   100000 235100                    LDA     0,,PR1
        13 000545   000000 621006                    EAX1    0,QL
        13 000546   040145 100400                    MLR     fill='040'O
        13 000547   000134 200017 11                 ADSC9   VM_CHAR_EXAMINED         cn=1,n=15
        13 000550   000000 200011                    ADSC9   0,A,PR0                  cn=1,n=*X1

     1120    13941    3               CHARPOS = CHARPOS + VM_CHAR_EXAMINED.L#;

  13941 13 000551   000134 236000 11                 LDQ     VM_CHAR_EXAMINED
        13 000552   000033 772000                    QRL     27
        13 000553   100000 036100                    ADLQ    0,,PR1
        13 000554   100000 756100                    STQ     0,,PR1
        13 000555   002226 710000 13                 TRA     s:14503

     1121    13942    3           CASE (%SEL_FCOPY);

     1122    13943                    %INIT_STR (CODE=E_CHAR_FCOPY, STR=VM_CHAR_FCOPY, TEST=YES);
PL6.E3A0      #004=VMS$FMT_EXP File=VMS$SELECT.:VMB6TSI                          WED 08/20/97 15:25 Page:195

  13950 13 000556   040000 106400                    CMPC    fill='040'O
        13 000557   000024 200017 11                 ADSC9   VM_CHAR_FCOPY            cn=1,n=15
        13 000560   000003 000001 14                 ADSC9   3                        cn=0,n=1
        13 000561   000566 601000 13                 TNZ     s:13966

  13952 13 000562   000023 630400 14                 EPPR0   19
        13 000563   000004 631400 14                 EPPR1   4
        13 000564   000000 701000 xent               TSX1    VMD$ERRMSG
        13 000565   000000 011000                    NOP     0

     1123    13966    3               substr(TEXTC.TEXT,CHARPOS) =  VM_CHAR_FCOPY.NAME#;

  13966 13 000566   200004 470500                    LDP0    @TEXTC,,AUTO
        13 000567   000100 101500                    MRL     fill='000'O
        13 000570   000000 000001                    ADSC9   0,,PR0                   cn=0,n=1
        13 000571   200020 000002                    ADSC9   END3+1,,AUTO             cn=0,n=2
        13 000572   200020 220100                    LDX0    END3+1,,AUTO
        13 000573   200005 471500                    LDP1    @CHARPOS,,AUTO
        13 000574   000000 636010                    EAQ     0,X0
        13 000575   000022 772000                    QRL     18
        13 000576   100000 136100                    SBLQ    0,,PR1
        13 000577   100000 235100                    LDA     0,,PR1
        13 000600   000000 621006                    EAX1    0,QL
        13 000601   040145 100400                    MLR     fill='040'O
        13 000602   000024 200017 11                 ADSC9   VM_CHAR_FCOPY            cn=1,n=15
        13 000603   000000 200011                    ADSC9   0,A,PR0                  cn=1,n=*X1

     1124    13967    3               CHARPOS = CHARPOS + VM_CHAR_FCOPY.L#;

  13967 13 000604   000024 236000 11                 LDQ     VM_CHAR_FCOPY
        13 000605   000033 772000                    QRL     27
        13 000606   100000 036100                    ADLQ    0,,PR1
        13 000607   100000 756100                    STQ     0,,PR1
        13 000610   002226 710000 13                 TRA     s:14503

     1125    13968    3           CASE (%SEL_FWD);
PL6.E3A0      #004=VMS$FMT_EXP File=VMS$SELECT.:VMB6TSI                          WED 08/20/97 15:25 Page:196

     1126    13969                    %INIT_STR (CODE=E_CHAR_FWD, STR=VM_CHAR_FWD, TEST=YES);

  13976 13 000611   040000 106400                    CMPC    fill='040'O
        13 000612   000104 200017 11                 ADSC9   VM_CHAR_FWD              cn=1,n=15
        13 000613   000003 000001 14                 ADSC9   3                        cn=0,n=1
        13 000614   000621 601000 13                 TNZ     s:13992

  13978 13 000615   000025 630400 14                 EPPR0   21
        13 000616   000004 631400 14                 EPPR1   4
        13 000617   000000 701000 xent               TSX1    VMD$ERRMSG
        13 000620   000000 011000                    NOP     0

     1127    13992    3               substr(TEXTC.TEXT,CHARPOS) =  VM_CHAR_FWD.NAME#;

  13992 13 000621   200004 470500                    LDP0    @TEXTC,,AUTO
        13 000622   000100 101500                    MRL     fill='000'O
        13 000623   000000 000001                    ADSC9   0,,PR0                   cn=0,n=1
        13 000624   200020 000002                    ADSC9   END3+1,,AUTO             cn=0,n=2
        13 000625   200020 220100                    LDX0    END3+1,,AUTO
        13 000626   200005 471500                    LDP1    @CHARPOS,,AUTO
        13 000627   000000 636010                    EAQ     0,X0
        13 000630   000022 772000                    QRL     18
        13 000631   100000 136100                    SBLQ    0,,PR1
        13 000632   100000 235100                    LDA     0,,PR1
        13 000633   000000 621006                    EAX1    0,QL
        13 000634   040145 100400                    MLR     fill='040'O
        13 000635   000104 200017 11                 ADSC9   VM_CHAR_FWD              cn=1,n=15
        13 000636   000000 200011                    ADSC9   0,A,PR0                  cn=1,n=*X1

     1128    13993    3               CHARPOS = CHARPOS + VM_CHAR_FWD.L#;

  13993 13 000637   000104 236000 11                 LDQ     VM_CHAR_FWD
        13 000640   000033 772000                    QRL     27
        13 000641   100000 036100                    ADLQ    0,,PR1
        13 000642   100000 756100                    STQ     0,,PR1
        13 000643   002226 710000 13                 TRA     s:14503
PL6.E3A0      #004=VMS$FMT_EXP File=VMS$SELECT.:VMB6TSI                          WED 08/20/97 15:25 Page:197

     1129    13994    3           CASE (%SEL_MARKED);

     1130    13995                    %INIT_STR (CODE=E_CHAR_MARKED, STR=VM_CHAR_MARKED, TEST=YES);

  14002 13 000644   040000 106400                    CMPC    fill='040'O
        13 000645   000034 200017 11                 ADSC9   VM_CHAR_MARKED           cn=1,n=15
        13 000646   000003 000001 14                 ADSC9   3                        cn=0,n=1
        13 000647   000654 601000 13                 TNZ     s:14018

  14004 13 000650   000027 630400 14                 EPPR0   23
        13 000651   000004 631400 14                 EPPR1   4
        13 000652   000000 701000 xent               TSX1    VMD$ERRMSG
        13 000653   000000 011000                    NOP     0

     1131    14018    3               substr(TEXTC.TEXT,CHARPOS) = VM_CHAR_MARKED.NAME#;

  14018 13 000654   200004 470500                    LDP0    @TEXTC,,AUTO
        13 000655   000100 101500                    MRL     fill='000'O
        13 000656   000000 000001                    ADSC9   0,,PR0                   cn=0,n=1
        13 000657   200020 000002                    ADSC9   END3+1,,AUTO             cn=0,n=2
        13 000660   200020 220100                    LDX0    END3+1,,AUTO
        13 000661   200005 471500                    LDP1    @CHARPOS,,AUTO
        13 000662   000000 636010                    EAQ     0,X0
        13 000663   000022 772000                    QRL     18
        13 000664   100000 136100                    SBLQ    0,,PR1
        13 000665   100000 235100                    LDA     0,,PR1
        13 000666   000000 621006                    EAX1    0,QL
        13 000667   040145 100400                    MLR     fill='040'O
        13 000670   000034 200017 11                 ADSC9   VM_CHAR_MARKED           cn=1,n=15
        13 000671   000000 200011                    ADSC9   0,A,PR0                  cn=1,n=*X1

     1132    14019    3               CHARPOS = CHARPOS + VM_CHAR_MARKED.L#;

  14019 13 000672   000034 236000 11                 LDQ     VM_CHAR_MARKED
        13 000673   000033 772000                    QRL     27
        13 000674   100000 036100                    ADLQ    0,,PR1
PL6.E3A0      #004=VMS$FMT_EXP File=VMS$SELECT.:VMB6TSI                          WED 08/20/97 15:25 Page:198
        13 000675   100000 756100                    STQ     0,,PR1
        13 000676   002226 710000 13                 TRA     s:14503

     1133    14020    3           CASE (%SEL_NEW);

     1134    14021                    %INIT_STR (CODE=E_CHAR_NEW, STR=VM_CHAR_NEW, TEST=YES);

  14028 13 000677   040000 106400                    CMPC    fill='040'O
        13 000700   000040 200017 11                 ADSC9   VM_CHAR_NEW              cn=1,n=15
        13 000701   000003 000001 14                 ADSC9   3                        cn=0,n=1
        13 000702   000707 601000 13                 TNZ     s:14044

  14030 13 000703   000031 630400 14                 EPPR0   25
        13 000704   000004 631400 14                 EPPR1   4
        13 000705   000000 701000 xent               TSX1    VMD$ERRMSG
        13 000706   000000 011000                    NOP     0

     1135    14044    3               substr(TEXTC.TEXT,CHARPOS) =  VM_CHAR_NEW.NAME#;

  14044 13 000707   200004 470500                    LDP0    @TEXTC,,AUTO
        13 000710   000100 101500                    MRL     fill='000'O
        13 000711   000000 000001                    ADSC9   0,,PR0                   cn=0,n=1
        13 000712   200020 000002                    ADSC9   END3+1,,AUTO             cn=0,n=2
        13 000713   200020 220100                    LDX0    END3+1,,AUTO
        13 000714   200005 471500                    LDP1    @CHARPOS,,AUTO
        13 000715   000000 636010                    EAQ     0,X0
        13 000716   000022 772000                    QRL     18
        13 000717   100000 136100                    SBLQ    0,,PR1
        13 000720   100000 235100                    LDA     0,,PR1
        13 000721   000000 621006                    EAX1    0,QL
        13 000722   040145 100400                    MLR     fill='040'O
        13 000723   000040 200017 11                 ADSC9   VM_CHAR_NEW              cn=1,n=15
        13 000724   000000 200011                    ADSC9   0,A,PR0                  cn=1,n=*X1

     1136    14045    3               CHARPOS = CHARPOS + VM_CHAR_NEW.L#;

  14045 13 000725   000040 236000 11                 LDQ     VM_CHAR_NEW
PL6.E3A0      #004=VMS$FMT_EXP File=VMS$SELECT.:VMB6TSI                          WED 08/20/97 15:25 Page:199
        13 000726   000033 772000                    QRL     27
        13 000727   100000 036100                    ADLQ    0,,PR1
        13 000730   100000 756100                    STQ     0,,PR1
        13 000731   002226 710000 13                 TRA     s:14503

     1137    14046    3           CASE (%SEL_NEXT);

     1138    14047                    %INIT_STR (CODE=E_CHAR_NEXT, STR=VM_CHAR_NEXT, TEST=YES);

  14054 13 000732   040000 106400                    CMPC    fill='040'O
        13 000733   000120 200017 11                 ADSC9   VM_CHAR_NEXT             cn=1,n=15
        13 000734   000003 000001 14                 ADSC9   3                        cn=0,n=1
        13 000735   000742 601000 13                 TNZ     s:14070

  14056 13 000736   000033 630400 14                 EPPR0   27
        13 000737   000004 631400 14                 EPPR1   4
        13 000740   000000 701000 xent               TSX1    VMD$ERRMSG
        13 000741   000000 011000                    NOP     0

     1139    14070    3               substr(TEXTC.TEXT,CHARPOS) =  VM_CHAR_NEXT.NAME#;

  14070 13 000742   200004 470500                    LDP0    @TEXTC,,AUTO
        13 000743   000100 101500                    MRL     fill='000'O
        13 000744   000000 000001                    ADSC9   0,,PR0                   cn=0,n=1
        13 000745   200020 000002                    ADSC9   END3+1,,AUTO             cn=0,n=2
        13 000746   200020 220100                    LDX0    END3+1,,AUTO
        13 000747   200005 471500                    LDP1    @CHARPOS,,AUTO
        13 000750   000000 636010                    EAQ     0,X0
        13 000751   000022 772000                    QRL     18
        13 000752   100000 136100                    SBLQ    0,,PR1
        13 000753   100000 235100                    LDA     0,,PR1
        13 000754   000000 621006                    EAX1    0,QL
        13 000755   040145 100400                    MLR     fill='040'O
        13 000756   000120 200017 11                 ADSC9   VM_CHAR_NEXT             cn=1,n=15
        13 000757   000000 200011                    ADSC9   0,A,PR0                  cn=1,n=*X1

     1140    14071    3               CHARPOS = CHARPOS + VM_CHAR_NEXT.L#;
PL6.E3A0      #004=VMS$FMT_EXP File=VMS$SELECT.:VMB6TSI                          WED 08/20/97 15:25 Page:200

  14071 13 000760   000120 236000 11                 LDQ     VM_CHAR_NEXT
        13 000761   000033 772000                    QRL     27
        13 000762   100000 036100                    ADLQ    0,,PR1
        13 000763   100000 756100                    STQ     0,,PR1
        13 000764   002226 710000 13                 TRA     s:14503

     1141    14072    3           CASE (%SEL_PREVIOUS);

     1142    14073                    %INIT_STR (CODE=E_CHAR_PREVIOUS, STR=VM_CHAR_PREVIOUS, TEST=YES);

  14080 13 000765   040000 106400                    CMPC    fill='040'O
        13 000766   000124 200017 11                 ADSC9   VM_CHAR_PREVIOUS         cn=1,n=15
        13 000767   000003 000001 14                 ADSC9   3                        cn=0,n=1
        13 000770   000775 601000 13                 TNZ     s:14096

  14082 13 000771   000035 630400 14                 EPPR0   29
        13 000772   000004 631400 14                 EPPR1   4
        13 000773   000000 701000 xent               TSX1    VMD$ERRMSG
        13 000774   000000 011000                    NOP     0

     1143    14096    3               substr(TEXTC.TEXT,CHARPOS) =  VM_CHAR_PREVIOUS.NAME#;

  14096 13 000775   200004 470500                    LDP0    @TEXTC,,AUTO
        13 000776   000100 101500                    MRL     fill='000'O
        13 000777   000000 000001                    ADSC9   0,,PR0                   cn=0,n=1
        13 001000   200020 000002                    ADSC9   END3+1,,AUTO             cn=0,n=2
        13 001001   200020 220100                    LDX0    END3+1,,AUTO
        13 001002   200005 471500                    LDP1    @CHARPOS,,AUTO
        13 001003   000000 636010                    EAQ     0,X0
        13 001004   000022 772000                    QRL     18
        13 001005   100000 136100                    SBLQ    0,,PR1
        13 001006   100000 235100                    LDA     0,,PR1
        13 001007   000000 621006                    EAX1    0,QL
        13 001010   040145 100400                    MLR     fill='040'O
        13 001011   000124 200017 11                 ADSC9   VM_CHAR_PREVIOUS         cn=1,n=15
        13 001012   000000 200011                    ADSC9   0,A,PR0                  cn=1,n=*X1
PL6.E3A0      #004=VMS$FMT_EXP File=VMS$SELECT.:VMB6TSI                          WED 08/20/97 15:25 Page:201

     1144    14097    3               CHARPOS = CHARPOS + VM_CHAR_PREVIOUS.L#;

  14097 13 001013   000124 236000 11                 LDQ     VM_CHAR_PREVIOUS
        13 001014   000033 772000                    QRL     27
        13 001015   100000 036100                    ADLQ    0,,PR1
        13 001016   100000 756100                    STQ     0,,PR1
        13 001017   002226 710000 13                 TRA     s:14503

     1145    14098    3           CASE (%SEL_OLD);

     1146    14099                    %INIT_STR (CODE=E_CHAR_OLD, STR=VM_CHAR_OLD, TEST=YES);

  14106 13 001020   040000 106400                    CMPC    fill='040'O
        13 001021   000044 200017 11                 ADSC9   VM_CHAR_OLD              cn=1,n=15
        13 001022   000003 000001 14                 ADSC9   3                        cn=0,n=1
        13 001023   001030 601000 13                 TNZ     s:14122

  14108 13 001024   000037 630400 14                 EPPR0   31
        13 001025   000004 631400 14                 EPPR1   4
        13 001026   000000 701000 xent               TSX1    VMD$ERRMSG
        13 001027   000000 011000                    NOP     0

     1147    14122    3               substr(TEXTC.TEXT,CHARPOS) = VM_CHAR_OLD.NAME#;

  14122 13 001030   200004 470500                    LDP0    @TEXTC,,AUTO
        13 001031   000100 101500                    MRL     fill='000'O
        13 001032   000000 000001                    ADSC9   0,,PR0                   cn=0,n=1
        13 001033   200020 000002                    ADSC9   END3+1,,AUTO             cn=0,n=2
        13 001034   200020 220100                    LDX0    END3+1,,AUTO
        13 001035   200005 471500                    LDP1    @CHARPOS,,AUTO
        13 001036   000000 636010                    EAQ     0,X0
        13 001037   000022 772000                    QRL     18
        13 001040   100000 136100                    SBLQ    0,,PR1
        13 001041   100000 235100                    LDA     0,,PR1
        13 001042   000000 621006                    EAX1    0,QL
        13 001043   040145 100400                    MLR     fill='040'O
PL6.E3A0      #004=VMS$FMT_EXP File=VMS$SELECT.:VMB6TSI                          WED 08/20/97 15:25 Page:202
        13 001044   000044 200017 11                 ADSC9   VM_CHAR_OLD              cn=1,n=15
        13 001045   000000 200011                    ADSC9   0,A,PR0                  cn=1,n=*X1

     1148    14123    3               CHARPOS = CHARPOS + VM_CHAR_OLD.L#;

  14123 13 001046   000044 236000 11                 LDQ     VM_CHAR_OLD
        13 001047   000033 772000                    QRL     27
        13 001050   100000 036100                    ADLQ    0,,PR1
        13 001051   100000 756100                    STQ     0,,PR1
        13 001052   002226 710000 13                 TRA     s:14503

     1149    14124    3           CASE (%SEL_UNEXAMINED);

     1150    14125                    %INIT_STR (CODE=E_CHAR_UNEXAMINED, STR=VM_CHAR_UNEXAMINED, TEST=YES);

  14132 13 001053   040000 106400                    CMPC    fill='040'O
        13 001054   000130 200017 11                 ADSC9   VM_CHAR_UNEXAMINED       cn=1,n=15
        13 001055   000003 000001 14                 ADSC9   3                        cn=0,n=1
        13 001056   001063 601000 13                 TNZ     s:14148

  14134 13 001057   000041 630400 14                 EPPR0   33
        13 001060   000004 631400 14                 EPPR1   4
        13 001061   000000 701000 xent               TSX1    VMD$ERRMSG
        13 001062   000000 011000                    NOP     0

     1151    14148    3               substr(TEXTC.TEXT,CHARPOS) =  VM_CHAR_UNEXAMINED.NAME#;

  14148 13 001063   200004 470500                    LDP0    @TEXTC,,AUTO
        13 001064   000100 101500                    MRL     fill='000'O
        13 001065   000000 000001                    ADSC9   0,,PR0                   cn=0,n=1
        13 001066   200020 000002                    ADSC9   END3+1,,AUTO             cn=0,n=2
        13 001067   200020 220100                    LDX0    END3+1,,AUTO
        13 001070   200005 471500                    LDP1    @CHARPOS,,AUTO
        13 001071   000000 636010                    EAQ     0,X0
        13 001072   000022 772000                    QRL     18
        13 001073   100000 136100                    SBLQ    0,,PR1
        13 001074   100000 235100                    LDA     0,,PR1
PL6.E3A0      #004=VMS$FMT_EXP File=VMS$SELECT.:VMB6TSI                          WED 08/20/97 15:25 Page:203
        13 001075   000000 621006                    EAX1    0,QL
        13 001076   040145 100400                    MLR     fill='040'O
        13 001077   000130 200017 11                 ADSC9   VM_CHAR_UNEXAMINED       cn=1,n=15
        13 001100   000000 200011                    ADSC9   0,A,PR0                  cn=1,n=*X1

     1152    14149    3               CHARPOS = CHARPOS + VM_CHAR_UNEXAMINED.L#;

  14149 13 001101   000130 236000 11                 LDQ     VM_CHAR_UNEXAMINED
        13 001102   000033 772000                    QRL     27
        13 001103   100000 036100                    ADLQ    0,,PR1
        13 001104   100000 756100                    STQ     0,,PR1
        13 001105   002226 710000 13                 TRA     s:14503

     1153    14150    3           CASE (%SEL_AND);

     1154    14151                    %INIT_STR (CODE=E_CHAR_AND, STR=VM_CHAR_AND, TEST=YES);

  14158 13 001106   040000 106400                    CMPC    fill='040'O
        13 001107   000050 200017 11                 ADSC9   VM_CHAR_AND              cn=1,n=15
        13 001110   000003 000001 14                 ADSC9   3                        cn=0,n=1
        13 001111   001116 601000 13                 TNZ     s:14174

  14160 13 001112   000043 630400 14                 EPPR0   35
        13 001113   000004 631400 14                 EPPR1   4
        13 001114   000000 701000 xent               TSX1    VMD$ERRMSG
        13 001115   000000 011000                    NOP     0

     1155    14174    3               substr(TEXTC.TEXT,CHARPOS) =  VM_CHAR_AND.NAME#;

  14174 13 001116   200004 470500                    LDP0    @TEXTC,,AUTO
        13 001117   000100 101500                    MRL     fill='000'O
        13 001120   000000 000001                    ADSC9   0,,PR0                   cn=0,n=1
        13 001121   200020 000002                    ADSC9   END3+1,,AUTO             cn=0,n=2
        13 001122   200020 220100                    LDX0    END3+1,,AUTO
        13 001123   200005 471500                    LDP1    @CHARPOS,,AUTO
        13 001124   000000 636010                    EAQ     0,X0
        13 001125   000022 772000                    QRL     18
PL6.E3A0      #004=VMS$FMT_EXP File=VMS$SELECT.:VMB6TSI                          WED 08/20/97 15:25 Page:204
        13 001126   100000 136100                    SBLQ    0,,PR1
        13 001127   100000 235100                    LDA     0,,PR1
        13 001130   000000 621006                    EAX1    0,QL
        13 001131   040145 100400                    MLR     fill='040'O
        13 001132   000050 200017 11                 ADSC9   VM_CHAR_AND              cn=1,n=15
        13 001133   000000 200011                    ADSC9   0,A,PR0                  cn=1,n=*X1

     1156    14175    3               CHARPOS = CHARPOS + VM_CHAR_AND.L#;

  14175 13 001134   000050 236000 11                 LDQ     VM_CHAR_AND
        13 001135   000033 772000                    QRL     27
        13 001136   100000 036100                    ADLQ    0,,PR1
        13 001137   100000 756100                    STQ     0,,PR1
        13 001140   002226 710000 13                 TRA     s:14503

     1157    14176    3           CASE (%SEL_OR);

     1158    14177                    %INIT_STR (CODE=E_CHAR_OR, STR=VM_CHAR_OR, TEST=YES);

  14184 13 001141   040000 106400                    CMPC    fill='040'O
        13 001142   000054 200017 11                 ADSC9   VM_CHAR_OR               cn=1,n=15
        13 001143   000003 000001 14                 ADSC9   3                        cn=0,n=1
        13 001144   001151 601000 13                 TNZ     s:14200

  14186 13 001145   000045 630400 14                 EPPR0   37
        13 001146   000004 631400 14                 EPPR1   4
        13 001147   000000 701000 xent               TSX1    VMD$ERRMSG
        13 001150   000000 011000                    NOP     0

     1159    14200    3               substr(TEXTC.TEXT,CHARPOS) = VM_CHAR_OR.NAME#;

  14200 13 001151   200004 470500                    LDP0    @TEXTC,,AUTO
        13 001152   000100 101500                    MRL     fill='000'O
        13 001153   000000 000001                    ADSC9   0,,PR0                   cn=0,n=1
        13 001154   200020 000002                    ADSC9   END3+1,,AUTO             cn=0,n=2
        13 001155   200020 220100                    LDX0    END3+1,,AUTO
        13 001156   200005 471500                    LDP1    @CHARPOS,,AUTO
PL6.E3A0      #004=VMS$FMT_EXP File=VMS$SELECT.:VMB6TSI                          WED 08/20/97 15:25 Page:205
        13 001157   000000 636010                    EAQ     0,X0
        13 001160   000022 772000                    QRL     18
        13 001161   100000 136100                    SBLQ    0,,PR1
        13 001162   100000 235100                    LDA     0,,PR1
        13 001163   000000 621006                    EAX1    0,QL
        13 001164   040145 100400                    MLR     fill='040'O
        13 001165   000054 200017 11                 ADSC9   VM_CHAR_OR               cn=1,n=15
        13 001166   000000 200011                    ADSC9   0,A,PR0                  cn=1,n=*X1

     1160    14201    3               CHARPOS = CHARPOS + VM_CHAR_OR.L#;

  14201 13 001167   000054 236000 11                 LDQ     VM_CHAR_OR
        13 001170   000033 772000                    QRL     27
        13 001171   100000 036100                    ADLQ    0,,PR1
        13 001172   100000 756100                    STQ     0,,PR1
        13 001173   002226 710000 13                 TRA     s:14503

     1161    14202    3           CASE (%SEL_NOT);

     1162    14203                    %INIT_STR (CODE=E_CHAR_NOT, STR=VM_CHAR_NOT, TEST=YES);

  14210 13 001174   040000 106400                    CMPC    fill='040'O
        13 001175   000060 200017 11                 ADSC9   VM_CHAR_NOT              cn=1,n=15
        13 001176   000003 000001 14                 ADSC9   3                        cn=0,n=1
        13 001177   001204 601000 13                 TNZ     s:14226

  14212 13 001200   000047 630400 14                 EPPR0   39
        13 001201   000004 631400 14                 EPPR1   4
        13 001202   000000 701000 xent               TSX1    VMD$ERRMSG
        13 001203   000000 011000                    NOP     0

     1163    14226    3               substr(TEXTC.TEXT,CHARPOS) = VM_CHAR_NOT.NAME#;

  14226 13 001204   200004 470500                    LDP0    @TEXTC,,AUTO
        13 001205   000100 101500                    MRL     fill='000'O
        13 001206   000000 000001                    ADSC9   0,,PR0                   cn=0,n=1
        13 001207   200020 000002                    ADSC9   END3+1,,AUTO             cn=0,n=2
PL6.E3A0      #004=VMS$FMT_EXP File=VMS$SELECT.:VMB6TSI                          WED 08/20/97 15:25 Page:206
        13 001210   200020 220100                    LDX0    END3+1,,AUTO
        13 001211   200005 471500                    LDP1    @CHARPOS,,AUTO
        13 001212   000000 636010                    EAQ     0,X0
        13 001213   000022 772000                    QRL     18
        13 001214   100000 136100                    SBLQ    0,,PR1
        13 001215   100000 235100                    LDA     0,,PR1
        13 001216   000000 621006                    EAX1    0,QL
        13 001217   040145 100400                    MLR     fill='040'O
        13 001220   000060 200017 11                 ADSC9   VM_CHAR_NOT              cn=1,n=15
        13 001221   000000 200011                    ADSC9   0,A,PR0                  cn=1,n=*X1

     1164    14227    3               CHARPOS = CHARPOS + VM_CHAR_NOT.L#;

  14227 13 001222   000060 236000 11                 LDQ     VM_CHAR_NOT
        13 001223   000033 772000                    QRL     27
        13 001224   100000 036100                    ADLQ    0,,PR1
        13 001225   100000 756100                    STQ     0,,PR1
        13 001226   002226 710000 13                 TRA     s:14503

     1165    14228    3           CASE (%SEL_RR);

     1166    14229                    %INIT_STR (CODE=E_CHAR_RR, STR=VM_CHAR_RR, TEST=YES);

  14236 13 001227   040000 106400                    CMPC    fill='040'O
        13 001230   000140 200017 11                 ADSC9   VM_CHAR_RR               cn=1,n=15
        13 001231   000003 000001 14                 ADSC9   3                        cn=0,n=1
        13 001232   001237 601000 13                 TNZ     s:14252

  14238 13 001233   000051 630400 14                 EPPR0   41
        13 001234   000004 631400 14                 EPPR1   4
        13 001235   000000 701000 xent               TSX1    VMD$ERRMSG
        13 001236   000000 011000                    NOP     0

     1167    14252    3               substr(TEXTC.TEXT,CHARPOS) = VM_CHAR_RR.NAME#;

  14252 13 001237   200004 470500                    LDP0    @TEXTC,,AUTO
        13 001240   000100 101500                    MRL     fill='000'O
PL6.E3A0      #004=VMS$FMT_EXP File=VMS$SELECT.:VMB6TSI                          WED 08/20/97 15:25 Page:207
        13 001241   000000 000001                    ADSC9   0,,PR0                   cn=0,n=1
        13 001242   200020 000002                    ADSC9   END3+1,,AUTO             cn=0,n=2
        13 001243   200020 220100                    LDX0    END3+1,,AUTO
        13 001244   200005 471500                    LDP1    @CHARPOS,,AUTO
        13 001245   000000 636010                    EAQ     0,X0
        13 001246   000022 772000                    QRL     18
        13 001247   100000 136100                    SBLQ    0,,PR1
        13 001250   100000 235100                    LDA     0,,PR1
        13 001251   000000 621006                    EAX1    0,QL
        13 001252   040145 100400                    MLR     fill='040'O
        13 001253   000140 200017 11                 ADSC9   VM_CHAR_RR               cn=1,n=15
        13 001254   000000 200011                    ADSC9   0,A,PR0                  cn=1,n=*X1

     1168    14253    3               CHARPOS = CHARPOS + VM_CHAR_RR.L#;

  14253 13 001255   000140 236000 11                 LDQ     VM_CHAR_RR
        13 001256   000033 772000                    QRL     27
        13 001257   100000 036100                    ADLQ    0,,PR1
        13 001260   100000 756100                    STQ     0,,PR1
        13 001261   002226 710000 13                 TRA     s:14503

     1169    14254    3           CASE (%SEL_FROM);

     1170    14255                    %INIT_STR (CODE=E_CHAR_FROM, STR=VM_CHAR_FROM, TEST=YES);

  14262 13 001262   040000 106400                    CMPC    fill='040'O
        13 001263   000030 200017 11                 ADSC9   VM_CHAR_FROM             cn=1,n=15
        13 001264   000003 000001 14                 ADSC9   3                        cn=0,n=1
        13 001265   001272 601000 13                 TNZ     s:14278

  14264 13 001266   000053 630400 14                 EPPR0   43
        13 001267   000004 631400 14                 EPPR1   4
        13 001270   000000 701000 xent               TSX1    VMD$ERRMSG
        13 001271   000000 011000                    NOP     0

     1171    14278    3              call insert(TEXTC.TEXT, CHARPOS,,substr(VM_CHAR_FROM.NAME#,,VM_CHAR_FROM
             14278                        .L#));
PL6.E3A0      #004=VMS$FMT_EXP File=VMS$SELECT.:VMB6TSI                          WED 08/20/97 15:25 Page:208

  14278 13 001272   200004 470500                    LDP0    @TEXTC,,AUTO
        13 001273   000100 101500                    MRL     fill='000'O
        13 001274   000000 000001                    ADSC9   0,,PR0                   cn=0,n=1
        13 001275   200020 000002                    ADSC9   END3+1,,AUTO             cn=0,n=2
        13 001276   200020 220100                    LDX0    END3+1,,AUTO
        13 001277   000030 236000 11                 LDQ     VM_CHAR_FROM
        13 001300   000033 772000                    QRL     27
        13 001301   200005 471500                    LDP1    @CHARPOS,,AUTO
        13 001302   000000 621006                    EAX1    0,QL
        13 001303   000000 636010                    EAQ     0,X0
        13 001304   000022 772000                    QRL     18
        13 001305   100000 136100                    SBLQ    0,,PR1
        13 001306   100000 235100                    LDA     0,,PR1
        13 001307   000000 622006                    EAX2    0,QL
        13 001310   040145 100440                    MLR     fill='040'O
        13 001311   000030 200011 11                 ADSC9   VM_CHAR_FROM             cn=1,n=*X1
        13 001312   000000 200012                    ADSC9   0,A,PR0                  cn=1,n=*X2

     1172    14279    3               CHARPOS = CHARPOS + VM_CHAR_FROM.L# ;

  14279 13 001313   000030 236000 11                 LDQ     VM_CHAR_FROM
        13 001314   000033 772000                    QRL     27
        13 001315   100000 036100                    ADLQ    0,,PR1
        13 001316   100000 756100                    STQ     0,,PR1

     1173    14280    3               GOTO CMPR_STR;

  14280 13 001317   001507 710000 13                 TRA     CMPR_STR

     1174    14281    3           CASE (%SEL_REFERENCE);

     1175    14282                    %INIT_STR (CODE=E_CHAR_REFERENCE, STR=VM_CHAR_REFERENCE, TEST=YES);

  14289 13 001320   040000 106400                    CMPC    fill='040'O
        13 001321   000064 200017 11                 ADSC9   VM_CHAR_REFERENCE        cn=1,n=15
        13 001322   000003 000001 14                 ADSC9   3                        cn=0,n=1
PL6.E3A0      #004=VMS$FMT_EXP File=VMS$SELECT.:VMB6TSI                          WED 08/20/97 15:25 Page:209
        13 001323   001330 601000 13                 TNZ     s:14305

  14291 13 001324   000055 630400 14                 EPPR0   45
        13 001325   000004 631400 14                 EPPR1   4
        13 001326   000000 701000 xent               TSX1    VMD$ERRMSG
        13 001327   000000 011000                    NOP     0

     1176    14305    3               call insert(TEXTC.TEXT,CHARPOS,,substr(VM_CHAR_REFERENCE.NAME#,,
             14305                        VM_CHAR_REFERENCE.L#));

  14305 13 001330   200004 470500                    LDP0    @TEXTC,,AUTO
        13 001331   000100 101500                    MRL     fill='000'O
        13 001332   000000 000001                    ADSC9   0,,PR0                   cn=0,n=1
        13 001333   200020 000002                    ADSC9   END3+1,,AUTO             cn=0,n=2
        13 001334   200020 220100                    LDX0    END3+1,,AUTO
        13 001335   000064 236000 11                 LDQ     VM_CHAR_REFERENCE
        13 001336   000033 772000                    QRL     27
        13 001337   200005 471500                    LDP1    @CHARPOS,,AUTO
        13 001340   000000 621006                    EAX1    0,QL
        13 001341   000000 636010                    EAQ     0,X0
        13 001342   000022 772000                    QRL     18
        13 001343   100000 136100                    SBLQ    0,,PR1
        13 001344   100000 235100                    LDA     0,,PR1
        13 001345   000000 622006                    EAX2    0,QL
        13 001346   040145 100440                    MLR     fill='040'O
        13 001347   000064 200011 11                 ADSC9   VM_CHAR_REFERENCE        cn=1,n=*X1
        13 001350   000000 200012                    ADSC9   0,A,PR0                  cn=1,n=*X2

     1177    14306    3               CHARPOS = CHARPOS + VM_CHAR_REFERENCE.L#;

  14306 13 001351   000064 236000 11                 LDQ     VM_CHAR_REFERENCE
        13 001352   000033 772000                    QRL     27
        13 001353   100000 036100                    ADLQ    0,,PR1
        13 001354   100000 756100                    STQ     0,,PR1

     1178    14307    3               GOTO CMPR_STR;

PL6.E3A0      #004=VMS$FMT_EXP File=VMS$SELECT.:VMB6TSI                          WED 08/20/97 15:25 Page:210
  14307 13 001355   001507 710000 13                 TRA     CMPR_STR

     1179    14308    3           CASE (%SEL_REPLY_TO);

     1180    14309                    %INIT_STR (CODE=E_CHAR_REPLYTO, STR=VM_CHAR_REPLYTO, TEST=YES);

  14316 13 001356   040000 106400                    CMPC    fill='040'O
        13 001357   000070 200017 11                 ADSC9   VM_CHAR_REPLYTO          cn=1,n=15
        13 001360   000003 000001 14                 ADSC9   3                        cn=0,n=1
        13 001361   001366 601000 13                 TNZ     s:14332

  14318 13 001362   000057 630400 14                 EPPR0   47
        13 001363   000004 631400 14                 EPPR1   4
        13 001364   000000 701000 xent               TSX1    VMD$ERRMSG
        13 001365   000000 011000                    NOP     0

     1181    14332    3               call insert(TEXTC.TEXT,CHARPOS,, substr(VM_CHAR_REPLYTO.NAME#,,
             14332                        VM_CHAR_REPLYTO.L#));

  14332 13 001366   200004 470500                    LDP0    @TEXTC,,AUTO
        13 001367   000100 101500                    MRL     fill='000'O
        13 001370   000000 000001                    ADSC9   0,,PR0                   cn=0,n=1
        13 001371   200020 000002                    ADSC9   END3+1,,AUTO             cn=0,n=2
        13 001372   200020 220100                    LDX0    END3+1,,AUTO
        13 001373   000070 236000 11                 LDQ     VM_CHAR_REPLYTO
        13 001374   000033 772000                    QRL     27
        13 001375   200005 471500                    LDP1    @CHARPOS,,AUTO
        13 001376   000000 621006                    EAX1    0,QL
        13 001377   000000 636010                    EAQ     0,X0
        13 001400   000022 772000                    QRL     18
        13 001401   100000 136100                    SBLQ    0,,PR1
        13 001402   100000 235100                    LDA     0,,PR1
        13 001403   000000 622006                    EAX2    0,QL
        13 001404   040145 100440                    MLR     fill='040'O
        13 001405   000070 200011 11                 ADSC9   VM_CHAR_REPLYTO          cn=1,n=*X1
        13 001406   000000 200012                    ADSC9   0,A,PR0                  cn=1,n=*X2

PL6.E3A0      #004=VMS$FMT_EXP File=VMS$SELECT.:VMB6TSI                          WED 08/20/97 15:25 Page:211
     1182    14333    3               CHARPOS = CHARPOS + VM_CHAR_REPLYTO.L#;

  14333 13 001407   000070 236000 11                 LDQ     VM_CHAR_REPLYTO
        13 001410   000033 772000                    QRL     27
        13 001411   100000 036100                    ADLQ    0,,PR1
        13 001412   100000 756100                    STQ     0,,PR1

     1183    14334    3               GOTO CMPR_STR;

  14334 13 001413   001507 710000 13                 TRA     CMPR_STR

     1184    14335    3           CASE (%SEL_SUBJECT);

     1185    14336                    %INIT_STR (CODE=E_CHAR_SUBJECT, STR=VM_CHAR_SUBJECT, TEST=YES);

  14343 13 001414   040000 106400                    CMPC    fill='040'O
        13 001415   000074 200017 11                 ADSC9   VM_CHAR_SUBJECT          cn=1,n=15
        13 001416   000003 000001 14                 ADSC9   3                        cn=0,n=1
        13 001417   001424 601000 13                 TNZ     s:14359

  14345 13 001420   000061 630400 14                 EPPR0   49
        13 001421   000004 631400 14                 EPPR1   4
        13 001422   000000 701000 xent               TSX1    VMD$ERRMSG
        13 001423   000000 011000                    NOP     0

     1186    14359    3               call insert(TEXTC.TEXT,CHARPOS,, substr(VM_CHAR_SUBJECT.NAME#,,
             14359                        VM_CHAR_SUBJECT.L#));

  14359 13 001424   200004 470500                    LDP0    @TEXTC,,AUTO
        13 001425   000100 101500                    MRL     fill='000'O
        13 001426   000000 000001                    ADSC9   0,,PR0                   cn=0,n=1
        13 001427   200020 000002                    ADSC9   END3+1,,AUTO             cn=0,n=2
        13 001430   200020 220100                    LDX0    END3+1,,AUTO
        13 001431   000074 236000 11                 LDQ     VM_CHAR_SUBJECT
        13 001432   000033 772000                    QRL     27
        13 001433   200005 471500                    LDP1    @CHARPOS,,AUTO
        13 001434   000000 621006                    EAX1    0,QL
PL6.E3A0      #004=VMS$FMT_EXP File=VMS$SELECT.:VMB6TSI                          WED 08/20/97 15:25 Page:212
        13 001435   000000 636010                    EAQ     0,X0
        13 001436   000022 772000                    QRL     18
        13 001437   100000 136100                    SBLQ    0,,PR1
        13 001440   100000 235100                    LDA     0,,PR1
        13 001441   000000 622006                    EAX2    0,QL
        13 001442   040145 100440                    MLR     fill='040'O
        13 001443   000074 200011 11                 ADSC9   VM_CHAR_SUBJECT          cn=1,n=*X1
        13 001444   000000 200012                    ADSC9   0,A,PR0                  cn=1,n=*X2

     1187    14360    3               CHARPOS = CHARPOS + VM_CHAR_SUBJECT.L#;

  14360 13 001445   000074 236000 11                 LDQ     VM_CHAR_SUBJECT
        13 001446   000033 772000                    QRL     27
        13 001447   100000 036100                    ADLQ    0,,PR1
        13 001450   100000 756100                    STQ     0,,PR1

     1188    14361    3               GOTO CMPR_STR;

  14361 13 001451   001507 710000 13                 TRA     CMPR_STR

     1189    14362    3           CASE (%SEL_TO);

     1190    14363                    %INIT_STR (CODE=E_CHAR_TO, STR=VM_CHAR_TO, TEST=YES);

  14370 13 001452   040000 106400                    CMPC    fill='040'O
        13 001453   000100 200017 11                 ADSC9   VM_CHAR_TO               cn=1,n=15
        13 001454   000003 000001 14                 ADSC9   3                        cn=0,n=1
        13 001455   001462 601000 13                 TNZ     s:14386

  14372 13 001456   000063 630400 14                 EPPR0   51
        13 001457   000004 631400 14                 EPPR1   4
        13 001460   000000 701000 xent               TSX1    VMD$ERRMSG
        13 001461   000000 011000                    NOP     0

     1191    14386    3              call insert(TEXTC.TEXT, CHARPOS,, substr(VM_CHAR_TO.NAME#,,VM_CHAR_TO.L#
             14386                        ));

PL6.E3A0      #004=VMS$FMT_EXP File=VMS$SELECT.:VMB6TSI                          WED 08/20/97 15:25 Page:213
  14386 13 001462   200004 470500                    LDP0    @TEXTC,,AUTO
        13 001463   000100 101500                    MRL     fill='000'O
        13 001464   000000 000001                    ADSC9   0,,PR0                   cn=0,n=1
        13 001465   200020 000002                    ADSC9   END3+1,,AUTO             cn=0,n=2
        13 001466   200020 220100                    LDX0    END3+1,,AUTO
        13 001467   000100 236000 11                 LDQ     VM_CHAR_TO
        13 001470   000033 772000                    QRL     27
        13 001471   200005 471500                    LDP1    @CHARPOS,,AUTO
        13 001472   000000 621006                    EAX1    0,QL
        13 001473   000000 636010                    EAQ     0,X0
        13 001474   000022 772000                    QRL     18
        13 001475   100000 136100                    SBLQ    0,,PR1
        13 001476   100000 235100                    LDA     0,,PR1
        13 001477   000000 622006                    EAX2    0,QL
        13 001500   040145 100440                    MLR     fill='040'O
        13 001501   000100 200011 11                 ADSC9   VM_CHAR_TO               cn=1,n=*X1
        13 001502   000000 200012                    ADSC9   0,A,PR0                  cn=1,n=*X2

     1192    14387    3               CHARPOS = CHARPOS + VM_CHAR_TO.L#;

  14387 13 001503   000100 236000 11                 LDQ     VM_CHAR_TO
        13 001504   000033 772000                    QRL     27
        13 001505   100000 036100                    ADLQ    0,,PR1
        13 001506   100000 756100                    STQ     0,,PR1

  14387 13 001507                       CMPR_STR     null
     1193    14388    3   CMPR_STR:   ;
     1194    14389    4               DO CASE (PTR1$ -> P$B.SUBLK$(0) -> P$B.CODE);

  14389 13 001507   200011 473500                    LDP3    PTR1$,,AUTO
        13 001510   300003 474500                    LDP4    3,,PR3
        13 001511   400000 720100                    LXL0    0,,PR4
        13 001512   000003 100003                    CMPX0   3,DU
        13 001513   001515 602010 13                 TNC     CMPR_STR+6,X0
        13 001514   001555 710000 13                 TRA     s:14397
        13 001515   001555 710000 13                 TRA     s:14397
        13 001516   001537 710000 13                 TRA     s:14394
PL6.E3A0      #004=VMS$FMT_EXP File=VMS$SELECT.:VMB6TSI                          WED 08/20/97 15:25 Page:214
        13 001517   001520 710000 13                 TRA     s:14391

     1195    14390    4               CASE (%OPTION_EQ);

     1196    14391    4                   CALL INSERT(TEXTC.TEXT, CHARPOS,, '=''');

  14391 13 001520   000100 101500                    MRL     fill='000'O
        13 001521   000000 000001                    ADSC9   0,,PR0                   cn=0,n=1
        13 001522   200020 000002                    ADSC9   END3+1,,AUTO             cn=0,n=2
        13 001523   200020 220100                    LDX0    END3+1,,AUTO
        13 001524   000000 636010                    EAQ     0,X0
        13 001525   000022 772000                    QRL     18
        13 001526   100000 136100                    SBLQ    0,,PR1
        13 001527   100000 235100                    LDA     0,,PR1
        13 001530   000000 621006                    EAX1    0,QL
        13 001531   040145 100400                    MLR     fill='040'O
        13 001532   000033 000002 12                 ADSC9   E_CHAR_RCVD+1            cn=0,n=2
        13 001533   000000 200011                    ADSC9   0,A,PR0                  cn=1,n=*X1

     1197    14392    4                   CHARPOS = CHARPOS + LENGTHC('=''');

  14392 13 001534   000002 236007                    LDQ     2,DL
        13 001535   100000 056100                    ASQ     0,,PR1
        13 001536   001555 710000 13                 TRA     s:14397

     1198    14393    4               CASE (%OPTION_NE);

     1199    14394    4                   CALL INSERT(TEXTC.TEXT, CHARPOS,, '~=''');

  14394 13 001537   000100 101500                    MRL     fill='000'O
        13 001540   000000 000001                    ADSC9   0,,PR0                   cn=0,n=1
        13 001541   200020 000002                    ADSC9   END3+1,,AUTO             cn=0,n=2
        13 001542   200020 220100                    LDX0    END3+1,,AUTO
        13 001543   000000 636010                    EAQ     0,X0
        13 001544   000022 772000                    QRL     18
        13 001545   100000 136100                    SBLQ    0,,PR1
        13 001546   100000 235100                    LDA     0,,PR1
PL6.E3A0      #004=VMS$FMT_EXP File=VMS$SELECT.:VMB6TSI                          WED 08/20/97 15:25 Page:215
        13 001547   000000 621006                    EAX1    0,QL
        13 001550   040145 100400                    MLR     fill='040'O
        13 001551   000034 000003 12                 ADSC9   E_CHAR_RCVD+2            cn=0,n=3
        13 001552   000000 200011                    ADSC9   0,A,PR0                  cn=1,n=*X1

     1200    14395    4                   CHARPOS = CHARPOS + LENGTHC('~=''');

  14395 13 001553   000003 236007                    LDQ     3,DL
        13 001554   100000 056100                    ASQ     0,,PR1

     1201    14396    4               END;

     1202    14397    3               PTR2$ = PTR1$ -> P$B.SUBLK$(0)->P$B.SUBLK$(0);

  14397 13 001555   200011 473500                    LDP3    PTR1$,,AUTO
        13 001556   300003 474500                    LDP4    3,,PR3
        13 001557   400003 236100                    LDQ     3,,PR4
        13 001560   200012 756100                    STQ     PTR2$,,AUTO

     1203    14398    3               CALL INSERT (TEXTC.TEXT,CHARPOS,,PTR2$ -> P$S.TEXT);

  14398 13 001561   000100 101500                    MRL     fill='000'O
        13 001562   000000 000001                    ADSC9   0,,PR0                   cn=0,n=1
        13 001563   200020 000002                    ADSC9   END3+1,,AUTO             cn=0,n=2
        13 001564   200020 220100                    LDX0    END3+1,,AUTO
        13 001565   200012 474500                    LDP4    PTR2$,,AUTO
        13 001566   400004 236100                    LDQ     4,,PR4
        13 001567   000033 772000                    QRL     27
        13 001570   000000 621006                    EAX1    0,QL
        13 001571   000000 636010                    EAQ     0,X0
        13 001572   000022 772000                    QRL     18
        13 001573   100000 136100                    SBLQ    0,,PR1
        13 001574   100000 235100                    LDA     0,,PR1
        13 001575   000000 622006                    EAX2    0,QL
        13 001576   040145 100540                    MLR     fill='040'O
        13 001577   400004 200011                    ADSC9   4,,PR4                   cn=1,n=*X1
        13 001600   000000 200012                    ADSC9   0,A,PR0                  cn=1,n=*X2
PL6.E3A0      #004=VMS$FMT_EXP File=VMS$SELECT.:VMB6TSI                          WED 08/20/97 15:25 Page:216

     1204    14399    3               CHARPOS = CHARPOS + PTR2$ -> P$S.COUNT;

  14399 13 001601   400004 236100                    LDQ     4,,PR4
        13 001602   000033 772000                    QRL     27
        13 001603   100000 036100                    ADLQ    0,,PR1
        13 001604   100000 756100                    STQ     0,,PR1

     1205    14400    3               CALL INSERT (TEXTC.TEXT,CHARPOS,,'''');

  14400 13 001605   000100 101500                    MRL     fill='000'O
        13 001606   000000 000001                    ADSC9   0,,PR0                   cn=0,n=1
        13 001607   200020 000002                    ADSC9   END3+1,,AUTO             cn=0,n=2
        13 001610   200020 220100                    LDX0    END3+1,,AUTO
        13 001611   000000 636010                    EAQ     0,X0
        13 001612   000022 772000                    QRL     18
        13 001613   100000 136100                    SBLQ    0,,PR1
        13 001614   100000 235100                    LDA     0,,PR1
        13 001615   000000 621006                    EAX1    0,QL
        13 001616   040145 100400                    MLR     fill='040'O
        13 001617   000065 000001 14                 ADSC9   53                       cn=0,n=1
        13 001620   000000 200011                    ADSC9   0,A,PR0                  cn=1,n=*X1

     1206    14401    3               CHARPOS = CHARPOS + LENGTHC('''');

  14401 13 001621   100000 054100                    AOS     0,,PR1
        13 001622   002226 710000 13                 TRA     s:14503

     1207    14402    3           CASE (%SEL_DATE_SENT);

     1208    14403                    %INIT_STR (CODE=E_CHAR_SENT, STR=VM_CHAR_SENT, TEST=YES);

  14410 13 001623   040000 106400                    CMPC    fill='040'O
        13 001624   000144 200017 11                 ADSC9   VM_CHAR_SENT             cn=1,n=15
        13 001625   000003 000001 14                 ADSC9   3                        cn=0,n=1
        13 001626   001633 601000 13                 TNZ     s:14426

PL6.E3A0      #004=VMS$FMT_EXP File=VMS$SELECT.:VMB6TSI                          WED 08/20/97 15:25 Page:217
  14412 13 001627   000066 630400 14                 EPPR0   54
        13 001630   000004 631400 14                 EPPR1   4
        13 001631   000000 701000 xent               TSX1    VMD$ERRMSG
        13 001632   000000 011000                    NOP     0

     1209    14426    3               call insert(TEXTC.TEXT, CHARPOS,, substr(VM_CHAR_SENT.NAME#,,
             14426                        VM_CHAR_SENT.L#));

  14426 13 001633   200004 470500                    LDP0    @TEXTC,,AUTO
        13 001634   000100 101500                    MRL     fill='000'O
        13 001635   000000 000001                    ADSC9   0,,PR0                   cn=0,n=1
        13 001636   200020 000002                    ADSC9   END3+1,,AUTO             cn=0,n=2
        13 001637   200020 220100                    LDX0    END3+1,,AUTO
        13 001640   000144 236000 11                 LDQ     VM_CHAR_SENT
        13 001641   000033 772000                    QRL     27
        13 001642   200005 471500                    LDP1    @CHARPOS,,AUTO
        13 001643   000000 621006                    EAX1    0,QL
        13 001644   000000 636010                    EAQ     0,X0
        13 001645   000022 772000                    QRL     18
        13 001646   100000 136100                    SBLQ    0,,PR1
        13 001647   100000 235100                    LDA     0,,PR1
        13 001650   000000 622006                    EAX2    0,QL
        13 001651   040145 100440                    MLR     fill='040'O
        13 001652   000144 200011 11                 ADSC9   VM_CHAR_SENT             cn=1,n=*X1
        13 001653   000000 200012                    ADSC9   0,A,PR0                  cn=1,n=*X2

     1210    14427    3               CHARPOS = CHARPOS + VM_CHAR_SENT.L#;

  14427 13 001654   000144 236000 11                 LDQ     VM_CHAR_SENT
        13 001655   000033 772000                    QRL     27
        13 001656   100000 036100                    ADLQ    0,,PR1
        13 001657   100000 756100                    STQ     0,,PR1

     1211    14428    3               GOTO CMPR_DATE;

  14428 13 001660   001716 710000 13                 TRA     CMPR_DATE

PL6.E3A0      #004=VMS$FMT_EXP File=VMS$SELECT.:VMB6TSI                          WED 08/20/97 15:25 Page:218
     1212    14429    3           CASE (%SEL_DATE_RCVD);

     1213    14430                    %INIT_STR (CODE=E_CHAR_RCVD, STR=VM_CHAR_RCVD, TEST=YES);

  14437 13 001661   040000 106400                    CMPC    fill='040'O
        13 001662   000150 200017 11                 ADSC9   VM_CHAR_RCVD             cn=1,n=15
        13 001663   000003 000001 14                 ADSC9   3                        cn=0,n=1
        13 001664   001671 601000 13                 TNZ     s:14453

  14439 13 001665   000070 630400 14                 EPPR0   56
        13 001666   000004 631400 14                 EPPR1   4
        13 001667   000000 701000 xent               TSX1    VMD$ERRMSG
        13 001670   000000 011000                    NOP     0

     1214    14453    3               call insert(TEXTC.TEXT, CHARPOS,, substr(VM_CHAR_RCVD.NAME#,,
             14453                        VM_CHAR_RCVD.L#));

  14453 13 001671   200004 470500                    LDP0    @TEXTC,,AUTO
        13 001672   000100 101500                    MRL     fill='000'O
        13 001673   000000 000001                    ADSC9   0,,PR0                   cn=0,n=1
        13 001674   200020 000002                    ADSC9   END3+1,,AUTO             cn=0,n=2
        13 001675   200020 220100                    LDX0    END3+1,,AUTO
        13 001676   000150 236000 11                 LDQ     VM_CHAR_RCVD
        13 001677   000033 772000                    QRL     27
        13 001700   200005 471500                    LDP1    @CHARPOS,,AUTO
        13 001701   000000 621006                    EAX1    0,QL
        13 001702   000000 636010                    EAQ     0,X0
        13 001703   000022 772000                    QRL     18
        13 001704   100000 136100                    SBLQ    0,,PR1
        13 001705   100000 235100                    LDA     0,,PR1
        13 001706   000000 622006                    EAX2    0,QL
        13 001707   040145 100440                    MLR     fill='040'O
        13 001710   000150 200011 11                 ADSC9   VM_CHAR_RCVD             cn=1,n=*X1
        13 001711   000000 200012                    ADSC9   0,A,PR0                  cn=1,n=*X2

     1215    14454    3               CHARPOS = CHARPOS + VM_CHAR_RCVD.L#;

PL6.E3A0      #004=VMS$FMT_EXP File=VMS$SELECT.:VMB6TSI                          WED 08/20/97 15:25 Page:219
  14454 13 001712   000150 236000 11                 LDQ     VM_CHAR_RCVD
        13 001713   000033 772000                    QRL     27
        13 001714   100000 036100                    ADLQ    0,,PR1
        13 001715   100000 756100                    STQ     0,,PR1

  14454 13 001716                       CMPR_DATE    null
     1216    14455    3   CMPR_DATE:  ;
     1217    14456    4               DO CASE (PTR1$ -> P$B.SUBLK$(0) -> P$B.CODE);

  14456 13 001716   200011 473500                    LDP3    PTR1$,,AUTO
        13 001717   300003 474500                    LDP4    3,,PR3
        13 001720   400000 720100                    LXL0    0,,PR4
        13 001721   000007 100003                    CMPX0   7,DU
        13 001722   001724 602010 13                 TNC     CMPR_DATE+6,X0
        13 001723   002061 710000 13                 TRA     s:14476
        13 001724   002061 710000 13                 TRA     s:14476
        13 001725   001751 710000 13                 TRA     s:14461
        13 001726   001733 710000 13                 TRA     s:14458
        13 001727   001770 710000 13                 TRA     s:14464
        13 001730   002006 710000 13                 TRA     s:14467
        13 001731   002025 710000 13                 TRA     s:14470
        13 001732   002043 710000 13                 TRA     s:14473

     1218    14457    4               CASE (%OPTION_EQ);

     1219    14458    4                   CALL INSERT(TEXTC.TEXT, CHARPOS,, '=');

  14458 13 001733   000100 101500                    MRL     fill='000'O
        13 001734   000000 000001                    ADSC9   0,,PR0                   cn=0,n=1
        13 001735   200020 000002                    ADSC9   END3+1,,AUTO             cn=0,n=2
        13 001736   200020 220100                    LDX0    END3+1,,AUTO
        13 001737   000000 636010                    EAQ     0,X0
        13 001740   000022 772000                    QRL     18
        13 001741   100000 136100                    SBLQ    0,,PR1
        13 001742   100000 235100                    LDA     0,,PR1
        13 001743   000000 621006                    EAX1    0,QL
        13 001744   040145 100400                    MLR     fill='040'O
PL6.E3A0      #004=VMS$FMT_EXP File=VMS$SELECT.:VMB6TSI                          WED 08/20/97 15:25 Page:220
        13 001745   000072 000001 14                 ADSC9   58                       cn=0,n=1
        13 001746   000000 200011                    ADSC9   0,A,PR0                  cn=1,n=*X1

     1220    14459    4                   CHARPOS = CHARPOS + LENGTHC('=');

  14459 13 001747   100000 054100                    AOS     0,,PR1
        13 001750   002061 710000 13                 TRA     s:14476

     1221    14460    4               CASE (%OPTION_NE);

     1222    14461    4                   CALL INSERT(TEXTC.TEXT, CHARPOS,, '~=');

  14461 13 001751   000100 101500                    MRL     fill='000'O
        13 001752   000000 000001                    ADSC9   0,,PR0                   cn=0,n=1
        13 001753   200020 000002                    ADSC9   END3+1,,AUTO             cn=0,n=2
        13 001754   200020 220100                    LDX0    END3+1,,AUTO
        13 001755   000000 636010                    EAQ     0,X0
        13 001756   000022 772000                    QRL     18
        13 001757   100000 136100                    SBLQ    0,,PR1
        13 001760   100000 235100                    LDA     0,,PR1
        13 001761   000000 621006                    EAX1    0,QL
        13 001762   040145 100400                    MLR     fill='040'O
        13 001763   000034 000002 12                 ADSC9   E_CHAR_RCVD+2            cn=0,n=2
        13 001764   000000 200011                    ADSC9   0,A,PR0                  cn=1,n=*X1

     1223    14462    4                   CHARPOS = CHARPOS + LENGTHC('~=');

  14462 13 001765   000002 236007                    LDQ     2,DL
        13 001766   100000 056100                    ASQ     0,,PR1
        13 001767   002061 710000 13                 TRA     s:14476

     1224    14463    4               CASE (%OPTION_GT);

     1225    14464    4                   CALL INSERT(TEXTC.TEXT, CHARPOS,, '>');

  14464 13 001770   000100 101500                    MRL     fill='000'O
        13 001771   000000 000001                    ADSC9   0,,PR0                   cn=0,n=1
PL6.E3A0      #004=VMS$FMT_EXP File=VMS$SELECT.:VMB6TSI                          WED 08/20/97 15:25 Page:221
        13 001772   200020 000002                    ADSC9   END3+1,,AUTO             cn=0,n=2
        13 001773   200020 220100                    LDX0    END3+1,,AUTO
        13 001774   000000 636010                    EAQ     0,X0
        13 001775   000022 772000                    QRL     18
        13 001776   100000 136100                    SBLQ    0,,PR1
        13 001777   100000 235100                    LDA     0,,PR1
        13 002000   000000 621006                    EAX1    0,QL
        13 002001   040145 100400                    MLR     fill='040'O
        13 002002   000073 000001 14                 ADSC9   59                       cn=0,n=1
        13 002003   000000 200011                    ADSC9   0,A,PR0                  cn=1,n=*X1

     1226    14465    4                   CHARPOS = CHARPOS + LENGTHC('>');

  14465 13 002004   100000 054100                    AOS     0,,PR1
        13 002005   002061 710000 13                 TRA     s:14476

     1227    14466    4               CASE (%OPTION_GE);

     1228    14467    4                   CALL INSERT(TEXTC.TEXT, CHARPOS,, '>=');

  14467 13 002006   000100 101500                    MRL     fill='000'O
        13 002007   000000 000001                    ADSC9   0,,PR0                   cn=0,n=1
        13 002010   200020 000002                    ADSC9   END3+1,,AUTO             cn=0,n=2
        13 002011   200020 220100                    LDX0    END3+1,,AUTO
        13 002012   000000 636010                    EAQ     0,X0
        13 002013   000022 772000                    QRL     18
        13 002014   100000 136100                    SBLQ    0,,PR1
        13 002015   100000 235100                    LDA     0,,PR1
        13 002016   000000 621006                    EAX1    0,QL
        13 002017   040145 100400                    MLR     fill='040'O
        13 002020   000035 000002 12                 ADSC9   E_CHAR_RCVD+3            cn=0,n=2
        13 002021   000000 200011                    ADSC9   0,A,PR0                  cn=1,n=*X1

     1229    14468    4                   CHARPOS = CHARPOS + LENGTHC('>=');

  14468 13 002022   000002 236007                    LDQ     2,DL
        13 002023   100000 056100                    ASQ     0,,PR1
PL6.E3A0      #004=VMS$FMT_EXP File=VMS$SELECT.:VMB6TSI                          WED 08/20/97 15:25 Page:222
        13 002024   002061 710000 13                 TRA     s:14476

     1230    14469    4               CASE (%OPTION_LT);

     1231    14470    4                   CALL INSERT(TEXTC.TEXT, CHARPOS,, '<');

  14470 13 002025   000100 101500                    MRL     fill='000'O
        13 002026   000000 000001                    ADSC9   0,,PR0                   cn=0,n=1
        13 002027   200020 000002                    ADSC9   END3+1,,AUTO             cn=0,n=2
        13 002030   200020 220100                    LDX0    END3+1,,AUTO
        13 002031   000000 636010                    EAQ     0,X0
        13 002032   000022 772000                    QRL     18
        13 002033   100000 136100                    SBLQ    0,,PR1
        13 002034   100000 235100                    LDA     0,,PR1
        13 002035   000000 621006                    EAX1    0,QL
        13 002036   040145 100400                    MLR     fill='040'O
        13 002037   000074 000001 14                 ADSC9   60                       cn=0,n=1
        13 002040   000000 200011                    ADSC9   0,A,PR0                  cn=1,n=*X1

     1232    14471    4                   CHARPOS = CHARPOS + LENGTHC('<');

  14471 13 002041   100000 054100                    AOS     0,,PR1
        13 002042   002061 710000 13                 TRA     s:14476

     1233    14472    4               CASE (%OPTION_LE);

     1234    14473    4                   CALL INSERT(TEXTC.TEXT, CHARPOS,, '<=');

  14473 13 002043   000100 101500                    MRL     fill='000'O
        13 002044   000000 000001                    ADSC9   0,,PR0                   cn=0,n=1
        13 002045   200020 000002                    ADSC9   END3+1,,AUTO             cn=0,n=2
        13 002046   200020 220100                    LDX0    END3+1,,AUTO
        13 002047   000000 636010                    EAQ     0,X0
        13 002050   000022 772000                    QRL     18
        13 002051   100000 136100                    SBLQ    0,,PR1
        13 002052   100000 235100                    LDA     0,,PR1
        13 002053   000000 621006                    EAX1    0,QL
PL6.E3A0      #004=VMS$FMT_EXP File=VMS$SELECT.:VMB6TSI                          WED 08/20/97 15:25 Page:223
        13 002054   040145 100400                    MLR     fill='040'O
        13 002055   000036 000002 12                 ADSC9   E_CHAR_RCVD+4            cn=0,n=2
        13 002056   000000 200011                    ADSC9   0,A,PR0                  cn=1,n=*X1

     1235    14474    4                   CHARPOS = CHARPOS + LENGTHC('<=');

  14474 13 002057   000002 236007                    LDQ     2,DL
        13 002060   100000 056100                    ASQ     0,,PR1

     1236    14475    4               END;

     1237    14476    3               PTR2$ = PTR1$ -> P$B.SUBLK$(0) -> P$B.SUBLK$(0);

  14476 13 002061   200011 473500                    LDP3    PTR1$,,AUTO
        13 002062   300003 474500                    LDP4    3,,PR3
        13 002063   400003 236100                    LDQ     3,,PR4
        13 002064   200012 756100                    STQ     PTR2$,,AUTO

     1238    14477    3               END2 = PTR2$ -> P$B.NSUBLKS - 1;

  14477 13 002065   200012 475500                    LDP5    PTR2$,,AUTO
        13 002066   500001 236100                    LDQ     1,,PR5
        13 002067   000022 772000                    QRL     18
        13 002070   000001 136007                    SBLQ    1,DL
        13 002071   200016 756100                    STQ     END2,,AUTO

     1239    14478    4               DO INDX2 = 0 TO END2;

  14478 13 002072   200007 450100                    STZ     INDX2,,AUTO
        13 002073   002223 710000 13                 TRA     s:14501+1

     1240    14479    4                   PTR3$ = PTR2$ -> P$B.SUBLK$(INDX2);

  14479 13 002074   200012 470500                    LDP0    PTR2$,,AUTO
        13 002075   200007 720100                    LXL0    INDX2,,AUTO
        13 002076   000003 236110                    LDQ     3,X0,PR0
        13 002077   200013 756100                    STQ     PTR3$,,AUTO
PL6.E3A0      #004=VMS$FMT_EXP File=VMS$SELECT.:VMB6TSI                          WED 08/20/97 15:25 Page:224

     1241    14480    5                   DO CASE (PTR3$ -> P$B.CODE);

  14480 13 002100   200013 471500                    LDP1    PTR3$,,AUTO
        13 002101   100000 721100                    LXL1    0,,PR1
        13 002102   000003 101003                    CMPX1   3,DU
        13 002103   002105 602011 13                 TNC     s:14480+5,X1
        13 002104   002115 710000 13                 TRA     s:14486
        13 002105   002115 710000 13                 TRA     s:14486
        13 002106   002110 710000 13                 TRA     s:14482
        13 002107   002113 710000 13                 TRA     s:14484

     1242    14481    5                   CASE (%OPTION_DATE);

     1243    14482    5                       DELIM = '/';

  14482 13 002110   057000 236003                    LDQ     24064,DU
        13 002111   200014 756100                    STQ     DELIM,,AUTO
        13 002112   002115 710000 13                 TRA     s:14486

     1244    14483    5                   CASE (%OPTION_TIME);

     1245    14484    5                       DELIM = ':';

  14484 13 002113   072000 236003                    LDQ     29696,DU
        13 002114   200014 756100                    STQ     DELIM,,AUTO

     1246    14485    5                   END;

     1247    14486    4                   END3 = PTR3$ -> P$B.NSUBLKS - 1;

  14486 13 002115   100001 236100                    LDQ     1,,PR1
        13 002116   000022 772000                    QRL     18
        13 002117   000001 136007                    SBLQ    1,DL
        13 002120   200017 756100                    STQ     END3,,AUTO

     1248    14487    5                   DO INDX3 = 0 TO END3;
PL6.E3A0      #004=VMS$FMT_EXP File=VMS$SELECT.:VMB6TSI                          WED 08/20/97 15:25 Page:225

  14487 13 002121   200010 450100                    STZ     INDX3,,AUTO
        13 002122   002175 710000 13                 TRA     s:14495+1

     1249    14488    5                       CALL INSERT(TEXTC.TEXT, CHARPOS,, PTR3$ -> P$B.SUBLK$(INDX3) ->
             14488                                P$S.TEXT);

  14488 13 002123   200004 470500                    LDP0    @TEXTC,,AUTO
        13 002124   000100 101500                    MRL     fill='000'O
        13 002125   000000 000001                    ADSC9   0,,PR0                   cn=0,n=1
        13 002126   200020 000002                    ADSC9   END3+1,,AUTO             cn=0,n=2
        13 002127   200020 220100                    LDX0    END3+1,,AUTO
        13 002130   200013 471500                    LDP1    PTR3$,,AUTO
        13 002131   200010 721100                    LXL1    INDX3,,AUTO
        13 002132   100003 473511                    LDP3    3,X1,PR1
        13 002133   300004 236100                    LDQ     4,,PR3
        13 002134   000033 772000                    QRL     27
        13 002135   200005 474500                    LDP4    @CHARPOS,,AUTO
        13 002136   000000 622006                    EAX2    0,QL
        13 002137   000000 636010                    EAQ     0,X0
        13 002140   000022 772000                    QRL     18
        13 002141   400000 136100                    SBLQ    0,,PR4
        13 002142   400000 235100                    LDA     0,,PR4
        13 002143   000000 623006                    EAX3    0,QL
        13 002144   040145 100540                    MLR     fill='040'O
        13 002145   300004 200012                    ADSC9   4,,PR3                   cn=1,n=*X2
        13 002146   000000 200013                    ADSC9   0,A,PR0                  cn=1,n=*X3

     1250    14489    5                       CHARPOS = CHARPOS + PTR3$ -> P$B.SUBLK$(INDX3) -> P$S.COUNT;

  14489 13 002147   100003 473511                    LDP3    3,X1,PR1
        13 002150   300004 236100                    LDQ     4,,PR3
        13 002151   000033 772000                    QRL     27
        13 002152   400000 036100                    ADLQ    0,,PR4
        13 002153   400000 756100                    STQ     0,,PR4

     1251    14490    5                       IF INDX3 < END3
PL6.E3A0      #004=VMS$FMT_EXP File=VMS$SELECT.:VMB6TSI                          WED 08/20/97 15:25 Page:226

  14490 13 002154   200010 236100                    LDQ     INDX3,,AUTO
        13 002155   200017 116100                    CMPQ    END3,,AUTO
        13 002156   002174 605000 13                 TPL     s:14495

     1252    14491    6                       THEN DO;

     1253    14492    6                           CALL INSERT(TEXTC.TEXT, CHARPOS,, DELIM);

  14492 13 002157   000100 101500                    MRL     fill='000'O
        13 002160   000000 000001                    ADSC9   0,,PR0                   cn=0,n=1
        13 002161   200020 000002                    ADSC9   END3+1,,AUTO             cn=0,n=2
        13 002162   200020 220100                    LDX0    END3+1,,AUTO
        13 002163   000000 636010                    EAQ     0,X0
        13 002164   000022 772000                    QRL     18
        13 002165   400000 136100                    SBLQ    0,,PR4
        13 002166   400000 235100                    LDA     0,,PR4
        13 002167   000000 622006                    EAX2    0,QL
        13 002170   040145 100500                    MLR     fill='040'O
        13 002171   200014 000001                    ADSC9   DELIM,,AUTO              cn=0,n=1
        13 002172   000000 200012                    ADSC9   0,A,PR0                  cn=1,n=*X2

     1254    14493    6                           CHARPOS = CHARPOS + 1;

  14493 13 002173   400000 054100                    AOS     0,,PR4

     1255    14494    6                       END;

     1256    14495    5                   END;

  14495 13 002174   200010 054100                    AOS     INDX3,,AUTO
        13 002175   200010 236100                    LDQ     INDX3,,AUTO
        13 002176   200017 116100                    CMPQ    END3,,AUTO
        13 002177   002123 604400 13                 TMOZ    s:14488

     1257    14496    4                   IF INDX2 < END2

PL6.E3A0      #004=VMS$FMT_EXP File=VMS$SELECT.:VMB6TSI                          WED 08/20/97 15:25 Page:227
  14496 13 002200   200007 236100                    LDQ     INDX2,,AUTO
        13 002201   200016 116100                    CMPQ    END2,,AUTO
        13 002202   002222 605000 13                 TPL     s:14501

     1258    14497    5                   THEN DO;

     1259    14498    5                       CALL INSERT(TEXTC.TEXT, CHARPOS,, ',');

  14498 13 002203   200004 470500                    LDP0    @TEXTC,,AUTO
        13 002204   000100 101500                    MRL     fill='000'O
        13 002205   000000 000001                    ADSC9   0,,PR0                   cn=0,n=1
        13 002206   200020 000002                    ADSC9   END3+1,,AUTO             cn=0,n=2
        13 002207   200020 220100                    LDX0    END3+1,,AUTO
        13 002210   200005 473500                    LDP3    @CHARPOS,,AUTO
        13 002211   000000 636010                    EAQ     0,X0
        13 002212   000022 772000                    QRL     18
        13 002213   300000 136100                    SBLQ    0,,PR3
        13 002214   300000 235100                    LDA     0,,PR3
        13 002215   000000 621006                    EAX1    0,QL
        13 002216   040145 100400                    MLR     fill='040'O
        13 002217   000075 000001 14                 ADSC9   61                       cn=0,n=1
        13 002220   000000 200011                    ADSC9   0,A,PR0                  cn=1,n=*X1

     1260    14499    5                       CHARPOS = CHARPOS + 1;

  14499 13 002221   300000 054100                    AOS     0,,PR3

     1261    14500    5                   END;

     1262    14501    4               END;

  14501 13 002222   200007 054100                    AOS     INDX2,,AUTO
        13 002223   200007 236100                    LDQ     INDX2,,AUTO
        13 002224   200016 116100                    CMPQ    END2,,AUTO
        13 002225   002074 604400 13                 TMOZ    s:14479

     1263    14502    3           END;                        /* Do case ... end */
PL6.E3A0      #004=VMS$FMT_EXP File=VMS$SELECT.:VMB6TSI                          WED 08/20/97 15:25 Page:228

     1264    14503    2           IF CHARPOS > 511

  14503 13 002226   200005 470500                    LDP0    @CHARPOS,,AUTO
        13 002227   000000 235100                    LDA     0,,PR0
        13 002230   000777 115007                    CMPA    511,DL
        13 002231   002235 604400 13                 TMOZ    s:14509

     1265    14504    2           THEN
     1266    14505    3           DO;

     1267    14506    3               CHARPOS = 511;

  14506 13 002232   000777 236007                    LDQ     511,DL
        13 002233   000000 756100                    STQ     0,,PR0

     1268    14507    3               RETURN;

  14507 13 002234   000000 702200 xent               TSX2  ! X66_ARET

     1269    14508    3           END;
     1270    14509    2       END;                            /* Do INDX1 = ... end */

  14509 13 002235   200006 054100                    AOS     INDX1,,AUTO
        13 002236   200006 236100                    LDQ     INDX1,,AUTO
        13 002237   200015 116100                    CMPQ    END1,,AUTO
        13 002240   000012 604400 13                 TMOZ    s:13751

     1271    14510    1       RETURN;

  14510 13 002241   000000 702200 xent               TSX2  ! X66_ARET

VM_CHAR_WHEN
 Sect OctLoc
  11     000   017040 040040   040040 040040   040040 040040   040040 040040    .

VM_CHAR_BROADCAST
PL6.E3A0      #004=VMS$FMT_EXP File=VMS$SELECT.:VMB6TSI                          WED 08/20/97 15:25 Page:229
 Sect OctLoc
  11     004   017040 040040   040040 040040   040040 040040   040040 040040    .

VM_CHAR_DELIVERY
 Sect OctLoc
  11     010   017040 040040   040040 040040   040040 040040   040040 040040    .

VM_CHAR_DELETED
 Sect OctLoc
  11     014   017040 040040   040040 040040   040040 040040   040040 040040    .

VM_CHAR_ERROR
 Sect OctLoc
  11     020   017040 040040   040040 040040   040040 040040   040040 040040    .

VM_CHAR_FCOPY
 Sect OctLoc
  11     024   017040 040040   040040 040040   040040 040040   040040 040040    .

VM_CHAR_FROM
 Sect OctLoc
  11     030   017040 040040   040040 040040   040040 040040   040040 040040    .

VM_CHAR_MARKED
 Sect OctLoc
  11     034   017040 040040   040040 040040   040040 040040   040040 040040    .

VM_CHAR_NEW
 Sect OctLoc
  11     040   017040 040040   040040 040040   040040 040040   040040 040040    .

VM_CHAR_OLD
 Sect OctLoc
  11     044   017040 040040   040040 040040   040040 040040   040040 040040    .

VM_CHAR_AND
 Sect OctLoc
PL6.E3A0      #004=VMS$FMT_EXP File=VMS$SELECT.:VMB6TSI                          WED 08/20/97 15:25 Page:230
  11     050   017040 040040   040040 040040   040040 040040   040040 040040    .

VM_CHAR_OR
 Sect OctLoc
  11     054   017040 040040   040040 040040   040040 040040   040040 040040    .

VM_CHAR_NOT
 Sect OctLoc
  11     060   017040 040040   040040 040040   040040 040040   040040 040040    .

VM_CHAR_REFERENCE
 Sect OctLoc
  11     064   017040 040040   040040 040040   040040 040040   040040 040040    .

VM_CHAR_REPLYTO
 Sect OctLoc
  11     070   017040 040040   040040 040040   040040 040040   040040 040040    .

VM_CHAR_SUBJECT
 Sect OctLoc
  11     074   017040 040040   040040 040040   040040 040040   040040 040040    .

VM_CHAR_TO
 Sect OctLoc
  11     100   017040 040040   040040 040040   040040 040040   040040 040040    .

VM_CHAR_FWD
 Sect OctLoc
  11     104   017040 040040   040040 040040   040040 040040   040040 040040    .

VM_CHAR_ANSWER
 Sect OctLoc
  11     110   017040 040040   040040 040040   040040 040040   040040 040040    .

VM_CHAR_ACKNOWLEDGMENT
 Sect OctLoc
  11     114   017040 040040   040040 040040   040040 040040   040040 040040    .
PL6.E3A0      #004=VMS$FMT_EXP File=VMS$SELECT.:VMB6TSI                          WED 08/20/97 15:25 Page:231

VM_CHAR_NEXT
 Sect OctLoc
  11     120   017040 040040   040040 040040   040040 040040   040040 040040    .

VM_CHAR_PREVIOUS
 Sect OctLoc
  11     124   017040 040040   040040 040040   040040 040040   040040 040040    .

VM_CHAR_UNEXAMINED
 Sect OctLoc
  11     130   017040 040040   040040 040040   040040 040040   040040 040040    .

VM_CHAR_EXAMINED
 Sect OctLoc
  11     134   017040 040040   040040 040040   040040 040040   040040 040040    .

VM_CHAR_RR
 Sect OctLoc
  11     140   017040 040040   040040 040040   040040 040040   040040 040040    .

VM_CHAR_SENT
 Sect OctLoc
  11     144   017040 040040   040040 040040   040040 040040   040040 040040    .

VM_CHAR_RCVD
 Sect OctLoc
  11     150   017040 040040   040040 040040   040040 040040   040040 040040    .

E_CHAR_WHEN
 Sect OctLoc
  12     000   261523 022610                                                    ....

E_CHAR_BROADCAST
 Sect OctLoc
  12     001   261523 022620                                                    ....

PL6.E3A0      #004=VMS$FMT_EXP File=VMS$SELECT.:VMB6TSI                          WED 08/20/97 15:25 Page:232
E_CHAR_DELIVERY
 Sect OctLoc
  12     002   261523 022630                                                    ....

E_CHAR_DELETED
 Sect OctLoc
  12     003   261523 022640                                                    ....

E_CHAR_ERROR
 Sect OctLoc
  12     004   261523 022650                                                    ....

E_CHAR_FCOPY
 Sect OctLoc
  12     005   261523 022660                                                    ....

E_CHAR_FROM
 Sect OctLoc
  12     006   261523 022670                                                    ....

E_CHAR_MARKED
 Sect OctLoc
  12     007   261523 022700                                                    ....

E_CHAR_NEW
 Sect OctLoc
  12     010   261523 022710                                                    ....

E_CHAR_OLD
 Sect OctLoc
  12     011   261523 023070                                                    ...8

E_CHAR_AND
 Sect OctLoc
  12     012   261523 022720                                                    ....

E_CHAR_OR
PL6.E3A0      #004=VMS$FMT_EXP File=VMS$SELECT.:VMB6TSI                          WED 08/20/97 15:25 Page:233
 Sect OctLoc
  12     013   261523 022730                                                    ....

E_CHAR_NOT
 Sect OctLoc
  12     014   261523 022740                                                    ....

E_CHAR_REFERENCE
 Sect OctLoc
  12     015   261523 022760                                                    ....

E_CHAR_REPLYTO
 Sect OctLoc
  12     016   261523 023120                                                    ...P

E_CHAR_SUBJECT
 Sect OctLoc
  12     017   261523 023000                                                    ....

E_CHAR_TO
 Sect OctLoc
  12     020   261523 023010                                                    ....

E_CHAR_FWD
 Sect OctLoc
  12     021   261523 023020                                                    ....

E_CHAR_ANSWER
 Sect OctLoc
  12     022   261523 023030                                                    ....

E_CHAR_ACKNOWLEDGMENT
 Sect OctLoc
  12     023   261523 023040                                                    ...

E_CHAR_NEXT
 Sect OctLoc
PL6.E3A0      #004=VMS$FMT_EXP File=VMS$SELECT.:VMB6TSI                          WED 08/20/97 15:25 Page:234
  12     024   261523 023050                                                    ...(

E_CHAR_PREVIOUS
 Sect OctLoc
  12     025   261523 023060                                                    ...0

E_CHAR_UNEXAMINED
 Sect OctLoc
  12     026   261523 023100                                                    ...@

E_CHAR_EXAMINED
 Sect OctLoc
  12     027   261523 022750                                                    ....

E_CHAR_RR
 Sect OctLoc
  12     030   261523 023110                                                    ...H

E_CHAR_SENT
 Sect OctLoc
  12     031   261523 023130                                                    ...X

E_CHAR_RCVD
 Sect OctLoc
  12     032   261523 023140                                                    ...`

(unnamed)
 Sect OctLoc
  12     033   075047 040040   176075 047040   076075 040040   074075 040040    ='  ~=' >=  <=

(unnamed)
 Sect OctLoc
  14     000   050040 040040   000003 000000   051040 040040   040040 040040    (   ....)
  14     004   000002 000000   000023 006000   000114 006000   000022 006000    .........L......
  14     010   000110 006000   000001 006000   000004 006000   000003 006000    .H..............
  14     014   000014 006000   000002 006000   000010 006000   000004 006000    ................
  14     020   000020 006000   000027 006000   000134 006000   000005 006000    .........\......
PL6.E3A0      #004=VMS$FMT_EXP File=VMS$SELECT.:VMB6TSI                          WED 08/20/97 15:25 Page:235
  14     024   000024 006000   000021 006000   000104 006000   000007 006000    .........D......
  14     030   000034 006000   000010 006000   000040 006000   000024 006000    ......... ......
  14     034   000120 006000   000025 006000   000124 006000   000011 006000    .P.......T......
  14     040   000044 006000   000026 006000   000130 006000   000012 006000    .$.......X......
  14     044   000050 006000   000013 006000   000054 006000   000014 006000    .(.......,......
  14     050   000060 006000   000030 006000   000140 006000   000006 006000    .0.......`......
  14     054   000030 006000   000015 006000   000064 006000   000016 006000    .........4......
  14     060   000070 006000   000017 006000   000074 006000   000020 006000    .8.......<......
  14     064   000100 006000   047040 040040   000031 006000   000144 006000    .@..'   .....d..
  14     070   000032 006000   000150 006000   075040 040040   076040 040040    .....h..=   >
  14     074   074040 040040   054040 040040                                    <   ,
     1272    14511    1   END VMS$FMT_EXP;

PL6.E3A0      #004=VMS$FMT_EXP File=VMS$SELECT.:VMB6TSI                          WED 08/20/97 15:25 Page:236
--  Include file information  --

   XU_SUBS_C.:LIB_E05  is referenced.
   XU_MACRO_C.:LIB_E05  is referenced.
   VM_PERR_C.:VMB6TOU  is referenced.
   B_MACROS_C.:LIB_E05  is referenced.
   VM_DATA_R.:VMB6TOU  cannot be made into a system file and is referenced.
   VM_SUBS_C.:VMB6TOU  is referenced.
   VM_MACRO_C.:VMB6TOU  is referenced.
   CP_6_SUBS.:LIB_E05  is referenced.
   CP_6_C.:LIB_E05  is referenced.
   CP_6.:LIB_E05  cannot be made into a system file and is referenced.
      No diagnostics issued in procedure VMS$FMT_EXP.
PL6.E3A0      #004=VMS$FMT_EXP File=VMS$SELECT.:VMB6TSI                          WED 08/20/97 15:25 Page:237

 **** Variables and constants ****

  ****  Section 011  Data  VMS$FMT_EXP

  ****  Scalars and arrays  ****
OctLoc.c.b A Datatyp(siz) R M Lvl/name                 OctLoc.c.b A Datatyp(siz) R M Lvl/name

   114-0-0/c STRC(144)   r     1 VM_CHAR_ACKNOWLEDGMENT
    50-0-0/c STRC(144)   r     1 VM_CHAR_AND              110-0-0/c STRC(144)   r     1 VM_CHAR_ANSWER
     4-0-0/c STRC(144)   r     1 VM_CHAR_BROADCAST         14-0-0/c STRC(144)   r     1 VM_CHAR_DELETED
    10-0-0/c STRC(144)   r     1 VM_CHAR_DELIVERY          20-0-0/c STRC(144)   r     1 VM_CHAR_ERROR
   134-0-0/c STRC(144)   r     1 VM_CHAR_EXAMINED          24-0-0/c STRC(144)   r     1 VM_CHAR_FCOPY
    30-0-0/c STRC(144)   r     1 VM_CHAR_FROM             104-0-0/c STRC(144)   r     1 VM_CHAR_FWD
    34-0-0/c STRC(144)   r     1 VM_CHAR_MARKED            40-0-0/c STRC(144)   r     1 VM_CHAR_NEW
   120-0-0/c STRC(144)   r     1 VM_CHAR_NEXT              60-0-0/c STRC(144)   r     1 VM_CHAR_NOT
    44-0-0/c STRC(144)   r     1 VM_CHAR_OLD               54-0-0/c STRC(144)   r     1 VM_CHAR_OR
   124-0-0/c STRC(144)   r     1 VM_CHAR_PREVIOUS         150-0-0/c STRC(144)   r     1 VM_CHAR_RCVD
    64-0-0/c STRC(144)   r     1 VM_CHAR_REFERENCE         70-0-0/c STRC(144)   r     1 VM_CHAR_REPLYTO
   140-0-0/c STRC(144)   r     1 VM_CHAR_RR               144-0-0/c STRC(144)   r     1 VM_CHAR_SENT
    74-0-0/c STRC(144)   r     1 VM_CHAR_SUBJECT          100-0-0/c STRC(144)   r     1 VM_CHAR_TO
   130-0-0/c STRC(144)   r     1 VM_CHAR_UNEXAMINED         0-0-0/c STRC(144)         1 VM_CHAR_WHEN

  ****  Section 012 RoData VMS$FMT_EXP

  ****  Scalars and arrays  ****
OctLoc.c.b A Datatyp(siz) R M Lvl/name                 OctLoc.c.b A Datatyp(siz) R M Lvl/name

    23-0-0/w STRC        r     1 E_CHAR_ACKNOWLEDGMENT
    12-0-0/w STRC        r     1 E_CHAR_AND                22-0-0/w STRC        r     1 E_CHAR_ANSWER
     1-0-0/w STRC        r     1 E_CHAR_BROADCAST           3-0-0/w STRC        r     1 E_CHAR_DELETED
     2-0-0/w STRC        r     1 E_CHAR_DELIVERY            4-0-0/w STRC        r     1 E_CHAR_ERROR
    27-0-0/w STRC        r     1 E_CHAR_EXAMINED            5-0-0/w STRC        r     1 E_CHAR_FCOPY
     6-0-0/w STRC        r     1 E_CHAR_FROM               21-0-0/w STRC        r     1 E_CHAR_FWD
     7-0-0/w STRC        r     1 E_CHAR_MARKED             10-0-0/w STRC        r     1 E_CHAR_NEW
    24-0-0/w STRC        r     1 E_CHAR_NEXT               14-0-0/w STRC        r     1 E_CHAR_NOT
    11-0-0/w STRC        r     1 E_CHAR_OLD                13-0-0/w STRC        r     1 E_CHAR_OR
    25-0-0/w STRC        r     1 E_CHAR_PREVIOUS           32-0-0/w STRC        r     1 E_CHAR_RCVD
PL6.E3A0      #004=VMS$FMT_EXP File=VMS$SELECT.:VMB6TSI                          WED 08/20/97 15:25 Page:238
    15-0-0/w STRC        r     1 E_CHAR_REFERENCE          16-0-0/w STRC        r     1 E_CHAR_REPLYTO
    30-0-0/w STRC        r     1 E_CHAR_RR                 31-0-0/w STRC        r     1 E_CHAR_SENT
    17-0-0/w STRC        r     1 E_CHAR_SUBJECT            20-0-0/w STRC        r     1 E_CHAR_TO
    26-0-0/w STRC        r     1 E_CHAR_UNEXAMINED          0-0-0/w STRC              1 E_CHAR_WHEN

  ****  Auto variables  ****

  ****  Scalars and arrays  ****
OctLoc.c.b A Datatyp(siz) R M Lvl/name                 OctLoc.c.b A Datatyp(siz) R M Lvl/name

     5-0-0/w PTR         r     1 @CHARPOS                   4-0-0/w PTR         r     1 @TEXTC
     3-0-0/w PTR         r     1 @TREE$                    *0-0-0/w SBIN        r     1 CHARPOS
    14-0-0/c CHAR        r     1 DELIM                     15-0-0/w SBIN        r     1 END1
    16-0-0/w SBIN        r     1 END2                      17-0-0/w SBIN        r     1 END3
     6-0-0/w SBIN        r     1 INDX1                      7-0-0/w SBIN        r     1 INDX2
    10-0-0/w SBIN        r     1 INDX3                     11-0-0/w PTR         r     1 PTR1$
    12-0-0/w PTR         r     1 PTR2$                     13-0-0/w PTR         r     1 PTR3$
    *0-0-0/c ASTR(9)     r     1 TEXTC                     *0-0-0/w PTR         r     1 TREE$

  ****  SYMREF variables  ****

  ****  Scalars and arrays  ****
OctLoc.c.b A Datatyp(siz) R M Lvl/name                 OctLoc.c.b A Datatyp(siz) R M Lvl/name

     0-0-0/w PTR               1 B$JIT$                     0-0-0/w PTR               1 B$TCB$
     0-0-0/c ASTR(9)     r     1 ERRMSG_FID                 0-0-0/w UBIN              1 M$DO_NUM
     0-0-0/w UBIN              1 M$LO_NUM                   0-0-0/w UBIN              1 M$MAIL_CENTRAL_NUM
     0-0-0/w UBIN              1 M$MAIL_COMGROUP_NUM        0-0-0/w UBIN              1 M$MAIL_FILE_NUM
     0-0-0/w UBIN              1 M$MAIL_GLOBAL_NUM          0-0-0/w UBIN              1 M$ME_NUM
     0-0-0/w UBIN              1 M$NODE_NUM                 0-0-0/w UBIN              1 M$SI_NUM
     0-0-0/w UBIN              1 M$WORK_NUM                 0-0-0/w PTR               1 VM_ADDLIST$
     0-0-0/d VECT              1 VM_ADDLIST_                0-0-0/w PTR               1 VM_ADDREC$
     0-0-0/d VECT              1 VM_ADDREC_                 0-0-0/w PTR               1 VM_COPY$
     0-0-0/d VECT              1 VM_COPY_                   0-0-0/w PTR               1 VM_ENCLLIST$
     0-0-0/d VECT              1 VM_ENCLLIST_               0-0-0/w PTR               1 VM_ENCLREC$
     0-0-0/d VECT              1 VM_ENCLREC_                0-0-0/c STRC(270)         1 VM_FORWARD_ENCL_NAME
     0-0-0/c STRC(270)         1 VM_FORWARD_FILE_NAME       0-0-0/c STRC(72)          1 VM_FORWARD_FILE_PASS
PL6.E3A0      #004=VMS$FMT_EXP File=VMS$SELECT.:VMB6TSI                          WED 08/20/97 15:25 Page:239
     0-0-0/w PTR               1 VM_HEADER$                 0-0-0/d VECT              1 VM_HEADER_
     0-0-0/d VECT              1 VM_HEADER_INIT_            0-0-0/w PTR               1 VM_INPUT$
     0-0-0/d VECT              1 VM_INPUT_                  0-0-0/c STRC(72)          1 VM_MAILCG_NAME
     0-0-0/w STRC(432)         1 VM_MAILCG_SETSTA           0-0-0/c STRC(72)          1 VM_MAIL_ACCT
     0-0-0/c STRC(54)          1 VM_NAME_MAP_NAME           0-0-0/w PTR               1 VM_PARSEAREA$
     0-0-0/d VECT              1 VM_PARSEAREA_              0-0-0/w PTR               1 VM_PROFILE$
     0-0-0/d VECT              1 VM_PROFILE_                0-0-0/w PTR               1 VM_SELECT$
     0-0-0/d VECT              1 VM_SELECT_                 0-0-0/c STRC(288)         1 VM_SEND_FILE_NAME
     0-0-0/c CHAR(8)           1 VM_SITENAME                0-0-0/w PTR               1 VM_WORK$
     0-0-0/d VECT              1 VM_WORK_

  ****  BASED and DCB variables  ****

  ****  Scalars and arrays  ****
OctLoc.c.b A Datatyp(siz) R M Lvl/name                 OctLoc.c.b A Datatyp(siz) R M Lvl/name

     0-0-0N  NULL        r     1 M$DO                       0-0-0N  NULL        r     1 M$LO
     0-0-0N  NULL        r     1 M$MAIL_CENTRAL             0-0-0N  NULL        r     1 M$MAIL_COMGROUP
     0-0-0N  NULL        r     1 M$MAIL_FILE                0-0-0N  NULL        r     1 M$MAIL_GLOBAL
     0-0-0N  NULL        r     1 M$ME                       0-0-0N  NULL        r     1 M$NODE
     0-0-0N  NULL        r     1 M$SI                       0-0-0N  NULL        r     1 M$UC
     0-0-0N  NULL        r     1 M$WORK                     0-0-0/w STRC(144)   r     1 P$B
     0-0-0/w ASTR(153)   r     1 P$S                        0-0-0/c ASTR(9)     r     1 X$STRING


   Procedure VMS$FMT_EXP requires 1186 words for executable code.
   Procedure VMS$FMT_EXP requires 20 words of local(AUTO) storage.

    No errors detected in file VMS$SELECT.:VMB6TSI    .
PL6.E3A0      #004=VMS$FMT_EXP File=VMS$SELECT.:VMB6TSI                          WED 08/20/97 15:25 Page:240
          *** CROSS REFERENCE LISTING ***
**     DENOTES     IDENTIFIER DEFINITION
<<                 IDENTIFIER'S VALUE SET
>>                 IDENTIFIER'S VALUE USED
<>                 IDENTIFIER SET AND/OR USED
--                 IDENTIFIER REFERENCED
PL6.E3A0      #004=VMS$FMT_EXP File=VMS$SELECT.:VMB6TSI                          WED 08/20/97 15:25 Page:241
          MINI XREF LISTING

CHARPOS
     11577**DCL        17--PROC    13754>>CALLBLT 13755<<ASSIGN  13755>>ASSIGN  13756<>CALL    13757>>CALLBLT
     13758<<ASSIGN  13758>>ASSIGN  13784>>ASSIGN  13785<<ASSIGN  13785>>ASSIGN  13810>>ASSIGN  13811<<ASSIGN
     13811>>ASSIGN  13836>>ASSIGN  13837<<ASSIGN  13837>>ASSIGN  13862>>ASSIGN  13863<<ASSIGN  13863>>ASSIGN
     13888>>ASSIGN  13889<<ASSIGN  13889>>ASSIGN  13914>>ASSIGN  13915<<ASSIGN  13915>>ASSIGN  13940>>ASSIGN
     13941<<ASSIGN  13941>>ASSIGN  13966>>ASSIGN  13967<<ASSIGN  13967>>ASSIGN  13992>>ASSIGN  13993<<ASSIGN
     13993>>ASSIGN  14018>>ASSIGN  14019<<ASSIGN  14019>>ASSIGN  14044>>ASSIGN  14045<<ASSIGN  14045>>ASSIGN
     14070>>ASSIGN  14071<<ASSIGN  14071>>ASSIGN  14096>>ASSIGN  14097<<ASSIGN  14097>>ASSIGN  14122>>ASSIGN
     14123<<ASSIGN  14123>>ASSIGN  14148>>ASSIGN  14149<<ASSIGN  14149>>ASSIGN  14174>>ASSIGN  14175<<ASSIGN
     14175>>ASSIGN  14200>>ASSIGN  14201<<ASSIGN  14201>>ASSIGN  14226>>ASSIGN  14227<<ASSIGN  14227>>ASSIGN
     14252>>ASSIGN  14253<<ASSIGN  14253>>ASSIGN  14278>>CALLBLT 14279<<ASSIGN  14279>>ASSIGN  14305>>CALLBLT
     14306<<ASSIGN  14306>>ASSIGN  14332>>CALLBLT 14333<<ASSIGN  14333>>ASSIGN  14359>>CALLBLT 14360<<ASSIGN
     14360>>ASSIGN  14386>>CALLBLT 14387<<ASSIGN  14387>>ASSIGN  14391>>CALLBLT 14392<<ASSIGN  14392>>ASSIGN
     14394>>CALLBLT 14395<<ASSIGN  14395>>ASSIGN  14398>>CALLBLT 14399<<ASSIGN  14399>>ASSIGN  14400>>CALLBLT
     14401<<ASSIGN  14401>>ASSIGN  14426>>CALLBLT 14427<<ASSIGN  14427>>ASSIGN  14453>>CALLBLT 14454<<ASSIGN
     14454>>ASSIGN  14458>>CALLBLT 14459<<ASSIGN  14459>>ASSIGN  14461>>CALLBLT 14462<<ASSIGN  14462>>ASSIGN
     14464>>CALLBLT 14465<<ASSIGN  14465>>ASSIGN  14467>>CALLBLT 14468<<ASSIGN  14468>>ASSIGN  14470>>CALLBLT
     14471<<ASSIGN  14471>>ASSIGN  14473>>CALLBLT 14474<<ASSIGN  14474>>ASSIGN  14488>>CALLBLT 14489<<ASSIGN
     14489>>ASSIGN  14492>>CALLBLT 14493<<ASSIGN  14493>>ASSIGN  14498>>CALLBLT 14499<<ASSIGN  14499>>ASSIGN
     14503>>IF      14506<<ASSIGN
CMPR_DATE
     14454**LABEL   14428--GOTO
CMPR_STR
     14387**LABEL   14280--GOTO    14307--GOTO    14334--GOTO    14361--GOTO
DELIM
     11608**DCL     14482<<ASSIGN  14484<<ASSIGN  14492>>CALLBLT
END1
     11609**DCL     13749<<ASSIGN  13750>>DOINDEX
END2
     11610**DCL     14477<<ASSIGN  14478>>DOINDEX 14496>>IF
END3
     11611**DCL     14486<<ASSIGN  14487>>DOINDEX 14490>>IF
PL6.E3A0      #004=VMS$FMT_EXP File=VMS$SELECT.:VMB6TSI                          WED 08/20/97 15:25 Page:242
ERRMSG_FID.L#
      7922**DCL      7922--IMP-SIZ
E_CHAR_ACKNOWLEDGMENT
     13180**DCL     13770<>CALL
E_CHAR_AND
     12496**DCL     14160<>CALL
E_CHAR_ANSWER
     13104**DCL     13796<>CALL
E_CHAR_BROADCAST
     11812**DCL     13822<>CALL
E_CHAR_DELETED
     11964**DCL     13848<>CALL
E_CHAR_DELIVERY
     11888**DCL     13874<>CALL
E_CHAR_ERROR
     12040**DCL     13900<>CALL
E_CHAR_EXAMINED
     13484**DCL     13926<>CALL
E_CHAR_FCOPY
     12116**DCL     13952<>CALL
E_CHAR_FROM
     12192**DCL     14264<>CALL
E_CHAR_FWD
     13028**DCL     13978<>CALL
E_CHAR_MARKED
     12268**DCL     14004<>CALL
E_CHAR_NEW
     12344**DCL     14030<>CALL
E_CHAR_NEXT
     13256**DCL     14056<>CALL
E_CHAR_NOT
     12648**DCL     14212<>CALL
E_CHAR_OLD
     12420**DCL     14108<>CALL
E_CHAR_OR
     12572**DCL     14186<>CALL
PL6.E3A0      #004=VMS$FMT_EXP File=VMS$SELECT.:VMB6TSI                          WED 08/20/97 15:25 Page:243
E_CHAR_PREVIOUS
     13332**DCL     14082<>CALL
E_CHAR_RCVD
     13712**DCL     14439<>CALL
E_CHAR_REFERENCE
     12724**DCL     14291<>CALL
E_CHAR_REPLYTO
     12800**DCL     14318<>CALL
E_CHAR_RR
     13560**DCL     14238<>CALL
E_CHAR_SENT
     13636**DCL     14412<>CALL
E_CHAR_SUBJECT
     12876**DCL     14345<>CALL
E_CHAR_TO
     12952**DCL     14372<>CALL
E_CHAR_UNEXAMINED
     13408**DCL     14134<>CALL
INDX1
     11602**DCL     13750<<DOINDEX 13751>>ASSIGN
INDX2
     11603**DCL     14478<<DOINDEX 14479>>ASSIGN  14496>>IF
INDX3
     11604**DCL     14487<<DOINDEX 14488>>CALLBLT 14488>>CALLBLT 14489>>ASSIGN  14490>>IF
P$B.CODE
     11627**DCL     13752>>DOCASE  14389>>DOCASE  14456>>DOCASE  14480>>DOCASE
P$B.NSUBLKS
     11631**DCL     13749>>ASSIGN  14477>>ASSIGN  14486>>ASSIGN
P$B.SUBLK$
     11652**DCL     13751>>ASSIGN  14389>>DOCASE  14397>>ASSIGN  14397>>ASSIGN  14456>>DOCASE  14476>>ASSIGN
     14476>>ASSIGN  14479>>ASSIGN  14488>>CALLBLT 14488>>CALLBLT 14489>>ASSIGN
P$S.COUNT
     11688**DCL     11691--IMP-SIZ 14398>>CALLBLT 14399>>ASSIGN  14488>>CALLBLT 14489>>ASSIGN
P$S.TEXT
     11691**DCL     14398>>CALLBLT 14488>>CALLBLT
PTR1$
PL6.E3A0      #004=VMS$FMT_EXP File=VMS$SELECT.:VMB6TSI                          WED 08/20/97 15:25 Page:244
     11605**DCL     13751<<ASSIGN  13752>>DOCASE  13756<>CALL    14389>>DOCASE  14397>>ASSIGN  14456>>DOCASE
     14476>>ASSIGN
PTR2$
     11606**DCL     14397<<ASSIGN  14398>>CALLBLT 14398>>CALLBLT 14399>>ASSIGN  14476<<ASSIGN  14477>>ASSIGN
     14479>>ASSIGN
PTR3$
     11607**DCL     14479<<ASSIGN  14480>>DOCASE  14486>>ASSIGN  14488>>CALLBLT 14488>>CALLBLT 14489>>ASSIGN
TEXTC
     11573**DCL        17--PROC    13756<>CALL
TEXTC.SIZ
     11574**DCL     11575--IMP-SIZ 13754>>CALLBLT 13756>>CALL    13757>>CALLBLT 13784>>ASSIGN  13810>>ASSIGN
     13836>>ASSIGN  13862>>ASSIGN  13888>>ASSIGN  13914>>ASSIGN  13940>>ASSIGN  13966>>ASSIGN  13992>>ASSIGN
     14018>>ASSIGN  14044>>ASSIGN  14070>>ASSIGN  14096>>ASSIGN  14122>>ASSIGN  14148>>ASSIGN  14174>>ASSIGN
     14200>>ASSIGN  14226>>ASSIGN  14252>>ASSIGN  14278>>CALLBLT 14305>>CALLBLT 14332>>CALLBLT 14359>>CALLBLT
     14386>>CALLBLT 14391>>CALLBLT 14394>>CALLBLT 14398>>CALLBLT 14400>>CALLBLT 14426>>CALLBLT 14453>>CALLBLT
     14458>>CALLBLT 14461>>CALLBLT 14464>>CALLBLT 14467>>CALLBLT 14470>>CALLBLT 14473>>CALLBLT 14488>>CALLBLT
     14492>>CALLBLT 14498>>CALLBLT
TEXTC.TEXT
     11575**DCL     13754<<CALLBLT 13757<<CALLBLT 13784<<ASSIGN  13810<<ASSIGN  13836<<ASSIGN  13862<<ASSIGN
     13888<<ASSIGN  13914<<ASSIGN  13940<<ASSIGN  13966<<ASSIGN  13992<<ASSIGN  14018<<ASSIGN  14044<<ASSIGN
     14070<<ASSIGN  14096<<ASSIGN  14122<<ASSIGN  14148<<ASSIGN  14174<<ASSIGN  14200<<ASSIGN  14226<<ASSIGN
     14252<<ASSIGN  14278<<CALLBLT 14305<<CALLBLT 14332<<CALLBLT 14359<<CALLBLT 14386<<CALLBLT 14391<<CALLBLT
     14394<<CALLBLT 14398<<CALLBLT 14400<<CALLBLT 14426<<CALLBLT 14453<<CALLBLT 14458<<CALLBLT 14461<<CALLBLT
     14464<<CALLBLT 14467<<CALLBLT 14470<<CALLBLT 14473<<CALLBLT 14488<<CALLBLT 14492<<CALLBLT 14498<<CALLBLT
TREE$
     11571**DCL        17--PROC    13749>>ASSIGN  13751>>ASSIGN
VMD$ERRMSG
     11581**DCL-ENT 13770--CALL    13796--CALL    13822--CALL    13848--CALL    13874--CALL    13900--CALL
     13926--CALL    13952--CALL    13978--CALL    14004--CALL    14030--CALL    14056--CALL    14082--CALL
     14108--CALL    14134--CALL    14160--CALL    14186--CALL    14212--CALL    14238--CALL    14264--CALL
     14291--CALL    14318--CALL    14345--CALL    14372--CALL    14412--CALL    14439--CALL
VMS$FMT_EXP
        17**PROC    13756--CALL
VM_CHAR_ACKNOWLEDGMENT
     13165**DCL     13770<>CALL
VM_CHAR_ACKNOWLEDGMENT.L#
PL6.E3A0      #004=VMS$FMT_EXP File=VMS$SELECT.:VMB6TSI                          WED 08/20/97 15:25 Page:245
     13165**DCL     13785>>ASSIGN
VM_CHAR_ACKNOWLEDGMENT.NAME#
     13165**DCL     13768>>IF      13784>>ASSIGN
VM_CHAR_AND
     12481**DCL     14160<>CALL
VM_CHAR_AND.L#
     12481**DCL     14175>>ASSIGN
VM_CHAR_AND.NAME#
     12481**DCL     14158>>IF      14174>>ASSIGN
VM_CHAR_ANSWER
     13089**DCL     13796<>CALL
VM_CHAR_ANSWER.L#
     13089**DCL     13811>>ASSIGN
VM_CHAR_ANSWER.NAME#
     13089**DCL     13794>>IF      13810>>ASSIGN
VM_CHAR_BROADCAST
     11797**DCL     13822<>CALL
VM_CHAR_BROADCAST.L#
     11797**DCL     13837>>ASSIGN
VM_CHAR_BROADCAST.NAME#
     11797**DCL     13820>>IF      13836>>ASSIGN
VM_CHAR_DELETED
     11949**DCL     13848<>CALL
VM_CHAR_DELETED.L#
     11949**DCL     13863>>ASSIGN
VM_CHAR_DELETED.NAME#
     11949**DCL     13846>>IF      13862>>ASSIGN
VM_CHAR_DELIVERY
     11873**DCL     13874<>CALL
VM_CHAR_DELIVERY.L#
     11873**DCL     13889>>ASSIGN
VM_CHAR_DELIVERY.NAME#
     11873**DCL     13872>>IF      13888>>ASSIGN
VM_CHAR_ERROR
     12025**DCL     13900<>CALL
VM_CHAR_ERROR.L#
PL6.E3A0      #004=VMS$FMT_EXP File=VMS$SELECT.:VMB6TSI                          WED 08/20/97 15:25 Page:246
     12025**DCL     13915>>ASSIGN
VM_CHAR_ERROR.NAME#
     12025**DCL     13898>>IF      13914>>ASSIGN
VM_CHAR_EXAMINED
     13469**DCL     13926<>CALL
VM_CHAR_EXAMINED.L#
     13469**DCL     13941>>ASSIGN
VM_CHAR_EXAMINED.NAME#
     13469**DCL     13924>>IF      13940>>ASSIGN
VM_CHAR_FCOPY
     12101**DCL     13952<>CALL
VM_CHAR_FCOPY.L#
     12101**DCL     13967>>ASSIGN
VM_CHAR_FCOPY.NAME#
     12101**DCL     13950>>IF      13966>>ASSIGN
VM_CHAR_FROM
     12177**DCL     14264<>CALL
VM_CHAR_FROM.L#
     12177**DCL     14278>>CALLBLT 14279>>ASSIGN
VM_CHAR_FROM.NAME#
     12177**DCL     14262>>IF      14278>>CALLBLT
VM_CHAR_FWD
     13013**DCL     13978<>CALL
VM_CHAR_FWD.L#
     13013**DCL     13993>>ASSIGN
VM_CHAR_FWD.NAME#
     13013**DCL     13976>>IF      13992>>ASSIGN
VM_CHAR_MARKED
     12253**DCL     14004<>CALL
VM_CHAR_MARKED.L#
     12253**DCL     14019>>ASSIGN
VM_CHAR_MARKED.NAME#
     12253**DCL     14002>>IF      14018>>ASSIGN
VM_CHAR_NEW
     12329**DCL     14030<>CALL
VM_CHAR_NEW.L#
PL6.E3A0      #004=VMS$FMT_EXP File=VMS$SELECT.:VMB6TSI                          WED 08/20/97 15:25 Page:247
     12329**DCL     14045>>ASSIGN
VM_CHAR_NEW.NAME#
     12329**DCL     14028>>IF      14044>>ASSIGN
VM_CHAR_NEXT
     13241**DCL     14056<>CALL
VM_CHAR_NEXT.L#
     13241**DCL     14071>>ASSIGN
VM_CHAR_NEXT.NAME#
     13241**DCL     14054>>IF      14070>>ASSIGN
VM_CHAR_NOT
     12633**DCL     14212<>CALL
VM_CHAR_NOT.L#
     12633**DCL     14227>>ASSIGN
VM_CHAR_NOT.NAME#
     12633**DCL     14210>>IF      14226>>ASSIGN
VM_CHAR_OLD
     12405**DCL     14108<>CALL
VM_CHAR_OLD.L#
     12405**DCL     14123>>ASSIGN
VM_CHAR_OLD.NAME#
     12405**DCL     14106>>IF      14122>>ASSIGN
VM_CHAR_OR
     12557**DCL     14186<>CALL
VM_CHAR_OR.L#
     12557**DCL     14201>>ASSIGN
VM_CHAR_OR.NAME#
     12557**DCL     14184>>IF      14200>>ASSIGN
VM_CHAR_PREVIOUS
     13317**DCL     14082<>CALL
VM_CHAR_PREVIOUS.L#
     13317**DCL     14097>>ASSIGN
VM_CHAR_PREVIOUS.NAME#
     13317**DCL     14080>>IF      14096>>ASSIGN
VM_CHAR_RCVD
     13697**DCL     14439<>CALL
VM_CHAR_RCVD.L#
PL6.E3A0      #004=VMS$FMT_EXP File=VMS$SELECT.:VMB6TSI                          WED 08/20/97 15:25 Page:248
     13697**DCL     14453>>CALLBLT 14454>>ASSIGN
VM_CHAR_RCVD.NAME#
     13697**DCL     14437>>IF      14453>>CALLBLT
VM_CHAR_REFERENCE
     12709**DCL     14291<>CALL
VM_CHAR_REFERENCE.L#
     12709**DCL     14305>>CALLBLT 14306>>ASSIGN
VM_CHAR_REFERENCE.NAME#
     12709**DCL     14289>>IF      14305>>CALLBLT
VM_CHAR_REPLYTO
     12785**DCL     14318<>CALL
VM_CHAR_REPLYTO.L#
     12785**DCL     14332>>CALLBLT 14333>>ASSIGN
VM_CHAR_REPLYTO.NAME#
     12785**DCL     14316>>IF      14332>>CALLBLT
VM_CHAR_RR
     13545**DCL     14238<>CALL
VM_CHAR_RR.L#
     13545**DCL     14253>>ASSIGN
VM_CHAR_RR.NAME#
     13545**DCL     14236>>IF      14252>>ASSIGN
VM_CHAR_SENT
     13621**DCL     14412<>CALL
VM_CHAR_SENT.L#
     13621**DCL     14426>>CALLBLT 14427>>ASSIGN
VM_CHAR_SENT.NAME#
     13621**DCL     14410>>IF      14426>>CALLBLT
VM_CHAR_SUBJECT
     12861**DCL     14345<>CALL
VM_CHAR_SUBJECT.L#
     12861**DCL     14359>>CALLBLT 14360>>ASSIGN
VM_CHAR_SUBJECT.NAME#
     12861**DCL     14343>>IF      14359>>CALLBLT
VM_CHAR_TO
     12937**DCL     14372<>CALL
VM_CHAR_TO.L#
PL6.E3A0      #004=VMS$FMT_EXP File=VMS$SELECT.:VMB6TSI                          WED 08/20/97 15:25 Page:249
     12937**DCL     14386>>CALLBLT 14387>>ASSIGN
VM_CHAR_TO.NAME#
     12937**DCL     14370>>IF      14386>>CALLBLT
VM_CHAR_UNEXAMINED
     13393**DCL     14134<>CALL
VM_CHAR_UNEXAMINED.L#
     13393**DCL     14149>>ASSIGN
VM_CHAR_UNEXAMINED.NAME#
     13393**DCL     14132>>IF      14148>>ASSIGN
X$STRING.SIZ
      7768**DCL      7769--IMP-SIZ
