VERSION B06

PL6.E3A0      #001=VMS$SELECT File=VMS$SELECT.:VMB6TSI                           WED 08/20/97 15:24 Page:1
        1        1        /*M* VMS$SELECT - Routines to evaluate SELECTION CRITERIA for messages. */
        2        2        /*T***********************************************************/
        3        3        /*T*                                                         */
        4        4        /*T* Copyright (c) Bull HN Information Systems Inc., 1997    */
        5        5        /*T*                                                         */
        6        6        /*T***********************************************************/
        7        7        /*X* DMC,PLM=4,IND=4,CTI=2,DTI=0,ENI=0,ECI=0,CSI=0,DCI=4 */
        8        8        /*F*    NAME:          VMS$SELECT
        9        9                PURPOSE:       To evaluate MAIL selection criteria expressions.
       10       10                DESCRIPTION:   This RECURSIVE routine uses operator
       11       11                               precedence to parse expressions.
       12       12        */
       13       13        VMS$SELECT: PROC (TREE$,VM_SELECT,RESULT$) ALTRET;
       14       14        /***** Include files *****/
       15       15          %INCLUDE CP_6;
       16     5574          %INCLUDE CP_6_SUBS;
       17     6114          %INCLUDE B_ERRORS_C;
       18     7241          %INCLUDE XU_MACRO_C;
       19    10347          %INCLUDE XUW_MACRO_C;
       20    10482        %EJECT;
PL6.E3A0      #001=VMS$SELECT File=VMS$SELECT.:VMB6TSI                           WED 08/20/97 15:24 Page:2
       21    10483
       22    10484        /***** Local Equates *****/
       23    10485        %INCLUDE XUD_UTS_M;
       24    10567             %XUD$UTS_ENTRIES;
       25    10599             %XUD_UTS_EQU;
       26    10610        %EQU MINS_PER_DAY = 1440;
       27    10611          %INCLUDE VM_PERR_C;
       28    10906          %INCLUDE VM_MACRO_C;
       29    12174          %INCLUDE VM_SUBS_C;
       30    12434          %INCLUDE VM_DATA_R;
       31    12865            %include B$TABLES_C;
       32    12973             %B$XL_UPPER(NAME=LOWER_UPPER);
       33    12977        /***** Parameters *****/
       34    12978    1   DCL TREE$ PTR;
       35    12979          %VM_SELECT (NAME=VM_SELECT,STCLASS=" ");
       36    13000    1   DCL RESULT$ PTR;
       37    13001        /***** Based structures *****/
       38    13002          %PARSE$OUT (NAME=P$B,STCLASS=BASED);
       39    13047          %PARSE$SYM (NAME=P$S,STCLASS=BASED);
       40    13085          %VM_HEADER;
       41    13214          %B$TCB(STCLASS="BASED(B$TCB$)");
       42    13217          %B$ALT;
       43    13225        /***** Ptr variables *****/
       44    13226    1   DCL VALUE$ PTR AUTO;
       45    13227    1   DCL TOKEN_PTR$ PTR AUTO;
       46    13228        /***** Word/array variables *****/
       47    13229    1   DCL MORE# BIT(1) AUTO;
       48    13230    1   DCL CHARPOS UBIN WORD AUTO;
       49    13231    1   DCL OP_PTR SBIN WORD AUTO;
       50    13232    1   DCL VAL_PTR SBIN WORD AUTO;
       51    13233    1   DCL NUM_ARGS SBIN WORD AUTO;
       52    13234    1   DCL TOKEN_INDX SBIN WORD AUTO;
       53    13235    1   DCL TOKEN UBIN WORD AUTO;
       54    13236        /***** Character variables *****/
       55    13237          %VLP_NAME (FPTN=WORK1,LEN=511,STCLASS=AUTO);
       56    13264          %VLP_NAME (FPTN=WORK2,LEN=511,STCLASS=AUTO);
       57    13291        /***** Stacks *****/
PL6.E3A0      #001=VMS$SELECT File=VMS$SELECT.:VMB6TSI                           WED 08/20/97 15:24 Page:3
       58    13292    1   DCL OP_STACK (0:%SEL_STACK_SIZE) UBIN AUTO;
       59    13293    1   DCL NUM_TO_POP_STACK (0:%SEL_STACK_SIZE) UBIN AUTO;
       60    13294    1   DCL VAL_STACK$ (0:%(SEL_STACK_SIZE*2)) PTR AUTO;
       61    13295    1   DCL VAL_TYPE (0:%(SEL_STACK_SIZE*2)) UBIN AUTO;
       62    13296    1   DCL CHARPOS_STACK (0:%(SEL_STACK_SIZE*2)) UBIN HALF AUTO;
       63    13297        /***** Constants *****/
       64    13298    1   DCL ZERO$ PTR CONSTANT INIT (ADDR(ZERO));
       65    13299    1   DCL 1  ZERO CONSTANT,
       66    13300    1         2  COUNT UBIN BYTE UNAL INIT (1),
       67    13301    1         2  TEXT CHAR(1) UNAL INIT('0');
       68    13302    1   DCL ONE$ PTR CONSTANT INIT (ADDR(ONE));
       69    13303    1   DCL 1  ONE CONSTANT,
       70    13304    1         2  COUNT UBIN BYTE UNAL INIT (1),
       71    13305    1         2  TEXT CHAR(1) UNAL INIT('1');
       72    13306        /***** External routines *****/
       73    13307    1   DCL X$DEC_CONVERT ENTRY(2) ALTRET;
       74    13308    1   DCL X$STRIP_BLANKS ENTRY(1);
       75    13309    1   DCL VMA$COMPRESS_BLANKS ENTRY(1);
       76    13310    1   DCL X$WILDCMP ENTRY(1) ALTRET;
       77    13311        /***** Fpts *****/
       78    13312          %XUW_WILDCARD (FPTN=VM_WILDCARD,STCLASS=STATIC,CONTAINS=YES);
       79    13408        %EJECT;
PL6.E3A0      #001=VMS$SELECT File=VMS$SELECT.:VMB6TSI                           WED 08/20/97 15:24 Page:4
       80    13409        /***** Macros *****/
       81    13410          %MACRO ERR_CODE (NAME=JUNK,CODE=0,SEV=0);
       82    13411            %VLP_ERRCODE (FPTN=NAME,
       83    13412                          FCG="VM",
       84    13413                          MID="S",
       85    13414                          ERR#=CODE,
       86    13415                          STCLASS=CONSTANT);
       87    13416          %MEND;
       88    13417        /**/
       89    13418          %MACRO PUSH_VALUE (TYPE=511,CPOS=CHARPOS);
       90    13419            VAL_PTR = VAL_PTR + 1;
       91    13420            IF VAL_PTR > %SEL_STACK_SIZE
       92    13421            THEN
       93    13422            DO;                           /* Return error */
       94    13423                VM_SELECT.ERROR = E_STKOVFL;
       95    13424                VM_SELECT.ERR_POS# = CHARPOS;
       96    13425                ALTRETURN;
       97    13426            END;
       98    13427            ELSE
       99    13428            DO;                           /* Stash value, VAL_TYPE and charpos */
      100    13429                VAL_STACK$(VAL_PTR) = VALUE$;
      101    13430                VAL_TYPE(VAL_PTR) = TYPE;
      102    13431                CHARPOS_STACK(VAL_PTR) = CPOS;
      103    13432            END;
      104    13433          %MEND;
      105    13434        /**/
      106    13435        %MACRO PUSH_OPERATOR (NARGS=0);
      107    13436            OP_PTR = OP_PTR + 1;
      108    13437            IF OP_PTR > %SEL_STACK_SIZE
      109    13438            THEN
      110    13439            DO;                           /* Return error */
      111    13440                VM_SELECT.ERROR = E_STKOVFL;
      112    13441                VM_SELECT.ERR_POS# = CHARPOS;
      113    13442                ALTRETURN;
      114    13443            END;
      115    13444            ELSE
      116    13445            DO;
PL6.E3A0      #001=VMS$SELECT File=VMS$SELECT.:VMB6TSI                           WED 08/20/97 15:24 Page:5
      117    13446                OP_STACK(OP_PTR) = TOKEN;
      118    13447                NUM_TO_POP_STACK(OP_PTR) = NARGS;
      119    13448            END;
      120    13449        %MEND;
      121    13450        %EJECT;
PL6.E3A0      #001=VMS$SELECT File=VMS$SELECT.:VMB6TSI                           WED 08/20/97 15:24 Page:6
      122    13451        /***** Error codes *****/
      123    13452            %ERR_CODE (NAME=E_STKOVFL,CODE=%E$STKOVFL);
      124    13503          /*E*    ERROR: VMS-E$STKOVFL-0
      125    13504                  MESSAGE: Stack overflow. Expression too complex.
      126    13505                  MESSAGE1: Grouping with extra parenthesis may help.
      127    13506          */
      128    13507              %ERR_CODE (NAME=E_NONDECIMAL,CODE=%E$NONDECIMAL);
      129    13558          /*E*    ERROR: VMS-E$NONDECIMAL-0
      130    13559                  MESSAGE: Valid DECIMAL value required here.
      131    13560                  MESSAGE1: The specified value may have been too large to process,
      132    13561           or it may have had illegal characters imbeded.
      133    13562          */
      134    13563              %ERR_CODE (NAME=E_STKFLT,CODE=%E$STKFLT);
      135    13614          /*E*    ERROR: VMS-E$STKFLT-0
      136    13615                  MESSAGE: Evaluation of this expression is not possible.
      137    13616                  MESSAGE1: The expression is meaningless.
      138    13617          */
      139    13618              %ERR_CODE (NAME=E_ILLEGALNULL,CODE=%E$ILLEGALNULL);
      140    13669          /*E*    ERROR: VMS-E$ILLEGALNULL-0
      141    13670                  MESSAGE: Null string not allowed here.
      142    13671        */
      143    13672        %EJECT;
PL6.E3A0      #001=VMS$SELECT File=VMS$SELECT.:VMB6TSI                           WED 08/20/97 15:24 Page:7
      144    13673        /*
      145    13674             ***** Precidence array ...
      146    13675        */
      147    13676    1   DCL PRECIDENCE (0:%SEL_OPTAB_SIZE)
      148    13677    1        UBIN CONSTANT INIT (
      149    13678    1        0, 0, 3, 2, 1, 4, 4, 4, 4, 4, 4,
      150    13679    1        99*0);
      151    13680        /*
      152    13681             ***** NUM_TO_POP specifies how many operands an operator
      153    13682                   or function may have. Where a function may have an
      154    13683                   arbirtray number of arguments this table will have
      155    13684                   511. The actual number will be contained in the
      156    13685                   stack NUM_TO_POP_STACK. This stack is parallel to OP_STACK.
      157    13686                   NOTE: The max number of args is determined by the size
      158    13687                         of VAL_STACK$.
      159    13688        */
      160    13689    1   DCL NUM_TO_POP (0:%SEL_OPTAB_SIZE)
      161    13690    1        UBIN CONSTANT INIT (
      162    13691                                                /* Operators */
      163    13692    1        0, 0, 1, 2, 2, 2, 2, 2, 2, 2, 2,
      164    13693                                                /* Functions */
      165    13694    1        0, 0, 0, 0, 0, 0, 1, 0, 0, 0, 1, 1, 0, 0, 0, 1, 1, 0, 0, 0, 0, 0, 1, 1);
      166    13695        %EJECT;
PL6.E3A0      #001=VMS$SELECT File=VMS$SELECT.:VMB6TSI                           WED 08/20/97 15:24 Page:8
      167    13696    1   LEX: PROC (TOKEN,VALUE$) ALTRET;
      168    13697        /***** Parameters *****/
      169    13698    2   DCL TOKEN UBIN WORD;
      170    13699    2   DCL VALUE$ PTR;
      171    13700        /***** Auto variables *****/
      172    13701    2   DCL NAME$ PTR AUTO;
      173    13702    2       TOKEN_INDX = TOKEN_INDX + 1;
      174    13703    2       IF TOKEN_INDX = TREE$ -> P$B.NSUBLKS
      175    13704    2       THEN                            /* End of the expression */
      176    13705    2           TOKEN = %SEL_END_MARKER;
      177    13706    2       ELSE
      178    13707    3       DO;
      179    13708    3           TOKEN_PTR$ = TREE$->P$B.SUBLK$(TOKEN_INDX);
      180    13709    3           TOKEN = TOKEN_PTR$ -> P$B.CODE; /* Current lexical token */
      181    13710    3           CHARPOS = TOKEN_PTR$ -> P$B.CPOS; /* Charpos of token */
      182    13711    4           DO CASE (TREE$->P$B.SUBLK$(TOKEN_INDX)->P$B.CODE);
      183    13712    4           CASE (%SEL_EXP);
      184    13713    4               CALL VMS$SELECT (TOKEN_PTR$,VM_SELECT,VALUE$) ALTRET(E_LEX);
      185    13714    4           CASE (%SEL_DECIMAL);
      186    13715    4               VALUE$ = TOKEN_PTR$ -> P$S.TEXTC$;
      187    13716    4           CASE (%SEL_QUOTE);
      188    13717    4               VALUE$ = TOKEN_PTR$ -> P$S.TEXTC$;
      189    13718    4               IF VALUE$ -> X$STRING.SIZ = 0
      190    13719    4               THEN             /* Error!!! */
      191    13720    5               DO;
      192    13721    5                   VM_SELECT.ERROR = E_ILLEGALNULL;
      193    13722    5                   VM_SELECT.ERR_POS# = CHARPOS;
      194    13723    5                   ALTRETURN;
      195    13724    5               END;
      196    13725    4           CASE (ELSE);
      197    13726                                                /* Functions, operators */
      198    13727    4           END;                   /* Do case ... end */
      199    13728    3       END;                       /* Do ... end */
      200    13729    2       RETURN;
      201    13730        /**/
      202    13731    2   E_LEX:
      203    13732    2       ALTRETURN;
PL6.E3A0      #001=VMS$SELECT File=VMS$SELECT.:VMB6TSI                           WED 08/20/97 15:24 Page:9
      204    13733    2   END LEX;
      205    13734        %EJECT;
PL6.E3A0      #001=VMS$SELECT File=VMS$SELECT.:VMB6TSI                           WED 08/20/97 15:24 Page:10
      206    13735    1   GET_ARGS: PROC (NUM_ARGS) ALTRET;
      207    13736        /***** Parameters *****/
      208    13737    2   DCL NUM_ARGS SBIN WORD;
      209    13738        /***** Local variables *****/
      210    13739    2   DCL ARG_INDX SBIN WORD AUTO;
      211    13740    2   DCL ARG_PTR$ PTR AUTO;
      212    13741    2   DCL VALUE$ PTR AUTO;
      213    13742        /**/
      214    13743    2       NUM_ARGS = NUM_TO_POP(TOKEN);
      215    13744    3       DO ARG_INDX = 0 TO TOKEN_PTR$ -> P$B.NSUBLKS - 1;
      216    13745    3           VALUE$ = TOKEN_PTR$ -> P$B.SUBLK$(ARG_INDX);
      217    13746        /*
      218    13747             ***** For the moment, only quote strings (i.e. no expressions)
      219    13748                   are valid arguments to a function ...
      220    13749                   Push pointer to operator, which precedes the value, onto stack
      221    13750        */
      222    13751                %PUSH_VALUE (CPOS="VALUE$ -> P$B.CPOS");
      223    13767    3       END;                            /* Do ARG_INDX ... end */
      224    13768    2   END GET_ARGS;
      225    13769        %EJECT;
PL6.E3A0      #001=VMS$SELECT File=VMS$SELECT.:VMB6TSI                           WED 08/20/97 15:24 Page:11
      226    13770    1   REDUCE: PROC ALTRET;
      227    13771        /***** Auto variables *****/
      228    13772    2   DCL STRING$ PTR;
      229    13773    2   DCL TEMP1 SBIN WORD AUTO;
      230    13774    2   DCL DATE1 REDEF TEMP1 UBIN WORD;
      231    13775    2   DCL TEMP2 SBIN WORD AUTO;
      232    13776    2   DCL DATE2 REDEF TEMP2 UBIN WORD;
      233    13777    2   DCL DATE3 UBIN WORD;
      234    13778    2   DCL K UBIN AUTO;
      235    13779        /***** Ptrs *****/
      236    13780    2   DCL VALUE$ PTR AUTO;
      237    13781        /***** Character variables *****/
      238    13782        /***** Constants *****/
      239    13783        %EJECT;
PL6.E3A0      #001=VMS$SELECT File=VMS$SELECT.:VMB6TSI                           WED 08/20/97 15:24 Page:12
      240    13784        /***** Initialization *****/
      241    13785    2       VALUE$ = ZERO$;
      242    13786        /*
      243    13787             ***** Make sure that there are enough entries in the
      244    13788                   operand stack for this operator to operate upon ...
      245    13789        */
      246    13790    2       IF NUM_TO_POP_STACK(OP_PTR) > VAL_PTR+1
      247    13791    2       THEN                            /* Stacks are not right */
      248    13792    3       DO;
      249    13793    3           VM_SELECT.ERROR = E_STKFLT;
      250    13794    3           VM_SELECT.ERR_POS# = CHARPOS_STACK(0);
      251    13795    3           GOTO E_REDUCE;
      252    13796    3       END;
      253    13797        /*
      254    13798             ***** Reduce the operator and value stacks as necessary ...
      255    13799        */
      256    13800    3       DO CASE (OP_STACK(OP_PTR));
      257    13801    3       CASE (%SEL_NOT);
      258    13802    3           CALL X$DEC_CONVERT (VAL_STACK$(VAL_PTR),TEMP1) ALTRET(E_DEC2);
      259    13803    3           IF TEMP1 > 0
      260    13804    3           THEN
      261    13805    3               VALUE$ = ZERO$;
      262    13806    3           ELSE
      263    13807    3               VALUE$ = ONE$;
      264    13808    3       CASE (%SEL_AND);
      265    13809    3           CALL X$DEC_CONVERT (VAL_STACK$(VAL_PTR-1),TEMP1) ALTRET(E_DEC1);
      266    13810    3           CALL X$DEC_CONVERT (VAL_STACK$(VAL_PTR),TEMP2) ALTRET(E_DEC2);
      267    13811    3           IF TEMP1 > 0
      268    13812    3             AND TEMP2 > 0
      269    13813    3           THEN
      270    13814    3               VALUE$ = ONE$;
      271    13815    3       CASE (%SEL_OR);
      272    13816    3           CALL X$DEC_CONVERT (VAL_STACK$(VAL_PTR-1),TEMP1) ALTRET(E_DEC1);
      273    13817    3           CALL X$DEC_CONVERT (VAL_STACK$(VAL_PTR),TEMP2) ALTRET(E_DEC2);
      274    13818    3           IF TEMP1 > 0
      275    13819    3             OR TEMP2 > 0
      276    13820    3           THEN
PL6.E3A0      #001=VMS$SELECT File=VMS$SELECT.:VMB6TSI                           WED 08/20/97 15:24 Page:13
      277    13821    3               VALUE$ = ONE$;
      278    13822    3       CASE (%SEL_ACKNOWLEDGMENT);
      279    13823    3           IF VM_HEADER.STATUS.ACK
      280    13824    3           THEN
      281    13825    3               VALUE$ = ONE$;
      282    13826    3       CASE (%SEL_ANSWER);
      283    13827    3           IF VM_HEADER.STATUS.ANSWER
      284    13828    3           THEN
      285    13829    3               VALUE$ = ONE$;
      286    13830    3       CASE (%SEL_BROADCAST);
      287    13831    3           IF VM_HEADER.STATUS.BROADCAST
      288    13832    3           THEN
      289    13833    3               VALUE$ = ONE$;
      290    13834    3       CASE (%SEL_DATE_RCVD);
      291    13835    3           DATE1 = VM_HEADER.DELIVERY_DATE;
      292    13836    3           GOTO DATE_COMPARER;
      293    13837    3       CASE (%SEL_DATE_SENT);
      294    13838    3           DATE1 = VM_HEADER.CREATION_DATE;
      295    13839    3   DATE_COMPARER:
      296    13840    3           CALL DATE_INIT (VAL_STACK$(VAL_PTR) -> P$B.SUBLK$(0)) ALTRET(E_DATE);
      297    13841    3           K = VAL_STACK$(VAL_PTR)->P$B.SUBLK$(0)->P$B.SCRITCH * %UTS_25TH_MIN#;
      298    13842    3           DATE2 = VAL_STACK$(VAL_PTR)->P$B.SUBLK$(0)->P$B.CPOS;
      299    13843    3           CALL XUD$UTS_ADJ_25TH (DATE3, DATE2, K);
      300    13844    4           DO CASE (VAL_STACK$(VAL_PTR) -> P$B.CODE);
      301    13845    4           CASE (%OPTION_EQ);
      302    13846    4               IF (DATE1 >= DATE2) AND (DATE1 < DATE3)
      303    13847    4               THEN
      304    13848    4                   VALUE$ = ONE$;
      305    13849    4           CASE (%OPTION_NE);
      306    13850    4               IF (DATE1 < DATE2) OR (DATE1 >= DATE3)
      307    13851    4               THEN
      308    13852    4                   VALUE$ = ONE$;
      309    13853    4           CASE (%OPTION_GT);
      310    13854    4               IF DATE1 >= DATE3
      311    13855    4               THEN
      312    13856    4                   VALUE$ = ONE$;
      313    13857    4           CASE (%OPTION_GE);
PL6.E3A0      #001=VMS$SELECT File=VMS$SELECT.:VMB6TSI                           WED 08/20/97 15:24 Page:14
      314    13858    4               IF DATE1 >= DATE2
      315    13859    4               THEN
      316    13860    4                   VALUE$ = ONE$;
      317    13861    4           CASE (%OPTION_LT);
      318    13862    4               IF DATE1 < DATE2
      319    13863    4               THEN
      320    13864    4                   VALUE$ = ONE$;
      321    13865    4           CASE (%OPTION_LE);
      322    13866    4               IF DATE1 < DATE3
      323    13867    4               THEN
      324    13868    4                   VALUE$ = ONE$;
      325    13869    4           END;
      326    13870    3       CASE (%SEL_DELETED);
      327    13871    3           IF VM_HEADER.STATUS.DEL
      328    13872    3           THEN
      329    13873    3               VALUE$ = ONE$;
      330    13874    3       CASE (%SEL_DELIVERY);
      331    13875    3           IF VM_HEADER.STATUS.DELIVERY
      332    13876    3           THEN
      333    13877    3               VALUE$ = ONE$;
      334    13878    3       CASE (%SEL_ERROR);
      335    13879    3           IF VM_HEADER.STATUS.ERR
      336    13880    3           THEN
      337    13881    3               VALUE$ = ONE$;
      338    13882    3       CASE (%SEL_EXAMINED);
      339    13883    3           IF VM_HEADER.STATUS.EXAM
      340    13884    3           THEN
      341    13885    3               VALUE$ = ONE$;
      342    13886    3       CASE (%SEL_FCOPY);
      343    13887    3           IF VM_HEADER.STATUS.FCOPY
      344    13888    3           THEN
      345    13889    3               VALUE$ = ONE$;
      346    13890    3       CASE (%SEL_FROM);
      347    13891    3           STRING$ = VM_HEADER.FROM$;
      348    13892    3           GOTO STRING_COMPARER;
      349    13893    3       CASE (%SEL_FWD);
      350    13894    3           IF VM_HEADER.STATUS.FORWARDED
PL6.E3A0      #001=VMS$SELECT File=VMS$SELECT.:VMB6TSI                           WED 08/20/97 15:24 Page:15
      351    13895    3           THEN
      352    13896    3               VALUE$ = ONE$;
      353    13897    3       CASE (%SEL_MARKED);
      354    13898    3           IF VM_HEADER.STATUS.MARK
      355    13899    3           THEN
      356    13900    3               VALUE$ = ONE$;
      357    13901    3       CASE (%SEL_NEW);
      358    13902    3           IF VM_HEADER.STATUS.OLD = %NO#
      359    13903    3           THEN
      360    13904    3               VALUE$ = ONE$;
      361    13905    3       CASE (%SEL_OLD);
      362    13906    3           IF VM_HEADER.STATUS.OLD
      363    13907    3           THEN
      364    13908    3               VALUE$ = ONE$;
      365    13909    3       CASE (%SEL_REFERENCE);
      366    13910    3           STRING$ = VM_HEADER.REFERENCE$;
      367    13911    3           GOTO STRING_COMPARER;
      368    13912    3       CASE (%SEL_REPLY_TO);
      369    13913    3           STRING$ = VM_HEADER.REPLY_TO$;
      370    13914    3           GOTO STRING_COMPARER;
      371    13915    3       CASE (%SEL_RR);
      372    13916    3           IF VM_HEADER.STATUS.RRACK
      373    13917    3           THEN
      374    13918    3               VALUE$ = ONE$;
      375    13919    3       CASE (%SEL_SUBJECT);
      376    13920    3           STRING$ = VM_HEADER.SUBJECT$;
      377    13921    3           GOTO STRING_COMPARER;
      378    13922    3       CASE (%SEL_TO);
      379    13923    3           STRING$ = VM_HEADER.TO$;
      380    13924    3   STRING_COMPARER:
      381    13925    3           IF STRING$ = ADDR(NIL)
      382    13926    3           THEN                       /* Cannot make this comparison */
      383    13927    3               GOTO NO_MATCH;
      384    13928    3           IF STRING$ -> X$STRING.SIZ = 0
      385    13929    3           THEN                       /* Cannot make this comparison */
      386    13930    3               GOTO NO_MATCH;
      387    13931    3           CALL XLATE (WORK1.NAME#,LOWER_UPPER,VAL_STACK$(VAL_PTR) ->
PL6.E3A0      #001=VMS$SELECT File=VMS$SELECT.:VMB6TSI                           WED 08/20/97 15:24 Page:16
      388    13932    3             P$B.SUBLK$(0) -> P$S.TEXT);
      389    13933    3           WORK1.L# = VAL_STACK$(VAL_PTR) -> P$B.SUBLK$(0) -> P$S.COUNT;
      390    13934    3           CALL XLATE (SUBSTR(WORK2.NAME#,2),LOWER_UPPER,STRING$ ->X$STRING.TEXT);
      391    13935    3           SUBSTR(WORK2.NAME#,0,2) = '. '; /* dummy word to reserve two spaces */
      392    13936    3           WORK2.L# = LENGTHC(WORK2.NAME#);
      393    13937    3           CALL VMA$COMPRESS_BLANKS (ADDR(WORK2));
      394    13938    3           IF WORK2.L# < 2 THEN          /* Cannot make this comparison */
      395    13939    3               GOTO NO_MATCH;
      396    13940    3           WORK2.L# = WORK2.L# + 2; /* add two spaces at end, too */
      397    13941    3           SUBSTR(WORK2.NAME#,0,1) = ' '; /* start with two spaces */
      398    13942    3           VM_WILDCARD.PATTERN_ = VECTOR(SUBSTR(WORK1.NAME#,0,WORK1.L#));
      399    13943    3           VM_WILDCARD.INPUT_ = VECTOR(SUBSTR(WORK2.NAME#,0,WORK2.L#));
      400    13944    3           CALL X$WILDCMP (VM_WILDCARD)
      401    13945    3           WHENRETURN
      402    13946    4           DO;
      403    13947    4               IF VAL_STACK$(VAL_PTR) -> P$B.CODE = %OPTION_EQ THEN
      404    13948    4                   VALUE$ = ONE$;
      405    13949    4               ELSE
      406    13950    4                   VALUE$ = ZERO$;
      407    13951    4           END;
      408    13952    3           WHENALTRETURN
      409    13953    4           DO;
      410    13954    4   NO_MATCH:
      411    13955    4               IF VAL_STACK$(VAL_PTR) -> P$B.CODE = %OPTION_NE THEN
      412    13956    4                   VALUE$ = ONE$;
      413    13957    4               ELSE
      414    13958    4                   VALUE$ = ZERO$;
      415    13959    4           END;
      416    13960    3       CASE (%SEL_UNEXAMINED);
      417    13961    3           IF VM_HEADER.STATUS.EXAM = %NO#
      418    13962    3           THEN
      419    13963    3               VALUE$ = ONE$;
      420    13964    3       CASE (ELSE);
      421    13965    3       END;                             /* Do case ... end */
      422    13966        /*
      423    13967             ***** Reduce the value stack...
      424    13968        */
PL6.E3A0      #001=VMS$SELECT File=VMS$SELECT.:VMB6TSI                           WED 08/20/97 15:24 Page:17
      425    13969    2       VAL_PTR = VAL_PTR - NUM_TO_POP_STACK(OP_PTR);
      426    13970        /*
      427    13971             ***** Push the result of this reduction
      428    13972                   onto the value stack (VAL_STACK$) ...
      429    13973        */
      430    13974            %PUSH_VALUE;
      431    13990        /*
      432    13991             ***** Remove the reduced operator from
      433    13992                   the operator stack (OP_STK) ...
      434    13993        */
      435    13994    2       OP_PTR = OP_PTR - 1;
      436    13995    2       RETURN;
      437    13996        /**/
      438    13997    2   E_REDUCE:
      439    13998    2       ALTRETURN;
      440    13999        /**/
      441    14000    2   E_DATE:
      442    14001    2       VM_SELECT.ERROR = B$TCB.ALT$->B$ALT.ERR;
      443    14002    2       VM_SELECT.ERR_POS# = CHARPOS_STACK(VAL_PTR);
      444    14003    2       ALTRETURN;
      445    14004    2   E_DEC1:
      446    14005    2       VM_SELECT.ERROR = E_NONDECIMAL;
      447    14006    2       VM_SELECT.ERR_POS# = CHARPOS_STACK(VAL_PTR-1);
      448    14007    2       ALTRETURN;
      449    14008        /**/
      450    14009    2   E_DEC2:
      451    14010    2       VM_SELECT.ERROR = E_NONDECIMAL;
      452    14011    2       VM_SELECT.ERR_POS# = CHARPOS_STACK(VAL_PTR);
      453    14012    2       ALTRETURN;
      454    14013    2   END REDUCE;
      455    14014        %EJECT;
PL6.E3A0      #001=VMS$SELECT File=VMS$SELECT.:VMB6TSI                           WED 08/20/97 15:24 Page:18
      456    14015    1   DATE_INIT: PROC (OUT$) ALTRET;
      457    14016        /***** Parameters *****/
      458    14017    2   DCL OUT$ PTR;
      459    14018        /***** Local Variables *****/
      460    14019    2   DCL P$ PTR;
      461    14020    2   DCL I SBIN;
      462    14021    2   DCL J SBIN;
      463    14022    2   DCL 1 WORK_DATE,
      464    14023    2         2 MONTH CHAR(2),
      465    14024    2         2 * CHAR(1),
      466    14025    2         2 DAY CHAR(2),
      467    14026    2         2 * CHAR(1),
      468    14027    2         2 YEAR CHAR(2);
      469    14028    2   DCL 1 WORK_TIME,
      470    14029    2         2 HOUR CHAR(2),
      471    14030    2         2 * CHAR(1),
      472    14031    2         2 MIN CHAR(2);
      473    14032    2   DCL WORK_TIMEC REDEF WORK_TIME CHAR(5);
      474    14033    2   DCL INIT_TIMEC CHAR(5) CONSTANT INIT('00:00');
      475    14034
      476    14035        %FPT_TIME (FPTN=FPT_TIME_C, STCLASS=CONSTANT,
      477    14036                   SOURCE=CLOCK,
      478    14037                   DEST=LOCAL);
      479    14056        %FPT_TIME (FPTN=FPT_TIME, STCLASS=AUTO);
      480    14075        /*
      481    14076                If the timestamp has been initialized, P$B.SCRITCH has been
      482    14077                set to the resolution of the timestamp (in minutes), and
      483    14078                P$B.CPOS has been replaced with the UTS for the timestamp.
      484    14079        */
      485    14080    2       IF OUT$ -> P$B.SCRITCH > 0
      486    14081    2       THEN
      487    14082    2           RETURN;
      488    14083        /*
      489    14084                Start with current date, time of midnight.
      490    14085        */
      491    14086    2       FPT_TIME = FPT_TIME_C;
      492    14087    2       FPT_TIME.V_ = VECTOR(FPT_TIME.V);
PL6.E3A0      #001=VMS$SELECT File=VMS$SELECT.:VMB6TSI                           WED 08/20/97 15:24 Page:19
      493    14088    2       FPT_TIME.DATE_ = VECTOR(WORK_DATE);
      494    14089    2       CALL M$TIME (FPT_TIME);
      495    14090    2       WORK_TIMEC = INIT_TIMEC;
      496    14091        /*
      497    14092                Setup to get timestamp specified for nodes.
      498    14093        */
      499    14094    2       FPT_TIME.V.SOURCE# = %LOCAL#;
      500    14095    2       FPT_TIME.V.DEST# = %UTS#;
      501    14096    2       FPT_TIME.TSTAMP_ = VECTOR(OUT$ -> P$B.CPOS);
      502    14097    2       OUT$ -> P$B.SCRITCH = %MINS_PER_DAY;
      503    14098    3       DO I = OUT$ -> P$B.NSUBLKS - 1 DOWNTO 0;
      504    14099    3           P$ = OUT$ -> P$B.SUBLK$(I);
      505    14100    4           DO CASE (P$ -> P$B.CODE);
      506    14101    4           CASE (%OPTION_DATE);
      507    14102    4               CALL CHARBIN (J, P$ -> P$B.SUBLK$(0) -> P$S.TEXT);
      508    14103    4               CALL BINCHAR(WORK_DATE.MONTH, J);
      509    14104    4               CALL CHARBIN (J, P$ -> P$B.SUBLK$(1) -> P$S.TEXT);
      510    14105    4               CALL BINCHAR (WORK_DATE.DAY, J);
      511    14106    4               IF P$ -> P$B.NSUBLKS = 3
      512    14107    5               THEN DO;         /* A year specified */
      513    14108    5                   CALL CHARBIN (J, P$ -> P$B.SUBLK$(2) -> P$S.TEXT);
      514    14109    5                   CALL BINCHAR (WORK_DATE.YEAR, J);
      515    14110    5               END;
      516    14111    4           CASE (%OPTION_TIME);
      517    14112    4               OUT$ -> P$B.SCRITCH = 1;
      518    14113    4               FPT_TIME.TIME_ = VECTOR(WORK_TIME);
      519    14114    4               CALL CHARBIN (J, P$ -> P$B.SUBLK$(0) -> P$S.TEXT);
      520    14115    4               CALL BINCHAR (WORK_TIME.HOUR, J);
      521    14116    4               CALL CHARBIN (J, P$ -> P$B.SUBLK$(1) -> P$S.TEXT);
      522    14117    4               CALL BINCHAR (WORK_TIME.MIN, J);
      523    14118    4           END;
      524    14119    3       END;
      525    14120        /*
      526    14121              ***** Now convert the timestamp into a uts ...
      527    14122        */
      528    14123    2       CALL M$TIME (FPT_TIME) ALTRET(BAD_TIME);
      529    14124    2       RETURN;
PL6.E3A0      #001=VMS$SELECT File=VMS$SELECT.:VMB6TSI                           WED 08/20/97 15:24 Page:20
      530    14125
      531    14126    2   BAD_TIME: ;
      532    14127    2       ALTRETURN;
      533    14128    2   END DATE_INIT;
      534    14129        %EJECT;
PL6.E3A0      #001=VMS$SELECT File=VMS$SELECT.:VMB6TSI                           WED 08/20/97 15:24 Page:21
      535    14130        /*
      536    14131             ***** Main routine for evaluating expressions.
      537    14132                   Handles stacking/reduction decisions and
      538    14133                   calls such routines as needed to perform
      539    14134                   reduction and lexical analysis.
      540    14135                   This routine is called recursively...
      541    14136        */
      542    14137    1       OP_PTR = 0;
      543    14138    1       VAL_PTR = -1;
      544    14139    1       OP_STACK(0) = %SEL_BEGIN_MARKER;
      545    14140    1       TOKEN_INDX = -1;
      546    14141        /*
      547    14142             ***** Get the first token to start processing ...
      548    14143        */
      549    14144    1       CALL LEX (TOKEN,VALUE$) ALTRET(E_EVAL);
      550    14145        /*
      551    14146             ***** Main LOOP...
      552    14147                   Loop here while there are operators to process...
      553    14148        */
      554    14149    2       DO WHILE (%YES#);
      555    14150    3           DO CASE (TOKEN);
      556    14151    3           CASE (%SEL_DECIMAL,
      557    14152    3             %SEL_EXP,
      558    14153    3             %SEL_QUOTE);
      559    14154                    %PUSH_VALUE;
      560    14170    3               CALL LEX (TOKEN,VALUE$) ALTRET(E_EVAL);
      561    14171    3           CASE (%SEL_END_MARKER);
      562    14172    4               DO WHILE (%YES#);
      563    14173    4                   IF OP_STACK(OP_PTR) = %SEL_BEGIN_MARKER
      564    14174    4                   THEN
      565    14175    5                   DO;
      566    14176    5                       RESULT$ = VAL_STACK$(VAL_PTR);
      567    14177    5                       RETURN;
      568    14178    5                   END;
      569    14179    4                   ELSE
      570    14180    4                       CALL REDUCE ALTRET(E_EVAL);
      571    14181    4               END;                  /* Shrink stacks loop                 */
PL6.E3A0      #001=VMS$SELECT File=VMS$SELECT.:VMB6TSI                           WED 08/20/97 15:24 Page:22
      572    14182    3           CASE (%SEL_AND,
      573    14183    3                 %SEL_OR,
      574    14184    3                 %SEL_NOT,
      575    14185    3                 %SEL_EQUAL,
      576    14186    3                 %SEL_NEQUAL,
      577    14187    3                 %SEL_GTHAN,
      578    14188    3                 %SEL_GEQUAL,
      579    14189    3                 %SEL_LTHAN,
      580    14190    3                 %SEL_LEQUAL);
      581    14191    3               MORE# = %YES#;
      582    14192    4               DO WHILE (MORE#);
      583    14193        /*
      584    14194             ***** Decide whether to stack or reduce ...
      585    14195        */
      586    14196    4                   IF PRECIDENCE(TOKEN) > PRECIDENCE(OP_STACK(OP_PTR))
      587    14197    4                   THEN
      588    14198    5                   DO;
      589    14199                            %PUSH_OPERATOR (NARGS="NUM_TO_POP(TOKEN)");
      590    14214    5                       MORE# = %NO#;
      591    14215    5                       CALL LEX (TOKEN,VALUE$) ALTRET(E_EVAL);
      592    14216    5                   END;
      593    14217    4                   ELSE             /* Reduce                             */
      594    14218    4                       CALL REDUCE ALTRET(E_EVAL);
      595    14219    4               END;                  /* Do while (MORE#) ... end */
      596    14220    3           CASE (ELSE);
      597    14221        /*
      598    14222             ***** Built-in functions ...
      599    14223        */
      600    14224    3               MORE# = %YES#;
      601    14225    4               DO WHILE (MORE#);
      602    14226        /*
      603    14227             ***** If this is a function with arguments,
      604    14228                   then get those args onto the VAL_STACK$ ...
      605    14229        */
      606    14230    4                   NUM_ARGS = 0;
      607    14231    4                   IF NUM_TO_POP(TOKEN) > 0
      608    14232    4                   THEN        /* Get the arguments for this function     */
PL6.E3A0      #001=VMS$SELECT File=VMS$SELECT.:VMB6TSI                           WED 08/20/97 15:24 Page:23
      609    14233    4                       CALL GET_ARGS (NUM_ARGS) ALTRET(E_EVAL);
      610    14234        /*
      611    14235             ***** Since functions have the highest precidence,
      612    14236                   they are always applied as soon as found ...
      613    14237        */
      614    14238                        %PUSH_OPERATOR (NARGS="NUM_ARGS");
      615    14253    4                   MORE# = %NO#;
      616    14254    4                   CALL LEX (TOKEN,VALUE$) ALTRET(E_EVAL);
      617    14255    4               END;                  /* Do while (MORE#) ... end */
      618    14256    3           END;                        /* Do case ... end */
      619    14257    2       END;                            /* Do while (yes) ... end */
      620    14258    1   E_EVAL:
      621    14259    1       ALTRETURN;
      622    14260    1   END VMS$SELECT;
      623    14261        %EOD;

PL6.E3A0      #001=VMS$SELECT File=VMS$SELECT.:VMB6TSI                           WED 08/20/97 15:24 Page:24
--  Include file information  --

   B$TABLES_C.:LIB_E05  cannot be made into a system file and is referenced.
   B_MACROS_C.:LIB_E05  is referenced.
   VM_DATA_R.:VMB6TOU  cannot be made into a system file and is referenced.
   VM_SUBS_C.:VMB6TOU  is referenced.
   VM_MACRO_C.:VMB6TOU  is referenced.
   VM_PERR_C.:VMB6TOU  is referenced.
   XUD_UTS_M.:LIB_E05  is referenced.
   XUW_MACRO_C.:LIB_E05  is referenced.
   XU_MACRO_C.:LIB_E05  is referenced.
   B_ERRORS_C.:LIB_E05  is referenced.
   CP_6_SUBS.:LIB_E05  is referenced.
   CP_6_C.:LIB_E05  is referenced.
   CP_6.:LIB_E05  cannot be made into a system file and is referenced.
      No diagnostics issued in procedure VMS$SELECT.

   Procedure VMS$SELECT requires 875 words for executable code.
   Procedure VMS$SELECT requires 510 words of local(AUTO) storage.

PL6.E3A0      #001=VMS$SELECT File=VMS$SELECT.:VMB6TSI                           WED 08/20/97 15:24 Page:25

 Object Unit name= VMS$SELECT                                 File name= VMS$SELECT.:VMB6TOU
 UTS= AUG 20 '97 15:24:55.72 WED                              Compiler= PL-6/E31         Sev=      00
 SharedLib= :SHARED_SYSTEM                                    Alt SharedLib=


    ****  Control sections  ****

 Sect   Type Bound  Init  Size OctSiz  Section name(segment info)
    0   DCB   even  none     0      0  M$UC
    1   DCB   even  none     0      0  M$MAIL_FILE
    2   DCB   even  none     0      0  M$MAIL_CENTRAL
    3   DCB   even  none     0      0  M$MAIL_GLOBAL
    4   DCB   even  none     0      0  M$WORK
    5   DCB   even  none     0      0  M$MAIL_COMGROUP
    6   DCB   even  none     0      0  M$DO
    7   DCB   even  none     0      0  M$LO
    8   DCB   even  none     0      0  M$ME
    9   DCB   even  none     0      0  M$NODE
   10   DCB   even  none     0      0  M$SI
   11  RoData even  UTS     93    135  VMS$SELECT
   12   Data  even  none    12     14  VMS$SELECT
   13   Proc  even  none   875   1553  VMS$SELECT
   14  RoData even  none     9     11  VMS$SELECT

    ****  Entry defs  ****

                              Check   Calling
                             calling  sequence
  Sect OctLoc Primary Altret sequence   type   Parms  Name
    13      0   yes    yes     yes      Std        3  VMS$SELECT
PL6.E3A0      #001=VMS$SELECT File=VMS$SELECT.:VMB6TSI                           WED 08/20/97 15:24 Page:26

  ****  Entry refs  ****

         Check        Calling
        calling       sequence
Altret sequence SRef   type   Args  Name
         yes          ~proc      0 B_POINTER
 yes     yes           Std       2 X$DEC_CONVERT
 yes     yes           Std       3 XUD$UTS_ADJ_25TH
         yes           Std       1 VMA$COMPRESS_BLANKS
 yes     yes           Std       1 X$WILDCMP
                       nStd      0 X66_AUTO_3
                       nStd      0 X66_AALT
                       nStd      0 X66_ARET

  ****  Data refs  ****

  Flags:  r = read only, s = secondary
Flgs Name                             Flgs Name                             Flgs Name
     M$UC                             r    VM_HEADER$                       r    VM_PROFILE$
r    VM_ADDLIST$                      r    VM_ADDREC$                       r    VM_WORK$
r    VM_SELECT$                       r    VM_PARSEAREA$                    r    VM_INPUT$
r    VM_COPY$                              VM_ENCLLIST$                          VM_ENCLREC$
     VM_HEADER_                            VM_HEADER_INIT_                       VM_PROFILE_
     VM_ADDLIST_                           VM_ADDREC_                            VM_WORK_
     VM_SELECT_                            VM_PARSEAREA_                         VM_INPUT_
     VM_COPY_                              VM_ENCLLIST_                          VM_ENCLREC_
     M$MAIL_FILE                           M$MAIL_CENTRAL                        M$MAIL_GLOBAL
     M$WORK                                M$MAIL_COMGROUP                       M$DO
     M$LO                                  M$ME                                  M$NODE
     M$SI                                  M$MAIL_FILE_NUM                       M$MAIL_CENTRAL_NUM
     M$MAIL_GLOBAL_NUM                     M$WORK_NUM                            M$MAIL_COMGROUP_NUM
     M$DO_NUM                              M$ME_NUM                              M$LO_NUM
     M$SI_NUM                              M$NODE_NUM                       r    B$JIT$
r    B$TCB$                                VM_MAIL_ACCT                          VM_NAME_MAP_NAME
     ERRMSG_FID                            VM_SEND_FILE_NAME                     VM_FORWARD_FILE_NAME
     VM_FORWARD_ENCL_NAME                  VM_FORWARD_FILE_PASS                  VM_MAILCG_NAME
     VM_SITENAME                           VM_MAILCG_SETSTA                 r    B$XL_UPPER$
PL6.E3A0      #001=VMS$SELECT File=VMS$SELECT.:VMB6TSI                           WED 08/20/97 15:24 Page:27

  ****  Segment refs  ****

  Flags:  r = read only, s = secondary
Flgs Name                             Flgs Name                             Flgs Name
     ISSID                                 NULLSID
PL6.E3A0      #001=VMS$SELECT File=VMS$SELECT.:VMB6TSI                           WED 08/20/97 15:24 Page:28


        1        1        /*M* VMS$SELECT - Routines to evaluate SELECTION CRITERIA for messages. */
        2        2        /*T***********************************************************/
        3        3        /*T*                                                         */
        4        4        /*T* Copyright (c) Bull HN Information Systems Inc., 1997    */
        5        5        /*T*                                                         */
        6        6        /*T***********************************************************/
        7        7        /*X* DMC,PLM=4,IND=4,CTI=2,DTI=0,ENI=0,ECI=0,CSI=0,DCI=4 */
        8        8        /*F*    NAME:          VMS$SELECT
        9        9                PURPOSE:       To evaluate MAIL selection criteria expressions.
       10       10                DESCRIPTION:   This RECURSIVE routine uses operator
       11       11                               precedence to parse expressions.
       12       12        */
       13       13        VMS$SELECT: PROC (TREE$,VM_SELECT,RESULT$) ALTRET;

     13 13 000000   000000 700200 xent  VMS$SELECT   TSX0  ! X66_AUTO_3
        13 000001   000776 000003                    ZERO    510,3
        13 000002   001314 710000 13                 TRA     s:14137

       14       14        /***** Include files *****/
       15       15          %INCLUDE CP_6;
       16     5574          %INCLUDE CP_6_SUBS;
       17     6114          %INCLUDE B_ERRORS_C;
       18     7241          %INCLUDE XU_MACRO_C;
       19    10347          %INCLUDE XUW_MACRO_C;
       20    10482        %EJECT;
PL6.E3A0      #001=VMS$SELECT File=VMS$SELECT.:VMB6TSI                           WED 08/20/97 15:24 Page:29
       21    10483
       22    10484        /***** Local Equates *****/
       23    10485        %INCLUDE XUD_UTS_M;
       24    10567             %XUD$UTS_ENTRIES;
       25    10599             %XUD_UTS_EQU;
       26    10610        %EQU MINS_PER_DAY = 1440;
       27    10611          %INCLUDE VM_PERR_C;
       28    10906          %INCLUDE VM_MACRO_C;
       29    12174          %INCLUDE VM_SUBS_C;
       30    12434          %INCLUDE VM_DATA_R;
       31    12865            %include B$TABLES_C;
       32    12973             %B$XL_UPPER(NAME=LOWER_UPPER);
       33    12977        /***** Parameters *****/
       34    12978    1   DCL TREE$ PTR;
       35    12979          %VM_SELECT (NAME=VM_SELECT,STCLASS=" ");
       36    13000    1   DCL RESULT$ PTR;
       37    13001        /***** Based structures *****/
       38    13002          %PARSE$OUT (NAME=P$B,STCLASS=BASED);
       39    13047          %PARSE$SYM (NAME=P$S,STCLASS=BASED);
       40    13085          %VM_HEADER;
       41    13214          %B$TCB(STCLASS="BASED(B$TCB$)");
       42    13217          %B$ALT;
       43    13225        /***** Ptr variables *****/
       44    13226    1   DCL VALUE$ PTR AUTO;
       45    13227    1   DCL TOKEN_PTR$ PTR AUTO;
       46    13228        /***** Word/array variables *****/
       47    13229    1   DCL MORE# BIT(1) AUTO;
       48    13230    1   DCL CHARPOS UBIN WORD AUTO;
       49    13231    1   DCL OP_PTR SBIN WORD AUTO;
       50    13232    1   DCL VAL_PTR SBIN WORD AUTO;
       51    13233    1   DCL NUM_ARGS SBIN WORD AUTO;
       52    13234    1   DCL TOKEN_INDX SBIN WORD AUTO;
       53    13235    1   DCL TOKEN UBIN WORD AUTO;
       54    13236        /***** Character variables *****/
       55    13237          %VLP_NAME (FPTN=WORK1,LEN=511,STCLASS=AUTO);
       56    13264          %VLP_NAME (FPTN=WORK2,LEN=511,STCLASS=AUTO);
       57    13291        /***** Stacks *****/
PL6.E3A0      #001=VMS$SELECT File=VMS$SELECT.:VMB6TSI                           WED 08/20/97 15:24 Page:30
       58    13292    1   DCL OP_STACK (0:%SEL_STACK_SIZE) UBIN AUTO;
       59    13293    1   DCL NUM_TO_POP_STACK (0:%SEL_STACK_SIZE) UBIN AUTO;
       60    13294    1   DCL VAL_STACK$ (0:%(SEL_STACK_SIZE*2)) PTR AUTO;
       61    13295    1   DCL VAL_TYPE (0:%(SEL_STACK_SIZE*2)) UBIN AUTO;
       62    13296    1   DCL CHARPOS_STACK (0:%(SEL_STACK_SIZE*2)) UBIN HALF AUTO;
       63    13297        /***** Constants *****/
       64    13298    1   DCL ZERO$ PTR CONSTANT INIT (ADDR(ZERO));
       65    13299    1   DCL 1  ZERO CONSTANT,
       66    13300    1         2  COUNT UBIN BYTE UNAL INIT (1),
       67    13301    1         2  TEXT CHAR(1) UNAL INIT('0');
       68    13302    1   DCL ONE$ PTR CONSTANT INIT (ADDR(ONE));
       69    13303    1   DCL 1  ONE CONSTANT,
       70    13304    1         2  COUNT UBIN BYTE UNAL INIT (1),
       71    13305    1         2  TEXT CHAR(1) UNAL INIT('1');
       72    13306        /***** External routines *****/
       73    13307    1   DCL X$DEC_CONVERT ENTRY(2) ALTRET;
       74    13308    1   DCL X$STRIP_BLANKS ENTRY(1);
       75    13309    1   DCL VMA$COMPRESS_BLANKS ENTRY(1);
       76    13310    1   DCL X$WILDCMP ENTRY(1) ALTRET;
       77    13311        /***** Fpts *****/
       78    13312          %XUW_WILDCARD (FPTN=VM_WILDCARD,STCLASS=STATIC,CONTAINS=YES);
       79    13408        %EJECT;
PL6.E3A0      #001=VMS$SELECT File=VMS$SELECT.:VMB6TSI                           WED 08/20/97 15:24 Page:31
       80    13409        /***** Macros *****/
       81    13410          %MACRO ERR_CODE (NAME=JUNK,CODE=0,SEV=0);
       82    13411            %VLP_ERRCODE (FPTN=NAME,
       83    13412                          FCG="VM",
       84    13413                          MID="S",
       85    13414                          ERR#=CODE,
       86    13415                          STCLASS=CONSTANT);
       87    13416          %MEND;
       88    13417        /**/
       89    13418          %MACRO PUSH_VALUE (TYPE=511,CPOS=CHARPOS);
       90    13419            VAL_PTR = VAL_PTR + 1;
       91    13420            IF VAL_PTR > %SEL_STACK_SIZE
       92    13421            THEN
       93    13422            DO;                           /* Return error */
       94    13423                VM_SELECT.ERROR = E_STKOVFL;
       95    13424                VM_SELECT.ERR_POS# = CHARPOS;
       96    13425                ALTRETURN;
       97    13426            END;
       98    13427            ELSE
       99    13428            DO;                           /* Stash value, VAL_TYPE and charpos */
      100    13429                VAL_STACK$(VAL_PTR) = VALUE$;
      101    13430                VAL_TYPE(VAL_PTR) = TYPE;
      102    13431                CHARPOS_STACK(VAL_PTR) = CPOS;
      103    13432            END;
      104    13433          %MEND;
      105    13434        /**/
      106    13435        %MACRO PUSH_OPERATOR (NARGS=0);
      107    13436            OP_PTR = OP_PTR + 1;
      108    13437            IF OP_PTR > %SEL_STACK_SIZE
      109    13438            THEN
      110    13439            DO;                           /* Return error */
      111    13440                VM_SELECT.ERROR = E_STKOVFL;
      112    13441                VM_SELECT.ERR_POS# = CHARPOS;
      113    13442                ALTRETURN;
      114    13443            END;
      115    13444            ELSE
      116    13445            DO;
PL6.E3A0      #001=VMS$SELECT File=VMS$SELECT.:VMB6TSI                           WED 08/20/97 15:24 Page:32
      117    13446                OP_STACK(OP_PTR) = TOKEN;
      118    13447                NUM_TO_POP_STACK(OP_PTR) = NARGS;
      119    13448            END;
      120    13449        %MEND;
      121    13450        %EJECT;
PL6.E3A0      #001=VMS$SELECT File=VMS$SELECT.:VMB6TSI                           WED 08/20/97 15:24 Page:33
      122    13451        /***** Error codes *****/
      123    13452            %ERR_CODE (NAME=E_STKOVFL,CODE=%E$STKOVFL);
      124    13503          /*E*    ERROR: VMS-E$STKOVFL-0
      125    13504                  MESSAGE: Stack overflow. Expression too complex.
      126    13505                  MESSAGE1: Grouping with extra parenthesis may help.
      127    13506          */
      128    13507              %ERR_CODE (NAME=E_NONDECIMAL,CODE=%E$NONDECIMAL);
      129    13558          /*E*    ERROR: VMS-E$NONDECIMAL-0
      130    13559                  MESSAGE: Valid DECIMAL value required here.
      131    13560                  MESSAGE1: The specified value may have been too large to process,
      132    13561           or it may have had illegal characters imbeded.
      133    13562          */
      134    13563              %ERR_CODE (NAME=E_STKFLT,CODE=%E$STKFLT);
      135    13614          /*E*    ERROR: VMS-E$STKFLT-0
      136    13615                  MESSAGE: Evaluation of this expression is not possible.
      137    13616                  MESSAGE1: The expression is meaningless.
      138    13617          */
      139    13618              %ERR_CODE (NAME=E_ILLEGALNULL,CODE=%E$ILLEGALNULL);
      140    13669          /*E*    ERROR: VMS-E$ILLEGALNULL-0
      141    13670                  MESSAGE: Null string not allowed here.
      142    13671        */
      143    13672        %EJECT;
PL6.E3A0      #001=VMS$SELECT File=VMS$SELECT.:VMB6TSI                           WED 08/20/97 15:24 Page:34
      144    13673        /*
      145    13674             ***** Precidence array ...
      146    13675        */
      147    13676    1   DCL PRECIDENCE (0:%SEL_OPTAB_SIZE)
      148    13677    1        UBIN CONSTANT INIT (
      149    13678    1        0, 0, 3, 2, 1, 4, 4, 4, 4, 4, 4,
      150    13679    1        99*0);
      151    13680        /*
      152    13681             ***** NUM_TO_POP specifies how many operands an operator
      153    13682                   or function may have. Where a function may have an
      154    13683                   arbirtray number of arguments this table will have
      155    13684                   511. The actual number will be contained in the
      156    13685                   stack NUM_TO_POP_STACK. This stack is parallel to OP_STACK.
      157    13686                   NOTE: The max number of args is determined by the size
      158    13687                         of VAL_STACK$.
      159    13688        */
      160    13689    1   DCL NUM_TO_POP (0:%SEL_OPTAB_SIZE)
      161    13690    1        UBIN CONSTANT INIT (
      162    13691                                                /* Operators */
      163    13692    1        0, 0, 1, 2, 2, 2, 2, 2, 2, 2, 2,
      164    13693                                                /* Functions */
      165    13694    1        0, 0, 0, 0, 0, 0, 1, 0, 0, 0, 1, 1, 0, 0, 0, 1, 1, 0, 0, 0, 0, 0, 1, 1);
      166    13695        %EJECT;
PL6.E3A0      #001=VMS$SELECT File=VMS$SELECT.:VMB6TSI                           WED 08/20/97 15:24 Page:35
      167    13696    1   LEX: PROC (TOKEN,VALUE$) ALTRET;

  13696 13 000003   200734 741300       LEX          STX1  ! CHARPOS_STACK+51,,AUTO

      168    13697        /***** Parameters *****/
      169    13698    2   DCL TOKEN UBIN WORD;
      170    13699    2   DCL VALUE$ PTR;
      171    13700        /***** Auto variables *****/
      172    13701    2   DCL NAME$ PTR AUTO;
      173    13702    2       TOKEN_INDX = TOKEN_INDX + 1;

  13702 13 000004   200015 054100                    AOS     TOKEN_INDX,,AUTO

      174    13703    2       IF TOKEN_INDX = TREE$ -> P$B.NSUBLKS

  13703 13 000005   200003 470500                    LDP0    @TREE$,,AUTO
        13 000006   000000 471500                    LDP1    0,,PR0
        13 000007   100001 236100                    LDQ     1,,PR1
        13 000010   000022 772000                    QRL     18
        13 000011   200015 116100                    CMPQ    TOKEN_INDX,,AUTO
        13 000012   000017 601000 13                 TNZ     s:13708

      175    13704    2       THEN                            /* End of the expression */
      176    13705    2           TOKEN = %SEL_END_MARKER;

  13705 13 000013   000001 235007                    LDA     1,DL
        13 000014   200735 473500                    LDP3    @TOKEN,,AUTO
        13 000015   300000 755100                    STA     0,,PR3
        13 000016   000104 710000 13                 TRA     s:13729

      177    13706    2       ELSE
      178    13707    3       DO;

      179    13708    3           TOKEN_PTR$ = TREE$->P$B.SUBLK$(TOKEN_INDX);

  13708 13 000017   200015 720100                    LXL0    TOKEN_INDX,,AUTO
        13 000020   100003 236110                    LDQ     3,X0,PR1
PL6.E3A0      #001=VMS$SELECT File=VMS$SELECT.:VMB6TSI                           WED 08/20/97 15:24 Page:36
        13 000021   200007 756100                    STQ     TOKEN_PTR$,,AUTO

      180    13709    3           TOKEN = TOKEN_PTR$ -> P$B.CODE; /* Current lexical token */

  13709 13 000022   200007 471500                    LDP1    TOKEN_PTR$,,AUTO
        13 000023   100000 236100                    LDQ     0,,PR1
        13 000024   777777 376007                    ANQ     -1,DL
        13 000025   200735 473500                    LDP3    @TOKEN,,AUTO
        13 000026   300000 756100                    STQ     0,,PR3

      181    13710    3           CHARPOS = TOKEN_PTR$ -> P$B.CPOS; /* Charpos of token */

  13710 13 000027   200007 471500                    LDP1    TOKEN_PTR$,,AUTO
        13 000030   100002 235100                    LDA     2,,PR1
        13 000031   200011 755100                    STA     CHARPOS,,AUTO

      182    13711    4           DO CASE (TREE$->P$B.SUBLK$(TOKEN_INDX)->P$B.CODE);

  13711 13 000032   000000 474500                    LDP4    0,,PR0
        13 000033   400003 475510                    LDP5    3,X0,PR4
        13 000034   500000 236100                    LDQ     0,,PR5
        13 000035   777777 376007                    ANQ     -1,DL
        13 000036   000036 136007                    SBLQ    30,DL
        13 000037   000003 116007                    CMPQ    3,DL
        13 000040   000042 602006 13                 TNC     s:13711+8,QL
        13 000041   000104 710000 13                 TRA     s:13729
        13 000042   000045 710000 13                 TRA     s:13713
        13 000043   000060 710000 13                 TRA     s:13715
        13 000044   000064 710000 13                 TRA     s:13717

      183    13712    4           CASE (%SEL_EXP);

      184    13713    4               CALL VMS$SELECT (TOKEN_PTR$,VM_SELECT,VALUE$) ALTRET(E_LEX);

  13713 13 000045   200736 236100                    LDQ     @VALUE$,,AUTO
        13 000046   200774 756100                    STQ     FPT_TIME+14,,AUTO
        13 000047   200004 236100                    LDQ     @VM_SELECT,,AUTO
PL6.E3A0      #001=VMS$SELECT File=VMS$SELECT.:VMB6TSI                           WED 08/20/97 15:24 Page:37
        13 000050   200773 756100                    STQ     FPT_TIME+13,,AUTO
        13 000051   200007 634500                    EPPR4   TOKEN_PTR$,,AUTO
        13 000052   200772 454500                    STP4    FPT_TIME+12,,AUTO
        13 000053   200772 630500                    EPPR0   FPT_TIME+12,,AUTO
        13 000054   000000 631400 14                 EPPR1   0
        13 000055   000000 701000 13                 TSX1    s:13
        13 000056   000106 702000 13                 TSX2    E_LEX
        13 000057   000104 710000 13                 TRA     s:13729

      185    13714    4           CASE (%SEL_DECIMAL);

      186    13715    4               VALUE$ = TOKEN_PTR$ -> P$S.TEXTC$;

  13715 13 000060   100003 236100                    LDQ     3,,PR1
        13 000061   200736 476500                    LDP6    @VALUE$,,AUTO
        13 000062   600000 756100                    STQ     0,,PR6
        13 000063   000104 710000 13                 TRA     s:13729

      187    13716    4           CASE (%SEL_QUOTE);

      188    13717    4               VALUE$ = TOKEN_PTR$ -> P$S.TEXTC$;

  13717 13 000064   100003 236100                    LDQ     3,,PR1
        13 000065   200736 476500                    LDP6    @VALUE$,,AUTO
        13 000066   600000 756100                    STQ     0,,PR6

      189    13718    4               IF VALUE$ -> X$STRING.SIZ = 0

  13718 13 000067   600000 471500                    LDP1    0,,PR6
        13 000070   000100 101500                    MRL     fill='000'O
        13 000071   100000 000001                    ADSC9   0,,PR1                   cn=0,n=1
        13 000072   200772 000004                    ADSC9   FPT_TIME+12,,AUTO        cn=0,n=4
        13 000073   200772 236100                    LDQ     FPT_TIME+12,,AUTO
        13 000074   000000 116003                    CMPQ    0,DU
        13 000075   000104 601000 13                 TNZ     s:13729

      190    13719    4               THEN             /* Error!!! */
PL6.E3A0      #001=VMS$SELECT File=VMS$SELECT.:VMB6TSI                           WED 08/20/97 15:24 Page:38
      191    13720    5               DO;

      192    13721    5                   VM_SELECT.ERROR = E_ILLEGALNULL;

  13721 13 000076   000007 236000 11                 LDQ     E_ILLEGALNULL
        13 000077   200004 471500                    LDP1    @VM_SELECT,,AUTO
        13 000100   100000 756100                    STQ     0,,PR1

      193    13722    5                   VM_SELECT.ERR_POS# = CHARPOS;

  13722 13 000101   100001 755100                    STA     1,,PR1

      194    13723    5                   ALTRETURN;

  13723 13 000102   200734 221300                    LDX1  ! CHARPOS_STACK+51,,AUTO
        13 000103   000000 702211                    TSX2  ! 0,X1

      195    13724    5               END;
      196    13725    4           CASE (ELSE);

      197    13726                                                /* Functions, operators */
      198    13727    4           END;                   /* Do case ... end */

      199    13728    3       END;                       /* Do ... end */
      200    13729    2       RETURN;

  13729 13 000104   200734 221300                    LDX1  ! CHARPOS_STACK+51,,AUTO
        13 000105   000001 702211                    TSX2  ! 1,X1

      201    13730        /**/
      202    13731    2   E_LEX:
      203    13732    2       ALTRETURN;

  13732 13 000106   200734 221300       E_LEX        LDX1  ! CHARPOS_STACK+51,,AUTO
        13 000107   000000 702211                    TSX2  ! 0,X1

      204    13733    2   END LEX;
PL6.E3A0      #001=VMS$SELECT File=VMS$SELECT.:VMB6TSI                           WED 08/20/97 15:24 Page:39
      205    13734        %EJECT;
PL6.E3A0      #001=VMS$SELECT File=VMS$SELECT.:VMB6TSI                           WED 08/20/97 15:24 Page:40
      206    13735    1   GET_ARGS: PROC (NUM_ARGS) ALTRET;

  13735 13 000110   200734 741300       GET_ARGS     STX1  ! CHARPOS_STACK+51,,AUTO

      207    13736        /***** Parameters *****/
      208    13737    2   DCL NUM_ARGS SBIN WORD;
      209    13738        /***** Local variables *****/
      210    13739    2   DCL ARG_INDX SBIN WORD AUTO;
      211    13740    2   DCL ARG_PTR$ PTR AUTO;
      212    13741    2   DCL VALUE$ PTR AUTO;
      213    13742        /**/
      214    13743    2       NUM_ARGS = NUM_TO_POP(TOKEN);

  13743 13 000111   200016 720100                    LXL0    TOKEN,,AUTO
        13 000112   000053 235010 11                 LDA     NUM_TO_POP,X0
        13 000113   200735 470500                    LDP0    @NUM_ARGS,,AUTO
        13 000114   000000 755100                    STA     0,,PR0

      215    13744    3       DO ARG_INDX = 0 TO TOKEN_PTR$ -> P$B.NSUBLKS - 1;

  13744 13 000115   200736 450100                    STZ     ARG_INDX,,AUTO
        13 000116   000146 710000 13                 TRA     s:13767+1

      216    13745    3           VALUE$ = TOKEN_PTR$ -> P$B.SUBLK$(ARG_INDX);

  13745 13 000117   200007 470500                    LDP0    TOKEN_PTR$,,AUTO
        13 000120   200736 720100                    LXL0    ARG_INDX,,AUTO
        13 000121   000003 236110                    LDQ     3,X0,PR0
        13 000122   200740 756100                    STQ     VALUE$,,AUTO

      217    13746        /*
      218    13747             ***** For the moment, only quote strings (i.e. no expressions)
      219    13748                   are valid arguments to a function ...
      220    13749                   Push pointer to operator, which precedes the value, onto stack
      221    13750        */
      222    13751                %PUSH_VALUE (CPOS="VALUE$ -> P$B.CPOS");

PL6.E3A0      #001=VMS$SELECT File=VMS$SELECT.:VMB6TSI                           WED 08/20/97 15:24 Page:41
  13752 13 000123   200013 054100                    AOS     VAL_PTR,,AUTO

  13753 13 000124   200013 235100                    LDA     VAL_PTR,,AUTO
        13 000125   000031 115007                    CMPA    25,DL
        13 000126   000136 604400 13                 TMOZ    s:13762

  13756 13 000127   000004 236000 11                 LDQ     E_STKOVFL
        13 000130   200004 471500                    LDP1    @VM_SELECT,,AUTO
        13 000131   100000 756100                    STQ     0,,PR1

  13757 13 000132   200011 235100                    LDA     CHARPOS,,AUTO
        13 000133   100001 755100                    STA     1,,PR1

  13758 13 000134   200734 221300                    LDX1  ! CHARPOS_STACK+51,,AUTO
        13 000135   000000 702211                    TSX2  ! 0,X1

  13762 13 000136   200503 756105                    STQ     VAL_STACK$,AL,AUTO

  13763 13 000137   000777 235007                    LDA     511,DL
        13 000140   200013 721100                    LXL1    VAL_PTR,,AUTO
        13 000141   200566 755111                    STA     VAL_TYPE,X1,AUTO

  13764 13 000142   200740 470500                    LDP0    VALUE$,,AUTO
        13 000143   000002 722100                    LXL2    2,,PR0
        13 000144   200651 742111                    STX2    CHARPOS_STACK,X1,AUTO

      223    13767    3       END;                            /* Do ARG_INDX ... end */

  13767 13 000145   200736 054100                    AOS     ARG_INDX,,AUTO
        13 000146   200007 470500                    LDP0    TOKEN_PTR$,,AUTO
        13 000147   000001 236100                    LDQ     1,,PR0
        13 000150   000022 772000                    QRL     18
        13 000151   200736 116100                    CMPQ    ARG_INDX,,AUTO
        13 000152   000117 605400 13                 TPNZ    s:13745

      224    13768    2   END GET_ARGS;

PL6.E3A0      #001=VMS$SELECT File=VMS$SELECT.:VMB6TSI                           WED 08/20/97 15:24 Page:42
  13768 13 000153   200734 221300                    LDX1  ! CHARPOS_STACK+51,,AUTO
        13 000154   000001 702211                    TSX2  ! 1,X1

      225    13769        %EJECT;
PL6.E3A0      #001=VMS$SELECT File=VMS$SELECT.:VMB6TSI                           WED 08/20/97 15:24 Page:43
      226    13770    1   REDUCE: PROC ALTRET;

  13770 13 000155   200734 741300       REDUCE       STX1  ! CHARPOS_STACK+51,,AUTO

      227    13771        /***** Auto variables *****/
      228    13772    2   DCL STRING$ PTR;
      229    13773    2   DCL TEMP1 SBIN WORD AUTO;
      230    13774    2   DCL DATE1 REDEF TEMP1 UBIN WORD;
      231    13775    2   DCL TEMP2 SBIN WORD AUTO;
      232    13776    2   DCL DATE2 REDEF TEMP2 UBIN WORD;
      233    13777    2   DCL DATE3 UBIN WORD;
      234    13778    2   DCL K UBIN AUTO;
      235    13779        /***** Ptrs *****/
      236    13780    2   DCL VALUE$ PTR AUTO;
      237    13781        /***** Character variables *****/
      238    13782        /***** Constants *****/
      239    13783        %EJECT;
PL6.E3A0      #001=VMS$SELECT File=VMS$SELECT.:VMB6TSI                           WED 08/20/97 15:24 Page:44
      240    13784        /***** Initialization *****/
      241    13785    2       VALUE$ = ZERO$;

  13785 13 000156   000000 236000 11                 LDQ     ZERO$
        13 000157   200742 756100                    STQ     VALUE$,,AUTO

      242    13786        /*
      243    13787             ***** Make sure that there are enough entries in the
      244    13788                   operand stack for this operator to operate upon ...
      245    13789        */
      246    13790    2       IF NUM_TO_POP_STACK(OP_PTR) > VAL_PTR+1

  13790 13 000160   200012 720100                    LXL0    OP_PTR,,AUTO
        13 000161   200013 236100                    LDQ     VAL_PTR,,AUTO
        13 000162   000001 036007                    ADLQ    1,DL
        13 000163   000166 604000 13                 TMI     s:13793
        13 000164   200451 116110                    CMPQ    NUM_TO_POP_STACK,X0,AUTO
        13 000165   000175 603000 13                 TRC     s:13800

      247    13791    2       THEN                            /* Stacks are not right */
      248    13792    3       DO;

      249    13793    3           VM_SELECT.ERROR = E_STKFLT;

  13793 13 000166   000006 236000 11                 LDQ     E_STKFLT
        13 000167   200004 470500                    LDP0    @VM_SELECT,,AUTO
        13 000170   000000 756100                    STQ     0,,PR0

      250    13794    3           VM_SELECT.ERR_POS# = CHARPOS_STACK(0);

  13794 13 000171   200651 235100                    LDA     CHARPOS_STACK,,AUTO
        13 000172   000022 771000                    ARL     18
        13 000173   000001 755100                    STA     1,,PR0

      251    13795    3           GOTO E_REDUCE;

  13795 13 000174   001052 710000 13                 TRA     E_REDUCE
PL6.E3A0      #001=VMS$SELECT File=VMS$SELECT.:VMB6TSI                           WED 08/20/97 15:24 Page:45

      252    13796    3       END;
      253    13797        /*
      254    13798             ***** Reduce the operator and value stacks as necessary ...
      255    13799        */
      256    13800    3       DO CASE (OP_STACK(OP_PTR));

  13800 13 000175   200417 235110                    LDA     OP_STACK,X0,AUTO
        13 000176   000043 115007                    CMPA    35,DL
        13 000177   000201 602005 13                 TNC     s:13800+4,AL
        13 000200   001020 710000 13                 TRA     s:13969
        13 000201   001020 710000 13                 TRA     s:13969
        13 000202   001020 710000 13                 TRA     s:13969
        13 000203   000244 710000 13                 TRA     s:13802
        13 000204   000265 710000 13                 TRA     s:13809
        13 000205   000316 710000 13                 TRA     s:13816
        13 000206   001020 710000 13                 TRA     s:13969
        13 000207   001020 710000 13                 TRA     s:13969
        13 000210   001020 710000 13                 TRA     s:13969
        13 000211   001020 710000 13                 TRA     s:13969
        13 000212   001020 710000 13                 TRA     s:13969
        13 000213   001020 710000 13                 TRA     s:13969
        13 000214   000347 710000 13                 TRA     s:13823
        13 000215   000356 710000 13                 TRA     s:13827
        13 000216   000555 710000 13                 TRA     s:13887
        13 000217   000523 710000 13                 TRA     s:13871
        13 000220   000541 710000 13                 TRA     s:13879
        13 000221   000547 710000 13                 TRA     s:13883
        13 000222   000564 710000 13                 TRA     s:13891
        13 000223   000577 710000 13                 TRA     s:13898
        13 000224   000606 710000 13                 TRA     s:13902
        13 000225   000615 710000 13                 TRA     s:13906
        13 000226   000624 710000 13                 TRA     s:13910
        13 000227   000643 710000 13                 TRA     s:13920
        13 000230   001012 710000 13                 TRA     s:13961
        13 000231   000570 710000 13                 TRA     s:13894
        13 000232   000634 710000 13                 TRA     s:13916
PL6.E3A0      #001=VMS$SELECT File=VMS$SELECT.:VMB6TSI                           WED 08/20/97 15:24 Page:46
        13 000233   000647 710000 13                 TRA     s:13923
        13 000234   000630 710000 13                 TRA     s:13913
        13 000235   000532 710000 13                 TRA     s:13875
        13 000236   000365 710000 13                 TRA     s:13831
        13 000237   001020 710000 13                 TRA     s:13969
        13 000240   001020 710000 13                 TRA     s:13969
        13 000241   001020 710000 13                 TRA     s:13969
        13 000242   000400 710000 13                 TRA     s:13838
        13 000243   000374 710000 13                 TRA     s:13835

      257    13801    3       CASE (%SEL_NOT);

      258    13802    3           CALL X$DEC_CONVERT (VAL_STACK$(VAL_PTR),TEMP1) ALTRET(E_DEC2);

  13802 13 000244   200736 630500                    EPPR0   TEMP1,,AUTO
        13 000245   200773 450500                    STP0    FPT_TIME+13,,AUTO
        13 000246   200013 722100                    LXL2    VAL_PTR,,AUTO
        13 000247   200503 631512                    EPPR1   VAL_STACK$,X2,AUTO
        13 000250   200772 451500                    STP1    FPT_TIME+12,,AUTO
        13 000251   200772 630500                    EPPR0   FPT_TIME+12,,AUTO
        13 000252   000001 631400 14                 EPPR1   1
        13 000253   000000 701000 xent               TSX1    X$DEC_CONVERT
        13 000254   001100 702000 13                 TSX2    E_DEC2

      259    13803    3           IF TEMP1 > 0

  13803 13 000255   200736 235100                    LDA     TEMP1,,AUTO
        13 000256   000262 604400 13                 TMOZ    s:13807

      260    13804    3           THEN
      261    13805    3               VALUE$ = ZERO$;

  13805 13 000257   000000 236000 11                 LDQ     ZERO$
        13 000260   200742 756100                    STQ     VALUE$,,AUTO
        13 000261   001020 710000 13                 TRA     s:13969

      262    13806    3           ELSE
PL6.E3A0      #001=VMS$SELECT File=VMS$SELECT.:VMB6TSI                           WED 08/20/97 15:24 Page:47
      263    13807    3               VALUE$ = ONE$;

  13807 13 000262   000002 236000 11                 LDQ     ONE$
        13 000263   200742 756100                    STQ     VALUE$,,AUTO
        13 000264   001020 710000 13                 TRA     s:13969

      264    13808    3       CASE (%SEL_AND);

      265    13809    3           CALL X$DEC_CONVERT (VAL_STACK$(VAL_PTR-1),TEMP1) ALTRET(E_DEC1);

  13809 13 000265   200736 630500                    EPPR0   TEMP1,,AUTO
        13 000266   200773 450500                    STP0    FPT_TIME+13,,AUTO
        13 000267   200013 722100                    LXL2    VAL_PTR,,AUTO
        13 000270   200502 631512                    EPPR1   NUM_TO_POP_STACK+25,X2,AUTO
        13 000271   200772 451500                    STP1    FPT_TIME+12,,AUTO
        13 000272   200772 630500                    EPPR0   FPT_TIME+12,,AUTO
        13 000273   000001 631400 14                 EPPR1   1
        13 000274   000000 701000 xent               TSX1    X$DEC_CONVERT
        13 000275   001067 702000 13                 TSX2    E_DEC1

      266    13810    3           CALL X$DEC_CONVERT (VAL_STACK$(VAL_PTR),TEMP2) ALTRET(E_DEC2);

  13810 13 000276   200737 630500                    EPPR0   TEMP2,,AUTO
        13 000277   200773 450500                    STP0    FPT_TIME+13,,AUTO
        13 000300   200013 720100                    LXL0    VAL_PTR,,AUTO
        13 000301   200503 631510                    EPPR1   VAL_STACK$,X0,AUTO
        13 000302   200772 451500                    STP1    FPT_TIME+12,,AUTO
        13 000303   200772 630500                    EPPR0   FPT_TIME+12,,AUTO
        13 000304   000001 631400 14                 EPPR1   1
        13 000305   000000 701000 xent               TSX1    X$DEC_CONVERT
        13 000306   001100 702000 13                 TSX2    E_DEC2

      267    13811    3           IF TEMP1 > 0

  13811 13 000307   200736 235100                    LDA     TEMP1,,AUTO
        13 000310   001020 604400 13                 TMOZ    s:13969
        13 000311   200737 236100                    LDQ     TEMP2,,AUTO
PL6.E3A0      #001=VMS$SELECT File=VMS$SELECT.:VMB6TSI                           WED 08/20/97 15:24 Page:48
        13 000312   001020 604400 13                 TMOZ    s:13969

      268    13812    3             AND TEMP2 > 0
      269    13813    3           THEN
      270    13814    3               VALUE$ = ONE$;

  13814 13 000313   000002 236000 11                 LDQ     ONE$
        13 000314   200742 756100                    STQ     VALUE$,,AUTO
        13 000315   001020 710000 13                 TRA     s:13969

      271    13815    3       CASE (%SEL_OR);

      272    13816    3           CALL X$DEC_CONVERT (VAL_STACK$(VAL_PTR-1),TEMP1) ALTRET(E_DEC1);

  13816 13 000316   200736 630500                    EPPR0   TEMP1,,AUTO
        13 000317   200773 450500                    STP0    FPT_TIME+13,,AUTO
        13 000320   200013 722100                    LXL2    VAL_PTR,,AUTO
        13 000321   200502 631512                    EPPR1   NUM_TO_POP_STACK+25,X2,AUTO
        13 000322   200772 451500                    STP1    FPT_TIME+12,,AUTO
        13 000323   200772 630500                    EPPR0   FPT_TIME+12,,AUTO
        13 000324   000001 631400 14                 EPPR1   1
        13 000325   000000 701000 xent               TSX1    X$DEC_CONVERT
        13 000326   001067 702000 13                 TSX2    E_DEC1

      273    13817    3           CALL X$DEC_CONVERT (VAL_STACK$(VAL_PTR),TEMP2) ALTRET(E_DEC2);

  13817 13 000327   200737 630500                    EPPR0   TEMP2,,AUTO
        13 000330   200773 450500                    STP0    FPT_TIME+13,,AUTO
        13 000331   200013 720100                    LXL0    VAL_PTR,,AUTO
        13 000332   200503 631510                    EPPR1   VAL_STACK$,X0,AUTO
        13 000333   200772 451500                    STP1    FPT_TIME+12,,AUTO
        13 000334   200772 630500                    EPPR0   FPT_TIME+12,,AUTO
        13 000335   000001 631400 14                 EPPR1   1
        13 000336   000000 701000 xent               TSX1    X$DEC_CONVERT
        13 000337   001100 702000 13                 TSX2    E_DEC2

      274    13818    3           IF TEMP1 > 0
PL6.E3A0      #001=VMS$SELECT File=VMS$SELECT.:VMB6TSI                           WED 08/20/97 15:24 Page:49

  13818 13 000340   200736 235100                    LDA     TEMP1,,AUTO
        13 000341   000344 605400 13                 TPNZ    s:13821
        13 000342   200737 236100                    LDQ     TEMP2,,AUTO
        13 000343   001020 604400 13                 TMOZ    s:13969

      275    13819    3             OR TEMP2 > 0
      276    13820    3           THEN
      277    13821    3               VALUE$ = ONE$;

  13821 13 000344   000002 236000 11                 LDQ     ONE$
        13 000345   200742 756100                    STQ     VALUE$,,AUTO
        13 000346   001020 710000 13                 TRA     s:13969

      278    13822    3       CASE (%SEL_ACKNOWLEDGMENT);

      279    13823    3           IF VM_HEADER.STATUS.ACK

  13823 13 000347   000000 470400 xsym               LDP0    VM_HEADER$
        13 000350   000012 236100                    LDQ     10,,PR0
        13 000351   100000 316003                    CANQ    32768,DU
        13 000352   001020 600000 13                 TZE     s:13969

      280    13824    3           THEN
      281    13825    3               VALUE$ = ONE$;

  13825 13 000353   000002 236000 11                 LDQ     ONE$
        13 000354   200742 756100                    STQ     VALUE$,,AUTO
        13 000355   001020 710000 13                 TRA     s:13969

      282    13826    3       CASE (%SEL_ANSWER);

      283    13827    3           IF VM_HEADER.STATUS.ANSWER

  13827 13 000356   000000 470400 xsym               LDP0    VM_HEADER$
        13 000357   000012 236100                    LDQ     10,,PR0
        13 000360   200000 316003                    CANQ    65536,DU
PL6.E3A0      #001=VMS$SELECT File=VMS$SELECT.:VMB6TSI                           WED 08/20/97 15:24 Page:50
        13 000361   001020 600000 13                 TZE     s:13969

      284    13828    3           THEN
      285    13829    3               VALUE$ = ONE$;

  13829 13 000362   000002 236000 11                 LDQ     ONE$
        13 000363   200742 756100                    STQ     VALUE$,,AUTO
        13 000364   001020 710000 13                 TRA     s:13969

      286    13830    3       CASE (%SEL_BROADCAST);

      287    13831    3           IF VM_HEADER.STATUS.BROADCAST

  13831 13 000365   000000 470400 xsym               LDP0    VM_HEADER$
        13 000366   000012 236100                    LDQ     10,,PR0
        13 000367   000001 316003                    CANQ    1,DU
        13 000370   001020 600000 13                 TZE     s:13969

      288    13832    3           THEN
      289    13833    3               VALUE$ = ONE$;

  13833 13 000371   000002 236000 11                 LDQ     ONE$
        13 000372   200742 756100                    STQ     VALUE$,,AUTO
        13 000373   001020 710000 13                 TRA     s:13969

      290    13834    3       CASE (%SEL_DATE_RCVD);

      291    13835    3           DATE1 = VM_HEADER.DELIVERY_DATE;

  13835 13 000374   000000 470400 xsym               LDP0    VM_HEADER$
        13 000375   000002 235100                    LDA     2,,PR0
        13 000376   200736 755100                    STA     TEMP1,,AUTO

      292    13836    3           GOTO DATE_COMPARER;

  13836 13 000377   000403 710000 13                 TRA     DATE_COMPARER

PL6.E3A0      #001=VMS$SELECT File=VMS$SELECT.:VMB6TSI                           WED 08/20/97 15:24 Page:51
      293    13837    3       CASE (%SEL_DATE_SENT);

      294    13838    3           DATE1 = VM_HEADER.CREATION_DATE;

  13838 13 000400   000000 470400 xsym               LDP0    VM_HEADER$
        13 000401   000001 235100                    LDA     1,,PR0
        13 000402   200736 755100                    STA     TEMP1,,AUTO

      295    13839    3   DATE_COMPARER:
      296    13840    3           CALL DATE_INIT (VAL_STACK$(VAL_PTR) -> P$B.SUBLK$(0)) ALTRET(E_DATE);

  13840 13 000403   200013 722100       DATE_COMPAR* LXL2    VAL_PTR,,AUTO
        13 000404   200503 471512                    LDP1    VAL_STACK$,X2,AUTO
        13 000405   100003 633500                    EPPR3   3,,PR1
        13 000406   200745 453500                    STP3    VALUE$+3,,AUTO
        13 000407   001111 701000 13                 TSX1    DATE_INIT
        13 000410   001054 702000 13                 TSX2    E_DATE

      297    13841    3           K = VAL_STACK$(VAL_PTR)->P$B.SUBLK$(0)->P$B.SCRITCH * %UTS_25TH_MIN#;

  13841 13 000411   200013 720100                    LXL0    VAL_PTR,,AUTO
        13 000412   200503 470510                    LDP0    VAL_STACK$,X0,AUTO
        13 000413   000003 471500                    LDP1    3,,PR0
        13 000414   100001 236100                    LDQ     1,,PR1
        13 000415   777777 376007                    ANQ     -1,DL
        13 000416   002734 402007                    MPY     1500,DL
        13 000417   200741 756100                    STQ     K,,AUTO

      298    13842    3           DATE2 = VAL_STACK$(VAL_PTR)->P$B.SUBLK$(0)->P$B.CPOS;

  13842 13 000420   200503 470510                    LDP0    VAL_STACK$,X0,AUTO
        13 000421   000003 471500                    LDP1    3,,PR0
        13 000422   100002 235100                    LDA     2,,PR1
        13 000423   200737 755100                    STA     TEMP2,,AUTO

      299    13843    3           CALL XUD$UTS_ADJ_25TH (DATE3, DATE2, K);

PL6.E3A0      #001=VMS$SELECT File=VMS$SELECT.:VMB6TSI                           WED 08/20/97 15:24 Page:52
  13843 13 000424   200741 630500                    EPPR0   K,,AUTO
        13 000425   200774 450500                    STP0    FPT_TIME+14,,AUTO
        13 000426   200737 631500                    EPPR1   TEMP2,,AUTO
        13 000427   200773 451500                    STP1    FPT_TIME+13,,AUTO
        13 000430   200740 633500                    EPPR3   DATE3,,AUTO
        13 000431   200772 453500                    STP3    FPT_TIME+12,,AUTO
        13 000432   200772 630500                    EPPR0   FPT_TIME+12,,AUTO
        13 000433   000000 631400 14                 EPPR1   0
        13 000434   000000 701000 xent               TSX1    XUD$UTS_ADJ_25TH
        13 000435   000000 011000                    NOP     0

      300    13844    4           DO CASE (VAL_STACK$(VAL_PTR) -> P$B.CODE);

  13844 13 000436   200013 720100                    LXL0    VAL_PTR,,AUTO
        13 000437   200503 470510                    LDP0    VAL_STACK$,X0,AUTO
        13 000440   000000 721100                    LXL1    0,,PR0
        13 000441   000007 101003                    CMPX1   7,DU
        13 000442   000444 602011 13                 TNC     s:13844+6,X1
        13 000443   001020 710000 13                 TRA     s:13969
        13 000444   000522 710000 13                 TRA     s:13869
        13 000445   000463 710000 13                 TRA     s:13850
        13 000446   000453 710000 13                 TRA     s:13846
        13 000447   000473 710000 13                 TRA     s:13854
        13 000450   000501 710000 13                 TRA     s:13858
        13 000451   000507 710000 13                 TRA     s:13862
        13 000452   000515 710000 13                 TRA     s:13866

      301    13845    4           CASE (%OPTION_EQ);

      302    13846    4               IF (DATE1 >= DATE2) AND (DATE1 < DATE3)

  13846 13 000453   200736 236100                    LDQ     TEMP1,,AUTO
        13 000454   200737 116100                    CMPQ    TEMP2,,AUTO
        13 000455   001020 602000 13                 TNC     s:13969
        13 000456   200740 116100                    CMPQ    DATE3,,AUTO
        13 000457   001020 603000 13                 TRC     s:13969

PL6.E3A0      #001=VMS$SELECT File=VMS$SELECT.:VMB6TSI                           WED 08/20/97 15:24 Page:53
      303    13847    4               THEN
      304    13848    4                   VALUE$ = ONE$;

  13848 13 000460   000002 236000 11                 LDQ     ONE$
        13 000461   200742 756100                    STQ     VALUE$,,AUTO
        13 000462   001020 710000 13                 TRA     s:13969

      305    13849    4           CASE (%OPTION_NE);

      306    13850    4               IF (DATE1 < DATE2) OR (DATE1 >= DATE3)

  13850 13 000463   200736 236100                    LDQ     TEMP1,,AUTO
        13 000464   200737 116100                    CMPQ    TEMP2,,AUTO
        13 000465   000470 602000 13                 TNC     s:13852
        13 000466   200740 116100                    CMPQ    DATE3,,AUTO
        13 000467   001020 602000 13                 TNC     s:13969

      307    13851    4               THEN
      308    13852    4                   VALUE$ = ONE$;

  13852 13 000470   000002 236000 11                 LDQ     ONE$
        13 000471   200742 756100                    STQ     VALUE$,,AUTO
        13 000472   001020 710000 13                 TRA     s:13969

      309    13853    4           CASE (%OPTION_GT);

      310    13854    4               IF DATE1 >= DATE3

  13854 13 000473   200736 236100                    LDQ     TEMP1,,AUTO
        13 000474   200740 116100                    CMPQ    DATE3,,AUTO
        13 000475   001020 602000 13                 TNC     s:13969

      311    13855    4               THEN
      312    13856    4                   VALUE$ = ONE$;

  13856 13 000476   000002 236000 11                 LDQ     ONE$
        13 000477   200742 756100                    STQ     VALUE$,,AUTO
PL6.E3A0      #001=VMS$SELECT File=VMS$SELECT.:VMB6TSI                           WED 08/20/97 15:24 Page:54
        13 000500   001020 710000 13                 TRA     s:13969

      313    13857    4           CASE (%OPTION_GE);

      314    13858    4               IF DATE1 >= DATE2

  13858 13 000501   200736 236100                    LDQ     TEMP1,,AUTO
        13 000502   200737 116100                    CMPQ    TEMP2,,AUTO
        13 000503   001020 602000 13                 TNC     s:13969

      315    13859    4               THEN
      316    13860    4                   VALUE$ = ONE$;

  13860 13 000504   000002 236000 11                 LDQ     ONE$
        13 000505   200742 756100                    STQ     VALUE$,,AUTO
        13 000506   001020 710000 13                 TRA     s:13969

      317    13861    4           CASE (%OPTION_LT);

      318    13862    4               IF DATE1 < DATE2

  13862 13 000507   200736 236100                    LDQ     TEMP1,,AUTO
        13 000510   200737 116100                    CMPQ    TEMP2,,AUTO
        13 000511   001020 603000 13                 TRC     s:13969

      319    13863    4               THEN
      320    13864    4                   VALUE$ = ONE$;

  13864 13 000512   000002 236000 11                 LDQ     ONE$
        13 000513   200742 756100                    STQ     VALUE$,,AUTO
        13 000514   001020 710000 13                 TRA     s:13969

      321    13865    4           CASE (%OPTION_LE);

      322    13866    4               IF DATE1 < DATE3

  13866 13 000515   200736 236100                    LDQ     TEMP1,,AUTO
PL6.E3A0      #001=VMS$SELECT File=VMS$SELECT.:VMB6TSI                           WED 08/20/97 15:24 Page:55
        13 000516   200740 116100                    CMPQ    DATE3,,AUTO
        13 000517   001020 603000 13                 TRC     s:13969

      323    13867    4               THEN
      324    13868    4                   VALUE$ = ONE$;

  13868 13 000520   000002 236000 11                 LDQ     ONE$
        13 000521   200742 756100                    STQ     VALUE$,,AUTO

      325    13869    4           END;

  13869 13 000522   001020 710000 13                 TRA     s:13969

      326    13870    3       CASE (%SEL_DELETED);

      327    13871    3           IF VM_HEADER.STATUS.DEL

  13871 13 000523   000000 470400 xsym               LDP0    VM_HEADER$
        13 000524   000012 236100                    LDQ     10,,PR0
        13 000525   000400 316003                    CANQ    256,DU
        13 000526   001020 600000 13                 TZE     s:13969

      328    13872    3           THEN
      329    13873    3               VALUE$ = ONE$;

  13873 13 000527   000002 236000 11                 LDQ     ONE$
        13 000530   200742 756100                    STQ     VALUE$,,AUTO
        13 000531   001020 710000 13                 TRA     s:13969

      330    13874    3       CASE (%SEL_DELIVERY);

      331    13875    3           IF VM_HEADER.STATUS.DELIVERY

  13875 13 000532   000000 470400 xsym               LDP0    VM_HEADER$
        13 000533   000012 236100                    LDQ     10,,PR0
        13 000534   000002 316003                    CANQ    2,DU
        13 000535   001020 600000 13                 TZE     s:13969
PL6.E3A0      #001=VMS$SELECT File=VMS$SELECT.:VMB6TSI                           WED 08/20/97 15:24 Page:56

      332    13876    3           THEN
      333    13877    3               VALUE$ = ONE$;

  13877 13 000536   000002 236000 11                 LDQ     ONE$
        13 000537   200742 756100                    STQ     VALUE$,,AUTO
        13 000540   001020 710000 13                 TRA     s:13969

      334    13878    3       CASE (%SEL_ERROR);

      335    13879    3           IF VM_HEADER.STATUS.ERR

  13879 13 000541   000000 470400 xsym               LDP0    VM_HEADER$
        13 000542   000012 234100                    SZN     10,,PR0
        13 000543   001020 605000 13                 TPL     s:13969

      336    13880    3           THEN
      337    13881    3               VALUE$ = ONE$;

  13881 13 000544   000002 236000 11                 LDQ     ONE$
        13 000545   200742 756100                    STQ     VALUE$,,AUTO
        13 000546   001020 710000 13                 TRA     s:13969

      338    13882    3       CASE (%SEL_EXAMINED);

      339    13883    3           IF VM_HEADER.STATUS.EXAM

  13883 13 000547   000000 470400 xsym               LDP0    VM_HEADER$
        13 000550   000012 430100                    FSZN    10,,PR0
        13 000551   001020 605000 13                 TPL     s:13969

      340    13884    3           THEN
      341    13885    3               VALUE$ = ONE$;

  13885 13 000552   000002 236000 11                 LDQ     ONE$
        13 000553   200742 756100                    STQ     VALUE$,,AUTO
        13 000554   001020 710000 13                 TRA     s:13969
PL6.E3A0      #001=VMS$SELECT File=VMS$SELECT.:VMB6TSI                           WED 08/20/97 15:24 Page:57

      342    13886    3       CASE (%SEL_FCOPY);

      343    13887    3           IF VM_HEADER.STATUS.FCOPY

  13887 13 000555   000000 470400 xsym               LDP0    VM_HEADER$
        13 000556   000012 236100                    LDQ     10,,PR0
        13 000557   000200 316003                    CANQ    128,DU
        13 000560   001020 600000 13                 TZE     s:13969

      344    13888    3           THEN
      345    13889    3               VALUE$ = ONE$;

  13889 13 000561   000002 236000 11                 LDQ     ONE$
        13 000562   200742 756100                    STQ     VALUE$,,AUTO
        13 000563   001020 710000 13                 TRA     s:13969

      346    13890    3       CASE (%SEL_FROM);

      347    13891    3           STRING$ = VM_HEADER.FROM$;

  13891 13 000564   000000 470400 xsym               LDP0    VM_HEADER$
        13 000565   000023 236100                    LDQ     19,,PR0
        13 000566   200735 756100                    STQ     STRING$,,AUTO

      348    13892    3           GOTO STRING_COMPARER;

  13892 13 000567   000652 710000 13                 TRA     STRING_COMPARER

      349    13893    3       CASE (%SEL_FWD);

      350    13894    3           IF VM_HEADER.STATUS.FORWARDED

  13894 13 000570   000000 470400 xsym               LDP0    VM_HEADER$
        13 000571   000012 236100                    LDQ     10,,PR0
        13 000572   000020 316003                    CANQ    16,DU
        13 000573   001020 600000 13                 TZE     s:13969
PL6.E3A0      #001=VMS$SELECT File=VMS$SELECT.:VMB6TSI                           WED 08/20/97 15:24 Page:58

      351    13895    3           THEN
      352    13896    3               VALUE$ = ONE$;

  13896 13 000574   000002 236000 11                 LDQ     ONE$
        13 000575   200742 756100                    STQ     VALUE$,,AUTO
        13 000576   001020 710000 13                 TRA     s:13969

      353    13897    3       CASE (%SEL_MARKED);

      354    13898    3           IF VM_HEADER.STATUS.MARK

  13898 13 000577   000000 470400 xsym               LDP0    VM_HEADER$
        13 000600   000012 236100                    LDQ     10,,PR0
        13 000601   000100 316003                    CANQ    64,DU
        13 000602   001020 600000 13                 TZE     s:13969

      355    13899    3           THEN
      356    13900    3               VALUE$ = ONE$;

  13900 13 000603   000002 236000 11                 LDQ     ONE$
        13 000604   200742 756100                    STQ     VALUE$,,AUTO
        13 000605   001020 710000 13                 TRA     s:13969

      357    13901    3       CASE (%SEL_NEW);

      358    13902    3           IF VM_HEADER.STATUS.OLD = %NO#

  13902 13 000606   000000 470400 xsym               LDP0    VM_HEADER$
        13 000607   000012 236100                    LDQ     10,,PR0
        13 000610   004000 316003                    CANQ    2048,DU
        13 000611   001020 601000 13                 TNZ     s:13969

      359    13903    3           THEN
      360    13904    3               VALUE$ = ONE$;

  13904 13 000612   000002 236000 11                 LDQ     ONE$
PL6.E3A0      #001=VMS$SELECT File=VMS$SELECT.:VMB6TSI                           WED 08/20/97 15:24 Page:59
        13 000613   200742 756100                    STQ     VALUE$,,AUTO
        13 000614   001020 710000 13                 TRA     s:13969

      361    13905    3       CASE (%SEL_OLD);

      362    13906    3           IF VM_HEADER.STATUS.OLD

  13906 13 000615   000000 470400 xsym               LDP0    VM_HEADER$
        13 000616   000012 236100                    LDQ     10,,PR0
        13 000617   004000 316003                    CANQ    2048,DU
        13 000620   001020 600000 13                 TZE     s:13969

      363    13907    3           THEN
      364    13908    3               VALUE$ = ONE$;

  13908 13 000621   000002 236000 11                 LDQ     ONE$
        13 000622   200742 756100                    STQ     VALUE$,,AUTO
        13 000623   001020 710000 13                 TRA     s:13969

      365    13909    3       CASE (%SEL_REFERENCE);

      366    13910    3           STRING$ = VM_HEADER.REFERENCE$;

  13910 13 000624   000000 470400 xsym               LDP0    VM_HEADER$
        13 000625   000024 236100                    LDQ     20,,PR0
        13 000626   200735 756100                    STQ     STRING$,,AUTO

      367    13911    3           GOTO STRING_COMPARER;

  13911 13 000627   000652 710000 13                 TRA     STRING_COMPARER

      368    13912    3       CASE (%SEL_REPLY_TO);

      369    13913    3           STRING$ = VM_HEADER.REPLY_TO$;

  13913 13 000630   000000 470400 xsym               LDP0    VM_HEADER$
        13 000631   000025 236100                    LDQ     21,,PR0
PL6.E3A0      #001=VMS$SELECT File=VMS$SELECT.:VMB6TSI                           WED 08/20/97 15:24 Page:60
        13 000632   200735 756100                    STQ     STRING$,,AUTO

      370    13914    3           GOTO STRING_COMPARER;

  13914 13 000633   000652 710000 13                 TRA     STRING_COMPARER

      371    13915    3       CASE (%SEL_RR);

      372    13916    3           IF VM_HEADER.STATUS.RRACK

  13916 13 000634   000000 470400 xsym               LDP0    VM_HEADER$
        13 000635   000012 236100                    LDQ     10,,PR0
        13 000636   020000 316007                    CANQ    8192,DL
        13 000637   001020 600000 13                 TZE     s:13969

      373    13917    3           THEN
      374    13918    3               VALUE$ = ONE$;

  13918 13 000640   000002 236000 11                 LDQ     ONE$
        13 000641   200742 756100                    STQ     VALUE$,,AUTO
        13 000642   001020 710000 13                 TRA     s:13969

      375    13919    3       CASE (%SEL_SUBJECT);

      376    13920    3           STRING$ = VM_HEADER.SUBJECT$;

  13920 13 000643   000000 470400 xsym               LDP0    VM_HEADER$
        13 000644   000030 236100                    LDQ     24,,PR0
        13 000645   200735 756100                    STQ     STRING$,,AUTO

      377    13921    3           GOTO STRING_COMPARER;

  13921 13 000646   000652 710000 13                 TRA     STRING_COMPARER

      378    13922    3       CASE (%SEL_TO);

      379    13923    3           STRING$ = VM_HEADER.TO$;
PL6.E3A0      #001=VMS$SELECT File=VMS$SELECT.:VMB6TSI                           WED 08/20/97 15:24 Page:61

  13923 13 000647   000000 470400 xsym               LDP0    VM_HEADER$
        13 000650   000031 236100                    LDQ     25,,PR0
        13 000651   200735 756100                    STQ     STRING$,,AUTO

      380    13924    3   STRING_COMPARER:
      381    13925    3           IF STRING$ = ADDR(NIL)

  13925 13 000652   000002 116000 14    STRING_COMP* CMPQ    2
        13 000653   000777 600000 13                 TZE     NO_MATCH

      382    13926    3           THEN                       /* Cannot make this comparison */
      383    13927    3               GOTO NO_MATCH;
      384    13928    3           IF STRING$ -> X$STRING.SIZ = 0

  13928 13 000654   200735 471500                    LDP1    STRING$,,AUTO
        13 000655   000100 101500                    MRL     fill='000'O
        13 000656   100000 000001                    ADSC9   0,,PR1                   cn=0,n=1
        13 000657   200772 000004                    ADSC9   FPT_TIME+12,,AUTO        cn=0,n=4
        13 000660   200772 236100                    LDQ     FPT_TIME+12,,AUTO
        13 000661   000000 116003                    CMPQ    0,DU
        13 000662   000777 600000 13                 TZE     NO_MATCH

      385    13929    3           THEN                       /* Cannot make this comparison */
      386    13930    3               GOTO NO_MATCH;
      387    13931    3           CALL XLATE (WORK1.NAME#,LOWER_UPPER,VAL_STACK$(VAL_PTR) ->

  13931 13 000663   200013 722100                    LXL2    VAL_PTR,,AUTO
        13 000664   200503 473512                    LDP3    VAL_STACK$,X2,AUTO
        13 000665   300003 474500                    LDP4    3,,PR3
        13 000666   400004 236100                    LDQ     4,,PR4
        13 000667   000033 772000                    QRL     27
        13 000670   000000 623006                    EAX3    0,QL
        13 000671   000000 475400 xsym               LDP5    B$XL_UPPER$
        13 000672   040100 160540                    MVT     fill='040'O
        13 000673   400004 200013                    ADSC9   4,,PR4                   cn=1,n=*X3
        13 000674   200017 200777                    ADSC9   WORK1,,AUTO              cn=1,n=511
PL6.E3A0      #001=VMS$SELECT File=VMS$SELECT.:VMB6TSI                           WED 08/20/97 15:24 Page:62
        13 000675   500000 000100                    ARG     0,,PR5

      388    13932    3             P$B.SUBLK$(0) -> P$S.TEXT);
      389    13933    3           WORK1.L# = VAL_STACK$(VAL_PTR) -> P$B.SUBLK$(0) -> P$S.COUNT;

  13933 13 000676   200503 473512                    LDP3    VAL_STACK$,X2,AUTO
        13 000677   300003 474500                    LDP4    3,,PR3
        13 000700   400004 236100                    LDQ     4,,PR4
        13 000701   200017 552140                    STBQ    WORK1,'40'O,AUTO

      390    13934    3           CALL XLATE (SUBSTR(WORK2.NAME#,2),LOWER_UPPER,STRING$ ->X$STRING.TEXT);

  13934 13 000702   000100 101500                    MRL     fill='000'O
        13 000703   100000 000001                    ADSC9   0,,PR1                   cn=0,n=1
        13 000704   200772 000002                    ADSC9   FPT_TIME+12,,AUTO        cn=0,n=2
        13 000705   200772 223100                    LDX3    FPT_TIME+12,,AUTO
        13 000706   040100 160540                    MVT     fill='040'O
        13 000707   100000 200013                    ADSC9   0,,PR1                   cn=1,n=*X3
        13 000710   200217 600775                    ADSC9   WORK2,,AUTO              cn=3,n=509
        13 000711   500000 000100                    ARG     0,,PR5

      391    13935    3           SUBSTR(WORK2.NAME#,0,2) = '. '; /* dummy word to reserve two spaces */

  13935 13 000712   000134 236000 11                 LDQ     FPT_TIME_C+12
        13 000713   000011 772000                    QRL     9
        13 000714   200217 552130                    STBQ    WORK2,'30'O,AUTO

      392    13936    3           WORK2.L# = LENGTHC(WORK2.NAME#);

  13936 13 000715   777000 236003                    LDQ     -512,DU
        13 000716   200217 552140                    STBQ    WORK2,'40'O,AUTO

      393    13937    3           CALL VMA$COMPRESS_BLANKS (ADDR(WORK2));

  13937 13 000717   200217 633500                    EPPR3   WORK2,,AUTO
        13 000720   200772 453500                    STP3    FPT_TIME+12,,AUTO
        13 000721   200772 634500                    EPPR4   FPT_TIME+12,,AUTO
PL6.E3A0      #001=VMS$SELECT File=VMS$SELECT.:VMB6TSI                           WED 08/20/97 15:24 Page:63
        13 000722   200773 454500                    STP4    FPT_TIME+13,,AUTO
        13 000723   200773 630500                    EPPR0   FPT_TIME+13,,AUTO
        13 000724   000003 631400 14                 EPPR1   3
        13 000725   000000 701000 xent               TSX1    VMA$COMPRESS_BLANKS
        13 000726   000000 011000                    NOP     0

      394    13938    3           IF WORK2.L# < 2 THEN          /* Cannot make this comparison */

  13938 13 000727   200217 236100                    LDQ     WORK2,,AUTO
        13 000730   777000 376003                    ANQ     -512,DU
        13 000731   002000 116003                    CMPQ    1024,DU
        13 000732   000777 602000 13                 TNC     NO_MATCH

      395    13939    3               GOTO NO_MATCH;
      396    13940    3           WORK2.L# = WORK2.L# + 2; /* add two spaces at end, too */

  13940 13 000733   200217 236100                    LDQ     WORK2,,AUTO
        13 000734   002000 036003                    ADLQ    1024,DU
        13 000735   200217 552140                    STBQ    WORK2,'40'O,AUTO

      397    13941    3           SUBSTR(WORK2.NAME#,0,1) = ' '; /* start with two spaces */

  13941 13 000736   000040 236003                    LDQ     32,DU
        13 000737   200217 552120                    STBQ    WORK2,'20'O,AUTO

      398    13942    3           VM_WILDCARD.PATTERN_ = VECTOR(SUBSTR(WORK1.NAME#,0,WORK1.L#));

  13942 13 000740   200017 236100                    LDQ     WORK1,,AUTO
        13 000741   000033 772000                    QRL     27
        13 000742   000064 737000                    LLS     52
        13 000743   000140 135007                    SBLA    96,DL
        13 000744   200772 452500                    STP2    FPT_TIME+12,,AUTO
        13 000745   200772 236100                    LDQ     FPT_TIME+12,,AUTO
        13 000746   000004 036000 14                 ADLQ    4
        13 000747   000000 757000 12                 STAQ    VM_WILDCARD

      399    13943    3           VM_WILDCARD.INPUT_ = VECTOR(SUBSTR(WORK2.NAME#,0,WORK2.L#));
PL6.E3A0      #001=VMS$SELECT File=VMS$SELECT.:VMB6TSI                           WED 08/20/97 15:24 Page:64

  13943 13 000750   200217 236100                    LDQ     WORK2,,AUTO
        13 000751   000033 772000                    QRL     27
        13 000752   000064 737000                    LLS     52
        13 000753   000140 135007                    SBLA    96,DL
        13 000754   200772 452500                    STP2    FPT_TIME+12,,AUTO
        13 000755   200772 236100                    LDQ     FPT_TIME+12,,AUTO
        13 000756   000005 036000 14                 ADLQ    5
        13 000757   000002 757000 12                 STAQ    VM_WILDCARD+2

      400    13944    3           CALL X$WILDCMP (VM_WILDCARD)

  13944 13 000760   000006 630400 14                 EPPR0   6
        13 000761   000003 631400 14                 EPPR1   3
        13 000762   000000 701000 xent               TSX1    X$WILDCMP
        13 000763   000777 702000 13                 TSX2    NO_MATCH

      401    13945    3           WHENRETURN
      402    13946    4           DO;

      403    13947    4               IF VAL_STACK$(VAL_PTR) -> P$B.CODE = %OPTION_EQ THEN

  13947 13 000764   200013 720100                    LXL0    VAL_PTR,,AUTO
        13 000765   200503 470510                    LDP0    VAL_STACK$,X0,AUTO
        13 000766   000000 721100                    LXL1    0,,PR0
        13 000767   000002 101003                    CMPX1   2,DU
        13 000770   000774 601000 13                 TNZ     s:13950

      404    13948    4                   VALUE$ = ONE$;

  13948 13 000771   000002 236000 11                 LDQ     ONE$
        13 000772   200742 756100                    STQ     VALUE$,,AUTO
        13 000773   000776 710000 13                 TRA     s:13951

      405    13949    4               ELSE
      406    13950    4                   VALUE$ = ZERO$;

PL6.E3A0      #001=VMS$SELECT File=VMS$SELECT.:VMB6TSI                           WED 08/20/97 15:24 Page:65
  13950 13 000774   000000 236000 11                 LDQ     ZERO$
        13 000775   200742 756100                    STQ     VALUE$,,AUTO

      407    13951    4           END;

  13951 13 000776   001011 710000 13                 TRA     s:13959

      408    13952    3           WHENALTRETURN
      409    13953    4           DO;

      410    13954    4   NO_MATCH:
      411    13955    4               IF VAL_STACK$(VAL_PTR) -> P$B.CODE = %OPTION_NE THEN

  13955 13 000777   200013 720100       NO_MATCH     LXL0    VAL_PTR,,AUTO
        13 001000   200503 470510                    LDP0    VAL_STACK$,X0,AUTO
        13 001001   000000 721100                    LXL1    0,,PR0
        13 001002   000001 101003                    CMPX1   1,DU
        13 001003   001007 601000 13                 TNZ     s:13958

      412    13956    4                   VALUE$ = ONE$;

  13956 13 001004   000002 236000 11                 LDQ     ONE$
        13 001005   200742 756100                    STQ     VALUE$,,AUTO
        13 001006   001011 710000 13                 TRA     s:13959

      413    13957    4               ELSE
      414    13958    4                   VALUE$ = ZERO$;

  13958 13 001007   000000 236000 11                 LDQ     ZERO$
        13 001010   200742 756100                    STQ     VALUE$,,AUTO

      415    13959    4           END;

  13959 13 001011   001020 710000 13                 TRA     s:13969

      416    13960    3       CASE (%SEL_UNEXAMINED);

PL6.E3A0      #001=VMS$SELECT File=VMS$SELECT.:VMB6TSI                           WED 08/20/97 15:24 Page:66
      417    13961    3           IF VM_HEADER.STATUS.EXAM = %NO#

  13961 13 001012   000000 470400 xsym               LDP0    VM_HEADER$
        13 001013   000012 430100                    FSZN    10,,PR0
        13 001014   001020 604000 13                 TMI     s:13969

      418    13962    3           THEN
      419    13963    3               VALUE$ = ONE$;

  13963 13 001015   000002 236000 11                 LDQ     ONE$
        13 001016   200742 756100                    STQ     VALUE$,,AUTO
        13 001017   001020 710000 13                 TRA     s:13969

      420    13964    3       CASE (ELSE);

      421    13965    3       END;                             /* Do case ... end */

      422    13966        /*
      423    13967             ***** Reduce the value stack...
      424    13968        */
      425    13969    2       VAL_PTR = VAL_PTR - NUM_TO_POP_STACK(OP_PTR);

  13969 13 001020   200012 720100                    LXL0    OP_PTR,,AUTO
        13 001021   200013 236100                    LDQ     VAL_PTR,,AUTO
        13 001022   200451 136110                    SBLQ    NUM_TO_POP_STACK,X0,AUTO
        13 001023   200013 756100                    STQ     VAL_PTR,,AUTO

      426    13970        /*
      427    13971             ***** Push the result of this reduction
      428    13972                   onto the value stack (VAL_STACK$) ...
      429    13973        */
      430    13974            %PUSH_VALUE;

  13975 13 001024   200013 054100                    AOS     VAL_PTR,,AUTO

  13976 13 001025   200013 235100                    LDA     VAL_PTR,,AUTO
        13 001026   000031 115007                    CMPA    25,DL
PL6.E3A0      #001=VMS$SELECT File=VMS$SELECT.:VMB6TSI                           WED 08/20/97 15:24 Page:67
        13 001027   001037 604400 13                 TMOZ    s:13985

  13979 13 001030   000004 236000 11                 LDQ     E_STKOVFL
        13 001031   200004 470500                    LDP0    @VM_SELECT,,AUTO
        13 001032   000000 756100                    STQ     0,,PR0

  13980 13 001033   200011 235100                    LDA     CHARPOS,,AUTO
        13 001034   000001 755100                    STA     1,,PR0

  13981 13 001035   200734 221300                    LDX1  ! CHARPOS_STACK+51,,AUTO
        13 001036   000000 702211                    TSX2  ! 0,X1

  13985 13 001037   200742 236100                    LDQ     VALUE$,,AUTO
        13 001040   200503 756105                    STQ     VAL_STACK$,AL,AUTO

  13986 13 001041   000777 235007                    LDA     511,DL
        13 001042   200013 721100                    LXL1    VAL_PTR,,AUTO
        13 001043   200566 755111                    STA     VAL_TYPE,X1,AUTO

  13987 13 001044   200011 722100                    LXL2    CHARPOS,,AUTO
        13 001045   200651 742111                    STX2    CHARPOS_STACK,X1,AUTO

      431    13990        /*
      432    13991             ***** Remove the reduced operator from
      433    13992                   the operator stack (OP_STK) ...
      434    13993        */
      435    13994    2       OP_PTR = OP_PTR - 1;

  13994 13 001046   000001 336007                    LCQ     1,DL
        13 001047   200012 056100                    ASQ     OP_PTR,,AUTO

      436    13995    2       RETURN;

  13995 13 001050   200734 221300                    LDX1  ! CHARPOS_STACK+51,,AUTO
        13 001051   000001 702211                    TSX2  ! 1,X1

      437    13996        /**/
PL6.E3A0      #001=VMS$SELECT File=VMS$SELECT.:VMB6TSI                           WED 08/20/97 15:24 Page:68
      438    13997    2   E_REDUCE:
      439    13998    2       ALTRETURN;

  13998 13 001052   200734 221300       E_REDUCE     LDX1  ! CHARPOS_STACK+51,,AUTO
        13 001053   000000 702211                    TSX2  ! 0,X1

      440    13999        /**/
      441    14000    2   E_DATE:
      442    14001    2       VM_SELECT.ERROR = B$TCB.ALT$->B$ALT.ERR;

  14001 13 001054   000000 470400 xsym  E_DATE       LDP0    B$TCB$
        13 001055   000000 471500                    LDP1    0,,PR0
        13 001056   100102 236100                    LDQ     66,,PR1
        13 001057   200004 473500                    LDP3    @VM_SELECT,,AUTO
        13 001060   300000 756100                    STQ     0,,PR3

      443    14002    2       VM_SELECT.ERR_POS# = CHARPOS_STACK(VAL_PTR);

  14002 13 001061   200013 720100                    LXL0    VAL_PTR,,AUTO
        13 001062   200651 236110                    LDQ     CHARPOS_STACK,X0,AUTO
        13 001063   000022 772000                    QRL     18
        13 001064   300001 756100                    STQ     1,,PR3

      444    14003    2       ALTRETURN;

  14003 13 001065   200734 221300                    LDX1  ! CHARPOS_STACK+51,,AUTO
        13 001066   000000 702211                    TSX2  ! 0,X1

      445    14004    2   E_DEC1:
      446    14005    2       VM_SELECT.ERROR = E_NONDECIMAL;

  14005 13 001067   000005 236000 11    E_DEC1       LDQ     E_NONDECIMAL
        13 001070   200004 470500                    LDP0    @VM_SELECT,,AUTO
        13 001071   000000 756100                    STQ     0,,PR0

      447    14006    2       VM_SELECT.ERR_POS# = CHARPOS_STACK(VAL_PTR-1);

PL6.E3A0      #001=VMS$SELECT File=VMS$SELECT.:VMB6TSI                           WED 08/20/97 15:24 Page:69
  14006 13 001072   200013 720100                    LXL0    VAL_PTR,,AUTO
        13 001073   200650 236110                    LDQ     VAL_TYPE+50,X0,AUTO
        13 001074   000022 772000                    QRL     18
        13 001075   000001 756100                    STQ     1,,PR0

      448    14007    2       ALTRETURN;

  14007 13 001076   200734 221300                    LDX1  ! CHARPOS_STACK+51,,AUTO
        13 001077   000000 702211                    TSX2  ! 0,X1

      449    14008        /**/
      450    14009    2   E_DEC2:
      451    14010    2       VM_SELECT.ERROR = E_NONDECIMAL;

  14010 13 001100   000005 236000 11    E_DEC2       LDQ     E_NONDECIMAL
        13 001101   200004 470500                    LDP0    @VM_SELECT,,AUTO
        13 001102   000000 756100                    STQ     0,,PR0

      452    14011    2       VM_SELECT.ERR_POS# = CHARPOS_STACK(VAL_PTR);

  14011 13 001103   200013 720100                    LXL0    VAL_PTR,,AUTO
        13 001104   200651 236110                    LDQ     CHARPOS_STACK,X0,AUTO
        13 001105   000022 772000                    QRL     18
        13 001106   000001 756100                    STQ     1,,PR0

      453    14012    2       ALTRETURN;

  14012 13 001107   200734 221300                    LDX1  ! CHARPOS_STACK+51,,AUTO
        13 001110   000000 702211                    TSX2  ! 0,X1

      454    14013    2   END REDUCE;
      455    14014        %EJECT;
PL6.E3A0      #001=VMS$SELECT File=VMS$SELECT.:VMB6TSI                           WED 08/20/97 15:24 Page:70
      456    14015    1   DATE_INIT: PROC (OUT$) ALTRET;

  14015 13 001111   200744 741300       DATE_INIT    STX1  ! VALUE$+2,,AUTO

      457    14016        /***** Parameters *****/
      458    14017    2   DCL OUT$ PTR;
      459    14018        /***** Local Variables *****/
      460    14019    2   DCL P$ PTR;
      461    14020    2   DCL I SBIN;
      462    14021    2   DCL J SBIN;
      463    14022    2   DCL 1 WORK_DATE,
      464    14023    2         2 MONTH CHAR(2),
      465    14024    2         2 * CHAR(1),
      466    14025    2         2 DAY CHAR(2),
      467    14026    2         2 * CHAR(1),
      468    14027    2         2 YEAR CHAR(2);
      469    14028    2   DCL 1 WORK_TIME,
      470    14029    2         2 HOUR CHAR(2),
      471    14030    2         2 * CHAR(1),
      472    14031    2         2 MIN CHAR(2);
      473    14032    2   DCL WORK_TIMEC REDEF WORK_TIME CHAR(5);
      474    14033    2   DCL INIT_TIMEC CHAR(5) CONSTANT INIT('00:00');
      475    14034
      476    14035        %FPT_TIME (FPTN=FPT_TIME_C, STCLASS=CONSTANT,
      477    14036                   SOURCE=CLOCK,
      478    14037                   DEST=LOCAL);
      479    14056        %FPT_TIME (FPTN=FPT_TIME, STCLASS=AUTO);
      480    14075        /*
      481    14076                If the timestamp has been initialized, P$B.SCRITCH has been
      482    14077                set to the resolution of the timestamp (in minutes), and
      483    14078                P$B.CPOS has been replaced with the UTS for the timestamp.
      484    14079        */
      485    14080    2       IF OUT$ -> P$B.SCRITCH > 0

  14080 13 001112   200745 470500                    LDP0    @OUT$,,AUTO
        13 001113   000000 471500                    LDP1    0,,PR0
        13 001114   100001 720100                    LXL0    1,,PR1
PL6.E3A0      #001=VMS$SELECT File=VMS$SELECT.:VMB6TSI                           WED 08/20/97 15:24 Page:71
        13 001115   001117 600000 13                 TZE     s:14086

      486    14081    2       THEN
      487    14082    2           RETURN;

  14082 13 001116   000001 702211                    TSX2  ! 1,X1

      488    14083        /*
      489    14084                Start with current date, time of midnight.
      490    14085        */
      491    14086    2       FPT_TIME = FPT_TIME_C;

  14086 13 001117   000100 100400                    MLR     fill='000'O
        13 001120   000120 000060 11                 ADSC9   FPT_TIME_C               cn=0,n=48
        13 001121   200756 000060                    ADSC9   FPT_TIME,,AUTO           cn=0,n=48

      492    14087    2       FPT_TIME.V_ = VECTOR(FPT_TIME.V);

  14087 13 001122   000007 235000 14                 LDA     7
        13 001123   200772 452500                    STP2    FPT_TIME+12,,AUTO
        13 001124   200772 236100                    LDQ     FPT_TIME+12,,AUTO
        13 001125   000770 036003                    ADLQ    504,DU
        13 001126   200756 757100                    STAQ    FPT_TIME,,AUTO

      493    14088    2       FPT_TIME.DATE_ = VECTOR(WORK_DATE);

  14088 13 001127   000007 235000 14                 LDA     7
        13 001130   200772 452500                    STP2    FPT_TIME+12,,AUTO
        13 001131   200772 236100                    LDQ     FPT_TIME+12,,AUTO
        13 001132   000751 036003                    ADLQ    489,DU
        13 001133   200760 757100                    STAQ    FPT_TIME+2,,AUTO

      494    14089    2       CALL M$TIME (FPT_TIME);

  14089 13 001134   200756 630500                    EPPR0   FPT_TIME,,AUTO
        13 001135   020004 713400                    CLIMB   8196
        13 001136   402000 401760                    pmme    nvectors=5
PL6.E3A0      #001=VMS$SELECT File=VMS$SELECT.:VMB6TSI                           WED 08/20/97 15:24 Page:72

      495    14090    2       WORK_TIMEC = INIT_TIMEC;

  14090 13 001137   040100 100400                    MLR     fill='040'O
        13 001140   000116 000005 11                 ADSC9   INIT_TIMEC               cn=0,n=5
        13 001141   200753 000005                    ADSC9   WORK_TIME,,AUTO          cn=0,n=5

      496    14091        /*
      497    14092                Setup to get timestamp specified for nodes.
      498    14093        */
      499    14094    2       FPT_TIME.V.SOURCE# = %LOCAL#;

  14094 13 001142   003000 236003                    LDQ     1536,DU
        13 001143   200770 552140                    STBQ    FPT_TIME+10,'40'O,AUTO

      500    14095    2       FPT_TIME.V.DEST# = %UTS#;

  14095 13 001144   000004 236003                    LDQ     4,DU
        13 001145   200770 552120                    STBQ    FPT_TIME+10,'20'O,AUTO

      501    14096    2       FPT_TIME.TSTAMP_ = VECTOR(OUT$ -> P$B.CPOS);

  14096 13 001146   200745 470500                    LDP0    @OUT$,,AUTO
        13 001147   000000 471500                    LDP1    0,,PR0
        13 001150   777640 235007                    LDA     -96,DL
        13 001151   200772 451500                    STP1    FPT_TIME+12,,AUTO
        13 001152   200772 236100                    LDQ     FPT_TIME+12,,AUTO
        13 001153   000002 036003                    ADLQ    2,DU
        13 001154   200766 757100                    STAQ    FPT_TIME+8,,AUTO

      502    14097    2       OUT$ -> P$B.SCRITCH = %MINS_PER_DAY;

  14097 13 001155   000000 471500                    LDP1    0,,PR0
        13 001156   002640 220003                    LDX0    1440,DU
        13 001157   100001 440100                    SXL0    1,,PR1

      503    14098    3       DO I = OUT$ -> P$B.NSUBLKS - 1 DOWNTO 0;
PL6.E3A0      #001=VMS$SELECT File=VMS$SELECT.:VMB6TSI                           WED 08/20/97 15:24 Page:73

  14098 13 001160   000000 471500                    LDP1    0,,PR0
        13 001161   100001 236100                    LDQ     1,,PR1
        13 001162   000022 772000                    QRL     18
        13 001163   000001 136007                    SBLQ    1,DL
        13 001164   200747 756100                    STQ     I,,AUTO
        13 001165   001302 710000 13                 TRA     s:14119+2

      504    14099    3           P$ = OUT$ -> P$B.SUBLK$(I);

  14099 13 001166   200745 470500                    LDP0    @OUT$,,AUTO
        13 001167   000000 471500                    LDP1    0,,PR0
        13 001170   200747 720100                    LXL0    I,,AUTO
        13 001171   100003 236110                    LDQ     3,X0,PR1
        13 001172   200746 756100                    STQ     P$,,AUTO

      505    14100    4           DO CASE (P$ -> P$B.CODE);

  14100 13 001173   200746 473500                    LDP3    P$,,AUTO
        13 001174   300000 721100                    LXL1    0,,PR3
        13 001175   000003 101003                    CMPX1   3,DU
        13 001176   001200 602011 13                 TNC     s:14100+5,X1
        13 001177   001300 710000 13                 TRA     s:14119
        13 001200   001300 710000 13                 TRA     s:14119
        13 001201   001203 710000 13                 TRA     s:14102
        13 001202   001245 710000 13                 TRA     s:14112

      506    14101    4           CASE (%OPTION_DATE);

      507    14102    4               CALL CHARBIN (J, P$ -> P$B.SUBLK$(0) -> P$S.TEXT);

  14102 13 001203   300003 474500                    LDP4    3,,PR3
        13 001204   400004 236100                    LDQ     4,,PR4
        13 001205   000033 772000                    QRL     27
        13 001206   000000 622006                    EAX2    0,QL
        13 001207   000100 305540                    DTB
        13 001210   400004 230012                    NDSC9   4,,PR4                   cn=1,s=nosgn,sf=0,n=*X2
PL6.E3A0      #001=VMS$SELECT File=VMS$SELECT.:VMB6TSI                           WED 08/20/97 15:24 Page:74
        13 001211   200750 000004                    NDSC9   J,,AUTO                  cn=0,s=lsgnf,sf=0,n=4

      508    14103    4               CALL BINCHAR(WORK_DATE.MONTH, J);

  14103 13 001212   000100 301500                    BTD
        13 001213   200750 000004                    NDSC9   J,,AUTO                  cn=0,s=lsgnf,sf=0,n=4
        13 001214   200751 030002                    NDSC9   WORK_DATE,,AUTO          cn=0,s=nosgn,sf=0,n=2

      509    14104    4               CALL CHARBIN (J, P$ -> P$B.SUBLK$(1) -> P$S.TEXT);

  14104 13 001215   300004 471500                    LDP1    4,,PR3
        13 001216   100004 236100                    LDQ     4,,PR1
        13 001217   000033 772000                    QRL     27
        13 001220   000000 621006                    EAX1    0,QL
        13 001221   000100 305540                    DTB
        13 001222   100004 230011                    NDSC9   4,,PR1                   cn=1,s=nosgn,sf=0,n=*X1
        13 001223   200750 000004                    NDSC9   J,,AUTO                  cn=0,s=lsgnf,sf=0,n=4

      510    14105    4               CALL BINCHAR (WORK_DATE.DAY, J);

  14105 13 001224   000100 301500                    BTD
        13 001225   200750 000004                    NDSC9   J,,AUTO                  cn=0,s=lsgnf,sf=0,n=4
        13 001226   200751 630002                    NDSC9   WORK_DATE,,AUTO          cn=3,s=nosgn,sf=0,n=2

      511    14106    4               IF P$ -> P$B.NSUBLKS = 3

  14106 13 001227   300001 221100                    LDX1    1,,PR3
        13 001230   000003 101003                    CMPX1   3,DU
        13 001231   001300 601000 13                 TNZ     s:14119

      512    14107    5               THEN DO;         /* A year specified */

      513    14108    5                   CALL CHARBIN (J, P$ -> P$B.SUBLK$(2) -> P$S.TEXT);

  14108 13 001232   300005 471500                    LDP1    5,,PR3
        13 001233   100004 236100                    LDQ     4,,PR1
        13 001234   000033 772000                    QRL     27
PL6.E3A0      #001=VMS$SELECT File=VMS$SELECT.:VMB6TSI                           WED 08/20/97 15:24 Page:75
        13 001235   000000 622006                    EAX2    0,QL
        13 001236   000100 305540                    DTB
        13 001237   100004 230012                    NDSC9   4,,PR1                   cn=1,s=nosgn,sf=0,n=*X2
        13 001240   200750 000004                    NDSC9   J,,AUTO                  cn=0,s=lsgnf,sf=0,n=4

      514    14109    5                   CALL BINCHAR (WORK_DATE.YEAR, J);

  14109 13 001241   000100 301500                    BTD
        13 001242   200750 000004                    NDSC9   J,,AUTO                  cn=0,s=lsgnf,sf=0,n=4
        13 001243   200752 430002                    NDSC9   WORK_DATE+1,,AUTO        cn=2,s=nosgn,sf=0,n=2

      515    14110    5               END;

  14110 13 001244   001300 710000 13                 TRA     s:14119

      516    14111    4           CASE (%OPTION_TIME);

      517    14112    4               OUT$ -> P$B.SCRITCH = 1;

  14112 13 001245   000001 222003                    LDX2    1,DU
        13 001246   100001 442100                    SXL2    1,,PR1

      518    14113    4               FPT_TIME.TIME_ = VECTOR(WORK_TIME);

  14113 13 001247   000010 235000 14                 LDA     8
        13 001250   200772 452500                    STP2    FPT_TIME+12,,AUTO
        13 001251   200772 236100                    LDQ     FPT_TIME+12,,AUTO
        13 001252   000753 036003                    ADLQ    491,DU
        13 001253   200762 757100                    STAQ    FPT_TIME+4,,AUTO

      519    14114    4               CALL CHARBIN (J, P$ -> P$B.SUBLK$(0) -> P$S.TEXT);

  14114 13 001254   300003 471500                    LDP1    3,,PR3
        13 001255   100004 236100                    LDQ     4,,PR1
        13 001256   000033 772000                    QRL     27
        13 001257   000000 621006                    EAX1    0,QL
        13 001260   000100 305540                    DTB
PL6.E3A0      #001=VMS$SELECT File=VMS$SELECT.:VMB6TSI                           WED 08/20/97 15:24 Page:76
        13 001261   100004 230011                    NDSC9   4,,PR1                   cn=1,s=nosgn,sf=0,n=*X1
        13 001262   200750 000004                    NDSC9   J,,AUTO                  cn=0,s=lsgnf,sf=0,n=4

      520    14115    4               CALL BINCHAR (WORK_TIME.HOUR, J);

  14115 13 001263   000100 301500                    BTD
        13 001264   200750 000004                    NDSC9   J,,AUTO                  cn=0,s=lsgnf,sf=0,n=4
        13 001265   200753 030002                    NDSC9   WORK_TIME,,AUTO          cn=0,s=nosgn,sf=0,n=2

      521    14116    4               CALL CHARBIN (J, P$ -> P$B.SUBLK$(1) -> P$S.TEXT);

  14116 13 001266   300004 471500                    LDP1    4,,PR3
        13 001267   100004 236100                    LDQ     4,,PR1
        13 001270   000033 772000                    QRL     27
        13 001271   000000 621006                    EAX1    0,QL
        13 001272   000100 305540                    DTB
        13 001273   100004 230011                    NDSC9   4,,PR1                   cn=1,s=nosgn,sf=0,n=*X1
        13 001274   200750 000004                    NDSC9   J,,AUTO                  cn=0,s=lsgnf,sf=0,n=4

      522    14117    4               CALL BINCHAR (WORK_TIME.MIN, J);

  14117 13 001275   000100 301500                    BTD
        13 001276   200750 000004                    NDSC9   J,,AUTO                  cn=0,s=lsgnf,sf=0,n=4
        13 001277   200753 630002                    NDSC9   WORK_TIME,,AUTO          cn=3,s=nosgn,sf=0,n=2

      523    14118    4           END;

      524    14119    3       END;

  14119 13 001300   000001 336007                    LCQ     1,DL
        13 001301   200747 056100                    ASQ     I,,AUTO
        13 001302   200747 235100                    LDA     I,,AUTO
        13 001303   001166 605000 13                 TPL     s:14099

      525    14120        /*
      526    14121              ***** Now convert the timestamp into a uts ...
      527    14122        */
PL6.E3A0      #001=VMS$SELECT File=VMS$SELECT.:VMB6TSI                           WED 08/20/97 15:24 Page:77
      528    14123    2       CALL M$TIME (FPT_TIME) ALTRET(BAD_TIME);

  14123 13 001304   200756 630500                    EPPR0   FPT_TIME,,AUTO
        13 001305   420004 713400                    CLIMB   alt,+8196
        13 001306   402000 401760                    pmme    nvectors=5
        13 001307   001312 702000 13                 TSX2    BAD_TIME

      529    14124    2       RETURN;

  14124 13 001310   200744 221300                    LDX1  ! VALUE$+2,,AUTO
        13 001311   000001 702211                    TSX2  ! 1,X1

  14117 13 001312                       BAD_TIME     null
      530    14125
      531    14126    2   BAD_TIME: ;
      532    14127    2       ALTRETURN;

  14127 13 001312   200744 221300                    LDX1  ! VALUE$+2,,AUTO
        13 001313   000000 702211                    TSX2  ! 0,X1

      533    14128    2   END DATE_INIT;
      534    14129        %EJECT;
PL6.E3A0      #001=VMS$SELECT File=VMS$SELECT.:VMB6TSI                           WED 08/20/97 15:24 Page:78
      535    14130        /*
      536    14131             ***** Main routine for evaluating expressions.
      537    14132                   Handles stacking/reduction decisions and
      538    14133                   calls such routines as needed to perform
      539    14134                   reduction and lexical analysis.
      540    14135                   This routine is called recursively...
      541    14136        */
      542    14137    1       OP_PTR = 0;

  14137 13 001314   200012 450100                    STZ     OP_PTR,,AUTO

      543    14138    1       VAL_PTR = -1;

  14138 13 001315   000001 335007                    LCA     1,DL
        13 001316   200013 755100                    STA     VAL_PTR,,AUTO

      544    14139    1       OP_STACK(0) = %SEL_BEGIN_MARKER;

  14139 13 001317   200417 450100                    STZ     OP_STACK,,AUTO

      545    14140    1       TOKEN_INDX = -1;

  14140 13 001320   200015 755100                    STA     TOKEN_INDX,,AUTO

      546    14141        /*
      547    14142             ***** Get the first token to start processing ...
      548    14143        */
      549    14144    1       CALL LEX (TOKEN,VALUE$) ALTRET(E_EVAL);

  14144 13 001321   200006 630500                    EPPR0   VALUE$,,AUTO
        13 001322   200736 450500                    STP0    STRING$+1,,AUTO
        13 001323   200016 631500                    EPPR1   TOKEN,,AUTO
        13 001324   200735 451500                    STP1    CHARPOS_STACK+52,,AUTO
        13 001325   000003 701000 13                 TSX1    LEX
        13 001326   001552 702000 13                 TSX2    E_EVAL

      550    14145        /*
PL6.E3A0      #001=VMS$SELECT File=VMS$SELECT.:VMB6TSI                           WED 08/20/97 15:24 Page:79
      551    14146             ***** Main LOOP...
      552    14147                   Loop here while there are operators to process...
      553    14148        */
      554    14149    2       DO WHILE (%YES#);

      555    14150    3           DO CASE (TOKEN);

  14150 13 001327   200016 235100                    LDA     TOKEN,,AUTO
        13 001330   000041 115007                    CMPA    33,DL
        13 001331   001333 602005 13                 TNC     s:14150+4,AL
        13 001332   001505 710000 13                 TRA     s:14224
        13 001333   001505 710000 13                 TRA     s:14224
        13 001334   001424 710000 13                 TRA     s:14173
        13 001335   001437 710000 13                 TRA     s:14191
        13 001336   001437 710000 13                 TRA     s:14191
        13 001337   001437 710000 13                 TRA     s:14191
        13 001340   001437 710000 13                 TRA     s:14191
        13 001341   001437 710000 13                 TRA     s:14191
        13 001342   001437 710000 13                 TRA     s:14191
        13 001343   001437 710000 13                 TRA     s:14191
        13 001344   001437 710000 13                 TRA     s:14191
        13 001345   001437 710000 13                 TRA     s:14191
        13 001346   001505 710000 13                 TRA     s:14224
        13 001347   001505 710000 13                 TRA     s:14224
        13 001350   001505 710000 13                 TRA     s:14224
        13 001351   001505 710000 13                 TRA     s:14224
        13 001352   001505 710000 13                 TRA     s:14224
        13 001353   001505 710000 13                 TRA     s:14224
        13 001354   001505 710000 13                 TRA     s:14224
        13 001355   001505 710000 13                 TRA     s:14224
        13 001356   001505 710000 13                 TRA     s:14224
        13 001357   001505 710000 13                 TRA     s:14224
        13 001360   001505 710000 13                 TRA     s:14224
        13 001361   001505 710000 13                 TRA     s:14224
        13 001362   001505 710000 13                 TRA     s:14224
        13 001363   001505 710000 13                 TRA     s:14224
        13 001364   001505 710000 13                 TRA     s:14224
PL6.E3A0      #001=VMS$SELECT File=VMS$SELECT.:VMB6TSI                           WED 08/20/97 15:24 Page:80
        13 001365   001505 710000 13                 TRA     s:14224
        13 001366   001505 710000 13                 TRA     s:14224
        13 001367   001505 710000 13                 TRA     s:14224
        13 001370   001505 710000 13                 TRA     s:14224
        13 001371   001374 710000 13                 TRA     s:14155
        13 001372   001374 710000 13                 TRA     s:14155
        13 001373   001374 710000 13                 TRA     s:14155

      556    14151    3           CASE (%SEL_DECIMAL,

      557    14152    3             %SEL_EXP,
      558    14153    3             %SEL_QUOTE);
      559    14154                    %PUSH_VALUE;

  14155 13 001374   200013 054100                    AOS     VAL_PTR,,AUTO

  14156 13 001375   200013 236100                    LDQ     VAL_PTR,,AUTO
        13 001376   000031 116007                    CMPQ    25,DL
        13 001377   001406 604400 13                 TMOZ    s:14165

  14159 13 001400   000004 236000 11                 LDQ     E_STKOVFL
        13 001401   200004 470500                    LDP0    @VM_SELECT,,AUTO
        13 001402   000000 756100                    STQ     0,,PR0

  14160 13 001403   200011 235100                    LDA     CHARPOS,,AUTO
        13 001404   000001 755100                    STA     1,,PR0

  14161 13 001405   000000 702200 xent               TSX2  ! X66_AALT

  14165 13 001406   200006 236100                    LDQ     VALUE$,,AUTO
        13 001407   200013 720100                    LXL0    VAL_PTR,,AUTO
        13 001410   200503 756110                    STQ     VAL_STACK$,X0,AUTO

  14166 13 001411   000777 235007                    LDA     511,DL
        13 001412   200566 755110                    STA     VAL_TYPE,X0,AUTO

  14167 13 001413   200011 721100                    LXL1    CHARPOS,,AUTO
PL6.E3A0      #001=VMS$SELECT File=VMS$SELECT.:VMB6TSI                           WED 08/20/97 15:24 Page:81
        13 001414   200651 741110                    STX1    CHARPOS_STACK,X0,AUTO

      560    14170    3               CALL LEX (TOKEN,VALUE$) ALTRET(E_EVAL);

  14170 13 001415   200006 630500                    EPPR0   VALUE$,,AUTO
        13 001416   200736 450500                    STP0    STRING$+1,,AUTO
        13 001417   200016 631500                    EPPR1   TOKEN,,AUTO
        13 001420   200735 451500                    STP1    CHARPOS_STACK+52,,AUTO
        13 001421   000003 701000 13                 TSX1    LEX
        13 001422   001552 702000 13                 TSX2    E_EVAL
        13 001423   001327 710000 13                 TRA     s:14150

      561    14171    3           CASE (%SEL_END_MARKER);

      562    14172    4               DO WHILE (%YES#);

      563    14173    4                   IF OP_STACK(OP_PTR) = %SEL_BEGIN_MARKER

  14173 13 001424   200012 720100                    LXL0    OP_PTR,,AUTO
        13 001425   200417 235110                    LDA     OP_STACK,X0,AUTO
        13 001426   001434 601000 13                 TNZ     s:14180

      564    14174    4                   THEN
      565    14175    5                   DO;

      566    14176    5                       RESULT$ = VAL_STACK$(VAL_PTR);

  14176 13 001427   200013 721100                    LXL1    VAL_PTR,,AUTO
        13 001430   200503 236111                    LDQ     VAL_STACK$,X1,AUTO
        13 001431   200005 470500                    LDP0    @RESULT$,,AUTO
        13 001432   000000 756100                    STQ     0,,PR0

      567    14177    5                       RETURN;

  14177 13 001433   000000 702200 xent               TSX2  ! X66_ARET

      568    14178    5                   END;
PL6.E3A0      #001=VMS$SELECT File=VMS$SELECT.:VMB6TSI                           WED 08/20/97 15:24 Page:82
      569    14179    4                   ELSE
      570    14180    4                       CALL REDUCE ALTRET(E_EVAL);

  14180 13 001434   000155 701000 13                 TSX1    REDUCE
        13 001435   001552 702000 13                 TSX2    E_EVAL

      571    14181    4               END;                  /* Shrink stacks loop                 */

  14181 13 001436   001424 710000 13                 TRA     s:14173

      572    14182    3           CASE (%SEL_AND,

      573    14183    3                 %SEL_OR,
      574    14184    3                 %SEL_NOT,
      575    14185    3                 %SEL_EQUAL,
      576    14186    3                 %SEL_NEQUAL,
      577    14187    3                 %SEL_GTHAN,
      578    14188    3                 %SEL_GEQUAL,
      579    14189    3                 %SEL_LTHAN,
      580    14190    3                 %SEL_LEQUAL);
      581    14191    3               MORE# = %YES#;

  14191 13 001437   400000 236003                    LDQ     -131072,DU
        13 001440   200010 756100                    STQ     MORE#,,AUTO

      582    14192    4               DO WHILE (MORE#);

  14192 13 001441   200010 234100                    SZN     MORE#,,AUTO
        13 001442   001327 605000 13                 TPL     s:14150

      583    14193        /*
      584    14194             ***** Decide whether to stack or reduce ...
      585    14195        */
      586    14196    4                   IF PRECIDENCE(TOKEN) > PRECIDENCE(OP_STACK(OP_PTR))

  14196 13 001443   200012 720100                    LXL0    OP_PTR,,AUTO
        13 001444   200417 721110                    LXL1    OP_STACK,X0,AUTO
PL6.E3A0      #001=VMS$SELECT File=VMS$SELECT.:VMB6TSI                           WED 08/20/97 15:24 Page:83
        13 001445   200016 722100                    LXL2    TOKEN,,AUTO
        13 001446   000010 236011 11                 LDQ     PRECIDENCE,X1
        13 001447   000010 116012 11                 CMPQ    PRECIDENCE,X2
        13 001450   001500 603000 13                 TRC     s:14218

      587    14197    4                   THEN
      588    14198    5                   DO;

      589    14199                            %PUSH_OPERATOR (NARGS="NUM_TO_POP(TOKEN)");

  14200 13 001451   200012 054100                    AOS     OP_PTR,,AUTO

  14201 13 001452   200012 235100                    LDA     OP_PTR,,AUTO
        13 001453   000031 115007                    CMPA    25,DL
        13 001454   001463 604400 13                 TMOZ    s:14210

  14204 13 001455   000004 236000 11                 LDQ     E_STKOVFL
        13 001456   200004 470500                    LDP0    @VM_SELECT,,AUTO
        13 001457   000000 756100                    STQ     0,,PR0

  14205 13 001460   200011 235100                    LDA     CHARPOS,,AUTO
        13 001461   000001 755100                    STA     1,,PR0

  14206 13 001462   000000 702200 xent               TSX2  ! X66_AALT

  14210 13 001463   200016 236100                    LDQ     TOKEN,,AUTO
        13 001464   200417 756105                    STQ     OP_STACK,AL,AUTO

  14211 13 001465   200012 720100                    LXL0    OP_PTR,,AUTO
        13 001466   000053 235012 11                 LDA     NUM_TO_POP,X2
        13 001467   200451 755110                    STA     NUM_TO_POP_STACK,X0,AUTO

      590    14214    5                       MORE# = %NO#;

  14214 13 001470   200010 450100                    STZ     MORE#,,AUTO

      591    14215    5                       CALL LEX (TOKEN,VALUE$) ALTRET(E_EVAL);
PL6.E3A0      #001=VMS$SELECT File=VMS$SELECT.:VMB6TSI                           WED 08/20/97 15:24 Page:84

  14215 13 001471   200006 630500                    EPPR0   VALUE$,,AUTO
        13 001472   200736 450500                    STP0    STRING$+1,,AUTO
        13 001473   200016 631500                    EPPR1   TOKEN,,AUTO
        13 001474   200735 451500                    STP1    CHARPOS_STACK+52,,AUTO
        13 001475   000003 701000 13                 TSX1    LEX
        13 001476   001552 702000 13                 TSX2    E_EVAL

      592    14216    5                   END;

  14216 13 001477   001502 710000 13                 TRA     s:14219

      593    14217    4                   ELSE             /* Reduce                             */
      594    14218    4                       CALL REDUCE ALTRET(E_EVAL);

  14218 13 001500   000155 701000 13                 TSX1    REDUCE
        13 001501   001552 702000 13                 TSX2    E_EVAL

      595    14219    4               END;                  /* Do while (MORE#) ... end */

  14219 13 001502   200010 234100                    SZN     MORE#,,AUTO
        13 001503   001443 604000 13                 TMI     s:14196
        13 001504   001327 710000 13                 TRA     s:14150

      596    14220    3           CASE (ELSE);

      597    14221        /*
      598    14222             ***** Built-in functions ...
      599    14223        */
      600    14224    3               MORE# = %YES#;

  14224 13 001505   400000 236003                    LDQ     -131072,DU
        13 001506   200010 756100                    STQ     MORE#,,AUTO

      601    14225    4               DO WHILE (MORE#);

  14225 13 001507   200010 234100                    SZN     MORE#,,AUTO
PL6.E3A0      #001=VMS$SELECT File=VMS$SELECT.:VMB6TSI                           WED 08/20/97 15:24 Page:85
        13 001510   001327 605000 13                 TPL     s:14150

      602    14226        /*
      603    14227             ***** If this is a function with arguments,
      604    14228                   then get those args onto the VAL_STACK$ ...
      605    14229        */
      606    14230    4                   NUM_ARGS = 0;

  14230 13 001511   200014 450100                    STZ     NUM_ARGS,,AUTO

      607    14231    4                   IF NUM_TO_POP(TOKEN) > 0

  14231 13 001512   200016 720100                    LXL0    TOKEN,,AUTO
        13 001513   000053 235010 11                 LDA     NUM_TO_POP,X0
        13 001514   001521 600000 13                 TZE     s:14239

      608    14232    4                   THEN        /* Get the arguments for this function     */
      609    14233    4                       CALL GET_ARGS (NUM_ARGS) ALTRET(E_EVAL);

  14233 13 001515   200014 630500                    EPPR0   NUM_ARGS,,AUTO
        13 001516   200735 450500                    STP0    CHARPOS_STACK+52,,AUTO
        13 001517   000110 701000 13                 TSX1    GET_ARGS
        13 001520   001552 702000 13                 TSX2    E_EVAL

      610    14234        /*
      611    14235             ***** Since functions have the highest precidence,
      612    14236                   they are always applied as soon as found ...
      613    14237        */
      614    14238                        %PUSH_OPERATOR (NARGS="NUM_ARGS");

  14239 13 001521   200012 054100                    AOS     OP_PTR,,AUTO

  14240 13 001522   200012 235100                    LDA     OP_PTR,,AUTO
        13 001523   000031 115007                    CMPA    25,DL
        13 001524   001533 604400 13                 TMOZ    s:14249

  14243 13 001525   000004 236000 11                 LDQ     E_STKOVFL
PL6.E3A0      #001=VMS$SELECT File=VMS$SELECT.:VMB6TSI                           WED 08/20/97 15:24 Page:86
        13 001526   200004 470500                    LDP0    @VM_SELECT,,AUTO
        13 001527   000000 756100                    STQ     0,,PR0

  14244 13 001530   200011 235100                    LDA     CHARPOS,,AUTO
        13 001531   000001 755100                    STA     1,,PR0

  14245 13 001532   000000 702200 xent               TSX2  ! X66_AALT

  14249 13 001533   200016 236100                    LDQ     TOKEN,,AUTO
        13 001534   200417 756105                    STQ     OP_STACK,AL,AUTO

  14250 13 001535   200014 235100                    LDA     NUM_ARGS,,AUTO
        13 001536   200012 720100                    LXL0    OP_PTR,,AUTO
        13 001537   200451 755110                    STA     NUM_TO_POP_STACK,X0,AUTO

      615    14253    4                   MORE# = %NO#;

  14253 13 001540   200010 450100                    STZ     MORE#,,AUTO

      616    14254    4                   CALL LEX (TOKEN,VALUE$) ALTRET(E_EVAL);

  14254 13 001541   200006 630500                    EPPR0   VALUE$,,AUTO
        13 001542   200736 450500                    STP0    STRING$+1,,AUTO
        13 001543   200016 631500                    EPPR1   TOKEN,,AUTO
        13 001544   200735 451500                    STP1    CHARPOS_STACK+52,,AUTO
        13 001545   000003 701000 13                 TSX1    LEX
        13 001546   001552 702000 13                 TSX2    E_EVAL

      617    14255    4               END;                  /* Do while (MORE#) ... end */

  14255 13 001547   200010 234100                    SZN     MORE#,,AUTO
        13 001550   001511 604000 13                 TMI     s:14230

      618    14256    3           END;                        /* Do case ... end */

      619    14257    2       END;                            /* Do while (yes) ... end */

PL6.E3A0      #001=VMS$SELECT File=VMS$SELECT.:VMB6TSI                           WED 08/20/97 15:24 Page:87
  14257 13 001551   001327 710000 13                 TRA     s:14150

      620    14258    1   E_EVAL:
      621    14259    1       ALTRETURN;

  14259 13 001552   000000 702200 xent  E_EVAL       TSX2  ! X66_AALT

ZERO$
 Sect OctLoc
  11     000   000001 006000                                                    ....

ZERO
 Sect OctLoc
  11     001   001060 ******                                                    .0..

ONE$
 Sect OctLoc
  11     002   000003 006000                                                    ....

ONE
 Sect OctLoc
  11     003   001061 ******                                                    .1..

E_STKOVFL
 Sect OctLoc
  11     004   261523 000350                                                    ....

E_NONDECIMAL
 Sect OctLoc
  11     005   261523 000360                                                    ....

E_STKFLT
 Sect OctLoc
  11     006   261523 000370                                                    ....

E_ILLEGALNULL
 Sect OctLoc
PL6.E3A0      #001=VMS$SELECT File=VMS$SELECT.:VMB6TSI                           WED 08/20/97 15:24 Page:88
  11     007   261523 010130                                                    ...X

PRECIDENCE
 Sect OctLoc
  11     010   000000 000000   000000 000000   000000 000003   000000 000002    ................
  11     014   000000 000001   000000 000004   000000 000004   000000 000004    ................
  11     020   000000 000004   000000 000004   000000 000004   000000 000143    ...............c
  11     024   000000 000143   000000 000143   000000 000143   000000 000143    ...c...c...c...c
  11     050*  000000 000143   000000 000143   000000 000143                    ...c...c...c

NUM_TO_POP
 Sect OctLoc
  11     053   000000 000000   000000 000000   000000 000001   000000 000002    ................
  11     057   000000 000002   000000 000002   000000 000002   000000 000002    ................
  11     063   000000 000002   000000 000002   000000 000002   000000 000000    ................
  11     067   000000 000000   000000 000000   000000 000000   000000 000000    ................
  11     073   000000 000000   000000 000001   000000 000000   000000 000000    ................
  11     077   000000 000000   000000 000001   000000 000001   000000 000000    ................
  11     103   000000 000000   000000 000000   000000 000001   000000 000001    ................
  11     107   000000 000000   000000 000000   000000 000000   000000 000000    ................
  11     113   000000 000000   000000 000001   000000 000001                    ............

INIT_TIMEC
 Sect OctLoc
  11     116   060060 072060   060*** ******                                    00:00...

FPT_TIME_C
 Sect OctLoc
  11     120   000001 777640   000132 006000   000000 177640   000000 006014    .....Z..........
  11     124   000000 177640   000000 006014   000000 177640   000000 006014    ................
  11     130   000000 177640   000000 006014   000003 000000   ****** ******    ................

(unnamed)
 Sect OctLoc
  11     134   056040 040040                                                    .

VM_WILDCARD
PL6.E3A0      #001=VMS$SELECT File=VMS$SELECT.:VMB6TSI                           WED 08/20/97 15:24 Page:89
 Sect OctLoc
  12     000   000000 177640   000000 006014   000000 177640   000000 006014    ................
  12     010*  000000 000000   077400 000000   000000 000000   000000 000000    ....?...........

(unnamed)
 Sect OctLoc
  14     000   000003 000000   000002 000000   000000 006014   000001 000000    ................
  14     004   000017 200000   000217 200000   000000 006000   000001 777640    ................
  14     010   000001 177640                                                    ....
      622    14260    1   END VMS$SELECT;
      623    14261        %EOD;

PL6.E3A0      #001=VMS$SELECT File=VMS$SELECT.:VMB6TSI                           WED 08/20/97 15:24 Page:90
--  Include file information  --

   B$TABLES_C.:LIB_E05  cannot be made into a system file and is referenced.
   B_MACROS_C.:LIB_E05  is referenced.
   VM_DATA_R.:VMB6TOU  cannot be made into a system file and is referenced.
   VM_SUBS_C.:VMB6TOU  is referenced.
   VM_MACRO_C.:VMB6TOU  is referenced.
   VM_PERR_C.:VMB6TOU  is referenced.
   XUD_UTS_M.:LIB_E05  is referenced.
   XUW_MACRO_C.:LIB_E05  is referenced.
   XU_MACRO_C.:LIB_E05  is referenced.
   B_ERRORS_C.:LIB_E05  is referenced.
   CP_6_SUBS.:LIB_E05  is referenced.
   CP_6_C.:LIB_E05  is referenced.
   CP_6.:LIB_E05  cannot be made into a system file and is referenced.
      No diagnostics issued in procedure VMS$SELECT.
PL6.E3A0      #001=VMS$SELECT File=VMS$SELECT.:VMB6TSI                           WED 08/20/97 15:24 Page:91

 **** Variables and constants ****

  ****  Section 011 RoData VMS$SELECT

  ****  Scalars and arrays  ****
OctLoc.c.b A Datatyp(siz) R M Lvl/name                 OctLoc.c.b A Datatyp(siz) R M Lvl/name

     7-0-0/w STRC        r     1 E_ILLEGALNULL              5-0-0/w STRC        r     1 E_NONDECIMAL
     6-0-0/w STRC        r     1 E_STKFLT                   4-0-0/w STRC        r     1 E_STKOVFL
   120-0-0/d STRC(432)   r     1 FPT_TIME_C               116-0-0/c CHAR(5)     r     1 INIT_TIMEC
    53-0-0/w UBIN        r     1 NUM_TO_POP(0:34)
     3-0-0/c STRC(18)    r     1 ONE                        2-0-0/w PTR         r     1 ONE$
    10-0-0/w UBIN        r     1 PRECIDENCE(0:34)
     1-0-0/c STRC(18)    r     1 ZERO                       0-0-0/w PTR         r     1 ZERO$

  ****  Section 012  Data  VMS$SELECT

  ****  Scalars and arrays  ****
OctLoc.c.b A Datatyp(siz) R M Lvl/name                 OctLoc.c.b A Datatyp(siz) R M Lvl/name

     0-0-0/d STRC(432)   r     1 VM_WILDCARD

  ****  Auto variables  ****

  ****  Scalars and arrays  ****
OctLoc.c.b A Datatyp(siz) R M Lvl/name                 OctLoc.c.b A Datatyp(siz) R M Lvl/name

   735-0-0/w PTR         r     1 @NUM_ARGS                745-0-0/w PTR         r     1 @OUT$
     5-0-0/w PTR         r     1 @RESULT$                 735-0-0/w PTR         r     1 @TOKEN
     3-0-0/w PTR         r     1 @TREE$                   736-0-0/w PTR         r     1 @VALUE$
     4-0-0/w PTR         r     1 @VM_SELECT               736-0-0/w SBIN        r     1 ARG_INDX
   737-0-0/w PTR               1 ARG_PTR$                  11-0-0/w UBIN        r     1 CHARPOS
   651-0-0/w UBIN(18)    r     1 CHARPOS_STACK(0:50)
   736-0-0/w UBIN        r     1 DATE1                    737-0-0/w UBIN        r     1 DATE2
   740-0-0/w UBIN        r     1 DATE3                    756-0-0/d STRC(432)   r     1 FPT_TIME
   747-0-0/w SBIN        r     1 I                        750-0-0/w SBIN        r     1 J
   741-0-0/w UBIN        r     1 K                         10-0-0/b BIT         r     1 MORE#
PL6.E3A0      #001=VMS$SELECT File=VMS$SELECT.:VMB6TSI                           WED 08/20/97 15:24 Page:92
   737-0-0/w PTR               1 NAME$                     14-0-0/w SBIN        r     1 NUM_ARGS
    *0-0-0/w SBIN        r     1 NUM_ARGS
   451-0-0/w UBIN        r     1 NUM_TO_POP_STACK(0:25)
    12-0-0/w SBIN        r     1 OP_PTR
   417-0-0/w UBIN        r     1 OP_STACK(0:25)
    *0-0-0/w PTR         r     1 OUT$                     746-0-0/w PTR         r     1 P$
    *0-0-0/w PTR         r     1 RESULT$                  735-0-0/w PTR         r     1 STRING$
   736-0-0/w SBIN        r     1 TEMP1                    737-0-0/w SBIN        r     1 TEMP2
    16-0-0/w UBIN        r     1 TOKEN                     *0-0-0/w UBIN        r     1 TOKEN
    15-0-0/w SBIN        r     1 TOKEN_INDX                 7-0-0/w PTR         r     1 TOKEN_PTR$
    *0-0-0/w PTR         r     1 TREE$                      6-0-0/w PTR         r     1 VALUE$
    *0-0-0/w PTR         r     1 VALUE$                   740-0-0/w PTR         r     1 VALUE$
   742-0-0/w PTR         r     1 VALUE$                    13-0-0/w SBIN        r     1 VAL_PTR
   503-0-0/w PTR         r     1 VAL_STACK$(0:50)
   566-0-0/w UBIN        r     1 VAL_TYPE(0:50)
    *0-0-0/w STRC(72)    r     1 VM_SELECT                 17-0-0/c STRC(4608)  r     1 WORK1
   217-0-0/c STRC(4608)  r     1 WORK2                    751-0-0/c STRC(72)    r     1 WORK_DATE
   753-0-0/c STRC(45)    r     1 WORK_TIME                753-0-0/c CHAR(5)     r     1 WORK_TIMEC

  ****  SYMREF variables  ****

  ****  Scalars and arrays  ****
OctLoc.c.b A Datatyp(siz) R M Lvl/name                 OctLoc.c.b A Datatyp(siz) R M Lvl/name

     0-0-0/w PTR               1 B$JIT$                     0-0-0/w PTR         r     1 B$TCB$
     0-0-0/w PTR         r     1 B$XL_UPPER$                0-0-0/c ASTR(9)     r     1 ERRMSG_FID
     0-0-0/w UBIN              1 M$DO_NUM                   0-0-0/w UBIN              1 M$LO_NUM
     0-0-0/w UBIN              1 M$MAIL_CENTRAL_NUM         0-0-0/w UBIN              1 M$MAIL_COMGROUP_NUM
     0-0-0/w UBIN              1 M$MAIL_FILE_NUM            0-0-0/w UBIN              1 M$MAIL_GLOBAL_NUM
     0-0-0/w UBIN              1 M$ME_NUM                   0-0-0/w UBIN              1 M$NODE_NUM
     0-0-0/w UBIN              1 M$SI_NUM                   0-0-0/w UBIN              1 M$WORK_NUM
     0-0-0/w PTR               1 VM_ADDLIST$                0-0-0/d VECT              1 VM_ADDLIST_
     0-0-0/w PTR               1 VM_ADDREC$                 0-0-0/d VECT              1 VM_ADDREC_
     0-0-0/w PTR               1 VM_COPY$                   0-0-0/d VECT              1 VM_COPY_
     0-0-0/w PTR               1 VM_ENCLLIST$               0-0-0/d VECT              1 VM_ENCLLIST_
     0-0-0/w PTR               1 VM_ENCLREC$                0-0-0/d VECT              1 VM_ENCLREC_
     0-0-0/c STRC(270)         1 VM_FORWARD_ENCL_NAME       0-0-0/c STRC(270)         1 VM_FORWARD_FILE_NAME
PL6.E3A0      #001=VMS$SELECT File=VMS$SELECT.:VMB6TSI                           WED 08/20/97 15:24 Page:93
     0-0-0/c STRC(72)          1 VM_FORWARD_FILE_PASS       0-0-0/w PTR         r     1 VM_HEADER$
     0-0-0/d VECT              1 VM_HEADER_                 0-0-0/d VECT              1 VM_HEADER_INIT_
     0-0-0/w PTR               1 VM_INPUT$                  0-0-0/d VECT              1 VM_INPUT_
     0-0-0/c STRC(72)          1 VM_MAILCG_NAME             0-0-0/w STRC(432)         1 VM_MAILCG_SETSTA
     0-0-0/c STRC(72)          1 VM_MAIL_ACCT               0-0-0/c STRC(54)          1 VM_NAME_MAP_NAME
     0-0-0/w PTR               1 VM_PARSEAREA$              0-0-0/d VECT              1 VM_PARSEAREA_
     0-0-0/w PTR               1 VM_PROFILE$                0-0-0/d VECT              1 VM_PROFILE_
     0-0-0/w PTR               1 VM_SELECT$                 0-0-0/d VECT              1 VM_SELECT_
     0-0-0/c STRC(288)         1 VM_SEND_FILE_NAME          0-0-0/c CHAR(8)           1 VM_SITENAME
     0-0-0/w PTR               1 VM_WORK$                   0-0-0/d VECT              1 VM_WORK_

  ****  BASED and DCB variables  ****

  ****  Scalars and arrays  ****
OctLoc.c.b A Datatyp(siz) R M Lvl/name                 OctLoc.c.b A Datatyp(siz) R M Lvl/name

     0-0-0/w STRC(2448)  r     1 B$ALT                      0-0-0/w STRC(144)   r     1 B$TCB
     0-0-0/d STRC(4608)  r     1 LOWER_UPPER                0-0-0N  NULL        r     1 M$DO
     0-0-0N  NULL        r     1 M$LO                       0-0-0N  NULL        r     1 M$MAIL_CENTRAL
     0-0-0N  NULL        r     1 M$MAIL_COMGROUP            0-0-0N  NULL        r     1 M$MAIL_FILE
     0-0-0N  NULL        r     1 M$MAIL_GLOBAL              0-0-0N  NULL        r     1 M$ME
     0-0-0N  NULL        r     1 M$NODE                     0-0-0N  NULL        r     1 M$SI
     0-0-0N  NULL        r     1 M$UC                       0-0-0N  NULL        r     1 M$WORK
     0-0-0/w STRC(144)   r     1 P$B                        0-0-0/w ASTR(153)   r     1 P$S
     0-0-0/w STRC(1332)  r     1 VM_HEADER                  0-0-0/c ASTR(9)     r     1 X$STRING


   Procedure VMS$SELECT requires 875 words for executable code.
   Procedure VMS$SELECT requires 510 words of local(AUTO) storage.
PL6.E3A0      #001=VMS$SELECT File=VMS$SELECT.:VMB6TSI                           WED 08/20/97 15:24 Page:94
          *** CROSS REFERENCE LISTING ***
**     DENOTES     IDENTIFIER DEFINITION
<<                 IDENTIFIER'S VALUE SET
>>                 IDENTIFIER'S VALUE USED
<>                 IDENTIFIER SET AND/OR USED
--                 IDENTIFIER REFERENCED
PL6.E3A0      #001=VMS$SELECT File=VMS$SELECT.:VMB6TSI                           WED 08/20/97 15:24 Page:95
          MINI XREF LISTING

ARG_INDX IN PROCEDURE GET_ARGS
     13739**DCL     13744<<DOINDEX 13745>>ASSIGN
B$ALT.CODE
     13219**DCL     13219--REDEF   13220--REDEF   13220--REDEF
B$ALT.ERR
     13220**DCL     14001>>ASSIGN
B$ALT.ERR.ERR#
     13221**DCL     13221--REDEF
B$ALT.EVID
     13220**DCL     13220--REDEF   13220--REDEF
B$TCB.ALT$
     13215**DCL     14001>>ASSIGN
B$TCB$
     12642**DCL     13215--IMP-PTR 14001>>ASSIGN
B$XL_UPPER$
     12974**DCL     12975--IMP-PTR 13931>>CALLBLT 13934>>CALLBLT
BAD_TIME IN PROCEDURE DATE_INIT
     14117**LABEL   14123--CALLALT
CHARPOS
     13230**DCL     13710<<ASSIGN  13722>>ASSIGN  13757>>ASSIGN  13980>>ASSIGN  13987>>ASSIGN  14160>>ASSIGN
     14167>>ASSIGN  14205>>ASSIGN  14244>>ASSIGN
CHARPOS_STACK
     13296**DCL     13764<<ASSIGN  13794>>ASSIGN  13987<<ASSIGN  14002>>ASSIGN  14006>>ASSIGN  14011>>ASSIGN
     14167<<ASSIGN
DATE1 IN PROCEDURE REDUCE
     13774**DCL     13835<<ASSIGN  13838<<ASSIGN  13846>>IF      13846>>IF      13850>>IF      13850>>IF
     13854>>IF      13858>>IF      13862>>IF      13866>>IF
DATE2 IN PROCEDURE REDUCE
     13776**DCL     13842<<ASSIGN  13843<>CALL    13846>>IF      13850>>IF      13858>>IF      13862>>IF
DATE3 IN PROCEDURE REDUCE
     13777**DCL     13843<>CALL    13846>>IF      13850>>IF      13854>>IF      13866>>IF
DATE_COMPARER IN PROCEDURE REDUCE
PL6.E3A0      #001=VMS$SELECT File=VMS$SELECT.:VMB6TSI                           WED 08/20/97 15:24 Page:96
     13840**LABEL   13836--GOTO
DATE_INIT
     14015**PROC    13840--CALL
ERRMSG_FID.L#
     12710**DCL     12710--IMP-SIZ
E_DATE IN PROCEDURE REDUCE
     14001**LABEL   13840--CALLALT
E_DEC1 IN PROCEDURE REDUCE
     14005**LABEL   13809--CALLALT 13816--CALLALT
E_DEC2 IN PROCEDURE REDUCE
     14010**LABEL   13802--CALLALT 13810--CALLALT 13817--CALLALT
E_EVAL
     14259**LABEL   14144--CALLALT 14170--CALLALT 14180--CALLALT 14215--CALLALT 14218--CALLALT 14233--CALLALT
     14254--CALLALT
E_ILLEGALNULL
     13635**DCL     13721>>ASSIGN
E_LEX IN PROCEDURE LEX
     13732**LABEL   13713--CALLALT
E_NONDECIMAL
     13524**DCL     14005>>ASSIGN  14010>>ASSIGN
E_REDUCE IN PROCEDURE REDUCE
     13998**LABEL   13795--GOTO
E_STKFLT
     13580**DCL     13793>>ASSIGN
E_STKOVFL
     13469**DCL     13756>>ASSIGN  13979>>ASSIGN  14159>>ASSIGN  14204>>ASSIGN  14243>>ASSIGN
FPT_TIME IN PROCEDURE DATE_INIT
     14067**DCL     14086<<ASSIGN  14089<>CALL    14123<>CALL
FPT_TIME.DATE_ IN PROCEDURE DATE_INIT
     14067**DCL     14088<<ASSIGN
FPT_TIME.TIME_ IN PROCEDURE DATE_INIT
     14069**DCL     14113<<ASSIGN
FPT_TIME.TSTAMP_ IN PROCEDURE DATE_INIT
     14070**DCL     14096<<ASSIGN
FPT_TIME.V IN PROCEDURE DATE_INIT
     14071**DCL     14087--ASSIGN
PL6.E3A0      #001=VMS$SELECT File=VMS$SELECT.:VMB6TSI                           WED 08/20/97 15:24 Page:97
FPT_TIME.V.DEST# IN PROCEDURE DATE_INIT
     14071**DCL     14095<<ASSIGN
FPT_TIME.V.SOURCE# IN PROCEDURE DATE_INIT
     14071**DCL     14094<<ASSIGN
FPT_TIME.V_ IN PROCEDURE DATE_INIT
     14067**DCL     14087<<ASSIGN
FPT_TIME_C IN PROCEDURE DATE_INIT
     14048**DCL     14086>>ASSIGN
FPT_TIME_C.V IN PROCEDURE DATE_INIT
     14052**DCL     14048--DCLINIT
GET_ARGS
     13735**PROC    14233--CALL
I IN PROCEDURE DATE_INIT
     14020**DCL     14098<<DOINDEX 14099>>ASSIGN
INIT_TIMEC IN PROCEDURE DATE_INIT
     14033**DCL     14090>>ASSIGN
J IN PROCEDURE DATE_INIT
     14021**DCL     14102<<CALLBLT 14103>>CALLBLT 14104<<CALLBLT 14105>>CALLBLT 14108<<CALLBLT 14109>>CALLBLT
     14114<<CALLBLT 14115>>CALLBLT 14116<<CALLBLT 14117>>CALLBLT
K IN PROCEDURE REDUCE
     13778**DCL     13841<<ASSIGN  13843<>CALL
LEX
     13696**PROC    14144--CALL    14170--CALL    14215--CALL    14254--CALL
LOWER_UPPER
     12975**DCL     13931>>CALLBLT 13934>>CALLBLT
M$TIME
      5569**DCL-ENT 14089--CALL    14123--CALL
MORE#
     13229**DCL     14191<<ASSIGN  14192>>DOWHILE 14214<<ASSIGN  14224<<ASSIGN  14225>>DOWHILE 14253<<ASSIGN
NO_MATCH IN PROCEDURE REDUCE
     13955**LABEL   13927--GOTO    13930--GOTO    13939--GOTO
NUM_ARGS
     13233**DCL     14230<<ASSIGN  14233<>CALL    14250>>ASSIGN
NUM_ARGS IN PROCEDURE GET_ARGS
     13737**DCL     13735--PROC    13743<<ASSIGN
NUM_TO_POP
PL6.E3A0      #001=VMS$SELECT File=VMS$SELECT.:VMB6TSI                           WED 08/20/97 15:24 Page:98
     13689**DCL     13743>>ASSIGN  14211>>ASSIGN  14231>>IF
NUM_TO_POP_STACK
     13293**DCL     13790>>IF      13969>>ASSIGN  14211<<ASSIGN  14250<<ASSIGN
ONE
     13303**DCL     13302--DCLINIT
ONE$
     13302**DCL     13807>>ASSIGN  13814>>ASSIGN  13821>>ASSIGN  13825>>ASSIGN  13829>>ASSIGN  13833>>ASSIGN
     13848>>ASSIGN  13852>>ASSIGN  13856>>ASSIGN  13860>>ASSIGN  13864>>ASSIGN  13868>>ASSIGN  13873>>ASSIGN
     13877>>ASSIGN  13881>>ASSIGN  13885>>ASSIGN  13889>>ASSIGN  13896>>ASSIGN  13900>>ASSIGN  13904>>ASSIGN
     13908>>ASSIGN  13918>>ASSIGN  13948>>ASSIGN  13956>>ASSIGN  13963>>ASSIGN
OP_PTR
     13231**DCL     13790>>IF      13800>>DOCASE  13969>>ASSIGN  13994<<ASSIGN  13994>>ASSIGN  14137<<ASSIGN
     14173>>IF      14196>>IF      14200<<ASSIGN  14200>>ASSIGN  14201>>IF      14210>>ASSIGN  14211>>ASSIGN
     14239<<ASSIGN  14239>>ASSIGN  14240>>IF      14249>>ASSIGN  14250>>ASSIGN
OP_STACK
     13292**DCL     13800>>DOCASE  14139<<ASSIGN  14173>>IF      14196>>IF      14210<<ASSIGN  14249<<ASSIGN
OUT$ IN PROCEDURE DATE_INIT
     14017**DCL     14015--PROC    14080>>IF      14096>>ASSIGN  14097>>ASSIGN  14098>>DOINDEX 14099>>ASSIGN
     14112>>ASSIGN
P$ IN PROCEDURE DATE_INIT
     14019**DCL     14099<<ASSIGN  14100>>DOCASE  14102>>CALLBLT 14102>>CALLBLT 14104>>CALLBLT 14104>>CALLBLT
     14106>>IF      14108>>CALLBLT 14108>>CALLBLT 14114>>CALLBLT 14114>>CALLBLT 14116>>CALLBLT 14116>>CALLBLT
P$B.CODE
     13016**DCL     13709>>ASSIGN  13711>>DOCASE  13844>>DOCASE  13947>>IF      13955>>IF      14100>>DOCASE
P$B.CPOS
     13034**DCL     13710>>ASSIGN  13764>>ASSIGN  13842>>ASSIGN  14096--ASSIGN
P$B.NSUBLKS
     13020**DCL     13703>>IF      13744>>DOINDEX 14098>>DOINDEX 14106>>IF
P$B.SCRITCH
     13024**DCL     13841>>ASSIGN  14080>>IF      14097<<ASSIGN  14112<<ASSIGN
P$B.SUBLK$
     13041**DCL     13708>>ASSIGN  13711>>DOCASE  13745>>ASSIGN  13840<>CALL    13841>>ASSIGN  13842>>ASSIGN
     13931>>CALLBLT 13931>>CALLBLT 13933>>ASSIGN  14099>>ASSIGN  14102>>CALLBLT 14102>>CALLBLT 14104>>CALLBLT
     14104>>CALLBLT 14108>>CALLBLT 14108>>CALLBLT 14114>>CALLBLT 14114>>CALLBLT 14116>>CALLBLT 14116>>CALLBLT
P$S.COUNT
     13077**DCL     13080--IMP-SIZ 13931>>CALLBLT 13933>>ASSIGN  14102>>CALLBLT 14104>>CALLBLT 14108>>CALLBLT
PL6.E3A0      #001=VMS$SELECT File=VMS$SELECT.:VMB6TSI                           WED 08/20/97 15:24 Page:99
     14114>>CALLBLT 14116>>CALLBLT
P$S.TEXT
     13080**DCL     13931>>CALLBLT 14102>>CALLBLT 14104>>CALLBLT 14108>>CALLBLT 14114>>CALLBLT 14116>>CALLBLT
P$S.TEXTC$
     13072**DCL     13715>>ASSIGN  13717>>ASSIGN
PRECIDENCE
     13676**DCL     14196>>IF      14196>>IF
REDUCE
     13770**PROC    14180--CALL    14218--CALL
RESULT$
     13000**DCL        13--PROC    14176<<ASSIGN
STRING$ IN PROCEDURE REDUCE
     13772**DCL     13891<<ASSIGN  13910<<ASSIGN  13913<<ASSIGN  13920<<ASSIGN  13923<<ASSIGN  13925>>IF
     13928>>IF      13934>>CALLBLT 13934>>CALLBLT
STRING_COMPARER IN PROCEDURE REDUCE
     13925**LABEL   13892--GOTO    13911--GOTO    13914--GOTO    13921--GOTO
TEMP1 IN PROCEDURE REDUCE
     13773**DCL     13774--REDEF   13802<>CALL    13803>>IF      13809<>CALL    13811>>IF      13816<>CALL
     13818>>IF
TEMP2 IN PROCEDURE REDUCE
     13775**DCL     13776--REDEF   13810<>CALL    13811>>IF      13817<>CALL    13818>>IF
TOKEN
     13235**DCL     13743>>ASSIGN  14144<>CALL    14150>>DOCASE  14170<>CALL    14196>>IF      14210>>ASSIGN
     14211>>ASSIGN  14215<>CALL    14231>>IF      14249>>ASSIGN  14254<>CALL
TOKEN IN PROCEDURE LEX
     13698**DCL     13696--PROC    13705<<ASSIGN  13709<<ASSIGN
TOKEN_INDX
     13234**DCL     13702<<ASSIGN  13702>>ASSIGN  13703>>IF      13708>>ASSIGN  13711>>DOCASE  14140<<ASSIGN
TOKEN_PTR$
     13227**DCL     13708<<ASSIGN  13709>>ASSIGN  13710>>ASSIGN  13713<>CALL    13715>>ASSIGN  13717>>ASSIGN
     13744>>DOINDEX 13745>>ASSIGN
TREE$
     12978**DCL        13--PROC    13703>>IF      13708>>ASSIGN  13711>>DOCASE
VALUE$
     13226**DCL     14144<>CALL    14165>>ASSIGN  14170<>CALL    14215<>CALL    14254<>CALL
VALUE$ IN PROCEDURE GET_ARGS
PL6.E3A0      #001=VMS$SELECT File=VMS$SELECT.:VMB6TSI                           WED 08/20/97 15:24 Page:100
     13741**DCL     13745<<ASSIGN  13762>>ASSIGN  13764>>ASSIGN
VALUE$ IN PROCEDURE LEX
     13699**DCL     13696--PROC    13713<>CALL    13715<<ASSIGN  13717<<ASSIGN  13718>>IF
VALUE$ IN PROCEDURE REDUCE
     13780**DCL     13785<<ASSIGN  13805<<ASSIGN  13807<<ASSIGN  13814<<ASSIGN  13821<<ASSIGN  13825<<ASSIGN
     13829<<ASSIGN  13833<<ASSIGN  13848<<ASSIGN  13852<<ASSIGN  13856<<ASSIGN  13860<<ASSIGN  13864<<ASSIGN
     13868<<ASSIGN  13873<<ASSIGN  13877<<ASSIGN  13881<<ASSIGN  13885<<ASSIGN  13889<<ASSIGN  13896<<ASSIGN
     13900<<ASSIGN  13904<<ASSIGN  13908<<ASSIGN  13918<<ASSIGN  13948<<ASSIGN  13950<<ASSIGN  13956<<ASSIGN
     13958<<ASSIGN  13963<<ASSIGN  13985>>ASSIGN
VAL_PTR
     13232**DCL     13752<<ASSIGN  13752>>ASSIGN  13753>>IF      13762>>ASSIGN  13763>>ASSIGN  13764>>ASSIGN
     13790>>IF      13802>>CALL    13809>>CALL    13810>>CALL    13816>>CALL    13817>>CALL    13840>>CALL
     13841>>ASSIGN  13842>>ASSIGN  13844>>DOCASE  13931>>CALLBLT 13931>>CALLBLT 13933>>ASSIGN  13947>>IF
     13955>>IF      13969<<ASSIGN  13969>>ASSIGN  13975<<ASSIGN  13975>>ASSIGN  13976>>IF      13985>>ASSIGN
     13986>>ASSIGN  13987>>ASSIGN  14002>>ASSIGN  14006>>ASSIGN  14011>>ASSIGN  14138<<ASSIGN  14155<<ASSIGN
     14155>>ASSIGN  14156>>IF      14165>>ASSIGN  14166>>ASSIGN  14167>>ASSIGN  14176>>ASSIGN
VAL_STACK$
     13294**DCL     13762<<ASSIGN  13802<>CALL    13809<>CALL    13810<>CALL    13816<>CALL    13817<>CALL
     13840>>CALL    13841>>ASSIGN  13842>>ASSIGN  13844>>DOCASE  13931>>CALLBLT 13931>>CALLBLT 13933>>ASSIGN
     13947>>IF      13955>>IF      13985<<ASSIGN  14165<<ASSIGN  14176>>ASSIGN
VAL_TYPE
     13295**DCL     13763<<ASSIGN  13986<<ASSIGN  14166<<ASSIGN
VMA$COMPRESS_BLANKS
     13309**DCL-ENT 13937--CALL
VMS$SELECT
        13**PROC    13713--CALL
VM_HEADER.CREATION_DATE
     13098**DCL     13838>>ASSIGN
VM_HEADER.DELIVERY_DATE
     13100**DCL     13835>>ASSIGN
VM_HEADER.FROM$
     13187**DCL     13891>>ASSIGN
VM_HEADER.REFERENCE$
     13189**DCL     13910>>ASSIGN
VM_HEADER.REPLY_TO$
     13191**DCL     13913>>ASSIGN
PL6.E3A0      #001=VMS$SELECT File=VMS$SELECT.:VMB6TSI                           WED 08/20/97 15:24 Page:101
VM_HEADER.STATUS.ACK
     13114**DCL     13823>>IF
VM_HEADER.STATUS.ANSWER
     13112**DCL     13827>>IF
VM_HEADER.STATUS.BROADCAST
     13146**DCL     13831>>IF
VM_HEADER.STATUS.DEL
     13130**DCL     13871>>IF
VM_HEADER.STATUS.DELIVERY
     13144**DCL     13875>>IF
VM_HEADER.STATUS.ERR
     13109**DCL     13879>>IF
VM_HEADER.STATUS.EXAM
     13128**DCL     13883>>IF      13961>>IF
VM_HEADER.STATUS.FCOPY
     13132**DCL     13887>>IF
VM_HEADER.STATUS.FORWARDED
     13138**DCL     13894>>IF
VM_HEADER.STATUS.MARK
     13134**DCL     13898>>IF
VM_HEADER.STATUS.OLD
     13122**DCL     13902>>IF      13906>>IF
VM_HEADER.STATUS.RRACK
     13156**DCL     13916>>IF
VM_HEADER.SUBJECT$
     13197**DCL     13920>>ASSIGN
VM_HEADER.TO$
     13199**DCL     13923>>ASSIGN
VM_HEADER$
     12560**DCL     13095--IMP-PTR 13823>>IF      13827>>IF      13831>>IF      13835>>ASSIGN  13838>>ASSIGN
     13871>>IF      13875>>IF      13879>>IF      13883>>IF      13887>>IF      13891>>ASSIGN  13894>>IF
     13898>>IF      13902>>IF      13906>>IF      13910>>ASSIGN  13913>>ASSIGN  13916>>IF      13920>>ASSIGN
     13923>>ASSIGN  13961>>IF
VM_SELECT
     12989**DCL        13--PROC    13713<>CALL
VM_SELECT.ERROR
PL6.E3A0      #001=VMS$SELECT File=VMS$SELECT.:VMB6TSI                           WED 08/20/97 15:24 Page:102
     12990**DCL     13721<<ASSIGN  13756<<ASSIGN  13793<<ASSIGN  13979<<ASSIGN  14001<<ASSIGN  14005<<ASSIGN
     14010<<ASSIGN  14159<<ASSIGN  14204<<ASSIGN  14243<<ASSIGN
VM_SELECT.ERR_POS#
     12997**DCL     13722<<ASSIGN  13757<<ASSIGN  13794<<ASSIGN  13980<<ASSIGN  14002<<ASSIGN  14006<<ASSIGN
     14011<<ASSIGN  14160<<ASSIGN  14205<<ASSIGN  14244<<ASSIGN
VM_WILDCARD
     13374**DCL     13944<>CALL
VM_WILDCARD.INPUT_
     13380**DCL     13943<<ASSIGN
VM_WILDCARD.PATTERN_
     13375**DCL     13942<<ASSIGN
WORK1.L#
     13262**DCL     13933<<ASSIGN  13942>>ASSIGN
WORK1.NAME#
     13262**DCL     13931<<CALLBLT 13942--ASSIGN
WORK2
     13289**DCL     13937--CALL
WORK2.L#
     13289**DCL     13936<<ASSIGN  13938>>IF      13940<<ASSIGN  13940>>ASSIGN  13943>>ASSIGN
WORK2.NAME#
     13289**DCL     13934<<CALLBLT 13935<<ASSIGN  13936--ASSIGN  13941<<ASSIGN  13943--ASSIGN
WORK_DATE IN PROCEDURE DATE_INIT
     14022**DCL     14088--ASSIGN
WORK_DATE.DAY IN PROCEDURE DATE_INIT
     14025**DCL     14105<<CALLBLT
WORK_DATE.MONTH IN PROCEDURE DATE_INIT
     14023**DCL     14103<<CALLBLT
WORK_DATE.YEAR IN PROCEDURE DATE_INIT
     14027**DCL     14109<<CALLBLT
WORK_TIME IN PROCEDURE DATE_INIT
     14028**DCL     14032--REDEF   14113--ASSIGN
WORK_TIME.HOUR IN PROCEDURE DATE_INIT
     14029**DCL     14115<<CALLBLT
WORK_TIME.MIN IN PROCEDURE DATE_INIT
     14031**DCL     14117<<CALLBLT
WORK_TIMEC IN PROCEDURE DATE_INIT
PL6.E3A0      #001=VMS$SELECT File=VMS$SELECT.:VMB6TSI                           WED 08/20/97 15:24 Page:103
     14032**DCL     14090<<ASSIGN
X$DEC_CONVERT
     13307**DCL-ENT 13802--CALL    13809--CALL    13810--CALL    13816--CALL    13817--CALL
X$STRING.SIZ
     12556**DCL     12557--IMP-SIZ 13718>>IF      13928>>IF      13934>>CALLBLT
X$STRING.TEXT
     12557**DCL     13934>>CALLBLT
X$WILDCMP
     13310**DCL-ENT 13944--CALL
XUD$UTS_ADJ_25TH
     10592**DCL-ENT 13843--CALL
ZERO
     13299**DCL     13298--DCLINIT
ZERO$
     13298**DCL     13785>>ASSIGN  13805>>ASSIGN  13950>>ASSIGN  13958>>ASSIGN

PL6.E3A0      #002=VMS$MOVE_SELECT File=VMS$SELECT.:VMB6TSI                      WED 08/20/97 15:25 Page:104
      624        1        /*T***********************************************************/
      625        2        /*T*                                                         */
      626        3        /*T* Copyright (c) Bull HN Information Systems Inc., 1997    */
      627        4        /*T*                                                         */
      628        5        /*T***********************************************************/
      629        6        /*X* DMC,PLM=4,IND=4,CTI=2,DTI=0,ENI=0,ECI=0,CSI=0,DCI=4 */
      630        7        /*F*
      631        8             NAME: VMS$MOVE_SELECT
      632        9             PURPOSE:
      633       10                  To copy a parse tree to another address space.
      634       11             DESCRIPTION:
      635       12                  This routine has three parameters.
      636       13
      637       14                   MCB      - info describing work space for allocation.
      638       15                   OLD_PTR$ - ptr to P$B or P$S structure to be moved.
      639       16                   NEW_PTR$ - ptr to newly moved structure (return value).
      640       17
      641       18                  This routine will allocate the required space for either
      642       19                  a P$B or a P$S structure. It will then copy the structure
      643       20                  into the new space. If the structure is a P$B structure with
      644       21                  one or more NSUBLKS then this routine will call itself
      645       22                  recursively to process those blocks. When this routine returns,
      646       23                  the ptr, NEW_PTR$, will contain the new address of the just
      647       24                  moved structure. This must be stuffed into the SUBLK$ ptr
      648       25                  that originally pointed to the subnode that was just processed.
      649       26                  Or, in the case of the return to the original caller, it will
      650       27                  point to the newly moved structure.
      651       28        */
      652       29        VMS$MOVE_SELECT: PROC (MCB,OLD_PTR$,NEW_PTR$) ALTRET;
      653       30        /***** Include files *****/
      654       31          %INCLUDE XUM_MACRO_C;
      655       58          %INCLUDE XU_MACRO_C;
      656     3164          %INCLUDE XU_SUBS_C;
      657     3256        /***** Parameters *****/
      658     3257          %XUM$MCB (NAME=MCB,STCLASS=" ");
      659     3261    1   DCL OLD_PTR$ PTR;
      660     3262    1   DCL NEW_PTR$ PTR;
PL6.E3A0      #002=VMS$MOVE_SELECT File=VMS$SELECT.:VMB6TSI                      WED 08/20/97 15:25 Page:105
      661     3263        /***** Local variables *****/
      662     3264    1   DCL INDX SBIN WORD AUTO;
      663     3265    1   DCL WORK_PTR$ PTR AUTO;
      664     3266    1   DCL MOVE_PTR$ PTR AUTO;
      665     3267        /***** External routines *****/
      666     3268    1   DCL X$ALLOCATE ENTRY(1) ALTRET;
      667     3269        /***** Based structures *****/
      668     3270          %PARSE$OUT (NAME=P$B,STCLASS=BASED);
      669     3315          %PARSE$SYM (NAME=P$S,STCLASS=BASED);
      670     3353        %EJECT;
PL6.E3A0      #002=VMS$MOVE_SELECT File=VMS$SELECT.:VMB6TSI                      WED 08/20/97 15:25 Page:106
      671     3354        /*
      672     3355             ***** Determine the size of this node ...
      673     3356        */
      674     3357    2       DO CASE (OLD_PTR$ -> P$B.NDTYPE);
      675     3358    2       CASE (%DSTRING#,
      676     3359    2         %OCT#,
      677     3360    2         %DEC#,
      678     3361    2         %ALPHA#,
      679     3362    2         %ALNUM#,
      680     3363    2         %SYM#,
      681     3364    2         %FID#,
      682     3365    2         %ASYM#,
      683     3366    2         %PL6SYM#);
      684     3367    2           MCB.SIZE = LENGTHC(OLD_PTR$ -> P$S) + OLD_PTR$ -> P$S.COUNT - 2;
      685     3368        /*
      686     3369             ***** Allocate the required space ...
      687     3370        */
      688     3371    2           CALL X$ALLOCATE (MCB) ALTRET(E_ALLOCATE);
      689     3372        /*
      690     3373             ***** Copy the structure into the newly allocated space ...
      691     3374        */
      692     3375    2           NEW_PTR$ = MCB.ADDRESS$;
      693     3376    2           NEW_PTR$ -> P$S = OLD_PTR$ -> P$S;
      694     3377    2           NEW_PTR$ -> P$S.TEXTC$ = ADDR(NEW_PTR$ -> P$S.COUNT);
      695     3378    2           NEW_PTR$ -> P$S.COUNT = OLD_PTR$ -> P$S.COUNT;
      696     3379    2           NEW_PTR$ -> P$S.TEXT = OLD_PTR$ -> P$S.TEXT;
      697     3380    2           RETURN;
      698     3381    2       CASE (ELSE);
      699     3382    2           MCB.SIZE = LENGTHC(OLD_PTR$ -> P$B) + (OLD_PTR$ -> P$B.NSUBLKS-1) * 4;
      700     3383        /*
      701     3384             ***** Allocate the required space ...
      702     3385        */
      703     3386    2           CALL X$ALLOCATE (MCB) ALTRET(E_ALLOCATE);
      704     3387        /*
      705     3388             ***** Copy the structure into the newly allocated space ...
      706     3389        */
      707     3390    2           NEW_PTR$ = MCB.ADDRESS$;
PL6.E3A0      #002=VMS$MOVE_SELECT File=VMS$SELECT.:VMB6TSI                      WED 08/20/97 15:25 Page:107
      708     3391    2           NEW_PTR$ -> P$B = OLD_PTR$ -> P$B;
      709     3392    2           IF OLD_PTR$ -> P$B.NSUBLKS > 0
      710     3393    2           THEN
      711     3394    3           DO INDX = 0 TO OLD_PTR$ -> P$B.NSUBLKS - 1;
      712     3395    3               WORK_PTR$ = OLD_PTR$ -> P$B.SUBLK$(INDX);
      713     3396    3               CALL VMS$MOVE_SELECT (MCB,WORK_PTR$,MOVE_PTR$) ALTRET(E_ALLOCATE);
      714     3397    3               NEW_PTR$ -> P$B.SUBLK$(INDX) = MOVE_PTR$;
      715     3398    3           END;
      716     3399    2       END;                             /* Do case ... end */
      717     3400    1       RETURN;
      718     3401        /**/
      719     3402    1   E_ALLOCATE:
      720     3403    1       ALTRETURN;
      721     3404    1   END VMS$MOVE_SELECT;
      722     3405        %EOD;

PL6.E3A0      #002=VMS$MOVE_SELECT File=VMS$SELECT.:VMB6TSI                      WED 08/20/97 15:25 Page:108
--  Include file information  --

   XU_SUBS_C.:LIB_E05  is referenced.
   XU_MACRO_C.:LIB_E05  is referenced.
   XUM_MACRO_C.:LIB_E05  is referenced.
      No diagnostics issued in procedure VMS$MOVE_SELECT.

   Procedure VMS$MOVE_SELECT requires 134 words for executable code.
   Procedure VMS$MOVE_SELECT requires 14 words of local(AUTO) storage.

PL6.E3A0      #002=VMS$MOVE_SELECT File=VMS$SELECT.:VMB6TSI                      WED 08/20/97 15:25 Page:109

 Object Unit name= VMS$MOVE_SELECT                            File name= VMS$SELECT.:VMB6TOU
 UTS= AUG 20 '97 15:25:31.08 WED                              Compiler= PL-6/E31         Sev=      00
 SharedLib= :SHARED_SYSTEM                                    Alt SharedLib=


    ****  Control sections  ****

 Sect   Type Bound  Init  Size OctSiz  Section name(segment info)
    0   Proc  even  none   134    206  VMS$MOVE_SELECT
    1  RoData even  none     3      3  VMS$MOVE_SELECT

    ****  Entry defs  ****

                              Check   Calling
                             calling  sequence
  Sect OctLoc Primary Altret sequence   type   Parms  Name
     0      0   yes    yes     yes      Std        3  VMS$MOVE_SELECT

  ****  Entry refs  ****

         Check        Calling
        calling       sequence
Altret sequence SRef   type   Args  Name
 yes     yes           Std       1 X$ALLOCATE
                       nStd      0 X66_AUTO_3
                       nStd      0 X66_ARET
                       nStd      0 X66_AALT
PL6.E3A0      #002=VMS$MOVE_SELECT File=VMS$SELECT.:VMB6TSI                      WED 08/20/97 15:25 Page:110


      624        1        /*T***********************************************************/
      625        2        /*T*                                                         */
      626        3        /*T* Copyright (c) Bull HN Information Systems Inc., 1997    */
      627        4        /*T*                                                         */
      628        5        /*T***********************************************************/
      629        6        /*X* DMC,PLM=4,IND=4,CTI=2,DTI=0,ENI=0,ECI=0,CSI=0,DCI=4 */
      630        7        /*F*
      631        8             NAME: VMS$MOVE_SELECT
      632        9             PURPOSE:
      633       10                  To copy a parse tree to another address space.
      634       11             DESCRIPTION:
      635       12                  This routine has three parameters.
      636       13
      637       14                   MCB      - info describing work space for allocation.
      638       15                   OLD_PTR$ - ptr to P$B or P$S structure to be moved.
      639       16                   NEW_PTR$ - ptr to newly moved structure (return value).
      640       17
      641       18                  This routine will allocate the required space for either
      642       19                  a P$B or a P$S structure. It will then copy the structure
      643       20                  into the new space. If the structure is a P$B structure with
      644       21                  one or more NSUBLKS then this routine will call itself
      645       22                  recursively to process those blocks. When this routine returns,
      646       23                  the ptr, NEW_PTR$, will contain the new address of the just
      647       24                  moved structure. This must be stuffed into the SUBLK$ ptr
      648       25                  that originally pointed to the subnode that was just processed.
      649       26                  Or, in the case of the return to the original caller, it will
      650       27                  point to the newly moved structure.
      651       28        */
      652       29        VMS$MOVE_SELECT: PROC (MCB,OLD_PTR$,NEW_PTR$) ALTRET;

     29  0 000000   000000 700200 xent  VMS$MOVE_SE* TSX0  ! X66_AUTO_3
         0 000001   000016 000003                    ZERO    14,3

      653       30        /***** Include files *****/
      654       31          %INCLUDE XUM_MACRO_C;
      655       58          %INCLUDE XU_MACRO_C;
PL6.E3A0      #002=VMS$MOVE_SELECT File=VMS$SELECT.:VMB6TSI                      WED 08/20/97 15:25 Page:111
      656     3164          %INCLUDE XU_SUBS_C;
      657     3256        /***** Parameters *****/
      658     3257          %XUM$MCB (NAME=MCB,STCLASS=" ");
      659     3261    1   DCL OLD_PTR$ PTR;
      660     3262    1   DCL NEW_PTR$ PTR;
      661     3263        /***** Local variables *****/
      662     3264    1   DCL INDX SBIN WORD AUTO;
      663     3265    1   DCL WORK_PTR$ PTR AUTO;
      664     3266    1   DCL MOVE_PTR$ PTR AUTO;
      665     3267        /***** External routines *****/
      666     3268    1   DCL X$ALLOCATE ENTRY(1) ALTRET;
      667     3269        /***** Based structures *****/
      668     3270          %PARSE$OUT (NAME=P$B,STCLASS=BASED);
      669     3315          %PARSE$SYM (NAME=P$S,STCLASS=BASED);
      670     3353        %EJECT;
PL6.E3A0      #002=VMS$MOVE_SELECT File=VMS$SELECT.:VMB6TSI                      WED 08/20/97 15:25 Page:112
      671     3354        /*
      672     3355             ***** Determine the size of this node ...
      673     3356        */
      674     3357    2       DO CASE (OLD_PTR$ -> P$B.NDTYPE);

   3357  0 000002   200004 470500                    LDP0    @OLD_PTR$,,AUTO
         0 000003   000000 471500                    LDP1    0,,PR0
         0 000004   100000 236100                    LDQ     0,,PR1
         0 000005   000022 772000                    QRL     18
         0 000006   000077 376007                    ANQ     63,DL
         0 000007   000005 136007                    SBLQ    5,DL
         0 000010   000024 116007                    CMPQ    20,DL
         0 000011   000013 602006 0                  TNC     s:3357+9,QL
         0 000012   000120 710000 0                  TRA     s:3382
         0 000013   000037 710000 0                  TRA     s:3367
         0 000014   000120 710000 0                  TRA     s:3382
         0 000015   000120 710000 0                  TRA     s:3382
         0 000016   000120 710000 0                  TRA     s:3382
         0 000017   000120 710000 0                  TRA     s:3382
         0 000020   000120 710000 0                  TRA     s:3382
         0 000021   000120 710000 0                  TRA     s:3382
         0 000022   000120 710000 0                  TRA     s:3382
         0 000023   000120 710000 0                  TRA     s:3382
         0 000024   000120 710000 0                  TRA     s:3382
         0 000025   000120 710000 0                  TRA     s:3382
         0 000026   000120 710000 0                  TRA     s:3382
         0 000027   000037 710000 0                  TRA     s:3367
         0 000030   000037 710000 0                  TRA     s:3367
         0 000031   000037 710000 0                  TRA     s:3367
         0 000032   000037 710000 0                  TRA     s:3367
         0 000033   000037 710000 0                  TRA     s:3367
         0 000034   000037 710000 0                  TRA     s:3367
         0 000035   000037 710000 0                  TRA     s:3367
         0 000036   000037 710000 0                  TRA     s:3367

      675     3358    2       CASE (%DSTRING#,

PL6.E3A0      #002=VMS$MOVE_SELECT File=VMS$SELECT.:VMB6TSI                      WED 08/20/97 15:25 Page:113
      676     3359    2         %OCT#,
      677     3360    2         %DEC#,
      678     3361    2         %ALPHA#,
      679     3362    2         %ALNUM#,
      680     3363    2         %SYM#,
      681     3364    2         %FID#,
      682     3365    2         %ASYM#,
      683     3366    2         %PL6SYM#);
      684     3367    2           MCB.SIZE = LENGTHC(OLD_PTR$ -> P$S) + OLD_PTR$ -> P$S.COUNT - 2;

   3367  0 000037   100004 236100                    LDQ     4,,PR1
         0 000040   000033 772000                    QRL     27
         0 000041   000021 620006                    EAX0    17,QL
         0 000042   200012 756100                    STQ     MOVE_PTR$+2,,AUTO
         0 000043   000000 636010                    EAQ     0,X0
         0 000044   000022 772000                    QRL     18
         0 000045   200012 036100                    ADLQ    MOVE_PTR$+2,,AUTO
         0 000046   000002 136007                    SBLQ    2,DL
         0 000047   200003 471500                    LDP1    @MCB,,AUTO
         0 000050   100006 756100                    STQ     6,,PR1

      685     3368        /*
      686     3369             ***** Allocate the required space ...
      687     3370        */
      688     3371    2           CALL X$ALLOCATE (MCB) ALTRET(E_ALLOCATE);

   3371  0 000051   200003 630500                    EPPR0   @MCB,,AUTO
         0 000052   000000 631400 1                  EPPR1   0
         0 000053   000000 701000 xent               TSX1    X$ALLOCATE
         0 000054   000205 702000 0                  TSX2    E_ALLOCATE

      689     3372        /*
      690     3373             ***** Copy the structure into the newly allocated space ...
      691     3374        */
      692     3375    2           NEW_PTR$ = MCB.ADDRESS$;

   3375  0 000055   200003 470500                    LDP0    @MCB,,AUTO
PL6.E3A0      #002=VMS$MOVE_SELECT File=VMS$SELECT.:VMB6TSI                      WED 08/20/97 15:25 Page:114
         0 000056   000000 236100                    LDQ     0,,PR0
         0 000057   200005 471500                    LDP1    @NEW_PTR$,,AUTO
         0 000060   100000 756100                    STQ     0,,PR1

      693     3376    2           NEW_PTR$ -> P$S = OLD_PTR$ -> P$S;

   3376  0 000061   100000 473500                    LDP3    0,,PR1
         0 000062   300004 236100                    LDQ     4,,PR3
         0 000063   000033 772000                    QRL     27
         0 000064   000021 620006                    EAX0    17,QL
         0 000065   200004 474500                    LDP4    @OLD_PTR$,,AUTO
         0 000066   400000 475500                    LDP5    0,,PR4
         0 000067   500004 236100                    LDQ     4,,PR5
         0 000070   000033 772000                    QRL     27
         0 000071   000021 621006                    EAX1    17,QL
         0 000072   000140 100540                    MLR     fill='000'O
         0 000073   500000 000011                    ADSC9   0,,PR5                   cn=0,n=*X1
         0 000074   300000 000010                    ADSC9   0,,PR3                   cn=0,n=*X0

      694     3377    2           NEW_PTR$ -> P$S.TEXTC$ = ADDR(NEW_PTR$ -> P$S.COUNT);

   3377  0 000075   100000 473500                    LDP3    0,,PR1
         0 000076   300004 635500                    EPPR5   4,,PR3
         0 000077   300003 455500                    STP5    3,,PR3

      695     3378    2           NEW_PTR$ -> P$S.COUNT = OLD_PTR$ -> P$S.COUNT;

   3378  0 000100   100000 473500                    LDP3    0,,PR1
         0 000101   400000 475500                    LDP5    0,,PR4
         0 000102   500004 236100                    LDQ     4,,PR5
         0 000103   300004 552140                    STBQ    4,'40'O,PR3

      696     3379    2           NEW_PTR$ -> P$S.TEXT = OLD_PTR$ -> P$S.TEXT;

   3379  0 000104   100000 473500                    LDP3    0,,PR1
         0 000105   300004 236100                    LDQ     4,,PR3
         0 000106   000033 772000                    QRL     27
PL6.E3A0      #002=VMS$MOVE_SELECT File=VMS$SELECT.:VMB6TSI                      WED 08/20/97 15:25 Page:115
         0 000107   400000 475500                    LDP5    0,,PR4
         0 000110   000000 620006                    EAX0    0,QL
         0 000111   500004 236100                    LDQ     4,,PR5
         0 000112   000033 772000                    QRL     27
         0 000113   000000 621006                    EAX1    0,QL
         0 000114   040140 100540                    MLR     fill='040'O
         0 000115   500004 200011                    ADSC9   4,,PR5                   cn=1,n=*X1
         0 000116   300004 200010                    ADSC9   4,,PR3                   cn=1,n=*X0

      697     3380    2           RETURN;

   3380  0 000117   000000 702200 xent               TSX2  ! X66_ARET

      698     3381    2       CASE (ELSE);

      699     3382    2           MCB.SIZE = LENGTHC(OLD_PTR$ -> P$B) + (OLD_PTR$ -> P$B.NSUBLKS-1) * 4;

   3382  0 000120   100001 236100                    LDQ     1,,PR1
         0 000121   000020 772000                    QRL     16
         0 000122   000001 376000 1                  ANQ     1
         0 000123   000014 036007                    ADLQ    12,DL
         0 000124   200003 473500                    LDP3    @MCB,,AUTO
         0 000125   300006 756100                    STQ     6,,PR3

      700     3383        /*
      701     3384             ***** Allocate the required space ...
      702     3385        */
      703     3386    2           CALL X$ALLOCATE (MCB) ALTRET(E_ALLOCATE);

   3386  0 000126   200003 630500                    EPPR0   @MCB,,AUTO
         0 000127   000000 631400 1                  EPPR1   0
         0 000130   000000 701000 xent               TSX1    X$ALLOCATE
         0 000131   000205 702000 0                  TSX2    E_ALLOCATE

      704     3387        /*
      705     3388             ***** Copy the structure into the newly allocated space ...
      706     3389        */
PL6.E3A0      #002=VMS$MOVE_SELECT File=VMS$SELECT.:VMB6TSI                      WED 08/20/97 15:25 Page:116
      707     3390    2           NEW_PTR$ = MCB.ADDRESS$;

   3390  0 000132   200003 470500                    LDP0    @MCB,,AUTO
         0 000133   000000 236100                    LDQ     0,,PR0
         0 000134   200005 471500                    LDP1    @NEW_PTR$,,AUTO
         0 000135   100000 756100                    STQ     0,,PR1

      708     3391    2           NEW_PTR$ -> P$B = OLD_PTR$ -> P$B;

   3391  0 000136   100000 473500                    LDP3    0,,PR1
         0 000137   200004 474500                    LDP4    @OLD_PTR$,,AUTO
         0 000140   400000 475500                    LDP5    0,,PR4
         0 000141   000100 100500                    MLR     fill='000'O
         0 000142   500000 000020                    ADSC9   0,,PR5                   cn=0,n=16
         0 000143   300000 000020                    ADSC9   0,,PR3                   cn=0,n=16

      709     3392    2           IF OLD_PTR$ -> P$B.NSUBLKS > 0

   3392  0 000144   400000 473500                    LDP3    0,,PR4
         0 000145   300001 220100                    LDX0    1,,PR3
         0 000146   000204 600000 0                  TZE     s:3400

      710     3393    2           THEN
      711     3394    3           DO INDX = 0 TO OLD_PTR$ -> P$B.NSUBLKS - 1;

   3394  0 000147   200006 450100                    STZ     INDX,,AUTO
         0 000150   000176 710000 0                  TRA     s:3398+1

      712     3395    3               WORK_PTR$ = OLD_PTR$ -> P$B.SUBLK$(INDX);

   3395  0 000151   200004 470500                    LDP0    @OLD_PTR$,,AUTO
         0 000152   000000 471500                    LDP1    0,,PR0
         0 000153   200006 720100                    LXL0    INDX,,AUTO
         0 000154   100003 236110                    LDQ     3,X0,PR1
         0 000155   200007 756100                    STQ     WORK_PTR$,,AUTO

      713     3396    3               CALL VMS$MOVE_SELECT (MCB,WORK_PTR$,MOVE_PTR$) ALTRET(E_ALLOCATE);
PL6.E3A0      #002=VMS$MOVE_SELECT File=VMS$SELECT.:VMB6TSI                      WED 08/20/97 15:25 Page:117

   3396  0 000156   200010 631500                    EPPR1   MOVE_PTR$,,AUTO
         0 000157   200014 451500                    STP1    MOVE_PTR$+4,,AUTO
         0 000160   200007 633500                    EPPR3   WORK_PTR$,,AUTO
         0 000161   200013 453500                    STP3    MOVE_PTR$+3,,AUTO
         0 000162   200003 236100                    LDQ     @MCB,,AUTO
         0 000163   200012 756100                    STQ     MOVE_PTR$+2,,AUTO
         0 000164   200012 630500                    EPPR0   MOVE_PTR$+2,,AUTO
         0 000165   000002 631400 1                  EPPR1   2
         0 000166   000000 701000 0                  TSX1    s:29
         0 000167   000205 702000 0                  TSX2    E_ALLOCATE

      714     3397    3               NEW_PTR$ -> P$B.SUBLK$(INDX) = MOVE_PTR$;

   3397  0 000170   200005 470500                    LDP0    @NEW_PTR$,,AUTO
         0 000171   000000 471500                    LDP1    0,,PR0
         0 000172   200010 236100                    LDQ     MOVE_PTR$,,AUTO
         0 000173   200006 720100                    LXL0    INDX,,AUTO
         0 000174   100003 756110                    STQ     3,X0,PR1

      715     3398    3           END;

   3398  0 000175   200006 054100                    AOS     INDX,,AUTO
         0 000176   200004 470500                    LDP0    @OLD_PTR$,,AUTO
         0 000177   000000 471500                    LDP1    0,,PR0
         0 000200   100001 236100                    LDQ     1,,PR1
         0 000201   000022 772000                    QRL     18
         0 000202   200006 116100                    CMPQ    INDX,,AUTO
         0 000203   000151 605400 0                  TPNZ    s:3395

      716     3399    2       END;                             /* Do case ... end */

      717     3400    1       RETURN;

   3400  0 000204   000000 702200 xent               TSX2  ! X66_ARET

      718     3401        /**/
PL6.E3A0      #002=VMS$MOVE_SELECT File=VMS$SELECT.:VMB6TSI                      WED 08/20/97 15:25 Page:118
      719     3402    1   E_ALLOCATE:
      720     3403    1       ALTRETURN;

   3403  0 000205   000000 702200 xent  E_ALLOCATE   TSX2  ! X66_AALT

(unnamed)
 Sect OctLoc
   1     000   000001 000000   000003 777774   000003 000000                    ............
      721     3404    1   END VMS$MOVE_SELECT;
      722     3405        %EOD;

PL6.E3A0      #002=VMS$MOVE_SELECT File=VMS$SELECT.:VMB6TSI                      WED 08/20/97 15:25 Page:119
--  Include file information  --

   XU_SUBS_C.:LIB_E05  is referenced.
   XU_MACRO_C.:LIB_E05  is referenced.
   XUM_MACRO_C.:LIB_E05  is referenced.
      No diagnostics issued in procedure VMS$MOVE_SELECT.
PL6.E3A0      #002=VMS$MOVE_SELECT File=VMS$SELECT.:VMB6TSI                      WED 08/20/97 15:25 Page:120

 **** Variables and constants ****

  ****  Auto variables  ****

  ****  Scalars and arrays  ****
OctLoc.c.b A Datatyp(siz) R M Lvl/name                 OctLoc.c.b A Datatyp(siz) R M Lvl/name

     3-0-0/w PTR         r     1 @MCB                       5-0-0/w PTR         r     1 @NEW_PTR$
     4-0-0/w PTR         r     1 @OLD_PTR$                  6-0-0/w SBIN        r     1 INDX
    *0-0-0/w STRC(324)   r     1 MCB                       10-0-0/w PTR         r     1 MOVE_PTR$
    *0-0-0/w PTR         r     1 NEW_PTR$                  *0-0-0/w PTR         r     1 OLD_PTR$
     7-0-0/w PTR         r     1 WORK_PTR$

  ****  BASED and DCB variables  ****

  ****  Scalars and arrays  ****
OctLoc.c.b A Datatyp(siz) R M Lvl/name                 OctLoc.c.b A Datatyp(siz) R M Lvl/name

     0-0-0/w STRC(144)   r     1 P$B                        0-0-0/w ASTR(153)   r     1 P$S


   Procedure VMS$MOVE_SELECT requires 134 words for executable code.
   Procedure VMS$MOVE_SELECT requires 14 words of local(AUTO) storage.
PL6.E3A0      #002=VMS$MOVE_SELECT File=VMS$SELECT.:VMB6TSI                      WED 08/20/97 15:25 Page:121
          *** CROSS REFERENCE LISTING ***
**     DENOTES     IDENTIFIER DEFINITION
<<                 IDENTIFIER'S VALUE SET
>>                 IDENTIFIER'S VALUE USED
<>                 IDENTIFIER SET AND/OR USED
--                 IDENTIFIER REFERENCED
PL6.E3A0      #002=VMS$MOVE_SELECT File=VMS$SELECT.:VMB6TSI                      WED 08/20/97 15:25 Page:122
          MINI XREF LISTING

E_ALLOCATE
      3403**LABEL    3371--CALLALT  3386--CALLALT  3396--CALLALT
INDX
      3264**DCL      3394<<DOINDEX  3395>>ASSIGN   3397>>ASSIGN
MCB
      3258**DCL        29--PROC     3371<>CALL     3386<>CALL     3396<>CALL
MCB.ADDRESS$
      3258**DCL      3375>>ASSIGN   3390>>ASSIGN
MCB.SIZE
      3258**DCL      3367<<ASSIGN   3382<<ASSIGN
MOVE_PTR$
      3266**DCL      3396<>CALL     3397>>ASSIGN
NEW_PTR$
      3262**DCL        29--PROC     3375<<ASSIGN   3376>>ASSIGN   3376>>ASSIGN   3377>>ASSIGN   3377>>ASSIGN
      3378>>ASSIGN   3379>>ASSIGN   3379>>ASSIGN   3390<<ASSIGN   3391>>ASSIGN   3397>>ASSIGN
OLD_PTR$
      3261**DCL        29--PROC     3357>>DOCASE   3367>>ASSIGN   3367>>ASSIGN   3367>>ASSIGN   3376>>ASSIGN
      3376>>ASSIGN   3378>>ASSIGN   3379>>ASSIGN   3379>>ASSIGN   3382>>ASSIGN   3382>>ASSIGN   3391>>ASSIGN
      3392>>IF       3394>>DOINDEX  3395>>ASSIGN
P$B
      3276**DCL      3382--ASSIGN   3391<<ASSIGN   3391>>ASSIGN
P$B.NDTYPE
      3279**DCL      3357>>DOCASE
P$B.NSUBLKS
      3288**DCL      3382>>ASSIGN   3392>>IF       3394>>DOINDEX
P$B.SUBLK$
      3309**DCL      3395>>ASSIGN   3397<<ASSIGN
P$S
      3322**DCL      3367--ASSIGN   3376<<ASSIGN   3376>>ASSIGN
P$S.COUNT
      3345**DCL      3348--IMP-SIZ  3367>>ASSIGN   3367>>ASSIGN   3376>>ASSIGN   3376>>ASSIGN   3377--ASSIGN
      3378<<ASSIGN   3378>>ASSIGN   3379>>ASSIGN   3379>>ASSIGN
PL6.E3A0      #002=VMS$MOVE_SELECT File=VMS$SELECT.:VMB6TSI                      WED 08/20/97 15:25 Page:123
P$S.TEXT
      3348**DCL      3379<<ASSIGN   3379>>ASSIGN
P$S.TEXTC$
      3340**DCL      3377<<ASSIGN
VMS$MOVE_SELECT
        29**PROC     3396--CALL
WORK_PTR$
      3265**DCL      3395<<ASSIGN   3396<>CALL
X$ALLOCATE
      3268**DCL-ENT  3371--CALL     3386--CALL

PL6.E3A0      #003=VMS$FMT_SELECT File=VMS$SELECT.:VMB6TSI                       WED 08/20/97 15:25 Page:124
      723        1        /*T***********************************************************/
      724        2        /*T*                                                         */
      725        3        /*T* Copyright (c) Bull HN Information Systems Inc., 1997    */
      726        4        /*T*                                                         */
      727        5        /*T***********************************************************/
      728        6        /*X* DMC,PLM=4,IND=4,CTI=2,DTI=0,ENI=0,ECI=0,CSI=0,DCI=4 */
      729        7        /*********************************************************************/
      730        8        /*F*
      731        9             NAME: VMS$FMT_SELECT
      732       10             PURPOSE:
      733       11                   To produce a text string describing a SELECTION CRITERIA.
      734       12             DESCRIPTION:
      735       13                   This routine takes the information contained in the
      736       14                   VM_CONTEXT structure and produces a textc string.
      737       15
      738       16                   This routine has 2 parameters:
      739       17                      VM_CONTEXT   - structure describing the SELECTION CRITERIA.
      740       18                      TEXTC        - textc string of length 511.
      741       19        */
      742       20        /*********************************************************************/
      743       21        VMS$FMT_SELECT: PROC (VM_CONTEXT,TEXTC);
      744       22        /***** Include files *****/
      745       23          %INCLUDE CP_6;
      746     5582          %INCLUDE CP_6_SUBS;
      747     6122          %INCLUDE VM_MACRO_C;
      748     7390          %INCLUDE VM_SUBS_C;
      749     7650          %INCLUDE VM_PERR_C;
      750     7945          %INCLUDE VM_DATA_R;
      751     8376        /***** Parameters *****/
      752     8377          %VM_CONTEXT (STCLASS=" ");
      753     8410          %TEXTC (NAME=TEXTC,STCLASS=" ");
      754     8415        /***** Local variables *****/
      755     8416    1   DCL INDX1 SBIN WORD AUTO;
      756     8417    1   DCL INDX2 SBIN WORD AUTO;
      757     8418    1   DCL INDX3 SBIN WORD AUTO;
      758     8419    1   DCL CHARPOS SBIN WORD AUTO;
      759     8420    1   DCL CONVERT_BUF CHAR(12) AUTO;
PL6.E3A0      #003=VMS$FMT_SELECT File=VMS$SELECT.:VMB6TSI                       WED 08/20/97 15:25 Page:125
      760     8421        /***** External routines *****/
      761     8422    1   DCL VMS$FMT_EXP ENTRY(3);
      762     8423        %INIT_STR (DODCL=YES);
      763     8446        %VLP_NAME (FPTN=VM_CHAR_ERROR_MSG, LEN=15, L=15, NAME=' ', STCLASS="STATIC SYMDEF");
      764     8473        %VLP_ERRCODE (FPTN=E_CHAR_ERROR_MSG,   STCLASS="CONSTANT SYMDEF",
      765     8474                       ERR#=%E$CHAR_ERROR_MSG,           FCG=VM,MID=S);
      766     8519        /*E*  ERROR:VMS-E$CHAR_ERROR_MSG-0
      767     8520              MESSAGE:***** Error *****
      768     8521        */
      769     8522              %VLP_NAMEV(FPTN=VM_CHAR_NEXT,    STCLASS=SYMREF);
      770     8529        %VLP_NAMEV(FPTN=VM_CHAR_PREVIOUS,      STCLASS=SYMREF);
      771     8536        %VLP_NAMEV(FPTN=VM_CHAR_WHEN,          STCLASS=SYMREF);
      772     8543        %VLP_ERRCODE (FPTN=E_CHAR_WHEN,        STCLASS="SYMREF READONLY");
      773     8588              %VLP_ERRCODE (FPTN=E_CHAR_NEXT,  STCLASS="SYMREF READONLY");
      774     8633              %VLP_ERRCODE (FPTN=E_CHAR_PREVIOUS, STCLASS="SYMREF READONLY");
      775     8678        %EJECT;
PL6.E3A0      #003=VMS$FMT_SELECT File=VMS$SELECT.:VMB6TSI                       WED 08/20/97 15:25 Page:126
      776     8679        /*
      777     8680             ***** Initialization ...
      778     8681        */
      779     8682    1         TEXTC.TEXT = ' ';
      780     8683    1       CHARPOS = 0;
      781     8684        /*
      782     8685             ***** If next or previous specified, then
      783     8686                   only display that ...
      784     8687        */
      785     8688    1       IF VM_CONTEXT.FLAGS ~= '0'B
      786     8689    1       THEN
      787     8690    2       DO;
      788     8691    2           IF VM_CONTEXT.FLAGS.PREV
      789     8692    2           THEN
      790     8693    3           DO;
      791     8694                    %INIT_STR (CODE=E_CHAR_PREVIOUS, STR=VM_CHAR_PREVIOUS, TEST=YES);
      792     8717    3               substr(TEXTC.TEXT,CHARPOS)=VM_CHAR_PREVIOUS.NAME#;
      793     8718    3               CHARPOS = CHARPOS + VM_CHAR_PREVIOUS.L#;
      794     8719    3           END;
      795     8720    2           IF VM_CONTEXT.FLAGS.NEXT
      796     8721    2           THEN
      797     8722    3           DO;
      798     8723                    %INIT_STR (CODE=E_CHAR_NEXT, STR=VM_CHAR_NEXT, TEST=YES);
      799     8746    3               substr(TEXTC.TEXT,CHARPOS)=VM_CHAR_NEXT.NAME#;
      800     8747    3               CHARPOS = CHARPOS + VM_CHAR_NEXT.L#;
      801     8748    3           END;
      802     8749    2           GOTO BUILD_EXP;
      803     8750    2       END;
      804     8751        %EJECT;
PL6.E3A0      #003=VMS$FMT_SELECT File=VMS$SELECT.:VMB6TSI                       WED 08/20/97 15:25 Page:127
      805     8752        /*
      806     8753             ***** Build the message set text ...
      807     8754        */
      808     8755    2       DO INDX1 = 0 TO VM_CONTEXT.NUM_ENTRIES - 1;
      809     8756    2           CALL BINCHAR (CONVERT_BUF,VM_CONTEXT.MESSAGE_SET.LOW(INDX1));
      810     8757        /*
      811     8758             ***** Strip leading blanks ...
      812     8759        */
      813     8760    3           DO INDX2 = 0 TO LENGTHC(CONVERT_BUF) - 1;
      814     8761    3               IF SUBSTR(CONVERT_BUF,INDX2,1) ~= '0'
      815     8762    3               THEN
      816     8763    3                   GOTO INSERT_LOW;
      817     8764    3           END;
      818     8765    2           INDX2 = LENGTHC(CONVERT_BUF) - 1;
      819     8766    2   INSERT_LOW:
      820     8767    2           INDX3 = LENGTHC(CONVERT_BUF) - INDX2;
      821     8768    2           CALL INSERT (TEXTC.TEXT,CHARPOS,,SUBSTR(CONVERT_BUF,INDX2,INDX3));
      822     8769    2           CHARPOS = CHARPOS + INDX3;
      823     8770        /*
      824     8771             ***** Range ???
      825     8772        */
      826     8773    2           IF VM_CONTEXT.MESSAGE_SET.HIGH(INDX1) ~=
      827     8774    2             VM_CONTEXT.MESSAGE_SET.LOW(INDX1)
      828     8775    2           THEN
      829     8776    3           DO;
      830     8777    3               CALL BINCHAR (CONVERT_BUF,VM_CONTEXT.MESSAGE_SET.HIGH(INDX1));
      831     8778    4               DO INDX2 = 0 TO LENGTHC(CONVERT_BUF) - 1;
      832     8779    4                   IF SUBSTR(CONVERT_BUF,INDX2,1) ~= '0'
      833     8780    4                   THEN
      834     8781    4                       GOTO INSERT_HIGH;
      835     8782    4               END;
      836     8783    3               INDX2 = LENGTHC(CONVERT_BUF) - 1;
      837     8784    3   INSERT_HIGH:
      838     8785    3               INDX3 = LENGTHC(CONVERT_BUF) - INDX2;
      839     8786    3               CALL INSERT (TEXTC.TEXT,CHARPOS,,'-',
      840     8787    3                 SUBSTR(CONVERT_BUF,INDX2,INDX3));
      841     8788    3               CHARPOS = CHARPOS + LENGTHC('-') + INDX3;
PL6.E3A0      #003=VMS$FMT_SELECT File=VMS$SELECT.:VMB6TSI                       WED 08/20/97 15:25 Page:128
      842     8789    3           END;
      843     8790    2           IF INDX1 ~= VM_CONTEXT.NUM_ENTRIES -1
      844     8791    2           THEN                       /* More to come */
      845     8792    3           DO;                      /* Add a comma */
      846     8793    3               CALL INSERT (TEXTC.TEXT,CHARPOS,,',');
      847     8794    3               CHARPOS = CHARPOS + LENGTHC(',');
      848     8795    3           END;
      849     8796    2       END;                            /* Do INDX1 = ... end */
      850     8797        /*
      851     8798             ***** Now build the truth expression ...
      852     8799        */
      853     8800    1   BUILD_EXP:
      854     8801    1       IF VM_CONTEXT.TRUTH_TREE$ ~= ADDR(NIL)
      855     8802    1       THEN
      856     8803    2       DO;
      857     8804                %INIT_STR (CODE=E_CHAR_WHEN, STR=VM_CHAR_WHEN, TEST=YES);
      858     8827    2           substr(TEXTC.TEXT,CHARPOS) = VM_CHAR_WHEN.NAME#;
      859     8828    2           CHARPOS = CHARPOS + VM_CHAR_WHEN.L#;
      860     8829    2           CALL VMS$FMT_EXP (VM_CONTEXT.TRUTH_TREE$,TEXTC,CHARPOS);
      861     8830    2       END;
      862     8831    1       IF CHARPOS > 511
      863     8832    1       THEN
      864     8833    2       DO;
      865     8834                %INIT_STR (CODE=E_CHAR_ERROR_MSG, STR=VM_CHAR_ERROR_MSG, TEST=YES);
      866     8857    2           TEXTC.TEXT= VM_CHAR_ERROR_MSG.NAME#;
      867     8858    2           TEXTC.SIZ = VM_CHAR_ERROR_MSG.L#;
      868     8859    2       END;
      869     8860    1       ELSE
      870     8861    1           TEXTC.SIZ = CHARPOS;
      871     8862    1       RETURN;
      872     8863    1   END VMS$FMT_SELECT;
      873     8864        %EOD;

PL6.E3A0      #003=VMS$FMT_SELECT File=VMS$SELECT.:VMB6TSI                       WED 08/20/97 15:25 Page:129
--  Include file information  --

   B_MACROS_C.:LIB_E05  is referenced.
   VM_DATA_R.:VMB6TOU  cannot be made into a system file and is referenced.
   VM_PERR_C.:VMB6TOU  is referenced.
   VM_SUBS_C.:VMB6TOU  is referenced.
   VM_MACRO_C.:VMB6TOU  is referenced.
   CP_6_SUBS.:LIB_E05  is referenced.
   CP_6_C.:LIB_E05  is referenced.
   CP_6.:LIB_E05  cannot be made into a system file and is referenced.
      No diagnostics issued in procedure VMS$FMT_SELECT.

   Procedure VMS$FMT_SELECT requires 279 words for executable code.
   Procedure VMS$FMT_SELECT requires 16 words of local(AUTO) storage.

PL6.E3A0      #003=VMS$FMT_SELECT File=VMS$SELECT.:VMB6TSI                       WED 08/20/97 15:25 Page:130

 Object Unit name= VMS$FMT_SELECT                             File name= VMS$SELECT.:VMB6TOU
 UTS= AUG 20 '97 15:25:36.88 WED                              Compiler= PL-6/E31         Sev=      00
 SharedLib= :SHARED_SYSTEM                                    Alt SharedLib=


    ****  Control sections  ****

 Sect   Type Bound  Init  Size OctSiz  Section name(segment info)
    0   DCB   even  none     0      0  M$UC
    1   DCB   even  none     0      0  M$MAIL_FILE
    2   DCB   even  none     0      0  M$MAIL_CENTRAL
    3   DCB   even  none     0      0  M$MAIL_GLOBAL
    4   DCB   even  none     0      0  M$WORK
    5   DCB   even  none     0      0  M$MAIL_COMGROUP
    6   DCB   even  none     0      0  M$DO
    7   DCB   even  none     0      0  M$LO
    8   DCB   even  none     0      0  M$ME
    9   DCB   even  none     0      0  M$NODE
   10   DCB   even  none     0      0  M$SI
   11   Data  even  none     4      4  VMS$FMT_SELECT
   12  RoData even  UTS      1      1  VMS$FMT_SELECT
   13   Proc  even  none   279    427  VMS$FMT_SELECT
   14  RoData even  none    15     17  VMS$FMT_SELECT

    ****  Entry defs  ****

                              Check   Calling
                             calling  sequence
  Sect OctLoc Primary Altret sequence   type   Parms  Name
    13      0   yes            yes      Std        2  VMS$FMT_SELECT

  ****  Data defs  ****

 Sect OctLoc  Name                           Sect OctLoc  Name
   11      0  VM_CHAR_ERROR_MSG                 12      0  E_CHAR_ERROR_MSG
PL6.E3A0      #003=VMS$FMT_SELECT File=VMS$SELECT.:VMB6TSI                       WED 08/20/97 15:25 Page:131

  ****  Entry refs  ****

         Check        Calling
        calling       sequence
Altret sequence SRef   type   Args  Name
 yes     yes           Std       3 VMD$ERRMSG
         yes           Std       3 VMS$FMT_EXP
                       nStd      0 X66_AUTO_2
                       nStd      0 X66_ARET

  ****  Data refs  ****

  Flags:  r = read only, s = secondary
Flgs Name                             Flgs Name                             Flgs Name
     M$UC                             r    VM_HEADER$                       r    VM_PROFILE$
r    VM_ADDLIST$                      r    VM_ADDREC$                       r    VM_WORK$
r    VM_SELECT$                       r    VM_PARSEAREA$                    r    VM_INPUT$
r    VM_COPY$                              VM_ENCLLIST$                          VM_ENCLREC$
     VM_HEADER_                            VM_HEADER_INIT_                       VM_PROFILE_
     VM_ADDLIST_                           VM_ADDREC_                            VM_WORK_
     VM_SELECT_                            VM_PARSEAREA_                         VM_INPUT_
     VM_COPY_                              VM_ENCLLIST_                          VM_ENCLREC_
     M$MAIL_FILE                           M$MAIL_CENTRAL                        M$MAIL_GLOBAL
     M$WORK                                M$MAIL_COMGROUP                       M$DO
     M$LO                                  M$ME                                  M$NODE
     M$SI                                  M$MAIL_FILE_NUM                       M$MAIL_CENTRAL_NUM
     M$MAIL_GLOBAL_NUM                     M$WORK_NUM                            M$MAIL_COMGROUP_NUM
     M$DO_NUM                              M$ME_NUM                              M$LO_NUM
     M$SI_NUM                              M$NODE_NUM                       r    B$JIT$
r    B$TCB$                                VM_MAIL_ACCT                          VM_NAME_MAP_NAME
     ERRMSG_FID                            VM_SEND_FILE_NAME                     VM_FORWARD_FILE_NAME
     VM_FORWARD_ENCL_NAME                  VM_FORWARD_FILE_PASS                  VM_MAILCG_NAME
     VM_SITENAME                           VM_MAILCG_SETSTA                      VM_CHAR_NEXT
     VM_CHAR_PREVIOUS                      VM_CHAR_WHEN                     r    E_CHAR_WHEN
r    E_CHAR_NEXT                      r    E_CHAR_PREVIOUS
PL6.E3A0      #003=VMS$FMT_SELECT File=VMS$SELECT.:VMB6TSI                       WED 08/20/97 15:25 Page:132

  ****  Segment refs  ****

  Flags:  r = read only, s = secondary
Flgs Name                             Flgs Name                             Flgs Name
     NULLSID                               ISSID
PL6.E3A0      #003=VMS$FMT_SELECT File=VMS$SELECT.:VMB6TSI                       WED 08/20/97 15:25 Page:133


      723        1        /*T***********************************************************/
      724        2        /*T*                                                         */
      725        3        /*T* Copyright (c) Bull HN Information Systems Inc., 1997    */
      726        4        /*T*                                                         */
      727        5        /*T***********************************************************/
      728        6        /*X* DMC,PLM=4,IND=4,CTI=2,DTI=0,ENI=0,ECI=0,CSI=0,DCI=4 */
      729        7        /*********************************************************************/
      730        8        /*F*
      731        9             NAME: VMS$FMT_SELECT
      732       10             PURPOSE:
      733       11                   To produce a text string describing a SELECTION CRITERIA.
      734       12             DESCRIPTION:
      735       13                   This routine takes the information contained in the
      736       14                   VM_CONTEXT structure and produces a textc string.
      737       15
      738       16                   This routine has 2 parameters:
      739       17                      VM_CONTEXT   - structure describing the SELECTION CRITERIA.
      740       18                      TEXTC        - textc string of length 511.
      741       19        */
      742       20        /*********************************************************************/
      743       21        VMS$FMT_SELECT: PROC (VM_CONTEXT,TEXTC);

     21 13 000000   000000 700200 xent  VMS$FMT_SEL* TSX0  ! X66_AUTO_2
        13 000001   000020 000002                    ZERO    16,2

      744       22        /***** Include files *****/
      745       23          %INCLUDE CP_6;
      746     5582          %INCLUDE CP_6_SUBS;
      747     6122          %INCLUDE VM_MACRO_C;
      748     7390          %INCLUDE VM_SUBS_C;
      749     7650          %INCLUDE VM_PERR_C;
      750     7945          %INCLUDE VM_DATA_R;
      751     8376        /***** Parameters *****/
      752     8377          %VM_CONTEXT (STCLASS=" ");
      753     8410          %TEXTC (NAME=TEXTC,STCLASS=" ");
      754     8415        /***** Local variables *****/
PL6.E3A0      #003=VMS$FMT_SELECT File=VMS$SELECT.:VMB6TSI                       WED 08/20/97 15:25 Page:134
      755     8416    1   DCL INDX1 SBIN WORD AUTO;
      756     8417    1   DCL INDX2 SBIN WORD AUTO;
      757     8418    1   DCL INDX3 SBIN WORD AUTO;
      758     8419    1   DCL CHARPOS SBIN WORD AUTO;
      759     8420    1   DCL CONVERT_BUF CHAR(12) AUTO;
      760     8421        /***** External routines *****/
      761     8422    1   DCL VMS$FMT_EXP ENTRY(3);
      762     8423        %INIT_STR (DODCL=YES);
      763     8446       %VLP_NAME (FPTN=VM_CHAR_ERROR_MSG, LEN=15, L=15, NAME=' ', STCLASS="STATIC SYMDEF");
      764     8473        %VLP_ERRCODE (FPTN=E_CHAR_ERROR_MSG,   STCLASS="CONSTANT SYMDEF",
      765     8474                       ERR#=%E$CHAR_ERROR_MSG,           FCG=VM,MID=S);
      766     8519        /*E*  ERROR:VMS-E$CHAR_ERROR_MSG-0
      767     8520              MESSAGE:***** Error *****
      768     8521        */
      769     8522              %VLP_NAMEV(FPTN=VM_CHAR_NEXT,    STCLASS=SYMREF);
      770     8529        %VLP_NAMEV(FPTN=VM_CHAR_PREVIOUS,      STCLASS=SYMREF);
      771     8536        %VLP_NAMEV(FPTN=VM_CHAR_WHEN,          STCLASS=SYMREF);
      772     8543        %VLP_ERRCODE (FPTN=E_CHAR_WHEN,        STCLASS="SYMREF READONLY");
      773     8588              %VLP_ERRCODE (FPTN=E_CHAR_NEXT,  STCLASS="SYMREF READONLY");
      774     8633              %VLP_ERRCODE (FPTN=E_CHAR_PREVIOUS, STCLASS="SYMREF READONLY");
      775     8678        %EJECT;
PL6.E3A0      #003=VMS$FMT_SELECT File=VMS$SELECT.:VMB6TSI                       WED 08/20/97 15:25 Page:135
      776     8679        /*
      777     8680             ***** Initialization ...
      778     8681        */
      779     8682    1         TEXTC.TEXT = ' ';

   8682 13 000002   200004 470500                    LDP0    @TEXTC,,AUTO
        13 000003   000100 101500                    MRL     fill='000'O
        13 000004   000000 000001                    ADSC9   0,,PR0                   cn=0,n=1
        13 000005   200014 000002                    ADSC9   CONVERT_BUF+3,,AUTO      cn=0,n=2
        13 000006   200014 220100                    LDX0    CONVERT_BUF+3,,AUTO
        13 000007   040140 100400                    MLR     fill='040'O
        13 000010   000000 000001 14                 ADSC9   0                        cn=0,n=1
        13 000011   000000 200010                    ADSC9   0,,PR0                   cn=1,n=*X0

      780     8683    1       CHARPOS = 0;

   8683 13 000012   200010 450100                    STZ     CHARPOS,,AUTO

      781     8684        /*
      782     8685             ***** If next or previous specified, then
      783     8686                   only display that ...
      784     8687        */
      785     8688    1       IF VM_CONTEXT.FLAGS ~= '0'B

   8688 13 000013   200003 471500                    LDP1    @VM_CONTEXT,,AUTO
        13 000014   100004 235100                    LDA     4,,PR1
        13 000015   000126 600000 13                 TZE     s:8755

      786     8689    1       THEN
      787     8690    2       DO;

      788     8691    2           IF VM_CONTEXT.FLAGS.PREV

   8691 13 000016   100004 236100                    LDQ     4,,PR1
        13 000017   100000 316003                    CANQ    32768,DU
        13 000020   000061 600000 13                 TZE     s:8720

PL6.E3A0      #003=VMS$FMT_SELECT File=VMS$SELECT.:VMB6TSI                       WED 08/20/97 15:25 Page:136
      789     8692    2           THEN
      790     8693    3           DO;

      791     8694                    %INIT_STR (CODE=E_CHAR_PREVIOUS, STR=VM_CHAR_PREVIOUS, TEST=YES);

   8701 13 000021   000000 236000 xsym               LDQ     VM_CHAR_PREVIOUS
        13 000022   000033 772000                    QRL     27
        13 000023   000000 620006                    EAX0    0,QL
        13 000024   040000 106440                    CMPC    fill='040'O
        13 000025   000000 200010 xsym               ADSC9   VM_CHAR_PREVIOUS         cn=1,n=*X0
        13 000026   000000 000001 14                 ADSC9   0                        cn=0,n=1
        13 000027   000034 601000 13                 TNZ     s:8717

   8703 13 000030   000002 630400 14                 EPPR0   2
        13 000031   000001 631400 14                 EPPR1   1
        13 000032   000000 701000 xent               TSX1    VMD$ERRMSG
        13 000033   000000 011000                    NOP     0

      792     8717    3               substr(TEXTC.TEXT,CHARPOS)=VM_CHAR_PREVIOUS.NAME#;

   8717 13 000034   200004 470500                    LDP0    @TEXTC,,AUTO
        13 000035   000100 101500                    MRL     fill='000'O
        13 000036   000000 000001                    ADSC9   0,,PR0                   cn=0,n=1
        13 000037   200014 000002                    ADSC9   CONVERT_BUF+3,,AUTO      cn=0,n=2
        13 000040   200014 220100                    LDX0    CONVERT_BUF+3,,AUTO
        13 000041   000000 636010                    EAQ     0,X0
        13 000042   000022 772000                    QRL     18
        13 000043   200010 136100                    SBLQ    CHARPOS,,AUTO
        13 000044   200015 756100                    STQ     CONVERT_BUF+4,,AUTO
        13 000045   000000 236000 xsym               LDQ     VM_CHAR_PREVIOUS
        13 000046   000033 772000                    QRL     27
        13 000047   000000 621006                    EAX1    0,QL
        13 000050   200015 722100                    LXL2    CONVERT_BUF+4,,AUTO
        13 000051   200010 235100                    LDA     CHARPOS,,AUTO
        13 000052   040145 100440                    MLR     fill='040'O
        13 000053   000000 200011 xsym               ADSC9   VM_CHAR_PREVIOUS         cn=1,n=*X1
        13 000054   000000 200012                    ADSC9   0,A,PR0                  cn=1,n=*X2
PL6.E3A0      #003=VMS$FMT_SELECT File=VMS$SELECT.:VMB6TSI                       WED 08/20/97 15:25 Page:137

      793     8718    3               CHARPOS = CHARPOS + VM_CHAR_PREVIOUS.L#;

   8718 13 000055   000000 236000 xsym               LDQ     VM_CHAR_PREVIOUS
        13 000056   000033 772000                    QRL     27
        13 000057   200010 036100                    ADLQ    CHARPOS,,AUTO
        13 000060   200010 756100                    STQ     CHARPOS,,AUTO

      794     8719    3           END;

      795     8720    2           IF VM_CONTEXT.FLAGS.NEXT

   8720 13 000061   200003 471500                    LDP1    @VM_CONTEXT,,AUTO
        13 000062   100004 236100                    LDQ     4,,PR1
        13 000063   200000 316003                    CANQ    65536,DU
        13 000064   000125 600000 13                 TZE     s:8749

      796     8721    2           THEN
      797     8722    3           DO;

      798     8723                    %INIT_STR (CODE=E_CHAR_NEXT, STR=VM_CHAR_NEXT, TEST=YES);

   8730 13 000065   000000 236000 xsym               LDQ     VM_CHAR_NEXT
        13 000066   000033 772000                    QRL     27
        13 000067   000000 620006                    EAX0    0,QL
        13 000070   040000 106440                    CMPC    fill='040'O
        13 000071   000000 200010 xsym               ADSC9   VM_CHAR_NEXT             cn=1,n=*X0
        13 000072   000000 000001 14                 ADSC9   0                        cn=0,n=1
        13 000073   000100 601000 13                 TNZ     s:8746

   8732 13 000074   000004 630400 14                 EPPR0   4
        13 000075   000001 631400 14                 EPPR1   1
        13 000076   000000 701000 xent               TSX1    VMD$ERRMSG
        13 000077   000000 011000                    NOP     0

      799     8746    3               substr(TEXTC.TEXT,CHARPOS)=VM_CHAR_NEXT.NAME#;

PL6.E3A0      #003=VMS$FMT_SELECT File=VMS$SELECT.:VMB6TSI                       WED 08/20/97 15:25 Page:138
   8746 13 000100   200004 470500                    LDP0    @TEXTC,,AUTO
        13 000101   000100 101500                    MRL     fill='000'O
        13 000102   000000 000001                    ADSC9   0,,PR0                   cn=0,n=1
        13 000103   200014 000002                    ADSC9   CONVERT_BUF+3,,AUTO      cn=0,n=2
        13 000104   200014 220100                    LDX0    CONVERT_BUF+3,,AUTO
        13 000105   000000 636010                    EAQ     0,X0
        13 000106   000022 772000                    QRL     18
        13 000107   200010 136100                    SBLQ    CHARPOS,,AUTO
        13 000110   200015 756100                    STQ     CONVERT_BUF+4,,AUTO
        13 000111   000000 236000 xsym               LDQ     VM_CHAR_NEXT
        13 000112   000033 772000                    QRL     27
        13 000113   000000 621006                    EAX1    0,QL
        13 000114   200015 722100                    LXL2    CONVERT_BUF+4,,AUTO
        13 000115   200010 235100                    LDA     CHARPOS,,AUTO
        13 000116   040145 100440                    MLR     fill='040'O
        13 000117   000000 200011 xsym               ADSC9   VM_CHAR_NEXT             cn=1,n=*X1
        13 000120   000000 200012                    ADSC9   0,A,PR0                  cn=1,n=*X2

      800     8747    3               CHARPOS = CHARPOS + VM_CHAR_NEXT.L#;

   8747 13 000121   000000 236000 xsym               LDQ     VM_CHAR_NEXT
        13 000122   000033 772000                    QRL     27
        13 000123   200010 036100                    ADLQ    CHARPOS,,AUTO
        13 000124   200010 756100                    STQ     CHARPOS,,AUTO

      801     8748    3           END;

      802     8749    2           GOTO BUILD_EXP;

   8749 13 000125   000314 710000 13                 TRA     BUILD_EXP

      803     8750    2       END;
      804     8751        %EJECT;
PL6.E3A0      #003=VMS$FMT_SELECT File=VMS$SELECT.:VMB6TSI                       WED 08/20/97 15:25 Page:139
      805     8752        /*
      806     8753             ***** Build the message set text ...
      807     8754        */
      808     8755    2       DO INDX1 = 0 TO VM_CONTEXT.NUM_ENTRIES - 1;

   8755 13 000126   200005 450100                    STZ     INDX1,,AUTO
        13 000127   000310 710000 13                 TRA     s:8796+1

      809     8756    2           CALL BINCHAR (CONVERT_BUF,VM_CONTEXT.MESSAGE_SET.LOW(INDX1));

   8756 13 000130   200005 235100                    LDA     INDX1,,AUTO
        13 000131   000003 735000                    ALS     3
        13 000132   200003 470500                    LDP0    @VM_CONTEXT,,AUTO
        13 000133   000100 301505                    BTD
        13 000134   000005 000004                    NDSC9   5,A,PR0                  cn=0,s=lsgnf,sf=0,n=4
        13 000135   200011 030014                    NDSC9   CONVERT_BUF,,AUTO        cn=0,s=nosgn,sf=0,n=12

      810     8757        /*
      811     8758             ***** Strip leading blanks ...
      812     8759        */
      813     8760    3           DO INDX2 = 0 TO LENGTHC(CONVERT_BUF) - 1;

   8760 13 000136   200006 450100                    STZ     INDX2,,AUTO
        13 000137   000146 710000 13                 TRA     s:8764+1

      814     8761    3               IF SUBSTR(CONVERT_BUF,INDX2,1) ~= '0'

   8761 13 000140   200006 235100                    LDA     INDX2,,AUTO
        13 000141   040000 106505                    CMPC    fill='040'O
        13 000142   200011 000001                    ADSC9   CONVERT_BUF,A,AUTO       cn=0,n=1
        13 000143   000006 000001 14                 ADSC9   6                        cn=0,n=1
        13 000144   000153 601000 13                 TNZ     INSERT_LOW

      815     8762    3               THEN
      816     8763    3                   GOTO INSERT_LOW;
      817     8764    3           END;

PL6.E3A0      #003=VMS$FMT_SELECT File=VMS$SELECT.:VMB6TSI                       WED 08/20/97 15:25 Page:140
   8764 13 000145   200006 054100                    AOS     INDX2,,AUTO
        13 000146   200006 235100                    LDA     INDX2,,AUTO
        13 000147   000013 115007                    CMPA    11,DL
        13 000150   000140 604400 13                 TMOZ    s:8761

      818     8765    2           INDX2 = LENGTHC(CONVERT_BUF) - 1;

   8765 13 000151   000013 236007                    LDQ     11,DL
        13 000152   200006 756100                    STQ     INDX2,,AUTO

      819     8766    2   INSERT_LOW:
      820     8767    2           INDX3 = LENGTHC(CONVERT_BUF) - INDX2;

   8767 13 000153   000014 235007       INSERT_LOW   LDA     12,DL
        13 000154   200006 135100                    SBLA    INDX2,,AUTO
        13 000155   200007 755100                    STA     INDX3,,AUTO

      821     8768    2           CALL INSERT (TEXTC.TEXT,CHARPOS,,SUBSTR(CONVERT_BUF,INDX2,INDX3));

   8768 13 000156   200004 470500                    LDP0    @TEXTC,,AUTO
        13 000157   000100 101500                    MRL     fill='000'O
        13 000160   000000 000001                    ADSC9   0,,PR0                   cn=0,n=1
        13 000161   200014 000002                    ADSC9   CONVERT_BUF+3,,AUTO      cn=0,n=2
        13 000162   200014 220100                    LDX0    CONVERT_BUF+3,,AUTO
        13 000163   000000 636010                    EAQ     0,X0
        13 000164   000022 772000                    QRL     18
        13 000165   200010 136100                    SBLQ    CHARPOS,,AUTO
        13 000166   000000 621005                    EAX1    0,AL
        13 000167   200006 235100                    LDA     INDX2,,AUTO
        13 000170   000000 622006                    EAX2    0,QL
        13 000171   200010 236100                    LDQ     CHARPOS,,AUTO
        13 000172   040146 100545                    MLR     fill='040'O
        13 000173   200011 000011                    ADSC9   CONVERT_BUF,A,AUTO       cn=0,n=*X1
        13 000174   000000 200012                    ADSC9   0,Q,PR0                  cn=1,n=*X2

      822     8769    2           CHARPOS = CHARPOS + INDX3;

PL6.E3A0      #003=VMS$FMT_SELECT File=VMS$SELECT.:VMB6TSI                       WED 08/20/97 15:25 Page:141
   8769 13 000175   200010 236100                    LDQ     CHARPOS,,AUTO
        13 000176   200007 036100                    ADLQ    INDX3,,AUTO
        13 000177   200010 756100                    STQ     CHARPOS,,AUTO

      823     8770        /*
      824     8771             ***** Range ???
      825     8772        */
      826     8773    2           IF VM_CONTEXT.MESSAGE_SET.HIGH(INDX1) ~=

   8773 13 000200   200005 235100                    LDA     INDX1,,AUTO
        13 000201   000001 735000                    ALS     1
        13 000202   200003 471500                    LDP1    @VM_CONTEXT,,AUTO
        13 000203   100006 236105                    LDQ     6,AL,PR1
        13 000204   100005 116105                    CMPQ    5,AL,PR1
        13 000205   000265 600000 13                 TZE     s:8790

      827     8774    2             VM_CONTEXT.MESSAGE_SET.LOW(INDX1)
      828     8775    2           THEN
      829     8776    3           DO;

      830     8777    3               CALL BINCHAR (CONVERT_BUF,VM_CONTEXT.MESSAGE_SET.HIGH(INDX1));

   8777 13 000206   200005 235100                    LDA     INDX1,,AUTO
        13 000207   000003 735000                    ALS     3
        13 000210   000100 301505                    BTD
        13 000211   100006 000004                    NDSC9   6,A,PR1                  cn=0,s=lsgnf,sf=0,n=4
        13 000212   200011 030014                    NDSC9   CONVERT_BUF,,AUTO        cn=0,s=nosgn,sf=0,n=12

      831     8778    4               DO INDX2 = 0 TO LENGTHC(CONVERT_BUF) - 1;

   8778 13 000213   200006 450100                    STZ     INDX2,,AUTO
        13 000214   000223 710000 13                 TRA     s:8782+1

      832     8779    4                   IF SUBSTR(CONVERT_BUF,INDX2,1) ~= '0'

   8779 13 000215   200006 235100                    LDA     INDX2,,AUTO
        13 000216   040000 106505                    CMPC    fill='040'O
PL6.E3A0      #003=VMS$FMT_SELECT File=VMS$SELECT.:VMB6TSI                       WED 08/20/97 15:25 Page:142
        13 000217   200011 000001                    ADSC9   CONVERT_BUF,A,AUTO       cn=0,n=1
        13 000220   000006 000001 14                 ADSC9   6                        cn=0,n=1
        13 000221   000230 601000 13                 TNZ     INSERT_HIGH

      833     8780    4                   THEN
      834     8781    4                       GOTO INSERT_HIGH;
      835     8782    4               END;

   8782 13 000222   200006 054100                    AOS     INDX2,,AUTO
        13 000223   200006 235100                    LDA     INDX2,,AUTO
        13 000224   000013 115007                    CMPA    11,DL
        13 000225   000215 604400 13                 TMOZ    s:8779

      836     8783    3               INDX2 = LENGTHC(CONVERT_BUF) - 1;

   8783 13 000226   000013 236007                    LDQ     11,DL
        13 000227   200006 756100                    STQ     INDX2,,AUTO

      837     8784    3   INSERT_HIGH:
      838     8785    3               INDX3 = LENGTHC(CONVERT_BUF) - INDX2;

   8785 13 000230   000014 235007       INSERT_HIGH  LDA     12,DL
        13 000231   200006 135100                    SBLA    INDX2,,AUTO
        13 000232   200007 755100                    STA     INDX3,,AUTO

      839     8786    3               CALL INSERT (TEXTC.TEXT,CHARPOS,,'-',

   8786 13 000233   200004 470500                    LDP0    @TEXTC,,AUTO
        13 000234   000100 101500                    MRL     fill='000'O
        13 000235   000000 000001                    ADSC9   0,,PR0                   cn=0,n=1
        13 000236   200014 000002                    ADSC9   CONVERT_BUF+3,,AUTO      cn=0,n=2
        13 000237   200014 220100                    LDX0    CONVERT_BUF+3,,AUTO
        13 000240   000000 636010                    EAQ     0,X0
        13 000241   000022 772000                    QRL     18
        13 000242   200010 136100                    SBLQ    CHARPOS,,AUTO
        13 000243   000000 621006                    EAX1    0,QL
        13 000244   200010 235100                    LDA     CHARPOS,,AUTO
PL6.E3A0      #003=VMS$FMT_SELECT File=VMS$SELECT.:VMB6TSI                       WED 08/20/97 15:25 Page:143
        13 000245   040145 100400                    MLR     fill='040'O
        13 000246   000007 000001 14                 ADSC9   7                        cn=0,n=1
        13 000247   000000 200011                    ADSC9   0,A,PR0                  cn=1,n=*X1
        13 000250   000001 116007                    CMPQ    1,DL
        13 000251   000261 604400 13                 TMOZ    s:8788
        13 000252   777777 621006                    EAX1    -1,QL
        13 000253   200007 722100                    LXL2    INDX3,,AUTO
        13 000254   200006 235100                    LDA     INDX2,,AUTO
        13 000255   200010 236100                    LDQ     CHARPOS,,AUTO
        13 000256   040146 100545                    MLR     fill='040'O
        13 000257   200011 000012                    ADSC9   CONVERT_BUF,A,AUTO       cn=0,n=*X2
        13 000260   000000 400011                    ADSC9   0,Q,PR0                  cn=2,n=*X1

      840     8787    3                 SUBSTR(CONVERT_BUF,INDX2,INDX3));
      841     8788    3               CHARPOS = CHARPOS + LENGTHC('-') + INDX3;

   8788 13 000261   200010 236100                    LDQ     CHARPOS,,AUTO
        13 000262   200007 036100                    ADLQ    INDX3,,AUTO
        13 000263   000001 036007                    ADLQ    1,DL
        13 000264   200010 756100                    STQ     CHARPOS,,AUTO

      842     8789    3           END;

      843     8790    2           IF INDX1 ~= VM_CONTEXT.NUM_ENTRIES -1

   8790 13 000265   200003 471500                    LDP1    @VM_CONTEXT,,AUTO
        13 000266   100002 236100                    LDQ     2,,PR1
        13 000267   000001 136007                    SBLQ    1,DL
        13 000270   200005 116100                    CMPQ    INDX1,,AUTO
        13 000271   000307 600000 13                 TZE     s:8796

      844     8791    2           THEN                       /* More to come */
      845     8792    3           DO;                      /* Add a comma */

      846     8793    3               CALL INSERT (TEXTC.TEXT,CHARPOS,,',');

   8793 13 000272   000100 101500                    MRL     fill='000'O
PL6.E3A0      #003=VMS$FMT_SELECT File=VMS$SELECT.:VMB6TSI                       WED 08/20/97 15:25 Page:144
        13 000273   000000 000001                    ADSC9   0,,PR0                   cn=0,n=1
        13 000274   200014 000002                    ADSC9   CONVERT_BUF+3,,AUTO      cn=0,n=2
        13 000275   200014 220100                    LDX0    CONVERT_BUF+3,,AUTO
        13 000276   000000 636010                    EAQ     0,X0
        13 000277   000022 772000                    QRL     18
        13 000300   200010 136100                    SBLQ    CHARPOS,,AUTO
        13 000301   000000 621006                    EAX1    0,QL
        13 000302   200010 235100                    LDA     CHARPOS,,AUTO
        13 000303   040145 100400                    MLR     fill='040'O
        13 000304   000010 000001 14                 ADSC9   8                        cn=0,n=1
        13 000305   000000 200011                    ADSC9   0,A,PR0                  cn=1,n=*X1

      847     8794    3               CHARPOS = CHARPOS + LENGTHC(',');

   8794 13 000306   200010 054100                    AOS     CHARPOS,,AUTO

      848     8795    3           END;

      849     8796    2       END;                            /* Do INDX1 = ... end */

   8796 13 000307   200005 054100                    AOS     INDX1,,AUTO
        13 000310   200005 236100                    LDQ     INDX1,,AUTO
        13 000311   000130 604000 13                 TMI     s:8756
        13 000312   100002 116100                    CMPQ    2,,PR1
        13 000313   000130 602000 13                 TNC     s:8756

      850     8797        /*
      851     8798             ***** Now build the truth expression ...
      852     8799        */
      853     8800    1   BUILD_EXP:
      854     8801    1       IF VM_CONTEXT.TRUTH_TREE$ ~= ADDR(NIL)

   8801 13 000314   200003 471500       BUILD_EXP    LDP1    @VM_CONTEXT,,AUTO
        13 000315   100001 236100                    LDQ     1,,PR1
        13 000316   000011 116000 14                 CMPQ    9
        13 000317   000373 600000 13                 TZE     s:8831

PL6.E3A0      #003=VMS$FMT_SELECT File=VMS$SELECT.:VMB6TSI                       WED 08/20/97 15:25 Page:145
      855     8802    1       THEN
      856     8803    2       DO;

      857     8804                %INIT_STR (CODE=E_CHAR_WHEN, STR=VM_CHAR_WHEN, TEST=YES);

   8811 13 000320   000000 236000 xsym               LDQ     VM_CHAR_WHEN
        13 000321   000033 772000                    QRL     27
        13 000322   000000 620006                    EAX0    0,QL
        13 000323   040000 106440                    CMPC    fill='040'O
        13 000324   000000 200010 xsym               ADSC9   VM_CHAR_WHEN             cn=1,n=*X0
        13 000325   000000 000001 14                 ADSC9   0                        cn=0,n=1
        13 000326   000333 601000 13                 TNZ     s:8827

   8813 13 000327   000012 630400 14                 EPPR0   10
        13 000330   000001 631400 14                 EPPR1   1
        13 000331   000000 701000 xent               TSX1    VMD$ERRMSG
        13 000332   000000 011000                    NOP     0

      858     8827    2           substr(TEXTC.TEXT,CHARPOS) = VM_CHAR_WHEN.NAME#;

   8827 13 000333   200004 470500                    LDP0    @TEXTC,,AUTO
        13 000334   000100 101500                    MRL     fill='000'O
        13 000335   000000 000001                    ADSC9   0,,PR0                   cn=0,n=1
        13 000336   200014 000002                    ADSC9   CONVERT_BUF+3,,AUTO      cn=0,n=2
        13 000337   200014 220100                    LDX0    CONVERT_BUF+3,,AUTO
        13 000340   000000 636010                    EAQ     0,X0
        13 000341   000022 772000                    QRL     18
        13 000342   200010 136100                    SBLQ    CHARPOS,,AUTO
        13 000343   200015 756100                    STQ     CONVERT_BUF+4,,AUTO
        13 000344   000000 236000 xsym               LDQ     VM_CHAR_WHEN
        13 000345   000033 772000                    QRL     27
        13 000346   000000 621006                    EAX1    0,QL
        13 000347   200015 722100                    LXL2    CONVERT_BUF+4,,AUTO
        13 000350   200010 235100                    LDA     CHARPOS,,AUTO
        13 000351   040145 100440                    MLR     fill='040'O
        13 000352   000000 200011 xsym               ADSC9   VM_CHAR_WHEN             cn=1,n=*X1
        13 000353   000000 200012                    ADSC9   0,A,PR0                  cn=1,n=*X2
PL6.E3A0      #003=VMS$FMT_SELECT File=VMS$SELECT.:VMB6TSI                       WED 08/20/97 15:25 Page:146

      859     8828    2           CHARPOS = CHARPOS + VM_CHAR_WHEN.L#;

   8828 13 000354   000000 236000 xsym               LDQ     VM_CHAR_WHEN
        13 000355   000033 772000                    QRL     27
        13 000356   200010 036100                    ADLQ    CHARPOS,,AUTO
        13 000357   200010 756100                    STQ     CHARPOS,,AUTO

      860     8829    2           CALL VMS$FMT_EXP (VM_CONTEXT.TRUTH_TREE$,TEXTC,CHARPOS);

   8829 13 000360   200010 631500                    EPPR1   CHARPOS,,AUTO
        13 000361   200016 451500                    STP1    CONVERT_BUF+5,,AUTO
        13 000362   200004 236100                    LDQ     @TEXTC,,AUTO
        13 000363   200015 756100                    STQ     CONVERT_BUF+4,,AUTO
        13 000364   200003 236100                    LDQ     @VM_CONTEXT,,AUTO
        13 000365   000001 036003                    ADLQ    1,DU
        13 000366   200014 756100                    STQ     CONVERT_BUF+3,,AUTO
        13 000367   200014 630500                    EPPR0   CONVERT_BUF+3,,AUTO
        13 000370   000014 631400 14                 EPPR1   12
        13 000371   000000 701000 xent               TSX1    VMS$FMT_EXP
        13 000372   000000 011000                    NOP     0

      861     8830    2       END;

      862     8831    1       IF CHARPOS > 511

   8831 13 000373   200010 235100                    LDA     CHARPOS,,AUTO
        13 000374   000777 115007                    CMPA    511,DL
        13 000375   000422 604400 13                 TMOZ    s:8861

      863     8832    1       THEN
      864     8833    2       DO;

      865     8834                %INIT_STR (CODE=E_CHAR_ERROR_MSG, STR=VM_CHAR_ERROR_MSG, TEST=YES);

   8841 13 000376   040000 106400                    CMPC    fill='040'O
        13 000377   000000 200017 11                 ADSC9   VM_CHAR_ERROR_MSG        cn=1,n=15
PL6.E3A0      #003=VMS$FMT_SELECT File=VMS$SELECT.:VMB6TSI                       WED 08/20/97 15:25 Page:147
        13 000400   000000 000001 14                 ADSC9   0                        cn=0,n=1
        13 000401   000406 601000 13                 TNZ     s:8857

   8843 13 000402   000015 630400 14                 EPPR0   13
        13 000403   000001 631400 14                 EPPR1   1
        13 000404   000000 701000 xent               TSX1    VMD$ERRMSG
        13 000405   000000 011000                    NOP     0

      866     8857    2           TEXTC.TEXT= VM_CHAR_ERROR_MSG.NAME#;

   8857 13 000406   200004 470500                    LDP0    @TEXTC,,AUTO
        13 000407   000100 101500                    MRL     fill='000'O
        13 000410   000000 000001                    ADSC9   0,,PR0                   cn=0,n=1
        13 000411   200014 000002                    ADSC9   CONVERT_BUF+3,,AUTO      cn=0,n=2
        13 000412   200014 220100                    LDX0    CONVERT_BUF+3,,AUTO
        13 000413   040140 100400                    MLR     fill='040'O
        13 000414   000000 200017 11                 ADSC9   VM_CHAR_ERROR_MSG        cn=1,n=15
        13 000415   000000 200010                    ADSC9   0,,PR0                   cn=1,n=*X0

      867     8858    2           TEXTC.SIZ = VM_CHAR_ERROR_MSG.L#;

   8858 13 000416   000100 100400                    MLR     fill='000'O
        13 000417   000000 000001 11                 ADSC9   VM_CHAR_ERROR_MSG        cn=0,n=1
        13 000420   000000 000001                    ADSC9   0,,PR0                   cn=0,n=1

      868     8859    2       END;

   8859 13 000421   000426 710000 13                 TRA     s:8862

      869     8860    1       ELSE
      870     8861    1           TEXTC.SIZ = CHARPOS;

   8861 13 000422   200004 470500                    LDP0    @TEXTC,,AUTO
        13 000423   000100 101500                    MRL     fill='000'O
        13 000424   200010 000004                    ADSC9   CHARPOS,,AUTO            cn=0,n=4
        13 000425   000000 000001                    ADSC9   0,,PR0                   cn=0,n=1

PL6.E3A0      #003=VMS$FMT_SELECT File=VMS$SELECT.:VMB6TSI                       WED 08/20/97 15:25 Page:148
      871     8862    1       RETURN;

   8862 13 000426   000000 702200 xent               TSX2  ! X66_ARET

VM_CHAR_ERROR_MSG
 Sect OctLoc
  11     000   017040 040040   040040 040040   040040 040040   040040 040040    .

E_CHAR_ERROR_MSG
 Sect OctLoc
  12     000   261523 022600                                                    ....

(unnamed)
 Sect OctLoc
  14     000   040040 040040   000002 000000   000000 006000   000000 006000        ............
  14     004   000000 006000   000000 006000   060040 040040   055040 040040    ........0   -
  14     010   054040 040040   000000 006014   000000 006000   000000 006000    ,   ............
  14     014   000003 000000   000000 006000   000000 006000                    ............
      872     8863    1   END VMS$FMT_SELECT;
      873     8864        %EOD;

PL6.E3A0      #003=VMS$FMT_SELECT File=VMS$SELECT.:VMB6TSI                       WED 08/20/97 15:25 Page:149
--  Include file information  --

   B_MACROS_C.:LIB_E05  is referenced.
   VM_DATA_R.:VMB6TOU  cannot be made into a system file and is referenced.
   VM_PERR_C.:VMB6TOU  is referenced.
   VM_SUBS_C.:VMB6TOU  is referenced.
   VM_MACRO_C.:VMB6TOU  is referenced.
   CP_6_SUBS.:LIB_E05  is referenced.
   CP_6_C.:LIB_E05  is referenced.
   CP_6.:LIB_E05  cannot be made into a system file and is referenced.
      No diagnostics issued in procedure VMS$FMT_SELECT.
PL6.E3A0      #003=VMS$FMT_SELECT File=VMS$SELECT.:VMB6TSI                       WED 08/20/97 15:25 Page:150

 **** Variables and constants ****

  ****  Section 011  Data  VMS$FMT_SELECT

  ****  Scalars and arrays  ****
OctLoc.c.b A Datatyp(siz) R M Lvl/name                 OctLoc.c.b A Datatyp(siz) R M Lvl/name

     0-0-0/c STRC(144)   r     1 VM_CHAR_ERROR_MSG

  ****  Section 012 RoData VMS$FMT_SELECT

  ****  Scalars and arrays  ****
OctLoc.c.b A Datatyp(siz) R M Lvl/name                 OctLoc.c.b A Datatyp(siz) R M Lvl/name

     0-0-0/w STRC        r     1 E_CHAR_ERROR_MSG

  ****  Auto variables  ****

  ****  Scalars and arrays  ****
OctLoc.c.b A Datatyp(siz) R M Lvl/name                 OctLoc.c.b A Datatyp(siz) R M Lvl/name

     4-0-0/w PTR         r     1 @TEXTC                     3-0-0/w PTR         r     1 @VM_CONTEXT
    10-0-0/w SBIN        r     1 CHARPOS                   11-0-0/c CHAR(12)    r     1 CONVERT_BUF
     5-0-0/w SBIN        r     1 INDX1                      6-0-0/w SBIN        r     1 INDX2
     7-0-0/w SBIN        r     1 INDX3                     *0-0-0/c ASTR(9)     r     1 TEXTC
    *0-0-0/w STRC(252)   r     1 VM_CONTEXT

  ****  SYMREF variables  ****

  ****  Scalars and arrays  ****
OctLoc.c.b A Datatyp(siz) R M Lvl/name                 OctLoc.c.b A Datatyp(siz) R M Lvl/name

     0-0-0/w PTR               1 B$JIT$                     0-0-0/w PTR               1 B$TCB$
     0-0-0/c ASTR(9)     r     1 ERRMSG_FID                 0-0-0/w STRC        r     1 E_CHAR_NEXT
     0-0-0/w STRC        r     1 E_CHAR_PREVIOUS            0-0-0/w STRC        r     1 E_CHAR_WHEN
     0-0-0/w UBIN              1 M$DO_NUM                   0-0-0/w UBIN              1 M$LO_NUM
     0-0-0/w UBIN              1 M$MAIL_CENTRAL_NUM         0-0-0/w UBIN              1 M$MAIL_COMGROUP_NUM
PL6.E3A0      #003=VMS$FMT_SELECT File=VMS$SELECT.:VMB6TSI                       WED 08/20/97 15:25 Page:151
     0-0-0/w UBIN              1 M$MAIL_FILE_NUM            0-0-0/w UBIN              1 M$MAIL_GLOBAL_NUM
     0-0-0/w UBIN              1 M$ME_NUM                   0-0-0/w UBIN              1 M$NODE_NUM
     0-0-0/w UBIN              1 M$SI_NUM                   0-0-0/w UBIN              1 M$WORK_NUM
     0-0-0/w PTR               1 VM_ADDLIST$                0-0-0/d VECT              1 VM_ADDLIST_
     0-0-0/w PTR               1 VM_ADDREC$                 0-0-0/d VECT              1 VM_ADDREC_
     0-0-0/c ASTR(9)     r     1 VM_CHAR_NEXT               0-0-0/c ASTR(9)     r     1 VM_CHAR_PREVIOUS
     0-0-0/c ASTR(9)     r     1 VM_CHAR_WHEN               0-0-0/w PTR               1 VM_COPY$
     0-0-0/d VECT              1 VM_COPY_                   0-0-0/w PTR               1 VM_ENCLLIST$
     0-0-0/d VECT              1 VM_ENCLLIST_               0-0-0/w PTR               1 VM_ENCLREC$
     0-0-0/d VECT              1 VM_ENCLREC_                0-0-0/c STRC(270)         1 VM_FORWARD_ENCL_NAME
     0-0-0/c STRC(270)         1 VM_FORWARD_FILE_NAME       0-0-0/c STRC(72)          1 VM_FORWARD_FILE_PASS
     0-0-0/w PTR               1 VM_HEADER$                 0-0-0/d VECT              1 VM_HEADER_
     0-0-0/d VECT              1 VM_HEADER_INIT_            0-0-0/w PTR               1 VM_INPUT$
     0-0-0/d VECT              1 VM_INPUT_                  0-0-0/c STRC(72)          1 VM_MAILCG_NAME
     0-0-0/w STRC(432)         1 VM_MAILCG_SETSTA           0-0-0/c STRC(72)          1 VM_MAIL_ACCT
     0-0-0/c STRC(54)          1 VM_NAME_MAP_NAME           0-0-0/w PTR               1 VM_PARSEAREA$
     0-0-0/d VECT              1 VM_PARSEAREA_              0-0-0/w PTR               1 VM_PROFILE$
     0-0-0/d VECT              1 VM_PROFILE_                0-0-0/w PTR               1 VM_SELECT$
     0-0-0/d VECT              1 VM_SELECT_                 0-0-0/c STRC(288)         1 VM_SEND_FILE_NAME
     0-0-0/c CHAR(8)           1 VM_SITENAME                0-0-0/w PTR               1 VM_WORK$
     0-0-0/d VECT              1 VM_WORK_

  ****  BASED and DCB variables  ****

  ****  Scalars and arrays  ****
OctLoc.c.b A Datatyp(siz) R M Lvl/name                 OctLoc.c.b A Datatyp(siz) R M Lvl/name

     0-0-0N  NULL        r     1 M$DO                       0-0-0N  NULL        r     1 M$LO
     0-0-0N  NULL        r     1 M$MAIL_CENTRAL             0-0-0N  NULL        r     1 M$MAIL_COMGROUP
     0-0-0N  NULL        r     1 M$MAIL_FILE                0-0-0N  NULL        r     1 M$MAIL_GLOBAL
     0-0-0N  NULL        r     1 M$ME                       0-0-0N  NULL        r     1 M$NODE
     0-0-0N  NULL        r     1 M$SI                       0-0-0N  NULL        r     1 M$UC
     0-0-0N  NULL        r     1 M$WORK                     0-0-0/c ASTR(9)     r     1 X$STRING


   Procedure VMS$FMT_SELECT requires 279 words for executable code.
PL6.E3A0      #003=VMS$FMT_SELECT File=VMS$SELECT.:VMB6TSI                       WED 08/20/97 15:25 Page:152
   Procedure VMS$FMT_SELECT requires 16 words of local(AUTO) storage.
PL6.E3A0      #003=VMS$FMT_SELECT File=VMS$SELECT.:VMB6TSI                       WED 08/20/97 15:25 Page:153
          *** CROSS REFERENCE LISTING ***
**     DENOTES     IDENTIFIER DEFINITION
<<                 IDENTIFIER'S VALUE SET
>>                 IDENTIFIER'S VALUE USED
<>                 IDENTIFIER SET AND/OR USED
--                 IDENTIFIER REFERENCED
PL6.E3A0      #003=VMS$FMT_SELECT File=VMS$SELECT.:VMB6TSI                       WED 08/20/97 15:25 Page:154
          MINI XREF LISTING

BUILD_EXP
      8801**LABEL    8749--GOTO
CHARPOS
      8419**DCL      8683<<ASSIGN   8717>>ASSIGN   8718<<ASSIGN   8718>>ASSIGN   8746>>ASSIGN   8747<<ASSIGN
      8747>>ASSIGN   8768>>CALLBLT  8769<<ASSIGN   8769>>ASSIGN   8786>>CALLBLT  8788<<ASSIGN   8788>>ASSIGN
      8793>>CALLBLT  8794<<ASSIGN   8794>>ASSIGN   8827>>ASSIGN   8828<<ASSIGN   8828>>ASSIGN   8829<>CALL
      8831>>IF       8861>>ASSIGN
CONVERT_BUF
      8420**DCL      8756<<CALLBLT  8760--DOINDEX  8761>>IF       8765--ASSIGN   8767--ASSIGN   8768>>CALLBLT
      8777<<CALLBLT  8778--DOINDEX  8779>>IF       8783--ASSIGN   8785--ASSIGN   8786>>CALLBLT
ERRMSG_FID.L#
      8221**DCL      8221--IMP-SIZ
E_CHAR_ERROR_MSG
      8486**DCL      8843<>CALL
E_CHAR_NEXT
      8600**DCL      8732<>CALL
E_CHAR_PREVIOUS
      8645**DCL      8703<>CALL
E_CHAR_WHEN
      8555**DCL      8813<>CALL
INDX1
      8416**DCL      8755<<DOINDEX  8756>>CALLBLT  8773>>IF       8773>>IF       8777>>CALLBLT  8790>>IF
INDX2
      8417**DCL      8760<<DOINDEX  8761>>IF       8765<<ASSIGN   8767>>ASSIGN   8768>>CALLBLT  8778<<DOINDEX
      8779>>IF       8783<<ASSIGN   8785>>ASSIGN   8786>>CALLBLT
INDX3
      8418**DCL      8767<<ASSIGN   8768>>CALLBLT  8769>>ASSIGN   8785<<ASSIGN   8786>>CALLBLT  8788>>ASSIGN
INSERT_HIGH
      8785**LABEL    8781--GOTO
INSERT_LOW
      8767**LABEL    8763--GOTO
TEXTC
PL6.E3A0      #003=VMS$FMT_SELECT File=VMS$SELECT.:VMB6TSI                       WED 08/20/97 15:25 Page:155
      8411**DCL        21--PROC     8829<>CALL
TEXTC.SIZ
      8412**DCL      8413--IMP-SIZ  8682>>ASSIGN   8717>>ASSIGN   8746>>ASSIGN   8768>>CALLBLT  8786>>CALLBLT
      8793>>CALLBLT  8827>>ASSIGN   8829>>CALL     8857>>ASSIGN   8858<<ASSIGN   8861<<ASSIGN
TEXTC.TEXT
      8413**DCL      8682<<ASSIGN   8717<<ASSIGN   8746<<ASSIGN   8768<<CALLBLT  8786<<CALLBLT  8793<<CALLBLT
      8827<<ASSIGN   8857<<ASSIGN
VMD$ERRMSG
      8426**DCL-ENT  8703--CALL     8732--CALL     8813--CALL     8843--CALL
VMS$FMT_EXP
      8422**DCL-ENT  8829--CALL
VM_CHAR_ERROR_MSG
      8471**DCL      8843<>CALL
VM_CHAR_ERROR_MSG.L#
      8471**DCL      8858>>ASSIGN
VM_CHAR_ERROR_MSG.NAME#
      8471**DCL      8841>>IF       8857>>ASSIGN
VM_CHAR_NEXT
      8527**DCL      8732<>CALL
VM_CHAR_NEXT.L#
      8527**DCL      8527--IMP-SIZ  8730>>IF       8732>>CALL     8746>>ASSIGN   8747>>ASSIGN
VM_CHAR_NEXT.NAME#
      8527**DCL      8730>>IF       8746>>ASSIGN
VM_CHAR_PREVIOUS
      8534**DCL      8703<>CALL
VM_CHAR_PREVIOUS.L#
      8534**DCL      8534--IMP-SIZ  8701>>IF       8703>>CALL     8717>>ASSIGN   8718>>ASSIGN
VM_CHAR_PREVIOUS.NAME#
      8534**DCL      8701>>IF       8717>>ASSIGN
VM_CHAR_WHEN
      8541**DCL      8813<>CALL
VM_CHAR_WHEN.L#
      8541**DCL      8541--IMP-SIZ  8811>>IF       8813>>CALL     8827>>ASSIGN   8828>>ASSIGN
VM_CHAR_WHEN.NAME#
      8541**DCL      8811>>IF       8827>>ASSIGN
VM_CONTEXT
PL6.E3A0      #003=VMS$FMT_SELECT File=VMS$SELECT.:VMB6TSI                       WED 08/20/97 15:25 Page:156
      8387**DCL        21--PROC
VM_CONTEXT.FLAGS
      8396**DCL      8688>>IF
VM_CONTEXT.FLAGS.NEXT
      8399**DCL      8720>>IF
VM_CONTEXT.FLAGS.PREV
      8401**DCL      8691>>IF
VM_CONTEXT.MESSAGE_SET.HIGH
      8407**DCL      8773>>IF       8777>>CALLBLT
VM_CONTEXT.MESSAGE_SET.LOW
      8405**DCL      8756>>CALLBLT  8773>>IF
VM_CONTEXT.NUM_ENTRIES
      8392**DCL      8755>>DOINDEX  8790>>IF
VM_CONTEXT.TRUTH_TREE$
      8390**DCL      8801>>IF       8829<>CALL
X$STRING.SIZ
      8067**DCL      8068--IMP-SIZ

