
 14:59 08/20/97  FILE=VMX$BMAP.:VMB6TSI                                                                  1    BMAP - B00
                                         1  *M* VMX$BMAP - Miscellaneous BMAP routines
                                         2  *T***********************************************************
                                         3  *T*                                                         *
                                         4  *T* Copyright (c) Bull HN Information Systems Inc., 1997    *
                                         5  *T*                                                         *
                                         6  *T***********************************************************
                                         7  *X* NO
                                         8
                                         9  *P*NAME:   VMX$BMAP
                                        10  *,*PURPOSE:BMAP subroutines needed by the dialog manager.
                                        11  *
                                        12          ENTDEF      VMX$MRL
                                        13  *
                                        14          ENTREF      X66_PREGS_3

 14:59 08/20/97  FILE=VMX$BMAP.:VMB6TSI                                                                  2    BMAP - B00
                                        15          EJECT
                                        16  *F*NAME:    VMX$MRL
                                        17  *,*PUPROSE: Do an MRL
                                        18  *
                                        19  *D*NAME:    VMX$MRL
                                        20  *,*CALL:    CALL VMX$MRL(FROMSTR,TOSTR,LEN);
                                        21  *,*PARAMETERS:
                                        22  *,*  DCL FROMSTR BASED(FROMPTR$) CHAR(n);
                                        23  *,*  DCL TOSTR   BASED(TOPTR$)   CHAR(n);
                                        24  *,*  DCL LEN     UBIN WORD;
                                        25  *
 0 000000                               26  VMX$MRL NULL
   000000  X 000000 7000 00             27          TSX0    X66_PREGS_3
   000001    000000 000003              28          ZERO    0,3             3 PARAMETERS
   000002    4 00000 2361 00            29          LDQ     0,,4            GET LEN
   000003    000 0 140 1015 40          30          MRL     (1,1),(1,1),0
   000004    1 00000 0 0 0 0006         31          ADSC9   0,0,Q,1
   000005    3 00000 0 0 0 0006         32          ADSC9   0,0,Q,3
   000006    000001 7100 11             33          TRA     1,1             *** RETURN ***

 14:59 08/20/97  FILE=VMX$BMAP.:VMB6TSI                                                                  3    BMAP - B00
                                        34         EJECT

 14:59 08/20/97  FILE=VMX$BMAP.:VMB6TSI       VMX$SHRINK_PTR                                             4    BMAP - B00
                                        35         TTL     VMX$SHRINK_PTR
             000000000000               36  X0     EQU     0
             000000000001               37  X1     EQU     1
             000000000002               38  X2     EQU     2
             000000000003               39  X3     EQU     3
             000000000004               40  X4     EQU     4
             000000000005               41  X5     EQU     5
             000000000006               42  X6     EQU     6
             000000000007               43  X7     EQU     7
             000000000000               44  PR0    EQU     0
             000000000001               45  PR1    EQU     1
             000000000002               46  PR2    EQU     2
             000000000003               47  PR3    EQU     3
             000000000004               48  PR4    EQU     4
             000000000005               49  PR5    EQU     5
             000000000006               50  PR6    EQU     6
             000000000007               51  PR7    EQU     7
                                        52         ENTREF  X66_AUTO_0
                                        53         ENTREF  X66_AUTO_5
                                        54         ENTREF  X66_ARET
                                        55         ENTDEF  VMX$SHRINK_PTR
                                        56  *D*    ENTRY:  VMX$SHRINK_PTR
                                        57  *,*    CALL:   CALL VMX$SHRINK_PTR (base$, offset, size, new$);
                                        58  *,*    INPUT:  "base$" points to the base of a virtual data segment;
                                        59  *,*            "offset" contains a byte offset into the segment;
                                        60  *,*            "size" contains the byte size of the resulting "shrink"
                                        61  *,*            operation.
                                        62  *,*    OUTPUT: "new$" contains a pointer corresponding to a new entry on
                                        63  *,*            the argument stack, which will contain the shrunken
                                        64  *,*            descriptor.
                                        65  *,*    DESCRIPTION: This routine is used to perform a "normal shrink"
                                        66  *,*            operation on a segment framed by an NSA super-descriptor.
                                        67  *,*            The shrunken descriptor is saved on the hardware argument
                                        68  *,*            stack, and a pointer corresponding to the new AS entry is
                                        69  *,*            returned to the user.
   000007  X 000000 7000 00             70  VMX$SHRINK_PTR   TSX0    X66_AUTO_5
   000010    000007 000000              71         ZERO    7,0
 14:59 08/20/97  FILE=VMX$BMAP.:VMB6TSI       VMX$SHRINK_PTR                                             5    BMAP - B00
   000011    2 00005 4715 00            72         LDP1    5,,PR2          Pointer to new size
   000012    1 00000 2361 00            73         LDQ     0,,PR1          Get size
   000013    000020 7360 00             74         QLS     16              Shift byte count into place
   000014    200000 1360 07             75         SBLQ    =O200000,DL     Make "byte count" into "byte bound"
   000015 (0)000030 2760 00             76         ORQ     W1FLGS          Add all flags & "normal shrink" info
   000016 (2)000000 7560 00             77         STQ     SHRVEC          Save in "shrink" vector
   000017    2 00003 4705 00            78         LDP0    3,,PR2          Pointer to "base"
   000020    2 00004 4715 00            79         LDP1    4,,PR2          Pointer to "offset"
   000021    0 00000 4775 00            80         LDP7    0,,PR0          Get "base"
   000022    1 00000 6175 00            81         LDEA7   0,,PR1          Set location field in descriptor
   000023 (2)000000 6764 00             82         LDD6    SHRVEC          Shrink DR7 into DR6, self-id
   000024    000000 1164 00             83         SDR6    0               Push shrunken descriptor onto AS
   000025    2 00006 4735 00            84         LDP3    6,,PR2          Get pointer to result area
   000026    3 00000 4565 00            85         STP6    0,,PR3          Save new pointer
   000027  X 000000 7020 00             86         TSX2    X66_ARET        Return to user

 14:59 08/20/97  FILE=VMX$BMAP.:VMB6TSI       Constant data for VMX$SHRINK_PTR                           6    BMAP - B00
                                        87         TTL     Constant data for VMX$SHRINK_PTR
   000030    000000177640               88  W1FLGS OCT     000000177640

 14:59 08/20/97  FILE=VMX$BMAP.:VMB6TSI       Data area                                                  7    BMAP - B00
                                        89         TTL     Data area
 2 000000                               90         BLOCK   4
                                        91         EIGHT
   000000    000000000000               92  SHRVEC OCT     0,000000001777
   000001    000000001777
                                        93         END

  CONTROL SECTION TABLE

   0 CODE   EVEN  000031
   1 RODATA EVEN  000000 LITERALS
   2 RLCOM  EIGHT 000002 4

 14:59 08/20/97  FILE=VMX$BMAP.:VMB6TSI       SYMBOL TABLE                                               8    BMAP - B00
 41000000 000000000000 PR0            *44        80
 41000000 000000000001 PR1            *45        73        81
 41000000 000000000002 PR2            *46        72        78        79        84
 41000000 000000000003 PR3            *47        85
 40000000 000000000004 PR4            *48
 40000000 000000000005 PR5            *49
 40000000 000000000006 PR6            *50
 40000000 000000000007 PR7            *51
 01101002 000000000000 SHRVEC          77        82       *92
 12101000 000000000000 VMX$MRL         12       *26
 12101000 000000000007 VMX$SHRINK_PTR            55       *70
 01101000 000000000030 W1FLGS          76       *88
 40000000 000000000000 X0             *36
 40000000 000000000001 X1             *37
 40000000 000000000002 X2             *38
 40000000 000000000003 X3             *39
 40000000 000000000004 X4             *40
 40000000 000000000005 X5             *41
 40000000 000000000006 X6             *42
 03201003 000000000000 X66_ARET       *54        86
 02201001 000000000000 X66_AUTO_0     *52
 03201002 000000000000 X66_AUTO_5     *53        70
 03201000 000000000000 X66_PREGS_3    *14        27
 40000000 000000000007 X7             *43

      24 SYMBOLS

       0 MACROS

    SYMBOL SPACE USED   257 WORDS
     MACRO SPACE USED     0 WORDS
   INPUT RECORDS READ   186
 STATEMENTS PROCESSED    79
         ELAPSED TIME  0:02.60
             CPU TIME     0.77 SEC.
        ASSEMBLY RATE  6156 STATEMENTS/CPU MIN.

 14:59 08/20/97  FILE=VMX$BMAP.:VMB6TSI       SYMBOL TABLE                                               9    BMAP - B00
      NO ERRORS

