VERSION B06

PL6.E3A0      #001=VMX$OCTBIN File=VMX$SUBR.:VMB6TSI                             WED 08/20/97 15:26 Page:1
        1        1        /*M*   VMX$SUBR - misc. support routines. */
        2        2        /*T***********************************************************/
        3        3        /*T*                                                         */
        4        4        /*T* Copyright (c) Bull HN Information Systems Inc., 1997    */
        5        5        /*T*                                                         */
        6        6        /*T***********************************************************/
        7        7        /*X* DMC,PLM=4,IND=4,CTI=2,DTI=0,ENI=0,ECI=0,CSI=0,DCI=4 */
        8        8        /*P*    NAME: VMX$OCTBIN
        9        9                PURPOSE: To convert strings of OCTAL digits to binary.
       10       10                DESCRIPTION: It is assumed that there are no errors.
       11       11                             The PARTRGE definition should ensure this.
       12       12                             (Use .OCT12 for the definition)
       13       13        */
       14       14        VMX$OCTBIN: PROC (P$S,VALUE);
       15       15          %INCLUDE VM_SUBS_C;
       16      275          %INCLUDE XU_MACRO_C;
       17     3381        /**/
       18     3382        %PARSE$SYM (NAME=P$S,STCLASS=" ");
       19     3420    1   DCL VALUE UBIN;
       20     3421    1   DCL VALUE_CHR REDEF VALUE CHAR(4);
       21     3422        /**/
       22     3423    1   DCL X$DEC_CONVERT ENTRY(2) ALTRET;
       23     3424        /**/
       24     3425    1   DCL TEMP UBIN WORD AUTO;
       25     3426    1   DCL INDX1 UBIN WORD AUTO;
       26     3427    1       VALUE = 0;
       27     3428    2       DO CASE (P$S.CODE);
       28     3429    2       CASE (%CRPT_OCT);
       29     3430    3           DO INDX1 = 1 TO P$S.COUNT - 1;
       30     3431    3               TEMP = ASCBIN(SUBSTR(P$S.TEXT,INDX1,1)) - ASCBIN('0');
       31     3432    3               VALUE = VALUE * 8 + TEMP;
       32     3433    3           END;
       33     3434    2       CASE (%CRPT_DEC);
       34     3435    2           CALL X$DEC_CONVERT (P$S.TEXTC$,VALUE);
       35     3436    2       CASE (%CRPT_CHR);
       36     3437    2           VALUE_CHR = P$S.TEXT;
       37     3438    2       END;
PL6.E3A0      #001=VMX$OCTBIN File=VMX$SUBR.:VMB6TSI                             WED 08/20/97 15:26 Page:2
       38     3439    1       RETURN;
       39     3440    1   END VMX$OCTBIN;

PL6.E3A0      #001=VMX$OCTBIN File=VMX$SUBR.:VMB6TSI                             WED 08/20/97 15:26 Page:3
--  Include file information  --

   XU_MACRO_C.:LIB_E05  is referenced.
   VM_SUBS_C.:VMB6TOU  is referenced.
      No diagnostics issued in procedure VMX$OCTBIN.

   Procedure VMX$OCTBIN requires 57 words for executable code.
   Procedure VMX$OCTBIN requires 10 words of local(AUTO) storage.

    No errors detected in file VMX$SUBR.:VMB6TSI    .

PL6.E3A0      #001=VMX$OCTBIN File=VMX$SUBR.:VMB6TSI                             WED 08/20/97 15:26 Page:4

 Object Unit name= VMX$OCTBIN                                 File name= VMX$SUBR.:VMB6TOU
 UTS= AUG 20 '97 15:26:38.48 WED                              Compiler= PL-6/E31         Sev=      00
 SharedLib= :SHARED_SYSTEM                                    Alt SharedLib=


    ****  Control sections  ****

 Sect   Type Bound  Init  Size OctSiz  Section name(segment info)
    0   Proc  even  none    57     71  VMX$OCTBIN
    1  RoData even  none     1      1  VMX$OCTBIN

    ****  Entry defs  ****

                              Check   Calling
                             calling  sequence
  Sect OctLoc Primary Altret sequence   type   Parms  Name
     0      0   yes            yes      Std        2  VMX$OCTBIN

  ****  Entry refs  ****

         Check        Calling
        calling       sequence
Altret sequence SRef   type   Args  Name
 yes     yes           Std       2 X$DEC_CONVERT
                       nStd      0 X66_AUTO_2
                       nStd      0 X66_ARET
PL6.E3A0      #001=VMX$OCTBIN File=VMX$SUBR.:VMB6TSI                             WED 08/20/97 15:26 Page:5


        1        1        /*M*   VMX$SUBR - misc. support routines. */
        2        2        /*T***********************************************************/
        3        3        /*T*                                                         */
        4        4        /*T* Copyright (c) Bull HN Information Systems Inc., 1997    */
        5        5        /*T*                                                         */
        6        6        /*T***********************************************************/
        7        7        /*X* DMC,PLM=4,IND=4,CTI=2,DTI=0,ENI=0,ECI=0,CSI=0,DCI=4 */
        8        8        /*P*    NAME: VMX$OCTBIN
        9        9                PURPOSE: To convert strings of OCTAL digits to binary.
       10       10                DESCRIPTION: It is assumed that there are no errors.
       11       11                             The PARTRGE definition should ensure this.
       12       12                             (Use .OCT12 for the definition)
       13       13        */
       14       14        VMX$OCTBIN: PROC (P$S,VALUE);

     14  0 000000   000000 700200 xent  VMX$OCTBIN   TSX0  ! X66_AUTO_2
         0 000001   000012 000002                    ZERO    10,2

       15       15          %INCLUDE VM_SUBS_C;
       16      275          %INCLUDE XU_MACRO_C;
       17     3381        /**/
       18     3382        %PARSE$SYM (NAME=P$S,STCLASS=" ");
       19     3420    1   DCL VALUE UBIN;
       20     3421    1   DCL VALUE_CHR REDEF VALUE CHAR(4);
       21     3422        /**/
       22     3423    1   DCL X$DEC_CONVERT ENTRY(2) ALTRET;
       23     3424        /**/
       24     3425    1   DCL TEMP UBIN WORD AUTO;
       25     3426    1   DCL INDX1 UBIN WORD AUTO;
       26     3427    1       VALUE = 0;

   3427  0 000002   200004 470500                    LDP0    @VALUE,,AUTO
         0 000003   000000 450100                    STZ     0,,PR0

       27     3428    2       DO CASE (P$S.CODE);

PL6.E3A0      #001=VMX$OCTBIN File=VMX$SUBR.:VMB6TSI                             WED 08/20/97 15:26 Page:6
   3428  0 000004   200003 471500                    LDP1    @P$S,,AUTO
         0 000005   100000 720100                    LXL0    0,,PR1
         0 000006   000004 100003                    CMPX0   4,DU
         0 000007   000011 602010 0                  TNC     s:3428+5,X0
         0 000010   000070 710000 0                  TRA     s:3439
         0 000011   000070 710000 0                  TRA     s:3439
         0 000012   000050 710000 0                  TRA     s:3435
         0 000013   000015 710000 0                  TRA     s:3430
         0 000014   000062 710000 0                  TRA     s:3437

       28     3429    2       CASE (%CRPT_OCT);

       29     3430    3           DO INDX1 = 1 TO P$S.COUNT - 1;

   3430  0 000015   000001 235007                    LDA     1,DL
         0 000016   200006 755100                    STA     INDX1,,AUTO
         0 000017   000041 710000 0                  TRA     s:3433+2

       30     3431    3               TEMP = ASCBIN(SUBSTR(P$S.TEXT,INDX1,1)) - ASCBIN('0');

   3431  0 000020   200003 470500                    LDP0    @P$S,,AUTO
         0 000021   000004 236100                    LDQ     4,,PR0
         0 000022   000033 772000                    QRL     27
         0 000023   200006 235100                    LDA     INDX1,,AUTO
         0 000024   000100 101505                    MRL     fill='000'O
         0 000025   000004 200001                    ADSC9   4,A,PR0                  cn=1,n=1
         0 000026   200010 000004                    ADSC9   INDX1+2,,AUTO            cn=0,n=4
         0 000027   200010 236100                    LDQ     INDX1+2,,AUTO
         0 000030   000060 136007                    SBLQ    48,DL
         0 000031   200005 756100                    STQ     TEMP,,AUTO

       31     3432    3               VALUE = VALUE * 8 + TEMP;

   3432  0 000032   200004 471500                    LDP1    @VALUE,,AUTO
         0 000033   100000 236100                    LDQ     0,,PR1
         0 000034   000003 736000                    QLS     3
         0 000035   200005 036100                    ADLQ    TEMP,,AUTO
PL6.E3A0      #001=VMX$OCTBIN File=VMX$SUBR.:VMB6TSI                             WED 08/20/97 15:26 Page:7
         0 000036   100000 756100                    STQ     0,,PR1

       32     3433    3           END;

   3433  0 000037   000001 035007                    ADLA    1,DL
         0 000040   200006 755100                    STA     INDX1,,AUTO
         0 000041   200003 470500                    LDP0    @P$S,,AUTO
         0 000042   000004 236100                    LDQ     4,,PR0
         0 000043   000033 772000                    QRL     27
         0 000044   200006 116100                    CMPQ    INDX1,,AUTO
         0 000045   000047 600000 0                  TZE     s:3433+8
         0 000046   000020 603000 0                  TRC     s:3431
         0 000047   000070 710000 0                  TRA     s:3439

       33     3434    2       CASE (%CRPT_DEC);

       34     3435    2           CALL X$DEC_CONVERT (P$S.TEXTC$,VALUE);

   3435  0 000050   200004 236100                    LDQ     @VALUE,,AUTO
         0 000051   200011 756100                    STQ     INDX1+3,,AUTO
         0 000052   200003 236100                    LDQ     @P$S,,AUTO
         0 000053   000003 036003                    ADLQ    3,DU
         0 000054   200010 756100                    STQ     INDX1+2,,AUTO
         0 000055   200010 630500                    EPPR0   INDX1+2,,AUTO
         0 000056   000000 631400 1                  EPPR1   0
         0 000057   000000 701000 xent               TSX1    X$DEC_CONVERT
         0 000060   000000 011000                    NOP     0
         0 000061   000070 710000 0                  TRA     s:3439

       35     3436    2       CASE (%CRPT_CHR);

       36     3437    2           VALUE_CHR = P$S.TEXT;

   3437  0 000062   100004 236100                    LDQ     4,,PR1
         0 000063   000033 772000                    QRL     27
         0 000064   000000 621006                    EAX1    0,QL
         0 000065   040100 100540                    MLR     fill='040'O
PL6.E3A0      #001=VMX$OCTBIN File=VMX$SUBR.:VMB6TSI                             WED 08/20/97 15:26 Page:8
         0 000066   100004 200011                    ADSC9   4,,PR1                   cn=1,n=*X1
         0 000067   000000 000004                    ADSC9   0,,PR0                   cn=0,n=4

       37     3438    2       END;

       38     3439    1       RETURN;

   3439  0 000070   000000 702200 xent               TSX2  ! X66_ARET

(unnamed)
 Sect OctLoc
   1     000   000002 000000                                                    ....
       39     3440    1   END VMX$OCTBIN;

PL6.E3A0      #001=VMX$OCTBIN File=VMX$SUBR.:VMB6TSI                             WED 08/20/97 15:26 Page:9
--  Include file information  --

   XU_MACRO_C.:LIB_E05  is referenced.
   VM_SUBS_C.:VMB6TOU  is referenced.
      No diagnostics issued in procedure VMX$OCTBIN.
PL6.E3A0      #001=VMX$OCTBIN File=VMX$SUBR.:VMB6TSI                             WED 08/20/97 15:26 Page:10

 **** Variables and constants ****

  ****  Auto variables  ****

  ****  Scalars and arrays  ****
OctLoc.c.b A Datatyp(siz) R M Lvl/name                 OctLoc.c.b A Datatyp(siz) R M Lvl/name

     3-0-0/w PTR         r     1 @P$S                       4-0-0/w PTR         r     1 @VALUE
     6-0-0/w UBIN        r     1 INDX1                     *0-0-0/w ASTR(153)   r     1 P$S
     5-0-0/w UBIN        r     1 TEMP                      *0-0-0/w UBIN        r     1 VALUE
    *0-0-0/w CHAR(4)     r     1 VALUE_CHR


   Procedure VMX$OCTBIN requires 57 words for executable code.
   Procedure VMX$OCTBIN requires 10 words of local(AUTO) storage.

    No errors detected in file VMX$SUBR.:VMB6TSI    .
PL6.E3A0      #001=VMX$OCTBIN File=VMX$SUBR.:VMB6TSI                             WED 08/20/97 15:26 Page:11
          *** CROSS REFERENCE LISTING ***
**     DENOTES     IDENTIFIER DEFINITION
<<                 IDENTIFIER'S VALUE SET
>>                 IDENTIFIER'S VALUE USED
<>                 IDENTIFIER SET AND/OR USED
--                 IDENTIFIER REFERENCED
PL6.E3A0      #001=VMX$OCTBIN File=VMX$SUBR.:VMB6TSI                             WED 08/20/97 15:26 Page:12
          MINI XREF LISTING

INDX1
      3426**DCL      3430<<DOINDEX  3431>>ASSIGN
P$S
      3389**DCL        14--PROC
P$S.CODE
      3395**DCL      3428>>DOCASE
P$S.COUNT
      3412**DCL      3415--IMP-SIZ  3430>>DOINDEX  3431>>ASSIGN   3437>>ASSIGN
P$S.TEXT
      3415**DCL      3431>>ASSIGN   3437>>ASSIGN
P$S.TEXTC$
      3407**DCL      3435<>CALL
TEMP
      3425**DCL      3431<<ASSIGN   3432>>ASSIGN
VALUE
      3420**DCL        14--PROC     3421--REDEF    3427<<ASSIGN   3432<<ASSIGN   3432>>ASSIGN   3435<>CALL
VALUE_CHR
      3421**DCL      3437<<ASSIGN
X$DEC_CONVERT
      3423**DCL-ENT  3435--CALL
