VERSION B06

PL6.E3A0      #001=VM_DATA_D File=VM_DATA_D.:VMB6TSI                             WED 08/20/97 15:26 Page:1
        1        1        /*T***********************************************************/
        2        2        /*T*                                                         */
        3        3        /*T* Copyright (c) Bull HN Information Systems Inc., 1997    */
        4        4        /*T*                                                         */
        5        5        /*T***********************************************************/
        6        6        /*X* CCC=NO */
        7        7        VM_DATA_D: PROC;
        8        8          %INCLUDE B_SEGIDS_C;
        9      547          %INCLUDE CP_6;
       10     6106        /***** Canned ptrs *****/
       11     6107        /*
       12     6108             ***** HOW DATA SEGMENTS ARE USED IN MAIL/SEND/MAILMAN ...
       13     6109
       14     6110                   Segments used in all modules
       15     6111                   ----------------------------
       16     6112                   VM_ADDLIST
       17     6113                      - used for building new address list (VMA$EXPAND_LIST).
       18     6114
       19     6115                   VM_HEADER
       20     6116                      - used to contain the HEADER of a message.
       21     6117
       22     6118                   VM_PROFILE
       23     6119                      - used to contain the PROFILE of a folder.
       24     6120
       25     6121                   VM_WORK
       26     6122                      - used to contain LIST and USER definitions when
       27     6123                        expanding an address list.
       28     6124
       29     6125                   Segments used by only MAIL and SEND
       30     6126                   -----------------------------------
       31     6127                   VM_PARSEAREA
       32     6128                      - used to contain input and parse info (XUR$GETCMD)
       33     6129
       34     6130                   VM_ENCLLIST
       35     6131                      - used to hold the enclosure context list
       36     6132
       37     6133                   VM_ENCLREC
PL6.E3A0      #001=VM_DATA_D File=VM_DATA_D.:VMB6TSI                             WED 08/20/97 15:26 Page:2
       38     6134                      - used to hold enclosure data records
       39     6135
       40     6136                   Segments used only by MAIL
       41     6137                   --------------------------
       42     6138                   VM_SELECT
       43     6139                      - used to contain MESSAGE SELECTION CONTEXTS
       44     6140                        Note: VM_SELECT shares a data segment with VM_PARSEAREA.
       45     6141                        VM_SELECT occupies the first 1024 words and VM_PARSEAREA
       46     6142                        the subsequent 2048 words of the segment.
       47     6143
       48     6144                   Segments used only by MAILMAN
       49     6145                   -----------------------------
       50     6146                   VM_ADDREC
       51     6147                      - used to contain address record to be expanded.
       52     6148
       53     6149                   VM_INPUT
       54     6150                      - used to contain input queue.
       55     6151
       56     6152                   VM_COPY (redef of VM_SELECT)
       57     6153                      - used to move copies of files around.
       58     6154        */
       59     6155    1   DCL 1 VM_HEADER$ CONSTANT SYMDEF,
       60     6156    1         2 OFFSET UBIN(24) INIT(0) UNAL,
       61     6157    1         2 SID BIT(12) INIT(%DS8SID) UNAL;
       62     6158
       63     6159    1   DCL 1 VM_PROFILE$ CONSTANT SYMDEF,
       64     6160    1         2 OFFSET UBIN(24) INIT(0) UNAL,
       65     6161    1         2 SID BIT(12) INIT(%DS3SID) UNAL;
       66     6162
       67     6163    1   DCL 1 VM_WORK$ CONSTANT SYMDEF,
       68     6164    1         2 OFFSET UBIN(24) INIT(0) UNAL,
       69     6165    1         2 SID BIT(12) INIT(%DS4SID) UNAL;
       70     6166
       71     6167    1   DCL 1 VM_ADDLIST$ CONSTANT SYMDEF,
       72     6168    1         2 OFFSET UBIN(24) INIT(0) UNAL,
       73     6169    1         2 SID BIT(12) INIT(%DS5SID) UNAL;
       74     6170
PL6.E3A0      #001=VM_DATA_D File=VM_DATA_D.:VMB6TSI                             WED 08/20/97 15:26 Page:3
       75     6171    1   DCL 1 VM_ADDREC$ CONSTANT SYMDEF,
       76     6172    1         2 OFFSET UBIN(24) INIT(0) UNAL,
       77     6173    1         2 SID BIT(12) INIT(%DS6SID) UNAL;
       78     6174
       79     6175    1   DCL 1 VM_PARSEAREA$ CONSTANT SYMDEF,
       80     6176    1         2 OFFSET UBIN(24) INIT(4096) UNAL,
       81     6177    1         2 SID BIT(12) INIT(%DS7SID) UNAL;
       82     6178
       83     6179    1   DCL 1 VM_SELECT$ CONSTANT SYMDEF,
       84     6180    1         2 OFFSET UBIN(20) INIT(0) UNAL,
       85     6181    1         2 * UBIN(4) INIT(0) UNAL,
       86     6182    1         2 SID BIT(12) INIT(%DS7SID) UNAL;
       87     6183
       88     6184    1   DCL 1 VM_COPY$ CONSTANT SYMDEF,
       89     6185    1         2 OFFSET UBIN(24) INIT(0) UNAL,
       90     6186    1         2 SID BIT(12) INIT(%DS7SID) UNAL;
       91     6187
       92     6188    1   DCL 1 VM_INPUT$ CONSTANT SYMDEF,
       93     6189    1         2 OFFSET UBIN(24) INIT(0) UNAL,
       94     6190    1         2 SID BIT(12) INIT(%DS2SID) UNAL;
       95     6191
       96     6192    1   DCL 1 VM_ENCLLIST$ STATIC SYMDEF,
       97     6193    1         2 OFFSET UBIN(24) INIT(0) UNAL,
       98     6194    1         2 SID BIT(12) INIT(%VS1SID) UNAL;
       99     6195
      100     6196    1   DCL 1 VM_ENCLREC$ STATIC SYMDEF,
      101     6197    1         2 OFFSET UBIN(24) INIT(0) UNAL,
      102     6198    1         2 SID BIT(12) INIT(%VS2SID) UNAL;
      103     6199
      104     6200        /***** Vectors *****/
      105     6201          %VLP_VECTOR(FPTN=VM_HEADER_,STCLASS="STATIC SYMDEF",SEGID=%DS8SID);
      106     6216        %VLP_VECTOR(FPTN=VM_HEADER_INIT_,STCLASS="CONSTANT SYMDEF",SEGID=%DS8SID);
      107     6231          %VLP_VECTOR(FPTN=VM_PROFILE_,STCLASS="STATIC SYMDEF",SEGID=%DS3SID);
      108     6246          %VLP_VECTOR(FPTN=VM_WORK_,STCLASS="STATIC SYMDEF",SEGID=%DS4SID);
      109     6261          %VLP_VECTOR(FPTN=VM_ADDLIST_,STCLASS="STATIC SYMDEF",SEGID=%DS5SID);
      110     6276          %VLP_VECTOR(FPTN=VM_ADDREC_,STCLASS="STATIC SYMDEF",SEGID=%DS6SID);
      111     6291          %VLP_VECTOR(FPTN=VM_PARSEAREA_,STCLASS="STATIC SYMDEF",SEGID=%DS7SID);
PL6.E3A0      #001=VM_DATA_D File=VM_DATA_D.:VMB6TSI                             WED 08/20/97 15:26 Page:4
      112     6306          %VLP_VECTOR(FPTN=VM_SELECT_,STCLASS="STATIC SYMDEF",SEGID=%DS7SID);
      113     6321          %VLP_VECTOR(FPTN=VM_COPY_,STCLASS="STATIC SYMDEF",SEGID=%DS7SID);
      114     6336          %VLP_VECTOR(FPTN=VM_INPUT_,STCLASS="STATIC SYMDEF",SEGID=%DS2SID);
      115     6351        %VLP_VECTOR(FPTN=VM_ENCLLIST_,STCLASS="STATIC SYMDEF",SEGID=%VS1SID);
      116     6366        %VLP_VECTOR(FPTN=VM_ENCLREC_,STCLASS="STATIC SYMDEF",SEGID=%VS2SID);
      117     6381        /***** Other variables *****/
      118     6382          %VLP_ACCT (FPTN=VM_MAIL_ACCT,ACCT=':MAIL ',STCLASS="CONSTANT SYMDEF");
      119     6395          %VLP_NAME (FPTN=VM_NAME_MAP_NAME,NAME=':NAME',STCLASS="CONSTANT SYMDEF");
      120     6422        %VLP_NAME (FPTN=ERRMSG_FID,NAME="':VMERRMSG.:SYS    '",STCLASS="STATIC SYMDEF");
      121     6449          %VLP_NAME (FPTN=VM_SEND_FILE_NAME,NAME='***SEND_INTERNAL_MESSAGE_FOLDER',
      122     6450                     STCLASS="CONSTANT SYMDEF");
      123     6477          %VLP_NAME (FPTN=VM_FORWARD_FILE_NAME,NAME='***SEND_INTERNAL_FORWARD_TEXT',
      124     6478                     STCLASS="CONSTANT SYMDEF");
      125     6505          %VLP_NAME (FPTN=VM_FORWARD_ENCL_NAME,NAME='***SEND_INTERNAL_FORWARD_ENCL',
      126     6506                     STCLASS="CONSTANT SYMDEF");
      127     6533          %VLP_PASS (FPTN=VM_FORWARD_FILE_PASS,PASS='DWCJML83',STCLASS="CONSTANT SYMDEF");
      128     6546          %VLP_NAME (FPTN=VM_MAILCG_NAME,NAME='MAIL_CG',STCLASS="CONSTANT SYMDEF");
      129     6573    1   DCL VM_SITENAME CHAR(8) STATIC SYMDEF;
      130     6574          %VLP_SETSTA (FPTN=VM_MAILCG_SETSTA,STCLASS="STATIC SYMDEF");
      131     6602                                      /* Strip VFC on formatted writes? Default=NO    */
      132     6603        /***** Dcbs *****/
      133     6604    1   DCL M$MAIL_FILE DCB;
      134     6605                                                /* Open to current MAIL folder        */
      135     6606    1   DCL M$MAIL_CENTRAL DCB;
      136     6607                                 /* Open to CENTRAL FOLDER for this user. INPUT only  */
      137     6608    1   DCL M$MAIL_GLOBAL DCB;
      138     6609                            /* Open to GLOBAL MAIL folder (i.e. :MAIL_CENTRAL.:MAIL)  */
      139     6610    1   DCL M$WORK DCB;
      140     6611                                                /* Used for creating work files       */
      141     6612    1   DCL M$MAIL_COMGROUP DCB;
      142     6613                                                /* Used for comgroup communications   */
      143     6614    1   DCL M$DO DCB;
      144     6615                                                /* Used for reporting errors          */
      145     6616    1   DCL M$LO DCB;
      146     6617                                                /* Used for DISPLAYing information    */
      147     6618    1   DCL M$ME DCB;
      148     6619                            /* Used for displaying other information and echoing cmds */
PL6.E3A0      #001=VM_DATA_D File=VM_DATA_D.:VMB6TSI                             WED 08/20/97 15:26 Page:5
      149     6620    1   DCL M$NODE DCB;
      150     6621                                                /* Used for opening :NODES.           */
      151     6622    1   DCL M$SI DCB;
      152     6623                                                /* Used for input from the user       */
      153     6624                   /* These dcbs are used for resolving addresses.
      154     6625                      Each one points to a folder in the SEARCH LIST. */
      155     6626        /***** Variables to point to dcbs *****/
      156     6627    1   DCL M$MAIL_FILE_NUM UBIN WORD STATIC SYMDEF INIT(DCBNUM(M$MAIL_FILE));
      157     6628                                      /* Points to the currently open mail folder.    */
      158     6629    1   DCL M$MAIL_CENTRAL_NUM UBIN WORD STATIC SYMDEF INIT(DCBNUM(M$MAIL_CENTRAL));
      159     6630                                 /* Points to the CENTRAL FOLDER for current user     */
      160     6631    1   DCL M$MAIL_GLOBAL_NUM UBIN WORD STATIC SYMDEF INIT(DCBNUM(M$MAIL_GLOBAL));
      161     6632                                 /* Points to the GLOBAL MAIL folder and address list */
      162     6633    1   DCL M$WORK_NUM UBIN WORD STATIC SYMDEF INIT(DCBNUM(M$WORK));
      163     6634                                                /* Points to the work file            */
      164     6635    1   DCL M$MAIL_COMGROUP_NUM UBIN WORD STATIC SYMDEF INIT(DCBNUM(M$MAIL_COMGROUP));
      165     6636                            /* Points to the dcb used for all COMGROUP communication  */
      166     6637    1   DCL M$DO_NUM UBIN WORD STATIC SYMDEF INIT(DCBNUM(M$DO));
      167     6638                                 /* Points to dcb used for displaying error messages  */
      168     6639    1   DCL M$ME_NUM UBIN WORD STATIC SYMDEF INIT(DCBNUM(M$ME));
      169     6640                            /* Points to the dcb used for DISPLAY and LIST output     */
      170     6641    1   DCL M$LO_NUM UBIN WORD STATIC SYMDEF INIT(DCBNUM(M$LO));
      171     6642                  /* Points to the dcb used for all other messages, except errors     */
      172     6643    1   DCL M$SI_NUM UBIN WORD STATIC SYMDEF INIT(DCBNUM(M$SI));
      173     6644    1   DCL M$NODE_NUM UBIN WORD STATIC SYMDEF INIT(DCBNUM(M$NODE));
      174     6645                                                /* Points to :NODES                   */
      175     6646    1   END VM_DATA_D;

PL6.E3A0      #001=VM_DATA_D File=VM_DATA_D.:VMB6TSI                             WED 08/20/97 15:26 Page:6
--  Include file information  --

   CP_6_C.:LIB_E05  is referenced.
   CP_6.:LIB_E05  cannot be made into a system file and is referenced.
   B_SEGIDS_C.:LIB_E05  is referenced.
      No diagnostics issued in procedure VM_DATA_D.

   No code generated for procedure VM_DATA_D .
   Procedure VM_DATA_D requires 4 words of local(AUTO) storage.

    No errors detected in file VM_DATA_D.:VMB6TSI    .

PL6.E3A0      #001=VM_DATA_D File=VM_DATA_D.:VMB6TSI                             WED 08/20/97 15:26 Page:7

 Object Unit name= VM_DATA_D                                  File name= VM_DATA_D.:VMB6TOU
 UTS= AUG 20 '97 15:26:51.36 WED                              Compiler= PL-6/E31         Sev=      00
 SharedLib= :SHARED_SYSTEM                                    Alt SharedLib=


    ****  Control sections  ****

 Sect   Type Bound  Init  Size OctSiz  Section name(segment info)
    0   DCB   even  none     0      0  M$UC
    1  RoData even  UTS     44     54  VM_DATA_D
    2   Data  even  none    53     65  VM_DATA_D
    3   DCB   even  none     0      0  M$MAIL_FILE
    4   DCB   even  none     0      0  M$MAIL_CENTRAL
    5   DCB   even  none     0      0  M$MAIL_GLOBAL
    6   DCB   even  none     0      0  M$WORK
    7   DCB   even  none     0      0  M$MAIL_COMGROUP
    8   DCB   even  none     0      0  M$DO
    9   DCB   even  none     0      0  M$LO
   10   DCB   even  none     0      0  M$ME
   11   DCB   even  none     0      0  M$NODE
   12   DCB   even  none     0      0  M$SI
   13   Proc  even  none     0      0  VM_DATA_D

    ****  Entry defs  ****

                              Check   Calling
                             calling  sequence
  Sect OctLoc Primary Altret sequence   type   Parms  Name
    13      0   yes            yes     ~proc       0  VM_DATA_D
PL6.E3A0      #001=VM_DATA_D File=VM_DATA_D.:VMB6TSI                             WED 08/20/97 15:26 Page:8

  ****  Data defs  ****

 Sect OctLoc  Name                           Sect OctLoc  Name
    1      0  VM_HEADER$                         1      1  VM_PROFILE$
    1      2  VM_WORK$                           1      3  VM_ADDLIST$
    1      4  VM_ADDREC$                         1      5  VM_PARSEAREA$
    1      6  VM_SELECT$                         1      7  VM_COPY$
    1     10  VM_INPUT$                          2      0  VM_ENCLLIST$
    2      1  VM_ENCLREC$                        2      2  VM_HEADER_
    1     12  VM_HEADER_INIT_                    2      4  VM_PROFILE_
    2      6  VM_WORK_                           2     10  VM_ADDLIST_
    2     12  VM_ADDREC_                         2     14  VM_PARSEAREA_
    2     16  VM_SELECT_                         2     20  VM_COPY_
    2     22  VM_INPUT_                          2     24  VM_ENCLLIST_
    2     26  VM_ENCLREC_                        1     14  VM_MAIL_ACCT
    1     16  VM_NAME_MAP_NAME                   2     30  ERRMSG_FID
    1     20  VM_SEND_FILE_NAME                  1     30  VM_FORWARD_FILE_NAME
    1     40  VM_FORWARD_ENCL_NAME               1     50  VM_FORWARD_FILE_PASS
    1     52  VM_MAILCG_NAME                     2     35  VM_SITENAME
    2     37  VM_MAILCG_SETSTA                   2     53  M$MAIL_FILE_NUM
    2     54  M$MAIL_CENTRAL_NUM                 2     55  M$MAIL_GLOBAL_NUM
    2     56  M$WORK_NUM                         2     57  M$MAIL_COMGROUP_NUM
    2     60  M$DO_NUM                           2     61  M$ME_NUM
    2     62  M$LO_NUM                           2     63  M$SI_NUM
    2     64  M$NODE_NUM

  ****  Data refs  ****

  Flags:  r = read only, s = secondary
Flgs Name                             Flgs Name                             Flgs Name
     M$UC                                  M$MAIL_FILE                           M$MAIL_CENTRAL
     M$MAIL_GLOBAL                         M$WORK                                M$MAIL_COMGROUP
     M$DO                                  M$LO                                  M$ME
     M$NODE                                M$SI
PL6.E3A0      #001=VM_DATA_D File=VM_DATA_D.:VMB6TSI                             WED 08/20/97 15:26 Page:9


VM_HEADER$
 Sect OctLoc
   1     000   000000 006013                                                    ....

VM_PROFILE$
 Sect OctLoc
   1     001   000000 006006                                                    ....

VM_WORK$
 Sect OctLoc
   1     002   000000 006007                                                    ....

VM_ADDLIST$
 Sect OctLoc
   1     003   000000 006010                                                    ....

VM_ADDREC$
 Sect OctLoc
   1     004   000000 006011                                                    ....

VM_PARSEAREA$
 Sect OctLoc
   1     005   000100 006012                                                    .@..

VM_SELECT$
 Sect OctLoc
   1     006   000000 006012                                                    ....

VM_COPY$
 Sect OctLoc
   1     007   000000 006012                                                    ....

VM_INPUT$
 Sect OctLoc
   1     010   000000 006005                                                    ....

PL6.E3A0      #001=VM_DATA_D File=VM_DATA_D.:VMB6TSI                             WED 08/20/97 15:26 Page:10
VM_HEADER_INIT_
 Sect OctLoc
   1     012   000000 177640   000000 006013                                    ........

VM_MAIL_ACCT
 Sect OctLoc
   1     014   072115 101111   114040 040040                                    :MAIL

VM_NAME_MAP_NAME
 Sect OctLoc
   1     016   005072 116101   115105 ******                                    .:NAME..

VM_SEND_FILE_NAME
 Sect OctLoc
   1     020   037052 052052   123105 116104   137111 116124   105122 116101    .***SEND_INTERNA
   1     024   114137 115105   123123 101107   105137 106117   114104 105122    L_MESSAGE_FOLDER

VM_FORWARD_FILE_NAME
 Sect OctLoc
   1     030   035052 052052   123105 116104   137111 116124   105122 116101    .***SEND_INTERNA
   1     034   114137 106117   122127 101122   104137 124105   130124 ******    L_FORWARD_TEXT..

VM_FORWARD_ENCL_NAME
 Sect OctLoc
   1     040   035052 052052   123105 116104   137111 116124   105122 116101    .***SEND_INTERNA
   1     044   114137 106117   122127 101122   104137 105116   103114 ******    L_FORWARD_ENCL..

VM_FORWARD_FILE_PASS
 Sect OctLoc
   1     050   104127 103112   115114 070063                                    DWCJML83

VM_MAILCG_NAME
 Sect OctLoc
   1     052   007115 101111   114137 103107                                    .MAIL_CG

VM_ENCLLIST$
 Sect OctLoc
PL6.E3A0      #001=VM_DATA_D File=VM_DATA_D.:VMB6TSI                             WED 08/20/97 15:26 Page:11
   2     000   000000 006032                                                    ....

VM_ENCLREC$
 Sect OctLoc
   2     001   000000 006033                                                    ....

VM_HEADER_
 Sect OctLoc
   2     002   000000 177640   000000 006013                                    ........

VM_PROFILE_
 Sect OctLoc
   2     004   000000 177640   000000 006006                                    ........

VM_WORK_
 Sect OctLoc
   2     006   000000 177640   000000 006007                                    ........

VM_ADDLIST_
 Sect OctLoc
   2     010   000000 177640   000000 006010                                    ........

VM_ADDREC_
 Sect OctLoc
   2     012   000000 177640   000000 006011                                    ........

VM_PARSEAREA_
 Sect OctLoc
   2     014   000000 177640   000000 006012                                    ........

VM_SELECT_
 Sect OctLoc
   2     016   000000 177640   000000 006012                                    ........

VM_COPY_
 Sect OctLoc
   2     020   000000 177640   000000 006012                                    ........
PL6.E3A0      #001=VM_DATA_D File=VM_DATA_D.:VMB6TSI                             WED 08/20/97 15:26 Page:12

VM_INPUT_
 Sect OctLoc
   2     022   000000 177640   000000 006005                                    ........

VM_ENCLLIST_
 Sect OctLoc
   2     024   000000 177640   000000 006032                                    ........

VM_ENCLREC_
 Sect OctLoc
   2     026   000000 177640   000000 006033                                    ........

ERRMSG_FID
 Sect OctLoc
   2     030   022072 126115   105122 122115   123107 056072   123131 123040    .:VMERRMSG.:SYS
   2     034   040040 040***                                                       .

VM_MAILCG_SETSTA
 Sect OctLoc
   2     037   040040 040040   040040 040040   040040 040040   040040 040040
   2     043   040040 040040   040040 040040   000000 000000   040040 040040            ....
   2     047   040040 040040   040040 040040   040040 040040   000000 000000                ....

M$MAIL_FILE_NUM
 Sect OctLoc
   2     053   000000 000000                                                    ....

M$MAIL_CENTRAL_NUM
 Sect OctLoc
   2     054   000000 000000                                                    ....

M$MAIL_GLOBAL_NUM
 Sect OctLoc
   2     055   000000 000000                                                    ....

M$WORK_NUM
PL6.E3A0      #001=VM_DATA_D File=VM_DATA_D.:VMB6TSI                             WED 08/20/97 15:26 Page:13
 Sect OctLoc
   2     056   000000 000000                                                    ....

M$MAIL_COMGROUP_NUM
 Sect OctLoc
   2     057   000000 000000                                                    ....

M$DO_NUM
 Sect OctLoc
   2     060   000000 000000                                                    ....

M$ME_NUM
 Sect OctLoc
   2     061   000000 000000                                                    ....

M$LO_NUM
 Sect OctLoc
   2     062   000000 000000                                                    ....

M$SI_NUM
 Sect OctLoc
   2     063   000000 000000                                                    ....

M$NODE_NUM
 Sect OctLoc
   2     064   000000 000000                                                    ....
        1        1        /*T***********************************************************/
        2        2        /*T*                                                         */
        3        3        /*T* Copyright (c) Bull HN Information Systems Inc., 1997    */
        4        4        /*T*                                                         */
        5        5        /*T***********************************************************/
        6        6        /*X* CCC=NO */
        7        7        VM_DATA_D: PROC;
        8        8          %INCLUDE B_SEGIDS_C;
        9      547          %INCLUDE CP_6;
       10     6106        /***** Canned ptrs *****/
       11     6107        /*
PL6.E3A0      #001=VM_DATA_D File=VM_DATA_D.:VMB6TSI                             WED 08/20/97 15:26 Page:14
       12     6108             ***** HOW DATA SEGMENTS ARE USED IN MAIL/SEND/MAILMAN ...
       13     6109
       14     6110                   Segments used in all modules
       15     6111                   ----------------------------
       16     6112                   VM_ADDLIST
       17     6113                      - used for building new address list (VMA$EXPAND_LIST).
       18     6114
       19     6115                   VM_HEADER
       20     6116                      - used to contain the HEADER of a message.
       21     6117
       22     6118                   VM_PROFILE
       23     6119                      - used to contain the PROFILE of a folder.
       24     6120
       25     6121                   VM_WORK
       26     6122                      - used to contain LIST and USER definitions when
       27     6123                        expanding an address list.
       28     6124
       29     6125                   Segments used by only MAIL and SEND
       30     6126                   -----------------------------------
       31     6127                   VM_PARSEAREA
       32     6128                      - used to contain input and parse info (XUR$GETCMD)
       33     6129
       34     6130                   VM_ENCLLIST
       35     6131                      - used to hold the enclosure context list
       36     6132
       37     6133                   VM_ENCLREC
       38     6134                      - used to hold enclosure data records
       39     6135
       40     6136                   Segments used only by MAIL
       41     6137                   --------------------------
       42     6138                   VM_SELECT
       43     6139                      - used to contain MESSAGE SELECTION CONTEXTS
       44     6140                        Note: VM_SELECT shares a data segment with VM_PARSEAREA.
       45     6141                        VM_SELECT occupies the first 1024 words and VM_PARSEAREA
       46     6142                        the subsequent 2048 words of the segment.
       47     6143
       48     6144                   Segments used only by MAILMAN
PL6.E3A0      #001=VM_DATA_D File=VM_DATA_D.:VMB6TSI                             WED 08/20/97 15:26 Page:15
       49     6145                   -----------------------------
       50     6146                   VM_ADDREC
       51     6147                      - used to contain address record to be expanded.
       52     6148
       53     6149                   VM_INPUT
       54     6150                      - used to contain input queue.
       55     6151
       56     6152                   VM_COPY (redef of VM_SELECT)
       57     6153                      - used to move copies of files around.
       58     6154        */
       59     6155    1   DCL 1 VM_HEADER$ CONSTANT SYMDEF,
       60     6156    1         2 OFFSET UBIN(24) INIT(0) UNAL,
       61     6157    1         2 SID BIT(12) INIT(%DS8SID) UNAL;
       62     6158
       63     6159    1   DCL 1 VM_PROFILE$ CONSTANT SYMDEF,
       64     6160    1         2 OFFSET UBIN(24) INIT(0) UNAL,
       65     6161    1         2 SID BIT(12) INIT(%DS3SID) UNAL;
       66     6162
       67     6163    1   DCL 1 VM_WORK$ CONSTANT SYMDEF,
       68     6164    1         2 OFFSET UBIN(24) INIT(0) UNAL,
       69     6165    1         2 SID BIT(12) INIT(%DS4SID) UNAL;
       70     6166
       71     6167    1   DCL 1 VM_ADDLIST$ CONSTANT SYMDEF,
       72     6168    1         2 OFFSET UBIN(24) INIT(0) UNAL,
       73     6169    1         2 SID BIT(12) INIT(%DS5SID) UNAL;
       74     6170
       75     6171    1   DCL 1 VM_ADDREC$ CONSTANT SYMDEF,
       76     6172    1         2 OFFSET UBIN(24) INIT(0) UNAL,
       77     6173    1         2 SID BIT(12) INIT(%DS6SID) UNAL;
       78     6174
       79     6175    1   DCL 1 VM_PARSEAREA$ CONSTANT SYMDEF,
       80     6176    1         2 OFFSET UBIN(24) INIT(4096) UNAL,
       81     6177    1         2 SID BIT(12) INIT(%DS7SID) UNAL;
       82     6178
       83     6179    1   DCL 1 VM_SELECT$ CONSTANT SYMDEF,
       84     6180    1         2 OFFSET UBIN(20) INIT(0) UNAL,
       85     6181    1         2 * UBIN(4) INIT(0) UNAL,
PL6.E3A0      #001=VM_DATA_D File=VM_DATA_D.:VMB6TSI                             WED 08/20/97 15:26 Page:16
       86     6182    1         2 SID BIT(12) INIT(%DS7SID) UNAL;
       87     6183
       88     6184    1   DCL 1 VM_COPY$ CONSTANT SYMDEF,
       89     6185    1         2 OFFSET UBIN(24) INIT(0) UNAL,
       90     6186    1         2 SID BIT(12) INIT(%DS7SID) UNAL;
       91     6187
       92     6188    1   DCL 1 VM_INPUT$ CONSTANT SYMDEF,
       93     6189    1         2 OFFSET UBIN(24) INIT(0) UNAL,
       94     6190    1         2 SID BIT(12) INIT(%DS2SID) UNAL;
       95     6191
       96     6192    1   DCL 1 VM_ENCLLIST$ STATIC SYMDEF,
       97     6193    1         2 OFFSET UBIN(24) INIT(0) UNAL,
       98     6194    1         2 SID BIT(12) INIT(%VS1SID) UNAL;
       99     6195
      100     6196    1   DCL 1 VM_ENCLREC$ STATIC SYMDEF,
      101     6197    1         2 OFFSET UBIN(24) INIT(0) UNAL,
      102     6198    1         2 SID BIT(12) INIT(%VS2SID) UNAL;
      103     6199
      104     6200        /***** Vectors *****/
      105     6201          %VLP_VECTOR(FPTN=VM_HEADER_,STCLASS="STATIC SYMDEF",SEGID=%DS8SID);
      106     6216        %VLP_VECTOR(FPTN=VM_HEADER_INIT_,STCLASS="CONSTANT SYMDEF",SEGID=%DS8SID);
      107     6231          %VLP_VECTOR(FPTN=VM_PROFILE_,STCLASS="STATIC SYMDEF",SEGID=%DS3SID);
      108     6246          %VLP_VECTOR(FPTN=VM_WORK_,STCLASS="STATIC SYMDEF",SEGID=%DS4SID);
      109     6261          %VLP_VECTOR(FPTN=VM_ADDLIST_,STCLASS="STATIC SYMDEF",SEGID=%DS5SID);
      110     6276          %VLP_VECTOR(FPTN=VM_ADDREC_,STCLASS="STATIC SYMDEF",SEGID=%DS6SID);
      111     6291          %VLP_VECTOR(FPTN=VM_PARSEAREA_,STCLASS="STATIC SYMDEF",SEGID=%DS7SID);
      112     6306          %VLP_VECTOR(FPTN=VM_SELECT_,STCLASS="STATIC SYMDEF",SEGID=%DS7SID);
      113     6321          %VLP_VECTOR(FPTN=VM_COPY_,STCLASS="STATIC SYMDEF",SEGID=%DS7SID);
      114     6336          %VLP_VECTOR(FPTN=VM_INPUT_,STCLASS="STATIC SYMDEF",SEGID=%DS2SID);
      115     6351        %VLP_VECTOR(FPTN=VM_ENCLLIST_,STCLASS="STATIC SYMDEF",SEGID=%VS1SID);
      116     6366        %VLP_VECTOR(FPTN=VM_ENCLREC_,STCLASS="STATIC SYMDEF",SEGID=%VS2SID);
      117     6381        /***** Other variables *****/
      118     6382          %VLP_ACCT (FPTN=VM_MAIL_ACCT,ACCT=':MAIL ',STCLASS="CONSTANT SYMDEF");
      119     6395          %VLP_NAME (FPTN=VM_NAME_MAP_NAME,NAME=':NAME',STCLASS="CONSTANT SYMDEF");
      120     6422        %VLP_NAME (FPTN=ERRMSG_FID,NAME="':VMERRMSG.:SYS    '",STCLASS="STATIC SYMDEF");
      121     6449          %VLP_NAME (FPTN=VM_SEND_FILE_NAME,NAME='***SEND_INTERNAL_MESSAGE_FOLDER',
      122     6450                     STCLASS="CONSTANT SYMDEF");
PL6.E3A0      #001=VM_DATA_D File=VM_DATA_D.:VMB6TSI                             WED 08/20/97 15:26 Page:17
      123     6477          %VLP_NAME (FPTN=VM_FORWARD_FILE_NAME,NAME='***SEND_INTERNAL_FORWARD_TEXT',
      124     6478                     STCLASS="CONSTANT SYMDEF");
      125     6505          %VLP_NAME (FPTN=VM_FORWARD_ENCL_NAME,NAME='***SEND_INTERNAL_FORWARD_ENCL',
      126     6506                     STCLASS="CONSTANT SYMDEF");
      127     6533          %VLP_PASS (FPTN=VM_FORWARD_FILE_PASS,PASS='DWCJML83',STCLASS="CONSTANT SYMDEF");
      128     6546          %VLP_NAME (FPTN=VM_MAILCG_NAME,NAME='MAIL_CG',STCLASS="CONSTANT SYMDEF");
      129     6573    1   DCL VM_SITENAME CHAR(8) STATIC SYMDEF;
      130     6574          %VLP_SETSTA (FPTN=VM_MAILCG_SETSTA,STCLASS="STATIC SYMDEF");
      131     6602                                      /* Strip VFC on formatted writes? Default=NO    */
      132     6603        /***** Dcbs *****/
      133     6604    1   DCL M$MAIL_FILE DCB;
      134     6605                                                /* Open to current MAIL folder        */
      135     6606    1   DCL M$MAIL_CENTRAL DCB;
      136     6607                                 /* Open to CENTRAL FOLDER for this user. INPUT only  */
      137     6608    1   DCL M$MAIL_GLOBAL DCB;
      138     6609                            /* Open to GLOBAL MAIL folder (i.e. :MAIL_CENTRAL.:MAIL)  */
      139     6610    1   DCL M$WORK DCB;
      140     6611                                                /* Used for creating work files       */
      141     6612    1   DCL M$MAIL_COMGROUP DCB;
      142     6613                                                /* Used for comgroup communications   */
      143     6614    1   DCL M$DO DCB;
      144     6615                                                /* Used for reporting errors          */
      145     6616    1   DCL M$LO DCB;
      146     6617                                                /* Used for DISPLAYing information    */
      147     6618    1   DCL M$ME DCB;
      148     6619                            /* Used for displaying other information and echoing cmds */
      149     6620    1   DCL M$NODE DCB;
      150     6621                                                /* Used for opening :NODES.           */
      151     6622    1   DCL M$SI DCB;
      152     6623                                                /* Used for input from the user       */
      153     6624                   /* These dcbs are used for resolving addresses.
      154     6625                      Each one points to a folder in the SEARCH LIST. */
      155     6626        /***** Variables to point to dcbs *****/
      156     6627    1   DCL M$MAIL_FILE_NUM UBIN WORD STATIC SYMDEF INIT(DCBNUM(M$MAIL_FILE));
      157     6628                                      /* Points to the currently open mail folder.    */
      158     6629    1   DCL M$MAIL_CENTRAL_NUM UBIN WORD STATIC SYMDEF INIT(DCBNUM(M$MAIL_CENTRAL));
      159     6630                                 /* Points to the CENTRAL FOLDER for current user     */
PL6.E3A0      #001=VM_DATA_D File=VM_DATA_D.:VMB6TSI                             WED 08/20/97 15:26 Page:18
      160     6631    1   DCL M$MAIL_GLOBAL_NUM UBIN WORD STATIC SYMDEF INIT(DCBNUM(M$MAIL_GLOBAL));
      161     6632                                 /* Points to the GLOBAL MAIL folder and address list */
      162     6633    1   DCL M$WORK_NUM UBIN WORD STATIC SYMDEF INIT(DCBNUM(M$WORK));
      163     6634                                                /* Points to the work file            */
      164     6635    1   DCL M$MAIL_COMGROUP_NUM UBIN WORD STATIC SYMDEF INIT(DCBNUM(M$MAIL_COMGROUP));
      165     6636                            /* Points to the dcb used for all COMGROUP communication  */
      166     6637    1   DCL M$DO_NUM UBIN WORD STATIC SYMDEF INIT(DCBNUM(M$DO));
      167     6638                                 /* Points to dcb used for displaying error messages  */
      168     6639    1   DCL M$ME_NUM UBIN WORD STATIC SYMDEF INIT(DCBNUM(M$ME));
      169     6640                            /* Points to the dcb used for DISPLAY and LIST output     */
      170     6641    1   DCL M$LO_NUM UBIN WORD STATIC SYMDEF INIT(DCBNUM(M$LO));
      171     6642                  /* Points to the dcb used for all other messages, except errors     */
      172     6643    1   DCL M$SI_NUM UBIN WORD STATIC SYMDEF INIT(DCBNUM(M$SI));
      173     6644    1   DCL M$NODE_NUM UBIN WORD STATIC SYMDEF INIT(DCBNUM(M$NODE));
      174     6645                                                /* Points to :NODES                   */
      175     6646    1   END VM_DATA_D;

PL6.E3A0      #001=VM_DATA_D File=VM_DATA_D.:VMB6TSI                             WED 08/20/97 15:26 Page:19
--  Include file information  --

   CP_6_C.:LIB_E05  is referenced.
   CP_6.:LIB_E05  cannot be made into a system file and is referenced.
   B_SEGIDS_C.:LIB_E05  is referenced.
      No diagnostics issued in procedure VM_DATA_D.
PL6.E3A0      #001=VM_DATA_D File=VM_DATA_D.:VMB6TSI                             WED 08/20/97 15:26 Page:20

 **** Variables and constants ****

  ****  Section 001 RoData VM_DATA_D

  ****  Scalars and arrays  ****
OctLoc.c.b A Datatyp(siz) R M Lvl/name                 OctLoc.c.b A Datatyp(siz) R M Lvl/name

     3-0-0/b STRC              1 VM_ADDLIST$                4-0-0/b STRC              1 VM_ADDREC$
     7-0-0/b STRC              1 VM_COPY$                  40-0-0/c STRC(270)         1 VM_FORWARD_ENCL_NAME
    30-0-0/c STRC(270)         1 VM_FORWARD_FILE_NAME      50-0-0/c STRC(72)          1 VM_FORWARD_FILE_PASS
     0-0-0/b STRC              1 VM_HEADER$                12-0-0/d STRC(72)          1 VM_HEADER_INIT_
    10-0-0/b STRC              1 VM_INPUT$                 52-0-0/c STRC(72)          1 VM_MAILCG_NAME
    14-0-0/c STRC(72)          1 VM_MAIL_ACCT              16-0-0/c STRC(54)          1 VM_NAME_MAP_NAME
     5-0-0/b STRC              1 VM_PARSEAREA$              1-0-0/b STRC              1 VM_PROFILE$
     6-0-0/b STRC              1 VM_SELECT$                20-0-0/c STRC(288)         1 VM_SEND_FILE_NAME
     2-0-0/b STRC              1 VM_WORK$

  ****  Section 002  Data  VM_DATA_D

  ****  Scalars and arrays  ****
OctLoc.c.b A Datatyp(siz) R M Lvl/name                 OctLoc.c.b A Datatyp(siz) R M Lvl/name

    30-0-0/c STRC(171)         1 ERRMSG_FID                60-0-0/w UBIN              1 M$DO_NUM
    62-0-0/w UBIN              1 M$LO_NUM                  54-0-0/w UBIN              1 M$MAIL_CENTRAL_NUM
    57-0-0/w UBIN              1 M$MAIL_COMGROUP_NUM       53-0-0/w UBIN              1 M$MAIL_FILE_NUM
    55-0-0/w UBIN              1 M$MAIL_GLOBAL_NUM         61-0-0/w UBIN              1 M$ME_NUM
    64-0-0/w UBIN              1 M$NODE_NUM                63-0-0/w UBIN              1 M$SI_NUM
    56-0-0/w UBIN              1 M$WORK_NUM                10-0-0/d STRC(72)          1 VM_ADDLIST_
    12-0-0/d STRC(72)          1 VM_ADDREC_                20-0-0/d STRC(72)          1 VM_COPY_
     0-0-0/b STRC              1 VM_ENCLLIST$              24-0-0/d STRC(72)          1 VM_ENCLLIST_
     1-0-0/b STRC              1 VM_ENCLREC$               26-0-0/d STRC(72)          1 VM_ENCLREC_
     2-0-0/d STRC(72)          1 VM_HEADER_                22-0-0/d STRC(72)          1 VM_INPUT_
    37-0-0/w STRC(432)         1 VM_MAILCG_SETSTA          14-0-0/d STRC(72)          1 VM_PARSEAREA_
     4-0-0/d STRC(72)          1 VM_PROFILE_               16-0-0/d STRC(72)          1 VM_SELECT_
    35-0-0/c CHAR(8)           1 VM_SITENAME                6-0-0/d STRC(72)          1 VM_WORK_

  ****  BASED and DCB variables  ****
PL6.E3A0      #001=VM_DATA_D File=VM_DATA_D.:VMB6TSI                             WED 08/20/97 15:26 Page:21

  ****  Scalars and arrays  ****
OctLoc.c.b A Datatyp(siz) R M Lvl/name                 OctLoc.c.b A Datatyp(siz) R M Lvl/name

     0-0-0N  NULL        r     1 M$DO                       0-0-0N  NULL        r     1 M$LO
     0-0-0N  NULL        r     1 M$MAIL_CENTRAL             0-0-0N  NULL        r     1 M$MAIL_COMGROUP
     0-0-0N  NULL        r     1 M$MAIL_FILE                0-0-0N  NULL        r     1 M$MAIL_GLOBAL
     0-0-0N  NULL        r     1 M$ME                       0-0-0N  NULL        r     1 M$NODE
     0-0-0N  NULL        r     1 M$SI                       0-0-0N  NULL        r     1 M$UC
     0-0-0N  NULL        r     1 M$WORK


   No code generated for procedure VM_DATA_D .
   Procedure VM_DATA_D requires 4 words of local(AUTO) storage.

    No errors detected in file VM_DATA_D.:VMB6TSI    .
PL6.E3A0      #001=VM_DATA_D File=VM_DATA_D.:VMB6TSI                             WED 08/20/97 15:26 Page:22
          *** CROSS REFERENCE LISTING ***
**     DENOTES     IDENTIFIER DEFINITION
<<                 IDENTIFIER'S VALUE SET
>>                 IDENTIFIER'S VALUE USED
<>                 IDENTIFIER SET AND/OR USED
--                 IDENTIFIER REFERENCED
PL6.E3A0      #001=VM_DATA_D File=VM_DATA_D.:VMB6TSI                             WED 08/20/97 15:26 Page:23
          MINI XREF LISTING

VM_ADDLIST_.W2
      6273**DCL      6274--REDEF
VM_ADDREC_.W2
      6288**DCL      6289--REDEF
VM_COPY_.W2
      6333**DCL      6334--REDEF
VM_ENCLLIST_.W2
      6363**DCL      6364--REDEF
VM_ENCLREC_.W2
      6378**DCL      6379--REDEF
VM_HEADER_.W2
      6213**DCL      6214--REDEF
VM_HEADER_INIT_.W2
      6228**DCL      6229--REDEF
VM_INPUT_.W2
      6348**DCL      6349--REDEF
VM_PARSEAREA_.W2
      6303**DCL      6304--REDEF
VM_PROFILE_.W2
      6243**DCL      6244--REDEF
VM_SELECT_.W2
      6318**DCL      6319--REDEF
VM_WORK_.W2
      6258**DCL      6259--REDEF
