PL6.E3A0      #002=VNS$XCON File=VNS$SEND.:VMB6TSI                               WED 08/20/97 15:30 Page:490
     3044        1        /*T***********************************************************/
     3045        2        /*T*                                                         */
     3046        3        /*T* Copyright (c) Bull HN Information Systems Inc., 1997    */
     3047        4        /*T*                                                         */
     3048        5        /*T***********************************************************/
     3049        6        /*X* DMC,PLM=4,IND=4,CTI=2,DTI=0,ENI=0,ECI=0,CSI=0,DCI=4 */
     3050        7        /*P*    NAME: VNS$XCON
     3051        8                PURPOSE: CLEANUP ON EXIT FROM SEND
     3052        9                DESCRIPTION: THIS ROUTINE IS ENTERED ON EXIT TO CLOSE FILES.
     3053       10        */
     3054       11        VNS$XCON: PROC ASYNC ALTRET;
     3055       12        %INCLUDE CP_6;
     3056     5571          %INCLUDE CP_6_SUBS;
     3057     6111          %INCLUDE VM_DATA_R;
     3058     6542        /***** Macros *****/
     3059     6543          %F$DCB;
     3060     6600            %FPT_CLOSE( FPTN=CLOSE_SAVE_CONST, DISP=SAVE, STCLASS=CONSTANT );
     3061     6642
     3062     6643          %FPT_CLOSE( FPTN=CLOSE_SAVE,    STCLASS="" );
     3063     6685          %FPT_CLOSE( FPTN=CLOSE_SCRATCH, STCLASS="" );
     3064     6727
     3065     6728        /***** Dcbs *****/
     3066     6729    1   DCL M$EDIT DCB;
     3067     6730
     3068     6731        %VLP_NAME( FPTN=VN_BODY,   LEN=23,L=23, NAME=' ',STCLASS="STATIC SYMDEF");
     3069     6758        %VLP_NAME( FPTN=VN_BODY2,  LEN=23,L=23, NAME=' ',STCLASS="STATIC SYMDEF");
     3070     6785        %VLP_NAME( FPTN=VN_OPTIONS,LEN=23,L=23, NAME=' ',STCLASS="STATIC SYMDEF");
     3071     6812        %VLP_NAME( FPTN=VN_BREAK_PROMPT,LEN=50,L=50,NAME=' ',STCLASS="STATIC SYMDEF");
     3072     6839        %VLP_NAME( FPTN=VN_QUIT_OR_CONT,LEN=4,L=4,NAME=' ',STCLASS="STATIC SYMDEF");
     3073     6866        %EJECT;
PL6.E3A0      #002=VNS$XCON File=VNS$SEND.:VMB6TSI                               WED 08/20/97 15:30 Page:491
     3074     6867    1       call M$XCON; /**  Release exit control  **/
     3075     6868
     3076     6869    1       CLOSE_SAVE      = CLOSE_SAVE_CONST;
     3077     6870    1       CLOSE_SAVE.V_   = vector(CLOSE_SAVE.V);
     3078     6871
     3079     6872    1       CLOSE_SCRATCH   = CLOSE_SAVE_CONST;
     3080     6873    1       CLOSE_SCRATCH.V_ = vector(CLOSE_SCRATCH.V);
     3081     6874    1       CLOSE_SCRATCH.V.DISP# = %SCRATCH#;
     3082     6875    1       IF DCBADDR(M$ME_NUM) -> F$DCB.FCD#
     3083     6876    2       THEN DO;
     3084     6877    2           CLOSE_SAVE.V.DCB# = M$ME_NUM;
     3085     6878    2           CALL M$CLOSE (CLOSE_SAVE) ALTRET(E_CLOSE_M$ME);
     3086     6879    2   E_CLOSE_M$ME:
     3087     6880    2       END;
     3088     6881    1       IF DCBADDR(M$SI_NUM) -> F$DCB.FCD#
     3089     6882    2       THEN DO;
     3090     6883    2           CLOSE_SAVE.V.DCB# = M$SI_NUM;
     3091     6884    2           CALL M$CLOSE (CLOSE_SAVE) ALTRET(E_CLOSE_M$SI);
     3092     6885    2   E_CLOSE_M$SI:
     3093     6886    2       END;
     3094     6887    1       IF DCBADDR(M$WORK_NUM) -> F$DCB.FCD#
     3095     6888    2       THEN DO;
     3096     6889    2           CLOSE_SCRATCH.V.DCB# = M$WORK_NUM;
     3097     6890    2           CALL M$CLOSE (CLOSE_SCRATCH) ALTRET(E_CLOSE_M$WORK);
     3098     6891    2   E_CLOSE_M$WORK:
     3099     6892    2       END;
     3100     6893    1       IF DCBADDR(M$MAIL_FILE_NUM) -> F$DCB.FCD#
     3101     6894    2       THEN DO;
     3102     6895    2           CLOSE_SAVE.V.DCB# = M$MAIL_FILE_NUM;
     3103     6896    2           CALL M$CLOSE (CLOSE_SAVE) ALTRET(E_CLOSE_M$MAIL_FILE);
     3104     6897    2   E_CLOSE_M$MAIL_FILE:
     3105     6898    2       END;
     3106     6899    1       IF DCBADDR(DCBNUM(M$EDIT)) -> F$DCB.FCD#
     3107     6900    2       THEN DO;
     3108     6901    2           CLOSE_SCRATCH.V.DCB# = DCBNUM(M$EDIT);
     3109     6902    2           CALL M$CLOSE (CLOSE_SCRATCH) ALTRET(E_CLOSE_M$EDIT);
     3110     6903    2   E_CLOSE_M$EDIT:
PL6.E3A0      #002=VNS$XCON File=VNS$SEND.:VMB6TSI                               WED 08/20/97 15:30 Page:492
     3111     6904    2       END;
     3112     6905    1       IF DCBADDR(M$NODE_NUM) -> F$DCB.FCD#
     3113     6906    2       THEN DO;
     3114     6907    2           CLOSE_SAVE.V.DCB# = M$NODE_NUM;
     3115     6908    2           CALL M$CLOSE (CLOSE_SAVE) ALTRET(E_CLOSE_SITE);
     3116     6909    2   E_CLOSE_SITE:
     3117     6910    2       END;
     3118     6911    1       IF DCBADDR(M$MAIL_COMGROUP_NUM) -> F$DCB.FCD#
     3119     6912    2       THEN DO;
     3120     6913    2           CLOSE_SAVE.V.DCB# = M$MAIL_COMGROUP_NUM;
     3121     6914    2           CALL M$CLOSE (CLOSE_SAVE) ALTRET(E_CLOSE_MAIL_CG);
     3122     6915    2   E_CLOSE_MAIL_CG:
     3123     6916    2       END;
     3124     6917
     3125     6918    1       ALTRETURN;  /**  continue running down SEND  **/
     3126     6919    1   END VNS$XCON;
     3127     6920        %EOD;

PL6.E3A0      #002=VNS$XCON File=VNS$SEND.:VMB6TSI                               WED 08/20/97 15:30 Page:493
--  Include file information  --

   B_MACROS_C.:LIB_E05  is referenced.
   VM_DATA_R.:VMB6TOU  cannot be made into a system file and is referenced.
   CP_6_SUBS.:LIB_E05  is referenced.
   CP_6_C.:LIB_E05  is referenced.
   CP_6.:LIB_E05  cannot be made into a system file and is referenced.
      No diagnostics issued in procedure VNS$XCON.

   Procedure VNS$XCON requires 109 words for executable code.
   Procedure VNS$XCON requires 66 words of local(AUTO) storage.

PL6.E3A0      #002=VNS$XCON File=VNS$SEND.:VMB6TSI                               WED 08/20/97 15:30 Page:494

 Object Unit name= VNS$XCON                                   File name= VNS$SEND.:VMB6TOU
 UTS= AUG 20 '97 15:30:25.68 WED                              Compiler= PL-6/E31         Sev=      00
 SharedLib= :SHARED_SYSTEM                                    Alt SharedLib=


    ****  Control sections  ****

 Sect   Type Bound  Init  Size OctSiz  Section name(segment info)
    0   DCB   even  none     0      0  M$UC
    1   DCB   even  none     0      0  M$MAIL_FILE
    2   DCB   even  none     0      0  M$MAIL_CENTRAL
    3   DCB   even  none     0      0  M$MAIL_GLOBAL
    4   DCB   even  none     0      0  M$WORK
    5   DCB   even  none     0      0  M$MAIL_COMGROUP
    6   DCB   even  none     0      0  M$DO
    7   DCB   even  none     0      0  M$LO
    8   DCB   even  none     0      0  M$ME
    9   DCB   even  none     0      0  M$NODE
   10   DCB   even  none     0      0  M$SI
   11  RoData even  UTS     30     36  VNS$XCON
   12   DCB   even  none     0      0  M$EDIT
   13   Data  even  none    33     41  VNS$XCON
   14   Proc  even  none   109    155  VNS$XCON
   15  RoData even  none     2      2  VNS$XCON

    ****  Entry defs  ****

                              Check   Calling
                             calling  sequence
  Sect OctLoc Primary Altret sequence   type   Parms  Name
    14      0   yes    yes     yes     Async       0  VNS$XCON
PL6.E3A0      #002=VNS$XCON File=VNS$SEND.:VMB6TSI                               WED 08/20/97 15:30 Page:495

  ****  Data defs  ****

 Sect OctLoc  Name                           Sect OctLoc  Name
   13      0  VN_BODY                           13      6  VN_BODY2
   13     14  VN_OPTIONS                        13     22  VN_BREAK_PROMPT
   13     37  VN_QUIT_OR_CONT

  ****  Entry refs  ****

         Check        Calling
        calling       sequence
Altret sequence SRef   type   Args  Name
                       nStd      0 X66_AAUTO
                       nStd      0 X66_AAALT

  ****  Data refs  ****

  Flags:  r = read only, s = secondary
Flgs Name                             Flgs Name                             Flgs Name
     M$UC                             r    VM_HEADER$                       r    VM_PROFILE$
r    VM_ADDLIST$                      r    VM_ADDREC$                       r    VM_WORK$
r    VM_SELECT$                       r    VM_PARSEAREA$                    r    VM_INPUT$
r    VM_COPY$                              VM_ENCLLIST$                          VM_ENCLREC$
     VM_HEADER_                            VM_HEADER_INIT_                       VM_PROFILE_
     VM_ADDLIST_                           VM_ADDREC_                            VM_WORK_
     VM_SELECT_                            VM_PARSEAREA_                         VM_INPUT_
     VM_COPY_                              VM_ENCLLIST_                          VM_ENCLREC_
     M$MAIL_FILE                           M$MAIL_CENTRAL                        M$MAIL_GLOBAL
     M$WORK                                M$MAIL_COMGROUP                       M$DO
     M$LO                                  M$ME                                  M$NODE
     M$SI                                  M$MAIL_FILE_NUM                       M$MAIL_CENTRAL_NUM
     M$MAIL_GLOBAL_NUM                     M$WORK_NUM                            M$MAIL_COMGROUP_NUM
     M$DO_NUM                              M$ME_NUM                              M$LO_NUM
     M$SI_NUM                              M$NODE_NUM                       r    B$JIT$
r    B$TCB$                                VM_MAIL_ACCT                          VM_NAME_MAP_NAME
     ERRMSG_FID                            VM_SEND_FILE_NAME                     VM_FORWARD_FILE_NAME
     VM_FORWARD_ENCL_NAME                  VM_FORWARD_FILE_PASS                  VM_MAILCG_NAME
PL6.E3A0      #002=VNS$XCON File=VNS$SEND.:VMB6TSI                               WED 08/20/97 15:30 Page:496
     VM_SITENAME                           VM_MAILCG_SETSTA                      M$EDIT

  ****  Segment refs  ****

  Flags:  r = read only, s = secondary
Flgs Name                             Flgs Name                             Flgs Name
     ISSID                                 NULLSID                               ROSID
PL6.E3A0      #002=VNS$XCON File=VNS$SEND.:VMB6TSI                               WED 08/20/97 15:30 Page:497


     3044        1        /*T***********************************************************/
     3045        2        /*T*                                                         */
     3046        3        /*T* Copyright (c) Bull HN Information Systems Inc., 1997    */
     3047        4        /*T*                                                         */
     3048        5        /*T***********************************************************/
     3049        6        /*X* DMC,PLM=4,IND=4,CTI=2,DTI=0,ENI=0,ECI=0,CSI=0,DCI=4 */
     3050        7        /*P*    NAME: VNS$XCON
     3051        8                PURPOSE: CLEANUP ON EXIT FROM SEND
     3052        9                DESCRIPTION: THIS ROUTINE IS ENTERED ON EXIT TO CLOSE FILES.
     3053       10        */
     3054       11        VNS$XCON: PROC ASYNC ALTRET;

     11 14 000000   000000 700200 xent  VNS$XCON     TSX0  ! X66_AAUTO
        14 000001   000102 000000                    ZERO    66,0

     3055       12        %INCLUDE CP_6;
     3056     5571          %INCLUDE CP_6_SUBS;
     3057     6111          %INCLUDE VM_DATA_R;
     3058     6542        /***** Macros *****/
     3059     6543          %F$DCB;
     3060     6600            %FPT_CLOSE( FPTN=CLOSE_SAVE_CONST, DISP=SAVE, STCLASS=CONSTANT );
     3061     6642
     3062     6643          %FPT_CLOSE( FPTN=CLOSE_SAVE,    STCLASS="" );
     3063     6685          %FPT_CLOSE( FPTN=CLOSE_SCRATCH, STCLASS="" );
     3064     6727
     3065     6728        /***** Dcbs *****/
     3066     6729    1   DCL M$EDIT DCB;
     3067     6730
     3068     6731        %VLP_NAME( FPTN=VN_BODY,   LEN=23,L=23, NAME=' ',STCLASS="STATIC SYMDEF");
     3069     6758        %VLP_NAME( FPTN=VN_BODY2,  LEN=23,L=23, NAME=' ',STCLASS="STATIC SYMDEF");
     3070     6785        %VLP_NAME( FPTN=VN_OPTIONS,LEN=23,L=23, NAME=' ',STCLASS="STATIC SYMDEF");
     3071     6812        %VLP_NAME( FPTN=VN_BREAK_PROMPT,LEN=50,L=50,NAME=' ',STCLASS="STATIC SYMDEF");
     3072     6839        %VLP_NAME( FPTN=VN_QUIT_OR_CONT,LEN=4,L=4,NAME=' ',STCLASS="STATIC SYMDEF");
     3073     6866        %EJECT;
PL6.E3A0      #002=VNS$XCON File=VNS$SEND.:VMB6TSI                               WED 08/20/97 15:30 Page:498
     3074     6867    1       call M$XCON; /**  Release exit control  **/

   6867 14 000002   010003 713400                    CLIMB   4099
        14 000003   000000 401760                    pmme    nvectors=0

     3075     6868
     3076     6869    1       CLOSE_SAVE      = CLOSE_SAVE_CONST;

   6869 14 000004   000100 100400                    MLR     fill='000'O
        14 000005   000000 000170 11                 ADSC9   CLOSE_SAVE_CONST         cn=0,n=120
        14 000006   200004 000170                    ADSC9   CLOSE_SAVE,,AUTO         cn=0,n=120

     3077     6870    1       CLOSE_SAVE.V_   = vector(CLOSE_SAVE.V);

   6870 14 000007   000000 235000 15                 LDA     0
        14 000010   200100 452500                    STP2    CLOSE_SCRATCH+30,,AUTO
        14 000011   200100 236100                    LDQ     CLOSE_SCRATCH+30,,AUTO
        14 000012   000036 036003                    ADLQ    30,DU
        14 000013   200004 757100                    STAQ    CLOSE_SAVE,,AUTO

     3078     6871
     3079     6872    1       CLOSE_SCRATCH   = CLOSE_SAVE_CONST;

   6872 14 000014   000100 100400                    MLR     fill='000'O
        14 000015   000000 000170 11                 ADSC9   CLOSE_SAVE_CONST         cn=0,n=120
        14 000016   200042 000170                    ADSC9   CLOSE_SCRATCH,,AUTO      cn=0,n=120

     3080     6873    1       CLOSE_SCRATCH.V_ = vector(CLOSE_SCRATCH.V);

   6873 14 000017   000000 235000 15                 LDA     0
        14 000020   200100 452500                    STP2    CLOSE_SCRATCH+30,,AUTO
        14 000021   200100 236100                    LDQ     CLOSE_SCRATCH+30,,AUTO
        14 000022   000074 036003                    ADLQ    60,DU
        14 000023   200042 757100                    STAQ    CLOSE_SCRATCH,,AUTO

     3081     6874    1       CLOSE_SCRATCH.V.DISP# = %SCRATCH#;

PL6.E3A0      #002=VNS$XCON File=VNS$SEND.:VMB6TSI                               WED 08/20/97 15:30 Page:499
   6874 14 000024   000001 236007                    LDQ     1,DL
        14 000025   200074 552104                    STBQ    CLOSE_SCRATCH+26,'04'O,AUTO

     3082     6875    1       IF DCBADDR(M$ME_NUM) -> F$DCB.FCD#

   6875 14 000026   000001 470400 15                 LDP0    1
        14 000027   000000 471500                    LDP1    0,,PR0
        14 000030   000000 720000 xsym               LXL0    M$ME_NUM
        14 000031   100000 473510                    LDP3    0,X0,PR1
        14 000032   300031 236100                    LDQ     25,,PR3
        14 000033   020000 316007                    CANQ    8192,DL
        14 000034   000042 600000 14                 TZE     E_CLOSE_M$ME

     3083     6876    2       THEN DO;

     3084     6877    2           CLOSE_SAVE.V.DCB# = M$ME_NUM;

   6877 14 000035   200036 740100                    STX0    CLOSE_SAVE+26,,AUTO

     3085     6878    2           CALL M$CLOSE (CLOSE_SAVE) ALTRET(E_CLOSE_M$ME);

   6878 14 000036   200004 630500                    EPPR0   CLOSE_SAVE,,AUTO
        14 000037   450001 713400                    CLIMB   alt,close
        14 000040   406000 401760                    pmme    nvectors=13
        14 000041   000042 702000 14                 TSX2    E_CLOSE_M$ME

     3086     6879    2   E_CLOSE_M$ME:
     3087     6880    2       END;

   6880 14 000042                       E_CLOSE_M$ME null
     3088     6881    1       IF DCBADDR(M$SI_NUM) -> F$DCB.FCD#

   6881 14 000042   000001 470400 15                 LDP0    1
        14 000043   000000 471500                    LDP1    0,,PR0
        14 000044   000000 720000 xsym               LXL0    M$SI_NUM
        14 000045   100000 473510                    LDP3    0,X0,PR1
        14 000046   300031 236100                    LDQ     25,,PR3
PL6.E3A0      #002=VNS$XCON File=VNS$SEND.:VMB6TSI                               WED 08/20/97 15:30 Page:500
        14 000047   020000 316007                    CANQ    8192,DL
        14 000050   000056 600000 14                 TZE     E_CLOSE_M$SI

     3089     6882    2       THEN DO;

     3090     6883    2           CLOSE_SAVE.V.DCB# = M$SI_NUM;

   6883 14 000051   200036 740100                    STX0    CLOSE_SAVE+26,,AUTO

     3091     6884    2           CALL M$CLOSE (CLOSE_SAVE) ALTRET(E_CLOSE_M$SI);

   6884 14 000052   200004 630500                    EPPR0   CLOSE_SAVE,,AUTO
        14 000053   450001 713400                    CLIMB   alt,close
        14 000054   406000 401760                    pmme    nvectors=13
        14 000055   000056 702000 14                 TSX2    E_CLOSE_M$SI

     3092     6885    2   E_CLOSE_M$SI:
     3093     6886    2       END;

   6886 14 000056                       E_CLOSE_M$SI null
     3094     6887    1       IF DCBADDR(M$WORK_NUM) -> F$DCB.FCD#

   6887 14 000056   000001 470400 15                 LDP0    1
        14 000057   000000 471500                    LDP1    0,,PR0
        14 000060   000000 720000 xsym               LXL0    M$WORK_NUM
        14 000061   100000 473510                    LDP3    0,X0,PR1
        14 000062   300031 236100                    LDQ     25,,PR3
        14 000063   020000 316007                    CANQ    8192,DL
        14 000064   000072 600000 14                 TZE     E_CLOSE_M$WORK

     3095     6888    2       THEN DO;

     3096     6889    2           CLOSE_SCRATCH.V.DCB# = M$WORK_NUM;

   6889 14 000065   200074 740100                    STX0    CLOSE_SCRATCH+26,,AUTO

     3097     6890    2           CALL M$CLOSE (CLOSE_SCRATCH) ALTRET(E_CLOSE_M$WORK);
PL6.E3A0      #002=VNS$XCON File=VNS$SEND.:VMB6TSI                               WED 08/20/97 15:30 Page:501

   6890 14 000066   200042 630500                    EPPR0   CLOSE_SCRATCH,,AUTO
        14 000067   450001 713400                    CLIMB   alt,close
        14 000070   406000 401760                    pmme    nvectors=13
        14 000071   000072 702000 14                 TSX2    E_CLOSE_M$WORK

     3098     6891    2   E_CLOSE_M$WORK:
     3099     6892    2       END;

   6892 14 000072                       E_CLOSE_M$W* null
     3100     6893    1       IF DCBADDR(M$MAIL_FILE_NUM) -> F$DCB.FCD#

   6893 14 000072   000001 470400 15                 LDP0    1
        14 000073   000000 471500                    LDP1    0,,PR0
        14 000074   000000 720000 xsym               LXL0    M$MAIL_FILE_NUM
        14 000075   100000 473510                    LDP3    0,X0,PR1
        14 000076   300031 236100                    LDQ     25,,PR3
        14 000077   020000 316007                    CANQ    8192,DL
        14 000100   000106 600000 14                 TZE     E_CLOSE_M$MAIL_FILE

     3101     6894    2       THEN DO;

     3102     6895    2           CLOSE_SAVE.V.DCB# = M$MAIL_FILE_NUM;

   6895 14 000101   200036 740100                    STX0    CLOSE_SAVE+26,,AUTO

     3103     6896    2           CALL M$CLOSE (CLOSE_SAVE) ALTRET(E_CLOSE_M$MAIL_FILE);

   6896 14 000102   200004 630500                    EPPR0   CLOSE_SAVE,,AUTO
        14 000103   450001 713400                    CLIMB   alt,close
        14 000104   406000 401760                    pmme    nvectors=13
        14 000105   000106 702000 14                 TSX2    E_CLOSE_M$MAIL_FILE

     3104     6897    2   E_CLOSE_M$MAIL_FILE:
     3105     6898    2       END;

   6898 14 000106                       E_CLOSE_M$M* null
PL6.E3A0      #002=VNS$XCON File=VNS$SEND.:VMB6TSI                               WED 08/20/97 15:30 Page:502
     3106     6899    1       IF DCBADDR(DCBNUM(M$EDIT)) -> F$DCB.FCD#

   6899 14 000106   000000 236007 xsym               LDQ     M$EDIT,DL
        14 000107   000001 470400 15                 LDP0    1
        14 000110   000000 471500                    LDP1    0,,PR0
        14 000111   100000 473506                    LDP3    0,QL,PR1
        14 000112   300031 236100                    LDQ     25,,PR3
        14 000113   020000 316007                    CANQ    8192,DL
        14 000114   000124 600000 14                 TZE     E_CLOSE_M$EDIT

     3107     6900    2       THEN DO;

     3108     6901    2           CLOSE_SCRATCH.V.DCB# = DCBNUM(M$EDIT);

   6901 14 000115   000000 236007 xsym               LDQ     M$EDIT,DL
        14 000116   000000 620006                    EAX0    0,QL
        14 000117   200074 740100                    STX0    CLOSE_SCRATCH+26,,AUTO

     3109     6902    2           CALL M$CLOSE (CLOSE_SCRATCH) ALTRET(E_CLOSE_M$EDIT);

   6902 14 000120   200042 630500                    EPPR0   CLOSE_SCRATCH,,AUTO
        14 000121   450001 713400                    CLIMB   alt,close
        14 000122   406000 401760                    pmme    nvectors=13
        14 000123   000124 702000 14                 TSX2    E_CLOSE_M$EDIT

     3110     6903    2   E_CLOSE_M$EDIT:
     3111     6904    2       END;

   6904 14 000124                       E_CLOSE_M$E* null
     3112     6905    1       IF DCBADDR(M$NODE_NUM) -> F$DCB.FCD#

   6905 14 000124   000001 470400 15                 LDP0    1
        14 000125   000000 471500                    LDP1    0,,PR0
        14 000126   000000 720000 xsym               LXL0    M$NODE_NUM
        14 000127   100000 473510                    LDP3    0,X0,PR1
        14 000130   300031 236100                    LDQ     25,,PR3
        14 000131   020000 316007                    CANQ    8192,DL
PL6.E3A0      #002=VNS$XCON File=VNS$SEND.:VMB6TSI                               WED 08/20/97 15:30 Page:503
        14 000132   000140 600000 14                 TZE     E_CLOSE_SITE

     3113     6906    2       THEN DO;

     3114     6907    2           CLOSE_SAVE.V.DCB# = M$NODE_NUM;

   6907 14 000133   200036 740100                    STX0    CLOSE_SAVE+26,,AUTO

     3115     6908    2           CALL M$CLOSE (CLOSE_SAVE) ALTRET(E_CLOSE_SITE);

   6908 14 000134   200004 630500                    EPPR0   CLOSE_SAVE,,AUTO
        14 000135   450001 713400                    CLIMB   alt,close
        14 000136   406000 401760                    pmme    nvectors=13
        14 000137   000140 702000 14                 TSX2    E_CLOSE_SITE

     3116     6909    2   E_CLOSE_SITE:
     3117     6910    2       END;

   6910 14 000140                       E_CLOSE_SITE null
     3118     6911    1       IF DCBADDR(M$MAIL_COMGROUP_NUM) -> F$DCB.FCD#

   6911 14 000140   000001 470400 15                 LDP0    1
        14 000141   000000 471500                    LDP1    0,,PR0
        14 000142   000000 720000 xsym               LXL0    M$MAIL_COMGROUP_NUM
        14 000143   100000 473510                    LDP3    0,X0,PR1
        14 000144   300031 236100                    LDQ     25,,PR3
        14 000145   020000 316007                    CANQ    8192,DL
        14 000146   000154 600000 14                 TZE     E_CLOSE_MAIL_CG

     3119     6912    2       THEN DO;

     3120     6913    2           CLOSE_SAVE.V.DCB# = M$MAIL_COMGROUP_NUM;

   6913 14 000147   200036 740100                    STX0    CLOSE_SAVE+26,,AUTO

     3121     6914    2           CALL M$CLOSE (CLOSE_SAVE) ALTRET(E_CLOSE_MAIL_CG);

PL6.E3A0      #002=VNS$XCON File=VNS$SEND.:VMB6TSI                               WED 08/20/97 15:30 Page:504
   6914 14 000150   200004 630500                    EPPR0   CLOSE_SAVE,,AUTO
        14 000151   450001 713400                    CLIMB   alt,close
        14 000152   406000 401760                    pmme    nvectors=13
        14 000153   000154 702000 14                 TSX2    E_CLOSE_MAIL_CG

     3122     6915    2   E_CLOSE_MAIL_CG:
     3123     6916    2       END;

   6916 14 000154                       E_CLOSE_MAI* null
     3124     6917
     3125     6918    1       ALTRETURN;  /**  continue running down SEND  **/

   6918 14 000154   000000 702200 xent               TSX2  ! X66_AAALT

CLOSE_SAVE_CONST
 Sect OctLoc
  11     000   000003 777640   000032 006000   000000 177640   000000 006014    ................
  11     004   000000 177640   000000 006014   000000 177640   000000 006014    ................
  11     030*  000000 177640   000000 006014   000000 000002   000000 000040    ...............
  11     034   000220 000000   000000 000000                                    ........

VN_BODY
 Sect OctLoc
  13     000   027040 040040   040040 040040   040040 040040   040040 040040    .
  13     004   040040 040040   040040 040040

VN_BODY2
 Sect OctLoc
  13     006   027040 040040   040040 040040   040040 040040   040040 040040    .
  13     012   040040 040040   040040 040040

VN_OPTIONS
 Sect OctLoc
  13     014   027040 040040   040040 040040   040040 040040   040040 040040    .
  13     020   040040 040040   040040 040040

VN_BREAK_PROMPT
PL6.E3A0      #002=VNS$XCON File=VNS$SEND.:VMB6TSI                               WED 08/20/97 15:30 Page:505
 Sect OctLoc
  13     022   062040 040040   040040 040040   040040 040040   040040 040040    2
  13     026   040040 040040   040040 040040   040040 040040   040040 040040
  13     036*  040040 040***                                                       .

VN_QUIT_OR_CONT
 Sect OctLoc
  13     037   004040 040040   040*** ******                                    .    ...

(unnamed)
 Sect OctLoc
  15     000   000003 777640   000000 006003                                    ........
     3126     6919    1   END VNS$XCON;
     3127     6920        %EOD;

PL6.E3A0      #002=VNS$XCON File=VNS$SEND.:VMB6TSI                               WED 08/20/97 15:30 Page:506
--  Include file information  --

   B_MACROS_C.:LIB_E05  is referenced.
   VM_DATA_R.:VMB6TOU  cannot be made into a system file and is referenced.
   CP_6_SUBS.:LIB_E05  is referenced.
   CP_6_C.:LIB_E05  is referenced.
   CP_6.:LIB_E05  cannot be made into a system file and is referenced.
      No diagnostics issued in procedure VNS$XCON.
PL6.E3A0      #002=VNS$XCON File=VNS$SEND.:VMB6TSI                               WED 08/20/97 15:30 Page:507

 **** Variables and constants ****

  ****  Section 011 RoData VNS$XCON

  ****  Scalars and arrays  ****
OctLoc.c.b A Datatyp(siz) R M Lvl/name                 OctLoc.c.b A Datatyp(siz) R M Lvl/name

     0-0-0/d STRC(1080)  r     1 CLOSE_SAVE_CONST

  ****  Section 013  Data  VNS$XCON

  ****  Scalars and arrays  ****
OctLoc.c.b A Datatyp(siz) R M Lvl/name                 OctLoc.c.b A Datatyp(siz) R M Lvl/name

     0-0-0/c STRC(216)         1 VN_BODY                    6-0-0/c STRC(216)         1 VN_BODY2
    22-0-0/c STRC(459)         1 VN_BREAK_PROMPT           14-0-0/c STRC(216)         1 VN_OPTIONS
    37-0-0/c STRC(45)          1 VN_QUIT_OR_CONT

  ****  Auto variables  ****

  ****  Scalars and arrays  ****
OctLoc.c.b A Datatyp(siz) R M Lvl/name                 OctLoc.c.b A Datatyp(siz) R M Lvl/name

     4-0-0/d STRC(1080)  r     1 CLOSE_SAVE                42-0-0/d STRC(1080)  r     1 CLOSE_SCRATCH

  ****  SYMREF variables  ****

  ****  Scalars and arrays  ****
OctLoc.c.b A Datatyp(siz) R M Lvl/name                 OctLoc.c.b A Datatyp(siz) R M Lvl/name

     0-0-0/w PTR               1 B$JIT$                     0-0-0/w PTR               1 B$TCB$
     0-0-0/c ASTR(9)     r     1 ERRMSG_FID                 0-0-0/w UBIN              1 M$DO_NUM
     0-0-0/w UBIN              1 M$LO_NUM                   0-0-0/w UBIN              1 M$MAIL_CENTRAL_NUM
     0-0-0/w UBIN        r     1 M$MAIL_COMGROUP_NUM        0-0-0/w UBIN        r     1 M$MAIL_FILE_NUM
     0-0-0/w UBIN              1 M$MAIL_GLOBAL_NUM          0-0-0/w UBIN        r     1 M$ME_NUM
     0-0-0/w UBIN        r     1 M$NODE_NUM                 0-0-0/w UBIN        r     1 M$SI_NUM
     0-0-0/w UBIN        r     1 M$WORK_NUM                 0-0-0/w PTR               1 VM_ADDLIST$
PL6.E3A0      #002=VNS$XCON File=VNS$SEND.:VMB6TSI                               WED 08/20/97 15:30 Page:508
     0-0-0/d VECT              1 VM_ADDLIST_                0-0-0/w PTR               1 VM_ADDREC$
     0-0-0/d VECT              1 VM_ADDREC_                 0-0-0/w PTR               1 VM_COPY$
     0-0-0/d VECT              1 VM_COPY_                   0-0-0/w PTR               1 VM_ENCLLIST$
     0-0-0/d VECT              1 VM_ENCLLIST_               0-0-0/w PTR               1 VM_ENCLREC$
     0-0-0/d VECT              1 VM_ENCLREC_                0-0-0/c STRC(270)         1 VM_FORWARD_ENCL_NAME
     0-0-0/c STRC(270)         1 VM_FORWARD_FILE_NAME       0-0-0/c STRC(72)          1 VM_FORWARD_FILE_PASS
     0-0-0/w PTR               1 VM_HEADER$                 0-0-0/d VECT              1 VM_HEADER_
     0-0-0/d VECT              1 VM_HEADER_INIT_            0-0-0/w PTR               1 VM_INPUT$
     0-0-0/d VECT              1 VM_INPUT_                  0-0-0/c STRC(72)          1 VM_MAILCG_NAME
     0-0-0/w STRC(432)         1 VM_MAILCG_SETSTA           0-0-0/c STRC(72)          1 VM_MAIL_ACCT
     0-0-0/c STRC(54)          1 VM_NAME_MAP_NAME           0-0-0/w PTR               1 VM_PARSEAREA$
     0-0-0/d VECT              1 VM_PARSEAREA_              0-0-0/w PTR               1 VM_PROFILE$
     0-0-0/d VECT              1 VM_PROFILE_                0-0-0/w PTR               1 VM_SELECT$
     0-0-0/d VECT              1 VM_SELECT_                 0-0-0/c STRC(288)         1 VM_SEND_FILE_NAME
     0-0-0/c CHAR(8)           1 VM_SITENAME                0-0-0/w PTR               1 VM_WORK$
     0-0-0/d VECT              1 VM_WORK_

  ****  BASED and DCB variables  ****

  ****  Scalars and arrays  ****
OctLoc.c.b A Datatyp(siz) R M Lvl/name                 OctLoc.c.b A Datatyp(siz) R M Lvl/name

     0-0-0/d ASTR(3528)  r     1 F$DCB                      0-0-0N  NULL        r     1 M$DO
     0-0-0N  NULL        r     1 M$EDIT                     0-0-0N  NULL        r     1 M$LO
     0-0-0N  NULL        r     1 M$MAIL_CENTRAL             0-0-0N  NULL        r     1 M$MAIL_COMGROUP
     0-0-0N  NULL        r     1 M$MAIL_FILE                0-0-0N  NULL        r     1 M$MAIL_GLOBAL
     0-0-0N  NULL        r     1 M$ME                       0-0-0N  NULL        r     1 M$NODE
     0-0-0N  NULL        r     1 M$SI                       0-0-0N  NULL        r     1 M$UC
     0-0-0N  NULL        r     1 M$WORK                     0-0-0/c ASTR(9)     r     1 X$STRING


   Procedure VNS$XCON requires 109 words for executable code.
   Procedure VNS$XCON requires 66 words of local(AUTO) storage.
PL6.E3A0      #002=VNS$XCON File=VNS$SEND.:VMB6TSI                               WED 08/20/97 15:30 Page:509
          *** CROSS REFERENCE LISTING ***
**     DENOTES     IDENTIFIER DEFINITION
<<                 IDENTIFIER'S VALUE SET
>>                 IDENTIFIER'S VALUE USED
<>                 IDENTIFIER SET AND/OR USED
--                 IDENTIFIER REFERENCED
PL6.E3A0      #002=VNS$XCON File=VNS$SEND.:VMB6TSI                               WED 08/20/97 15:30 Page:510
          MINI XREF LISTING

CLOSE_SAVE
      6666**DCL      6869<<ASSIGN   6878<>CALL     6884<>CALL     6896<>CALL     6908<>CALL     6914<>CALL
CLOSE_SAVE.SN_
      6666**DCL      6666--REDEF
CLOSE_SAVE.UTL_
      6667**DCL      6667--REDEF
CLOSE_SAVE.V
      6671**DCL      6870--ASSIGN
CLOSE_SAVE.V.DCB#
      6672**DCL      6877<<ASSIGN   6883<<ASSIGN   6895<<ASSIGN   6907<<ASSIGN   6913<<ASSIGN
CLOSE_SAVE.V.EXPIRE#
      6681**DCL      6681--REDEF
CLOSE_SAVE.V.TYPE#
      6679**DCL      6679--REDEF
CLOSE_SAVE.V.XTNSIZE#
      6676**DCL      6676--REDEF    6678--REDEF
CLOSE_SAVE.V_
      6666**DCL      6870<<ASSIGN
CLOSE_SAVE_CONST
      6623**DCL      6869>>ASSIGN   6872>>ASSIGN
CLOSE_SAVE_CONST.SN_
      6623**DCL      6623--REDEF
CLOSE_SAVE_CONST.UTL_
      6624**DCL      6624--REDEF
CLOSE_SAVE_CONST.V
      6628**DCL      6623--DCLINIT
CLOSE_SAVE_CONST.V.EXPIRE#
      6638**DCL      6638--REDEF
CLOSE_SAVE_CONST.V.TYPE#
      6636**DCL      6636--REDEF
CLOSE_SAVE_CONST.V.XTNSIZE#
      6633**DCL      6633--REDEF    6635--REDEF
PL6.E3A0      #002=VNS$XCON File=VNS$SEND.:VMB6TSI                               WED 08/20/97 15:30 Page:511
CLOSE_SCRATCH
      6708**DCL      6872<<ASSIGN   6890<>CALL     6902<>CALL
CLOSE_SCRATCH.SN_
      6708**DCL      6708--REDEF
CLOSE_SCRATCH.UTL_
      6709**DCL      6709--REDEF
CLOSE_SCRATCH.V
      6713**DCL      6873--ASSIGN
CLOSE_SCRATCH.V.DCB#
      6714**DCL      6889<<ASSIGN   6901<<ASSIGN
CLOSE_SCRATCH.V.DISP#
      6717**DCL      6874<<ASSIGN
CLOSE_SCRATCH.V.EXPIRE#
      6723**DCL      6723--REDEF
CLOSE_SCRATCH.V.TYPE#
      6721**DCL      6721--REDEF
CLOSE_SCRATCH.V.XTNSIZE#
      6718**DCL      6718--REDEF    6720--REDEF
CLOSE_SCRATCH.V_
      6708**DCL      6873<<ASSIGN
ERRMSG_FID.L#
      6387**DCL      6387--IMP-SIZ
E_CLOSE_M$EDIT
      6904**LABEL    6902--CALLALT
E_CLOSE_M$MAIL_FILE
      6898**LABEL    6896--CALLALT
E_CLOSE_M$ME
      6880**LABEL    6878--CALLALT
E_CLOSE_M$SI
      6886**LABEL    6884--CALLALT
E_CLOSE_M$WORK
      6892**LABEL    6890--CALLALT
E_CLOSE_MAIL_CG
      6916**LABEL    6914--CALLALT
E_CLOSE_SITE
      6910**LABEL    6908--CALLALT
PL6.E3A0      #002=VNS$XCON File=VNS$SEND.:VMB6TSI                               WED 08/20/97 15:30 Page:512
F$DCB.ACTPOS
      6576**DCL      6576--REDEF
F$DCB.ARS#
      6550**DCL      6550--REDEF
F$DCB.ATTR
      6569**DCL      6570--REDEF
F$DCB.BORROW
      6584**DCL      6584--REDEF    6584--REDEF    6584--REDEF
F$DCB.DCBNAME.L
      6598**DCL      6598--IMP-SIZ
F$DCB.EOMCHAR#
      6554**DCL      6554--REDEF
F$DCB.FCD#
      6563**DCL      6875>>IF       6881>>IF       6887>>IF       6893>>IF       6899>>IF       6905>>IF
      6911>>IF
F$DCB.FLDID
      6579**DCL      6579--REDEF
F$DCB.FORM$
      6573**DCL      6573--REDEF
F$DCB.FSECT
      6589**DCL      6589--REDEF
F$DCB.FSN#
      6566**DCL      6566--REDEF    6566--REDEF    6567--REDEF
F$DCB.HEADER$
      6572**DCL      6572--REDEF
F$DCB.IXTNSIZE#
      6570**DCL      6570--REDEF
F$DCB.LASTSTA$
      6559**DCL      6559--REDEF
F$DCB.LVL
      6585**DCL      6585--REDEF
F$DCB.NAME#.C
      6560**DCL      6560--REDEF
F$DCB.NOEOF
      6582**DCL      6582--REDEF
F$DCB.NRECS#
PL6.E3A0      #002=VNS$XCON File=VNS$SEND.:VMB6TSI                               WED 08/20/97 15:30 Page:513
      6571**DCL      6571--REDEF
F$DCB.NRECX
      6590**DCL      6590--REDEF
F$DCB.OHDR
      6582**DCL      6582--REDEF
F$DCB.ORG#
      6565**DCL      6565--REDEF
F$DCB.PRECNO
      6588**DCL      6588--REDEF
F$DCB.RCSZ
      6594**DCL      6594--REDEF
F$DCB.RES#
      6561**DCL      6561--REDEF
F$DCB.SETX
      6573**DCL      6573--REDEF
F$DCB.TAB$
      6573**DCL      6573--REDEF
F$DCB.TDA
      6587**DCL      6588--REDEF
F$DCB.WSN#
      6561**DCL      6561--REDEF
M$CLOSE
      5499**DCL-ENT  6878--CALL     6884--CALL     6890--CALL     6896--CALL     6902--CALL     6908--CALL
      6914--CALL
M$EDIT
      6729**DCL      6899--IF       6901>>ASSIGN
M$MAIL_COMGROUP_NUM
      6306**DCL      6911--IF       6913>>ASSIGN
M$MAIL_FILE_NUM
      6298**DCL      6893--IF       6895>>ASSIGN
M$ME_NUM
      6310**DCL      6875--IF       6877>>ASSIGN
M$NODE_NUM
      6315**DCL      6905--IF       6907>>ASSIGN
M$SI_NUM
      6314**DCL      6881--IF       6883>>ASSIGN
PL6.E3A0      #002=VNS$XCON File=VNS$SEND.:VMB6TSI                               WED 08/20/97 15:30 Page:514
M$WORK_NUM
      6304**DCL      6887--IF       6889>>ASSIGN
M$XCON
      5554**DCL-ENT  6867--CALL
X$STRING.SIZ
      6233**DCL      6234--IMP-SIZ

PL6.E3A0      #003=VNS$BREAK File=VNS$SEND.:VMB6TSI                              WED 08/20/97 15:30 Page:515
     3128        1        /*T***********************************************************/
     3129        2        /*T*                                                         */
     3130        3        /*T* Copyright (c) Bull HN Information Systems Inc., 1997    */
     3131        4        /*T*                                                         */
     3132        5        /*T***********************************************************/
     3133        6        /*X* DMC,PLM=4,IND=4,CTI=2,DTI=0,ENI=0,ECI=0,CSI=0,DCI=4 */
     3134        7        /*F*
     3135        8            NAME: VNS$BREAK
     3136        9            PURPOSE: To process breaks.
     3137       10            DESCRIPTION:
     3138       11                SEND can't use XUR's break routine, but it needs similar logic
     3139       12                to defer breaks around processes that can only be interrupted
     3140       13                to abort SEND.  This is done via four procedures:
     3141       14
     3142       15                VNS$BREAK - the ASYNC routine for break events.
     3143       16                    Issues the break message if breaks aren't deferred,
     3144       17                    otherwise sets a flag to indicate a pending break.
     3145       18                Does _not_ reset break count, so 4 breaks while inhibited gets
     3146       19                the user a !! prompt, to allow a QUIT response to cancel SEND.
     3147       20                VNS$BREAK_DISABLE - called at start of critical process.
     3148       21                    Increments a counter which, if nonzero, indicates breaks
     3149       22                    are defered.  (A count is used instead of a flag so that
     3150       23                    nested calls can be handled.)
     3151       24                VNS$BREAK_ENABLE - called at end of critical processes.
     3152       25                    Decrements the deferal count, and, if zero, processes a
     3153       26                    pending break, if any.
     3154       27                VNS$BREAK_PROCESS - routine to issue break message.
     3155       28                    Common logic for VNS$BREAK and VNS$BREAK_ENABLE to issue
     3156       29                    a break message and either continue or unwind.
     3157       30        */
     3158       31        VNS$BREAK: PROC ASYNC;
     3159       32
     3160       33    1   DCL VNS_BREAK BIT(1) STATIC SYMDEF INIT('0'B);
     3161       34    1   DCL VNS_BREAK_INHIBIT SBIN STATIC SYMDEF INIT(0);
     3162       35
     3163       36    1   DCL VNS$BREAK_PROCESS ENTRY(1);
     3164       37
PL6.E3A0      #003=VNS$BREAK File=VNS$SEND.:VMB6TSI                              WED 08/20/97 15:30 Page:516
     3165       38    2       DO INHIBIT;
     3166       39    2           IF VNS_BREAK_INHIBIT > 0 OR VNS_BREAK
     3167       40    2           THEN        /* Breaks inhibited, wait 'til later to process */
     3168       41    2               RETURN;
     3169       42    2           VNS_BREAK = '1'B;
     3170       43    2       END;
     3171       44    1       CALL VNS$BREAK_PROCESS('1'B);
     3172       45    1       RETURN;
     3173       46
     3174       47    1   END VNS$BREAK;
     3175       48        %EOD;

PL6.E3A0      #003=VNS$BREAK File=VNS$SEND.:VMB6TSI                              WED 08/20/97 15:30 Page:517
      No diagnostics issued in procedure VNS$BREAK.

   Procedure VNS$BREAK requires 14 words for executable code.
   Procedure VNS$BREAK requires 4 words of local(AUTO) storage.

PL6.E3A0      #003=VNS$BREAK File=VNS$SEND.:VMB6TSI                              WED 08/20/97 15:30 Page:518

 Object Unit name= VNS$BREAK                                  File name= VNS$SEND.:VMB6TOU
 UTS= AUG 20 '97 15:30:43.24 WED                              Compiler= PL-6/E31         Sev=      00
 SharedLib= :SHARED_SYSTEM                                    Alt SharedLib=


    ****  Control sections  ****

 Sect   Type Bound  Init  Size OctSiz  Section name(segment info)
    0   Data  even  none     2      2  VNS$BREAK
    1   Proc  even  none    14     16  VNS$BREAK
    2  RoData even  none     3      3  VNS$BREAK

    ****  Entry defs  ****

                              Check   Calling
                             calling  sequence
  Sect OctLoc Primary Altret sequence   type   Parms  Name
     1      0   yes            yes     Async       0  VNS$BREAK

  ****  Data defs  ****

 Sect OctLoc  Name                           Sect OctLoc  Name
    0      0  VNS_BREAK                          0      1  VNS_BREAK_INHIBIT

  ****  Entry refs  ****

         Check        Calling
        calling       sequence
Altret sequence SRef   type   Args  Name
         yes           Std       1 VNS$BREAK_PROCESS
                       nStd      0 X66_AAUTO
                       nStd      0 X66_AARET
PL6.E3A0      #003=VNS$BREAK File=VNS$SEND.:VMB6TSI                              WED 08/20/97 15:30 Page:519

  ****  Segment refs  ****

  Flags:  r = read only, s = secondary
Flgs Name                             Flgs Name                             Flgs Name
     ISSID
PL6.E3A0      #003=VNS$BREAK File=VNS$SEND.:VMB6TSI                              WED 08/20/97 15:30 Page:520


     3128        1        /*T***********************************************************/
     3129        2        /*T*                                                         */
     3130        3        /*T* Copyright (c) Bull HN Information Systems Inc., 1997    */
     3131        4        /*T*                                                         */
     3132        5        /*T***********************************************************/
     3133        6        /*X* DMC,PLM=4,IND=4,CTI=2,DTI=0,ENI=0,ECI=0,CSI=0,DCI=4 */
     3134        7        /*F*
     3135        8            NAME: VNS$BREAK
     3136        9            PURPOSE: To process breaks.
     3137       10            DESCRIPTION:
     3138       11                SEND can't use XUR's break routine, but it needs similar logic
     3139       12                to defer breaks around processes that can only be interrupted
     3140       13                to abort SEND.  This is done via four procedures:
     3141       14
     3142       15                VNS$BREAK - the ASYNC routine for break events.
     3143       16                    Issues the break message if breaks aren't deferred,
     3144       17                    otherwise sets a flag to indicate a pending break.
     3145       18                Does _not_ reset break count, so 4 breaks while inhibited gets
     3146       19                the user a !! prompt, to allow a QUIT response to cancel SEND.
     3147       20                VNS$BREAK_DISABLE - called at start of critical process.
     3148       21                    Increments a counter which, if nonzero, indicates breaks
     3149       22                    are defered.  (A count is used instead of a flag so that
     3150       23                    nested calls can be handled.)
     3151       24                VNS$BREAK_ENABLE - called at end of critical processes.
     3152       25                    Decrements the deferal count, and, if zero, processes a
     3153       26                    pending break, if any.
     3154       27                VNS$BREAK_PROCESS - routine to issue break message.
     3155       28                    Common logic for VNS$BREAK and VNS$BREAK_ENABLE to issue
     3156       29                    a break message and either continue or unwind.
     3157       30        */
     3158       31        VNS$BREAK: PROC ASYNC;

     31  1 000000   000000 700200 xent  VNS$BREAK    TSX0  ! X66_AAUTO
         1 000001   000004 000000                    ZERO    4,0

     3159       32
PL6.E3A0      #003=VNS$BREAK File=VNS$SEND.:VMB6TSI                              WED 08/20/97 15:30 Page:521
     3160       33    1   DCL VNS_BREAK BIT(1) STATIC SYMDEF INIT('0'B);
     3161       34    1   DCL VNS_BREAK_INHIBIT SBIN STATIC SYMDEF INIT(0);
     3162       35
     3163       36    1   DCL VNS$BREAK_PROCESS ENTRY(1);
     3164       37
     3165       38    2       DO INHIBIT;

     3166       39    2           IF VNS_BREAK_INHIBIT > 0 OR VNS_BREAK

     39  1 000002   000001 235200 0                  LDA   ! VNS_BREAK_INHIBIT
         1 000003   000006 605600 1                  TPNZ  ! s:41
         1 000004   000000 234200 0                  SZN   ! VNS_BREAK
         1 000005   000007 605200 1                  TPL   ! s:42

     3167       40    2           THEN        /* Breaks inhibited, wait 'til later to process */
     3168       41    2               RETURN;

     41  1 000006   000000 702200 xent               TSX2  ! X66_AARET

     3169       42    2           VNS_BREAK = '1'B;

     42  1 000007   400000 236203                    LDQ   ! -131072,DU
         1 000010   000000 756200 0                  STQ   ! VNS_BREAK

     3170       43    2       END;

     3171       44    1       CALL VNS$BREAK_PROCESS('1'B);

     44  1 000011   000002 630400 2                  EPPR0   2
         1 000012   000000 631400 2                  EPPR1   0
         1 000013   000000 701000 xent               TSX1    VNS$BREAK_PROCESS
         1 000014   000000 011000                    NOP     0

     3172       45    1       RETURN;

     45  1 000015   000000 702200 xent               TSX2  ! X66_AARET

PL6.E3A0      #003=VNS$BREAK File=VNS$SEND.:VMB6TSI                              WED 08/20/97 15:30 Page:522
VNS_BREAK
 Sect OctLoc
   0     000   0***** ******                                                    ....

VNS_BREAK_INHIBIT
 Sect OctLoc
   0     001   000000 000000                                                    ....

(unnamed)
 Sect OctLoc
   2     000   000001 000000   400000 000000   000001 006000                    ............
     3173       46
     3174       47    1   END VNS$BREAK;
     3175       48        %EOD;

PL6.E3A0      #003=VNS$BREAK File=VNS$SEND.:VMB6TSI                              WED 08/20/97 15:30 Page:523
      No diagnostics issued in procedure VNS$BREAK.
PL6.E3A0      #003=VNS$BREAK File=VNS$SEND.:VMB6TSI                              WED 08/20/97 15:30 Page:524

 **** Variables and constants ****

  ****  Section 000  Data  VNS$BREAK

  ****  Scalars and arrays  ****
OctLoc.c.b A Datatyp(siz) R M Lvl/name                 OctLoc.c.b A Datatyp(siz) R M Lvl/name

     0-0-0/b BIT         r     1 VNS_BREAK                  1-0-0/w SBIN        r     1 VNS_BREAK_INHIBIT


   Procedure VNS$BREAK requires 14 words for executable code.
   Procedure VNS$BREAK requires 4 words of local(AUTO) storage.
PL6.E3A0      #003=VNS$BREAK File=VNS$SEND.:VMB6TSI                              WED 08/20/97 15:30 Page:525
          *** CROSS REFERENCE LISTING ***
**     DENOTES     IDENTIFIER DEFINITION
<<                 IDENTIFIER'S VALUE SET
>>                 IDENTIFIER'S VALUE USED
<>                 IDENTIFIER SET AND/OR USED
--                 IDENTIFIER REFERENCED
PL6.E3A0      #003=VNS$BREAK File=VNS$SEND.:VMB6TSI                              WED 08/20/97 15:30 Page:526
          MINI XREF LISTING

VNS$BREAK_PROCESS
        36**DCL-ENT    44--CALL
VNS_BREAK
        33**DCL        39>>IF         42<<ASSIGN
VNS_BREAK_INHIBIT
        34**DCL        39>>IF

PL6.E3A0      #004=VNS$BREAK_DISABLE File=VNS$SEND.:VMB6TSI                      WED 08/20/97 15:30 Page:527
     3176        1        /*T***********************************************************/
     3177        2        /*T*                                                         */
     3178        3        /*T* Copyright (c) Bull HN Information Systems Inc., 1997    */
     3179        4        /*T*                                                         */
     3180        5        /*T***********************************************************/
     3181        6        /*X* DMC,PLM=4,IND=4,CTI=2,DTI=0,ENI=0,ECI=0,CSI=0,DCI=4 */
     3182        7        /*F*
     3183        8            NAME: VNS$BREAK_DISABLE
     3184        9            PURPOSE: To suspend break processing during critical actions.
     3185       10        */
     3186       11        /*F*
     3187       12            NAME: VNS$BREAK_ENABLE
     3188       13            PURPOSE: To process breaks suspended for critical actions.
     3189       14        */
     3190       15        VNS$BREAK_DISABLE: PROC;
     3191       16
     3192       17    1   DCL VNS_BREAK BIT(1) SYMREF;
     3193       18    1   DCL VNS_BREAK_INHIBIT SBIN SYMREF;
     3194       19
     3195       20    1   DCL VNS$BREAK_PROCESS ENTRY(1);
     3196       21
     3197       22    2       DO INHIBIT;
     3198       23    2           VNS_BREAK_INHIBIT = VNS_BREAK_INHIBIT + 1;
     3199       24    2           RETURN;
     3200       25    2       END;
     3201       26
     3202       27    1   VNS$BREAK_ENABLE: ENTRY;
     3203       28
     3204       29    2       DO INHIBIT;
     3205       30    2           IF VNS_BREAK_INHIBIT > 0
     3206       31    2           THEN
     3207       32    2               VNS_BREAK_INHIBIT = VNS_BREAK_INHIBIT - 1;
     3208       33    2           IF VNS_BREAK_INHIBIT > 0 OR NOT VNS_BREAK
     3209       34    2           THEN
     3210       35    2               RETURN;
     3211       36    2       END;
     3212       37    1       CALL VNS$BREAK_PROCESS('0'B);
PL6.E3A0      #004=VNS$BREAK_DISABLE File=VNS$SEND.:VMB6TSI                      WED 08/20/97 15:30 Page:528
     3213       38    1       RETURN;
     3214       39
     3215       40    1   END VNS$BREAK_DISABLE;
     3216       41        %EOD;

PL6.E3A0      #004=VNS$BREAK_DISABLE File=VNS$SEND.:VMB6TSI                      WED 08/20/97 15:30 Page:529
      No diagnostics issued in procedure VNS$BREAK_DISABLE.

   Procedure VNS$BREAK_DISABLE requires 21 words for executable code.
   Procedure VNS$BREAK_DISABLE requires 4 words of local(AUTO) storage.

PL6.E3A0      #004=VNS$BREAK_DISABLE File=VNS$SEND.:VMB6TSI                      WED 08/20/97 15:30 Page:530

 Object Unit name= VNS$BREAK_DISABLE                          File name= VNS$SEND.:VMB6TOU
 UTS= AUG 20 '97 15:30:44.96 WED                              Compiler= PL-6/E31         Sev=      00
 SharedLib= :SHARED_SYSTEM                                    Alt SharedLib=


    ****  Control sections  ****

 Sect   Type Bound  Init  Size OctSiz  Section name(segment info)
    0   Proc  even  none    21     25  VNS$BREAK_DISABLE
    1  RoData even  none     3      3  VNS$BREAK_DISABLE

    ****  Entry defs  ****

                              Check   Calling
                             calling  sequence
  Sect OctLoc Primary Altret sequence   type   Parms  Name
     0      0   yes            yes      Std        0  VNS$BREAK_DISABLE
     0      5                  yes      Std        0  VNS$BREAK_ENABLE

  ****  Entry refs  ****

         Check        Calling
        calling       sequence
Altret sequence SRef   type   Args  Name
         yes           Std       1 VNS$BREAK_PROCESS
                       nStd      0 X66_AUTO_0
                       nStd      0 X66_ARET

  ****  Data refs  ****

  Flags:  r = read only, s = secondary
Flgs Name                             Flgs Name                             Flgs Name
     VNS_BREAK                             VNS_BREAK_INHIBIT
PL6.E3A0      #004=VNS$BREAK_DISABLE File=VNS$SEND.:VMB6TSI                      WED 08/20/97 15:30 Page:531

  ****  Segment refs  ****

  Flags:  r = read only, s = secondary
Flgs Name                             Flgs Name                             Flgs Name
     ISSID
PL6.E3A0      #004=VNS$BREAK_DISABLE File=VNS$SEND.:VMB6TSI                      WED 08/20/97 15:30 Page:532


     3176        1        /*T***********************************************************/
     3177        2        /*T*                                                         */
     3178        3        /*T* Copyright (c) Bull HN Information Systems Inc., 1997    */
     3179        4        /*T*                                                         */
     3180        5        /*T***********************************************************/
     3181        6        /*X* DMC,PLM=4,IND=4,CTI=2,DTI=0,ENI=0,ECI=0,CSI=0,DCI=4 */
     3182        7        /*F*
     3183        8            NAME: VNS$BREAK_DISABLE
     3184        9            PURPOSE: To suspend break processing during critical actions.
     3185       10        */
     3186       11        /*F*
     3187       12            NAME: VNS$BREAK_ENABLE
     3188       13            PURPOSE: To process breaks suspended for critical actions.
     3189       14        */
     3190       15        VNS$BREAK_DISABLE: PROC;

     15  0 000000   000000 700200 xent  VNS$BREAK_D* TSX0  ! X66_AUTO_0
         0 000001   000004 000000                    ZERO    4,0

     3191       16
     3192       17    1   DCL VNS_BREAK BIT(1) SYMREF;
     3193       18    1   DCL VNS_BREAK_INHIBIT SBIN SYMREF;
     3194       19
     3195       20    1   DCL VNS$BREAK_PROCESS ENTRY(1);
     3196       21
     3197       22    2       DO INHIBIT;

     3198       23    2           VNS_BREAK_INHIBIT = VNS_BREAK_INHIBIT + 1;

     23  0 000002   000000 054200 xsym               AOS   ! VNS_BREAK_INHIBIT

     3199       24    2           RETURN;

     24  0 000003   000000 702200 xent               TSX2  ! X66_ARET

     3200       25    2       END;
PL6.E3A0      #004=VNS$BREAK_DISABLE File=VNS$SEND.:VMB6TSI                      WED 08/20/97 15:30 Page:533

     25  0 000004   000007 710000 0                  TRA     s:30

     3201       26
     3202       27    1   VNS$BREAK_ENABLE: ENTRY;

     27  0 000005   000000 700200 xent  VNS$BREAK_E* TSX0  ! X66_AUTO_0
         0 000006   000004 000000                    ZERO    4,0

     3203       28
     3204       29    2       DO INHIBIT;

     3205       30    2           IF VNS_BREAK_INHIBIT > 0

     30  0 000007   000000 235200 xsym               LDA   ! VNS_BREAK_INHIBIT
         0 000010   000013 604600 0                  TMOZ  ! s:33

     3206       31    2           THEN
     3207       32    2               VNS_BREAK_INHIBIT = VNS_BREAK_INHIBIT - 1;

     32  0 000011   000001 336207                    LCQ   ! 1,DL
         0 000012   000000 056200 xsym               ASQ   ! VNS_BREAK_INHIBIT

     3208       33    2           IF VNS_BREAK_INHIBIT > 0 OR NOT VNS_BREAK

     33  0 000013   000000 235200 xsym               LDA   ! VNS_BREAK_INHIBIT
         0 000014   000017 605600 0                  TPNZ  ! s:35
         0 000015   000000 234200 xsym               SZN   ! VNS_BREAK
         0 000016   000020 604200 0                  TMI   ! s:37

     3209       34    2           THEN
     3210       35    2               RETURN;

     35  0 000017   000000 702200 xent               TSX2  ! X66_ARET

     3211       36    2       END;

PL6.E3A0      #004=VNS$BREAK_DISABLE File=VNS$SEND.:VMB6TSI                      WED 08/20/97 15:30 Page:534
     3212       37    1       CALL VNS$BREAK_PROCESS('0'B);

     37  0 000020   000002 630400 1                  EPPR0   2
         0 000021   000000 631400 1                  EPPR1   0
         0 000022   000000 701000 xent               TSX1    VNS$BREAK_PROCESS
         0 000023   000000 011000                    NOP     0

     3213       38    1       RETURN;

     38  0 000024   000000 702200 xent               TSX2  ! X66_ARET

(unnamed)
 Sect OctLoc
   1     000   000001 000000   000000 000000   000001 006000                    ............
     3214       39
     3215       40    1   END VNS$BREAK_DISABLE;
     3216       41        %EOD;

PL6.E3A0      #004=VNS$BREAK_DISABLE File=VNS$SEND.:VMB6TSI                      WED 08/20/97 15:30 Page:535
      No diagnostics issued in procedure VNS$BREAK_DISABLE.
PL6.E3A0      #004=VNS$BREAK_DISABLE File=VNS$SEND.:VMB6TSI                      WED 08/20/97 15:30 Page:536

 **** Variables and constants ****

  ****  SYMREF variables  ****

  ****  Scalars and arrays  ****
OctLoc.c.b A Datatyp(siz) R M Lvl/name                 OctLoc.c.b A Datatyp(siz) R M Lvl/name

     0-0-0/b BIT         r     1 VNS_BREAK                  0-0-0/w SBIN        r     1 VNS_BREAK_INHIBIT


   Procedure VNS$BREAK_DISABLE requires 21 words for executable code.
   Procedure VNS$BREAK_DISABLE requires 4 words of local(AUTO) storage.
PL6.E3A0      #004=VNS$BREAK_DISABLE File=VNS$SEND.:VMB6TSI                      WED 08/20/97 15:30 Page:537
          *** CROSS REFERENCE LISTING ***
**     DENOTES     IDENTIFIER DEFINITION
<<                 IDENTIFIER'S VALUE SET
>>                 IDENTIFIER'S VALUE USED
<>                 IDENTIFIER SET AND/OR USED
--                 IDENTIFIER REFERENCED
PL6.E3A0      #004=VNS$BREAK_DISABLE File=VNS$SEND.:VMB6TSI                      WED 08/20/97 15:30 Page:538
          MINI XREF LISTING

VNS$BREAK_PROCESS
        20**DCL-ENT    37--CALL
VNS_BREAK
        17**DCL        33>>IF
VNS_BREAK_INHIBIT
        18**DCL        23<<ASSIGN     23>>ASSIGN     30>>IF         32<<ASSIGN     32>>ASSIGN     33>>IF

PL6.E3A0      #005=VNS$BREAK_PROCESS File=VNS$SEND.:VMB6TSI                      WED 08/20/97 15:30 Page:539
     3217        1        /*T***********************************************************/
     3218        2        /*T*                                                         */
     3219        3        /*T* Copyright (c) Bull HN Information Systems Inc., 1997    */
     3220        4        /*T*                                                         */
     3221        5        /*T***********************************************************/
     3222        6        /*X* DMC,PLM=4,IND=4,CTI=2,DTI=0,ENI=0,ECI=0,CSI=0,DCI=4 */
     3223        7        VNS$BREAK_PROCESS: PROC (CLRSTK);
     3224        8    1   DCL CLRSTK BIT(1);  /* flag for whether or not M$CLRSTK is needed */
     3225        9
     3226       10        %INCLUDE CP_6;
     3227     5569        %INCLUDE CP_6_SUBS;
     3228     6109            %include VM_MACRO_C;
     3229     7377            %include VM_PERR_C;
     3230     7672
     3231     7673        %INIT_STR(DODCL=YES);
     3232     7696        %FPT_PROMPT (FPTN=CHANGE_PROMPT, STCLASS=SYMREF);
     3233     7724
     3234     7725        %FPT_READ (FPTN=READ_UC_CONST, STCLASS=CONSTANT,DCB=M$UC);
     3235     7764
     3236     7765        %FPT_READ (FPTN=READ_UC,       STCLASS="");
     3237     7804
     3238     7805    1   DCL VNS_REMEMBER(0:1) REMEMBER SYMREF;
     3239     7806    1   DCL VNS_BREAK_TYPE SBIN SYMREF;
     3240     7807    1   DCL VNS_BREAK BIT(1) SYMREF;
     3241     7808
     3242     7809    1   dcl VECT         vector;
     3243     7810    1   dcl I            sbin;
     3244     7811    1   dcl 1 UC_BUF,
     3245     7812    1         2 COMMAND char(1),
     3246     7813    1         2 *    char(79);
     3247     7814
     3248     7815        %VLP_NAMEV( FPTN=VN_BREAK_PROMPT, STCLASS=SYMREF );
     3249     7822        %VLP_NAMEV( FPTN=VN_QUIT_OR_CONT, STCLASS=SYMREF );
     3250     7829
     3251     7830        %VLP_ERRCODE( FPTN=E_BREAK_PROMPT, FCG="VN",MID=S, STCLASS=CONSTANT,
     3252     7831                      ERR#=%E$BREAK_PROMPT);
     3253     7876        /*E* ERROR:   VNS-E$BREAK_PROMPT-0
PL6.E3A0      #005=VNS$BREAK_PROCESS File=VNS$SEND.:VMB6TSI                      WED 08/20/97 15:30 Page:540
     3254     7877             MESSAGE:Enter C to continue, Q to Quit:
     3255     7878        */
     3256     7879              %VLP_ERRCODE( FPTN=E_QUIT_OR_CONT, FCG="VN",MID=S, STCLASS=CONSTANT,
     3257     7880              ERR#=%E$QUIT_OR_CONT);
     3258     7925        /*E* ERROR:   VNS-E$QUIT_OR_CONT-0
     3259     7926             MESSAGE:CcQq
     3260     7927        */
     3261     7928
     3262     7929
     3263     7930              %INIT_STR( STR=VN_BREAK_PROMPT, CODE=E_BREAK_PROMPT, TEST=YES);
     3264     7953            %INIT_STR( STR=VN_QUIT_OR_CONT, CODE=E_QUIT_OR_CONT, TEST=YES);
     3265     7976
     3266     7977    1       READ_UC     = READ_UC_CONST;
     3267     7978    1       READ_UC.V_  = vector(READ_UC.V);
     3268     7979    1       READ_UC.BUF_ = vector(UC_BUF);
     3269     7980    1       VECT = CHANGE_PROMPT.PROMPT_;
     3270     7981    1       CHANGE_PROMPT.PROMPT_ = vector(VN_BREAK_PROMPT.NAME#);
     3271     7982    1       CALL M$PROMPT (CHANGE_PROMPT);
     3272     7983    2       DO WHILE ('1'B);
     3273     7984    2           CALL M$READ (READ_UC);
     3274     7985    3           call index(I,UC_BUF.COMMAND,VN_QUIT_OR_CONT.NAME#) whenreturn do;
     3275     7986    3               CHANGE_PROMPT.PROMPT_ = VECT;
     3276     7987    3               call M$PROMPT (CHANGE_PROMPT);
     3277     7988    4               do inhibit;
     3278     7989    4                   VNS_BREAK = %NO#;
     3279     7990    5                   if I < 2 then do;  /**   'C' or 'c' entered  **/
     3280     7991    5                       return;
     3281     7992    5                   end;
     3282     7993    5                   else do;      /**   'Q' or 'q' entered  **/
     3283     7994    5                       if CLRSTK
     3284     7995    5                       then      /**   called from VNS$BREAK  **/
     3285     7996    5                           call M$CLRSTK;
     3286     7997    5                       unwind to VNS_REMEMBER (VNS_BREAK_TYPE);
     3287     7998    5                   end;
     3288     7999    4               end; /**  Of inhibit  **/
     3289     8000    3           end; /**  Of whenreturn  **/
     3290     8001    2       END;
PL6.E3A0      #005=VNS$BREAK_PROCESS File=VNS$SEND.:VMB6TSI                      WED 08/20/97 15:30 Page:541
     3291     8002    1   END VNS$BREAK_PROCESS;
     3292     8003        %EOD;

PL6.E3A0      #005=VNS$BREAK_PROCESS File=VNS$SEND.:VMB6TSI                      WED 08/20/97 15:30 Page:542
--  Include file information  --

   VM_PERR_C.:VMB6TOU  is referenced.
   VM_MACRO_C.:VMB6TOU  is referenced.
   CP_6_SUBS.:LIB_E05  is referenced.
   CP_6_C.:LIB_E05  is referenced.
   CP_6.:LIB_E05  cannot be made into a system file and is referenced.
      No diagnostics issued in procedure VNS$BREAK_PROCESS.

   Procedure VNS$BREAK_PROCESS requires 82 words for executable code.
   Procedure VNS$BREAK_PROCESS requires 44 words of local(AUTO) storage.

PL6.E3A0      #005=VNS$BREAK_PROCESS File=VNS$SEND.:VMB6TSI                      WED 08/20/97 15:30 Page:543

 Object Unit name= VNS$BREAK_PROCESS                          File name= VNS$SEND.:VMB6TOU
 UTS= AUG 20 '97 15:30:46.76 WED                              Compiler= PL-6/E31         Sev=      00
 SharedLib= :SHARED_SYSTEM                                    Alt SharedLib=


    ****  Control sections  ****

 Sect   Type Bound  Init  Size OctSiz  Section name(segment info)
    0   DCB   even  none     0      0  M$UC
    1  RoData even  UTS     16     20  VNS$BREAK_PROCESS
    2   Proc  even  none    82    122  VNS$BREAK_PROCESS
    3  RoData even  none    10     12  VNS$BREAK_PROCESS

    ****  Entry defs  ****

                              Check   Calling
                             calling  sequence
  Sect OctLoc Primary Altret sequence   type   Parms  Name
     2      0   yes            yes      Std        1  VNS$BREAK_PROCESS

  ****  Entry refs  ****

         Check        Calling
        calling       sequence
Altret sequence SRef   type   Args  Name
 yes     yes           Std       3 VMD$ERRMSG
                       nStd      0 X66_AUTO_1
                       nStd      0 X66_ARET
                       nStd      0 X66_AUNWIND
PL6.E3A0      #005=VNS$BREAK_PROCESS File=VNS$SEND.:VMB6TSI                      WED 08/20/97 15:30 Page:544

  ****  Data refs  ****

  Flags:  r = read only, s = secondary
Flgs Name                             Flgs Name                             Flgs Name
     M$UC                                  CHANGE_PROMPT                         VNS_REMEMBER
     VNS_BREAK_TYPE                        VNS_BREAK                             VN_BREAK_PROMPT
     VN_QUIT_OR_CONT

  ****  Segment refs  ****

  Flags:  r = read only, s = secondary
Flgs Name                             Flgs Name                             Flgs Name
     ISSID                                 NULLSID
PL6.E3A0      #005=VNS$BREAK_PROCESS File=VNS$SEND.:VMB6TSI                      WED 08/20/97 15:30 Page:545


     3217        1        /*T***********************************************************/
     3218        2        /*T*                                                         */
     3219        3        /*T* Copyright (c) Bull HN Information Systems Inc., 1997    */
     3220        4        /*T*                                                         */
     3221        5        /*T***********************************************************/
     3222        6        /*X* DMC,PLM=4,IND=4,CTI=2,DTI=0,ENI=0,ECI=0,CSI=0,DCI=4 */
     3223        7        VNS$BREAK_PROCESS: PROC (CLRSTK);

      7  2 000000   000000 700200 xent  VNS$BREAK_P* TSX0  ! X66_AUTO_1
         2 000001   000054 000001                    ZERO    44,1

     3224        8    1   DCL CLRSTK BIT(1);  /* flag for whether or not M$CLRSTK is needed */
     3225        9
     3226       10        %INCLUDE CP_6;
     3227     5569        %INCLUDE CP_6_SUBS;
     3228     6109            %include VM_MACRO_C;
     3229     7377            %include VM_PERR_C;
     3230     7672
     3231     7673        %INIT_STR(DODCL=YES);
     3232     7696        %FPT_PROMPT (FPTN=CHANGE_PROMPT, STCLASS=SYMREF);
     3233     7724
     3234     7725        %FPT_READ (FPTN=READ_UC_CONST, STCLASS=CONSTANT,DCB=M$UC);
     3235     7764
     3236     7765        %FPT_READ (FPTN=READ_UC,       STCLASS="");
     3237     7804
     3238     7805    1   DCL VNS_REMEMBER(0:1) REMEMBER SYMREF;
     3239     7806    1   DCL VNS_BREAK_TYPE SBIN SYMREF;
     3240     7807    1   DCL VNS_BREAK BIT(1) SYMREF;
     3241     7808
     3242     7809    1   dcl VECT         vector;
     3243     7810    1   dcl I            sbin;
     3244     7811    1   dcl 1 UC_BUF,
     3245     7812    1         2 COMMAND char(1),
     3246     7813    1         2 *    char(79);
     3247     7814
     3248     7815        %VLP_NAMEV( FPTN=VN_BREAK_PROMPT, STCLASS=SYMREF );
PL6.E3A0      #005=VNS$BREAK_PROCESS File=VNS$SEND.:VMB6TSI                      WED 08/20/97 15:30 Page:546
     3249     7822        %VLP_NAMEV( FPTN=VN_QUIT_OR_CONT, STCLASS=SYMREF );
     3250     7829
     3251     7830        %VLP_ERRCODE( FPTN=E_BREAK_PROMPT, FCG="VN",MID=S, STCLASS=CONSTANT,
     3252     7831                      ERR#=%E$BREAK_PROMPT);
     3253     7876        /*E* ERROR:   VNS-E$BREAK_PROMPT-0
     3254     7877             MESSAGE:Enter C to continue, Q to Quit:
     3255     7878        */
     3256     7879              %VLP_ERRCODE( FPTN=E_QUIT_OR_CONT, FCG="VN",MID=S, STCLASS=CONSTANT,
     3257     7880              ERR#=%E$QUIT_OR_CONT);
     3258     7925        /*E* ERROR:   VNS-E$QUIT_OR_CONT-0
     3259     7926             MESSAGE:CcQq
     3260     7927        */
     3261     7928
     3262     7929
     3263     7930              %INIT_STR( STR=VN_BREAK_PROMPT, CODE=E_BREAK_PROMPT, TEST=YES);

   7937  2 000002   000000 236000 xsym               LDQ     VN_BREAK_PROMPT
         2 000003   000033 772000                    QRL     27
         2 000004   000000 620006                    EAX0    0,QL
         2 000005   040000 106440                    CMPC    fill='040'O
         2 000006   000000 200010 xsym               ADSC9   VN_BREAK_PROMPT          cn=1,n=*X0
         2 000007   000000 000001 3                  ADSC9   0                        cn=0,n=1
         2 000010   000015 601000 2                  TNZ     s:7960

   7939  2 000011   000002 630400 3                  EPPR0   2
         2 000012   000001 631400 3                  EPPR1   1
         2 000013   000000 701000 xent               TSX1    VMD$ERRMSG
         2 000014   000000 011000                    NOP     0

     3264     7953            %INIT_STR( STR=VN_QUIT_OR_CONT, CODE=E_QUIT_OR_CONT, TEST=YES);

   7960  2 000015   000000 236000 xsym               LDQ     VN_QUIT_OR_CONT
         2 000016   000033 772000                    QRL     27
         2 000017   000000 620006                    EAX0    0,QL
         2 000020   040000 106440                    CMPC    fill='040'O
         2 000021   000000 200010 xsym               ADSC9   VN_QUIT_OR_CONT          cn=1,n=*X0
         2 000022   000000 000001 3                  ADSC9   0                        cn=0,n=1
PL6.E3A0      #005=VNS$BREAK_PROCESS File=VNS$SEND.:VMB6TSI                      WED 08/20/97 15:30 Page:547
         2 000023   000030 601000 2                  TNZ     s:7977

   7962  2 000024   000004 630400 3                  EPPR0   4
         2 000025   000001 631400 3                  EPPR1   1
         2 000026   000000 701000 xent               TSX1    VMD$ERRMSG
         2 000027   000000 011000                    NOP     0

     3265     7976
     3266     7977    1       READ_UC     = READ_UC_CONST;

   7977  2 000030   000100 100400                    MLR     fill='000'O
         2 000031   000000 000070 1                  ADSC9   READ_UC_CONST            cn=0,n=56
         2 000032   200004 000070                    ADSC9   READ_UC,,AUTO            cn=0,n=56

     3267     7978    1       READ_UC.V_  = vector(READ_UC.V);

   7978  2 000033   000006 235000 3                  LDA     6
         2 000034   200052 452500                    STP2    UC_BUF+21,,AUTO
         2 000035   200052 236100                    LDQ     UC_BUF+21,,AUTO
         2 000036   000014 036003                    ADLQ    12,DU
         2 000037   200004 757100                    STAQ    READ_UC,,AUTO

     3268     7979    1       READ_UC.BUF_ = vector(UC_BUF);

   7979  2 000040   000007 235000 3                  LDA     7
         2 000041   200052 452500                    STP2    UC_BUF+21,,AUTO
         2 000042   200052 236100                    LDQ     UC_BUF+21,,AUTO
         2 000043   000025 036003                    ADLQ    21,DU
         2 000044   200010 757100                    STAQ    READ_UC+4,,AUTO

     3269     7980    1       VECT = CHANGE_PROMPT.PROMPT_;

   7980  2 000045   000004 237000 xsym               LDAQ    CHANGE_PROMPT+4
         2 000046   200022 757100                    STAQ    VECT,,AUTO

     3270     7981    1       CHANGE_PROMPT.PROMPT_ = vector(VN_BREAK_PROMPT.NAME#);

PL6.E3A0      #005=VNS$BREAK_PROCESS File=VNS$SEND.:VMB6TSI                      WED 08/20/97 15:30 Page:548
   7981  2 000047   000000 236000 xsym               LDQ     VN_BREAK_PROMPT
         2 000050   000033 772000                    QRL     27
         2 000051   000064 737000                    LLS     52
         2 000052   000140 135007                    SBLA    96,DL
         2 000053   000010 236000 3                  LDQ     8
         2 000054   000004 757000 xsym               STAQ    CHANGE_PROMPT+4

     3271     7982    1       CALL M$PROMPT (CHANGE_PROMPT);

   7982  2 000055   000000 630400 xsym               EPPR0   CHANGE_PROMPT
         2 000056   160002 713400                    CLIMB   57346
         2 000057   401000 401760                    pmme    nvectors=3

     3272     7983    2       DO WHILE ('1'B);

     3273     7984    2           CALL M$READ (READ_UC);

   7984  2 000060   200004 630500                    EPPR0   READ_UC,,AUTO
         2 000061   040000 713400                    CLIMB   read
         2 000062   401400 401760                    pmme    nvectors=4

     3274     7985    3           call index(I,UC_BUF.COMMAND,VN_QUIT_OR_CONT.NAME#) whenreturn do;

   7985  2 000063   000000 236000 xsym               LDQ     VN_QUIT_OR_CONT
         2 000064   000033 772000                    QRL     27
         2 000065   000000 620006                    EAX0    0,QL
         2 000066   000100 124440                    SCM     mask='000'O
         2 000067   000000 200010 xsym               ADSC9   VN_QUIT_OR_CONT          cn=1,n=*X0
         2 000070   200025 000001                    ADSC9   UC_BUF,,AUTO             cn=0,n=1
         2 000071   200024 000100                    ARG     I,,AUTO
         2 000072   000121 606400 2                  TTN     s:8001

     3275     7986    3               CHANGE_PROMPT.PROMPT_ = VECT;

   7986  2 000073   200022 237100                    LDAQ    VECT,,AUTO
         2 000074   000004 757000 xsym               STAQ    CHANGE_PROMPT+4

PL6.E3A0      #005=VNS$BREAK_PROCESS File=VNS$SEND.:VMB6TSI                      WED 08/20/97 15:30 Page:549
     3276     7987    3               call M$PROMPT (CHANGE_PROMPT);

   7987  2 000075   000000 630400 xsym               EPPR0   CHANGE_PROMPT
         2 000076   160002 713400                    CLIMB   57346
         2 000077   401000 401760                    pmme    nvectors=3

     3277     7988    4               do inhibit;

     3278     7989    4                   VNS_BREAK = %NO#;

   7989  2 000100   000000 450200 xsym               STZ   ! VNS_BREAK

     3279     7990    5                   if I < 2 then do;  /**   'C' or 'c' entered  **/

   7990  2 000101   200024 235300                    LDA   ! I,,AUTO
         2 000102   000002 115207                    CMPA  ! 2,DL
         2 000103   000105 605200 2                  TPL   ! s:7994

     3280     7991    5                       return;

   7991  2 000104   000000 702200 xent               TSX2  ! X66_ARET

     3281     7992    5                   end;
     3282     7993    5                   else do;      /**   'Q' or 'q' entered  **/

     3283     7994    5                       if CLRSTK

   7994  2 000105   200003 470700                    LDP0  ! @CLRSTK,,AUTO
         2 000106   000000 066700                    CMPB  ! filb='0'B
         2 000107   000000 000001                    BDSC    0,,PR0                   by=0,bit=0,n=1
         2 000110   000011 000022 3                  BDSC    9                        by=0,bit=0,n=18
         2 000111   000114 600200 2                  TZE   ! s:7997

     3284     7995    5                       then      /**   called from VNS$BREAK  **/
     3285     7996    5                           call M$CLRSTK;

   7996  2 000112   010013 713600                    CLIMB ! 4107
PL6.E3A0      #005=VNS$BREAK_PROCESS File=VNS$SEND.:VMB6TSI                      WED 08/20/97 15:30 Page:550
         2 000113   000000 401760                    pmme    nvectors=0

     3286     7997    5                       unwind to VNS_REMEMBER (VNS_BREAK_TYPE);

   7997  2 000114   000000 235200 xsym               LDA   ! VNS_BREAK_TYPE
         2 000115   000001 735200                    ALS   ! 1
         2 000116   000000 237205 xsym               LDAQ  ! VNS_REMEMBER,AL
         2 000117   000000 700200 xent               TSX0  ! X66_AUNWIND
         2 000120   000000 000200                    ZERO    0,128

     3287     7998    5                   end;
     3288     7999    4               end; /**  Of inhibit  **/

     3289     8000    3           end; /**  Of whenreturn  **/

     3290     8001    2       END;

   8001  2 000121   000060 710000 2                  TRA     s:7984

READ_UC_CONST
 Sect OctLoc
   1     000   000005 777640   000010 006000   000000 177640   000000 006014    ................
   1     004   000000 177640   000000 006014   000000 177640   000000 006014    ................
   1     010   000000 400000   000000 000000   000000 000000   000000 000000    ................
   1     014   000000 000000   000000 000000                                    ........

E_BREAK_PROMPT
 Sect OctLoc
   1     016   261623 016210                                                    ....

E_QUIT_OR_CONT
 Sect OctLoc
   1     017   261623 024310                                                    ....

(unnamed)
 Sect OctLoc
   3     000   040040 040040   000002 000000   000016 006000   000000 006000        ............
PL6.E3A0      #005=VNS$BREAK_PROCESS File=VNS$SEND.:VMB6TSI                      WED 08/20/97 15:30 Page:551
   3     004   000017 006000   000000 006000   000005 777640   000023 777640    ................
   3     010   000000 206000   000000 000000                                    ........
     3291     8002    1   END VNS$BREAK_PROCESS;
     3292     8003        %EOD;

PL6.E3A0      #005=VNS$BREAK_PROCESS File=VNS$SEND.:VMB6TSI                      WED 08/20/97 15:30 Page:552
--  Include file information  --

   VM_PERR_C.:VMB6TOU  is referenced.
   VM_MACRO_C.:VMB6TOU  is referenced.
   CP_6_SUBS.:LIB_E05  is referenced.
   CP_6_C.:LIB_E05  is referenced.
   CP_6.:LIB_E05  cannot be made into a system file and is referenced.
      No diagnostics issued in procedure VNS$BREAK_PROCESS.
PL6.E3A0      #005=VNS$BREAK_PROCESS File=VNS$SEND.:VMB6TSI                      WED 08/20/97 15:30 Page:553

 **** Variables and constants ****

  ****  Section 001 RoData VNS$BREAK_PROCESS

  ****  Scalars and arrays  ****
OctLoc.c.b A Datatyp(siz) R M Lvl/name                 OctLoc.c.b A Datatyp(siz) R M Lvl/name

    16-0-0/w STRC        r     1 E_BREAK_PROMPT            17-0-0/w STRC        r     1 E_QUIT_OR_CONT
     0-0-0/d STRC(504)   r     1 READ_UC_CONST

  ****  Auto variables  ****

  ****  Scalars and arrays  ****
OctLoc.c.b A Datatyp(siz) R M Lvl/name                 OctLoc.c.b A Datatyp(siz) R M Lvl/name

     3-0-0/w PTR         r     1 @CLRSTK                   *0-0-0/b BIT         r     1 CLRSTK
    24-0-0/w SBIN        r     1 I                          4-0-0/d STRC(504)   r     1 READ_UC
    25-0-0/c STRC(720)   r     1 UC_BUF                    22-0-0/d VECT        r     1 VECT

  ****  SYMREF variables  ****

  ****  Scalars and arrays  ****
OctLoc.c.b A Datatyp(siz) R M Lvl/name                 OctLoc.c.b A Datatyp(siz) R M Lvl/name

     0-0-0/d STRC(360)   r     1 CHANGE_PROMPT              0-0-0/b BIT         r     1 VNS_BREAK
     0-0-0/w SBIN        r     1 VNS_BREAK_TYPE
     0-0-0/d REMB        r     1 VNS_REMEMBER(0:1)
     0-0-0/c ASTR(9)     r     1 VN_BREAK_PROMPT            0-0-0/c ASTR(9)     r     1 VN_QUIT_OR_CONT

  ****  BASED and DCB variables  ****

  ****  Scalars and arrays  ****
OctLoc.c.b A Datatyp(siz) R M Lvl/name                 OctLoc.c.b A Datatyp(siz) R M Lvl/name

     0-0-0N  NULL        r     1 M$UC

PL6.E3A0      #005=VNS$BREAK_PROCESS File=VNS$SEND.:VMB6TSI                      WED 08/20/97 15:30 Page:554

   Procedure VNS$BREAK_PROCESS requires 82 words for executable code.
   Procedure VNS$BREAK_PROCESS requires 44 words of local(AUTO) storage.
PL6.E3A0      #005=VNS$BREAK_PROCESS File=VNS$SEND.:VMB6TSI                      WED 08/20/97 15:30 Page:555
          *** CROSS REFERENCE LISTING ***
**     DENOTES     IDENTIFIER DEFINITION
<<                 IDENTIFIER'S VALUE SET
>>                 IDENTIFIER'S VALUE USED
<>                 IDENTIFIER SET AND/OR USED
--                 IDENTIFIER REFERENCED
PL6.E3A0      #005=VNS$BREAK_PROCESS File=VNS$SEND.:VMB6TSI                      WED 08/20/97 15:30 Page:556
          MINI XREF LISTING

CHANGE_PROMPT
      7712**DCL      7982<>CALL     7987<>CALL
CHANGE_PROMPT.PROMPT_
      7718**DCL      7980>>ASSIGN   7981<<ASSIGN   7986<<ASSIGN
CLRSTK
         8**DCL         7--PROC     7994>>IF
E_BREAK_PROMPT
      7843**DCL      7939<>CALL
E_QUIT_OR_CONT
      7892**DCL      7962<>CALL
I
      7810**DCL      7985<<CALLBLT  7990>>IF
M$CLRSTK
      5555**DCL-ENT  7996--CALL
M$PROMPT
      5521**DCL-ENT  7982--CALL     7987--CALL
M$READ
      5498**DCL-ENT  7984--CALL
READ_UC
      7782**DCL      7977<<ASSIGN   7984<>CALL
READ_UC.BUF_
      7784**DCL      7979<<ASSIGN
READ_UC.STATION_
      7785**DCL      7786--REDEF
READ_UC.V
      7786**DCL      7978--ASSIGN
READ_UC.V.DVBYTE.REREAD#
      7797**DCL      7797--REDEF
READ_UC.V.INDX#
      7795**DCL      7795--REDEF
READ_UC.V_
      7782**DCL      7978<<ASSIGN
PL6.E3A0      #005=VNS$BREAK_PROCESS File=VNS$SEND.:VMB6TSI                      WED 08/20/97 15:30 Page:557
READ_UC_CONST
      7742**DCL      7977>>ASSIGN
READ_UC_CONST.STATION_
      7745**DCL      7746--REDEF
READ_UC_CONST.V
      7746**DCL      7742--DCLINIT
READ_UC_CONST.V.DVBYTE.REREAD#
      7757**DCL      7757--REDEF
READ_UC_CONST.V.INDX#
      7755**DCL      7755--REDEF
UC_BUF
      7811**DCL      7979--ASSIGN
UC_BUF.COMMAND
      7812**DCL      7985>>CALLBLT
VECT
      7809**DCL      7980<<ASSIGN   7986>>ASSIGN
VMD$ERRMSG
      7676**DCL-ENT  7939--CALL     7962--CALL
VNS_BREAK
      7807**DCL      7989<<ASSIGN
VNS_BREAK_TYPE
      7806**DCL      7997>>UNWIND
VNS_REMEMBER
      7805**DCL      7997>>UNWIND
VN_BREAK_PROMPT
      7820**DCL      7939<>CALL
VN_BREAK_PROMPT.L#
      7820**DCL      7820--IMP-SIZ  7937>>IF       7939>>CALL     7981>>ASSIGN
VN_BREAK_PROMPT.NAME#
      7820**DCL      7937>>IF       7981--ASSIGN
VN_QUIT_OR_CONT
      7827**DCL      7962<>CALL
VN_QUIT_OR_CONT.L#
      7827**DCL      7827--IMP-SIZ  7960>>IF       7962>>CALL     7985>>CALLBLT
VN_QUIT_OR_CONT.NAME#
      7827**DCL      7960>>IF       7985>>CALLBLT

PL6.E3A0      #006=VNS$PRE_EXEC File=VNS$SEND.:VMB6TSI                           WED 08/20/97 15:30 Page:558
     3293        1        /*T***********************************************************/
     3294        2        /*T*                                                         */
     3295        3        /*T* Copyright (c) Bull HN Information Systems Inc., 1997    */
     3296        4        /*T*                                                         */
     3297        5        /*T***********************************************************/
     3298        6        /*X* DMC,PLM=4,IND=4,CTI=2,DTI=0,ENI=0,ECI=0,CSI=0,DCI=4 */
     3299        7        /*F*      NAME: VNS$PRE_EXEC
     3300        8                  PURPOSE: Called by XUR$GETCMD, prior to the execution of a DO
     3301        9                   command, for the purpose of creating *BODY.
     3302       10        */
     3303       11        VNS$PRE_EXEC: PROC(XUG_GETCMD,CMD);
     3304       12        %INCLUDE CP_6;
     3305     5571        %INCLUDE CP_6_SUBS;
     3306     6111        %INCLUDE VM_DATA_R;
     3307     6542        %INCLUDE XU_MACRO_C;
     3308     9648        %INCLUDE XU_SUBS_C;
     3309     9740        %INCLUDE XUR_ENTRY;
     3310     9772
     3311     9773        %B$TCB (STCLASS="BASED(B$TCB$)");
     3312     9776        %B$ALT;
     3313     9784        %XUG_GETCMD (NAME=XUG_GETCMD,STCLASS="");
     3314    10122
     3315    10123    1   DCL CMD SBIN;
     3316    10124    1   DCL VNS$BREAK_DISABLE ENTRY;
     3317    10125    1   DCL VNS$BREAK_ENABLE ENTRY;
     3318    10126    1   DCL VMM$EDIT_MESSAGE_IN ENTRY(4)  ALTRET;
     3319    10127    1   DCL VMM$EDIT_MESSAGE_OUT ENTRY(5) ALTRET;
     3320    10128
     3321    10129    1       IF CMD = %XUG_CMD_DO
     3322    10130    2       THEN DO;
     3323    10131    2           CALL VNS$BREAK_DISABLE;
     3324    10132    2           CALL VMM$EDIT_MESSAGE_OUT (0,0,M$WORK_NUM,%NO#) ALTRET(ERR);
     3325    10133    2           CALL VNS$BREAK_ENABLE;
     3326    10134    2       END;
     3327    10135    1       RETURN;
     3328    10136
     3329    10137    1   ERR:
PL6.E3A0      #006=VNS$PRE_EXEC File=VNS$SEND.:VMB6TSI                           WED 08/20/97 15:30 Page:559
     3330    10138    1       CALL XUR$ERRMSG (B$TCB.ALT$->B$ALT.ERR, B$TCB.ALT$->B$ALT.DCB#);
     3331    10139    1       CALL VNS$BREAK_ENABLE;
     3332    10140    1       RETURN;
     3333    10141        %EJECT;
PL6.E3A0      #006=VNS$PRE_EXEC File=VNS$SEND.:VMB6TSI                           WED 08/20/97 15:30 Page:560
     3334    10142        /*F*      NAME: VNS$POST_EXEC
     3335    10143                  PURPOSE: Called by XUR$GETCMD, after processing a DO command,
     3336    10144                        for the purpose of reading in *BODY.
     3337    10145        */
     3338    10146    1   VNS$POST_EXEC: ENTRY (XUG_GETCMD,CMD);
     3339    10147
     3340    10148    1       IF CMD = %XUG_CMD_DO
     3341    10149    2       THEN DO;
     3342    10150    2           CALL VNS$BREAK_DISABLE;
     3343    10151    2           CALL VMM$EDIT_MESSAGE_IN (0,0,M$WORK_NUM) ALTRET(ERR);
     3344    10152    2           CALL VNS$BREAK_ENABLE;
     3345    10153    2       END;
     3346    10154    1       RETURN;
     3347    10155    1   END VNS$PRE_EXEC;

PL6.E3A0      #006=VNS$PRE_EXEC File=VNS$SEND.:VMB6TSI                           WED 08/20/97 15:30 Page:561
--  Include file information  --

   XUR_ENTRY.:LIB_E05  cannot be made into a system file and is referenced.
   XU_SUBS_C.:LIB_E05  is referenced.
   XU_MACRO_C.:LIB_E05  is referenced.
   B_MACROS_C.:LIB_E05  is referenced.
   VM_DATA_R.:VMB6TOU  cannot be made into a system file and is referenced.
   CP_6_SUBS.:LIB_E05  is referenced.
   CP_6_C.:LIB_E05  is referenced.
   CP_6.:LIB_E05  cannot be made into a system file and is referenced.
      No diagnostics issued in procedure VNS$PRE_EXEC.

   Procedure VNS$PRE_EXEC requires 48 words for executable code.
   Procedure VNS$PRE_EXEC requires 8 words of local(AUTO) storage.

    No errors detected in file VNS$SEND.:VMB6TSI    .

PL6.E3A0      #006=VNS$PRE_EXEC File=VNS$SEND.:VMB6TSI                           WED 08/20/97 15:30 Page:562

 Object Unit name= VNS$PRE_EXEC                               File name= VNS$SEND.:VMB6TOU
 UTS= AUG 20 '97 15:30:59.72 WED                              Compiler= PL-6/E31         Sev=      00
 SharedLib= :SHARED_SYSTEM                                    Alt SharedLib=


    ****  Control sections  ****

 Sect   Type Bound  Init  Size OctSiz  Section name(segment info)
    0   DCB   even  none     0      0  M$UC
    1   DCB   even  none     0      0  M$MAIL_FILE
    2   DCB   even  none     0      0  M$MAIL_CENTRAL
    3   DCB   even  none     0      0  M$MAIL_GLOBAL
    4   DCB   even  none     0      0  M$WORK
    5   DCB   even  none     0      0  M$MAIL_COMGROUP
    6   DCB   even  none     0      0  M$DO
    7   DCB   even  none     0      0  M$LO
    8   DCB   even  none     0      0  M$ME
    9   DCB   even  none     0      0  M$NODE
   10   DCB   even  none     0      0  M$SI
   11   Proc  even  none    48     60  VNS$PRE_EXEC
   12  RoData even  none     8     10  VNS$PRE_EXEC

    ****  Entry defs  ****

                              Check   Calling
                             calling  sequence
  Sect OctLoc Primary Altret sequence   type   Parms  Name
    11      0   yes            yes      Std        2  VNS$PRE_EXEC
    11     37                  yes      Std        2  VNS$POST_EXEC
PL6.E3A0      #006=VNS$PRE_EXEC File=VNS$SEND.:VMB6TSI                           WED 08/20/97 15:30 Page:563

  ****  Entry refs  ****

         Check        Calling
        calling       sequence
Altret sequence SRef   type   Args  Name
         yes           Std       0 VNS$BREAK_DISABLE
 yes     yes           Std       5 VMM$EDIT_MESSAGE_OUT
         yes           Std       0 VNS$BREAK_ENABLE
 yes     yes           Std       4 VMM$EDIT_MESSAGE_IN
 yes     yes           Std       7 XUR$ERRMSG
                       nStd      0 X66_AUTO_2
                       nStd      0 X66_ARET

  ****  Data refs  ****

  Flags:  r = read only, s = secondary
Flgs Name                             Flgs Name                             Flgs Name
     M$UC                             r    VM_HEADER$                       r    VM_PROFILE$
r    VM_ADDLIST$                      r    VM_ADDREC$                       r    VM_WORK$
r    VM_SELECT$                       r    VM_PARSEAREA$                    r    VM_INPUT$
r    VM_COPY$                              VM_ENCLLIST$                          VM_ENCLREC$
     VM_HEADER_                            VM_HEADER_INIT_                       VM_PROFILE_
     VM_ADDLIST_                           VM_ADDREC_                            VM_WORK_
     VM_SELECT_                            VM_PARSEAREA_                         VM_INPUT_
     VM_COPY_                              VM_ENCLLIST_                          VM_ENCLREC_
     M$MAIL_FILE                           M$MAIL_CENTRAL                        M$MAIL_GLOBAL
     M$WORK                                M$MAIL_COMGROUP                       M$DO
     M$LO                                  M$ME                                  M$NODE
     M$SI                                  M$MAIL_FILE_NUM                       M$MAIL_CENTRAL_NUM
     M$MAIL_GLOBAL_NUM                     M$WORK_NUM                            M$MAIL_COMGROUP_NUM
     M$DO_NUM                              M$ME_NUM                              M$LO_NUM
     M$SI_NUM                              M$NODE_NUM                       r    B$JIT$
r    B$TCB$                                VM_MAIL_ACCT                          VM_NAME_MAP_NAME
     ERRMSG_FID                            VM_SEND_FILE_NAME                     VM_FORWARD_FILE_NAME
     VM_FORWARD_ENCL_NAME                  VM_FORWARD_FILE_PASS                  VM_MAILCG_NAME
     VM_SITENAME                           VM_MAILCG_SETSTA
PL6.E3A0      #006=VNS$PRE_EXEC File=VNS$SEND.:VMB6TSI                           WED 08/20/97 15:30 Page:564

  ****  Segment refs  ****

  Flags:  r = read only, s = secondary
Flgs Name                             Flgs Name                             Flgs Name
     ISSID
PL6.E3A0      #006=VNS$PRE_EXEC File=VNS$SEND.:VMB6TSI                           WED 08/20/97 15:30 Page:565


     3293        1        /*T***********************************************************/
     3294        2        /*T*                                                         */
     3295        3        /*T* Copyright (c) Bull HN Information Systems Inc., 1997    */
     3296        4        /*T*                                                         */
     3297        5        /*T***********************************************************/
     3298        6        /*X* DMC,PLM=4,IND=4,CTI=2,DTI=0,ENI=0,ECI=0,CSI=0,DCI=4 */
     3299        7        /*F*      NAME: VNS$PRE_EXEC
     3300        8                  PURPOSE: Called by XUR$GETCMD, prior to the execution of a DO
     3301        9                   command, for the purpose of creating *BODY.
     3302       10        */
     3303       11        VNS$PRE_EXEC: PROC(XUG_GETCMD,CMD);

     11 11 000000   000000 700200 xent  VNS$PRE_EXEC TSX0  ! X66_AUTO_2
        11 000001   000010 000002                    ZERO    8,2

     3304       12        %INCLUDE CP_6;
     3305     5571        %INCLUDE CP_6_SUBS;
     3306     6111        %INCLUDE VM_DATA_R;
     3307     6542        %INCLUDE XU_MACRO_C;
     3308     9648        %INCLUDE XU_SUBS_C;
     3309     9740        %INCLUDE XUR_ENTRY;
     3310     9772
     3311     9773        %B$TCB (STCLASS="BASED(B$TCB$)");
     3312     9776        %B$ALT;
     3313     9784        %XUG_GETCMD (NAME=XUG_GETCMD,STCLASS="");
     3314    10122
     3315    10123    1   DCL CMD SBIN;
     3316    10124    1   DCL VNS$BREAK_DISABLE ENTRY;
     3317    10125    1   DCL VNS$BREAK_ENABLE ENTRY;
     3318    10126    1   DCL VMM$EDIT_MESSAGE_IN ENTRY(4)  ALTRET;
     3319    10127    1   DCL VMM$EDIT_MESSAGE_OUT ENTRY(5) ALTRET;
     3320    10128
     3321    10129    1       IF CMD = %XUG_CMD_DO

  10129 11 000002   200004 470500                    LDP0    @CMD,,AUTO
        11 000003   000000 235100                    LDA     0,,PR0
PL6.E3A0      #006=VNS$PRE_EXEC File=VNS$SEND.:VMB6TSI                           WED 08/20/97 15:30 Page:566
        11 000004   000002 115007                    CMPA    2,DL
        11 000005   000020 601000 11                 TNZ     s:10135

     3322    10130    2       THEN DO;

     3323    10131    2           CALL VNS$BREAK_DISABLE;

  10131 11 000006   000000 631400 12                 EPPR1   0
        11 000007   000000 701000 xent               TSX1    VNS$BREAK_DISABLE
        11 000010   000000 011000                    NOP     0

     3324    10132    2           CALL VMM$EDIT_MESSAGE_OUT (0,0,M$WORK_NUM,%NO#) ALTRET(ERR);

  10132 11 000011   000002 630400 12                 EPPR0   2
        11 000012   000001 631400 12                 EPPR1   1
        11 000013   000000 701000 xent               TSX1    VMM$EDIT_MESSAGE_OUT
        11 000014   000021 702000 11                 TSX2    ERR

     3325    10133    2           CALL VNS$BREAK_ENABLE;

  10133 11 000015   000000 631400 12                 EPPR1   0
        11 000016   000000 701000 xent               TSX1    VNS$BREAK_ENABLE
        11 000017   000000 011000                    NOP     0

     3326    10134    2       END;

     3327    10135    1       RETURN;

  10135 11 000020   000000 702200 xent               TSX2  ! X66_ARET

     3328    10136
     3329    10137    1   ERR:
     3330    10138    1       CALL XUR$ERRMSG (B$TCB.ALT$->B$ALT.ERR, B$TCB.ALT$->B$ALT.DCB#);

  10138 11 000021   000000 470400 xsym  ERR          LDP0    B$TCB$
        11 000022   000000 471500                    LDP1    0,,PR0
        11 000023   100101 633500                    EPPR3   65,,PR1
PL6.E3A0      #006=VNS$PRE_EXEC File=VNS$SEND.:VMB6TSI                           WED 08/20/97 15:30 Page:567
        11 000024   200007 453500                    STP3    @CMD+3,,AUTO
        11 000025   100102 634500                    EPPR4   66,,PR1
        11 000026   200006 454500                    STP4    @CMD+2,,AUTO
        11 000027   200006 630500                    EPPR0   @CMD+2,,AUTO
        11 000030   000006 631400 12                 EPPR1   6
        11 000031   000000 701000 xent               TSX1    XUR$ERRMSG
        11 000032   000000 011000                    NOP     0

     3331    10139    1       CALL VNS$BREAK_ENABLE;

  10139 11 000033   000000 631400 12                 EPPR1   0
        11 000034   000000 701000 xent               TSX1    VNS$BREAK_ENABLE
        11 000035   000000 011000                    NOP     0

     3332    10140    1       RETURN;

  10140 11 000036   000000 702200 xent               TSX2  ! X66_ARET

     3333    10141        %EJECT;
PL6.E3A0      #006=VNS$PRE_EXEC File=VNS$SEND.:VMB6TSI                           WED 08/20/97 15:30 Page:568
     3334    10142        /*F*      NAME: VNS$POST_EXEC
     3335    10143                  PURPOSE: Called by XUR$GETCMD, after processing a DO command,
     3336    10144                        for the purpose of reading in *BODY.
     3337    10145        */
     3338    10146    1   VNS$POST_EXEC: ENTRY (XUG_GETCMD,CMD);

  10146 11 000037   000000 700200 xent  VNS$POST_EX* TSX0  ! X66_AUTO_2
        11 000040   000010 000002                    ZERO    8,2

     3339    10147
     3340    10148    1       IF CMD = %XUG_CMD_DO

  10148 11 000041   200004 470500                    LDP0    @CMD,,AUTO
        11 000042   000000 235100                    LDA     0,,PR0
        11 000043   000002 115007                    CMPA    2,DL
        11 000044   000057 601000 11                 TNZ     s:10154

     3341    10149    2       THEN DO;

     3342    10150    2           CALL VNS$BREAK_DISABLE;

  10150 11 000045   000000 631400 12                 EPPR1   0
        11 000046   000000 701000 xent               TSX1    VNS$BREAK_DISABLE
        11 000047   000000 011000                    NOP     0

     3343    10151    2           CALL VMM$EDIT_MESSAGE_IN (0,0,M$WORK_NUM) ALTRET(ERR);

  10151 11 000050   000002 630400 12                 EPPR0   2
        11 000051   000007 631400 12                 EPPR1   7
        11 000052   000000 701000 xent               TSX1    VMM$EDIT_MESSAGE_IN
        11 000053   000021 702000 11                 TSX2    ERR

     3344    10152    2           CALL VNS$BREAK_ENABLE;

  10152 11 000054   000000 631400 12                 EPPR1   0
        11 000055   000000 701000 xent               TSX1    VNS$BREAK_ENABLE
        11 000056   000000 011000                    NOP     0
PL6.E3A0      #006=VNS$PRE_EXEC File=VNS$SEND.:VMB6TSI                           WED 08/20/97 15:30 Page:569

     3345    10153    2       END;

     3346    10154    1       RETURN;

  10154 11 000057   000000 702200 xent               TSX2  ! X66_ARET

(unnamed)
 Sect OctLoc
  12     000   000000 000000   000004 000000   000000 006000   000000 006000    ................
  12     004   000000 006000   000000 006000   000002 000000   000003 000000    ................
     3347    10155    1   END VNS$PRE_EXEC;

PL6.E3A0      #006=VNS$PRE_EXEC File=VNS$SEND.:VMB6TSI                           WED 08/20/97 15:30 Page:570
--  Include file information  --

   XUR_ENTRY.:LIB_E05  cannot be made into a system file and is referenced.
   XU_SUBS_C.:LIB_E05  is referenced.
   XU_MACRO_C.:LIB_E05  is referenced.
   B_MACROS_C.:LIB_E05  is referenced.
   VM_DATA_R.:VMB6TOU  cannot be made into a system file and is referenced.
   CP_6_SUBS.:LIB_E05  is referenced.
   CP_6_C.:LIB_E05  is referenced.
   CP_6.:LIB_E05  cannot be made into a system file and is referenced.
      No diagnostics issued in procedure VNS$PRE_EXEC.
PL6.E3A0      #006=VNS$PRE_EXEC File=VNS$SEND.:VMB6TSI                           WED 08/20/97 15:30 Page:571

 **** Variables and constants ****

  ****  Auto variables  ****

  ****  Scalars and arrays  ****
OctLoc.c.b A Datatyp(siz) R M Lvl/name                 OctLoc.c.b A Datatyp(siz) R M Lvl/name

     4-0-0/w PTR         r     1 @CMD                       3-0-0/w PTR         r     1 @XUG_GETCMD
    *0-0-0/w SBIN        r     1 CMD                       *0-0-0/d STRC(1512)  r     1 XUG_GETCMD

  ****  SYMREF variables  ****

  ****  Scalars and arrays  ****
OctLoc.c.b A Datatyp(siz) R M Lvl/name                 OctLoc.c.b A Datatyp(siz) R M Lvl/name

     0-0-0/w PTR               1 B$JIT$                     0-0-0/w PTR         r     1 B$TCB$
     0-0-0/c ASTR(9)     r     1 ERRMSG_FID                 0-0-0/w UBIN              1 M$DO_NUM
     0-0-0/w UBIN              1 M$LO_NUM                   0-0-0/w UBIN              1 M$MAIL_CENTRAL_NUM
     0-0-0/w UBIN              1 M$MAIL_COMGROUP_NUM        0-0-0/w UBIN              1 M$MAIL_FILE_NUM
     0-0-0/w UBIN              1 M$MAIL_GLOBAL_NUM          0-0-0/w UBIN              1 M$ME_NUM
     0-0-0/w UBIN              1 M$NODE_NUM                 0-0-0/w UBIN              1 M$SI_NUM
     0-0-0/w UBIN        r     1 M$WORK_NUM                 0-0-0/w PTR               1 VM_ADDLIST$
     0-0-0/d VECT              1 VM_ADDLIST_                0-0-0/w PTR               1 VM_ADDREC$
     0-0-0/d VECT              1 VM_ADDREC_                 0-0-0/w PTR               1 VM_COPY$
     0-0-0/d VECT              1 VM_COPY_                   0-0-0/w PTR               1 VM_ENCLLIST$
     0-0-0/d VECT              1 VM_ENCLLIST_               0-0-0/w PTR               1 VM_ENCLREC$
     0-0-0/d VECT              1 VM_ENCLREC_                0-0-0/c STRC(270)         1 VM_FORWARD_ENCL_NAME
     0-0-0/c STRC(270)         1 VM_FORWARD_FILE_NAME       0-0-0/c STRC(72)          1 VM_FORWARD_FILE_PASS
     0-0-0/w PTR               1 VM_HEADER$                 0-0-0/d VECT              1 VM_HEADER_
     0-0-0/d VECT              1 VM_HEADER_INIT_            0-0-0/w PTR               1 VM_INPUT$
     0-0-0/d VECT              1 VM_INPUT_                  0-0-0/c STRC(72)          1 VM_MAILCG_NAME
     0-0-0/w STRC(432)         1 VM_MAILCG_SETSTA           0-0-0/c STRC(72)          1 VM_MAIL_ACCT
     0-0-0/c STRC(54)          1 VM_NAME_MAP_NAME           0-0-0/w PTR               1 VM_PARSEAREA$
     0-0-0/d VECT              1 VM_PARSEAREA_              0-0-0/w PTR               1 VM_PROFILE$
     0-0-0/d VECT              1 VM_PROFILE_                0-0-0/w PTR               1 VM_SELECT$
     0-0-0/d VECT              1 VM_SELECT_                 0-0-0/c STRC(288)         1 VM_SEND_FILE_NAME
     0-0-0/c CHAR(8)           1 VM_SITENAME                0-0-0/w PTR               1 VM_WORK$
PL6.E3A0      #006=VNS$PRE_EXEC File=VNS$SEND.:VMB6TSI                           WED 08/20/97 15:30 Page:572
     0-0-0/d VECT              1 VM_WORK_

  ****  BASED and DCB variables  ****

  ****  Scalars and arrays  ****
OctLoc.c.b A Datatyp(siz) R M Lvl/name                 OctLoc.c.b A Datatyp(siz) R M Lvl/name

     0-0-0/w STRC(2448)  r     1 B$ALT                      0-0-0/w STRC(144)   r     1 B$TCB
     0-0-0N  NULL        r     1 M$DO                       0-0-0N  NULL        r     1 M$LO
     0-0-0N  NULL        r     1 M$MAIL_CENTRAL             0-0-0N  NULL        r     1 M$MAIL_COMGROUP
     0-0-0N  NULL        r     1 M$MAIL_FILE                0-0-0N  NULL        r     1 M$MAIL_GLOBAL
     0-0-0N  NULL        r     1 M$ME                       0-0-0N  NULL        r     1 M$NODE
     0-0-0N  NULL        r     1 M$SI                       0-0-0N  NULL        r     1 M$UC
     0-0-0N  NULL        r     1 M$WORK                     0-0-0/c ASTR(9)     r     1 X$STRING


   Procedure VNS$PRE_EXEC requires 48 words for executable code.
   Procedure VNS$PRE_EXEC requires 8 words of local(AUTO) storage.

    No errors detected in file VNS$SEND.:VMB6TSI    .
PL6.E3A0      #006=VNS$PRE_EXEC File=VNS$SEND.:VMB6TSI                           WED 08/20/97 15:30 Page:573
          *** CROSS REFERENCE LISTING ***
**     DENOTES     IDENTIFIER DEFINITION
<<                 IDENTIFIER'S VALUE SET
>>                 IDENTIFIER'S VALUE USED
<>                 IDENTIFIER SET AND/OR USED
--                 IDENTIFIER REFERENCED
PL6.E3A0      #006=VNS$PRE_EXEC File=VNS$SEND.:VMB6TSI                           WED 08/20/97 15:30 Page:574
          MINI XREF LISTING

B$ALT.CODE
      9778**DCL      9778--REDEF    9779--REDEF    9779--REDEF
B$ALT.DCB#
      9779**DCL     10138<>CALL
B$ALT.ERR
      9779**DCL     10138<>CALL
B$ALT.ERR.ERR#
      9780**DCL      9780--REDEF
B$ALT.EVID
      9779**DCL      9779--REDEF    9779--REDEF
B$TCB.ALT$
      9774**DCL     10138>>CALL    10138>>CALL
B$TCB$
      6319**DCL      9774--IMP-PTR 10138>>CALL    10138>>CALL
CMD
     10123**DCL        11--PROC    10129>>IF      10146--ENTRY   10148>>IF
ERR
     10138**LABEL   10132--CALLALT 10151--CALLALT
ERRMSG_FID.L#
      6387**DCL      6387--IMP-SIZ
M$WORK_NUM
      6304**DCL     10132<>CALL    10151<>CALL
VMM$EDIT_MESSAGE_IN
     10126**DCL-ENT 10151--CALL
VMM$EDIT_MESSAGE_OUT
     10127**DCL-ENT 10132--CALL
VNS$BREAK_DISABLE
     10124**DCL-ENT 10131--CALL    10150--CALL
VNS$BREAK_ENABLE
     10125**DCL-ENT 10133--CALL    10139--CALL    10152--CALL
X$STRING.SIZ
      6233**DCL      6234--IMP-SIZ
PL6.E3A0      #006=VNS$PRE_EXEC File=VNS$SEND.:VMB6TSI                           WED 08/20/97 15:30 Page:575
XUG_GETCMD
      9797**DCL        11--PROC    10146--ENTRY
XUG_GETCMD.OUT$
      9802**DCL      9808--REDEF
XUR$ERRMSG
      9755**DCL-ENT 10138--CALL
