PL6.E3A0      #003=VOM$XCON File=VOM$MAILMAN.:VMB6TSI                            WED 08/20/97 15:34 Page:449
     2778        1        /*T***********************************************************/
     2779        2        /*T*                                                         */
     2780        3        /*T* Copyright (c) Bull HN Information Systems Inc., 1997    */
     2781        4        /*T*                                                         */
     2782        5        /*T***********************************************************/
     2783        6        /*X* DMC,PLM=4,IND=4,CTI=2,DTI=0,ENI=0,ECI=0,CSI=0,DCI=4 */
     2784        7
     2785        8        VOM$XCON: PROC ASYNC;
     2786        9    1   DCL LADC_FLAG BIT(1) CONSTANT SYMDEF INIT('0'B);
     2787       10                       /* LADC_FLAG will cause save files to be built if turned on */
     2788       11    1   DCL 1 NAME STATIC,
     2789       12    1         2 * UBIN(9) INIT(18) UNAL,
     2790       13    1         2 * CHAR(4) INIT('SAVE'),
     2791       14    1         2 A,
     2792       15    1           3 DATE CHAR(6),
     2793       16    1           3 TIME CHAR(8),
     2794       17    1         2 ANS REDEF A CHAR(14),
     2795       18    1         2 B REDEF A,
     2796       19    1           3 COMP CHAR(10),
     2797       20    1           3 * CHAR(4);
     2798       21    1   DCL 1 CMD STATIC,
     2799       22    1         2 * UBIN(9) INIT(10) UNAL,
     2800       23    1         2 TEXT CHAR(10);
     2801       24    1   DCL 1 MESS3 STATIC,
     2802       25    1         2 * CHAR(0) INIT('SAVE file is: '),
     2803       26    1         2 ANS CHAR(14);
     2804       27    1   DCL ALIB_CMD CHAR(0) STATIC INIT('PMD TCB,AUTO,DCB');
     2805       28    1   DCL MESS1 CHAR(0) CONSTANT INIT('MAILMAN aborting!!');
     2806       29    1   DCL MESS2 CHAR(0) CONSTANT INIT('SAVE build failed, PMD issued.');
     2807       30    1   DCL MESS4 CHAR(0) CONSTANT INIT('Can''t LDTRC');
     2808       31    1   DCL MESS5 CHAR(0) CONSTANT INIT(
                31            'MAILMAN BLEW UP TWICE IN SAME MINUTE, CAN''T RESTART');
     2809       32    1   DCL MAIL_IN DCB;
     2810       33    1   DCL ERROR_FROM_STACK BIT (36) STATIC;
     2811       34        %INCLUDE CP_6;
     2812     5593        %INCLUDE CP_6_SUBS;
     2813     6133        %INCLUDE VO_SUBS_C;
PL6.E3A0      #003=VOM$XCON File=VOM$MAILMAN.:VMB6TSI                            WED 08/20/97 15:34 Page:450
     2814     6184        %INCLUDE VM_DATA_R;
     2815     6615        %INCLUDE VM_PERR_C;
     2816     6910             %B$TCB (STCLASS="BASED(B$TCB$)");
     2817     6913
     2818     6914              %F$DCB;
     2819     6971
     2820     6972        %B$XCON;
     2821     6982        %INCLUDE B$JIT;
     2822     7585
     2823     7586
     2824     7587        %FPT_TIME (FPTN=FPT_TIME, STCLASS=CONSTANT,
     2825     7588                  DATE=NAME.A.DATE,
     2826     7589                  TIME=NAME.A.TIME,
     2827     7590                  DEST=ANS);
     2828     7609        %FPT_KEYIN (FPTN=FPT_KEYIN, STCLASS=STATIC);
     2829     7628        %FPT_SAVE (FPTN=FPT_SAVE, STCLASS=CONSTANT,
     2830     7629                  ACCT=MAILACCT,
     2831     7630                  NAME=NAME);
     2832     7644        %FPT_ALIB (FPTN=FPT_ALIB, STCLASS=CONSTANT,
     2833     7645                  LIBNAME=DELTA_NAME,
     2834     7646                  CMD=ALIB_CMD,
     2835     7647                  DLIB=YES,
     2836     7648                  RETRN=YES);
     2837     7665        %VLP_NAME (FPTN=DELTA_NAME, STCLASS=CONSTANT,
     2838     7666                  NAME='DELTA');
     2839     7693        %FPT_CLOSE (FPTN=RENAME_BAD_FILE,
     2840     7694                    DCB=MAIL_IN,
     2841     7695                    CHGATT=YES,
     2842     7696                    NAME=NEW_NAME);
     2843     7738        %VLP_NAME  (FPTN=NEW_NAME, L=31);
     2844     7765        %FPT_XCON (STCLASS=CONSTANT);
     2845     7779        %FPT_SCREECH  (STCLASS=CONSTANT,
     2846     7780                       JERR=ERROR_FROM_STACK,
     2847     7781                       SCODE=MAILMAN_SNAPSHOT,
     2848     7782                       SCREECHID=SCREECH_ID);
     2849     7796        %VLP_SCODE    (FPTN=MAILMAN_SNAPSHOT, STCLASS=CONSTANT,
     2850     7797                       FCG=VO, MID=M, CODE=%E$MAILMAN_SNAP, SEV=SEV_SNAP,
PL6.E3A0      #003=VOM$XCON File=VOM$MAILMAN.:VMB6TSI                            WED 08/20/97 15:34 Page:451
     2851     7798                       CFUS=YES, CUSR=YES, DDSEG=YES, ENQ=YES, FMBUF=YES, ISEG=YES,
     2852     7799                       ROSEG=YES);
     2853     7860        /*E*    ERROR:  VOM-E$MAILMAN_SNAP-0
     2854     7861                MESSAGE:  MAILMAN has snapped because his exit control
     2855     7862                         routine has been entered.  MAILMAN will attempt
     2856     7863                         to restart by renaming the offending mailgram
     2857     7864                         (if there is one) and M$LDTRC to himself.  If
     2858     7865                         XCON is entered twice in the same minute,
     2859     7866                         MAILMAN must be restarted manually (thru GOOSE)
     2860     7867                         after determining the reason for the aborts.
     2861     7868        */
     2862     7869        %VLP_NAME     (FPTN=SCREECH_ID);
     2863     7896        %FPT_LDEV (CONTINUE=NO, STREAMNAME='LP01', STCLASS=CONSTANT);
     2864     7921        %FPT_LDTRC (FPTN=VM_LDTRC_MAILMAN,
     2865     7922                    STCLASS="CONSTANT SYMDEF",
     2866     7923                    CMD=CMD,
     2867     7924                    NAME=VM_MAILMAN_RUNAME,
     2868     7925                    ACCT=VM_MAILMAN_RUACCT);
     2869     7943        %VLP_NAME (FPTN=VM_MAILMAN_RUNAME,
     2870     7944                   NAME='MAILMAN',
     2871     7945                   LEN=31,
     2872     7946                   STCLASS="CONSTANT SYMDEF");
     2873     7973        %VLP_ACCT (FPTN=VM_MAILMAN_RUACCT,
     2874     7974                   ACCT=':SYS',
     2875     7975                   STCLASS="CONSTANT SYMDEF");
     2876     7988        %VLP_ACCT (FPTN=MAILACCT,
     2877     7989             ACCT=':MAIL ',
     2878     7990             STCLASS=CONSTANT);
     2879     8003
     2880     8004    1   dcl VOM_INIT_CCTIME char(10) symref;
     2881     8005
     2882     8006
     2883     8007
     2884     8008        %FPT_CLOSE (FPTN=CLOSE_MAILCG,
     2885     8009                       DCB=M$MAIL_COMGROUP,
     2886     8010                       DISP=SAVE);
     2887     8052        %FPT_CLOSE (FPTN=CLOSE_SITE,
PL6.E3A0      #003=VOM$XCON File=VOM$MAILMAN.:VMB6TSI                            WED 08/20/97 15:34 Page:452
     2888     8053                       DCB=M$NODE,
     2889     8054                       DISP=SAVE);
     2890     8096
     2891     8097
     2892     8098             %FPT_WAIT (FPTN=WAIT_AWHILE,
     2893     8099                            UNITS=60);
     2894     8113
     2895     8114        %FPT_XCON (FPTN=RESET_XCON);
     2896     8128
     2897     8129
     2898     8130
     2899     8131    1       IF B$TCB.STK$ -> B$XCON.RNST.OPXXX
     2900     8132    2       THEN DO;
     2901     8133    2           CALL M$XCON (RESET_XCON);
     2902     8134    2           CALL M$EXIT;
     2903     8135    2       END;
     2904     8136    1       IF DCBADDR(M$NODE_NUM) ->F$DCB.FCD# THEN
     2905     8137    1           CALL M$CLOSE(CLOSE_SITE) ALTRET(CONT_ON);
     2906     8138
     2907     8139    1       IF B$TCB.STK$ -> B$XCON.RNST.OPERR
     2908     8140    2       THEN DO;
     2909     8141    2           CALL M$XCON (RESET_XCON);
     2910     8142    2           CALL M$LDTRC (VM_LDTRC_MAILMAN) ALTRET(OOPS);
     2911     8143    2       END;
     2912     8144
     2913     8145    1   CONT_ON:;
     2914     8146    1       IF B$JIT.MODE = %M_GHOST# AND B$JIT.PRIV.ACTIVE.EXMM
     2915     8147    2       THEN DO;
     2916     8148    2           ERROR_FROM_STACK = B$TCB.STK$ -> B$XCON.ERR;
     2917     8149    3           CALL M$SCREECH (FPT_SCREECH) WHENALTRETURN DO; END;
     2918     8150    2       END;
     2919     8151    1       FPT_KEYIN.MESS_ = VECTOR(MESS1);
     2920     8152    1       CALL M$KEYIN (FPT_KEYIN);
     2921     8153    1       CALL M$TIME (FPT_TIME);
     2922     8154    1       IF LADC_FLAG
     2923     8155    2       THEN DO;
     2924     8156    2           CALL M$SAVE (FPT_SAVE)
PL6.E3A0      #003=VOM$XCON File=VOM$MAILMAN.:VMB6TSI                            WED 08/20/97 15:34 Page:453
     2925     8157    3           WHENRETURN DO;
     2926     8158    3               MESS3.ANS = NAME.ANS;
     2927     8159    3               FPT_KEYIN.MESS_ = VECTOR(MESS3);
     2928     8160    3               CALL M$KEYIN (FPT_KEYIN);
     2929     8161    3           END;
     2930     8162    3           WHENALTRETURN DO;
     2931     8163    3               FPT_KEYIN.MESS_ = VECTOR(MESS2);
     2932     8164    3               CALL M$ALIB (FPT_ALIB);
     2933     8165    3           END;
     2934     8166    2       END;                       /* If ladc */
     2935     8167    1       IF DCBADDR(DCBNUM(MAIL_IN)) -> F$DCB.FCD#
     2936     8168    2       THEN DO;
     2937     8169    2           NEW_NAME = DCBADDR(DCBNUM(MAIL_IN)) -> F$DCB.NAME#;
     2938     8170    2           SUBSTR(NEW_NAME.NAME#,1,4)='DEAD';
     2939     8171    2           CALL M$CLOSE (RENAME_BAD_FILE) ALTRET (RENAME_DIDNT_WORK);
     2940     8172    2   RENAME_DIDNT_WORK: ;
     2941     8173    2       END;
     2942     8174    1       CALL M$XCON (RESET_XCON);
     2943     8175    1       IF VOM_INIT_CCTIME = NAME.B.COMP
     2944     8176    2       THEN DO;                   /* Blew up twice in a row, don't restart */
     2945     8177    2           FPT_KEYIN.MESS_ = VECTOR(MESS5);
     2946     8178    2           CALL M$KEYIN (FPT_KEYIN);
     2947     8179    2           CALL M$XXX;
     2948     8180    2       END;
     2949     8181    2       ELSE DO;
     2950     8182    2           CMD.TEXT = NAME.B.COMP;
     2951     8183    2           CALL M$LDTRC (VM_LDTRC_MAILMAN) ALTRET(OOPS);
     2952     8184    2       END;
     2953     8185    1   OOPS:
     2954     8186    1       FPT_KEYIN.MESS_ = VECTOR(MESS4);
     2955     8187    1       CALL M$KEYIN (FPT_KEYIN);
     2956     8188    1       ALIB_CMD='DU $LS15->0 '' MAILMAN TCB ''';
     2957     8189    1       CALL M$ALIB;
     2958     8190    1       CALL M$LDEV (FPT_LDEV) ALTRET(L1);
     2959     8191    1   L1: CALL M$XXX;
     2960     8192    1   END VOM$XCON;
     2961     8193        %EOD;
PL6.E3A0      #003=VOM$XCON File=VOM$MAILMAN.:VMB6TSI                            WED 08/20/97 15:34 Page:454

PL6.E3A0      #003=VOM$XCON File=VOM$MAILMAN.:VMB6TSI                            WED 08/20/97 15:34 Page:455
--  Include file information  --

   B$JIT_C.:LIB_E05  is referenced.
   B$JIT.:LIB_E05  cannot be made into a system file and is referenced.
   VM_PERR_C.:VMB6TOU  is referenced.
   B_MACROS_C.:LIB_E05  is referenced.
   VM_DATA_R.:VMB6TOU  cannot be made into a system file and is referenced.
   VO_SUBS_C.:VMB6TOU  is referenced.
   CP_6_SUBS.:LIB_E05  is referenced.
   CP_6_C.:LIB_E05  is referenced.
   CP_6.:LIB_E05  cannot be made into a system file and is referenced.
      No diagnostics issued in procedure VOM$XCON.

   Procedure VOM$XCON requires 137 words for executable code.
   Procedure VOM$XCON requires 4 words of local(AUTO) storage.

PL6.E3A0      #003=VOM$XCON File=VOM$MAILMAN.:VMB6TSI                            WED 08/20/97 15:34 Page:456

 Object Unit name= VOM$XCON                                   File name= VOM$MAILMAN.:VMB6TOU
 UTS= AUG 20 '97 15:34:08.12 WED                              Compiler= PL-6/E31         Sev=      00
 SharedLib= :SHARED_SYSTEM                                    Alt SharedLib=


    ****  Control sections  ****

 Sect   Type Bound  Init  Size OctSiz  Section name(segment info)
    0  RoData even  UTS    132    204  VOM$XCON
    1   Data  even  none   152    230  VOM$XCON
    2   DCB   even  none     0      0  MAIL_IN
    3   DCB   even  none     0      0  M$UC
    4   DCB   even  none     0      0  M$MAIL_FILE
    5   DCB   even  none     0      0  M$MAIL_CENTRAL
    6   DCB   even  none     0      0  M$MAIL_GLOBAL
    7   DCB   even  none     0      0  M$WORK
    8   DCB   even  none     0      0  M$MAIL_COMGROUP
    9   DCB   even  none     0      0  M$DO
   10   DCB   even  none     0      0  M$LO
   11   DCB   even  none     0      0  M$ME
   12   DCB   even  none     0      0  M$NODE
   13   DCB   even  none     0      0  M$SI
   14   Proc  even  none   137    211  VOM$XCON
   15  RoData even  none    12     14  VOM$XCON

    ****  Entry defs  ****

                              Check   Calling
                             calling  sequence
  Sect OctLoc Primary Altret sequence   type   Parms  Name
    14      0   yes            yes     Async       0  VOM$XCON
PL6.E3A0      #003=VOM$XCON File=VOM$MAILMAN.:VMB6TSI                            WED 08/20/97 15:34 Page:457

  ****  Data defs  ****

 Sect OctLoc  Name                           Sect OctLoc  Name
    0      0  LADC_FLAG                          0    140  VM_LDTRC_MAILMAN
    0    160  VM_MAILMAN_RUNAME                  0    170  VM_MAILMAN_RUACCT

  ****  Entry refs  ****

         Check        Calling
        calling       sequence
Altret sequence SRef   type   Args  Name
                       nStd      0 X66_AAUTO
                       nStd      0 X66_AARET

  ****  Data refs  ****

  Flags:  r = read only, s = secondary
Flgs Name                             Flgs Name                             Flgs Name
     MAIL_IN                               M$UC                             r    VM_HEADER$
r    VM_PROFILE$                      r    VM_ADDLIST$                      r    VM_ADDREC$
r    VM_WORK$                         r    VM_SELECT$                       r    VM_PARSEAREA$
r    VM_INPUT$                        r    VM_COPY$                              VM_ENCLLIST$
     VM_ENCLREC$                           VM_HEADER_                            VM_HEADER_INIT_
     VM_PROFILE_                           VM_ADDLIST_                           VM_ADDREC_
     VM_WORK_                              VM_SELECT_                            VM_PARSEAREA_
     VM_INPUT_                             VM_COPY_                              VM_ENCLLIST_
     VM_ENCLREC_                           M$MAIL_FILE                           M$MAIL_CENTRAL
     M$MAIL_GLOBAL                         M$WORK                                M$MAIL_COMGROUP
     M$DO                                  M$LO                                  M$ME
     M$NODE                                M$SI                                  M$MAIL_FILE_NUM
     M$MAIL_CENTRAL_NUM                    M$MAIL_GLOBAL_NUM                     M$WORK_NUM
     M$MAIL_COMGROUP_NUM                   M$DO_NUM                              M$ME_NUM
     M$LO_NUM                              M$SI_NUM                              M$NODE_NUM
r    B$JIT$                           r    B$TCB$                                VM_MAIL_ACCT
     VM_NAME_MAP_NAME                      ERRMSG_FID                            VM_SEND_FILE_NAME
     VM_FORWARD_FILE_NAME                  VM_FORWARD_ENCL_NAME                  VM_FORWARD_FILE_PASS
     VM_MAILCG_NAME                        VM_SITENAME                           VM_MAILCG_SETSTA
PL6.E3A0      #003=VOM$XCON File=VOM$MAILMAN.:VMB6TSI                            WED 08/20/97 15:34 Page:458
     VOM_INIT_CCTIME

  ****  Segment refs  ****

  Flags:  r = read only, s = secondary
Flgs Name                             Flgs Name                             Flgs Name
     ISSID                                 NULLSID                               ROSID
PL6.E3A0      #003=VOM$XCON File=VOM$MAILMAN.:VMB6TSI                            WED 08/20/97 15:34 Page:459


     2778        1        /*T***********************************************************/
     2779        2        /*T*                                                         */
     2780        3        /*T* Copyright (c) Bull HN Information Systems Inc., 1997    */
     2781        4        /*T*                                                         */
     2782        5        /*T***********************************************************/
     2783        6        /*X* DMC,PLM=4,IND=4,CTI=2,DTI=0,ENI=0,ECI=0,CSI=0,DCI=4 */
     2784        7
     2785        8        VOM$XCON: PROC ASYNC;

      8 14 000000   000000 700200 xent  VOM$XCON     TSX0  ! X66_AAUTO
        14 000001   000004 000000                    ZERO    4,0

     2786        9    1   DCL LADC_FLAG BIT(1) CONSTANT SYMDEF INIT('0'B);
     2787       10                       /* LADC_FLAG will cause save files to be built if turned on */
     2788       11    1   DCL 1 NAME STATIC,
     2789       12    1         2 * UBIN(9) INIT(18) UNAL,
     2790       13    1         2 * CHAR(4) INIT('SAVE'),
     2791       14    1         2 A,
     2792       15    1           3 DATE CHAR(6),
     2793       16    1           3 TIME CHAR(8),
     2794       17    1         2 ANS REDEF A CHAR(14),
     2795       18    1         2 B REDEF A,
     2796       19    1           3 COMP CHAR(10),
     2797       20    1           3 * CHAR(4);
     2798       21    1   DCL 1 CMD STATIC,
     2799       22    1         2 * UBIN(9) INIT(10) UNAL,
     2800       23    1         2 TEXT CHAR(10);
     2801       24    1   DCL 1 MESS3 STATIC,
     2802       25    1         2 * CHAR(0) INIT('SAVE file is: '),
     2803       26    1         2 ANS CHAR(14);
     2804       27    1   DCL ALIB_CMD CHAR(0) STATIC INIT('PMD TCB,AUTO,DCB');
     2805       28    1   DCL MESS1 CHAR(0) CONSTANT INIT('MAILMAN aborting!!');
     2806       29    1   DCL MESS2 CHAR(0) CONSTANT INIT('SAVE build failed, PMD issued.');
     2807       30    1   DCL MESS4 CHAR(0) CONSTANT INIT('Can''t LDTRC');
     2808       31    1   DCL MESS5 CHAR(0) CONSTANT INIT(
                31            'MAILMAN BLEW UP TWICE IN SAME MINUTE, CAN''T RESTART');
PL6.E3A0      #003=VOM$XCON File=VOM$MAILMAN.:VMB6TSI                            WED 08/20/97 15:34 Page:460
     2809       32    1   DCL MAIL_IN DCB;
     2810       33    1   DCL ERROR_FROM_STACK BIT (36) STATIC;
     2811       34        %INCLUDE CP_6;
     2812     5593        %INCLUDE CP_6_SUBS;
     2813     6133        %INCLUDE VO_SUBS_C;
     2814     6184        %INCLUDE VM_DATA_R;
     2815     6615        %INCLUDE VM_PERR_C;
     2816     6910             %B$TCB (STCLASS="BASED(B$TCB$)");
     2817     6913
     2818     6914              %F$DCB;
     2819     6971
     2820     6972        %B$XCON;
     2821     6982        %INCLUDE B$JIT;
     2822     7585
     2823     7586
     2824     7587        %FPT_TIME (FPTN=FPT_TIME, STCLASS=CONSTANT,
     2825     7588                  DATE=NAME.A.DATE,
     2826     7589                  TIME=NAME.A.TIME,
     2827     7590                  DEST=ANS);
     2828     7609        %FPT_KEYIN (FPTN=FPT_KEYIN, STCLASS=STATIC);
     2829     7628        %FPT_SAVE (FPTN=FPT_SAVE, STCLASS=CONSTANT,
     2830     7629                  ACCT=MAILACCT,
     2831     7630                  NAME=NAME);
     2832     7644        %FPT_ALIB (FPTN=FPT_ALIB, STCLASS=CONSTANT,
     2833     7645                  LIBNAME=DELTA_NAME,
     2834     7646                  CMD=ALIB_CMD,
     2835     7647                  DLIB=YES,
     2836     7648                  RETRN=YES);
     2837     7665        %VLP_NAME (FPTN=DELTA_NAME, STCLASS=CONSTANT,
     2838     7666                  NAME='DELTA');
     2839     7693        %FPT_CLOSE (FPTN=RENAME_BAD_FILE,
     2840     7694                    DCB=MAIL_IN,
     2841     7695                    CHGATT=YES,
     2842     7696                    NAME=NEW_NAME);
     2843     7738        %VLP_NAME  (FPTN=NEW_NAME, L=31);
     2844     7765        %FPT_XCON (STCLASS=CONSTANT);
     2845     7779        %FPT_SCREECH  (STCLASS=CONSTANT,
PL6.E3A0      #003=VOM$XCON File=VOM$MAILMAN.:VMB6TSI                            WED 08/20/97 15:34 Page:461
     2846     7780                       JERR=ERROR_FROM_STACK,
     2847     7781                       SCODE=MAILMAN_SNAPSHOT,
     2848     7782                       SCREECHID=SCREECH_ID);
     2849     7796        %VLP_SCODE    (FPTN=MAILMAN_SNAPSHOT, STCLASS=CONSTANT,
     2850     7797                       FCG=VO, MID=M, CODE=%E$MAILMAN_SNAP, SEV=SEV_SNAP,
     2851     7798                       CFUS=YES, CUSR=YES, DDSEG=YES, ENQ=YES, FMBUF=YES, ISEG=YES,
     2852     7799                       ROSEG=YES);
     2853     7860        /*E*    ERROR:  VOM-E$MAILMAN_SNAP-0
     2854     7861                MESSAGE:  MAILMAN has snapped because his exit control
     2855     7862                         routine has been entered.  MAILMAN will attempt
     2856     7863                         to restart by renaming the offending mailgram
     2857     7864                         (if there is one) and M$LDTRC to himself.  If
     2858     7865                         XCON is entered twice in the same minute,
     2859     7866                         MAILMAN must be restarted manually (thru GOOSE)
     2860     7867                         after determining the reason for the aborts.
     2861     7868        */
     2862     7869        %VLP_NAME     (FPTN=SCREECH_ID);
     2863     7896        %FPT_LDEV (CONTINUE=NO, STREAMNAME='LP01', STCLASS=CONSTANT);
     2864     7921        %FPT_LDTRC (FPTN=VM_LDTRC_MAILMAN,
     2865     7922                    STCLASS="CONSTANT SYMDEF",
     2866     7923                    CMD=CMD,
     2867     7924                    NAME=VM_MAILMAN_RUNAME,
     2868     7925                    ACCT=VM_MAILMAN_RUACCT);
     2869     7943        %VLP_NAME (FPTN=VM_MAILMAN_RUNAME,
     2870     7944                   NAME='MAILMAN',
     2871     7945                   LEN=31,
     2872     7946                   STCLASS="CONSTANT SYMDEF");
     2873     7973        %VLP_ACCT (FPTN=VM_MAILMAN_RUACCT,
     2874     7974                   ACCT=':SYS',
     2875     7975                   STCLASS="CONSTANT SYMDEF");
     2876     7988        %VLP_ACCT (FPTN=MAILACCT,
     2877     7989             ACCT=':MAIL ',
     2878     7990             STCLASS=CONSTANT);
     2879     8003
     2880     8004    1   dcl VOM_INIT_CCTIME char(10) symref;
     2881     8005
     2882     8006
PL6.E3A0      #003=VOM$XCON File=VOM$MAILMAN.:VMB6TSI                            WED 08/20/97 15:34 Page:462
     2883     8007
     2884     8008        %FPT_CLOSE (FPTN=CLOSE_MAILCG,
     2885     8009                       DCB=M$MAIL_COMGROUP,
     2886     8010                       DISP=SAVE);
     2887     8052        %FPT_CLOSE (FPTN=CLOSE_SITE,
     2888     8053                       DCB=M$NODE,
     2889     8054                       DISP=SAVE);
     2890     8096
     2891     8097
     2892     8098             %FPT_WAIT (FPTN=WAIT_AWHILE,
     2893     8099                            UNITS=60);
     2894     8113
     2895     8114        %FPT_XCON (FPTN=RESET_XCON);
     2896     8128
     2897     8129
     2898     8130
     2899     8131    1       IF B$TCB.STK$ -> B$XCON.RNST.OPXXX

   8131 14 000002   000000 470400 xsym               LDP0    B$TCB$
        14 000003   000001 471500                    LDP1    1,,PR0
        14 000004   100101 234100                    SZN     65,,PR1
        14 000005   000013 605000 14                 TPL     s:8136

     2900     8132    2       THEN DO;

     2901     8133    2           CALL M$XCON (RESET_XCON);

   8133 14 000006   000222 630400 1                  EPPR0   RESET_XCON
        14 000007   010003 713400                    CLIMB   4099
        14 000010   400400 401760                    pmme    nvectors=2

     2902     8134    2           CALL M$EXIT;

   8134 14 000011   000001 713400                    CLIMB   exit
        14 000012   000000 401760                    pmme    nvectors=0

     2903     8135    2       END;
PL6.E3A0      #003=VOM$XCON File=VOM$MAILMAN.:VMB6TSI                            WED 08/20/97 15:34 Page:463

     2904     8136    1       IF DCBADDR(M$NODE_NUM) ->F$DCB.FCD# THEN

   8136 14 000013   000000 470400 15                 LDP0    0
        14 000014   000000 471500                    LDP1    0,,PR0
        14 000015   000000 720000 xsym               LXL0    M$NODE_NUM
        14 000016   100000 473510                    LDP3    0,X0,PR1
        14 000017   300031 236100                    LDQ     25,,PR3
        14 000020   020000 316007                    CANQ    8192,DL
        14 000021   000026 600000 14                 TZE     s:8139

     2905     8137    1           CALL M$CLOSE(CLOSE_SITE) ALTRET(CONT_ON);

   8137 14 000022   000156 630400 1                  EPPR0   CLOSE_SITE
        14 000023   450001 713400                    CLIMB   alt,close
        14 000024   406000 401760                    pmme    nvectors=13
        14 000025   000042 702000 14                 TSX2    CONT_ON

     2906     8138
     2907     8139    1       IF B$TCB.STK$ -> B$XCON.RNST.OPERR

   8139 14 000026   000000 470400 xsym               LDP0    B$TCB$
        14 000027   000001 471500                    LDP1    1,,PR0
        14 000030   100101 236100                    LDQ     65,,PR1
        14 000031   020000 316003                    CANQ    8192,DU
        14 000032   000042 600000 14                 TZE     CONT_ON

     2908     8140    2       THEN DO;

     2909     8141    2           CALL M$XCON (RESET_XCON);

   8141 14 000033   000222 630400 1                  EPPR0   RESET_XCON
        14 000034   010003 713400                    CLIMB   4099
        14 000035   400400 401760                    pmme    nvectors=2

     2910     8142    2           CALL M$LDTRC (VM_LDTRC_MAILMAN) ALTRET(OOPS);

PL6.E3A0      #003=VOM$XCON File=VOM$MAILMAN.:VMB6TSI                            WED 08/20/97 15:34 Page:464
   8142 14 000036   000140 630400 0                  EPPR0   VM_LDTRC_MAILMAN
        14 000037   400006 713400                    CLIMB   alt,+6
        14 000040   403000 401760                    pmme    nvectors=7
        14 000041   000170 702000 14                 TSX2    OOPS

     2911     8143    2       END;

   8139 14 000042                       CONT_ON      null
     2912     8144
     2913     8145    1   CONT_ON:;
     2914     8146    1       IF B$JIT.MODE = %M_GHOST# AND B$JIT.PRIV.ACTIVE.EXMM

   8146 14 000042   000000 470400 xsym               LDP0    B$JIT$
        14 000043   000000 236100                    LDQ     0,,PR0
        14 000044   740000 376003                    ANQ     -16384,DU
        14 000045   100000 116003                    CMPQ    32768,DU
        14 000046   000063 601000 14                 TNZ     s:8151
        14 000047   000013 236100                    LDQ     11,,PR0
        14 000050   000002 316007                    CANQ    2,DL
        14 000051   000063 600000 14                 TZE     s:8151

     2915     8147    2       THEN DO;

     2916     8148    2           ERROR_FROM_STACK = B$TCB.STK$ -> B$XCON.ERR;

   8148 14 000052   000000 471400 xsym               LDP1    B$TCB$
        14 000053   100001 473500                    LDP3    1,,PR1
        14 000054   300102 236100                    LDQ     66,,PR3
        14 000055   000023 756000 1                  STQ     ERROR_FROM_STACK

     2917     8149    3           CALL M$SCREECH (FPT_SCREECH) WHENALTRETURN DO; END;

   8149 14 000056   000104 630400 0                  EPPR0   FPT_SCREECH
        14 000057   400013 713400                    CLIMB   alt,+11
        14 000060   401000 401760                    pmme    nvectors=3
        14 000061   000063 702000 14                 TSX2    s:8151
        14 000062   000063 710000 14                 TRA     s:8151
PL6.E3A0      #003=VOM$XCON File=VOM$MAILMAN.:VMB6TSI                            WED 08/20/97 15:34 Page:465

     2918     8150    2       END;

     2919     8151    1       FPT_KEYIN.MESS_ = VECTOR(MESS1);

   8151 14 000063   000002 237000 15                 LDAQ    2
        14 000064   000026 757000 1                  STAQ    FPT_KEYIN+2

     2920     8152    1       CALL M$KEYIN (FPT_KEYIN);

   8152 14 000065   000024 630400 1                  EPPR0   FPT_KEYIN
        14 000066   120000 713400                    CLIMB   40960
        14 000067   401400 401760                    pmme    nvectors=4

     2921     8153    1       CALL M$TIME (FPT_TIME);

   8153 14 000070   000036 630400 0                  EPPR0   FPT_TIME
        14 000071   020004 713400                    CLIMB   8196
        14 000072   402000 401760                    pmme    nvectors=5

     2922     8154    1       IF LADC_FLAG

   8154 14 000073   000000 234000 0                  SZN     LADC_FLAG
        14 000074   000117 605000 14                 TPL     s:8167

     2923     8155    2       THEN DO;

     2924     8156    2           CALL M$SAVE (FPT_SAVE)

   8156 14 000075   000052 630400 0                  EPPR0   FPT_SAVE
        14 000076   400017 713400                    CLIMB   alt,+15
        14 000077   401400 401760                    pmme    nvectors=4
        14 000100   000112 702000 14                 TSX2    s:8163

     2925     8157    3           WHENRETURN DO;

     2926     8158    3               MESS3.ANS = NAME.ANS;
PL6.E3A0      #003=VOM$XCON File=VOM$MAILMAN.:VMB6TSI                            WED 08/20/97 15:34 Page:466

   8158 14 000101   040000 100400                    MLR     fill='040'O
        14 000102   000001 200016 1                  ADSC9   NAME+1                   cn=1,n=14
        14 000103   000013 400016 1                  ADSC9   MESS3+3                  cn=2,n=14

     2927     8159    3               FPT_KEYIN.MESS_ = VECTOR(MESS3);

   8159 14 000104   000004 237000 15                 LDAQ    4
        14 000105   000026 757000 1                  STAQ    FPT_KEYIN+2

     2928     8160    3               CALL M$KEYIN (FPT_KEYIN);

   8160 14 000106   000024 630400 1                  EPPR0   FPT_KEYIN
        14 000107   120000 713400                    CLIMB   40960
        14 000110   401400 401760                    pmme    nvectors=4

     2929     8161    3           END;

   8161 14 000111   000117 710000 14                 TRA     s:8167

     2930     8162    3           WHENALTRETURN DO;

     2931     8163    3               FPT_KEYIN.MESS_ = VECTOR(MESS2);

   8163 14 000112   000006 237000 15                 LDAQ    6
        14 000113   000026 757000 1                  STAQ    FPT_KEYIN+2

     2932     8164    3               CALL M$ALIB (FPT_ALIB);

   8164 14 000114   000062 630400 0                  EPPR0   FPT_ALIB
        14 000115   000007 713400                    CLIMB   7
        14 000116   401400 401760                    pmme    nvectors=4

     2933     8165    3           END;

     2934     8166    2       END;                       /* If ladc */

PL6.E3A0      #003=VOM$XCON File=VOM$MAILMAN.:VMB6TSI                            WED 08/20/97 15:34 Page:467
     2935     8167    1       IF DCBADDR(DCBNUM(MAIL_IN)) -> F$DCB.FCD#

   8167 14 000117   000000 236007 xsym               LDQ     MAIL_IN,DL
        14 000120   000000 470400 15                 LDP0    0
        14 000121   000000 471500                    LDP1    0,,PR0
        14 000122   100000 473506                    LDP3    0,QL,PR1
        14 000123   300031 236100                    LDQ     25,,PR3
        14 000124   020000 316007                    CANQ    8192,DL
        14 000125   000142 600000 14                 TZE     RENAME_DIDNT_WORK

     2936     8168    2       THEN DO;

     2937     8169    2           NEW_NAME = DCBADDR(DCBNUM(MAIL_IN)) -> F$DCB.NAME#;

   8169 14 000126   000000 236007 xsym               LDQ     MAIL_IN,DL
        14 000127   100000 473506                    LDP3    0,QL,PR1
        14 000130   000000 100500                    MLR     fill='000'O
        14 000131   300010 000040                    ADSC9   8,,PR3                   cn=0,n=32
        14 000132   000100 000040 1                  ADSC9   NEW_NAME                 cn=0,n=32

     2938     8170    2           SUBSTR(NEW_NAME.NAME#,1,4)='DEAD';

   8170 14 000133   040000 100400                    MLR     fill='040'O
        14 000134   000174 000004 0                  ADSC9   MAILACCT+2               cn=0,n=4
        14 000135   000100 400004 1                  ADSC9   NEW_NAME                 cn=2,n=4

     2939     8171    2           CALL M$CLOSE (RENAME_BAD_FILE) ALTRET (RENAME_DIDNT_WORK);

   8171 14 000136   000042 630400 1                  EPPR0   RENAME_BAD_FILE
        14 000137   450001 713400                    CLIMB   alt,close
        14 000140   406000 401760                    pmme    nvectors=13
        14 000141   000142 702000 14                 TSX2    RENAME_DIDNT_WORK

   8170 14 000142                       RENAME_DIDN* null
     2940     8172    2   RENAME_DIDNT_WORK: ;
     2941     8173    2       END;

PL6.E3A0      #003=VOM$XCON File=VOM$MAILMAN.:VMB6TSI                            WED 08/20/97 15:34 Page:468
     2942     8174    1       CALL M$XCON (RESET_XCON);

   8174 14 000142   000222 630400 1                  EPPR0   RESET_XCON
        14 000143   010003 713400                    CLIMB   4099
        14 000144   400400 401760                    pmme    nvectors=2

     2943     8175    1       IF VOM_INIT_CCTIME = NAME.B.COMP

   8175 14 000145   040000 106400                    CMPC    fill='040'O
        14 000146   000000 000012 xsym               ADSC9   VOM_INIT_CCTIME          cn=0,n=10
        14 000147   000001 200012 1                  ADSC9   NAME+1                   cn=1,n=10
        14 000150   000161 601000 14                 TNZ     s:8182

     2944     8176    2       THEN DO;                   /* Blew up twice in a row, don't restart */

     2945     8177    2           FPT_KEYIN.MESS_ = VECTOR(MESS5);

   8177 14 000151   000010 237000 15                 LDAQ    8
        14 000152   000026 757000 1                  STAQ    FPT_KEYIN+2

     2946     8178    2           CALL M$KEYIN (FPT_KEYIN);

   8178 14 000153   000024 630400 1                  EPPR0   FPT_KEYIN
        14 000154   120000 713400                    CLIMB   40960
        14 000155   401400 401760                    pmme    nvectors=4

     2947     8179    2           CALL M$XXX;

   8179 14 000156   000003 713400                    CLIMB   3
        14 000157   000000 401760                    pmme    nvectors=0

     2948     8180    2       END;

   8180 14 000160   000170 710000 14                 TRA     OOPS

     2949     8181    2       ELSE DO;

PL6.E3A0      #003=VOM$XCON File=VOM$MAILMAN.:VMB6TSI                            WED 08/20/97 15:34 Page:469
     2950     8182    2           CMD.TEXT = NAME.B.COMP;

   8182 14 000161   040000 100400                    MLR     fill='040'O
        14 000162   000001 200012 1                  ADSC9   NAME+1                   cn=1,n=10
        14 000163   000005 200012 1                  ADSC9   CMD                      cn=1,n=10

     2951     8183    2           CALL M$LDTRC (VM_LDTRC_MAILMAN) ALTRET(OOPS);

   8183 14 000164   000140 630400 0                  EPPR0   VM_LDTRC_MAILMAN
        14 000165   400006 713400                    CLIMB   alt,+6
        14 000166   403000 401760                    pmme    nvectors=7
        14 000167   000170 702000 14                 TSX2    OOPS

     2952     8184    2       END;

     2953     8185    1   OOPS:
     2954     8186    1       FPT_KEYIN.MESS_ = VECTOR(MESS4);

   8186 14 000170   000012 237000 15    OOPS         LDAQ    10
        14 000171   000026 757000 1                  STAQ    FPT_KEYIN+2

     2955     8187    1       CALL M$KEYIN (FPT_KEYIN);

   8187 14 000172   000024 630400 1                  EPPR0   FPT_KEYIN
        14 000173   120000 713400                    CLIMB   40960
        14 000174   401400 401760                    pmme    nvectors=4

     2956     8188    1       ALIB_CMD='DU $LS15->0 '' MAILMAN TCB ''';

   8188 14 000175   040000 100400                    MLR     fill='040'O
        14 000176   000175 000020 0                  ADSC9   MAILACCT+3               cn=0,n=16
        14 000177   000017 000020 1                  ADSC9   ALIB_CMD                 cn=0,n=16

     2957     8189    1       CALL M$ALIB;

   8189 14 000200   000007 713400                    CLIMB   7
        14 000201   000000 401760                    pmme    nvectors=0
PL6.E3A0      #003=VOM$XCON File=VOM$MAILMAN.:VMB6TSI                            WED 08/20/97 15:34 Page:470

     2958     8190    1       CALL M$LDEV (FPT_LDEV) ALTRET(L1);

   8190 14 000202   000114 630400 0                  EPPR0   FPT_LDEV
        14 000203   460004 713400                    CLIMB   alt,+24580
        14 000204   403000 401760                    pmme    nvectors=7
        14 000205   000206 702000 14                 TSX2    L1

     2959     8191    1   L1: CALL M$XXX;

   8191 14 000206   000003 713400       L1           CLIMB   3
        14 000207   000000 401760                    pmme    nvectors=0

     2960     8192    1   END VOM$XCON;

   8192 14 000210   000000 702200 xent               TSX2  ! X66_AARET

LADC_FLAG
 Sect OctLoc
   0     000   0***** ******                                                    ....

MESS1
 Sect OctLoc
   0     001   115101 111114   115101 116040   141142 157162   164151 156147    MAILMAN aborting
   0     005   041041 ******                                                    !!..

MESS2
 Sect OctLoc
   0     006   123101 126105   040142 165151   154144 040146   141151 154145    SAVE build faile
   0     012   144054 040120   115104 040151   163163 165145   144056 ******    d, PMD issued...

MESS4
 Sect OctLoc
   0     016   103141 156047   164040 114104   124122 103***                    Can't LDTRC.

MESS5
 Sect OctLoc
PL6.E3A0      #003=VOM$XCON File=VOM$MAILMAN.:VMB6TSI                            WED 08/20/97 15:34 Page:471
   0     021   115101 111114   115101 116040   102114 105127   040125 120040    MAILMAN BLEW UP
   0     025   124127 111103   105040 111116   040123 101115   105040 115111    TWICE IN SAME MI
   0     031   116125 124105   054040 103101   116047 124040   122105 123124    NUTE, CAN'T REST
   0     035   101122 124***                                                    ART.

FPT_TIME
 Sect OctLoc
   0     036   000001 777640   000050 006000   000001 377640   000001 206000    .....(..........
   0     042   000001 777640   000002 606000   000000 177640   000000 006014    ................
   0     046   000000 177640   000000 006014   000002 000000   ****** ******    ................

FPT_SAVE
 Sect OctLoc
   0     052   000004 577640   000000 006000   000001 777640   000172 006000    .............z..
   0     056   000000 177640   000000 006014   000000 177640   000000 006014    ................

FPT_ALIB
 Sect OctLoc
   0     062   000001 377640   000074 006000   000003 777640   000017 006000    .....<..........
   0     066   000000 177640   000000 006014   000001 777640   000072 006000    .............:..
   0     072   600000 000000   000000 000000                                    ........

DELTA_NAME
 Sect OctLoc
   0     074   005104 105114   124101 ******                                    .DELTA..

FPT_XCON
 Sect OctLoc
   0     076   000001 777640   000102 006000   000000 177640   000000 006014    .....B..........
   0     102   000000 000000   000000 000000                                    ........

FPT_SCREECH
 Sect OctLoc
   0     104   000001 777640   000112 006000   000000 777640   000023 006000    .....J..........
   0     110   000007 777640   000110 006000                                    .....H..

MAILMAN_SNAPSHOT
PL6.E3A0      #003=VOM$XCON File=VOM$MAILMAN.:VMB6TSI                            WED 08/20/97 15:34 Page:472
 Sect OctLoc
   0     112   261715 414345   240000 103600                                    ......C.

FPT_LDEV
 Sect OctLoc
   0     114   000005 777640   000132 006000   000000 177640   000000 006014    .....Z..........
   0     120   000000 177640   000000 006014   000000 177640   000000 006014    ................
   0     130*  000000 177640   000000 006014   114120 060061   000000 040040    ........LP01..
   0     134   000000 000000   000000 200111   040040 040040   000040 040000    .......I    .  .

VM_LDTRC_MAILMAN
 Sect OctLoc
   0     140   000007 777640   000160 006000   000001 777640   000170 006000    .....p.......x..
   0     144   000000 177640   000000 006014   000000 177640   000000 006014    ................
   0     150   000002 577640   000005 006000   000000 177640   000000 006014    ................
   0     154   000001 777640   000156 006000   400000 000000   000000 000000    .....n..........

VM_MAILMAN_RUNAME
 Sect OctLoc
   0     160   007115 101111   114115 101116   040040 040040   040040 040040    .MAILMAN
   0     164   040040 040040   040040 040040   040040 040040   040040 040040

VM_MAILMAN_RUACCT
 Sect OctLoc
   0     170   072123 131123   040040 040040                                    :SYS

MAILACCT
 Sect OctLoc
   0     172   072115 101111   114040 040040                                    :MAIL

(unnamed)
 Sect OctLoc
   0     174   104105 101104   104125 040044   114123 061065   055076 060040    DEADDU $LS15->0
   0     200   047040 115101   111114 115101   116040 124103   102040 047040    ' MAILMAN TCB '

NAME
 Sect OctLoc
PL6.E3A0      #003=VOM$XCON File=VOM$MAILMAN.:VMB6TSI                            WED 08/20/97 15:34 Page:473
   1     000   022123 101126   105*** ******   ****** ******   ****** ******    .SAVE...........
   1     004   ****** ******                                                    ....

CMD
 Sect OctLoc
   1     005   012*** ******   ****** ******   ****** ******                    ............

MESS3
 Sect OctLoc
   1     010   123101 126105   040146 151154   145040 151163   072040 ******    SAVE file is: ..
   1     014   ****** ******   ****** ******   ****** ******                    ............

ALIB_CMD
 Sect OctLoc
   1     017   120115 104040   124103 102054   101125 124117   054104 103102    PMD TCB,AUTO,DCB

FPT_KEYIN
 Sect OctLoc
   1     024   000005 777640   000034 006000   000000 17764*   000000 006014    ................
   1     030   000000 17764*   000000 006014   000000 177640   000000 006014    ................
   1     034   040040 040040   040040 040040   000000 000000   400000 000000            ........
   1     040   000000 000000   000000 000000                                    ........

RENAME_BAD_FILE
 Sect OctLoc
   1     042   000003 777640   000074 006000   000000 177640   000000 006014    .....<..........
   1     046   000000 177640   000000 006014   000007 777640   000100 006000    .............@..
   1     052   000000 177640   000000 006014   000000 177640   000000 006014    ................
   1     072*  000000 177640   000000 006014   000000 400000   000000 000040    ...............
   1     076   000220 000000   000000 000000                                    ........

NEW_NAME
 Sect OctLoc
   1     100   037040 040040   040040 040040   040040 040040   040040 040040    .
   1     104   040040 040040   040040 040040   040040 040040   040040 040040

SCREECH_ID
PL6.E3A0      #003=VOM$XCON File=VOM$MAILMAN.:VMB6TSI                            WED 08/20/97 15:34 Page:474
 Sect OctLoc
   1     110   037040 040040   040040 040040   040040 040040   040040 040040    .
   1     114   040040 040040   040040 040040   040040 040040   040040 040040

CLOSE_MAILCG
 Sect OctLoc
   1     120   000003 777640   000152 006000   000000 177640   000000 006014    .....j..........
   1     124   000000 177640   000000 006014   000000 177640   000000 006014    ................
   1     150*  000000 177640   000000 006014   000000 000002   000000 000040    ...............
   1     154   000220 000000   000000 000000                                    ........

CLOSE_SITE
 Sect OctLoc
   1     156   000003 777640   000210 006000   000000 177640   000000 006014    ................
   1     162   000000 177640   000000 006014   000000 177640   000000 006014    ................
   1     206*  000000 177640   000000 006014   000000 000002   000000 000040    ...............
   1     212   000220 000000   000000 000000                                    ........

WAIT_AWHILE
 Sect OctLoc
   1     214   000001 777640   000220 006000   000000 177640   000000 006014    ................
   1     220   000000 000074   000000 000001                                    ...<....

RESET_XCON
 Sect OctLoc
   1     222   000001 777640   000226 006000   000000 177640   000000 006014    ................
   1     226   000000 000000   000000 000000                                    ........

(unnamed)
 Sect OctLoc
  15     000   000000 006003   000000 000000   000004 377640   000001 006000    ................
  15     004   000006 777640   000010 006000   000007 377640   000006 006000    ................
  15     010   000014 577640   000021 006000   000002 577640   000016 006000    ................
     2961     8193        %EOD;

PL6.E3A0      #003=VOM$XCON File=VOM$MAILMAN.:VMB6TSI                            WED 08/20/97 15:34 Page:475
--  Include file information  --

   B$JIT_C.:LIB_E05  is referenced.
   B$JIT.:LIB_E05  cannot be made into a system file and is referenced.
   VM_PERR_C.:VMB6TOU  is referenced.
   B_MACROS_C.:LIB_E05  is referenced.
   VM_DATA_R.:VMB6TOU  cannot be made into a system file and is referenced.
   VO_SUBS_C.:VMB6TOU  is referenced.
   CP_6_SUBS.:LIB_E05  is referenced.
   CP_6_C.:LIB_E05  is referenced.
   CP_6.:LIB_E05  cannot be made into a system file and is referenced.
      No diagnostics issued in procedure VOM$XCON.
PL6.E3A0      #003=VOM$XCON File=VOM$MAILMAN.:VMB6TSI                            WED 08/20/97 15:34 Page:476

 **** Variables and constants ****

  ****  Section 000 RoData VOM$XCON

  ****  Scalars and arrays  ****
OctLoc.c.b A Datatyp(siz) R M Lvl/name                 OctLoc.c.b A Datatyp(siz) R M Lvl/name

    74-0-0/c STRC(54)    r     1 DELTA_NAME                62-0-0/d STRC(360)   r     1 FPT_ALIB
   114-0-0/d STRC(720)   r     1 FPT_LDEV                  52-0-0/d STRC(288)   r     1 FPT_SAVE
   104-0-0/d STRC(216)   r     1 FPT_SCREECH               36-0-0/d STRC(432)   r     1 FPT_TIME
    76-0-0/d STRC(216)   r     1 FPT_XCON                   0-0-0/b BIT         r     1 LADC_FLAG
   172-0-0/c STRC(72)    r     1 MAILACCT                 112-0-0/d STRC(72)    r     1 MAILMAN_SNAPSHOT
     1-0-0/c CHAR(18)    r     1 MESS1                      6-0-0/c CHAR(30)    r     1 MESS2
    16-0-0/c CHAR(11)    r     1 MESS4                     21-0-0/c CHAR(51)    r     1 MESS5
   140-0-0/d STRC(576)   r     1 VM_LDTRC_MAILMAN         170-0-0/c STRC(72)    r     1 VM_MAILMAN_RUACCT
   160-0-0/c STRC(288)   r     1 VM_MAILMAN_RUNAME

  ****  Section 001  Data  VOM$XCON

  ****  Scalars and arrays  ****
OctLoc.c.b A Datatyp(siz) R M Lvl/name                 OctLoc.c.b A Datatyp(siz) R M Lvl/name

    17-0-0/c CHAR(16)    r     1 ALIB_CMD                 120-0-0/d STRC(1080)  r     1 CLOSE_MAILCG
   156-0-0/d STRC(1080)  r     1 CLOSE_SITE                 5-0-0/c STRC(99)    r     1 CMD
    23-0-0/b BIT         r     1 ERROR_FROM_STACK          24-0-0/d STRC(504)   r     1 FPT_KEYIN
    10-0-0/c STRC(252)   r     1 MESS3                      0-0-0/c STRC(171)   r     1 NAME
   100-0-0/c STRC(288)   r     1 NEW_NAME                  42-0-0/d STRC(1080)  r     1 RENAME_BAD_FILE
   222-0-0/d STRC(216)   r     1 RESET_XCON               110-0-0/c STRC(288)   r     1 SCREECH_ID
   214-0-0/d STRC(216)   r     1 WAIT_AWHILE

  ****  SYMREF variables  ****

  ****  Scalars and arrays  ****
OctLoc.c.b A Datatyp(siz) R M Lvl/name                 OctLoc.c.b A Datatyp(siz) R M Lvl/name

     0-0-0/w PTR         r     1 B$JIT$                     0-0-0/w PTR         r     1 B$TCB$
     0-0-0/c ASTR(9)     r     1 ERRMSG_FID                 0-0-0/w UBIN              1 M$DO_NUM
PL6.E3A0      #003=VOM$XCON File=VOM$MAILMAN.:VMB6TSI                            WED 08/20/97 15:34 Page:477
     0-0-0/w UBIN              1 M$LO_NUM                   0-0-0/w UBIN              1 M$MAIL_CENTRAL_NUM
     0-0-0/w UBIN              1 M$MAIL_COMGROUP_NUM        0-0-0/w UBIN              1 M$MAIL_FILE_NUM
     0-0-0/w UBIN              1 M$MAIL_GLOBAL_NUM          0-0-0/w UBIN              1 M$ME_NUM
     0-0-0/w UBIN        r     1 M$NODE_NUM                 0-0-0/w UBIN              1 M$SI_NUM
     0-0-0/w UBIN              1 M$WORK_NUM                 0-0-0/w PTR               1 VM_ADDLIST$
     0-0-0/d VECT              1 VM_ADDLIST_                0-0-0/w PTR               1 VM_ADDREC$
     0-0-0/d VECT              1 VM_ADDREC_                 0-0-0/w PTR               1 VM_COPY$
     0-0-0/d VECT              1 VM_COPY_                   0-0-0/w PTR               1 VM_ENCLLIST$
     0-0-0/d VECT              1 VM_ENCLLIST_               0-0-0/w PTR               1 VM_ENCLREC$
     0-0-0/d VECT              1 VM_ENCLREC_                0-0-0/c STRC(270)         1 VM_FORWARD_ENCL_NAME
     0-0-0/c STRC(270)         1 VM_FORWARD_FILE_NAME       0-0-0/c STRC(72)          1 VM_FORWARD_FILE_PASS
     0-0-0/w PTR               1 VM_HEADER$                 0-0-0/d VECT              1 VM_HEADER_
     0-0-0/d VECT              1 VM_HEADER_INIT_            0-0-0/w PTR               1 VM_INPUT$
     0-0-0/d VECT              1 VM_INPUT_                  0-0-0/c STRC(72)          1 VM_MAILCG_NAME
     0-0-0/w STRC(432)         1 VM_MAILCG_SETSTA           0-0-0/c STRC(72)          1 VM_MAIL_ACCT
     0-0-0/c STRC(54)          1 VM_NAME_MAP_NAME           0-0-0/w PTR               1 VM_PARSEAREA$
     0-0-0/d VECT              1 VM_PARSEAREA_              0-0-0/w PTR               1 VM_PROFILE$
     0-0-0/d VECT              1 VM_PROFILE_                0-0-0/w PTR               1 VM_SELECT$
     0-0-0/d VECT              1 VM_SELECT_                 0-0-0/c STRC(288)         1 VM_SEND_FILE_NAME
     0-0-0/c CHAR(8)           1 VM_SITENAME                0-0-0/w PTR               1 VM_WORK$
     0-0-0/d VECT              1 VM_WORK_                   0-0-0/c CHAR(10)    r     1 VOM_INIT_CCTIME

  ****  BASED and DCB variables  ****

  ****  Scalars and arrays  ****
OctLoc.c.b A Datatyp(siz) R M Lvl/name                 OctLoc.c.b A Datatyp(siz) R M Lvl/name

     0-0-0/d STRC(8856)  r     1 B$JIT                      0-0-0/w STRC(144)   r     1 B$TCB
     0-0-0/w STRC(2448)  r     1 B$XCON                     0-0-0/d ASTR(3528)  r     1 F$DCB
     0-0-0N  NULL        r     1 M$DO                       0-0-0N  NULL        r     1 M$LO
     0-0-0N  NULL        r     1 M$MAIL_CENTRAL             0-0-0N  NULL        r     1 M$MAIL_COMGROUP
     0-0-0N  NULL        r     1 M$MAIL_FILE                0-0-0N  NULL        r     1 M$MAIL_GLOBAL
     0-0-0N  NULL        r     1 M$ME                       0-0-0N  NULL        r     1 M$NODE
     0-0-0N  NULL        r     1 M$SI                       0-0-0N  NULL        r     1 M$UC
     0-0-0N  NULL        r     1 M$WORK                     0-0-0N  NULL        r     1 MAIL_IN
     0-0-0/c ASTR(9)     r     1 X$STRING

PL6.E3A0      #003=VOM$XCON File=VOM$MAILMAN.:VMB6TSI                            WED 08/20/97 15:34 Page:478

   Procedure VOM$XCON requires 137 words for executable code.
   Procedure VOM$XCON requires 4 words of local(AUTO) storage.
PL6.E3A0      #003=VOM$XCON File=VOM$MAILMAN.:VMB6TSI                            WED 08/20/97 15:34 Page:479
          *** CROSS REFERENCE LISTING ***
**     DENOTES     IDENTIFIER DEFINITION
<<                 IDENTIFIER'S VALUE SET
>>                 IDENTIFIER'S VALUE USED
<>                 IDENTIFIER SET AND/OR USED
--                 IDENTIFIER REFERENCED
PL6.E3A0      #003=VOM$XCON File=VOM$MAILMAN.:VMB6TSI                            WED 08/20/97 15:34 Page:480
          MINI XREF LISTING

ALIB_CMD
        27**DCL      7659--DCLINIT  8188<<ASSIGN
B$JIT.CPFLAGS1.SLEAZE
      7403**DCL      7403--REDEF
B$JIT.ERR.MID
      7310**DCL      7310--REDEF
B$JIT.JRESPEAK
      7471**DCL      7472--REDEF
B$JIT.MODE
      7304**DCL      8146>>IF
B$JIT.ORIGINATOR_PORT.FROM_CR
      7580**DCL      7580--REDEF    7581--REDEF
B$JIT.PNR
      7484**DCL      7484--REDEF
B$JIT.PRIV.ACTIVE.EXMM
      7314**DCL      8146>>IF
B$JIT.TSLINE
      7578**DCL      7579--REDEF
B$JIT$
      6391**DCL      7304--IMP-PTR  8146>>IF       8146>>IF
B$TCB.STK$
      6911**DCL      8131>>IF       8139>>IF       8148>>ASSIGN
B$TCB$
      6392**DCL      6911--IMP-PTR  8131>>IF       8139>>IF       8148>>ASSIGN
B$XCON.ERR
      6979**DCL      8148>>ASSIGN
B$XCON.ERR.ERR#
      6979**DCL      6979--REDEF
B$XCON.LIMIT.MEM
      6977**DCL      6977--REDEF
B$XCON.RNST.OPERR
      6975**DCL      8139>>IF
PL6.E3A0      #003=VOM$XCON File=VOM$MAILMAN.:VMB6TSI                            WED 08/20/97 15:34 Page:481
B$XCON.RNST.OPXXX
      6974**DCL      8131>>IF
CLOSE_MAILCG.SN_
      8033**DCL      8033--REDEF
CLOSE_MAILCG.UTL_
      8034**DCL      8034--REDEF
CLOSE_MAILCG.V
      8038**DCL      8033--DCLINIT
CLOSE_MAILCG.V.EXPIRE#
      8048**DCL      8048--REDEF
CLOSE_MAILCG.V.TYPE#
      8046**DCL      8046--REDEF
CLOSE_MAILCG.V.XTNSIZE#
      8043**DCL      8043--REDEF    8045--REDEF
CLOSE_SITE
      8077**DCL      8137<>CALL
CLOSE_SITE.SN_
      8077**DCL      8077--REDEF
CLOSE_SITE.UTL_
      8078**DCL      8078--REDEF
CLOSE_SITE.V
      8082**DCL      8077--DCLINIT
CLOSE_SITE.V.EXPIRE#
      8092**DCL      8092--REDEF
CLOSE_SITE.V.TYPE#
      8090**DCL      8090--REDEF
CLOSE_SITE.V.XTNSIZE#
      8087**DCL      8087--REDEF    8089--REDEF
CMD
        21**DCL      7939--DCLINIT
CMD.TEXT
        23**DCL      8182<<ASSIGN
CONT_ON
      8139**LABEL    8137--CALLALT
DELTA_NAME
      7691**DCL      7659--DCLINIT
PL6.E3A0      #003=VOM$XCON File=VOM$MAILMAN.:VMB6TSI                            WED 08/20/97 15:34 Page:482
ERRMSG_FID.L#
      6460**DCL      6460--IMP-SIZ
ERROR_FROM_STACK
        33**DCL      7793--DCLINIT  8148<<ASSIGN
F$DCB.ACTPOS
      6947**DCL      6947--REDEF
F$DCB.ARS#
      6921**DCL      6921--REDEF
F$DCB.ATTR
      6940**DCL      6941--REDEF
F$DCB.BORROW
      6955**DCL      6955--REDEF    6955--REDEF    6955--REDEF
F$DCB.DCBNAME.L
      6969**DCL      6969--IMP-SIZ
F$DCB.EOMCHAR#
      6925**DCL      6925--REDEF
F$DCB.FCD#
      6934**DCL      8136>>IF       8167>>IF
F$DCB.FLDID
      6950**DCL      6950--REDEF
F$DCB.FORM$
      6944**DCL      6944--REDEF
F$DCB.FSECT
      6960**DCL      6960--REDEF
F$DCB.FSN#
      6937**DCL      6937--REDEF    6937--REDEF    6938--REDEF
F$DCB.HEADER$
      6943**DCL      6943--REDEF
F$DCB.IXTNSIZE#
      6941**DCL      6941--REDEF
F$DCB.LASTSTA$
      6930**DCL      6930--REDEF
F$DCB.LVL
      6956**DCL      6956--REDEF
F$DCB.NAME#
      6931**DCL      8169>>ASSIGN
PL6.E3A0      #003=VOM$XCON File=VOM$MAILMAN.:VMB6TSI                            WED 08/20/97 15:34 Page:483
F$DCB.NAME#.C
      6931**DCL      6931--REDEF
F$DCB.NOEOF
      6953**DCL      6953--REDEF
F$DCB.NRECS#
      6942**DCL      6942--REDEF
F$DCB.NRECX
      6961**DCL      6961--REDEF
F$DCB.OHDR
      6953**DCL      6953--REDEF
F$DCB.ORG#
      6936**DCL      6936--REDEF
F$DCB.PRECNO
      6959**DCL      6959--REDEF
F$DCB.RCSZ
      6965**DCL      6965--REDEF
F$DCB.RES#
      6932**DCL      6932--REDEF
F$DCB.SETX
      6944**DCL      6944--REDEF
F$DCB.TAB$
      6944**DCL      6944--REDEF
F$DCB.TDA
      6958**DCL      6959--REDEF
F$DCB.WSN#
      6932**DCL      6932--REDEF
FPT_ALIB
      7659**DCL      8164<>CALL
FPT_ALIB.V
      7660**DCL      7660--DCLINIT
FPT_KEYIN
      7620**DCL      8152<>CALL     8160<>CALL     8178<>CALL     8187<>CALL
FPT_KEYIN.MESS_
      7620**DCL      8151<<ASSIGN   8159<<ASSIGN   8163<<ASSIGN   8177<<ASSIGN   8186<<ASSIGN
FPT_KEYIN.V
      7623**DCL      7620--DCLINIT
PL6.E3A0      #003=VOM$XCON File=VOM$MAILMAN.:VMB6TSI                            WED 08/20/97 15:34 Page:484
FPT_LDEV
      7908**DCL      8190<>CALL
FPT_LDEV.V
      7910**DCL      7908--DCLINIT
FPT_SAVE
      7641**DCL      8156<>CALL
FPT_SCREECH
      7793**DCL      8149<>CALL
FPT_TIME
      7601**DCL      8153<>CALL
FPT_TIME.V
      7605**DCL      7601--DCLINIT
FPT_XCON.V
      7777**DCL      7776--DCLINIT
L1
      8191**LABEL    8190--CALLALT
LADC_FLAG
         9**DCL      8154>>IF
M$ALIB
      5534**DCL-ENT  8164--CALL     8189--CALL
M$CLOSE
      5521**DCL-ENT  8137--CALL     8171--CALL
M$EXIT
      5533**DCL-ENT  8134--CALL
M$KEYIN
      5526**DCL-ENT  8152--CALL     8160--CALL     8178--CALL     8187--CALL
M$LDEV
      5521**DCL-ENT  8190--CALL
M$LDTRC
      5534**DCL-ENT  8142--CALL     8183--CALL
M$NODE_NUM
      6388**DCL      8136--IF
M$SAVE
      5536**DCL-ENT  8156--CALL
M$SCREECH
      5535**DCL-ENT  8149--CALL
PL6.E3A0      #003=VOM$XCON File=VOM$MAILMAN.:VMB6TSI                            WED 08/20/97 15:34 Page:485
M$TIME
      5588**DCL-ENT  8153--CALL
M$XCON
      5576**DCL-ENT  8133--CALL     8141--CALL     8174--CALL
M$XXX
      5533**DCL-ENT  8179--CALL     8191--CALL
MAILACCT
      8001**DCL      7641--DCLINIT
MAILMAN_SNAPSHOT
      7814**DCL      7793--DCLINIT
MAIL_IN
        32**DCL      8167--IF       8169--ASSIGN
MESS1
        28**DCL      8151--ASSIGN
MESS2
        29**DCL      8163--ASSIGN
MESS3
        24**DCL      8159--ASSIGN
MESS3.ANS
        26**DCL      8158<<ASSIGN
MESS4
        30**DCL      8186--ASSIGN
MESS5
        31**DCL      8177--ASSIGN
NAME
        11**DCL      7641--DCLINIT
NAME.A
        14**DCL        17--REDEF      18--REDEF
NAME.A.DATE
        15**DCL      7601--DCLINIT  7602--DCLINIT
NAME.A.TIME
        16**DCL      7603--DCLINIT  7604--DCLINIT
NAME.ANS
        17**DCL      8158>>ASSIGN
NAME.B.COMP
        19**DCL      8175>>IF       8182>>ASSIGN
PL6.E3A0      #003=VOM$XCON File=VOM$MAILMAN.:VMB6TSI                            WED 08/20/97 15:34 Page:486
NEW_NAME
      7763**DCL      7721--DCLINIT  8169<<ASSIGN
NEW_NAME.NAME#
      7763**DCL      8170<<ASSIGN
OOPS
      8186**LABEL    8142--CALLALT  8183--CALLALT
RENAME_BAD_FILE
      7719**DCL      8171<>CALL
RENAME_BAD_FILE.SN_
      7719**DCL      7719--REDEF
RENAME_BAD_FILE.UTL_
      7720**DCL      7720--REDEF
RENAME_BAD_FILE.V
      7724**DCL      7719--DCLINIT
RENAME_BAD_FILE.V.EXPIRE#
      7734**DCL      7734--REDEF
RENAME_BAD_FILE.V.TYPE#
      7732**DCL      7732--REDEF
RENAME_BAD_FILE.V.XTNSIZE#
      7729**DCL      7729--REDEF    7731--REDEF
RENAME_DIDNT_WORK
      8170**LABEL    8171--CALLALT
RESET_XCON
      8125**DCL      8133<>CALL     8141<>CALL     8174<>CALL
RESET_XCON.V
      8126**DCL      8125--DCLINIT
SCREECH_ID
      7894**DCL      7794--DCLINIT
VM_LDTRC_MAILMAN
      7938**DCL      8142<>CALL     8183<>CALL
VM_LDTRC_MAILMAN.V
      7940**DCL      7940--DCLINIT
VM_MAILMAN_RUACCT
      7986**DCL      7938--DCLINIT
VM_MAILMAN_RUNAME
      7971**DCL      7938--DCLINIT
PL6.E3A0      #003=VOM$XCON File=VOM$MAILMAN.:VMB6TSI                            WED 08/20/97 15:34 Page:487
VOM_INIT_CCTIME
      8004**DCL      8175>>IF
WAIT_AWHILE.V
      8111**DCL      8110--DCLINIT
X$STRING.SIZ
      6306**DCL      6307--IMP-SIZ

PL6.E3A0      #004=VOM$EVENT File=VOM$MAILMAN.:VMB6TSI                           WED 08/20/97 15:34 Page:488
     2962        1        /*T***********************************************************/
     2963        2        /*T*                                                         */
     2964        3        /*T* Copyright (c) Bull HN Information Systems Inc., 1997    */
     2965        4        /*T*                                                         */
     2966        5        /*T***********************************************************/
     2967        6        /*X* DMC,PLM=4,IND=4,CTI=2,DTI=0,ENI=0,ECI=0,CSI=0,DCI=4 */
     2968        7        VOM$EVENT: PROC ASYNC;
     2969        8
     2970        9        %INCLUDE CP_6_SUBS;
     2971      549        %INCLUDE VO_SUBS_C;
     2972      600        %INCLUDE VOM_DATA_R;                    /* Also includes CP_6 */
     2973     7820        %INCLUDE VM_DATA_R;
     2974     8251    1   DCL VO_NEED_READ BIT(1) SYMREF;
     2975     8252    1   DCL VO_PROCESS BIT(1) SYMREF;
     2976     8253             %B$TCB (STCLASS="BASED(B$TCB$)");
     2977     8256             %B$NWIO (STCLASS="BASED(STK$)");
     2978     8341
     2979     8342
     2980     8343    1   DCL STK$ PTR;
     2981     8344
     2982     8345    1   DCL VOM$PROCESS ENTRY;
     2983     8346    1       STK$ = B$TCB.STK$;
     2984     8347
     2985     8348    1       IF B$NWIO.EVID = %VOM_READMAIL# AND B$NWIO.TYC ~= %TYC_EOF
     2986     8349    1       THEN
     2987     8350    2       DO;
     2988     8351    2           VO_BNWIO = B$NWIO;
     2989     8352    2           VO_PROCESS = '1'B;
     2990     8353    2       END;
     2991     8354    1       ELSE VO_NEED_READ = '1'B;     /* Set flag to read from comgroup
     2992     8355                                                 once we're out of the async routine */
     2993     8356    1       RETURN;
     2994     8357    1   END VOM$EVENT;
     2995     8358        %EOD;

PL6.E3A0      #004=VOM$EVENT File=VOM$MAILMAN.:VMB6TSI                           WED 08/20/97 15:34 Page:489
--  Include file information  --

   B_MACROS_C.:LIB_E05  is referenced.
   VM_DATA_R.:VMB6TOU  cannot be made into a system file and is referenced.
   CP_6_C.:LIB_E05  is referenced.
   CP_6.:LIB_E05  cannot be made into a system file and is referenced.
   VM_MACRO_C.:VMB6TOU  is referenced.
   VM_SUBS_C.:VMB6TOU  is referenced.
   VOM_DATA_R.:VMB6TOU  cannot be made into a system file and is referenced.
   VO_SUBS_C.:VMB6TOU  is referenced.
   CP_6_SUBS.:LIB_E05  is referenced.
      No diagnostics issued in procedure VOM$EVENT.

   Procedure VOM$EVENT requires 21 words for executable code.
   Procedure VOM$EVENT requires 4 words of local(AUTO) storage.

PL6.E3A0      #004=VOM$EVENT File=VOM$MAILMAN.:VMB6TSI                           WED 08/20/97 15:34 Page:490

 Object Unit name= VOM$EVENT                                  File name= VOM$MAILMAN.:VMB6TOU
 UTS= AUG 20 '97 15:34:37.84 WED                              Compiler= PL-6/E31         Sev=      00
 SharedLib= :SHARED_SYSTEM                                    Alt SharedLib=


    ****  Control sections  ****

 Sect   Type Bound  Init  Size OctSiz  Section name(segment info)
    0   DCB   even  none     0      0  M$UC
    1   DCB   even  none     0      0  M$MAIL_FILE
    2   DCB   even  none     0      0  M$MAIL_CENTRAL
    3   DCB   even  none     0      0  M$MAIL_GLOBAL
    4   DCB   even  none     0      0  M$WORK
    5   DCB   even  none     0      0  M$MAIL_COMGROUP
    6   DCB   even  none     0      0  M$DO
    7   DCB   even  none     0      0  M$LO
    8   DCB   even  none     0      0  M$ME
    9   DCB   even  none     0      0  M$NODE
   10   DCB   even  none     0      0  M$SI
   11  RoData even  UTS      1      1  VOM$EVENT
   12   Proc  even  none    21     25  VOM$EVENT

    ****  Entry defs  ****

                              Check   Calling
                             calling  sequence
  Sect OctLoc Primary Altret sequence   type   Parms  Name
    12      0   yes            yes     Async       0  VOM$EVENT

  ****  Entry refs  ****

         Check        Calling
        calling       sequence
Altret sequence SRef   type   Args  Name
                       nStd      0 X66_AAUTO
                       nStd      0 X66_AARET
PL6.E3A0      #004=VOM$EVENT File=VOM$MAILMAN.:VMB6TSI                           WED 08/20/97 15:34 Page:491

  ****  Data refs  ****

  Flags:  r = read only, s = secondary
Flgs Name                             Flgs Name                             Flgs Name
     M$UC                                  VM_CGBUFFER                           VO_BNWIO
     STATION#                              VO_INTERSYS_ALLOWED                   TIME_HEAD$
     TIME$                                 INTERSYS_HEAD$                        INTERSYS$
r    VO_BUSY_RETRY_MINUTES            r    VO_PACKSET_RETRY_MINUTES         r    VO_MAX_HOLD_HOURS
r    VO_HOG_LIMIT                          VO_MAILMAN_STARTUP_TIME               VO_INTERSYS_PASSWORD
     VO_INTERSYS_EPASS                     VO_INTERSYS_ACCT                      VO_INTERSYS_UNAME
     VO_RETRY_LIMIT_INTERSYSTEM       r    VM_HEADER$                       r    VM_PROFILE$
r    VM_ADDLIST$                      r    VM_ADDREC$                       r    VM_WORK$
r    VM_SELECT$                       r    VM_PARSEAREA$                    r    VM_INPUT$
r    VM_COPY$                              VM_ENCLLIST$                          VM_ENCLREC$
     VM_HEADER_                            VM_HEADER_INIT_                       VM_PROFILE_
     VM_ADDLIST_                           VM_ADDREC_                            VM_WORK_
     VM_SELECT_                            VM_PARSEAREA_                         VM_INPUT_
     VM_COPY_                              VM_ENCLLIST_                          VM_ENCLREC_
     M$MAIL_FILE                           M$MAIL_CENTRAL                        M$MAIL_GLOBAL
     M$WORK                                M$MAIL_COMGROUP                       M$DO
     M$LO                                  M$ME                                  M$NODE
     M$SI                                  M$MAIL_FILE_NUM                       M$MAIL_CENTRAL_NUM
     M$MAIL_GLOBAL_NUM                     M$WORK_NUM                            M$MAIL_COMGROUP_NUM
     M$DO_NUM                              M$ME_NUM                              M$LO_NUM
     M$SI_NUM                              M$NODE_NUM                       r    B$JIT$
r    B$TCB$                                VM_MAIL_ACCT                          VM_NAME_MAP_NAME
     ERRMSG_FID                            VM_SEND_FILE_NAME                     VM_FORWARD_FILE_NAME
     VM_FORWARD_ENCL_NAME                  VM_FORWARD_FILE_PASS                  VM_MAILCG_NAME
     VM_SITENAME                           VM_MAILCG_SETSTA                      VO_NEED_READ
     VO_PROCESS
PL6.E3A0      #004=VOM$EVENT File=VOM$MAILMAN.:VMB6TSI                           WED 08/20/97 15:34 Page:492


     2962        1        /*T***********************************************************/
     2963        2        /*T*                                                         */
     2964        3        /*T* Copyright (c) Bull HN Information Systems Inc., 1997    */
     2965        4        /*T*                                                         */
     2966        5        /*T***********************************************************/
     2967        6        /*X* DMC,PLM=4,IND=4,CTI=2,DTI=0,ENI=0,ECI=0,CSI=0,DCI=4 */
     2968        7        VOM$EVENT: PROC ASYNC;

      7 12 000000   000000 700200 xent  VOM$EVENT    TSX0  ! X66_AAUTO
        12 000001   000004 000000                    ZERO    4,0

     2969        8
     2970        9        %INCLUDE CP_6_SUBS;
     2971      549        %INCLUDE VO_SUBS_C;
     2972      600        %INCLUDE VOM_DATA_R;                    /* Also includes CP_6 */
     2973     7820        %INCLUDE VM_DATA_R;
     2974     8251    1   DCL VO_NEED_READ BIT(1) SYMREF;
     2975     8252    1   DCL VO_PROCESS BIT(1) SYMREF;
     2976     8253             %B$TCB (STCLASS="BASED(B$TCB$)");
     2977     8256             %B$NWIO (STCLASS="BASED(STK$)");
     2978     8341
     2979     8342
     2980     8343    1   DCL STK$ PTR;
     2981     8344
     2982     8345    1   DCL VOM$PROCESS ENTRY;
     2983     8346    1       STK$ = B$TCB.STK$;

   8346 12 000002   000000 470400 xsym               LDP0    B$TCB$
        12 000003   000001 236100                    LDQ     1,,PR0
        12 000004   200003 756100                    STQ     STK$,,AUTO

     2984     8347
     2985     8348    1       IF B$NWIO.EVID = %VOM_READMAIL# AND B$NWIO.TYC ~= %TYC_EOF

   8348 12 000005   200003 471500                    LDP1    STK$,,AUTO
        12 000006   100101 235100                    LDA     65,,PR1
PL6.E3A0      #004=VOM$EVENT File=VOM$MAILMAN.:VMB6TSI                           WED 08/20/97 15:34 Page:493
        12 000007   000001 115007                    CMPA    1,DL
        12 000010   000022 601000 12                 TNZ     s:8354
        12 000011   100104 236100                    LDQ     68,,PR1
        12 000012   000000 116000 11                 CMPQ    0
        12 000013   000022 600000 12                 TZE     s:8354

     2986     8349    1       THEN
     2987     8350    2       DO;

     2988     8351    2           VO_BNWIO = B$NWIO;

   8351 12 000014   000000 100500                    MLR     fill='000'O
        12 000015   100000 000500                    ADSC9   0,,PR1                   cn=0,n=320
        12 000016   000000 000500 xsym               ADSC9   VO_BNWIO                 cn=0,n=320

     2989     8352    2           VO_PROCESS = '1'B;

   8352 12 000017   400000 236003                    LDQ     -131072,DU
        12 000020   000000 756000 xsym               STQ     VO_PROCESS

     2990     8353    2       END;

   8353 12 000021   000024 710000 12                 TRA     s:8356

     2991     8354    1       ELSE VO_NEED_READ = '1'B;     /* Set flag to read from comgroup

   8354 12 000022   400000 236003                    LDQ     -131072,DU
        12 000023   000000 756000 xsym               STQ     VO_NEED_READ

     2992     8355                                                 once we're out of the async routine */
     2993     8356    1       RETURN;

   8356 12 000024   000000 702200 xent               TSX2  ! X66_AARET

(unnamed)
 Sect OctLoc
  11     000   004000 000000                                                    ....
PL6.E3A0      #004=VOM$EVENT File=VOM$MAILMAN.:VMB6TSI                           WED 08/20/97 15:34 Page:494
     2994     8357    1   END VOM$EVENT;
     2995     8358        %EOD;

PL6.E3A0      #004=VOM$EVENT File=VOM$MAILMAN.:VMB6TSI                           WED 08/20/97 15:34 Page:495
--  Include file information  --

   B_MACROS_C.:LIB_E05  is referenced.
   VM_DATA_R.:VMB6TOU  cannot be made into a system file and is referenced.
   CP_6_C.:LIB_E05  is referenced.
   CP_6.:LIB_E05  cannot be made into a system file and is referenced.
   VM_MACRO_C.:VMB6TOU  is referenced.
   VM_SUBS_C.:VMB6TOU  is referenced.
   VOM_DATA_R.:VMB6TOU  cannot be made into a system file and is referenced.
   VO_SUBS_C.:VMB6TOU  is referenced.
   CP_6_SUBS.:LIB_E05  is referenced.
      No diagnostics issued in procedure VOM$EVENT.
PL6.E3A0      #004=VOM$EVENT File=VOM$MAILMAN.:VMB6TSI                           WED 08/20/97 15:34 Page:496

 **** Variables and constants ****

  ****  Auto variables  ****

  ****  Scalars and arrays  ****
OctLoc.c.b A Datatyp(siz) R M Lvl/name                 OctLoc.c.b A Datatyp(siz) R M Lvl/name

     3-0-0/w PTR         r     1 STK$

  ****  SYMREF variables  ****

  ****  Scalars and arrays  ****
OctLoc.c.b A Datatyp(siz) R M Lvl/name                 OctLoc.c.b A Datatyp(siz) R M Lvl/name

     0-0-0/w PTR               1 B$JIT$                     0-0-0/w PTR         r     1 B$TCB$
     0-0-0/c ASTR(9)     r     1 ERRMSG_FID                 0-0-0/w PTR         r     1 INTERSYS$
     0-0-0/w PTR               1 INTERSYS_HEAD$             0-0-0/w UBIN              1 M$DO_NUM
     0-0-0/w UBIN              1 M$LO_NUM                   0-0-0/w UBIN              1 M$MAIL_CENTRAL_NUM
     0-0-0/w UBIN              1 M$MAIL_COMGROUP_NUM        0-0-0/w UBIN              1 M$MAIL_FILE_NUM
     0-0-0/w UBIN              1 M$MAIL_GLOBAL_NUM          0-0-0/w UBIN              1 M$ME_NUM
     0-0-0/w UBIN              1 M$NODE_NUM                 0-0-0/w UBIN              1 M$SI_NUM
     0-0-0/w UBIN              1 M$WORK_NUM                 0-0-0/c CHAR(8)           1 STATION#
     0-0-0/w PTR         r     1 TIME$                      0-0-0/w PTR               1 TIME_HEAD$
     0-0-0/w PTR               1 VM_ADDLIST$                0-0-0/d VECT              1 VM_ADDLIST_
     0-0-0/w PTR               1 VM_ADDREC$                 0-0-0/d VECT              1 VM_ADDREC_
     0-0-0/c STRC(1296)        1 VM_CGBUFFER                0-0-0/w PTR               1 VM_COPY$
     0-0-0/d VECT              1 VM_COPY_                   0-0-0/w PTR               1 VM_ENCLLIST$
     0-0-0/d VECT              1 VM_ENCLLIST_               0-0-0/w PTR               1 VM_ENCLREC$
     0-0-0/d VECT              1 VM_ENCLREC_                0-0-0/c STRC(270)         1 VM_FORWARD_ENCL_NAME
     0-0-0/c STRC(270)         1 VM_FORWARD_FILE_NAME       0-0-0/c STRC(72)          1 VM_FORWARD_FILE_PASS
     0-0-0/w PTR               1 VM_HEADER$                 0-0-0/d VECT              1 VM_HEADER_
     0-0-0/d VECT              1 VM_HEADER_INIT_            0-0-0/w PTR               1 VM_INPUT$
     0-0-0/d VECT              1 VM_INPUT_                  0-0-0/c STRC(72)          1 VM_MAILCG_NAME
     0-0-0/w STRC(432)         1 VM_MAILCG_SETSTA           0-0-0/c STRC(72)          1 VM_MAIL_ACCT
     0-0-0/c STRC(54)          1 VM_NAME_MAP_NAME           0-0-0/w PTR               1 VM_PARSEAREA$
     0-0-0/d VECT              1 VM_PARSEAREA_              0-0-0/w PTR               1 VM_PROFILE$
     0-0-0/d VECT              1 VM_PROFILE_                0-0-0/w PTR               1 VM_SELECT$
PL6.E3A0      #004=VOM$EVENT File=VOM$MAILMAN.:VMB6TSI                           WED 08/20/97 15:34 Page:497
     0-0-0/d VECT              1 VM_SELECT_                 0-0-0/c STRC(288)         1 VM_SEND_FILE_NAME
     0-0-0/c CHAR(8)           1 VM_SITENAME                0-0-0/w PTR               1 VM_WORK$
     0-0-0/d VECT              1 VM_WORK_                   0-0-0/w STRC(2880)  r     1 VO_BNWIO
     0-0-0/w UBIN              1 VO_BUSY_RETRY_MINUTES
     0-0-0/w UBIN              1 VO_HOG_LIMIT               0-0-0/c CHAR(8)           1 VO_INTERSYS_ACCT
     0-0-0/b BIT               1 VO_INTERSYS_ALLOWED        0-0-0/c CHAR(12)          1 VO_INTERSYS_EPASS
     0-0-0/c CHAR(8)           1 VO_INTERSYS_PASSWORD       0-0-0/c CHAR(8)           1 VO_INTERSYS_UNAME
     0-0-0/w UBIN              1 VO_MAILMAN_STARTUP_TIME
     0-0-0/w UBIN              1 VO_MAX_HOLD_HOURS          0-0-0/b BIT         r     1 VO_NEED_READ
     0-0-0/w UBIN              1 VO_PACKSET_RETRY_MINUTES
     0-0-0/b BIT         r     1 VO_PROCESS
     0-0-0/w UBIN              1 VO_RETRY_LIMIT_INTERSYSTEM

  ****  BASED and DCB variables  ****

  ****  Scalars and arrays  ****
OctLoc.c.b A Datatyp(siz) R M Lvl/name                 OctLoc.c.b A Datatyp(siz) R M Lvl/name

     0-0-0/w STRC(2880)  r     1 B$NWIO                     0-0-0/w STRC(144)   r     1 B$TCB
     0-0-0/w STRC(540)         1 INTERSYS_INFO              0-0-0N  NULL        r     1 M$DO
     0-0-0N  NULL        r     1 M$LO                       0-0-0N  NULL        r     1 M$MAIL_CENTRAL
     0-0-0N  NULL        r     1 M$MAIL_COMGROUP            0-0-0N  NULL        r     1 M$MAIL_FILE
     0-0-0N  NULL        r     1 M$MAIL_GLOBAL              0-0-0N  NULL        r     1 M$ME
     0-0-0N  NULL        r     1 M$NODE                     0-0-0N  NULL        r     1 M$SI
     0-0-0N  NULL        r     1 M$UC                       0-0-0N  NULL        r     1 M$WORK
     0-0-0/w STRC(612)         1 TIME_TABLE                 0-0-0/c ASTR(9)     r     1 X$STRING


   Procedure VOM$EVENT requires 21 words for executable code.
   Procedure VOM$EVENT requires 4 words of local(AUTO) storage.
PL6.E3A0      #004=VOM$EVENT File=VOM$MAILMAN.:VMB6TSI                           WED 08/20/97 15:34 Page:498
          *** CROSS REFERENCE LISTING ***
**     DENOTES     IDENTIFIER DEFINITION
<<                 IDENTIFIER'S VALUE SET
>>                 IDENTIFIER'S VALUE USED
<>                 IDENTIFIER SET AND/OR USED
--                 IDENTIFIER REFERENCED
PL6.E3A0      #004=VOM$EVENT File=VOM$MAILMAN.:VMB6TSI                           WED 08/20/97 15:34 Page:499
          MINI XREF LISTING

B$NWIO
      8259**DCL      8351>>ASSIGN
B$NWIO.CGPARM.MSGIDXT
      8290**DCL      8293--REDEF
B$NWIO.CODE
      8259**DCL      8259--REDEF    8260--REDEF    8260--REDEF
B$NWIO.ERR.ERR#
      8261**DCL      8261--REDEF
B$NWIO.EVID
      8260**DCL      8260--REDEF    8260--REDEF    8348>>IF
B$NWIO.TYC
      8266**DCL      8348>>IF
B$TCB.STK$
      8254**DCL      8346>>ASSIGN
B$TCB$
      8028**DCL      8254--IMP-PTR  8346>>ASSIGN
ERRMSG_FID.L#
      8096**DCL      8096--IMP-SIZ
INTERSYS$
      7813**DCL      7818--IMP-PTR
STK$
      8343**DCL      8259--IMP-PTR  8346<<ASSIGN   8348>>IF       8348>>IF       8351>>ASSIGN
TIME$
      7812**DCL      7816--IMP-PTR
VO_BNWIO
      7730**DCL      8351<<ASSIGN
VO_BNWIO.CGPARM.MSGIDXT
      7761**DCL      7764--REDEF
VO_BNWIO.CODE
      7730**DCL      7730--REDEF    7731--REDEF    7731--REDEF
VO_BNWIO.ERR.ERR#
      7732**DCL      7732--REDEF
PL6.E3A0      #004=VOM$EVENT File=VOM$MAILMAN.:VMB6TSI                           WED 08/20/97 15:34 Page:500
VO_BNWIO.EVID
      7731**DCL      7731--REDEF    7731--REDEF
VO_NEED_READ
      8251**DCL      8354<<ASSIGN
VO_PROCESS
      8252**DCL      8352<<ASSIGN
X$STRING.SIZ
      7942**DCL      7943--IMP-SIZ

PL6.E3A0      #005=VOM$PROCESS File=VOM$MAILMAN.:VMB6TSI                         WED 08/20/97 15:34 Page:501
     2996        1        /*T***********************************************************/
     2997        2        /*T*                                                         */
     2998        3        /*T* Copyright (c) Bull HN Information Systems Inc., 1997    */
     2999        4        /*T*                                                         */
     3000        5        /*T***********************************************************/
     3001        6        /*X* DMC,PLM=4,IND=4,CTI=2,DTI=0,ENI=0,ECI=0,CSI=0,DCI=4 */
     3002        7        VOM$PROCESS: PROC;
     3003        8          %INCLUDE B_ERRORS_C;
     3004     1135          %INCLUDE CP_6_SUBS;
     3005     1675          %INCLUDE VOM_DATA_R;                  /* Also includes CP_6 */
     3006     8895          %INCLUDE VO_SUBS_C;
     3007     8946          %INCLUDE VM_DATA_R;
     3008     9377
     3009     9378        %VLP_NAME (FPTN=MAIL_NAME,STCLASS="SYMREF",LEN=31);
     3010     9405        %VLP_STATION (FPTN=OUTSTATION, STCLASS="SYMREF");
     3011     9432              %EQU_CG;
     3012     9480        %FPT_WRITE(FPTN=WRITE_MAILCG,STCLASS="SYMREF",
     3013     9481                   BUF=VM_CGBUFFER);
     3014     9512             %FPT_READ      (FPTN=READ_MAILCG,
     3015     9513                                 DCB=M$MAIL_COMGROUP,
     3016     9514                                 BUF=VM_CGBUFFER,
     3017     9515                                 EVENT = %VOM_READMAIL#,
     3018     9516             WAIT=NO);
     3019     9555             %B$TCB (STCLASS="BASED(B$TCB$)");
     3020     9558
     3021     9559             %B$ALT;
     3022     9567             %VLP_ERRCODE (FPTN=ERROR);
     3023     9612              %FPT_OPEN(FPTN=CREATE_SEND,ACS=DIRECT,
     3024     9613              ASN=FILE,
     3025     9614              ACCT=VM_MAIL_ACCT,
     3026     9615              ACCESS=SEND_ACCESS,
     3027     9616              ACSVEH=SEND_ACSVEH,
     3028     9617              NAME=SEND_NAME,
     3029     9618              SCRUB=YES,
     3030     9619              ORG=KEYED,
     3031     9620              DCB=CREATE_DCB,
     3032     9621              FUN=CREATE,
PL6.E3A0      #005=VOM$PROCESS File=VOM$MAILMAN.:VMB6TSI                         WED 08/20/97 15:34 Page:502
     3033     9622              EXIST=ERROR);
     3034     9731
     3035     9732          %VLP_ATTR (FPTN=SEND_ACCESS);
     3036     9746          %VLP_ACCESS (NOLIST=YES,EXEC=YES,LAST=";");
     3037     9763
     3038     9764              %VLP_ATTR (FPTN=SEND_ACSVEH);
     3039     9778          %VLP_ACSVEH (READ=YES,UPD=YES,WNEW=YES,DELR=YES,VEHICLE='SEND_TEST');
     3040     9795              %VLP_ACSVEH (READ=YES,UPD=YES,WNEW=YES,DELR=YES,VEHICLE='SEND',LAST=";");
     3041     9812
     3042     9813              %VLP_NAME (FPTN=SEND_NAME,LEN=25,NAME='                         ');
     3043     9840
     3044     9841          %FPT_CLOSE(FPTN=CLOSE_SEND,DCB=CREATE_DCB,DISP=SAVE);
     3045     9883
     3046     9884        %FPT_CLOSE (FPTN=CLOSE_CREATE_REL, STCLASS=CONSTANT,
     3047     9885                  DISP=RELEASE,
     3048     9886                  DCB=CREATE_DCB);
     3049     9928
     3050     9929          %VM_HEADER;
     3051    10058        %VM_HEADER (NAME=HEADTEMP, STCLASS=AUTO);
     3052    10187        %VM_KEYTYPES;
     3053    10208        %VM_INFOKEY (NAME=HEADKEY,TYP=%VM_TYPE_HEAD,STCLASS=CONSTANT);
     3054    10225        %FPT_READ (FPTN=READHEAD, STCLASS=STATIC,
     3055    10226                  DCB=CREATE_DCB,
     3056    10227                  KEY=HEADKEY,
     3057    10228                  KEYS=YES);
     3058    10267
     3059    10268          %FPT_TIME (FPTN=GET_CURRENT,
     3060    10269                         SOURCE=CLOCK,
     3061    10270                         DEST=UTS,
     3062    10271                         TSTAMP=CURRENT_TIME);
     3063    10290
     3064    10291          %FPT_XCON (FPTN=RESET_XCON);
     3065    10305
     3066    10306    1   DCL CURRENT_TIME UBIN WORD STATIC;
     3067    10307    1   DCL J UBIN;
     3068    10308    1   DCL CREATE_DCB DCB;
     3069    10309    1   DCL PTR$ PTR;
PL6.E3A0      #005=VOM$PROCESS File=VOM$MAILMAN.:VMB6TSI                         WED 08/20/97 15:34 Page:503
     3070    10310    1   DCL I SBIN WORD;
     3071    10311    1   DCL SEND_STRING CHAR(20);
     3072    10312    1   DCL VMD$GET_HEADER ENTRY(2) ALTRET;
     3073    10313    1   DCL VOM$ADDENTRY  ENTRY(4);
     3074    10314    1   DCL VOM$ADDENTRY_SORTED ENTRY(4);
     3075    10315    1   DCL VOM$DELENTRY ENTRY(3);
     3076    10316    1   DCL NOTIFY$MAILCG ENTRY(1);
     3077    10317    1   DCL FIND$FOLDER ENTRY(4) ALTRET;
     3078    10318    1   DCL SAVE$ PTR ALIGNED;
     3079    10319    1   DCL VOM$DOSEND ENTRY(1);
     3080    10320    1   DCL ANOTHER_USER BIT(1) ALIGNED;
     3081    10321    1   DCL VO_PROCESS BIT(1) SYMREF;
     3082    10322    1   DCL VO_NEED_READ BIT(1) SYMREF;
     3083    10323
     3084    10324    1       VO_PROCESS = '0'B;
     3085    10325    1       VO_NEED_READ = '1'B;
     3086    10326
     3087    10327
     3088    10328
     3089    10329    1       IF VO_BNWIO.CGPARM.MSGTYP# = '*AUEV' /* Admin event */
     3090    10330    1       THEN
     3091    10331    2       DO;
     3092    10332    2       END;
     3093    10333    1       ELSE
     3094    10334    2       DO;
     3095    10335    3           DO CASE (VM_CGBUFFER.COMMAND); /* Do particular function */
     3096    10336
     3097    10337    3           CASE(%VO_KILL_MAILMAN#);
     3098    10338    3               CALL M$XCON (RESET_XCON) ALTRET(E_XCON);
     3099    10339    3   E_XCON:
     3100    10340    3               CALL M$XXX;
     3101    10341    3           CASE (%VO_SEND#);
     3102    10342
     3103    10343    3               SEND_NAME = VM_CGBUFFER.FILE_NAME;
     3104    10344    3               CREATE_SEND.V.FUN# = %IN#;
     3105    10345    3               CALL M$OPEN (CREATE_SEND) ALTRET(BAD_OPEN);
     3106    10346    3               READHEAD.BUF_ = VECTOR(HEADTEMP);
PL6.E3A0      #005=VOM$PROCESS File=VOM$MAILMAN.:VMB6TSI                         WED 08/20/97 15:34 Page:504
     3107    10347    4               CALL M$READ (READHEAD) WHENALTRETURN DO;
     3108    10348    4                   IF B$TCB.ALT$->B$ALT.ERR.CODE ~= %E$LD THEN GOTO BAD_OPEN;
     3109    10349    4               END;
     3110    10350        /*
     3111    10351             ***** If no delivery time was specified,
     3112    10352                   then deliver as soon as possible.
     3113    10353                   Therefore, this entry must be added
     3114    10354                   to the time queue with the current time ...
     3115    10355        */
     3116    10356    3               IF HEADTEMP.DELIVERY_DATE = 0
     3117    10357    3               THEN
     3118    10358    4               DO;
     3119    10359    4                   CALL M$TIME (GET_CURRENT);
     3120    10360    4                   HEADTEMP.DELIVERY_DATE = CURRENT_TIME;
     3121    10361    4               END;
     3122    10362    3               J = VM_HEADER.DELIVERY_DATE; /* switch for addentry */
     3123    10363    3               VM_HEADER.DELIVERY_DATE = HEADTEMP.DELIVERY_DATE;
     3124    10364    3               CALL VOM$ADDENTRY_SORTED(PTR$,%NO#,TIME_HEAD$,DCBNUM(CREATE_DCB));
     3125    10365    3               VM_HEADER.DELIVERY_DATE = J;
     3126    10366    3               CALL M$CLOSE (CLOSE_SEND) ALTRET(WHO_CARES);
     3127    10367    3           CASE (%VO_SEND_FID#);
     3128    10368    3               CALL M$TIME(GET_CURRENT);
     3129    10369    3               CALL BINCHAR(SEND_STRING, CURRENT_TIME);
     3130    10370    3               CALL CONCAT(SEND_NAME.NAME#,':MESS',SEND_STRING);
     3131    10371    3               SEND_NAME.L# = SIZEC(SEND_NAME.NAME#);
     3132    10372    3               CREATE_SEND.V.FUN# = %CREATE#;
     3133    10373    3               CALL M$OPEN(CREATE_SEND) ALTRET(BUILD_ERROR);
     3134    10374    3               CALL M$CLOSE(CLOSE_SEND) ALTRET(BUILD_ERROR);
     3135    10375    3               VM_CGBUFFER.FILE_NAME = SEND_NAME;
     3136    10376    3               VM_CGBUFFER.COMMAND = %VO_BUILD_SEND#;
     3137    10377    3               OUTSTATION.STATION# = VM_CGBUFFER.STATION#;
     3138    10378    3               CALL M$WRITE(WRITE_MAILCG) ALTRET(BUILD_ERROR);
     3139    10379    4               DO WHILE(%NO#);
     3140    10380    4   BUILD_ERROR:    ;
     3141    10381    4                   VM_CGBUFFER.COMMAND = %VO_CREATE_ERROR#;
     3142    10382    4                   VM_CGBUFFER.ERROR = B$TCB.ALT$ -> B$ALT.ERR;
     3143    10383    4                   OUTSTATION.STATION# = VM_CGBUFFER.STATION#;
PL6.E3A0      #005=VOM$PROCESS File=VOM$MAILMAN.:VMB6TSI                         WED 08/20/97 15:34 Page:505
     3144    10384    5                   CALL M$WRITE(WRITE_MAILCG) WHENALTRETURN DO;
     3145    10385    5                   END;
     3146    10386    4               END;             /* Do while */
     3147    10387    3           CASE(ELSE);
     3148    10388                                 /* Send writes with VO_DUMMY to see if mailman is up */
     3149    10389    3           END;                   /* End do case */
     3150    10390    2   CONTINUE: ;
     3151    10391    2       END;                       /* End not au event */
     3152    10392    1   WHO_CARES:;
     3153    10393    1       RETURN;
     3154    10394
     3155    10395    1   BAD_OPEN:;
     3156    10396    1       CALL M$CLOSE (CLOSE_CREATE_REL) ALTRET(WHO_CARES);
     3157    10397    1       GOTO CONTINUE;
     3158    10398
     3159    10399    1   END VOM$PROCESS;
     3160    10400        %EOD;

PL6.E3A0      #005=VOM$PROCESS File=VOM$MAILMAN.:VMB6TSI                         WED 08/20/97 15:34 Page:506
--  Include file information  --

   B_MACROS_C.:LIB_E05  is referenced.
   VM_DATA_R.:VMB6TOU  cannot be made into a system file and is referenced.
   VO_SUBS_C.:VMB6TOU  is referenced.
   CP_6_C.:LIB_E05  is referenced.
   CP_6.:LIB_E05  cannot be made into a system file and is referenced.
   VM_MACRO_C.:VMB6TOU  is referenced.
   VM_SUBS_C.:VMB6TOU  is referenced.
   VOM_DATA_R.:VMB6TOU  cannot be made into a system file and is referenced.
   CP_6_SUBS.:LIB_E05  is referenced.
   B_ERRORS_C.:LIB_E05  is referenced.
      No diagnostics issued in procedure VOM$PROCESS.

   Procedure VOM$PROCESS requires 150 words for executable code.
   Procedure VOM$PROCESS requires 56 words of local(AUTO) storage.

PL6.E3A0      #005=VOM$PROCESS File=VOM$MAILMAN.:VMB6TSI                         WED 08/20/97 15:34 Page:507

 Object Unit name= VOM$PROCESS                                File name= VOM$MAILMAN.:VMB6TOU
 UTS= AUG 20 '97 15:34:54.32 WED                              Compiler= PL-6/E31         Sev=      00
 SharedLib= :SHARED_SYSTEM                                    Alt SharedLib=


    ****  Control sections  ****

 Sect   Type Bound  Init  Size OctSiz  Section name(segment info)
    0   DCB   even  none     0      0  M$UC
    1   DCB   even  none     0      0  M$MAIL_FILE
    2   DCB   even  none     0      0  M$MAIL_CENTRAL
    3   DCB   even  none     0      0  M$MAIL_GLOBAL
    4   DCB   even  none     0      0  M$WORK
    5   DCB   even  none     0      0  M$MAIL_COMGROUP
    6   DCB   even  none     0      0  M$DO
    7   DCB   even  none     0      0  M$LO
    8   DCB   even  none     0      0  M$ME
    9   DCB   even  none     0      0  M$NODE
   10   DCB   even  none     0      0  M$SI
   11   Data  even  none   155    233  VOM$PROCESS
   12  RoData even  UTS     36     44  VOM$PROCESS
   13   DCB   even  none     0      0  CREATE_DCB
   14   Proc  even  none   150    226  VOM$PROCESS
   15  RoData even  none     5      5  VOM$PROCESS

    ****  Entry defs  ****

                              Check   Calling
                             calling  sequence
  Sect OctLoc Primary Altret sequence   type   Parms  Name
    14      0   yes            yes      Std        0  VOM$PROCESS
PL6.E3A0      #005=VOM$PROCESS File=VOM$MAILMAN.:VMB6TSI                         WED 08/20/97 15:34 Page:508

  ****  Entry refs  ****

         Check        Calling
        calling       sequence
Altret sequence SRef   type   Args  Name
         yes           Std       4 VOM$ADDENTRY_SORTED
                       nStd      0 X66_AUTO_0
                       nStd      0 X66_ARET

  ****  Data refs  ****

  Flags:  r = read only, s = secondary
Flgs Name                             Flgs Name                             Flgs Name
     M$UC                                  VM_CGBUFFER                           VO_BNWIO
     STATION#                              VO_INTERSYS_ALLOWED                   TIME_HEAD$
     TIME$                                 INTERSYS_HEAD$                        INTERSYS$
r    VO_BUSY_RETRY_MINUTES            r    VO_PACKSET_RETRY_MINUTES         r    VO_MAX_HOLD_HOURS
r    VO_HOG_LIMIT                          VO_MAILMAN_STARTUP_TIME               VO_INTERSYS_PASSWORD
     VO_INTERSYS_EPASS                     VO_INTERSYS_ACCT                      VO_INTERSYS_UNAME
     VO_RETRY_LIMIT_INTERSYSTEM       r    VM_HEADER$                       r    VM_PROFILE$
r    VM_ADDLIST$                      r    VM_ADDREC$                       r    VM_WORK$
r    VM_SELECT$                       r    VM_PARSEAREA$                    r    VM_INPUT$
r    VM_COPY$                              VM_ENCLLIST$                          VM_ENCLREC$
     VM_HEADER_                            VM_HEADER_INIT_                       VM_PROFILE_
     VM_ADDLIST_                           VM_ADDREC_                            VM_WORK_
     VM_SELECT_                            VM_PARSEAREA_                         VM_INPUT_
     VM_COPY_                              VM_ENCLLIST_                          VM_ENCLREC_
     M$MAIL_FILE                           M$MAIL_CENTRAL                        M$MAIL_GLOBAL
     M$WORK                                M$MAIL_COMGROUP                       M$DO
     M$LO                                  M$ME                                  M$NODE
     M$SI                                  M$MAIL_FILE_NUM                       M$MAIL_CENTRAL_NUM
     M$MAIL_GLOBAL_NUM                     M$WORK_NUM                            M$MAIL_COMGROUP_NUM
     M$DO_NUM                              M$ME_NUM                              M$LO_NUM
     M$SI_NUM                              M$NODE_NUM                       r    B$JIT$
r    B$TCB$                                VM_MAIL_ACCT                          VM_NAME_MAP_NAME
     ERRMSG_FID                            VM_SEND_FILE_NAME                     VM_FORWARD_FILE_NAME
     VM_FORWARD_ENCL_NAME                  VM_FORWARD_FILE_PASS                  VM_MAILCG_NAME
PL6.E3A0      #005=VOM$PROCESS File=VOM$MAILMAN.:VMB6TSI                         WED 08/20/97 15:34 Page:509
     VM_SITENAME                           VM_MAILCG_SETSTA                      MAIL_NAME
     OUTSTATION                            WRITE_MAILCG                          CREATE_DCB
     VO_PROCESS                            VO_NEED_READ

  ****  Segment refs  ****

  Flags:  r = read only, s = secondary
Flgs Name                             Flgs Name                             Flgs Name
     ISSID                                 NULLSID
PL6.E3A0      #005=VOM$PROCESS File=VOM$MAILMAN.:VMB6TSI                         WED 08/20/97 15:34 Page:510


     2996        1        /*T***********************************************************/
     2997        2        /*T*                                                         */
     2998        3        /*T* Copyright (c) Bull HN Information Systems Inc., 1997    */
     2999        4        /*T*                                                         */
     3000        5        /*T***********************************************************/
     3001        6        /*X* DMC,PLM=4,IND=4,CTI=2,DTI=0,ENI=0,ECI=0,CSI=0,DCI=4 */
     3002        7        VOM$PROCESS: PROC;

      7 14 000000   000000 700200 xent  VOM$PROCESS  TSX0  ! X66_AUTO_0
        14 000001   000070 000000                    ZERO    56,0

     3003        8          %INCLUDE B_ERRORS_C;
     3004     1135          %INCLUDE CP_6_SUBS;
     3005     1675          %INCLUDE VOM_DATA_R;                  /* Also includes CP_6 */
     3006     8895          %INCLUDE VO_SUBS_C;
     3007     8946          %INCLUDE VM_DATA_R;
     3008     9377
     3009     9378        %VLP_NAME (FPTN=MAIL_NAME,STCLASS="SYMREF",LEN=31);
     3010     9405        %VLP_STATION (FPTN=OUTSTATION, STCLASS="SYMREF");
     3011     9432              %EQU_CG;
     3012     9480        %FPT_WRITE(FPTN=WRITE_MAILCG,STCLASS="SYMREF",
     3013     9481                   BUF=VM_CGBUFFER);
     3014     9512             %FPT_READ      (FPTN=READ_MAILCG,
     3015     9513                                 DCB=M$MAIL_COMGROUP,
     3016     9514                                 BUF=VM_CGBUFFER,
     3017     9515                                 EVENT = %VOM_READMAIL#,
     3018     9516             WAIT=NO);
     3019     9555             %B$TCB (STCLASS="BASED(B$TCB$)");
     3020     9558
     3021     9559             %B$ALT;
     3022     9567             %VLP_ERRCODE (FPTN=ERROR);
     3023     9612              %FPT_OPEN(FPTN=CREATE_SEND,ACS=DIRECT,
     3024     9613              ASN=FILE,
     3025     9614              ACCT=VM_MAIL_ACCT,
     3026     9615              ACCESS=SEND_ACCESS,
     3027     9616              ACSVEH=SEND_ACSVEH,
PL6.E3A0      #005=VOM$PROCESS File=VOM$MAILMAN.:VMB6TSI                         WED 08/20/97 15:34 Page:511
     3028     9617              NAME=SEND_NAME,
     3029     9618              SCRUB=YES,
     3030     9619              ORG=KEYED,
     3031     9620              DCB=CREATE_DCB,
     3032     9621              FUN=CREATE,
     3033     9622              EXIST=ERROR);
     3034     9731
     3035     9732          %VLP_ATTR (FPTN=SEND_ACCESS);
     3036     9746          %VLP_ACCESS (NOLIST=YES,EXEC=YES,LAST=";");
     3037     9763
     3038     9764              %VLP_ATTR (FPTN=SEND_ACSVEH);
     3039     9778          %VLP_ACSVEH (READ=YES,UPD=YES,WNEW=YES,DELR=YES,VEHICLE='SEND_TEST');
     3040     9795              %VLP_ACSVEH (READ=YES,UPD=YES,WNEW=YES,DELR=YES,VEHICLE='SEND',LAST=";");
     3041     9812
     3042     9813              %VLP_NAME (FPTN=SEND_NAME,LEN=25,NAME='                         ');
     3043     9840
     3044     9841          %FPT_CLOSE(FPTN=CLOSE_SEND,DCB=CREATE_DCB,DISP=SAVE);
     3045     9883
     3046     9884        %FPT_CLOSE (FPTN=CLOSE_CREATE_REL, STCLASS=CONSTANT,
     3047     9885                  DISP=RELEASE,
     3048     9886                  DCB=CREATE_DCB);
     3049     9928
     3050     9929          %VM_HEADER;
     3051    10058        %VM_HEADER (NAME=HEADTEMP, STCLASS=AUTO);
     3052    10187        %VM_KEYTYPES;
     3053    10208        %VM_INFOKEY (NAME=HEADKEY,TYP=%VM_TYPE_HEAD,STCLASS=CONSTANT);
     3054    10225        %FPT_READ (FPTN=READHEAD, STCLASS=STATIC,
     3055    10226                  DCB=CREATE_DCB,
     3056    10227                  KEY=HEADKEY,
     3057    10228                  KEYS=YES);
     3058    10267
     3059    10268          %FPT_TIME (FPTN=GET_CURRENT,
     3060    10269                         SOURCE=CLOCK,
     3061    10270                         DEST=UTS,
     3062    10271                         TSTAMP=CURRENT_TIME);
     3063    10290
     3064    10291          %FPT_XCON (FPTN=RESET_XCON);
PL6.E3A0      #005=VOM$PROCESS File=VOM$MAILMAN.:VMB6TSI                         WED 08/20/97 15:34 Page:512
     3065    10305
     3066    10306    1   DCL CURRENT_TIME UBIN WORD STATIC;
     3067    10307    1   DCL J UBIN;
     3068    10308    1   DCL CREATE_DCB DCB;
     3069    10309    1   DCL PTR$ PTR;
     3070    10310    1   DCL I SBIN WORD;
     3071    10311    1   DCL SEND_STRING CHAR(20);
     3072    10312    1   DCL VMD$GET_HEADER ENTRY(2) ALTRET;
     3073    10313    1   DCL VOM$ADDENTRY  ENTRY(4);
     3074    10314    1   DCL VOM$ADDENTRY_SORTED ENTRY(4);
     3075    10315    1   DCL VOM$DELENTRY ENTRY(3);
     3076    10316    1   DCL NOTIFY$MAILCG ENTRY(1);
     3077    10317    1   DCL FIND$FOLDER ENTRY(4) ALTRET;
     3078    10318    1   DCL SAVE$ PTR ALIGNED;
     3079    10319    1   DCL VOM$DOSEND ENTRY(1);
     3080    10320    1   DCL ANOTHER_USER BIT(1) ALIGNED;
     3081    10321    1   DCL VO_PROCESS BIT(1) SYMREF;
     3082    10322    1   DCL VO_NEED_READ BIT(1) SYMREF;
     3083    10323
     3084    10324    1       VO_PROCESS = '0'B;

  10324 14 000002   000000 450000 xsym               STZ     VO_PROCESS

     3085    10325    1       VO_NEED_READ = '1'B;

  10325 14 000003   400000 236003                    LDQ     -131072,DU
        14 000004   000000 756000 xsym               STQ     VO_NEED_READ

     3086    10326
     3087    10327
     3088    10328
     3089    10329    1       IF VO_BNWIO.CGPARM.MSGTYP# = '*AUEV' /* Admin event */

  10329 14 000005   040000 106400                    CMPC    fill='040'O
        14 000006   000111 000010 xsym               ADSC9   VO_BNWIO+73              cn=0,n=8
        14 000007   000040 000005 12                 ADSC9   HEADKEY+2                cn=0,n=5
        14 000010   000012 601000 14                 TNZ     s:10335
PL6.E3A0      #005=VOM$PROCESS File=VOM$MAILMAN.:VMB6TSI                         WED 08/20/97 15:34 Page:513

     3090    10330    1       THEN
     3091    10331    2       DO;

     3092    10332    2       END;

  10332 14 000011   000220 710000 14                 TRA     CONTINUE

     3093    10333    1       ELSE
     3094    10334    2       DO;

     3095    10335    3           DO CASE (VM_CGBUFFER.COMMAND); /* Do particular function */

  10335 14 000012   000002 235000 xsym               LDA     VM_CGBUFFER+2
        14 000013   000004 135007                    SBLA    4,DL
        14 000014   000010 115007                    CMPA    8,DL
        14 000015   000017 602005 14                 TNC     s:10335+5,AL
        14 000016   000220 710000 14                 TRA     CONTINUE
        14 000017   000036 710000 14                 TRA     s:10343
        14 000020   000131 710000 14                 TRA     s:10368
        14 000021   000220 710000 14                 TRA     CONTINUE
        14 000022   000220 710000 14                 TRA     CONTINUE
        14 000023   000220 710000 14                 TRA     CONTINUE
        14 000024   000220 710000 14                 TRA     CONTINUE
        14 000025   000220 710000 14                 TRA     CONTINUE
        14 000026   000027 710000 14                 TRA     s:10338

     3096    10336
     3097    10337    3           CASE(%VO_KILL_MAILMAN#);

     3098    10338    3               CALL M$XCON (RESET_XCON) ALTRET(E_XCON);

  10338 14 000027   000224 630400 11                 EPPR0   RESET_XCON
        14 000030   410003 713400                    CLIMB   alt,+4099
        14 000031   400400 401760                    pmme    nvectors=2
        14 000032   000033 702000 14                 TSX2    E_XCON

PL6.E3A0      #005=VOM$PROCESS File=VOM$MAILMAN.:VMB6TSI                         WED 08/20/97 15:34 Page:514
     3099    10339    3   E_XCON:
     3100    10340    3               CALL M$XXX;

  10340 14 000033   000003 713400       E_XCON       CLIMB   3
        14 000034   000000 401760                    pmme    nvectors=0
        14 000035   000220 710000 14                 TRA     CONTINUE

     3101    10341    3           CASE (%VO_SEND#);

     3102    10342
     3103    10343    3               SEND_NAME = VM_CGBUFFER.FILE_NAME;

  10343 14 000036   000000 100400                    MLR     fill='000'O
        14 000037   000022 000032 xsym               ADSC9   VM_CGBUFFER+18           cn=0,n=26
        14 000040   000124 000032 11                 ADSC9   SEND_NAME                cn=0,n=26

     3104    10344    3               CREATE_SEND.V.FUN# = %IN#;

  10344 14 000041   002000 236007                    LDQ     1024,DL
        14 000042   000065 552010 11                 STBQ    CREATE_SEND+37,'10'O

     3105    10345    3               CALL M$OPEN (CREATE_SEND) ALTRET(BAD_OPEN);

  10345 14 000043   000020 630400 11                 EPPR0   CREATE_SEND
        14 000044   450000 713400                    CLIMB   alt,open
        14 000045   410400 401760                    pmme    nvectors=18
        14 000046   000221 702000 14                 TSX2    BAD_OPEN

     3106    10346    3               READHEAD.BUF_ = VECTOR(HEADTEMP);

  10346 14 000047   000000 235000 15                 LDA     0
        14 000050   200062 452500                    STP2    ANOTHER_USER+1,,AUTO
        14 000051   200062 236100                    LDQ     ANOTHER_USER+1,,AUTO
        14 000052   000003 036003                    ADLQ    3,DU
        14 000053   000176 757000 11                 STAQ    READHEAD+4

     3107    10347    4               CALL M$READ (READHEAD) WHENALTRETURN DO;
PL6.E3A0      #005=VOM$PROCESS File=VOM$MAILMAN.:VMB6TSI                         WED 08/20/97 15:34 Page:515

  10347 14 000054   000172 630400 11                 EPPR0   READHEAD
        14 000055   440000 713400                    CLIMB   alt,read
        14 000056   401400 401760                    pmme    nvectors=4
        14 000057   000061 702000 14                 TSX2    s:10348
        14 000060   000067 710000 14                 TRA     s:10356

     3108    10348    4                   IF B$TCB.ALT$->B$ALT.ERR.CODE ~= %E$LD THEN GOTO BAD_OPEN;

  10348 14 000061   000000 470400 xsym               LDP0    B$TCB$
        14 000062   000000 471500                    LDP1    0,,PR0
        14 000063   100102 236100                    LDQ     66,,PR1
        14 000064   377770 376007                    ANQ     131064,DL
        14 000065   000070 116007                    CMPQ    56,DL
        14 000066   000221 601000 14                 TNZ     BAD_OPEN

     3109    10349    4               END;

     3110    10350        /*
     3111    10351             ***** If no delivery time was specified,
     3112    10352                   then deliver as soon as possible.
     3113    10353                   Therefore, this entry must be added
     3114    10354                   to the time queue with the current time ...
     3115    10355        */
     3116    10356    3               IF HEADTEMP.DELIVERY_DATE = 0

  10356 14 000067   200005 235100                    LDA     HEADTEMP+2,,AUTO
        14 000070   000076 601000 14                 TNZ     s:10362

     3117    10357    3               THEN
     3118    10358    4               DO;

     3119    10359    4                   CALL M$TIME (GET_CURRENT);

  10359 14 000071   000210 630400 11                 EPPR0   GET_CURRENT
        14 000072   020004 713400                    CLIMB   8196
        14 000073   402000 401760                    pmme    nvectors=5
PL6.E3A0      #005=VOM$PROCESS File=VOM$MAILMAN.:VMB6TSI                         WED 08/20/97 15:34 Page:516

     3120    10360    4                   HEADTEMP.DELIVERY_DATE = CURRENT_TIME;

  10360 14 000074   000232 235000 11                 LDA     CURRENT_TIME
        14 000075   200005 755100                    STA     HEADTEMP+2,,AUTO

     3121    10361    4               END;

     3122    10362    3               J = VM_HEADER.DELIVERY_DATE; /* switch for addentry */

  10362 14 000076   000000 470400 xsym               LDP0    VM_HEADER$
        14 000077   000002 235100                    LDA     2,,PR0
        14 000100   200050 755100                    STA     J,,AUTO

     3123    10363    3               VM_HEADER.DELIVERY_DATE = HEADTEMP.DELIVERY_DATE;

  10363 14 000101   200005 236100                    LDQ     HEADTEMP+2,,AUTO
        14 000102   000002 756100                    STQ     2,,PR0

     3124    10364    3               CALL VOM$ADDENTRY_SORTED(PTR$,%NO#,TIME_HEAD$,DCBNUM(CREATE_DCB));

  10364 14 000103   000000 236007 xsym               LDQ     CREATE_DCB,DL
        14 000104   200062 756100                    STQ     ANOTHER_USER+1,,AUTO
        14 000105   200062 631500                    EPPR1   ANOTHER_USER+1,,AUTO
        14 000106   200067 451500                    STP1    ANOTHER_USER+6,,AUTO
        14 000107   000003 236000 15                 LDQ     3
        14 000110   200066 756100                    STQ     ANOTHER_USER+5,,AUTO
        14 000111   000004 236000 15                 LDQ     4
        14 000112   200065 756100                    STQ     ANOTHER_USER+4,,AUTO
        14 000113   200051 633500                    EPPR3   PTR$,,AUTO
        14 000114   200064 453500                    STP3    ANOTHER_USER+3,,AUTO
        14 000115   200064 630500                    EPPR0   ANOTHER_USER+3,,AUTO
        14 000116   000001 631400 15                 EPPR1   1
        14 000117   000000 701000 xent               TSX1    VOM$ADDENTRY_SORTED
        14 000120   000000 011000                    NOP     0

     3125    10365    3               VM_HEADER.DELIVERY_DATE = J;
PL6.E3A0      #005=VOM$PROCESS File=VOM$MAILMAN.:VMB6TSI                         WED 08/20/97 15:34 Page:517

  10365 14 000121   000000 470400 xsym               LDP0    VM_HEADER$
        14 000122   200050 235100                    LDA     J,,AUTO
        14 000123   000002 755100                    STA     2,,PR0

     3126    10366    3               CALL M$CLOSE (CLOSE_SEND) ALTRET(WHO_CARES);

  10366 14 000124   000134 630400 11                 EPPR0   CLOSE_SEND
        14 000125   450001 713400                    CLIMB   alt,close
        14 000126   406000 401760                    pmme    nvectors=13
        14 000127   000220 702000 14                 TSX2    CONTINUE
        14 000130   000220 710000 14                 TRA     CONTINUE

     3127    10367    3           CASE (%VO_SEND_FID#);

     3128    10368    3               CALL M$TIME(GET_CURRENT);

  10368 14 000131   000210 630400 11                 EPPR0   GET_CURRENT
        14 000132   020004 713400                    CLIMB   8196
        14 000133   402000 401760                    pmme    nvectors=5

     3129    10369    3               CALL BINCHAR(SEND_STRING, CURRENT_TIME);

  10369 14 000134   000232 235000 11                 LDA     CURRENT_TIME
        14 000135   000044 773000                    LRL     36
        14 000136   200062 757100                    STAQ    ANOTHER_USER+1,,AUTO
        14 000137   000100 301500                    BTD
        14 000140   200062 000010                    NDSC9   ANOTHER_USER+1,,AUTO     cn=0,s=lsgnf,sf=0,n=8
        14 000141   200053 030024                    NDSC9   SEND_STRING,,AUTO        cn=0,s=nosgn,sf=0,n=20

     3130    10370    3               CALL CONCAT(SEND_NAME.NAME#,':MESS',SEND_STRING);

  10370 14 000142   040000 100400                    MLR     fill='040'O
        14 000143   000042 000005 12                 ADSC9   HEADKEY+4                cn=0,n=5
        14 000144   000124 200005 11                 ADSC9   SEND_NAME                cn=1,n=5
        14 000145   040000 100500                    MLR     fill='040'O
        14 000146   200053 000024                    ADSC9   SEND_STRING,,AUTO        cn=0,n=20
PL6.E3A0      #005=VOM$PROCESS File=VOM$MAILMAN.:VMB6TSI                         WED 08/20/97 15:34 Page:518
        14 000147   000125 400024 11                 ADSC9   SEND_NAME+1              cn=2,n=20

     3131    10371    3               SEND_NAME.L# = SIZEC(SEND_NAME.NAME#);

  10371 14 000150   031000 236003                    LDQ     12800,DU
        14 000151   000124 552040 11                 STBQ    SEND_NAME,'40'O

     3132    10372    3               CREATE_SEND.V.FUN# = %CREATE#;

  10372 14 000152   003000 236007                    LDQ     1536,DL
        14 000153   000065 552010 11                 STBQ    CREATE_SEND+37,'10'O

     3133    10373    3               CALL M$OPEN(CREATE_SEND) ALTRET(BUILD_ERROR);

  10373 14 000154   000020 630400 11                 EPPR0   CREATE_SEND
        14 000155   450000 713400                    CLIMB   alt,open
        14 000156   410400 401760                    pmme    nvectors=18
        14 000157   000201 702000 14                 TSX2    BUILD_ERROR

     3134    10374    3               CALL M$CLOSE(CLOSE_SEND) ALTRET(BUILD_ERROR);

  10374 14 000160   000134 630400 11                 EPPR0   CLOSE_SEND
        14 000161   450001 713400                    CLIMB   alt,close
        14 000162   406000 401760                    pmme    nvectors=13
        14 000163   000201 702000 14                 TSX2    BUILD_ERROR

     3135    10375    3               VM_CGBUFFER.FILE_NAME = SEND_NAME;

  10375 14 000164   000000 100400                    MLR     fill='000'O
        14 000165   000124 000032 11                 ADSC9   SEND_NAME                cn=0,n=26
        14 000166   000022 000040 xsym               ADSC9   VM_CGBUFFER+18           cn=0,n=32

     3136    10376    3               VM_CGBUFFER.COMMAND = %VO_BUILD_SEND#;

  10376 14 000167   000006 235007                    LDA     6,DL
        14 000170   000002 755000 xsym               STA     VM_CGBUFFER+2

PL6.E3A0      #005=VOM$PROCESS File=VOM$MAILMAN.:VMB6TSI                         WED 08/20/97 15:34 Page:519
     3137    10377    3               OUTSTATION.STATION# = VM_CGBUFFER.STATION#;

  10377 14 000171   040000 100400                    MLR     fill='040'O
        14 000172   000000 000010 xsym               ADSC9   VM_CGBUFFER              cn=0,n=8
        14 000173   000000 000010 xsym               ADSC9   OUTSTATION               cn=0,n=8

     3138    10378    3               CALL M$WRITE(WRITE_MAILCG) ALTRET(BUILD_ERROR);

  10378 14 000174   000000 630400 xsym               EPPR0   WRITE_MAILCG
        14 000175   440001 713400                    CLIMB   alt,write
        14 000176   401400 401760                    pmme    nvectors=4
        14 000177   000201 702000 14                 TSX2    BUILD_ERROR

     3139    10379    4               DO WHILE(%NO#);

  10379 14 000200   000220 710000 14                 TRA     CONTINUE

  10378 14 000201                       BUILD_ERROR  null
     3140    10380    4   BUILD_ERROR:    ;
     3141    10381    4                   VM_CGBUFFER.COMMAND = %VO_CREATE_ERROR#;

  10381 14 000201   000007 235007                    LDA     7,DL
        14 000202   000002 755000 xsym               STA     VM_CGBUFFER+2

     3142    10382    4                   VM_CGBUFFER.ERROR = B$TCB.ALT$ -> B$ALT.ERR;

  10382 14 000203   000000 470400 xsym               LDP0    B$TCB$
        14 000204   000000 471500                    LDP1    0,,PR0
        14 000205   100102 236100                    LDQ     66,,PR1
        14 000206   000032 756000 xsym               STQ     VM_CGBUFFER+26

     3143    10383    4                   OUTSTATION.STATION# = VM_CGBUFFER.STATION#;

  10383 14 000207   040000 100400                    MLR     fill='040'O
        14 000210   000000 000010 xsym               ADSC9   VM_CGBUFFER              cn=0,n=8
        14 000211   000000 000010 xsym               ADSC9   OUTSTATION               cn=0,n=8

PL6.E3A0      #005=VOM$PROCESS File=VOM$MAILMAN.:VMB6TSI                         WED 08/20/97 15:34 Page:520
     3144    10384    5                   CALL M$WRITE(WRITE_MAILCG) WHENALTRETURN DO;

  10384 14 000212   000000 630400 xsym               EPPR0   WRITE_MAILCG
        14 000213   440001 713400                    CLIMB   alt,write
        14 000214   401400 401760                    pmme    nvectors=4
        14 000215   000217 702000 14                 TSX2    s:10386
        14 000216   000217 710000 14                 TRA     s:10386

     3145    10385    5                   END;

     3146    10386    4               END;             /* Do while */

  10386 14 000217   000220 710000 14                 TRA     CONTINUE

     3147    10387    3           CASE(ELSE);

     3148    10388                                 /* Send writes with VO_DUMMY to see if mailman is up */
     3149    10389    3           END;                   /* End do case */

  10387 14 000220                       CONTINUE     null
     3150    10390    2   CONTINUE: ;
     3151    10391    2       END;                       /* End not au event */

  10383 14 000220                       WHO_CARES    null
     3152    10392    1   WHO_CARES:;
     3153    10393    1       RETURN;

  10393 14 000220   000000 702200 xent               TSX2  ! X66_ARET

  10383 14 000221                       BAD_OPEN     null
     3154    10394
     3155    10395    1   BAD_OPEN:;
     3156    10396    1       CALL M$CLOSE (CLOSE_CREATE_REL) ALTRET(WHO_CARES);

  10396 14 000221   000000 630400 12                 EPPR0   CLOSE_CREATE_REL
        14 000222   450001 713400                    CLIMB   alt,close
        14 000223   406000 401760                    pmme    nvectors=13
PL6.E3A0      #005=VOM$PROCESS File=VOM$MAILMAN.:VMB6TSI                         WED 08/20/97 15:34 Page:521
        14 000224   000220 702000 14                 TSX2    CONTINUE

     3157    10397    1       GOTO CONTINUE;

  10397 14 000225   000220 710000 14                 TRA     CONTINUE

READ_MAILCG
 Sect OctLoc
  11     000   000005 777640   000010 006000   000000 177640   000000 006014    ................
  11     004   000043 777640   000000 006000   000000 177640   000000 006014    .#..............
  11     010   000000 000000   000000 000001   000000 000000   000000 000000    ................
  11     014   000000 000000   000000 000000                                    ........

ERROR
 Sect OctLoc
  11     016   000000 000000                                                    ....

CREATE_SEND
 Sect OctLoc
  11     020   000025 777640   000064 006000   000000 177640   000000 006014    .....4..........
  11     024   000000 177640   000000 006014   000006 377640   000124 006000    .............T..
  11     030   000000 177640   000000 006014   000003 777640   000112 006000    .............J..
  11     034   000005 777640   000116 006000   000000 177640   000000 006014    .....N..........
  11     040   000000 177640   000000 006014   000000 177640   000000 006014    ................
  11     044   000001 777640   000000 006000   000000 177640   000000 006014    ................
  11     050   000000 177640   000000 006014   000000 177640   000000 006014    ................
  11     064*  000000 400242   000000 003001   252525 002002   000040 252520    ............. ..
  11     070   000040 040040   000000 000000   000000 777777   000000 000000    .   ............
  11     074   000000 000000   000000 000000   000000 000000   000000 000000    ................
  11     100   251000 622000   000000 000000   000000 000000   111250 000000    ............I...
  11     104   040040 040040   000000 000000   000000 000000   000000 000000        ............
  11     110   000000 000000   ****** ******                                    ........

SEND_ACCESS
 Sect OctLoc
  11     112   000000 000003   012000 040040   040040 040040   040040 ******    ......        ..

PL6.E3A0      #005=VOM$PROCESS File=VOM$MAILMAN.:VMB6TSI                         WED 08/20/97 15:34 Page:522
SEND_ACSVEH
 Sect OctLoc
  11     116   000000 000005   740000 011123   105116 104137   124105 123124    .......SEND_TEST
  11     122   740000 004123   105116 104***                                    ...SEND.

SEND_NAME
 Sect OctLoc
  11     124   031040 040040   040040 040040   040040 040040   040040 040040    .
  11     130   040040 040040   040040 040040   040040 ******                              ..

CLOSE_SEND
 Sect OctLoc
  11     134   000003 777640   000166 006000   000000 177640   000000 006014    .....v..........
  11     140   000000 177640   000000 006014   000000 177640   000000 006014    ................
  11     164*  000000 177640   000000 006014   000000 000002   000000 000040    ...............
  11     170   000220 000000   000000 000000                                    ........

READHEAD
 Sect OctLoc
  11     172   000005 777640   000202 006000   000001 377640   000036 006000    ................
  11     176   000000 177640   000000 006014   000000 177640   000000 006014    ................
  11     202   000000 600000   000000 000000   000000 000000   000000 000000    ................
  11     206   000000 000000   000000 000000                                    ........

GET_CURRENT
 Sect OctLoc
  11     210   000001 777640   000222 006000   000000 177640   000000 006014    ................
  11     214   000000 177640   000000 006014   000000 177640   000000 006014    ................
  11     220   000000 777640   000232 006000   000004 000000   ****** ******    ................

RESET_XCON
 Sect OctLoc
  11     224   000001 777640   000230 006000   000000 177640   000000 006014    ................
  11     230   000000 000000   000000 000000                                    ........

CLOSE_CREATE_REL
 Sect OctLoc
PL6.E3A0      #005=VOM$PROCESS File=VOM$MAILMAN.:VMB6TSI                         WED 08/20/97 15:34 Page:523
  12     000   000003 777640   000032 006000   000000 177640   000000 006014    ................
  12     004   000000 177640   000000 006014   000000 177640   000000 006014    ................
  12     030*  000000 177640   000000 006014   000000 000001   000000 000040    ...............
  12     034   000220 000000   000000 000000                                    ........

HEADKEY
 Sect OctLoc
  12     036   005010 000000   000000 ******                                    ........

(unnamed)
 Sect OctLoc
  12     040   052101 125105   126040 040040   072115 105123   123040 040040    *AUEV   :MESS

(unnamed)
 Sect OctLoc
  15     000   000044 777640   000004 000000   000000 000000   000000 006000    .$..............
  15     004   000002 006000                                                    ....
     3158    10398
     3159    10399    1   END VOM$PROCESS;
     3160    10400        %EOD;

PL6.E3A0      #005=VOM$PROCESS File=VOM$MAILMAN.:VMB6TSI                         WED 08/20/97 15:34 Page:524
--  Include file information  --

   B_MACROS_C.:LIB_E05  is referenced.
   VM_DATA_R.:VMB6TOU  cannot be made into a system file and is referenced.
   VO_SUBS_C.:VMB6TOU  is referenced.
   CP_6_C.:LIB_E05  is referenced.
   CP_6.:LIB_E05  cannot be made into a system file and is referenced.
   VM_MACRO_C.:VMB6TOU  is referenced.
   VM_SUBS_C.:VMB6TOU  is referenced.
   VOM_DATA_R.:VMB6TOU  cannot be made into a system file and is referenced.
   CP_6_SUBS.:LIB_E05  is referenced.
   B_ERRORS_C.:LIB_E05  is referenced.
      No diagnostics issued in procedure VOM$PROCESS.
PL6.E3A0      #005=VOM$PROCESS File=VOM$MAILMAN.:VMB6TSI                         WED 08/20/97 15:34 Page:525

 **** Variables and constants ****

  ****  Section 011  Data  VOM$PROCESS

  ****  Scalars and arrays  ****
OctLoc.c.b A Datatyp(siz) R M Lvl/name                 OctLoc.c.b A Datatyp(siz) R M Lvl/name

   134-0-0/d STRC(1080)  r     1 CLOSE_SEND                20-0-0/d STRC(2088)  r     1 CREATE_SEND
   232-0-0/w UBIN        r     1 CURRENT_TIME              16-0-0/w STRC              1 ERROR
   210-0-0/d STRC(432)   r     1 GET_CURRENT              172-0-0/d STRC(504)   r     1 READHEAD
     0-0-0/d STRC(504)   r     1 READ_MAILCG              224-0-0/d STRC(216)   r     1 RESET_XCON
   112-0-0/w STRC(126)   r     1 SEND_ACCESS              116-0-0/w STRC(207)   r     1 SEND_ACSVEH
   124-0-0/c STRC(234)   r     1 SEND_NAME

  ****  Section 012 RoData VOM$PROCESS

  ****  Scalars and arrays  ****
OctLoc.c.b A Datatyp(siz) R M Lvl/name                 OctLoc.c.b A Datatyp(siz) R M Lvl/name

     0-0-0/d STRC(1080)  r     1 CLOSE_CREATE_REL          36-0-0/c STRC(54)    r     1 HEADKEY

  ****  Auto variables  ****

  ****  Scalars and arrays  ****
OctLoc.c.b A Datatyp(siz) R M Lvl/name                 OctLoc.c.b A Datatyp(siz) R M Lvl/name

    61-0-0/w BIT               1 ANOTHER_USER               3-0-0/w STRC(1332)  r     1 HEADTEMP
    52-0-0/w SBIN              1 I                         50-0-0/w UBIN        r     1 J
    51-0-0/w PTR         r     1 PTR$                      60-0-0/w PTR               1 SAVE$
    53-0-0/c CHAR(20)    r     1 SEND_STRING

  ****  SYMREF variables  ****

  ****  Scalars and arrays  ****
OctLoc.c.b A Datatyp(siz) R M Lvl/name                 OctLoc.c.b A Datatyp(siz) R M Lvl/name

     0-0-0/w PTR               1 B$JIT$                     0-0-0/w PTR         r     1 B$TCB$
PL6.E3A0      #005=VOM$PROCESS File=VOM$MAILMAN.:VMB6TSI                         WED 08/20/97 15:34 Page:526
     0-0-0/c ASTR(9)     r     1 ERRMSG_FID                 0-0-0/w PTR         r     1 INTERSYS$
     0-0-0/w PTR               1 INTERSYS_HEAD$             0-0-0/w UBIN              1 M$DO_NUM
     0-0-0/w UBIN              1 M$LO_NUM                   0-0-0/w UBIN              1 M$MAIL_CENTRAL_NUM
     0-0-0/w UBIN              1 M$MAIL_COMGROUP_NUM        0-0-0/w UBIN              1 M$MAIL_FILE_NUM
     0-0-0/w UBIN              1 M$MAIL_GLOBAL_NUM          0-0-0/w UBIN              1 M$ME_NUM
     0-0-0/w UBIN              1 M$NODE_NUM                 0-0-0/w UBIN              1 M$SI_NUM
     0-0-0/w UBIN              1 M$WORK_NUM                 0-0-0/c STRC(288)         1 MAIL_NAME
     0-0-0/w STRC(288)   r     1 OUTSTATION                 0-0-0/c CHAR(8)           1 STATION#
     0-0-0/w PTR         r     1 TIME$                      0-0-0/w PTR         r     1 TIME_HEAD$
     0-0-0/w PTR               1 VM_ADDLIST$                0-0-0/d VECT              1 VM_ADDLIST_
     0-0-0/w PTR               1 VM_ADDREC$                 0-0-0/d VECT              1 VM_ADDREC_
     0-0-0/c STRC(1296)  r     1 VM_CGBUFFER                0-0-0/w PTR               1 VM_COPY$
     0-0-0/d VECT              1 VM_COPY_                   0-0-0/w PTR               1 VM_ENCLLIST$
     0-0-0/d VECT              1 VM_ENCLLIST_               0-0-0/w PTR               1 VM_ENCLREC$
     0-0-0/d VECT              1 VM_ENCLREC_                0-0-0/c STRC(270)         1 VM_FORWARD_ENCL_NAME
     0-0-0/c STRC(270)         1 VM_FORWARD_FILE_NAME       0-0-0/c STRC(72)          1 VM_FORWARD_FILE_PASS
     0-0-0/w PTR         r     1 VM_HEADER$                 0-0-0/d VECT              1 VM_HEADER_
     0-0-0/d VECT              1 VM_HEADER_INIT_            0-0-0/w PTR               1 VM_INPUT$
     0-0-0/d VECT              1 VM_INPUT_                  0-0-0/c STRC(72)          1 VM_MAILCG_NAME
     0-0-0/w STRC(432)         1 VM_MAILCG_SETSTA           0-0-0/c STRC(72)    r     1 VM_MAIL_ACCT
     0-0-0/c STRC(54)          1 VM_NAME_MAP_NAME           0-0-0/w PTR               1 VM_PARSEAREA$
     0-0-0/d VECT              1 VM_PARSEAREA_              0-0-0/w PTR               1 VM_PROFILE$
     0-0-0/d VECT              1 VM_PROFILE_                0-0-0/w PTR               1 VM_SELECT$
     0-0-0/d VECT              1 VM_SELECT_                 0-0-0/c STRC(288)         1 VM_SEND_FILE_NAME
     0-0-0/c CHAR(8)           1 VM_SITENAME                0-0-0/w PTR               1 VM_WORK$
     0-0-0/d VECT              1 VM_WORK_                   0-0-0/w STRC(2880)  r     1 VO_BNWIO
     0-0-0/w UBIN              1 VO_BUSY_RETRY_MINUTES
     0-0-0/w UBIN              1 VO_HOG_LIMIT               0-0-0/c CHAR(8)           1 VO_INTERSYS_ACCT
     0-0-0/b BIT               1 VO_INTERSYS_ALLOWED        0-0-0/c CHAR(12)          1 VO_INTERSYS_EPASS
     0-0-0/c CHAR(8)           1 VO_INTERSYS_PASSWORD       0-0-0/c CHAR(8)           1 VO_INTERSYS_UNAME
     0-0-0/w UBIN              1 VO_MAILMAN_STARTUP_TIME
     0-0-0/w UBIN              1 VO_MAX_HOLD_HOURS          0-0-0/b BIT         r     1 VO_NEED_READ
     0-0-0/w UBIN              1 VO_PACKSET_RETRY_MINUTES
     0-0-0/b BIT         r     1 VO_PROCESS
     0-0-0/w UBIN              1 VO_RETRY_LIMIT_INTERSYSTEM
     0-0-0/d STRC(432)   r     1 WRITE_MAILCG

PL6.E3A0      #005=VOM$PROCESS File=VOM$MAILMAN.:VMB6TSI                         WED 08/20/97 15:34 Page:527
  ****  BASED and DCB variables  ****

  ****  Scalars and arrays  ****
OctLoc.c.b A Datatyp(siz) R M Lvl/name                 OctLoc.c.b A Datatyp(siz) R M Lvl/name

     0-0-0/w STRC(2448)  r     1 B$ALT                      0-0-0/w STRC(144)   r     1 B$TCB
     0-0-0N  NULL        r     1 CREATE_DCB                 0-0-0/w STRC(540)         1 INTERSYS_INFO
     0-0-0N  NULL        r     1 M$DO                       0-0-0N  NULL        r     1 M$LO
     0-0-0N  NULL        r     1 M$MAIL_CENTRAL             0-0-0N  NULL        r     1 M$MAIL_COMGROUP
     0-0-0N  NULL        r     1 M$MAIL_FILE                0-0-0N  NULL        r     1 M$MAIL_GLOBAL
     0-0-0N  NULL        r     1 M$ME                       0-0-0N  NULL        r     1 M$NODE
     0-0-0N  NULL        r     1 M$SI                       0-0-0N  NULL        r     1 M$UC
     0-0-0N  NULL        r     1 M$WORK                     0-0-0/w STRC(612)         1 TIME_TABLE
     0-0-0/w STRC(1332)  r     1 VM_HEADER                  0-0-0/c ASTR(9)     r     1 X$STRING


   Procedure VOM$PROCESS requires 150 words for executable code.
   Procedure VOM$PROCESS requires 56 words of local(AUTO) storage.
PL6.E3A0      #005=VOM$PROCESS File=VOM$MAILMAN.:VMB6TSI                         WED 08/20/97 15:34 Page:528
          *** CROSS REFERENCE LISTING ***
**     DENOTES     IDENTIFIER DEFINITION
<<                 IDENTIFIER'S VALUE SET
>>                 IDENTIFIER'S VALUE USED
<>                 IDENTIFIER SET AND/OR USED
--                 IDENTIFIER REFERENCED
PL6.E3A0      #005=VOM$PROCESS File=VOM$MAILMAN.:VMB6TSI                         WED 08/20/97 15:34 Page:529
          MINI XREF LISTING

B$ALT.CODE
      9561**DCL      9561--REDEF    9562--REDEF    9562--REDEF
B$ALT.ERR
      9562**DCL     10382>>ASSIGN
B$ALT.ERR.CODE
      9563**DCL     10348>>IF
B$ALT.ERR.ERR#
      9563**DCL      9563--REDEF
B$ALT.EVID
      9562**DCL      9562--REDEF    9562--REDEF
B$TCB.ALT$
      9556**DCL     10348>>IF      10382>>ASSIGN
B$TCB$
      9154**DCL      9556--IMP-PTR 10348>>IF      10382>>ASSIGN
BAD_OPEN
     10383**LABEL   10345--CALLALT 10348--GOTO
BUILD_ERROR
     10378**LABEL   10373--CALLALT 10374--CALLALT 10378--CALLALT
CLOSE_CREATE_REL
      9909**DCL     10396<>CALL
CLOSE_CREATE_REL.SN_
      9909**DCL      9909--REDEF
CLOSE_CREATE_REL.UTL_
      9910**DCL      9910--REDEF
CLOSE_CREATE_REL.V
      9914**DCL      9909--DCLINIT
CLOSE_CREATE_REL.V.EXPIRE#
      9924**DCL      9924--REDEF
CLOSE_CREATE_REL.V.TYPE#
      9922**DCL      9922--REDEF
CLOSE_CREATE_REL.V.XTNSIZE#
      9919**DCL      9919--REDEF    9921--REDEF
PL6.E3A0      #005=VOM$PROCESS File=VOM$MAILMAN.:VMB6TSI                         WED 08/20/97 15:34 Page:530
CLOSE_SEND
      9864**DCL     10366<>CALL    10374<>CALL
CLOSE_SEND.SN_
      9864**DCL      9864--REDEF
CLOSE_SEND.UTL_
      9865**DCL      9865--REDEF
CLOSE_SEND.V
      9869**DCL      9864--DCLINIT
CLOSE_SEND.V.EXPIRE#
      9879**DCL      9879--REDEF
CLOSE_SEND.V.TYPE#
      9877**DCL      9877--REDEF
CLOSE_SEND.V.XTNSIZE#
      9874**DCL      9874--REDEF    9876--REDEF
CONTINUE
     10387**LABEL   10397--GOTO
CREATE_DCB
     10308**DCL     10364<>CALL
CREATE_SEND
      9687**DCL     10345<>CALL    10373<>CALL
CREATE_SEND.ACSVEH_
      9689**DCL      9690--REDEF
CREATE_SEND.ALTKEYS_
      9695**DCL      9696--REDEF    9696--REDEF
CREATE_SEND.HDR_
      9694**DCL      9695--REDEF
CREATE_SEND.TAB_
      9693**DCL      9694--REDEF
CREATE_SEND.UHL_
      9687**DCL      9688--REDEF    9688--REDEF
CREATE_SEND.V
      9696**DCL      9687--DCLINIT
CREATE_SEND.V.FSN#
      9727**DCL      9727--REDEF    9727--REDEF
CREATE_SEND.V.FUN#
      9706**DCL     10344<<ASSIGN  10372<<ASSIGN
PL6.E3A0      #005=VOM$PROCESS File=VOM$MAILMAN.:VMB6TSI                         WED 08/20/97 15:34 Page:531
CREATE_SEND.WSN_
      9693**DCL      9693--REDEF
CURRENT_TIME
     10306**DCL     10286--DCLINIT 10360>>ASSIGN  10369>>CALLBLT
ERRMSG_FID.L#
      9222**DCL      9222--IMP-SIZ
E_XCON
     10340**LABEL   10338--CALLALT
GET_CURRENT
     10282**DCL     10359<>CALL    10368<>CALL
GET_CURRENT.V
     10286**DCL     10282--DCLINIT
HEADKEY
     10218**DCL     10245--DCLINIT 10246--DCLINIT
HEADTEMP
     10068**DCL     10346--ASSIGN
HEADTEMP.DELIVERY_DATE
     10073**DCL     10356>>IF      10360<<ASSIGN  10363>>ASSIGN
INTERSYS$
      8888**DCL      8893--IMP-PTR
J
     10307**DCL     10362<<ASSIGN  10365>>ASSIGN
M$CLOSE
      8699**DCL-ENT 10366--CALL    10374--CALL    10396--CALL
M$OPEN
      8699**DCL-ENT 10345--CALL    10373--CALL
M$READ
      8700**DCL-ENT 10347--CALL
M$TIME
      8766**DCL-ENT 10359--CALL    10368--CALL
M$WRITE
      8700**DCL-ENT 10378--CALL    10384--CALL
M$XCON
      8754**DCL-ENT 10338--CALL
M$XXX
      8711**DCL-ENT 10340--CALL
PL6.E3A0      #005=VOM$PROCESS File=VOM$MAILMAN.:VMB6TSI                         WED 08/20/97 15:34 Page:532
OUTSTATION.MSGIDXT
      9427**DCL      9430--REDEF
OUTSTATION.STATION#
      9421**DCL     10377<<ASSIGN  10383<<ASSIGN
PTR$
     10309**DCL     10364<>CALL
READHEAD
     10245**DCL     10347<>CALL
READHEAD.BUF_
     10247**DCL     10346<<ASSIGN
READHEAD.STATION_
     10248**DCL     10249--REDEF
READHEAD.V
     10249**DCL     10245--DCLINIT
READHEAD.V.DVBYTE.REREAD#
     10260**DCL     10260--REDEF
READHEAD.V.INDX#
     10258**DCL     10258--REDEF
READ_MAILCG.STATION_
      9536**DCL      9537--REDEF
READ_MAILCG.V
      9537**DCL      9533--DCLINIT
READ_MAILCG.V.DVBYTE.REREAD#
      9548**DCL      9548--REDEF
READ_MAILCG.V.INDX#
      9546**DCL      9546--REDEF
RESET_XCON
     10302**DCL     10338<>CALL
RESET_XCON.V
     10303**DCL     10302--DCLINIT
SEND_ACCESS
      9743**DCL      9689--DCLINIT
SEND_ACCESS.Q
      9744**DCL      9743--DCLINIT
SEND_ACSVEH
      9775**DCL      9690--DCLINIT
PL6.E3A0      #005=VOM$PROCESS File=VOM$MAILMAN.:VMB6TSI                         WED 08/20/97 15:34 Page:533
SEND_ACSVEH.Q
      9776**DCL      9775--DCLINIT
SEND_NAME
      9838**DCL      9688--DCLINIT 10343<<ASSIGN  10375>>ASSIGN
SEND_NAME.L#
      9838**DCL     10371<<ASSIGN
SEND_NAME.NAME#
      9838**DCL     10370<<CALLBLT 10371--ASSIGN
SEND_STRING
     10311**DCL     10369<<CALLBLT 10370>>CALLBLT
TIME$
      8887**DCL      8891--IMP-PTR
TIME_HEAD$
      8887**DCL     10364<>CALL
VM_CGBUFFER
      8781**DCL      9535--DCLINIT  9536--DCLINIT
VM_CGBUFFER.COMMAND
      8783**DCL     10335>>DOCASE  10376<<ASSIGN  10381<<ASSIGN
VM_CGBUFFER.ERROR
      8793**DCL     10382<<ASSIGN
VM_CGBUFFER.FILE_NAME
      8790**DCL     10343>>ASSIGN  10375<<ASSIGN
VM_CGBUFFER.STATION#
      8782**DCL     10377>>ASSIGN  10383>>ASSIGN
VM_HEADER.DELIVERY_DATE
      9944**DCL     10362>>ASSIGN  10363<<ASSIGN  10365<<ASSIGN
VM_HEADER$
      9072**DCL      9939--IMP-PTR 10362>>ASSIGN  10363>>ASSIGN  10365>>ASSIGN
VM_MAIL_ACCT
      9168**DCL      9692--DCLINIT
VOM$ADDENTRY_SORTED
     10314**DCL-ENT 10364--CALL
VO_BNWIO.CGPARM.MSGIDXT
      8836**DCL      8839--REDEF
VO_BNWIO.CGPARM.MSGTYP#
      8830**DCL     10329>>IF
PL6.E3A0      #005=VOM$PROCESS File=VOM$MAILMAN.:VMB6TSI                         WED 08/20/97 15:34 Page:534
VO_BNWIO.CODE
      8805**DCL      8805--REDEF    8806--REDEF    8806--REDEF
VO_BNWIO.ERR.ERR#
      8807**DCL      8807--REDEF
VO_BNWIO.EVID
      8806**DCL      8806--REDEF    8806--REDEF
VO_NEED_READ
     10322**DCL     10325<<ASSIGN
VO_PROCESS
     10321**DCL     10324<<ASSIGN
WHO_CARES
     10383**LABEL   10366--CALLALT 10396--CALLALT
WRITE_MAILCG
      9498**DCL     10378<>CALL    10384<>CALL
WRITE_MAILCG.STATION_
      9500**DCL      9500--REDEF
WRITE_MAILCG.V.DVBYTE.VFC#
      9507**DCL      9507--REDEF
X$STRING.SIZ
      9068**DCL      9069--IMP-SIZ

PL6.E3A0      #006=VOM$ADDENTRY File=VOM$MAILMAN.:VMB6TSI                        WED 08/20/97 15:35 Page:535
     3161        1        /*T***********************************************************/
     3162        2        /*T*                                                         */
     3163        3        /*T* Copyright (c) Bull HN Information Systems Inc., 1997    */
     3164        4        /*T*                                                         */
     3165        5        /*T***********************************************************/
     3166        6        /*X* DMC,PLM=4,IND=4,CTI=2,DTI=0,ENI=0,ECI=0,CSI=0,DCI=4 */
     3167        7        VOM$ADDENTRY: PROC (PTR$, LOGON_FLAG, CHAIN$, DCB#);
     3168        8
     3169        9          %INCLUDE VOM_DATA_R;                  /* Also includes CP_6 */
     3170     7229          %INCLUDE CP_6_SUBS;
     3171     7769          %INCLUDE VM_DATA_R;
     3172     8200          %INCLUDE VO_SUBS_C;
     3173     8251          %INCLUDE B_ERRORS_C;
     3174     9378          %F$DCB;
     3175     9435            %VM_HEADER;
     3176     9564
     3177     9565    1   DCL DCB# UBIN;
     3178     9566    1   DCL PRIOR$ PTR;
     3179     9567    1   DCL NEXT$  PTR;
     3180     9568    1   DCL X$ PTR;
     3181     9569    1   DCL PTR$ PTR;
     3182     9570    1   DCL NEW$ PTR;
     3183     9571    1   DCL LINK1$ PTR;
     3184     9572    1   DCL LINK2$ PTR;
     3185     9573    1   DCL CHAIN$ PTR;
     3186     9574    1   DCL VMA$ENLARGE_SEGMENT ENTRY(2) ALTRET;
     3187     9575    1   DCL FREE$ PTR SYMREF;
     3188     9576    1   DCL SEG$ PTR SYMREF;
     3189     9577    1   DCL MAX$ PTR SYMREF;
     3190     9578    1   DCL SAVEN$ PTR;
     3191     9579    1   DCL SAVEP$ PTR;
     3192     9580    1   DCL LOGON_FLAG BIT(1);
     3193     9581    1   DCL 1 STR BASED,
     3194     9582    1         2 NEXT$ PTR UNAL,
     3195     9583    1         2 PRIOR$ PTR UNAL,
     3196     9584    1         2 SORT_VALUE UBIN WORD UNAL;
     3197     9585
PL6.E3A0      #006=VOM$ADDENTRY File=VOM$MAILMAN.:VMB6TSI                        WED 08/20/97 15:35 Page:536
     3198     9586    1   DCL CURR$ PTR ALIGNED;
     3199     9587
     3200     9588    1       IF FREE$ = ADDR(NIL) THEN
     3201     9589    2       DO;
     3202     9590    2           CURR$ = SEG$;
     3203     9591    2           SEG$ = PINCRW(SEG$, SIZEW(TIME_TABLE));
     3204     9592    2           SEG$->STR.NEXT$ = ADDR(NIL);
     3205     9593    2           IF PINCRC(SEG$, SIZEC(TIME_TABLE)) >= MAX$
     3206     9594    2           THEN
     3207     9595    3           DO;
     3208     9596    3               CALL VMA$ENLARGE_SEGMENT(VM_INPUT_,1024) ALTRET(NO_MEMORY);
     3209     9597    3               MAX$ = PINCRW(MAX$, 1024);
     3210     9598
     3211     9599    3           END;
     3212     9600    2       END;
     3213     9601    1       ELSE
     3214     9602    2       DO;
     3215     9603    2           CURR$ = FREE$;
     3216     9604    2           FREE$ = CURR$->TIME_TABLE.NEXT$;
     3217     9605    2       END;
     3218     9606    1       IF LOGON_FLAG THEN GOTO CONT_ENTRY;
     3219     9607
     3220     9608
     3221     9609    1       IF CHAIN$ = ADDR(NIL)
     3222     9610    1       THEN
     3223     9611    2       DO;
     3224     9612    2           CURR$ -> TIME_TABLE.PRIOR$ = ADDR(NIL);
     3225     9613    2           CURR$ -> TIME_TABLE.NEXT$ = ADDR(NIL);
     3226     9614    2           CHAIN$ = CURR$;
     3227     9615    2           GOTO CONT_ENTRY;
     3228     9616    2       END;
     3229     9617        /*
     3230     9618             LINK1$ -> node with value just larger than desired.
     3231     9619             LINK2$ -> node with value just smaller than deisred.
     3232     9620        */
     3233     9621    1       LINK1$ = CHAIN$;                  /* Start at head of chain */
     3234     9622    1       LINK2$ = ADDR(NIL);
PL6.E3A0      #006=VOM$ADDENTRY File=VOM$MAILMAN.:VMB6TSI                        WED 08/20/97 15:35 Page:537
     3235     9623        /*
     3236     9624             ***** Go down chain ...
     3237     9625        */
     3238     9626    2       DO WHILE (LINK1$ ~= ADDR(NIL));
     3239     9627    2           LINK2$ = LINK1$;
     3240     9628    2           LINK1$ = LINK1$ -> TIME_TABLE.NEXT$;
     3241     9629    2       END;
     3242     9630    1       CURR$ -> TIME_TABLE.NEXT$ = LINK1$;
     3243     9631    1       CURR$ -> TIME_TABLE.PRIOR$ = LINK2$;
     3244     9632    1       IF LINK1$ ~= ADDR(NIL)
     3245     9633    1       THEN
     3246     9634    1           LINK1$ -> TIME_TABLE.PRIOR$ = CURR$;
     3247     9635    1       IF LINK2$ ~= ADDR(NIL)
     3248     9636    1       THEN
     3249     9637    1           LINK2$ -> TIME_TABLE.NEXT$ = CURR$;
     3250     9638    1   CONT_ENTRY:;
     3251     9639    1       PTR$ = CURR$;
     3252     9640    1       RETURN;
     3253     9641    1   NO_MEMORY: ;
     3254     9642    1       RETURN;
     3255     9643        %EJECT;
PL6.E3A0      #006=VOM$ADDENTRY File=VOM$MAILMAN.:VMB6TSI                        WED 08/20/97 15:35 Page:538
     3256     9644    1   VOM$ADDENTRY_SORTED: ENTRY (PTR$, LOGON_FLAG, CHAIN$, DCB#);
     3257     9645    1       IF FREE$ = ADDR(NIL) THEN
     3258     9646    2       DO;
     3259     9647    2           CURR$ = SEG$;
     3260     9648    2           SEG$ = PINCRW(SEG$, SIZEW(TIME_TABLE));
     3261     9649    2           SEG$->STR.NEXT$ = ADDR(NIL);
     3262     9650    2           IF PINCRC(SEG$, SIZEC(TIME_TABLE)) >= MAX$
     3263     9651    2           THEN
     3264     9652    3           DO;
     3265     9653    3               CALL VMA$ENLARGE_SEGMENT(VM_INPUT_,1024) ALTRET(NO_MEMORY);
     3266     9654    3               MAX$ = PINCRW(MAX$, 1024);
     3267     9655
     3268     9656    3           END;
     3269     9657    2       END;
     3270     9658    1       ELSE
     3271     9659    2       DO;
     3272     9660    2           CURR$ = FREE$;
     3273     9661    2           FREE$ = CURR$->TIME_TABLE.NEXT$;
     3274     9662    2       END;
     3275     9663    1       IF CHAIN$ = ADDR(NIL)
     3276     9664    1       THEN
     3277     9665    2       DO;
     3278     9666    2           CURR$ -> TIME_TABLE.PRIOR$ = ADDR(NIL);
     3279     9667    2           CURR$ -> TIME_TABLE.NEXT$ = ADDR(NIL);
     3280     9668    2           CHAIN$ = CURR$;
     3281     9669    2           GOTO INIT_TIME_INFO;
     3282     9670    2       END;
     3283     9671        /*
     3284     9672             ***** New head ?
     3285     9673        */
     3286     9674    1       IF VM_HEADER.DELIVERY_DATE < CHAIN$ -> TIME_TABLE.TSTAMP
     3287     9675    1       THEN                            /* Yes, replace */
     3288     9676    2       DO;
     3289     9677    2           CURR$ -> TIME_TABLE.PRIOR$ = ADDR(NIL);
     3290     9678    2           CURR$ -> TIME_TABLE.NEXT$ = CHAIN$;
     3291     9679    2           CHAIN$ -> TIME_TABLE.PRIOR$ = CURR$;
     3292     9680    2           CHAIN$ = CURR$;
PL6.E3A0      #006=VOM$ADDENTRY File=VOM$MAILMAN.:VMB6TSI                        WED 08/20/97 15:35 Page:539
     3293     9681    2           GOTO INIT_TIME_INFO;
     3294     9682    2       END;
     3295     9683        /*
     3296     9684             LINK1$ -> node with value just larger than desired.
     3297     9685             LINK2$ -> node with value just smaller than deisred.
     3298     9686        */
     3299     9687    1       LINK1$ = CHAIN$;                  /* Start at head of chain */
     3300     9688    1       LINK2$ = ADDR(NIL);
     3301     9689        /*
     3302     9690             ***** Go down chain ...
     3303     9691        */
     3304     9692    2       DO WHILE (LINK1$ ~= ADDR(NIL));
     3305     9693    2           IF LINK1$ -> TIME_TABLE.TSTAMP >
     3306     9694    2             VM_HEADER.DELIVERY_DATE
     3307     9695    2           THEN
     3308     9696    2               GOTO FOUND_IT;
     3309     9697    2           LINK2$ = LINK1$;
     3310     9698    2           LINK1$ = LINK1$ -> TIME_TABLE.NEXT$;
     3311     9699    2       END;
     3312     9700    1   FOUND_IT:
     3313     9701    1       CURR$ -> TIME_TABLE.NEXT$ = LINK1$;
     3314     9702    1       CURR$ -> TIME_TABLE.PRIOR$ = LINK2$;
     3315     9703    1       IF LINK1$ ~= ADDR(NIL)
     3316     9704    1       THEN
     3317     9705    1           LINK1$ -> TIME_TABLE.PRIOR$ = CURR$;
     3318     9706    1       IF LINK2$ ~= ADDR(NIL)
     3319     9707    1       THEN
     3320     9708    1           LINK2$ -> TIME_TABLE.NEXT$ = CURR$;
     3321     9709        /*
     3322     9710             ***** TIME_TABLE init.
     3323     9711        */
     3324     9712    1   INIT_TIME_INFO:
     3325     9713    1       PTR$ = CURR$;
     3326     9714    1       PTR$ -> TIME_TABLE.NAME = DCBADDR(DCB#)->F$DCB.NAME#;
     3327     9715    1       PTR$ -> TIME_TABLE.TSTAMP = VM_HEADER.DELIVERY_DATE;
     3328     9716    1       PTR$ -> TIME_TABLE.COUNT = 0;
     3329     9717    1       GOTO CONT_ENTRY;
PL6.E3A0      #006=VOM$ADDENTRY File=VOM$MAILMAN.:VMB6TSI                        WED 08/20/97 15:35 Page:540
     3330     9718        %EJECT;
PL6.E3A0      #006=VOM$ADDENTRY File=VOM$MAILMAN.:VMB6TSI                        WED 08/20/97 15:35 Page:541
     3331     9719    1   VOM$DELENTRY: ENTRY (PTR$, LOGON_FLAG, CHAIN$);
     3332     9720
     3333     9721    1       SAVEN$ = PTR$->STR.NEXT$;
     3334     9722    1       SAVEP$ = PTR$->STR.PRIOR$;
     3335     9723    1       IF SAVEN$ ~= ADDR(NIL) THEN
     3336     9724    1           SAVEN$->STR.PRIOR$ = SAVEP$;
     3337     9725    1       IF SAVEP$ ~= ADDR(NIL) THEN
     3338     9726    1           SAVEP$->STR.NEXT$ = SAVEN$;
     3339     9727    1       IF (SAVEP$ = ADDR(NIL)) AND
     3340     9728    1         (SAVEN$ = ADDR(NIL)) THEN CHAIN$ = ADDR(NIL);
     3341     9729
     3342     9730    1       PTR$->STR.NEXT$ = FREE$;
     3343     9731    1       FREE$ = PTR$;
     3344     9732    1       IF CHAIN$ = PTR$ THEN
     3345     9733    1           CHAIN$ = SAVEN$;
     3346     9734
     3347     9735    1       RETURN;
     3348     9736    1   END VOM$ADDENTRY;

PL6.E3A0      #006=VOM$ADDENTRY File=VOM$MAILMAN.:VMB6TSI                        WED 08/20/97 15:35 Page:542
--  Include file information  --

   B_ERRORS_C.:LIB_E05  is referenced.
   VO_SUBS_C.:VMB6TOU  is referenced.
   B_MACROS_C.:LIB_E05  is referenced.
   VM_DATA_R.:VMB6TOU  cannot be made into a system file and is referenced.
   CP_6_SUBS.:LIB_E05  is referenced.
   CP_6_C.:LIB_E05  is referenced.
   CP_6.:LIB_E05  cannot be made into a system file and is referenced.
   VM_MACRO_C.:VMB6TOU  is referenced.
   VM_SUBS_C.:VMB6TOU  is referenced.
   VOM_DATA_R.:VMB6TOU  cannot be made into a system file and is referenced.
      No diagnostics issued in procedure VOM$ADDENTRY.

   Procedure VOM$ADDENTRY requires 237 words for executable code.
   Procedure VOM$ADDENTRY requires 18 words of local(AUTO) storage.

    No errors detected in file VOM$MAILMAN.:VMB6TSI    .

PL6.E3A0      #006=VOM$ADDENTRY File=VOM$MAILMAN.:VMB6TSI                        WED 08/20/97 15:35 Page:543

 Object Unit name= VOM$ADDENTRY                               File name= VOM$MAILMAN.:VMB6TOU
 UTS= AUG 20 '97 15:35:32.88 WED                              Compiler= PL-6/E31         Sev=      00
 SharedLib= :SHARED_SYSTEM                                    Alt SharedLib=


    ****  Control sections  ****

 Sect   Type Bound  Init  Size OctSiz  Section name(segment info)
    0   DCB   even  none     0      0  M$UC
    1   DCB   even  none     0      0  M$MAIL_FILE
    2   DCB   even  none     0      0  M$MAIL_CENTRAL
    3   DCB   even  none     0      0  M$MAIL_GLOBAL
    4   DCB   even  none     0      0  M$WORK
    5   DCB   even  none     0      0  M$MAIL_COMGROUP
    6   DCB   even  none     0      0  M$DO
    7   DCB   even  none     0      0  M$LO
    8   DCB   even  none     0      0  M$ME
    9   DCB   even  none     0      0  M$NODE
   10   DCB   even  none     0      0  M$SI
   11   Proc  even  none   237    355  VOM$ADDENTRY
   12  RoData even  none     7      7  VOM$ADDENTRY

    ****  Entry defs  ****

                              Check   Calling
                             calling  sequence
  Sect OctLoc Primary Altret sequence   type   Parms  Name
    11      0   yes            yes      Std        4  VOM$ADDENTRY
    11    120                  yes      Std        4  VOM$ADDENTRY_SORTED
    11    300                  yes      Std        3  VOM$DELENTRY
PL6.E3A0      #006=VOM$ADDENTRY File=VOM$MAILMAN.:VMB6TSI                        WED 08/20/97 15:35 Page:544

  ****  Entry refs  ****

         Check        Calling
        calling       sequence
Altret sequence SRef   type   Args  Name
 yes     yes           Std       2 VMA$ENLARGE_SEGMENT
                       nStd      0 X66_AUTO_4
                       nStd      0 X66_ARET

  ****  Data refs  ****

  Flags:  r = read only, s = secondary
Flgs Name                             Flgs Name                             Flgs Name
     M$UC                                  VM_CGBUFFER                           VO_BNWIO
     STATION#                              VO_INTERSYS_ALLOWED                   TIME_HEAD$
     TIME$                                 INTERSYS_HEAD$                        INTERSYS$
r    VO_BUSY_RETRY_MINUTES            r    VO_PACKSET_RETRY_MINUTES         r    VO_MAX_HOLD_HOURS
r    VO_HOG_LIMIT                          VO_MAILMAN_STARTUP_TIME               VO_INTERSYS_PASSWORD
     VO_INTERSYS_EPASS                     VO_INTERSYS_ACCT                      VO_INTERSYS_UNAME
     VO_RETRY_LIMIT_INTERSYSTEM       r    VM_HEADER$                       r    VM_PROFILE$
r    VM_ADDLIST$                      r    VM_ADDREC$                       r    VM_WORK$
r    VM_SELECT$                       r    VM_PARSEAREA$                    r    VM_INPUT$
r    VM_COPY$                              VM_ENCLLIST$                          VM_ENCLREC$
     VM_HEADER_                            VM_HEADER_INIT_                       VM_PROFILE_
     VM_ADDLIST_                           VM_ADDREC_                            VM_WORK_
     VM_SELECT_                            VM_PARSEAREA_                         VM_INPUT_
     VM_COPY_                              VM_ENCLLIST_                          VM_ENCLREC_
     M$MAIL_FILE                           M$MAIL_CENTRAL                        M$MAIL_GLOBAL
     M$WORK                                M$MAIL_COMGROUP                       M$DO
     M$LO                                  M$ME                                  M$NODE
     M$SI                                  M$MAIL_FILE_NUM                       M$MAIL_CENTRAL_NUM
     M$MAIL_GLOBAL_NUM                     M$WORK_NUM                            M$MAIL_COMGROUP_NUM
     M$DO_NUM                              M$ME_NUM                              M$LO_NUM
     M$SI_NUM                              M$NODE_NUM                       r    B$JIT$
r    B$TCB$                                VM_MAIL_ACCT                          VM_NAME_MAP_NAME
     ERRMSG_FID                            VM_SEND_FILE_NAME                     VM_FORWARD_FILE_NAME
     VM_FORWARD_ENCL_NAME                  VM_FORWARD_FILE_PASS                  VM_MAILCG_NAME
PL6.E3A0      #006=VOM$ADDENTRY File=VOM$MAILMAN.:VMB6TSI                        WED 08/20/97 15:35 Page:545
     VM_SITENAME                           VM_MAILCG_SETSTA                      FREE$
     SEG$                                  MAX$

  ****  Segment refs  ****

  Flags:  r = read only, s = secondary
Flgs Name                             Flgs Name                             Flgs Name
     NULLSID                               ROSID                                 ISSID
PL6.E3A0      #006=VOM$ADDENTRY File=VOM$MAILMAN.:VMB6TSI                        WED 08/20/97 15:35 Page:546


     3161        1        /*T***********************************************************/
     3162        2        /*T*                                                         */
     3163        3        /*T* Copyright (c) Bull HN Information Systems Inc., 1997    */
     3164        4        /*T*                                                         */
     3165        5        /*T***********************************************************/
     3166        6        /*X* DMC,PLM=4,IND=4,CTI=2,DTI=0,ENI=0,ECI=0,CSI=0,DCI=4 */
     3167        7        VOM$ADDENTRY: PROC (PTR$, LOGON_FLAG, CHAIN$, DCB#);

      7 11 000000   000000 700200 xent  VOM$ADDENTRY TSX0  ! X66_AUTO_4
        11 000001   000022 000004                    ZERO    18,4

     3168        8
     3169        9          %INCLUDE VOM_DATA_R;                  /* Also includes CP_6 */
     3170     7229          %INCLUDE CP_6_SUBS;
     3171     7769          %INCLUDE VM_DATA_R;
     3172     8200          %INCLUDE VO_SUBS_C;
     3173     8251          %INCLUDE B_ERRORS_C;
     3174     9378          %F$DCB;
     3175     9435            %VM_HEADER;
     3176     9564
     3177     9565    1   DCL DCB# UBIN;
     3178     9566    1   DCL PRIOR$ PTR;
     3179     9567    1   DCL NEXT$  PTR;
     3180     9568    1   DCL X$ PTR;
     3181     9569    1   DCL PTR$ PTR;
     3182     9570    1   DCL NEW$ PTR;
     3183     9571    1   DCL LINK1$ PTR;
     3184     9572    1   DCL LINK2$ PTR;
     3185     9573    1   DCL CHAIN$ PTR;
     3186     9574    1   DCL VMA$ENLARGE_SEGMENT ENTRY(2) ALTRET;
     3187     9575    1   DCL FREE$ PTR SYMREF;
     3188     9576    1   DCL SEG$ PTR SYMREF;
     3189     9577    1   DCL MAX$ PTR SYMREF;
     3190     9578    1   DCL SAVEN$ PTR;
     3191     9579    1   DCL SAVEP$ PTR;
     3192     9580    1   DCL LOGON_FLAG BIT(1);
PL6.E3A0      #006=VOM$ADDENTRY File=VOM$MAILMAN.:VMB6TSI                        WED 08/20/97 15:35 Page:547
     3193     9581    1   DCL 1 STR BASED,
     3194     9582    1         2 NEXT$ PTR UNAL,
     3195     9583    1         2 PRIOR$ PTR UNAL,
     3196     9584    1         2 SORT_VALUE UBIN WORD UNAL;
     3197     9585
     3198     9586    1   DCL CURR$ PTR ALIGNED;
     3199     9587
     3200     9588    1       IF FREE$ = ADDR(NIL) THEN

   9588 11 000002   000000 236000 xsym               LDQ     FREE$
        11 000003   000000 116000 12                 CMPQ    0
        11 000004   000033 601000 11                 TNZ     s:9603

     3201     9589    2       DO;

     3202     9590    2           CURR$ = SEG$;

   9590 11 000005   000000 236000 xsym               LDQ     SEG$
        11 000006   200017 756100                    STQ     CURR$,,AUTO

     3203     9591    2           SEG$ = PINCRW(SEG$, SIZEW(TIME_TABLE));

   9591 11 000007   000021 036003                    ADLQ    17,DU
        11 000010   000000 756000 xsym               STQ     SEG$

     3204     9592    2           SEG$->STR.NEXT$ = ADDR(NIL);

   9592 11 000011   000000 236000 12                 LDQ     0
        11 000012   200020 756100                    STQ     CURR$+1,,AUTO
        11 000013   000000 470400 xsym               LDP0    SEG$
        11 000014   003100 060500                    CSL     bolr='003'O
        11 000015   200020 000044                    BDSC    CURR$+1,,AUTO            by=0,bit=0,n=36
        11 000016   000000 000044                    BDSC    0,,PR0                   by=0,bit=0,n=36

     3205     9593    2           IF PINCRC(SEG$, SIZEC(TIME_TABLE)) >= MAX$

   9593 11 000017   000000 236000 xsym               LDQ     SEG$
PL6.E3A0      #006=VOM$ADDENTRY File=VOM$MAILMAN.:VMB6TSI                        WED 08/20/97 15:35 Page:548
        11 000020   000021 036003                    ADLQ    17,DU
        11 000021   000000 116000 xsym               CMPQ    MAX$
        11 000022   000037 602000 11                 TNC     s:9606

     3206     9594    2           THEN
     3207     9595    3           DO;

     3208     9596    3               CALL VMA$ENLARGE_SEGMENT(VM_INPUT_,1024) ALTRET(NO_MEMORY);

   9596 11 000023   000003 630400 12                 EPPR0   3
        11 000024   000001 631400 12                 EPPR1   1
        11 000025   000000 701000 xent               TSX1    VMA$ENLARGE_SEGMENT
        11 000026   000117 702000 11                 TSX2    NO_MEMORY

     3209     9597    3               MAX$ = PINCRW(MAX$, 1024);

   9597 11 000027   000000 236000 xsym               LDQ     MAX$
        11 000030   002000 036003                    ADLQ    1024,DU
        11 000031   000000 756000 xsym               STQ     MAX$

     3210     9598
     3211     9599    3           END;

     3212     9600    2       END;

   9600 11 000032   000037 710000 11                 TRA     s:9606

     3213     9601    1       ELSE
     3214     9602    2       DO;

     3215     9603    2           CURR$ = FREE$;

   9603 11 000033   200017 756100                    STQ     CURR$,,AUTO

     3216     9604    2           FREE$ = CURR$->TIME_TABLE.NEXT$;

   9604 11 000034   200017 470500                    LDP0    CURR$,,AUTO
PL6.E3A0      #006=VOM$ADDENTRY File=VOM$MAILMAN.:VMB6TSI                        WED 08/20/97 15:35 Page:549
        11 000035   000000 236100                    LDQ     0,,PR0
        11 000036   000000 756000 xsym               STQ     FREE$

     3217     9605    2       END;

     3218     9606    1       IF LOGON_FLAG THEN GOTO CONT_ENTRY;

   9606 11 000037   200004 470500                    LDP0    @LOGON_FLAG,,AUTO
        11 000040   000000 066500                    CMPB    filb='1'B
        11 000041   000000 000001                    BDSC    0,,PR0                   by=0,bit=0,n=1
        11 000042   000005 000022 12                 BDSC    5                        by=0,bit=0,n=18
        11 000043   000113 601000 11                 TNZ     CONT_ENTRY

     3219     9607
     3220     9608
     3221     9609    1       IF CHAIN$ = ADDR(NIL)

   9609 11 000044   200005 471500                    LDP1    @CHAIN$,,AUTO
        11 000045   100000 236100                    LDQ     0,,PR1
        11 000046   000000 116000 12                 CMPQ    0
        11 000047   000057 601000 11                 TNZ     s:9621

     3222     9610    1       THEN
     3223     9611    2       DO;

     3224     9612    2           CURR$ -> TIME_TABLE.PRIOR$ = ADDR(NIL);

   9612 11 000050   000000 236000 12                 LDQ     0
        11 000051   200017 473500                    LDP3    CURR$,,AUTO
        11 000052   300001 756100                    STQ     1,,PR3

     3225     9613    2           CURR$ -> TIME_TABLE.NEXT$ = ADDR(NIL);

   9613 11 000053   300000 756100                    STQ     0,,PR3

     3226     9614    2           CHAIN$ = CURR$;

PL6.E3A0      #006=VOM$ADDENTRY File=VOM$MAILMAN.:VMB6TSI                        WED 08/20/97 15:35 Page:550
   9614 11 000054   200017 236100                    LDQ     CURR$,,AUTO
        11 000055   100000 756100                    STQ     0,,PR1

     3227     9615    2           GOTO CONT_ENTRY;

   9615 11 000056   000113 710000 11                 TRA     CONT_ENTRY

     3228     9616    2       END;
     3229     9617        /*
     3230     9618             LINK1$ -> node with value just larger than desired.
     3231     9619             LINK2$ -> node with value just smaller than deisred.
     3232     9620        */
     3233     9621    1       LINK1$ = CHAIN$;                  /* Start at head of chain */

   9621 11 000057   200013 756100                    STQ     LINK1$,,AUTO

     3234     9622    1       LINK2$ = ADDR(NIL);

   9622 11 000060   000000 236000 12                 LDQ     0
        11 000061   200014 756100                    STQ     LINK2$,,AUTO

     3235     9623        /*
     3236     9624             ***** Go down chain ...
     3237     9625        */
     3238     9626    2       DO WHILE (LINK1$ ~= ADDR(NIL));

   9626 11 000062   000070 710000 11                 TRA     s:9629

     3239     9627    2           LINK2$ = LINK1$;

   9627 11 000063   200013 236100                    LDQ     LINK1$,,AUTO
        11 000064   200014 756100                    STQ     LINK2$,,AUTO

     3240     9628    2           LINK1$ = LINK1$ -> TIME_TABLE.NEXT$;

   9628 11 000065   200013 470500                    LDP0    LINK1$,,AUTO
        11 000066   000000 236100                    LDQ     0,,PR0
PL6.E3A0      #006=VOM$ADDENTRY File=VOM$MAILMAN.:VMB6TSI                        WED 08/20/97 15:35 Page:551
        11 000067   200013 756100                    STQ     LINK1$,,AUTO

     3241     9629    2       END;

   9629 11 000070   200013 236100                    LDQ     LINK1$,,AUTO
        11 000071   000000 116000 12                 CMPQ    0
        11 000072   000063 601000 11                 TNZ     s:9627

     3242     9630    1       CURR$ -> TIME_TABLE.NEXT$ = LINK1$;

   9630 11 000073   200017 470500                    LDP0    CURR$,,AUTO
        11 000074   000000 756100                    STQ     0,,PR0

     3243     9631    1       CURR$ -> TIME_TABLE.PRIOR$ = LINK2$;

   9631 11 000075   200014 236100                    LDQ     LINK2$,,AUTO
        11 000076   000001 756100                    STQ     1,,PR0

     3244     9632    1       IF LINK1$ ~= ADDR(NIL)

   9632 11 000077   200013 236100                    LDQ     LINK1$,,AUTO
        11 000100   000000 116000 12                 CMPQ    0
        11 000101   000105 600000 11                 TZE     s:9635

     3245     9633    1       THEN
     3246     9634    1           LINK1$ -> TIME_TABLE.PRIOR$ = CURR$;

   9634 11 000102   200017 236100                    LDQ     CURR$,,AUTO
        11 000103   200013 471500                    LDP1    LINK1$,,AUTO
        11 000104   100001 756100                    STQ     1,,PR1

     3247     9635    1       IF LINK2$ ~= ADDR(NIL)

   9635 11 000105   200014 236100                    LDQ     LINK2$,,AUTO
        11 000106   000000 116000 12                 CMPQ    0
        11 000107   000113 600000 11                 TZE     CONT_ENTRY

PL6.E3A0      #006=VOM$ADDENTRY File=VOM$MAILMAN.:VMB6TSI                        WED 08/20/97 15:35 Page:552
     3248     9636    1       THEN
     3249     9637    1           LINK2$ -> TIME_TABLE.NEXT$ = CURR$;

   9637 11 000110   200017 236100                    LDQ     CURR$,,AUTO
        11 000111   200014 471500                    LDP1    LINK2$,,AUTO
        11 000112   100000 756100                    STQ     0,,PR1

   9635 11 000113                       CONT_ENTRY   null
     3250     9638    1   CONT_ENTRY:;
     3251     9639    1       PTR$ = CURR$;

   9639 11 000113   200017 236100                    LDQ     CURR$,,AUTO
        11 000114   200003 470500                    LDP0    @PTR$,,AUTO
        11 000115   000000 756100                    STQ     0,,PR0

     3252     9640    1       RETURN;

   9640 11 000116   000000 702200 xent               TSX2  ! X66_ARET

   9639 11 000117                       NO_MEMORY    null
     3253     9641    1   NO_MEMORY: ;
     3254     9642    1       RETURN;

   9642 11 000117   000000 702200 xent               TSX2  ! X66_ARET

     3255     9643        %EJECT;
PL6.E3A0      #006=VOM$ADDENTRY File=VOM$MAILMAN.:VMB6TSI                        WED 08/20/97 15:35 Page:553
     3256     9644    1   VOM$ADDENTRY_SORTED: ENTRY (PTR$, LOGON_FLAG, CHAIN$, DCB#);

   9644 11 000120   000000 700200 xent  VOM$ADDENTR* TSX0  ! X66_AUTO_4
        11 000121   000022 000004                    ZERO    18,4

     3257     9645    1       IF FREE$ = ADDR(NIL) THEN

   9645 11 000122   000000 236000 xsym               LDQ     FREE$
        11 000123   000000 116000 12                 CMPQ    0
        11 000124   000153 601000 11                 TNZ     s:9660

     3258     9646    2       DO;

     3259     9647    2           CURR$ = SEG$;

   9647 11 000125   000000 236000 xsym               LDQ     SEG$
        11 000126   200017 756100                    STQ     CURR$,,AUTO

     3260     9648    2           SEG$ = PINCRW(SEG$, SIZEW(TIME_TABLE));

   9648 11 000127   000021 036003                    ADLQ    17,DU
        11 000130   000000 756000 xsym               STQ     SEG$

     3261     9649    2           SEG$->STR.NEXT$ = ADDR(NIL);

   9649 11 000131   000000 236000 12                 LDQ     0
        11 000132   200020 756100                    STQ     CURR$+1,,AUTO
        11 000133   000000 470400 xsym               LDP0    SEG$
        11 000134   003100 060500                    CSL     bolr='003'O
        11 000135   200020 000044                    BDSC    CURR$+1,,AUTO            by=0,bit=0,n=36
        11 000136   000000 000044                    BDSC    0,,PR0                   by=0,bit=0,n=36

     3262     9650    2           IF PINCRC(SEG$, SIZEC(TIME_TABLE)) >= MAX$

   9650 11 000137   000000 236000 xsym               LDQ     SEG$
        11 000140   000021 036003                    ADLQ    17,DU
        11 000141   000000 116000 xsym               CMPQ    MAX$
PL6.E3A0      #006=VOM$ADDENTRY File=VOM$MAILMAN.:VMB6TSI                        WED 08/20/97 15:35 Page:554
        11 000142   000157 602000 11                 TNC     s:9663

     3263     9651    2           THEN
     3264     9652    3           DO;

     3265     9653    3               CALL VMA$ENLARGE_SEGMENT(VM_INPUT_,1024) ALTRET(NO_MEMORY);

   9653 11 000143   000003 630400 12                 EPPR0   3
        11 000144   000001 631400 12                 EPPR1   1
        11 000145   000000 701000 xent               TSX1    VMA$ENLARGE_SEGMENT
        11 000146   000117 702000 11                 TSX2    NO_MEMORY

     3266     9654    3               MAX$ = PINCRW(MAX$, 1024);

   9654 11 000147   000000 236000 xsym               LDQ     MAX$
        11 000150   002000 036003                    ADLQ    1024,DU
        11 000151   000000 756000 xsym               STQ     MAX$

     3267     9655
     3268     9656    3           END;

     3269     9657    2       END;

   9657 11 000152   000157 710000 11                 TRA     s:9663

     3270     9658    1       ELSE
     3271     9659    2       DO;

     3272     9660    2           CURR$ = FREE$;

   9660 11 000153   200017 756100                    STQ     CURR$,,AUTO

     3273     9661    2           FREE$ = CURR$->TIME_TABLE.NEXT$;

   9661 11 000154   200017 470500                    LDP0    CURR$,,AUTO
        11 000155   000000 236100                    LDQ     0,,PR0
        11 000156   000000 756000 xsym               STQ     FREE$
PL6.E3A0      #006=VOM$ADDENTRY File=VOM$MAILMAN.:VMB6TSI                        WED 08/20/97 15:35 Page:555

     3274     9662    2       END;

     3275     9663    1       IF CHAIN$ = ADDR(NIL)

   9663 11 000157   200005 470500                    LDP0    @CHAIN$,,AUTO
        11 000160   000000 236100                    LDQ     0,,PR0
        11 000161   000000 116000 12                 CMPQ    0
        11 000162   000172 601000 11                 TNZ     s:9674

     3276     9664    1       THEN
     3277     9665    2       DO;

     3278     9666    2           CURR$ -> TIME_TABLE.PRIOR$ = ADDR(NIL);

   9666 11 000163   000000 236000 12                 LDQ     0
        11 000164   200017 471500                    LDP1    CURR$,,AUTO
        11 000165   100001 756100                    STQ     1,,PR1

     3279     9667    2           CURR$ -> TIME_TABLE.NEXT$ = ADDR(NIL);

   9667 11 000166   100000 756100                    STQ     0,,PR1

     3280     9668    2           CHAIN$ = CURR$;

   9668 11 000167   200017 236100                    LDQ     CURR$,,AUTO
        11 000170   000000 756100                    STQ     0,,PR0

     3281     9669    2           GOTO INIT_TIME_INFO;

   9669 11 000171   000253 710000 11                 TRA     INIT_TIME_INFO

     3282     9670    2       END;
     3283     9671        /*
     3284     9672             ***** New head ?
     3285     9673        */
     3286     9674    1       IF VM_HEADER.DELIVERY_DATE < CHAIN$ -> TIME_TABLE.TSTAMP
PL6.E3A0      #006=VOM$ADDENTRY File=VOM$MAILMAN.:VMB6TSI                        WED 08/20/97 15:35 Page:556

   9674 11 000172   000000 471500                    LDP1    0,,PR0
        11 000173   000000 473400 xsym               LDP3    VM_HEADER$
        11 000174   300002 236100                    LDQ     2,,PR3
        11 000175   100002 116100                    CMPQ    2,,PR1
        11 000176   000211 603000 11                 TRC     s:9687

     3287     9675    1       THEN                            /* Yes, replace */
     3288     9676    2       DO;

     3289     9677    2           CURR$ -> TIME_TABLE.PRIOR$ = ADDR(NIL);

   9677 11 000177   000000 236000 12                 LDQ     0
        11 000200   200017 474500                    LDP4    CURR$,,AUTO
        11 000201   400001 756100                    STQ     1,,PR4

     3290     9678    2           CURR$ -> TIME_TABLE.NEXT$ = CHAIN$;

   9678 11 000202   000000 236100                    LDQ     0,,PR0
        11 000203   400000 756100                    STQ     0,,PR4

     3291     9679    2           CHAIN$ -> TIME_TABLE.PRIOR$ = CURR$;

   9679 11 000204   000000 471500                    LDP1    0,,PR0
        11 000205   200017 236100                    LDQ     CURR$,,AUTO
        11 000206   100001 756100                    STQ     1,,PR1

     3292     9680    2           CHAIN$ = CURR$;

   9680 11 000207   000000 756100                    STQ     0,,PR0

     3293     9681    2           GOTO INIT_TIME_INFO;

   9681 11 000210   000253 710000 11                 TRA     INIT_TIME_INFO

     3294     9682    2       END;
     3295     9683        /*
PL6.E3A0      #006=VOM$ADDENTRY File=VOM$MAILMAN.:VMB6TSI                        WED 08/20/97 15:35 Page:557
     3296     9684             LINK1$ -> node with value just larger than desired.
     3297     9685             LINK2$ -> node with value just smaller than deisred.
     3298     9686        */
     3299     9687    1       LINK1$ = CHAIN$;                  /* Start at head of chain */

   9687 11 000211   000000 236100                    LDQ     0,,PR0
        11 000212   200013 756100                    STQ     LINK1$,,AUTO

     3300     9688    1       LINK2$ = ADDR(NIL);

   9688 11 000213   000000 236000 12                 LDQ     0
        11 000214   200014 756100                    STQ     LINK2$,,AUTO

     3301     9689        /*
     3302     9690             ***** Go down chain ...
     3303     9691        */
     3304     9692    2       DO WHILE (LINK1$ ~= ADDR(NIL));

   9692 11 000215   000227 710000 11                 TRA     s:9699

     3305     9693    2           IF LINK1$ -> TIME_TABLE.TSTAMP >

   9693 11 000216   000000 470400 xsym               LDP0    VM_HEADER$
        11 000217   200013 471500                    LDP1    LINK1$,,AUTO
        11 000220   000002 236100                    LDQ     2,,PR0
        11 000221   100002 116100                    CMPQ    2,,PR1
        11 000222   000232 602000 11                 TNC     FOUND_IT

     3306     9694    2             VM_HEADER.DELIVERY_DATE
     3307     9695    2           THEN
     3308     9696    2               GOTO FOUND_IT;
     3309     9697    2           LINK2$ = LINK1$;

   9697 11 000223   200013 236100                    LDQ     LINK1$,,AUTO
        11 000224   200014 756100                    STQ     LINK2$,,AUTO

     3310     9698    2           LINK1$ = LINK1$ -> TIME_TABLE.NEXT$;
PL6.E3A0      #006=VOM$ADDENTRY File=VOM$MAILMAN.:VMB6TSI                        WED 08/20/97 15:35 Page:558

   9698 11 000225   100000 236100                    LDQ     0,,PR1
        11 000226   200013 756100                    STQ     LINK1$,,AUTO

     3311     9699    2       END;

   9699 11 000227   200013 236100                    LDQ     LINK1$,,AUTO
        11 000230   000000 116000 12                 CMPQ    0
        11 000231   000216 601000 11                 TNZ     s:9693

     3312     9700    1   FOUND_IT:
     3313     9701    1       CURR$ -> TIME_TABLE.NEXT$ = LINK1$;

   9701 11 000232   200013 236100       FOUND_IT     LDQ     LINK1$,,AUTO
        11 000233   200017 470500                    LDP0    CURR$,,AUTO
        11 000234   000000 756100                    STQ     0,,PR0

     3314     9702    1       CURR$ -> TIME_TABLE.PRIOR$ = LINK2$;

   9702 11 000235   200014 236100                    LDQ     LINK2$,,AUTO
        11 000236   000001 756100                    STQ     1,,PR0

     3315     9703    1       IF LINK1$ ~= ADDR(NIL)

   9703 11 000237   200013 236100                    LDQ     LINK1$,,AUTO
        11 000240   000000 116000 12                 CMPQ    0
        11 000241   000245 600000 11                 TZE     s:9706

     3316     9704    1       THEN
     3317     9705    1           LINK1$ -> TIME_TABLE.PRIOR$ = CURR$;

   9705 11 000242   200017 236100                    LDQ     CURR$,,AUTO
        11 000243   200013 471500                    LDP1    LINK1$,,AUTO
        11 000244   100001 756100                    STQ     1,,PR1

     3318     9706    1       IF LINK2$ ~= ADDR(NIL)

PL6.E3A0      #006=VOM$ADDENTRY File=VOM$MAILMAN.:VMB6TSI                        WED 08/20/97 15:35 Page:559
   9706 11 000245   200014 236100                    LDQ     LINK2$,,AUTO
        11 000246   000000 116000 12                 CMPQ    0
        11 000247   000253 600000 11                 TZE     INIT_TIME_INFO

     3319     9707    1       THEN
     3320     9708    1           LINK2$ -> TIME_TABLE.NEXT$ = CURR$;

   9708 11 000250   200017 236100                    LDQ     CURR$,,AUTO
        11 000251   200014 471500                    LDP1    LINK2$,,AUTO
        11 000252   100000 756100                    STQ     0,,PR1

     3321     9709        /*
     3322     9710             ***** TIME_TABLE init.
     3323     9711        */
     3324     9712    1   INIT_TIME_INFO:
     3325     9713    1       PTR$ = CURR$;

   9713 11 000253   200017 236100       INIT_TIME_I* LDQ     CURR$,,AUTO
        11 000254   200003 470500                    LDP0    @PTR$,,AUTO
        11 000255   000000 756100                    STQ     0,,PR0

     3326     9714    1       PTR$ -> TIME_TABLE.NAME = DCBADDR(DCB#)->F$DCB.NAME#;

   9714 11 000256   000000 471500                    LDP1    0,,PR0
        11 000257   000006 473400 12                 LDP3    6
        11 000260   300000 474500                    LDP4    0,,PR3
        11 000261   200006 475500                    LDP5    @DCB#,,AUTO
        11 000262   500000 720100                    LXL0    0,,PR5
        11 000263   400000 476510                    LDP6    0,X0,PR4
        11 000264   000100 100500                    MLR     fill='000'O
        11 000265   600010 000040                    ADSC9   8,,PR6                   cn=0,n=32
        11 000266   100006 200040                    ADSC9   6,,PR1                   cn=1,n=32

     3327     9715    1       PTR$ -> TIME_TABLE.TSTAMP = VM_HEADER.DELIVERY_DATE;

   9715 11 000267   000000 471500                    LDP1    0,,PR0
        11 000270   000000 476400 xsym               LDP6    VM_HEADER$
PL6.E3A0      #006=VOM$ADDENTRY File=VOM$MAILMAN.:VMB6TSI                        WED 08/20/97 15:35 Page:560
        11 000271   600002 235100                    LDA     2,,PR6
        11 000272   100002 755100                    STA     2,,PR1

     3328     9716    1       PTR$ -> TIME_TABLE.COUNT = 0;

   9716 11 000273   000000 471500                    LDP1    0,,PR0
        11 000274   000100 100400                    MLR     fill='000'O
        11 000275   000005 000004 12                 ADSC9   5                        cn=0,n=4
        11 000276   100005 200004                    ADSC9   5,,PR1                   cn=1,n=4

     3329     9717    1       GOTO CONT_ENTRY;

   9717 11 000277   000113 710000 11                 TRA     CONT_ENTRY

     3330     9718        %EJECT;
PL6.E3A0      #006=VOM$ADDENTRY File=VOM$MAILMAN.:VMB6TSI                        WED 08/20/97 15:35 Page:561
     3331     9719    1   VOM$DELENTRY: ENTRY (PTR$, LOGON_FLAG, CHAIN$);

   9719 11 000300   000000 700200 xent  VOM$DELENTRY TSX0  ! X66_AUTO_4
        11 000301   000022 000004                    ZERO    18,4

     3332     9720
     3333     9721    1       SAVEN$ = PTR$->STR.NEXT$;

   9721 11 000302   200003 470500                    LDP0    @PTR$,,AUTO
        11 000303   000000 471500                    LDP1    0,,PR0
        11 000304   003100 060500                    CSL     bolr='003'O
        11 000305   100000 000044                    BDSC    0,,PR1                   by=0,bit=0,n=36
        11 000306   200015 000044                    BDSC    SAVEN$,,AUTO             by=0,bit=0,n=36

     3334     9722    1       SAVEP$ = PTR$->STR.PRIOR$;

   9722 11 000307   003100 060500                    CSL     bolr='003'O
        11 000310   100001 000044                    BDSC    1,,PR1                   by=0,bit=0,n=36
        11 000311   200016 000044                    BDSC    SAVEP$,,AUTO             by=0,bit=0,n=36

     3335     9723    1       IF SAVEN$ ~= ADDR(NIL) THEN

   9723 11 000312   200015 236100                    LDQ     SAVEN$,,AUTO
        11 000313   000000 116000 12                 CMPQ    0
        11 000314   000321 600000 11                 TZE     s:9725

     3336     9724    1           SAVEN$->STR.PRIOR$ = SAVEP$;

   9724 11 000315   200015 473500                    LDP3    SAVEN$,,AUTO
        11 000316   003100 060500                    CSL     bolr='003'O
        11 000317   200016 000044                    BDSC    SAVEP$,,AUTO             by=0,bit=0,n=36
        11 000320   300001 000044                    BDSC    1,,PR3                   by=0,bit=0,n=36

     3337     9725    1       IF SAVEP$ ~= ADDR(NIL) THEN

   9725 11 000321   200016 236100                    LDQ     SAVEP$,,AUTO
        11 000322   000000 116000 12                 CMPQ    0
PL6.E3A0      #006=VOM$ADDENTRY File=VOM$MAILMAN.:VMB6TSI                        WED 08/20/97 15:35 Page:562
        11 000323   000330 600000 11                 TZE     s:9727

     3338     9726    1           SAVEP$->STR.NEXT$ = SAVEN$;

   9726 11 000324   200016 471500                    LDP1    SAVEP$,,AUTO
        11 000325   003100 060500                    CSL     bolr='003'O
        11 000326   200015 000044                    BDSC    SAVEN$,,AUTO             by=0,bit=0,n=36
        11 000327   100000 000044                    BDSC    0,,PR1                   by=0,bit=0,n=36

     3339     9727    1       IF (SAVEP$ = ADDR(NIL)) AND

   9727 11 000330   000000 116000 12                 CMPQ    0
        11 000331   000340 601000 11                 TNZ     s:9730
        11 000332   200015 236100                    LDQ     SAVEN$,,AUTO
        11 000333   000000 116000 12                 CMPQ    0
        11 000334   000340 601000 11                 TNZ     s:9730

     3340     9728    1         (SAVEN$ = ADDR(NIL)) THEN CHAIN$ = ADDR(NIL);

   9728 11 000335   000000 236000 12                 LDQ     0
        11 000336   200005 471500                    LDP1    @CHAIN$,,AUTO
        11 000337   100000 756100                    STQ     0,,PR1

     3341     9729
     3342     9730    1       PTR$->STR.NEXT$ = FREE$;

   9730 11 000340   000000 471500                    LDP1    0,,PR0
        11 000341   003100 060400                    CSL     bolr='003'O
        11 000342   000000 000044 xsym               BDSC    FREE$                    by=0,bit=0,n=36
        11 000343   100000 000044                    BDSC    0,,PR1                   by=0,bit=0,n=36

     3343     9731    1       FREE$ = PTR$;

   9731 11 000344   000000 236100                    LDQ     0,,PR0
        11 000345   000000 756000 xsym               STQ     FREE$

     3344     9732    1       IF CHAIN$ = PTR$ THEN
PL6.E3A0      #006=VOM$ADDENTRY File=VOM$MAILMAN.:VMB6TSI                        WED 08/20/97 15:35 Page:563

   9732 11 000346   200005 471500                    LDP1    @CHAIN$,,AUTO
        11 000347   100000 236100                    LDQ     0,,PR1
        11 000350   000000 116100                    CMPQ    0,,PR0
        11 000351   000354 601000 11                 TNZ     s:9735

     3345     9733    1           CHAIN$ = SAVEN$;

   9733 11 000352   200015 236100                    LDQ     SAVEN$,,AUTO
        11 000353   100000 756100                    STQ     0,,PR1

     3346     9734
     3347     9735    1       RETURN;

   9735 11 000354   000000 702200 xent               TSX2  ! X66_ARET

(unnamed)
 Sect OctLoc
  12     000   000000 006014   000002 000000   000000 002000   000000 006000    ................
  12     004   000002 006000   000000 000000   000000 006003                    ............
     3348     9736    1   END VOM$ADDENTRY;

PL6.E3A0      #006=VOM$ADDENTRY File=VOM$MAILMAN.:VMB6TSI                        WED 08/20/97 15:35 Page:564
--  Include file information  --

   B_ERRORS_C.:LIB_E05  is referenced.
   VO_SUBS_C.:VMB6TOU  is referenced.
   B_MACROS_C.:LIB_E05  is referenced.
   VM_DATA_R.:VMB6TOU  cannot be made into a system file and is referenced.
   CP_6_SUBS.:LIB_E05  is referenced.
   CP_6_C.:LIB_E05  is referenced.
   CP_6.:LIB_E05  cannot be made into a system file and is referenced.
   VM_MACRO_C.:VMB6TOU  is referenced.
   VM_SUBS_C.:VMB6TOU  is referenced.
   VOM_DATA_R.:VMB6TOU  cannot be made into a system file and is referenced.
      No diagnostics issued in procedure VOM$ADDENTRY.
PL6.E3A0      #006=VOM$ADDENTRY File=VOM$MAILMAN.:VMB6TSI                        WED 08/20/97 15:35 Page:565

 **** Variables and constants ****

  ****  Auto variables  ****

  ****  Scalars and arrays  ****
OctLoc.c.b A Datatyp(siz) R M Lvl/name                 OctLoc.c.b A Datatyp(siz) R M Lvl/name

     5-0-0/w PTR         r     1 @CHAIN$                    6-0-0/w PTR         r     1 @DCB#
     4-0-0/w PTR         r     1 @LOGON_FLAG                3-0-0/w PTR         r     1 @PTR$
    *0-0-0/w PTR         r     1 CHAIN$                    17-0-0/w PTR         r     1 CURR$
    *0-0-0/w UBIN        r     1 DCB#                      13-0-0/w PTR         r     1 LINK1$
    14-0-0/w PTR         r     1 LINK2$                    *0-0-0/b BIT         r     1 LOGON_FLAG
    12-0-0/w PTR               1 NEW$                      10-0-0/w PTR               1 NEXT$
     7-0-0/w PTR               1 PRIOR$                    *0-0-0/w PTR         r     1 PTR$
    15-0-0/w PTR         r     1 SAVEN$                    16-0-0/w PTR         r     1 SAVEP$
    11-0-0/w PTR               1 X$

  ****  SYMREF variables  ****

  ****  Scalars and arrays  ****
OctLoc.c.b A Datatyp(siz) R M Lvl/name                 OctLoc.c.b A Datatyp(siz) R M Lvl/name

     0-0-0/w PTR               1 B$JIT$                     0-0-0/w PTR               1 B$TCB$
     0-0-0/c ASTR(9)     r     1 ERRMSG_FID                 0-0-0/w PTR         r     1 FREE$
     0-0-0/w PTR         r     1 INTERSYS$                  0-0-0/w PTR               1 INTERSYS_HEAD$
     0-0-0/w UBIN              1 M$DO_NUM                   0-0-0/w UBIN              1 M$LO_NUM
     0-0-0/w UBIN              1 M$MAIL_CENTRAL_NUM         0-0-0/w UBIN              1 M$MAIL_COMGROUP_NUM
     0-0-0/w UBIN              1 M$MAIL_FILE_NUM            0-0-0/w UBIN              1 M$MAIL_GLOBAL_NUM
     0-0-0/w UBIN              1 M$ME_NUM                   0-0-0/w UBIN              1 M$NODE_NUM
     0-0-0/w UBIN              1 M$SI_NUM                   0-0-0/w UBIN              1 M$WORK_NUM
     0-0-0/w PTR         r     1 MAX$                       0-0-0/w PTR         r     1 SEG$
     0-0-0/c CHAR(8)           1 STATION#                   0-0-0/w PTR         r     1 TIME$
     0-0-0/w PTR               1 TIME_HEAD$                 0-0-0/w PTR               1 VM_ADDLIST$
     0-0-0/d VECT              1 VM_ADDLIST_                0-0-0/w PTR               1 VM_ADDREC$
     0-0-0/d VECT              1 VM_ADDREC_                 0-0-0/c STRC(1296)        1 VM_CGBUFFER
     0-0-0/w PTR               1 VM_COPY$                   0-0-0/d VECT              1 VM_COPY_
     0-0-0/w PTR               1 VM_ENCLLIST$               0-0-0/d VECT              1 VM_ENCLLIST_
PL6.E3A0      #006=VOM$ADDENTRY File=VOM$MAILMAN.:VMB6TSI                        WED 08/20/97 15:35 Page:566
     0-0-0/w PTR               1 VM_ENCLREC$                0-0-0/d VECT              1 VM_ENCLREC_
     0-0-0/c STRC(270)         1 VM_FORWARD_ENCL_NAME       0-0-0/c STRC(270)         1 VM_FORWARD_FILE_NAME
     0-0-0/c STRC(72)          1 VM_FORWARD_FILE_PASS       0-0-0/w PTR         r     1 VM_HEADER$
     0-0-0/d VECT              1 VM_HEADER_                 0-0-0/d VECT              1 VM_HEADER_INIT_
     0-0-0/w PTR               1 VM_INPUT$                  0-0-0/d VECT        r     1 VM_INPUT_
     0-0-0/c STRC(72)          1 VM_MAILCG_NAME             0-0-0/w STRC(432)         1 VM_MAILCG_SETSTA
     0-0-0/c STRC(72)          1 VM_MAIL_ACCT               0-0-0/c STRC(54)          1 VM_NAME_MAP_NAME
     0-0-0/w PTR               1 VM_PARSEAREA$              0-0-0/d VECT              1 VM_PARSEAREA_
     0-0-0/w PTR               1 VM_PROFILE$                0-0-0/d VECT              1 VM_PROFILE_
     0-0-0/w PTR               1 VM_SELECT$                 0-0-0/d VECT              1 VM_SELECT_
     0-0-0/c STRC(288)         1 VM_SEND_FILE_NAME          0-0-0/c CHAR(8)           1 VM_SITENAME
     0-0-0/w PTR               1 VM_WORK$                   0-0-0/d VECT              1 VM_WORK_
     0-0-0/w STRC(2880)        1 VO_BNWIO
     0-0-0/w UBIN              1 VO_BUSY_RETRY_MINUTES
     0-0-0/w UBIN              1 VO_HOG_LIMIT               0-0-0/c CHAR(8)           1 VO_INTERSYS_ACCT
     0-0-0/b BIT               1 VO_INTERSYS_ALLOWED        0-0-0/c CHAR(12)          1 VO_INTERSYS_EPASS
     0-0-0/c CHAR(8)           1 VO_INTERSYS_PASSWORD       0-0-0/c CHAR(8)           1 VO_INTERSYS_UNAME
     0-0-0/w UBIN              1 VO_MAILMAN_STARTUP_TIME
     0-0-0/w UBIN              1 VO_MAX_HOLD_HOURS
     0-0-0/w UBIN              1 VO_PACKSET_RETRY_MINUTES
     0-0-0/w UBIN              1 VO_RETRY_LIMIT_INTERSYSTEM

  ****  BASED and DCB variables  ****

  ****  Scalars and arrays  ****
OctLoc.c.b A Datatyp(siz) R M Lvl/name                 OctLoc.c.b A Datatyp(siz) R M Lvl/name

     0-0-0/d ASTR(3528)  r     1 F$DCB                      0-0-0/w STRC(540)         1 INTERSYS_INFO
     0-0-0N  NULL        r     1 M$DO                       0-0-0N  NULL        r     1 M$LO
     0-0-0N  NULL        r     1 M$MAIL_CENTRAL             0-0-0N  NULL        r     1 M$MAIL_COMGROUP
     0-0-0N  NULL        r     1 M$MAIL_FILE                0-0-0N  NULL        r     1 M$MAIL_GLOBAL
     0-0-0N  NULL        r     1 M$ME                       0-0-0N  NULL        r     1 M$NODE
     0-0-0N  NULL        r     1 M$SI                       0-0-0N  NULL        r     1 M$UC
     0-0-0N  NULL        r     1 M$WORK                     0-0-0/b STRC(108)   r     1 STR
     0-0-0/w STRC(612)   r     1 TIME_TABLE                 0-0-0/w STRC(1332)  r     1 VM_HEADER
     0-0-0/c ASTR(9)     r     1 X$STRING

PL6.E3A0      #006=VOM$ADDENTRY File=VOM$MAILMAN.:VMB6TSI                        WED 08/20/97 15:35 Page:567

   Procedure VOM$ADDENTRY requires 237 words for executable code.
   Procedure VOM$ADDENTRY requires 18 words of local(AUTO) storage.

    No errors detected in file VOM$MAILMAN.:VMB6TSI    .
PL6.E3A0      #006=VOM$ADDENTRY File=VOM$MAILMAN.:VMB6TSI                        WED 08/20/97 15:35 Page:568
          *** CROSS REFERENCE LISTING ***
**     DENOTES     IDENTIFIER DEFINITION
<<                 IDENTIFIER'S VALUE SET
>>                 IDENTIFIER'S VALUE USED
<>                 IDENTIFIER SET AND/OR USED
--                 IDENTIFIER REFERENCED
PL6.E3A0      #006=VOM$ADDENTRY File=VOM$MAILMAN.:VMB6TSI                        WED 08/20/97 15:35 Page:569
          MINI XREF LISTING

CHAIN$
      9573**DCL         7--PROC     9609>>IF       9614<<ASSIGN   9621>>ASSIGN   9644--ENTRY    9663>>IF
      9668<<ASSIGN   9674>>IF       9678>>ASSIGN   9679>>ASSIGN   9680<<ASSIGN   9687>>ASSIGN   9719--ENTRY
      9728<<ASSIGN   9732>>IF       9733<<ASSIGN
CONT_ENTRY
      9635**LABEL    9606--GOTO     9615--GOTO     9717--GOTO
CURR$
      9586**DCL      9590<<ASSIGN   9603<<ASSIGN   9604>>ASSIGN   9612>>ASSIGN   9613>>ASSIGN   9614>>ASSIGN
      9630>>ASSIGN   9631>>ASSIGN   9634>>ASSIGN   9637>>ASSIGN   9639>>ASSIGN   9647<<ASSIGN   9660<<ASSIGN
      9661>>ASSIGN   9666>>ASSIGN   9667>>ASSIGN   9668>>ASSIGN   9677>>ASSIGN   9678>>ASSIGN   9679>>ASSIGN
      9680>>ASSIGN   9701>>ASSIGN   9702>>ASSIGN   9705>>ASSIGN   9708>>ASSIGN   9713>>ASSIGN
DCB#
      9565**DCL         7--PROC     9644--ENTRY    9714--ASSIGN
ERRMSG_FID.L#
      8045**DCL      8045--IMP-SIZ
F$DCB.ACTPOS
      9411**DCL      9411--REDEF
F$DCB.ARS#
      9385**DCL      9385--REDEF
F$DCB.ATTR
      9404**DCL      9405--REDEF
F$DCB.BORROW
      9419**DCL      9419--REDEF    9419--REDEF    9419--REDEF
F$DCB.DCBNAME.L
      9433**DCL      9433--IMP-SIZ
F$DCB.EOMCHAR#
      9389**DCL      9389--REDEF
F$DCB.FLDID
      9414**DCL      9414--REDEF
F$DCB.FORM$
      9408**DCL      9408--REDEF
F$DCB.FSECT
PL6.E3A0      #006=VOM$ADDENTRY File=VOM$MAILMAN.:VMB6TSI                        WED 08/20/97 15:35 Page:570
      9424**DCL      9424--REDEF
F$DCB.FSN#
      9401**DCL      9401--REDEF    9401--REDEF    9402--REDEF
F$DCB.HEADER$
      9407**DCL      9407--REDEF
F$DCB.IXTNSIZE#
      9405**DCL      9405--REDEF
F$DCB.LASTSTA$
      9394**DCL      9394--REDEF
F$DCB.LVL
      9420**DCL      9420--REDEF
F$DCB.NAME#
      9395**DCL      9714>>ASSIGN
F$DCB.NAME#.C
      9395**DCL      9395--REDEF
F$DCB.NOEOF
      9417**DCL      9417--REDEF
F$DCB.NRECS#
      9406**DCL      9406--REDEF
F$DCB.NRECX
      9425**DCL      9425--REDEF
F$DCB.OHDR
      9417**DCL      9417--REDEF
F$DCB.ORG#
      9400**DCL      9400--REDEF
F$DCB.PRECNO
      9423**DCL      9423--REDEF
F$DCB.RCSZ
      9429**DCL      9429--REDEF
F$DCB.RES#
      9396**DCL      9396--REDEF
F$DCB.SETX
      9408**DCL      9408--REDEF
F$DCB.TAB$
      9408**DCL      9408--REDEF
F$DCB.TDA
PL6.E3A0      #006=VOM$ADDENTRY File=VOM$MAILMAN.:VMB6TSI                        WED 08/20/97 15:35 Page:571
      9422**DCL      9423--REDEF
F$DCB.WSN#
      9396**DCL      9396--REDEF
FOUND_IT
      9701**LABEL    9696--GOTO
FREE$
      9575**DCL      9588>>IF       9603>>ASSIGN   9604<<ASSIGN   9645>>IF       9660>>ASSIGN   9661<<ASSIGN
      9730>>ASSIGN   9731<<ASSIGN
INIT_TIME_INFO
      9713**LABEL    9669--GOTO     9681--GOTO
INTERSYS$
      7222**DCL      7227--IMP-PTR
LINK1$
      9571**DCL      9621<<ASSIGN   9626>>DOWHILE  9627>>ASSIGN   9628<<ASSIGN   9628>>ASSIGN   9630>>ASSIGN
      9632>>IF       9634>>ASSIGN   9687<<ASSIGN   9692>>DOWHILE  9693>>IF       9697>>ASSIGN   9698<<ASSIGN
      9698>>ASSIGN   9701>>ASSIGN   9703>>IF       9705>>ASSIGN
LINK2$
      9572**DCL      9622<<ASSIGN   9627<<ASSIGN   9631>>ASSIGN   9635>>IF       9637>>ASSIGN   9688<<ASSIGN
      9697<<ASSIGN   9702>>ASSIGN   9706>>IF       9708>>ASSIGN
LOGON_FLAG
      9580**DCL         7--PROC     9606>>IF       9644--ENTRY    9719--ENTRY
MAX$
      9577**DCL      9593>>IF       9597<<ASSIGN   9597>>ASSIGN   9650>>IF       9654<<ASSIGN   9654>>ASSIGN
NO_MEMORY
      9639**LABEL    9596--CALLALT  9653--CALLALT
PTR$
      9569**DCL         7--PROC     9639<<ASSIGN   9644--ENTRY    9713<<ASSIGN   9714>>ASSIGN   9715>>ASSIGN
      9716>>ASSIGN   9719--ENTRY    9721>>ASSIGN   9722>>ASSIGN   9730>>ASSIGN   9731>>ASSIGN   9732>>IF
SAVEN$
      9578**DCL      9721<<ASSIGN   9723>>IF       9724>>ASSIGN   9726>>ASSIGN   9727>>IF       9733>>ASSIGN
SAVEP$
      9579**DCL      9722<<ASSIGN   9724>>ASSIGN   9725>>IF       9726>>ASSIGN   9727>>IF
SEG$
      9576**DCL      9590>>ASSIGN   9591<<ASSIGN   9591>>ASSIGN   9592>>ASSIGN   9593>>IF       9647>>ASSIGN
      9648<<ASSIGN   9648>>ASSIGN   9649>>ASSIGN   9650>>IF
STR.NEXT$
PL6.E3A0      #006=VOM$ADDENTRY File=VOM$MAILMAN.:VMB6TSI                        WED 08/20/97 15:35 Page:572
      9582**DCL      9592<<ASSIGN   9649<<ASSIGN   9721>>ASSIGN   9726<<ASSIGN   9730<<ASSIGN
STR.PRIOR$
      9583**DCL      9722>>ASSIGN   9724<<ASSIGN
TIME$
      7221**DCL      7225--IMP-PTR
TIME_TABLE
      7225**DCL      9591--ASSIGN   9593--IF       9648--ASSIGN   9650--IF
TIME_TABLE.COUNT
      7226**DCL      9716<<ASSIGN
TIME_TABLE.NAME
      7226**DCL      9714<<ASSIGN
TIME_TABLE.NEXT$
      7225**DCL      9604>>ASSIGN   9613<<ASSIGN   9628>>ASSIGN   9630<<ASSIGN   9637<<ASSIGN   9661>>ASSIGN
      9667<<ASSIGN   9678<<ASSIGN   9698>>ASSIGN   9701<<ASSIGN   9708<<ASSIGN
TIME_TABLE.PRIOR$
      7225**DCL      9612<<ASSIGN   9631<<ASSIGN   9634<<ASSIGN   9666<<ASSIGN   9677<<ASSIGN   9679<<ASSIGN
      9702<<ASSIGN   9705<<ASSIGN
TIME_TABLE.TSTAMP
      7225**DCL      9674>>IF       9693>>IF       9715<<ASSIGN
VMA$ENLARGE_SEGMENT
      9574**DCL-ENT  9596--CALL     9653--CALL
VM_HEADER.DELIVERY_DATE
      9450**DCL      9674>>IF       9693>>IF       9715>>ASSIGN
VM_HEADER$
      7895**DCL      9445--IMP-PTR  9674>>IF       9693>>IF       9715>>ASSIGN
VM_INPUT_
      7928**DCL      9596<>CALL     9653<>CALL
VO_BNWIO.CGPARM.MSGIDXT
      7170**DCL      7173--REDEF
VO_BNWIO.CODE
      7139**DCL      7139--REDEF    7140--REDEF    7140--REDEF
VO_BNWIO.ERR.ERR#
      7141**DCL      7141--REDEF
VO_BNWIO.EVID
      7140**DCL      7140--REDEF    7140--REDEF
X$STRING.SIZ
PL6.E3A0      #006=VOM$ADDENTRY File=VOM$MAILMAN.:VMB6TSI                        WED 08/20/97 15:35 Page:573
      7891**DCL      7892--IMP-SIZ
