VERSION B06

PL6.E3A0      #001=VOM$MAILMAN File=VOM$MAILMAN.:VMB6TSI                         WED 08/20/97 15:31 Page:1
        1        1        /*M* VOM$MAILMAN  MAILMANs main procedure section */
        2        2        /*T***********************************************************/
        3        3        /*T*                                                         */
        4        4        /*T* Copyright (c) Bull HN Information Systems Inc., 1997    */
        5        5        /*T*                                                         */
        6        6        /*T***********************************************************/
        7        7        /*X* DMC,PLM=4,IND=4,CTI=2,DTI=0,ENI=0,ECI=0,CSI=0,DCI=4 */
        8        8        /*P*      NAME: VOM$MAILMAN
        9        9                  DESCRIPTION: Performs executive mailing functions for
       10       10                       the CP-6 electronic mail system.  These functions
       11       11                       include:
       12       12                       a) recognition of, and distribution of mail to
       13       13                       remotely connected MAILMEN.
       14       14                       b) local distribution of mail based on the address
       15       15                       list contained in the document.
       16       16                       c) deferred distribution of mail based on originator-
       17       17                       specified distribution time.
       18       18                       d) MAIL system recovery, should an automatic software
       19       19                       recovery occur.
       20       20                       e) distribution and delivery of replies for "return
       21       21                       receipt requested" mail.
       22       22                       f) journalling transactions for audit-trail purposes.
       23       23                       g) automatic forwarding of mail received from one
       24       24                       remote MAILMAN to another remote MAILMAN.
       25       25                       h) local distribution of mail received from remote
       26       26                       MAILMEN.
       27       27                                                                          */
       28       28
       29       29
       30       30        %EJECT;
PL6.E3A0      #001=VOM$MAILMAN File=VOM$MAILMAN.:VMB6TSI                         WED 08/20/97 15:31 Page:2
       31       31
       32       32
       33       33        VOM$MAILMAN: PROC MAIN;
       34       34        /***** Include files *****/
       35       35          %INCLUDE CP_6_SUBS;
       36      575
       37      576
       38      577          %INCLUDE B_SEGIDS_C;
       39     1116          %INCLUDE VOM_DATA_R;                  /* Also includes CP_6 */
       40     8336          %INCLUDE VM_DATA_R;                   /* Also includes B_MACROS_C */
       41     8767          %INCLUDE VO_SUBS_C;
       42     8818          %INCLUDE B_ERRORS_C;
       43     9945          %F$DCB;
       44    10002          %INCLUDE VM_PERR_C;
       45    10297          %INCLUDE B$JIT;
       46    10900          %INCLUDE XUD_UTS_M;
       47    10982
       48    10983        %EJECT;
PL6.E3A0      #001=VOM$MAILMAN File=VOM$MAILMAN.:VMB6TSI                         WED 08/20/97 15:31 Page:3
       49    10984        /***** Local data *****/
       50    10985    1   DCL I SBIN STATIC;
       51    10986    1   DCL J SBIN STATIC;
       52    10987    1   DCL K SBIN STATIC;
       53    10988    1   DCL CURRENT_TIME UBIN WORD STATIC;
       54    10989    1   DCL EPASS CHAR(12) STATIC;
       55    10990    1   DCL BIT9(0:11) REDEF EPASS UBIN BYTE UNAL;
       56    10991    1   DCL PASSWORD CHAR(8) STATIC;
       57    10992    1   DCL BIT6(0:11) REDEF PASSWORD UBIN(6) UNAL;
       58    10993
       59    10994        /* The next area is the internal TIME_TABLE for mailman */
       60    10995    1   DCL LAST$ PTR STATIC;
       61    10996    1   DCL FREE$ PTR STATIC SYMDEF INIT (ADDR(NIL));/* Head of free entries */
       62    10997    1   DCL MAX$ PTR STATIC SYMDEF ALIGNED;
       63    10998    1   DCL SEG$ PTR STATIC SYMDEF ALIGNED;
       64    10999
       65    11000    1   DCL TYPE SBIN WORD ALIGNED;
       66    11001    1   DCL KEY_VALUE CHAR(8) CALIGNED;
       67    11002    1   DCL SITENAME CHAR(8) CALIGNED;
       68    11003    1   DCL VOM$DOSEND ENTRY(1);
       69    11004
       70    11005    1   DCL X66_REL_AUTO ENTRY;
       71    11006    1   DCL VMA$ENLARGE_SEGMENT ENTRY(2) ALTRET;
       72    11007    1   DCL VMA$SHRINK_SEGMENT ENTRY(2) ALTRET;
       73    11008    1   DCL VMA$OPEN_ENCL_SEGS ENTRY ALTRET;
       74    11009    1   DCL VMD$GET_HEADER    ENTRY(2) ALTRET;
       75    11010    1   DCL VMD$GET_PROFILE   ENTRY(1) ALTRET;
       76    11011    1   DCL VMA$GET_SITE_NAME ENTRY(4) ALTRET;
       77    11012    1   DCL VMD$PUT_PROFILE   ENTRY(1) ALTRET;
       78    11013    1   DCL VOM$PROCESS ENTRY;
       79    11014    1   DCL ASZ$SCRAMBLE ENTRY(1);
       80    11015
       81    11016             %B$TCB (STCLASS="BASED(B$TCB$)");
       82    11019
       83    11020             %B$ALT;
       84    11028
       85    11029             %EQU_CG;
PL6.E3A0      #001=VOM$MAILMAN File=VOM$MAILMAN.:VMB6TSI                         WED 08/20/97 15:31 Page:4
       86    11077
       87    11078             %B$CGAURD;
       88    11097              %VM_HEADER;
       89    11226
       90    11227
       91    11228             %VM_PROFILE;
       92    11315
       93    11316             %VM_KEYTYPES;
       94    11337
       95    11338             %VM_BODYKEY;
       96    11358
       97    11359             %VM_ADDTYPES;
       98    11363
       99    11364        %XUD$UTS_ENTRIES;
      100    11396
      101    11397
      102    11398        %EJECT;
PL6.E3A0      #001=VOM$MAILMAN File=VOM$MAILMAN.:VMB6TSI                         WED 08/20/97 15:31 Page:5
      103    11399                                                /*
      104    11400                                                     Externals
      105    11401                                                                               */
      106    11402
      107    11403    1   DCL MAIL_IN DCB;
      108    11404    1   DCL SITE_IN DCB;
      109    11405
      110    11406    1   DCL MAP_FILE DCB;
      111    11407    1   DCL M$LM DCB;
      112    11408
      113    11409    1   DCL SAVE$ PTR ALIGNED;
      114    11410
      115    11411    1   DCL 1 B_VERSION SYMREF READONLY,
      116    11412    1         2 L UBIN BYTE CALIGNED,
      117    11413    1         2 C CHAR (B_VERSION.L);
      118    11414
      119    11415    1   DCL VOM$XCON ENTRY ASYNC;
      120    11416    1   DCL VOM$EVENT ENTRY ASYNC;
      121    11417    1   DCL VOM$ADDENTRY ENTRY(4);
      122    11418    1   DCL VOM$ADDENTRY_SORTED ENTRY(4);
      123    11419    1   DCL VOM$DELENTRY ENTRY(3);
      124    11420
      125    11421    1   dcl VOM_INIT_CCTIME    char(10) static symdef init(' ');
      126    11422        /*   VOM_INIT_CCTIME is used by the XCON routine VOM$XCON
      127    11423             to determine if there have been two XCON entries within
      128    11424             the last minute.  If there have been, it will not try to
      129    11425             M$LDTRC to itself.   This value is set at initialization
      130    11426             to be the contents of the first ten words of B$JIT.CCBUF.
      131    11427             When MAILMAN.:SYS issues a M$LDTRC to itself, it stuffs
      132    11428             the current date and time into B$JIT.CCBUF.                 */
      133    11429
      134    11430
      135    11431        %EJECT;
PL6.E3A0      #001=VOM$MAILMAN File=VOM$MAILMAN.:VMB6TSI                         WED 08/20/97 15:31 Page:6
      136    11432        /*  Special symdefs.  These are here rather than VOM_DATA_D/R because
      137    11433            VMM$MESSAGE is in both mail and mailman.  The division between
      138    11434            things in VOM_DATA_D and VM_DATA_D was not done quite right, and
      139    11435            to make a long story short, these things have to be here.
      140    11436        */
      141    11437        %FPT_READ (FPTN=VO_READ_CG, STCLASS="CONSTANT SYMDEF",
      142    11438                  DCB=M$MAIL_COMGROUP,
      143    11439                  BUF=VM_CGBUFFER,
      144    11440                  EVENT = %VOM_READMAIL#,
      145    11441                  WAIT=NO);
      146    11480    1   DCL VO_NEED_READ BIT(1) STATIC SYMDEF INIT ('0'B);
      147    11481    1   DCL VO_PROCESS BIT(1) STATIC SYMDEF INIT('0'B);
      148    11482                                                /*
      149    11483                                                     Fpts
      150    11484                                                                               */
      151    11485
      152    11486                                                /* Buffer gets initialized
      153    11487                                                     to vector(dynamic seg) */
      154    11488
      155    11489             %FPT_XCON      (FPTN=SET_XCON,
      156    11490                                 UENTRY=VOM$XCON);
      157    11504
      158    11505             %FPT_WAIT      (FPTN=WAIT_IT_OUT,
      159    11506                                 UNITS=8464000);
      160    11520
      161    11521                                                /* One whole day */
      162    11522
      163    11523             %FPT_GDS (FPTN=GET_TIME_ENTRY,     /* Get a entry for time */
      164    11524                       SEGSIZE = "SIZEW(TIME_TABLE)",
      165    11525                       RESULTS = TIME_VECTOR,
      166    11526                       FREE = NO);
      167    11542
      168    11543             %VLP_VECTOR (FPTN = TIME_VECTOR);
      169    11558
      170    11559             %FPT_OPEN (FPTN=OPEN_NEXT,
      171    11560                            DCB = MAIL_IN,
      172    11561                       FUN=UPDATE,
PL6.E3A0      #001=VOM$MAILMAN File=VOM$MAILMAN.:VMB6TSI                         WED 08/20/97 15:31 Page:7
      173    11562                            NXTF=YES);
      174    11671
      175    11672             %FPT_OPEN (FPTN=OPEN_FIRST,
      176    11673                            DCB=MAIL_IN,
      177    11674                            NAME=FIRST_NAME,
      178    11675                            ACCT=VM_MAIL_ACCT,
      179    11676                            ASN=FILE,
      180    11677                            SETDCB=YES);
      181    11786
      182    11787             %VLP_NAME (FPTN=FIRST_NAME,
      183    11788                            NAME=':MESS');
      184    11815
      185    11816
      186    11817             %FPT_CLOSE  (FPTN=CLOSE_MAILIN_SAVE,
      187    11818                            STCLASS="STATIC SYMDEF",
      188    11819                            DCB=MAIL_IN,
      189    11820                            DISP=SAVE);
      190    11862
      191    11863             %FPT_CLOSE (FPTN=CLOSE_MAILIN_SCRATCH,
      192    11864                            STCLASS="STATIC SYMDEF",
      193    11865                            DCB=MAIL_IN,
      194    11866                            DISP=RELEASE);
      195    11908
      196    11909             %VLP_ERRCODE (FPTN=MYERROR,
      197    11910                            FCG = "'2617'O",
      198    11911                            MID ="'15'O");
      199    11956
      200    11957              %VLP_ERRCODE (FPTN=ERROR);
      201    12002
      202    12003              %FPT_TIME (FPTN=GET_CURRENT,
      203    12004              SOURCE=CLOCK,
      204    12005              DEST=UTS,
      205    12006              TSTAMP=CURRENT_TIME);
      206    12025        %FPT_WRITE(FPTN=WRITE_MAILCG,DCB=M$MAIL_COMGROUP,STCLASS="STATIC SYMDEF",
      207    12026                   STATION=OUTSTATION,
      208    12027                   BUF=VM_CGBUFFER);
      209    12058
PL6.E3A0      #001=VOM$MAILMAN File=VOM$MAILMAN.:VMB6TSI                         WED 08/20/97 15:31 Page:8
      210    12059             %FPT_OPEN (FPTN=OPEN_MAIL,
      211    12060                            STCLASS = "STATIC SYMDEF",
      212    12061                            DCB=MAIL_IN,
      213    12062                            ACCT=VM_MAIL_ACCT,
      214    12063                            NAME=MAIL_NAME,
      215    12064                            ACS=DIRECT,
      216    12065                            ORG=KEYED,
      217    12066                            FUN=UPDATE,
      218    12067                            ASN=FILE);
      219    12176
      220    12177             %VLP_NAME (FPTN=MAIL_NAME,STCLASS="STATIC SYMDEF",LEN=31,
      221    12178                        NAME='                        ');
      222    12205
      223    12206             %FPT_EVENT (UENTRY=VOM$EVENT);
      224    12220
      225    12221             %FPT_CLOSE (FPTN=CLOSE_RENAME,
      226    12222                            DCB=MAIL_IN,
      227    12223                            NAME=RENAME_NAME,
      228    12224                            CHGATT=YES);
      229    12266
      230    12267             %VLP_NAME  (FPTN=RENAME_NAME);
      231    12294
      232    12295             %VLP_NAME  (FPTN=FIRST_INTERSYS_FILE,
      233    12296                            NAME=':MOVE');
      234    12323        %VLP_STATION (FPTN=OUTSTATION, STCLASS="STATIC SYMDEF",
      235    12324                      ANYDCB=NO);
      236    12351
      237    12352              %FPT_CLOSE (FPTN=CLOSE_COMGROUP,
      238    12353              DCB=M$MAIL_COMGROUP);
      239    12395
      240    12396
      241    12397        %FPT_PRIV (FPTN=SET_FMSEC,PRIV=%PR_FMSEC#);
      242    12412        %FPT_TRUNC (FPTN=TRUNC_BUFF);
      243    12426
      244    12427    1   DCL TESTMODE BIT(1) STATIC INIT('0'B);
      245    12428
      246    12429        %EJECT;
PL6.E3A0      #001=VOM$MAILMAN File=VOM$MAILMAN.:VMB6TSI                         WED 08/20/97 15:31 Page:9
      247    12430
      248    12431        /*
      249    12432             ***** Only run in ghost mode ...
      250    12433        */
      251    12434    1       If B$JIT.MODE ~= %M_GHOST# and not TESTMODE
      252    12435    1       then
      253    12436    1           call M$XXX;
      254    12437        /*
      255    12438             ***** Go!!!
      256    12439        */
      257    12440
      258    12441    1       VOM_INIT_CCTIME = substr(B$JIT.CCBUF,,10);
      259    12442    1       CALL M$SPRIV (SET_FMSEC);
      260    12443    1       IF B$JIT.MODE = %M_GHOST# AND B$JIT.PRIV.ACTIVE.JIT
      261    12444    1       THEN
      262    12445    1           B$JIT.OUTPRIO = 7;     /* Set symbiont priority */
      263    12446    1       IF B$JIT.PRIV.ACTIVE.JIT
      264    12447    2       THEN DO;
      265    12448    2           CALL CONCAT (B$JIT.CCBUF, 'MAILMAN ',B_VERSION.C, ' initializing');
      266    12449    2           CALL INDEX (I, '   ', B$JIT.CCBUF);
      267    12450    2           B$JIT.CCARS = I;
      268    12451    2           B$JIT.JOBNAME = ' ';
      269    12452    2       END;
      270    12453    1       CALL VOM$_SETXCON;
      271    12454        /* Scramble and encode the mail move account password */
      272    12455    1       PASSWORD = VO_INTERSYS_PASSWORD;
      273    12456    1       CALL ASZ$SCRAMBLE (PASSWORD);
      274    12457    2       DO I = 0 TO 11;
      275    12458    2           BIT9(I)=BIT6(I)+ASCBIN(' ');
      276    12459    2       END;
      277    12460    1       VO_INTERSYS_EPASS = EPASS;
      278    12461
      279    12462    1       CALL VOM$_GETBUFS;
      280    12463
      281    12464    1       CALL VOM$RECOVER;
      282    12465
      283    12466    1       CALL M$EVENT(FPT_EVENT) ALTRET(WELL_WHAT_NOW);
PL6.E3A0      #001=VOM$MAILMAN File=VOM$MAILMAN.:VMB6TSI                         WED 08/20/97 15:31 Page:10
      284    12467    1       CALL VOM$_OPENS;                  /* Go open mail cg */
      285    12468
      286    12469    1       CALL M$TIME (GET_CURRENT);
      287    12470
      288    12471    1       VO_MAILMAN_STARTUP_TIME = CURRENT_TIME;
      289    12472
      290    12473    1       CALL M$READ(VO_READ_CG) ALTRET (WELL_WHAT_NOW);
      291    12474
      292    12475    2       DO WHILE ('1'B); /* FOREVER */;
      293    12476
      294    12477    2           CALL M$TIME (GET_CURRENT);  /* Get current time */
      295    12478
      296    12479    2           IF TIME_HEAD$ ~= ADDR(NIL)
      297    12480    2           THEN
      298    12481    3           DO;
      299    12482    3               CALL XUD$UTS_DIFF_SEC(I,TIME_HEAD$->TIME_TABLE.TSTAMP,CURRENT_TIME);
      300    12483    3               I = MINIMUM(I, 30);
      301    12484    3           END;
      302    12485    2           ELSE
      303    12486    2               I = 30;
      304    12487
      305    12488    2           IF I <= 0
      306    12489    3           THEN DO;
      307    12490
      308    12491    3               CALL VOM$DOSEND(TIME_HEAD$); /* Go send current */
      309    12492
      310    12493    3           END;
      311    12494
      312    12495    3           ELSE DO;
      313    12496
      314    12497    3               IF VO_NEED_READ OR VO_PROCESS
      315    12498    3               THEN
      316    12499    3                   EXIT;
      317    12500
      318    12501    3               CALL X66_REL_AUTO;      /* Release excess memory */
      319    12502    3               CALL VOM$SHRINK_SEGMENT(VM_ADDLIST_);
      320    12503    3               CALL VOM$SHRINK_SEGMENT(VM_ADDREC_);
PL6.E3A0      #001=VOM$MAILMAN File=VOM$MAILMAN.:VMB6TSI                         WED 08/20/97 15:31 Page:11
      321    12504    3               CALL VOM$SHRINK_SEGMENT(VM_HEADER_);
      322    12505    3               CALL VOM$SHRINK_SEGMENT(VM_PROFILE_);
      323    12506    3               CALL VOM$SHRINK_SEGMENT(VM_WORK_);
      324    12507    3               CALL VOM$SHRINK_SEGMENT(VM_COPY_);
      325    12508
      326    12509    3               TRUNC_BUFF.V.DCB# = M$MAIL_GLOBAL_NUM; /* Rel. FPOOLs */
      327    12510    3               CALL M$TRUNC(TRUNC_BUFF);
      328    12511    3               TRUNC_BUFF.V.DCB# = M$NODE_NUM;
      329    12512    3               CALL M$TRUNC(TRUNC_BUFF);
      330    12513    3               TRUNC_BUFF.V.DCB# = DCBNUM(M$LM);
      331    12514    3               CALL M$TRUNC(TRUNC_BUFF);
      332    12515    3               WAIT_IT_OUT.V.UNITS# = I;
      333    12516    4               DO INHIBIT;
      334    12517    4                   IF (NOT VO_NEED_READ) AND (NOT VO_PROCESS)
      335    12518    5                   THEN DO;
      336    12519    5                       IF B$JIT.PRIV.ACTIVE.JIT
      337    12520    6                       THEN DO;
      338    12521    6                           CALL CONCAT (B$JIT.CCBUF, 'MAILMAN ',B_VERSION.C, ' idle');
      339    12522    6                           CALL INDEX (I, '   ', B$JIT.CCBUF);
      340    12523    6                           B$JIT.CCARS = I;
      341    12524    6                           B$JIT.JOBNAME = ' ';
      342    12525    6                       END;
      343    12526    5                       CALL M$WAIT(WAIT_IT_OUT);
      344    12527    5                   END;
      345    12528    4               END;
      346    12529    3           END;
      347    12530
      348    12531    3           IF VO_NEED_READ THEN DO;
      349    12532    3               VO_NEED_READ = '0'B;
      350    12533    3               CALL M$READ (VO_READ_CG);
      351    12534    3           END;
      352    12535
      353    12536    2           IF VO_PROCESS THEN CALL VOM$PROCESS;
      354    12537
      355    12538    2           IF VO_INTERSYS_ALLOWED
      356    12539    2           THEN
      357    12540    2               CALL VOM$INTERSYS_RECEIVED;
PL6.E3A0      #001=VOM$MAILMAN File=VOM$MAILMAN.:VMB6TSI                         WED 08/20/97 15:31 Page:12
      358    12541    2       END;                            /* End forever */
      359    12542    1   WELL_WHAT_NOW: ;
      360    12543    1       CALL M$XXX;
      361    12544
      362    12545        %EJECT;
PL6.E3A0      #001=VOM$MAILMAN File=VOM$MAILMAN.:VMB6TSI                         WED 08/20/97 15:31 Page:13
      363    12546
      364    12547    1   VOM$_SETXCON: PROC;
      365    12548
      366    12549    2       CALL M$XCON (SET_XCON) ALTRET(XCON0_ALT);
      367    12550    2   XCON0_ALT: ;
      368    12551
      369    12552    2       RETURN;
      370    12553    2   END VOM$_SETXCON;
      371    12554
      372    12555        %EJECT;
PL6.E3A0      #001=VOM$MAILMAN File=VOM$MAILMAN.:VMB6TSI                         WED 08/20/97 15:31 Page:14
      373    12556
      374    12557    1   VOM$_OPENS: PROC;
      375    12558
      376    12559
      377    12560          %FPT_OPEN      (FPTN=OPEN_COMGROUP,
      378    12561                              DCB=M$MAIL_COMGROUP,
      379    12562                              ASN=COMGROUP,
      380    12563                              SETSTA=MAILMAN_STATION,
      381    12564                              FUN=CREATE,
      382    12565                              EXIST=NEWFILE,
      383    12566                              CTG=YES,
      384    12567                              SHARE=ALL,
      385    12568                              AU=YES,
      386    12569                              IXTNSIZE=30,
      387    12570                              ACCESS=MAILCG_ACCESS,
      388    12571                              ACSVEH=MAILCG_ACSVEH,
      389    12572                              ACCT=VM_MAIL_ACCT,
      390    12573                              NAME=VM_MAILCG_NAME);
      391    12682
      392    12683               %VLP_ATTR (FPTN=MAILCG_ACCESS);
      393    12697               %VLP_ACCESS (NOLIST=YES,EXEC=YES,LAST=";");
      394    12714
      395    12715              %VLP_ATTR (FPTN=MAILCG_ACSVEH);
      396    12729               %VLP_ACSVEH (READ=YES,UPD=YES,WNEW=YES,DELR=YES,VEHICLE='SEND');
      397    12746              %VLP_ACSVEH (READ=YES,UPD=YES,WNEW=YES,DELR=YES,VEHICLE='SEND_TEST');
      398    12763              %VLP_ACSVEH (READ=YES,UPD=YES,WNEW=YES,DELR=YES,VEHICLE='MAIL');
      399    12780              %VLP_ACSVEH (READ=YES,UPD=YES,WNEW=YES,DELR=YES,VEHICLE='MAIL_TEST');
      400    12797              %VLP_ACSVEH (READ=YES,UPD=YES,WNEW=YES,DELR=YES,VEHICLE='MAIL_TEST');
      401    12814              %VLP_ACSVEH (READ=YES,UPD=YES,WNEW=YES,DELR=YES,VEHICLE='MAILMAN',LAST=";");
      402    12831              %VLP_SETSTA (FPTN=MAILMAN_STATION,
      403    12832              STCLASS=CONSTANT,
      404    12833              MYSTATION='MAILMAN');
      405    12861
      406    12862              %FPT_CGCTL    (FPTN=MAIL_CGCTL,
      407    12863              DCB=M$MAIL_COMGROUP,
      408    12864              CGCP=MAILCG_CGCP,
      409    12865              STCLASS=CONSTANT);
PL6.E3A0      #001=VOM$MAILMAN File=VOM$MAILMAN.:VMB6TSI                         WED 08/20/97 15:31 Page:15
      410    12888
      411    12889
      412    12890             %VLP_CGCP      (FPTN=MAILCG_CGCP,
      413    12891                                 MINPG=3,
      414    12892                                 TERMCONAU=NO,
      415    12893                                 TERMCONNAU=NO,
      416    12894                                 AUCONTERM=DISCONNECT, /* was activate */
      417    12895                                 AUDCONTERM=DISCONNECT, /* was activate */
      418    12896                                 WAS=YES,
      419    12897                                 RAS=YES,
      420    12898                                 CONMSG=NO,
      421    12899                                 AUCONDCB=DEACTIVATE, /* was nc */
      422    12900                                 AUDCONDCB=DEACTIVATE,
      423    12901                                 SMD=NO,
      424    12902                                 MAXMC=400,
      425    12903                                 DCBCONNAU=NO,
      426    12904                                 DCBCONLGL=YES,
      427    12905                                 TERMCONLGL=NO,
      428    12906                                 SECURE=NO,
      429    12907                                 XSTALGL=YES,
      430    12908                                 XTYPLGL=YES);
      431    12951
      432    12952    2       CALL M$OPEN (OPEN_COMGROUP) ALTRET (CANT_OPEN_MAILCG);
      433    12953    2       CALL M$CGCTL (MAIL_CGCTL) ALTRET(CANT_OPEN_MAILCG);
      434    12954        /*
      435    12955             ***** If unable to find the definition for this site,
      436    12956                   then turn intersystem mail off ...
      437    12957        */
      438    12958    2       KEY_VALUE = '*IAM';
      439    12959    2       CALL VMA$GET_SITE_NAME(KEY_VALUE,VM_SITENAME)
      440    12960    2       WHENALTRETURN
      441    12961    3       DO;
      442    12962    3           VO_INTERSYS_ALLOWED = %NO#;
      443    12963    3       END;
      444    12964
      445    12965    2       RETURN;
      446    12966
PL6.E3A0      #001=VOM$MAILMAN File=VOM$MAILMAN.:VMB6TSI                         WED 08/20/97 15:31 Page:16
      447    12967    2   CANT_OPEN_MAILCG:;
      448    12968
      449    12969    2       CALL M$XXX;
      450    12970
      451    12971    2   END VOM$_OPENS;
      452    12972
      453    12973        %EJECT;
PL6.E3A0      #001=VOM$MAILMAN File=VOM$MAILMAN.:VMB6TSI                         WED 08/20/97 15:31 Page:17
      454    12974    1   VOM$_GETBUFS: PROC;
      455    12975        /*
      456    12976             ***** How data segments are used in mail/send/mailman ...
      457    12977
      458    12978                   Segments used in all modules
      459    12979                   ----------------------------
      460    12980                   VM_ADDLIST
      461    12981                      - used for building new address list (VMA$EXPAND_LIST).
      462    12982
      463    12983                   VM_HEADER
      464    12984                      - used to contain the header of a message.
      465    12985
      466    12986                   VM_PROFILE
      467    12987                      - used to contain the profile of a folder.
      468    12988
      469    12989                   VM_WORK
      470    12990                      - used to contain list and user definitions when
      471    12991                        expanding an address list.
      472    12992
      473    12993                   Segments used by only mail and send
      474    12994                   -----------------------------------
      475    12995                   VM_PARSEAREA
      476    12996                      - used to contain input and parse info (XUR$GETCMD)
      477    12997
      478    12998                   segments used only by mail
      479    12999                   --------------------------
      480    13000                   VM_SELECT
      481    13001                      - used to contain message selection contexts
      482    13002
      483    13003                   segments used only by mailman
      484    13004                   -----------------------------
      485    13005                   VM_ADDREC
      486    13006                      - used to contain address record to be expanded.
      487    13007
      488    13008                   VM_INPUT
      489    13009                      - used to contain input queue.
      490    13010
PL6.E3A0      #001=VOM$MAILMAN File=VOM$MAILMAN.:VMB6TSI                         WED 08/20/97 15:31 Page:18
      491    13011                   VM_COPY (redef of VM_SELECT)
      492    13012                      - used to move copies of files around.
      493    13013        */
      494    13014    2       CALL VMA$ENLARGE_SEGMENT(VM_ADDLIST_,1024) ALTRET(E_ENLARGE);
      495    13015    2       CALL VMA$ENLARGE_SEGMENT(VM_ADDREC_,1024) ALTRET(E_ENLARGE);
      496    13016    2       CALL VMA$ENLARGE_SEGMENT(VM_HEADER_,1024) ALTRET(E_ENLARGE);
      497    13017    2       CALL VMA$ENLARGE_SEGMENT(VM_PROFILE_,1024) ALTRET(E_ENLARGE);
      498    13018    2       CALL VMA$ENLARGE_SEGMENT(VM_WORK_,1024) ALTRET(E_ENLARGE);
      499    13019    2       CALL VMA$ENLARGE_SEGMENT(VM_INPUT_,1024) ALTRET(E_ENLARGE);
      500    13020
      501    13021    2       CALL VMA$ENLARGE_SEGMENT(VM_COPY_,1024) ALTRET(E_ENLARGE);
      502    13022
      503    13023    2       CALL VMA$OPEN_ENCL_SEGS ALTRET (E_ENLARGE);
      504    13024
      505    13025
      506    13026    2       TIME_HEAD$ = ADDR(NIL);
      507    13027    2       FREE$ = ADDR(NIL);
      508    13028    2       INTERSYS$ = ADDR(NIL);
      509    13029    2       INTERSYS_HEAD$ = ADDR(NIL);
      510    13030    2       MAX$ = PINCRW(VM_INPUT$, 1024);
      511    13031    2       SEG$ = VM_INPUT$;
      512    13032    2       SEG$->TIME_TABLE.NEXT$ = ADDR(NIL);
      513    13033
      514    13034    2       RETURN;
      515    13035        /**/
      516    13036    2   E_ENLARGE:
      517    13037    2       CALL M$XXX;
      518    13038
      519    13039    2   END VOM$_GETBUFS;
      520    13040        %EJECT;
PL6.E3A0      #001=VOM$MAILMAN File=VOM$MAILMAN.:VMB6TSI                         WED 08/20/97 15:31 Page:19
      521    13041    1   VOM$RECOVER: PROC;
      522    13042
      523    13043    2   DCL TIME_NEW$ PTR;
      524    13044
      525    13045    2       CALL M$OPEN (OPEN_FIRST) ALTRET (BAD_OPEN); /* Merge file name */
      526    13046
      527    13047    3       DO WHILE ('1'B); /* FOREVER */;                     /* Do until no more files */
      528    13048
      529    13049    3           CALL M$OPEN (OPEN_NEXT) ALTRET(BAD_OPEN);
      530    13050
      531    13051    3           IF SUBSTR(DCBADDR(DCBNUM(MAIL_IN)) -> F$DCB.NAME#.C,0,5)
      532    13052    3             ~= ':MESS'
      533    13053    3           THEN
      534    13054    4           DO;
      535    13055    4               CALL M$CLOSE (CLOSE_MAILIN_SAVE) ALTRET (BAD_OPEN);
      536    13056    4               RETURN;
      537    13057    4           END;
      538    13058
      539    13059    3           CALL VMD$GET_HEADER (0, DCBNUM(MAIL_IN)) ALTRET (BAD_OPEN);
      540    13060        /*
      541    13061             ***** If no delivery time was specified,
      542    13062                   then deliver as soon as possible.
      543    13063                   Therefore, this entry must be added
      544    13064                   to the time queue with the current time ...
      545    13065        */
      546    13066    3           IF VM_HEADER.DELIVERY_DATE = 0
      547    13067    3           THEN
      548    13068    4           DO;
      549    13069    4               CALL M$TIME (GET_CURRENT);
      550    13070    4               VM_HEADER.DELIVERY_DATE = CURRENT_TIME;
      551    13071    4           END;
      552    13072    3           CALL VOM$ADDENTRY_SORTED(TIME$, %NO#, TIME_HEAD$, DCBNUM(MAIL_IN));
      553    13073    3           CALL M$CLOSE (CLOSE_MAILIN_SAVE) ALTRET(BAD_OPEN);
      554    13074    3   CONTINUE: ;
      555    13075    3       END;                            /* End do forever */
      556    13076
      557    13077    2   BAD_OPEN:;
PL6.E3A0      #001=VOM$MAILMAN File=VOM$MAILMAN.:VMB6TSI                         WED 08/20/97 15:31 Page:20
      558    13078
      559    13079    2       ERROR = B$TCB.ALT$ -> B$ALT.ERR;
      560    13080
      561    13081    2       IF ERROR.ERR# = %E$FDEOF          /* End of file directory */
      562    13082    2       THEN
      563    13083    2           RETURN;
      564    13084
      565    13085    2       CALL M$CLOSE (CLOSE_MAILIN_SCRATCH);
      566    13086    2       GOTO CONTINUE;
      567    13087
      568    13088
      569    13089    2   END VOM$RECOVER;
      570    13090        %EJECT;
PL6.E3A0      #001=VOM$MAILMAN File=VOM$MAILMAN.:VMB6TSI                         WED 08/20/97 15:31 Page:21
      571    13091
      572    13092    1   VOM$INTERSYS_RECEIVED: PROC;
      573    13093
      574    13094    2       OPEN_FIRST.NAME_ = VECTOR(FIRST_INTERSYS_FILE);
      575    13095                       /* After VOM$RECOVERY is done, OPEN_NEXT is only used below */
      576    13096    2       OPEN_NEXT.V.OPER.TEST#=%YES#;
      577    13097
      578    13098    2       CALL M$OPEN (OPEN_FIRST) ALTRET(BAD_OPEN); /* Start at :MOVE */
      579    13099
      580    13100    3       DO WHILE ('1'B); /* FOREVER */;                     /* Do until no more files */
      581    13101
      582    13102    3           CALL M$OPEN (OPEN_NEXT) ALTRET(BAD_OPEN);
      583    13103
      584    13104    3           IF SUBSTR(DCBADDR(DCBNUM(MAIL_IN))->F$DCB.NAME#.C,0,5) ~= ':MOVE'
      585    13105    3           THEN RETURN;
      586    13106
      587    13107    3           RENAME_NAME = DCBADDR(DCBNUM(MAIL_IN))->F$DCB.NAME#;
      588    13108    3           MAIL_NAME = RENAME_NAME;
      589    13109    3           CALL M$OPEN (OPEN_MAIL) ALTRET(BAD_OPEN);
      590    13110    3           CALL INSERT(RENAME_NAME.NAME#,0,SIZEC(':MESS'),':MESS');
      591    13111    3           CALL M$CLOSE (CLOSE_RENAME) ALTRET(BAD_OPEN);
      592    13112
      593    13113    3           MAIL_NAME = RENAME_NAME;
      594    13114    3           CALL M$OPEN (OPEN_MAIL) ALTRET(BAD_OPEN);
      595    13115    3           CALL VMD$GET_HEADER (0, DCBNUM(MAIL_IN)) ALTRET(BAD_OPEN);
      596    13116        /*
      597    13117             ***** If no delivery time was specified,
      598    13118                   then deliver as soon as possible.
      599    13119                   Therefore, this entry must be added
      600    13120                   to the time queue with the current time ...
      601    13121        */
      602    13122    3           IF VM_HEADER.DELIVERY_DATE = 0
      603    13123    3           THEN
      604    13124    4           DO;
      605    13125    4               CALL M$TIME (GET_CURRENT);
      606    13126    4               VM_HEADER.DELIVERY_DATE = CURRENT_TIME;
      607    13127    4           END;
PL6.E3A0      #001=VOM$MAILMAN File=VOM$MAILMAN.:VMB6TSI                         WED 08/20/97 15:31 Page:22
      608    13128    3           CALL VOM$ADDENTRY_SORTED(TIME$, %NO#, TIME_HEAD$, DCBNUM(MAIL_IN));
      609    13129    3           CALL M$CLOSE (CLOSE_MAILIN_SAVE) ALTRET(WHO_CARES);
      610    13130    3   CONTINUE: ;
      611    13131    3       END;
      612    13132
      613    13133    2   BAD_OPEN: ;
      614    13134
      615    13135    2       ERROR = B$TCB.ALT$ ->B$ALT.ERR;
      616    13136
      617    13137    2       IF ERROR.ERR# = %E$FDEOF
      618    13138    2       THEN
      619    13139    2           RETURN;
      620    13140
      621    13141    2       CALL M$CLOSE (CLOSE_MAILIN_SAVE) ALTRET (WHO_CARES);
      622    13142    2   WHO_CARES: ;
      623    13143    2       GOTO CONTINUE;
      624    13144    2   END VOM$INTERSYS_RECEIVED;
      625    13145        %EJECT;
PL6.E3A0      #001=VOM$MAILMAN File=VOM$MAILMAN.:VMB6TSI                         WED 08/20/97 15:31 Page:23
      626    13146    1   VOM$SHRINK_SEGMENT: PROC (VECT_);
      627    13147        /*
      628    13148          ***** Release excess segment space before we go to sleep
      629    13149        */
      630    13150    2   DCL VECT_ VECTOR PARAM;
      631    13151    2   DCL SIZE UBIN;
      632    13152
      633    13153    2       IF VBOUND (VECT_) > 4093
      634    13154    3       THEN DO;
      635    13155    3           SIZE = (VBOUND (VECT_) - 4093) / 4;
      636    13156    3           CALL VMA$SHRINK_SEGMENT (VECT_, SIZE);
      637    13157    3       END;
      638    13158
      639    13159    2       RETURN;
      640    13160
      641    13161    2   END VOM$SHRINK_SEGMENT;
      642    13162
      643    13163    1   END VOM$MAILMAN;
      644    13164        %EOD;

PL6.E3A0      #001=VOM$MAILMAN File=VOM$MAILMAN.:VMB6TSI                         WED 08/20/97 15:31 Page:24
--  Include file information  --

   XUD_UTS_M.:LIB_E05  is referenced.
   B$JIT_C.:LIB_E05  is referenced.
   B$JIT.:LIB_E05  cannot be made into a system file and is referenced.
   VM_PERR_C.:VMB6TOU  is referenced.
   B_ERRORS_C.:LIB_E05  is referenced.
   VO_SUBS_C.:VMB6TOU  is referenced.
   B_MACROS_C.:LIB_E05  is referenced.
   VM_DATA_R.:VMB6TOU  cannot be made into a system file and is referenced.
   CP_6_C.:LIB_E05  is referenced.
   CP_6.:LIB_E05  cannot be made into a system file and is referenced.
   VM_MACRO_C.:VMB6TOU  is referenced.
   VM_SUBS_C.:VMB6TOU  is referenced.
   VOM_DATA_R.:VMB6TOU  cannot be made into a system file and is referenced.
   B_SEGIDS_C.:LIB_E05  is referenced.
   CP_6_SUBS.:LIB_E05  is referenced.
      No diagnostics issued in procedure VOM$MAILMAN.

   Procedure VOM$MAILMAN requires 542 words for executable code.
   Procedure VOM$MAILMAN requires 20 words of local(AUTO) storage.

PL6.E3A0      #001=VOM$MAILMAN File=VOM$MAILMAN.:VMB6TSI                         WED 08/20/97 15:31 Page:25

 Object Unit name= VOM$MAILMAN                                File name= VOM$MAILMAN.:VMB6TOU
 UTS= AUG 20 '97 15:31:38.80 WED                              Compiler= PL-6/E31         Sev=      00
 SharedLib= :SHARED_SYSTEM                                    Alt SharedLib=


    ****  Control sections  ****

 Sect   Type Bound  Init  Size OctSiz  Section name(segment info)
    0   DCB   even  none     0      0  M$UC
    1   DCB   even  none     0      0  M$MAIL_FILE
    2   DCB   even  none     0      0  M$MAIL_CENTRAL
    3   DCB   even  none     0      0  M$MAIL_GLOBAL
    4   DCB   even  none     0      0  M$WORK
    5   DCB   even  none     0      0  M$MAIL_COMGROUP
    6   DCB   even  none     0      0  M$DO
    7   DCB   even  none     0      0  M$LO
    8   DCB   even  none     0      0  M$ME
    9   DCB   even  none     0      0  M$NODE
   10   DCB   even  none     0      0  M$SI
   11   Data  even  none   500    764  VOM$MAILMAN
   12   DCB   even  none     0      0  MAIL_IN
   13   DCB   even  none     0      0  SITE_IN
   14   DCB   even  none     0      0  MAP_FILE
   15   DCB   even  none     0      0  M$LM
   16  RoData even  UTS     92    134  VOM$MAILMAN
   17   Proc  even  none   542   1036  VOM$MAILMAN
   18  RoData even  none    41     51  VOM$MAILMAN

    ****  Entry defs  ****

                              Check   Calling
                             calling  sequence
  Sect OctLoc Primary Altret sequence   type   Parms  Name
    17      0   yes            yes      Main       0  VOM$MAILMAN
PL6.E3A0      #001=VOM$MAILMAN File=VOM$MAILMAN.:VMB6TSI                         WED 08/20/97 15:31 Page:26

  ****  Data defs  ****

 Sect OctLoc  Name                           Sect OctLoc  Name
   11     12  FREE$                             11     13  MAX$
   11     14  SEG$                              11     17  VOM_INIT_CCTIME
   16      0  VO_READ_CG                        11     22  VO_NEED_READ
   11     23  VO_PROCESS                        11    236  CLOSE_MAILIN_SAVE
   11    274  CLOSE_MAILIN_SCRATCH              11    350  WRITE_MAILCG
   11    364  OPEN_MAIL                         11    456  MAIL_NAME
   11    542  OUTSTATION

  ****  Entry refs  ****

         Check        Calling
        calling       sequence
Altret sequence SRef   type   Args  Name
         yes          Async      0 VOM$XCON
         yes          Async      0 VOM$EVENT
 yes     yes           Std       3 XUD$UTS_DIFF_SEC
         yes           Std       0 VOM$PROCESS
         yes           Std       1 ASZ$SCRAMBLE
         yes           Std       0 X66_REL_AUTO
         yes           Std       1 VOM$DOSEND
 yes     yes           Std       4 VMA$GET_SITE_NAME
 yes     yes           Std       2 VMA$ENLARGE_SEGMENT
 yes     yes           Std       0 VMA$OPEN_ENCL_SEGS
 yes     yes           Std       2 VMD$GET_HEADER
         yes           Std       4 VOM$ADDENTRY_SORTED
 yes     yes           Std       2 VMA$SHRINK_SEGMENT
                       nStd      0 X66_MAUTO
                       nStd      0 X66_INDEX
                       nStd      0 X66_MARET
PL6.E3A0      #001=VOM$MAILMAN File=VOM$MAILMAN.:VMB6TSI                         WED 08/20/97 15:31 Page:27

  ****  Data refs  ****

  Flags:  r = read only, s = secondary
Flgs Name                             Flgs Name                             Flgs Name
     M$UC                                  VM_CGBUFFER                           VO_BNWIO
     STATION#                              VO_INTERSYS_ALLOWED                   TIME_HEAD$
     TIME$                                 INTERSYS_HEAD$                        INTERSYS$
r    VO_BUSY_RETRY_MINUTES            r    VO_PACKSET_RETRY_MINUTES         r    VO_MAX_HOLD_HOURS
r    VO_HOG_LIMIT                          VO_MAILMAN_STARTUP_TIME               VO_INTERSYS_PASSWORD
     VO_INTERSYS_EPASS                     VO_INTERSYS_ACCT                      VO_INTERSYS_UNAME
     VO_RETRY_LIMIT_INTERSYSTEM       r    VM_HEADER$                       r    VM_PROFILE$
r    VM_ADDLIST$                      r    VM_ADDREC$                       r    VM_WORK$
r    VM_SELECT$                       r    VM_PARSEAREA$                    r    VM_INPUT$
r    VM_COPY$                              VM_ENCLLIST$                          VM_ENCLREC$
     VM_HEADER_                            VM_HEADER_INIT_                       VM_PROFILE_
     VM_ADDLIST_                           VM_ADDREC_                            VM_WORK_
     VM_SELECT_                            VM_PARSEAREA_                         VM_INPUT_
     VM_COPY_                              VM_ENCLLIST_                          VM_ENCLREC_
     M$MAIL_FILE                           M$MAIL_CENTRAL                        M$MAIL_GLOBAL
     M$WORK                                M$MAIL_COMGROUP                       M$DO
     M$LO                                  M$ME                                  M$NODE
     M$SI                                  M$MAIL_FILE_NUM                       M$MAIL_CENTRAL_NUM
     M$MAIL_GLOBAL_NUM                     M$WORK_NUM                            M$MAIL_COMGROUP_NUM
     M$DO_NUM                              M$ME_NUM                              M$LO_NUM
     M$SI_NUM                              M$NODE_NUM                       r    B$JIT$
r    B$TCB$                                VM_MAIL_ACCT                          VM_NAME_MAP_NAME
     ERRMSG_FID                            VM_SEND_FILE_NAME                     VM_FORWARD_FILE_NAME
     VM_FORWARD_ENCL_NAME                  VM_FORWARD_FILE_PASS                  VM_MAILCG_NAME
     VM_SITENAME                           VM_MAILCG_SETSTA                      MAIL_IN
     SITE_IN                               MAP_FILE                              M$LM
r    B_VERSION
PL6.E3A0      #001=VOM$MAILMAN File=VOM$MAILMAN.:VMB6TSI                         WED 08/20/97 15:31 Page:28

  ****  Segment refs  ****

  Flags:  r = read only, s = secondary
Flgs Name                             Flgs Name                             Flgs Name
     NULLSID                               ISSID                                 ROSID
PL6.E3A0      #001=VOM$MAILMAN File=VOM$MAILMAN.:VMB6TSI                         WED 08/20/97 15:31 Page:29


        1        1        /*M* VOM$MAILMAN  MAILMANs main procedure section */
        2        2        /*T***********************************************************/
        3        3        /*T*                                                         */
        4        4        /*T* Copyright (c) Bull HN Information Systems Inc., 1997    */
        5        5        /*T*                                                         */
        6        6        /*T***********************************************************/
        7        7        /*X* DMC,PLM=4,IND=4,CTI=2,DTI=0,ENI=0,ECI=0,CSI=0,DCI=4 */
        8        8        /*P*      NAME: VOM$MAILMAN
        9        9                  DESCRIPTION: Performs executive mailing functions for
       10       10                       the CP-6 electronic mail system.  These functions
       11       11                       include:
       12       12                       a) recognition of, and distribution of mail to
       13       13                       remotely connected MAILMEN.
       14       14                       b) local distribution of mail based on the address
       15       15                       list contained in the document.
       16       16                       c) deferred distribution of mail based on originator-
       17       17                       specified distribution time.
       18       18                       d) MAIL system recovery, should an automatic software
       19       19                       recovery occur.
       20       20                       e) distribution and delivery of replies for "return
       21       21                       receipt requested" mail.
       22       22                       f) journalling transactions for audit-trail purposes.
       23       23                       g) automatic forwarding of mail received from one
       24       24                       remote MAILMAN to another remote MAILMAN.
       25       25                       h) local distribution of mail received from remote
       26       26                       MAILMEN.
       27       27                                                                          */
       28       28
       29       29
       30       30        %EJECT;
PL6.E3A0      #001=VOM$MAILMAN File=VOM$MAILMAN.:VMB6TSI                         WED 08/20/97 15:31 Page:30
       31       31
       32       32
       33       33        VOM$MAILMAN: PROC MAIN;

     33 17 000000   000000 700200 xent  VOM$MAILMAN  TSX0  ! X66_MAUTO
        17 000001   000024 000000                    ZERO    20,0

       34       34        /***** Include files *****/
       35       35          %INCLUDE CP_6_SUBS;
       36      575
       37      576
       38      577          %INCLUDE B_SEGIDS_C;
       39     1116          %INCLUDE VOM_DATA_R;                  /* Also includes CP_6 */
       40     8336          %INCLUDE VM_DATA_R;                   /* Also includes B_MACROS_C */
       41     8767          %INCLUDE VO_SUBS_C;
       42     8818          %INCLUDE B_ERRORS_C;
       43     9945          %F$DCB;
       44    10002          %INCLUDE VM_PERR_C;
       45    10297          %INCLUDE B$JIT;
       46    10900          %INCLUDE XUD_UTS_M;
       47    10982
       48    10983        %EJECT;
PL6.E3A0      #001=VOM$MAILMAN File=VOM$MAILMAN.:VMB6TSI                         WED 08/20/97 15:31 Page:31
       49    10984        /***** Local data *****/
       50    10985    1   DCL I SBIN STATIC;
       51    10986    1   DCL J SBIN STATIC;
       52    10987    1   DCL K SBIN STATIC;
       53    10988    1   DCL CURRENT_TIME UBIN WORD STATIC;
       54    10989    1   DCL EPASS CHAR(12) STATIC;
       55    10990    1   DCL BIT9(0:11) REDEF EPASS UBIN BYTE UNAL;
       56    10991    1   DCL PASSWORD CHAR(8) STATIC;
       57    10992    1   DCL BIT6(0:11) REDEF PASSWORD UBIN(6) UNAL;
       58    10993
       59    10994        /* The next area is the internal TIME_TABLE for mailman */
       60    10995    1   DCL LAST$ PTR STATIC;
       61    10996    1   DCL FREE$ PTR STATIC SYMDEF INIT (ADDR(NIL));/* Head of free entries */
       62    10997    1   DCL MAX$ PTR STATIC SYMDEF ALIGNED;
       63    10998    1   DCL SEG$ PTR STATIC SYMDEF ALIGNED;
       64    10999
       65    11000    1   DCL TYPE SBIN WORD ALIGNED;
       66    11001    1   DCL KEY_VALUE CHAR(8) CALIGNED;
       67    11002    1   DCL SITENAME CHAR(8) CALIGNED;
       68    11003    1   DCL VOM$DOSEND ENTRY(1);
       69    11004
       70    11005    1   DCL X66_REL_AUTO ENTRY;
       71    11006    1   DCL VMA$ENLARGE_SEGMENT ENTRY(2) ALTRET;
       72    11007    1   DCL VMA$SHRINK_SEGMENT ENTRY(2) ALTRET;
       73    11008    1   DCL VMA$OPEN_ENCL_SEGS ENTRY ALTRET;
       74    11009    1   DCL VMD$GET_HEADER    ENTRY(2) ALTRET;
       75    11010    1   DCL VMD$GET_PROFILE   ENTRY(1) ALTRET;
       76    11011    1   DCL VMA$GET_SITE_NAME ENTRY(4) ALTRET;
       77    11012    1   DCL VMD$PUT_PROFILE   ENTRY(1) ALTRET;
       78    11013    1   DCL VOM$PROCESS ENTRY;
       79    11014    1   DCL ASZ$SCRAMBLE ENTRY(1);
       80    11015
       81    11016             %B$TCB (STCLASS="BASED(B$TCB$)");
       82    11019
       83    11020             %B$ALT;
       84    11028
       85    11029             %EQU_CG;
PL6.E3A0      #001=VOM$MAILMAN File=VOM$MAILMAN.:VMB6TSI                         WED 08/20/97 15:31 Page:32
       86    11077
       87    11078             %B$CGAURD;
       88    11097              %VM_HEADER;
       89    11226
       90    11227
       91    11228             %VM_PROFILE;
       92    11315
       93    11316             %VM_KEYTYPES;
       94    11337
       95    11338             %VM_BODYKEY;
       96    11358
       97    11359             %VM_ADDTYPES;
       98    11363
       99    11364        %XUD$UTS_ENTRIES;
      100    11396
      101    11397
      102    11398        %EJECT;
PL6.E3A0      #001=VOM$MAILMAN File=VOM$MAILMAN.:VMB6TSI                         WED 08/20/97 15:31 Page:33
      103    11399                                                /*
      104    11400                                                     Externals
      105    11401                                                                               */
      106    11402
      107    11403    1   DCL MAIL_IN DCB;
      108    11404    1   DCL SITE_IN DCB;
      109    11405
      110    11406    1   DCL MAP_FILE DCB;
      111    11407    1   DCL M$LM DCB;
      112    11408
      113    11409    1   DCL SAVE$ PTR ALIGNED;
      114    11410
      115    11411    1   DCL 1 B_VERSION SYMREF READONLY,
      116    11412    1         2 L UBIN BYTE CALIGNED,
      117    11413    1         2 C CHAR (B_VERSION.L);
      118    11414
      119    11415    1   DCL VOM$XCON ENTRY ASYNC;
      120    11416    1   DCL VOM$EVENT ENTRY ASYNC;
      121    11417    1   DCL VOM$ADDENTRY ENTRY(4);
      122    11418    1   DCL VOM$ADDENTRY_SORTED ENTRY(4);
      123    11419    1   DCL VOM$DELENTRY ENTRY(3);
      124    11420
      125    11421    1   dcl VOM_INIT_CCTIME    char(10) static symdef init(' ');
      126    11422        /*   VOM_INIT_CCTIME is used by the XCON routine VOM$XCON
      127    11423             to determine if there have been two XCON entries within
      128    11424             the last minute.  If there have been, it will not try to
      129    11425             M$LDTRC to itself.   This value is set at initialization
      130    11426             to be the contents of the first ten words of B$JIT.CCBUF.
      131    11427             When MAILMAN.:SYS issues a M$LDTRC to itself, it stuffs
      132    11428             the current date and time into B$JIT.CCBUF.                 */
      133    11429
      134    11430
      135    11431        %EJECT;
PL6.E3A0      #001=VOM$MAILMAN File=VOM$MAILMAN.:VMB6TSI                         WED 08/20/97 15:31 Page:34
      136    11432        /*  Special symdefs.  These are here rather than VOM_DATA_D/R because
      137    11433            VMM$MESSAGE is in both mail and mailman.  The division between
      138    11434            things in VOM_DATA_D and VM_DATA_D was not done quite right, and
      139    11435            to make a long story short, these things have to be here.
      140    11436        */
      141    11437        %FPT_READ (FPTN=VO_READ_CG, STCLASS="CONSTANT SYMDEF",
      142    11438                  DCB=M$MAIL_COMGROUP,
      143    11439                  BUF=VM_CGBUFFER,
      144    11440                  EVENT = %VOM_READMAIL#,
      145    11441                  WAIT=NO);
      146    11480    1   DCL VO_NEED_READ BIT(1) STATIC SYMDEF INIT ('0'B);
      147    11481    1   DCL VO_PROCESS BIT(1) STATIC SYMDEF INIT('0'B);
      148    11482                                                /*
      149    11483                                                     Fpts
      150    11484                                                                               */
      151    11485
      152    11486                                                /* Buffer gets initialized
      153    11487                                                     to vector(dynamic seg) */
      154    11488
      155    11489             %FPT_XCON      (FPTN=SET_XCON,
      156    11490                                 UENTRY=VOM$XCON);
      157    11504
      158    11505             %FPT_WAIT      (FPTN=WAIT_IT_OUT,
      159    11506                                 UNITS=8464000);
      160    11520
      161    11521                                                /* One whole day */
      162    11522
      163    11523             %FPT_GDS (FPTN=GET_TIME_ENTRY,     /* Get a entry for time */
      164    11524                       SEGSIZE = "SIZEW(TIME_TABLE)",
      165    11525                       RESULTS = TIME_VECTOR,
      166    11526                       FREE = NO);
      167    11542
      168    11543             %VLP_VECTOR (FPTN = TIME_VECTOR);
      169    11558
      170    11559             %FPT_OPEN (FPTN=OPEN_NEXT,
      171    11560                            DCB = MAIL_IN,
      172    11561                       FUN=UPDATE,
PL6.E3A0      #001=VOM$MAILMAN File=VOM$MAILMAN.:VMB6TSI                         WED 08/20/97 15:31 Page:35
      173    11562                            NXTF=YES);
      174    11671
      175    11672             %FPT_OPEN (FPTN=OPEN_FIRST,
      176    11673                            DCB=MAIL_IN,
      177    11674                            NAME=FIRST_NAME,
      178    11675                            ACCT=VM_MAIL_ACCT,
      179    11676                            ASN=FILE,
      180    11677                            SETDCB=YES);
      181    11786
      182    11787             %VLP_NAME (FPTN=FIRST_NAME,
      183    11788                            NAME=':MESS');
      184    11815
      185    11816
      186    11817             %FPT_CLOSE  (FPTN=CLOSE_MAILIN_SAVE,
      187    11818                            STCLASS="STATIC SYMDEF",
      188    11819                            DCB=MAIL_IN,
      189    11820                            DISP=SAVE);
      190    11862
      191    11863             %FPT_CLOSE (FPTN=CLOSE_MAILIN_SCRATCH,
      192    11864                            STCLASS="STATIC SYMDEF",
      193    11865                            DCB=MAIL_IN,
      194    11866                            DISP=RELEASE);
      195    11908
      196    11909             %VLP_ERRCODE (FPTN=MYERROR,
      197    11910                            FCG = "'2617'O",
      198    11911                            MID ="'15'O");
      199    11956
      200    11957              %VLP_ERRCODE (FPTN=ERROR);
      201    12002
      202    12003              %FPT_TIME (FPTN=GET_CURRENT,
      203    12004              SOURCE=CLOCK,
      204    12005              DEST=UTS,
      205    12006              TSTAMP=CURRENT_TIME);
      206    12025        %FPT_WRITE(FPTN=WRITE_MAILCG,DCB=M$MAIL_COMGROUP,STCLASS="STATIC SYMDEF",
      207    12026                   STATION=OUTSTATION,
      208    12027                   BUF=VM_CGBUFFER);
      209    12058
PL6.E3A0      #001=VOM$MAILMAN File=VOM$MAILMAN.:VMB6TSI                         WED 08/20/97 15:31 Page:36
      210    12059             %FPT_OPEN (FPTN=OPEN_MAIL,
      211    12060                            STCLASS = "STATIC SYMDEF",
      212    12061                            DCB=MAIL_IN,
      213    12062                            ACCT=VM_MAIL_ACCT,
      214    12063                            NAME=MAIL_NAME,
      215    12064                            ACS=DIRECT,
      216    12065                            ORG=KEYED,
      217    12066                            FUN=UPDATE,
      218    12067                            ASN=FILE);
      219    12176
      220    12177             %VLP_NAME (FPTN=MAIL_NAME,STCLASS="STATIC SYMDEF",LEN=31,
      221    12178                        NAME='                        ');
      222    12205
      223    12206             %FPT_EVENT (UENTRY=VOM$EVENT);
      224    12220
      225    12221             %FPT_CLOSE (FPTN=CLOSE_RENAME,
      226    12222                            DCB=MAIL_IN,
      227    12223                            NAME=RENAME_NAME,
      228    12224                            CHGATT=YES);
      229    12266
      230    12267             %VLP_NAME  (FPTN=RENAME_NAME);
      231    12294
      232    12295             %VLP_NAME  (FPTN=FIRST_INTERSYS_FILE,
      233    12296                            NAME=':MOVE');
      234    12323        %VLP_STATION (FPTN=OUTSTATION, STCLASS="STATIC SYMDEF",
      235    12324                      ANYDCB=NO);
      236    12351
      237    12352              %FPT_CLOSE (FPTN=CLOSE_COMGROUP,
      238    12353              DCB=M$MAIL_COMGROUP);
      239    12395
      240    12396
      241    12397        %FPT_PRIV (FPTN=SET_FMSEC,PRIV=%PR_FMSEC#);
      242    12412        %FPT_TRUNC (FPTN=TRUNC_BUFF);
      243    12426
      244    12427    1   DCL TESTMODE BIT(1) STATIC INIT('0'B);
      245    12428
      246    12429        %EJECT;
PL6.E3A0      #001=VOM$MAILMAN File=VOM$MAILMAN.:VMB6TSI                         WED 08/20/97 15:31 Page:37
      247    12430
      248    12431        /*
      249    12432             ***** Only run in ghost mode ...
      250    12433        */
      251    12434    1       If B$JIT.MODE ~= %M_GHOST# and not TESTMODE

  12434 17 000002   000000 470400 xsym               LDP0    B$JIT$
        17 000003   000000 236100                    LDQ     0,,PR0
        17 000004   740000 376003                    ANQ     -16384,DU
        17 000005   100000 116003                    CMPQ    32768,DU
        17 000006   000013 600000 17                 TZE     s:12441
        17 000007   000620 234000 11                 SZN     TESTMODE
        17 000010   000013 604000 17                 TMI     s:12441

      252    12435    1       then
      253    12436    1           call M$XXX;

  12436 17 000011   000003 713400                    CLIMB   3
        17 000012   000000 401760                    pmme    nvectors=0

      254    12437        /*
      255    12438             ***** Go!!!
      256    12439        */
      257    12440
      258    12441    1       VOM_INIT_CCTIME = substr(B$JIT.CCBUF,,10);

  12441 17 000013   000000 470400 xsym               LDP0    B$JIT$
        17 000014   040000 100500                    MLR     fill='040'O
        17 000015   000033 000012                    ADSC9   27,,PR0                  cn=0,n=10
        17 000016   000017 000012 11                 ADSC9   VOM_INIT_CCTIME          cn=0,n=10

      259    12442    1       CALL M$SPRIV (SET_FMSEC);

  12442 17 000017   000610 630400 11                 EPPR0   SET_FMSEC
        17 000020   020012 713400                    CLIMB   8202
        17 000021   400000 401760                    pmme    nvectors=1

PL6.E3A0      #001=VOM$MAILMAN File=VOM$MAILMAN.:VMB6TSI                         WED 08/20/97 15:31 Page:38
      260    12443    1       IF B$JIT.MODE = %M_GHOST# AND B$JIT.PRIV.ACTIVE.JIT

  12443 17 000022   000000 470400 xsym               LDP0    B$JIT$
        17 000023   000000 236100                    LDQ     0,,PR0
        17 000024   740000 376003                    ANQ     -16384,DU
        17 000025   100000 116003                    CMPQ    32768,DU
        17 000026   000034 601000 17                 TNZ     s:12446
        17 000027   000013 236100                    LDQ     11,,PR0
        17 000030   000040 316007                    CANQ    32,DL
        17 000031   000034 600000 17                 TZE     s:12446

      261    12444    1       THEN
      262    12445    1           B$JIT.OUTPRIO = 7;     /* Set symbiont priority */

  12445 17 000032   007000 236007                    LDQ     3584,DL
        17 000033   000022 552110                    STBQ    18,'10'O,PR0

      263    12446    1       IF B$JIT.PRIV.ACTIVE.JIT

  12446 17 000034   000013 236100                    LDQ     11,,PR0
        17 000035   000040 316007                    CANQ    32,DL
        17 000036   000102 600000 17                 TZE     s:12453

      264    12447    2       THEN DO;

      265    12448    2           CALL CONCAT (B$JIT.CCBUF, 'MAILMAN ',B_VERSION.C, ' initializing');

  12448 17 000037   000000 236000 xsym               LDQ     B_VERSION
        17 000040   000033 772000                    QRL     27
        17 000041   000000 620006                    EAX0    0,QL
        17 000042   000116 237000 16                 LDAQ    MAIL_CGCTL+52
        17 000043   000033 755100                    STA     27,,PR0
        17 000044   000034 756100                    STQ     28,,PR0
        17 000045   040100 100440                    MLR     fill='040'O
        17 000046   000000 200010 xsym               ADSC9   B_VERSION                cn=1,n=*X0
        17 000047   000035 000370                    ADSC9   29,,PR0                  cn=0,n=248
        17 000050   000000 636010                    EAQ     0,X0
PL6.E3A0      #001=VOM$MAILMAN File=VOM$MAILMAN.:VMB6TSI                         WED 08/20/97 15:31 Page:39
        17 000051   000022 772000                    QRL     18
        17 000052   000370 116007                    CMPQ    248,DL
        17 000053   000064 603000 17                 TRC     s:12449
        17 000054   200016 740100                    STX0    SIZE+2,,AUTO
        17 000055   777407 620010                    EAX0    -249,X0
        17 000056   777777 660003                    ERX0    -1,DU
        17 000057   200016 236100                    LDQ     SIZE+2,,AUTO
        17 000060   000022 772000                    QRL     18
        17 000061   040146 100400                    MLR     fill='040'O
        17 000062   000120 000015 16                 ADSC9   MAIL_CGCTL+54            cn=0,n=13
        17 000063   000035 000010                    ADSC9   29,Q,PR0                 cn=0,n=*X0

      266    12449    2           CALL INDEX (I, '   ', B$JIT.CCBUF);

  12449 17 000064   000000 631400 11                 EPPR1   I
        17 000065   000124 633400 16                 EPPR3   MAIL_CGCTL+58
        17 000066   000003 223003                    LDX3    3,DU
        17 000067   000033 630500                    EPPR0   27,,PR0
        17 000070   000400 220003                    LDX0    256,DU
        17 000071   000000 236003                    LDQ     0,DU
        17 000072   000000 701000 xent               TSX1    X66_INDEX
        17 000073   000000 011000                    NOP     0

      267    12450    2           B$JIT.CCARS = I;

  12450 17 000074   000000 721000 11                 LXL1    I
        17 000075   000000 470400 xsym               LDP0    B$JIT$
        17 000076   000032 741100                    STX1    26,,PR0

      268    12451    2           B$JIT.JOBNAME = ' ';

  12451 17 000077   040100 100400                    MLR     fill='040'O
        17 000100   000000 000001 18                 ADSC9   0                        cn=0,n=1
        17 000101   000156 200037                    ADSC9   110,,PR0                 cn=1,n=31

      269    12452    2       END;

PL6.E3A0      #001=VOM$MAILMAN File=VOM$MAILMAN.:VMB6TSI                         WED 08/20/97 15:31 Page:40
      270    12453    1       CALL VOM$_SETXCON;

  12453 17 000102   000405 701000 17                 TSX1    VOM$_SETXCON
        17 000103   000000 011000                    NOP     0

      271    12454        /* Scramble and encode the mail move account password */
      272    12455    1       PASSWORD = VO_INTERSYS_PASSWORD;

  12455 17 000104   040000 100400                    MLR     fill='040'O
        17 000105   000000 000010 xsym               ADSC9   VO_INTERSYS_PASSWORD     cn=0,n=8
        17 000106   000007 000010 11                 ADSC9   PASSWORD                 cn=0,n=8

      273    12456    1       CALL ASZ$SCRAMBLE (PASSWORD);

  12456 17 000107   000002 630400 18                 EPPR0   2
        17 000110   000001 631400 18                 EPPR1   1
        17 000111   000000 701000 xent               TSX1    ASZ$SCRAMBLE
        17 000112   000000 011000                    NOP     0

      274    12457    2       DO I = 0 TO 11;

  12457 17 000113   000000 450000 11                 STZ     I

      275    12458    2           BIT9(I)=BIT6(I)+ASCBIN(' ');

  12458 17 000114   000000 235000 11                 LDA     I
        17 000115   000117 605000 17                 TPL     s:12458+3
        17 000116   000006 035003                    ADLA    6,DU
        17 000117   000100 101405                    MRL     fill='000'O
        17 000120   000007 020001 11                 ADSC6   PASSWORD,A               cn=0,n=1
        17 000121   200017 020006                    ADSC6   SIZE+3,,AUTO             cn=0,n=6
        17 000122   200017 236100                    LDQ     SIZE+3,,AUTO
        17 000123   000040 036007                    ADLQ    32,DL
        17 000124   200016 756100                    STQ     SIZE+2,,AUTO
        17 000125   000000 235000 11                 LDA     I
        17 000126   000005 101500                    MRL     fill='000'O
        17 000127   200016 000004                    ADSC9   SIZE+2,,AUTO             cn=0,n=4
PL6.E3A0      #001=VOM$MAILMAN File=VOM$MAILMAN.:VMB6TSI                         WED 08/20/97 15:31 Page:41
        17 000130   000004 000001 11                 ADSC9   EPASS,A                  cn=0,n=1

      276    12459    2       END;

  12459 17 000131   000000 054000 11                 AOS     I
        17 000132   000000 235000 11                 LDA     I
        17 000133   000013 115007                    CMPA    11,DL
        17 000134   000114 604400 17                 TMOZ    s:12458

      277    12460    1       VO_INTERSYS_EPASS = EPASS;

  12460 17 000135   040000 100400                    MLR     fill='040'O
        17 000136   000004 000014 11                 ADSC9   EPASS                    cn=0,n=12
        17 000137   000000 000014 xsym               ADSC9   VO_INTERSYS_EPASS        cn=0,n=12

      278    12461
      279    12462    1       CALL VOM$_GETBUFS;

  12462 17 000140   000450 701000 17                 TSX1    VOM$_GETBUFS
        17 000141   000000 011000                    NOP     0

      280    12463
      281    12464    1       CALL VOM$RECOVER;

  12464 17 000142   000533 701000 17                 TSX1    VOM$RECOVER
        17 000143   000000 011000                    NOP     0

      282    12465
      283    12466    1       CALL M$EVENT(FPT_EVENT) ALTRET(WELL_WHAT_NOW);

  12466 17 000144   000466 630400 11                 EPPR0   FPT_EVENT
        17 000145   410001 713400                    CLIMB   alt,+4097
        17 000146   400000 401760                    pmme    nvectors=1
        17 000147   000402 702000 17                 TSX2    WELL_WHAT_NOW

      284    12467    1       CALL VOM$_OPENS;                  /* Go open mail cg */

PL6.E3A0      #001=VOM$MAILMAN File=VOM$MAILMAN.:VMB6TSI                         WED 08/20/97 15:31 Page:42
  12467 17 000150   000414 701000 17                 TSX1    VOM$_OPENS
        17 000151   000000 011000                    NOP     0

      285    12468
      286    12469    1       CALL M$TIME (GET_CURRENT);

  12469 17 000152   000334 630400 11                 EPPR0   GET_CURRENT
        17 000153   020004 713400                    CLIMB   8196
        17 000154   402000 401760                    pmme    nvectors=5

      287    12470
      288    12471    1       VO_MAILMAN_STARTUP_TIME = CURRENT_TIME;

  12471 17 000155   000003 235000 11                 LDA     CURRENT_TIME
        17 000156   000000 755000 xsym               STA     VO_MAILMAN_STARTUP_TIME

      289    12472
      290    12473    1       CALL M$READ(VO_READ_CG) ALTRET (WELL_WHAT_NOW);

  12473 17 000157   000000 630400 16                 EPPR0   VO_READ_CG
        17 000160   440000 713400                    CLIMB   alt,read
        17 000161   401400 401760                    pmme    nvectors=4
        17 000162   000402 702000 17                 TSX2    WELL_WHAT_NOW

      291    12474
      292    12475    2       DO WHILE ('1'B); /* FOREVER */;

      293    12476
      294    12477    2           CALL M$TIME (GET_CURRENT);  /* Get current time */

  12477 17 000163   000334 630400 11                 EPPR0   GET_CURRENT
        17 000164   020004 713400                    CLIMB   8196
        17 000165   402000 401760                    pmme    nvectors=5

      295    12478
      296    12479    2           IF TIME_HEAD$ ~= ADDR(NIL)

PL6.E3A0      #001=VOM$MAILMAN File=VOM$MAILMAN.:VMB6TSI                         WED 08/20/97 15:31 Page:43
  12479 17 000166   000000 236000 xsym               LDQ     TIME_HEAD$
        17 000167   000003 116000 18                 CMPQ    3
        17 000170   000212 600000 17                 TZE     s:12486

      297    12480    2           THEN
      298    12481    3           DO;

      299    12482    3               CALL XUD$UTS_DIFF_SEC(I,TIME_HEAD$->TIME_TABLE.TSTAMP,CURRENT_TIME);

  12482 17 000171   000005 236000 18                 LDQ     5
        17 000172   200020 756100                    STQ     SIZE+4,,AUTO
        17 000173   000000 236000 xsym               LDQ     TIME_HEAD$
        17 000174   000002 036003                    ADLQ    2,DU
        17 000175   000006 235000 18                 LDA     6
        17 000176   200016 757100                    STAQ    SIZE+2,,AUTO
        17 000177   200016 630500                    EPPR0   SIZE+2,,AUTO
        17 000200   000004 631400 18                 EPPR1   4
        17 000201   000000 701000 xent               TSX1    XUD$UTS_DIFF_SEC
        17 000202   000000 011000                    NOP     0

      300    12483    3               I = MINIMUM(I, 30);

  12483 17 000203   000036 236007                    LDQ     30,DL
        17 000204   000207 604000 17                 TMI     s:12483+4
        17 000205   000000 116000 11                 CMPQ    I
        17 000206   000210 604400 17                 TMOZ    s:12483+5
        17 000207   000000 236000 11                 LDQ     I
        17 000210   000000 756000 11                 STQ     I

      301    12484    3           END;

  12484 17 000211   000214 710000 17                 TRA     s:12488

      302    12485    2           ELSE
      303    12486    2               I = 30;

  12486 17 000212   000036 235007                    LDA     30,DL
PL6.E3A0      #001=VOM$MAILMAN File=VOM$MAILMAN.:VMB6TSI                         WED 08/20/97 15:31 Page:44
        17 000213   000000 755000 11                 STA     I

      304    12487
      305    12488    2           IF I <= 0

  12488 17 000214   000000 235000 11                 LDA     I
        17 000215   000223 605400 17                 TPNZ    s:12497

      306    12489    3           THEN DO;

      307    12490
      308    12491    3               CALL VOM$DOSEND(TIME_HEAD$); /* Go send current */

  12491 17 000216   000007 630400 18                 EPPR0   7
        17 000217   000001 631400 18                 EPPR1   1
        17 000220   000000 701000 xent               TSX1    VOM$DOSEND
        17 000221   000000 011000                    NOP     0

      309    12492
      310    12493    3           END;

  12493 17 000222   000362 710000 17                 TRA     s:12531

      311    12494
      312    12495    3           ELSE DO;

      313    12496
      314    12497    3               IF VO_NEED_READ OR VO_PROCESS

  12497 17 000223   000022 234000 11                 SZN     VO_NEED_READ
        17 000224   000362 604000 17                 TMI     s:12531
        17 000225   000023 234000 11                 SZN     VO_PROCESS
        17 000226   000362 604000 17                 TMI     s:12531

      315    12498    3               THEN
      316    12499    3                   EXIT;
      317    12500
PL6.E3A0      #001=VOM$MAILMAN File=VOM$MAILMAN.:VMB6TSI                         WED 08/20/97 15:31 Page:45
      318    12501    3               CALL X66_REL_AUTO;      /* Release excess memory */

  12501 17 000227   000010 631400 18                 EPPR1   8
        17 000230   000000 701000 xent               TSX1    X66_REL_AUTO
        17 000231   000000 011000                    NOP     0

      319    12502    3               CALL VOM$SHRINK_SEGMENT(VM_ADDLIST_);

  12502 17 000232   000011 236000 18                 LDQ     9
        17 000233   200013 756100                    STQ     SAVE$+3,,AUTO
        17 000234   001010 701000 17                 TSX1    VOM$SHRINK_SEGMENT
        17 000235   000000 011000                    NOP     0

      320    12503    3               CALL VOM$SHRINK_SEGMENT(VM_ADDREC_);

  12503 17 000236   000012 236000 18                 LDQ     10
        17 000237   200013 756100                    STQ     SAVE$+3,,AUTO
        17 000240   001010 701000 17                 TSX1    VOM$SHRINK_SEGMENT
        17 000241   000000 011000                    NOP     0

      321    12504    3               CALL VOM$SHRINK_SEGMENT(VM_HEADER_);

  12504 17 000242   000013 236000 18                 LDQ     11
        17 000243   200013 756100                    STQ     SAVE$+3,,AUTO
        17 000244   001010 701000 17                 TSX1    VOM$SHRINK_SEGMENT
        17 000245   000000 011000                    NOP     0

      322    12505    3               CALL VOM$SHRINK_SEGMENT(VM_PROFILE_);

  12505 17 000246   000014 236000 18                 LDQ     12
        17 000247   200013 756100                    STQ     SAVE$+3,,AUTO
        17 000250   001010 701000 17                 TSX1    VOM$SHRINK_SEGMENT
        17 000251   000000 011000                    NOP     0

      323    12506    3               CALL VOM$SHRINK_SEGMENT(VM_WORK_);

  12506 17 000252   000015 236000 18                 LDQ     13
PL6.E3A0      #001=VOM$MAILMAN File=VOM$MAILMAN.:VMB6TSI                         WED 08/20/97 15:31 Page:46
        17 000253   200013 756100                    STQ     SAVE$+3,,AUTO
        17 000254   001010 701000 17                 TSX1    VOM$SHRINK_SEGMENT
        17 000255   000000 011000                    NOP     0

      324    12507    3               CALL VOM$SHRINK_SEGMENT(VM_COPY_);

  12507 17 000256   000016 236000 18                 LDQ     14
        17 000257   200013 756100                    STQ     SAVE$+3,,AUTO
        17 000260   001010 701000 17                 TSX1    VOM$SHRINK_SEGMENT
        17 000261   000000 011000                    NOP     0

      325    12508
      326    12509    3               TRUNC_BUFF.V.DCB# = M$MAIL_GLOBAL_NUM; /* Rel. FPOOLs */

  12509 17 000262   000000 720000 xsym               LXL0    M$MAIL_GLOBAL_NUM
        17 000263   000616 740000 11                 STX0    TRUNC_BUFF+2

      327    12510    3               CALL M$TRUNC(TRUNC_BUFF);

  12510 17 000264   000614 630400 11                 EPPR0   TRUNC_BUFF
        17 000265   050003 713400                    CLIMB   20483
        17 000266   400000 401760                    pmme    nvectors=1

      328    12511    3               TRUNC_BUFF.V.DCB# = M$NODE_NUM;

  12511 17 000267   000000 720000 xsym               LXL0    M$NODE_NUM
        17 000270   000616 740000 11                 STX0    TRUNC_BUFF+2

      329    12512    3               CALL M$TRUNC(TRUNC_BUFF);

  12512 17 000271   000614 630400 11                 EPPR0   TRUNC_BUFF
        17 000272   050003 713400                    CLIMB   20483
        17 000273   400000 401760                    pmme    nvectors=1

      330    12513    3               TRUNC_BUFF.V.DCB# = DCBNUM(M$LM);

  12513 17 000274   000000 236007 xsym               LDQ     M$LM,DL
PL6.E3A0      #001=VOM$MAILMAN File=VOM$MAILMAN.:VMB6TSI                         WED 08/20/97 15:31 Page:47
        17 000275   000000 620006                    EAX0    0,QL
        17 000276   000616 740000 11                 STX0    TRUNC_BUFF+2

      331    12514    3               CALL M$TRUNC(TRUNC_BUFF);

  12514 17 000277   000614 630400 11                 EPPR0   TRUNC_BUFF
        17 000300   050003 713400                    CLIMB   20483
        17 000301   400000 401760                    pmme    nvectors=1

      332    12515    3               WAIT_IT_OUT.V.UNITS# = I;

  12515 17 000302   000000 235000 11                 LDA     I
        17 000303   000036 755000 11                 STA     WAIT_IT_OUT+4

      333    12516    4               DO INHIBIT;

      334    12517    4                   IF (NOT VO_NEED_READ) AND (NOT VO_PROCESS)

  12517 17 000304   000022 234200 11                 SZN   ! VO_NEED_READ
        17 000305   000362 604200 17                 TMI   ! s:12531
        17 000306   000023 234200 11                 SZN   ! VO_PROCESS
        17 000307   000362 604200 17                 TMI   ! s:12531

      335    12518    5                   THEN DO;

      336    12519    5                       IF B$JIT.PRIV.ACTIVE.JIT

  12519 17 000310   000000 470600 xsym               LDP0  ! B$JIT$
        17 000311   000013 236300                    LDQ   ! 11,,PR0
        17 000312   000040 316207                    CANQ  ! 32,DL
        17 000313   000357 600200 17                 TZE   ! s:12526

      337    12520    6                       THEN DO;

      338    12521    6                           CALL CONCAT (B$JIT.CCBUF, 'MAILMAN ',B_VERSION.C, ' idle');

  12521 17 000314   000000 236200 xsym               LDQ   ! B_VERSION
PL6.E3A0      #001=VOM$MAILMAN File=VOM$MAILMAN.:VMB6TSI                         WED 08/20/97 15:31 Page:48
        17 000315   000033 772200                    QRL   ! 27
        17 000316   000000 620206                    EAX0  ! 0,QL
        17 000317   000116 237200 16                 LDAQ  ! MAIL_CGCTL+52
        17 000320   000033 755300                    STA   ! 27,,PR0
        17 000321   000034 756300                    STQ   ! 28,,PR0
        17 000322   040100 100640                    MLR   ! fill='040'O
        17 000323   000000 200010 xsym               ADSC9   B_VERSION                cn=1,n=*X0
        17 000324   000035 000370                    ADSC9   29,,PR0                  cn=0,n=248
        17 000325   000000 636210                    EAQ   ! 0,X0
        17 000326   000022 772200                    QRL   ! 18
        17 000327   000370 116207                    CMPQ  ! 248,DL
        17 000330   000341 603200 17                 TRC   ! s:12522
        17 000331   200016 740300                    STX0  ! SIZE+2,,AUTO
        17 000332   777407 620210                    EAX0  ! -249,X0
        17 000333   777777 660203                    ERX0  ! -1,DU
        17 000334   200016 236300                    LDQ   ! SIZE+2,,AUTO
        17 000335   000022 772200                    QRL   ! 18
        17 000336   040146 100600                    MLR   ! fill='040'O
        17 000337   000125 000005 16                 ADSC9   MAIL_CGCTL+59            cn=0,n=5
        17 000340   000035 000010                    ADSC9   29,Q,PR0                 cn=0,n=*X0

      339    12522    6                           CALL INDEX (I, '   ', B$JIT.CCBUF);

  12522 17 000341   000000 631600 11                 EPPR1 ! I
        17 000342   000124 633600 16                 EPPR3 ! MAIL_CGCTL+58
        17 000343   000003 223203                    LDX3  ! 3,DU
        17 000344   000033 630700                    EPPR0 ! 27,,PR0
        17 000345   000400 220203                    LDX0  ! 256,DU
        17 000346   000000 236203                    LDQ   ! 0,DU
        17 000347   000000 701200 xent               TSX1  ! X66_INDEX
        17 000350   000000 011200                    NOP   ! 0

      340    12523    6                           B$JIT.CCARS = I;

  12523 17 000351   000000 721200 11                 LXL1  ! I
        17 000352   000000 470600 xsym               LDP0  ! B$JIT$
        17 000353   000032 741300                    STX1  ! 26,,PR0
PL6.E3A0      #001=VOM$MAILMAN File=VOM$MAILMAN.:VMB6TSI                         WED 08/20/97 15:31 Page:49

      341    12524    6                           B$JIT.JOBNAME = ' ';

  12524 17 000354   040100 100600                    MLR   ! fill='040'O
        17 000355   000000 000001 18                 ADSC9   0                        cn=0,n=1
        17 000356   000156 200037                    ADSC9   110,,PR0                 cn=1,n=31

      342    12525    6                       END;

      343    12526    5                       CALL M$WAIT(WAIT_IT_OUT);

  12526 17 000357   000032 630600 11                 EPPR0 ! WAIT_IT_OUT
        17 000360   020006 713600                    CLIMB ! 8198
        17 000361   400400 401760                    pmme    nvectors=2

      344    12527    5                   END;

      345    12528    4               END;

      346    12529    3           END;

      347    12530
      348    12531    3           IF VO_NEED_READ THEN DO;

  12531 17 000362   000022 234000 11                 SZN     VO_NEED_READ
        17 000363   000370 605000 17                 TPL     s:12536

      349    12532    3               VO_NEED_READ = '0'B;

  12532 17 000364   000022 450000 11                 STZ     VO_NEED_READ

      350    12533    3               CALL M$READ (VO_READ_CG);

  12533 17 000365   000000 630400 16                 EPPR0   VO_READ_CG
        17 000366   040000 713400                    CLIMB   read
        17 000367   401400 401760                    pmme    nvectors=4

PL6.E3A0      #001=VOM$MAILMAN File=VOM$MAILMAN.:VMB6TSI                         WED 08/20/97 15:31 Page:50
      351    12534    3           END;

      352    12535
      353    12536    2           IF VO_PROCESS THEN CALL VOM$PROCESS;

  12536 17 000370   000023 234000 11                 SZN     VO_PROCESS
        17 000371   000375 605000 17                 TPL     s:12538

  12536 17 000372   000010 631400 18                 EPPR1   8
        17 000373   000000 701000 xent               TSX1    VOM$PROCESS
        17 000374   000000 011000                    NOP     0

      354    12537
      355    12538    2           IF VO_INTERSYS_ALLOWED

  12538 17 000375   000000 234000 xsym               SZN     VO_INTERSYS_ALLOWED
        17 000376   000163 605000 17                 TPL     s:12477

      356    12539    2           THEN
      357    12540    2               CALL VOM$INTERSYS_RECEIVED;

  12540 17 000377   000644 701000 17                 TSX1    VOM$INTERSYS_RECEIVED
        17 000400   000000 011000                    NOP     0

      358    12541    2       END;                            /* End forever */

  12541 17 000401   000163 710000 17                 TRA     s:12477

  12532 17 000402                       WELL_WHAT_N* null
      359    12542    1   WELL_WHAT_NOW: ;
      360    12543    1       CALL M$XXX;

  12543 17 000402   000003 713400                    CLIMB   3
        17 000403   000000 401760                    pmme    nvectors=0
        17 000404   001035 710000 17                 TRA     s:13163

      361    12544
PL6.E3A0      #001=VOM$MAILMAN File=VOM$MAILMAN.:VMB6TSI                         WED 08/20/97 15:31 Page:51
      362    12545        %EJECT;
PL6.E3A0      #001=VOM$MAILMAN File=VOM$MAILMAN.:VMB6TSI                         WED 08/20/97 15:31 Page:52
      363    12546
      364    12547    1   VOM$_SETXCON: PROC;

  12547 17 000405   200012 741300       VOM$_SETXCON STX1  ! SAVE$+2,,AUTO

      365    12548
      366    12549    2       CALL M$XCON (SET_XCON) ALTRET(XCON0_ALT);

  12549 17 000406   000024 630400 11                 EPPR0   SET_XCON
        17 000407   410003 713400                    CLIMB   alt,+4099
        17 000410   400400 401760                    pmme    nvectors=2
        17 000411   000412 702000 17                 TSX2    XCON0_ALT

  12549 17 000412                       XCON0_ALT    null
      367    12550    2   XCON0_ALT: ;
      368    12551
      369    12552    2       RETURN;

  12552 17 000412   200012 221300                    LDX1  ! SAVE$+2,,AUTO
        17 000413   000001 702211                    TSX2  ! 1,X1

      370    12553    2   END VOM$_SETXCON;
      371    12554
      372    12555        %EJECT;
PL6.E3A0      #001=VOM$MAILMAN File=VOM$MAILMAN.:VMB6TSI                         WED 08/20/97 15:31 Page:53
      373    12556
      374    12557    1   VOM$_OPENS: PROC;

  12557 17 000414   200012 741300       VOM$_OPENS   STX1  ! SAVE$+2,,AUTO

      375    12558
      376    12559
      377    12560          %FPT_OPEN      (FPTN=OPEN_COMGROUP,
      378    12561                              DCB=M$MAIL_COMGROUP,
      379    12562                              ASN=COMGROUP,
      380    12563                              SETSTA=MAILMAN_STATION,
      381    12564                              FUN=CREATE,
      382    12565                              EXIST=NEWFILE,
      383    12566                              CTG=YES,
      384    12567                              SHARE=ALL,
      385    12568                              AU=YES,
      386    12569                              IXTNSIZE=30,
      387    12570                              ACCESS=MAILCG_ACCESS,
      388    12571                              ACSVEH=MAILCG_ACSVEH,
      389    12572                              ACCT=VM_MAIL_ACCT,
      390    12573                              NAME=VM_MAILCG_NAME);
      391    12682
      392    12683               %VLP_ATTR (FPTN=MAILCG_ACCESS);
      393    12697               %VLP_ACCESS (NOLIST=YES,EXEC=YES,LAST=";");
      394    12714
      395    12715              %VLP_ATTR (FPTN=MAILCG_ACSVEH);
      396    12729               %VLP_ACSVEH (READ=YES,UPD=YES,WNEW=YES,DELR=YES,VEHICLE='SEND');
      397    12746              %VLP_ACSVEH (READ=YES,UPD=YES,WNEW=YES,DELR=YES,VEHICLE='SEND_TEST');
      398    12763              %VLP_ACSVEH (READ=YES,UPD=YES,WNEW=YES,DELR=YES,VEHICLE='MAIL');
      399    12780              %VLP_ACSVEH (READ=YES,UPD=YES,WNEW=YES,DELR=YES,VEHICLE='MAIL_TEST');
      400    12797              %VLP_ACSVEH (READ=YES,UPD=YES,WNEW=YES,DELR=YES,VEHICLE='MAIL_TEST');
      401    12814              %VLP_ACSVEH (READ=YES,UPD=YES,WNEW=YES,DELR=YES,VEHICLE='MAILMAN',LAST=";");
      402    12831              %VLP_SETSTA (FPTN=MAILMAN_STATION,
      403    12832              STCLASS=CONSTANT,
      404    12833              MYSTATION='MAILMAN');
      405    12861
      406    12862              %FPT_CGCTL    (FPTN=MAIL_CGCTL,
PL6.E3A0      #001=VOM$MAILMAN File=VOM$MAILMAN.:VMB6TSI                         WED 08/20/97 15:31 Page:54
      407    12863              DCB=M$MAIL_COMGROUP,
      408    12864              CGCP=MAILCG_CGCP,
      409    12865              STCLASS=CONSTANT);
      410    12888
      411    12889
      412    12890             %VLP_CGCP      (FPTN=MAILCG_CGCP,
      413    12891                                 MINPG=3,
      414    12892                                 TERMCONAU=NO,
      415    12893                                 TERMCONNAU=NO,
      416    12894                                 AUCONTERM=DISCONNECT, /* was activate */
      417    12895                                 AUDCONTERM=DISCONNECT, /* was activate */
      418    12896                                 WAS=YES,
      419    12897                                 RAS=YES,
      420    12898                                 CONMSG=NO,
      421    12899                                 AUCONDCB=DEACTIVATE, /* was nc */
      422    12900                                 AUDCONDCB=DEACTIVATE,
      423    12901                                 SMD=NO,
      424    12902                                 MAXMC=400,
      425    12903                                 DCBCONNAU=NO,
      426    12904                                 DCBCONLGL=YES,
      427    12905                                 TERMCONLGL=NO,
      428    12906                                 SECURE=NO,
      429    12907                                 XSTALGL=YES,
      430    12908                                 XTYPLGL=YES);
      431    12951
      432    12952    2       CALL M$OPEN (OPEN_COMGROUP) ALTRET (CANT_OPEN_MAILCG);

  12952 17 000415   000622 630400 11                 EPPR0   OPEN_COMGROUP
        17 000416   450000 713400                    CLIMB   alt,open
        17 000417   410400 401760                    pmme    nvectors=18
        17 000420   000444 702000 17                 TSX2    CANT_OPEN_MAILCG

      433    12953    2       CALL M$CGCTL (MAIL_CGCTL) ALTRET(CANT_OPEN_MAILCG);

  12953 17 000421   000032 630400 16                 EPPR0   MAIL_CGCTL
        17 000422   500003 713400                    CLIMB   alt,+32771
        17 000423   411400 401760                    pmme    nvectors=20
PL6.E3A0      #001=VOM$MAILMAN File=VOM$MAILMAN.:VMB6TSI                         WED 08/20/97 15:31 Page:55
        17 000424   000444 702000 17                 TSX2    CANT_OPEN_MAILCG

      434    12954        /*
      435    12955             ***** If unable to find the definition for this site,
      436    12956                   then turn intersystem mail off ...
      437    12957        */
      438    12958    2       KEY_VALUE = '*IAM';

  12958 17 000425   000127 235000 16                 LDA     MAIL_CGCTL+61
        17 000426   000000 236000 18                 LDQ     0
        17 000427   200004 757100                    STAQ    KEY_VALUE,,AUTO

      439    12959    2       CALL VMA$GET_SITE_NAME(KEY_VALUE,VM_SITENAME)

  12959 17 000430   000020 236000 18                 LDQ     16
        17 000431   200017 756100                    STQ     SIZE+3,,AUTO
        17 000432   200004 630500                    EPPR0   KEY_VALUE,,AUTO
        17 000433   200016 450500                    STP0    SIZE+2,,AUTO
        17 000434   200016 630500                    EPPR0   SIZE+2,,AUTO
        17 000435   000017 631400 18                 EPPR1   15
        17 000436   000000 701000 xent               TSX1    VMA$GET_SITE_NAME
        17 000437   000441 702000 17                 TSX2    s:12962
        17 000440   000442 710000 17                 TRA     s:12965

      440    12960    2       WHENALTRETURN
      441    12961    3       DO;

      442    12962    3           VO_INTERSYS_ALLOWED = %NO#;

  12962 17 000441   000000 450000 xsym               STZ     VO_INTERSYS_ALLOWED

      443    12963    3       END;

      444    12964
      445    12965    2       RETURN;

  12965 17 000442   200012 221300                    LDX1  ! SAVE$+2,,AUTO
PL6.E3A0      #001=VOM$MAILMAN File=VOM$MAILMAN.:VMB6TSI                         WED 08/20/97 15:31 Page:56
        17 000443   000001 702211                    TSX2  ! 1,X1

  12958 17 000444                       CANT_OPEN_M* null
      446    12966
      447    12967    2   CANT_OPEN_MAILCG:;
      448    12968
      449    12969    2       CALL M$XXX;

  12969 17 000444   000003 713400                    CLIMB   3
        17 000445   000000 401760                    pmme    nvectors=0

      450    12970
      451    12971    2   END VOM$_OPENS;

  12971 17 000446   200012 221300                    LDX1  ! SAVE$+2,,AUTO
        17 000447   000001 702211                    TSX2  ! 1,X1

      452    12972
      453    12973        %EJECT;
PL6.E3A0      #001=VOM$MAILMAN File=VOM$MAILMAN.:VMB6TSI                         WED 08/20/97 15:31 Page:57
      454    12974    1   VOM$_GETBUFS: PROC;

  12974 17 000450   200012 741300       VOM$_GETBUFS STX1  ! SAVE$+2,,AUTO

      455    12975        /*
      456    12976             ***** How data segments are used in mail/send/mailman ...
      457    12977
      458    12978                   Segments used in all modules
      459    12979                   ----------------------------
      460    12980                   VM_ADDLIST
      461    12981                      - used for building new address list (VMA$EXPAND_LIST).
      462    12982
      463    12983                   VM_HEADER
      464    12984                      - used to contain the header of a message.
      465    12985
      466    12986                   VM_PROFILE
      467    12987                      - used to contain the profile of a folder.
      468    12988
      469    12989                   VM_WORK
      470    12990                      - used to contain list and user definitions when
      471    12991                        expanding an address list.
      472    12992
      473    12993                   Segments used by only mail and send
      474    12994                   -----------------------------------
      475    12995                   VM_PARSEAREA
      476    12996                      - used to contain input and parse info (XUR$GETCMD)
      477    12997
      478    12998                   segments used only by mail
      479    12999                   --------------------------
      480    13000                   VM_SELECT
      481    13001                      - used to contain message selection contexts
      482    13002
      483    13003                   segments used only by mailman
      484    13004                   -----------------------------
      485    13005                   VM_ADDREC
      486    13006                      - used to contain address record to be expanded.
      487    13007
PL6.E3A0      #001=VOM$MAILMAN File=VOM$MAILMAN.:VMB6TSI                         WED 08/20/97 15:31 Page:58
      488    13008                   VM_INPUT
      489    13009                      - used to contain input queue.
      490    13010
      491    13011                   VM_COPY (redef of VM_SELECT)
      492    13012                      - used to move copies of files around.
      493    13013        */
      494    13014    2       CALL VMA$ENLARGE_SEGMENT(VM_ADDLIST_,1024) ALTRET(E_ENLARGE);

  13014 17 000451   000022 630400 18                 EPPR0   18
        17 000452   000017 631400 18                 EPPR1   15
        17 000453   000000 701000 xent               TSX1    VMA$ENLARGE_SEGMENT
        17 000454   000527 702000 17                 TSX2    E_ENLARGE

      495    13015    2       CALL VMA$ENLARGE_SEGMENT(VM_ADDREC_,1024) ALTRET(E_ENLARGE);

  13015 17 000455   000024 630400 18                 EPPR0   20
        17 000456   000017 631400 18                 EPPR1   15
        17 000457   000000 701000 xent               TSX1    VMA$ENLARGE_SEGMENT
        17 000460   000527 702000 17                 TSX2    E_ENLARGE

      496    13016    2       CALL VMA$ENLARGE_SEGMENT(VM_HEADER_,1024) ALTRET(E_ENLARGE);

  13016 17 000461   000026 630400 18                 EPPR0   22
        17 000462   000017 631400 18                 EPPR1   15
        17 000463   000000 701000 xent               TSX1    VMA$ENLARGE_SEGMENT
        17 000464   000527 702000 17                 TSX2    E_ENLARGE

      497    13017    2       CALL VMA$ENLARGE_SEGMENT(VM_PROFILE_,1024) ALTRET(E_ENLARGE);

  13017 17 000465   000030 630400 18                 EPPR0   24
        17 000466   000017 631400 18                 EPPR1   15
        17 000467   000000 701000 xent               TSX1    VMA$ENLARGE_SEGMENT
        17 000470   000527 702000 17                 TSX2    E_ENLARGE

      498    13018    2       CALL VMA$ENLARGE_SEGMENT(VM_WORK_,1024) ALTRET(E_ENLARGE);

  13018 17 000471   000032 630400 18                 EPPR0   26
PL6.E3A0      #001=VOM$MAILMAN File=VOM$MAILMAN.:VMB6TSI                         WED 08/20/97 15:31 Page:59
        17 000472   000017 631400 18                 EPPR1   15
        17 000473   000000 701000 xent               TSX1    VMA$ENLARGE_SEGMENT
        17 000474   000527 702000 17                 TSX2    E_ENLARGE

      499    13019    2       CALL VMA$ENLARGE_SEGMENT(VM_INPUT_,1024) ALTRET(E_ENLARGE);

  13019 17 000475   000034 630400 18                 EPPR0   28
        17 000476   000017 631400 18                 EPPR1   15
        17 000477   000000 701000 xent               TSX1    VMA$ENLARGE_SEGMENT
        17 000500   000527 702000 17                 TSX2    E_ENLARGE

      500    13020
      501    13021    2       CALL VMA$ENLARGE_SEGMENT(VM_COPY_,1024) ALTRET(E_ENLARGE);

  13021 17 000501   000036 630400 18                 EPPR0   30
        17 000502   000017 631400 18                 EPPR1   15
        17 000503   000000 701000 xent               TSX1    VMA$ENLARGE_SEGMENT
        17 000504   000527 702000 17                 TSX2    E_ENLARGE

      502    13022
      503    13023    2       CALL VMA$OPEN_ENCL_SEGS ALTRET (E_ENLARGE);

  13023 17 000505   000010 631400 18                 EPPR1   8
        17 000506   000000 701000 xent               TSX1    VMA$OPEN_ENCL_SEGS
        17 000507   000527 702000 17                 TSX2    E_ENLARGE

      504    13024
      505    13025
      506    13026    2       TIME_HEAD$ = ADDR(NIL);

  13026 17 000510   000003 236000 18                 LDQ     3
        17 000511   000000 756000 xsym               STQ     TIME_HEAD$

      507    13027    2       FREE$ = ADDR(NIL);

  13027 17 000512   000012 756000 11                 STQ     FREE$

PL6.E3A0      #001=VOM$MAILMAN File=VOM$MAILMAN.:VMB6TSI                         WED 08/20/97 15:31 Page:60
      508    13028    2       INTERSYS$ = ADDR(NIL);

  13028 17 000513   000000 756000 xsym               STQ     INTERSYS$

      509    13029    2       INTERSYS_HEAD$ = ADDR(NIL);

  13029 17 000514   000000 756000 xsym               STQ     INTERSYS_HEAD$

      510    13030    2       MAX$ = PINCRW(VM_INPUT$, 1024);

  13030 17 000515   000000 236000 xsym               LDQ     VM_INPUT$
        17 000516   002000 036003                    ADLQ    1024,DU
        17 000517   000013 756000 11                 STQ     MAX$

      511    13031    2       SEG$ = VM_INPUT$;

  13031 17 000520   000000 236000 xsym               LDQ     VM_INPUT$
        17 000521   000014 756000 11                 STQ     SEG$

      512    13032    2       SEG$->TIME_TABLE.NEXT$ = ADDR(NIL);

  13032 17 000522   000003 236000 18                 LDQ     3
        17 000523   000014 470400 11                 LDP0    SEG$
        17 000524   000000 756100                    STQ     0,,PR0

      513    13033
      514    13034    2       RETURN;

  13034 17 000525   200012 221300                    LDX1  ! SAVE$+2,,AUTO
        17 000526   000001 702211                    TSX2  ! 1,X1

      515    13035        /**/
      516    13036    2   E_ENLARGE:
      517    13037    2       CALL M$XXX;

  13037 17 000527   000003 713400       E_ENLARGE    CLIMB   3
        17 000530   000000 401760                    pmme    nvectors=0
PL6.E3A0      #001=VOM$MAILMAN File=VOM$MAILMAN.:VMB6TSI                         WED 08/20/97 15:31 Page:61

      518    13038
      519    13039    2   END VOM$_GETBUFS;

  13039 17 000531   200012 221300                    LDX1  ! SAVE$+2,,AUTO
        17 000532   000001 702211                    TSX2  ! 1,X1

      520    13040        %EJECT;
PL6.E3A0      #001=VOM$MAILMAN File=VOM$MAILMAN.:VMB6TSI                         WED 08/20/97 15:31 Page:62
      521    13041    1   VOM$RECOVER: PROC;

  13041 17 000533   200012 741300       VOM$RECOVER  STX1  ! SAVE$+2,,AUTO

      522    13042
      523    13043    2   DCL TIME_NEW$ PTR;
      524    13044
      525    13045    2       CALL M$OPEN (OPEN_FIRST) ALTRET (BAD_OPEN); /* Merge file name */

  13045 17 000534   000142 630400 11                 EPPR0   OPEN_FIRST
        17 000535   450000 713400                    CLIMB   alt,open
        17 000536   410400 401760                    pmme    nvectors=18
        17 000537   000626 702000 17                 TSX2    BAD_OPEN

      526    13046
      527    13047    3       DO WHILE ('1'B); /* FOREVER */;                    /* Do until no more files */

      528    13048
      529    13049    3           CALL M$OPEN (OPEN_NEXT) ALTRET(BAD_OPEN);

  13049 17 000540   000050 630400 11                 EPPR0   OPEN_NEXT
        17 000541   450000 713400                    CLIMB   alt,open
        17 000542   410400 401760                    pmme    nvectors=18
        17 000543   000626 702000 17                 TSX2    BAD_OPEN

      530    13050
      531    13051    3           IF SUBSTR(DCBADDR(DCBNUM(MAIL_IN)) -> F$DCB.NAME#.C,0,5)

  13051 17 000544   000000 236007 xsym               LDQ     MAIL_IN,DL
        17 000545   000040 470400 18                 LDP0    32
        17 000546   000000 471500                    LDP1    0,,PR0
        17 000547   100000 473506                    LDP3    0,QL,PR1
        17 000550   040000 106500                    CMPC    fill='040'O
        17 000551   300010 200005                    ADSC9   8,,PR3                   cn=1,n=5
        17 000552   000130 000005 16                 ADSC9   MAIL_CGCTL+62            cn=0,n=5
        17 000553   000562 600000 17                 TZE     s:13059

PL6.E3A0      #001=VOM$MAILMAN File=VOM$MAILMAN.:VMB6TSI                         WED 08/20/97 15:31 Page:63
      532    13052    3             ~= ':MESS'
      533    13053    3           THEN
      534    13054    4           DO;

      535    13055    4               CALL M$CLOSE (CLOSE_MAILIN_SAVE) ALTRET (BAD_OPEN);

  13055 17 000554   000236 630400 11                 EPPR0   CLOSE_MAILIN_SAVE
        17 000555   450001 713400                    CLIMB   alt,close
        17 000556   406000 401760                    pmme    nvectors=13
        17 000557   000626 702000 17                 TSX2    BAD_OPEN

      536    13056    4               RETURN;

  13056 17 000560   200012 221300                    LDX1  ! SAVE$+2,,AUTO
        17 000561   000001 702211                    TSX2  ! 1,X1

      537    13057    4           END;
      538    13058
      539    13059    3           CALL VMD$GET_HEADER (0, DCBNUM(MAIL_IN)) ALTRET (BAD_OPEN);

  13059 17 000562   000000 236007 xsym               LDQ     MAIL_IN,DL
        17 000563   200016 756100                    STQ     SIZE+2,,AUTO
        17 000564   200016 633500                    EPPR3   SIZE+2,,AUTO
        17 000565   200021 453500                    STP3    SIZE+5,,AUTO
        17 000566   000041 236000 18                 LDQ     33
        17 000567   200020 756100                    STQ     SIZE+4,,AUTO
        17 000570   200020 630500                    EPPR0   SIZE+4,,AUTO
        17 000571   000017 631400 18                 EPPR1   15
        17 000572   000000 701000 xent               TSX1    VMD$GET_HEADER
        17 000573   000626 702000 17                 TSX2    BAD_OPEN

      540    13060        /*
      541    13061             ***** If no delivery time was specified,
      542    13062                   then deliver as soon as possible.
      543    13063                   Therefore, this entry must be added
      544    13064                   to the time queue with the current time ...
      545    13065        */
PL6.E3A0      #001=VOM$MAILMAN File=VOM$MAILMAN.:VMB6TSI                         WED 08/20/97 15:31 Page:64
      546    13066    3           IF VM_HEADER.DELIVERY_DATE = 0

  13066 17 000574   000000 470400 xsym               LDP0    VM_HEADER$
        17 000575   000002 235100                    LDA     2,,PR0
        17 000576   000605 601000 17                 TNZ     s:13072

      547    13067    3           THEN
      548    13068    4           DO;

      549    13069    4               CALL M$TIME (GET_CURRENT);

  13069 17 000577   000334 630400 11                 EPPR0   GET_CURRENT
        17 000600   020004 713400                    CLIMB   8196
        17 000601   402000 401760                    pmme    nvectors=5

      550    13070    4               VM_HEADER.DELIVERY_DATE = CURRENT_TIME;

  13070 17 000602   000000 470400 xsym               LDP0    VM_HEADER$
        17 000603   000003 235000 11                 LDA     CURRENT_TIME
        17 000604   000002 755100                    STA     2,,PR0

      551    13071    4           END;

      552    13072    3           CALL VOM$ADDENTRY_SORTED(TIME$, %NO#, TIME_HEAD$, DCBNUM(MAIL_IN));

  13072 17 000605   000000 236007 xsym               LDQ     MAIL_IN,DL
        17 000606   200016 756100                    STQ     SIZE+2,,AUTO
        17 000607   200016 631500                    EPPR1   SIZE+2,,AUTO
        17 000610   200023 451500                    STP1    SIZE+7,,AUTO
        17 000611   000007 236000 18                 LDQ     7
        17 000612   200022 756100                    STQ     SIZE+6,,AUTO
        17 000613   000044 237000 18                 LDAQ    36
        17 000614   200020 757100                    STAQ    SIZE+4,,AUTO
        17 000615   200020 630500                    EPPR0   SIZE+4,,AUTO
        17 000616   000042 631400 18                 EPPR1   34
        17 000617   000000 701000 xent               TSX1    VOM$ADDENTRY_SORTED
        17 000620   000000 011000                    NOP     0
PL6.E3A0      #001=VOM$MAILMAN File=VOM$MAILMAN.:VMB6TSI                         WED 08/20/97 15:31 Page:65

      553    13073    3           CALL M$CLOSE (CLOSE_MAILIN_SAVE) ALTRET(BAD_OPEN);

  13073 17 000621   000236 630400 11                 EPPR0   CLOSE_MAILIN_SAVE
        17 000622   450001 713400                    CLIMB   alt,close
        17 000623   406000 401760                    pmme    nvectors=13
        17 000624   000626 702000 17                 TSX2    BAD_OPEN

  13066 17 000625                       CONTINUE     null
      554    13074    3   CONTINUE: ;
      555    13075    3       END;                            /* End do forever */

  13075 17 000625   000540 710000 17                 TRA     s:13049

  13072 17 000626                       BAD_OPEN     null
      556    13076
      557    13077    2   BAD_OPEN:;
      558    13078
      559    13079    2       ERROR = B$TCB.ALT$ -> B$ALT.ERR;

  13079 17 000626   000000 470400 xsym               LDP0    B$TCB$
        17 000627   000000 471500                    LDP1    0,,PR0
        17 000630   100102 236100                    LDQ     66,,PR1
        17 000631   000333 756000 11                 STQ     ERROR

      560    13080
      561    13081    2       IF ERROR.ERR# = %E$FDEOF          /* End of file directory */

  13081 17 000632   000333 236000 11                 LDQ     ERROR
        17 000633   377770 376007                    ANQ     131064,DL
        17 000634   001540 116007                    CMPQ    864,DL
        17 000635   000640 601000 17                 TNZ     s:13085

      562    13082    2       THEN
      563    13083    2           RETURN;

  13083 17 000636   200012 221300                    LDX1  ! SAVE$+2,,AUTO
PL6.E3A0      #001=VOM$MAILMAN File=VOM$MAILMAN.:VMB6TSI                         WED 08/20/97 15:31 Page:66
        17 000637   000001 702211                    TSX2  ! 1,X1

      564    13084
      565    13085    2       CALL M$CLOSE (CLOSE_MAILIN_SCRATCH);

  13085 17 000640   000274 630400 11                 EPPR0   CLOSE_MAILIN_SCRATCH
        17 000641   050001 713400                    CLIMB   close
        17 000642   406000 401760                    pmme    nvectors=13

      566    13086    2       GOTO CONTINUE;

  13086 17 000643   000625 710000 17                 TRA     CONTINUE

      567    13087
      568    13088
      569    13089    2   END VOM$RECOVER;
      570    13090        %EJECT;
PL6.E3A0      #001=VOM$MAILMAN File=VOM$MAILMAN.:VMB6TSI                         WED 08/20/97 15:31 Page:67
      571    13091
      572    13092    1   VOM$INTERSYS_RECEIVED: PROC;

  13092 17 000644   200012 741300       VOM$INTERSY* STX1  ! SAVE$+2,,AUTO

      573    13093
      574    13094    2       OPEN_FIRST.NAME_ = VECTOR(FIRST_INTERSYS_FILE);

  13094 17 000645   000046 237000 18                 LDAQ    38
        17 000646   000150 757000 11                 STAQ    OPEN_FIRST+6

      575    13095                       /* After VOM$RECOVERY is done, OPEN_NEXT is only used below */
      576    13096    2       OPEN_NEXT.V.OPER.TEST#=%YES#;

  13096 17 000647   020000 236007                    LDQ     8192,DL
        17 000650   000114 256000 11                 ORSQ    OPEN_NEXT+36

      577    13097
      578    13098    2       CALL M$OPEN (OPEN_FIRST) ALTRET(BAD_OPEN); /* Start at :MOVE */

  13098 17 000651   000142 630400 11                 EPPR0   OPEN_FIRST
        17 000652   450000 713400                    CLIMB   alt,open
        17 000653   410400 401760                    pmme    nvectors=18
        17 000654   000771 702000 17                 TSX2    BAD_OPEN

      579    13099
      580    13100    3       DO WHILE ('1'B); /* FOREVER */;                    /* Do until no more files */

      581    13101
      582    13102    3           CALL M$OPEN (OPEN_NEXT) ALTRET(BAD_OPEN);

  13102 17 000655   000050 630400 11                 EPPR0   OPEN_NEXT
        17 000656   450000 713400                    CLIMB   alt,open
        17 000657   410400 401760                    pmme    nvectors=18
        17 000660   000771 702000 17                 TSX2    BAD_OPEN

      583    13103
PL6.E3A0      #001=VOM$MAILMAN File=VOM$MAILMAN.:VMB6TSI                         WED 08/20/97 15:31 Page:68
      584    13104    3           IF SUBSTR(DCBADDR(DCBNUM(MAIL_IN))->F$DCB.NAME#.C,0,5) ~= ':MOVE'

  13104 17 000661   000000 236007 xsym               LDQ     MAIL_IN,DL
        17 000662   000040 470400 18                 LDP0    32
        17 000663   000000 471500                    LDP1    0,,PR0
        17 000664   100000 473506                    LDP3    0,QL,PR1
        17 000665   040000 106500                    CMPC    fill='040'O
        17 000666   300010 200005                    ADSC9   8,,PR3                   cn=1,n=5
        17 000667   000132 000005 16                 ADSC9   MAIL_CGCTL+64            cn=0,n=5
        17 000670   000673 600000 17                 TZE     s:13107

      585    13105    3           THEN RETURN;

  13105 17 000671   200012 221300                    LDX1  ! SAVE$+2,,AUTO
        17 000672   000001 702211                    TSX2  ! 1,X1

      586    13106
      587    13107    3           RENAME_NAME = DCBADDR(DCBNUM(MAIL_IN))->F$DCB.NAME#;

  13107 17 000673   000000 236007 xsym               LDQ     MAIL_IN,DL
        17 000674   100000 473506                    LDP3    0,QL,PR1
        17 000675   000000 100500                    MLR     fill='000'O
        17 000676   300010 000040                    ADSC9   8,,PR3                   cn=0,n=32
        17 000677   000530 000040 11                 ADSC9   RENAME_NAME              cn=0,n=32

      588    13108    3           MAIL_NAME = RENAME_NAME;

  13108 17 000700   000000 100400                    MLR     fill='000'O
        17 000701   000530 000040 11                 ADSC9   RENAME_NAME              cn=0,n=32
        17 000702   000456 000040 11                 ADSC9   MAIL_NAME                cn=0,n=32

      589    13109    3           CALL M$OPEN (OPEN_MAIL) ALTRET(BAD_OPEN);

  13109 17 000703   000364 630400 11                 EPPR0   OPEN_MAIL
        17 000704   450000 713400                    CLIMB   alt,open
        17 000705   410400 401760                    pmme    nvectors=18
        17 000706   000771 702000 17                 TSX2    BAD_OPEN
PL6.E3A0      #001=VOM$MAILMAN File=VOM$MAILMAN.:VMB6TSI                         WED 08/20/97 15:31 Page:69

      590    13110    3           CALL INSERT(RENAME_NAME.NAME#,0,SIZEC(':MESS'),':MESS');

  13110 17 000707   040000 100400                    MLR     fill='040'O
        17 000710   000130 000005 16                 ADSC9   MAIL_CGCTL+62            cn=0,n=5
        17 000711   000530 200005 11                 ADSC9   RENAME_NAME              cn=1,n=5

      591    13111    3           CALL M$CLOSE (CLOSE_RENAME) ALTRET(BAD_OPEN);

  13111 17 000712   000472 630400 11                 EPPR0   CLOSE_RENAME
        17 000713   450001 713400                    CLIMB   alt,close
        17 000714   406000 401760                    pmme    nvectors=13
        17 000715   000771 702000 17                 TSX2    BAD_OPEN

      592    13112
      593    13113    3           MAIL_NAME = RENAME_NAME;

  13113 17 000716   000000 100400                    MLR     fill='000'O
        17 000717   000530 000040 11                 ADSC9   RENAME_NAME              cn=0,n=32
        17 000720   000456 000040 11                 ADSC9   MAIL_NAME                cn=0,n=32

      594    13114    3           CALL M$OPEN (OPEN_MAIL) ALTRET(BAD_OPEN);

  13114 17 000721   000364 630400 11                 EPPR0   OPEN_MAIL
        17 000722   450000 713400                    CLIMB   alt,open
        17 000723   410400 401760                    pmme    nvectors=18
        17 000724   000771 702000 17                 TSX2    BAD_OPEN

      595    13115    3           CALL VMD$GET_HEADER (0, DCBNUM(MAIL_IN)) ALTRET(BAD_OPEN);

  13115 17 000725   000000 236007 xsym               LDQ     MAIL_IN,DL
        17 000726   200016 756100                    STQ     SIZE+2,,AUTO
        17 000727   200016 630500                    EPPR0   SIZE+2,,AUTO
        17 000730   200021 450500                    STP0    SIZE+5,,AUTO
        17 000731   000041 236000 18                 LDQ     33
        17 000732   200020 756100                    STQ     SIZE+4,,AUTO
        17 000733   200020 630500                    EPPR0   SIZE+4,,AUTO
PL6.E3A0      #001=VOM$MAILMAN File=VOM$MAILMAN.:VMB6TSI                         WED 08/20/97 15:31 Page:70
        17 000734   000017 631400 18                 EPPR1   15
        17 000735   000000 701000 xent               TSX1    VMD$GET_HEADER
        17 000736   000771 702000 17                 TSX2    BAD_OPEN

      596    13116        /*
      597    13117             ***** If no delivery time was specified,
      598    13118                   then deliver as soon as possible.
      599    13119                   Therefore, this entry must be added
      600    13120                   to the time queue with the current time ...
      601    13121        */
      602    13122    3           IF VM_HEADER.DELIVERY_DATE = 0

  13122 17 000737   000000 470400 xsym               LDP0    VM_HEADER$
        17 000740   000002 235100                    LDA     2,,PR0
        17 000741   000750 601000 17                 TNZ     s:13128

      603    13123    3           THEN
      604    13124    4           DO;

      605    13125    4               CALL M$TIME (GET_CURRENT);

  13125 17 000742   000334 630400 11                 EPPR0   GET_CURRENT
        17 000743   020004 713400                    CLIMB   8196
        17 000744   402000 401760                    pmme    nvectors=5

      606    13126    4               VM_HEADER.DELIVERY_DATE = CURRENT_TIME;

  13126 17 000745   000000 470400 xsym               LDP0    VM_HEADER$
        17 000746   000003 235000 11                 LDA     CURRENT_TIME
        17 000747   000002 755100                    STA     2,,PR0

      607    13127    4           END;

      608    13128    3           CALL VOM$ADDENTRY_SORTED(TIME$, %NO#, TIME_HEAD$, DCBNUM(MAIL_IN));

  13128 17 000750   000000 236007 xsym               LDQ     MAIL_IN,DL
        17 000751   200016 756100                    STQ     SIZE+2,,AUTO
PL6.E3A0      #001=VOM$MAILMAN File=VOM$MAILMAN.:VMB6TSI                         WED 08/20/97 15:31 Page:71
        17 000752   200016 631500                    EPPR1   SIZE+2,,AUTO
        17 000753   200023 451500                    STP1    SIZE+7,,AUTO
        17 000754   000007 236000 18                 LDQ     7
        17 000755   200022 756100                    STQ     SIZE+6,,AUTO
        17 000756   000044 237000 18                 LDAQ    36
        17 000757   200020 757100                    STAQ    SIZE+4,,AUTO
        17 000760   200020 630500                    EPPR0   SIZE+4,,AUTO
        17 000761   000042 631400 18                 EPPR1   34
        17 000762   000000 701000 xent               TSX1    VOM$ADDENTRY_SORTED
        17 000763   000000 011000                    NOP     0

      609    13129    3           CALL M$CLOSE (CLOSE_MAILIN_SAVE) ALTRET(WHO_CARES);

  13129 17 000764   000236 630400 11                 EPPR0   CLOSE_MAILIN_SAVE
        17 000765   450001 713400                    CLIMB   alt,close
        17 000766   406000 401760                    pmme    nvectors=13
        17 000767   001007 702000 17                 TSX2    WHO_CARES

  13122 17 000770                       CONTINUE     null
      610    13130    3   CONTINUE: ;
      611    13131    3       END;

  13131 17 000770   000655 710000 17                 TRA     s:13102

  13128 17 000771                       BAD_OPEN     null
      612    13132
      613    13133    2   BAD_OPEN: ;
      614    13134
      615    13135    2       ERROR = B$TCB.ALT$ ->B$ALT.ERR;

  13135 17 000771   000000 470400 xsym               LDP0    B$TCB$
        17 000772   000000 471500                    LDP1    0,,PR0
        17 000773   100102 236100                    LDQ     66,,PR1
        17 000774   000333 756000 11                 STQ     ERROR

      616    13136
      617    13137    2       IF ERROR.ERR# = %E$FDEOF
PL6.E3A0      #001=VOM$MAILMAN File=VOM$MAILMAN.:VMB6TSI                         WED 08/20/97 15:31 Page:72

  13137 17 000775   000333 236000 11                 LDQ     ERROR
        17 000776   377770 376007                    ANQ     131064,DL
        17 000777   001540 116007                    CMPQ    864,DL
        17 001000   001003 601000 17                 TNZ     s:13141

      618    13138    2       THEN
      619    13139    2           RETURN;

  13139 17 001001   200012 221300                    LDX1  ! SAVE$+2,,AUTO
        17 001002   000001 702211                    TSX2  ! 1,X1

      620    13140
      621    13141    2       CALL M$CLOSE (CLOSE_MAILIN_SAVE) ALTRET (WHO_CARES);

  13141 17 001003   000236 630400 11                 EPPR0   CLOSE_MAILIN_SAVE
        17 001004   450001 713400                    CLIMB   alt,close
        17 001005   406000 401760                    pmme    nvectors=13
        17 001006   001007 702000 17                 TSX2    WHO_CARES

  13137 17 001007                       WHO_CARES    null
      622    13142    2   WHO_CARES: ;
      623    13143    2       GOTO CONTINUE;

  13143 17 001007   000770 710000 17                 TRA     CONTINUE

      624    13144    2   END VOM$INTERSYS_RECEIVED;
      625    13145        %EJECT;
PL6.E3A0      #001=VOM$MAILMAN File=VOM$MAILMAN.:VMB6TSI                         WED 08/20/97 15:31 Page:73
      626    13146    1   VOM$SHRINK_SEGMENT: PROC (VECT_);

  13146 17 001010   200012 741300       VOM$SHRINK_* STX1  ! SAVE$+2,,AUTO

      627    13147        /*
      628    13148          ***** Release excess segment space before we go to sleep
      629    13149        */
      630    13150    2   DCL VECT_ VECTOR PARAM;
      631    13151    2   DCL SIZE UBIN;
      632    13152
      633    13153    2       IF VBOUND (VECT_) > 4093

  13153 17 001011   200013 470500                    LDP0    @VECT_,,AUTO
        17 001012   000000 236100                    LDQ     0,,PR0
        17 001013   000043 376000 18                 ANQ     35
        17 001014   000050 116000 18                 CMPQ    40
        17 001015   001033 602000 17                 TNC     s:13159

      634    13154    3       THEN DO;

      635    13155    3           SIZE = (VBOUND (VECT_) - 4093) / 4;

  13155 17 001016   000000 236100                    LDQ     0,,PR0
        17 001017   000020 772000                    QRL     16
        17 001020   007775 136007                    SBLQ    4093,DL
        17 001021   000004 506007                    DIV     4,DL
        17 001022   200014 756100                    STQ     SIZE,,AUTO

      636    13156    3           CALL VMA$SHRINK_SEGMENT (VECT_, SIZE);

  13156 17 001023   200014 631500                    EPPR1   SIZE,,AUTO
        17 001024   200017 451500                    STP1    SIZE+3,,AUTO
        17 001025   200013 236100                    LDQ     @VECT_,,AUTO
        17 001026   200016 756100                    STQ     SIZE+2,,AUTO
        17 001027   200016 630500                    EPPR0   SIZE+2,,AUTO
        17 001030   000017 631400 18                 EPPR1   15
        17 001031   000000 701000 xent               TSX1    VMA$SHRINK_SEGMENT
PL6.E3A0      #001=VOM$MAILMAN File=VOM$MAILMAN.:VMB6TSI                         WED 08/20/97 15:31 Page:74
        17 001032   000000 011000                    NOP     0

      637    13157    3       END;

      638    13158
      639    13159    2       RETURN;

  13159 17 001033   200012 221300                    LDX1  ! SAVE$+2,,AUTO
        17 001034   000001 702211                    TSX2  ! 1,X1

      640    13160
      641    13161    2   END VOM$SHRINK_SEGMENT;
      642    13162
      643    13163    1   END VOM$MAILMAN;

  13163 17 001035   000000 702200 xent               TSX2  ! X66_MARET

FREE$
 Sect OctLoc
  11     012   000000 006014                                                    ....

VM_BODYKEY
 Sect OctLoc
  11     015   007060 000000   000000 000000                                    .0......

VOM_INIT_CCTIME
 Sect OctLoc
  11     017   040040 040040   040040 040040   040040 ******                              ..

VO_NEED_READ
 Sect OctLoc
  11     022   0***** ******                                                    ....

VO_PROCESS
 Sect OctLoc
  11     023   0***** ******                                                    ....

PL6.E3A0      #001=VOM$MAILMAN File=VOM$MAILMAN.:VMB6TSI                         WED 08/20/97 15:31 Page:75
SET_XCON
 Sect OctLoc
  11     024   000001 777640   000030 006000   000000 177640   000000 006014    ................
  11     030   000000 000000   000000 000000                                    ........

WAIT_IT_OUT
 Sect OctLoc
  11     032   000001 777640   000036 006000   000000 177640   000000 006014    ................
  11     036   000040 223200   000000 000001                                    . ......

GET_TIME_ENTRY
 Sect OctLoc
  11     040   000001 777640   000044 006000   000001 777640   000046 006000    .....$.......&..
  11     044   000600 000021   ****** ******                                    ........

TIME_VECTOR
 Sect OctLoc
  11     046   000000 177640   000000 006014                                    ........

OPEN_NEXT
 Sect OctLoc
  11     050   000025 777640   000114 006000   000000 177640   000000 006014    .....L..........
  11     054   000000 177640   000000 006014   000000 177640   000000 006014    ................
  11     114*  000000 004042   000000 001000   252525 000000   000040 252520    ..."......... ..
  11     120   000040 040040   000000 000000   000000 777777   000000 000000    .   ............
  11     124   000000 000000   000000 000000   000000 000000   000000 000000    ................
  11     130   251000 622000   000000 000000   000000 000000   111250 000000    ............I...
  11     134   040040 040040   000000 000000   000000 000000   000000 000000        ............
  11     140   000000 000000   ****** ******                                    ........

OPEN_FIRST
 Sect OctLoc
  11     142   000025 777640   000206 006000   000000 177640   000000 006014    ................
  11     146   000000 177640   000000 006014   000001 377640   000234 006000    ................
  11     152   000000 177640   000000 006014   000000 177640   000000 006014    ................
  11     166*  000001 777640   000000 006000   000000 177640   000000 006014    ................
  11     172   000000 177640   000000 006014   000000 177640   000000 006014    ................
PL6.E3A0      #001=VOM$MAILMAN File=VOM$MAILMAN.:VMB6TSI                         WED 08/20/97 15:31 Page:76
  11     206*  000000 100042   000000 000001   252525 000000   000040 252520    ..@"......... ..
  11     212   000040 040040   000000 000000   000000 777777   000000 000000    .   ............
  11     216   000000 000000   000000 000000   000000 000000   000000 000000    ................
  11     222   251000 622000   000000 000000   000000 000000   111250 000000    ............I...
  11     226   040040 040040   000000 000000   000000 000000   000000 000000        ............
  11     232   000000 000000   ****** ******                                    ........

FIRST_NAME
 Sect OctLoc
  11     234   005072 115105   123123 ******                                    .:MESS..

CLOSE_MAILIN_SAVE
 Sect OctLoc
  11     236   000003 777640   000270 006000   000000 177640   000000 006014    ................
  11     242   000000 177640   000000 006014   000000 177640   000000 006014    ................
  11     266*  000000 177640   000000 006014   000000 000002   000000 000040    ...............
  11     272   000220 000000   000000 000000                                    ........

CLOSE_MAILIN_SCRATCH
 Sect OctLoc
  11     274   000003 777640   000326 006000   000000 177640   000000 006014    ................
  11     300   000000 177640   000000 006014   000000 177640   000000 006014    ................
  11     324*  000000 177640   000000 006014   000000 000001   000000 000040    ...............
  11     330   000220 000000   000000 000000                                    ........

MYERROR
 Sect OctLoc
  11     332   261715 000000                                                    ....

ERROR
 Sect OctLoc
  11     333   000000 000000                                                    ....

GET_CURRENT
 Sect OctLoc
  11     334   000001 777640   000346 006000   000000 177640   000000 006014    ................
  11     340   000000 177640   000000 006014   000000 177640   000000 006014    ................
PL6.E3A0      #001=VOM$MAILMAN File=VOM$MAILMAN.:VMB6TSI                         WED 08/20/97 15:31 Page:77
  11     344   000000 777640   000003 006000   000004 000000   ****** ******    ................

WRITE_MAILCG
 Sect OctLoc
  11     350   000003 777640   000360 006000   000000 177640   000000 006014    ................
  11     354   000043 777640   000000 006000   000007 777640   000542 006000    .#..............
  11     360   000000 400400   000000 000000   000000 000000   000000 000000    ................

OPEN_MAIL
 Sect OctLoc
  11     364   000025 777640   000430 006000   000000 177640   000000 006014    ................
  11     370   000000 177640   000000 006014   000007 777640   000456 006000    ................
  11     374   000000 177640   000000 006014   000000 177640   000000 006014    ................
  11     410*  000001 777640   000000 006000   000000 177640   000000 006014    ................
  11     414   000000 177640   000000 006014   000000 177640   000000 006014    ................
  11     430*  000000 000042   000000 001001   252525 002002   000040 252520    ..."......... ..
  11     434   000040 040040   000000 000000   000000 777777   000000 000000    .   ............
  11     440   000000 000000   000000 000000   000000 000000   000000 000000    ................
  11     444   251000 622000   000000 000000   000000 000000   111250 000000    ............I...
  11     450   040040 040040   000000 000000   000000 000000   000000 000000        ............
  11     454   000000 000000   ****** ******                                    ........

MAIL_NAME
 Sect OctLoc
  11     456   030040 040040   040040 040040   040040 040040   040040 040040    .
  11     462   040040 040040   040040 040040   040040 040040   040040 040040

FPT_EVENT
 Sect OctLoc
  11     466   000001 777640   000470 006000   000000 000000   000000 000000    ................

CLOSE_RENAME
 Sect OctLoc
  11     472   000003 777640   000524 006000   000000 177640   000000 006014    ................
  11     476   000000 177640   000000 006014   000007 777640   000530 006000    ................
  11     502   000000 177640   000000 006014   000000 177640   000000 006014    ................
  11     522*  000000 177640   000000 006014   000000 400000   000000 000040    ...............
PL6.E3A0      #001=VOM$MAILMAN File=VOM$MAILMAN.:VMB6TSI                         WED 08/20/97 15:31 Page:78
  11     526   000220 000000   000000 000000                                    ........

RENAME_NAME
 Sect OctLoc
  11     530   037040 040040   040040 040040   040040 040040   040040 040040    .
  11     534   040040 040040   040040 040040   040040 040040   040040 040040

FIRST_INTERSYS_FILE
 Sect OctLoc
  11     540   005072 115117   126105 ******                                    .:MOVE..

OUTSTATION
 Sect OctLoc
  11     542   040040 040040   040040 040040   040040 040040   040040 040040
  11     546   001000 000000   000000 000000   000000 000000   000000 000000    ................

CLOSE_COMGROUP
 Sect OctLoc
  11     552   000003 777640   000604 006000   000000 177640   000000 006014    ................
  11     556   000000 177640   000000 006014   000000 177640   000000 006014    ................
  11     602*  000000 177640   000000 006014   000000 000000   000000 000040    ...............
  11     606   000220 000000   000000 000000                                    ........

SET_FMSEC
 Sect OctLoc
  11     610   000001 777640   000612 006000   100000 000000   000000 000000    ........@.......

TRUNC_BUFF
 Sect OctLoc
  11     614   000001 777640   000616 006000   000000 000000   000000 000000    ................

TESTMODE
 Sect OctLoc
  11     620   0***** ******                                                    ....

OPEN_COMGROUP
 Sect OctLoc
PL6.E3A0      #001=VOM$MAILMAN File=VOM$MAILMAN.:VMB6TSI                         WED 08/20/97 15:31 Page:79
  11     622   000025 777640   000666 006000   000000 177640   000000 006014    ................
  11     626   000013 777640   000016 006000   000001 777640   000000 006000    ................
  11     632   000000 177640   000000 006014   000003 777640   000714 006000    ................
  11     636   000017 777640   000720 006000   000000 177640   000000 006014    ................
  11     642   000000 177640   000000 006014   000000 177640   000000 006014    ................
  11     646   000001 777640   000000 006000   000000 177640   000000 006014    ................
  11     652   000000 177640   000000 006014   000000 177640   000000 006014    ................
  11     666*  000000 000712   000000 003004   252525 000000   000040 252520    ............. ..
  11     672   000040 040040   000000 000000   000000 777777   000000 000000    .   ............
  11     676   000000 000000   000000 000036   000000 000000   000000 000000    ................
  11     702   251000 622000   000000 000000   000000 000000   111310 000000    ............I...
  11     706   040040 040040   000000 000000   000000 000000   000000 000000        ............
  11     712   000000 000000   ****** ******                                    ........

MAILCG_ACCESS
 Sect OctLoc
  11     714   000000 000003   012000 040040   040040 040040   040040 ******    ......        ..

MAILCG_ACSVEH
 Sect OctLoc
  11     720   000000 000017   740000 004123   105116 104740   000011 123105    .......SEND...SE
  11     724   116104 137124   105123 124740   000004 115101   111114 740000    ND_TEST...MAIL..
  11     730   011115 101111   114137 124105   123124 740000   011115 101111    .MAIL_TEST...MAI
  11     734   114137 124105   123124 740000   007115 101111   114115 101116    L_TEST...MAILMAN

MAILCG_CGCP
 Sect OctLoc
  11     740   040040 040040   040040 040040   040040 040040   040040 040040
  11     744   000003 001001   000046 113177   000012 116735   000000 000620    .....&K...N.....
  11     750   000024 062000   600026 000214   000000 000000   000012 000024    ..2.............
  11     754   000002 ******   000000 000000   000000 000000   000000 000000    ................
  11     760   000000 000000   000000 000000   000000 000000   000000 000000    ................

VO_READ_CG
 Sect OctLoc
  16     000   000005 777640   000010 006000   000000 177640   000000 006014    ................
  16     004   000043 777640   000000 006000   000000 177640   000000 006014    .#..............
PL6.E3A0      #001=VOM$MAILMAN File=VOM$MAILMAN.:VMB6TSI                         WED 08/20/97 15:31 Page:80
  16     010   000000 000000   000000 000001   000000 000000   000000 000000    ................
  16     014   000000 000000   000000 000000                                    ........

MAILMAN_STATION
 Sect OctLoc
  16     016   115101 111114   115101 116040   040040 040040   040040 040040    MAILMAN
  16     022   040040 040040   040040 040040   000000 000000   040040 040040            ....
  16     026   040040 040040   040040 040040   040040 040040   000000 000000                ....

MAIL_CGCTL
 Sect OctLoc
  16     032   000013 777640   000102 006000   000000 177640   000000 006014    .....B..........
  16     036   000000 177640   000000 006014   000023 777640   000740 006000    ................
  16     042   000000 177640   000000 006014   000000 177640   000000 006014    ................
  16     102*  000000 000022   000000 000000   000000 0000**   000000 000000    ................
  16     106   000000 000000   000000 000000   000000 000000   000000 000000    ................
  16     112   000000 000000   000000 000000   000000 000000   ****** ******    ................

(unnamed)
 Sect OctLoc
  16     116   115101 111114   115101 116040   040151 156151   164151 141154    MAILMAN  initial
  16     122   151172 151156   147040 040040   040040 040040   040151 144154    izing        idl
  16     126   145040 040040   052111 101115   072115 105123   123040 040040    e   *IAM:MESS
  16     132   072115 117126   105040 040040                                    :MOVE

(unnamed)
 Sect OctLoc
  18     000   040040 040040   000001 000000   000007 006000   000000 006014        ............
  18     004   000003 000000   000003 006000   000000 006000   000000 006000    ................
  18     010   000000 000000   000000 006000   000000 006000   000000 006000    ................
  18     014   000000 006000   000000 006000   000000 006000   000002 000000    ................
  18     020   000000 006000   000000 002000   000000 006000   000021 006000    ................
  18     024   000000 006000   000021 006000   000000 006000   000021 006000    ................
  18     040*  000000 006003   000010 006000   000004 000000   777777 600000    ................
  18     044   000000 006000   000010 006000   000001 377640   000540 006000    ................
  18     050   001777 400000                                                    ....
      644    13164        %EOD;
PL6.E3A0      #001=VOM$MAILMAN File=VOM$MAILMAN.:VMB6TSI                         WED 08/20/97 15:31 Page:81

PL6.E3A0      #001=VOM$MAILMAN File=VOM$MAILMAN.:VMB6TSI                         WED 08/20/97 15:31 Page:82
--  Include file information  --

   XUD_UTS_M.:LIB_E05  is referenced.
   B$JIT_C.:LIB_E05  is referenced.
   B$JIT.:LIB_E05  cannot be made into a system file and is referenced.
   VM_PERR_C.:VMB6TOU  is referenced.
   B_ERRORS_C.:LIB_E05  is referenced.
   VO_SUBS_C.:VMB6TOU  is referenced.
   B_MACROS_C.:LIB_E05  is referenced.
   VM_DATA_R.:VMB6TOU  cannot be made into a system file and is referenced.
   CP_6_C.:LIB_E05  is referenced.
   CP_6.:LIB_E05  cannot be made into a system file and is referenced.
   VM_MACRO_C.:VMB6TOU  is referenced.
   VM_SUBS_C.:VMB6TOU  is referenced.
   VOM_DATA_R.:VMB6TOU  cannot be made into a system file and is referenced.
   B_SEGIDS_C.:LIB_E05  is referenced.
   CP_6_SUBS.:LIB_E05  is referenced.
      No diagnostics issued in procedure VOM$MAILMAN.
PL6.E3A0      #001=VOM$MAILMAN File=VOM$MAILMAN.:VMB6TSI                         WED 08/20/97 15:31 Page:83

 **** Variables and constants ****

  ****  Section 011  Data  VOM$MAILMAN

  ****  Scalars and arrays  ****
OctLoc.c.b A Datatyp(siz) R M Lvl/name                 OctLoc.c.b A Datatyp(siz) R M Lvl/name

     7-0-0/c UBIN(6)     r     1 BIT6(0:11)                 4-0-0/c UBIN(9)     r     1 BIT9(0:11)
   552-0-0/d STRC(1080)  r     1 CLOSE_COMGROUP           236-0-0/d STRC(1080)  r     1 CLOSE_MAILIN_SAVE
   274-0-0/d STRC(1080)  r     1 CLOSE_MAILIN_SCRATCH     472-0-0/d STRC(1080)  r     1 CLOSE_RENAME
     3-0-0/w UBIN        r     1 CURRENT_TIME               4-0-0/c CHAR(12)    r     1 EPASS
   333-0-0/w STRC        r     1 ERROR                    540-0-0/c STRC(54)    r     1 FIRST_INTERSYS_FILE
   234-0-0/c STRC(54)    r     1 FIRST_NAME               466-0-0/d STRC(144)   r     1 FPT_EVENT
    12-0-0/w PTR         r     1 FREE$                    334-0-0/d STRC(432)   r     1 GET_CURRENT
    40-0-0/d STRC(216)   r     1 GET_TIME_ENTRY             0-0-0/w SBIN        r     1 I
     1-0-0/w SBIN              1 J                          2-0-0/w SBIN              1 K
    11-0-0/w PTR               1 LAST$                    714-0-0/w STRC(126)   r     1 MAILCG_ACCESS
   720-0-0/w STRC(576)   r     1 MAILCG_ACSVEH            740-0-0/d STRC(720)   r     1 MAILCG_CGCP
   456-0-0/c STRC(288)   r     1 MAIL_NAME                 13-0-0/w PTR         r     1 MAX$
   332-0-0/w STRC              1 MYERROR                  622-0-0/d STRC(2088)  r     1 OPEN_COMGROUP
   142-0-0/d STRC(2088)  r     1 OPEN_FIRST               364-0-0/d STRC(2088)  r     1 OPEN_MAIL
    50-0-0/d STRC(2088)  r     1 OPEN_NEXT                542-0-0/w STRC(288)   r     1 OUTSTATION
     7-0-0/c CHAR(8)     r     1 PASSWORD                 530-0-0/c STRC(288)   r     1 RENAME_NAME
    14-0-0/w PTR         r     1 SEG$                     610-0-0/d STRC(144)   r     1 SET_FMSEC
    24-0-0/d STRC(216)   r     1 SET_XCON                 620-0-0/b BIT         r     1 TESTMODE
    46-0-0/d STRC(72)    r     1 TIME_VECTOR              614-0-0/d STRC(144)   r     1 TRUNC_BUFF
    15-0-0/c STRC(72)          1 VM_BODYKEY                17-0-0/c CHAR(10)    r     1 VOM_INIT_CCTIME
    22-0-0/b BIT         r     1 VO_NEED_READ              23-0-0/b BIT         r     1 VO_PROCESS
    32-0-0/d STRC(216)   r     1 WAIT_IT_OUT              350-0-0/d STRC(432)   r     1 WRITE_MAILCG

  ****  Section 016 RoData VOM$MAILMAN

  ****  Scalars and arrays  ****
OctLoc.c.b A Datatyp(siz) R M Lvl/name                 OctLoc.c.b A Datatyp(siz) R M Lvl/name

    16-0-0/w STRC(432)   r     1 MAILMAN_STATION           32-0-0/d STRC(1872)  r     1 MAIL_CGCTL
     0-0-0/d STRC(504)   r     1 VO_READ_CG
PL6.E3A0      #001=VOM$MAILMAN File=VOM$MAILMAN.:VMB6TSI                         WED 08/20/97 15:31 Page:84

  ****  Auto variables  ****

  ****  Scalars and arrays  ****
OctLoc.c.b A Datatyp(siz) R M Lvl/name                 OctLoc.c.b A Datatyp(siz) R M Lvl/name

    13-0-0/w PTR         r     1 @VECT_                     4-0-0/c CHAR(8)     r     1 KEY_VALUE
    10-0-0/w PTR               1 SAVE$                      6-0-0/c CHAR(8)           1 SITENAME
    14-0-0/w UBIN        r     1 SIZE                      13-0-0/w PTR               1 TIME_NEW$
     3-0-0/w SBIN              1 TYPE                      *0-0-0/d VECT        r     1 VECT_

  ****  SYMREF variables  ****

  ****  Scalars and arrays  ****
OctLoc.c.b A Datatyp(siz) R M Lvl/name                 OctLoc.c.b A Datatyp(siz) R M Lvl/name

     0-0-0/w PTR         r     1 B$JIT$                     0-0-0/w PTR         r     1 B$TCB$
     0-0-0/c ASTR(9)     r     1 B_VERSION                  0-0-0/c ASTR(9)     r     1 ERRMSG_FID
     0-0-0/w PTR         r     1 INTERSYS$                  0-0-0/w PTR         r     1 INTERSYS_HEAD$
     0-0-0/w UBIN              1 M$DO_NUM                   0-0-0/w UBIN              1 M$LO_NUM
     0-0-0/w UBIN              1 M$MAIL_CENTRAL_NUM         0-0-0/w UBIN              1 M$MAIL_COMGROUP_NUM
     0-0-0/w UBIN              1 M$MAIL_FILE_NUM            0-0-0/w UBIN        r     1 M$MAIL_GLOBAL_NUM
     0-0-0/w UBIN              1 M$ME_NUM                   0-0-0/w UBIN        r     1 M$NODE_NUM
     0-0-0/w UBIN              1 M$SI_NUM                   0-0-0/w UBIN              1 M$WORK_NUM
     0-0-0/c CHAR(8)           1 STATION#                   0-0-0/w PTR         r     1 TIME$
     0-0-0/w PTR         r     1 TIME_HEAD$                 0-0-0/w PTR               1 VM_ADDLIST$
     0-0-0/d VECT        r     1 VM_ADDLIST_                0-0-0/w PTR               1 VM_ADDREC$
     0-0-0/d VECT        r     1 VM_ADDREC_                 0-0-0/c STRC(1296)  r     1 VM_CGBUFFER
     0-0-0/w PTR               1 VM_COPY$                   0-0-0/d VECT        r     1 VM_COPY_
     0-0-0/w PTR               1 VM_ENCLLIST$               0-0-0/d VECT              1 VM_ENCLLIST_
     0-0-0/w PTR               1 VM_ENCLREC$                0-0-0/d VECT              1 VM_ENCLREC_
     0-0-0/c STRC(270)         1 VM_FORWARD_ENCL_NAME       0-0-0/c STRC(270)         1 VM_FORWARD_FILE_NAME
     0-0-0/c STRC(72)          1 VM_FORWARD_FILE_PASS       0-0-0/w PTR         r     1 VM_HEADER$
     0-0-0/d VECT        r     1 VM_HEADER_                 0-0-0/d VECT              1 VM_HEADER_INIT_
     0-0-0/w PTR         r     1 VM_INPUT$                  0-0-0/d VECT        r     1 VM_INPUT_
     0-0-0/c STRC(72)    r     1 VM_MAILCG_NAME             0-0-0/w STRC(432)         1 VM_MAILCG_SETSTA
     0-0-0/c STRC(72)    r     1 VM_MAIL_ACCT               0-0-0/c STRC(54)          1 VM_NAME_MAP_NAME
PL6.E3A0      #001=VOM$MAILMAN File=VOM$MAILMAN.:VMB6TSI                         WED 08/20/97 15:31 Page:85
     0-0-0/w PTR               1 VM_PARSEAREA$              0-0-0/d VECT              1 VM_PARSEAREA_
     0-0-0/w PTR         r     1 VM_PROFILE$                0-0-0/d VECT        r     1 VM_PROFILE_
     0-0-0/w PTR               1 VM_SELECT$                 0-0-0/d VECT              1 VM_SELECT_
     0-0-0/c STRC(288)         1 VM_SEND_FILE_NAME          0-0-0/c CHAR(8)     r     1 VM_SITENAME
     0-0-0/w PTR               1 VM_WORK$                   0-0-0/d VECT        r     1 VM_WORK_
     0-0-0/w STRC(2880)        1 VO_BNWIO
     0-0-0/w UBIN              1 VO_BUSY_RETRY_MINUTES
     0-0-0/w UBIN              1 VO_HOG_LIMIT               0-0-0/c CHAR(8)           1 VO_INTERSYS_ACCT
     0-0-0/b BIT         r     1 VO_INTERSYS_ALLOWED        0-0-0/c CHAR(12)    r     1 VO_INTERSYS_EPASS
     0-0-0/c CHAR(8)     r     1 VO_INTERSYS_PASSWORD       0-0-0/c CHAR(8)           1 VO_INTERSYS_UNAME
     0-0-0/w UBIN        r     1 VO_MAILMAN_STARTUP_TIME
     0-0-0/w UBIN              1 VO_MAX_HOLD_HOURS
     0-0-0/w UBIN              1 VO_PACKSET_RETRY_MINUTES
     0-0-0/w UBIN              1 VO_RETRY_LIMIT_INTERSYSTEM

  ****  BASED and DCB variables  ****

  ****  Scalars and arrays  ****
OctLoc.c.b A Datatyp(siz) R M Lvl/name                 OctLoc.c.b A Datatyp(siz) R M Lvl/name

     0-0-0/w STRC(2448)  r     1 B$ALT                      0-0-0/w STRC(144)         1 B$CGAURD
     0-0-0/d STRC(8856)  r     1 B$JIT                      0-0-0/w STRC(144)   r     1 B$TCB
     0-0-0/d ASTR(3528)  r     1 F$DCB                      0-0-0/w STRC(540)         1 INTERSYS_INFO
     0-0-0N  NULL        r     1 M$DO                       0-0-0N  NULL        r     1 M$LM
     0-0-0N  NULL        r     1 M$LO                       0-0-0N  NULL        r     1 M$MAIL_CENTRAL
     0-0-0N  NULL        r     1 M$MAIL_COMGROUP            0-0-0N  NULL        r     1 M$MAIL_FILE
     0-0-0N  NULL        r     1 M$MAIL_GLOBAL              0-0-0N  NULL        r     1 M$ME
     0-0-0N  NULL        r     1 M$NODE                     0-0-0N  NULL        r     1 M$SI
     0-0-0N  NULL        r     1 M$UC                       0-0-0N  NULL        r     1 M$WORK
     0-0-0N  NULL        r     1 MAIL_IN                    0-0-0N  NULL        r     1 MAP_FILE
     0-0-0N  NULL        r     1 SITE_IN                    0-0-0/w STRC(612)   r     1 TIME_TABLE
     0-0-0/w STRC(1332)  r     1 VM_HEADER                  0-0-0/w STRC(4068)        1 VM_PROFILE
     0-0-0/c ASTR(9)     r     1 X$STRING


   Procedure VOM$MAILMAN requires 542 words for executable code.
PL6.E3A0      #001=VOM$MAILMAN File=VOM$MAILMAN.:VMB6TSI                         WED 08/20/97 15:31 Page:86
   Procedure VOM$MAILMAN requires 20 words of local(AUTO) storage.
PL6.E3A0      #001=VOM$MAILMAN File=VOM$MAILMAN.:VMB6TSI                         WED 08/20/97 15:31 Page:87
          *** CROSS REFERENCE LISTING ***
**     DENOTES     IDENTIFIER DEFINITION
<<                 IDENTIFIER'S VALUE SET
>>                 IDENTIFIER'S VALUE USED
<>                 IDENTIFIER SET AND/OR USED
--                 IDENTIFIER REFERENCED
PL6.E3A0      #001=VOM$MAILMAN File=VOM$MAILMAN.:VMB6TSI                         WED 08/20/97 15:31 Page:88
          MINI XREF LISTING

ASZ$SCRAMBLE
     11014**DCL-ENT 12456--CALL
B$ALT.CODE
     11022**DCL     11022--REDEF   11023--REDEF   11023--REDEF
B$ALT.ERR
     11023**DCL     13079>>ASSIGN  13135>>ASSIGN
B$ALT.ERR.ERR#
     11024**DCL     11024--REDEF
B$ALT.EVID
     11023**DCL     11023--REDEF   11023--REDEF
B$CGAURD.STATION
     11094**DCL     11094--REDEF
B$JIT.CCARS
     10712**DCL     12450<<ASSIGN  12523<<ASSIGN
B$JIT.CCBUF
     10712**DCL     12441>>ASSIGN  12448<<CALLBLT 12449>>CALLBLT 12521<<CALLBLT 12522>>CALLBLT
B$JIT.CPFLAGS1.SLEAZE
     10718**DCL     10718--REDEF
B$JIT.ERR.MID
     10625**DCL     10625--REDEF
B$JIT.JOBNAME
     10773**DCL     12451<<ASSIGN  12524<<ASSIGN
B$JIT.JRESPEAK
     10786**DCL     10787--REDEF
B$JIT.MODE
     10619**DCL     12434>>IF      12443>>IF
B$JIT.ORIGINATOR_PORT.FROM_CR
     10895**DCL     10895--REDEF   10896--REDEF
B$JIT.OUTPRIO
     10705**DCL     12445<<ASSIGN
B$JIT.PNR
     10799**DCL     10799--REDEF
PL6.E3A0      #001=VOM$MAILMAN File=VOM$MAILMAN.:VMB6TSI                         WED 08/20/97 15:31 Page:89
B$JIT.PRIV.ACTIVE.JIT
     10629**DCL     12443>>IF      12446>>IF      12519>>IF
B$JIT.TSLINE
     10893**DCL     10894--REDEF
B$JIT$
      8543**DCL     10619--IMP-PTR 12434>>IF      12441>>ASSIGN  12443>>IF      12443>>IF      12445>>ASSIGN
     12446>>IF      12448>>CALLBLT 12449>>CALLBLT 12450>>ASSIGN  12451>>ASSIGN  12519>>IF      12521>>CALLBLT
     12522>>CALLBLT 12523>>ASSIGN  12524>>ASSIGN
B$TCB.ALT$
     11017**DCL     13079>>ASSIGN  13135>>ASSIGN
B$TCB$
      8544**DCL     11017--IMP-PTR 13079>>ASSIGN  13135>>ASSIGN
BAD_OPEN IN PROCEDURE VOM$INTERSYS_RECEIVED
     13128**LABEL   13098--CALLALT 13102--CALLALT 13109--CALLALT 13111--CALLALT 13114--CALLALT 13115--CALLALT
BAD_OPEN IN PROCEDURE VOM$RECOVER
     13072**LABEL   13045--CALLALT 13049--CALLALT 13055--CALLALT 13059--CALLALT 13073--CALLALT
BIT6
     10992**DCL     12458>>ASSIGN
BIT9
     10990**DCL     12458<<ASSIGN
B_VERSION.C
     11413**DCL     12448>>CALLBLT 12521>>CALLBLT
B_VERSION.L
     11412**DCL     11413--IMP-SIZ 12448>>CALLBLT 12521>>CALLBLT
CANT_OPEN_MAILCG IN PROCEDURE VOM$_OPENS
     12958**LABEL   12952--CALLALT 12953--CALLALT
CLOSE_COMGROUP.SN_
     12376**DCL     12376--REDEF
CLOSE_COMGROUP.UTL_
     12377**DCL     12377--REDEF
CLOSE_COMGROUP.V
     12381**DCL     12376--DCLINIT
CLOSE_COMGROUP.V.EXPIRE#
     12391**DCL     12391--REDEF
CLOSE_COMGROUP.V.TYPE#
     12389**DCL     12389--REDEF
PL6.E3A0      #001=VOM$MAILMAN File=VOM$MAILMAN.:VMB6TSI                         WED 08/20/97 15:31 Page:90
CLOSE_COMGROUP.V.XTNSIZE#
     12386**DCL     12386--REDEF   12388--REDEF
CLOSE_MAILIN_SAVE
     11843**DCL     13055<>CALL    13073<>CALL    13129<>CALL    13141<>CALL
CLOSE_MAILIN_SAVE.SN_
     11843**DCL     11843--REDEF
CLOSE_MAILIN_SAVE.UTL_
     11844**DCL     11844--REDEF
CLOSE_MAILIN_SAVE.V
     11848**DCL     11843--DCLINIT
CLOSE_MAILIN_SAVE.V.EXPIRE#
     11858**DCL     11858--REDEF
CLOSE_MAILIN_SAVE.V.TYPE#
     11856**DCL     11856--REDEF
CLOSE_MAILIN_SAVE.V.XTNSIZE#
     11853**DCL     11853--REDEF   11855--REDEF
CLOSE_MAILIN_SCRATCH
     11889**DCL     13085<>CALL
CLOSE_MAILIN_SCRATCH.SN_
     11889**DCL     11889--REDEF
CLOSE_MAILIN_SCRATCH.UTL_
     11890**DCL     11890--REDEF
CLOSE_MAILIN_SCRATCH.V
     11894**DCL     11889--DCLINIT
CLOSE_MAILIN_SCRATCH.V.EXPIRE#
     11904**DCL     11904--REDEF
CLOSE_MAILIN_SCRATCH.V.TYPE#
     11902**DCL     11902--REDEF
CLOSE_MAILIN_SCRATCH.V.XTNSIZE#
     11899**DCL     11899--REDEF   11901--REDEF
CLOSE_RENAME
     12247**DCL     13111<>CALL
CLOSE_RENAME.SN_
     12247**DCL     12247--REDEF
CLOSE_RENAME.UTL_
     12248**DCL     12248--REDEF
PL6.E3A0      #001=VOM$MAILMAN File=VOM$MAILMAN.:VMB6TSI                         WED 08/20/97 15:31 Page:91
CLOSE_RENAME.V
     12252**DCL     12247--DCLINIT
CLOSE_RENAME.V.EXPIRE#
     12262**DCL     12262--REDEF
CLOSE_RENAME.V.TYPE#
     12260**DCL     12260--REDEF
CLOSE_RENAME.V.XTNSIZE#
     12257**DCL     12257--REDEF   12259--REDEF
CONTINUE IN PROCEDURE VOM$INTERSYS_RECEIVED
     13122**LABEL   13143--GOTO
CONTINUE IN PROCEDURE VOM$RECOVER
     13066**LABEL   13086--GOTO
CURRENT_TIME
     10988**DCL     12021--DCLINIT 12471>>ASSIGN  12482<>CALL    13070>>ASSIGN  13126>>ASSIGN
EPASS
     10989**DCL     10990--REDEF   12460>>ASSIGN
ERRMSG_FID.L#
      8612**DCL      8612--IMP-SIZ
ERROR
     11969**DCL     13079<<ASSIGN  13135<<ASSIGN
ERROR.ERR#
     11999**DCL     13081>>IF      13137>>IF
E_ENLARGE IN PROCEDURE VOM$_GETBUFS
     13037**LABEL   13014--CALLALT 13015--CALLALT 13016--CALLALT 13017--CALLALT 13018--CALLALT 13019--CALLALT
     13021--CALLALT 13023--CALLALT
F$DCB.ACTPOS
      9978**DCL      9978--REDEF
F$DCB.ARS#
      9952**DCL      9952--REDEF
F$DCB.ATTR
      9971**DCL      9972--REDEF
F$DCB.BORROW
      9986**DCL      9986--REDEF    9986--REDEF    9986--REDEF
F$DCB.DCBNAME.L
     10000**DCL     10000--IMP-SIZ
F$DCB.EOMCHAR#
PL6.E3A0      #001=VOM$MAILMAN File=VOM$MAILMAN.:VMB6TSI                         WED 08/20/97 15:31 Page:92
      9956**DCL      9956--REDEF
F$DCB.FLDID
      9981**DCL      9981--REDEF
F$DCB.FORM$
      9975**DCL      9975--REDEF
F$DCB.FSECT
      9991**DCL      9991--REDEF
F$DCB.FSN#
      9968**DCL      9968--REDEF    9968--REDEF    9969--REDEF
F$DCB.HEADER$
      9974**DCL      9974--REDEF
F$DCB.IXTNSIZE#
      9972**DCL      9972--REDEF
F$DCB.LASTSTA$
      9961**DCL      9961--REDEF
F$DCB.LVL
      9987**DCL      9987--REDEF
F$DCB.NAME#
      9962**DCL     13107>>ASSIGN
F$DCB.NAME#.C
      9962**DCL      9962--REDEF   13051>>IF      13104>>IF
F$DCB.NOEOF
      9984**DCL      9984--REDEF
F$DCB.NRECS#
      9973**DCL      9973--REDEF
F$DCB.NRECX
      9992**DCL      9992--REDEF
F$DCB.OHDR
      9984**DCL      9984--REDEF
F$DCB.ORG#
      9967**DCL      9967--REDEF
F$DCB.PRECNO
      9990**DCL      9990--REDEF
F$DCB.RCSZ
      9996**DCL      9996--REDEF
F$DCB.RES#
PL6.E3A0      #001=VOM$MAILMAN File=VOM$MAILMAN.:VMB6TSI                         WED 08/20/97 15:31 Page:93
      9963**DCL      9963--REDEF
F$DCB.SETX
      9975**DCL      9975--REDEF
F$DCB.TAB$
      9975**DCL      9975--REDEF
F$DCB.TDA
      9989**DCL      9990--REDEF
F$DCB.WSN#
      9963**DCL      9963--REDEF
FIRST_INTERSYS_FILE
     12321**DCL     13094--ASSIGN
FIRST_NAME
     11813**DCL     11743--DCLINIT
FPT_EVENT
     12217**DCL     12466<>CALL
FPT_EVENT.V
     12217**DCL     12217--DCLINIT
FREE$
     10996**DCL     13027<<ASSIGN
GET_CURRENT
     12017**DCL     12469<>CALL    12477<>CALL    13069<>CALL    13125<>CALL
GET_CURRENT.V
     12021**DCL     12017--DCLINIT
GET_TIME_ENTRY.V
     11537**DCL     11537--DCLINIT
I
     10985**DCL     12449<<CALLBLT 12450>>ASSIGN  12457<<DOINDEX 12458>>ASSIGN  12458>>ASSIGN  12482<>CALL
     12483<<ASSIGN  12483>>ASSIGN  12486<<ASSIGN  12488>>IF      12515>>ASSIGN  12522<<CALLBLT 12523>>ASSIGN
INTERSYS$
      8329**DCL      8334--IMP-PTR 13028<<ASSIGN
INTERSYS_HEAD$
      8328**DCL     13029<<ASSIGN
KEY_VALUE
     11001**DCL     12958<<ASSIGN  12959<>CALL
M$CGCTL
      8161**DCL-ENT 12953--CALL
PL6.E3A0      #001=VOM$MAILMAN File=VOM$MAILMAN.:VMB6TSI                         WED 08/20/97 15:31 Page:94
M$CLOSE
      8140**DCL-ENT 13055--CALL    13073--CALL    13085--CALL    13111--CALL    13129--CALL    13141--CALL
M$EVENT
      8195**DCL-ENT 12466--CALL
M$LM
     11407**DCL     12513>>ASSIGN
M$MAIL_GLOBAL_NUM
      8527**DCL     12509>>ASSIGN
M$NODE_NUM
      8540**DCL     12511>>ASSIGN
M$OPEN
      8140**DCL-ENT 12952--CALL    13045--CALL    13049--CALL    13098--CALL    13102--CALL    13109--CALL
     13114--CALL
M$READ
      8141**DCL-ENT 12473--CALL    12533--CALL
M$SPRIV
      8199**DCL-ENT 12442--CALL
M$TIME
      8207**DCL-ENT 12469--CALL    12477--CALL    13069--CALL    13125--CALL
M$TRUNC
      8141**DCL-ENT 12510--CALL    12512--CALL    12514--CALL
M$WAIT
      8198**DCL-ENT 12526--CALL
M$XCON
      8195**DCL-ENT 12549--CALL
M$XXX
      8152**DCL-ENT 12436--CALL    12543--CALL    12969--CALL    13037--CALL
MAILCG_ACCESS IN PROCEDURE VOM$_OPENS
     12694**DCL     12640--DCLINIT
MAILCG_ACCESS.Q IN PROCEDURE VOM$_OPENS
     12695**DCL     12694--DCLINIT
MAILCG_ACSVEH IN PROCEDURE VOM$_OPENS
     12726**DCL     12641--DCLINIT
MAILCG_ACSVEH.Q IN PROCEDURE VOM$_OPENS
     12727**DCL     12726--DCLINIT
MAILCG_CGCP IN PROCEDURE VOM$_OPENS
PL6.E3A0      #001=VOM$MAILMAN File=VOM$MAILMAN.:VMB6TSI                         WED 08/20/97 15:31 Page:95
     12920**DCL     12877--DCLINIT
MAILCG_CGCP.DVBYTE.REREAD# IN PROCEDURE VOM$_OPENS
     12934**DCL     12935--REDEF
MAILMAN_STATION IN PROCEDURE VOM$_OPENS
     12845**DCL     12639--DCLINIT
MAIL_CGCTL IN PROCEDURE VOM$_OPENS
     12876**DCL     12953<>CALL
MAIL_CGCTL.V IN PROCEDURE VOM$_OPENS
     12881**DCL     12876--DCLINIT
MAIL_IN
     11403**DCL     13051--IF      13059<>CALL    13072<>CALL    13104--IF      13107--ASSIGN  13115<>CALL
     13128<>CALL
MAIL_NAME
     12203**DCL     12133--DCLINIT 13108<<ASSIGN  13113<<ASSIGN
MAX$
     10997**DCL     13030<<ASSIGN
OPEN_COMGROUP IN PROCEDURE VOM$_OPENS
     12638**DCL     12952<>CALL
OPEN_COMGROUP.ACSVEH_ IN PROCEDURE VOM$_OPENS
     12640**DCL     12641--REDEF
OPEN_COMGROUP.ALTKEYS_ IN PROCEDURE VOM$_OPENS
     12646**DCL     12647--REDEF   12647--REDEF
OPEN_COMGROUP.HDR_ IN PROCEDURE VOM$_OPENS
     12645**DCL     12646--REDEF
OPEN_COMGROUP.TAB_ IN PROCEDURE VOM$_OPENS
     12644**DCL     12645--REDEF
OPEN_COMGROUP.UHL_ IN PROCEDURE VOM$_OPENS
     12638**DCL     12639--REDEF   12639--REDEF
OPEN_COMGROUP.V IN PROCEDURE VOM$_OPENS
     12647**DCL     12638--DCLINIT
OPEN_COMGROUP.V.FSN# IN PROCEDURE VOM$_OPENS
     12678**DCL     12678--REDEF   12678--REDEF
OPEN_COMGROUP.WSN_ IN PROCEDURE VOM$_OPENS
     12644**DCL     12644--REDEF
OPEN_FIRST
     11742**DCL     13045<>CALL    13098<>CALL
PL6.E3A0      #001=VOM$MAILMAN File=VOM$MAILMAN.:VMB6TSI                         WED 08/20/97 15:31 Page:96
OPEN_FIRST.ACSVEH_
     11744**DCL     11745--REDEF
OPEN_FIRST.ALTKEYS_
     11750**DCL     11751--REDEF   11751--REDEF
OPEN_FIRST.HDR_
     11749**DCL     11750--REDEF
OPEN_FIRST.NAME_
     11743**DCL     13094<<ASSIGN
OPEN_FIRST.TAB_
     11748**DCL     11749--REDEF
OPEN_FIRST.UHL_
     11742**DCL     11743--REDEF   11743--REDEF
OPEN_FIRST.V
     11751**DCL     11742--DCLINIT
OPEN_FIRST.V.FSN#
     11782**DCL     11782--REDEF   11782--REDEF
OPEN_FIRST.WSN_
     11748**DCL     11748--REDEF
OPEN_MAIL
     12132**DCL     13109<>CALL    13114<>CALL
OPEN_MAIL.ACSVEH_
     12134**DCL     12135--REDEF
OPEN_MAIL.ALTKEYS_
     12140**DCL     12141--REDEF   12141--REDEF
OPEN_MAIL.HDR_
     12139**DCL     12140--REDEF
OPEN_MAIL.TAB_
     12138**DCL     12139--REDEF
OPEN_MAIL.UHL_
     12132**DCL     12133--REDEF   12133--REDEF
OPEN_MAIL.V
     12141**DCL     12132--DCLINIT
OPEN_MAIL.V.FSN#
     12172**DCL     12172--REDEF   12172--REDEF
OPEN_MAIL.WSN_
     12138**DCL     12138--REDEF
PL6.E3A0      #001=VOM$MAILMAN File=VOM$MAILMAN.:VMB6TSI                         WED 08/20/97 15:31 Page:97
OPEN_NEXT
     11627**DCL     13049<>CALL    13102<>CALL
OPEN_NEXT.ACSVEH_
     11629**DCL     11630--REDEF
OPEN_NEXT.ALTKEYS_
     11635**DCL     11636--REDEF   11636--REDEF
OPEN_NEXT.HDR_
     11634**DCL     11635--REDEF
OPEN_NEXT.TAB_
     11633**DCL     11634--REDEF
OPEN_NEXT.UHL_
     11627**DCL     11628--REDEF   11628--REDEF
OPEN_NEXT.V
     11636**DCL     11627--DCLINIT
OPEN_NEXT.V.FSN#
     11667**DCL     11667--REDEF   11667--REDEF
OPEN_NEXT.V.OPER.TEST#
     11638**DCL     13096<<ASSIGN
OPEN_NEXT.WSN_
     11633**DCL     11633--REDEF
OUTSTATION
     12336**DCL     12046--DCLINIT
OUTSTATION.MSGIDXT
     12346**DCL     12349--REDEF
PASSWORD
     10991**DCL     10992--REDEF   12455<<ASSIGN  12456<>CALL
RENAME_NAME
     12292**DCL     12249--DCLINIT 13107<<ASSIGN  13108>>ASSIGN  13113>>ASSIGN
RENAME_NAME.NAME#
     12292**DCL     13110<<CALLBLT
SEG$
     10998**DCL     13031<<ASSIGN  13032>>ASSIGN
SET_FMSEC
     12408**DCL     12442<>CALL
SET_FMSEC.V
     12408**DCL     12408--DCLINIT
PL6.E3A0      #001=VOM$MAILMAN File=VOM$MAILMAN.:VMB6TSI                         WED 08/20/97 15:31 Page:98
SET_XCON
     11501**DCL     12549<>CALL
SET_XCON.V
     11502**DCL     11501--DCLINIT
SIZE IN PROCEDURE VOM$SHRINK_SEGMENT
     13151**DCL     13155<<ASSIGN  13156<>CALL
TESTMODE
     12427**DCL     12434>>IF
TIME$
      8328**DCL      8332--IMP-PTR 13072<>CALL    13128<>CALL
TIME_HEAD$
      8328**DCL     12479>>IF      12482>>CALL    12491<>CALL    13026<<ASSIGN  13072<>CALL    13128<>CALL
TIME_TABLE
      8332**DCL     11540--DCLINIT
TIME_TABLE.NEXT$
      8332**DCL     13032<<ASSIGN
TIME_TABLE.TSTAMP
      8332**DCL     12482<>CALL
TIME_VECTOR
     11554**DCL     11537--DCLINIT
TIME_VECTOR.W2
     11555**DCL     11556--REDEF
TRUNC_BUFF
     12423**DCL     12510<>CALL    12512<>CALL    12514<>CALL
TRUNC_BUFF.V
     12423**DCL     12423--DCLINIT
TRUNC_BUFF.V.DCB#
     12423**DCL     12509<<ASSIGN  12511<<ASSIGN  12513<<ASSIGN
VECT_ IN PROCEDURE VOM$SHRINK_SEGMENT
     13150**DCL     13146--PROC    13153>>IF      13155>>ASSIGN  13156<>CALL
VMA$ENLARGE_SEGMENT
     11006**DCL-ENT 13014--CALL    13015--CALL    13016--CALL    13017--CALL    13018--CALL    13019--CALL
     13021--CALL
VMA$GET_SITE_NAME
     11011**DCL-ENT 12959--CALL
VMA$OPEN_ENCL_SEGS
PL6.E3A0      #001=VOM$MAILMAN File=VOM$MAILMAN.:VMB6TSI                         WED 08/20/97 15:31 Page:99
     11008**DCL-ENT 13023--CALL
VMA$SHRINK_SEGMENT
     11007**DCL-ENT 13156--CALL
VMD$GET_HEADER
     11009**DCL-ENT 13059--CALL    13115--CALL
VM_ADDLIST_
      8490**DCL     12502<>CALL    13014<>CALL
VM_ADDREC_
      8491**DCL     12503<>CALL    13015<>CALL
VM_CGBUFFER
      8222**DCL     11460--DCLINIT 11461--DCLINIT 12045--DCLINIT 12046--DCLINIT
VM_COPY_
      8496**DCL     12507<>CALL    13021<>CALL
VM_HEADER.DELIVERY_DATE
     11112**DCL     13066>>IF      13070<<ASSIGN  13122>>IF      13126<<ASSIGN
VM_HEADER$
      8462**DCL     11107--IMP-PTR 13066>>IF      13070>>ASSIGN  13122>>IF      13126>>ASSIGN
VM_HEADER_
      8487**DCL     12504<>CALL    13016<>CALL
VM_INPUT$
      8476**DCL     13030>>ASSIGN  13031>>ASSIGN
VM_INPUT_
      8495**DCL     13019<>CALL
VM_MAILCG_NAME
      8733**DCL     12639--DCLINIT
VM_MAIL_ACCT
      8558**DCL     11747--DCLINIT 12137--DCLINIT 12643--DCLINIT
VM_PROFILE$
      8464**DCL     11238--IMP-PTR
VM_PROFILE_
      8489**DCL     12505<>CALL    13017<>CALL
VM_SITENAME
      8735**DCL     12959<>CALL
VM_WORK_
      8492**DCL     12506<>CALL    13018<>CALL
VOM$ADDENTRY_SORTED
PL6.E3A0      #001=VOM$MAILMAN File=VOM$MAILMAN.:VMB6TSI                         WED 08/20/97 15:31 Page:100
     11418**DCL-ENT 13072--CALL    13128--CALL
VOM$DOSEND
     11003**DCL-ENT 12491--CALL
VOM$EVENT
     11416**DCL-ENT 12217--DCLINIT
VOM$INTERSYS_RECEIVED
     13092**PROC    12540--CALL
VOM$PROCESS
     11013**DCL-ENT 12536--CALL
VOM$RECOVER
     13041**PROC    12464--CALL
VOM$SHRINK_SEGMENT
     13146**PROC    12502--CALL    12503--CALL    12504--CALL    12505--CALL    12506--CALL    12507--CALL
VOM$XCON
     11415**DCL-ENT 11502--DCLINIT
VOM$_GETBUFS
     12974**PROC    12462--CALL
VOM$_OPENS
     12557**PROC    12467--CALL
VOM$_SETXCON
     12547**PROC    12453--CALL
VOM_INIT_CCTIME
     11421**DCL     12441<<ASSIGN
VO_BNWIO.CGPARM.MSGIDXT
      8277**DCL      8280--REDEF
VO_BNWIO.CODE
      8246**DCL      8246--REDEF    8247--REDEF    8247--REDEF
VO_BNWIO.ERR.ERR#
      8248**DCL      8248--REDEF
VO_BNWIO.EVID
      8247**DCL      8247--REDEF    8247--REDEF
VO_INTERSYS_ALLOWED
      8328**DCL     12538>>IF      12962<<ASSIGN
VO_INTERSYS_EPASS
      8331**DCL     12460<<ASSIGN
VO_INTERSYS_PASSWORD
PL6.E3A0      #001=VOM$MAILMAN File=VOM$MAILMAN.:VMB6TSI                         WED 08/20/97 15:31 Page:101
      8331**DCL     12455>>ASSIGN
VO_MAILMAN_STARTUP_TIME
      8330**DCL     12471<<ASSIGN
VO_NEED_READ
     11480**DCL     12497>>IF      12517>>IF      12531>>IF      12532<<ASSIGN
VO_PROCESS
     11481**DCL     12497>>IF      12517>>IF      12536>>IF
VO_READ_CG
     11458**DCL     12473<>CALL    12533<>CALL
VO_READ_CG.STATION_
     11461**DCL     11462--REDEF
VO_READ_CG.V
     11462**DCL     11458--DCLINIT
VO_READ_CG.V.DVBYTE.REREAD#
     11473**DCL     11473--REDEF
VO_READ_CG.V.INDX#
     11471**DCL     11471--REDEF
WAIT_IT_OUT
     11517**DCL     12526<>CALL
WAIT_IT_OUT.V
     11518**DCL     11517--DCLINIT
WAIT_IT_OUT.V.UNITS#
     11518**DCL     12515<<ASSIGN
WELL_WHAT_NOW
     12532**LABEL   12466--CALLALT 12473--CALLALT
WHO_CARES IN PROCEDURE VOM$INTERSYS_RECEIVED
     13137**LABEL   13129--CALLALT 13141--CALLALT
WRITE_MAILCG.STATION_
     12046**DCL     12046--REDEF
WRITE_MAILCG.V
     12047**DCL     12044--DCLINIT
WRITE_MAILCG.V.DVBYTE.VFC#
     12053**DCL     12053--REDEF
X$STRING.SIZ
      8458**DCL      8459--IMP-SIZ
X66_REL_AUTO
PL6.E3A0      #001=VOM$MAILMAN File=VOM$MAILMAN.:VMB6TSI                         WED 08/20/97 15:31 Page:102
     11005**DCL-ENT 12501--CALL
XCON0_ALT IN PROCEDURE VOM$_SETXCON
     12549**LABEL   12549--CALLALT
XUD$UTS_DIFF_SEC
     11371**DCL-ENT 12482--CALL

