VERSION B06

PL6.E3A0      #001=VOM_DATA_D File=VOM_DATA_D.:VMB6TSI                           WED 08/20/97 15:36 Page:1
        1        1        /*M* VOM_DATA_D MAILMANs global data */
        2        2        /*T***********************************************************/
        3        3        /*T*                                                         */
        4        4        /*T* Copyright (c) Bull HN Information Systems Inc., 1997    */
        5        5        /*T*                                                         */
        6        6        /*T***********************************************************/
        7        7        /*X* DFC, DMC */
        8        8        %SET LISTSUB='1'B;
        9        9
       10       10
       11       11        VOM_DATA_D: PROC NOAUTO;
       12       12
       13       13        %INCLUDE VM_SUBS_C;
       14      273        %INCLUDE VM_MACRO_C;
       15     1541        %INCLUDE CP_6;
       16     7100
       17     7101        /* !R! */                               /* munger commands */
       18     7102
       19     7103          %VM_CGBUFFER (NAME=VM_CGBUFFER,STCLASS="STATIC SYMDEF");
       20     7134
       21     7135          %B$NWIO   (NAME=VO_BNWIO,STCLASS="STATIC SYMDEF");
       22     7220          /* Some event occured. VO_BNWIO needs to be processed. */
       23     7221
       24     7222
       25     7223    1   DCL STATION# CHAR(8) STATIC SYMDEF INIT(' ');
       26     7224    1   DCL VO_INTERSYS_ALLOWED BIT(1) STATIC SYMDEF INIT('1'B);
       27     7225          /* Is intersystem mail allowed on this system? */
       28     7226    1   DCL TIME_HEAD$ PTR STATIC SYMDEF ALIGNED INIT(ADDR(NIL));
       29     7227          /* Head ptr to TIME_TABLE list */
       30     7228    1   DCL TIME$ PTR STATIC SYMDEF ALIGNED;
       31     7229          /* Ptr to current element of TIME_TABLE list */
       32     7230    1   DCL INTERSYS_HEAD$ PTR STATIC SYMDEF ALIGNED;
       33     7231          /* Head ptr to INTERSYS_INFO list */
       34     7232    1   DCL INTERSYS$ PTR STATIC SYMDEF ALIGNED;
       35     7233          /* Ptr to current element of INTERSYS_INFO list */
       36     7234    1   DCL VO_BUSY_RETRY_MINUTES UBIN CONSTANT SYMDEF INIT (5);
       37     7235           /* # minutes to wait to retry delivery to a busy mailbox  */
PL6.E3A0      #001=VOM_DATA_D File=VOM_DATA_D.:VMB6TSI                           WED 08/20/97 15:36 Page:2
       38     7236    1   DCL VO_PACKSET_RETRY_MINUTES UBIN CONSTANT SYMDEF INIT (30);
       39     7237           /* # minutes to wait to retry delivery to mailbox on unavailable packset */
       40     7238    1   DCL VO_MAX_HOLD_HOURS UBIN CONSTANT SYMDEF INIT (72);
       41     7239           /* # hours after which to declare mail undeliverable */
       42     7240    1   DCL VO_HOG_LIMIT UBIN CONSTANT SYMDEF INIT (20);
       43     7241           /* max # copies of a mailgram to deliver before temporarily setting aside */
       44     7242    1   DCL VO_MAILMAN_STARTUP_TIME UBIN STATIC SYMDEF INIT (0);
       45     7243           /* UTS when MAILMAN began running */
       46     7244    1   DCL VO_INTERSYS_PASSWORD CHAR(8) STATIC SYMDEF INIT('MAILPASS');
       47     7245    1   DCL VO_INTERSYS_EPASS CHAR(12) STATIC SYMDEF;
       48     7246    1   DCL VO_INTERSYS_ACCT CHAR(8) STATIC SYMDEF INIT(':MAIL');
       49     7247    1   DCL VO_INTERSYS_UNAME CHAR(8) STATIC SYMDEF INIT('500ATOB');
       50     7248
       51     7249
       52     7250    1   DCL 1 TIME_TABLE BASED(TIME$),
       53     7251    1         2 NEXT$ PTR,
       54     7252    1         2 PRIOR$ PTR UNAL,
       55     7253    1         2 TSTAMP UBIN WORD,
       56     7254    1         2 * CHAR(8) CALIGNED,
       57     7255    1         2 PASS BIT(1) UNAL,
       58     7256    1         2 * BIT(8)     UNAL,
       59     7257    1         2 COUNT SBIN WORD UNAL,
       60     7258    1         2 NAME,
       61     7259    1           3 L# UBIN BYTE CALIGNED,
       62     7260    1           3 NAME# CHAR(31) CALIGNED,
       63     7261    1         2 * CHAR(11) CALIGNED;
       64     7262    1   DCL 1 INTERSYS_INFO BASED(INTERSYS$),
       65     7263    1         2 NEXT$ PTR UNAL,
       66     7264    1         2 PRIOR$ PTR UNAL,
       67     7265    1         2 SITENAME CHAR(8),
       68     7266    1         2 NAME CHAR(19),
       69     7267    1         2 * (0:5) UBIN WORD ALIGNED;
       70     7268
       71     7269    1   DCL VO_RETRY_LIMIT_INTERSYSTEM UBIN WORD STATIC SYMDEF INIT(144000);
       72     7270             /* Logon used to stuff messages into receiving system */
       73     7271    1   END VOM_DATA_D;

PL6.E3A0      #001=VOM_DATA_D File=VOM_DATA_D.:VMB6TSI                           WED 08/20/97 15:36 Page:3
--  Include file information  --

   CP_6_C.:LIB_E05  is referenced.
   CP_6.:LIB_E05  cannot be made into a system file and is referenced.
   VM_MACRO_C.:VMB6TOU  is referenced.
   VM_SUBS_C.:VMB6TOU  is referenced.
      No diagnostics issued in procedure VOM_DATA_D.

   No code generated for procedure VOM_DATA_D .
   Procedure VOM_DATA_D is declared NOAUTO and requires 136 words of local(STATIC) storage.

    No errors detected in file VOM_DATA_D.:VMB6TSI    .

PL6.E3A0      #001=VOM_DATA_D File=VOM_DATA_D.:VMB6TSI                           WED 08/20/97 15:36 Page:4

 Object Unit name= VOM_DATA_D                                 File name= VOM_DATA_D.:VMB6TOU
 UTS= AUG 20 '97 15:36:35.16 WED                              Compiler= PL-6/E31         Sev=      00
 SharedLib= :SHARED_SYSTEM                                    Alt SharedLib=


    ****  Control sections  ****

 Sect   Type Bound  Init  Size OctSiz  Section name(segment info)
    0   Data  even  none   136    210  VOM_DATA_D
    1   DCB   even  none     0      0  M$UC
    2  RoData even  UTS      4      4  VOM_DATA_D
    3   Proc  even  none     0      0  VOM_DATA_D

    ****  Entry defs  ****

                              Check   Calling
                             calling  sequence
  Sect OctLoc Primary Altret sequence   type   Parms  Name
     3      0   yes            yes     ~proc       0  VOM_DATA_D
PL6.E3A0      #001=VOM_DATA_D File=VOM_DATA_D.:VMB6TSI                           WED 08/20/97 15:36 Page:5

  ****  Data defs  ****

 Sect OctLoc  Name                           Sect OctLoc  Name
    0      1  VM_CGBUFFER                        0     45  VO_BNWIO
    0    165  STATION#                           0    167  VO_INTERSYS_ALLOWED
    0    170  TIME_HEAD$                         0    171  TIME$
    0    172  INTERSYS_HEAD$                     0    173  INTERSYS$
    2      0  VO_BUSY_RETRY_MINUTES              2      1  VO_PACKSET_RETRY_MINUTES
    2      2  VO_MAX_HOLD_HOURS                  2      3  VO_HOG_LIMIT
    0    174  VO_MAILMAN_STARTUP_TIME            0    175  VO_INTERSYS_PASSWORD
    0    177  VO_INTERSYS_EPASS                  0    202  VO_INTERSYS_ACCT
    0    204  VO_INTERSYS_UNAME                  0    206  VO_RETRY_LIMIT_INTERSYSTEM

  ****  Data refs  ****

  Flags:  r = read only, s = secondary
Flgs Name                             Flgs Name                             Flgs Name
     M$UC

  ****  Segment refs  ****

  Flags:  r = read only, s = secondary
Flgs Name                             Flgs Name                             Flgs Name
     NULLSID
PL6.E3A0      #001=VOM_DATA_D File=VOM_DATA_D.:VMB6TSI                           WED 08/20/97 15:36 Page:6


VM_CGBUFFER
 Sect OctLoc
   0     001   040040 040040   040040 040040   000000 000000   000040 040040            .....
   0     005   040040 040040   040040 040040   040040 040040   040040 040040
   0     011   040040 040040   040040 000000   040040 040040   040040 040040          ..
   0     015   040040 040040   040040 040040   040040 040040   040040 040040
   0     021   040040 040040   040040 040040   000040 040040   040040 040040            .
   0     025   040040 040040   040040 040040   040040 040040   040040 040040
   0     031   040040 040040   040040 040040   ****** ******   040040 040040            ....
   0     035   040040 040040   040040 040040   040040 040040   040040 040040
   0     041   040040 040040   040040 040040   040040 040040   040040 040040

VO_BNWIO
 Sect OctLoc
   0     045   ****** ******   ****** ******   ****** ******   ****** ******    ................
   0     151*  ****** ******   ****** ******   ****** ******   040040 040040    ............
   0     155   040040 040040   040040 040040   040040 040040   001000 000000                ....
   0     161   000000 000000   000000 000000   000000 000000   000000 000000    ................

STATION#
 Sect OctLoc
   0     165   040040 040040   040040 040040

VO_INTERSYS_ALLOWED
 Sect OctLoc
   0     167   4***** ******                                                    ....

TIME_HEAD$
 Sect OctLoc
   0     170   000000 006014                                                    ....

VO_MAILMAN_STARTUP_TIME
 Sect OctLoc
   0     174   000000 000000                                                    ....

VO_INTERSYS_PASSWORD
PL6.E3A0      #001=VOM_DATA_D File=VOM_DATA_D.:VMB6TSI                           WED 08/20/97 15:36 Page:7
 Sect OctLoc
   0     175   115101 111114   120101 123123                                    MAILPASS

VO_INTERSYS_ACCT
 Sect OctLoc
   0     202   072115 101111   114040 040040                                    :MAIL

VO_INTERSYS_UNAME
 Sect OctLoc
   0     204   065060 060101   124117 102040                                    500ATOB

VO_RETRY_LIMIT_INTERSYSTEM
 Sect OctLoc
   0     206   000000 431200                                                    ....

VO_BUSY_RETRY_MINUTES
 Sect OctLoc
   2     000   000000 000005                                                    ....

VO_PACKSET_RETRY_MINUTES
 Sect OctLoc
   2     001   000000 000036                                                    ....

VO_MAX_HOLD_HOURS
 Sect OctLoc
   2     002   000000 000110                                                    ...H

VO_HOG_LIMIT
 Sect OctLoc
   2     003   000000 000024                                                    ....
        1        1        /*M* VOM_DATA_D MAILMANs global data */
        2        2        /*T***********************************************************/
        3        3        /*T*                                                         */
        4        4        /*T* Copyright (c) Bull HN Information Systems Inc., 1997    */
        5        5        /*T*                                                         */
        6        6        /*T***********************************************************/
        7        7        /*X* DFC, DMC */
PL6.E3A0      #001=VOM_DATA_D File=VOM_DATA_D.:VMB6TSI                           WED 08/20/97 15:36 Page:8
        8        8        %SET LISTSUB='1'B;
        9        9
       10       10
       11       11        VOM_DATA_D: PROC NOAUTO;
       12       12
       13       13        %INCLUDE VM_SUBS_C;
       14      273        %INCLUDE VM_MACRO_C;
       15     1541        %INCLUDE CP_6;
       16     7100
       17     7101        /* !R! */                               /* munger commands */
       18     7102
       19     7103          %VM_CGBUFFER (NAME=VM_CGBUFFER,STCLASS="STATIC SYMDEF");
       20     7134
       21     7135          %B$NWIO   (NAME=VO_BNWIO,STCLASS="STATIC SYMDEF");
       22     7220          /* Some event occured. VO_BNWIO needs to be processed. */
       23     7221
       24     7222
       25     7223    1   DCL STATION# CHAR(8) STATIC SYMDEF INIT(' ');
       26     7224    1   DCL VO_INTERSYS_ALLOWED BIT(1) STATIC SYMDEF INIT('1'B);
       27     7225          /* Is intersystem mail allowed on this system? */
       28     7226    1   DCL TIME_HEAD$ PTR STATIC SYMDEF ALIGNED INIT(ADDR(NIL));
       29     7227          /* Head ptr to TIME_TABLE list */
       30     7228    1   DCL TIME$ PTR STATIC SYMDEF ALIGNED;
       31     7229          /* Ptr to current element of TIME_TABLE list */
       32     7230    1   DCL INTERSYS_HEAD$ PTR STATIC SYMDEF ALIGNED;
       33     7231          /* Head ptr to INTERSYS_INFO list */
       34     7232    1   DCL INTERSYS$ PTR STATIC SYMDEF ALIGNED;
       35     7233          /* Ptr to current element of INTERSYS_INFO list */
       36     7234    1   DCL VO_BUSY_RETRY_MINUTES UBIN CONSTANT SYMDEF INIT (5);
       37     7235           /* # minutes to wait to retry delivery to a busy mailbox  */
       38     7236    1   DCL VO_PACKSET_RETRY_MINUTES UBIN CONSTANT SYMDEF INIT (30);
       39     7237           /* # minutes to wait to retry delivery to mailbox on unavailable packset */
       40     7238    1   DCL VO_MAX_HOLD_HOURS UBIN CONSTANT SYMDEF INIT (72);
       41     7239           /* # hours after which to declare mail undeliverable */
       42     7240    1   DCL VO_HOG_LIMIT UBIN CONSTANT SYMDEF INIT (20);
       43     7241           /* max # copies of a mailgram to deliver before temporarily setting aside */
       44     7242    1   DCL VO_MAILMAN_STARTUP_TIME UBIN STATIC SYMDEF INIT (0);
PL6.E3A0      #001=VOM_DATA_D File=VOM_DATA_D.:VMB6TSI                           WED 08/20/97 15:36 Page:9
       45     7243           /* UTS when MAILMAN began running */
       46     7244    1   DCL VO_INTERSYS_PASSWORD CHAR(8) STATIC SYMDEF INIT('MAILPASS');
       47     7245    1   DCL VO_INTERSYS_EPASS CHAR(12) STATIC SYMDEF;
       48     7246    1   DCL VO_INTERSYS_ACCT CHAR(8) STATIC SYMDEF INIT(':MAIL');
       49     7247    1   DCL VO_INTERSYS_UNAME CHAR(8) STATIC SYMDEF INIT('500ATOB');
       50     7248
       51     7249
       52     7250    1   DCL 1 TIME_TABLE BASED(TIME$),
       53     7251    1         2 NEXT$ PTR,
       54     7252    1         2 PRIOR$ PTR UNAL,
       55     7253    1         2 TSTAMP UBIN WORD,
       56     7254    1         2 * CHAR(8) CALIGNED,
       57     7255    1         2 PASS BIT(1) UNAL,
       58     7256    1         2 * BIT(8)     UNAL,
       59     7257    1         2 COUNT SBIN WORD UNAL,
       60     7258    1         2 NAME,
       61     7259    1           3 L# UBIN BYTE CALIGNED,
       62     7260    1           3 NAME# CHAR(31) CALIGNED,
       63     7261    1         2 * CHAR(11) CALIGNED;
       64     7262    1   DCL 1 INTERSYS_INFO BASED(INTERSYS$),
       65     7263    1         2 NEXT$ PTR UNAL,
       66     7264    1         2 PRIOR$ PTR UNAL,
       67     7265    1         2 SITENAME CHAR(8),
       68     7266    1         2 NAME CHAR(19),
       69     7267    1         2 * (0:5) UBIN WORD ALIGNED;
       70     7268
       71     7269    1   DCL VO_RETRY_LIMIT_INTERSYSTEM UBIN WORD STATIC SYMDEF INIT(144000);
       72     7270             /* Logon used to stuff messages into receiving system */
       73     7271    1   END VOM_DATA_D;

PL6.E3A0      #001=VOM_DATA_D File=VOM_DATA_D.:VMB6TSI                           WED 08/20/97 15:36 Page:10
--  Include file information  --

   CP_6_C.:LIB_E05  is referenced.
   CP_6.:LIB_E05  cannot be made into a system file and is referenced.
   VM_MACRO_C.:VMB6TOU  is referenced.
   VM_SUBS_C.:VMB6TOU  is referenced.
      No diagnostics issued in procedure VOM_DATA_D.
PL6.E3A0      #001=VOM_DATA_D File=VOM_DATA_D.:VMB6TSI                           WED 08/20/97 15:36 Page:11

 **** Variables and constants ****

  ****  Section 000  Data  VOM_DATA_D

  ****  Scalars and arrays  ****
OctLoc.c.b A Datatyp(siz) R M Lvl/name                 OctLoc.c.b A Datatyp(siz) R M Lvl/name

   173-0-0/w PTR         r     1 INTERSYS$                172-0-0/w PTR               1 INTERSYS_HEAD$
   165-0-0/c CHAR(8)           1 STATION#                 171-0-0/w PTR         r     1 TIME$
   170-0-0/w PTR               1 TIME_HEAD$                 1-0-0/c STRC(1296)        1 VM_CGBUFFER
    45-0-0/w STRC(2880)        1 VO_BNWIO                 202-0-0/c CHAR(8)           1 VO_INTERSYS_ACCT
   167-0-0/b BIT               1 VO_INTERSYS_ALLOWED      177-0-0/c CHAR(12)          1 VO_INTERSYS_EPASS
   175-0-0/c CHAR(8)           1 VO_INTERSYS_PASSWORD     204-0-0/c CHAR(8)           1 VO_INTERSYS_UNAME
   174-0-0/w UBIN              1 VO_MAILMAN_STARTUP_TIME
   206-0-0/w UBIN              1 VO_RETRY_LIMIT_INTERSYSTEM

  ****  Section 002 RoData VOM_DATA_D

  ****  Scalars and arrays  ****
OctLoc.c.b A Datatyp(siz) R M Lvl/name                 OctLoc.c.b A Datatyp(siz) R M Lvl/name

     0-0-0/w UBIN              1 VO_BUSY_RETRY_MINUTES
     3-0-0/w UBIN              1 VO_HOG_LIMIT               2-0-0/w UBIN              1 VO_MAX_HOLD_HOURS
     1-0-0/w UBIN              1 VO_PACKSET_RETRY_MINUTES

  ****  BASED and DCB variables  ****

  ****  Scalars and arrays  ****
OctLoc.c.b A Datatyp(siz) R M Lvl/name                 OctLoc.c.b A Datatyp(siz) R M Lvl/name

     0-0-0/w STRC(540)         1 INTERSYS_INFO              0-0-0N  NULL        r     1 M$UC
     0-0-0/w STRC(612)         1 TIME_TABLE


   No code generated for procedure VOM_DATA_D .
   Procedure VOM_DATA_D is declared NOAUTO and requires 136 words of local(STATIC) storage.
PL6.E3A0      #001=VOM_DATA_D File=VOM_DATA_D.:VMB6TSI                           WED 08/20/97 15:36 Page:12

    No errors detected in file VOM_DATA_D.:VMB6TSI    .
PL6.E3A0      #001=VOM_DATA_D File=VOM_DATA_D.:VMB6TSI                           WED 08/20/97 15:36 Page:13
          *** CROSS REFERENCE LISTING ***
**     DENOTES     IDENTIFIER DEFINITION
<<                 IDENTIFIER'S VALUE SET
>>                 IDENTIFIER'S VALUE USED
<>                 IDENTIFIER SET AND/OR USED
--                 IDENTIFIER REFERENCED
PL6.E3A0      #001=VOM_DATA_D File=VOM_DATA_D.:VMB6TSI                           WED 08/20/97 15:36 Page:14
          MINI XREF LISTING

INTERSYS$
      7232**DCL      7262--IMP-PTR
TIME$
      7228**DCL      7250--IMP-PTR
VO_BNWIO.CGPARM.MSGIDXT
      7169**DCL      7172--REDEF
VO_BNWIO.CODE
      7138**DCL      7138--REDEF    7139--REDEF    7139--REDEF
VO_BNWIO.ERR.ERR#
      7140**DCL      7140--REDEF
VO_BNWIO.EVID
      7139**DCL      7139--REDEF    7139--REDEF
