VERSION B06

PL6.E3A0      #001=VWH$HEADER File=VWH$HEADER.:VMB6TSI                           WED 08/20/97 15:40 Page:1
        1        1        /*M* VWH$HEADER - Provide opening boilerplate JCL. */
        2        2        /*T***********************************************************/
        3        3        /*T*                                                         */
        4        4        /*T* Copyright (c) Bull HN Information Systems Inc., 1997    */
        5        5        /*T*                                                         */
        6        6        /*T***********************************************************/
        7        7
        8        8        /*F**
        9        9        *
       10       10        *   NAME:  VWH$HEADER
       11       11        *
       12       12        *   PURPOSE:
       13       13        *       To provide leading JCL for a transfer packet.
       14       14        *
       15       15        *   DESCRIPTION:
       16       16        *       Provide leading JCL for a transfer packet, based upon the node
       17       17        *       type.
       18       18        *
       19       19        *   REFERENCE:
       20       20        *       For a description of transfer packet formats, see the appropriate
       21       21        *       Architecture File document.
       22       22        *
       23       23        ****/
       24       24
       25       25        /*D**
       26       26        *
       27       27        *   NAME:  VWH$HEADER
       28       28        *
       29       29        *   CALL:
       30       30        *       CALL VWH$HEADER(dcbno,buf,pathtype) ALTRET...
       31       31        *
       32       32        *   PARAMETERS:
       33       33        *       dcbno - is the DCB through which the data are to be written.  buf -
       34       34        *       is the buffer to contain the data.  pathtype - is the type of node
       35       35        *       to generate JCL for.
       36       36        *
       37       37        *   INTERFACE:
PL6.E3A0      #001=VWH$HEADER File=VWH$HEADER.:VMB6TSI                           WED 08/20/97 15:40 Page:2
       38       38        *       None.
       39       39        *
       40       40        *   ENVIRONMENT:
       41       41        *       The DCB specified by dcbno must be open.
       42       42        *
       43       43        *   INPUT:
       44       44        *       dcbno and pathtype are input parameters.  VW_IAM# is also used
       45       45        *       (in some cases) to generate JCL.
       46       46        *
       47       47        *   OUTPUT:
       48       48        *       buf is modified with JCL data.
       49       49        *
       50       50        *   SCRATCH:
       51       51        *       None.
       52       52        *
       53       53        *   DESCRIPTION:
       54       54        *       HEADER builds the header "cards" in front of any transmission
       55       55        *       packet.  DCBNO is the DCB to which the packet information is to
       56       56        *       be sent, BUF is the I/O buffer to use, and PATHTYPE is an SBIN
       57       57        *       WORD value which indicates the path type of the (first) node.
       58       58        *
       59       59        ****/
       60       60
       61       61        VWH$HEADER: PROC(DCBNO,BUF,PATHTYPE) ALTRET;
       62       62
       63       63        /****
       64       64        *
       65       65        *   %INCLUDEs
       66       66        *
       67       67        ****/
       68       68
       69       69        %INCLUDE CP_6;
       70     5628        %INCLUDE VW_NODEATER_E;
       71     5684
       72     5685        /****
       73     5686        *
       74     5687        *   FPTs
PL6.E3A0      #001=VWH$HEADER File=VWH$HEADER.:VMB6TSI                           WED 08/20/97 15:40 Page:3
       75     5688        *
       76     5689        ****/
       77     5690
       78     5691        %FPT_WRITE;
       79     5722
       80     5723        %FPT_TIME(SOURCE=CLOCK,
       81     5724                  DEST=EXT);
       82     5743
       83     5744        %VLP_ACCT  (FPTN=ACCT_MOVE,
       84     5745                    STCLASS="CONSTANT SYMDEF",
       85     5746                    ACCT=':MOVE');
       86     5759
       87     5760        %F$DCB(DCBN=DUMMY);
       88     5817
       89     5818        /****
       90     5819        *
       91     5820        *   Parameters
       92     5821        *
       93     5822        ****/
       94     5823
       95     5824    1   DCL DCBNO                          SBIN;
       96     5825    1   DCL BUF                            CHAR(80);
       97     5826    1   DCL PATHTYPE                       SBIN;
       98     5827
       99     5828        /****
      100     5829        *
      101     5830        *   Local variables
      102     5831        *
      103     5832        ****/
      104     5833
      105     5834    1   DCL STAMP                          UBIN;
      106     5835    1   DCL I                              SBIN;
      107     5836    1   DCL TWORK                          CHAR(12);
      108     5837    1   DCL VW_IAM# SYMREF                 CHAR(8);
      109     5838
      110     5839        /****
      111     5840        *
PL6.E3A0      #001=VWH$HEADER File=VWH$HEADER.:VMB6TSI                           WED 08/20/97 15:40 Page:4
      112     5841        *   Initialize the FPTs using the variables passed.
      113     5842        *
      114     5843        ****/
      115     5844
      116     5845    1           FPT_TIME.TSTAMP_=VECTOR(STAMP);
      117     5846    1           FPT_WRITE.BUF_.BOUND=79;
      118     5847    1           FPT_WRITE.BUF_.BUF$=ADDR(BUF);
      119     5848    1           FPT_WRITE.V.DCB#=DCBNO;
      120     5849
      121     5850        /****
      122     5851        *
      123     5852        *   If the DCB is open, supply heading JCL based upon the type of node
      124     5853        *   specified by PATHTYPE.
      125     5854        *
      126     5855        ****/
      127     5856
      128     5857    2           IF DCBADDR(DCBNO)->DUMMY.FCD# THEN DO;
      129     5858
      130     5859    3              DO SELECT(PATHTYPE);
      131     5860
      132     5861        /****
      133     5862        *
      134     5863        *   For all existing CP-6 systems, generate a !NCTL command in the
      135     5864        *   form
      136     5865        *
      137     5866        *       !NCTL MOVEnnnnnnnnxxxxxxxx.:MOVE
      138     5867        *
      139     5868        *   where "nnnnnnnn" is the low-order 8 decimal digits of the current
      140     5869        *   UTS and "xxxxxxxx" is the (blank-suppressed) name of the current
      141     5870        *   node.  This generates a pseudo-random name which is (hopefully)
      142     5871        *   reasonably unique.  INSYM on the target system will copy the
      143     5872        *   transmission packet to the file so named in the .:MOVE account.
      144     5873        *
      145     5874        ****/
      146     5875
      147     5876    3                 SELECT(%N_CP6C00#,%N_CP6B03#,%N_CP6B02#,%N_CP6ND#,%N_CP6#,
      148     5877    3                   %N_GCOS6#,%N_GCOS6PF#);
PL6.E3A0      #001=VWH$HEADER File=VWH$HEADER.:VMB6TSI                           WED 08/20/97 15:40 Page:5
      149     5878    3                 CALL M$TIME(FPT_TIME);
      150     5879    3                 CALL BINCHAR(TWORK,STAMP);
      151     5880    3                 CALL CONCAT(BUF,'!NCTL MOVE',SUBSTR(TWORK,4,8),VW_IAM#);
      152     5881    3                 CALL INDEX1(I,' ',BUF,18);
      153     5882    3                 CALL INSERT(BUF,I,,'.',ACCT_MOVE.ACCT#);
      154     5883    4                 CALL M$WRITE(FPT_WRITE) WHENALTRETURN DO;
      155     5884    4                    ALTRETURN;
      156     5885    4                    END;
      157     5886    3                 RETURN;
      158     5887
      159     5888        /****
      160     5889        *
      161     5890        *   For CP-V nodes, all that is necessary is a !!NCTL MOVE command.
      162     5891        *   If anyone ever gets around to writing SCOTTY on CP-V, it will
      163     5892        *   have to LDEV a pseudo-reader to that form to read its input.
      164     5893        *
      165     5894        ****/
      166     5895
      167     5896    3                 SELECT(%N_CPVND#,%N_CPV#);
      168     5897    3                 BUF='!!NCTL MOVE';
      169     5898    4                 CALL M$WRITE(FPT_WRITE) WHENALTRETURN DO;
      170     5899    4                    ALTRETURN;
      171     5900    4                    END;
      172     5901    3                 RETURN;
      173     5902
      174     5903        /****
      175     5904        *
      176     5905        *   GCOS-III and GCOS-8 have not been defined yet.
      177     5906        *
      178     5907        ****/
      179     5908
      180     5909    3                 SELECT(%N_GCOS3#,%N_GCOS8#);
      181     5910    3                 ALTRETURN;
      182     5911
      183     5912        /****
      184     5913        *
      185     5914        *   Any other type is an error.
PL6.E3A0      #001=VWH$HEADER File=VWH$HEADER.:VMB6TSI                           WED 08/20/97 15:40 Page:6
      186     5915        *
      187     5916        ****/
      188     5917
      189     5918    3                 SELECT(ELSE);
      190     5919    3              ALTRETURN;
      191     5920
      192     5921    3                 END /* DO SELECT */;
      193     5922
      194     5923    2              END /* IF */;
      195     5924
      196     5925    1           RETURN;
      197     5926
      198     5927    1   END;

PL6.E3A0      #001=VWH$HEADER File=VWH$HEADER.:VMB6TSI                           WED 08/20/97 15:40 Page:7
--  Include file information  --

   VW_NODEATER_E.:VMB6TOU  is referenced.
   CP_6_C.:LIB_E05  is referenced.
   CP_6.:LIB_E05  cannot be made into a system file and is referenced.
      No diagnostics issued in procedure VWH$HEADER.

   Procedure VWH$HEADER requires 121 words for executable code.
   Procedure VWH$HEADER requires 14 words of local(AUTO) storage.

    No errors detected in file VWH$HEADER.:VMB6TSI    .

PL6.E3A0      #001=VWH$HEADER File=VWH$HEADER.:VMB6TSI                           WED 08/20/97 15:40 Page:8

 Object Unit name= VWH$HEADER                                 File name= VWH$HEADER.:VMB6TOU
 UTS= AUG 20 '97 15:40:33.56 WED                              Compiler= PL-6/E31         Sev=      00
 SharedLib= :SHARED_SYSTEM                                    Alt SharedLib=


    ****  Control sections  ****

 Sect   Type Bound  Init  Size OctSiz  Section name(segment info)
    0   DCB   even  none     0      0  M$UC
    1   Data  even  none    24     30  VWH$HEADER
    2  RoData even  UTS      8     10  VWH$HEADER
    3   Proc  even  none   121    171  VWH$HEADER
    4  RoData even  none     4      4  VWH$HEADER

    ****  Entry defs  ****

                              Check   Calling
                             calling  sequence
  Sect OctLoc Primary Altret sequence   type   Parms  Name
     3      0   yes    yes     yes      Std        3  VWH$HEADER

  ****  Data defs  ****

 Sect OctLoc  Name                           Sect OctLoc  Name
    2      0  ACCT_MOVE

  ****  Entry refs  ****

         Check        Calling
        calling       sequence
Altret sequence SRef   type   Args  Name
                       nStd      0 X66_AUTO_3
                       nStd      0 X66_AALT
                       nStd      0 X66_ARET
PL6.E3A0      #001=VWH$HEADER File=VWH$HEADER.:VMB6TSI                           WED 08/20/97 15:40 Page:9

  ****  Data refs  ****

  Flags:  r = read only, s = secondary
Flgs Name                             Flgs Name                             Flgs Name
     M$UC                                  VW_IAM#

  ****  Segment refs  ****

  Flags:  r = read only, s = secondary
Flgs Name                             Flgs Name                             Flgs Name
     ISSID                                 NULLSID                               ROSID
PL6.E3A0      #001=VWH$HEADER File=VWH$HEADER.:VMB6TSI                           WED 08/20/97 15:40 Page:10


        1        1        /*M* VWH$HEADER - Provide opening boilerplate JCL. */
        2        2        /*T***********************************************************/
        3        3        /*T*                                                         */
        4        4        /*T* Copyright (c) Bull HN Information Systems Inc., 1997    */
        5        5        /*T*                                                         */
        6        6        /*T***********************************************************/
        7        7
        8        8        /*F**
        9        9        *
       10       10        *   NAME:  VWH$HEADER
       11       11        *
       12       12        *   PURPOSE:
       13       13        *       To provide leading JCL for a transfer packet.
       14       14        *
       15       15        *   DESCRIPTION:
       16       16        *       Provide leading JCL for a transfer packet, based upon the node
       17       17        *       type.
       18       18        *
       19       19        *   REFERENCE:
       20       20        *       For a description of transfer packet formats, see the appropriate
       21       21        *       Architecture File document.
       22       22        *
       23       23        ****/
       24       24
       25       25        /*D**
       26       26        *
       27       27        *   NAME:  VWH$HEADER
       28       28        *
       29       29        *   CALL:
       30       30        *       CALL VWH$HEADER(dcbno,buf,pathtype) ALTRET...
       31       31        *
       32       32        *   PARAMETERS:
       33       33        *       dcbno - is the DCB through which the data are to be written.  buf -
       34       34        *       is the buffer to contain the data.  pathtype - is the type of node
       35       35        *       to generate JCL for.
       36       36        *
PL6.E3A0      #001=VWH$HEADER File=VWH$HEADER.:VMB6TSI                           WED 08/20/97 15:40 Page:11
       37       37        *   INTERFACE:
       38       38        *       None.
       39       39        *
       40       40        *   ENVIRONMENT:
       41       41        *       The DCB specified by dcbno must be open.
       42       42        *
       43       43        *   INPUT:
       44       44        *       dcbno and pathtype are input parameters.  VW_IAM# is also used
       45       45        *       (in some cases) to generate JCL.
       46       46        *
       47       47        *   OUTPUT:
       48       48        *       buf is modified with JCL data.
       49       49        *
       50       50        *   SCRATCH:
       51       51        *       None.
       52       52        *
       53       53        *   DESCRIPTION:
       54       54        *       HEADER builds the header "cards" in front of any transmission
       55       55        *       packet.  DCBNO is the DCB to which the packet information is to
       56       56        *       be sent, BUF is the I/O buffer to use, and PATHTYPE is an SBIN
       57       57        *       WORD value which indicates the path type of the (first) node.
       58       58        *
       59       59        ****/
       60       60
       61       61        VWH$HEADER: PROC(DCBNO,BUF,PATHTYPE) ALTRET;

     61  3 000000   000000 700200 xent  VWH$HEADER   TSX0  ! X66_AUTO_3
         3 000001   000016 000003                    ZERO    14,3

       62       62
       63       63        /****
       64       64        *
       65       65        *   %INCLUDEs
       66       66        *
       67       67        ****/
       68       68
       69       69        %INCLUDE CP_6;
PL6.E3A0      #001=VWH$HEADER File=VWH$HEADER.:VMB6TSI                           WED 08/20/97 15:40 Page:12
       70     5628        %INCLUDE VW_NODEATER_E;
       71     5684
       72     5685        /****
       73     5686        *
       74     5687        *   FPTs
       75     5688        *
       76     5689        ****/
       77     5690
       78     5691        %FPT_WRITE;
       79     5722
       80     5723        %FPT_TIME(SOURCE=CLOCK,
       81     5724                  DEST=EXT);
       82     5743
       83     5744        %VLP_ACCT  (FPTN=ACCT_MOVE,
       84     5745                    STCLASS="CONSTANT SYMDEF",
       85     5746                    ACCT=':MOVE');
       86     5759
       87     5760        %F$DCB(DCBN=DUMMY);
       88     5817
       89     5818        /****
       90     5819        *
       91     5820        *   Parameters
       92     5821        *
       93     5822        ****/
       94     5823
       95     5824    1   DCL DCBNO                          SBIN;
       96     5825    1   DCL BUF                            CHAR(80);
       97     5826    1   DCL PATHTYPE                       SBIN;
       98     5827
       99     5828        /****
      100     5829        *
      101     5830        *   Local variables
      102     5831        *
      103     5832        ****/
      104     5833
      105     5834    1   DCL STAMP                          UBIN;
      106     5835    1   DCL I                              SBIN;
PL6.E3A0      #001=VWH$HEADER File=VWH$HEADER.:VMB6TSI                           WED 08/20/97 15:40 Page:13
      107     5836    1   DCL TWORK                          CHAR(12);
      108     5837    1   DCL VW_IAM# SYMREF                 CHAR(8);
      109     5838
      110     5839        /****
      111     5840        *
      112     5841        *   Initialize the FPTs using the variables passed.
      113     5842        *
      114     5843        ****/
      115     5844
      116     5845    1           FPT_TIME.TSTAMP_=VECTOR(STAMP);

   5845  3 000002   777640 235007                    LDA     -96,DL
         3 000003   200014 452500                    STP2    TWORK+4,,AUTO
         3 000004   200014 236100                    LDQ     TWORK+4,,AUTO
         3 000005   000006 036003                    ADLQ    6,DU
         3 000006   000024 757000 1                  STAQ    FPT_TIME+8

      117     5846    1           FPT_WRITE.BUF_.BOUND=79;

   5846  3 000007   000004 236000 1                  LDQ     FPT_WRITE+4
         3 000010   177777 376007                    ANQ     65535,DL
         3 000011   000000 276000 4                  ORQ     0
         3 000012   000004 756000 1                  STQ     FPT_WRITE+4

      118     5847    1           FPT_WRITE.BUF_.BUF$=ADDR(BUF);

   5847  3 000013   200004 236100                    LDQ     @BUF,,AUTO
         3 000014   000005 756000 1                  STQ     FPT_WRITE+5

      119     5848    1           FPT_WRITE.V.DCB#=DCBNO;

   5848  3 000015   200003 470500                    LDP0    @DCBNO,,AUTO
         3 000016   000000 720100                    LXL0    0,,PR0
         3 000017   000010 740000 1                  STX0    FPT_WRITE+8

      120     5849
      121     5850        /****
PL6.E3A0      #001=VWH$HEADER File=VWH$HEADER.:VMB6TSI                           WED 08/20/97 15:40 Page:14
      122     5851        *
      123     5852        *   If the DCB is open, supply heading JCL based upon the type of node
      124     5853        *   specified by PATHTYPE.
      125     5854        *
      126     5855        ****/
      127     5856
      128     5857    2           IF DCBADDR(DCBNO)->DUMMY.FCD# THEN DO;

   5857  3 000020   000001 471400 4                  LDP1    1
         3 000021   100000 473500                    LDP3    0,,PR1
         3 000022   000000 721100                    LXL1    0,,PR0
         3 000023   300000 474511                    LDP4    0,X1,PR3
         3 000024   400031 236100                    LDQ     25,,PR4
         3 000025   020000 316007                    CANQ    8192,DL
         3 000026   000170 600000 3                  TZE     s:5925

      129     5858
      130     5859    3              DO SELECT(PATHTYPE);

   5859  3 000027   200005 475500                    LDP5    @PATHTYPE,,AUTO
         3 000030   500000 236100                    LDQ     0,,PR5
         3 000031   000152 116007                    CMPQ    106,DL
         3 000032   000050 604000 3                  TMI     s:5859+17
         3 000033   000153 600000 3                  TZE     s:5897
         3 000034   000155 116007                    CMPQ    109,DL
         3 000035   000042 604000 3                  TMI     s:5859+11
         3 000036   000073 600000 3                  TZE     s:5878
         3 000037   000156 116007                    CMPQ    110,DL
         3 000040   000167 601000 3                  TNZ     s:5919
         3 000041   000073 710000 3                  TRA     s:5878
         3 000042   000153 116007                    CMPQ    107,DL
         3 000043   000167 604000 3                  TMI     s:5919
         3 000044   000166 600000 3                  TZE     s:5910
         3 000045   000154 116007                    CMPQ    108,DL
         3 000046   000167 601000 3                  TNZ     s:5919
         3 000047   000166 710000 3                  TRA     s:5910
         3 000050   000147 116007                    CMPQ    103,DL
PL6.E3A0      #001=VWH$HEADER File=VWH$HEADER.:VMB6TSI                           WED 08/20/97 15:40 Page:15
         3 000051   000062 604000 3                  TMI     s:5859+27
         3 000052   000073 600000 3                  TZE     s:5878
         3 000053   000151 116007                    CMPQ    105,DL
         3 000054   000057 604000 3                  TMI     s:5859+24
         3 000055   000153 600000 3                  TZE     s:5897
         3 000056   000167 710000 3                  TRA     s:5919
         3 000057   000150 116007                    CMPQ    104,DL
         3 000060   000167 601000 3                  TNZ     s:5919
         3 000061   000073 710000 3                  TRA     s:5878
         3 000062   000145 116007                    CMPQ    101,DL
         3 000063   000070 604000 3                  TMI     s:5859+33
         3 000064   000073 600000 3                  TZE     s:5878
         3 000065   000146 116007                    CMPQ    102,DL
         3 000066   000167 601000 3                  TNZ     s:5919
         3 000067   000073 710000 3                  TRA     s:5878
         3 000070   000144 116007                    CMPQ    100,DL
         3 000071   000167 601000 3                  TNZ     s:5919
         3 000072   000073 710000 3                  TRA     s:5878

      131     5860
      132     5861        /****
      133     5862        *
      134     5863        *   For all existing CP-6 systems, generate a !NCTL command in the
      135     5864        *   form
      136     5865        *
      137     5866        *       !NCTL MOVEnnnnnnnnxxxxxxxx.:MOVE
      138     5867        *
      139     5868        *   where "nnnnnnnn" is the low-order 8 decimal digits of the current
      140     5869        *   UTS and "xxxxxxxx" is the (blank-suppressed) name of the current
      141     5870        *   node.  This generates a pseudo-random name which is (hopefully)
      142     5871        *   reasonably unique.  INSYM on the target system will copy the
      143     5872        *   transmission packet to the file so named in the .:MOVE account.
      144     5873        *
      145     5874        ****/
      146     5875
      147     5876    3                 SELECT(%N_CP6C00#,%N_CP6B03#,%N_CP6B02#,%N_CP6ND#,%N_CP6#,

PL6.E3A0      #001=VWH$HEADER File=VWH$HEADER.:VMB6TSI                           WED 08/20/97 15:40 Page:16
      148     5877    3                   %N_GCOS6#,%N_GCOS6PF#);
      149     5878    3                 CALL M$TIME(FPT_TIME);

   5878  3 000073   000014 630400 1                  EPPR0   FPT_TIME
         3 000074   020004 713400                    CLIMB   8196
         3 000075   402000 401760                    pmme    nvectors=5

      150     5879    3                 CALL BINCHAR(TWORK,STAMP);

   5879  3 000076   200006 235100                    LDA     STAMP,,AUTO
         3 000077   000044 773000                    LRL     36
         3 000100   200014 757100                    STAQ    TWORK+4,,AUTO
         3 000101   000100 301500                    BTD
         3 000102   200014 000010                    NDSC9   TWORK+4,,AUTO            cn=0,s=lsgnf,sf=0,n=8
         3 000103   200010 030014                    NDSC9   TWORK,,AUTO              cn=0,s=nosgn,sf=0,n=12

      151     5880    3                 CALL CONCAT(BUF,'!NCTL MOVE',SUBSTR(TWORK,4,8),VW_IAM#);

   5880  3 000104   200004 470500                    LDP0    @BUF,,AUTO
         3 000105   040100 100400                    MLR     fill='040'O
         3 000106   000002 000012 2                  ADSC9   ACCT_MOVE+2              cn=0,n=10
         3 000107   000000 000012                    ADSC9   0,,PR0                   cn=0,n=10
         3 000110   040100 100500                    MLR     fill='040'O
         3 000111   200011 000010                    ADSC9   TWORK+1,,AUTO            cn=0,n=8
         3 000112   000002 400010                    ADSC9   2,,PR0                   cn=2,n=8
         3 000113   040100 100400                    MLR     fill='040'O
         3 000114   000000 000010 xsym               ADSC9   VW_IAM#                  cn=0,n=8
         3 000115   000004 400076                    ADSC9   4,,PR0                   cn=2,n=62

      152     5881    3                 CALL INDEX1(I,' ',BUF,18);

   5881  3 000116   200004 470500                    LDP0    @BUF,,AUTO
         3 000117   000000 124500                    SCM     mask='000'O
         3 000120   000004 400076                    ADSC9   4,,PR0                   cn=2,n=62
         3 000121   000002 000001 4                  ADSC9   2                        cn=0,n=1
         3 000122   200007 000100                    ARG     I,,AUTO
         3 000123   000022 236007                    LDQ     18,DL
PL6.E3A0      #001=VWH$HEADER File=VWH$HEADER.:VMB6TSI                           WED 08/20/97 15:40 Page:17
         3 000124   200007 056100                    ASQ     I,,AUTO

      153     5882    3                 CALL INSERT(BUF,I,,'.',ACCT_MOVE.ACCT#);

   5882  3 000125   200007 720100                    LXL0    I,,AUTO
         3 000126   777657 620010                    EAX0    -81,X0
         3 000127   777777 660003                    ERX0    -1,DU
         3 000130   200007 235100                    LDA     I,,AUTO
         3 000131   040145 100400                    MLR     fill='040'O
         3 000132   000003 000001 4                  ADSC9   3                        cn=0,n=1
         3 000133   000000 000010                    ADSC9   0,A,PR0                  cn=0,n=*X0
         3 000134   200007 236100                    LDQ     I,,AUTO
         3 000135   000117 116007                    CMPQ    79,DL
         3 000136   000144 605000 3                  TPL     s:5883
         3 000137   777660 621006                    EAX1    -80,QL
         3 000140   777777 661003                    ERX1    -1,DU
         3 000141   040146 100400                    MLR     fill='040'O
         3 000142   000000 000010 2                  ADSC9   ACCT_MOVE                cn=0,n=8
         3 000143   000000 200011                    ADSC9   0,Q,PR0                  cn=1,n=*X1

      154     5883    4                 CALL M$WRITE(FPT_WRITE) WHENALTRETURN DO;

   5883  3 000144   000000 630400 1                  EPPR0   FPT_WRITE
         3 000145   440001 713400                    CLIMB   alt,write
         3 000146   401400 401760                    pmme    nvectors=4
         3 000147   000151 702000 3                  TSX2    s:5884
         3 000150   000152 710000 3                  TRA     s:5886

      155     5884    4                    ALTRETURN;

   5884  3 000151   000000 702200 xent               TSX2  ! X66_AALT

      156     5885    4                    END;
      157     5886    3                 RETURN;

   5886  3 000152   000000 702200 xent               TSX2  ! X66_ARET

PL6.E3A0      #001=VWH$HEADER File=VWH$HEADER.:VMB6TSI                           WED 08/20/97 15:40 Page:18
      158     5887
      159     5888        /****
      160     5889        *
      161     5890        *   For CP-V nodes, all that is necessary is a !!NCTL MOVE command.
      162     5891        *   If anyone ever gets around to writing SCOTTY on CP-V, it will
      163     5892        *   have to LDEV a pseudo-reader to that form to read its input.
      164     5893        *
      165     5894        ****/
      166     5895
      167     5896    3                 SELECT(%N_CPVND#,%N_CPV#);

      168     5897    3                 BUF='!!NCTL MOVE';

   5897  3 000153   200004 476500                    LDP6    @BUF,,AUTO
         3 000154   040100 100400                    MLR     fill='040'O
         3 000155   000005 000013 2                  ADSC9   ACCT_MOVE+5              cn=0,n=11
         3 000156   600000 000120                    ADSC9   0,,PR6                   cn=0,n=80

      169     5898    4                 CALL M$WRITE(FPT_WRITE) WHENALTRETURN DO;

   5898  3 000157   000000 630400 1                  EPPR0   FPT_WRITE
         3 000160   440001 713400                    CLIMB   alt,write
         3 000161   401400 401760                    pmme    nvectors=4
         3 000162   000164 702000 3                  TSX2    s:5899
         3 000163   000165 710000 3                  TRA     s:5901

      170     5899    4                    ALTRETURN;

   5899  3 000164   000000 702200 xent               TSX2  ! X66_AALT

      171     5900    4                    END;
      172     5901    3                 RETURN;

   5901  3 000165   000000 702200 xent               TSX2  ! X66_ARET

      173     5902
      174     5903        /****
PL6.E3A0      #001=VWH$HEADER File=VWH$HEADER.:VMB6TSI                           WED 08/20/97 15:40 Page:19
      175     5904        *
      176     5905        *   GCOS-III and GCOS-8 have not been defined yet.
      177     5906        *
      178     5907        ****/
      179     5908
      180     5909    3                 SELECT(%N_GCOS3#,%N_GCOS8#);

      181     5910    3                 ALTRETURN;

   5910  3 000166   000000 702200 xent               TSX2  ! X66_AALT

      182     5911
      183     5912        /****
      184     5913        *
      185     5914        *   Any other type is an error.
      186     5915        *
      187     5916        ****/
      188     5917
      189     5918    3                 SELECT(ELSE);

      190     5919    3              ALTRETURN;

   5919  3 000167   000000 702200 xent               TSX2  ! X66_AALT

      191     5920
      192     5921    3                 END /* DO SELECT */;

      193     5922
      194     5923    2              END /* IF */;
      195     5924
      196     5925    1           RETURN;

   5925  3 000170   000000 702200 xent               TSX2  ! X66_ARET

FPT_WRITE
 Sect OctLoc
   1     000   000003 777640   000010 006000   000000 177640   000000 006014    ................
PL6.E3A0      #001=VWH$HEADER File=VWH$HEADER.:VMB6TSI                           WED 08/20/97 15:40 Page:20
   1     004   000000 177640   000000 006014   000000 177640   000000 006014    ................
   1     010   000000 400400   000000 000000   000000 000000   000000 000000    ................

FPT_TIME
 Sect OctLoc
   1     014   000001 777640   000026 006000   000000 177640   000000 006014    ................
   1     020   000000 177640   000000 006014   000000 177640   000000 006014    ................
   1     024   000000 177640   000000 006014   000001 000000   ****** ******    ................

ACCT_MOVE
 Sect OctLoc
   2     000   072115 117126   105040 040040                                    :MOVE

(unnamed)
 Sect OctLoc
   2     002   041116 103124   114040 115117   126105 040040   041041 116103    !NCTL MOVE  !!NC
   2     006   124114 040115   117126 105040                                    TL MOVE

(unnamed)
 Sect OctLoc
   4     000   000023 600000   000000 006003   040040 040040   056040 040040    ........    .
      197     5926
      198     5927    1   END;

PL6.E3A0      #001=VWH$HEADER File=VWH$HEADER.:VMB6TSI                           WED 08/20/97 15:40 Page:21
--  Include file information  --

   VW_NODEATER_E.:VMB6TOU  is referenced.
   CP_6_C.:LIB_E05  is referenced.
   CP_6.:LIB_E05  cannot be made into a system file and is referenced.
      No diagnostics issued in procedure VWH$HEADER.
PL6.E3A0      #001=VWH$HEADER File=VWH$HEADER.:VMB6TSI                           WED 08/20/97 15:40 Page:22

 **** Variables and constants ****

  ****  Section 001  Data  VWH$HEADER

  ****  Scalars and arrays  ****
OctLoc.c.b A Datatyp(siz) R M Lvl/name                 OctLoc.c.b A Datatyp(siz) R M Lvl/name

    14-0-0/d STRC(432)   r     1 FPT_TIME                   0-0-0/d STRC(432)   r     1 FPT_WRITE

  ****  Section 002 RoData VWH$HEADER

  ****  Scalars and arrays  ****
OctLoc.c.b A Datatyp(siz) R M Lvl/name                 OctLoc.c.b A Datatyp(siz) R M Lvl/name

     0-0-0/c STRC(72)    r     1 ACCT_MOVE

  ****  Auto variables  ****

  ****  Scalars and arrays  ****
OctLoc.c.b A Datatyp(siz) R M Lvl/name                 OctLoc.c.b A Datatyp(siz) R M Lvl/name

     4-0-0/w PTR         r     1 @BUF                       3-0-0/w PTR         r     1 @DCBNO
     5-0-0/w PTR         r     1 @PATHTYPE                 *0-0-0/c CHAR(80)    r     1 BUF
    *0-0-0/w SBIN        r     1 DCBNO                      7-0-0/w SBIN        r     1 I
    *0-0-0/w SBIN        r     1 PATHTYPE                   6-0-0/w UBIN        r     1 STAMP
    10-0-0/c CHAR(12)    r     1 TWORK

  ****  SYMREF variables  ****

  ****  Scalars and arrays  ****
OctLoc.c.b A Datatyp(siz) R M Lvl/name                 OctLoc.c.b A Datatyp(siz) R M Lvl/name

     0-0-0/c CHAR(8)     r     1 VW_IAM#

  ****  BASED and DCB variables  ****

  ****  Scalars and arrays  ****
PL6.E3A0      #001=VWH$HEADER File=VWH$HEADER.:VMB6TSI                           WED 08/20/97 15:40 Page:23
OctLoc.c.b A Datatyp(siz) R M Lvl/name                 OctLoc.c.b A Datatyp(siz) R M Lvl/name

     0-0-0/d ASTR(3528)  r     1 DUMMY                      0-0-0N  NULL        r     1 M$UC


   Procedure VWH$HEADER requires 121 words for executable code.
   Procedure VWH$HEADER requires 14 words of local(AUTO) storage.

    No errors detected in file VWH$HEADER.:VMB6TSI    .
PL6.E3A0      #001=VWH$HEADER File=VWH$HEADER.:VMB6TSI                           WED 08/20/97 15:40 Page:24
          *** CROSS REFERENCE LISTING ***
**     DENOTES     IDENTIFIER DEFINITION
<<                 IDENTIFIER'S VALUE SET
>>                 IDENTIFIER'S VALUE USED
<>                 IDENTIFIER SET AND/OR USED
--                 IDENTIFIER REFERENCED
PL6.E3A0      #001=VWH$HEADER File=VWH$HEADER.:VMB6TSI                           WED 08/20/97 15:40 Page:25
          MINI XREF LISTING

ACCT_MOVE.ACCT#
      5757**DCL      5882>>CALLBLT
BUF
      5825**DCL        61--PROC     5847--ASSIGN   5880<<CALLBLT  5881>>CALLBLT  5882<<CALLBLT  5897<<ASSIGN
DCBNO
      5824**DCL        61--PROC     5848>>ASSIGN   5857--IF
DUMMY.ACTPOS
      5793**DCL      5793--REDEF
DUMMY.ARS#
      5767**DCL      5767--REDEF
DUMMY.ATTR
      5786**DCL      5787--REDEF
DUMMY.BORROW
      5801**DCL      5801--REDEF    5801--REDEF    5801--REDEF
DUMMY.DCBNAME.L
      5815**DCL      5815--IMP-SIZ
DUMMY.EOMCHAR#
      5771**DCL      5771--REDEF
DUMMY.FCD#
      5780**DCL      5857>>IF
DUMMY.FLDID
      5796**DCL      5796--REDEF
DUMMY.FORM$
      5790**DCL      5790--REDEF
DUMMY.FSECT
      5806**DCL      5806--REDEF
DUMMY.FSN#
      5783**DCL      5783--REDEF    5783--REDEF    5784--REDEF
DUMMY.HEADER$
      5789**DCL      5789--REDEF
DUMMY.IXTNSIZE#
      5787**DCL      5787--REDEF
PL6.E3A0      #001=VWH$HEADER File=VWH$HEADER.:VMB6TSI                           WED 08/20/97 15:40 Page:26
DUMMY.LASTSTA$
      5776**DCL      5776--REDEF
DUMMY.LVL
      5802**DCL      5802--REDEF
DUMMY.NAME#.C
      5777**DCL      5777--REDEF
DUMMY.NOEOF
      5799**DCL      5799--REDEF
DUMMY.NRECS#
      5788**DCL      5788--REDEF
DUMMY.NRECX
      5807**DCL      5807--REDEF
DUMMY.OHDR
      5799**DCL      5799--REDEF
DUMMY.ORG#
      5782**DCL      5782--REDEF
DUMMY.PRECNO
      5805**DCL      5805--REDEF
DUMMY.RCSZ
      5811**DCL      5811--REDEF
DUMMY.RES#
      5778**DCL      5778--REDEF
DUMMY.SETX
      5790**DCL      5790--REDEF
DUMMY.TAB$
      5790**DCL      5790--REDEF
DUMMY.TDA
      5804**DCL      5805--REDEF
DUMMY.WSN#
      5778**DCL      5778--REDEF
FPT_TIME
      5735**DCL      5878<>CALL
FPT_TIME.TSTAMP_
      5738**DCL      5845<<ASSIGN
FPT_TIME.V
      5739**DCL      5735--DCLINIT
PL6.E3A0      #001=VWH$HEADER File=VWH$HEADER.:VMB6TSI                           WED 08/20/97 15:40 Page:27
FPT_WRITE
      5708**DCL      5883<>CALL     5898<>CALL
FPT_WRITE.BUF_.BOUND
      5708**DCL      5846<<ASSIGN
FPT_WRITE.BUF_.BUF$
      5710**DCL      5847<<ASSIGN
FPT_WRITE.STATION_
      5710**DCL      5710--REDEF
FPT_WRITE.V
      5711**DCL      5708--DCLINIT
FPT_WRITE.V.DCB#
      5711**DCL      5848<<ASSIGN
FPT_WRITE.V.DVBYTE.VFC#
      5717**DCL      5717--REDEF
I
      5835**DCL      5881<<CALLBLT  5882>>CALLBLT
M$TIME
      5623**DCL-ENT  5878--CALL
M$WRITE
      5557**DCL-ENT  5883--CALL     5898--CALL
PATHTYPE
      5826**DCL        61--PROC     5859>>DOSELCT
STAMP
      5834**DCL      5845--ASSIGN   5879>>CALLBLT
TWORK
      5836**DCL      5879<<CALLBLT  5880>>CALLBLT
VW_IAM#
      5837**DCL      5880>>CALLBLT
