VERSION B06

PL6.E3A0      #001=VWI$TRANSI File=VWI$TRANSI.:VMB6TSI                           WED 08/20/97 15:40 Page:1
        1        1        /*M* VWI$TRANSI - Descramble transmission records. */
        2        2        /*T***********************************************************/
        3        3        /*T*                                                         */
        4        4        /*T* Copyright (c) Bull HN Information Systems Inc., 1997    */
        5        5        /*T*                                                         */
        6        6        /*T***********************************************************/
        7        7
        8        8        /*F**
        9        9        *
       10       10        *   NAME:  VWI$TRANSI
       11       11        *
       12       12        *   PURPOSE:
       13       13        *       To unscramble received records.
       14       14        *
       15       15        *   DESCRIPTION:
       16       16        *       VWI$TRANSI uses a simple "ungarbling" algorithm to make the
       17       17        *       received text readable again.
       18       18        *
       19       19        *   REFERENCE:
       20       20        *       See VWI$TRANSO for the "garbling" algorithm.
       21       21        *
       22       22        ****/
       23       23
       24       24        /*D**
       25       25        *
       26       26        *   NAME:  VWI$TRANSI
       27       27        *
       28       28        *   CALL:  CALL VWI$TRANSI(bfr)
       29       29        *
       30       30        *   PARAMETERS:
       31       31        *       bfr - is the 80-byte buffer to descramble.
       32       32        *
       33       33        *   INTERFACE:
       34       34        *       None.
       35       35        *
       36       36        *   ENVIRONMENT:
       37       37        *       None.
PL6.E3A0      #001=VWI$TRANSI File=VWI$TRANSI.:VMB6TSI                           WED 08/20/97 15:40 Page:2
       38       38        *
       39       39        *   INPUT:
       40       40        *       bfr is read.
       41       41        *
       42       42        *   OUTPUT:
       43       43        *       bfr is modified in place.
       44       44        *
       45       45        *   SCRATCH:
       46       46        *       None.
       47       47        *
       48       48        *   DESCRIPTION:
       49       49        *       Translate buffer BFR from printable, scrambled ASCII back into
       50       50        *       printable ASCII.  BFR is assumed to be 80 bytes in length.
       51       51        *
       52       52        ****/
       53       53
       54       54        VWI$TRANSI: PROC(BFR);
       55       55
       56       56    1   DCL BFR(0:79) UNAL                 UBIN BYTE;
       57       57
       58       58    1   DCL I                              SBIN;
       59       59
       60       60    1   DCL XLATEI(0:188) CONSTANT UNAL    UBIN BYTE INIT(
       61       61    1            96, 97, 98, 99,100,101,102,103,104,105,106,107,108,109,110,111,
       62       62    1           112,113,114,115,116,117,118,119,120,121,122,123,124,125,126, 32,
       63       63    1            33, 34, 35, 36, 37, 38, 39, 40, 41, 42, 43, 44, 45, 46, 47, 48,
       64       64    1            49, 50, 51, 52, 53, 54, 55, 56, 57, 58, 59, 60, 61, 62, 63, 64,
       65       65    1            65, 66, 67, 68, 69, 70, 71, 72, 73, 74, 75, 76, 77, 78, 79, 80,
       66       66    1            81, 82, 83, 84, 85, 86, 87, 88, 89, 90, 91, 92, 93, 94, 95, 96,
       67       67    1            97, 98, 99,100,101,102,103,104,105,106,107,108,109,110,111,112,
       68       68    1           113,114,115,116,117,118,119,120,121,122,123,124,125,126, 32, 33,
       69       69    1            34, 35, 36, 37, 38, 39, 40, 41, 42, 43, 44, 45, 46, 47, 48, 49,
       70       70    1            50, 51, 52, 53, 54, 55, 56, 57, 58, 59, 60, 61, 62, 63, 64, 65,
       71       71    1            66, 67, 68, 69, 70, 71, 72, 73, 74, 75, 76, 77, 78, 79, 80, 81,
       72       72    1            82, 83, 84, 85, 86, 87, 88, 89, 90, 91, 92, 93, 94);
       73       73
       74       74        /****
PL6.E3A0      #001=VWI$TRANSI File=VWI$TRANSI.:VMB6TSI                           WED 08/20/97 15:40 Page:3
       75       75        *
       76       76        *   Perform the descramble algorithm:
       77       77        *
       78       78        *       char(i) = translate [char(i) - char(i-1) + 94]
       79       79        *
       80       80        *   This is by no means a high-quality scrambling algorithm; it is
       81       81        *   used simply to make the contents of the symbiont file less obvious
       82       82        *   to the casual observer.
       83       83        *
       84       84        ****/
       85       85
       86       86    2           DO I=1 TO 79;
       87       87    2              BFR(I)=XLATEI(BFR(I)-BFR(I-1)+94);
       88       88    2              END;
       89       89
       90       90    1           RETURN;
       91       91
       92       92    1   END;

PL6.E3A0      #001=VWI$TRANSI File=VWI$TRANSI.:VMB6TSI                           WED 08/20/97 15:40 Page:4
      No diagnostics issued in procedure VWI$TRANSI.

   Procedure VWI$TRANSI requires 42 words for executable code.
   Procedure VWI$TRANSI requires 10 words of local(AUTO) storage.

    No errors detected in file VWI$TRANSI.:VMB6TSI    .

PL6.E3A0      #001=VWI$TRANSI File=VWI$TRANSI.:VMB6TSI                           WED 08/20/97 15:40 Page:5

 Object Unit name= VWI$TRANSI                                 File name= VWI$TRANSI.:VMB6TOU
 UTS= AUG 20 '97 15:40:56.84 WED                              Compiler= PL-6/E31         Sev=      00
 SharedLib= :SHARED_SYSTEM                                    Alt SharedLib=


    ****  Control sections  ****

 Sect   Type Bound  Init  Size OctSiz  Section name(segment info)
    0  RoData even  UTS     48     60  VWI$TRANSI
    1   Proc  even  none    42     52  VWI$TRANSI

    ****  Entry defs  ****

                              Check   Calling
                             calling  sequence
  Sect OctLoc Primary Altret sequence   type   Parms  Name
     1      0   yes            yes      Std        1  VWI$TRANSI

  ****  Entry refs  ****

         Check        Calling
        calling       sequence
Altret sequence SRef   type   Args  Name
                       nStd      0 X66_AUTO_1
                       nStd      0 X66_ARET
PL6.E3A0      #001=VWI$TRANSI File=VWI$TRANSI.:VMB6TSI                           WED 08/20/97 15:40 Page:6


        1        1        /*M* VWI$TRANSI - Descramble transmission records. */
        2        2        /*T***********************************************************/
        3        3        /*T*                                                         */
        4        4        /*T* Copyright (c) Bull HN Information Systems Inc., 1997    */
        5        5        /*T*                                                         */
        6        6        /*T***********************************************************/
        7        7
        8        8        /*F**
        9        9        *
       10       10        *   NAME:  VWI$TRANSI
       11       11        *
       12       12        *   PURPOSE:
       13       13        *       To unscramble received records.
       14       14        *
       15       15        *   DESCRIPTION:
       16       16        *       VWI$TRANSI uses a simple "ungarbling" algorithm to make the
       17       17        *       received text readable again.
       18       18        *
       19       19        *   REFERENCE:
       20       20        *       See VWI$TRANSO for the "garbling" algorithm.
       21       21        *
       22       22        ****/
       23       23
       24       24        /*D**
       25       25        *
       26       26        *   NAME:  VWI$TRANSI
       27       27        *
       28       28        *   CALL:  CALL VWI$TRANSI(bfr)
       29       29        *
       30       30        *   PARAMETERS:
       31       31        *       bfr - is the 80-byte buffer to descramble.
       32       32        *
       33       33        *   INTERFACE:
       34       34        *       None.
       35       35        *
       36       36        *   ENVIRONMENT:
PL6.E3A0      #001=VWI$TRANSI File=VWI$TRANSI.:VMB6TSI                           WED 08/20/97 15:40 Page:7
       37       37        *       None.
       38       38        *
       39       39        *   INPUT:
       40       40        *       bfr is read.
       41       41        *
       42       42        *   OUTPUT:
       43       43        *       bfr is modified in place.
       44       44        *
       45       45        *   SCRATCH:
       46       46        *       None.
       47       47        *
       48       48        *   DESCRIPTION:
       49       49        *       Translate buffer BFR from printable, scrambled ASCII back into
       50       50        *       printable ASCII.  BFR is assumed to be 80 bytes in length.
       51       51        *
       52       52        ****/
       53       53
       54       54        VWI$TRANSI: PROC(BFR);

     54  1 000000   000000 700200 xent  VWI$TRANSI   TSX0  ! X66_AUTO_1
         1 000001   000012 000001                    ZERO    10,1

       55       55
       56       56    1   DCL BFR(0:79) UNAL                 UBIN BYTE;
       57       57
       58       58    1   DCL I                              SBIN;
       59       59
       60       60    1   DCL XLATEI(0:188) CONSTANT UNAL    UBIN BYTE INIT(
       61       61    1            96, 97, 98, 99,100,101,102,103,104,105,106,107,108,109,110,111,
       62       62    1           112,113,114,115,116,117,118,119,120,121,122,123,124,125,126, 32,
       63       63    1            33, 34, 35, 36, 37, 38, 39, 40, 41, 42, 43, 44, 45, 46, 47, 48,
       64       64    1            49, 50, 51, 52, 53, 54, 55, 56, 57, 58, 59, 60, 61, 62, 63, 64,
       65       65    1            65, 66, 67, 68, 69, 70, 71, 72, 73, 74, 75, 76, 77, 78, 79, 80,
       66       66    1            81, 82, 83, 84, 85, 86, 87, 88, 89, 90, 91, 92, 93, 94, 95, 96,
       67       67    1            97, 98, 99,100,101,102,103,104,105,106,107,108,109,110,111,112,
       68       68    1           113,114,115,116,117,118,119,120,121,122,123,124,125,126, 32, 33,
       69       69    1            34, 35, 36, 37, 38, 39, 40, 41, 42, 43, 44, 45, 46, 47, 48, 49,
PL6.E3A0      #001=VWI$TRANSI File=VWI$TRANSI.:VMB6TSI                           WED 08/20/97 15:40 Page:8
       70       70    1            50, 51, 52, 53, 54, 55, 56, 57, 58, 59, 60, 61, 62, 63, 64, 65,
       71       71    1            66, 67, 68, 69, 70, 71, 72, 73, 74, 75, 76, 77, 78, 79, 80, 81,
       72       72    1            82, 83, 84, 85, 86, 87, 88, 89, 90, 91, 92, 93, 94);
       73       73
       74       74        /****
       75       75        *
       76       76        *   Perform the descramble algorithm:
       77       77        *
       78       78        *       char(i) = translate [char(i) - char(i-1) + 94]
       79       79        *
       80       80        *   This is by no means a high-quality scrambling algorithm; it is
       81       81        *   used simply to make the contents of the symbiont file less obvious
       82       82        *   to the casual observer.
       83       83        *
       84       84        ****/
       85       85
       86       86    2           DO I=1 TO 79;

     86  1 000002   000001 235007                    LDA     1,DL
         1 000003   200004 755100                    STA     I,,AUTO

       87       87    2              BFR(I)=XLATEI(BFR(I)-BFR(I-1)+94);

     87  1 000004   200004 236100                    LDQ     I,,AUTO
         1 000005   000011 402007                    MPY     9,DL
         1 000006   000000 116003                    CMPQ    0,DU
         1 000007   000011 605000 1                  TPL     s:87+5
         1 000010   000044 036003                    ADLQ    36,DU
         1 000011   200003 470500                    LDP0    @BFR,,AUTO
         1 000012   003100 061506                    CSR     bolr='003'O
         1 000013   077777 600011                    BDSC    -1,Q,PR0                 by=3,bit=0,n=9
         1 000014   200006 000044                    BDSC    I+2,,AUTO                by=0,bit=0,n=36
         1 000015   200004 236100                    LDQ     I,,AUTO
         1 000016   000011 402007                    MPY     9,DL
         1 000017   000000 116003                    CMPQ    0,DU
         1 000020   000022 605000 1                  TPL     s:87+14
         1 000021   000044 036003                    ADLQ    36,DU
PL6.E3A0      #001=VWI$TRANSI File=VWI$TRANSI.:VMB6TSI                           WED 08/20/97 15:40 Page:9
         1 000022   003100 061506                    CSR     bolr='003'O
         1 000023   000000 000011                    BDSC    0,Q,PR0                  by=0,bit=0,n=9
         1 000024   200007 000044                    BDSC    I+3,,AUTO                by=0,bit=0,n=36
         1 000025   200007 236100                    LDQ     I+3,,AUTO
         1 000026   200006 136100                    SBLQ    I+2,,AUTO
         1 000027   000011 402007                    MPY     9,DL
         1 000030   000000 116003                    CMPQ    0,DU
         1 000031   000033 605000 1                  TPL     s:87+23
         1 000032   000044 036003                    ADLQ    36,DU
         1 000033   200010 756100                    STQ     I+4,,AUTO
         1 000034   200004 236100                    LDQ     I,,AUTO
         1 000035   000011 402007                    MPY     9,DL
         1 000036   000000 116003                    CMPQ    0,DU
         1 000037   000041 605000 1                  TPL     s:87+29
         1 000040   000044 036003                    ADLQ    36,DU
         1 000041   200010 235100                    LDA     I+4,,AUTO
         1 000042   003106 060405                    CSL     bolr='003'O
         1 000043   000027 400011 0                  BDSC    XLATEI+23,A              by=2,bit=0,n=9
         1 000044   000000 000011                    BDSC    0,Q,PR0                  by=0,bit=0,n=9

       88       88    2              END;

     88  1 000045   200004 054100                    AOS     I,,AUTO
         1 000046   200004 235100                    LDA     I,,AUTO
         1 000047   000117 115007                    CMPA    79,DL
         1 000050   000004 604400 1                  TMOZ    s:87

       89       89
       90       90    1           RETURN;

     90  1 000051   000000 702200 xent               TSX2  ! X66_ARET

XLATEI
 Sect OctLoc
   0     000   140141 142143   144145 146147   150151 152153   154155 156157    `abcdefghijklmno
   0     004   160161 162163   164165 166167   170171 172173   174175 176040    pqrstuvwxyz{|}~
   0     010   041042 043044   045046 047050   051052 053054   055056 057060    !"#$%&'()*+,-./0
PL6.E3A0      #001=VWI$TRANSI File=VWI$TRANSI.:VMB6TSI                           WED 08/20/97 15:40 Page:10
   0     014   061062 063064   065066 067070   071072 073074   075076 077100    123456789:;<=>?@
   0     020   101102 103104   105106 107110   111112 113114   115116 117120    ABCDEFGHIJKLMNOP
   0     024   121122 123124   125126 127130   131132 133134   135136 137140    QRSTUVWXYZ[\]^_`
   0     030   141142 143144   145146 147150   151152 153154   155156 157160    abcdefghijklmnop
   0     034   161162 163164   165166 167170   171172 173174   175176 040041    qrstuvwxyz{|}~ !
   0     040   042043 044045   046047 050051   052053 054055   056057 060061    "#$%&'()*+,-./01
   0     044   062063 064065   066067 070071   072073 074075   076077 100101    23456789:;<=>?@A
   0     050   102103 104105   106107 110111   112113 114115   116117 120121    BCDEFGHIJKLMNOPQ
   0     054   122123 124125   126127 130131   132133 134135   136*** ******    RSTUVWXYZ[\]^...
       91       91
       92       92    1   END;

PL6.E3A0      #001=VWI$TRANSI File=VWI$TRANSI.:VMB6TSI                           WED 08/20/97 15:40 Page:11
      No diagnostics issued in procedure VWI$TRANSI.
PL6.E3A0      #001=VWI$TRANSI File=VWI$TRANSI.:VMB6TSI                           WED 08/20/97 15:40 Page:12

 **** Variables and constants ****

  ****  Section 000 RoData VWI$TRANSI

  ****  Scalars and arrays  ****
OctLoc.c.b A Datatyp(siz) R M Lvl/name                 OctLoc.c.b A Datatyp(siz) R M Lvl/name

     0-0-0/b UBIN(9)     r     1 XLATEI(0:188)

  ****  Auto variables  ****

  ****  Scalars and arrays  ****
OctLoc.c.b A Datatyp(siz) R M Lvl/name                 OctLoc.c.b A Datatyp(siz) R M Lvl/name

     3-0-0/w PTR         r     1 @BFR                      *0-0-0/b UBIN(9)     r     1 BFR(0:79)
     4-0-0/w SBIN        r     1 I


   Procedure VWI$TRANSI requires 42 words for executable code.
   Procedure VWI$TRANSI requires 10 words of local(AUTO) storage.

    No errors detected in file VWI$TRANSI.:VMB6TSI    .
PL6.E3A0      #001=VWI$TRANSI File=VWI$TRANSI.:VMB6TSI                           WED 08/20/97 15:40 Page:13
          *** CROSS REFERENCE LISTING ***
**     DENOTES     IDENTIFIER DEFINITION
<<                 IDENTIFIER'S VALUE SET
>>                 IDENTIFIER'S VALUE USED
<>                 IDENTIFIER SET AND/OR USED
--                 IDENTIFIER REFERENCED
PL6.E3A0      #001=VWI$TRANSI File=VWI$TRANSI.:VMB6TSI                           WED 08/20/97 15:40 Page:14
          MINI XREF LISTING

BFR
        56**DCL        54--PROC       87<<ASSIGN     87>>ASSIGN     87>>ASSIGN
I
        58**DCL        86<<DOINDEX    87>>ASSIGN     87>>ASSIGN     87>>ASSIGN
XLATEI
        60**DCL        87>>ASSIGN
