PL6.E3A0      #002=VWM$GET_MAILBOX File=VWM$MOVE.:VMB6TSI                        WED 08/20/97 15:44 Page:257
     1887        1        /*T***********************************************************/
     1888        2        /*T*                                                         */
     1889        3        /*T* Copyright (c) Bull HN Information Systems Inc., 1997    */
     1890        4        /*T*                                                         */
     1891        5        /*T***********************************************************/
     1892        6
     1893        7        VWM$GET_MAILBOX: proc( MAILBOX, VM_IAM#, VM_ERR# ) altret;
     1894        8
     1895        9    1   dcl  MAILBOX     char(79);
     1896       10    1   dcl  MAP_BOX     char(79);
     1897       11    1   dcl  VM_IAM#     char(8);
     1898       12    1   dcl  VM_ERR#     sbin;
     1899       13
     1900       14    1   dcl  M$NAME         dcb;
     1901       15    1   dcl  M$GLOBAL       dcb;
     1902       16    1   dcl  M$DUMMY        dcb;
     1903       17
     1904       18        %include VM_MACRO_C;
     1905     1286
     1906     1287        %VM_KEYTYPES;
     1907     1308        %VM_ADDTYPES;
     1908     1312        %VM_RADDRESS (STCLASS="BASED(ADD$)");
     1909     1347        %VM_USERKEY  (STCLASS="");
     1910     1363        %VM_LISTKEY  (STCLASS="");
     1911     1379
     1912     1380        %include B$TABLES_C;
     1913     1488        %B$SR_NON_BLANK;
     1914     1492
     1915     1493        %include B$JIT;
     1916     2096    1   dcl  B$JIT$      ptr symref readonly;
     1917     2097
     1918     2098        %include CP_6_SUBS;
     1919     2638        %include CP_6;
     1920     8197        %F$DCB;
     1921     8254        %FPT_OPEN( FPTN     =  OPEN_NAME,
     1922     8255                   DCB      =  M$NAME,
     1923     8256                   ASN      =  FILE,
PL6.E3A0      #002=VWM$GET_MAILBOX File=VWM$MOVE.:VMB6TSI                        WED 08/20/97 15:44 Page:258
     1924     8257                   FUN      =  IN,
     1925     8258                   SHARE    =  ALL,
     1926     8259                   SCRUB    =  YES,
     1927     8260                   NAME     =  VM_NAME_MAP_NAME,
     1928     8261                   ACCT     =  VM_MAIL_ACCT,
     1929     8262                   STCLASS  =  CONSTANT);
     1930     8371
     1931     8372        %FPT_OPEN( FPTN     =  OPEN_GLOBAL,
     1932     8373                   DCB      =  M$GLOBAL,
     1933     8374                   ASN      =  FILE,
     1934     8375                   FUN      =  IN,
     1935     8376                   SHARE    =  ALL,
     1936     8377                   SCRUB    =  YES,
     1937     8378                   NAME     =  VM_GLOBAL_NAME,
     1938     8379                   ACCT     =  VM_MAIL_ACCT,
     1939     8380                   STCLASS  =  CONSTANT);
     1940     8489
     1941     8490        %FPT_OPEN( FPTN     =  FPT_OPEN,
     1942     8491                   STCLASS  =  "");
     1943     8600
     1944     8601        %VLP_NAME( FPTN     =  VM_GLOBAL_NAME,
     1945     8602                   LEN      =  31,
     1946     8603                   NAME     =  ':MAIL_CENTRAL',
     1947     8604                   STCLASS  =  CONSTANT);
     1948     8631
     1949     8632        %VLP_NAME( FPTN     =  VM_NAME_MAP_NAME,
     1950     8633                   LEN      =  31,
     1951     8634                   NAME     =  ':NAME',
     1952     8635                   STCLASS  =  CONSTANT);
     1953     8662
     1954     8663        %VLP_ACCT( FPTN     =  VM_MAIL_ACCT,
     1955     8664                   ACCT     =  ':MAIL',
     1956     8665                   STCLASS  =  CONSTANT);
     1957     8678
     1958     8679
     1959     8680        %FPT_READ( FPTN     =  READ_NAME,
     1960     8681                   KEYS     =  YES,
PL6.E3A0      #002=VWM$GET_MAILBOX File=VWM$MOVE.:VMB6TSI                        WED 08/20/97 15:44 Page:259
     1961     8682                   STCLASS  =  CONSTANT,
     1962     8683                   DCB      =  M$NAME);
     1963     8722
     1964     8723        %FPT_READ( FPTN     =  FPT_READ,
     1965     8724                   STCLASS  =  "");
     1966     8763
     1967     8764        %FPT_READ( FPTN     =  READ_GLOBAL,
     1968     8765                   KEYS     =  YES,
     1969     8766                   STCLASS  =  CONSTANT,
     1970     8767                   DCB      =  M$GLOBAL);
     1971     8806
     1972     8807        %VLP_NAME( FPTN     =  NAME_KEY,
     1973     8808                   STCLASS  =  "",
     1974     8809                   LEN      =  31);
     1975     8836
     1976     8837        %VLP_NAME( FPTN     =  GLOBAL_KEY,
     1977     8838                   STCLASS  =  "",
     1978     8839                   LEN      =  255);
     1979     8866
     1980     8867        %VLP_NAME( FPTN     =  NAME_BUFFER,
     1981     8868                   LEN      =  255,
     1982     8869                   STCLASS  =  "");
     1983     8896
     1984     8897        %VLP_ACCT( FPTN     =  USER_ACCT,
     1985     8898                   STCLASS  =  "");
     1986     8911
     1987     8912        %FPT_CLOSE(FPTN     =  FPT_CLOSE,
     1988     8913                   STCLASS  =  "");
     1989     8955
     1990     8956        %FPT_CLOSE(FPTN     =  CLOSE_CONSTANT,
     1991     8957                   STCLASS  =  CONSTANT);
     1992     8999
     1993     9000
     1994     9001    1   dcl  I        sbin;
     1995     9002    1   dcl  J        sbin;
     1996     9003    1   dcl  ADD$     ptr;
     1997     9004    1   dcl  FOLD_STRING             char(80);
PL6.E3A0      #002=VWM$GET_MAILBOX File=VWM$MOVE.:VMB6TSI                        WED 08/20/97 15:44 Page:260
     1998     9005
     1999     9006    1   dcl 1  VM_BUFFER(0:39)      aligned,
     2000     9007    1         2  UPPER    ubin(18) haligned,
     2001     9008    1         2  LOWER    ubin(18) haligned;
     2002     9009
     2003     9010
     2004     9011    1           MAP_BOX = MAILBOX;
     2005     9012    1           FOLD_STRING = MAP_BOX;
     2006     9013    1           if dcbaddr(dcbnum(M$GLOBAL))->F$DCB.FCD# = '0'b
     2007     9014    1           then call M$OPEN(OPEN_GLOBAL) altret(BAD_OPEN);
     2008     9015
     2009     9016    1           if dcbaddr(dcbnum(M$NAME))->F$DCB.FCD# = '0'b
     2010     9017    1           then call M$OPEN(OPEN_NAME)   altret(BAD_OPEN);
     2011     9018
     2012     9019    1           FPT_CLOSE = CLOSE_CONSTANT;
     2013     9020    1           FPT_CLOSE.V_ = vector(FPT_CLOSE.V);
     2014     9021
     2015     9022    2           if MAP_BOX = ' ' then do;
     2016     9023    2              call MAP_ACCT_TO_REGISTERED_NAME altret(BAD_FOLDER);
     2017     9024    2              MAP_BOX = substr(NAME_BUFFER.NAME#,,NAME_BUFFER.L#);
     2018     9025    2              goto EXIT_NAME_SERVER;
     2019     9026    2              end;
     2020     9027
     2021     9028    1           if substr(MAP_BOX,0,1) = '/' then
     2022     9029    2           do;                   /**  Mailbox begins with folder specification  **/
     2023     9030    2              call index(J,' ',MAP_BOX);
     2024     9031    3              call index(I,'.',MAP_BOX) whenreturn do;
     2025     9032    3                 call VERIFY_FOLDER(MAP_BOX,J) altret(BAD_FOLDER);
     2026     9033    3                 goto LEAVE_AS_IS;
     2027     9034    3                 end;
     2028     9035
     2029     9036    2              call MAP_ACCT_TO_REGISTERED_NAME altret(BAD_FOLDER);
     2030     9037
     2031     9038    2              if substr(NAME_BUFFER.NAME#,0,1) ~= '.' then
     2032     9039    3              do;                /**  We found a registration for this user   **/
     2033     9040    3                 if NAME_BUFFER.L# + J < 80 then
     2034     9041    4                 do;                       /** Registered name will fit!  **/
PL6.E3A0      #002=VWM$GET_MAILBOX File=VWM$MOVE.:VMB6TSI                        WED 08/20/97 15:44 Page:261
     2035     9042    4                    call concat(FOLD_STRING,
     2036     9043    4                      substr(MAP_BOX,,J),'.',substr(NAME_KEY.NAME#,,8));
     2037     9044    4                    substr(NAME_BUFFER.NAME#,NAME_BUFFER.L#) = substr(MAP_BOX,,J);
     2038     9045    4                    MAP_BOX = substr(NAME_BUFFER.NAME#,,NAME_BUFFER.L#+J);
     2039     9046    4                    J = J + 9;             /** Include the account **/
     2040     9047    4                    end;                   /*  Of if Registered name fits        */
     2041     9048    3                 else call concat(substr(MAP_BOX,,J),'.',USER_ACCT.ACCT#);
     2042     9049    3                 call VERIFY_FOLDER( FOLD_STRING, J) altret(BAD_FOLDER);
     2043     9050    3                 end;                      /*  Of Registered name found          */
     2044     9051    2              else substr(MAP_BOX,J) = substr(NAME_BUFFER.NAME#,,NAME_BUFFER.L#);
     2045     9052    2              end;          /**  Of mailbox starts with folder specification **/
     2046     9053
     2047     9054    1           else
     2048     9055
     2049     9056    2           do;
     2050     9057                                           /**  This must be a registered name!   **/
     2051     9058    2              call index(J,' ',MAP_BOX);
     2052     9059    3              call index(I,'.',MAP_BOX) whenreturn do;
     2053     9060    4                 if substr(MAP_BOX,,6) = ':MAIL_' and J>I then do;
     2054     9061    4                    call VERIFY_FOLDER(MAP_BOX,J) altret(BAD_FOLDER);
     2055     9062    4                    goto LEAVE_AS_IS;
     2056     9063    4                    end;
     2057     9064    3                 end;
     2058     9065
     2059     9066    2              call searchr(I,J,B$SR_NON_BLANK,MAP_BOX);
     2060     9067    3              call index(J,'/',MAP_BOX) whenaltreturn do; J = I; end;
     2061     9068
     2062     9069    2              call LOCATE_REGISTERED_NAME( MAP_BOX, J ) altret(BAD_FOLDER);
     2063     9070    2              if NAME_KEY.NAME# ~= ' ' then
     2064     9071    3              do;
     2065     9072    3                 call concat(FOLD_STRING,substr(MAP_BOX,J,maximum(0,I-J+1)),'.',
              9072                          NAME_KEY.NAME#);
     2066     9073    3                 call VERIFY_FOLDER( FOLD_STRING, maximum(0,I-J+1)+9) altret (
              9073                          BAD_FOLDER);
     2067     9074    3                 end;
     2068     9075
     2069     9076    2              end;
PL6.E3A0      #002=VWM$GET_MAILBOX File=VWM$MOVE.:VMB6TSI                        WED 08/20/97 15:44 Page:262
     2070     9077
     2071     9078    1   EXIT_NAME_SERVER:
     2072     9079    1           MAILBOX = MAP_BOX;
     2073     9080    1           return;
     2074     9081
     2075     9082
     2076     9083    1   BAD_FOLDER:
     2077     9084    1           altreturn;
     2078     9085
     2079     9086    1   BAD_OPEN:
     2080     9087    1           altreturn;
     2081     9088
     2082     9089    1   LEAVE_AS_IS:
     2083     9090    1           return;
     2084     9091
     2085     9092
     2086     9093    1   VWM$FIX_MAILBOX: entry(MAILBOX, VM_IAM#, VM_ERR#) altret;
     2087     9094
     2088     9095    1           MAP_BOX = MAILBOX;
     2089     9096    1           if MAP_BOX = ' ' then
     2090     9097    2           do;
     2091     9098    2              call concat(MAP_BOX,'.',VM_IAM#);
     2092     9099    2              end;
     2093     9100    1           else
     2094     9101    2           do;
     2095     9102    2              if substr(MAP_BOX,,1) = '/' then
     2096     9103    3              do;
     2097     9104    3                 call index(J,' ',MAP_BOX);
     2098     9105    4                 call index(I,'.',MAP_BOX) whenreturn do;
     2099     9106    4                    if substr(MAP_BOX,I+1,1) ~= ' ' then goto EXIT_NAME_SERVER;
     2100     9107    4                    J = minimum(I,J);
     2101     9108    4                    end;
     2102     9109    3                 call concat(substr(MAP_BOX,J),'.',VM_IAM#);
     2103     9110    3                 end;
     2104     9111    2              end;
     2105     9112    1           goto EXIT_NAME_SERVER;
     2106     9113
PL6.E3A0      #002=VWM$GET_MAILBOX File=VWM$MOVE.:VMB6TSI                        WED 08/20/97 15:44 Page:263
     2107     9114        %eject;
PL6.E3A0      #002=VWM$GET_MAILBOX File=VWM$MOVE.:VMB6TSI                        WED 08/20/97 15:44 Page:264
     2108     9115    1   MAP_ACCT_TO_REGISTERED_NAME: proc altret;
     2109     9116
     2110     9117        /*I*    NAME:    MAP_ACCT_TO_REGISTERED_NAME
     2111     9118                PURPOSE: To turn the logon or filemanagement account
     2112     9119                         into a registered name.
     2113     9120                DESCRIPTION:   The :NAME file is accessed to determine
     2114     9121                            whether a registered name exists for this
     2115     9122                            account.  If it does not, then we look for
     2116     9123                            a mailbox in either the logon or file
     2117     9124                            management account to blame.
     2118     9125                                                                         */
     2119     9126
     2120     9127    2           FPT_READ = READ_NAME;
     2121     9128    2           FPT_READ.V_ = vector(FPT_READ.V);
     2122     9129    2           FPT_READ.KEY_ = vector(NAME_KEY);
     2123     9130    2           FPT_READ.BUF_ = vector(NAME_BUFFER.NAME#);
     2124     9131
     2125     9132    2           NAME_KEY.NAME# = B$JIT.ACCN;
     2126     9133    2           NAME_KEY.L# = 20;
     2127     9134
     2128     9135    2   LOOK_4_MAP:
     2129     9136    3           do I = 0 to 1 by 1;
     2130     9137
     2131     9138    3              if I = 1 then NAME_KEY.NAME# = B$JIT.FACCN;
     2132     9139    4              call M$READ( FPT_READ ) whenreturn do;
     2133     9140    4                 goto GOT_A_NAME_MAP;
     2134     9141    4                 end;
     2135     9142    3              substr(NAME_KEY.NAME#,8) = B$JIT.UNAME;
     2136     9143    4              call M$READ( FPT_READ ) whenreturn do;
     2137     9144    4                 goto GOT_A_NAME_MAP;
     2138     9145    4                 end;
     2139     9146
     2140     9147    3              end LOOK_4_MAP;
     2141     9148
     2142     9149        /**  Not registered, look for a mailbox in either the
     2143     9150         **  logon account or the file management account.
     2144     9151         **/
PL6.E3A0      #002=VWM$GET_MAILBOX File=VWM$MOVE.:VMB6TSI                        WED 08/20/97 15:44 Page:265
     2145     9152    2           FPT_OPEN = OPEN_GLOBAL;
     2146     9153    2           FPT_OPEN.ACCT_ = vector(USER_ACCT);
     2147     9154    2           FPT_OPEN.V_ = vector(FPT_OPEN.V);
     2148     9155    2           FPT_OPEN.V.DCB# = dcbnum(M$DUMMY);
     2149     9156
     2150     9157    2           USER_ACCT.ACCT# = B$JIT.ACCN;
     2151     9158    3           call M$OPEN(FPT_OPEN) whenaltreturn do;
     2152     9159    3              USER_ACCT.ACCT# = B$JIT.FACCN;
     2153     9160    4              call M$OPEN(FPT_OPEN) whenaltreturn do;
     2154     9161    4                 altreturn;
     2155     9162    4                 end;
     2156     9163    3              end;
     2157     9164
     2158     9165    2           FPT_CLOSE.V.DCB# = dcbnum(M$DUMMY);
     2159     9166    3           call M$CLOSE(FPT_CLOSE) whenaltreturn do; end;
     2160     9167
     2161     9168    2           NAME_BUFFER.L# = 8;
     2162     9169    2           call concat(NAME_BUFFER.NAME#,'.',USER_ACCT.ACCT#);
     2163     9170    2           call index(I,' ',NAME_BUFFER.NAME#);
     2164     9171    2           NAME_BUFFER.L# = I;
     2165     9172    2           return;
     2166     9173
     2167     9174    2   GOT_A_NAME_MAP:
     2168     9175    2           NAME_BUFFER.L# = dcbaddr(dcbnum(M$NAME))->F$DCB.ARS#;
     2169     9176    2           return;
     2170     9177
     2171     9178    2   end MAP_ACCT_TO_REGISTERED_NAME;
     2172     9179        %eject;
PL6.E3A0      #002=VWM$GET_MAILBOX File=VWM$MOVE.:VMB6TSI                        WED 08/20/97 15:44 Page:266
     2173     9180    1   LOCATE_REGISTERED_NAME: proc( NAME#, L# ) altret;
     2174     9181
     2175     9182        /*I*    NAME:       LOCATE_REGISTERED_NAME
     2176     9183                PURPOSE:    To determine if the specified name is a
     2177     9184                            known registered name.
     2178     9185                DESCRIPTION:   The :MAIL_CENTRAL.:MAIL file is accessed
     2179     9186                            to determine if a given name is registered
     2180     9187                            or not.  If it does not exist, an alternate
     2181     9188                            return is made.
     2182     9189                                                                         */
     2183     9190    2   dcl  NAME#    char(20);
     2184     9191    2   dcl  L#       sbin;
     2185     9192    2   dcl  I        sbin;
     2186     9193    2   dcl  J        sbin;
     2187     9194
     2188     9195
     2189     9196    2           FPT_READ = READ_GLOBAL;
     2190     9197    2           FPT_READ.V_ = vector(FPT_READ.V);
     2191     9198    2           FPT_READ.BUF_ = vector(VM_BUFFER);
     2192     9199    2           FPT_READ.KEY_ = vector(VM_USERKEY);
     2193     9200
     2194     9201    2           VM_USERKEY.TEXT = substr(NAME#,,L#);
     2195     9202    2           call searchr(I,J,B$SR_NON_BLANK,VM_USERKEY.TEXT);
     2196     9203    2           VM_USERKEY.COUNT = I+2;
     2197     9204    2           VM_USERKEY.TYPE = %VM_TYPE_USER;
     2198     9205    2           VM_LISTKEY.TYPE = %VM_TYPE_LIST;
     2199     9206
     2200     9207    3           call M$READ(FPT_READ) whenreturn do;
     2201     9208    3              ADD$ = PINCRW(addr(VM_BUFFER),VM_BUFFER.UPPER(3));
     2202     9209    3              if VM_RADDRESS.SITENAME~=VM_IAM# and VM_RADDRESS.SITENAME~=' '
     2203     9210    3              then altreturn;
     2204     9211    3              NAME_KEY.NAME# = VM_RADDRESS.ACCT;
     2205     9212    3              return;
     2206     9213    3              end;
     2207     9214
     2208     9215    2           NAME_KEY.NAME# = ' ';
     2209     9216    2           VM_LISTKEY.TEXT = VM_USERKEY.TEXT;
PL6.E3A0      #002=VWM$GET_MAILBOX File=VWM$MOVE.:VMB6TSI                        WED 08/20/97 15:44 Page:267
     2210     9217    2           VM_LISTKEY.COUNT = I+1;
     2211     9218    3           call M$READ(FPT_READ) whenaltreturn do;
     2212     9219    3              altreturn;
     2213     9220    3              end;
     2214     9221    2           ADD$ = PINCRW(addr(VM_BUFFER),VM_BUFFER.UPPER(3)+2);
     2215     9222    2           if VM_RADDRESS.SITENAME~=VM_IAM# and VM_RADDRESS.SITENAME~=' '
     2216     9223    2           then altreturn;
     2217     9224
     2218     9225    2   end LOCATE_REGISTERED_NAME;
     2219     9226        %eject;
PL6.E3A0      #002=VWM$GET_MAILBOX File=VWM$MOVE.:VMB6TSI                        WED 08/20/97 15:44 Page:268
     2220     9227    1   VERIFY_FOLDER: proc(STRING#, L#) altret;
     2221     9228
     2222     9229        /*I*    NAME:       VERIFY_FOLDER
     2223     9230                PURPOSE:    To determine if the specified folder exists.
     2224     9231
     2225     9232                DESCRIPTION:   The argument contains a folder specification
     2226     9233                            of the form: :MAIL_?.acct or /?.acct.  This
     2227     9234                            routine maps this argument into the corresponding
     2228     9235                            CP-6 filename and tries to open the folder.
     2229     9236
     2230     9237                            An alternate return is taken if the open is
     2231     9238                            unsuccessfull.
     2232     9239                                                                            */
     2233     9240
     2234     9241    2   dcl  STRING#        char(L#);
     2235     9242    2   dcl  L#             sbin;
     2236     9243    2   dcl  I              sbin;
     2237     9244    2   dcl  DOT            sbin;
     2238     9245
     2239     9246        %VLP_ACCT( FPTN     =  OPEN_ACCT,
     2240     9247                   STCLASS  =  "");
     2241     9260
     2242     9261        %VLP_NAME( FPTN     =  OPEN_NAME,
     2243     9262                   STCLASS  =  "",
     2244     9263                   LEN      =  31);
     2245     9290
     2246     9291    2           FPT_OPEN =  OPEN_GLOBAL;
     2247     9292    2           FPT_OPEN.V_ = vector(FPT_OPEN.V);
     2248     9293    2           FPT_OPEN.NAME_ = vector(OPEN_NAME);
     2249     9294    2           FPT_OPEN.ACCT_ = vector(OPEN_ACCT);
     2250     9295    2           FPT_OPEN.V.DCB# = dcbnum(M$DUMMY);
     2251     9296
     2252     9297    2           call index(DOT,'.',STRING#);
     2253     9298    2           if substr(STRING#,,1) = '/' then
     2254     9299    3           do;
     2255     9300    3              OPEN_NAME.NAME# = ':MAIL_CENTRAL';
     2256     9301    3              if DOT > 1 then
PL6.E3A0      #002=VWM$GET_MAILBOX File=VWM$MOVE.:VMB6TSI                        WED 08/20/97 15:44 Page:269
     2257     9302    4              do;
     2258     9303    4                 substr(OPEN_NAME.NAME#,6) = substr(STRING#,1,DOT-1);
     2259     9304    4                 I = DOT + 5;
     2260     9305    4                 end;
     2261     9306    3              else I = %lengthc(':MAIL_CENTRAL');
     2262     9307    3              end;
     2263     9308
     2264     9309    2           else
     2265     9310
     2266     9311    3           do;                             /***  A fid? ***/
     2267     9312    3              I = DOT;
     2268     9313    3              if substr(STRING#,,6)~= ':MAIL_' then
     2269     9314    4              do;
     2270     9315    4                 call concat(OPEN_NAME.NAME#,':MAIL_',substr(STRING#,,DOT-1));
     2271     9316    4                 I = I + 5;
     2272     9317    4                 end;
     2273     9318    3              else OPEN_NAME.NAME# = substr(STRING#,,I);
     2274     9319    3              end;
     2275     9320
     2276     9321    2           OPEN_NAME.L# = I;
     2277     9322    2           if (DOT+1) >= L#
     2278     9323    2           then OPEN_ACCT.ACCT# = B$JIT.ACCN;
     2279     9324    2           else OPEN_ACCT.ACCT# = substr(STRING#,DOT+1);
     2280     9325    2           if OPEN_ACCT.ACCT# = ' ' then OPEN_ACCT.ACCT# = B$JIT.ACCN;
     2281     9326
     2282     9327    3           call M$OPEN( FPT_OPEN ) whenreturn do; goto OKAY; end;
     2283     9328    2           if OPEN_ACCT.ACCT# = B$JIT.ACCN then
     2284     9329    3           do;
     2285     9330    3              OPEN_ACCT.ACCT# = B$JIT.FACCN;
     2286     9331    4              call M$OPEN( FPT_OPEN ) whenreturn do; goto OKAY; end;
     2287     9332    3              end;
     2288     9333
     2289     9334    2           altreturn;
     2290     9335
     2291     9336    2   OKAY:
     2292     9337    2           return;
     2293     9338
PL6.E3A0      #002=VWM$GET_MAILBOX File=VWM$MOVE.:VMB6TSI                        WED 08/20/97 15:44 Page:270
     2294     9339    2   end VERIFY_FOLDER;
     2295     9340
     2296     9341    1   end VWM$GET_MAILBOX;

PL6.E3A0      #002=VWM$GET_MAILBOX File=VWM$MOVE.:VMB6TSI                        WED 08/20/97 15:44 Page:271
--  Include file information  --

   CP_6_C.:LIB_E05  is referenced.
   CP_6.:LIB_E05  cannot be made into a system file and is referenced.
   CP_6_SUBS.:LIB_E05  is referenced.
   B$JIT_C.:LIB_E05  is referenced.
   B$JIT.:LIB_E05  cannot be made into a system file and is referenced.
   B$TABLES_C.:LIB_E05  cannot be made into a system file and is referenced.
   VM_MACRO_C.:VMB6TOU  is referenced.
      No diagnostics issued in procedure VWM$GET_MAILBOX.

   Procedure VWM$GET_MAILBOX requires 650 words for executable code.
   Procedure VWM$GET_MAILBOX requires 450 words of local(AUTO) storage.

    No errors detected in file VWM$MOVE.:VMB6TSI    .

PL6.E3A0      #002=VWM$GET_MAILBOX File=VWM$MOVE.:VMB6TSI                        WED 08/20/97 15:44 Page:272

 Object Unit name= VWM$GET_MAILBOX                            File name= VWM$MOVE.:VMB6TOU
 UTS= AUG 20 '97 15:44:21.84 WED                              Compiler= PL-6/E31         Sev=      00
 SharedLib= :SHARED_SYSTEM                                    Alt SharedLib=


    ****  Control sections  ****

 Sect   Type Bound  Init  Size OctSiz  Section name(segment info)
    0   DCB   even  none     0      0  M$NAME
    1   DCB   even  none     0      0  M$GLOBAL
    2   DCB   even  none     0      0  M$DUMMY
    3   DCB   even  none     0      0  M$UC
    4  RoData even  UTS    198    306  VWM$GET_MAILBOX
    5   Proc  even  none   650   1212  VWM$GET_MAILBOX
    6  RoData even  none    13     15  VWM$GET_MAILBOX

    ****  Entry defs  ****

                              Check   Calling
                             calling  sequence
  Sect OctLoc Primary Altret sequence   type   Parms  Name
     5      0   yes    yes     yes      Std        3  VWM$GET_MAILBOX
     5    372          yes     yes      Std        3  VWM$FIX_MAILBOX

  ****  Entry refs  ****

         Check        Calling
        calling       sequence
Altret sequence SRef   type   Args  Name
         yes          ~proc      0 B_POINTER
                       nStd      0 X66_AUTO_3
                       nStd      0 X66_ARET
                       nStd      0 X66_AALT
PL6.E3A0      #002=VWM$GET_MAILBOX File=VWM$MOVE.:VMB6TSI                        WED 08/20/97 15:44 Page:273

  ****  Data refs  ****

  Flags:  r = read only, s = secondary
Flgs Name                             Flgs Name                             Flgs Name
     M$NAME                                M$GLOBAL                              M$DUMMY
r    B$SR_NON_BLANK$                  r    B$JIT$                                M$UC

  ****  Segment refs  ****

  Flags:  r = read only, s = secondary
Flgs Name                             Flgs Name                             Flgs Name
     ISSID                                 NULLSID                               ROSID
PL6.E3A0      #002=VWM$GET_MAILBOX File=VWM$MOVE.:VMB6TSI                        WED 08/20/97 15:44 Page:274


     1887        1        /*T***********************************************************/
     1888        2        /*T*                                                         */
     1889        3        /*T* Copyright (c) Bull HN Information Systems Inc., 1997    */
     1890        4        /*T*                                                         */
     1891        5        /*T***********************************************************/
     1892        6
     1893        7        VWM$GET_MAILBOX: proc( MAILBOX, VM_IAM#, VM_ERR# ) altret;

      7  5 000000   000000 700200 xent  VWM$GET_MAI* TSX0  ! X66_AUTO_3
         5 000001   000702 000003                    ZERO    450,3

     1894        8
     1895        9    1   dcl  MAILBOX     char(79);
     1896       10    1   dcl  MAP_BOX     char(79);
     1897       11    1   dcl  VM_IAM#     char(8);
     1898       12    1   dcl  VM_ERR#     sbin;
     1899       13
     1900       14    1   dcl  M$NAME         dcb;
     1901       15    1   dcl  M$GLOBAL       dcb;
     1902       16    1   dcl  M$DUMMY        dcb;
     1903       17
     1904       18        %include VM_MACRO_C;
     1905     1286
     1906     1287        %VM_KEYTYPES;
     1907     1308        %VM_ADDTYPES;
     1908     1312        %VM_RADDRESS (STCLASS="BASED(ADD$)");
     1909     1347        %VM_USERKEY  (STCLASS="");
     1910     1363        %VM_LISTKEY  (STCLASS="");
     1911     1379
     1912     1380        %include B$TABLES_C;
     1913     1488        %B$SR_NON_BLANK;
     1914     1492
     1915     1493        %include B$JIT;
     1916     2096    1   dcl  B$JIT$      ptr symref readonly;
     1917     2097
     1918     2098        %include CP_6_SUBS;
PL6.E3A0      #002=VWM$GET_MAILBOX File=VWM$MOVE.:VMB6TSI                        WED 08/20/97 15:44 Page:275
     1919     2638        %include CP_6;
     1920     8197        %F$DCB;
     1921     8254        %FPT_OPEN( FPTN     =  OPEN_NAME,
     1922     8255                   DCB      =  M$NAME,
     1923     8256                   ASN      =  FILE,
     1924     8257                   FUN      =  IN,
     1925     8258                   SHARE    =  ALL,
     1926     8259                   SCRUB    =  YES,
     1927     8260                   NAME     =  VM_NAME_MAP_NAME,
     1928     8261                   ACCT     =  VM_MAIL_ACCT,
     1929     8262                   STCLASS  =  CONSTANT);
     1930     8371
     1931     8372        %FPT_OPEN( FPTN     =  OPEN_GLOBAL,
     1932     8373                   DCB      =  M$GLOBAL,
     1933     8374                   ASN      =  FILE,
     1934     8375                   FUN      =  IN,
     1935     8376                   SHARE    =  ALL,
     1936     8377                   SCRUB    =  YES,
     1937     8378                   NAME     =  VM_GLOBAL_NAME,
     1938     8379                   ACCT     =  VM_MAIL_ACCT,
     1939     8380                   STCLASS  =  CONSTANT);
     1940     8489
     1941     8490        %FPT_OPEN( FPTN     =  FPT_OPEN,
     1942     8491                   STCLASS  =  "");
     1943     8600
     1944     8601        %VLP_NAME( FPTN     =  VM_GLOBAL_NAME,
     1945     8602                   LEN      =  31,
     1946     8603                   NAME     =  ':MAIL_CENTRAL',
     1947     8604                   STCLASS  =  CONSTANT);
     1948     8631
     1949     8632        %VLP_NAME( FPTN     =  VM_NAME_MAP_NAME,
     1950     8633                   LEN      =  31,
     1951     8634                   NAME     =  ':NAME',
     1952     8635                   STCLASS  =  CONSTANT);
     1953     8662
     1954     8663        %VLP_ACCT( FPTN     =  VM_MAIL_ACCT,
     1955     8664                   ACCT     =  ':MAIL',
PL6.E3A0      #002=VWM$GET_MAILBOX File=VWM$MOVE.:VMB6TSI                        WED 08/20/97 15:44 Page:276
     1956     8665                   STCLASS  =  CONSTANT);
     1957     8678
     1958     8679
     1959     8680        %FPT_READ( FPTN     =  READ_NAME,
     1960     8681                   KEYS     =  YES,
     1961     8682                   STCLASS  =  CONSTANT,
     1962     8683                   DCB      =  M$NAME);
     1963     8722
     1964     8723        %FPT_READ( FPTN     =  FPT_READ,
     1965     8724                   STCLASS  =  "");
     1966     8763
     1967     8764        %FPT_READ( FPTN     =  READ_GLOBAL,
     1968     8765                   KEYS     =  YES,
     1969     8766                   STCLASS  =  CONSTANT,
     1970     8767                   DCB      =  M$GLOBAL);
     1971     8806
     1972     8807        %VLP_NAME( FPTN     =  NAME_KEY,
     1973     8808                   STCLASS  =  "",
     1974     8809                   LEN      =  31);
     1975     8836
     1976     8837        %VLP_NAME( FPTN     =  GLOBAL_KEY,
     1977     8838                   STCLASS  =  "",
     1978     8839                   LEN      =  255);
     1979     8866
     1980     8867        %VLP_NAME( FPTN     =  NAME_BUFFER,
     1981     8868                   LEN      =  255,
     1982     8869                   STCLASS  =  "");
     1983     8896
     1984     8897        %VLP_ACCT( FPTN     =  USER_ACCT,
     1985     8898                   STCLASS  =  "");
     1986     8911
     1987     8912        %FPT_CLOSE(FPTN     =  FPT_CLOSE,
     1988     8913                   STCLASS  =  "");
     1989     8955
     1990     8956        %FPT_CLOSE(FPTN     =  CLOSE_CONSTANT,
     1991     8957                   STCLASS  =  CONSTANT);
     1992     8999
PL6.E3A0      #002=VWM$GET_MAILBOX File=VWM$MOVE.:VMB6TSI                        WED 08/20/97 15:44 Page:277
     1993     9000
     1994     9001    1   dcl  I        sbin;
     1995     9002    1   dcl  J        sbin;
     1996     9003    1   dcl  ADD$     ptr;
     1997     9004    1   dcl  FOLD_STRING             char(80);
     1998     9005
     1999     9006    1   dcl 1  VM_BUFFER(0:39)      aligned,
     2000     9007    1         2  UPPER    ubin(18) haligned,
     2001     9008    1         2  LOWER    ubin(18) haligned;
     2002     9009
     2003     9010
     2004     9011    1           MAP_BOX = MAILBOX;

   9011  5 000002   200003 470500                    LDP0    @MAILBOX,,AUTO
         5 000003   040100 100500                    MLR     fill='040'O
         5 000004   000000 000117                    ADSC9   0,,PR0                   cn=0,n=79
         5 000005   200006 000117                    ADSC9   MAP_BOX,,AUTO            cn=0,n=79

     2005     9012    1           FOLD_STRING = MAP_BOX;

   9012  5 000006   040100 100500                    MLR     fill='040'O
         5 000007   200006 000117                    ADSC9   MAP_BOX,,AUTO            cn=0,n=79
         5 000010   200563 000120                    ADSC9   FOLD_STRING,,AUTO        cn=0,n=80

     2006     9013    1           if dcbaddr(dcbnum(M$GLOBAL))->F$DCB.FCD# = '0'b

   9013  5 000011   000000 236007 xsym               LDQ     M$GLOBAL,DL
         5 000012   000000 471400 6                  LDP1    0
         5 000013   100000 473500                    LDP3    0,,PR1
         5 000014   300000 474506                    LDP4    0,QL,PR3
         5 000015   400031 236100                    LDQ     25,,PR4
         5 000016   020000 316007                    CANQ    8192,DL
         5 000017   000024 601000 5                  TNZ     s:9016

     2007     9014    1           then call M$OPEN(OPEN_GLOBAL) altret(BAD_OPEN);

   9014  5 000020   000072 630400 4                  EPPR0   OPEN_GLOBAL
PL6.E3A0      #002=VWM$GET_MAILBOX File=VWM$MOVE.:VMB6TSI                        WED 08/20/97 15:44 Page:278
         5 000021   450000 713400                    CLIMB   alt,open
         5 000022   410400 401760                    pmme    nvectors=18
         5 000023   000370 702000 5                  TSX2    BAD_OPEN

     2008     9015
     2009     9016    1           if dcbaddr(dcbnum(M$NAME))->F$DCB.FCD# = '0'b

   9016  5 000024   000000 236007 xsym               LDQ     M$NAME,DL
         5 000025   000000 470400 6                  LDP0    0
         5 000026   000000 471500                    LDP1    0,,PR0
         5 000027   100000 473506                    LDP3    0,QL,PR1
         5 000030   300031 236100                    LDQ     25,,PR3
         5 000031   020000 316007                    CANQ    8192,DL
         5 000032   000037 601000 5                  TNZ     s:9019

     2010     9017    1           then call M$OPEN(OPEN_NAME)   altret(BAD_OPEN);

   9017  5 000033   000000 630400 4                  EPPR0   OPEN_NAME
         5 000034   450000 713400                    CLIMB   alt,open
         5 000035   410400 401760                    pmme    nvectors=18
         5 000036   000370 702000 5                  TSX2    BAD_OPEN

     2011     9018
     2012     9019    1           FPT_CLOSE = CLOSE_CONSTANT;

   9019  5 000037   000100 100400                    MLR     fill='000'O
         5 000040   000242 000170 4                  ADSC9   CLOSE_CONSTANT           cn=0,n=120
         5 000041   200522 000170                    ADSC9   FPT_CLOSE,,AUTO          cn=0,n=120

     2013     9020    1           FPT_CLOSE.V_ = vector(FPT_CLOSE.V);

   9020  5 000042   000001 235000 6                  LDA     1
         5 000043   200700 452500                    STP2    OPEN_NAME+9,,AUTO
         5 000044   200700 236100                    LDQ     OPEN_NAME+9,,AUTO
         5 000045   000554 036003                    ADLQ    364,DU
         5 000046   200522 757100                    STAQ    FPT_CLOSE,,AUTO

PL6.E3A0      #002=VWM$GET_MAILBOX File=VWM$MOVE.:VMB6TSI                        WED 08/20/97 15:44 Page:279
     2014     9021
     2015     9022    2           if MAP_BOX = ' ' then do;

   9022  5 000047   040000 106500                    CMPC    fill='040'O
         5 000050   200006 000117                    ADSC9   MAP_BOX,,AUTO            cn=0,n=79
         5 000051   000002 000001 6                  ADSC9   2                        cn=0,n=1
         5 000052   000064 601000 5                  TNZ     s:9028

     2016     9023    2              call MAP_ACCT_TO_REGISTERED_NAME altret(BAD_FOLDER);

   9023  5 000053   000463 701000 5                  TSX1    MAP_ACCT_TO_REGISTERED_NAME
         5 000054   000367 702000 5                  TSX2    BAD_FOLDER

     2017     9024    2              MAP_BOX = substr(NAME_BUFFER.NAME#,,NAME_BUFFER.L#);

   9024  5 000055   200420 236100                    LDQ     NAME_BUFFER,,AUTO
         5 000056   000033 772000                    QRL     27
         5 000057   000000 620006                    EAX0    0,QL
         5 000060   040100 100540                    MLR     fill='040'O
         5 000061   200420 200010                    ADSC9   NAME_BUFFER,,AUTO        cn=1,n=*X0
         5 000062   200006 000117                    ADSC9   MAP_BOX,,AUTO            cn=0,n=79

     2018     9025    2              goto EXIT_NAME_SERVER;

   9025  5 000063   000362 710000 5                  TRA     EXIT_NAME_SERVER

     2019     9026    2              end;
     2020     9027
     2021     9028    1           if substr(MAP_BOX,0,1) = '/' then

   9028  5 000064   200006 236100                    LDQ     MAP_BOX,,AUTO
         5 000065   777000 376003                    ANQ     -512,DU
         5 000066   057000 116003                    CMPQ    24064,DU
         5 000067   000226 601000 5                  TNZ     s:9058

     2022     9029    2           do;                   /**  Mailbox begins with folder specification  **/

PL6.E3A0      #002=VWM$GET_MAILBOX File=VWM$MOVE.:VMB6TSI                        WED 08/20/97 15:44 Page:280
     2023     9030    2              call index(J,' ',MAP_BOX);

   9030  5 000070   000000 124500                    SCM     mask='000'O
         5 000071   200006 000117                    ADSC9   MAP_BOX,,AUTO            cn=0,n=79
         5 000072   000002 000001 6                  ADSC9   2                        cn=0,n=1
         5 000073   200561 000100                    ARG     J,,AUTO

     2024     9031    3              call index(I,'.',MAP_BOX) whenreturn do;

   9031  5 000074   000000 124500                    SCM     mask='000'O
         5 000075   200006 000117                    ADSC9   MAP_BOX,,AUTO            cn=0,n=79
         5 000076   000003 000001 6                  ADSC9   3                        cn=0,n=1
         5 000077   200560 000100                    ARG     I,,AUTO
         5 000100   000110 606400 5                  TTN     s:9036

     2025     9032    3                 call VERIFY_FOLDER(MAP_BOX,J) altret(BAD_FOLDER);

   9032  5 000101   200561 630500                    EPPR0   J,,AUTO
         5 000102   200662 450500                    STP0    @STRING#+1,,AUTO
         5 000103   200006 631500                    EPPR1   MAP_BOX,,AUTO
         5 000104   200661 451500                    STP1    VM_BUFFER+42,,AUTO
         5 000105   001017 701000 5                  TSX1    VERIFY_FOLDER
         5 000106   000367 702000 5                  TSX2    BAD_FOLDER

     2026     9033    3                 goto LEAVE_AS_IS;

   9033  5 000107   000371 710000 5                  TRA     LEAVE_AS_IS

     2027     9034    3                 end;
     2028     9035
     2029     9036    2              call MAP_ACCT_TO_REGISTERED_NAME altret(BAD_FOLDER);

   9036  5 000110   000463 701000 5                  TSX1    MAP_ACCT_TO_REGISTERED_NAME
         5 000111   000367 702000 5                  TSX2    BAD_FOLDER

     2030     9037
     2031     9038    2              if substr(NAME_BUFFER.NAME#,0,1) ~= '.' then
PL6.E3A0      #002=VWM$GET_MAILBOX File=VWM$MOVE.:VMB6TSI                        WED 08/20/97 15:44 Page:281

   9038  5 000112   200420 236100                    LDQ     NAME_BUFFER,,AUTO
         5 000113   000777 376003                    ANQ     511,DU
         5 000114   000056 116003                    CMPQ    46,DU
         5 000115   000213 600000 5                  TZE     s:9051

     2032     9039    3              do;                /**  We found a registration for this user   **/

     2033     9040    3                 if NAME_BUFFER.L# + J < 80 then

   9040  5 000116   200420 236100                    LDQ     NAME_BUFFER,,AUTO
         5 000117   000033 772000                    QRL     27
         5 000120   200561 036100                    ADLQ    J,,AUTO
         5 000121   000120 116007                    CMPQ    80,DL
         5 000122   000171 605000 5                  TPL     s:9048

     2034     9041    4                 do;                       /** Registered name will fit!  **/

     2035     9042    4                    call concat(FOLD_STRING,

   9042  5 000123   200561 720100                    LXL0    J,,AUTO
         5 000124   040100 100540                    MLR     fill='040'O
         5 000125   200006 000010                    ADSC9   MAP_BOX,,AUTO            cn=0,n=*X0
         5 000126   200563 000120                    ADSC9   FOLD_STRING,,AUTO        cn=0,n=80
         5 000127   200561 236100                    LDQ     J,,AUTO
         5 000130   000120 116007                    CMPQ    80,DL
         5 000131   000147 605000 5                  TPL     s:9044
         5 000132   777657 621006                    EAX1    -81,QL
         5 000133   777777 661003                    ERX1    -1,DU
         5 000134   040146 100400                    MLR     fill='040'O
         5 000135   000003 000001 6                  ADSC9   3                        cn=0,n=1
         5 000136   200563 000011                    ADSC9   FOLD_STRING,Q,AUTO       cn=0,n=*X1
         5 000137   200561 236100                    LDQ     J,,AUTO
         5 000140   000117 116007                    CMPQ    79,DL
         5 000141   000147 605000 5                  TPL     s:9044
         5 000142   777660 620006                    EAX0    -80,QL
         5 000143   777777 660003                    ERX0    -1,DU
PL6.E3A0      #002=VWM$GET_MAILBOX File=VWM$MOVE.:VMB6TSI                        WED 08/20/97 15:44 Page:282
         5 000144   040146 100500                    MLR     fill='040'O
         5 000145   200310 200010                    ADSC9   NAME_KEY,,AUTO           cn=1,n=8
         5 000146   200563 200010                    ADSC9   FOLD_STRING,Q,AUTO       cn=1,n=*X0

     2036     9043    4                      substr(MAP_BOX,,J),'.',substr(NAME_KEY.NAME#,,8));
     2037     9044    4                    substr(NAME_BUFFER.NAME#,NAME_BUFFER.L#) = substr(MAP_BOX,,J);

   9044  5 000147   200420 236100                    LDQ     NAME_BUFFER,,AUTO
         5 000150   000033 772000                    QRL     27
         5 000151   777400 620006                    EAX0    -256,QL
         5 000152   777777 660003                    ERX0    -1,DU
         5 000153   200561 721100                    LXL1    J,,AUTO
         5 000154   040146 100540                    MLR     fill='040'O
         5 000155   200006 000011                    ADSC9   MAP_BOX,,AUTO            cn=0,n=*X1
         5 000156   200420 200010                    ADSC9   NAME_BUFFER,Q,AUTO       cn=1,n=*X0

     2038     9045    4                    MAP_BOX = substr(NAME_BUFFER.NAME#,,NAME_BUFFER.L#+J);

   9045  5 000157   200420 236100                    LDQ     NAME_BUFFER,,AUTO
         5 000160   000033 772000                    QRL     27
         5 000161   200561 036100                    ADLQ    J,,AUTO
         5 000162   000000 620006                    EAX0    0,QL
         5 000163   040100 100540                    MLR     fill='040'O
         5 000164   200420 200010                    ADSC9   NAME_BUFFER,,AUTO        cn=1,n=*X0
         5 000165   200006 000117                    ADSC9   MAP_BOX,,AUTO            cn=0,n=79

     2039     9046    4                    J = J + 9;             /** Include the account **/

   9046  5 000166   000011 236007                    LDQ     9,DL
         5 000167   200561 056100                    ASQ     J,,AUTO

     2040     9047    4                    end;                   /*  Of if Registered name fits        */

   9047  5 000170   000204 710000 5                  TRA     s:9049

     2041     9048    3                 else call concat(substr(MAP_BOX,,J),'.',USER_ACCT.ACCT#);

PL6.E3A0      #002=VWM$GET_MAILBOX File=VWM$MOVE.:VMB6TSI                        WED 08/20/97 15:44 Page:283
   9048  5 000171   200561 720100                    LXL0    J,,AUTO
         5 000172   040140 100400                    MLR     fill='040'O
         5 000173   000003 000001 6                  ADSC9   3                        cn=0,n=1
         5 000174   200006 000010                    ADSC9   MAP_BOX,,AUTO            cn=0,n=*X0
         5 000175   200561 236100                    LDQ     J,,AUTO
         5 000176   000001 116007                    CMPQ    1,DL
         5 000177   000204 604400 5                  TMOZ    s:9049
         5 000200   777777 620006                    EAX0    -1,QL
         5 000201   040140 100500                    MLR     fill='040'O
         5 000202   200520 000010                    ADSC9   USER_ACCT,,AUTO          cn=0,n=8
         5 000203   200006 200010                    ADSC9   MAP_BOX,,AUTO            cn=1,n=*X0

     2042     9049    3                 call VERIFY_FOLDER( FOLD_STRING, J) altret(BAD_FOLDER);

   9049  5 000204   200561 630500                    EPPR0   J,,AUTO
         5 000205   200662 450500                    STP0    @STRING#+1,,AUTO
         5 000206   200563 631500                    EPPR1   FOLD_STRING,,AUTO
         5 000207   200661 451500                    STP1    VM_BUFFER+42,,AUTO
         5 000210   001017 701000 5                  TSX1    VERIFY_FOLDER
         5 000211   000367 702000 5                  TSX2    BAD_FOLDER

     2043     9050    3                 end;                      /*  Of Registered name found          */

   9050  5 000212   000362 710000 5                  TRA     EXIT_NAME_SERVER

     2044     9051    2              else substr(MAP_BOX,J) = substr(NAME_BUFFER.NAME#,,NAME_BUFFER.L#);

   9051  5 000213   200420 236100                    LDQ     NAME_BUFFER,,AUTO
         5 000214   000033 772000                    QRL     27
         5 000215   200561 720100                    LXL0    J,,AUTO
         5 000216   777660 620010                    EAX0    -80,X0
         5 000217   777777 660003                    ERX0    -1,DU
         5 000220   000000 621006                    EAX1    0,QL
         5 000221   200561 235100                    LDA     J,,AUTO
         5 000222   040145 100540                    MLR     fill='040'O
         5 000223   200420 200011                    ADSC9   NAME_BUFFER,,AUTO        cn=1,n=*X1
         5 000224   200006 000010                    ADSC9   MAP_BOX,A,AUTO           cn=0,n=*X0
PL6.E3A0      #002=VWM$GET_MAILBOX File=VWM$MOVE.:VMB6TSI                        WED 08/20/97 15:44 Page:284

     2045     9052    2              end;          /**  Of mailbox starts with folder specification **/

   9052  5 000225   000362 710000 5                  TRA     EXIT_NAME_SERVER

     2046     9053
     2047     9054    1           else
     2048     9055
     2049     9056    2           do;

     2050     9057                                           /**  This must be a registered name!   **/
     2051     9058    2              call index(J,' ',MAP_BOX);

   9058  5 000226   000000 124500                    SCM     mask='000'O
         5 000227   200006 000117                    ADSC9   MAP_BOX,,AUTO            cn=0,n=79
         5 000230   000002 000001 6                  ADSC9   2                        cn=0,n=1
         5 000231   200561 000100                    ARG     J,,AUTO

     2052     9059    3              call index(I,'.',MAP_BOX) whenreturn do;

   9059  5 000232   000000 124500                    SCM     mask='000'O
         5 000233   200006 000117                    ADSC9   MAP_BOX,,AUTO            cn=0,n=79
         5 000234   000003 000001 6                  ADSC9   3                        cn=0,n=1
         5 000235   200560 000100                    ARG     I,,AUTO
         5 000236   000255 606400 5                  TTN     s:9066

     2053     9060    4                 if substr(MAP_BOX,,6) = ':MAIL_' and J>I then do;

   9060  5 000237   040000 106500                    CMPC    fill='040'O
         5 000240   200006 000006                    ADSC9   MAP_BOX,,AUTO            cn=0,n=6
         5 000241   000300 000006 4                  ADSC9   CLOSE_CONSTANT+30        cn=0,n=6
         5 000242   000255 601000 5                  TNZ     s:9066
         5 000243   200561 236100                    LDQ     J,,AUTO
         5 000244   200560 116100                    CMPQ    I,,AUTO
         5 000245   000255 604400 5                  TMOZ    s:9066

     2054     9061    4                    call VERIFY_FOLDER(MAP_BOX,J) altret(BAD_FOLDER);
PL6.E3A0      #002=VWM$GET_MAILBOX File=VWM$MOVE.:VMB6TSI                        WED 08/20/97 15:44 Page:285

   9061  5 000246   200561 630500                    EPPR0   J,,AUTO
         5 000247   200662 450500                    STP0    @STRING#+1,,AUTO
         5 000250   200006 631500                    EPPR1   MAP_BOX,,AUTO
         5 000251   200661 451500                    STP1    VM_BUFFER+42,,AUTO
         5 000252   001017 701000 5                  TSX1    VERIFY_FOLDER
         5 000253   000367 702000 5                  TSX2    BAD_FOLDER

     2055     9062    4                    goto LEAVE_AS_IS;

   9062  5 000254   000371 710000 5                  TRA     LEAVE_AS_IS

     2056     9063    4                    end;
     2057     9064    3                 end;
     2058     9065
     2059     9066    2              call searchr(I,J,B$SR_NON_BLANK,MAP_BOX);

   9066  5 000255   000000 470400 xsym               LDP0    B$SR_NON_BLANK$
         5 000256   000000 165500                    TCTR
         5 000257   200006 000117                    ADSC9   MAP_BOX,,AUTO            cn=0,n=79
         5 000260   000000 000100                    ARG     0,,PR0
         5 000261   200560 000100                    ARG     I,,AUTO
         5 000262   200560 235100                    LDA     I,,AUTO
         5 000263   000033 771000                    ARL     27
         5 000264   200561 755100                    STA     J,,AUTO
         5 000265   200560 551140                    STBA    I,'40'O,AUTO
         5 000266   000271 606400 5                  TTN     s:9067
         5 000267   000116 236007                    LDQ     78,DL
         5 000270   200560 156100                    SSQ     I,,AUTO

     2060     9067    3              call index(J,'/',MAP_BOX) whenaltreturn do; J = I; end;

   9067  5 000271   000000 124500                    SCM     mask='000'O
         5 000272   200006 000117                    ADSC9   MAP_BOX,,AUTO            cn=0,n=79
         5 000273   000004 000001 6                  ADSC9   4                        cn=0,n=1
         5 000274   200561 000100                    ARG     J,,AUTO
         5 000275   000277 606400 5                  TTN     s:9067+6
PL6.E3A0      #002=VWM$GET_MAILBOX File=VWM$MOVE.:VMB6TSI                        WED 08/20/97 15:44 Page:286
         5 000276   000301 710000 5                  TRA     s:9069

   9067  5 000277   200560 235100                    LDA     I,,AUTO
         5 000300   200561 755100                    STA     J,,AUTO

     2061     9068
     2062     9069    2              call LOCATE_REGISTERED_NAME( MAP_BOX, J ) altret(BAD_FOLDER);

   9069  5 000301   200561 630500                    EPPR0   J,,AUTO
         5 000302   200662 450500                    STP0    @STRING#+1,,AUTO
         5 000303   200006 631500                    EPPR1   MAP_BOX,,AUTO
         5 000304   200661 451500                    STP1    VM_BUFFER+42,,AUTO
         5 000305   000652 701000 5                  TSX1    LOCATE_REGISTERED_NAME
         5 000306   000367 702000 5                  TSX2    BAD_FOLDER

     2063     9070    2              if NAME_KEY.NAME# ~= ' ' then

   9070  5 000307   040000 106500                    CMPC    fill='040'O
         5 000310   200310 200037                    ADSC9   NAME_KEY,,AUTO           cn=1,n=31
         5 000311   000002 000001 6                  ADSC9   2                        cn=0,n=1
         5 000312   000362 600000 5                  TZE     EXIT_NAME_SERVER

     2064     9071    3              do;

     2065     9072    3                 call concat(FOLD_STRING,substr(MAP_BOX,J,maximum(0,I-J+1)),'.',
              9072                          NAME_KEY.NAME#);

   9072  5 000313   200560 236100                    LDQ     I,,AUTO
         5 000314   200561 136100                    SBLQ    J,,AUTO
         5 000315   000001 036007                    ADLQ    1,DL
         5 000316   000000 116003                    CMPQ    0,DU
         5 000317   000321 605000 5                  TPL     s:9072+6
         5 000320   000000 236003                    LDQ     0,DU
         5 000321   000000 620006                    EAX0    0,QL
         5 000322   200561 235100                    LDA     J,,AUTO
         5 000323   040100 100545                    MLR     fill='040'O
         5 000324   200006 000010                    ADSC9   MAP_BOX,A,AUTO           cn=0,n=*X0
PL6.E3A0      #002=VWM$GET_MAILBOX File=VWM$MOVE.:VMB6TSI                        WED 08/20/97 15:44 Page:287
         5 000325   200563 000120                    ADSC9   FOLD_STRING,,AUTO        cn=0,n=80
         5 000326   000120 116007                    CMPQ    80,DL
         5 000327   000344 605000 5                  TPL     s:9073
         5 000330   777657 620006                    EAX0    -81,QL
         5 000331   777777 660003                    ERX0    -1,DU
         5 000332   040146 100400                    MLR     fill='040'O
         5 000333   000003 000001 6                  ADSC9   3                        cn=0,n=1
         5 000334   200563 000010                    ADSC9   FOLD_STRING,Q,AUTO       cn=0,n=*X0
         5 000335   000117 116007                    CMPQ    79,DL
         5 000336   000344 605000 5                  TPL     s:9073
         5 000337   777660 620006                    EAX0    -80,QL
         5 000340   777777 660003                    ERX0    -1,DU
         5 000341   040146 100500                    MLR     fill='040'O
         5 000342   200310 200037                    ADSC9   NAME_KEY,,AUTO           cn=1,n=31
         5 000343   200563 200010                    ADSC9   FOLD_STRING,Q,AUTO       cn=1,n=*X0

     2066     9073    3                 call VERIFY_FOLDER( FOLD_STRING, maximum(0,I-J+1)+9) altret (
              9073                          BAD_FOLDER);

   9073  5 000344   200560 236100                    LDQ     I,,AUTO
         5 000345   200561 136100                    SBLQ    J,,AUTO
         5 000346   000001 036007                    ADLQ    1,DL
         5 000347   000000 116003                    CMPQ    0,DU
         5 000350   000352 605000 5                  TPL     s:9073+6
         5 000351   000000 236003                    LDQ     0,DU
         5 000352   000011 036007                    ADLQ    9,DL
         5 000353   200701 756100                    STQ     OPEN_NAME+10,,AUTO
         5 000354   200701 630500                    EPPR0   OPEN_NAME+10,,AUTO
         5 000355   200662 450500                    STP0    @STRING#+1,,AUTO
         5 000356   200563 631500                    EPPR1   FOLD_STRING,,AUTO
         5 000357   200661 451500                    STP1    VM_BUFFER+42,,AUTO
         5 000360   001017 701000 5                  TSX1    VERIFY_FOLDER
         5 000361   000367 702000 5                  TSX2    BAD_FOLDER

     2067     9074    3                 end;

     2068     9075
PL6.E3A0      #002=VWM$GET_MAILBOX File=VWM$MOVE.:VMB6TSI                        WED 08/20/97 15:44 Page:288
     2069     9076    2              end;

     2070     9077
     2071     9078    1   EXIT_NAME_SERVER:
     2072     9079    1           MAILBOX = MAP_BOX;

   9079  5 000362   200003 470500       EXIT_NAME_S* LDP0    @MAILBOX,,AUTO
         5 000363   040100 100500                    MLR     fill='040'O
         5 000364   200006 000117                    ADSC9   MAP_BOX,,AUTO            cn=0,n=79
         5 000365   000000 000117                    ADSC9   0,,PR0                   cn=0,n=79

     2073     9080    1           return;

   9080  5 000366   000000 702200 xent               TSX2  ! X66_ARET

     2074     9081
     2075     9082
     2076     9083    1   BAD_FOLDER:
     2077     9084    1           altreturn;

   9084  5 000367   000000 702200 xent  BAD_FOLDER   TSX2  ! X66_AALT

     2078     9085
     2079     9086    1   BAD_OPEN:
     2080     9087    1           altreturn;

   9087  5 000370   000000 702200 xent  BAD_OPEN     TSX2  ! X66_AALT

     2081     9088
     2082     9089    1   LEAVE_AS_IS:
     2083     9090    1           return;

   9090  5 000371   000000 702200 xent  LEAVE_AS_IS  TSX2  ! X66_ARET

     2084     9091
     2085     9092
     2086     9093    1   VWM$FIX_MAILBOX: entry(MAILBOX, VM_IAM#, VM_ERR#) altret;
PL6.E3A0      #002=VWM$GET_MAILBOX File=VWM$MOVE.:VMB6TSI                        WED 08/20/97 15:44 Page:289

   9093  5 000372   000000 700200 xent  VWM$FIX_MAI* TSX0  ! X66_AUTO_3
         5 000373   000702 000003                    ZERO    450,3

     2087     9094
     2088     9095    1           MAP_BOX = MAILBOX;

   9095  5 000374   200003 470500                    LDP0    @MAILBOX,,AUTO
         5 000375   040100 100500                    MLR     fill='040'O
         5 000376   000000 000117                    ADSC9   0,,PR0                   cn=0,n=79
         5 000377   200006 000117                    ADSC9   MAP_BOX,,AUTO            cn=0,n=79

     2089     9096    1           if MAP_BOX = ' ' then

   9096  5 000400   040000 106500                    CMPC    fill='040'O
         5 000401   200006 000117                    ADSC9   MAP_BOX,,AUTO            cn=0,n=79
         5 000402   000002 000001 6                  ADSC9   2                        cn=0,n=1
         5 000403   000413 601000 5                  TNZ     s:9102

     2090     9097    2           do;

     2091     9098    2              call concat(MAP_BOX,'.',VM_IAM#);

   9098  5 000404   056000 236003                    LDQ     23552,DU
         5 000405   200006 756100                    STQ     MAP_BOX,,AUTO
         5 000406   200004 471500                    LDP1    @VM_IAM#,,AUTO
         5 000407   040100 100500                    MLR     fill='040'O
         5 000410   100000 000010                    ADSC9   0,,PR1                   cn=0,n=8
         5 000411   200006 200116                    ADSC9   MAP_BOX,,AUTO            cn=1,n=78

     2092     9099    2              end;

   9099  5 000412   000462 710000 5                  TRA     s:9112

     2093     9100    1           else
     2094     9101    2           do;

PL6.E3A0      #002=VWM$GET_MAILBOX File=VWM$MOVE.:VMB6TSI                        WED 08/20/97 15:44 Page:290
     2095     9102    2              if substr(MAP_BOX,,1) = '/' then

   9102  5 000413   200006 236100                    LDQ     MAP_BOX,,AUTO
         5 000414   777000 376003                    ANQ     -512,DU
         5 000415   057000 116003                    CMPQ    24064,DU
         5 000416   000462 601000 5                  TNZ     s:9112

     2096     9103    3              do;

     2097     9104    3                 call index(J,' ',MAP_BOX);

   9104  5 000417   000000 124500                    SCM     mask='000'O
         5 000420   200006 000117                    ADSC9   MAP_BOX,,AUTO            cn=0,n=79
         5 000421   000002 000001 6                  ADSC9   2                        cn=0,n=1
         5 000422   200561 000100                    ARG     J,,AUTO

     2098     9105    4                 call index(I,'.',MAP_BOX) whenreturn do;

   9105  5 000423   000000 124500                    SCM     mask='000'O
         5 000424   200006 000117                    ADSC9   MAP_BOX,,AUTO            cn=0,n=79
         5 000425   000003 000001 6                  ADSC9   3                        cn=0,n=1
         5 000426   200560 000100                    ARG     I,,AUTO
         5 000427   000442 606400 5                  TTN     s:9109

     2099     9106    4                    if substr(MAP_BOX,I+1,1) ~= ' ' then goto EXIT_NAME_SERVER;

   9106  5 000430   200560 235100                    LDA     I,,AUTO
         5 000431   040000 106505                    CMPC    fill='040'O
         5 000432   200006 200001                    ADSC9   MAP_BOX,A,AUTO           cn=1,n=1
         5 000433   000002 000001 6                  ADSC9   2                        cn=0,n=1
         5 000434   000362 601000 5                  TNZ     EXIT_NAME_SERVER

     2100     9107    4                    J = minimum(I,J);

   9107  5 000435   200561 236100                    LDQ     J,,AUTO
         5 000436   200560 116100                    CMPQ    I,,AUTO
         5 000437   000441 604400 5                  TMOZ    s:9107+4
PL6.E3A0      #002=VWM$GET_MAILBOX File=VWM$MOVE.:VMB6TSI                        WED 08/20/97 15:44 Page:291
         5 000440   200560 236100                    LDQ     I,,AUTO
         5 000441   200561 756100                    STQ     J,,AUTO

     2101     9108    4                    end;

     2102     9109    3                 call concat(substr(MAP_BOX,J),'.',VM_IAM#);

   9109  5 000442   200561 720100                    LXL0    J,,AUTO
         5 000443   777660 620010                    EAX0    -80,X0
         5 000444   777777 660003                    ERX0    -1,DU
         5 000445   200561 235100                    LDA     J,,AUTO
         5 000446   040145 100400                    MLR     fill='040'O
         5 000447   000003 000001 6                  ADSC9   3                        cn=0,n=1
         5 000450   200006 000010                    ADSC9   MAP_BOX,A,AUTO           cn=0,n=*X0
         5 000451   200561 236100                    LDQ     J,,AUTO
         5 000452   000116 116007                    CMPQ    78,DL
         5 000453   000462 605000 5                  TPL     s:9112
         5 000454   777661 620006                    EAX0    -79,QL
         5 000455   777777 660003                    ERX0    -1,DU
         5 000456   200004 470500                    LDP0    @VM_IAM#,,AUTO
         5 000457   040146 100500                    MLR     fill='040'O
         5 000460   000000 000010                    ADSC9   0,,PR0                   cn=0,n=8
         5 000461   200006 200010                    ADSC9   MAP_BOX,Q,AUTO           cn=1,n=*X0

     2103     9110    3                 end;

     2104     9111    2              end;

     2105     9112    1           goto EXIT_NAME_SERVER;

   9112  5 000462   000362 710000 5                  TRA     EXIT_NAME_SERVER

     2106     9113
     2107     9114        %eject;
PL6.E3A0      #002=VWM$GET_MAILBOX File=VWM$MOVE.:VMB6TSI                        WED 08/20/97 15:44 Page:292
     2108     9115    1   MAP_ACCT_TO_REGISTERED_NAME: proc altret;

   9115  5 000463   200660 741300       MAP_ACCT_TO* STX1  ! VM_BUFFER+41,,AUTO

     2109     9116
     2110     9117        /*I*    NAME:    MAP_ACCT_TO_REGISTERED_NAME
     2111     9118                PURPOSE: To turn the logon or filemanagement account
     2112     9119                         into a registered name.
     2113     9120                DESCRIPTION:   The :NAME file is accessed to determine
     2114     9121                            whether a registered name exists for this
     2115     9122                            account.  If it does not, then we look for
     2116     9123                            a mailbox in either the logon or file
     2117     9124                            management account to blame.
     2118     9125                                                                         */
     2119     9126
     2120     9127    2           FPT_READ = READ_NAME;

   9127  5 000464   000100 100400                    MLR     fill='000'O
         5 000465   000206 000070 4                  ADSC9   READ_NAME                cn=0,n=56
         5 000466   200272 000070                    ADSC9   FPT_READ,,AUTO           cn=0,n=56

     2121     9128    2           FPT_READ.V_ = vector(FPT_READ.V);

   9128  5 000467   000005 235000 6                  LDA     5
         5 000470   200700 452500                    STP2    OPEN_NAME+9,,AUTO
         5 000471   200700 236100                    LDQ     OPEN_NAME+9,,AUTO
         5 000472   000302 036003                    ADLQ    194,DU
         5 000473   200272 757100                    STAQ    FPT_READ,,AUTO

     2122     9129    2           FPT_READ.KEY_ = vector(NAME_KEY);

   9129  5 000474   000006 235000 6                  LDA     6
         5 000475   200700 452500                    STP2    OPEN_NAME+9,,AUTO
         5 000476   200700 236100                    LDQ     OPEN_NAME+9,,AUTO
         5 000477   000310 036003                    ADLQ    200,DU
         5 000500   200274 757100                    STAQ    FPT_READ+2,,AUTO

PL6.E3A0      #002=VWM$GET_MAILBOX File=VWM$MOVE.:VMB6TSI                        WED 08/20/97 15:44 Page:293
     2123     9130    2           FPT_READ.BUF_ = vector(NAME_BUFFER.NAME#);

   9130  5 000501   000007 235000 6                  LDA     7
         5 000502   200700 452500                    STP2    OPEN_NAME+9,,AUTO
         5 000503   200700 236100                    LDQ     OPEN_NAME+9,,AUTO
         5 000504   000010 036000 6                  ADLQ    8
         5 000505   200276 757100                    STAQ    FPT_READ+4,,AUTO

     2124     9131
     2125     9132    2           NAME_KEY.NAME# = B$JIT.ACCN;

   9132  5 000506   000000 470400 xsym               LDP0    B$JIT$
         5 000507   040100 100500                    MLR     fill='040'O
         5 000510   000001 000010                    ADSC9   1,,PR0                   cn=0,n=8
         5 000511   200310 200037                    ADSC9   NAME_KEY,,AUTO           cn=1,n=31

     2126     9133    2           NAME_KEY.L# = 20;

   9133  5 000512   024000 236003                    LDQ     10240,DU
         5 000513   200310 552140                    STBQ    NAME_KEY,'40'O,AUTO

     2127     9134
     2128     9135    2   LOOK_4_MAP:
     2129     9136    3           do I = 0 to 1 by 1;

   9136  5 000514   200560 450100       LOOK_4_MAP   STZ     I,,AUTO

     2130     9137
     2131     9138    3              if I = 1 then NAME_KEY.NAME# = B$JIT.FACCN;

   9138  5 000515   200560 235100                    LDA     I,,AUTO
         5 000516   000001 115007                    CMPA    1,DL
         5 000517   000524 601000 5                  TNZ     s:9139

   9138  5 000520   000000 470400 xsym               LDP0    B$JIT$
         5 000521   040100 100500                    MLR     fill='040'O
         5 000522   000006 000010                    ADSC9   6,,PR0                   cn=0,n=8
PL6.E3A0      #002=VWM$GET_MAILBOX File=VWM$MOVE.:VMB6TSI                        WED 08/20/97 15:44 Page:294
         5 000523   200310 200037                    ADSC9   NAME_KEY,,AUTO           cn=1,n=31

     2132     9139    4              call M$READ( FPT_READ ) whenreturn do;

   9139  5 000524   200272 630500                    EPPR0   FPT_READ,,AUTO
         5 000525   440000 713400                    CLIMB   alt,read
         5 000526   401400 401760                    pmme    nvectors=4
         5 000527   000531 702000 5                  TSX2    s:9142

     2133     9140    4                 goto GOT_A_NAME_MAP;

   9140  5 000530   000641 710000 5                  TRA     GOT_A_NAME_MAP

     2134     9141    4                 end;
     2135     9142    3              substr(NAME_KEY.NAME#,8) = B$JIT.UNAME;

   9142  5 000531   000000 470400 xsym               LDP0    B$JIT$
         5 000532   040100 100500                    MLR     fill='040'O
         5 000533   000003 000014                    ADSC9   3,,PR0                   cn=0,n=12
         5 000534   200312 200027                    ADSC9   NAME_KEY+2,,AUTO         cn=1,n=23

     2136     9143    4              call M$READ( FPT_READ ) whenreturn do;

   9143  5 000535   200272 630500                    EPPR0   FPT_READ,,AUTO
         5 000536   440000 713400                    CLIMB   alt,read
         5 000537   401400 401760                    pmme    nvectors=4
         5 000540   000542 702000 5                  TSX2    s:9147

     2137     9144    4                 goto GOT_A_NAME_MAP;

   9144  5 000541   000641 710000 5                  TRA     GOT_A_NAME_MAP

     2138     9145    4                 end;
     2139     9146
     2140     9147    3              end LOOK_4_MAP;

   9147  5 000542   200560 054100                    AOS     I,,AUTO
PL6.E3A0      #002=VWM$GET_MAILBOX File=VWM$MOVE.:VMB6TSI                        WED 08/20/97 15:44 Page:295
         5 000543   200560 235100                    LDA     I,,AUTO
         5 000544   000001 115007                    CMPA    1,DL
         5 000545   000515 604400 5                  TMOZ    s:9138

     2141     9148
     2142     9149        /**  Not registered, look for a mailbox in either the
     2143     9150         **  logon account or the file management account.
     2144     9151         **/
     2145     9152    2           FPT_OPEN = OPEN_GLOBAL;

   9152  5 000546   000100 100400                    MLR     fill='000'O
         5 000547   000072 000350 4                  ADSC9   OPEN_GLOBAL              cn=0,n=232
         5 000550   200200 000350                    ADSC9   FPT_OPEN,,AUTO           cn=0,n=232

     2146     9153    2           FPT_OPEN.ACCT_ = vector(USER_ACCT);

   9153  5 000551   000011 235000 6                  LDA     9
         5 000552   200700 452500                    STP2    OPEN_NAME+9,,AUTO
         5 000553   200700 236100                    LDQ     OPEN_NAME+9,,AUTO
         5 000554   000520 036003                    ADLQ    336,DU
         5 000555   200224 757100                    STAQ    FPT_OPEN+20,,AUTO

     2147     9154    2           FPT_OPEN.V_ = vector(FPT_OPEN.V);

   9154  5 000556   000012 235000 6                  LDA     10
         5 000557   200700 452500                    STP2    OPEN_NAME+9,,AUTO
         5 000560   200700 236100                    LDQ     OPEN_NAME+9,,AUTO
         5 000561   000244 036003                    ADLQ    164,DU
         5 000562   200200 757100                    STAQ    FPT_OPEN,,AUTO

     2148     9155    2           FPT_OPEN.V.DCB# = dcbnum(M$DUMMY);

   9155  5 000563   000000 236007 xsym               LDQ     M$DUMMY,DL
         5 000564   000000 620006                    EAX0    0,QL
         5 000565   200244 740100                    STX0    FPT_OPEN+36,,AUTO

     2149     9156
PL6.E3A0      #002=VWM$GET_MAILBOX File=VWM$MOVE.:VMB6TSI                        WED 08/20/97 15:44 Page:296
     2150     9157    2           USER_ACCT.ACCT# = B$JIT.ACCN;

   9157  5 000566   000000 470400 xsym               LDP0    B$JIT$
         5 000567   040100 100500                    MLR     fill='040'O
         5 000570   000001 000010                    ADSC9   1,,PR0                   cn=0,n=8
         5 000571   200520 000010                    ADSC9   USER_ACCT,,AUTO          cn=0,n=8

     2151     9158    3           call M$OPEN(FPT_OPEN) whenaltreturn do;

   9158  5 000572   200200 630500                    EPPR0   FPT_OPEN,,AUTO
         5 000573   450000 713400                    CLIMB   alt,open
         5 000574   410400 401760                    pmme    nvectors=18
         5 000575   000577 702000 5                  TSX2    s:9159
         5 000576   000611 710000 5                  TRA     s:9165

     2152     9159    3              USER_ACCT.ACCT# = B$JIT.FACCN;

   9159  5 000577   000000 470400 xsym               LDP0    B$JIT$
         5 000600   000006 237100                    LDAQ    6,,PR0
         5 000601   200520 757100                    STAQ    USER_ACCT,,AUTO

     2153     9160    4              call M$OPEN(FPT_OPEN) whenaltreturn do;

   9160  5 000602   200200 630500                    EPPR0   FPT_OPEN,,AUTO
         5 000603   450000 713400                    CLIMB   alt,open
         5 000604   410400 401760                    pmme    nvectors=18
         5 000605   000607 702000 5                  TSX2    s:9161
         5 000606   000611 710000 5                  TRA     s:9165

     2154     9161    4                 altreturn;

   9161  5 000607   200660 221300                    LDX1  ! VM_BUFFER+41,,AUTO
         5 000610   000000 702211                    TSX2  ! 0,X1

     2155     9162    4                 end;
     2156     9163    3              end;

PL6.E3A0      #002=VWM$GET_MAILBOX File=VWM$MOVE.:VMB6TSI                        WED 08/20/97 15:44 Page:297
     2157     9164
     2158     9165    2           FPT_CLOSE.V.DCB# = dcbnum(M$DUMMY);

   9165  5 000611   000000 236007 xsym               LDQ     M$DUMMY,DL
         5 000612   000000 620006                    EAX0    0,QL
         5 000613   200554 740100                    STX0    FPT_CLOSE+26,,AUTO

     2159     9166    3           call M$CLOSE(FPT_CLOSE) whenaltreturn do; end;

   9166  5 000614   200522 630500                    EPPR0   FPT_CLOSE,,AUTO
         5 000615   450001 713400                    CLIMB   alt,close
         5 000616   406000 401760                    pmme    nvectors=13
         5 000617   000621 702000 5                  TSX2    s:9168
         5 000620   000621 710000 5                  TRA     s:9168

     2160     9167
     2161     9168    2           NAME_BUFFER.L# = 8;

   9168  5 000621   010000 236003                    LDQ     4096,DU
         5 000622   200420 552140                    STBQ    NAME_BUFFER,'40'O,AUTO

     2162     9169    2           call concat(NAME_BUFFER.NAME#,'.',USER_ACCT.ACCT#);

   9169  5 000623   000056 236003                    LDQ     46,DU
         5 000624   200420 552120                    STBQ    NAME_BUFFER,'20'O,AUTO
         5 000625   040100 100500                    MLR     fill='040'O
         5 000626   200520 000010                    ADSC9   USER_ACCT,,AUTO          cn=0,n=8
         5 000627   200420 400376                    ADSC9   NAME_BUFFER,,AUTO        cn=2,n=254

     2163     9170    2           call index(I,' ',NAME_BUFFER.NAME#);

   9170  5 000630   000000 124500                    SCM     mask='000'O
         5 000631   200420 200377                    ADSC9   NAME_BUFFER,,AUTO        cn=1,n=255
         5 000632   000002 000001 6                  ADSC9   2                        cn=0,n=1
         5 000633   200560 000100                    ARG     I,,AUTO

     2164     9171    2           NAME_BUFFER.L# = I;
PL6.E3A0      #002=VWM$GET_MAILBOX File=VWM$MOVE.:VMB6TSI                        WED 08/20/97 15:44 Page:298

   9171  5 000634   200560 236100                    LDQ     I,,AUTO
         5 000635   000033 736000                    QLS     27
         5 000636   200420 552140                    STBQ    NAME_BUFFER,'40'O,AUTO

     2165     9172    2           return;

   9172  5 000637   200660 221300                    LDX1  ! VM_BUFFER+41,,AUTO
         5 000640   000001 702211                    TSX2  ! 1,X1

     2166     9173
     2167     9174    2   GOT_A_NAME_MAP:
     2168     9175    2           NAME_BUFFER.L# = dcbaddr(dcbnum(M$NAME))->F$DCB.ARS#;

   9175  5 000641   000000 236007 xsym  GOT_A_NAME_* LDQ     M$NAME,DL
         5 000642   000000 470400 6                  LDP0    0
         5 000643   000000 471500                    LDP1    0,,PR0
         5 000644   100000 473506                    LDP3    0,QL,PR1
         5 000645   300000 236100                    LDQ     0,,PR3
         5 000646   000033 736000                    QLS     27
         5 000647   200420 552140                    STBQ    NAME_BUFFER,'40'O,AUTO

     2169     9176    2           return;

   9176  5 000650   200660 221300                    LDX1  ! VM_BUFFER+41,,AUTO
         5 000651   000001 702211                    TSX2  ! 1,X1

     2170     9177
     2171     9178    2   end MAP_ACCT_TO_REGISTERED_NAME;
     2172     9179        %eject;
PL6.E3A0      #002=VWM$GET_MAILBOX File=VWM$MOVE.:VMB6TSI                        WED 08/20/97 15:44 Page:299
     2173     9180    1   LOCATE_REGISTERED_NAME: proc( NAME#, L# ) altret;

   9180  5 000652   200660 741300       LOCATE_REGI* STX1  ! VM_BUFFER+41,,AUTO

     2174     9181
     2175     9182        /*I*    NAME:       LOCATE_REGISTERED_NAME
     2176     9183                PURPOSE:    To determine if the specified name is a
     2177     9184                            known registered name.
     2178     9185                DESCRIPTION:   The :MAIL_CENTRAL.:MAIL file is accessed
     2179     9186                            to determine if a given name is registered
     2180     9187                            or not.  If it does not exist, an alternate
     2181     9188                            return is made.
     2182     9189                                                                         */
     2183     9190    2   dcl  NAME#    char(20);
     2184     9191    2   dcl  L#       sbin;
     2185     9192    2   dcl  I        sbin;
     2186     9193    2   dcl  J        sbin;
     2187     9194
     2188     9195
     2189     9196    2           FPT_READ = READ_GLOBAL;

   9196  5 000653   000100 100400                    MLR     fill='000'O
         5 000654   000224 000070 4                  ADSC9   READ_GLOBAL              cn=0,n=56
         5 000655   200272 000070                    ADSC9   FPT_READ,,AUTO           cn=0,n=56

     2190     9197    2           FPT_READ.V_ = vector(FPT_READ.V);

   9197  5 000656   000005 235000 6                  LDA     5
         5 000657   200700 452500                    STP2    OPEN_NAME+9,,AUTO
         5 000660   200700 236100                    LDQ     OPEN_NAME+9,,AUTO
         5 000661   000302 036003                    ADLQ    194,DU
         5 000662   200272 757100                    STAQ    FPT_READ,,AUTO

     2191     9198    2           FPT_READ.BUF_ = vector(VM_BUFFER);

   9198  5 000663   000013 235000 6                  LDA     11
         5 000664   200700 452500                    STP2    OPEN_NAME+9,,AUTO
PL6.E3A0      #002=VWM$GET_MAILBOX File=VWM$MOVE.:VMB6TSI                        WED 08/20/97 15:44 Page:300
         5 000665   200700 236100                    LDQ     OPEN_NAME+9,,AUTO
         5 000666   000607 036003                    ADLQ    391,DU
         5 000667   200276 757100                    STAQ    FPT_READ+4,,AUTO

     2192     9199    2           FPT_READ.KEY_ = vector(VM_USERKEY);

   9199  5 000670   000014 235000 6                  LDA     12
         5 000671   200700 452500                    STP2    OPEN_NAME+9,,AUTO
         5 000672   200700 236100                    LDQ     OPEN_NAME+9,,AUTO
         5 000673   000032 036003                    ADLQ    26,DU
         5 000674   200274 757100                    STAQ    FPT_READ+2,,AUTO

     2193     9200
     2194     9201    2           VM_USERKEY.TEXT = substr(NAME#,,L#);

   9201  5 000675   200662 470500                    LDP0    @L#,,AUTO
         5 000676   000000 720100                    LXL0    0,,PR0
         5 000677   200661 471500                    LDP1    @NAME#,,AUTO
         5 000700   040100 100540                    MLR     fill='040'O
         5 000701   100000 000010                    ADSC9   0,,PR1                   cn=0,n=*X0
         5 000702   200032 400310                    ADSC9   VM_USERKEY,,AUTO         cn=2,n=200

     2195     9202    2           call searchr(I,J,B$SR_NON_BLANK,VM_USERKEY.TEXT);

   9202  5 000703   000000 473400 xsym               LDP3    B$SR_NON_BLANK$
         5 000704   000000 165500                    TCTR
         5 000705   200032 400310                    ADSC9   VM_USERKEY,,AUTO         cn=2,n=200
         5 000706   300000 000100                    ARG     0,,PR3
         5 000707   200663 000100                    ARG     I,,AUTO
         5 000710   200663 235100                    LDA     I,,AUTO
         5 000711   000033 771000                    ARL     27
         5 000712   200664 755100                    STA     J,,AUTO
         5 000713   200663 551140                    STBA    I,'40'O,AUTO
         5 000714   000717 606400 5                  TTN     s:9203
         5 000715   000307 236007                    LDQ     199,DL
         5 000716   200663 156100                    SSQ     I,,AUTO

PL6.E3A0      #002=VWM$GET_MAILBOX File=VWM$MOVE.:VMB6TSI                        WED 08/20/97 15:44 Page:301
     2196     9203    2           VM_USERKEY.COUNT = I+2;

   9203  5 000717   200663 236100                    LDQ     I,,AUTO
         5 000720   000002 036007                    ADLQ    2,DL
         5 000721   000033 736000                    QLS     27
         5 000722   200032 552140                    STBQ    VM_USERKEY,'40'O,AUTO

     2197     9204    2           VM_USERKEY.TYPE = %VM_TYPE_USER;

   9204  5 000723   000120 236003                    LDQ     80,DU
         5 000724   200032 552120                    STBQ    VM_USERKEY,'20'O,AUTO

     2198     9205    2           VM_LISTKEY.TYPE = %VM_TYPE_LIST;

   9205  5 000725   000074 236003                    LDQ     60,DU
         5 000726   200115 552120                    STBQ    VM_LISTKEY,'20'O,AUTO

     2199     9206
     2200     9207    3           call M$READ(FPT_READ) whenreturn do;

   9207  5 000727   200272 630500                    EPPR0   FPT_READ,,AUTO
         5 000730   440000 713400                    CLIMB   alt,read
         5 000731   401400 401760                    pmme    nvectors=4
         5 000732   000756 702000 5                  TSX2    s:9215

     2201     9208    3              ADD$ = PINCRW(addr(VM_BUFFER),VM_BUFFER.UPPER(3));

   9208  5 000733   200612 220100                    LDX0    VM_BUFFER+3,,AUTO
         5 000734   200607 630510                    EPPR0   VM_BUFFER,X0,AUTO
         5 000735   200562 450500                    STP0    ADD$,,AUTO

     2202     9209    3              if VM_RADDRESS.SITENAME~=VM_IAM# and VM_RADDRESS.SITENAME~=' '

   9209  5 000736   200004 471500                    LDP1    @VM_IAM#,,AUTO
         5 000737   040100 106500                    CMPC    fill='040'O
         5 000740   000017 600010                    ADSC9   15,,PR0                  cn=3,n=8
         5 000741   100000 000010                    ADSC9   0,,PR1                   cn=0,n=8
PL6.E3A0      #002=VWM$GET_MAILBOX File=VWM$MOVE.:VMB6TSI                        WED 08/20/97 15:44 Page:302
         5 000742   000751 600000 5                  TZE     s:9211
         5 000743   040000 106500                    CMPC    fill='040'O
         5 000744   000017 600010                    ADSC9   15,,PR0                  cn=3,n=8
         5 000745   000002 000001 6                  ADSC9   2                        cn=0,n=1
         5 000746   000751 600000 5                  TZE     s:9211

     2203     9210    3              then altreturn;

   9210  5 000747   200660 221300                    LDX1  ! VM_BUFFER+41,,AUTO
         5 000750   000000 702211                    TSX2  ! 0,X1

     2204     9211    3              NAME_KEY.NAME# = VM_RADDRESS.ACCT;

   9211  5 000751   040100 100500                    MLR     fill='040'O
         5 000752   000021 600010                    ADSC9   17,,PR0                  cn=3,n=8
         5 000753   200310 200037                    ADSC9   NAME_KEY,,AUTO           cn=1,n=31

     2205     9212    3              return;

   9212  5 000754   200660 221300                    LDX1  ! VM_BUFFER+41,,AUTO
         5 000755   000001 702211                    TSX2  ! 1,X1

     2206     9213    3              end;
     2207     9214
     2208     9215    2           NAME_KEY.NAME# = ' ';

   9215  5 000756   040100 100400                    MLR     fill='040'O
         5 000757   000002 000001 6                  ADSC9   2                        cn=0,n=1
         5 000760   200310 200037                    ADSC9   NAME_KEY,,AUTO           cn=1,n=31

     2209     9216    2           VM_LISTKEY.TEXT = VM_USERKEY.TEXT;

   9216  5 000761   040100 100500                    MLR     fill='040'O
         5 000762   200032 400310                    ADSC9   VM_USERKEY,,AUTO         cn=2,n=200
         5 000763   200115 400310                    ADSC9   VM_LISTKEY,,AUTO         cn=2,n=200

     2210     9217    2           VM_LISTKEY.COUNT = I+1;
PL6.E3A0      #002=VWM$GET_MAILBOX File=VWM$MOVE.:VMB6TSI                        WED 08/20/97 15:44 Page:303

   9217  5 000764   200663 236100                    LDQ     I,,AUTO
         5 000765   000001 036007                    ADLQ    1,DL
         5 000766   000033 736000                    QLS     27
         5 000767   200115 552140                    STBQ    VM_LISTKEY,'40'O,AUTO

     2211     9218    3           call M$READ(FPT_READ) whenaltreturn do;

   9218  5 000770   200272 630500                    EPPR0   FPT_READ,,AUTO
         5 000771   440000 713400                    CLIMB   alt,read
         5 000772   401400 401760                    pmme    nvectors=4
         5 000773   000775 702000 5                  TSX2    s:9219
         5 000774   000777 710000 5                  TRA     s:9221

     2212     9219    3              altreturn;

   9219  5 000775   200660 221300                    LDX1  ! VM_BUFFER+41,,AUTO
         5 000776   000000 702211                    TSX2  ! 0,X1

     2213     9220    3              end;
     2214     9221    2           ADD$ = PINCRW(addr(VM_BUFFER),VM_BUFFER.UPPER(3)+2);

   9221  5 000777   200612 220100                    LDX0    VM_BUFFER+3,,AUTO
         5 001000   200611 630510                    EPPR0   VM_BUFFER+2,X0,AUTO
         5 001001   200562 450500                    STP0    ADD$,,AUTO

     2215     9222    2           if VM_RADDRESS.SITENAME~=VM_IAM# and VM_RADDRESS.SITENAME~=' '

   9222  5 001002   200004 471500                    LDP1    @VM_IAM#,,AUTO
         5 001003   040100 106500                    CMPC    fill='040'O
         5 001004   000017 600010                    ADSC9   15,,PR0                  cn=3,n=8
         5 001005   100000 000010                    ADSC9   0,,PR1                   cn=0,n=8
         5 001006   001015 600000 5                  TZE     s:9225
         5 001007   040000 106500                    CMPC    fill='040'O
         5 001010   000017 600010                    ADSC9   15,,PR0                  cn=3,n=8
         5 001011   000002 000001 6                  ADSC9   2                        cn=0,n=1
         5 001012   001015 600000 5                  TZE     s:9225
PL6.E3A0      #002=VWM$GET_MAILBOX File=VWM$MOVE.:VMB6TSI                        WED 08/20/97 15:44 Page:304

     2216     9223    2           then altreturn;

   9223  5 001013   200660 221300                    LDX1  ! VM_BUFFER+41,,AUTO
         5 001014   000000 702211                    TSX2  ! 0,X1

     2217     9224
     2218     9225    2   end LOCATE_REGISTERED_NAME;

   9225  5 001015   200660 221300                    LDX1  ! VM_BUFFER+41,,AUTO
         5 001016   000001 702211                    TSX2  ! 1,X1

     2219     9226        %eject;
PL6.E3A0      #002=VWM$GET_MAILBOX File=VWM$MOVE.:VMB6TSI                        WED 08/20/97 15:44 Page:305
     2220     9227    1   VERIFY_FOLDER: proc(STRING#, L#) altret;

   9227  5 001017   200660 741300       VERIFY_FOLD* STX1  ! VM_BUFFER+41,,AUTO

     2221     9228
     2222     9229        /*I*    NAME:       VERIFY_FOLDER
     2223     9230                PURPOSE:    To determine if the specified folder exists.
     2224     9231
     2225     9232                DESCRIPTION:   The argument contains a folder specification
     2226     9233                            of the form: :MAIL_?.acct or /?.acct.  This
     2227     9234                            routine maps this argument into the corresponding
     2228     9235                            CP-6 filename and tries to open the folder.
     2229     9236
     2230     9237                            An alternate return is taken if the open is
     2231     9238                            unsuccessfull.
     2232     9239                                                                            */
     2233     9240
     2234     9241    2   dcl  STRING#        char(L#);
     2235     9242    2   dcl  L#             sbin;
     2236     9243    2   dcl  I              sbin;
     2237     9244    2   dcl  DOT            sbin;
     2238     9245
     2239     9246        %VLP_ACCT( FPTN     =  OPEN_ACCT,
     2240     9247                   STCLASS  =  "");
     2241     9260
     2242     9261        %VLP_NAME( FPTN     =  OPEN_NAME,
     2243     9262                   STCLASS  =  "",
     2244     9263                   LEN      =  31);
     2245     9290
     2246     9291    2           FPT_OPEN =  OPEN_GLOBAL;

   9291  5 001020   000100 100400                    MLR     fill='000'O
         5 001021   000072 000350 4                  ADSC9   OPEN_GLOBAL              cn=0,n=232
         5 001022   200200 000350                    ADSC9   FPT_OPEN,,AUTO           cn=0,n=232

     2247     9292    2           FPT_OPEN.V_ = vector(FPT_OPEN.V);

PL6.E3A0      #002=VWM$GET_MAILBOX File=VWM$MOVE.:VMB6TSI                        WED 08/20/97 15:44 Page:306
   9292  5 001023   000012 235000 6                  LDA     10
         5 001024   200700 452500                    STP2    OPEN_NAME+9,,AUTO
         5 001025   200700 236100                    LDQ     OPEN_NAME+9,,AUTO
         5 001026   000244 036003                    ADLQ    164,DU
         5 001027   200200 757100                    STAQ    FPT_OPEN,,AUTO

     2248     9293    2           FPT_OPEN.NAME_ = vector(OPEN_NAME);

   9293  5 001030   000006 235000 6                  LDA     6
         5 001031   200700 452500                    STP2    OPEN_NAME+9,,AUTO
         5 001032   200700 236100                    LDQ     OPEN_NAME+9,,AUTO
         5 001033   000667 036003                    ADLQ    439,DU
         5 001034   200206 757100                    STAQ    FPT_OPEN+6,,AUTO

     2249     9294    2           FPT_OPEN.ACCT_ = vector(OPEN_ACCT);

   9294  5 001035   000011 235000 6                  LDA     9
         5 001036   200700 452500                    STP2    OPEN_NAME+9,,AUTO
         5 001037   200700 236100                    LDQ     OPEN_NAME+9,,AUTO
         5 001040   000665 036003                    ADLQ    437,DU
         5 001041   200224 757100                    STAQ    FPT_OPEN+20,,AUTO

     2250     9295    2           FPT_OPEN.V.DCB# = dcbnum(M$DUMMY);

   9295  5 001042   000000 236007 xsym               LDQ     M$DUMMY,DL
         5 001043   000000 620006                    EAX0    0,QL
         5 001044   200244 740100                    STX0    FPT_OPEN+36,,AUTO

     2251     9296
     2252     9297    2           call index(DOT,'.',STRING#);

   9297  5 001045   200662 470500                    LDP0    @L#,,AUTO
         5 001046   000000 722100                    LXL2    0,,PR0
         5 001047   200661 471500                    LDP1    @STRING#,,AUTO
         5 001050   000000 124540                    SCM     mask='000'O
         5 001051   100000 000012                    ADSC9   0,,PR1                   cn=0,n=*X2
         5 001052   000003 000001 6                  ADSC9   3                        cn=0,n=1
PL6.E3A0      #002=VWM$GET_MAILBOX File=VWM$MOVE.:VMB6TSI                        WED 08/20/97 15:44 Page:307
         5 001053   200664 000100                    ARG     DOT,,AUTO

     2253     9298    2           if substr(STRING#,,1) = '/' then

   9298  5 001054   040000 106500                    CMPC    fill='040'O
         5 001055   100000 000001                    ADSC9   0,,PR1                   cn=0,n=1
         5 001056   000004 000001 6                  ADSC9   4                        cn=0,n=1
         5 001057   001101 601000 5                  TNZ     s:9312

     2254     9299    3           do;

     2255     9300    3              OPEN_NAME.NAME# = ':MAIL_CENTRAL';

   9300  5 001060   040100 100400                    MLR     fill='040'O
         5 001061   000302 000015 4                  ADSC9   CLOSE_CONSTANT+32        cn=0,n=13
         5 001062   200667 200037                    ADSC9   OPEN_NAME,,AUTO          cn=1,n=31

     2256     9301    3              if DOT > 1 then

   9301  5 001063   200664 236100                    LDQ     DOT,,AUTO
         5 001064   000001 116007                    CMPQ    1,DL
         5 001065   001076 604400 5                  TMOZ    s:9306

     2257     9302    4              do;

     2258     9303    4                 substr(OPEN_NAME.NAME#,6) = substr(STRING#,1,DOT-1);

   9303  5 001066   000000 722100                    LXL2    0,,PR0
         5 001067   777777 623006                    EAX3    -1,QL
         5 001070   040100 100540                    MLR     fill='040'O
         5 001071   100000 200013                    ADSC9   0,,PR1                   cn=1,n=*X3
         5 001072   200670 600031                    ADSC9   OPEN_NAME+1,,AUTO        cn=3,n=25

     2259     9304    4                 I = DOT + 5;

   9304  5 001073   000005 036007                    ADLQ    5,DL
         5 001074   200663 756100                    STQ     I,,AUTO
PL6.E3A0      #002=VWM$GET_MAILBOX File=VWM$MOVE.:VMB6TSI                        WED 08/20/97 15:44 Page:308

     2260     9305    4                 end;

   9305  5 001075   001125 710000 5                  TRA     s:9321

     2261     9306    3              else I = %lengthc(':MAIL_CENTRAL');

   9306  5 001076   000015 235007                    LDA     13,DL
         5 001077   200663 755100                    STA     I,,AUTO

     2262     9307    3              end;

   9307  5 001100   001125 710000 5                  TRA     s:9321

     2263     9308
     2264     9309    2           else
     2265     9310
     2266     9311    3           do;                             /***  A fid? ***/

     2267     9312    3              I = DOT;

   9312  5 001101   200664 236100                    LDQ     DOT,,AUTO
         5 001102   200663 756100                    STQ     I,,AUTO

     2268     9313    3              if substr(STRING#,,6)~= ':MAIL_' then

   9313  5 001103   040000 106500                    CMPC    fill='040'O
         5 001104   100000 000006                    ADSC9   0,,PR1                   cn=0,n=6
         5 001105   000300 000006 4                  ADSC9   CLOSE_CONSTANT+30        cn=0,n=6
         5 001106   001121 600000 5                  TZE     s:9318

     2269     9314    4              do;

     2270     9315    4                 call concat(OPEN_NAME.NAME#,':MAIL_',substr(STRING#,,DOT-1));

   9315  5 001107   040100 100400                    MLR     fill='040'O
         5 001110   000300 000006 4                  ADSC9   CLOSE_CONSTANT+30        cn=0,n=6
PL6.E3A0      #002=VWM$GET_MAILBOX File=VWM$MOVE.:VMB6TSI                        WED 08/20/97 15:44 Page:309
         5 001111   200667 200006                    ADSC9   OPEN_NAME,,AUTO          cn=1,n=6
         5 001112   777777 622006                    EAX2    -1,QL
         5 001113   040100 100540                    MLR     fill='040'O
         5 001114   100000 000012                    ADSC9   0,,PR1                   cn=0,n=*X2
         5 001115   200670 600031                    ADSC9   OPEN_NAME+1,,AUTO        cn=3,n=25

     2271     9316    4                 I = I + 5;

   9316  5 001116   000005 236007                    LDQ     5,DL
         5 001117   200663 056100                    ASQ     I,,AUTO

     2272     9317    4                 end;

   9317  5 001120   001125 710000 5                  TRA     s:9321

     2273     9318    3              else OPEN_NAME.NAME# = substr(STRING#,,I);

   9318  5 001121   000000 623006                    EAX3    0,QL
         5 001122   040100 100540                    MLR     fill='040'O
         5 001123   100000 000013                    ADSC9   0,,PR1                   cn=0,n=*X3
         5 001124   200667 200037                    ADSC9   OPEN_NAME,,AUTO          cn=1,n=31

     2274     9319    3              end;

     2275     9320
     2276     9321    2           OPEN_NAME.L# = I;

   9321  5 001125   200663 236100                    LDQ     I,,AUTO
         5 001126   000033 736000                    QLS     27
         5 001127   200667 552140                    STBQ    OPEN_NAME,'40'O,AUTO

     2277     9322    2           if (DOT+1) >= L#

   9322  5 001130   200662 470500                    LDP0    @L#,,AUTO
         5 001131   200664 236100                    LDQ     DOT,,AUTO
         5 001132   000001 036007                    ADLQ    1,DL
         5 001133   000000 116100                    CMPQ    0,,PR0
PL6.E3A0      #002=VWM$GET_MAILBOX File=VWM$MOVE.:VMB6TSI                        WED 08/20/97 15:44 Page:310
         5 001134   001142 604000 5                  TMI     s:9324

     2278     9323    2           then OPEN_ACCT.ACCT# = B$JIT.ACCN;

   9323  5 001135   000000 471400 xsym               LDP1    B$JIT$
         5 001136   040100 100500                    MLR     fill='040'O
         5 001137   100001 000010                    ADSC9   1,,PR1                   cn=0,n=8
         5 001140   200665 000010                    ADSC9   OPEN_ACCT,,AUTO          cn=0,n=8
         5 001141   001154 710000 5                  TRA     s:9325

     2279     9324    2           else OPEN_ACCT.ACCT# = substr(STRING#,DOT+1);

   9324  5 001142   000000 720100                    LXL0    0,,PR0
         5 001143   000000 636010                    EAQ     0,X0
         5 001144   000022 732000                    QRS     18
         5 001145   200664 136100                    SBLQ    DOT,,AUTO
         5 001146   777777 621006                    EAX1    -1,QL
         5 001147   200661 471500                    LDP1    @STRING#,,AUTO
         5 001150   200664 235100                    LDA     DOT,,AUTO
         5 001151   040100 100545                    MLR     fill='040'O
         5 001152   100000 200011                    ADSC9   0,A,PR1                  cn=1,n=*X1
         5 001153   200665 000010                    ADSC9   OPEN_ACCT,,AUTO          cn=0,n=8

     2280     9325    2           if OPEN_ACCT.ACCT# = ' ' then OPEN_ACCT.ACCT# = B$JIT.ACCN;

   9325  5 001154   040000 106500                    CMPC    fill='040'O
         5 001155   200665 000010                    ADSC9   OPEN_ACCT,,AUTO          cn=0,n=8
         5 001156   000002 000001 6                  ADSC9   2                        cn=0,n=1
         5 001157   001164 601000 5                  TNZ     s:9327

   9325  5 001160   000000 471400 xsym               LDP1    B$JIT$
         5 001161   040100 100500                    MLR     fill='040'O
         5 001162   100001 000010                    ADSC9   1,,PR1                   cn=0,n=8
         5 001163   200665 000010                    ADSC9   OPEN_ACCT,,AUTO          cn=0,n=8

     2281     9326
     2282     9327    3           call M$OPEN( FPT_OPEN ) whenreturn do; goto OKAY; end;
PL6.E3A0      #002=VWM$GET_MAILBOX File=VWM$MOVE.:VMB6TSI                        WED 08/20/97 15:44 Page:311

   9327  5 001164   200200 630500                    EPPR0   FPT_OPEN,,AUTO
         5 001165   450000 713400                    CLIMB   alt,open
         5 001166   410400 401760                    pmme    nvectors=18
         5 001167   001171 702000 5                  TSX2    s:9328

   9327  5 001170   001210 710000 5                  TRA     OKAY

     2283     9328    2           if OPEN_ACCT.ACCT# = B$JIT.ACCN then

   9328  5 001171   000000 470400 xsym               LDP0    B$JIT$
         5 001172   040100 106500                    CMPC    fill='040'O
         5 001173   200665 000010                    ADSC9   OPEN_ACCT,,AUTO          cn=0,n=8
         5 001174   000001 000010                    ADSC9   1,,PR0                   cn=0,n=8
         5 001175   001206 601000 5                  TNZ     s:9334

     2284     9329    3           do;

     2285     9330    3              OPEN_ACCT.ACCT# = B$JIT.FACCN;

   9330  5 001176   000006 237100                    LDAQ    6,,PR0
         5 001177   200665 755100                    STA     OPEN_ACCT,,AUTO
         5 001200   200666 756100                    STQ     OPEN_ACCT+1,,AUTO

     2286     9331    4              call M$OPEN( FPT_OPEN ) whenreturn do; goto OKAY; end;

   9331  5 001201   200200 630500                    EPPR0   FPT_OPEN,,AUTO
         5 001202   450000 713400                    CLIMB   alt,open
         5 001203   410400 401760                    pmme    nvectors=18
         5 001204   001206 702000 5                  TSX2    s:9334

   9331  5 001205   001210 710000 5                  TRA     OKAY

     2287     9332    3              end;

     2288     9333
     2289     9334    2           altreturn;
PL6.E3A0      #002=VWM$GET_MAILBOX File=VWM$MOVE.:VMB6TSI                        WED 08/20/97 15:44 Page:312

   9334  5 001206   200660 221300                    LDX1  ! VM_BUFFER+41,,AUTO
         5 001207   000000 702211                    TSX2  ! 0,X1

     2290     9335
     2291     9336    2   OKAY:
     2292     9337    2           return;

   9337  5 001210   200660 221300       OKAY         LDX1  ! VM_BUFFER+41,,AUTO
         5 001211   000001 702211                    TSX2  ! 1,X1

OPEN_NAME
 Sect OctLoc
   4     000   000025 777640   000044 006000   000000 177640   000000 006014    .....$..........
   4     004   000000 177640   000000 006014   000007 777640   000174 006000    .............|..
   4     010   000000 177640   000000 006014   000000 177640   000000 006014    ................
   4     024*  000001 777640   000204 006000   000000 177640   000000 006014    ................
   4     030   000000 177640   000000 006014   000000 177640   000000 006014    ................
   4     044*  000000 400052   000000 002001   252525 000000   000040 252520    ...*......... ..
   4     050   000040 040040   000000 000000   000000 777777   000000 000000    .   ............
   4     054   000000 000000   000000 000000   000000 000000   000000 000000    ................
   4     060   251000 622000   000000 000000   000000 000000   111250 000000    ............I...
   4     064   040040 040040   000000 000000   000000 000000   000000 000000        ............
   4     070   000000 000000   ****** ******                                    ........

OPEN_GLOBAL
 Sect OctLoc
   4     072   000025 777640   000136 006000   000000 177640   000000 006014    .....^..........
   4     076   000000 177640   000000 006014   000007 777640   000164 006000    .............t..
   4     102   000000 177640   000000 006014   000000 177640   000000 006014    ................
   4     116*  000001 777640   000204 006000   000000 177640   000000 006014    ................
   4     122   000000 177640   000000 006014   000000 177640   000000 006014    ................
   4     136*  000000 400052   000000 002001   252525 000000   000040 252520    ...*......... ..
   4     142   000040 040040   000000 000000   000000 777777   000000 000000    .   ............
   4     146   000000 000000   000000 000000   000000 000000   000000 000000    ................
   4     152   251000 622000   000000 000000   000000 000000   111250 000000    ............I...
   4     156   040040 040040   000000 000000   000000 000000   000000 000000        ............
PL6.E3A0      #002=VWM$GET_MAILBOX File=VWM$MOVE.:VMB6TSI                        WED 08/20/97 15:44 Page:313
   4     162   000000 000000   ****** ******                                    ........

VM_GLOBAL_NAME
 Sect OctLoc
   4     164   015072 115101   111114 137103   105116 124122   101114 040040    .:MAIL_CENTRAL
   4     170   040040 040040   040040 040040   040040 040040   040040 040040

VM_NAME_MAP_NAME
 Sect OctLoc
   4     174   005072 116101   115105 040040   040040 040040   040040 040040    .:NAME
   4     200   040040 040040   040040 040040   040040 040040   040040 040040

VM_MAIL_ACCT
 Sect OctLoc
   4     204   072115 101111   114040 040040                                    :MAIL

READ_NAME
 Sect OctLoc
   4     206   000005 777640   000216 006000   000000 177640   000000 006014    ................
   4     212   000000 177640   000000 006014   000000 177640   000000 006014    ................
   4     216   000000 600000   000000 000000   000000 000000   000000 000000    ................
   4     222   000000 000000   000000 000000                                    ........

READ_GLOBAL
 Sect OctLoc
   4     224   000005 777640   000234 006000   000000 177640   000000 006014    ................
   4     230   000000 177640   000000 006014   000000 177640   000000 006014    ................
   4     234   000000 600000   000000 000000   000000 000000   000000 000000    ................
   4     240   000000 000000   000000 000000                                    ........

CLOSE_CONSTANT
 Sect OctLoc
   4     242   000003 777640   000274 006000   000000 177640   000000 006014    ................
   4     246   000000 177640   000000 006014   000000 177640   000000 006014    ................
   4     272*  000000 177640   000000 006014   000000 000000   000000 000040    ...............
   4     276   000220 000000   000000 000000                                    ........

PL6.E3A0      #002=VWM$GET_MAILBOX File=VWM$MOVE.:VMB6TSI                        WED 08/20/97 15:44 Page:314
(unnamed)
 Sect OctLoc
   4     300   072115 101111   114137 040040   072115 101111   114137 103105    :MAIL_  :MAIL_CE
   4     304   116124 122101   114040 040040                                    NTRAL

(unnamed)
 Sect OctLoc
   6     000   000000 006003   000003 777640   040040 040040   056040 040040    ........    .
   6     004   057040 040040   000005 777640   000007 777640   000077 577640    /   .........?..
   6     010   000420 200000   000001 777640   000025 777640   000047 777640    .............'..
   6     014   000062 377640                                                    .2..
     2293     9338
     2294     9339    2   end VERIFY_FOLDER;
     2295     9340
     2296     9341    1   end VWM$GET_MAILBOX;

PL6.E3A0      #002=VWM$GET_MAILBOX File=VWM$MOVE.:VMB6TSI                        WED 08/20/97 15:44 Page:315
--  Include file information  --

   CP_6_C.:LIB_E05  is referenced.
   CP_6.:LIB_E05  cannot be made into a system file and is referenced.
   CP_6_SUBS.:LIB_E05  is referenced.
   B$JIT_C.:LIB_E05  is referenced.
   B$JIT.:LIB_E05  cannot be made into a system file and is referenced.
   B$TABLES_C.:LIB_E05  cannot be made into a system file and is referenced.
   VM_MACRO_C.:VMB6TOU  is referenced.
      No diagnostics issued in procedure VWM$GET_MAILBOX.
PL6.E3A0      #002=VWM$GET_MAILBOX File=VWM$MOVE.:VMB6TSI                        WED 08/20/97 15:44 Page:316

 **** Variables and constants ****

  ****  Section 004 RoData VWM$GET_MAILBOX

  ****  Scalars and arrays  ****
OctLoc.c.b A Datatyp(siz) R M Lvl/name                 OctLoc.c.b A Datatyp(siz) R M Lvl/name

   242-0-0/d STRC(1080)  r     1 CLOSE_CONSTANT            72-0-0/d STRC(2088)  r     1 OPEN_GLOBAL
     0-0-0/d STRC(2088)  r     1 OPEN_NAME                224-0-0/d STRC(504)   r     1 READ_GLOBAL
   206-0-0/d STRC(504)   r     1 READ_NAME                164-0-0/c STRC(288)   r     1 VM_GLOBAL_NAME
   204-0-0/c STRC(72)    r     1 VM_MAIL_ACCT             174-0-0/c STRC(288)   r     1 VM_NAME_MAP_NAME

  ****  Auto variables  ****

  ****  Scalars and arrays  ****
OctLoc.c.b A Datatyp(siz) R M Lvl/name                 OctLoc.c.b A Datatyp(siz) R M Lvl/name

   662-0-0/w PTR         r     1 @L#                      662-0-0/w PTR         r     1 @L#
     3-0-0/w PTR         r     1 @MAILBOX                 661-0-0/w PTR         r     1 @NAME#
   661-0-0/w PTR         r     1 @STRING#                   5-0-0/w PTR         r     1 @VM_ERR#
     4-0-0/w PTR         r     1 @VM_IAM#                 562-0-0/w PTR         r     1 ADD$
   664-0-0/w SBIN        r     1 DOT                      563-0-0/c CHAR(80)    r     1 FOLD_STRING
   522-0-0/d STRC(1080)  r     1 FPT_CLOSE                200-0-0/d STRC(2088)  r     1 FPT_OPEN
   272-0-0/d STRC(504)   r     1 FPT_READ                 320-0-0/c STRC(2304)        1 GLOBAL_KEY
   560-0-0/w SBIN        r     1 I                        663-0-0/w SBIN        r     1 I
   663-0-0/w SBIN        r     1 I                        561-0-0/w SBIN        r     1 J
   664-0-0/w SBIN        r     1 J                         *0-0-0/w SBIN        r     1 L#
    *0-0-0/w SBIN        r     1 L#                        *0-0-0/c CHAR(79)    r     1 MAILBOX
     6-0-0/c CHAR(79)    r     1 MAP_BOX                   *0-0-0/c CHAR(20)    r     1 NAME#
   420-0-0/c STRC(2304)  r     1 NAME_BUFFER              310-0-0/c STRC(288)   r     1 NAME_KEY
   665-0-0/c STRC(72)    r     1 OPEN_ACCT                667-0-0/c STRC(288)   r     1 OPEN_NAME
    *0-0-0/c ACHR        r     1 STRING#                  520-0-0/c STRC(72)    r     1 USER_ACCT
   607-0-0/w STRC        r     1 VM_BUFFER(0:39)
    *0-0-0/w SBIN        r     1 VM_ERR#                   *0-0-0/c CHAR(8)     r     1 VM_IAM#
   115-0-0/c STRC(1818)  r     1 VM_LISTKEY                32-0-0/c STRC(1818)  r     1 VM_USERKEY

  ****  SYMREF variables  ****
PL6.E3A0      #002=VWM$GET_MAILBOX File=VWM$MOVE.:VMB6TSI                        WED 08/20/97 15:44 Page:317

  ****  Scalars and arrays  ****
OctLoc.c.b A Datatyp(siz) R M Lvl/name                 OctLoc.c.b A Datatyp(siz) R M Lvl/name

     0-0-0/w PTR         r     1 B$JIT$                     0-0-0/w PTR         r     1 B$SR_NON_BLANK$

  ****  BASED and DCB variables  ****

  ****  Scalars and arrays  ****
OctLoc.c.b A Datatyp(siz) R M Lvl/name                 OctLoc.c.b A Datatyp(siz) R M Lvl/name

     0-0-0/d STRC(8856)  r     1 B$JIT                      0-0-0/d STRC(4608)  r     1 B$SR_NON_BLANK
     0-0-0/d ASTR(3528)  r     1 F$DCB                      0-0-0N  NULL        r     1 M$DUMMY
     0-0-0N  NULL        r     1 M$GLOBAL                   0-0-0N  NULL        r     1 M$NAME
     0-0-0N  NULL        r     1 M$UC                       0-0-0/w STRC(711)   r     1 VM_RADDRESS


   Procedure VWM$GET_MAILBOX requires 650 words for executable code.
   Procedure VWM$GET_MAILBOX requires 450 words of local(AUTO) storage.

    No errors detected in file VWM$MOVE.:VMB6TSI    .
PL6.E3A0      #002=VWM$GET_MAILBOX File=VWM$MOVE.:VMB6TSI                        WED 08/20/97 15:44 Page:318
          *** CROSS REFERENCE LISTING ***
**     DENOTES     IDENTIFIER DEFINITION
<<                 IDENTIFIER'S VALUE SET
>>                 IDENTIFIER'S VALUE USED
<>                 IDENTIFIER SET AND/OR USED
--                 IDENTIFIER REFERENCED
PL6.E3A0      #002=VWM$GET_MAILBOX File=VWM$MOVE.:VMB6TSI                        WED 08/20/97 15:44 Page:319
          MINI XREF LISTING

ADD$
      9003**DCL      1322--IMP-PTR  9208<<ASSIGN   9209>>IF       9209>>IF       9211>>ASSIGN   9221<<ASSIGN
      9222>>IF       9222>>IF
B$JIT.ACCN
      1820**DCL      9132>>ASSIGN   9157>>ASSIGN   9323>>ASSIGN   9325>>ASSIGN   9328>>IF
B$JIT.CPFLAGS1.SLEAZE
      1914**DCL      1914--REDEF
B$JIT.ERR.MID
      1821**DCL      1821--REDEF
B$JIT.FACCN
      1820**DCL      9138>>ASSIGN   9159>>ASSIGN   9330>>ASSIGN
B$JIT.JRESPEAK
      1982**DCL      1983--REDEF
B$JIT.ORIGINATOR_PORT.FROM_CR
      2091**DCL      2091--REDEF    2092--REDEF
B$JIT.PNR
      1995**DCL      1995--REDEF
B$JIT.TSLINE
      2089**DCL      2090--REDEF
B$JIT.UNAME
      1820**DCL      9142>>ASSIGN
B$JIT$
      2096**DCL      1815--IMP-PTR  9132>>ASSIGN   9138>>ASSIGN   9142>>ASSIGN   9157>>ASSIGN   9159>>ASSIGN
      9323>>ASSIGN   9325>>ASSIGN   9328>>IF       9330>>ASSIGN
B$SR_NON_BLANK
      1490**DCL      9066>>CALLBLT  9202>>CALLBLT
B$SR_NON_BLANK$
      1489**DCL      1490--IMP-PTR  9066>>CALLBLT  9202>>CALLBLT
BAD_FOLDER
      9084**LABEL    9023--CALLALT  9032--CALLALT  9036--CALLALT  9049--CALLALT  9061--CALLALT  9069--CALLALT
      9073--CALLALT
BAD_OPEN
PL6.E3A0      #002=VWM$GET_MAILBOX File=VWM$MOVE.:VMB6TSI                        WED 08/20/97 15:44 Page:320
      9087**LABEL    9014--CALLALT  9017--CALLALT
CLOSE_CONSTANT
      8980**DCL      9019>>ASSIGN
CLOSE_CONSTANT.SN_
      8980**DCL      8980--REDEF
CLOSE_CONSTANT.UTL_
      8981**DCL      8981--REDEF
CLOSE_CONSTANT.V
      8985**DCL      8980--DCLINIT
CLOSE_CONSTANT.V.EXPIRE#
      8995**DCL      8995--REDEF
CLOSE_CONSTANT.V.TYPE#
      8993**DCL      8993--REDEF
CLOSE_CONSTANT.V.XTNSIZE#
      8990**DCL      8990--REDEF    8992--REDEF
DOT IN PROCEDURE VERIFY_FOLDER
      9244**DCL      9297<<CALLBLT  9301>>IF       9303>>ASSIGN   9304>>ASSIGN   9312>>ASSIGN   9315>>CALLBLT
      9322>>IF       9324>>ASSIGN
EXIT_NAME_SERVER
      9079**LABEL    9025--GOTO     9106--GOTO     9112--GOTO
F$DCB.ACTPOS
      8230**DCL      8230--REDEF
F$DCB.ARS#
      8204**DCL      8204--REDEF    9175>>ASSIGN
F$DCB.ATTR
      8223**DCL      8224--REDEF
F$DCB.BORROW
      8238**DCL      8238--REDEF    8238--REDEF    8238--REDEF
F$DCB.DCBNAME.L
      8252**DCL      8252--IMP-SIZ
F$DCB.EOMCHAR#
      8208**DCL      8208--REDEF
F$DCB.FCD#
      8217**DCL      9013>>IF       9016>>IF
F$DCB.FLDID
      8233**DCL      8233--REDEF
PL6.E3A0      #002=VWM$GET_MAILBOX File=VWM$MOVE.:VMB6TSI                        WED 08/20/97 15:44 Page:321
F$DCB.FORM$
      8227**DCL      8227--REDEF
F$DCB.FSECT
      8243**DCL      8243--REDEF
F$DCB.FSN#
      8220**DCL      8220--REDEF    8220--REDEF    8221--REDEF
F$DCB.HEADER$
      8226**DCL      8226--REDEF
F$DCB.IXTNSIZE#
      8224**DCL      8224--REDEF
F$DCB.LASTSTA$
      8213**DCL      8213--REDEF
F$DCB.LVL
      8239**DCL      8239--REDEF
F$DCB.NAME#.C
      8214**DCL      8214--REDEF
F$DCB.NOEOF
      8236**DCL      8236--REDEF
F$DCB.NRECS#
      8225**DCL      8225--REDEF
F$DCB.NRECX
      8244**DCL      8244--REDEF
F$DCB.OHDR
      8236**DCL      8236--REDEF
F$DCB.ORG#
      8219**DCL      8219--REDEF
F$DCB.PRECNO
      8242**DCL      8242--REDEF
F$DCB.RCSZ
      8248**DCL      8248--REDEF
F$DCB.RES#
      8215**DCL      8215--REDEF
F$DCB.SETX
      8227**DCL      8227--REDEF
F$DCB.TAB$
      8227**DCL      8227--REDEF
PL6.E3A0      #002=VWM$GET_MAILBOX File=VWM$MOVE.:VMB6TSI                        WED 08/20/97 15:44 Page:322
F$DCB.TDA
      8241**DCL      8242--REDEF
F$DCB.WSN#
      8215**DCL      8215--REDEF
FOLD_STRING
      9004**DCL      9012<<ASSIGN   9042<<CALLBLT  9049<>CALL     9072<<CALLBLT  9073<>CALL
FPT_CLOSE
      8936**DCL      9019<<ASSIGN   9166<>CALL
FPT_CLOSE.SN_
      8936**DCL      8936--REDEF
FPT_CLOSE.UTL_
      8937**DCL      8937--REDEF
FPT_CLOSE.V
      8941**DCL      9020--ASSIGN
FPT_CLOSE.V.DCB#
      8942**DCL      9165<<ASSIGN
FPT_CLOSE.V.EXPIRE#
      8951**DCL      8951--REDEF
FPT_CLOSE.V.TYPE#
      8949**DCL      8949--REDEF
FPT_CLOSE.V.XTNSIZE#
      8946**DCL      8946--REDEF    8948--REDEF
FPT_CLOSE.V_
      8936**DCL      9020<<ASSIGN
FPT_OPEN
      8556**DCL      9152<<ASSIGN   9158<>CALL     9160<>CALL     9291<<ASSIGN   9327<>CALL     9331<>CALL
FPT_OPEN.ACCT_
      8560**DCL      9153<<ASSIGN   9294<<ASSIGN
FPT_OPEN.ACSVEH_
      8558**DCL      8559--REDEF
FPT_OPEN.ALTKEYS_
      8564**DCL      8565--REDEF    8565--REDEF
FPT_OPEN.HDR_
      8563**DCL      8564--REDEF
FPT_OPEN.NAME_
      8557**DCL      9293<<ASSIGN
PL6.E3A0      #002=VWM$GET_MAILBOX File=VWM$MOVE.:VMB6TSI                        WED 08/20/97 15:44 Page:323
FPT_OPEN.TAB_
      8562**DCL      8563--REDEF
FPT_OPEN.UHL_
      8556**DCL      8557--REDEF    8557--REDEF
FPT_OPEN.V
      8565**DCL      9154--ASSIGN   9292--ASSIGN
FPT_OPEN.V.DCB#
      8565**DCL      9155<<ASSIGN   9295<<ASSIGN
FPT_OPEN.V.FSN#
      8596**DCL      8596--REDEF    8596--REDEF
FPT_OPEN.V_
      8556**DCL      9154<<ASSIGN   9292<<ASSIGN
FPT_OPEN.WSN_
      8562**DCL      8562--REDEF
FPT_READ
      8741**DCL      9127<<ASSIGN   9139<>CALL     9143<>CALL     9196<<ASSIGN   9207<>CALL     9218<>CALL
FPT_READ.BUF_
      8743**DCL      9130<<ASSIGN   9198<<ASSIGN
FPT_READ.KEY_
      8741**DCL      9129<<ASSIGN   9199<<ASSIGN
FPT_READ.STATION_
      8744**DCL      8745--REDEF
FPT_READ.V
      8745**DCL      9128--ASSIGN   9197--ASSIGN
FPT_READ.V.DVBYTE.REREAD#
      8756**DCL      8756--REDEF
FPT_READ.V.INDX#
      8754**DCL      8754--REDEF
FPT_READ.V_
      8741**DCL      9128<<ASSIGN   9197<<ASSIGN
GOT_A_NAME_MAP IN PROCEDURE MAP_ACCT_TO_REGISTERED_NAME
      9175**LABEL    9140--GOTO     9144--GOTO
I
      9001**DCL      9031<<CALLBLT  9059<<CALLBLT  9060>>IF       9066<<CALLBLT  9067>>ASSIGN   9072>>CALLBLT
      9073>>CALL     9105<<CALLBLT  9106>>IF       9107>>ASSIGN   9136<<DOINDEX  9138>>IF       9170<<CALLBLT
      9171>>ASSIGN
PL6.E3A0      #002=VWM$GET_MAILBOX File=VWM$MOVE.:VMB6TSI                        WED 08/20/97 15:44 Page:324
I IN PROCEDURE LOCATE_REGISTERED_NAME
      9192**DCL      9202<<CALLBLT  9203>>ASSIGN   9217>>ASSIGN
I IN PROCEDURE VERIFY_FOLDER
      9243**DCL      9304<<ASSIGN   9306<<ASSIGN   9312<<ASSIGN   9316<<ASSIGN   9316>>ASSIGN   9318>>ASSIGN
      9321>>ASSIGN
J
      9002**DCL      9030<<CALLBLT  9032<>CALL     9040>>IF       9042>>CALLBLT  9044>>ASSIGN   9045>>ASSIGN
      9046<<ASSIGN   9046>>ASSIGN   9048>>CALLBLT  9049<>CALL     9051>>ASSIGN   9058<<CALLBLT  9060>>IF
      9061<>CALL     9066<<CALLBLT  9067<<CALLBLT  9067<<ASSIGN   9069<>CALL     9072>>CALLBLT  9072>>CALLBLT
      9073>>CALL     9104<<CALLBLT  9107<<ASSIGN   9107>>ASSIGN   9109>>CALLBLT
J IN PROCEDURE LOCATE_REGISTERED_NAME
      9193**DCL      9202<<CALLBLT
L# IN PROCEDURE LOCATE_REGISTERED_NAME
      9191**DCL      9180--PROC     9201>>ASSIGN
L# IN PROCEDURE VERIFY_FOLDER
      9242**DCL      9227--PROC     9241--IMP-SIZ  9297>>CALLBLT  9298>>IF       9303>>ASSIGN   9313>>IF
      9315>>CALLBLT  9318>>ASSIGN   9322>>IF       9324>>ASSIGN
LEAVE_AS_IS
      9090**LABEL    9033--GOTO     9062--GOTO
LOCATE_REGISTERED_NAME
      9180**PROC     9069--CALL
M$CLOSE
      8125**DCL-ENT  9166--CALL
M$DUMMY
        16**DCL      9155>>ASSIGN   9165>>ASSIGN   9295>>ASSIGN
M$GLOBAL
        15**DCL      9013--IF
M$NAME
        14**DCL      9016--IF       9175--ASSIGN
M$OPEN
      8125**DCL-ENT  9014--CALL     9017--CALL     9158--CALL     9160--CALL     9327--CALL     9331--CALL
M$READ
      8126**DCL-ENT  9139--CALL     9143--CALL     9207--CALL     9218--CALL
MAILBOX
         9**DCL         7--PROC     9011>>ASSIGN   9079<<ASSIGN   9093--ENTRY    9095>>ASSIGN
MAP_ACCT_TO_REGISTERED_NAME
PL6.E3A0      #002=VWM$GET_MAILBOX File=VWM$MOVE.:VMB6TSI                        WED 08/20/97 15:44 Page:325
      9115**PROC     9023--CALL     9036--CALL
MAP_BOX
        10**DCL      9011<<ASSIGN   9012>>ASSIGN   9022>>IF       9024<<ASSIGN   9028>>IF       9030>>CALLBLT
      9031>>CALLBLT  9032<>CALL     9042>>CALLBLT  9044>>ASSIGN   9045<<ASSIGN   9048<<CALLBLT  9051<<ASSIGN
      9058>>CALLBLT  9059>>CALLBLT  9060>>IF       9061<>CALL     9066>>CALLBLT  9067>>CALLBLT  9069<>CALL
      9072>>CALLBLT  9079>>ASSIGN   9095<<ASSIGN   9096>>IF       9098<<CALLBLT  9102>>IF       9104>>CALLBLT
      9105>>CALLBLT  9106>>IF       9109<<CALLBLT
NAME# IN PROCEDURE LOCATE_REGISTERED_NAME
      9190**DCL      9180--PROC     9201>>ASSIGN
NAME_BUFFER.L#
      8894**DCL      9024>>ASSIGN   9040>>IF       9044>>ASSIGN   9045>>ASSIGN   9051>>ASSIGN   9168<<ASSIGN
      9171<<ASSIGN   9175<<ASSIGN
NAME_BUFFER.NAME#
      8894**DCL      9024>>ASSIGN   9038>>IF       9044<<ASSIGN   9045>>ASSIGN   9051>>ASSIGN   9130--ASSIGN
      9169<<CALLBLT  9170>>CALLBLT
NAME_KEY
      8834**DCL      9129--ASSIGN
NAME_KEY.L#
      8834**DCL      9133<<ASSIGN
NAME_KEY.NAME#
      8834**DCL      9042>>CALLBLT  9070>>IF       9072>>CALLBLT  9132<<ASSIGN   9138<<ASSIGN   9142<<ASSIGN
      9211<<ASSIGN   9215<<ASSIGN
OKAY IN PROCEDURE VERIFY_FOLDER
      9337**LABEL    9327--GOTO     9331--GOTO
OPEN_ACCT IN PROCEDURE VERIFY_FOLDER
      9258**DCL      9294--ASSIGN
OPEN_ACCT.ACCT# IN PROCEDURE VERIFY_FOLDER
      9258**DCL      9323<<ASSIGN   9324<<ASSIGN   9325>>IF       9325<<ASSIGN   9328>>IF       9330<<ASSIGN
OPEN_GLOBAL
      8445**DCL      9014<>CALL     9152>>ASSIGN   9291>>ASSIGN
OPEN_GLOBAL.ACSVEH_
      8447**DCL      8448--REDEF
OPEN_GLOBAL.ALTKEYS_
      8453**DCL      8454--REDEF    8454--REDEF
OPEN_GLOBAL.HDR_
      8452**DCL      8453--REDEF
PL6.E3A0      #002=VWM$GET_MAILBOX File=VWM$MOVE.:VMB6TSI                        WED 08/20/97 15:44 Page:326
OPEN_GLOBAL.TAB_
      8451**DCL      8452--REDEF
OPEN_GLOBAL.UHL_
      8445**DCL      8446--REDEF    8446--REDEF
OPEN_GLOBAL.V
      8454**DCL      8445--DCLINIT
OPEN_GLOBAL.V.FSN#
      8485**DCL      8485--REDEF    8485--REDEF
OPEN_GLOBAL.WSN_
      8451**DCL      8451--REDEF
OPEN_NAME
      8327**DCL      9017<>CALL
OPEN_NAME.ACSVEH_
      8329**DCL      8330--REDEF
OPEN_NAME.ALTKEYS_
      8335**DCL      8336--REDEF    8336--REDEF
OPEN_NAME.HDR_
      8334**DCL      8335--REDEF
OPEN_NAME.TAB_
      8333**DCL      8334--REDEF
OPEN_NAME.UHL_
      8327**DCL      8328--REDEF    8328--REDEF
OPEN_NAME.V
      8336**DCL      8327--DCLINIT
OPEN_NAME.V.FSN#
      8367**DCL      8367--REDEF    8367--REDEF
OPEN_NAME.WSN_
      8333**DCL      8333--REDEF
OPEN_NAME IN PROCEDURE VERIFY_FOLDER
      9288**DCL      9293--ASSIGN
OPEN_NAME.L# IN PROCEDURE VERIFY_FOLDER
      9288**DCL      9321<<ASSIGN
OPEN_NAME.NAME# IN PROCEDURE VERIFY_FOLDER
      9288**DCL      9300<<ASSIGN   9303<<ASSIGN   9315<<CALLBLT  9318<<ASSIGN
READ_GLOBAL
      8784**DCL      9196>>ASSIGN
PL6.E3A0      #002=VWM$GET_MAILBOX File=VWM$MOVE.:VMB6TSI                        WED 08/20/97 15:44 Page:327
READ_GLOBAL.STATION_
      8787**DCL      8788--REDEF
READ_GLOBAL.V
      8788**DCL      8784--DCLINIT
READ_GLOBAL.V.DVBYTE.REREAD#
      8799**DCL      8799--REDEF
READ_GLOBAL.V.INDX#
      8797**DCL      8797--REDEF
READ_NAME
      8700**DCL      9127>>ASSIGN
READ_NAME.STATION_
      8703**DCL      8704--REDEF
READ_NAME.V
      8704**DCL      8700--DCLINIT
READ_NAME.V.DVBYTE.REREAD#
      8715**DCL      8715--REDEF
READ_NAME.V.INDX#
      8713**DCL      8713--REDEF
STRING# IN PROCEDURE VERIFY_FOLDER
      9241**DCL      9227--PROC     9297>>CALLBLT  9298>>IF       9303>>ASSIGN   9313>>IF       9315>>CALLBLT
      9318>>ASSIGN   9324>>ASSIGN
USER_ACCT
      8909**DCL      9153--ASSIGN
USER_ACCT.ACCT#
      8909**DCL      9048>>CALLBLT  9157<<ASSIGN   9159<<ASSIGN   9169>>CALLBLT
VERIFY_FOLDER
      9227**PROC     9032--CALL     9049--CALL     9061--CALL     9073--CALL
VM_BUFFER
      9006**DCL      9198--ASSIGN   9208--ASSIGN   9221--ASSIGN
VM_BUFFER.UPPER
      9007**DCL      9208>>ASSIGN   9221>>ASSIGN
VM_ERR#
        12**DCL         7--PROC     9093--ENTRY
VM_GLOBAL_NAME
      8629**DCL      8446--DCLINIT
VM_IAM#
PL6.E3A0      #002=VWM$GET_MAILBOX File=VWM$MOVE.:VMB6TSI                        WED 08/20/97 15:44 Page:328
        11**DCL         7--PROC     9093--ENTRY    9098>>CALLBLT  9109>>CALLBLT  9209>>IF       9222>>IF
VM_LISTKEY.COUNT
      1374**DCL      9217<<ASSIGN
VM_LISTKEY.TEXT
      1377**DCL      9216<<ASSIGN
VM_LISTKEY.TYPE
      1375**DCL      9205<<ASSIGN
VM_MAIL_ACCT
      8676**DCL      8332--DCLINIT  8450--DCLINIT
VM_NAME_MAP_NAME
      8660**DCL      8328--DCLINIT
VM_RADDRESS.ACCT
      1345**DCL      9211>>ASSIGN
VM_RADDRESS.FOLDER
      1337**DCL      1338--REDEF
VM_RADDRESS.SITENAME
      1344**DCL      9209>>IF       9209>>IF       9222>>IF       9222>>IF
VM_USERKEY
      1357**DCL      9199--ASSIGN
VM_USERKEY.COUNT
      1358**DCL      9203<<ASSIGN
VM_USERKEY.TEXT
      1361**DCL      9201<<ASSIGN   9202>>CALLBLT  9216>>ASSIGN
VM_USERKEY.TYPE
      1359**DCL      9204<<ASSIGN
