VERSION B06

PL6.E3A0      #001=VWO$TRANSO File=VWO$TRANSO.:VMB6TSI                           WED 08/20/97 15:48 Page:1
        1        1        /*M* VWO$TRANSO - Scramble transmission records. */
        2        2        /*T***********************************************************/
        3        3        /*T*                                                         */
        4        4        /*T* Copyright (c) Bull HN Information Systems Inc., 1997    */
        5        5        /*T*                                                         */
        6        6        /*T***********************************************************/
        7        7
        8        8        /*F**
        9        9        *
       10       10        *   NAME:  VWO$TRANSO
       11       11        *
       12       12        *   PURPOSE:
       13       13        *       To "garble" a record prior to transmission.
       14       14        *
       15       15        *   DESCRIPTION:
       16       16        *       VWO$TRANSO "garbles" records prior to transmission to make their
       17       17        *       contents less obvious to the casual observer.  This is not high-
       18       18        *       quality encryption by any means.
       19       19        *
       20       20        *   REFERENCE:
       21       21        *       None.
       22       22        *
       23       23        ****/
       24       24
       25       25        /*D**
       26       26        *
       27       27        *   NAME:  VWO$TRANSO
       28       28        *
       29       29        *   CALL:
       30       30        *       CALL VWO$TRANSO(bfr)
       31       31        *
       32       32        *   PARAMETERS:
       33       33        *       bfr - is the 80-byte buffer to be garbled.
       34       34        *
       35       35        *   INTERFACE:
       36       36        *       None.
       37       37        *
PL6.E3A0      #001=VWO$TRANSO File=VWO$TRANSO.:VMB6TSI                           WED 08/20/97 15:48 Page:2
       38       38        *   ENVIRONMENT:
       39       39        *       None.
       40       40        *
       41       41        *   INPUT:
       42       42        *       The contents of bfr are read.
       43       43        *
       44       44        *   OUTPUT:
       45       45        *       The contents of bfr are modified in place.
       46       46        *
       47       47        *   SCRATCH:
       48       48        *       None.
       49       49        *
       50       50        *   DESCRIPTION:
       51       51        *       Translate buffer BFR from printable ASCII into scrambled form,
       52       52        *       then back into printable, scrambled ASCII.  BFR is assumed to
       53       53        *       be 80 bytes in length.  The first character is not altered.
       54       54        *
       55       55        ****/
       56       56
       57       57        VWO$TRANSO: PROC(BFR);
       58       58
       59       59    1   DCL BFR(0:79) UNAL                 UBIN BYTE;
       60       60
       61       61    1   DCL I                              SBIN;
       62       62
       63       63    1   DCL XLATEO(0:188) CONSTANT UNAL    UBIN BYTE INIT(
       64       64    1            64, 65, 66, 67, 68, 69, 70, 71, 72, 73, 74, 75, 76, 77, 78, 79,
       65       65    1            80, 81, 82, 83, 84, 85, 86, 87, 88, 89, 90, 91, 92, 93, 94, 95,
       66       66    1            96, 97, 98, 99,100,101,102,103,104,105,106,107,108,109,110,111,
       67       67    1           112,113,114,115,116,117,118,119,120,121,122,123,124,125,126, 32,
       68       68    1            33, 34, 35, 36, 37, 38, 39, 40, 41, 42, 43, 44, 45, 46, 47, 48,
       69       69    1            49, 50, 51, 52, 53, 54, 55, 56, 57, 58, 59, 60, 61, 62, 63, 64,
       70       70    1            65, 66, 67, 68, 69, 70, 71, 72, 73, 74, 75, 76, 77, 78, 79, 80,
       71       71    1            81, 82, 83, 84, 85, 86, 87, 88, 89, 90, 91, 92, 93, 94, 95, 96,
       72       72    1            97, 98, 99,100,101,102,103,104,105,106,107,108,109,110,111,112,
       73       73    1           113,114,115,116,117,118,119,120,121,122,123,124,125,126, 32, 33,
       74       74    1            34, 35, 36, 37, 38, 39, 40, 41, 42, 43, 44, 45, 46, 47, 48, 49,
PL6.E3A0      #001=VWO$TRANSO File=VWO$TRANSO.:VMB6TSI                           WED 08/20/97 15:48 Page:3
       75       75    1            50, 51, 52, 53, 54, 55, 56, 57, 58, 59, 60, 61, 62);
       76       76
       77       77        /****
       78       78        *
       79       79        *   Perform the scrambling algorithm:
       80       80        *
       81       81        *       char(i) = translate [char(i) + char(i-1) - 64]
       82       82        *
       83       83        *   This is not a high-quality scrambling algorithm; it is used simply
       84       84        *   to make the contents of the symbiont file less obvious to the
       85       85        *   casual observer.
       86       86        *
       87       87        ****/
       88       88
       89       89    2           DO I=79 DOWNTO 1 BY -1;
       90       90    2              BFR(I)=XLATEO(BFR(I-1)+BFR(I)-64);
       91       91    2              END;
       92       92
       93       93    1           RETURN;
       94       94
       95       95    1   END;

PL6.E3A0      #001=VWO$TRANSO File=VWO$TRANSO.:VMB6TSI                           WED 08/20/97 15:48 Page:4
      No diagnostics issued in procedure VWO$TRANSO.

   Procedure VWO$TRANSO requires 38 words for executable code.
   Procedure VWO$TRANSO requires 10 words of local(AUTO) storage.

    No errors detected in file VWO$TRANSO.:VMB6TSI    .

PL6.E3A0      #001=VWO$TRANSO File=VWO$TRANSO.:VMB6TSI                           WED 08/20/97 15:48 Page:5

 Object Unit name= VWO$TRANSO                                 File name= VWO$TRANSO.:VMB6TOU
 UTS= AUG 20 '97 15:48:21.64 WED                              Compiler= PL-6/E31         Sev=      00
 SharedLib= :SHARED_SYSTEM                                    Alt SharedLib=


    ****  Control sections  ****

 Sect   Type Bound  Init  Size OctSiz  Section name(segment info)
    0  RoData even  UTS     48     60  VWO$TRANSO
    1   Proc  even  none    38     46  VWO$TRANSO

    ****  Entry defs  ****

                              Check   Calling
                             calling  sequence
  Sect OctLoc Primary Altret sequence   type   Parms  Name
     1      0   yes            yes      Std        1  VWO$TRANSO

  ****  Entry refs  ****

         Check        Calling
        calling       sequence
Altret sequence SRef   type   Args  Name
                       nStd      0 X66_AUTO_1
                       nStd      0 X66_ARET
PL6.E3A0      #001=VWO$TRANSO File=VWO$TRANSO.:VMB6TSI                           WED 08/20/97 15:48 Page:6


        1        1        /*M* VWO$TRANSO - Scramble transmission records. */
        2        2        /*T***********************************************************/
        3        3        /*T*                                                         */
        4        4        /*T* Copyright (c) Bull HN Information Systems Inc., 1997    */
        5        5        /*T*                                                         */
        6        6        /*T***********************************************************/
        7        7
        8        8        /*F**
        9        9        *
       10       10        *   NAME:  VWO$TRANSO
       11       11        *
       12       12        *   PURPOSE:
       13       13        *       To "garble" a record prior to transmission.
       14       14        *
       15       15        *   DESCRIPTION:
       16       16        *       VWO$TRANSO "garbles" records prior to transmission to make their
       17       17        *       contents less obvious to the casual observer.  This is not high-
       18       18        *       quality encryption by any means.
       19       19        *
       20       20        *   REFERENCE:
       21       21        *       None.
       22       22        *
       23       23        ****/
       24       24
       25       25        /*D**
       26       26        *
       27       27        *   NAME:  VWO$TRANSO
       28       28        *
       29       29        *   CALL:
       30       30        *       CALL VWO$TRANSO(bfr)
       31       31        *
       32       32        *   PARAMETERS:
       33       33        *       bfr - is the 80-byte buffer to be garbled.
       34       34        *
       35       35        *   INTERFACE:
       36       36        *       None.
PL6.E3A0      #001=VWO$TRANSO File=VWO$TRANSO.:VMB6TSI                           WED 08/20/97 15:48 Page:7
       37       37        *
       38       38        *   ENVIRONMENT:
       39       39        *       None.
       40       40        *
       41       41        *   INPUT:
       42       42        *       The contents of bfr are read.
       43       43        *
       44       44        *   OUTPUT:
       45       45        *       The contents of bfr are modified in place.
       46       46        *
       47       47        *   SCRATCH:
       48       48        *       None.
       49       49        *
       50       50        *   DESCRIPTION:
       51       51        *       Translate buffer BFR from printable ASCII into scrambled form,
       52       52        *       then back into printable, scrambled ASCII.  BFR is assumed to
       53       53        *       be 80 bytes in length.  The first character is not altered.
       54       54        *
       55       55        ****/
       56       56
       57       57        VWO$TRANSO: PROC(BFR);

     57  1 000000   000000 700200 xent  VWO$TRANSO   TSX0  ! X66_AUTO_1
         1 000001   000012 000001                    ZERO    10,1

       58       58
       59       59    1   DCL BFR(0:79) UNAL                 UBIN BYTE;
       60       60
       61       61    1   DCL I                              SBIN;
       62       62
       63       63    1   DCL XLATEO(0:188) CONSTANT UNAL    UBIN BYTE INIT(
       64       64    1            64, 65, 66, 67, 68, 69, 70, 71, 72, 73, 74, 75, 76, 77, 78, 79,
       65       65    1            80, 81, 82, 83, 84, 85, 86, 87, 88, 89, 90, 91, 92, 93, 94, 95,
       66       66    1            96, 97, 98, 99,100,101,102,103,104,105,106,107,108,109,110,111,
       67       67    1           112,113,114,115,116,117,118,119,120,121,122,123,124,125,126, 32,
       68       68    1            33, 34, 35, 36, 37, 38, 39, 40, 41, 42, 43, 44, 45, 46, 47, 48,
       69       69    1            49, 50, 51, 52, 53, 54, 55, 56, 57, 58, 59, 60, 61, 62, 63, 64,
PL6.E3A0      #001=VWO$TRANSO File=VWO$TRANSO.:VMB6TSI                           WED 08/20/97 15:48 Page:8
       70       70    1            65, 66, 67, 68, 69, 70, 71, 72, 73, 74, 75, 76, 77, 78, 79, 80,
       71       71    1            81, 82, 83, 84, 85, 86, 87, 88, 89, 90, 91, 92, 93, 94, 95, 96,
       72       72    1            97, 98, 99,100,101,102,103,104,105,106,107,108,109,110,111,112,
       73       73    1           113,114,115,116,117,118,119,120,121,122,123,124,125,126, 32, 33,
       74       74    1            34, 35, 36, 37, 38, 39, 40, 41, 42, 43, 44, 45, 46, 47, 48, 49,
       75       75    1            50, 51, 52, 53, 54, 55, 56, 57, 58, 59, 60, 61, 62);
       76       76
       77       77        /****
       78       78        *
       79       79        *   Perform the scrambling algorithm:
       80       80        *
       81       81        *       char(i) = translate [char(i) + char(i-1) - 64]
       82       82        *
       83       83        *   This is not a high-quality scrambling algorithm; it is used simply
       84       84        *   to make the contents of the symbiont file less obvious to the
       85       85        *   casual observer.
       86       86        *
       87       87        ****/
       88       88
       89       89    2           DO I=79 DOWNTO 1 BY -1;

     89  1 000002   000117 235007                    LDA     79,DL
         1 000003   200004 755100                    STA     I,,AUTO

       90       90    2              BFR(I)=XLATEO(BFR(I-1)+BFR(I)-64);

     90  1 000004   200004 236100                    LDQ     I,,AUTO
         1 000005   000011 402007                    MPY     9,DL
         1 000006   000000 116003                    CMPQ    0,DU
         1 000007   000011 605000 1                  TPL     s:90+5
         1 000010   000044 036003                    ADLQ    36,DU
         1 000011   200003 470500                    LDP0    @BFR,,AUTO
         1 000012   003100 061506                    CSR     bolr='003'O
         1 000013   000000 000011                    BDSC    0,Q,PR0                  by=0,bit=0,n=9
         1 000014   200006 000044                    BDSC    I+2,,AUTO                by=0,bit=0,n=36
         1 000015   200004 236100                    LDQ     I,,AUTO
         1 000016   000011 402007                    MPY     9,DL
PL6.E3A0      #001=VWO$TRANSO File=VWO$TRANSO.:VMB6TSI                           WED 08/20/97 15:48 Page:9
         1 000017   000000 116003                    CMPQ    0,DU
         1 000020   000022 605000 1                  TPL     s:90+14
         1 000021   000044 036003                    ADLQ    36,DU
         1 000022   003100 061506                    CSR     bolr='003'O
         1 000023   077777 600011                    BDSC    -1,Q,PR0                 by=3,bit=0,n=9
         1 000024   200007 000044                    BDSC    I+3,,AUTO                by=0,bit=0,n=36
         1 000025   200007 236100                    LDQ     I+3,,AUTO
         1 000026   200006 036100                    ADLQ    I+2,,AUTO
         1 000027   000011 402007                    MPY     9,DL
         1 000030   200010 756100                    STQ     I+4,,AUTO
         1 000031   200004 236100                    LDQ     I,,AUTO
         1 000032   000011 402007                    MPY     9,DL
         1 000033   000000 116003                    CMPQ    0,DU
         1 000034   000036 605000 1                  TPL     s:90+26
         1 000035   000044 036003                    ADLQ    36,DU
         1 000036   200010 235100                    LDA     I+4,,AUTO
         1 000037   003106 060405                    CSL     bolr='003'O
         1 000040   777760 000011 0                  BDSC    XLATEO-16,A              by=0,bit=0,n=9
         1 000041   000000 000011                    BDSC    0,Q,PR0                  by=0,bit=0,n=9

       91       91    2              END;

     91  1 000042   000001 336007                    LCQ     1,DL
         1 000043   200004 056100                    ASQ     I,,AUTO
         1 000044   000004 605400 1                  TPNZ    s:90

       92       92
       93       93    1           RETURN;

     93  1 000045   000000 702200 xent               TSX2  ! X66_ARET

XLATEO
 Sect OctLoc
   0     000   100101 102103   104105 106107   110111 112113   114115 116117    @ABCDEFGHIJKLMNO
   0     004   120121 122123   124125 126127   130131 132133   134135 136137    PQRSTUVWXYZ[\]^_
   0     010   140141 142143   144145 146147   150151 152153   154155 156157    `abcdefghijklmno
   0     014   160161 162163   164165 166167   170171 172173   174175 176040    pqrstuvwxyz{|}~
PL6.E3A0      #001=VWO$TRANSO File=VWO$TRANSO.:VMB6TSI                           WED 08/20/97 15:48 Page:10
   0     020   041042 043044   045046 047050   051052 053054   055056 057060    !"#$%&'()*+,-./0
   0     024   061062 063064   065066 067070   071072 073074   075076 077100    123456789:;<=>?@
   0     030   101102 103104   105106 107110   111112 113114   115116 117120    ABCDEFGHIJKLMNOP
   0     034   121122 123124   125126 127130   131132 133134   135136 137140    QRSTUVWXYZ[\]^_`
   0     040   141142 143144   145146 147150   151152 153154   155156 157160    abcdefghijklmnop
   0     044   161162 163164   165166 167170   171172 173174   175176 040041    qrstuvwxyz{|}~ !
   0     050   042043 044045   046047 050051   052053 054055   056057 060061    "#$%&'()*+,-./01
   0     054   062063 064065   066067 070071   072073 074075   076*** ******    23456789:;<=>...
       94       94
       95       95    1   END;

PL6.E3A0      #001=VWO$TRANSO File=VWO$TRANSO.:VMB6TSI                           WED 08/20/97 15:48 Page:11
      No diagnostics issued in procedure VWO$TRANSO.
PL6.E3A0      #001=VWO$TRANSO File=VWO$TRANSO.:VMB6TSI                           WED 08/20/97 15:48 Page:12

 **** Variables and constants ****

  ****  Section 000 RoData VWO$TRANSO

  ****  Scalars and arrays  ****
OctLoc.c.b A Datatyp(siz) R M Lvl/name                 OctLoc.c.b A Datatyp(siz) R M Lvl/name

     0-0-0/b UBIN(9)     r     1 XLATEO(0:188)

  ****  Auto variables  ****

  ****  Scalars and arrays  ****
OctLoc.c.b A Datatyp(siz) R M Lvl/name                 OctLoc.c.b A Datatyp(siz) R M Lvl/name

     3-0-0/w PTR         r     1 @BFR                      *0-0-0/b UBIN(9)     r     1 BFR(0:79)
     4-0-0/w SBIN        r     1 I


   Procedure VWO$TRANSO requires 38 words for executable code.
   Procedure VWO$TRANSO requires 10 words of local(AUTO) storage.

    No errors detected in file VWO$TRANSO.:VMB6TSI    .
PL6.E3A0      #001=VWO$TRANSO File=VWO$TRANSO.:VMB6TSI                           WED 08/20/97 15:48 Page:13
          *** CROSS REFERENCE LISTING ***
**     DENOTES     IDENTIFIER DEFINITION
<<                 IDENTIFIER'S VALUE SET
>>                 IDENTIFIER'S VALUE USED
<>                 IDENTIFIER SET AND/OR USED
--                 IDENTIFIER REFERENCED
PL6.E3A0      #001=VWO$TRANSO File=VWO$TRANSO.:VMB6TSI                           WED 08/20/97 15:48 Page:14
          MINI XREF LISTING

BFR
        59**DCL        57--PROC       90<<ASSIGN     90>>ASSIGN     90>>ASSIGN
I
        61**DCL        89<<DOINDEX    90>>ASSIGN     90>>ASSIGN     90>>ASSIGN
XLATEO
        63**DCL        90>>ASSIGN
