VERSION B06

PL6.E3A0      #001=VWX$MAIL File=VWU$MOVEMAIL.:VMB6TSI                           WED 08/20/97 15:51 Page:1
        1        1        /*M* VWX$MAIL - Handle MAIL for MOVE (MOVEMAIL). */
        2        2        /*T***********************************************************/
        3        3        /*T*                                                         */
        4        4        /*T* Copyright (c) Bull HN Information Systems Inc., 1997    */
        5        5        /*T*                                                         */
        6        6        /*T***********************************************************/
        7        7
        8        8        /*F**
        9        9        *
       10       10        *   NAME:  VWU$MOVEMAIL
       11       11        *
       12       12        *   PURPOSE:
       13       13        *       To handle mail (messages) from MOVE.
       14       14        *
       15       15        *   DESCRIPTION:
       16       16        *       This routine performs the MAIL function for MOVE, which is to
       17       17        *       simply write the message to the user.
       18       18        *
       19       19        *   REFERENCE:
       20       20        *       See VWG$SCOTTYMAIL for the SCOTTY mail interface.
       21       21        *
       22       22        ****/
       23       23
       24       24        /*D**
       25       25        *
       26       26        *   NAME:  VWX$MAIL
       27       27        *
       28       28        *   CALL:
       29       29        *       CALL VWX$MAIL(err,v1,v2,v3,edcb)
       30       30        *
       31       31        *   PARAMETERS:
       32       32        *       err (required) is the error code, which may be a monitor error or
       33       33        *       a "user" error.  v1, v2, and v3 are optional parameters; they are
       34       34        *       vectors of TEXTC strings to be printed in the error message by
       35       35        *       XUR$ERRMSG.  If v1 is not specified, v2 and v3 may not be; if v2
       36       36        *       is not specified, v3 may not be.  edcb is an optional parameter
       37       37        *       which may contain the DCB number of the DCB causing the error.
PL6.E3A0      #001=VWX$MAIL File=VWU$MOVEMAIL.:VMB6TSI                           WED 08/20/97 15:51 Page:2
       38       38        *
       39       39        *   INTERFACE:
       40       40        *       XUR$ERRMSG is called.
       41       41        *
       42       42        *   ENVIRONMENT:
       43       43        *       None.
       44       44        *
       45       45        *   INPUT:
       46       46        *       All parameters are input.  If edcb is present, v1, v2, and v3 are
       47       47        *       ignored.
       48       48        *
       49       49        *   OUTPUT:
       50       50        *       None.
       51       51        *
       52       52        *   SCRATCH:
       53       53        *       None.
       54       54        *
       55       55        *   DESCRIPTION:
       56       56        *       Perform the MAIL function for MOVE; i.e., just send the message
       57       57        *       to the user and return.  MAIL for SCOTTY is considerably more
       58       58        *       complicated.  ERR is the error code; V1, V2, and V3 are vectors
       59       59        *       of the (optional) TEXTC strings to substitute for %U1, %U2, %U3;
       60       60        *       and EDCB is the (optional) DCB number on which the error occurred.
       61       61        *
       62       62        ****/
       63       63
       64       64        VWX$MAIL: PROC(ERR,V1,V2,V3,EDCB);
       65       65
       66       66        /****
       67       67        *
       68       68        *   %INCLUDEs
       69       69        *
       70       70        ****/
       71       71
       72       72        %INCLUDE XUR_ENTRY;
       73      104
       74      105        /****
PL6.E3A0      #001=VWX$MAIL File=VWU$MOVEMAIL.:VMB6TSI                           WED 08/20/97 15:51 Page:3
       75      106        *
       76      107        *   Parameters
       77      108        *
       78      109        ****/
       79      110
       80      111    1   DCL ERR                            SBIN;
       81      112    1   DCL V1                             VECTOR;
       82      113    1   DCL V2                             VECTOR;
       83      114    1   DCL V3                             VECTOR;
       84      115    1   DCL EDCB                           SBIN;
       85      116
       86      117        %EJECT;
PL6.E3A0      #001=VWX$MAIL File=VWU$MOVEMAIL.:VMB6TSI                           WED 08/20/97 15:51 Page:4
       87      118        /****
       88      119        *
       89      120        *   Determine how to call XUR$ERRMSG.
       90      121        *
       91      122        ****/
       92      123
       93      124        /****
       94      125        *
       95      126        *   If there's a DCB, just pass the DCB and the error code.
       96      127        *
       97      128        ****/
       98      129
       99      130    1           IF ADDR(EDCB)~=ADDR(NIL) THEN
      100      131    1              CALL XUR$ERRMSG(ERR,EDCB);
      101      132
      102      133        /****
      103      134        *
      104      135        *   If there's no V1, just pass the error code.
      105      136        *
      106      137        ****/
      107      138
      108      139    1           ELSE IF ADDR(V1)=ADDR(NIL) THEN
      109      140    1                 CALL XUR$ERRMSG(ERR);
      110      141
      111      142        /****
      112      143        *
      113      144        *   If there's a V1 but no V2, pass only V1 and the error code.
      114      145        *
      115      146        ****/
      116      147
      117      148    1              ELSE IF ADDR(V2)=ADDR(NIL) THEN
      118      149    1                    CALL XUR$ERRMSG(ERR,,,V1);
      119      150
      120      151        /****
      121      152        *
      122      153        *   If there's V1 and V2 but no V3, pass V1 and V2 and the error code.
      123      154        *
PL6.E3A0      #001=VWX$MAIL File=VWU$MOVEMAIL.:VMB6TSI                           WED 08/20/97 15:51 Page:5
      124      155        ****/
      125      156
      126      157    1                 ELSE IF ADDR(V3)=ADDR(NIL) THEN
      127      158    1                       CALL XUR$ERRMSG(ERR,,,V1,V2);
      128      159
      129      160        /****
      130      161        *
      131      162        *   Otherwise, pass all three Vs and the error code.
      132      163        *
      133      164        ****/
      134      165
      135      166    1                    ELSE
      136      167    1                       CALL XUR$ERRMSG(ERR,,,V1,V2,V3);
      137      168
      138      169    1           RETURN;
      139      170
      140      171    1   END;

PL6.E3A0      #001=VWX$MAIL File=VWU$MOVEMAIL.:VMB6TSI                           WED 08/20/97 15:51 Page:6
--  Include file information  --

   XUR_ENTRY.:LIB_E05  cannot be made into a system file and is referenced.
      No diagnostics issued in procedure VWX$MAIL.

   Procedure VWX$MAIL requires 63 words for executable code.
   Procedure VWX$MAIL requires 14 words of local(AUTO) storage.

    No errors detected in file VWU$MOVEMAIL.:VMB6TSI    .

PL6.E3A0      #001=VWX$MAIL File=VWU$MOVEMAIL.:VMB6TSI                           WED 08/20/97 15:51 Page:7

 Object Unit name= VWX$MAIL                                   File name= VWU$MOVEMAIL.:VMB6TOU
 UTS= AUG 20 '97 15:51:44.88 WED                              Compiler= PL-6/E31         Sev=      00
 SharedLib= :SHARED_SYSTEM                                    Alt SharedLib=


    ****  Control sections  ****

 Sect   Type Bound  Init  Size OctSiz  Section name(segment info)
    0   Proc  even  none    63     77  VWX$MAIL
    1  RoData even  none     6      6  VWX$MAIL

    ****  Entry defs  ****

                              Check   Calling
                             calling  sequence
  Sect OctLoc Primary Altret sequence   type   Parms  Name
     0      0   yes            yes      Std        5  VWX$MAIL

  ****  Entry refs  ****

         Check        Calling
        calling       sequence
Altret sequence SRef   type   Args  Name
 yes     yes           Std       7 XUR$ERRMSG
                       nStd      0 X66_AUTO_5
                       nStd      0 X66_ARET

  ****  Segment refs  ****

  Flags:  r = read only, s = secondary
Flgs Name                             Flgs Name                             Flgs Name
     NULLSID
PL6.E3A0      #001=VWX$MAIL File=VWU$MOVEMAIL.:VMB6TSI                           WED 08/20/97 15:51 Page:8


        1        1        /*M* VWX$MAIL - Handle MAIL for MOVE (MOVEMAIL). */
        2        2        /*T***********************************************************/
        3        3        /*T*                                                         */
        4        4        /*T* Copyright (c) Bull HN Information Systems Inc., 1997    */
        5        5        /*T*                                                         */
        6        6        /*T***********************************************************/
        7        7
        8        8        /*F**
        9        9        *
       10       10        *   NAME:  VWU$MOVEMAIL
       11       11        *
       12       12        *   PURPOSE:
       13       13        *       To handle mail (messages) from MOVE.
       14       14        *
       15       15        *   DESCRIPTION:
       16       16        *       This routine performs the MAIL function for MOVE, which is to
       17       17        *       simply write the message to the user.
       18       18        *
       19       19        *   REFERENCE:
       20       20        *       See VWG$SCOTTYMAIL for the SCOTTY mail interface.
       21       21        *
       22       22        ****/
       23       23
       24       24        /*D**
       25       25        *
       26       26        *   NAME:  VWX$MAIL
       27       27        *
       28       28        *   CALL:
       29       29        *       CALL VWX$MAIL(err,v1,v2,v3,edcb)
       30       30        *
       31       31        *   PARAMETERS:
       32       32        *       err (required) is the error code, which may be a monitor error or
       33       33        *       a "user" error.  v1, v2, and v3 are optional parameters; they are
       34       34        *       vectors of TEXTC strings to be printed in the error message by
       35       35        *       XUR$ERRMSG.  If v1 is not specified, v2 and v3 may not be; if v2
       36       36        *       is not specified, v3 may not be.  edcb is an optional parameter
PL6.E3A0      #001=VWX$MAIL File=VWU$MOVEMAIL.:VMB6TSI                           WED 08/20/97 15:51 Page:9
       37       37        *       which may contain the DCB number of the DCB causing the error.
       38       38        *
       39       39        *   INTERFACE:
       40       40        *       XUR$ERRMSG is called.
       41       41        *
       42       42        *   ENVIRONMENT:
       43       43        *       None.
       44       44        *
       45       45        *   INPUT:
       46       46        *       All parameters are input.  If edcb is present, v1, v2, and v3 are
       47       47        *       ignored.
       48       48        *
       49       49        *   OUTPUT:
       50       50        *       None.
       51       51        *
       52       52        *   SCRATCH:
       53       53        *       None.
       54       54        *
       55       55        *   DESCRIPTION:
       56       56        *       Perform the MAIL function for MOVE; i.e., just send the message
       57       57        *       to the user and return.  MAIL for SCOTTY is considerably more
       58       58        *       complicated.  ERR is the error code; V1, V2, and V3 are vectors
       59       59        *       of the (optional) TEXTC strings to substitute for %U1, %U2, %U3;
       60       60        *       and EDCB is the (optional) DCB number on which the error occurred.
       61       61        *
       62       62        ****/
       63       63
       64       64        VWX$MAIL: PROC(ERR,V1,V2,V3,EDCB);

     64  0 000000   000000 700200 xent  VWX$MAIL     TSX0  ! X66_AUTO_5
         0 000001   000016 000005                    ZERO    14,5

       65       65
       66       66        /****
       67       67        *
       68       68        *   %INCLUDEs
       69       69        *
PL6.E3A0      #001=VWX$MAIL File=VWU$MOVEMAIL.:VMB6TSI                           WED 08/20/97 15:51 Page:10
       70       70        ****/
       71       71
       72       72        %INCLUDE XUR_ENTRY;
       73      104
       74      105        /****
       75      106        *
       76      107        *   Parameters
       77      108        *
       78      109        ****/
       79      110
       80      111    1   DCL ERR                            SBIN;
       81      112    1   DCL V1                             VECTOR;
       82      113    1   DCL V2                             VECTOR;
       83      114    1   DCL V3                             VECTOR;
       84      115    1   DCL EDCB                           SBIN;
       85      116
       86      117        %EJECT;
PL6.E3A0      #001=VWX$MAIL File=VWU$MOVEMAIL.:VMB6TSI                           WED 08/20/97 15:51 Page:11
       87      118        /****
       88      119        *
       89      120        *   Determine how to call XUR$ERRMSG.
       90      121        *
       91      122        ****/
       92      123
       93      124        /****
       94      125        *
       95      126        *   If there's a DCB, just pass the DCB and the error code.
       96      127        *
       97      128        ****/
       98      129
       99      130    1           IF ADDR(EDCB)~=ADDR(NIL) THEN

    130  0 000002   200007 236100                    LDQ     @EDCB,,AUTO
         0 000003   000000 116000 1                  CMPQ    0
         0 000004   000014 600000 0                  TZE     s:139

      100      131    1              CALL XUR$ERRMSG(ERR,EDCB);

    131  0 000005   200003 235100                    LDA     @ERR,,AUTO
         0 000006   200010 757100                    STAQ    @EDCB+1,,AUTO
         0 000007   200010 630500                    EPPR0   @EDCB+1,,AUTO
         0 000010   000001 631400 1                  EPPR1   1
         0 000011   000000 701000 xent               TSX1    XUR$ERRMSG
         0 000012   000000 011000                    NOP     0
         0 000013   000076 710000 0                  TRA     s:169

      101      132
      102      133        /****
      103      134        *
      104      135        *   If there's no V1, just pass the error code.
      105      136        *
      106      137        ****/
      107      138
      108      139    1           ELSE IF ADDR(V1)=ADDR(NIL) THEN

PL6.E3A0      #001=VWX$MAIL File=VWU$MOVEMAIL.:VMB6TSI                           WED 08/20/97 15:51 Page:12
    139  0 000014   200004 236100                    LDQ     @V1,,AUTO
         0 000015   000000 116000 1                  CMPQ    0
         0 000016   000024 601000 0                  TNZ     s:148

      109      140    1                 CALL XUR$ERRMSG(ERR);

    140  0 000017   200003 630500                    EPPR0   @ERR,,AUTO
         0 000020   000002 631400 1                  EPPR1   2
         0 000021   000000 701000 xent               TSX1    XUR$ERRMSG
         0 000022   000000 011000                    NOP     0
         0 000023   000076 710000 0                  TRA     s:169

      110      141
      111      142        /****
      112      143        *
      113      144        *   If there's a V1 but no V2, pass only V1 and the error code.
      114      145        *
      115      146        ****/
      116      147
      117      148    1              ELSE IF ADDR(V2)=ADDR(NIL) THEN

    148  0 000024   200005 236100                    LDQ     @V2,,AUTO
         0 000025   000000 116000 1                  CMPQ    0
         0 000026   000042 601000 0                  TNZ     s:157

      118      149    1                    CALL XUR$ERRMSG(ERR,,,V1);

    149  0 000027   200004 236100                    LDQ     @V1,,AUTO
         0 000030   000000 235000 1                  LDA     0
         0 000031   200012 757100                    STAQ    @EDCB+3,,AUTO
         0 000032   000000 236000 1                  LDQ     0
         0 000033   200003 235100                    LDA     @ERR,,AUTO
         0 000034   200010 757100                    STAQ    @EDCB+1,,AUTO
         0 000035   200010 630500                    EPPR0   @EDCB+1,,AUTO
         0 000036   000003 631400 1                  EPPR1   3
         0 000037   000000 701000 xent               TSX1    XUR$ERRMSG
         0 000040   000000 011000                    NOP     0
PL6.E3A0      #001=VWX$MAIL File=VWU$MOVEMAIL.:VMB6TSI                           WED 08/20/97 15:51 Page:13
         0 000041   000076 710000 0                  TRA     s:169

      119      150
      120      151        /****
      121      152        *
      122      153        *   If there's V1 and V2 but no V3, pass V1 and V2 and the error code.
      123      154        *
      124      155        ****/
      125      156
      126      157    1                 ELSE IF ADDR(V3)=ADDR(NIL) THEN

    157  0 000042   200006 236100                    LDQ     @V3,,AUTO
         0 000043   000000 116000 1                  CMPQ    0
         0 000044   000062 601000 0                  TNZ     s:167

      127      158    1                       CALL XUR$ERRMSG(ERR,,,V1,V2);

    158  0 000045   200005 236100                    LDQ     @V2,,AUTO
         0 000046   200014 756100                    STQ     @EDCB+5,,AUTO
         0 000047   200004 236100                    LDQ     @V1,,AUTO
         0 000050   000000 235000 1                  LDA     0
         0 000051   200012 757100                    STAQ    @EDCB+3,,AUTO
         0 000052   000000 236000 1                  LDQ     0
         0 000053   200003 235100                    LDA     @ERR,,AUTO
         0 000054   200010 757100                    STAQ    @EDCB+1,,AUTO
         0 000055   200010 630500                    EPPR0   @EDCB+1,,AUTO
         0 000056   000004 631400 1                  EPPR1   4
         0 000057   000000 701000 xent               TSX1    XUR$ERRMSG
         0 000060   000000 011000                    NOP     0
         0 000061   000076 710000 0                  TRA     s:169

      128      159
      129      160        /****
      130      161        *
      131      162        *   Otherwise, pass all three Vs and the error code.
      132      163        *
      133      164        ****/
PL6.E3A0      #001=VWX$MAIL File=VWU$MOVEMAIL.:VMB6TSI                           WED 08/20/97 15:51 Page:14
      134      165
      135      166    1                    ELSE
      136      167    1                       CALL XUR$ERRMSG(ERR,,,V1,V2,V3);

    167  0 000062   200005 235100                    LDA     @V2,,AUTO
         0 000063   200014 757100                    STAQ    @EDCB+5,,AUTO
         0 000064   200004 236100                    LDQ     @V1,,AUTO
         0 000065   000000 235000 1                  LDA     0
         0 000066   200012 757100                    STAQ    @EDCB+3,,AUTO
         0 000067   000000 236000 1                  LDQ     0
         0 000070   200003 235100                    LDA     @ERR,,AUTO
         0 000071   200010 757100                    STAQ    @EDCB+1,,AUTO
         0 000072   200010 630500                    EPPR0   @EDCB+1,,AUTO
         0 000073   000005 631400 1                  EPPR1   5
         0 000074   000000 701000 xent               TSX1    XUR$ERRMSG
         0 000075   000000 011000                    NOP     0

      137      168
      138      169    1           RETURN;

    169  0 000076   000000 702200 xent               TSX2  ! X66_ARET

(unnamed)
 Sect OctLoc
   1     000   000000 006014   000002 000000   000001 000000   000004 000000    ................
   1     004   000005 000000   000006 000000                                    ........
      139      170
      140      171    1   END;

PL6.E3A0      #001=VWX$MAIL File=VWU$MOVEMAIL.:VMB6TSI                           WED 08/20/97 15:51 Page:15
--  Include file information  --

   XUR_ENTRY.:LIB_E05  cannot be made into a system file and is referenced.
      No diagnostics issued in procedure VWX$MAIL.
PL6.E3A0      #001=VWX$MAIL File=VWU$MOVEMAIL.:VMB6TSI                           WED 08/20/97 15:51 Page:16

 **** Variables and constants ****

  ****  Auto variables  ****

  ****  Scalars and arrays  ****
OctLoc.c.b A Datatyp(siz) R M Lvl/name                 OctLoc.c.b A Datatyp(siz) R M Lvl/name

     7-0-0/w PTR         r     1 @EDCB                      3-0-0/w PTR         r     1 @ERR
     4-0-0/w PTR         r     1 @V1                        5-0-0/w PTR         r     1 @V2
     6-0-0/w PTR         r     1 @V3                       *0-0-0/w SBIN        r     1 EDCB
    *0-0-0/w SBIN        r     1 ERR                       *0-0-0/d VECT        r     1 V1
    *0-0-0/d VECT        r     1 V2                        *0-0-0/d VECT        r     1 V3


   Procedure VWX$MAIL requires 63 words for executable code.
   Procedure VWX$MAIL requires 14 words of local(AUTO) storage.

    No errors detected in file VWU$MOVEMAIL.:VMB6TSI    .
PL6.E3A0      #001=VWX$MAIL File=VWU$MOVEMAIL.:VMB6TSI                           WED 08/20/97 15:51 Page:17
          *** CROSS REFERENCE LISTING ***
**     DENOTES     IDENTIFIER DEFINITION
<<                 IDENTIFIER'S VALUE SET
>>                 IDENTIFIER'S VALUE USED
<>                 IDENTIFIER SET AND/OR USED
--                 IDENTIFIER REFERENCED
PL6.E3A0      #001=VWX$MAIL File=VWU$MOVEMAIL.:VMB6TSI                           WED 08/20/97 15:51 Page:18
          MINI XREF LISTING

EDCB
       115**DCL        64--PROC      130--IF        131<>CALL
ERR
       111**DCL        64--PROC      131<>CALL      140<>CALL      149<>CALL      158<>CALL      167<>CALL
V1
       112**DCL        64--PROC      139--IF        149<>CALL      158<>CALL      167<>CALL
V2
       113**DCL        64--PROC      148--IF        158<>CALL      167<>CALL
V3
       114**DCL        64--PROC      157--IF        167<>CALL
XUR$ERRMSG
        87**DCL-ENT   131--CALL      140--CALL      149--CALL      158--CALL      167--CALL
