VERSION B06

PL6.E3A0      #001=VWY$YOUCALLD File=VWY$YOUCALLD.:VMB6TSI                       WED 08/20/97 15:51 Page:1
        1        1        /*M* VWY$YOUCALLD - Field BREAK key for online user. */
        2        2        /*T***********************************************************/
        3        3        /*T*                                                         */
        4        4        /*T* Copyright (c) Bull HN Information Systems Inc., 1997    */
        5        5        /*T*                                                         */
        6        6        /*T***********************************************************/
        7        7
        8        8        /*F**
        9        9        *
       10       10        *   NAME:  VWY$YOUCALLD
       11       11        *
       12       12        *   PURPOSE:
       13       13        *       To field BREAK events.
       14       14        *
       15       15        *   DESCRIPTION:
       16       16        *       VWY$YOUCALLD is entered asynchronously when the online user hits
       17       17        *       the BREAK key.
       18       18        *
       19       19        *   REFERENCE:
       20       20        *       None.
       21       21        *
       22       22        ****/
       23       23
       24       24        /*D**
       25       25        *
       26       26        *   NAME:  VWY$YOUCALLD
       27       27        *
       28       28        *   CALL:
       29       29        *       Asyncronous upon BREAK.
       30       30        *
       31       31        *   PARAMETERS:
       32       32        *       None examined.
       33       33        *
       34       34        *   INTERFACE:
       35       35        *       None.
       36       36        *
       37       37        *   ENVIRONMENT:
PL6.E3A0      #001=VWY$YOUCALLD File=VWY$YOUCALLD.:VMB6TSI                       WED 08/20/97 15:51 Page:2
       38       38        *       None.
       39       39        *
       40       40        *   INPUT:
       41       41        *       None.
       42       42        *
       43       43        *   OUTPUT:
       44       44        *       VW_BROKEN# is incremented, and the break count is reset.
       45       45        *       If VW_BROKEN# exceeds 3, then we exit (no one is paying
       46       46        *       attention).
       47       47        *
       48       48        *   SCRATCH:
       49       49        *       None.
       50       50        *
       51       51        *   DESCRIPTION:
       52       52        *       VWY$YOUCALLD is entered when the online user hits the BREAK key.
       53       53        *
       54       54        ****/
       55       55
       56       56        VWY$YOUCALLD: PROC ASYNC;
       57       57
       58       58        /****
       59       59        *
       60       60        *   %INCLUDEs
       61       61        *
       62       62        ****/
       63       63
       64       64        %INCLUDE CP_6;
       65     5623
       66     5624        /****
       67     5625        *
       68     5626        *   FPTs
       69     5627        *
       70     5628        ****/
       71     5629
       72     5630        %FPT_TRMPRG(RSTBRK=YES);
       73     5659
       74     5660        %FPT_EXIT(STEPCC=ABORT);
PL6.E3A0      #001=VWY$YOUCALLD File=VWY$YOUCALLD.:VMB6TSI                       WED 08/20/97 15:51 Page:3
       75     5675
       76     5676        /****
       77     5677        *
       78     5678        *   VW_BROKEN# may be SYMREFed by other routines to test whether the
       79     5679        *   BREAK key has been struck (VW_BROKEN#>0) or not (VW_BROKEN#=0).
       80     5680        *
       81     5681        ****/
       82     5682
       83     5683    1   DCL VW_BROKEN# STATIC SYMDEF       SBIN INIT(0);
       84     5684
       85     5685        /****
       86     5686        *
       87     5687        *   Tally one in VW_BROKEN#, reset the break count.  If VW_BROKEN#
       88     5688        *   is too large, the running routine isn't paying attention.  If so,
       89     5689        *   exit the job setting STEPCC to ABORT.
       90     5690        *
       91     5691        ****/
       92     5692
       93     5693    1           VW_BROKEN#=VW_BROKEN#+1;
       94     5694
       95     5695    1           CALL M$TRMPRG(FPT_TRMPRG);
       96     5696
       97     5697    1           IF VW_BROKEN#>3 THEN
       98     5698    1              CALL M$EXIT(FPT_EXIT);
       99     5699
      100     5700    1           RETURN;
      101     5701
      102     5702    1   END;

PL6.E3A0      #001=VWY$YOUCALLD File=VWY$YOUCALLD.:VMB6TSI                       WED 08/20/97 15:51 Page:4
--  Include file information  --

   CP_6_C.:LIB_E05  is referenced.
   CP_6.:LIB_E05  cannot be made into a system file and is referenced.
      No diagnostics issued in procedure VWY$YOUCALLD.

   Procedure VWY$YOUCALLD requires 13 words for executable code.
   Procedure VWY$YOUCALLD requires 4 words of local(AUTO) storage.

    No errors detected in file VWY$YOUCALLD.:VMB6TSI    .

PL6.E3A0      #001=VWY$YOUCALLD File=VWY$YOUCALLD.:VMB6TSI                       WED 08/20/97 15:51 Page:5

 Object Unit name= VWY$YOUCALLD                               File name= VWY$YOUCALLD.:VMB6TOU
 UTS= AUG 20 '97 15:51:56.44 WED                              Compiler= PL-6/E31         Sev=      00
 SharedLib= :SHARED_SYSTEM                                    Alt SharedLib=


    ****  Control sections  ****

 Sect   Type Bound  Init  Size OctSiz  Section name(segment info)
    0   DCB   even  none     0      0  M$UC
    1   Data  even  none    15     17  VWY$YOUCALLD
    2   Proc  even  none    13     15  VWY$YOUCALLD

    ****  Entry defs  ****

                              Check   Calling
                             calling  sequence
  Sect OctLoc Primary Altret sequence   type   Parms  Name
     2      0   yes            yes     Async       0  VWY$YOUCALLD

  ****  Data defs  ****

 Sect OctLoc  Name                           Sect OctLoc  Name
    1     16  VW_BROKEN#

  ****  Entry refs  ****

         Check        Calling
        calling       sequence
Altret sequence SRef   type   Args  Name
                       nStd      0 X66_AAUTO
                       nStd      0 X66_AARET
PL6.E3A0      #001=VWY$YOUCALLD File=VWY$YOUCALLD.:VMB6TSI                       WED 08/20/97 15:51 Page:6

  ****  Data refs  ****

  Flags:  r = read only, s = secondary
Flgs Name                             Flgs Name                             Flgs Name
     M$UC

  ****  Segment refs  ****

  Flags:  r = read only, s = secondary
Flgs Name                             Flgs Name                             Flgs Name
     ISSID                                 NULLSID
PL6.E3A0      #001=VWY$YOUCALLD File=VWY$YOUCALLD.:VMB6TSI                       WED 08/20/97 15:51 Page:7


        1        1        /*M* VWY$YOUCALLD - Field BREAK key for online user. */
        2        2        /*T***********************************************************/
        3        3        /*T*                                                         */
        4        4        /*T* Copyright (c) Bull HN Information Systems Inc., 1997    */
        5        5        /*T*                                                         */
        6        6        /*T***********************************************************/
        7        7
        8        8        /*F**
        9        9        *
       10       10        *   NAME:  VWY$YOUCALLD
       11       11        *
       12       12        *   PURPOSE:
       13       13        *       To field BREAK events.
       14       14        *
       15       15        *   DESCRIPTION:
       16       16        *       VWY$YOUCALLD is entered asynchronously when the online user hits
       17       17        *       the BREAK key.
       18       18        *
       19       19        *   REFERENCE:
       20       20        *       None.
       21       21        *
       22       22        ****/
       23       23
       24       24        /*D**
       25       25        *
       26       26        *   NAME:  VWY$YOUCALLD
       27       27        *
       28       28        *   CALL:
       29       29        *       Asyncronous upon BREAK.
       30       30        *
       31       31        *   PARAMETERS:
       32       32        *       None examined.
       33       33        *
       34       34        *   INTERFACE:
       35       35        *       None.
       36       36        *
PL6.E3A0      #001=VWY$YOUCALLD File=VWY$YOUCALLD.:VMB6TSI                       WED 08/20/97 15:51 Page:8
       37       37        *   ENVIRONMENT:
       38       38        *       None.
       39       39        *
       40       40        *   INPUT:
       41       41        *       None.
       42       42        *
       43       43        *   OUTPUT:
       44       44        *       VW_BROKEN# is incremented, and the break count is reset.
       45       45        *       If VW_BROKEN# exceeds 3, then we exit (no one is paying
       46       46        *       attention).
       47       47        *
       48       48        *   SCRATCH:
       49       49        *       None.
       50       50        *
       51       51        *   DESCRIPTION:
       52       52        *       VWY$YOUCALLD is entered when the online user hits the BREAK key.
       53       53        *
       54       54        ****/
       55       55
       56       56        VWY$YOUCALLD: PROC ASYNC;

     56  2 000000   000000 700200 xent  VWY$YOUCALLD TSX0  ! X66_AAUTO
         2 000001   000004 000000                    ZERO    4,0

       57       57
       58       58        /****
       59       59        *
       60       60        *   %INCLUDEs
       61       61        *
       62       62        ****/
       63       63
       64       64        %INCLUDE CP_6;
       65     5623
       66     5624        /****
       67     5625        *
       68     5626        *   FPTs
       69     5627        *
PL6.E3A0      #001=VWY$YOUCALLD File=VWY$YOUCALLD.:VMB6TSI                       WED 08/20/97 15:51 Page:9
       70     5628        ****/
       71     5629
       72     5630        %FPT_TRMPRG(RSTBRK=YES);
       73     5659
       74     5660        %FPT_EXIT(STEPCC=ABORT);
       75     5675
       76     5676        /****
       77     5677        *
       78     5678        *   VW_BROKEN# may be SYMREFed by other routines to test whether the
       79     5679        *   BREAK key has been struck (VW_BROKEN#>0) or not (VW_BROKEN#=0).
       80     5680        *
       81     5681        ****/
       82     5682
       83     5683    1   DCL VW_BROKEN# STATIC SYMDEF       SBIN INIT(0);
       84     5684
       85     5685        /****
       86     5686        *
       87     5687        *   Tally one in VW_BROKEN#, reset the break count.  If VW_BROKEN#
       88     5688        *   is too large, the running routine isn't paying attention.  If so,
       89     5689        *   exit the job setting STEPCC to ABORT.
       90     5690        *
       91     5691        ****/
       92     5692
       93     5693    1           VW_BROKEN#=VW_BROKEN#+1;

   5693  2 000002   000016 054000 1                  AOS     VW_BROKEN#

       94     5694
       95     5695    1           CALL M$TRMPRG(FPT_TRMPRG);

   5695  2 000003   000000 630400 1                  EPPR0   FPT_TRMPRG
         2 000004   160004 713400                    CLIMB   57348
         2 000005   400400 401760                    pmme    nvectors=2

       96     5696
       97     5697    1           IF VW_BROKEN#>3 THEN

PL6.E3A0      #001=VWY$YOUCALLD File=VWY$YOUCALLD.:VMB6TSI                       WED 08/20/97 15:51 Page:10
   5697  2 000006   000016 235000 1                  LDA     VW_BROKEN#
         2 000007   000003 115007                    CMPA    3,DL
         2 000010   000014 604400 2                  TMOZ    s:5700

       98     5698    1              CALL M$EXIT(FPT_EXIT);

   5698  2 000011   000010 630400 1                  EPPR0   FPT_EXIT
         2 000012   000001 713400                    CLIMB   exit
         2 000013   400400 401760                    pmme    nvectors=2

       99     5699
      100     5700    1           RETURN;

   5700  2 000014   000000 702200 xent               TSX2  ! X66_AARET

FPT_TRMPRG
 Sect OctLoc
   1     000   000003 777640   000004 006000   000000 177640   000000 006014    ................
   1     004   000000 000000   000000 000000   004000 000000   000000 000000    ................

FPT_EXIT
 Sect OctLoc
   1     010   000001 777640   000014 006000   000000 177640   000000 006014    ................
   1     014   006000 000000   000000 000000                                    ........

VW_BROKEN#
 Sect OctLoc
   1     016   000000 000000                                                    ....
      101     5701
      102     5702    1   END;

PL6.E3A0      #001=VWY$YOUCALLD File=VWY$YOUCALLD.:VMB6TSI                       WED 08/20/97 15:51 Page:11
--  Include file information  --

   CP_6_C.:LIB_E05  is referenced.
   CP_6.:LIB_E05  cannot be made into a system file and is referenced.
      No diagnostics issued in procedure VWY$YOUCALLD.
PL6.E3A0      #001=VWY$YOUCALLD File=VWY$YOUCALLD.:VMB6TSI                       WED 08/20/97 15:51 Page:12

 **** Variables and constants ****

  ****  Section 001  Data  VWY$YOUCALLD

  ****  Scalars and arrays  ****
OctLoc.c.b A Datatyp(siz) R M Lvl/name                 OctLoc.c.b A Datatyp(siz) R M Lvl/name

    10-0-0/d STRC(216)   r     1 FPT_EXIT                   0-0-0/d STRC(288)   r     1 FPT_TRMPRG
    16-0-0/w SBIN        r     1 VW_BROKEN#

  ****  BASED and DCB variables  ****

  ****  Scalars and arrays  ****
OctLoc.c.b A Datatyp(siz) R M Lvl/name                 OctLoc.c.b A Datatyp(siz) R M Lvl/name

     0-0-0N  NULL        r     1 M$UC


   Procedure VWY$YOUCALLD requires 13 words for executable code.
   Procedure VWY$YOUCALLD requires 4 words of local(AUTO) storage.

    No errors detected in file VWY$YOUCALLD.:VMB6TSI    .
PL6.E3A0      #001=VWY$YOUCALLD File=VWY$YOUCALLD.:VMB6TSI                       WED 08/20/97 15:51 Page:13
          *** CROSS REFERENCE LISTING ***
**     DENOTES     IDENTIFIER DEFINITION
<<                 IDENTIFIER'S VALUE SET
>>                 IDENTIFIER'S VALUE USED
<>                 IDENTIFIER SET AND/OR USED
--                 IDENTIFIER REFERENCED
PL6.E3A0      #001=VWY$YOUCALLD File=VWY$YOUCALLD.:VMB6TSI                       WED 08/20/97 15:51 Page:14
          MINI XREF LISTING

FPT_EXIT
      5671**DCL      5698<>CALL
FPT_EXIT.V
      5671**DCL      5671--DCLINIT
FPT_EXIT.V.STEPCC#
      5672**DCL      5672--REDEF
FPT_TRMPRG
      5646**DCL      5695<>CALL
FPT_TRMPRG.V
      5653**DCL      5648--DCLINIT
FPT_TRMPRG.V.CTLFLG.RSTBRK#
      5654**DCL      5655--REDEF
M$EXIT
      5563**DCL-ENT  5698--CALL
M$TRMPRG
      5576**DCL-ENT  5695--CALL
VW_BROKEN#
      5683**DCL      5693<<ASSIGN   5693>>ASSIGN   5697>>IF
