VERSION A06

PL6.E3A0      #001=X8AE$LONG_EDITED_MOVE File=X8AE.:X8A6TSI                      SAT 08/09/97 10:43 Page:1
        1        1        /*M* X8AE$LONG_EDITED_MOVE  - No description. */
        2        2        /*T***********************************************************/
        3        3        /*T*                                                         */
        4        4        /*T* Copyright (c) Bull HN Information Systems Inc., 1997    */
        5        5        /*T*                                                         */
        6        6        /*T***********************************************************/
        7        7        X8AE$LONG_EDITED_MOVE:  PROC (SEND_FLD, REC_FLD, PIC_STR, DSC_BLK);
        8        8        /*P*
        9        9             NAME: X8AE$LONG_EDITED_MOVE
       10       10             PURPOSE:
       11       11                   Perform long edited moves of length > 63 charaters.
       12       12             DESCRIPTION:
       13       13                  None.
       14       14        */
       15       15        %EJECT;
PL6.E3A0      #001=X8AE$LONG_EDITED_MOVE File=X8AE.:X8A6TSI                      SAT 08/09/97 10:43 Page:2
       16       16        /*D*
       17       17             NAME: X8AE$LONG_EDITED_MOVE
       18       18             CALL:
       19       19                  unknown
       20       20             PARAMETERS:
       21       21                    SEND_FLD    --  Sending field.
       22       22                    REC_FLD     --  Receiving field.
       23       23                    PIC_STR     --  Picture string.
       24       24                    DSC_BLK     --  Descriptor block containing the lengths of the
       25       25                                    sending field, picture string and the receiving
       26       26                                    field.
       27       27             INTERFACE:
       28       28                    LARGE_MOVE  --  Performs multiple character moves.
       29       29                    X9OS        --  Operator segment (calling routine).
       30       30             ENVIRONMENT:
       31       31                  None.
       32       32             INPUT:
       33       33                  None.
       34       34             OUTPUT:
       35       35                    REC_FLD  --  Receiving field.
       36       36             SCRATCH:
       37       37                  None.
       38       38             DESCRIPTION:
       39       39                    This routine performs long edited moves which exceed the
       40       40                  hardware limit of 63.  The routine is driven by the picture
       41       41                  string.  Each character of the picture string is peeled off and
       42       42                  the appropriate action is performed for that character.  Slashes (/)
       43       43                  and blanks (B) are placed directly into the receiving field at the
       44       44                  current index (REC_NDX) position.  A's, X's, and 9's cause one
       45       45                  character from the sending field to be moved into the receiving
       46       46                  field.  ('s are the start of a multiple character move.  The
       47       47                  number enclosed in the parathesis is removed and used as the
       48       48                  length of the move.  If the receiving field is larger than the
       49       49                  sending field, then the receiving field is filled with blanks.
       50       50                  If the reverse is true, then the sending field is truncated
       51       51                  on the right.
       52       52        */
PL6.E3A0      #001=X8AE$LONG_EDITED_MOVE File=X8AE.:X8A6TSI                      SAT 08/09/97 10:43 Page:3
       53       53
       54       54            %INCLUDE X8A_LIBCOM;
       55      274
       56      275
       57      276    1       DCL 1 DSC_BLK           ALIGNED,
       58      277    1             2 SEND_LEN        UBIN WORD UNAL,
       59      278    1             2 REC_LEN         UBIN WORD UNAL,
       60      279    1             2 PIC_LEN         UBIN WORD UNAL;
       61      280    1       DCL SEND_FLD            CHAR( DSC_BLK.SEND_LEN );
       62      281    1       DCL REC_FLD             CHAR( DSC_BLK.REC_LEN  );
       63      282    1       DCL PIC_STR             CHAR( DSC_BLK.PIC_LEN  );
       64      283    1       DCL DIGIT               CHAR(1);
       65      284    1       DCL SEND_NDX            SBIN WORD;
       66      285    1       DCL REC_NDX             SBIN WORD;
       67      286    1       DCL PIC_NDX             SBIN WORD;
       68      287    1       DCL BLANK_FILL          BIT(1);
       69      288
       70      289        %EJECT;
PL6.E3A0      #001=X8AE$LONG_EDITED_MOVE File=X8AE.:X8A6TSI                      SAT 08/09/97 10:43 Page:4
       71      290    1       BLANK_FILL = %FALSE;
       72      291    1       SEND_NDX = 0;
       73      292    1       REC_NDX  = 0;
       74      293    1       PIC_NDX  = 0;
       75      294
       76      295    2       DO WHILE (PIC_NDX <= DSC_BLK.PIC_LEN );
       77      296    2         DIGIT = SUBSTR (PIC_STR, PIC_NDX, 1);
       78      297    2         PIC_NDX = PIC_NDX + 1;
       79      298
       80      299    3         DO CASE ( ASCBIN( DIGIT ));
       81      300    3           CASE (%BIN_SLASH);
       82      301    3             SUBSTR( REC_FLD, REC_NDX, 1) = '/';
       83      302    3             REC_NDX = REC_NDX + 1;
       84      303
       85      304    3           CASE ( %B );
       86      305    3             SUBSTR ( REC_FLD, REC_NDX, 1) = ' ';
       87      306    3             REC_NDX = REC_NDX + 1;
       88      307
       89      308    3           CASE ( %BIN_0 );
       90      309    3             SUBSTR ( REC_FLD, REC_NDX, 1) = '0';
       91      310    3             REC_NDX = REC_NDX + 1;
       92      311
       93      312    3           CASE (%A, %X, %BIN_9);
       94      313    3             IF BLANK_FILL THEN
       95      314    3               SUBSTR(REC_FLD, REC_NDX, 1) = ' ';
       96      315    3             ELSE
       97      316    4               DO;
       98      317    4                 SUBSTR( REC_FLD, REC_NDX, 1) = SUBSTR( SEND_FLD, SEND_NDX, 1);
       99      318    4                 SEND_NDX = SEND_NDX + 1;
      100      319    4                 IF SEND_NDX > DSC_BLK.SEND_LEN THEN
      101      320    4                   BLANK_FILL = %TRUE;
      102      321    4               END;
      103      322    3             REC_NDX = REC_NDX + 1;
      104      323
      105      324    3           CASE(%BIN_L_PARA);     /*  LEFT PARANTHESIS */
      106      325    3             CALL LARGE_MOVE;
      107      326    3         END; /* CASE */
PL6.E3A0      #001=X8AE$LONG_EDITED_MOVE File=X8AE.:X8A6TSI                      SAT 08/09/97 10:43 Page:5
      108      327    2       END; /* WHILE */
      109      328        %EJECT;
PL6.E3A0      #001=X8AE$LONG_EDITED_MOVE File=X8AE.:X8A6TSI                      SAT 08/09/97 10:43 Page:6
      110      329    1     LARGE_MOVE:  PROC;
      111      330        /*I*
      112      331             NAME: LONG_MOVE
      113      332             PURPOSE:
      114      333
      115      334                    Performs multiple character moves.
      116      335             CALL:
      117      336                    CALL LONG_MOVE;
      118      337             PARAMETERS:
      119      338                  None
      120      339             DATA:
      121      340                    PIC_STR  -- Picture string.
      122      341                    PIC_NDX  -- Picture string index.
      123      342                    SEND_FLD -- Sending field.
      124      343                    SEND_NDX -- Sending field index.
      125      344                    REC_NDX  -- Receiving field index.
      126      345                    SEND_LEN -- Sending field length.
      127      346             DESCRIPTION:
      128      347                    First, the repeated character (REP_TYPE) and the current
      129      348                  picture string index (PIC_NDX => START) are saved.  Then the
      130      349                  repeat factor (MULT_LEN) is removed from the picture string.
      131      350                  Then, depending on the repaet character, a move action is performed.
      132      351        */
      133      352
      134      353    2       DCL I            SBIN WORD;
      135      354    2       DCL START        SBIN WORD;
      136      355    2       DCL MULT_LEN     SBIN WORD;
      137      356    2       DCL REP_TYPE     CHAR(1);
      138      357    2       DCL REMAIN_LEN   SBIN WORD;
      139      358
      140      359        %EJECT;
PL6.E3A0      #001=X8AE$LONG_EDITED_MOVE File=X8AE.:X8A6TSI                      SAT 08/09/97 10:43 Page:7
      141      360    2       REP_TYPE = SUBSTR (PIC_STR, PIC_NDX-2, 1);
      142      361    2       START = PIC_NDX;
      143      362
      144      363    3       DO UNTIL ( SUBSTR( PIC_STR, PIC_NDX, 1) = ')' );
      145      364    3         PIC_NDX = PIC_NDX + 1;
      146      365    3       END; /* UNTIL */
      147      366
      148      367    2       CALL CHARBIN (MULT_LEN, SUBSTR( PIC_STR, START, PIC_NDX-START));
      149      368    2       MULT_LEN = MULT_LEN - 1;
      150      369
      151      370    3       DO CASE ( ASCBIN( REP_TYPE ));
      152      371    3         CASE(%B);
      153      372    4           DO I = REC_NDX TO REC_NDX +MULT_LEN;
      154      373    4             SUBSTR( REC_FLD, I, 1) = ' ';
      155      374    4           END; /* INDEX */
      156      375    3           REC_NDX = REC_NDX + MULT_LEN;
      157      376
      158      377    3         CASE(%BIN_0);
      159      378    4           DO I = REC_NDX TO REC_NDX +MULT_LEN;
      160      379    4             SUBSTR( REC_FLD, I, 1) = '0';
      161      380    4           END; /* INDEX */
      162      381    3           REC_NDX = REC_NDX + MULT_LEN;
      163      382
      164      383    3         CASE (%BIN_SLASH);
      165      384    4           DO I = REC_NDX TO REC_NDX +MULT_LEN;
      166      385    4             SUBSTR( REC_FLD, I, 1) = '/';
      167      386    4           END; /* INDEX */
      168      387    3           REC_NDX = REC_NDX + MULT_LEN;
      169      388
      170      389    3         CASE (%A, %X, %BIN_9);
      171      390    3           IF BLANK_FILL THEN
      172      391    3             SUBSTR( REC_FLD, REC_NDX, MULT_LEN ) = ' ';
      173      392    3          ELSE
      174      393    3            IF SEND_NDX + MULT_LEN <= DSC_BLK.SEND_LEN THEN
      175      394    4              DO;
      176      395    4                SUBSTR( REC_FLD,REC_NDX,MULT_LEN) =
      177      396    4                  SUBSTR( SEND_FLD,SEND_NDX,MULT_LEN);
PL6.E3A0      #001=X8AE$LONG_EDITED_MOVE File=X8AE.:X8A6TSI                      SAT 08/09/97 10:43 Page:8
      178      397    4                SEND_NDX = SEND_NDX + MULT_LEN;
      179      398    4              END;
      180      399    3            ELSE
      181      400    4              DO;
      182      401    4                REMAIN_LEN = DSC_BLK.SEND_LEN - SEND_NDX;
      183      402    4                SUBSTR( REC_FLD, REC_NDX, REMAIN_LEN) =
      184      403    4                   SUBSTR( SEND_FLD, SEND_NDX, REMAIN_LEN);
      185      404    4                SUBSTR( REC_FLD, REC_NDX+REMAIN_LEN, MULT_LEN-REMAIN_LEN ) = ' ';
      186      405    4                BLANK_FILL = %TRUE;
      187      406    4              END;
      188      407
      189      408    3         REC_NDX = REC_NDX + MULT_LEN;
      190      409
      191      410    3       END; /* CASE */
      192      411
      193      412    2     END LARGE_MOVE;  /* PROC */
      194      413    1   END X8AE$LONG_EDITED_MOVE;  /* PROC */
      195      414        %EJECT;
PL6.E3A0      #001=X8AE$LONG_EDITED_MOVE File=X8AE.:X8A6TSI                      SAT 08/09/97 10:43 Page:9

PL6.E3A0      #001=X8AE$LONG_EDITED_MOVE File=X8AE.:X8A6TSI                      SAT 08/09/97 10:43 Page:10
--  Include file information  --

   X8A_LIBCOM.:X8A6TOU  cannot be made into a system file and is referenced.
      No diagnostics issued in procedure X8AE$LONG_EDITED_MOVE.

   Procedure X8AE$LONG_EDITED_MOVE requires 327 words for executable code.
   Procedure X8AE$LONG_EDITED_MOVE requires 58 words of local(AUTO) storage.

    No errors detected in file X8AE.:X8A6TSI    .

PL6.E3A0      #001=X8AE$LONG_EDITED_MOVE File=X8AE.:X8A6TSI                      SAT 08/09/97 10:43 Page:11

 Object Unit name= X8AE$LONG_EDITED_MOVE                      File name= X8AE.:X8A6TOU
 UTS= AUG 09 '97 10:43:21.84 SAT                              Compiler= PL-6/E31         Sev=      00
 SharedLib= :SHARED_SYSTEM                                    Alt SharedLib=


    ****  Control sections  ****

 Sect   Type Bound  Init  Size OctSiz  Section name(segment info)
    0  LblCom even  none    20     24  LIBCOM
    1  LblCom even  none     1      1  DEC_OR_COMMA
    2  LblCom even  none    20     24  IN_TEMP
    3  LblCom even  none     1      1  OVRCHR
    4  LblCom even  none     1      1  SELECT_TIME
    5  LblCom even  none     1      1  NO_ADVANCE_OFFSET
    6  LblCom even  none    18     22  DSPLY_SAVE
    7  LblCom even  none     3      3  D_DATE
    8  LblCom even  none     3      3  D_TIME
    9  LblCom even  none     1      1  D_DAY
   10  LblCom even  none     2      2  C_DATE
   11  LblCom even  none     2      2  C_TIME
   12  LblCom even  none     2      2  C_DAY
   13  LblCom even  none     1      1  RTHOLD2
   14  LblCom even  none     1      1  LTHOLD2
   15  LblCom even  none     1      1  NDX2
   16  LblCom even  none     1      1  IN_LEN
   17   Proc  even  none   327    507  X8AE$LONG_EDITED_MOVE
   18  RoData even  none     4      4  X8AE$LONG_EDITED_MOVE

    ****  Entry defs  ****

                              Check   Calling
                             calling  sequence
  Sect OctLoc Primary Altret sequence   type   Parms  Name
    17      0   yes            yes      Std        4  X8AE$LONG_EDITED_MOVE
PL6.E3A0      #001=X8AE$LONG_EDITED_MOVE File=X8AE.:X8A6TSI                      SAT 08/09/97 10:43 Page:12

  ****  Entry refs  ****

         Check        Calling
        calling       sequence
Altret sequence SRef   type   Args  Name
                       nStd      0 X66_AUTO_4
                       nStd      0 X66_ARET
PL6.E3A0      #001=X8AE$LONG_EDITED_MOVE File=X8AE.:X8A6TSI                      SAT 08/09/97 10:43 Page:13


        1        1        /*M* X8AE$LONG_EDITED_MOVE  - No description. */
        2        2        /*T***********************************************************/
        3        3        /*T*                                                         */
        4        4        /*T* Copyright (c) Bull HN Information Systems Inc., 1997    */
        5        5        /*T*                                                         */
        6        6        /*T***********************************************************/
        7        7        X8AE$LONG_EDITED_MOVE:  PROC (SEND_FLD, REC_FLD, PIC_STR, DSC_BLK);

      7 17 000000   000000 700200 xent  X8AE$LONG_E* TSX0  ! X66_AUTO_4
        17 000001   000072 000004                    ZERO    58,4

        8        8        /*P*
        9        9             NAME: X8AE$LONG_EDITED_MOVE
       10       10             PURPOSE:
       11       11                   Perform long edited moves of length > 63 charaters.
       12       12             DESCRIPTION:
       13       13                  None.
       14       14        */
       15       15        %EJECT;
PL6.E3A0      #001=X8AE$LONG_EDITED_MOVE File=X8AE.:X8A6TSI                      SAT 08/09/97 10:43 Page:14
       16       16        /*D*
       17       17             NAME: X8AE$LONG_EDITED_MOVE
       18       18             CALL:
       19       19                  unknown
       20       20             PARAMETERS:
       21       21                    SEND_FLD    --  Sending field.
       22       22                    REC_FLD     --  Receiving field.
       23       23                    PIC_STR     --  Picture string.
       24       24                    DSC_BLK     --  Descriptor block containing the lengths of the
       25       25                                    sending field, picture string and the receiving
       26       26                                    field.
       27       27             INTERFACE:
       28       28                    LARGE_MOVE  --  Performs multiple character moves.
       29       29                    X9OS        --  Operator segment (calling routine).
       30       30             ENVIRONMENT:
       31       31                  None.
       32       32             INPUT:
       33       33                  None.
       34       34             OUTPUT:
       35       35                    REC_FLD  --  Receiving field.
       36       36             SCRATCH:
       37       37                  None.
       38       38             DESCRIPTION:
       39       39                    This routine performs long edited moves which exceed the
       40       40                  hardware limit of 63.  The routine is driven by the picture
       41       41                  string.  Each character of the picture string is peeled off and
       42       42                  the appropriate action is performed for that character.  Slashes (/)
       43       43                  and blanks (B) are placed directly into the receiving field at the
       44       44                  current index (REC_NDX) position.  A's, X's, and 9's cause one
       45       45                  character from the sending field to be moved into the receiving
       46       46                  field.  ('s are the start of a multiple character move.  The
       47       47                  number enclosed in the parathesis is removed and used as the
       48       48                  length of the move.  If the receiving field is larger than the
       49       49                  sending field, then the receiving field is filled with blanks.
       50       50                  If the reverse is true, then the sending field is truncated
       51       51                  on the right.
       52       52        */
PL6.E3A0      #001=X8AE$LONG_EDITED_MOVE File=X8AE.:X8A6TSI                      SAT 08/09/97 10:43 Page:15
       53       53
       54       54            %INCLUDE X8A_LIBCOM;
       55      274
       56      275
       57      276    1       DCL 1 DSC_BLK           ALIGNED,
       58      277    1             2 SEND_LEN        UBIN WORD UNAL,
       59      278    1             2 REC_LEN         UBIN WORD UNAL,
       60      279    1             2 PIC_LEN         UBIN WORD UNAL;
       61      280    1       DCL SEND_FLD            CHAR( DSC_BLK.SEND_LEN );
       62      281    1       DCL REC_FLD             CHAR( DSC_BLK.REC_LEN  );
       63      282    1       DCL PIC_STR             CHAR( DSC_BLK.PIC_LEN  );
       64      283    1       DCL DIGIT               CHAR(1);
       65      284    1       DCL SEND_NDX            SBIN WORD;
       66      285    1       DCL REC_NDX             SBIN WORD;
       67      286    1       DCL PIC_NDX             SBIN WORD;
       68      287    1       DCL BLANK_FILL          BIT(1);
       69      288
       70      289        %EJECT;
PL6.E3A0      #001=X8AE$LONG_EDITED_MOVE File=X8AE.:X8A6TSI                      SAT 08/09/97 10:43 Page:16
       71      290    1       BLANK_FILL = %FALSE;

    290 17 000002   200060 450100                    STZ     BLANK_FILL,,AUTO

       72      291    1       SEND_NDX = 0;

    291 17 000003   200055 450100                    STZ     SEND_NDX,,AUTO

       73      292    1       REC_NDX  = 0;

    292 17 000004   200056 450100                    STZ     REC_NDX,,AUTO

       74      293    1       PIC_NDX  = 0;

    293 17 000005   200057 450100                    STZ     PIC_NDX,,AUTO

       75      294
       76      295    2       DO WHILE (PIC_NDX <= DSC_BLK.PIC_LEN );

    295 17 000006   200006 470500                    LDP0    @DSC_BLK,,AUTO
        17 000007   000002 236100                    LDQ     2,,PR0
        17 000010   000013 604000 17                 TMI     s:296
        17 000011   200057 116100                    CMPQ    PIC_NDX,,AUTO
        17 000012   000204 604000 17                 TMI     s:327+5

       77      296    2         DIGIT = SUBSTR (PIC_STR, PIC_NDX, 1);

    296 17 000013   200006 470500                    LDP0    @DSC_BLK,,AUTO
        17 000014   000002 720100                    LXL0    2,,PR0
        17 000015   200005 471500                    LDP1    @PIC_STR,,AUTO
        17 000016   200057 235100                    LDA     PIC_NDX,,AUTO
        17 000017   040100 100505                    MLR     fill='040'O
        17 000020   100000 000001                    ADSC9   0,A,PR1                  cn=0,n=1
        17 000021   200054 000001                    ADSC9   DIGIT,,AUTO              cn=0,n=1

       78      297    2         PIC_NDX = PIC_NDX + 1;

PL6.E3A0      #001=X8AE$LONG_EDITED_MOVE File=X8AE.:X8A6TSI                      SAT 08/09/97 10:43 Page:17
    297 17 000022   200057 054100                    AOS     PIC_NDX,,AUTO

       79      298
       80      299    3         DO CASE ( ASCBIN( DIGIT ));

    299 17 000023   200054 236100                    LDQ     DIGIT,,AUTO
        17 000024   000033 772000                    QRL     27
        17 000025   000050 136007                    SBLQ    40,DL
        17 000026   000061 116007                    CMPQ    49,DL
        17 000027   000031 602006 17                 TNC     s:299+6,QL
        17 000030   000177 710000 17                 TRA     s:327
        17 000031   000175 710000 17                 TRA     s:325
        17 000032   000177 710000 17                 TRA     s:327
        17 000033   000177 710000 17                 TRA     s:327
        17 000034   000177 710000 17                 TRA     s:327
        17 000035   000177 710000 17                 TRA     s:327
        17 000036   000177 710000 17                 TRA     s:327
        17 000037   000177 710000 17                 TRA     s:327
        17 000040   000112 710000 17                 TRA     s:301
        17 000041   000132 710000 17                 TRA     s:309
        17 000042   000177 710000 17                 TRA     s:327
        17 000043   000177 710000 17                 TRA     s:327
        17 000044   000177 710000 17                 TRA     s:327
        17 000045   000177 710000 17                 TRA     s:327
        17 000046   000177 710000 17                 TRA     s:327
        17 000047   000177 710000 17                 TRA     s:327
        17 000050   000177 710000 17                 TRA     s:327
        17 000051   000177 710000 17                 TRA     s:327
        17 000052   000142 710000 17                 TRA     s:313
        17 000053   000177 710000 17                 TRA     s:327
        17 000054   000177 710000 17                 TRA     s:327
        17 000055   000177 710000 17                 TRA     s:327
        17 000056   000177 710000 17                 TRA     s:327
        17 000057   000177 710000 17                 TRA     s:327
        17 000060   000177 710000 17                 TRA     s:327
        17 000061   000177 710000 17                 TRA     s:327
        17 000062   000142 710000 17                 TRA     s:313
PL6.E3A0      #001=X8AE$LONG_EDITED_MOVE File=X8AE.:X8A6TSI                      SAT 08/09/97 10:43 Page:18
        17 000063   000122 710000 17                 TRA     s:305
        17 000064   000177 710000 17                 TRA     s:327
        17 000065   000177 710000 17                 TRA     s:327
        17 000066   000177 710000 17                 TRA     s:327
        17 000067   000177 710000 17                 TRA     s:327
        17 000070   000177 710000 17                 TRA     s:327
        17 000071   000177 710000 17                 TRA     s:327
        17 000072   000177 710000 17                 TRA     s:327
        17 000073   000177 710000 17                 TRA     s:327
        17 000074   000177 710000 17                 TRA     s:327
        17 000075   000177 710000 17                 TRA     s:327
        17 000076   000177 710000 17                 TRA     s:327
        17 000077   000177 710000 17                 TRA     s:327
        17 000100   000177 710000 17                 TRA     s:327
        17 000101   000177 710000 17                 TRA     s:327
        17 000102   000177 710000 17                 TRA     s:327
        17 000103   000177 710000 17                 TRA     s:327
        17 000104   000177 710000 17                 TRA     s:327
        17 000105   000177 710000 17                 TRA     s:327
        17 000106   000177 710000 17                 TRA     s:327
        17 000107   000177 710000 17                 TRA     s:327
        17 000110   000177 710000 17                 TRA     s:327
        17 000111   000142 710000 17                 TRA     s:313

       81      300    3           CASE (%BIN_SLASH);

       82      301    3             SUBSTR( REC_FLD, REC_NDX, 1) = '/';

    301 17 000112   000001 721100                    LXL1    1,,PR0
        17 000113   200004 473500                    LDP3    @REC_FLD,,AUTO
        17 000114   200056 235100                    LDA     REC_NDX,,AUTO
        17 000115   040105 100400                    MLR     fill='040'O
        17 000116   000000 000001 18                 ADSC9   0                        cn=0,n=1
        17 000117   300000 000001                    ADSC9   0,A,PR3                  cn=0,n=1

       83      302    3             REC_NDX = REC_NDX + 1;

PL6.E3A0      #001=X8AE$LONG_EDITED_MOVE File=X8AE.:X8A6TSI                      SAT 08/09/97 10:43 Page:19
    302 17 000120   200056 054100                    AOS     REC_NDX,,AUTO
        17 000121   000177 710000 17                 TRA     s:327

       84      303
       85      304    3           CASE ( %B );

       86      305    3             SUBSTR ( REC_FLD, REC_NDX, 1) = ' ';

    305 17 000122   000001 721100                    LXL1    1,,PR0
        17 000123   200004 473500                    LDP3    @REC_FLD,,AUTO
        17 000124   200056 235100                    LDA     REC_NDX,,AUTO
        17 000125   040105 100400                    MLR     fill='040'O
        17 000126   000001 000001 18                 ADSC9   1                        cn=0,n=1
        17 000127   300000 000001                    ADSC9   0,A,PR3                  cn=0,n=1

       87      306    3             REC_NDX = REC_NDX + 1;

    306 17 000130   200056 054100                    AOS     REC_NDX,,AUTO
        17 000131   000177 710000 17                 TRA     s:327

       88      307
       89      308    3           CASE ( %BIN_0 );

       90      309    3             SUBSTR ( REC_FLD, REC_NDX, 1) = '0';

    309 17 000132   000001 721100                    LXL1    1,,PR0
        17 000133   200004 473500                    LDP3    @REC_FLD,,AUTO
        17 000134   200056 235100                    LDA     REC_NDX,,AUTO
        17 000135   040105 100400                    MLR     fill='040'O
        17 000136   000002 000001 18                 ADSC9   2                        cn=0,n=1
        17 000137   300000 000001                    ADSC9   0,A,PR3                  cn=0,n=1

       91      310    3             REC_NDX = REC_NDX + 1;

    310 17 000140   200056 054100                    AOS     REC_NDX,,AUTO
        17 000141   000177 710000 17                 TRA     s:327

PL6.E3A0      #001=X8AE$LONG_EDITED_MOVE File=X8AE.:X8A6TSI                      SAT 08/09/97 10:43 Page:20
       92      311
       93      312    3           CASE (%A, %X, %BIN_9);

       94      313    3             IF BLANK_FILL THEN

    313 17 000142   200060 234100                    SZN     BLANK_FILL,,AUTO
        17 000143   000153 605000 17                 TPL     s:317

       95      314    3               SUBSTR(REC_FLD, REC_NDX, 1) = ' ';

    314 17 000144   000001 721100                    LXL1    1,,PR0
        17 000145   200004 473500                    LDP3    @REC_FLD,,AUTO
        17 000146   200056 235100                    LDA     REC_NDX,,AUTO
        17 000147   040105 100400                    MLR     fill='040'O
        17 000150   000001 000001 18                 ADSC9   1                        cn=0,n=1
        17 000151   300000 000001                    ADSC9   0,A,PR3                  cn=0,n=1
        17 000152   000173 710000 17                 TRA     s:322

       96      315    3             ELSE
       97      316    4               DO;

       98      317    4                 SUBSTR( REC_FLD, REC_NDX, 1) = SUBSTR( SEND_FLD, SEND_NDX, 1);

    317 17 000153   000001 721100                    LXL1    1,,PR0
        17 000154   000000 722100                    LXL2    0,,PR0
        17 000155   200003 473500                    LDP3    @SEND_FLD,,AUTO
        17 000156   200055 235100                    LDA     SEND_NDX,,AUTO
        17 000157   200004 474500                    LDP4    @REC_FLD,,AUTO
        17 000160   200056 236100                    LDQ     REC_NDX,,AUTO
        17 000161   040106 100505                    MLR     fill='040'O
        17 000162   300000 000001                    ADSC9   0,A,PR3                  cn=0,n=1
        17 000163   400000 000001                    ADSC9   0,Q,PR4                  cn=0,n=1

       99      318    4                 SEND_NDX = SEND_NDX + 1;

    318 17 000164   200055 054100                    AOS     SEND_NDX,,AUTO

PL6.E3A0      #001=X8AE$LONG_EDITED_MOVE File=X8AE.:X8A6TSI                      SAT 08/09/97 10:43 Page:21
      100      319    4                 IF SEND_NDX > DSC_BLK.SEND_LEN THEN

    319 17 000165   000000 236100                    LDQ     0,,PR0
        17 000166   000173 604000 17                 TMI     s:322
        17 000167   200055 116100                    CMPQ    SEND_NDX,,AUTO
        17 000170   000173 605000 17                 TPL     s:322

      101      320    4                   BLANK_FILL = %TRUE;

    320 17 000171   400000 236003                    LDQ     -131072,DU
        17 000172   200060 756100                    STQ     BLANK_FILL,,AUTO

      102      321    4               END;

      103      322    3             REC_NDX = REC_NDX + 1;

    322 17 000173   200056 054100                    AOS     REC_NDX,,AUTO
        17 000174   000177 710000 17                 TRA     s:327

      104      323
      105      324    3           CASE(%BIN_L_PARA);     /*  LEFT PARANTHESIS */

      106      325    3             CALL LARGE_MOVE;

    325 17 000175   000205 701000 17                 TSX1    LARGE_MOVE
        17 000176   000000 011000                    NOP     0

      107      326    3         END; /* CASE */

      108      327    2       END; /* WHILE */

    327 17 000177   200006 470500                    LDP0    @DSC_BLK,,AUTO
        17 000200   000002 236100                    LDQ     2,,PR0
        17 000201   000013 604000 17                 TMI     s:296
        17 000202   200057 116100                    CMPQ    PIC_NDX,,AUTO
        17 000203   000013 605000 17                 TPL     s:296
        17 000204   000506 710000 17                 TRA     s:413
PL6.E3A0      #001=X8AE$LONG_EDITED_MOVE File=X8AE.:X8A6TSI                      SAT 08/09/97 10:43 Page:22

      109      328        %EJECT;
PL6.E3A0      #001=X8AE$LONG_EDITED_MOVE File=X8AE.:X8A6TSI                      SAT 08/09/97 10:43 Page:23
      110      329    1     LARGE_MOVE:  PROC;

    329 17 000205   200062 741300       LARGE_MOVE   STX1  ! BLANK_FILL+2,,AUTO

      111      330        /*I*
      112      331             NAME: LONG_MOVE
      113      332             PURPOSE:
      114      333
      115      334                    Performs multiple character moves.
      116      335             CALL:
      117      336                    CALL LONG_MOVE;
      118      337             PARAMETERS:
      119      338                  None
      120      339             DATA:
      121      340                    PIC_STR  -- Picture string.
      122      341                    PIC_NDX  -- Picture string index.
      123      342                    SEND_FLD -- Sending field.
      124      343                    SEND_NDX -- Sending field index.
      125      344                    REC_NDX  -- Receiving field index.
      126      345                    SEND_LEN -- Sending field length.
      127      346             DESCRIPTION:
      128      347                    First, the repeated character (REP_TYPE) and the current
      129      348                  picture string index (PIC_NDX => START) are saved.  Then the
      130      349                  repeat factor (MULT_LEN) is removed from the picture string.
      131      350                  Then, depending on the repaet character, a move action is performed.
      132      351        */
      133      352
      134      353    2       DCL I            SBIN WORD;
      135      354    2       DCL START        SBIN WORD;
      136      355    2       DCL MULT_LEN     SBIN WORD;
      137      356    2       DCL REP_TYPE     CHAR(1);
      138      357    2       DCL REMAIN_LEN   SBIN WORD;
      139      358
      140      359        %EJECT;
PL6.E3A0      #001=X8AE$LONG_EDITED_MOVE File=X8AE.:X8A6TSI                      SAT 08/09/97 10:43 Page:24
      141      360    2       REP_TYPE = SUBSTR (PIC_STR, PIC_NDX-2, 1);

    360 17 000206   200006 470500                    LDP0    @DSC_BLK,,AUTO
        17 000207   000002 720100                    LXL0    2,,PR0
        17 000210   200005 471500                    LDP1    @PIC_STR,,AUTO
        17 000211   200057 235100                    LDA     PIC_NDX,,AUTO
        17 000212   040100 100505                    MLR     fill='040'O
        17 000213   177777 400001                    ADSC9   -1,A,PR1                 cn=2,n=1
        17 000214   200066 000001                    ADSC9   REP_TYPE,,AUTO           cn=0,n=1

      142      361    2       START = PIC_NDX;

    361 17 000215   200064 755100                    STA     START,,AUTO

      143      362
      144      363    3       DO UNTIL ( SUBSTR( PIC_STR, PIC_NDX, 1) = ')' );

      145      364    3         PIC_NDX = PIC_NDX + 1;

    364 17 000216   200057 054100                    AOS     PIC_NDX,,AUTO

      146      365    3       END; /* UNTIL */

    365 17 000217   200006 470500                    LDP0    @DSC_BLK,,AUTO
        17 000220   000002 720100                    LXL0    2,,PR0
        17 000221   200005 471500                    LDP1    @PIC_STR,,AUTO
        17 000222   200057 235100                    LDA     PIC_NDX,,AUTO
        17 000223   040000 106505                    CMPC    fill='040'O
        17 000224   100000 000001                    ADSC9   0,A,PR1                  cn=0,n=1
        17 000225   000003 000001 18                 ADSC9   3                        cn=0,n=1
        17 000226   000216 601000 17                 TNZ     s:364

      147      366
      148      367    2       CALL CHARBIN (MULT_LEN, SUBSTR( PIC_STR, START, PIC_NDX-START));

    367 17 000227   200057 236100                    LDQ     PIC_NDX,,AUTO
        17 000230   200064 136100                    SBLQ    START,,AUTO
PL6.E3A0      #001=X8AE$LONG_EDITED_MOVE File=X8AE.:X8A6TSI                      SAT 08/09/97 10:43 Page:25
        17 000231   000000 621006                    EAX1    0,QL
        17 000232   200064 236100                    LDQ     START,,AUTO
        17 000233   000100 305546                    DTB
        17 000234   100000 030011                    NDSC9   0,Q,PR1                  cn=0,s=nosgn,sf=0,n=*X1
        17 000235   200065 000004                    NDSC9   MULT_LEN,,AUTO           cn=0,s=lsgnf,sf=0,n=4

      149      368    2       MULT_LEN = MULT_LEN - 1;

    368 17 000236   000001 336007                    LCQ     1,DL
        17 000237   200065 056100                    ASQ     MULT_LEN,,AUTO

      150      369
      151      370    3       DO CASE ( ASCBIN( REP_TYPE ));

    370 17 000240   200066 236100                    LDQ     REP_TYPE,,AUTO
        17 000241   000033 772000                    QRL     27
        17 000242   000057 136007                    SBLQ    47,DL
        17 000243   000052 116007                    CMPQ    42,DL
        17 000244   000246 602006 17                 TNC     s:370+6,QL
        17 000245   000504 710000 17                 TRA     s:412
        17 000246   000366 710000 17                 TRA     s:384
        17 000247   000343 710000 17                 TRA     s:378
        17 000250   000504 710000 17                 TRA     s:412
        17 000251   000504 710000 17                 TRA     s:412
        17 000252   000504 710000 17                 TRA     s:412
        17 000253   000504 710000 17                 TRA     s:412
        17 000254   000504 710000 17                 TRA     s:412
        17 000255   000504 710000 17                 TRA     s:412
        17 000256   000504 710000 17                 TRA     s:412
        17 000257   000504 710000 17                 TRA     s:412
        17 000260   000411 710000 17                 TRA     s:390
        17 000261   000504 710000 17                 TRA     s:412
        17 000262   000504 710000 17                 TRA     s:412
        17 000263   000504 710000 17                 TRA     s:412
        17 000264   000504 710000 17                 TRA     s:412
        17 000265   000504 710000 17                 TRA     s:412
        17 000266   000504 710000 17                 TRA     s:412
PL6.E3A0      #001=X8AE$LONG_EDITED_MOVE File=X8AE.:X8A6TSI                      SAT 08/09/97 10:43 Page:26
        17 000267   000504 710000 17                 TRA     s:412
        17 000270   000411 710000 17                 TRA     s:390
        17 000271   000320 710000 17                 TRA     s:372
        17 000272   000504 710000 17                 TRA     s:412
        17 000273   000504 710000 17                 TRA     s:412
        17 000274   000504 710000 17                 TRA     s:412
        17 000275   000504 710000 17                 TRA     s:412
        17 000276   000504 710000 17                 TRA     s:412
        17 000277   000504 710000 17                 TRA     s:412
        17 000300   000504 710000 17                 TRA     s:412
        17 000301   000504 710000 17                 TRA     s:412
        17 000302   000504 710000 17                 TRA     s:412
        17 000303   000504 710000 17                 TRA     s:412
        17 000304   000504 710000 17                 TRA     s:412
        17 000305   000504 710000 17                 TRA     s:412
        17 000306   000504 710000 17                 TRA     s:412
        17 000307   000504 710000 17                 TRA     s:412
        17 000310   000504 710000 17                 TRA     s:412
        17 000311   000504 710000 17                 TRA     s:412
        17 000312   000504 710000 17                 TRA     s:412
        17 000313   000504 710000 17                 TRA     s:412
        17 000314   000504 710000 17                 TRA     s:412
        17 000315   000504 710000 17                 TRA     s:412
        17 000316   000504 710000 17                 TRA     s:412
        17 000317   000411 710000 17                 TRA     s:390

      152      371    3         CASE(%B);

      153      372    4           DO I = REC_NDX TO REC_NDX +MULT_LEN;

    372 17 000320   200056 236100                    LDQ     REC_NDX,,AUTO
        17 000321   200063 756100                    STQ     I,,AUTO
        17 000322   000333 710000 17                 TRA     s:374+1

      154      373    4             SUBSTR( REC_FLD, I, 1) = ' ';

    373 17 000323   200006 470500                    LDP0    @DSC_BLK,,AUTO
PL6.E3A0      #001=X8AE$LONG_EDITED_MOVE File=X8AE.:X8A6TSI                      SAT 08/09/97 10:43 Page:27
        17 000324   000001 720100                    LXL0    1,,PR0
        17 000325   200004 471500                    LDP1    @REC_FLD,,AUTO
        17 000326   200063 235100                    LDA     I,,AUTO
        17 000327   040105 100400                    MLR     fill='040'O
        17 000330   000001 000001 18                 ADSC9   1                        cn=0,n=1
        17 000331   100000 000001                    ADSC9   0,A,PR1                  cn=0,n=1

      155      374    4           END; /* INDEX */

    374 17 000332   200063 054100                    AOS     I,,AUTO
        17 000333   200056 236100                    LDQ     REC_NDX,,AUTO
        17 000334   200065 036100                    ADLQ    MULT_LEN,,AUTO
        17 000335   200063 116100                    CMPQ    I,,AUTO
        17 000336   000323 605000 17                 TPL     s:373

      156      375    3           REC_NDX = REC_NDX + MULT_LEN;

    375 17 000337   200056 236100                    LDQ     REC_NDX,,AUTO
        17 000340   200065 036100                    ADLQ    MULT_LEN,,AUTO
        17 000341   200056 756100                    STQ     REC_NDX,,AUTO
        17 000342   000504 710000 17                 TRA     s:412

      157      376
      158      377    3         CASE(%BIN_0);

      159      378    4           DO I = REC_NDX TO REC_NDX +MULT_LEN;

    378 17 000343   200056 236100                    LDQ     REC_NDX,,AUTO
        17 000344   200063 756100                    STQ     I,,AUTO
        17 000345   000356 710000 17                 TRA     s:380+1

      160      379    4             SUBSTR( REC_FLD, I, 1) = '0';

    379 17 000346   200006 470500                    LDP0    @DSC_BLK,,AUTO
        17 000347   000001 720100                    LXL0    1,,PR0
        17 000350   200004 471500                    LDP1    @REC_FLD,,AUTO
        17 000351   200063 235100                    LDA     I,,AUTO
PL6.E3A0      #001=X8AE$LONG_EDITED_MOVE File=X8AE.:X8A6TSI                      SAT 08/09/97 10:43 Page:28
        17 000352   040105 100400                    MLR     fill='040'O
        17 000353   000002 000001 18                 ADSC9   2                        cn=0,n=1
        17 000354   100000 000001                    ADSC9   0,A,PR1                  cn=0,n=1

      161      380    4           END; /* INDEX */

    380 17 000355   200063 054100                    AOS     I,,AUTO
        17 000356   200056 236100                    LDQ     REC_NDX,,AUTO
        17 000357   200065 036100                    ADLQ    MULT_LEN,,AUTO
        17 000360   200063 116100                    CMPQ    I,,AUTO
        17 000361   000346 605000 17                 TPL     s:379

      162      381    3           REC_NDX = REC_NDX + MULT_LEN;

    381 17 000362   200056 236100                    LDQ     REC_NDX,,AUTO
        17 000363   200065 036100                    ADLQ    MULT_LEN,,AUTO
        17 000364   200056 756100                    STQ     REC_NDX,,AUTO
        17 000365   000504 710000 17                 TRA     s:412

      163      382
      164      383    3         CASE (%BIN_SLASH);

      165      384    4           DO I = REC_NDX TO REC_NDX +MULT_LEN;

    384 17 000366   200056 236100                    LDQ     REC_NDX,,AUTO
        17 000367   200063 756100                    STQ     I,,AUTO
        17 000370   000401 710000 17                 TRA     s:386+1

      166      385    4             SUBSTR( REC_FLD, I, 1) = '/';

    385 17 000371   200006 470500                    LDP0    @DSC_BLK,,AUTO
        17 000372   000001 720100                    LXL0    1,,PR0
        17 000373   200004 471500                    LDP1    @REC_FLD,,AUTO
        17 000374   200063 235100                    LDA     I,,AUTO
        17 000375   040105 100400                    MLR     fill='040'O
        17 000376   000000 000001 18                 ADSC9   0                        cn=0,n=1
        17 000377   100000 000001                    ADSC9   0,A,PR1                  cn=0,n=1
PL6.E3A0      #001=X8AE$LONG_EDITED_MOVE File=X8AE.:X8A6TSI                      SAT 08/09/97 10:43 Page:29

      167      386    4           END; /* INDEX */

    386 17 000400   200063 054100                    AOS     I,,AUTO
        17 000401   200056 236100                    LDQ     REC_NDX,,AUTO
        17 000402   200065 036100                    ADLQ    MULT_LEN,,AUTO
        17 000403   200063 116100                    CMPQ    I,,AUTO
        17 000404   000371 605000 17                 TPL     s:385

      168      387    3           REC_NDX = REC_NDX + MULT_LEN;

    387 17 000405   200056 236100                    LDQ     REC_NDX,,AUTO
        17 000406   200065 036100                    ADLQ    MULT_LEN,,AUTO
        17 000407   200056 756100                    STQ     REC_NDX,,AUTO
        17 000410   000504 710000 17                 TRA     s:412

      169      388
      170      389    3         CASE (%A, %X, %BIN_9);

      171      390    3           IF BLANK_FILL THEN

    390 17 000411   200060 234100                    SZN     BLANK_FILL,,AUTO
        17 000412   000423 605000 17                 TPL     s:393

      172      391    3             SUBSTR( REC_FLD, REC_NDX, MULT_LEN ) = ' ';

    391 17 000413   000001 721100                    LXL1    1,,PR0
        17 000414   200004 473500                    LDP3    @REC_FLD,,AUTO
        17 000415   200065 722100                    LXL2    MULT_LEN,,AUTO
        17 000416   200056 236100                    LDQ     REC_NDX,,AUTO
        17 000417   040146 100400                    MLR     fill='040'O
        17 000420   000001 000001 18                 ADSC9   1                        cn=0,n=1
        17 000421   300000 000012                    ADSC9   0,Q,PR3                  cn=0,n=*X2
        17 000422   000501 710000 17                 TRA     s:408

      173      392    3          ELSE
      174      393    3            IF SEND_NDX + MULT_LEN <= DSC_BLK.SEND_LEN THEN
PL6.E3A0      #001=X8AE$LONG_EDITED_MOVE File=X8AE.:X8A6TSI                      SAT 08/09/97 10:43 Page:30

    393 17 000423   200055 236100                    LDQ     SEND_NDX,,AUTO
        17 000424   200065 036100                    ADLQ    MULT_LEN,,AUTO
        17 000425   000431 604000 17                 TMI     s:395
        17 000426   000000 116100                    CMPQ    0,,PR0
        17 000427   000431 600000 17                 TZE     s:395
        17 000430   000446 603000 17                 TRC     s:401

      175      394    4              DO;

      176      395    4                SUBSTR( REC_FLD,REC_NDX,MULT_LEN) =

    395 17 000431   000001 721100                    LXL1    1,,PR0
        17 000432   000000 722100                    LXL2    0,,PR0
        17 000433   200003 473500                    LDP3    @SEND_FLD,,AUTO
        17 000434   200065 723100                    LXL3    MULT_LEN,,AUTO
        17 000435   200055 236100                    LDQ     SEND_NDX,,AUTO
        17 000436   200004 474500                    LDP4    @REC_FLD,,AUTO
        17 000437   200056 235100                    LDA     REC_NDX,,AUTO
        17 000440   040145 100546                    MLR     fill='040'O
        17 000441   300000 000013                    ADSC9   0,Q,PR3                  cn=0,n=*X3
        17 000442   400000 000013                    ADSC9   0,A,PR4                  cn=0,n=*X3

      177      396    4                  SUBSTR( SEND_FLD,SEND_NDX,MULT_LEN);
      178      397    4                SEND_NDX = SEND_NDX + MULT_LEN;

    397 17 000443   200065 036100                    ADLQ    MULT_LEN,,AUTO
        17 000444   200055 756100                    STQ     SEND_NDX,,AUTO

      179      398    4              END;

    398 17 000445   000501 710000 17                 TRA     s:408

      180      399    3            ELSE
      181      400    4              DO;

      182      401    4                REMAIN_LEN = DSC_BLK.SEND_LEN - SEND_NDX;
PL6.E3A0      #001=X8AE$LONG_EDITED_MOVE File=X8AE.:X8A6TSI                      SAT 08/09/97 10:43 Page:31

    401 17 000446   000000 236100                    LDQ     0,,PR0
        17 000447   200055 136100                    SBLQ    SEND_NDX,,AUTO
        17 000450   200067 756100                    STQ     REMAIN_LEN,,AUTO

      183      402    4                SUBSTR( REC_FLD, REC_NDX, REMAIN_LEN) =

    402 17 000451   000001 721100                    LXL1    1,,PR0
        17 000452   000000 722100                    LXL2    0,,PR0
        17 000453   200003 473500                    LDP3    @SEND_FLD,,AUTO
        17 000454   000000 623006                    EAX3    0,QL
        17 000455   200055 236100                    LDQ     SEND_NDX,,AUTO
        17 000456   200004 474500                    LDP4    @REC_FLD,,AUTO
        17 000457   200067 724100                    LXL4    REMAIN_LEN,,AUTO
        17 000460   200056 235100                    LDA     REC_NDX,,AUTO
        17 000461   040145 100546                    MLR     fill='040'O
        17 000462   300000 000013                    ADSC9   0,Q,PR3                  cn=0,n=*X3
        17 000463   400000 000014                    ADSC9   0,A,PR4                  cn=0,n=*X4

      184      403    4                   SUBSTR( SEND_FLD, SEND_NDX, REMAIN_LEN);
      185      404    4                SUBSTR( REC_FLD, REC_NDX+REMAIN_LEN, MULT_LEN-REMAIN_LEN ) = ' ';

    404 17 000464   000001 720100                    LXL0    1,,PR0
        17 000465   200056 236100                    LDQ     REC_NDX,,AUTO
        17 000466   200067 036100                    ADLQ    REMAIN_LEN,,AUTO
        17 000467   200070 756100                    STQ     REMAIN_LEN+1,,AUTO
        17 000470   200065 236100                    LDQ     MULT_LEN,,AUTO
        17 000471   200067 136100                    SBLQ    REMAIN_LEN,,AUTO
        17 000472   000000 620006                    EAX0    0,QL
        17 000473   200070 236100                    LDQ     REMAIN_LEN+1,,AUTO
        17 000474   040146 100400                    MLR     fill='040'O
        17 000475   000001 000001 18                 ADSC9   1                        cn=0,n=1
        17 000476   400000 000010                    ADSC9   0,Q,PR4                  cn=0,n=*X0

      186      405    4                BLANK_FILL = %TRUE;

    405 17 000477   400000 236003                    LDQ     -131072,DU
PL6.E3A0      #001=X8AE$LONG_EDITED_MOVE File=X8AE.:X8A6TSI                      SAT 08/09/97 10:43 Page:32
        17 000500   200060 756100                    STQ     BLANK_FILL,,AUTO

      187      406    4              END;

      188      407
      189      408    3         REC_NDX = REC_NDX + MULT_LEN;

    408 17 000501   200056 236100                    LDQ     REC_NDX,,AUTO
        17 000502   200065 036100                    ADLQ    MULT_LEN,,AUTO
        17 000503   200056 756100                    STQ     REC_NDX,,AUTO

      190      409
      191      410    3       END; /* CASE */

      192      411
      193      412    2     END LARGE_MOVE;  /* PROC */

    412 17 000504   200062 221300                    LDX1  ! BLANK_FILL+2,,AUTO
        17 000505   000001 702211                    TSX2  ! 1,X1

      194      413    1   END X8AE$LONG_EDITED_MOVE;  /* PROC */

    413 17 000506   000000 702200 xent               TSX2  ! X66_ARET
      195      414        %EJECT;
PL6.E3A0      #001=X8AE$LONG_EDITED_MOVE File=X8AE.:X8A6TSI                      SAT 08/09/97 10:43 Page:33

PL6.E3A0      #001=X8AE$LONG_EDITED_MOVE File=X8AE.:X8A6TSI                      SAT 08/09/97 10:43 Page:34
--  Include file information  --

   X8A_LIBCOM.:X8A6TOU  cannot be made into a system file and is referenced.
      No diagnostics issued in procedure X8AE$LONG_EDITED_MOVE.
PL6.E3A0      #001=X8AE$LONG_EDITED_MOVE File=X8AE.:X8A6TSI                      SAT 08/09/97 10:43 Page:35

 **** Variables and constants ****

  ****  Section 000 LblCom LIBCOM

  ****  Scalars and arrays  ****
OctLoc.c.b A Datatyp(siz) R M Lvl/name                 OctLoc.c.b A Datatyp(siz) R M Lvl/name

     0-0-0/w STRC(720)         1 LIBCOM

  ****  Section 001 LblCom DEC_OR_COMMA

  ****  Scalars and arrays  ****
OctLoc.c.b A Datatyp(siz) R M Lvl/name                 OctLoc.c.b A Datatyp(siz) R M Lvl/name

     0-0-0/c CHAR              1 DEC_OR_COMMA

  ****  Section 002 LblCom IN_TEMP

  ****  Scalars and arrays  ****
OctLoc.c.b A Datatyp(siz) R M Lvl/name                 OctLoc.c.b A Datatyp(siz) R M Lvl/name

     0-0-0/c CHAR(80)          1 IN_TEMP

  ****  Section 003 LblCom OVRCHR

  ****  Scalars and arrays  ****
OctLoc.c.b A Datatyp(siz) R M Lvl/name                 OctLoc.c.b A Datatyp(siz) R M Lvl/name

     0-0-0/c CHAR              1 OVRCHR

  ****  Section 004 LblCom SELECT_TIME

  ****  Scalars and arrays  ****
OctLoc.c.b A Datatyp(siz) R M Lvl/name                 OctLoc.c.b A Datatyp(siz) R M Lvl/name

     0-0-0/w UBIN              1 SELECT_TIME

PL6.E3A0      #001=X8AE$LONG_EDITED_MOVE File=X8AE.:X8A6TSI                      SAT 08/09/97 10:43 Page:36
  ****  Section 005 LblCom NO_ADVANCE_OFFSET

  ****  Scalars and arrays  ****
OctLoc.c.b A Datatyp(siz) R M Lvl/name                 OctLoc.c.b A Datatyp(siz) R M Lvl/name

     0-0-0/w UBIN              1 NO_ADVANCE_OFFSET

  ****  Section 006 LblCom DSPLY_SAVE

  ****  Scalars and arrays  ****
OctLoc.c.b A Datatyp(siz) R M Lvl/name                 OctLoc.c.b A Datatyp(siz) R M Lvl/name

     0-0-0/c CHAR(72)          1 DSPLY_SAVE

  ****  Section 007 LblCom D_DATE

  ****  Scalars and arrays  ****
OctLoc.c.b A Datatyp(siz) R M Lvl/name                 OctLoc.c.b A Datatyp(siz) R M Lvl/name

     0-0-0/c CHAR(10)          1 D_DATE

  ****  Section 008 LblCom D_TIME

  ****  Scalars and arrays  ****
OctLoc.c.b A Datatyp(siz) R M Lvl/name                 OctLoc.c.b A Datatyp(siz) R M Lvl/name

     0-0-0/c CHAR(11)          1 D_TIME

  ****  Section 009 LblCom D_DAY

  ****  Scalars and arrays  ****
OctLoc.c.b A Datatyp(siz) R M Lvl/name                 OctLoc.c.b A Datatyp(siz) R M Lvl/name

     0-0-0/c CHAR(3)           1 D_DAY

  ****  Section 010 LblCom C_DATE

PL6.E3A0      #001=X8AE$LONG_EDITED_MOVE File=X8AE.:X8A6TSI                      SAT 08/09/97 10:43 Page:37
  ****  Scalars and arrays  ****
OctLoc.c.b A Datatyp(siz) R M Lvl/name                 OctLoc.c.b A Datatyp(siz) R M Lvl/name

     0-0-0/c CHAR(6)           1 C_DATE

  ****  Section 011 LblCom C_TIME

  ****  Scalars and arrays  ****
OctLoc.c.b A Datatyp(siz) R M Lvl/name                 OctLoc.c.b A Datatyp(siz) R M Lvl/name

     0-0-0/c CHAR(8)           1 C_TIME

  ****  Section 012 LblCom C_DAY

  ****  Scalars and arrays  ****
OctLoc.c.b A Datatyp(siz) R M Lvl/name                 OctLoc.c.b A Datatyp(siz) R M Lvl/name

     0-0-0/c CHAR(5)           1 C_DAY

  ****  Section 013 LblCom RTHOLD2

  ****  Scalars and arrays  ****
OctLoc.c.b A Datatyp(siz) R M Lvl/name                 OctLoc.c.b A Datatyp(siz) R M Lvl/name

     0-0-0/w UBIN              1 RTHOLD2

  ****  Section 014 LblCom LTHOLD2

  ****  Scalars and arrays  ****
OctLoc.c.b A Datatyp(siz) R M Lvl/name                 OctLoc.c.b A Datatyp(siz) R M Lvl/name

     0-0-0/w UBIN              1 LTHOLD2

  ****  Section 015 LblCom NDX2

  ****  Scalars and arrays  ****
OctLoc.c.b A Datatyp(siz) R M Lvl/name                 OctLoc.c.b A Datatyp(siz) R M Lvl/name
PL6.E3A0      #001=X8AE$LONG_EDITED_MOVE File=X8AE.:X8A6TSI                      SAT 08/09/97 10:43 Page:38

     0-0-0/w SBIN              1 NDX2

  ****  Section 016 LblCom IN_LEN

  ****  Scalars and arrays  ****
OctLoc.c.b A Datatyp(siz) R M Lvl/name                 OctLoc.c.b A Datatyp(siz) R M Lvl/name

     0-0-0/w UBIN              1 IN_LEN

  ****  Auto variables  ****

  ****  Scalars and arrays  ****
OctLoc.c.b A Datatyp(siz) R M Lvl/name                 OctLoc.c.b A Datatyp(siz) R M Lvl/name

     6-0-0/w PTR         r     1 @DSC_BLK                   5-0-0/w PTR         r     1 @PIC_STR
     4-0-0/w PTR         r     1 @REC_FLD                   3-0-0/w PTR         r     1 @SEND_FLD
    60-0-0/b BIT         r     1 BLANK_FILL                54-0-0/c CHAR        r     1 DIGIT
    *0-0-0/w STRC(108)   r     1 DSC_BLK                   63-0-0/w SBIN        r     1 I
     7-0-0/w SBIN              1 LT                        10-0-0/c CHAR(65)          1 LTHOLD
    65-0-0/w SBIN        r     1 MULT_LEN                  52-0-0/w SBIN              1 NDX
    53-0-0/w SBIN              1 NDX3                      57-0-0/w SBIN        r     1 PIC_NDX
    *0-0-0/c ACHR        r     1 PIC_STR                   *0-0-0/c ACHR        r     1 REC_FLD
    56-0-0/w SBIN        r     1 REC_NDX                   67-0-0/w SBIN        r     1 REMAIN_LEN
    66-0-0/c CHAR        r     1 REP_TYPE                  31-0-0/c CHAR(65)          1 RTHOLD
    *0-0-0/c ACHR        r     1 SEND_FLD                  55-0-0/w SBIN        r     1 SEND_NDX
    64-0-0/w SBIN        r     1 START


   Procedure X8AE$LONG_EDITED_MOVE requires 327 words for executable code.
   Procedure X8AE$LONG_EDITED_MOVE requires 58 words of local(AUTO) storage.

    No errors detected in file X8AE.:X8A6TSI    .
