VERSION A06

PL6.E3A0      #001=X8CO$CONV_TO_OCTAL File=X8CO.:X8A6TSI                         SAT 08/09/97 10:45 Page:1
        1        1        /*M* X8CO$CONV_TO_?    -- Contains conversions used by the library  */
        2        2        /*T***********************************************************/
        3        3        /*T*                                                         */
        4        4        /*T* Copyright (c) Bull HN Information Systems Inc., 1997    */
        5        5        /*T*                                                         */
        6        6        /*T***********************************************************/
        7        7        /*P*
        8        8             NAME: X8CO$CONV_TO_OCTAL
        9        9          PURPOSE: This entry will convert a UBIN word to an CHAR representation.
       10       10                   Used mainly by the table dumper(Z8JT), tree walker(Z8JW) and
       11       11                   runtine dianostics(X8ER,X9TR).
       12       12        */
       13       13        %INCLUDE Z9A_FLAGS;
       14       27        X8CO$CONV_TO_OCTAL: PROC( FROM, TO12 )
       15       28                            %IF GCOS;
       17       30                            %ENDIF;
       18       31                            ;
       19       32
       20       33    1       DCL FROM           UBIN WORD;
       21       34    1       DCL TO12 ( 0:11 )  CHAR(1) UNAL;
       22       35    1       DCL OCTALS (0:7)   CHAR(1) UNAL CONSTANT INIT(
       23       36    1                          '0','1','2','3','4','5','6','7');
       24       37            %EQU ZEROETH    = BITBIN( '100000000000'O  );
       25       38            %EQU FIRST      = BITBIN( '010000000000'O  );
       26       39            %EQU SECOND     = BITBIN( '001000000000'O  );
       27       40            %EQU THIRD      = BITBIN( '000100000000'O  );
       28       41            %EQU FOURTH     = BITBIN( '000010000000'O  );
       29       42            %EQU FIFTH      = BITBIN( '000001000000'O  );
       30       43            %EQU SIXTH      = BITBIN( '000000100000'O  );
       31       44            %EQU SEVENTH    = BITBIN( '000000010000'O  );
       32       45            %EQU EIGHTH      = BITBIN( '000000001000'O  );
       33       46            %EQU NINTH     = BITBIN( '000000000100'O  );
       34       47            %EQU TENTH      = BITBIN( '000000000010'O  );
       35       48            %EQU ELEVENTH   = BITBIN( '000000000001'O  );
       36       49            %EQU LAST       = '000000000007'O  ;
       37       50
       38       51    1       TO12(6) = OCTALS( BITBIN(BINBIT(FROM / %SIXTH,36) & %LAST ));
PL6.E3A0      #001=X8CO$CONV_TO_OCTAL File=X8CO.:X8A6TSI                         SAT 08/09/97 10:45 Page:2
       39       52    1       TO12(7) = OCTALS( BITBIN(BINBIT(FROM / %SEVENTH,36) & %LAST ));
       40       53    1       TO12(8) = OCTALS( BITBIN(BINBIT(FROM / %EIGHTH,36) & %LAST ));
       41       54    1       TO12(9) = OCTALS( BITBIN(BINBIT(FROM / %NINTH,36) & %LAST ));
       42       55    1       TO12(10) = OCTALS( BITBIN(BINBIT(FROM / %TENTH,36) & %LAST ));
       43       56    1       TO12(11) = OCTALS( BITBIN(BINBIT(FROM,36) & %LAST ));
       44       57
       45       58    1   X8CO$CONV_TO_OCTAL_HALF: ENTRY( FROM, TO12 );
       46       59
       47       60    1       TO12(0) = OCTALS( FROM / %ZEROETH);
       48       61    1       TO12(1) = OCTALS( BITBIN( BINBIT( FROM / %FIRST,36) & %LAST ));
       49       62    1       TO12(2) = OCTALS( BITBIN( BINBIT( FROM / %SECOND,36) & %LAST ));
       50       63    1       TO12(3) = OCTALS( BITBIN( BINBIT( FROM / %THIRD,36) & %LAST ));
       51       64    1       TO12(4) = OCTALS( BITBIN( BINBIT( FROM / %FOURTH,36) & %LAST ));
       52       65    1       TO12(5) = OCTALS( BITBIN( BINBIT( FROM / %FIFTH,36) & %LAST ));
       53       66
       54       67    1   END X8CO$CONV_TO_OCTAL; /* proc */
       55       68        %EOD;

PL6.E3A0      #001=X8CO$CONV_TO_OCTAL File=X8CO.:X8A6TSI                         SAT 08/09/97 10:45 Page:3
--  Include file information  --

   Z9A_FLAGS.:Z8A6TOU  is referenced.
      No diagnostics issued in procedure X8CO$CONV_TO_OCTAL.

   Procedure X8CO$CONV_TO_OCTAL requires 80 words for executable code.
   Procedure X8CO$CONV_TO_OCTAL requires 6 words of local(AUTO) storage.

PL6.E3A0      #001=X8CO$CONV_TO_OCTAL File=X8CO.:X8A6TSI                         SAT 08/09/97 10:45 Page:4

 Object Unit name= X8CO$CONV_TO_OCTAL                         File name= X8CO.:X8A6TOU
 UTS= AUG 09 '97 10:45:22.12 SAT                              Compiler= PL-6/E31         Sev=      00
 SharedLib= :SHARED_SYSTEM                                    Alt SharedLib=


    ****  Control sections  ****

 Sect   Type Bound  Init  Size OctSiz  Section name(segment info)
    0  RoData even  UTS      3      3  X8CO$CONV_TO_OCTAL
    1   Proc  even  none    80    120  X8CO$CONV_TO_OCTAL

    ****  Entry defs  ****

                              Check   Calling
                             calling  sequence
  Sect OctLoc Primary Altret sequence   type   Parms  Name
     1      0   yes            yes      Std        2  X8CO$CONV_TO_OCTAL
     1     50                  yes      Std        2  X8CO$CONV_TO_OCTAL_HALF

  ****  Entry refs  ****

         Check        Calling
        calling       sequence
Altret sequence SRef   type   Args  Name
                       nStd      0 X66_AUTO_2
                       nStd      0 X66_ARET
PL6.E3A0      #001=X8CO$CONV_TO_OCTAL File=X8CO.:X8A6TSI                         SAT 08/09/97 10:45 Page:5


        1        1        /*M* X8CO$CONV_TO_?    -- Contains conversions used by the library  */
        2        2        /*T***********************************************************/
        3        3        /*T*                                                         */
        4        4        /*T* Copyright (c) Bull HN Information Systems Inc., 1997    */
        5        5        /*T*                                                         */
        6        6        /*T***********************************************************/
        7        7        /*P*
        8        8             NAME: X8CO$CONV_TO_OCTAL
        9        9          PURPOSE: This entry will convert a UBIN word to an CHAR representation.
       10       10                   Used mainly by the table dumper(Z8JT), tree walker(Z8JW) and
       11       11                   runtine dianostics(X8ER,X9TR).
       12       12        */
       13       13        %INCLUDE Z9A_FLAGS;
       14       27        X8CO$CONV_TO_OCTAL: PROC( FROM, TO12 )

     27  1 000000   000000 700200 xent  X8CO$CONV_T* TSX0  ! X66_AUTO_2
         1 000001   000006 000002                    ZERO    6,2

       15       28                            %IF GCOS;
       17       30                            %ENDIF;
       18       31                            ;
       19       32
       20       33    1       DCL FROM           UBIN WORD;
       21       34    1       DCL TO12 ( 0:11 )  CHAR(1) UNAL;
       22       35    1       DCL OCTALS (0:7)   CHAR(1) UNAL CONSTANT INIT(
       23       36    1                          '0','1','2','3','4','5','6','7');
       24       37            %EQU ZEROETH    = BITBIN( '100000000000'O  );
       25       38            %EQU FIRST      = BITBIN( '010000000000'O  );
       26       39            %EQU SECOND     = BITBIN( '001000000000'O  );
       27       40            %EQU THIRD      = BITBIN( '000100000000'O  );
       28       41            %EQU FOURTH     = BITBIN( '000010000000'O  );
       29       42            %EQU FIFTH      = BITBIN( '000001000000'O  );
       30       43            %EQU SIXTH      = BITBIN( '000000100000'O  );
       31       44            %EQU SEVENTH    = BITBIN( '000000010000'O  );
       32       45            %EQU EIGHTH      = BITBIN( '000000001000'O  );
       33       46            %EQU NINTH     = BITBIN( '000000000100'O  );
PL6.E3A0      #001=X8CO$CONV_TO_OCTAL File=X8CO.:X8A6TSI                         SAT 08/09/97 10:45 Page:6
       34       47            %EQU TENTH      = BITBIN( '000000000010'O  );
       35       48            %EQU ELEVENTH   = BITBIN( '000000000001'O  );
       36       49            %EQU LAST       = '000000000007'O  ;
       37       50
       38       51    1       TO12(6) = OCTALS( BITBIN(BINBIT(FROM / %SIXTH,36) & %LAST ));

     51  1 000002   200003 470500                    LDP0    @FROM,,AUTO
         1 000003   000000 236100                    LDQ     0,,PR0
         1 000004   000017 772000                    QRL     15
         1 000005   000002 376000 0                  ANQ     OCTALS+2
         1 000006   200004 471500                    LDP1    @TO12,,AUTO
         1 000007   040100 100406                    MLR     fill='040'O
         1 000010   000000 000001 0                  ADSC9   OCTALS,Q                 cn=0,n=1
         1 000011   100001 400001                    ADSC9   1,,PR1                   cn=2,n=1

       39       52    1       TO12(7) = OCTALS( BITBIN(BINBIT(FROM / %SEVENTH,36) & %LAST ));

     52  1 000012   000000 236100                    LDQ     0,,PR0
         1 000013   000014 772000                    QRL     12
         1 000014   000002 376000 0                  ANQ     OCTALS+2
         1 000015   040100 100406                    MLR     fill='040'O
         1 000016   000000 000001 0                  ADSC9   OCTALS,Q                 cn=0,n=1
         1 000017   100001 600001                    ADSC9   1,,PR1                   cn=3,n=1

       40       53    1       TO12(8) = OCTALS( BITBIN(BINBIT(FROM / %EIGHTH,36) & %LAST ));

     53  1 000020   000000 236100                    LDQ     0,,PR0
         1 000021   000011 772000                    QRL     9
         1 000022   000002 376000 0                  ANQ     OCTALS+2
         1 000023   040100 100406                    MLR     fill='040'O
         1 000024   000000 000001 0                  ADSC9   OCTALS,Q                 cn=0,n=1
         1 000025   100002 000001                    ADSC9   2,,PR1                   cn=0,n=1

       41       54    1       TO12(9) = OCTALS( BITBIN(BINBIT(FROM / %NINTH,36) & %LAST ));

     54  1 000026   000000 236100                    LDQ     0,,PR0
         1 000027   000006 772000                    QRL     6
PL6.E3A0      #001=X8CO$CONV_TO_OCTAL File=X8CO.:X8A6TSI                         SAT 08/09/97 10:45 Page:7
         1 000030   000002 376000 0                  ANQ     OCTALS+2
         1 000031   040100 100406                    MLR     fill='040'O
         1 000032   000000 000001 0                  ADSC9   OCTALS,Q                 cn=0,n=1
         1 000033   100002 200001                    ADSC9   2,,PR1                   cn=1,n=1

       42       55    1       TO12(10) = OCTALS( BITBIN(BINBIT(FROM / %TENTH,36) & %LAST ));

     55  1 000034   000000 236100                    LDQ     0,,PR0
         1 000035   000003 772000                    QRL     3
         1 000036   000002 376000 0                  ANQ     OCTALS+2
         1 000037   040100 100406                    MLR     fill='040'O
         1 000040   000000 000001 0                  ADSC9   OCTALS,Q                 cn=0,n=1
         1 000041   100002 400001                    ADSC9   2,,PR1                   cn=2,n=1

       43       56    1       TO12(11) = OCTALS( BITBIN(BINBIT(FROM,36) & %LAST ));

     56  1 000042   000000 236100                    LDQ     0,,PR0
         1 000043   000002 376000 0                  ANQ     OCTALS+2
         1 000044   040100 100406                    MLR     fill='040'O
         1 000045   000000 000001 0                  ADSC9   OCTALS,Q                 cn=0,n=1
         1 000046   100002 600001                    ADSC9   2,,PR1                   cn=3,n=1
         1 000047   000052 710000 1                  TRA     s:60

       44       57
       45       58    1   X8CO$CONV_TO_OCTAL_HALF: ENTRY( FROM, TO12 );

     58  1 000050   000000 700200 xent  X8CO$CONV_T* TSX0  ! X66_AUTO_2
         1 000051   000006 000002                    ZERO    6,2

       46       59
       47       60    1       TO12(0) = OCTALS( FROM / %ZEROETH);

     60  1 000052   200003 470500                    LDP0    @FROM,,AUTO
         1 000053   000000 236100                    LDQ     0,,PR0
         1 000054   000041 772000                    QRL     33
         1 000055   200004 471500                    LDP1    @TO12,,AUTO
         1 000056   040100 100406                    MLR     fill='040'O
PL6.E3A0      #001=X8CO$CONV_TO_OCTAL File=X8CO.:X8A6TSI                         SAT 08/09/97 10:45 Page:8
         1 000057   000000 000001 0                  ADSC9   OCTALS,Q                 cn=0,n=1
         1 000060   100000 000001                    ADSC9   0,,PR1                   cn=0,n=1

       48       61    1       TO12(1) = OCTALS( BITBIN( BINBIT( FROM / %FIRST,36) & %LAST ));

     61  1 000061   000000 236100                    LDQ     0,,PR0
         1 000062   000036 772000                    QRL     30
         1 000063   000002 376000 0                  ANQ     OCTALS+2
         1 000064   040100 100406                    MLR     fill='040'O
         1 000065   000000 000001 0                  ADSC9   OCTALS,Q                 cn=0,n=1
         1 000066   100000 200001                    ADSC9   0,,PR1                   cn=1,n=1

       49       62    1       TO12(2) = OCTALS( BITBIN( BINBIT( FROM / %SECOND,36) & %LAST ));

     62  1 000067   000000 236100                    LDQ     0,,PR0
         1 000070   000033 772000                    QRL     27
         1 000071   000002 376000 0                  ANQ     OCTALS+2
         1 000072   040100 100406                    MLR     fill='040'O
         1 000073   000000 000001 0                  ADSC9   OCTALS,Q                 cn=0,n=1
         1 000074   100000 400001                    ADSC9   0,,PR1                   cn=2,n=1

       50       63    1       TO12(3) = OCTALS( BITBIN( BINBIT( FROM / %THIRD,36) & %LAST ));

     63  1 000075   000000 236100                    LDQ     0,,PR0
         1 000076   000030 772000                    QRL     24
         1 000077   000002 376000 0                  ANQ     OCTALS+2
         1 000100   040100 100406                    MLR     fill='040'O
         1 000101   000000 000001 0                  ADSC9   OCTALS,Q                 cn=0,n=1
         1 000102   100000 600001                    ADSC9   0,,PR1                   cn=3,n=1

       51       64    1       TO12(4) = OCTALS( BITBIN( BINBIT( FROM / %FOURTH,36) & %LAST ));

     64  1 000103   000000 236100                    LDQ     0,,PR0
         1 000104   000025 772000                    QRL     21
         1 000105   000002 376000 0                  ANQ     OCTALS+2
         1 000106   040100 100406                    MLR     fill='040'O
         1 000107   000000 000001 0                  ADSC9   OCTALS,Q                 cn=0,n=1
PL6.E3A0      #001=X8CO$CONV_TO_OCTAL File=X8CO.:X8A6TSI                         SAT 08/09/97 10:45 Page:9
         1 000110   100001 000001                    ADSC9   1,,PR1                   cn=0,n=1

       52       65    1       TO12(5) = OCTALS( BITBIN( BINBIT( FROM / %FIFTH,36) & %LAST ));

     65  1 000111   000000 236100                    LDQ     0,,PR0
         1 000112   000022 772000                    QRL     18
         1 000113   000002 376000 0                  ANQ     OCTALS+2
         1 000114   040100 100406                    MLR     fill='040'O
         1 000115   000000 000001 0                  ADSC9   OCTALS,Q                 cn=0,n=1
         1 000116   100001 200001                    ADSC9   1,,PR1                   cn=1,n=1

       53       66
       54       67    1   END X8CO$CONV_TO_OCTAL; /* proc */

     67  1 000117   000000 702200 xent               TSX2  ! X66_ARET
       55       68        %EOD;

PL6.E3A0      #001=X8CO$CONV_TO_OCTAL File=X8CO.:X8A6TSI                         SAT 08/09/97 10:45 Page:10
--  Include file information  --

   Z9A_FLAGS.:Z8A6TOU  is referenced.
      No diagnostics issued in procedure X8CO$CONV_TO_OCTAL.
PL6.E3A0      #001=X8CO$CONV_TO_OCTAL File=X8CO.:X8A6TSI                         SAT 08/09/97 10:45 Page:11

 **** Variables and constants ****

  ****  Section 000 RoData X8CO$CONV_TO_OCTAL

  ****  Scalars and arrays  ****
OctLoc.c.b A Datatyp(siz) R M Lvl/name                 OctLoc.c.b A Datatyp(siz) R M Lvl/name

     0-0-0/c CHAR        r     1 OCTALS(0:7)

  ****  Auto variables  ****

  ****  Scalars and arrays  ****
OctLoc.c.b A Datatyp(siz) R M Lvl/name                 OctLoc.c.b A Datatyp(siz) R M Lvl/name

     3-0-0/w PTR         r     1 @FROM                      4-0-0/w PTR         r     1 @TO12
    *0-0-0/w UBIN        r     1 FROM                      *0-0-0/c CHAR        r     1 TO12(0:11)


   Procedure X8CO$CONV_TO_OCTAL requires 80 words for executable code.
   Procedure X8CO$CONV_TO_OCTAL requires 6 words of local(AUTO) storage.

PL6.E3A0      #002=X8CO$CONV_TO_DECIMAL File=X8CO.:X8A6TSI                       SAT 08/09/97 10:45 Page:12
       56        1        /*T***********************************************************/
       57        2        /*T*                                                         */
       58        3        /*T* Copyright (c) Bull HN Information Systems Inc., 1997    */
       59        4        /*T*                                                         */
       60        5        /*T***********************************************************/
       61        6        /*P*
       62        7            NAME: X8CO$CONV_TO_DECIMAL
       63        8         PURPOSE: To convert an SBIN word to its decimal CHAR representation.
       64        9                  Used mainly runtime and compiler dianostics.
       65       10                  ( X8ER, X9TR, Z8JW, Z8JT )
       66       11        */
       67       12
       68       13        %INCLUDE Z9A_FLAGS;
       69       27        X8CO$CONV_TO_DECIMAL: PROC( FROM, TO13 )
       70       28                            %IF GCOS;
       72       30                            %ENDIF;
       73       31                            ;
       74       32
       75       33    1       DCL FROM      SBIN WORD;
       76       34    1       DCL TO13      CHAR(13);
       77       35    1       DCL I         SBIN WORD;
       78       36
       79       37    1       CALL BINCHAR( SUBSTR( TO13,1,12 ), FROM );
       80       38    1       IF FROM < 0 THEN      /* Insert sign if negative */
       81       39    1         SUBSTR( TO13,0,1 ) = '-';
       82       40    1       ELSE
       83       41    1         SUBSTR( TO13,0,1 ) = ' ';
       84       42
       85       43    2   L:  DO I = 0 TO 12;       /* Remove leading zeros */
       86       44    2         IF SUBSTR( TO13,I,1 ) = '0' THEN
       87       45    2            SUBSTR( TO13,0,1 ) = ' ';
       88       46    2         ELSE
       89       47    2           EXIT L;
       90       48    2        END;
       91       49
       92       50    1   END X8CO$CONV_TO_DECIMAL;
       93       51        %EJECT;
PL6.E3A0      #002=X8CO$CONV_TO_DECIMAL File=X8CO.:X8A6TSI                       SAT 08/09/97 10:45 Page:13

PL6.E3A0      #002=X8CO$CONV_TO_DECIMAL File=X8CO.:X8A6TSI                       SAT 08/09/97 10:45 Page:14
--  Include file information  --

   Z9A_FLAGS.:Z8A6TOU  is referenced.
      No diagnostics issued in procedure X8CO$CONV_TO_DECIMAL.

   Procedure X8CO$CONV_TO_DECIMAL requires 32 words for executable code.
   Procedure X8CO$CONV_TO_DECIMAL requires 6 words of local(AUTO) storage.

    No errors detected in file X8CO.:X8A6TSI    .

PL6.E3A0      #002=X8CO$CONV_TO_DECIMAL File=X8CO.:X8A6TSI                       SAT 08/09/97 10:45 Page:15

 Object Unit name= X8CO$CONV_TO_DECIMAL                       File name= X8CO.:X8A6TOU
 UTS= AUG 09 '97 10:45:41.92 SAT                              Compiler= PL-6/E31         Sev=      00
 SharedLib= :SHARED_SYSTEM                                    Alt SharedLib=


    ****  Control sections  ****

 Sect   Type Bound  Init  Size OctSiz  Section name(segment info)
    0   Proc  even  none    32     40  X8CO$CONV_TO_DECIMAL
    1  RoData even  none     3      3  X8CO$CONV_TO_DECIMAL

    ****  Entry defs  ****

                              Check   Calling
                             calling  sequence
  Sect OctLoc Primary Altret sequence   type   Parms  Name
     0      0   yes            yes      Std        2  X8CO$CONV_TO_DECIMAL

  ****  Entry refs  ****

         Check        Calling
        calling       sequence
Altret sequence SRef   type   Args  Name
                       nStd      0 X66_AUTO_2
                       nStd      0 X66_ARET
PL6.E3A0      #002=X8CO$CONV_TO_DECIMAL File=X8CO.:X8A6TSI                       SAT 08/09/97 10:45 Page:16


       56        1        /*T***********************************************************/
       57        2        /*T*                                                         */
       58        3        /*T* Copyright (c) Bull HN Information Systems Inc., 1997    */
       59        4        /*T*                                                         */
       60        5        /*T***********************************************************/
       61        6        /*P*
       62        7            NAME: X8CO$CONV_TO_DECIMAL
       63        8         PURPOSE: To convert an SBIN word to its decimal CHAR representation.
       64        9                  Used mainly runtime and compiler dianostics.
       65       10                  ( X8ER, X9TR, Z8JW, Z8JT )
       66       11        */
       67       12
       68       13        %INCLUDE Z9A_FLAGS;
       69       27        X8CO$CONV_TO_DECIMAL: PROC( FROM, TO13 )

     27  0 000000   000000 700200 xent  X8CO$CONV_T* TSX0  ! X66_AUTO_2
         0 000001   000006 000002                    ZERO    6,2

       70       28                            %IF GCOS;
       72       30                            %ENDIF;
       73       31                            ;
       74       32
       75       33    1       DCL FROM      SBIN WORD;
       76       34    1       DCL TO13      CHAR(13);
       77       35    1       DCL I         SBIN WORD;
       78       36
       79       37    1       CALL BINCHAR( SUBSTR( TO13,1,12 ), FROM );

     37  0 000002   200003 470500                    LDP0    @FROM,,AUTO
         0 000003   200004 471500                    LDP1    @TO13,,AUTO
         0 000004   000100 301500                    BTD
         0 000005   000000 000004                    NDSC9   0,,PR0                   cn=0,s=lsgnf,sf=0,n=4
         0 000006   100000 230014                    NDSC9   0,,PR1                   cn=1,s=nosgn,sf=0,n=12

       80       38    1       IF FROM < 0 THEN      /* Insert sign if negative */

PL6.E3A0      #002=X8CO$CONV_TO_DECIMAL File=X8CO.:X8A6TSI                       SAT 08/09/97 10:45 Page:17
     38  0 000007   000000 235100                    LDA     0,,PR0
         0 000010   000015 605000 0                  TPL     s:41

       81       39    1         SUBSTR( TO13,0,1 ) = '-';

     39  0 000011   040100 100400                    MLR     fill='040'O
         0 000012   000000 000001 1                  ADSC9   0                        cn=0,n=1
         0 000013   100000 000001                    ADSC9   0,,PR1                   cn=0,n=1
         0 000014   000020 710000 0                  TRA     L

       82       40    1       ELSE
       83       41    1         SUBSTR( TO13,0,1 ) = ' ';

     41  0 000015   040100 100400                    MLR     fill='040'O
         0 000016   000001 000001 1                  ADSC9   1                        cn=0,n=1
         0 000017   100000 000001                    ADSC9   0,,PR1                   cn=0,n=1

       84       42
       85       43    2   L:  DO I = 0 TO 12;       /* Remove leading zeros */

     43  0 000020   200005 450100       L            STZ     I,,AUTO

       86       44    2         IF SUBSTR( TO13,I,1 ) = '0' THEN

     44  0 000021   200004 470500                    LDP0    @TO13,,AUTO
         0 000022   200005 235100                    LDA     I,,AUTO
         0 000023   040000 106505                    CMPC    fill='040'O
         0 000024   000000 000001                    ADSC9   0,A,PR0                  cn=0,n=1
         0 000025   000002 000001 1                  ADSC9   2                        cn=0,n=1
         0 000026   000037 601000 0                  TNZ     s:50

       87       45    2            SUBSTR( TO13,0,1 ) = ' ';

     45  0 000027   040100 100400                    MLR     fill='040'O
         0 000030   000001 000001 1                  ADSC9   1                        cn=0,n=1
         0 000031   000000 000001                    ADSC9   0,,PR0                   cn=0,n=1
         0 000032   000033 710000 0                  TRA     s:48
PL6.E3A0      #002=X8CO$CONV_TO_DECIMAL File=X8CO.:X8A6TSI                       SAT 08/09/97 10:45 Page:18

       88       46    2         ELSE
       89       47    2           EXIT L;
       90       48    2        END;

     48  0 000033   200005 054100                    AOS     I,,AUTO
         0 000034   200005 235100                    LDA     I,,AUTO
         0 000035   000014 115007                    CMPA    12,DL
         0 000036   000021 604400 0                  TMOZ    s:44

       91       49
       92       50    1   END X8CO$CONV_TO_DECIMAL;

     50  0 000037   000000 702200 xent               TSX2  ! X66_ARET
       93       51        %EJECT;
PL6.E3A0      #002=X8CO$CONV_TO_DECIMAL File=X8CO.:X8A6TSI                       SAT 08/09/97 10:45 Page:19

PL6.E3A0      #002=X8CO$CONV_TO_DECIMAL File=X8CO.:X8A6TSI                       SAT 08/09/97 10:45 Page:20
--  Include file information  --

   Z9A_FLAGS.:Z8A6TOU  is referenced.
      No diagnostics issued in procedure X8CO$CONV_TO_DECIMAL.
PL6.E3A0      #002=X8CO$CONV_TO_DECIMAL File=X8CO.:X8A6TSI                       SAT 08/09/97 10:45 Page:21

 **** Variables and constants ****

  ****  Auto variables  ****

  ****  Scalars and arrays  ****
OctLoc.c.b A Datatyp(siz) R M Lvl/name                 OctLoc.c.b A Datatyp(siz) R M Lvl/name

     3-0-0/w PTR         r     1 @FROM                      4-0-0/w PTR         r     1 @TO13
    *0-0-0/w SBIN        r     1 FROM                       5-0-0/w SBIN        r     1 I
    *0-0-0/c CHAR(13)    r     1 TO13


   Procedure X8CO$CONV_TO_DECIMAL requires 32 words for executable code.
   Procedure X8CO$CONV_TO_DECIMAL requires 6 words of local(AUTO) storage.

    No errors detected in file X8CO.:X8A6TSI    .
