VERSION A06

PL6.E3A0      #001=X8CV$CONVERT_TO_INTEGER File=X8CV.:X8A6TSI                    SAT 08/09/97 10:47 Page:1
        1        1        /*M* X8CV$CONVERT  -- Handels conversions to and from integers.     */
        2        2        /*T***********************************************************/
        3        3        /*T*                                                         */
        4        4        /*T* Copyright (c) Bull HN Information Systems Inc., 1997    */
        5        5        /*T*                                                         */
        6        6        /*T***********************************************************/
        7        7        /*P*
        8        8             NAME: X8CV$CONVERT
        9        9          PURPOSE: To convert data items to and from integer.
       10       10
       11       11          DESCRIPTION:
       12       12                   This procedure is a library utility which will convert
       13       13             data items from integers(SBIN) into the COBOL 85 data type and
       14       14             from these data types to integers.  Procedure is currently used
       15       15             to support I-O ( Linage & relative key ).
       16       16        */
       17       17            %INCLUDE Z9A_FLAGS;
       18       31        X8CV$CONVERT_TO_INTEGER: PROC( SEND_FLD$, SEND_DESC, REC_FLD )
       19       32                                 %IF GCOS;
       21       34                                 %ENDIF;
       22       35                                 ALTRET;
       23       36
       24       37            %INCLUDE X8A_MACROS;
       25      294            %INCLUDE X9A_MACROS;
       26      325            %INCLUDE X8A_LIBCOM;
       27      545            %INCLUDE X9A_TYPES;
       28     4094
       29     4095            %EQU SBIN_HALF = 18;   /* length of the comp-7 data type */
       30     4096    1       DCL 1 SEND_DESC ALIGNED,
       31     4097             %DCL_RT_DESC(@LVL=1, @BLK=NO);
       32     4119
       33     4120    1       DCL 1 REC_DESC REDEF SEND_DESC ALIGNED,
       34     4121             %DCL_RT_DESC(@LVL=1, @BLK=NO);
       35     4143
       36     4144    1       DCL 1 SEND_DSC     ALIGNED,
       37     4145             %DESCRIPTOR( ENDING = YES );
       38     4173    1       DCL 1 REC_DSC      ALIGNED,
PL6.E3A0      #001=X8CV$CONVERT_TO_INTEGER File=X8CV.:X8A6TSI                    SAT 08/09/97 10:47 Page:2
       39     4174             %DESCRIPTOR( ENDING = YES );
       40     4202
       41     4203    1       DCL SEND_FLD$      PTR;
       42     4204    1       DCL REC_FLD$       REDEF SEND_FLD$ PTR;
       43     4205    1       DCL REC_FLD        UBIN WORD;
       44     4206    1       DCL SEND_FLD       REDEF REC_FLD UBIN WORD;
       45     4207    1       DCL SEND_HALF      SBIN HALF HALIGNED BASED( SEND_FLD$ ); /*#42918*/
       46     4208    1       DCL REC_HALF       SBIN HALF HALIGNED BASED( REC_FLD$ );  /*#42918*/
       47     4209    1       DCL SEND_WORD      SBIN WORD BASED( SEND_FLD$ );
       48     4210    1       DCL REC_WORD       SBIN WORD BASED( REC_FLD$ );
       49     4211    1       DCL TEMP_FLD       CHAR(64) STATIC;
       50     4212    1       DCL TEMP_FLD$      PTR CONSTANT INIT (ADDR(TEMP_FLD));
       51     4213    1       DCL TEMP$FLD       CHAR(TEMP_FLD_LEN) BASED(TEMP_FLD$);
       52     4214    1       DCL TEMP_FLD_LEN   SBIN;
       53     4215    1       DCL REC$FLD        CHAR(TEMP_FLD_LEN) BASED(REC_FLD$);
       54     4216    1       DCL REC_FLD_BIT_LEN SBIN;
       55     4217    1       DCL 1 REC$FLD6     ALIGNED BASED(REC_FLD$),
       56     4218    1             2 *          BIT(REC_FLD_BIT_LEN);
       57     4219    1       DCL SEND$FLD       CHAR(TEMP_FLD_LEN) BASED(SEND_FLD$);
       58     4220    1       DCL SEND_FLD_BIT_LEN SBIN;
       59     4221    1       DCL 1 SEND$FLD6    ALIGNED BASED(SEND_FLD$),
       60     4222    1             2 *          BIT(SEND_FLD_BIT_LEN);
       61     4223    1       DCL T$EBCDIC_TO_ASCII (0:511) UBIN BYTE CALIGNED SYMREF READONLY;
       62     4224    1       DCL T$GBCD_TO_ASCII (0:63) UBIN BYTE CALIGNED SYMREF READONLY;
       63     4225    1       DCL T$ASCII_TO_EBCDIC (0:511) UBIN BYTE CALIGNED SYMREF READONLY;
       64     4226    1       DCL T$ASCII_TO_GBCD (0:511) UBIN BYTE CALIGNED SYMREF READONLY;
       65     4227    1       DCL X9CV$CVDI      ENTRY(4) ALTRET;
       66     4228    1       DCL X9CV$CVID      ENTRY(4) ALTRET;      /*  integer to decimal */
       67     4229    1       DCL X9CV$CVKI      ENTRY(2) ALTRET;
       68     4230    1       DCL X9CV$CVJI      ENTRY(2) ALTRET;
       69     4231        %EJECT;
PL6.E3A0      #001=X8CV$CONVERT_TO_INTEGER File=X8CV.:X8A6TSI                    SAT 08/09/97 10:47 Page:3
       70     4232
       71     4233    2       DO CASE ( SEND_DESC.DES_W.TYPE );
       72     4234
       73     4235    2          CASE( %PACK_FIXED_NO_SIGN );    /* Comp */
       74     4236
       75     4237                 %PACK_NDSC( @DESC   = SEND_DSC,
       76     4238                             @SCALE  = SEND_DESC.DES_W.NDSC.SF,
       77     4239                             @LENGTH = SEND_DESC.DES_W.NDSC.N,
       78     4240                             @TN     = %NDSC4,
       79     4241                             @SIGN   = %NO_SIGN            );
       80     4290
       81     4291    2            REC_DSC.DESCL = 4;   /* only length is set for DTB (n=4) */
       82     4292    2            CALL X9CV$CVDI( SEND_DSC, REC_DSC, ADDR(REC_FLD), SEND_FLD$ );
       83     4293        %EJECT;
PL6.E3A0      #001=X8CV$CONVERT_TO_INTEGER File=X8CV.:X8A6TSI                    SAT 08/09/97 10:47 Page:4
       84     4294    2          CASE( %UNPACK_FIXED_NO_SIGN );  /* Display */
       85     4295
       86     4296                 %PACK_NDSC( @DESC   = SEND_DSC,
       87     4297                             @SCALE  = SEND_DESC.DES_W.NDSC.SF,
       88     4298                             @LENGTH = SEND_DESC.DES_W.NDSC.N,
       89     4299                             @TN     = %NDSC9,
       90     4300                             @SIGN   = %NO_SIGN            );
       91     4349
       92     4350    2            REC_DSC.DESCL = 4;   /* only length is set for DTB (n=4) */
       93     4351    2            TEMP_FLD_LEN = SEND_DESC.DES_W.NDSC.N;
       94     4352    3            DO CASE ( SEND_DESC.DES_W.TYPE );
       95     4353    3              CASE( %EBCDIC_FIXED_NO_SIGN );
       96     4354    3                CALL XLATE( TEMP$FLD, T$EBCDIC_TO_ASCII, SEND$FLD );
       97     4355    3              CASE( %GBCD_FIXED_NO_SIGN );
       98     4356    3                SEND_FLD_BIT_LEN = TEMP_FLD_LEN * 6;
       99     4357    3                CALL XLATE_6_TO_9( TEMP$FLD, T$GBCD_TO_ASCII, SEND$FLD6 );
      100     4358    3              CASE( %UNPACK_FIXED_NO_SIGN );
      101     4359    3                TEMP$FLD = SEND$FLD;
      102     4360    3            END;
      103     4361    2            CALL X9CV$CVDI( SEND_DSC, REC_DSC, ADDR(REC_FLD), TEMP_FLD$ );
      104     4362        %EJECT;
PL6.E3A0      #001=X8CV$CONVERT_TO_INTEGER File=X8CV.:X8A6TSI                    SAT 08/09/97 10:47 Page:5
      105     4363    2          CASE( %COMP1_DATATYPE );
      106     4364
      107     4365    2            CALL X9CV$CVJI( SEND_FLD$, REC_FLD );
      108     4366
      109     4367    2          CASE( %COMP2_DATATYPE );
      110     4368
      111     4369    2            CALL X9CV$CVKI( SEND_FLD$, REC_FLD );
      112     4370
      113     4371    2          CASE( %SBIN_DATATYPE );
      114     4372
      115     4373    2            IF SEND_DESC.DES_W.NDSC.N = %SBIN_HALF THEN
      116     4374    2              REC_FLD = SEND_HALF;                    /* Comp-7 */
      117     4375    2            ELSE
      118     4376    2              REC_FLD = SEND_WORD;                    /* Comp-6 */
      119     4377
      120     4378    2       END; /* case send_desc.type */
      121     4379    1       RETURN;
      122     4380        %EJECT;
PL6.E3A0      #001=X8CV$CONVERT_TO_INTEGER File=X8CV.:X8A6TSI                    SAT 08/09/97 10:47 Page:6
      123     4381    1   X8CV$CONVERT_FROM_INTEGER: ENTRY( SEND_FLD$, SEND_DESC, REC_FLD ) ALTRET;
      124     4382
      125     4383    2       DO CASE ( REC_DESC.DES_W.TYPE );
      126     4384
      127     4385    2          CASE( %PACK_FIXED_NO_SIGN );                /* Comp */
      128     4386
      129     4387                 %PACK_NDSC( @DESC   = REC_DSC,
      130     4388                             @SCALE  = REC_DESC.DES_W.NDSC.SF,
      131     4389                             @LENGTH = REC_DESC.DES_W.NDSC.N,
      132     4390                             @TN     = %NDSC4,
      133     4391                             @SIGN   = %NO_SIGN            );
      134     4440
      135     4441    2            SEND_DSC.DESCL = 4;   /* only length is set for BTD (n=4) */
      136     4442    2            CALL X9CV$CVID( SEND_DSC, REC_DSC, REC_FLD$, ADDR(SEND_FLD) )
      137     4443    2            WHENALTRETURN
      138     4444    3              DO;
      139     4445    3                ALTRETURN;
      140     4446    3              END;
      141     4447        %EJECT;
PL6.E3A0      #001=X8CV$CONVERT_TO_INTEGER File=X8CV.:X8A6TSI                    SAT 08/09/97 10:47 Page:7
      142     4448    2          CASE( %UNPACK_FIXED_NO_SIGN,                /* Display */
      143     4449    2                %EBCDIC_FIXED_NO_SIGN,
      144     4450    2                %GBCD_FIXED_NO_SIGN );
      145     4451
      146     4452                 %PACK_NDSC( @DESC   = REC_DSC,
      147     4453                             @SCALE  = REC_DESC.DES_W.NDSC.SF,
      148     4454                             @LENGTH = REC_DESC.DES_W.NDSC.N,
      149     4455                             @TN     = %NDSC9,
      150     4456                             @SIGN   = %NO_SIGN            );
      151     4505
      152     4506    2            SEND_DSC.DESCL = 4;   /* only length is set for BTD (n=4) */
      153     4507    2            CALL X9CV$CVID( SEND_DSC, REC_DSC, TEMP_FLD$, ADDR(SEND_FLD) )
      154     4508    2            WHENALTRETURN
      155     4509    3              DO;
      156     4510    3                ALTRETURN;
      157     4511    3              END;
      158     4512    2            TEMP_FLD_LEN = REC_DESC.DES_W.NDSC.N;
      159     4513    3            DO CASE( REC_DESC.DES_W.TYPE );
      160     4514    3              CASE( %EBCDIC_FIXED_NO_SIGN );
      161     4515    3                CALL XLATE( REC$FLD, T$ASCII_TO_EBCDIC, TEMP$FLD );
      162     4516    3              CASE( %GBCD_FIXED_NO_SIGN );
      163     4517    3                REC_FLD_BIT_LEN = TEMP_FLD_LEN * 6;
      164     4518    3                CALL XLATE_9_TO_6( REC$FLD6, T$ASCII_TO_GBCD, TEMP$FLD );
      165     4519    3              CASE( %UNPACK_FIXED_NO_SIGN );
      166     4520    3                REC$FLD = TEMP$FLD;
      167     4521    3            END;
      168     4522        %EJECT;
PL6.E3A0      #001=X8CV$CONVERT_TO_INTEGER File=X8CV.:X8A6TSI                    SAT 08/09/97 10:47 Page:8
      169     4523    2          CASE( %COMP1_DATATYPE );
      170     4524
      171     4525    2            CALL X9CV$CVJI( REC_FLD$, SEND_FLD )
      172     4526    2            WHENALTRETURN
      173     4527    3              DO;
      174     4528    3                ALTRETURN;
      175     4529    3              END;
      176     4530
      177     4531    2          CASE( %COMP2_DATATYPE );
      178     4532
      179     4533    2            CALL X9CV$CVKI( REC_FLD$, SEND_FLD )
      180     4534    2            WHENALTRETURN
      181     4535    3              DO;
      182     4536    3                ALTRETURN;
      183     4537    3              END;
      184     4538
      185     4539    2          CASE( %SBIN_DATATYPE );             /* Comp-6 & Comp-7 */
      186     4540
      187     4541    2            IF REC_DESC.DES_W.NDSC.N = %SBIN_HALF THEN
      188     4542        /*N*  -------      better add overflow test in here     -------     */
      189     4543
      190     4544    2              REC_HALF = SEND_FLD;    /* better test this one */
      191     4545    2            ELSE
      192     4546    2              REC_WORD = SEND_FLD;
      193     4547
      194     4548    2       END; /* case send_desc.type */
      195     4549    1     END X8CV$CONVERT_TO_INTEGER; /* proc */

PL6.E3A0      #001=X8CV$CONVERT_TO_INTEGER File=X8CV.:X8A6TSI                    SAT 08/09/97 10:47 Page:9
--  Include file information  --

   B$OBJECT_C.:LIB_E04  is referenced.
   X9A_TYPES.:X8A6TOU  is referenced.
   X8A_LIBCOM.:X8A6TOU  cannot be made into a system file and is referenced.
   X9A_MACROS.:X8A6TOU  is referenced.
   X8A_COM_MACS.:X8A6TOU  is referenced.
   X8A_MACROS.:X8A6TOU  is referenced.
   Z9A_FLAGS.:Z8A6TOU  is referenced.
      No diagnostics issued in procedure X8CV$CONVERT_TO_INTEGER.

   Procedure X8CV$CONVERT_TO_INTEGER requires 498 words for executable code.
   Procedure X8CV$CONVERT_TO_INTEGER requires 54 words of local(AUTO) storage.

    No errors detected in file X8CV.:X8A6TSI    .

PL6.E3A0      #001=X8CV$CONVERT_TO_INTEGER File=X8CV.:X8A6TSI                    SAT 08/09/97 10:47 Page:10

 Object Unit name= X8CV$CONVERT_TO_INTEGER                    File name= X8CV.:X8A6TOU
 UTS= AUG 09 '97 10:47:01.16 SAT                              Compiler= PL-6/E31         Sev=      00
 SharedLib= :SHARED_SYSTEM                                    Alt SharedLib=


    ****  Control sections  ****

 Sect   Type Bound  Init  Size OctSiz  Section name(segment info)
    0  LblCom even  none    20     24  LIBCOM
    1  LblCom even  none     1      1  DEC_OR_COMMA
    2  LblCom even  none    20     24  IN_TEMP
    3  LblCom even  none     1      1  OVRCHR
    4  LblCom even  none     1      1  SELECT_TIME
    5  LblCom even  none     1      1  NO_ADVANCE_OFFSET
    6  LblCom even  none    18     22  DSPLY_SAVE
    7  LblCom even  none     3      3  D_DATE
    8  LblCom even  none     3      3  D_TIME
    9  LblCom even  none     1      1  D_DAY
   10  LblCom even  none     2      2  C_DATE
   11  LblCom even  none     2      2  C_TIME
   12  LblCom even  none     2      2  C_DAY
   13  LblCom even  none     1      1  RTHOLD2
   14  LblCom even  none     1      1  LTHOLD2
   15  LblCom even  none     1      1  NDX2
   16  LblCom even  none     1      1  IN_LEN
   17   Data  even  none    16     20  X8CV$CONVERT_TO_INTEGER
   18  RoData even  UTS      1      1  X8CV$CONVERT_TO_INTEGER
   19   Proc  even  none   498    762  X8CV$CONVERT_TO_INTEGER
   20  RoData even  none     5      5  X8CV$CONVERT_TO_INTEGER

    ****  Entry defs  ****

                              Check   Calling
                             calling  sequence
  Sect OctLoc Primary Altret sequence   type   Parms  Name
    19      0   yes    yes     yes      Std        3  X8CV$CONVERT_TO_INTEGER
    19    355          yes     yes      Std        3  X8CV$CONVERT_FROM_INTEGER
PL6.E3A0      #001=X8CV$CONVERT_TO_INTEGER File=X8CV.:X8A6TSI                    SAT 08/09/97 10:47 Page:11

  ****  Entry refs  ****

         Check        Calling
        calling       sequence
Altret sequence SRef   type   Args  Name
 yes     yes           Std       4 X9CV$CVDI
 yes     yes           Std       2 X9CV$CVJI
 yes     yes           Std       2 X9CV$CVKI
 yes     yes           Std       4 X9CV$CVID
                       nStd      0 X66_AUTO_3
                       nStd      0 X66_ARET
                       nStd      0 X66_AALT

  ****  Data refs  ****

  Flags:  r = read only, s = secondary
Flgs Name                             Flgs Name                             Flgs Name
r    T$EBCDIC_TO_ASCII                r    T$GBCD_TO_ASCII                  r    T$ASCII_TO_EBCDIC
r    T$ASCII_TO_GBCD

  ****  Segment refs  ****

  Flags:  r = read only, s = secondary
Flgs Name                             Flgs Name                             Flgs Name
     ISSID
PL6.E3A0      #001=X8CV$CONVERT_TO_INTEGER File=X8CV.:X8A6TSI                    SAT 08/09/97 10:47 Page:12


        1        1        /*M* X8CV$CONVERT  -- Handels conversions to and from integers.     */
        2        2        /*T***********************************************************/
        3        3        /*T*                                                         */
        4        4        /*T* Copyright (c) Bull HN Information Systems Inc., 1997    */
        5        5        /*T*                                                         */
        6        6        /*T***********************************************************/
        7        7        /*P*
        8        8             NAME: X8CV$CONVERT
        9        9          PURPOSE: To convert data items to and from integer.
       10       10
       11       11          DESCRIPTION:
       12       12                   This procedure is a library utility which will convert
       13       13             data items from integers(SBIN) into the COBOL 85 data type and
       14       14             from these data types to integers.  Procedure is currently used
       15       15             to support I-O ( Linage & relative key ).
       16       16        */
       17       17            %INCLUDE Z9A_FLAGS;
       18       31        X8CV$CONVERT_TO_INTEGER: PROC( SEND_FLD$, SEND_DESC, REC_FLD )

     31 19 000000   000000 700200 xent  X8CV$CONVER* TSX0  ! X66_AUTO_3
        19 000001   000066 000003                    ZERO    54,3

       19       32                                 %IF GCOS;
       21       34                                 %ENDIF;
       22       35                                 ALTRET;
       23       36
       24       37            %INCLUDE X8A_MACROS;
       25      294            %INCLUDE X9A_MACROS;
       26      325            %INCLUDE X8A_LIBCOM;
       27      545            %INCLUDE X9A_TYPES;
       28     4094
       29     4095            %EQU SBIN_HALF = 18;   /* length of the comp-7 data type */
       30     4096    1       DCL 1 SEND_DESC ALIGNED,
       31     4097             %DCL_RT_DESC(@LVL=1, @BLK=NO);
       32     4119
       33     4120    1       DCL 1 REC_DESC REDEF SEND_DESC ALIGNED,
PL6.E3A0      #001=X8CV$CONVERT_TO_INTEGER File=X8CV.:X8A6TSI                    SAT 08/09/97 10:47 Page:13
       34     4121             %DCL_RT_DESC(@LVL=1, @BLK=NO);
       35     4143
       36     4144    1       DCL 1 SEND_DSC     ALIGNED,
       37     4145             %DESCRIPTOR( ENDING = YES );
       38     4173    1       DCL 1 REC_DSC      ALIGNED,
       39     4174             %DESCRIPTOR( ENDING = YES );
       40     4202
       41     4203    1       DCL SEND_FLD$      PTR;
       42     4204    1       DCL REC_FLD$       REDEF SEND_FLD$ PTR;
       43     4205    1       DCL REC_FLD        UBIN WORD;
       44     4206    1       DCL SEND_FLD       REDEF REC_FLD UBIN WORD;
       45     4207    1       DCL SEND_HALF      SBIN HALF HALIGNED BASED( SEND_FLD$ ); /*#42918*/
       46     4208    1       DCL REC_HALF       SBIN HALF HALIGNED BASED( REC_FLD$ );  /*#42918*/
       47     4209    1       DCL SEND_WORD      SBIN WORD BASED( SEND_FLD$ );
       48     4210    1       DCL REC_WORD       SBIN WORD BASED( REC_FLD$ );
       49     4211    1       DCL TEMP_FLD       CHAR(64) STATIC;
       50     4212    1       DCL TEMP_FLD$      PTR CONSTANT INIT (ADDR(TEMP_FLD));
       51     4213    1       DCL TEMP$FLD       CHAR(TEMP_FLD_LEN) BASED(TEMP_FLD$);
       52     4214    1       DCL TEMP_FLD_LEN   SBIN;
       53     4215    1       DCL REC$FLD        CHAR(TEMP_FLD_LEN) BASED(REC_FLD$);
       54     4216    1       DCL REC_FLD_BIT_LEN SBIN;
       55     4217    1       DCL 1 REC$FLD6     ALIGNED BASED(REC_FLD$),
       56     4218    1             2 *          BIT(REC_FLD_BIT_LEN);
       57     4219    1       DCL SEND$FLD       CHAR(TEMP_FLD_LEN) BASED(SEND_FLD$);
       58     4220    1       DCL SEND_FLD_BIT_LEN SBIN;
       59     4221    1       DCL 1 SEND$FLD6    ALIGNED BASED(SEND_FLD$),
       60     4222    1             2 *          BIT(SEND_FLD_BIT_LEN);
       61     4223    1       DCL T$EBCDIC_TO_ASCII (0:511) UBIN BYTE CALIGNED SYMREF READONLY;
       62     4224    1       DCL T$GBCD_TO_ASCII (0:63) UBIN BYTE CALIGNED SYMREF READONLY;
       63     4225    1       DCL T$ASCII_TO_EBCDIC (0:511) UBIN BYTE CALIGNED SYMREF READONLY;
       64     4226    1       DCL T$ASCII_TO_GBCD (0:511) UBIN BYTE CALIGNED SYMREF READONLY;
       65     4227    1       DCL X9CV$CVDI      ENTRY(4) ALTRET;
       66     4228    1       DCL X9CV$CVID      ENTRY(4) ALTRET;      /*  integer to decimal */
       67     4229    1       DCL X9CV$CVKI      ENTRY(2) ALTRET;
       68     4230    1       DCL X9CV$CVJI      ENTRY(2) ALTRET;
       69     4231        %EJECT;
PL6.E3A0      #001=X8CV$CONVERT_TO_INTEGER File=X8CV.:X8A6TSI                    SAT 08/09/97 10:47 Page:14
       70     4232
       71     4233    2       DO CASE ( SEND_DESC.DES_W.TYPE );

   4233 19 000002   200004 470500                    LDP0    @SEND_DESC,,AUTO
        19 000003   000000 220100                    LDX0    0,,PR0
        19 000004   000052 100003                    CMPX0   42,DU
        19 000005   000007 602010 19                 TNC     s:4233+5,X0
        19 000006   000354 710000 19                 TRA     s:4379
        19 000007   000354 710000 19                 TRA     s:4379
        19 000010   000331 710000 19                 TRA     s:4373
        19 000011   000354 710000 19                 TRA     s:4379
        19 000012   000354 710000 19                 TRA     s:4379
        19 000013   000354 710000 19                 TRA     s:4379
        19 000014   000354 710000 19                 TRA     s:4379
        19 000015   000354 710000 19                 TRA     s:4379
        19 000016   000354 710000 19                 TRA     s:4379
        19 000017   000354 710000 19                 TRA     s:4379
        19 000020   000354 710000 19                 TRA     s:4379
        19 000021   000354 710000 19                 TRA     s:4379
        19 000022   000354 710000 19                 TRA     s:4379
        19 000023   000354 710000 19                 TRA     s:4379
        19 000024   000354 710000 19                 TRA     s:4379
        19 000025   000354 710000 19                 TRA     s:4379
        19 000026   000354 710000 19                 TRA     s:4379
        19 000027   000354 710000 19                 TRA     s:4379
        19 000030   000354 710000 19                 TRA     s:4379
        19 000031   000354 710000 19                 TRA     s:4379
        19 000032   000354 710000 19                 TRA     s:4379
        19 000033   000354 710000 19                 TRA     s:4379
        19 000034   000354 710000 19                 TRA     s:4379
        19 000035   000354 710000 19                 TRA     s:4379
        19 000036   000354 710000 19                 TRA     s:4379
        19 000037   000354 710000 19                 TRA     s:4379
        19 000040   000354 710000 19                 TRA     s:4379
        19 000041   000354 710000 19                 TRA     s:4379
        19 000042   000354 710000 19                 TRA     s:4379
        19 000043   000354 710000 19                 TRA     s:4379
PL6.E3A0      #001=X8CV$CONVERT_TO_INTEGER File=X8CV.:X8A6TSI                    SAT 08/09/97 10:47 Page:15
        19 000044   000311 710000 19                 TRA     s:4365
        19 000045   000321 710000 19                 TRA     s:4369
        19 000046   000354 710000 19                 TRA     s:4379
        19 000047   000354 710000 19                 TRA     s:4379
        19 000050   000354 710000 19                 TRA     s:4379
        19 000051   000354 710000 19                 TRA     s:4379
        19 000052   000354 710000 19                 TRA     s:4379
        19 000053   000354 710000 19                 TRA     s:4379
        19 000054   000354 710000 19                 TRA     s:4379
        19 000055   000354 710000 19                 TRA     s:4379
        19 000056   000354 710000 19                 TRA     s:4379
        19 000057   000061 710000 19                 TRA     s:4246
        19 000060   000140 710000 19                 TRA     s:4305

       72     4234
       73     4235    2          CASE( %PACK_FIXED_NO_SIGN );    /* Comp */

       74     4236
       75     4237                 %PACK_NDSC( @DESC   = SEND_DSC,
       76     4238                             @SCALE  = SEND_DESC.DES_W.NDSC.SF,
       77     4239                             @LENGTH = SEND_DESC.DES_W.NDSC.N,
       78     4240                             @TN     = %NDSC4,
       79     4241                             @SIGN   = %NO_SIGN            );

   4246 19 000061   000000 221003                    LDX1    0,DU
        19 000062   200053 741100                    STX1    SEND_DSC,,AUTO

   4247 19 000063   000000 236000 20                 LDQ     0
        19 000064   200053 356100                    ANSQ    SEND_DSC,,AUTO

   4248 19 000065   040000 236007                    LDQ     16384,DL
        19 000066   200053 256100                    ORSQ    SEND_DSC,,AUTO

   4249 19 000067   030000 236007                    LDQ     12288,DL
        19 000070   200053 256100                    ORSQ    SEND_DSC,,AUTO

   4250 19 000071   000000 236100                    LDQ     0,,PR0
PL6.E3A0      #001=X8CV$CONVERT_TO_INTEGER File=X8CV.:X8A6TSI                    SAT 08/09/97 10:47 Page:16
        19 000072   200053 752102                    STCQ    SEND_DSC,'02'O,AUTO

   4251 19 000073   000003 235007                    LDA     3,DL
        19 000074   000004 115007                    CMPA    4,DL
        19 000075   000077 602005 19                 TNC     s:4251+4,AL
        19 000076   000117 710000 19                 TRA     s:4291
        19 000077   000113 710000 19                 TRA     s:4285
        19 000100   000106 710000 19                 TRA     s:4258
        19 000101   000106 710000 19                 TRA     s:4258
        19 000102   000103 710000 19                 TRA     s:4253

   4253 19 000103   000000 236100                    LDQ     0,,PR0
        19 000104   200053 752101                    STCQ    SEND_DSC,'01'O,AUTO
        19 000105   000117 710000 19                 TRA     s:4291

   4258 19 000106   000000 236100                    LDQ     0,,PR0
        19 000107   000077 376007                    ANQ     63,DL
        19 000110   000001 036007                    ADLQ    1,DL
        19 000111   200053 752101                    STCQ    SEND_DSC,'01'O,AUTO
        19 000112   000117 710000 19                 TRA     s:4291

   4285 19 000113   000000 236100                    LDQ     0,,PR0
        19 000114   000077 376007                    ANQ     63,DL
        19 000115   000003 036007                    ADLQ    3,DL
        19 000116   200053 752101                    STCQ    SEND_DSC,'01'O,AUTO

       80     4290
       81     4291    2            REC_DSC.DESCL = 4;   /* only length is set for DTB (n=4) */

   4291 19 000117   000004 220003                    LDX0    4,DU
        19 000120   200054 440100                    SXL0    REC_DSC,,AUTO

       82     4292    2            CALL X9CV$CVDI( SEND_DSC, REC_DSC, ADDR(REC_FLD), SEND_FLD$ );

   4292 19 000121   200005 236100                    LDQ     @REC_FLD,,AUTO
        19 000122   200060 756100                    STQ     SEND_FLD_BIT_LEN+1,,AUTO
        19 000123   200003 236100                    LDQ     @SEND_FLD$,,AUTO
PL6.E3A0      #001=X8CV$CONVERT_TO_INTEGER File=X8CV.:X8A6TSI                    SAT 08/09/97 10:47 Page:17
        19 000124   200065 756100                    STQ     SEND_FLD_BIT_LEN+6,,AUTO
        19 000125   200060 631500                    EPPR1   SEND_FLD_BIT_LEN+1,,AUTO
        19 000126   200064 451500                    STP1    SEND_FLD_BIT_LEN+5,,AUTO
        19 000127   200054 633500                    EPPR3   REC_DSC,,AUTO
        19 000130   200063 453500                    STP3    SEND_FLD_BIT_LEN+4,,AUTO
        19 000131   200053 634500                    EPPR4   SEND_DSC,,AUTO
        19 000132   200062 454500                    STP4    SEND_FLD_BIT_LEN+3,,AUTO
        19 000133   200062 630500                    EPPR0   SEND_FLD_BIT_LEN+3,,AUTO
        19 000134   000001 631400 20                 EPPR1   1
        19 000135   000000 701000 xent               TSX1    X9CV$CVDI
        19 000136   000000 011000                    NOP     0
        19 000137   000354 710000 19                 TRA     s:4379

       83     4293        %EJECT;
PL6.E3A0      #001=X8CV$CONVERT_TO_INTEGER File=X8CV.:X8A6TSI                    SAT 08/09/97 10:47 Page:18
       84     4294    2          CASE( %UNPACK_FIXED_NO_SIGN );  /* Display */

       85     4295
       86     4296                 %PACK_NDSC( @DESC   = SEND_DSC,
       87     4297                             @SCALE  = SEND_DESC.DES_W.NDSC.SF,
       88     4298                             @LENGTH = SEND_DESC.DES_W.NDSC.N,
       89     4299                             @TN     = %NDSC9,
       90     4300                             @SIGN   = %NO_SIGN            );

   4305 19 000140   000000 221003                    LDX1    0,DU
        19 000141   200053 741100                    STX1    SEND_DSC,,AUTO

   4306 19 000142   000000 236000 20                 LDQ     0
        19 000143   200053 356100                    ANSQ    SEND_DSC,,AUTO

   4307 19 000144   000002 236000 20                 LDQ     2
        19 000145   200053 356100                    ANSQ    SEND_DSC,,AUTO

   4308 19 000146   030000 236007                    LDQ     12288,DL
        19 000147   200053 256100                    ORSQ    SEND_DSC,,AUTO

   4309 19 000150   000000 236100                    LDQ     0,,PR0
        19 000151   200053 752102                    STCQ    SEND_DSC,'02'O,AUTO

   4310 19 000152   000003 235007                    LDA     3,DL
        19 000153   000004 115007                    CMPA    4,DL
        19 000154   000156 602005 19                 TNC     s:4310+4,AL
        19 000155   000176 710000 19                 TRA     s:4350
        19 000156   000172 710000 19                 TRA     s:4341
        19 000157   000165 710000 19                 TRA     s:4317
        19 000160   000165 710000 19                 TRA     s:4317
        19 000161   000162 710000 19                 TRA     s:4312

   4312 19 000162   000000 236100                    LDQ     0,,PR0
        19 000163   200053 752101                    STCQ    SEND_DSC,'01'O,AUTO
        19 000164   000176 710000 19                 TRA     s:4350

PL6.E3A0      #001=X8CV$CONVERT_TO_INTEGER File=X8CV.:X8A6TSI                    SAT 08/09/97 10:47 Page:19
   4317 19 000165   000000 236100                    LDQ     0,,PR0
        19 000166   000077 376007                    ANQ     63,DL
        19 000167   000001 036007                    ADLQ    1,DL
        19 000170   200053 752101                    STCQ    SEND_DSC,'01'O,AUTO
        19 000171   000176 710000 19                 TRA     s:4350

   4341 19 000172   000000 236100                    LDQ     0,,PR0
        19 000173   000077 376007                    ANQ     63,DL
        19 000174   000002 036007                    ADLQ    2,DL
        19 000175   200053 752101                    STCQ    SEND_DSC,'01'O,AUTO

       91     4349
       92     4350    2            REC_DSC.DESCL = 4;   /* only length is set for DTB (n=4) */

   4350 19 000176   000004 220003                    LDX0    4,DU
        19 000177   200054 440100                    SXL0    REC_DSC,,AUTO

       93     4351    2            TEMP_FLD_LEN = SEND_DESC.DES_W.NDSC.N;

   4351 19 000200   000000 236100                    LDQ     0,,PR0
        19 000201   000077 376007                    ANQ     63,DL
        19 000202   200055 756100                    STQ     TEMP_FLD_LEN,,AUTO

       94     4352    3            DO CASE ( SEND_DESC.DES_W.TYPE );

   4352 19 000203   000000 236100                    LDQ     0,,PR0
        19 000204   000022 772000                    QRL     18
        19 000205   000051 136007                    SBLQ    41,DL
        19 000206   000023 116007                    CMPQ    19,DL
        19 000207   000211 602006 19                 TNC     s:4352+6,QL
        19 000210   000272 710000 19                 TRA     s:4361
        19 000211   000263 710000 19                 TRA     s:4359
        19 000212   000272 710000 19                 TRA     s:4361
        19 000213   000272 710000 19                 TRA     s:4361
        19 000214   000272 710000 19                 TRA     s:4361
        19 000215   000272 710000 19                 TRA     s:4361
        19 000216   000272 710000 19                 TRA     s:4361
PL6.E3A0      #001=X8CV$CONVERT_TO_INTEGER File=X8CV.:X8A6TSI                    SAT 08/09/97 10:47 Page:20
        19 000217   000272 710000 19                 TRA     s:4361
        19 000220   000272 710000 19                 TRA     s:4361
        19 000221   000272 710000 19                 TRA     s:4361
        19 000222   000272 710000 19                 TRA     s:4361
        19 000223   000272 710000 19                 TRA     s:4361
        19 000224   000272 710000 19                 TRA     s:4361
        19 000225   000234 710000 19                 TRA     s:4354
        19 000226   000272 710000 19                 TRA     s:4361
        19 000227   000272 710000 19                 TRA     s:4361
        19 000230   000272 710000 19                 TRA     s:4361
        19 000231   000272 710000 19                 TRA     s:4361
        19 000232   000272 710000 19                 TRA     s:4361
        19 000233   000245 710000 19                 TRA     s:4356

       95     4353    3              CASE( %EBCDIC_FIXED_NO_SIGN );

       96     4354    3                CALL XLATE( TEMP$FLD, T$EBCDIC_TO_ASCII, SEND$FLD );

   4354 19 000234   200003 471500                    LDP1    @SEND_FLD$,,AUTO
        19 000235   100000 473500                    LDP3    0,,PR1
        19 000236   200055 722100                    LXL2    TEMP_FLD_LEN,,AUTO
        19 000237   000000 474400 18                 LDP4    TEMP_FLD$
        19 000240   040140 160540                    MVT     fill='040'O
        19 000241   300000 000012                    ADSC9   0,,PR3                   cn=0,n=*X2
        19 000242   400000 000012                    ADSC9   0,,PR4                   cn=0,n=*X2
        19 000243   000000 000000 xsym               ARG     T$EBCDIC_TO_ASCII
        19 000244   000272 710000 19                 TRA     s:4361

       97     4355    3              CASE( %GBCD_FIXED_NO_SIGN );

       98     4356    3                SEND_FLD_BIT_LEN = TEMP_FLD_LEN * 6;

   4356 19 000245   200055 236100                    LDQ     TEMP_FLD_LEN,,AUTO
        19 000246   000006 402007                    MPY     6,DL
        19 000247   200057 756100                    STQ     SEND_FLD_BIT_LEN,,AUTO

       99     4357    3                CALL XLATE_6_TO_9( TEMP$FLD, T$GBCD_TO_ASCII, SEND$FLD6 );
PL6.E3A0      #001=X8CV$CONVERT_TO_INTEGER File=X8CV.:X8A6TSI                    SAT 08/09/97 10:47 Page:21

   4357 19 000250   200003 471500                    LDP1    @SEND_FLD$,,AUTO
        19 000251   100000 473500                    LDP3    0,,PR1
        19 000252   000006 506007                    DIV     6,DL
        19 000253   000000 622006                    EAX2    0,QL
        19 000254   000000 474400 18                 LDP4    TEMP_FLD$
        19 000255   200055 723100                    LXL3    TEMP_FLD_LEN,,AUTO
        19 000256   020140 160540                    MVT     fill='020'O
        19 000257   300000 020012                    ADSC6   0,,PR3                   cn=0,n=*X2
        19 000260   400000 000013                    ADSC9   0,,PR4                   cn=0,n=*X3
        19 000261   000000 000000 xsym               ARG     T$GBCD_TO_ASCII
        19 000262   000272 710000 19                 TRA     s:4361

      100     4358    3              CASE( %UNPACK_FIXED_NO_SIGN );

      101     4359    3                TEMP$FLD = SEND$FLD;

   4359 19 000263   200003 471500                    LDP1    @SEND_FLD$,,AUTO
        19 000264   100000 473500                    LDP3    0,,PR1
        19 000265   200055 722100                    LXL2    TEMP_FLD_LEN,,AUTO
        19 000266   000000 474400 18                 LDP4    TEMP_FLD$
        19 000267   040140 100540                    MLR     fill='040'O
        19 000270   300000 000012                    ADSC9   0,,PR3                   cn=0,n=*X2
        19 000271   400000 000012                    ADSC9   0,,PR4                   cn=0,n=*X2

      102     4360    3            END;

      103     4361    2            CALL X9CV$CVDI( SEND_DSC, REC_DSC, ADDR(REC_FLD), TEMP_FLD$ );

   4361 19 000272   200005 236100                    LDQ     @REC_FLD,,AUTO
        19 000273   200060 756100                    STQ     SEND_FLD_BIT_LEN+1,,AUTO
        19 000274   000003 236000 20                 LDQ     3
        19 000275   200065 756100                    STQ     SEND_FLD_BIT_LEN+6,,AUTO
        19 000276   200060 631500                    EPPR1   SEND_FLD_BIT_LEN+1,,AUTO
        19 000277   200064 451500                    STP1    SEND_FLD_BIT_LEN+5,,AUTO
        19 000300   200054 633500                    EPPR3   REC_DSC,,AUTO
        19 000301   200063 453500                    STP3    SEND_FLD_BIT_LEN+4,,AUTO
PL6.E3A0      #001=X8CV$CONVERT_TO_INTEGER File=X8CV.:X8A6TSI                    SAT 08/09/97 10:47 Page:22
        19 000302   200053 634500                    EPPR4   SEND_DSC,,AUTO
        19 000303   200062 454500                    STP4    SEND_FLD_BIT_LEN+3,,AUTO
        19 000304   200062 630500                    EPPR0   SEND_FLD_BIT_LEN+3,,AUTO
        19 000305   000001 631400 20                 EPPR1   1
        19 000306   000000 701000 xent               TSX1    X9CV$CVDI
        19 000307   000000 011000                    NOP     0
        19 000310   000354 710000 19                 TRA     s:4379

      104     4362        %EJECT;
PL6.E3A0      #001=X8CV$CONVERT_TO_INTEGER File=X8CV.:X8A6TSI                    SAT 08/09/97 10:47 Page:23
      105     4363    2          CASE( %COMP1_DATATYPE );

      106     4364
      107     4365    2            CALL X9CV$CVJI( SEND_FLD$, REC_FLD );

   4365 19 000311   200005 236100                    LDQ     @REC_FLD,,AUTO
        19 000312   200003 235100                    LDA     @SEND_FLD$,,AUTO
        19 000313   200060 757100                    STAQ    SEND_FLD_BIT_LEN+1,,AUTO
        19 000314   200060 630500                    EPPR0   SEND_FLD_BIT_LEN+1,,AUTO
        19 000315   000004 631400 20                 EPPR1   4
        19 000316   000000 701000 xent               TSX1    X9CV$CVJI
        19 000317   000000 011000                    NOP     0
        19 000320   000354 710000 19                 TRA     s:4379

      108     4366
      109     4367    2          CASE( %COMP2_DATATYPE );

      110     4368
      111     4369    2            CALL X9CV$CVKI( SEND_FLD$, REC_FLD );

   4369 19 000321   200005 236100                    LDQ     @REC_FLD,,AUTO
        19 000322   200003 235100                    LDA     @SEND_FLD$,,AUTO
        19 000323   200060 757100                    STAQ    SEND_FLD_BIT_LEN+1,,AUTO
        19 000324   200060 630500                    EPPR0   SEND_FLD_BIT_LEN+1,,AUTO
        19 000325   000004 631400 20                 EPPR1   4
        19 000326   000000 701000 xent               TSX1    X9CV$CVKI
        19 000327   000000 011000                    NOP     0
        19 000330   000354 710000 19                 TRA     s:4379

      112     4370
      113     4371    2          CASE( %SBIN_DATATYPE );

      114     4372
      115     4373    2            IF SEND_DESC.DES_W.NDSC.N = %SBIN_HALF THEN

   4373 19 000331   000000 236100                    LDQ     0,,PR0
        19 000332   000077 376007                    ANQ     63,DL
PL6.E3A0      #001=X8CV$CONVERT_TO_INTEGER File=X8CV.:X8A6TSI                    SAT 08/09/97 10:47 Page:24
        19 000333   000022 116007                    CMPQ    18,DL
        19 000334   000347 601000 19                 TNZ     s:4376

      116     4374    2              REC_FLD = SEND_HALF;                    /* Comp-7 */

   4374 19 000335   200003 471500                    LDP1    @SEND_FLD$,,AUTO
        19 000336   100000 473500                    LDP3    0,,PR1
        19 000337   000100 100500                    MLR     fill='000'O
        19 000340   300000 000002                    ADSC9   0,,PR3                   cn=0,n=2
        19 000341   200060 000004                    ADSC9   SEND_FLD_BIT_LEN+1,,AUTO cn=0,n=4
        19 000342   200060 236100                    LDQ     SEND_FLD_BIT_LEN+1,,AUTO
        19 000343   000022 732000                    QRS     18
        19 000344   200005 473500                    LDP3    @REC_FLD,,AUTO
        19 000345   300000 756100                    STQ     0,,PR3
        19 000346   000354 710000 19                 TRA     s:4379

      117     4375    2            ELSE
      118     4376    2              REC_FLD = SEND_WORD;                    /* Comp-6 */

   4376 19 000347   200003 471500                    LDP1    @SEND_FLD$,,AUTO
        19 000350   100000 473500                    LDP3    0,,PR1
        19 000351   300000 235100                    LDA     0,,PR3
        19 000352   200005 474500                    LDP4    @REC_FLD,,AUTO
        19 000353   400000 755100                    STA     0,,PR4

      119     4377
      120     4378    2       END; /* case send_desc.type */

      121     4379    1       RETURN;

   4379 19 000354   000000 702200 xent               TSX2  ! X66_ARET

      122     4380        %EJECT;
PL6.E3A0      #001=X8CV$CONVERT_TO_INTEGER File=X8CV.:X8A6TSI                    SAT 08/09/97 10:47 Page:25
      123     4381    1   X8CV$CONVERT_FROM_INTEGER: ENTRY( SEND_FLD$, SEND_DESC, REC_FLD ) ALTRET;

   4381 19 000355   000000 700200 xent  X8CV$CONVER* TSX0  ! X66_AUTO_3
        19 000356   000066 000003                    ZERO    54,3

      124     4382
      125     4383    2       DO CASE ( REC_DESC.DES_W.TYPE );

   4383 19 000357   200004 470500                    LDP0    @SEND_DESC,,AUTO
        19 000360   000000 220100                    LDX0    0,,PR0
        19 000361   000074 100003                    CMPX0   60,DU
        19 000362   000364 602010 19                 TNC     s:4383+5,X0
        19 000363   000761 710000 19                 TRA     s:4549
        19 000364   000761 710000 19                 TRA     s:4549
        19 000365   000741 710000 19                 TRA     s:4541
        19 000366   000761 710000 19                 TRA     s:4549
        19 000367   000761 710000 19                 TRA     s:4549
        19 000370   000761 710000 19                 TRA     s:4549
        19 000371   000761 710000 19                 TRA     s:4549
        19 000372   000761 710000 19                 TRA     s:4549
        19 000373   000761 710000 19                 TRA     s:4549
        19 000374   000761 710000 19                 TRA     s:4549
        19 000375   000761 710000 19                 TRA     s:4549
        19 000376   000761 710000 19                 TRA     s:4549
        19 000377   000761 710000 19                 TRA     s:4549
        19 000400   000761 710000 19                 TRA     s:4549
        19 000401   000761 710000 19                 TRA     s:4549
        19 000402   000761 710000 19                 TRA     s:4549
        19 000403   000761 710000 19                 TRA     s:4549
        19 000404   000761 710000 19                 TRA     s:4549
        19 000405   000761 710000 19                 TRA     s:4549
        19 000406   000761 710000 19                 TRA     s:4549
        19 000407   000761 710000 19                 TRA     s:4549
        19 000410   000761 710000 19                 TRA     s:4549
        19 000411   000761 710000 19                 TRA     s:4549
        19 000412   000761 710000 19                 TRA     s:4549
        19 000413   000761 710000 19                 TRA     s:4549
PL6.E3A0      #001=X8CV$CONVERT_TO_INTEGER File=X8CV.:X8A6TSI                    SAT 08/09/97 10:47 Page:26
        19 000414   000761 710000 19                 TRA     s:4549
        19 000415   000761 710000 19                 TRA     s:4549
        19 000416   000761 710000 19                 TRA     s:4549
        19 000417   000761 710000 19                 TRA     s:4549
        19 000420   000761 710000 19                 TRA     s:4549
        19 000421   000715 710000 19                 TRA     s:4525
        19 000422   000727 710000 19                 TRA     s:4533
        19 000423   000761 710000 19                 TRA     s:4549
        19 000424   000761 710000 19                 TRA     s:4549
        19 000425   000761 710000 19                 TRA     s:4549
        19 000426   000761 710000 19                 TRA     s:4549
        19 000427   000761 710000 19                 TRA     s:4549
        19 000430   000761 710000 19                 TRA     s:4549
        19 000431   000761 710000 19                 TRA     s:4549
        19 000432   000761 710000 19                 TRA     s:4549
        19 000433   000761 710000 19                 TRA     s:4549
        19 000434   000460 710000 19                 TRA     s:4396
        19 000435   000541 710000 19                 TRA     s:4461
        19 000436   000761 710000 19                 TRA     s:4549
        19 000437   000761 710000 19                 TRA     s:4549
        19 000440   000761 710000 19                 TRA     s:4549
        19 000441   000761 710000 19                 TRA     s:4549
        19 000442   000761 710000 19                 TRA     s:4549
        19 000443   000761 710000 19                 TRA     s:4549
        19 000444   000761 710000 19                 TRA     s:4549
        19 000445   000761 710000 19                 TRA     s:4549
        19 000446   000761 710000 19                 TRA     s:4549
        19 000447   000761 710000 19                 TRA     s:4549
        19 000450   000761 710000 19                 TRA     s:4549
        19 000451   000541 710000 19                 TRA     s:4461
        19 000452   000761 710000 19                 TRA     s:4549
        19 000453   000761 710000 19                 TRA     s:4549
        19 000454   000761 710000 19                 TRA     s:4549
        19 000455   000761 710000 19                 TRA     s:4549
        19 000456   000761 710000 19                 TRA     s:4549
        19 000457   000541 710000 19                 TRA     s:4461

PL6.E3A0      #001=X8CV$CONVERT_TO_INTEGER File=X8CV.:X8A6TSI                    SAT 08/09/97 10:47 Page:27
      126     4384
      127     4385    2          CASE( %PACK_FIXED_NO_SIGN );                /* Comp */

      128     4386
      129     4387                 %PACK_NDSC( @DESC   = REC_DSC,
      130     4388                             @SCALE  = REC_DESC.DES_W.NDSC.SF,
      131     4389                             @LENGTH = REC_DESC.DES_W.NDSC.N,
      132     4390                             @TN     = %NDSC4,
      133     4391                             @SIGN   = %NO_SIGN            );

   4396 19 000460   000000 221003                    LDX1    0,DU
        19 000461   200054 741100                    STX1    REC_DSC,,AUTO

   4397 19 000462   000000 236000 20                 LDQ     0
        19 000463   200054 356100                    ANSQ    REC_DSC,,AUTO

   4398 19 000464   040000 236007                    LDQ     16384,DL
        19 000465   200054 256100                    ORSQ    REC_DSC,,AUTO

   4399 19 000466   030000 236007                    LDQ     12288,DL
        19 000467   200054 256100                    ORSQ    REC_DSC,,AUTO

   4400 19 000470   000000 236100                    LDQ     0,,PR0
        19 000471   200054 752102                    STCQ    REC_DSC,'02'O,AUTO

   4401 19 000472   000003 235007                    LDA     3,DL
        19 000473   000004 115007                    CMPA    4,DL
        19 000474   000476 602005 19                 TNC     s:4401+4,AL
        19 000475   000516 710000 19                 TRA     s:4441
        19 000476   000512 710000 19                 TRA     s:4435
        19 000477   000505 710000 19                 TRA     s:4408
        19 000500   000505 710000 19                 TRA     s:4408
        19 000501   000502 710000 19                 TRA     s:4403

   4403 19 000502   000000 236100                    LDQ     0,,PR0
        19 000503   200054 752101                    STCQ    REC_DSC,'01'O,AUTO
        19 000504   000516 710000 19                 TRA     s:4441
PL6.E3A0      #001=X8CV$CONVERT_TO_INTEGER File=X8CV.:X8A6TSI                    SAT 08/09/97 10:47 Page:28

   4408 19 000505   000000 236100                    LDQ     0,,PR0
        19 000506   000077 376007                    ANQ     63,DL
        19 000507   000001 036007                    ADLQ    1,DL
        19 000510   200054 752101                    STCQ    REC_DSC,'01'O,AUTO
        19 000511   000516 710000 19                 TRA     s:4441

   4435 19 000512   000000 236100                    LDQ     0,,PR0
        19 000513   000077 376007                    ANQ     63,DL
        19 000514   000003 036007                    ADLQ    3,DL
        19 000515   200054 752101                    STCQ    REC_DSC,'01'O,AUTO

      134     4440
      135     4441    2            SEND_DSC.DESCL = 4;   /* only length is set for BTD (n=4) */

   4441 19 000516   000004 220003                    LDX0    4,DU
        19 000517   200053 440100                    SXL0    SEND_DSC,,AUTO

      136     4442    2            CALL X9CV$CVID( SEND_DSC, REC_DSC, REC_FLD$, ADDR(SEND_FLD) )

   4442 19 000520   200005 236100                    LDQ     @REC_FLD,,AUTO
        19 000521   200060 756100                    STQ     SEND_FLD_BIT_LEN+1,,AUTO
        19 000522   200060 631500                    EPPR1   SEND_FLD_BIT_LEN+1,,AUTO
        19 000523   200065 451500                    STP1    SEND_FLD_BIT_LEN+6,,AUTO
        19 000524   200003 236100                    LDQ     @SEND_FLD$,,AUTO
        19 000525   200064 756100                    STQ     SEND_FLD_BIT_LEN+5,,AUTO
        19 000526   200054 633500                    EPPR3   REC_DSC,,AUTO
        19 000527   200063 453500                    STP3    SEND_FLD_BIT_LEN+4,,AUTO
        19 000530   200053 634500                    EPPR4   SEND_DSC,,AUTO
        19 000531   200062 454500                    STP4    SEND_FLD_BIT_LEN+3,,AUTO
        19 000532   200062 630500                    EPPR0   SEND_FLD_BIT_LEN+3,,AUTO
        19 000533   000001 631400 20                 EPPR1   1
        19 000534   000000 701000 xent               TSX1    X9CV$CVID
        19 000535   000537 702000 19                 TSX2    s:4445
        19 000536   000540 710000 19                 TRA     s:4445+1

      137     4443    2            WHENALTRETURN
PL6.E3A0      #001=X8CV$CONVERT_TO_INTEGER File=X8CV.:X8A6TSI                    SAT 08/09/97 10:47 Page:29
      138     4444    3              DO;

      139     4445    3                ALTRETURN;

   4445 19 000537   000000 702200 xent               TSX2  ! X66_AALT
        19 000540   000761 710000 19                 TRA     s:4549

      140     4446    3              END;
      141     4447        %EJECT;
PL6.E3A0      #001=X8CV$CONVERT_TO_INTEGER File=X8CV.:X8A6TSI                    SAT 08/09/97 10:47 Page:30
      142     4448    2          CASE( %UNPACK_FIXED_NO_SIGN,                /* Display */

      143     4449    2                %EBCDIC_FIXED_NO_SIGN,
      144     4450    2                %GBCD_FIXED_NO_SIGN );
      145     4451
      146     4452                 %PACK_NDSC( @DESC   = REC_DSC,
      147     4453                             @SCALE  = REC_DESC.DES_W.NDSC.SF,
      148     4454                             @LENGTH = REC_DESC.DES_W.NDSC.N,
      149     4455                             @TN     = %NDSC9,
      150     4456                             @SIGN   = %NO_SIGN            );

   4461 19 000541   000000 221003                    LDX1    0,DU
        19 000542   200054 741100                    STX1    REC_DSC,,AUTO

   4462 19 000543   000000 236000 20                 LDQ     0
        19 000544   200054 356100                    ANSQ    REC_DSC,,AUTO

   4463 19 000545   000002 236000 20                 LDQ     2
        19 000546   200054 356100                    ANSQ    REC_DSC,,AUTO

   4464 19 000547   030000 236007                    LDQ     12288,DL
        19 000550   200054 256100                    ORSQ    REC_DSC,,AUTO

   4465 19 000551   000000 236100                    LDQ     0,,PR0
        19 000552   200054 752102                    STCQ    REC_DSC,'02'O,AUTO

   4466 19 000553   000003 235007                    LDA     3,DL
        19 000554   000004 115007                    CMPA    4,DL
        19 000555   000557 602005 19                 TNC     s:4466+4,AL
        19 000556   000577 710000 19                 TRA     s:4506
        19 000557   000573 710000 19                 TRA     s:4497
        19 000560   000566 710000 19                 TRA     s:4473
        19 000561   000566 710000 19                 TRA     s:4473
        19 000562   000563 710000 19                 TRA     s:4468

   4468 19 000563   000000 236100                    LDQ     0,,PR0
        19 000564   200054 752101                    STCQ    REC_DSC,'01'O,AUTO
PL6.E3A0      #001=X8CV$CONVERT_TO_INTEGER File=X8CV.:X8A6TSI                    SAT 08/09/97 10:47 Page:31
        19 000565   000577 710000 19                 TRA     s:4506

   4473 19 000566   000000 236100                    LDQ     0,,PR0
        19 000567   000077 376007                    ANQ     63,DL
        19 000570   000001 036007                    ADLQ    1,DL
        19 000571   200054 752101                    STCQ    REC_DSC,'01'O,AUTO
        19 000572   000577 710000 19                 TRA     s:4506

   4497 19 000573   000000 236100                    LDQ     0,,PR0
        19 000574   000077 376007                    ANQ     63,DL
        19 000575   000002 036007                    ADLQ    2,DL
        19 000576   200054 752101                    STCQ    REC_DSC,'01'O,AUTO

      151     4505
      152     4506    2            SEND_DSC.DESCL = 4;   /* only length is set for BTD (n=4) */

   4506 19 000577   000004 220003                    LDX0    4,DU
        19 000600   200053 440100                    SXL0    SEND_DSC,,AUTO

      153     4507    2            CALL X9CV$CVID( SEND_DSC, REC_DSC, TEMP_FLD$, ADDR(SEND_FLD) )

   4507 19 000601   200005 236100                    LDQ     @REC_FLD,,AUTO
        19 000602   200060 756100                    STQ     SEND_FLD_BIT_LEN+1,,AUTO
        19 000603   200060 631500                    EPPR1   SEND_FLD_BIT_LEN+1,,AUTO
        19 000604   200065 451500                    STP1    SEND_FLD_BIT_LEN+6,,AUTO
        19 000605   000003 236000 20                 LDQ     3
        19 000606   200064 756100                    STQ     SEND_FLD_BIT_LEN+5,,AUTO
        19 000607   200054 633500                    EPPR3   REC_DSC,,AUTO
        19 000610   200063 453500                    STP3    SEND_FLD_BIT_LEN+4,,AUTO
        19 000611   200053 634500                    EPPR4   SEND_DSC,,AUTO
        19 000612   200062 454500                    STP4    SEND_FLD_BIT_LEN+3,,AUTO
        19 000613   200062 630500                    EPPR0   SEND_FLD_BIT_LEN+3,,AUTO
        19 000614   000001 631400 20                 EPPR1   1
        19 000615   000000 701000 xent               TSX1    X9CV$CVID
        19 000616   000620 702000 19                 TSX2    s:4510
        19 000617   000621 710000 19                 TRA     s:4512

PL6.E3A0      #001=X8CV$CONVERT_TO_INTEGER File=X8CV.:X8A6TSI                    SAT 08/09/97 10:47 Page:32
      154     4508    2            WHENALTRETURN
      155     4509    3              DO;

      156     4510    3                ALTRETURN;

   4510 19 000620   000000 702200 xent               TSX2  ! X66_AALT

      157     4511    3              END;
      158     4512    2            TEMP_FLD_LEN = REC_DESC.DES_W.NDSC.N;

   4512 19 000621   200004 470500                    LDP0    @SEND_DESC,,AUTO
        19 000622   000000 236100                    LDQ     0,,PR0
        19 000623   000077 376007                    ANQ     63,DL
        19 000624   200055 756100                    STQ     TEMP_FLD_LEN,,AUTO

      159     4513    3            DO CASE( REC_DESC.DES_W.TYPE );

   4513 19 000625   000000 236100                    LDQ     0,,PR0
        19 000626   000022 772000                    QRL     18
        19 000627   000051 136007                    SBLQ    41,DL
        19 000630   000023 116007                    CMPQ    19,DL
        19 000631   000633 602006 19                 TNC     s:4513+6,QL
        19 000632   000761 710000 19                 TRA     s:4549
        19 000633   000705 710000 19                 TRA     s:4520
        19 000634   000714 710000 19                 TRA     s:4521
        19 000635   000714 710000 19                 TRA     s:4521
        19 000636   000714 710000 19                 TRA     s:4521
        19 000637   000714 710000 19                 TRA     s:4521
        19 000640   000714 710000 19                 TRA     s:4521
        19 000641   000714 710000 19                 TRA     s:4521
        19 000642   000714 710000 19                 TRA     s:4521
        19 000643   000714 710000 19                 TRA     s:4521
        19 000644   000714 710000 19                 TRA     s:4521
        19 000645   000714 710000 19                 TRA     s:4521
        19 000646   000714 710000 19                 TRA     s:4521
        19 000647   000656 710000 19                 TRA     s:4515
        19 000650   000714 710000 19                 TRA     s:4521
PL6.E3A0      #001=X8CV$CONVERT_TO_INTEGER File=X8CV.:X8A6TSI                    SAT 08/09/97 10:47 Page:33
        19 000651   000714 710000 19                 TRA     s:4521
        19 000652   000714 710000 19                 TRA     s:4521
        19 000653   000714 710000 19                 TRA     s:4521
        19 000654   000714 710000 19                 TRA     s:4521
        19 000655   000667 710000 19                 TRA     s:4517

      160     4514    3              CASE( %EBCDIC_FIXED_NO_SIGN );

      161     4515    3                CALL XLATE( REC$FLD, T$ASCII_TO_EBCDIC, TEMP$FLD );

   4515 19 000656   200003 471500                    LDP1    @SEND_FLD$,,AUTO
        19 000657   100000 473500                    LDP3    0,,PR1
        19 000660   000000 474400 18                 LDP4    TEMP_FLD$
        19 000661   200055 720100                    LXL0    TEMP_FLD_LEN,,AUTO
        19 000662   040140 160540                    MVT     fill='040'O
        19 000663   400000 000010                    ADSC9   0,,PR4                   cn=0,n=*X0
        19 000664   300000 000010                    ADSC9   0,,PR3                   cn=0,n=*X0
        19 000665   000000 000000 xsym               ARG     T$ASCII_TO_EBCDIC
        19 000666   000761 710000 19                 TRA     s:4549

      162     4516    3              CASE( %GBCD_FIXED_NO_SIGN );

      163     4517    3                REC_FLD_BIT_LEN = TEMP_FLD_LEN * 6;

   4517 19 000667   200055 236100                    LDQ     TEMP_FLD_LEN,,AUTO
        19 000670   000006 402007                    MPY     6,DL
        19 000671   200056 756100                    STQ     REC_FLD_BIT_LEN,,AUTO

      164     4518    3                CALL XLATE_9_TO_6( REC$FLD6, T$ASCII_TO_GBCD, TEMP$FLD );

   4518 19 000672   200003 471500                    LDP1    @SEND_FLD$,,AUTO
        19 000673   100000 473500                    LDP3    0,,PR1
        19 000674   000006 506007                    DIV     6,DL
        19 000675   000000 474400 18                 LDP4    TEMP_FLD$
        19 000676   200055 720100                    LXL0    TEMP_FLD_LEN,,AUTO
        19 000677   000000 621006                    EAX1    0,QL
        19 000700   040140 160540                    MVT     fill='040'O
PL6.E3A0      #001=X8CV$CONVERT_TO_INTEGER File=X8CV.:X8A6TSI                    SAT 08/09/97 10:47 Page:34
        19 000701   400000 000010                    ADSC9   0,,PR4                   cn=0,n=*X0
        19 000702   300000 020011                    ADSC6   0,,PR3                   cn=0,n=*X1
        19 000703   000000 000000 xsym               ARG     T$ASCII_TO_GBCD
        19 000704   000761 710000 19                 TRA     s:4549

      165     4519    3              CASE( %UNPACK_FIXED_NO_SIGN );

      166     4520    3                REC$FLD = TEMP$FLD;

   4520 19 000705   200003 471500                    LDP1    @SEND_FLD$,,AUTO
        19 000706   100000 473500                    LDP3    0,,PR1
        19 000707   000000 474400 18                 LDP4    TEMP_FLD$
        19 000710   200055 720100                    LXL0    TEMP_FLD_LEN,,AUTO
        19 000711   040140 100540                    MLR     fill='040'O
        19 000712   400000 000010                    ADSC9   0,,PR4                   cn=0,n=*X0
        19 000713   300000 000010                    ADSC9   0,,PR3                   cn=0,n=*X0

      167     4521    3            END;

   4521 19 000714   000761 710000 19                 TRA     s:4549

      168     4522        %EJECT;
PL6.E3A0      #001=X8CV$CONVERT_TO_INTEGER File=X8CV.:X8A6TSI                    SAT 08/09/97 10:47 Page:35
      169     4523    2          CASE( %COMP1_DATATYPE );

      170     4524
      171     4525    2            CALL X9CV$CVJI( REC_FLD$, SEND_FLD )

   4525 19 000715   200005 236100                    LDQ     @REC_FLD,,AUTO
        19 000716   200003 235100                    LDA     @SEND_FLD$,,AUTO
        19 000717   200060 757100                    STAQ    SEND_FLD_BIT_LEN+1,,AUTO
        19 000720   200060 630500                    EPPR0   SEND_FLD_BIT_LEN+1,,AUTO
        19 000721   000004 631400 20                 EPPR1   4
        19 000722   000000 701000 xent               TSX1    X9CV$CVJI
        19 000723   000725 702000 19                 TSX2    s:4528
        19 000724   000726 710000 19                 TRA     s:4528+1

      172     4526    2            WHENALTRETURN
      173     4527    3              DO;

      174     4528    3                ALTRETURN;

   4528 19 000725   000000 702200 xent               TSX2  ! X66_AALT
        19 000726   000761 710000 19                 TRA     s:4549

      175     4529    3              END;
      176     4530
      177     4531    2          CASE( %COMP2_DATATYPE );

      178     4532
      179     4533    2            CALL X9CV$CVKI( REC_FLD$, SEND_FLD )

   4533 19 000727   200005 236100                    LDQ     @REC_FLD,,AUTO
        19 000730   200003 235100                    LDA     @SEND_FLD$,,AUTO
        19 000731   200060 757100                    STAQ    SEND_FLD_BIT_LEN+1,,AUTO
        19 000732   200060 630500                    EPPR0   SEND_FLD_BIT_LEN+1,,AUTO
        19 000733   000004 631400 20                 EPPR1   4
        19 000734   000000 701000 xent               TSX1    X9CV$CVKI
        19 000735   000737 702000 19                 TSX2    s:4536
        19 000736   000740 710000 19                 TRA     s:4536+1
PL6.E3A0      #001=X8CV$CONVERT_TO_INTEGER File=X8CV.:X8A6TSI                    SAT 08/09/97 10:47 Page:36

      180     4534    2            WHENALTRETURN
      181     4535    3              DO;

      182     4536    3                ALTRETURN;

   4536 19 000737   000000 702200 xent               TSX2  ! X66_AALT
        19 000740   000761 710000 19                 TRA     s:4549

      183     4537    3              END;
      184     4538
      185     4539    2          CASE( %SBIN_DATATYPE );             /* Comp-6 & Comp-7 */

      186     4540
      187     4541    2            IF REC_DESC.DES_W.NDSC.N = %SBIN_HALF THEN

   4541 19 000741   000000 236100                    LDQ     0,,PR0
        19 000742   000077 376007                    ANQ     63,DL
        19 000743   000022 116007                    CMPQ    18,DL
        19 000744   000754 601000 19                 TNZ     s:4546

      188     4542        /*N*  -------      better add overflow test in here     -------     */
      189     4543
      190     4544    2              REC_HALF = SEND_FLD;    /* better test this one */

   4544 19 000745   200003 471500                    LDP1    @SEND_FLD$,,AUTO
        19 000746   100000 473500                    LDP3    0,,PR1
        19 000747   200005 474500                    LDP4    @REC_FLD,,AUTO
        19 000750   000100 101500                    MRL     fill='000'O
        19 000751   400000 000004                    ADSC9   0,,PR4                   cn=0,n=4
        19 000752   300000 000002                    ADSC9   0,,PR3                   cn=0,n=2
        19 000753   000761 710000 19                 TRA     s:4549

      191     4545    2            ELSE
      192     4546    2              REC_WORD = SEND_FLD;

   4546 19 000754   200003 471500                    LDP1    @SEND_FLD$,,AUTO
PL6.E3A0      #001=X8CV$CONVERT_TO_INTEGER File=X8CV.:X8A6TSI                    SAT 08/09/97 10:47 Page:37
        19 000755   100000 473500                    LDP3    0,,PR1
        19 000756   200005 474500                    LDP4    @REC_FLD,,AUTO
        19 000757   400000 235100                    LDA     0,,PR4
        19 000760   300000 755100                    STA     0,,PR3

      193     4547
      194     4548    2       END; /* case send_desc.type */

      195     4549    1     END X8CV$CONVERT_TO_INTEGER; /* proc */

   4549 19 000761   000000 702200 xent               TSX2  ! X66_ARET

PL6.E3A0      #001=X8CV$CONVERT_TO_INTEGER File=X8CV.:X8A6TSI                    SAT 08/09/97 10:47 Page:38
--  Include file information  --

   B$OBJECT_C.:LIB_E04  is referenced.
   X9A_TYPES.:X8A6TOU  is referenced.
   X8A_LIBCOM.:X8A6TOU  cannot be made into a system file and is referenced.
   X9A_MACROS.:X8A6TOU  is referenced.
   X8A_COM_MACS.:X8A6TOU  is referenced.
   X8A_MACROS.:X8A6TOU  is referenced.
   Z9A_FLAGS.:Z8A6TOU  is referenced.
      No diagnostics issued in procedure X8CV$CONVERT_TO_INTEGER.
PL6.E3A0      #001=X8CV$CONVERT_TO_INTEGER File=X8CV.:X8A6TSI                    SAT 08/09/97 10:47 Page:39

 **** Variables and constants ****

  ****  Section 000 LblCom LIBCOM

  ****  Scalars and arrays  ****
OctLoc.c.b A Datatyp(siz) R M Lvl/name                 OctLoc.c.b A Datatyp(siz) R M Lvl/name

     0-0-0/w STRC(720)         1 LIBCOM

  ****  Section 001 LblCom DEC_OR_COMMA

  ****  Scalars and arrays  ****
OctLoc.c.b A Datatyp(siz) R M Lvl/name                 OctLoc.c.b A Datatyp(siz) R M Lvl/name

     0-0-0/c CHAR              1 DEC_OR_COMMA

  ****  Section 002 LblCom IN_TEMP

  ****  Scalars and arrays  ****
OctLoc.c.b A Datatyp(siz) R M Lvl/name                 OctLoc.c.b A Datatyp(siz) R M Lvl/name

     0-0-0/c CHAR(80)          1 IN_TEMP

  ****  Section 003 LblCom OVRCHR

  ****  Scalars and arrays  ****
OctLoc.c.b A Datatyp(siz) R M Lvl/name                 OctLoc.c.b A Datatyp(siz) R M Lvl/name

     0-0-0/c CHAR              1 OVRCHR

  ****  Section 004 LblCom SELECT_TIME

  ****  Scalars and arrays  ****
OctLoc.c.b A Datatyp(siz) R M Lvl/name                 OctLoc.c.b A Datatyp(siz) R M Lvl/name

     0-0-0/w UBIN              1 SELECT_TIME

PL6.E3A0      #001=X8CV$CONVERT_TO_INTEGER File=X8CV.:X8A6TSI                    SAT 08/09/97 10:47 Page:40
  ****  Section 005 LblCom NO_ADVANCE_OFFSET

  ****  Scalars and arrays  ****
OctLoc.c.b A Datatyp(siz) R M Lvl/name                 OctLoc.c.b A Datatyp(siz) R M Lvl/name

     0-0-0/w UBIN              1 NO_ADVANCE_OFFSET

  ****  Section 006 LblCom DSPLY_SAVE

  ****  Scalars and arrays  ****
OctLoc.c.b A Datatyp(siz) R M Lvl/name                 OctLoc.c.b A Datatyp(siz) R M Lvl/name

     0-0-0/c CHAR(72)          1 DSPLY_SAVE

  ****  Section 007 LblCom D_DATE

  ****  Scalars and arrays  ****
OctLoc.c.b A Datatyp(siz) R M Lvl/name                 OctLoc.c.b A Datatyp(siz) R M Lvl/name

     0-0-0/c CHAR(10)          1 D_DATE

  ****  Section 008 LblCom D_TIME

  ****  Scalars and arrays  ****
OctLoc.c.b A Datatyp(siz) R M Lvl/name                 OctLoc.c.b A Datatyp(siz) R M Lvl/name

     0-0-0/c CHAR(11)          1 D_TIME

  ****  Section 009 LblCom D_DAY

  ****  Scalars and arrays  ****
OctLoc.c.b A Datatyp(siz) R M Lvl/name                 OctLoc.c.b A Datatyp(siz) R M Lvl/name

     0-0-0/c CHAR(3)           1 D_DAY

  ****  Section 010 LblCom C_DATE

PL6.E3A0      #001=X8CV$CONVERT_TO_INTEGER File=X8CV.:X8A6TSI                    SAT 08/09/97 10:47 Page:41
  ****  Scalars and arrays  ****
OctLoc.c.b A Datatyp(siz) R M Lvl/name                 OctLoc.c.b A Datatyp(siz) R M Lvl/name

     0-0-0/c CHAR(6)           1 C_DATE

  ****  Section 011 LblCom C_TIME

  ****  Scalars and arrays  ****
OctLoc.c.b A Datatyp(siz) R M Lvl/name                 OctLoc.c.b A Datatyp(siz) R M Lvl/name

     0-0-0/c CHAR(8)           1 C_TIME

  ****  Section 012 LblCom C_DAY

  ****  Scalars and arrays  ****
OctLoc.c.b A Datatyp(siz) R M Lvl/name                 OctLoc.c.b A Datatyp(siz) R M Lvl/name

     0-0-0/c CHAR(5)           1 C_DAY

  ****  Section 013 LblCom RTHOLD2

  ****  Scalars and arrays  ****
OctLoc.c.b A Datatyp(siz) R M Lvl/name                 OctLoc.c.b A Datatyp(siz) R M Lvl/name

     0-0-0/w UBIN              1 RTHOLD2

  ****  Section 014 LblCom LTHOLD2

  ****  Scalars and arrays  ****
OctLoc.c.b A Datatyp(siz) R M Lvl/name                 OctLoc.c.b A Datatyp(siz) R M Lvl/name

     0-0-0/w UBIN              1 LTHOLD2

  ****  Section 015 LblCom NDX2

  ****  Scalars and arrays  ****
OctLoc.c.b A Datatyp(siz) R M Lvl/name                 OctLoc.c.b A Datatyp(siz) R M Lvl/name
PL6.E3A0      #001=X8CV$CONVERT_TO_INTEGER File=X8CV.:X8A6TSI                    SAT 08/09/97 10:47 Page:42

     0-0-0/w SBIN              1 NDX2

  ****  Section 016 LblCom IN_LEN

  ****  Scalars and arrays  ****
OctLoc.c.b A Datatyp(siz) R M Lvl/name                 OctLoc.c.b A Datatyp(siz) R M Lvl/name

     0-0-0/w UBIN              1 IN_LEN

  ****  Section 017  Data  X8CV$CONVERT_TO_INTEGER

  ****  Scalars and arrays  ****
OctLoc.c.b A Datatyp(siz) R M Lvl/name                 OctLoc.c.b A Datatyp(siz) R M Lvl/name

     0-0-0/c CHAR(64)    r     1 TEMP_FLD

  ****  Section 018 RoData X8CV$CONVERT_TO_INTEGER

  ****  Scalars and arrays  ****
OctLoc.c.b A Datatyp(siz) R M Lvl/name                 OctLoc.c.b A Datatyp(siz) R M Lvl/name

     0-0-0/w PTR         r     1 TEMP_FLD$

  ****  Auto variables  ****

  ****  Scalars and arrays  ****
OctLoc.c.b A Datatyp(siz) R M Lvl/name                 OctLoc.c.b A Datatyp(siz) R M Lvl/name

     5-0-0/w PTR         r     1 @REC_FLD                   4-0-0/w PTR         r     1 @SEND_DESC
     3-0-0/w PTR         r     1 @SEND_FLD$                 6-0-0/w SBIN              1 LT
     7-0-0/c CHAR(65)          1 LTHOLD                    51-0-0/w SBIN              1 NDX
    52-0-0/w SBIN              1 NDX3                      *0-0-0/w STRC        r     1 REC_DESC
    54-0-0/w STRC        r     1 REC_DSC                   *0-0-0/w UBIN        r     1 REC_FLD
    *0-0-0/w PTR         r     1 REC_FLD$                  56-0-0/w SBIN        r     1 REC_FLD_BIT_LEN
    30-0-0/c CHAR(65)          1 RTHOLD                    *0-0-0/w STRC        r     1 SEND_DESC
    53-0-0/w STRC        r     1 SEND_DSC                  *0-0-0/w UBIN        r     1 SEND_FLD
PL6.E3A0      #001=X8CV$CONVERT_TO_INTEGER File=X8CV.:X8A6TSI                    SAT 08/09/97 10:47 Page:43
    *0-0-0/w PTR         r     1 SEND_FLD$                 57-0-0/w SBIN        r     1 SEND_FLD_BIT_LEN
    55-0-0/w SBIN        r     1 TEMP_FLD_LEN

  ****  SYMREF variables  ****

  ****  Scalars and arrays  ****
OctLoc.c.b A Datatyp(siz) R M Lvl/name                 OctLoc.c.b A Datatyp(siz) R M Lvl/name

     0-0-0/c UBIN(9)     r     1 T$ASCII_TO_EBCDIC(0:511)
     0-0-0/c UBIN(9)     r     1 T$ASCII_TO_GBCD(0:511)
     0-0-0/c UBIN(9)     r     1 T$EBCDIC_TO_ASCII(0:511)
     0-0-0/c UBIN(9)     r     1 T$GBCD_TO_ASCII(0:63)

  ****  BASED and DCB variables  ****

  ****  Scalars and arrays  ****
OctLoc.c.b A Datatyp(siz) R M Lvl/name                 OctLoc.c.b A Datatyp(siz) R M Lvl/name

     0-0-0/c ACHR        r     1 REC$FLD                    0-0-0/w ASTR(0)     r     1 REC$FLD6
     0-0-0/h SBIN(18)    r     1 REC_HALF                   0-0-0/w SBIN        r     1 REC_WORD
     0-0-0/c ACHR        r     1 SEND$FLD                   0-0-0/w ASTR(0)     r     1 SEND$FLD6
     0-0-0/h SBIN(18)    r     1 SEND_HALF                  0-0-0/w SBIN        r     1 SEND_WORD
     0-0-0/c ACHR        r     1 TEMP$FLD


   Procedure X8CV$CONVERT_TO_INTEGER requires 498 words for executable code.
   Procedure X8CV$CONVERT_TO_INTEGER requires 54 words of local(AUTO) storage.

    No errors detected in file X8CV.:X8A6TSI    .
