VERSION A06

PL6.E3A0      #001=X8ER$ERROR File=X8ER.:X8A6TSI                                 SAT 08/09/97 10:48 Page:1
        1        1        /*M*  X8ER$ERROR                                                     */
        2        2        /*T***********************************************************/
        3        3        /*T*                                                         */
        4        4        /*T* Copyright (c) Bull HN Information Systems Inc., 1997    */
        5        5        /*T*                                                         */
        6        6        /*T***********************************************************/
        7        7
        8        8        /*P*
        9        9
       10       10                   NAME: X8ER$ERROR
       11       11                PURPOSE: Print the requested error message.
       12       12
       13       13        */
       14       14        /*D*
       15       15                   NAME: X8ER$ERROR
       16       16                   CALL: From PL6 --  Call X8ER$ERROR (ERR#, Message, Length);
       17       17
       18       18                         From Gmap -- EPPPR0 PTRBK1
       19       19                                      EPPRR1 NUMARG
       20       20                             where:
       21       21                                      PTRBK1 PTR .X9??,ERRNUM
       22       22                                      ERRNUM DEC # of error message to print
       23       23                                      NUMARG VFD 18/1,18/0  ( one arg )
       24       24
       25       25              INTERFACE: X9ER$PRINT_ERROR
       26       26                         X8CO$CONV_TO_DECIMAL
       27       27                 OUTPUT:
       28       28                SCRATCH: NONE
       29       29              REFERENCE:
       30       30        */
       31       31        %EJECT;
PL6.E3A0      #001=X8ER$ERROR File=X8ER.:X8A6TSI                                 SAT 08/09/97 10:48 Page:2
       32       32        /*--------*/
       33       33        X8ER$ERROR:            PROC (ERROR_NUMBER, SPECIAL_ERR_MSG, LENGTH);
       34       34        /*--------*/
       35       35
       36       36            %INCLUDE X8A_ERRCOM;
       37      125            %INCLUDE X8A_LIBCOM;
       38      345
       39      346    1       DCL X9ER$PRINT_ERROR       ENTRY(1);
       40      347    1       DCL X8CO$CONV_TO_DECIMAL   ENTRY(2);
       41      348    1       DCL X9ST$STOP_RUN          ENTRY;                       /*#31351*/
       42      349
       43      350
       44      351    1       DCL ERROR_MSG              CHAR(80);
       45      352    1       DCL ERROR_NUMBER           UBIN WORD;
       46      353    1       DCL LENGTH                 SBIN WORD;
       47      354            %EJECT;
PL6.E3A0      #001=X8ER$ERROR File=X8ER.:X8A6TSI                                 SAT 08/09/97 10:48 Page:3
       48      355    1       IF LIBCOM.ERROR_SUPPRESS  THEN
       49      356    1         RETURN;
       50      357
       51      358
       52      359    2       DO CASE ( ERROR_NUMBER );
       53      360
       54      361    2         CASE ( %SPECIAL_MSG );
       55      362    2           CALL X9ER$PRINT_ERROR ( SPECIAL_ERR_MSG );
       56      363
       57      364    2         CASE ( %EXPOVF );
       58      365    2           ERROR_MSG= '*** Overflow in exponentiation, value too large.';
       59      366    2           CALL X9ER$PRINT_ERROR ( ERROR_MSG );
       60      367    2           ERROR_MSG = '    Result set to maximum value: 10 ** 152.';
       61      368    2           CALL X9ER$PRINT_ERROR ( ERROR_MSG );
       62      369
       63      370    2         CASE ( %EXPUDF );
       64      371    2           ERROR_MSG = '*** Underflow in exponentiation, value too small.';
       65      372    2           CALL X9ER$PRINT_ERROR ( ERROR_MSG );
       66      373    2           ERROR_MSG = '    Result set to ZERO.';
       67      374    2           CALL X9ER$PRINT_ERROR ( ERROR_MSG );
       68      375
       69      376    2         CASE ( %ZRONEG );
       70      377    2           ERROR_MSG =
       71      378    2           '*** Overflow in exponentiation, zero raised to a negative power';
       72      379    2           CALL X9ER$PRINT_ERROR ( ERROR_MSG );
       73      380    2           ERROR_MSG = '    Result set to maximum value: 10 ** 152.';
       74      381    2           CALL X9ER$PRINT_ERROR ( ERROR_MSG );
       75      382
       76      383    2         CASE ( %NEGREL );
       77      384    2           ERROR_MSG =
       78      385    2           '*** Overflow in exponentiation, negative raised to a non-integral power';
       79      386    2           CALL X9ER$PRINT_ERROR ( ERROR_MSG );
       80      387    2           ERROR_MSG = '    Result set to maximum value: 10 ** 152';
       81      388    2           CALL X9ER$PRINT_ERROR ( ERROR_MSG );
       82      389        %EJECT;
PL6.E3A0      #001=X8ER$ERROR File=X8ER.:X8A6TSI                                 SAT 08/09/97 10:48 Page:4
       83      390    2         CASE ( %OVERFLOW_TRUNCATION );
       84      391    2           ERROR_MSG = '*** An overflow has occurred';
       85      392    2           CALL X9ER$PRINT_ERROR ( ERROR_MSG );
       86      393    2           ERROR_MSG = '    Significant digits have been truncated.';
       87      394    2           CALL X9ER$PRINT_ERROR ( ERROR_MSG );
       88      395
       89      396    2         CASE ( %EXP_OVERFLOW );
       90      397    2           ERROR_MSG = '*** Exponent overflow fault' ;
       91      398    2           CALL X9ER$PRINT_ERROR ( ERROR_MSG );
       92      399
       93      400    2         CASE ( %ZERO_DIVIDE );
       94      401    2           ERROR_MSG = '*** Division by zero is mathematically undefined';
       95      402    2           CALL X9ER$PRINT_ERROR ( ERROR_MSG );
       96      403    2           CALL X9ER$PRINT_ERROR ( SPECIAL_ERR_MSG );
       97      404
       98      405    2         CASE ( %ILLEGAL_EIS_DATA );
       99      406    2           ERROR_MSG = '*** Illegal EIS data encountered';
      100      407    2           CALL X9ER$PRINT_ERROR ( ERROR_MSG );
      101      408    2           ERROR_MSG = '    ADDRESS    INSTRUCTION    DATA';
      102      409    2           CALL X9ER$PRINT_ERROR ( ERROR_MSG );
      103      410    2           CALL X9ER$PRINT_ERROR ( SPECIAL_ERR_MSG );
      104      411
      105      412    2         CASE ( %LENGTH_EXCEEDED );
      106      413    2            ERROR_MSG = '*** Length of DISPLAY item exceeds 8,191 characters';
      107      414    2            CALL X9ER$PRINT_ERROR ( ERROR_MSG );
      108      415
      109      416    2         CASE ( %NO_DATA );
      110      417    2             ERROR_MSG = '*** Invalid data entry - expecting NUMERIC data';
      111      418    2             CALL X9ER$PRINT_ERROR ( ERROR_MSG );
      112      419    2             LIBCOM.RE_ENTER = %TRUE;
      113      420
      114      421    2         CASE ( %NO_ADDR_TO_DATA );
      115      422    2           ERROR_MSG = '*** No address to access data';
      116      423    2           CALL X9ER$PRINT_ERROR ( ERROR_MSG );
      117      424        %EJECT;
PL6.E3A0      #001=X8ER$ERROR File=X8ER.:X8A6TSI                                 SAT 08/09/97 10:48 Page:5
      118      425    2         CASE ( %EXP_TOO_SMALL );
      119      426    2            ERROR_MSG = '    Exponent too small; set to minimum value (-128)';
      120      427    2            CALL X9ER$PRINT_ERROR ( ERROR_MSG );
      121      428
      122      429    2         CASE ( %EXP_TOO_BIG );
      123      430    2            ERROR_MSG = '*** Exponent too big; set to maximum value (127)';
      124      431    2            CALL X9ER$PRINT_ERROR ( ERROR_MSG );
      125      432
      126      433    2         CASE ( %OVERPUNCH_ERROR );
      127      434    2             ERROR_MSG = '*** Both an OVERPUNCH character and a SIGN are not';
      128      435    2             CALL X9ER$PRINT_ERROR ( ERROR_MSG );
      129      436    2             ERROR_MSG = '      permitted in a number';
      130      437    2             CALL X9ER$PRINT_ERROR ( ERROR_MSG );
      131      438    2             LIBCOM.RE_ENTER = %TRUE;
      132      439
      133      440    2         CASE ( %IPROC_FAULT );
      134      441    2             ERROR_MSG = '*** Illegal procedure fault -- EIS instruction';
      135      442    2             CALL X9ER$PRINT_ERROR ( ERROR_MSG );
      136      443    2             CALL X9ER$PRINT_ERROR ( SPECIAL_ERR_MSG );
      137      444
      138      445    2         CASE ( %ILLEGAL_CHAR );
      139      446    2             ERROR_MSG = '*** Illegal character encountered.';
      140      447    2             CALL X9ER$PRINT_ERROR( ERROR_MSG );
      141      448
      142      449    2         CASE ( %RETYPE );
      143      450    2            ERROR_MSG = '    Enter once more.';
      144      451    2            CALL X9ER$PRINT_ERROR ( ERROR_MSG );
      145      452        %EJECT;
PL6.E3A0      #001=X8ER$ERROR File=X8ER.:X8A6TSI                                 SAT 08/09/97 10:48 Page:6
      146      453    2         CASE ( %RUNTIME_ABORT );
      147      454    2            ERROR_MSG = '*** >>><<< Runtime Abort >>><<< ';
      148      455    2            CALL X9ER$PRINT_ERROR ( ERROR_MSG );
      149      456
      150      457    2         CASE ( %SUBCHECK );
      151      458    2            ERROR_MSG = '*** SUBSCRIPT OUT OF BOUNDS.';
      152      459    2            CALL X9ER$PRINT_ERROR ( ERROR_MSG );
      153      460
      154      461    2         CASE( %OCCURS_CHECK );
      155      462    2           ERROR_MSG = '*** Occurs depending variable out of bounds.';
      156      463    2           CALL X9ER$PRINT_ERROR ( ERROR_MSG );
      157      464
      158      465    2         CASE ( %PARAMETER_COUNT);
      159      466    2           ERROR_MSG =
               466                   '*** The number of parameters of the calling routine does not match with'
               466                    ;
      160      467    2           CALL X9ER$PRINT_ERROR ( ERROR_MSG );
      161      468    2           ERROR_MSG = '   the number of parameters expected by ';
      162      469    2           SUBSTR( ERROR_MSG, 40, LENGTH ) = SPECIAL_ERR_MSG;
      163      470    2           SUBSTR( ERROR_MSG, 40 + LENGTH, 1 ) = '.';
      164      471    2           CALL X9ER$PRINT_ERROR ( ERROR_MSG );
      165      472
      166      473    2         CASE ( %PARAMETER_LENGTH);
      167      474    2           ERROR_MSG ='*** The length of parameter number ';
      168      475    2           SUBSTR( ERROR_MSG, 35, 3 ) = SPECIAL_ERR_MSG;
      169      476    2           CALL X9ER$PRINT_ERROR ( ERROR_MSG );
      170      477    2           ERROR_MSG ='    of the calling routine is not equal to the length';
      171      478    2           CALL X9ER$PRINT_ERROR ( ERROR_MSG );
      172      479    2           ERROR_MSG = '   of the same parameter of ';
      173      480    2           SUBSTR( ERROR_MSG, 28, LENGTH ) = SUBSTR( SPECIAL_ERR_MSG, 3, LENGTH );
      174      481    2           SUBSTR( ERROR_MSG, 28 + LENGTH, 1 ) = '.';
      175      482    2           CALL X9ER$PRINT_ERROR( ERROR_MSG );
      176      483
      177      484    2         CASE ( %PARAMETER_TYPE);
      178      485    2           ERROR_MSG ='*** The TYPE of parameter number ';
      179      486    2           SUBSTR( ERROR_MSG, 33, 3 ) = SPECIAL_ERR_MSG;
      180      487    2           CALL X9ER$PRINT_ERROR ( ERROR_MSG );
PL6.E3A0      #001=X8ER$ERROR File=X8ER.:X8A6TSI                                 SAT 08/09/97 10:48 Page:7
      181      488    2           ERROR_MSG ='    of the calling routine is not equal to the TYPE';
      182      489    2           CALL X9ER$PRINT_ERROR ( ERROR_MSG );
      183      490    2           ERROR_MSG = '   of the same parameter of ';
      184      491    2           SUBSTR( ERROR_MSG, 28, LENGTH ) = SUBSTR( SPECIAL_ERR_MSG, 3, LENGTH );
      185      492    2           SUBSTR( ERROR_MSG, 28 + LENGTH, 1 ) = '.';
      186      493    2           CALL X9ER$PRINT_ERROR( ERROR_MSG );
      187      494
      188      495        %EJECT;
PL6.E3A0      #001=X8ER$ERROR File=X8ER.:X8A6TSI                                 SAT 08/09/97 10:48 Page:8
      189      496        /*V*
      190      497                  IO error messages
      191      498        */
      192      499
      193      500    2         CASE( %IO_NOT_OPEN );
      194      501
      195      502    2           ERROR_MSG = '*** File ';
      196      503    2           SUBSTR( ERROR_MSG,10,LENGTH ) = SPECIAL_ERR_MSG;
      197      504    2           SUBSTR( ERROR_MSG,10+LENGTH,13) = ' is not open.';
      198      505    2           CALL X9ER$PRINT_ERROR ( ERROR_MSG );
      199      506
      200      507    2         CASE( %IO_NOT_OPEN_OUTPUT );
      201      508
      202      509    2           ERROR_MSG = '*** File ';
      203      510    2           SUBSTR( ERROR_MSG,10,LENGTH ) = SPECIAL_ERR_MSG;
      204      511    2           SUBSTR( ERROR_MSG,10+LENGTH,24) =
      205      512    2                 ' is not open for output.';
      206      513    2           CALL X9ER$PRINT_ERROR ( ERROR_MSG );
      207      514
      208      515    2         CASE( %IO_NOT_OPEN_INPUT );
      209      516
      210      517    2           ERROR_MSG = '*** File ';
      211      518    2           SUBSTR( ERROR_MSG,10,LENGTH ) = SPECIAL_ERR_MSG;
      212      519    2           SUBSTR( ERROR_MSG,10+LENGTH,23 ) =
      213      520    2              ' is not open for input.';
      214      521    2           CALL X9ER$PRINT_ERROR ( ERROR_MSG );
      215      522
      216      523    2         CASE( %IO_NOT_OPEN_IO );
      217      524
      218      525    2           ERROR_MSG = '*** File ';
      219      526    2           SUBSTR( ERROR_MSG,10,LENGTH ) = SPECIAL_ERR_MSG;
      220      527    2           SUBSTR( ERROR_MSG,10+LENGTH,20 ) =
      221      528    2                 ' is not open for I-O.';
      222      529    2           CALL X9ER$PRINT_ERROR ( ERROR_MSG );
      223      530
      224      531        %EJECT;
PL6.E3A0      #001=X8ER$ERROR File=X8ER.:X8A6TSI                                 SAT 08/09/97 10:48 Page:9
      225      532    2         CASE( %IO_BOUNDARY_VIOLATION );
      226      533
      227      534    2           ERROR_MSG = '*** A WRITE/REWRITE statement to file: ';
      228      535    2           SUBSTR( ERROR_MSG,39,LENGTH ) = SPECIAL_ERR_MSG;
      229      536    2           CALL X9ER$PRINT_ERROR ( ERROR_MSG );
      230      537    2           ERROR_MSG = '    has violated the file''s defined record boundaries.';
               537                    /*#35317*/
      231      538    2           CALL X9ER$PRINT_ERROR ( ERROR_MSG );
      232      539
      233      540    2         CASE (%IO_PRIOR_NOT_READ);                            /*#34545*/
      234      541    2           ERROR_MSG = '*** A REWRITE statement to file: ';
      235      542    2           SUBSTR (ERROR_MSG,33,LENGTH) = SPECIAL_ERR_MSG;
      236      543    2           CALL X9ER$PRINT_ERROR (ERROR_MSG);
      237      544    2           ERROR_MSG = '    was not preceded by a successful READ.';
      238      545    2           CALL X9ER$PRINT_ERROR ( ERROR_MSG );
      239      546
      240      547    2         CASE (%IO_NO_NEXT_RECORD);                            /*#34545*/
      241      548    2           ERROR_MSG = '*** A READ NEXT has been attempted on file: ';
      242      549    2           SUBSTR( ERROR_MSG,44,LENGTH ) = SPECIAL_ERR_MSG;
      243      550    2           CALL X9ER$PRINT_ERROR( ERROR_MSG );
      244      551    2           ERROR_MSG = '    no next record exists.';
      245      552    2           CALL X9ER$PRINT_ERROR( ERROR_MSG );
      246      553
      247      554
      248      555    2         CASE( %IO_NO_RANDOM_RECORD );
      249      556    2           ERROR_MSG = '*** A random READ has been attempted on file: ';
      250      557    2           SUBSTR( ERROR_MSG,47,LENGTH ) = SPECIAL_ERR_MSG;
      251      558    2           CALL X9ER$PRINT_ERROR( ERROR_MSG );
      252      559    2           ERROR_MSG = '    and no record with the specified key exists.';
      253      560    2           CALL X9ER$PRINT_ERROR( ERROR_MSG );
      254      561
      255      562    2         CASE( %IO_NOT_MASS_STORAGE );
      256      563    2           ERROR_MSG = '*** File';
      257      564    2           SUBSTR( ERROR_MSG,9,LENGTH ) = SPECIAL_ERR_MSG;
      258      565    2           SUBSTR( ERROR_MSG,9+LENGTH,71-LENGTH ) =
      259      566    2            ' is not a mass storage file and can not be opened I-O.';
      260      567    2           CALL X9ER$PRINT_ERROR( ERROR_MSG );
PL6.E3A0      #001=X8ER$ERROR File=X8ER.:X8A6TSI                                 SAT 08/09/97 10:48 Page:10
      261      568        %EJECT;
PL6.E3A0      #001=X8ER$ERROR File=X8ER.:X8A6TSI                                 SAT 08/09/97 10:48 Page:11
      262      569    2         CASE( %IO_ATTRIBUTE_CONFLICT );
      263      570    2           ERROR_MSG = '*** File ';
      264      571    2           SUBSTR( ERROR_MSG,9,LENGTH ) = SPECIAL_ERR_MSG;
      265      572    2           SUBSTR( ERROR_MSG,LENGTH+9,71-LENGTH ) =
      266      573    2           ' has an attribute conflict.';
      267      574    2           CALL X9ER$PRINT_ERROR( ERROR_MSG );
      268      575    2           ERROR_MSG = '    The file organization and the program ';
      269      576    2           CALL X9ER$PRINT_ERROR( ERROR_MSG );
      270      577    2           ERROR_MSG = '    specified organization conflict.';
      271      578    2           CALL X9ER$PRINT_ERROR(  ERROR_MSG );
      272      579
      273      580    2         CASE( %IO_ALREADY_OPEN );
      274      581    2           ERROR_MSG = '*** File';
      275      582    2           SUBSTR( ERROR_MSG,9,LENGTH ) = SPECIAL_ERR_MSG;
      276      583    2           SUBSTR( ERROR_MSG,9+LENGTH,71-LENGTH ) =
      277      584    2            ' is already open.';
      278      585    2           CALL X9ER$PRINT_ERROR( ERROR_MSG );
      279      586
      280      587    2         CASE( %IO_LOCKED );
      281      588    2           ERROR_MSG = '*** File ';
      282      589    2           SUBSTR( ERROR_MSG,9,LENGTH ) = SPECIAL_ERR_MSG;
      283      590    2           SUBSTR( ERROR_MSG,LENGTH+9,71-LENGTH ) =
      284      591    2           ' has been locked and cannot be reopened.';
      285      592    2           CALL X9ER$PRINT_ERROR( ERROR_MSG );
      286      593
      287      594
      288      595    2         CASE( %IO_INVALID_LINAGE );
      289      596    2           ERROR_MSG = '*** Value of LINAGE data item for file ';
      290      597    2           SUBSTR( ERROR_MSG,39,LENGTH ) = SPECIAL_ERR_MSG;
      291      598    2           CALL X9ER$PRINT_ERROR( ERROR_MSG );
      292      599    2           ERROR_MSG = '    is less than or equal to zero.  LINAGE set to 1.';
      293      600    2           CALL X9ER$PRINT_ERROR( ERROR_MSG );
      294      601
      295      602        %EJECT;
PL6.E3A0      #001=X8ER$ERROR File=X8ER.:X8A6TSI                                 SAT 08/09/97 10:48 Page:12
      296      603    2         CASE( %IO_INVALID_FOOTING );
      297      604    2           ERROR_MSG = '*** Value of footing data item for file ';
      298      605    2           SUBSTR( ERROR_MSG,40,LENGTH ) = SPECIAL_ERR_MSG;
      299      606    2           CALL X9ER$PRINT_ERROR( ERROR_MSG );
      300      607    2           ERROR_MSG = '    is less than or equal to zero or greater than';
      301      608    2           CALL X9ER$PRINT_ERROR( ERROR_MSG );
      302      609    2           ERROR_MSG = '    the value of the LINAGE data item.';
      303      610    2           CALL X9ER$PRINT_ERROR( ERROR_MSG );
      304      611
      305      612    2         CASE( %IO_INVALID_CHANNEL );
      306      613    2           ERROR_MSG = '*** " " is an invalid channel character.';
      307      614    2           SUBSTR( ERROR_MSG,5,1 ) = SPECIAL_ERR_MSG;
      308      615    2           CALL X9ER$PRINT_ERROR( ERROR_MSG );
      309      616
      310      617
      311      618        %EJECT;
PL6.E3A0      #001=X8ER$ERROR File=X8ER.:X8A6TSI                                 SAT 08/09/97 10:48 Page:13
      312      619        /*V*
      313      620                  Call/Cancel error messages
      314      621        */
      315      622
      316      623    2         CASE( %IPC_RECURSIVE_CALL );
      317      624    2           ERROR_MSG = '*** The attempted call of program: ';
      318      625    2           SUBSTR( ERROR_MSG,36,LENGTH ) = SUBSTR( SPECIAL_ERR_MSG,0,
      319      626    2                                                   LENGTH   );
      320      627    2           CALL X9ER$PRINT_ERROR( ERROR_MSG );
      321      628    2           ERROR_MSG =
      322      629    2              '    is unsuccessful because it is a recursive call.';
      323      630    2           CALL X9ER$PRINT_ERROR( ERROR_MSG );
      324      631
      325      632    2         CASE( %IPC_INVALID_PROC_CALL );
      326      633    2           ERROR_MSG = '*** A call error condition has been detected and';
      327      634    2           CALL X9ER$PRINT_ERROR( ERROR_MSG );
      328      635    2           ERROR_MSG = '    no overflow/exception clause exists; program aborted.';
      329      636    2           CALL X9ER$PRINT_ERROR( ERROR_MSG );
      330      637
      331      638    2         CASE( %IPC_PROGRAM_NOT_FOUND );
      332      639    2           ERROR_MSG = '*** The call/cancel of program: ';
      333      640    2           SUBSTR( ERROR_MSG,33,LENGTH ) = SUBSTR( SPECIAL_ERR_MSG,0,
      334      641    2                                                   LENGTH   );
      335      642    2           CALL X9ER$PRINT_ERROR( ERROR_MSG );
      336      643    2           ERROR_MSG =
      337      644    2              '    is unsuccessful because the program could not be found.';
      338      645    2           CALL X9ER$PRINT_ERROR( ERROR_MSG );
      339      646
      340      647
      341      648    2         CASE( %IPC_NOT_COMMON );
      342      649    2           ERROR_MSG = '*** The call/cancel of program: ';
      343      650    2           SUBSTR( ERROR_MSG,33,LENGTH ) = SUBSTR( SPECIAL_ERR_MSG,0,
      344      651    2                                                   LENGTH   );
      345      652    2           CALL X9ER$PRINT_ERROR( ERROR_MSG );
      346      653    2           ERROR_MSG =
      347      654    2              '    is unsuccessful because the program is not common.';
      348      655    2           CALL X9ER$PRINT_ERROR( ERROR_MSG );
PL6.E3A0      #001=X8ER$ERROR File=X8ER.:X8A6TSI                                 SAT 08/09/97 10:48 Page:14
      349      656
      350      657    2         CASE( %IPC_CANCEL_ACTIVE );
      351      658
      352      659    2           ERROR_MSG = '*** The cancel of the  program: ';
      353      660    2           SUBSTR( ERROR_MSG,33,LENGTH ) = SUBSTR( SPECIAL_ERR_MSG,0,
      354      661    2                                                   LENGTH   );
      355      662    2           CALL X9ER$PRINT_ERROR( ERROR_MSG );
      356      663    2           ERROR_MSG =
      357      664    2              '    is unsuccessful because the program is active.';
      358      665    2           CALL X9ER$PRINT_ERROR( ERROR_MSG );
      359      666    2         CASE( %CALL_USE_RECURSIVE );
      360      667    2           ERROR_MSG =
               667                    '*** Serious error: attempt to invoke USE procedure recursively.';
      361      668    2           CALL X9ER$PRINT_ERROR( ERROR_MSG );
      362      669        %EJECT;
PL6.E3A0      #001=X8ER$ERROR File=X8ER.:X8A6TSI                                 SAT 08/09/97 10:48 Page:15
      363      670        /*V*     Report Writer Control System error messages                */
      364      671
      365      672    2          CASE( %RW_ALREADY_ACTIVE );
      366      673    2            ERROR_MSG = '*** An Initiate was encountered for a';
      367      674    2            CALL X9ER$PRINT_ERROR ( ERROR_MSG );
      368      675    2            ERROR_MSG = '    report that is currently active.';
      369      676    2            CALL X9ER$PRINT_ERROR ( ERROR_MSG );
      370      677    2            IF ~ LIBCOM.CONTINUE THEN                      /*#31351*/
      371      678    3              DO;
      372      679    3                LIBCOM.ERROR_FLAG = %TRUE;
      373      680    3                CALL X9ST$STOP_RUN;
      374      681    3              END;
      375      682
      376      683    2          CASE ( %RW_NEVER_ACTIVE );
      377      684    2            ERROR_MSG = '*** A Terminate was encountered for a';
      378      685    2            CALL X9ER$PRINT_ERROR ( ERROR_MSG );
      379      686    2            ERROR_MSG = '    report which was not active.';
      380      687    2            CALL X9ER$PRINT_ERROR ( ERROR_MSG );
      381      688    2            IF ~ LIBCOM.CONTINUE THEN                      /*#31351*/
      382      689    3              DO;
      383      690    3                LIBCOM.ERROR_FLAG = %TRUE;
      384      691    3                CALL X9ST$STOP_RUN;
      385      692    3              END;
      386      693
      387      694    2          CASE (%RW_NOT_ACTIVE );
      388      695    2            ERROR_MSG = '*** A Generate was encountered for a ';
      389      696    2            CALL X9ER$PRINT_ERROR ( ERROR_MSG );
      390      697    2            ERROR_MSG = '    report which was not active. ';
      391      698    2            CALL X9ER$PRINT_ERROR ( ERROR_MSG );
      392      699    2            IF ~ LIBCOM.CONTINUE THEN                      /*#31351*/
      393      700    3              DO;
      394      701    3                LIBCOM.ERROR_FLAG = %TRUE;
      395      702    3                CALL X9ST$STOP_RUN;
      396      703    3              END;
      397      704        %EJECT;
PL6.E3A0      #001=X8ER$ERROR File=X8ER.:X8A6TSI                                 SAT 08/09/97 10:48 Page:16
      398      705    2          CASE (%USER_LABEL_NOT_UHL_UTL);
      399      706
      400      707    2            ERROR_MSG =
               707                     '*** User beginning or ending Label did not begin with "UHL" or "UTL"';
      401      708    2            CALL X9ER$PRINT_ERROR ( ERROR_MSG );
      402      709    2            ERROR_MSG = '    and has been corrected.';
      403      710    2            CALL X9ER$PRINT_ERROR ( ERROR_MSG );
      404      711
      405      712        %EJECT;
PL6.E3A0      #001=X8ER$ERROR File=X8ER.:X8A6TSI                                 SAT 08/09/97 10:48 Page:17
      406      713    2         CASE ( %UNEXPECTED_CASE );
      407      714
      408      715    2           ERROR_MSG =
      409      716    2           '*** Runtime library error: An unexpected case has been encountered.';
      410      717    2            CALL X9ER$PRINT_ERROR( ERROR_MSG );
      411      718    2            ERROR_MSG = '    Module: ';
      412      719    2            SUBSTR ( ERROR_MSG,13,LENGTH ) = SPECIAL_ERR_MSG;
      413      720    2            CALL X9ER$PRINT_ERROR( ERROR_MSG );
      414      721
      415      722    2         CASE ( ELSE );
      416      723    2           ERROR_MSG =
      417      724    2           '*** Runtime library error: No error message defined  yet. ';
      418      725    2            CALL X9ER$PRINT_ERROR ( ERROR_MSG );
      419      726    2            ERROR_MSG = '    Error message number = ';
      420      727    2            CALL X8CO$CONV_TO_DECIMAL( ERROR_NUMBER, SUBSTR( ERROR_MSG,30,13 ));
      421      728    2            CALL X9ER$PRINT_ERROR ( ERROR_MSG );
      422      729
      423      730    2       END;  /* CASE */
      424      731
      425      732        /*
      426      733                 Print a blank line to keep error messages from being
      427      734                 overprinted by user's program.
      428      735        */
      429      736
      430      737    1       ERROR_MSG = ' ';
      431      738    1       CALL X9ER$PRINT_ERROR( ERROR_MSG );
      432      739    1   END X8ER$ERROR;  /* proc */
      433      740        %EJECT;
PL6.E3A0      #001=X8ER$ERROR File=X8ER.:X8A6TSI                                 SAT 08/09/97 10:48 Page:18
      434      741        %EOD;

PL6.E3A0      #001=X8ER$ERROR File=X8ER.:X8A6TSI                                 SAT 08/09/97 10:48 Page:19
--  Include file information  --

   X8A_LIBCOM.:X8A6TOU  cannot be made into a system file and is referenced.
   X8A_ERRCOM.:X8A6TOU  cannot be made into a system file and is referenced.
      No diagnostics issued in procedure X8ER$ERROR.

   Procedure X8ER$ERROR requires 1285 words for executable code.
   Procedure X8ER$ERROR requires 68 words of local(AUTO) storage.

PL6.E3A0      #001=X8ER$ERROR File=X8ER.:X8A6TSI                                 SAT 08/09/97 10:48 Page:20

 Object Unit name= X8ER$ERROR                                 File name= X8ER.:X8A6TOU
 UTS= AUG 09 '97 10:48:50.52 SAT                              Compiler= PL-6/E31         Sev=      00
 SharedLib= :SHARED_SYSTEM                                    Alt SharedLib=


    ****  Control sections  ****

 Sect   Type Bound  Init  Size OctSiz  Section name(segment info)
    0  LblCom even  none    20     24  LIBCOM
    1  LblCom even  none     1      1  DEC_OR_COMMA
    2  LblCom even  none    20     24  IN_TEMP
    3  LblCom even  none     1      1  OVRCHR
    4  LblCom even  none     1      1  SELECT_TIME
    5  LblCom even  none     1      1  NO_ADVANCE_OFFSET
    6  LblCom even  none    18     22  DSPLY_SAVE
    7  LblCom even  none     3      3  D_DATE
    8  LblCom even  none     3      3  D_TIME
    9  LblCom even  none     1      1  D_DAY
   10  LblCom even  none     2      2  C_DATE
   11  LblCom even  none     2      2  C_TIME
   12  LblCom even  none     2      2  C_DAY
   13  LblCom even  none     1      1  RTHOLD2
   14  LblCom even  none     1      1  LTHOLD2
   15  LblCom even  none     1      1  NDX2
   16  LblCom even  none     1      1  IN_LEN
   17  RoData even  UTS    820   1464  X8ER$ERROR
   18   Proc  even  none  1285   2405  X8ER$ERROR
   19  RoData even  none     7      7  X8ER$ERROR

    ****  Entry defs  ****

                              Check   Calling
                             calling  sequence
  Sect OctLoc Primary Altret sequence   type   Parms  Name
    18      0   yes            yes      Std        3  X8ER$ERROR
PL6.E3A0      #001=X8ER$ERROR File=X8ER.:X8A6TSI                                 SAT 08/09/97 10:48 Page:21

  ****  Entry refs  ****

         Check        Calling
        calling       sequence
Altret sequence SRef   type   Args  Name
         yes           Std       1 X9ER$PRINT_ERROR
         yes           Std       0 X9ST$STOP_RUN
         yes           Std       2 X8CO$CONV_TO_DECIMAL
                       nStd      0 X66_AUTO_3
                       nStd      0 X66_ARET
PL6.E3A0      #001=X8ER$ERROR File=X8ER.:X8A6TSI                                 SAT 08/09/97 10:48 Page:22


        1        1        /*M*  X8ER$ERROR                                                     */
        2        2        /*T***********************************************************/
        3        3        /*T*                                                         */
        4        4        /*T* Copyright (c) Bull HN Information Systems Inc., 1997    */
        5        5        /*T*                                                         */
        6        6        /*T***********************************************************/
        7        7
        8        8        /*P*
        9        9
       10       10                   NAME: X8ER$ERROR
       11       11                PURPOSE: Print the requested error message.
       12       12
       13       13        */
       14       14        /*D*
       15       15                   NAME: X8ER$ERROR
       16       16                   CALL: From PL6 --  Call X8ER$ERROR (ERR#, Message, Length);
       17       17
       18       18                         From Gmap -- EPPPR0 PTRBK1
       19       19                                      EPPRR1 NUMARG
       20       20                             where:
       21       21                                      PTRBK1 PTR .X9??,ERRNUM
       22       22                                      ERRNUM DEC # of error message to print
       23       23                                      NUMARG VFD 18/1,18/0  ( one arg )
       24       24
       25       25              INTERFACE: X9ER$PRINT_ERROR
       26       26                         X8CO$CONV_TO_DECIMAL
       27       27                 OUTPUT:
       28       28                SCRATCH: NONE
       29       29              REFERENCE:
       30       30        */
       31       31        %EJECT;
PL6.E3A0      #001=X8ER$ERROR File=X8ER.:X8A6TSI                                 SAT 08/09/97 10:48 Page:23
       32       32        /*--------*/
       33       33        X8ER$ERROR:            PROC (ERROR_NUMBER, SPECIAL_ERR_MSG, LENGTH);

     33 18 000000   000000 700200 xent  X8ER$ERROR   TSX0  ! X66_AUTO_3
        18 000001   000104 000003                    ZERO    68,3

       34       34        /*--------*/
       35       35
       36       36            %INCLUDE X8A_ERRCOM;
       37      125            %INCLUDE X8A_LIBCOM;
       38      345
       39      346    1       DCL X9ER$PRINT_ERROR       ENTRY(1);
       40      347    1       DCL X8CO$CONV_TO_DECIMAL   ENTRY(2);
       41      348    1       DCL X9ST$STOP_RUN          ENTRY;                       /*#31351*/
       42      349
       43      350
       44      351    1       DCL ERROR_MSG              CHAR(80);
       45      352    1       DCL ERROR_NUMBER           UBIN WORD;
       46      353    1       DCL LENGTH                 SBIN WORD;
       47      354            %EJECT;
PL6.E3A0      #001=X8ER$ERROR File=X8ER.:X8A6TSI                                 SAT 08/09/97 10:48 Page:24
       48      355    1       IF LIBCOM.ERROR_SUPPRESS  THEN

    355 18 000002   000020 234000 0                  SZN     LIBCOM+16
        18 000003   000005 605000 18                 TPL     s:359

       49      356    1         RETURN;

    356 18 000004   000000 702200 xent               TSX2  ! X66_ARET

       50      357
       51      358
       52      359    2       DO CASE ( ERROR_NUMBER );

    359 18 000005   200003 470500                    LDP0    @ERROR_NUMBER,,AUTO
        18 000006   000000 235100                    LDA     0,,PR0
        18 000007   000313 115007                    CMPA    203,DL
        18 000010   000012 602005 18                 TNC     s:359+5,AL
        18 000011   002340 710000 18                 TRA     s:723
        18 000012   000325 710000 18                 TRA     s:362
        18 000013   000332 710000 18                 TRA     s:365
        18 000014   000355 710000 18                 TRA     s:371
        18 000015   000400 710000 18                 TRA     s:377
        18 000016   000423 710000 18                 TRA     s:384
        18 000017   002340 710000 18                 TRA     s:723
        18 000020   002340 710000 18                 TRA     s:723
        18 000021   002340 710000 18                 TRA     s:723
        18 000022   002340 710000 18                 TRA     s:723
        18 000023   002340 710000 18                 TRA     s:723
        18 000024   002340 710000 18                 TRA     s:723
        18 000025   002340 710000 18                 TRA     s:723
        18 000026   002340 710000 18                 TRA     s:723
        18 000027   002126 710000 18                 TRA     s:667
        18 000030   002340 710000 18                 TRA     s:723
        18 000031   002340 710000 18                 TRA     s:723
        18 000032   002340 710000 18                 TRA     s:723
        18 000033   002340 710000 18                 TRA     s:723
        18 000034   002340 710000 18                 TRA     s:723
PL6.E3A0      #001=X8ER$ERROR File=X8ER.:X8A6TSI                                 SAT 08/09/97 10:48 Page:25
        18 000035   002340 710000 18                 TRA     s:723
        18 000036   002340 710000 18                 TRA     s:723
        18 000037   000747 710000 18                 TRA     s:462
        18 000040   002340 710000 18                 TRA     s:723
        18 000041   002340 710000 18                 TRA     s:723
        18 000042   000446 710000 18                 TRA     s:391
        18 000043   000723 710000 18                 TRA     s:454
        18 000044   000735 710000 18                 TRA     s:458
        18 000045   000661 710000 18                 TRA     s:441
        18 000046   002340 710000 18                 TRA     s:723
        18 000047   000550 710000 18                 TRA     s:413
        18 000050   000471 710000 18                 TRA     s:397
        18 000051   000503 710000 18                 TRA     s:401
        18 000052   000521 710000 18                 TRA     s:406
        18 000053   000576 710000 18                 TRA     s:422
        18 000054   001733 710000 18                 TRA     s:624
        18 000055   002042 710000 18                 TRA     s:649
        18 000056   002074 710000 18                 TRA     s:659
        18 000057   002340 710000 18                 TRA     s:723
        18 000060   002010 710000 18                 TRA     s:639
        18 000061   001765 710000 18                 TRA     s:633
        18 000062   002340 710000 18                 TRA     s:723
        18 000063   002340 710000 18                 TRA     s:723
        18 000064   002340 710000 18                 TRA     s:723
        18 000065   002340 710000 18                 TRA     s:723
        18 000066   002340 710000 18                 TRA     s:723
        18 000067   000562 710000 18                 TRA     s:417
        18 000070   000634 710000 18                 TRA     s:434
        18 000071   002340 710000 18                 TRA     s:723
        18 000072   002340 710000 18                 TRA     s:723
        18 000073   002340 710000 18                 TRA     s:723
        18 000074   000610 710000 18                 TRA     s:426
        18 000075   000622 710000 18                 TRA     s:430
        18 000076   000711 710000 18                 TRA     s:450
        18 000077   000677 710000 18                 TRA     s:446
        18 000100   002140 710000 18                 TRA     s:673
        18 000101   002174 710000 18                 TRA     s:684
PL6.E3A0      #001=X8ER$ERROR File=X8ER.:X8A6TSI                                 SAT 08/09/97 10:48 Page:26
        18 000102   002230 710000 18                 TRA     s:695
        18 000103   002340 710000 18                 TRA     s:723
        18 000104   002340 710000 18                 TRA     s:723
        18 000105   002340 710000 18                 TRA     s:723
        18 000106   002264 710000 18                 TRA     s:707
        18 000107   002340 710000 18                 TRA     s:723
        18 000110   002340 710000 18                 TRA     s:723
        18 000111   002340 710000 18                 TRA     s:723
        18 000112   002340 710000 18                 TRA     s:723
        18 000113   002340 710000 18                 TRA     s:723
        18 000114   002340 710000 18                 TRA     s:723
        18 000115   002340 710000 18                 TRA     s:723
        18 000116   002340 710000 18                 TRA     s:723
        18 000117   002340 710000 18                 TRA     s:723
        18 000120   002340 710000 18                 TRA     s:723
        18 000121   002340 710000 18                 TRA     s:723
        18 000122   002340 710000 18                 TRA     s:723
        18 000123   002340 710000 18                 TRA     s:723
        18 000124   002340 710000 18                 TRA     s:723
        18 000125   002340 710000 18                 TRA     s:723
        18 000126   002340 710000 18                 TRA     s:723
        18 000127   002340 710000 18                 TRA     s:723
        18 000130   002340 710000 18                 TRA     s:723
        18 000131   002340 710000 18                 TRA     s:723
        18 000132   002340 710000 18                 TRA     s:723
        18 000133   002340 710000 18                 TRA     s:723
        18 000134   002340 710000 18                 TRA     s:723
        18 000135   002340 710000 18                 TRA     s:723
        18 000136   002340 710000 18                 TRA     s:723
        18 000137   002340 710000 18                 TRA     s:723
        18 000140   002340 710000 18                 TRA     s:723
        18 000141   002340 710000 18                 TRA     s:723
        18 000142   002340 710000 18                 TRA     s:723
        18 000143   002340 710000 18                 TRA     s:723
        18 000144   002340 710000 18                 TRA     s:723
        18 000145   002340 710000 18                 TRA     s:723
        18 000146   002340 710000 18                 TRA     s:723
PL6.E3A0      #001=X8ER$ERROR File=X8ER.:X8A6TSI                                 SAT 08/09/97 10:48 Page:27
        18 000147   002340 710000 18                 TRA     s:723
        18 000150   002340 710000 18                 TRA     s:723
        18 000151   002340 710000 18                 TRA     s:723
        18 000152   002340 710000 18                 TRA     s:723
        18 000153   002340 710000 18                 TRA     s:723
        18 000154   002340 710000 18                 TRA     s:723
        18 000155   002307 710000 18                 TRA     s:715
        18 000156   000761 710000 18                 TRA     s:466
        18 000157   001016 710000 18                 TRA     s:474
        18 000160   001071 710000 18                 TRA     s:485
        18 000161   002340 710000 18                 TRA     s:723
        18 000162   002340 710000 18                 TRA     s:723
        18 000163   002340 710000 18                 TRA     s:723
        18 000164   002340 710000 18                 TRA     s:723
        18 000165   002340 710000 18                 TRA     s:723
        18 000166   002340 710000 18                 TRA     s:723
        18 000167   002340 710000 18                 TRA     s:723
        18 000170   002340 710000 18                 TRA     s:723
        18 000171   002340 710000 18                 TRA     s:723
        18 000172   002340 710000 18                 TRA     s:723
        18 000173   002340 710000 18                 TRA     s:723
        18 000174   002340 710000 18                 TRA     s:723
        18 000175   002340 710000 18                 TRA     s:723
        18 000176   002340 710000 18                 TRA     s:723
        18 000177   002340 710000 18                 TRA     s:723
        18 000200   002340 710000 18                 TRA     s:723
        18 000201   002340 710000 18                 TRA     s:723
        18 000202   002340 710000 18                 TRA     s:723
        18 000203   002340 710000 18                 TRA     s:723
        18 000204   002340 710000 18                 TRA     s:723
        18 000205   001377 710000 18                 TRA     s:556
        18 000206   002340 710000 18                 TRA     s:723
        18 000207   002340 710000 18                 TRA     s:723
        18 000210   002340 710000 18                 TRA     s:723
        18 000211   002340 710000 18                 TRA     s:723
        18 000212   002340 710000 18                 TRA     s:723
        18 000213   002340 710000 18                 TRA     s:723
PL6.E3A0      #001=X8ER$ERROR File=X8ER.:X8A6TSI                                 SAT 08/09/97 10:48 Page:28
        18 000214   002340 710000 18                 TRA     s:723
        18 000215   002340 710000 18                 TRA     s:723
        18 000216   002340 710000 18                 TRA     s:723
        18 000217   002340 710000 18                 TRA     s:723
        18 000220   002340 710000 18                 TRA     s:723
        18 000221   002340 710000 18                 TRA     s:723
        18 000222   002340 710000 18                 TRA     s:723
        18 000223   001430 710000 18                 TRA     s:563
        18 000224   001570 710000 18                 TRA     s:588
        18 000225   001462 710000 18                 TRA     s:570
        18 000226   002340 710000 18                 TRA     s:723
        18 000227   001536 710000 18                 TRA     s:581
        18 000230   001144 710000 18                 TRA     s:502
        18 000231   001315 710000 18                 TRA     s:541
        18 000232   001264 710000 18                 TRA     s:534
        18 000233   002340 710000 18                 TRA     s:723
        18 000234   001346 710000 18                 TRA     s:548
        18 000235   001214 710000 18                 TRA     s:517
        18 000236   001170 710000 18                 TRA     s:509
        18 000237   001240 710000 18                 TRA     s:525
        18 000240   002340 710000 18                 TRA     s:723
        18 000241   002340 710000 18                 TRA     s:723
        18 000242   002340 710000 18                 TRA     s:723
        18 000243   002340 710000 18                 TRA     s:723
        18 000244   002340 710000 18                 TRA     s:723
        18 000245   002340 710000 18                 TRA     s:723
        18 000246   002340 710000 18                 TRA     s:723
        18 000247   002340 710000 18                 TRA     s:723
        18 000250   002340 710000 18                 TRA     s:723
        18 000251   002340 710000 18                 TRA     s:723
        18 000252   002340 710000 18                 TRA     s:723
        18 000253   002340 710000 18                 TRA     s:723
        18 000254   002340 710000 18                 TRA     s:723
        18 000255   002340 710000 18                 TRA     s:723
        18 000256   002340 710000 18                 TRA     s:723
        18 000257   002340 710000 18                 TRA     s:723
        18 000260   002340 710000 18                 TRA     s:723
PL6.E3A0      #001=X8ER$ERROR File=X8ER.:X8A6TSI                                 SAT 08/09/97 10:48 Page:29
        18 000261   002340 710000 18                 TRA     s:723
        18 000262   002340 710000 18                 TRA     s:723
        18 000263   002340 710000 18                 TRA     s:723
        18 000264   002340 710000 18                 TRA     s:723
        18 000265   002340 710000 18                 TRA     s:723
        18 000266   002340 710000 18                 TRA     s:723
        18 000267   002340 710000 18                 TRA     s:723
        18 000270   002340 710000 18                 TRA     s:723
        18 000271   002340 710000 18                 TRA     s:723
        18 000272   002340 710000 18                 TRA     s:723
        18 000273   002340 710000 18                 TRA     s:723
        18 000274   002340 710000 18                 TRA     s:723
        18 000275   002340 710000 18                 TRA     s:723
        18 000276   002340 710000 18                 TRA     s:723
        18 000277   002340 710000 18                 TRA     s:723
        18 000300   002340 710000 18                 TRA     s:723
        18 000301   002340 710000 18                 TRA     s:723
        18 000302   002340 710000 18                 TRA     s:723
        18 000303   002340 710000 18                 TRA     s:723
        18 000304   002340 710000 18                 TRA     s:723
        18 000305   002340 710000 18                 TRA     s:723
        18 000306   002340 710000 18                 TRA     s:723
        18 000307   002340 710000 18                 TRA     s:723
        18 000310   002340 710000 18                 TRA     s:723
        18 000311   002340 710000 18                 TRA     s:723
        18 000312   002340 710000 18                 TRA     s:723
        18 000313   002340 710000 18                 TRA     s:723
        18 000314   002340 710000 18                 TRA     s:723
        18 000315   002340 710000 18                 TRA     s:723
        18 000316   002340 710000 18                 TRA     s:723
        18 000317   002340 710000 18                 TRA     s:723
        18 000320   002340 710000 18                 TRA     s:723
        18 000321   002340 710000 18                 TRA     s:723
        18 000322   001715 710000 18                 TRA     s:613
        18 000323   001622 710000 18                 TRA     s:596
        18 000324   001653 710000 18                 TRA     s:604

PL6.E3A0      #001=X8ER$ERROR File=X8ER.:X8A6TSI                                 SAT 08/09/97 10:48 Page:30
       53      360
       54      361    2         CASE ( %SPECIAL_MSG );

       55      362    2           CALL X9ER$PRINT_ERROR ( SPECIAL_ERR_MSG );

    362 18 000325   200004 630500                    EPPR0   @SPECIAL_ERR_MSG,,AUTO
        18 000326   000000 631400 19                 EPPR1   0
        18 000327   000000 701000 xent               TSX1    X9ER$PRINT_ERROR
        18 000330   000000 011000                    NOP     0
        18 000331   002373 710000 18                 TRA     s:737

       56      363
       57      364    2         CASE ( %EXPOVF );

       58      365    2           ERROR_MSG= '*** Overflow in exponentiation, value too large.';

    365 18 000332   040100 100400                    MLR     fill='040'O
        18 000333   000000 000060 17                 ADSC9   0                        cn=0,n=48
        18 000334   200053 000120                    ADSC9   ERROR_MSG,,AUTO          cn=0,n=80

       59      366    2           CALL X9ER$PRINT_ERROR ( ERROR_MSG );

    366 18 000335   200053 631500                    EPPR1   ERROR_MSG,,AUTO
        18 000336   200100 451500                    STP1    ERROR_MSG+21,,AUTO
        18 000337   200100 630500                    EPPR0   ERROR_MSG+21,,AUTO
        18 000340   000000 631400 19                 EPPR1   0
        18 000341   000000 701000 xent               TSX1    X9ER$PRINT_ERROR
        18 000342   000000 011000                    NOP     0

       60      367    2           ERROR_MSG = '    Result set to maximum value: 10 ** 152.';

    367 18 000343   040100 100400                    MLR     fill='040'O
        18 000344   000014 000053 17                 ADSC9   12                       cn=0,n=43
        18 000345   200053 000120                    ADSC9   ERROR_MSG,,AUTO          cn=0,n=80

       61      368    2           CALL X9ER$PRINT_ERROR ( ERROR_MSG );

PL6.E3A0      #001=X8ER$ERROR File=X8ER.:X8A6TSI                                 SAT 08/09/97 10:48 Page:31
    368 18 000346   200053 630500                    EPPR0   ERROR_MSG,,AUTO
        18 000347   200100 450500                    STP0    ERROR_MSG+21,,AUTO
        18 000350   200100 630500                    EPPR0   ERROR_MSG+21,,AUTO
        18 000351   000000 631400 19                 EPPR1   0
        18 000352   000000 701000 xent               TSX1    X9ER$PRINT_ERROR
        18 000353   000000 011000                    NOP     0
        18 000354   002373 710000 18                 TRA     s:737

       62      369
       63      370    2         CASE ( %EXPUDF );

       64      371    2           ERROR_MSG = '*** Underflow in exponentiation, value too small.';

    371 18 000355   040100 100400                    MLR     fill='040'O
        18 000356   000027 000061 17                 ADSC9   23                       cn=0,n=49
        18 000357   200053 000120                    ADSC9   ERROR_MSG,,AUTO          cn=0,n=80

       65      372    2           CALL X9ER$PRINT_ERROR ( ERROR_MSG );

    372 18 000360   200053 631500                    EPPR1   ERROR_MSG,,AUTO
        18 000361   200100 451500                    STP1    ERROR_MSG+21,,AUTO
        18 000362   200100 630500                    EPPR0   ERROR_MSG+21,,AUTO
        18 000363   000000 631400 19                 EPPR1   0
        18 000364   000000 701000 xent               TSX1    X9ER$PRINT_ERROR
        18 000365   000000 011000                    NOP     0

       66      373    2           ERROR_MSG = '    Result set to ZERO.';

    373 18 000366   040100 100400                    MLR     fill='040'O
        18 000367   000044 000027 17                 ADSC9   36                       cn=0,n=23
        18 000370   200053 000120                    ADSC9   ERROR_MSG,,AUTO          cn=0,n=80

       67      374    2           CALL X9ER$PRINT_ERROR ( ERROR_MSG );

    374 18 000371   200053 630500                    EPPR0   ERROR_MSG,,AUTO
        18 000372   200100 450500                    STP0    ERROR_MSG+21,,AUTO
        18 000373   200100 630500                    EPPR0   ERROR_MSG+21,,AUTO
PL6.E3A0      #001=X8ER$ERROR File=X8ER.:X8A6TSI                                 SAT 08/09/97 10:48 Page:32
        18 000374   000000 631400 19                 EPPR1   0
        18 000375   000000 701000 xent               TSX1    X9ER$PRINT_ERROR
        18 000376   000000 011000                    NOP     0
        18 000377   002373 710000 18                 TRA     s:737

       68      375
       69      376    2         CASE ( %ZRONEG );

       70      377    2           ERROR_MSG =

    377 18 000400   040100 100400                    MLR     fill='040'O
        18 000401   000052 000077 17                 ADSC9   42                       cn=0,n=63
        18 000402   200053 000120                    ADSC9   ERROR_MSG,,AUTO          cn=0,n=80

       71      378    2           '*** Overflow in exponentiation, zero raised to a negative power';
       72      379    2           CALL X9ER$PRINT_ERROR ( ERROR_MSG );

    379 18 000403   200053 631500                    EPPR1   ERROR_MSG,,AUTO
        18 000404   200100 451500                    STP1    ERROR_MSG+21,,AUTO
        18 000405   200100 630500                    EPPR0   ERROR_MSG+21,,AUTO
        18 000406   000000 631400 19                 EPPR1   0
        18 000407   000000 701000 xent               TSX1    X9ER$PRINT_ERROR
        18 000410   000000 011000                    NOP     0

       73      380    2           ERROR_MSG = '    Result set to maximum value: 10 ** 152.';

    380 18 000411   040100 100400                    MLR     fill='040'O
        18 000412   000014 000053 17                 ADSC9   12                       cn=0,n=43
        18 000413   200053 000120                    ADSC9   ERROR_MSG,,AUTO          cn=0,n=80

       74      381    2           CALL X9ER$PRINT_ERROR ( ERROR_MSG );

    381 18 000414   200053 630500                    EPPR0   ERROR_MSG,,AUTO
        18 000415   200100 450500                    STP0    ERROR_MSG+21,,AUTO
        18 000416   200100 630500                    EPPR0   ERROR_MSG+21,,AUTO
        18 000417   000000 631400 19                 EPPR1   0
        18 000420   000000 701000 xent               TSX1    X9ER$PRINT_ERROR
PL6.E3A0      #001=X8ER$ERROR File=X8ER.:X8A6TSI                                 SAT 08/09/97 10:48 Page:33
        18 000421   000000 011000                    NOP     0
        18 000422   002373 710000 18                 TRA     s:737

       75      382
       76      383    2         CASE ( %NEGREL );

       77      384    2           ERROR_MSG =

    384 18 000423   040100 100400                    MLR     fill='040'O
        18 000424   000072 000107 17                 ADSC9   58                       cn=0,n=71
        18 000425   200053 000120                    ADSC9   ERROR_MSG,,AUTO          cn=0,n=80

       78      385    2           '*** Overflow in exponentiation, negative raised to a non-integral power';
       79      386    2           CALL X9ER$PRINT_ERROR ( ERROR_MSG );

    386 18 000426   200053 631500                    EPPR1   ERROR_MSG,,AUTO
        18 000427   200100 451500                    STP1    ERROR_MSG+21,,AUTO
        18 000430   200100 630500                    EPPR0   ERROR_MSG+21,,AUTO
        18 000431   000000 631400 19                 EPPR1   0
        18 000432   000000 701000 xent               TSX1    X9ER$PRINT_ERROR
        18 000433   000000 011000                    NOP     0

       80      387    2           ERROR_MSG = '    Result set to maximum value: 10 ** 152';

    387 18 000434   040100 100400                    MLR     fill='040'O
        18 000435   000014 000052 17                 ADSC9   12                       cn=0,n=42
        18 000436   200053 000120                    ADSC9   ERROR_MSG,,AUTO          cn=0,n=80

       81      388    2           CALL X9ER$PRINT_ERROR ( ERROR_MSG );

    388 18 000437   200053 630500                    EPPR0   ERROR_MSG,,AUTO
        18 000440   200100 450500                    STP0    ERROR_MSG+21,,AUTO
        18 000441   200100 630500                    EPPR0   ERROR_MSG+21,,AUTO
        18 000442   000000 631400 19                 EPPR1   0
        18 000443   000000 701000 xent               TSX1    X9ER$PRINT_ERROR
        18 000444   000000 011000                    NOP     0
        18 000445   002373 710000 18                 TRA     s:737
PL6.E3A0      #001=X8ER$ERROR File=X8ER.:X8A6TSI                                 SAT 08/09/97 10:48 Page:34

       82      389        %EJECT;
PL6.E3A0      #001=X8ER$ERROR File=X8ER.:X8A6TSI                                 SAT 08/09/97 10:48 Page:35
       83      390    2         CASE ( %OVERFLOW_TRUNCATION );

       84      391    2           ERROR_MSG = '*** An overflow has occurred';

    391 18 000446   040100 100400                    MLR     fill='040'O
        18 000447   000114 000034 17                 ADSC9   76                       cn=0,n=28
        18 000450   200053 000120                    ADSC9   ERROR_MSG,,AUTO          cn=0,n=80

       85      392    2           CALL X9ER$PRINT_ERROR ( ERROR_MSG );

    392 18 000451   200053 631500                    EPPR1   ERROR_MSG,,AUTO
        18 000452   200100 451500                    STP1    ERROR_MSG+21,,AUTO
        18 000453   200100 630500                    EPPR0   ERROR_MSG+21,,AUTO
        18 000454   000000 631400 19                 EPPR1   0
        18 000455   000000 701000 xent               TSX1    X9ER$PRINT_ERROR
        18 000456   000000 011000                    NOP     0

       86      393    2           ERROR_MSG = '    Significant digits have been truncated.';

    393 18 000457   040100 100400                    MLR     fill='040'O
        18 000460   000123 000053 17                 ADSC9   83                       cn=0,n=43
        18 000461   200053 000120                    ADSC9   ERROR_MSG,,AUTO          cn=0,n=80

       87      394    2           CALL X9ER$PRINT_ERROR ( ERROR_MSG );

    394 18 000462   200053 630500                    EPPR0   ERROR_MSG,,AUTO
        18 000463   200100 450500                    STP0    ERROR_MSG+21,,AUTO
        18 000464   200100 630500                    EPPR0   ERROR_MSG+21,,AUTO
        18 000465   000000 631400 19                 EPPR1   0
        18 000466   000000 701000 xent               TSX1    X9ER$PRINT_ERROR
        18 000467   000000 011000                    NOP     0
        18 000470   002373 710000 18                 TRA     s:737

       88      395
       89      396    2         CASE ( %EXP_OVERFLOW );

       90      397    2           ERROR_MSG = '*** Exponent overflow fault' ;
PL6.E3A0      #001=X8ER$ERROR File=X8ER.:X8A6TSI                                 SAT 08/09/97 10:48 Page:36

    397 18 000471   040100 100400                    MLR     fill='040'O
        18 000472   000136 000033 17                 ADSC9   94                       cn=0,n=27
        18 000473   200053 000120                    ADSC9   ERROR_MSG,,AUTO          cn=0,n=80

       91      398    2           CALL X9ER$PRINT_ERROR ( ERROR_MSG );

    398 18 000474   200053 631500                    EPPR1   ERROR_MSG,,AUTO
        18 000475   200100 451500                    STP1    ERROR_MSG+21,,AUTO
        18 000476   200100 630500                    EPPR0   ERROR_MSG+21,,AUTO
        18 000477   000000 631400 19                 EPPR1   0
        18 000500   000000 701000 xent               TSX1    X9ER$PRINT_ERROR
        18 000501   000000 011000                    NOP     0
        18 000502   002373 710000 18                 TRA     s:737

       92      399
       93      400    2         CASE ( %ZERO_DIVIDE );

       94      401    2           ERROR_MSG = '*** Division by zero is mathematically undefined';

    401 18 000503   040100 100400                    MLR     fill='040'O
        18 000504   000145 000060 17                 ADSC9   101                      cn=0,n=48
        18 000505   200053 000120                    ADSC9   ERROR_MSG,,AUTO          cn=0,n=80

       95      402    2           CALL X9ER$PRINT_ERROR ( ERROR_MSG );

    402 18 000506   200053 631500                    EPPR1   ERROR_MSG,,AUTO
        18 000507   200100 451500                    STP1    ERROR_MSG+21,,AUTO
        18 000510   200100 630500                    EPPR0   ERROR_MSG+21,,AUTO
        18 000511   000000 631400 19                 EPPR1   0
        18 000512   000000 701000 xent               TSX1    X9ER$PRINT_ERROR
        18 000513   000000 011000                    NOP     0

       96      403    2           CALL X9ER$PRINT_ERROR ( SPECIAL_ERR_MSG );

    403 18 000514   200004 630500                    EPPR0   @SPECIAL_ERR_MSG,,AUTO
        18 000515   000000 631400 19                 EPPR1   0
PL6.E3A0      #001=X8ER$ERROR File=X8ER.:X8A6TSI                                 SAT 08/09/97 10:48 Page:37
        18 000516   000000 701000 xent               TSX1    X9ER$PRINT_ERROR
        18 000517   000000 011000                    NOP     0
        18 000520   002373 710000 18                 TRA     s:737

       97      404
       98      405    2         CASE ( %ILLEGAL_EIS_DATA );

       99      406    2           ERROR_MSG = '*** Illegal EIS data encountered';

    406 18 000521   040100 100400                    MLR     fill='040'O
        18 000522   000161 000040 17                 ADSC9   113                      cn=0,n=32
        18 000523   200053 000120                    ADSC9   ERROR_MSG,,AUTO          cn=0,n=80

      100      407    2           CALL X9ER$PRINT_ERROR ( ERROR_MSG );

    407 18 000524   200053 631500                    EPPR1   ERROR_MSG,,AUTO
        18 000525   200100 451500                    STP1    ERROR_MSG+21,,AUTO
        18 000526   200100 630500                    EPPR0   ERROR_MSG+21,,AUTO
        18 000527   000000 631400 19                 EPPR1   0
        18 000530   000000 701000 xent               TSX1    X9ER$PRINT_ERROR
        18 000531   000000 011000                    NOP     0

      101      408    2           ERROR_MSG = '    ADDRESS    INSTRUCTION    DATA';

    408 18 000532   040100 100400                    MLR     fill='040'O
        18 000533   000171 000042 17                 ADSC9   121                      cn=0,n=34
        18 000534   200053 000120                    ADSC9   ERROR_MSG,,AUTO          cn=0,n=80

      102      409    2           CALL X9ER$PRINT_ERROR ( ERROR_MSG );

    409 18 000535   200053 630500                    EPPR0   ERROR_MSG,,AUTO
        18 000536   200100 450500                    STP0    ERROR_MSG+21,,AUTO
        18 000537   200100 630500                    EPPR0   ERROR_MSG+21,,AUTO
        18 000540   000000 631400 19                 EPPR1   0
        18 000541   000000 701000 xent               TSX1    X9ER$PRINT_ERROR
        18 000542   000000 011000                    NOP     0

PL6.E3A0      #001=X8ER$ERROR File=X8ER.:X8A6TSI                                 SAT 08/09/97 10:48 Page:38
      103      410    2           CALL X9ER$PRINT_ERROR ( SPECIAL_ERR_MSG );

    410 18 000543   200004 630500                    EPPR0   @SPECIAL_ERR_MSG,,AUTO
        18 000544   000000 631400 19                 EPPR1   0
        18 000545   000000 701000 xent               TSX1    X9ER$PRINT_ERROR
        18 000546   000000 011000                    NOP     0
        18 000547   002373 710000 18                 TRA     s:737

      104      411
      105      412    2         CASE ( %LENGTH_EXCEEDED );

      106      413    2            ERROR_MSG = '*** Length of DISPLAY item exceeds 8,191 characters';

    413 18 000550   040100 100400                    MLR     fill='040'O
        18 000551   000202 000063 17                 ADSC9   130                      cn=0,n=51
        18 000552   200053 000120                    ADSC9   ERROR_MSG,,AUTO          cn=0,n=80

      107      414    2            CALL X9ER$PRINT_ERROR ( ERROR_MSG );

    414 18 000553   200053 631500                    EPPR1   ERROR_MSG,,AUTO
        18 000554   200100 451500                    STP1    ERROR_MSG+21,,AUTO
        18 000555   200100 630500                    EPPR0   ERROR_MSG+21,,AUTO
        18 000556   000000 631400 19                 EPPR1   0
        18 000557   000000 701000 xent               TSX1    X9ER$PRINT_ERROR
        18 000560   000000 011000                    NOP     0
        18 000561   002373 710000 18                 TRA     s:737

      108      415
      109      416    2         CASE ( %NO_DATA );

      110      417    2             ERROR_MSG = '*** Invalid data entry - expecting NUMERIC data';

    417 18 000562   040100 100400                    MLR     fill='040'O
        18 000563   000217 000057 17                 ADSC9   143                      cn=0,n=47
        18 000564   200053 000120                    ADSC9   ERROR_MSG,,AUTO          cn=0,n=80

      111      418    2             CALL X9ER$PRINT_ERROR ( ERROR_MSG );
PL6.E3A0      #001=X8ER$ERROR File=X8ER.:X8A6TSI                                 SAT 08/09/97 10:48 Page:39

    418 18 000565   200053 631500                    EPPR1   ERROR_MSG,,AUTO
        18 000566   200100 451500                    STP1    ERROR_MSG+21,,AUTO
        18 000567   200100 630500                    EPPR0   ERROR_MSG+21,,AUTO
        18 000570   000000 631400 19                 EPPR1   0
        18 000571   000000 701000 xent               TSX1    X9ER$PRINT_ERROR
        18 000572   000000 011000                    NOP     0

      112      419    2             LIBCOM.RE_ENTER = %TRUE;

    419 18 000573   400000 236003                    LDQ     -131072,DU
        18 000574   000014 756000 0                  STQ     LIBCOM+12
        18 000575   002373 710000 18                 TRA     s:737

      113      420
      114      421    2         CASE ( %NO_ADDR_TO_DATA );

      115      422    2           ERROR_MSG = '*** No address to access data';

    422 18 000576   040100 100400                    MLR     fill='040'O
        18 000577   000233 000035 17                 ADSC9   155                      cn=0,n=29
        18 000600   200053 000120                    ADSC9   ERROR_MSG,,AUTO          cn=0,n=80

      116      423    2           CALL X9ER$PRINT_ERROR ( ERROR_MSG );

    423 18 000601   200053 631500                    EPPR1   ERROR_MSG,,AUTO
        18 000602   200100 451500                    STP1    ERROR_MSG+21,,AUTO
        18 000603   200100 630500                    EPPR0   ERROR_MSG+21,,AUTO
        18 000604   000000 631400 19                 EPPR1   0
        18 000605   000000 701000 xent               TSX1    X9ER$PRINT_ERROR
        18 000606   000000 011000                    NOP     0
        18 000607   002373 710000 18                 TRA     s:737

      117      424        %EJECT;
PL6.E3A0      #001=X8ER$ERROR File=X8ER.:X8A6TSI                                 SAT 08/09/97 10:48 Page:40
      118      425    2         CASE ( %EXP_TOO_SMALL );

      119      426    2            ERROR_MSG = '    Exponent too small; set to minimum value (-128)';

    426 18 000610   040100 100400                    MLR     fill='040'O
        18 000611   000243 000063 17                 ADSC9   163                      cn=0,n=51
        18 000612   200053 000120                    ADSC9   ERROR_MSG,,AUTO          cn=0,n=80

      120      427    2            CALL X9ER$PRINT_ERROR ( ERROR_MSG );

    427 18 000613   200053 631500                    EPPR1   ERROR_MSG,,AUTO
        18 000614   200100 451500                    STP1    ERROR_MSG+21,,AUTO
        18 000615   200100 630500                    EPPR0   ERROR_MSG+21,,AUTO
        18 000616   000000 631400 19                 EPPR1   0
        18 000617   000000 701000 xent               TSX1    X9ER$PRINT_ERROR
        18 000620   000000 011000                    NOP     0
        18 000621   002373 710000 18                 TRA     s:737

      121      428
      122      429    2         CASE ( %EXP_TOO_BIG );

      123      430    2            ERROR_MSG = '*** Exponent too big; set to maximum value (127)';

    430 18 000622   040100 100400                    MLR     fill='040'O
        18 000623   000260 000060 17                 ADSC9   176                      cn=0,n=48
        18 000624   200053 000120                    ADSC9   ERROR_MSG,,AUTO          cn=0,n=80

      124      431    2            CALL X9ER$PRINT_ERROR ( ERROR_MSG );

    431 18 000625   200053 631500                    EPPR1   ERROR_MSG,,AUTO
        18 000626   200100 451500                    STP1    ERROR_MSG+21,,AUTO
        18 000627   200100 630500                    EPPR0   ERROR_MSG+21,,AUTO
        18 000630   000000 631400 19                 EPPR1   0
        18 000631   000000 701000 xent               TSX1    X9ER$PRINT_ERROR
        18 000632   000000 011000                    NOP     0
        18 000633   002373 710000 18                 TRA     s:737

PL6.E3A0      #001=X8ER$ERROR File=X8ER.:X8A6TSI                                 SAT 08/09/97 10:48 Page:41
      125      432
      126      433    2         CASE ( %OVERPUNCH_ERROR );

      127      434    2             ERROR_MSG = '*** Both an OVERPUNCH character and a SIGN are not';

    434 18 000634   040100 100400                    MLR     fill='040'O
        18 000635   000274 000062 17                 ADSC9   188                      cn=0,n=50
        18 000636   200053 000120                    ADSC9   ERROR_MSG,,AUTO          cn=0,n=80

      128      435    2             CALL X9ER$PRINT_ERROR ( ERROR_MSG );

    435 18 000637   200053 631500                    EPPR1   ERROR_MSG,,AUTO
        18 000640   200100 451500                    STP1    ERROR_MSG+21,,AUTO
        18 000641   200100 630500                    EPPR0   ERROR_MSG+21,,AUTO
        18 000642   000000 631400 19                 EPPR1   0
        18 000643   000000 701000 xent               TSX1    X9ER$PRINT_ERROR
        18 000644   000000 011000                    NOP     0

      129      436    2             ERROR_MSG = '      permitted in a number';

    436 18 000645   040100 100400                    MLR     fill='040'O
        18 000646   000311 000033 17                 ADSC9   201                      cn=0,n=27
        18 000647   200053 000120                    ADSC9   ERROR_MSG,,AUTO          cn=0,n=80

      130      437    2             CALL X9ER$PRINT_ERROR ( ERROR_MSG );

    437 18 000650   200053 630500                    EPPR0   ERROR_MSG,,AUTO
        18 000651   200100 450500                    STP0    ERROR_MSG+21,,AUTO
        18 000652   200100 630500                    EPPR0   ERROR_MSG+21,,AUTO
        18 000653   000000 631400 19                 EPPR1   0
        18 000654   000000 701000 xent               TSX1    X9ER$PRINT_ERROR
        18 000655   000000 011000                    NOP     0

      131      438    2             LIBCOM.RE_ENTER = %TRUE;

    438 18 000656   400000 236003                    LDQ     -131072,DU
        18 000657   000014 756000 0                  STQ     LIBCOM+12
PL6.E3A0      #001=X8ER$ERROR File=X8ER.:X8A6TSI                                 SAT 08/09/97 10:48 Page:42
        18 000660   002373 710000 18                 TRA     s:737

      132      439
      133      440    2         CASE ( %IPROC_FAULT );

      134      441    2             ERROR_MSG = '*** Illegal procedure fault -- EIS instruction';

    441 18 000661   040100 100400                    MLR     fill='040'O
        18 000662   000320 000056 17                 ADSC9   208                      cn=0,n=46
        18 000663   200053 000120                    ADSC9   ERROR_MSG,,AUTO          cn=0,n=80

      135      442    2             CALL X9ER$PRINT_ERROR ( ERROR_MSG );

    442 18 000664   200053 631500                    EPPR1   ERROR_MSG,,AUTO
        18 000665   200100 451500                    STP1    ERROR_MSG+21,,AUTO
        18 000666   200100 630500                    EPPR0   ERROR_MSG+21,,AUTO
        18 000667   000000 631400 19                 EPPR1   0
        18 000670   000000 701000 xent               TSX1    X9ER$PRINT_ERROR
        18 000671   000000 011000                    NOP     0

      136      443    2             CALL X9ER$PRINT_ERROR ( SPECIAL_ERR_MSG );

    443 18 000672   200004 630500                    EPPR0   @SPECIAL_ERR_MSG,,AUTO
        18 000673   000000 631400 19                 EPPR1   0
        18 000674   000000 701000 xent               TSX1    X9ER$PRINT_ERROR
        18 000675   000000 011000                    NOP     0
        18 000676   002373 710000 18                 TRA     s:737

      137      444
      138      445    2         CASE ( %ILLEGAL_CHAR );

      139      446    2             ERROR_MSG = '*** Illegal character encountered.';

    446 18 000677   040100 100400                    MLR     fill='040'O
        18 000700   000334 000042 17                 ADSC9   220                      cn=0,n=34
        18 000701   200053 000120                    ADSC9   ERROR_MSG,,AUTO          cn=0,n=80

PL6.E3A0      #001=X8ER$ERROR File=X8ER.:X8A6TSI                                 SAT 08/09/97 10:48 Page:43
      140      447    2             CALL X9ER$PRINT_ERROR( ERROR_MSG );

    447 18 000702   200053 631500                    EPPR1   ERROR_MSG,,AUTO
        18 000703   200100 451500                    STP1    ERROR_MSG+21,,AUTO
        18 000704   200100 630500                    EPPR0   ERROR_MSG+21,,AUTO
        18 000705   000000 631400 19                 EPPR1   0
        18 000706   000000 701000 xent               TSX1    X9ER$PRINT_ERROR
        18 000707   000000 011000                    NOP     0
        18 000710   002373 710000 18                 TRA     s:737

      141      448
      142      449    2         CASE ( %RETYPE );

      143      450    2            ERROR_MSG = '    Enter once more.';

    450 18 000711   040100 100400                    MLR     fill='040'O
        18 000712   000345 000024 17                 ADSC9   229                      cn=0,n=20
        18 000713   200053 000120                    ADSC9   ERROR_MSG,,AUTO          cn=0,n=80

      144      451    2            CALL X9ER$PRINT_ERROR ( ERROR_MSG );

    451 18 000714   200053 631500                    EPPR1   ERROR_MSG,,AUTO
        18 000715   200100 451500                    STP1    ERROR_MSG+21,,AUTO
        18 000716   200100 630500                    EPPR0   ERROR_MSG+21,,AUTO
        18 000717   000000 631400 19                 EPPR1   0
        18 000720   000000 701000 xent               TSX1    X9ER$PRINT_ERROR
        18 000721   000000 011000                    NOP     0
        18 000722   002373 710000 18                 TRA     s:737

      145      452        %EJECT;
PL6.E3A0      #001=X8ER$ERROR File=X8ER.:X8A6TSI                                 SAT 08/09/97 10:48 Page:44
      146      453    2         CASE ( %RUNTIME_ABORT );

      147      454    2            ERROR_MSG = '*** >>><<< Runtime Abort >>><<< ';

    454 18 000723   040100 100400                    MLR     fill='040'O
        18 000724   000352 000040 17                 ADSC9   234                      cn=0,n=32
        18 000725   200053 000120                    ADSC9   ERROR_MSG,,AUTO          cn=0,n=80

      148      455    2            CALL X9ER$PRINT_ERROR ( ERROR_MSG );

    455 18 000726   200053 631500                    EPPR1   ERROR_MSG,,AUTO
        18 000727   200100 451500                    STP1    ERROR_MSG+21,,AUTO
        18 000730   200100 630500                    EPPR0   ERROR_MSG+21,,AUTO
        18 000731   000000 631400 19                 EPPR1   0
        18 000732   000000 701000 xent               TSX1    X9ER$PRINT_ERROR
        18 000733   000000 011000                    NOP     0
        18 000734   002373 710000 18                 TRA     s:737

      149      456
      150      457    2         CASE ( %SUBCHECK );

      151      458    2            ERROR_MSG = '*** SUBSCRIPT OUT OF BOUNDS.';

    458 18 000735   040100 100400                    MLR     fill='040'O
        18 000736   000362 000034 17                 ADSC9   242                      cn=0,n=28
        18 000737   200053 000120                    ADSC9   ERROR_MSG,,AUTO          cn=0,n=80

      152      459    2            CALL X9ER$PRINT_ERROR ( ERROR_MSG );

    459 18 000740   200053 631500                    EPPR1   ERROR_MSG,,AUTO
        18 000741   200100 451500                    STP1    ERROR_MSG+21,,AUTO
        18 000742   200100 630500                    EPPR0   ERROR_MSG+21,,AUTO
        18 000743   000000 631400 19                 EPPR1   0
        18 000744   000000 701000 xent               TSX1    X9ER$PRINT_ERROR
        18 000745   000000 011000                    NOP     0
        18 000746   002373 710000 18                 TRA     s:737

PL6.E3A0      #001=X8ER$ERROR File=X8ER.:X8A6TSI                                 SAT 08/09/97 10:48 Page:45
      153      460
      154      461    2         CASE( %OCCURS_CHECK );

      155      462    2           ERROR_MSG = '*** Occurs depending variable out of bounds.';

    462 18 000747   040100 100400                    MLR     fill='040'O
        18 000750   000371 000054 17                 ADSC9   249                      cn=0,n=44
        18 000751   200053 000120                    ADSC9   ERROR_MSG,,AUTO          cn=0,n=80

      156      463    2           CALL X9ER$PRINT_ERROR ( ERROR_MSG );

    463 18 000752   200053 631500                    EPPR1   ERROR_MSG,,AUTO
        18 000753   200100 451500                    STP1    ERROR_MSG+21,,AUTO
        18 000754   200100 630500                    EPPR0   ERROR_MSG+21,,AUTO
        18 000755   000000 631400 19                 EPPR1   0
        18 000756   000000 701000 xent               TSX1    X9ER$PRINT_ERROR
        18 000757   000000 011000                    NOP     0
        18 000760   002373 710000 18                 TRA     s:737

      157      464
      158      465    2         CASE ( %PARAMETER_COUNT);

      159      466    2           ERROR_MSG =
               466                  '*** The number of parameters of the calling routine does not match with'
               466                    ;

    466 18 000761   040100 100400                    MLR     fill='040'O
        18 000762   000404 000107 17                 ADSC9   260                      cn=0,n=71
        18 000763   200053 000120                    ADSC9   ERROR_MSG,,AUTO          cn=0,n=80

      160      467    2           CALL X9ER$PRINT_ERROR ( ERROR_MSG );

    467 18 000764   200053 631500                    EPPR1   ERROR_MSG,,AUTO
        18 000765   200100 451500                    STP1    ERROR_MSG+21,,AUTO
        18 000766   200100 630500                    EPPR0   ERROR_MSG+21,,AUTO
        18 000767   000000 631400 19                 EPPR1   0
        18 000770   000000 701000 xent               TSX1    X9ER$PRINT_ERROR
PL6.E3A0      #001=X8ER$ERROR File=X8ER.:X8A6TSI                                 SAT 08/09/97 10:48 Page:46
        18 000771   000000 011000                    NOP     0

      161      468    2           ERROR_MSG = '   the number of parameters expected by ';

    468 18 000772   040100 100400                    MLR     fill='040'O
        18 000773   000426 000050 17                 ADSC9   278                      cn=0,n=40
        18 000774   200053 000120                    ADSC9   ERROR_MSG,,AUTO          cn=0,n=80

      162      469    2           SUBSTR( ERROR_MSG, 40, LENGTH ) = SPECIAL_ERR_MSG;

    469 18 000775   200005 470500                    LDP0    @LENGTH,,AUTO
        18 000776   000000 720100                    LXL0    0,,PR0
        18 000777   200004 471500                    LDP1    @SPECIAL_ERR_MSG,,AUTO
        18 001000   040140 100500                    MLR     fill='040'O
        18 001001   100000 000120                    ADSC9   0,,PR1                   cn=0,n=80
        18 001002   200065 000010                    ADSC9   ERROR_MSG+10,,AUTO       cn=0,n=*X0

      163      470    2           SUBSTR( ERROR_MSG, 40 + LENGTH, 1 ) = '.';

    470 18 001003   000000 235100                    LDA     0,,PR0
        18 001004   040105 100400                    MLR     fill='040'O
        18 001005   000001 000001 19                 ADSC9   1                        cn=0,n=1
        18 001006   200065 000001                    ADSC9   ERROR_MSG+10,A,AUTO      cn=0,n=1

      164      471    2           CALL X9ER$PRINT_ERROR ( ERROR_MSG );

    471 18 001007   200053 633500                    EPPR3   ERROR_MSG,,AUTO
        18 001010   200100 453500                    STP3    ERROR_MSG+21,,AUTO
        18 001011   200100 630500                    EPPR0   ERROR_MSG+21,,AUTO
        18 001012   000000 631400 19                 EPPR1   0
        18 001013   000000 701000 xent               TSX1    X9ER$PRINT_ERROR
        18 001014   000000 011000                    NOP     0
        18 001015   002373 710000 18                 TRA     s:737

      165      472
      166      473    2         CASE ( %PARAMETER_LENGTH);

PL6.E3A0      #001=X8ER$ERROR File=X8ER.:X8A6TSI                                 SAT 08/09/97 10:48 Page:47
      167      474    2           ERROR_MSG ='*** The length of parameter number ';

    474 18 001016   040100 100400                    MLR     fill='040'O
        18 001017   000440 000043 17                 ADSC9   288                      cn=0,n=35
        18 001020   200053 000120                    ADSC9   ERROR_MSG,,AUTO          cn=0,n=80

      168      475    2           SUBSTR( ERROR_MSG, 35, 3 ) = SPECIAL_ERR_MSG;

    475 18 001021   200004 471500                    LDP1    @SPECIAL_ERR_MSG,,AUTO
        18 001022   040100 100500                    MLR     fill='040'O
        18 001023   100000 000003                    ADSC9   0,,PR1                   cn=0,n=3
        18 001024   200063 600003                    ADSC9   ERROR_MSG+8,,AUTO        cn=3,n=3

      169      476    2           CALL X9ER$PRINT_ERROR ( ERROR_MSG );

    476 18 001025   200053 633500                    EPPR3   ERROR_MSG,,AUTO
        18 001026   200100 453500                    STP3    ERROR_MSG+21,,AUTO
        18 001027   200100 630500                    EPPR0   ERROR_MSG+21,,AUTO
        18 001030   000000 631400 19                 EPPR1   0
        18 001031   000000 701000 xent               TSX1    X9ER$PRINT_ERROR
        18 001032   000000 011000                    NOP     0

      170      477    2           ERROR_MSG ='    of the calling routine is not equal to the length';

    477 18 001033   040100 100400                    MLR     fill='040'O
        18 001034   000451 000065 17                 ADSC9   297                      cn=0,n=53
        18 001035   200053 000120                    ADSC9   ERROR_MSG,,AUTO          cn=0,n=80

      171      478    2           CALL X9ER$PRINT_ERROR ( ERROR_MSG );

    478 18 001036   200053 630500                    EPPR0   ERROR_MSG,,AUTO
        18 001037   200100 450500                    STP0    ERROR_MSG+21,,AUTO
        18 001040   200100 630500                    EPPR0   ERROR_MSG+21,,AUTO
        18 001041   000000 631400 19                 EPPR1   0
        18 001042   000000 701000 xent               TSX1    X9ER$PRINT_ERROR
        18 001043   000000 011000                    NOP     0

PL6.E3A0      #001=X8ER$ERROR File=X8ER.:X8A6TSI                                 SAT 08/09/97 10:48 Page:48
      172      479    2           ERROR_MSG = '   of the same parameter of ';

    479 18 001044   040100 100400                    MLR     fill='040'O
        18 001045   000467 000034 17                 ADSC9   311                      cn=0,n=28
        18 001046   200053 000120                    ADSC9   ERROR_MSG,,AUTO          cn=0,n=80

      173      480    2           SUBSTR( ERROR_MSG, 28, LENGTH ) = SUBSTR( SPECIAL_ERR_MSG, 3, LENGTH );

    480 18 001047   200005 470500                    LDP0    @LENGTH,,AUTO
        18 001050   000000 720100                    LXL0    0,,PR0
        18 001051   000000 721100                    LXL1    0,,PR0
        18 001052   200004 471500                    LDP1    @SPECIAL_ERR_MSG,,AUTO
        18 001053   040140 100540                    MLR     fill='040'O
        18 001054   100000 600011                    ADSC9   0,,PR1                   cn=3,n=*X1
        18 001055   200062 000010                    ADSC9   ERROR_MSG+7,,AUTO        cn=0,n=*X0

      174      481    2           SUBSTR( ERROR_MSG, 28 + LENGTH, 1 ) = '.';

    481 18 001056   000000 235100                    LDA     0,,PR0
        18 001057   040105 100400                    MLR     fill='040'O
        18 001060   000001 000001 19                 ADSC9   1                        cn=0,n=1
        18 001061   200062 000001                    ADSC9   ERROR_MSG+7,A,AUTO       cn=0,n=1

      175      482    2           CALL X9ER$PRINT_ERROR( ERROR_MSG );

    482 18 001062   200053 633500                    EPPR3   ERROR_MSG,,AUTO
        18 001063   200100 453500                    STP3    ERROR_MSG+21,,AUTO
        18 001064   200100 630500                    EPPR0   ERROR_MSG+21,,AUTO
        18 001065   000000 631400 19                 EPPR1   0
        18 001066   000000 701000 xent               TSX1    X9ER$PRINT_ERROR
        18 001067   000000 011000                    NOP     0
        18 001070   002373 710000 18                 TRA     s:737

      176      483
      177      484    2         CASE ( %PARAMETER_TYPE);

      178      485    2           ERROR_MSG ='*** The TYPE of parameter number ';
PL6.E3A0      #001=X8ER$ERROR File=X8ER.:X8A6TSI                                 SAT 08/09/97 10:48 Page:49

    485 18 001071   040100 100400                    MLR     fill='040'O
        18 001072   000476 000041 17                 ADSC9   318                      cn=0,n=33
        18 001073   200053 000120                    ADSC9   ERROR_MSG,,AUTO          cn=0,n=80

      179      486    2           SUBSTR( ERROR_MSG, 33, 3 ) = SPECIAL_ERR_MSG;

    486 18 001074   200004 471500                    LDP1    @SPECIAL_ERR_MSG,,AUTO
        18 001075   040100 100500                    MLR     fill='040'O
        18 001076   100000 000003                    ADSC9   0,,PR1                   cn=0,n=3
        18 001077   200063 200003                    ADSC9   ERROR_MSG+8,,AUTO        cn=1,n=3

      180      487    2           CALL X9ER$PRINT_ERROR ( ERROR_MSG );

    487 18 001100   200053 633500                    EPPR3   ERROR_MSG,,AUTO
        18 001101   200100 453500                    STP3    ERROR_MSG+21,,AUTO
        18 001102   200100 630500                    EPPR0   ERROR_MSG+21,,AUTO
        18 001103   000000 631400 19                 EPPR1   0
        18 001104   000000 701000 xent               TSX1    X9ER$PRINT_ERROR
        18 001105   000000 011000                    NOP     0

      181      488    2           ERROR_MSG ='    of the calling routine is not equal to the TYPE';

    488 18 001106   040100 100400                    MLR     fill='040'O
        18 001107   000507 000063 17                 ADSC9   327                      cn=0,n=51
        18 001110   200053 000120                    ADSC9   ERROR_MSG,,AUTO          cn=0,n=80

      182      489    2           CALL X9ER$PRINT_ERROR ( ERROR_MSG );

    489 18 001111   200053 630500                    EPPR0   ERROR_MSG,,AUTO
        18 001112   200100 450500                    STP0    ERROR_MSG+21,,AUTO
        18 001113   200100 630500                    EPPR0   ERROR_MSG+21,,AUTO
        18 001114   000000 631400 19                 EPPR1   0
        18 001115   000000 701000 xent               TSX1    X9ER$PRINT_ERROR
        18 001116   000000 011000                    NOP     0

      183      490    2           ERROR_MSG = '   of the same parameter of ';
PL6.E3A0      #001=X8ER$ERROR File=X8ER.:X8A6TSI                                 SAT 08/09/97 10:48 Page:50

    490 18 001117   040100 100400                    MLR     fill='040'O
        18 001120   000467 000034 17                 ADSC9   311                      cn=0,n=28
        18 001121   200053 000120                    ADSC9   ERROR_MSG,,AUTO          cn=0,n=80

      184      491    2           SUBSTR( ERROR_MSG, 28, LENGTH ) = SUBSTR( SPECIAL_ERR_MSG, 3, LENGTH );

    491 18 001122   200005 470500                    LDP0    @LENGTH,,AUTO
        18 001123   000000 720100                    LXL0    0,,PR0
        18 001124   000000 721100                    LXL1    0,,PR0
        18 001125   200004 471500                    LDP1    @SPECIAL_ERR_MSG,,AUTO
        18 001126   040140 100540                    MLR     fill='040'O
        18 001127   100000 600011                    ADSC9   0,,PR1                   cn=3,n=*X1
        18 001130   200062 000010                    ADSC9   ERROR_MSG+7,,AUTO        cn=0,n=*X0

      185      492    2           SUBSTR( ERROR_MSG, 28 + LENGTH, 1 ) = '.';

    492 18 001131   000000 235100                    LDA     0,,PR0
        18 001132   040105 100400                    MLR     fill='040'O
        18 001133   000001 000001 19                 ADSC9   1                        cn=0,n=1
        18 001134   200062 000001                    ADSC9   ERROR_MSG+7,A,AUTO       cn=0,n=1

      186      493    2           CALL X9ER$PRINT_ERROR( ERROR_MSG );

    493 18 001135   200053 633500                    EPPR3   ERROR_MSG,,AUTO
        18 001136   200100 453500                    STP3    ERROR_MSG+21,,AUTO
        18 001137   200100 630500                    EPPR0   ERROR_MSG+21,,AUTO
        18 001140   000000 631400 19                 EPPR1   0
        18 001141   000000 701000 xent               TSX1    X9ER$PRINT_ERROR
        18 001142   000000 011000                    NOP     0
        18 001143   002373 710000 18                 TRA     s:737

      187      494
      188      495        %EJECT;
PL6.E3A0      #001=X8ER$ERROR File=X8ER.:X8A6TSI                                 SAT 08/09/97 10:48 Page:51
      189      496        /*V*
      190      497                  IO error messages
      191      498        */
      192      499
      193      500    2         CASE( %IO_NOT_OPEN );

      194      501
      195      502    2           ERROR_MSG = '*** File ';

    502 18 001144   040100 100400                    MLR     fill='040'O
        18 001145   000524 000011 17                 ADSC9   340                      cn=0,n=9
        18 001146   200053 000120                    ADSC9   ERROR_MSG,,AUTO          cn=0,n=80

      196      503    2           SUBSTR( ERROR_MSG,10,LENGTH ) = SPECIAL_ERR_MSG;

    503 18 001147   200005 471500                    LDP1    @LENGTH,,AUTO
        18 001150   100000 720100                    LXL0    0,,PR1
        18 001151   200004 473500                    LDP3    @SPECIAL_ERR_MSG,,AUTO
        18 001152   040140 100500                    MLR     fill='040'O
        18 001153   300000 000120                    ADSC9   0,,PR3                   cn=0,n=80
        18 001154   200055 400010                    ADSC9   ERROR_MSG+2,,AUTO        cn=2,n=*X0

      197      504    2           SUBSTR( ERROR_MSG,10+LENGTH,13) = ' is not open.';

    504 18 001155   100000 235100                    LDA     0,,PR1
        18 001156   040105 100400                    MLR     fill='040'O
        18 001157   000527 000015 17                 ADSC9   343                      cn=0,n=13
        18 001160   200055 400015                    ADSC9   ERROR_MSG+2,A,AUTO       cn=2,n=13

      198      505    2           CALL X9ER$PRINT_ERROR ( ERROR_MSG );

    505 18 001161   200053 634500                    EPPR4   ERROR_MSG,,AUTO
        18 001162   200100 454500                    STP4    ERROR_MSG+21,,AUTO
        18 001163   200100 630500                    EPPR0   ERROR_MSG+21,,AUTO
        18 001164   000000 631400 19                 EPPR1   0
        18 001165   000000 701000 xent               TSX1    X9ER$PRINT_ERROR
        18 001166   000000 011000                    NOP     0
PL6.E3A0      #001=X8ER$ERROR File=X8ER.:X8A6TSI                                 SAT 08/09/97 10:48 Page:52
        18 001167   002373 710000 18                 TRA     s:737

      199      506
      200      507    2         CASE( %IO_NOT_OPEN_OUTPUT );

      201      508
      202      509    2           ERROR_MSG = '*** File ';

    509 18 001170   040100 100400                    MLR     fill='040'O
        18 001171   000524 000011 17                 ADSC9   340                      cn=0,n=9
        18 001172   200053 000120                    ADSC9   ERROR_MSG,,AUTO          cn=0,n=80

      203      510    2           SUBSTR( ERROR_MSG,10,LENGTH ) = SPECIAL_ERR_MSG;

    510 18 001173   200005 471500                    LDP1    @LENGTH,,AUTO
        18 001174   100000 720100                    LXL0    0,,PR1
        18 001175   200004 473500                    LDP3    @SPECIAL_ERR_MSG,,AUTO
        18 001176   040140 100500                    MLR     fill='040'O
        18 001177   300000 000120                    ADSC9   0,,PR3                   cn=0,n=80
        18 001200   200055 400010                    ADSC9   ERROR_MSG+2,,AUTO        cn=2,n=*X0

      204      511    2           SUBSTR( ERROR_MSG,10+LENGTH,24) =

    511 18 001201   100000 235100                    LDA     0,,PR1
        18 001202   040105 100400                    MLR     fill='040'O
        18 001203   000533 000030 17                 ADSC9   347                      cn=0,n=24
        18 001204   200055 400030                    ADSC9   ERROR_MSG+2,A,AUTO       cn=2,n=24

      205      512    2                 ' is not open for output.';
      206      513    2           CALL X9ER$PRINT_ERROR ( ERROR_MSG );

    513 18 001205   200053 634500                    EPPR4   ERROR_MSG,,AUTO
        18 001206   200100 454500                    STP4    ERROR_MSG+21,,AUTO
        18 001207   200100 630500                    EPPR0   ERROR_MSG+21,,AUTO
        18 001210   000000 631400 19                 EPPR1   0
        18 001211   000000 701000 xent               TSX1    X9ER$PRINT_ERROR
        18 001212   000000 011000                    NOP     0
PL6.E3A0      #001=X8ER$ERROR File=X8ER.:X8A6TSI                                 SAT 08/09/97 10:48 Page:53
        18 001213   002373 710000 18                 TRA     s:737

      207      514
      208      515    2         CASE( %IO_NOT_OPEN_INPUT );

      209      516
      210      517    2           ERROR_MSG = '*** File ';

    517 18 001214   040100 100400                    MLR     fill='040'O
        18 001215   000524 000011 17                 ADSC9   340                      cn=0,n=9
        18 001216   200053 000120                    ADSC9   ERROR_MSG,,AUTO          cn=0,n=80

      211      518    2           SUBSTR( ERROR_MSG,10,LENGTH ) = SPECIAL_ERR_MSG;

    518 18 001217   200005 471500                    LDP1    @LENGTH,,AUTO
        18 001220   100000 720100                    LXL0    0,,PR1
        18 001221   200004 473500                    LDP3    @SPECIAL_ERR_MSG,,AUTO
        18 001222   040140 100500                    MLR     fill='040'O
        18 001223   300000 000120                    ADSC9   0,,PR3                   cn=0,n=80
        18 001224   200055 400010                    ADSC9   ERROR_MSG+2,,AUTO        cn=2,n=*X0

      212      519    2           SUBSTR( ERROR_MSG,10+LENGTH,23 ) =

    519 18 001225   100000 235100                    LDA     0,,PR1
        18 001226   040105 100400                    MLR     fill='040'O
        18 001227   000541 000027 17                 ADSC9   353                      cn=0,n=23
        18 001230   200055 400027                    ADSC9   ERROR_MSG+2,A,AUTO       cn=2,n=23

      213      520    2              ' is not open for input.';
      214      521    2           CALL X9ER$PRINT_ERROR ( ERROR_MSG );

    521 18 001231   200053 634500                    EPPR4   ERROR_MSG,,AUTO
        18 001232   200100 454500                    STP4    ERROR_MSG+21,,AUTO
        18 001233   200100 630500                    EPPR0   ERROR_MSG+21,,AUTO
        18 001234   000000 631400 19                 EPPR1   0
        18 001235   000000 701000 xent               TSX1    X9ER$PRINT_ERROR
        18 001236   000000 011000                    NOP     0
PL6.E3A0      #001=X8ER$ERROR File=X8ER.:X8A6TSI                                 SAT 08/09/97 10:48 Page:54
        18 001237   002373 710000 18                 TRA     s:737

      215      522
      216      523    2         CASE( %IO_NOT_OPEN_IO );

      217      524
      218      525    2           ERROR_MSG = '*** File ';

    525 18 001240   040100 100400                    MLR     fill='040'O
        18 001241   000524 000011 17                 ADSC9   340                      cn=0,n=9
        18 001242   200053 000120                    ADSC9   ERROR_MSG,,AUTO          cn=0,n=80

      219      526    2           SUBSTR( ERROR_MSG,10,LENGTH ) = SPECIAL_ERR_MSG;

    526 18 001243   200005 471500                    LDP1    @LENGTH,,AUTO
        18 001244   100000 720100                    LXL0    0,,PR1
        18 001245   200004 473500                    LDP3    @SPECIAL_ERR_MSG,,AUTO
        18 001246   040140 100500                    MLR     fill='040'O
        18 001247   300000 000120                    ADSC9   0,,PR3                   cn=0,n=80
        18 001250   200055 400010                    ADSC9   ERROR_MSG+2,,AUTO        cn=2,n=*X0

      220      527    2           SUBSTR( ERROR_MSG,10+LENGTH,20 ) =

    527 18 001251   100000 235100                    LDA     0,,PR1
        18 001252   040105 100400                    MLR     fill='040'O
        18 001253   000547 000024 17                 ADSC9   359                      cn=0,n=20
        18 001254   200055 400024                    ADSC9   ERROR_MSG+2,A,AUTO       cn=2,n=20

      221      528    2                 ' is not open for I-O.';
      222      529    2           CALL X9ER$PRINT_ERROR ( ERROR_MSG );

    529 18 001255   200053 634500                    EPPR4   ERROR_MSG,,AUTO
        18 001256   200100 454500                    STP4    ERROR_MSG+21,,AUTO
        18 001257   200100 630500                    EPPR0   ERROR_MSG+21,,AUTO
        18 001260   000000 631400 19                 EPPR1   0
        18 001261   000000 701000 xent               TSX1    X9ER$PRINT_ERROR
        18 001262   000000 011000                    NOP     0
PL6.E3A0      #001=X8ER$ERROR File=X8ER.:X8A6TSI                                 SAT 08/09/97 10:48 Page:55
        18 001263   002373 710000 18                 TRA     s:737

      223      530
      224      531        %EJECT;
PL6.E3A0      #001=X8ER$ERROR File=X8ER.:X8A6TSI                                 SAT 08/09/97 10:48 Page:56
      225      532    2         CASE( %IO_BOUNDARY_VIOLATION );

      226      533
      227      534    2           ERROR_MSG = '*** A WRITE/REWRITE statement to file: ';

    534 18 001264   040100 100400                    MLR     fill='040'O
        18 001265   000555 000047 17                 ADSC9   365                      cn=0,n=39
        18 001266   200053 000120                    ADSC9   ERROR_MSG,,AUTO          cn=0,n=80

      228      535    2           SUBSTR( ERROR_MSG,39,LENGTH ) = SPECIAL_ERR_MSG;

    535 18 001267   200005 471500                    LDP1    @LENGTH,,AUTO
        18 001270   100000 720100                    LXL0    0,,PR1
        18 001271   200004 473500                    LDP3    @SPECIAL_ERR_MSG,,AUTO
        18 001272   040140 100500                    MLR     fill='040'O
        18 001273   300000 000120                    ADSC9   0,,PR3                   cn=0,n=80
        18 001274   200064 600010                    ADSC9   ERROR_MSG+9,,AUTO        cn=3,n=*X0

      229      536    2           CALL X9ER$PRINT_ERROR ( ERROR_MSG );

    536 18 001275   200053 634500                    EPPR4   ERROR_MSG,,AUTO
        18 001276   200100 454500                    STP4    ERROR_MSG+21,,AUTO
        18 001277   200100 630500                    EPPR0   ERROR_MSG+21,,AUTO
        18 001300   000000 631400 19                 EPPR1   0
        18 001301   000000 701000 xent               TSX1    X9ER$PRINT_ERROR
        18 001302   000000 011000                    NOP     0

      230      537    2           ERROR_MSG = '    has violated the file''s defined record boundaries.';
               537                    /*#35317*/

    537 18 001303   040100 100400                    MLR     fill='040'O
        18 001304   000567 000066 17                 ADSC9   375                      cn=0,n=54
        18 001305   200053 000120                    ADSC9   ERROR_MSG,,AUTO          cn=0,n=80

      231      538    2           CALL X9ER$PRINT_ERROR ( ERROR_MSG );

    538 18 001306   200053 630500                    EPPR0   ERROR_MSG,,AUTO
PL6.E3A0      #001=X8ER$ERROR File=X8ER.:X8A6TSI                                 SAT 08/09/97 10:48 Page:57
        18 001307   200100 450500                    STP0    ERROR_MSG+21,,AUTO
        18 001310   200100 630500                    EPPR0   ERROR_MSG+21,,AUTO
        18 001311   000000 631400 19                 EPPR1   0
        18 001312   000000 701000 xent               TSX1    X9ER$PRINT_ERROR
        18 001313   000000 011000                    NOP     0
        18 001314   002373 710000 18                 TRA     s:737

      232      539
      233      540    2         CASE (%IO_PRIOR_NOT_READ);                            /*#34545*/

      234      541    2           ERROR_MSG = '*** A REWRITE statement to file: ';

    541 18 001315   040100 100400                    MLR     fill='040'O
        18 001316   000605 000041 17                 ADSC9   389                      cn=0,n=33
        18 001317   200053 000120                    ADSC9   ERROR_MSG,,AUTO          cn=0,n=80

      235      542    2           SUBSTR (ERROR_MSG,33,LENGTH) = SPECIAL_ERR_MSG;

    542 18 001320   200005 471500                    LDP1    @LENGTH,,AUTO
        18 001321   100000 720100                    LXL0    0,,PR1
        18 001322   200004 473500                    LDP3    @SPECIAL_ERR_MSG,,AUTO
        18 001323   040140 100500                    MLR     fill='040'O
        18 001324   300000 000120                    ADSC9   0,,PR3                   cn=0,n=80
        18 001325   200063 200010                    ADSC9   ERROR_MSG+8,,AUTO        cn=1,n=*X0

      236      543    2           CALL X9ER$PRINT_ERROR (ERROR_MSG);

    543 18 001326   200053 634500                    EPPR4   ERROR_MSG,,AUTO
        18 001327   200100 454500                    STP4    ERROR_MSG+21,,AUTO
        18 001330   200100 630500                    EPPR0   ERROR_MSG+21,,AUTO
        18 001331   000000 631400 19                 EPPR1   0
        18 001332   000000 701000 xent               TSX1    X9ER$PRINT_ERROR
        18 001333   000000 011000                    NOP     0

      237      544    2           ERROR_MSG = '    was not preceded by a successful READ.';

    544 18 001334   040100 100400                    MLR     fill='040'O
PL6.E3A0      #001=X8ER$ERROR File=X8ER.:X8A6TSI                                 SAT 08/09/97 10:48 Page:58
        18 001335   000616 000052 17                 ADSC9   398                      cn=0,n=42
        18 001336   200053 000120                    ADSC9   ERROR_MSG,,AUTO          cn=0,n=80

      238      545    2           CALL X9ER$PRINT_ERROR ( ERROR_MSG );

    545 18 001337   200053 630500                    EPPR0   ERROR_MSG,,AUTO
        18 001340   200100 450500                    STP0    ERROR_MSG+21,,AUTO
        18 001341   200100 630500                    EPPR0   ERROR_MSG+21,,AUTO
        18 001342   000000 631400 19                 EPPR1   0
        18 001343   000000 701000 xent               TSX1    X9ER$PRINT_ERROR
        18 001344   000000 011000                    NOP     0
        18 001345   002373 710000 18                 TRA     s:737

      239      546
      240      547    2         CASE (%IO_NO_NEXT_RECORD);                            /*#34545*/

      241      548    2           ERROR_MSG = '*** A READ NEXT has been attempted on file: ';

    548 18 001346   040100 100400                    MLR     fill='040'O
        18 001347   000631 000054 17                 ADSC9   409                      cn=0,n=44
        18 001350   200053 000120                    ADSC9   ERROR_MSG,,AUTO          cn=0,n=80

      242      549    2           SUBSTR( ERROR_MSG,44,LENGTH ) = SPECIAL_ERR_MSG;

    549 18 001351   200005 471500                    LDP1    @LENGTH,,AUTO
        18 001352   100000 720100                    LXL0    0,,PR1
        18 001353   200004 473500                    LDP3    @SPECIAL_ERR_MSG,,AUTO
        18 001354   040140 100500                    MLR     fill='040'O
        18 001355   300000 000120                    ADSC9   0,,PR3                   cn=0,n=80
        18 001356   200066 000010                    ADSC9   ERROR_MSG+11,,AUTO       cn=0,n=*X0

      243      550    2           CALL X9ER$PRINT_ERROR( ERROR_MSG );

    550 18 001357   200053 634500                    EPPR4   ERROR_MSG,,AUTO
        18 001360   200100 454500                    STP4    ERROR_MSG+21,,AUTO
        18 001361   200100 630500                    EPPR0   ERROR_MSG+21,,AUTO
        18 001362   000000 631400 19                 EPPR1   0
PL6.E3A0      #001=X8ER$ERROR File=X8ER.:X8A6TSI                                 SAT 08/09/97 10:48 Page:59
        18 001363   000000 701000 xent               TSX1    X9ER$PRINT_ERROR
        18 001364   000000 011000                    NOP     0

      244      551    2           ERROR_MSG = '    no next record exists.';

    551 18 001365   040100 100400                    MLR     fill='040'O
        18 001366   000644 000032 17                 ADSC9   420                      cn=0,n=26
        18 001367   200053 000120                    ADSC9   ERROR_MSG,,AUTO          cn=0,n=80

      245      552    2           CALL X9ER$PRINT_ERROR( ERROR_MSG );

    552 18 001370   200053 630500                    EPPR0   ERROR_MSG,,AUTO
        18 001371   200100 450500                    STP0    ERROR_MSG+21,,AUTO
        18 001372   200100 630500                    EPPR0   ERROR_MSG+21,,AUTO
        18 001373   000000 631400 19                 EPPR1   0
        18 001374   000000 701000 xent               TSX1    X9ER$PRINT_ERROR
        18 001375   000000 011000                    NOP     0
        18 001376   002373 710000 18                 TRA     s:737

      246      553
      247      554
      248      555    2         CASE( %IO_NO_RANDOM_RECORD );

      249      556    2           ERROR_MSG = '*** A random READ has been attempted on file: ';

    556 18 001377   040100 100400                    MLR     fill='040'O
        18 001400   000653 000056 17                 ADSC9   427                      cn=0,n=46
        18 001401   200053 000120                    ADSC9   ERROR_MSG,,AUTO          cn=0,n=80

      250      557    2           SUBSTR( ERROR_MSG,47,LENGTH ) = SPECIAL_ERR_MSG;

    557 18 001402   200005 471500                    LDP1    @LENGTH,,AUTO
        18 001403   100000 720100                    LXL0    0,,PR1
        18 001404   200004 473500                    LDP3    @SPECIAL_ERR_MSG,,AUTO
        18 001405   040140 100500                    MLR     fill='040'O
        18 001406   300000 000120                    ADSC9   0,,PR3                   cn=0,n=80
        18 001407   200066 600010                    ADSC9   ERROR_MSG+11,,AUTO       cn=3,n=*X0
PL6.E3A0      #001=X8ER$ERROR File=X8ER.:X8A6TSI                                 SAT 08/09/97 10:48 Page:60

      251      558    2           CALL X9ER$PRINT_ERROR( ERROR_MSG );

    558 18 001410   200053 634500                    EPPR4   ERROR_MSG,,AUTO
        18 001411   200100 454500                    STP4    ERROR_MSG+21,,AUTO
        18 001412   200100 630500                    EPPR0   ERROR_MSG+21,,AUTO
        18 001413   000000 631400 19                 EPPR1   0
        18 001414   000000 701000 xent               TSX1    X9ER$PRINT_ERROR
        18 001415   000000 011000                    NOP     0

      252      559    2           ERROR_MSG = '    and no record with the specified key exists.';

    559 18 001416   040100 100400                    MLR     fill='040'O
        18 001417   000667 000060 17                 ADSC9   439                      cn=0,n=48
        18 001420   200053 000120                    ADSC9   ERROR_MSG,,AUTO          cn=0,n=80

      253      560    2           CALL X9ER$PRINT_ERROR( ERROR_MSG );

    560 18 001421   200053 630500                    EPPR0   ERROR_MSG,,AUTO
        18 001422   200100 450500                    STP0    ERROR_MSG+21,,AUTO
        18 001423   200100 630500                    EPPR0   ERROR_MSG+21,,AUTO
        18 001424   000000 631400 19                 EPPR1   0
        18 001425   000000 701000 xent               TSX1    X9ER$PRINT_ERROR
        18 001426   000000 011000                    NOP     0
        18 001427   002373 710000 18                 TRA     s:737

      254      561
      255      562    2         CASE( %IO_NOT_MASS_STORAGE );

      256      563    2           ERROR_MSG = '*** File';

    563 18 001430   040100 100400                    MLR     fill='040'O
        18 001431   000703 000010 17                 ADSC9   451                      cn=0,n=8
        18 001432   200053 000120                    ADSC9   ERROR_MSG,,AUTO          cn=0,n=80

      257      564    2           SUBSTR( ERROR_MSG,9,LENGTH ) = SPECIAL_ERR_MSG;

PL6.E3A0      #001=X8ER$ERROR File=X8ER.:X8A6TSI                                 SAT 08/09/97 10:48 Page:61
    564 18 001433   200005 471500                    LDP1    @LENGTH,,AUTO
        18 001434   100000 720100                    LXL0    0,,PR1
        18 001435   200004 473500                    LDP3    @SPECIAL_ERR_MSG,,AUTO
        18 001436   040140 100500                    MLR     fill='040'O
        18 001437   300000 000120                    ADSC9   0,,PR3                   cn=0,n=80
        18 001440   200055 200010                    ADSC9   ERROR_MSG+2,,AUTO        cn=1,n=*X0

      258      565    2           SUBSTR( ERROR_MSG,9+LENGTH,71-LENGTH ) =

    565 18 001441   100000 235100                    LDA     0,,PR1
        18 001442   200100 755100                    STA     ERROR_MSG+21,,AUTO
        18 001443   100000 235100                    LDA     0,,PR1
        18 001444   000002 675000 19                 ERA     2
        18 001445   000110 035007                    ADLA    72,DL
        18 001446   000000 620005                    EAX0    0,AL
        18 001447   200100 235100                    LDA     ERROR_MSG+21,,AUTO
        18 001450   040145 100400                    MLR     fill='040'O
        18 001451   000705 000066 17                 ADSC9   453                      cn=0,n=54
        18 001452   200055 200010                    ADSC9   ERROR_MSG+2,A,AUTO       cn=1,n=*X0

      259      566    2            ' is not a mass storage file and can not be opened I-O.';
      260      567    2           CALL X9ER$PRINT_ERROR( ERROR_MSG );

    567 18 001453   200053 634500                    EPPR4   ERROR_MSG,,AUTO
        18 001454   200100 454500                    STP4    ERROR_MSG+21,,AUTO
        18 001455   200100 630500                    EPPR0   ERROR_MSG+21,,AUTO
        18 001456   000000 631400 19                 EPPR1   0
        18 001457   000000 701000 xent               TSX1    X9ER$PRINT_ERROR
        18 001460   000000 011000                    NOP     0
        18 001461   002373 710000 18                 TRA     s:737

      261      568        %EJECT;
PL6.E3A0      #001=X8ER$ERROR File=X8ER.:X8A6TSI                                 SAT 08/09/97 10:48 Page:62
      262      569    2         CASE( %IO_ATTRIBUTE_CONFLICT );

      263      570    2           ERROR_MSG = '*** File ';

    570 18 001462   040100 100400                    MLR     fill='040'O
        18 001463   000703 000011 17                 ADSC9   451                      cn=0,n=9
        18 001464   200053 000120                    ADSC9   ERROR_MSG,,AUTO          cn=0,n=80

      264      571    2           SUBSTR( ERROR_MSG,9,LENGTH ) = SPECIAL_ERR_MSG;

    571 18 001465   200005 471500                    LDP1    @LENGTH,,AUTO
        18 001466   100000 720100                    LXL0    0,,PR1
        18 001467   200004 473500                    LDP3    @SPECIAL_ERR_MSG,,AUTO
        18 001470   040140 100500                    MLR     fill='040'O
        18 001471   300000 000120                    ADSC9   0,,PR3                   cn=0,n=80
        18 001472   200055 200010                    ADSC9   ERROR_MSG+2,,AUTO        cn=1,n=*X0

      265      572    2           SUBSTR( ERROR_MSG,LENGTH+9,71-LENGTH ) =

    572 18 001473   100000 235100                    LDA     0,,PR1
        18 001474   200100 755100                    STA     ERROR_MSG+21,,AUTO
        18 001475   100000 235100                    LDA     0,,PR1
        18 001476   000002 675000 19                 ERA     2
        18 001477   000110 035007                    ADLA    72,DL
        18 001500   000000 620005                    EAX0    0,AL
        18 001501   200100 235100                    LDA     ERROR_MSG+21,,AUTO
        18 001502   040145 100400                    MLR     fill='040'O
        18 001503   000723 000033 17                 ADSC9   467                      cn=0,n=27
        18 001504   200055 200010                    ADSC9   ERROR_MSG+2,A,AUTO       cn=1,n=*X0

      266      573    2           ' has an attribute conflict.';
      267      574    2           CALL X9ER$PRINT_ERROR( ERROR_MSG );

    574 18 001505   200053 634500                    EPPR4   ERROR_MSG,,AUTO
        18 001506   200100 454500                    STP4    ERROR_MSG+21,,AUTO
        18 001507   200100 630500                    EPPR0   ERROR_MSG+21,,AUTO
        18 001510   000000 631400 19                 EPPR1   0
PL6.E3A0      #001=X8ER$ERROR File=X8ER.:X8A6TSI                                 SAT 08/09/97 10:48 Page:63
        18 001511   000000 701000 xent               TSX1    X9ER$PRINT_ERROR
        18 001512   000000 011000                    NOP     0

      268      575    2           ERROR_MSG = '    The file organization and the program ';

    575 18 001513   040100 100400                    MLR     fill='040'O
        18 001514   000732 000052 17                 ADSC9   474                      cn=0,n=42
        18 001515   200053 000120                    ADSC9   ERROR_MSG,,AUTO          cn=0,n=80

      269      576    2           CALL X9ER$PRINT_ERROR( ERROR_MSG );

    576 18 001516   200053 630500                    EPPR0   ERROR_MSG,,AUTO
        18 001517   200100 450500                    STP0    ERROR_MSG+21,,AUTO
        18 001520   200100 630500                    EPPR0   ERROR_MSG+21,,AUTO
        18 001521   000000 631400 19                 EPPR1   0
        18 001522   000000 701000 xent               TSX1    X9ER$PRINT_ERROR
        18 001523   000000 011000                    NOP     0

      270      577    2           ERROR_MSG = '    specified organization conflict.';

    577 18 001524   040100 100400                    MLR     fill='040'O
        18 001525   000745 000044 17                 ADSC9   485                      cn=0,n=36
        18 001526   200053 000120                    ADSC9   ERROR_MSG,,AUTO          cn=0,n=80

      271      578    2           CALL X9ER$PRINT_ERROR(  ERROR_MSG );

    578 18 001527   200053 630500                    EPPR0   ERROR_MSG,,AUTO
        18 001530   200100 450500                    STP0    ERROR_MSG+21,,AUTO
        18 001531   200100 630500                    EPPR0   ERROR_MSG+21,,AUTO
        18 001532   000000 631400 19                 EPPR1   0
        18 001533   000000 701000 xent               TSX1    X9ER$PRINT_ERROR
        18 001534   000000 011000                    NOP     0
        18 001535   002373 710000 18                 TRA     s:737

      272      579
      273      580    2         CASE( %IO_ALREADY_OPEN );

PL6.E3A0      #001=X8ER$ERROR File=X8ER.:X8A6TSI                                 SAT 08/09/97 10:48 Page:64
      274      581    2           ERROR_MSG = '*** File';

    581 18 001536   040100 100400                    MLR     fill='040'O
        18 001537   000703 000010 17                 ADSC9   451                      cn=0,n=8
        18 001540   200053 000120                    ADSC9   ERROR_MSG,,AUTO          cn=0,n=80

      275      582    2           SUBSTR( ERROR_MSG,9,LENGTH ) = SPECIAL_ERR_MSG;

    582 18 001541   200005 471500                    LDP1    @LENGTH,,AUTO
        18 001542   100000 720100                    LXL0    0,,PR1
        18 001543   200004 473500                    LDP3    @SPECIAL_ERR_MSG,,AUTO
        18 001544   040140 100500                    MLR     fill='040'O
        18 001545   300000 000120                    ADSC9   0,,PR3                   cn=0,n=80
        18 001546   200055 200010                    ADSC9   ERROR_MSG+2,,AUTO        cn=1,n=*X0

      276      583    2           SUBSTR( ERROR_MSG,9+LENGTH,71-LENGTH ) =

    583 18 001547   100000 235100                    LDA     0,,PR1
        18 001550   200100 755100                    STA     ERROR_MSG+21,,AUTO
        18 001551   100000 235100                    LDA     0,,PR1
        18 001552   000002 675000 19                 ERA     2
        18 001553   000110 035007                    ADLA    72,DL
        18 001554   000000 620005                    EAX0    0,AL
        18 001555   200100 235100                    LDA     ERROR_MSG+21,,AUTO
        18 001556   040145 100400                    MLR     fill='040'O
        18 001557   000756 000021 17                 ADSC9   494                      cn=0,n=17
        18 001560   200055 200010                    ADSC9   ERROR_MSG+2,A,AUTO       cn=1,n=*X0

      277      584    2            ' is already open.';
      278      585    2           CALL X9ER$PRINT_ERROR( ERROR_MSG );

    585 18 001561   200053 634500                    EPPR4   ERROR_MSG,,AUTO
        18 001562   200100 454500                    STP4    ERROR_MSG+21,,AUTO
        18 001563   200100 630500                    EPPR0   ERROR_MSG+21,,AUTO
        18 001564   000000 631400 19                 EPPR1   0
        18 001565   000000 701000 xent               TSX1    X9ER$PRINT_ERROR
        18 001566   000000 011000                    NOP     0
PL6.E3A0      #001=X8ER$ERROR File=X8ER.:X8A6TSI                                 SAT 08/09/97 10:48 Page:65
        18 001567   002373 710000 18                 TRA     s:737

      279      586
      280      587    2         CASE( %IO_LOCKED );

      281      588    2           ERROR_MSG = '*** File ';

    588 18 001570   040100 100400                    MLR     fill='040'O
        18 001571   000703 000011 17                 ADSC9   451                      cn=0,n=9
        18 001572   200053 000120                    ADSC9   ERROR_MSG,,AUTO          cn=0,n=80

      282      589    2           SUBSTR( ERROR_MSG,9,LENGTH ) = SPECIAL_ERR_MSG;

    589 18 001573   200005 471500                    LDP1    @LENGTH,,AUTO
        18 001574   100000 720100                    LXL0    0,,PR1
        18 001575   200004 473500                    LDP3    @SPECIAL_ERR_MSG,,AUTO
        18 001576   040140 100500                    MLR     fill='040'O
        18 001577   300000 000120                    ADSC9   0,,PR3                   cn=0,n=80
        18 001600   200055 200010                    ADSC9   ERROR_MSG+2,,AUTO        cn=1,n=*X0

      283      590    2           SUBSTR( ERROR_MSG,LENGTH+9,71-LENGTH ) =

    590 18 001601   100000 235100                    LDA     0,,PR1
        18 001602   200100 755100                    STA     ERROR_MSG+21,,AUTO
        18 001603   100000 235100                    LDA     0,,PR1
        18 001604   000002 675000 19                 ERA     2
        18 001605   000110 035007                    ADLA    72,DL
        18 001606   000000 620005                    EAX0    0,AL
        18 001607   200100 235100                    LDA     ERROR_MSG+21,,AUTO
        18 001610   040145 100400                    MLR     fill='040'O
        18 001611   000763 000050 17                 ADSC9   499                      cn=0,n=40
        18 001612   200055 200010                    ADSC9   ERROR_MSG+2,A,AUTO       cn=1,n=*X0

      284      591    2           ' has been locked and cannot be reopened.';
      285      592    2           CALL X9ER$PRINT_ERROR( ERROR_MSG );

    592 18 001613   200053 634500                    EPPR4   ERROR_MSG,,AUTO
PL6.E3A0      #001=X8ER$ERROR File=X8ER.:X8A6TSI                                 SAT 08/09/97 10:48 Page:66
        18 001614   200100 454500                    STP4    ERROR_MSG+21,,AUTO
        18 001615   200100 630500                    EPPR0   ERROR_MSG+21,,AUTO
        18 001616   000000 631400 19                 EPPR1   0
        18 001617   000000 701000 xent               TSX1    X9ER$PRINT_ERROR
        18 001620   000000 011000                    NOP     0
        18 001621   002373 710000 18                 TRA     s:737

      286      593
      287      594
      288      595    2         CASE( %IO_INVALID_LINAGE );

      289      596    2           ERROR_MSG = '*** Value of LINAGE data item for file ';

    596 18 001622   040100 100400                    MLR     fill='040'O
        18 001623   000775 000047 17                 ADSC9   509                      cn=0,n=39
        18 001624   200053 000120                    ADSC9   ERROR_MSG,,AUTO          cn=0,n=80

      290      597    2           SUBSTR( ERROR_MSG,39,LENGTH ) = SPECIAL_ERR_MSG;

    597 18 001625   200005 471500                    LDP1    @LENGTH,,AUTO
        18 001626   100000 720100                    LXL0    0,,PR1
        18 001627   200004 473500                    LDP3    @SPECIAL_ERR_MSG,,AUTO
        18 001630   040140 100500                    MLR     fill='040'O
        18 001631   300000 000120                    ADSC9   0,,PR3                   cn=0,n=80
        18 001632   200064 600010                    ADSC9   ERROR_MSG+9,,AUTO        cn=3,n=*X0

      291      598    2           CALL X9ER$PRINT_ERROR( ERROR_MSG );

    598 18 001633   200053 634500                    EPPR4   ERROR_MSG,,AUTO
        18 001634   200100 454500                    STP4    ERROR_MSG+21,,AUTO
        18 001635   200100 630500                    EPPR0   ERROR_MSG+21,,AUTO
        18 001636   000000 631400 19                 EPPR1   0
        18 001637   000000 701000 xent               TSX1    X9ER$PRINT_ERROR
        18 001640   000000 011000                    NOP     0

      292      599    2           ERROR_MSG = '    is less than or equal to zero.  LINAGE set to 1.';

PL6.E3A0      #001=X8ER$ERROR File=X8ER.:X8A6TSI                                 SAT 08/09/97 10:48 Page:67
    599 18 001641   040100 100400                    MLR     fill='040'O
        18 001642   001007 000064 17                 ADSC9   519                      cn=0,n=52
        18 001643   200053 000120                    ADSC9   ERROR_MSG,,AUTO          cn=0,n=80

      293      600    2           CALL X9ER$PRINT_ERROR( ERROR_MSG );

    600 18 001644   200053 630500                    EPPR0   ERROR_MSG,,AUTO
        18 001645   200100 450500                    STP0    ERROR_MSG+21,,AUTO
        18 001646   200100 630500                    EPPR0   ERROR_MSG+21,,AUTO
        18 001647   000000 631400 19                 EPPR1   0
        18 001650   000000 701000 xent               TSX1    X9ER$PRINT_ERROR
        18 001651   000000 011000                    NOP     0
        18 001652   002373 710000 18                 TRA     s:737

      294      601
      295      602        %EJECT;
PL6.E3A0      #001=X8ER$ERROR File=X8ER.:X8A6TSI                                 SAT 08/09/97 10:48 Page:68
      296      603    2         CASE( %IO_INVALID_FOOTING );

      297      604    2           ERROR_MSG = '*** Value of footing data item for file ';

    604 18 001653   040100 100400                    MLR     fill='040'O
        18 001654   001024 000050 17                 ADSC9   532                      cn=0,n=40
        18 001655   200053 000120                    ADSC9   ERROR_MSG,,AUTO          cn=0,n=80

      298      605    2           SUBSTR( ERROR_MSG,40,LENGTH ) = SPECIAL_ERR_MSG;

    605 18 001656   200005 471500                    LDP1    @LENGTH,,AUTO
        18 001657   100000 720100                    LXL0    0,,PR1
        18 001660   200004 473500                    LDP3    @SPECIAL_ERR_MSG,,AUTO
        18 001661   040140 100500                    MLR     fill='040'O
        18 001662   300000 000120                    ADSC9   0,,PR3                   cn=0,n=80
        18 001663   200065 000010                    ADSC9   ERROR_MSG+10,,AUTO       cn=0,n=*X0

      299      606    2           CALL X9ER$PRINT_ERROR( ERROR_MSG );

    606 18 001664   200053 634500                    EPPR4   ERROR_MSG,,AUTO
        18 001665   200100 454500                    STP4    ERROR_MSG+21,,AUTO
        18 001666   200100 630500                    EPPR0   ERROR_MSG+21,,AUTO
        18 001667   000000 631400 19                 EPPR1   0
        18 001670   000000 701000 xent               TSX1    X9ER$PRINT_ERROR
        18 001671   000000 011000                    NOP     0

      300      607    2           ERROR_MSG = '    is less than or equal to zero or greater than';

    607 18 001672   040100 100400                    MLR     fill='040'O
        18 001673   001036 000061 17                 ADSC9   542                      cn=0,n=49
        18 001674   200053 000120                    ADSC9   ERROR_MSG,,AUTO          cn=0,n=80

      301      608    2           CALL X9ER$PRINT_ERROR( ERROR_MSG );

    608 18 001675   200053 630500                    EPPR0   ERROR_MSG,,AUTO
        18 001676   200100 450500                    STP0    ERROR_MSG+21,,AUTO
        18 001677   200100 630500                    EPPR0   ERROR_MSG+21,,AUTO
PL6.E3A0      #001=X8ER$ERROR File=X8ER.:X8A6TSI                                 SAT 08/09/97 10:48 Page:69
        18 001700   000000 631400 19                 EPPR1   0
        18 001701   000000 701000 xent               TSX1    X9ER$PRINT_ERROR
        18 001702   000000 011000                    NOP     0

      302      609    2           ERROR_MSG = '    the value of the LINAGE data item.';

    609 18 001703   040100 100400                    MLR     fill='040'O
        18 001704   001053 000046 17                 ADSC9   555                      cn=0,n=38
        18 001705   200053 000120                    ADSC9   ERROR_MSG,,AUTO          cn=0,n=80

      303      610    2           CALL X9ER$PRINT_ERROR( ERROR_MSG );

    610 18 001706   200053 630500                    EPPR0   ERROR_MSG,,AUTO
        18 001707   200100 450500                    STP0    ERROR_MSG+21,,AUTO
        18 001710   200100 630500                    EPPR0   ERROR_MSG+21,,AUTO
        18 001711   000000 631400 19                 EPPR1   0
        18 001712   000000 701000 xent               TSX1    X9ER$PRINT_ERROR
        18 001713   000000 011000                    NOP     0
        18 001714   002373 710000 18                 TRA     s:737

      304      611
      305      612    2         CASE( %IO_INVALID_CHANNEL );

      306      613    2           ERROR_MSG = '*** " " is an invalid channel character.';

    613 18 001715   040100 100400                    MLR     fill='040'O
        18 001716   001065 000050 17                 ADSC9   565                      cn=0,n=40
        18 001717   200053 000120                    ADSC9   ERROR_MSG,,AUTO          cn=0,n=80

      307      614    2           SUBSTR( ERROR_MSG,5,1 ) = SPECIAL_ERR_MSG;

    614 18 001720   200004 471500                    LDP1    @SPECIAL_ERR_MSG,,AUTO
        18 001721   040100 100500                    MLR     fill='040'O
        18 001722   100000 000001                    ADSC9   0,,PR1                   cn=0,n=1
        18 001723   200054 200001                    ADSC9   ERROR_MSG+1,,AUTO        cn=1,n=1

      308      615    2           CALL X9ER$PRINT_ERROR( ERROR_MSG );
PL6.E3A0      #001=X8ER$ERROR File=X8ER.:X8A6TSI                                 SAT 08/09/97 10:48 Page:70

    615 18 001724   200053 633500                    EPPR3   ERROR_MSG,,AUTO
        18 001725   200100 453500                    STP3    ERROR_MSG+21,,AUTO
        18 001726   200100 630500                    EPPR0   ERROR_MSG+21,,AUTO
        18 001727   000000 631400 19                 EPPR1   0
        18 001730   000000 701000 xent               TSX1    X9ER$PRINT_ERROR
        18 001731   000000 011000                    NOP     0
        18 001732   002373 710000 18                 TRA     s:737

      309      616
      310      617
      311      618        %EJECT;
PL6.E3A0      #001=X8ER$ERROR File=X8ER.:X8A6TSI                                 SAT 08/09/97 10:48 Page:71
      312      619        /*V*
      313      620                  Call/Cancel error messages
      314      621        */
      315      622
      316      623    2         CASE( %IPC_RECURSIVE_CALL );

      317      624    2           ERROR_MSG = '*** The attempted call of program: ';

    624 18 001733   040100 100400                    MLR     fill='040'O
        18 001734   001077 000043 17                 ADSC9   575                      cn=0,n=35
        18 001735   200053 000120                    ADSC9   ERROR_MSG,,AUTO          cn=0,n=80

      318      625    2           SUBSTR( ERROR_MSG,36,LENGTH ) = SUBSTR( SPECIAL_ERR_MSG,0,

    625 18 001736   200005 471500                    LDP1    @LENGTH,,AUTO
        18 001737   100000 720100                    LXL0    0,,PR1
        18 001740   100000 721100                    LXL1    0,,PR1
        18 001741   200004 473500                    LDP3    @SPECIAL_ERR_MSG,,AUTO
        18 001742   040140 100540                    MLR     fill='040'O
        18 001743   300000 000011                    ADSC9   0,,PR3                   cn=0,n=*X1
        18 001744   200064 000010                    ADSC9   ERROR_MSG+9,,AUTO        cn=0,n=*X0

      319      626    2                                                   LENGTH   );
      320      627    2           CALL X9ER$PRINT_ERROR( ERROR_MSG );

    627 18 001745   200053 634500                    EPPR4   ERROR_MSG,,AUTO
        18 001746   200100 454500                    STP4    ERROR_MSG+21,,AUTO
        18 001747   200100 630500                    EPPR0   ERROR_MSG+21,,AUTO
        18 001750   000000 631400 19                 EPPR1   0
        18 001751   000000 701000 xent               TSX1    X9ER$PRINT_ERROR
        18 001752   000000 011000                    NOP     0

      321      628    2           ERROR_MSG =

    628 18 001753   040100 100400                    MLR     fill='040'O
        18 001754   001110 000063 17                 ADSC9   584                      cn=0,n=51
        18 001755   200053 000120                    ADSC9   ERROR_MSG,,AUTO          cn=0,n=80
PL6.E3A0      #001=X8ER$ERROR File=X8ER.:X8A6TSI                                 SAT 08/09/97 10:48 Page:72

      322      629    2              '    is unsuccessful because it is a recursive call.';
      323      630    2           CALL X9ER$PRINT_ERROR( ERROR_MSG );

    630 18 001756   200053 630500                    EPPR0   ERROR_MSG,,AUTO
        18 001757   200100 450500                    STP0    ERROR_MSG+21,,AUTO
        18 001760   200100 630500                    EPPR0   ERROR_MSG+21,,AUTO
        18 001761   000000 631400 19                 EPPR1   0
        18 001762   000000 701000 xent               TSX1    X9ER$PRINT_ERROR
        18 001763   000000 011000                    NOP     0
        18 001764   002373 710000 18                 TRA     s:737

      324      631
      325      632    2         CASE( %IPC_INVALID_PROC_CALL );

      326      633    2           ERROR_MSG = '*** A call error condition has been detected and';

    633 18 001765   040100 100400                    MLR     fill='040'O
        18 001766   001125 000060 17                 ADSC9   597                      cn=0,n=48
        18 001767   200053 000120                    ADSC9   ERROR_MSG,,AUTO          cn=0,n=80

      327      634    2           CALL X9ER$PRINT_ERROR( ERROR_MSG );

    634 18 001770   200053 631500                    EPPR1   ERROR_MSG,,AUTO
        18 001771   200100 451500                    STP1    ERROR_MSG+21,,AUTO
        18 001772   200100 630500                    EPPR0   ERROR_MSG+21,,AUTO
        18 001773   000000 631400 19                 EPPR1   0
        18 001774   000000 701000 xent               TSX1    X9ER$PRINT_ERROR
        18 001775   000000 011000                    NOP     0

      328      635    2           ERROR_MSG = '    no overflow/exception clause exists; program aborted.';

    635 18 001776   040100 100400                    MLR     fill='040'O
        18 001777   001141 000071 17                 ADSC9   609                      cn=0,n=57
        18 002000   200053 000120                    ADSC9   ERROR_MSG,,AUTO          cn=0,n=80

      329      636    2           CALL X9ER$PRINT_ERROR( ERROR_MSG );
PL6.E3A0      #001=X8ER$ERROR File=X8ER.:X8A6TSI                                 SAT 08/09/97 10:48 Page:73

    636 18 002001   200053 630500                    EPPR0   ERROR_MSG,,AUTO
        18 002002   200100 450500                    STP0    ERROR_MSG+21,,AUTO
        18 002003   200100 630500                    EPPR0   ERROR_MSG+21,,AUTO
        18 002004   000000 631400 19                 EPPR1   0
        18 002005   000000 701000 xent               TSX1    X9ER$PRINT_ERROR
        18 002006   000000 011000                    NOP     0
        18 002007   002373 710000 18                 TRA     s:737

      330      637
      331      638    2         CASE( %IPC_PROGRAM_NOT_FOUND );

      332      639    2           ERROR_MSG = '*** The call/cancel of program: ';

    639 18 002010   040100 100400                    MLR     fill='040'O
        18 002011   001160 000040 17                 ADSC9   624                      cn=0,n=32
        18 002012   200053 000120                    ADSC9   ERROR_MSG,,AUTO          cn=0,n=80

      333      640    2           SUBSTR( ERROR_MSG,33,LENGTH ) = SUBSTR( SPECIAL_ERR_MSG,0,

    640 18 002013   200005 471500                    LDP1    @LENGTH,,AUTO
        18 002014   100000 720100                    LXL0    0,,PR1
        18 002015   100000 721100                    LXL1    0,,PR1
        18 002016   200004 473500                    LDP3    @SPECIAL_ERR_MSG,,AUTO
        18 002017   040140 100540                    MLR     fill='040'O
        18 002020   300000 000011                    ADSC9   0,,PR3                   cn=0,n=*X1
        18 002021   200063 200010                    ADSC9   ERROR_MSG+8,,AUTO        cn=1,n=*X0

      334      641    2                                                   LENGTH   );
      335      642    2           CALL X9ER$PRINT_ERROR( ERROR_MSG );

    642 18 002022   200053 634500                    EPPR4   ERROR_MSG,,AUTO
        18 002023   200100 454500                    STP4    ERROR_MSG+21,,AUTO
        18 002024   200100 630500                    EPPR0   ERROR_MSG+21,,AUTO
        18 002025   000000 631400 19                 EPPR1   0
        18 002026   000000 701000 xent               TSX1    X9ER$PRINT_ERROR
        18 002027   000000 011000                    NOP     0
PL6.E3A0      #001=X8ER$ERROR File=X8ER.:X8A6TSI                                 SAT 08/09/97 10:48 Page:74

      336      643    2           ERROR_MSG =

    643 18 002030   040100 100400                    MLR     fill='040'O
        18 002031   001170 000073 17                 ADSC9   632                      cn=0,n=59
        18 002032   200053 000120                    ADSC9   ERROR_MSG,,AUTO          cn=0,n=80

      337      644    2              '    is unsuccessful because the program could not be found.';
      338      645    2           CALL X9ER$PRINT_ERROR( ERROR_MSG );

    645 18 002033   200053 630500                    EPPR0   ERROR_MSG,,AUTO
        18 002034   200100 450500                    STP0    ERROR_MSG+21,,AUTO
        18 002035   200100 630500                    EPPR0   ERROR_MSG+21,,AUTO
        18 002036   000000 631400 19                 EPPR1   0
        18 002037   000000 701000 xent               TSX1    X9ER$PRINT_ERROR
        18 002040   000000 011000                    NOP     0
        18 002041   002373 710000 18                 TRA     s:737

      339      646
      340      647
      341      648    2         CASE( %IPC_NOT_COMMON );

      342      649    2           ERROR_MSG = '*** The call/cancel of program: ';

    649 18 002042   040100 100400                    MLR     fill='040'O
        18 002043   001160 000040 17                 ADSC9   624                      cn=0,n=32
        18 002044   200053 000120                    ADSC9   ERROR_MSG,,AUTO          cn=0,n=80

      343      650    2           SUBSTR( ERROR_MSG,33,LENGTH ) = SUBSTR( SPECIAL_ERR_MSG,0,

    650 18 002045   200005 471500                    LDP1    @LENGTH,,AUTO
        18 002046   100000 720100                    LXL0    0,,PR1
        18 002047   100000 721100                    LXL1    0,,PR1
        18 002050   200004 473500                    LDP3    @SPECIAL_ERR_MSG,,AUTO
        18 002051   040140 100540                    MLR     fill='040'O
        18 002052   300000 000011                    ADSC9   0,,PR3                   cn=0,n=*X1
        18 002053   200063 200010                    ADSC9   ERROR_MSG+8,,AUTO        cn=1,n=*X0
PL6.E3A0      #001=X8ER$ERROR File=X8ER.:X8A6TSI                                 SAT 08/09/97 10:48 Page:75

      344      651    2                                                   LENGTH   );
      345      652    2           CALL X9ER$PRINT_ERROR( ERROR_MSG );

    652 18 002054   200053 634500                    EPPR4   ERROR_MSG,,AUTO
        18 002055   200100 454500                    STP4    ERROR_MSG+21,,AUTO
        18 002056   200100 630500                    EPPR0   ERROR_MSG+21,,AUTO
        18 002057   000000 631400 19                 EPPR1   0
        18 002060   000000 701000 xent               TSX1    X9ER$PRINT_ERROR
        18 002061   000000 011000                    NOP     0

      346      653    2           ERROR_MSG =

    653 18 002062   040100 100400                    MLR     fill='040'O
        18 002063   001207 000066 17                 ADSC9   647                      cn=0,n=54
        18 002064   200053 000120                    ADSC9   ERROR_MSG,,AUTO          cn=0,n=80

      347      654    2              '    is unsuccessful because the program is not common.';
      348      655    2           CALL X9ER$PRINT_ERROR( ERROR_MSG );

    655 18 002065   200053 630500                    EPPR0   ERROR_MSG,,AUTO
        18 002066   200100 450500                    STP0    ERROR_MSG+21,,AUTO
        18 002067   200100 630500                    EPPR0   ERROR_MSG+21,,AUTO
        18 002070   000000 631400 19                 EPPR1   0
        18 002071   000000 701000 xent               TSX1    X9ER$PRINT_ERROR
        18 002072   000000 011000                    NOP     0
        18 002073   002373 710000 18                 TRA     s:737

      349      656
      350      657    2         CASE( %IPC_CANCEL_ACTIVE );

      351      658
      352      659    2           ERROR_MSG = '*** The cancel of the  program: ';

    659 18 002074   040100 100400                    MLR     fill='040'O
        18 002075   001225 000040 17                 ADSC9   661                      cn=0,n=32
        18 002076   200053 000120                    ADSC9   ERROR_MSG,,AUTO          cn=0,n=80
PL6.E3A0      #001=X8ER$ERROR File=X8ER.:X8A6TSI                                 SAT 08/09/97 10:48 Page:76

      353      660    2           SUBSTR( ERROR_MSG,33,LENGTH ) = SUBSTR( SPECIAL_ERR_MSG,0,

    660 18 002077   200005 471500                    LDP1    @LENGTH,,AUTO
        18 002100   100000 720100                    LXL0    0,,PR1
        18 002101   100000 721100                    LXL1    0,,PR1
        18 002102   200004 473500                    LDP3    @SPECIAL_ERR_MSG,,AUTO
        18 002103   040140 100540                    MLR     fill='040'O
        18 002104   300000 000011                    ADSC9   0,,PR3                   cn=0,n=*X1
        18 002105   200063 200010                    ADSC9   ERROR_MSG+8,,AUTO        cn=1,n=*X0

      354      661    2                                                   LENGTH   );
      355      662    2           CALL X9ER$PRINT_ERROR( ERROR_MSG );

    662 18 002106   200053 634500                    EPPR4   ERROR_MSG,,AUTO
        18 002107   200100 454500                    STP4    ERROR_MSG+21,,AUTO
        18 002110   200100 630500                    EPPR0   ERROR_MSG+21,,AUTO
        18 002111   000000 631400 19                 EPPR1   0
        18 002112   000000 701000 xent               TSX1    X9ER$PRINT_ERROR
        18 002113   000000 011000                    NOP     0

      356      663    2           ERROR_MSG =

    663 18 002114   040100 100400                    MLR     fill='040'O
        18 002115   001235 000062 17                 ADSC9   669                      cn=0,n=50
        18 002116   200053 000120                    ADSC9   ERROR_MSG,,AUTO          cn=0,n=80

      357      664    2              '    is unsuccessful because the program is active.';
      358      665    2           CALL X9ER$PRINT_ERROR( ERROR_MSG );

    665 18 002117   200053 630500                    EPPR0   ERROR_MSG,,AUTO
        18 002120   200100 450500                    STP0    ERROR_MSG+21,,AUTO
        18 002121   200100 630500                    EPPR0   ERROR_MSG+21,,AUTO
        18 002122   000000 631400 19                 EPPR1   0
        18 002123   000000 701000 xent               TSX1    X9ER$PRINT_ERROR
        18 002124   000000 011000                    NOP     0
        18 002125   002373 710000 18                 TRA     s:737
PL6.E3A0      #001=X8ER$ERROR File=X8ER.:X8A6TSI                                 SAT 08/09/97 10:48 Page:77

      359      666    2         CASE( %CALL_USE_RECURSIVE );

      360      667    2           ERROR_MSG =
               667                    '*** Serious error: attempt to invoke USE procedure recursively.';

    667 18 002126   040100 100400                    MLR     fill='040'O
        18 002127   001252 000077 17                 ADSC9   682                      cn=0,n=63
        18 002130   200053 000120                    ADSC9   ERROR_MSG,,AUTO          cn=0,n=80

      361      668    2           CALL X9ER$PRINT_ERROR( ERROR_MSG );

    668 18 002131   200053 631500                    EPPR1   ERROR_MSG,,AUTO
        18 002132   200100 451500                    STP1    ERROR_MSG+21,,AUTO
        18 002133   200100 630500                    EPPR0   ERROR_MSG+21,,AUTO
        18 002134   000000 631400 19                 EPPR1   0
        18 002135   000000 701000 xent               TSX1    X9ER$PRINT_ERROR
        18 002136   000000 011000                    NOP     0
        18 002137   002373 710000 18                 TRA     s:737

      362      669        %EJECT;
PL6.E3A0      #001=X8ER$ERROR File=X8ER.:X8A6TSI                                 SAT 08/09/97 10:48 Page:78
      363      670        /*V*     Report Writer Control System error messages                */
      364      671
      365      672    2          CASE( %RW_ALREADY_ACTIVE );

      366      673    2            ERROR_MSG = '*** An Initiate was encountered for a';

    673 18 002140   040100 100400                    MLR     fill='040'O
        18 002141   001272 000045 17                 ADSC9   698                      cn=0,n=37
        18 002142   200053 000120                    ADSC9   ERROR_MSG,,AUTO          cn=0,n=80

      367      674    2            CALL X9ER$PRINT_ERROR ( ERROR_MSG );

    674 18 002143   200053 631500                    EPPR1   ERROR_MSG,,AUTO
        18 002144   200100 451500                    STP1    ERROR_MSG+21,,AUTO
        18 002145   200100 630500                    EPPR0   ERROR_MSG+21,,AUTO
        18 002146   000000 631400 19                 EPPR1   0
        18 002147   000000 701000 xent               TSX1    X9ER$PRINT_ERROR
        18 002150   000000 011000                    NOP     0

      368      675    2            ERROR_MSG = '    report that is currently active.';

    675 18 002151   040100 100400                    MLR     fill='040'O
        18 002152   001304 000044 17                 ADSC9   708                      cn=0,n=36
        18 002153   200053 000120                    ADSC9   ERROR_MSG,,AUTO          cn=0,n=80

      369      676    2            CALL X9ER$PRINT_ERROR ( ERROR_MSG );

    676 18 002154   200053 630500                    EPPR0   ERROR_MSG,,AUTO
        18 002155   200100 450500                    STP0    ERROR_MSG+21,,AUTO
        18 002156   200100 630500                    EPPR0   ERROR_MSG+21,,AUTO
        18 002157   000000 631400 19                 EPPR1   0
        18 002160   000000 701000 xent               TSX1    X9ER$PRINT_ERROR
        18 002161   000000 011000                    NOP     0

      370      677    2            IF ~ LIBCOM.CONTINUE THEN                      /*#31351*/

    677 18 002162   000001 236000 0                  LDQ     LIBCOM+1
PL6.E3A0      #001=X8ER$ERROR File=X8ER.:X8A6TSI                                 SAT 08/09/97 10:48 Page:79
        18 002163   400000 376003                    ANQ     -131072,DU
        18 002164   400000 676003                    ERQ     -131072,DU
        18 002165   002373 600000 18                 TZE     s:737

      371      678    3              DO;

      372      679    3                LIBCOM.ERROR_FLAG = %TRUE;

    679 18 002166   400000 236003                    LDQ     -131072,DU
        18 002167   000015 756000 0                  STQ     LIBCOM+13

      373      680    3                CALL X9ST$STOP_RUN;

    680 18 002170   000003 631400 19                 EPPR1   3
        18 002171   000000 701000 xent               TSX1    X9ST$STOP_RUN
        18 002172   000000 011000                    NOP     0

      374      681    3              END;

    681 18 002173   002373 710000 18                 TRA     s:737

      375      682
      376      683    2          CASE ( %RW_NEVER_ACTIVE );

      377      684    2            ERROR_MSG = '*** A Terminate was encountered for a';

    684 18 002174   040100 100400                    MLR     fill='040'O
        18 002175   001315 000045 17                 ADSC9   717                      cn=0,n=37
        18 002176   200053 000120                    ADSC9   ERROR_MSG,,AUTO          cn=0,n=80

      378      685    2            CALL X9ER$PRINT_ERROR ( ERROR_MSG );

    685 18 002177   200053 631500                    EPPR1   ERROR_MSG,,AUTO
        18 002200   200100 451500                    STP1    ERROR_MSG+21,,AUTO
        18 002201   200100 630500                    EPPR0   ERROR_MSG+21,,AUTO
        18 002202   000000 631400 19                 EPPR1   0
        18 002203   000000 701000 xent               TSX1    X9ER$PRINT_ERROR
PL6.E3A0      #001=X8ER$ERROR File=X8ER.:X8A6TSI                                 SAT 08/09/97 10:48 Page:80
        18 002204   000000 011000                    NOP     0

      379      686    2            ERROR_MSG = '    report which was not active.';

    686 18 002205   040100 100400                    MLR     fill='040'O
        18 002206   001327 000040 17                 ADSC9   727                      cn=0,n=32
        18 002207   200053 000120                    ADSC9   ERROR_MSG,,AUTO          cn=0,n=80

      380      687    2            CALL X9ER$PRINT_ERROR ( ERROR_MSG );

    687 18 002210   200053 630500                    EPPR0   ERROR_MSG,,AUTO
        18 002211   200100 450500                    STP0    ERROR_MSG+21,,AUTO
        18 002212   200100 630500                    EPPR0   ERROR_MSG+21,,AUTO
        18 002213   000000 631400 19                 EPPR1   0
        18 002214   000000 701000 xent               TSX1    X9ER$PRINT_ERROR
        18 002215   000000 011000                    NOP     0

      381      688    2            IF ~ LIBCOM.CONTINUE THEN                      /*#31351*/

    688 18 002216   000001 236000 0                  LDQ     LIBCOM+1
        18 002217   400000 376003                    ANQ     -131072,DU
        18 002220   400000 676003                    ERQ     -131072,DU
        18 002221   002373 600000 18                 TZE     s:737

      382      689    3              DO;

      383      690    3                LIBCOM.ERROR_FLAG = %TRUE;

    690 18 002222   400000 236003                    LDQ     -131072,DU
        18 002223   000015 756000 0                  STQ     LIBCOM+13

      384      691    3                CALL X9ST$STOP_RUN;

    691 18 002224   000003 631400 19                 EPPR1   3
        18 002225   000000 701000 xent               TSX1    X9ST$STOP_RUN
        18 002226   000000 011000                    NOP     0

PL6.E3A0      #001=X8ER$ERROR File=X8ER.:X8A6TSI                                 SAT 08/09/97 10:48 Page:81
      385      692    3              END;

    692 18 002227   002373 710000 18                 TRA     s:737

      386      693
      387      694    2          CASE (%RW_NOT_ACTIVE );

      388      695    2            ERROR_MSG = '*** A Generate was encountered for a ';

    695 18 002230   040100 100400                    MLR     fill='040'O
        18 002231   001337 000045 17                 ADSC9   735                      cn=0,n=37
        18 002232   200053 000120                    ADSC9   ERROR_MSG,,AUTO          cn=0,n=80

      389      696    2            CALL X9ER$PRINT_ERROR ( ERROR_MSG );

    696 18 002233   200053 631500                    EPPR1   ERROR_MSG,,AUTO
        18 002234   200100 451500                    STP1    ERROR_MSG+21,,AUTO
        18 002235   200100 630500                    EPPR0   ERROR_MSG+21,,AUTO
        18 002236   000000 631400 19                 EPPR1   0
        18 002237   000000 701000 xent               TSX1    X9ER$PRINT_ERROR
        18 002240   000000 011000                    NOP     0

      390      697    2            ERROR_MSG = '    report which was not active. ';

    697 18 002241   040100 100400                    MLR     fill='040'O
        18 002242   001351 000041 17                 ADSC9   745                      cn=0,n=33
        18 002243   200053 000120                    ADSC9   ERROR_MSG,,AUTO          cn=0,n=80

      391      698    2            CALL X9ER$PRINT_ERROR ( ERROR_MSG );

    698 18 002244   200053 630500                    EPPR0   ERROR_MSG,,AUTO
        18 002245   200100 450500                    STP0    ERROR_MSG+21,,AUTO
        18 002246   200100 630500                    EPPR0   ERROR_MSG+21,,AUTO
        18 002247   000000 631400 19                 EPPR1   0
        18 002250   000000 701000 xent               TSX1    X9ER$PRINT_ERROR
        18 002251   000000 011000                    NOP     0

PL6.E3A0      #001=X8ER$ERROR File=X8ER.:X8A6TSI                                 SAT 08/09/97 10:48 Page:82
      392      699    2            IF ~ LIBCOM.CONTINUE THEN                      /*#31351*/

    699 18 002252   000001 236000 0                  LDQ     LIBCOM+1
        18 002253   400000 376003                    ANQ     -131072,DU
        18 002254   400000 676003                    ERQ     -131072,DU
        18 002255   002373 600000 18                 TZE     s:737

      393      700    3              DO;

      394      701    3                LIBCOM.ERROR_FLAG = %TRUE;

    701 18 002256   400000 236003                    LDQ     -131072,DU
        18 002257   000015 756000 0                  STQ     LIBCOM+13

      395      702    3                CALL X9ST$STOP_RUN;

    702 18 002260   000003 631400 19                 EPPR1   3
        18 002261   000000 701000 xent               TSX1    X9ST$STOP_RUN
        18 002262   000000 011000                    NOP     0

      396      703    3              END;

    703 18 002263   002373 710000 18                 TRA     s:737

      397      704        %EJECT;
PL6.E3A0      #001=X8ER$ERROR File=X8ER.:X8A6TSI                                 SAT 08/09/97 10:48 Page:83
      398      705    2          CASE (%USER_LABEL_NOT_UHL_UTL);

      399      706
      400      707    2            ERROR_MSG =
               707                    '*** User beginning or ending Label did not begin with "UHL" or "UTL"';

    707 18 002264   040100 100400                    MLR     fill='040'O
        18 002265   001362 000104 17                 ADSC9   754                      cn=0,n=68
        18 002266   200053 000120                    ADSC9   ERROR_MSG,,AUTO          cn=0,n=80

      401      708    2            CALL X9ER$PRINT_ERROR ( ERROR_MSG );

    708 18 002267   200053 631500                    EPPR1   ERROR_MSG,,AUTO
        18 002270   200100 451500                    STP1    ERROR_MSG+21,,AUTO
        18 002271   200100 630500                    EPPR0   ERROR_MSG+21,,AUTO
        18 002272   000000 631400 19                 EPPR1   0
        18 002273   000000 701000 xent               TSX1    X9ER$PRINT_ERROR
        18 002274   000000 011000                    NOP     0

      402      709    2            ERROR_MSG = '    and has been corrected.';

    709 18 002275   040100 100400                    MLR     fill='040'O
        18 002276   001403 000033 17                 ADSC9   771                      cn=0,n=27
        18 002277   200053 000120                    ADSC9   ERROR_MSG,,AUTO          cn=0,n=80

      403      710    2            CALL X9ER$PRINT_ERROR ( ERROR_MSG );

    710 18 002300   200053 630500                    EPPR0   ERROR_MSG,,AUTO
        18 002301   200100 450500                    STP0    ERROR_MSG+21,,AUTO
        18 002302   200100 630500                    EPPR0   ERROR_MSG+21,,AUTO
        18 002303   000000 631400 19                 EPPR1   0
        18 002304   000000 701000 xent               TSX1    X9ER$PRINT_ERROR
        18 002305   000000 011000                    NOP     0
        18 002306   002373 710000 18                 TRA     s:737

      404      711
      405      712        %EJECT;
PL6.E3A0      #001=X8ER$ERROR File=X8ER.:X8A6TSI                                 SAT 08/09/97 10:48 Page:84
      406      713    2         CASE ( %UNEXPECTED_CASE );

      407      714
      408      715    2           ERROR_MSG =

    715 18 002307   040100 100400                    MLR     fill='040'O
        18 002310   001412 000103 17                 ADSC9   778                      cn=0,n=67
        18 002311   200053 000120                    ADSC9   ERROR_MSG,,AUTO          cn=0,n=80

      409      716    2           '*** Runtime library error: An unexpected case has been encountered.';
      410      717    2            CALL X9ER$PRINT_ERROR( ERROR_MSG );

    717 18 002312   200053 631500                    EPPR1   ERROR_MSG,,AUTO
        18 002313   200100 451500                    STP1    ERROR_MSG+21,,AUTO
        18 002314   200100 630500                    EPPR0   ERROR_MSG+21,,AUTO
        18 002315   000000 631400 19                 EPPR1   0
        18 002316   000000 701000 xent               TSX1    X9ER$PRINT_ERROR
        18 002317   000000 011000                    NOP     0

      411      718    2            ERROR_MSG = '    Module: ';

    718 18 002320   040100 100400                    MLR     fill='040'O
        18 002321   001433 000014 17                 ADSC9   795                      cn=0,n=12
        18 002322   200053 000120                    ADSC9   ERROR_MSG,,AUTO          cn=0,n=80

      412      719    2            SUBSTR ( ERROR_MSG,13,LENGTH ) = SPECIAL_ERR_MSG;

    719 18 002323   200005 470500                    LDP0    @LENGTH,,AUTO
        18 002324   000000 720100                    LXL0    0,,PR0
        18 002325   200004 471500                    LDP1    @SPECIAL_ERR_MSG,,AUTO
        18 002326   040140 100500                    MLR     fill='040'O
        18 002327   100000 000120                    ADSC9   0,,PR1                   cn=0,n=80
        18 002330   200056 200010                    ADSC9   ERROR_MSG+3,,AUTO        cn=1,n=*X0

      413      720    2            CALL X9ER$PRINT_ERROR( ERROR_MSG );

    720 18 002331   200053 633500                    EPPR3   ERROR_MSG,,AUTO
PL6.E3A0      #001=X8ER$ERROR File=X8ER.:X8A6TSI                                 SAT 08/09/97 10:48 Page:85
        18 002332   200100 453500                    STP3    ERROR_MSG+21,,AUTO
        18 002333   200100 630500                    EPPR0   ERROR_MSG+21,,AUTO
        18 002334   000000 631400 19                 EPPR1   0
        18 002335   000000 701000 xent               TSX1    X9ER$PRINT_ERROR
        18 002336   000000 011000                    NOP     0
        18 002337   002373 710000 18                 TRA     s:737

      414      721
      415      722    2         CASE ( ELSE );

      416      723    2           ERROR_MSG =

    723 18 002340   040100 100400                    MLR     fill='040'O
        18 002341   001436 000072 17                 ADSC9   798                      cn=0,n=58
        18 002342   200053 000120                    ADSC9   ERROR_MSG,,AUTO          cn=0,n=80

      417      724    2           '*** Runtime library error: No error message defined  yet. ';
      418      725    2            CALL X9ER$PRINT_ERROR ( ERROR_MSG );

    725 18 002343   200053 631500                    EPPR1   ERROR_MSG,,AUTO
        18 002344   200100 451500                    STP1    ERROR_MSG+21,,AUTO
        18 002345   200100 630500                    EPPR0   ERROR_MSG+21,,AUTO
        18 002346   000000 631400 19                 EPPR1   0
        18 002347   000000 701000 xent               TSX1    X9ER$PRINT_ERROR
        18 002350   000000 011000                    NOP     0

      419      726    2            ERROR_MSG = '    Error message number = ';

    726 18 002351   040100 100400                    MLR     fill='040'O
        18 002352   001455 000033 17                 ADSC9   813                      cn=0,n=27
        18 002353   200053 000120                    ADSC9   ERROR_MSG,,AUTO          cn=0,n=80

      420      727    2            CALL X8CO$CONV_TO_DECIMAL( ERROR_NUMBER, SUBSTR( ERROR_MSG,30,13 ));

    727 18 002354   200102 452500                    STP2    ERROR_MSG+23,,AUTO
        18 002355   200102 236100                    LDQ     ERROR_MSG+23,,AUTO
        18 002356   000005 036000 19                 ADLQ    5
PL6.E3A0      #001=X8ER$ERROR File=X8ER.:X8A6TSI                                 SAT 08/09/97 10:48 Page:86
        18 002357   200003 235100                    LDA     @ERROR_NUMBER,,AUTO
        18 002360   200100 757100                    STAQ    ERROR_MSG+21,,AUTO
        18 002361   200100 630500                    EPPR0   ERROR_MSG+21,,AUTO
        18 002362   000004 631400 19                 EPPR1   4
        18 002363   000000 701000 xent               TSX1    X8CO$CONV_TO_DECIMAL
        18 002364   000000 011000                    NOP     0

      421      728    2            CALL X9ER$PRINT_ERROR ( ERROR_MSG );

    728 18 002365   200053 630500                    EPPR0   ERROR_MSG,,AUTO
        18 002366   200100 450500                    STP0    ERROR_MSG+21,,AUTO
        18 002367   200100 630500                    EPPR0   ERROR_MSG+21,,AUTO
        18 002370   000000 631400 19                 EPPR1   0
        18 002371   000000 701000 xent               TSX1    X9ER$PRINT_ERROR
        18 002372   000000 011000                    NOP     0

      422      729
      423      730    2       END;  /* CASE */

      424      731
      425      732        /*
      426      733                 Print a blank line to keep error messages from being
      427      734                 overprinted by user's program.
      428      735        */
      429      736
      430      737    1       ERROR_MSG = ' ';

    737 18 002373   040100 100400                    MLR     fill='040'O
        18 002374   000006 000001 19                 ADSC9   6                        cn=0,n=1
        18 002375   200053 000120                    ADSC9   ERROR_MSG,,AUTO          cn=0,n=80

      431      738    1       CALL X9ER$PRINT_ERROR( ERROR_MSG );

    738 18 002376   200053 630500                    EPPR0   ERROR_MSG,,AUTO
        18 002377   200100 450500                    STP0    ERROR_MSG+21,,AUTO
        18 002400   200100 630500                    EPPR0   ERROR_MSG+21,,AUTO
        18 002401   000000 631400 19                 EPPR1   0
PL6.E3A0      #001=X8ER$ERROR File=X8ER.:X8A6TSI                                 SAT 08/09/97 10:48 Page:87
        18 002402   000000 701000 xent               TSX1    X9ER$PRINT_ERROR
        18 002403   000000 011000                    NOP     0

      432      739    1   END X8ER$ERROR;  /* proc */

    739 18 002404   000000 702200 xent               TSX2  ! X66_ARET
      433      740        %EJECT;
PL6.E3A0      #001=X8ER$ERROR File=X8ER.:X8A6TSI                                 SAT 08/09/97 10:48 Page:88
      434      741        %EOD;

PL6.E3A0      #001=X8ER$ERROR File=X8ER.:X8A6TSI                                 SAT 08/09/97 10:48 Page:89
--  Include file information  --

   X8A_LIBCOM.:X8A6TOU  cannot be made into a system file and is referenced.
   X8A_ERRCOM.:X8A6TOU  cannot be made into a system file and is referenced.
      No diagnostics issued in procedure X8ER$ERROR.
PL6.E3A0      #001=X8ER$ERROR File=X8ER.:X8A6TSI                                 SAT 08/09/97 10:48 Page:90

 **** Variables and constants ****

  ****  Section 000 LblCom LIBCOM

  ****  Scalars and arrays  ****
OctLoc.c.b A Datatyp(siz) R M Lvl/name                 OctLoc.c.b A Datatyp(siz) R M Lvl/name

     0-0-0/w STRC(720)   r     1 LIBCOM

  ****  Section 001 LblCom DEC_OR_COMMA

  ****  Scalars and arrays  ****
OctLoc.c.b A Datatyp(siz) R M Lvl/name                 OctLoc.c.b A Datatyp(siz) R M Lvl/name

     0-0-0/c CHAR              1 DEC_OR_COMMA

  ****  Section 002 LblCom IN_TEMP

  ****  Scalars and arrays  ****
OctLoc.c.b A Datatyp(siz) R M Lvl/name                 OctLoc.c.b A Datatyp(siz) R M Lvl/name

     0-0-0/c CHAR(80)          1 IN_TEMP

  ****  Section 003 LblCom OVRCHR

  ****  Scalars and arrays  ****
OctLoc.c.b A Datatyp(siz) R M Lvl/name                 OctLoc.c.b A Datatyp(siz) R M Lvl/name

     0-0-0/c CHAR              1 OVRCHR

  ****  Section 004 LblCom SELECT_TIME

  ****  Scalars and arrays  ****
OctLoc.c.b A Datatyp(siz) R M Lvl/name                 OctLoc.c.b A Datatyp(siz) R M Lvl/name

     0-0-0/w UBIN              1 SELECT_TIME

PL6.E3A0      #001=X8ER$ERROR File=X8ER.:X8A6TSI                                 SAT 08/09/97 10:48 Page:91
  ****  Section 005 LblCom NO_ADVANCE_OFFSET

  ****  Scalars and arrays  ****
OctLoc.c.b A Datatyp(siz) R M Lvl/name                 OctLoc.c.b A Datatyp(siz) R M Lvl/name

     0-0-0/w UBIN              1 NO_ADVANCE_OFFSET

  ****  Section 006 LblCom DSPLY_SAVE

  ****  Scalars and arrays  ****
OctLoc.c.b A Datatyp(siz) R M Lvl/name                 OctLoc.c.b A Datatyp(siz) R M Lvl/name

     0-0-0/c CHAR(72)          1 DSPLY_SAVE

  ****  Section 007 LblCom D_DATE

  ****  Scalars and arrays  ****
OctLoc.c.b A Datatyp(siz) R M Lvl/name                 OctLoc.c.b A Datatyp(siz) R M Lvl/name

     0-0-0/c CHAR(10)          1 D_DATE

  ****  Section 008 LblCom D_TIME

  ****  Scalars and arrays  ****
OctLoc.c.b A Datatyp(siz) R M Lvl/name                 OctLoc.c.b A Datatyp(siz) R M Lvl/name

     0-0-0/c CHAR(11)          1 D_TIME

  ****  Section 009 LblCom D_DAY

  ****  Scalars and arrays  ****
OctLoc.c.b A Datatyp(siz) R M Lvl/name                 OctLoc.c.b A Datatyp(siz) R M Lvl/name

     0-0-0/c CHAR(3)           1 D_DAY

  ****  Section 010 LblCom C_DATE

PL6.E3A0      #001=X8ER$ERROR File=X8ER.:X8A6TSI                                 SAT 08/09/97 10:48 Page:92
  ****  Scalars and arrays  ****
OctLoc.c.b A Datatyp(siz) R M Lvl/name                 OctLoc.c.b A Datatyp(siz) R M Lvl/name

     0-0-0/c CHAR(6)           1 C_DATE

  ****  Section 011 LblCom C_TIME

  ****  Scalars and arrays  ****
OctLoc.c.b A Datatyp(siz) R M Lvl/name                 OctLoc.c.b A Datatyp(siz) R M Lvl/name

     0-0-0/c CHAR(8)           1 C_TIME

  ****  Section 012 LblCom C_DAY

  ****  Scalars and arrays  ****
OctLoc.c.b A Datatyp(siz) R M Lvl/name                 OctLoc.c.b A Datatyp(siz) R M Lvl/name

     0-0-0/c CHAR(5)           1 C_DAY

  ****  Section 013 LblCom RTHOLD2

  ****  Scalars and arrays  ****
OctLoc.c.b A Datatyp(siz) R M Lvl/name                 OctLoc.c.b A Datatyp(siz) R M Lvl/name

     0-0-0/w UBIN              1 RTHOLD2

  ****  Section 014 LblCom LTHOLD2

  ****  Scalars and arrays  ****
OctLoc.c.b A Datatyp(siz) R M Lvl/name                 OctLoc.c.b A Datatyp(siz) R M Lvl/name

     0-0-0/w UBIN              1 LTHOLD2

  ****  Section 015 LblCom NDX2

  ****  Scalars and arrays  ****
OctLoc.c.b A Datatyp(siz) R M Lvl/name                 OctLoc.c.b A Datatyp(siz) R M Lvl/name
PL6.E3A0      #001=X8ER$ERROR File=X8ER.:X8A6TSI                                 SAT 08/09/97 10:48 Page:93

     0-0-0/w SBIN              1 NDX2

  ****  Section 016 LblCom IN_LEN

  ****  Scalars and arrays  ****
OctLoc.c.b A Datatyp(siz) R M Lvl/name                 OctLoc.c.b A Datatyp(siz) R M Lvl/name

     0-0-0/w UBIN              1 IN_LEN

  ****  Auto variables  ****

  ****  Scalars and arrays  ****
OctLoc.c.b A Datatyp(siz) R M Lvl/name                 OctLoc.c.b A Datatyp(siz) R M Lvl/name

     3-0-0/w PTR         r     1 @ERROR_NUMBER              5-0-0/w PTR         r     1 @LENGTH
     4-0-0/w PTR         r     1 @SPECIAL_ERR_MSG          53-0-0/c CHAR(80)    r     1 ERROR_MSG
    *0-0-0/w UBIN        r     1 ERROR_NUMBER              *0-0-0/w SBIN        r     1 LENGTH
     6-0-0/w SBIN              1 LT                         7-0-0/c CHAR(65)          1 LTHOLD
    51-0-0/w SBIN              1 NDX                       52-0-0/w SBIN              1 NDX3
    30-0-0/c CHAR(65)          1 RTHOLD                    *0-0-0/c CHAR(80)    r     1 SPECIAL_ERR_MSG


   Procedure X8ER$ERROR requires 1285 words for executable code.
   Procedure X8ER$ERROR requires 68 words of local(AUTO) storage.

PL6.E3A0      #002=X8ER$SUBCHECK File=X8ER.:X8A6TSI                              SAT 08/09/97 10:50 Page:94
      435        1        /*M* X8ER$SUBCHECK  --  issue subscript error message               */
      436        2        /*T***********************************************************/
      437        3        /*T*                                                         */
      438        4        /*T* Copyright (c) Bull HN Information Systems Inc., 1997    */
      439        5        /*T*                                                         */
      440        6        /*T***********************************************************/
      441        7
      442        8        /*F*
      443        9             NAME: X8ER$SUBCHECK
      444       10          PURPOSE: To provide a facility for the generated code to issue
      445       11                   runtime diagnostics for subscript errors.
      446       12        */
      447       13
      448       14        /*-----------*/
      449       15        X8ER$SUBCHECK:         PROC  ALTRET;
      450       16        /*-----------*/
      451       17
      452       18            %INCLUDE X8A_ERRCOM;
      453      107            %INCLUDE X8A_LIBCOM;
      454      327            %INCLUDE X8A_MACROS;
      455      584        %EJECT;
PL6.E3A0      #002=X8ER$SUBCHECK File=X8ER.:X8A6TSI                              SAT 08/09/97 10:50 Page:95
      456      585    1       DCL BLANK         CHAR(80);
      457      586    1       DCL X8ER$ERROR        ENTRY(3);
      458      587    1       DCL X9ST$STOP_RUN     ENTRY;
      459      588    1       DCL X9DB$DELTA        ENTRY;
      460      589    1       DCL X9ER$PRINT_ERROR  ENTRY(1);
      461      590
      462      591    1       CALL X8ER$ERROR ( %SUBCHECK );
      463      592    1       CALL X9DB$DELTA;
      464      593    1       LIBCOM.ERROR_FLAG = %TRUE;                  /*#29978*/
      465      594    1       IF LIBCOM.CONTINUE THEN
      466      595    2         DO;
      467      596    2           BLANK = ' ';
      468      597    2           CALL X9ER$PRINT_ERROR( BLANK );
      469      598    2           RETURN;
      470      599    2         END;
      471      600    1       ELSE
      472      601    1         CALL X9ST$STOP_RUN;
      473      602    1       ALTRETURN;
      474      603        %EJECT;
PL6.E3A0      #002=X8ER$SUBCHECK File=X8ER.:X8A6TSI                              SAT 08/09/97 10:50 Page:96
      475      604        /*F*
      476      605             NAME: X8ER$OCCURS_CHECK
      477      606          PURPOSE: To provide the code generator with a facility to issue
      478      607                   runtime diagnostics for occurs depending check.
      479      608        */
      480      609
      481      610        /*---------------*/
      482      611    1   X8ER$OCCURS_CHECK:     ENTRY  ALTRET;
      483      612        /*---------------*/
      484      613
      485      614    1       CALL X8ER$ERROR( %OCCURS_CHECK );
      486      615    1       CALL X9DB$DELTA;
      487      616    1       LIBCOM.ERROR_FLAG = %TRUE;                  /*#29978*/
      488      617    1       IF LIBCOM.CONTINUE THEN
      489      618    2         DO;
      490      619    2           BLANK = ' ';
      491      620    2           CALL X9ER$PRINT_ERROR( BLANK );
      492      621    2           RETURN;
      493      622    2         END;
      494      623    1       ELSE
      495      624    1         CALL X9ST$STOP_RUN;
      496      625    1       ALTRETURN;
      497      626
      498      627        %EJECT;
PL6.E3A0      #002=X8ER$SUBCHECK File=X8ER.:X8A6TSI                              SAT 08/09/97 10:50 Page:97
      499      628        /*F*
      500      629             NAME: X8ER$CALL_ERROR
      501      630          PURPOSE: To provide the generated code with a facility to issue
      502      631                   runtime diagnostics for CALL errors when no ON OVERFLOW/
      503      632                   EXCEPTION clause is specified.
      504      633        */
      505      634
      506      635        /*-------------*/
      507      636    1   X8ER$CALL_ERROR:       ENTRY  ALTRET;
      508      637        /*-------------*/
      509      638
      510      639    1       CALL X8ER$ERROR ( %IPC_INVALID_PROC_CALL );
      511      640    1       CALL X8ER$ERROR ( %RUNTIME_ABORT );
      512      641    1       LIBCOM.ERROR_FLAG = %TRUE;                  /*#29978*/
      513      642    1       CALL X9ST$STOP_RUN;
      514      643    1       RETURN;
      515      644
      516      645
      517      646
      518      647
      519      648    1   END X8ER$SUBCHECK;
      520      649        %EJECT;
PL6.E3A0      #002=X8ER$SUBCHECK File=X8ER.:X8A6TSI                              SAT 08/09/97 10:50 Page:98

PL6.E3A0      #002=X8ER$SUBCHECK File=X8ER.:X8A6TSI                              SAT 08/09/97 10:50 Page:99
--  Include file information  --

   X8A_COM_MACS.:X8A6TOU  is referenced.
   X8A_MACROS.:X8A6TOU  is referenced.
   X8A_LIBCOM.:X8A6TOU  cannot be made into a system file and is referenced.
   X8A_ERRCOM.:X8A6TOU  cannot be made into a system file and is referenced.
      No diagnostics issued in procedure X8ER$SUBCHECK.

   Procedure X8ER$SUBCHECK requires 70 words for executable code.
   Procedure X8ER$SUBCHECK requires 82 words of local(AUTO) storage.

    No errors detected in file X8ER.:X8A6TSI    .

PL6.E3A0      #002=X8ER$SUBCHECK File=X8ER.:X8A6TSI                              SAT 08/09/97 10:50 Page:100

 Object Unit name= X8ER$SUBCHECK                              File name= X8ER.:X8A6TOU
 UTS= AUG 09 '97 10:50:49.32 SAT                              Compiler= PL-6/E31         Sev=      00
 SharedLib= :SHARED_SYSTEM                                    Alt SharedLib=


    ****  Control sections  ****

 Sect   Type Bound  Init  Size OctSiz  Section name(segment info)
    0  LblCom even  none    20     24  LIBCOM
    1  LblCom even  none     1      1  DEC_OR_COMMA
    2  LblCom even  none    20     24  IN_TEMP
    3  LblCom even  none     1      1  OVRCHR
    4  LblCom even  none     1      1  SELECT_TIME
    5  LblCom even  none     1      1  NO_ADVANCE_OFFSET
    6  LblCom even  none    18     22  DSPLY_SAVE
    7  LblCom even  none     3      3  D_DATE
    8  LblCom even  none     3      3  D_TIME
    9  LblCom even  none     1      1  D_DAY
   10  LblCom even  none     2      2  C_DATE
   11  LblCom even  none     2      2  C_TIME
   12  LblCom even  none     2      2  C_DAY
   13  LblCom even  none     1      1  RTHOLD2
   14  LblCom even  none     1      1  LTHOLD2
   15  LblCom even  none     1      1  NDX2
   16  LblCom even  none     1      1  IN_LEN
   17   Proc  even  none    70    106  X8ER$SUBCHECK
   18  RoData even  none    11     13  X8ER$SUBCHECK

    ****  Entry defs  ****

                              Check   Calling
                             calling  sequence
  Sect OctLoc Primary Altret sequence   type   Parms  Name
    17      0   yes    yes     yes      Std        0  X8ER$SUBCHECK
    17     33          yes     yes      Std        0  X8ER$OCCURS_CHECK
    17     66          yes     yes      Std        0  X8ER$CALL_ERROR
PL6.E3A0      #002=X8ER$SUBCHECK File=X8ER.:X8A6TSI                              SAT 08/09/97 10:50 Page:101

  ****  Entry refs  ****

         Check        Calling
        calling       sequence
Altret sequence SRef   type   Args  Name
         yes           Std       3 X8ER$ERROR
         yes           Std       0 X9DB$DELTA
         yes           Std       0 X9ST$STOP_RUN
         yes           Std       1 X9ER$PRINT_ERROR
                       nStd      0 X66_AUTO_0
                       nStd      0 X66_ARET
                       nStd      0 X66_AALT

  ****  Segment refs  ****

  Flags:  r = read only, s = secondary
Flgs Name                             Flgs Name                             Flgs Name
     ISSID
PL6.E3A0      #002=X8ER$SUBCHECK File=X8ER.:X8A6TSI                              SAT 08/09/97 10:50 Page:102


      435        1        /*M* X8ER$SUBCHECK  --  issue subscript error message               */
      436        2        /*T***********************************************************/
      437        3        /*T*                                                         */
      438        4        /*T* Copyright (c) Bull HN Information Systems Inc., 1997    */
      439        5        /*T*                                                         */
      440        6        /*T***********************************************************/
      441        7
      442        8        /*F*
      443        9             NAME: X8ER$SUBCHECK
      444       10          PURPOSE: To provide a facility for the generated code to issue
      445       11                   runtime diagnostics for subscript errors.
      446       12        */
      447       13
      448       14        /*-----------*/
      449       15        X8ER$SUBCHECK:         PROC  ALTRET;

     15 17 000000   000000 700200 xent  X8ER$SUBCHE* TSX0  ! X66_AUTO_0
        17 000001   000122 000000                    ZERO    82,0

      450       16        /*-----------*/
      451       17
      452       18            %INCLUDE X8A_ERRCOM;
      453      107            %INCLUDE X8A_LIBCOM;
      454      327            %INCLUDE X8A_MACROS;
      455      584        %EJECT;
PL6.E3A0      #002=X8ER$SUBCHECK File=X8ER.:X8A6TSI                              SAT 08/09/97 10:50 Page:103
      456      585    1       DCL BLANK         CHAR(80);
      457      586    1       DCL X8ER$ERROR        ENTRY(3);
      458      587    1       DCL X9ST$STOP_RUN     ENTRY;
      459      588    1       DCL X9DB$DELTA        ENTRY;
      460      589    1       DCL X9ER$PRINT_ERROR  ENTRY(1);
      461      590
      462      591    1       CALL X8ER$ERROR ( %SUBCHECK );

    591 17 000002   000002 630400 18                 EPPR0   2
        17 000003   000000 631400 18                 EPPR1   0
        17 000004   000000 701000 xent               TSX1    X8ER$ERROR
        17 000005   000000 011000                    NOP     0

      463      592    1       CALL X9DB$DELTA;

    592 17 000006   000003 631400 18                 EPPR1   3
        17 000007   000000 701000 xent               TSX1    X9DB$DELTA
        17 000010   000000 011000                    NOP     0

      464      593    1       LIBCOM.ERROR_FLAG = %TRUE;                  /*#29978*/

    593 17 000011   400000 236003                    LDQ     -131072,DU
        17 000012   000015 756000 0                  STQ     LIBCOM+13

      465      594    1       IF LIBCOM.CONTINUE THEN

    594 17 000013   000001 234000 0                  SZN     LIBCOM+1
        17 000014   000027 605000 17                 TPL     s:601

      466      595    2         DO;

      467      596    2           BLANK = ' ';

    596 17 000015   040100 100400                    MLR     fill='040'O
        17 000016   000004 000001 18                 ADSC9   4                        cn=0,n=1
        17 000017   200074 000120                    ADSC9   BLANK,,AUTO              cn=0,n=80

PL6.E3A0      #002=X8ER$SUBCHECK File=X8ER.:X8A6TSI                              SAT 08/09/97 10:50 Page:104
      468      597    2           CALL X9ER$PRINT_ERROR( BLANK );

    597 17 000020   200074 630500                    EPPR0   BLANK,,AUTO
        17 000021   200120 450500                    STP0    BLANK+20,,AUTO
        17 000022   200120 630500                    EPPR0   BLANK+20,,AUTO
        17 000023   000000 631400 18                 EPPR1   0
        17 000024   000000 701000 xent               TSX1    X9ER$PRINT_ERROR
        17 000025   000000 011000                    NOP     0

      469      598    2           RETURN;

    598 17 000026   000000 702200 xent               TSX2  ! X66_ARET

      470      599    2         END;
      471      600    1       ELSE
      472      601    1         CALL X9ST$STOP_RUN;

    601 17 000027   000003 631400 18                 EPPR1   3
        17 000030   000000 701000 xent               TSX1    X9ST$STOP_RUN
        17 000031   000000 011000                    NOP     0

      473      602    1       ALTRETURN;

    602 17 000032   000000 702200 xent               TSX2  ! X66_AALT

      474      603        %EJECT;
PL6.E3A0      #002=X8ER$SUBCHECK File=X8ER.:X8A6TSI                              SAT 08/09/97 10:50 Page:105
      475      604        /*F*
      476      605             NAME: X8ER$OCCURS_CHECK
      477      606          PURPOSE: To provide the code generator with a facility to issue
      478      607                   runtime diagnostics for occurs depending check.
      479      608        */
      480      609
      481      610        /*---------------*/
      482      611    1   X8ER$OCCURS_CHECK:     ENTRY  ALTRET;

    611 17 000033   000000 700200 xent  X8ER$OCCURS* TSX0  ! X66_AUTO_0
        17 000034   000122 000000                    ZERO    82,0

      483      612        /*---------------*/
      484      613
      485      614    1       CALL X8ER$ERROR( %OCCURS_CHECK );

    614 17 000035   000006 630400 18                 EPPR0   6
        17 000036   000000 631400 18                 EPPR1   0
        17 000037   000000 701000 xent               TSX1    X8ER$ERROR
        17 000040   000000 011000                    NOP     0

      486      615    1       CALL X9DB$DELTA;

    615 17 000041   000003 631400 18                 EPPR1   3
        17 000042   000000 701000 xent               TSX1    X9DB$DELTA
        17 000043   000000 011000                    NOP     0

      487      616    1       LIBCOM.ERROR_FLAG = %TRUE;                  /*#29978*/

    616 17 000044   400000 236003                    LDQ     -131072,DU
        17 000045   000015 756000 0                  STQ     LIBCOM+13

      488      617    1       IF LIBCOM.CONTINUE THEN

    617 17 000046   000001 234000 0                  SZN     LIBCOM+1
        17 000047   000062 605000 17                 TPL     s:624

PL6.E3A0      #002=X8ER$SUBCHECK File=X8ER.:X8A6TSI                              SAT 08/09/97 10:50 Page:106
      489      618    2         DO;

      490      619    2           BLANK = ' ';

    619 17 000050   040100 100400                    MLR     fill='040'O
        17 000051   000004 000001 18                 ADSC9   4                        cn=0,n=1
        17 000052   200074 000120                    ADSC9   BLANK,,AUTO              cn=0,n=80

      491      620    2           CALL X9ER$PRINT_ERROR( BLANK );

    620 17 000053   200074 630500                    EPPR0   BLANK,,AUTO
        17 000054   200120 450500                    STP0    BLANK+20,,AUTO
        17 000055   200120 630500                    EPPR0   BLANK+20,,AUTO
        17 000056   000000 631400 18                 EPPR1   0
        17 000057   000000 701000 xent               TSX1    X9ER$PRINT_ERROR
        17 000060   000000 011000                    NOP     0

      492      621    2           RETURN;

    621 17 000061   000000 702200 xent               TSX2  ! X66_ARET

      493      622    2         END;
      494      623    1       ELSE
      495      624    1         CALL X9ST$STOP_RUN;

    624 17 000062   000003 631400 18                 EPPR1   3
        17 000063   000000 701000 xent               TSX1    X9ST$STOP_RUN
        17 000064   000000 011000                    NOP     0

      496      625    1       ALTRETURN;

    625 17 000065   000000 702200 xent               TSX2  ! X66_AALT

      497      626
      498      627        %EJECT;
PL6.E3A0      #002=X8ER$SUBCHECK File=X8ER.:X8A6TSI                              SAT 08/09/97 10:50 Page:107
      499      628        /*F*
      500      629             NAME: X8ER$CALL_ERROR
      501      630          PURPOSE: To provide the generated code with a facility to issue
      502      631                   runtime diagnostics for CALL errors when no ON OVERFLOW/
      503      632                   EXCEPTION clause is specified.
      504      633        */
      505      634
      506      635        /*-------------*/
      507      636    1   X8ER$CALL_ERROR:       ENTRY  ALTRET;

    636 17 000066   000000 700200 xent  X8ER$CALL_E* TSX0  ! X66_AUTO_0
        17 000067   000122 000000                    ZERO    82,0

      508      637        /*-------------*/
      509      638
      510      639    1       CALL X8ER$ERROR ( %IPC_INVALID_PROC_CALL );

    639 17 000070   000010 630400 18                 EPPR0   8
        17 000071   000000 631400 18                 EPPR1   0
        17 000072   000000 701000 xent               TSX1    X8ER$ERROR
        17 000073   000000 011000                    NOP     0

      511      640    1       CALL X8ER$ERROR ( %RUNTIME_ABORT );

    640 17 000074   000012 630400 18                 EPPR0   10
        17 000075   000000 631400 18                 EPPR1   0
        17 000076   000000 701000 xent               TSX1    X8ER$ERROR
        17 000077   000000 011000                    NOP     0

      512      641    1       LIBCOM.ERROR_FLAG = %TRUE;                  /*#29978*/

    641 17 000100   400000 236003                    LDQ     -131072,DU
        17 000101   000015 756000 0                  STQ     LIBCOM+13

      513      642    1       CALL X9ST$STOP_RUN;

    642 17 000102   000003 631400 18                 EPPR1   3
PL6.E3A0      #002=X8ER$SUBCHECK File=X8ER.:X8A6TSI                              SAT 08/09/97 10:50 Page:108
        17 000103   000000 701000 xent               TSX1    X9ST$STOP_RUN
        17 000104   000000 011000                    NOP     0

      514      643    1       RETURN;

    643 17 000105   000000 702200 xent               TSX2  ! X66_ARET
      515      644
      516      645
      517      646
      518      647
      519      648    1   END X8ER$SUBCHECK;
      520      649        %EJECT;
PL6.E3A0      #002=X8ER$SUBCHECK File=X8ER.:X8A6TSI                              SAT 08/09/97 10:50 Page:109

PL6.E3A0      #002=X8ER$SUBCHECK File=X8ER.:X8A6TSI                              SAT 08/09/97 10:50 Page:110
--  Include file information  --

   X8A_COM_MACS.:X8A6TOU  is referenced.
   X8A_MACROS.:X8A6TOU  is referenced.
   X8A_LIBCOM.:X8A6TOU  cannot be made into a system file and is referenced.
   X8A_ERRCOM.:X8A6TOU  cannot be made into a system file and is referenced.
      No diagnostics issued in procedure X8ER$SUBCHECK.
PL6.E3A0      #002=X8ER$SUBCHECK File=X8ER.:X8A6TSI                              SAT 08/09/97 10:50 Page:111

 **** Variables and constants ****

  ****  Section 000 LblCom LIBCOM

  ****  Scalars and arrays  ****
OctLoc.c.b A Datatyp(siz) R M Lvl/name                 OctLoc.c.b A Datatyp(siz) R M Lvl/name

     0-0-0/w STRC(720)   r     1 LIBCOM

  ****  Section 001 LblCom DEC_OR_COMMA

  ****  Scalars and arrays  ****
OctLoc.c.b A Datatyp(siz) R M Lvl/name                 OctLoc.c.b A Datatyp(siz) R M Lvl/name

     0-0-0/c CHAR              1 DEC_OR_COMMA

  ****  Section 002 LblCom IN_TEMP

  ****  Scalars and arrays  ****
OctLoc.c.b A Datatyp(siz) R M Lvl/name                 OctLoc.c.b A Datatyp(siz) R M Lvl/name

     0-0-0/c CHAR(80)          1 IN_TEMP

  ****  Section 003 LblCom OVRCHR

  ****  Scalars and arrays  ****
OctLoc.c.b A Datatyp(siz) R M Lvl/name                 OctLoc.c.b A Datatyp(siz) R M Lvl/name

     0-0-0/c CHAR              1 OVRCHR

  ****  Section 004 LblCom SELECT_TIME

  ****  Scalars and arrays  ****
OctLoc.c.b A Datatyp(siz) R M Lvl/name                 OctLoc.c.b A Datatyp(siz) R M Lvl/name

     0-0-0/w UBIN              1 SELECT_TIME

PL6.E3A0      #002=X8ER$SUBCHECK File=X8ER.:X8A6TSI                              SAT 08/09/97 10:50 Page:112
  ****  Section 005 LblCom NO_ADVANCE_OFFSET

  ****  Scalars and arrays  ****
OctLoc.c.b A Datatyp(siz) R M Lvl/name                 OctLoc.c.b A Datatyp(siz) R M Lvl/name

     0-0-0/w UBIN              1 NO_ADVANCE_OFFSET

  ****  Section 006 LblCom DSPLY_SAVE

  ****  Scalars and arrays  ****
OctLoc.c.b A Datatyp(siz) R M Lvl/name                 OctLoc.c.b A Datatyp(siz) R M Lvl/name

     0-0-0/c CHAR(72)          1 DSPLY_SAVE

  ****  Section 007 LblCom D_DATE

  ****  Scalars and arrays  ****
OctLoc.c.b A Datatyp(siz) R M Lvl/name                 OctLoc.c.b A Datatyp(siz) R M Lvl/name

     0-0-0/c CHAR(10)          1 D_DATE

  ****  Section 008 LblCom D_TIME

  ****  Scalars and arrays  ****
OctLoc.c.b A Datatyp(siz) R M Lvl/name                 OctLoc.c.b A Datatyp(siz) R M Lvl/name

     0-0-0/c CHAR(11)          1 D_TIME

  ****  Section 009 LblCom D_DAY

  ****  Scalars and arrays  ****
OctLoc.c.b A Datatyp(siz) R M Lvl/name                 OctLoc.c.b A Datatyp(siz) R M Lvl/name

     0-0-0/c CHAR(3)           1 D_DAY

  ****  Section 010 LblCom C_DATE

PL6.E3A0      #002=X8ER$SUBCHECK File=X8ER.:X8A6TSI                              SAT 08/09/97 10:50 Page:113
  ****  Scalars and arrays  ****
OctLoc.c.b A Datatyp(siz) R M Lvl/name                 OctLoc.c.b A Datatyp(siz) R M Lvl/name

     0-0-0/c CHAR(6)           1 C_DATE

  ****  Section 011 LblCom C_TIME

  ****  Scalars and arrays  ****
OctLoc.c.b A Datatyp(siz) R M Lvl/name                 OctLoc.c.b A Datatyp(siz) R M Lvl/name

     0-0-0/c CHAR(8)           1 C_TIME

  ****  Section 012 LblCom C_DAY

  ****  Scalars and arrays  ****
OctLoc.c.b A Datatyp(siz) R M Lvl/name                 OctLoc.c.b A Datatyp(siz) R M Lvl/name

     0-0-0/c CHAR(5)           1 C_DAY

  ****  Section 013 LblCom RTHOLD2

  ****  Scalars and arrays  ****
OctLoc.c.b A Datatyp(siz) R M Lvl/name                 OctLoc.c.b A Datatyp(siz) R M Lvl/name

     0-0-0/w UBIN              1 RTHOLD2

  ****  Section 014 LblCom LTHOLD2

  ****  Scalars and arrays  ****
OctLoc.c.b A Datatyp(siz) R M Lvl/name                 OctLoc.c.b A Datatyp(siz) R M Lvl/name

     0-0-0/w UBIN              1 LTHOLD2

  ****  Section 015 LblCom NDX2

  ****  Scalars and arrays  ****
OctLoc.c.b A Datatyp(siz) R M Lvl/name                 OctLoc.c.b A Datatyp(siz) R M Lvl/name
PL6.E3A0      #002=X8ER$SUBCHECK File=X8ER.:X8A6TSI                              SAT 08/09/97 10:50 Page:114

     0-0-0/w SBIN              1 NDX2

  ****  Section 016 LblCom IN_LEN

  ****  Scalars and arrays  ****
OctLoc.c.b A Datatyp(siz) R M Lvl/name                 OctLoc.c.b A Datatyp(siz) R M Lvl/name

     0-0-0/w UBIN              1 IN_LEN

  ****  Auto variables  ****

  ****  Scalars and arrays  ****
OctLoc.c.b A Datatyp(siz) R M Lvl/name                 OctLoc.c.b A Datatyp(siz) R M Lvl/name

    74-0-0/c CHAR(80)    r     1 BLANK                     27-0-0/w SBIN              1 LT
    30-0-0/c CHAR(65)          1 LTHOLD                    72-0-0/w SBIN              1 NDX
    73-0-0/w SBIN              1 NDX3                      51-0-0/c CHAR(65)          1 RTHOLD
     3-0-0/c CHAR(80)          1 SPECIAL_ERR_MSG


   Procedure X8ER$SUBCHECK requires 70 words for executable code.
   Procedure X8ER$SUBCHECK requires 82 words of local(AUTO) storage.

    No errors detected in file X8ER.:X8A6TSI    .
