VERSION A06

PL6.E3A0      #001=X8OB$OPTION_BITS File=X8OB.:X8A6TSI                           SAT 08/09/97 10:49 Page:1
        1        1        /*M* X8OB$OPTION_BITS -- SET OPTION BITS                                    */
        2        2        /*T***********************************************************/
        3        3        /*T*                                                         */
        4        4        /*T* Copyright (c) Bull HN Information Systems Inc., 1997    */
        5        5        /*T*                                                         */
        6        6        /*T***********************************************************/
        7        7        %INCLUDE Z9A_FLAGS;
        8       21        X8OB$OPTION_BITS:  PROC (OPTION_BITS)
        9       22                           %IF GCOS ;
       11       24                           %ENDIF ;
       12       25                           ;
       13       26
       14       27        /*P*
       15       28
       16       29              NAME: X8OB$OPTION_BITS
       17       30           PURPOSE: To set the option bits according to the parameter
       18       31                    passed in.
       19       32
       20       33        */
       21       34        /*D*
       22       35
       23       36              NAME: X8OB$OPTION_BITS
       24       37              CALL:        ...
       25       38                            LDX1    0,0
       26       39                            SXL1    OPTION
       27       40                           ...
       28       41                            EPPR1   OPTION
       29       42                            STP1    X
       30       43                            EPPR1   PONE
       31       44                            EPPR0   X
       32       45                            TSX1    X8OB
       33       46                           ...
       34       47                    PONE    VFD     18/1,18/0
       35       48                    OPTION  OCT     0
       36       49                           ...
       37       50         INTERFACE: None
       38       51             INPUT: None
PL6.E3A0      #001=X8OB$OPTION_BITS File=X8OB.:X8A6TSI                           SAT 08/09/97 10:49 Page:2
       39       52            OUTPUT: None
       40       53           SCRATCH: None
       41       54         REFERENCE: X8LC$DOCUMENT
       42       55
       43       56        */
       44       57
       45       58            %INCLUDE X8A_LIBCOM ;
       46      278            %INCLUDE Z8A_NOP_OPTS;
       47      301
       48      302    1       DCL OPTION_BITS    UBIN WORD;
       49      303
       50      304    1       DCL X9FT$START_TIME       ENTRY;
       51      305
       52      306        /*V*
       53      307                               SET_OPTION
       54      308                 These statements set the appropriate option according
       55      309                 to the OPTION_BITS that are set.  They will be set one
       56      310                 way or the other every time.
       57      311                   The bits thus far are:
       58      312
       59      313                     Bit 17 - COBOL - 80 semantics
       60      314                     Bit 16 - CONTINUE option on
       61      315
       62      316
       63      317        */
       64      318    1     LIBCOM.COBOL_74      = ADDR(OPTION_BITS)-> NOP.COBOL_74;
       65      319    1     LIBCOM.STATS         = ADDR(OPTION_BITS)-> NOP.STATS;
       66      320    1     LIBCOM.CONTINUE      = ADDR(OPTION_BITS)-> NOP.CONTINUE;
       67      321    1     LIBCOM.COMMA_DECIMAL = ADDR(OPTION_BITS)-> NOP.COMMA_DECIMAL;
       68      322    1     LIBCOM.KANJI         = ADDR(OPTION_BITS)-> NOP.KANJI;
       69      323    1     LIBCOM.EXIT_PROG_IN_DECL = ADDR(OPTION_BITS)-> NOP.EXIT_PROG_IN_DECL;
       70      324    1     LIBCOM.SAVE = %FALSE ;
       71      325    1     LIBCOM.KEEP = %FALSE ;
       72      326    1     LIBCOM.ERROR_FLAG = %FALSE;                  /*#29978*/
       73      327    1     LIBCOM.PREVIOUS_NO_ADVANCE = %FALSE ;
       74      328    1     LIBCOM.FIRST_ACCT_CALL = %TRUE ;
       75      329    1     LIBCOM.M_LO_ASSIGNED = %FALSE;
PL6.E3A0      #001=X8OB$OPTION_BITS File=X8OB.:X8A6TSI                           SAT 08/09/97 10:49 Page:3
       76      330    1     NO_ADVANCE_OFFSET = 0 ;
       77      331
       78      332    1      IF LIBCOM.COMMA_DECIMAL THEN
       79      333    1        DEC_OR_COMMA = ',';
       80      334    1      ELSE
       81      335    1        DEC_OR_COMMA = '.';
       82      336    1      IF LIBCOM.STATS THEN
       83      337    1        CALL X9FT$START_TIME;
       84      338    1   END X8OB$OPTION_BITS ;   /*  END PROC  */
       85      339        %EJECT;
PL6.E3A0      #001=X8OB$OPTION_BITS File=X8OB.:X8A6TSI                           SAT 08/09/97 10:49 Page:4

PL6.E3A0      #001=X8OB$OPTION_BITS File=X8OB.:X8A6TSI                           SAT 08/09/97 10:49 Page:5
--  Include file information  --

   Z8A_NOP_OPTS.:Z8A6TOU  cannot be made into a system file and is referenced.
   X8A_LIBCOM.:X8A6TOU  cannot be made into a system file and is referenced.
   Z9A_FLAGS.:Z8A6TOU  is referenced.
      No diagnostics issued in procedure X8OB$OPTION_BITS.

   Procedure X8OB$OPTION_BITS requires 48 words for executable code.
   Procedure X8OB$OPTION_BITS requires 42 words of local(AUTO) storage.

    No errors detected in file X8OB.:X8A6TSI    .

PL6.E3A0      #001=X8OB$OPTION_BITS File=X8OB.:X8A6TSI                           SAT 08/09/97 10:49 Page:6

 Object Unit name= X8OB$OPTION_BITS                           File name= X8OB.:X8A6TOU
 UTS= AUG 09 '97 10:49:33.76 SAT                              Compiler= PL-6/E31         Sev=      00
 SharedLib= :SHARED_SYSTEM                                    Alt SharedLib=


    ****  Control sections  ****

 Sect   Type Bound  Init  Size OctSiz  Section name(segment info)
    0  LblCom even  none    20     24  LIBCOM
    1  LblCom even  none     1      1  DEC_OR_COMMA
    2  LblCom even  none    20     24  IN_TEMP
    3  LblCom even  none     1      1  OVRCHR
    4  LblCom even  none     1      1  SELECT_TIME
    5  LblCom even  none     1      1  NO_ADVANCE_OFFSET
    6  LblCom even  none    18     22  DSPLY_SAVE
    7  LblCom even  none     3      3  D_DATE
    8  LblCom even  none     3      3  D_TIME
    9  LblCom even  none     1      1  D_DAY
   10  LblCom even  none     2      2  C_DATE
   11  LblCom even  none     2      2  C_TIME
   12  LblCom even  none     2      2  C_DAY
   13  LblCom even  none     1      1  RTHOLD2
   14  LblCom even  none     1      1  LTHOLD2
   15  LblCom even  none     1      1  NDX2
   16  LblCom even  none     1      1  IN_LEN
   17   Proc  even  none    48     60  X8OB$OPTION_BITS
   18  RoData even  none     1      1  X8OB$OPTION_BITS

    ****  Entry defs  ****

                              Check   Calling
                             calling  sequence
  Sect OctLoc Primary Altret sequence   type   Parms  Name
    17      0   yes            yes      Std        1  X8OB$OPTION_BITS
PL6.E3A0      #001=X8OB$OPTION_BITS File=X8OB.:X8A6TSI                           SAT 08/09/97 10:49 Page:7

  ****  Entry refs  ****

         Check        Calling
        calling       sequence
Altret sequence SRef   type   Args  Name
         yes           Std       0 X9FT$START_TIME
                       nStd      0 X66_AUTO_1
                       nStd      0 X66_ARET
PL6.E3A0      #001=X8OB$OPTION_BITS File=X8OB.:X8A6TSI                           SAT 08/09/97 10:49 Page:8


        1        1        /*M* X8OB$OPTION_BITS -- SET OPTION BITS                                    */
        2        2        /*T***********************************************************/
        3        3        /*T*                                                         */
        4        4        /*T* Copyright (c) Bull HN Information Systems Inc., 1997    */
        5        5        /*T*                                                         */
        6        6        /*T***********************************************************/
        7        7        %INCLUDE Z9A_FLAGS;
        8       21        X8OB$OPTION_BITS:  PROC (OPTION_BITS)

     21 17 000000   000000 700200 xent  X8OB$OPTION* TSX0  ! X66_AUTO_1
        17 000001   000052 000001                    ZERO    42,1

        9       22                           %IF GCOS ;
       11       24                           %ENDIF ;
       12       25                           ;
       13       26
       14       27        /*P*
       15       28
       16       29              NAME: X8OB$OPTION_BITS
       17       30           PURPOSE: To set the option bits according to the parameter
       18       31                    passed in.
       19       32
       20       33        */
       21       34        /*D*
       22       35
       23       36              NAME: X8OB$OPTION_BITS
       24       37              CALL:        ...
       25       38                            LDX1    0,0
       26       39                            SXL1    OPTION
       27       40                           ...
       28       41                            EPPR1   OPTION
       29       42                            STP1    X
       30       43                            EPPR1   PONE
       31       44                            EPPR0   X
       32       45                            TSX1    X8OB
       33       46                           ...
PL6.E3A0      #001=X8OB$OPTION_BITS File=X8OB.:X8A6TSI                           SAT 08/09/97 10:49 Page:9
       34       47                    PONE    VFD     18/1,18/0
       35       48                    OPTION  OCT     0
       36       49                           ...
       37       50         INTERFACE: None
       38       51             INPUT: None
       39       52            OUTPUT: None
       40       53           SCRATCH: None
       41       54         REFERENCE: X8LC$DOCUMENT
       42       55
       43       56        */
       44       57
       45       58            %INCLUDE X8A_LIBCOM ;
       46      278            %INCLUDE Z8A_NOP_OPTS;
       47      301
       48      302    1       DCL OPTION_BITS    UBIN WORD;
       49      303
       50      304    1       DCL X9FT$START_TIME       ENTRY;
       51      305
       52      306        /*V*
       53      307                               SET_OPTION
       54      308                 These statements set the appropriate option according
       55      309                 to the OPTION_BITS that are set.  They will be set one
       56      310                 way or the other every time.
       57      311                   The bits thus far are:
       58      312
       59      313                     Bit 17 - COBOL - 80 semantics
       60      314                     Bit 16 - CONTINUE option on
       61      315
       62      316
       63      317        */
       64      318    1     LIBCOM.COBOL_74      = ADDR(OPTION_BITS)-> NOP.COBOL_74;

    318 17 000002   200003 470500                    LDP0    @OPTION_BITS,,AUTO
        17 000003   000000 236100                    LDQ     0,,PR0
        17 000004   000021 736000                    QLS     17
        17 000005   400000 376003                    ANQ     -131072,DU
        17 000006   000000 756000 0                  STQ     LIBCOM
PL6.E3A0      #001=X8OB$OPTION_BITS File=X8OB.:X8A6TSI                           SAT 08/09/97 10:49 Page:10

       65      319    1     LIBCOM.STATS         = ADDR(OPTION_BITS)-> NOP.STATS;

    319 17 000007   000000 236100                    LDQ     0,,PR0
        17 000010   000017 736000                    QLS     15
        17 000011   400000 376003                    ANQ     -131072,DU
        17 000012   000002 756000 0                  STQ     LIBCOM+2

       66      320    1     LIBCOM.CONTINUE      = ADDR(OPTION_BITS)-> NOP.CONTINUE;

    320 17 000013   000000 236100                    LDQ     0,,PR0
        17 000014   000020 736000                    QLS     16
        17 000015   400000 376003                    ANQ     -131072,DU
        17 000016   000001 756000 0                  STQ     LIBCOM+1

       67      321    1     LIBCOM.COMMA_DECIMAL = ADDR(OPTION_BITS)-> NOP.COMMA_DECIMAL;

    321 17 000017   000000 236100                    LDQ     0,,PR0
        17 000020   000016 736000                    QLS     14
        17 000021   400000 376003                    ANQ     -131072,DU
        17 000022   000007 756000 0                  STQ     LIBCOM+7

       68      322    1     LIBCOM.KANJI         = ADDR(OPTION_BITS)-> NOP.KANJI;

    322 17 000023   000000 236100                    LDQ     0,,PR0
        17 000024   000015 736000                    QLS     13
        17 000025   400000 376003                    ANQ     -131072,DU
        17 000026   000021 756000 0                  STQ     LIBCOM+17

       69      323    1     LIBCOM.EXIT_PROG_IN_DECL = ADDR(OPTION_BITS)-> NOP.EXIT_PROG_IN_DECL;

    323 17 000027   000000 236100                    LDQ     0,,PR0
        17 000030   000012 736000                    QLS     10
        17 000031   400000 376003                    ANQ     -131072,DU
        17 000032   000023 756000 0                  STQ     LIBCOM+19

       70      324    1     LIBCOM.SAVE = %FALSE ;
PL6.E3A0      #001=X8OB$OPTION_BITS File=X8OB.:X8A6TSI                           SAT 08/09/97 10:49 Page:11

    324 17 000033   000004 450000 0                  STZ     LIBCOM+4

       71      325    1     LIBCOM.KEEP = %FALSE ;

    325 17 000034   000003 450000 0                  STZ     LIBCOM+3

       72      326    1     LIBCOM.ERROR_FLAG = %FALSE;                  /*#29978*/

    326 17 000035   000015 450000 0                  STZ     LIBCOM+13

       73      327    1     LIBCOM.PREVIOUS_NO_ADVANCE = %FALSE ;

    327 17 000036   000013 450000 0                  STZ     LIBCOM+11

       74      328    1     LIBCOM.FIRST_ACCT_CALL = %TRUE ;

    328 17 000037   400000 236003                    LDQ     -131072,DU
        17 000040   000011 756000 0                  STQ     LIBCOM+9

       75      329    1     LIBCOM.M_LO_ASSIGNED = %FALSE;

    329 17 000041   000012 450000 0                  STZ     LIBCOM+10

       76      330    1     NO_ADVANCE_OFFSET = 0 ;

    330 17 000042   000000 450000 5                  STZ     NO_ADVANCE_OFFSET

       77      331
       78      332    1      IF LIBCOM.COMMA_DECIMAL THEN

    332 17 000043   000007 234000 0                  SZN     LIBCOM+7
        17 000044   000050 605000 17                 TPL     s:335

       79      333    1        DEC_OR_COMMA = ',';

    333 17 000045   054000 236003                    LDQ     22528,DU
PL6.E3A0      #001=X8OB$OPTION_BITS File=X8OB.:X8A6TSI                           SAT 08/09/97 10:49 Page:12
        17 000046   000000 756000 1                  STQ     DEC_OR_COMMA
        17 000047   000052 710000 17                 TRA     s:336

       80      334    1      ELSE
       81      335    1        DEC_OR_COMMA = '.';

    335 17 000050   056000 236003                    LDQ     23552,DU
        17 000051   000000 756000 1                  STQ     DEC_OR_COMMA

       82      336    1      IF LIBCOM.STATS THEN

    336 17 000052   000002 234000 0                  SZN     LIBCOM+2
        17 000053   000057 605000 17                 TPL     s:338

       83      337    1        CALL X9FT$START_TIME;

    337 17 000054   000000 631400 18                 EPPR1   0
        17 000055   000000 701000 xent               TSX1    X9FT$START_TIME
        17 000056   000000 011000                    NOP     0

       84      338    1   END X8OB$OPTION_BITS ;   /*  END PROC  */

    338 17 000057   000000 702200 xent               TSX2  ! X66_ARET
       85      339        %EJECT;
PL6.E3A0      #001=X8OB$OPTION_BITS File=X8OB.:X8A6TSI                           SAT 08/09/97 10:49 Page:13

PL6.E3A0      #001=X8OB$OPTION_BITS File=X8OB.:X8A6TSI                           SAT 08/09/97 10:49 Page:14
--  Include file information  --

   Z8A_NOP_OPTS.:Z8A6TOU  cannot be made into a system file and is referenced.
   X8A_LIBCOM.:X8A6TOU  cannot be made into a system file and is referenced.
   Z9A_FLAGS.:Z8A6TOU  is referenced.
      No diagnostics issued in procedure X8OB$OPTION_BITS.
PL6.E3A0      #001=X8OB$OPTION_BITS File=X8OB.:X8A6TSI                           SAT 08/09/97 10:49 Page:15

 **** Variables and constants ****

  ****  Section 000 LblCom LIBCOM

  ****  Scalars and arrays  ****
OctLoc.c.b A Datatyp(siz) R M Lvl/name                 OctLoc.c.b A Datatyp(siz) R M Lvl/name

     0-0-0/w STRC(720)   r     1 LIBCOM

  ****  Section 001 LblCom DEC_OR_COMMA

  ****  Scalars and arrays  ****
OctLoc.c.b A Datatyp(siz) R M Lvl/name                 OctLoc.c.b A Datatyp(siz) R M Lvl/name

     0-0-0/c CHAR        r     1 DEC_OR_COMMA

  ****  Section 002 LblCom IN_TEMP

  ****  Scalars and arrays  ****
OctLoc.c.b A Datatyp(siz) R M Lvl/name                 OctLoc.c.b A Datatyp(siz) R M Lvl/name

     0-0-0/c CHAR(80)          1 IN_TEMP

  ****  Section 003 LblCom OVRCHR

  ****  Scalars and arrays  ****
OctLoc.c.b A Datatyp(siz) R M Lvl/name                 OctLoc.c.b A Datatyp(siz) R M Lvl/name

     0-0-0/c CHAR              1 OVRCHR

  ****  Section 004 LblCom SELECT_TIME

  ****  Scalars and arrays  ****
OctLoc.c.b A Datatyp(siz) R M Lvl/name                 OctLoc.c.b A Datatyp(siz) R M Lvl/name

     0-0-0/w UBIN              1 SELECT_TIME

PL6.E3A0      #001=X8OB$OPTION_BITS File=X8OB.:X8A6TSI                           SAT 08/09/97 10:49 Page:16
  ****  Section 005 LblCom NO_ADVANCE_OFFSET

  ****  Scalars and arrays  ****
OctLoc.c.b A Datatyp(siz) R M Lvl/name                 OctLoc.c.b A Datatyp(siz) R M Lvl/name

     0-0-0/w UBIN        r     1 NO_ADVANCE_OFFSET

  ****  Section 006 LblCom DSPLY_SAVE

  ****  Scalars and arrays  ****
OctLoc.c.b A Datatyp(siz) R M Lvl/name                 OctLoc.c.b A Datatyp(siz) R M Lvl/name

     0-0-0/c CHAR(72)          1 DSPLY_SAVE

  ****  Section 007 LblCom D_DATE

  ****  Scalars and arrays  ****
OctLoc.c.b A Datatyp(siz) R M Lvl/name                 OctLoc.c.b A Datatyp(siz) R M Lvl/name

     0-0-0/c CHAR(10)          1 D_DATE

  ****  Section 008 LblCom D_TIME

  ****  Scalars and arrays  ****
OctLoc.c.b A Datatyp(siz) R M Lvl/name                 OctLoc.c.b A Datatyp(siz) R M Lvl/name

     0-0-0/c CHAR(11)          1 D_TIME

  ****  Section 009 LblCom D_DAY

  ****  Scalars and arrays  ****
OctLoc.c.b A Datatyp(siz) R M Lvl/name                 OctLoc.c.b A Datatyp(siz) R M Lvl/name

     0-0-0/c CHAR(3)           1 D_DAY

  ****  Section 010 LblCom C_DATE

PL6.E3A0      #001=X8OB$OPTION_BITS File=X8OB.:X8A6TSI                           SAT 08/09/97 10:49 Page:17
  ****  Scalars and arrays  ****
OctLoc.c.b A Datatyp(siz) R M Lvl/name                 OctLoc.c.b A Datatyp(siz) R M Lvl/name

     0-0-0/c CHAR(6)           1 C_DATE

  ****  Section 011 LblCom C_TIME

  ****  Scalars and arrays  ****
OctLoc.c.b A Datatyp(siz) R M Lvl/name                 OctLoc.c.b A Datatyp(siz) R M Lvl/name

     0-0-0/c CHAR(8)           1 C_TIME

  ****  Section 012 LblCom C_DAY

  ****  Scalars and arrays  ****
OctLoc.c.b A Datatyp(siz) R M Lvl/name                 OctLoc.c.b A Datatyp(siz) R M Lvl/name

     0-0-0/c CHAR(5)           1 C_DAY

  ****  Section 013 LblCom RTHOLD2

  ****  Scalars and arrays  ****
OctLoc.c.b A Datatyp(siz) R M Lvl/name                 OctLoc.c.b A Datatyp(siz) R M Lvl/name

     0-0-0/w UBIN              1 RTHOLD2

  ****  Section 014 LblCom LTHOLD2

  ****  Scalars and arrays  ****
OctLoc.c.b A Datatyp(siz) R M Lvl/name                 OctLoc.c.b A Datatyp(siz) R M Lvl/name

     0-0-0/w UBIN              1 LTHOLD2

  ****  Section 015 LblCom NDX2

  ****  Scalars and arrays  ****
OctLoc.c.b A Datatyp(siz) R M Lvl/name                 OctLoc.c.b A Datatyp(siz) R M Lvl/name
PL6.E3A0      #001=X8OB$OPTION_BITS File=X8OB.:X8A6TSI                           SAT 08/09/97 10:49 Page:18

     0-0-0/w SBIN              1 NDX2

  ****  Section 016 LblCom IN_LEN

  ****  Scalars and arrays  ****
OctLoc.c.b A Datatyp(siz) R M Lvl/name                 OctLoc.c.b A Datatyp(siz) R M Lvl/name

     0-0-0/w UBIN              1 IN_LEN

  ****  Auto variables  ****

  ****  Scalars and arrays  ****
OctLoc.c.b A Datatyp(siz) R M Lvl/name                 OctLoc.c.b A Datatyp(siz) R M Lvl/name

     3-0-0/w PTR         r     1 @OPTION_BITS               4-0-0/w SBIN              1 LT
     5-0-0/c CHAR(65)          1 LTHOLD                    47-0-0/w SBIN              1 NDX
    50-0-0/w SBIN              1 NDX3                      *0-0-0/w UBIN        r     1 OPTION_BITS
    26-0-0/c CHAR(65)          1 RTHOLD

  ****  BASED and DCB variables  ****

  ****  Scalars and arrays  ****
OctLoc.c.b A Datatyp(siz) R M Lvl/name                 OctLoc.c.b A Datatyp(siz) R M Lvl/name

     0-0-0/w STRC        r     1 NOP


   Procedure X8OB$OPTION_BITS requires 48 words for executable code.
   Procedure X8OB$OPTION_BITS requires 42 words of local(AUTO) storage.

    No errors detected in file X8OB.:X8A6TSI    .
