VERSION A06

PL6.E3A0      #001=X8PK$PACMAN File=X8PK.:X8A6TSI                                SAT 08/09/97 10:50 Page:1
        1        1        /*M* X8PK$PACMAN  -- Peforms the move for the accept statement. */
        2        2        /*T***********************************************************/
        3        3        /*T*                                                         */
        4        4        /*T* Copyright (c) Bull HN Information Systems Inc., 1997    */
        5        5        /*T*                                                         */
        6        6        /*T***********************************************************/
        7        7        /*P*
        8        8             NAME: X8PK$PACMAN
        9        9          PURPOSE: Supports the Cobol 85 style accept statement by performing
       10       10                   the move of the input data into the receiving field.
       11       11        */
       12       12
       13       13        X8PK$PACMAN: PROC( REC_DESC, SEND_FLD, REC$ );
       14       14
       15       15            %INCLUDE X8A_LIBCOM;
       16      235            %INCLUDE X8A_MACROS;
       17      492            %INCLUDE X9A_MACROS;
       18      523            %INCLUDE X9A_TYPES;
       19     4072
       20     4073    1       DCL 1 SEND_DESC                  ALIGNED,
       21     4074                %DESCRIPTOR( ENDING = YES );
       22     4102    1       DCL 1 REC_DESC_EIS               ALIGNED,
       23     4103                %DESCRIPTOR( ENDING = YES );
       24     4131    1       DCL SEND_FLD                     CHAR(63);
       25     4132    1       DCL REC_FLD                      CHAR( REC_DESC.D_WORD.DES_W.NDSC.N ) BASED(
              4132                REC$ );
       26     4133    1       DCL REC$                         PTR;
       27     4134    1       DCL 1 REC_DESC                   ALIGNED,
       28     4135                %DCL_RT_DESC;
       29     4157    1       DCL ARG$                         PTR;
       30     4158    1       DCL SIGN_TYPE                    BIT(2);
       31     4159    1       DCL LENGTH                       UBIN(12);
       32     4160
       33     4161    1       DCL X9MV                         ENTRY(4);
       34     4162        %EJECT;
PL6.E3A0      #001=X8PK$PACMAN File=X8PK.:X8A6TSI                                SAT 08/09/97 10:50 Page:2
       35     4163    2       DO CASE( REC_DESC.D_WORD.DES_W.TYPE );
       36     4164
       37     4165    2         CASE( %PACK_FIXED_LEAD_SIGN, %PACK_FIXED_LEAD_SIGN_EBCDIC );
       38     4166    2           SIGN_TYPE = %LEADING_SIGN;
       39     4167    2           LENGTH    = REC_DESC.D_WORD.DES_W.NDSC.N -1;
       40     4168    2           CALL PACK;
       41     4169
       42     4170    2         CASE( %PACK_FIXED_TRAIL_SIGN, %PACK_FIXED_TRAIL_SIGN_EBCDIC );
       43     4171    2           SIGN_TYPE = %TRAILING_SIGN;
       44     4172    2           LENGTH    = REC_DESC.D_WORD.DES_W.NDSC.N -1;
       45     4173    2           CALL PACK;
       46     4174    2         CASE( %PACK_FLOAT_LEAD_SIGN );
       47     4175    2           SIGN_TYPE = %FLOATING_POINT_LEADING_SIGN;
       48     4176    2           LENGTH    = REC_DESC.D_WORD.DES_W.NDSC.N -1;
       49     4177    2           CALL PACK;
       50     4178
       51     4179    2         CASE( %PACK_FIXED_NO_SIGN );
       52     4180    2           SIGN_TYPE = %NO_SIGN;
       53     4181    2           LENGTH   = REC_DESC.D_WORD.DES_W.NDSC.N;
       54     4182    2           CALL PACK;
       55     4183
       56     4184    2         CASE( ELSE );      /* If other than packed, normal move.  */
       57     4185    2           REC_FLD = SEND_FLD;
       58     4186
       59     4187    2       END;  /* case rec_desc.d_word.type */
       60     4188        %EJECT;
PL6.E3A0      #001=X8PK$PACMAN File=X8PK.:X8A6TSI                                SAT 08/09/97 10:50 Page:3
       61     4189    1    PACK:   PROC;
       62     4190
       63     4191                %PACK_NDSC( @DESC   =  REC_DESC_EIS,
       64     4192                            @SCALE  = "REC_DESC.D_WORD.DES_W.NDSC.SF",
       65     4193                            @LENGTH = LENGTH,
       66     4194                            @SIGN   = SIGN_TYPE );
       67     4243    2           SEND_DESC =  REC_DESC_EIS;
       68     4244    2           SEND_DESC.NDSC.TN = %NDSC9;
       69     4245
       70     4246    2           CALL X9MV( SEND_DESC,  REC_DESC_EIS, ADDR(REC_FLD), ADDR( SEND_FLD ) );
       71     4247    2    END PACK;  /* proc */
       72     4248
       73     4249    1   END X8PK$PACMAN;  /* proc */
       74     4250        %EJECT;
PL6.E3A0      #001=X8PK$PACMAN File=X8PK.:X8A6TSI                                SAT 08/09/97 10:50 Page:4

PL6.E3A0      #001=X8PK$PACMAN File=X8PK.:X8A6TSI                                SAT 08/09/97 10:50 Page:5
--  Include file information  --

   B$OBJECT_C.:LIB_E04  is referenced.
   X9A_TYPES.:X8A6TOU  is referenced.
   X9A_MACROS.:X8A6TOU  is referenced.
   X8A_COM_MACS.:X8A6TOU  is referenced.
   X8A_MACROS.:X8A6TOU  is referenced.
   X8A_LIBCOM.:X8A6TOU  cannot be made into a system file and is referenced.
      No diagnostics issued in procedure X8PK$PACMAN.

   Procedure X8PK$PACMAN requires 160 words for executable code.
   Procedure X8PK$PACMAN requires 56 words of local(AUTO) storage.

    No errors detected in file X8PK.:X8A6TSI    .

PL6.E3A0      #001=X8PK$PACMAN File=X8PK.:X8A6TSI                                SAT 08/09/97 10:50 Page:6

 Object Unit name= X8PK$PACMAN                                File name= X8PK.:X8A6TOU
 UTS= AUG 09 '97 10:50:53.84 SAT                              Compiler= PL-6/E31         Sev=      00
 SharedLib= :SHARED_SYSTEM                                    Alt SharedLib=


    ****  Control sections  ****

 Sect   Type Bound  Init  Size OctSiz  Section name(segment info)
    0  LblCom even  none    20     24  LIBCOM
    1  LblCom even  none     1      1  DEC_OR_COMMA
    2  LblCom even  none    20     24  IN_TEMP
    3  LblCom even  none     1      1  OVRCHR
    4  LblCom even  none     1      1  SELECT_TIME
    5  LblCom even  none     1      1  NO_ADVANCE_OFFSET
    6  LblCom even  none    18     22  DSPLY_SAVE
    7  LblCom even  none     3      3  D_DATE
    8  LblCom even  none     3      3  D_TIME
    9  LblCom even  none     1      1  D_DAY
   10  LblCom even  none     2      2  C_DATE
   11  LblCom even  none     2      2  C_TIME
   12  LblCom even  none     2      2  C_DAY
   13  LblCom even  none     1      1  RTHOLD2
   14  LblCom even  none     1      1  LTHOLD2
   15  LblCom even  none     1      1  NDX2
   16  LblCom even  none     1      1  IN_LEN
   17   Proc  even  none   160    240  X8PK$PACMAN
   18  RoData even  none     3      3  X8PK$PACMAN

    ****  Entry defs  ****

                              Check   Calling
                             calling  sequence
  Sect OctLoc Primary Altret sequence   type   Parms  Name
    17      0   yes            yes      Std        3  X8PK$PACMAN
PL6.E3A0      #001=X8PK$PACMAN File=X8PK.:X8A6TSI                                SAT 08/09/97 10:50 Page:7

  ****  Entry refs  ****

         Check        Calling
        calling       sequence
Altret sequence SRef   type   Args  Name
         yes           Std       4 X9MV
                       nStd      0 X66_AUTO_3
                       nStd      0 X66_ARET
PL6.E3A0      #001=X8PK$PACMAN File=X8PK.:X8A6TSI                                SAT 08/09/97 10:50 Page:8


        1        1        /*M* X8PK$PACMAN  -- Peforms the move for the accept statement. */
        2        2        /*T***********************************************************/
        3        3        /*T*                                                         */
        4        4        /*T* Copyright (c) Bull HN Information Systems Inc., 1997    */
        5        5        /*T*                                                         */
        6        6        /*T***********************************************************/
        7        7        /*P*
        8        8             NAME: X8PK$PACMAN
        9        9          PURPOSE: Supports the Cobol 85 style accept statement by performing
       10       10                   the move of the input data into the receiving field.
       11       11        */
       12       12
       13       13        X8PK$PACMAN: PROC( REC_DESC, SEND_FLD, REC$ );

     13 17 000000   000000 700200 xent  X8PK$PACMAN  TSX0  ! X66_AUTO_3
        17 000001   000070 000003                    ZERO    56,3

       14       14
       15       15            %INCLUDE X8A_LIBCOM;
       16      235            %INCLUDE X8A_MACROS;
       17      492            %INCLUDE X9A_MACROS;
       18      523            %INCLUDE X9A_TYPES;
       19     4072
       20     4073    1       DCL 1 SEND_DESC                  ALIGNED,
       21     4074                %DESCRIPTOR( ENDING = YES );
       22     4102    1       DCL 1 REC_DESC_EIS               ALIGNED,
       23     4103                %DESCRIPTOR( ENDING = YES );
       24     4131    1       DCL SEND_FLD                     CHAR(63);
       25     4132    1       DCL REC_FLD                      CHAR( REC_DESC.D_WORD.DES_W.NDSC.N ) BASED(
              4132                REC$ );
       26     4133    1       DCL REC$                         PTR;
       27     4134    1       DCL 1 REC_DESC                   ALIGNED,
       28     4135                %DCL_RT_DESC;
       29     4157    1       DCL ARG$                         PTR;
       30     4158    1       DCL SIGN_TYPE                    BIT(2);
       31     4159    1       DCL LENGTH                       UBIN(12);
PL6.E3A0      #001=X8PK$PACMAN File=X8PK.:X8A6TSI                                SAT 08/09/97 10:50 Page:9
       32     4160
       33     4161    1       DCL X9MV                         ENTRY(4);
       34     4162        %EJECT;
PL6.E3A0      #001=X8PK$PACMAN File=X8PK.:X8A6TSI                                SAT 08/09/97 10:50 Page:10
       35     4163    2       DO CASE( REC_DESC.D_WORD.DES_W.TYPE );

   4163 17 000002   200003 470500                    LDP0    @REC_DESC,,AUTO
        17 000003   000001 236100                    LDQ     1,,PR0
        17 000004   000022 772000                    QRL     18
        17 000005   000011 136007                    SBLQ    9,DL
        17 000006   000053 116007                    CMPQ    43,DL
        17 000007   000011 602006 17                 TNC     s:4163+7,QL
        17 000010   000132 710000 17                 TRA     s:4185
        17 000011   000064 710000 17                 TRA     s:4166
        17 000012   000110 710000 17                 TRA     s:4175
        17 000013   000132 710000 17                 TRA     s:4185
        17 000014   000132 710000 17                 TRA     s:4185
        17 000015   000132 710000 17                 TRA     s:4185
        17 000016   000132 710000 17                 TRA     s:4185
        17 000017   000132 710000 17                 TRA     s:4185
        17 000020   000132 710000 17                 TRA     s:4185
        17 000021   000132 710000 17                 TRA     s:4185
        17 000022   000132 710000 17                 TRA     s:4185
        17 000023   000132 710000 17                 TRA     s:4185
        17 000024   000132 710000 17                 TRA     s:4185
        17 000025   000132 710000 17                 TRA     s:4185
        17 000026   000132 710000 17                 TRA     s:4185
        17 000027   000132 710000 17                 TRA     s:4185
        17 000030   000132 710000 17                 TRA     s:4185
        17 000031   000076 710000 17                 TRA     s:4171
        17 000032   000132 710000 17                 TRA     s:4185
        17 000033   000132 710000 17                 TRA     s:4185
        17 000034   000132 710000 17                 TRA     s:4185
        17 000035   000132 710000 17                 TRA     s:4185
        17 000036   000132 710000 17                 TRA     s:4185
        17 000037   000076 710000 17                 TRA     s:4171
        17 000040   000132 710000 17                 TRA     s:4185
        17 000041   000132 710000 17                 TRA     s:4185
        17 000042   000132 710000 17                 TRA     s:4185
        17 000043   000132 710000 17                 TRA     s:4185
        17 000044   000132 710000 17                 TRA     s:4185
PL6.E3A0      #001=X8PK$PACMAN File=X8PK.:X8A6TSI                                SAT 08/09/97 10:50 Page:11
        17 000045   000132 710000 17                 TRA     s:4185
        17 000046   000132 710000 17                 TRA     s:4185
        17 000047   000132 710000 17                 TRA     s:4185
        17 000050   000121 710000 17                 TRA     s:4180
        17 000051   000132 710000 17                 TRA     s:4185
        17 000052   000132 710000 17                 TRA     s:4185
        17 000053   000132 710000 17                 TRA     s:4185
        17 000054   000132 710000 17                 TRA     s:4185
        17 000055   000132 710000 17                 TRA     s:4185
        17 000056   000132 710000 17                 TRA     s:4185
        17 000057   000132 710000 17                 TRA     s:4185
        17 000060   000132 710000 17                 TRA     s:4185
        17 000061   000132 710000 17                 TRA     s:4185
        17 000062   000132 710000 17                 TRA     s:4185
        17 000063   000064 710000 17                 TRA     s:4166

       36     4164
       37     4165    2         CASE( %PACK_FIXED_LEAD_SIGN, %PACK_FIXED_LEAD_SIGN_EBCDIC );

       38     4166    2           SIGN_TYPE = %LEADING_SIGN;

   4166 17 000064   200000 236003                    LDQ     65536,DU
        17 000065   200056 756100                    STQ     SIGN_TYPE,,AUTO

       39     4167    2           LENGTH    = REC_DESC.D_WORD.DES_W.NDSC.N -1;

   4167 17 000066   000001 236100                    LDQ     1,,PR0
        17 000067   000077 376007                    ANQ     63,DL
        17 000070   000001 136007                    SBLQ    1,DL
        17 000071   000030 736000                    QLS     24
        17 000072   200057 756100                    STQ     LENGTH,,AUTO

       40     4168    2           CALL PACK;

   4168 17 000073   000143 701000 17                 TSX1    PACK
        17 000074   000000 011000                    NOP     0
        17 000075   000142 710000 17                 TRA     s:4187
PL6.E3A0      #001=X8PK$PACMAN File=X8PK.:X8A6TSI                                SAT 08/09/97 10:50 Page:12

       41     4169
       42     4170    2         CASE( %PACK_FIXED_TRAIL_SIGN, %PACK_FIXED_TRAIL_SIGN_EBCDIC );

       43     4171    2           SIGN_TYPE = %TRAILING_SIGN;

   4171 17 000076   400000 236003                    LDQ     -131072,DU
        17 000077   200056 756100                    STQ     SIGN_TYPE,,AUTO

       44     4172    2           LENGTH    = REC_DESC.D_WORD.DES_W.NDSC.N -1;

   4172 17 000100   000001 236100                    LDQ     1,,PR0
        17 000101   000077 376007                    ANQ     63,DL
        17 000102   000001 136007                    SBLQ    1,DL
        17 000103   000030 736000                    QLS     24
        17 000104   200057 756100                    STQ     LENGTH,,AUTO

       45     4173    2           CALL PACK;

   4173 17 000105   000143 701000 17                 TSX1    PACK
        17 000106   000000 011000                    NOP     0
        17 000107   000142 710000 17                 TRA     s:4187

       46     4174    2         CASE( %PACK_FLOAT_LEAD_SIGN );

       47     4175    2           SIGN_TYPE = %FLOATING_POINT_LEADING_SIGN;

   4175 17 000110   200056 450100                    STZ     SIGN_TYPE,,AUTO

       48     4176    2           LENGTH    = REC_DESC.D_WORD.DES_W.NDSC.N -1;

   4176 17 000111   000001 236100                    LDQ     1,,PR0
        17 000112   000077 376007                    ANQ     63,DL
        17 000113   000001 136007                    SBLQ    1,DL
        17 000114   000030 736000                    QLS     24
        17 000115   200057 756100                    STQ     LENGTH,,AUTO

PL6.E3A0      #001=X8PK$PACMAN File=X8PK.:X8A6TSI                                SAT 08/09/97 10:50 Page:13
       49     4177    2           CALL PACK;

   4177 17 000116   000143 701000 17                 TSX1    PACK
        17 000117   000000 011000                    NOP     0
        17 000120   000142 710000 17                 TRA     s:4187

       50     4178
       51     4179    2         CASE( %PACK_FIXED_NO_SIGN );

       52     4180    2           SIGN_TYPE = %NO_SIGN;

   4180 17 000121   600000 236003                    LDQ     -65536,DU
        17 000122   200056 756100                    STQ     SIGN_TYPE,,AUTO

       53     4181    2           LENGTH   = REC_DESC.D_WORD.DES_W.NDSC.N;

   4181 17 000123   000001 236100                    LDQ     1,,PR0
        17 000124   000077 376007                    ANQ     63,DL
        17 000125   000030 736000                    QLS     24
        17 000126   200057 756100                    STQ     LENGTH,,AUTO

       54     4182    2           CALL PACK;

   4182 17 000127   000143 701000 17                 TSX1    PACK
        17 000130   000000 011000                    NOP     0
        17 000131   000142 710000 17                 TRA     s:4187

       55     4183
       56     4184    2         CASE( ELSE );      /* If other than packed, normal move.  */

       57     4185    2           REC_FLD = SEND_FLD;

   4185 17 000132   200005 471500                    LDP1    @REC$,,AUTO
        17 000133   100000 473500                    LDP3    0,,PR1
        17 000134   000001 720100                    LXL0    1,,PR0
        17 000135   000077 360003                    ANX0    63,DU
        17 000136   200004 474500                    LDP4    @SEND_FLD,,AUTO
PL6.E3A0      #001=X8PK$PACMAN File=X8PK.:X8A6TSI                                SAT 08/09/97 10:50 Page:14
        17 000137   040140 100500                    MLR     fill='040'O
        17 000140   400000 000077                    ADSC9   0,,PR4                   cn=0,n=63
        17 000141   300000 000010                    ADSC9   0,,PR3                   cn=0,n=*X0

       58     4186
       59     4187    2       END;  /* case rec_desc.d_word.type */

   4187 17 000142   000237 710000 17                 TRA     s:4249

       60     4188        %EJECT;
PL6.E3A0      #001=X8PK$PACMAN File=X8PK.:X8A6TSI                                SAT 08/09/97 10:50 Page:15
       61     4189    1    PACK:   PROC;

   4189 17 000143   200060 741300       PACK         STX1  ! LENGTH+1,,AUTO

       62     4190
       63     4191                %PACK_NDSC( @DESC   =  REC_DESC_EIS,
       64     4192                            @SCALE  = "REC_DESC.D_WORD.DES_W.NDSC.SF",
       65     4193                            @LENGTH = LENGTH,
       66     4194                            @SIGN   = SIGN_TYPE );

   4199 17 000144   000000 220003                    LDX0    0,DU
        17 000145   200054 740100                    STX0    REC_DESC_EIS,,AUTO

   4200 17 000146   000000 236000 18                 LDQ     0
        17 000147   200054 356100                    ANSQ    REC_DESC_EIS,,AUTO

   4201 17 000150   040000 236007                    LDQ     16384,DL
        17 000151   200054 256100                    ORSQ    REC_DESC_EIS,,AUTO

   4202 17 000152   200056 236100                    LDQ     SIGN_TYPE,,AUTO
        17 000153   000026 772000                    QRL     22
        17 000154   200054 676100                    ERQ     REC_DESC_EIS,,AUTO
        17 000155   030000 376007                    ANQ     12288,DL
        17 000156   200054 656100                    ERSQ    REC_DESC_EIS,,AUTO

   4203 17 000157   200003 470500                    LDP0    @REC_DESC,,AUTO
        17 000160   000001 236100                    LDQ     1,,PR0
        17 000161   200054 752102                    STCQ    REC_DESC_EIS,'02'O,AUTO

   4204 17 000162   200056 236100                    LDQ     SIGN_TYPE,,AUTO
        17 000163   000042 772000                    QRL     34
        17 000164   000004 116007                    CMPQ    4,DL
        17 000165   000167 602006 17                 TNC     s:4204+5,QL
        17 000166   000210 710000 17                 TRA     s:4243
        17 000167   000204 710000 17                 TRA     s:4238
        17 000170   000177 710000 17                 TRA     s:4211
        17 000171   000177 710000 17                 TRA     s:4211
PL6.E3A0      #001=X8PK$PACMAN File=X8PK.:X8A6TSI                                SAT 08/09/97 10:50 Page:16
        17 000172   000173 710000 17                 TRA     s:4206

   4206 17 000173   200057 236100                    LDQ     LENGTH,,AUTO
        17 000174   000030 772000                    QRL     24
        17 000175   200054 752101                    STCQ    REC_DESC_EIS,'01'O,AUTO
        17 000176   000210 710000 17                 TRA     s:4243

   4211 17 000177   200057 236100                    LDQ     LENGTH,,AUTO
        17 000200   000030 772000                    QRL     24
        17 000201   000001 036007                    ADLQ    1,DL
        17 000202   200054 752101                    STCQ    REC_DESC_EIS,'01'O,AUTO
        17 000203   000210 710000 17                 TRA     s:4243

   4238 17 000204   200057 236100                    LDQ     LENGTH,,AUTO
        17 000205   000030 772000                    QRL     24
        17 000206   000003 036007                    ADLQ    3,DL
        17 000207   200054 752101                    STCQ    REC_DESC_EIS,'01'O,AUTO

       67     4243    2           SEND_DESC =  REC_DESC_EIS;

   4243 17 000210   200054 236100                    LDQ     REC_DESC_EIS,,AUTO
        17 000211   200053 756100                    STQ     SEND_DESC,,AUTO

       68     4244    2           SEND_DESC.NDSC.TN = %NDSC9;

   4244 17 000212   000001 236000 18                 LDQ     1
        17 000213   200053 356100                    ANSQ    SEND_DESC,,AUTO

       69     4245
       70     4246    2           CALL X9MV( SEND_DESC,  REC_DESC_EIS, ADDR(REC_FLD), ADDR( SEND_FLD ) );

   4246 17 000214   200005 471500                    LDP1    @REC$,,AUTO
        17 000215   100000 473500                    LDP3    0,,PR1
        17 000216   200062 453500                    STP3    LENGTH+3,,AUTO
        17 000217   200004 236100                    LDQ     @SEND_FLD,,AUTO
        17 000220   200063 756100                    STQ     LENGTH+4,,AUTO
        17 000221   200063 634500                    EPPR4   LENGTH+4,,AUTO
PL6.E3A0      #001=X8PK$PACMAN File=X8PK.:X8A6TSI                                SAT 08/09/97 10:50 Page:17
        17 000222   200067 454500                    STP4    LENGTH+8,,AUTO
        17 000223   200062 635500                    EPPR5   LENGTH+3,,AUTO
        17 000224   200066 455500                    STP5    LENGTH+7,,AUTO
        17 000225   200054 636500                    EPPR6   REC_DESC_EIS,,AUTO
        17 000226   200065 456500                    STP6    LENGTH+6,,AUTO
        17 000227   200053 637500                    EPPR7   SEND_DESC,,AUTO
        17 000230   200064 457500                    STP7    LENGTH+5,,AUTO
        17 000231   200064 630500                    EPPR0   LENGTH+5,,AUTO
        17 000232   000002 631400 18                 EPPR1   2
        17 000233   000000 701000 xent               TSX1    X9MV
        17 000234   000000 011000                    NOP     0

       71     4247    2    END PACK;  /* proc */

   4247 17 000235   200060 221300                    LDX1  ! LENGTH+1,,AUTO
        17 000236   000001 702211                    TSX2  ! 1,X1

       72     4248
       73     4249    1   END X8PK$PACMAN;  /* proc */

   4249 17 000237   000000 702200 xent               TSX2  ! X66_ARET
       74     4250        %EJECT;
PL6.E3A0      #001=X8PK$PACMAN File=X8PK.:X8A6TSI                                SAT 08/09/97 10:50 Page:18

PL6.E3A0      #001=X8PK$PACMAN File=X8PK.:X8A6TSI                                SAT 08/09/97 10:50 Page:19
--  Include file information  --

   B$OBJECT_C.:LIB_E04  is referenced.
   X9A_TYPES.:X8A6TOU  is referenced.
   X9A_MACROS.:X8A6TOU  is referenced.
   X8A_COM_MACS.:X8A6TOU  is referenced.
   X8A_MACROS.:X8A6TOU  is referenced.
   X8A_LIBCOM.:X8A6TOU  cannot be made into a system file and is referenced.
      No diagnostics issued in procedure X8PK$PACMAN.
PL6.E3A0      #001=X8PK$PACMAN File=X8PK.:X8A6TSI                                SAT 08/09/97 10:50 Page:20

 **** Variables and constants ****

  ****  Section 000 LblCom LIBCOM

  ****  Scalars and arrays  ****
OctLoc.c.b A Datatyp(siz) R M Lvl/name                 OctLoc.c.b A Datatyp(siz) R M Lvl/name

     0-0-0/w STRC(720)         1 LIBCOM

  ****  Section 001 LblCom DEC_OR_COMMA

  ****  Scalars and arrays  ****
OctLoc.c.b A Datatyp(siz) R M Lvl/name                 OctLoc.c.b A Datatyp(siz) R M Lvl/name

     0-0-0/c CHAR              1 DEC_OR_COMMA

  ****  Section 002 LblCom IN_TEMP

  ****  Scalars and arrays  ****
OctLoc.c.b A Datatyp(siz) R M Lvl/name                 OctLoc.c.b A Datatyp(siz) R M Lvl/name

     0-0-0/c CHAR(80)          1 IN_TEMP

  ****  Section 003 LblCom OVRCHR

  ****  Scalars and arrays  ****
OctLoc.c.b A Datatyp(siz) R M Lvl/name                 OctLoc.c.b A Datatyp(siz) R M Lvl/name

     0-0-0/c CHAR              1 OVRCHR

  ****  Section 004 LblCom SELECT_TIME

  ****  Scalars and arrays  ****
OctLoc.c.b A Datatyp(siz) R M Lvl/name                 OctLoc.c.b A Datatyp(siz) R M Lvl/name

     0-0-0/w UBIN              1 SELECT_TIME

PL6.E3A0      #001=X8PK$PACMAN File=X8PK.:X8A6TSI                                SAT 08/09/97 10:50 Page:21
  ****  Section 005 LblCom NO_ADVANCE_OFFSET

  ****  Scalars and arrays  ****
OctLoc.c.b A Datatyp(siz) R M Lvl/name                 OctLoc.c.b A Datatyp(siz) R M Lvl/name

     0-0-0/w UBIN              1 NO_ADVANCE_OFFSET

  ****  Section 006 LblCom DSPLY_SAVE

  ****  Scalars and arrays  ****
OctLoc.c.b A Datatyp(siz) R M Lvl/name                 OctLoc.c.b A Datatyp(siz) R M Lvl/name

     0-0-0/c CHAR(72)          1 DSPLY_SAVE

  ****  Section 007 LblCom D_DATE

  ****  Scalars and arrays  ****
OctLoc.c.b A Datatyp(siz) R M Lvl/name                 OctLoc.c.b A Datatyp(siz) R M Lvl/name

     0-0-0/c CHAR(10)          1 D_DATE

  ****  Section 008 LblCom D_TIME

  ****  Scalars and arrays  ****
OctLoc.c.b A Datatyp(siz) R M Lvl/name                 OctLoc.c.b A Datatyp(siz) R M Lvl/name

     0-0-0/c CHAR(11)          1 D_TIME

  ****  Section 009 LblCom D_DAY

  ****  Scalars and arrays  ****
OctLoc.c.b A Datatyp(siz) R M Lvl/name                 OctLoc.c.b A Datatyp(siz) R M Lvl/name

     0-0-0/c CHAR(3)           1 D_DAY

  ****  Section 010 LblCom C_DATE

PL6.E3A0      #001=X8PK$PACMAN File=X8PK.:X8A6TSI                                SAT 08/09/97 10:50 Page:22
  ****  Scalars and arrays  ****
OctLoc.c.b A Datatyp(siz) R M Lvl/name                 OctLoc.c.b A Datatyp(siz) R M Lvl/name

     0-0-0/c CHAR(6)           1 C_DATE

  ****  Section 011 LblCom C_TIME

  ****  Scalars and arrays  ****
OctLoc.c.b A Datatyp(siz) R M Lvl/name                 OctLoc.c.b A Datatyp(siz) R M Lvl/name

     0-0-0/c CHAR(8)           1 C_TIME

  ****  Section 012 LblCom C_DAY

  ****  Scalars and arrays  ****
OctLoc.c.b A Datatyp(siz) R M Lvl/name                 OctLoc.c.b A Datatyp(siz) R M Lvl/name

     0-0-0/c CHAR(5)           1 C_DAY

  ****  Section 013 LblCom RTHOLD2

  ****  Scalars and arrays  ****
OctLoc.c.b A Datatyp(siz) R M Lvl/name                 OctLoc.c.b A Datatyp(siz) R M Lvl/name

     0-0-0/w UBIN              1 RTHOLD2

  ****  Section 014 LblCom LTHOLD2

  ****  Scalars and arrays  ****
OctLoc.c.b A Datatyp(siz) R M Lvl/name                 OctLoc.c.b A Datatyp(siz) R M Lvl/name

     0-0-0/w UBIN              1 LTHOLD2

  ****  Section 015 LblCom NDX2

  ****  Scalars and arrays  ****
OctLoc.c.b A Datatyp(siz) R M Lvl/name                 OctLoc.c.b A Datatyp(siz) R M Lvl/name
PL6.E3A0      #001=X8PK$PACMAN File=X8PK.:X8A6TSI                                SAT 08/09/97 10:50 Page:23

     0-0-0/w SBIN              1 NDX2

  ****  Section 016 LblCom IN_LEN

  ****  Scalars and arrays  ****
OctLoc.c.b A Datatyp(siz) R M Lvl/name                 OctLoc.c.b A Datatyp(siz) R M Lvl/name

     0-0-0/w UBIN              1 IN_LEN

  ****  Auto variables  ****

  ****  Scalars and arrays  ****
OctLoc.c.b A Datatyp(siz) R M Lvl/name                 OctLoc.c.b A Datatyp(siz) R M Lvl/name

     5-0-0/w PTR         r     1 @REC$                      3-0-0/w PTR         r     1 @REC_DESC
     4-0-0/w PTR         r     1 @SEND_FLD                 55-0-0/w PTR               1 ARG$
    57-0-0/w UBIN(12)    r     1 LENGTH                     6-0-0/w SBIN              1 LT
     7-0-0/c CHAR(65)          1 LTHOLD                    51-0-0/w SBIN              1 NDX
    52-0-0/w SBIN              1 NDX3                      *0-0-0/w PTR         r     1 REC$
    *0-0-0/w STRC(72)    r     1 REC_DESC                  54-0-0/w STRC        r     1 REC_DESC_EIS
    30-0-0/c CHAR(65)          1 RTHOLD                    53-0-0/w STRC        r     1 SEND_DESC
    *0-0-0/c CHAR(63)    r     1 SEND_FLD                  56-0-0/b BIT (2)     r     1 SIGN_TYPE

  ****  BASED and DCB variables  ****

  ****  Scalars and arrays  ****
OctLoc.c.b A Datatyp(siz) R M Lvl/name                 OctLoc.c.b A Datatyp(siz) R M Lvl/name

     0-0-0/c ACHR        r     1 REC_FLD


   Procedure X8PK$PACMAN requires 160 words for executable code.
   Procedure X8PK$PACMAN requires 56 words of local(AUTO) storage.
PL6.E3A0      #001=X8PK$PACMAN File=X8PK.:X8A6TSI                                SAT 08/09/97 10:50 Page:24

    No errors detected in file X8PK.:X8A6TSI    .
