VERSION A06

 10:51 08/09/97  FILE=X9AS.:X8A6TSI                                                                      1    BMAP - B00
                                         1  *M*    X9AS$SHRINK_PTR  BMAP routine for shrink operation
                                         2  *T***********************************************************
                                         3  *T*                                                         *
                                         4  *T* Copyright (c) Bull HN Information Systems Inc., 1997    *
                                         5  *T*                                                         *
                                         6  *T***********************************************************
             000000000000                7  PR0    EQU     0
             000000000001                8  PR1    EQU     1
             000000000002                9  PR2    EQU     2
                                        10         ENTREF  X66_AUTO_2
                                        11         ENTREF  X66_ARET
                                        12         ENTDEF  X9AS$SHRINK_PTR

 10:51 08/09/97  FILE=X9AS.:X8A6TSI           X9AS$SHRINK_PTR                                            2    BMAP - B00
                                        13         TTL     X9AS$SHRINK_PTR
                                        14  *D*    ENTRY:  X9AS$SHRINK_PTR
                                        15  *,*    CALL:   CALL X9AS$SHRINK_PTR (bases$, new$);
                                        16  *,*    INPUT:  NEW$ points to the array of 8 pointers pointing to
                                        17  *,*            the 8 partitions of the super segment.
                                        18  *,*    OUTPUT: BASE$ points to the super segment.
                                        19  *,*    DESCRIPTION: This routine splits a 2048K super segment into 8
                                        20  *,*            256K pieces, pushes all 8 descriptors onto the arg
                                        21  *,*            stack, and returns a pointer to the array of 8 pointers.
 0 000000  X 000000 7000 00             22  X9AS$SHRINK_PTR   TSX0    X66_AUTO_2
   000001    000006 000000              23         ZERO    6,0
   000002    2 00004 4715 00            24         LDP1    4,,PR2
   000003    2 00003 4705 00            25         LDP0    3,,PR2
   000004    000000 6360 00             26         EAQ     0
   000005    2 00005 7561 00            27         STQ     5,,PR2
   000006    1 00000 4715 00            28         LDP1    0,,PR1
   000007    000000 6200 00             29         EAX0    0
   000010    000004 2360 03             30         LDQ     4,DU
   000011    2 00005 6115 00            31  NEXTPT LDEA1   5,,PR2
   000012 (0)000022 6764 00             32         LDD6    SHRVEC
   000013    000000 1164 00             33         SDR6
   000014    0 00000 4565 10            34         STP6    0,X0,PR0
   000015    2 00005 0561 00            35         ASQ     5,,PR2
   000016    000001 6200 10             36         EAX0    1,0
   000017    000010 1000 03             37         CMPX0   8,DU
   000020 (0)000011 6040 00             38         TMI     NEXTPT
   000021  X 000000 7020 00             39         TSX2    X66_ARET
                                        40         EVEN
   000022    777777777640               41  SHRVEC OCT     777777777640,1771
   000023    000000001771
                                        42         END

  CONTROL SECTION TABLE

   0 CODE   EVEN  000024
   1 RODATA EVEN  000000 LITERALS

 10:51 08/09/97  FILE=X9AS.:X8A6TSI           SYMBOL TABLE                                               3    BMAP - B00
 01101000 000000000011 NEXTPT         *31        38
 41000000 000000000000 PR0             *7        34
 41000000 000000000001 PR1             *8        28
 41000000 000000000002 PR2             *9        24        25        27        31        35
 01101000 000000000022 SHRVEC          32       *41
 03201001 000000000000 X66_ARET       *11        39
 03201000 000000000000 X66_AUTO_2     *10        22
 12101000 000000000000 X9AS$SHRINK_PTR           12       *22

       8 SYMBOLS

       0 MACROS

    SYMBOL SPACE USED   100 WORDS
     MACRO SPACE USED     0 WORDS
   INPUT RECORDS READ    84
 STATEMENTS PROCESSED    34
         ELAPSED TIME  0:04.64
             CPU TIME     0.42 SEC.
        ASSEMBLY RATE  4857 STATEMENTS/CPU MIN.

      NO ERRORS

