
     DIRECTORY AND SEGMENT LIST  (OBJECT UNIT NAME '')

      * SYMDEF *        GLOBAL NAME               SEGMENT  OFFSET      ACCESS ATTRIBUTES
     1  CVJI   'X9CV$CVJI'                         .X9CV       0          R  W  E  L  U
     2  CVKI   'X9CV$CVKI'                         .X9CV      37          R  W  E  L  U
     3  CVIJ   'X9CV$CVIJ'                         .X9CV     102          R  W  E  L  U
     4  CVIK   'X9CV$CVIK'                         .X9CV     134          R  W  E  L  U
     5  CVDI   'X9CV$CVDI'                         .X9CV     175          R  W  E  L  U
     6  CVID   'X9CV$CVID'                         .X9CV     227          R  W  E  L  U

      * COMMON SECTION *  GLOBAL NAME                       SIZE          KIND                  ATTRIBUTES
     7  TEMP   'TEMP'                                          7           DATA

      * SECTION *          SIZE          KIND
     8  .X9CV               270           CODE


     PROGRAM BREAK         277

                                      1 *M* X9CV -- CONVERT INTEGER TO INTEGER
                                      2 *T***********************************************************
                                      3 *T*                                                         *
                                      4 *T* COPYRIGHT (C) BULL HN INFORMATION SYSTEMS INC., 1997    *
                                      5 *T*                                                         *
                                      6 *T***********************************************************
                        000000        7        ENTDEF  (CVJI,X9CV$CVJI)
                        000000        8        ENTDEF  (CVKI,X9CV$CVKI)
                        000000        9        ENTDEF  (CVIJ,X9CV$CVIJ)
                        000000       10        ENTDEF  (CVIK,X9CV$CVIK)
                        000000       11        ENTDEF  (CVDI,X9CV$CVDI)
                        000000       12        ENTDEF  (CVID,X9CV$CVID)
                        000000       13        SECT    .X9CV,CODE
                                     14 *P*
                                     15 *P*
                                     16 *P*        NAME: X9CV$CVJI
                                     17 *P*     PURPOSE: CONVERT TYJ  VARIABLE TO TYI.
                                     18
                                     19
                                     20 *D*        NAME: CVJI
                                     21 *D*       ENTRY: CVJI
                                     22 *D*   INTERFACE: NONE
                                     23 *D*       INPUT: ARGUMENT LIST POINTED TO BY PR0
                                     24 *D*                 ARG#1 - POINTER TO A^ POINTER TO
                                     25 *D*                         INPUT TYJ TYPE VARIABLE.
                                     26 *D*                 ARG#2 - POINTER TO OUTPUT TYI TYPE VARIABLE.
                                     27 *D*
                                     28 *D*
                                     29 *D* DESCRIPTION: CONVERT TYJ VARIABLE INTO A TYI VARIABLE. PUT
                                     30 *D*              RESULT IN LOCATION POINTED TO BY SECOND ARGUMENT.
                                     31 *D*
                        000000       32 CVJI   NULL
      000000 000000 4775 00          33        LDP7    0,,0            PTR TO PTR TO ARG#1
      000001 700000 4715 00          34        LDP1    0,,7            PTR TO ARG#1, INPUT VAR. OF TYPE TYJ
      000002 000001 4735 00          35        LDP3    1,,0            PTR TO ARG#2, OUTPUT VAR. OF TYPE TYI
                                     36
      000003 000000 4514 00 010NN    37        STP1    PTR             GET BYTE ALIGNMENT OF TYJ VARIABLE

      000004 000000 2350 00 010NN    38        LDA     PTR               INTO A REGISTER BY ITSELF TO BE USED
      000005 000022 7350 00          39        ALS     18                AS OFFSET INTO JUMP TABLE
      000006 000042 7710 00          40        ARL     34
                                     41
      000007 000010 7100 05 010NN    42        TRA     *+1,AL          TRA TO CODE TO HANDLE
      000010 000004 7100 04     14   43        TRA     CVJIB0,$          BYTE ALIGNMENT OF INPUT
      000011 000007 7100 04     20   44        TRA     CVJIB1,$
      000012 000012 7100 04     24   45        TRA     CVJIB2,$
      000013 000015 7100 04     30   46        TRA     CVJIB3,$
                                     47
      000014 100000 2351 00          48 CVJIB0 LDA     0,,1
      000015 000032 7730 00          49        LRL     26
      000016 000001 7710 00          50        ARL     1
      000017 000014 7100 04     33   51        TRA     SHFT1,$
                                     52
      000020 100000 2351 00          53 CVJIB1 LDA     0,,1
      000021 000021 7730 00          54        LRL     17
      000022 000001 7710 00          55        ARL     1
      000023 000010 7100 04     33   56        TRA     SHFT1,$
                                     57
      000024 100000 2351 00          58 CVJIB2 LDA     0,,1
      000025 000010 7730 00          59        LRL     8
      000026 000001 7710 00          60        ARL     1
      000027 000004 7100 04     33   61        TRA     SHFT1,$
                                     62
      000030 100000 2351 00          63 CVJIB3 LDA     0,,1
      000031 100001 2361 00          64        LDQ     1,,1
      000032 000001 7360 00          65        QLS     1
      000033 000010 7730 00          66 SHFT1  LRL     8
      000034 000024 7320 00          67        QRS     20
      000035 300000 7561 00          68        STQ     0,,3
      000036 000001 7100 11          69        TRA     1,1              NORMAL RETURN

                                     71 *P*
                                     72 *P*
                                     73 *P*        NAME: X9CV$CVKI
                                     74 *P*     PURPOSE: CONVERT TYK VARIABLE TO TYI.
                                     75
                                     76
                                     77 *D*        NAME: CVKI
                                     78 *D*       ENTRY: CVKI
                                     79 *D*   INTERFACE: NONE
                                     80 *D*       INPUT: ARGUMENT LIST POINTED TO BY PR0
                                     81 *D*                 ARG#1 - POINTER TO A POINTER TO
                                     82 *D*                         INPUT VARIABLE OF TYPE TYK.
                                     83 *D*                 ARG#2 - POINTER TO OUTPUT TYI VARIABLE.
                                     84 *D*
                                     85 *D*
                                     86 *D* DESCRIPTION: CONVERT TYK VARIABLE INTO A TYI VARIABLE. PUT
                                     87 *D*              RESULT IN LOCATION POINTED TO BY SECOND ARGUMENT.
                                     88 *D*
                        000037       89 CVKI   NULL
      000037 000000 4775 00          90        LDP7    0,,0            PTR TO PTR TO ARG$1.
      000040 700000 4715 00          91        LDP1    0,,7            PTR TO ARG#1, INPUT VAR. OF TYPE TYK
      000041 000001 4735 00          92        LDP3    1,,0            PTR TO ARG#2, OUTPUT VAR. OF TYPE TYI
                                     93
      000042 000000 4514 00 010NN    94        STP1    PTR             GET BYTE ALIGNMENT OF TYK VARIABLE
      000043 000000 2350 00 010NN    95        LDA     PTR               INTO A REGISTER BY ITSELF TO BE USED
      000044 000022 7350 00          96        ALS     18                AS OFFSET INTO JUMP TABLE
      000045 000042 7710 00          97        ARL     34
                                     98
      000046 000047 7100 05 010NN    99        TRA     *+1,AL          TRA TO CODE TO HANDLE
      000047 000004 7100 04     53  100        TRA     CVKIB0,$          BYTE ALIGNMENT OF INPUT
      000050 000005 7100 04     55  101        TRA     CVKIB1,$
      000051 000010 7100 04     61  102        TRA     CVKIB2,$
      000052 000013 7100 04     65  103        TRA     CVKIB3,$
                                    104
      000053 100000 2351 00         105 CVKIB0 LDA     0,,1
      000054 000014 7100 04     70  106        TRA     SHFT4,$
                                    107

      000055 100000 2351 00         108 CVKIB1 LDA     0,,1
      000056 100001 2361 00         109        LDQ     1,,1
      000057 000001 7360 00         110        QLS     1
      000060 000012 7100 04     72  111        TRA     SHFT3,$
                                    112
      000061 100000 2351 00         113 CVKIB2 LDA     0,,1
      000062 100001 2361 00         114        LDQ     1,,1
      000063 000022 7370 00         115        LLS     18
      000064 000004 7100 04     70  116        TRA     SHFT4,$
                                    117
      000065 100000 2351 00         118 CVKIB3 LDA     0,,1
      000066 100001 2361 00         119        LDQ     1,,1
      000067 000033 7370 00         120        LLS     27
      000070 000010 7730 00         121 SHFT4  LRL     8
      000071 000001 7710 00         122        ARL     1
      000072 000010 7730 00         123 SHFT3  LRL     8
      000073 000001 7710 00         124        ARL     1
      000074 000010 7730 00         125        LRL     8
      000075 000001 7710 00         126        ARL     1
      000076 000010 7730 00         127        LRL     8
      000077 000004 7320 00         128        QRS     4
      000100 300000 7561 00         129        STQ     0,,3
      000101 000001 7100 11         130        TRA     1,1              NORMAL RETURN

                                    132
                                    133 *P*
                                    134 *P*
                                    135 *P*        NAME: X9CV$CVIJ
                                    136 *P*     PURPOSE: CONVERT TYI VARIABLE TO TYJ.
                                    137
                                    138 *D*        NAME: CVIJ
                                    139 *D*       ENTRY: CVIJ
                                    140 *D*   INTERFACE: NONE
                                    141 *D*       INPUT: ARGUMENT LIST POINTED TO BY PR0
                                    142 *D*                 ARG#1 - POINTER TO A^ POINTER TO
                                    143 *D*                         INPUT TYI TYPE VARIABLE.
                                    144 *D*                 ARG#2 - POINTER TO OUTPUT TYJ TYPE VARIABLE.
                                    145 *D*
                                    146 *D*
                                    147 *D* DESCRIPTION: CONVERT TYI VARIABLE INTO A TYJ VARIABLE. PUT
                                    148 *D*              RESULT IN LOCATION POINTED TO BY SECOND ARGUMENT.
                                    149 *D*
                                    150
                        000102      151 CVIJ   NULL
      000102 000000 4775 00         152        LDP7    0,,0            PTR TO PTR TO ARG#1
      000103 700000 4715 00         153        LDP1    0,,7            PTR TO ARG#1, INPUT VAR. OF TYPE TYI
      000104 000001 4735 00         154        LDP3    1,,0            PTR TO ARG#2, OUTPUT VAR. OF TYPE TYJ
      000105 100000 2361 00         155        LDQ     0,,1
      000106 000005 7360 00         156        QLS     5               CHECK FOR OVERFLOW.
      000107 000261 6030 00 010NN   157        TRC     ALTRET          TRANSFER TO ALTRETURN ON OVERFLOW(CARRY)
                                    158
      000110 000163 7030 00 010NN   159        TSX3    I.TO.K          CONVERT TYI TO TYJ, RES IN THE A REG.
                                    160
      000111 000000 4534 00 010NN   161        STP3    PTR             GET BYTE ALIGNMENT OF TYJ VARIABLE
      000112 000000 2360 00 010NN   162        LDQ     PTR               INTO Q REGISTER TO BE USED AS AN
      000113 000022 7360 00         163        QLS     18                OFFSET INTO A JUMP TABLE
      000114 000042 7720 00         164        QRL     34
                                    165
      000115 000116 7100 06 010NN   166        TRA     *+1,QL          TRA TO CODE TO HANDLE BYTE
      000116 000122 7100 00 010NN   167        TRA     CVIJB0            ALIGNMENT OF OUTPUT VARIABLE.
      000117 000125 7100 00 010NN   168        TRA     CVIJB1

      000120 000132 7100 00 010NN   169        TRA     CVIJB2
      000121 000125 7100 00 010NN   170        TRA     CVIJB3
                                    171
      000122 000000 6230 05         172 CVIJB0 EAX3    0,AL
      000123 300000 7431 00         173        STX3    0,,3
      000124 000001 7100 11         174        TRA     1,1
                                    175
      000125 000001 7550 00 010NN   176 CVIJB1 STA     TEMP1
      000126 000100 1014 00         177        MRL     (),(1,,),000
      000127 000001 4000 02 010NN   178        ADSC9   TEMP1,2,2
      000130 300000 0000 02         179        ADSC9   0,0,2,3
      000131 000001 7100 11         180        TRA     1,1
                                    181
      000132 300000 5511 14         182 CVIJB2 STBA    0,14,3
      000133 000001 7100 11         183        TRA     1,1
                                    184
                        000125      185 CVIJB3 EQU     CVIJB1

                                    187
                                    188
                                    189
                                    190 *P*
                                    191 *P*
                                    192 *P*        NAME: X9CV$CVIK
                                    193 *P*     PURPOSE: CONVERT TYI VARIABLE TO TYK.
                                    194
                                    195 *D*        NAME: CVIK
                                    196 *D*       ENTRY: CVIK
                                    197 *D*   INTERFACE: NONE
                                    198 *D*       INPUT: ARGUMENT LIST POINTED TO BY PR0
                                    199 *D*                 ARG#1 - POINTER TO A^ POINTER TO
                                    200 *P*                         INPUT TYI TYPE VARIABLE.
                                    201 *D*                 ARG#2 - POINTER TO OUTPUT TYK TYPE VARIABLE.
                                    202 *D*
                                    203 *D*
                                    204 *D* DESCRIPTION: CONVERT TYI VARIABLE INTO A TYK VARIABLE. PUT
                                    205 *D*              RESULT IN LOCATION POINTED TO BY SECOND ARGUMENT.
                                    206 *D*
                        000134      207 CVIK   NULL
      000134 000000 4775 00         208        LDP7    0,,0            PTR TO PTR TO ARG#1
      000135 700000 4715 00         209        LDP1    0,,7            PTR TO ARG#1, INPUT VAR. OF TYPE TYI
      000136 000001 4735 00         210        LDP3    1,,0            PTR TO ARG#2, OUTPUT VAR. OF TYPE TYK
      000137 100000 2361 00         211        LDQ     0,,1
      000140 000025 7360 00         212        QLS     21              CHECK FOR OVERFLOW.
      000141 000261 6030 00 010NN   213        TRC     ALTRET          TRANSFER TO ALTRETURN ON OVERFLOW(CARRY)
                                    214
      000142 000163 7030 00 010NN   215        TSX3    I.TO.K          CONVERT TYI TO TYK, RES IN THE A REG.
                                    216
      000143 000000 4534 00 010NN   217        STP3    PTR             GET BYTE ALIGNMENT OF TYK VARIABLE
      000144 000000 2360 00 010NN   218        LDQ     PTR               INTO Q REGISTER TO BE USED AS AN
      000145 000022 7360 00         219        QLS     18                OFFSET INTO A JUMP TABLE
      000146 000042 7720 00         220        QRL     34
                                    221
      000147 000150 7100 06 010NN   222        TRA     *+1,QL          TRA TO CODE TO HANDLE BYTE
      000150 000004 7100 04    154  223        TRA     CVIKB0,$          ALIGNMENT OF INPUT VARIABLE

      000151 000005 7100 04    156  224        TRA     CVIKB,$
      000152 000004 7100 04    156  225        TRA     CVIKB,$
      000153 000003 7100 04    156  226        TRA     CVIKB,$
                                    227
      000154 300000 7551 00         228 CVIKB0 STA     0,,3
      000155 000001 7100 11         229        TRA     1,1
                                    230
      000156 000001 7550 00 010NN   231 CVIKB  STA     TEMP1
      000157 000100 1014 00         232        MRL     (),(1,,),000
      000160 000001 0000 04 010NN   233        ADSC9   TEMP1,0,4
      000161 300000 0000 04         234        ADSC9   0,0,4,3
      000162 000001 7100 11         235        TRA     1,1
                                    236
      000163 100000 2361 00         237 I.TO.K LDQ     0,,1            CONVERT TYI TO TYK.  RESULT IS IN
      000164 000004 7360 00         238        QLS     4                 THE A REGISTER.  THE Q REGISTER
                                    239                                  IS USED.  INDEX REGISTER 3 IS
      000165 000010 7370 00         240        LLS     8                 EXPECTED TO HOLD THE RETURN ADDRESS.
      000166 000001 7350 00         241        ALS     1
      000167 000010 7370 00         242        LLS     8
      000170 000001 7350 00         243        ALS     1
      000171 000010 7370 00         244        LLS     8
      000172 000001 7350 00         245        ALS     1
      000173 000010 7370 00         246        LLS     8
      000174 000000 7100 13         247        TRA     0,3

                                    249
                                    250 *P*
                                    251 *P*
                                    252 *P*        NAME: X9CV$CVDI
                                    253 *P*     PURPOSE: CONVERT TYD VARIABLE TO TYI.
                                    254
                                    255
                                    256 *D*        NAME: CVDI
                                    257 *D*       ENTRY: CVDI
                                    258 *D*   INTERFACE: NONE
                                    259 *D*       INPUT: ARGUMENT LIST POINTED TO BY PR0
                                    260 *D*                 ARG#1 - SENDING FIELD DESCRIPTOR
                                    261 *D*                 ARG#2 - RECIEVING FIELD DESCRIPTOR ( TYJ )
                                    262 *D*                 ARG#3 - POINTER TO RECEIVING FIELD
                                    263 *D*                 ARG#4 - POINTER TO SENDING FIELD
                                    264 *D*
                                    265 *D* DESCRIPTION: CONVERT TYD VARIABLE INTO A TYI VARIABLE. PUT
                                    266 *D*              RESULT IN LOCATION POINTED TO BY FOURTH ARGUMENT.
                                    267 *D*
                        000175      268 CVDI   NULL
      000175 000002 7550 00 010NN   269        STA     REG
      000176 000003 4554 00 010NN   270        STP5    PR5
      000177 000004 4544 00 010NN   271        STP4    PR4
      000200 000002 4755 00         272        LDP5    2,,0
      000201 500000 4755 00         273        LDP5    0,,5
      000202 000003 4745 00         274        LDP4    3,,0
      000203 400000 4745 00         275        LDP4    0,,4
      000204 000000 4715 00         276        LDP1    0,,0
      000205 100000 2351 00         277        LDA     0,,1
      000206 077777 3750 07         278        ANA     =O077777,DL
      000207 400000 2750 03         279        ORA     =O400000,DU
      000210 000006 7550 00 010NN   280        STA     SENDSC
      000211 000001 4715 00         281        LDP1    1,,0
      000212 100000 2351 00         282        LDA     0,,1
      000213 077777 3750 07         283        ANA     =O077777,DL
      000214 500000 2750 03         284        ORA     =O500000,DU
      000215 000005 7550 00 010NN   285        STA     RECDSC

      000216 000217 6170 00 010NN   286        TOV     *+1
      000217 000120 3055 20         287        DTB     (1,0,1),(1,0,1)
      000220 000006 000000  010NN   288        ZERO    SENDSC
      000221 000005 000000  010NN   289        ZERO    RECDSC
      000222 000002 2350 00 010NN   290        LDA     REG
      000223 000003 4754 00 010NN   291        LDP5    PR5
      000224 000004 4744 00 010NN   292        LDP4    PR4
      000225 000261 6170 00 010NN   293        TOV     ALTRET          IF THERE WAS AN OVERFLOW ALTRET
      000226 000001 7100 11         294        TRA     1,1

                                    296 *P*
                                    297 *P*
                                    298 *P*        NAME: X9CV$CVID
                                    299 *P*     PURPOSE: CONVERT TYI TO TYD.
                                    300
                                    301
                                    302 *D*        NAME: CVID
                                    303 *D*       ENTRY: CVID
                                    304 *D*   INTERFACE: NONE
                                    305 *D*       INPUT: ARGUMENT LIST POINTED TO BY PR0
                                    306 *D*                 ARG#1 - SENDING FIELD DESCRIPTOR
                                    307 *D*                 ARG#2 - RECIEVING FIELD DESCRIPTOR ( TYJ )
                                    308 *D*                 ARG#3 - POINTER TO RECEIVING FIELD
                                    309 *D*                 ARG#4 - POINTER TO SENDING FIELD
                                    310 *D*
                                    311 *D* DESCRIPTION: CONVERT TYI VARIABLE INTO A TYD VARIABLE. PUT
                                    312 *D*              RESULT IN LOCATION POINTED TO BY FOURTH ARGUMENT.
                                    313 *D*
                        000227      314 CVID   NULL
      000227 000002 7550 00 010NN   315        STA     REG
      000230 000003 4554 00 010NN   316        STP5    PR5
      000231 000004 4544 00 010NN   317        STP4    PR4
      000232 000002 4755 00         318        LDP5    2,,0
      000233 500000 4755 00         319        LDP5    0,,5
      000234 000003 4745 00         320        LDP4    3,,0
      000235 400000 4745 00         321        LDP4    0,,4
      000236 000000 4715 00         322        LDP1    0,,0
      000237 100000 2351 00         323        LDA     0,,1
      000240 077777 3750 07         324        ANA     =O077777,DL
      000241 400000 2750 03         325        ORA     =O400000,DU
      000242 000006 7550 00 010NN   326        STA     SENDSC
      000243 000001 4715 00         327        LDP1    1,,0
      000244 100000 2351 00         328        LDA     0,,1
      000245 077777 3750 07         329        ANA     =O077777,DL
      000246 500000 2750 03         330        ORA     =O500000,DU
      000247 000005 7550 00 010NN   331        STA     RECDSC
      000250 000251 6170 00 010NN   332        TOV     *+1

      000251 000120 3015 20         333        BTD     (1,0,1),(1,0,1)
      000252 000006 000000  010NN   334        ZERO    SENDSC
      000253 000005 000000  010NN   335        ZERO    RECDSC
      000254 000002 2350 00 010NN   336        LDA     REG
      000255 000003 4754 00 010NN   337        LDP5    PR5
      000256 000004 4744 00 010NN   338        LDP4    PR4
      000257 000261 6170 00 010NN   339        TOV     ALTRET          IF THERE WAS AN OVERFLOW ALTRET
      000260 000001 7100 11         340        TRA     1,1
                        000261      341 ALTRET NULL
      000261 000000 7100 11         342        TRA     0,1             ALTRETURN
                                    343
                        000000      344        CSECT   TEMP,DATA
                        000000      345 PTR    BSS     1
                        000001      346 TEMP1  BSS     1
                        000002      347 REG    BSS     1
                        000003      348 PR5    BSS     1
                        000004      349 PR4    BSS     1
                        000005      350 RECDSC BSS     1
                        000006      351 SENDSC BSS     1
                                    352        END
 GMAP6 VERSION/ASSEMBLY DATES  JNPA NO TTL/2(_00]      JNPB NO TTL/2(_00]      JNPC NO TTL/2(_00]
 THERE WERE    NO  WARNING FLAGS IN THE ABOVE ASSEMBLY

                             OCTAL    SYMBOL   * KIND *      REFERENCES BY ALTER NO. AN
   261   ALTRET   REL   .X9CV    341  157T  213T  293T  339T  341
   175   CVDI     REL   .X9CV    268   11   268
   227   CVID     REL   .X9CV    314   12   314
   102   CVIJ     REL   .X9CV    151    9   151
   122   CVIJB0   REL   .X9CV    172  167T  172
   125   CVIJB1   REL   .X9CV    176  168T  176   185
   132   CVIJB2   REL   .X9CV    182  169T  182
   125   CVIJB3   REL   .X9CV    185  170T  185
   134   CVIK     REL   .X9CV    207   10   207
   154   CVIKB0   REL   .X9CV    228  223T  228
   156   CVIKB    REL   .X9CV    231  224T  225T  226T  231
     0   CVJI     REL   .X9CV     32    7    32
    14   CVJIB0   REL   .X9CV     48   43T   48
    20   CVJIB1   REL   .X9CV     53   44T   53
    24   CVJIB2   REL   .X9CV     58   45T   58
    30   CVJIB3   REL   .X9CV     63   46T   63
    37   CVKI     REL   .X9CV     89    8    89
    53   CVKIB0   REL   .X9CV    105  100T  105
    55   CVKIB1   REL   .X9CV    108  101T  108
    61   CVKIB2   REL   .X9CV    113  102T  113
    65   CVKIB3   REL   .X9CV    118  103T  118
   163   I.TO.K   REL   .X9CV    237  159T  215T  237
  6000   .X9CV    SEC   SECT      13   13
     4   PR4      REL   TEMP     349  271W  292R  317W  338R  349
     3   PR5      REL   TEMP     348  270W  291R  316W  337R  348
     0   PTR      REL   TEMP     345   37W   38R   94W   95R  161W  162R  217W  218R  345
     5   RECDSC   REL   TEMP     350  285W  289   331W  335   350
     2   REG      REL   TEMP     347  269W  290R  315W  336R  347
     6   SENDSC   REL   TEMP     351  280W  288   326W  334   351
    33   SHFT1    REL   .X9CV     66   51T   56T   61T   66
    72   SHFT3    REL   .X9CV    123  111T  123
    70   SHFT4    REL   .X9CV    121  106T  116T  121
     1   TEMP1    REL   TEMP     346  176W  178D  231W  233D  346
  6001   TEMP     SEC   CSECT    344  344
