VERSION A06

PL6.E3A0      #001=X9DB$DELTA File=X9DB.:X8A6TSI                                 SAT 08/09/97 10:52 Page:1
        1        1        /*T***********************************************************/
        2        2        /*T*                                                         */
        3        3        /*T* Copyright (c) Bull HN Information Systems Inc., 1997    */
        4        4        /*T*                                                         */
        5        5        /*T***********************************************************/
        6        6        X9DB$DELTA: PROC;
        7        7
        8        8            %INCLUDE X8A_SYS_FILE;
        9     6278            %INCLUDE X8A_LIBCOM;
       10     6498
       11     6499            %FPT_ALIB (FPTN=TO_DELTA,CMD=DELTA_CMD,LIBNAME=DELTA,
       12     6500                       RETRN=YES,STCLASS=CONSTANT);
       13     6517            %VLP_NAME (FPTN=DELTA,NAME='DELTA',STCLASS=CONSTANT);
       14     6544
       15     6545    1       DCL 1 DELTA_CMD STATIC,
       16     6546    1             2 *     CHAR(0) INIT ( '     '),  /* PLUGH */
       17     6547    1             2 *     CHAR(0) INIT ('  '),  /* ; */
       18     6548    1             2 *     CHAR(0) INIT ('M '),
       19     6549    1             2 LOC   CHAR(6) INIT ('  '),
       20     6550    1             2 *     CHAR(0) INIT('\I');
       21     6551
       22     6552
       23     6553    1       CALL BINCHAR ( DELTA_CMD.LOC, LIBCOM.X1 );
       24     6554    1       CALL M$ALIB (TO_DELTA);
       25     6555
       26     6556    1   END X9DB$DELTA;      /* PROC */
       27     6557        %EJECT;
PL6.E3A0      #001=X9DB$DELTA File=X9DB.:X8A6TSI                                 SAT 08/09/97 10:52 Page:2

PL6.E3A0      #001=X9DB$DELTA File=X9DB.:X8A6TSI                                 SAT 08/09/97 10:52 Page:3
--  Include file information  --

   X8A_LIBCOM.:X8A6TOU  cannot be made into a system file and is referenced.
   CP_6_SUBS.:LIB_E04  is referenced.
   CP_6_C.:LIB_E04  is referenced.
   CP_6.:LIB_E04  cannot be made into a system file and is referenced.
   Z9A_FLAGS.:Z8A6TOU  is referenced.
   X8A_SYS_FILE.:X8A6TOU  is referenced.
      No diagnostics issued in procedure X9DB$DELTA.

   Procedure X9DB$DELTA requires 12 words for executable code.
   Procedure X9DB$DELTA requires 42 words of local(AUTO) storage.

    No errors detected in file X9DB.:X8A6TSI    .

PL6.E3A0      #001=X9DB$DELTA File=X9DB.:X8A6TSI                                 SAT 08/09/97 10:52 Page:4

 Object Unit name= X9DB$DELTA                                 File name= X9DB.:X8A6TOU
 UTS= AUG 09 '97 10:52:54.52 SAT                              Compiler= PL-6/E31         Sev=      00
 SharedLib= :SHARED_SYSTEM                                    Alt SharedLib=


    ****  Control sections  ****

 Sect   Type Bound  Init  Size OctSiz  Section name(segment info)
    0   DCB   even  none     0      0  M$UC
    1  LblCom even  none    20     24  LIBCOM
    2  LblCom even  none     1      1  DEC_OR_COMMA
    3  LblCom even  none    20     24  IN_TEMP
    4  LblCom even  none     1      1  OVRCHR
    5  LblCom even  none     1      1  SELECT_TIME
    6  LblCom even  none     1      1  NO_ADVANCE_OFFSET
    7  LblCom even  none    18     22  DSPLY_SAVE
    8  LblCom even  none     3      3  D_DATE
    9  LblCom even  none     3      3  D_TIME
   10  LblCom even  none     1      1  D_DAY
   11  LblCom even  none     2      2  C_DATE
   12  LblCom even  none     2      2  C_TIME
   13  LblCom even  none     2      2  C_DAY
   14  LblCom even  none     1      1  RTHOLD2
   15  LblCom even  none     1      1  LTHOLD2
   16  LblCom even  none     1      1  NDX2
   17  LblCom even  none     1      1  IN_LEN
   18  RoData even  UTS     12     14  X9DB$DELTA
   19   Data  even  none     5      5  X9DB$DELTA
   20   Proc  even  none    12     14  X9DB$DELTA

    ****  Entry defs  ****

                              Check   Calling
                             calling  sequence
  Sect OctLoc Primary Altret sequence   type   Parms  Name
    20      0   yes            yes      Std        0  X9DB$DELTA
PL6.E3A0      #001=X9DB$DELTA File=X9DB.:X8A6TSI                                 SAT 08/09/97 10:52 Page:5

  ****  Entry refs  ****

         Check        Calling
        calling       sequence
Altret sequence SRef   type   Args  Name
                       nStd      0 X66_AUTO_0
                       nStd      0 X66_ARET

  ****  Data refs  ****

  Flags:  r = read only, s = secondary
Flgs Name                             Flgs Name                             Flgs Name
     M$UC

  ****  Segment refs  ****

  Flags:  r = read only, s = secondary
Flgs Name                             Flgs Name                             Flgs Name
     ISSID                                 NULLSID
PL6.E3A0      #001=X9DB$DELTA File=X9DB.:X8A6TSI                                 SAT 08/09/97 10:52 Page:6


        1        1        /*T***********************************************************/
        2        2        /*T*                                                         */
        3        3        /*T* Copyright (c) Bull HN Information Systems Inc., 1997    */
        4        4        /*T*                                                         */
        5        5        /*T***********************************************************/
        6        6        X9DB$DELTA: PROC;

      6 20 000000   000000 700200 xent  X9DB$DELTA   TSX0  ! X66_AUTO_0
        20 000001   000052 000000                    ZERO    42,0

        7        7
        8        8            %INCLUDE X8A_SYS_FILE;
        9     6278            %INCLUDE X8A_LIBCOM;
       10     6498
       11     6499            %FPT_ALIB (FPTN=TO_DELTA,CMD=DELTA_CMD,LIBNAME=DELTA,
       12     6500                       RETRN=YES,STCLASS=CONSTANT);
       13     6517            %VLP_NAME (FPTN=DELTA,NAME='DELTA',STCLASS=CONSTANT);
       14     6544
       15     6545    1       DCL 1 DELTA_CMD STATIC,
       16     6546    1             2 *     CHAR(0) INIT ( '     '),  /* PLUGH */
       17     6547    1             2 *     CHAR(0) INIT ('  '),  /* ; */
       18     6548    1             2 *     CHAR(0) INIT ('M '),
       19     6549    1             2 LOC   CHAR(6) INIT ('  '),
       20     6550    1             2 *     CHAR(0) INIT('\I');
       21     6551
       22     6552
       23     6553    1       CALL BINCHAR ( DELTA_CMD.LOC, LIBCOM.X1 );

   6553 20 000002   000017 235000 1                  LDA     LIBCOM+15
        20 000003   000044 773000                    LRL     36
        20 000004   200050 757100                    STAQ    NDX3+1,,AUTO
        20 000005   000000 301500                    BTD
        20 000006   200050 000010                    NDSC9   NDX3+1,,AUTO             cn=0,s=lsgnf,sf=0,n=8
        20 000007   000002 230006 19                 NDSC9   DELTA_CMD+2              cn=1,s=nosgn,sf=0,n=6

       24     6554    1       CALL M$ALIB (TO_DELTA);
PL6.E3A0      #001=X9DB$DELTA File=X9DB.:X8A6TSI                                 SAT 08/09/97 10:52 Page:7

   6554 20 000010   000000 630400 18                 EPPR0   TO_DELTA
        20 000011   000007 713400                    CLIMB   7
        20 000012   401400 401760                    pmme    nvectors=4

       25     6555
       26     6556    1   END X9DB$DELTA;      /* PROC */

   6556 20 000013   000000 702200 xent               TSX2  ! X66_ARET
       27     6557        %EJECT;
PL6.E3A0      #001=X9DB$DELTA File=X9DB.:X8A6TSI                                 SAT 08/09/97 10:52 Page:8

PL6.E3A0      #001=X9DB$DELTA File=X9DB.:X8A6TSI                                 SAT 08/09/97 10:52 Page:9
--  Include file information  --

   X8A_LIBCOM.:X8A6TOU  cannot be made into a system file and is referenced.
   CP_6_SUBS.:LIB_E04  is referenced.
   CP_6_C.:LIB_E04  is referenced.
   CP_6.:LIB_E04  cannot be made into a system file and is referenced.
   Z9A_FLAGS.:Z8A6TOU  is referenced.
   X8A_SYS_FILE.:X8A6TOU  is referenced.
      No diagnostics issued in procedure X9DB$DELTA.
PL6.E3A0      #001=X9DB$DELTA File=X9DB.:X8A6TSI                                 SAT 08/09/97 10:52 Page:10

 **** Variables and constants ****

  ****  Section 001 LblCom LIBCOM

  ****  Scalars and arrays  ****
OctLoc.c.b A Datatyp(siz) R M Lvl/name                 OctLoc.c.b A Datatyp(siz) R M Lvl/name

     0-0-0/w STRC(720)   r     1 LIBCOM

  ****  Section 002 LblCom DEC_OR_COMMA

  ****  Scalars and arrays  ****
OctLoc.c.b A Datatyp(siz) R M Lvl/name                 OctLoc.c.b A Datatyp(siz) R M Lvl/name

     0-0-0/c CHAR              1 DEC_OR_COMMA

  ****  Section 003 LblCom IN_TEMP

  ****  Scalars and arrays  ****
OctLoc.c.b A Datatyp(siz) R M Lvl/name                 OctLoc.c.b A Datatyp(siz) R M Lvl/name

     0-0-0/c CHAR(80)          1 IN_TEMP

  ****  Section 004 LblCom OVRCHR

  ****  Scalars and arrays  ****
OctLoc.c.b A Datatyp(siz) R M Lvl/name                 OctLoc.c.b A Datatyp(siz) R M Lvl/name

     0-0-0/c CHAR              1 OVRCHR

  ****  Section 005 LblCom SELECT_TIME

  ****  Scalars and arrays  ****
OctLoc.c.b A Datatyp(siz) R M Lvl/name                 OctLoc.c.b A Datatyp(siz) R M Lvl/name

     0-0-0/w UBIN              1 SELECT_TIME

PL6.E3A0      #001=X9DB$DELTA File=X9DB.:X8A6TSI                                 SAT 08/09/97 10:52 Page:11
  ****  Section 006 LblCom NO_ADVANCE_OFFSET

  ****  Scalars and arrays  ****
OctLoc.c.b A Datatyp(siz) R M Lvl/name                 OctLoc.c.b A Datatyp(siz) R M Lvl/name

     0-0-0/w UBIN              1 NO_ADVANCE_OFFSET

  ****  Section 007 LblCom DSPLY_SAVE

  ****  Scalars and arrays  ****
OctLoc.c.b A Datatyp(siz) R M Lvl/name                 OctLoc.c.b A Datatyp(siz) R M Lvl/name

     0-0-0/c CHAR(72)          1 DSPLY_SAVE

  ****  Section 008 LblCom D_DATE

  ****  Scalars and arrays  ****
OctLoc.c.b A Datatyp(siz) R M Lvl/name                 OctLoc.c.b A Datatyp(siz) R M Lvl/name

     0-0-0/c CHAR(10)          1 D_DATE

  ****  Section 009 LblCom D_TIME

  ****  Scalars and arrays  ****
OctLoc.c.b A Datatyp(siz) R M Lvl/name                 OctLoc.c.b A Datatyp(siz) R M Lvl/name

     0-0-0/c CHAR(11)          1 D_TIME

  ****  Section 010 LblCom D_DAY

  ****  Scalars and arrays  ****
OctLoc.c.b A Datatyp(siz) R M Lvl/name                 OctLoc.c.b A Datatyp(siz) R M Lvl/name

     0-0-0/c CHAR(3)           1 D_DAY

  ****  Section 011 LblCom C_DATE

PL6.E3A0      #001=X9DB$DELTA File=X9DB.:X8A6TSI                                 SAT 08/09/97 10:52 Page:12
  ****  Scalars and arrays  ****
OctLoc.c.b A Datatyp(siz) R M Lvl/name                 OctLoc.c.b A Datatyp(siz) R M Lvl/name

     0-0-0/c CHAR(6)           1 C_DATE

  ****  Section 012 LblCom C_TIME

  ****  Scalars and arrays  ****
OctLoc.c.b A Datatyp(siz) R M Lvl/name                 OctLoc.c.b A Datatyp(siz) R M Lvl/name

     0-0-0/c CHAR(8)           1 C_TIME

  ****  Section 013 LblCom C_DAY

  ****  Scalars and arrays  ****
OctLoc.c.b A Datatyp(siz) R M Lvl/name                 OctLoc.c.b A Datatyp(siz) R M Lvl/name

     0-0-0/c CHAR(5)           1 C_DAY

  ****  Section 014 LblCom RTHOLD2

  ****  Scalars and arrays  ****
OctLoc.c.b A Datatyp(siz) R M Lvl/name                 OctLoc.c.b A Datatyp(siz) R M Lvl/name

     0-0-0/w UBIN              1 RTHOLD2

  ****  Section 015 LblCom LTHOLD2

  ****  Scalars and arrays  ****
OctLoc.c.b A Datatyp(siz) R M Lvl/name                 OctLoc.c.b A Datatyp(siz) R M Lvl/name

     0-0-0/w UBIN              1 LTHOLD2

  ****  Section 016 LblCom NDX2

  ****  Scalars and arrays  ****
OctLoc.c.b A Datatyp(siz) R M Lvl/name                 OctLoc.c.b A Datatyp(siz) R M Lvl/name
PL6.E3A0      #001=X9DB$DELTA File=X9DB.:X8A6TSI                                 SAT 08/09/97 10:52 Page:13

     0-0-0/w SBIN              1 NDX2

  ****  Section 017 LblCom IN_LEN

  ****  Scalars and arrays  ****
OctLoc.c.b A Datatyp(siz) R M Lvl/name                 OctLoc.c.b A Datatyp(siz) R M Lvl/name

     0-0-0/w UBIN              1 IN_LEN

  ****  Section 018 RoData X9DB$DELTA

  ****  Scalars and arrays  ****
OctLoc.c.b A Datatyp(siz) R M Lvl/name                 OctLoc.c.b A Datatyp(siz) R M Lvl/name

    12-0-0/c STRC(54)    r     1 DELTA                      0-0-0/d STRC(360)   r     1 TO_DELTA

  ****  Section 019  Data  X9DB$DELTA

  ****  Scalars and arrays  ****
OctLoc.c.b A Datatyp(siz) R M Lvl/name                 OctLoc.c.b A Datatyp(siz) R M Lvl/name

     0-0-0/c STRC(153)   r     1 DELTA_CMD

  ****  Auto variables  ****

  ****  Scalars and arrays  ****
OctLoc.c.b A Datatyp(siz) R M Lvl/name                 OctLoc.c.b A Datatyp(siz) R M Lvl/name

     3-0-0/w SBIN              1 LT                         4-0-0/c CHAR(65)          1 LTHOLD
    46-0-0/w SBIN              1 NDX                       47-0-0/w SBIN              1 NDX3
    25-0-0/c CHAR(65)          1 RTHOLD

  ****  BASED and DCB variables  ****

  ****  Scalars and arrays  ****
OctLoc.c.b A Datatyp(siz) R M Lvl/name                 OctLoc.c.b A Datatyp(siz) R M Lvl/name
PL6.E3A0      #001=X9DB$DELTA File=X9DB.:X8A6TSI                                 SAT 08/09/97 10:52 Page:14

     0-0-0N  NULL        r     1 M$UC


   Procedure X9DB$DELTA requires 12 words for executable code.
   Procedure X9DB$DELTA requires 42 words of local(AUTO) storage.

    No errors detected in file X9DB.:X8A6TSI    .
