
     DIRECTORY AND SEGMENT LIST  (OBJECT UNIT NAME '')

      * SYMDEF *        GLOBAL NAME               SEGMENT  OFFSET      ACCESS ATTRIBUTES
     1  X9DL   'X9DL'                              .X9DL       0          R  W  E  L  U

      * SYMREF *        GLOBAL NAME                                    ACCESS ATTRIBUTES
     2  X8ER   'X8ER$ERROR'                                               R  W  E  L  U

      * SECTION *          SIZE          KIND
     3  .X9DL               160           CODE
     4  .X9DL.               54           DATA


     PROGRAM BREAK         234

                                      1 *M*
                                      2 *T***********************************************************
                                      3 *T*                                                         *
                                      4 *T* COPYRIGHT (C) BULL HN INFORMATION SYSTEMS INC., 1997    *
                                      5 *T*                                                         *
                                      6 *T***********************************************************
                        000000        7        SECT    .X9DL,CODE
                        000000        8        ENTDEF  X9DL
                        000000        9        ENTREF  (X8ER,X8ER$ERROR)          ERROR PROCEDURE
                                     10 *
                        000000       11 X9DL   NULL
                                     12 *
      000000 000000 2200 03          13        LDX0    =0,DU
      000001 400000 4750 03          14        FAD     =0.0,DU
                                     15 *
                                     16 *                             IF X IS THE EXPONENT THEN :
                                     17 *                               LOG(16**X) = LOG(2**(4+X)) =
                                     18 *                               4+X*LOG(2) = 4*X
                                     19 *
      000002 000034 4720 00 010NN    20        DFSTR   ARGX
                                     21 *
      000003 000112 5150 00 010NN    22        FCMP    ROOT2          CHECK ARG FOR [.707, 1.414]
      000004 000061 6040 00 010NN    23        TMI     LTRT2
                                     24 *
                        000005       25 GOON1  NULL
      000005 000034 2350 00 010NN    26        LDA     ARGX
      000006 000100 7330 00          27        LRS     64             CONV EXP OF ARGX TO REAL
      000007 042000 4110 03          28        LDE     =17B25,DU
      000010 400000 4750 03          29        FAD     =0.0,DU        NORMALIZE
      000011 000144 4630 00 010NN    30        DFMP    =8.0XD0
      000012 002200 4610 03          31        FMP     =4.0DX0,DU     MULTIPLY BY 4 FOR HEX
      000013 001400 4750 03          32        FAD     =-.5DX0,DU     COMPENSATE FOR RANGE CHANGE
      000014 000042 4550 00 010NN    33        FST     EXPNT
      000015 000034 4330 00 010NN    34        DFLD    ARGX           LOAD ARGX
                                     35 *
      000016 000070 6000 00 010NN    36        TZE     ERR            ERR IF ARGX IS NEG OR 0
      000017 000101 6040 00 010NN    37        TMI     ERR2

                                     38 *
      000020 000000 4110 03          39        LDE     =0,DU          SET EXP TO 0, RANGE[.5,1]
                                     40 *                             Z= 2 ** .5 * (ARGX-1) / ARGX + 1
                                     41 *                             WHERE, ARGX [.5,1]; THIS IS EQUAL TO
                                     42 *                              Z = (ARGX - RT202) / (ARGX + RT202),
                                     43 *                             WHERE RT202 = SQRT(2)/2.
                                     44 *
                                     45 *                             THIS LOOP GETS ARGX INTO THE RANGE
                                     46 *                             [ .5,1 ], BY SHIFTING AND INCREMENTING
                                     47 *                             X0 BY ONE FOR EACH SHIFT.
                                     48 *
                                     49 *
                        000021       50 LOOP   NULL
                                     51 *
      000021 000146 5150 00 010NN    52        FCMP   =5.0DX-1
      000022 000026 6050 00 010NN    53        TPL     CONT
      000023 000002 6200 10          54        EAX0    2,0
      000024 000001 7370 00          55        LLS     1
      000025 000021 7100 00 010NN    56        TRA     LOOP
                                     57 *
                        000026       58 CONT   NULL
                                     59 *
      000026 000114 4770 00 010NN    60        DFAD    RT202
      000027 000036 4720 00 010NN    61        DFSTR   TEMP
      000030 000112 5770 00 010NN    62        DFSB    ROOT2
                                     63 *
                        000031       64 GOON2  NULL
                                     65 *
      000031 000036 5670 00 010NN    66        DFDV    TEMP
      000032 000034 4720 00 010NN    67        DFSTR   Z
                                     68 *
                                     69 *                             NOW, ALOG = Z * P(Z ** 2) WHERE
                                     70 *                             P(Y) = P00 + Y * (P01 + Y * (P02 + Y * P03))
                                     71 *                             THIS APPROXIMATION IS VALID OVER THE
                                     72 *                             ARG RANGE [.707,1.414].
                                     73 *
      000033 000034 4630 00 010NN    74        DFMP    Z

      000034 000040 4720 00 010NN    75        DFSTR   PQARG
      000035 000126 4630 00 010NN    76        DFMP    P03
      000036 000124 4770 00 010NN    77        DFAD    P02
      000037 000040 4630 00 010NN    78        DFMP    PQARG
      000040 000122 4770 00 010NN    79        DFAD    P01
      000041 000040 4630 00 010NN    80        DFMP    PQARG
      000042 000120 4770 00 010NN    81        DFAD    P00
      000043 000036 4720 00 010NN    82        DFSTR   TEMP
      000044 000040 4330 00 010NN    83        DFLD    PQARG
                                     84 *      DFMP    Q04            (Q04 = 1.0)
      000045 000136 4770 00 010NN    85        DFAD    Q03
      000046 000040 4630 00 010NN    86        DFMP    PQARG
      000047 000134 4770 00 010NN    87        DFAD    Q02
      000050 000040 4630 00 010NN    88        DFMP    PQARG
      000051 000132 4770 00 010NN    89        DFAD    Q01
      000052 000040 4630 00 010NN    90        DFMP    PQARG
      000053 000130 4770 00 010NN    91        DFAD    Q00
      000054 000036 5270 00 010NN    92        DFDI    TEMP
      000055 000034 4630 00 010NN    93        DFMP    Z
      000056 000044 4770 10 010NN    94        DFAD    TABF,0
      000057 000042 4750 00 010NN    95        FAD     EXPNT          ADD THE ORIGINAL EXP.
      000060 000001 7100 11          96        TRA     1,1            NORMAL RETURN
                                     97 *
                        000061       98 LTRT2  NULL
                                     99 *
      000061 000114 5150 00 010NN   100        FCMP    RT202
      000062 000005 6040 00 010NN   101        TMI     GOON1          IF ARGX [.707, 1.414], DON'T
      000063 000042 4500 00 010NN   102        STZ     EXPNT          CHANGE THE RANGE
      000064 000150 4750 00 010NN   103        FAD     =1.0DX0
      000065 000036 4720 00 010NN   104        DFSTR   TEMP
      000066 000152 4750 00 010NN   105        FAD     =-2.0DX0
      000067 000031 7100 00 010NN   106        TRA     GOON2
                                    107 *
                        000070      108 ERR    NULL
                                    109 *
                                    110 *
                                    111 *                             ERR, ARGX <= 0.0

                                    112 *                             IT IS ALREADY SET UP
                                    113 *
                                    114 *
      000070 000101 6040 00 010NN   115        TMI     ERR2           IS ARGX LESS THAN ZERO
      000071 000116 4310 00 010NN   116        FLD     SMLNUM         SET RESULT TO SMALLEST NUM
      000072 000060 2210 03         117        LDX1    48,DU
      000073 000031 4410 00 010NN   118        SXL1    ERRLEN
      000074 000032 6314 00 010NN   119        EPPR1   NUMARG
      000075 000000 6304 00 010NN   120        EPPR0   ERRMS1
      000076 000000 7010 00 020NN   121        TSX1    X8ER
      000077 000000 0110 07         122        NOP     0,DL
      000100 000001 7100 11         123        TRA     1,1            RETURN TO CALLING PROGRAM
                                    124 *
                                    125 *
                        000101      126 ERR2   NULL
                                    127 *
                                    128 *
                                    129 *                             LOG(-X) SET RESULT TO 0.0
                                    130 *
                                    131 *
      000101 400000 4310 03         132        FLD     =0.0,DU
      000102 000054 2210 03         133        LDX1    44,DU
      000103 000031 4410 00 010NN   134        SXL1    ERRLEN
      000104 000032 6314 00 010NN   135        EPPR1   NUMARG
      000105 000015 6304 00 010NN   136        EPPR0   ERRMS2
      000106 000000 7010 00 020NN   137        TSX1    X8ER
      000107 000000 0110 07         138        NOP     0,DL
      000110 000001 7100 11         139        TRA     1,1
                                    140 *
                                    141 *                               CONSTANTS
                                    142 *
                                    143 *
      000111 000000011007
                        000112      144        EVEN
      000112 002055202363           145 ROOT2 EDEC     1.41421356237309504880DX00    SQRT(2)
      000113 147747363110
      000114 000552023631           146 RT202 EDEC     .70710678118654752440DX00      SQRT(2)/2

      000115 477473631102
      000116 377702715347           147 SMLNUMEDEC     -1EX152                       SMALLEST NUMBER -(10 ** 152)
                                    148 *
                                    149 *                             THESE CONSTANTS ARE FROM
                                    150 *                             HART 2662 MODIFIED TO GIVE
                                    151 *                             ALOG2 INSTEAD OF ALOG.
                                    152 *                             P'S ARE HART'S P'S/ALOGE(2.)
                                    153 *
      000117 000000011007
                        000120      154        EVEN
      000120 006100171711           155 P00    DEC     .51390458864923992069XD03
      000121 437121505724
      000122 007634771341           156 P01    DEC     -.79210250577344319906XD03
      000123 056376644076
      000124 006052455223           157 P02    DEC     .34070763364903118663XD03
      000125 572450215316
      000126 005671122617           158 P03    DEC     -.35419160305337449948XD02
      000127 220231325351
      000130 004544154227           159 Q00    DEC     .17810575834951956203XD03
      000131 652616712022
      000132 007726207007           160 Q01    DEC     -.33389039541217149928XD03
      000133 413660334102
      000134 004603406034           161 Q02    DEC     .19375591463035879517XD03
      000135 760376537401
      000136 005670745074           162 Q03    DEC     -.35526251110400238735XD02
      000137 667153071771
      000140 002040000000           163 Q04    DEC     1.0XD0
      000141 000000000000
                                    164 *
                                    165 *
                                    166 *
                        000000      167        SECT    .X9DL.,DATA
                                    168 *
                                    169 *
      000000 000002006000   010NN   170 ERRMS1 VFD     18/ERM1,O18/006000
      000001 000031006000   010NN   171        VFD     18/ERRLEN,O18/006000
      000002 114117107050           172 ERM1   UASCI   11,LOG(0) NOT ALLOWED, RESULT SET TO -(10 ** 152)

      000003 060051040116
      000004 117124040101
      000005 114114117127
      000006 105104054040
      000007 122105123125
      000010 114124040123
      000011 105124040124
      000012 117040055050
      000013 061060040052
      000014 052040061065
      000015 000031006000   010NN   173 ERRMS2 VFD     18/ERRLEN,O18/006000
      000016 000017006000   010NN   174        VFD     18/ERM2,O18/006000
      000017 114117107050           175 ERM2   UASCI   10,LOG(-X) NOT ALLOWED, RESULT SET TO 0.0
      000020 055130051040
      000021 116117124040
      000022 101114114117
      000023 127105104054
      000024 040122105123
      000025 125114124040
      000026 123105124040
      000027 124117040060
      000030 056060040040
      000031 000000000000           176 ERRLEN DEC     0
      000032 000002000000           177 NUMARG VFD     18/2,18/0
                                    178 *
                                    179 *
                                    180 *
                        000034      181        EVEN
                        000034      182 ARGX   BSS     2
                        000034      183 Z      EQU     ARGX
                        000036      184 TEMP   BSS     2
                        000040      185 PQARG  BSS     2
                        000042      186 EXPNT  BSS     1
                        000044      187        EVEN
      000044 400000000000           188 TABF   DEC     0XD0
      000045 000000000000
      000046 001000000000           189        DEC     -1XD0

      000047 000000000010
      000050 003700000000           190        DEC     -2XD0
      000051 000000000000
      000052 003640000000           191        DEC     -3XD0
      000053 000000000000
          LITERALS OF SECTION .X9DL
      000144 002400000000
      000145 000000000000
      000146 000400000000
      000147 000000000000
      000150 002040000000
      000151 000000000000
      000152 003700000000
      000153 000000000000
                                    192        END
 GMAP6 VERSION/ASSEMBLY DATES  JNPA NO TTL/2(_00]      JNPB NO TTL/2(_00]      JNPC NO TTL/2(_00]
 THERE WERE    NO  WARNING FLAGS IN THE ABOVE ASSEMBLY

                             OCTAL    SYMBOL   * KIND *      REFERENCES BY ALTER NO. AN
    34   ARGX     REL   .X9DL.   182   20W   26R   34R  182   183
    26   CONT     REL   .X9DL     58   53T   58
     2   ERM1     REL   .X9DL.   172  170   172
    17   ERM2     REL   .X9DL.   175  174   175
   101   ERR2     REL   .X9DL    126   37T  115T  126
    70   ERR      REL   .X9DL    108   36T  108
    31   ERRLEN   REL   .X9DL.   176  118W  134W  171   173   176
     0   ERRMS1   REL   .X9DL.   170  120   170
    15   ERRMS2   REL   .X9DL.   173  136   173
    42   EXPNT    REL   .X9DL.   186   33W   95R  102W  186
     5   GOON1    REL   .X9DL     25   25   101T
    31   GOON2    REL   .X9DL     64   64   106T
  6000   .X9DL    SEC   SECT       7    7
  6001   .X9DL.   SEC   SECT     167  167
    21   LOOP     REL   .X9DL     50   50    56T
    61   LTRT2    REL   .X9DL     98   23T   98
    32   NUMARG   REL   .X9DL.   177  119   135   177
   120   P00      REL   .X9DL    155   81R  155
   122   P01      REL   .X9DL    156   79R  156
   124   P02      REL   .X9DL    157   77R  157
   126   P03      REL   .X9DL    158   76R  158
    40   PQARG    REL   .X9DL.   185   75W   78R   80R   83R   86R   88R   90R  185
   130   Q00      REL   .X9DL    159   91R  159
   132   Q01      REL   .X9DL    160   89R  160
   134   Q02      REL   .X9DL    161   87R  161
   136   Q03      REL   .X9DL    162   85R  162
   140   Q04      REL   .X9DL    163  163
   112   ROOT2    REL   .X9DL    145   22    62R  145
   114   RT202    REL   .X9DL    146   60R  100   146
   116   SMLNUM   REL   .X9DL    147  116R  147
    44   TABF     REL   .X9DL.   188   94R  188
    36   TEMP     REL   .X9DL.   184   61W   66R   82W   92R  104W  184
NO VAL   X8ER     EXT   SYMREF          9   121T  137T
     0   X9DL     REL   .X9DL     11    8    11
    34   Z        REL   .X9DL.   183   67W   74R   93R  183
