
     DIRECTORY AND SEGMENT LIST  (OBJECT UNIT NAME '')

      * SYMDEF *        GLOBAL NAME               SEGMENT  OFFSET      ACCESS ATTRIBUTES
     1  CVDR   'X9DR$CVDR'                         .X9DR       6          R  W  E  L  U
     2  CVDQ   'X9DR$CVDQ'                         .X9DR      10          R  W  E  L  U
     3  CVDRS  'X9DR$CVDR_SMALL'                   .X9DR       0          R  W  E  L  U
     4  CVDQS  'X9DR$CVDQ_SMALL'                   .X9DR       2          R  W  E  L  U

      * SECTION *          SIZE          KIND
     5  .X9DR               570           CODE
     6  .X9DR.               42           DATA


     PROGRAM BREAK         632

                                      1 *M*  CVDR & CVDQ  -  CONVERT DECIMAL TO FLOAT OR DOUBLE FLOAT
                                      2 *T***********************************************************
                                      3 *T*                                                         *
                                      4 *T* COPYRIGHT (C) BULL HN INFORMATION SYSTEMS INC., 1997    *
                                      5 *T*                                                         *
                                      6 *T***********************************************************
                                      7        LBL     CVDR&DQ,C82JBB.135   DECIMAL TO FLOATING PT CONVT
                                DECIMAL TO FLOATING POINT CONVERSION
                        000000        9        SECT    .X9DR,CODE
                                     10 *P*
                                     11 *P*
                                     12 *P*     NAME       : CVDR & CVDQ
                                     13 *P*     PURPOSE    : TO CONVERT A DECIMAL NUMBER TO EITHER
                                     14 *P*                  FLOATING POINT OR DOUBLE FLOATING POINT.
                                     15 *P*
                                     16 *P*
                                     17 *D*
                                     18 *D*
                                     19 *D*     NAME       : CVDR & CVDQ
                                     20 *D*     CALL       :
                                     21 *D*                  EPPRN    DECGUY
                                     22 *D*                  STPN     ARGLST
                                     23 *D*                  EPPRN    REAL
                                     24 *D*                  STPN     ARGLST+1
                                     25 *D*                  EPPRN    DESC     DECIMAL DESCRIPTOR
                                     26 *D*                  STPN     ARGLST+2
                                     27 *D*                  ERRP0    ARGLST
                                     28 *D*                  EPPR1    NUMARG   NUMBER OF ARGS
                                     29 *D*                  TSX1     CVDR (CVDQ)
                                     30 *D*                  NOP      0,DL
                                     31 *D*                    . . .
                                     32 *D*           ARGLST BSS      3
                                     33 *D*           NUMARG VFD      18/3,18/0
                                     34 *D*                    . . .
                                     35 *D*     INTERFACE  : NONE
                                     36 *D*     INPUT      :
                                     37 *D*                  1.) THE DECIMAL NUMBER TO BE CONVERTED.
                                     38 *D*                  2.) THE DECIMAL DESCRIPTOR ( EIS ) .
                                     39 *D*     OUTPUT     : THE RESULT, EITHER FLOAT OR DOUBLE FLOAT
                                     40 *D*     SCRATCH    : NONE
                                     41 *D*     REFERENCE  : X8LC$DOCUMENT, COBOL-74 KN25 ON CP6.
                                     42 *D*                  BASICALLY MODIFIED TO OUR CALLING SEQUENCES
                                     43 *D*                  AND RETURNING SEQUENCES AND CONVENTIONS.
                                     44 *D*
                                     45 *D*
                                DECIMAL TO FLOATING POINT CONVERSION
                                     46 *V*
                                     47 *V*
                                     48 *V*                    GENERAL_DESCRIPTION
                                     49 *V*
                                     50 *V*     THE GENERAL ALGORITHM IS AS FOLLOWS:
                                     51 *V*
                                     52 *V*            1.) CONVERT THE DECIMAL NUMBER TO FLOATING POINT ASCII
                                     53 *V*            2.) DETERMINE IF THE EXPONENT IS POSITIVE OR NEGATIVE
                                     54 *V*            3.) CONVERT THE MANTISSA TO A BINARY NUMBER.
                                     55 *V*            4.) DETERMINE THE VALUE OF THE EXPONENT IN BINARY
                                     56 *V*            5.) MOVE THE ANSWER FROM THE EAQ TO THE RESULT
                                     57 *V*
                                     58 *V*
                        000000       59        ENTDEF  (CVDR,X9DR$CVDR)      SINGLE WORD BIN FLT ANSWER
                        000000       60        ENTDEF  (CVDQ,X9DR$CVDQ)      DOUBLE WORD BIN FLT ANSWER
                        000000       61        ENTDEF  (CVDRS,X9DR$CVDR_SMALL) SINGLE,EXP < -128
                        000000       62        ENTDEF  (CVDQS,X9DR$CVDQ_SMALL) DOUBLE,EXP < -128
                                     63
                        000000       64 CVDRS  NULL
      000000 000010 4500 00 010NN    65        STZ     DBL
      000001 000003 7100 00 010NN    66        TRA     GSMALL
                        000002       67 CVDQS  NULL
      000002 000010 7500 00 010NN    68        STC2    DBL
                        000003       69 GSMALL NULL
      000003 777000 2350 03          70        LDA     -512,DU
      000004 000040 7550 00 010NN    71        STA     EXPON
      000005 000012 7100 00 010NN    72        TRA     GTDTA1
                                     73
                        000006       74 CVDR   NULL
      000006 000010 4500 00 010NN    75        STZ     DBL
      000007 000011 7100 00 010NN    76        TRA     GTDATA
                        000010       77 CVDQ   NULL
      000010 000010 7500 00 010NN    78        STC2    DBL                   SET DBL FLAG TO TRUE (NON ZERO)
                        000011       79 GTDATA NULL
      000011 000040 4500 00 010NN    80        STZ     EXPON
                        000012       81 GTDTA1 NULL
      000012 000000 4775 00          82        LDP7    0,,0                  POINTER TO THE DECIMAL GUY
                                DECIMAL TO FLOATING POINT CONVERSION
      000013 000001 4765 00          83        LDP6    1,,0                  POINTER TO THE RESULT
      000014 000002 4755 00          84        LDP5    2,,0                  POINTER TO THE DECIMAL DESCRIPTOR
      000015 500000 2351 00          85        LDA     0,,5
      000016 077777 3750 07          86        ANA     =O077777,DL
      000017 700000 2750 03          87        ORA     =O700000,DU           PLACE PTR REG TAG IN DESCRIPTOR
      000020 000041 7550 00 010NN    88        STA     DSCPT
                                DECIMAL TO FLOATING POINT CONVERSION
                                     90 *V*
                                     91 *V*
                                     92 *V*                    CONVERT_TO_ASCII
                                     93 *V*
                                     94 *V*     THE FIRST PART OF THE ALGORITHM STATES TO CONVERT THE
                                     95 *V*     DECIMAL NUMBER TO ASCII FLOATING POINT.  THIS IS DONE
                                     96 *V*     HERE ALONG WITH SHIFTING THE EXPONENT OFF THE MANTISSA.
                                     97 *V*
                                     98 *V*
      000021 000200 3005 20          99        MVN     (1,0,1),(0,0,0),RND
      000022 000041 0000 00 010NN   100        ARG     DSCPT
      000023 000014 6000 76 010NN   101        NDSC9   FLOAT,3,62,LSF
                                    102 *
                                    103 *                                    EXPONENT IN UPPER HALF FLOAT+16
                                    104 *
      000024 000034 2350 00 010NN   105        LDA     FLOAT+16              PUT EXPONENT IN THE A (BITS 1-8).
      000025 000001 7350 00         106        ALS     1
      000026 000011 7310 00         107        ARS     9                     SHIFT AND
      000027 000000 3034 00         108 CHKSIZ CMPN                          GUARD AGAINST OVERFLOW.
      000030 000074 0700 25 010NN   109        NDSC4   TWO68,0,21,NS,0
      000031 000014 6100 75 010NN   110        NDSC9   FLOAT,3,61,LSS,0
      000032 000040 6020 00 010NN   111        TNC     SIZEOK                OK, NO OVERFLOW POSSIBLE.
      000033 060000 1004 00         112        MLR     ,,060                 DIVIDE BY 10 BY SHIFTING
      000034 000015 0000 73 010NN   113        ADSC9   FLOAT+1,0,59          RIGHT ONE DIGIT,ALL BUT
      000035 000015 2000 73 010NN   114        ADSC9   FLOAT+1,1,59          SIGN, '0' FILL.
      000036 000002 0750 03         115        ADA     2,DU                  ALSO ADD 1 TO EXPONENT
      000037 000027 7100 00 010NN   116        TRA     CHKSIZ
      000040 000040 0550 00 010NN   117 SIZEOK ASA     EXPON                 STORE THE SCALE FACTOR
                                DECIMAL TO FLOATING POINT CONVERSION
                                    119 *V*
                                    120 *V*
                                    121 *V*                    MANTISSA_TO_BINARY
                                    122 *V*
                                    123 *V*     NOW THAT THE EXPONENT WAS SHIFTED OUT THE MANTISSA CAN
                                    124 *V*     BE CONVERTED TO BINARY IN THE VARIABLE BMANT AND NORMALIZED.
                                    125 *V*
                                    126 *V*
      000041 000000 3054 00         127        DTB     (0,0,0),(0,0,0)
      000042 000014 6100 75 010NN   128        NDSC9   FLOAT,3,61,LSS
      000043 000036 000010  010NN   129        ZERO    BMANT,8
      000044 000036 2370 00 010NN   130        LDAQ    BMANT
      000045 042000 4110 03         131        LDE     =17B25,DU
      000046 000003 7370 00         132        LLS     3               SHIFTING BY 3 IS TO MULTIPLY BY EIGHT
      000047 400000 4750 03         133        FAD     =0.0,DU         NORMALIZE
      000050 000055 6000 00 010NN   134        TZE     EXIT
                                DECIMAL TO FLOATING POINT CONVERSION
                                    136 *V*
                                    137 *V*
                                    138 *V*                    VALUE_OF_EXPONENT
                                    139 *V*
                                    140 *V*
                                    141 *V*    THIS CODE USES THE VALUE OF EXPON (THE EXPONENT * 2) AS AN
                                    142 *V*    INDEX INTO A TABLE (PWTEN) CONTAINING THE POWERS OF 10,
                                    143 *V*    IE.,  1 * 10 ** 1, 1 * 10 ** 2 ... 1 * 10 ** 152
                                    144 *V*
                                    145 *V*    THEN, IF THE EXPONENT IS POSITIVE THE BINARY MANTISSA IS
                                    146 *V*    IS MULTIPLIED BY THE CONSTANT FOUND IN THE TABLE (PWTEN).
                                    147 *V*
                                    148 *V*    IF THE EXPONENT IS NEGATIVE THE BINARY MANTISSA (BMANT)
                                    149 *V*    IS DIVIDED BY THE CONSTANT FOUND IN THE TABLE (PWTEN).
                                    150 *V*
                                    151 *V*    IF THE EXPONENT IS ZERO; THE BINARY MANTISSA IS UNCHANGED.
                                    152 *V*
                                    153 *V*
                                    154 *V*
                                    155 *V*
      000051 000040 2200 00 010NN   156        LDX0    EXPON           CHECK .EXPONENT FOR ZERO
      000052 000055 6000 00 010NN   157        TZE     EXIT
      000053 000063 6040 00 010NN   158        TMI     NEGXP           EXPONENT IS NEGATIVE
      000054 000076 4630 10 010NN   159        DFMP    PWTEN-2,X0
                                DECIMAL TO FLOATING POINT CONVERSION
                                    161 *V*                    COMMON_EXIT
                                    162 *V*
                                    163 *V*    AT THIS POINT, THE FLOATING POINT NUMBER CONVERSION IS
                                    164 *V*    COMPLETE AND ALL THAT REMAINS IS TO STORE THE RESULT IN
                                    165 *V*    THE RETURN PARAMETER (PR6).  THE COMP-11/COMP-12 FLAG (DBL)
                                    166 *V*    IS CHECKED AND THE APPROPRIATE STORE IS MADE.
                                    167 *V*
                                    168 *V*
                        000055      169 EXIT   NULL
      000055 000010 2340 00 010NN   170        SZN     DBL
      000056 000061 6010 00 010NN   171        TNZ     DBPREC
      000057 600000 4701 00         172        FSTR    0,,6
      000060 000001 7100 11         173        TRA     1,1
                        000061      174 DBPREC NULL
      000061 600000 4721 00         175        DFSTR   0,,6
      000062 000001 7100 11         176        TRA     1,1
                                DECIMAL TO FLOATING POINT CONVERSION
                                    178 *V*
                                    179 *V*
                                    180 *V*                    NEGATIVE_EXPONENT
                                    181 *V*
                                    182 *V*    THE NEGATIVE EXPONENT IS NEGATED TO YIELD A POSITIVE OFFSET
                                    183 *V*    INTO THE CONSTANT TABLE (PWTEN).  THE BINARY MANTISSA (BMANT)
                                    184 *V*    IS THEN DIVIDED BY THIS CONSTANT LEAVING THEN RESULT IS THE EAQ.
                                    185 *V*
                                    186 *V*
                        000063      187 NEGXP  NULL
      000063 000040 7400 00 010NN   188        STX0    TEMP
      000064 000000 2200 03         189        LDX0    0,DU
      000065 000040 1200 00 010NN   190        SBLX0   TEMP
      000066 000400 3000 03         191        CANX0   256,DU           CHECK FOR BIG NEGATIVE EXPONENT.
      000067 000072 6000 00 010NN   192        TZE     NOTBIG
      000070 000476 5670 00 010NN   193        DFDV    PW128
      000071 000377 3600 03         194        ANX0    255,DU
                        000072      195 NOTBIG NULL
      000072 000076 5670 10 010NN   196        DFDV    PWTEN-2,X0       DIVIDE BY PROPER SCALE FACTOR
      000073 000055 7100 00 010NN   197        TRA     EXIT
                                DECIMAL TO FLOATING POINT CONVERSION
                                    199 *
                                    200 *       CVDR --CONSTANTS
                                    201 *
                        000010      202 X0     BOOL    10
                        000001      203 IND    EQU     1
                        000001      204 RND    EQU     1
                        000000      205 LSF    EQU     0
                        000001      206 LSS    EQU     1
                        000003      207 NS     EQU     3
      000074 051121107220           208 TWO68  EDEC    21P295147905179352825856
      000075 121171065050
      000076 045205140000
      000077 000000011007
      000100 002500000000           209 PWTEN EDEC     1.XD1,1.XD2,1.XD3,1.XD4,1.XD5,1.XD6,1.XD7,1.XD8,1.XD9
      000101 000000000000
      000102 004310000000
      000103 000000000000
      000104 006175000000
      000105 000000000000
      000106 010116100000
      000107 000000000000
      000110 012060650000
      000111 000000000000
      000112 012750220000
      000113 000000000000
      000114 014461132000
      000115 000000000000
      000116 016276570200
      000117 000000000000
      000120 020167153120
      000121 000000000000
      000122 022112402762           210        DEC     1.XD10,1.XD11,1.XD12,1.XD13,1.XD14,1.XD15,1.XD16,1.XD17
      000123 000000000000
      000124 024056441667
      000125 200000000000
      000126 024721522450
      000127 400000000000
                                DECIMAL TO FLOATING POINT CONVERSION
      000130 026443023471
      000131 240000000000
      000132 030265714203
      000133 644000000000
      000134 032161537522
      000135 306400000000
      000136 034107033623
      000137 374040000000
      000140 036054321274
      000141 135424000000
      000142 036674055531           211        DEC     1.XD18,1.XD19,1.XD20,1.XD21,1.XD22,1.XD23,1.XD24,1.XD25
      000143 647310000000
      000144 040425434430
      000145 110475000000
      000146 042255361657
      000147 055306100000
      000150 044154327115
      000151 334273650000
      000152 046103606360
      000153 311565311000
      000154 050052264026
      000155 176051275500
      000156 050647410336
      000157 354635550200
      000160 052410545213
      000161 024002441120
      000162 054245337226           212        DEC     1.XD26,1.XD27,1.XD28,1.XD29,1.XD30,1.XD31,1.XD32,1.XD33
      000163 714401464562
      000164 056147313436
      000165 237641000747
      000166 060100477162
      000167 743704500461
      000170 062050307407
      000171 656332710276
      000172 062623713116
      000173 320214723557
      000174 064374336761
                                DECIMAL TO FLOATING POINT CONVERSION
      000175 002130044246
      000176 066235613266
      000177 501267026547
      000200 070142467062
      000201 110662316141
      000202 072075502337           213        DEC     1.XD34,1.XD35,1.XD36,1.XD37,1.XD38,1.XD39,1.XD40,1.XD41
      000203 255417400674
      000204 074046411413
      000205 454351540426
      000206 074601137163
      000207 674440705332
      000210 076360573410
      000211 325664433310
      000212 100226355145
      000213 205520661075
      000214 102136024177
      000215 223422416546
      000216 104072614517
      000217 434153451140
      000220 106044567721
      000221 561503171574
      000222 106557257061           214        DEC     1.XD42,1.XD43,1.XD44,1.XD45,1.XD46,1.XD47,1.XD48,1.XD49
      000223 160240301327
      000224 110345455336
      000225 606144170706
      000226 112217374313
      000227 163676513434
      000230 114131535577
      000231 010327117161
      000232 116070032457
      000233 305206361407
      000234 120043020475
      000235 473224026744
      000236 120536246150
      000237 120710345353
      000240 122332747701
      000241 062435217323
                                DECIMAL TO FLOATING POINT CONVERSION
      000242 124210660730           215        DEC     1.XD50,1.XD51,1.XD52,1.XD53,1.XD54,1.XD55,1.XD56,1.XD57
      000243 537462231504
      000244 126125416447
      000245 333577340012
      000246 130065351070
      000247 511257514007
      000250 132041321543
      000251 315655617404
      000252 132516060742
      000253 012311633051
      000254 134320636455
      000255 206376100731
      000256 136202403074
      000257 224036650450
      000260 140121441745
      000261 534423211271
      000262 142062765157           216        DEC     1.XD58,1.XD59,1.XD60,1.XD61,1.XD62,1.XD63,1.XD64,1.XD65
      000263 431654025664
      000264 142775624133
      000265 402270332404
      000266 144476474471
      000267 141363210443
      000270 146307105703
      000271 574730025266
      000272 150174353532
      000273 256047015261
      000274 152115623230
      000275 354630310257
      000276 154060474037
      000277 223777175155
      000300 154746130470
      000301 707770344105
      000302 156457667303           217        DEC     1.XD66,1.XD67,1.XD68,1.XD69,1.XD70,1.XD71,1.XD72,1.XD73
      000303 434773216453
      000304 160275722472
      000305 162075031073
      000306 162166543504
                                DECIMAL TO FLOATING POINT CONVERSION
      000307 307246117545
      000310 164112136212
      000311 574447661637
      000312 166056272726
      000313 555670717103
      000314 166717515143
      000315 112471027242
      000316 170441620175
      000317 756503516445
      000320 172265072116
      000321 565112221067
      000322 174161144261           218        DEC     1.XD74,1.XD75,1.XD76,1.XD77,1.XD78,1.XD79,1.XD80,1.XD81
      000323 151156332543
      000324 176106576556
      000325 601605010536
      000326 200054157145
      000327 161063105333
      000330 200672127764
      000331 152777266211
      000332 202424266770
      000333 502677461726
      000334 204254562273
      000335 311627577146
      000336 206153747365
      000337 076076657377
      000340 210103360531
      000341 146647215540
      000342 212052126327           219        DEC     1.XD82,1.XD83,1.XD84,1.XD85,1.XD86,1.XD87,1.XD88,1.XD89
      000343 600210430434
      000344 212645540155
      000345 402525365426
      000346 214407434104
      000347 341525331356
      000350 216244561452
      000351 615025307725
      000352 220146746772
      000353 570115274745
                                DECIMAL TO FLOATING POINT CONVERSION
      000354 222100260274
      000355 553060266057
      000356 224050156165
      000357 742736161635
      000360 224622116233
      000361 335256162046
      000362 226373260741           220        DEC     1.XD90,1.XD91,1.XD92,1.XD93,1.XD94,1.XD95,1.XD96,1.XD97
      000363 112254707230
      000364 230235056454
      000365 556354034437
      000366 232142135073
      000367 745023421663
      000370 234075272145
      000371 357114153120
      000372 236046264277
      000373 325357502762
      000374 236577413572
      000375 126534235564
      000376 240357547254
      000377 266131542451
      000400 242225640453
      000401 561670035471
      000402 244135504273           221        DEC     1.XD98,1.XD99,1.XD100,1.XD101,1.XD102,1.XD103,1.XD104
      000403 247123022404
      000404 246072412565
      000405 050363713442
      000406 250044446551
      000407 131230337166
      000410 250555603033
      000411 574764270227
      000412 252344461721
      000413 256070563137
      000414 254216677142
      000415 654643347773
      000416 256131227375
      000417 614006120775
      000420 260067636536           222        DEC     1.XD105,1.XD106,1.XD107,1.XD108,1.XD109,1.XD110,1.XD111
                                DECIMAL TO FLOATING POINT CONVERSION
      000421 467403662476
      000422 262042703133
      000423 102542317507
      000424 262534637617
      000425 232730034304
      000426 264332003671
      000427 440647021572
      000430 266210202323
      000431 764410313055
      000432 270125121404
      000433 370645176734
      000434 272065162742
      000435 633407217251
      000436 274041207655           223        DEC     1.XD112,1.XD113,1.XD114,1.XD115,1.XD116,1.XD117,1.XD118
      000437 601144431452
      000440 274514516311
      000441 413755377643
      000442 276317720775
      000443 747364337706
      000444 300201742476
      000445 560530613734
      000446 302121155507
      000447 146327367351
      000450 304062604414
      000451 400006532522
      000452 304773455175
      000453 000102612462
      000454 306475174216           224        DEC     1.XD119,1.XD120,1.XD121,1.XD122,1.XD123,1.XD124,1.XD125
      000455 100051566477
      000456 310306215530
      000457 650032052107
      000460 312173730427
      000461 411020232255
      000462 314115347256
      000463 545512140354
      000464 316060320455
      000465 137416274223
                                DECIMAL TO FLOATING POINT CONVERSION
      000466 316744045703
      000467 673217532702
      000470 320456427532
      000471 325031630631
                        000476      225 PW128  EQU     *+4              ADDR (1.XD128)
      000472 322275056630           226        DEC     1.XD126,1.XD127,1.XD128,1.XD129,1.XD130,1.XD131,1.XD132
      000473 405120077400
      000474 324166135177
      000475 243162047540
      000476 326111672217
      000477 446007230634
      000500 330056124331
      000501 567604437401
      000502 330715514201
      000503 255455473017
      000504 332440417520
      000505 654374404711
      000506 334264251622
      000507 413635643036
      000510 336160552073           227        DEC     1.XD133,1.XD134,1.XD135,1.XD136,1.XD137,1.XD138,1.XD139
      000511 447302505723
      000512 340106342245
      000513 170471513544
      000514 342054015347
      000515 213304017236
      000516 342670206410
      000517 561650231057
      000520 344423124045
      000521 347111137535
      000522 346253764427
      000523 320355573632
      000524 350153370656
      000525 502224455300
      000526 352103133415           228        DEC     1.XD140,1.XD141,1.XD142,1.XD143,1.XD144,1.XD145,1.XD146
      000527 111334674270
      000530 354051771150
      000531 155712025563
                                DECIMAL TO FLOATING POINT CONVERSION
      000532 354643674022
      000533 112744331200
      000534 356406325413
      000535 256656607620
      000536 360244005347
      000537 055215164672
      000540 362146403320
      000541 334230211024
      000542 364100042102
      000543 211537125515
      000544 366050025251           229        DEC     1.XD147,1.XD148,1.XD149,1.XD150,1.XD151,1.XD152
      000545 326033365420
      000546 366620325236
      000547 134422627237
      000550 370372205242
      000551 671653576443
      000552 372234323245
      000553 624113257066
      000554 374141604047
      000555 474457055342
      000556 376075062430
      000557 605675334315
                                DECIMAL TO FLOATING POINT CONVERSION
                                    231 *        CVDR --DEFINITION OF TEMP STORAGE
                        000000      232        SECT    .X9DR.,DATA
                                    233 *
                                    234 *
                        000000      235 REGS  8BSS     8
                        000010      236 DBL    BSS     1
                        000011      237 PR5    BSS     1
                        000012      238 PR6    BSS     1
                        000013      239 PR7    BSS     1
                        000014      240 FLOAT  BSS     17
                        000036      241 BMANT EBSS     2
                        000040      242 TEMP   NULL            FOR NEGATIVE EXPONENTS
      000040 000000000000           243 EXPON  DEC     0
                        000041      244 DSCPT  BSS     1
                                    245        END
 GMAP6 VERSION/ASSEMBLY DATES  JNPA NO TTL/2(_00]      JNPB NO TTL/2(_00]      JNPC NO TTL/2(_00]
 THERE WERE    NO  WARNING FLAGS IN THE ABOVE ASSEMBLY
                                DECIMAL TO FLOATING POINT CONVERSION
                             OCTAL    SYMBOL   * KIND *      REFERENCES BY ALTER NO. AN
    36   BMANT    REL   .X9DR.   241  129   130R  241
    27   CHKSIZ   REL   .X9DR    108  108   116T
    10   CVDQ     REL   .X9DR     77   60    77
     2   CVDQS    REL   .X9DR     67   62    67
     6   CVDR     REL   .X9DR     74   59    74
     0   CVDRS    REL   .X9DR     64   61    64
    10   DBL      REL   .X9DR.   236   65W   68W   75W   78W  170R  236
    61   DBPREC   REL   .X9DR    174  171T  174
    41   DSCPT    REL   .X9DR.   244   88W  100   244
    55   EXIT     REL   .X9DR    169  134T  157T  169   197T
    40   EXPON    REL   .X9DR.   243   71W   80W  117A  156R  243
    14   FLOAT    REL   .X9DR.   240  101D  105R  110D  113D  114D  128D  240
     3   GSMALL   REL   .X9DR     69   66T   69
    11   GTDATA   REL   .X9DR     79   76T   79
    12   GTDTA1   REL   .X9DR     81   72T   81
     1   IND      ABS            203  203
  6000   .X9DR    SEC   SECT       9    9
  6001   .X9DR.   SEC   SECT     232  232
     0   LSF      ABS            205  101   205
     1   LSS      ABS            206  110   128   206
    63   NEGXP    REL   .X9DR    187  158T  187
    72   NOTBIG   REL   .X9DR    195  192T  195
     3   NS       ABS            207  109   207
    11   PR5      REL   .X9DR.   237  237
    12   PR6      REL   .X9DR.   238  238
    13   PR7      REL   .X9DR.   239  239
   476   PW128    REL   .X9DR    225  193R  225
   100   PWTEN    REL   .X9DR    209  159R  196R  209
     0   REGS     REL   .X9DR.   235  235
     1   RND      ABS            204   99   204
    40   SIZEOK   REL   .X9DR    117  111T  117
    40   TEMP     REL   .X9DR.   242  188W  190R  242
    74   TWO68    REL   .X9DR    208  109D  208
    10   X0       ABS            202  159   196   202
