
     DIRECTORY AND SEGMENT LIST  (OBJECT UNIT NAME '')

      * SYMDEF *        GLOBAL NAME               SEGMENT  OFFSET      ACCESS ATTRIBUTES
     1  X9DS   'X9DS'                              .X9DS       0          R  W  E  L  U

      * SYMREF *        GLOBAL NAME                                    ACCESS ATTRIBUTES
     2  X8ER   'X8ER$ERROR'                                               R  W  E  L  U

      * SECTION *          SIZE          KIND
     3  .X9DS               100           CODE
     4  .X9DS.               21           DATA


     PROGRAM BREAK         121

                                      1 *M*
                                      2 *T***********************************************************
                                      3 *T*                                                         *
                                      4 *T* COPYRIGHT (C) BULL HN INFORMATION SYSTEMS INC., 1997    *
                                      5 *T*                                                         *
                                      6 *T***********************************************************
                        000000        7        SECT    .X9DS,CODE
                        000000        8        ENTDEF  X9DS
                        000000        9        ENTREF  (X8ER,X8ER$ERROR)
                                     10 *
                        000000       11 X9DS   NULL
                                     12 *
      000000 400000 4750 03          13        FAD     =0.0,DU
      000001 000004 4570 00 010NN    14        DFST    ARGX           SAVE INPUT ARG
      000002 000054 6040 00 010NN    15        TMI     ERR1           ERROR IF ARGX IS NEGATIVE
      000003 000001 6000 11          16        TZE     1,1            RETURN IF ARGX IS ZERO.
                                     17 *
                        000004       18 POSITN NULL
                                     19 *
      000004 000004 2360 00 010NN    20        LDQ     ARGX
      000005 002000 3160 03          21        CANQ    =1B25,DU       TEST ODD OR EVEN ?
      000006 000011 6000 00 010NN    22        TZE     HEX20
      000007 000066 4310 00 010NN    23        FLD     =2.0XD0        ODD LOAD 4
      000010 000012 7100 00 010NN    24        TRA     HEX30
                                     25 *
                        000011       26 HEX20  NULL
                                     27 *
      000011 000070 4310 00 010NN    28        FLD     =5.0XD-1       EVEN LOAD 1
                                     29 *
                        000012       30 HEX30  NULL
                                     31 *
      000012 000011 4550 00 010NN    32        FST     EXPNT1
      000013 000004 2360 00 010NN    33        LDQ     ARGX
      000014 000001 7320 00          34        QRS     1
      000015 000010 7560 00 010NN    35        STQ     EXPNT
      000016 000004 4310 00 010NN    36        FLD     ARGX
      000017 000012 4110 00 010NN    37        LDE     ZEROO

      000020 000004 4550 00 010NN    38        FST     ARGX
                                     39 *
                                     40 *                             GET FIRST APPROX TO SQRT(ARGX),
                                     41 *                             ARGX [.125 -> .5].
                                     42 *                             Y0 = P00 + X * (P01 + P02 * X).
                                     43 *
      000021 000016 4610 00 010NN    44        FMP     P02
      000022 000015 4750 00 010NN    45        FAD     P01
      000023 000004 4610 00 010NN    46        FMP     ARGX
      000024 000014 4750 00 010NN    47        FAD     P00
                                     48 *
                                     49 *                             USE NEWTON'S ITERATIONS
                                     50 *
      000025 000006 4550 00 010NN    51        FST     YK             Y1 = .5 * (Y0 + X/Y0)
      000026 000004 4310 00 010NN    52        FLD     ARGX           GET ARG OF CALC Q(X)
      000027 000020 4610 00 010NN    53        FMP     Q01            FIRST ORDER CONSTANT
      000030 000017 4750 00 010NN    54        FAD     Q00            ZEROTH ORDER CONSTANT
      000031 000006 5250 00 010NN    55        FDI     YK             FORM P(X)/Q(X) FOR FIRST APPROX.
      000032 000006 4550 00 010NN    56        FST     YK             SAVE FOR NEWTON'S ITERATIONS
                                     57 *
      000033 000004 5250 00 010NN    58        FDI     ARGX           Y2 = .5 * (Y1 + X/Y1)
      000034 000006 4750 00 010NN    59        FAD     YK
      000035 000072 5670 00 010NN    60        DFDV    =2.0XD0
      000036 000006 4570 00 010NN    61        DFST    YK
                                     62 *
                                     63 *                             GET NEWTON'S (3RD) ITERATION
                                     64 *                             Y3 = .5 * (Y1 + X/Y2)
                                     65 *
      000037 000004 5270 00 010NN    66        DFDI    ARGX
      000040 000006 4770 00 010NN    67        DFAD    YK
      000041 000074 5670 00 010NN    68        DFDV    =2.0XD0
      000042 000006 4570 00 010NN    69        DFST    YK
                                     70 *
                                     71 *
                                     72 *                             GET NEWTON'S 4TH ITERATION
                                     73 *                             Y4 = .5 * (Y3 + X/Y3)
                                     74 *

      000043 000004 5270 00 010NN    75        DFDI    ARGX
      000044 000006 4770 00 010NN    76        DFAD    YK
      000045 000076 5670 00 010NN    77        DFDV    =2.0XD0
      000046 000006 4570 00 010NN    78        DFST    YK
                                     79 *
      000047 000004 5270 00 010NN    80        DFDI    ARGX
      000050 000006 4770 00 010NN    81        DFAD    YK
      000051 000010 4150 00 010NN    82        ADE     EXPNT
      000052 000011 4610 00 010NN    83        FMP     EXPNT1         ADJUST FOR ODD EXPONENT
      000053 000001 7100 11          84        TRA     1,1            RETURN TO CALLER
                                     85 *
                                     86 *
                        000054       87 ERR1   NULL
                                     88 *
                                     89 *                             ERR1 OCCURS IF IN SQRT(X),
                                     90 *                             X IS NEGATIVE
                                     91 *
      000054 000000 6314 00 010NN    92        EPPR1   NUMARG
      000055 000002 6304 00 010NN    93        EPPR0   PTRBK1
      000056 000000 7010 00 020NN    94        TSX1    X8ER
      000057 000000 0110 07          95        NOP     0,DL
      000060 000004 4330 00 010NN    96        DFLD    ARGX
      000061 000000 5130 00          97        FNEG
      000062 000004 4570 00 010NN    98        DFST    ARGX
      000063 000004 7100 00 010NN    99        TRA     POSITN
                                    100 *
                                    101 *
                                    102 *              CONSTANTS ETC.
                                    103 *
                        000000      104        SECT    .X9DS.,DATA
                                    105 *
      000000 000001000000           106 NUMARG VFD     18/1,18/0
      000001 000000000004           107 NEGREL DEC     4
      000002 000001000000   01000   108 PTRBK1 PTR     .X9DS,NEGREL
                        000004      109        EVEN
                        000004      110 ARGX   BSS     2
                        000006      111 YK     BSS     2

      000010 000000000000           112 EXPNT  DEC     0
      000011 000000000000           113 EXPNT1 DEC     0
      000012 000000000000           114 ZEROO  OCT     0
                                    115 *
                                    116 *                             CONSTANTS FROM HART 0071,
                                    117 *                             MODIFIED FOR HEXIDECIMAL.
                                    118 *
                        000014      119        EVEN
      000014 000042326377           120 P00    DEC     0.0672244985819EX0
      000015 000742530005           121 P01    DEC     0.9427185435619EX0
      000016 000063166031           122 P02    DEC     0.1000596982154EX0
      000017 000350540551           123 Q00    DEC     0.45447046567EX0
      000020 000524607232           124 Q01    DEC     0.66555519292EX0
          LITERALS OF SECTION .X9DS
      000066 002100000000
      000067 000000000000
      000070 000400000000
      000071 000000000000
      000072 002100000000
      000073 000000000000
      000074 002100000000
      000075 000000000000
      000076 002100000000
      000077 000000000000
                                    125        END
 GMAP6 VERSION/ASSEMBLY DATES  JNPA NO TTL/2(_00]      JNPB NO TTL/2(_00]      JNPC NO TTL/2(_00]
 THERE WERE    NO  WARNING FLAGS IN THE ABOVE ASSEMBLY

                             OCTAL    SYMBOL   * KIND *      REFERENCES BY ALTER NO. AN
     4   ARGX     REL   .X9DS.   110   14W   20R   33R   36R   38W   46R   52R   58R   66R   75R   80R   96R   98W
    54   ERR1     REL   .X9DS     87   15T   87
    11   EXPNT1   REL   .X9DS.   113   32W   83R  113
    10   EXPNT    REL   .X9DS.   112   35W   82R  112
    11   HEX20    REL   .X9DS     26   22T   26
    12   HEX30    REL   .X9DS     30   24T   30
  6000   .X9DS    SEC   SECT       7    7   108
  6001   .X9DS.   SEC   SECT     104  104
     1   NEGREL   REL   .X9DS.   107  107   108
     0   NUMARG   REL   .X9DS.   106   92   106
    14   P00      REL   .X9DS.   120   47R  120
    15   P01      REL   .X9DS.   121   45R  121
    16   P02      REL   .X9DS.   122   44R  122
     4   POSITN   REL   .X9DS     18   18    99T
     2   PTRBK1   REL   .X9DS.   108   93   108
    17   Q00      REL   .X9DS.   123   54R  123
    20   Q01      REL   .X9DS.   124   53R  124
NO VAL   X8ER     EXT   SYMREF          9    94T
     0   X9DS     REL   .X9DS     11    8    11
     6   YK       REL   .X9DS.   111   51W   55R   56W   59R   61W   67R   69W   76R   78W   81R  111
    12   ZEROO    REL   .X9DS.   114   37R  114
