
     DIRECTORY AND SEGMENT LIST  (OBJECT UNIT NAME '')

      * SYMDEF *        GLOBAL NAME               SEGMENT  OFFSET      ACCESS ATTRIBUTES
     1  X9DX   'X9DX'                              .X9DX       0          R  W  E  L  U

      * SYMREF *        GLOBAL NAME                                    ACCESS ATTRIBUTES
     2  X8ER   'X8ER$ERROR'                                               R  W  E  L  U

      * SECTION *          SIZE          KIND
     3  .X9DX               100           CODE
     4  .X9DX.               36           DATA


     PROGRAM BREAK         136

                                      1 *M*     X9DX - DOUBLE PRECISION EXP FUNCTION
                                      2 *T***********************************************************
                                      3 *T*                                                         *
                                      4 *T* COPYRIGHT (C) BULL HN INFORMATION SYSTEMS INC., 1997    *
                                      5 *T*                                                         *
                                      6 *T***********************************************************
                        000000        7        SECT    .X9DX,CODE
                                      8 *
                                      9 *
                                     10 *P*
                                     11 *P*       NAME: X9DX
                                     12 *P*    PURPOSE: X9DX TAKES EXP2(INPUT ARG) BASE 16.  THAT IS
                                     13 *P*             2 ** (INPUT ARG) IN HEX.
                                     14 *P*
                                     15 *
                                     16 *
                                     17 *D*
                                     18 *D*       NAME: X9DX
                                     19 *D*       CALL:
                                     20 *D*             DFLD     ARGX
                                     21 *D*             TSX1     X9DX
                                     22 *D*             NOP      0,1
                                     23 *D*
                                     24 *D*  INTERFACE: X8ER - A GMAP ENTRY INTO THE LIBRARY ERROR
                                     25 *D*                      OUTPUT PROCEDURE.
                                     26 *D*      INPUT:
                                     27 *D*             THE ONE ARGUMENT PASSED IN THE EAQ REGISTER,
                                     28 *D*             DOUBLE PRECISION.
                                     29 *D*
                                     30 *D*     OUTPUT: THE ANSWER - 2 ** (ARGX)
                                     31 *D*
                                     32 *D*    SCRATCH: NONE
                                     33 *D*
                                     34 *D*  REFERENCE: X8LC$DOCUMENT, GCOS - FORTRAN/PL1 LIBRARY MODULE:
                                     35 *D*             7NAZ FOR THE FUNCTION EXP.
                                     36 *D*
                                     37 *V*

                                     38 *V*                    GENERAL_DESCRIPTION
                                     39 *V*
                        000000       40        ENTDEF  X9DX
                        000000       41        ENTREF  (X8ER,X8ER$ERROR)
                                     42 *
                                     43 *
                        000000       44 X9DX   NULL
                                     45 *
      000000 000020 7570 00 010NN    46        STAQ    ARGX
      000001 000024 4560 00 010NN    47        STE     EARGX
                                     48 *
                                     49 *
      000002 000064 4750 00 010NN    50        FAD     =5.0DX-1
      000003 000066 4370 00 010NN    51        DUFA    =O000777777777
      000004 000066 5370 00 010NN    52        DUFS    =O000777777777
      000005 042000 4350 03          53        UFA     =17B25,DU
      000006 000003 7330 00          54        LRS     3
      000007 000034 7570 00 010NN    55        STAQ    TEMP           SAVE INTEGER
      000010 000000 1150 07          56        CMPA    0,DL           TEST FOR NEGATIVE AQ-REG
      000011 000013 6050 00 010NN    57        TPL     HEX15
      000012 000000 5330 00          58        NEGL
                                     59 *
                        000013       60 HEX15  NULL
                                     61 *
      000013 000003 3760 07          62        ANQ     =3,DL          SAVE ONLY MODE 4
      000014 000000 6200 06          63        EAX0    0,QL           MOVE TO X0 TO SAVE
      000015 000034 2370 00 010NN    64        LDAQ    TEMP           RESTORE INTEGER
      000016 000002 7320 00          65        QRS     2              GET RID OF LOWER BITS
      000017 000034 7360 00          66        QLS     28             POSITION OF ADE LATER
      000020 000026 7560 00 010NN    67        STQ     INTX
      000021 000034 2370 00 010NN    68        LDAQ    TEMP
      000022 042000 4110 03          69        LDE     =17B25,DU
      000023 400000 4750 03          70        FAD     =0.0,DU
      000024 000070 4630 00 010NN    71        DFMP    =8.0XD0
      000025 000034 4570 00 010NN    72        DFST    TEMP           SAVE INTEGER
      000026 000020 2370 00 010NN    73        LDAQ    ARGX
      000027 000024 4110 00 010NN    74        LDE     EARGX

      000030 000034 5750 00 010NN    75        FSB     TEMP           SAVE INTEGER
      000031 000020 4570 00 010NN    76        DFST    RRX            RRX=(X-INTX) [0.0,1.0]
      000032 000020 4630 00 010NN    77        DFMP    RRX
      000033 000022 4570 00 010NN    78        DFST    RRX2
                                     79 *
                                     80 *
                                     81 *                             2 ** RRX = P(RRX) ; WHERE
                                     82 *                             P(Z) = P00 + Z * (P01 + Z * (P02 + Z *
                                     83 *                                    (P03 + Z * (P04 + Z * (P05 + Z *
                                     84 *                                    (P06 + Z * P07)))))).
                                     85 *
                                     86 *
      000034 000014 4630 00 010NN    87        DFMP    Q03            (Q03 = 1.0)
      000035 000012 4770 00 010NN    88        DFAD    Q02
      000036 000022 4630 00 010NN    89        DFMP    RRX2
      000037 000010 4770 00 010NN    90        DFAD    Q01
      000040 000022 4630 00 010NN    91        DFMP    RRX2
      000041 000006 4770 00 010NN    92        DFAD    Q00
      000042 000024 4570 00 010NN    93        DFST    QOFRRX
      000043 000022 4330 00 010NN    94        DFLD    RRX2
      000044 000004 4630 00 010NN    95        DFMP    P02
      000045 000002 4770 00 010NN    96        DFAD    P01
      000046 000022 4630 00 010NN    97        DFMP    RRX2
      000047 000000 4770 00 010NN    98        DFAD    P00
      000050 000020 4630 00 010NN    99        DFMP    RRX
      000051 000020 4570 00 010NN   100        DFST    POFRRX
      000052 000024 4770 00 010NN   101        DFAD    QOFRRX
      000053 000034 4570 00 010NN   102        DFST    TEMP
      000054 000024 4330 00 010NN   103        DFLD    QOFRRX
      000055 000020 5770 00 010NN   104        DFSB    POFRRX
      000056 000034 5270 00 010NN   105        DFDI    TEMP
                                    106 *
                                    107 *                             ANSWER = P(RRX) * 2 ** INTX
                                    108 *
      000057 000026 4150 00 010NN   109        ADE     INTX
      000060 000027 4610 10 010NN   110        FMP     AQTAB,0        MULTIPLY BY 1,2,4 OR 8
      000061 000001 7100 11         111        TRA     1,1            NORMAL RETURN

                                    112 *
                                    113 *
                                    114 *
                                    115 *
                                    116 ******************************************************************
                                    117 *
                                    118 *                         STORAGE ALLOCATION
                                    119 *
                                    120 ******************************************************************
                                    121 *
                                    122 *
                        000000      123        SECT    .X9DX.,DATA
                                    124 *
                                    125 *
                                    126 *
                                    127 *
                                    128 *              CONSTANTS, ETC.
                                    129 *
                                    130 *
                        000000      131        EVEN
                                    132 *
                                    133 *                             CONSTANTS ARE FROM HART 1044, FOR
                                    134 *                             APPROXIMATING 2 ** X, WHERE X [0.,1.]
                                    135 *
      000000 014077372002           136 P00    DEC     .20803843466946630014XD07
      000001 614037317645
      000002 010354473706           137 P01    DEC     .30286971697440362990XD05
      000003 022472775644
      000004 004171165470           138 P02    DEC     .60614853300610808416XD02
      000005 152076602243
      000006 014267140402           139 Q00    DEC     .60027203602388325282XD07
      000007 703423455073
      000010 012240013223           140 Q01    DEC     .32772515180829144230XD06
      000011 334720774015
      000012 006332522322           141 Q02    DEC     .17492876890930764038XD04
      000013 776034267264
      000014 002040000000           142 Q03    DEC     1.0XD00

      000015 000000000000
                                    143 *
                                    144 *
      000016 376075062430           145 MAXNUM DEC     1EX152
                                    146 *
                                    147 *
                        000020      148        EVEN
                        000020      149 ARGX   BSS     2
                        000020      150 RRX    EQU     ARGX
                        000022      151 RRX2   BSS     2
                        000020      152 POFRRX EQU     ARGX
                        000024      153 QOFRRX BSS     2
                        000024      154 EARGX  EQU     QOFRRX
                        000026      155 INTX   BSS     1
                        000027      156 AQTAB  NULL
      000027 002040000000           157        DEC     1X0
      000030 002100000000           158        DEC     2X0
      000031 002200000000           159        DEC     4X0
      000032 002400000000           160        DEC     8X0
                        000034      161        EVEN
                        000034      162 TEMP   BSS     2
          LITERALS OF SECTION .X9DX
      000064 000400000000
      000065 000000000000
      000066 000777777777
      000067 000000000000
      000070 002400000000
      000071 000000000000
                                    163        END
 GMAP6 VERSION/ASSEMBLY DATES  JNPA NO TTL/2(_00]      JNPB NO TTL/2(_00]      JNPC NO TTL/2(_00]
 THERE WERE    NO  WARNING FLAGS IN THE ABOVE ASSEMBLY

                             OCTAL    SYMBOL   * KIND *      REFERENCES BY ALTER NO. AN
    27   AQTAB    REL   .X9DX.   156  110R  156
    20   ARGX     REL   .X9DX.   149   46W   73R  149   150   152
    24   EARGX    REL   .X9DX.   154   47W   74R  154
    13   HEX15    REL   .X9DX     60   57T   60
    26   INTX     REL   .X9DX.   155   67W  109R  155
  6000   .X9DX    SEC   SECT       7    7
  6001   .X9DX.   SEC   SECT     123  123
    16   MAXNUM   REL   .X9DX.   145  145
     0   P00      REL   .X9DX.   136   98R  136
     2   P01      REL   .X9DX.   137   96R  137
     4   P02      REL   .X9DX.   138   95R  138
    20   POFRRX   REL   .X9DX.   152  100W  104R  152
     6   Q00      REL   .X9DX.   139   92R  139
    10   Q01      REL   .X9DX.   140   90R  140
    12   Q02      REL   .X9DX.   141   88R  141
    14   Q03      REL   .X9DX.   142   87R  142
    24   QOFRRX   REL   .X9DX.   153   93W  101R  103R  153   154
    22   RRX2     REL   .X9DX.   151   78W   89R   91R   94R   97R  151
    20   RRX      REL   .X9DX.   150   76W   77R   99R  150
    34   TEMP     REL   .X9DX.   162   55W   64R   68R   72W   75   102W  105R  162
NO VAL   X8ER     EXT   SYMREF         41
     0   X9DX     REL   .X9DX     44   40    44
