VERSION A06

PL6.E3A0      #001=X9ER$PRINT_ERROR File=X9ER.:X8A6TSI                           SAT 08/09/97 10:55 Page:1
        1        1        /*M*  X9ER$PRINT_ERROR -- ERROR PRINTING ROUTINE               */
        2        2        /*T***********************************************************/
        3        3        /*T*                                                         */
        4        4        /*T* Copyright (c) Bull HN Information Systems Inc., 1997    */
        5        5        /*T*                                                         */
        6        6        /*T***********************************************************/
        7        7
        8        8        X9ER$PRINT_ERROR:  PROC( ERROR_MSG );
        9        9
       10       10        /*P*      NAME: X9ER$PRINT_ERROR
       11       11               PURPOSE: X9ER$PRINT_ERROR RECEIVES ERROR MESSAGES AND PRINTS
       12       12                        THEM OUT USING THE SYSTEM WRITE ROUTINE ( M$WRITE ).
       13       13
       14       14        */
       15       15            %INCLUDE   CP_6;
       16     5575            %INCLUDE   CP_6_SUBS;
       17     6115            %INCLUDE    X8A_LIBCOM;
       18     6335
       19     6336    1       DCL X9LP$GETDCB#        ENTRY;
       20     6337            %FPT_WRITE      (FPTN=WRITE_ERROR, VFC=YES, DCB=M$DO);
       21     6368            %FPT_WRITE       ( FPTN=WRITE_M$LO, VFC = YES );
       22     6399            %FPT_CORRES      ( DCB1 = M$DO );
       23     6413
       24     6414    1       DCL M$DO         DCB;
       25     6415    1       DCL ERROR_MSG    CHAR(80);
       26     6416    1       DCL 1 ERR_MSG,
       27     6417    1            2 VFC       CHAR(1)  UNAL,
       28     6418    1            2 ERROR_MSG CHAR(80) UNAL;
       29     6419
       30     6420    1       IF NOT LIBCOM.M_LO_ASSIGNED THEN
       31     6421    2         DO;
       32     6422    2           CALL X9LP$GETDCB#;
       33     6423    2           LIBCOM.M_LO_ASSIGNED = %TRUE;
       34     6424    2         END;
       35     6425
       36     6426    1       WRITE_M$LO.V.DCB# = LIBCOM.M_LO;
       37     6427    1       FPT_CORRES.V.DCB2# = LIBCOM.M_LO;
PL6.E3A0      #001=X9ER$PRINT_ERROR File=X9ER.:X8A6TSI                           SAT 08/09/97 10:55 Page:2
       38     6428    1       ERR_MSG.VFC       = 'a';    /* lowercase a */
       39     6429    1       ERR_MSG.ERROR_MSG = ERROR_MSG;
       40     6430
       41     6431    1      CALL M$CORRES ( FPT_CORRES )
       42     6432    1      WHENRETURN
       43     6433    2        DO;
       44     6434    2         WRITE_ERROR.BUF_ = VECTOR( ERR_MSG );
       45     6435    2         CALL M$WRITE ( WRITE_ERROR );
       46     6436    2        END;
       47     6437
       48     6438    1       WRITE_M$LO.BUF_ = VECTOR ( ERR_MSG );
       49     6439    1       CALL M$WRITE ( WRITE_M$LO );
       50     6440    1       ERR_MSG.ERROR_MSG = ' ';
       51     6441
       52     6442    1   END X9ER$PRINT_ERROR; /* proc */
       53     6443        %EOD;

PL6.E3A0      #001=X9ER$PRINT_ERROR File=X9ER.:X8A6TSI                           SAT 08/09/97 10:55 Page:3
--  Include file information  --

   X8A_LIBCOM.:X8A6TOU  cannot be made into a system file and is referenced.
   CP_6_SUBS.:LIB_E04  is referenced.
   CP_6_C.:LIB_E04  is referenced.
   CP_6.:LIB_E04  cannot be made into a system file and is referenced.
      No diagnostics issued in procedure X9ER$PRINT_ERROR.

   Procedure X9ER$PRINT_ERROR requires 42 words for executable code.
   Procedure X9ER$PRINT_ERROR requires 64 words of local(AUTO) storage.

PL6.E3A0      #001=X9ER$PRINT_ERROR File=X9ER.:X8A6TSI                           SAT 08/09/97 10:55 Page:4

 Object Unit name= X9ER$PRINT_ERROR                           File name= X9ER.:X8A6TOU
 UTS= AUG 09 '97 10:55:55.68 SAT                              Compiler= PL-6/E31         Sev=      00
 SharedLib= :SHARED_SYSTEM                                    Alt SharedLib=


    ****  Control sections  ****

 Sect   Type Bound  Init  Size OctSiz  Section name(segment info)
    0   DCB   even  none     0      0  M$UC
    1  LblCom even  none    20     24  LIBCOM
    2  LblCom even  none     1      1  DEC_OR_COMMA
    3  LblCom even  none    20     24  IN_TEMP
    4  LblCom even  none     1      1  OVRCHR
    5  LblCom even  none     1      1  SELECT_TIME
    6  LblCom even  none     1      1  NO_ADVANCE_OFFSET
    7  LblCom even  none    18     22  DSPLY_SAVE
    8  LblCom even  none     3      3  D_DATE
    9  LblCom even  none     3      3  D_TIME
   10  LblCom even  none     1      1  D_DAY
   11  LblCom even  none     2      2  C_DATE
   12  LblCom even  none     2      2  C_TIME
   13  LblCom even  none     2      2  C_DAY
   14  LblCom even  none     1      1  RTHOLD2
   15  LblCom even  none     1      1  LTHOLD2
   16  LblCom even  none     1      1  NDX2
   17  LblCom even  none     1      1  IN_LEN
   18   Data  even  none    28     34  X9ER$PRINT_ERROR
   19   DCB   even  none     0      0  M$DO
   20   Proc  even  none    42     52  X9ER$PRINT_ERROR
   21  RoData even  none     3      3  X9ER$PRINT_ERROR

    ****  Entry defs  ****

                              Check   Calling
                             calling  sequence
  Sect OctLoc Primary Altret sequence   type   Parms  Name
    20      0   yes            yes      Std        1  X9ER$PRINT_ERROR
PL6.E3A0      #001=X9ER$PRINT_ERROR File=X9ER.:X8A6TSI                           SAT 08/09/97 10:55 Page:5

  ****  Entry refs  ****

         Check        Calling
        calling       sequence
Altret sequence SRef   type   Args  Name
         yes           Std       0 X9LP$GETDCB#
                       nStd      0 X66_AUTO_1
                       nStd      0 X66_ARET

  ****  Data refs  ****

  Flags:  r = read only, s = secondary
Flgs Name                             Flgs Name                             Flgs Name
     M$UC                                  M$DO

  ****  Segment refs  ****

  Flags:  r = read only, s = secondary
Flgs Name                             Flgs Name                             Flgs Name
     ISSID                                 NULLSID
PL6.E3A0      #001=X9ER$PRINT_ERROR File=X9ER.:X8A6TSI                           SAT 08/09/97 10:55 Page:6


        1        1        /*M*  X9ER$PRINT_ERROR -- ERROR PRINTING ROUTINE               */
        2        2        /*T***********************************************************/
        3        3        /*T*                                                         */
        4        4        /*T* Copyright (c) Bull HN Information Systems Inc., 1997    */
        5        5        /*T*                                                         */
        6        6        /*T***********************************************************/
        7        7
        8        8        X9ER$PRINT_ERROR:  PROC( ERROR_MSG );

      8 20 000000   000000 700200 xent  X9ER$PRINT_* TSX0  ! X66_AUTO_1
        20 000001   000100 000001                    ZERO    64,1

        9        9
       10       10        /*P*      NAME: X9ER$PRINT_ERROR
       11       11               PURPOSE: X9ER$PRINT_ERROR RECEIVES ERROR MESSAGES AND PRINTS
       12       12                        THEM OUT USING THE SYSTEM WRITE ROUTINE ( M$WRITE ).
       13       13
       14       14        */
       15       15            %INCLUDE   CP_6;
       16     5575            %INCLUDE   CP_6_SUBS;
       17     6115            %INCLUDE    X8A_LIBCOM;
       18     6335
       19     6336    1       DCL X9LP$GETDCB#        ENTRY;
       20     6337            %FPT_WRITE      (FPTN=WRITE_ERROR, VFC=YES, DCB=M$DO);
       21     6368            %FPT_WRITE       ( FPTN=WRITE_M$LO, VFC = YES );
       22     6399            %FPT_CORRES      ( DCB1 = M$DO );
       23     6413
       24     6414    1       DCL M$DO         DCB;
       25     6415    1       DCL ERROR_MSG    CHAR(80);
       26     6416    1       DCL 1 ERR_MSG,
       27     6417    1            2 VFC       CHAR(1)  UNAL,
       28     6418    1            2 ERROR_MSG CHAR(80) UNAL;
       29     6419
       30     6420    1       IF NOT LIBCOM.M_LO_ASSIGNED THEN

   6420 20 000002   000012 234000 1                  SZN     LIBCOM+10
PL6.E3A0      #001=X9ER$PRINT_ERROR File=X9ER.:X8A6TSI                           SAT 08/09/97 10:55 Page:7
        20 000003   000011 604000 20                 TMI     s:6426

       31     6421    2         DO;

       32     6422    2           CALL X9LP$GETDCB#;

   6422 20 000004   000000 631400 21                 EPPR1   0
        20 000005   000000 701000 xent               TSX1    X9LP$GETDCB#
        20 000006   000000 011000                    NOP     0

       33     6423    2           LIBCOM.M_LO_ASSIGNED = %TRUE;

   6423 20 000007   400000 236003                    LDQ     -131072,DU
        20 000010   000012 756000 1                  STQ     LIBCOM+10

       34     6424    2         END;

       35     6425
       36     6426    1       WRITE_M$LO.V.DCB# = LIBCOM.M_LO;

   6426 20 000011   000016 720000 1                  LXL0    LIBCOM+14
        20 000012   000024 740000 18                 STX0    WRITE_M$LO+8

       37     6427    1       FPT_CORRES.V.DCB2# = LIBCOM.M_LO;

   6427 20 000013   000032 440000 18                 SXL0    FPT_CORRES+2

       38     6428    1       ERR_MSG.VFC       = 'a';    /* lowercase a */

   6428 20 000014   141000 236003                    LDQ     49664,DU
        20 000015   200051 552140                    STBQ    ERR_MSG,'40'O,AUTO

       39     6429    1       ERR_MSG.ERROR_MSG = ERROR_MSG;

   6429 20 000016   200003 470500                    LDP0    @ERROR_MSG,,AUTO
        20 000017   040100 100500                    MLR     fill='040'O
        20 000020   000000 000120                    ADSC9   0,,PR0                   cn=0,n=80
PL6.E3A0      #001=X9ER$PRINT_ERROR File=X9ER.:X8A6TSI                           SAT 08/09/97 10:55 Page:8
        20 000021   200051 200120                    ADSC9   ERR_MSG,,AUTO            cn=1,n=80

       40     6430
       41     6431    1      CALL M$CORRES ( FPT_CORRES )

   6431 20 000022   000030 630400 18                 EPPR0   FPT_CORRES
        20 000023   460000 713400                    CLIMB   alt,+24576
        20 000024   400000 401760                    pmme    nvectors=1
        20 000025   000036 702000 20                 TSX2    s:6438

       42     6432    1      WHENRETURN
       43     6433    2        DO;

       44     6434    2         WRITE_ERROR.BUF_ = VECTOR( ERR_MSG );

   6434 20 000026   000001 235000 21                 LDA     1
        20 000027   200076 452500                    STP2    ERR_MSG+21,,AUTO
        20 000030   200076 236100                    LDQ     ERR_MSG+21,,AUTO
        20 000031   000051 036003                    ADLQ    41,DU
        20 000032   000004 757000 18                 STAQ    WRITE_ERROR+4

       45     6435    2         CALL M$WRITE ( WRITE_ERROR );

   6435 20 000033   000000 630400 18                 EPPR0   WRITE_ERROR
        20 000034   040001 713400                    CLIMB   write
        20 000035   401400 401760                    pmme    nvectors=4

       46     6436    2        END;

       47     6437
       48     6438    1       WRITE_M$LO.BUF_ = VECTOR ( ERR_MSG );

   6438 20 000036   000001 235000 21                 LDA     1
        20 000037   200076 452500                    STP2    ERR_MSG+21,,AUTO
        20 000040   200076 236100                    LDQ     ERR_MSG+21,,AUTO
        20 000041   000051 036003                    ADLQ    41,DU
        20 000042   000020 757000 18                 STAQ    WRITE_M$LO+4
PL6.E3A0      #001=X9ER$PRINT_ERROR File=X9ER.:X8A6TSI                           SAT 08/09/97 10:55 Page:9

       49     6439    1       CALL M$WRITE ( WRITE_M$LO );

   6439 20 000043   000014 630400 18                 EPPR0   WRITE_M$LO
        20 000044   040001 713400                    CLIMB   write
        20 000045   401400 401760                    pmme    nvectors=4

       50     6440    1       ERR_MSG.ERROR_MSG = ' ';

   6440 20 000046   040100 100400                    MLR     fill='040'O
        20 000047   000002 000001 21                 ADSC9   2                        cn=0,n=1
        20 000050   200051 200120                    ADSC9   ERR_MSG,,AUTO            cn=1,n=80

       51     6441
       52     6442    1   END X9ER$PRINT_ERROR; /* proc */

   6442 20 000051   000000 702200 xent               TSX2  ! X66_ARET
       53     6443        %EOD;

PL6.E3A0      #001=X9ER$PRINT_ERROR File=X9ER.:X8A6TSI                           SAT 08/09/97 10:55 Page:10
--  Include file information  --

   X8A_LIBCOM.:X8A6TOU  cannot be made into a system file and is referenced.
   CP_6_SUBS.:LIB_E04  is referenced.
   CP_6_C.:LIB_E04  is referenced.
   CP_6.:LIB_E04  cannot be made into a system file and is referenced.
      No diagnostics issued in procedure X9ER$PRINT_ERROR.
PL6.E3A0      #001=X9ER$PRINT_ERROR File=X9ER.:X8A6TSI                           SAT 08/09/97 10:55 Page:11

 **** Variables and constants ****

  ****  Section 001 LblCom LIBCOM

  ****  Scalars and arrays  ****
OctLoc.c.b A Datatyp(siz) R M Lvl/name                 OctLoc.c.b A Datatyp(siz) R M Lvl/name

     0-0-0/w STRC(720)   r     1 LIBCOM

  ****  Section 002 LblCom DEC_OR_COMMA

  ****  Scalars and arrays  ****
OctLoc.c.b A Datatyp(siz) R M Lvl/name                 OctLoc.c.b A Datatyp(siz) R M Lvl/name

     0-0-0/c CHAR              1 DEC_OR_COMMA

  ****  Section 003 LblCom IN_TEMP

  ****  Scalars and arrays  ****
OctLoc.c.b A Datatyp(siz) R M Lvl/name                 OctLoc.c.b A Datatyp(siz) R M Lvl/name

     0-0-0/c CHAR(80)          1 IN_TEMP

  ****  Section 004 LblCom OVRCHR

  ****  Scalars and arrays  ****
OctLoc.c.b A Datatyp(siz) R M Lvl/name                 OctLoc.c.b A Datatyp(siz) R M Lvl/name

     0-0-0/c CHAR              1 OVRCHR

  ****  Section 005 LblCom SELECT_TIME

  ****  Scalars and arrays  ****
OctLoc.c.b A Datatyp(siz) R M Lvl/name                 OctLoc.c.b A Datatyp(siz) R M Lvl/name

     0-0-0/w UBIN              1 SELECT_TIME

PL6.E3A0      #001=X9ER$PRINT_ERROR File=X9ER.:X8A6TSI                           SAT 08/09/97 10:55 Page:12
  ****  Section 006 LblCom NO_ADVANCE_OFFSET

  ****  Scalars and arrays  ****
OctLoc.c.b A Datatyp(siz) R M Lvl/name                 OctLoc.c.b A Datatyp(siz) R M Lvl/name

     0-0-0/w UBIN              1 NO_ADVANCE_OFFSET

  ****  Section 007 LblCom DSPLY_SAVE

  ****  Scalars and arrays  ****
OctLoc.c.b A Datatyp(siz) R M Lvl/name                 OctLoc.c.b A Datatyp(siz) R M Lvl/name

     0-0-0/c CHAR(72)          1 DSPLY_SAVE

  ****  Section 008 LblCom D_DATE

  ****  Scalars and arrays  ****
OctLoc.c.b A Datatyp(siz) R M Lvl/name                 OctLoc.c.b A Datatyp(siz) R M Lvl/name

     0-0-0/c CHAR(10)          1 D_DATE

  ****  Section 009 LblCom D_TIME

  ****  Scalars and arrays  ****
OctLoc.c.b A Datatyp(siz) R M Lvl/name                 OctLoc.c.b A Datatyp(siz) R M Lvl/name

     0-0-0/c CHAR(11)          1 D_TIME

  ****  Section 010 LblCom D_DAY

  ****  Scalars and arrays  ****
OctLoc.c.b A Datatyp(siz) R M Lvl/name                 OctLoc.c.b A Datatyp(siz) R M Lvl/name

     0-0-0/c CHAR(3)           1 D_DAY

  ****  Section 011 LblCom C_DATE

PL6.E3A0      #001=X9ER$PRINT_ERROR File=X9ER.:X8A6TSI                           SAT 08/09/97 10:55 Page:13
  ****  Scalars and arrays  ****
OctLoc.c.b A Datatyp(siz) R M Lvl/name                 OctLoc.c.b A Datatyp(siz) R M Lvl/name

     0-0-0/c CHAR(6)           1 C_DATE

  ****  Section 012 LblCom C_TIME

  ****  Scalars and arrays  ****
OctLoc.c.b A Datatyp(siz) R M Lvl/name                 OctLoc.c.b A Datatyp(siz) R M Lvl/name

     0-0-0/c CHAR(8)           1 C_TIME

  ****  Section 013 LblCom C_DAY

  ****  Scalars and arrays  ****
OctLoc.c.b A Datatyp(siz) R M Lvl/name                 OctLoc.c.b A Datatyp(siz) R M Lvl/name

     0-0-0/c CHAR(5)           1 C_DAY

  ****  Section 014 LblCom RTHOLD2

  ****  Scalars and arrays  ****
OctLoc.c.b A Datatyp(siz) R M Lvl/name                 OctLoc.c.b A Datatyp(siz) R M Lvl/name

     0-0-0/w UBIN              1 RTHOLD2

  ****  Section 015 LblCom LTHOLD2

  ****  Scalars and arrays  ****
OctLoc.c.b A Datatyp(siz) R M Lvl/name                 OctLoc.c.b A Datatyp(siz) R M Lvl/name

     0-0-0/w UBIN              1 LTHOLD2

  ****  Section 016 LblCom NDX2

  ****  Scalars and arrays  ****
OctLoc.c.b A Datatyp(siz) R M Lvl/name                 OctLoc.c.b A Datatyp(siz) R M Lvl/name
PL6.E3A0      #001=X9ER$PRINT_ERROR File=X9ER.:X8A6TSI                           SAT 08/09/97 10:55 Page:14

     0-0-0/w SBIN              1 NDX2

  ****  Section 017 LblCom IN_LEN

  ****  Scalars and arrays  ****
OctLoc.c.b A Datatyp(siz) R M Lvl/name                 OctLoc.c.b A Datatyp(siz) R M Lvl/name

     0-0-0/w UBIN              1 IN_LEN

  ****  Section 018  Data  X9ER$PRINT_ERROR

  ****  Scalars and arrays  ****
OctLoc.c.b A Datatyp(siz) R M Lvl/name                 OctLoc.c.b A Datatyp(siz) R M Lvl/name

    30-0-0/d STRC(144)   r     1 FPT_CORRES                 0-0-0/d STRC(432)   r     1 WRITE_ERROR
    14-0-0/d STRC(432)   r     1 WRITE_M$LO

  ****  Auto variables  ****

  ****  Scalars and arrays  ****
OctLoc.c.b A Datatyp(siz) R M Lvl/name                 OctLoc.c.b A Datatyp(siz) R M Lvl/name

     3-0-0/w PTR         r     1 @ERROR_MSG                *0-0-0/c CHAR(80)    r     1 ERROR_MSG
    51-0-0/c STRC(729)   r     1 ERR_MSG                    4-0-0/w SBIN              1 LT
     5-0-0/c CHAR(65)          1 LTHOLD                    47-0-0/w SBIN              1 NDX
    50-0-0/w SBIN              1 NDX3                      26-0-0/c CHAR(65)          1 RTHOLD

  ****  BASED and DCB variables  ****

  ****  Scalars and arrays  ****
OctLoc.c.b A Datatyp(siz) R M Lvl/name                 OctLoc.c.b A Datatyp(siz) R M Lvl/name

     0-0-0N  NULL        r     1 M$DO                       0-0-0N  NULL        r     1 M$UC

PL6.E3A0      #001=X9ER$PRINT_ERROR File=X9ER.:X8A6TSI                           SAT 08/09/97 10:55 Page:15

   Procedure X9ER$PRINT_ERROR requires 42 words for executable code.
   Procedure X9ER$PRINT_ERROR requires 64 words of local(AUTO) storage.

PL6.E3A0      #002=X9ER$USE_ENTRY File=X9ER.:X8A6TSI                             SAT 08/09/97 10:57 Page:16
       54        1        /*T***********************************************************/
       55        2        /*T*                                                         */
       56        3        /*T* Copyright (c) Bull HN Information Systems Inc., 1997    */
       57        4        /*T*                                                         */
       58        5        /*T***********************************************************/
       59        6        X9ER$USE_ENTRY: PROC MATERIALIZE ($PR0 IN DML$INTERFACE$AREA$);
       60        7        %INCLUDE X8A_LIBCOM;
       61      227    1   DCL DML$INTERFACE$AREA$ PTR;
       62      228    1   DCL 1 DML$INTERFACE$AREA ALIGNED BASED (DML$INTERFACE$AREA$),
       63      229    1         2 * (0:5) UBIN,
       64      230    1         2 * BIT (9),
       65      231    1         2 USE_PROC_SAVE BIT (1),
       66      232    1         2 * BIT (26);
       67      233    1   DCL 1 X9OS$EXIT_BLOCK SYMREF DALIGNED,
       68      234    1         2 REM (0:63) REMEMBER,
       69      235    1         2 ITEM (0:63) REDEF REM,
       70      236    1           3 TYPE SBIN,
       71      237    1           3 PTR$ PTR,
       72      238    1           3 EPTR$ REDEF PTR$ EPTR,
       73      239    1         2 PREV$ PTR,
       74      240    1         2 NEXT$ PTR;
       75      241    1   DCL X9OS$EXIT_INDEX SBIN SYMREF;
       76      242    1   DCL 1 EXIT$BLOCK DALIGNED BASED (EXIT_BLOCK$),
       77      243    1         2 REM (0:63) REMEMBER,
       78      244    1         2 ITEM (0:63) REDEF REM,
       79      245    1           3 TYPE SBIN,
       80      246    1           3 PTR$ PTR,
       81      247    1           3 EPTR$ REDEF PTR$ EPTR,
       82      248    1         2 PREV$ PTR,
       83      249    1         2 NEXT$ PTR;
       84      250    1   DCL EXIT_BLOCK$ PTR;
       85      251    1   DCL I SBIN;
       86      252    1   DCL X9MA$ALLOCATE ENTRY(2);
       87      253          /**/
       88      254    1     EXIT_BLOCK$ = ADDR (X9OS$EXIT_BLOCK);
       89      255    1     I = X9OS$EXIT_INDEX;
       90      256    2     IF X9OS$EXIT_INDEX >= 64 THEN DO;
PL6.E3A0      #002=X9ER$USE_ENTRY File=X9ER.:X8A6TSI                             SAT 08/09/97 10:57 Page:17
       91      257    3       DO WHILE I > 64;
       92      258    3         EXIT_BLOCK$ = EXIT$BLOCK.NEXT$;
       93      259    3         I = I - 64;
       94      260    3       END;
       95      261    3       IF I = 64 THEN DO;
       96      262    3         I = 0;
       97      263    3         IF EXIT$BLOCK.NEXT$ = ADDR (NIL) THEN
       98      264    4           DO;
       99      265    4             CALL X9MA$ALLOCATE (EXIT$BLOCK.NEXT$, SIZEC (X9OS$EXIT_BLOCK));
      100      266    4             EXIT$BLOCK.NEXT$ -> EXIT$BLOCK.PREV$ = EXIT_BLOCK$;
      101      267    4           END; /* EXIT$BLOCK.NEXT$ = ADDR (NIL) */
      102      268    3         EXIT_BLOCK$ = EXIT$BLOCK.NEXT$;
      103      269    3       END; /* IF I = 64 */
      104      270    2     END;
      105      271    1     EXIT$BLOCK.ITEM.TYPE (I) = 2;
      106      272    1     EXIT$BLOCK.ITEM.PTR$ (I) = DML$INTERFACE$AREA$;
      107      273    1     X9OS$EXIT_INDEX = X9OS$EXIT_INDEX + 1;
      108      274    1   END X9ER$USE_ENTRY;
      109      275        %EOD;

PL6.E3A0      #002=X9ER$USE_ENTRY File=X9ER.:X8A6TSI                             SAT 08/09/97 10:57 Page:18
--  Include file information  --

   X8A_LIBCOM.:X8A6TOU  cannot be made into a system file and is referenced.
      No diagnostics issued in procedure X9ER$USE_ENTRY.

   Procedure X9ER$USE_ENTRY requires 48 words for executable code.
   Procedure X9ER$USE_ENTRY requires 46 words of local(AUTO) storage.

PL6.E3A0      #002=X9ER$USE_ENTRY File=X9ER.:X8A6TSI                             SAT 08/09/97 10:57 Page:19

 Object Unit name= X9ER$USE_ENTRY                             File name= X9ER.:X8A6TOU
 UTS= AUG 09 '97 10:57:19.68 SAT                              Compiler= PL-6/E31         Sev=      00
 SharedLib= :SHARED_SYSTEM                                    Alt SharedLib=


    ****  Control sections  ****

 Sect   Type Bound  Init  Size OctSiz  Section name(segment info)
    0  LblCom even  none    20     24  LIBCOM
    1  LblCom even  none     1      1  DEC_OR_COMMA
    2  LblCom even  none    20     24  IN_TEMP
    3  LblCom even  none     1      1  OVRCHR
    4  LblCom even  none     1      1  SELECT_TIME
    5  LblCom even  none     1      1  NO_ADVANCE_OFFSET
    6  LblCom even  none    18     22  DSPLY_SAVE
    7  LblCom even  none     3      3  D_DATE
    8  LblCom even  none     3      3  D_TIME
    9  LblCom even  none     1      1  D_DAY
   10  LblCom even  none     2      2  C_DATE
   11  LblCom even  none     2      2  C_TIME
   12  LblCom even  none     2      2  C_DAY
   13  LblCom even  none     1      1  RTHOLD2
   14  LblCom even  none     1      1  LTHOLD2
   15  LblCom even  none     1      1  NDX2
   16  LblCom even  none     1      1  IN_LEN
   17   Proc  even  none    48     60  X9ER$USE_ENTRY
   18  RoData even  none     5      5  X9ER$USE_ENTRY

    ****  Entry defs  ****

                              Check   Calling
                             calling  sequence
  Sect OctLoc Primary Altret sequence   type   Parms  Name
    17      0   yes            yes      Std        0  X9ER$USE_ENTRY
PL6.E3A0      #002=X9ER$USE_ENTRY File=X9ER.:X8A6TSI                             SAT 08/09/97 10:57 Page:20

  ****  Entry refs  ****

         Check        Calling
        calling       sequence
Altret sequence SRef   type   Args  Name
         yes           Std       2 X9MA$ALLOCATE
                       nStd      0 X66_AUTO_0
                       nStd      0 X66_ARET

  ****  Data refs  ****

  Flags:  r = read only, s = secondary
Flgs Name                             Flgs Name                             Flgs Name
     X9OS$EXIT_BLOCK                       X9OS$EXIT_INDEX

  ****  Segment refs  ****

  Flags:  r = read only, s = secondary
Flgs Name                             Flgs Name                             Flgs Name
     NULLSID                               ISSID
PL6.E3A0      #002=X9ER$USE_ENTRY File=X9ER.:X8A6TSI                             SAT 08/09/97 10:57 Page:21


       54        1        /*T***********************************************************/
       55        2        /*T*                                                         */
       56        3        /*T* Copyright (c) Bull HN Information Systems Inc., 1997    */
       57        4        /*T*                                                         */
       58        5        /*T***********************************************************/
       59        6        X9ER$USE_ENTRY: PROC MATERIALIZE ($PR0 IN DML$INTERFACE$AREA$);

      6 17 000000   000000 700200 xent  X9ER$USE_EN* TSX0  ! X66_AUTO_0
        17 000001   000056 000000                    ZERO    46,0
        17 000002   200050 450700                    STP0  ! DML$INTERFACE$AREA$,,AUTO

       60        7        %INCLUDE X8A_LIBCOM;
       61      227    1   DCL DML$INTERFACE$AREA$ PTR;
       62      228    1   DCL 1 DML$INTERFACE$AREA ALIGNED BASED (DML$INTERFACE$AREA$),
       63      229    1         2 * (0:5) UBIN,
       64      230    1         2 * BIT (9),
       65      231    1         2 USE_PROC_SAVE BIT (1),
       66      232    1         2 * BIT (26);
       67      233    1   DCL 1 X9OS$EXIT_BLOCK SYMREF DALIGNED,
       68      234    1         2 REM (0:63) REMEMBER,
       69      235    1         2 ITEM (0:63) REDEF REM,
       70      236    1           3 TYPE SBIN,
       71      237    1           3 PTR$ PTR,
       72      238    1           3 EPTR$ REDEF PTR$ EPTR,
       73      239    1         2 PREV$ PTR,
       74      240    1         2 NEXT$ PTR;
       75      241    1   DCL X9OS$EXIT_INDEX SBIN SYMREF;
       76      242    1   DCL 1 EXIT$BLOCK DALIGNED BASED (EXIT_BLOCK$),
       77      243    1         2 REM (0:63) REMEMBER,
       78      244    1         2 ITEM (0:63) REDEF REM,
       79      245    1           3 TYPE SBIN,
       80      246    1           3 PTR$ PTR,
       81      247    1           3 EPTR$ REDEF PTR$ EPTR,
       82      248    1         2 PREV$ PTR,
       83      249    1         2 NEXT$ PTR;
       84      250    1   DCL EXIT_BLOCK$ PTR;
PL6.E3A0      #002=X9ER$USE_ENTRY File=X9ER.:X8A6TSI                             SAT 08/09/97 10:57 Page:22
       85      251    1   DCL I SBIN;
       86      252    1   DCL X9MA$ALLOCATE ENTRY(2);
       87      253          /**/
       88      254    1     EXIT_BLOCK$ = ADDR (X9OS$EXIT_BLOCK);

    254 17 000003   000000 236000 18                 LDQ     0
        17 000004   200051 756100                    STQ     EXIT_BLOCK$,,AUTO

       89      255    1     I = X9OS$EXIT_INDEX;

    255 17 000005   000000 235000 xsym               LDA     X9OS$EXIT_INDEX
        17 000006   200052 755100                    STA     I,,AUTO

       90      256    2     IF X9OS$EXIT_INDEX >= 64 THEN DO;

    256 17 000007   000100 115007                    CMPA    64,DL
        17 000010   000047 604000 17                 TMI     s:271

       91      257    3       DO WHILE I > 64;

    257 17 000011   000022 604400 17                 TMOZ    s:261

       92      258    3         EXIT_BLOCK$ = EXIT$BLOCK.NEXT$;

    258 17 000012   200051 470500                    LDP0    EXIT_BLOCK$,,AUTO
        17 000013   000201 236100                    LDQ     129,,PR0
        17 000014   200051 756100                    STQ     EXIT_BLOCK$,,AUTO

       93      259    3         I = I - 64;

    259 17 000015   000100 336007                    LCQ     64,DL
        17 000016   200052 056100                    ASQ     I,,AUTO

       94      260    3       END;

    260 17 000017   200052 235100                    LDA     I,,AUTO
        17 000020   000100 115007                    CMPA    64,DL
PL6.E3A0      #002=X9ER$USE_ENTRY File=X9ER.:X8A6TSI                             SAT 08/09/97 10:57 Page:23
        17 000021   000012 605400 17                 TPNZ    s:258

       95      261    3       IF I = 64 THEN DO;

    261 17 000022   000047 601000 17                 TNZ     s:271

       96      262    3         I = 0;

    262 17 000023   200052 450100                    STZ     I,,AUTO

       97      263    3         IF EXIT$BLOCK.NEXT$ = ADDR (NIL) THEN

    263 17 000024   200051 470500                    LDP0    EXIT_BLOCK$,,AUTO
        17 000025   000201 236100                    LDQ     129,,PR0
        17 000026   000001 116000 18                 CMPQ    1
        17 000027   000045 601000 17                 TNZ     s:268

       98      264    4           DO;

       99      265    4             CALL X9MA$ALLOCATE (EXIT$BLOCK.NEXT$, SIZEC (X9OS$EXIT_BLOCK));

    265 17 000030   000004 236000 18                 LDQ     4
        17 000031   200055 756100                    STQ     I+3,,AUTO
        17 000032   200051 236100                    LDQ     EXIT_BLOCK$,,AUTO
        17 000033   000201 036003                    ADLQ    129,DU
        17 000034   200054 756100                    STQ     I+2,,AUTO
        17 000035   200054 630500                    EPPR0   I+2,,AUTO
        17 000036   000002 631400 18                 EPPR1   2
        17 000037   000000 701000 xent               TSX1    X9MA$ALLOCATE
        17 000040   000000 011000                    NOP     0

      100      266    4             EXIT$BLOCK.NEXT$ -> EXIT$BLOCK.PREV$ = EXIT_BLOCK$;

    266 17 000041   200051 470500                    LDP0    EXIT_BLOCK$,,AUTO
        17 000042   000201 471500                    LDP1    129,,PR0
        17 000043   200051 236100                    LDQ     EXIT_BLOCK$,,AUTO
        17 000044   100200 756100                    STQ     128,,PR1
PL6.E3A0      #002=X9ER$USE_ENTRY File=X9ER.:X8A6TSI                             SAT 08/09/97 10:57 Page:24

      101      267    4           END; /* EXIT$BLOCK.NEXT$ = ADDR (NIL) */

      102      268    3         EXIT_BLOCK$ = EXIT$BLOCK.NEXT$;

    268 17 000045   000201 236100                    LDQ     129,,PR0
        17 000046   200051 756100                    STQ     EXIT_BLOCK$,,AUTO

      103      269    3       END; /* IF I = 64 */

      104      270    2     END;

      105      271    1     EXIT$BLOCK.ITEM.TYPE (I) = 2;

    271 17 000047   200052 235100                    LDA     I,,AUTO
        17 000050   000001 735000                    ALS     1
        17 000051   000002 236007                    LDQ     2,DL
        17 000052   200051 470500                    LDP0    EXIT_BLOCK$,,AUTO
        17 000053   000000 756105                    STQ     0,AL,PR0

      106      272    1     EXIT$BLOCK.ITEM.PTR$ (I) = DML$INTERFACE$AREA$;

    272 17 000054   200050 236100                    LDQ     DML$INTERFACE$AREA$,,AUTO
        17 000055   000001 756105                    STQ     1,AL,PR0

      107      273    1     X9OS$EXIT_INDEX = X9OS$EXIT_INDEX + 1;

    273 17 000056   000000 054000 xsym               AOS     X9OS$EXIT_INDEX

      108      274    1   END X9ER$USE_ENTRY;

    274 17 000057   000000 702200 xent               TSX2  ! X66_ARET
      109      275        %EOD;

PL6.E3A0      #002=X9ER$USE_ENTRY File=X9ER.:X8A6TSI                             SAT 08/09/97 10:57 Page:25
--  Include file information  --

   X8A_LIBCOM.:X8A6TOU  cannot be made into a system file and is referenced.
      No diagnostics issued in procedure X9ER$USE_ENTRY.
PL6.E3A0      #002=X9ER$USE_ENTRY File=X9ER.:X8A6TSI                             SAT 08/09/97 10:57 Page:26

 **** Variables and constants ****

  ****  Section 000 LblCom LIBCOM

  ****  Scalars and arrays  ****
OctLoc.c.b A Datatyp(siz) R M Lvl/name                 OctLoc.c.b A Datatyp(siz) R M Lvl/name

     0-0-0/w STRC(720)         1 LIBCOM

  ****  Section 001 LblCom DEC_OR_COMMA

  ****  Scalars and arrays  ****
OctLoc.c.b A Datatyp(siz) R M Lvl/name                 OctLoc.c.b A Datatyp(siz) R M Lvl/name

     0-0-0/c CHAR              1 DEC_OR_COMMA

  ****  Section 002 LblCom IN_TEMP

  ****  Scalars and arrays  ****
OctLoc.c.b A Datatyp(siz) R M Lvl/name                 OctLoc.c.b A Datatyp(siz) R M Lvl/name

     0-0-0/c CHAR(80)          1 IN_TEMP

  ****  Section 003 LblCom OVRCHR

  ****  Scalars and arrays  ****
OctLoc.c.b A Datatyp(siz) R M Lvl/name                 OctLoc.c.b A Datatyp(siz) R M Lvl/name

     0-0-0/c CHAR              1 OVRCHR

  ****  Section 004 LblCom SELECT_TIME

  ****  Scalars and arrays  ****
OctLoc.c.b A Datatyp(siz) R M Lvl/name                 OctLoc.c.b A Datatyp(siz) R M Lvl/name

     0-0-0/w UBIN              1 SELECT_TIME

PL6.E3A0      #002=X9ER$USE_ENTRY File=X9ER.:X8A6TSI                             SAT 08/09/97 10:57 Page:27
  ****  Section 005 LblCom NO_ADVANCE_OFFSET

  ****  Scalars and arrays  ****
OctLoc.c.b A Datatyp(siz) R M Lvl/name                 OctLoc.c.b A Datatyp(siz) R M Lvl/name

     0-0-0/w UBIN              1 NO_ADVANCE_OFFSET

  ****  Section 006 LblCom DSPLY_SAVE

  ****  Scalars and arrays  ****
OctLoc.c.b A Datatyp(siz) R M Lvl/name                 OctLoc.c.b A Datatyp(siz) R M Lvl/name

     0-0-0/c CHAR(72)          1 DSPLY_SAVE

  ****  Section 007 LblCom D_DATE

  ****  Scalars and arrays  ****
OctLoc.c.b A Datatyp(siz) R M Lvl/name                 OctLoc.c.b A Datatyp(siz) R M Lvl/name

     0-0-0/c CHAR(10)          1 D_DATE

  ****  Section 008 LblCom D_TIME

  ****  Scalars and arrays  ****
OctLoc.c.b A Datatyp(siz) R M Lvl/name                 OctLoc.c.b A Datatyp(siz) R M Lvl/name

     0-0-0/c CHAR(11)          1 D_TIME

  ****  Section 009 LblCom D_DAY

  ****  Scalars and arrays  ****
OctLoc.c.b A Datatyp(siz) R M Lvl/name                 OctLoc.c.b A Datatyp(siz) R M Lvl/name

     0-0-0/c CHAR(3)           1 D_DAY

  ****  Section 010 LblCom C_DATE

PL6.E3A0      #002=X9ER$USE_ENTRY File=X9ER.:X8A6TSI                             SAT 08/09/97 10:57 Page:28
  ****  Scalars and arrays  ****
OctLoc.c.b A Datatyp(siz) R M Lvl/name                 OctLoc.c.b A Datatyp(siz) R M Lvl/name

     0-0-0/c CHAR(6)           1 C_DATE

  ****  Section 011 LblCom C_TIME

  ****  Scalars and arrays  ****
OctLoc.c.b A Datatyp(siz) R M Lvl/name                 OctLoc.c.b A Datatyp(siz) R M Lvl/name

     0-0-0/c CHAR(8)           1 C_TIME

  ****  Section 012 LblCom C_DAY

  ****  Scalars and arrays  ****
OctLoc.c.b A Datatyp(siz) R M Lvl/name                 OctLoc.c.b A Datatyp(siz) R M Lvl/name

     0-0-0/c CHAR(5)           1 C_DAY

  ****  Section 013 LblCom RTHOLD2

  ****  Scalars and arrays  ****
OctLoc.c.b A Datatyp(siz) R M Lvl/name                 OctLoc.c.b A Datatyp(siz) R M Lvl/name

     0-0-0/w UBIN              1 RTHOLD2

  ****  Section 014 LblCom LTHOLD2

  ****  Scalars and arrays  ****
OctLoc.c.b A Datatyp(siz) R M Lvl/name                 OctLoc.c.b A Datatyp(siz) R M Lvl/name

     0-0-0/w UBIN              1 LTHOLD2

  ****  Section 015 LblCom NDX2

  ****  Scalars and arrays  ****
OctLoc.c.b A Datatyp(siz) R M Lvl/name                 OctLoc.c.b A Datatyp(siz) R M Lvl/name
PL6.E3A0      #002=X9ER$USE_ENTRY File=X9ER.:X8A6TSI                             SAT 08/09/97 10:57 Page:29

     0-0-0/w SBIN              1 NDX2

  ****  Section 016 LblCom IN_LEN

  ****  Scalars and arrays  ****
OctLoc.c.b A Datatyp(siz) R M Lvl/name                 OctLoc.c.b A Datatyp(siz) R M Lvl/name

     0-0-0/w UBIN              1 IN_LEN

  ****  Auto variables  ****

  ****  Scalars and arrays  ****
OctLoc.c.b A Datatyp(siz) R M Lvl/name                 OctLoc.c.b A Datatyp(siz) R M Lvl/name

    50-0-0/w PTR         r     1 DML$INTERFACE$AREA$       51-0-0/w PTR         r     1 EXIT_BLOCK$
    52-0-0/w SBIN        r     1 I                          3-0-0/w SBIN              1 LT
     4-0-0/c CHAR(65)          1 LTHOLD                    46-0-0/w SBIN              1 NDX
    47-0-0/w SBIN              1 NDX3                      25-0-0/c CHAR(65)          1 RTHOLD

  ****  SYMREF variables  ****

  ****  Scalars and arrays  ****
OctLoc.c.b A Datatyp(siz) R M Lvl/name                 OctLoc.c.b A Datatyp(siz) R M Lvl/name

     0-0-0/d STRC(4680)  r     1 X9OS$EXIT_BLOCK            0-0-0/w SBIN        r     1 X9OS$EXIT_INDEX

  ****  BASED and DCB variables  ****

  ****  Scalars and arrays  ****
OctLoc.c.b A Datatyp(siz) R M Lvl/name                 OctLoc.c.b A Datatyp(siz) R M Lvl/name

     0-0-0/w STRC(252)         1 DML$INTERFACE$AREA         0-0-0/d STRC(4680)  r     1 EXIT$BLOCK


   Procedure X9ER$USE_ENTRY requires 48 words for executable code.
PL6.E3A0      #002=X9ER$USE_ENTRY File=X9ER.:X8A6TSI                             SAT 08/09/97 10:57 Page:30
   Procedure X9ER$USE_ENTRY requires 46 words of local(AUTO) storage.

PL6.E3A0      #003=X9ER$USE_EXIT File=X9ER.:X8A6TSI                              SAT 08/09/97 10:57 Page:31
      110        1        /*T***********************************************************/
      111        2        /*T*                                                         */
      112        3        /*T* Copyright (c) Bull HN Information Systems Inc., 1997    */
      113        4        /*T*                                                         */
      114        5        /*T***********************************************************/
      115        6        X9ER$USE_EXIT: PROC MATERIALIZE ($PR0 IN DML$INTERFACE$AREA$);
      116        7    1   DCL DML$INTERFACE$AREA$ PTR;
      117        8        %INCLUDE X8A_LIBCOM;
      118      228    1   DCL 1 DML$INTERFACE$AREA DALIGNED BASED (DML$INTERFACE$AREA$),
      119      229    1         2 * (0:5) UBIN,
      120      230    1         2 * BIT (9),
      121      231    1         2 USE_PROC_SAVE BIT (1),
      122      232    1         2 * BIT (26);
      123      233    1   DCL X9OS$EXIT_INDEX SBIN SYMREF;
      124      234          /**/
      125      235    1     X9OS$EXIT_INDEX = X9OS$EXIT_INDEX - 1;
      126      236    1     LIBCOM.USE_PROC = DML$INTERFACE$AREA.USE_PROC_SAVE;
      127      237    1   END X9ER$USE_EXIT;

PL6.E3A0      #003=X9ER$USE_EXIT File=X9ER.:X8A6TSI                              SAT 08/09/97 10:57 Page:32
--  Include file information  --

   X8A_LIBCOM.:X8A6TOU  cannot be made into a system file and is referenced.
      No diagnostics issued in procedure X9ER$USE_EXIT.

   Procedure X9ER$USE_EXIT requires 10 words for executable code.
   Procedure X9ER$USE_EXIT requires 42 words of local(AUTO) storage.

    No errors detected in file X9ER.:X8A6TSI    .

PL6.E3A0      #003=X9ER$USE_EXIT File=X9ER.:X8A6TSI                              SAT 08/09/97 10:57 Page:33

 Object Unit name= X9ER$USE_EXIT                              File name= X9ER.:X8A6TOU
 UTS= AUG 09 '97 10:57:36.72 SAT                              Compiler= PL-6/E31         Sev=      00
 SharedLib= :SHARED_SYSTEM                                    Alt SharedLib=


    ****  Control sections  ****

 Sect   Type Bound  Init  Size OctSiz  Section name(segment info)
    0  LblCom even  none    20     24  LIBCOM
    1  LblCom even  none     1      1  DEC_OR_COMMA
    2  LblCom even  none    20     24  IN_TEMP
    3  LblCom even  none     1      1  OVRCHR
    4  LblCom even  none     1      1  SELECT_TIME
    5  LblCom even  none     1      1  NO_ADVANCE_OFFSET
    6  LblCom even  none    18     22  DSPLY_SAVE
    7  LblCom even  none     3      3  D_DATE
    8  LblCom even  none     3      3  D_TIME
    9  LblCom even  none     1      1  D_DAY
   10  LblCom even  none     2      2  C_DATE
   11  LblCom even  none     2      2  C_TIME
   12  LblCom even  none     2      2  C_DAY
   13  LblCom even  none     1      1  RTHOLD2
   14  LblCom even  none     1      1  LTHOLD2
   15  LblCom even  none     1      1  NDX2
   16  LblCom even  none     1      1  IN_LEN
   17   Proc  even  none    10     12  X9ER$USE_EXIT

    ****  Entry defs  ****

                              Check   Calling
                             calling  sequence
  Sect OctLoc Primary Altret sequence   type   Parms  Name
    17      0   yes            yes      Std        0  X9ER$USE_EXIT
PL6.E3A0      #003=X9ER$USE_EXIT File=X9ER.:X8A6TSI                              SAT 08/09/97 10:57 Page:34

  ****  Entry refs  ****

         Check        Calling
        calling       sequence
Altret sequence SRef   type   Args  Name
                       nStd      0 X66_AUTO_0
                       nStd      0 X66_ARET

  ****  Data refs  ****

  Flags:  r = read only, s = secondary
Flgs Name                             Flgs Name                             Flgs Name
     X9OS$EXIT_INDEX
PL6.E3A0      #003=X9ER$USE_EXIT File=X9ER.:X8A6TSI                              SAT 08/09/97 10:57 Page:35


      110        1        /*T***********************************************************/
      111        2        /*T*                                                         */
      112        3        /*T* Copyright (c) Bull HN Information Systems Inc., 1997    */
      113        4        /*T*                                                         */
      114        5        /*T***********************************************************/
      115        6        X9ER$USE_EXIT: PROC MATERIALIZE ($PR0 IN DML$INTERFACE$AREA$);

      6 17 000000   000000 700200 xent  X9ER$USE_EX* TSX0  ! X66_AUTO_0
        17 000001   000052 000000                    ZERO    42,0
        17 000002   200003 450700                    STP0  ! DML$INTERFACE$AREA$,,AUTO

      116        7    1   DCL DML$INTERFACE$AREA$ PTR;
      117        8        %INCLUDE X8A_LIBCOM;
      118      228    1   DCL 1 DML$INTERFACE$AREA DALIGNED BASED (DML$INTERFACE$AREA$),
      119      229    1         2 * (0:5) UBIN,
      120      230    1         2 * BIT (9),
      121      231    1         2 USE_PROC_SAVE BIT (1),
      122      232    1         2 * BIT (26);
      123      233    1   DCL X9OS$EXIT_INDEX SBIN SYMREF;
      124      234          /**/
      125      235    1     X9OS$EXIT_INDEX = X9OS$EXIT_INDEX - 1;

    235 17 000003   000001 336007                    LCQ     1,DL
        17 000004   000000 056000 xsym               ASQ     X9OS$EXIT_INDEX

      126      236    1     LIBCOM.USE_PROC = DML$INTERFACE$AREA.USE_PROC_SAVE;

    236 17 000005   000006 236100                    LDQ     6,,PR0
        17 000006   000011 736000                    QLS     9
        17 000007   400000 376003                    ANQ     -131072,DU
        17 000010   000022 756000 0                  STQ     LIBCOM+18

      127      237    1   END X9ER$USE_EXIT;

    237 17 000011   000000 702200 xent               TSX2  ! X66_ARET

PL6.E3A0      #003=X9ER$USE_EXIT File=X9ER.:X8A6TSI                              SAT 08/09/97 10:57 Page:36
--  Include file information  --

   X8A_LIBCOM.:X8A6TOU  cannot be made into a system file and is referenced.
      No diagnostics issued in procedure X9ER$USE_EXIT.
PL6.E3A0      #003=X9ER$USE_EXIT File=X9ER.:X8A6TSI                              SAT 08/09/97 10:57 Page:37

 **** Variables and constants ****

  ****  Section 000 LblCom LIBCOM

  ****  Scalars and arrays  ****
OctLoc.c.b A Datatyp(siz) R M Lvl/name                 OctLoc.c.b A Datatyp(siz) R M Lvl/name

     0-0-0/w STRC(720)   r     1 LIBCOM

  ****  Section 001 LblCom DEC_OR_COMMA

  ****  Scalars and arrays  ****
OctLoc.c.b A Datatyp(siz) R M Lvl/name                 OctLoc.c.b A Datatyp(siz) R M Lvl/name

     0-0-0/c CHAR              1 DEC_OR_COMMA

  ****  Section 002 LblCom IN_TEMP

  ****  Scalars and arrays  ****
OctLoc.c.b A Datatyp(siz) R M Lvl/name                 OctLoc.c.b A Datatyp(siz) R M Lvl/name

     0-0-0/c CHAR(80)          1 IN_TEMP

  ****  Section 003 LblCom OVRCHR

  ****  Scalars and arrays  ****
OctLoc.c.b A Datatyp(siz) R M Lvl/name                 OctLoc.c.b A Datatyp(siz) R M Lvl/name

     0-0-0/c CHAR              1 OVRCHR

  ****  Section 004 LblCom SELECT_TIME

  ****  Scalars and arrays  ****
OctLoc.c.b A Datatyp(siz) R M Lvl/name                 OctLoc.c.b A Datatyp(siz) R M Lvl/name

     0-0-0/w UBIN              1 SELECT_TIME

PL6.E3A0      #003=X9ER$USE_EXIT File=X9ER.:X8A6TSI                              SAT 08/09/97 10:57 Page:38
  ****  Section 005 LblCom NO_ADVANCE_OFFSET

  ****  Scalars and arrays  ****
OctLoc.c.b A Datatyp(siz) R M Lvl/name                 OctLoc.c.b A Datatyp(siz) R M Lvl/name

     0-0-0/w UBIN              1 NO_ADVANCE_OFFSET

  ****  Section 006 LblCom DSPLY_SAVE

  ****  Scalars and arrays  ****
OctLoc.c.b A Datatyp(siz) R M Lvl/name                 OctLoc.c.b A Datatyp(siz) R M Lvl/name

     0-0-0/c CHAR(72)          1 DSPLY_SAVE

  ****  Section 007 LblCom D_DATE

  ****  Scalars and arrays  ****
OctLoc.c.b A Datatyp(siz) R M Lvl/name                 OctLoc.c.b A Datatyp(siz) R M Lvl/name

     0-0-0/c CHAR(10)          1 D_DATE

  ****  Section 008 LblCom D_TIME

  ****  Scalars and arrays  ****
OctLoc.c.b A Datatyp(siz) R M Lvl/name                 OctLoc.c.b A Datatyp(siz) R M Lvl/name

     0-0-0/c CHAR(11)          1 D_TIME

  ****  Section 009 LblCom D_DAY

  ****  Scalars and arrays  ****
OctLoc.c.b A Datatyp(siz) R M Lvl/name                 OctLoc.c.b A Datatyp(siz) R M Lvl/name

     0-0-0/c CHAR(3)           1 D_DAY

  ****  Section 010 LblCom C_DATE

PL6.E3A0      #003=X9ER$USE_EXIT File=X9ER.:X8A6TSI                              SAT 08/09/97 10:57 Page:39
  ****  Scalars and arrays  ****
OctLoc.c.b A Datatyp(siz) R M Lvl/name                 OctLoc.c.b A Datatyp(siz) R M Lvl/name

     0-0-0/c CHAR(6)           1 C_DATE

  ****  Section 011 LblCom C_TIME

  ****  Scalars and arrays  ****
OctLoc.c.b A Datatyp(siz) R M Lvl/name                 OctLoc.c.b A Datatyp(siz) R M Lvl/name

     0-0-0/c CHAR(8)           1 C_TIME

  ****  Section 012 LblCom C_DAY

  ****  Scalars and arrays  ****
OctLoc.c.b A Datatyp(siz) R M Lvl/name                 OctLoc.c.b A Datatyp(siz) R M Lvl/name

     0-0-0/c CHAR(5)           1 C_DAY

  ****  Section 013 LblCom RTHOLD2

  ****  Scalars and arrays  ****
OctLoc.c.b A Datatyp(siz) R M Lvl/name                 OctLoc.c.b A Datatyp(siz) R M Lvl/name

     0-0-0/w UBIN              1 RTHOLD2

  ****  Section 014 LblCom LTHOLD2

  ****  Scalars and arrays  ****
OctLoc.c.b A Datatyp(siz) R M Lvl/name                 OctLoc.c.b A Datatyp(siz) R M Lvl/name

     0-0-0/w UBIN              1 LTHOLD2

  ****  Section 015 LblCom NDX2

  ****  Scalars and arrays  ****
OctLoc.c.b A Datatyp(siz) R M Lvl/name                 OctLoc.c.b A Datatyp(siz) R M Lvl/name
PL6.E3A0      #003=X9ER$USE_EXIT File=X9ER.:X8A6TSI                              SAT 08/09/97 10:57 Page:40

     0-0-0/w SBIN              1 NDX2

  ****  Section 016 LblCom IN_LEN

  ****  Scalars and arrays  ****
OctLoc.c.b A Datatyp(siz) R M Lvl/name                 OctLoc.c.b A Datatyp(siz) R M Lvl/name

     0-0-0/w UBIN              1 IN_LEN

  ****  Auto variables  ****

  ****  Scalars and arrays  ****
OctLoc.c.b A Datatyp(siz) R M Lvl/name                 OctLoc.c.b A Datatyp(siz) R M Lvl/name

     3-0-0/w PTR         r     1 DML$INTERFACE$AREA$        4-0-0/w SBIN              1 LT
     5-0-0/c CHAR(65)          1 LTHOLD                    47-0-0/w SBIN              1 NDX
    50-0-0/w SBIN              1 NDX3                      26-0-0/c CHAR(65)          1 RTHOLD

  ****  SYMREF variables  ****

  ****  Scalars and arrays  ****
OctLoc.c.b A Datatyp(siz) R M Lvl/name                 OctLoc.c.b A Datatyp(siz) R M Lvl/name

     0-0-0/w SBIN        r     1 X9OS$EXIT_INDEX

  ****  BASED and DCB variables  ****

  ****  Scalars and arrays  ****
OctLoc.c.b A Datatyp(siz) R M Lvl/name                 OctLoc.c.b A Datatyp(siz) R M Lvl/name

     0-0-0/d STRC(252)   r     1 DML$INTERFACE$AREA


   Procedure X9ER$USE_EXIT requires 10 words for executable code.
   Procedure X9ER$USE_EXIT requires 42 words of local(AUTO) storage.
PL6.E3A0      #003=X9ER$USE_EXIT File=X9ER.:X8A6TSI                              SAT 08/09/97 10:57 Page:41

    No errors detected in file X9ER.:X8A6TSI    .
