VERSION A06

PL6.E3A0      #001=X9FT$FIGURE_TIMES File=X9FT.:X8A6TSI                          SAT 08/09/97 10:55 Page:1
        1        1        /*M*  X9FT$FIGURE_TIMES                                                     */
        2        2        /*T***********************************************************/
        3        3        /*T*                                                         */
        4        4        /*T* Copyright (c) Bull HN Information Systems Inc., 1997    */
        5        5        /*T*                                                         */
        6        6        /*T***********************************************************/
        7        7
        8        8        X9FT$FIGURE_TIMES: PROC;
        9        9
       10       10        /*P*
       11       11
       12       12                   NAME: X9FT$FIGURE_TIMES
       13       13                PURPOSE:
       14       14
       15       15
       16       16        */
       17       17        /*D*
       18       18                   NAME: X9FT$FIGURE_TIMES
       19       19                   CALL:
       20       20
       21       21
       22       22
       23       23              INTERFACE:
       24       24                 OUTPUT:
       25       25                SCRATCH: NONE
       26       26              REFERENCE:
       27       27        */
       28       28            %INCLUDE X8A_SYS_FILE;
       29     6298            %INCLUDE X8A_LIBCOM;
       30     6518
       31     6519    1       DCL X9LP$PRINT          ENTRY(3);
       32     6520
       33     6521    1       DCL TIME       CHAR ( 10 );
       34     6522    1       DCL 1 TIME_OUT   STATIC,
       35     6523    1           2 *          CHAR (20) INIT ('CP6 Execution Time'),
       36     6524    1           2 SECONDS    CHAR (4),
       37     6525    1           2 *          CHAR (1)  INIT ('.'),
PL6.E3A0      #001=X9FT$FIGURE_TIMES File=X9FT.:X8A6TSI                          SAT 08/09/97 10:55 Page:2
       38     6526    1           2 MILLISECS  CHAR (3),
       39     6527    1           2 *          CHAR (1)  INIT (','),
       40     6528    1           2 MICROSECS  CHAR (3),
       41     6529    1           2 *          CHAR (48) INIT ('  seconds.');
       42     6530
       43     6531    1       DCL 1 XEQTIMES STATIC DALIGNED,
       44     6532    1              2 *        UBIN WORD UNAL,
       45     6533    1              2 XEQ      UBIN WORD UNAL,
       46     6534    1              2 *        UBIN WORD UNAL,
       47     6535    1              2 SERV     UBIN WORD UNAL;
       48     6536    1       DCL LENGTH   UBIN WORD;
       49     6537    1       DCL START    SBIN WORD STATIC;
       50     6538
       51     6539            %FPT_XEQTIME(BUF=XEQTIMES);
       52     6552
       53     6553    1       CALL M$XEQTIME(FPT_XEQTIME);
       54     6554    1       START = XEQTIMES.XEQ - START;
       55     6555    1       CALL BINCHAR ( TIME , START ) ;
       56     6556    1       TIME_OUT.SECONDS   = SUBSTR ( TIME,0,4 );
       57     6557    1       TIME_OUT.MILLISECS = SUBSTR ( TIME,4,3 );
       58     6558    1       TIME_OUT.MICROSECS = SUBSTR ( TIME,7,3 );
       59     6559    1       LENGTH = 60;
       60     6560    1       CALL X9LP$PRINT (TIME_OUT, LENGTH, %DISPLAY_SYSOUT);
       61     6561    1       RETURN;
       62     6562
       63     6563    1   X9FT$START_TIME:       ENTRY;
       64     6564
       65     6565    1       CALL M$XEQTIME( FPT_XEQTIME );
       66     6566    1       START = XEQTIMES.XEQ;
       67     6567
       68     6568
       69     6569    1   END X9FT$FIGURE_TIMES;   /* END PROC */

PL6.E3A0      #001=X9FT$FIGURE_TIMES File=X9FT.:X8A6TSI                          SAT 08/09/97 10:55 Page:3
--  Include file information  --

   X8A_LIBCOM.:X8A6TOU  cannot be made into a system file and is referenced.
   CP_6_SUBS.:LIB_E04  is referenced.
   CP_6_C.:LIB_E04  is referenced.
   CP_6.:LIB_E04  cannot be made into a system file and is referenced.
   Z9A_FLAGS.:Z8A6TOU  is referenced.
   X8A_SYS_FILE.:X8A6TOU  is referenced.
      No diagnostics issued in procedure X9FT$FIGURE_TIMES.

   Procedure X9FT$FIGURE_TIMES requires 44 words for executable code.
   Procedure X9FT$FIGURE_TIMES requires 48 words of local(AUTO) storage.

    No errors detected in file X9FT.:X8A6TSI    .

PL6.E3A0      #001=X9FT$FIGURE_TIMES File=X9FT.:X8A6TSI                          SAT 08/09/97 10:55 Page:4

 Object Unit name= X9FT$FIGURE_TIMES                          File name= X9FT.:X8A6TOU
 UTS= AUG 09 '97 10:55:58.16 SAT                              Compiler= PL-6/E31         Sev=      00
 SharedLib= :SHARED_SYSTEM                                    Alt SharedLib=


    ****  Control sections  ****

 Sect   Type Bound  Init  Size OctSiz  Section name(segment info)
    0   DCB   even  none     0      0  M$UC
    1  LblCom even  none    20     24  LIBCOM
    2  LblCom even  none     1      1  DEC_OR_COMMA
    3  LblCom even  none    20     24  IN_TEMP
    4  LblCom even  none     1      1  OVRCHR
    5  LblCom even  none     1      1  SELECT_TIME
    6  LblCom even  none     1      1  NO_ADVANCE_OFFSET
    7  LblCom even  none    18     22  DSPLY_SAVE
    8  LblCom even  none     3      3  D_DATE
    9  LblCom even  none     3      3  D_TIME
   10  LblCom even  none     1      1  D_DAY
   11  LblCom even  none     2      2  C_DATE
   12  LblCom even  none     2      2  C_TIME
   13  LblCom even  none     2      2  C_DAY
   14  LblCom even  none     1      1  RTHOLD2
   15  LblCom even  none     1      1  LTHOLD2
   16  LblCom even  none     1      1  NDX2
   17  LblCom even  none     1      1  IN_LEN
   18   Data  even  none    28     34  X9FT$FIGURE_TIMES
   19   Proc  even  none    44     54  X9FT$FIGURE_TIMES
   20  RoData even  none     5      5  X9FT$FIGURE_TIMES

    ****  Entry defs  ****

                              Check   Calling
                             calling  sequence
  Sect OctLoc Primary Altret sequence   type   Parms  Name
    19      0   yes            yes      Std        0  X9FT$FIGURE_TIMES
    19     44                  yes      Std        0  X9FT$START_TIME
PL6.E3A0      #001=X9FT$FIGURE_TIMES File=X9FT.:X8A6TSI                          SAT 08/09/97 10:55 Page:5

  ****  Entry refs  ****

         Check        Calling
        calling       sequence
Altret sequence SRef   type   Args  Name
         yes           Std       3 X9LP$PRINT
                       nStd      0 X66_AUTO_0
                       nStd      0 X66_ARET

  ****  Data refs  ****

  Flags:  r = read only, s = secondary
Flgs Name                             Flgs Name                             Flgs Name
     M$UC

  ****  Segment refs  ****

  Flags:  r = read only, s = secondary
Flgs Name                             Flgs Name                             Flgs Name
     ISSID
PL6.E3A0      #001=X9FT$FIGURE_TIMES File=X9FT.:X8A6TSI                          SAT 08/09/97 10:55 Page:6


        1        1        /*M*  X9FT$FIGURE_TIMES                                                     */
        2        2        /*T***********************************************************/
        3        3        /*T*                                                         */
        4        4        /*T* Copyright (c) Bull HN Information Systems Inc., 1997    */
        5        5        /*T*                                                         */
        6        6        /*T***********************************************************/
        7        7
        8        8        X9FT$FIGURE_TIMES: PROC;

      8 19 000000   000000 700200 xent  X9FT$FIGURE* TSX0  ! X66_AUTO_0
        19 000001   000060 000000                    ZERO    48,0

        9        9
       10       10        /*P*
       11       11
       12       12                   NAME: X9FT$FIGURE_TIMES
       13       13                PURPOSE:
       14       14
       15       15
       16       16        */
       17       17        /*D*
       18       18                   NAME: X9FT$FIGURE_TIMES
       19       19                   CALL:
       20       20
       21       21
       22       22
       23       23              INTERFACE:
       24       24                 OUTPUT:
       25       25                SCRATCH: NONE
       26       26              REFERENCE:
       27       27        */
       28       28            %INCLUDE X8A_SYS_FILE;
       29     6298            %INCLUDE X8A_LIBCOM;
       30     6518
       31     6519    1       DCL X9LP$PRINT          ENTRY(3);
       32     6520
PL6.E3A0      #001=X9FT$FIGURE_TIMES File=X9FT.:X8A6TSI                          SAT 08/09/97 10:55 Page:7
       33     6521    1       DCL TIME       CHAR ( 10 );
       34     6522    1       DCL 1 TIME_OUT   STATIC,
       35     6523    1           2 *          CHAR (20) INIT ('CP6 Execution Time'),
       36     6524    1           2 SECONDS    CHAR (4),
       37     6525    1           2 *          CHAR (1)  INIT ('.'),
       38     6526    1           2 MILLISECS  CHAR (3),
       39     6527    1           2 *          CHAR (1)  INIT (','),
       40     6528    1           2 MICROSECS  CHAR (3),
       41     6529    1           2 *          CHAR (48) INIT ('  seconds.');
       42     6530
       43     6531    1       DCL 1 XEQTIMES STATIC DALIGNED,
       44     6532    1              2 *        UBIN WORD UNAL,
       45     6533    1              2 XEQ      UBIN WORD UNAL,
       46     6534    1              2 *        UBIN WORD UNAL,
       47     6535    1              2 SERV     UBIN WORD UNAL;
       48     6536    1       DCL LENGTH   UBIN WORD;
       49     6537    1       DCL START    SBIN WORD STATIC;
       50     6538
       51     6539            %FPT_XEQTIME(BUF=XEQTIMES);
       52     6552
       53     6553    1       CALL M$XEQTIME(FPT_XEQTIME);

   6553 19 000002   000032 630400 18                 EPPR0   FPT_XEQTIME
        19 000003   020011 713400                    CLIMB   8201
        19 000004   400000 401760                    pmme    nvectors=1

       54     6554    1       START = XEQTIMES.XEQ - START;

   6554 19 000005   000025 236000 18                 LDQ     XEQTIMES+1
        19 000006   000030 136000 18                 SBLQ    START
        19 000007   000030 756000 18                 STQ     START

       55     6555    1       CALL BINCHAR ( TIME , START ) ;

   6555 19 000010   000100 301400                    BTD
        19 000011   000030 000004 18                 NDSC9   START                    cn=0,s=lsgnf,sf=0,n=4
        19 000012   200050 030012                    NDSC9   TIME,,AUTO               cn=0,s=nosgn,sf=0,n=10
PL6.E3A0      #001=X9FT$FIGURE_TIMES File=X9FT.:X8A6TSI                          SAT 08/09/97 10:55 Page:8

       56     6556    1       TIME_OUT.SECONDS   = SUBSTR ( TIME,0,4 );

   6556 19 000013   200050 236100                    LDQ     TIME,,AUTO
        19 000014   000005 756000 18                 STQ     TIME_OUT+5

       57     6557    1       TIME_OUT.MILLISECS = SUBSTR ( TIME,4,3 );

   6557 19 000015   200051 236100                    LDQ     TIME+1,,AUTO
        19 000016   000011 772000                    QRL     9
        19 000017   000006 552034 18                 STBQ    TIME_OUT+6,'34'O

       58     6558    1       TIME_OUT.MICROSECS = SUBSTR ( TIME,7,3 );

   6558 19 000020   200051 235100                    LDA     TIME+1,,AUTO
        19 000021   200052 236100                    LDQ     TIME+2,,AUTO
        19 000022   000011 773000                    LRL     9
        19 000023   000000 376000 20                 ANQ     0
        19 000024   000040 276007                    ORQ     32,DL
        19 000025   000011 772000                    QRL     9
        19 000026   000007 552034 18                 STBQ    TIME_OUT+7,'34'O

       59     6559    1       LENGTH = 60;

   6559 19 000027   000074 235007                    LDA     60,DL
        19 000030   200053 755100                    STA     LENGTH,,AUTO

       60     6560    1       CALL X9LP$PRINT (TIME_OUT, LENGTH, %DISPLAY_SYSOUT);

   6560 19 000031   000003 236000 20                 LDQ     3
        19 000032   200056 756100                    STQ     LENGTH+3,,AUTO
        19 000033   200053 630500                    EPPR0   LENGTH,,AUTO
        19 000034   200055 450500                    STP0    LENGTH+2,,AUTO
        19 000035   000004 236000 20                 LDQ     4
        19 000036   200054 756100                    STQ     LENGTH+1,,AUTO
        19 000037   200054 630500                    EPPR0   LENGTH+1,,AUTO
        19 000040   000001 631400 20                 EPPR1   1
PL6.E3A0      #001=X9FT$FIGURE_TIMES File=X9FT.:X8A6TSI                          SAT 08/09/97 10:55 Page:9
        19 000041   000000 701000 xent               TSX1    X9LP$PRINT
        19 000042   000000 011000                    NOP     0

       61     6561    1       RETURN;

   6561 19 000043   000000 702200 xent               TSX2  ! X66_ARET

       62     6562
       63     6563    1   X9FT$START_TIME:       ENTRY;

   6563 19 000044   000000 700200 xent  X9FT$START_* TSX0  ! X66_AUTO_0
        19 000045   000060 000000                    ZERO    48,0

       64     6564
       65     6565    1       CALL M$XEQTIME( FPT_XEQTIME );

   6565 19 000046   000032 630400 18                 EPPR0   FPT_XEQTIME
        19 000047   020011 713400                    CLIMB   8201
        19 000050   400000 401760                    pmme    nvectors=1

       66     6566    1       START = XEQTIMES.XEQ;

   6566 19 000051   000025 235000 18                 LDA     XEQTIMES+1
        19 000052   000030 755000 18                 STA     START

       67     6567
       68     6568
       69     6569    1   END X9FT$FIGURE_TIMES;   /* END PROC */

   6569 19 000053   000000 702200 xent               TSX2  ! X66_ARET

PL6.E3A0      #001=X9FT$FIGURE_TIMES File=X9FT.:X8A6TSI                          SAT 08/09/97 10:55 Page:10
--  Include file information  --

   X8A_LIBCOM.:X8A6TOU  cannot be made into a system file and is referenced.
   CP_6_SUBS.:LIB_E04  is referenced.
   CP_6_C.:LIB_E04  is referenced.
   CP_6.:LIB_E04  cannot be made into a system file and is referenced.
   Z9A_FLAGS.:Z8A6TOU  is referenced.
   X8A_SYS_FILE.:X8A6TOU  is referenced.
      No diagnostics issued in procedure X9FT$FIGURE_TIMES.
PL6.E3A0      #001=X9FT$FIGURE_TIMES File=X9FT.:X8A6TSI                          SAT 08/09/97 10:55 Page:11

 **** Variables and constants ****

  ****  Section 001 LblCom LIBCOM

  ****  Scalars and arrays  ****
OctLoc.c.b A Datatyp(siz) R M Lvl/name                 OctLoc.c.b A Datatyp(siz) R M Lvl/name

     0-0-0/w STRC(720)         1 LIBCOM

  ****  Section 002 LblCom DEC_OR_COMMA

  ****  Scalars and arrays  ****
OctLoc.c.b A Datatyp(siz) R M Lvl/name                 OctLoc.c.b A Datatyp(siz) R M Lvl/name

     0-0-0/c CHAR              1 DEC_OR_COMMA

  ****  Section 003 LblCom IN_TEMP

  ****  Scalars and arrays  ****
OctLoc.c.b A Datatyp(siz) R M Lvl/name                 OctLoc.c.b A Datatyp(siz) R M Lvl/name

     0-0-0/c CHAR(80)          1 IN_TEMP

  ****  Section 004 LblCom OVRCHR

  ****  Scalars and arrays  ****
OctLoc.c.b A Datatyp(siz) R M Lvl/name                 OctLoc.c.b A Datatyp(siz) R M Lvl/name

     0-0-0/c CHAR              1 OVRCHR

  ****  Section 005 LblCom SELECT_TIME

  ****  Scalars and arrays  ****
OctLoc.c.b A Datatyp(siz) R M Lvl/name                 OctLoc.c.b A Datatyp(siz) R M Lvl/name

     0-0-0/w UBIN              1 SELECT_TIME

PL6.E3A0      #001=X9FT$FIGURE_TIMES File=X9FT.:X8A6TSI                          SAT 08/09/97 10:55 Page:12
  ****  Section 006 LblCom NO_ADVANCE_OFFSET

  ****  Scalars and arrays  ****
OctLoc.c.b A Datatyp(siz) R M Lvl/name                 OctLoc.c.b A Datatyp(siz) R M Lvl/name

     0-0-0/w UBIN              1 NO_ADVANCE_OFFSET

  ****  Section 007 LblCom DSPLY_SAVE

  ****  Scalars and arrays  ****
OctLoc.c.b A Datatyp(siz) R M Lvl/name                 OctLoc.c.b A Datatyp(siz) R M Lvl/name

     0-0-0/c CHAR(72)          1 DSPLY_SAVE

  ****  Section 008 LblCom D_DATE

  ****  Scalars and arrays  ****
OctLoc.c.b A Datatyp(siz) R M Lvl/name                 OctLoc.c.b A Datatyp(siz) R M Lvl/name

     0-0-0/c CHAR(10)          1 D_DATE

  ****  Section 009 LblCom D_TIME

  ****  Scalars and arrays  ****
OctLoc.c.b A Datatyp(siz) R M Lvl/name                 OctLoc.c.b A Datatyp(siz) R M Lvl/name

     0-0-0/c CHAR(11)          1 D_TIME

  ****  Section 010 LblCom D_DAY

  ****  Scalars and arrays  ****
OctLoc.c.b A Datatyp(siz) R M Lvl/name                 OctLoc.c.b A Datatyp(siz) R M Lvl/name

     0-0-0/c CHAR(3)           1 D_DAY

  ****  Section 011 LblCom C_DATE

PL6.E3A0      #001=X9FT$FIGURE_TIMES File=X9FT.:X8A6TSI                          SAT 08/09/97 10:55 Page:13
  ****  Scalars and arrays  ****
OctLoc.c.b A Datatyp(siz) R M Lvl/name                 OctLoc.c.b A Datatyp(siz) R M Lvl/name

     0-0-0/c CHAR(6)           1 C_DATE

  ****  Section 012 LblCom C_TIME

  ****  Scalars and arrays  ****
OctLoc.c.b A Datatyp(siz) R M Lvl/name                 OctLoc.c.b A Datatyp(siz) R M Lvl/name

     0-0-0/c CHAR(8)           1 C_TIME

  ****  Section 013 LblCom C_DAY

  ****  Scalars and arrays  ****
OctLoc.c.b A Datatyp(siz) R M Lvl/name                 OctLoc.c.b A Datatyp(siz) R M Lvl/name

     0-0-0/c CHAR(5)           1 C_DAY

  ****  Section 014 LblCom RTHOLD2

  ****  Scalars and arrays  ****
OctLoc.c.b A Datatyp(siz) R M Lvl/name                 OctLoc.c.b A Datatyp(siz) R M Lvl/name

     0-0-0/w UBIN              1 RTHOLD2

  ****  Section 015 LblCom LTHOLD2

  ****  Scalars and arrays  ****
OctLoc.c.b A Datatyp(siz) R M Lvl/name                 OctLoc.c.b A Datatyp(siz) R M Lvl/name

     0-0-0/w UBIN              1 LTHOLD2

  ****  Section 016 LblCom NDX2

  ****  Scalars and arrays  ****
OctLoc.c.b A Datatyp(siz) R M Lvl/name                 OctLoc.c.b A Datatyp(siz) R M Lvl/name
PL6.E3A0      #001=X9FT$FIGURE_TIMES File=X9FT.:X8A6TSI                          SAT 08/09/97 10:55 Page:14

     0-0-0/w SBIN              1 NDX2

  ****  Section 017 LblCom IN_LEN

  ****  Scalars and arrays  ****
OctLoc.c.b A Datatyp(siz) R M Lvl/name                 OctLoc.c.b A Datatyp(siz) R M Lvl/name

     0-0-0/w UBIN              1 IN_LEN

  ****  Section 018  Data  X9FT$FIGURE_TIMES

  ****  Scalars and arrays  ****
OctLoc.c.b A Datatyp(siz) R M Lvl/name                 OctLoc.c.b A Datatyp(siz) R M Lvl/name

    32-0-0/d STRC(72)    r     1 FPT_XEQTIME               30-0-0/w SBIN        r     1 START
     0-0-0/c STRC(720)   r     1 TIME_OUT                  24-0-0/d STRC(144)   r     1 XEQTIMES

  ****  Auto variables  ****

  ****  Scalars and arrays  ****
OctLoc.c.b A Datatyp(siz) R M Lvl/name                 OctLoc.c.b A Datatyp(siz) R M Lvl/name

    53-0-0/w UBIN        r     1 LENGTH                     3-0-0/w SBIN              1 LT
     4-0-0/c CHAR(65)          1 LTHOLD                    46-0-0/w SBIN              1 NDX
    47-0-0/w SBIN              1 NDX3                      25-0-0/c CHAR(65)          1 RTHOLD
    50-0-0/c CHAR(10)    r     1 TIME

  ****  BASED and DCB variables  ****

  ****  Scalars and arrays  ****
OctLoc.c.b A Datatyp(siz) R M Lvl/name                 OctLoc.c.b A Datatyp(siz) R M Lvl/name

     0-0-0N  NULL        r     1 M$UC

PL6.E3A0      #001=X9FT$FIGURE_TIMES File=X9FT.:X8A6TSI                          SAT 08/09/97 10:55 Page:15

   Procedure X9FT$FIGURE_TIMES requires 44 words for executable code.
   Procedure X9FT$FIGURE_TIMES requires 48 words of local(AUTO) storage.

    No errors detected in file X9FT.:X8A6TSI    .
