VERSION A06

PL6.E3A0      #001=X9MM$GET_MEM File=X9MM.:X8A6TSI                               SAT 08/09/97 10:58 Page:1
        1        1        /*T***********************************************************/
        2        2        /*T*                                                         */
        3        3        /*T* Copyright (c) Bull HN Information Systems Inc., 1997    */
        4        4        /*T*                                                         */
        5        5        /*T***********************************************************/
        6        6        X9MM$GET_MEM: PROC( FSA_ ) ALTRET;
        7        7
        8        8            %INCLUDE X8A_SYS_FILE;
        9     6278
       10     6279            %FPT_GDS (RESULTS=CHUNK_,FREE=YES);
       11     6295            %VLP_VECTOR (FPTN=CHUNK_);
       12     6310            %VLP_VECTOR (FPTN=SAVE_);
       13     6325
       14     6326            %EQU TRUE  = '1'B;
       15     6327            %EQU FALSE = '0'B;
       16     6328
       17     6329    1       DCL FSA_           BIT(72) DALIGNED;
       18     6330    1       DCL ONE_K STATIC UBIN(36) ALIGNED INIT(1024);
       19     6331    1       DCL FIRST_CALL   BIT(1) ALIGNED STATIC INIT(%TRUE);
       20     6332
       21     6333    1       FPT_GDS.V.SEGSIZE# = ONE_K;
       22     6334    1       CALL M$GDS( FPT_GDS )
       23     6335    1       WHENRETURN
       24     6336    2         DO;
       25     6337    2           IF FIRST_CALL THEN
       26     6338    3             DO;
       27     6339    3               FSA_ = CHUNK_ ;
       28     6340    3               SAVE_ = CHUNK_;
       29     6341    3               FIRST_CALL = %FALSE;
       30     6342    3             END;
       31     6343    2           ELSE
       32     6344    3             DO;
       33     6345    3               SAVE_.PTR$ = PINCRC ( SAVE_.PTR$, SAVE_.W1.VSIZE# + 1 );
       34     6346    3               FSA_ = SAVE_;
       35     6347    3             END;
       36     6348    2         END;
       37     6349    1       WHENALTRETURN
PL6.E3A0      #001=X9MM$GET_MEM File=X9MM.:X8A6TSI                               SAT 08/09/97 10:58 Page:2
       38     6350    2         DO;
       39     6351    2           SAVE_ = VECTOR(NIL);
       40     6352    2           CHUNK_ = VECTOR(NIL);
       41     6353    2           CALL M$GDS ( FPT_GDS )     /* Try to get a new data segment */
       42     6354    2           WHENRETURN
       43     6355    3             DO;
       44     6356    3               SAVE_ = CHUNK_;
       45     6357    3               FSA_  = CHUNK_;
       46     6358    3             END;
       47     6359    2           WHENALTRETURN
       48     6360    3             DO;                      /* No more data segments left    */
       49     6361    3               ALTRETURN;
       50     6362    3             END;
       51     6363    2         END;
       52     6364
       53     6365    1   END X9MM$GET_MEM;

PL6.E3A0      #001=X9MM$GET_MEM File=X9MM.:X8A6TSI                               SAT 08/09/97 10:58 Page:3
--  Include file information  --

   CP_6_SUBS.:LIB_E04  is referenced.
   CP_6_C.:LIB_E04  is referenced.
   CP_6.:LIB_E04  cannot be made into a system file and is referenced.
   Z9A_FLAGS.:Z8A6TOU  is referenced.
   X8A_SYS_FILE.:X8A6TOU  is referenced.
      No diagnostics issued in procedure X9MM$GET_MEM.

   Procedure X9MM$GET_MEM requires 43 words for executable code.
   Procedure X9MM$GET_MEM requires 4 words of local(AUTO) storage.

    No errors detected in file X9MM.:X8A6TSI    .

PL6.E3A0      #001=X9MM$GET_MEM File=X9MM.:X8A6TSI                               SAT 08/09/97 10:58 Page:4

 Object Unit name= X9MM$GET_MEM                               File name= X9MM.:X8A6TOU
 UTS= AUG 09 '97 10:58:06.08 SAT                              Compiler= PL-6/E31         Sev=      00
 SharedLib= :SHARED_SYSTEM                                    Alt SharedLib=


    ****  Control sections  ****

 Sect   Type Bound  Init  Size OctSiz  Section name(segment info)
    0   DCB   even  none     0      0  M$UC
    1   Data  even  none    12     14  X9MM$GET_MEM
    2   Proc  even  none    43     53  X9MM$GET_MEM
    3  RoData even  none     2      2  X9MM$GET_MEM

    ****  Entry defs  ****

                              Check   Calling
                             calling  sequence
  Sect OctLoc Primary Altret sequence   type   Parms  Name
     2      0   yes    yes     yes      Std        1  X9MM$GET_MEM

  ****  Entry refs  ****

         Check        Calling
        calling       sequence
Altret sequence SRef   type   Args  Name
                       nStd      0 X66_AUTO_1
                       nStd      0 X66_AALT
                       nStd      0 X66_ARET

  ****  Data refs  ****

  Flags:  r = read only, s = secondary
Flgs Name                             Flgs Name                             Flgs Name
     M$UC
PL6.E3A0      #001=X9MM$GET_MEM File=X9MM.:X8A6TSI                               SAT 08/09/97 10:58 Page:5

  ****  Segment refs  ****

  Flags:  r = read only, s = secondary
Flgs Name                             Flgs Name                             Flgs Name
     ISSID                                 NULLSID
PL6.E3A0      #001=X9MM$GET_MEM File=X9MM.:X8A6TSI                               SAT 08/09/97 10:58 Page:6


        1        1        /*T***********************************************************/
        2        2        /*T*                                                         */
        3        3        /*T* Copyright (c) Bull HN Information Systems Inc., 1997    */
        4        4        /*T*                                                         */
        5        5        /*T***********************************************************/
        6        6        X9MM$GET_MEM: PROC( FSA_ ) ALTRET;

      6  2 000000   000000 700200 xent  X9MM$GET_MEM TSX0  ! X66_AUTO_1
         2 000001   000004 000001                    ZERO    4,1

        7        7
        8        8            %INCLUDE X8A_SYS_FILE;
        9     6278
       10     6279            %FPT_GDS (RESULTS=CHUNK_,FREE=YES);
       11     6295            %VLP_VECTOR (FPTN=CHUNK_);
       12     6310            %VLP_VECTOR (FPTN=SAVE_);
       13     6325
       14     6326            %EQU TRUE  = '1'B;
       15     6327            %EQU FALSE = '0'B;
       16     6328
       17     6329    1       DCL FSA_           BIT(72) DALIGNED;
       18     6330    1       DCL ONE_K STATIC UBIN(36) ALIGNED INIT(1024);
       19     6331    1       DCL FIRST_CALL   BIT(1) ALIGNED STATIC INIT(%TRUE);
       20     6332
       21     6333    1       FPT_GDS.V.SEGSIZE# = ONE_K;

   6333  2 000002   000012 720000 1                  LXL0    ONE_K
         2 000003   000004 440000 1                  SXL0    FPT_GDS+4

       22     6334    1       CALL M$GDS( FPT_GDS )

   6334  2 000004   000000 630400 1                  EPPR0   FPT_GDS
         2 000005   430001 713400                    CLIMB   alt,gds
         2 000006   400400 401760                    pmme    nvectors=2
         2 000007   000033 702000 2                  TSX2    s:6351

PL6.E3A0      #001=X9MM$GET_MEM File=X9MM.:X8A6TSI                               SAT 08/09/97 10:58 Page:7
       23     6335    1       WHENRETURN
       24     6336    2         DO;

       25     6337    2           IF FIRST_CALL THEN

   6337  2 000010   000013 234000 1                  SZN     FIRST_CALL
         2 000011   000021 605000 2                  TPL     s:6345

       26     6338    3             DO;

       27     6339    3               FSA_ = CHUNK_ ;

   6339  2 000012   000006 237000 1                  LDAQ    CHUNK_
         2 000013   200003 470500                    LDP0    @FSA_,,AUTO
         2 000014   000000 757100                    STAQ    0,,PR0

       28     6340    3               SAVE_ = CHUNK_;

   6340  2 000015   000006 237000 1                  LDAQ    CHUNK_
         2 000016   000010 757000 1                  STAQ    SAVE_

       29     6341    3               FIRST_CALL = %FALSE;

   6341  2 000017   000013 450000 1                  STZ     FIRST_CALL

       30     6342    3             END;

   6342  2 000020   000032 710000 2                  TRA     s:6348

       31     6343    2           ELSE
       32     6344    3             DO;

       33     6345    3               SAVE_.PTR$ = PINCRC ( SAVE_.PTR$, SAVE_.W1.VSIZE# + 1 );

   6345  2 000021   000010 236000 1                  LDQ     SAVE_
         2 000022   000020 772000                    QRL     16
         2 000023   000020 736000                    QLS     16
PL6.E3A0      #001=X9MM$GET_MEM File=X9MM.:X8A6TSI                               SAT 08/09/97 10:58 Page:8
         2 000024   200000 036007                    ADLQ    65536,DL
         2 000025   000011 036000 1                  ADLQ    SAVE_+1
         2 000026   000011 756000 1                  STQ     SAVE_+1

       34     6346    3               FSA_ = SAVE_;

   6346  2 000027   000010 237000 1                  LDAQ    SAVE_
         2 000030   200003 470500                    LDP0    @FSA_,,AUTO
         2 000031   000000 757100                    STAQ    0,,PR0

       35     6347    3             END;

       36     6348    2         END;

   6348  2 000032   000052 710000 2                  TRA     s:6365

       37     6349    1       WHENALTRETURN
       38     6350    2         DO;

       39     6351    2           SAVE_ = VECTOR(NIL);

   6351  2 000033   000000 237000 3                  LDAQ    0
         2 000034   000010 757000 1                  STAQ    SAVE_

       40     6352    2           CHUNK_ = VECTOR(NIL);

   6352  2 000035   000000 237000 3                  LDAQ    0
         2 000036   000006 757000 1                  STAQ    CHUNK_

       41     6353    2           CALL M$GDS ( FPT_GDS )     /* Try to get a new data segment */

   6353  2 000037   000000 630400 1                  EPPR0   FPT_GDS
         2 000040   430001 713400                    CLIMB   alt,gds
         2 000041   400400 401760                    pmme    nvectors=2
         2 000042   000051 702000 2                  TSX2    s:6361

       42     6354    2           WHENRETURN
PL6.E3A0      #001=X9MM$GET_MEM File=X9MM.:X8A6TSI                               SAT 08/09/97 10:58 Page:9
       43     6355    3             DO;

       44     6356    3               SAVE_ = CHUNK_;

   6356  2 000043   000006 237000 1                  LDAQ    CHUNK_
         2 000044   000010 757000 1                  STAQ    SAVE_

       45     6357    3               FSA_  = CHUNK_;

   6357  2 000045   000006 237000 1                  LDAQ    CHUNK_
         2 000046   200003 470500                    LDP0    @FSA_,,AUTO
         2 000047   000000 757100                    STAQ    0,,PR0

       46     6358    3             END;

   6358  2 000050   000052 710000 2                  TRA     s:6365

       47     6359    2           WHENALTRETURN
       48     6360    3             DO;                      /* No more data segments left    */

       49     6361    3               ALTRETURN;

   6361  2 000051   000000 702200 xent               TSX2  ! X66_AALT

       50     6362    3             END;
       51     6363    2         END;

       52     6364
       53     6365    1   END X9MM$GET_MEM;

   6365  2 000052   000000 702200 xent               TSX2  ! X66_ARET

PL6.E3A0      #001=X9MM$GET_MEM File=X9MM.:X8A6TSI                               SAT 08/09/97 10:58 Page:10
--  Include file information  --

   CP_6_SUBS.:LIB_E04  is referenced.
   CP_6_C.:LIB_E04  is referenced.
   CP_6.:LIB_E04  cannot be made into a system file and is referenced.
   Z9A_FLAGS.:Z8A6TOU  is referenced.
   X8A_SYS_FILE.:X8A6TOU  is referenced.
      No diagnostics issued in procedure X9MM$GET_MEM.
PL6.E3A0      #001=X9MM$GET_MEM File=X9MM.:X8A6TSI                               SAT 08/09/97 10:58 Page:11

 **** Variables and constants ****

  ****  Section 001  Data  X9MM$GET_MEM

  ****  Scalars and arrays  ****
OctLoc.c.b A Datatyp(siz) R M Lvl/name                 OctLoc.c.b A Datatyp(siz) R M Lvl/name

     6-0-0/d STRC(72)    r     1 CHUNK_                    13-0-0/w BIT         r     1 FIRST_CALL
     0-0-0/d STRC(216)   r     1 FPT_GDS                   12-0-0/w UBIN        r     1 ONE_K
    10-0-0/d STRC(72)    r     1 SAVE_

  ****  Auto variables  ****

  ****  Scalars and arrays  ****
OctLoc.c.b A Datatyp(siz) R M Lvl/name                 OctLoc.c.b A Datatyp(siz) R M Lvl/name

     3-0-0/w PTR         r     1 @FSA_                     *0-0-0/d BIT (72)    r     1 FSA_

  ****  BASED and DCB variables  ****

  ****  Scalars and arrays  ****
OctLoc.c.b A Datatyp(siz) R M Lvl/name                 OctLoc.c.b A Datatyp(siz) R M Lvl/name

     0-0-0N  NULL        r     1 M$UC


   Procedure X9MM$GET_MEM requires 43 words for executable code.
   Procedure X9MM$GET_MEM requires 4 words of local(AUTO) storage.

    No errors detected in file X9MM.:X8A6TSI    .
