VERSION A06

PL6.E3A0      #001=X9MN$MAIN File=X9MN.:X8A6TSI                                  SAT 08/09/97 10:58 Page:1
        1        1        /*M* X9MN -- MAIN PROGRAM                                       */
        2        2        /*T***********************************************************/
        3        3        /*T*                                                         */
        4        4        /*T* Copyright (c) Bull HN Information Systems Inc., 1997    */
        5        5        /*T*                                                         */
        6        6        /*T***********************************************************/
        7        7        X9MN$MAIN: PROC  ;
        8        8
        9        9        /*P*
       10       10
       11       11              NAME: X9MN
       12       12           PURPOSE: To act as a main program and driving program to
       13       13                    set up the TRAP procedure.
       14       14
       15       15        */
       16       16        /*D*
       17       17
       18       18              NAME: X9MN
       19       19              CALL:        EPPR1   PZERO
       20       20                           TSX1    X9MN
       21       21                            ...
       22       22                    PZERO  OCT     0
       23       23         INTERFACE: 1.) X9OS - This calls the operator segment to return
       24       24                               to the COBOL program.
       25       25
       26       26                    2.) X9TR$ATRAP - This is only called if one of the trap
       27       27                                conditions occur.  The conditions are:
       28       28
       29       29                                A.) Division by zero
       30       30                                B.) Exponent overflow
       31       31                                C.) Exponent underflow
       32       32
       33       33             INPUT: None
       34       34            OUTPUT: None
       35       35           SCRATCH: None
       36       36         REFERENCE:  X8LC$DOCUMENT
       37       37
PL6.E3A0      #001=X9MN$MAIN File=X9MN.:X8A6TSI                                  SAT 08/09/97 10:58 Page:2
       38       38        */
       39       39
       40       40            %INCLUDE X8A_LIBCOM ;
       41      260            %INCLUDE X8A_MACROS;
       42      517            %INCLUDE X8A_SYS_FILE ;
       43     6787
       44     6788    1       DCL X9TR$ATRAP       ENTRY ASYNC ;
       45     6789    1       DCL X9TR$ETRAP       ENTRY ASYNC ;
       46     6790
       47     6791            %FPT_TRAP (ARITHMETIC = X9TR$ATRAP, DIVIDE_CHECK = TRAP, OVERFLOW = TRAP,
       48     6792                       ERRORS = X9TR$ETRAP, IPR = TRAP, COMMAND = TRAP, MME = TRAP,
       49     6793                       LOCKUP = TRAP, MEMORY = TRAP, DERAIL = TRAP,
       50     6794                       MISSING_PAGE = TRAP, MISSING_SEG = TRAP, SECURITY_1 = TRAP,
       51     6795                       SECURITY_2 = TRAP, FAULT_TAG = TRAP );
       52     6818
       53     6819        /*V*
       54     6820                               SET_TRAP
       55     6821                 This calls M$TRAP to set up the DIVIDE CHECK and EXPONENT
       56     6822                 OVERFLOW and UNDERFLOW CHECK routines.
       57     6823
       58     6824        */
       59     6825    1        CALL M$TRAP(FPT_TRAP) ;
       60     6826
       61     6827    1   END X9MN$MAIN;  /* proc */
       62     6828        %EJECT;
PL6.E3A0      #001=X9MN$MAIN File=X9MN.:X8A6TSI                                  SAT 08/09/97 10:58 Page:3

PL6.E3A0      #001=X9MN$MAIN File=X9MN.:X8A6TSI                                  SAT 08/09/97 10:58 Page:4
--  Include file information  --

   CP_6_SUBS.:LIB_E04  is referenced.
   CP_6_C.:LIB_E04  is referenced.
   CP_6.:LIB_E04  cannot be made into a system file and is referenced.
   Z9A_FLAGS.:Z8A6TOU  is referenced.
   X8A_SYS_FILE.:X8A6TOU  is referenced.
   X8A_COM_MACS.:X8A6TOU  is referenced.
   X8A_MACROS.:X8A6TOU  is referenced.
   X8A_LIBCOM.:X8A6TOU  cannot be made into a system file and is referenced.
      No diagnostics issued in procedure X9MN$MAIN.

   Procedure X9MN$MAIN requires 6 words for executable code.
   Procedure X9MN$MAIN requires 40 words of local(AUTO) storage.

    No errors detected in file X9MN.:X8A6TSI    .

PL6.E3A0      #001=X9MN$MAIN File=X9MN.:X8A6TSI                                  SAT 08/09/97 10:58 Page:5

 Object Unit name= X9MN$MAIN                                  File name= X9MN.:X8A6TOU
 UTS= AUG 09 '97 10:58:37.00 SAT                              Compiler= PL-6/E31         Sev=      00
 SharedLib= :SHARED_SYSTEM                                    Alt SharedLib=


    ****  Control sections  ****

 Sect   Type Bound  Init  Size OctSiz  Section name(segment info)
    0  LblCom even  none    20     24  LIBCOM
    1  LblCom even  none     1      1  DEC_OR_COMMA
    2  LblCom even  none    20     24  IN_TEMP
    3  LblCom even  none     1      1  OVRCHR
    4  LblCom even  none     1      1  SELECT_TIME
    5  LblCom even  none     1      1  NO_ADVANCE_OFFSET
    6  LblCom even  none    18     22  DSPLY_SAVE
    7  LblCom even  none     3      3  D_DATE
    8  LblCom even  none     3      3  D_TIME
    9  LblCom even  none     1      1  D_DAY
   10  LblCom even  none     2      2  C_DATE
   11  LblCom even  none     2      2  C_TIME
   12  LblCom even  none     2      2  C_DAY
   13  LblCom even  none     1      1  RTHOLD2
   14  LblCom even  none     1      1  LTHOLD2
   15  LblCom even  none     1      1  NDX2
   16  LblCom even  none     1      1  IN_LEN
   17   DCB   even  none     0      0  M$UC
   18   Data  even  none    10     12  X9MN$MAIN
   19   Proc  even  none     6      6  X9MN$MAIN

    ****  Entry defs  ****

                              Check   Calling
                             calling  sequence
  Sect OctLoc Primary Altret sequence   type   Parms  Name
    19      0   yes            yes      Std        0  X9MN$MAIN
PL6.E3A0      #001=X9MN$MAIN File=X9MN.:X8A6TSI                                  SAT 08/09/97 10:58 Page:6

  ****  Entry refs  ****

         Check        Calling
        calling       sequence
Altret sequence SRef   type   Args  Name
         yes          Async      0 X9TR$ATRAP
         yes          Async      0 X9TR$ETRAP
                       nStd      0 X66_AUTO_0
                       nStd      0 X66_ARET

  ****  Data refs  ****

  Flags:  r = read only, s = secondary
Flgs Name                             Flgs Name                             Flgs Name
     M$UC

  ****  Segment refs  ****

  Flags:  r = read only, s = secondary
Flgs Name                             Flgs Name                             Flgs Name
     ISSID                                 NULLSID
PL6.E3A0      #001=X9MN$MAIN File=X9MN.:X8A6TSI                                  SAT 08/09/97 10:58 Page:7


        1        1        /*M* X9MN -- MAIN PROGRAM                                       */
        2        2        /*T***********************************************************/
        3        3        /*T*                                                         */
        4        4        /*T* Copyright (c) Bull HN Information Systems Inc., 1997    */
        5        5        /*T*                                                         */
        6        6        /*T***********************************************************/
        7        7        X9MN$MAIN: PROC  ;

      7 19 000000   000000 700200 xent  X9MN$MAIN    TSX0  ! X66_AUTO_0
        19 000001   000050 000000                    ZERO    40,0

        8        8
        9        9        /*P*
       10       10
       11       11              NAME: X9MN
       12       12           PURPOSE: To act as a main program and driving program to
       13       13                    set up the TRAP procedure.
       14       14
       15       15        */
       16       16        /*D*
       17       17
       18       18              NAME: X9MN
       19       19              CALL:        EPPR1   PZERO
       20       20                           TSX1    X9MN
       21       21                            ...
       22       22                    PZERO  OCT     0
       23       23         INTERFACE: 1.) X9OS - This calls the operator segment to return
       24       24                               to the COBOL program.
       25       25
       26       26                    2.) X9TR$ATRAP - This is only called if one of the trap
       27       27                                conditions occur.  The conditions are:
       28       28
       29       29                                A.) Division by zero
       30       30                                B.) Exponent overflow
       31       31                                C.) Exponent underflow
       32       32
PL6.E3A0      #001=X9MN$MAIN File=X9MN.:X8A6TSI                                  SAT 08/09/97 10:58 Page:8
       33       33             INPUT: None
       34       34            OUTPUT: None
       35       35           SCRATCH: None
       36       36         REFERENCE:  X8LC$DOCUMENT
       37       37
       38       38        */
       39       39
       40       40            %INCLUDE X8A_LIBCOM ;
       41      260            %INCLUDE X8A_MACROS;
       42      517            %INCLUDE X8A_SYS_FILE ;
       43     6787
       44     6788    1       DCL X9TR$ATRAP       ENTRY ASYNC ;
       45     6789    1       DCL X9TR$ETRAP       ENTRY ASYNC ;
       46     6790
       47     6791            %FPT_TRAP (ARITHMETIC = X9TR$ATRAP, DIVIDE_CHECK = TRAP, OVERFLOW = TRAP,
       48     6792                       ERRORS = X9TR$ETRAP, IPR = TRAP, COMMAND = TRAP, MME = TRAP,
       49     6793                       LOCKUP = TRAP, MEMORY = TRAP, DERAIL = TRAP,
       50     6794                       MISSING_PAGE = TRAP, MISSING_SEG = TRAP, SECURITY_1 = TRAP,
       51     6795                       SECURITY_2 = TRAP, FAULT_TAG = TRAP );
       52     6818
       53     6819        /*V*
       54     6820                               SET_TRAP
       55     6821                 This calls M$TRAP to set up the DIVIDE CHECK and EXPONENT
       56     6822                 OVERFLOW and UNDERFLOW CHECK routines.
       57     6823
       58     6824        */
       59     6825    1        CALL M$TRAP(FPT_TRAP) ;

   6825 19 000002   000000 630400 18                 EPPR0   FPT_TRAP
        19 000003   010004 713400                    CLIMB   4100
        19 000004   400400 401760                    pmme    nvectors=2

       60     6826
       61     6827    1   END X9MN$MAIN;  /* proc */

   6827 19 000005   000000 702200 xent               TSX2  ! X66_ARET
       62     6828        %EJECT;
PL6.E3A0      #001=X9MN$MAIN File=X9MN.:X8A6TSI                                  SAT 08/09/97 10:58 Page:9

PL6.E3A0      #001=X9MN$MAIN File=X9MN.:X8A6TSI                                  SAT 08/09/97 10:58 Page:10
--  Include file information  --

   CP_6_SUBS.:LIB_E04  is referenced.
   CP_6_C.:LIB_E04  is referenced.
   CP_6.:LIB_E04  cannot be made into a system file and is referenced.
   Z9A_FLAGS.:Z8A6TOU  is referenced.
   X8A_SYS_FILE.:X8A6TOU  is referenced.
   X8A_COM_MACS.:X8A6TOU  is referenced.
   X8A_MACROS.:X8A6TOU  is referenced.
   X8A_LIBCOM.:X8A6TOU  cannot be made into a system file and is referenced.
      No diagnostics issued in procedure X9MN$MAIN.
PL6.E3A0      #001=X9MN$MAIN File=X9MN.:X8A6TSI                                  SAT 08/09/97 10:58 Page:11

 **** Variables and constants ****

  ****  Section 000 LblCom LIBCOM

  ****  Scalars and arrays  ****
OctLoc.c.b A Datatyp(siz) R M Lvl/name                 OctLoc.c.b A Datatyp(siz) R M Lvl/name

     0-0-0/w STRC(720)         1 LIBCOM

  ****  Section 001 LblCom DEC_OR_COMMA

  ****  Scalars and arrays  ****
OctLoc.c.b A Datatyp(siz) R M Lvl/name                 OctLoc.c.b A Datatyp(siz) R M Lvl/name

     0-0-0/c CHAR              1 DEC_OR_COMMA

  ****  Section 002 LblCom IN_TEMP

  ****  Scalars and arrays  ****
OctLoc.c.b A Datatyp(siz) R M Lvl/name                 OctLoc.c.b A Datatyp(siz) R M Lvl/name

     0-0-0/c CHAR(80)          1 IN_TEMP

  ****  Section 003 LblCom OVRCHR

  ****  Scalars and arrays  ****
OctLoc.c.b A Datatyp(siz) R M Lvl/name                 OctLoc.c.b A Datatyp(siz) R M Lvl/name

     0-0-0/c CHAR              1 OVRCHR

  ****  Section 004 LblCom SELECT_TIME

  ****  Scalars and arrays  ****
OctLoc.c.b A Datatyp(siz) R M Lvl/name                 OctLoc.c.b A Datatyp(siz) R M Lvl/name

     0-0-0/w UBIN              1 SELECT_TIME

PL6.E3A0      #001=X9MN$MAIN File=X9MN.:X8A6TSI                                  SAT 08/09/97 10:58 Page:12
  ****  Section 005 LblCom NO_ADVANCE_OFFSET

  ****  Scalars and arrays  ****
OctLoc.c.b A Datatyp(siz) R M Lvl/name                 OctLoc.c.b A Datatyp(siz) R M Lvl/name

     0-0-0/w UBIN              1 NO_ADVANCE_OFFSET

  ****  Section 006 LblCom DSPLY_SAVE

  ****  Scalars and arrays  ****
OctLoc.c.b A Datatyp(siz) R M Lvl/name                 OctLoc.c.b A Datatyp(siz) R M Lvl/name

     0-0-0/c CHAR(72)          1 DSPLY_SAVE

  ****  Section 007 LblCom D_DATE

  ****  Scalars and arrays  ****
OctLoc.c.b A Datatyp(siz) R M Lvl/name                 OctLoc.c.b A Datatyp(siz) R M Lvl/name

     0-0-0/c CHAR(10)          1 D_DATE

  ****  Section 008 LblCom D_TIME

  ****  Scalars and arrays  ****
OctLoc.c.b A Datatyp(siz) R M Lvl/name                 OctLoc.c.b A Datatyp(siz) R M Lvl/name

     0-0-0/c CHAR(11)          1 D_TIME

  ****  Section 009 LblCom D_DAY

  ****  Scalars and arrays  ****
OctLoc.c.b A Datatyp(siz) R M Lvl/name                 OctLoc.c.b A Datatyp(siz) R M Lvl/name

     0-0-0/c CHAR(3)           1 D_DAY

  ****  Section 010 LblCom C_DATE

PL6.E3A0      #001=X9MN$MAIN File=X9MN.:X8A6TSI                                  SAT 08/09/97 10:58 Page:13
  ****  Scalars and arrays  ****
OctLoc.c.b A Datatyp(siz) R M Lvl/name                 OctLoc.c.b A Datatyp(siz) R M Lvl/name

     0-0-0/c CHAR(6)           1 C_DATE

  ****  Section 011 LblCom C_TIME

  ****  Scalars and arrays  ****
OctLoc.c.b A Datatyp(siz) R M Lvl/name                 OctLoc.c.b A Datatyp(siz) R M Lvl/name

     0-0-0/c CHAR(8)           1 C_TIME

  ****  Section 012 LblCom C_DAY

  ****  Scalars and arrays  ****
OctLoc.c.b A Datatyp(siz) R M Lvl/name                 OctLoc.c.b A Datatyp(siz) R M Lvl/name

     0-0-0/c CHAR(5)           1 C_DAY

  ****  Section 013 LblCom RTHOLD2

  ****  Scalars and arrays  ****
OctLoc.c.b A Datatyp(siz) R M Lvl/name                 OctLoc.c.b A Datatyp(siz) R M Lvl/name

     0-0-0/w UBIN              1 RTHOLD2

  ****  Section 014 LblCom LTHOLD2

  ****  Scalars and arrays  ****
OctLoc.c.b A Datatyp(siz) R M Lvl/name                 OctLoc.c.b A Datatyp(siz) R M Lvl/name

     0-0-0/w UBIN              1 LTHOLD2

  ****  Section 015 LblCom NDX2

  ****  Scalars and arrays  ****
OctLoc.c.b A Datatyp(siz) R M Lvl/name                 OctLoc.c.b A Datatyp(siz) R M Lvl/name
PL6.E3A0      #001=X9MN$MAIN File=X9MN.:X8A6TSI                                  SAT 08/09/97 10:58 Page:14

     0-0-0/w SBIN              1 NDX2

  ****  Section 016 LblCom IN_LEN

  ****  Scalars and arrays  ****
OctLoc.c.b A Datatyp(siz) R M Lvl/name                 OctLoc.c.b A Datatyp(siz) R M Lvl/name

     0-0-0/w UBIN              1 IN_LEN

  ****  Section 018  Data  X9MN$MAIN

  ****  Scalars and arrays  ****
OctLoc.c.b A Datatyp(siz) R M Lvl/name                 OctLoc.c.b A Datatyp(siz) R M Lvl/name

     0-0-0/d STRC(360)   r     1 FPT_TRAP

  ****  Auto variables  ****

  ****  Scalars and arrays  ****
OctLoc.c.b A Datatyp(siz) R M Lvl/name                 OctLoc.c.b A Datatyp(siz) R M Lvl/name

     3-0-0/w SBIN              1 LT                         4-0-0/c CHAR(65)          1 LTHOLD
    46-0-0/w SBIN              1 NDX                       47-0-0/w SBIN              1 NDX3
    25-0-0/c CHAR(65)          1 RTHOLD

  ****  BASED and DCB variables  ****

  ****  Scalars and arrays  ****
OctLoc.c.b A Datatyp(siz) R M Lvl/name                 OctLoc.c.b A Datatyp(siz) R M Lvl/name

     0-0-0N  NULL        r     1 M$UC


   Procedure X9MN$MAIN requires 6 words for executable code.
   Procedure X9MN$MAIN requires 40 words of local(AUTO) storage.
PL6.E3A0      #001=X9MN$MAIN File=X9MN.:X8A6TSI                                  SAT 08/09/97 10:58 Page:15

    No errors detected in file X9MN.:X8A6TSI    .
