
     DIRECTORY AND SEGMENT LIST  (OBJECT UNIT NAME '')

      * SYMDEF *        GLOBAL NAME               SEGMENT  OFFSET      ACCESS ATTRIBUTES
     1  X9MV   'X9MV'                              .X9MV       0          R  W  E  L  U
     2  4TO9   'X9MV$4TO9'                         .X9MV      41          R  W  E  L  U
     3  9TO4   'X9MV$9TO4'                         .X9MV      56          R  W  E  L  U

      * SECTION *          SIZE          KIND
     4  .X9MV               300           CODE
     5  .X9MV.                5           DATA


     PROGRAM BREAK         305

                                      1 *M*  X9MV -- NUMERIC MOVE FOR PICTURE DE-EDITING.
                                      2 *T***********************************************************
                                      3 *T*                                                         *
                                      4 *T* COPYRIGHT (C) BULL HN INFORMATION SYSTEMS INC., 1997    *
                                      5 *T*                                                         *
                                      6 *T***********************************************************
                        000000        7        SECT .X9MV,CODE
                        000000        8        ENTDEF  X9MV
                        000000        9 X9MV   NULL
      000000 000000 7550 00 010NN    10        STA     REG
      000001 000001 4554 00 010NN    11        STP5    PR5
      000002 000002 4544 00 010NN    12        STP4    PR4
      000003 000002 4755 00          13        LDP5    2,,0
      000004 500000 4755 00          14        LDP5    0,,5
      000005 000003 4745 00          15        LDP4    3,,0
      000006 400000 4745 00          16        LDP4    0,,4
      000007 000001 4715 00          17        LDP1    1,,0
      000010 100000 2351 00          18        LDA     0,,1
      000011 077777 3750 07          19        ANA     =O077777,DL
      000012 500000 2750 03          20        ORA     =O500000,DU
      000013 000003 7550 00 010NN    21        STA     RECDSC
      000014 000000 4715 00          22        LDP1    0,,0
      000015 100000 2351 00          23        LDA     0,,1
      000016 077777 3750 07          24        ANA     =O077777,DL
      000017 000077 3150 07          25        CANA    =O000077,DL     CHECK FOR ZERO LENGTH
      000020 000035 6000 00 010NN    26        TZE     MVZERO
      000021 400000 2750 03          27        ORA     =O400000,DU
      000022 000004 7550 00 010NN    28        STA     SENDSC
      000023 000024 6170 00 010NN    29        TOV     *+1
      000024 000320 3005 20          30        MVN     (1,0,1),(1,0,1),RD
      000025 000004 000000  010NN    31        ZERO    SENDSC
      000026 000003 000000  010NN    32        ZERO    RECDSC
                        000027       33 DONE   NULL
      000027 000000 2350 00 010NN    34        LDA     REG
      000030 000001 4754 00 010NN    35        LDP5    PR5
      000031 000002 4744 00 010NN    36        LDP4    PR4
      000032 000034 6170 00 010NN    37        TOV     ALTRET          IF THERE WAS AN OVERFLOW ALTRET

      000033 000001 7100 11          38        TRA     1,1
                        000034       39 ALTRET NULL
      000034 000000 7100 11          40        TRA     0,1             ALTRETURN
                                     41 *
                        000035       42 MVZERO NULL
      000035 000120 3004 00          43        MVN     ,(1,0,1)
      000036 000073 0300 01 010NN    44        NDSC9   U.4TO9,0,1,3,0   MOVE FROM DIGIT ZERO
      000037 000003 0000 00 010NN    45        ARG     RECDSC
      000040 000027 7100 00 010NN    46        TRA     DONE
                                     47 *      ENTRY POINTS FOR PACKED DECIMAL TO/FROM ASCII CONVERSIONS,
                                     48 *      NEEDED FOR IPR FAULT RECOVERY ROUTINE.
                        000041       49        ENTDEF  (4TO9,X9MV$4TO9)
                        000041       50 4TO9   NULL
      000041 000001 4554 00 010NN    51        STP5    PR5
      000042 000002 4544 00 010NN    52        STP4    PR4
      000043 000002 4755 00          53        LDP5    2,,0
      000044 000000 4715 00          54        LDP1    ,,0
      000045 000001 4745 00          55        LDP4    1,,0
      000046 500000 2361 00          56        LDQ     ,,5
      000047 000140 1605 40          57        MVT     (1,1,,),(1,1,,)
      000050 100000 0400 06          58        ADSC4   0,0,QL,1
      000051 400000 0000 06          59        ADSC9   0,0,QL,4
      000052 000073 0000 00 010NN    60        ARG     U.4TO9
      000053 000001 4754 00 010NN    61        LDP5    PR5
      000054 000002 4744 00 010NN    62        LDP4    PR4
      000055 000001 7100 11          63        TRA     1,1
                                     64 *
                        000056       65        ENTDEF  (9TO4,X9MV$9TO4)
                        000056       66 9TO4   NULL
      000056 000001 4554 00 010NN    67        STP5    PR5
      000057 000002 4544 00 010NN    68        STP4    PR4
      000060 000002 4755 00          69        LDP5    2,,0
      000061 000000 4715 00          70        LDP1    ,,0
      000062 000001 4745 00          71        LDP4    1,,0
      000063 500000 2361 00          72        LDQ     ,,5
      000064 000140 1605 40          73        MVT     (1,1,,),(1,1,,)
      000065 100000 0000 06          74        ADSC9   0,0,QL,1

      000066 400000 0400 06          75        ADSC4   0,0,QL,4
      000067 000077 0000 00 010NN    76        ARG     U.9TO4
      000070 000001 4754 00 010NN    77        LDP5    PR5
      000071 000002 4744 00 010NN    78        LDP4    PR4
      000072 000001 7100 11          79        TRA     1,1
                                     80 *
                        000073       81 U.4TO9 NULL
      000073 060061062063            82        ASCII   4,0123456789+++-++
      000074 064065066067
      000075 070071053053
      000076 053055053053
                        000077       83 U.9TO4 NULL
                        000077       84        DUP     1,11
      000077 053053053053            85        ASCII   1,++++
      000100 053053053053                      ASCII   1,++++
      000101 053053053053                      ASCII   1,++++
      000102 053053053053                      ASCII   1,++++
      000103 053053053053                      ASCII   1,++++
      000104 053053053053                      ASCII   1,++++
      000105 053053053053                      ASCII   1,++++
      000106 053053053053                      ASCII   1,++++
      000107 053053053053                      ASCII   1,++++
      000110 053053053053                      ASCII   1,++++
      000111 053053053053                      ASCII   1,++++
      000112 053055053053            86        ASCII   4,+-++0123456789++
      000113 060061062063
      000114 064065066067
      000115 070071053053
                        000116       87        DUP     1,113
      000116 053053053053            88        ASCII   1,++++
      000117 053053053053                      ASCII   1,++++
      000120 053053053053                      ASCII   1,++++
      000121 053053053053                      ASCII   1,++++
      000122 053053053053                      ASCII   1,++++
      000123 053053053053                      ASCII   1,++++
      000124 053053053053                      ASCII   1,++++
      000125 053053053053                      ASCII   1,++++

      000126 053053053053                      ASCII   1,++++
      000127 053053053053                      ASCII   1,++++
      000130 053053053053                      ASCII   1,++++
      000131 053053053053                      ASCII   1,++++
      000132 053053053053                      ASCII   1,++++
      000133 053053053053                      ASCII   1,++++
      000134 053053053053                      ASCII   1,++++
      000135 053053053053                      ASCII   1,++++
      000136 053053053053                      ASCII   1,++++
      000137 053053053053                      ASCII   1,++++
      000140 053053053053                      ASCII   1,++++
      000141 053053053053                      ASCII   1,++++
      000142 053053053053                      ASCII   1,++++
      000143 053053053053                      ASCII   1,++++
      000144 053053053053                      ASCII   1,++++
      000145 053053053053                      ASCII   1,++++
      000146 053053053053                      ASCII   1,++++
      000147 053053053053                      ASCII   1,++++
      000150 053053053053                      ASCII   1,++++
      000151 053053053053                      ASCII   1,++++
      000152 053053053053                      ASCII   1,++++
      000153 053053053053                      ASCII   1,++++
      000154 053053053053                      ASCII   1,++++
      000155 053053053053                      ASCII   1,++++
      000156 053053053053                      ASCII   1,++++
      000157 053053053053                      ASCII   1,++++
      000160 053053053053                      ASCII   1,++++
      000161 053053053053                      ASCII   1,++++
      000162 053053053053                      ASCII   1,++++
      000163 053053053053                      ASCII   1,++++
      000164 053053053053                      ASCII   1,++++
      000165 053053053053                      ASCII   1,++++
      000166 053053053053                      ASCII   1,++++
      000167 053053053053                      ASCII   1,++++
      000170 053053053053                      ASCII   1,++++
      000171 053053053053                      ASCII   1,++++
      000172 053053053053                      ASCII   1,++++

      000173 053053053053                      ASCII   1,++++
      000174 053053053053                      ASCII   1,++++
      000175 053053053053                      ASCII   1,++++
      000176 053053053053                      ASCII   1,++++
      000177 053053053053                      ASCII   1,++++
      000200 053053053053                      ASCII   1,++++
      000201 053053053053                      ASCII   1,++++
      000202 053053053053                      ASCII   1,++++
      000203 053053053053                      ASCII   1,++++
      000204 053053053053                      ASCII   1,++++
      000205 053053053053                      ASCII   1,++++
      000206 053053053053                      ASCII   1,++++
      000207 053053053053                      ASCII   1,++++
      000210 053053053053                      ASCII   1,++++
      000211 053053053053                      ASCII   1,++++
      000212 053053053053                      ASCII   1,++++
      000213 053053053053                      ASCII   1,++++
      000214 053053053053                      ASCII   1,++++
      000215 053053053053                      ASCII   1,++++
      000216 053053053053                      ASCII   1,++++
      000217 053053053053                      ASCII   1,++++
      000220 053053053053                      ASCII   1,++++
      000221 053053053053                      ASCII   1,++++
      000222 053053053053                      ASCII   1,++++
      000223 053053053053                      ASCII   1,++++
      000224 053053053053                      ASCII   1,++++
      000225 053053053053                      ASCII   1,++++
      000226 053053053053                      ASCII   1,++++
      000227 053053053053                      ASCII   1,++++
      000230 053053053053                      ASCII   1,++++
      000231 053053053053                      ASCII   1,++++
      000232 053053053053                      ASCII   1,++++
      000233 053053053053                      ASCII   1,++++
      000234 053053053053                      ASCII   1,++++
      000235 053053053053                      ASCII   1,++++
      000236 053053053053                      ASCII   1,++++
      000237 053053053053                      ASCII   1,++++

      000240 053053053053                      ASCII   1,++++
      000241 053053053053                      ASCII   1,++++
      000242 053053053053                      ASCII   1,++++
      000243 053053053053                      ASCII   1,++++
      000244 053053053053                      ASCII   1,++++
      000245 053053053053                      ASCII   1,++++
      000246 053053053053                      ASCII   1,++++
      000247 053053053053                      ASCII   1,++++
      000250 053053053053                      ASCII   1,++++
      000251 053053053053                      ASCII   1,++++
      000252 053053053053                      ASCII   1,++++
      000253 053053053053                      ASCII   1,++++
      000254 053053053053                      ASCII   1,++++
      000255 053053053053                      ASCII   1,++++
      000256 053053053053                      ASCII   1,++++
      000257 053053053053                      ASCII   1,++++
      000260 053053053053                      ASCII   1,++++
      000261 053053053053                      ASCII   1,++++
      000262 053053053053                      ASCII   1,++++
      000263 053053053053                      ASCII   1,++++
      000264 053053053053                      ASCII   1,++++
      000265 053053053053                      ASCII   1,++++
      000266 053053053053                      ASCII   1,++++
      000267 053053053053                      ASCII   1,++++
      000270 053053053053                      ASCII   1,++++
      000271 053053053053                      ASCII   1,++++
      000272 053053053053                      ASCII   1,++++
      000273 053053053053                      ASCII   1,++++
      000274 053053053053                      ASCII   1,++++
      000275 053053053053                      ASCII   1,++++
      000276 053053053053                      ASCII   1,++++
                        000000       89        SECT    .X9MV.,DATA
                        000000       90 REG    BSS     1
                        000001       91 PR5    BSS     1
                        000002       92 PR4    BSS     1
                        000003       93 RECDSC BSS     1
                        000004       94 SENDSC BSS     1

                        000001       95 RD     EQU     1
                                     96        END
 GMAP6 VERSION/ASSEMBLY DATES  JNPA NO TTL/2(_00]      JNPB NO TTL/2(_00]      JNPC NO TTL/2(_00]
 THERE WERE    NO  WARNING FLAGS IN THE ABOVE ASSEMBLY

                             OCTAL    SYMBOL   * KIND *      REFERENCES BY ALTER NO. AN
    41   4TO9     REL   .X9MV     50   49    50
    56   9TO4     REL   .X9MV     66   65    66
    34   ALTRET   REL   .X9MV     39   37T   39
    27   DONE     REL   .X9MV     33   33    46T
  6000   .X9MV    SEC   SECT       7    7
  6001   .X9MV.   SEC   SECT      89   89
    35   MVZERO   REL   .X9MV     42   26T   42
     2   PR4      REL   .X9MV.    92   12W   36R   52W   62R   68W   78R   92
     1   PR5      REL   .X9MV.    91   11W   35R   51W   61R   67W   77R   91
     1   RD       ABS             95   30    95
     3   RECDSC   REL   .X9MV.    93   21W   32    45    93
     0   REG      REL   .X9MV.    90   10W   34R   90
     4   SENDSC   REL   .X9MV.    94   28W   31    94
    73   U.4TO9   REL   .X9MV     81   44D   60    81
    77   U.9TO4   REL   .X9MV     83   76    83
     0   X9MV     REL   .X9MV      9    8     9
