
     DIRECTORY AND SEGMENT LIST  (OBJECT UNIT NAME '')

      * SYMDEF *        GLOBAL NAME               SEGMENT  OFFSET      ACCESS ATTRIBUTES
     1  X9OS   'X9OS'                              .X9OS       0          R  W  E  L  U
     2  .CDAT4 '.CDAT4'                            .X9OS    3172          R  W  E  L  U
     3  .CDAY4 '.CDAY4'                            .X9OS    3206          R  W  E  L  U
     4  U.ATOB 'T$ASCII_TO_GBCD'                   .X9OS     262          R  W NE  L  U
     5  C.NUM  'X9OS$CLASS_NUMERIC'                .X9OS     462          R  W NE  L  U
     6  A.TO.E 'T$ASCII_TO_EBCDIC'                 .X9OS    1662          R  W NE  L  U
     7  G.TO.A 'T$GBCD_TO_ASCII'                   .X9OS    2663          R  W NE  L  U
     8  E.TO.A 'T$EBCDIC_TO_ASCII'                 .X9OS    2723          R  W NE  L  U
     9  XITBLK 'X9OS$EXIT_BLOCK'                   .X9OS.      6          R  W NE  L  U
    10  XITINX 'X9OS$EXIT_INDEX'                   .X9OS.    210          R  W NE  L  U

      * COMMON SECTION *  GLOBAL NAME                       SIZE          KIND                  ATTRIBUTES
    11  LIBCOM 'LIBCOM'                                       24           DATA

      * SYMREF *        GLOBAL NAME                                    ACCESS ATTRIBUTES
    12  X8AD.T 'X8AD$DATE4'                                               R  W  E  L  U
    13  X8AD.Y 'X8AD$DAY4'                                                R  W  E  L  U
    14  MSTAT  'X66_MSTATIC'                                              R  W  E  L  U
    15  GETMEM 'X66_FRAME_EXT'                                            R  W  E  L  U
    16  RELMEM 'X66_FRAME_KEXT'                                           R  W  E  L  U
    17  X8AC   'X8AD$ACCEPT_CONSOLE'                                      R  W  E  L  U
    18  X8AD   'X8AD$ACCEPT_DEFAULT_DEVICE'                               R  W  E  L  U
    19  X8AE   'X8AE$LONG_EDITED_MOVE'                                    R  W  E  L  U
    20  X8CE   'X8ER$CALL_ERROR'                                          R  W  E  L  U
    21  X8CL   'X8CL$CALL'                                                R  W  E  L  U
    22  X8CN   'X8CL$CANCEL'                                              R  W  E  L  U
    23  X8CI   'X8CL$CANCEL_INTERNAL_LITERAL'                             R  W  E  L  U

    24  X8EP   'X8CL$EXIT_PROGRAM'                                        R  W  E  L  U
    25  X8SB   'X8CL$SUBROUTINE_ENTRY'                                    R  W  E  L  U
    26  X8DC   'X8DS$DISPLAY_CONSOLE'                                     R  W  E  L  U
    27  X8DN   'X8DS$DISPLAY_SYSOUT_NO_ADV'                               R  W  E  L  U
    28  X8DS   'X8DS$DISPLAY_SYSOUT'                                      R  W  E  L  U
    29  X8AT   'X8AD$DATE'                                                R  W  E  L  U
    30  X8DY   'X8AD$DAY'                                                 R  W  E  L  U
    31  X8DW   'X8AD$DAY_OF_WEEK'                                         R  W  E  L  U
    32  X9UN   'X9ER$USE_ENTRY'                                           R  W  E  L  U
    33  X9UE   'X9ER$USE_EXIT'                                            R  W  E  L  U
    34  X8UN   'X8CL$GLOBAL_USE_ENTRY'                                    R  W  E  L  U
    35  X8UE   'X8CL$GLOBAL_USE_EXIT'                                     R  W  E  L  U
    36  X8OB   'X8OB$OPTION_BITS'                                         R  W  E  L  U
    37  X8OC   'X8ER$OCCURS_CHECK'                                        R  W  E  L  U
    38  X8PD   'X8PD$PICTURE_DEEDIT'                                      R  W  E  L  U
    39  X8SC   'X8ER$SUBCHECK'                                            R  W  E  L  U
    40  X8TM   'X8AD$TIME'                                                R  W  E  L  U
    41  X9DD   'X9DD'                                                     R  W  E  L  U
    42  X9DI   'X9DI'                                                     R  W  E  L  U
    43  X9DQ   'X9DR$CVDQ'                                                R  W  E  L  U
    44  X9DR   'X9DR$CVDR'                                                R  W  E  L  U
    45  X9II   'X9II'                                                     R  W  E  L  U
    46  X9MN   'X9MN$MAIN'                                                R  W  E  L  U
    47  X9QI   'X9QI'                                                     R  W  E  L  U
    48  X9QQ   'X9QQ'                                                     R  W  E  L  U
    49  X9QD   'X9RD$CVQD'                                                R  W  E  L  U
    50  X9RD   'X9RD$CVRD'                                                R  W  E  L  U
    51  X9QDT  'X9RD$CVQDT'                                               R  W  E  L  U
    52  X9RDT  'X9RD$CVRDT'                                               R  W  E  L  U
    53  X9RI   'X9RI'                                                     R  W  E  L  U
    54  X9RR   'X9RR'                                                     R  W  E  L  U
    55  X9RW   'X9RW'                                                     R  W  E  L  U
    56  X9SON  'X9SS$SET_SWITCHES_ON'                                     R  W  E  L  U
    57  X9SOF  'X9SS$SET_SWITCHES_OFF'                                    R  W  E  L  U
    58  X9CON  'X9SS$CHECK_SWITCH_ON'                                     R  W  E  L  U
    59  X9COFF 'X9SS$CHECK_SWITCH_OFF'                                    R  W  E  L  U
    60  X9ST   'X9ST$STOP_RUN'                                            R  W  E  L  U

    61  X8AS   'X8AD$STOP_LITERAL'                                        R  W  E  L  U
    62  X9WC   'X9WC$CLOSE'                                               R  W  E  L  U
    63  X9WCC  'X9WC$CLOSE_CANCEL'                                        R  W  E  L  U
    64  X9WD   'X9WD$DELETE'                                              R  W  E  L  U
    65  X9WO   'X9WO$OPEN'                                                R  W  E  L  U
    66  X9WR   'X9WR$READ_RAND'                                           R  W  E  L  U
    67  X9WRN  'X9WR$READ_NEXT'                                           R  W  E  L  U
    68  X9WW   'X9WW$WRITE_RAND'                                          R  W  E  L  U
    69  X9WWS  'X9WW$WRITE_SEQ'                                           R  W  E  L  U
    70  X9WWR  'X9WW$REWRITE'                                             R  W  E  L  U
    71  X9WP   'X9WW$WRITE_PAGE'                                          R  W  E  L  U
    72  X9WS   'X9WS$START'                                               R  W  E  L  U
    73  X9PC   'X9PC$PARAMETER_CHECK'                                     R  W  E  L  U

      * SECTION *          SIZE          KIND
    74  .X9OS              3230           CODE
    75  .X9OS.              221           DATA


     PROGRAM BREAK        3475

                                      1 *M*  X9OS  -  THE OPERATORS SEGMENT, ROUTES CONTROL TO THE LIBRARY
                                      2 *T***********************************************************
                                      3 *T*                                                         *
                                      4 *T* COPYRIGHT (C) BULL HN INFORMATION SYSTEMS INC., 1997    *
                                      5 *T*                                                         *
                                      6 *T***********************************************************
                        000000        7        SECT    .X9OS,CODE
                                      8 *P*
                                      9 *P*
                                     10 *P*     NAME       : X9OS
                                     11 *P*
                                     12 *P*     PURPOSE    : X9OS ROUTES CONTROL TO THE APPROPRIATE LIBRARY
                                     13 *P*                  ROUTINE FROM A COMPILER CALL.
                                     14 *P*
                                     15 *P*
                                     16 *D*
                                     17 *D*
                                     18 *D*     NAME       : X9OS
                                     19 *D*
                                     20 *D*     CALL       :
                                     21 *D*                  SET UP THE ARGS FOR THE
                                     22 *D*                  LIBRARY ROUTINE CALLED ,
                                     23 *D*
                                     24 *D*                  TSX0    OFFSET,,PRN
                                     25 *D*                  NOP     0,DL
                                     26 *D*                    . . .
                                     27 *D*     INTERFACE  : THIS CALLS ALL THE LIBRARY ROUTINES:
                                     28 *D*
                                     29 *D*                    X9DD -EXPONENTIATION - D ** D
                                     30 *D*                    X9DQ  - CONVERT DECIMAL TO DOUBLE FLOATING
                                     31 *D*                    X9DR  - CONVERT DECIMAL TO SINGLE FLOATING
                                     32 *D*                    X9QD  - CONVERT DOUBLE FLOATING TO DECIMAL
                                     33 *D*                    X9RD  - CONVERT SINGLE FLOATING TO DECIMAL
                                     34 *D*                    X9RDT - CONVERT R TO D TRUNCATED
                                     35 *D*                    X9QDT - CONVERT Q TO D TRUNCATED
                                     36 *D*                    X8AT  - ACCEPT FROM DATE
                                     37 *D*                    X8DW  - ACCEPT FROM DAY OF WEEK

                                     38 *D*                    X8DY  - ACCEPT FROM DAY
                                     39 *D*                    X8AC  - ACCEPT FROM CONSOLE
                                     40
                                     41 *D*                    X8DS  - DISPLAY UPON DEFAULT DEVICE
                                     42 *D*                    X8DN  - DISPLAY UPON DEFAULT DEVICE WITH
                                     43 *D*                            NO ADVANCING
                                     44 *D*                    X8DC  - DISPLAY UPON CONSOLE
                                     45 *D*                    X8AD  - ACCEPT FROM DEFAULT DEVICE
                                     46 *D*                    X8OB  - SET OPTIONS FOR LIBRARY
                                     47 *D*                    X8TM  - ACCEPT FROM TIME
                                     48 *D*                    X9MN  - THE DRIVING MAIN AND FAULT CHECKING
                                     49 *D*                    X9ST$STOP_RUN - TERMINATION AND WRAP-UP PROCED
                                     50
                                     51
                                     52 *D*
                                     53 *D*     INPUT      : OPTIONS FOR THE LIBRARY ARE SET THRU THE
                                     54 *D*                   >  NOP     N,DL  < , WHERE N IS THE OPTION
                                     55 *D*                  NUMBER TO BE SET.
                                     56 *D*
                                     57 *D*     OUTPUT     : NONE
                                     58 *D*
                                     59 *D*     SCRATCH    : NONE
                                     60 *D*
                                     61 *D*     REFERENCE  : X8LC$DOCUMENT
                                     62 *D*
                                     63 *D*

                                     65
                                     66 *
                        000000       67        ENTDEF  X9OS
                        000000       68        ENTDEF  .CDAT4
                        000000       69        ENTDEF  .CDAY4
                        000000       70        ENTREF  (X8AD.T,X8AD$DATE4)
                        000000       71        ENTREF  (X8AD.Y,X8AD$DAY4)
                        000000       72        ENTREF  (MSTAT,X66_MSTATIC)
                        000000       73        ENTREF  (GETMEM,X66_FRAME_EXT)
                        000000       74        ENTREF  (RELMEM,X66_FRAME_KEXT)
                        000000       75        ENTREF  (X8AC,X8AD$ACCEPT_CONSOLE)
                        000000       76        ENTREF  (X8AD,X8AD$ACCEPT_DEFAULT_DEVICE)
                        000000       77        ENTREF  (X8AE,X8AE$LONG_EDITED_MOVE)
                        000000       78        ENTREF  (X8CE,X8ER$CALL_ERROR)
                        000000       79        ENTREF  (X8CL,X8CL$CALL)
                        000000       80        ENTREF  (X8CN,X8CL$CANCEL)
                        000000       81        ENTREF  (X8CI,X8CL$CANCEL_INTERNAL_LITERAL)
                        000000       82        ENTREF  (X8EP,X8CL$EXIT_PROGRAM)
                        000000       83        ENTREF  (X8SB,X8CL$SUBROUTINE_ENTRY)
                        000000       84        ENTREF  (X8DC,X8DS$DISPLAY_CONSOLE)
                        000000       85        ENTREF  (X8DN,X8DS$DISPLAY_SYSOUT_NO_ADV)
                        000000       86        ENTREF  (X8DS,X8DS$DISPLAY_SYSOUT)
                        000000       87        ENTREF  (X8AT,X8AD$DATE)
                        000000       88        ENTREF  (X8DY,X8AD$DAY)
                        000000       89        ENTREF  (X8DW,X8AD$DAY_OF_WEEK)
                        000000       90        ENTREF  (X9UN,X9ER$USE_ENTRY)
                        000000       91        ENTREF  (X9UE,X9ER$USE_EXIT)
                        000000       92        ENTREF  (X8UN,X8CL$GLOBAL_USE_ENTRY)
                        000000       93        ENTREF  (X8UE,X8CL$GLOBAL_USE_EXIT)
                        000000       94        ENTREF  (X8OB,X8OB$OPTION_BITS)
                        000000       95        ENTREF  (X8OC,X8ER$OCCURS_CHECK)
                        000000       96        ENTREF  (X8PD,X8PD$PICTURE_DEEDIT)
                        000000       97        ENTREF  (X8SC,X8ER$SUBCHECK)
                        000000       98        ENTREF  (X8TM,X8AD$TIME)
                        000000       99        ENTREF  X9DD
                        000000      100        ENTREF  X9DI
                        000000      101        ENTREF  (X9DQ,X9DR$CVDQ)

                        000000      102        ENTREF  (X9DR,X9DR$CVDR)
                        000000      103        ENTREF  X9II
                        000000      104        ENTREF  (X9MN,X9MN$MAIN)
                        000000      105        ENTREF  X9QI
                        000000      106        ENTREF  X9QQ
                        000000      107        ENTREF  (X9QD,X9RD$CVQD)
                        000000      108        ENTREF  (X9RD,X9RD$CVRD)
                        000000      109        ENTREF  (X9QDT,X9RD$CVQDT)
                        000000      110        ENTREF  (X9RDT,X9RD$CVRDT)
                        000000      111        ENTREF  X9RI
                        000000      112        ENTREF  X9RR
                        000000      113        ENTREF  X9RW
                        000000      114        ENTREF  (X9SON,X9SS$SET_SWITCHES_ON)
                        000000      115        ENTREF  (X9SOF,X9SS$SET_SWITCHES_OFF)
                        000000      116        ENTREF  (X9CON,X9SS$CHECK_SWITCH_ON)
                        000000      117        ENTREF  (X9COFF,X9SS$CHECK_SWITCH_OFF)
                        000000      118        ENTREF  (X9ST,X9ST$STOP_RUN)
                        000000      119        ENTREF  (X8AS,X8AD$STOP_LITERAL)
                        000000      120        ENTREF  (X9WC,X9WC$CLOSE)
                        000000      121        ENTREF  (X9WCC,X9WC$CLOSE_CANCEL)
                        000000      122        ENTREF  (X9WD,X9WD$DELETE)
                        000000      123        ENTREF  (X9WO,X9WO$OPEN)
                        000000      124        ENTREF  (X9WR,X9WR$READ_RAND)
                        000000      125        ENTREF  (X9WRN,X9WR$READ_NEXT)
                        000000      126        ENTREF  (X9WW,X9WW$WRITE_RAND)
                        000000      127        ENTREF  (X9WWS,X9WW$WRITE_SEQ)
                        000000      128        ENTREF  (X9WWR,X9WW$REWRITE)
                        000000      129        ENTREF  (X9WP,X9WW$WRITE_PAGE)
                        000000      130        ENTREF  (X9WS,X9WS$START)
                        000000      131        ENTREF  (X9PC,X9PC$PARAMETER_CHECK)
                                    132 *      ENTREF  (X9SORT,ZL8$SORT)
                                    133 *      ENTREF  (X9MERG,ZL8$MERGE)
                                    134 *      ENTREF  (X9REL,X9SM$RELEASE)
                                    135 *      ENTREF  (X9RET,X9SM$RETURN)
                                    136 *D*    DEC     0,0,0,0,0,0,0,0      -- B_COPYRIGHT CHANGED FOR 1987
                                    137 *D*    REMOVED BY DENNIS CALKINS    -- B_COPYRIGHT CHANGED FOR 1990
                                    138 *D*    THESE EIGHT WORDS OF PADDING ARE NOLONGER NEEDED.

                                    139 *D*
                                    140 *D*    THIS MODULE MUST END UP AT .700200 OCTAL FOR THE LIBRARY TO
                                    141 *D*    FUNCTION WITH OLD RUN UNITS.
                                    142 *D*

                        000000      144 X9OS   NULL
                                    145 *V*
                                    146 *V*
                                    147 *V*                    X9OS_ENTRIES
                                    148 *V*
                                    149 *V*     THE ENTRIES CORRESPOND WITH THE COMPILER.  ALL CALLS
                                    150 *V*     ARE GENERATED WITH AN OFFSET WHICH THEN TRANSFERS TO THE
                                    151 *V*     MATCHING SETUP CALL TO THE ROUTINE WANTED.  THIS IS A
                                    152 *V*     GO-BETWEEN FOR THE COMPILER AND THE LIBRARY.
                                    153 *V*    ( SEE Z8A_LIBRARY TO MATCH/ADD OFFSETS )
                                    154 *V*
      000000 000000 7100 00 020NN   155        TRA     X8AE           0 -- LONG EDITED MOVES
      000001 000000 7100 00 020NN   156        TRA     X9DD           1 -- D ** D
      000002 000000 7100 00 020NN   157        TRA     X9RR           2 -- R ** R
      000003 000000 7100 00 020NN   158        TRA     X9QQ           3 -- Q ** Q
      000004 003133 7100 00 010NN   159        TRA     .X8SC          4 -- SUBSCRIPT CHECK
      000005 003123 7100 00 010NN   160        TRA     .X8OC          5 -- OCCURS DEPENDING CHECK
      000006 000000 7100 00 020NN   161        TRA     X9ST           6 -- STOP RUN
                        000007      162        BSS     1              7 *** FUTURE EXPANSION
      000010 003143 7100 00 010NN   163        TRA     .X9MN          8 -- MAIN ENTRY
      000011 000000 7100 00 020NN   164        TRA     X8DS           9 -- DISPLAY ON SYSOUT
      000012 000000 7100 00 020NN   165        TRA     X8DN          10 -- DISPLAY NO ADVANCING
      000013 000000 7100 00 020NN   166        TRA     X8DC          11 -- DISPLAY ON CONSOLE
      000014 000000 7100 00 020NN   167        TRA     X8AT          12 -- ACCEPT FROM DATE
      000015 000000 7100 00 020NN   168        TRA     X8DY          13 -- ACCEPT FROM DAY
      000016 000000 7100 00 020NN   169        TRA     X8TM          14 -- ACCEPT FROM TIME
      000017 000000 7100 00 020NN   170        TRA     X8DW          15 -- ACCEPT FROM DAY OF WEEK
      000020 000000 7100 00 020NN   171        TRA     X8AD          16 -- ACCEPT FROM DEFAULT DEVICE
      000021 000000 7100 00 020NN   172        TRA     X8AC          17 -- ACCEPT FROM CONSOLE
      000022 000000 7100 00 020NN   173        TRA     X9DR          18 -- CONVERT DECIMAL TO REAL(FLT BINARY)
      000023 000000 7100 00 020NN   174        TRA     X9DQ          19 -- CONVERT DECIMAL TO DOUBLE PREC.
      000024 000000 7100 00 020NN   175        TRA     X9RD          20 -- CONVERT REAL TO DECIMAL
      000025 000000 7100 00 020NN   176        TRA     X9QD          21 -- CONVERT DOUBLE PREC. TO DECIMAL
      000026 000000 7100 00 020NN   177        TRA     X8AS          22 -- STOP LITERAL
      000027 000000 7100 00 020NN   178        TRA     X9SON         23 -- SET SWITCHES ON
      000030 000000 7100 00 020NN   179        TRA     X9SOF         24 -- SET SWITCHES OFF
      000031 000000 7100 00 020NN   180        TRA     X9RW          25 -- REPORT WRITER CONTROL SYSTEM

      000032 000000 7100 00 020NN   181        TRA     X9II          26 -- I ** I
      000033 000000 7100 00 020NN   182        TRA     X9DI          27 -- D ** I
      000034 000000 7100 00 020NN   183        TRA     X9RI          28 -- R ** I
      000035 000000 7100 00 020NN   184        TRA     X9QI          29 -- Q ** I
      000036 000000 7100 00 020NN   185        TRA     X8PD          30 -- PICTURE CLAUSE DE-EDITOR.
      000037 000000 7100 00 020NN   186        TRA     X9CON         31 -- CHECK SWITCH (ON?)
      000040 000000 7100 00 020NN   187        TRA     X9COFF        32 -- CHECK SWITCH (OFF?)
      000041 000000 7100 00 020NN   188        TRA     X9WC          33 -- CLOSE                    I/O
      000042 000000 7100 00 020NN   189        TRA     X9WD          34 -- DELETE                   I/O
      000043 000000 7100 00 020NN   190        TRA     X9WO          35 -- OPEN                     I/O
      000044 000000 7100 00 020NN   191        TRA     X9WR          36 -- READ RANDOM              I/O
      000045 000000 7100 00 020NN   192        TRA     X9WRN         37 -- READ NEXT                I/O
      000046 000000 7100 00 020NN   193        TRA     X9WW          38 -- WRITE RANDOM             I/O
      000047 000000 7100 00 020NN   194        TRA     X9WWS         39 -- WRITE SEQUENTIAL         I/O
      000050 000000 7100 00 020NN   195        TRA     X9WWR         40 -- REWRITE                  I/O
      000051 000000 7100 00 020NN   196        TRA     X9WS          41 -- START                    I/O
      000052 000000 7100 00 020NN   197        TRA     X9WCC         42 -- CLOSE FILES AFTER CANCEL I/O(IPC)
      000053 000000 7100 00 020NN   198        TRA     X9WP          43 -- WRITE PAGE               I/O(RWCS)
      000054 000000 7100 00 020NN   199        TRA     X9PC          44 -- PARAMETER CHECK
                        000055      200        BSS     1             45 -- RELEASE                  SORT
                        000056      201        BSS     1             46 -- RETURN                   SORT
      000057 003170 7100 00 010NN   202        TRA     .X8CL         47 -- CALL IDENTIFIER          IPC
      000060 000000 7100 00 020NN   203        TRA     X8EP          48 -- EXIT PROGRAM             IPC
      000061 000000 7100 00 020NN   204        TRA     X8CI          49 -- CALL LITERAL (INTERNAL)  IPC
      000062 003163 7100 00 010NN   205        TRA     .X8SB         50 -- SUBROUTINE ENTRY         IPC
      000063 000000 7100 00 020NN   206        TRA     X8CN          51 -- CANCEL                   IPC
      000064 000000 7100 00 020NN   207        TRA     X8CE          52 -- CALL ERROR               IPC
      000065 000000 7100 00 020NN   208        TRA     X9RDT         53 -- CONVERT R TO D TRUNCATED
      000066 000000 7100 00 020NN   209        TRA     X9QDT         54 -- CONVERT Q TO D TRUNCATED
                                    210
                        000067      211        BSS     27             FUTURE EXPANSION
      000122 000000 7100 00 020NN   212        TRA     X8UE          82 -- EXIT FROM USE PROC
                        000123      213        BSS     3              FUTURE EXPANSION
      000126 000000 7100 00 020NN   214        TRA     X8UN          86 -- ENTRY INTO GLOBAL USE PROC
      000127 000000 7100 00 020NN   215        TRA     X9UE          87 -- EXIT FROM DML USE PROC
      000130 000000 7100 00 020NN   216        TRA     X9UN          88 -- ENTRY INTO DML USE PROC
                        000131      217        BSS     39             FUTURE EXPANSION

                        000200      219 TABLET NULL                   (FOR DT --> OT)
      000200 000211 0000 02 010NN   220        ARG     ZERO-11,QU
      000201 000214 0000 02 010NN   221        ARG     ONE-11,QU
      000202 000217 0000 02 010NN   222        ARG     TWO-11,QU
      000203 000222 0000 02 010NN   223        ARG     THREE-11,QU
      000204 000225 0000 02 010NN   224        ARG     FOUR-11,QU
      000205 000230 0000 02 010NN   225        ARG     FIVE-11,QU
      000206 000233 0000 02 010NN   226        ARG     SIX-11,QU
      000207 000236 0000 02 010NN   227        ARG     SEVEN-11,QU
      000210 000241 0000 02 010NN   228        ARG     EIGHT-11,QU
      000211 000244 0000 02 010NN   229        ARG     NINE-11,QU

                        000212      231 LTABLE NULL                   (FOR DT --> OL)
      000212 000211 0000 05 010NN   232        ARG     ZERO-11,AL
      000213 000214 0000 05 010NN   233        ARG     ONE-11,AL
      000214 000217 0000 05 010NN   234        ARG     TWO-11,AL
      000215 000222 0000 05 010NN   235        ARG     THREE-11,AL
      000216 000225 0000 05 010NN   236        ARG     FOUR-11,AL
      000217 000230 0000 05 010NN   237        ARG     FIVE-11,AL
      000220 000233 0000 05 010NN   238        ARG     SIX-11,AL
      000221 000236 0000 05 010NN   239        ARG     SEVEN-11,AL
      000222 000241 0000 05 010NN   240        ARG     EIGHT-11,AL
      000223 000244 0000 05 010NN   241        ARG     NINE-11,AL
      000224 060060060173           242 ZERO   VFD     O36/060060060173   "+0" 11  (13)8     EBCDIC +
      000225 060060060173           243        VFD     O36/060060060173   "+0" 12  (14)8     ASCII  +
      000226 060060060175           244        VFD     O36/060060060175   "-0" 13  (15)8     ASCII  -
      000227 060060060101           245 ONE    UASCI   1,000A      "+1"
      000230 060060060101           246        UASCI   1,000A      "+1"
      000231 060060060112           247        UASCI   1,000J      "-1"
      000232 060060060102           248 TWO    UASCI   1,000B      "+2"
      000233 060060060102           249        UASCI   1,000B      "+2"
      000234 060060060113           250        UASCI   1,000K      "-2"
      000235 060060060103           251 THREE  UASCI   1,000C      "+3"
      000236 060060060103           252        UASCI   1,000C      "+3"
      000237 060060060114           253        UASCI   1,000L      "-3"
      000240 060060060104           254 FOUR   UASCI   1,000D      "+4"
      000241 060060060104           255        UASCI   1,000D      "+4"
      000242 060060060115           256        UASCI   1,000M      "-4"
      000243 060060060105           257 FIVE   UASCI   1,000E      "+5"
      000244 060060060105           258        UASCI   1,000E      "+5"
      000245 060060060116           259        UASCI   1,000N      "-5"
      000246 060060060106           260 SIX    UASCI   1,000F      "+6"
      000247 060060060106           261        UASCI   1,000F      "+6"
      000250 060060060117           262        UASCI   1,000O      "-6"
      000251 060060060107           263 SEVEN  UASCI   1,000G      "+7"
      000252 060060060107           264        UASCI   1,000G      "+7"
      000253 060060060120           265        UASCI   1,000P      "-7"
      000254 060060060110           266 EIGHT  UASCI   1,000H      "+8"
      000255 060060060110           267        UASCI   1,000H      "+8"

                                    268
      000256 060060060121           269        UASCI   1,000Q      "-8"
      000257 060060060111           270 NINE   UASCI   1,000I      "+9"
      000260 060060060111           271        UASCI   1,000I      "+9"
      000261 060060060122           272        UASCI   1,000R      "-9"

                                    274 *-------------------------------------------------------------*
                                    275 *
                                    276 * ASCII TO GBCD CONVERSION TABLE
                                    277 *
                                    278 *-------------------------------------------------------------*
                        000262      279        SYMDEF  (U.ATOB,T$ASCII_TO_GBCD)
                        000262      280 U.ATOB NULL
      000262 037037037037           281        OCT     037037037037
      000263 037037037037           282        OCT     037037037037
      000264 037037037037           283        OCT     037037037037
      000265 037037037037           284        OCT     037037037037
      000266 037037037037           285        OCT     037037037037
      000267 037037037037           286        OCT     037037037037
      000270 037037037037           287        OCT     037037037037
      000271 037037037037           288        OCT     037037037037
      000272 020077076013           289        OCT     020077076013
      000273 053074032057           290        OCT     053074032057
      000274 035055054060           291        OCT     035055054060
      000275 073052033061           292        OCT     073052033061
      000276 000001002003           293        OCT     000001002003
      000277 004005006007           294        OCT     004005006007
      000300 010011015056           295        OCT     010011015056
      000301 036075016017           296        OCT     036075016017
      000302 014021022023           297        OCT     014021022023
      000303 024025026027           298        OCT     024025026027
      000304 030031041042           299        OCT     030031041042
      000305 043044045046           300        OCT     043044045046
      000306 047050051062           301        OCT     047050051062
      000307 063064065066           302        OCT     063064065066
      000310 067070071012           303        OCT     067070071012
      000311 037034040072           304        OCT     037034040072
      000312 037021022023           305        OCT     037021022023
      000313 024025026027           306        OCT     024025026027
      000314 030031041042           307        OCT     030031041042
      000315 043044045046           308        OCT     043044045046
      000316 047050051062           309        OCT     047050051062
      000317 063064065066           310        OCT     063064065066

      000320 067070071000           311        OCT     067070071000
      000321 037040037037           312        OCT     037040037037
      000322 037037037037           313        OCT     037037037037
      000323 037037037037           314        OCT     037037037037
      000324 037037037037           315        OCT     037037037037
      000325 037037037037           316        OCT     037037037037
      000326 037037037037           317        OCT     037037037037
      000327 037037037037           318        OCT     037037037037
      000330 037037037037           319        OCT     037037037037
      000331 037037037037           320        OCT     037037037037
      000332 037037037037           321        OCT     037037037037
      000333 037037037037           322        OCT     037037037037
      000334 037037037037           323        OCT     037037037037
      000335 037037037037           324        OCT     037037037037
      000336 037037037037           325        OCT     037037037037
      000337 037037037037           326        OCT     037037037037
      000340 037037037037           327        OCT     037037037037
      000341 037037037037           328        OCT     037037037037
      000342 037037037037           329        OCT     037037037037
      000343 037037037037           330        OCT     037037037037
      000344 037037037037           331        OCT     037037037037
      000345 037037037037           332        OCT     037037037037
      000346 037037037037           333        OCT     037037037037
      000347 037037037037           334        OCT     037037037037
      000350 037037037037           335        OCT     037037037037
      000351 037037037037           336        OCT     037037037037
      000352 037037037037           337        OCT     037037037037
      000353 037037037037           338        OCT     037037037037
      000354 037037037037           339        OCT     037037037037
      000355 037037037037           340        OCT     037037037037
      000356 037037037037           341        OCT     037037037037
      000357 037037037037           342        OCT     037037037037
      000360 037037037037           343        OCT     037037037037
      000361 037037037037           344        OCT     037037037037
      000362 037037037037           345        OCT     037037037037
      000363 037037037037           346        OCT     037037037037
      000364 037037037037           347        OCT     037037037037

      000365 037037037037           348        OCT     037037037037
      000366 037037037037           349        OCT     037037037037
      000367 037037037037           350        OCT     037037037037
      000370 037037037037           351        OCT     037037037037
      000371 037037037037           352        OCT     037037037037
      000372 037037037037           353        OCT     037037037037
      000373 037037037037           354        OCT     037037037037
      000374 037037037037           355        OCT     037037037037
      000375 037037037037           356        OCT     037037037037
      000376 037037037037           357        OCT     037037037037
      000377 037037037037           358        OCT     037037037037
      000400 037037037037           359        OCT     037037037037
      000401 037037037037           360        OCT     037037037037
      000402 037037037037           361        OCT     037037037037
      000403 037037037037           362        OCT     037037037037
      000404 037037037037           363        OCT     037037037037
      000405 037037037037           364        OCT     037037037037
      000406 037037037037           365        OCT     037037037037
      000407 037037037037           366        OCT     037037037037
      000410 037037037037           367        OCT     037037037037
      000411 037037037037           368        OCT     037037037037
      000412 037037037037           369        OCT     037037037037
      000413 037037037037           370        OCT     037037037037
      000414 037037037037           371        OCT     037037037037
      000415 037037037037           372        OCT     037037037037
      000416 037037037037           373        OCT     037037037037
      000417 037037037037           374        OCT     037037037037
      000420 037037037037           375        OCT     037037037037
      000421 037037037037           376        OCT     037037037037
      000422 037037037037           377        OCT     037037037037
      000423 037037037037           378        OCT     037037037037
      000424 037037037037           379        OCT     037037037037
      000425 037037037037           380        OCT     037037037037
      000426 037037037037           381        OCT     037037037037
      000427 037037037037           382        OCT     037037037037
      000430 037037037037           383        OCT     037037037037
      000431 037037037037           384        OCT     037037037037

      000432 037037037037           385        OCT     037037037037
      000433 037037037037           386        OCT     037037037037
      000434 037037037037           387        OCT     037037037037
      000435 037037037037           388        OCT     037037037037
      000436 037037037037           389        OCT     037037037037
      000437 037037037037           390        OCT     037037037037
      000440 037037037037           391        OCT     037037037037
      000441 037037037037           392        OCT     037037037037
      000442 037037037037           393        OCT     037037037037
      000443 037037037037           394        OCT     037037037037
      000444 037037037037           395        OCT     037037037037
      000445 037037037037           396        OCT     037037037037
      000446 037037037037           397        OCT     037037037037
      000447 037037037037           398        OCT     037037037037
      000450 037037037037           399        OCT     037037037037
      000451 037037037037           400        OCT     037037037037
      000452 037037037037           401        OCT     037037037037
      000453 037037037037           402        OCT     037037037037
      000454 037037037037           403        OCT     037037037037
      000455 037037037037           404        OCT     037037037037
      000456 037037037037           405        OCT     037037037037
      000457 037037037037           406        OCT     037037037037
      000460 037037037037           407        OCT     037037037037
      000461 037037037037           408        OCT     037037037037

                                    410 *-------------------------------------------------------------*
                                    411 *
                                    412 * NUMERIC CLASS TEST TABLE
                                    413 *
                                    414 *-------------------------------------------------------------*
                        000462      415        SYMDEF  (C.NUM,X9OS$CLASS_NUMERIC)
                        000462      416 C.NUM  NULL
      000462 037037037037           417        OCT     037037037037
      000463 037037037037           418        OCT     037037037037
      000464 037037037037           419        OCT     037037037037
      000465 037037037037           420        OCT     037037037037
      000466 037037037037           421        OCT     037037037037
      000467 037037037037           422        OCT     037037037037
      000470 037037037037           423        OCT     037037037037
      000471 037037037037           424        OCT     037037037037
      000472 020077076013           425        OCT     020077076013
      000473 053074032057           426        OCT     053074032057
      000474 035055054060           427        OCT     035055054060
      000475 073052033061           428        OCT     073052033061
      000476 000000000000           429        OCT     000000000000
      000477 000000000000           430        OCT     000000000000
      000500 000000015056           431        OCT     000000015056
      000501 036075016017           432        OCT     036075016017
      000502 014021022023           433        OCT     014021022023
      000503 024025026027           434        OCT     024025026027
      000504 030031041042           435        OCT     030031041042
      000505 043044045046           436        OCT     043044045046
      000506 047050051062           437        OCT     047050051062
      000507 063064065066           438        OCT     063064065066
      000510 067070071012           439        OCT     067070071012
      000511 037034040072           440        OCT     037034040072
      000512 037021022023           441        OCT     037021022023
      000513 024025026027           442        OCT     024025026027
      000514 030031041042           443        OCT     030031041042
      000515 043044045046           444        OCT     043044045046
      000516 047050051062           445        OCT     047050051062
      000517 063064065066           446        OCT     063064065066

      000520 067070071037           447        OCT     067070071037
      000521 037040037037           448        OCT     037040037037
      000522 037037037037           449        OCT     037037037037
      000523 037037037037           450        OCT     037037037037
      000524 037037037037           451        OCT     037037037037
      000525 037037037037           452        OCT     037037037037
      000526 037037037037           453        OCT     037037037037
      000527 037037037037           454        OCT     037037037037
      000530 037037037037           455        OCT     037037037037
      000531 037037037037           456        OCT     037037037037
      000532 037037037037           457        OCT     037037037037
      000533 037037037037           458        OCT     037037037037
      000534 037037037037           459        OCT     037037037037
      000535 037037037037           460        OCT     037037037037
      000536 037037037037           461        OCT     037037037037
      000537 037037037037           462        OCT     037037037037
      000540 037037037037           463        OCT     037037037037
      000541 037037037037           464        OCT     037037037037
      000542 037037037037           465        OCT     037037037037
      000543 037037037037           466        OCT     037037037037
      000544 037037037037           467        OCT     037037037037
      000545 037037037037           468        OCT     037037037037
      000546 037037037037           469        OCT     037037037037
      000547 037037037037           470        OCT     037037037037
      000550 037037037037           471        OCT     037037037037
      000551 037037037037           472        OCT     037037037037
      000552 037037037037           473        OCT     037037037037
      000553 037037037037           474        OCT     037037037037
      000554 037037037037           475        OCT     037037037037
      000555 037037037037           476        OCT     037037037037
      000556 037037037037           477        OCT     037037037037
      000557 037037037037           478        OCT     037037037037
      000560 037037037037           479        OCT     037037037037
      000561 037037037037           480        OCT     037037037037
      000562 037037037037           481        OCT     037037037037
      000563 037037037037           482        OCT     037037037037
      000564 037037037037           483        OCT     037037037037

      000565 037037037037           484        OCT     037037037037
      000566 037037037037           485        OCT     037037037037
      000567 037037037037           486        OCT     037037037037
      000570 037037037037           487        OCT     037037037037
      000571 037037037037           488        OCT     037037037037
      000572 037037037037           489        OCT     037037037037
      000573 037037037037           490        OCT     037037037037
      000574 037037037037           491        OCT     037037037037
      000575 037037037037           492        OCT     037037037037
      000576 037037037037           493        OCT     037037037037
      000577 037037037037           494        OCT     037037037037
      000600 037037037037           495        OCT     037037037037
      000601 037037037037           496        OCT     037037037037
      000602 037037037037           497        OCT     037037037037
      000603 037037037037           498        OCT     037037037037
      000604 037037037037           499        OCT     037037037037
      000605 037037037037           500        OCT     037037037037
      000606 037037037037           501        OCT     037037037037
      000607 037037037037           502        OCT     037037037037
      000610 037037037037           503        OCT     037037037037
      000611 037037037037           504        OCT     037037037037
      000612 037037037037           505        OCT     037037037037
      000613 037037037037           506        OCT     037037037037
      000614 037037037037           507        OCT     037037037037
      000615 037037037037           508        OCT     037037037037
      000616 037037037037           509        OCT     037037037037
      000617 037037037037           510        OCT     037037037037
      000620 037037037037           511        OCT     037037037037
      000621 037037037037           512        OCT     037037037037
      000622 037037037037           513        OCT     037037037037
      000623 037037037037           514        OCT     037037037037
      000624 037037037037           515        OCT     037037037037
      000625 037037037037           516        OCT     037037037037
      000626 037037037037           517        OCT     037037037037
      000627 037037037037           518        OCT     037037037037
      000630 037037037037           519        OCT     037037037037
      000631 037037037037           520        OCT     037037037037

      000632 037037037037           521        OCT     037037037037
      000633 037037037037           522        OCT     037037037037
      000634 037037037037           523        OCT     037037037037
      000635 037037037037           524        OCT     037037037037
      000636 037037037037           525        OCT     037037037037
      000637 037037037037           526        OCT     037037037037
      000640 037037037037           527        OCT     037037037037
      000641 037037037037           528        OCT     037037037037
      000642 037037037037           529        OCT     037037037037
      000643 037037037037           530        OCT     037037037037
      000644 037037037037           531        OCT     037037037037
      000645 037037037037           532        OCT     037037037037
      000646 037037037037           533        OCT     037037037037
      000647 037037037037           534        OCT     037037037037
      000650 037037037037           535        OCT     037037037037
      000651 037037037037           536        OCT     037037037037
      000652 037037037037           537        OCT     037037037037
      000653 037037037037           538        OCT     037037037037
      000654 037037037037           539        OCT     037037037037
      000655 037037037037           540        OCT     037037037037
      000656 037037037037           541        OCT     037037037037
      000657 037037037037           542        OCT     037037037037
      000660 037037037037           543        OCT     037037037037
      000661 037037037037           544        OCT     037037037037

                                    546 *-------------------------------------------------------------*
                                    547 *
                                    548 * UPPERCASE ALPHABETIC CLASS TEST TABLE
                                    549 *
                                    550 *-------------------------------------------------------------*
                        000662      551 C.ALFU NULL
      000662 037037037037           552        OCT     037037037037
      000663 037037037037           553        OCT     037037037037
      000664 037037037037           554        OCT     037037037037
      000665 037037037037           555        OCT     037037037037
      000666 037037037037           556        OCT     037037037037
      000667 037037037037           557        OCT     037037037037
      000670 037037037037           558        OCT     037037037037
      000671 037037037037           559        OCT     037037037037
      000672 000077076013           560        OCT     000077076013
      000673 053074032057           561        OCT     053074032057
      000674 035055054060           562        OCT     035055054060
      000675 073052033061           563        OCT     073052033061
      000676 037001002003           564        OCT     037001002003
      000677 004005006007           565        OCT     004005006007
      000700 010011015056           566        OCT     010011015056
      000701 036075016017           567        OCT     036075016017
      000702 014000000000           568        OCT     014000000000
      000703 000000000000           569        OCT     000000000000
      000704 000000000000           570        OCT     000000000000
      000705 000000000000           571        OCT     000000000000
      000706 000000000000           572        OCT     000000000000
      000707 000000000000           573        OCT     000000000000
      000710 000000000012           574        OCT     000000000012
      000711 037034040072           575        OCT     037034040072
      000712 037021022023           576        OCT     037021022023
      000713 024025026027           577        OCT     024025026027
      000714 030031041042           578        OCT     030031041042
      000715 043044045046           579        OCT     043044045046
      000716 047050051062           580        OCT     047050051062
      000717 063064065066           581        OCT     063064065066
      000720 037037037037           582        OCT     037037037037

      000721 037040037037           583        OCT     037040037037
      000722 037037037037           584        OCT     037037037037
      000723 037037037037           585        OCT     037037037037
      000724 037037037037           586        OCT     037037037037
      000725 037037037037           587        OCT     037037037037
      000726 037037037037           588        OCT     037037037037
      000727 037037037037           589        OCT     037037037037
      000730 037037037037           590        OCT     037037037037
      000731 037037037037           591        OCT     037037037037
      000732 037037037037           592        OCT     037037037037
      000733 037037037037           593        OCT     037037037037
      000734 037037037037           594        OCT     037037037037
      000735 037037037037           595        OCT     037037037037
      000736 037037037037           596        OCT     037037037037
      000737 037037037037           597        OCT     037037037037
      000740 037037037037           598        OCT     037037037037
      000741 037037037037           599        OCT     037037037037
      000742 037037037037           600        OCT     037037037037
      000743 037037037037           601        OCT     037037037037
      000744 037037037037           602        OCT     037037037037
      000745 037037037037           603        OCT     037037037037
      000746 037037037037           604        OCT     037037037037
      000747 037037037037           605        OCT     037037037037
      000750 037037037037           606        OCT     037037037037
      000751 037037037037           607        OCT     037037037037
      000752 037037037037           608        OCT     037037037037
      000753 037037037037           609        OCT     037037037037
      000754 037037037037           610        OCT     037037037037
      000755 037037037037           611        OCT     037037037037
      000756 037037037037           612        OCT     037037037037
      000757 037037037037           613        OCT     037037037037
      000760 037037037037           614        OCT     037037037037
      000761 037037037037           615        OCT     037037037037
      000762 037037037037           616        OCT     037037037037
      000763 037037037037           617        OCT     037037037037
      000764 037037037037           618        OCT     037037037037
      000765 037037037037           619        OCT     037037037037

      000766 037037037037           620        OCT     037037037037
      000767 037037037037           621        OCT     037037037037
      000770 037037037037           622        OCT     037037037037
      000771 037037037037           623        OCT     037037037037
      000772 037037037037           624        OCT     037037037037
      000773 037037037037           625        OCT     037037037037
      000774 037037037037           626        OCT     037037037037
      000775 037037037037           627        OCT     037037037037
      000776 037037037037           628        OCT     037037037037
      000777 037037037037           629        OCT     037037037037
      001000 037037037037           630        OCT     037037037037
      001001 037037037037           631        OCT     037037037037
      001002 037037037037           632        OCT     037037037037
      001003 037037037037           633        OCT     037037037037
      001004 037037037037           634        OCT     037037037037
      001005 037037037037           635        OCT     037037037037
      001006 037037037037           636        OCT     037037037037
      001007 037037037037           637        OCT     037037037037
      001010 037037037037           638        OCT     037037037037
      001011 037037037037           639        OCT     037037037037
      001012 037037037037           640        OCT     037037037037
      001013 037037037037           641        OCT     037037037037
      001014 037037037037           642        OCT     037037037037
      001015 037037037037           643        OCT     037037037037
      001016 037037037037           644        OCT     037037037037
      001017 037037037037           645        OCT     037037037037
      001020 037037037037           646        OCT     037037037037
      001021 037037037037           647        OCT     037037037037
      001022 037037037037           648        OCT     037037037037
      001023 037037037037           649        OCT     037037037037
      001024 037037037037           650        OCT     037037037037
      001025 037037037037           651        OCT     037037037037
      001026 037037037037           652        OCT     037037037037
      001027 037037037037           653        OCT     037037037037
      001030 037037037037           654        OCT     037037037037
      001031 037037037037           655        OCT     037037037037
      001032 037037037037           656        OCT     037037037037

      001033 037037037037           657        OCT     037037037037
      001034 037037037037           658        OCT     037037037037
      001035 037037037037           659        OCT     037037037037
      001036 037037037037           660        OCT     037037037037
      001037 037037037037           661        OCT     037037037037
      001040 037037037037           662        OCT     037037037037
      001041 037037037037           663        OCT     037037037037
      001042 037037037037           664        OCT     037037037037
      001043 037037037037           665        OCT     037037037037
      001044 037037037037           666        OCT     037037037037
      001045 037037037037           667        OCT     037037037037
      001046 037037037037           668        OCT     037037037037
      001047 037037037037           669        OCT     037037037037
      001050 037037037037           670        OCT     037037037037
      001051 037037037037           671        OCT     037037037037
      001052 037037037037           672        OCT     037037037037
      001053 037037037037           673        OCT     037037037037
      001054 037037037037           674        OCT     037037037037
      001055 037037037037           675        OCT     037037037037
      001056 037037037037           676        OCT     037037037037
      001057 037037037037           677        OCT     037037037037
      001060 037037037037           678        OCT     037037037037
      001061 037037037037           679        OCT     037037037037

                                    681 *-------------------------------------------------------------*
                                    682 *
                                    683 * LOWERCASE ALPHABETIC CLASS TEST TABLE
                                    684 *
                                    685 *-------------------------------------------------------------*
                        001062      686 C.ALFL NULL
      001062 037037037037           687        OCT     037037037037
      001063 037037037037           688        OCT     037037037037
      001064 037037037037           689        OCT     037037037037
      001065 037037037037           690        OCT     037037037037
      001066 037037037037           691        OCT     037037037037
      001067 037037037037           692        OCT     037037037037
      001070 037037037037           693        OCT     037037037037
      001071 037037037037           694        OCT     037037037037
      001072 000077076013           695        OCT     000077076013
      001073 053074032057           696        OCT     053074032057
      001074 035055054060           697        OCT     035055054060
      001075 073052033061           698        OCT     073052033061
      001076 000001002003           699        OCT     000001002003
      001077 004005006007           700        OCT     004005006007
      001100 010011015056           701        OCT     010011015056
      001101 036075016017           702        OCT     036075016017
      001102 014021022023           703        OCT     014021022023
      001103 024025026027           704        OCT     024025026027
      001104 030031041042           705        OCT     030031041042
      001105 043044045046           706        OCT     043044045046
      001106 047050051062           707        OCT     047050051062
      001107 063064065066           708        OCT     063064065066
      001110 067070071012           709        OCT     067070071012
      001111 037034040072           710        OCT     037034040072
      001112 037000000000           711        OCT     037000000000
      001113 000000000000           712        OCT     000000000000
      001114 000000000000           713        OCT     000000000000
      001115 000000000000           714        OCT     000000000000
      001116 000000000000           715        OCT     000000000000
      001117 000000000000           716        OCT     000000000000
      001120 000000000037           717        OCT     000000000037

      001121 037040037037           718        OCT     037040037037
      001122 037037037037           719        OCT     037037037037
      001123 037037037037           720        OCT     037037037037
      001124 037037037037           721        OCT     037037037037
      001125 037037037037           722        OCT     037037037037
      001126 037037037037           723        OCT     037037037037
      001127 037037037037           724        OCT     037037037037
      001130 037037037037           725        OCT     037037037037
      001131 037037037037           726        OCT     037037037037
      001132 037037037037           727        OCT     037037037037
      001133 037037037037           728        OCT     037037037037
      001134 037037037037           729        OCT     037037037037
      001135 037037037037           730        OCT     037037037037
      001136 037037037037           731        OCT     037037037037
      001137 037037037037           732        OCT     037037037037
      001140 037037037037           733        OCT     037037037037
      001141 037037037037           734        OCT     037037037037
      001142 037037037037           735        OCT     037037037037
      001143 037037037037           736        OCT     037037037037
      001144 037037037037           737        OCT     037037037037
      001145 037037037037           738        OCT     037037037037
      001146 037037037037           739        OCT     037037037037
      001147 037037037037           740        OCT     037037037037
      001150 037037037037           741        OCT     037037037037
      001151 037037037037           742        OCT     037037037037
      001152 037037037037           743        OCT     037037037037
      001153 037037037037           744        OCT     037037037037
      001154 037037037037           745        OCT     037037037037
      001155 037037037037           746        OCT     037037037037
      001156 037037037037           747        OCT     037037037037
      001157 037037037037           748        OCT     037037037037
      001160 037037037037           749        OCT     037037037037
      001161 037037037037           750        OCT     037037037037
      001162 037037037037           751        OCT     037037037037
      001163 037037037037           752        OCT     037037037037
      001164 037037037037           753        OCT     037037037037
      001165 037037037037           754        OCT     037037037037

      001166 037037037037           755        OCT     037037037037
      001167 037037037037           756        OCT     037037037037
      001170 037037037037           757        OCT     037037037037
      001171 037037037037           758        OCT     037037037037
      001172 037037037037           759        OCT     037037037037
      001173 037037037037           760        OCT     037037037037
      001174 037037037037           761        OCT     037037037037
      001175 037037037037           762        OCT     037037037037
      001176 037037037037           763        OCT     037037037037
      001177 037037037037           764        OCT     037037037037
      001200 037037037037           765        OCT     037037037037
      001201 037037037037           766        OCT     037037037037
      001202 037037037037           767        OCT     037037037037
      001203 037037037037           768        OCT     037037037037
      001204 037037037037           769        OCT     037037037037
      001205 037037037037           770        OCT     037037037037
      001206 037037037037           771        OCT     037037037037
      001207 037037037037           772        OCT     037037037037
      001210 037037037037           773        OCT     037037037037
      001211 037037037037           774        OCT     037037037037
      001212 037037037037           775        OCT     037037037037
      001213 037037037037           776        OCT     037037037037
      001214 037037037037           777        OCT     037037037037
      001215 037037037037           778        OCT     037037037037
      001216 037037037037           779        OCT     037037037037
      001217 037037037037           780        OCT     037037037037
      001220 037037037037           781        OCT     037037037037
      001221 037037037037           782        OCT     037037037037
      001222 037037037037           783        OCT     037037037037
      001223 037037037037           784        OCT     037037037037
      001224 037037037037           785        OCT     037037037037
      001225 037037037037           786        OCT     037037037037
      001226 037037037037           787        OCT     037037037037
      001227 037037037037           788        OCT     037037037037
      001230 037037037037           789        OCT     037037037037
      001231 037037037037           790        OCT     037037037037
      001232 037037037037           791        OCT     037037037037

      001233 037037037037           792        OCT     037037037037
      001234 037037037037           793        OCT     037037037037
      001235 037037037037           794        OCT     037037037037
      001236 037037037037           795        OCT     037037037037
      001237 037037037037           796        OCT     037037037037
      001240 037037037037           797        OCT     037037037037
      001241 037037037037           798        OCT     037037037037
      001242 037037037037           799        OCT     037037037037
      001243 037037037037           800        OCT     037037037037
      001244 037037037037           801        OCT     037037037037
      001245 037037037037           802        OCT     037037037037
      001246 037037037037           803        OCT     037037037037
      001247 037037037037           804        OCT     037037037037
      001250 037037037037           805        OCT     037037037037
      001251 037037037037           806        OCT     037037037037
      001252 037037037037           807        OCT     037037037037
      001253 037037037037           808        OCT     037037037037
      001254 037037037037           809        OCT     037037037037
      001255 037037037037           810        OCT     037037037037
      001256 037037037037           811        OCT     037037037037
      001257 037037037037           812        OCT     037037037037
      001260 037037037037           813        OCT     037037037037
      001261 037037037037           814        OCT     037037037037

                                    816 *-------------------------------------------------------------*
                                    817 *
                                    818 * ALPHABETIC CLASS TEST TABLE
                                    819 *
                                    820 *-------------------------------------------------------------*
                        001262      821 C.ALF  NULL
      001262 037037037037           822        OCT     037037037037
      001263 037037037037           823        OCT     037037037037
      001264 037037037037           824        OCT     037037037037
      001265 037037037037           825        OCT     037037037037
      001266 037037037037           826        OCT     037037037037
      001267 037037037037           827        OCT     037037037037
      001270 037037037037           828        OCT     037037037037
      001271 037037037037           829        OCT     037037037037
      001272 000077076013           830        OCT     000077076013
      001273 053074032057           831        OCT     053074032057
      001274 035055054060           832        OCT     035055054060
      001275 073052033061           833        OCT     073052033061
      001276 037001002003           834        OCT     037001002003
      001277 004005006007           835        OCT     004005006007
      001300 010011015056           836        OCT     010011015056
      001301 036075016017           837        OCT     036075016017
      001302 014000000000           838        OCT     014000000000
      001303 000000000000           839        OCT     000000000000
      001304 000000000000           840        OCT     000000000000
      001305 000000000000           841        OCT     000000000000
      001306 000000000000           842        OCT     000000000000
      001307 000000000000           843        OCT     000000000000
      001310 000000000012           844        OCT     000000000012
      001311 037034040072           845        OCT     037034040072
      001312 037000000000           846        OCT     037000000000
      001313 000000000000           847        OCT     000000000000
      001314 000000000000           848        OCT     000000000000
      001315 000000000000           849        OCT     000000000000
      001316 000000000000           850        OCT     000000000000
      001317 000000000000           851        OCT     000000000000
      001320 000000000037           852        OCT     000000000037

      001321 037040037037           853        OCT     037040037037
      001322 037037037037           854        OCT     037037037037
      001323 037037037037           855        OCT     037037037037
      001324 037037037037           856        OCT     037037037037
      001325 037037037037           857        OCT     037037037037
      001326 037037037037           858        OCT     037037037037
      001327 037037037037           859        OCT     037037037037
      001330 037037037037           860        OCT     037037037037
      001331 037037037037           861        OCT     037037037037
      001332 037037037037           862        OCT     037037037037
      001333 037037037037           863        OCT     037037037037
      001334 037037037037           864        OCT     037037037037
      001335 037037037037           865        OCT     037037037037
      001336 037037037037           866        OCT     037037037037
      001337 037037037037           867        OCT     037037037037
      001340 037037037037           868        OCT     037037037037
      001341 037037037037           869        OCT     037037037037
      001342 037037037037           870        OCT     037037037037
      001343 037037037037           871        OCT     037037037037
      001344 037037037037           872        OCT     037037037037
      001345 037037037037           873        OCT     037037037037
      001346 037037037037           874        OCT     037037037037
      001347 037037037037           875        OCT     037037037037
      001350 037037037037           876        OCT     037037037037
      001351 037037037037           877        OCT     037037037037
      001352 037037037037           878        OCT     037037037037
      001353 037037037037           879        OCT     037037037037
      001354 037037037037           880        OCT     037037037037
      001355 037037037037           881        OCT     037037037037
      001356 037037037037           882        OCT     037037037037
      001357 037037037037           883        OCT     037037037037
      001360 037037037037           884        OCT     037037037037
      001361 037037037037           885        OCT     037037037037
      001362 037037037037           886        OCT     037037037037
      001363 037037037037           887        OCT     037037037037
      001364 037037037037           888        OCT     037037037037
      001365 037037037037           889        OCT     037037037037

      001366 037037037037           890        OCT     037037037037
      001367 037037037037           891        OCT     037037037037
      001370 037037037037           892        OCT     037037037037
      001371 037037037037           893        OCT     037037037037
      001372 037037037037           894        OCT     037037037037
      001373 037037037037           895        OCT     037037037037
      001374 037037037037           896        OCT     037037037037
      001375 037037037037           897        OCT     037037037037
      001376 037037037037           898        OCT     037037037037
      001377 037037037037           899        OCT     037037037037
      001400 037037037037           900        OCT     037037037037
      001401 037037037037           901        OCT     037037037037
      001402 037037037037           902        OCT     037037037037
      001403 037037037037           903        OCT     037037037037
      001404 037037037037           904        OCT     037037037037
      001405 037037037037           905        OCT     037037037037
      001406 037037037037           906        OCT     037037037037
      001407 037037037037           907        OCT     037037037037
      001410 037037037037           908        OCT     037037037037
      001411 037037037037           909        OCT     037037037037
      001412 037037037037           910        OCT     037037037037
      001413 037037037037           911        OCT     037037037037
      001414 037037037037           912        OCT     037037037037
      001415 037037037037           913        OCT     037037037037
      001416 037037037037           914        OCT     037037037037
      001417 037037037037           915        OCT     037037037037
      001420 037037037037           916        OCT     037037037037
      001421 037037037037           917        OCT     037037037037
      001422 037037037037           918        OCT     037037037037
      001423 037037037037           919        OCT     037037037037
      001424 037037037037           920        OCT     037037037037
      001425 037037037037           921        OCT     037037037037
      001426 037037037037           922        OCT     037037037037
      001427 037037037037           923        OCT     037037037037
      001430 037037037037           924        OCT     037037037037
      001431 037037037037           925        OCT     037037037037
      001432 037037037037           926        OCT     037037037037

      001433 037037037037           927        OCT     037037037037
      001434 037037037037           928        OCT     037037037037
      001435 037037037037           929        OCT     037037037037
      001436 037037037037           930        OCT     037037037037
      001437 037037037037           931        OCT     037037037037
      001440 037037037037           932        OCT     037037037037
      001441 037037037037           933        OCT     037037037037
      001442 037037037037           934        OCT     037037037037
      001443 037037037037           935        OCT     037037037037
      001444 037037037037           936        OCT     037037037037
      001445 037037037037           937        OCT     037037037037
      001446 037037037037           938        OCT     037037037037
      001447 037037037037           939        OCT     037037037037
      001450 037037037037           940        OCT     037037037037
      001451 037037037037           941        OCT     037037037037
      001452 037037037037           942        OCT     037037037037
      001453 037037037037           943        OCT     037037037037
      001454 037037037037           944        OCT     037037037037
      001455 037037037037           945        OCT     037037037037
      001456 037037037037           946        OCT     037037037037
      001457 037037037037           947        OCT     037037037037
      001460 037037037037           948        OCT     037037037037
      001461 037037037037           949        OCT     037037037037

                                    951 *------------------------------------------------------------*
                                    952 *                                                            *
                                    953 *           ASCII  TO  ASCII  TRANSLITERATION TABLE          *
                                    954 *                                                            *
                                    955 *------------------------------------------------------------*
                        001462      956 A.TO.A NULL
      001462 000001002003           957        OCT     000001002003
      001463 004005006007           958        OCT     004005006007
      001464 010011012013           959        OCT     010011012013
      001465 014015016017           960        OCT     014015016017
      001466 020021022023           961        OCT     020021022023
      001467 024025026027           962        OCT     024025026027
      001470 030031032033           963        OCT     030031032033
      001471 034035036037           964        OCT     034035036037
      001472 040041042043           965        OCT     040041042043
      001473 044045046047           966        OCT     044045046047
      001474 050051052053           967        OCT     050051052053
      001475 054055056057           968        OCT     054055056057
      001476 060061062063           969        OCT     060061062063
      001477 064065066067           970        OCT     064065066067
      001500 070071072073           971        OCT     070071072073
      001501 074075076077           972        OCT     074075076077
      001502 100101102103           973        OCT     100101102103
      001503 104105106107           974        OCT     104105106107
      001504 110111112113           975        OCT     110111112113
      001505 114115116117           976        OCT     114115116117
      001506 120121122123           977        OCT     120121122123
      001507 124125126127           978        OCT     124125126127
      001510 130131132133           979        OCT     130131132133
      001511 134135136137           980        OCT     134135136137
      001512 140141142143           981        OCT     140141142143
      001513 144145146147           982        OCT     144145146147
      001514 150151152153           983        OCT     150151152153
      001515 154155156157           984        OCT     154155156157
      001516 160161162163           985        OCT     160161162163
      001517 164165166167           986        OCT     164165166167
      001520 170171172173           987        OCT     170171172173

      001521 174175176177           988        OCT     174175176177
      001522 200201202203           989        OCT     200201202203
      001523 204205206207           990        OCT     204205206207
      001524 210211212213           991        OCT     210211212213
      001525 214215216217           992        OCT     214215216217
      001526 220221222223           993        OCT     220221222223
      001527 224225226227           994        OCT     224225226227
      001530 230231232233           995        OCT     230231232233
      001531 234235236237           996        OCT     234235236237
      001532 240241242243           997        OCT     240241242243
      001533 244245246247           998        OCT     244245246247
      001534 250251252253           999        OCT     250251252253
      001535 254255256257          1000        OCT     254255256257
      001536 260261262263          1001        OCT     260261262263
      001537 264265266267          1002        OCT     264265266267
      001540 270271272273          1003        OCT     270271272273
      001541 274275276277          1004        OCT     274275276277
      001542 300301302303          1005        OCT     300301302303
      001543 304305306307          1006        OCT     304305306307
      001544 310311312313          1007        OCT     310311312313
      001545 314315316317          1008        OCT     314315316317
      001546 320321322323          1009        OCT     320321322323
      001547 324325326327          1010        OCT     324325326327
      001550 330331332333          1011        OCT     330331332333
      001551 334335336337          1012        OCT     334335336337
      001552 340341342343          1013        OCT     340341342343
      001553 344345346347          1014        OCT     344345346347
      001554 350351352353          1015        OCT     350351352353
      001555 354355356357          1016        OCT     354355356357
      001556 360361362363          1017        OCT     360361362363
      001557 364365366367          1018        OCT     364365366367
      001560 370371372373          1019        OCT     370371372373
      001561 374375376377          1020        OCT     374375376377
      001562 400401402403          1021        OCT     400401402403
      001563 404405406407          1022        OCT     404405406407
      001564 410411412413          1023        OCT     410411412413
      001565 414415416417          1024        OCT     414415416417

      001566 420421422423          1025        OCT     420421422423
      001567 424425426427          1026        OCT     424425426427
      001570 430431432433          1027        OCT     430431432433
      001571 434435436437          1028        OCT     434435436437
      001572 440441442443          1029        OCT     440441442443
      001573 444445446447          1030        OCT     444445446447
      001574 450451452453          1031        OCT     450451452453
      001575 454455456457          1032        OCT     454455456457
      001576 460461462463          1033        OCT     460461462463
      001577 464465466467          1034        OCT     464465466467
      001600 470471472473          1035        OCT     470471472473
      001601 474475476477          1036        OCT     474475476477
      001602 500501502503          1037        OCT     500501502503
      001603 504505506507          1038        OCT     504505506507
      001604 510511512513          1039        OCT     510511512513
      001605 514515516517          1040        OCT     514515516517
      001606 520521522523          1041        OCT     520521522523
      001607 524525526527          1042        OCT     524525526527
      001610 530531532533          1043        OCT     530531532533
      001611 534535536537          1044        OCT     534535536537
      001612 540541542543          1045        OCT     540541542543
      001613 544545546547          1046        OCT     544545546547
      001614 550551552553          1047        OCT     550551552553
      001615 554555556557          1048        OCT     554555556557
      001616 560561562563          1049        OCT     560561562563
      001617 564565566567          1050        OCT     564565566567
      001620 570571572573          1051        OCT     570571572573
      001621 574575576577          1052        OCT     574575576577
      001622 600601602603          1053        OCT     600601602603
      001623 604605606607          1054        OCT     604605606607
      001624 610611612613          1055        OCT     610611612613
      001625 614615616617          1056        OCT     614615616617
      001626 620621622623          1057        OCT     620621622623
      001627 624625626627          1058        OCT     624625626627
      001630 630631632633          1059        OCT     630631632633
      001631 634635636637          1060        OCT     634635636637
      001632 640641642643          1061        OCT     640641642643

      001633 644645646647          1062        OCT     644645646647
      001634 650651652653          1063        OCT     650651652653
      001635 654655656657          1064        OCT     654655656657
      001636 660661662663          1065        OCT     660661662663
      001637 664665666667          1066        OCT     664665666667
      001640 670671672673          1067        OCT     670671672673
      001641 674675676677          1068        OCT     674675676677
      001642 700701702703          1069        OCT     700701702703
      001643 704705706707          1070        OCT     704705706707
      001644 710711712713          1071        OCT     710711712713
      001645 714715716717          1072        OCT     714715716717
      001646 720721722723          1073        OCT     720721722723
      001647 724725726727          1074        OCT     724725726727
      001650 730731732733          1075        OCT     730731732733
      001651 734735736737          1076        OCT     734735736737
      001652 740741742743          1077        OCT     740741742743
      001653 744745746747          1078        OCT     744745746747
      001654 750751752753          1079        OCT     750751752753
      001655 754755756757          1080        OCT     754755756757
      001656 760761762763          1081        OCT     760761762763
      001657 764765766767          1082        OCT     764765766767
      001660 770771772773          1083        OCT     770771772773
      001661 774775776777          1084        OCT     774775776777

                                   1086 *------------------------------------------------------------*
                                   1087 *                                                            *
                                   1088 *           ASCII  TO  EBCDIC  TRANSLITERATION TABLE         *
                                   1089 *                                                            *
                                   1090 *------------------------------------------------------------*
                        001662     1091        SYMDEF  (A.TO.E,T$ASCII_TO_EBCDIC)
                        001662     1092 A.TO.E NULL
      001662 000001002003          1093        OCT     000001002003
      001663 067055056057          1094        OCT     067055056057
      001664 026005045013          1095        OCT     026005045013
      001665 014015016017          1096        OCT     014015016017
      001666 020021022023          1097        OCT     020021022023
      001667 074075062046          1098        OCT     074075062046
      001670 030031077047          1099        OCT     030031077047
      001671 034035036037          1100        OCT     034035036037
      001672 100117177173          1101        OCT     100117177173
      001673 133154120175          1102        OCT     133154120175
      001674 115135134116          1103        OCT     115135134116
      001675 153140113141          1104        OCT     153140113141
      001676 360361362363          1105        OCT     360361362363
      001677 364365366367          1106        OCT     364365366367
      001700 370371172136          1107        OCT     370371172136
      001701 114176156157          1108        OCT     114176156157
      001702 174301302303          1109        OCT     174301302303
      001703 304305306307          1110        OCT     304305306307
      001704 310311321322          1111        OCT     310311321322
      001705 323324325326          1112        OCT     323324325326
      001706 327330331342          1113        OCT     327330331342
      001707 343344345346          1114        OCT     343344345346
      001710 347350351112          1115        OCT     347350351112
      001711 340132137155          1116        OCT     340132137155
      001712 171201202203          1117        OCT     171201202203
      001713 204205206207          1118        OCT     204205206207
      001714 210211221222          1119        OCT     210211221222
      001715 223224225226          1120        OCT     223224225226
      001716 227230231242          1121        OCT     227230231242
      001717 243244245246          1122        OCT     243244245246

      001720 247250251300          1123        OCT     247250251300
      001721 152320241007          1124        OCT     152320241007
      001722 040041042043          1125        OCT     040041042043
      001723 044025006027          1126        OCT     044025006027
      001724 050051052053          1127        OCT     050051052053
      001725 054011012033          1128        OCT     054011012033
      001726 060061032063          1129        OCT     060061032063
      001727 064065066010          1130        OCT     064065066010
      001730 070071072073          1131        OCT     070071072073
      001731 004024076341          1132        OCT     004024076341
      001732 101102103104          1133        OCT     101102103104
      001733 105106107110          1134        OCT     105106107110
      001734 111121122123          1135        OCT     111121122123
      001735 124125126127          1136        OCT     124125126127
      001736 130131142143          1137        OCT     130131142143
      001737 144145146147          1138        OCT     144145146147
      001740 150151160161          1139        OCT     150151160161
      001741 162163164165          1140        OCT     162163164165
      001742 166167170200          1141        OCT     166167170200
      001743 212213214215          1142        OCT     212213214215
      001744 216217220232          1143        OCT     216217220232
      001745 233234235236          1144        OCT     233234235236
      001746 237240252253          1145        OCT     237240252253
      001747 254255256257          1146        OCT     254255256257
      001750 260261262263          1147        OCT     260261262263
      001751 264265266267          1148        OCT     264265266267
      001752 270271272273          1149        OCT     270271272273
      001753 274275276277          1150        OCT     274275276277
      001754 312313314315          1151        OCT     312313314315
      001755 316317332333          1152        OCT     316317332333
      001756 334335336337          1153        OCT     334335336337
      001757 352353354355          1154        OCT     352353354355
      001760 356357372373          1155        OCT     356357372373
      001761 374375376377          1156        OCT     374375376377
      001762 134134134134          1157        OCT     134134134134
      001763 134134134134          1158        OCT     134134134134
      001764 134134134134          1159        OCT     134134134134

      001765 134134134134          1160        OCT     134134134134
      001766 134134134134          1161        OCT     134134134134
      001767 134134134134          1162        OCT     134134134134
      001770 134134134134          1163        OCT     134134134134
      001771 134134134134          1164        OCT     134134134134
      001772 134134134134          1165        OCT     134134134134
      001773 134134134134          1166        OCT     134134134134
      001774 134134134134          1167        OCT     134134134134
      001775 134134134134          1168        OCT     134134134134
      001776 134134134134          1169        OCT     134134134134
      001777 134134134134          1170        OCT     134134134134
      002000 134134134134          1171        OCT     134134134134
      002001 134134134134          1172        OCT     134134134134
      002002 134134134134          1173        OCT     134134134134
      002003 134134134134          1174        OCT     134134134134
      002004 134134134134          1175        OCT     134134134134
      002005 134134134134          1176        OCT     134134134134
      002006 134134134134          1177        OCT     134134134134
      002007 134134134134          1178        OCT     134134134134
      002010 134134134134          1179        OCT     134134134134
      002011 134134134134          1180        OCT     134134134134
      002012 134134134134          1181        OCT     134134134134
      002013 134134134134          1182        OCT     134134134134
      002014 134134134134          1183        OCT     134134134134
      002015 134134134134          1184        OCT     134134134134
      002016 134134134134          1185        OCT     134134134134
      002017 134134134134          1186        OCT     134134134134
      002020 134134134134          1187        OCT     134134134134
      002021 134134134134          1188        OCT     134134134134
      002022 134134134134          1189        OCT     134134134134
      002023 134134134134          1190        OCT     134134134134
      002024 134134134134          1191        OCT     134134134134
      002025 134134134134          1192        OCT     134134134134
      002026 134134134134          1193        OCT     134134134134
      002027 134134134134          1194        OCT     134134134134
      002030 134134134134          1195        OCT     134134134134
      002031 134134134134          1196        OCT     134134134134

      002032 134134134134          1197        OCT     134134134134
      002033 134134134134          1198        OCT     134134134134
      002034 134134134134          1199        OCT     134134134134
      002035 134134134134          1200        OCT     134134134134
      002036 134134134134          1201        OCT     134134134134
      002037 134134134134          1202        OCT     134134134134
      002040 134134134134          1203        OCT     134134134134
      002041 134134134134          1204        OCT     134134134134
      002042 134134134134          1205        OCT     134134134134
      002043 134134134134          1206        OCT     134134134134
      002044 134134134134          1207        OCT     134134134134
      002045 134134134134          1208        OCT     134134134134
      002046 134134134134          1209        OCT     134134134134
      002047 134134134134          1210        OCT     134134134134
      002050 134134134134          1211        OCT     134134134134
      002051 134134134134          1212        OCT     134134134134
      002052 134134134134          1213        OCT     134134134134
      002053 134134134134          1214        OCT     134134134134
      002054 134134134134          1215        OCT     134134134134
      002055 134134134134          1216        OCT     134134134134
      002056 134134134134          1217        OCT     134134134134
      002057 134134134134          1218        OCT     134134134134
      002060 134134134134          1219        OCT     134134134134
      002061 134134134134          1220        OCT     134134134134

                                   1222 *-------------------------------------------------------------*
                                   1223 *
                                   1224 * ASCII TO HBCD CONVERSION TABLE
                                   1225 *
                                   1226 *-------------------------------------------------------------*
                        002062     1227 U.ATOH NULL
      002062 036036036036          1228        OCT     036036036036
      002063 036036036036          1229        OCT     036036036036
      002064 036036036036          1230        OCT     036036036036
      002065 036036036036          1231        OCT     036036036036
      002066 036036036036          1232        OCT     036036036036
      002067 036036036036          1233        OCT     036036036036
      002070 036036036036          1234        OCT     036036036036
      002071 036036036036          1235        OCT     036036036036
      002072 015075055052          1236        OCT     015075055052
      002073 053035017012          1237        OCT     053035017012
      002074 074034054020          1238        OCT     074034054020
      002075 073040033061          1239        OCT     073040033061
      002076 000001002003          1240        OCT     000001002003
      002077 004005006007          1241        OCT     004005006007
      002100 010011014032          1242        OCT     010011014032
      002101 060013016037          1243        OCT     060013016037
      002102 072021022023          1244        OCT     072021022023
      002103 024025026027          1245        OCT     024025026027
      002104 030031041042          1246        OCT     030031041042
      002105 043044045046          1247        OCT     043044045046
      002106 047050051062          1248        OCT     047050051062
      002107 063064065066          1249        OCT     063064065066
      002110 067070071077          1250        OCT     067070071077
      002111 056057036076          1251        OCT     056057036076
      002112 036021022023          1252        OCT     036021022023
      002113 024025026027          1253        OCT     024025026027
      002114 030031041042          1254        OCT     030031041042
      002115 043044045046          1255        OCT     043044045046
      002116 047050051062          1256        OCT     047050051062
      002117 063064065066          1257        OCT     063064065066
      002120 067070071020          1258        OCT     067070071020

      002121 036040036036          1259        OCT     036040036036
      002122 036036036036          1260        OCT     036036036036
      002123 036036036036          1261        OCT     036036036036
      002124 036036036036          1262        OCT     036036036036
      002125 036036036036          1263        OCT     036036036036
      002126 036036036036          1264        OCT     036036036036
      002127 036036036036          1265        OCT     036036036036
      002130 036036036036          1266        OCT     036036036036
      002131 036036036036          1267        OCT     036036036036
      002132 036036036036          1268        OCT     036036036036
      002133 036036036036          1269        OCT     036036036036
      002134 036036036036          1270        OCT     036036036036
      002135 036036036036          1271        OCT     036036036036
      002136 036036036036          1272        OCT     036036036036
      002137 036036036036          1273        OCT     036036036036
      002140 036036036036          1274        OCT     036036036036
      002141 036036036036          1275        OCT     036036036036
      002142 036036036036          1276        OCT     036036036036
      002143 036036036036          1277        OCT     036036036036
      002144 036036036036          1278        OCT     036036036036
      002145 036036036036          1279        OCT     036036036036
      002146 036036036036          1280        OCT     036036036036
      002147 036036036036          1281        OCT     036036036036
      002150 036036036036          1282        OCT     036036036036
      002151 036036036036          1283        OCT     036036036036
      002152 036036036036          1284        OCT     036036036036
      002153 036036036036          1285        OCT     036036036036
      002154 036036036036          1286        OCT     036036036036
      002155 036036036036          1287        OCT     036036036036
      002156 036036036036          1288        OCT     036036036036
      002157 036036036036          1289        OCT     036036036036
      002160 036036036036          1290        OCT     036036036036
      002161 036036036036          1291        OCT     036036036036
      002162 036036036036          1292        OCT     036036036036
      002163 036036036036          1293        OCT     036036036036
      002164 036036036036          1294        OCT     036036036036
      002165 036036036036          1295        OCT     036036036036

      002166 036036036036          1296        OCT     036036036036
      002167 036036036036          1297        OCT     036036036036
      002170 036036036036          1298        OCT     036036036036
      002171 036036036036          1299        OCT     036036036036
      002172 036036036036          1300        OCT     036036036036
      002173 036036036036          1301        OCT     036036036036
      002174 036036036036          1302        OCT     036036036036
      002175 036036036036          1303        OCT     036036036036
      002176 036036036036          1304        OCT     036036036036
      002177 036036036036          1305        OCT     036036036036
      002200 036036036036          1306        OCT     036036036036
      002201 036036036036          1307        OCT     036036036036
      002202 036036036036          1308        OCT     036036036036
      002203 036036036036          1309        OCT     036036036036
      002204 036036036036          1310        OCT     036036036036
      002205 036036036036          1311        OCT     036036036036
      002206 036036036036          1312        OCT     036036036036
      002207 036036036036          1313        OCT     036036036036
      002210 036036036036          1314        OCT     036036036036
      002211 036036036036          1315        OCT     036036036036
      002212 036036036036          1316        OCT     036036036036
      002213 036036036036          1317        OCT     036036036036
      002214 036036036036          1318        OCT     036036036036
      002215 036036036036          1319        OCT     036036036036
      002216 036036036036          1320        OCT     036036036036
      002217 036036036036          1321        OCT     036036036036
      002220 036036036036          1322        OCT     036036036036
      002221 036036036036          1323        OCT     036036036036
      002222 036036036036          1324        OCT     036036036036
      002223 036036036036          1325        OCT     036036036036
      002224 036036036036          1326        OCT     036036036036
      002225 036036036036          1327        OCT     036036036036
      002226 036036036036          1328        OCT     036036036036
      002227 036036036036          1329        OCT     036036036036
      002230 036036036036          1330        OCT     036036036036
      002231 036036036036          1331        OCT     036036036036
      002232 036036036036          1332        OCT     036036036036

      002233 036036036036          1333        OCT     036036036036
      002234 036036036036          1334        OCT     036036036036
      002235 036036036036          1335        OCT     036036036036
      002236 036036036036          1336        OCT     036036036036
      002237 036036036036          1337        OCT     036036036036
      002240 036036036036          1338        OCT     036036036036
      002241 036036036036          1339        OCT     036036036036
      002242 036036036036          1340        OCT     036036036036
      002243 036036036036          1341        OCT     036036036036
      002244 036036036036          1342        OCT     036036036036
      002245 036036036036          1343        OCT     036036036036
      002246 036036036036          1344        OCT     036036036036
      002247 036036036036          1345        OCT     036036036036
      002250 036036036036          1346        OCT     036036036036
      002251 036036036036          1347        OCT     036036036036
      002252 036036036036          1348        OCT     036036036036
      002253 036036036036          1349        OCT     036036036036
      002254 036036036036          1350        OCT     036036036036
      002255 036036036036          1351        OCT     036036036036
      002256 036036036036          1352        OCT     036036036036
      002257 036036036036          1353        OCT     036036036036
      002260 036036036036          1354        OCT     036036036036
      002261 036036036036          1355        OCT     036036036036

                                   1357 *-------------------------------------------------------------*
                                   1358 *
                                   1359 * DECIMAL SIGN CLASS TEST TABLE                               *
                                   1360 *
                                   1361 *-------------------------------------------------------------*
                        002262     1362 C.SIN  NULL
      002262 037037037037          1363        OCT     037037037037
      002263 037037037037          1364        OCT     037037037037
      002264 037037037037          1365        OCT     037037037037
      002265 037037037037          1366        OCT     037037037037
      002266 037037037037          1367        OCT     037037037037
      002267 037037037037          1368        OCT     037037037037
      002270 037037037037          1369        OCT     037037037037
      002271 037037037037          1370        OCT     037037037037
      002272 020077076013          1371        OCT     020077076013
      002273 053074032057          1372        OCT     053074032057
      002274 037037037000          1373        OCT     037037037000                   + SIGN
      002275 037000037037          1374        OCT     037000037037                   - SIGN
      002276 037037037037          1375        OCT     037037037037
      002277 037037037037          1376        OCT     037037037037
      002300 037037037037          1377        OCT     037037037037
      002301 037037037037          1378        OCT     037037037037
      002302 037037037037          1379        OCT     037037037037
      002303 037037037037          1380        OCT     037037037037
      002304 037037037037          1381        OCT     037037037037
      002305 037037037037          1382        OCT     037037037037
      002306 037037037037          1383        OCT     037037037037
      002307 037037037037          1384        OCT     037037037037
      002310 037037037037          1385        OCT     037037037037
      002311 037037037037          1386        OCT     037037037037
      002312 037037037037          1387        OCT     037037037037
      002313 037037037037          1388        OCT     037037037037
      002314 037037037037          1389        OCT     037037037037
      002315 037037037037          1390        OCT     037037037037
      002316 047050051062          1391        OCT     047050051062
      002317 063064065066          1392        OCT     063064065066
      002320 067070071037          1393        OCT     067070071037

      002321 037040037037          1394        OCT     037040037037
      002322 037037037037          1395        OCT     037037037037
      002323 037037037037          1396        OCT     037037037037
      002324 037037037037          1397        OCT     037037037037
      002325 037037037037          1398        OCT     037037037037
      002326 037037037037          1399        OCT     037037037037
      002327 037037037037          1400        OCT     037037037037
      002330 037037037037          1401        OCT     037037037037
      002331 037037037037          1402        OCT     037037037037
      002332 037037037037          1403        OCT     037037037037
      002333 037037037037          1404        OCT     037037037037
      002334 037037037037          1405        OCT     037037037037
      002335 037037037037          1406        OCT     037037037037
      002336 037037037037          1407        OCT     037037037037
      002337 037037037037          1408        OCT     037037037037
      002340 037037037037          1409        OCT     037037037037
      002341 037037037037          1410        OCT     037037037037
      002342 037037037037          1411        OCT     037037037037
      002343 037037037037          1412        OCT     037037037037
      002344 037037037037          1413        OCT     037037037037
      002345 037037037037          1414        OCT     037037037037
      002346 037037037037          1415        OCT     037037037037
      002347 037037037037          1416        OCT     037037037037
      002350 037037037037          1417        OCT     037037037037
      002351 037037037037          1418        OCT     037037037037
      002352 037037037037          1419        OCT     037037037037
      002353 037037037037          1420        OCT     037037037037
      002354 037037037037          1421        OCT     037037037037
      002355 037037037037          1422        OCT     037037037037
      002356 037037037037          1423        OCT     037037037037
      002357 037037037037          1424        OCT     037037037037
      002360 037037037037          1425        OCT     037037037037
      002361 037037037037          1426        OCT     037037037037
      002362 037037037037          1427        OCT     037037037037
      002363 037037037037          1428        OCT     037037037037
      002364 037037037037          1429        OCT     037037037037
      002365 037037037037          1430        OCT     037037037037

      002366 037037037037          1431        OCT     037037037037
      002367 037037037037          1432        OCT     037037037037
      002370 037037037037          1433        OCT     037037037037
      002371 037037037037          1434        OCT     037037037037
      002372 037037037037          1435        OCT     037037037037
      002373 037037037037          1436        OCT     037037037037
      002374 037037037037          1437        OCT     037037037037
      002375 037037037037          1438        OCT     037037037037
      002376 037037037037          1439        OCT     037037037037
      002377 037037037037          1440        OCT     037037037037
      002400 037037037037          1441        OCT     037037037037
      002401 037037037037          1442        OCT     037037037037
      002402 037037037037          1443        OCT     037037037037
      002403 037037037037          1444        OCT     037037037037
      002404 037037037037          1445        OCT     037037037037
      002405 037037037037          1446        OCT     037037037037
      002406 037037037037          1447        OCT     037037037037
      002407 037037037037          1448        OCT     037037037037
      002410 037037037037          1449        OCT     037037037037
      002411 037037037037          1450        OCT     037037037037
      002412 037037037037          1451        OCT     037037037037
      002413 037037037037          1452        OCT     037037037037
      002414 037037037037          1453        OCT     037037037037
      002415 037037037037          1454        OCT     037037037037
      002416 037037037037          1455        OCT     037037037037
      002417 037037037037          1456        OCT     037037037037
      002420 037037037037          1457        OCT     037037037037
      002421 037037037037          1458        OCT     037037037037
      002422 037037037037          1459        OCT     037037037037
      002423 037037037037          1460        OCT     037037037037
      002424 037037037037          1461        OCT     037037037037
      002425 037037037037          1462        OCT     037037037037
      002426 037037037037          1463        OCT     037037037037
      002427 037037037037          1464        OCT     037037037037
      002430 037037037037          1465        OCT     037037037037
      002431 037037037037          1466        OCT     037037037037
      002432 037037037037          1467        OCT     037037037037

      002433 037037037037          1468        OCT     037037037037
      002434 037037037037          1469        OCT     037037037037
      002435 037037037037          1470        OCT     037037037037
      002436 037037037037          1471        OCT     037037037037
      002437 037037037037          1472        OCT     037037037037
      002440 037037037037          1473        OCT     037037037037
      002441 037037037037          1474        OCT     037037037037
      002442 037037037037          1475        OCT     037037037037
      002443 037037037037          1476        OCT     037037037037
      002444 037037037037          1477        OCT     037037037037
      002445 037037037037          1478        OCT     037037037037
      002446 037037037037          1479        OCT     037037037037
      002447 037037037037          1480        OCT     037037037037
      002450 037037037037          1481        OCT     037037037037
      002451 037037037037          1482        OCT     037037037037
      002452 037037037037          1483        OCT     037037037037
      002453 037037037037          1484        OCT     037037037037
      002454 037037037037          1485        OCT     037037037037
      002455 037037037037          1486        OCT     037037037037
      002456 037037037037          1487        OCT     037037037037
      002457 037037037037          1488        OCT     037037037037
      002460 037037037037          1489        OCT     037037037037
      002461 037037037037          1490        OCT     037037037037

                                   1492 *-------------------------------------------------------------*
                                   1493 *
                                   1494 * OVERPUNCHED SIGN CLASS TEST TABLE
                                   1495 *
                                   1496 *-------------------------------------------------------------*
                        002462     1497 C.OSIN NULL
      002462 037037037037          1498        OCT     037037037037
      002463 037037037037          1499        OCT     037037037037
      002464 037037037037          1500        OCT     037037037037
      002465 037037037037          1501        OCT     037037037037
      002466 037037037037          1502        OCT     037037037037
      002467 037037037037          1503        OCT     037037037037
      002470 037037037037          1504        OCT     037037037037
      002471 037037037037          1505        OCT     037037037037
      002472 000077076013          1506        OCT     000077076013                   SPACE
      002473 053074032057          1507        OCT     053074032057
      002474 035055054000          1508        OCT     035055054000                   + SIGN
      002475 037000037037          1509        OCT     037000037037                   - SIGN
      002476 000000000000          1510        OCT     000000000000                   0-9    /*#29679*/
      002477 000000000000          1511        OCT     000000000000
      002500 000000037037          1512        OCT     000000037037
      002501 037037037037          1513        OCT     037037037037
      002502 014000000000          1514        OCT     014000000000                   A-R
      002503 000000000000          1515        OCT     000000000000
      002504 000000000000          1516        OCT     000000000000
      002505 000000000000          1517        OCT     000000000000
      002506 000000000037          1518        OCT     000000000037
      002507 037037037037          1519        OCT     037037037037
      002510 037037037037          1520        OCT     037037037037
      002511 037037000037          1521        OCT     037037000037                  CARET
      002512 037021022023          1522        OCT     037021022023
      002513 024025026027          1523        OCT     024025026027
      002514 030031041042          1524        OCT     030031041042
      002515 043044045046          1525        OCT     043044045046
      002516 047050051062          1526        OCT     047050051062
      002517 063064065066          1527        OCT     063064065066
      002520 067070071000          1528        OCT     067070071000                  LEFT BRACE

      002521 037000037037          1529        OCT     037000037037                  RIGHT BRACE
      002522 037037037037          1530        OCT     037037037037
      002523 037037037037          1531        OCT     037037037037
      002524 037037037037          1532        OCT     037037037037
      002525 037037037037          1533        OCT     037037037037
      002526 037037037037          1534        OCT     037037037037
      002527 037037037037          1535        OCT     037037037037
      002530 037037037037          1536        OCT     037037037037
      002531 037037037037          1537        OCT     037037037037
      002532 037037037037          1538        OCT     037037037037
      002533 037037037037          1539        OCT     037037037037
      002534 037037037037          1540        OCT     037037037037
      002535 037037037037          1541        OCT     037037037037
      002536 037037037037          1542        OCT     037037037037
      002537 037037037037          1543        OCT     037037037037
      002540 037037037037          1544        OCT     037037037037
      002541 037037037037          1545        OCT     037037037037
      002542 037037037037          1546        OCT     037037037037
      002543 037037037037          1547        OCT     037037037037
      002544 037037037037          1548        OCT     037037037037
      002545 037037037037          1549        OCT     037037037037
      002546 037037037037          1550        OCT     037037037037
      002547 037037037037          1551        OCT     037037037037
      002550 037037037037          1552        OCT     037037037037
      002551 037037037037          1553        OCT     037037037037
      002552 037037037037          1554        OCT     037037037037
      002553 037037037037          1555        OCT     037037037037
      002554 037037037037          1556        OCT     037037037037
      002555 037037037037          1557        OCT     037037037037
      002556 037037037037          1558        OCT     037037037037
      002557 037037037037          1559        OCT     037037037037
      002560 037037037037          1560        OCT     037037037037
      002561 037037037037          1561        OCT     037037037037
      002562 037037037037          1562        OCT     037037037037
      002563 037037037037          1563        OCT     037037037037
      002564 037037037037          1564        OCT     037037037037
      002565 037037037037          1565        OCT     037037037037

      002566 037037037037          1566        OCT     037037037037
      002567 037037037037          1567        OCT     037037037037
      002570 037037037037          1568        OCT     037037037037
      002571 037037037037          1569        OCT     037037037037
      002572 037037037037          1570        OCT     037037037037
      002573 037037037037          1571        OCT     037037037037
      002574 037037037037          1572        OCT     037037037037
      002575 037037037037          1573        OCT     037037037037
      002576 037037037037          1574        OCT     037037037037
      002577 037037037037          1575        OCT     037037037037
      002600 037037037037          1576        OCT     037037037037
      002601 037037037037          1577        OCT     037037037037
      002602 037037037037          1578        OCT     037037037037
      002603 037037037037          1579        OCT     037037037037
      002604 037037037037          1580        OCT     037037037037
      002605 037037037037          1581        OCT     037037037037
      002606 037037037037          1582        OCT     037037037037
      002607 037037037037          1583        OCT     037037037037
      002610 037037037037          1584        OCT     037037037037
      002611 037037037037          1585        OCT     037037037037
      002612 037037037037          1586        OCT     037037037037
      002613 037037037037          1587        OCT     037037037037
      002614 037037037037          1588        OCT     037037037037
      002615 037037037037          1589        OCT     037037037037
      002616 037037037037          1590        OCT     037037037037
      002617 037037037037          1591        OCT     037037037037
      002620 037037037037          1592        OCT     037037037037
      002621 037037037037          1593        OCT     037037037037
      002622 037037037037          1594        OCT     037037037037
      002623 037037037037          1595        OCT     037037037037
      002624 037037037037          1596        OCT     037037037037
      002625 037037037037          1597        OCT     037037037037
      002626 037037037037          1598        OCT     037037037037
      002627 037037037037          1599        OCT     037037037037
      002630 037037037037          1600        OCT     037037037037
      002631 037037037037          1601        OCT     037037037037
      002632 037037037037          1602        OCT     037037037037

      002633 037037037037          1603        OCT     037037037037
      002634 037037037037          1604        OCT     037037037037
      002635 037037037037          1605        OCT     037037037037
      002636 037037037037          1606        OCT     037037037037
      002637 037037037037          1607        OCT     037037037037
      002640 037037037037          1608        OCT     037037037037
      002641 037037037037          1609        OCT     037037037037
      002642 037037037037          1610        OCT     037037037037
      002643 037037037037          1611        OCT     037037037037
      002644 037037037037          1612        OCT     037037037037
      002645 037037037037          1613        OCT     037037037037
      002646 037037037037          1614        OCT     037037037037
      002647 037037037037          1615        OCT     037037037037
      002650 037037037037          1616        OCT     037037037037
      002651 037037037037          1617        OCT     037037037037
      002652 037037037037          1618        OCT     037037037037
      002653 037037037037          1619        OCT     037037037037
      002654 037037037037          1620        OCT     037037037037
      002655 037037037037          1621        OCT     037037037037
      002656 037037037037          1622        OCT     037037037037
      002657 037037037037          1623        OCT     037037037037
      002660 037037037037          1624        OCT     037037037037
      002661 037037037037          1625        OCT     037037037037

                                   1627 *---------------------------------------------------------------*
                                   1628 *                                                               *
                                   1629 * TCT MASK FOR THE SEARCH PRIMITIVE (SEE UNSTRING STATEMENT )   *
                                   1630 *                                                               *
                                   1631 *---------------------------------------------------------------*
                        002662     1632 .TCT.  NULL
      002662 000177777777          1633        OCT     000177777777

                                   1635 *---------------------------------------------------------------*
                                   1636 *
                                   1637 * GBCD TO ASCII CONVERSION TABLE
                                   1638 *
                                   1639 *---------------------------------------------------------------*
                        002663     1640        SYMDEF  (G.TO.A,T$GBCD_TO_ASCII)
                        002663     1641 G.TO.A NULL
      002663 060061062063          1642        OCT     060061062063    0123
      002664 064065066067          1643        OCT     064065066067    4567
      002665 070071133043          1644        OCT     070071133043    89[#
      002666 100072076077          1645        OCT     100072076077    @:>?
      002667 040101102103          1646        OCT     040101102103    SPACE ABC
      002670 104105106107          1647        OCT     104105106107    DEFG
      002671 110111046056          1648        OCT     110111046056    HI&.
      002672 135050074134          1649        OCT     135050074134    ](<\
      002673 136112113114          1650        OCT     136112113114    ^JKL
      002674 115116117120          1651        OCT     115116117120    MNOP
      002675 121122055044          1652        OCT     121122055044    QR-$
      002676 052051073047          1653        OCT     052051073047    *);'
      002677 053057123124          1654        OCT     053057123124    +/ST
      002700 125126127130          1655        OCT     125126127130    UVWX
      002701 131132137054          1656        OCT     131132137054    YZ_,
      002702 045075042041          1657        OCT     045075042041    %=" EXCLAMATION POINT

                                   1659 *---------------------------------------------------------------*
                                   1660 *
                                   1661 * HBCD TO ASCII CONVERSION TABLE
                                   1662 *
                                   1663 *---------------------------------------------------------------*
                        002703     1664 H.TO.A NULL
      002703 060061062063          1665        OCT     060061062063    0123
      002704 064065066067          1666        OCT     064065066067    4567
      002705 070071047075          1667        OCT     070071047075    89'=
      002706 072040076046          1668        OCT     072040076046    : SPACE >&
      002707 053101102103          1669        OCT     053101102103    +ABC
      002710 104105106107          1670        OCT     104105106107    DEFG
      002711 110111073056          1671        OCT     110111073056    HI;.
      002712 051045136077          1672        OCT     051045136077    )%^?
      002713 055112113114          1673        OCT     055112113114    -JKL
      002714 115116117120          1674        OCT     115116117120    MNOP
      002715 121122043044          1675        OCT     121122043044    QR#$
      002716 052042134135          1676        OCT     052042134135    *"\]
      002717 074057123124          1677        OCT     074057123124    </ST
      002720 125126127130          1678        OCT     125126127130    UVWX
      002721 131132100054          1679        OCT     131132100054    YZ@,
      002722 050041137133          1680        OCT     050041137133    ( EXCLAMATION POINT _0

                                   1682 *---------------------------------------------------------------*
                                   1683 *
                                   1684 * EBCDIC TO ASCII CONVERSION TABLE
                                   1685 *
                                   1686 *---------------------------------------------------------------*
                        002723     1687        SYMDEF  (E.TO.A,T$EBCDIC_TO_ASCII)
                        002723     1688 E.TO.A NULL
      002723 000001002003          1689        OCT     000001002003    \\\\
      002724 234011206177          1690        OCT     234011206177    \\\\
      002725 227215216013          1691        OCT     227215216013    \\\\
      002726 014015016017          1692        OCT     014015016017    \\\\
      002727 020021022023          1693        OCT     020021022023    \\\\
      002730 235205010207          1694        OCT     235205010207    \\\\
      002731 030031222217          1695        OCT     030031222217    \\\\
      002732 034035036037          1696        OCT     034035036037    \\\\
      002733 200201202203          1697        OCT     200201202203    \\\\
      002734 204012027033          1698        OCT     204012027033    \\\\
      002735 210211212213          1699        OCT     210211212213    \\\\
      002736 214005006007          1700        OCT     214005006007    \\\\
      002737 220221026223          1701        OCT     220221026223    \\\\
      002740 224225226004          1702        OCT     224225226004    \\\\
      002741 230231232233          1703        OCT     230231232233    \\\\
      002742 024025236032          1704        OCT     024025236032    \\\\
      002743 040240241242          1705        OCT     040240241242    SPACE \\\
      002744 243244245246          1706        OCT     243244245246    \\\\
      002745 247250133056          1707        OCT     247250133056    \\[.
      002746 074050053041          1708        OCT     074050053041    <(+ EXCLAMATION POINT
      002747 046251252253          1709        OCT     046251252253    &\\\
      002750 254255256257          1710        OCT     254255256257    \\\\
      002751 260261135044          1711        OCT     260261135044    \\]$
      002752 052051073136          1712        OCT     052051073136    *);^
      002753 055057262263          1713        OCT     055057262263    -/\\
      002754 264265266267          1714        OCT     264265266267    \\\\
      002755 270271174054          1715        OCT     270271174054    \\\\
      002756 045137076077          1716        OCT     045137076077    %_>?
      002757 272273274275          1717        OCT     272273274275    \\\\
      002760 276277300301          1718        OCT     276277300301    \\\\

      002761 302140072043          1719        OCT     302140072043    \\:#
      002762 100047075042          1720        OCT     100047075042    @'="
      002763 303141142143          1721        OCT     303141142143    \ABC
      002764 144145146147          1722        OCT     144145146147    DEFG
      002765 150151304305          1723        OCT     150151304305    HI\\
      002766 306307310311          1724        OCT     306307310311    \\\\
      002767 312152153154          1725        OCT     312152153154    \JKL
      002770 155156157160          1726        OCT     155156157160    MNOP
      002771 161162313314          1727        OCT     161162313314    QR\\
      002772 315316317320          1728        OCT     315316317320    \\\\
      002773 321176163164          1729        OCT     321176163164    \\ST
      002774 165166167170          1730        OCT     165166167170    UVWX
      002775 171172322323          1731        OCT     171172322323    YZ\\
      002776 324325326327          1732        OCT     324325326327    \\\\
      002777 330331332333          1733        OCT     330331332333    \\\\
      003000 334335336337          1734        OCT     334335336337    \\\\
      003001 340341342343          1735        OCT     340341342343    \\\\
      003002 344345346347          1736        OCT     344345346347    \\\\
      003003 173101102103          1737        OCT     173101102103    LEFT BRACE ABC
      003004 104105106107          1738        OCT     104105106107    DEFG
      003005 110111350351          1739        OCT     110111350351    HI\\
      003006 352353354355          1740        OCT     352353354355    \\\\
      003007 175112113114          1741        OCT     175112113114    RIGHT BRACE JKL
      003010 115116117120          1742        OCT     115116117120    MNOP
      003011 121122356357          1743        OCT     121122356357    QR\\
      003012 360361362363          1744        OCT     360361362363    \\\\
      003013 134237123124          1745        OCT     134237123124    \\ST
      003014 125126127130          1746        OCT     125126127130    UVWX
      003015 131132364365          1747        OCT     131132364365    YZ\\
      003016 366367370371          1748        OCT     366367370371    \\\\
      003017 060061062063          1749        OCT     060061062063    0123
      003020 064065066067          1750        OCT     064065066067    4567
      003021 070071372373          1751        OCT     070071372373    89\\
      003022 374375376377          1752        OCT     374375376377    \\\\
                        003023     1753        DUP     1,64
      003023 134134134134          1754        OCT     134134134134    \\\\
      003024 134134134134                      OCT     134134134134    \\\\

      003025 134134134134                      OCT     134134134134    \\\\
      003026 134134134134                      OCT     134134134134    \\\\
      003027 134134134134                      OCT     134134134134    \\\\
      003030 134134134134                      OCT     134134134134    \\\\
      003031 134134134134                      OCT     134134134134    \\\\
      003032 134134134134                      OCT     134134134134    \\\\
      003033 134134134134                      OCT     134134134134    \\\\
      003034 134134134134                      OCT     134134134134    \\\\
      003035 134134134134                      OCT     134134134134    \\\\
      003036 134134134134                      OCT     134134134134    \\\\
      003037 134134134134                      OCT     134134134134    \\\\
      003040 134134134134                      OCT     134134134134    \\\\
      003041 134134134134                      OCT     134134134134    \\\\
      003042 134134134134                      OCT     134134134134    \\\\
      003043 134134134134                      OCT     134134134134    \\\\
      003044 134134134134                      OCT     134134134134    \\\\
      003045 134134134134                      OCT     134134134134    \\\\
      003046 134134134134                      OCT     134134134134    \\\\
      003047 134134134134                      OCT     134134134134    \\\\
      003050 134134134134                      OCT     134134134134    \\\\
      003051 134134134134                      OCT     134134134134    \\\\
      003052 134134134134                      OCT     134134134134    \\\\
      003053 134134134134                      OCT     134134134134    \\\\
      003054 134134134134                      OCT     134134134134    \\\\
      003055 134134134134                      OCT     134134134134    \\\\
      003056 134134134134                      OCT     134134134134    \\\\
      003057 134134134134                      OCT     134134134134    \\\\
      003060 134134134134                      OCT     134134134134    \\\\
      003061 134134134134                      OCT     134134134134    \\\\
      003062 134134134134                      OCT     134134134134    \\\\
      003063 134134134134                      OCT     134134134134    \\\\
      003064 134134134134                      OCT     134134134134    \\\\
      003065 134134134134                      OCT     134134134134    \\\\
      003066 134134134134                      OCT     134134134134    \\\\
      003067 134134134134                      OCT     134134134134    \\\\
      003070 134134134134                      OCT     134134134134    \\\\
      003071 134134134134                      OCT     134134134134    \\\\

      003072 134134134134                      OCT     134134134134    \\\\
      003073 134134134134                      OCT     134134134134    \\\\
      003074 134134134134                      OCT     134134134134    \\\\
      003075 134134134134                      OCT     134134134134    \\\\
      003076 134134134134                      OCT     134134134134    \\\\
      003077 134134134134                      OCT     134134134134    \\\\
      003100 134134134134                      OCT     134134134134    \\\\
      003101 134134134134                      OCT     134134134134    \\\\
      003102 134134134134                      OCT     134134134134    \\\\
      003103 134134134134                      OCT     134134134134    \\\\
      003104 134134134134                      OCT     134134134134    \\\\
      003105 134134134134                      OCT     134134134134    \\\\
      003106 134134134134                      OCT     134134134134    \\\\
      003107 134134134134                      OCT     134134134134    \\\\
      003110 134134134134                      OCT     134134134134    \\\\
      003111 134134134134                      OCT     134134134134    \\\\
      003112 134134134134                      OCT     134134134134    \\\\
      003113 134134134134                      OCT     134134134134    \\\\
      003114 134134134134                      OCT     134134134134    \\\\
      003115 134134134134                      OCT     134134134134    \\\\
      003116 134134134134                      OCT     134134134134    \\\\
      003117 134134134134                      OCT     134134134134    \\\\
      003120 134134134134                      OCT     134134134134    \\\\
      003121 134134134134                      OCT     134134134134    \\\\
      003122 134134134134                      OCT     134134134134    \\\\

                        003123     1756 .X8OC  NULL       OCCURS DEPENDING CHECK ERROR
      003123 000017 4500 00 010NN  1757        STZ     X1
      003124 000017 4410 00 010NN  1758        SXL1    X1              SAVE X1 FOR DELTA TRACE
      003125 000004 7570 00 010NN  1759        STAQ    SAVEAQ
      003126 000000 7010 00 020NN  1760        TSX1    X8OC
      003127 000000 0110 07        1761        NOP     0,DL
      003130 000004 2370 00 010NN  1762        LDAQ    SAVEAQ
      003131 000017 7210 00 010NN  1763        LXL1    X1
      003132 000000 7100 11        1764        TRA     0,1             ALTRETURN
                                   1765
                        003133     1766 .X8SC  NULL       SUBSCRIPT CHECK ERROR -- ISSUE DIAGNOSTIC
      003133 000017 4500 00 010NN  1767        STZ     X1
      003134 000017 4410 00 010NN  1768        SXL1    X1
      003135 000004 7570 00 010NN  1769        STAQ    SAVEAQ
      003136 000000 7010 00 020NN  1770        TSX1    X8SC
      003137 000000 0110 07        1771        NOP     0,DL
      003140 000004 2370 00 010NN  1772        LDAQ    SAVEAQ
      003141 000017 7210 00 010NN  1773        LXL1    X1
      003142 000000 7100 11        1774        TRA     0,1            ALTRETURN
                                   1775
                        003143     1776 .X9MN  NULL       ENTER COBOL MAIN PROGRAM
      003143 000017 7410 00 010NN  1777        STX1    X1
      003144 000001 2210 11        1778        LDX1    1,1            GET OPTIONS FROM SECOND NOP
      003145 000002 7410 00 010NN  1779        STX1    OPTION
      003146 000000 6314 00 010NN  1780        EPPR1   PZERO
      003147 000000 7000 00 020NN  1781        TSX0    MSTAT
      003150 000052 000000         1782        ZERO    42,0
      003151 000000 7010 00 020NN  1783        TSX1    X9MN
      003152 000000 0110 07        1784        NOP     0,DL
      003153 000002 6314 00 010NN  1785        EPPR1   OPTION
      003154 000003 4514 00 010NN  1786        STP1    X
      003155 000001 6314 00 010NN  1787        EPPR1   PONE
      003156 000003 6304 00 010NN  1788        EPPR0   X
      003157 000000 7010 00 020NN  1789        TSX1    X8OB
      003160 000000 0110 07        1790        NOP     0,DL
      003161 000017 2210 00 010NN  1791        LDX1    X1
      003162 000001 7100 11        1792        TRA     1,1            RETURN TO GENERATED CODE

                                   1793
                        003163     1794 .X8SB  NULL            ENTER USER SUBROUTINE
      003163 000017 7410 00 010NN  1795        STX1    X1
      003164 000000 7010 00 020NN  1796        TSX1    X8SB
      003165 000000 0110 07        1797        NOP     0,DL
      003166 000017 2210 00 010NN  1798        LDX1    X1
      003167 000001 7100 11        1799        TRA     1,1     RETURNS TO GENERATED CODE
                                   1800
                        003170     1801 .X8CL  NULL
      003170 000017 7410 00 010NN  1802        STX1    X1      SAVE X1 FOR X9CL$CALL
      003171 000000 7100 00 020NN  1803        TRA     X8CL    RETURNS TO GENERATED CODE
                                   1804
                                   1805
                                   1806 *
                        003172     1807 .CDAT4 NULL
      003172 000215 4554 00 010NN  1808        STP5    PR5
      003173 000216 7410 00 010NN  1809        STX1    XR1
      003174 000000 2351 00        1810        LDA     0,,0
      003175 000211 7550 00 010NN  1811        STA     ARG.1
      003176 100001 2351 00        1812        LDA     1,,1
      003177 000213 7550 00 010NN  1813        STA     ARG.2+1
      003200 000217 6304 00 010NN  1814        EPPR0   ARGLST
      003201 000214 6314 00 010NN  1815        EPPR1   NUMARG
      003202 000000 7010 00 020NN  1816        TSX1    X8AD.T
      003203 000000 0110 07        1817        NOP     0,DL
      003204 000216 2210 00 010NN  1818        LDX1    XR1
      003205 000001 7100 11        1819        TRA     1,1
                                   1820 *
                        003206     1821 .CDAY4 NULL
      003206 000215 4554 00 010NN  1822        STP5    PR5
      003207 000216 7410 00 010NN  1823        STX1    XR1
      003210 000000 2351 00        1824        LDA     0,,0
      003211 000211 7550 00 010NN  1825        STA     ARG.1
      003212 100001 2351 00        1826        LDA     1,,1
      003213 000213 7550 00 010NN  1827        STA     ARG.2+1
      003214 000217 6304 00 010NN  1828        EPPR0   ARGLST
      003215 000214 6314 00 010NN  1829        EPPR1   NUMARG

      003216 000000 7010 00 020NN  1830        TSX1    X8AD.Y
      003217 000000 0110 07        1831        NOP     0,DL
      003220 000216 2210 00 010NN  1832        LDX1    XR1
      003221 000001 7100 11        1833        TRA     1,1

                                   1835 *----------------------------------------------------------------*
                                   1836 *
                                   1837 *                      STORAGE ALLOCATION
                                   1838 *
                                   1839 *----------------------------------------------------------------*
                                   1840
                        000000     1841        SECT    .X9OS.,DATA
                                   1842
                        000000     1843        EIGHT
      000000 000000000000          1844 PZERO  OCT     0
      000001 000001000000          1845 PONE   VFD     18/1,18/0
      000002 000000000000          1846 OPTION OCT     0
                        000003     1847 X      BSS     1
                        000004     1848        EVEN
                        000004     1849 SAVEAQ BSS     2
                        000006     1850        EVEN
                        000006     1851        SYMDEF  (XITBLK,X9OS$EXIT_BLOCK)
                        000006     1852 XITBLK BSS     128             64 2-WORD ENTRIES
      000206 000000006014          1853        OCT     6014            NO PREVIOUS BLOCK, NOW OR EVER
      000207 000000006014          1854        OCT     6014            NO NEXT BLOCK YET
                        000210     1855        SYMDEF  (XITINX,X9OS$EXIT_INDEX)
                        000210     1856 XITINX BSS     1
                                   1857
                                   1858 *
                        000211     1859 ARG.1  BSS     1
      000212 000000000001          1860 ARG.2  DEC     1
                        000213     1861        BSS     1
      000214 000002000000          1862 NUMARG VFD     18/2,18/0
                        000215     1863 PR5    BSS     1
                        000216     1864 XR1    BSS     1
      000217 000211000000   01000  1865 ARGLST PTR     ,ARG.1
      000220 000212000000   01000  1866        PTR     ,ARG.2
                                   1867 *
                        000000     1868        CSECT   LIBCOM,DATA
                        000000     1869        BSS     15
                        000017     1870 X1     BSS     1
                        000020     1871        BSS     4

                                   1872
                                   1873        END
 GMAP6 VERSION/ASSEMBLY DATES  JNPA NO TTL/2(_00]      JNPB NO TTL/2(_00]      JNPC NO TTL/2(_00]
 THERE WERE    NO  WARNING FLAGS IN THE ABOVE ASSEMBLY

                             OCTAL    SYMBOL   * KIND *      REFERENCES BY ALTER NO. AN
  1462   A.TO.A   REL   .X9OS    956  956
  1662   A.TO.E   REL   .X9OS   1092 1091  1092
   211   ARG.1    REL   .X9OS.  1859 1811W 1825W 1859  1865
   212   ARG.2    REL   .X9OS.  1860 1813W 1827W 1860  1866
   217   ARGLST   REL   .X9OS.  1865 1814  1828  1865
  1262   C.ALF    REL   .X9OS    821  821
  1062   C.ALFL   REL   .X9OS    686  686
   662   C.ALFU   REL   .X9OS    551  551
   462   C.NUM    REL   .X9OS    416  415   416
  2462   C.OSIN   REL   .X9OS   1497 1497
  2262   C.SIN    REL   .X9OS   1362 1362
   254   EIGHT    REL   .X9OS    266  228   240   266
  2723   E.TO.A   REL   .X9OS   1688 1687  1688
   243   FIVE     REL   .X9OS    257  225   237   257
   240   FOUR     REL   .X9OS    254  224   236   254
NO VAL   GETMEM   EXT   SYMREF         73
  2663   G.TO.A   REL   .X9OS   1641 1640  1641
  2703   H.TO.A   REL   .X9OS   1664 1664
  3172   .CDAT4   REL   .X9OS   1807   68  1807
  3206   .CDAY4   REL   .X9OS   1821   69  1821
  2662   .TCT.    REL   .X9OS   1632 1632
  3170   .X8CL    REL   .X9OS   1801  202T 1801
  3123   .X8OC    REL   .X9OS   1756  160T 1756
  3163   .X8SB    REL   .X9OS   1794  205T 1794
  3133   .X8SC    REL   .X9OS   1766  159T 1766
  3143   .X9MN    REL   .X9OS   1776  163T 1776
  6000   .X9OS    SEC   SECT       7    7
  6001   .X9OS.   SEC   SECT    1841 1841
  6002   LIBCOM   SEC   CSECT   1868 1868
   212   LTABLE   REL   .X9OS    231  231
NO VAL   MSTAT    EXT   SYMREF         72  1781T
   257   NINE     REL   .X9OS    270  229   241   270
   214   NUMARG   REL   .X9OS.  1862 1815  1829  1862
   227   ONE      REL   .X9OS    245  221   233   245
     2   OPTION   REL   .X9OS.  1846 1779W 1785  1846

                             OCTAL    SYMBOL   * KIND *      REFERENCES BY ALTER NO. AN
     1   PONE     REL   .X9OS.  1845 1787  1845
   215   PR5      REL   .X9OS.  1863 1808W 1822W 1863
     0   PZERO    REL   .X9OS.  1844 1780  1844
NO VAL   RELMEM   EXT   SYMREF         74
     4   SAVEAQ   REL   .X9OS.  1849 1759W 1762R 1769W 1772R 1849
   251   SEVEN    REL   .X9OS    263  227   239   263
   246   SIX      REL   .X9OS    260  226   238   260
   200   TABLET   REL   .X9OS    219  219
   235   THREE    REL   .X9OS    251  223   235   251
   232   TWO      REL   .X9OS    248  222   234   248
   262   U.ATOB   REL   .X9OS    280  279   280
  2062   U.ATOH   REL   .X9OS   1227 1227
    17   X1       REL   LIBCOM  1870 1757W 1758W 1763R 1767W 1768W 1773R 1777W 1791R 1795W 1798R 1802W 1870
NO VAL   X8AC     EXT   SYMREF         75   172T
NO VAL   X8AD     EXT   SYMREF         76   171T
NO VAL   X8AD.T   EXT   SYMREF         70  1816T
NO VAL   X8AD.Y   EXT   SYMREF         71  1830T
NO VAL   X8AE     EXT   SYMREF         77   155T
NO VAL   X8AS     EXT   SYMREF        119   177T
NO VAL   X8AT     EXT   SYMREF         87   167T
NO VAL   X8CE     EXT   SYMREF         78   207T
NO VAL   X8CI     EXT   SYMREF         81   204T
NO VAL   X8CL     EXT   SYMREF         79  1803T
NO VAL   X8CN     EXT   SYMREF         80   206T
NO VAL   X8DC     EXT   SYMREF         84   166T
NO VAL   X8DN     EXT   SYMREF         85   165T
NO VAL   X8DS     EXT   SYMREF         86   164T
NO VAL   X8DW     EXT   SYMREF         89   170T
NO VAL   X8DY     EXT   SYMREF         88   168T
NO VAL   X8EP     EXT   SYMREF         82   203T
NO VAL   X8OB     EXT   SYMREF         94  1789T
NO VAL   X8OC     EXT   SYMREF         95  1760T
NO VAL   X8PD     EXT   SYMREF         96   185T
NO VAL   X8SB     EXT   SYMREF         83  1796T
NO VAL   X8SC     EXT   SYMREF         97  1770T

                             OCTAL    SYMBOL   * KIND *      REFERENCES BY ALTER NO. AN
NO VAL   X8TM     EXT   SYMREF         98   169T
NO VAL   X8UE     EXT   SYMREF         93   212T
NO VAL   X8UN     EXT   SYMREF         92   214T
NO VAL   X9COFF   EXT   SYMREF        117   187T
NO VAL   X9CON    EXT   SYMREF        116   186T
NO VAL   X9DD     EXT   SYMREF         99   156T
NO VAL   X9DI     EXT   SYMREF        100   182T
NO VAL   X9DQ     EXT   SYMREF        101   174T
NO VAL   X9DR     EXT   SYMREF        102   173T
NO VAL   X9II     EXT   SYMREF        103   181T
NO VAL   X9MN     EXT   SYMREF        104  1783T
     0   X9OS     REL   .X9OS    144   67   144
NO VAL   X9PC     EXT   SYMREF        131   199T
NO VAL   X9QD     EXT   SYMREF        107   176T
NO VAL   X9QDT    EXT   SYMREF        109   209T
NO VAL   X9QI     EXT   SYMREF        105   184T
NO VAL   X9QQ     EXT   SYMREF        106   158T
NO VAL   X9RD     EXT   SYMREF        108   175T
NO VAL   X9RDT    EXT   SYMREF        110   208T
NO VAL   X9RI     EXT   SYMREF        111   183T
NO VAL   X9RR     EXT   SYMREF        112   157T
NO VAL   X9RW     EXT   SYMREF        113   180T
NO VAL   X9SOF    EXT   SYMREF        115   179T
NO VAL   X9SON    EXT   SYMREF        114   178T
NO VAL   X9ST     EXT   SYMREF        118   161T
NO VAL   X9UE     EXT   SYMREF         91   215T
NO VAL   X9UN     EXT   SYMREF         90   216T
NO VAL   X9WC     EXT   SYMREF        120   188T
NO VAL   X9WCC    EXT   SYMREF        121   197T
NO VAL   X9WD     EXT   SYMREF        122   189T
NO VAL   X9WO     EXT   SYMREF        123   190T
NO VAL   X9WP     EXT   SYMREF        129   198T
NO VAL   X9WR     EXT   SYMREF        124   191T
NO VAL   X9WRN    EXT   SYMREF        125   192T
NO VAL   X9WS     EXT   SYMREF        130   196T

                             OCTAL    SYMBOL   * KIND *      REFERENCES BY ALTER NO. AN
NO VAL   X9WW     EXT   SYMREF        126   193T
NO VAL   X9WWR    EXT   SYMREF        128   195T
NO VAL   X9WWS    EXT   SYMREF        127   194T
     3   X        REL   .X9OS.  1847 1786W 1788  1847
     6   XITBLK   REL   .X9OS.  1852 1851  1852
   210   XITINX   REL   .X9OS.  1856 1855  1856
   216   XR1      REL   .X9OS.  1864 1809W 1818R 1823W 1832R 1864
   224   ZERO     REL   .X9OS    242  220   232   242
