VERSION A06

PL6.E3A0      #001=X9PC$PARAMETER_CHECK File=X9PC.:X8A6TSI                       SAT 08/09/97 11:00 Page:1
        1        1        /*T***********************************************************/
        2        2        /*T*                                                         */
        3        3        /*T* Copyright (c) Bull HN Information Systems Inc., 1997    */
        4        4        /*T*                                                         */
        5        5        /*T***********************************************************/
        6        6        X9PC$PARAMETER_CHECK: PROC (SUB_DESC_LIST,
        7        7                                   MAIN_DESC_LIST,
        8        8                                   CSIB );
        9        9
       10       10        /*      NAME: X9PC$PARAMETER_CHECK
       11       11                INPUT: SUB_DESC_LIST$ - This will be a pointer to the list of descriptors
       12       12                                        one for each expected paramater.
       13       13                       MAIN_DESC_LIST$ -This will be a pointer to the list of descriptors
       14       14                                        one for each paramater that is being sent to
       15       15                                        the sub-progran from the main program.
       16       16                DESCRIPTION: This routine will perform a paramater check at runtime if
       17       17                             the user specifies the paramater check option is specified.
       18       18                             This will check paramater count, length and type.
       19       19        */
       20       20
       21       21
       22       22        /********************** Include Files ************************/
       23       23        %INCLUDE X9A_MACROS;
       24       54        %INCLUDE X8A_LIBCOM;
       25      274        %INCLUDE X8A_ERRCOM;
       26      363        %INCLUDE X8A_CSIB;
       27      428
       28      429        /************************ Paramaters *************************/
       29      430    1   DCL 1 SUB_DESC_LIST,
       30      431              %DCL_RT_DESC( @DIM = "(0:0)" );
       31      453
       32      454    1   DCL 1 MAIN_DESC_LIST,
       33      455              %DCL_RT_DESC( @DIM = "(0:0)" );
       34      477
       35      478        %DCL_CSIB( @STCLASS = " " );
       36      507
       37      508        /************************** Entrys ***************************/
PL6.E3A0      #001=X9PC$PARAMETER_CHECK File=X9PC.:X8A6TSI                       SAT 08/09/97 11:00 Page:2
       38      509    1   DCL X8ER$ERROR         ENTRY(3);
       39      510    1   DCL X9ST$STOP_RUN      ENTRY;
       40      511
       41      512        /************************* Local Data ************************/
       42      513
       43      514    1   DCL COUNT               SBIN;
       44      515    1   DCL MIN_ARGS            SBIN;
       45      516    1   DCL MAIN_ARG_LENGTH     SBIN;
       46      517    1   DCL SUB_ARG_LENGTH      SBIN;
       47      518    1   DCL ERROR_FLAG          BIT(1);
       48      519
       49      520    1   DCL 1 MESSAGE_STRING,
       50      521    1         2 DIGIT_CHAR      CHAR(3),
       51      522    1         2 PROG_NAME       CHAR(77);
       52      523
       53      524        %EJECT;
PL6.E3A0      #001=X9PC$PARAMETER_CHECK File=X9PC.:X8A6TSI                       SAT 08/09/97 11:00 Page:3
       54      525    1   MESSAGE_STRING.PROG_NAME = CSIB.NAME_TEXT;
       55      526
       56      527    1   ERROR_FLAG = '0'B;
       57      528
       58      529    1   IF SUB_DESC_LIST.DESC# ~= MAIN_DESC_LIST.DESC# THEN
       59      530    2     DO;
       60      531    2       ERROR_FLAG = '1'B;
       61      532    2       CALL X8ER$ERROR( %PARAMETER_COUNT,
       62      533    2                        CSIB.NAME_TEXT,
       63      534    2                        CSIB.NAME_LENGTH );
       64      535    2     END;
       65      536
       66      537    1   MIN_ARGS = MINIMUM( SUB_DESC_LIST.DESC#, MAIN_DESC_LIST.DESC# );
       67      538
       68      539    1   COUNT=0;
       69      540    2   DO WHILE COUNT < MIN_ARGS;
       70      541
       71      542    2     IF SUB_DESC_LIST.D_WORD.DES_W.TYPE(COUNT) ~=
       72      543    2           MAIN_DESC_LIST.D_WORD.DES_W.TYPE(COUNT)    THEN
       73      544    3       DO;
       74      545    3         CALL BINCHAR( MESSAGE_STRING.DIGIT_CHAR,
       75      546    3                       COUNT + 1 );
       76      547    3         CALL X8ER$ERROR( %PARAMETER_TYPE,
       77      548    3                          MESSAGE_STRING,
       78      549    3                          CSIB.NAME_LENGTH );
       79      550    3         ERROR_FLAG = '1'B;
       80      551    3       END;
       81      552
       82      553    2     ELSE
       83      554
       84      555    3       DO;              /*   Check the Lengths   */
       85      556
       86      557    3          IF SUB_DESC_LIST.D_WORD.DES_W.EXTENDED( COUNT )   THEN
       87      558    3            SUB_ARG_LENGTH = SUB_DESC_LIST.D_WORD.SIZE_WORD( SUB_DESC_LIST.D_WORD.DES_W
               558                     .ADSC.ARG_SIZE_OFFSET( COUNT ) +
       88      559    3                             SUB_DESC_LIST.DESC#);
       89      560    3          ELSE
PL6.E3A0      #001=X9PC$PARAMETER_CHECK File=X9PC.:X8A6TSI                       SAT 08/09/97 11:00 Page:4
       90      561    3            SUB_ARG_LENGTH = SUB_DESC_LIST.D_WORD.DES_W.ADSC.ARG_SIZE( COUNT );
       91      562
       92      563    3          IF MAIN_DESC_LIST.D_WORD.DES_W.EXTENDED( COUNT )   THEN
       93      564    3            MAIN_ARG_LENGTH = MAIN_DESC_LIST.D_WORD.SIZE_WORD( MAIN_DESC_LIST.D_WORD.
               564                     DES_W.ADSC.ARG_SIZE_OFFSET( COUNT ) +
       94      565    3                             MAIN_DESC_LIST.DESC#);
       95      566    3          ELSE
       96      567    3            MAIN_ARG_LENGTH = MAIN_DESC_LIST.D_WORD.DES_W.ADSC.ARG_SIZE( COUNT );
       97      568
       98      569
       99      570    3          IF MAIN_ARG_LENGTH ~= SUB_ARG_LENGTH   THEN
      100      571    4            DO;
      101      572
      102      573    4              CALL BINCHAR( MESSAGE_STRING.DIGIT_CHAR,
      103      574    4                            COUNT + 1 );
      104      575    4              CALL X8ER$ERROR( %PARAMETER_LENGTH,
      105      576    4                               MESSAGE_STRING,
      106      577    4                               CSIB.NAME_LENGTH );
      107      578    4              ERROR_FLAG = '1'B;
      108      579
      109      580    4            END;
      110      581
      111      582    3       END;
      112      583
      113      584    2      COUNT = COUNT + 1;
      114      585    2   END; /* WHILE */
      115      586
      116      587    1   IF ERROR_FLAG   AND
      117      588    1          NOT LIBCOM.CONTINUE   THEN
      118      589    2     DO;
      119      590    2       LIBCOM.ERROR_FLAG = '1'B;
      120      591    2       CALL X9ST$STOP_RUN;
      121      592    2     END;
      122      593
      123      594    1   END X9PC$PARAMETER_CHECK;
      124      595
      125      596
PL6.E3A0      #001=X9PC$PARAMETER_CHECK File=X9PC.:X8A6TSI                       SAT 08/09/97 11:00 Page:5

PL6.E3A0      #001=X9PC$PARAMETER_CHECK File=X9PC.:X8A6TSI                       SAT 08/09/97 11:00 Page:6
--  Include file information  --

   X8A_CSIB.:X8A6TOU  is referenced.
   X8A_ERRCOM.:X8A6TOU  cannot be made into a system file and is referenced.
   X8A_LIBCOM.:X8A6TOU  cannot be made into a system file and is referenced.
   X9A_MACROS.:X8A6TOU  is referenced.
      No diagnostics issued in procedure X9PC$PARAMETER_CHECK.

   Procedure X9PC$PARAMETER_CHECK requires 134 words for executable code.
   Procedure X9PC$PARAMETER_CHECK requires 92 words of local(AUTO) storage.

    No errors detected in file X9PC.:X8A6TSI    .

PL6.E3A0      #001=X9PC$PARAMETER_CHECK File=X9PC.:X8A6TSI                       SAT 08/09/97 11:00 Page:7

 Object Unit name= X9PC$PARAMETER_CHECK                       File name= X9PC.:X8A6TOU
 UTS= AUG 09 '97 11:00:46.56 SAT                              Compiler= PL-6/E31         Sev=      00
 SharedLib= :SHARED_SYSTEM                                    Alt SharedLib=


    ****  Control sections  ****

 Sect   Type Bound  Init  Size OctSiz  Section name(segment info)
    0  LblCom even  none    20     24  LIBCOM
    1  LblCom even  none     1      1  DEC_OR_COMMA
    2  LblCom even  none    20     24  IN_TEMP
    3  LblCom even  none     1      1  OVRCHR
    4  LblCom even  none     1      1  SELECT_TIME
    5  LblCom even  none     1      1  NO_ADVANCE_OFFSET
    6  LblCom even  none    18     22  DSPLY_SAVE
    7  LblCom even  none     3      3  D_DATE
    8  LblCom even  none     3      3  D_TIME
    9  LblCom even  none     1      1  D_DAY
   10  LblCom even  none     2      2  C_DATE
   11  LblCom even  none     2      2  C_TIME
   12  LblCom even  none     2      2  C_DAY
   13  LblCom even  none     1      1  RTHOLD2
   14  LblCom even  none     1      1  LTHOLD2
   15  LblCom even  none     1      1  NDX2
   16  LblCom even  none     1      1  IN_LEN
   17   Proc  even  none   134    206  X9PC$PARAMETER_CHECK
   18  RoData even  none     8     10  X9PC$PARAMETER_CHECK

    ****  Entry defs  ****

                              Check   Calling
                             calling  sequence
  Sect OctLoc Primary Altret sequence   type   Parms  Name
    17      0   yes            yes      Std        3  X9PC$PARAMETER_CHECK
PL6.E3A0      #001=X9PC$PARAMETER_CHECK File=X9PC.:X8A6TSI                       SAT 08/09/97 11:00 Page:8

  ****  Entry refs  ****

         Check        Calling
        calling       sequence
Altret sequence SRef   type   Args  Name
         yes           Std       3 X8ER$ERROR
         yes           Std       0 X9ST$STOP_RUN
                       nStd      0 X66_AUTO_3
                       nStd      0 X66_ARET

  ****  Segment refs  ****

  Flags:  r = read only, s = secondary
Flgs Name                             Flgs Name                             Flgs Name
     ISSID
PL6.E3A0      #001=X9PC$PARAMETER_CHECK File=X9PC.:X8A6TSI                       SAT 08/09/97 11:00 Page:9


        1        1        /*T***********************************************************/
        2        2        /*T*                                                         */
        3        3        /*T* Copyright (c) Bull HN Information Systems Inc., 1997    */
        4        4        /*T*                                                         */
        5        5        /*T***********************************************************/
        6        6        X9PC$PARAMETER_CHECK: PROC (SUB_DESC_LIST,

      6 17 000000   000000 700200 xent  X9PC$PARAME* TSX0  ! X66_AUTO_3
        17 000001   000134 000003                    ZERO    92,3

        7        7                                   MAIN_DESC_LIST,
        8        8                                   CSIB );
        9        9
       10       10        /*      NAME: X9PC$PARAMETER_CHECK
       11       11                INPUT: SUB_DESC_LIST$ - This will be a pointer to the list of descriptors
       12       12                                        one for each expected paramater.
       13       13                       MAIN_DESC_LIST$ -This will be a pointer to the list of descriptors
       14       14                                        one for each paramater that is being sent to
       15       15                                        the sub-progran from the main program.
       16       16                DESCRIPTION: This routine will perform a paramater check at runtime if
       17       17                             the user specifies the paramater check option is specified.
       18       18                             This will check paramater count, length and type.
       19       19        */
       20       20
       21       21
       22       22        /********************** Include Files ************************/
       23       23        %INCLUDE X9A_MACROS;
       24       54        %INCLUDE X8A_LIBCOM;
       25      274        %INCLUDE X8A_ERRCOM;
       26      363        %INCLUDE X8A_CSIB;
       27      428
       28      429        /************************ Paramaters *************************/
       29      430    1   DCL 1 SUB_DESC_LIST,
       30      431              %DCL_RT_DESC( @DIM = "(0:0)" );
       31      453
       32      454    1   DCL 1 MAIN_DESC_LIST,
PL6.E3A0      #001=X9PC$PARAMETER_CHECK File=X9PC.:X8A6TSI                       SAT 08/09/97 11:00 Page:10
       33      455              %DCL_RT_DESC( @DIM = "(0:0)" );
       34      477
       35      478        %DCL_CSIB( @STCLASS = " " );
       36      507
       37      508        /************************** Entrys ***************************/
       38      509    1   DCL X8ER$ERROR         ENTRY(3);
       39      510    1   DCL X9ST$STOP_RUN      ENTRY;
       40      511
       41      512        /************************* Local Data ************************/
       42      513
       43      514    1   DCL COUNT               SBIN;
       44      515    1   DCL MIN_ARGS            SBIN;
       45      516    1   DCL MAIN_ARG_LENGTH     SBIN;
       46      517    1   DCL SUB_ARG_LENGTH      SBIN;
       47      518    1   DCL ERROR_FLAG          BIT(1);
       48      519
       49      520    1   DCL 1 MESSAGE_STRING,
       50      521    1         2 DIGIT_CHAR      CHAR(3),
       51      522    1         2 PROG_NAME       CHAR(77);
       52      523
       53      524        %EJECT;
PL6.E3A0      #001=X9PC$PARAMETER_CHECK File=X9PC.:X8A6TSI                       SAT 08/09/97 11:00 Page:11
       54      525    1   MESSAGE_STRING.PROG_NAME = CSIB.NAME_TEXT;

    525 17 000002   200005 470500                    LDP0    @CSIB,,AUTO
        17 000003   000007 720100                    LXL0    7,,PR0
        17 000004   040100 100540                    MLR     fill='040'O
        17 000005   000010 000010                    ADSC9   8,,PR0                   cn=0,n=*X0
        17 000006   200104 600115                    ADSC9   MESSAGE_STRING,,AUTO     cn=3,n=77

       55      526
       56      527    1   ERROR_FLAG = '0'B;

    527 17 000007   200103 450100                    STZ     ERROR_FLAG,,AUTO

       57      528
       58      529    1   IF SUB_DESC_LIST.DESC# ~= MAIN_DESC_LIST.DESC# THEN

    529 17 000010   200004 471500                    LDP1    @MAIN_DESC_LIST,,AUTO
        17 000011   200003 473500                    LDP3    @SUB_DESC_LIST,,AUTO
        17 000012   300000 236100                    LDQ     0,,PR3
        17 000013   100000 676100                    ERQ     0,,PR1
        17 000014   777777 376007                    ANQ     -1,DL
        17 000015   000033 600000 17                 TZE     s:537

       59      530    2     DO;

       60      531    2       ERROR_FLAG = '1'B;

    531 17 000016   400000 236003                    LDQ     -131072,DU
        17 000017   200103 756100                    STQ     ERROR_FLAG,,AUTO

       61      532    2       CALL X8ER$ERROR( %PARAMETER_COUNT,

    532 17 000020   200005 236100                    LDQ     @CSIB,,AUTO
        17 000021   000007 036003                    ADLQ    7,DU
        17 000022   200132 756100                    STQ     MESSAGE_STRING+22,,AUTO
        17 000023   200005 236100                    LDQ     @CSIB,,AUTO
        17 000024   000010 036003                    ADLQ    8,DU
PL6.E3A0      #001=X9PC$PARAMETER_CHECK File=X9PC.:X8A6TSI                       SAT 08/09/97 11:00 Page:12
        17 000025   000002 235000 18                 LDA     2
        17 000026   200130 757100                    STAQ    MESSAGE_STRING+20,,AUTO
        17 000027   200130 630500                    EPPR0   MESSAGE_STRING+20,,AUTO
        17 000030   000000 631400 18                 EPPR1   0
        17 000031   000000 701000 xent               TSX1    X8ER$ERROR
        17 000032   000000 011000                    NOP     0

       62      533    2                        CSIB.NAME_TEXT,
       63      534    2                        CSIB.NAME_LENGTH );
       64      535    2     END;

       65      536
       66      537    1   MIN_ARGS = MINIMUM( SUB_DESC_LIST.DESC#, MAIN_DESC_LIST.DESC# );

    537 17 000033   200004 470500                    LDP0    @MAIN_DESC_LIST,,AUTO
        17 000034   000000 236100                    LDQ     0,,PR0
        17 000035   777777 376007                    ANQ     -1,DL
        17 000036   200003 471500                    LDP1    @SUB_DESC_LIST,,AUTO
        17 000037   200130 756100                    STQ     MESSAGE_STRING+20,,AUTO
        17 000040   100000 236100                    LDQ     0,,PR1
        17 000041   777777 376007                    ANQ     -1,DL
        17 000042   200130 116100                    CMPQ    MESSAGE_STRING+20,,AUTO
        17 000043   000046 602000 17                 TNC     s:537+11
        17 000044   000046 600000 17                 TZE     s:537+11
        17 000045   200130 236100                    LDQ     MESSAGE_STRING+20,,AUTO
        17 000046   200100 756100                    STQ     MIN_ARGS,,AUTO

       67      538
       68      539    1   COUNT=0;

    539 17 000047   200077 450100                    STZ     COUNT,,AUTO

       69      540    2   DO WHILE COUNT < MIN_ARGS;

    540 17 000050   200077 116100                    CMPQ    COUNT,,AUTO
        17 000051   000174 604400 17                 TMOZ    s:587

PL6.E3A0      #001=X9PC$PARAMETER_CHECK File=X9PC.:X8A6TSI                       SAT 08/09/97 11:00 Page:13
       70      541
       71      542    2     IF SUB_DESC_LIST.D_WORD.DES_W.TYPE(COUNT) ~=

    542 17 000052   200003 470500                    LDP0    @SUB_DESC_LIST,,AUTO
        17 000053   200077 720100                    LXL0    COUNT,,AUTO
        17 000054   000001 221110                    LDX1    1,X0,PR0
        17 000055   200004 471500                    LDP1    @MAIN_DESC_LIST,,AUTO
        17 000056   100001 101110                    CMPX1   1,X0,PR1
        17 000057   000104 600000 17                 TZE     s:557

       72      543    2           MAIN_DESC_LIST.D_WORD.DES_W.TYPE(COUNT)    THEN
       73      544    3       DO;

       74      545    3         CALL BINCHAR( MESSAGE_STRING.DIGIT_CHAR,

    545 17 000060   200077 235100                    LDA     COUNT,,AUTO
        17 000061   000001 035007                    ADLA    1,DL
        17 000062   200130 755100                    STA     MESSAGE_STRING+20,,AUTO
        17 000063   000100 301500                    BTD
        17 000064   200130 000004                    NDSC9   MESSAGE_STRING+20,,AUTO  cn=0,s=lsgnf,sf=0,n=4
        17 000065   200104 030003                    NDSC9   MESSAGE_STRING,,AUTO     cn=0,s=nosgn,sf=0,n=3

       75      546    3                       COUNT + 1 );
       76      547    3         CALL X8ER$ERROR( %PARAMETER_TYPE,

    547 17 000066   200005 236100                    LDQ     @CSIB,,AUTO
        17 000067   000007 036003                    ADLQ    7,DU
        17 000070   200132 756100                    STQ     MESSAGE_STRING+22,,AUTO
        17 000071   200104 633500                    EPPR3   MESSAGE_STRING,,AUTO
        17 000072   200131 453500                    STP3    MESSAGE_STRING+21,,AUTO
        17 000073   000004 236000 18                 LDQ     4
        17 000074   200130 756100                    STQ     MESSAGE_STRING+20,,AUTO
        17 000075   200130 630500                    EPPR0   MESSAGE_STRING+20,,AUTO
        17 000076   000000 631400 18                 EPPR1   0
        17 000077   000000 701000 xent               TSX1    X8ER$ERROR
        17 000100   000000 011000                    NOP     0

PL6.E3A0      #001=X9PC$PARAMETER_CHECK File=X9PC.:X8A6TSI                       SAT 08/09/97 11:00 Page:14
       77      548    3                          MESSAGE_STRING,
       78      549    3                          CSIB.NAME_LENGTH );
       79      550    3         ERROR_FLAG = '1'B;

    550 17 000101   400000 236003                    LDQ     -131072,DU
        17 000102   200103 756100                    STQ     ERROR_FLAG,,AUTO

       80      551    3       END;

    551 17 000103   000170 710000 17                 TRA     s:584

       81      552
       82      553    2     ELSE
       83      554
       84      555    3       DO;              /*   Check the Lengths   */

       85      556
       86      557    3          IF SUB_DESC_LIST.D_WORD.DES_W.EXTENDED( COUNT )   THEN

    557 17 000104   000001 236110                    LDQ     1,X0,PR0
        17 000105   200000 316007                    CANQ    65536,DL
        17 000106   000120 600000 17                 TZE     s:561

       87      558    3           SUB_ARG_LENGTH = SUB_DESC_LIST.D_WORD.SIZE_WORD( SUB_DESC_LIST.D_WORD.DES_W
               558                     .ADSC.ARG_SIZE_OFFSET( COUNT ) +

    558 17 000107   000000 236100                    LDQ     0,,PR0
        17 000110   777777 376007                    ANQ     -1,DL
        17 000111   200130 756100                    STQ     MESSAGE_STRING+20,,AUTO
        17 000112   000001 236110                    LDQ     1,X0,PR0
        17 000113   017777 376007                    ANQ     8191,DL
        17 000114   200130 036100                    ADLQ    MESSAGE_STRING+20,,AUTO
        17 000115   000001 235106                    LDA     1,QL,PR0
        17 000116   200102 755100                    STA     SUB_ARG_LENGTH,,AUTO
        17 000117   000123 710000 17                 TRA     s:563

       88      559    3                             SUB_DESC_LIST.DESC#);
PL6.E3A0      #001=X9PC$PARAMETER_CHECK File=X9PC.:X8A6TSI                       SAT 08/09/97 11:00 Page:15
       89      560    3          ELSE
       90      561    3            SUB_ARG_LENGTH = SUB_DESC_LIST.D_WORD.DES_W.ADSC.ARG_SIZE( COUNT );

    561 17 000120   000001 236110                    LDQ     1,X0,PR0
        17 000121   017777 376007                    ANQ     8191,DL
        17 000122   200102 756100                    STQ     SUB_ARG_LENGTH,,AUTO

       91      562
       92      563    3          IF MAIN_DESC_LIST.D_WORD.DES_W.EXTENDED( COUNT )   THEN

    563 17 000123   100001 236110                    LDQ     1,X0,PR1
        17 000124   200000 316007                    CANQ    65536,DL
        17 000125   000137 600000 17                 TZE     s:567

       93      564    3            MAIN_ARG_LENGTH = MAIN_DESC_LIST.D_WORD.SIZE_WORD( MAIN_DESC_LIST.D_WORD.
               564                     DES_W.ADSC.ARG_SIZE_OFFSET( COUNT ) +

    564 17 000126   100000 236100                    LDQ     0,,PR1
        17 000127   777777 376007                    ANQ     -1,DL
        17 000130   200130 756100                    STQ     MESSAGE_STRING+20,,AUTO
        17 000131   100001 236110                    LDQ     1,X0,PR1
        17 000132   017777 376007                    ANQ     8191,DL
        17 000133   200130 036100                    ADLQ    MESSAGE_STRING+20,,AUTO
        17 000134   100001 235106                    LDA     1,QL,PR1
        17 000135   200101 755100                    STA     MAIN_ARG_LENGTH,,AUTO
        17 000136   000142 710000 17                 TRA     s:570

       94      565    3                             MAIN_DESC_LIST.DESC#);
       95      566    3          ELSE
       96      567    3            MAIN_ARG_LENGTH = MAIN_DESC_LIST.D_WORD.DES_W.ADSC.ARG_SIZE( COUNT );

    567 17 000137   100001 236110                    LDQ     1,X0,PR1
        17 000140   017777 376007                    ANQ     8191,DL
        17 000141   200101 756100                    STQ     MAIN_ARG_LENGTH,,AUTO

       97      568
       98      569
PL6.E3A0      #001=X9PC$PARAMETER_CHECK File=X9PC.:X8A6TSI                       SAT 08/09/97 11:00 Page:16
       99      570    3          IF MAIN_ARG_LENGTH ~= SUB_ARG_LENGTH   THEN

    570 17 000142   200101 236100                    LDQ     MAIN_ARG_LENGTH,,AUTO
        17 000143   200102 116100                    CMPQ    SUB_ARG_LENGTH,,AUTO
        17 000144   000170 600000 17                 TZE     s:584

      100      571    4            DO;

      101      572
      102      573    4              CALL BINCHAR( MESSAGE_STRING.DIGIT_CHAR,

    573 17 000145   200077 235100                    LDA     COUNT,,AUTO
        17 000146   000001 035007                    ADLA    1,DL
        17 000147   200130 755100                    STA     MESSAGE_STRING+20,,AUTO
        17 000150   000100 301500                    BTD
        17 000151   200130 000004                    NDSC9   MESSAGE_STRING+20,,AUTO  cn=0,s=lsgnf,sf=0,n=4
        17 000152   200104 030003                    NDSC9   MESSAGE_STRING,,AUTO     cn=0,s=nosgn,sf=0,n=3

      103      574    4                            COUNT + 1 );
      104      575    4              CALL X8ER$ERROR( %PARAMETER_LENGTH,

    575 17 000153   200005 236100                    LDQ     @CSIB,,AUTO
        17 000154   000007 036003                    ADLQ    7,DU
        17 000155   200132 756100                    STQ     MESSAGE_STRING+22,,AUTO
        17 000156   200104 633500                    EPPR3   MESSAGE_STRING,,AUTO
        17 000157   200131 453500                    STP3    MESSAGE_STRING+21,,AUTO
        17 000160   000006 236000 18                 LDQ     6
        17 000161   200130 756100                    STQ     MESSAGE_STRING+20,,AUTO
        17 000162   200130 630500                    EPPR0   MESSAGE_STRING+20,,AUTO
        17 000163   000000 631400 18                 EPPR1   0
        17 000164   000000 701000 xent               TSX1    X8ER$ERROR
        17 000165   000000 011000                    NOP     0

      105      576    4                               MESSAGE_STRING,
      106      577    4                               CSIB.NAME_LENGTH );
      107      578    4              ERROR_FLAG = '1'B;

PL6.E3A0      #001=X9PC$PARAMETER_CHECK File=X9PC.:X8A6TSI                       SAT 08/09/97 11:00 Page:17
    578 17 000166   400000 236003                    LDQ     -131072,DU
        17 000167   200103 756100                    STQ     ERROR_FLAG,,AUTO

      108      579
      109      580    4            END;

      110      581
      111      582    3       END;

      112      583
      113      584    2      COUNT = COUNT + 1;

    584 17 000170   200077 054100                    AOS     COUNT,,AUTO

      114      585    2   END; /* WHILE */

    585 17 000171   200077 236100                    LDQ     COUNT,,AUTO
        17 000172   200100 116100                    CMPQ    MIN_ARGS,,AUTO
        17 000173   000052 604000 17                 TMI     s:542

      115      586
      116      587    1   IF ERROR_FLAG   AND

    587 17 000174   200103 234100                    SZN     ERROR_FLAG,,AUTO
        17 000175   000205 605000 17                 TPL     s:594
        17 000176   000001 234000 0                  SZN     LIBCOM+1
        17 000177   000205 604000 17                 TMI     s:594

      117      588    1          NOT LIBCOM.CONTINUE   THEN
      118      589    2     DO;

      119      590    2       LIBCOM.ERROR_FLAG = '1'B;

    590 17 000200   400000 236003                    LDQ     -131072,DU
        17 000201   000015 756000 0                  STQ     LIBCOM+13

      120      591    2       CALL X9ST$STOP_RUN;
PL6.E3A0      #001=X9PC$PARAMETER_CHECK File=X9PC.:X8A6TSI                       SAT 08/09/97 11:00 Page:18

    591 17 000202   000007 631400 18                 EPPR1   7
        17 000203   000000 701000 xent               TSX1    X9ST$STOP_RUN
        17 000204   000000 011000                    NOP     0

      121      592    2     END;

      122      593
      123      594    1   END X9PC$PARAMETER_CHECK;

    594 17 000205   000000 702200 xent               TSX2  ! X66_ARET
      124      595
      125      596

PL6.E3A0      #001=X9PC$PARAMETER_CHECK File=X9PC.:X8A6TSI                       SAT 08/09/97 11:00 Page:19
--  Include file information  --

   X8A_CSIB.:X8A6TOU  is referenced.
   X8A_ERRCOM.:X8A6TOU  cannot be made into a system file and is referenced.
   X8A_LIBCOM.:X8A6TOU  cannot be made into a system file and is referenced.
   X9A_MACROS.:X8A6TOU  is referenced.
      No diagnostics issued in procedure X9PC$PARAMETER_CHECK.
PL6.E3A0      #001=X9PC$PARAMETER_CHECK File=X9PC.:X8A6TSI                       SAT 08/09/97 11:00 Page:20

 **** Variables and constants ****

  ****  Section 000 LblCom LIBCOM

  ****  Scalars and arrays  ****
OctLoc.c.b A Datatyp(siz) R M Lvl/name                 OctLoc.c.b A Datatyp(siz) R M Lvl/name

     0-0-0/w STRC(720)   r     1 LIBCOM

  ****  Section 001 LblCom DEC_OR_COMMA

  ****  Scalars and arrays  ****
OctLoc.c.b A Datatyp(siz) R M Lvl/name                 OctLoc.c.b A Datatyp(siz) R M Lvl/name

     0-0-0/c CHAR              1 DEC_OR_COMMA

  ****  Section 002 LblCom IN_TEMP

  ****  Scalars and arrays  ****
OctLoc.c.b A Datatyp(siz) R M Lvl/name                 OctLoc.c.b A Datatyp(siz) R M Lvl/name

     0-0-0/c CHAR(80)          1 IN_TEMP

  ****  Section 003 LblCom OVRCHR

  ****  Scalars and arrays  ****
OctLoc.c.b A Datatyp(siz) R M Lvl/name                 OctLoc.c.b A Datatyp(siz) R M Lvl/name

     0-0-0/c CHAR              1 OVRCHR

  ****  Section 004 LblCom SELECT_TIME

  ****  Scalars and arrays  ****
OctLoc.c.b A Datatyp(siz) R M Lvl/name                 OctLoc.c.b A Datatyp(siz) R M Lvl/name

     0-0-0/w UBIN              1 SELECT_TIME

PL6.E3A0      #001=X9PC$PARAMETER_CHECK File=X9PC.:X8A6TSI                       SAT 08/09/97 11:00 Page:21
  ****  Section 005 LblCom NO_ADVANCE_OFFSET

  ****  Scalars and arrays  ****
OctLoc.c.b A Datatyp(siz) R M Lvl/name                 OctLoc.c.b A Datatyp(siz) R M Lvl/name

     0-0-0/w UBIN              1 NO_ADVANCE_OFFSET

  ****  Section 006 LblCom DSPLY_SAVE

  ****  Scalars and arrays  ****
OctLoc.c.b A Datatyp(siz) R M Lvl/name                 OctLoc.c.b A Datatyp(siz) R M Lvl/name

     0-0-0/c CHAR(72)          1 DSPLY_SAVE

  ****  Section 007 LblCom D_DATE

  ****  Scalars and arrays  ****
OctLoc.c.b A Datatyp(siz) R M Lvl/name                 OctLoc.c.b A Datatyp(siz) R M Lvl/name

     0-0-0/c CHAR(10)          1 D_DATE

  ****  Section 008 LblCom D_TIME

  ****  Scalars and arrays  ****
OctLoc.c.b A Datatyp(siz) R M Lvl/name                 OctLoc.c.b A Datatyp(siz) R M Lvl/name

     0-0-0/c CHAR(11)          1 D_TIME

  ****  Section 009 LblCom D_DAY

  ****  Scalars and arrays  ****
OctLoc.c.b A Datatyp(siz) R M Lvl/name                 OctLoc.c.b A Datatyp(siz) R M Lvl/name

     0-0-0/c CHAR(3)           1 D_DAY

  ****  Section 010 LblCom C_DATE

PL6.E3A0      #001=X9PC$PARAMETER_CHECK File=X9PC.:X8A6TSI                       SAT 08/09/97 11:00 Page:22
  ****  Scalars and arrays  ****
OctLoc.c.b A Datatyp(siz) R M Lvl/name                 OctLoc.c.b A Datatyp(siz) R M Lvl/name

     0-0-0/c CHAR(6)           1 C_DATE

  ****  Section 011 LblCom C_TIME

  ****  Scalars and arrays  ****
OctLoc.c.b A Datatyp(siz) R M Lvl/name                 OctLoc.c.b A Datatyp(siz) R M Lvl/name

     0-0-0/c CHAR(8)           1 C_TIME

  ****  Section 012 LblCom C_DAY

  ****  Scalars and arrays  ****
OctLoc.c.b A Datatyp(siz) R M Lvl/name                 OctLoc.c.b A Datatyp(siz) R M Lvl/name

     0-0-0/c CHAR(5)           1 C_DAY

  ****  Section 013 LblCom RTHOLD2

  ****  Scalars and arrays  ****
OctLoc.c.b A Datatyp(siz) R M Lvl/name                 OctLoc.c.b A Datatyp(siz) R M Lvl/name

     0-0-0/w UBIN              1 RTHOLD2

  ****  Section 014 LblCom LTHOLD2

  ****  Scalars and arrays  ****
OctLoc.c.b A Datatyp(siz) R M Lvl/name                 OctLoc.c.b A Datatyp(siz) R M Lvl/name

     0-0-0/w UBIN              1 LTHOLD2

  ****  Section 015 LblCom NDX2

  ****  Scalars and arrays  ****
OctLoc.c.b A Datatyp(siz) R M Lvl/name                 OctLoc.c.b A Datatyp(siz) R M Lvl/name
PL6.E3A0      #001=X9PC$PARAMETER_CHECK File=X9PC.:X8A6TSI                       SAT 08/09/97 11:00 Page:23

     0-0-0/w SBIN              1 NDX2

  ****  Section 016 LblCom IN_LEN

  ****  Scalars and arrays  ****
OctLoc.c.b A Datatyp(siz) R M Lvl/name                 OctLoc.c.b A Datatyp(siz) R M Lvl/name

     0-0-0/w UBIN              1 IN_LEN

  ****  Auto variables  ****

  ****  Scalars and arrays  ****
OctLoc.c.b A Datatyp(siz) R M Lvl/name                 OctLoc.c.b A Datatyp(siz) R M Lvl/name

     5-0-0/w PTR         r     1 @CSIB                      4-0-0/w PTR         r     1 @MAIN_DESC_LIST
     3-0-0/w PTR         r     1 @SUB_DESC_LIST            77-0-0/w SBIN        r     1 COUNT
    *0-0-0/w ASTR(288)   r     1 CSIB                     103-0-0/b BIT         r     1 ERROR_FLAG
     6-0-0/w SBIN              1 LT                         7-0-0/c CHAR(65)          1 LTHOLD
   101-0-0/w SBIN        r     1 MAIN_ARG_LENGTH           *0-0-0/w STRC(72)    r     1 MAIN_DESC_LIST
   104-0-0/c STRC(720)   r     1 MESSAGE_STRING           100-0-0/w SBIN        r     1 MIN_ARGS
    51-0-0/w SBIN              1 NDX                       52-0-0/w SBIN              1 NDX3
    30-0-0/c CHAR(65)          1 RTHOLD                    53-0-0/c CHAR(80)          1 SPECIAL_ERR_MSG
   102-0-0/w SBIN        r     1 SUB_ARG_LENGTH            *0-0-0/w STRC(72)    r     1 SUB_DESC_LIST


   Procedure X9PC$PARAMETER_CHECK requires 134 words for executable code.
   Procedure X9PC$PARAMETER_CHECK requires 92 words of local(AUTO) storage.

    No errors detected in file X9PC.:X8A6TSI    .
