
     DIRECTORY AND SEGMENT LIST  (OBJECT UNIT NAME '')

      * SYMDEF *        GLOBAL NAME               SEGMENT  OFFSET      ACCESS ATTRIBUTES
     1  CVRD   'X9RD$CVRD'                         .X9RD       0          R  W  E  L  U
     2  CVQD   'X9RD$CVQD'                         .X9RD      12          R  W  E  L  U
     3  CVRDT  'X9RD$CVRDT'                        .X9RD       6          R  W  E  L  U
     4  CVQDT  'X9RD$CVQDT'                        .X9RD      10          R  W  E  L  U

      * SYMREF *        GLOBAL NAME                                    ACCESS ATTRIBUTES
     5  X8ER   'X8ER$ERROR'                                               R  W  E  L  U

      * SECTION *          SIZE          KIND
     6  .X9RD               210           CODE
     7  .X9RD.               73           DATA


     PROGRAM BREAK         303

                                      1 *M* CVRD & CVQD  - CONVERT SINGLE OR DOUBLE FLOATING POINT TO DECIMAL
                                      2 *T***********************************************************
                                      3 *T*                                                         *
                                      4 *T* COPYRIGHT (C) BULL HN INFORMATION SYSTEMS INC., 1997    *
                                      5 *T*                                                         *
                                      6 *T***********************************************************
                                      7        LBL     CVRD&QD,C80JBB.981  FLT-PT CONVERSION
                        000000        8        SECT    .X9RD,CODE
                                      9 *P*
                                     10 *P*
                                     11 *P*     NAME       : CVRD & CVRQ & CVRDT & CVQDT
                                     12 *P*
                                     13 *P*     PURPOSE    : TO CONVERT A SINGLE OR DOUBLE PRECISION
                                     14 *P*                  FLOATING POINT NUMBER TO A DECIMAL NUMBER.
                                     15 *P*
                                     16 *P*
                                     17 *D*
                                     18 *D*
                                     19 *D*     NAME       : CVRD & CVRQ & CVRDT & CVQDT
                                     20 *D*
                                     21 *D*     CALL       :   . . .
                                     22 *D*                  EPPRN    REALNO
                                     23 *D*                  STPN     ARGLST
                                     24 *D*                  EPPRN    DECGUY
                                     25 *D*                  STPN     ARGLST+1
                                     26 *D*                  EPPRN    DESC
                                     27 *D*                  STPN     ARGLST+2  DECIMAL DESCRIPTOR
                                     28 *D*                  EPPR0    ARGLST
                                     29 *D*                  EPPR1    NUMARG    NUMBER OF ARGS
                                     30 *D*                  TSX1     CVRD (OR CVQD, CVRDT, CVQDT)
                                     31 *D*                  NOP      0,DL
                                     32 *D*                    . . .
                                     33 *D*           ARGLST BSS      3
                                     34 *D*           NUMARG VFD      18/3,18/0
                                     35 *D*                    . . .
                                     36 *D*
                                     37 *D*     INTERFACE  : NONE

                                     38 *D*
                                     39 *D*     INPUT      : THE REAL NUMBER TO BE CONVERTED TO DECIMAL
                                     40 *D*
                                     41 *D*     OUTPUT     : THE RESULT DESCRIBED BY THE DECIMAL DESCRIPTOR.
                                     42 *D*
                                     43 *D*     SCRATCH    : NONE
                                     44 *D*
                                     45 *D*     REFERENCE  : X8LC$DOCUMENT, COBOL-74  MODULE - KN23
                                     46 *D*                  FLOATING POINT CONVERSION.
                                     47 *D*
                                     48 *D*
                                     49 *V*
                                     50 *V*
                                     51 *V*                    GENERAL_ALGORITHM
                                     52 *V*
                                     53 *V*     1.) EXTRACT THE FLOATING BINARY EXPONENT.
                                     54 *V*     2.) SHIFT THE BINARY MANTISSA UNTIL THE RIGHTMOST
                                     55 *V*         NON-ZERO BIT IS IN BIT POSITION 35, THEREFORE
                                     56 *V*         AN INTEGER.
                                     57 *V*     3.) ADJUST THE EXPONENT ACCORDING TO THE SHIFT.
                                     58 *V*     4.) CONVERT THE BINARY MANTISSA TO A DECIMAL MANTISSA.
                                     59 *V*     5.) CONVERT THE BINARY EXPONENT TO A DECIMAL EXPONENT.
                                     60 *V*     6.) NORMALIZE THE DECIMAL RESULT AND RETURN WITH ANSWER.
                                     61 *V*
                                     62 *V*
                        000000       63        ENTDEF  (CVRD,X9RD$CVRD)    ROUND RESULT
                        000000       64        ENTDEF  (CVQD,X9RD$CVQD)    ROUND RESULT
                        000000       65        ENTDEF  (CVRDT,X9RD$CVRDT)  TRUNCATE RESULT
                        000000       66        ENTDEF  (CVQDT,X9RD$CVQDT)  TRUNCATE RESULT
                        000000       67        ENTREF  (X8ER,X8ER$ERROR)
                                     68 *
                        000000       69 CVRD   NULL
      000000 000021 4500 00 010NN    70        STZ     TRUNCT          ROUND, DON'T TRUNCATE RESULT
                        000001       71 CVRD.S NULL
      000001 000000 7530 00 010NN    72        SREG    REG             SAVING
      000002 000071 4574 00 010NN    73        STP7    PR7
      000003 000000 4775 00          74        LDP7    0,,0

      000004 700000 4311 00          75        FLD     0,,7
      000005 000017 7100 00 010NN    76        TRA     GTDATA
                                     77 *
                        000006       78 CVRDT  NULL                    CVRD WITH TRUNCATION
      000006 000021 7500 00 010NN    79        STC2    TRUNCT          SET TRUNCATE FLAG
      000007 000001 7100 00 010NN    80        TRA     CVRD.S
                                     81 *
                        000010       82 CVQDT  NULL                    CVQD WITH TRUNCATION
      000010 000021 7500 00 010NN    83        STC2    TRUNCT          SET TRUNCATE FLAG
      000011 000013 7100 00 010NN    84        TRA     CVQD.S
                                     85 *
                        000012       86 CVQD   NULL
      000012 000021 4500 00 010NN    87        STZ     TRUNCT          ROUND, DON'T TRUNCATE RESULT
                        000013       88 CVQD.S NULL
      000013 000000 7530 00 010NN    89        SREG    REG             SAVE REGISTERS
      000014 000071 4574 00 010NN    90        STP7    PR7
      000015 000000 4775 00          91        LDP7    0,,0
      000016 700000 4331 00          92        DFLD    0,,7
                        000017       93 GTDATA NULL
      000017 000022 4570 00 010NN    94        DFST    VALUE
      000020 000070 4564 00 010NN    95        STP6    PR6
      000021 000067 4554 00 010NN    96        STP5    PR5
      000022 000001 4765 00          97        LDP6    1,,0    POINTER TO THE DECIMAL RESULT
      000023 000002 4755 00          98        LDP5    2,,0    POINTER TO THE DESCRIPTOR
                        000024       99 REDIGO NULL
      000024 000000 1004 00         100        MLR     ,,000
      000025 000000 0000 00         101        ADSC9   0,0,0
      000026 000010 0000 40 010NN   102        ADSC9   RESULT,0,32
      000027 000000 7730 00         103        LRL     0                 CHECK FOR ZERO
      000030 000035 6010 00 010NN   104        TNZ     NOTZER            NOT DONE QUICKLY
                                    105 *                                MOVE ZERO TO RESULT AND BYE
                        000031      106 UFLOW1 NULL
      000031 400200 3004 00         107        MVN     (0,0,0),(0,0,0),RND,PLUS
      000032 000174 0100 04 010NN   108        NDSC9   DECLSO,0,4,LSS,0
      000033 000010 0400 40 010NN   109        NDSC4   RESULT,0,32,LSF
      000034 000141 7100 00 010NN   110        TRA     FINISH
                        000035      111 NOTZER NULL

      000035 000020 4560 00 010NN   112        STE     ORIGEX            STORE EXPONENT FOR LATER
                                    113 *
                                    114 *      LOCATE LOW ORDER NON ZERO BITS
                                    115 *
                                    116 *V*
                                    117 *V*
                                    118 *V*                    RIGHTMOST_NON_ZERO_BIT
                                    119 *V*
                                    120 *V*     THESE INSTRUCTIONS LOCATE AND PLACE THE RIGHTMOST NON-ZERO
                                    121 *V*     BIT INTO BIT POSITION 35. THEN THE EXPONENT IS ADJUSTED
                                    122 *V*     OR NORMALIZED TO A POINT TO REFLECT THE ADJUSTMENT.  THIS
                                    123 *V*     ADJUSTMENT TRANSFORMS THE NUMBER INTO AN INTEGER.
                                    124 *V*
                                    125 *V*
      000036 000022 7570 00 010NN   126        STAQ    VALUE
      000037 000176 0370 00 010NN   127        ADLAQ   ALMONE            TURNS ALL TRAIL 'S TO 1'S
      000040 000000 5330 00         128        NEGL                      2'S COMPLEMENT
      000041 000176 0370 00 010NN   129        ADLAQ   ALMONE            BECOMES 1'S COMPLIMENT
                                    130 *
                                    131 *      AQ HAS ALL BITS INVERTED EXCEPT LOW ORDER NON ZERO
                                    132 *
      000042 000022 3770 00 010NN   133        ANAQ    VALUE              LEAVE LOW ORDER 1 ONLY
                                    134 *
                                    135 *      FIND HOW FAR IT IS FROM POSITION 1
      000043 000001 7330 00         136        LRS     1
      000044 777777 4110 03         137        LDE     -1,DU
      000045 000001 6170 04         138        TOV     1,IC
      000046 000000 5730 00         139        FNO                         SHIFTS AND SUBTRACTS FROM EXP
      000047 000024 4500 00 010NN   140        STZ     NEGEXP
      000050 000024 4560 00 010NN   141        STE     NEGEXP               NEGATIVE EXPONENT
      000051 000024 3350 00 010NN   142        LCA     NEGEXP               CONVERT TO POSITIVE
      000052 000025 7550 00 010NN   143        STA     POSEXP               POSITIVE EXPONENT
      000053 000025 4110 00 010NN   144        LDE     POSEXP               SAYS WHERE POINT IS IN VALUE
      000054 000022 2370 00 010NN   145        LDAQ    VALUE                ORIGINAL VALUE AS MODIFIED INTEGER
      000055 042000 4350 03         146        UFA     =17B25,DU           MAKES VALUE AN INTEGER
      000056 000003 7330 00         147        LRS     3
      000057 000022 7570 00 010NN   148        STAQ    VALUE                FOR BTD CONVERSION

                                    149 *
                                    150 *      ADJUST EXPONENT TO REFLECT NE BINARY POINT
                                    151 *
      000060 000024 2360 00 010NN   152        LDQ     NEGEXP             GET EXPONENT DUE TO MANTISSA SHIFT
      000061 000034 7320 00         153        QRS     36-8                  TO A LOWER
      000062 000024 7560 00 010NN   154        STQ     NEGEXP              BACK TO NEGATIVE FOR ADDING IN A MINUTE
      000063 000020 2360 00 010NN   155        LDQ     ORIGEX                GET REAL EXPONENT
      000064 000034 7320 00         156        QRS     36-8                  ALIGN WITH NEG EXP
      000065 000024 0360 00 010NN   157        ADLQ    NEGEXP                 ADD UM UP
      000066 000002 7360 00         158        QLS     2              READY FOR HEX
      000067 000026 7560 00 010NN   159        STQ     EXSIGN                SAVE SIGN
                                    160 *
                                    161 *      TAKE ABSOLUTE VALUE OF RESULT AND PLACE IN ORIGEXP
                                    162 *
      000070 000002 6050 04         163        TPL     2,IC
      000071 000000 5330 00         164        NEGL
      000072 000020 7560 00 010NN   165        STQ     ORIGEX
                                    166 *
                                    167 *     CONVERT BINARY VALUE TO DECIMAL
                                    168 *
                                    169 *V*
                                    170 *V*
                                    171 *V*                    BINARY_MANTISSA_TO_DECIMAL
                                    172 *V*
                                    173 *V*     THIS CONVERTS THE BINARY MANTISSA TO A DECIMAL MANTISSA,
                                    174 *V*     WHICH JUST LEAVES CONVERTING THE EXPONENT.
                                    175 *V*
                                    176 *V*
      000073 000000 3014 00         177        BTD     (0,0,0),(0,0,0)
      000074 000022 000010  010NN   178        ZERO    VALUE,8
      000075 000027 0100 30 010NN   179        NDSC9   DECVAL,0,24,LSS   DECIMAL NUMBER
                                    180 *
                                    181 *       MOVE 2 ** ZERO
                                    182 *
                                    183 *V*
                                    184 *V*
                                    185 *V*                    CONVERT_EXPONENT_TO_DECIMAL

                                    186 *V*
                                    187 *V*     THE EXPONENT WHICH IS FLOATING POINT MUST BE CONVERTED TO
                                    188 *V*     DECIMAL.  ONCE CONVERTED, THE MANTISSA MUST BE ADJUSTED
                                    189 *V*     ACCORDING TO THE CHANGE IN THE EXPONENT.
                                    190 *V*
                                    191 *V*
      000076 400200 3004 00         192        MVN     (0,0,0),(0,0,0),RND,PLUS
      000077 000173 0100 04 010NN   193        NDSC9   DECLS1,0,4,LSS,0
      000100 000037 0000 77 010NN   194        NDSC9   .ELF,0,63,LSF
      000101 000020 7240 00 010NN   195        LXL4    ORIGEX
                        000102      196 CONT   NULL                           MAKE MOD 71
      000102 000124 6000 00 010NN   197        TZE     E.DONE
      000103 000107 1040 03         198        CMPX4   71,DU
      000104 000112 6040 00 010NN   199        TMI     LESS71                  NOT >=2 ** 71
      000105 000200 2064 00         200        MP2D    (0,0,0),(0,0,0),RND
      000106 000170 0700 26 010NN   201        NDSC4   TWO71,0,22,NS,0
      000107 000037 0000 77 010NN   202        NDSC9   .ELF,0,63,LSF
      000110 000107 1640 03         203        SBX4    71,DU
      000111 000102 7100 00 010NN   204        TRA     CONT                    GO ROUND AGAIN
                        000112      205 LESS71 NULL                         OK TO CONVERT
      000112 000001 2350 07         206        LDA     1,DL
      000113 000044 7330 00         207        LRS     36
      000114 000000 7370 14         208        LLS     0,4
      000115 000060 7570 00 010NN   209        STAQ    .EVAL
                                    210 *
                                    211 *      CALCULATE 2 ** ORIGEXP
                                    212 *
      000116 000000 3014 00         213        BTD     (0,0,),(0,0,0)
      000117 000060 000010  010NN   214        ZERO    .EVAL,8
      000120 000062 0500 30 010NN   215        NDSC4   .ATMP1,0,24,LSS
      000121 000200 2064 00         216        MP2D    (0,0,0),(0,0,0),RND
      000122 000062 0500 30 010NN   217        NDSC4   .ATMP1,0,24,LSS
      000123 000037 0000 77 010NN   218        NDSC9   .ELF,0,63,LSF
                        000124      219 E.DONE NULL                  EXPONENT CONVERSION COMPLETED
      000124 000026 2340 00 010NN   220        SZN     EXSIGN           WAS NUMBER FRACTIONAL
      000125 000133 6040 00 010NN   221        TMI     FRACT               YES
      000126 400200 2264 00         222        MP3D    (0,0,0),(0,0,0),(0,0,0),RND,PLUS

      000127 000027 0100 30 010NN   223        NDSC9   DECVAL,0,24,LSS
      000130 000037 0000 77 010NN   224        NDSC9   .ELF,0,63,LSF
      000131 000010 0400 40 010NN   225        NDSC4   RESULT,0,32,LSF
      000132 000141 7100 00 010NN   226        TRA     FINISH
                        000133      227 FRACT  NULL
      000133 000001 6150 04         228        TEU     1,IC             CLEAR EXP UFL INDICATOR
      000134 400200 2274 00         229        DV3D    (0,0,0),(0,0,0),(0,0,0),RND,PLUS
      000135 000037 0000 77 010NN   230        NDSC9   .ELF,0,63,LSF
      000136 000027 0100 30 010NN   231        NDSC9   DECVAL,0,24,LSS
      000137 000010 0400 40 010NN   232        NDSC4   RESULT,0,32,LSF
      000140 000163 6150 00 010NN   233        TEU     UFLOW            SORRY, NUMBER TOO SMALL
                        000141      234 FINISH NULL
      000141 500000 2351 00         235        LDA     0,,5
      000142 077777 3750 07         236        ANA     =O0077777,DL
      000143 600000 2750 03         237        ORA     =O600000,DU
      000144 000072 7550 00 010NN   238        STA     RESDES
      000145 000021 2340 00 010NN   239        SZN     TRUNCT            TRUNCATE OR ROUND?
      000146 000153 6010 00 010NN   240        TNZ     TRUNC             TRUNCATE.
      000147 000320 3004 00         241        MVN     (0,0,0),(1,0,IND),RND
      000150 000010 0400 40 010NN   242        NDSC4   RESULT,0,32,LSF
      000151 000072 000000  010NN   243        ZERO    RESDES
      000152 000156 7100 00 010NN   244        TRA     REREGS
                        000153      245 TRUNC  NULL
      000153 000120 3004 00         246        MVN     (0,0,0),(1,0,IND)  TRUNCATE
      000154 000010 0400 40 010NN   247        NDSC4   RESULT,0,32,LSF
      000155 000072 000000  010NN   248        ZERO    RESDES
                        000156      249 REREGS NULL
      000156 000000 0730 00 010NN   250        LREG    REG               RECOVER REGISTERS
      000157 000071 4774 00 010NN   251        LDP7    PR7               RESTORES POINTER REG 7
      000160 000070 4764 00 010NN   252        LDP6    PR6               RESTORES POINTER REG 6
      000161 000067 4754 00 010NN   253        LDP5    PR5               RESTORES POINTER REG 5
      000162 000001 7100 11         254        TRA     1,1                RETURN
                                    255 *
      000163 000200 6304 00 010NN   256 UFLOW  EPPR0   UFLPTR
      000164 000202 6314 00 010NN   257        EPPR1   ONEARG
      000165 000000 7010 00 020NN   258        TSX1    X8ER
      000166 000000 0110 07         259        NOP     ,DL

      000167 000031 7100 00 010NN   260        TRA     UFLOW1
                                    261 *
                                    262 *
                                    263 *      CVRD    CONSTANTS
                                    264 *
                                    265 *
      000170 043141030062           266 TWO71  EDEC    22P2361183241434822606848
      000171 101103110042
      000172 140150110000
                                    267
                                    268
      000173 053060060061           269 DECLS1 ASCII   1,+001
      000174 053060060060           270 DECLSO ASCII   1,+000
      000175 000000011007
      000176 777777777777           271 ALMONEEDEC     -1,-1
      000177 777777777777
      000200 000201000000   01000   272 UFLPTR PTR     .X9RD,UFLMSG
      000201 000000000062           273 UFLMSG DEC     50               %EXP_TOO_SMALL
      000202 000001 000000          274 ONEARG ZERO    1,0
                                    275
                        000001      276 LSS    EQU     1
                        000000      277 LSF    EQU     0
                        000001      278 PLUS   EQU     1
                        000001      279 RND    EQU     1
                        000003      280 NS     EQU     3
                        000001      281 IND    EQU     1
                                    282 *
                                    283 *
                                    284 *        CVRD   DEFINITION OF TEMP STORAGE
                                    285 *
                                    286 *
                        000000      287        SECT    .X9RD.,DATA
                                    288 *
                        000000      289 REG   8BSS     8
                        000010      290 RESULT BSS     8
                        000020      291 ORIGEX BSS     1
                        000021      292 TRUNCT BSS     1               0 = ROUND, > 0 = TRUNCATE

                        000022      293 VALUE EBSS     2
                        000024      294 NEGEXP BSS     1
                        000025      295 POSEXP BSS     1
                        000026      296 EXSIGN BSS     1
                        000027      297 DECVAL BSS     8
                        000037      298 .ELF   BSS     16
                                    299
                        000060      300 .EVAL EBSS     2
                        000062      301 .ATMP1 BSS     3
                        000065      302 DESC2  BSS     1
                        000066      303 INPT7  BSS     1
                        000067      304 PR5    BSS     1
                        000070      305 PR6    BSS     1
                        000071      306 PR7    BSS     1
                        000072      307 RESDES BSS     1
                                    308        END
 GMAP6 VERSION/ASSEMBLY DATES  JNPA NO TTL/2(_00]      JNPB NO TTL/2(_00]      JNPC NO TTL/2(_00]
 THERE WERE    NO  WARNING FLAGS IN THE ABOVE ASSEMBLY

                             OCTAL    SYMBOL   * KIND *      REFERENCES BY ALTER NO. AN
   176   ALMONE   REL   .X9RD    271  127R  129R  271
   102   CONT     REL   .X9RD    196  196   204T
    12   CVQD     REL   .X9RD     86   64    86
    13   CVQD.S   REL   .X9RD     88   84T   88
    10   CVQDT    REL   .X9RD     82   66    82
     0   CVRD     REL   .X9RD     69   63    69
     1   CVRD.S   REL   .X9RD     71   71    80T
     6   CVRDT    REL   .X9RD     78   65    78
   173   DECLS1   REL   .X9RD    269  193D  269
   174   DECLSO   REL   .X9RD    270  108D  270
    27   DECVAL   REL   .X9RD.   297  179D  223D  231D  297
    65   DESC2    REL   .X9RD.   302  302
   124   E.DONE   REL   .X9RD    219  197T  219
    26   EXSIGN   REL   .X9RD.   296  159W  220R  296
   141   FINISH   REL   .X9RD    234  110T  226T  234
   133   FRACT    REL   .X9RD    227  221T  227
    17   GTDATA   REL   .X9RD     93   76T   93
     1   IND      ABS            281  241   246   281
    66   INPT7    REL   .X9RD.   303  303
    62   .ATMP1   REL   .X9RD.   301  215D  217D  301
    37   .ELF     REL   .X9RD.   298  194D  202D  218D  224D  230D  298
    60   .EVAL    REL   .X9RD.   300  209W  214   300
  6000   .X9RD    SEC   SECT       8    8   272
  6001   .X9RD.   SEC   SECT     287  287
   112   LESS71   REL   .X9RD    205  199T  205
     0   LSF      ABS            277  109   194   202   218   224   225   230   232   242   247   277
     1   LSS      ABS            276  108   179   193   215   217   223   231   276
    24   NEGEXP   REL   .X9RD.   294  140W  141W  142R  152R  154W  157R  294
    35   NOTZER   REL   .X9RD    111  104T  111
     3   NS       ABS            280  201   280
   202   ONEARG   REL   .X9RD    274  257   274
    20   ORIGEX   REL   .X9RD.   291  112W  155R  165W  195R  291
     1   PLUS     ABS            278  107   192   222   229   278
    25   POSEXP   REL   .X9RD.   295  143W  144R  295
    67   PR5      REL   .X9RD.   304   96W  253R  304

                             OCTAL    SYMBOL   * KIND *      REFERENCES BY ALTER NO. AN
    70   PR6      REL   .X9RD.   305   95W  252R  305
    71   PR7      REL   .X9RD.   306   73W   90W  251R  306
    24   REDIGO   REL   .X9RD     99   99
     0   REG      REL   .X9RD.   289   72W   89W  250R  289
   156   REREGS   REL   .X9RD    249  244T  249
    72   RESDES   REL   .X9RD.   307  238W  243   248   307
    10   RESULT   REL   .X9RD.   290  102D  109D  225D  232D  242D  247D  290
     1   RND      ABS            279  107   192   200   216   222   229   241   279
   153   TRUNC    REL   .X9RD    245  240T  245
    21   TRUNCT   REL   .X9RD.   292   70W   79W   83W   87W  239R  292
   170   TWO71    REL   .X9RD    266  201D  266
   201   UFLMSG   REL   .X9RD    273  272   273
    31   UFLOW1   REL   .X9RD    106  106   260T
   163   UFLOW    REL   .X9RD    256  233T  256
   200   UFLPTR   REL   .X9RD    272  256   272
    22   VALUE    REL   .X9RD.   293   94W  126W  133R  145R  148W  178   293
NO VAL   X8ER     EXT   SYMREF         67   258T
