
     DIRECTORY AND SEGMENT LIST  (OBJECT UNIT NAME '')

      * SYMDEF *        GLOBAL NAME               SEGMENT  OFFSET      ACCESS ATTRIBUTES
     1  X9RW   'X9RW'                              .X9RW       0          R  W  E  L  U

      * COMMON SECTION *  GLOBAL NAME                       SIZE          KIND                  ATTRIBUTES
     2  LIBCOM 'LIBCOM'                                       24           DATA

      * SYMREF *        GLOBAL NAME                                    ACCESS ATTRIBUTES
     3  XITINX 'X9OS$EXIT_INDEX'                                          R  W NE  L  U
     4  X9USPR 'X9WE$RW_USE_PROC'                                         R  W  E  L  U
     5  X8ER   'X8ER$ERROR'                                               R  W  E  L  U

      * SECTION *          SIZE          KIND
     6  .X9RW              1400           CODE
     7  .X9RW.               70          CDATA


     PROGRAM BREAK        1514

                                      1 *M*
                                      2 *T***********************************************************
                                      3 *T*                                                         *
                                      4 *T* COPYRIGHT (C) BULL HN INFORMATION SYSTEMS INC., 1997    *
                                      5 *T*                                                         *
                                      6 *T***********************************************************
                                              REPORT WRITER CONTROL SYSTEM   840403X9RW
                                                                    X9RW REPORT-WRITER
                        000000        9        ENTDEF  X9RW
                        000000       10        SECT    .X9RW,CODE
                        000000       11 RWRHOF EQU     0             REPORT HEADING GROUP TABLE
                        000001       12 RWRFOF EQU     1             REPORT FOOTING GROUP TABLE
                        000002       13 RWPHOF EQU     2             PAGE HEADING GROUP TABLE
                        000003       14 RWPFOF EQU     3             PAGE FOOTING GROUP TABLE
                        000004       15 RWALIN EQU     4             ACTUAL LINE-COUNTER
                        000005       16 RWCTR  EQU     5             CONTROL LEVEL COUNTER
                        000006       17 RWFDOF EQU     6             FIRST DETAIL GROUP TABLE
                        000007       18 RWFDGI EQU     7             FIRST DETAIL WITH GROUP INDICATE
                        000010       19 RWGSS  EQU     8             GENERAL SUBTOTAL SUBROUTINE
                        000011       20 RWCBS  EQU     9             CONTROL BREAK SENSE SUBROUTINE
                        000012       21 RWCIN  EQU     10            SHADOW ITEM INITIALIZATION SUBROUTINE
                        000013       22 RWCSW  EQU     11            SHADOW ITEM SWAPBACK SUBROUTINE
                        000014       23 RWTPS  EQU     12            TOP-OF-PAGE SUBROUTINE
                        000015       24 RWLNCT EQU     13            LINE-COUNTER
                        000016       25 RWPGCT EQU     14            PAGE-COUNTER
                        000017       26 RWCBLV EQU     15            CONTROL BREAK LEVEL COUNTER
                        000020       27 RWSNGI EQU     16            SAVE NEXT GROUP INTEGER
                        000021       28 RWPLM  EQU     17            PAGE LIMIT
                        000022       29 RWHD   EQU     18            HEADING
                        000023       30 RWFDT  EQU     19            FIRST DETAIL
                        000024       31 RWLDT  EQU     20            LAST DETAIL
                        000025       32 RWFT   EQU     21            FOOTING
                        000026       33 RWAA   EQU     22            AFTER ADVANCING
                        000027       34 RWNCI  EQU     23            NUMBER OF CONTROL ITEMS
                        000030       35 RWCW   EQU     24            REPORT WRITER CONTROL WORD
                        000031       36 RWCHCF EQU     25            CONTROL HEADING CONTROL FOOTING TABLE
                        000000       37 RWUP   EQU     0             USE PROCEDURE
                        000001       38 RWSPPR EQU     1             SUPPRESS SWITCH
                        000002       39 RWFS   EQU     2             FORMATTING SUBROUTINE
                        000003       40 RWLNTP EQU     3             FIRST LINE TYPE
                        000004       41 RWLN   EQU     4             FIRST LINE INTEGER
                        000005       42 RWTLN  EQU     5             TOTAL GROUP SIZE
                        000006       43 RWNGTP EQU     6             NEXT GROUP LINE TYPE
                                              REPORT WRITER CONTROL SYSTEM   840403X9RW
                                                                    X9RW REPORT-WRITER
                        000007       44 RWNG   EQU     7             NEXT GROUP LINE INTEGER
                        000010       45 RWSS   EQU     8             SPECIAL SUBTOTAL SUBROUTINE
                        000011       46 RWGILK EQU     9             GROUP INDICATE LINK
                        000012       47 RWCTAD EQU     10            RWCT ADDRESS
                        000013       48 RWGISW EQU     11            GROUP INDICATE SWITCH ADDRESS
                        000000       49 RWCHOF EQU     0             CONTROL HEADING GROUP TABLE
                        000001       50 RWCFOF EQU     1             CONTROL FOOTING GROUP TABLE
                        000002       51 RWRSET EQU     2             RESET SUBROUTINE
                        000003       52 RWCRS  EQU     3             CROSS FOOTING ROLLING FORWARD SUBROUTINE
                        000004       53 RWSUMC EQU     4             SUM COUNTER CLEAR SUBROUTINE
                                     54 *
                        000000       55        SYMREF  (XITINX,X9OS$EXIT_INDEX)
                        000000       56        ENTREF  (X9USPR,X9WE$RW_USE_PROC)
                        000000       57        ENTREF  (X8ER,X8ER$ERROR)
                                              REPORT WRITER CONTROL SYSTEM   840403X9RW
                                                                    X9RW REPORT-WRITER
                        000000       59 X9RW   NULL
      000000 000000 7530 00 010NN    60        SREG    RWWKAR        SAVE REGISTERS
      000001 000001 0210 03          61        ADLX1   1,DU          JUMP AROUND CP-6 ALTRETURN.
      000002 000032 7410 00 010NN    62        STX1    RWCSXX        STORE RETURN ADDRESS
      000003 000000 2351 00          63        LDA     0,,0          PICK UP ARG1
      000004 000025 7550 00 010NN    64        STA     RWCWK1        SAVE ARG1 ... TABLE ADDRESS
      000005 000000 6220 01          65        EAX2    ,AU
      000006 000001 2351 51          66        LDA     1,I,0         PICK UP ARG2
      000007 000026 7550 00 010NN    67        STA     RWCWK2        SAVE ARG2 ... VERB TYPE
      000010 000003 1150 07          68        CMPA    3,DL          IS IT GENERATE DETAIL GROUP
      000011 000013 6010 00 010NN    69        TNZ     NOTDGT        NO
      000012 000012 2220 12          70        LDX2    RWCTAD,2      YES, GET ACTUAL RWCT ADDRESS
      000013 000042 4420 00 010NN    71 NOTDGT SXL2    RWWK1
      000014 000027 2360 12          72        LDQ     RWNCI,2
      000015 000005 4020 07          73        MPY     5,DL          5 WORDS FOR EACH CONTROL TABLE
      000016 000042 0760 00 010NN    74        ADQ     RWWK1         ADJUST THE TABLE ADDRESS
      000017 000032 2360 06          75        LDQ     RWCHCF+1,QL   GET FAB$
      000020 000023 7560 00 010NN    76        STQ     RWFAB
      000021 000026 2350 00 010NN    77        LDA     RWCWK2
      000022 000023 7100 05 010NN    78        TRA     *+1,AL        BRANCH
      000023 000027 7100 00 010NN    79        TRA     RWINIT        INITIALIZE
      000024 000054 7100 00 010NN    80        TRA     RWTERM        TERMINATE
      000025 000241 7100 00 010NN    81        TRA     RWGENR        GENERATE REPORT-NAME
      000026 000125 7100 00 010NN    82        TRA     RWGEND        GENERATE DETAIL GROUP
                                              REPORT WRITER CONTROL SYSTEM   840403X9RW
                                                                    X9RW REPORT-WRITER
      000027 000311 6350 00 010NN    84 RWINIT EAA     RWCSX         EXIT ADDRESS
      000030 000027 7510 70 010NN    85        STCA    RWINI2,70
      000031 000025 2220 00 010NN    86        LDX2    RWCWK1        X2 ... RWCT ADDRESS
      000032 000030 2350 12          87        LDA     RWCW,2        REPORT CONTROL WORD
      000033 000033 3150 00 010NN    88        CANA    RWRAO         IS THIS REPORT ACTIVE
      000034 000042 6000 00 010NN    89        TZE     RWINI1
      000035 001371 6304 00 010NN    90        EPPR0   PTRBK1         THIS REPORT IS ALREADY ACTIVE.
      000036 001374 6314 00 010NN    91        EPPR1   NUMARG
      000037 000000 7010 00 020NN    92        TSX1    X8ER
      000040 000000 0110 07          93        NOP     0,DL
      000041 000311 7100 00 010NN    94        TRA     RWCSX
      000042 000016 4500 32          95 RWINI1 STZ     RWPGCT,2*
      000043 000001 2350 07          96        LDA     1,DL
      000044 000004 7550 12          97        STA     RWALIN,2  SET LINE COUNT TO 1
      000045 000010 7530 00 010NN    98        SREG    RWUPXS      SAVE X REGS
      000046 000014 7000 32          99        TSX0    RWTPS,2*    GENERATE TOP-OF-PAGE
      000047 000010 0730 00 010NN   100        LREG    RWUPXS
      000050 001314 7010 00 010NN   101        TSX1    RWSMCL
      000051 000040 2350 00 010NN   102        LDA     RWINIO
      000052 000030 7550 12         103        STA     RWCW,2
      000053 000027 7100 00 010NN   104        TRA     RWINI2
                                              REPORT WRITER CONTROL SYSTEM   840403X9RW
                                                                    X9RW REPORT-WRITER
      000054 000025 2220 00 010NN   106 RWTERM LDX2    RWCWK1        RWCT ADDRESS
      000055 000030 2350 12         107        LDA     RWCW,2
      000056 000033 3150 00 010NN   108        CANA    RWRAO         IS THIS REPORT ACTIVE
      000057 000065 6010 00 010NN   109        TNZ     RWTER1
      000060 001372 6304 00 010NN   110        EPPR0   PTRBK2         THIS REPORT WAS NEVER ACTIVE.
      000061 001374 6314 00 010NN   111        EPPR1   NUMARG
      000062 000000 7010 00 020NN   112        TSX1    X8ER
      000063 000000 0110 07         113        NOP     0,DL
      000064 000311 7100 00 010NN   114        TRA     RWCSX
                        000065      115 RWTER1 NULL
      000065 000034 3150 00 010NN   116        CANA    RWFGO         WAS THERE ANY REPORT
      000066 000112 6010 00 010NN   117        TNZ     RWTER4
      000067 000027 2340 12         118        SZN     RWNCI,2
      000070 000077 6000 00 010NN   119        TZE     RWTER2
      000071 000001 2350 07         120        LDA     1,DL
      000072 000017 7550 32         121        STA     RWCBLV,2*
      000073 000013 2340 12         122        SZN     RWCSW,2
      000074 000076 6000 00 010NN   123        TZE     RWTER5
      000075 000013 7000 32         124        TSX0    RWCSW,2*
      000076 000551 7010 00 010NN   125 RWTER5 TSX1    RWCFSQ
      000077 000003 2240 12         126 RWTER2 LDX4    RWPFOF,2
      000100 000102 6000 00 010NN   127        TZE     RWTER3
      000101 001172 7010 00 010NN   128        TSX1    RWPF          PAGE FOOTING
      000102 000001 2240 12         129 RWTER3 LDX4    RWRFOF,2
      000103 000112 6000 00 010NN   130        TZE     RWTER4
      000104 001234 7010 00 010NN   131        TSX1    RWRF          REPORT FOOTING
      000105 000013 2340 12         132        SZN     RWCSW,2
      000106 000112 6000 00 010NN   133        TZE     RWTER4
      000107 000013 7000 32         134        TSX0    RWCSW,2*
      000110 000012 7000 32         135        TSX0    RWCIN,2*
      000111 000025 2220 00 010NN   136        LDX2    RWCWK1        IN CASE X2 NOT PRESERVED
      000112 000030 4500 12         137 RWTER4 STZ     RWCW,2        RESET THE REPORT CONTROL WORD
      000113 000015 2350 32         138        LDA     RWLNCT,2*
      000114 000016 2360 32         139        LDQ     RWPGCT,2*
      000115 000030 7570 00 010NN   140        STAQ    RWTERW
                                              REPORT WRITER CONTROL SYSTEM   840403X9RW
                                                                    X9RW REPORT-WRITER
      000116 000010 7530 00 010NN   141        SREG    RWUPXS      SAVE REGISTERS
      000117 000014 7000 32         142        TSX0    RWTPS,2*     GENERATE TOP-OF-PAGE
      000120 000010 0730 00 010NN   143        LREG    RWUPXS
      000121 000030 2370 00 010NN   144        LDAQ    RWTERW
      000122 000015 7550 32         145        STA     RWLNCT,2*
      000123 000016 7560 32         146        STQ     RWPGCT,2*
      000124 000311 7100 00 010NN   147        TRA     RWCSX         RETURN
                                              REPORT WRITER CONTROL SYSTEM   840403X9RW
                                                                    X9RW REPORT-WRITER
      000125 000025 2230 00 010NN   149 RWGEND LDX3    RWCWK1        GROUP TABLE ADDRESS
      000126 000024 7430 00 010NN   150        STX3    HOLDX3
      000127 000012 2220 13         151        LDX2    RWCTAD,3      RWCT ADDRESS
      000130 000030 2350 12         152        LDA     RWCW,2
      000131 000033 3150 00 010NN   153        CANA    RWRAO         IS THIS REPORT ACTIVE
      000132 000140 6010 00 010NN   154        TNZ     RWGEN1
      000133 001373 6304 00 010NN   155        EPPR0   PTRBK3         THIS REPORT IS NOT ACTIVE --
      000134 001374 6314 00 010NN   156        EPPR1   NUMARG         GENERATION NOT POSSIBLE.
      000135 000000 7010 00 020NN   157        TSX1    X8ER
      000136 000000 0110 07         158        NOP     0,DL
      000137 000311 7100 00 010NN   159        TRA     RWCSX
                        000140      160 RWGEN1 NULL
      000140 000034 3150 00 010NN   161        CANA    RWFGO         IS THIS THE FIRST GENERATE
      000141 000211 6010 00 010NN   162        TNZ     RWFSTG
      000142 000011 2340 12         163 RWGENJ SZN     RWCBS,2
      000143 000155 6000 00 010NN   164        TZE     RWGEN2
      000144 000011 7000 32         165        TSX0    RWCBS,2*      CONTROL BREAK DETECTING
      000145 000017 2340 32         166        SZN     RWCBLV,2*
      000146 000155 6000 00 010NN   167        TZE     RWGEN2
      000147 000551 7010 00 010NN   168        TSX1    RWCFSQ        CONTROL FOOTING
      000150 000013 7000 32         169        TSX0    RWCSW,2*
      000151 000012 7000 32         170        TSX0    RWCIN,2*
      000152 000024 2230 00 010NN   171        LDX3    HOLDX3                                      #42812 AHW
      000153 000012 2220 13         172        LDX2    RWCTAD,3      IN CASE X2 NOT PRESERVED
      000154 001341 7010 00 010NN   173        TSX1    RWGIST        SET GROUP INDICATE SWITCH
      000155 000010 2340 12         174 RWGEN2 SZN     RWGSS,2
      000156 000160 6000 00 010NN   175        TZE     RWGEN3
      000157 000010 7000 32         176        TSX0    RWGSS,2*      GENERAL SUBTOTAL SUBROUTINE
                        000160      177 RWGEN3 NULL
      000160 000024 2230 00 010NN   178        LDX3    HOLDX3
      000161 000006 2340 12         179        SZN     RWFDOF,2   IS A DETAIL LINE SPECIFIED
      000162 000173 6000 00 010NN   180        TZE     RWGEN5
      000163 000010 2340 13         181        SZN     RWSS,3
      000164 000166 6000 00 010NN   182        TZE     RWGEN4
      000165 000010 7000 33         183        TSX0    RWSS,3*       SPECIAL SUBTOTAL SUBROUTINE
                                              REPORT WRITER CONTROL SYSTEM   840403X9RW
                                                                    X9RW REPORT-WRITER
      000166 000000 2340 13         184 RWGEN4 SZN     RWUP,3
      000167 000173 6000 00 010NN   185        TZE     RWGEN5
      000170 000001 4500 13         186        STZ     RWSPPR,3
      000171 000000 6240 13         187        EAX4    ,3
      000172 001347 7010 00 010NN   188        TSX1    CALUSE        USE BEFORE REPORTING SECTION
      000173 000017 2340 12         189 RWGEN5 SZN     RWCBLV,2
      000174 000200 6000 00 010NN   190        TZE     RWGEN9
      000175 000017 2340 32         191        SZN     RWCBLV,2*
      000176 000200 6000 00 010NN   192        TZE     RWGEN9
      000177 000507 7010 00 010NN   193        TSX1    RWCHSQ
                        000200      194 RWGEN9 NULL
      000200 000024 2230 00 010NN   195        LDX3    HOLDX3  X3 POINTS TO DETAIL GROUP
      000201 000001 2340 13         196        SZN     RWSPPR,3   IS THE SUPPRESS INDICATOR ON
      000202 000311 6010 00 010NN   197        TNZ     RWCSX       YES
                        000203      198 RGEN9A NULL
      000203 000026 2350 00 010NN   199        LDA     RWCWK2
      000204 000002 1150 07         200        CMPA    2,DL
      000205 000311 6000 00 010NN   201        TZE     RWCSX
      000206 000644 7010 00 010NN   202        TSX1    RWBG          PRESENT DETAIL REPORT GROUP
      000207 000000000004           203        DEC     4
      000210 000311 7100 00 010NN   204        TRA     RWCSX         RETURN
      000211 000034 3350 00 010NN   205 RWFSTG LCA     RWFGO
      000212 000001 1750 07         206        SBA     1,DL
      000213 000030 3550 12         207        ANSA    RWCW,2        RESET THE FIRST GENERATE BIT
      000214 001341 7010 00 010NN   208        TSX1    RWGIST        SET GROUP INDICATE SWITCH
      000215 000012 2340 12         209        SZN     RWCIN,2
      000216 000222 6000 00 010NN   210        TZE     RWGEN6
      000217 000012 7000 32         211        TSX0    RWCIN,2*
      000220 000024 2230 00 010NN   212        LDX3    HOLDX3                                      #42812 AHW
      000221 000012 2220 13         213        LDX2    RWCTAD,3      IN CASE X2 NOT PRESERVED
      000222 000000 2240 12         214 RWGEN6 LDX4    RWRHOF,2
      000223 000225 6000 00 010NN   215        TZE     RWGEN7
      000224 000313 7010 00 010NN   216        TSX1    RWRH          PRESENT REPORT HEADING
      000225 000002 2240 12         217 RWGEN7 LDX4    RWPHOF,2
      000226 000230 6000 00 010NN   218        TZE     RWGEN8
                                              REPORT WRITER CONTROL SYSTEM   840403X9RW
                                                                    X9RW REPORT-WRITER
      000227 000421 7010 00 010NN   219        TSX1    RWPH          PRESENT PAGE HEADING
      000230 000027 2340 12         220 RWGEN8 SZN     RWNCI,2
      000231 000155 6000 00 010NN   221        TZE     RWGEN2
      000232 000001 2350 07         222        LDA     1,DL
      000233 000017 7550 32         223        STA     RWCBLV,2*
      000234 000035 2350 00 010NN   224        LDA     RWFBGO
      000235 000030 2550 12         225        ORSA    RWCW,2
      000236 000507 7010 00 010NN   226        TSX1    RWCHSQ        CONTROL BREAK AT THE HIGHEST LEVEL
      000237 000017 4500 32         227        STZ     RWCBLV,2*
      000240 000155 7100 00 010NN   228        TRA     RWGEN2
                                              REPORT WRITER CONTROL SYSTEM   840403X9RW
                                                                    X9RW REPORT-WRITER
      000241 000025 2220 00 010NN   230 RWGENR LDX2    RWCWK1        GENERATE REPORT-NAME
      000242 000030 2350 12         231        LDA     RWCW,2
      000243 000033 3150 00 010NN   232        CANA    RWRAO         IS THIS REPORT ACTIVE
      000244 000252 6010 00 010NN   233        TNZ     RWGENA
      000245 001373 6304 00 010NN   234        EPPR0   PTRBK3         THIS REPORT IS NOT ACTIVE --
      000246 001374 6314 00 010NN   235        EPPR1   NUMARG         GENERATION NOT POSSIBLE.
      000247 000000 7010 00 020NN   236        TSX1    X8ER
      000250 000000 0110 07         237        NOP     0,DL
      000251 000311 7100 00 010NN   238        TRA     RWCSX
                        000252      239 RWGENA NULL
      000252 000034 3150 00 010NN   240        CANA    RWFGO
      000253 000257 6010 00 010NN   241        TNZ     RWGENC
      000254 000006 2230 12         242        LDX3    RWFDOF,2
      000255 000024 7430 00 010NN   243        STX3    HOLDX3
      000256 000142 7100 00 010NN   244        TRA     RWGENJ
      000257 000034 3350 00 010NN   245 RWGENC LCA     RWFGO         FIRST GENERATE
      000260 000001 1750 07         246        SBA     1,DL
      000261 000030 3550 12         247        ANSA    RWCW,2
      000262 001341 7010 00 010NN   248        TSX1    RWGIST
      000263 000012 2340 12         249        SZN     RWCIN,2
      000264 000267 6000 00 010NN   250        TZE     RWGENG
      000265 000012 7000 32         251        TSX0    RWCIN,2*
      000266 000025 2220 00 010NN   252        LDX2    RWCWK1        IN CASE X2 NOT PRESERVED
      000267 000000 2240 12         253 RWGENG LDX4    RWRHOF,2
      000270 000272 6000 00 010NN   254        TZE     RWGENE
      000271 000313 7010 00 010NN   255        TSX1    RWRH          PRESENT REPORT HEADING
      000272 000002 2240 12         256 RWGENE LDX4    RWPHOF,2
      000273 000275 6000 00 010NN   257        TZE     RWGENF
      000274 000421 7010 00 010NN   258        TSX1    RWPH          PRESENT PAGE HEADING
      000275 000027 2340 12         259 RWGENF SZN     RWNCI,2
      000276 000303 6000 00 010NN   260        TZE     RWGENH
      000277 000001 2350 07         261        LDA     1,DL
      000300 000017 7550 32         262        STA     RWCBLV,2*
      000301 000507 7010 00 010NN   263        TSX1    RWCHSQ        HIGHEST CONTROL BREAK
      000302 000017 4500 32         264        STZ     RWCBLV,2*
                                              REPORT WRITER CONTROL SYSTEM   840403X9RW
                                                                    X9RW REPORT-WRITER
      000303 000010 2350 12         265 RWGENH LDA     RWGSS,2
      000304 000306 6000 00 010NN   266        TZE     RWGENB
      000305 000010 7000 32         267        TSX0    RWGSS,2*      GENERAL SUBTOTAL SUBROUTINE
      000306 000006 2230 12         268 RWGENB LDX3    RWFDOF,2
      000307 000024 7430 00 010NN   269        STX3    HOLDX3
      000310 000166 6010 00 010NN   270        TNZ     RWGEN4        PROCESS THE DETAIL GROUP
                        000311      271 RWCSX  EQU     *
      000311 000000 0730 00 010NN   272        LREG    RWWKAR        RESTORE REGISTERS
      000312 000032 7100 00 010NN   273        TRA     RWCSXX
                                              REPORT WRITER CONTROL SYSTEM   840403X9RW
                                                                    X9RW REPORT-WRITER
      000313 000044 7410 00 010NN   275 RWRH   STX1    RWRHX
      000314 000000 2340 14         276        SZN     RWUP,4
      000315 000322 6000 00 010NN   277        TZE     RWRH7
      000316 000001 4500 14         278        STZ     RWSPPR,4
      000317 001347 7010 00 010NN   279        TSX1    CALUSE        USE BEFORE REPORTING SECTION
      000320 000001 2340 14         280        SZN     RWSPPR,4
      000321 000044 6010 00 010NN   281        TNZ     RWRHX
      000322 000021 2340 12         282 RWRH7  SZN     RWPLM,2
      000323 000402 6000 00 010NN   283        TZE     RWRH1
      000324 000003 2350 14         284        LDA     RWLNTP,4
      000325 000001 1150 07         285        CMPA    1,DL
      000326 000340 6000 00 010NN   286        TZE     RWRH2
      000327 000002 1150 07         287        CMPA    2,DL
      000330 000044 6010 00 010NN   288        TNZ     RWRHX
      000331 000004 2350 14         289        LDA     RWLN,4
      000332 000022 0750 12         290        ADA     RWHD,2
      000333 000001 1750 07         291        SBA     1,DL
      000334 000015 7550 32         292        STA     RWLNCT,2*
      000335 000004 1750 12         293        SBA     RWALIN,2
      000336 000026 7550 32         294        STA     RWAA,2*
      000337 000344 7100 00 010NN   295        TRA     RWRH3
      000340 000004 2350 14         296 RWRH2  LDA     RWLN,4
      000341 000015 7550 32         297        STA     RWLNCT,2*
      000342 000004 1750 12         298        SBA     RWALIN,2
      000343 000026 7550 32         299        STA     RWAA,2*
      000344 000002 2340 14         300 RWRH3  SZN     RWFS,4
      000345 000044 6000 00 010NN   301        TZE     RWRHX
      000346 000010 7530 00 010NN   302        SREG    RWUPXS       SAVE REGISTERS
      000347 000002 7000 34         303        TSX0    RWFS,4*      EXECUTE FORMATTING SUBR.
      000350 000010 0730 00 010NN   304        LREG    RWUPXS
      000351 000036 2350 00 010NN   305        LDA     RWRHO
      000352 000030 2550 12         306        ORSA    RWCW,2
      000353 000015 2350 32         307        LDA     RWLNCT,2*
      000354 000004 7550 12         308        STA     RWALIN,2
      000355 000006 2350 14         309        LDA     RWNGTP,4
                                              REPORT WRITER CONTROL SYSTEM   840403X9RW
                                                                    X9RW REPORT-WRITER
      000356 000044 6000 00 010NN   310        TZE     RWRHX
      000357 000001 1150 07         311        CMPA    1,DL
      000360 000364 6010 00 010NN   312        TNZ     RWRH4
      000361 000007 2350 14         313        LDA     RWNG,4
      000362 000015 7550 32         314        STA     RWLNCT,2*
      000363 000044 7100 00 010NN   315        TRA     RWRHX
      000364 000002 1150 07         316 RWRH4  CMPA    2,DL
      000365 000371 6010 00 010NN   317        TNZ     RWRH5
      000366 000007 2350 14         318 RWRH6  LDA     RWNG,4
      000367 000015 0550 32         319        ASA     RWLNCT,2*
      000370 000044 7100 00 010NN   320        TRA     RWRHX
                        000371      321  RWRH5 NULL
      000371 000010 7530 00 010NN   322        SREG    RWUPXS     SAVE REGISTERS
      000372 000014 7000 32         323        TSX0    RWTPS,2*     GENERATE TOP-OF-PAGE
      000373 000010 0730 00 010NN   324        LREG    RWUPXS
      000374 000036 3350 00 010NN   325        LCA     RWRHO
      000375 000001 1750 07         326        SBA     1,DL
      000376 000030 3550 12         327        ANSA    RWCW,2
      000377 000001 2350 07         328        LDA     1,DL
      000400 000004 7550 12         329        STA     RWALIN,2  SET LINE COUNT TO 1
      000401 000044 7100 00 010NN   330        TRA     RWRHX
      000402 000004 2350 14         331 RWRH1  LDA     RWLN,4
      000403 000015 7550 32         332        STA     RWLNCT,2*
      000404 000004 1750 12         333        SBA     RWALIN,2
      000405 000026 7550 32         334        STA     RWAA,2*
      000406 000002 2340 14         335        SZN     RWFS,4
      000407 000044 6000 00 010NN   336        TZE     RWRHX
      000410 000010 7530 00 010NN   337        SREG    RWUPXS       SAVE REGISTERS
      000411 000002 7000 34         338        TSX0    RWFS,4*       EXECUTE FORMATTING SUBROUTINE
      000412 000010 0730 00 010NN   339        LREG    RWUPXS
      000413 000015 2350 32         340        LDA     RWLNCT,2*
      000414 000004 7550 12         341        STA     RWALIN,2
      000415 000006 2350 14         342        LDA     RWNGTP,4
      000416 000002 1150 07         343        CMPA    2,DL
      000417 000366 6000 00 010NN   344        TZE     RWRH6
                                              REPORT WRITER CONTROL SYSTEM   840403X9RW
                                                                    X9RW REPORT-WRITER
      000420 000044 7100 00 010NN   345        TRA     RWRHX
                                              REPORT WRITER CONTROL SYSTEM   840403X9RW
                                                                    X9RW REPORT-WRITER
                                    347 *****   THIS ROUTINE IS ENTERED TO GENERATE PAGE HEADINGS
                                    348 *********************************************************
      000421 000045 7410 00 010NN   349 RWPH   STX1    RWPHX
      000422 000000 2340 14         350        SZN     RWUP,4
      000423 000430 6000 00 010NN   351        TZE     RWPH4
      000424 000001 4500 14         352        STZ     RWSPPR,4
      000425 001347 7010 00 010NN   353        TSX1    CALUSE        USE BEFORE REPORTING SECTION
      000426 000001 2340 14         354        SZN     RWSPPR,4
      000427 000045 6010 00 010NN   355        TNZ     RWPHX
      000430 000003 2350 14         356 RWPH4  LDA     RWLNTP,4
      000431 000001 1150 07         357        CMPA    1,DL
      000432 000454 6010 00 010NN   358        TNZ     RWPH1
      000433 000004 2350 12         359        LDA     RWALIN,2        PICK UP ACTUAL LINE-COUNTER
      000434 000004 1750 14         360        SBA     RWLN,4          SUBTRACT ABSOLUTE LINE VALUE
      000435 000446 6040 00 010NN   361        TMI     RWPH5           ABSOLUTE GREATER THAN ACTUAL
      000436 000446 6000 00 010NN   362        TZE     RWPH5
      000437 000010 7530 00 010NN   363        SREG    RWUPXS       SAVE REGISTERS
      000440 000014 7000 32         364        TSX0    RWTPS,2*      GENERATE TOP-OF-PAGE
      000441 000010 0730 00 010NN   365        LREG    RWUPXS
      000442 000001 2350 07         366        LDA     1,DL
      000443 000004 7550 12         367        STA     RWALIN,2   SET LINE COUNT TO 1
      000444 000026 4500 32         368        STZ     RWAA,2*   CLEAR AFTER ADVANCING INDICATOR
      000445 000451 7100 00 010NN   369        TRA     RWPH6
                        000446      370 RWPH5  NULL
      000446 000004 2350 14         371        LDA     RWLN,4          PICK UP ABSOLUTE LINE VALUE
      000447 000004 1750 12         372        SBA     RWALIN,2        SUBTRACT ACTUAL LINE NUMBER
      000450 000026 7550 32         373        STA     RWAA,2*         STORE AFTER ADVANCING VALUE
                        000451      374 RWPH6  NULL
      000451 000004 2350 14         375        LDA     RWLN,4
      000452 000015 7550 32         376        STA     RWLNCT,2*
      000453 000477 7100 00 010NN   377        TRA     RWPH2
      000454 000002 1150 07         378 RWPH1  CMPA    2,DL
      000455 000045 6010 00 010NN   379        TNZ     RWPHX
      000456 000030 2350 12         380        LDA     RWCW,2
      000457 000036 3150 00 010NN   381        CANA    RWRHO
                                              REPORT WRITER CONTROL SYSTEM   840403X9RW
                                                                    X9RW REPORT-WRITER
      000460 000467 6010 00 010NN   382        TNZ     RWPH3
      000461 000004 2350 14         383        LDA     RWLN,4
      000462 000022 0750 12         384        ADA     RWHD,2
      000463 000001 1750 07         385        SBA     1,DL
      000464 000015 7550 32         386        STA     RWLNCT,2*
      000465 000026 7550 32         387        STA     RWAA,2*
      000466 000477 7100 00 010NN   388        TRA     RWPH2
                        000467      389 RWPH3  NULL
      000467 000015 2350 32         390        LDA     RWLNCT,2*       PICK UP LINE COUNTER
      000470 000004 0750 14         391        ADA     RWLN,4          ADD PAGE HEADING LINE NUMBER(RELATIVE)
      000471 000015 7550 32         392        STA     RWLNCT,2*
      000472 000004 1750 12         393        SBA     RWALIN,2
      000473 000026 7550 32         394        STA     RWAA,2*
      000474 000036 3350 00 010NN   395        LCA     RWRHO
      000475 000001 1750 07         396        SBA     1,DL
      000476 000030 3550 12         397        ANSA    RWCW,2
      000477 000002 2340 14         398 RWPH2  SZN     RWFS,4
      000500 000045 6000 00 010NN   399        TZE     RWPHX
      000501 000010 7530 00 010NN   400        SREG    RWUPXS       SAVE REGISTERS
      000502 000002 7000 34         401        TSX0    RWFS,4*      EXECUTE FORMATTING SUBR.
      000503 000010 0730 00 010NN   402        LREG    RWUPXS
      000504 000015 2350 32         403        LDA     RWLNCT,2*
      000505 000004 7550 12         404        STA     RWALIN,2
      000506 000045 7100 00 010NN   405        TRA     RWPHX
                                              REPORT WRITER CONTROL SYSTEM   840403X9RW
                                                                    X9RW REPORT-WRITER
      000507 000020 7410 00 010NN   407 RWCHSQ STX1    RWCHQS
      000510 000031 6350 12         408        EAA     RWCHCF,2
      000511 000042 7550 00 010NN   409        STA     RWWK1
      000512 000017 2360 32         410        LDQ     RWCBLV,2*
      000513 000022 7360 00         411        QLS     18
      000514 000005 4020 07         412        MPY     5,DL
      000515 000042 0760 00 010NN   413        ADQ     RWWK1
      000516 000012 1760 03         414        SBQ     10,DU
      000517 000042 7560 00 010NN   415        STQ     RWWK1
      000520 000017 2350 32         416        LDA     RWCBLV,2*
      000521 000005 7550 12         417 RWCHS1 STA     RWCTR,2
      000522 000027 1150 12         418        CMPA    RWNCI,2
      000523 000526 6040 00 010NN   419        TMI     RWCHS4
      000524 000526 6000 00 010NN   420        TZE     RWCHS4
      000525 000020 7100 00 010NN   421        TRA     RWCHQS
      000526 000042 2360 00 010NN   422 RWCHS4 LDQ     RWWK1
      000527 000005 0760 03         423        ADQ     5,DU
      000530 000042 7560 00 010NN   424        STQ     RWWK1
      000531 000000 2240 02         425        LDX4    0,QU
      000532 000541 6000 00 010NN   426        TZE     RWCHS2
      000533 000000 2340 14         427        SZN     RWUP,4
      000534 000544 6000 00 010NN   428        TZE     RWCHS3
      000535 000001 4500 14         429        STZ     RWSPPR,4
      000536 001347 7010 00 010NN   430        TSX1    CALUSE        USE BEFORE REPORTING SECTION
      000537 000001 2340 14         431        SZN     RWSPPR,4
      000540 000544 6000 00 010NN   432        TZE     RWCHS3
      000541 000005 2350 12         433 RWCHS2 LDA     RWCTR,2
      000542 000001 0750 07         434        ADA     1,DL          INCREMENT LEVEL COUNTER
      000543 000521 7100 00 010NN   435        TRA     RWCHS1
      000544 000002 2340 14         436 RWCHS3 SZN     RWFS,4
      000545 000541 6000 00 010NN   437        TZE     RWCHS2
      000546 000644 7010 00 010NN   438        TSX1    RWBG
      000547 000000000003           439        DEC     3
      000550 000541 7100 00 010NN   440        TRA     RWCHS2
                                              REPORT WRITER CONTROL SYSTEM   840403X9RW
                                                                    X9RW REPORT-WRITER
      000551 000021 7410 00 010NN   442 RWCFSQ STX1    RWCFQS
      000552 000031 6350 12         443        EAA     RWCHCF,2
      000553 000042 7550 00 010NN   444        STA     RWWK1
      000554 000027 2360 12         445        LDQ     RWNCI,2
      000555 000005 4020 03         446        MPY     5,DU
      000556 000042 0560 00 010NN   447        ASQ     RWWK1
      000557 000027 2350 12         448        LDA     RWNCI,2
      000560 000005 7550 12         449 RWCFS1 STA     RWCTR,2
      000561 000017 1150 32         450        CMPA    RWCBLV,2*
      000562 000021 7100 00 010NN   451        TRA     RWCFQS
      000563 000042 2360 00 010NN   452  RWWK  LDQ     RWWK1
      000564 000005 1760 03         453        SBQ     5,DU
      000565 000042 7560 00 010NN   454        STQ     RWWK1
      000566 000001 2240 02         455        LDX4    1,QU
      000567 000605 6000 00 010NN   456        TZE     RWCFS4
      000570 000003 2340 02         457        SZN     RWCRS,QU
      000571 000573 6000 00 010NN   458        TZE     RWCFS2
      000572 000003 7000 22         459        TSX0    RWCRS,QU*
      000573 000000 2340 14         460 RWCFS2 SZN     RWUP,4
      000574 000601 6000 00 010NN   461        TZE     RWCFS3
      000575 000001 4500 14         462        STZ     RWSPPR,4
      000576 001347 7010 00 010NN   463        TSX1    CALUSE        USE BEFORE REPORTING SECTION
      000577 000001 2340 14         464        SZN     RWSPPR,4
      000600 000605 6010 00 010NN   465        TNZ     RWCFS4
      000601 000002 2340 14         466 RWCFS3 SZN     RWFS,4
      000602 000605 6000 00 010NN   467        TZE     RWCFS4
      000603 000644 7010 00 010NN   468        TSX1    RWBG
      000604 000000000005           469        DEC     5
      000605 000042 2350 00 010NN   470 RWCFS4 LDA     RWWK1
      000606 000002 2340 01         471        SZN     RWRSET,AU
      000607 000611 6000 00 010NN   472        TZE     RWCFS5
      000610 000002 7000 21         473        TSX0    RWRSET,AU*
      000611 000042 2350 00 010NN   474 RWCFS5 LDA     RWWK1
      000612 000004 2340 01         475        SZN     RWSUMC,AU
      000613 000615 6000 00 010NN   476        TZE     RWCFS6
                                              REPORT WRITER CONTROL SYSTEM   840403X9RW
                                                                    X9RW REPORT-WRITER
      000614 000004 7000 21         477        TSX0    RWSUMC,AU*
      000615 000005 2350 12         478 RWCFS6 LDA     RWCTR,2
      000616 000001 1750 07         479        SBA     1,DL
      000617 000560 7100 00 010NN   480        TRA     RWCFS1
                                              REPORT WRITER CONTROL SYSTEM   840403X9RW
                                                                    X9RW REPORT-WRITER
      000620 000046 7410 00 010NN   482 RWPGAD STX1    RWPGAX
      000621 000047 7440 00 010NN   483        STX4    RWPGA1
      000622 000050 7570 00 010NN   484        STAQ    RWPGA2
      000623 000003 2240 12         485        LDX4    RWPFOF,2
      000624 000626 6000 00 010NN   486        TZE     RWPGA3
      000625 001172 7010 00 010NN   487        TSX1    RWPF
                        000626      488 RWPGA3 NULL
      000626 000010 7530 00 010NN   489        SREG    RWUPXS       SAVE REGISTERS
      000627 000014 7000 32         490        TSX0    RWTPS,2*      GENERATE TOP-OF-PAGE
      000630 000010 0730 00 010NN   491        LREG    RWUPXS
      000631 000001 2350 07         492        LDA     1,DL
      000632 000004 7550 12         493        STA     RWALIN,2  SET LINE COUNT TO 1
      000633 000002 2240 12         494        LDX4    RWPHOF,2
      000634 000636 6000 00 010NN   495        TZE     RWPGA4
      000635 000421 7010 00 010NN   496        TSX1    RWPH
      000636 000035 2350 00 010NN   497 RWPGA4 LDA     RWFBGO
      000637 000030 2550 12         498        ORSA    RWCW,2
      000640 001341 7010 00 010NN   499        TSX1    RWGIST
      000641 000050 2370 00 010NN   500        LDAQ    RWPGA2
      000642 000047 2240 00 010NN   501        LDX4    RWPGA1
      000643 000046 7100 00 010NN   502        TRA     RWPGAX
                                              REPORT WRITER CONTROL SYSTEM   840403X9RW
                                                                    X9RW REPORT-WRITER
      000644 000000 2350 11         504 RWBG   LDA     0,1
      000645 000053 7550 00 010NN   505        STA     RWBAG1
      000646 000001 0610 03         506        ADX1    1,DU
      000647 000052 7410 00 010NN   507        STX1    RWBGX
      000650 000004 1150 07         508        CMPA    4,DL
      000651 000654 6000 00 010NN   509        TZE     RWBG4
      000652 000043 7440 00 010NN   510        STX4    RWWK2
      000653 000655 7100 00 010NN   511        TRA     RWBG5
      000654 000043 7430 00 010NN   512 RWBG4  STX3    RWWK2
      000655 000043 2240 00 010NN   513 RWBG5  LDX4    RWWK2         SET X4 TO REPORT GROUP BASE
      000656 000021 2340 12         514        SZN     RWPLM,2       SPECIFIED PAGE CLAUSE
      000657 001061 6000 00 010NN   515        TZE     RWBG1         NO
      000660 000003 2350 14         516        LDA     RWLNTP,4
      000661 000052 6000 00 010NN   517        TZE     RWBGX
      000662 000001 1150 07         518        CMPA    1,DL
      000663 000775 6000 00 010NN   519        TZE     RWBG2
      000664 000003 1150 07         520        CMPA    3,DL
      000665 001026 6000 00 010NN   521        TZE     RWBG3
      000666 000030 2350 12         522 RWBG6  LDA     RWCW,2
      000667 000035 3150 00 010NN   523        CANA    RWFBGO
      000670 000730 6010 00 010NN   524        TNZ     RWBG7
      000671 000015 2360 32         525        LDQ     RWLNCT,2*
      000672 000005 0760 14         526        ADQ     RWTLN,4
      000673 000053 2350 00 010NN   527        LDA     RWBAG1
      000674 000005 1150 07         528        CMPA    5,DL
      000675 000701 6000 00 010NN   529        TZE     RWBG8
      000676 000024 1160 12         530        CMPQ    RWLDT,2
      000677 000710 6054 00 010NN   531        TPNZ    RWBG10
      000700 000703 7100 00 010NN   532        TRA     RWBG9
      000701 000025 1160 12         533 RWBG8  CMPQ    RWFT,2
      000702 000710 6054 00 010NN   534        TPNZ    RWBG10
      000703 000015 2350 32         535 RWBG9  LDA     RWLNCT,2*
      000704 000023 1150 12         536        CMPA    RWFDT,2
      000705 000712 6040 00 010NN   537        TMI     RWBG12
      000706 000004 0750 14         538        ADA     RWLN,4
                                              REPORT WRITER CONTROL SYSTEM   840403X9RW
                                                                    X9RW REPORT-WRITER
      000707 000713 7100 00 010NN   539        TRA     RWBG13
      000710 000620 7010 00 010NN   540 RWBG10 TSX1    RWPGAD
      000711 000666 7100 00 010NN   541        TRA     RWBG6
      000712 000023 2350 12         542 RWBG12 LDA     RWFDT,2
      000713 000015 7550 32         543 RWBG13 STA     RWLNCT,2*
      000714 000004 1750 12         544        SBA     RWALIN,2
      000715 000026 7550 32         545        STA     RWAA,2*
      000716 000002 2350 14         546        LDA     RWFS,4
      000717 000052 6000 00 010NN   547        TZE     RWBGX
      000720 000010 7530 00 010NN   548        SREG    RWUPXS       SAVE REGISTERS
      000721 000002 7000 34         549        TSX0    RWFS,4*      EXECUTING FORMATTING SUBROUTINE
      000722 000010 0730 00 010NN   550        LREG    RWUPXS
      000723 000043 2240 00 010NN   551        LDX4    RWWK2         RESTORE X4
      000724 001162 7010 00 010NN   552        TSX1    RWBGS
      000725 000015 2350 32         553        LDA     RWLNCT,2*
      000726 000004 7550 12         554        STA     RWALIN,2
      000727 001110 7100 00 010NN   555        TRA     RWBG11
                        000730      556 RWBG7  EQU     *
      000730 000020 2350 12         557        LDA     RWSNGI,2
      000731 000750 6000 00 010NN   558        TZE     RWBG14
      000732 000015 7550 32         559        STA     RWLNCT,2*
      000733 000001 0750 07         560        ADA     1,DL
      000734 000005 0750 14         561        ADA     RWTLN,4
      000735 000004 1750 14         562        SBA     RWLN,4
      000736 000053 2360 00 010NN   563        LDQ     RWBAG1
      000737 000005 1160 07         564        CMPQ    5,DL
      000740 000744 6000 00 010NN   565        TZE     RWBG15
      000741 000024 1150 12         566        CMPA    RWLDT,2
      000742 000747 6054 00 010NN   567        TPNZ    RWBG16
      000743 000750 7100 00 010NN   568        TRA     RWBG14
      000744 000025 1150 12         569 RWBG15 CMPA    RWFT,2
      000745 000747 6054 00 010NN   570        TPNZ    RWBG16
      000746 000750 7100 00 010NN   571        TRA     RWBG14
      000747 000620 7010 00 010NN   572 RWBG16 TSX1    RWPGAD
                        000750      573 RWBG14 EQU     *
                                              REPORT WRITER CONTROL SYSTEM   840403X9RW
                                                                    X9RW REPORT-WRITER
      000750 000015 2350 32         574        LDA     RWLNCT,2*
      000751 000023 1150 12         575        CMPA    RWFDT,2
      000752 000755 6040 00 010NN   576        TMI     RWBG17
      000753 000001 0750 07         577        ADA     1,DL
      000754 000756 7100 00 010NN   578        TRA     RWBG18
      000755 000023 2350 12         579 RWBG17 LDA     RWFDT,2
      000756 000015 7550 32         580 RWBG18 STA     RWLNCT,2*
      000757 000004 1750 12         581        SBA     RWALIN,2
      000760 000026 7550 32         582        STA     RWAA,2*
      000761 000002 2340 14         583        SZN     RWFS,4
      000762 000052 6000 00 010NN   584        TZE     RWBGX
      000763 000010 7530 00 010NN   585        SREG    RWUPXS       SAVE REGISTERS
      000764 000002 7000 34         586        TSX0    RWFS,4*      EXECUTE FORMATTING SUBR.
      000765 000010 0730 00 010NN   587        LREG    RWUPXS
      000766 000043 2240 00 010NN   588        LDX4    RWWK2         RESTORE X4
      000767 001162 7010 00 010NN   589        TSX1    RWBGS
      000770 000041 2350 00 010NN   590        LDA     RWFBGC
      000771 000030 3550 12         591        ANSA    RWCW,2
      000772 000015 2350 32         592        LDA     RWLNCT,2*
      000773 000004 7550 12         593        STA     RWALIN,2
      000774 001110 7100 00 010NN   594        TRA     RWBG11
      000775 000015 2350 32         595 RWBG2  LDA     RWLNCT,2*
      000776 000004 1150 14         596        CMPA    RWLN,4
      000777 001006 6040 00 010NN   597        TMI     RWBG19
      001000 000620 7010 00 010NN   598        TSX1    RWPGAD
      001001 000020 2350 12         599        LDA     RWSNGI,2
      001002 001006 6000 00 010NN   600        TZE     RWBG19
      001003 000015 7550 32         601        STA     RWLNCT,2*
      001004 000020 4500 12         602        STZ     RWSNGI,2
      001005 000775 7100 00 010NN   603        TRA     RWBG2
      001006 000004 2350 14         604 RWBG19 LDA     RWLN,4
      001007 000015 7550 32         605        STA     RWLNCT,2*
      001010 000004 1750 12         606        SBA     RWALIN,2
      001011 000026 7550 32         607        STA     RWAA,2*
      001012 000002 2340 14         608        SZN     RWFS,4
                                              REPORT WRITER CONTROL SYSTEM   840403X9RW
                                                                    X9RW REPORT-WRITER
      001013 000052 6000 00 010NN   609        TZE     RWBGX
      001014 000010 7530 00 010NN   610        SREG    RWUPXS       SAVE REGISTERS
      001015 000002 7000 34         611        TSX0    RWFS,4*      EXECUTE FORMATTING SUBR.
      001016 000010 0730 00 010NN   612        LREG    RWUPXS
      001017 000043 2240 00 010NN   613        LDX4    RWWK2         RESTORE X4
      001020 001162 7010 00 010NN   614        TSX1    RWBGS
      001021 000015 2350 32         615        LDA     RWLNCT,2*
      001022 000004 7550 12         616        STA     RWALIN,2
      001023 000041 2350 00 010NN   617        LDA     RWFBGC
      001024 000030 3550 12         618        ANSA    RWCW,2
      001025 001110 7100 00 010NN   619        TRA     RWBG11
      001026 000030 2350 12         620 RWBG3  LDA     RWCW,2
      001027 000035 3150 00 010NN   621        CANA    RWFBGO
      001030 001032 6010 00 010NN   622        TNZ     RWBG20
      001031 000620 7010 00 010NN   623        TSX1    RWPGAD
      001032 000020 2350 12         624 RWBG20 LDA     RWSNGI,2
      001033 001041 6000 00 010NN   625        TZE     RWBG21
      001034 000015 7550 32         626        STA     RWLNCT,2*
      001035 000020 4500 12         627        STZ     RWSNGI,2
      001036 000004 1150 14         628        CMPA    RWLN,4
      001037 001041 6040 00 010NN   629        TMI     RWBG21
      001040 000620 7010 00 010NN   630        TSX1    RWPGAD
      001041 000004 2350 14         631 RWBG21 LDA     RWLN,4
      001042 000015 7550 32         632        STA     RWLNCT,2*
      001043 000004 1750 12         633        SBA     RWALIN,2
      001044 000026 7550 32         634        STA     RWAA,2*
      001045 000002 2340 14         635        SZN     RWFS,4
      001046 000052 6000 00 010NN   636        TZE     RWBGX
      001047 000010 7530 00 010NN   637        SREG    RWUPXS       SAVE REGISTERS
      001050 000002 7000 34         638        TSX0    RWFS,4*       EXECUTE FORMATTING SUBR.
      001051 000010 0730 00 010NN   639        LREG    RWUPXS
      001052 000043 2240 00 010NN   640        LDX4    RWWK2         RESTORE X4
      001053 001162 7010 00 010NN   641        TSX1    RWBGS
      001054 000015 2350 32         642        LDA     RWLNCT,2*
      001055 000004 7550 12         643        STA     RWALIN,2
                                              REPORT WRITER CONTROL SYSTEM   840403X9RW
                                                                    X9RW REPORT-WRITER
      001056 000041 2350 00 010NN   644        LDA     RWFBGC
      001057 000030 3550 12         645        ANSA    RWCW,2
      001060 001110 7100 00 010NN   646        TRA     RWBG11
      001061 000015 2350 32         647 RWBG1  LDA     RWLNCT,2*
      001062 000004 0750 14         648        ADA     RWLN,4
      001063 000015 7550 32         649        STA     RWLNCT,2*
      001064 000004 1750 12         650        SBA     RWALIN,2
      001065 000026 7550 32         651        STA     RWAA,2*
      001066 000002 2340 14         652        SZN     RWFS,4
      001067 000052 6000 00 010NN   653        TZE     RWBGX
      001070 000010 7530 00 010NN   654        SREG    RWUPXS       SAVE REGISTERS
      001071 000002 7000 34         655        TSX0    RWFS,4*       EXECUTE FORMATTING SUBR.
      001072 000010 0730 00 010NN   656        LREG    RWUPXS
      001073 000043 2240 00 010NN   657        LDX4    RWWK2         RESTORE X4
      001074 001162 7010 00 010NN   658        TSX1    RWBGS
      001075 000015 2350 32         659        LDA     RWLNCT,2*
      001076 000004 7550 12         660        STA     RWALIN,2
      001077 000053 2360 00 010NN   661        LDQ     RWBAG1
      001100 000005 1160 07         662        CMPQ    5,DL
      001101 001105 6010 00 010NN   663        TNZ     RWBG22
      001102 000005 2360 12         664        LDQ     RWCTR,2
      001103 000017 1160 32         665        CMPQ    RWCBLV,2*
      001104 000052 6010 00 010NN   666        TNZ     RWBGX
      001105 000007 0750 14         667 RWBG22 ADA     RWNG,4
      001106 000015 7550 32         668        STA     RWLNCT,2*
      001107 000052 7100 00 010NN   669        TRA     RWBGX
      001110 000006 2350 14         670 RWBG11 LDA     RWNGTP,4
      001111 000052 6000 00 010NN   671        TZE     RWBGX
      001112 000002 1150 07         672        CMPA    2,DL
      001113 001134 6000 00 010NN   673        TZE     RWBG23
      001114 000003 1150 07         674        CMPA    3,DL
      001115 001151 6000 00 010NN   675        TZE     RWBG24
      001116 000053 2350 00 010NN   676        LDA     RWBAG1
      001117 000005 1150 07         677        CMPA    5,DL
      001120 001124 6010 00 010NN   678        TNZ     RWBG25
                                              REPORT WRITER CONTROL SYSTEM   840403X9RW
                                                                    X9RW REPORT-WRITER
      001121 000005 2350 12         679        LDA     RWCTR,2
      001122 000017 1150 32         680        CMPA    RWCBLV,2*
      001123 000052 6010 00 010NN   681        TNZ     RWBGX
      001124 000015 2350 32         682 RWBG25 LDA     RWLNCT,2*
      001125 000007 1150 14         683        CMPA    RWNG,4
      001126 001131 6040 00 010NN   684        TMI     RWBG26
      001127 000025 2350 12         685        LDA     RWFT,2
      001130 000015 7550 32         686        STA     RWLNCT,2*
      001131 000007 2350 14         687 RWBG26 LDA     RWNG,4
      001132 000020 7550 12         688        STA     RWSNGI,2
      001133 000052 7100 00 010NN   689        TRA     RWBGX
      001134 000053 2350 00 010NN   690 RWBG23 LDA     RWBAG1
      001135 000005 1150 07         691        CMPA    5,DL
      001136 001142 6010 00 010NN   692        TNZ     RWBG27
      001137 000005 2350 12         693        LDA     RWCTR,2
      001140 000017 1150 32         694        CMPA    RWCBLV,2*
      001141 000052 6010 00 010NN   695        TNZ     RWBGX
      001142 000015 2350 32         696 RWBG27 LDA     RWLNCT,2*
      001143 000007 0750 14         697        ADA     RWNG,4
      001144 000025 1150 12         698        CMPA    RWFT,2
      001145 001147 6040 00 010NN   699        TMI     RWBG28
      001146 000025 2350 12         700        LDA     RWFT,2
      001147 000015 7550 32         701 RWBG28 STA     RWLNCT,2*
      001150 000052 7100 00 010NN   702        TRA     RWBGX
      001151 000053 2350 00 010NN   703 RWBG24 LDA     RWBAG1
      001152 000005 1150 07         704        CMPA    5,DL
      001153 001157 6010 00 010NN   705        TNZ     RWBG29
      001154 000005 2350 12         706        LDA     RWCTR,2
      001155 000017 1150 32         707        CMPA    RWCBLV,2*
      001156 000052 6010 00 010NN   708        TNZ     RWBGX
      001157 000025 2350 12         709 RWBG29 LDA     RWFT,2
      001160 000015 7550 32         710        STA     RWLNCT,2*
      001161 000052 7100 00 010NN   711        TRA     RWBGX
                                              REPORT WRITER CONTROL SYSTEM   840403X9RW
                                                                    X9RW REPORT-WRITER
      001162 000054 7410 00 010NN   713 RWBGS  STX1    RWBGT         RESET THE GROUP INDICATE SWITCH
      001163 000053 2350 00 010NN   714        LDA     RWBAG1
      001164 000004 1150 07         715        CMPA    4,DL
      001165 000054 6010 00 010NN   716        TNZ     RWBGT
      001166 000013 2340 14         717        SZN     RWGISW,4
      001167 000054 6000 00 010NN   718        TZE     RWBGT
      001170 000013 4500 34         719        STZ     RWGISW,4*     RESET GROUP INDICATE SWITCH
      001171 000054 7100 00 010NN   720        TRA     RWBGT
                                              REPORT WRITER CONTROL SYSTEM   840403X9RW
                                                                    X9RW REPORT-WRITER
      001172 000055 7410 00 010NN   722 RWPF   STX1    RWPFX
      001173 000000 2340 14         723        SZN     RWUP,4
      001174 001201 6000 00 010NN   724        TZE     RWPF2
      001175 000001 4500 14         725        STZ     RWSPPR,4
      001176 001347 7010 00 010NN   726        TSX1    CALUSE        USE BEFORE REPORTING SECTION
      001177 000001 2340 14         727        SZN     RWSPPR,4
      001200 000055 6010 00 010NN   728        TNZ     RWPFX
      001201 000003 2350 14         729 RWPF2  LDA     RWLNTP,4
      001202 000055 6000 00 010NN   730        TZE     RWPFX
      001203 000001 1150 07         731        CMPA    1,DL
      001204 000055 6010 00 010NN   732        TNZ     RWPFX
      001205 000004 2350 14         733        LDA     RWLN,4
      001206 000015 7550 32         734        STA     RWLNCT,2*
      001207 000004 1750 12         735        SBA     RWALIN,2
      001210 000026 7550 32         736        STA     RWAA,2*
      001211 000002 2350 14         737        LDA     RWFS,4
      001212 000055 6000 00 010NN   738        TZE     RWPFX
      001213 000010 7530 00 010NN   739        SREG    RWUPXS       SAVE REGISTERS
      001214 000002 7000 34         740        TSX0    RWFS,4*       EXECUTE FORMATTING SUBR.
      001215 000010 0730 00 010NN   741        LREG    RWUPXS
      001216 000037 2350 00 010NN   742        LDA     RWPFO
      001217 000030 2550 12         743        ORSA    RWCW,2
      001220 000015 2350 32         744        LDA     RWLNCT,2*
      001221 000004 7550 12         745        STA     RWALIN,2
      001222 000006 2350 14         746        LDA     RWNGTP,4
      001223 000055 6000 00 010NN   747        TZE     RWPFX
      001224 000007 2360 14         748        LDQ     RWNG,4
      001225 000001 1150 07         749        CMPA    1,DL
      001226 001231 6010 00 010NN   750        TNZ     RWPF1
      001227 000015 7560 32         751        STQ     RWLNCT,2*
      001230 000055 7100 00 010NN   752        TRA     RWPFX
      001231 000004 0760 12         753 RWPF1  ADQ     RWALIN,2
      001232 000015 7560 32         754        STQ     RWLNCT,2*
      001233 000055 7100 00 010NN   755        TRA     RWPFX
                                              REPORT WRITER CONTROL SYSTEM   840403X9RW
                                                                    X9RW REPORT-WRITER
      001234 000056 7410 00 010NN   757 RWRF   STX1    RWRFX
      001235 000000 2340 14         758        SZN     RWUP,4
      001236 001243 6000 00 010NN   759        TZE     RWRF6
      001237 000001 4500 14         760        STZ     RWSPPR,4
      001240 001347 7010 00 010NN   761        TSX1    CALUSE        USE BEFORE REPORTING SECTION
      001241 000001 2340 14         762        SZN     RWSPPR,4
      001242 000056 6010 00 010NN   763        TNZ     RWRFX
      001243 000004 2350 14         764 RWRF6  LDA     RWLN,4
      001244 000021 2340 12         765        SZN     RWPLM,2
      001245 001250 6010 00 010NN   766        TNZ     RWRF1
      001246 000015 0550 32         767        ASA     RWLNCT,2*
      001247 001304 7100 00 010NN   768        TRA     RWRF2
      001250 000003 2360 14         769 RWRF1  LDQ     RWLNTP,4
      001251 000001 1160 07         770        CMPQ    1,DL
      001252 001257 6010 00 010NN   771        TNZ     RWRF3
      001253 000015 7550 32         772        STA     RWLNCT,2*
      001254 000004 1750 12         773        SBA     RWALIN,2
      001255 000026 7550 32         774        STA     RWAA,2*
      001256 001304 7100 00 010NN   775        TRA     RWRF2
      001257 000002 1160 07         776 RWRF3  CMPQ    2,DL
      001260 001274 6010 00 010NN   777        TNZ     RWRF4
      001261 000030 2360 12         778        LDQ     RWCW,2
      001262 000037 3160 00 010NN   779        CANQ    RWPFO
      001263 001271 6000 00 010NN   780        TZE     RWRF5
      001264 000015 0550 32         781        ASA     RWLNCT,2*
      001265 000015 2350 32         782        LDA     RWLNCT,2*
      001266 000004 1750 12         783        SBA     RWALIN,2
      001267 000026 7550 32         784        STA     RWAA,2*
      001270 001304 7100 00 010NN   785        TRA     RWRF2
      001271 000025 0750 12         786 RWRF5  ADA     RWFT,2
      001272 000015 7550 32         787        STA     RWLNCT,2*
      001273 001304 7100 00 010NN   788        TRA     RWRF2
      001274 000003 1160 07         789 RWRF4  CMPQ    3,DL
      001275 000056 6010 00 010NN   790        TNZ     RWRFX
      001276 000026 7550 32         791        STA     RWAA,2*
                                              REPORT WRITER CONTROL SYSTEM   840403X9RW
                                                                    X9RW REPORT-WRITER
      001277 000010 7530 00 010NN   792        SREG    RWUPXS       SAVE REGISTERS
      001300 000014 7000 32         793        TSX0    RWTPS,2*      GENERATE TOP-OF-PAGE
      001301 000010 0730 00 010NN   794        LREG    RWUPXS
      001302 000026 2350 32         795        LDA     RWAA,2*
      001303 000015 7550 32         796        STA     RWLNCT,2*
      001304 000002 2340 14         797 RWRF2  SZN     RWFS,4
      001305 000056 6000 00 010NN   798        TZE     RWRFX
      001306 000010 7530 00 010NN   799        SREG    RWUPXS       SAVE REGISTERS
      001307 000002 7000 34         800        TSX0    RWFS,4*       EXECUTE FORMATTING SUBR.
      001310 000010 0730 00 010NN   801        LREG    RWUPXS
      001311 000015 2350 32         802        LDA     RWLNCT,2*
      001312 000004 7550 12         803        STA     RWALIN,2
      001313 000056 7100 00 010NN   804        TRA     RWRFX
                                              REPORT WRITER CONTROL SYSTEM   840403X9RW
                                                                    X9RW REPORT-WRITER
      001314 000057 7410 00 010NN   806 RWSMCL STX1    RWSMCX
      001315 000031 6350 12         807        EAA     RWCHCF,2
      001316 000005 1750 03         808        SBA     5,DU
      001317 000042 7550 00 010NN   809        STA     RWWK1
      001320 000001 2350 07         810        LDA     1,DL
      001321 000005 7550 12         811 RWSMC1 STA     RWCTR,2
      001322 000027 1150 12         812        CMPA    RWNCI,2
      001323 000057 6054 00 010NN   813        TPNZ    RWSMCX
      001324 000042 2350 00 010NN   814 RWSMC4 LDA     RWWK1
      001325 000005 0750 03         815        ADA     5,DU
      001326 000042 7550 00 010NN   816        STA     RWWK1
      001327 000002 2340 01         817        SZN     RWRSET,AU
      001330 001332 6000 00 010NN   818        TZE     RWSMC2
      001331 000002 7000 21         819        TSX0    RWRSET,AU*
      001332 000042 2350 00 010NN   820 RWSMC2 LDA     RWWK1
      001333 000004 2340 01         821        SZN     RWSUMC,AU
      001334 001336 6000 00 010NN   822        TZE     RWSMC3
      001335 000004 7000 21         823        TSX0    RWSUMC,AU*
      001336 000005 2350 12         824 RWSMC3 LDA     RWCTR,2
      001337 000001 0750 07         825        ADA     1,DL
      001340 001321 7100 00 010NN   826        TRA     RWSMC1
                                              REPORT WRITER CONTROL SYSTEM   840403X9RW
                                                                    X9RW REPORT-WRITER
      001341 000060 7410 00 010NN   828 RWGIST STX1    RWGISX
      001342 000007 2210 12         829        LDX1    RWFDGI,2
      001343 000060 6000 00 010NN   830        TZE     RWGISX
      001344 000013 0540 31         831        AOS     RWGISW,1*
      001345 000011 2210 11         832        LDX1    RWGILK,1
      001346 001343 7100 00 010NN   833        TRA     RWGIST+2
                                              REPORT WRITER CONTROL SYSTEM   840403X9RW
                                                                    X9RW REPORT-WRITER
                        001347      835 CALUSE NULL
      001347 000010 7530 00 010NN   836        SREG    RWUPXS
      001350 000023 6304 00 010NN   837        EPPR0   RWFAB
      001351 001374 6314 00 010NN   838        EPPR1   NUMARG
      001352 000000 7010 00 020NN   839        TSX1    X9USPR          CALL X9WE$RW_USE_PROC (FAB);
      001353 000000 0110 07         840        NOP     ,DL
      001354 000010 0730 00 010NN   841        LREG    RWUPXS
      001355 000000 7000 34         842        TSX0    RWUP,4*         CALL USE PROC
      001356 000023 4704 00 010NN   843        LDP0    RWFAB
      001357 000001 3350 07         844        LCA     1,DL
      001360 000000 0550 00 020NN   845        ASA     XITINX          X9OS$EXIT_INDEX = X9OS$EXIT_INDEX-1;
      001361 000034 2351 00         846        LDA     FABBIT,,0
      001362 000032 7350 00         847        ALS     26
      001363 000022 7550 00 010NN   848        STA     USPROC          LIBCOM.USE_PROC = FAB.B.USE_PROC_SAVE;
      001364 000010 0730 00 010NN   849        LREG    RWUPXS
      001365 000000 7100 11         850        TRA     ,1
                                              REPORT WRITER CONTROL SYSTEM   840403X9RW
                                                                    X9RW REPORT-WRITER
                                    852 *
                                    853 *                CONSTANT  DEFINITIONS
                                    854 *
      001366 000000000066           855 ALLACT DEC     54             %RW_ALREADY_ACTIVE
      001367 000000000067           856 NEVACT DEC     55             %RW_NEVER_ACTIVE
      001370 000000000070           857 NOTACT DEC     56             %RW_NOT_ACTIVE
      001371 001366000000   01000   858 PTRBK1 PTR     .X9RW,ALLACT
      001372 001367000000   01000   859 PTRBK2 PTR     .X9RW,NEVACT
      001373 001370000000   01000   860 PTRBK3 PTR     .X9RW,NOTACT
      001374 000001000000           861 NUMARG VFD     18/1,18/0
                        000034      862 FABBIT EQU     28
                        000000      863        SECT    .X9RW.,CODEDATA
                        000000      864 RWWKAR8BSS     8
                        000010      865 RWUPXS8BSS     8             REGISTER SAVE AREA FOR USE PROCEDURE
      000020 000000 7100 00         866 RWCHQS TRA     **
      000021 000000 6040 00         867 RWCFQS TMI     **
      000022 000563 7100 00 010NN   868        TRA     RWWK
                        000023      869 RWFAB  BSS     1
      000024 000000000000           870 HOLDX3 DEC     0
                        000025      871 RWCWK1 BSS     1             ARGUMENT-1  ADDRESS OF TABLE
                        000026      872 RWCWK2 BSS     1             ARGUMENT-2  VERB TYPE
      000027 000000 7100 00         873 RWINI2 TRA     **
                        000030      874 RWTERWEBSS     2
      000032 000000 7100 00         875 RWCSXX TRA     **            RETURN FROM THE RWCS
      000033 400000000000           876 RWRAO  VFD     1/1
      000034 200000000000           877 RWFGO  VFD     2/1
      000035 100000000000           878 RWFBGO VFD     3/1
      000036 020000000000           879 RWRHO  VFD     5/1
      000037 010000000000           880 RWPFO  VFD     6/1
      000040 600000000000           881 RWINIO VFD     2/3
      000041 677777777777           882 RWFBGC OCT     677777777777  FOR RESETTING FIRST BODY GRP BIT
                        000042      883 RWWK1  BSS     1
                        000043      884 RWWK2  BSS     1
      000044 000000 7100 00         885 RWRHX  TRA     **
      000045 000000 7100 00         886 RWPHX  TRA     **
                                              REPORT WRITER CONTROL SYSTEM   840403X9RW
                                                                    X9RW REPORT-WRITER
      000046 000000 7100 00         887 RWPGAX TRA     **
                        000047      888 RWPGA1 BSS     1
                        000050      889 RWPGA2EBSS     2
      000052 000000 7100 00         890 RWBGX  TRA     **
                        000053      891 RWBAG1 BSS     1
      000054 000000 7100 00         892 RWBGT  TRA     **
      000055 000000 7100 00         893 RWPFX  TRA     **
      000056 000000 7100 00         894 RWRFX  TRA     **
      000057 000000 7100 00         895 RWSMCX TRA     **
      000060 000000 7100 00         896 RWGISX TRA     **
                        000000      897        CSECT   LIBCOM,DATA
                        000000      898        BSS     18
                        000022      899 USPROC BSS     1
                        000023      900        BSS     1
                                    901        END
 GMAP6 VERSION/ASSEMBLY DATES  JNPA NO TTL/2(_00]      JNPB NO TTL/2(_00]      JNPC NO TTL/2(_00]
 THERE WERE    NO  WARNING FLAGS IN THE ABOVE ASSEMBLY
                                              REPORT WRITER CONTROL SYSTEM   840403X9RW
                             OCTAL    SYMBOL   * KIND *      REFERENCES BY ALTER NO. AN
  1366   ALLACT   REL   .X9RW    855  855   858
  1347   CALUSE   REL   .X9RW    835  188T  279T  353T  430T  463T  726T  761T  835
    34   FABBIT   ABS            862  846R  862
    24   HOLDX3   REL   .X9RW.   870  150W  171R  178R  195R  212R  243W  269W  870
  6000   .X9RW    SEC   SECT      10   10   858   859   860
  6001   .X9RW.   SEC   SECT     863  863
  6002   LIBCOM   SEC   CSECT    897  897
  1367   NEVACT   REL   .X9RW    856  856   859
  1370   NOTACT   REL   .X9RW    857  857   860
    13   NOTDGT   REL   .X9RW     71   69T   71
  1374   NUMARG   REL   .X9RW    861   91   111   156   235   838   861
  1371   PTRBK1   REL   .X9RW    858   90   858
  1372   PTRBK2   REL   .X9RW    859  110   859
  1373   PTRBK3   REL   .X9RW    860  155   234   860
   203   RGEN9A   REL   .X9RW    198  198
    26   RWAA     ABS             33   33   294W  299W  334W  368W  373W  387W  394W  545W  582W  607W  634W  651W
                                      784W  791W  795R
     4   RWALIN   ABS             15   15    97W  293R  298R  308W  329W  333R  341W  359R  367W  372R  393R  404W
                                      554W  581R  593W  606R  616W  633R  643W  650R  660W  735R  745W  753R  773R
    53   RWBAG1   REL   .X9RW.   891  505W  527R  563R  661R  676R  690R  703R  714R  891
   710   RWBG10   REL   .X9RW    540  531T  534T  540
  1110   RWBG11   REL   .X9RW    670  555T  594T  619T  646T  670
   712   RWBG12   REL   .X9RW    542  537T  542
   713   RWBG13   REL   .X9RW    543  539T  543
   750   RWBG14   REL   .X9RW    573  558T  568T  571T  573
   744   RWBG15   REL   .X9RW    569  565T  569
   747   RWBG16   REL   .X9RW    572  567T  570T  572
   755   RWBG17   REL   .X9RW    579  576T  579
   756   RWBG18   REL   .X9RW    580  578T  580
  1006   RWBG19   REL   .X9RW    604  597T  600T  604
  1061   RWBG1    REL   .X9RW    647  515T  647
  1032   RWBG20   REL   .X9RW    624  622T  624
  1041   RWBG21   REL   .X9RW    631  625T  629T  631
  1105   RWBG22   REL   .X9RW    667  663T  667
  1134   RWBG23   REL   .X9RW    690  673T  690
                                              REPORT WRITER CONTROL SYSTEM   840403X9RW
                             OCTAL    SYMBOL   * KIND *      REFERENCES BY ALTER NO. AN
  1151   RWBG24   REL   .X9RW    703  675T  703
  1124   RWBG25   REL   .X9RW    682  678T  682
  1131   RWBG26   REL   .X9RW    687  684T  687
  1142   RWBG27   REL   .X9RW    696  692T  696
  1147   RWBG28   REL   .X9RW    701  699T  701
  1157   RWBG29   REL   .X9RW    709  705T  709
   775   RWBG2    REL   .X9RW    595  519T  595   603T
  1026   RWBG3    REL   .X9RW    620  521T  620
   654   RWBG4    REL   .X9RW    512  509T  512
   655   RWBG5    REL   .X9RW    513  511T  513
   666   RWBG6    REL   .X9RW    522  522   541T
   730   RWBG7    REL   .X9RW    556  524T  556
   701   RWBG8    REL   .X9RW    533  529T  533
   703   RWBG9    REL   .X9RW    535  532T  535
   644   RWBG     REL   .X9RW    504  202T  438T  468T  504
  1162   RWBGS    REL   .X9RW    713  552T  589T  614T  641T  658T  713
    54   RWBGT    REL   .X9RW.   892  713W  716T  718T  720T  892
    52   RWBGX    REL   .X9RW.   890  507W  517T  547T  584T  609T  636T  653T  666T  669T  671T  681T  689T  695T
                                      711T  890
    17   RWCBLV   ABS             26   26   121W  166R  189R  191R  223W  227W  262W  264W  410R  416R  450R  665R
                                      707R
    11   RWCBS    ABS             20   20   163R  165T
     1   RWCFOF   ABS             50   50
    21   RWCFQS   REL   .X9RW.   867  442W  451T  867
   560   RWCFS1   REL   .X9RW    449  449   480T
   573   RWCFS2   REL   .X9RW    460  458T  460
   601   RWCFS3   REL   .X9RW    466  461T  466
   605   RWCFS4   REL   .X9RW    470  456T  465T  467T  470
   611   RWCFS5   REL   .X9RW    474  472T  474
   615   RWCFS6   REL   .X9RW    478  476T  478
   551   RWCFSQ   REL   .X9RW    442  125T  168T  442
    31   RWCHCF   ABS             36   36    75R  408   443   807
     0   RWCHOF   ABS             49   49
    20   RWCHQS   REL   .X9RW.   866  407W  421T  866
   521   RWCHS1   REL   .X9RW    417  417   435T
                                              REPORT WRITER CONTROL SYSTEM   840403X9RW
                             OCTAL    SYMBOL   * KIND *      REFERENCES BY ALTER NO. AN
   541   RWCHS2   REL   .X9RW    433  426T  433   437T  440T
   544   RWCHS3   REL   .X9RW    436  428T  432T  436
   526   RWCHS4   REL   .X9RW    422  419T  420T  422
   507   RWCHSQ   REL   .X9RW    407  193T  226T  263T  407
    12   RWCIN    ABS             21   21   135T  170T  209R  211T  249R  251T
     3   RWCRS    ABS             52   52   457R  459T
    13   RWCSW    ABS             22   22   122R  124T  132R  134T  169T
   311   RWCSX    REL   .X9RW    271   84    94T  114T  147T  159T  197T  201T  204T  238T  271
    32   RWCSXX   REL   .X9RW.   875   62W  273T  875
    12   RWCTAD   ABS             47   47    70R  151R  172R  213R
     5   RWCTR    ABS             16   16   417W  433R  449W  478R  664R  679R  693R  706R  811W  824R
    30   RWCW     ABS             35   35    87R  103W  107R  137W  152R  207A  225A  231R  247A  306A  327A  380R
                                      522R  591A  618A  620R  645A  743A  778R
    25   RWCWK1   REL   .X9RW.   871   64W   86R  106R  136R  149R  230R  252R  871
    26   RWCWK2   REL   .X9RW.   872   67W   77R  199R  872
    23   RWFAB    REL   .X9RW.   869   76W  837   843R  869
    41   RWFBGC   REL   .X9RW.   882  590R  617R  644R  882
    35   RWFBGO   REL   .X9RW.   878  224R  497R  523R  621R  878
     7   RWFDGI   ABS             18   18   829R
     6   RWFDOF   ABS             17   17   179R  242R  268R
    23   RWFDT    ABS             30   30   536R  542R  575R  579R
    34   RWFGO    REL   .X9RW.   877  116R  161R  205R  240R  245R  877
     2   RWFS     ABS             39   39   300R  303T  335R  338T  398R  401T  436R  466R  546R  549T  583R  586T
                                      635R  638T  652R  655T  737R  740T  797R  800T
   211   RWFSTG   REL   .X9RW    205  162T  205
    25   RWFT     ABS             32   32   533R  569R  685R  698R  700R  709R  786R
   140   RWGEN1   REL   .X9RW    160  154T  160
   155   RWGEN2   REL   .X9RW    174  164T  167T  174   221T  228T
   160   RWGEN3   REL   .X9RW    177  175T  177
   166   RWGEN4   REL   .X9RW    184  182T  184   270T
   173   RWGEN5   REL   .X9RW    189  180T  185T  189
   222   RWGEN6   REL   .X9RW    214  210T  214
   225   RWGEN7   REL   .X9RW    217  215T  217
   230   RWGEN8   REL   .X9RW    220  218T  220
   200   RWGEN9   REL   .X9RW    194  190T  192T  194
                                              REPORT WRITER CONTROL SYSTEM   840403X9RW
                             OCTAL    SYMBOL   * KIND *      REFERENCES BY ALTER NO. AN
   252   RWGENA   REL   .X9RW    239  233T  239
   306   RWGENB   REL   .X9RW    268  266T  268
   257   RWGENC   REL   .X9RW    245  241T  245
   125   RWGEND   REL   .X9RW    149   82T  149
   272   RWGENE   REL   .X9RW    256  254T  256
   275   RWGENF   REL   .X9RW    259  257T  259
   267   RWGENG   REL   .X9RW    253  250T  253
   303   RWGENH   REL   .X9RW    265  260T  265
   142   RWGENJ   REL   .X9RW    163  163   244T
   241   RWGENR   REL   .X9RW    230   81T  230
    11   RWGILK   ABS             46   46   832R
  1341   RWGIST   REL   .X9RW    828  173T  208T  248T  499T  828   833T
    13   RWGISW   ABS             48   48   717R  719W  831A
    60   RWGISX   REL   .X9RW.   896  828W  830T  896
    10   RWGSS    ABS             19   19   174R  176T  265R  267T
    22   RWHD     ABS             29   29   290R  384R
    42   RWINI1   REL   .X9RW     95   89T   95
    27   RWINI2   REL   .X9RW.   873   85W  104T  873
    40   RWINIO   REL   .X9RW.   881  102R  881
    27   RWINIT   REL   .X9RW     84   79T   84
    24   RWLDT    ABS             31   31   530R  566R
     4   RWLN     ABS             41   41   289R  296R  331R  360R  371R  375R  383R  391R  538R  562R  596R  604R
                                      648R  733R  764R
    15   RWLNCT   ABS             24   24   138R  145W  292W  297W  307R  314W  319A  332W  340R  376W  386W  390R
                                      525R  535R  543W  553R  559W  574R  580W  592R  595R  601W  605W  615R  626W
                                      647R  649W  659R  668W  682R  686W  696R  701W  710W  734W  744R  751W  754W
                                      781A  782R  787W  796W  802R
     3   RWLNTP   ABS             40   40   284R  356R  516R  729R  769R
    27   RWNCI    ABS             34   34    72R  118R  220R  259R  418R  445R  448R  812R
     7   RWNG     ABS             44   44   313R  318R  667R  683R  687R  697R  748R
     6   RWNGTP   ABS             43   43   309R  342R  670R  746R
  1231   RWPF1    REL   .X9RW    753  750T  753
  1201   RWPF2    REL   .X9RW    729  724T  729
  1172   RWPF     REL   .X9RW    722  128T  487T  722
    37   RWPFO    REL   .X9RW.   880  742R  779R  880
                                              REPORT WRITER CONTROL SYSTEM   840403X9RW
                             OCTAL    SYMBOL   * KIND *      REFERENCES BY ALTER NO. AN
     3   RWPFOF   ABS             14   14   126R  485R
    55   RWPFX    REL   .X9RW.   893  722W  728T  730T  732T  738T  747T  752T  755T  893
    47   RWPGA1   REL   .X9RW.   888  483W  501R  888
    50   RWPGA2   REL   .X9RW.   889  484W  500R  889
   626   RWPGA3   REL   .X9RW    488  486T  488
   636   RWPGA4   REL   .X9RW    497  495T  497
   620   RWPGAD   REL   .X9RW    482  482   540T  572T  598T  623T  630T
    46   RWPGAX   REL   .X9RW.   887  482W  502T  887
    16   RWPGCT   ABS             25   25    95W  139R  146W
   454   RWPH1    REL   .X9RW    378  358T  378
   477   RWPH2    REL   .X9RW    398  377T  388T  398
   467   RWPH3    REL   .X9RW    389  382T  389
   430   RWPH4    REL   .X9RW    356  351T  356
   446   RWPH5    REL   .X9RW    370  361T  362T  370
   451   RWPH6    REL   .X9RW    374  369T  374
   421   RWPH     REL   .X9RW    349  219T  258T  349   496T
     2   RWPHOF   ABS             13   13   217R  256R  494R
    45   RWPHX    REL   .X9RW.   886  349W  355T  379T  399T  405T  886
    21   RWPLM    ABS             28   28   282R  514R  765R
    33   RWRAO    REL   .X9RW.   876   88R  108R  153R  232R  876
  1250   RWRF1    REL   .X9RW    769  766T  769
  1304   RWRF2    REL   .X9RW    797  768T  775T  785T  788T  797
  1257   RWRF3    REL   .X9RW    776  771T  776
  1274   RWRF4    REL   .X9RW    789  777T  789
  1271   RWRF5    REL   .X9RW    786  780T  786
  1243   RWRF6    REL   .X9RW    764  759T  764
  1234   RWRF     REL   .X9RW    757  131T  757
     1   RWRFOF   ABS             12   12   129R
    56   RWRFX    REL   .X9RW.   894  757W  763T  790T  798T  804T  894
   402   RWRH1    REL   .X9RW    331  283T  331
   340   RWRH2    REL   .X9RW    296  286T  296
   344   RWRH3    REL   .X9RW    300  295T  300
   364   RWRH4    REL   .X9RW    316  312T  316
   371   RWRH5    REL   .X9RW    321  317T  321
   366   RWRH6    REL   .X9RW    318  318   344T
                                              REPORT WRITER CONTROL SYSTEM   840403X9RW
                             OCTAL    SYMBOL   * KIND *      REFERENCES BY ALTER NO. AN
   322   RWRH7    REL   .X9RW    282  277T  282
   313   RWRH     REL   .X9RW    275  216T  255T  275
    36   RWRHO    REL   .X9RW.   879  305R  325R  381R  395R  879
     0   RWRHOF   ABS             11   11   214R  253R
    44   RWRHX    REL   .X9RW.   885  275W  281T  288T  301T  310T  315T  320T  330T  336T  345T  885
     2   RWRSET   ABS             51   51   471R  473T  817R  819T
  1321   RWSMC1   REL   .X9RW    811  811   826T
  1332   RWSMC2   REL   .X9RW    820  818T  820
  1336   RWSMC3   REL   .X9RW    824  822T  824
  1324   RWSMC4   REL   .X9RW    814  814
  1314   RWSMCL   REL   .X9RW    806  101T  806
    57   RWSMCX   REL   .X9RW.   895  806W  813T  895
    20   RWSNGI   ABS             27   27   557R  599R  602W  624R  627W  688W
     1   RWSPPR   ABS             38   38   186W  196R  278W  280R  352W  354R  429W  431R  462W  464R  725W  727R
    10   RWSS     ABS             45   45   181R  183T
     4   RWSUMC   ABS             53   53   475R  477T  821R  823T
    65   RWTER1   REL   .X9RW    115  109T  115
    77   RWTER2   REL   .X9RW    126  119T  126
   102   RWTER3   REL   .X9RW    129  127T  129
   112   RWTER4   REL   .X9RW    137  117T  130T  133T  137
    76   RWTER5   REL   .X9RW    125  123T  125
    54   RWTERM   REL   .X9RW    106   80T  106
    30   RWTERW   REL   .X9RW.   874  140W  144R  874
     5   RWTLN    ABS             42   42   526R  561R
    14   RWTPS    ABS             23   23    99T  142T  323T  364T  490T  793T
     0   RWUP     ABS             37   37   184R  276R  350R  427R  460R  723R  758R  842T
    10   RWUPXS   REL   .X9RW.   865   98W  100R  141W  143R  302W  304R  322W  324R  337W  339R  363W  365R  400W
                                      491R  548W  550R  585W  587R  610W  612R  637W  639R  654W  656R  739W  741R
                                      799W  801R  836W  841R  849R  865
    42   RWWK1    REL   .X9RW.   883   71W   74R  409W  413R  415W  422R  424W  444W  447A  452R  454W  470R  474R
                                      816W  820R  883
    43   RWWK2    REL   .X9RW.   884  510W  512W  513R  551R  588R  613R  640R  657R  884
   563   RWWK     REL   .X9RW    452  452   868T
     0   RWWKAR   REL   .X9RW.   864   60W  272R  864
    22   USPROC   REL   LIBCOM   899  848W  899
                                              REPORT WRITER CONTROL SYSTEM   840403X9RW
                             OCTAL    SYMBOL   * KIND *      REFERENCES BY ALTER NO. AN
NO VAL   X8ER     EXT   SYMREF         57    92T  112T  157T  236T
     0   X9RW     REL   .X9RW     59    9    59
NO VAL   X9USPR   EXT   SYMREF         56   839T
NO VAL   XITINX   EXT   SYMREF         55   845A
