
     DIRECTORY AND SEGMENT LIST  (OBJECT UNIT NAME '')

      * SYMDEF *        GLOBAL NAME               SEGMENT  OFFSET      ACCESS ATTRIBUTES
     1  X9SQ   'X9SQ'                              .X9SQ       0          R  W  E  L  U

      * SYMREF *        GLOBAL NAME                                    ACCESS ATTRIBUTES
     2  X8ER   'X8ER$ERROR'                                               R  W  E  L  U

      * SECTION *          SIZE          KIND
     3  .X9SQ               100           CODE
     4  .X9SQ.               21           DATA


     PROGRAM BREAK         121

                                      1 *M*
                                      2 *T***********************************************************
                                      3 *T*                                                         *
                                      4 *T* COPYRIGHT (C) BULL HN INFORMATION SYSTEMS INC., 1997    *
                                      5 *T*                                                         *
                                      6 *T***********************************************************
                        000000        7        SECT    .X9SQ,CODE
                        000000        8        ENTDEF  X9SQ
                        000000        9        ENTREF  (X8ER,X8ER$ERROR)
                                     10 *
                        000000       11 X9SQ   NULL
                                     12 *
      000000 400000 4750 03          13        FAD     =0.0,DU
      000001 000004 4570 00 010NN    14        DFST    ARGX           SAVE INPUT ARG
      000002 000050 6040 00 010NN    15        TMI     ERR1           ERROR IF ARGX IS NEGATIVE
      000003 000001 6000 11          16        TZE     1,1            RETURN IF ARGX IS ZERO.
                                     17 *
                        000004       18 POSITN NULL
                                     19 *
      000004 000004 2360 00 010NN    20        LDQ     ARGX
      000005 002000 3160 03          21        CANQ    =1B25,DU       TEST ODD OR EVEN ?
      000006 000011 6000 00 010NN    22        TZE     HEX20
      000007 000062 4310 00 010NN    23        FLD     =2.0XD0        ODD LOAD 4
      000010 000012 7100 00 010NN    24        TRA     HEX30
                                     25 *
                        000011       26 HEX20  NULL
                                     27 *
      000011 000064 4310 00 010NN    28        FLD     =5.0XD-1       EVEN LOAD 1
                                     29 *
                        000012       30 HEX30  NULL
                                     31 *
      000012 000011 4550 00 010NN    32        FST     EXPNT1
      000013 000004 2360 00 010NN    33        LDQ     ARGX
      000014 000001 7320 00          34        QRS     1
      000015 000010 7560 00 010NN    35        STQ     EXPNT
      000016 000004 4310 00 010NN    36        FLD     ARGX
      000017 000012 4110 00 010NN    37        LDE     ZEROO

      000020 000004 4550 00 010NN    38        FST     ARGX
                                     39 *
                                     40 *                             GET FIRST APPROX TO SQRT(ARGX),
                                     41 *                             ARGX [.125 -> .5].
                                     42 *                             Y0 = P00 + X * (P01 + P02 * X).
                                     43 *
      000021 000016 4610 00 010NN    44        FMP     P02
      000022 000015 4750 00 010NN    45        FAD     P01
      000023 000004 4610 00 010NN    46        FMP     ARGX
      000024 000014 4750 00 010NN    47        FAD     P00
                                     48 *
                                     49 *                             USE NEWTON'S ITERATIONS
                                     50 *
      000025 000006 4550 00 010NN    51        FST     YK             Y1 = .5 * (Y0 + X/Y0)
      000026 000004 4310 00 010NN    52        FLD     ARGX           GET ARG OF CALC Q(X)
      000027 000020 4610 00 010NN    53        FMP     Q01            FIRST ORDER CONSTANT
      000030 000017 4750 00 010NN    54        FAD     Q00            ZEROTH ORDER CONSTANT
      000031 000006 5250 00 010NN    55        FDI     YK             FORM P(X)/Q(X) FOR FIRST APPROX.
      000032 000006 4550 00 010NN    56        FST     YK             SAVE FOR NEWTON'S ITERATIONS
                                     57 *
      000033 000004 5250 00 010NN    58        FDI     ARGX
      000034 000006 4750 00 010NN    59        FAD     YK
      000035 000066 5670 00 010NN    60        DFDV    =2.0XD0
      000036 000006 4570 00 010NN    61        DFST    YK             Y2 = .5 * (Y1 + X/Y1)
                                     62 *
                                     63 *                             GET NEWTON'S (3RD) ITERATION
                                     64 *                             Y3 = .5 * (Y1 + X/Y2)
                                     65 *
      000037 000004 5250 00 010NN    66        FDI     ARGX
      000040 000006 4750 00 010NN    67        FAD     YK
      000041 000070 5670 00 010NN    68        DFDV    =2.0XD0
      000042 000006 4570 00 010NN    69        DFST    YK
                                     70 *
                                     71 *
      000043 000004 5270 00 010NN    72        DFDI    ARGX
      000044 000006 4770 00 010NN    73        DFAD    YK
      000045 000010 4150 00 010NN    74        ADE     EXPNT

      000046 000011 4610 00 010NN    75        FMP     EXPNT1         ADJUST FOR ODD EXPONENT
      000047 000001 7100 11          76        TRA     1,1            RETURN TO CALLER
                                     77 *
                                     78 *
                        000050       79 ERR1   NULL
                                     80 *
                                     81 *                             ERR1 OCCURS IF IN SQRT(X),
                                     82 *                             X IS NEGATIVE
                                     83 *
      000050 000000 6314 00 010NN    84        EPPR1   NUMARG
      000051 000002 6304 00 010NN    85        EPPR0   PTRBLK
      000052 000000 7010 00 020NN    86        TSX1    X8ER
      000053 000000 0110 07          87        NOP     0,DL
      000054 000004 4330 00 010NN    88        DFLD    ARGX
      000055 000000 5130 00          89        FNEG
      000056 000004 4570 00 010NN    90        DFST    ARGX
      000057 000004 7100 00 010NN    91        TRA     POSITN
                                     92 *
                                     93 *
                                     94 *              CONSTANTS ETC.
                                     95 *
                        000000       96        SECT    .X9SQ.,DATA
                                     97 *
      000000 000002000000            98 NUMARG VFD     18/2,18/0
      000001 000000000001            99 NEGSQ  DEC     1
      000002 000001000000   01000   100 PTRBLK PTR     .X9SQ,NEGSQ
                        000004      101        EVEN
                        000004      102 ARGX   BSS     2
                        000006      103 YK     BSS     2
      000010 000000000000           104 EXPNT  DEC     0
      000011 000000000000           105 EXPNT1 DEC     0
      000012 000000000000           106 ZEROO  OCT     0
                                    107 *
                                    108 *                             CONSTANTS FROM HART 0071,
                                    109 *                             MODIFIED FOR HEXIDECIMAL.
                                    110 *
                        000014      111        EVEN

      000014 000042326377           112 P00    DEC     0.0672244985819EX0
      000015 000742530005           113 P01    DEC     0.9427185435619EX0
      000016 000063166031           114 P02    DEC     0.1000596982154EX0
      000017 000350540551           115 Q00    DEC     0.45447046567EX0
      000020 000524607232           116 Q01    DEC     0.66555519292EX0
          LITERALS OF SECTION .X9SQ
      000062 002100000000
      000063 000000000000
      000064 000400000000
      000065 000000000000
      000066 002100000000
      000067 000000000000
      000070 002100000000
      000071 000000000000
                                    117        END
 GMAP6 VERSION/ASSEMBLY DATES  JNPA NO TTL/2(_00]      JNPB NO TTL/2(_00]      JNPC NO TTL/2(_00]
 THERE WERE    NO  WARNING FLAGS IN THE ABOVE ASSEMBLY

                             OCTAL    SYMBOL   * KIND *      REFERENCES BY ALTER NO. AN
     4   ARGX     REL   .X9SQ.   102   14W   20R   33R   36R   38W   46R   52R   58R   66R   72R   88R   90W  102
    50   ERR1     REL   .X9SQ     79   15T   79
    11   EXPNT1   REL   .X9SQ.   105   32W   75R  105
    10   EXPNT    REL   .X9SQ.   104   35W   74R  104
    11   HEX20    REL   .X9SQ     26   22T   26
    12   HEX30    REL   .X9SQ     30   24T   30
  6000   .X9SQ    SEC   SECT       7    7   100
  6001   .X9SQ.   SEC   SECT      96   96
     1   NEGSQ    REL   .X9SQ.    99   99   100
     0   NUMARG   REL   .X9SQ.    98   84    98
    14   P00      REL   .X9SQ.   112   47R  112
    15   P01      REL   .X9SQ.   113   45R  113
    16   P02      REL   .X9SQ.   114   44R  114
     4   POSITN   REL   .X9SQ     18   18    91T
     2   PTRBLK   REL   .X9SQ.   100   85   100
    17   Q00      REL   .X9SQ.   115   54R  115
    20   Q01      REL   .X9SQ.   116   53R  116
NO VAL   X8ER     EXT   SYMREF          9    86T
     0   X9SQ     REL   .X9SQ     11    8    11
     6   YK       REL   .X9SQ.   103   51W   55R   56W   59R   61W   67R   69W   73R  103
    12   ZEROO    REL   .X9SQ.   106   37R  106
