VERSION A06

PL6.E3A0      #001=X9SR$SYSTEM_READ File=X9SR.:X8A6TSI                           SAT 08/09/97 11:03 Page:1
        1        1        /*T***********************************************************/
        2        2        /*T*                                                         */
        3        3        /*T* Copyright (c) Bull HN Information Systems Inc., 1997    */
        4        4        /*T*                                                         */
        5        5        /*T***********************************************************/
        6        6
        7        7        /*M*  X9SR$SYSTEM_READ -- Calls the system read routine         */
        8        8        X9SR$SYSTEM_READ: PROC ( ACCEPT_CODE );
        9        9
       10       10        /*P*
       11       11               NAME: X9SR$SYSTEM_READ
       12       12            PURPOSE: Calls the system read routine and puts the data
       13       13                     in to IN_TEMP.
       14       14
       15       15        */
       16       16        /*D*
       17       17               NAME: X9SR$SYSTEM_READ
       18       18               CALL: CALL X9SR$SYSTEM_READ ;
       19       19          INTERFACE: M$READ - System read routine
       20       20              INPUT: None
       21       21             OUTPUT: None
       22       22            SCRATCH: IN_TEMP
       23       23          REFERENCE: X8LC$DOCUMENT
       24       24
       25       25        */
       26       26
       27       27            %INCLUDE X8A_SYS_FILE ;
       28     6297            %INCLUDE X8A_LIBCOM ;
       29     6517            %INCLUDE X8A_ERRCOM ;
       30     6606
       31     6607    1       DCL ACCEPT_CODE    UBIN WORD;
       32     6608    1       DCL SYSTEM_DATE STATIC CHAR(6);
       33     6609    1       DCL 1 JULIAN       ALIGNED,
       34     6610    1             2 YEAR       UBIN WORD,
       35     6611    1             2 DAY        UBIN WORD;
       36     6612    1       DCL   JULIAN_MONTH UBIN WORD;
       37     6613    1       DCL DAYS_PER_MONTH (0:11) UBIN WORD CONSTANT
PL6.E3A0      #001=X9SR$SYSTEM_READ File=X9SR.:X8A6TSI                           SAT 08/09/97 11:03 Page:2
       38     6614    1                          INIT (0,31,59,90,120,151,181,212,243,273,304,334);
       39     6615    1       DCL X8ER$ERROR      ENTRY(3);
       40     6616
       41     6617            %FPT_READ    ( FPTN = ACCEPT_DEFAULT );
       42     6656            %FPT_KEYIN   ( FPTN = ACCEPT_CONSOLE );
       43     6675            %FPT_TIME    ( FPTN = ACCEPT_DATE, DATE = SYSTEM_DATE, DEST = ANS );
       44     6694            %FPT_TIME    ( FPTN = ACCEPT_TIME, TIME = IN_TEMP, DEST = ANS );
       45     6713            %FPT_TIME    ( FPTN = ACCEPT_DAY , DAY  = IN_TEMP, DEST = ANS );
       46     6732            %FPT_TIME    ( FPTN = ACCEPT_DAY_OF_WEEK, DAY = IN_TEMP, DEST = EXT );
       47     6751
       48     6752        %EJECT;
PL6.E3A0      #001=X9SR$SYSTEM_READ File=X9SR.:X8A6TSI                           SAT 08/09/97 11:03 Page:3
       49     6753    1       IN_TEMP = ' ';         /*  Blank out the receiving field   */
       50     6754    2       DO CASE( ACCEPT_CODE );
       51     6755    2         CASE( %ACCEPT_CONSOLE );
       52     6756    2           IF LIBCOM.SAVE THEN
       53     6757    3             DO;
       54     6758    3               ACCEPT_CONSOLE.MESS_ = VECTOR( DSPLY_SAVE );
       55     6759    3               ACCEPT_CONSOLE.REPLY_ = VECTOR( IN_TEMP );
       56     6760    3               CALL M$KEYIN( ACCEPT_CONSOLE );
       57     6761    3               LIBCOM.SAVE = %FALSE;
       58     6762    3               LIBCOM.KEEP = %FALSE;
       59     6763    3               DSPLY_SAVE = ' ';
       60     6764    3             END;
       61     6765    2           ELSE            /*  There was no message prior to this accept */
       62     6766    3             DO;
       63     6767    3               ACCEPT_CONSOLE.MESS_ = VECTOR ( NIL );
       64     6768    3               ACCEPT_CONSOLE.REPLY_ = VECTOR ( IN_TEMP );
       65     6769    3               CALL M$KEYIN ( ACCEPT_CONSOLE );
       66     6770    3             END;
       67     6771        %EJECT;
PL6.E3A0      #001=X9SR$SYSTEM_READ File=X9SR.:X8A6TSI                           SAT 08/09/97 11:03 Page:4
       68     6772    2         CASE( %ACCEPT_DEFAULT );
       69     6773    2           IF LIBCOM.FIRST_ACCT_CALL THEN
       70     6774    3             DO;
       71     6775    3               LIBCOM.FIRST_ACCT_CALL = %FALSE;
       72     6776    3               CALL X9SR$GETDCB#;
       73     6777    3             END;
       74     6778
       75     6779    2           ACCEPT_DEFAULT.BUF_ = VECTOR(IN_TEMP) ;
       76     6780    2           CALL M$READ( ACCEPT_DEFAULT )
       77     6781    2           WHENALTRETURN
       78     6782    3             DO;
       79     6783    3             END;
       80     6784
       81     6785    2         CASE ( %ACCEPT_DATE4 );
       82     6786    2           CALL M$TIME( ACCEPT_DATE );
       83     6787    2           SUBSTR(IN_TEMP,2,6) = SYSTEM_DATE;
       84     6788    2           IF SUBSTR (IN_TEMP,2,1) > '8' THEN
       85     6789    2              SUBSTR (IN_TEMP,0,2) = '19';
       86     6790    2           ELSE
       87     6791    2              SUBSTR (IN_TEMP,0,2) = '20';
       88     6792
       89     6793    2         CASE ( %ACCEPT_DAY4 );
       90     6794    2           CALL M$TIME( ACCEPT_DATE );
       91     6795    2           SUBSTR(IN_TEMP,0,6) = SYSTEM_DATE;
       92     6796    2           CALL CHARBIN (JULIAN.YEAR, SUBSTR (IN_TEMP,0,2));
       93     6797    2           CALL CHARBIN (JULIAN_MONTH, SUBSTR (IN_TEMP,2,2));
       94     6798    2           CALL CHARBIN (JULIAN.DAY, SUBSTR (IN_TEMP,4,2));
       95     6799    2           JULIAN.DAY = DAYS_PER_MONTH (JULIAN_MONTH - 1) + JULIAN.DAY;
       96     6800    2           IF MOD (JULIAN.YEAR,4) = 0
       97     6801    2           AND JULIAN_MONTH > 2 THEN
       98     6802    2            JULIAN.DAY = JULIAN.DAY + 1;
       99     6803    2           IF JULIAN.YEAR > 89 THEN
      100     6804    2              SUBSTR (IN_TEMP,0,2) = '19';
      101     6805    2           ELSE
      102     6806    2              SUBSTR (IN_TEMP,0,2) = '20';
      103     6807    2           CALL BINCHAR (SUBSTR (IN_TEMP,2,2), JULIAN.YEAR);
      104     6808    2           CALL BINCHAR (SUBSTR (IN_TEMP,4,3), JULIAN.DAY);
PL6.E3A0      #001=X9SR$SYSTEM_READ File=X9SR.:X8A6TSI                           SAT 08/09/97 11:03 Page:5
      105     6809
      106     6810    2         CASE( %ACCEPT_DATE );
      107     6811    2           CALL M$TIME( ACCEPT_DATE );
      108     6812    2           SUBSTR(IN_TEMP,0,6) = SYSTEM_DATE;
      109     6813
      110     6814    2         CASE ( %ACCEPT_TIME );
      111     6815    2           CALL M$TIME( ACCEPT_TIME );
      112     6816
      113     6817    2         CASE ( %ACCEPT_DAY );
      114     6818    2           CALL M$TIME( ACCEPT_DAY );
      115     6819
      116     6820    2         CASE ( %ACCEPT_DAY_OF_WEEK );
      117     6821
      118     6822    2           CALL M$TIME( ACCEPT_DAY_OF_WEEK );
      119     6823
      120     6824    3                  DO SELECT ( IN_TEMP );
      121     6825    3                    SELECT ('MON');
      122     6826    3                      IN_TEMP = '1';
      123     6827    3                    SELECT ('TUE');
      124     6828    3                      IN_TEMP = '2';
      125     6829    3                    SELECT ('WED');
      126     6830    3                      IN_TEMP = '3';
      127     6831    3                    SELECT ('THU');
      128     6832    3                      IN_TEMP = '4';
      129     6833    3                    SELECT ('FRI');
      130     6834    3                      IN_TEMP = '5';
      131     6835    3                    SELECT ('SAT');
      132     6836    3                      IN_TEMP = '6';
      133     6837    3                    SELECT ('SUN');
      134     6838    3                      IN_TEMP = '7';
      135     6839
      136     6840    3                  END; /* select */
      137     6841
      138     6842    2         CASE ( ELSE );
      139     6843
      140     6844    2           CALL X8ER$ERROR ( %INVALID_ACCEPT_CODE );
      141     6845
PL6.E3A0      #001=X9SR$SYSTEM_READ File=X9SR.:X8A6TSI                           SAT 08/09/97 11:03 Page:6
      142     6846    2       END; /* case accept_code */
      143     6847    1       RETURN;
      144     6848            %EJECT;
PL6.E3A0      #001=X9SR$SYSTEM_READ File=X9SR.:X8A6TSI                           SAT 08/09/97 11:03 Page:7
      145     6849    1     X9SR$GETDCB#:  PROC;
      146     6850
      147     6851    2       DCL M_SI    UBIN WORD STATIC;
      148     6852            %VLP_NAME   (FPTN=MSI,NAME='M$SI');
      149     6879            %FPT_GETDCB (FPTN=SYSIN,DCBNAME=MSI,DCBNUM=M_SI,MERGE=YES);
      150     6894
      151     6895
      152     6896    2       CALL M$GETDCB (SYSIN);
      153     6897
      154     6898    2       ACCEPT_DEFAULT.V.DCB# = M_SI;
      155     6899
      156     6900    2     END X9SR$GETDCB#; /* proc */
      157     6901
      158     6902
      159     6903    1   END X9SR$SYSTEM_READ ;  /* proc */

PL6.E3A0      #001=X9SR$SYSTEM_READ File=X9SR.:X8A6TSI                           SAT 08/09/97 11:03 Page:8
--  Include file information  --

   X8A_ERRCOM.:X8A6TOU  cannot be made into a system file and is referenced.
   X8A_LIBCOM.:X8A6TOU  cannot be made into a system file and is referenced.
   CP_6_SUBS.:LIB_E04  is referenced.
   CP_6_C.:LIB_E04  is referenced.
   CP_6.:LIB_E04  cannot be made into a system file and is referenced.
   Z9A_FLAGS.:Z8A6TOU  is referenced.
   X8A_SYS_FILE.:X8A6TOU  is referenced.
      No diagnostics issued in procedure X9SR$SYSTEM_READ.

   Procedure X9SR$SYSTEM_READ requires 219 words for executable code.
   Procedure X9SR$SYSTEM_READ requires 68 words of local(AUTO) storage.

    No errors detected in file X9SR.:X8A6TSI    .

PL6.E3A0      #001=X9SR$SYSTEM_READ File=X9SR.:X8A6TSI                           SAT 08/09/97 11:03 Page:9

 Object Unit name= X9SR$SYSTEM_READ                           File name= X9SR.:X8A6TOU
 UTS= AUG 09 '97 11:03:04.44 SAT                              Compiler= PL-6/E31         Sev=      00
 SharedLib= :SHARED_SYSTEM                                    Alt SharedLib=


    ****  Control sections  ****

 Sect   Type Bound  Init  Size OctSiz  Section name(segment info)
    0   DCB   even  none     0      0  M$UC
    1  LblCom even  none    20     24  LIBCOM
    2  LblCom even  none     1      1  DEC_OR_COMMA
    3  LblCom even  none    20     24  IN_TEMP
    4  LblCom even  none     1      1  OVRCHR
    5  LblCom even  none     1      1  SELECT_TIME
    6  LblCom even  none     1      1  NO_ADVANCE_OFFSET
    7  LblCom even  none    18     22  DSPLY_SAVE
    8  LblCom even  none     3      3  D_DATE
    9  LblCom even  none     3      3  D_TIME
   10  LblCom even  none     1      1  D_DAY
   11  LblCom even  none     2      2  C_DATE
   12  LblCom even  none     2      2  C_TIME
   13  LblCom even  none     2      2  C_DAY
   14  LblCom even  none     1      1  RTHOLD2
   15  LblCom even  none     1      1  LTHOLD2
   16  LblCom even  none     1      1  NDX2
   17  LblCom even  none     1      1  IN_LEN
   18   Data  even  none    90    132  X9SR$SYSTEM_READ
   19  RoData even  UTS     21     25  X9SR$SYSTEM_READ
   20   Proc  even  none   219    333  X9SR$SYSTEM_READ
   21  RoData even  none    17     21  X9SR$SYSTEM_READ

    ****  Entry defs  ****

                              Check   Calling
                             calling  sequence
  Sect OctLoc Primary Altret sequence   type   Parms  Name
    20      0   yes            yes      Std        1  X9SR$SYSTEM_READ
PL6.E3A0      #001=X9SR$SYSTEM_READ File=X9SR.:X8A6TSI                           SAT 08/09/97 11:03 Page:10

  ****  Entry refs  ****

         Check        Calling
        calling       sequence
Altret sequence SRef   type   Args  Name
         yes           Std       3 X8ER$ERROR
                       nStd      0 X66_AUTO_1
                       nStd      0 X66_ARET

  ****  Data refs  ****

  Flags:  r = read only, s = secondary
Flgs Name                             Flgs Name                             Flgs Name
     M$UC

  ****  Segment refs  ****

  Flags:  r = read only, s = secondary
Flgs Name                             Flgs Name                             Flgs Name
     ISSID                                 NULLSID
PL6.E3A0      #001=X9SR$SYSTEM_READ File=X9SR.:X8A6TSI                           SAT 08/09/97 11:03 Page:11


        1        1        /*T***********************************************************/
        2        2        /*T*                                                         */
        3        3        /*T* Copyright (c) Bull HN Information Systems Inc., 1997    */
        4        4        /*T*                                                         */
        5        5        /*T***********************************************************/
        6        6
        7        7        /*M*  X9SR$SYSTEM_READ -- Calls the system read routine         */
        8        8        X9SR$SYSTEM_READ: PROC ( ACCEPT_CODE );

      8 20 000000   000000 700200 xent  X9SR$SYSTEM* TSX0  ! X66_AUTO_1
        20 000001   000104 000001                    ZERO    68,1

        9        9
       10       10        /*P*
       11       11               NAME: X9SR$SYSTEM_READ
       12       12            PURPOSE: Calls the system read routine and puts the data
       13       13                     in to IN_TEMP.
       14       14
       15       15        */
       16       16        /*D*
       17       17               NAME: X9SR$SYSTEM_READ
       18       18               CALL: CALL X9SR$SYSTEM_READ ;
       19       19          INTERFACE: M$READ - System read routine
       20       20              INPUT: None
       21       21             OUTPUT: None
       22       22            SCRATCH: IN_TEMP
       23       23          REFERENCE: X8LC$DOCUMENT
       24       24
       25       25        */
       26       26
       27       27            %INCLUDE X8A_SYS_FILE ;
       28     6297            %INCLUDE X8A_LIBCOM ;
       29     6517            %INCLUDE X8A_ERRCOM ;
       30     6606
       31     6607    1       DCL ACCEPT_CODE    UBIN WORD;
       32     6608    1       DCL SYSTEM_DATE STATIC CHAR(6);
PL6.E3A0      #001=X9SR$SYSTEM_READ File=X9SR.:X8A6TSI                           SAT 08/09/97 11:03 Page:12
       33     6609    1       DCL 1 JULIAN       ALIGNED,
       34     6610    1             2 YEAR       UBIN WORD,
       35     6611    1             2 DAY        UBIN WORD;
       36     6612    1       DCL   JULIAN_MONTH UBIN WORD;
       37     6613    1       DCL DAYS_PER_MONTH (0:11) UBIN WORD CONSTANT
       38     6614    1                          INIT (0,31,59,90,120,151,181,212,243,273,304,334);
       39     6615    1       DCL X8ER$ERROR      ENTRY(3);
       40     6616
       41     6617            %FPT_READ    ( FPTN = ACCEPT_DEFAULT );
       42     6656            %FPT_KEYIN   ( FPTN = ACCEPT_CONSOLE );
       43     6675            %FPT_TIME    ( FPTN = ACCEPT_DATE, DATE = SYSTEM_DATE, DEST = ANS );
       44     6694            %FPT_TIME    ( FPTN = ACCEPT_TIME, TIME = IN_TEMP, DEST = ANS );
       45     6713            %FPT_TIME    ( FPTN = ACCEPT_DAY , DAY  = IN_TEMP, DEST = ANS );
       46     6732            %FPT_TIME    ( FPTN = ACCEPT_DAY_OF_WEEK, DAY = IN_TEMP, DEST = EXT );
       47     6751
       48     6752        %EJECT;
PL6.E3A0      #001=X9SR$SYSTEM_READ File=X9SR.:X8A6TSI                           SAT 08/09/97 11:03 Page:13
       49     6753    1       IN_TEMP = ' ';         /*  Blank out the receiving field   */

   6753 20 000002   040000 100400                    MLR     fill='040'O
        20 000003   000000 000001 21                 ADSC9   0                        cn=0,n=1
        20 000004   000000 000120 3                  ADSC9   IN_TEMP                  cn=0,n=80

       50     6754    2       DO CASE( ACCEPT_CODE );

   6754 20 000005   200003 470500                    LDP0    @ACCEPT_CODE,,AUTO
        20 000006   000000 235100                    LDA     0,,PR0
        20 000007   000011 115007                    CMPA    9,DL
        20 000010   000012 602005 20                 TNC     s:6754+5,AL
        20 000011   000316 710000 20                 TRA     s:6844
        20 000012   000316 710000 20                 TRA     s:6844
        20 000013   000023 710000 20                 TRA     s:6756
        20 000014   000052 710000 20                 TRA     s:6773
        20 000015   000175 710000 20                 TRA     s:6811
        20 000016   000204 710000 20                 TRA     s:6815
        20 000017   000210 710000 20                 TRA     s:6818
        20 000020   000214 710000 20                 TRA     s:6822
        20 000021   000067 710000 20                 TRA     s:6786
        20 000022   000110 710000 20                 TRA     s:6794

       51     6755    2         CASE( %ACCEPT_CONSOLE );

       52     6756    2           IF LIBCOM.SAVE THEN

   6756 20 000023   000004 234000 1                  SZN     LIBCOM+4
        20 000024   000042 605000 20                 TPL     s:6767

       53     6757    3             DO;

       54     6758    3               ACCEPT_CONSOLE.MESS_ = VECTOR( DSPLY_SAVE );

   6758 20 000025   000002 237000 21                 LDAQ    2
        20 000026   000022 757000 18                 STAQ    ACCEPT_CONSOLE+2

PL6.E3A0      #001=X9SR$SYSTEM_READ File=X9SR.:X8A6TSI                           SAT 08/09/97 11:03 Page:14
       55     6759    3               ACCEPT_CONSOLE.REPLY_ = VECTOR( IN_TEMP );

   6759 20 000027   000004 237000 21                 LDAQ    4
        20 000030   000024 757000 18                 STAQ    ACCEPT_CONSOLE+4

       56     6760    3               CALL M$KEYIN( ACCEPT_CONSOLE );

   6760 20 000031   000020 630400 18                 EPPR0   ACCEPT_CONSOLE
        20 000032   120000 713400                    CLIMB   40960
        20 000033   401400 401760                    pmme    nvectors=4

       57     6761    3               LIBCOM.SAVE = %FALSE;

   6761 20 000034   000004 450000 1                  STZ     LIBCOM+4

       58     6762    3               LIBCOM.KEEP = %FALSE;

   6762 20 000035   000003 450000 1                  STZ     LIBCOM+3

       59     6763    3               DSPLY_SAVE = ' ';

   6763 20 000036   040000 100400                    MLR     fill='040'O
        20 000037   000000 000001 21                 ADSC9   0                        cn=0,n=1
        20 000040   000000 000110 7                  ADSC9   DSPLY_SAVE               cn=0,n=72

       60     6764    3             END;

   6764 20 000041   000322 710000 20                 TRA     s:6847

       61     6765    2           ELSE            /*  There was no message prior to this accept */
       62     6766    3             DO;

       63     6767    3               ACCEPT_CONSOLE.MESS_ = VECTOR ( NIL );

   6767 20 000042   000006 237000 21                 LDAQ    6
        20 000043   000022 757000 18                 STAQ    ACCEPT_CONSOLE+2

PL6.E3A0      #001=X9SR$SYSTEM_READ File=X9SR.:X8A6TSI                           SAT 08/09/97 11:03 Page:15
       64     6768    3               ACCEPT_CONSOLE.REPLY_ = VECTOR ( IN_TEMP );

   6768 20 000044   000004 237000 21                 LDAQ    4
        20 000045   000024 757000 18                 STAQ    ACCEPT_CONSOLE+4

       65     6769    3               CALL M$KEYIN ( ACCEPT_CONSOLE );

   6769 20 000046   000020 630400 18                 EPPR0   ACCEPT_CONSOLE
        20 000047   120000 713400                    CLIMB   40960
        20 000050   401400 401760                    pmme    nvectors=4

       66     6770    3             END;

   6770 20 000051   000322 710000 20                 TRA     s:6847

       67     6771        %EJECT;
PL6.E3A0      #001=X9SR$SYSTEM_READ File=X9SR.:X8A6TSI                           SAT 08/09/97 11:03 Page:16
       68     6772    2         CASE( %ACCEPT_DEFAULT );

       69     6773    2           IF LIBCOM.FIRST_ACCT_CALL THEN

   6773 20 000052   000011 234000 1                  SZN     LIBCOM+9
        20 000053   000057 605000 20                 TPL     s:6779

       70     6774    3             DO;

       71     6775    3               LIBCOM.FIRST_ACCT_CALL = %FALSE;

   6775 20 000054   000011 450000 1                  STZ     LIBCOM+9

       72     6776    3               CALL X9SR$GETDCB#;

   6776 20 000055   000323 701000 20                 TSX1    X9SR$GETDCB#
        20 000056   000000 011000                    NOP     0

       73     6777    3             END;

       74     6778
       75     6779    2           ACCEPT_DEFAULT.BUF_ = VECTOR(IN_TEMP) ;

   6779 20 000057   000004 237000 21                 LDAQ    4
        20 000060   000006 757000 18                 STAQ    ACCEPT_DEFAULT+4

       76     6780    2           CALL M$READ( ACCEPT_DEFAULT )

   6780 20 000061   000002 630400 18                 EPPR0   ACCEPT_DEFAULT
        20 000062   440000 713400                    CLIMB   alt,read
        20 000063   401400 401760                    pmme    nvectors=4
        20 000064   000066 702000 20                 TSX2    s:6783
        20 000065   000066 710000 20                 TRA     s:6783

       77     6781    2           WHENALTRETURN
       78     6782    3             DO;

PL6.E3A0      #001=X9SR$SYSTEM_READ File=X9SR.:X8A6TSI                           SAT 08/09/97 11:03 Page:17
       79     6783    3             END;

   6783 20 000066   000322 710000 20                 TRA     s:6847

       80     6784
       81     6785    2         CASE ( %ACCEPT_DATE4 );

       82     6786    2           CALL M$TIME( ACCEPT_DATE );

   6786 20 000067   000036 630400 18                 EPPR0   ACCEPT_DATE
        20 000070   020004 713400                    CLIMB   8196
        20 000071   402000 401760                    pmme    nvectors=5

       83     6787    2           SUBSTR(IN_TEMP,2,6) = SYSTEM_DATE;

   6787 20 000072   040000 100400                    MLR     fill='040'O
        20 000073   000000 000006 18                 ADSC9   SYSTEM_DATE              cn=0,n=6
        20 000074   000000 400006 3                  ADSC9   IN_TEMP                  cn=2,n=6

       84     6788    2           IF SUBSTR (IN_TEMP,2,1) > '8' THEN

   6788 20 000075   000000 236000 3                  LDQ     IN_TEMP
        20 000076   777000 376007                    ANQ     -512,DL
        20 000077   070000 116007                    CMPQ    28672,DL
        20 000100   000105 602000 20                 TNC     s:6791
        20 000101   000105 600000 20                 TZE     s:6791

       85     6789    2              SUBSTR (IN_TEMP,0,2) = '19';

   6789 20 000102   000014 220000 19                 LDX0    DAYS_PER_MONTH+12
        20 000103   000000 740000 3                  STX0    IN_TEMP
        20 000104   000322 710000 20                 TRA     s:6847

       86     6790    2           ELSE
       87     6791    2              SUBSTR (IN_TEMP,0,2) = '20';

   6791 20 000105   000015 220000 19                 LDX0    DAYS_PER_MONTH+13
PL6.E3A0      #001=X9SR$SYSTEM_READ File=X9SR.:X8A6TSI                           SAT 08/09/97 11:03 Page:18
        20 000106   000000 740000 3                  STX0    IN_TEMP
        20 000107   000322 710000 20                 TRA     s:6847

       88     6792
       89     6793    2         CASE ( %ACCEPT_DAY4 );

       90     6794    2           CALL M$TIME( ACCEPT_DATE );

   6794 20 000110   000036 630400 18                 EPPR0   ACCEPT_DATE
        20 000111   020004 713400                    CLIMB   8196
        20 000112   402000 401760                    pmme    nvectors=5

       91     6795    2           SUBSTR(IN_TEMP,0,6) = SYSTEM_DATE;

   6795 20 000113   040000 100400                    MLR     fill='040'O
        20 000114   000000 000006 18                 ADSC9   SYSTEM_DATE              cn=0,n=6
        20 000115   000000 000006 3                  ADSC9   IN_TEMP                  cn=0,n=6

       92     6796    2           CALL CHARBIN (JULIAN.YEAR, SUBSTR (IN_TEMP,0,2));

   6796 20 000116   000100 305400                    DTB
        20 000117   000000 030002 3                  NDSC9   IN_TEMP                  cn=0,s=nosgn,sf=0,n=2
        20 000120   200102 000010                    NDSC9   JULIAN_MONTH+3,,AUTO     cn=0,s=lsgnf,sf=0,n=8
        20 000121   200103 235100                    LDA     JULIAN_MONTH+4,,AUTO
        20 000122   200075 755100                    STA     JULIAN,,AUTO

       93     6797    2           CALL CHARBIN (JULIAN_MONTH, SUBSTR (IN_TEMP,2,2));

   6797 20 000123   000100 305400                    DTB
        20 000124   000000 430002 3                  NDSC9   IN_TEMP                  cn=2,s=nosgn,sf=0,n=2
        20 000125   200102 000010                    NDSC9   JULIAN_MONTH+3,,AUTO     cn=0,s=lsgnf,sf=0,n=8
        20 000126   200103 236100                    LDQ     JULIAN_MONTH+4,,AUTO
        20 000127   200077 756100                    STQ     JULIAN_MONTH,,AUTO

       94     6798    2           CALL CHARBIN (JULIAN.DAY, SUBSTR (IN_TEMP,4,2));

   6798 20 000130   000100 305400                    DTB
PL6.E3A0      #001=X9SR$SYSTEM_READ File=X9SR.:X8A6TSI                           SAT 08/09/97 11:03 Page:19
        20 000131   000001 030002 3                  NDSC9   IN_TEMP+1                cn=0,s=nosgn,sf=0,n=2
        20 000132   200102 000010                    NDSC9   JULIAN_MONTH+3,,AUTO     cn=0,s=lsgnf,sf=0,n=8
        20 000133   200103 235100                    LDA     JULIAN_MONTH+4,,AUTO
        20 000134   200076 755100                    STA     JULIAN+1,,AUTO

       95     6799    2           JULIAN.DAY = DAYS_PER_MONTH (JULIAN_MONTH - 1) + JULIAN.DAY;

   6799 20 000135   777777 236006 19                 LDQ     DAYS_PER_MONTH-1,QL
        20 000136   200076 036100                    ADLQ    JULIAN+1,,AUTO
        20 000137   200076 756100                    STQ     JULIAN+1,,AUTO

       96     6800    2           IF MOD (JULIAN.YEAR,4) = 0

   6800 20 000140   200075 236100                    LDQ     JULIAN,,AUTO
        20 000141   000003 376007                    ANQ     3,DL
        20 000142   000151 601000 20                 TNZ     s:6803
        20 000143   200077 235100                    LDA     JULIAN_MONTH,,AUTO
        20 000144   000003 115007                    CMPA    3,DL
        20 000145   000151 602000 20                 TNC     s:6803

       97     6801    2           AND JULIAN_MONTH > 2 THEN
       98     6802    2            JULIAN.DAY = JULIAN.DAY + 1;

   6802 20 000146   200076 236100                    LDQ     JULIAN+1,,AUTO
        20 000147   000001 036007                    ADLQ    1,DL
        20 000150   200076 756100                    STQ     JULIAN+1,,AUTO

       99     6803    2           IF JULIAN.YEAR > 89 THEN

   6803 20 000151   200075 235100                    LDA     JULIAN,,AUTO
        20 000152   000132 115007                    CMPA    90,DL
        20 000153   000157 602000 20                 TNC     s:6806

      100     6804    2              SUBSTR (IN_TEMP,0,2) = '19';

   6804 20 000154   000014 220000 19                 LDX0    DAYS_PER_MONTH+12
        20 000155   000000 740000 3                  STX0    IN_TEMP
PL6.E3A0      #001=X9SR$SYSTEM_READ File=X9SR.:X8A6TSI                           SAT 08/09/97 11:03 Page:20
        20 000156   000161 710000 20                 TRA     s:6807

      101     6805    2           ELSE
      102     6806    2              SUBSTR (IN_TEMP,0,2) = '20';

   6806 20 000157   000015 220000 19                 LDX0    DAYS_PER_MONTH+13
        20 000160   000000 740000 3                  STX0    IN_TEMP

      103     6807    2           CALL BINCHAR (SUBSTR (IN_TEMP,2,2), JULIAN.YEAR);

   6807 20 000161   000044 773000                    LRL     36
        20 000162   200102 757100                    STAQ    JULIAN_MONTH+3,,AUTO
        20 000163   000000 301500                    BTD
        20 000164   200102 000010                    NDSC9   JULIAN_MONTH+3,,AUTO     cn=0,s=lsgnf,sf=0,n=8
        20 000165   000000 430002 3                  NDSC9   IN_TEMP                  cn=2,s=nosgn,sf=0,n=2

      104     6808    2           CALL BINCHAR (SUBSTR (IN_TEMP,4,3), JULIAN.DAY);

   6808 20 000166   200076 235100                    LDA     JULIAN+1,,AUTO
        20 000167   000044 773000                    LRL     36
        20 000170   200102 757100                    STAQ    JULIAN_MONTH+3,,AUTO
        20 000171   000000 301500                    BTD
        20 000172   200102 000010                    NDSC9   JULIAN_MONTH+3,,AUTO     cn=0,s=lsgnf,sf=0,n=8
        20 000173   000001 030003 3                  NDSC9   IN_TEMP+1                cn=0,s=nosgn,sf=0,n=3
        20 000174   000322 710000 20                 TRA     s:6847

      105     6809
      106     6810    2         CASE( %ACCEPT_DATE );

      107     6811    2           CALL M$TIME( ACCEPT_DATE );

   6811 20 000175   000036 630400 18                 EPPR0   ACCEPT_DATE
        20 000176   020004 713400                    CLIMB   8196
        20 000177   402000 401760                    pmme    nvectors=5

      108     6812    2           SUBSTR(IN_TEMP,0,6) = SYSTEM_DATE;

PL6.E3A0      #001=X9SR$SYSTEM_READ File=X9SR.:X8A6TSI                           SAT 08/09/97 11:03 Page:21
   6812 20 000200   040000 100400                    MLR     fill='040'O
        20 000201   000000 000006 18                 ADSC9   SYSTEM_DATE              cn=0,n=6
        20 000202   000000 000006 3                  ADSC9   IN_TEMP                  cn=0,n=6
        20 000203   000322 710000 20                 TRA     s:6847

      109     6813
      110     6814    2         CASE ( %ACCEPT_TIME );

      111     6815    2           CALL M$TIME( ACCEPT_TIME );

   6815 20 000204   000052 630400 18                 EPPR0   ACCEPT_TIME
        20 000205   020004 713400                    CLIMB   8196
        20 000206   402000 401760                    pmme    nvectors=5
        20 000207   000322 710000 20                 TRA     s:6847

      112     6816
      113     6817    2         CASE ( %ACCEPT_DAY );

      114     6818    2           CALL M$TIME( ACCEPT_DAY );

   6818 20 000210   000066 630400 18                 EPPR0   ACCEPT_DAY
        20 000211   020004 713400                    CLIMB   8196
        20 000212   402000 401760                    pmme    nvectors=5
        20 000213   000322 710000 20                 TRA     s:6847

      115     6819
      116     6820    2         CASE ( %ACCEPT_DAY_OF_WEEK );

      117     6821
      118     6822    2           CALL M$TIME( ACCEPT_DAY_OF_WEEK );

   6822 20 000214   000102 630400 18                 EPPR0   ACCEPT_DAY_OF_WEEK
        20 000215   020004 713400                    CLIMB   8196
        20 000216   402000 401760                    pmme    nvectors=5

      119     6823
      120     6824    3                  DO SELECT ( IN_TEMP );
PL6.E3A0      #001=X9SR$SYSTEM_READ File=X9SR.:X8A6TSI                           SAT 08/09/97 11:03 Page:22

   6824 20 000217   040000 106400                    CMPC    fill='040'O
        20 000220   000000 000120 3                  ADSC9   IN_TEMP                  cn=0,n=80
        20 000221   000016 000003 19                 ADSC9   DAYS_PER_MONTH+14        cn=0,n=3
        20 000222   000236 602000 20                 TNC     s:6824+15
        20 000223   000276 600000 20                 TZE     s:6832
        20 000224   040000 106400                    CMPC    fill='040'O
        20 000225   000000 000120 3                  ADSC9   IN_TEMP                  cn=0,n=80
        20 000226   000017 000003 19                 ADSC9   DAYS_PER_MONTH+15        cn=0,n=3
        20 000227   000322 602000 20                 TNC     s:6847
        20 000230   000266 600000 20                 TZE     s:6828
        20 000231   040000 106400                    CMPC    fill='040'O
        20 000232   000000 000120 3                  ADSC9   IN_TEMP                  cn=0,n=80
        20 000233   000020 000003 19                 ADSC9   DAYS_PER_MONTH+16        cn=0,n=3
        20 000234   000322 601000 20                 TNZ     s:6847
        20 000235   000272 710000 20                 TRA     s:6830
        20 000236   040000 106400                    CMPC    fill='040'O
        20 000237   000000 000120 3                  ADSC9   IN_TEMP                  cn=0,n=80
        20 000240   000021 000003 19                 ADSC9   DAYS_PER_MONTH+17        cn=0,n=3
        20 000241   000255 602000 20                 TNC     s:6824+30
        20 000242   000262 600000 20                 TZE     s:6826
        20 000243   040000 106400                    CMPC    fill='040'O
        20 000244   000000 000120 3                  ADSC9   IN_TEMP                  cn=0,n=80
        20 000245   000022 000003 19                 ADSC9   DAYS_PER_MONTH+18        cn=0,n=3
        20 000246   000322 602000 20                 TNC     s:6847
        20 000247   000306 600000 20                 TZE     s:6836
        20 000250   040000 106400                    CMPC    fill='040'O
        20 000251   000000 000120 3                  ADSC9   IN_TEMP                  cn=0,n=80
        20 000252   000023 000003 19                 ADSC9   DAYS_PER_MONTH+19        cn=0,n=3
        20 000253   000322 601000 20                 TNZ     s:6847
        20 000254   000312 710000 20                 TRA     s:6838
        20 000255   040000 106400                    CMPC    fill='040'O
        20 000256   000000 000120 3                  ADSC9   IN_TEMP                  cn=0,n=80
        20 000257   000024 000003 19                 ADSC9   DAYS_PER_MONTH+20        cn=0,n=3
        20 000260   000322 601000 20                 TNZ     s:6847
        20 000261   000302 710000 20                 TRA     s:6834

PL6.E3A0      #001=X9SR$SYSTEM_READ File=X9SR.:X8A6TSI                           SAT 08/09/97 11:03 Page:23
      121     6825    3                    SELECT ('MON');

      122     6826    3                      IN_TEMP = '1';

   6826 20 000262   040000 100400                    MLR     fill='040'O
        20 000263   000001 000001 21                 ADSC9   1                        cn=0,n=1
        20 000264   000000 000120 3                  ADSC9   IN_TEMP                  cn=0,n=80
        20 000265   000322 710000 20                 TRA     s:6847

      123     6827    3                    SELECT ('TUE');

      124     6828    3                      IN_TEMP = '2';

   6828 20 000266   040000 100400                    MLR     fill='040'O
        20 000267   000010 000001 21                 ADSC9   8                        cn=0,n=1
        20 000270   000000 000120 3                  ADSC9   IN_TEMP                  cn=0,n=80
        20 000271   000322 710000 20                 TRA     s:6847

      125     6829    3                    SELECT ('WED');

      126     6830    3                      IN_TEMP = '3';

   6830 20 000272   040000 100400                    MLR     fill='040'O
        20 000273   000011 000001 21                 ADSC9   9                        cn=0,n=1
        20 000274   000000 000120 3                  ADSC9   IN_TEMP                  cn=0,n=80
        20 000275   000322 710000 20                 TRA     s:6847

      127     6831    3                    SELECT ('THU');

      128     6832    3                      IN_TEMP = '4';

   6832 20 000276   040000 100400                    MLR     fill='040'O
        20 000277   000012 000001 21                 ADSC9   10                       cn=0,n=1
        20 000300   000000 000120 3                  ADSC9   IN_TEMP                  cn=0,n=80
        20 000301   000322 710000 20                 TRA     s:6847

      129     6833    3                    SELECT ('FRI');
PL6.E3A0      #001=X9SR$SYSTEM_READ File=X9SR.:X8A6TSI                           SAT 08/09/97 11:03 Page:24

      130     6834    3                      IN_TEMP = '5';

   6834 20 000302   040000 100400                    MLR     fill='040'O
        20 000303   000013 000001 21                 ADSC9   11                       cn=0,n=1
        20 000304   000000 000120 3                  ADSC9   IN_TEMP                  cn=0,n=80
        20 000305   000322 710000 20                 TRA     s:6847

      131     6835    3                    SELECT ('SAT');

      132     6836    3                      IN_TEMP = '6';

   6836 20 000306   040000 100400                    MLR     fill='040'O
        20 000307   000014 000001 21                 ADSC9   12                       cn=0,n=1
        20 000310   000000 000120 3                  ADSC9   IN_TEMP                  cn=0,n=80
        20 000311   000322 710000 20                 TRA     s:6847

      133     6837    3                    SELECT ('SUN');

      134     6838    3                      IN_TEMP = '7';

   6838 20 000312   040000 100400                    MLR     fill='040'O
        20 000313   000015 000001 21                 ADSC9   13                       cn=0,n=1
        20 000314   000000 000120 3                  ADSC9   IN_TEMP                  cn=0,n=80

      135     6839
      136     6840    3                  END; /* select */

   6840 20 000315   000322 710000 20                 TRA     s:6847

      137     6841
      138     6842    2         CASE ( ELSE );

      139     6843
      140     6844    2           CALL X8ER$ERROR ( %INVALID_ACCEPT_CODE );

   6844 20 000316   000020 630400 21                 EPPR0   16
PL6.E3A0      #001=X9SR$SYSTEM_READ File=X9SR.:X8A6TSI                           SAT 08/09/97 11:03 Page:25
        20 000317   000016 631400 21                 EPPR1   14
        20 000320   000000 701000 xent               TSX1    X8ER$ERROR
        20 000321   000000 011000                    NOP     0

      141     6845
      142     6846    2       END; /* case accept_code */

      143     6847    1       RETURN;

   6847 20 000322   000000 702200 xent               TSX2  ! X66_ARET

      144     6848            %EJECT;
PL6.E3A0      #001=X9SR$SYSTEM_READ File=X9SR.:X8A6TSI                           SAT 08/09/97 11:03 Page:26
      145     6849    1     X9SR$GETDCB#:  PROC;

   6849 20 000323   200100 741300       X9SR$GETDCB# STX1  ! JULIAN_MONTH+1,,AUTO

      146     6850
      147     6851    2       DCL M_SI    UBIN WORD STATIC;
      148     6852            %VLP_NAME   (FPTN=MSI,NAME='M$SI');
      149     6879            %FPT_GETDCB (FPTN=SYSIN,DCBNAME=MSI,DCBNUM=M_SI,MERGE=YES);
      150     6894
      151     6895
      152     6896    2       CALL M$GETDCB (SYSIN);

   6896 20 000324   000122 630400 18                 EPPR0   SYSIN
        20 000325   060002 713400                    CLIMB   24578
        20 000326   401000 401760                    pmme    nvectors=3

      153     6897
      154     6898    2       ACCEPT_DEFAULT.V.DCB# = M_SI;

   6898 20 000327   000116 720000 18                 LXL0    M_SI
        20 000330   000012 740000 18                 STX0    ACCEPT_DEFAULT+8

      155     6899
      156     6900    2     END X9SR$GETDCB#; /* proc */

   6900 20 000331   200100 221300                    LDX1  ! JULIAN_MONTH+1,,AUTO
        20 000332   000001 702211                    TSX2  ! 1,X1
      157     6901
      158     6902
      159     6903    1   END X9SR$SYSTEM_READ ;  /* proc */

PL6.E3A0      #001=X9SR$SYSTEM_READ File=X9SR.:X8A6TSI                           SAT 08/09/97 11:03 Page:27
--  Include file information  --

   X8A_ERRCOM.:X8A6TOU  cannot be made into a system file and is referenced.
   X8A_LIBCOM.:X8A6TOU  cannot be made into a system file and is referenced.
   CP_6_SUBS.:LIB_E04  is referenced.
   CP_6_C.:LIB_E04  is referenced.
   CP_6.:LIB_E04  cannot be made into a system file and is referenced.
   Z9A_FLAGS.:Z8A6TOU  is referenced.
   X8A_SYS_FILE.:X8A6TOU  is referenced.
      No diagnostics issued in procedure X9SR$SYSTEM_READ.
PL6.E3A0      #001=X9SR$SYSTEM_READ File=X9SR.:X8A6TSI                           SAT 08/09/97 11:03 Page:28

 **** Variables and constants ****

  ****  Section 001 LblCom LIBCOM

  ****  Scalars and arrays  ****
OctLoc.c.b A Datatyp(siz) R M Lvl/name                 OctLoc.c.b A Datatyp(siz) R M Lvl/name

     0-0-0/w STRC(720)   r     1 LIBCOM

  ****  Section 002 LblCom DEC_OR_COMMA

  ****  Scalars and arrays  ****
OctLoc.c.b A Datatyp(siz) R M Lvl/name                 OctLoc.c.b A Datatyp(siz) R M Lvl/name

     0-0-0/c CHAR              1 DEC_OR_COMMA

  ****  Section 003 LblCom IN_TEMP

  ****  Scalars and arrays  ****
OctLoc.c.b A Datatyp(siz) R M Lvl/name                 OctLoc.c.b A Datatyp(siz) R M Lvl/name

     0-0-0/c CHAR(80)    r     1 IN_TEMP

  ****  Section 004 LblCom OVRCHR

  ****  Scalars and arrays  ****
OctLoc.c.b A Datatyp(siz) R M Lvl/name                 OctLoc.c.b A Datatyp(siz) R M Lvl/name

     0-0-0/c CHAR              1 OVRCHR

  ****  Section 005 LblCom SELECT_TIME

  ****  Scalars and arrays  ****
OctLoc.c.b A Datatyp(siz) R M Lvl/name                 OctLoc.c.b A Datatyp(siz) R M Lvl/name

     0-0-0/w UBIN              1 SELECT_TIME

PL6.E3A0      #001=X9SR$SYSTEM_READ File=X9SR.:X8A6TSI                           SAT 08/09/97 11:03 Page:29
  ****  Section 006 LblCom NO_ADVANCE_OFFSET

  ****  Scalars and arrays  ****
OctLoc.c.b A Datatyp(siz) R M Lvl/name                 OctLoc.c.b A Datatyp(siz) R M Lvl/name

     0-0-0/w UBIN              1 NO_ADVANCE_OFFSET

  ****  Section 007 LblCom DSPLY_SAVE

  ****  Scalars and arrays  ****
OctLoc.c.b A Datatyp(siz) R M Lvl/name                 OctLoc.c.b A Datatyp(siz) R M Lvl/name

     0-0-0/c CHAR(72)    r     1 DSPLY_SAVE

  ****  Section 008 LblCom D_DATE

  ****  Scalars and arrays  ****
OctLoc.c.b A Datatyp(siz) R M Lvl/name                 OctLoc.c.b A Datatyp(siz) R M Lvl/name

     0-0-0/c CHAR(10)          1 D_DATE

  ****  Section 009 LblCom D_TIME

  ****  Scalars and arrays  ****
OctLoc.c.b A Datatyp(siz) R M Lvl/name                 OctLoc.c.b A Datatyp(siz) R M Lvl/name

     0-0-0/c CHAR(11)          1 D_TIME

  ****  Section 010 LblCom D_DAY

  ****  Scalars and arrays  ****
OctLoc.c.b A Datatyp(siz) R M Lvl/name                 OctLoc.c.b A Datatyp(siz) R M Lvl/name

     0-0-0/c CHAR(3)           1 D_DAY

  ****  Section 011 LblCom C_DATE

PL6.E3A0      #001=X9SR$SYSTEM_READ File=X9SR.:X8A6TSI                           SAT 08/09/97 11:03 Page:30
  ****  Scalars and arrays  ****
OctLoc.c.b A Datatyp(siz) R M Lvl/name                 OctLoc.c.b A Datatyp(siz) R M Lvl/name

     0-0-0/c CHAR(6)           1 C_DATE

  ****  Section 012 LblCom C_TIME

  ****  Scalars and arrays  ****
OctLoc.c.b A Datatyp(siz) R M Lvl/name                 OctLoc.c.b A Datatyp(siz) R M Lvl/name

     0-0-0/c CHAR(8)           1 C_TIME

  ****  Section 013 LblCom C_DAY

  ****  Scalars and arrays  ****
OctLoc.c.b A Datatyp(siz) R M Lvl/name                 OctLoc.c.b A Datatyp(siz) R M Lvl/name

     0-0-0/c CHAR(5)           1 C_DAY

  ****  Section 014 LblCom RTHOLD2

  ****  Scalars and arrays  ****
OctLoc.c.b A Datatyp(siz) R M Lvl/name                 OctLoc.c.b A Datatyp(siz) R M Lvl/name

     0-0-0/w UBIN              1 RTHOLD2

  ****  Section 015 LblCom LTHOLD2

  ****  Scalars and arrays  ****
OctLoc.c.b A Datatyp(siz) R M Lvl/name                 OctLoc.c.b A Datatyp(siz) R M Lvl/name

     0-0-0/w UBIN              1 LTHOLD2

  ****  Section 016 LblCom NDX2

  ****  Scalars and arrays  ****
OctLoc.c.b A Datatyp(siz) R M Lvl/name                 OctLoc.c.b A Datatyp(siz) R M Lvl/name
PL6.E3A0      #001=X9SR$SYSTEM_READ File=X9SR.:X8A6TSI                           SAT 08/09/97 11:03 Page:31

     0-0-0/w SBIN              1 NDX2

  ****  Section 017 LblCom IN_LEN

  ****  Scalars and arrays  ****
OctLoc.c.b A Datatyp(siz) R M Lvl/name                 OctLoc.c.b A Datatyp(siz) R M Lvl/name

     0-0-0/w UBIN              1 IN_LEN

  ****  Section 018  Data  X9SR$SYSTEM_READ

  ****  Scalars and arrays  ****
OctLoc.c.b A Datatyp(siz) R M Lvl/name                 OctLoc.c.b A Datatyp(siz) R M Lvl/name

    20-0-0/d STRC(504)   r     1 ACCEPT_CONSOLE            36-0-0/d STRC(432)   r     1 ACCEPT_DATE
    66-0-0/d STRC(432)   r     1 ACCEPT_DAY               102-0-0/d STRC(432)   r     1 ACCEPT_DAY_OF_WEEK
     2-0-0/d STRC(504)   r     1 ACCEPT_DEFAULT            52-0-0/d STRC(432)   r     1 ACCEPT_TIME
   117-0-0/c STRC(45)    r     1 MSI                      116-0-0/w UBIN        r     1 M_SI
   122-0-0/d STRC(288)   r     1 SYSIN                      0-0-0/c CHAR(6)     r     1 SYSTEM_DATE

  ****  Section 019 RoData X9SR$SYSTEM_READ

  ****  Scalars and arrays  ****
OctLoc.c.b A Datatyp(siz) R M Lvl/name                 OctLoc.c.b A Datatyp(siz) R M Lvl/name

     0-0-0/w UBIN        r     1 DAYS_PER_MONTH(0:11)

  ****  Auto variables  ****

  ****  Scalars and arrays  ****
OctLoc.c.b A Datatyp(siz) R M Lvl/name                 OctLoc.c.b A Datatyp(siz) R M Lvl/name

     3-0-0/w PTR         r     1 @ACCEPT_CODE              *0-0-0/w UBIN        r     1 ACCEPT_CODE
    75-0-0/w STRC(72)    r     1 JULIAN                    77-0-0/w UBIN        r     1 JULIAN_MONTH
     4-0-0/w SBIN              1 LT                         5-0-0/c CHAR(65)          1 LTHOLD
    47-0-0/w SBIN              1 NDX                       50-0-0/w SBIN              1 NDX3
PL6.E3A0      #001=X9SR$SYSTEM_READ File=X9SR.:X8A6TSI                           SAT 08/09/97 11:03 Page:32
    26-0-0/c CHAR(65)          1 RTHOLD                    51-0-0/c CHAR(80)          1 SPECIAL_ERR_MSG

  ****  BASED and DCB variables  ****

  ****  Scalars and arrays  ****
OctLoc.c.b A Datatyp(siz) R M Lvl/name                 OctLoc.c.b A Datatyp(siz) R M Lvl/name

     0-0-0N  NULL        r     1 M$UC


   Procedure X9SR$SYSTEM_READ requires 219 words for executable code.
   Procedure X9SR$SYSTEM_READ requires 68 words of local(AUTO) storage.

    No errors detected in file X9SR.:X8A6TSI    .
