VERSION A06

PL6.E3A0      #001=X9SS$SET_SWITCHES_ON File=X9SS.:X8A6TSI                       SAT 08/09/97 11:03 Page:1
        1        1        /*T***********************************************************/
        2        2        /*T*                                                         */
        3        3        /*T* Copyright (c) Bull HN Information Systems Inc., 1997    */
        4        4        /*T*                                                         */
        5        5        /*T***********************************************************/
        6        6        X9SS$SET_SWITCHES_ON: PROC( SWITCHES );
        7        7
        8        8            %INCLUDE X8A_SYS_FILE;
        9     6278
       10     6279    1       DCL SWITCHES           BIT(36) ALIGNED;
       11     6280            %FPT_SWITCH;
       12     6294
       13     6295    1       FPT_SWITCH.V.SWITCH# = SWITCHES;
       14     6296    1       CALL M$SSWITCH ( FPT_SWITCH );
       15     6297    1       RETURN;
       16     6298        %EJECT;
PL6.E3A0      #001=X9SS$SET_SWITCHES_ON File=X9SS.:X8A6TSI                       SAT 08/09/97 11:03 Page:2
       17     6299    1   X9SS$SET_SWITCHES_OFF: ENTRY( SWITCHES );
       18     6300
       19     6301    1       FPT_SWITCH.V.SWITCH# = SWITCHES;
       20     6302    1       CALL M$RSWITCH ( FPT_SWITCH );
       21     6303
       22     6304    1   END X9SS$SET_SWITCHES_ON;  /* proc */
       23     6305        %EJECT;
PL6.E3A0      #001=X9SS$SET_SWITCHES_ON File=X9SS.:X8A6TSI                       SAT 08/09/97 11:03 Page:3
       24     6306        %EOD;

PL6.E3A0      #001=X9SS$SET_SWITCHES_ON File=X9SS.:X8A6TSI                       SAT 08/09/97 11:03 Page:4
--  Include file information  --

   CP_6_SUBS.:LIB_E04  is referenced.
   CP_6_C.:LIB_E04  is referenced.
   CP_6.:LIB_E04  cannot be made into a system file and is referenced.
   Z9A_FLAGS.:Z8A6TOU  is referenced.
   X8A_SYS_FILE.:X8A6TOU  is referenced.
      No diagnostics issued in procedure X9SS$SET_SWITCHES_ON.

   Procedure X9SS$SET_SWITCHES_ON requires 18 words for executable code.
   Procedure X9SS$SET_SWITCHES_ON requires 4 words of local(AUTO) storage.

PL6.E3A0      #001=X9SS$SET_SWITCHES_ON File=X9SS.:X8A6TSI                       SAT 08/09/97 11:03 Page:5

 Object Unit name= X9SS$SET_SWITCHES_ON                       File name= X9SS.:X8A6TOU
 UTS= AUG 09 '97 11:03:26.32 SAT                              Compiler= PL-6/E31         Sev=      00
 SharedLib= :SHARED_SYSTEM                                    Alt SharedLib=


    ****  Control sections  ****

 Sect   Type Bound  Init  Size OctSiz  Section name(segment info)
    0   DCB   even  none     0      0  M$UC
    1   Data  even  none     4      4  X9SS$SET_SWITCHES_ON
    2   Proc  even  none    18     22  X9SS$SET_SWITCHES_ON

    ****  Entry defs  ****

                              Check   Calling
                             calling  sequence
  Sect OctLoc Primary Altret sequence   type   Parms  Name
     2      0   yes            yes      Std        1  X9SS$SET_SWITCHES_ON
     2     11                  yes      Std        1  X9SS$SET_SWITCHES_OFF

  ****  Entry refs  ****

         Check        Calling
        calling       sequence
Altret sequence SRef   type   Args  Name
                       nStd      0 X66_AUTO_1
                       nStd      0 X66_ARET

  ****  Data refs  ****

  Flags:  r = read only, s = secondary
Flgs Name                             Flgs Name                             Flgs Name
     M$UC
PL6.E3A0      #001=X9SS$SET_SWITCHES_ON File=X9SS.:X8A6TSI                       SAT 08/09/97 11:03 Page:6

  ****  Segment refs  ****

  Flags:  r = read only, s = secondary
Flgs Name                             Flgs Name                             Flgs Name
     ISSID
PL6.E3A0      #001=X9SS$SET_SWITCHES_ON File=X9SS.:X8A6TSI                       SAT 08/09/97 11:03 Page:7


        1        1        /*T***********************************************************/
        2        2        /*T*                                                         */
        3        3        /*T* Copyright (c) Bull HN Information Systems Inc., 1997    */
        4        4        /*T*                                                         */
        5        5        /*T***********************************************************/
        6        6        X9SS$SET_SWITCHES_ON: PROC( SWITCHES );

      6  2 000000   000000 700200 xent  X9SS$SET_SW* TSX0  ! X66_AUTO_1
         2 000001   000004 000001                    ZERO    4,1

        7        7
        8        8            %INCLUDE X8A_SYS_FILE;
        9     6278
       10     6279    1       DCL SWITCHES           BIT(36) ALIGNED;
       11     6280            %FPT_SWITCH;
       12     6294
       13     6295    1       FPT_SWITCH.V.SWITCH# = SWITCHES;

   6295  2 000002   200003 470500                    LDP0    @SWITCHES,,AUTO
         2 000003   000000 236100                    LDQ     0,,PR0
         2 000004   000002 756000 1                  STQ     FPT_SWITCH+2

       14     6296    1       CALL M$SSWITCH ( FPT_SWITCH );

   6296  2 000005   000000 630400 1                  EPPR0   FPT_SWITCH
         2 000006   020014 713400                    CLIMB   8204
         2 000007   400000 401760                    pmme    nvectors=1

       15     6297    1       RETURN;

   6297  2 000010   000000 702200 xent               TSX2  ! X66_ARET

       16     6298        %EJECT;
PL6.E3A0      #001=X9SS$SET_SWITCHES_ON File=X9SS.:X8A6TSI                       SAT 08/09/97 11:03 Page:8
       17     6299    1   X9SS$SET_SWITCHES_OFF: ENTRY( SWITCHES );

   6299  2 000011   000000 700200 xent  X9SS$SET_SW* TSX0  ! X66_AUTO_1
         2 000012   000004 000001                    ZERO    4,1

       18     6300
       19     6301    1       FPT_SWITCH.V.SWITCH# = SWITCHES;

   6301  2 000013   200003 470500                    LDP0    @SWITCHES,,AUTO
         2 000014   000000 236100                    LDQ     0,,PR0
         2 000015   000002 756000 1                  STQ     FPT_SWITCH+2

       20     6302    1       CALL M$RSWITCH ( FPT_SWITCH );

   6302  2 000016   000000 630400 1                  EPPR0   FPT_SWITCH
         2 000017   020015 713400                    CLIMB   8205
         2 000020   400000 401760                    pmme    nvectors=1

       21     6303
       22     6304    1   END X9SS$SET_SWITCHES_ON;  /* proc */

   6304  2 000021   000000 702200 xent               TSX2  ! X66_ARET
       23     6305        %EJECT;
PL6.E3A0      #001=X9SS$SET_SWITCHES_ON File=X9SS.:X8A6TSI                       SAT 08/09/97 11:03 Page:9
       24     6306        %EOD;

PL6.E3A0      #001=X9SS$SET_SWITCHES_ON File=X9SS.:X8A6TSI                       SAT 08/09/97 11:03 Page:10
--  Include file information  --

   CP_6_SUBS.:LIB_E04  is referenced.
   CP_6_C.:LIB_E04  is referenced.
   CP_6.:LIB_E04  cannot be made into a system file and is referenced.
   Z9A_FLAGS.:Z8A6TOU  is referenced.
   X8A_SYS_FILE.:X8A6TOU  is referenced.
      No diagnostics issued in procedure X9SS$SET_SWITCHES_ON.
PL6.E3A0      #001=X9SS$SET_SWITCHES_ON File=X9SS.:X8A6TSI                       SAT 08/09/97 11:03 Page:11

 **** Variables and constants ****

  ****  Section 001  Data  X9SS$SET_SWITCHES_ON

  ****  Scalars and arrays  ****
OctLoc.c.b A Datatyp(siz) R M Lvl/name                 OctLoc.c.b A Datatyp(siz) R M Lvl/name

     0-0-0/d STRC(144)   r     1 FPT_SWITCH

  ****  Auto variables  ****

  ****  Scalars and arrays  ****
OctLoc.c.b A Datatyp(siz) R M Lvl/name                 OctLoc.c.b A Datatyp(siz) R M Lvl/name

     3-0-0/w PTR         r     1 @SWITCHES                 *0-0-0/w BIT         r     1 SWITCHES

  ****  BASED and DCB variables  ****

  ****  Scalars and arrays  ****
OctLoc.c.b A Datatyp(siz) R M Lvl/name                 OctLoc.c.b A Datatyp(siz) R M Lvl/name

     0-0-0N  NULL        r     1 M$UC


   Procedure X9SS$SET_SWITCHES_ON requires 18 words for executable code.
   Procedure X9SS$SET_SWITCHES_ON requires 4 words of local(AUTO) storage.

PL6.E3A0      #002=X9SS$CHECK_SWITCH_ON File=X9SS.:X8A6TSI                       SAT 08/09/97 11:04 Page:12
       25        1        /*T***********************************************************/
       26        2        /*T*                                                         */
       27        3        /*T* Copyright (c) Bull HN Information Systems Inc., 1997    */
       28        4        /*T*                                                         */
       29        5        /*T***********************************************************/
       30        6        X9SS$CHECK_SWITCH_ON: PROC( SWITCH ) ALTRET;
       31        7
       32        8            %INCLUDE X8A_SYS_FILE;
       33     6278            %INCLUDE B$JIT_C.:LIBRARY;
       34     6592            %B$JIT0;
       35     6681            %U$JIT1;
       36     6755            %A$JIT6X;
       37     6758
       38     6759    1       DCL B$JIT$         PTR SYMREF;
       39     6760    1       DCL SWITCH         UBIN WORD;
       40     6761
       41     6762    1       IF B$JIT.SWITCH( SWITCH ) THEN
       42     6763    1         RETURN;
       43     6764    1       ELSE
       44     6765    1         ALTRETURN;
       45     6766        %EJECT;
PL6.E3A0      #002=X9SS$CHECK_SWITCH_ON File=X9SS.:X8A6TSI                       SAT 08/09/97 11:04 Page:13
       46     6767    1   X9SS$CHECK_SWITCH_OFF: ENTRY( SWITCH ) ALTRET;
       47     6768
       48     6769    1       IF B$JIT.SWITCH( SWITCH ) THEN
       49     6770    1         ALTRETURN;
       50     6771    1       ELSE
       51     6772    1         RETURN;
       52     6773
       53     6774    1   END X9SS$CHECK_SWITCH_ON;  /* proc */
       54     6775        %EJECT;
PL6.E3A0      #002=X9SS$CHECK_SWITCH_ON File=X9SS.:X8A6TSI                       SAT 08/09/97 11:04 Page:14

PL6.E3A0      #002=X9SS$CHECK_SWITCH_ON File=X9SS.:X8A6TSI                       SAT 08/09/97 11:04 Page:15
--  Include file information  --

   B$JIT_C.:LIBRARY  is referenced.
   CP_6_SUBS.:LIB_E04  is referenced.
   CP_6_C.:LIB_E04  is referenced.
   CP_6.:LIB_E04  cannot be made into a system file and is referenced.
   Z9A_FLAGS.:Z8A6TOU  is referenced.
   X8A_SYS_FILE.:X8A6TOU  is referenced.
      No diagnostics issued in procedure X9SS$CHECK_SWITCH_ON.

   Procedure X9SS$CHECK_SWITCH_ON requires 22 words for executable code.
   Procedure X9SS$CHECK_SWITCH_ON requires 4 words of local(AUTO) storage.

    No errors detected in file X9SS.:X8A6TSI    .

PL6.E3A0      #002=X9SS$CHECK_SWITCH_ON File=X9SS.:X8A6TSI                       SAT 08/09/97 11:04 Page:16

 Object Unit name= X9SS$CHECK_SWITCH_ON                       File name= X9SS.:X8A6TOU
 UTS= AUG 09 '97 11:04:35.60 SAT                              Compiler= PL-6/E31         Sev=      00
 SharedLib= :SHARED_SYSTEM                                    Alt SharedLib=


    ****  Control sections  ****

 Sect   Type Bound  Init  Size OctSiz  Section name(segment info)
    0   DCB   even  none     0      0  M$UC
    1   Proc  even  none    22     26  X9SS$CHECK_SWITCH_ON
    2  RoData even  none     1      1  X9SS$CHECK_SWITCH_ON

    ****  Entry defs  ****

                              Check   Calling
                             calling  sequence
  Sect OctLoc Primary Altret sequence   type   Parms  Name
     1      0   yes    yes     yes      Std        1  X9SS$CHECK_SWITCH_ON
     1     13          yes     yes      Std        1  X9SS$CHECK_SWITCH_OFF

  ****  Entry refs  ****

         Check        Calling
        calling       sequence
Altret sequence SRef   type   Args  Name
                       nStd      0 X66_AUTO_1
                       nStd      0 X66_ARET
                       nStd      0 X66_AALT

  ****  Data refs  ****

  Flags:  r = read only, s = secondary
Flgs Name                             Flgs Name                             Flgs Name
     M$UC                                  B$JIT$
PL6.E3A0      #002=X9SS$CHECK_SWITCH_ON File=X9SS.:X8A6TSI                       SAT 08/09/97 11:04 Page:17


       25        1        /*T***********************************************************/
       26        2        /*T*                                                         */
       27        3        /*T* Copyright (c) Bull HN Information Systems Inc., 1997    */
       28        4        /*T*                                                         */
       29        5        /*T***********************************************************/
       30        6        X9SS$CHECK_SWITCH_ON: PROC( SWITCH ) ALTRET;

      6  1 000000   000000 700200 xent  X9SS$CHECK_* TSX0  ! X66_AUTO_1
         1 000001   000004 000001                    ZERO    4,1

       31        7
       32        8            %INCLUDE X8A_SYS_FILE;
       33     6278            %INCLUDE B$JIT_C.:LIBRARY;
       34     6592            %B$JIT0;
       35     6681            %U$JIT1;
       36     6755            %A$JIT6X;
       37     6758
       38     6759    1       DCL B$JIT$         PTR SYMREF;
       39     6760    1       DCL SWITCH         UBIN WORD;
       40     6761
       41     6762    1       IF B$JIT.SWITCH( SWITCH ) THEN

   6762  1 000002   200003 470500                    LDP0    @SWITCH,,AUTO
         1 000003   000000 235100                    LDA     0,,PR0
         1 000004   000000 471400 xsym               LDP1    B$JIT$
         1 000005   000000 066505                    CMPB    filb='0'B
         1 000006   100031 000001                    BDSC    25,A,PR1                 by=0,bit=0,n=1
         1 000007   000000 000022 2                  BDSC    0                        by=0,bit=0,n=18
         1 000010   000012 600000 1                  TZE     s:6765

       42     6763    1         RETURN;

   6763  1 000011   000000 702200 xent               TSX2  ! X66_ARET

       43     6764    1       ELSE
       44     6765    1         ALTRETURN;
PL6.E3A0      #002=X9SS$CHECK_SWITCH_ON File=X9SS.:X8A6TSI                       SAT 08/09/97 11:04 Page:18

   6765  1 000012   000000 702200 xent               TSX2  ! X66_AALT

       45     6766        %EJECT;
PL6.E3A0      #002=X9SS$CHECK_SWITCH_ON File=X9SS.:X8A6TSI                       SAT 08/09/97 11:04 Page:19
       46     6767    1   X9SS$CHECK_SWITCH_OFF: ENTRY( SWITCH ) ALTRET;

   6767  1 000013   000000 700200 xent  X9SS$CHECK_* TSX0  ! X66_AUTO_1
         1 000014   000004 000001                    ZERO    4,1

       47     6768
       48     6769    1       IF B$JIT.SWITCH( SWITCH ) THEN

   6769  1 000015   200003 470500                    LDP0    @SWITCH,,AUTO
         1 000016   000000 235100                    LDA     0,,PR0
         1 000017   000000 471400 xsym               LDP1    B$JIT$
         1 000020   000000 066505                    CMPB    filb='0'B
         1 000021   100031 000001                    BDSC    25,A,PR1                 by=0,bit=0,n=1
         1 000022   000000 000022 2                  BDSC    0                        by=0,bit=0,n=18
         1 000023   000025 600000 1                  TZE     s:6772

       49     6770    1         ALTRETURN;

   6770  1 000024   000000 702200 xent               TSX2  ! X66_AALT

       50     6771    1       ELSE
       51     6772    1         RETURN;

   6772  1 000025   000000 702200 xent               TSX2  ! X66_ARET
       52     6773
       53     6774    1   END X9SS$CHECK_SWITCH_ON;  /* proc */
       54     6775        %EJECT;
PL6.E3A0      #002=X9SS$CHECK_SWITCH_ON File=X9SS.:X8A6TSI                       SAT 08/09/97 11:04 Page:20

PL6.E3A0      #002=X9SS$CHECK_SWITCH_ON File=X9SS.:X8A6TSI                       SAT 08/09/97 11:04 Page:21
--  Include file information  --

   B$JIT_C.:LIBRARY  is referenced.
   CP_6_SUBS.:LIB_E04  is referenced.
   CP_6_C.:LIB_E04  is referenced.
   CP_6.:LIB_E04  cannot be made into a system file and is referenced.
   Z9A_FLAGS.:Z8A6TOU  is referenced.
   X8A_SYS_FILE.:X8A6TOU  is referenced.
      No diagnostics issued in procedure X9SS$CHECK_SWITCH_ON.
PL6.E3A0      #002=X9SS$CHECK_SWITCH_ON File=X9SS.:X8A6TSI                       SAT 08/09/97 11:04 Page:22

 **** Variables and constants ****

  ****  Auto variables  ****

  ****  Scalars and arrays  ****
OctLoc.c.b A Datatyp(siz) R M Lvl/name                 OctLoc.c.b A Datatyp(siz) R M Lvl/name

     3-0-0/w PTR         r     1 @SWITCH                   *0-0-0/w UBIN        r     1 SWITCH

  ****  SYMREF variables  ****

  ****  Scalars and arrays  ****
OctLoc.c.b A Datatyp(siz) R M Lvl/name                 OctLoc.c.b A Datatyp(siz) R M Lvl/name

     0-0-0/w PTR         r     1 B$JIT$

  ****  BASED and DCB variables  ****

  ****  Scalars and arrays  ****
OctLoc.c.b A Datatyp(siz) R M Lvl/name                 OctLoc.c.b A Datatyp(siz) R M Lvl/name

     0-0-0/d STRC(5760)  r     1 B$JIT                      0-0-0N  NULL        r     1 M$UC


   Procedure X9SS$CHECK_SWITCH_ON requires 22 words for executable code.
   Procedure X9SS$CHECK_SWITCH_ON requires 4 words of local(AUTO) storage.

    No errors detected in file X9SS.:X8A6TSI    .
