VERSION A06

PL6.E3A0      #001=X9ST$STOP_RUN File=X9ST.:X8A6TSI                              SAT 08/09/97 11:03 Page:1
        1        1        /*M* X9ST$STOP_RUN -- STOP RUN Statement */
        2        2        /*T***********************************************************/
        3        3        /*T*                                                         */
        4        4        /*T* Copyright (c) Bull HN Information Systems Inc., 1997    */
        5        5        /*T*                                                         */
        6        6        /*T***********************************************************/
        7        7
        8        8
        9        9        /*P* NAME: X9ST$STOP_RUN
       10       10
       11       11          PURPOSE: Perform Cobol-82 STOP RUN function.
       12       12        */
       13       13
       14       14        /*F*   NAME: X9ST$STOP_RUN
       15       15
       16       16           DESCRIPTION: Currently, this routine calls M$EXIT.
       17       17                        In the future, more functionality may
       18       18                        be needed.
       19       19
       20       20            REFERENCE:  Cobol-82 ANSI Standard.
       21       21                        Monitor Services Reference Manual.
       22       22        */
       23       23
       24       24        /*D* NAME: X9ST$STOP_RUN
       25       25
       26       26             CALL: TSX1 X9ST
       27       27
       28       28         INTERFACE: M$EXIT
       29       29
       30       30         DESCRIPTION: see above.
       31       31
       32       32        */
       33       33        X9ST$STOP_RUN: PROC ; /* STOP_RUN */
       34       34
       35       35            %INCLUDE X8A_SYS_FILE ;
       36     6305            %INCLUDE X8A_LIBCOM ;
       37     6525            %INCLUDE X8A_MACROS;
PL6.E3A0      #001=X9ST$STOP_RUN File=X9ST.:X8A6TSI                              SAT 08/09/97 11:03 Page:2
       38     6782
       39     6783    1       DCL X9FT$FIGURE_TIMES    ENTRY;
       40     6784
       41     6785        %FPT_CLOSE (FPTN = CLOSELO,DISP=SAVE);
       42     6827
       43     6828    1       IF LIBCOM.STATS THEN
       44     6829    1         CALL X9FT$FIGURE_TIMES;
       45     6830    1       IF LIBCOM.M_LO_ASSIGNED THEN
       46     6831    2         DO;
       47     6832    2           CLOSELO.V.DCB# = LIBCOM.M_LO;
       48     6833    2           CALL M$CLOSE(CLOSELO);
       49     6834    2         END;
       50     6835
       51     6836    1       IF LIBCOM.ERROR_FLAG THEN                 /*#29978*/
       52     6837    1         CALL M$XXX;
       53     6838    1       ELSE
       54     6839    1         CALL M$EXIT;
       55     6840
       56     6841    1   END X9ST$STOP_RUN ;

PL6.E3A0      #001=X9ST$STOP_RUN File=X9ST.:X8A6TSI                              SAT 08/09/97 11:03 Page:3
--  Include file information  --

   X8A_COM_MACS.:X8A6TOU  is referenced.
   X8A_MACROS.:X8A6TOU  is referenced.
   X8A_LIBCOM.:X8A6TOU  cannot be made into a system file and is referenced.
   CP_6_SUBS.:LIB_E04  is referenced.
   CP_6_C.:LIB_E04  is referenced.
   CP_6.:LIB_E04  cannot be made into a system file and is referenced.
   Z9A_FLAGS.:Z8A6TOU  is referenced.
   X8A_SYS_FILE.:X8A6TOU  is referenced.
      No diagnostics issued in procedure X9ST$STOP_RUN.

   Procedure X9ST$STOP_RUN requires 22 words for executable code.
   Procedure X9ST$STOP_RUN requires 40 words of local(AUTO) storage.

    No errors detected in file X9ST.:X8A6TSI    .

PL6.E3A0      #001=X9ST$STOP_RUN File=X9ST.:X8A6TSI                              SAT 08/09/97 11:03 Page:4

 Object Unit name= X9ST$STOP_RUN                              File name= X9ST.:X8A6TOU
 UTS= AUG 09 '97 11:03:42.96 SAT                              Compiler= PL-6/E31         Sev=      00
 SharedLib= :SHARED_SYSTEM                                    Alt SharedLib=


    ****  Control sections  ****

 Sect   Type Bound  Init  Size OctSiz  Section name(segment info)
    0   DCB   even  none     0      0  M$UC
    1  LblCom even  none    20     24  LIBCOM
    2  LblCom even  none     1      1  DEC_OR_COMMA
    3  LblCom even  none    20     24  IN_TEMP
    4  LblCom even  none     1      1  OVRCHR
    5  LblCom even  none     1      1  SELECT_TIME
    6  LblCom even  none     1      1  NO_ADVANCE_OFFSET
    7  LblCom even  none    18     22  DSPLY_SAVE
    8  LblCom even  none     3      3  D_DATE
    9  LblCom even  none     3      3  D_TIME
   10  LblCom even  none     1      1  D_DAY
   11  LblCom even  none     2      2  C_DATE
   12  LblCom even  none     2      2  C_TIME
   13  LblCom even  none     2      2  C_DAY
   14  LblCom even  none     1      1  RTHOLD2
   15  LblCom even  none     1      1  LTHOLD2
   16  LblCom even  none     1      1  NDX2
   17  LblCom even  none     1      1  IN_LEN
   18   Data  even  none    30     36  X9ST$STOP_RUN
   19   Proc  even  none    22     26  X9ST$STOP_RUN
   20  RoData even  none     1      1  X9ST$STOP_RUN

    ****  Entry defs  ****

                              Check   Calling
                             calling  sequence
  Sect OctLoc Primary Altret sequence   type   Parms  Name
    19      0   yes            yes      Std        0  X9ST$STOP_RUN
PL6.E3A0      #001=X9ST$STOP_RUN File=X9ST.:X8A6TSI                              SAT 08/09/97 11:03 Page:5

  ****  Entry refs  ****

         Check        Calling
        calling       sequence
Altret sequence SRef   type   Args  Name
         yes           Std       0 X9FT$FIGURE_TIMES
                       nStd      0 X66_AUTO_0
                       nStd      0 X66_ARET

  ****  Data refs  ****

  Flags:  r = read only, s = secondary
Flgs Name                             Flgs Name                             Flgs Name
     M$UC

  ****  Segment refs  ****

  Flags:  r = read only, s = secondary
Flgs Name                             Flgs Name                             Flgs Name
     ISSID                                 NULLSID
PL6.E3A0      #001=X9ST$STOP_RUN File=X9ST.:X8A6TSI                              SAT 08/09/97 11:03 Page:6


        1        1        /*M* X9ST$STOP_RUN -- STOP RUN Statement */
        2        2        /*T***********************************************************/
        3        3        /*T*                                                         */
        4        4        /*T* Copyright (c) Bull HN Information Systems Inc., 1997    */
        5        5        /*T*                                                         */
        6        6        /*T***********************************************************/
        7        7
        8        8
        9        9        /*P* NAME: X9ST$STOP_RUN
       10       10
       11       11          PURPOSE: Perform Cobol-82 STOP RUN function.
       12       12        */
       13       13
       14       14        /*F*   NAME: X9ST$STOP_RUN
       15       15
       16       16           DESCRIPTION: Currently, this routine calls M$EXIT.
       17       17                        In the future, more functionality may
       18       18                        be needed.
       19       19
       20       20            REFERENCE:  Cobol-82 ANSI Standard.
       21       21                        Monitor Services Reference Manual.
       22       22        */
       23       23
       24       24        /*D* NAME: X9ST$STOP_RUN
       25       25
       26       26             CALL: TSX1 X9ST
       27       27
       28       28         INTERFACE: M$EXIT
       29       29
       30       30         DESCRIPTION: see above.
       31       31
       32       32        */
       33       33        X9ST$STOP_RUN: PROC ; /* STOP_RUN */

     33 19 000000   000000 700200 xent  X9ST$STOP_R* TSX0  ! X66_AUTO_0
        19 000001   000050 000000                    ZERO    40,0
PL6.E3A0      #001=X9ST$STOP_RUN File=X9ST.:X8A6TSI                              SAT 08/09/97 11:03 Page:7

       34       34
       35       35            %INCLUDE X8A_SYS_FILE ;
       36     6305            %INCLUDE X8A_LIBCOM ;
       37     6525            %INCLUDE X8A_MACROS;
       38     6782
       39     6783    1       DCL X9FT$FIGURE_TIMES    ENTRY;
       40     6784
       41     6785        %FPT_CLOSE (FPTN = CLOSELO,DISP=SAVE);
       42     6827
       43     6828    1       IF LIBCOM.STATS THEN

   6828 19 000002   000002 234000 1                  SZN     LIBCOM+2
        19 000003   000007 605000 19                 TPL     s:6830

       44     6829    1         CALL X9FT$FIGURE_TIMES;

   6829 19 000004   000000 631400 20                 EPPR1   0
        19 000005   000000 701000 xent               TSX1    X9FT$FIGURE_TIMES
        19 000006   000000 011000                    NOP     0

       45     6830    1       IF LIBCOM.M_LO_ASSIGNED THEN

   6830 19 000007   000012 234000 1                  SZN     LIBCOM+10
        19 000010   000016 605000 19                 TPL     s:6836

       46     6831    2         DO;

       47     6832    2           CLOSELO.V.DCB# = LIBCOM.M_LO;

   6832 19 000011   000016 720000 1                  LXL0    LIBCOM+14
        19 000012   000032 740000 18                 STX0    CLOSELO+26

       48     6833    2           CALL M$CLOSE(CLOSELO);

   6833 19 000013   000000 630400 18                 EPPR0   CLOSELO
        19 000014   050001 713400                    CLIMB   close
PL6.E3A0      #001=X9ST$STOP_RUN File=X9ST.:X8A6TSI                              SAT 08/09/97 11:03 Page:8
        19 000015   406000 401760                    pmme    nvectors=13

       49     6834    2         END;

       50     6835
       51     6836    1       IF LIBCOM.ERROR_FLAG THEN                 /*#29978*/

   6836 19 000016   000015 234000 1                  SZN     LIBCOM+13
        19 000017   000023 605000 19                 TPL     s:6839

       52     6837    1         CALL M$XXX;

   6837 19 000020   000003 713400                    CLIMB   3
        19 000021   000000 401760                    pmme    nvectors=0
        19 000022   000025 710000 19                 TRA     s:6841

       53     6838    1       ELSE
       54     6839    1         CALL M$EXIT;

   6839 19 000023   000001 713400                    CLIMB   exit
        19 000024   000000 401760                    pmme    nvectors=0

       55     6840
       56     6841    1   END X9ST$STOP_RUN ;

   6841 19 000025   000000 702200 xent               TSX2  ! X66_ARET

PL6.E3A0      #001=X9ST$STOP_RUN File=X9ST.:X8A6TSI                              SAT 08/09/97 11:03 Page:9
--  Include file information  --

   X8A_COM_MACS.:X8A6TOU  is referenced.
   X8A_MACROS.:X8A6TOU  is referenced.
   X8A_LIBCOM.:X8A6TOU  cannot be made into a system file and is referenced.
   CP_6_SUBS.:LIB_E04  is referenced.
   CP_6_C.:LIB_E04  is referenced.
   CP_6.:LIB_E04  cannot be made into a system file and is referenced.
   Z9A_FLAGS.:Z8A6TOU  is referenced.
   X8A_SYS_FILE.:X8A6TOU  is referenced.
      No diagnostics issued in procedure X9ST$STOP_RUN.
PL6.E3A0      #001=X9ST$STOP_RUN File=X9ST.:X8A6TSI                              SAT 08/09/97 11:03 Page:10

 **** Variables and constants ****

  ****  Section 001 LblCom LIBCOM

  ****  Scalars and arrays  ****
OctLoc.c.b A Datatyp(siz) R M Lvl/name                 OctLoc.c.b A Datatyp(siz) R M Lvl/name

     0-0-0/w STRC(720)   r     1 LIBCOM

  ****  Section 002 LblCom DEC_OR_COMMA

  ****  Scalars and arrays  ****
OctLoc.c.b A Datatyp(siz) R M Lvl/name                 OctLoc.c.b A Datatyp(siz) R M Lvl/name

     0-0-0/c CHAR              1 DEC_OR_COMMA

  ****  Section 003 LblCom IN_TEMP

  ****  Scalars and arrays  ****
OctLoc.c.b A Datatyp(siz) R M Lvl/name                 OctLoc.c.b A Datatyp(siz) R M Lvl/name

     0-0-0/c CHAR(80)          1 IN_TEMP

  ****  Section 004 LblCom OVRCHR

  ****  Scalars and arrays  ****
OctLoc.c.b A Datatyp(siz) R M Lvl/name                 OctLoc.c.b A Datatyp(siz) R M Lvl/name

     0-0-0/c CHAR              1 OVRCHR

  ****  Section 005 LblCom SELECT_TIME

  ****  Scalars and arrays  ****
OctLoc.c.b A Datatyp(siz) R M Lvl/name                 OctLoc.c.b A Datatyp(siz) R M Lvl/name

     0-0-0/w UBIN              1 SELECT_TIME

PL6.E3A0      #001=X9ST$STOP_RUN File=X9ST.:X8A6TSI                              SAT 08/09/97 11:03 Page:11
  ****  Section 006 LblCom NO_ADVANCE_OFFSET

  ****  Scalars and arrays  ****
OctLoc.c.b A Datatyp(siz) R M Lvl/name                 OctLoc.c.b A Datatyp(siz) R M Lvl/name

     0-0-0/w UBIN              1 NO_ADVANCE_OFFSET

  ****  Section 007 LblCom DSPLY_SAVE

  ****  Scalars and arrays  ****
OctLoc.c.b A Datatyp(siz) R M Lvl/name                 OctLoc.c.b A Datatyp(siz) R M Lvl/name

     0-0-0/c CHAR(72)          1 DSPLY_SAVE

  ****  Section 008 LblCom D_DATE

  ****  Scalars and arrays  ****
OctLoc.c.b A Datatyp(siz) R M Lvl/name                 OctLoc.c.b A Datatyp(siz) R M Lvl/name

     0-0-0/c CHAR(10)          1 D_DATE

  ****  Section 009 LblCom D_TIME

  ****  Scalars and arrays  ****
OctLoc.c.b A Datatyp(siz) R M Lvl/name                 OctLoc.c.b A Datatyp(siz) R M Lvl/name

     0-0-0/c CHAR(11)          1 D_TIME

  ****  Section 010 LblCom D_DAY

  ****  Scalars and arrays  ****
OctLoc.c.b A Datatyp(siz) R M Lvl/name                 OctLoc.c.b A Datatyp(siz) R M Lvl/name

     0-0-0/c CHAR(3)           1 D_DAY

  ****  Section 011 LblCom C_DATE

PL6.E3A0      #001=X9ST$STOP_RUN File=X9ST.:X8A6TSI                              SAT 08/09/97 11:03 Page:12
  ****  Scalars and arrays  ****
OctLoc.c.b A Datatyp(siz) R M Lvl/name                 OctLoc.c.b A Datatyp(siz) R M Lvl/name

     0-0-0/c CHAR(6)           1 C_DATE

  ****  Section 012 LblCom C_TIME

  ****  Scalars and arrays  ****
OctLoc.c.b A Datatyp(siz) R M Lvl/name                 OctLoc.c.b A Datatyp(siz) R M Lvl/name

     0-0-0/c CHAR(8)           1 C_TIME

  ****  Section 013 LblCom C_DAY

  ****  Scalars and arrays  ****
OctLoc.c.b A Datatyp(siz) R M Lvl/name                 OctLoc.c.b A Datatyp(siz) R M Lvl/name

     0-0-0/c CHAR(5)           1 C_DAY

  ****  Section 014 LblCom RTHOLD2

  ****  Scalars and arrays  ****
OctLoc.c.b A Datatyp(siz) R M Lvl/name                 OctLoc.c.b A Datatyp(siz) R M Lvl/name

     0-0-0/w UBIN              1 RTHOLD2

  ****  Section 015 LblCom LTHOLD2

  ****  Scalars and arrays  ****
OctLoc.c.b A Datatyp(siz) R M Lvl/name                 OctLoc.c.b A Datatyp(siz) R M Lvl/name

     0-0-0/w UBIN              1 LTHOLD2

  ****  Section 016 LblCom NDX2

  ****  Scalars and arrays  ****
OctLoc.c.b A Datatyp(siz) R M Lvl/name                 OctLoc.c.b A Datatyp(siz) R M Lvl/name
PL6.E3A0      #001=X9ST$STOP_RUN File=X9ST.:X8A6TSI                              SAT 08/09/97 11:03 Page:13

     0-0-0/w SBIN              1 NDX2

  ****  Section 017 LblCom IN_LEN

  ****  Scalars and arrays  ****
OctLoc.c.b A Datatyp(siz) R M Lvl/name                 OctLoc.c.b A Datatyp(siz) R M Lvl/name

     0-0-0/w UBIN              1 IN_LEN

  ****  Section 018  Data  X9ST$STOP_RUN

  ****  Scalars and arrays  ****
OctLoc.c.b A Datatyp(siz) R M Lvl/name                 OctLoc.c.b A Datatyp(siz) R M Lvl/name

     0-0-0/d STRC(1080)  r     1 CLOSELO

  ****  Auto variables  ****

  ****  Scalars and arrays  ****
OctLoc.c.b A Datatyp(siz) R M Lvl/name                 OctLoc.c.b A Datatyp(siz) R M Lvl/name

     3-0-0/w SBIN              1 LT                         4-0-0/c CHAR(65)          1 LTHOLD
    46-0-0/w SBIN              1 NDX                       47-0-0/w SBIN              1 NDX3
    25-0-0/c CHAR(65)          1 RTHOLD

  ****  BASED and DCB variables  ****

  ****  Scalars and arrays  ****
OctLoc.c.b A Datatyp(siz) R M Lvl/name                 OctLoc.c.b A Datatyp(siz) R M Lvl/name

     0-0-0N  NULL        r     1 M$UC


   Procedure X9ST$STOP_RUN requires 22 words for executable code.
   Procedure X9ST$STOP_RUN requires 40 words of local(AUTO) storage.
PL6.E3A0      #001=X9ST$STOP_RUN File=X9ST.:X8A6TSI                              SAT 08/09/97 11:03 Page:14

    No errors detected in file X9ST.:X8A6TSI    .
