VERSION A06

PL6.E3A0      #001=X9WU$WRITE_USER_LABEL File=X9WU.:X8A6TSI                      SAT 08/09/97 11:10 Page:1
        1        1        /*M* X9WU -- Process user labels                                    */
        2        2        /*T***********************************************************/
        3        3        /*T*                                                         */
        4        4        /*T* Copyright (c) Bull HN Information Systems Inc., 1997    */
        5        5        /*T*                                                         */
        6        6        /*T***********************************************************/
        7        7
        8        8         /*=====================*/
        9        9           X9WU$WRITE_USER_LABEL: PROC (FAB, UL_VEC, LABEL_TYPE, OPEN_TYPE);
       10       10         /*=====================*/
       11       11
       12       12        %INCLUDE X8A_SYS_FILE;
       13     6282        %INCLUDE X9A_FAB;
       14     6469        %INCLUDE X9A_IO;
       15     6619        %INCLUDE X9A_LIB_IO;
       16     7003        %INCLUDE X8A_LIBCOM;
       17     7223        %INCLUDE X8A_ERRCOM;
       18     7312
       19     7313        %DCL_FAB;
       20     7435
       21     7436    1   DCL UL_VEC             BIT (72) DALIGNED;
       22     7437    1   DCL LABEL_TYPE         SBIN WORD;
       23     7438    1   DCL OPEN_TYPE          SBIN WORD;
       24     7439    1   DCL 1 BEGIN_LABEL      STATIC DALIGNED,
       25     7440    1         2 NUM#           SBIN WORD INIT (1),
       26     7441    1         2 ULBL           CHAR (80);
       27     7442    1   DCL 1 END_LABEL        STATIC DALIGNED,
       28     7443    1         2 NUM#           SBIN WORD INIT (1),
       29     7444    1         2 ULBL           CHAR (80);
       30     7445
       31     7446    1   DCL USE_PTR$           PTR;
       32     7447    1   DCL 1 USE_TABLE        BASED,
       33     7448    1         2 PTR$  (0:23)   PTR;
       34     7449    1   DCL 1 USE_LABEL        BASED,
       35     7450    1         2 AREA           CHAR (80);
       36     7451    1   DCL X8ER$ERROR         ENTRY(3);
       37     7452        %EJECT;
PL6.E3A0      #001=X9WU$WRITE_USER_LABEL File=X9WU.:X8A6TSI                      SAT 08/09/97 11:10 Page:2
       38     7453
       39     7454         %MACRO BEGIN_LABEL_CHECK;
       40     7455           DO;
       41     7456             IF SUBSTR(BEGIN_LABEL.ULBL,0,3) ~= 'UHL' THEN
       42     7457               DO;
       43     7458                 CALL X8ER$ERROR(%USER_LABEL_NOT_UHL_UTL);
       44     7459                 SUBSTR(BEGIN_LABEL.ULBL,0,3) = 'UHL';
       45     7460               END;
       46     7461           END;
       47     7462         %MEND;
       48     7463        %eject;
PL6.E3A0      #001=X9WU$WRITE_USER_LABEL File=X9WU.:X8A6TSI                      SAT 08/09/97 11:10 Page:3
       49     7464         %MACRO END_LABEL_CHECK;
       50     7465           DO;
       51     7466             IF SUBSTR(END_LABEL.ULBL,0,3) ~= 'UTL' THEN
       52     7467               DO;
       53     7468                 CALL X8ER$ERROR(%USER_LABEL_NOT_UHL_UTL);
       54     7469                 SUBSTR(END_LABEL.ULBL,0,3) = 'UTL';
       55     7470               END;
       56     7471           END;
       57     7472         %MEND;
       58     7473
       59     7474         %EJECT;
PL6.E3A0      #001=X9WU$WRITE_USER_LABEL File=X9WU.:X8A6TSI                      SAT 08/09/97 11:10 Page:4
       60     7475         %MACRO WRITE_LABEL (@LABEL_TYPE =,
       61     7476                             @LABEL_AREA = );
       62     7477           DO;
       63     7478               DCB$ = DCBADDR(FAB.DCB_NUM);
       64     7479               IF M$XX.FUN# = %CREATE THEN
       65     7480                 DO;
       66     7481                   IF FAB.LABEL_REC$ -> USE_TABLE.PTR$(@LABEL_TYPE)
       67     7482                       -> USE_LABEL.AREA ~= ' ' THEN
       68     7483                     DO;
       69     7484                       UL_VEC = VECTOR(@LABEL_AREA);
       70     7485                       @LABEL_AREA.ULBL = FAB.LABEL_REC$ ->
       71     7486                         USE_TABLE.PTR$(@LABEL_TYPE) -> USE_LABEL.AREA;
       72     7487                       %IF (TEXTCHAR(@LABEL_AREA) = 'BEGIN_LABEL');
       73     7488                           %BEGIN_LABEL_CHECK;
       74     7489                       %ELSE;
       75     7490                           %END_LABEL_CHECK;
       76     7491                       %ENDIF;
       77     7492                     END;
       78     7493                   ELSE
       79     7494                     UL_VEC = VECTOR(NIL);
       80     7495
       81     7496                 END;
       82     7497               ELSE
       83     7498                 DO;
       84     7499                   UL_VEC = VECTOR(@LABEL_AREA);
       85     7500                   @LABEL_AREA.ULBL = ' ';
       86     7501                 END;
       87     7502
       88     7503           END;
       89     7504         %MEND;
       90     7505        %eject;
PL6.E3A0      #001=X9WU$WRITE_USER_LABEL File=X9WU.:X8A6TSI                      SAT 08/09/97 11:10 Page:5
       91     7506         %MACRO READ_LABEL (@LABEL_TYPE =,
       92     7507                            @LABEL_AREA = );
       93     7508           DO;
       94     7509             DCB$ = DCBADDR(FAB.DCB_NUM);
       95     7510             IF M$XX.FUN# ~= %CREATE THEN
       96     7511               FAB.LABEL_REC$ -> USE_TABLE.PTR$(@LABEL_TYPE) ->
       97     7512                     USE_LABEL.AREA = @LABEL_AREA.ULBL;
       98     7513           END;
       99     7514         %MEND;
      100     7515
      101     7516         %EJECT;
PL6.E3A0      #001=X9WU$WRITE_USER_LABEL File=X9WU.:X8A6TSI                      SAT 08/09/97 11:10 Page:6
      102     7517
      103     7518    2      DO CASE (LABEL_TYPE);
      104     7519    2        CASE (%BEGINNING_FILE_LABEL);   /* befor opening the file */
      105     7520
      106     7521    3          DO CASE (OPEN_TYPE);
      107     7522    3            CASE (%OPEN_OUTPUT, %OPEN_OUTPUT_NO_REWIND, %OPEN_EXTEND);
      108     7523
      109     7524
      110     7525    3              IF FAB.LABEL_REC$ -> USE_TABLE.PTR$ (%BEGINNING_FILE_LABEL)
      111     7526    3                      -> USE_LABEL.AREA ~= ' ' THEN
      112     7527    4                DO;
      113     7528    4                  UL_VEC = VECTOR(BEGIN_LABEL);
      114     7529
      115     7530    4                  BEGIN_LABEL.ULBL = FAB.LABEL_REC$ ->
      116     7531    4                      USE_TABLE.PTR$(%BEGINNING_FILE_LABEL) -> USE_LABEL.AREA;
      117     7532
      118     7533                       %BEGIN_LABEL_CHECK;
      119     7542    4                END;
      120     7543    3              ELSE
      121     7544    3                UL_VEC = VECTOR(NIL);
      122     7545
      123     7546    3            CASE (ELSE);
      124     7547
      125     7548    3              BEGIN_LABEL.ULBL = ' ';
      126     7549    3              UL_VEC = VECTOR(BEGIN_LABEL);
      127     7550
      128     7551    3          END; /* inner DO CASE */
      129     7552
      130     7553    2        CASE (%ENDING_FILE_LABEL);
      131     7554
      132     7555               %WRITE_LABEL (@LABEL_TYPE = %ENDING_FILE_LABEL,
      133     7556                             @LABEL_AREA = END_LABEL );
      134     7591
      135     7592    2        CASE (%ENDING_TAPE_LABEL);
      136     7593
      137     7594               %WRITE_LABEL (@LABEL_TYPE = %ENDING_TAPE_LABEL,
      138     7595                             @LABEL_AREA = END_LABEL);
PL6.E3A0      #001=X9WU$WRITE_USER_LABEL File=X9WU.:X8A6TSI                      SAT 08/09/97 11:10 Page:7
      139     7630
      140     7631    2        CASE (%BEGINNING_TAPE_LABEL);
      141     7632
      142     7633               %WRITE_LABEL (@LABEL_TYPE = %BEGINNING_TAPE_LABEL,
      143     7634                             @LABEL_AREA = BEGIN_LABEL);
      144     7669
      145     7670    2      END; /* DO CASE */
      146     7671
      147     7672    1    RETURN;
      148     7673        %eject;
PL6.E3A0      #001=X9WU$WRITE_USER_LABEL File=X9WU.:X8A6TSI                      SAT 08/09/97 11:10 Page:8
      149     7674         /*--------------------*/
      150     7675    1      X9WU$READ_USER_LABEL: ENTRY (FAB, UL_VEC, LABEL_TYPE, OPEN_TYPE);
      151     7676         /*--------------------*/
      152     7677
      153     7678
      154     7679
      155     7680    2      DO CASE (LABEL_TYPE);
      156     7681    2        CASE (%BEGINNING_FILE_LABEL); /* after file is opened */
      157     7682
      158     7683    3          DO CASE (OPEN_TYPE);
      159     7684    3            CASE (%OPEN_INPUT, %OPEN_INPUT_NO_REWIND, %OPEN_I_O);
      160     7685
      161     7686    3              FAB.LABEL_REC$ -> USE_TABLE.PTR$(%BEGINNING_FILE_LABEL)
      162     7687    3                  -> USE_LABEL.AREA = BEGIN_LABEL.ULBL;
      163     7688
      164     7689    3            CASE (ELSE);
      165     7690                   /* do nothing */
      166     7691
      167     7692    3          END; /* inner DO CASE */
      168     7693
      169     7694    2        CASE (%ENDING_FILE_LABEL);
      170     7695
      171     7696               %READ_LABEL (@LABEL_TYPE = %ENDING_FILE_LABEL,
      172     7697                            @LABEL_AREA = END_LABEL);
      173     7705
      174     7706    2        CASE (%BEGINNING_TAPE_LABEL);
      175     7707
      176     7708               %READ_LABEL (@LABEL_TYPE = %BEGINNING_TAPE_LABEL,
      177     7709                            @LABEL_AREA = BEGIN_LABEL);
      178     7717
      179     7718    2        CASE (%ENDING_TAPE_LABEL);
      180     7719
      181     7720               %READ_LABEL (@LABEL_TYPE = %ENDING_TAPE_LABEL,
      182     7721                            @LABEL_AREA = END_LABEL);
      183     7729
      184     7730    2      END; /* DO CASE */
      185     7731
PL6.E3A0      #001=X9WU$WRITE_USER_LABEL File=X9WU.:X8A6TSI                      SAT 08/09/97 11:10 Page:9
      186     7732    1    RETURN;
      187     7733    1    END X9WU$WRITE_USER_LABEL;
      188     7734        %eject;
PL6.E3A0      #001=X9WU$WRITE_USER_LABEL File=X9WU.:X8A6TSI                      SAT 08/09/97 11:10 Page:10

PL6.E3A0      #001=X9WU$WRITE_USER_LABEL File=X9WU.:X8A6TSI                      SAT 08/09/97 11:10 Page:11
--  Include file information  --

   X8A_ERRCOM.:X8A6TOU  cannot be made into a system file and is referenced.
   X8A_LIBCOM.:X8A6TOU  cannot be made into a system file and is referenced.
   X9A_LIB_IO.:X8A6TOU  cannot be made into a system file and is referenced.
   X9A_IO.:X8A6TOU  is referenced.
   XS_MACRO_C.:LIBRARY  is referenced.
   X9A_FAB.:X8A6TOU  is referenced.
   CP_6_SUBS.:LIB_E04  is referenced.
   CP_6_C.:LIB_E04  is referenced.
   CP_6.:LIB_E04  cannot be made into a system file and is referenced.
   Z9A_FLAGS.:Z8A6TOU  is referenced.
   X8A_SYS_FILE.:X8A6TOU  is referenced.
      No diagnostics issued in procedure X9WU$WRITE_USER_LABEL.

   Procedure X9WU$WRITE_USER_LABEL requires 280 words for executable code.
   Procedure X9WU$WRITE_USER_LABEL requires 68 words of local(AUTO) storage.

    No errors detected in file X9WU.:X8A6TSI    .

PL6.E3A0      #001=X9WU$WRITE_USER_LABEL File=X9WU.:X8A6TSI                      SAT 08/09/97 11:10 Page:12

 Object Unit name= X9WU$WRITE_USER_LABEL                      File name= X9WU.:X8A6TOU
 UTS= AUG 09 '97 11:10:54.56 SAT                              Compiler= PL-6/E31         Sev=      00
 SharedLib= :SHARED_SYSTEM                                    Alt SharedLib=


    ****  Control sections  ****

 Sect   Type Bound  Init  Size OctSiz  Section name(segment info)
    0   DCB   even  none     0      0  M$UC
    1  LblCom even  none    20     24  LIBCOM
    2  LblCom even  none     1      1  DEC_OR_COMMA
    3  LblCom even  none    20     24  IN_TEMP
    4  LblCom even  none     1      1  OVRCHR
    5  LblCom even  none     1      1  SELECT_TIME
    6  LblCom even  none     1      1  NO_ADVANCE_OFFSET
    7  LblCom even  none    18     22  DSPLY_SAVE
    8  LblCom even  none     3      3  D_DATE
    9  LblCom even  none     3      3  D_TIME
   10  LblCom even  none     1      1  D_DAY
   11  LblCom even  none     2      2  C_DATE
   12  LblCom even  none     2      2  C_TIME
   13  LblCom even  none     2      2  C_DAY
   14  LblCom even  none     1      1  RTHOLD2
   15  LblCom even  none     1      1  LTHOLD2
   16  LblCom even  none     1      1  NDX2
   17  LblCom even  none     1      1  IN_LEN
   18   Data  even  none    44     54  X9WU$WRITE_USER_LABEL
   19  RoData even  UTS      2      2  X9WU$WRITE_USER_LABEL
   20   Proc  even  none   280    430  X9WU$WRITE_USER_LABEL
   21  RoData even  none    14     16  X9WU$WRITE_USER_LABEL
PL6.E3A0      #001=X9WU$WRITE_USER_LABEL File=X9WU.:X8A6TSI                      SAT 08/09/97 11:10 Page:13

    ****  Entry defs  ****

                              Check   Calling
                             calling  sequence
  Sect OctLoc Primary Altret sequence   type   Parms  Name
    20      0   yes            yes      Std        4  X9WU$WRITE_USER_LABEL
    20    310                  yes      Std        4  X9WU$READ_USER_LABEL

  ****  Entry refs  ****

         Check        Calling
        calling       sequence
Altret sequence SRef   type   Args  Name
         yes           Std       3 X8ER$ERROR
                       nStd      0 X66_AUTO_4
                       nStd      0 X66_ARET

  ****  Data refs  ****

  Flags:  r = read only, s = secondary
Flgs Name                             Flgs Name                             Flgs Name
     M$UC                                  B$TCB$

  ****  Segment refs  ****

  Flags:  r = read only, s = secondary
Flgs Name                             Flgs Name                             Flgs Name
     NULLSID                               ROSID                                 ISSID
PL6.E3A0      #001=X9WU$WRITE_USER_LABEL File=X9WU.:X8A6TSI                      SAT 08/09/97 11:10 Page:14


        1        1        /*M* X9WU -- Process user labels                                    */
        2        2        /*T***********************************************************/
        3        3        /*T*                                                         */
        4        4        /*T* Copyright (c) Bull HN Information Systems Inc., 1997    */
        5        5        /*T*                                                         */
        6        6        /*T***********************************************************/
        7        7
        8        8         /*=====================*/
        9        9           X9WU$WRITE_USER_LABEL: PROC (FAB, UL_VEC, LABEL_TYPE, OPEN_TYPE);

      9 20 000000   000000 700200 xent  X9WU$WRITE_* TSX0  ! X66_AUTO_4
        20 000001   000104 000004                    ZERO    68,4

       10       10         /*=====================*/
       11       11
       12       12        %INCLUDE X8A_SYS_FILE;
       13     6282        %INCLUDE X9A_FAB;
       14     6469        %INCLUDE X9A_IO;
       15     6619        %INCLUDE X9A_LIB_IO;
       16     7003        %INCLUDE X8A_LIBCOM;
       17     7223        %INCLUDE X8A_ERRCOM;
       18     7312
       19     7313        %DCL_FAB;
       20     7435
       21     7436    1   DCL UL_VEC             BIT (72) DALIGNED;
       22     7437    1   DCL LABEL_TYPE         SBIN WORD;
       23     7438    1   DCL OPEN_TYPE          SBIN WORD;
       24     7439    1   DCL 1 BEGIN_LABEL      STATIC DALIGNED,
       25     7440    1         2 NUM#           SBIN WORD INIT (1),
       26     7441    1         2 ULBL           CHAR (80);
       27     7442    1   DCL 1 END_LABEL        STATIC DALIGNED,
       28     7443    1         2 NUM#           SBIN WORD INIT (1),
       29     7444    1         2 ULBL           CHAR (80);
       30     7445
       31     7446    1   DCL USE_PTR$           PTR;
       32     7447    1   DCL 1 USE_TABLE        BASED,
PL6.E3A0      #001=X9WU$WRITE_USER_LABEL File=X9WU.:X8A6TSI                      SAT 08/09/97 11:10 Page:15
       33     7448    1         2 PTR$  (0:23)   PTR;
       34     7449    1   DCL 1 USE_LABEL        BASED,
       35     7450    1         2 AREA           CHAR (80);
       36     7451    1   DCL X8ER$ERROR         ENTRY(3);
       37     7452        %EJECT;
PL6.E3A0      #001=X9WU$WRITE_USER_LABEL File=X9WU.:X8A6TSI                      SAT 08/09/97 11:10 Page:16
       38     7453
       39     7454         %MACRO BEGIN_LABEL_CHECK;
       40     7455           DO;
       41     7456             IF SUBSTR(BEGIN_LABEL.ULBL,0,3) ~= 'UHL' THEN
       42     7457               DO;
       43     7458                 CALL X8ER$ERROR(%USER_LABEL_NOT_UHL_UTL);
       44     7459                 SUBSTR(BEGIN_LABEL.ULBL,0,3) = 'UHL';
       45     7460               END;
       46     7461           END;
       47     7462         %MEND;
       48     7463        %eject;
PL6.E3A0      #001=X9WU$WRITE_USER_LABEL File=X9WU.:X8A6TSI                      SAT 08/09/97 11:10 Page:17
       49     7464         %MACRO END_LABEL_CHECK;
       50     7465           DO;
       51     7466             IF SUBSTR(END_LABEL.ULBL,0,3) ~= 'UTL' THEN
       52     7467               DO;
       53     7468                 CALL X8ER$ERROR(%USER_LABEL_NOT_UHL_UTL);
       54     7469                 SUBSTR(END_LABEL.ULBL,0,3) = 'UTL';
       55     7470               END;
       56     7471           END;
       57     7472         %MEND;
       58     7473
       59     7474         %EJECT;
PL6.E3A0      #001=X9WU$WRITE_USER_LABEL File=X9WU.:X8A6TSI                      SAT 08/09/97 11:10 Page:18
       60     7475         %MACRO WRITE_LABEL (@LABEL_TYPE =,
       61     7476                             @LABEL_AREA = );
       62     7477           DO;
       63     7478               DCB$ = DCBADDR(FAB.DCB_NUM);
       64     7479               IF M$XX.FUN# = %CREATE THEN
       65     7480                 DO;
       66     7481                   IF FAB.LABEL_REC$ -> USE_TABLE.PTR$(@LABEL_TYPE)
       67     7482                       -> USE_LABEL.AREA ~= ' ' THEN
       68     7483                     DO;
       69     7484                       UL_VEC = VECTOR(@LABEL_AREA);
       70     7485                       @LABEL_AREA.ULBL = FAB.LABEL_REC$ ->
       71     7486                         USE_TABLE.PTR$(@LABEL_TYPE) -> USE_LABEL.AREA;
       72     7487                       %IF (TEXTCHAR(@LABEL_AREA) = 'BEGIN_LABEL');
       73     7488                           %BEGIN_LABEL_CHECK;
       74     7489                       %ELSE;
       75     7490                           %END_LABEL_CHECK;
       76     7491                       %ENDIF;
       77     7492                     END;
       78     7493                   ELSE
       79     7494                     UL_VEC = VECTOR(NIL);
       80     7495
       81     7496                 END;
       82     7497               ELSE
       83     7498                 DO;
       84     7499                   UL_VEC = VECTOR(@LABEL_AREA);
       85     7500                   @LABEL_AREA.ULBL = ' ';
       86     7501                 END;
       87     7502
       88     7503           END;
       89     7504         %MEND;
       90     7505        %eject;
PL6.E3A0      #001=X9WU$WRITE_USER_LABEL File=X9WU.:X8A6TSI                      SAT 08/09/97 11:10 Page:19
       91     7506         %MACRO READ_LABEL (@LABEL_TYPE =,
       92     7507                            @LABEL_AREA = );
       93     7508           DO;
       94     7509             DCB$ = DCBADDR(FAB.DCB_NUM);
       95     7510             IF M$XX.FUN# ~= %CREATE THEN
       96     7511               FAB.LABEL_REC$ -> USE_TABLE.PTR$(@LABEL_TYPE) ->
       97     7512                     USE_LABEL.AREA = @LABEL_AREA.ULBL;
       98     7513           END;
       99     7514         %MEND;
      100     7515
      101     7516         %EJECT;
PL6.E3A0      #001=X9WU$WRITE_USER_LABEL File=X9WU.:X8A6TSI                      SAT 08/09/97 11:10 Page:20
      102     7517
      103     7518    2      DO CASE (LABEL_TYPE);

   7518 20 000002   200005 470500                    LDP0    @LABEL_TYPE,,AUTO
        20 000003   000000 235100                    LDA     0,,PR0
        20 000004   000004 115007                    CMPA    4,DL
        20 000005   000007 602005 20                 TNC     s:7518+5,AL
        20 000006   000307 710000 20                 TRA     s:7672
        20 000007   000013 710000 20                 TRA     s:7521
        20 000010   000073 710000 20                 TRA     s:7558
        20 000011   000231 710000 20                 TRA     s:7636
        20 000012   000152 710000 20                 TRA     s:7597

      104     7519    2        CASE (%BEGINNING_FILE_LABEL);   /* befor opening the file */

      105     7520
      106     7521    3          DO CASE (OPEN_TYPE);

   7521 20 000013   200006 471500                    LDP1    @OPEN_TYPE,,AUTO
        20 000014   100000 235100                    LDA     0,,PR1
        20 000015   000006 115007                    CMPA    6,DL
        20 000016   000020 602005 20                 TNC     s:7521+5,AL
        20 000017   000064 710000 20                 TRA     s:7548
        20 000020   000064 710000 20                 TRA     s:7548
        20 000021   000026 710000 20                 TRA     s:7525
        20 000022   000064 710000 20                 TRA     s:7548
        20 000023   000026 710000 20                 TRA     s:7525
        20 000024   000064 710000 20                 TRA     s:7548
        20 000025   000026 710000 20                 TRA     s:7525

      107     7522    3            CASE (%OPEN_OUTPUT, %OPEN_OUTPUT_NO_REWIND, %OPEN_EXTEND);

      108     7523
      109     7524
      110     7525    3              IF FAB.LABEL_REC$ -> USE_TABLE.PTR$ (%BEGINNING_FILE_LABEL)

   7525 20 000026   200003 473500                    LDP3    @FAB,,AUTO
PL6.E3A0      #001=X9WU$WRITE_USER_LABEL File=X9WU.:X8A6TSI                      SAT 08/09/97 11:10 Page:21
        20 000027   300041 474500                    LDP4    33,,PR3
        20 000030   400000 475500                    LDP5    0,,PR4
        20 000031   040000 106500                    CMPC    fill='040'O
        20 000032   500000 000120                    ADSC9   0,,PR5                   cn=0,n=80
        20 000033   000000 000001 21                 ADSC9   0                        cn=0,n=1
        20 000034   000060 600000 20                 TZE     s:7544

      111     7526    3                      -> USE_LABEL.AREA ~= ' ' THEN
      112     7527    4                DO;

      113     7528    4                  UL_VEC = VECTOR(BEGIN_LABEL);

   7528 20 000035   000002 237000 21                 LDAQ    2
        20 000036   200004 476500                    LDP6    @UL_VEC,,AUTO
        20 000037   600000 757100                    STAQ    0,,PR6

      114     7529
      115     7530    4                  BEGIN_LABEL.ULBL = FAB.LABEL_REC$ ->

   7530 20 000040   300041 474500                    LDP4    33,,PR3
        20 000041   400000 475500                    LDP5    0,,PR4
        20 000042   040000 100500                    MLR     fill='040'O
        20 000043   500000 000120                    ADSC9   0,,PR5                   cn=0,n=80
        20 000044   000001 000120 18                 ADSC9   BEGIN_LABEL+1            cn=0,n=80

      116     7531    4                      USE_TABLE.PTR$(%BEGINNING_FILE_LABEL) -> USE_LABEL.AREA;
      117     7532
      118     7533                       %BEGIN_LABEL_CHECK;

   7535 20 000045   000001 236000 18                 LDQ     BEGIN_LABEL+1
        20 000046   000000 676000 19                 ERQ     0
        20 000047   000001 376000 21                 ANQ     1
        20 000050   000307 600000 20                 TZE     s:7672

   7537 20 000051   000006 630400 21                 EPPR0   6
        20 000052   000004 631400 21                 EPPR1   4
        20 000053   000000 701000 xent               TSX1    X8ER$ERROR
PL6.E3A0      #001=X9WU$WRITE_USER_LABEL File=X9WU.:X8A6TSI                      SAT 08/09/97 11:10 Page:22
        20 000054   000000 011000                    NOP     0

   7538 20 000055   000000 236000 19                 LDQ     0
        20 000056   000001 552070 18                 STBQ    BEGIN_LABEL+1,'70'O

      119     7542    4                END;

   7542 20 000057   000307 710000 20                 TRA     s:7672

      120     7543    3              ELSE
      121     7544    3                UL_VEC = VECTOR(NIL);

   7544 20 000060   000010 237000 21                 LDAQ    8
        20 000061   200004 476500                    LDP6    @UL_VEC,,AUTO
        20 000062   600000 757100                    STAQ    0,,PR6
        20 000063   000307 710000 20                 TRA     s:7672

      122     7545
      123     7546    3            CASE (ELSE);

      124     7547
      125     7548    3              BEGIN_LABEL.ULBL = ' ';

   7548 20 000064   040000 100400                    MLR     fill='040'O
        20 000065   000000 000001 21                 ADSC9   0                        cn=0,n=1
        20 000066   000001 000120 18                 ADSC9   BEGIN_LABEL+1            cn=0,n=80

      126     7549    3              UL_VEC = VECTOR(BEGIN_LABEL);

   7549 20 000067   000002 237000 21                 LDAQ    2
        20 000070   200004 473500                    LDP3    @UL_VEC,,AUTO
        20 000071   300000 757100                    STAQ    0,,PR3

      127     7550
      128     7551    3          END; /* inner DO CASE */

   7551 20 000072   000307 710000 20                 TRA     s:7672
PL6.E3A0      #001=X9WU$WRITE_USER_LABEL File=X9WU.:X8A6TSI                      SAT 08/09/97 11:10 Page:23

      129     7552
      130     7553    2        CASE (%ENDING_FILE_LABEL);

      131     7554
      132     7555               %WRITE_LABEL (@LABEL_TYPE = %ENDING_FILE_LABEL,
      133     7556                             @LABEL_AREA = END_LABEL );

   7558 20 000073   000012 471400 21                 LDP1    10
        20 000074   100000 473500                    LDP3    0,,PR1
        20 000075   200003 474500                    LDP4    @FAB,,AUTO
        20 000076   400034 220100                    LDX0    28,,PR4
        20 000077   300000 236110                    LDQ     0,X0,PR3
        20 000100   200007 756100                    STQ     DCB$,,AUTO

   7559 20 000101   200007 475500                    LDP5    DCB$,,AUTO
        20 000102   500032 236100                    LDQ     26,,PR5
        20 000103   000777 376003                    ANQ     511,DU
        20 000104   000003 116003                    CMPQ    3,DU
        20 000105   000143 601000 20                 TNZ     s:7586

   7561 20 000106   400041 476500                    LDP6    33,,PR4
        20 000107   600001 477500                    LDP7    1,,PR6
        20 000110   040000 106500                    CMPC    fill='040'O
        20 000111   700000 000120                    ADSC9   0,,PR7                   cn=0,n=80
        20 000112   000000 000001 21                 ADSC9   0                        cn=0,n=1
        20 000113   000137 600000 20                 TZE     s:7582

   7564 20 000114   000014 237000 21                 LDAQ    12
        20 000115   200004 470500                    LDP0    @UL_VEC,,AUTO
        20 000116   000000 757100                    STAQ    0,,PR0

   7565 20 000117   400041 476500                    LDP6    33,,PR4
        20 000120   600001 477500                    LDP7    1,,PR6
        20 000121   040000 100500                    MLR     fill='040'O
        20 000122   700000 000120                    ADSC9   0,,PR7                   cn=0,n=80
        20 000123   000027 000120 18                 ADSC9   END_LABEL+1              cn=0,n=80
PL6.E3A0      #001=X9WU$WRITE_USER_LABEL File=X9WU.:X8A6TSI                      SAT 08/09/97 11:10 Page:24

   7572 20 000124   000027 236000 18                 LDQ     END_LABEL+1
        20 000125   000001 676000 19                 ERQ     1
        20 000126   000001 376000 21                 ANQ     1
        20 000127   000307 600000 20                 TZE     s:7672

   7574 20 000130   000006 630400 21                 EPPR0   6
        20 000131   000004 631400 21                 EPPR1   4
        20 000132   000000 701000 xent               TSX1    X8ER$ERROR
        20 000133   000000 011000                    NOP     0

   7575 20 000134   000001 236000 19                 LDQ     1
        20 000135   000027 552070 18                 STBQ    END_LABEL+1,'70'O

   7580 20 000136   000307 710000 20                 TRA     s:7672

   7582 20 000137   000010 237000 21                 LDAQ    8
        20 000140   200004 470500                    LDP0    @UL_VEC,,AUTO
        20 000141   000000 757100                    STAQ    0,,PR0

   7583 20 000142   000307 710000 20                 TRA     s:7672

   7586 20 000143   000014 237000 21                 LDAQ    12
        20 000144   200004 476500                    LDP6    @UL_VEC,,AUTO
        20 000145   600000 757100                    STAQ    0,,PR6

   7587 20 000146   040000 100400                    MLR     fill='040'O
        20 000147   000000 000001 21                 ADSC9   0                        cn=0,n=1
        20 000150   000027 000120 18                 ADSC9   END_LABEL+1              cn=0,n=80

   7589 20 000151   000307 710000 20                 TRA     s:7672

      134     7591
      135     7592    2        CASE (%ENDING_TAPE_LABEL);

      136     7593
      137     7594               %WRITE_LABEL (@LABEL_TYPE = %ENDING_TAPE_LABEL,
PL6.E3A0      #001=X9WU$WRITE_USER_LABEL File=X9WU.:X8A6TSI                      SAT 08/09/97 11:10 Page:25
      138     7595                             @LABEL_AREA = END_LABEL);

   7597 20 000152   000012 471400 21                 LDP1    10
        20 000153   100000 473500                    LDP3    0,,PR1
        20 000154   200003 474500                    LDP4    @FAB,,AUTO
        20 000155   400034 220100                    LDX0    28,,PR4
        20 000156   300000 236110                    LDQ     0,X0,PR3
        20 000157   200007 756100                    STQ     DCB$,,AUTO

   7598 20 000160   200007 475500                    LDP5    DCB$,,AUTO
        20 000161   500032 236100                    LDQ     26,,PR5
        20 000162   000777 376003                    ANQ     511,DU
        20 000163   000003 116003                    CMPQ    3,DU
        20 000164   000222 601000 20                 TNZ     s:7625

   7600 20 000165   400041 476500                    LDP6    33,,PR4
        20 000166   600003 477500                    LDP7    3,,PR6
        20 000167   040000 106500                    CMPC    fill='040'O
        20 000170   700000 000120                    ADSC9   0,,PR7                   cn=0,n=80
        20 000171   000000 000001 21                 ADSC9   0                        cn=0,n=1
        20 000172   000216 600000 20                 TZE     s:7621

   7603 20 000173   000014 237000 21                 LDAQ    12
        20 000174   200004 470500                    LDP0    @UL_VEC,,AUTO
        20 000175   000000 757100                    STAQ    0,,PR0

   7604 20 000176   400041 476500                    LDP6    33,,PR4
        20 000177   600003 477500                    LDP7    3,,PR6
        20 000200   040000 100500                    MLR     fill='040'O
        20 000201   700000 000120                    ADSC9   0,,PR7                   cn=0,n=80
        20 000202   000027 000120 18                 ADSC9   END_LABEL+1              cn=0,n=80

   7611 20 000203   000027 236000 18                 LDQ     END_LABEL+1
        20 000204   000001 676000 19                 ERQ     1
        20 000205   000001 376000 21                 ANQ     1
        20 000206   000307 600000 20                 TZE     s:7672

PL6.E3A0      #001=X9WU$WRITE_USER_LABEL File=X9WU.:X8A6TSI                      SAT 08/09/97 11:10 Page:26
   7613 20 000207   000006 630400 21                 EPPR0   6
        20 000210   000004 631400 21                 EPPR1   4
        20 000211   000000 701000 xent               TSX1    X8ER$ERROR
        20 000212   000000 011000                    NOP     0

   7614 20 000213   000001 236000 19                 LDQ     1
        20 000214   000027 552070 18                 STBQ    END_LABEL+1,'70'O

   7619 20 000215   000307 710000 20                 TRA     s:7672

   7621 20 000216   000010 237000 21                 LDAQ    8
        20 000217   200004 470500                    LDP0    @UL_VEC,,AUTO
        20 000220   000000 757100                    STAQ    0,,PR0

   7622 20 000221   000307 710000 20                 TRA     s:7672

   7625 20 000222   000014 237000 21                 LDAQ    12
        20 000223   200004 476500                    LDP6    @UL_VEC,,AUTO
        20 000224   600000 757100                    STAQ    0,,PR6

   7626 20 000225   040000 100400                    MLR     fill='040'O
        20 000226   000000 000001 21                 ADSC9   0                        cn=0,n=1
        20 000227   000027 000120 18                 ADSC9   END_LABEL+1              cn=0,n=80

   7628 20 000230   000307 710000 20                 TRA     s:7672

      139     7630
      140     7631    2        CASE (%BEGINNING_TAPE_LABEL);

      141     7632
      142     7633               %WRITE_LABEL (@LABEL_TYPE = %BEGINNING_TAPE_LABEL,
      143     7634                             @LABEL_AREA = BEGIN_LABEL);

   7636 20 000231   000012 471400 21                 LDP1    10
        20 000232   100000 473500                    LDP3    0,,PR1
        20 000233   200003 474500                    LDP4    @FAB,,AUTO
        20 000234   400034 220100                    LDX0    28,,PR4
PL6.E3A0      #001=X9WU$WRITE_USER_LABEL File=X9WU.:X8A6TSI                      SAT 08/09/97 11:10 Page:27
        20 000235   300000 236110                    LDQ     0,X0,PR3
        20 000236   200007 756100                    STQ     DCB$,,AUTO

   7637 20 000237   200007 475500                    LDP5    DCB$,,AUTO
        20 000240   500032 236100                    LDQ     26,,PR5
        20 000241   000777 376003                    ANQ     511,DU
        20 000242   000003 116003                    CMPQ    3,DU
        20 000243   000301 601000 20                 TNZ     s:7664

   7639 20 000244   400041 476500                    LDP6    33,,PR4
        20 000245   600002 477500                    LDP7    2,,PR6
        20 000246   040000 106500                    CMPC    fill='040'O
        20 000247   700000 000120                    ADSC9   0,,PR7                   cn=0,n=80
        20 000250   000000 000001 21                 ADSC9   0                        cn=0,n=1
        20 000251   000275 600000 20                 TZE     s:7660

   7642 20 000252   000002 237000 21                 LDAQ    2
        20 000253   200004 470500                    LDP0    @UL_VEC,,AUTO
        20 000254   000000 757100                    STAQ    0,,PR0

   7643 20 000255   400041 476500                    LDP6    33,,PR4
        20 000256   600002 477500                    LDP7    2,,PR6
        20 000257   040000 100500                    MLR     fill='040'O
        20 000260   700000 000120                    ADSC9   0,,PR7                   cn=0,n=80
        20 000261   000001 000120 18                 ADSC9   BEGIN_LABEL+1            cn=0,n=80

   7648 20 000262   000001 236000 18                 LDQ     BEGIN_LABEL+1
        20 000263   000000 676000 19                 ERQ     0
        20 000264   000001 376000 21                 ANQ     1
        20 000265   000307 600000 20                 TZE     s:7672

   7650 20 000266   000006 630400 21                 EPPR0   6
        20 000267   000004 631400 21                 EPPR1   4
        20 000270   000000 701000 xent               TSX1    X8ER$ERROR
        20 000271   000000 011000                    NOP     0

   7651 20 000272   000000 236000 19                 LDQ     0
PL6.E3A0      #001=X9WU$WRITE_USER_LABEL File=X9WU.:X8A6TSI                      SAT 08/09/97 11:10 Page:28
        20 000273   000001 552070 18                 STBQ    BEGIN_LABEL+1,'70'O

   7658 20 000274   000307 710000 20                 TRA     s:7672

   7660 20 000275   000010 237000 21                 LDAQ    8
        20 000276   200004 470500                    LDP0    @UL_VEC,,AUTO
        20 000277   000000 757100                    STAQ    0,,PR0

   7661 20 000300   000307 710000 20                 TRA     s:7672

   7664 20 000301   000002 237000 21                 LDAQ    2
        20 000302   200004 476500                    LDP6    @UL_VEC,,AUTO
        20 000303   600000 757100                    STAQ    0,,PR6

   7665 20 000304   040000 100400                    MLR     fill='040'O
        20 000305   000000 000001 21                 ADSC9   0                        cn=0,n=1
        20 000306   000001 000120 18                 ADSC9   BEGIN_LABEL+1            cn=0,n=80

      144     7669
      145     7670    2      END; /* DO CASE */

      146     7671
      147     7672    1    RETURN;

   7672 20 000307   000000 702200 xent               TSX2  ! X66_ARET

      148     7673        %eject;
PL6.E3A0      #001=X9WU$WRITE_USER_LABEL File=X9WU.:X8A6TSI                      SAT 08/09/97 11:10 Page:29
      149     7674         /*--------------------*/
      150     7675    1      X9WU$READ_USER_LABEL: ENTRY (FAB, UL_VEC, LABEL_TYPE, OPEN_TYPE);

   7675 20 000310   000000 700200 xent  X9WU$READ_U* TSX0  ! X66_AUTO_4
        20 000311   000104 000004                    ZERO    68,4

      151     7676         /*--------------------*/
      152     7677
      153     7678
      154     7679
      155     7680    2      DO CASE (LABEL_TYPE);

   7680 20 000312   200005 470500                    LDP0    @LABEL_TYPE,,AUTO
        20 000313   000000 235100                    LDA     0,,PR0
        20 000314   000004 115007                    CMPA    4,DL
        20 000315   000317 602005 20                 TNC     s:7680+5,AL
        20 000316   000427 710000 20                 TRA     s:7732
        20 000317   000323 710000 20                 TRA     s:7683
        20 000320   000345 710000 20                 TRA     s:7699
        20 000321   000366 710000 20                 TRA     s:7711
        20 000322   000407 710000 20                 TRA     s:7723

      156     7681    2        CASE (%BEGINNING_FILE_LABEL); /* after file is opened */

      157     7682
      158     7683    3          DO CASE (OPEN_TYPE);

   7683 20 000323   200006 471500                    LDP1    @OPEN_TYPE,,AUTO
        20 000324   100000 235100                    LDA     0,,PR1
        20 000325   000005 115007                    CMPA    5,DL
        20 000326   000330 602005 20                 TNC     s:7683+5,AL
        20 000327   000427 710000 20                 TRA     s:7732
        20 000330   000335 710000 20                 TRA     s:7686
        20 000331   000344 710000 20                 TRA     s:7692
        20 000332   000335 710000 20                 TRA     s:7686
        20 000333   000344 710000 20                 TRA     s:7692
        20 000334   000335 710000 20                 TRA     s:7686
PL6.E3A0      #001=X9WU$WRITE_USER_LABEL File=X9WU.:X8A6TSI                      SAT 08/09/97 11:10 Page:30

      159     7684    3            CASE (%OPEN_INPUT, %OPEN_INPUT_NO_REWIND, %OPEN_I_O);

      160     7685
      161     7686    3              FAB.LABEL_REC$ -> USE_TABLE.PTR$(%BEGINNING_FILE_LABEL)

   7686 20 000335   200003 473500                    LDP3    @FAB,,AUTO
        20 000336   300041 474500                    LDP4    33,,PR3
        20 000337   400000 475500                    LDP5    0,,PR4
        20 000340   040100 100400                    MLR     fill='040'O
        20 000341   000001 000120 18                 ADSC9   BEGIN_LABEL+1            cn=0,n=80
        20 000342   500000 000120                    ADSC9   0,,PR5                   cn=0,n=80
        20 000343   000427 710000 20                 TRA     s:7732

      162     7687    3                  -> USE_LABEL.AREA = BEGIN_LABEL.ULBL;
      163     7688
      164     7689    3            CASE (ELSE);

      165     7690                   /* do nothing */
      166     7691
      167     7692    3          END; /* inner DO CASE */

   7692 20 000344   000427 710000 20                 TRA     s:7732

      168     7693
      169     7694    2        CASE (%ENDING_FILE_LABEL);

      170     7695
      171     7696               %READ_LABEL (@LABEL_TYPE = %ENDING_FILE_LABEL,
      172     7697                            @LABEL_AREA = END_LABEL);

   7699 20 000345   000012 471400 21                 LDP1    10
        20 000346   100000 473500                    LDP3    0,,PR1
        20 000347   200003 474500                    LDP4    @FAB,,AUTO
        20 000350   400034 220100                    LDX0    28,,PR4
        20 000351   300000 236110                    LDQ     0,X0,PR3
        20 000352   200007 756100                    STQ     DCB$,,AUTO
PL6.E3A0      #001=X9WU$WRITE_USER_LABEL File=X9WU.:X8A6TSI                      SAT 08/09/97 11:10 Page:31

   7700 20 000353   200007 475500                    LDP5    DCB$,,AUTO
        20 000354   500032 236100                    LDQ     26,,PR5
        20 000355   000777 376003                    ANQ     511,DU
        20 000356   000003 116003                    CMPQ    3,DU
        20 000357   000427 600000 20                 TZE     s:7732

   7701 20 000360   400041 476500                    LDP6    33,,PR4
        20 000361   600001 477500                    LDP7    1,,PR6
        20 000362   040100 100400                    MLR     fill='040'O
        20 000363   000027 000120 18                 ADSC9   END_LABEL+1              cn=0,n=80
        20 000364   700000 000120                    ADSC9   0,,PR7                   cn=0,n=80

   7703 20 000365   000427 710000 20                 TRA     s:7732

      173     7705
      174     7706    2        CASE (%BEGINNING_TAPE_LABEL);

      175     7707
      176     7708               %READ_LABEL (@LABEL_TYPE = %BEGINNING_TAPE_LABEL,
      177     7709                            @LABEL_AREA = BEGIN_LABEL);

   7711 20 000366   000012 471400 21                 LDP1    10
        20 000367   100000 473500                    LDP3    0,,PR1
        20 000370   200003 474500                    LDP4    @FAB,,AUTO
        20 000371   400034 220100                    LDX0    28,,PR4
        20 000372   300000 236110                    LDQ     0,X0,PR3
        20 000373   200007 756100                    STQ     DCB$,,AUTO

   7712 20 000374   200007 475500                    LDP5    DCB$,,AUTO
        20 000375   500032 236100                    LDQ     26,,PR5
        20 000376   000777 376003                    ANQ     511,DU
        20 000377   000003 116003                    CMPQ    3,DU
        20 000400   000427 600000 20                 TZE     s:7732

   7713 20 000401   400041 476500                    LDP6    33,,PR4
        20 000402   600002 477500                    LDP7    2,,PR6
PL6.E3A0      #001=X9WU$WRITE_USER_LABEL File=X9WU.:X8A6TSI                      SAT 08/09/97 11:10 Page:32
        20 000403   040100 100400                    MLR     fill='040'O
        20 000404   000001 000120 18                 ADSC9   BEGIN_LABEL+1            cn=0,n=80
        20 000405   700000 000120                    ADSC9   0,,PR7                   cn=0,n=80

   7715 20 000406   000427 710000 20                 TRA     s:7732

      178     7717
      179     7718    2        CASE (%ENDING_TAPE_LABEL);

      180     7719
      181     7720               %READ_LABEL (@LABEL_TYPE = %ENDING_TAPE_LABEL,
      182     7721                            @LABEL_AREA = END_LABEL);

   7723 20 000407   000012 471400 21                 LDP1    10
        20 000410   100000 473500                    LDP3    0,,PR1
        20 000411   200003 474500                    LDP4    @FAB,,AUTO
        20 000412   400034 220100                    LDX0    28,,PR4
        20 000413   300000 236110                    LDQ     0,X0,PR3
        20 000414   200007 756100                    STQ     DCB$,,AUTO

   7724 20 000415   200007 475500                    LDP5    DCB$,,AUTO
        20 000416   500032 236100                    LDQ     26,,PR5
        20 000417   000777 376003                    ANQ     511,DU
        20 000420   000003 116003                    CMPQ    3,DU
        20 000421   000427 600000 20                 TZE     s:7732

   7725 20 000422   400041 476500                    LDP6    33,,PR4
        20 000423   600003 477500                    LDP7    3,,PR6
        20 000424   040100 100400                    MLR     fill='040'O
        20 000425   000027 000120 18                 ADSC9   END_LABEL+1              cn=0,n=80
        20 000426   700000 000120                    ADSC9   0,,PR7                   cn=0,n=80

      183     7729
      184     7730    2      END; /* DO CASE */

      185     7731
      186     7732    1    RETURN;
PL6.E3A0      #001=X9WU$WRITE_USER_LABEL File=X9WU.:X8A6TSI                      SAT 08/09/97 11:10 Page:33

   7732 20 000427   000000 702200 xent               TSX2  ! X66_ARET
      187     7733    1    END X9WU$WRITE_USER_LABEL;
      188     7734        %eject;
PL6.E3A0      #001=X9WU$WRITE_USER_LABEL File=X9WU.:X8A6TSI                      SAT 08/09/97 11:10 Page:34

PL6.E3A0      #001=X9WU$WRITE_USER_LABEL File=X9WU.:X8A6TSI                      SAT 08/09/97 11:10 Page:35
--  Include file information  --

   X8A_ERRCOM.:X8A6TOU  cannot be made into a system file and is referenced.
   X8A_LIBCOM.:X8A6TOU  cannot be made into a system file and is referenced.
   X9A_LIB_IO.:X8A6TOU  cannot be made into a system file and is referenced.
   X9A_IO.:X8A6TOU  is referenced.
   XS_MACRO_C.:LIBRARY  is referenced.
   X9A_FAB.:X8A6TOU  is referenced.
   CP_6_SUBS.:LIB_E04  is referenced.
   CP_6_C.:LIB_E04  is referenced.
   CP_6.:LIB_E04  cannot be made into a system file and is referenced.
   Z9A_FLAGS.:Z8A6TOU  is referenced.
   X8A_SYS_FILE.:X8A6TOU  is referenced.
      No diagnostics issued in procedure X9WU$WRITE_USER_LABEL.
PL6.E3A0      #001=X9WU$WRITE_USER_LABEL File=X9WU.:X8A6TSI                      SAT 08/09/97 11:10 Page:36

 **** Variables and constants ****

  ****  Section 001 LblCom LIBCOM

  ****  Scalars and arrays  ****
OctLoc.c.b A Datatyp(siz) R M Lvl/name                 OctLoc.c.b A Datatyp(siz) R M Lvl/name

     0-0-0/w STRC(720)         1 LIBCOM

  ****  Section 002 LblCom DEC_OR_COMMA

  ****  Scalars and arrays  ****
OctLoc.c.b A Datatyp(siz) R M Lvl/name                 OctLoc.c.b A Datatyp(siz) R M Lvl/name

     0-0-0/c CHAR              1 DEC_OR_COMMA

  ****  Section 003 LblCom IN_TEMP

  ****  Scalars and arrays  ****
OctLoc.c.b A Datatyp(siz) R M Lvl/name                 OctLoc.c.b A Datatyp(siz) R M Lvl/name

     0-0-0/c CHAR(80)          1 IN_TEMP

  ****  Section 004 LblCom OVRCHR

  ****  Scalars and arrays  ****
OctLoc.c.b A Datatyp(siz) R M Lvl/name                 OctLoc.c.b A Datatyp(siz) R M Lvl/name

     0-0-0/c CHAR              1 OVRCHR

  ****  Section 005 LblCom SELECT_TIME

  ****  Scalars and arrays  ****
OctLoc.c.b A Datatyp(siz) R M Lvl/name                 OctLoc.c.b A Datatyp(siz) R M Lvl/name

     0-0-0/w UBIN              1 SELECT_TIME

PL6.E3A0      #001=X9WU$WRITE_USER_LABEL File=X9WU.:X8A6TSI                      SAT 08/09/97 11:10 Page:37
  ****  Section 006 LblCom NO_ADVANCE_OFFSET

  ****  Scalars and arrays  ****
OctLoc.c.b A Datatyp(siz) R M Lvl/name                 OctLoc.c.b A Datatyp(siz) R M Lvl/name

     0-0-0/w UBIN              1 NO_ADVANCE_OFFSET

  ****  Section 007 LblCom DSPLY_SAVE

  ****  Scalars and arrays  ****
OctLoc.c.b A Datatyp(siz) R M Lvl/name                 OctLoc.c.b A Datatyp(siz) R M Lvl/name

     0-0-0/c CHAR(72)          1 DSPLY_SAVE

  ****  Section 008 LblCom D_DATE

  ****  Scalars and arrays  ****
OctLoc.c.b A Datatyp(siz) R M Lvl/name                 OctLoc.c.b A Datatyp(siz) R M Lvl/name

     0-0-0/c CHAR(10)          1 D_DATE

  ****  Section 009 LblCom D_TIME

  ****  Scalars and arrays  ****
OctLoc.c.b A Datatyp(siz) R M Lvl/name                 OctLoc.c.b A Datatyp(siz) R M Lvl/name

     0-0-0/c CHAR(11)          1 D_TIME

  ****  Section 010 LblCom D_DAY

  ****  Scalars and arrays  ****
OctLoc.c.b A Datatyp(siz) R M Lvl/name                 OctLoc.c.b A Datatyp(siz) R M Lvl/name

     0-0-0/c CHAR(3)           1 D_DAY

  ****  Section 011 LblCom C_DATE

PL6.E3A0      #001=X9WU$WRITE_USER_LABEL File=X9WU.:X8A6TSI                      SAT 08/09/97 11:10 Page:38
  ****  Scalars and arrays  ****
OctLoc.c.b A Datatyp(siz) R M Lvl/name                 OctLoc.c.b A Datatyp(siz) R M Lvl/name

     0-0-0/c CHAR(6)           1 C_DATE

  ****  Section 012 LblCom C_TIME

  ****  Scalars and arrays  ****
OctLoc.c.b A Datatyp(siz) R M Lvl/name                 OctLoc.c.b A Datatyp(siz) R M Lvl/name

     0-0-0/c CHAR(8)           1 C_TIME

  ****  Section 013 LblCom C_DAY

  ****  Scalars and arrays  ****
OctLoc.c.b A Datatyp(siz) R M Lvl/name                 OctLoc.c.b A Datatyp(siz) R M Lvl/name

     0-0-0/c CHAR(5)           1 C_DAY

  ****  Section 014 LblCom RTHOLD2

  ****  Scalars and arrays  ****
OctLoc.c.b A Datatyp(siz) R M Lvl/name                 OctLoc.c.b A Datatyp(siz) R M Lvl/name

     0-0-0/w UBIN              1 RTHOLD2

  ****  Section 015 LblCom LTHOLD2

  ****  Scalars and arrays  ****
OctLoc.c.b A Datatyp(siz) R M Lvl/name                 OctLoc.c.b A Datatyp(siz) R M Lvl/name

     0-0-0/w UBIN              1 LTHOLD2

  ****  Section 016 LblCom NDX2

  ****  Scalars and arrays  ****
OctLoc.c.b A Datatyp(siz) R M Lvl/name                 OctLoc.c.b A Datatyp(siz) R M Lvl/name
PL6.E3A0      #001=X9WU$WRITE_USER_LABEL File=X9WU.:X8A6TSI                      SAT 08/09/97 11:10 Page:39

     0-0-0/w SBIN              1 NDX2

  ****  Section 017 LblCom IN_LEN

  ****  Scalars and arrays  ****
OctLoc.c.b A Datatyp(siz) R M Lvl/name                 OctLoc.c.b A Datatyp(siz) R M Lvl/name

     0-0-0/w UBIN              1 IN_LEN

  ****  Section 018  Data  X9WU$WRITE_USER_LABEL

  ****  Scalars and arrays  ****
OctLoc.c.b A Datatyp(siz) R M Lvl/name                 OctLoc.c.b A Datatyp(siz) R M Lvl/name

     0-0-0/d STRC(756)   r     1 BEGIN_LABEL               26-0-0/d STRC(756)   r     1 END_LABEL

  ****  Auto variables  ****

  ****  Scalars and arrays  ****
OctLoc.c.b A Datatyp(siz) R M Lvl/name                 OctLoc.c.b A Datatyp(siz) R M Lvl/name

     3-0-0/w PTR         r     1 @FAB                       5-0-0/w PTR         r     1 @LABEL_TYPE
     6-0-0/w PTR         r     1 @OPEN_TYPE                 4-0-0/w PTR         r     1 @UL_VEC
     7-0-0/w PTR         r     1 DCB$                      *0-0-0/d STRC(2232)  r     1 FAB
    *0-0-0/w SBIN        r     1 LABEL_TYPE                12-0-0/w SBIN              1 LT
    13-0-0/c CHAR(65)          1 LTHOLD                    55-0-0/w SBIN              1 NDX
    56-0-0/w SBIN              1 NDX3                      *0-0-0/w SBIN        r     1 OPEN_TYPE
    34-0-0/c CHAR(65)          1 RTHOLD                    57-0-0/c CHAR(80)          1 SPECIAL_ERR_MSG
    *0-0-0/d BIT (72)    r     1 UL_VEC                    10-0-0/w PTR         r     1 USE$$
    11-0-0/w EPTR        r     1 USE_ENTRY$               103-0-0/w PTR               1 USE_PTR$

  ****  SYMREF variables  ****

  ****  Scalars and arrays  ****
OctLoc.c.b A Datatyp(siz) R M Lvl/name                 OctLoc.c.b A Datatyp(siz) R M Lvl/name

PL6.E3A0      #001=X9WU$WRITE_USER_LABEL File=X9WU.:X8A6TSI                      SAT 08/09/97 11:10 Page:40
     0-0-0/w PTR               1 B$TCB$

  ****  BASED and DCB variables  ****

  ****  Scalars and arrays  ****
OctLoc.c.b A Datatyp(siz) R M Lvl/name                 OctLoc.c.b A Datatyp(siz) R M Lvl/name

     0-0-0/w STRC(2448)        1 B$ALT                      0-0-0/w STRC(144)         1 B$TCB
     0-0-0N  NULL        r     1 M$UC                       0-0-0/d ASTR(3528)  r     1 M$XX
     0-0-0/c STRC(720)   r     1 USE_LABEL                  0-0-0/w STRC(864)         1 USE_PROC
     0-0-0/w STRC(864)   r     1 USE_TABLE


   Procedure X9WU$WRITE_USER_LABEL requires 280 words for executable code.
   Procedure X9WU$WRITE_USER_LABEL requires 68 words of local(AUTO) storage.

    No errors detected in file X9WU.:X8A6TSI    .
