
 11:16 01/06/95  FILE=XBC$CSEQU:a.:XBC3TSI                                                               1    BMAP - B00
                                         1  *M*      _XBC_CSEQU CALLING SEQUENCE ROUTINES FOR USER
                                         2  *T***********************************************************
                                         3  *T*                                                         *
                                         4  *T* Copyright (c) Bull HN Information Systems Inc., 1989    *
                                         5  *T*                                                         *
                                         6  *T***********************************************************
                                         7  *D*
                                         8  *D*      THE CALLING SEQUENCE ROUTINES ASSUME THAT THE BASE OF THE
                                         9  *D*      AUTOMATIC STORAGE SEGMENT HAS THE FOLLOWING LAYOUT:
                                        10  *D*      _________________________________________
                                        11  *D*      |                   |                   |
                                        12  *D*      |XXX                |NEG CURR OFFSET-1  |
                                        13  *D*      -----------------------------------------
                                        14  *D*      |                   |                   |
                                        15  *D*      |0                  |-1                 |
                                        16  *D*      -----------------------------------------
                                        17  *D*      |                   |                   |
                                        18  *D*      |LIMIT OFFSET       |AUTO_EXHAUSTED_LOC |
                                        19  *D*      _________________________________________
                                        20  *D*
                                        21  *D*
                                        22  *D*      EACH FRAME IS ASSUMED TO HAVE THE FOLLOWING FORMAT:
                                        23  *D*      ________________________________________
                                        24  *D*      |                   |                   |
                                        25  *D*      |RETURN ADDRESS(ALT)|NEG PREV OFFSET-1  |
                                        26  *D*      -----------------------------------------
                                        27  *D*      |                   |                   |
                                        28  *D*      |EXTENSION(0)       |LANG FLAG (-1)     |
                                        29  *D*      -----------------------------------------
                                        30  *D*      |                   |                   |
                                        31  *D*      |NEXT FRAME OFFSET+1|LOC OF ENTRY(M+A)  |
                                        32  *D*      _________________________________________
                                        33  *D*       parameter pointers(PTR) follow
                                        34  *D*
                                        35  *D*      STATIC 'FRAMES' ARE ASSUMED TO HAVE THE FOLLOWING FORMAT:
                                        36  *D*      -----------------------------------------
                                        37  *D*      |RETURN ADDRESS(ALT)|XXX                |
 11:16 01/06/95  FILE=XBC$CSEQU:a.:XBC3TSI                                                               2    BMAP - B00
                                        38  *D*      -----------------------------------------
                                        39  *D*       parameter pointers(PTR) follow
                                        40  *D*

 11:16 01/06/95  FILE=XBC$CSEQU:a.:XBC3TSI                                                               3    BMAP - B00
                                        41           EJECT
                                        42  ***************************************************************
                                        43  *        Please note that for proper operation of the         *
                                        44  *        MATERIALIZE clause of PL6, PR0 and PR1 must be       *
                                        45  *        preserved by all of the setup routines in here.      *
                                        46  *        This must never change.                              *
                                        47  ***************************************************************
             000000000000               48  PTRLISTPR EQU      0
             000000000001               49  DESCLISTPR EQU     1
             000000000002               50  AUTOPR   EQU       2
                                        51  *
                                        52           SEGREF    ISSID
                                        53           SEGREF    NULLSID
                                        54           SEGREF    DS1SID
                                        55           SEGREF    TCBSID
                                        56  *
             000000430001               57  GDS      BOOL      430001
             000000430002               58  FDS      BOOL      430002
             000000000001               59  EXIT     EQU       1
             000000000002               60  ERR      EQU       2
             000000000003               61  XXX      EQU       3
             000000010012               62  TRTN     EQU       4106
             000000010014               63  MERCS    EQU       4108
             000000040001               64  WRITE    BOOL      40001

 11:16 01/06/95  FILE=XBC$CSEQU:a.:XBC3TSI                                                               4    BMAP - B00
                                        65           EJECT
                                        66  *                                      OFFSETS IN AUTO FRAME HDR
             000000000000               67  RET_     EQU       0
             000000000000               68  PREV_    EQU       0
             000000000000               69  RET_PREV_ EQU      0
             000000000002               70  NEXT_    EQU       2
             000000000002               71  LOCOFENT_ EQU      2
             000000000004               72  PARMS_   EQU       4
             000000000003               73  ARGPTR_  EQU       3
                                        74  *                                      OFFSETS IN AUTO BASE
             000000000000               75  CURR_    EQU       0
             000000000002               76  LIMIT_   EQU       2
                                        77  *                                      REGISTERS
             000000000001               78  PARMREG1 EQU       1
             000000000003               79  PARMREG2 EQU       3
             000000000004               80  PARMREG3 EQU       4

 11:16 01/06/95  FILE=XBC$CSEQU:a.:XBC3TSI                                                               5    BMAP - B00
                                        81           EJECT
                                        82  *        ALIGN macro is used to reserve space up to the desired
                                        83  *        place within a four word block. The containing section must
                                        84  *        have the attribute EIGHT for ALIGN to work properly.
                                        85  *        Invoked as follows:
                                        86  *        ALIGN     {1,2,3,4}
                                        87  *
                                        88  ALIGN    MACRO
                                        89  _1       SET       *-_XBC_ARET
                                        90  _2       SET       _1/4*4
                                        91  _2       SET       _1-_2
                                        92  _2       SET       4+#1-_2
                                        93           IFE       _2,1
                                        94           BSS       1
                                        95           IFE       _2,2
                                        96           BSS       2
                                        97           IFE       _2,3
                                        98           BSS       3
                                        99           IFE       _2,5
                                       100           BSS       1
                                       101           IFE       _2,6
                                       102           BSS       2
                                       103           IFE       _2,7
                                       104           BSS       3
                                       105           ENDM

 11:16 01/06/95  FILE=XBC$CSEQU:a.:XBC3TSI                                                               6    BMAP - B00
                                       106           EJECT
                                       107  *
                                       108           ENTDEF    _XBC_ARET,_XBC_AALT
                                       109  *
                                       110           ENTDEF    _XBC_AUTO_0,_XBC_AUTO_1,_XBC_AUTO_2
                                       111           ENTDEF    _XBC_AUTO_3,_XBC_AUTO_N
                                       112           ENTDEF    _XBC_AUTO_4,_XBC_AUTO_5
                                       113           ENTDEF    _XBC_AUTO_Q
                                       114  *
                                       115  *
                                       116  *
                                       117           ENTDEF    _XBC_MAUTO,_XBC_MSTATIC
                                       118  *
                                       119           ENTDEF    _XBC_AAUTO,_XBC_ASTATIC
                                       120  *
                                       121           ENTDEF    _XBC_MARET,_XBC_MSRET
                                       122           ENTDEF    _XBC_MAALT,_XBC_MSALT
                                       123           ENTDEF    _XBC_AARET,_XBC_ASRET
                                       124           ENTDEF    _XBC_AAALT,_XBC_ASALT
                                       125  *
                                       126           ENTDEF    _XBC_FARET,_XBC_FAALT
                                       127  *
                                       128           ENTDEF    _XBC_MAUNWIND,_XBC_AAUNWIND,_XBC_AUNWIND
                                       129           ENTDEF    _XBC_MSUNWIND,_XBC_ASUNWIND,_XBC_SUNWIND
                                       130  *
                                       131           ENTDEF    _XBC_PREGS_1,_XBC_PREGS_2,_XBC_PREGS_3
                                       132  *
                                       133           ENTDEF    _XBC_INDEX
                                       134  *
                                       135           ENTDEF    _XBC_AUTO_ALLOC
                                       136           ENTDEF    _XBC_REL_AUTO,_XBC_AUTO_EX
                                       137           ENTDEF    _XBC_FRAME_EXT
                                       138           ENTDEF    _XBC_FRAME_KEXT
                                       139  *
                                       140           ENTDEF    _XBC_TRTN,_XBC_MERCS

 11:16 01/06/95  FILE=XBC$CSEQU:a.:XBC3TSI                                                               7    BMAP - B00
                                       141           EJECT
                                       142           INHIB     ON
 0 000000                              143           USE       _XBC_PROCED,1
                                       144  *D*
                                       145  *D* _XBC_ARET       Normal return from current active AUTO procedure
                                       146  *D*                Uses X1 and X3; Sets PR2 to previous frame; other registers
                                       147  *D*                left unchanged.
                                       148  *
                                       149           EIGHT                         NEEDED TO MAKE ALIGN WORK
   000000                              150  _XBC      NULL
   000000    2 00000 2363 00           151  _XBC_ARET LDQ       RET_PREV_,,AUTOPR
   000001    2 00001 5276 06           152           SWDX      1+0,QL,AUTOPR
   000002    2 00001 7563 06           153           STQ       1,QL,AUTOPR
   000003    000001 7102 02            154           TRA       1,QU
                                       155  *
                                       156  *D* _XBC_AALT       Alternate return from current active AUTO procedure
                                       157  *D*                Uses X1 and X3; Sets PR2 to previous frame; other registers
                                       158  *D*                left unchanged.
                                       159  *D*
                                       160  *
   000004    2 00000 2213 00           161  _XBC_AALT LDX1      RET_PREV_,,AUTOPR
   000005    2 00000 7233 00           162           LXL3      RET_PREV_,,AUTOPR
   000006    2 00001 5276 13           163           SWDX      1+0,3,AUTOPR
   000007    2 00001 7433 13           164           STX3      1+CURR_,3,AUTOPR
   000010    000000 7102 11            165           TRA       0,1

 11:16 01/06/95  FILE=XBC$CSEQU:a.:XBC3TSI                                                               8    BMAP - B00
                                       166           EJECT
                                       167  *D*
                                       168  *D* _XBC_AUTO_0     Setup routine for AUTO procedures with no arguments
                                       169  *D*                expected.
                                       170  *D* _XBC_AUTO_1     Same but one arg expected
                                       171  *D* _XBC_AUTO_2     Same but two arg's expected
                                       172  *D* _XBC_AUTO_3     Same but three arg's expected
                                       173  *D* _XBC_AUTO_4     Same but four arg's expected
                                       174  *D* _XBC_AUTO_5     Same but five arg's expected
                                       175  *D* _XBC_AUTO_N     Same but any number of arg's expected. The number
                                       176  *D*                is specified in the right half of the word following
                                       177  *D*                the TSX0 _XBC_AUTO_N
                                       178  *D* _XBC_AUTO_Q     Same but frame size and number of arguments are
                                       179  *D*                contained in QU and QL respectively.
                                       180  *D*
                                       181  *D*                Each of the above routines sets up a new AUTO frame
                                       182  *D*                and sets up parameters in the new frame.
                                       183  *D*                Call: TSX0 _XBC_AUTO_n
                                       184  *D*                      ZERO frame size,number of args
                                       185  *D*                      continue ...
                                       186  *D*                CAUTION: Frame size must be even except for AUTO_Q
                                       187  *D*                Registers Used: A, Q, X0, X1, X2, X3, X4, PR0, PR1
                                       188  *D*
                                       189  *
                                       190  *
                                       191           ALIGN     4
   000014                              192  _XBC_AUTO_0 NULL
   000014    2 00002 3223 00           193           LCX2      NEXT_,,AUTOPR       NEG NEXT FRAME OFFSET
   000015    2 00001 5276 12           194           SWDX      1+0,2,AUTOPR        'NEXT' IS NOW CURRENT
   000016    2 00001 2373 12           195           LDAQ      1+CURR_,2,AUTOPR    GET OLD 'NEG CURRENT' ->A
                                       196  *                                      0, PL6 FLAG ->Q
   000017    2 00000 7573 00           197           STAQ      PREV_,,AUTOPR       'NEG CURRENT'->'NEG PREV'
                                       198  *                                      SET EXTENSION, FLAG
   000020    000000 2232 10            199           LDX3      0,0                 SIZE OF THIS FRAME
   000021    2 00000 7413 00           200           STX1      RET_,,AUTOPR        SAVE ALTRET ADDR
   000022    2 00003 4507 00           201           STP0      3,,AUTOPR           SAVE POINTER REG ZERO FOR CODE GEN
   000023    2 00001 6353 13           202           EAA       1+0,3,AUTOPR        CALCULATE NEW 'NEXT'
 11:16 01/06/95  FILE=XBC$CSEQU:a.:XBC3TSI                                                               9    BMAP - B00
   000024    2 00001 4423 12           203           SXL2      1+CURR_,2,AUTOPR    SET 'NEG CURRENT'
   000025    2 00002 7553 00           204           STA       NEXT_,,AUTOPR       SET NEXT FRAME
   000026    2 00003 1153 12           205           CMPA      1+LIMIT_,2,AUTOPR   IS THERE ROOM?
   000027    000001 6022 10            206           TNC       1,0                 ENUF ROOM, GO
   000030 (0)000676 7102 00            207           TRA       ALLOCGO

 11:16 01/06/95  FILE=XBC$CSEQU:a.:XBC3TSI                                                               10   BMAP - B00
                                       208           EJECT
                                       209  *
                                       210           ALIGN     4
   000034                              211  _XBC_AUTO_1 NULL
   000034    2 00002 3223 00           212           LCX2      NEXT_,,AUTOPR       NEG NEXT FRAME OFFSET
   000035    2 00001 5276 12           213           SWDX      1+0,2,AUTOPR        'NEXT' IS NOW CURRENT
   000036    2 00001 2373 12           214           LDAQ      1+CURR_,2,AUTOPR    GET OLD 'NEG CURRENT' ->A
                                       215  *                                      0, PL6 FLAG ->Q
   000037    2 00000 7573 00           216           STAQ      0,,AUTOPR           'NEG CURRENT'->'NEG PREV'
                                       217  *                                      SET EXTENSION, FLAG
   000040    2 00000 7413 00           218           STX1      RET_,,AUTOPR        SAVE ALTRET ADDR
   000041    000000 2232 10            219           LDX3      0,0                 SIZE OF THIS FRAME
   000042    2 00003 4507 00           220           STP0      3,,AUTOPR           SAVE POINTER REG ZERO FOR CODE GEN
   000043    1 00000 2243 00           221           LDX4      0,,DESCLISTPR       # OF ARGS PASSED
   000044    2 00001 4423 12           222           SXL2      1+CURR_,2,AUTOPR    SET 'NEG CURRENT'
   000045 (0)000060 6002 00            223           TZE       NULL1               GIVE ADDR(NIL)
   000046    0 00000 2363 00           224           LDQ       0,,PTRLISTPR        ADDR(ARG1)
   000047    2 00001 6353 13           225           EAA       1+0,3,AUTOPR        CALCULATE NEW 'NEXT'
   000050    2 00002 7553 00           226           STA       NEXT_,,AUTOPR       STORE NEXT FRAME,ADDR(ARG1)
   000051    2 00004 7563 00           227           STQ       PARMS_,,AUTOPR      SET FIRST ARG
   000052    2 00003 1153 12           228           CMPA      1+LIMIT_,2,AUTOPR   IS THERE ROOM?
   000053    000001 6022 10            229           TNC       1,0
   000054 (0)000676 7102 00            230           TRA       ALLOCGO
                                       231  *
                                       232           ALIGN     4
   000060                              233  NULL1    NULL
   000060  X 000000 2362 07            234           LDQ       NULLSID,DL
   000061    2 00001 6353 13           235           EAA       1+0,3,AUTOPR        CALCULATE NEW 'NEXT'
   000062    2 00003 1153 12           236           CMPA      1+LIMIT_,2,AUTOPR   IS THERE ROOM?
   000063    2 00002 7553 00           237           STA       NEXT_,,AUTOPR
   000064    2 00004 7563 00           238           STQ       PARMS_,,AUTOPR      SET FIRST ARG
   000065    000001 6022 10            239           TNC       1,0
   000066 (0)000676 7102 00            240           TRA       ALLOCGO

 11:16 01/06/95  FILE=XBC$CSEQU:a.:XBC3TSI                                                               11   BMAP - B00
                                       241           EJECT
                                       242  *
                                       243           ALIGN     4
   000070                              244  _XBC_AUTO_2 NULL
   000070    2 00002 3223 00           245           LCX2      2,,AUTOPR           NEG NEXT FRAME OFFSET
   000071    2 00001 5276 12           246           SWDX      1+0,2,AUTOPR        'NEXT' IS NOW CURRENT
   000072    2 00001 2373 12           247           LDAQ      1+0,2,AUTOPR        GET OLD 'NEG CURRENT' ->A
                                       248  *                                      0, PL6 FLAG ->Q
   000073    2 00000 7573 00           249           STAQ      0,,AUTOPR           'NEG CURRENT'->'NEG PREV'
                                       250  *                                      SET EXTENSION, FLAG
   000074    2 00000 7413 00           251           STX1      0,,AUTOPR           SAVE ALTRET ADDR
   000075    2 00003 4507 00           252           STP0      3,,AUTOPR           SAVE POINTER REG ZERO FOR CODE GEN
   000076    1 00000 2243 00           253           LDX4      0,,DESCLISTPR       # OF ARGS PASSED
   000077    000001 1042 03            254           CMPX4     1,DU
   000100    2 00001 4423 12           255           SXL2      1+0,2,AUTOPR        SET 'NEG CURRENT'
   000101 (0)000114 6046 14            256           TMOZ      NULL2,4             GIVE 1 OR 2 ADDR(NIL)
   000102    000000 2232 10            257           LDX3      0,0                 SIZE OF THIS FRAME
   000103    0 00001 2363 00           258           LDQ       1,,PTRLISTPR        ADDR(ARG2)
   000104    2 00005 7563 00           259           STQ       5,,AUTOPR
   000105    0 00000 2363 00           260           LDQ       0,,PTRLISTPR        ADDR(ARG1)
   000106    2 00001 6353 13           261           EAA       1+0,3,AUTOPR        CALCULATE NEW 'NEXT'
   000107    2 00003 1153 12           262           CMPA      1+2,2,AUTOPR        IS THERE ROOM?
   000110    2 00002 7553 00           263           STA       2,,AUTOPR
   000111    2 00004 7563 00           264           STQ       PARMS_,,AUTOPR      SET FIRST ARG
   000112    000001 6022 10            265           TNC       1,0
   000113 (0)000676 7102 00            266           TRA       ALLOCGO
                                       267  *
                                       268           ALIGN     4
   000114                              269  NULL2    NULL
   000114 (0)000130 7102 00            270           TRA       NULL20              GIVE 2 NIL'S
   000115    000000 2232 10            271           LDX3      0,0                 SIZE OF THIS FRAME
   000116  X 000000 2362 07            272           LDQ       NULLSID,DL
   000117    2 00005 7563 00           273           STQ       5,,AUTOPR
   000120    0 00000 2363 00           274           LDQ       0,,PTRLISTPR        ADDR(ARG1)
   000121    2 00001 6353 13           275           EAA       1+0,3,AUTOPR        CALCULATE NEW 'NEXT'
   000122    2 00003 1153 12           276           CMPA      1+2,2,AUTOPR        IS THERE ROOM?
   000123    2 00002 7553 00           277           STA       2,,AUTOPR
 11:16 01/06/95  FILE=XBC$CSEQU:a.:XBC3TSI                                                               12   BMAP - B00
   000124    2 00004 7563 00           278           STQ       PARMS_,,AUTOPR      SET FIRST ARG
   000125    000001 6022 10            279           TNC       1,0
   000126 (0)000676 7102 00            280           TRA       ALLOCGO
                                       281  *
                                       282           ALIGN     4
   000130                              283  NULL20   NULL
   000130    000000 2232 10            284           LDX3      0,0                 SIZE OF THIS FRAME
   000131  X 000000 2362 07            285           LDQ       NULLSID,DL
   000132    2 00001 6353 13           286           EAA       1+0,3,AUTOPR        CALCULATE NEW 'NEXT'
   000133    2 00005 7563 00           287           STQ       5,,AUTOPR
   000134    2 00002 7553 00           288           STA       2,,AUTOPR
   000135    2 00004 7563 00           289           STQ       PARMS_,,AUTOPR
   000136    2 00003 1153 12           290           CMPA      1+2,2,AUTOPR        IS THERE ROOM?
   000137    000001 6022 10            291           TNC       1,0
   000140 (0)000676 7102 00            292           TRA       ALLOCGO

 11:16 01/06/95  FILE=XBC$CSEQU:a.:XBC3TSI                                                               13   BMAP - B00
                                       293           EJECT
                                       294  *
                                       295           ALIGN     4
   000144                              296  _XBC_AUTO_3 NULL
   000144    2 00002 3223 00           297           LCX2      2,,AUTOPR           NEG NEXT FRAME OFFSET
   000145    2 00001 5276 12           298           SWDX      1+0,2,AUTOPR        'NEXT' IS NOW CURRENT
   000146    2 00001 2373 12           299           LDAQ      1+0,2,AUTOPR        GET OLD 'NEG CURRENT' ->A
                                       300  *                                      0, PL6 FLAG ->Q
   000147    2 00000 7573 00           301           STAQ      0,,AUTOPR           'NEG CURRENT'->'NEG PREV'
                                       302  *                                      SET EXTENSION, FLAG
   000150    2 00000 7413 00           303           STX1      0,,AUTOPR           SAVE ALTRET ADDR
   000151    2 00003 4507 00           304           STP0      3,,AUTOPR           SAVE POINTER REG ZERO FOR CODE GEN
   000152    1 00000 2243 00           305           LDX4      0,,DESCLISTPR       # OF ARGS PASSED
   000153    000002 1042 03            306           CMPX4     2,DU
   000154    2 00001 4423 12           307           SXL2      1+0,2,AUTOPR        SET 'NEG CURRENT'
   000155 (0)000173 6046 14            308           TMOZ      NULL3,4             GIVE 1,2, OR 3 ADDR(NIL)
   000156    0 00000 2353 00           309           LDA       0,,PTRLISTPR        ADDR(ARG2)
   000157    0 00001 2363 00           310           LDQ       1,,PTRLISTPR        ADDR(ARG3)
   000160    2 00004 7573 00           311           STAQ      PARMS_,,AUTOPR
   000161    000000 2232 10            312           LDX3      0,0                 SIZE OF THIS FRAME
   000162    0 00002 2363 00           313           LDQ       2,,PTRLISTPR        ADDR(ARG1)
   000163    2 00001 6353 13           314           EAA       1+0,3,AUTOPR        CALCULATE NEW 'NEXT'
   000164    2 00002 7553 00           315           STA       2,,AUTOPR
   000165    2 00006 7563 00           316           STQ       6,,AUTOPR           SET THIRD ARG
   000166    2 00003 1153 12           317           CMPA      1+2,2,AUTOPR        IS THERE ROOM?
   000167    000001 6022 10            318           TNC       1,0
   000170 (0)000676 7102 00            319           TRA       ALLOCGO
                                       320  *
                                       321           ALIGN     3
   000173                              322  NULL3    NULL
   000173 (0)000225 7102 00            323           TRA       NULL30
   000174 (0)000210 7102 00            324           TRA       NULL31
   000175    0 00000 2353 00           325           LDA       0,,PTRLISTPR        ADDR(ARG1)
   000176    0 00001 2363 00           326           LDQ       1,,PTRLISTPR        ADDR(ARG2)
   000177    2 00004 7573 00           327           STAQ      4,,AUTOPR
   000200    000000 2232 10            328           LDX3      0,0                 SIZE OF THIS FRAME
   000201  X 000000 2362 07            329           LDQ       NULLSID,DL          NUL FOR ARG3
 11:16 01/06/95  FILE=XBC$CSEQU:a.:XBC3TSI                                                               14   BMAP - B00
   000202    2 00001 6353 13           330           EAA       1+0,3,AUTOPR        CALCULATE NEW 'NEXT'
   000203    2 00002 7553 00           331           STA       2,,AUTOPR
   000204    2 00006 7563 00           332           STQ       6,,AUTOPR
   000205    2 00003 1153 12           333           CMPA      1+2,2,AUTOPR        IS THERE ROOM?
   000206    000001 6022 10            334           TNC       1,0
   000207 (0)000676 7102 00            335           TRA       ALLOCGO
                                       336  *
                                       337           ALIGN     4
   000210                              338  NULL31   NULL
   000210 (3)000000 2372 00            339           LDAQ      NILPTR
   000211    2 00004 7573 00           340           STAQ      4,,AUTOPR
   000212    2 00006 7563 00           341           STQ       6,,AUTOPR
   000213    000000 2232 10            342           LDX3      0,0
   000214    0 00000 2363 00           343           LDQ       0,,PTRLISTPR
   000215    2 00004 7563 00           344           STQ       PARMS_,,AUTOPR
   000216    2 00001 6353 13           345           EAA       1+0,3,AUTOPR
   000217    2 00002 7553 00           346           STA       2,,AUTOPR
   000220    2 00003 1153 12           347           CMPA      1+2,2,AUTOPR
   000221    000001 6022 10            348           TNC       1,0
   000222 (0)000676 7102 00            349           TRA       ALLOCGO
                                       350           ALIGN     1
   000225                              351  NULL30   NULL
   000225    000000 2232 10            352           LDX3      0,0
   000226 (3)000000 2372 00            353           LDAQ      NILPTR
   000227    2 00004 7573 00           354           STAQ      4,,AUTOPR
   000230    2 00006 7563 00           355           STQ       6,,AUTOPR
   000231    2 00001 6353 13           356           EAA       1+0,3,AUTOPR
   000232    2 00002 7553 00           357           STA       2,,AUTOPR
   000233    2 00003 1153 12           358           CMPA      1+2,2,AUTOPR
   000234    000001 6022 10            359           TNC       1,0
   000235 (0)000676 7102 00            360           TRA       ALLOCGO

 11:16 01/06/95  FILE=XBC$CSEQU:a.:XBC3TSI                                                               15   BMAP - B00
                                       361           EJECT
                                       362  *
                                       363           ALIGN     4
   000240                              364  _XBC_AUTO_4 NULL
   000240    2 00002 3223 00           365           LCX2      2,,AUTOPR           NEG NEXT FRAME OFFSET
   000241    2 00001 5276 12           366           SWDX      1+0,2,AUTOPR        'NEXT' IS NOW CURRENT
   000242    2 00001 2373 12           367           LDAQ      1+0,2,AUTOPR        GET OLD 'NEG CURRENT' ->A
                                       368  *                                      0, PL6 FLAG ->Q
   000243    2 00000 7573 00           369           STAQ      0,,AUTOPR           'NEG CURRENT'->'NEG PREV'
                                       370  *                                      SET EXTENSION, FLAG
   000244    2 00000 7413 00           371           STX1      0,,AUTOPR           SAVE ALTRET ADDR
   000245    1 00000 2243 00           372           LDX4      0,,DESCLISTPR       # OF ARGS PASSED
   000246    000003 1042 03            373           CMPX4     3,DU
   000247    2 00003 4507 00           374           STP0      3,,AUTOPR           SAVE POINTER REG ZERO FOR CODE GEN
   000250    2 00001 4423 12           375           SXL2      1+0,2,AUTOPR        SET 'NEG CURRENT'
   000251 (0)000271 6046 14            376           TMOZ      NULL4,4             GIVE 1,2, OR 3 ADDR(NIL)
   000252    0 00000 2353 00           377           LDA       0,,PTRLISTPR        ADDR(ARG2)
   000253    0 00001 2363 00           378           LDQ       1,,PTRLISTPR        ADDR(ARG2)
   000254    2 00004 7573 00           379           STAQ      4,,AUTOPR
   000255    000000 2232 10            380           LDX3      0,0                 SIZE OF THIS FRAME
   000256    0 00002 2353 00           381           LDA       2,,PTRLISTPR        ADDR(ARG3)
   000257    0 00003 2363 00           382           LDQ       3,,PTRLISTPR
   000260    2 00006 7573 00           383           STAQ      6,,AUTOPR
   000261    2 00001 6353 13           384           EAA       1+0,3,AUTOPR        CALCULATE NEW 'NEXT'
   000262    2 00002 7553 00           385           STA       2,,AUTOPR
   000263    2 00003 1153 12           386           CMPA      1+2,2,AUTOPR        IS THERE ROOM?
   000264    000001 6022 10            387           TNC       1,0
   000265 (0)000676 7102 00            388           TRA       ALLOCGO
                                       389  *
                                       390           ALIGN     1
   000271                              391  NULL4    NULL
   000271 (0)000331 7102 00            392           TRA       NULL40
   000272 (0)000324 7102 00            393           TRA       NULL41
   000273 (0)000310 7102 00            394           TRA       NULL42
   000274    000000 2232 10            395           LDX3      0,0
   000275    0 00000 2353 00           396           LDA       0,,PTRLISTPR
   000276    0 00001 2363 00           397           LDQ       1,,PTRLISTPR
 11:16 01/06/95  FILE=XBC$CSEQU:a.:XBC3TSI                                                               16   BMAP - B00
   000277    2 00004 7573 00           398           STAQ      4,,AUTOPR
   000300    0 00002 2353 00           399           LDA       2,,PTRLISTPR
   000301  X 000000 2362 07            400           LDQ       NULLSID,DL
   000302    2 00006 7573 00           401           STAQ      6,,AUTOPR
   000303    2 00001 6353 13           402           EAA       1+0,3,AUTOPR
   000304    2 00002 7553 00           403           STA       2,,AUTOPR
   000305    2 00003 1153 12           404           CMPA      1+2,2,AUTOPR
   000306    000001 6022 10            405           TNC       1,0
   000307 (0)000676 7102 00            406           TRA       ALLOCGO
                                       407  *
                                       408           ALIGN     4
   000310                              409  NULL42   NULL
   000310    0 00002 2373 00           410           LDAQ      2,,PTRLISTPR
   000311                              411  NULL4C1  NULL
   000311    000000 2232 10            412           LDX3      0,0
   000312    2 00005 7563 00           413           STQ       5,,AUTOPR
   000313 (3)000000 2372 00            414           LDAQ      NILPTR
   000314    2 00006 7573 00           415           STAQ      6,,AUTOPR
   000315    0 00000 2363 00           416           LDQ       0,,PTRLISTPR
   000316    2 00004 7563 00           417           STQ       PARMS_,,AUTOPR
   000317                              418  NULL4C2  NULL
   000317    2 00001 6353 13           419           EAA       1+0,3,AUTOPR
   000320    2 00002 7553 00           420           STA       2,,AUTOPR
   000321    2 00003 1153 12           421           CMPA      1+2,2,AUTOPR
   000322    000001 6022 10            422           TNC       1,0
   000323 (0)000676 7102 00            423           TRA       ALLOCGO
                                       424  *
                                       425           ALIGN     4
   000324                              426  NULL41   NULL
   000324  X 000000 2352 07            427           LDA       NULLSID,DL
   000325 (0)000311 7102 00            428           TRA       NULL4C1
                                       429  *
                                       430           ALIGN     1
   000331                              431  NULL40   NULL
   000331 (3)000000 2372 00            432           LDAQ      NILPTR
   000332    000000 2232 10            433           LDX3      0,0
   000333    2 00006 7573 00           434           STAQ      6,,AUTOPR
 11:16 01/06/95  FILE=XBC$CSEQU:a.:XBC3TSI                                                               17   BMAP - B00
   000334    2 00004 7573 00           435           STAQ      4,,AUTOPR
   000335 (0)000317 7102 00            436           TRA       NULL4C2

 11:16 01/06/95  FILE=XBC$CSEQU:a.:XBC3TSI                                                               18   BMAP - B00
                                       437           EJECT
                                       438  *
                                       439           ALIGN     4
   000340                              440  _XBC_AUTO_5 NULL
   000340    2 00002 3223 00           441           LCX2      2,,AUTOPR           NEG NEXT FRAME OFFSET
   000341    2 00001 5276 12           442           SWDX      1+0,2,AUTOPR        'NEXT' IS NOW CURRENT
   000342    2 00001 2373 12           443           LDAQ      1+0,2,AUTOPR        GET OLD 'NEG CURRENT' ->A
                                       444  *                                      0, PL6 FLAG ->Q
   000343    2 00000 7573 00           445           STAQ      0,,AUTOPR           'NEG CURRENT'->'NEG PREV'
                                       446  *                                      SET EXTENSION, FLAG
   000344    2 00000 7413 00           447           STX1      0,,AUTOPR           SAVE ALTRET ADDR
   000345    2 00003 4507 00           448           STP0      3,,AUTOPR          SAVE POINTER REG ZERO FOR CODE GEN
   000346    1 00000 2243 00           449           LDX4      0,,DESCLISTPR       # OF ARGS PASSED
   000347    000004 1042 03            450           CMPX4     4,DU
   000350    2 00001 4423 12           451           SXL2      1+0,2,AUTOPR        SET 'NEG CURRENT'
   000351 (0)000370 6046 14            452           TMOZ      NULL5,4             GIVE 1,2, OR 3 ADDR(NIL)
   000352    0 00004 2363 00           453           LDQ       4,,PTRLISTPR
   000353                              454  NULL5001 NULL
   000353    2 00010 7563 00           455           STQ       8,,AUTOPR
   000354    0 00003 2363 00           456           LDQ       3,,PTRLISTPR
   000355                              457  NULL5C0  NULL
   000355    0 00002 2353 00           458           LDA       2,,PTRLISTPR
   000356                              459  NULL5C1  NULL
   000356    2 00006 7573 00           460           STAQ      6,,AUTOPR
   000357    0 00001 2363 00           461           LDQ       1,,PTRLISTPR        ADDR(ARG2)
   000360                              462  NULL5C2  NULL
   000360    0 00000 2353 00           463           LDA       0,,PTRLISTPR        ADDR(ARG1)
   000361                              464  NULL5C3  NULL
   000361    000000 2232 10            465           LDX3      0,0                 SIZE OF THIS FRAME
   000362    2 00004 7573 00           466           STAQ      4,,AUTOPR
   000363                              467  NULL5C4  NULL
   000363    2 00001 6353 13           468           EAA       1+0,3,AUTOPR        CALCULATE NEW 'NEXT'
   000364    2 00003 1153 12           469           CMPA      1+2,2,AUTOPR        IS THERE ROOM?
   000365    2 00002 7553 00           470           STA       2,,AUTOPR
   000366    000001 6022 10            471           TNC       1,0
   000367 (0)000676 7102 00            472           TRA       ALLOCGO
                                       473  *
 11:16 01/06/95  FILE=XBC$CSEQU:a.:XBC3TSI                                                               19   BMAP - B00
                                       474           ALIGN     4
   000370                              475  NULL5    NULL
   000370 (0)000415 7102 00            476           TRA       NULL50
   000371 (0)000410 7102 00            477           TRA       NULL51
   000372 (0)000404 7102 00            478           TRA       NULL52
   000373 (0)000376 7102 00            479           TRA       NULL53
   000374  X 000000 2362 07            480           LDQ       NULLSID,DL
   000375 (0)000353 7102 00            481           TRA       NULL5001
                                       482  *
                                       483           EVEN
   000376                              484  NULL53   NULL
   000376 (3)000000 2372 00            485           LDAQ      NILPTR
   000377    2 00010 7563 00           486           STQ       8,,AUTOPR
   000400 (0)000355 7102 00            487           TRA       NULL5C0
                                       488  *
                                       489           ALIGN     4
   000404                              490  NULL52   NULL
   000404 (3)000000 2372 00            491           LDAQ      NILPTR
   000405    2 00010 7563 00           492           STQ       8,,AUTOPR
   000406 (0)000356 7102 00            493           TRA       NULL5C1
                                       494  *
                                       495           ALIGN     4
   000410                              496  NULL51   NULL
   000410 (3)000000 2372 00            497           LDAQ      NILPTR
   000411    2 00006 7573 00           498           STAQ      6,,AUTOPR
   000412    2 00005 7563 00           499           STQ       5,,AUTOPR
   000413 (0)000360 7102 00            500           TRA       NULL5C2
                                       501  *
                                       502           ALIGN     1
   000415                              503  NULL50   NULL
   000415 (3)000000 2372 00            504           LDAQ      NILPTR
   000416    000000 2232 10            505           LDX3      0,0
   000417    2 00006 7573 00           506           STAQ      6,,AUTOPR
   000420    2 00004 7573 00           507           STAQ      4,,AUTOPR
   000421    2 00010 7563 00           508           STQ       8,,AUTOPR
   000422 (0)000363 7102 00            509           TRA       NULL5C4

 11:16 01/06/95  FILE=XBC$CSEQU:a.:XBC3TSI                                                               20   BMAP - B00
                                       510           EJECT
                                       511  *
                                       512           ALIGN     4
   000424                              513  _XBC_AUTO_N NULL
   000424    2 00002 3223 00           514           LCX2      2,,AUTOPR           NEG NEXT FRAME OFFSET
   000425    2 00001 5276 12           515           SWDX      1+0,2,AUTOPR        'NEXT' IS NOW CURRENT
   000426    2 00001 2373 12           516           LDAQ      1+0,2,AUTOPR        GET OLD 'NEG CURRENT' ->A
                                       517  *                                      0, PL6 FLAG ->Q
   000427    2 00000 7573 00           518           STAQ      0,,AUTOPR           'NEG CURRENT'->'NEG PREV'
                                       519  *                                      SET EXTENSION, FLAG
   000430    000000 2362 10            520           LDQ       0,0                 SIZE OF THIS FRAME,#PARMS
   000431                              521  GOTQ     NULL
   000431    2 00000 7413 00           522           STX1      0,,AUTOPR           SAVE ALTRET ADDR
   000432    2 00001 6353 02           523           EAA       1+0,QU,AUTOPR       CALCULATE NEW 'NEXT'
   000433    2 00001 4423 12           524           SXL2      1+0,2,AUTOPR        SET 'NEG CURRENT'
   000434                              525  TESTN    NULL
   000434    000000 6232 06            526           EAX3      0,QL                # PARAMS EXPECTED
   000435    2 00003 1153 12           527           CMPA      1+2,2,AUTOPR        IS THERE ROOM?
   000436 (0)000520 6032 00            528           TRC       ALLOCN              NEED SPACE
   000437    000000 6242 06            529           EAX4      0,QL
   000440    000004 0642 03            530           ADX4      PARMS_,DU
   000441    2 00003 4507 00           531           STP0      3,,AUTOPR
   000442    2 00002 7553 00           532           STA       2,,AUTOPR           SET NEXT FRAME
   000443    1 00000 1233 00           533           SBLX3     0,,DESCLISTPR       CHECK AGAINST # OF ARGS
   000444 (0)000454 6056 00            534           TPNZ      NULLN
   000445    000002 7362 00            535           QLS       2                   BYTES TO MOVE TO Q
   000446    000 0 140 1007 40         536           MLR       (1,1),(1,1)
   000447    0 00000 0 0 0 0006        537           ADSC9     0,,Q,PTRLISTPR
   000450    2 00004 0 0 0 0006        538           ADSC9     4,,Q,AUTOPR
   000451    000001 7102 10            539           TRA       1,0
                                       540  *
                                       541           ALIGN     4
   000454                              542  NULLN    NULL
   000454    1 00000 2363 00           543           LDQ       0,,DESCLISTPR
   000455    1 00000 2353 00           544           LDA       0,,DESCLISTPR
   000456    000020 7322 00            545           QRS       16
   000457    000 0 140 1007 40         546           MLR       (1,1),(1,1)
 11:16 01/06/95  FILE=XBC$CSEQU:a.:XBC3TSI                                                               21   BMAP - B00
   000460    0 00000 0 0 0 0006        547           ADSC9     0,,Q,PTRLISTPR
   000461    2 00004 0 0 0 0006        548           ADSC9     4,,Q,AUTOPR
   000462  X 000000 2362 07            549           LDQ       NULLSID,DL
   000463    2 00004 7563 01           550           STQ       2+2,AU,AUTOPR
   000464    000002 1032 03            551           CMPX3     2,DU
   000465    000001 6042 10            552           TMI       1,0
   000466    2 00005 7563 01           553           STQ       3+2,AU,AUTOPR
   000467    000001 6002 10            554           TZE       1,0
   000470    2 00006 7563 01           555           STQ       4+2,AU,AUTOPR
   000471    000004 1032 03            556           CMPX3     4,DU
   000472    000001 6042 10            557           TMI       1,0
   000473    2 00007 7563 01           558           STQ       5+2,AU,AUTOPR
   000474    000001 6002 10            559           TZE       1,0
   000475    2 00010 7563 01           560           STQ       6+2,AU,AUTOPR
   000476    000006 1232 03            561           SBLX3     6,DU
   000477    000001 6042 10            562           TMI       1,0
   000500    2 00011 7563 01           563           STQ       7+2,AU,AUTOPR
   000501    000001 6002 10            564           TZE       1,0
   000502    2 00002 6337 01           565           EPPR      3,2,AU,AUTOPR
   000503    3 00007 7563 13           566           STQ       7,3,3
   000504    000001 1232 03            567           SBLX3     1,DU
   000505    777776 6056 04            568           TPNZ      -2,IC
   000506    000001 7102 10            569           TRA       1,0

 11:16 01/06/95  FILE=XBC$CSEQU:a.:XBC3TSI                                                               22   BMAP - B00
                                       570           EJECT
                                       571  *
   000507                              572  _XBC_AUTO_Q NULL
   000507    2 00002 3223 00           573           LCX2      2,,AUTOPR           NEG NEXT FRAME OFFSET
   000510    2 00001 5276 12           574           SWDX      1+0,2,AUTOPR        'NEXT' IS NOW CURRENT
   000511    2 00002 7563 00           575           STQ       2,,AUTOPR
   000512    2 00001 2373 12           576           LDAQ      1+0,2,AUTOPR        GET OLD 'NEG CURRENT' ->A
                                       577  *                                      0, PL6 FLAG ->Q
   000513    2 00000 7573 00           578           STAQ      0,,AUTOPR           'NEG CURRENT'->'NEG PREV'
                                       579  *                                      SET EXTENSION, FLAG
   000514    2 00002 2363 00           580           LDQ       2,,AUTOPR
   000515    000001 0362 03            581           ADLQ      1,DU                ROUND TO INSURE EVEN
   000516 (3)000112 3762 00            582           ANQ       EVENUPPERMASK
   000517 (0)000431 7102 00            583           TRA       GOTQ

 11:16 01/06/95  FILE=XBC$CSEQU:a.:XBC3TSI                                                               23   BMAP - B00
                                       584           EJECT
                                       585  *
                                       586  *
   000520                              587  ALLOCN   NULL
   000520    2 00002 7553 00           588           STA       2,,AUTOPR
   000521    2 00003 4507 00           589           STP0      3,,AUTOPR
   000522 (0)000701 7042 00            590           TSX4      _XBC_AUTO_ALLOC
   000523 (0)000652 7102 00            591           TRA       AUTONOTAVAIL
   000524    2 00003 4707 00           592           LDP0      3,,AUTOPR
   000525 (0)000434 7102 00            593           TRA       TESTN

 11:16 01/06/95  FILE=XBC$CSEQU:a.:XBC3TSI                                                               24   BMAP - B00
                                       594           EJECT
                                       595  *
                                       596  *D*
                                       597  *D* _XBC_PREGS_1,_XBC_PREGS_2,_XBC_PREGS_3
                                       598  *D*                Prepares arg pointers (or NIL) in
                                       599  *D*                PR1, PR1 AND PR3, OR PR1 AND PR3 AND PR4
                                       600  *D*                respectively. Uses X0,X1,X2
                                       601  *D*                Call:TSX0 _XBC_ PREGS_n
                                       602  *D*                     ZERO 0,number of args
                                       603  *D*                     ...
                                       604  *D*
                                       605  *
                                       606           ALIGN     4
   000530                              607  _XBC_PREGS_1 NULL
   000530    1 00000 2223 00           608           LDX2      0,,DESCLISTPR
   000531 (0)000547 6002 00            609           TZE       NULL1PR
   000532    0 00000 4717 00           610           LDP1      0,,PTRLISTPR
   000533    000001 7102 10            611           TRA       1,0

 11:16 01/06/95  FILE=XBC$CSEQU:a.:XBC3TSI                                                               25   BMAP - B00
                                       612           EJECT
                                       613  *
                                       614           ALIGN     4
   000534                              615  _XBC_PREGS_2 NULL
   000534    1 00000 2223 00           616           LDX2      0,,DESCLISTPR
   000535    000001 1022 03            617           CMPX2     1,DU
   000536 (0)000542 6046 00            618           TMOZ      NULL2PR
   000537    0 00000 4717 00           619           LDP1      0,,PTRLISTPR
   000540    0 00001 4737 00           620           LDP3      1,,PTRLISTPR
   000541    000001 7102 10            621           TRA       1,0
                                       622  *
   000542                              623  NULL2PR  NULL
   000542 (0)000546 6042 00            624           TMI       NULL2PR0
   000543    0 00000 4717 00           625           LDP1      0,,PTRLISTPR
   000544  X 000000 4736 07            626           LDP3      NULLSID,DL
   000545    000001 7102 10            627           TRA       1,0
   000546                              628  NULL2PR0 NULL
   000546  X 000000 4736 07            629           LDP3      NULLSID,DL
   000547                              630  NULL1PR  NULL
   000547  X 000000 4716 07            631           LDP1      NULLSID,DL
   000550    000001 7102 10            632           TRA       1,0

 11:16 01/06/95  FILE=XBC$CSEQU:a.:XBC3TSI                                                               26   BMAP - B00
                                       633           EJECT
                                       634  *
                                       635           ALIGN     4
   000554                              636  _XBC_PREGS_3 NULL
   000554    1 00000 2223 00           637           LDX2      0,,DESCLISTPR
   000555    000002 1022 03            638           CMPX2     2,DU
   000556 (0)000565 6046 00            639           TMOZ      NULL3PR
   000557    0 00000 4717 00           640           LDP1      0,,PTRLISTPR
   000560    0 00001 4737 00           641           LDP3      1,,PTRLISTPR
   000561    0 00002 4747 00           642           LDP4      2,,PTRLISTPR
   000562    000001 7102 10            643           TRA       1,0
   000563                              644  NULL3PR0 NULL
   000563  X 000000 4716 07            645           LDP1      NULLSID,DL
   000564 (0)000575 7102 00            646           TRA       NULL3PR1
   000565                              647  NULL3PR  NULL
   000565 (0)000572 6042 00            648           TMI       NULL3PR0OR1
   000566    0 00000 4717 00           649           LDP1      0,,PTRLISTPR
   000567    0 00001 4737 00           650           LDP3      1,,PTRLISTPR
   000570  X 000000 4746 07            651           LDP4      NULLSID,DL
   000571    000001 7102 10            652           TRA       1,0
                                       653  *
                                       654           EVEN
   000572                              655  NULL3PR0OR1 NULL
   000572    000000 0622 03            656           ADX2      0,DU
   000573 (0)000563 6002 00            657           TZE       NULL3PR0
   000574    0 00000 4717 00           658           LDP1      0,,PTRLISTPR
   000575                              659  NULL3PR1 NULL
   000575  X 000000 4736 07            660           LDP3      NULLSID,DL
   000576  X 000000 4746 07            661           LDP4      NULLSID,DL
   000577    000001 7102 10            662           TRA       1,0

 11:16 01/06/95  FILE=XBC$CSEQU:a.:XBC3TSI                                                               27   BMAP - B00
                                       663           EJECT
                                       664  *D*
                                       665  *D* _XBC_FARET,_XBC_FAALT Normal and alternate return routines for
                                       666  *D*                function procedures which require that EAQ and
                                       667  *D*                X0 be returned to caller. Uses X1 and X3.
                                       668  *D*
                                       669  *
                                       670           ALIGN     4
   000600                              671  _XBC_FARET NULL
   000600    2 00000 7233 00           672           LXL3      0,,AUTOPR
   000601    2 00000 2213 00           673           LDX1      0,,AUTOPR
   000602    2 00001 5276 13           674           SWDX      1+0,3,AUTOPR
   000603    2 00001 4433 13           675           SXL3      1+0,3,AUTOPR
   000604    000001 7102 11            676           TRA       1,1
                                       677  *
   000605                              678  _XBC_FAALT NULL
   000605    2 00000 7233 00           679           LXL3      0,,AUTOPR
   000606    2 00000 2213 00           680           LDX1      0,,AUTOPR
   000607    2 00001 5276 13           681           SWDX      1+0,3,AUTOPR
   000610    2 00001 4433 13           682           SXL3      1+0,3,AUTOPR
   000611    000000 7102 11            683           TRA       0,1

 11:16 01/06/95  FILE=XBC$CSEQU:a.:XBC3TSI                                                               28   BMAP - B00
                                       684           EJECT
                                       685  *D*
                                       686  *D* _XBC_MAUTO, _XBC_MSTATIC   These routines should be called to
                                       687  *D*                initialize AUTO storage for any program.
                                       688  *D*                If the need is only to initialize AUTO for
                                       689  *D*                possible future use, _XBC_MSTATIC should be called
                                       690  *D*                If, however, the calling procedure needs AUTO
                                       691  *D*                storage, _XBC_MAUTO should be invoked.
                                       692  *D*                In either case return is: TRA 1,X0.
                                       693  *D*                The following word is assumed to be a data word.
                                       694  *D*                For _XBC_MAUTO it must contain the size of desired
                                       695  *D*                frame in LH of word following TSX0.
                                       696  *D*                First all storage in the AUTO segment is released.
                                       697  *D*                Then the AUTO segment is allocated to desired size.
                                       698  *D*                Call:TSX0 _XBC_Mxxx
                                       699  *D*                     ZERO frame size,0
                                       700  *D*                     ...
                                       701  *D*                CAUTION: Frame size must be even.
                                       702  *D*                Uses:X0, X1, X2, X3, X4, PR0, PR2
                                       703  *D*
                                       704  *
   000612                              705  _XBC_MAUTO NULL
   000612 (0)000627 7022 00            706           TSX2      INITAUTO
   000613    000000 2242 10            707           LDX4      0,0
   000614    000004 1242 03            708           SBLX4     4,DU                FRAME SET FOR STAT OR AUTO
   000615    2 00002 0243 00           709           ADLX4     2,,AUTOPR
   000616    2 00002 7443 00           710           STX4      2,,AUTOPR
   000617    2 77776 1043 00           711           CMPX4     -2,,AUTOPR
   000620    000001 6022 11            712           TNC       1,1
   000621    2 00002 2353 00           713           LDA       2,,AUTOPR
   000622    2 77774 7223 00           714           LXL2      -4,,AUTOPR
   000623 (0)000701 7042 00            715           TSX4      _XBC_AUTO_ALLOC
   000624 (0)000652 7102 00            716           TRA       AUTONOTAVAIL
   000625    000001 7102 11            717           TRA       1,1

 11:16 01/06/95  FILE=XBC$CSEQU:a.:XBC3TSI                                                               29   BMAP - B00
                                       718           EJECT
                                       719  *
   000626                              720  _XBC_MSTATIC NULL
   000626    000001 6222 11            721           EAX2      1,1
   000627 (3)000030 6306 00            722  INITAUTO EPPR0     GDSFPT64
   000630    430002 7134 00            723           PMME      FDS,2
   000631    1 001 000 40 1760
   000632    000002 7102 04            724           TRA       2,IC
   000633 (0)000627 7102 00            725           TRA       INITAUTO            RELEASE UNTIL ALL GONE
   000634 (3)000014 6306 00            726           EPPR0     GDSFPT
   000635    430001 7134 00            727           PMME      GDS,2
   000636    1 001 000 40 1760
   000637 (0)000652 7102 00            728           TRA       AUTONOTAVAIL
   000640  X 000000 4726 07            729           LDP       AUTOPR,DS1SID,DL
   000641    000 0 100 1006 00         730           MLR       ,(1)
   000642 (3)000004 0 0 0 0040         731           ADSC9     FRAME1,0,32
   000643    2 00000 0 0 0 0040        732           ADSC9     0,0,32,AUTOPR
   000644    2 00004 5077 00           733           AWD       4,,AUTOPR
   000645    2 00002 4403 00           734           SXL0      2,,AUTOPR           SAVE WHO THIS FRAME IS
   000646    000400 2232 03            735           LDX3      ALLOC,DU
   000647    2 77776 0233 00           736           ADLX3     -2,,AUTOPR
   000650    2 77776 7433 00           737           STX3      -2,,AUTOPR
   000651    000000 7102 12            738           TRA       0,2

 11:16 01/06/95  FILE=XBC$CSEQU:a.:XBC3TSI                                                               30   BMAP - B00
                                       739           EJECT
   000652                              740  AUTONOTAVAIL NULL
   000652 (3)000042 6306 00            741           EPPR0     WAUTONOTAVAIL
   000653    040001 7134 00            742           PMME      WRITE,3             PUT OUT ERROR MSG
   000654    1 002 000 40 1760
   000655  X 000000 4726 07            743           LDP       AUTOPR,DS1SID,DL
   000656    2 00002 7223 00           744           LXL2      2,,AUTOPR
   000657 (0)000664 6002 00            745           TZE       AUTOABORT
   000660    777773 2212 03            746           LDX1      -5,DU
   000661    2 00000 4413 00           747           SXL1      0,,AUTOPR
   000662    2 00004 5077 00           748           AWD       4,,AUTOPR
   000663    000000 7102 12            749           TRA       0,X2
   000664                              750  AUTOABORT NULL
   000664    000003 7134 00            751           PMME      XXX,0               AND ABORT
   000665    0 000 000 40 1760
                                       752  *
                                       753  *
                                       754  *
                                       755  *D*
                                       756  *D*_XBC_AUTO_EX is provided to give the user program control when it is not
                                       757  *D*possible to allocate sufficient AUTOmatic storage due to authorization
                                       758  *D*restrictions or the AUTO segment being full. This must be used with care
                                       759  *D*and is restricted to being callable from the main program only. This
                                       760  *D*subroutine is used as follows:
                                       761  *D*
                                       762  *D*         CALL _XBC_AUTO_EX ALTRET (auto_failure_label);
                                       763  *D*
                                       764  *D*The subroutine will check if the current auto pointer indicates that
                                       765  *D*a MAIN procedure is active, and if so, will remember the ALTRET label
                                       766  *D*for later use. At such time as we are unable to allocate auto, the
                                       767  *D*auto frame for the MAIN procedure will be activated and control will be
                                       768  *D*transferred to the previously specified ALTRET address. The process is
                                       769  *D*analagous to unwinding to the altret label.
                                       770  *D*
                                       771  *D*If _XBC_AUTO_EX is called with no ALTRET label, any previously remembered
                                       772  *D*label will be forgotten.
                                       773  *D*
 11:16 01/06/95  FILE=XBC$CSEQU:a.:XBC3TSI                                                               31   BMAP - B00
   000666                              774  _XBC_AUTO_EX NULL
   000666  X 000000 4716 07            775           LDP1      DS1SID,DL
   000667    000000 2202 11            776           LDX0      0,1
   000670 (0)000674 6002 00            777           TZE       CANCEL
   000671    2 00000 6223 00           778           EAX2      0,,2
   000672    000004 1022 03            779           CMPX2     4,DU
   000673    000001 6012 11            780           TNZ       1,1
   000674                              781  CANCEL   NULL
   000674    1 00002 4403 00           782           SXL0      2,,1
   000675    000001 7102 11            783           TRA       1,1
                                       784  *
                                       785  *                                      ENTRY TO ALLOC, THEN DONE
   000676 (0)000701 7042 00            786  ALLOCGO  TSX4      _XBC_AUTO_ALLOC
   000677 (0)000652 7102 00            787           TRA       AUTONOTAVAIL
   000700    000001 7102 10            788           TRA       1,0

 11:16 01/06/95  FILE=XBC$CSEQU:a.:XBC3TSI                                                               32   BMAP - B00
                                       789           EJECT
                                       790  *
                                       791  *D*
                                       792  *D* _XBC_AUTO_ALLOC Allocate space in AUTO segment as dictated
                                       793  *D*                by requirements of current frame header (next
                                       794  *D*                frame offset) as compared to AUTO BASE (limit
                                       795  *D*                offset).
                                       796  *D*                Call:TSX4 _XBC_AUTO_ALLOC
                                       797  *D*                     can't get
                                       798  *D*                     ...
                                       799  *D*                Assume: X2=-(current frame offset+1)
                                       800  *D*                        A=contents(2,,PR2)
                                       801  *D*                Uses:X3, X4
                                       802  *D*
                                       803  *
   000701                              804  _XBC_AUTO_ALLOC NULL
   000701    2 00004 4507 12           805           STP0      4,2,AUTOPR
   000702                              806  _XBC_GETSP1 NULL
   000702    2 00003 1353 12           807           SBLA      1+2,2,AUTOPR
   000703    037400 1152 03            808           CMPA      ALLOC*63,DU
   000704 (0)000710 6022 00            809           TNC       TRY16
   000705 (3)000030 6306 00            810           EPPR0     GDSFPT64
   000706    040000 2232 03            811           LDX3      ALLOC*64,DU
   000707 (0)000723 7102 00            812           TRA       DOGDS
   000710    007400 1152 03            813  TRY16    CMPA      ALLOC*15,DU
   000711 (0)000715 6022 00            814           TNC       TRY4
   000712 (3)000024 6306 00            815           EPPR0     GDSFPT16
   000713    010000 2232 03            816           LDX3      ALLOC*16,DU
   000714 (0)000723 7102 00            817           TRA       DOGDS
   000715 (3)000020 6306 00            818  TRY4     EPPR0     GDSFPT4
   000716    002000 2232 03            819           LDX3      ALLOC*4,DU
   000717    001400 1152 03            820           CMPA      ALLOC*3,DU
   000720 (0)000723 6032 00            821           TRC       DOGDS
   000721 (3)000014 6306 00            822           EPPR0     GDSFPT
   000722    000400 2232 03            823           LDX3      ALLOC,DU
   000723    2 00002 2353 00           824  DOGDS    LDA       2,,AUTOPR
   000724    430001 7134 00            825           PMME      GDS,2               TRY TO GET SPACE
 11:16 01/06/95  FILE=XBC$CSEQU:a.:XBC3TSI                                                               33   BMAP - B00
   000725    1 001 000 40 1760
   000726    000000 7102 14            826           TRA       0,4       CAN'T
   000727    2 00003 0233 12           827           ADLX3     1+2,2,AUTOPR        UPDATE LAST FRAME
   000730    2 00003 7433 12           828           STX3      1+2,2,AUTOPR
   000731    2 00003 1153 12           829           CMPA      1+2,2,AUTOPR        RECHECK IF ENOUGH
   000732 (0)000702 6032 00            830           TRC       _XBC_GETSP1
                                       831  *                                      NOW MUST REFRESH DR'S TO
                                       832  *                                      PROPER VALUES IN CASE ALLOC
                                       833  *                                      CAUSED PAGE TABLE SHIFT
                                       834  *                                      AND TO GET NEW BOUND OF AUTO
                                       835  *                                      ALSO RESTORE PR0 TO PTRLIST
   000733    2 00004 4707 12           836           LDP0      4,2,AUTOPR
   000734    2 00004 4517 12           837           STP1      4,2,AUTOPR
   000735    2 00004 4717 12           838           LDP1      4,2,AUTOPR
   000736    2 00004 4527 12           839           STP2      4,2,AUTOPR
   000737    2 00004 4727 12           840           LDP2      4,2,AUTOPR
   000740    2 00004 4537 12           841           STP3      4,2,AUTOPR
   000741    2 00004 4737 12           842           LDP3      4,2,AUTOPR
   000742    2 00004 4547 12           843           STP4      4,2,AUTOPR
   000743    2 00004 4747 12           844           LDP4      4,2,AUTOPR
   000744    2 00004 4557 12           845           STP5      4,2,AUTOPR
   000745    2 00004 4757 12           846           LDP5      4,2,AUTOPR
   000746    2 00004 4567 12           847           STP6      4,2,AUTOPR
   000747    2 00004 4767 12           848           LDP6      4,2,AUTOPR
   000750    2 00004 4577 12           849           STP7      4,2,AUTOPR
   000751    2 00004 4777 12           850           LDP7      4,2,AUTOPR
   000752    000001 7102 14            851           TRA       1,4                 RESUME

 11:16 01/06/95  FILE=XBC$CSEQU:a.:XBC3TSI                                                               34   BMAP - B00
                                       852           EJECT
                                       853  *
                                       854  *D* _XBC_REL_AUTO   Externally callable routine to
                                       855  *D*                release all of the auto segment
                                       856  *D*                not currently in use.
                                       857  *D*                Call: CALL _XBC_REL_AUTO
                                       858  *D*
                                       859  *
   000753                              860  _XBC_REL_AUTO NULL
   000753  X 000000 4716 07            861           LDP       1,DS1SID,DL
   000754    1 00002 2363 00           862           LDQ       2,,1
   000755    2 00002 1363 00           863           SBLQ      2,,2
   000756 (3)000030 6306 00            864           EPPR0     GDSFPT64
   000757    040000 3232 03            865           LCX3      ALLOC*64,DU
   000760    040000 1162 03            866           CMPQ      ALLOC*64,DU
   000761 (0)000776 6032 00            867           TRC       DOFDS
   000762 (3)000024 6306 00            868           EPPR0     GDSFPT16
   000763    010000 3232 03            869           LCX3      ALLOC*16,DU
   000764    010000 1162 03            870           CMPQ      ALLOC*16,DU
   000765 (0)000776 6032 00            871           TRC       DOFDS
   000766 (3)000020 6306 00            872           EPPR0     GDSFPT4
   000767    002000 3232 03            873           LCX3      ALLOC*4,DU
   000770    002000 1162 03            874           CMPQ      ALLOC*4,DU
   000771 (0)000776 6032 00            875           TRC       DOFDS
   000772 (3)000014 6306 00            876           EPPR0     GDSFPT
   000773    000400 3232 03            877           LCX3      ALLOC,DU
   000774    000400 1162 03            878           CMPQ      ALLOC,DU
   000775    000001 6022 11            879           TNC       1,1
   000776    430002 7134 00            880  DOFDS    PMME      FDS,2
   000777    1 001 000 40 1760
   001000    000000 0112 00            881           NOP
   001001    1 00002 0233 00           882           ADLX3     2,,1
   001002    1 00002 7433 00           883           STX3      2,,1
   001003 (0)000753 7102 00            884           TRA       _XBC_REL_AUTO

 11:16 01/06/95  FILE=XBC$CSEQU:a.:XBC3TSI                                                               35   BMAP - B00
                                       885           EJECT
                                       886  *D*
                                       887  *D* _XBC_FRAME_EXT  Extend the current AUTO frame.
                                       888  *D*                Desired size in X1 (may be even or odd).
                                       889  *D*                Put the offset into left half of word 1.
                                       890  *D*                Return 1,X0.
                                       891  *D*                Return 0,X0 if cannot allocate.
                                       892  *D*                Use X1, X2, X3, X4, A.
                                       893  *D*                CAUTION: Multiple extensions lose value of previous
                                       894  *D*                (no automatic nest) but all storage goes away when
                                       895  *D*                current active procedure exits.
                                       896  *D*
                                       897  *D* _XBC_FRAME_KEXT Undo current frame extension.
                                       898  *D*                Put ext offset back as next frame offset.
                                       899  *D*                Put 0 in ext offset
                                       900  *D*
   001004                              901  _XBC_FRAME_EXT NULL
   001004    000000 6352 11            902           EAA       0,1
   001005    2 00002 2213 00           903           LDX1      2,,AUTOPR
   001006    000001 1212 03            904           SBLX1     1,DU
   001007    2 00001 7413 00           905           STX1      1,,AUTOPR           SAVE EXTENSION OFFSET
   001010    2 00002 0353 00           906           ADLA      2,,AUTOPR
   001011    000001 2752 03            907           ORA       =1,DU               INSURE NEXT FRAME EVEN, ODDLY
   001012    2 00000 6213 00           908           EAX1      0,,AUTOPR
   001013    2 00001 5276 11           909           SWDX      1,1,AUTOPR
   001014    2 00000 6223 00           910           EAX2      0,,AUTOPR           NEG (CURR OFFSET+1)
   001015    2 00000 5076 11           911           AWDX      0,1,AUTOPR          MAKE AUTO RIGHT
   001016    2 00002 7553 00           912           STA       2,,AUTOPR           SET NEXT FRAME ADDR
   001017    2 00003 1153 12           913           CMPA      1+2,2,AUTOPR        CHECK IF SPACE AVAIL
   001020    000001 6022 10            914           TNC       1,0
   001021 (0)000701 7042 00            915           TSX4      _XBC_AUTO_ALLOC
   001022    000000 7102 10            916           TRA       0,0
   001023    000001 7102 10            917           TRA       1,0
                                       918  *
   001024                              919  _XBC_FRAME_KEXT NULL
   001024    2 00001 2213 00           920           LDX1      1,,AUTOPR
   001025    2 00001 1413 00           921           SSX1      1,,AUTOPR
 11:16 01/06/95  FILE=XBC$CSEQU:a.:XBC3TSI                                                               36   BMAP - B00
   001026    000001 0212 03            922           ADLX1     1,DU
   001027    2 00002 7413 00           923           STX1      2,,AUTOPR
   001030    000001 7102 10            924           TRA       1,0

 11:16 01/06/95  FILE=XBC$CSEQU:a.:XBC3TSI                                                               37   BMAP - B00
                                       925           EJECT
                                       926  *D*
                                       927  *D* _XBC_AAUTO,_XBC_ASTATIC    Routines to be invoked by ASYNC procedures
                                       928  *D*                with AUTO and NOAUTO attribute, respectively.
                                       929  *D*                Usage is same as _XBC_AUTO_0 and _XBC_STATIC_0.
                                       930  *D*
                                       931  *
   001031                              932  _XBC_AAUTO NULL
   001031  X 000000 4726 07            933           LDP       AUTOPR,DS1SID,DL    GET TO BASE OF AUTO
   001032    2 00000 7223 00           934           LXL2      0,,AUTOPR           FIND CURRENT FRAME
   001033    2 00001 5276 12           935           SWDX      1+0,2,AUTOPR        AND ACTIVATE IT
   001034    2 00002 3223 00           936           LCX2      2,,AUTOPR           BEGINNING OF _XBC_AUTO_0
   001035    2 00001 5276 12           937           SWDX      1+0,2,AUTOPR        NEW FRAME
   001036    2 00001 2373 12           938           LDAQ      1+CURR_,2,AUTOPR    GET OLD 'NEG CURRENT' ->A
                                       939  *                                      0, PL6 FLAG ->Q
   001037    777777 3752 07            940           ANA       =O777777,DL         0 TO ALTRET ADDRESS
   001040    2 00000 7573 00           941           STAQ      PREV_,,AUTOPR       'NEG CURRENT'->'NEG PREV'
                                       942  *                                      SET EXTENSION, FLAG
   001041    000000 2232 10            943           LDX3      0,0                 SIZE OF THIS FRAME
   001042    2 00001 6353 13           944           EAA       1+0,3,AUTOPR        CALCULATE NEW 'NEXT'
   001043    2 00001 4423 12           945           SXL2      1+CURR_,2,AUTOPR    SET 'NEG CURRENT'
   001044    2 00002 7553 00           946           STA       NEXT_,,AUTOPR       SET NEXT FRAME
   001045    2 00002 4403 00           947           SXL0      2,,AUTOPR           SAVE WHO THIS FRAME IS
   001046    2 00003 1153 12           948           CMPA      1+LIMIT_,2,AUTOPR   IS THERE ROOM?
   001047    000001 6022 10            949           TNC       1,0                 ENUF ROOM, GO
   001050 (0)000676 7102 00            950           TRA       ALLOCGO
                                       951  *
                                       952  *
   001051                              953  _XBC_ASTATIC NULL
   001051  X 000000 4726 07            954           LDP       AUTOPR,DS1SID,DL
   001052    2 00000 7223 00           955           LXL2      0,,AUTOPR
   001053    2 00001 5276 12           956           SWDX      1+0,2,AUTOPR
   001054    000000 2232 10            957           LDX3      0,0                 ADDRESS OF FRAME
   001055    000000 4502 13            958           STZ       0,3
   001056    000000 4402 13            959           SXL0      0,3                 MARK IT FOR DELTA
   001057    000001 7102 10            960           TRA       1,0

 11:16 01/06/95  FILE=XBC$CSEQU:a.:XBC3TSI                                                               38   BMAP - B00
                                       961           EJECT
                                       962  *D*
                                       963  *D* _XBC_MARET,_XBC_MSRET,_XBC_MAALT,_XBC_MSALT
                                       964  *D* _XBC_AARET,_XBC_ASRET,_XBC_AAALT,_XBC_ASALT
                                       965  *D*                Routines for return and altreturn from main and
                                       966  *D*                async procedures.
                                       967  *D*                Invoked by TRA or TSX2 (no return).
                                       968  *D*
                                       969  *
   001060                              970  _XBC_MARET NULL
   001060                              971  _XBC_MSRET NULL
   001060    000001 7134 00            972           PMME      EXIT,0
   001061    0 000 000 40 1760
                                       973  *
                                       974  *
   001062                              975  _XBC_MAALT NULL
   001062                              976  _XBC_MSALT NULL
   001062    000002 7134 00            977           PMME      ERR,0
   001063    0 000 000 40 1760
                                       978  *
                                       979  *
   001064                              980  _XBC_AARET NULL
   001064    2 00000 2363 00           981           LDQ       0,,AUTOPR           MUST RESET 'NEG CUR FRAME'
   001065    2 00001 5276 06           982           SWDX      1+0,QL,AUTOPR
   001066    2 00001 7563 06           983           STQ       1+0,QL,AUTOPR
   001067                              984  _XBC_ASRET NULL
   001067    010012 7134 00            985           PMME      TRTN,0
   001070    0 000 000 40 1760
                                       986  *
                                       987  *
   001071                              988  _XBC_AAALT NULL
   001071    2 00000 2363 00           989           LDQ       0,,AUTOPR
   001072    2 00001 5276 06           990           SWDX      1+0,QL,AUTOPR
   001073    2 00001 7563 06           991           STQ       1+0,QL,AUTOPR
   001074                              992  _XBC_ASALT NULL
   001074    010014 7134 00            993           PMME      MERCS,0
   001075    0 000 000 40 1760
 11:16 01/06/95  FILE=XBC$CSEQU:a.:XBC3TSI                                                               39   BMAP - B00
                                       994  *D*
                                       995  *D* _XBC_TRTN,_XBC_MERCS
                                       996  *D*
                                       997  *D*                These two callable subroutines are provided
                                       998  *D*                to allow ASYNC procedures which must execute
                                       999  *D*                M$TRTN or M$MERCS with FPT's rather than
                                      1000  *D*                RETURN or ALTRETURN. The AUTO base is reset
                                      1001  *D*                from PR2 in the TCB frame being removed
                                      1002  *D*                properly, then the appropriate monitor service
                                      1003  *D*                is invoked with the passed FPT.
                                      1004  *D*
                                      1005  *
   001076                             1006  _XBC_TRTN NULL
   001076 (0)001112 7002 00           1007           TSX0      SETCUR
   001077    1 00000 2203 00          1008           LDX0      0,,1
   001100 (0)001067 6002 00           1009           TZE       _XBC_ASRET           NOTHING PASSED
   001101    0 00000 4707 00          1010           LDP0      0,,0
   001102    010012 7134 00           1011           PMME      TRTN,3
   001103    1 002 000 40 1760
                                      1012  *
                                      1013  *
   001104                             1014  _XBC_MERCS NULL
   001104 (0)001112 7002 00           1015           TSX0      SETCUR
   001105    1 00000 2203 00          1016           LDX0      0,,1
   001106 (0)001074 6002 00           1017           TZE       _XBC_ASALT           NOTHING PASSED
   001107    0 00000 4707 00          1018           LDP0      0,,0
   001110    010014 7134 00           1019           PMME      MERCS,1
   001111    1 000 000 40 1760
                                      1020  *
   001112  X 000000 4736 07           1021  SETCUR   LDP3      TCBSID,DL
   001113    3 00001 4737 00          1022           LDP3      1,,3                TOP STACK FRAME
   001114    3 00022 2353 00          1023           LDA       18,,3               SAVED PR2
   001115    000022 7712 00           1024           ARL       18
   001116    777777 6752 07           1025           ERA       -1,DL               NEG CUR -1
   001117  X 000000 4736 07           1026           LDP3      DS1SID,DL
   001120    3 00000 7553 00          1027           STA       0,,3
   001121    000000 7102 10           1028           TRA       0,0

 11:16 01/06/95  FILE=XBC$CSEQU:a.:XBC3TSI                                                               40   BMAP - B00
                                      1029           EJECT
                                      1030  *D*
                                      1031  *D* _XBC_MAUNWIND,_XBC_MSUNWIND,_XBC_AAUNWIND,_XBC_ASUNWIND,
                                      1032  *D* _XBC_AUNWIND,_XBC_SUNWIND
                                      1033  *D*                MAIN, ASYNC, and callable procedure entries
                                      1034  *D*                to do UNWIND.
                                      1035  *
                                      1036  *D*      A HAS AUTO PTR TO FRAME TO WHICH TO UNWIND
                                      1037  *D*      Q HAS EPTR FORM OF ADDRESS OF WHERE TO GO
                                      1038  *D*
                                      1039  *D*                Call:TSX0 _XBC_xxUNWIND
                                      1040  *D*                     ZERO return here if bad unwind variable.
                                      1041  *D*
                                      1042  *
   001122                             1043  _XBC_MAUNWIND NULL
   001122                             1044  _XBC_MSUNWIND NULL
   001122                             1045  _XBC_AAUNWIND NULL
   001122                             1046  _XBC_ASUNWIND NULL
   001122                             1047  _XBC_AUNWIND NULL
   001122                             1048  _XBC_SUNWIND NULL
   001122    2 00002 2223 00          1049           LDX2      2,,AUTOPR       NEXT FRAME HDR SPACE
   001123    2 00000 6307 00          1050           EPPR0     0,,AUTOPR
   001124    0 00000 5076 12          1051           AWDX      0,2,0
   001125    0 00000 4527 00          1052           STP       AUTOPR,0,,0
   001126    0 00001 7553 00          1053           STA       1,,0
   001127    0 00000 1753 00          1054           SBA       0,,0            VERIFY IF OK
   001130 (0)001140 6056 00           1055           TPNZ      BADUNWIND       BAD IF NON-NEG
   001131 (3)000002 3172 00           1056           CANAQ     LOWMASK
   001132 (0)001140 6012 00           1057           TNZ       BADUNWIND
   001133    0 00001 3223 00          1058           LCX2      1,,0
   001134    000001 1222 03           1059           SBLX2     1,DU
   001135    2 00001 5276 12          1060           SWDX      1+0,2,AUTOPR
   001136    2 00001 4423 12          1061           SXL2      1+0,2,AUTOPR        SET CURRENT FRAME
   001137    000000 7102 02           1062           TRA       0,QU
                                      1063  *
   001140                             1064  BADUNWIND NULL
   001140    0 00000 4727 00          1065           LDP       AUTOPR,0,,0
 11:16 01/06/95  FILE=XBC$CSEQU:a.:XBC3TSI                                                               41   BMAP - B00
   001141 (3)000034 6306 00           1066           EPPR0     WBADUNWIND
   001142    040001 7134 00           1067           PMME      WRITE,3
   001143    1 002 000 40 1760
   001144    000000 7102 10           1068           TRA       0,0                 WRITE ERRMSG, THEN GO ZOP

 11:16 01/06/95  FILE=XBC$CSEQU:a.:XBC3TSI                                                               42   BMAP - B00
                                      1069         EJECT
                                      1070  *D*
                                      1071  *D* _XBC_INDEX      Routine to execute INDEX built in subroutine.
                                      1072  *D*
                                      1073         INHIB   OFF
                                      1074  *D*                            CALL INDEX  C  INTRINSIC HIT.
                                      1075  *D*                            CALL INDEX(RSLT,TINYSTR,BIGSTR,START)
                                      1076  *D*                            ALTRET(NOTFOUND);
                                      1077  *D*                             C  GENERATED IN-LINE CODE WILL
                                      1078  *D*                            SET UP ARGUMENTS, PTR-S, IN REGS--
                                      1079  *D*                            LDP3  ADDR(TINYSTR)
                                      1080  *D*                            LDX3  LENGTHC(TINYSTR)
                                      1081  *D*                            LDP0  ADDR(BIGSTR)
                                      1082  *D*                            LDX0  LENGTHC(BIGSTR)
                                      1083  *D*                            LDQ   START
                                      1084  *D*                            LDP1  ADDR(RSLT)
                                      1085  *D*                            TSX1  6INDEX -- INTIMATE CODE ENTRY.
                                      1086  *D*                            TRA   NOTFOUND
                                      1087  *D*                            ...   NORMAL EXIT, OCCURANCE OF TINYSTR
                                      1088  *D*                                  FOUND WITHIN SUBSTR(BIGSTR,START)
                                      1089  *D*                                  AT CHAR NUMBER (RSLT).
                                      1090  *D*
             000000000003             1091  TINYADDR EQU       3
             000000000003             1092  TINYLEN  EQU       3
             000000000000             1093  BIGADDR  EQU       0
             000000000000             1094  BIGLEN   EQU       0
             000000000001             1095  RSLTADDR EQU       1
                                      1096  *
                                      1097  *                              ROUTINE USES, DESTROYS A-REG, Q-REG.
                                      1098  *                              PR5,PR6,PR7, X5,X6,X7 -- UNTOUCHED.
                                      1099  *                              OTHER PRN -- UNCHANGED.
                                      1100  *                              OTHER XN  -- UNCHANGED.
                                      1101  *
   001145                             1102  _XBC_INDEX NULL
                                      1103  *                              INITIALIZE CONDITION --
                                      1104  *                              Q-REG -- CURRENT -START- VALUE,
                                      1105  *                                    0 .LE. START .LE. LENC(BIGSTR)-1
 11:16 01/06/95  FILE=XBC$CSEQU:a.:XBC3TSI                                                               43   BMAP - B00
                                      1106  *                              A-REG + Q-REG = LENC(BIGSTR)
                                      1107  *                              A-REG -- CHAR-COUNT REMAINING IN BIGSTR
                                      1108  *                                    0 .LE. A-REG .LE. LENC(BIGSTR)
                                      1109  *                              ALSO, INIT -RSLT- TO -START-
   001145    1 00000 7561 00          1110         STQ     0,,RSLTADDR
   001146    000000 6350 10           1111         EAA     ,BIGLEN
   001147    000022 7710 00           1112         ARL     18
   001150    1 00000 1351 00          1113         SBLA    0,,RSLTADDR
                                      1114  *                              BRANCH BASED ON LENC(TINYSTR)
   001151    000003 1030 03           1115         CMPX    TINYLEN,=3,DU
   001152 (0)001177 6030 00           1116         TRC     6IND3           LENC(TINYSTR) .GE. 3
   001153    000001 1030 03           1117         CMPX    TINYLEN,=1,DU
   001154 (0)001165 6054 00           1118         TPNZ    6IND2           LENC(TINYSTR) .EQ. 2
                                      1119  *                              FOR STRANGE CASE LENC(TINYSTR) .EQ. 0,
                                      1120  *                              SEARCH FOR 0-LENGTH NULL STRING,
                                      1121  *                              ASSUME FOUND IMMEDIATELY, AT START.
                                      1122  *                              -RSLT- ALREADY SET TO -START-
                                      1123  *                              NORMAL RETURN, FOUND.
   001155    000001 6040 11           1124         TMI     1,1
                                      1125  *                              LENC(TINYSTR) .EQ. 1.
                                      1126  *                              -SCM- INSTRUC ON SUBSTR(BIGSTR,START)
   001156                             1127  6IND1  NULL
   001156    000 0 100 1245 46        1128         SCM     (1,1,,Q),(1,,,)
   001157    0 00000 0 0 0 0005       1129         ADSC9   0,0,A,BIGADDR   SUBSTR(BIGSTR,START)=0-0,QL,BIGADDR
   001160    3 00000 0 0 0 0001       1130         ADSC9   0,0,1,TINYADDR  TINYSTR=0-0,,TINYADDR LEN=1
   001161    1 00000 0001 00          1131         ARG     0,,RSLTADDR     RSLT=0,,RSLTADDR
                                      1132  *                              0 .LE. RSLT .LE. LENC(SUB(BIGSTR,STRT))
                                      1133  *                              ADJUST SO THAT
                                      1134  *                              START .LE. RSLT .LE. LENC(BIGSTR)
   001162    1 00000 0561 00          1135         ASQ     0,,RSLTADDR
   001163    000001 6070 11           1136         TTF     1,1             IF FOUND, MAKE NORMAL EXIT.
   001164    000000 7100 11           1137         TRA     0,1             IF NOT FOUND, MAKE ALTRETURN EXIT.
                                      1138  *
                                      1139  *                              LENC(TINYSTR) .EQ. 2.
                                      1140  *                              -SCD- INSTRUC ON SUBSTR(BIGSTR,START)
   001165                             1141  6IND2  NULL
   001165    000 0 100 1205 46        1142         SCD     (1,1,,Q),(1,,,)
 11:16 01/06/95  FILE=XBC$CSEQU:a.:XBC3TSI                                                               44   BMAP - B00
   001166    0 00000 0 0 0 0005       1143         ADSC9   0,0,A,BIGADDR   SUBSTR(BIGSTR,START)=0-0,QL,BIGADDR
   001167    3 00000 0 0 0 0002       1144         ADSC9   0,0,2,TINYADDR  TINYSTR=0-0,,TINYADDR LEN=2
   001170    1 00000 0001 00          1145         ARG     0,,RSLTADDR     RSLT=0,,RSLTADDR
                                      1146  *                              0.LE. RSLT .LE.LENC(SUB(BIGSTR,STRT))-1
                                      1147  *                              ADJUST SO THAT
                                      1148  *                              START .LE. RSLT .LE. LENC(BIGSTR)-1
                                      1149  *                              IF FOUND,
                                      1150  *                              START .LE. RSLT .LE. LENC(BIGSTR)-2
   001171    1 00000 0561 00          1151         ASQ     0,,RSLTADDR
   001172    000001 6070 11           1152         TTF     1,1             IF FOUND, MAKE NORMAL EXIT.
                                      1153  *                              IF LENC(SUBSTR(BIGSTR,START)) .GE. 1,
                                      1154  *                              THEN -RSLT- .EQ. LENC(BIGSTR)-1.
                                      1155  *                              ADJUST TO PROPER NOT-FOUND VALUE.
   001173    1 00000 0541 00          1156         AOS     0,,RSLTADDR
                                      1157  *                              NOTE -- BUG OCCURS IF
                                      1158  *                              LENC(SUBSTR(BIGSTR,START)) .EQ. 0,
                                      1159  *                              SINCE -SCD- INSTRUC SETS -RSLT- TO 0,
                                      1160  *                              INSTEAD OF LENC(SUBSTR(BIGSTR,START))-1
                                      1161  *                              AND ABOVE CODE MAKES LENC(BIGSTR)+1.
                                      1162  *                              POSSIBLE FIX -- USE CODE SEQUENCE --
                                      1163  *                              ASQ  0,,RSLTADDR
                                      1164  *                              TTF  1,1   NORMAL RETURN, FOUND
                                      1165  *                              STA  0,,RSLTADDR
                                      1166  *                              ASQ  0,,RSLTADDR A+Q .EQ. LENC(BIGSTR)
                                      1167  *                              TRA  0,1   ALTRETURN, NOT FOUND
                                      1168  *                              HOWEVER, THIS WOULD PRODUCE RESULTS
                                      1169  *                              WHICH DIFFER FROM THE IN-LINE CODE
                                      1170  *                              FOR -CALL-INDEX2-, WHICH IS MORE
                                      1171  *                              DIFFICULT TO PATCH UP.
   001174    000000 7100 11           1172         TRA     0,1             MAKE ALTRETURN, NOT FOUND.
                                      1173  *
                                      1174  *                              LOOP TO SCAN THRU SUBSTR(BIGSTR,START).
                                      1175  *                              -TINYSTR- DOES NOT OCCUR AT
                                      1176  *                              CURRENT POINT WITHIN -BIGSTR-
                                      1177  *                              STEP CURRENT POINT BY 1 CHAR.
   001175                             1178  6IND3L NULL
   001175    000001 0360 07           1179         ADLQ    =1,DL
 11:16 01/06/95  FILE=XBC$CSEQU:a.:XBC3TSI                                                               45   BMAP - B00
   001176    000001 1350 07           1180         SBLA    =1,DL
                                      1181  *
                                      1182  *                              LENC(TINYSTR) .GE. 3.
                                      1183  *                              Q-REG -- CURRENT POINT WITHIN BIGSTR.
                                      1184  *                              A-REG + Q-REG .EQ. LENC(BIGSTR).
   001177                             1185  6IND3  NULL
                                      1186  *
                                      1187  *                              FIND CANDIDATE -TINYSTR- OCCURANCE.
                                      1188  *                              USE -SCD- TO FIND NEXT OCCURANCE,
                                      1189  *                              STARTING FROM -CURRENT-POINT IN BIGSTR
                                      1190  *                              WHERE FIRST 2 CHARS OF -TINYSTR- ARE.
   001177    000 0 100 1205 46        1191         SCD     (1,1,,Q),(1,,,)
   001200    0 00000 0 0 0 0005       1192         ADSC9   0,0,A,BIGADDR   SUBSTR(BIGSTR,START)=0-0,QL,BIGADDR
   001201    3 00000 0 0 0 0002       1193         ADSC9   0,0,2,TINYADDR  TINYSTR=0-0,,TINYADDR LEN=2
   001202    1 00000 0001 00          1194         ARG     0,,RSLTADDR     RSLT=0,,RSLTADDR
                                      1195  *                              IF END-OF-BIGSTR HIT,
                                      1196  *                              THEN NO OCCURANCES OF TINYSTR.
   001203 (0)001217 6064 00           1197         TTN     6IND3X
                                      1198  *                              FIRST TWO CHARS OF TINYSTR FOUND.
                                      1199  *                              0.LE. RSLT .LE.LENC(SUB(BIGSTR,CURR))-2
                                      1200  *                              STEP CURRENT POSITION IN STRING
                                      1201  *                              TO CHAR WHERE -SCD- STOPPED.
   001204    1 00000 0361 00          1202         ADLQ    0,,RSLTADDR
   001205    1 00000 1351 00          1203         SBLA    0,,RSLTADDR
                                      1204  *                              Q-REG IS CURRENT POINT --
                                      1205  *                              START .LE. CURR .LE. LENC(BIGSTR)
                                      1206  *                              A-REG IS CHAR-COUNT REMAINING --
                                      1207  *                              0.LE. A-REG .LE.LENC(SUB(BIGSTR,STRT0))
                                      1208  *                              CHECK IF ENOUGH CHARS LEFT IN STRING
                                      1209  *                              TO HOLD A FULL COPY OF -TINYSTR-
   001206    1 00000 4431 00          1210         SXL     TINYLEN,0,,RSLTADDR
   001207    1 00000 1151 00          1211         CMPA    0,,RSLTADDR
   001210 (0)001217 6040 00           1212         TMI     6IND3X          LENC(STRING-LEFT) .LT. LENC(TINYSTR)
                                      1213  *                              LENC(STRING-LEFT) .GE. LENC(TINYSTR)
                                      1214  *                              CHECK FOR FULL -TINYSTR- OCCURANCE.
                                      1215  *                              FILL-CHAR NOT NEEDED,
                                      1216  *                              SINCE COMPARE LENGTH MATCH EXACTLY.
 11:16 01/06/95  FILE=XBC$CSEQU:a.:XBC3TSI                                                               46   BMAP - B00
   001211    000 0 140 1065 46        1217         CMPC    (1,1,,Q),(1,1,,)
   001212    0 00000 0 0 0 0013       1218         ADSC9   0,0,TINYLEN,BIGADDR  SUBSTR(BIGSTR,CURR)=0-0,QL,BIGADDR
   001213    3 00000 0 0 0 0013       1219         ADSC9   0,0,TINYLEN,TINYADDR TINYSTR=0-0,,TINYADDR
   001214 (0)001175 6010 00           1220         TNZ     6IND3L          IF NOT FOUND HERE, LOOP.
                                      1221  *                              -FOUND-
                                      1222  *                              OCCURANCE OF -TINYSTR- FOUND IN BIGSTR
                                      1223  *                              AT CURRENT POINT.
                                      1224  *                              SET -RSLT-
                                      1225  *                              MAKE -NORMAL- RETURN.
   001215    1 00000 7561 00          1226         STQ     0,,RSLTADDR
   001216    000001 7100 11           1227         TRA     1,1
                                      1228  *                              -NOT-FOUND-
                                      1229  *                              POINT IN -BIGSTR- REACHED WITH
                                      1230  *                              INSUFFICENT CHARS LEFT TO HOLD TINYSTR.
                                      1231  *                              SET -RSLT- TO LENGTHC(BIGSTR),
                                      1232  *                              (WITH A-REG + Q-REG GIVING LENGTH),
                                      1233  *                              MAKE -ALTRETURN- RETURN, NOT FOUND.
   001217                             1234  6IND3X NULL
   001217    1 00000 7551 00          1235         STA     0,,RSLTADDR
   001220    1 00000 0561 00          1236         ASQ     0,,RSLTADDR
   001221    000000 7100 11           1237         TRA     0,1

 11:16 01/06/95  FILE=XBC$CSEQU:a.:XBC3TSI                                                               47   BMAP - B00
                                      1238           EJECT
                                      1239  *
 2 000000                             1240           USE       M$DO,5
                                      1241           SYMREF    M$DO
 3 000000                             1242           USE       _XBC_CONSTANT,6
                                      1243  *
             000000000400             1244  ALLOC    EQU       256
                                      1245  *
   000000    000000 X 000000          1246  NILPTR   ZERO      0,NULLSID
   000001    000000 X 000000          1247           ZERO      0,NULLSID
                                      1248  *
   000002    000000777777             1249  LOWMASK  OCT       777777
   000003    000000777777             1250           OCT       777777

 11:16 01/06/95  FILE=XBC$CSEQU:a.:XBC3TSI                                                               48   BMAP - B00
                                      1251           EJECT
                                      1252  *
                                      1253  *
                                      1254  *                            THE FOLLOWING IS THE INITIAL
                                      1255  *                            SETTING OF THE BASE OF AUTO
                                      1256  *                            AND THE INITIAL FRAME OF AUTO
                                      1257  *                            IF THE MAIN PROGRAM IS AN
                                      1258  *                            AUTO ROUTINE, THE INITIAL FRAME
                                      1259  *                            WILL BELONG TO THE MAIN
                                      1260  *                            ELSE IT WILL BE A DUMMY FRAME.
   000004    000000 777773            1261  FRAME1   ZERO      0,-4-1      NEG CURRENT FRAME OFFSET(INITIAL)
   000005    000000 777777            1262           ZERO      0,-1      PL6 FLAG
   000006    777754 000000            1263           ZERO      -20,0     LAST VALID 'NEXT'VALUE
   000007    000000 000000            1264           ZERO
   000010    000000 777773            1265           ZERO      0,-4-1      RET, NEG PREV
   000011    000000 777777            1266           ZERO      0,-1      PL6 FLAG
   000012    000011 000000            1267           ZERO      1+8,0     NEXT FRAME
   000013    000000 000000            1268           ZERO                          UNUSED

 11:16 01/06/95  FILE=XBC$CSEQU:a.:XBC3TSI                                                               49   BMAP - B00
                                      1269           EJECT
                                      1270  PMVEC    MACRO
                                      1271           CRSM      SAVE,OFF
                                      1272           IFE       '#3',''
                                      1273           VFD       20/0,11/2045,5/0
                                      1274           INE       '#3',''
                                      1275           VFD       20/#3-1,11/2045,5/0
                                      1276           VFD       18/#1,6/0,12/#2
                                      1277           CRSM      RESTORE
                                      1278           ENDM      PMVEC
                                      1279           EVEN
   000014                             1280  GDSFPT   NULL
   000014    0000007 3775 00          1281           PMVEC     GDSFPTV,ISSID,8
   000015 (3)000054 00 X 0000
   000016    0000000 3775 00          1282           PMVEC     0,NULLSID
   000017    000000 00 X 0000
   000020    0000007 3775 00          1283  GDSFPT4  PMVEC     GDSFPTV4,ISSID,8
   000021 (3)000055 00 X 0000
   000022    0000000 3775 00          1284           PMVEC     0,NULLSID
   000023    000000 00 X 0000
   000024    0000007 3775 00          1285  GDSFPT16 PMVEC     GDSFPTV16,ISSID,8
   000025 (3)000056 00 X 0000
   000026    0000000 3775 00          1286           PMVEC     0,NULLSID
   000027    000000 00 X 0000
   000030    0000007 3775 00          1287  GDSFPT64 PMVEC     GDSFPTV64,ISSID,8
   000031 (3)000057 00 X 0000
   000032    0000000 3775 00          1288           PMVEC     0,NULLSID
   000033    000000 00 X 0000
                                      1289           EVEN
   000034                             1290  WBADUNWIND NULL
   000034    0000017 3775 00          1291           PMVEC     WRV,ISSID,16
   000035 (3)000050 00 X 0000
   000036    0000000 3775 00          1292           PMVEC     0,NULLSID
   000037    000000 00 X 0000
   000040    0000047 3775 00          1293           PMVEC     MBADUNWIND,ISSID,40
   000041 (3)000100 00 X 0000
                                      1294           EVEN
 11:16 01/06/95  FILE=XBC$CSEQU:a.:XBC3TSI                                                               50   BMAP - B00
   000042                             1295  WAUTONOTAVAIL NULL
   000042    0000017 3775 00          1296           PMVEC     WRV,ISSID,16
   000043 (3)000050 00 X 0000
   000044    0000000 3775 00          1297           PMVEC     0,NULLSID
   000045    000000 00 X 0000
   000046    0000077 3775 00          1298           PMVEC     MAUTONOTAVAIL,ISSID,64
   000047 (3)000060 00 X 0000
                                      1299           EVEN
   000050  X 000000 1 000000          1300  WRV      VFD       18/M$DO,1/1,17/0
   000051    000000 000000            1301           ZERO
   000052    000000 000000            1302           ZERO
   000053    000000 000000            1303           ZERO
                                      1304  *
   000054    1 000000 000400          1305  GDSFPTV  VFD       1/1,17/0,18/ALLOC
   000055    1 000000 002000          1306  GDSFPTV4 VFD       1/1,17/0,18/ALLOC*4
   000056    1 000000 010000          1307  GDSFPTV16 VFD      1/1,17/0,18/ALLOC*16
   000057    1 000000 040000          1308  GDSFPTV64 VFD      1/1,17/0,18/ALLOC*64
                                      1309  *
   000060                             1310  MAUTONOTAVAIL NULL
   000060    052052040101             1311           ASCII     16,** Auto segment is full or User Memory Authorization reached *
   000061    165164157040
   000062    163145147155
   000063    145156164040
   000064    151163040146
   000065    165154154040
   000066    157162040125
   000067    163145162040
   000070    115145155157
   000071    162171040101
   000072    165164150157
   000073    162151172141
   000074    164151157156
   000075    040162145141
   000076    143150145144
   000077    040052052040
   000100                             1312  MBADUNWIND NULL
   000100    111155160162             1313           ASCII     10,Improper UNWIND, IPR follows at unwind.
 11:16 01/06/95  FILE=XBC$CSEQU:a.:XBC3TSI                                                               51   BMAP - B00
   000101    157160145162
   000102    040125116127
   000103    111116104054
   000104    040111120122
   000105    040146157154
   000106    154157167163
   000107    040141164040
   000110    165156167151
   000111    156144056040
   000112    777776777777             1314  EVENUPPERMASK OCT 777776777777
                                      1315           END

  CONTROL SECTION TABLE

   0 CODE   EIGHT 001222 _XBC_PROCED
   1 RODATA EVEN  000000 LITERALS
   2 DCB    EVEN  000000 M$DO
   3 RODATA EVEN  000113 _XBC_CONSTANT

 11:16 01/06/95  FILE=XBC$CSEQU:a.:XBC3TSI    SYMBOL TABLE                                               52   BMAP - B00
 00101000 000000001156 6IND1        *1127
 01101000 000000001165 6IND2         1118     *1141
 01101000 000000001177 6IND3         1116     *1185
 01101000 000000001175 6IND3L       *1178      1220
 01101000 000000001217 6IND3X        1197      1212     *1234
 41000000 000000000400 ALLOC          735       808       811       813       816       819       820
                                      823       865       866       869       870       873       874
                                      877       878     *1244      1305      1306      1307      1308
 01101000 000000000676 ALLOCGO        207       230       240       266       280       292       319
                                      335       349       360       388       406       423       472
                                     *786       950
 01101000 000000000520 ALLOCN         528      *587
 40000000 000000000003 ARGPTR_        *73
 01101000 000000000664 AUTOABORT      745      *750
 01101000 000000000652 AUTONOTAVAIL   591       716       728      *740       787
 41000000 000000000002 AUTOPR         *50       151       152       153       161       162       163
                                      164       193       194       195       197       200       201
                                      202       203       204       205       212       213       214
                                      216       218       220       222       225       226       227
                                      228       235       236       237       238       245       246
                                      247       249       251       252       255       259       261
                                      262       263       264       273       275       276       277
                                      278       286       287       288       289       290       297
                                      298       299       301       303       304       307       311
                                      314       315       316       317       327       330       331
                                      332       333       340       341       344       345       346
                                      347       354       355       356       357       358       365
                                      366       367       369       371       374       375       379
                                      383       384       385       386       398       401       402
                                      403       404       413       415       417       419       420
                                      421       434       435       441       442       443       445
                                      447       448       451       455       460       466       468
                                      469       470       486       492       498       499       506
                                      507       508       514       515       516       518       522
                                      523       524       527       531       532       538       548
                                      550       553       555       558       560       563       565
                                      573       574       575       576       578       580       588
 11:16 01/06/95  FILE=XBC$CSEQU:a.:XBC3TSI    SYMBOL TABLE                                               53   BMAP - B00
                                      589       592       672       673       674       675       679
                                      680       681       682       709       710       711       713
                                      714       729       732       733       734       736       737
                                      743       744       747       748       805       807       824
                                      827       828       829       836       837       838       839
                                      840       841       842       843       844       845       846
                                      847       848       849       850       903       905       906
                                      908       909       910       911       912       913       920
                                      921       923       933       934       935       936       937
                                      938       941       944       945       946       947       948
                                      954       955       956       981       982       983       989
                                      990       991      1049      1050      1052      1060      1061
                                     1065
 01101000 000000001140 BADUNWIND     1055      1057     *1064
 41000000 000000000000 BIGADDR      *1093      1129      1143      1192      1218
 41000000 000000000000 BIGLEN       *1094      1111
 01101000 000000000674 CANCEL         777      *781
 41000000 000000000000 CURR_          *75       164       195       203       214       222       938
                                      945
 41000000 000000000001 DESCLISTPR     *49       221       253       305       372       449       533
                                      543       544       608       616       637
 01101000 000000000776 DOFDS          867       871       875      *880
 01101000 000000000723 DOGDS          812       817       821      *824
 03601002 000000000000 DS1SID         *54       729       743       775       861       933       954
                                     1026
 41000000 000000000002 ERR            *60       977
 01101003 000000000112 EVENUPPERMASK  582     *1314
 41000000 000000000001 EXIT           *59       972
 41000000 000000430002 FDS            *58       723       880
 01101003 000000000004 FRAME1         731     *1261
 41000000 000000430001 GDS            *57       727       825
 01101003 000000000014 GDSFPT         726       822       876     *1280
 01101003 000000000024 GDSFPT16       815       868     *1285
 01101003 000000000020 GDSFPT4        818       872     *1283
 01101003 000000000030 GDSFPT64       722       810       864     *1287
 01101003 000000000054 GDSFPTV       1281     *1305
 01101003 000000000056 GDSFPTV16     1285     *1307
 11:16 01/06/95  FILE=XBC$CSEQU:a.:XBC3TSI    SYMBOL TABLE                                               54   BMAP - B00
 01101003 000000000055 GDSFPTV4      1283     *1306
 01101003 000000000057 GDSFPTV64     1287     *1308
 01101000 000000000431 GOTQ          *521       583
 01101000 000000000627 INITAUTO       706      *722       725
 03601000 000000000000 ISSID          *52      1281      1283      1285      1287      1291      1293
                                     1296      1298
 41000000 000000000002 LIMIT_         *76       205       228       236       948
 40000000 000000000002 LOCOFENT_      *71
 01101003 000000000002 LOWMASK       1056     *1249
 03301000 000000000000 M$DO         *1241      1300
 01101003 000000000060 MAUTONOTAVAIL 1298     *1310
 01101003 000000000100 MBADUNWIND    1293     *1312
 41000000 000000010014 MERCS          *63       993      1019
 41000000 000000000002 NEXT_          *70       193       204       212       226       237       946
 01101003 000000000000 NILPTR         339       353       414       432       485       491       497
                                      504     *1246
 01101000 000000000060 NULL1          223      *233
 01101000 000000000547 NULL1PR        609      *630
 01101000 000000000114 NULL2          256      *269
 01101000 000000000130 NULL20         270      *283
 01101000 000000000542 NULL2PR        618      *623
 01101000 000000000546 NULL2PR0       624      *628
 01101000 000000000173 NULL3          308      *322
 01101000 000000000225 NULL30         323      *351
 01101000 000000000210 NULL31         324      *338
 01101000 000000000565 NULL3PR        639      *647
 01101000 000000000563 NULL3PR0      *644       657
 01101000 000000000572 NULL3PR0OR1    648      *655
 01101000 000000000575 NULL3PR1       646      *659
 01101000 000000000271 NULL4          376      *391
 01101000 000000000331 NULL40         392      *431
 01101000 000000000324 NULL41         393      *426
 01101000 000000000310 NULL42         394      *409
 01101000 000000000311 NULL4C1       *411       428
 01101000 000000000317 NULL4C2       *418       436
 01101000 000000000370 NULL5          452      *475
 01101000 000000000415 NULL50         476      *503
 11:16 01/06/95  FILE=XBC$CSEQU:a.:XBC3TSI    SYMBOL TABLE                                               55   BMAP - B00
 01101000 000000000353 NULL5001      *454       481
 01101000 000000000410 NULL51         477      *496
 01101000 000000000404 NULL52         478      *490
 01101000 000000000376 NULL53         479      *484
 01101000 000000000355 NULL5C0       *457       487
 01101000 000000000356 NULL5C1       *459       493
 01101000 000000000360 NULL5C2       *462       500
 00101000 000000000361 NULL5C3       *464
 01101000 000000000363 NULL5C4       *467       509
 01101000 000000000454 NULLN          534      *542
 03601001 000000000000 NULLSID        *53       234       272       285       329       400       427
                                      480       549       626       629       631       645       651
                                      660       661      1246      1247      1282      1284      1286
                                     1288      1292      1297
 40000000 000000000001 PARMREG1       *78
 40000000 000000000003 PARMREG2       *79
 40000000 000000000004 PARMREG3       *80
 41000000 000000000004 PARMS_         *72       227       238       264       278       289       311
                                      344       417       530
 41000000 000000000000 PREV_          *68       197       941
 41000000 000000000000 PTRLISTPR      *48       224       258       260       274       309       310
                                      313       325       326       343       377       378       381
                                      382       396       397       399       410       416       453
                                      456       458       461       463       537       547       610
                                      619       620       625       640       641       642       649
                                      650       658
 41000000 000000000000 RET_           *67       200       218
 41000000 000000000000 RET_PREV_      *69       151       161       162
 41000000 000000000001 RSLTADDR     *1095      1110      1113      1131      1135      1145      1151
                                     1156      1194      1202      1203      1210      1211      1226
                                     1235      1236
 01101000 000000001112 SETCUR        1007      1015     *1021
 03601003 000000000000 TCBSID         *55      1021
 01101000 000000000434 TESTN         *525       593
 41000000 000000000003 TINYADDR     *1091      1130      1144      1193      1219
 41000000 000000000003 TINYLEN      *1092      1115      1117      1210      1218      1219
 41000000 000000010012 TRTN           *62       985      1011
 11:16 01/06/95  FILE=XBC$CSEQU:a.:XBC3TSI    SYMBOL TABLE                                               56   BMAP - B00
 01101000 000000000710 TRY16          809      *813
 01101000 000000000715 TRY4           814      *818
 01101003 000000000042 WAUTONOTAVAIL  741     *1295
 01101003 000000000034 WBADUNWIND    1066     *1290
 41000000 000000040001 WRITE          *64       742      1067
 01101003 000000000050 WRV           1291      1296     *1300
 41000000 000000000003 XXX            *61       751
 61000000 000000000600 _1            *191      *210      *232      *243      *268      *282      *295
                                     *321      *337      *350      *363      *390      *408      *425
                                     *430      *439      *474      *489      *495      *502      *512
                                     *541      *606      *614      *635      *670
 61000000 000000000010 _2            *191      *210      *232      *243      *268      *282      *295
                                     *321      *337      *350      *363      *390      *408      *425
                                     *430      *439      *474      *489      *495      *502      *512
                                     *541      *606      *614      *635      *670
 00101000 000000000000 _XBC          *150
 12101000 000000001071 _XBC_AAALT     124      *988
 12101000 000000000004 _XBC_AALT      108      *161
 12101000 000000001064 _XBC_AARET     123      *980
 12101000 000000001122 _XBC_AAUNWIND  128     *1045
 12101000 000000001031 _XBC_AAUTO     119      *932
 13101000 000000000000 _XBC_ARET      108      *151       191       210       232       243       268
                                      282       295       321       337       350       363       390
                                      408       425       430       439       474       489       495
                                      502       512       541       606       614       635       670
 13101000 000000001074 _XBC_ASALT     124      *992      1017
 13101000 000000001067 _XBC_ASRET     123      *984      1009
 12101000 000000001051 _XBC_ASTATIC   119      *953
 12101000 000000001122 _XBC_ASUNWIND  129     *1046
 12101000 000000001122 _XBC_AUNWIND   128     *1047
 12101000 000000000014 _XBC_AUTO_0    110      *192
 12101000 000000000034 _XBC_AUTO_1    110      *211
 12101000 000000000070 _XBC_AUTO_2    110      *244
 12101000 000000000144 _XBC_AUTO_3    111      *296
 12101000 000000000240 _XBC_AUTO_4    112      *364
 12101000 000000000340 _XBC_AUTO_5    112      *440
 13101000 000000000701 _XBC_AUTO_ALLOC          135       590       715       786      *804       915
 11:16 01/06/95  FILE=XBC$CSEQU:a.:XBC3TSI    SYMBOL TABLE                                               57   BMAP - B00
 12101000 000000000666 _XBC_AUTO_EX   136      *774
 12101000 000000000424 _XBC_AUTO_N    111      *513
 12101000 000000000507 _XBC_AUTO_Q    113      *572
 12101000 000000000605 _XBC_FAALT     126      *678
 12101000 000000000600 _XBC_FARET     126      *671
 12101000 000000001004 _XBC_FRAME_EXT           137      *901
 12101000 000000001024 _XBC_FRAME_KEXT          138      *919
 01101000 000000000702 _XBC_GETSP1   *806       830
 12101000 000000001145 _XBC_INDEX     133     *1102
 12101000 000000001062 _XBC_MAALT     122      *975
 12101000 000000001060 _XBC_MARET     121      *970
 12101000 000000001122 _XBC_MAUNWIND  128     *1043
 12101000 000000000612 _XBC_MAUTO     117      *705
 12101000 000000001104 _XBC_MERCS     140     *1014
 12101000 000000001062 _XBC_MSALT     122      *976
 12101000 000000001060 _XBC_MSRET     121      *971
 12101000 000000000626 _XBC_MSTATIC   117      *720
 12101000 000000001122 _XBC_MSUNWIND  129     *1044
 12101000 000000000530 _XBC_PREGS_1   131      *607
 12101000 000000000534 _XBC_PREGS_2   131      *615
 12101000 000000000554 _XBC_PREGS_3   131      *636
 13101000 000000000753 _XBC_REL_AUTO  136      *860       884
 12101000 000000001122 _XBC_SUNWIND   129     *1048
 12101000 000000001076 _XBC_TRTN      140     *1006

     146 SYMBOLS

 11:16 01/06/95  FILE=XBC$CSEQU:a.:XBC3TSI    MACRO TABLE                                                58   BMAP - B00
 ALIGN          191       210       232       243       268       282       295       321       337
                350       363       390       408       425       430       439       474       489
                495       502       512       541       606       614       635       670
 PMVEC         1281      1282      1283      1284      1285      1286      1287      1288      1291
               1292      1293      1296      1297      1298

       2 MACROS

    SYMBOL SPACE USED  2806 WORDS
     MACRO SPACE USED   108 WORDS
   INPUT RECORDS READ  2630
 STATEMENTS PROCESSED  1762
         ELAPSED TIME  0:08.08
             CPU TIME     6.57 SEC.
        ASSEMBLY RATE 16091 STATEMENTS/CPU MIN.

      NO ERRORS

