
 11:12 01/06/95  FILE=XPN_7NS0TOU:a.:XBC3TSI                                                             1    BMAP - B00
                                         1  *M*   XPN_7NS0TOI  Numeric input conversion
                                         2  *T***********************************************************
                                         3  *T*                                                         *
                                         4  *T* Copyright (c) Honeywell Bull Inc., 1988                 *
                                         5  *T*                                                         *
                                         6  *T***********************************************************
                                         7  */
                                         8  *P*   NAME: XPN_7NS0TOI
                                         9  *,*   PURPOSE: Convert ASCII numeric form with optional
                                        10  *,*      power of 10 exponent to binary integer.
                                        11  */
                                        12  *F*   NAME: XPN_7NS0TOI
                                        13  */
                                        14  *D*   NAME: XPN_7NS0TOI  no sign
                                        15  *,*   ENTRY: XPN_7LS0TOI  leading sign
                                        16  *,*   ENTRY: XPN_7TS0TOI  trailing sign
                                        17  *,*   ENTRY: XPN_7NSPTOI  no sign, power of 10
                                        18  *,*   ENTRY: XPN_7LSPTOI  leading sign, power of 10
                                        19  *,*   ENTRY: XPN_7TSPTOI  trailing sign, power of 10
                                        20  *,*   ENTRY: XPN_7NS0TOU  no sign
                                        21  *,*   ENTRY: XPN_7LS0TOU  leading sign
                                        22  *,*   CALL: in PL/6,
                                        23  *,*      CALL XPN_7xSxTOI (
                                        24  *,*         BIT_TARGET,
                                        25  *,*         ASCII_DIGIT_SOURCE,
                                        26  *,*         SOURCE_LENGTH_D
                                        27  *,*         [ , POWER_OF_10 ] )
                                        28  *,*            ALTRET (error_handler);
                                        29  *,*   INTERFACE:
                                        30  *,*      X66_AUTO_3,X66_AUTO_4, X66_FARET, X66_FAALT
                                        31  *,*   INPUT:
                                        32  *,*      ASCII_DIGIT_SOURCE CHAR(...)
                                        33  *,*         ASCII decimal digits with leading, trailing,
                                        34  *,*         or no sign.
                                        35  *,*      SOURCE_LENGTH_D SBIN WORD ALIGNED
                                        36  *,*         Number of DIGITS in source. Number of
                                        37  *,*         characters is 1 more if a sign is used.
 11:12 01/06/95  FILE=XPN_7NS0TOU:a.:XBC3TSI                                                             2    BMAP - B00
                                        38  *,*         Must be at least 1.
                                        39  *,*      POWER_OF_10 SBIN WORD ALIGNED
                                        40  *,*         The result of decimal to binary conversion is
                                        41  *,*         multiplied by 10 ** POWER_OF_10 and placed in the
                                        42  *,*         target.
                                        43  *,*         Not used by those entry points containing the
                                        44  *,*         digit "0".
                                        45  *,*   OUTPUT:
                                        46  *,*      BIT_TARGET SBIN WORD ALIGNED
                                        47  *,*   SCRATCH:
                                        48  *,*      All registers except X5-7 and PR5-7.
                                        49  *,*   ALTRETURN:
                                        50  *,*      Taken if overflow occurs.  Result is set to
                                        51  *,*      maximum positive or negative value.
                                        52  */
                                        53  *
                                        54           ENTDEF   XPN_7NS0TOI
                                        55           ENTDEF   XPN_7LS0TOI
                                        56           ENTDEF   XPN_7TS0TOI
                                        57           ENTDEF   XPN_7NSPTOI
                                        58           ENTDEF   XPN_7LSPTOI
                                        59           ENTDEF   XPN_7TSPTOI
                                        60           ENTDEF   XPN_7NS0TOU
                                        61           ENTDEF   XPN_7LS0TOU
                                        62  *
                                        63           ENTREF   X66_AUTO_3
                                        64           ENTREF   X66_FARET
                                        65           ENTREF   X66_FAALT
                                        66           ENTREF   X66_AUTO_4
                                        67  *
                                        68  *
                                        69  *  Parameters
                                        70  *
             000000000003               71  BIT_TARG EQU      3                 Located by PR3
             000000000004               72  ASC_SOURCE EQU    4                 Located by PR4
             000000000001               73  POWER_10 EQU      1                 Located by PR1
                                        74  *
 11:12 01/06/95  FILE=XPN_7NS0TOU:a.:XBC3TSI                                                             3    BMAP - B00
                                        75  *  Length of source will be put in X1.
                                        76  *
             000000000001               77  S_LEN    BOOL     01                X1
                                        78  *
                                        79  *  Automatic storage.
                                        80  *  (Doesn't cost any extra time since space
                                        81  *  has to be allocated for parameter pointers.)
                                        82  *
             000000000014               83  AUTOSZ   EQU      12
             000000000002               84  AUTO     EQU      2                 PR2
                                        85  *
             000000000007               86  INDICATE EQU      7  ,,AUTO         indicators
             000000000010               87  SCRTCH   EQU      8  ,,AUTO         scratch space
             000000000011               88  BINARY   EQU      9  ,,AUTO         scratch space
             000000000012               89  SIGN     EQU     10  ,,AUTO         sign of value
                                        90  *
                                        91  *  Index to numeric descriptor and scratch ptr.
                                        92  *
             000000000003               93  DESC_XR  EQU      3                 X3
             000000000004               94  DEST_XR  EQU      4                 X4
             000000000000               95  MISC_PTR EQU      0                 PR0
                                        96  *
                                        97  *  And an index register for looping
                                        98  *
             000000000002               99  COUNTER  BOOL     02                X2
                                       100  *
                                       101  *  *  *  *  *  *  *  *  *  *  *  *  *  *  *  *  *  *
                                       102  *
 0 000000                              103  XPN_7NS0TOI NULL
   000000  X 000000 7000 00            104           TSX0     X66_AUTO_3
   000001    000014 000003             105           ZERO     AUTOSZ,3
   000002 (0)000165 6230 00            106           EAX      DESC_XR,NS_DESC
   000003    2 00005 4705 00           107           LDP      MISC_PTR,5,,AUTO  3rd argument
   000004    0 00000 7211 00           108           LXL      S_LEN,0,,MISC_PTR
   000005 (0)000042 7100 00            109           TRA      NO_POW
                                       110  *
   000006                              111  XPN_7LS0TOI NULL
 11:12 01/06/95  FILE=XPN_7NS0TOU:a.:XBC3TSI                                                             4    BMAP - B00
   000006  X 000000 7000 00            112           TSX0     X66_AUTO_3
   000007    000014 000003             113           ZERO     AUTOSZ,3
   000010 (0)000166 6230 00            114           EAX      DESC_XR,LS_DESC
   000011    2 00005 4705 00           115           LDP      MISC_PTR,5,,AUTO  3rd argument
   000012    0 00000 7211 00           116           LXL      S_LEN,0,,MISC_PTR
   000013    000001 0210 03            117           ADLX     S_LEN,1,DU        1 more for sign
   000014 (0)000042 7100 00            118           TRA      NO_POW
                                       119  *
   000015                              120  XPN_7TS0TOI NULL
   000015  X 000000 7000 00            121           TSX0     X66_AUTO_3
   000016    000014 000003             122           ZERO     AUTOSZ,3
   000017 (0)000167 6230 00            123           EAX      DESC_XR,TS_DESC
   000020    2 00005 4705 00           124           LDP      MISC_PTR,5,,AUTO  3rd argument
   000021    0 00000 7211 00           125           LXL      S_LEN,0,,MISC_PTR
   000022    000001 0210 03            126           ADLX     S_LEN,1,DU        1 more for sign
                                       127  *
   000023                              128  XPN_7NS0TOU NULL
   000023  X 000000 7000 00            129           TSX0     X66_AUTO_3
   000024    000014 000003             130           ZERO     AUTOSZ,3
   000025 (0)000165 6230 00            131           EAX      DESC_XR,NS_DESC
   000026    2 00005 4705 00           132           LDP      MISC_PTR,5,,AUTO  3rd argument
   000027    0 00000 7211 00           133           LXL      S_LEN,0,,MISC_PTR
   000030 (0)000171 6240 00            134           EAX      DEST_XR,UI_DESC
   000031 (0)000043 7100 00            135           TRA      NO_POWU
                                       136  *
   000032                              137  XPN_7LS0TOU NULL
   000032  X 000000 7000 00            138           TSX0     X66_AUTO_3
   000033    000014 000003             139           ZERO     AUTOSZ,3
   000034 (0)000166 6230 00            140           EAX      DESC_XR,LS_DESC
   000035    2 00005 4705 00           141           LDP      MISC_PTR,5,,AUTO  3rd argument
   000036    0 00000 7211 00           142           LXL      S_LEN,0,,MISC_PTR
   000037 (0)000171 6240 00            143           EAX      DEST_XR,UI_DESC
   000040    000001 0210 03            144           ADLX     S_LEN,1,DU       1 more for sign
   000041 (0)000043 7100 00            145           TRA      NO_POWU
                                       146  *
   000042                              147  NO_POW   NULL
   000042 (0)000170 6240 00            148           EAX      DEST_XR,SI_DESC
 11:12 01/06/95  FILE=XPN_7NS0TOU:a.:XBC3TSI                                                             5    BMAP - B00
   000043                              149  NO_POWU  NULL
   000043 (0)000172 6314 00            150           EPPR     POWER_10,ZERO     Supply 4th argument
   000044 (0)000072 7100 00            151           TRA      ANYHOW
                                       152  *
   000045                              153  XPN_7NSPTOI NULL
   000045  X 000000 7000 00            154           TSX0     X66_AUTO_4
   000046    000014 000004             155           ZERO     AUTOSZ,4
   000047 (0)000165 6230 00            156           EAX      DESC_XR,NS_DESC
   000050    2 00005 4705 00           157           LDP      MISC_PTR,5,,AUTO  3rd argument
   000051    0 00000 7211 00           158           LXL      S_LEN,0,,MISC_PTR
   000052 (0)000070 7100 00            159           TRA      WITH_POW
                                       160  *
   000053                              161  XPN_7LSPTOI NULL
   000053  X 000000 7000 00            162           TSX0     X66_AUTO_4
   000054    000014 000004             163           ZERO     AUTOSZ,4
   000055 (0)000166 6230 00            164           EAX      DESC_XR,LS_DESC
   000056    2 00005 4705 00           165           LDP      MISC_PTR,5,,AUTO  3rd argument
   000057    0 00000 7211 00           166           LXL      S_LEN,0,,MISC_PTR
   000060    000001 0210 03            167           ADLX     S_LEN,1,DU        1 more for sign
   000061 (0)000070 7100 00            168           TRA      WITH_POW
                                       169  *
   000062                              170  XPN_7TSPTOI NULL
   000062  X 000000 7000 00            171           TSX0     X66_AUTO_4
   000063    000014 000004             172           ZERO     AUTOSZ,4
   000064 (0)000167 6230 00            173           EAX      DESC_XR,TS_DESC
   000065    2 00005 4705 00           174           LDP      MISC_PTR,5,,AUTO  3rd argument
   000066    0 00000 7211 00           175           LXL      S_LEN,0,,MISC_PTR
   000067    000001 0210 03            176           ADLX     S_LEN,1,DU        1 more for sign
                                       177  *
   000070                              178  WITH_POW NULL
   000070 (0)000170 6240 00            179           EAX      DEST_XR,SI_DESC
   000071    2 00006 4715 00           180           LDP      POWER_10,6,,AUTO
                                       181  *
   000072                              182  ANYHOW   NULL
   000072    2 00003 4735 00           183           LDP      BIT_TARG,3,,AUTO  1st argument
   000073    2 00004 4745 00           184           LDP      ASC_SOURCE,4,,AUTO 2nd argument
                                       185  *
 11:12 01/06/95  FILE=XPN_7NS0TOU:a.:XBC3TSI                                                             6    BMAP - B00
                                       186  *  Save state of overflow mask.
                                       187  *  Clear overflow indicator.
                                       188  *  Set overflow mask to avoid trap,.
                                       189  *
   000074    2 00007 7541 00           190           STI      INDICATE,,AUTO
   000075    2 00011 7541 00           191           STI      BINARY,,AUTO
   000076    2 00011 2361 00           192           LDQ      BINARY,,AUTO      reset ovfl, exp ovfl, exp undfl
   000077    703757 3760 07            193           ANQ     =O703757,DL
   000100    004000 2760 07            194           ORQ     =O004000,DL        set overflow mask
   000101    2 00011 7561 00           195           STQ      BINARY,,AUTO
   000102    2 00011 6341 00           196           LDI      BINARY,,AUTO
                                       197  *
                                       198  *  The moment we've all been waiting for...
                                       199  *
   000103    000 120 3055 60           200           DTB      (1,1,1),(1,,1)
   000104    000000 0000 13            201           ARG      0,DESC_XR
   000105    000000 0000 14            202           ARG      0,DEST_XR
   000106    2 00012 7541 00           203           STI      SIGN,,AUTO
   000107 (0)000111 6170 00            204           TOV       LABEL                    If overflow then branch
   000110 (0)000117 7100 00            205           TRA       CONT                     Else continue
   000111                              206  LABEL    NULL
   000111    0 000 0 0 000 3035 60     207           CMPN      (1,1,1)                  compare source string for
   000112    000000 0000 13            208           ARG       0,DESC_XR                one exceptional (-2**35)
   000113 (0)000173 0 0 1 00 14        209           NDSC9     MIN,,12,1                condition. All others will
   000114 (0)000156 6010 00            210           TNZ       OVERFLOW                 be real overflows.
   000115    400000 2360 03            211           LDQ       =O400000,DU              Load Q with -2**35
   000116    2 00011 7561 00           212           STQ       BINARY,,AUTO             Store Q in target field
                                       213  *
                                       214  *  Adjust by power of 10
                                       215  *
   000117 (0)000171 1040 03            216  CONT     CMPX      DEST_XR,UI_DESC,DU
   000120 (0)000133 6010 00            217           TNZ       CONTS
                                       218  *  Thin ice:  to unsigned but input is signed?
                                       219  *                If sign is - then it had better be 0..(-2**25-1)
                                       220  *                If sign is + then it can be 0..(2*36-1)
   000121 (0)000166 1030 03            221           CMPX      DESC_XR,LS_DESC,DU
   000122 (0)000131 6010 00            222           TNZ       UU_TEST
 11:12 01/06/95  FILE=XPN_7NS0TOU:a.:XBC3TSI                                                             7    BMAP - B00
   000123    2 00012 6341 00           223           LDI       SIGN,,AUTO               Check for negative
   000124 (0)000131 6050 00            224           TPL       UU_TEST                     Its positive
   000125    2 00010 2361 00           225           LDQ       BINARY-1,,AUTO
   000126    000001 0360 07            226           ADLQ     =1,DL
   000127 (0)000156 6010 00            227           TNZ       OVERFLOW
   000130 (0)000133 7100 00            228           TRA       CONTS
                                       229  *  Thin ice: to unsigned but its signed?
   000131    2 00010 2361 00           230  UU_TEST  LDQ       BINARY-1,,AUTO
   000132 (0)000156 6010 00            231           TNZ       OVERFLOW
   000133    1 00000 7221 00           232  CONTS    LXL       COUNTER,0,,POWER_10
   000134 (0)000145 6040 00            233           TMI      SMALLER
                                       234  *
   000135                              235  BIGGER   NULL
   000135 (0)000152 6000 00            236           TZE      DONE
   000136    2 00011 2361 00           237           LDQ      BINARY,,AUTO
   000137    000012 4020 07            238           MPY      10,DL
   000140    2 00011 7561 00           239           STQ      BINARY,,AUTO
                                       240  *
                                       241  *  No overflow has occured if MSB of Q and
                                       242  *  all bits of A are the same.
                                       243  *
   000141    000044 7370 00            244           LLS      36
   000142 (0)000156 6030 00            245           TRC      OVERFLOW
   000143    000001 1220 03            246           SBLX     COUNTER,1,DU
   000144 (0)000135 7100 00            247           TRA      BIGGER
                                       248  *
   000145                              249  SMALLER  NULL
   000145    2 00011 2361 00           250           LDQ      BINARY,,AUTO
   000146    000012 5060 07            251           DIV      10,DL
   000147    2 00011 7561 00           252           STQ      BINARY,,AUTO
   000150    000001 0220 03            253           ADLX     COUNTER,1,DU
   000151 (0)000145 6010 00            254           TNZ      SMALLER
                                       255  *
                                       256  *  done
                                       257  *
   000152                              258  DONE     NULL
   000152    2 00011 2351 00           259           LDA      BINARY,,AUTO
 11:12 01/06/95  FILE=XPN_7NS0TOU:a.:XBC3TSI                                                             8    BMAP - B00
   000153    3 00000 7551 00           260           STA      0,,BIT_TARG
   000154    2 00007 6341 00           261           LDI      INDICATE,,AUTO    Restore overflow mask
   000155  X 000000 7100 00            262           TRA      X66_FARET
                                       263  *
                                       264  *  Here on overflow error from either the BTD
                                       265  *  conversion or a multiplication by 10.
                                       266  *
   000156                              267  OVERFLOW NULL
   000156    400000 2350 03            268           LDA      =O400000,DU       Max. neg. value
   000157    2 00012 6341 00           269           LDI      SIGN,,AUTO        original sign
   000160 (0)000162 6040 00            270           TMI      NEG
   000161 (1)000000 6750 00            271           ERA      =-1               make max. pos. value
   000162                              272  NEG      NULL
   000162    3 00000 7551 00           273           STA      0,,BIT_TARG
   000163    2 00007 6341 00           274           LDI      INDICATE,,AUTO    Restore overflow mask
   000164  X 000000 7100 00            275           TRA      X66_FAALT             altreturn
                                       276  *
                                       277  *  Numeric descriptors for no sign, leading sign,
                                       278  *  and trailing sign.
                                       279  *  Life would be much simpler if
                                       280  *  00-07 were used for index registers.
                                       281  *
             000000000011              282  LENGTH_IN_REG BOOL S_LEN+10
                                       283  *
   000165    4 00000 0 0 3 00 11       284  NS_DESC  NDSC9    0,0,LENGTH_IN_REG,3,,ASC_SOURCE
   000166    4 00000 0 0 1 00 11       285  LS_DESC  NDSC9    0,0,LENGTH_IN_REG,1,,ASC_SOURCE
   000167    4 00000 0 0 2 00 11       286  TS_DESC  NDSC9    0,0,LENGTH_IN_REG,2,,ASC_SOURCE
                                       287  *
   000170    2 00011 0 0 0 00 04       288  SI_DESC  NDSC9    BINARY,0,4,,,AUTO
   000171    2 00010 0 0 0 00 10       289  UI_DESC  NDSC9    BINARY-1,0,8,,,AUTO
                                       290  *
                                       291  *  Implied 4th argument for some entries.
                                       292  *
   000172    000000000000              293  ZERO     DEC      0
   000173    055063064063              294  MIN      ASCII     3,-34359738368           -2**35
   000174    065071067063
   000175    070063066070
 11:12 01/06/95  FILE=XPN_7NS0TOU:a.:XBC3TSI                                                             9    BMAP - B00
                                       295           END
 1 000000    777777777777

  CONTROL SECTION TABLE

   0 CODE   EVEN  000176
   1 RODATA EVEN  000001 LITERALS

 11:12 01/06/95  FILE=XPN_7NS0TOU:a.:XBC3TSI  SYMBOL TABLE                                               10   BMAP - B00
 01101000 000000000072 ANYHOW         151      *182
 41000000 000000000004 ASC_SOURCE     *72       184       284       285       286
 41000000 000000000002 AUTO           *84       107       115       124       132       141       157
                                      165       174       180       183       184       190       191
                                      192       195       196       203       212       223       225
                                      230       237       239       250       252       259       261
                                      269       274       288       289
 41000000 000000000014 AUTOSZ         *83       105       113       122       130       139       155
                                      163       172
 01101000 000000000135 BIGGER        *235       247
 41000000 000000000011 BINARY         *88       191       192       195       196       212       225
                                      230       237       239       250       252       259       288
                                      289
 41000000 000000000003 BIT_TARG       *71       183       260       273
 01101000 000000000117 CONT           205      *216
 01101000 000000000133 CONTS          217       228      *232
 41000000 000000000002 COUNTER        *99       232       246       253
 41000000 000000000003 DESC_XR        *93       106       114       123       131       140       156
                                      164       173       201       208       221
 41000000 000000000004 DEST_XR        *94       134       143       148       179       202       216
 01101000 000000000152 DONE           236      *258
 41000000 000000000007 INDICATE       *86       190       261       274
 01101000 000000000111 LABEL          204      *206
 41000000 000000000011 LENGTH_IN_REG *282       284       285       286
 01101000 000000000166 LS_DESC        114       140       164       221      *285
 01101000 000000000173 MIN            209      *294
 41000000 000000000000 MISC_PTR       *95       107       108       115       116       124       125
                                      132       133       141       142       157       158       165
                                      166       174       175
 01101000 000000000162 NEG            270      *272
 01101000 000000000042 NO_POW         109       118      *147
 01101000 000000000043 NO_POWU        135       145      *149
 01101000 000000000165 NS_DESC        106       131       156      *284
 01101000 000000000156 OVERFLOW       210       227       231       245      *267
 41000000 000000000001 POWER_10       *73       150       180       232
 40000000 000000000010 SCRTCH         *87
 41000000 000000000012 SIGN           *89       203       223       269
 11:12 01/06/95  FILE=XPN_7NS0TOU:a.:XBC3TSI  SYMBOL TABLE                                               11   BMAP - B00
 01101000 000000000170 SI_DESC        148       179      *288
 01101000 000000000145 SMALLER        233      *249       254
 41000000 000000000001 S_LEN          *77       108       116       117       125       126       133
                                      142       144       158       166       167       175       176
                                      282
 01101000 000000000167 TS_DESC        123       173      *286
 01101000 000000000171 UI_DESC        134       143       216      *289
 01101000 000000000131 UU_TEST        222       224      *230
 01101000 000000000070 WITH_POW       159       168      *178
 03201000 000000000000 X66_AUTO_3     *63       104       112       121       129       138
 03201003 000000000000 X66_AUTO_4     *66       154       162       171
 03201002 000000000000 X66_FAALT      *65       275
 03201001 000000000000 X66_FARET      *64       262
 12101000 000000000006 XPN_7LS0TOI     55      *111
 12101000 000000000032 XPN_7LS0TOU     61      *137
 12101000 000000000053 XPN_7LSPTOI     58      *161
 12101000 000000000000 XPN_7NS0TOI     54      *103
 12101000 000000000023 XPN_7NS0TOU     60      *128
 12101000 000000000045 XPN_7NSPTOI     57      *153
 12101000 000000000015 XPN_7TS0TOI     56      *120
 12101000 000000000062 XPN_7TSPTOI     59      *170
 01101000 000000000172 ZERO           150      *293

      47 SYMBOLS

       0 MACROS

    SYMBOL SPACE USED   814 WORDS
     MACRO SPACE USED     0 WORDS
   INPUT RECORDS READ   590
 STATEMENTS PROCESSED   205
         ELAPSED TIME  0:01.44
             CPU TIME     1.23 SEC.
        ASSEMBLY RATE 10000 STATEMENTS/CPU MIN.

      NO ERRORS

