
 11:17 01/06/95  FILE=xb_char:a.:XBC3TSI                                                                 1    BMAP - B00
                                         1  *T***********************************************************
                                         2  *T*                                                         *
                                         3  *T* Copyright (c) Bull HN Information Systems Inc., 1989    *
                                         4  *T*                                                         *
                                         5  *T***********************************************************
                                         6                LODM           xbi_std_ig
                                         7
                                         8                ENTDEF         isalnum
                                         9                ENTDEF         isalpha
                                        10                ENTDEF         iscntrl
                                        11                ENTDEF         isdigit
                                        12                ENTDEF         isgraph
                                        13                ENTDEF         islower
                                        14                ENTDEF         isprint
                                        15                ENTDEF         ispunct
                                        16                ENTDEF         isspace
                                        17                ENTDEF         isupper
                                        18                ENTDEF         isxdigit
                                        19                ENTDEF         tolower
                                        20                ENTDEF         toupper
                                        21                ENTDEF         isascii
                                        22
                                        23
                                        24                SYMREF         C$ISALNUM
                                        25                SYMREF         C$ISALPHA
                                        26                SYMREF         C$ISXDIGIT
                                        27                SYMREF         C$ISPUNCT
                                        28
                                        29  *D* PROTOTYPE: int isalnum (int a)
                                        30  *,* DESCRIPTION: a should within the range 0..511 or EOF (-1).
                                        31  *,*   True is returned if 'a' has the ordinal value of a digit
                                        32  *,*   or letter.
                                        33  */
          (0)000000000000               34  isalnum       EQU            *
 0 000000    0 00000 2351 00            35                LDA            0,,PR0         load a into A
   000001    000000 6040 11             36                TMI            0,X1           ALTRETURN if EOF (-1)
   000002    000777 3750 07             37                ANA            =o777,DL       cast int to char
 11:17 01/06/95  FILE=xb_char:a.:XBC3TSI                                                                 2    BMAP - B00
   000003    000005 7730 00             38                LRL            5              word offset in AL
   000004    000037 7720 00             39                QRL            31             bit offset in QL
   000005  X 000000 2350 05             40                LDA            C$ISALNUM,AL   load word from table
   000006    000004 7350 06             41                ALS            4,QL           shift bit to 0 position in A
   000007    000107 7730 00             42                LRL            71             shift bit to 35 position in Q
   000010    000001 7100 11             43                TRA            1,X1           That's all folks!
                                        44
                                        45  *D* PROTOTYPE: int isalpha (int a)
                                        46  *,* DESCRIPTION: a should within the range 0..511 or EOF (-1).
                                        47  *,*   True is returned if 'a' has the ordinal value of a letter.
                                        48  */
          (0)000000000011               49  isalpha       EQU            *
   000011    0 00000 2351 00            50                LDA            0,,PR0         load a into A
   000012    000000 6040 11             51                TMI            0,X1           ALTRETURN if EOF (-1)
   000013    000777 3750 07             52                ANA            =o777,DL       cast int to char
   000014    000005 7730 00             53                LRL            5              word offset in AL
   000015    000037 7720 00             54                QRL            31             bit offset in QL
   000016  X 000000 2350 05             55                LDA            C$ISALPHA,AL   load word from table
   000017    000004 7350 06             56                ALS            4,QL           shift bit to 0 position in A
   000020    000107 7730 00             57                LRL            71             shift bit to 35 position in Q
   000021    000001 7100 11             58                TRA            1,X1           That's all folks!
                                        59
                                        60  *D* PROTOTYPE: int iscntrl (int a)
                                        61  *,* DESCRIPTION: a should within the range 0..511 or EOF (-1).
                                        62  *,*   True is returned if 'a' has the ordinal value of a control
                                        63  *,*   character.
                                        64  */
          (0)000000000022               65  iscntrl       EQU            *
   000022 (0)000140 2370 00             66                LDAQ           CNTRL_RANGE
   000023    0 00000 1111 00            67                CWL            0,,PR0         is it in the range 0..31?
   000024 (0)000136 6000 00             68                TZE            RETURN_TRUE
   000025    0 00000 2361 00            69                LDQ            0,,PR0
   000026    000177 1160 07             70                CMPQ           =o177,DL        is it the del character?
   000027 (0)000136 6000 00             71                TZE            RETURN_TRUE
   000030    000000 7100 11             72                TRA            0,X1           ALTRETURN to return false
                                        73
                                        74  *D* PROTOTYPE: int isdigit (int a)
 11:17 01/06/95  FILE=xb_char:a.:XBC3TSI                                                                 3    BMAP - B00
                                        75  *,* DESCRIPTION: a should within the range 0..511 or EOF (-1).
                                        76  *,*   True is returned if 'a' has the ordinal value of a decimal
                                        77  *,*   digit.
                                        78  */
          (0)000000000031               79  isdigit       EQU            *
   000031 (0)000142 2370 00             80                LDAQ           DIGIT_RANGE
   000032    0 00000 1111 00            81                CWL            0,,PR0
   000033    000000 6010 11             82                TNZ            0,X1           ALTRETURN to set false
   000034    000001 2360 07             83                LDQ            1,DL           return true
   000035    000001 7100 11             84                TRA            1,X1
                                        85
                                        86  *D* PROTOTYPE: int isgraph (int a)
                                        87  *,* DESCRIPTION: a should within the range 0..511 or EOF (-1).
                                        88  *,*   True is returned if 'a' has the ordinal value of any printable
                                        89  *,*   character except space (' ').
                                        90  */
          (0)000000000036               91  isgraph       EQU            *
   000036 (0)000144 2370 00             92                LDAQ           GRAPH_RANGE
   000037    0 00000 1111 00            93                CWL            0,,PR0
   000040    000000 6010 11             94                TNZ            0,X1           ALTRETURN to set false
   000041    000001 2360 07             95                LDQ            1,DL           return true
   000042    000001 7100 11             96                TRA            1,X1
                                        97
                                        98  *D* PROTOTYPE: int islower (int a)
                                        99  *,* DESCRIPTION: a should within the range 0..511 or EOF (-1).
                                       100  *,*   True is returned if 'a' has the ordinal value of any lowercase
                                       101  *,*   letter.
                                       102  */
          (0)000000000043              103  islower       EQU            *
   000043 (0)000146 2370 00            104                LDAQ           LOWER_RANGE
   000044    0 00000 1111 00           105                CWL            0,,PR0
   000045    000000 6010 11            106                TNZ            0,X1           ALTRETURN to set false
   000046    000001 2360 07            107                LDQ            1,DL           return true
   000047    000001 7100 11            108                TRA            1,X1
                                       109
                                       110  *D* PROTOTYPE: int isprint (int a)
                                       111  *,* DESCRIPTION: a should within the range 0..511 or EOF (-1).
 11:17 01/06/95  FILE=xb_char:a.:XBC3TSI                                                                 4    BMAP - B00
                                       112  *,*   True is returned if 'a' has the ordinal value of any printable
                                       113  *,*   character including space (' ').
                                       114  */
          (0)000000000050              115  isprint       EQU            *
   000050 (0)000150 2370 00            116                LDAQ           PRINT_RANGE
   000051    0 00000 1111 00           117                CWL            0,,PR0
   000052    000000 6010 11            118                TNZ            0,X1           ALTRETURN to set false
   000053    000001 2360 07            119                LDQ            1,DL           return true
   000054    000001 7100 11            120                TRA            1,X1
                                       121
                                       122  *D* PROTOTYPE: int ispunct (int a)
                                       123  *,* DESCRIPTION: a should within the range 0..511 or EOF (-1).
                                       124  *,*   True is returned if 'a' has the ordinal value of a printable
                                       125  *,*   character except space (' ') or a charactr for which isalnum is
                                       126  *,*   true.
                                       127  */
          (0)000000000055              128  ispunct       EQU            *
   000055    0 00000 2351 00           129                LDA            0,,PR0         load a into A
   000056    000000 6040 11            130                TMI            0,X1           ALTRETURN if EOF (-1)
   000057    000777 3750 07            131                ANA            =o777,DL       cast int to char
   000060    000005 7730 00            132                LRL            5              word offset in AL
   000061    000037 7720 00            133                QRL            31             bit offset in QL
   000062  X 000000 2350 05            134                LDA            C$ISPUNCT,AL   load word from table
   000063    000004 7350 06            135                ALS            4,QL           shift bit to 0 position in A
   000064    000107 7730 00            136                LRL            71             shift bit to 35 position in Q
   000065    000001 7100 11            137                TRA            1,X1           That's all folks!
                                       138
                                       139  *D* PROTOTYPE: int isspace (int a)
                                       140  *,* DESCRIPTION: a should within the range 0..511 or EOF (-1).
                                       141  *,*   True is returned if 'a' has the ordinal value of the ASCII HT, LF,
                                       142  *,*   VT, FF, CR or SPACE character.
                                       143  */
          (0)000000000066              144  isspace       EQU            *
   000066 (0)000152 2370 00            145                LDAQ           SPACE_RANGE
   000067    0 00000 1111 00           146                CWL            0,,PR0         is it in the range 0..31?
   000070 (0)000136 6000 00            147                TZE            RETURN_TRUE
   000071    0 00000 2361 00           148                LDQ            0,,PR0
 11:17 01/06/95  FILE=xb_char:a.:XBC3TSI                                                                 5    BMAP - B00
   000072    000040 1160 07            149                CMPQ           =o040,DL        is it the space character?
   000073 (0)000136 6000 00            150                TZE            RETURN_TRUE
   000074    000000 7100 11            151                TRA            0,X1           ALTRETURN to return false
                                       152
                                       153  *D* PROTOTYPE: int isupper (int a)
                                       154  *,* DESCRIPTION: a should within the range 0..511 or EOF (-1).
                                       155  *,*   True is returned if 'a' has the ordinal value of any uppercase
                                       156  *,*   letter.
                                       157  */
          (0)000000000075              158  isupper       EQU            *
   000075 (0)000154 2370 00            159                LDAQ           UPPER_RANGE
   000076    0 00000 1111 00           160                CWL            0,,PR0
   000077    000000 6010 11            161                TNZ            0,X1           ALTRETURN to set false
   000100    000001 2360 07            162                LDQ            1,DL           return true
   000101    000001 7100 11            163                TRA            1,X1
                                       164
                                       165  *D* PROTOTYPE: int isxdigit (int a)
                                       166  *,* DESCRIPTION: a should within the range 0..511 or EOF (-1).
                                       167  *,*   True is returned if 'a' has the ordinal value of a hexadecimal
                                       168  *,*   digit (characters '0'..'9', 'A'..'F', 'a'..'f').
                                       169  */
          (0)000000000102              170  isxdigit      EQU            *
   000102    0 00000 2351 00           171                LDA            0,,PR0         load a into A
   000103    000000 6040 11            172                TMI            0,X1           ALTRETURN if EOF (-1)
   000104    000777 3750 07            173                ANA            =o777,DL       cast int to char
   000105    000005 7730 00            174                LRL            5              word offset in AL
   000106    000037 7720 00            175                QRL            31             bit offset in QL
   000107  X 000000 2350 05            176                LDA            C$ISXDIGIT,AL  load word from table
   000110    000004 7350 06            177                ALS            4,QL           shift bit to 0 position in A
   000111    000107 7730 00            178                LRL            71             shift bit to 35 position in Q
   000112    000001 7100 11            179                TRA            1,X1           That's all folks!
                                       180
                                       181  *D* PROTOTYPE: int tolower (int a)
                                       182  *,* DESCRIPTION: a should within the range 0..511 or EOF (-1).
                                       183  *,*   If 'a' is an uppercase character, it is converted to lowercase and
                                       184  *,*   returned, otherwise 'a' is returned.
                                       185  */
 11:17 01/06/95  FILE=xb_char:a.:XBC3TSI                                                                 6    BMAP - B00
   000113    0 00000 2361 00           186  tolower       LDQ            0,,PR0
   000114    000101 1160 07            187                CMPQ           =o101,DL
   000115    000001 6040 11            188                TMI            1,X1           return if a < 'A'
   000116    000132 1160 07            189                CMPQ           =o132,DL
   000117    000001 6054 11            190                TPNZ           1,X1           return if a > 'Z'
   000120    000040 0760 07            191                ADQ            =o040,DL       convert to lowercase
   000121    000001 7100 11            192                TRA            1,X1           return
                                       193
                                       194  *D* PROTOTYPE: int toupper (int a)
                                       195  *,* DESCRIPTION: a should within the range 0..511 or EOF (-1).
                                       196  *,*   If 'a' is an lowercase character, it is converted to uppercase and
                                       197  *,*   returned, otherwise 'a' is returned.
                                       198  */
   000122    0 00000 2361 00           199  toupper       LDQ            0,,PR0
   000123    000141 1160 07            200                CMPQ           =o141,DL
   000124    000001 6040 11            201                TMI            1,X1           return if a < 'a'
   000125    000172 1160 07            202                CMPQ           =o172,DL
   000126    000001 6054 11            203                TPNZ           1,X1           return if a > 'z'
   000127    000040 1760 07            204                SBQ            =o040,DL       convert to uppercase
   000130    000001 7100 11            205                TRA            1,X1           return
                                       206
                                       207  *D* PROTOTYPE: int isascii (int a)
                                       208  *,* DESCRIPTION: a should within the range 0..511 or EOF (-1).
                                       209  *,*   True is returned if 'a' has the ordinal value of any ascii
                                       210  *,*   character.
                                       211  */
          (0)000000000131              212  isascii       EQU            *
   000131 (0)000156 2370 00            213                LDAQ           ASCII_RANGE
   000132    0 00000 1111 00           214                CWL            0,,PR0
   000133    000000 6010 11            215                TNZ            0,X1           ALTRETURN to set false
   000134    000001 2360 07            216                LDQ            1,DL           return true
   000135    000001 7100 11            217                TRA            1,X1
                                       218
          (0)000000000136              219  RETURN_TRUE   EQU            *
   000136    000001 2360 07            220                LDQ            1,DL
   000137    000001 7100 11            221                TRA            1,X1
                                       222
 11:17 01/06/95  FILE=xb_char:a.:XBC3TSI                                                                 7    BMAP - B00
                                       223                EVEN
   000140    000000000000              224  CNTRL_RANGE   OCT            0
   000141    000000000037              225                OCT            37
   000142    000000000060              226  DIGIT_RANGE   OCT            60
   000143    000000000071              227                OCT            71
   000144    000000000041              228  GRAPH_RANGE   OCT            41
   000145    000000000176              229                OCT            176
   000146    000000000141              230  LOWER_RANGE   OCT            141
   000147    000000000172              231                OCT            172
   000150    000000000040              232  PRINT_RANGE   OCT            40
   000151    000000000176              233                OCT            176
   000152    000000000011              234  SPACE_RANGE   OCT            11
   000153    000000000015              235                OCT            15
   000154    000000000101              236  UPPER_RANGE   OCT            101
   000155    000000000132              237                OCT            132
   000156    000000000000              238  ASCII_RANGE   OCT            0
   000157    000000000177              239                OCT            177
                                       240                END

  CONTROL SECTION TABLE

   0 CODE   EVEN  000160
   1 RODATA EVEN  000000 LITERALS

 11:17 01/06/95  FILE=xb_char:a.:XBC3TSI      SYMBOL TABLE                                               8    BMAP - B00
 00101000 000000000000 /*T*            *6
 00101000 000000000000 /*T***************************      *6
 01101000 000000000156 ASCII_RANGE    213      *238
 40000000 000000000102 AUTO            *6
 03301000 000000000000 C$ISALNUM      *24        40
 03301001 000000000000 C$ISALPHA      *25        55
 03301003 000000000000 C$ISPUNCT      *27       134
 03301002 000000000000 C$ISXDIGIT     *26       176
 01101000 000000000140 CNTRL_RANGE     66      *224
 01101000 000000000142 DIGIT_RANGE     80      *226
 01101000 000000000144 GRAPH_RANGE     92      *228
 52101000 000000000000 ISALNUM          8       *34
 52101000 000000000011 ISALPHA          9       *49
 52101000 000000000131 ISASCII         21      *212
 52101000 000000000022 ISCNTRL         10       *65
 52101000 000000000031 ISDIGIT         11       *79
 52101000 000000000036 ISGRAPH         12       *91
 52101000 000000000043 ISLOWER         13      *103
 52101000 000000000050 ISPRINT         14      *115
 52101000 000000000055 ISPUNCT         15      *128
 52101000 000000000066 ISSPACE         16      *144
 52101000 000000000075 ISUPPER         17      *158
 52101000 000000000102 ISXDIGIT        18      *170
 01101000 000000000146 LOWER_RANGE    104      *230
 41000000 000000000100 PR0             *6        35        50        67        69        81        93
                                      105       117       129       146       148       160       171
                                      186       199       214
 41000000 000000000101 PR1             *6
 41000000 000000000102 PR2             *6
 41000000 000000000103 PR3             *6
 41000000 000000000104 PR4             *6
 41000000 000000000105 PR5             *6
 41000000 000000000106 PR6             *6
 40000000 000000000107 PR7             *6
 01101000 000000000150 PRINT_RANGE    116      *232
 41101000 000000000136 RETURN_TRUE     68        71       147       150      *219
 01101000 000000000152 SPACE_RANGE    145      *234
 11:17 01/06/95  FILE=xb_char:a.:XBC3TSI      SYMBOL TABLE                                               9    BMAP - B00
 12101000 000000000113 TOLOWER         19      *186
 12101000 000000000122 TOUPPER         20      *199
 01101000 000000000154 UPPER_RANGE    159      *236

      38 SYMBOLS

       0 MACROS

    SYMBOL SPACE USED   465 WORDS
     MACRO SPACE USED     0 WORDS
   INPUT RECORDS READ   496
 STATEMENTS PROCESSED   191
         ELAPSED TIME  0:01.12
             CPU TIME     0.99 SEC.
        ASSEMBLY RATE 11576 STATEMENTS/CPU MIN.

      NO ERRORS

