
 11:16 01/06/95  FILE=xb_drand48:a.:XBC3TSI                                                              1    BMAP - B00
                                         1  *M*  drand48(3c) -- random number generator based upon 48-bit seed
                                         2  *
                                         3  *P*  NAME:          drand48
                                         4  *,*  PURPOSE:       To provide uniformly generated pseudo-random
                                         5  *,*                 number generators.
                                         6  *,*
                                         7  *,*  DESCRIPTION:
                                         8  *,*
                                         9  *,*     This family of functions generates pseudo-random numbers
                                        10  *,*     using a linear congruential algorithm and 48-bit integer
                                        11  *,*     arithmetic.
                                        12  *,*
                                        13  *,*     The functions drand48 and erand48 return non-negative
                                        14  *,*     double precision floating point values distributed over
                                        15  *,*     the interval [0.0, 1.0).
                                        16  *,*
                                        17  *,*     The functions lrand48 and nrand48 return non-negative
                                        18  *,*     31 bit integers uniformly distributed over the interval
                                        19  *,*     [0, 2**31).
                                        20  *,*
                                        21  *,*     The functions mrand48 and jrand48 return signed 32 bit
                                        22  *,*     integers uniformly distributed over the interval
                                        23  *,*     [-2**31, 2**31).
                                        24  *,*
                                        25  *,*     The functions srand48, seed48 and lcong48 are
                                        26  *,*     initialization functions, one of which should be invoked
                                        27  *,*     before either drand48, lrand48 or mrand48 is used
                                        28  *,*     (although it is not recommended practice, constant default
                                        29  *,*     initializer values are automatically supplied when
                                        30  *,*     drand48, lrand48 or mrand48 is called without a prior
                                        31  *,*     initialization).  The functions erand48, nrand48 and
                                        32  *,*     do not require that an initialization function to be
                                        33  *,*     called first.
                                        34  *,*
                                        35  *,*     The linear congruential formula used by these functions
                                        36  *,*     is:
                                        37  *,*
 11:16 01/06/95  FILE=xb_drand48:a.:XBC3TSI                                                              2    BMAP - B00
                                        38  *,*        X     =  (aX + c)
                                        39  *,*         n+1        n     mod m
                                        40  *,*
                                        41  *,*     The parameter m = 2**48; which means that 48 bit integer
                                        42  *,*     arithmetic is performed by this formula.  Unless the
                                        43  *,*     function lcong48 has been invoked, the multiplier value
                                        44  *,*     (a) and the addend value (c) are:
                                        45  *,*
                                        46  *,*        a = 25214903917
                                        47  *,*        c = 11
                                        48  *,*
                                        49  *,*     The return value is computed by generating the next  X[i]
                                        50  *,*     in the series and then copying the high-order (leftmost)
                                        51  *,*     bits of X and transforming it into the return value.
                                        52  *,*
                                        53  *,*     The functions drand48, lrand48 and mrand48 use a common
                                        54  *,*     local seed.  The functions erand48, nrand48 and jrand48
                                        55  *,*     require the calling program to provide storage for the
                                        56  *,*     current seed values.  By using different arguments, the
                                        57  *,*     functions erand48, nrand48 and jrand48 allow separate
                                        58  *,*     portions of a large system to generate independent streams
                                        59  *,*     of random numbers.
                                        60  *,*
                                        61  *,*     The initializer function seed48 initializes the value of
                                        62  *,*     X[i] by copying it into the local seed used by drand48,
                                        63  *,*     lrand48 and mrand48.  Additionally, the previous value
                                        64  *,*     of X[i] is saved and its address is returned.
                                        65  *,*
                                        66  *,*     The initializer function lcong48 permits the initial seed
                                        67  *,*     X[i], the multiplier and the addend value to be
                                        68  *,*     initialized.  The argument to lclong48 is an array of
                                        69  *,*     short containing the following values:
                                        70  *,*
                                        71  *,*           index       usage
                                        72  *,*           [0..2]      X[i]
                                        73  *,*           [3..5]      multiplier
                                        74  *,*           [6]         addend
 11:16 01/06/95  FILE=xb_drand48:a.:XBC3TSI                                                              3    BMAP - B00
                                        75  *,*
                                        76  *,*     After lcong48 has been executed, a subsequent execution
                                        77  *,*     of srand48 or seed48 will restore the default multiplier
                                        78  *,*     and addend values.
                                        79  *,*
                                        80  *
                                        81  *
                                        82  *D*  NAME:    drand48()
                                        83  *,*
                                        84  *,*  PURPOSE: To return a uniformly distributed double precision
                                        85  *,*           floating point number in the range [0.0, 1.0).
                                        86  *,*
                                        87  *,*  DESCRIPTION:
                                        88  *,*
                                        89  *,*     drand48 uses the internal seed, multiplier and addend.
                                        90  *,*
                                        91  *
                                        92  *
                                        93  *D*  NAME:    erand48(unsigned short xsubi[3])
                                        94  *,*
                                        95  *,*  PURPOSE: To return a uniformly distributed double precision
                                        96  *,*           floating point number in the range [0.0, 1.0).
                                        97  *,*
                                        98  *,*  DESCRIPTION:
                                        99  *,*
                                       100  *,*     erand48 has a single parameter which is the seed.
                                       101  *,*
                                       102  *
                                       103             ENTDEF   drand48
                                       104             ENTDEF   erand48
                                       105             ENTDEF   lrand48
                                       106             ENTDEF   nrand48
                                       107             ENTDEF   mrand48
                                       108             ENTDEF   jrand48
                                       109             ENTDEF   srand48
                                       110             ENTDEF   seed48
                                       111             ENTDEF   lcong48
 11:16 01/06/95  FILE=xb_drand48:a.:XBC3TSI                                                              4    BMAP - B00
                                       112  *
                                       113             SEGREF   ISSID
                                       114  *
 0 000000                              115  drand48    NULL
   000000 (2)000000 6304 00            116             EPPR0    XBI_RAND48_SEED
   000001 (0)000003 7100 00            117             TRA      erand0
                                       118  *
   000002                              119  erand48    NULL
   000002    0 00000 4705 00           120             LDP0     0,,0
   000003                              121  erand0     NULL
   000003 (0)000012 7000 00            122             TSX0     XBI_RAND48
   000004    0 00000 2351 00           123             LDA      0,,0
   000005    0 00001 2361 00           124             LDQ      1,,0
   000006    000027 7370 00            125             LLS      71-48
   000007    000000 4110 07            126             LDE      0,DL
   000010    400000 4750 03            127             FAD     =O400000,DU
   000011    000001 7100 11            128             TRA      1,1
                                       129  *
                                       130  *
   000012                              131  XBI_RAND48 NULL
   000012    0 00000 2351 00           132             LDA      0,,0
   000013    0 00001 2361 00           133             LDQ      1,,0
   000014    000043 7330 00            134             LRS      35             Get high 13 bits into Q
   000015 (2)000007 4020 00            135             MPY      XBI_RAND48_M+1    and generate bits for A
   000016    000043 7370 00            136             LLS      35
   000017 (2)000002 7570 00            137             STAQ     XBI_RAND48_S
   000020    0 00001 2361 00           138             LDQ      1,,0
   000021 (1)000000 3760 00            139             ANQ     =O377777777777
   000022 (2)000007 4020 00            140             MPY      XBI_RAND48_M+1 Generate low order bits
   000023 (2)000002 0370 00            141             ADLAQ    XBI_RAND48_S      merge with high order bits
   000024 (2)000004 0370 00            142             ADLAQ    XBI_RAND48_A      and add in addend
   000025 (0)000100 3770 00            143             ANAQ     XBI_RAND48_MSK    and mod to 48 bits.
   000026    0 00000 7551 00           144             STA      0,,0
   000027    0 00001 7561 00           145             STQ      1,,0
   000030    000000 7100 10            146             TRA      0,0            and return to caller.
                                       147  *
                                       148  *
 11:16 01/06/95  FILE=xb_drand48:a.:XBC3TSI                                                              5    BMAP - B00
                                       149  *D*  NAME:       lrand48()
                                       150  *,*
                                       151  *,*  PURPOSE:    To generate non-negative uniformly distributed
                                       152  *,*              long integers in the range [0, 2**31).
                                       153  *,*
                                       154  *,*  DESCRIPTION:
                                       155  *,*
                                       156  *,*     lrand48 uses the internal seed.
                                       157  *,*
                                       158  *
                                       159  *
                                       160  *D*  NAME:       nrand48(unsigned short xsubi[3])
                                       161  *,*
                                       162  *,*  PURPOSE:    To generate non-negative uniformly distributed
                                       163  *,*              long integers in the range [0, 2**31).
                                       164  *,*
                                       165  *,*  DESCRIPTION:
                                       166  *,*
                                       167  *,*     nrand48 provides its own internal seed.
                                       168  *,*
                                       169  *
                                       170  *
   000031                              171  lrand48    NULL
   000031 (2)000000 6304 00            172             EPPR0    XBI_RAND48_SEED
   000032 (0)000034 7100 00            173             TRA      nrand0
                                       174  *
   000033                              175  nrand48    NULL
   000033    0 00000 4705 00           176             LDP0     0,,0
   000034                              177  nrand0     NULL
   000034 (0)000012 7000 00            178             TSX0     XBI_RAND48
   000035    0 00000 2351 00           179             LDA      0,,0
   000036    0 00001 2361 00           180             LDQ      1,,0
   000037    000021 7330 00            181             LRS      13+4
   000040 (1)000000 3760 00            182             ANQ     =O377777777777
   000041    000001 7100 11            183             TRA      1,1
                                       184  *
                                       185  *D*  NAME:       mrand48()
 11:16 01/06/95  FILE=xb_drand48:a.:XBC3TSI                                                              6    BMAP - B00
                                       186  *,*
                                       187  *,*  PURPOSE:    To generate non-negative uniformly distributed
                                       188  *,*              long integers in the range [-2**31, 2**31).
                                       189  *,*
                                       190  *,*  DESCRIPTION:
                                       191  *,*
                                       192  *,*     mrand48 uses the internal seed.
                                       193  *,*
                                       194  *
                                       195  *
                                       196  *D*  NAME:       jrand48(unsigned short xsubi[3])
                                       197  *,*
                                       198  *,*  PURPOSE:    To generate non-negative uniformly distributed
                                       199  *,*              long integers in the range [-2**31, 2**31).
                                       200  *,*
                                       201  *,*  DESCRIPTION:
                                       202  *,*
                                       203  *,*     jrand48 provides its own internal seed.
                                       204  *,*
                                       205  *
                                       206  *
   000042                              207  mrand48    NULL
   000042 (2)000000 6304 00            208             EPPR0    XBI_RAND48_SEED
   000043 (0)000045 7100 00            209             TRA      jrand0
                                       210  *
   000044                              211  jrand48    NULL
   000044    0 00000 4705 00           212             LDP0     0,,0
   000045                              213  jrand0     NULL
   000045 (0)000012 7000 00            214             TSX0     XBI_RAND48
   000046    0 00000 2351 00           215             LDA      0,,0
   000047    0 00001 2361 00           216             LDQ      1,,0
   000050    000014 7330 00            217             LRS      12
   000051    000004 7320 00            218             QRS      4
   000052    000001 7100 11            219             TRA      1,1
                                       220  *
                                       221  *
                                       222  *,*  NAME:       srand48(long seedval);
 11:16 01/06/95  FILE=xb_drand48:a.:XBC3TSI                                                              7    BMAP - B00
                                       223  *,*
                                       224  *,*  PURPOSE:    To initialize the internal seed value used by
                                       225  *,*              the drand48, lrand48 and mrand48 functions.
                                       226  *,*
                                       227  *
                                       228  *
                                       229  *D*  NAME:       seed48(unsigned short seed16v[3])
                                       230  *,*  PURPOSE:    To initialize the internal seed value used by
                                       231  *,*              the drand48, lrand48 and mrand48 functions.
                                       232  *,*
                                       233  *
                                       234  *D*  NAME:       lcong48(unsigned short param[7])
                                       235  *,*
                                       236  *,*  PURPOSE:    To initialize the internal seed value, the
                                       237  *,*              multiplier and addend used by the 48-bit linear
                                       238  *,*              congruential pseudo-random number generator.
                                       239  *,*
                                       240  *
                                       241  *
   000053                              242  srand48    NULL
   000053 (2)000000 4500 00            243             STZ      XBI_RAND48_SEED
   000054    0 00000 2361 00           244             LDQ      0,,0
   000055 (2)000001 7560 00            245             STQ      XBI_RAND48_SEED+1
   000056    000001 7100 11            246             TRA      1,1
                                       247  *
                                       248  *
   000057                              249  seed48     NULL
   000057 (2)000000 2370 00            250             LDAQ     XBI_RAND48_SEED
   000060 (2)000002 7570 00            251             STAQ     XBI_RAND48_S
   000061    0 00000 4705 00           252             LDP0     0,,0
   000062    0 00000 2351 00           253             LDA      0,,0
   000063    0 00001 2361 00           254             LDQ      1,,0
   000064 (2)000000 7570 00            255             STAQ     XBI_RAND48_SEED
   000065 (0)000102 2360 00            256             LDQ      XBI_RAND48_PV
   000066    000001 7100 11            257             TRA      1,1
                                       258  *
                                       259  *
 11:16 01/06/95  FILE=xb_drand48:a.:XBC3TSI                                                              8    BMAP - B00
   000067                              260  lcong48    NULL
   000067    0 00000 4705 00           261             LDP0     0,,0
   000070    0 00000 2351 00           262             LDA      0,,0
   000071    0 00001 2361 00           263             LDQ      1,,0
   000072 (2)000000 7570 00            264             STAQ     XBI_RAND48_SEED
   000073    0 00005 2351 00           265             LDA      5,,0
   000074 (2)000007 7550 00            266             STA      XBI_RAND48_M+1
   000075    0 00006 2351 00           267             LDA      6,,0
   000076 (2)000004 7550 00            268             STA      XBI_RAND48_A
   000077    000001 7100 11            269             TRA      1,1
                                       270  *
                                       271  *
                                       272             EVEN
   000100                              273  XBI_RAND48_MSK NULL
   000100    000000007777              274             OCT      000000007777
   000101    777777777777              275             OCT      777777777777
   000102                              276  XBI_RAND48_PV  NULL
   000102 (2)000002 X 000000           277             ZERO     XBI_RAND48_S,ISSID
                                       278  *
 2 000000                              279             USE      XBI_RAND48_D,0
                                       280             EVEN
   000000                              281  XBI_RAND48_SEED  NULL
   000000    000000000000              282             OCT      0,1460
   000001    000000001460
                                       283             EVEN
   000002                              284  XBI_RAND48_S     NULL
   000002    000000000000              285             OCT      0,0
   000003    000000000000
                                       286             EVEN
   000004                              287  XBI_RAND48_A     NULL
   000004    000000000000              288             OCT      0,13
   000005    000000000013
                                       289             EVEN
   000006                              290  XBI_RAND48_M     NULL
   000006    000000000000              291             OCT      0,273673163155
   000007    273673163155
                                       292             END
 11:16 01/06/95  FILE=xb_drand48:a.:XBC3TSI                                                              9    BMAP - B00
 1 000000    377777777777

  CONTROL SECTION TABLE

   0 CODE   EVEN  000103
   1 RODATA EVEN  000001 LITERALS
   2 DATA   EVEN  000010 XBI_RAND48_D

 11:16 01/06/95  FILE=xb_drand48:a.:XBC3TSI   SYMBOL TABLE                                               10   BMAP - B00
 12101000 000000000000 DRAND48        103      *115
 01101000 000000000003 ERAND0         117      *121
 12101000 000000000002 ERAND48        104      *119
 03601000 000000000000 ISSID         *113       277
 01101000 000000000045 JRAND0         209      *213
 12101000 000000000044 JRAND48        108      *211
 12101000 000000000067 LCONG48        111      *260
 12101000 000000000031 LRAND48        105      *171
 12101000 000000000042 MRAND48        107      *207
 01101000 000000000034 NRAND0         173      *177
 12101000 000000000033 NRAND48        106      *175
 12101000 000000000057 SEED48         110      *249
 12101000 000000000053 SRAND48        109      *242
 01101000 000000000012 XBI_RAND48     122      *131       178       214
 01101002 000000000004 XBI_RAND48_A   142       268      *287
 01101002 000000000006 XBI_RAND48_M   135       140       266      *290
 01101000 000000000100 XBI_RAND48_MSK           143      *273
 01101000 000000000102 XBI_RAND48_PV  256      *276
 01101002 000000000002 XBI_RAND48_S   137       141       251       277      *284
 01101002 000000000000 XBI_RAND48_SEED          116       172       208       243       245       250
                                      255       264      *281

      20 SYMBOLS

       0 MACROS

    SYMBOL SPACE USED   274 WORDS
     MACRO SPACE USED     0 WORDS
   INPUT RECORDS READ   584
 STATEMENTS PROCESSED   139
         ELAPSED TIME  0:01.28
             CPU TIME     0.90 SEC.
        ASSEMBLY RATE  9267 STATEMENTS/CPU MIN.

      NO ERRORS

