
PL6.E3A0      #001=FINFORM File=xb_finform:6.:XBC3TSI                            FRI 01/06/95 11:23 Page:1
        1        1        /*T***********************************************************/
        2        2        /*T*                                                         */
        3        3        /*T* Copyright (c) Bull HN Information Systems Inc., 1989    */
        4        4        /*T*                                                         */
        5        5        /*T***********************************************************/
        6        6        /**     finform function:
        7        7         **
        8        8         **     int
        9        9         **     finform (FILE fp, FILE_SET info)
       10       10         **
       11       11         **     Result: 0=failure, 1=successfull
       12       12         **/
       13       13        finform:  proc (passed_file_header, info) ;
       14       14
       15       15        %include   xb_finform_i6;
       16      123        %include   xb_stdio_i6;
       17      366        %include   CP_6;
       18     5926        %include   CP_6_SUBS;
       19     6466        %include   B$ROSEG;
       20     6529
       21     6530        %File_Header (Name=passed_file_header, Stclass=" ");
       22     6642
       23     6643        %FILE_SET(NAME=info,STCLASS="");
       24     6729
       25     6730        %F$DCB(BASED="BASED(DCB$)");
       26     6787
       27     6788        %File_Header (Name=fp, Stclass ="BASED (F$)");
       28     6900    1   DCL   F$      PTR;
       29     6901
       30     6902    1   dcl  B$ROS$      ptr symref;
       31     6903
       32     6904        %FPT_UNFID (  FPTN     =  UNFID_FPT_INIT,
       33     6905                      STCLASS  =  CONSTANT);
       34     6923
       35     6924    1   dcl  TEXTLEN     sbin;
       36     6925
       37     6926        %FPT_UNFID (  FPTN     =  UNFID_FPT,
PL6.E3A0      #001=FINFORM File=xb_finform:6.:XBC3TSI                            FRI 01/06/95 11:23 Page:2
       38     6927                      STCLASS  =  "");
       39     6945
       40     6946
       41     6947        %FPT_TRMCTL(  FPTN     =  FPT_TRMCTL_INIT,
       42     6948                      STCLASS  =  CONSTANT,
       43     6949                      DCB      =  M$UC,
       44     6950                      VLPTYPE  =  WINDOW);
       45     6977
       46     6978        %FPT_TRMCTL(  FPTN     =  FPT_TRMCTL,
       47     6979                      STCLASS  =  "");
       48     7006
       49     7007        %VLP_WINDOW(  FPTN     =  WINDOW,
       50     7008                      STCLASS  =  "");
       51     7052
       52     7053
       53     7054        %VLP_TAB(     FPTN     =  TABS, STCLASS=BASED);
       54     7068        %VLP_FPRG(    FPTN     =  VLP_FPRG, STCLASS="BASED(HDR$)");
       55     7089
       56     7090        %VLP_FORM(    FPTN     =  FORM,     STCLASS=BASED);
       57     7103        %VLP_HDR(     FPTN     =  HEADER,
       58     7104                      STCLASS  =  "BASED(HDR$)",
       59     7105                      LEN      =  HEADER.TITL.L#);
       60     7121
       61     7122        %VLP_SETSTA(  FPTN     =  STA, STCLASS="BASED(HDR$)");
       62     7150
       63     7151    1   dcl  XB_IO_ERROR   entry;
       64     7152    1   dcl  XBI_SET_ERRNO  entry(1) ;
       65     7153    1   dcl  XB_RETURN_ORDINAL_RESULT  entry(1) ;
       66     7154
       67     7155
       68     7156    1   dcl  DCB#        sbin;
       69     7157    1   dcl  DCB$        ptr;
       70     7158    1   dcl  HDR$        ptr;
       71     7159    1   dcl  I           sbin;
       72     7160
       73     7161
       74     7162    1   dcl  CHARNAMES   char(%(4*16)) based;
PL6.E3A0      #001=FINFORM File=xb_finform:6.:XBC3TSI                            FRI 01/06/95 11:23 Page:3
       75     7163
       76     7164    1        F$ = addr (passed_file_header);
       77     7165    1        info = '0'b;
       78     7166    2        if (F$ = addr(nil)) then do;
       79     7167    2           CALL XB_RETURN_ORDINAL_RESULT (1);
       80     7168    2        end;
       81     7169
       82     7170    1        DCB# = fp.fpt_read.v.dcb#;
       83     7171    1        DCB$  = dcbaddr(DCB#);
       84     7172    1        UNFID_FPT         = UNFID_FPT_INIT;
       85     7173    1        UNFID_FPT.V_      = vector(UNFID_FPT.V);
       86     7174    1        UNFID_FPT.V.DCB#  = DCB#;
       87     7175    1        UNFID_FPT.TEXTFID_= vector(info.FID);
       88     7176    1        UNFID_FPT.LEN_    = vector(TEXTLEN);
       89     7177    1        call M$UNFID(UNFID_FPT) altret(IO_ERR);
       90     7178
       91     7179    1        substr(info.FID,TEXTLEN,1) = binasc(0);
       92     7180
       93     7181
       94     7182        /**  Extras...   */
       95     7183
       96     7184    1        info.FUN = F$DCB.FUN#;
       97     7185    1        info.ACS = F$DCB.ACS#;
       98     7186    1        info.ORG = F$DCB.ORG#;
       99     7187    1        info.ASN = F$DCB.ASN#;
      100     7188
      101     7189    2        do case(info.ORG);
      102     7190    2        case(%CG#);
      103     7191    2        case(%UR#,%SYMB#);
      104     7192    2           info.UR.DVFC = F$DCB.DVFC#;
      105     7193    2           if F$DCB.FORM$ ~= addr(nil) then
      106     7194    3           do;
      107     7195    3              info.UR.FORM = F$DCB.FORM$->FORM.FORM#;
      108     7196    3              substr(info.UR.FORM,6,1) = %binasc(0);
      109     7197    3           end;
      110     7198    2           HDR$ = F$DCB.HEADER$;
      111     7199    2           if HDR$ ~= addr(nil) then
PL6.E3A0      #001=FINFORM File=xb_finform:6.:XBC3TSI                            FRI 01/06/95 11:23 Page:4
      112     7200    3           do;
      113     7201    3              info.UR.TITLE = addr(HEADER.TITL);
      114     7202    3              info.UR.HDRH  = HEADER.CTL.HEADERHEIGHT#;
      115     7203    3              info.UR.INDENT  = HEADER.CTL.INDENT#;
      116     7204    3              info.UR.PAGE    = HEADER.CTL.COUNT#;
      117     7205    3           end;
      118     7206    2           info.UR.LINES    = F$DCB.LINES#;
      119     7207    2           info.UR.WIDTH    = F$DCB.WIDTH#;
      120     7208    2           if F$DCB.TAB$ ~= addr(nil)
      121     7209    2              then info.UR.MARGIN = F$DCB.TAB$->TABS.MARGIN#;
      122     7210
      123     7211    2        case(%INDEXED#);
      124     7212    2           info.INDEXED.KEYX    =  F$DCB.KEYX#;
      125     7213    2           info.INDEXED.KEYL    =  F$DCB.KEYL#;
      126     7214    2           info.INDEXED.LOAD    =  bitbin(F$DCB.LOAD#);
      127     7215
      128     7216    2        case(%RANDOM#,%IDS#);
      129     7217    2           info.RANDOM.IXTNSIZE  = F$DCB.IXTNSIZE#;
      130     7218
      131     7219    2        case(%RELATIVE#);
      132     7220    2           info.RANDOM.IXTNSIZE  = F$DCB.NRECS#;
      133     7221
      134     7222    2        case(%FPRG#);
      135     7223    2           if F$DCB.FPRGX > 0  then
      136     7224    3           do;
      137     7225    3              HDR$ = pincrw(B$ROS$,F$DCB.FPRGX);
      138     7226    3              I = VLP_FPRG.PROFILE#.C#;
      139     7227    3              if VLP_FPRG.LDBYPRO# > 0 then
      140     7228    4              do;
      141     7229    4                 info.FPRG.PROFILE = VLP_FPRG.PROFILE#.T#;
      142     7230    4                 substr(info.FPRG.PROFILE,I,1) = binasc(0);
      143     7231    4              end;
      144     7232    3              I = VLP_FPRG.NAME.L#;
      145     7233    3              if VLP_FPRG.NAME.L# > 0 then
      146     7234    4              do;
      147     7235    4                 info.FPRG.FPRG = VLP_FPRG.NAME.C#;
      148     7236    4                 substr(info.FPRG.FPRG,I,1) = '.';
PL6.E3A0      #001=FINFORM File=xb_finform:6.:XBC3TSI                            FRI 01/06/95 11:23 Page:5
      149     7237    4                 substr(info.FPRG.FPRG,I+1,8) = VLP_FPRG.ACCT#;
      150     7238    4                 substr(info.FPRG.FPRG,I+9,1) = %binasc(0);
      151     7239    4              end;
      152     7240    3           end;
      153     7241
      154     7242    2        case(%SE#);
      155     7243    2           info.SE.NRECS = F$DCB.NRECS#;
      156     7244    2           info.SE.SPARE = F$DCB.SPARE#;
      157     7245
      158     7246    2        end;  /*  Of do case  */
      159     7247
      160     7248
      161     7249    1        if info.ASN = %FILE# then
      162     7250    2        do;
      163     7251    2           info.FILE.IXTNSIZE   =  F$DCB.IXTNSIZE#;
      164     7252    2           info.FILE.NRECS      =  F$DCB.NRECS#;
      165     7253    2           info.FILE.CTG        =  bitbin(F$DCB.CTG#);
      166     7254    2           info.FILE.DISP       =  F$DCB.DISP#;
      167     7255    2           info.FILE.SHARE      =  F$DCB.SHARE#;
      168     7256    2        end;
      169     7257    1           else
      170     7258    1           if info.ASN = %TAPE# and info.ORG ~= %FREE# then
      171     7259    2           do;
      172     7260    2              info.TAPE.BLKL    =  F$DCB.BLKL#;
      173     7261    2              info.TAPE.FSN     =  F$DCB.FSN#;
      174     7262    2              info.TAPE.DENSITY =  F$DCB.DENSITY#;
      175     7263    2              info.TAPE.BLOCKED =  bitbin(F$DCB.BLOCKED#);
      176     7264    2              info.TAPE.CVOL    =  bitbin(F$DCB.CVOL#);
      177     7265    2              info.TAPE.EBCDIC  =  bitbin(F$DCB.EBCDIC#);
      178     7266    2              info.TAPE.CNVRT   =  bitbin(F$DCB.CNVRT#);
      179     7267    2              info.TAPE.SPANNED =  bitbin(F$DCB.SPANNED#);
      180     7268    2              info.TAPE.VOL     =  F$DCB.VOL#;
      181     7269    2           end;
      182     7270    1              else if info.ASN = %COMGROUP# then
      183     7271    2              do;
      184     7272    2                 info.COMGROUP.AU = bitbin(F$DCB.AU#);
      185     7273    2                 info.COMGROUP.QISS      = bitbin(F$DCB.QISS#);
PL6.E3A0      #001=FINFORM File=xb_finform:6.:XBC3TSI                            FRI 01/06/95 11:23 Page:6
      186     7274    2                 HDR$ = F$DCB.SETSTA$;
      187     7275    2                 if HDR$ = addr(nil) then exit;
      188     7276    2                 info.COMGROUP.ALLDCBS   = bitbin(STA.OSTA.ALLDCBS#);
      189     7277    2                 info.COMGROUP.ALLTRMS   = bitbin(STA.OSTA.ALLTRMS#);
      190     7278    2                 info.COMGROUP.ANYDCB    = bitbin(STA.OSTA.ANYDCB#);
      191     7279    2                 info.COMGROUP.DIRONLY   = bitbin(STA.ISTA.DIRONLY#);
      192     7280    2                 info.COMGROUP.ILATCH    = bitbin(STA.ISTA.ILATCH#);
      193     7281    2                 info.COMGROUP.ILOCK     = bitbin(STA.ISTA.ILOCK#);
      194     7282    2                 info.COMGROUP.OLATCH    = bitbin(STA.OSTA.OLATCH#);
      195     7283    2                 info.COMGROUP.OLOCK     = bitbin(STA.OSTA.OLOCK#);
      196     7284    2                 info.COMGROUP.EOFNONE   = bitbin(STA.ISTA.EOFNONE#);
      197     7285    2                 info.COMGROUP.EOFONE    = bitbin(STA.ISTA.EOFONE#);
      198     7286    2                 info.COMGROUP.MYSTATION = STA.MYSTATION#;
      199     7287    2                 info.COMGROUP.ISTATION  = STA.ISTA.ISTATION#;
      200     7288    2                 info.COMGROUP.OSTATION  = STA.OSTA.OSTATION#;
      201     7289    2                 info.COMGROUP.IMSGTYP   = STA.ISTA.IMSGTYP#;
      202     7290    2                 info.COMGROUP.OMSGTYP   = STA.OSTA.OMSGTYP#;
      203     7291    2              end;
      204     7292    1              else if info.ASN = %DEVICE# and substr(F$DCB.RES#,,2)='UC'
      205     7293    1                 and substr(F$DCB.RES#,2,2) ~= ' ' then
      206     7294    2   WINDOW:       do;
      207     7295    2                    call index(I,F$DCB.RES#,ADDR(B$ROS$->B$ROSEG.LDEVNAME)->CHARNAMES)
      208     7296    3                       whenreturn do; exit window; end;
      209     7297    2                    FPT_TRMCTL        =  FPT_TRMCTL_INIT;
      210     7298    2                    FPT_TRMCTL.V_     =  vector(FPT_TRMCTL.V);
      211     7299    2                    FPT_TRMCTL.TRMCTL_=  vector(WINDOW);
      212     7300    2                    FPT_TRMCTL.V.DCB# = DCB#;
      213     7301    2                    call M$GTRMCTL(FPT_TRMCTL)
      214     7302    3                    whenreturn do;
      215     7303    3                       info.UC.WLEN = WINDOW.LENGTH#;
      216     7304    3                       info.UC.WWID = WINDOW.WIDTH#;
      217     7305    3                       info.UC.MINL = WINDOW.MINLENGTH#;
      218     7306    3                       info.UC.MINW = WINDOW.MINWIDTH#;
      219     7307    3                       info.UC.WINLINE = WINDOW.ORG_PST.LINE;
      220     7308    3                       info.UC.WINCOL  = WINDOW.ORG_PST.COLUMN;
      221     7309    3                    end;
      222     7310    2                 end;
PL6.E3A0      #001=FINFORM File=xb_finform:6.:XBC3TSI                            FRI 01/06/95 11:23 Page:7
      223     7311    1        CALL XB_RETURN_ORDINAL_RESULT (0);
      224     7312
      225     7313
      226     7314
      227     7315
      228     7316    1   IO_ERR:
      229     7317    1        CALL XB_RETURN_ORDINAL_RESULT (1);
      230     7318
      231     7319    1   end finform;

PL6.E3A0      #001=FINFORM File=xb_finform:6.:XBC3TSI                            FRI 01/06/95 11:23 Page:8
--  Include file information  --

   B$ROSEG.:LIB_E04  cannot be made into a system file and is referenced.
   CP_6_SUBS.:LIB_E04  is referenced.
   CP_6_C.:LIB_E04  is referenced.
   CP_6.:LIB_E04  cannot be made into a system file and is referenced.
   xb_stdio_i6.:XBC3TOU  cannot be made into a system file and is referenced.
   xb_finform_i6.:XBC3TOU  is referenced.
      No diagnostics issued in procedure FINFORM.

   Procedure FINFORM requires 401 words for executable code.
   Procedure FINFORM requires 52 words of local(AUTO) storage.

    No errors detected in file xb_finform:6.:XBC3TSI    .

PL6.E3A0      #001=FINFORM File=xb_finform:6.:XBC3TSI                            FRI 01/06/95 11:23 Page:9
          *** CROSS REFERENCE LISTING ***
**     DENOTES     IDENTIFIER DEFINITION
<<                 IDENTIFIER'S VALUE SET
>>                 IDENTIFIER'S VALUE USED
<>                 IDENTIFIER SET AND/OR USED
--                 IDENTIFIER REFERENCED
PL6.E3A0      #001=FINFORM File=xb_finform:6.:XBC3TSI                            FRI 01/06/95 11:23 Page:10
          MINI XREF LISTING

B$ROS$
      6902**DCL      7225>>ASSIGN   7295>>CALLBLT
B$ROSEG.LDEVNAME
      6487**DCL      7295--CALLBLT
CHARNAMES
      7162**DCL      7295>>CALLBLT
DCB#
      7156**DCL      7170<<ASSIGN   7171--ASSIGN   7174>>ASSIGN   7300>>ASSIGN
DCB$
      7157**DCL      6731--IMP-PTR  7171<<ASSIGN   7184>>ASSIGN   7185>>ASSIGN   7186>>ASSIGN   7187>>ASSIGN
      7192>>ASSIGN   7193>>IF       7195>>ASSIGN   7198>>ASSIGN   7206>>ASSIGN   7207>>ASSIGN   7208>>IF
      7209>>ASSIGN   7212>>ASSIGN   7213>>ASSIGN   7214>>ASSIGN   7217>>ASSIGN   7220>>ASSIGN   7223>>IF
      7225>>ASSIGN   7243>>ASSIGN   7244>>ASSIGN   7251>>ASSIGN   7252>>ASSIGN   7253>>ASSIGN   7254>>ASSIGN
      7255>>ASSIGN   7260>>ASSIGN   7261>>ASSIGN   7262>>ASSIGN   7263>>ASSIGN   7264>>ASSIGN   7265>>ASSIGN
      7266>>ASSIGN   7267>>ASSIGN   7268>>ASSIGN   7272>>ASSIGN   7273>>ASSIGN   7274>>ASSIGN   7292>>IF
      7292>>IF       7295>>CALLBLT
F$
      6900**DCL      6789--IMP-PTR  7164<<ASSIGN   7166>>IF       7170>>ASSIGN
F$DCB.ACS#
      6755**DCL      7185>>ASSIGN
F$DCB.ACTPOS
      6763**DCL      6763--REDEF
F$DCB.ARS#
      6737**DCL      6737--REDEF
F$DCB.ASN#
      6752**DCL      7187>>ASSIGN
F$DCB.ATTR
      6756**DCL      6757--REDEF
F$DCB.AU#
      6749**DCL      7272>>ASSIGN
F$DCB.BLKL#
      6753**DCL      7260>>ASSIGN
PL6.E3A0      #001=FINFORM File=xb_finform:6.:XBC3TSI                            FRI 01/06/95 11:23 Page:11
F$DCB.BLOCKED#
      6751**DCL      7263>>ASSIGN
F$DCB.BORROW
      6771**DCL      6771--REDEF    6771--REDEF    6771--REDEF
F$DCB.CNVRT#
      6750**DCL      7266>>ASSIGN
F$DCB.CTG#
      6751**DCL      7253>>ASSIGN
F$DCB.CVOL#
      6751**DCL      7264>>ASSIGN
F$DCB.DCBNAME.L
      6785**DCL      6785--IMP-SIZ
F$DCB.DENSITY#
      6758**DCL      7262>>ASSIGN
F$DCB.DISP#
      6752**DCL      7254>>ASSIGN
F$DCB.DVFC#
      6759**DCL      7192>>ASSIGN
F$DCB.EBCDIC#
      6750**DCL      7265>>ASSIGN
F$DCB.EOMCHAR#
      6741**DCL      6741--REDEF
F$DCB.FLDID
      6766**DCL      6766--REDEF
F$DCB.FORM$
      6760**DCL      6760--REDEF    7193>>IF       7195>>ASSIGN
F$DCB.FPRGX
      6762**DCL      7223>>IF       7225>>ASSIGN
F$DCB.FSECT
      6776**DCL      6776--REDEF
F$DCB.FSN#
      6753**DCL      6753--REDEF    6753--REDEF    6754--REDEF    7261>>ASSIGN
F$DCB.FUN#
      6752**DCL      7184>>ASSIGN
F$DCB.HEADER$
      6759**DCL      6759--REDEF    7198>>ASSIGN
PL6.E3A0      #001=FINFORM File=xb_finform:6.:XBC3TSI                            FRI 01/06/95 11:23 Page:12
F$DCB.IXTNSIZE#
      6757**DCL      6757--REDEF    7217>>ASSIGN   7251>>ASSIGN
F$DCB.KEYL#
      6754**DCL      7213>>ASSIGN
F$DCB.KEYX#
      6754**DCL      7212>>ASSIGN
F$DCB.LASTSTA$
      6746**DCL      6746--REDEF
F$DCB.LINES#
      6759**DCL      7206>>ASSIGN
F$DCB.LOAD#
      6749**DCL      7214>>ASSIGN
F$DCB.LVL
      6772**DCL      6772--REDEF
F$DCB.NAME#.C
      6747**DCL      6747--REDEF
F$DCB.NOEOF
      6769**DCL      6769--REDEF
F$DCB.NRECS#
      6758**DCL      6758--REDEF    7220>>ASSIGN   7243>>ASSIGN   7252>>ASSIGN
F$DCB.NRECX
      6777**DCL      6777--REDEF
F$DCB.OHDR
      6769**DCL      6769--REDEF
F$DCB.ORG#
      6752**DCL      6752--REDEF    7186>>ASSIGN
F$DCB.PRECNO
      6775**DCL      6775--REDEF
F$DCB.QISS#
      6749**DCL      7273>>ASSIGN
F$DCB.RCSZ
      6781**DCL      6781--REDEF
F$DCB.RES#
      6748**DCL      6748--REDEF    7292>>IF       7292>>IF       7295>>CALLBLT
F$DCB.SETSTA$
      6746**DCL      7274>>ASSIGN
PL6.E3A0      #001=FINFORM File=xb_finform:6.:XBC3TSI                            FRI 01/06/95 11:23 Page:13
F$DCB.SETX
      6760**DCL      6760--REDEF
F$DCB.SHARE#
      6751**DCL      7255>>ASSIGN
F$DCB.SPANNED#
      6751**DCL      7267>>ASSIGN
F$DCB.SPARE#
      6755**DCL      7244>>ASSIGN
F$DCB.TAB$
      6760**DCL      6760--REDEF    7208>>IF       7209>>ASSIGN
F$DCB.TDA
      6774**DCL      6775--REDEF
F$DCB.VOL#
      6758**DCL      7268>>ASSIGN
F$DCB.WIDTH#
      6744**DCL      7207>>ASSIGN
F$DCB.WSN#
      6748**DCL      6748--REDEF
FORM.FORM#
      7101**DCL      7195>>ASSIGN
FP.FPT_READ.V.DCB#
      6834**DCL      7170>>ASSIGN
FP.FPT_READ.V.DVBYTE.REREAD#
      6851**DCL      6852--REDEF
FP.FPT_READ.V.INDX#
      6844**DCL      6845--REDEF
FP.FPT_WRITE.V.DVBYTE.VFC#
      6889**DCL      6890--REDEF
FPT_TRMCTL
      6995**DCL      7297<<ASSIGN   7301<>CALL
FPT_TRMCTL.TRMCTL_
      7001**DCL      7299<<ASSIGN
FPT_TRMCTL.V
      7003**DCL      7298--ASSIGN
FPT_TRMCTL.V.DCB#
      7003**DCL      7300<<ASSIGN
PL6.E3A0      #001=FINFORM File=xb_finform:6.:XBC3TSI                            FRI 01/06/95 11:23 Page:14
FPT_TRMCTL.V_
      6997**DCL      7298<<ASSIGN
FPT_TRMCTL_INIT
      6966**DCL      7297>>ASSIGN
FPT_TRMCTL_INIT.V
      6974**DCL      6968--DCLINIT
HDR$
      7158**DCL      7079--IMP-PTR  7116--IMP-PTR  7134--IMP-PTR  7198<<ASSIGN   7199>>IF       7201>>ASSIGN
      7202>>ASSIGN   7203>>ASSIGN   7204>>ASSIGN   7225<<ASSIGN   7226>>ASSIGN   7227>>IF       7229>>ASSIGN
      7232>>ASSIGN   7233>>IF       7235>>ASSIGN   7237>>ASSIGN   7274<<ASSIGN   7275>>IF       7276>>ASSIGN
      7277>>ASSIGN   7278>>ASSIGN   7279>>ASSIGN   7280>>ASSIGN   7281>>ASSIGN   7282>>ASSIGN   7283>>ASSIGN
      7284>>ASSIGN   7285>>ASSIGN   7286>>ASSIGN   7287>>ASSIGN   7288>>ASSIGN   7289>>ASSIGN   7290>>ASSIGN
HEADER.CTL.COUNT#
      7118**DCL      7204>>ASSIGN
HEADER.CTL.HEADERHEIGHT#
      7117**DCL      7202>>ASSIGN
HEADER.CTL.INDENT#
      7117**DCL      7203>>ASSIGN
HEADER.TITL
      7118**DCL      7201--ASSIGN
HEADER.TITL.L#
      7118**DCL      7119--IMP-SIZ
I
      7159**DCL      7226<<ASSIGN   7230>>ASSIGN   7232<<ASSIGN   7236>>ASSIGN   7237>>ASSIGN   7238>>ASSIGN
      7295<<CALLBLT
INFO
      6651**DCL        13--PROC     7165<<ASSIGN
INFO.ACS
      6653**DCL      7185<<ASSIGN
INFO.ASN
      6655**DCL      7187<<ASSIGN   7249>>IF       7258>>IF       7270>>IF       7292>>IF
INFO.COMGROUP.ALLDCBS
      6715**DCL      7276<<ASSIGN
INFO.COMGROUP.ALLTRMS
      6716**DCL      7277<<ASSIGN
INFO.COMGROUP.ANYDCB
PL6.E3A0      #001=FINFORM File=xb_finform:6.:XBC3TSI                            FRI 01/06/95 11:23 Page:15
      6717**DCL      7278<<ASSIGN
INFO.COMGROUP.AU
      6725**DCL      7272<<ASSIGN
INFO.COMGROUP.DIRONLY
      6718**DCL      7279<<ASSIGN
INFO.COMGROUP.EOFNONE
      6723**DCL      7284<<ASSIGN
INFO.COMGROUP.EOFONE
      6724**DCL      7285<<ASSIGN
INFO.COMGROUP.ILATCH
      6719**DCL      7280<<ASSIGN
INFO.COMGROUP.ILOCK
      6720**DCL      7281<<ASSIGN
INFO.COMGROUP.IMSGTYP
      6713**DCL      7289<<ASSIGN
INFO.COMGROUP.ISTATION
      6711**DCL      7287<<ASSIGN
INFO.COMGROUP.MYSTATION
      6710**DCL      7286<<ASSIGN
INFO.COMGROUP.OLATCH
      6721**DCL      7282<<ASSIGN
INFO.COMGROUP.OLOCK
      6722**DCL      7283<<ASSIGN
INFO.COMGROUP.OMSGTYP
      6714**DCL      7290<<ASSIGN
INFO.COMGROUP.OSTATION
      6712**DCL      7288<<ASSIGN
INFO.COMGROUP.QISS
      6726**DCL      7273<<ASSIGN
INFO.FID
      6656**DCL      7175--ASSIGN   7179<<ASSIGN
INFO.FILE
      6683**DCL      6690--REDEF    6701--REDEF    6709--REDEF
INFO.FILE.CTG
      6686**DCL      7253<<ASSIGN
INFO.FILE.DISP
PL6.E3A0      #001=FINFORM File=xb_finform:6.:XBC3TSI                            FRI 01/06/95 11:23 Page:16
      6687**DCL      7254<<ASSIGN
INFO.FILE.IXTNSIZE
      6684**DCL      7251<<ASSIGN
INFO.FILE.NRECS
      6685**DCL      7252<<ASSIGN
INFO.FILE.SHARE
      6688**DCL      7255<<ASSIGN
INFO.FPRG.FPRG
      6678**DCL      7235<<ASSIGN   7236<<ASSIGN   7237<<ASSIGN   7238<<ASSIGN
INFO.FPRG.PROFILE
      6677**DCL      7229<<ASSIGN   7230<<ASSIGN
INFO.FUN
      6652**DCL      7184<<ASSIGN
INFO.INDEXED.KEYL
      6670**DCL      7213<<ASSIGN
INFO.INDEXED.KEYX
      6669**DCL      7212<<ASSIGN
INFO.INDEXED.LOAD
      6671**DCL      7214<<ASSIGN
INFO.ORG
      6654**DCL      7186<<ASSIGN   7189>>DOCASE   7258>>IF
INFO.RANDOM.IXTNSIZE
      6674**DCL      7217<<ASSIGN   7220<<ASSIGN
INFO.SE.NRECS
      6680**DCL      7243<<ASSIGN
INFO.SE.SPARE
      6681**DCL      7244<<ASSIGN
INFO.TAPE.BLKL
      6691**DCL      7260<<ASSIGN
INFO.TAPE.BLOCKED
      6695**DCL      7263<<ASSIGN
INFO.TAPE.CNVRT
      6698**DCL      7266<<ASSIGN
INFO.TAPE.CVOL
      6696**DCL      7264<<ASSIGN
INFO.TAPE.DENSITY
PL6.E3A0      #001=FINFORM File=xb_finform:6.:XBC3TSI                            FRI 01/06/95 11:23 Page:17
      6694**DCL      7262<<ASSIGN
INFO.TAPE.EBCDIC
      6697**DCL      7265<<ASSIGN
INFO.TAPE.FSN
      6693**DCL      7261<<ASSIGN
INFO.TAPE.SPANNED
      6699**DCL      7267<<ASSIGN
INFO.TAPE.VOL
      6692**DCL      7268<<ASSIGN
INFO.UC.MINL
      6704**DCL      7305<<ASSIGN
INFO.UC.MINW
      6705**DCL      7306<<ASSIGN
INFO.UC.WINCOL
      6707**DCL      7308<<ASSIGN
INFO.UC.WINLINE
      6706**DCL      7307<<ASSIGN
INFO.UC.WLEN
      6702**DCL      7303<<ASSIGN
INFO.UC.WWID
      6703**DCL      7304<<ASSIGN
INFO.UR
      6657**DCL      6668--REDEF    6673--REDEF    6676--REDEF    6679--REDEF
INFO.UR.DVFC
      6661**DCL      7192<<ASSIGN
INFO.UR.FORM
      6660**DCL      7195<<ASSIGN   7196<<ASSIGN
INFO.UR.HDRH
      6662**DCL      7202<<ASSIGN
INFO.UR.INDENT
      6663**DCL      7203<<ASSIGN
INFO.UR.LINES
      6666**DCL      7206<<ASSIGN
INFO.UR.MARGIN
      6665**DCL      7209<<ASSIGN
INFO.UR.PAGE
PL6.E3A0      #001=FINFORM File=xb_finform:6.:XBC3TSI                            FRI 01/06/95 11:23 Page:18
      6658**DCL      7204<<ASSIGN
INFO.UR.TITLE
      6659**DCL      7201<<ASSIGN
INFO.UR.WIDTH
      6664**DCL      7207<<ASSIGN
IO_ERR
      7317**LABEL    7177--CALLALT
M$GTRMCTL
      5878**DCL-ENT  7301--CALL
M$UNFID
      5917**DCL-ENT  7177--CALL
PASSED_FILE_HEADER
      6531**DCL        13--PROC     7164--ASSIGN
PASSED_FILE_HEADER.FPT_READ.V.DVBYTE.REREAD#
      6593**DCL      6594--REDEF
PASSED_FILE_HEADER.FPT_READ.V.INDX#
      6586**DCL      6587--REDEF
PASSED_FILE_HEADER.FPT_WRITE.V.DVBYTE.VFC#
      6631**DCL      6632--REDEF
STA.ISTA.DIRONLY#
      7141**DCL      7279>>ASSIGN
STA.ISTA.EOFNONE#
      7140**DCL      7284>>ASSIGN
STA.ISTA.EOFONE#
      7140**DCL      7285>>ASSIGN
STA.ISTA.ILATCH#
      7139**DCL      7280>>ASSIGN
STA.ISTA.ILOCK#
      7139**DCL      7281>>ASSIGN
STA.ISTA.IMSGTYP#
      7139**DCL      7289>>ASSIGN
STA.ISTA.ISTATION#
      7138**DCL      7287>>ASSIGN
STA.MYSTATION#
      7138**DCL      7286>>ASSIGN
STA.OSTA.ALLDCBS#
PL6.E3A0      #001=FINFORM File=xb_finform:6.:XBC3TSI                            FRI 01/06/95 11:23 Page:19
      7145**DCL      7276>>ASSIGN
STA.OSTA.ALLTRMS#
      7145**DCL      7277>>ASSIGN
STA.OSTA.ANYDCB#
      7146**DCL      7278>>ASSIGN
STA.OSTA.OLATCH#
      7144**DCL      7282>>ASSIGN
STA.OSTA.OLOCK#
      7144**DCL      7283>>ASSIGN
STA.OSTA.OMSGTYP#
      7143**DCL      7290>>ASSIGN
STA.OSTA.OSTATION#
      7143**DCL      7288>>ASSIGN
TABS.MARGIN#
      7065**DCL      7209>>ASSIGN
TEXTLEN
      6924**DCL      7176--ASSIGN   7179>>ASSIGN
UNFID_FPT
      6938**DCL      7172<<ASSIGN   7177<>CALL
UNFID_FPT.LEN_
      6941**DCL      7176<<ASSIGN
UNFID_FPT.TEXTFID_
      6938**DCL      7175<<ASSIGN
UNFID_FPT.V
      6942**DCL      7173--ASSIGN
UNFID_FPT.V.DCB#
      6942**DCL      7174<<ASSIGN
UNFID_FPT.V_
      6938**DCL      7173<<ASSIGN
UNFID_FPT_INIT
      6916**DCL      7172>>ASSIGN
UNFID_FPT_INIT.V
      6920**DCL      6916--DCLINIT
VLP_FPRG.ACCT#
      7085**DCL      7237>>ASSIGN
VLP_FPRG.LDBYPRO#
PL6.E3A0      #001=FINFORM File=xb_finform:6.:XBC3TSI                            FRI 01/06/95 11:23 Page:20
      7083**DCL      7227>>IF
VLP_FPRG.NAME.C#
      7085**DCL      7235>>ASSIGN
VLP_FPRG.NAME.L#
      7084**DCL      7232>>ASSIGN   7233>>IF
VLP_FPRG.PROFILE#.C#
      7086**DCL      7226>>ASSIGN
VLP_FPRG.PROFILE#.T#
      7086**DCL      7229>>ASSIGN
WINDOW
      7294**LABEL    7296--EXIT     7299--ASSIGN
WINDOW.FWINDOW#
      7026**DCL      7026--REDEF    7027--REDEF
WINDOW.LENGTH#
      7040**DCL      7303>>ASSIGN
WINDOW.MINLENGTH#
      7045**DCL      7305>>ASSIGN
WINDOW.MINWIDTH#
      7046**DCL      7306>>ASSIGN
WINDOW.ORG_PST.COLUMN
      7041**DCL      7308>>ASSIGN
WINDOW.ORG_PST.LINE
      7041**DCL      7307>>ASSIGN
WINDOW.WIDTH#
      7040**DCL      7304>>ASSIGN
XB_RETURN_ORDINAL_RESULT
      7153**DCL-ENT  7167--CALL     7311--CALL     7317--CALL
