
PL6.E3A0      #001=GETPASS File=xb_getpass:6.:XBC3TSI                            FRI 01/06/95 11:23 Page:1
        1        1        /*T***********************************************************/
        2        2        /*T*                                                         */
        3        3        /*T* Copyright (c) Bull HN Information Systems Inc., 1989    */
        4        4        /*T*                                                         */
        5        5        /*T***********************************************************/
        6        6
        7        7        getpass : PROC (prompt);
        8        8
        9        9        /*D* NAME: getpass
       10       10             PROTOTYPE:   char *getpass(char *prompt);
       11       11             DESCRIPTION: The getpass function reads up to an activation
       12       12                          character from the terminal after prompting the
       13       13                          UC device with prompt and disabling echoing.
       14       14
       15       15                          A pointer to a null terminated string of at most 8
       16       16                          charcters read in form the device.
       17       17
       18       18              WGE September  7, 1990
       19       19        */
       20       20
       21       21        %INCLUDE CP_6;
       22     5581        %INCLUDE CP_6_SUBS;
       23     6121        %INCLUDE xb_stdio_i6;
       24     6364
       25     6365
       26     6366        /*    Parameter declarations  */
       27     6367
       28     6368    1   DCL   prompt         CHAR(prompt_len);
       29     6369
       30     6370        /*    Function declarations   */
       31     6371
       32     6372    1   DCL XB_RETURN_ORDINAL_RESULT  ENTRY (1);
       33     6373    1   DCL XBI$STRLEN                ENTRY (2);
       34     6374    1   DCL XBI_SET_ERRNO             ENTRY (1);
       35     6375
       36     6376        /*    Local declarations      */
       37     6377
PL6.E3A0      #001=GETPASS File=xb_getpass:6.:XBC3TSI                            FRI 01/06/95 11:23 Page:2
       38     6378    1   DCL   prompt_len     SBIN;
       39     6379    1   DCL   ret_val        PTR;
       40     6380    1   DCL   dcb_number     UBIN;
       41     6381    1   DCL   dcb$           ptr;
       42     6382    1   DCL   pass           CHAR(256)  STATIC;
       43     6383    1   DCL   pass_len       SBIN;
       44     6384
       45     6385        /*    Monitor declarations    */
       46     6386
       47     6387        %FPT_PROMPT (FPTN=CONST_PROMPT, STCLASS=CONSTANT);
       48     6415        %FPT_PROMPT (FPTN=AUTO_PROMPT, STCLASS=AUTO);
       49     6443        %FPT_TRMCTL (FPTN=CONST_STRMCTL, VLPTYPE=TRMCTL, STCLASS=CONSTANT);
       50     6470        %FPT_TRMCTL (FPTN=AUTO_STRMCTL, STCLASS=AUTO);
       51     6497        %FPT_READ (FPTN=CONST_READ, DCB=M$UC, BUF=PASS, STCLASS=CONSTANT);
       52     6536        %FPT_READ (FPTN=AUTO_READ, STCLASS=AUTO);
       53     6575
       54     6576        %VLP_TRMCTL (FPTN=VLP_TRMCTL, DISPINPUT=NO);
       55     6616
       56     6617        %F$DCB;
       57     6674
       58     6675        /*    Declarations of possible errors that can occur                */
       59     6676
       60     6677
       61     6678        /*    Usual kludge to get parameters and get length of arguments    */
       62     6679
       63     6680    1      CALL XBI$STRLEN(prompt, prompt_len);
       64     6681    1      ret_val = ADDR(pass);
       65     6682
       66     6683        /*    Time to set up the prompt on the M$UC device                  */
       67     6684
       68     6685    1      auto_prompt = const_prompt;
       69     6686    1      auto_prompt.v_ = VECTOR(auto_prompt.v);
       70     6687    1      auto_prompt.prompt_ = VECTOR(SUBSTR(prompt, 0, prompt_len));
       71     6688    2      CALL M$PROMPT(auto_prompt) WHENALTRETURN DO;
       72     6689    2         CALL XB_RETURN_ORDINAL_RESULT (ADDR(NIL));
       73     6690    2      END;
       74     6691
PL6.E3A0      #001=GETPASS File=xb_getpass:6.:XBC3TSI                            FRI 01/06/95 11:23 Page:3
       75     6692        /*    Turn of echoing of for the M$UC DCB                           */
       76     6693
       77     6694    1      auto_strmctl = const_strmctl;
       78     6695    1      auto_strmctl.v_ = VECTOR (auto_strmctl.v);
       79     6696    1      auto_strmctl.trmctl_ = VECTOR (VLP_TRMCTL);
       80     6697    2      CALL M$STRMCTL (auto_strmctl) WHENALTRETURN DO;
       81     6698    2         ret_val = ADDR(NIL);
       82     6699    2         GOTO error_return;
       83     6700    2      END;
       84     6701
       85     6702        /*    Now it is time to do the actual read from M$UC                */
       86     6703
       87     6704    1      auto_read = const_read;
       88     6705    1      auto_read.v_ = VECTOR(auto_read.v);
       89     6706    2      CALL M$READ (auto_read) WHENALTRETURN DO;
       90     6707    2         ret_val = ADDR(NIL);
       91     6708    2         GOTO error_return;
       92     6709    2      END;
       93     6710
       94     6711        /*    t ime to null terminate the string and truncate all characters
       95     6712              greater than 8                                                */
       96     6713
       97     6714    1      pass_len = DCBADDR(DCBNUM(M$UC))->F$DCB.ars#;
       98     6715    2      IF (pass_len > 8) THEN DO;
       99     6716    2         pass_len = 8;
      100     6717    2      END;
      101     6718    1      SUBSTR(pass,pass_len,1) = binasc(0);
      102     6719
      103     6720    1   error_return:
      104     6721
      105     6722        /*    Turn of echoing on for the M$UC DCB                           */
      106     6723
      107     6724    1      auto_strmctl = const_strmctl;
      108     6725    1      auto_strmctl.v_ = VECTOR (auto_strmctl.v);
      109     6726    1      VLP_TRMCTL.DISPINPUT# = '1'B;
      110     6727    1      auto_strmctl.trmctl_ = VECTOR (VLP_TRMCTL);
      111     6728    2      CALL M$STRMCTL (auto_strmctl) WHENALTRETURN DO;
PL6.E3A0      #001=GETPASS File=xb_getpass:6.:XBC3TSI                            FRI 01/06/95 11:23 Page:4
      112     6729    2         ret_val = ADDR(NIL);
      113     6730    2      END;
      114     6731
      115     6732        /*    Time to remove the prompt on the M$UC device                  */
      116     6733
      117     6734    1      auto_prompt = const_prompt;
      118     6735    1      auto_prompt.v_ = VECTOR(auto_prompt.v);
      119     6736    2      CALL M$PROMPT(auto_prompt) WHENALTRETURN DO;
      120     6737    2         ret_val = ADDR(NIL);
      121     6738    2      END;
      122     6739
      123     6740        /* Th Th Th That's all folks, for completion                        */
      124     6741
      125     6742    1      CALL XB_RETURN_ORDINAL_RESULT(ret_val);
      126     6743    1   END getpass;

PL6.E3A0      #001=GETPASS File=xb_getpass:6.:XBC3TSI                            FRI 01/06/95 11:23 Page:5
--  Include file information  --

   xb_stdio_i6.:XBC3TOU  cannot be made into a system file and is referenced.
   CP_6_SUBS.:LIB_E04  is referenced.
   CP_6_C.:LIB_E04  is referenced.
   CP_6.:LIB_E04  cannot be made into a system file and is referenced.
      No diagnostics issued in procedure GETPASS.

   Procedure GETPASS requires 129 words for executable code.
   Procedure GETPASS requires 44 words of local(AUTO) storage.

    No errors detected in file xb_getpass:6.:XBC3TSI    .

PL6.E3A0      #001=GETPASS File=xb_getpass:6.:XBC3TSI                            FRI 01/06/95 11:23 Page:6
          *** CROSS REFERENCE LISTING ***
**     DENOTES     IDENTIFIER DEFINITION
<<                 IDENTIFIER'S VALUE SET
>>                 IDENTIFIER'S VALUE USED
<>                 IDENTIFIER SET AND/OR USED
--                 IDENTIFIER REFERENCED
PL6.E3A0      #001=GETPASS File=xb_getpass:6.:XBC3TSI                            FRI 01/06/95 11:23 Page:7
          MINI XREF LISTING

AUTO_PROMPT
      6431**DCL      6685<<ASSIGN   6688<>CALL     6734<<ASSIGN   6736<>CALL
AUTO_PROMPT.PROMPT_
      6437**DCL      6687<<ASSIGN
AUTO_PROMPT.V
      6439**DCL      6686--ASSIGN   6735--ASSIGN
AUTO_PROMPT.V_
      6433**DCL      6686<<ASSIGN   6735<<ASSIGN
AUTO_READ
      6553**DCL      6704<<ASSIGN   6706<>CALL
AUTO_READ.STATION_
      6556**DCL      6557--REDEF
AUTO_READ.V
      6557**DCL      6705--ASSIGN
AUTO_READ.V.DVBYTE.REREAD#
      6568**DCL      6568--REDEF
AUTO_READ.V.INDX#
      6566**DCL      6566--REDEF
AUTO_READ.V_
      6553**DCL      6705<<ASSIGN
AUTO_STRMCTL
      6486**DCL      6694<<ASSIGN   6697<>CALL     6724<<ASSIGN   6728<>CALL
AUTO_STRMCTL.TRMCTL_
      6492**DCL      6696<<ASSIGN   6727<<ASSIGN
AUTO_STRMCTL.V
      6494**DCL      6695--ASSIGN   6725--ASSIGN
AUTO_STRMCTL.V_
      6488**DCL      6695<<ASSIGN   6725<<ASSIGN
CONST_PROMPT
      6403**DCL      6685>>ASSIGN   6734>>ASSIGN
CONST_PROMPT.V
      6411**DCL      6405--DCLINIT
PL6.E3A0      #001=GETPASS File=xb_getpass:6.:XBC3TSI                            FRI 01/06/95 11:23 Page:8
CONST_READ
      6514**DCL      6704>>ASSIGN
CONST_READ.STATION_
      6517**DCL      6518--REDEF
CONST_READ.V
      6518**DCL      6514--DCLINIT
CONST_READ.V.DVBYTE.REREAD#
      6529**DCL      6529--REDEF
CONST_READ.V.INDX#
      6527**DCL      6527--REDEF
CONST_STRMCTL
      6459**DCL      6694>>ASSIGN   6724>>ASSIGN
CONST_STRMCTL.V
      6467**DCL      6461--DCLINIT
ERROR_RETURN
      6724**LABEL    6699--GOTO     6708--GOTO
F$DCB.ACTPOS
      6650**DCL      6650--REDEF
F$DCB.ARS#
      6624**DCL      6624--REDEF    6714>>ASSIGN
F$DCB.ATTR
      6643**DCL      6644--REDEF
F$DCB.BORROW
      6658**DCL      6658--REDEF    6658--REDEF    6658--REDEF
F$DCB.DCBNAME.L
      6672**DCL      6672--IMP-SIZ
F$DCB.EOMCHAR#
      6628**DCL      6628--REDEF
F$DCB.FLDID
      6653**DCL      6653--REDEF
F$DCB.FORM$
      6647**DCL      6647--REDEF
F$DCB.FSECT
      6663**DCL      6663--REDEF
F$DCB.FSN#
      6640**DCL      6640--REDEF    6640--REDEF    6641--REDEF
PL6.E3A0      #001=GETPASS File=xb_getpass:6.:XBC3TSI                            FRI 01/06/95 11:23 Page:9
F$DCB.HEADER$
      6646**DCL      6646--REDEF
F$DCB.IXTNSIZE#
      6644**DCL      6644--REDEF
F$DCB.LASTSTA$
      6633**DCL      6633--REDEF
F$DCB.LVL
      6659**DCL      6659--REDEF
F$DCB.NAME#.C
      6634**DCL      6634--REDEF
F$DCB.NOEOF
      6656**DCL      6656--REDEF
F$DCB.NRECS#
      6645**DCL      6645--REDEF
F$DCB.NRECX
      6664**DCL      6664--REDEF
F$DCB.OHDR
      6656**DCL      6656--REDEF
F$DCB.ORG#
      6639**DCL      6639--REDEF
F$DCB.PRECNO
      6662**DCL      6662--REDEF
F$DCB.RCSZ
      6668**DCL      6668--REDEF
F$DCB.RES#
      6635**DCL      6635--REDEF
F$DCB.SETX
      6647**DCL      6647--REDEF
F$DCB.TAB$
      6647**DCL      6647--REDEF
F$DCB.TDA
      6661**DCL      6662--REDEF
F$DCB.WSN#
      6635**DCL      6635--REDEF
M$PROMPT
      5533**DCL-ENT  6688--CALL     6736--CALL
PL6.E3A0      #001=GETPASS File=xb_getpass:6.:XBC3TSI                            FRI 01/06/95 11:23 Page:10
M$READ
      5510**DCL-ENT  6706--CALL
M$STRMCTL
      5533**DCL-ENT  6697--CALL     6728--CALL
M$UC
      5533**DCL      6714--ASSIGN
PASS
      6382**DCL      6516--DCLINIT  6517--DCLINIT  6681--ASSIGN   6718<<ASSIGN
PASS_LEN
      6383**DCL      6714<<ASSIGN   6715>>IF       6716<<ASSIGN   6718>>ASSIGN
PROMPT
      6368**DCL         7--PROC     6680<>CALL     6687--ASSIGN
PROMPT_LEN
      6378**DCL      6368--IMP-SIZ  6680>>CALL     6680<>CALL     6687>>ASSIGN   6687>>ASSIGN
RET_VAL
      6379**DCL      6681<<ASSIGN   6698<<ASSIGN   6707<<ASSIGN   6729<<ASSIGN   6737<<ASSIGN   6742<>CALL
VLP_TRMCTL
      6593**DCL      6696--ASSIGN   6727--ASSIGN
VLP_TRMCTL.BREAKCOUNT
      6605**DCL      6605--REDEF
VLP_TRMCTL.DISPINPUT#
      6595**DCL      6726<<ASSIGN
XBI$STRLEN
      6373**DCL-ENT  6680--CALL
XB_RETURN_ORDINAL_RESULT
      6372**DCL-ENT  6689--CALL     6742--CALL
