
 11:17 01/06/95  FILE=xb_math:a.:XBC3TSI                                                                 1    BMAP - B00
                                         1  *T***********************************************************
                                         2  *T*                                                         *
                                         3  *T* Copyright (c) Bull HN Information Systems Inc., 1989    *
                                         4  *T*                                                         *
                                         5  *T***********************************************************
                                         6                LODM           xbi_std_ig
                                         7
                                         8                ENTDEF         acos
                                         9                ENTDEF         asin
                                        10                ENTDEF         atan
                                        11                ENTDEF         atan2
                                        12                ENTDEF         exp
                                        13                ENTDEF         log
                                        14                ENTDEF         log10
                                        15                ENTDEF         sqrt
                                        16                ENTDEF         cos
                                        17                ENTDEF         sin
                                        18                ENTDEF         tan
                                        19                ENTDEF         cosh
                                        20                ENTDEF         sinh
                                        21                ENTDEF         tanh
                                        22                ENTDEF         _XPE$ERR    Report error from built-in's
                                        23                ENTDEF         _XPE$ERR_RANGE - Report range error from built-in's
                                        24
                                        25                ENTREF         _XBC_AUTO_0
                                        26                ENTREF         _XBC_AUTO_2
                                        27                ENTREF         _XBC_AUTO_5
                                        28                ENTREF         _XBC_FARET
                                        29                ENTREF         _XBC_FAALT
                                        30                ENTREF         XPE_9DACOS
                                        31                ENTREF         XPE_9DASIN
                                        32                ENTREF         XPE_9DATAN
                                        33                ENTREF         XPE_9DATAN2
                                        34                ENTREF         XPE_9DEXP
                                        35                ENTREF         XPE_9DLOG
                                        36                ENTREF         XPE_9DLOG10
                                        37                ENTREF         XPE_9DSQRT
 11:17 01/06/95  FILE=xb_math:a.:XBC3TSI                                                                 2    BMAP - B00
                                        38                ENTREF         XPE_9DCOS
                                        39                ENTREF         XPE_9DSIN
                                        40                ENTREF         XPE_9DTAN
                                        41                ENTREF         XPE_9DCOSH
                                        42                ENTREF         XPE_9DSINH
                                        43                ENTREF         XPE_9DTANH
                                        44                ENTREF         XFE_9IDINT
                                        45                ENTREF         XBI$SET_MATH_ERRNO
                                        46                ENTREF         XBI_SET_ERRNO
                                        47
                                        48
                                        49                SYMREF         XB$ERR$RANGE_ERROR
                                        50
 0 000000                               51                USE            acos,1
                                        52
                                        53
                                        54  *D* PROTOTYPE: double acos ( double x )
                                        55  *,* DESCRIPTION: the arc cosine value is returned for the arguement.
                                        56  */
                                        57
          (0)000000000000               58  acos          EQU            *
   000000    0 00000 6271 00            59                EAX7           0,,PR0
   000001    000001 3670 03             60                ANX7           1,DU
   000002    0 00000 6375 17            61                EPPR7          0,X7,PR0
   000003    7 00000 4331 00            62                DFLD           0,,PR7         - load arguement
   000004    000000 6270 11             63                EAX7           0,X1
   000005  X 000000 7010 00             64                TSX1           XPE_9DACOS     - call standard math library
   000006 (0)000165 7020 00             65                TSX2            report_domain_error
   000007    000001 7020 17             66                TSX2           1,X7
                                        67
                                        68  *D* PROTOTYPE: double asin ( double x )
                                        69  *,* DESCRIPTION: the arc sine value is returned for the arguement.
                                        70  */
                                        71
          (0)000000000010               72  asin          EQU            *
   000010    0 00000 6271 00            73                EAX7           0,,PR0
   000011    000001 3670 03             74                ANX7           1,DU
 11:17 01/06/95  FILE=xb_math:a.:XBC3TSI                                                                 3    BMAP - B00
   000012    0 00000 6375 17            75                EPPR7          0,X7,PR0
   000013    7 00000 4331 00            76                DFLD           0,,PR7         - load arguement
   000014    000000 6270 11             77                EAX7           0,X1
   000015  X 000000 7010 00             78                TSX1           XPE_9DASIN
   000016 (0)000165 7020 00             79                TSX2            report_domain_error
   000017    000001 7020 17             80                TSX2           1,X7
                                        81
                                        82
                                        83  *D* PROTOTYPE: double atan ( double x )
                                        84  *,* DESCRIPTION: the arc tangent value is returned for the arguement.
                                        85  */
                                        86
          (0)000000000020               87  atan          EQU            *
   000020    0 00000 6271 00            88                EAX7           0,,PR0
   000021    000001 3670 03             89                ANX7           1,DU
   000022    0 00000 6375 17            90                EPPR7          0,X7,PR0
   000023    7 00000 4331 00            91                DFLD           0,,PR7         - load arguement
   000024    000000 6270 11             92                EAX7           0,X1
   000025  X 000000 7010 00             93                TSX1           XPE_9DATAN     - call standard math library
   000026 (0)000165 7020 00             94                TSX2            report_domain_error
   000027    000001 7020 17             95                TSX2           1,X7
                                        96
                                        97  *D* PROTOTYPE: double atan2 ( double y, double x )
                                        98  *,* DESCRIPTION: the arc tangent value of y/x is returned for the arguement.
                                        99  */
                                       100
          (0)000000000030              101  atan2         EQU            *
   000030    0 00000 6271 00           102                EAX7           0,,PR0
   000031    000001 3670 03            103                ANX7           1,DU
   000032    0 00000 6315 17           104                EPPR1          0,X7,PR0
   000033    1 00000 4331 00           105                DFLD           0,,PR1         - load arguement
   000034    1 00002 6375 00           106                EPPR7          2,,PR1
   000035    000000 6270 11            107                EAX7           0,X1
   000036  X 000000 7010 00            108                TSX1           XPE_9DATAN2    - call standard math library
   000037 (0)000165 7020 00            109                TSX2            report_domain_error
   000040    000001 7020 17            110                TSX2           1,X7
                                       111
 11:17 01/06/95  FILE=xb_math:a.:XBC3TSI                                                                 4    BMAP - B00
                                       112  *D* PROTOTYPE: double exp ( double x )
                                       113  *,* DESCRIPTION: computes the approximation of e raised to the power x.
                                       114  */
                                       115
          (0)000000000041              116  exp           EQU            *
   000041    0 00000 6271 00           117                EAX7           0,,PR0
   000042    000001 3670 03            118                ANX7           1,DU
   000043    0 00000 6375 17           119                EPPR7          0,X7,PR0
   000044    7 00000 4331 00           120                DFLD           0,,PR7         - load arguement
   000045    000000 6270 11            121                EAX7           0,X1
   000046  X 000000 7010 00            122                TSX1           XPE_9DEXP      - call standard math library
   000047 (0)000165 7020 00            123                TSX2            report_domain_error
   000050    000001 7020 17            124                TSX2           1,X7
                                       125
                                       126  *D* PROTOTYPE: double log ( double x )
                                       127  *,* DESCRIPTION: computes the approximation of the natual logarithm of x.
                                       128  */
                                       129
          (0)000000000051              130  log           EQU            *
   000051    0 00000 6271 00           131                EAX7           0,,PR0
   000052    000001 3670 03            132                ANX7           1,DU
   000053    0 00000 6375 17           133                EPPR7          0,X7,PR0
   000054    7 00000 4331 00           134                DFLD           0,,PR7         - load arguement
   000055    000000 6270 11            135                EAX7           0,X1
   000056 (1)000000 5170 00            136                DFCMP          =0.0D0
   000057 (0)000206 6000 00            137                TZE            range_error    - test for 0.0 argument
   000060  X 000000 7010 00            138                TSX1           XPE_9DLOG      - call standard math library
   000061 (0)000165 7020 00            139                TSX2            report_domain_error
   000062    000001 7020 17            140                TSX2           1,X7
                                       141
                                       142  *D* PROTOTYPE: double log10 ( double x )
                                       143  *,* DESCRIPTION: computes the approximation of the base-10 logarithm of x.
                                       144  */
                                       145
          (0)000000000063              146  log10         EQU            *
   000063    0 00000 6271 00           147                EAX7           0,,PR0
   000064    000001 3670 03            148                ANX7           1,DU
 11:17 01/06/95  FILE=xb_math:a.:XBC3TSI                                                                 5    BMAP - B00
   000065    0 00000 6375 17           149                EPPR7          0,X7,PR0
   000066    7 00000 4331 00           150                DFLD           0,,PR7         - load arguement
   000067    000000 6270 11            151                EAX7           0,X1
   000070 (1)000000 5170 00            152                DFCMP          =0.0D0
   000071 (0)000206 6000 00            153                TZE            range_error    - test for 0.0 argument
   000072  X 000000 7010 00            154                TSX1           XPE_9DLOG10    - call standard math library
   000073 (0)000165 7020 00            155                TSX2            report_domain_error
   000074    000001 7020 17            156                TSX2           1,X7
                                       157
                                       158  *D* PROTOTYPE: double sqrt ( double x )
                                       159  *,* DESCRIPTION: computes the approximation of the non-negative
                                       160  *,*              square root of x.
                                       161  */
                                       162
          (0)000000000075              163  sqrt          EQU            *
   000075    0 00000 6271 00           164                EAX7           0,,PR0
   000076    000001 3670 03            165                ANX7           1,DU
   000077    0 00000 6375 17           166                EPPR7          0,X7,PR0
   000100    7 00000 4331 00           167                DFLD           0,,PR7         - load arguement
   000101    000000 6270 11            168                EAX7           0,X1
   000102  X 000000 7010 00            169                TSX1           XPE_9DSQRT     - call standard math library
   000103 (0)000165 7020 00            170                TSX2            report_domain_error
   000104    000001 7020 17            171                TSX2           1,X7
                                       172
                                       173  *D* PROTOTYPE: double cos ( double x )
                                       174  *,* DESCRIPTION: computes the approximation of the trigonometric
                                       175  *,*              cosine of x.
                                       176  */
                                       177
          (0)000000000105              178  cos           EQU            *
   000105    0 00000 6271 00           179                EAX7           0,,PR0
   000106    000001 3670 03            180                ANX7           1,DU
   000107    0 00000 6375 17           181                EPPR7          0,X7,PR0
   000110    7 00000 4331 00           182                DFLD           0,,PR7         - load arguement
   000111    000000 6270 11            183                EAX7           0,X1
   000112  X 000000 7010 00            184                TSX1           XPE_9DCOS      - call standard math library
   000113 (0)000165 7020 00            185                TSX2            report_domain_error
 11:17 01/06/95  FILE=xb_math:a.:XBC3TSI                                                                 6    BMAP - B00
   000114    000001 7020 17            186                TSX2           1,X7
                                       187
                                       188  *D* PROTOTYPE: double sin ( double x )
                                       189  *,* DESCRIPTION: computes the approximation of the trigonometric
                                       190  *,*              sine of x.
                                       191  */
                                       192
          (0)000000000115              193  sin           EQU            *
   000115    0 00000 6271 00           194                EAX7           0,,PR0
   000116    000001 3670 03            195                ANX7           1,DU
   000117    0 00000 6375 17           196                EPPR7          0,X7,PR0
   000120    7 00000 4331 00           197                DFLD           0,,PR7         - load arguement
   000121    000000 6270 11            198                EAX7           0,X1
   000122  X 000000 7010 00            199                TSX1           XPE_9DSIN      - call standard math library
   000123 (0)000165 7020 00            200                TSX2            report_domain_error
   000124    000001 7020 17            201                TSX2           1,X7
                                       202
                                       203  *D* PROTOTYPE: double tan ( double x )
                                       204  *,* DESCRIPTION: computes the approximation of the trigonometric
                                       205  *,*              tangent of x.
                                       206  */
                                       207
          (0)000000000125              208  tan           EQU            *
   000125    0 00000 6271 00           209                EAX7           0,,PR0
   000126    000001 3670 03            210                ANX7           1,DU
   000127    0 00000 6375 17           211                EPPR7          0,X7,PR0
   000130    7 00000 4331 00           212                DFLD           0,,PR7         - load arguement
   000131    000000 6270 11            213                EAX7           0,X1
   000132  X 000000 7010 00            214                TSX1           XPE_9DTAN      - call standard math library
   000133 (0)000165 7020 00            215                TSX2            report_domain_error
   000134    000001 7020 17            216                TSX2           1,X7
                                       217
                                       218  *D* PROTOTYPE: double cosh ( double x )
                                       219  *,* DESCRIPTION: computes the approximation of the hyperbolic cosine of x.
                                       220  */
                                       221
          (0)000000000135              222  cosh          EQU            *
 11:17 01/06/95  FILE=xb_math:a.:XBC3TSI                                                                 7    BMAP - B00
   000135    0 00000 6271 00           223                EAX7           0,,PR0
   000136    000001 3670 03            224                ANX7           1,DU
   000137    0 00000 6375 17           225                EPPR7          0,X7,PR0
   000140    7 00000 4331 00           226                DFLD           0,,PR7         - load arguement
   000141    000000 6270 11            227                EAX7           0,X1
   000142  X 000000 7010 00            228                TSX1           XPE_9DCOSH     - call standard math library
   000143 (0)000165 7020 00            229                TSX2            report_domain_error
   000144    000001 7020 17            230                TSX2           1,X7
                                       231
                                       232  *D* PROTOTYPE: double sinh ( double x )
                                       233  *,* DESCRIPTION: computes the approximation of the hyperbolic sine of x.
                                       234  */
                                       235
          (0)000000000145              236  sinh          EQU            *
   000145    0 00000 6271 00           237                EAX7           0,,PR0
   000146    000001 3670 03            238                ANX7           1,DU
   000147    0 00000 6375 17           239                EPPR7          0,X7,PR0
   000150    7 00000 4331 00           240                DFLD           0,,PR7         - load arguement
   000151    000000 6270 11            241                EAX7           0,X1
   000152  X 000000 7010 00            242                TSX1           XPE_9DSINH     - call standard math library
   000153 (0)000165 7020 00            243                TSX2            report_domain_error
   000154    000001 7020 17            244                TSX2           1,X7
                                       245
                                       246  *D* PROTOTYPE: double tanh ( double x )
                                       247  *,* DESCRIPTION: computes the approximation of the hyperbolic tangent of x.
                                       248  */
                                       249
          (0)000000000155              250  tanh          EQU            *
   000155    0 00000 6271 00           251                EAX7           0,,PR0
   000156    000001 3670 03            252                ANX7           1,DU
   000157    0 00000 6375 17           253                EPPR7          0,X7,PR0
   000160    7 00000 4331 00           254                DFLD           0,,PR7         - load arguement
   000161    000000 6270 11            255                EAX7           0,X1
   000162  X 000000 7010 00            256                TSX1           XPE_9DTANH     - call standard math library
   000163 (0)000165 7020 00            257                TSX2            report_domain_error
   000164    000001 7020 17            258                TSX2           1,X7
                                       259
 11:17 01/06/95  FILE=xb_math:a.:XBC3TSI                                                                 8    BMAP - B00
                                       260
                                       261  * This code sets errno to EDOM or ERANGE
                                       262  *  input:     EAQ            -result of call to math routine
                                       263  *             X7             -return address to user function
                                       264  *             X0             -18 bit math error code
                                       265
          (0)000000000165              266  report_domain_error EQU      *
   000165 (2)000004 4500 00            267                STZ            TEMP
   000166 (2)000004 7400 00            268                STX0           TEMP           -save error code
   000167 (2)000000 4720 00            269                DFSTR          DTEMP          -save result
   000170    000000 6210 17            270                EAX1           0,X7
   000171  X 000000 7000 00            271                TSX0           _XBC_AUTO_0     -allocate stack frame
   000172    000006 000000             272                ZERO           6,0
   000173 (2)000004 2360 00            273                LDQ            TEMP
   000174    2 00003 7561 00           274                STQ            3,,AUTO        -copy error code into temp
   000175    2 00003 6305 00           275                EPPR0          3,,AUTO
   000176    2 00004 4505 00           276                STP0           4,,AUTO
   000177    2 00004 6305 00           277                EPPR0          4,,AUTO
   000200 (0)000205 6314 00            278                EPPR1          descriptor
   000201  X 000000 7010 00            279                TSX1           XBI$SET_MATH_ERRNO
   000202    000000 0110 07            280                NOP            0,DL
   000203 (2)000000 4330 00            281                DFLD           DTEMP          -restore result in EAQ
   000204  X 000000 7020 00            282                TSX2           _XBC_FARET      -return to user program
   000205    000001 000000             283  descriptor    ZERO           1,0
                                       284
          (0)000000000206              285  range_error  EQU             *
   000206    000000 6210 17            286                EAX1           0,X7
   000207  X 000000 7000 00            287                TSX0           _XBC_AUTO_0     -allocate stack frame
   000210    000006 000000             288                ZERO           6,0
   000211  X 000000 6304 00            289                EPPR0          XB$ERR$RANGE_ERROR
   000212    2 00003 4505 00           290                STP0           3,,AUTO
   000213    2 00003 6305 00           291                EPPR0          3,,AUTO
   000214 (0)000233 6314 00            292                EPPR1          range_error_descrip
   000215  X 000000 7010 00            293                TSX1           XBI_SET_ERRNO
   000216    000000 0110 07            294                NOP            0,DL
   000217 (2)000002 4330 00            295                DFLD           MIN_HVAL
   000220  X 000000 7020 00            296                TSX2           _XBC_FARET
 11:17 01/06/95  FILE=xb_math:a.:XBC3TSI                                                                 9    BMAP - B00
                                       297
   000221                              298  _XPE$ERR_RANGE NULL
                                       299                INHIB          ON
   000221  X 000000 7002 00            300                TSX0           _XBC_AUTO_0     -allocate stack frame
   000222    000006 000000             301                ZERO           6,0
   000223  X 000000 6306 00            302                EPPR0          XB$ERR$RANGE_ERROR
   000224    2 00003 4507 00           303                STP0           3,,AUTO
   000225    2 00003 6307 00           304                EPPR0          3,,AUTO
                                       305                INHIB          OFF
   000226 (0)000233 6314 00            306                EPPR1          range_error_descrip
   000227  X 000000 7010 00            307                TSX1           XBI_SET_ERRNO
   000230    000000 0110 00            308                NOP            0
   000231 (2)000002 4330 00            309                DFLD           MIN_HVAL
   000232  X 000000 7020 00            310                TSX2           _XBC_FAALT
          (0)000000000233              311  range_error_descrip EQU     *
   000233    000001 000000             312               ZERO           1,0
                                       313
                                       314
   000234                              315  _XPE$ERR      NULL
                                       316                INHIB          ON
   000234 (2)000004 4502 00            317                STZ            TEMP
   000235 (2)000004 7402 00            318                STX0           TEMP           -save error code
   000236 (2)000000 4722 00            319                DFSTR          DTEMP          -save result
   000237  X 000000 7002 00            320                TSX0           _XBC_AUTO_0     -allocate stack frame
   000240    000010 000000             321                ZERO           8,0
   000241 (2)000004 2362 00            322                LDQ            TEMP
   000242    2 00003 7563 00           323                STQ            3,,AUTO        -copy error code into temp
   000243 (2)000000 2372 00            324                LDAQ           DTEMP
   000244    2 00004 7573 00           325                STAQ           4,,AUTO
                                       326                INHIB          OFF
   000245    2 00003 6305 00           327                EPPR0          3,,AUTO
   000246    2 00006 4505 00           328                STP0           6,,AUTO
   000247    2 00006 6305 00           329                EPPR0          6,,AUTO
   000250 (0)000205 6314 00            330                EPPR1          descriptor
   000251  X 000000 7010 00            331                TSX1           XBI$SET_MATH_ERRNO
   000252    000000 0110 07            332                NOP            0,DL
   000253    2 00004 4331 00           333                DFLD           4,,AUTO        -restore result in EAQ
 11:17 01/06/95  FILE=xb_math:a.:XBC3TSI                                                                 10   BMAP - B00
   000254  X 000000 7020 00            334                TSX2           _XBC_FAALT      -return to user program
 2 000000                              335                USE            math,0
                                       336                EVEN
   000000    000000000000              337  DTEMP         OCT            0
   000001    000000000000              338                OCT            0
                                       339                EVEN
   000002    377000000001              340  MIN_HVAL      OCT            377000000001
   000003    000000000000              341                OCT            0
                                       342                EVEN
   000004    000000000000              343  TEMP          OCT            0
                                       344
                                       345                END
 1 000000    400000000000
   000001    000000000000

  CONTROL SECTION TABLE

   0 CODE   EVEN  000255 ACOS
   1 RODATA EVEN  000002 LITERALS
   2 DATA   EVEN  000005 MATH

 11:17 01/06/95  FILE=xb_math:a.:XBC3TSI      SYMBOL TABLE                                               11   BMAP - B00
 00101000 000000000000 /*T*            *6
 00101000 000000000000 /*T***************************      *6
 52101000 000000000000 ACOS             8       *58
 52101000 000000000010 ASIN             9       *72
 52101000 000000000020 ATAN            10       *87
 52101000 000000000030 ATAN2           11      *101
 41000000 000000000102 AUTO            *6       274       275       276       277       290       291
                                      303       304       323       325       327       328       329
                                      333
 52101000 000000000105 COS             16      *178
 52101000 000000000135 COSH            19      *222
 01101000 000000000205 DESCRIPTOR     278      *283       330
 01101002 000000000000 DTEMP          269       281       319       324      *337
 52101000 000000000041 EXP             12      *116
 52101000 000000000051 LOG             13      *130
 52101000 000000000063 LOG10           14      *146
 01101002 000000000002 MIN_HVAL       295       309      *340
 41000000 000000000100 PR0             *6        59        61        73        75        88        90
                                      102       104       117       119       131       133       147
                                      149       164       166       179       181       194       196
                                      209       211       223       225       237       239       251
                                      253
 41000000 000000000101 PR1             *6       105       106
 41000000 000000000102 PR2             *6
 41000000 000000000103 PR3             *6
 41000000 000000000104 PR4             *6
 41000000 000000000105 PR5             *6
 41000000 000000000106 PR6             *6
 41000000 000000000107 PR7             *6        62        76        91       120       134       150
                                      167       182       197       212       226       240       254
 41101000 000000000206 RANGE_ERROR    137       153      *285
 41101000 000000000233 RANGE_ERROR_DESCRIP      292       306      *311
 41101000 000000000165 REPORT_DOMAIN_ERROR       65        79        94       109       123       139
                                      155       170       185       200       215       229       243
                                      257      *266
 52101000 000000000115 SIN             17      *193
 52101000 000000000145 SINH            20      *236
 11:17 01/06/95  FILE=xb_math:a.:XBC3TSI      SYMBOL TABLE                                               12   BMAP - B00
 52101000 000000000075 SQRT            15      *163
 52101000 000000000125 TAN             18      *208
 52101000 000000000155 TANH            21      *250
 01101002 000000000004 TEMP           267       268       273       317       318       322      *343
 03301000 000000000000 XB$ERR$RANGE_ERROR       *49       289       302
 03201020 000000000000 XBI$SET_MATH_ERRNO       *45       279       331
 03201021 000000000000 XBI_SET_ERRNO  *46       293       307
 02201019 000000000000 XFE_9IDINT     *44
 03201005 000000000000 XPE_9DACOS     *30        64
 03201006 000000000000 XPE_9DASIN     *31        78
 03201007 000000000000 XPE_9DATAN     *32        93
 03201008 000000000000 XPE_9DATAN2    *33       108
 03201013 000000000000 XPE_9DCOS      *38       184
 03201016 000000000000 XPE_9DCOSH     *41       228
 03201009 000000000000 XPE_9DEXP      *34       122
 03201010 000000000000 XPE_9DLOG      *35       138
 03201011 000000000000 XPE_9DLOG10    *36       154
 03201014 000000000000 XPE_9DSIN      *39       199
 03201017 000000000000 XPE_9DSINH     *42       242
 03201012 000000000000 XPE_9DSQRT     *37       169
 03201015 000000000000 XPE_9DTAN      *40       214
 03201018 000000000000 XPE_9DTANH     *43       256
 03201000 000000000000 _XBC_AUTO_0    *25       271       287       300       320
 02201001 000000000000 _XBC_AUTO_2    *26
 02201002 000000000000 _XBC_AUTO_5    *27
 03201004 000000000000 _XBC_FAALT     *29       310       334
 03201003 000000000000 _XBC_FARET     *28       282       296
 12101000 000000000234 _XPE$ERR        22      *315
 12101000 000000000221 _XPE$ERR_RANGE            23      *298

      57 SYMBOLS

       0 MACROS

    SYMBOL SPACE USED   829 WORDS
     MACRO SPACE USED     0 WORDS
   INPUT RECORDS READ   706
 11:17 01/06/95  FILE=xb_math:a.:XBC3TSI      SYMBOL TABLE                                               13   BMAP - B00
 STATEMENTS PROCESSED   291
         ELAPSED TIME  0:01.80
             CPU TIME     1.47 SEC.
        ASSEMBLY RATE 11878 STATEMENTS/CPU MIN.

      NO ERRORS

