
 11:17 01/06/95  FILE=xb_math_3:a.:XBC3TSI                                                               1    BMAP - B00
                                         1  *T***********************************************************
                                         2  *T*                                                         *
                                         3  *T* Copyright (c) Bull HN Information Systems Inc., 1989    *
                                         4  *T*                                                         *
                                         5  *T***********************************************************
                                         6                LODM           xbi_std_ig
                                         7
                                         8                ENTDEF         pow
                                         9                ENTDEF         frexp
                                        10                ENTDEF         ldexp
                                        11
                                        12                ENTREF         _XBC_AUTO_0
                                        13                ENTREF         _XBC_AUTO_2
                                        14                ENTREF         _XBC_AUTO_5
                                        15                ENTREF         _XBC_FARET
                                        16                ENTREF         XPE_9PWRDD
                                        17                ENTREF         XPE_9PWRRI
                                        18                ENTREF         XBI$SET_MATH_ERRNO
                                        19
                                        20
                                        21                SYMREF         XB$ERR$RANGE_ERROR
                                        22
 0 000000                               23                USE            pow,1
                                        24
                                        25
                                        26  *D* PROTOTYPE: double pow ( double x,y )
                                        27  *,* DESCRIPTION: computes the approximation of the power function,
                                        28  *,*              x raised to the power y.
                                        29  */
                                        30
          (0)000000000000               31  pow           EQU            *
   000000    0 00000 6271 00            32                EAX7           0,,PR0
   000001    000001 3670 03             33                ANX7           1,DU
   000002    0 00000 6315 17            34                EPPR1          0,X7,PR0
   000003    1 00000 4331 00            35                DFLD           0,,PR1         - load arguement
   000004    1 00002 6375 00            36                EPPR7          2,,PR1
   000005    000000 6270 11             37                EAX7           0,X1
 11:17 01/06/95  FILE=xb_math_3:a.:XBC3TSI                                                               2    BMAP - B00
   000006  X 000000 7010 00             38                TSX1           XPE_9PWRDD     - call standard math library
   000007 (0)000077 7020 00             39                TSX2            report_domain_error
   000010    000001 7020 17             40                TSX2           1,X7
                                        41
                                        42
                                        43
                                        44  *D* PROTOTYPE: double ldexp ( double x, int n )
                                        45  *,* DESCRIPTION: ldexp is the inverse of frexp calulating (x*( 2**n )).
                                        46  *,*
                                        47  */
                                        48
          (0)000000000011               49  ldexp         EQU            *
   000011    0 00000 6271 00            50                EAX7           0,,PR0
   000012    000001 3670 03             51                ANX7           1,DU
   000013    0 00000 6315 17            52                EPPR1          0,X7,PR0
   000014    1 00000 2371 00            53                LDAQ           0,,PR1
   000015    000000 6270 11             54                EAX7           0,X1
   000016 (2)000000 7570 00             55                STAQ           DTEMP          - save x in temp
   000017    002100 4310 03             56                FLD            1088,DU        - constant 2.0
   000020    1 00002 6375 00            57                EPPR7          2,,PR1         - point to n
   000021  X 000000 7010 00             58                TSX1           XPE_9PWRRI     - standard library real raised
   000022 (0)000077 7020 00             59                TSX2            report_domain_error -oops, an error!
   000023 (2)000000 4630 00             60                DFMP           DTEMP          -multiply by x
   000024    000001 7020 17             61                TSX2           1,X7
                                        62
                                        63
                                        64
                                        65  *D* PROTOTYPE: double frexp ( double value, int *eptr )
                                        66  *,* DESCRIPTION: frexp splits a floating point number into a fraction f
                                        67  *,*              and an exponent n such that the absolute value of f is
                                        68  *,*              less than 1.0 and such that f * (2 **n) is equal to x.
                                        69  *,*
                                        70  *,*
                                        71  */
          (0)000000000025               72  frexp         EQU            *
   000025    0 00000 6271 00            73                EAX7           0,,PR0
   000026    000001 3670 03             74                ANX7           1,DU
 11:17 01/06/95  FILE=xb_math_3:a.:XBC3TSI                                                               3    BMAP - B00
   000027    0 00000 6375 17            75                EPPR7          0,X7,PR0
   000030    7 00002 4735 00            76                LDP3           2,,PR7         -load pointer to n
   000031    7 00000 4331 00            77                DFLD           0,,PR7
   000032 (0)000035 6010 00             78                TNZ            NOT_ZERO
   000033    3 00000 4501 00            79                STZ            0,,PR3
   000034    000001 7020 11             80                TSX2           1,X1
          (0)000000000035               81  NOT_ZERO      EQU            *
   000035    7 00000 2351 00            82                LDA            0,,PR7
   000036    776000 3750 03             83                ANA            =o776000,DU
   000037    000032 7310 00             84                ARS            26
   000040    3 00000 7551 00            85                STA            0,,PR3
   000041    7 00000 2351 00            86                LDA            0,,PR7
   000042    001000 3750 03             87                ANA            =o001000,DU
   000043 (0)000061 6000 00             88                TZE            PLUS_MANTISSA
   000044    7 00000 3371 00            89                LCAQ           0,,PR7
   000045 (2)000002 4500 00             90                STZ            TEMP
   000046    000010 7370 00             91                LLS            8
   000047    000001 7370 00             92  LOOP1         LLS            1
   000050 (0)000053 6040 00             93                TMI            EXIT1
   000051 (2)000002 0540 00             94                AOS            TEMP
   000052 (0)000047 7100 00             95                TRA            LOOP1
   000053    000011 7730 00             96  EXIT1         LRL            9
   000054 (2)000000 7570 00             97                STAQ           DTEMP
   000055 (2)000000 3370 00             98                LCAQ           DTEMP
   000056 (1)000000 3750 00             99                ANA            =o001777777777
   000057 (2)000000 7570 00            100                STAQ           DTEMP
   000060 (0)000072 7100 00            101                TRA            DONE
          (0)000000000061              102  PLUS_MANTISSA EQU            *
   000061    7 00000 2371 00           103                LDAQ           0,,PR7
   000062 (2)000002 4500 00            104                STZ            TEMP
   000063    000010 7370 00            105                LLS            8
   000064    000001 7370 00            106  LOOP2         LLS            1
   000065 (0)000070 6040 00            107                TMI            EXIT2
   000066 (2)000002 0540 00            108                AOS            TEMP
   000067 (0)000064 7100 00            109                TRA            LOOP2
   000070    000011 7730 00            110  EXIT2         LRL            9
   000071 (2)000000 7570 00            111                STAQ           DTEMP
 11:17 01/06/95  FILE=xb_math_3:a.:XBC3TSI                                                               4    BMAP - B00
          (0)000000000072              112  DONE          EQU            *
   000072    3 00000 2351 00           113                LDA            0,,PR3
   000073 (2)000002 1750 00            114                SBA            TEMP
   000074    3 00000 7551 00           115                STA            0,,PR3
   000075 (2)000000 4330 00            116                DFLD           DTEMP
   000076    000001 7020 11            117                TSX2           1,X1
                                       118
                                       119  * This code sets errno to EDOM or ERANGE
                                       120  *  input:     EAQ            -result of call to math routine
                                       121  *             X7             -return address to user function
                                       122  *             X0             -18 bit math error code
                                       123
          (0)000000000077              124  report_domain_error EQU      *
   000077 (2)000002 4500 00            125                STZ            TEMP
   000100 (2)000002 7400 00            126                STX0           TEMP           -save error code
   000101 (2)000000 4720 00            127                DFSTR          DTEMP          -save result
   000102    000000 6210 17            128                EAX1           0,X7
   000103  X 000000 7000 00            129                TSX0           _XBC_AUTO_0     -allocate stack frame
   000104    000006 000000             130                ZERO           6,0
   000105 (2)000002 2360 00            131                LDQ            TEMP
   000106    2 00003 7561 00           132                STQ            3,,AUTO        -copy error code into temp
   000107    2 00003 6305 00           133                EPPR0          3,,AUTO
   000110    2 00004 4505 00           134                STP0           4,,AUTO
   000111    2 00004 6305 00           135                EPPR0          4,,AUTO
   000112 (0)000117 6314 00            136                EPPR1          descriptor
   000113  X 000000 7010 00            137                TSX1           XBI$SET_MATH_ERRNO
   000114    000000 0110 07            138                NOP            0,DL
   000115 (2)000000 4330 00            139                DFLD           DTEMP          -restore result in EAQ
   000116  X 000000 7020 00            140                TSX2           _XBC_FARET      -return to user program
   000117    000001 000000             141  descriptor    ZERO           1,0
                                       142
                                       143
 2 000000                              144                USE            math,0
                                       145                EVEN
   000000    000000000000              146  DTEMP         OCT            0
   000001    000000000000              147                OCT            0
   000002    000000000000              148  TEMP          OCT            0
 11:17 01/06/95  FILE=xb_math_3:a.:XBC3TSI                                                               5    BMAP - B00
                                       149
                                       150                END
 1 000000    001777777777

  CONTROL SECTION TABLE

   0 CODE   EVEN  000120 POW
   1 RODATA EVEN  000001 LITERALS
   2 DATA   EVEN  000003 MATH

 11:17 01/06/95  FILE=xb_math_3:a.:XBC3TSI    SYMBOL TABLE                                               6    BMAP - B00
 00101000 000000000000 /*T*            *6
 00101000 000000000000 /*T***************************      *6
 41000000 000000000102 AUTO            *6       132       133       134       135
 01101000 000000000117 DESCRIPTOR     136      *141
 41101000 000000000072 DONE           101      *112
 01101002 000000000000 DTEMP           55        60        97        98       100       111       116
                                      127       139      *146
 01101000 000000000053 EXIT1           93       *96
 01101000 000000000070 EXIT2          107      *110
 52101000 000000000025 FREXP            9       *72
 52101000 000000000011 LDEXP           10       *49
 01101000 000000000047 LOOP1          *92        95
 01101000 000000000064 LOOP2         *106       109
 41101000 000000000035 NOT_ZERO        78       *81
 41101000 000000000061 PLUS_MANTISSA   88      *102
 52101000 000000000000 POW              8       *31
 41000000 000000000100 PR0             *6        32        34        50        52        73        75
 41000000 000000000101 PR1             *6        35        36        53        57
 41000000 000000000102 PR2             *6
 41000000 000000000103 PR3             *6        79        85       113       115
 41000000 000000000104 PR4             *6
 41000000 000000000105 PR5             *6
 41000000 000000000106 PR6             *6
 41000000 000000000107 PR7             *6        76        77        82        86        89       103
 41101000 000000000077 REPORT_DOMAIN_ERROR       39        59      *124
 01101002 000000000002 TEMP            90        94       104       108       114       125       126
                                      131      *148
 02301000 000000000000 XB$ERR$RANGE_ERROR       *21
 03201006 000000000000 XBI$SET_MATH_ERRNO       *18       137
 03201004 000000000000 XPE_9PWRDD     *16        38
 03201005 000000000000 XPE_9PWRRI     *17        58
 03201000 000000000000 _XBC_AUTO_0    *12       129
 02201001 000000000000 _XBC_AUTO_2    *13
 02201002 000000000000 _XBC_AUTO_5    *14
 03201003 000000000000 _XBC_FARET     *15       140

      33 SYMBOLS
 11:17 01/06/95  FILE=xb_math_3:a.:XBC3TSI    SYMBOL TABLE                                               7    BMAP - B00

       0 MACROS

    SYMBOL SPACE USED   443 WORDS
     MACRO SPACE USED     0 WORDS
   INPUT RECORDS READ   316
 STATEMENTS PROCESSED   134
         ELAPSED TIME  0:01.12
             CPU TIME     0.78 SEC.
        ASSEMBLY RATE 10308 STATEMENTS/CPU MIN.

      NO ERRORS

