
 11:16 01/06/95  FILE=xb_memccpy:a.:XBC3TSI                                                              1    BMAP - B00
                                         1  *T***********************************************************
                                         2  *T*                                                         *
                                         3  *T* Copyright (c) Bull HN Information Systems Inc., 1989    *
                                         4  *T*                                                         *
                                         5  *T***********************************************************
                                         6                LODM           xbi_std_ig
                                         7
                                         8                ENTDEF         memccpy
                                         9
                                        10                SEGREF         NULLSID
                                        11
                                        12  *D* PROTOTYPE:   void *memccpy (void *dest,const void *source, size_t i, size_t n);
                                        13  *,* DESCRIPTION: copies n bytes or stopping when c is found in s2 into
                                        14  *,*              dest.  It returns a pointer to the character after c
                                        15  *,*              was found, else a null pointer is returned.
                                        16  *,*           WGE Sep 14, 1990
                                        17  */
          (0)000000000000               18  memccpy       EQU            *
 0 000000    0 00000 4715 00            19                LDP1           0,,PR0         destination pointer
   000001    0 00001 4735 00            20                LDP3           1,,PR0         source pointer
   000002    0 00003 2361 00            21                LDQ            3,,PR0         string size
   000003 (2)000000 7560 00             22                STQ            CHARPOS
   000004    000 0 100 1245 40          23                SCM            (1,1),(1,0),0   search for character
   000005    3 00000 0 0 0 0006         24                ADSC9          0,0,QL,PR3
   000006    0 00002 6 0 0 0000         25                ADSC9          2,3,,PR0
   000007 (2)000000 0000 00             26                ARG            CHARPOS
   000010 (0)000022 6064 00             27                TTN            no_char        c not in input string
   000011 (2)000000 2360 00             28                LDQ            CHARPOS
   000012    000001 0360 07             29                ADLQ           1,DL
   000013    000 0 140 1005 40          30                MLR            (1,1),(1,1)
   000014    3 00000 0 0 0 0006         31                ADSC9          0,0,QL,PR3
   000015    1 00000 0 0 0 0006         32                ADSC9          0,0,QL,PR1
   000016    000001 0360 07             33                ADLQ           1,DL
   000017    000020 7360 00             34                QLS            16             return src ptr+CHARPOS
   000020    0 00001 0361 00            35                ADLQ           1,,PR0
   000021    000001 7100 11             36                TRA            1,X1
          (0)000000000022               37  no_char       EQU            *
 11:16 01/06/95  FILE=xb_memccpy:a.:XBC3TSI                                                              2    BMAP - B00
   000022    000 0 140 1005 40          38                MLR            (1,1),(1,1)
   000023    3 00000 0 0 0 0006         39                ADSC9          0,0,QL,PR3
   000024    1 00000 0 0 0 0006         40                ADSC9          0,0,QL,PR1
   000025  X 000000 2360 07             41                LDQ            NULLSID,DL      not found return null
   000026    000001 7100 11             42                TRA            1,X1
                                        43
 2 000000                               44                USE            string,0
                                        45                EVEN
   000000    000000000000               46  CHARPOS       OCT            0
                                        47                END

  CONTROL SECTION TABLE

   0 CODE   EVEN  000027
   1 RODATA EVEN  000000 LITERALS
   2 DATA   EVEN  000001 STRING

 11:16 01/06/95  FILE=xb_memccpy:a.:XBC3TSI   SYMBOL TABLE                                               3    BMAP - B00
 00101000 000000000000 /*T*            *6
 00101000 000000000000 /*T***************************      *6
 40000000 000000000102 AUTO            *6
 01101002 000000000000 CHARPOS         22        26        28       *46
 52101000 000000000000 MEMCCPY          8       *18
 41101000 000000000022 NO_CHAR         27       *37
 03601000 000000000000 NULLSID        *10        41
 41000000 000000000100 PR0             *6        19        20        21        25        35
 41000000 000000000101 PR1             *6        32        40
 41000000 000000000102 PR2             *6
 41000000 000000000103 PR3             *6        24        31        39
 41000000 000000000104 PR4             *6
 41000000 000000000105 PR5             *6
 41000000 000000000106 PR6             *6
 40000000 000000000107 PR7             *6

      15 SYMBOLS

       0 MACROS

    SYMBOL SPACE USED   177 WORDS
     MACRO SPACE USED     0 WORDS
   INPUT RECORDS READ   110
 STATEMENTS PROCESSED    52
         ELAPSED TIME  0:01.00
             CPU TIME     0.36 SEC.
        ASSEMBLY RATE  8667 STATEMENTS/CPU MIN.

      NO ERRORS

