
 11:17 01/06/95  FILE=xb_memory:a.:XBC3TSI                                                               1    BMAP - B00
                                         1  *T***********************************************************
                                         2  *T*                                                         *
                                         3  *T* Copyright (c) Bull HN Information Systems Inc., 1989    *
                                         4  *T*                                                         *
                                         5  *T***********************************************************
                                         6                LODM           xbi_std_ig
                                         7
                                         8                ENTDEF         memset
                                         9                ENTDEF         memcpy
                                        10                ENTDEF         memcmp
                                        11                ENTDEF         zmemset1
                                        12
                                        13  *D* PROTOTYPE: void *memset (const void *array, int ch, size_t n);
                                        14  *,* DESCRIPTION: sets n bytes in array to the value ch. Returns the
                                        15  *,*              address of array.
                                        16  */
          (0)000000000000               17  memset        EQU            *
 0 000000    0 00000 4715 00            18                LDP1           0,,PR0         pointer to string
   000001    0 00002 2351 00            19                LDA            2,,PR0         length of string
   000002    0 00001 2361 00            20                LDQ            1,,PR0         load fill value
          (0)000000000003               21  zmemset1      EQU            *
   000003    000033 7360 00             22                QLS            27             shift to top value
   000004 (2)000000 5520 40             23                STBQ           memset_unprotected,40 store into MLR
   000005    0 00000 2361 00            24                LDQ            0,,PR0         load result (pointer to string)
   000006 (2)000000 7100 00             25                TRA            memset_unprotected
                                        26
 2 000000                               27                USE            memset_unprotected,0
          (2)000000000000               28  memset_unprotected EQU       *
   000000    000 0 140 1004 00          29                MLR            (0,0),(1,1),0
   000001    000000 0 0 0 0000          30                ADSC9          0
   000002    1 00000 0 0 0 0005         31                ADSC9          0,,AL,PR1
   000003    000001 7100 11             32                TRA            1,X1           return
                                        33
 3 000000                               34                USE            memcpy,1
                                        35
                                        36  *D* PROTOTYPE:   void *memcpy (void *dest,const void *source, size_t n);
                                        37  *,* DESCRIPTION: copies n bytes from source to dest.
 11:17 01/06/95  FILE=xb_memory:a.:XBC3TSI                                                               2    BMAP - B00
                                        38  *,*              Returns pointer to destination.
                                        39  *,*           JAS Oct 13, 1988
                                        40  */
          (3)000000000000               41  memcpy        EQU            *
   000000    0 00000 4715 00            42                LDP1           0,,PR0         destination pointer
   000001    0 00001 4735 00            43                LDP3           1,,PR0         source pointer
   000002    0 00002 2361 00            44                LDQ            2,,PR0         string size
   000003    000 0 140 1005 40          45                MLR            (1,1),(1,1)
   000004    3 00000 0 0 0 0006         46                ADSC9          0,0,QL,PR3
   000005    1 00000 0 0 0 0006         47                ADSC9          0,0,QL,PR1
   000006    0 00000 2361 00            48                LDQ            0,,PR0         return dest pointer
   000007    000001 7100 11             49                TRA            1,X1
                                        50
                                        51  *D* PROTOTYPE:   int *memcmp (void *array1,*array2, size_t n);
                                        52  *,* DESCRIPTION: compares two strings array1 and array2 for exatly
                                        53  *,*              the first n bytes. Returns <0 if array1 is less
                                        54  *,*              than array2, =0 if they are the same and >0 if
                                        55  *,*              array1 if greater than array2.
                                        56  */
          (3)000000000010               57  memcmp        EQU            *
   000010    0 00000 4715 00            58                LDP1           0,,PR0         pointer to s1
   000011    0 00001 4735 00            59                LDP3           1,,PR0         pointer to s2
   000012    0 00002 2361 00            60                LDQ            2,,PR0         size of s1 and s2
   000013    000 0 140 1065 40          61                CMPC           (1,1),(1,1),0
   000014    1 00000 0 0 0 0006         62                ADSC9          0,0,QL,PR1
   000015    3 00000 0 0 0 0006         63                ADSC9          0,0,QL,PR3
   000016 (3)000021 6030 00             64                TRC            memcmp_carry
   000017    000001 3360 07             65                LCQ            1,DL           s1 < s2
   000020    000001 7100 11             66                TRA            1,X1
          (3)000000000021               67  memcmp_carry  EQU            *
   000021 (3)000024 6000 00             68                TZE            memcmp_zero
   000022    000001 2360 07             69                LDQ            1,DL           s1 > s2
   000023    000001 7100 11             70                TRA            1,X1
          (3)000000000024               71  memcmp_zero   EQU            *
   000024    000000 2360 07             72                LDQ            0,DL           s1 = s2
   000025    000001 7100 11             73                TRA            1,X1
                                        74
 11:17 01/06/95  FILE=xb_memory:a.:XBC3TSI                                                               3    BMAP - B00
                                        75                END

  CONTROL SECTION TABLE

   0 CODE   EVEN  000007
   1 RODATA EVEN  000000 LITERALS
   2 DATA   EVEN  000004 MEMSET_UNPROTECTED
   3 CODE   EVEN  000026 MEMCPY

 11:17 01/06/95  FILE=xb_memory:a.:XBC3TSI    SYMBOL TABLE                                               4    BMAP - B00
 00101000 000000000000 /*T*            *6
 00101000 000000000000 /*T***************************      *6
 40000000 000000000102 AUTO            *6
 52101003 000000000010 MEMCMP          10       *57
 41101003 000000000021 MEMCMP_CARRY    64       *67
 41101003 000000000024 MEMCMP_ZERO     68       *71
 52101003 000000000000 MEMCPY           9       *41
 52101000 000000000000 MEMSET           8       *17
 41101002 000000000000 MEMSET_UNPROTECTED        23        25       *28
 41000000 000000000100 PR0             *6        18        19        20        24        42        43
                                       44        48        58        59        60
 41000000 000000000101 PR1             *6        31        47        62
 41000000 000000000102 PR2             *6
 41000000 000000000103 PR3             *6        46        63
 41000000 000000000104 PR4             *6
 41000000 000000000105 PR5             *6
 41000000 000000000106 PR6             *6
 40000000 000000000107 PR7             *6
 52101000 000000000003 ZMEMSET1        11       *21

      18 SYMBOLS

       0 MACROS

    SYMBOL SPACE USED   225 WORDS
     MACRO SPACE USED     0 WORDS
   INPUT RECORDS READ   166
 STATEMENTS PROCESSED    72
         ELAPSED TIME  0:00.80
             CPU TIME     0.49 SEC.
        ASSEMBLY RATE  8816 STATEMENTS/CPU MIN.

      NO ERRORS

