
PL6.E3A0      #001=ULIMIT File=xb_misc_sysv:6.:XBC3TSI                           FRI 01/06/95 11:10 Page:1
        1        1        /*M*    xb_misc_sysv:6    --    Miscellaneous system five functions */
        2        2        /*T***********************************************************/
        3        3        /*T*                                                         */
        4        4        /*T* Copyright (c) Bull HN Information Systems Inc., 1989    */
        5        5        /*T*                                                         */
        6        6        /*T***********************************************************/
        7        7
        8        8        /*F*    NAME:          ulimit(int cmd, long newlimit);
        9        9                PURPOSE:       Get user memory limit.
       10       10                DESCRIPTION:
       11       11                      The full system five functionality provides the ability
       12       12                      to set and get three different limits.  This function
       13       13                      only supports getting the maximum possible break value.
       14       14        */
       15       15
       16       16        ulimit  :  proc(pcmd) ;
       17       17
       18       18    1   dcl  pcmd        sbin;
       19       19    1   dcl  cmd         sbin;
       20       20    1   dcl  cmd_p       redef cmd ptr;
       21       21
       22       22        %include   CP_6;
       23     5582
       24     5583        %FPT_GDDL(    FPTN     =  GDDL_CONST,
       25     5584                      STCLASS  =  CONSTANT);
       26     5597
       27     5598        %FPT_GDDL(    FPTN     =  FPT_GDDL,
       28     5599                      STCLASS  =  "");
       29     5612
       30     5613        %VLP_GDDL(    FPTN     =  GDDL_RESULTS,
       31     5614                      STCLASS  =  "");
       32     5628
       33     5629    1   DCL  XB_RETURN_ORDINAL_RESULT   entry(1);
       34     5630
       35     5631    1        cmd_p = addr(pcmd);
       36     5632    1        if (cmd ~= 3)
       37     5633    1           then call XB_RETURN_ORDINAL_RESULT( -1 );
PL6.E3A0      #001=ULIMIT File=xb_misc_sysv:6.:XBC3TSI                           FRI 01/06/95 11:10 Page:2
       38     5634    1        FPT_GDDL = GDDL_CONST;
       39     5635    1        FPT_GDDL.RESULTS_ = vector(GDDL_RESULTS);
       40     5636    2        call M$GDDL(FPT_GDDL) whenaltreturn do;
       41     5637    2           CALL XB_RETURN_ORDINAL_RESULT (0);
       42     5638    2           end;
       43     5639
       44     5640    1        call XB_RETURN_ORDINAL_RESULT( GDDL_RESULTS.AVAIL_PGS# * 4096 );
       45     5641
       46     5642    1   end ulimit;
       47     5643        %EOD;

PL6.E3A0      #001=ULIMIT File=xb_misc_sysv:6.:XBC3TSI                           FRI 01/06/95 11:10 Page:3
--  Include file information  --

   CP_6_C.:LIB_E04  is referenced.
   CP_6.:LIB_E04  cannot be made into a system file and is referenced.
      No diagnostics issued in procedure ULIMIT.

   Procedure ULIMIT requires 37 words for executable code.
   Procedure ULIMIT requires 14 words of local(AUTO) storage.

PL6.E3A0      #001=ULIMIT File=xb_misc_sysv:6.:XBC3TSI                           FRI 01/06/95 11:10 Page:4
          *** CROSS REFERENCE LISTING ***
**     DENOTES     IDENTIFIER DEFINITION
<<                 IDENTIFIER'S VALUE SET
>>                 IDENTIFIER'S VALUE USED
<>                 IDENTIFIER SET AND/OR USED
--                 IDENTIFIER REFERENCED
PL6.E3A0      #001=ULIMIT File=xb_misc_sysv:6.:XBC3TSI                           FRI 01/06/95 11:10 Page:5
          MINI XREF LISTING

CMD
        19**DCL        20--REDEF    5632>>IF
CMD_P
        20**DCL      5631<<ASSIGN
FPT_GDDL
      5610**DCL      5634<<ASSIGN   5636<>CALL
FPT_GDDL.RESULTS_
      5610**DCL      5635<<ASSIGN
GDDL_CONST
      5595**DCL      5634>>ASSIGN
GDDL_RESULTS
      5625**DCL      5635--ASSIGN
GDDL_RESULTS.AVAIL_PGS#
      5626**DCL      5640>>CALL
M$GDDL
      5547**DCL-ENT  5636--CALL
PCMD
        18**DCL        16--PROC     5631--ASSIGN
XB_RETURN_ORDINAL_RESULT
      5629**DCL-ENT  5633--CALL     5637--CALL     5640--CALL

PL6.E3A0      #002=UNAME File=xb_misc_sysv:6.:XBC3TSI                            FRI 01/06/95 11:10 Page:6
       48        1        /*T***********************************************************/
       49        2        /*T*                                                         */
       50        3        /*T* Copyright (c) Bull HN Information Systems Inc., 1989    */
       51        4        /*T*                                                         */
       52        5        /*T***********************************************************/
       53        6        /*F*    NAME:       uname(struct utsname *name);
       54        7                PURPOSE:    To return the name of the current CP-6 system.
       55        8                DESCRIPTION:
       56        9                   The following information is returned about the current
       57       10                   system:
       58       11
       59       12                   struct   utsname {
       60       13                      char     sysname[24];   /@ site_name    @/
       61       14                      char     nodename[8];   /@ site_id      @/
       62       15                      char     release[8];    /@ CP-6 release @/
       63       16                      char     version[8];    /@ patch week   @/
       64       17                      char     machine[12];   /@ machine name @/
       65       18                      }
       66       19
       67       20        */
       68       21
       69       22        uname   :  proc( utsname ) ;
       70       23
       71       24    1   dcl  1  utsname     caligned,
       72       25    1           2  sysname  char(24),
       73       26    1           2  nodename char(8),
       74       27    1           2  release  char(8),
       75       28    1           2  version  char(8),
       76       29    1           2  machine  char(12);
       77       30
       78       31        %include   CP_6;
       79     5591        %include   B_STRINGS_C;
       80     5720
       81     5721        %FPT_MONINFO( FPTN        =  FPT_MONINFO_CONST,
       82     5722                      STCLASS     =  CONSTANT);
       83     5737
       84     5738        %VLR_SITEINFO(FPTN        =  VLR_SITEINFO,
PL6.E3A0      #002=UNAME File=xb_misc_sysv:6.:XBC3TSI                            FRI 01/06/95 11:10 Page:7
       85     5739                      STCLASS     =  "");
       86     5758
       87     5759        %FPT_MONINFO( FPTN        =  FPT_MONINFO,
       88     5760                      STCLASS     =  "");
       89     5775
       90     5776
       91     5777    1   DCL  sz                SBIN;
       92     5778    1   DCL  clearit           char(sz) based;
       93     5779    1   DCL  XB_RETURN_ORDINAL_RESULT entry(1);
       94     5780
       95     5781    1   dcl  machines(0:9)  char(12) constant init(
       96     5782    1        'L66', 'DPS8/70', 'DPS8/44', 'DPS8/49', 'DPS90', 'DPS90XA',
       97     5783    1        'DPS8000', '*???*'*0);
       98     5784
       99     5785
      100     5786
      101     5787    1        utsname = '0'b;
      102     5788    1        FPT_MONINFO          =  FPT_MONINFO_CONST;
      103     5789    1        FPT_MONINFO.SITEINFO_ = vector(VLR_SITEINFO);
      104     5790    2        call M$MONINFO(FPT_MONINFO) whenaltreturn do;
      105     5791    2           call XB_RETURN_ORDINAL_RESULT(-1);
      106     5792    2           end;
      107     5793    1        utsname.sysname = vlr_siteinfo.site_name#.c;
      108     5794    1        utsname.nodename =  vlr_siteinfo.site_id#;
      109     5795    1        utsname.release = vlr_siteinfo.patchweek#;
      110     5796    1        utsname.version = substr(vlr_siteinfo.version#,,3);
      111     5797    1        utsname.machine = machines( vlr_siteinfo.cpu_type# );
      112     5798
      113     5799    1        substr(utsname.sysname,minimum(23,vlr_siteinfo.site_name#.l),1) = %binasc(0);
      114     5800    1        substr(utsname.nodename,6,1) = %binasc(0);
      115     5801    1        substr(utsname.release,4,1)  = %binasc(0);
      116     5802    1        substr(utsname.version,3,1)  = %binasc(0);
      117     5803    2        call index(sz,' ',utsname.machine) whenreturn do;
      118     5804    2           substr(utsname.machine,sz,1) = %binasc(0);
      119     5805    2           end;
      120     5806    2        whenaltreturn do;
      121     5807    2           substr(utsname.machine,11,1) = %binasc(0);
PL6.E3A0      #002=UNAME File=xb_misc_sysv:6.:XBC3TSI                            FRI 01/06/95 11:10 Page:8
      122     5808    2           end;
      123     5809
      124     5810    1           CALL XB_RETURN_ORDINAL_RESULT (0);
      125     5811    1   end uname;
      126     5812        %EOD;

PL6.E3A0      #002=UNAME File=xb_misc_sysv:6.:XBC3TSI                            FRI 01/06/95 11:10 Page:9
--  Include file information  --

   B_STRINGS_C.:LIB_E04  is referenced.
   CP_6_C.:LIB_E04  is referenced.
   CP_6.:LIB_E04  cannot be made into a system file and is referenced.
      No diagnostics issued in procedure UNAME.

   Procedure UNAME requires 81 words for executable code.
   Procedure UNAME requires 82 words of local(AUTO) storage.

PL6.E3A0      #002=UNAME File=xb_misc_sysv:6.:XBC3TSI                            FRI 01/06/95 11:10 Page:10
          *** CROSS REFERENCE LISTING ***
**     DENOTES     IDENTIFIER DEFINITION
<<                 IDENTIFIER'S VALUE SET
>>                 IDENTIFIER'S VALUE USED
<>                 IDENTIFIER SET AND/OR USED
--                 IDENTIFIER REFERENCED
PL6.E3A0      #002=UNAME File=xb_misc_sysv:6.:XBC3TSI                            FRI 01/06/95 11:10 Page:11
          MINI XREF LISTING

FPT_MONINFO
      5771**DCL      5788<<ASSIGN   5790<>CALL
FPT_MONINFO.SITEINFO_
      5771**DCL      5789<<ASSIGN
FPT_MONINFO_CONST
      5733**DCL      5788>>ASSIGN
M$MONINFO
      5587**DCL-ENT  5790--CALL
MACHINES
      5781**DCL      5797>>ASSIGN
SZ
      5777**DCL      5778--IMP-SIZ  5803<<CALLBLT  5804>>ASSIGN
UTSNAME
        24**DCL        22--PROC     5787<<ASSIGN
UTSNAME.MACHINE
        29**DCL      5797<<ASSIGN   5803>>CALLBLT  5804<<ASSIGN   5807<<ASSIGN
UTSNAME.NODENAME
        26**DCL      5794<<ASSIGN   5800<<ASSIGN
UTSNAME.RELEASE
        27**DCL      5795<<ASSIGN   5801<<ASSIGN
UTSNAME.SYSNAME
        25**DCL      5793<<ASSIGN   5799<<ASSIGN
UTSNAME.VERSION
        28**DCL      5796<<ASSIGN   5802<<ASSIGN
VLR_SITEINFO
      5750**DCL      5789--ASSIGN
VLR_SITEINFO.CPU_TYPE#
      5754**DCL      5797>>ASSIGN
VLR_SITEINFO.PATCHWEEK#
      5755**DCL      5795>>ASSIGN
VLR_SITEINFO.SITE_ID#
      5754**DCL      5794>>ASSIGN
PL6.E3A0      #002=UNAME File=xb_misc_sysv:6.:XBC3TSI                            FRI 01/06/95 11:10 Page:12
VLR_SITEINFO.SITE_NAME#.C
      5751**DCL      5793>>ASSIGN
VLR_SITEINFO.SITE_NAME#.L
      5751**DCL      5799>>ASSIGN
VLR_SITEINFO.VERSION#
      5753**DCL      5796>>ASSIGN
XB_RETURN_ORDINAL_RESULT
      5779**DCL-ENT  5791--CALL     5810--CALL

PL6.E3A0      #003=SLEEP File=xb_misc_sysv:6.:XBC3TSI                            FRI 01/06/95 11:10 Page:13
      127        1        /*T***********************************************************/
      128        2        /*T*                                                         */
      129        3        /*T* Copyright (c) Bull HN Information Systems Inc., 1989    */
      130        4        /*T*                                                         */
      131        5        /*T***********************************************************/
      132        6        /*F*    NAME:    int sleep(int seconds);
      133        7                PURPOSE:    To delay execution for n seconds.
      134        8                DESCRIPTION:
      135        9                   This function causes execution to delay for
      136       10                   "n" seconds.  The amount remaining in the delay
      137       11                   is returned.
      138       12        */
      139       13        sleep : proc(pseconds) ;
      140       14
      141       15        %include   CP_6;
      142     5575
      143     5576        %FPT_WAIT( FPTN        =  FPT_WAIT_CONST,
      144     5577                   STCLASS     =  CONSTANT);
      145     5591
      146     5592        %FPT_WAIT( FPTN        =  FPT_WAIT,
      147     5593                   STCLASS     =  "");
      148     5607
      149     5608    1   dcl  pseconds       sbin;
      150     5609    1   dcl  seconds        ubin;
      151     5610    1   dcl  seconds_p      redef seconds ptr;
      152     5611    1   dcl  remaining      ubin;
      153     5612    1   dcl  XB_RETURN_ORDINAL_RESULT   entry(1);
      154     5613
      155     5614    1        seconds_p = addr(pseconds);
      156     5615    1        FPT_WAIT       = FPT_WAIT_CONST;
      157     5616    1        FPT_WAIT.V_    = vector(FPT_WAIT.V);
      158     5617    1        FPT_WAIT.UETIME_ = vector(remaining);
      159     5618    1        FPT_WAIT.V.UNITS# = seconds;
      160     5619    2        CALL M$WAIT( FPT_WAIT ) whenaltreturn do; ; end;
      161     5620    1        call XB_RETURN_ORDINAL_RESULT( remaining );
      162     5621
      163     5622    1   end sleep;
PL6.E3A0      #003=SLEEP File=xb_misc_sysv:6.:XBC3TSI                            FRI 01/06/95 11:10 Page:14

PL6.E3A0      #003=SLEEP File=xb_misc_sysv:6.:XBC3TSI                            FRI 01/06/95 11:10 Page:15
--  Include file information  --

   CP_6_C.:LIB_E04  is referenced.
   CP_6.:LIB_E04  cannot be made into a system file and is referenced.
      No diagnostics issued in procedure SLEEP.

   Procedure SLEEP requires 31 words for executable code.
   Procedure SLEEP requires 14 words of local(AUTO) storage.

    No errors detected in file xb_misc_sysv:6.:XBC3TSI    .

PL6.E3A0      #003=SLEEP File=xb_misc_sysv:6.:XBC3TSI                            FRI 01/06/95 11:10 Page:16
          *** CROSS REFERENCE LISTING ***
**     DENOTES     IDENTIFIER DEFINITION
<<                 IDENTIFIER'S VALUE SET
>>                 IDENTIFIER'S VALUE USED
<>                 IDENTIFIER SET AND/OR USED
--                 IDENTIFIER REFERENCED
PL6.E3A0      #003=SLEEP File=xb_misc_sysv:6.:XBC3TSI                            FRI 01/06/95 11:10 Page:17
          MINI XREF LISTING

FPT_WAIT
      5604**DCL      5615<<ASSIGN   5619<>CALL
FPT_WAIT.UETIME_
      5604**DCL      5617<<ASSIGN
FPT_WAIT.V
      5605**DCL      5616--ASSIGN
FPT_WAIT.V.UNITS#
      5605**DCL      5618<<ASSIGN
FPT_WAIT.V_
      5604**DCL      5616<<ASSIGN
FPT_WAIT_CONST
      5588**DCL      5615>>ASSIGN
FPT_WAIT_CONST.V
      5589**DCL      5588--DCLINIT
M$WAIT
      5561**DCL-ENT  5619--CALL
PSECONDS
      5608**DCL        13--PROC     5614--ASSIGN
REMAINING
      5611**DCL      5617--ASSIGN   5620<>CALL
SECONDS
      5609**DCL      5610--REDEF    5618>>ASSIGN
SECONDS_P
      5610**DCL      5614<<ASSIGN
XB_RETURN_ORDINAL_RESULT
      5612**DCL-ENT  5620--CALL
