
 11:17 01/06/95  FILE=xb_setjmp:a.:XBC3TSI                                                               1    BMAP - B00
                                         1  *T***********************************************************
                                         2  *T*                                                         *
                                         3  *T* Copyright (c) Bull HN Information Systems Inc., 1989    *
                                         4  *T*                                                         *
                                         5  *T***********************************************************
                                         6            LODM      xbi_std_ig
                                         7
                                         8            ENTDEF    Zsetjmp
                                         9            ENTDEF    longjmp
                                        10
                                        11            ENTREF    X66_AUNWIND
                                        12
                                        13            SYMREF    XBI$CLRSTK
                                        14
             000000410013               15  CLRSTK   EQU       4107+131072
                                        16
                                        17  *D* PROTOTYPE: int _setjmp (jmp_buf env)
                                        18  *,* DESCRIPTION: _setjmp saves state information in env for use by
                                        19  *,*              longjmp. The returned value is zero from a direct call
                                        20  *,*              to _setjmp and non-zero from a subsequent call to longjmp.
                                        21  */
                                        22
 0 000000                               23            USE       _setjmp,1
          (0)000000000000               24  Zsetjmp   EQU       *
   000000    0 00000 4715 00            25            LDP1      0,,PR0             - first arg is ptr to env
   000001    1 00000 4525 00            26            STP2      0,,PR1             - save current auto stack ptr
   000002    000000 6350 11             27            EAA       0,X1               - figure out pointer to return
   000003    1 00001 7551 00            28            STA       1,,PR1             - save it
   000004    000000 2360 03             29            LDQ       0,DU
   000005    000001 7020 11             30            TSX2      1,X1
                                        31
                                        32
                                        33  *D* PROTOTYPE: void longjmp (jmp_buf env, int value)
                                        34  *,* DESCRIPTION: longjmp restores the state information saved in env
                                        35  *,*              and execution resumes as if the _setjmp function had
                                        36  *,*              just been executed and returned value. If value is
                                        37  *,*              zero it is forced to be 1.
 11:17 01/06/95  FILE=xb_setjmp:a.:XBC3TSI                                                               2    BMAP - B00
                                        38  */
                                        39
          (0)000000000006               40  longjmp   EQU       *
   000006    0 00001 2361 00            41            LDQ       1,,PR0             - get value to return
   000007 (2)000000 7560 00             42            STQ       _LJ_value          - save it
   000010    0 00000 4715 00            43            LDP1      0,,PR0             - pointer to jmp_buf
   000011    1 00001 2351 00            44            LDA       1,,PR1             - return address
   000012 (2)000001 7550 00             45            STA       _LJ_link
   000013    1 00000 2351 00            46            LDA       0,,PR1             - get AUTO frame ptr to unwind to
   000014 (0)000016 6360 00             47            EAQ       longjmp_next       - go here to pick up data
   000015  X 000000 7000 00             48            TSX0      X66_AUNWIND
                                        49
          (0)000000000016               50  longjmp_next EQU    *
   000016  X 000002 2350 00             51            LDA       XBI$CLRSTK+2       - See if stack needs clearing
   000017 (0)000025 6000 00             52            TZE       GO_LINK            - No it doesn't
   000020  X 000000 6304 00             53            EPPR0     XBI$CLRSTK         - Load up FPT
   000021    410013 7134 00             54            PMME      CLRSTK,1           - Do It to it
   000022    1 000 000 40 1760
   000023    000000 0110 00             55            NOP       0
   000024  X 000002 4500 00             56            STZ       XBI$CLRSTK+2       - Zero out stack count
   000025 (2)000001 2210 00             57  GO_LINK   LDX1      _LJ_link           - get return address
   000026 (2)000000 2360 00             58            LDQ       _LJ_value          - value to go back
   000027    000001 6010 11             59            TNZ       1,X1               - if its not zero
   000030    000001 2360 07             60            LDQ       1,DL               - force a 1
   000031    000001 7020 11             61            TSX2      1,X1               - away we go
                                        62
 2 000000                               63            USE       Zsetjmp,0
   000000    000000 000000              64  _LJ_value ZERO      0,0
   000001    000000 000000              65  _LJ_link  ZERO      0,0
                                        66
                                        67            END

  CONTROL SECTION TABLE

   0 CODE   EVEN  000032 _SETJMP
   1 RODATA EVEN  000000 LITERALS
   2 DATA   EVEN  000002 ZSETJMP

 11:17 01/06/95  FILE=xb_setjmp:a.:XBC3TSI    SYMBOL TABLE                                               3    BMAP - B00
 00101000 000000000000 /*T*            *6
 00101000 000000000000 /*T***************************      *6
 40000000 000000000102 AUTO            *6
 41000000 000000410013 CLRSTK         *15        54
 01101000 000000000025 GO_LINK         52       *57
 52101000 000000000006 LONGJMP          9       *40
 41101000 000000000016 LONGJMP_NEXT    47       *50
 41000000 000000000100 PR0             *6        25        41        43
 41000000 000000000101 PR1             *6        26        28        44        46
 41000000 000000000102 PR2             *6
 41000000 000000000103 PR3             *6
 41000000 000000000104 PR4             *6
 41000000 000000000105 PR5             *6
 41000000 000000000106 PR6             *6
 40000000 000000000107 PR7             *6
 03201000 000000000000 X66_AUNWIND    *11        48
 03301000 000000000000 XBI$CLRSTK     *13        51        53        56
 52101000 000000000000 ZSETJMP          8       *24
 01101002 000000000001 _LJ_LINK        45        57       *65
 01101002 000000000000 _LJ_VALUE       42        58       *64

      20 SYMBOLS

       0 MACROS

    SYMBOL SPACE USED   238 WORDS
     MACRO SPACE USED     0 WORDS
   INPUT RECORDS READ   150
 STATEMENTS PROCESSED    60
         ELAPSED TIME  0:00.96
             CPU TIME     0.43 SEC.
        ASSEMBLY RATE  8372 STATEMENTS/CPU MIN.

      NO ERRORS

