
PL6.E3A0      #001=TOUCH File=xb_touch:6.:XBC3TSI                                FRI 01/06/95 11:10 Page:1
        1        1        /*M*    touch    -- Modifies the fit modification date for a file   */
        2        2        /*T***********************************************************/
        3        3        /*T*                                                         */
        4        4        /*T* Copyright (c) Bull HN Information Systems Inc., 1989    */
        5        5        /*T*                                                         */
        6        6        /*T***********************************************************/
        7        7
        8        8        /*F*    NAME:       touch
        9        9                PURPOSE:    To cause the modification date for a file to be
       10       10                            updated to the current time.
       11       11                DESCRIPTION:
       12       12                   This action is achieved by opening the file in update mode
       13       13                   and then closing it specifying an fparam which is the same
       14       14                   as the opening fparam.
       15       15        */
       16       16
       17       17        touch:  proc(fid);
       18       18
       19       19    1   dcl  fid            char(4095);
       20       20
       21       21        %include   CP_6;
       22     5581        %include   FM$FIT;
       23     5802        %include   CP_6_SUBS;
       24     6342
       25     6343        %FPT_FID(  FPTN        =  FPT_FID_CONST,    STCLASS=CONSTANT);
       26     6366        %FPT_FID(  FPTN        =  FPT_FID,          STCLASS="");
       27     6389
       28     6390        %FPT_GETDCB(  FPTN     =  FPT_GETDCB_CONST, STCLASS=CONSTANT);
       29     6405        %FPT_GETDCB(  FPTN     =  FPT_GETDCB,       STCLASS="");
       30     6420
       31     6421        %FPT_RELDCB(  FPTN     =  FPT_RELDCB_CONST, STCLASS=CONSTANT);
       32     6435        %FPT_RELDCB(  FPTN     =  FPT_RELDCB,       STCLASS="");
       33     6449
       34     6450        %FPT_OPEN(    FPTN     =  FPT_OPEN_CONST,   STCLASS=CONSTANT,
       35     6451                      FUN      =  UPDATE,
       36     6452                      DISP     =  NAMED,
       37     6453                      EXIST    =  ERROR,
PL6.E3A0      #001=TOUCH File=xb_touch:6.:XBC3TSI                                FRI 01/06/95 11:10 Page:2
       38     6454                      SCRUB    =  YES);
       39     6563        %FPT_OPEN(    FPTN     =  FPT_OPEN,         STCLASS="");
       40     6672
       41     6673        %FPT_CLOSE(   FPTN     =  FPT_CLOSE_CONST,  STCLASS=CONSTANT,
       42     6674        /***********  BUPM     =  YES,  **********/
       43     6675                      CHGATT   =  YES);
       44     6717        %FPT_CLOSE(   FPTN     =  FPT_CLOSE,        STCLASS="");
       45     6759
       46     6760    1   dcl  XB_RETURN_ORDINAL_RESULT         entry(1);
       47     6761    1   dcl  XBI$STRLEN                       entry(2);
       48     6762
       49     6763    1   dcl  LEN                              sbin;
       50     6764
       51     6765        %VLP_ACCT(    FPTN     =  FACCT,            STCLASS="");
       52     6778        %VLP_NAME(    FPTN     =  FNAME,            STCLASS="",
       53     6779                      LEN      =  31);
       54     6806        %VLP_ACCT(    FPTN     =  FPASS,            STCLASS="");
       55     6819        %VLP_SN  (    FPTN     =  FSN,              STCLASS="");
       56     6832        %VLP_WSN (    FPTN     =  FWSN,             STCLASS="");
       57     6845
       58     6846    1   dcl  FPARAM(0:1023)                   sbin;
       59     6847
       60     6848        /********************************************************************/
       61     6849        /*                      P R O C E D U R E                           */
       62     6850        /********************************************************************/
       63     6851
       64     6852    1     FPT_FID    = FPT_FID_CONST;
       65     6853    1     FPT_GETDCB = FPT_GETDCB_CONST;
       66     6854    1     FPT_RELDCB = FPT_RELDCB_CONST;
       67     6855    1     FPT_OPEN   = FPT_OPEN_CONST;
       68     6856    1     FPT_CLOSE  = FPT_CLOSE_CONST;
       69     6857
       70     6858    1     FPT_FID.V_    = vector(FPT_FID.V);
       71     6859    1     FPT_GETDCB.V_ = vector(FPT_GETDCB.V);
       72     6860    1     FPT_RELDCB.V_ = vector(FPT_RELDCB.V);
       73     6861    1     FPT_OPEN.V_   = vector(FPT_OPEN.V);
       74     6862    1     FPT_CLOSE.V_  = vector(FPT_CLOSE.V);
PL6.E3A0      #001=TOUCH File=xb_touch:6.:XBC3TSI                                FRI 01/06/95 11:10 Page:3
       75     6863
       76     6864    1     call XBI$STRLEN (fid, LEN);
       77     6865    1     FPT_FID.TEXTFID_ = vector( substr(fid,,LEN) );
       78     6866    1     FPT_FID.WSN_     = vector( FWSN );
       79     6867    1     FPT_FID.SN_      = vector( FSN  );
       80     6868    1     FPT_FID.ACCT_    = vector( FACCT );
       81     6869    1     FPT_FID.NAME_    = vector( FNAME );
       82     6870    1     FPT_FID.PASS_    = vector( FPASS );
       83     6871    1     FPT_FID.RES_     = vector( FPT_OPEN.V.RES# );
       84     6872    1     FPT_FID.ASN_     = vector( FPT_OPEN.V.ASN# );
       85     6873    1     call M$FID( FPT_FID )   altret(IOERR);
       86     6874
       87     6875    1     FPT_GETDCB.DCBNUM_= vector( FPT_OPEN.V.DCB# );
       88     6876    1     call M$GETDCB( FPT_GETDCB ) altret(IOERR);
       89     6877
       90     6878    1     FPT_OPEN.NAME_    = vector( FNAME );
       91     6879    1     FPT_OPEN.ACCT_    = vector( FACCT );
       92     6880    1     FPT_OPEN.WSN_     = vector( FWSN  );
       93     6881    1     FPT_OPEN.SN_      = vector( FSN   );
       94     6882    1     FPT_OPEN.PASS_    = vector( FPASS );
       95     6883    1     FPT_OPEN.FPARAM_  = vector( FPARAM );
       96     6884    1     call M$OPEN( FPT_OPEN )    altret(IOERR); /*  GET A DCB FIRST! */
       97     6885
       98     6886    1     call FLIP_BACKUP;
       99     6887    1     FPT_CLOSE.V.DCB#  = FPT_OPEN.V.DCB#;
      100     6888    1     FPT_CLOSE.IFPARAM_= vector( FPARAM );
      101     6889    1     call M$CLOSE( FPT_CLOSE )  altret(IOERR);
      102     6890
      103     6891    1     call M$OPEN( FPT_OPEN ) altret(IOERR);
      104     6892    1     call FLIP_BACKUP;
      105     6893    1     call M$CLOSE( FPT_CLOSE ) altret(IOERR);
      106     6894
      107     6895    1     FPT_RELDCB.V.DCB# = FPT_OPEN.V.DCB#;
      108     6896    1     call M$RELDCB( FPT_RELDCB )   altret(IOERR);
      109     6897
      110     6898    1     call XB_RETURN_ORDINAL_RESULT(0);
      111     6899
PL6.E3A0      #001=TOUCH File=xb_touch:6.:XBC3TSI                                FRI 01/06/95 11:10 Page:4
      112     6900    1   IOERR:
      113     6901    1     FPT_RELDCB.V.DCB# = FPT_OPEN.V.DCB#;
      114     6902    1     if FPT_OPEN.V.DCB# ~= 0
      115     6903    2        then call M$RELDCB( FPT_RELDCB ) whenaltreturn do; ; end;
      116     6904    1     call XB_RETURN_ORDINAL_RESULT(1);
      117     6905
      118     6906
      119     6907    1   FLIP_BACKUP: proc;
      120     6908
      121     6909    2   dcl  FIT$     ptr;
      122     6910        %CODE03(BASED="BASED(FIT$)");
      123     6917    2   dcl XSF$LOCCODP     entry(2) altret;
      124     6918
      125     6919    2     FIT$ = addr(FPARAM);
      126     6920    3     call XSF$LOCCODP(FIT$, 3) whenreturn do;
      127     6921    3        if CODE03.DESC.BUPM
      128     6922    3           then FPT_CLOSE.V.BUPM# = %NO#;
      129     6923    3           else FPT_CLOSE.V.BUPM# = %YES#;
      130     6924    3        end;
      131     6925    2     return;
      132     6926
      133     6927    2   end FLIP_BACKUP;
      134     6928
      135     6929    1   end touch;

PL6.E3A0      #001=TOUCH File=xb_touch:6.:XBC3TSI                                FRI 01/06/95 11:10 Page:5
--  Include file information  --

   CP_6_SUBS.:LIB_E04  is referenced.
   FM$FIT.:LIB_E04  is referenced.
   CP_6_C.:LIB_E04  is referenced.
   CP_6.:LIB_E04  cannot be made into a system file and is referenced.
      No diagnostics issued in procedure TOUCH.

   Procedure TOUCH requires 208 words for executable code.
   Procedure TOUCH requires 1176 words of local(AUTO) storage.

    No errors detected in file xb_touch:6.:XBC3TSI    .

PL6.E3A0      #001=TOUCH File=xb_touch:6.:XBC3TSI                                FRI 01/06/95 11:10 Page:6
          *** CROSS REFERENCE LISTING ***
**     DENOTES     IDENTIFIER DEFINITION
<<                 IDENTIFIER'S VALUE SET
>>                 IDENTIFIER'S VALUE USED
<>                 IDENTIFIER SET AND/OR USED
--                 IDENTIFIER REFERENCED
PL6.E3A0      #001=TOUCH File=xb_touch:6.:XBC3TSI                                FRI 01/06/95 11:10 Page:7
          MINI XREF LISTING

CODE03.DESC.BUPM IN PROCEDURE FLIP_BACKUP
      6912**DCL      6921>>IF
FACCT
      6776**DCL      6868--ASSIGN   6879--ASSIGN
FID
        19**DCL        17--PROC     6864<>CALL     6865--ASSIGN
FIT$ IN PROCEDURE FLIP_BACKUP
      6909**DCL      6911--IMP-PTR  6919<<ASSIGN   6920<>CALL     6921>>IF
FLIP_BACKUP
      6907**PROC     6886--CALL     6892--CALL
FNAME
      6804**DCL      6869--ASSIGN   6878--ASSIGN
FPARAM
      6846**DCL      6883--ASSIGN   6888--ASSIGN   6919--ASSIGN
FPASS
      6817**DCL      6870--ASSIGN   6882--ASSIGN
FPT_CLOSE
      6740**DCL      6856<<ASSIGN   6889<>CALL     6893<>CALL
FPT_CLOSE.IFPARAM_
      6745**DCL      6888<<ASSIGN
FPT_CLOSE.SN_
      6740**DCL      6740--REDEF
FPT_CLOSE.UTL_
      6741**DCL      6741--REDEF
FPT_CLOSE.V
      6745**DCL      6862--ASSIGN
FPT_CLOSE.V.BUPM#
      6753**DCL      6922<<ASSIGN   6923<<ASSIGN
FPT_CLOSE.V.DCB#
      6746**DCL      6887<<ASSIGN
FPT_CLOSE.V.EXPIRE#
      6755**DCL      6755--REDEF
PL6.E3A0      #001=TOUCH File=xb_touch:6.:XBC3TSI                                FRI 01/06/95 11:10 Page:8
FPT_CLOSE.V.TYPE#
      6753**DCL      6753--REDEF
FPT_CLOSE.V.XTNSIZE#
      6750**DCL      6750--REDEF    6752--REDEF
FPT_CLOSE.V_
      6740**DCL      6862<<ASSIGN
FPT_CLOSE_CONST
      6698**DCL      6856>>ASSIGN
FPT_CLOSE_CONST.SN_
      6698**DCL      6698--REDEF
FPT_CLOSE_CONST.UTL_
      6699**DCL      6699--REDEF
FPT_CLOSE_CONST.V
      6703**DCL      6698--DCLINIT
FPT_CLOSE_CONST.V.EXPIRE#
      6713**DCL      6713--REDEF
FPT_CLOSE_CONST.V.TYPE#
      6711**DCL      6711--REDEF
FPT_CLOSE_CONST.V.XTNSIZE#
      6708**DCL      6708--REDEF    6710--REDEF
FPT_FID
      6377**DCL      6852<<ASSIGN   6873<>CALL
FPT_FID.ACCT_
      6378**DCL      6868<<ASSIGN
FPT_FID.ASN_
      6380**DCL      6872<<ASSIGN
FPT_FID.NAME_
      6378**DCL      6869<<ASSIGN
FPT_FID.PASS_
      6378**DCL      6870<<ASSIGN
FPT_FID.RES_
      6380**DCL      6871<<ASSIGN
FPT_FID.SN_
      6379**DCL      6867<<ASSIGN
FPT_FID.TEXTFID_
      6377**DCL      6865<<ASSIGN
PL6.E3A0      #001=TOUCH File=xb_touch:6.:XBC3TSI                                FRI 01/06/95 11:10 Page:9
FPT_FID.V
      6381**DCL      6858--ASSIGN
FPT_FID.V_
      6377**DCL      6858<<ASSIGN
FPT_FID.WSN_
      6379**DCL      6866<<ASSIGN
FPT_FID_CONST
      6354**DCL      6852>>ASSIGN
FPT_FID_CONST.V
      6358**DCL      6354--DCLINIT
FPT_GETDCB
      6416**DCL      6853<<ASSIGN   6876<>CALL
FPT_GETDCB.DCBNUM_
      6416**DCL      6875<<ASSIGN
FPT_GETDCB.V
      6417**DCL      6859--ASSIGN
FPT_GETDCB.V_
      6416**DCL      6859<<ASSIGN
FPT_GETDCB_CONST
      6401**DCL      6853>>ASSIGN
FPT_GETDCB_CONST.V
      6402**DCL      6401--DCLINIT
FPT_OPEN
      6628**DCL      6855<<ASSIGN   6884<>CALL     6891<>CALL
FPT_OPEN.ACCT_
      6632**DCL      6879<<ASSIGN
FPT_OPEN.ACSVEH_
      6630**DCL      6631--REDEF
FPT_OPEN.ALTKEYS_
      6636**DCL      6637--REDEF    6637--REDEF
FPT_OPEN.FPARAM_
      6633**DCL      6883<<ASSIGN
FPT_OPEN.HDR_
      6635**DCL      6636--REDEF
FPT_OPEN.NAME_
      6629**DCL      6878<<ASSIGN
PL6.E3A0      #001=TOUCH File=xb_touch:6.:XBC3TSI                                FRI 01/06/95 11:10 Page:10
FPT_OPEN.PASS_
      6630**DCL      6882<<ASSIGN
FPT_OPEN.SN_
      6628**DCL      6881<<ASSIGN
FPT_OPEN.TAB_
      6634**DCL      6635--REDEF
FPT_OPEN.UHL_
      6628**DCL      6629--REDEF    6629--REDEF
FPT_OPEN.V
      6637**DCL      6861--ASSIGN
FPT_OPEN.V.ASN#
      6647**DCL      6872--ASSIGN
FPT_OPEN.V.DCB#
      6637**DCL      6875--ASSIGN   6887>>ASSIGN   6895>>ASSIGN   6901>>ASSIGN   6902>>IF
FPT_OPEN.V.FSN#
      6668**DCL      6668--REDEF    6668--REDEF
FPT_OPEN.V.RES#
      6652**DCL      6871--ASSIGN
FPT_OPEN.V_
      6628**DCL      6861<<ASSIGN
FPT_OPEN.WSN_
      6634**DCL      6634--REDEF    6880<<ASSIGN
FPT_OPEN_CONST
      6519**DCL      6855>>ASSIGN
FPT_OPEN_CONST.ACSVEH_
      6521**DCL      6522--REDEF
FPT_OPEN_CONST.ALTKEYS_
      6527**DCL      6528--REDEF    6528--REDEF
FPT_OPEN_CONST.HDR_
      6526**DCL      6527--REDEF
FPT_OPEN_CONST.TAB_
      6525**DCL      6526--REDEF
FPT_OPEN_CONST.UHL_
      6519**DCL      6520--REDEF    6520--REDEF
FPT_OPEN_CONST.V
      6528**DCL      6519--DCLINIT
PL6.E3A0      #001=TOUCH File=xb_touch:6.:XBC3TSI                                FRI 01/06/95 11:10 Page:11
FPT_OPEN_CONST.V.FSN#
      6559**DCL      6559--REDEF    6559--REDEF
FPT_OPEN_CONST.WSN_
      6525**DCL      6525--REDEF
FPT_RELDCB
      6446**DCL      6854<<ASSIGN   6896<>CALL     6903<>CALL
FPT_RELDCB.V
      6446**DCL      6860--ASSIGN
FPT_RELDCB.V.DCB#
      6446**DCL      6895<<ASSIGN   6901<<ASSIGN
FPT_RELDCB.V_
      6446**DCL      6860<<ASSIGN
FPT_RELDCB_CONST
      6432**DCL      6854>>ASSIGN
FPT_RELDCB_CONST.V
      6432**DCL      6432--DCLINIT
FSN
      6830**DCL      6867--ASSIGN   6881--ASSIGN
FWSN
      6843**DCL      6866--ASSIGN   6880--ASSIGN
IOERR
      6901**LABEL    6873--CALLALT  6876--CALLALT  6884--CALLALT  6889--CALLALT  6891--CALLALT  6893--CALLALT
      6896--CALLALT
LEN
      6763**DCL      6864<>CALL     6865>>ASSIGN
M$CLOSE
      5509**DCL-ENT  6889--CALL     6893--CALL
M$FID
      5572**DCL-ENT  6873--CALL
M$GETDCB
      5515**DCL-ENT  6876--CALL
M$OPEN
      5509**DCL-ENT  6884--CALL     6891--CALL
M$RELDCB
      5515**DCL-ENT  6896--CALL     6903--CALL
XBI$STRLEN
PL6.E3A0      #001=TOUCH File=xb_touch:6.:XBC3TSI                                FRI 01/06/95 11:10 Page:12
      6761**DCL-ENT  6864--CALL
XB_RETURN_ORDINAL_RESULT
      6760**DCL-ENT  6898--CALL     6904--CALL
XSF$LOCCODP IN PROCEDURE FLIP_BACKUP
      6917**DCL-ENT  6920--CALL
