
PL6.E3A0      #001=XBI$LOCALTIME File=xbi_date_time:6.:XBC3TSI                   WED 08/20/97 14:19 Page:1
        1        1        /*T***********************************************************/
        2        2        /*T*                                                         */
        3        3        /*T* Copyright (c) Bull HN, 1992                             */
        4        4        /*T*                                                         */
        5        5        /*T***********************************************************/
        6        6        XBI$LOCALTIME: PROC (UNIX_UTS_time, time_structure, remove_GMT);
        7        7
        8        8        /*D* PROTOTYPE:   struct tm *localtime (time_t *timptr)
        9        9             DESCRIPTION: returns a "broken down" form of the time structure.
       10       10                          It accepts a single argument that is the UNIX UTS
       11       11                          value returned by time() (Seconds since Jan 1, 1970)
       12       12                          Remove_GMT has three possible values:
       13       13                             0  -  The time passed in needs to have the GMT
       14       14                                   offset added to it (mktime).
       15       15                             1  -  The time currently has GMT figured into it
       16       16                                   and needs to removed for the conversion
       17       17                                   (localtime).
       18       18                             2  -  The time currently has GMT figured into it
       19       19                                   but the conversion keeps it in (gmtime).
       20       20             RAP Oct 3, 1988
       21       21        */
       22       22
       23       23        %INCLUDE CP_6;
       24     5583        %INCLUDE xbi_date_time_i6;
       25     5604
       26     5605    1   DCL UNIX_UTS_time UBIN;
       27     5606    1   DCL remove_GMT    SBIN;
       28     5607
       29     5608    1   DCL DAY_LENGTH    UBIN INIT(86400) CONSTANT;  /* 24*60*60 */
       30     5609    1   DCL LYMONTHSTART(0:12) UBIN INIT(0, 31, 60, 91, 121, 152, 182, 213, 244, 274, 305,
              5609            335,
       31     5610    1                                   366) CONSTANT;
       32     5611    1   DCL MONTHSTART(0:12) UBIN INIT(0, 31, 59, 90, 120, 151, 181, 212, 243, 273, 304, 334
              5611            ,
       33     5612    1                                  365) CONSTANT;
       34     5613    1   DCL TIME          SBIN;
       35     5614
PL6.E3A0      #001=XBI$LOCALTIME File=xbi_date_time:6.:XBC3TSI                   WED 08/20/97 14:19 Page:2
       36     5615        %tm (name=time_structure, stclass=" ");
       37     5627        %VLR_SITEINFO(FPTN=ASITEINFO);
       38     5646        %FPT_MONINFO(SITEINFO=ASITEINFO);
       39     5661
       40     5662        /*    The UNIX_UTS value we are getting is the number of seconds
       41     5663              since JAN 1, 1970.                                          */
       42     5664
       43     5665    1     if remove_GMT = 2 THEN TIME=UNIX_UTS_time;
       44     5666    2     ELSE DO;
       45     5667    2       CALL M$MONINFO(FPT_MONINFO);
       46     5668    2       IF remove_GMT = 0 THEN TIME=UNIX_UTS_TIME-ASITEINFO.UTC_OFFSET#/100;
       47     5669    2       ELSE IF remove_GMT = 1 THEN TIME=UNIX_UTS_TIME+ASITEINFO.UTC_OFFSET#/100;
       48     5670    2     END;
       49     5671
       50     5672    1     time_structure.sec=MOD(TIME,  DAY_LENGTH);    /* seconds in day */
       51     5673    1     time_structure.min=time_structure.sec / 60;
       52     5674    1     time_structure.sec=MOD(time_structure.sec, 60);
       53     5675    1     time_structure.hour=time_structure.min / 60;
       54     5676    1     time_structure.min=MOD(time_structure.min, 60);
       55     5677
       56     5678    1     TIME=TIME/DAY_LENGTH;        /* days since time start */
       57     5679    1     time_structure.wday=MOD(TIME+4, 7);    /* 0=Sunday */
       58     5680
       59     5681    1     time_structure.year=(TIME+731)*4/1461+68; /*  since 1900 */
       60     5682    1     time_structure.yday=MOD(((TIME+731)*4), 1461) / 4;
       61     5683            /* yday: days since year start */
       62     5684
       63     5685          /* go from yday to month & day, depends on being leap year */
       64     5686    1     time_structure.mon=(time_structure.yday+1)/30;    /* guess month 0-11 */
       65     5687          /* use different month start array if its a leap year */
       66     5688    2     IF MOD(time_structure.year, 4) = 0 THEN DO; /* its a leap year */
       67     5689    2       IF time_structure.yday < LYMONTHSTART(time_structure.mon)
       68     5690    2         THEN time_structure.mon=time_structure.mon-1;   /* guess missed high */
       69     5691    2       time_structure.mday=time_structure.yday-LYMONTHSTART(time_structure.mon)+1;
       70     5692    2     END;
       71     5693    2     ELSE DO; /* not a leap year */
       72     5694    2       IF time_structure.yday < MONTHSTART(time_structure.mon)
PL6.E3A0      #001=XBI$LOCALTIME File=xbi_date_time:6.:XBC3TSI                   WED 08/20/97 14:19 Page:3
       73     5695    2         THEN time_structure.mon=time_structure.mon-1;   /* guess missed high */
       74     5696    2       time_structure.mday=time_structure.yday-MONTHSTART(time_structure.mon)+1;
       75     5697    2     END;
       76     5698
       77     5699    1     time_structure.isdst = -1;    /* this says we dont know ! */
       78     5700
       79     5701    1   END XBI$LOCALTIME;

PL6.E3A0      #001=XBI$LOCALTIME File=xbi_date_time:6.:XBC3TSI                   WED 08/20/97 14:19 Page:4
--  Include file information  --

   xbi_date_time_i6.:XBC3TOU  is referenced.
   CP_6_C.:LIB_E04  is referenced.
   CP_6.:LIB_E04  cannot be made into a system file and is referenced.
      No diagnostics issued in procedure XBI$LOCALTIME.

   Procedure XBI$LOCALTIME requires 110 words for executable code.
   Procedure XBI$LOCALTIME requires 10 words of local(AUTO) storage.

    No errors detected in file xbi_date_time:6.:XBC3TSI    .

PL6.E3A0      #001=XBI$LOCALTIME File=xbi_date_time:6.:XBC3TSI                   WED 08/20/97 14:19 Page:5
          *** CROSS REFERENCE LISTING ***
**     DENOTES     IDENTIFIER DEFINITION
<<                 IDENTIFIER'S VALUE SET
>>                 IDENTIFIER'S VALUE USED
<>                 IDENTIFIER SET AND/OR USED
--                 IDENTIFIER REFERENCED
PL6.E3A0      #001=XBI$LOCALTIME File=xbi_date_time:6.:XBC3TSI                   WED 08/20/97 14:19 Page:6
          MINI XREF LISTING

ASITEINFO
      5638**DCL      5657--DCLINIT
ASITEINFO.UTC_OFFSET#
      5644**DCL      5668>>ASSIGN   5669>>ASSIGN
DAY_LENGTH
      5608**DCL      5672>>ASSIGN   5678>>ASSIGN
FPT_MONINFO
      5657**DCL      5667<>CALL
LYMONTHSTART
      5609**DCL      5689>>IF       5691>>ASSIGN
M$MONINFO
      5579**DCL-ENT  5667--CALL
MONTHSTART
      5611**DCL      5694>>IF       5696>>ASSIGN
REMOVE_GMT
      5606**DCL         6--PROC     5665>>IF       5668>>IF       5669>>IF
TIME
      5613**DCL      5665<<ASSIGN   5668<<ASSIGN   5669<<ASSIGN   5672>>ASSIGN   5678<<ASSIGN   5678>>ASSIGN
      5679>>ASSIGN   5681>>ASSIGN   5682>>ASSIGN
TIME_STRUCTURE
      5616**DCL         6--PROC
TIME_STRUCTURE.HOUR
      5619**DCL      5675<<ASSIGN
TIME_STRUCTURE.ISDST
      5625**DCL      5699<<ASSIGN
TIME_STRUCTURE.MDAY
      5620**DCL      5691<<ASSIGN   5696<<ASSIGN
TIME_STRUCTURE.MIN
      5618**DCL      5673<<ASSIGN   5675>>ASSIGN   5676<<ASSIGN   5676>>ASSIGN
TIME_STRUCTURE.MON
      5621**DCL      5686<<ASSIGN   5689>>IF       5690<<ASSIGN   5690>>ASSIGN   5691>>ASSIGN   5694>>IF
      5695<<ASSIGN   5695>>ASSIGN   5696>>ASSIGN
PL6.E3A0      #001=XBI$LOCALTIME File=xbi_date_time:6.:XBC3TSI                   WED 08/20/97 14:19 Page:7
TIME_STRUCTURE.SEC
      5617**DCL      5672<<ASSIGN   5673>>ASSIGN   5674<<ASSIGN   5674>>ASSIGN
TIME_STRUCTURE.WDAY
      5623**DCL      5679<<ASSIGN
TIME_STRUCTURE.YDAY
      5624**DCL      5682<<ASSIGN   5686>>ASSIGN   5689>>IF       5691>>ASSIGN   5694>>IF       5696>>ASSIGN
TIME_STRUCTURE.YEAR
      5622**DCL      5681<<ASSIGN   5688>>IF
UNIX_UTS_TIME
      5605**DCL         6--PROC     5665>>ASSIGN   5668>>ASSIGN   5669>>ASSIGN
