
PL6.E3A0      #001=XBI_IS_STDINVOCATION File=xbi_init_lib:6.:XBC3TSI             FRI 01/06/95 11:37 Page:1
        1        1        /*T***********************************************************/
        2        2        /*T*                                                         */
        3        3        /*T* Copyright (c) Bull HN Information Systems Inc., 1989    */
        4        4        /*T*                                                         */
        5        5        /*T***********************************************************/
        6        6        XBI_IS_STDINVOCATION: PROC (STDINVOCATION);
        7        7           %INCLUDE CP_6;
        8     5567           %INCLUDE B$OBJECT_C;
        9     8997           %INCLUDE CP_6_SUBS;
       10     9537
       11     9538    1      DCL STDINVOCATION          UBIN;
       12     9539
       13     9540           %B$RUHEADKEY (STCLASS=CONSTANT);
       14     9547           %B$HEAD (STCLASS=AUTO);
       15     9747           %FPT_READ (FPTN=READ_CONST, KEY=B$RUHEADKEY, KEYS=YES, STCLASS=CONSTANT);
       16     9786           %FPT_READ (FPTN=READ, STCLASS=AUTO);
       17     9825
       18     9826    1      READ = READ_CONST;
       19     9827    1      READ.V_ = VECTOR (READ.V);
       20     9828    1      READ.V.DCB# = %M$LM#;
       21     9829    1      READ.BUF_ = VECTOR (B$HEAD);
       22     9830    2      CALL M$READ (READ)  whenaltreturn do; ; end;
       23     9831
       24     9832    1      STDINVOCATION = BITBIN (B$HEAD.NSTDINVOC);
       25     9833    1      RETURN;
       26     9834
       27     9835    1   END XBI_IS_STDINVOCATION;
       28     9836        %EOD;

PL6.E3A0      #001=XBI_IS_STDINVOCATION File=xbi_init_lib:6.:XBC3TSI             FRI 01/06/95 11:37 Page:2
--  Include file information  --

   CP_6_SUBS.:LIB_E04  is referenced.
   B$OBJECT_C.:LIB_E04  is referenced.
   CP_6_C.:LIB_E04  is referenced.
   CP_6.:LIB_E04  cannot be made into a system file and is referenced.
      No diagnostics issued in procedure XBI_IS_STDINVOCATION.

   Procedure XBI_IS_STDINVOCATION requires 28 words for executable code.
   Procedure XBI_IS_STDINVOCATION requires 60 words of local(AUTO) storage.

PL6.E3A0      #001=XBI_IS_STDINVOCATION File=xbi_init_lib:6.:XBC3TSI             FRI 01/06/95 11:37 Page:3
          *** CROSS REFERENCE LISTING ***
**     DENOTES     IDENTIFIER DEFINITION
<<                 IDENTIFIER'S VALUE SET
>>                 IDENTIFIER'S VALUE USED
<>                 IDENTIFIER SET AND/OR USED
--                 IDENTIFIER REFERENCED
PL6.E3A0      #001=XBI_IS_STDINVOCATION File=xbi_init_lib:6.:XBC3TSI             FRI 01/06/95 11:37 Page:4
          MINI XREF LISTING

B$HEAD
      9548**DCL      9829--ASSIGN
B$HEAD.NSTDINVOC
      9645**DCL      9832>>ASSIGN
B$RUHEADKEY
      9541**DCL      9764--DCLINIT  9765--DCLINIT
M$READ
      5496**DCL-ENT  9830--CALL
READ
      9803**DCL      9826<<ASSIGN   9830<>CALL
READ.BUF_
      9805**DCL      9829<<ASSIGN
READ.STATION_
      9806**DCL      9807--REDEF
READ.V
      9807**DCL      9827--ASSIGN
READ.V.DCB#
      9807**DCL      9828<<ASSIGN
READ.V.DVBYTE.REREAD#
      9818**DCL      9818--REDEF
READ.V.INDX#
      9816**DCL      9816--REDEF
READ.V_
      9803**DCL      9827<<ASSIGN
READ_CONST
      9764**DCL      9826>>ASSIGN
READ_CONST.STATION_
      9767**DCL      9768--REDEF
READ_CONST.V
      9768**DCL      9764--DCLINIT
READ_CONST.V.DVBYTE.REREAD#
      9779**DCL      9779--REDEF
PL6.E3A0      #001=XBI_IS_STDINVOCATION File=xbi_init_lib:6.:XBC3TSI             FRI 01/06/95 11:37 Page:5
READ_CONST.V.INDX#
      9777**DCL      9777--REDEF
STDINVOCATION
      9538**DCL         6--PROC     9832<<ASSIGN

PL6.E3A0      #002=XB_INIT_LIB File=xbi_init_lib:6.:XBC3TSI                      FRI 01/06/95 11:38 Page:6
       29        1        /*T***********************************************************/
       30        2        /*T*                                                         */
       31        3        /*T* Copyright (c) Bull HN Information Systems Inc., 1989    */
       32        4        /*T*                                                         */
       33        5        /*T***********************************************************/
       34        6
       35        7        XB_INIT_LIB: PROC;
       36        8        /*F* NAME: XB_INIT_LIB
       37        9             CALL: XB_INIT_LIB
       38       10             INTERFACE: None
       39       11             INPUT: None
       40       12             DESCRIPTION: This routine fixes up just a few of the variables in the
       41       13                 XB$ENV data structure so that the program can be restarted from
       42       14                 the beginning.
       43       15
       44       16                 It also contains most of the SYMDEF's for the library.
       45       17        */
       46       18
       47       19           %INCLUDE xbi_signal_i6;
       48       86           %INCLUDE xbi_char_tables_i6;
       49      174           %INCLUDE xbi_locale_i6;
       50      206           %INCLUDE CP_6;
       51     5766           %INCLUDE B$TABLES_C;
       52     5874
       53     5875        %VLP_NAME (FPTN=XBI$ERRFILE_NAME, STCLASS="CONSTANT SYMDEF", NAME=':XBERRMSG', LEN=
              5875            31);
       54     5902        %VLP_ACCT (FPTN=XBI$ERRFILE_ACCT, STCLASS="CONSTANT SYMDEF", ACCT=':SYS    ');
       55     5915
       56     5916           /* SYMDEF's for stdio */
       57     5917
       58     5918    1      DCL STDIN_P                PTR STATIC SYMDEF;
       59     5919    1      DCL STDOUT_P               PTR STATIC SYMDEF;
       60     5920    1      DCL STDERR_P               PTR STATIC SYMDEF;
       61     5921    1      DCL ERRNO_P                PTR STATIC SYMDEF;
       62     5922    1      DCL XBI$MB_CUR_MAX_P           PTR STATIC SYMDEF;
       63     5923    1      DCL XBI$FIRST_FILE_HEADER      PTR EXTROOT INIT (ADDR(NIL));
       64     5924
PL6.E3A0      #002=XB_INIT_LIB File=xbi_init_lib:6.:XBC3TSI                      FRI 01/06/95 11:38 Page:7
       65     5925           %B$SR_NON_DEC (NAME=XBI$non_digit_table);
       66     5929    1      DCL XBI$non_octal_digit_table (0:511) UBIN BYTE UNAL CONSTANT SYMDEF INIT
       67     5930    1         (1*48, 0*8, 1*456);
       68     5931    1      DCL XBI$non_hex_digit_table (0:511) UBIN BYTE UNAL CONSTANT SYMDEF INIT
       69     5932    1         (1*48, 0*10, 1*7, 0*6, 1*20, 1*6, 0*6, 1*20, 1*389);
       70     5933           %B$SR_NON_ZERO (NAME=XBI$non_zero_table);
       71     5937    1      DCL XBI$null_or_percent_table (0:511) UBIN BYTE UNAL CONSTANT SYMDEF INIT
       72     5938    1         (1, 0*36, 2, 0*474);
       73     5939           %B$SR_NON_BLANK (NAME=XBI$non_blank_table);
       74     5943    1      DCL XBI$non_whitespace_table (0:511) UBIN BYTE UNAL CONSTANT SYMDEF INIT
       75     5944    1         (1*9, 0*5, 1*18, 0, 1*479);
       76     5945    1      DCL XBI$whitespace_table (0:511) UBIN BYTE UNAL CONSTANT SYMDEF INIT
       77     5946    1         (0*9, 1*5, 0*18, 1, 0*479);
       78     5947    1      DCL XBI$digit_value_table (0:127) UBIN WORD UNAL CONSTANT SYMDEF INIT (
       79     5948    1         999*48,
       80     5949    1         0, 1, 2, 3, 4, 5, 6, 7, 8, 9,
       81     5950    1         999*7,
       82     5951    1         10, 11, 12, 13, 14, 15, 16, 17, 18, 19, 20, 21, 22, 23, 24, 25, 26,
       83     5952    1         27, 28, 29, 30, 31, 32, 33, 34, 35,
       84     5953    1         999*6,
       85     5954    1         10, 11, 12, 13, 14, 15, 16, 17, 18, 19, 20, 21, 22, 23, 24, 25, 26,
       86     5955    1         27, 28, 29, 30, 31, 32, 33, 34, 35,
       87     5956    1         999*5);
       88     5957
       89     5958    1      DCL   XBI$MIN_RELEASE_DCBNUM   SBIN STATIC SYMDEF;
       90     5959
       91     5960    1      DCL I                               SBIN;
       92     5961
       93     5962    1      DCL XBI_CLOSE_DCBS                  ENTRY;
       94     5963    1      DCL XBI$FREE_HEAP                   ENTRY;
       95     5964    1      DCL XBI$DEFAULT_SIGNAL_HANDLER      ENTRY;
       96     5965    1      DCL XBI_INIT_TRAPS                  ENTRY (0);
       97     5966    1      DCL XBI$CLEAR_OVERFLOW_MASK         ENTRY;
       98     5967
       99     5968           /* hacks to get SYMDEF's associated properly if unshared library is
      100     5969              used via the LINK UNSAT option. */
      101     5970
PL6.E3A0      #002=XB_INIT_LIB File=xbi_init_lib:6.:XBC3TSI                      FRI 01/06/95 11:38 Page:8
      102     5971    1      DCL XPT_8T0_D                 ENTRY CONV (5);
      103     5972    1      DCL XPK_LIB_DATA              ENTRY CONV (5);
      104     5973
      105     5974    1      CALL XBI$CLEAR_OVERFLOW_MASK;
      106     5975
      107     5976    1      STDIN_P = ADDR(NIL);
      108     5977    1      STDOUT_P = ADDR(NIL);
      109     5978    1      STDERR_P = ADDR(NIL);
      110     5979    1      ERRNO_P = ADDR(NIL);
      111     5980    1      XBI$MB_CUR_MAX_P = ADDR(NIL);
      112     5981
      113     5982           /* initialize XB$ENV */
      114     5983
      115     5984    1      XB$ENV.CURRENT_SIGNAL = %SIGNONE;
      116     5985    1      XB$ENV.SIGNAL_MASK = '0'B;
      117     5986    1      XB$ENV.SIGNAL_WAIT = '0'B;
      118     5987
      119     5988    2      DO I = 0 TO %LAST_SIGNAL;
      120     5989    2         XB$ENV.SIGNAL_HANDLER (I) = ENTADDR(XBI$DEFAULT_SIGNAL_HANDLER);
      121     5990    2         XB$ENV.SIGNAL_RETURN_RESULT (I) = SIG_DFL;
      122     5991    2         XB$ENV.SIGNAL_SV_MASK (I) = '0'B;
      123     5992    2         XB$ENV.SIGNAL_SV_FLAGS (I) = %SV_RESETHAND;
      124     5993    2      END;
      125     5994
      126     5995           /* by default, we ignore SIGTERM, SIGHUP and SIGINT signals */
      127     5996
      128     5997    1      XB$ENV.SIGNAL_HANDLER (%SIGINT) = ENTADDR(NIL);
      129     5998    1      XB$ENV.SIGNAL_HANDLER (%SIGTERM) = ENTADDR(NIL);
      130     5999    1      XB$ENV.SIGNAL_HANDLER (%SIGHUP) = ENTADDR(NIL);
      131     6000
      132     6001           /* Close all of the external files. */
      133     6002
      134     6003    1      CALL XBI_CLOSE_DCBS;
      135     6004
      136     6005           /* Re init the heap... */
      137     6006
      138     6007    1      CALL XBI$FREE_HEAP;
PL6.E3A0      #002=XB_INIT_LIB File=xbi_init_lib:6.:XBC3TSI                      FRI 01/06/95 11:38 Page:9
      139     6008
      140     6009    1      CALL XBI_INIT_TRAPS;
      141     6010
      142     6011           /* Thats all folks... */
      143     6012
      144     6013    1   END XB_INIT_LIB;
      145     6014        %EOD;

PL6.E3A0      #002=XB_INIT_LIB File=xbi_init_lib:6.:XBC3TSI                      FRI 01/06/95 11:38 Page:10
--  Include file information  --

   B$TABLES_C.:LIB_E04  cannot be made into a system file and is referenced.
   CP_6_C.:LIB_E04  is referenced.
   CP_6.:LIB_E04  cannot be made into a system file and is referenced.
   xbi_locale_i6.:XBC3TOU  is referenced.
   xbi_char_tables_i6.:XBC3TOU  cannot be made into a system file and is referenced.
   xbi_signal_i6.:XBC3TOU  cannot be made into a system file and is referenced.
      No diagnostics issued in procedure XB_INIT_LIB.

   Procedure XB_INIT_LIB requires 42 words for executable code.
   Procedure XB_INIT_LIB requires 4 words of local(AUTO) storage.

PL6.E3A0      #002=XB_INIT_LIB File=xbi_init_lib:6.:XBC3TSI                      FRI 01/06/95 11:38 Page:11
          *** CROSS REFERENCE LISTING ***
**     DENOTES     IDENTIFIER DEFINITION
<<                 IDENTIFIER'S VALUE SET
>>                 IDENTIFIER'S VALUE USED
<>                 IDENTIFIER SET AND/OR USED
--                 IDENTIFIER REFERENCED
PL6.E3A0      #002=XB_INIT_LIB File=xbi_init_lib:6.:XBC3TSI                      FRI 01/06/95 11:38 Page:12
          MINI XREF LISTING

B$SR_NON_BLANK$
      5940**DCL      5941--IMP-PTR
B$SR_NON_DEC$
      5926**DCL      5927--IMP-PTR
B$SR_NON_ZERO$
      5934**DCL      5935--IMP-PTR
ERRNO_P
      5921**DCL      5979<<ASSIGN
I
      5960**DCL      5988<<DOINDEX  5989>>ASSIGN   5990>>ASSIGN   5991>>ASSIGN   5992>>ASSIGN
SIGVEC.SV_HANDLER
        82**DCL        83--REDEF
STDERR_P
      5920**DCL      5978<<ASSIGN
STDIN_P
      5918**DCL      5976<<ASSIGN
STDOUT_P
      5919**DCL      5977<<ASSIGN
XB$ENV.CURRENT_SIGNAL
        55**DCL      5984<<ASSIGN
XB$ENV.SIGNAL_HANDLER
        67**DCL      5989<<ASSIGN   5997<<ASSIGN   5998<<ASSIGN   5999<<ASSIGN
XB$ENV.SIGNAL_MASK
        71**DCL      5985<<ASSIGN
XB$ENV.SIGNAL_RETURN_RESULT
        68**DCL      5990<<ASSIGN
XB$ENV.SIGNAL_SV_FLAGS
        70**DCL      5992<<ASSIGN
XB$ENV.SIGNAL_SV_MASK
        69**DCL      5991<<ASSIGN
XB$ENV.SIGNAL_WAIT
        72**DCL      5986<<ASSIGN
PL6.E3A0      #002=XB_INIT_LIB File=xbi_init_lib:6.:XBC3TSI                      FRI 01/06/95 11:38 Page:13
XBI$CLEAR_OVERFLOW_MASK
      5966**DCL-ENT  5974--CALL
XBI$DEFAULT_SIGNAL_HANDLER
      5964**DCL-ENT  5989--ASSIGN
XBI$FREE_HEAP
      5963**DCL-ENT  6007--CALL
XBI$MB_CUR_MAX_P
      5922**DCL      5980<<ASSIGN
XBI_CLOSE_DCBS
      5962**DCL-ENT  6003--CALL
XBI_INIT_TRAPS
      5965**DCL-ENT  6009--CALL

PL6.E3A0      #003=XBI_LINK_GLOBALS File=xbi_init_lib:6.:XBC3TSI                 FRI 01/06/95 11:38 Page:14
      146        1        /*T***********************************************************/
      147        2        /*T*                                                         */
      148        3        /*T* Copyright (c) Bull HN Information Systems Inc., 1989    */
      149        4        /*T*                                                         */
      150        5        /*T***********************************************************/
      151        6
      152        7        XBI_LINK_GLOBALS: PROC (p_errno, p_stdin, p_stdout, p_stderr, HUGE_VAL,
      153        8              p_MB_CUR_MAX);
      154        9           /*I*  NAME: XBI_LINK_GLOBALS
      155       10                 PURPOSE: Sets up pointers in the runtime library to the global
      156       11                    variables errno, stdin, stdout and stderr.  This used to have
      157       12                    the global variable HUGE_VAL, but it should not be a variable
      158       13                    but it should have been a define.  It is still kept in the
      159       14                    call for backwards calling compatability.
      160       15           */
      161       16
      162       17           %INCLUDE xb_errno_i6;
      163       56           %INCLUDE xb_stdio_i6;
      164      299           %INCLUDE xbi_locale_i6;
      165      331
      166      332    1      DCL STDIN_P                        PTR SYMREF;
      167      333    1      DCL STDOUT_P                       PTR SYMREF;
      168      334    1      DCL STDERR_P                       PTR SYMREF;
      169      335
      170      336    1      DCL p_errno             SBIN;
      171      337    1      DCL p_stdin             PTR;
      172      338    1      DCL p_stdout            PTR;
      173      339    1      DCL p_stderr            PTR;
      174      340    1      DCL HUGE_VAL            BIT (72) DALIGNED;
      175      341    1      DCL p_MB_CUR_MAX        PTR;
      176      342
      177      343           %MB_CUR_MAX;
      178      347
      179      348    1      ERRNO_P = ADDR(p_errno);
      180      349    1      STDIN_P = ADDR(p_stdin);
      181      350    1      STDOUT_P = ADDR(p_stdout);
      182      351    1      STDERR_P = ADDR(p_stderr);
PL6.E3A0      #003=XBI_LINK_GLOBALS File=xbi_init_lib:6.:XBC3TSI                 FRI 01/06/95 11:38 Page:15
      183      352    1      XBI$MB_CUR_MAX_P = ADDR(p_MB_CUR_MAX);
      184      353    1   END XBI_LINK_GLOBALS;
      185      354        %EOD;

PL6.E3A0      #003=XBI_LINK_GLOBALS File=xbi_init_lib:6.:XBC3TSI                 FRI 01/06/95 11:38 Page:16
--  Include file information  --

   xbi_locale_i6.:XBC3TOU  is referenced.
   xb_stdio_i6.:XBC3TOU  cannot be made into a system file and is referenced.
   xb_errno_i6.:XBC3TOU  cannot be made into a system file and is referenced.
      No diagnostics issued in procedure XBI_LINK_GLOBALS.

   Procedure XBI_LINK_GLOBALS requires 13 words for executable code.
   Procedure XBI_LINK_GLOBALS requires 10 words of local(AUTO) storage.

PL6.E3A0      #003=XBI_LINK_GLOBALS File=xbi_init_lib:6.:XBC3TSI                 FRI 01/06/95 11:38 Page:17
          *** CROSS REFERENCE LISTING ***
**     DENOTES     IDENTIFIER DEFINITION
<<                 IDENTIFIER'S VALUE SET
>>                 IDENTIFIER'S VALUE USED
<>                 IDENTIFIER SET AND/OR USED
--                 IDENTIFIER REFERENCED
PL6.E3A0      #003=XBI_LINK_GLOBALS File=xbi_init_lib:6.:XBC3TSI                 FRI 01/06/95 11:38 Page:18
          MINI XREF LISTING

ERRNO
        26**DCL        44--REDEF
ERRNO_P
        25**DCL        26--IMP-PTR    44--IMP-PTR   348<<ASSIGN
HUGE_VAL
       340**DCL         7--PROC
P_ERRNO
       336**DCL         7--PROC      348--ASSIGN
P_MB_CUR_MAX
       341**DCL         7--PROC      352--ASSIGN
P_STDERR
       339**DCL         7--PROC      351--ASSIGN
P_STDIN
       337**DCL         7--PROC      349--ASSIGN
P_STDOUT
       338**DCL         7--PROC      350--ASSIGN
STDERR_P
       334**DCL       351<<ASSIGN
STDIN_P
       332**DCL       349<<ASSIGN
STDOUT_P
       333**DCL       350<<ASSIGN
XBI$MB_CUR_MAX_P
       344**DCL       345--IMP-PTR   352<<ASSIGN

PL6.E3A0      #004=XBI_CCBUF_INIT File=xbi_init_lib:6.:XBC3TSI                   FRI 01/06/95 11:38 Page:19
      186        1        /*T***********************************************************/
      187        2        /*T*                                                         */
      188        3        /*T* Copyright (c) Bull HN Information Systems Inc., 1989    */
      189        4        /*T*                                                         */
      190        5        /*T***********************************************************/
      191        6        XBI_CCBUF_INIT:  PROC(CCARS, CCDISP, CCBUF$, CONTIN_LINE);
      192        7
      193        8    1   dcl  CCARS    ubin;
      194        9    1   dcl  CCDISP   ubin;
      195       10    1   dcl  CCBUF$   ptr;
      196       11    1   dcl  CONTIN_LINE  ubin;
      197       12
      198       13        %include B$JIT;
      199      616
      200      617    1   dcl  B$JIT$   ptr symref;
      201      618
      202      619    1     CCARS = B$JIT.CCARS;
      203      620    1     CCDISP = B$JIT.CCDISP;
      204      621    1     CCBUF$ = addr(B$JIT.CCBUF);
      205      622    2      if (addr(CONTIN_LINE) ~= addr(nil)) then do;
      206      623    2         if (B$JIT.PRFLAGS.CONTINUED) then
      207      624    2            CONTIN_LINE = 1;
      208      625    2         else
      209      626    2            CONTIN_LINE = 0;
      210      627    2      end;
      211      628
      212      629    1   end XBI_CCBUF_INIT;

PL6.E3A0      #004=XBI_CCBUF_INIT File=xbi_init_lib:6.:XBC3TSI                   FRI 01/06/95 11:38 Page:20
--  Include file information  --

   B$JIT_C.:LIB_E04  is referenced.
   B$JIT.:LIB_E04  cannot be made into a system file and is referenced.
      No diagnostics issued in procedure XBI_CCBUF_INIT.

   Procedure XBI_CCBUF_INIT requires 30 words for executable code.
   Procedure XBI_CCBUF_INIT requires 8 words of local(AUTO) storage.

    No errors detected in file xbi_init_lib:6.:XBC3TSI    .

PL6.E3A0      #004=XBI_CCBUF_INIT File=xbi_init_lib:6.:XBC3TSI                   FRI 01/06/95 11:38 Page:21
          *** CROSS REFERENCE LISTING ***
**     DENOTES     IDENTIFIER DEFINITION
<<                 IDENTIFIER'S VALUE SET
>>                 IDENTIFIER'S VALUE USED
<>                 IDENTIFIER SET AND/OR USED
--                 IDENTIFIER REFERENCED
PL6.E3A0      #004=XBI_CCBUF_INIT File=xbi_init_lib:6.:XBC3TSI                   FRI 01/06/95 11:38 Page:22
          MINI XREF LISTING

B$JIT.CCARS
       428**DCL       619>>ASSIGN
B$JIT.CCBUF
       428**DCL       621--ASSIGN
B$JIT.CCDISP
       428**DCL       620>>ASSIGN
B$JIT.CPFLAGS1.SLEAZE
       434**DCL       434--REDEF
B$JIT.ERR.MID
       341**DCL       341--REDEF
B$JIT.JRESPEAK
       502**DCL       503--REDEF
B$JIT.ORIGINATOR_PORT.FROM_CR
       611**DCL       611--REDEF     612--REDEF
B$JIT.PNR
       515**DCL       515--REDEF
B$JIT.PRFLAGS.CONTINUED
       424**DCL       623>>IF
B$JIT.TSLINE
       609**DCL       610--REDEF
B$JIT$
       617**DCL       335--IMP-PTR   619>>ASSIGN    620>>ASSIGN    621>>ASSIGN    623>>IF
CCARS
         8**DCL         6--PROC      619<<ASSIGN
CCBUF$
        10**DCL         6--PROC      621<<ASSIGN
CCDISP
         9**DCL         6--PROC      620<<ASSIGN
CONTIN_LINE
        11**DCL         6--PROC      622--IF        624<<ASSIGN    626<<ASSIGN
