
PL6.E3A0      #001=XBI_INIT_TRAPS File=xbi_init_traps:6.:XBC3TSI                 FRI 01/06/95 11:13 Page:1
        1        1        /*M* XBI_INIT_TRAPS - initialize trap handlers for C runtime */
        2        2        /*T***********************************************************/
        3        3        /*T*                                                         */
        4        4        /*T* Copyright (c) Bull HN Information Systems Inc., 1989    */
        5        5        /*T*                                                         */
        6        6        /*T***********************************************************/
        7        7        XBI_INIT_TRAPS: PROC ;
        8        8        /*F* NAME: XBI_INIT_TRAPS
        9        9             PURPOSE: To set control of all traps to the C exceptional
       10       10                      condition handlers.
       11       11        */
       12       12        /*D* NAME: XBI_INIT_TRAPS
       13       13           CALL: CALL XBI_INIT_TRAPS;
       14       14           INTERFACE: none
       15       15           INPUT: none
       16       16           OUTPUT: ECCB set for all traps to C fault handlers
       17       17           SCRATCH: all
       18       18           DESCRIPTION: XBI_INIT_TRAPS sets the system trap control to point to
       19       19              XBI$FAULT.  XBI_INIT_TRAPS should be called at program startup,
       20       20              and may be used by PL6 procedures wishing to use C exception
       21       21              handling.
       22       22        */
       23       23           %INCLUDE CP_6;
       24     5583
       25     5584    1      DCL XBI$FAULT        ENTRY ASYNC;
       26     5585    1      DCL XBI_SET_ERRNO    ENTRY(1);
       27     5586
       28     5587           %FPT_TRAP (STCLASS = CONSTANT,         ARITHMETIC = XBI$FAULT,
       29     5588                      DIVIDE_CHECK = TRAP,        OVERFLOW = TRAP,
       30     5589                      ERRORS = XBI$FAULT,         COMMAND = TRAP,
       31     5590                      IPR = TRAP,                 LOCKUP = TRAP,
       32     5591                      MEMORY = TRAP,              MISSING_PAGE = TRAP,
       33     5592                      MISSING_SEG = TRAP,         SECURITY_1 = TRAP,
       34     5593                      SECURITY_2 = TRAP,          PROGRAMMED = XBI$FAULT,
       35     5594                      DERAIL = TRAP,              FAULT_TAG = TRAP,
       36     5595                      MME = TRAP);
       37     5618
PL6.E3A0      #001=XBI_INIT_TRAPS File=xbi_init_traps:6.:XBC3TSI                 FRI 01/06/95 11:13 Page:2
       38     5619    2      CALL M$TRAP(FPT_TRAP) WHENALTRETURN DO;
       39     5620    2         CALL XBI_SET_ERRNO;
       40     5621    2      END;
       41     5622    1   END XBI_INIT_TRAPS;

PL6.E3A0      #001=XBI_INIT_TRAPS File=xbi_init_traps:6.:XBC3TSI                 FRI 01/06/95 11:13 Page:3
--  Include file information  --

   CP_6_C.:LIB_E04  is referenced.
   CP_6.:LIB_E04  cannot be made into a system file and is referenced.
      No diagnostics issued in procedure XBI_INIT_TRAPS.

   Procedure XBI_INIT_TRAPS requires 11 words for executable code.
   Procedure XBI_INIT_TRAPS requires 4 words of local(AUTO) storage.

    No errors detected in file xbi_init_traps:6.:XBC3TSI    .

PL6.E3A0      #001=XBI_INIT_TRAPS File=xbi_init_traps:6.:XBC3TSI                 FRI 01/06/95 11:13 Page:4
          *** CROSS REFERENCE LISTING ***
**     DENOTES     IDENTIFIER DEFINITION
<<                 IDENTIFIER'S VALUE SET
>>                 IDENTIFIER'S VALUE USED
<>                 IDENTIFIER SET AND/OR USED
--                 IDENTIFIER REFERENCED
PL6.E3A0      #001=XBI_INIT_TRAPS File=xbi_init_traps:6.:XBC3TSI                 FRI 01/06/95 11:13 Page:5
          MINI XREF LISTING

FPT_TRAP
      5606**DCL      5619<>CALL
FPT_TRAP.V
      5606**DCL      5606--DCLINIT
M$TRAP
      5565**DCL-ENT  5619--CALL
XBI$FAULT
      5584**DCL-ENT  5607--DCLINIT  5608--DCLINIT  5608--DCLINIT
XBI_SET_ERRNO
      5585**DCL-ENT  5620--CALL
