
 11:16 01/06/95  FILE=xbi_memory:a.:XBC3TSI                                                              1    BMAP - B00
                                         1  *T***********************************************************
                                         2  *T*                                                         *
                                         3  *T* Copyright (c) Bull HN Information Systems Inc., 1989    *
                                         4  *T*                                                         *
                                         5  *T***********************************************************
                                         6                LODM           xbi_std_ig
                                         7                ENTDEF         XBI$MOVE_USING_MRL
                                         8                ENTDEF         XBI$MOVE_USING_MLR
                                         9  *D* NAME: XBI$MOVE_USING_MRL
                                        10  *,* CALL: CALL XBI$MOVE_USING_MRL (DESTINATION, SOURCE, BYTES);
                                        11  *,* INPUT: SOURCE       memory to move
                                        12  *,*        BYTES        size of source and destination in bytes.
                                        13  *,*        DESTINATION  memory to move to
                                        14  *,* PURPOSE: Moves BYTES characters from SOURCE to DESTINATION using an
                                        15  *,*   MRL instruction.  This is to handle those cases where the source and
                                        16  *,*   destination overlap in such a way that an MLR instruction would screw
                                        17  *,*   up the move.
                                        18  */
          (0)000000000000               19  XBI$MOVE_USING_MRL EQU       *
 0 000000    0 00000 4715 00            20                LDP1           0,,PR0         destination pointer
   000001    0 00001 4735 00            21                LDP3           1,,PR0         source pointer
   000002    0 00002 4745 00            22                LDP4           2,,PR0
   000003    4 00000 2361 00            23                LDQ            0,,PR4         string size
   000004    000 0 140 1015 40          24                MRL            (1,1),(1,1)
   000005    3 00000 0 0 0 0006         25                ADSC9          0,0,QL,PR3
   000006    1 00000 0 0 0 0006         26                ADSC9          0,0,QL,PR1
   000007    000001 7100 11             27                TRA            1,X1
                                        28
                                        29  *D* NAME: XBI$MOVE_USING_MLR
                                        30  *,* CALL: CALL XBI$MOVE_USING_MLR (DESTINATION, SOURCE, BYTES);
                                        31  *,* INPUT: SOURCE       memory to move
                                        32  *,*        BYTES        size of source and destination in bytes.
                                        33  *,*        DESTINATION  memory to move to
                                        34  *,* PURPOSE: Moves BYTES characters from SOURCE to DESTINATION using an
                                        35  *,*   MLR instruction.  This is the preferable way to move memory as
                                        36  *,*   the MLR instruction is faster than the MRL instruction.
                                        37  */
 11:16 01/06/95  FILE=xbi_memory:a.:XBC3TSI                                                              2    BMAP - B00
          (0)000000000010               38  XBI$MOVE_USING_MLR EQU       *
   000010    0 00000 4715 00            39                LDP1           0,,PR0         destination pointer
   000011    0 00001 4735 00            40                LDP3           1,,PR0         source pointer
   000012    0 00002 4745 00            41                LDP4           2,,PR0
   000013    4 00000 2361 00            42                LDQ            0,,PR4         string size
   000014    000 0 140 1005 40          43                MLR            (1,1),(1,1)
   000015    3 00000 0 0 0 0006         44                ADSC9          0,0,QL,PR3
   000016    1 00000 0 0 0 0006         45                ADSC9          0,0,QL,PR1
   000017    000001 7100 11             46                TRA            1,X1
                                        47
                                        48                END

  CONTROL SECTION TABLE

   0 CODE   EVEN  000020
   1 RODATA EVEN  000000 LITERALS

 11:16 01/06/95  FILE=xbi_memory:a.:XBC3TSI   SYMBOL TABLE                                               3    BMAP - B00
 00101000 000000000000 /*T*            *6
 00101000 000000000000 /*T***************************      *6
 40000000 000000000102 AUTO            *6
 41000000 000000000100 PR0             *6        20        21        22        39        40        41
 41000000 000000000101 PR1             *6        26        45
 41000000 000000000102 PR2             *6
 41000000 000000000103 PR3             *6        25        44
 41000000 000000000104 PR4             *6        23        42
 41000000 000000000105 PR5             *6
 41000000 000000000106 PR6             *6
 40000000 000000000107 PR7             *6
 52101000 000000000010 XBI$MOVE_USING_MLR         8       *38
 52101000 000000000000 XBI$MOVE_USING_MRL         7       *19

      13 SYMBOLS

       0 MACROS

    SYMBOL SPACE USED   153 WORDS
     MACRO SPACE USED     0 WORDS
   INPUT RECORDS READ   112
 STATEMENTS PROCESSED    39
         ELAPSED TIME  0:00.40
             CPU TIME     0.33 SEC.
        ASSEMBLY RATE  7091 STATEMENTS/CPU MIN.

      NO ERRORS

