
 11:17 01/06/95  FILE=xbi_shared_startup:a                                                               1    BMAP - B00
                                         1  *T***********************************************************
                                         2  *T*                                                         *
                                         3  *T* Copyright (c) Bull HN Information Systems Inc., 1989    *
                                         4  *T*                                                         *
                                         5  *T***********************************************************
                                         6  *D*  NAME:       __XBI_CSTARTUP
                                         7  *,*  PURPOSE:    To provide the initializations necessary to put a
                                         8  *,*              C program into execution.
                                         9  *,*
                                        10  *,*  DESCRIPTION:
                                        11  *,*        This routine is called from the main#main entry point
                                        12  *,*        of the main routine.  It provides the following:
                                        13  *,*
                                        14  *,*        1.    It allocates the auto frame.
                                        15  *,*        2.    It initializes the C library
                                        16  *,*        3.    Determines the invocation style
                                        17  *,*        4.    Initializes stdin, stdout and stderr
                                        18  *,*        5.    Builds arguments to main#main if necessary
                                        19  *,*
                                        20          ENTDEF      __XBI_CSTARTUP
                                        21          ENTDEF      _XBI_MARET
                                        22          ENTREF      _XBC_MAUTO
                                        23          ENTREF      _XBC_AUTO_0
                                        24          ENTREF      _XBC_ARET
                                        25          ENTREF      _XBC_FARET
                                        26          ENTREF      _XBC_MARET
                                        27  *
                                        28          ENTREF      XB_INIT_LIB
                                        29          ENTREF      XBI_IS_STDINVOCATION
                                        30          ENTREF      _XBI_SHARE_CSETUP
                                        31          ENTREF      XBI_CCBUF_INIT
                                        32          ENTREF      XBI_EXIT
                                        33          SYMREF      _LIBCOM_DATA
                                        34  *
                                        35          SEGREF      NULLSID
                                        36  *

 11:17 01/06/95  FILE=xbi_shared_startup:a                                                               2    BMAP - B00
                                        37          EJECT
                                        38  *
                                        39  *    Auto Variables
                                        40  *
             000000000002               41  AUTO    EQU         2
                                        42  *
             000000000003               43  CCARS   EQU         3
             000000000004               44  CCDISP  EQU         4
             000000000005               45  CCBUF   EQU         5
             000000000006               46  STDINV  EQU         6
             000000000007               47  CONTIN  EQU         7
                                        48  *       EQU         8
                                        49  *
             000000000011               50  CALL0   EQU         9     addr(CCARS)
                                        51  *                  10     addr(CCDISP)
                                        52  *                  11     addr(B$JIT.CCBUF)
             000000000014               53  CALL1   EQU        12     addr(STDINV)
             000000000015               54  CONT_P  EQU        13     addr(CONTIN)
             000000000016               55  MAINPRM EQU        14     # of args
                                        56  *       EQU        15     NULL or addr(argn)
             000000000024               57  AUTOSIZ EQU        20
                                        58  *

 11:17 01/06/95  FILE=xbi_shared_startup:a                                                               3    BMAP - B00
                                        59          EJECT
                                        60  *
          (0)000000000000               61  __XBI_CSTARTUP EQU *
                                        62  *
 0 000000  X 000000 7010 00             63          TSX1        _XBC_MAUTO        Create auto frame for main
   000001    000000 0110 00             64          NOP         0
   000002  X 000000 4574 00             65          STP7        _LIBCOM_DATA         Contains common lib vector
   000003    000000 6210 10             66          EAX1        0,X0                 Now setup our own auto
   000004 (0)000100 4774 00             67          LDP7        NULL_POINTER         (ptr to main's args)
   000005    2 00003 4575 00            68          STP7        3,,AUTO              __varyarg_ptr
   000006    000000 7270 10             69          LXL7        0,0               Check for expecting args
   000007 (0)000011 6000 00             70          TZE         NO_PARAMS               -- none expected!
   000010    2 00004 6375 00            71          EPPR7       4,,AUTO              Setup pointer to args
                                        72  ******* STP7        3,,AUTO           NULL if "main#main" entry
          (0)000000000011               73  NO_PARAMS EQU       *
   000011  X 000000 7000 00             74          TSX0        _XBC_AUTO_0       Create our own auto frame
   000012    000024 000000              75          ZERO        AUTOSIZ,0
   000013    2 00017 4575 00            76          STP7        MAINPRM+1,,AUTO        NULL if no argn/argv
   000014    2 00016 4501 00            77          STZ         MAINPRM+0,,AUTO        else addr(argn)
   000015    2 00016 4471 00            78          SXL7        MAINPRM+0,,AUTO
   000016 (0)000074 6304 00             79          EPPR0       NOPARAMS
   000017 (0)000074 6314 00             80          EPPR1       NOPARAMS
   000020  X 000000 7010 00             81          TSX1        XB_INIT_LIB          Initialize the Library
   000021    000000 0110 00             82          NOP         0
   000022    2 00003 6305 00            83          EPPR0       CCARS,,AUTO
   000023    2 00011 4505 00            84          STP0        CALL0,,AUTO       Initialize parameter list
   000024    2 00004 6305 00            85          EPPR0       CCDISP,,AUTO         for our calls
   000025    2 00012 4505 00            86          STP0        CALL0+1,,AUTO
   000026    2 00005 6305 00            87          EPPR0       CCBUF,,AUTO
   000027    2 00013 4505 00            88          STP0        CALL0+2,,AUTO
   000030    2 00007 6305 00            89          EPPR0       CONTIN,,AUTO
   000031    2 00014 4505 00            90          STP0        CALL0+3,,AUTO
   000032    2 00011 6305 00            91          EPPR0       CALL0,,AUTO
   000033 (0)000076 6314 00             92          EPPR1       FOURPARAMS
   000034  X 000000 7010 00             93          TSX1        XBI_CCBUF_INIT
   000035    000000 0110 00             94          NOP         0
   000036    2 00007 2361 00            95          LDQ         CONTIN,,AUTO
 11:17 01/06/95  FILE=xbi_shared_startup:a                                                               4    BMAP - B00
   000037    2 00015 7561 00            96          STQ         CONT_P,,AUTO
   000040    2 00006 6305 00            97          EPPR0       STDINV,,AUTO
   000041    2 00014 4505 00            98          STP0        CALL1,,AUTO

 11:17 01/06/95  FILE=xbi_shared_startup:a                                                               5    BMAP - B00
                                        99          EJECT
   000042    2 00003 2361 00           100          LDQ         CCARS,,AUTO
   000043    2 00011 7561 00           101          STQ         CALL0,,AUTO
   000044    2 00004 2361 00           102          LDQ         CCDISP,,AUTO
   000045    2 00012 7561 00           103          STQ         CALL0+1,,AUTO
   000046    2 00005 2361 00           104          LDQ         CCBUF,,AUTO
   000047    2 00013 7561 00           105          STQ         CALL0+2,,AUTO
   000050    2 00014 6305 00           106          EPPR0       CALL1,,AUTO
   000051 (0)000075 6314 00            107          EPPR1       ONEPARAM
   000052  X 000000 7010 00            108          TSX1        XBI_IS_STDINVOCATION    Determine stdinvoke
   000053    000000 0110 00            109          NOP         0
   000054    2 00006 2361 00           110          LDQ         STDINV,,AUTO
   000055    2 00014 7561 00           111          STQ         CALL1,,AUTO
   000056    2 00011 6305 00           112          EPPR0       CALL0,,AUTO
   000057 (0)000077 6314 00            113          EPPR1       SEVENPARAMS
   000060  X 000000 7010 00            114          TSX1        _XBI_SHARE_CSETUP
   000061    000000 0110 00            115          NOP         0
   000062  X 000000 7000 00            116          TSX0        _XBC_ARET               Return to main#main
                                       117  *
   000063                              118  _XBI_MARET NULL
   000063    2 00003 7211 00           119          LXL1        3,,AUTO
   000064  X 000000 1010 03            120          CMPX1       NULLSID,DU
   000065  X 000000 6010 00            121          TNZ         _XBC_FARET
                                       122  *
   000066    2 00003 7561 00           123          STQ         3,,AUTO
   000067    2 00003 6305 00           124          EPPR0       3,,AUTO
   000070 (0)000075 6314 00            125          EPPR1       ONEPARAM
   000071  X 000000 7010 00            126          TSX1        XBI_EXIT
   000072    000000 2360 07            127          LDQ         0,DL
   000073  X 000000 7100 00            128          TRA         _XBC_MARET
                                       129  *
   000074    000000 000000             130  NOPARAMS    ZERO    0,0
   000075    000001 000000             131  ONEPARAM    ZERO    1,0
   000076    000004 000000             132  FOURPARAMS ZERO     4,0
   000077    000007 000000             133  SEVENPARAMS   ZERO  7,0
                                       134  *
          (0)000000000100              135  NULL_POINTER EQU *
 11:17 01/06/95  FILE=xbi_shared_startup:a                                                               6    BMAP - B00
   000100    000000 X 000000           136          ZERO        0,NULLSID
                                 99999.999         END               ***END OF FILE***

  CONTROL SECTION TABLE

   0 CODE   EVEN  000101
   1 RODATA EVEN  000000 LITERALS

 11:17 01/06/95  FILE=xbi_shared_startup:a    SYMBOL TABLE                                               7    BMAP - B00
 41000000 000000000002 AUTO           *41        68        71        76        77        78        83
                                       84        85        86        87        88        89        90
                                       91        95        96        97        98       100       101
                                      102       103       104       105       106       110       111
                                      112       119       123       124
 41000000 000000000024 AUTOSIZ        *57        75
 41000000 000000000011 CALL0          *50        84        86        88        90        91       101
                                      103       105       112
 41000000 000000000014 CALL1          *53        98       106       111
 41000000 000000000003 CCARS          *43        83       100
 41000000 000000000005 CCBUF          *45        87       104
 41000000 000000000004 CCDISP         *44        85       102
 41000000 000000000007 CONTIN         *47        89        95
 41000000 000000000015 CONT_P         *54        96
 01101000 000000000076 FOURPARAMS      92      *132
 41000000 000000000016 MAINPRM        *55        76        77        78
 01101000 000000000074 NOPARAMS        79        80      *130
 41101000 000000000011 NO_PARAMS       70       *73
 03601000 000000000000 NULLSID        *35       120       136
 41101000 000000000100 NULL_POINTER    67      *135
 01101000 000000000075 ONEPARAM       107       125      *131
 01101000 000000000077 SEVENPARAMS    113      *133
 41000000 000000000006 STDINV         *46        97       110
 03201008 000000000000 XBI_CCBUF_INIT           *31        93
 03201009 000000000000 XBI_EXIT       *32       126
 03201006 000000000000 XBI_IS_STDINVOCATION     *29       108
 03201005 000000000000 XB_INIT_LIB    *28        81
 03301000 000000000000 _LIBCOM_DATA   *33        65
 03201002 000000000000 _XBC_ARET      *24       116
 03201001 000000000000 _XBC_AUTO_0    *23        74
 03201003 000000000000 _XBC_FARET     *25       121
 03201004 000000000000 _XBC_MARET     *26       128
 03201000 000000000000 _XBC_MAUTO     *22        63
 12101000 000000000063 _XBI_MARET      21      *118
 03201007 000000000000 _XBI_SHARE_CSETUP        *30       114
 52101000 000000000000 __XBI_CSTARTUP            20       *61

 11:17 01/06/95  FILE=xbi_shared_startup:a    SYMBOL TABLE                                               8    BMAP - B00
      31 SYMBOLS

       0 MACROS

    SYMBOL SPACE USED   468 WORDS
     MACRO SPACE USED     0 WORDS
   INPUT RECORDS READ   272
 STATEMENTS PROCESSED   114
         ELAPSED TIME  0:01.20
             CPU TIME     0.71 SEC.
        ASSEMBLY RATE  9634 STATEMENTS/CPU MIN.

      NO ERRORS

