
 11:16 01/06/95  FILE=xbi_udiv:a.:XBC3TSI                                                                1    BMAP - B00
                                         1  *T***********************************************************
                                         2  *T*                                                         *
                                         3  *T* Copyright (c) Bull HN Information Systems Inc., 1989    *
                                         4  *T*                                                         *
                                         5  *T***********************************************************
                                         6  * .UDIV(divisor, dividend)
                                         7  * .UREM(divisor, dividend)
                                         8  * Returns the quotient or remainder in the Q.
                                         9  *
                                        10                LODM           xbi_std_ig
                                        11
             000000000000               12  dvr equ 0 Divisor
             000000000001               13  dvd equ 1 Dividend
                                        14
                                        15                ENTDEF         .UDIV
                                        16                ENTDEF         .UREM
                                        17
          (0)000000000000               18  .UDIV         EQU            *
 0 000000    0 00001 2361 00            19                LDQ            dvd,,PR0
   000001 (0)000017 6050 00             20                TPL            dividend_bit0_zero
   000002    0 00000 2351 00            21                LDA            dvr,,PR0
   000003 (0)000013 6040 00             22                TMI            divisor_bit0_set
   000004    000001 1150 07             23                CMPA           1,DL
   000005    000001 6000 11             24                TZE            1,X1
   000006    000000 2350 03             25                LDA            0,DU
   000007    000001 7370 00             26                LLS            1
   000010    0 00000 5071 00            27                DVF            dvr,,PR0
   000011    000044 7330 00             28                LRS            36
   000012    000001 7020 11             29                TSX2           1,X1
                                        30
          (0)000000000013               31  divisor_bit0_set EQU        *
   000013    0 00000 1161 00            32                CMPQ           dvr,,PR0
   000014 (0)000021 6020 00             33                TNC            divide_result_is_zero
   000015    000001 2360 07             34                LDQ            1,DL
   000016    000001 7020 11             35                TSX2           1,X1
                                        36
          (0)000000000017               37  dividend_bit0_zero EQU        *
 11:16 01/06/95  FILE=xbi_udiv:a.:XBC3TSI                                                                2    BMAP - B00
   000017    0 00000 2351 00            38                LDA            dvr,,PR0
   000020 (0)000023 6050 00             39                TPL            use_DIV
                                        40
          (0)000000000021               41  divide_result_is_zero EQU    *
   000021    000000 2360 03             42                LDQ            0,DU
   000022    000001 7020 11             43                TSX2           1,X1
                                        44
   000023    0 00000 5061 00            45  use_DIV       DIV            dvr,,PR0
   000024    000001 7020 11             46                TSX2           1,X1
                                        47
          (0)000000000025               48  .UREM         EQU            *
   000025    0 00001 2361 00            49                LDQ            dvd,,PR0
   000026 (0)000043 6050 00             50                TPL            REM_dividend_bit0_zero
   000027    0 00000 2351 00            51                LDA            dvr,,PR0
   000030 (0)000037 6040 00             52                TMI            REM_divisor_bit0_set
   000031    000001 1150 07             53                CMPA           1,DL
   000032    000001 6000 11             54                TZE            1,X1            result is the dividend
                                        55
   000033    000000 2350 03             56                LDA            0,DU
   000034    000001 7370 00             57                LLS            1
   000035    0 00000 5071 00            58                DVF            dvr,,PR0
   000036    000001 7020 11             59                TSX2           1,X1
                                        60
          (0)000000000037               61  REM_divisor_bit0_set EQU    *
   000037    0 00000 1161 00            62                CMPQ           dvr,,PR0
   000040    000001 6040 11             63                TMI            1,X1
   000041    0 00000 1361 00            64                SBLQ           dvr,,PR0
   000042    000001 7020 11             65                TSX2           1,X1
                                        66
          (0)000000000043               67  REM_dividend_bit0_zero EQU    *
   000043    0 00000 2351 00            68                LDA            dvr,,PR0
   000044    000001 6040 11             69                TMI            1,X1
   000045    0 00000 5061 00            70                DIV            dvr,,PR0
   000046    000044 7730 00             71                LRL            36
   000047    000001 7020 11             72                TSX2           1,X1
                                        73
                                        74                END
 11:16 01/06/95  FILE=xbi_udiv:a.:XBC3TSI                                                                3    BMAP - B00

  CONTROL SECTION TABLE

   0 CODE   EVEN  000050
   1 RODATA EVEN  000000 LITERALS

 11:16 01/06/95  FILE=xbi_udiv:a.:XBC3TSI     SYMBOL TABLE                                               4    BMAP - B00
 52101000 000000000000 .UDIV           15       *18
 52101000 000000000025 .UREM           16       *48
 00101000 000000000000 /*T*           *10
 00101000 000000000000 /*T***************************     *10
 40000000 000000000102 AUTO           *10
 41101000 000000000017 DIVIDEND_BIT0_ZERO        20       *37
 41101000 000000000021 DIVIDE_RESULT_IS_ZERO     33       *41
 41101000 000000000013 DIVISOR_BIT0_SET          22       *31
 41000000 000000000001 DVD            *13        19        49
 41000000 000000000000 DVR            *12        21        27        32        38        45        51
                                       58        62        64        68        70
 41000000 000000000100 PR0            *10        19        21        27        32        38        45
                                       49        51        58        62        64        68        70
 41000000 000000000101 PR1            *10
 41000000 000000000102 PR2            *10
 41000000 000000000103 PR3            *10
 41000000 000000000104 PR4            *10
 41000000 000000000105 PR5            *10
 41000000 000000000106 PR6            *10
 40000000 000000000107 PR7            *10
 41101000 000000000043 REM_DIVIDEND_BIT0_ZERO    50       *67
 41101000 000000000037 REM_DIVISOR_BIT0_SET      52       *61
 01101000 000000000023 USE_DIV         39       *45

      21 SYMBOLS

       0 MACROS

    SYMBOL SPACE USED   275 WORDS
     MACRO SPACE USED     0 WORDS
   INPUT RECORDS READ   164
 STATEMENTS PROCESSED    77
         ELAPSED TIME  0:01.16
             CPU TIME     0.48 SEC.
        ASSEMBLY RATE  9625 STATEMENTS/CPU MIN.

      NO ERRORS

