
PL6.E3A0      #001=FIX_LIBRARY File=xbu_fix_library:6.:XBC3TSI                   FRI 01/06/95 11:13 Page:1
        1        1        /*T***********************************************************/
        2        2        /*T*                                                         */
        3        3        /*T* Copyright (c) Bull HN Information Systems Inc., 1989    */
        4        4        /*T*                                                         */
        5        5        /*T***********************************************************/
        6        6        FIX_LIBRARY: PROC MAIN NOAUTO;
        7        7           /*M*  NAME: FIX_LIBRARY
        8        8                 PURPOSE: Munges the ENTDEF and ENTREF records in an object
        9        9                    file or lemur library so that (USE, MATERIALIZE, AVOID)
       10       10                    calling sequence types are changed to the corresponding
       11       11                    standard type.
       12       12           */
       13       13
       14       14           %INCLUDE CP_6;
       15     5574           %INCLUDE B$OBJECT_C;
       16     9004
       17     9005           %B$HEADKEY;
       18     9017           %B$OUKEY;
       19     9053           %B$OUHEAD;
       20     9171           %EQU ENTDEF_MAX = 20;
       21     9172           %B$EDEF (STCLASS="(0:%ENTDEF_MAX) STATIC");
       22     9242           %EQU ENTREF_MAX = 20;
       23     9243           %B$EREF (STCLASS="(0:%ENTREF_MAX) STATIC");
       24     9286           %SUB_CST;
       25     9302           %B$RECORDSUBS;
       26     9330    1      DCL NEXT_OU          SBIN;
       27     9331           %EQU OU_MAX = 1000;
       28     9332    1      DCL OU_UTS (0:%OU_MAX) SBIN;
       29     9333           %FPT_READ (FPTN=FPT_READ_HEAD,
       30     9334                      DCB=LIB,
       31     9335                      BUF=B$OUHEAD,
       32     9336                      KEY=B$HEADKEY,
       33     9337                      KEYR=YES);
       34     9376           %FPT_READ (FPTN=FPT_READ_EDEF,
       35     9377                      DCB=LIB,
       36     9378                      BUF=B$EDEF,
       37     9379                      KEY=B$OUKEY,
PL6.E3A0      #001=FIX_LIBRARY File=xbu_fix_library:6.:XBC3TSI                   FRI 01/06/95 11:13 Page:2
       38     9380                      KEYS=YES);
       39     9419           %FPT_WRITE (FPTN=FPT_WRITE_EDEF,
       40     9420                       DCB=LIB,
       41     9421                       BUF=B$EDEF,
       42     9422                       KEY=B$OUKEY,
       43     9423                       ONEWKEY=NO,
       44     9424                       NEWKEY=NO);
       45     9455           %FPT_READ (FPTN=FPT_READ_EREF,
       46     9456                      DCB=LIB,
       47     9457                      BUF=B$EREF,
       48     9458                      KEY=B$OUKEY,
       49     9459                      KEYS=YES);
       50     9498           %FPT_WRITE (FPTN=FPT_WRITE_EREF,
       51     9499                       DCB=LIB,
       52     9500                       BUF=B$EREF,
       53     9501                       KEY=B$OUKEY,
       54     9502                       ONEWKEY=NO,
       55     9503                       NEWKEY=NO);
       56     9534           %F$DCB;
       57     9591    1      DCL I                SBIN;
       58     9592    1      DCL J                SBIN;
       59     9593    1      DCL LIB              DCB;
       60     9594    1      DCL MAP_CST(0:15) SBIN CONSTANT INIT(0,1,2,3,4,0,6,2,3,4,10,11,12,13,14,15);
       61     9595
       62     9596           /* First, read all the head records and collect the UTS for
       63     9597              every object unit */
       64     9598
       65     9599    1      NEXT_OU = 0;
       66     9600    1   LOOP:
       67     9601    1      CALL M$READ (FPT_READ_HEAD);
       68     9602    2      IF B$HEADKEY.HFLAG = '042'O THEN DO;
       69     9603    2         IF NEXT_OU > %OU_MAX THEN CALL M$XXX;
       70     9604    2         OU_UTS (NEXT_OU) = B$OUHEAD.UTS;
       71     9605    2         NEXT_OU = NEXT_OU + 1;
       72     9606    2         GOTO LOOP;
       73     9607    2      END;
       74     9608
PL6.E3A0      #001=FIX_LIBRARY File=xbu_fix_library:6.:XBC3TSI                   FRI 01/06/95 11:13 Page:3
       75     9609           /* Initialize the fields in an object unit key that don't change */
       76     9610
       77     9611    1      B$OUKEY.KEYSIZ = 7;
       78     9612    1      B$OUKEY.NOTHD = '777'O;
       79     9613    1      B$OUKEY.PAGE = 0;
       80     9614
       81     9615           /* Fix the ENTDEF records.  Every object unit must have one. */
       82     9616
       83     9617    1      B$OUKEY.TYPE = %TYPEDEF;
       84     9618    2      DO I = 0 TO NEXT_OU - 1;
       85     9619    2         B$OUKEY.UTS = OU_UTS (I);
       86     9620    2         CALL M$READ (FPT_READ_EDEF);
       87     9621    3         DO J = 0 TO %ENTDEF_MAX;
       88     9622    3            B$EDEF.CST (J) = MAP_CST(B$EDEF.CST(J));
       89     9623    3            B$EDEF.CHECK (J) = '0'B;
       90     9624    3         END;
       91     9625    2         FPT_WRITE_EDEF.BUF_.BOUND = DCBADDR (DCBNUM (LIB)) -> F$DCB.ARS# - 1;
       92     9626    2         CALL M$WRITE (FPT_WRITE_EDEF);
       93     9627    2      END;
       94     9628
       95     9629           /* Fix the ENTREF records.  An object unit may not have an
       96     9630              ENTREF record.  */
       97     9631
       98     9632    1      B$OUKEY.TYPE = %TYPEREF;
       99     9633    2      DO I = 0 TO NEXT_OU - 1;
      100     9634    2         B$OUKEY.UTS = OU_UTS (I);
      101     9635    2         CALL M$READ (FPT_READ_EREF) ALTRET (GOON);
      102     9636    3         DO J = 0 TO %ENTREF_MAX;
      103     9637    3            B$EDEF.CST (J) = MAP_CST(B$EDEF.CST(J));
      104     9638    3         END;
      105     9639    2         FPT_WRITE_EREF.BUF_.BOUND = DCBADDR (DCBNUM (LIB)) -> F$DCB.ARS# - 1;
      106     9640    2         CALL M$WRITE (FPT_WRITE_EREF);
      107     9641    2   GOON:
      108     9642    2      END;
      109     9643    1   END FIX_LIBRARY;

PL6.E3A0      #001=FIX_LIBRARY File=xbu_fix_library:6.:XBC3TSI                   FRI 01/06/95 11:13 Page:4
--  Include file information  --

   B$OBJECT_C.:LIB_E04  is referenced.
   CP_6_C.:LIB_E04  is referenced.
   CP_6.:LIB_E04  cannot be made into a system file and is referenced.
      No diagnostics issued in procedure FIX_LIBRARY.

   Procedure FIX_LIBRARY requires 118 words for executable code.
   Procedure FIX_LIBRARY is declared NOAUTO and requires 1174 words of local(STATIC) storage.

    No errors detected in file xbu_fix_library:6.:XBC3TSI    .

PL6.E3A0      #001=FIX_LIBRARY File=xbu_fix_library:6.:XBC3TSI                   FRI 01/06/95 11:13 Page:5
          *** CROSS REFERENCE LISTING ***
**     DENOTES     IDENTIFIER DEFINITION
<<                 IDENTIFIER'S VALUE SET
>>                 IDENTIFIER'S VALUE USED
<>                 IDENTIFIER SET AND/OR USED
--                 IDENTIFIER REFERENCED
PL6.E3A0      #001=FIX_LIBRARY File=xbu_fix_library:6.:XBC3TSI                   FRI 01/06/95 11:13 Page:6
          MINI XREF LISTING

B$EDEF
      9173**DCL      9399--DCLINIT  9400--DCLINIT  9442--DCLINIT  9443--DCLINIT
B$EDEF.CHECK
      9211**DCL      9623<<ASSIGN
B$EDEF.CST
      9219**DCL      9622<<ASSIGN   9622>>ASSIGN   9637<<ASSIGN   9637>>ASSIGN
B$EDEF.OU
      9190**DCL      9196--REDEF
B$EREF
      9244**DCL      9478--DCLINIT  9479--DCLINIT  9521--DCLINIT  9522--DCLINIT
B$HEADKEY
      9006**DCL      9354--DCLINIT  9355--DCLINIT
B$HEADKEY.HFLAG
      9010**DCL      9602>>IF
B$OUHEAD
      9054**DCL      9356--DCLINIT  9357--DCLINIT
B$OUHEAD.UTS
      9055**DCL      9604>>ASSIGN
B$OUHEAD.VERSION
      9072**DCL      9074--REDEF
B$OUKEY
      9018**DCL      9397--DCLINIT  9398--DCLINIT  9441--DCLINIT  9476--DCLINIT  9477--DCLINIT  9520--DCLINIT
B$OUKEY.KEYSIZ
      9019**DCL      9611<<ASSIGN
B$OUKEY.NOTHD
      9022**DCL      9612<<ASSIGN
B$OUKEY.PAGE
      9045**DCL      9613<<ASSIGN
B$OUKEY.TYPE
      9027**DCL      9617<<ASSIGN   9632<<ASSIGN
B$OUKEY.UTS
      9024**DCL      9619<<ASSIGN   9634<<ASSIGN
PL6.E3A0      #001=FIX_LIBRARY File=xbu_fix_library:6.:XBC3TSI                   FRI 01/06/95 11:13 Page:7
F$DCB.ACTPOS
      9567**DCL      9567--REDEF
F$DCB.ARS#
      9541**DCL      9541--REDEF    9625>>ASSIGN   9639>>ASSIGN
F$DCB.ATTR
      9560**DCL      9561--REDEF
F$DCB.BORROW
      9575**DCL      9575--REDEF    9575--REDEF    9575--REDEF
F$DCB.DCBNAME.L
      9589**DCL      9589--IMP-SIZ
F$DCB.EOMCHAR#
      9545**DCL      9545--REDEF
F$DCB.FLDID
      9570**DCL      9570--REDEF
F$DCB.FORM$
      9564**DCL      9564--REDEF
F$DCB.FSECT
      9580**DCL      9580--REDEF
F$DCB.FSN#
      9557**DCL      9557--REDEF    9557--REDEF    9558--REDEF
F$DCB.HEADER$
      9563**DCL      9563--REDEF
F$DCB.IXTNSIZE#
      9561**DCL      9561--REDEF
F$DCB.LASTSTA$
      9550**DCL      9550--REDEF
F$DCB.LVL
      9576**DCL      9576--REDEF
F$DCB.NAME#.C
      9551**DCL      9551--REDEF
F$DCB.NOEOF
      9573**DCL      9573--REDEF
F$DCB.NRECS#
      9562**DCL      9562--REDEF
F$DCB.NRECX
      9581**DCL      9581--REDEF
PL6.E3A0      #001=FIX_LIBRARY File=xbu_fix_library:6.:XBC3TSI                   FRI 01/06/95 11:13 Page:8
F$DCB.OHDR
      9573**DCL      9573--REDEF
F$DCB.ORG#
      9556**DCL      9556--REDEF
F$DCB.PRECNO
      9579**DCL      9579--REDEF
F$DCB.RCSZ
      9585**DCL      9585--REDEF
F$DCB.RES#
      9552**DCL      9552--REDEF
F$DCB.SETX
      9564**DCL      9564--REDEF
F$DCB.TAB$
      9564**DCL      9564--REDEF
F$DCB.TDA
      9578**DCL      9579--REDEF
F$DCB.WSN#
      9552**DCL      9552--REDEF
FPT_READ_EDEF
      9397**DCL      9620<>CALL
FPT_READ_EDEF.STATION_
      9400**DCL      9401--REDEF
FPT_READ_EDEF.V
      9401**DCL      9397--DCLINIT
FPT_READ_EDEF.V.DVBYTE.REREAD#
      9412**DCL      9412--REDEF
FPT_READ_EDEF.V.INDX#
      9410**DCL      9410--REDEF
FPT_READ_EREF
      9476**DCL      9635<>CALL
FPT_READ_EREF.STATION_
      9479**DCL      9480--REDEF
FPT_READ_EREF.V
      9480**DCL      9476--DCLINIT
FPT_READ_EREF.V.DVBYTE.REREAD#
      9491**DCL      9491--REDEF
PL6.E3A0      #001=FIX_LIBRARY File=xbu_fix_library:6.:XBC3TSI                   FRI 01/06/95 11:13 Page:9
FPT_READ_EREF.V.INDX#
      9489**DCL      9489--REDEF
FPT_READ_HEAD
      9354**DCL      9601<>CALL
FPT_READ_HEAD.STATION_
      9357**DCL      9358--REDEF
FPT_READ_HEAD.V
      9358**DCL      9354--DCLINIT
FPT_READ_HEAD.V.DVBYTE.REREAD#
      9369**DCL      9369--REDEF
FPT_READ_HEAD.V.INDX#
      9367**DCL      9367--REDEF
FPT_WRITE_EDEF
      9441**DCL      9626<>CALL
FPT_WRITE_EDEF.BUF_.BOUND
      9441**DCL      9625<<ASSIGN
FPT_WRITE_EDEF.STATION_
      9443**DCL      9443--REDEF
FPT_WRITE_EDEF.V
      9444**DCL      9441--DCLINIT
FPT_WRITE_EDEF.V.DVBYTE.VFC#
      9450**DCL      9450--REDEF
FPT_WRITE_EREF
      9520**DCL      9640<>CALL
FPT_WRITE_EREF.BUF_.BOUND
      9520**DCL      9639<<ASSIGN
FPT_WRITE_EREF.STATION_
      9522**DCL      9522--REDEF
FPT_WRITE_EREF.V
      9523**DCL      9520--DCLINIT
FPT_WRITE_EREF.V.DVBYTE.VFC#
      9529**DCL      9529--REDEF
GOON
      9642**LABEL    9635--CALLALT
I
      9591**DCL      9618<<DOINDEX  9619>>ASSIGN   9633<<DOINDEX  9634>>ASSIGN
PL6.E3A0      #001=FIX_LIBRARY File=xbu_fix_library:6.:XBC3TSI                   FRI 01/06/95 11:13 Page:10
J
      9592**DCL      9621<<DOINDEX  9622>>ASSIGN   9622>>ASSIGN   9623>>ASSIGN   9636<<DOINDEX  9637>>ASSIGN
      9637>>ASSIGN
LIB
      9593**DCL      9625--ASSIGN   9639--ASSIGN
LOOP
      9601**LABEL    9606--GOTO
M$READ
      5503**DCL-ENT  9601--CALL     9620--CALL     9635--CALL
M$WRITE
      5503**DCL-ENT  9626--CALL     9640--CALL
M$XXX
      5514**DCL-ENT  9603--CALL
MAP_CST
      9594**DCL      9622>>ASSIGN   9637>>ASSIGN
NEXT_OU
      9330**DCL      9599<<ASSIGN   9603>>IF       9604>>ASSIGN   9605<<ASSIGN   9605>>ASSIGN   9618>>DOINDEX
      9633>>DOINDEX
OU_UTS
      9332**DCL      9604<<ASSIGN   9619>>ASSIGN   9634>>ASSIGN
