VERSION A01

PL6.E3A0      #001=XSC$COMMINIT File=XSC$ACSE.:XSA1TSI                           WED 10/01/97 11:51 Page:1
        1        1        /*M*    XSC$ACSE        ISO ACSE 'layer' (part of Application layer)    */
        2        2        /*T***********************************************************/
        3        3        /*T*                                                         */
        4        4        /*T* Copyright (c) Bull HN Information Systems Inc., 1997    */
        5        5        /*T*                                                         */
        6        6        /*T***********************************************************/
        7        7        /*X* DDA */
        8        8        /*F*    NAME:   XSC$COMMINIT
        9        9
       10       10                XSC$COMMINIT is called to set up a connection path through the
       11       11                layers.  The connection path is a set of connection contexts plus
       12       12                a DCB.  The DCB used for a connection is either the library-supplied
       13       13                M$XSS DCB or one allocated by the application before calling
       14       14                XSC$COMMINIT.
       15       15        */
       16       16        XSC$COMMINIT: PROC( CCB) ALTRET;
       17       17        %INCLUDE B_SEGIDS_C;
       18      556        %INCLUDE B$JIT_C;
       19      870            %B$JIT0;
       20      959            %U$JIT1X;
       21      962            %M$JIT2;
       22      972            %F$JIT3X;
       23      975            %S$JIT4X;
       24      978            %J$JIT5X;
       25      981            %A$JIT6X;
       26      984        %INCLUDE XSC_ACSE_E;
       27     1062        %INCLUDE XSC_ACSE_M;
       28     1371            %XSC_PRIMITIVES( STCLASS="CONSTANT SYMDEF");  /* const ACSE fpts here */
       29     1684        %INCLUDE K_ADDRESS_M;
       30     2187        %INCLUDE XSC_COMMON_M;
       31     2840            %XSC$CCB( NAME=CCB, STCLASS="");
       32     3137            %XSC$ADDRESS( NAME=XSC_SOURCE, STCLASS="STATIC SYMDEF");
       33     3420            %XSC$ADDRESS( NAME=XSC_TARGET, STCLASS="STATIC SYMDEF");
       34     3703        %INCLUDE XSC_INTERNAL_E;
       35     3791        %INCLUDE XSC_INTERNAL_M;
       36     4136            %XSC$CCTX( NAME=CCTX, STCLASS="BASED( CTX$)");
       37     4182        %INCLUDE UM_CP6;
PL6.E3A0      #001=XSC$COMMINIT File=XSC$ACSE.:XSA1TSI                           WED 10/01/97 11:51 Page:2
       38     5034        %MACRO ERRORDEF( NAME=XSC_ERROR, STCLASS="CONSTANT SYMDEF", LVL=1, LAST=";",
       39     5035                         ERR#=0, SEV=0);
       40     5036            %VLP_ERRCODE( FPTN=NAME, STCLASS=STCLASS, FCG='XS', MID='C',
       41     5037                          MON='0'B, ERR#=ERR#, SEV=SEV);
       42     5038        %MEND;
       43     5039        %INCLUDE XSC_PERR_C;
       44     5116            %ERRORDEF( NAME=XSC_E$RDONLYCCB, ERR#=%E$RDONLYCCB);
       45     5164            /*E*  ERROR:  XSC-E$RDONLYCCB-0
       46     5165                MESSAGE:  CCB is read-only; must be writeable.
       47     5166            */
       48     5167
       49     5168    1       DCL XSC$CTXPTR ENTRY(2) ALTRET;
       50     5169    1       DCL XSC$GETCTX ENTRY(2) ALTRET;
       51     5170    1       DCL XSC$RELCTX ENTRY(1) ALTRET;
       52     5171    1       DCL XSC$PRECV ENTRY(1) ALTRET;
       53     5172    1       DCL XSP$COMMINIT ENTRY(1) ALTRET;
       54     5173    1       DCL XSP$COMMTERM ENTRY(1) ALTRET;
       55     5174    1       DCL XSS$SCREECH ENTRY(1);
       56     5175
       57     5176    1       DCL B$JIT$ PTR SYMREF;
       58     5177
       59     5178    1       DCL CTX$ PTR;
       60     5179    1       DCL CCID SBIN;
       61     5180    1       DCL TEMP REDEF CCID SBIN;
       62     5181    1       DCL P PTR;
       63     5182    1       DCL 1 PX REDEF P,
       64     5183    1            2 OFFSET UBIN(18) UNAL,
       65     5184    1            2 * BIT(6) UNAL,
       66     5185    1            2 SEGID BIT(12) UNAL;
       67     5186        %EJECT;
PL6.E3A0      #001=XSC$COMMINIT File=XSC$ACSE.:XSA1TSI                           WED 10/01/97 11:51 Page:3
       68     5187    1       P = ADDR( CCB);
       69     5188    2       IF PX.SEGID = %ISSID THEN DO;
       70     5189    2           TEMP = 64 + PX.OFFSET / 1024;  /* page number of CCB's page */
       71     5190    3           IF TEMP >= B$JIT.PLL AND TEMP <= B$JIT.PUL THEN DO;
       72     5191                    /* user's CCB was allocated in constant storage */
       73     5192    3               IF CCB.ERROR = XSC_E$RDONLYCCB THEN
       74     5193    3                   ALTRETURN;
       75     5194    3               CALL XSS$SCREECH( XSC_E$RDONLYCCB);
       76     5195    3               END;
       77     5196    2           END;
       78     5197    1       CCB.ERROR = '0'B;
       79     5198            /* have Presentation initialize first */
       80     5199    1       CCB.PRES$ = ENTADDR( XSC$PRECV);
       81     5200    1       CALL XSP$COMMINIT( CCB) ALTRET( OOPS);
       82     5201    1       CCID = CCB.LCID;
       83     5202            /* allocate space for ACSE connection context */
       84     5203    1       CALL XSC$GETCTX( CTX$, CCID)
       85     5204    2       WHENALTRETURN DO;
       86     5205    2   OOPS:
       87     5206    2           ALTRETURN;
       88     5207    2           END;
       89     5208    1       IF CCB.FLAGS.CVALID THEN
       90     5209    1           CCTX.ENTRY$ = CCB.ACSE$;  /* save handler proc address */
       91     5210    1       RETURN;
       92     5211        %EJECT;
PL6.E3A0      #001=XSC$COMMINIT File=XSC$ACSE.:XSA1TSI                           WED 10/01/97 11:51 Page:4
       93     5212    1   XSC$COMMTERM: ENTRY( CCB) ALTRET;
       94     5213
       95     5214            /* point at ACSE connection context */
       96     5215    1       CCID = CCB.LCID;
       97     5216    1       CALL XSC$CTXPTR( CCID, CTX$) ALTRET( OOPS);
       98     5217            /* call Presentation to terminate */
       99     5218    1       CALL XSP$COMMTERM( CCB) ALTRET( OOPS);
      100     5219            /* release ACSE connection context */
      101     5220    1       CALL XSC$RELCTX( CTX$)
      102     5221    2       WHENALTRETURN DO;
      103     5222    2           END;
      104     5223    1       RETURN;
      105     5224
      106     5225    1       END XSC$COMMINIT;
      107     5226        %EOD;

PL6.E3A0      #001=XSC$COMMINIT File=XSC$ACSE.:XSA1TSI                           WED 10/01/97 11:51 Page:5
--  Include file information  --

   XSC_PERR_C.:XSA1TOU  is referenced.
   UM_CP6.:E05OU  is referenced.
   XSC_INTERNAL_M.:XSA1TOU  is referenced.
   XSC_INTERNAL_E.:XSA1TOU  is referenced.
   XSC_COMMON_M.:XSA1TOU  is referenced.
   K_ADDRESS_M.:LIB_E05  is referenced.
   XSC_ACSE_M.:XSA1TOU  is referenced.
   XSC_ACSE_E.:XSA1TOU  is referenced.
   B$JIT_C.:LIB_E05  is referenced.
   B_SEGIDS_C.:LIB_E05  is referenced.
      No diagnostics issued in procedure XSC$COMMINIT.

   Procedure XSC$COMMINIT requires 87 words for executable code.
   Procedure XSC$COMMINIT requires 10 words of local(AUTO) storage.

PL6.E3A0      #001=XSC$COMMINIT File=XSC$ACSE.:XSA1TSI                           WED 10/01/97 11:51 Page:6

 Object Unit name= XSC$COMMINIT                               File name= XSC$ACSE.:XSA1TOU
 UTS= OCT 01 '97 11:51:08.24 WED                              Compiler= PL-6/E31         Sev=      00
 SharedLib= :SHARED_SYSTEM                                    Alt SharedLib=


    ****  Control sections  ****

 Sect   Type Bound  Init  Size OctSiz  Section name(segment info)
    0  RoData even  UTS     38     46  XSC$COMMINIT
    1   Data  even  none   152    230  XSC$COMMINIT
    2   Proc  even  none    87    127  XSC$COMMINIT
    3  RoData even  none     3      3  XSC$COMMINIT

    ****  Entry defs  ****

                              Check   Calling
                             calling  sequence
  Sect OctLoc Primary Altret sequence   type   Parms  Name
     2      0   yes    yes     yes      Std        1  XSC$COMMINIT
     2     75          yes     yes      Std        1  XSC$COMMTERM

  ****  Data defs  ****

 Sect OctLoc  Name                           Sect OctLoc  Name
    0      0  XSC_GENERIC                        0     16  XSC_ASSOCIATE
    0     34  XSC_P_ABORT                        0     37  XSC_RELEASE
    0     42  XSC_U_ABORT                        1      0  XSC_SOURCE
    1    114  XSC_TARGET                         0     45  XSC_E$RDONLYCCB
PL6.E3A0      #001=XSC$COMMINIT File=XSC$ACSE.:XSA1TSI                           WED 10/01/97 11:51 Page:7

  ****  Entry refs  ****

         Check        Calling
        calling       sequence
Altret sequence SRef   type   Args  Name
         yes           Std       1 XSS$SCREECH
 yes     yes           Std       1 XSC$PRECV
 yes     yes           Std       1 XSP$COMMINIT
 yes     yes           Std       2 XSC$GETCTX
 yes     yes           Std       1 XSP$COMMTERM
 yes     yes           Std       1 XSC$RELCTX
 yes     yes           Std       2 XSC$CTXPTR
                       nStd      0 X66_AUTO_1
                       nStd      0 X66_AALT
                       nStd      0 X66_ARET

  ****  Data refs  ****

  Flags:  r = read only, s = secondary
Flgs Name                             Flgs Name                             Flgs Name
     B$JIT$

  ****  Segment refs  ****

  Flags:  r = read only, s = secondary
Flgs Name                             Flgs Name                             Flgs Name
     NULLSID                               ISSID
PL6.E3A0      #001=XSC$COMMINIT File=XSC$ACSE.:XSA1TSI                           WED 10/01/97 11:51 Page:8


        1        1        /*M*    XSC$ACSE        ISO ACSE 'layer' (part of Application layer)    */
        2        2        /*T***********************************************************/
        3        3        /*T*                                                         */
        4        4        /*T* Copyright (c) Bull HN Information Systems Inc., 1997    */
        5        5        /*T*                                                         */
        6        6        /*T***********************************************************/
        7        7        /*X* DDA */
        8        8        /*F*    NAME:   XSC$COMMINIT
        9        9
       10       10                XSC$COMMINIT is called to set up a connection path through the
       11       11                layers.  The connection path is a set of connection contexts plus
       12       12                a DCB.  The DCB used for a connection is either the library-supplied
       13       13                M$XSS DCB or one allocated by the application before calling
       14       14                XSC$COMMINIT.
       15       15        */
       16       16        XSC$COMMINIT: PROC( CCB) ALTRET;

     16  2 000000   000000 700200 xent  XSC$COMMINIT TSX0  ! X66_AUTO_1
         2 000001   000012 000001                    ZERO    10,1

       17       17        %INCLUDE B_SEGIDS_C;
       18      556        %INCLUDE B$JIT_C;
       19      870            %B$JIT0;
       20      959            %U$JIT1X;
       21      962            %M$JIT2;
       22      972            %F$JIT3X;
       23      975            %S$JIT4X;
       24      978            %J$JIT5X;
       25      981            %A$JIT6X;
       26      984        %INCLUDE XSC_ACSE_E;
       27     1062        %INCLUDE XSC_ACSE_M;
       28     1371            %XSC_PRIMITIVES( STCLASS="CONSTANT SYMDEF");  /* const ACSE fpts here */
       29     1684        %INCLUDE K_ADDRESS_M;
       30     2187        %INCLUDE XSC_COMMON_M;
       31     2840            %XSC$CCB( NAME=CCB, STCLASS="");
       32     3137            %XSC$ADDRESS( NAME=XSC_SOURCE, STCLASS="STATIC SYMDEF");
PL6.E3A0      #001=XSC$COMMINIT File=XSC$ACSE.:XSA1TSI                           WED 10/01/97 11:51 Page:9
       33     3420            %XSC$ADDRESS( NAME=XSC_TARGET, STCLASS="STATIC SYMDEF");
       34     3703        %INCLUDE XSC_INTERNAL_E;
       35     3791        %INCLUDE XSC_INTERNAL_M;
       36     4136            %XSC$CCTX( NAME=CCTX, STCLASS="BASED( CTX$)");
       37     4182        %INCLUDE UM_CP6;
       38     5034        %MACRO ERRORDEF( NAME=XSC_ERROR, STCLASS="CONSTANT SYMDEF", LVL=1, LAST=";",
       39     5035                         ERR#=0, SEV=0);
       40     5036            %VLP_ERRCODE( FPTN=NAME, STCLASS=STCLASS, FCG='XS', MID='C',
       41     5037                          MON='0'B, ERR#=ERR#, SEV=SEV);
       42     5038        %MEND;
       43     5039        %INCLUDE XSC_PERR_C;
       44     5116            %ERRORDEF( NAME=XSC_E$RDONLYCCB, ERR#=%E$RDONLYCCB);
       45     5164            /*E*  ERROR:  XSC-E$RDONLYCCB-0
       46     5165                MESSAGE:  CCB is read-only; must be writeable.
       47     5166            */
       48     5167
       49     5168    1       DCL XSC$CTXPTR ENTRY(2) ALTRET;
       50     5169    1       DCL XSC$GETCTX ENTRY(2) ALTRET;
       51     5170    1       DCL XSC$RELCTX ENTRY(1) ALTRET;
       52     5171    1       DCL XSC$PRECV ENTRY(1) ALTRET;
       53     5172    1       DCL XSP$COMMINIT ENTRY(1) ALTRET;
       54     5173    1       DCL XSP$COMMTERM ENTRY(1) ALTRET;
       55     5174    1       DCL XSS$SCREECH ENTRY(1);
       56     5175
       57     5176    1       DCL B$JIT$ PTR SYMREF;
       58     5177
       59     5178    1       DCL CTX$ PTR;
       60     5179    1       DCL CCID SBIN;
       61     5180    1       DCL TEMP REDEF CCID SBIN;
       62     5181    1       DCL P PTR;
       63     5182    1       DCL 1 PX REDEF P,
       64     5183    1            2 OFFSET UBIN(18) UNAL,
       65     5184    1            2 * BIT(6) UNAL,
       66     5185    1            2 SEGID BIT(12) UNAL;
       67     5186        %EJECT;
PL6.E3A0      #001=XSC$COMMINIT File=XSC$ACSE.:XSA1TSI                           WED 10/01/97 11:51 Page:10
       68     5187    1       P = ADDR( CCB);

   5187  2 000002   200003 236100                    LDQ     @CCB,,AUTO
         2 000003   200006 756100                    STQ     P,,AUTO

       69     5188    2       IF PX.SEGID = %ISSID THEN DO;

   5188  2 000004   200006 236100                    LDQ     P,,AUTO
         2 000005   007777 376007                    ANQ     4095,DL
         2 000006   006000 116007                    CMPQ    3072,DL
         2 000007   000037 601000 2                  TNZ     s:5197

       70     5189    2           TEMP = 64 + PX.OFFSET / 1024;  /* page number of CCB's page */

   5189  2 000010   200006 236100                    LDQ     P,,AUTO
         2 000011   000022 772000                    QRL     18
         2 000012   000012 772000                    QRL     10
         2 000013   000100 036007                    ADLQ    64,DL
         2 000014   200005 756100                    STQ     CCID,,AUTO

       71     5190    3           IF TEMP >= B$JIT.PLL AND TEMP <= B$JIT.PUL THEN DO;

   5190  2 000015   000000 470400 xsym               LDP0    B$JIT$
         2 000016   000176 236100                    LDQ     126,,PR0
         2 000017   000022 772000                    QRL     18
         2 000020   200005 116100                    CMPQ    CCID,,AUTO
         2 000021   000037 605400 2                  TPNZ    s:5197
         2 000022   000176 236100                    LDQ     126,,PR0
         2 000023   777777 376007                    ANQ     -1,DL
         2 000024   200005 116100                    CMPQ    CCID,,AUTO
         2 000025   000037 604000 2                  TMI     s:5197

       72     5191                    /* user's CCB was allocated in constant storage */
       73     5192    3               IF CCB.ERROR = XSC_E$RDONLYCCB THEN

   5192  2 000026   200003 471500                    LDP1    @CCB,,AUTO
         2 000027   100001 236100                    LDQ     1,,PR1
PL6.E3A0      #001=XSC$COMMINIT File=XSC$ACSE.:XSA1TSI                           WED 10/01/97 11:51 Page:11
         2 000030   000045 116000 0                  CMPQ    XSC_E$RDONLYCCB
         2 000031   000033 601000 2                  TNZ     s:5194

       74     5193    3                   ALTRETURN;

   5193  2 000032   000000 702200 xent               TSX2  ! X66_AALT

       75     5194    3               CALL XSS$SCREECH( XSC_E$RDONLYCCB);

   5194  2 000033   000001 630400 3                  EPPR0   1
         2 000034   000000 631400 3                  EPPR1   0
         2 000035   000000 701000 xent               TSX1    XSS$SCREECH
         2 000036   000000 011000                    NOP     0

       76     5195    3               END;

       77     5196    2           END;

       78     5197    1       CCB.ERROR = '0'B;

   5197  2 000037   200003 470500                    LDP0    @CCB,,AUTO
         2 000040   000001 450100                    STZ     1,,PR0

       79     5198            /* have Presentation initialize first */
       80     5199    1       CCB.PRES$ = ENTADDR( XSC$PRECV);

   5199  2 000041   000000 636000 xent               EAQ     XSC$PRECV
         2 000042   000011 756100                    STQ     9,,PR0

       81     5200    1       CALL XSP$COMMINIT( CCB) ALTRET( OOPS);

   5200  2 000043   200003 630500                    EPPR0   @CCB,,AUTO
         2 000044   000000 631400 3                  EPPR1   0
         2 000045   000000 701000 xent               TSX1    XSP$COMMINIT
         2 000046   000064 702000 2                  TSX2    OOPS

       82     5201    1       CCID = CCB.LCID;
PL6.E3A0      #001=XSC$COMMINIT File=XSC$ACSE.:XSA1TSI                           WED 10/01/97 11:51 Page:12

   5201  2 000047   200003 470500                    LDP0    @CCB,,AUTO
         2 000050   000000 236100                    LDQ     0,,PR0
         2 000051   000777 376007                    ANQ     511,DL
         2 000052   200005 756100                    STQ     CCID,,AUTO

       83     5202            /* allocate space for ACSE connection context */
       84     5203    1       CALL XSC$GETCTX( CTX$, CCID)

   5203  2 000053   200005 631500                    EPPR1   CCID,,AUTO
         2 000054   200011 451500                    STP1    P+3,,AUTO
         2 000055   200004 633500                    EPPR3   CTX$,,AUTO
         2 000056   200010 453500                    STP3    P+2,,AUTO
         2 000057   200010 630500                    EPPR0   P+2,,AUTO
         2 000060   000002 631400 3                  EPPR1   2
         2 000061   000000 701000 xent               TSX1    XSC$GETCTX
         2 000062   000064 702000 2                  TSX2    OOPS
         2 000063   000065 710000 2                  TRA     s:5208

       85     5204    2       WHENALTRETURN DO;

       86     5205    2   OOPS:
       87     5206    2           ALTRETURN;

   5206  2 000064   000000 702200 xent  OOPS         TSX2  ! X66_AALT

       88     5207    2           END;
       89     5208    1       IF CCB.FLAGS.CVALID THEN

   5208  2 000065   200003 470500                    LDP0    @CCB,,AUTO
         2 000066   000000 236100                    LDQ     0,,PR0
         2 000067   040000 316007                    CANQ    16384,DL
         2 000070   000074 600000 2                  TZE     s:5210

       90     5209    1           CCTX.ENTRY$ = CCB.ACSE$;  /* save handler proc address */

   5209  2 000071   000012 236100                    LDQ     10,,PR0
PL6.E3A0      #001=XSC$COMMINIT File=XSC$ACSE.:XSA1TSI                           WED 10/01/97 11:51 Page:13
         2 000072   200004 471500                    LDP1    CTX$,,AUTO
         2 000073   100001 756100                    STQ     1,,PR1

       91     5210    1       RETURN;

   5210  2 000074   000000 702200 xent               TSX2  ! X66_ARET

       92     5211        %EJECT;
PL6.E3A0      #001=XSC$COMMINIT File=XSC$ACSE.:XSA1TSI                           WED 10/01/97 11:51 Page:14
       93     5212    1   XSC$COMMTERM: ENTRY( CCB) ALTRET;

   5212  2 000075   000000 700200 xent  XSC$COMMTERM TSX0  ! X66_AUTO_1
         2 000076   000012 000001                    ZERO    10,1

       94     5213
       95     5214            /* point at ACSE connection context */
       96     5215    1       CCID = CCB.LCID;

   5215  2 000077   200003 470500                    LDP0    @CCB,,AUTO
         2 000100   000000 236100                    LDQ     0,,PR0
         2 000101   000777 376007                    ANQ     511,DL
         2 000102   200005 756100                    STQ     CCID,,AUTO

       97     5216    1       CALL XSC$CTXPTR( CCID, CTX$) ALTRET( OOPS);

   5216  2 000103   200004 631500                    EPPR1   CTX$,,AUTO
         2 000104   200011 451500                    STP1    P+3,,AUTO
         2 000105   200005 633500                    EPPR3   CCID,,AUTO
         2 000106   200010 453500                    STP3    P+2,,AUTO
         2 000107   200010 630500                    EPPR0   P+2,,AUTO
         2 000110   000002 631400 3                  EPPR1   2
         2 000111   000000 701000 xent               TSX1    XSC$CTXPTR
         2 000112   000064 702000 2                  TSX2    OOPS

       98     5217            /* call Presentation to terminate */
       99     5218    1       CALL XSP$COMMTERM( CCB) ALTRET( OOPS);

   5218  2 000113   200003 630500                    EPPR0   @CCB,,AUTO
         2 000114   000000 631400 3                  EPPR1   0
         2 000115   000000 701000 xent               TSX1    XSP$COMMTERM
         2 000116   000064 702000 2                  TSX2    OOPS

      100     5219            /* release ACSE connection context */
      101     5220    1       CALL XSC$RELCTX( CTX$)

   5220  2 000117   200004 630500                    EPPR0   CTX$,,AUTO
PL6.E3A0      #001=XSC$COMMINIT File=XSC$ACSE.:XSA1TSI                           WED 10/01/97 11:51 Page:15
         2 000120   200010 450500                    STP0    P+2,,AUTO
         2 000121   200010 630500                    EPPR0   P+2,,AUTO
         2 000122   000000 631400 3                  EPPR1   0
         2 000123   000000 701000 xent               TSX1    XSC$RELCTX
         2 000124   000126 702000 2                  TSX2    s:5223
         2 000125   000126 710000 2                  TRA     s:5223

      102     5221    2       WHENALTRETURN DO;

      103     5222    2           END;

      104     5223    1       RETURN;

   5223  2 000126   000000 702200 xent               TSX2  ! X66_ARET

(unnamed)
 Sect OctLoc
   0     000   000000 000000   302303 000200   000000 006014   000000 000000    ................
   0     004   000000 000000   000000 000000   000000 000000   000000 000000    ................
   0     014*  000000 000000   000000 000000   000000 000000   302303 000200    ................
   0     020   000000 006014   000000 006014   000000 006014   000000 006014    ................
   0     024   000000 000000   000000 000000   000000 006014   000000 006014    ................
   0     034*  013000 000000   302303 000200   000000 006014   000000 000000    ................
   0     040   302303 000200   000000 006014   011000 000000   302303 000200    ................
   0     044   000000 006014                                                    ....

XSC_E$RDONLYCCB
 Sect OctLoc
   0     045   302303 000170                                                    ...x

(unnamed)
 Sect OctLoc
   1     000   000040 040040   040040 040040   040040 040040   040040 040040    .
   1     004   040040 040040   040040 040040   040040 040040   040040 040040
   1     070*  040000 040040   040040 040040   040040 040040   040040 040040     .
   1     074   040040 ******   000000 040040   040040 040040   040040 040040      ....
   1     100   040040 040040   040040 040040   040040 040040   040040 040040
PL6.E3A0      #001=XSC$COMMINIT File=XSC$ACSE.:XSA1TSI                           WED 10/01/97 11:51 Page:16
   1     104   040040 040040   040040 ******   000067 000000   000000 000000          ...7......
   1     110   000000 000000   000000 000000   000000 000000   000000 ******    ................
   1     114   000040 040040   040040 040040   040040 040040   040040 040040    .
   1     120   040040 040040   040040 040040   040040 040040   040040 040040
   1     204*  040000 040040   040040 040040   040040 040040   040040 040040     .
   1     210   040040 ******   000000 040040   040040 040040   040040 040040      ....
   1     214   040040 040040   040040 040040   040040 040040   040040 040040
   1     220   040040 040040   040040 ******   000067 000000   000000 000000          ...7......
   1     224   000000 000000   000000 000000   000000 000000   000000 ******    ................

(unnamed)
 Sect OctLoc
   3     000   000001 000000   000045 006000   000002 000000                    .....%......
      105     5224
      106     5225    1       END XSC$COMMINIT;
      107     5226        %EOD;

PL6.E3A0      #001=XSC$COMMINIT File=XSC$ACSE.:XSA1TSI                           WED 10/01/97 11:51 Page:17
--  Include file information  --

   XSC_PERR_C.:XSA1TOU  is referenced.
   UM_CP6.:E05OU  is referenced.
   XSC_INTERNAL_M.:XSA1TOU  is referenced.
   XSC_INTERNAL_E.:XSA1TOU  is referenced.
   XSC_COMMON_M.:XSA1TOU  is referenced.
   K_ADDRESS_M.:LIB_E05  is referenced.
   XSC_ACSE_M.:XSA1TOU  is referenced.
   XSC_ACSE_E.:XSA1TOU  is referenced.
   B$JIT_C.:LIB_E05  is referenced.
   B_SEGIDS_C.:LIB_E05  is referenced.
      No diagnostics issued in procedure XSC$COMMINIT.
PL6.E3A0      #001=XSC$COMMINIT File=XSC$ACSE.:XSA1TSI                           WED 10/01/97 11:51 Page:18

 **** Variables and constants ****

  ****  Section 000 RoData XSC$COMMINIT

  ****  Scalars and arrays  ****
OctLoc.c.b A Datatyp(siz) R M Lvl/name                 OctLoc.c.b A Datatyp(siz) R M Lvl/name

    45-0-0/w STRC        r     1 XSC_E$RDONLYCCB

  ****  Auto variables  ****

  ****  Scalars and arrays  ****
OctLoc.c.b A Datatyp(siz) R M Lvl/name                 OctLoc.c.b A Datatyp(siz) R M Lvl/name

     3-0-0/w PTR         r     1 @CCB                      *0-0-0/w STRC(504)   r     1 CCB
     5-0-0/w SBIN        r     1 CCID                       4-0-0/w PTR         r     1 CTX$
     6-0-0/w PTR         r     1 P                          6-0-0/w STRC        r     1 PX
     5-0-0/w SBIN        r     1 TEMP

  ****  SYMREF variables  ****

  ****  Scalars and arrays  ****
OctLoc.c.b A Datatyp(siz) R M Lvl/name                 OctLoc.c.b A Datatyp(siz) R M Lvl/name

     0-0-0/w PTR         r     1 B$JIT$

  ****  BASED and DCB variables  ****

  ****  Scalars and arrays  ****
OctLoc.c.b A Datatyp(siz) R M Lvl/name                 OctLoc.c.b A Datatyp(siz) R M Lvl/name

     0-0-0/d STRC(8856)  r     1 B$JIT                      0-0-0/w STRC(216)   r     1 CCTX


   Procedure XSC$COMMINIT requires 87 words for executable code.
   Procedure XSC$COMMINIT requires 10 words of local(AUTO) storage.
PL6.E3A0      #001=XSC$COMMINIT File=XSC$ACSE.:XSA1TSI                           WED 10/01/97 11:51 Page:19
          *** CROSS REFERENCE LISTING ***
**     DENOTES     IDENTIFIER DEFINITION
<<                 IDENTIFIER'S VALUE SET
>>                 IDENTIFIER'S VALUE USED
<>                 IDENTIFIER SET AND/OR USED
--                 IDENTIFIER REFERENCED
PL6.E3A0      #001=XSC$COMMINIT File=XSC$ACSE.:XSA1TSI                           WED 10/01/97 11:51 Page:20
          MINI XREF LISTING

B$JIT.ERR.MID
       877**DCL       877--REDEF
B$JIT.JRESPEAK
       967**DCL       968--REDEF
B$JIT.PLL
       963**DCL      5190>>IF
B$JIT.PUL
       963**DCL      5190>>IF
B$JIT$
      5176**DCL       871--IMP-PTR  5190>>IF       5190>>IF
CCB
      2857**DCL        16--PROC     5187--ASSIGN   5200<>CALL     5212--ENTRY    5218<>CALL
CCB.ACSE$
      3119**DCL      5209>>ASSIGN
CCB.ERRDEF
      2964**DCL      2984--REDEF
CCB.ERROR
      2984**DCL      5192>>IF       5197<<ASSIGN
CCB.FLAGS.CVALID
      2920**DCL      5208>>IF
CCB.LCID
      2956**DCL      5201>>ASSIGN   5215>>ASSIGN
CCB.PRES$
      3107**DCL      5199<<ASSIGN
CCID
      5179**DCL      5180--REDEF    5201<<ASSIGN   5203<>CALL     5215<<ASSIGN   5216<>CALL
CCTX.ENTRY$
      4176**DCL      5209<<ASSIGN
CCTX.HISTZ
      4177**DCL      4178--REDEF
CTX$
      5178**DCL      4153--IMP-PTR  5203<>CALL     5209>>ASSIGN   5216<>CALL     5220<>CALL
PL6.E3A0      #001=XSC$COMMINIT File=XSC$ACSE.:XSA1TSI                           WED 10/01/97 11:51 Page:21
OOPS
      5206**LABEL    5200--CALLALT  5216--CALLALT  5218--CALLALT
P
      5181**DCL      5182--REDEF    5187<<ASSIGN
PX.OFFSET
      5183**DCL      5189>>ASSIGN
PX.SEGID
      5185**DCL      5188>>IF
TEMP
      5180**DCL      5189<<ASSIGN   5190>>IF       5190>>IF
XSC$CTXPTR
      5168**DCL-ENT  5216--CALL
XSC$GETCTX
      5169**DCL-ENT  5203--CALL
XSC$PRECV
      5171**DCL-ENT  5199--ASSIGN
XSC$RELCTX
      5170**DCL-ENT  5220--CALL
XSC_ASSOCIATE.ERRDEF
      1463**DCL      1483--REDEF
XSC_E$RDONLYCCB
      5130**DCL      5192>>IF       5194<>CALL
XSC_GENERIC.ERRDEF
      1398**DCL      1418--REDEF
XSC_P_ABORT.ERRDEF
      1533**DCL      1553--REDEF
XSC_RELEASE.ERRDEF
      1592**DCL      1612--REDEF
XSC_SOURCE.NSAP.ADDRESS_N
      3415**DCL      3416--REDEF
XSC_TARGET.NSAP.ADDRESS_N
      3698**DCL      3699--REDEF
XSC_U_ABORT.ERRDEF
      1651**DCL      1671--REDEF
XSP$COMMINIT
      5172**DCL-ENT  5200--CALL
PL6.E3A0      #001=XSC$COMMINIT File=XSC$ACSE.:XSA1TSI                           WED 10/01/97 11:51 Page:22
XSP$COMMTERM
      5173**DCL-ENT  5218--CALL
XSS$SCREECH
      5174**DCL-ENT  5194--CALL
PL6.E3A0      #001=XSC$COMMINIT File=XSC$ACSE.:XSA1TSI                           WED 10/01/97 11:51 Page:23
              *** CROSS REFERENCE LISTING ***
    **     DENOTES     IDENTIFIER DEFINITION
    <<                 IDENTIFIER'S VALUE SET
    >>                 IDENTIFIER'S VALUE USED
    <>                 IDENTIFIER SET AND/OR USED
    --                 IDENTIFIER REFERENCED
PL6.E3A0      #001=XSC$COMMINIT File=XSC$ACSE.:XSA1TSI                           WED 10/01/97 11:51 Page:24
              MINI UREF LISTING

XSC$COMMINIT      16**PROC
XSC$COMMTERM    5212**ENTRY

PL6.E3A0      #002=XSC$GETCTX File=XSC$ACSE.:XSA1TSI                             WED 10/01/97 11:51 Page:25
      108        1        /*T***********************************************************/
      109        2        /*T*                                                         */
      110        3        /*T* Copyright (c) Bull HN Information Systems Inc., 1997    */
      111        4        /*T*                                                         */
      112        5        /*T***********************************************************/
      113        6        /*F*    NAME:   XSC$GETCTX
      114        7
      115        8                XSC$GETCTX is called to obtain a new ACSE context block.
      116        9                The parameter CTX$ is set to point at the newly allocated context
      117       10                block.  The optional parameter CCID specifies the connection id
      118       11                to use if known in advance, i.e., for incoming connections.
      119       12        */
      120       13        XSC$GETCTX: PROC( CTX$, CCID) ALTRET;
      121       14        %INCLUDE XSC_ACSE_E;
      122       92        %INCLUDE XSC_INTERNAL_E;
      123      180        %INCLUDE XSC_INTERNAL_M;
      124      525            %XSC$CCTX( NAME=CCTX, STCLASS="BASED( CTX$)");
      125      571            %XSC$CCTX( NAME=XSC_CCTX, STCLASS="CONSTANT SYMDEF");
      126      617        %INCLUDE XSS_INTERNAL_M;
      127     1206            %XSS$MEMBLK( NAME=B$BLOCK);
      128     1244
      129     1245    1       DCL XSS$BUFPTR ENTRY(2) ALTRET;
      130     1246    1       DCL XSS$GETMEM ENTRY(3) ALTRET;
      131     1247    1       DCL XSS$RELMEM ENTRY(1) ALTRET;
      132     1248
      133     1249    1       DCL XSS_MAX_LCID SBIN SYMREF;
      134     1250
      135     1251    1       DCL XSC_MAPCCID$ PTR INIT( ADDR( NIL)) STATIC SYMDEF;
      136     1252
      137     1253    1       DCL BLKX UBIN HALF HALIGNED;
      138     1254    1       DCL CCID SBIN;
      139     1255    1       DCL CTXINITED BIT(1) STATIC INIT( %FALSE);  /* set iff CTX array init'd */
      140     1256    1       DCL CTX$ PTR;
      141     1257    1       DCL I SBIN;
      142     1258    1       DCL LASTGET SBIN STATIC;
      143     1259    1       DCL MAPCCID(0:0) UBIN HALF BASED( XSC_MAPCCID$) HALIGNED;
      144     1260    1       DCL TMP$ PTR;
PL6.E3A0      #002=XSC$GETCTX File=XSC$ACSE.:XSA1TSI                             WED 10/01/97 11:51 Page:26
      145     1261        %EJECT;
PL6.E3A0      #002=XSC$GETCTX File=XSC$ACSE.:XSA1TSI                             WED 10/01/97 11:51 Page:27
      146     1262    2       IF NOT CTXINITED THEN DO;
      147     1263                /* figure out how many bytes to allocate for MAPCCID array */
      148     1264    2           I = 2 * ( 1 + XSS_MAX_LCID);
      149     1265                /* allocate the space and set it up */
      150     1266    2           CALL XSS$GETMEM( BLKX, XSC_MAPCCID$, I) ALTRET( OOPS);
      151     1267    3           DO I = 1 TO XSS_MAX_LCID;
      152     1268    3               MAPCCID( I) = %NULL;
      153     1269    3               END;
      154     1270    2           MAPCCID( 0) = 0;  /* unused */
      155     1271    2           LASTGET = XSS_MAX_LCID;
      156     1272    2           CTXINITED = %TRUE;
      157     1273    2           END;
      158     1274            /* allocate space for the context block */
      159     1275    1       CALL XSS$GETMEM( BLKX, CTX$, SIZEC( CCTX)) ALTRET( OOPS);
      160     1276            /* if connection id specified, try to use it */
      161     1277    2       IF ADDR( CCID) ~= ADDR( NIL) THEN DO;
      162     1278    2           I = CCID;
      163     1279    2           IF MAPCCID( I) = %NULL THEN
      164     1280    2               GOTO FOUND;
      165     1281    2           GOTO NOPE;
      166     1282    2           END;
      167     1283            /* find a free slot with aid of roving pointer */
      168     1284    1       I = LASTGET;
      169     1285    1   LOOP:
      170     1286    2       DO WHILE( %TRUE);
      171     1287    2           I = I + 1;
      172     1288    2           IF I > XSS_MAX_LCID THEN
      173     1289    2               I = 1;
      174     1290    3           IF I = LASTGET THEN DO;
      175     1291                    /* We cycled through all the slots and none were free */
      176     1292    3   NOPE:
      177     1293    3               CALL XSS$RELMEM( BLKX);
      178     1294    3               CTX$ = ADDR( NIL);
      179     1295    3   OOPS:
      180     1296    3               ALTRETURN;
      181     1297    3               END;
      182     1298    2           IF MAPCCID( I) = %NULL THEN
PL6.E3A0      #002=XSC$GETCTX File=XSC$ACSE.:XSA1TSI                             WED 10/01/97 11:51 Page:28
      183     1299    2               EXIT LOOP;
      184     1300    2           END;
      185     1301            /* found a free slot */
      186     1302    1   FOUND:
      187     1303    1       MAPCCID( I) = BLKX;
      188     1304    1       CALL XSS$BUFPTR( BLKX, CTX$);  /* now point at buffer within mem blk */
      189     1305    1       CCTX = XSC_CCTX;
      190     1306    1       CCTX.CCID = I;
      191     1307    1       CCTX.STATE = %XSC_CST_0;  /* idle, unassociated */
      192     1308            /* update roving pointer for next time */
      193     1309    1       LASTGET = I;
      194     1310    1       RETURN;
      195     1311        %EJECT;
PL6.E3A0      #002=XSC$GETCTX File=XSC$ACSE.:XSA1TSI                             WED 10/01/97 11:51 Page:29
      196     1312        /*F*    NAME:   XSC$RELCTX
      197     1313
      198     1314                XSC$RELCTX is called to release an ACSE connection context block.
      199     1315                The parameter CTX$ points at the context block to release.
      200     1316        */
      201     1317    1   XSC$RELCTX: ENTRY( CTX$) ALTRET;
      202     1318
      203     1319    1       I = CCTX.CCID;
      204     1320            /* consistency checks */
      205     1321    1       BLKX = MAPCCID( I);
      206     1322    1       IF BLKX = %NULL THEN
      207     1323    1           ALTRETURN;
      208     1324    1       TMP$ = PINCRW( CTX$, -2);  /*N* note hardwired B$BLOCK size here */
      209     1325    1       IF BLKX ~= TMP$->B$BLOCK.BLKX THEN
      210     1326    1           ALTRETURN;
      211     1327            /* looks good.. release context block */
      212     1328    1       CALL XSS$RELMEM( BLKX) ALTRET( OOPS);
      213     1329    1       MAPCCID( I) = %NULL;
      214     1330    1       RETURN;
      215     1331
      216     1332    1       END XSC$GETCTX;
      217     1333        %EOD;

PL6.E3A0      #002=XSC$GETCTX File=XSC$ACSE.:XSA1TSI                             WED 10/01/97 11:51 Page:30
--  Include file information  --

   XSS_INTERNAL_M.:XSA1TOU  is referenced.
   XSC_INTERNAL_M.:XSA1TOU  is referenced.
   XSC_INTERNAL_E.:XSA1TOU  is referenced.
   XSC_ACSE_E.:XSA1TOU  is referenced.
      No diagnostics issued in procedure XSC$GETCTX.

   Procedure XSC$GETCTX requires 161 words for executable code.
   Procedure XSC$GETCTX requires 12 words of local(AUTO) storage.

PL6.E3A0      #002=XSC$GETCTX File=XSC$ACSE.:XSA1TSI                             WED 10/01/97 11:51 Page:31

 Object Unit name= XSC$GETCTX                                 File name= XSC$ACSE.:XSA1TOU
 UTS= OCT 01 '97 11:51:39.64 WED                              Compiler= PL-6/E31         Sev=      00
 SharedLib= :SHARED_SYSTEM                                    Alt SharedLib=


    ****  Control sections  ****

 Sect   Type Bound  Init  Size OctSiz  Section name(segment info)
    0  RoData even  UTS      6      6  XSC$GETCTX
    1   Data  even  none     3      3  XSC$GETCTX
    2   Proc  even  none   161    241  XSC$GETCTX
    3  RoData even  none     9     11  XSC$GETCTX

    ****  Entry defs  ****

                              Check   Calling
                             calling  sequence
  Sect OctLoc Primary Altret sequence   type   Parms  Name
     2      0   yes    yes     yes      Std        2  XSC$GETCTX
     2    172          yes     yes      Std        1  XSC$RELCTX

  ****  Data defs  ****

 Sect OctLoc  Name                           Sect OctLoc  Name
    0      0  XSC_CCTX                           1      0  XSC_MAPCCID$

  ****  Entry refs  ****

         Check        Calling
        calling       sequence
Altret sequence SRef   type   Args  Name
 yes     yes           Std       3 XSS$GETMEM
 yes     yes           Std       1 XSS$RELMEM
 yes     yes           Std       2 XSS$BUFPTR
                       nStd      0 X66_AUTO_2
                       nStd      0 X66_AALT
                       nStd      0 X66_ARET
PL6.E3A0      #002=XSC$GETCTX File=XSC$ACSE.:XSA1TSI                             WED 10/01/97 11:51 Page:32

  ****  Data refs  ****

  Flags:  r = read only, s = secondary
Flgs Name                             Flgs Name                             Flgs Name
     XSS_MAX_LCID

  ****  Segment refs  ****

  Flags:  r = read only, s = secondary
Flgs Name                             Flgs Name                             Flgs Name
     NULLSID                               ISSID
PL6.E3A0      #002=XSC$GETCTX File=XSC$ACSE.:XSA1TSI                             WED 10/01/97 11:51 Page:33


      108        1        /*T***********************************************************/
      109        2        /*T*                                                         */
      110        3        /*T* Copyright (c) Bull HN Information Systems Inc., 1997    */
      111        4        /*T*                                                         */
      112        5        /*T***********************************************************/
      113        6        /*F*    NAME:   XSC$GETCTX
      114        7
      115        8                XSC$GETCTX is called to obtain a new ACSE context block.
      116        9                The parameter CTX$ is set to point at the newly allocated context
      117       10                block.  The optional parameter CCID specifies the connection id
      118       11                to use if known in advance, i.e., for incoming connections.
      119       12        */
      120       13        XSC$GETCTX: PROC( CTX$, CCID) ALTRET;

     13  2 000000   000000 700200 xent  XSC$GETCTX   TSX0  ! X66_AUTO_2
         2 000001   000014 000002                    ZERO    12,2

      121       14        %INCLUDE XSC_ACSE_E;
      122       92        %INCLUDE XSC_INTERNAL_E;
      123      180        %INCLUDE XSC_INTERNAL_M;
      124      525            %XSC$CCTX( NAME=CCTX, STCLASS="BASED( CTX$)");
      125      571            %XSC$CCTX( NAME=XSC_CCTX, STCLASS="CONSTANT SYMDEF");
      126      617        %INCLUDE XSS_INTERNAL_M;
      127     1206            %XSS$MEMBLK( NAME=B$BLOCK);
      128     1244
      129     1245    1       DCL XSS$BUFPTR ENTRY(2) ALTRET;
      130     1246    1       DCL XSS$GETMEM ENTRY(3) ALTRET;
      131     1247    1       DCL XSS$RELMEM ENTRY(1) ALTRET;
      132     1248
      133     1249    1       DCL XSS_MAX_LCID SBIN SYMREF;
      134     1250
      135     1251    1       DCL XSC_MAPCCID$ PTR INIT( ADDR( NIL)) STATIC SYMDEF;
      136     1252
      137     1253    1       DCL BLKX UBIN HALF HALIGNED;
      138     1254    1       DCL CCID SBIN;
      139     1255    1       DCL CTXINITED BIT(1) STATIC INIT( %FALSE);  /* set iff CTX array init'd */
PL6.E3A0      #002=XSC$GETCTX File=XSC$ACSE.:XSA1TSI                             WED 10/01/97 11:51 Page:34
      140     1256    1       DCL CTX$ PTR;
      141     1257    1       DCL I SBIN;
      142     1258    1       DCL LASTGET SBIN STATIC;
      143     1259    1       DCL MAPCCID(0:0) UBIN HALF BASED( XSC_MAPCCID$) HALIGNED;
      144     1260    1       DCL TMP$ PTR;
      145     1261        %EJECT;
PL6.E3A0      #002=XSC$GETCTX File=XSC$ACSE.:XSA1TSI                             WED 10/01/97 11:51 Page:35
      146     1262    2       IF NOT CTXINITED THEN DO;

   1262  2 000002   000001 234000 1                  SZN     CTXINITED
         2 000003   000047 604000 2                  TMI     s:1275

      147     1263                /* figure out how many bytes to allocate for MAPCCID array */
      148     1264    2           I = 2 * ( 1 + XSS_MAX_LCID);

   1264  2 000004   000000 235000 xsym               LDA     XSS_MAX_LCID
         2 000005   000001 735000                    ALS     1
         2 000006   000002 035007                    ADLA    2,DL
         2 000007   200006 755100                    STA     I,,AUTO

      149     1265                /* allocate the space and set it up */
      150     1266    2           CALL XSS$GETMEM( BLKX, XSC_MAPCCID$, I) ALTRET( OOPS);

   1266  2 000010   200006 630500                    EPPR0   I,,AUTO
         2 000011   200012 450500                    STP0    TMP$+3,,AUTO
         2 000012   000001 236000 3                  LDQ     1
         2 000013   200011 756100                    STQ     TMP$+2,,AUTO
         2 000014   200005 631500                    EPPR1   BLKX,,AUTO
         2 000015   200010 451500                    STP1    TMP$+1,,AUTO
         2 000016   200010 630500                    EPPR0   TMP$+1,,AUTO
         2 000017   000000 631400 3                  EPPR1   0
         2 000020   000000 701000 xent               TSX1    XSS$GETMEM
         2 000021   000124 702000 2                  TSX2    OOPS

      151     1267    3           DO I = 1 TO XSS_MAX_LCID;

   1267  2 000022   000001 235007                    LDA     1,DL
         2 000023   200006 755100                    STA     I,,AUTO
         2 000024   000034 710000 2                  TRA     s:1269+1

      152     1268    3               MAPCCID( I) = %NULL;

   1268  2 000025   200006 235100                    LDA     I,,AUTO
         2 000026   000001 735000                    ALS     1
PL6.E3A0      #002=XSC$GETCTX File=XSC$ACSE.:XSA1TSI                             WED 10/01/97 11:51 Page:36
         2 000027   000000 470400 1                  LDP0    XSC_MAPCCID$
         2 000030   000105 101400                    MRL     fill='000'O
         2 000031   000002 000004 3                  ADSC9   2                        cn=0,n=4
         2 000032   000000 000002                    ADSC9   0,A,PR0                  cn=0,n=2

      153     1269    3               END;

   1269  2 000033   200006 054100                    AOS     I,,AUTO
         2 000034   200006 236100                    LDQ     I,,AUTO
         2 000035   000000 116000 xsym               CMPQ    XSS_MAX_LCID
         2 000036   000025 604400 2                  TMOZ    s:1268

      154     1270    2           MAPCCID( 0) = 0;  /* unused */

   1270  2 000037   000000 470400 1                  LDP0    XSC_MAPCCID$
         2 000040   000100 101400                    MRL     fill='000'O
         2 000041   000003 000004 3                  ADSC9   3                        cn=0,n=4
         2 000042   000000 000002                    ADSC9   0,,PR0                   cn=0,n=2

      155     1271    2           LASTGET = XSS_MAX_LCID;

   1271  2 000043   000000 235000 xsym               LDA     XSS_MAX_LCID
         2 000044   000002 755000 1                  STA     LASTGET

      156     1272    2           CTXINITED = %TRUE;

   1272  2 000045   400000 236003                    LDQ     -131072,DU
         2 000046   000001 756000 1                  STQ     CTXINITED

      157     1273    2           END;

      158     1274            /* allocate space for the context block */
      159     1275    1       CALL XSS$GETMEM( BLKX, CTX$, SIZEC( CCTX)) ALTRET( OOPS);

   1275  2 000047   000006 236000 3                  LDQ     6
         2 000050   200012 756100                    STQ     TMP$+3,,AUTO
         2 000051   200003 236100                    LDQ     @CTX$,,AUTO
PL6.E3A0      #002=XSC$GETCTX File=XSC$ACSE.:XSA1TSI                             WED 10/01/97 11:51 Page:37
         2 000052   200011 756100                    STQ     TMP$+2,,AUTO
         2 000053   200005 630500                    EPPR0   BLKX,,AUTO
         2 000054   200010 450500                    STP0    TMP$+1,,AUTO
         2 000055   200010 630500                    EPPR0   TMP$+1,,AUTO
         2 000056   000000 631400 3                  EPPR1   0
         2 000057   000000 701000 xent               TSX1    XSS$GETMEM
         2 000060   000124 702000 2                  TSX2    OOPS

      160     1276            /* if connection id specified, try to use it */
      161     1277    2       IF ADDR( CCID) ~= ADDR( NIL) THEN DO;

   1277  2 000061   200004 236100                    LDQ     @CCID,,AUTO
         2 000062   000004 116000 3                  CMPQ    4
         2 000063   000100 600000 2                  TZE     s:1284

      162     1278    2           I = CCID;

   1278  2 000064   200004 470500                    LDP0    @CCID,,AUTO
         2 000065   000000 235100                    LDA     0,,PR0
         2 000066   200006 755100                    STA     I,,AUTO

      163     1279    2           IF MAPCCID( I) = %NULL THEN

   1279  2 000067   000001 735000                    ALS     1
         2 000070   000000 471400 1                  LDP1    XSC_MAPCCID$
         2 000071   000100 101505                    MRL     fill='000'O
         2 000072   100000 000002                    ADSC9   0,A,PR1                  cn=0,n=2
         2 000073   200010 000004                    ADSC9   TMP$+1,,AUTO             cn=0,n=4
         2 000074   200010 236100                    LDQ     TMP$+1,,AUTO
         2 000075   777777 116007                    CMPQ    -1,DL
         2 000076   000137 600000 2                  TZE     FOUND

      164     1280    2               GOTO FOUND;
      165     1281    2           GOTO NOPE;

   1281  2 000077   000113 710000 2                  TRA     NOPE

PL6.E3A0      #002=XSC$GETCTX File=XSC$ACSE.:XSA1TSI                             WED 10/01/97 11:51 Page:38
      166     1282    2           END;
      167     1283            /* find a free slot with aid of roving pointer */
      168     1284    1       I = LASTGET;

   1284  2 000100   000002 235000 1                  LDA     LASTGET
         2 000101   200006 755100                    STA     I,,AUTO

      169     1285    1   LOOP:
      170     1286    2       DO WHILE( %TRUE);

   1286  2 000102                       LOOP         null
      171     1287    2           I = I + 1;

   1287  2 000102   200006 054100                    AOS     I,,AUTO

      172     1288    2           IF I > XSS_MAX_LCID THEN

   1288  2 000103   200006 236100                    LDQ     I,,AUTO
         2 000104   000000 116000 xsym               CMPQ    XSS_MAX_LCID
         2 000105   000110 604400 2                  TMOZ    s:1290

      173     1289    2               I = 1;

   1289  2 000106   000001 235007                    LDA     1,DL
         2 000107   200006 755100                    STA     I,,AUTO

      174     1290    3           IF I = LASTGET THEN DO;

   1290  2 000110   200006 236100                    LDQ     I,,AUTO
         2 000111   000002 116000 1                  CMPQ    LASTGET
         2 000112   000125 601000 2                  TNZ     s:1298

      175     1291                    /* We cycled through all the slots and none were free */
      176     1292    3   NOPE:
      177     1293    3               CALL XSS$RELMEM( BLKX);

   1293  2 000113   200005 630500       NOPE         EPPR0   BLKX,,AUTO
PL6.E3A0      #002=XSC$GETCTX File=XSC$ACSE.:XSA1TSI                             WED 10/01/97 11:51 Page:39
         2 000114   200010 450500                    STP0    TMP$+1,,AUTO
         2 000115   200010 630500                    EPPR0   TMP$+1,,AUTO
         2 000116   000007 631400 3                  EPPR1   7
         2 000117   000000 701000 xent               TSX1    XSS$RELMEM
         2 000120   000000 011000                    NOP     0

      178     1294    3               CTX$ = ADDR( NIL);

   1294  2 000121   000004 236000 3                  LDQ     4
         2 000122   200003 470500                    LDP0    @CTX$,,AUTO
         2 000123   000000 756100                    STQ     0,,PR0

      179     1295    3   OOPS:
      180     1296    3               ALTRETURN;

   1296  2 000124   000000 702200 xent  OOPS         TSX2  ! X66_AALT

      181     1297    3               END;
      182     1298    2           IF MAPCCID( I) = %NULL THEN

   1298  2 000125   200006 235100                    LDA     I,,AUTO
         2 000126   000001 735000                    ALS     1
         2 000127   000000 470400 1                  LDP0    XSC_MAPCCID$
         2 000130   000100 101505                    MRL     fill='000'O
         2 000131   000000 000002                    ADSC9   0,A,PR0                  cn=0,n=2
         2 000132   200010 000004                    ADSC9   TMP$+1,,AUTO             cn=0,n=4
         2 000133   200010 236100                    LDQ     TMP$+1,,AUTO
         2 000134   777777 116007                    CMPQ    -1,DL
         2 000135   000137 600000 2                  TZE     FOUND

      183     1299    2               EXIT LOOP;
      184     1300    2           END;

   1300  2 000136   000102 710000 2                  TRA     LOOP

      185     1301            /* found a free slot */
      186     1302    1   FOUND:
PL6.E3A0      #002=XSC$GETCTX File=XSC$ACSE.:XSA1TSI                             WED 10/01/97 11:51 Page:40
      187     1303    1       MAPCCID( I) = BLKX;

   1303  2 000137   000000 470400 1     FOUND        LDP0    XSC_MAPCCID$
         2 000140   000105 100500                    MLR     fill='000'O
         2 000141   200005 000002                    ADSC9   BLKX,,AUTO               cn=0,n=2
         2 000142   000000 000002                    ADSC9   0,A,PR0                  cn=0,n=2

      188     1304    1       CALL XSS$BUFPTR( BLKX, CTX$);  /* now point at buffer within mem blk */

   1304  2 000143   200003 236100                    LDQ     @CTX$,,AUTO
         2 000144   200011 756100                    STQ     TMP$+2,,AUTO
         2 000145   200005 630500                    EPPR0   BLKX,,AUTO
         2 000146   200010 450500                    STP0    TMP$+1,,AUTO
         2 000147   200010 630500                    EPPR0   TMP$+1,,AUTO
         2 000150   000010 631400 3                  EPPR1   8
         2 000151   000000 701000 xent               TSX1    XSS$BUFPTR
         2 000152   000000 011000                    NOP     0

      189     1305    1       CCTX = XSC_CCTX;

   1305  2 000153   200003 470500                    LDP0    @CTX$,,AUTO
         2 000154   000000 471500                    LDP1    0,,PR0
         2 000155   000100 100400                    MLR     fill='000'O
         2 000156   000000 000030 0                  ADSC9   XSC_CCTX                 cn=0,n=24
         2 000157   100000 000030                    ADSC9   0,,PR1                   cn=0,n=24

      190     1306    1       CCTX.CCID = I;

   1306  2 000160   000000 471500                    LDP1    0,,PR0
         2 000161   200006 236100                    LDQ     I,,AUTO
         2 000162   000011 736000                    QLS     9
         2 000163   100000 552110                    STBQ    0,'10'O,PR1

      191     1307    1       CCTX.STATE = %XSC_CST_0;  /* idle, unassociated */

   1307  2 000164   000000 471500                    LDP1    0,,PR0
         2 000165   000000 236003                    LDQ     0,DU
PL6.E3A0      #002=XSC$GETCTX File=XSC$ACSE.:XSA1TSI                             WED 10/01/97 11:51 Page:41
         2 000166   100000 552140                    STBQ    0,'40'O,PR1

      192     1308            /* update roving pointer for next time */
      193     1309    1       LASTGET = I;

   1309  2 000167   200006 235100                    LDA     I,,AUTO
         2 000170   000002 755000 1                  STA     LASTGET

      194     1310    1       RETURN;

   1310  2 000171   000000 702200 xent               TSX2  ! X66_ARET

      195     1311        %EJECT;
PL6.E3A0      #002=XSC$GETCTX File=XSC$ACSE.:XSA1TSI                             WED 10/01/97 11:51 Page:42
      196     1312        /*F*    NAME:   XSC$RELCTX
      197     1313
      198     1314                XSC$RELCTX is called to release an ACSE connection context block.
      199     1315                The parameter CTX$ points at the context block to release.
      200     1316        */
      201     1317    1   XSC$RELCTX: ENTRY( CTX$) ALTRET;

   1317  2 000172   000000 700200 xent  XSC$RELCTX   TSX0  ! X66_AUTO_2
         2 000173   000014 000002                    ZERO    12,2

      202     1318
      203     1319    1       I = CCTX.CCID;

   1319  2 000174   200003 470500                    LDP0    @CTX$,,AUTO
         2 000175   000000 471500                    LDP1    0,,PR0
         2 000176   100000 236100                    LDQ     0,,PR1
         2 000177   000011 772000                    QRL     9
         2 000200   000777 376007                    ANQ     511,DL
         2 000201   200006 756100                    STQ     I,,AUTO

      204     1320            /* consistency checks */
      205     1321    1       BLKX = MAPCCID( I);

   1321  2 000202   200006 235100                    LDA     I,,AUTO
         2 000203   000001 735000                    ALS     1
         2 000204   000000 471400 1                  LDP1    XSC_MAPCCID$
         2 000205   000100 100505                    MLR     fill='000'O
         2 000206   100000 000002                    ADSC9   0,A,PR1                  cn=0,n=2
         2 000207   200005 000002                    ADSC9   BLKX,,AUTO               cn=0,n=2

      206     1322    1       IF BLKX = %NULL THEN

   1322  2 000210   200005 220100                    LDX0    BLKX,,AUTO
         2 000211   777777 100003                    CMPX0   -1,DU
         2 000212   000214 601000 2                  TNZ     s:1324

      207     1323    1           ALTRETURN;
PL6.E3A0      #002=XSC$GETCTX File=XSC$ACSE.:XSA1TSI                             WED 10/01/97 11:51 Page:43

   1323  2 000213   000000 702200 xent               TSX2  ! X66_AALT

      208     1324    1       TMP$ = PINCRW( CTX$, -2);  /*N* note hardwired B$BLOCK size here */

   1324  2 000214   000000 236100                    LDQ     0,,PR0
         2 000215   777776 036003                    ADLQ    -2,DU
         2 000216   200007 756100                    STQ     TMP$,,AUTO

      209     1325    1       IF BLKX ~= TMP$->B$BLOCK.BLKX THEN

   1325  2 000217   200007 473500                    LDP3    TMP$,,AUTO
         2 000220   300000 721100                    LXL1    0,,PR3
         2 000221   200005 101100                    CMPX1   BLKX,,AUTO
         2 000222   000224 600000 2                  TZE     s:1328

      210     1326    1           ALTRETURN;

   1326  2 000223   000000 702200 xent               TSX2  ! X66_AALT

      211     1327            /* looks good.. release context block */
      212     1328    1       CALL XSS$RELMEM( BLKX) ALTRET( OOPS);

   1328  2 000224   200005 634500                    EPPR4   BLKX,,AUTO
         2 000225   200010 454500                    STP4    TMP$+1,,AUTO
         2 000226   200010 630500                    EPPR0   TMP$+1,,AUTO
         2 000227   000007 631400 3                  EPPR1   7
         2 000230   000000 701000 xent               TSX1    XSS$RELMEM
         2 000231   000124 702000 2                  TSX2    OOPS

      213     1329    1       MAPCCID( I) = %NULL;

   1329  2 000232   200006 235100                    LDA     I,,AUTO
         2 000233   000001 735000                    ALS     1
         2 000234   000000 470400 1                  LDP0    XSC_MAPCCID$
         2 000235   000105 101400                    MRL     fill='000'O
         2 000236   000002 000004 3                  ADSC9   2                        cn=0,n=4
PL6.E3A0      #002=XSC$GETCTX File=XSC$ACSE.:XSA1TSI                             WED 10/01/97 11:51 Page:44
         2 000237   000000 000002                    ADSC9   0,A,PR0                  cn=0,n=2

      214     1330    1       RETURN;

   1330  2 000240   000000 702200 xent               TSX2  ! X66_ARET

XSC_CCTX
 Sect OctLoc
   0     000   143000 000000   000000 000000   000000 000000   000000 000000    c...............
   0     004   000000 000000   000000 000000                                    ........

XSC_MAPCCID$
 Sect OctLoc
   1     000   000000 006014                                                    ....

CTXINITED
 Sect OctLoc
   1     001   0***** ******                                                    ....

(unnamed)
 Sect OctLoc
   3     000   000003 000000   000000 006000   000000 777777   000000 000000    ................
   3     004   000000 006014   000000 000030   000005 006000   000001 000000    ................
   3     010   000002 000000                                                    ....
      215     1331
      216     1332    1       END XSC$GETCTX;
      217     1333        %EOD;

PL6.E3A0      #002=XSC$GETCTX File=XSC$ACSE.:XSA1TSI                             WED 10/01/97 11:51 Page:45
--  Include file information  --

   XSS_INTERNAL_M.:XSA1TOU  is referenced.
   XSC_INTERNAL_M.:XSA1TOU  is referenced.
   XSC_INTERNAL_E.:XSA1TOU  is referenced.
   XSC_ACSE_E.:XSA1TOU  is referenced.
      No diagnostics issued in procedure XSC$GETCTX.
PL6.E3A0      #002=XSC$GETCTX File=XSC$ACSE.:XSA1TSI                             WED 10/01/97 11:51 Page:46

 **** Variables and constants ****

  ****  Section 000 RoData XSC$GETCTX

  ****  Scalars and arrays  ****
OctLoc.c.b A Datatyp(siz) R M Lvl/name                 OctLoc.c.b A Datatyp(siz) R M Lvl/name

     0-0-0/w STRC(216)   r     1 XSC_CCTX

  ****  Section 001  Data  XSC$GETCTX

  ****  Scalars and arrays  ****
OctLoc.c.b A Datatyp(siz) R M Lvl/name                 OctLoc.c.b A Datatyp(siz) R M Lvl/name

     1-0-0/b BIT         r     1 CTXINITED                  2-0-0/w SBIN        r     1 LASTGET
     0-0-0/w PTR         r     1 XSC_MAPCCID$

  ****  Auto variables  ****

  ****  Scalars and arrays  ****
OctLoc.c.b A Datatyp(siz) R M Lvl/name                 OctLoc.c.b A Datatyp(siz) R M Lvl/name

     4-0-0/w PTR         r     1 @CCID                      3-0-0/w PTR         r     1 @CTX$
     5-0-0/h UBIN(18)    r     1 BLKX                      *0-0-0/w SBIN        r     1 CCID
    *0-0-0/w PTR         r     1 CTX$                       6-0-0/w SBIN        r     1 I
     7-0-0/w PTR         r     1 TMP$

  ****  SYMREF variables  ****

  ****  Scalars and arrays  ****
OctLoc.c.b A Datatyp(siz) R M Lvl/name                 OctLoc.c.b A Datatyp(siz) R M Lvl/name

     0-0-0/w SBIN        r     1 XSS_MAX_LCID

  ****  BASED and DCB variables  ****

  ****  Scalars and arrays  ****
PL6.E3A0      #002=XSC$GETCTX File=XSC$ACSE.:XSA1TSI                             WED 10/01/97 11:51 Page:47
OctLoc.c.b A Datatyp(siz) R M Lvl/name                 OctLoc.c.b A Datatyp(siz) R M Lvl/name

     0-0-0/w STRC(108)   r     1 B$BLOCK                    0-0-0/w STRC(216)   r     1 CCTX
     0-0-0/h UBIN(18)    r     1 MAPCCID(0:0)


   Procedure XSC$GETCTX requires 161 words for executable code.
   Procedure XSC$GETCTX requires 12 words of local(AUTO) storage.
PL6.E3A0      #002=XSC$GETCTX File=XSC$ACSE.:XSA1TSI                             WED 10/01/97 11:51 Page:48
          *** CROSS REFERENCE LISTING ***
**     DENOTES     IDENTIFIER DEFINITION
<<                 IDENTIFIER'S VALUE SET
>>                 IDENTIFIER'S VALUE USED
<>                 IDENTIFIER SET AND/OR USED
--                 IDENTIFIER REFERENCED
PL6.E3A0      #002=XSC$GETCTX File=XSC$ACSE.:XSA1TSI                             WED 10/01/97 11:51 Page:49
          MINI XREF LISTING

B$BLOCK.BLKX
      1238**DCL      1325>>IF
B$BLOCK.BLNKX
      1240**DCL      1241--REDEF
BLKX
      1253**DCL      1266<>CALL     1275<>CALL     1293<>CALL     1303>>ASSIGN   1304<>CALL     1321<<ASSIGN
      1322>>IF       1325>>IF       1328<>CALL
CCID
      1254**DCL        13--PROC     1277--IF       1278>>ASSIGN
CCTX
       542**DCL      1275--CALL     1305<<ASSIGN
CCTX.CCID
       558**DCL      1306<<ASSIGN   1319>>ASSIGN
CCTX.HISTZ
       566**DCL       567--REDEF
CCTX.STATE
       556**DCL      1307<<ASSIGN
CTX$
      1256**DCL        13--PROC      542--IMP-PTR  1275<>CALL     1294<<ASSIGN   1304<>CALL     1305>>ASSIGN
      1306>>ASSIGN   1307>>ASSIGN   1317--ENTRY    1319>>ASSIGN   1324>>ASSIGN
CTXINITED
      1255**DCL      1262>>IF       1272<<ASSIGN
FOUND
      1303**LABEL    1280--GOTO
I
      1257**DCL      1264<<ASSIGN   1266<>CALL     1267<<DOINDEX  1268>>ASSIGN   1278<<ASSIGN   1279>>IF
      1284<<ASSIGN   1287<<ASSIGN   1287>>ASSIGN   1288>>IF       1289<<ASSIGN   1290>>IF       1298>>IF
      1303>>ASSIGN   1306>>ASSIGN   1309>>ASSIGN   1319<<ASSIGN   1321>>ASSIGN   1329>>ASSIGN
LASTGET
      1258**DCL      1271<<ASSIGN   1284>>ASSIGN   1290>>IF       1309<<ASSIGN
LOOP
      1286**LABEL    1299--EXIT
PL6.E3A0      #002=XSC$GETCTX File=XSC$ACSE.:XSA1TSI                             WED 10/01/97 11:51 Page:50
MAPCCID
      1259**DCL      1268<<ASSIGN   1270<<ASSIGN   1279>>IF       1298>>IF       1303<<ASSIGN   1321>>ASSIGN
      1329<<ASSIGN
NOPE
      1293**LABEL    1281--GOTO
OOPS
      1296**LABEL    1266--CALLALT  1275--CALLALT  1328--CALLALT
TMP$
      1260**DCL      1324<<ASSIGN   1325>>IF
XSC_CCTX
       588**DCL      1305>>ASSIGN
XSC_CCTX.HISTZ
       612**DCL       613--REDEF
XSC_MAPCCID$
      1251**DCL      1259--IMP-PTR  1266<>CALL     1268>>ASSIGN   1270>>ASSIGN   1279>>IF       1298>>IF
      1303>>ASSIGN   1321>>ASSIGN   1329>>ASSIGN
XSS$BUFPTR
      1245**DCL-ENT  1304--CALL
XSS$GETMEM
      1246**DCL-ENT  1266--CALL     1275--CALL
XSS$RELMEM
      1247**DCL-ENT  1293--CALL     1328--CALL
XSS_MAX_LCID
      1249**DCL      1264>>ASSIGN   1267>>DOINDEX  1271>>ASSIGN   1288>>IF
PL6.E3A0      #002=XSC$GETCTX File=XSC$ACSE.:XSA1TSI                             WED 10/01/97 11:51 Page:51
              *** CROSS REFERENCE LISTING ***
    **     DENOTES     IDENTIFIER DEFINITION
    <<                 IDENTIFIER'S VALUE SET
    >>                 IDENTIFIER'S VALUE USED
    <>                 IDENTIFIER SET AND/OR USED
    --                 IDENTIFIER REFERENCED
PL6.E3A0      #002=XSC$GETCTX File=XSC$ACSE.:XSA1TSI                             WED 10/01/97 11:51 Page:52
              MINI UREF LISTING

XSC$GETCTX      13**PROC
XSC$RELCTX    1317**ENTRY

PL6.E3A0      #003=XSC$CTXPTR File=XSC$ACSE.:XSA1TSI                             WED 10/01/97 11:51 Page:53
      218        1        /*T***********************************************************/
      219        2        /*T*                                                         */
      220        3        /*T* Copyright (c) Bull HN Information Systems Inc., 1997    */
      221        4        /*T*                                                         */
      222        5        /*T***********************************************************/
      223        6        /*F*    NAME:   XSC$CTXPTR
      224        7
      225        8                Given an ACSE connection id, returns a pointer to the context for
      226        9                that connection.
      227       10        */
      228       11        XSC$CTXPTR: PROC( CCID, CTX$) ALTRET;
      229       12
      230       13    1       DCL XSS$BUFPTR ENTRY(2) ALTRET;
      231       14
      232       15    1       DCL XSC_MAPCCID$ PTR SYMREF;
      233       16    1       DCL XSS_MAX_LCID SBIN SYMREF;
      234       17
      235       18    1       DCL BLKX UBIN HALF HALIGNED;
      236       19    1       DCL CCID SBIN;
      237       20    1       DCL CTX$ PTR;
      238       21    1       DCL MAPCCID(0:0) UBIN HALF BASED( XSC_MAPCCID$) HALIGNED;
      239       22
      240       23    1       IF CCID <= 0 OR CCID > XSS_MAX_LCID OR XSC_MAPCCID$ = ADDR( NIL) THEN
      241       24    1   OOPS:
      242       25    1           ALTRETURN;
      243       26    1       BLKX = MAPCCID( CCID);
      244       27    1       CALL XSS$BUFPTR( BLKX, CTX$) ALTRET( OOPS);
      245       28    1       RETURN;
      246       29
      247       30    1       END XSC$CTXPTR;
      248       31        %EOD;

PL6.E3A0      #003=XSC$CTXPTR File=XSC$ACSE.:XSA1TSI                             WED 10/01/97 11:51 Page:54
      No diagnostics issued in procedure XSC$CTXPTR.

   Procedure XSC$CTXPTR requires 26 words for executable code.
   Procedure XSC$CTXPTR requires 8 words of local(AUTO) storage.

PL6.E3A0      #003=XSC$CTXPTR File=XSC$ACSE.:XSA1TSI                             WED 10/01/97 11:51 Page:55

 Object Unit name= XSC$CTXPTR                                 File name= XSC$ACSE.:XSA1TOU
 UTS= OCT 01 '97 11:51:44.60 WED                              Compiler= PL-6/E31         Sev=      00
 SharedLib= :SHARED_SYSTEM                                    Alt SharedLib=


    ****  Control sections  ****

 Sect   Type Bound  Init  Size OctSiz  Section name(segment info)
    0   Proc  even  none    26     32  XSC$CTXPTR
    1  RoData even  none     2      2  XSC$CTXPTR

    ****  Entry defs  ****

                              Check   Calling
                             calling  sequence
  Sect OctLoc Primary Altret sequence   type   Parms  Name
     0      0   yes    yes     yes      Std        2  XSC$CTXPTR

  ****  Entry refs  ****

         Check        Calling
        calling       sequence
Altret sequence SRef   type   Args  Name
 yes     yes           Std       2 XSS$BUFPTR
                       nStd      0 X66_AUTO_2
                       nStd      0 X66_AALT
                       nStd      0 X66_ARET

  ****  Data refs  ****

  Flags:  r = read only, s = secondary
Flgs Name                             Flgs Name                             Flgs Name
     XSC_MAPCCID$                          XSS_MAX_LCID
PL6.E3A0      #003=XSC$CTXPTR File=XSC$ACSE.:XSA1TSI                             WED 10/01/97 11:51 Page:56

  ****  Segment refs  ****

  Flags:  r = read only, s = secondary
Flgs Name                             Flgs Name                             Flgs Name
     NULLSID
PL6.E3A0      #003=XSC$CTXPTR File=XSC$ACSE.:XSA1TSI                             WED 10/01/97 11:51 Page:57


      218        1        /*T***********************************************************/
      219        2        /*T*                                                         */
      220        3        /*T* Copyright (c) Bull HN Information Systems Inc., 1997    */
      221        4        /*T*                                                         */
      222        5        /*T***********************************************************/
      223        6        /*F*    NAME:   XSC$CTXPTR
      224        7
      225        8                Given an ACSE connection id, returns a pointer to the context for
      226        9                that connection.
      227       10        */
      228       11        XSC$CTXPTR: PROC( CCID, CTX$) ALTRET;

     11  0 000000   000000 700200 xent  XSC$CTXPTR   TSX0  ! X66_AUTO_2
         0 000001   000010 000002                    ZERO    8,2

      229       12
      230       13    1       DCL XSS$BUFPTR ENTRY(2) ALTRET;
      231       14
      232       15    1       DCL XSC_MAPCCID$ PTR SYMREF;
      233       16    1       DCL XSS_MAX_LCID SBIN SYMREF;
      234       17
      235       18    1       DCL BLKX UBIN HALF HALIGNED;
      236       19    1       DCL CCID SBIN;
      237       20    1       DCL CTX$ PTR;
      238       21    1       DCL MAPCCID(0:0) UBIN HALF BASED( XSC_MAPCCID$) HALIGNED;
      239       22
      240       23    1       IF CCID <= 0 OR CCID > XSS_MAX_LCID OR XSC_MAPCCID$ = ADDR( NIL) THEN

     23  0 000002   200003 470500                    LDP0    @CCID,,AUTO
         0 000003   000000 235100                    LDA     0,,PR0
         0 000004   000013 604400 0                  TMOZ    OOPS
         0 000005   000000 236100                    LDQ     0,,PR0
         0 000006   000000 116000 xsym               CMPQ    XSS_MAX_LCID
         0 000007   000013 605400 0                  TPNZ    OOPS
         0 000010   000000 236000 xsym               LDQ     XSC_MAPCCID$
         0 000011   000000 116000 1                  CMPQ    0
PL6.E3A0      #003=XSC$CTXPTR File=XSC$ACSE.:XSA1TSI                             WED 10/01/97 11:51 Page:58
         0 000012   000014 601000 0                  TNZ     s:26

      241       24    1   OOPS:
      242       25    1           ALTRETURN;

     25  0 000013   000000 702200 xent  OOPS         TSX2  ! X66_AALT

      243       26    1       BLKX = MAPCCID( CCID);

     26  0 000014   000001 735000                    ALS     1
         0 000015   000000 471400 xsym               LDP1    XSC_MAPCCID$
         0 000016   000100 100505                    MLR     fill='000'O
         0 000017   100000 000002                    ADSC9   0,A,PR1                  cn=0,n=2
         0 000020   200005 000002                    ADSC9   BLKX,,AUTO               cn=0,n=2

      244       27    1       CALL XSS$BUFPTR( BLKX, CTX$) ALTRET( OOPS);

     27  0 000021   200004 236100                    LDQ     @CTX$,,AUTO
         0 000022   200007 756100                    STQ     BLKX+2,,AUTO
         0 000023   200005 633500                    EPPR3   BLKX,,AUTO
         0 000024   200006 453500                    STP3    BLKX+1,,AUTO
         0 000025   200006 630500                    EPPR0   BLKX+1,,AUTO
         0 000026   000001 631400 1                  EPPR1   1
         0 000027   000000 701000 xent               TSX1    XSS$BUFPTR
         0 000030   000013 702000 0                  TSX2    OOPS

      245       28    1       RETURN;

     28  0 000031   000000 702200 xent               TSX2  ! X66_ARET

(unnamed)
 Sect OctLoc
   1     000   000000 006014   000002 000000                                    ........
      246       29
      247       30    1       END XSC$CTXPTR;
      248       31        %EOD;

PL6.E3A0      #003=XSC$CTXPTR File=XSC$ACSE.:XSA1TSI                             WED 10/01/97 11:51 Page:59
      No diagnostics issued in procedure XSC$CTXPTR.
PL6.E3A0      #003=XSC$CTXPTR File=XSC$ACSE.:XSA1TSI                             WED 10/01/97 11:51 Page:60

 **** Variables and constants ****

  ****  Auto variables  ****

  ****  Scalars and arrays  ****
OctLoc.c.b A Datatyp(siz) R M Lvl/name                 OctLoc.c.b A Datatyp(siz) R M Lvl/name

     3-0-0/w PTR         r     1 @CCID                      4-0-0/w PTR         r     1 @CTX$
     5-0-0/h UBIN(18)    r     1 BLKX                      *0-0-0/w SBIN        r     1 CCID
    *0-0-0/w PTR         r     1 CTX$

  ****  SYMREF variables  ****

  ****  Scalars and arrays  ****
OctLoc.c.b A Datatyp(siz) R M Lvl/name                 OctLoc.c.b A Datatyp(siz) R M Lvl/name

     0-0-0/w PTR         r     1 XSC_MAPCCID$               0-0-0/w SBIN        r     1 XSS_MAX_LCID

  ****  BASED and DCB variables  ****

  ****  Scalars and arrays  ****
OctLoc.c.b A Datatyp(siz) R M Lvl/name                 OctLoc.c.b A Datatyp(siz) R M Lvl/name

     0-0-0/h UBIN(18)    r     1 MAPCCID(0:0)


   Procedure XSC$CTXPTR requires 26 words for executable code.
   Procedure XSC$CTXPTR requires 8 words of local(AUTO) storage.
PL6.E3A0      #003=XSC$CTXPTR File=XSC$ACSE.:XSA1TSI                             WED 10/01/97 11:51 Page:61
          *** CROSS REFERENCE LISTING ***
**     DENOTES     IDENTIFIER DEFINITION
<<                 IDENTIFIER'S VALUE SET
>>                 IDENTIFIER'S VALUE USED
<>                 IDENTIFIER SET AND/OR USED
--                 IDENTIFIER REFERENCED
PL6.E3A0      #003=XSC$CTXPTR File=XSC$ACSE.:XSA1TSI                             WED 10/01/97 11:51 Page:62
          MINI XREF LISTING

BLKX
        18**DCL        26<<ASSIGN     27<>CALL
CCID
        19**DCL        11--PROC       23>>IF         23>>IF         26>>ASSIGN
CTX$
        20**DCL        11--PROC       27<>CALL
MAPCCID
        21**DCL        26>>ASSIGN
OOPS
        25**LABEL      27--CALLALT
XSC_MAPCCID$
        15**DCL        21--IMP-PTR    23>>IF         26>>ASSIGN
XSS$BUFPTR
        13**DCL-ENT    27--CALL
XSS_MAX_LCID
        16**DCL        23>>IF
PL6.E3A0      #003=XSC$CTXPTR File=XSC$ACSE.:XSA1TSI                             WED 10/01/97 11:51 Page:63
              *** CROSS REFERENCE LISTING ***
    **     DENOTES     IDENTIFIER DEFINITION
    <<                 IDENTIFIER'S VALUE SET
    >>                 IDENTIFIER'S VALUE USED
    <>                 IDENTIFIER SET AND/OR USED
    --                 IDENTIFIER REFERENCED
PL6.E3A0      #003=XSC$CTXPTR File=XSC$ACSE.:XSA1TSI                             WED 10/01/97 11:51 Page:64
              MINI UREF LISTING

XSC$CTXPTR      11**PROC

PL6.E3A0      #004=XSC$ACSE File=XSC$ACSE.:XSA1TSI                               WED 10/01/97 11:51 Page:65
      249        1        /*T***********************************************************/
      250        2        /*T*                                                         */
      251        3        /*T* Copyright (c) Bull HN Information Systems Inc., 1997    */
      252        4        /*T*                                                         */
      253        5        /*T***********************************************************/
      254        6        /*F*    NAME:   XSC$ACSE
      255        7
      256        8                XSC$ACSE is the sole entry to the ACSE (Application Control Service
      257        9                Elements) portion of the ISO Application layer from an application.
      258       10                The programmer fills in the necessary parameters in an ACSE param
      259       11                block and calls this routine.
      260       12
      261       13                If the desired request is carried out successfully, this routine
      262       14                RETURNs.  Otherwise, the ALTRETURN is taken after the parameter
      263       15                block field ERROR is filled in with the appropriate error code.
      264       16        */
      265       17        XSC$ACSE: PROC( CFPT) ALTRET;
      266       18        %INCLUDE B_SEGIDS_C;
      267      557        %INCLUDE B$JIT_C;
      268      871            %B$JIT0;
      269      960            %U$JIT1X;
      270      963            %M$JIT2;
      271      973            %F$JIT3X;
      272      976            %S$JIT4X;
      273      979            %J$JIT5X;
      274      982            %A$JIT6X;
      275      985        %INCLUDE XSC_ACSE_E;
      276     1063        %INCLUDE XSC_ACSE_M;
      277     1372            %XSC$PRIMITIVES( STCLASS="BASED( CFPT$)");
      278     1685            %XSC$GENERIC( FPTN=CFPT, STCLASS="");
      279     1744        %INCLUDE XSC_INTERNAL_E;
      280     1832        %INCLUDE XSC_INTERNAL_M;
      281     2177            %XSC$VBLK( NAME=XSC_VBLK, STCLASS=SYMREF);
      282     2283            %XSC$CCTX( NAME=CCTX, STCLASS="BASED( CTX$)");
      283     2329            %XSC$VBLK( NAME=VBLK, STCLASS=AUTO);
      284     2435        %INCLUDE XSP_PRESENTATION_E;
      285     2534        %INCLUDE XSP_PRESENTATION_M;
PL6.E3A0      #004=XSC$ACSE File=XSC$ACSE.:XSA1TSI                               WED 10/01/97 11:51 Page:66
      286     4020            %XSP$CTXTLIST( NAME=CLST);
      287     4047        %INCLUDE XSP_ASN1_M;
      288     4393            %XSP_ASN1_FPT( FPTN=AFPT, STCLASS="BASED( AFPT$)");
      289     4413        %INCLUDE UM_CP6;
      290     5265        %MACRO ERRORDEF( NAME=XSC_ERROR, STCLASS="CONSTANT SYMDEF", LVL=1, LAST=";",
      291     5266                         ERR#=0, SEV=0);
      292     5267            %VLP_ERRCODE( FPTN=NAME, STCLASS=STCLASS, FCG='XS', MID='C',
      293     5268                          MON='0'B, ERR#=ERR#, SEV=SEV);
      294     5269        %MEND;
      295     5270        %INCLUDE XSC_PERR_C;
      296     5347            %ERRORDEF( NAME=XSC_E$RDONLYFPT, ERR#=%E$RDONLYFPT);
      297     5395            /*E*  ERROR:  XSC-E$RDONLYFPT-0
      298     5396                MESSAGE:  FPT is read-only; must be writeable.
      299     5397            */
      300     5398            %ERRORDEF( NAME=XSC_E$BADCID, ERR#=%E$BADCID);
      301     5446            /*E*  ERROR:  XSC-E$BADCID-0
      302     5447                MESSAGE:  Illegal connection identifier.
      303     5448            */
      304     5449            %ERRORDEF( NAME=XSC_E$BADFNC, ERR#=%E$BADFNC);
      305     5497            /*E*  ERROR:  XSC-E$BADFNC-0
      306     5498                MESSAGE:  Illegal function code.
      307     5499            */
      308     5500            %ERRORDEF( NAME=XSC_E$STATE, ERR#=%E$STATE);
      309     5548            /*E*  ERROR:  XSC-E$STATE-0
      310     5549                MESSAGE:  Connection state prevents this action.
      311     5550            */
      312     5551            %ERRORDEF( NAME=XSC_E$ABRTSRC, ERR#=%E$ABRTSRC);
      313     5599            /*E*  ERROR:  XSC-E$ABRTSRC-0
      314     5600                MESSAGE:  ABRTSRC contains an illegal value.
      315     5601            */
      316     5602            %ERRORDEF( NAME=XSC_E$ACN, ERR#=%E$ACN);
      317     5650            /*E*  ERROR:  XSC-E$ACN-0
      318     5651                MESSAGE:  ACN$ contains an illegal value.
      319     5652            */
      320     5653            %ERRORDEF( NAME=XSC_E$CTXT, ERR#=%E$CTXT);
      321     5701            /*E*  ERROR:  XSC-E$CTXT-0
      322     5702                MESSAGE:  CTXT$ contains an illegal value.
PL6.E3A0      #004=XSC$ACSE File=XSC$ACSE.:XSA1TSI                               WED 10/01/97 11:51 Page:67
      323     5703            */
      324     5704            %ERRORDEF( NAME=XSC_E$CTXTID, ERR#=%E$CTXTID);
      325     5752            /*E*  ERROR:  XSC-E$CTXTID-0
      326     5753                MESSAGE:  XSP_ASN1_FPT.CTXTID contains an illegal value.
      327     5754            */
      328     5755            %ERRORDEF( NAME=XSC_E$DATA, ERR#=%E$DATA);
      329     5803            /*E*  ERROR:  XSC-E$DATA-0
      330     5804                MESSAGE:  DATA$ contains an illegal value.
      331     5805            */
      332     5806            %ERRORDEF( NAME=XSC_E$IAEID, ERR#=%E$IAEID);
      333     5854            /*E*  ERROR:  XSC-E$IAEID-0
      334     5855                MESSAGE:  IAEID contains an illegal value.
      335     5856            */
      336     5857            %ERRORDEF( NAME=XSC_E$IAEQ, ERR#=%E$IAEQ);
      337     5905            /*E*  ERROR:  XSC-E$IAEQ-0
      338     5906                MESSAGE:  IAEQ$ contains an illegal value.
      339     5907            */
      340     5908            %ERRORDEF( NAME=XSC_E$IAPID, ERR#=%E$IAPID);
      341     5956            /*E*  ERROR:  XSC-E$IAPID-0
      342     5957                MESSAGE:  IAPID contains an illegal value.
      343     5958            */
      344     5959            %ERRORDEF( NAME=XSC_E$IAPT, ERR#=%E$IAPT);
      345     6007            /*E*  ERROR:  XSC-E$IAPT-0
      346     6008                MESSAGE:  IAPT$ contains an illegal value.
      347     6009            */
      348     6010            %ERRORDEF( NAME=XSC_E$IMPL, ERR#=%E$IMPL);
      349     6058            /*E*  ERROR:  XSC-E$IMPL-0
      350     6059                MESSAGE:  IMPL$ contains an illegal value.
      351     6060            */
      352     6061            %ERRORDEF( NAME=XSC_E$NXTX, ERR#=%E$NXTX);
      353     6109            /*E*  ERROR:  XSC-E$NXTX-0
      354     6110                MESSAGE:  XSP_ASN1_FPT.NXTX contains an illegal value.
      355     6111            */
      356     6112            %ERRORDEF( NAME=XSC_E$RAEID, ERR#=%E$RAEID);
      357     6160            /*E*  ERROR:  XSC-E$RAEID-0
      358     6161                MESSAGE:  RAEID contains an illegal value.
      359     6162            */
PL6.E3A0      #004=XSC$ACSE File=XSC$ACSE.:XSA1TSI                               WED 10/01/97 11:51 Page:68
      360     6163            %ERRORDEF( NAME=XSC_E$RAEQ, ERR#=%E$RAEQ);
      361     6211            /*E*  ERROR:  XSC-E$RAEQ-0
      362     6212                MESSAGE:  RAEQ$ contains an illegal value.
      363     6213            */
      364     6214            %ERRORDEF( NAME=XSC_E$RAPID, ERR#=%E$RAPID);
      365     6262            /*E*  ERROR:  XSC-E$RAPID-0
      366     6263                MESSAGE:  RAPID contains an illegal value.
      367     6264            */
      368     6265            %ERRORDEF( NAME=XSC_E$RAPT, ERR#=%E$RAPT);
      369     6313            /*E*  ERROR:  XSC-E$RAPT-0
      370     6314                MESSAGE:  RAPT$ contains an illegal value.
      371     6315            */
      372     6316            %ERRORDEF( NAME=XSC_E$REASON, ERR#=%E$REASON);
      373     6364            /*E*  ERROR:  XSC-E$REASON-0
      374     6365                MESSAGE:  REASON contains an illegal value.
      375     6366            */
      376     6367            %ERRORDEF( NAME=XSC_E$RESULT, ERR#=%E$RESULT);
      377     6415            /*E*  ERROR:  XSC-E$RESULT-0
      378     6416                MESSAGE:  RESULT contains an illegal value.
      379     6417            */
      380     6418            %ERRORDEF( NAME=XSC_E$RSDIAG, ERR#=%E$RSDIAG);
      381     6466            /*E*  ERROR:  XSC-E$RSDIAG-0
      382     6467                MESSAGE:  RSDIAG contains an illegal value.
      383     6468            */
      384     6469
      385     6470    1       DCL XSC$AMACHINE ENTRY(1) ALTRET;
      386     6471    1       DCL XSC$CTXPTR ENTRY(2) ALTRET;
      387     6472    1       DCL XSC$DUMPFPT ENTRY(1);
      388     6473    1       DCL XSC$RESOLVE ENTRY(1) ALTRET;
      389     6474    1       DCL XSS$SCREECH ENTRY(1);
      390     6475
      391     6476    1       DCL B$JIT$ PTR SYMREF;
      392     6477    1       DCL XSS_TRACE SBIN SYMREF;
      393     6478
      394     6479    1       DCL AFPT$ PTR;
      395     6480    1       DCL CCID SBIN;
      396     6481    1       DCL TEMP REDEF CCID SBIN;
PL6.E3A0      #004=XSC$ACSE File=XSC$ACSE.:XSA1TSI                               WED 10/01/97 11:51 Page:69
      397     6482    1       DCL CTX$ PTR;
      398     6483    1       DCL CFPT$ PTR;
      399     6484    1       DCL 1 PX REDEF CFPT$,
      400     6485    1            2 OFFSET UBIN(18) UNAL,
      401     6486    1            2 * BIT(6) UNAL,
      402     6487    1            2 SEGID BIT(12) UNAL;
      403     6488        %EJECT;
PL6.E3A0      #004=XSC$ACSE File=XSC$ACSE.:XSA1TSI                               WED 10/01/97 11:51 Page:70
      404     6489    1       CFPT$ = ADDR( CFPT);
      405     6490    2       IF PX.SEGID = %ISSID THEN DO;
      406     6491    2           TEMP = 64 + PX.OFFSET / 1024;  /* page number of FPT's page */
      407     6492    3           IF TEMP >= B$JIT.PLL AND TEMP <= B$JIT.PUL THEN DO;
      408     6493                    /* user's FPT was allocated in constant storage */
      409     6494    3               IF XSC$GENERIC.ERROR = XSC_E$RDONLYFPT THEN
      410     6495    3                   ALTRETURN;
      411     6496    3               CALL XSS$SCREECH( XSC_E$RDONLYFPT);
      412     6497    3               END;
      413     6498    2           END;
      414     6499            /* Initialize returned error code */
      415     6500    1       XSC$GENERIC.ERROR = '0'B;
      416     6501            /* Initialize AUTO copy of VBLK structure */
      417     6502    1       VBLK = XSC_VBLK;
      418     6503    1       VBLK.FPT$ = CFPT$;
      419     6504            /* Determine which connection is being referred to */
      420     6505    1       CCID = XSC$GENERIC.CCID;
      421     6506    1       CALL XSC$CTXPTR( CCID, CTX$)
      422     6507    2       WHENALTRETURN DO;
      423     6508    2           XSC$GENERIC.ERROR = XSC_E$BADCID;
      424     6509    2           ALTRETURN;
      425     6510    2           END;
      426     6511            /* Update AUTO VBLK context ptr */
      427     6512    1       VBLK.CTX$ = CTX$;
      428     6513        %EJECT;
PL6.E3A0      #004=XSC$ACSE File=XSC$ACSE.:XSA1TSI                               WED 10/01/97 11:51 Page:71
      429     6514            /* Split depending on the ACSE function code requested */
      430     6515    2       DO CASE( XSC$GENERIC.FNC);
      431     6516    2           CASE( %XSC_FNC_AASCREQ#);
      432     6517    2               CALL CKTXTH( XSC_E$ACN, XSC$ASSOCIATE.ACN$, %XSC_MAXACN#)
      433     6518    2                       ALTRET( GETOUT);
      434     6519    2               CALL CKTXTC( XSC_E$IAPT, XSC$ASSOCIATE.IAPT$, %XSC_MAXAPT#)
      435     6520    2                       ALTRET( GETOUT);
      436     6521    2               CALL CKTXTC( XSC_E$IAEQ, XSC$ASSOCIATE.IAEQ$, %XSC_MAXAEQ#)
      437     6522    2                       ALTRET( GETOUT);
      438     6523    2               CALL CKTXTC( XSC_E$RAPT, XSC$ASSOCIATE.RAPT$, %XSC_MAXAPT#)
      439     6524    2                       ALTRET( GETOUT);
      440     6525    2               CALL CKTXTC( XSC_E$RAEQ, XSC$ASSOCIATE.RAEQ$, %XSC_MAXAEQ#)
      441     6526    2                       ALTRET( GETOUT);
      442     6527    2               ;  /*N* validate IMPL$ */
      443     6528    2               CALL CKCTXT( XSC_E$CTXT, XSC$ASSOCIATE.CTXT$) ALTRET( GETOUT);
      444     6529    2               CALL CKDATA( XSC_E$DATA, XSC$ASSOCIATE.DATA$, %XSC_MAXDATA#)
      445     6530    2                       ALTRET( GETOUT);
      446     6531    2               CALL XSC$RESOLVE( XSC$ASSOCIATE) ALTRET( GETOUT);
      447     6532    2               VBLK.EVENT = %XSC_CEV_AASCREQ;
      448     6533    2           CASE( %XSC_FNC_AASCRSP#);
      449     6534    2               CALL CKTXTH( XSC_E$ACN, XSC$ASSOCIATE.ACN$, %XSC_MAXACN#)
      450     6535    2                       ALTRET( GETOUT);
      451     6536    2               CALL CKTXTC( XSC_E$RAPT, XSC$ASSOCIATE.RAPT$, %XSC_MAXAPT#)
      452     6537    2                       ALTRET( GETOUT);
      453     6538    2               CALL CKTXTC( XSC_E$RAEQ, XSC$ASSOCIATE.RAEQ$, %XSC_MAXAEQ#)
      454     6539    2                       ALTRET( GETOUT);
      455     6540    2               ;  /*N* validate IMPL$ */
      456     6541    2               CALL CKCTXT( XSC_E$CTXT, XSC$ASSOCIATE.CTXT$) ALTRET( GETOUT);
      457     6542    2               CALL CKDATA( XSC_E$DATA, XSC$ASSOCIATE.DATA$, %XSC_MAXDATA#)
      458     6543    2                       ALTRET( GETOUT);
      459     6544    2               CALL CKRSLT( XSC_E$RESULT) ALTRET( GETOUT);
      460     6545    2               CALL XSC$RESOLVE( XSC$ASSOCIATE) ALTRET( GETOUT);
      461     6546    2               IF XSC$ASSOCIATE.RESULT = 0 THEN
      462     6547    2                   VBLK.EVENT = %XSC_CEV_AASCRSP;
      463     6548    2               ELSE
      464     6549    2                   VBLK.EVENT = %XSC_CEV_AASCRSN;
      465     6550    2           CASE( %XSC_FNC_ARELREQ#);
PL6.E3A0      #004=XSC$ACSE File=XSC$ACSE.:XSA1TSI                               WED 10/01/97 11:51 Page:72
      466     6551    2               CALL CKDATA( XSC_E$DATA, XSC$RELEASE.DATA$, %XSC_MAXDATA#)
      467     6552    2                       ALTRET( GETOUT);
      468     6553    2               CALL CKRELREQRSN( XSC_E$REASON) ALTRET( GETOUT);
      469     6554    2               VBLK.EVENT = %XSC_CEV_ARELREQ;
      470     6555    2           CASE( %XSC_FNC_ARELRSP#);
      471     6556    2               CALL CKDATA( XSC_E$DATA, XSC$RELEASE.DATA$, %XSC_MAXDATA#)
      472     6557    2                       ALTRET( GETOUT);
      473     6558    2               CALL CKRELRSPRSN( XSC_E$REASON) ALTRET( GETOUT);
      474     6559    2               IF XSC$RELEASE.REASON = 0 THEN
      475     6560    2                   VBLK.EVENT = %XSC_CEV_ARELRSP;
      476     6561    2               ELSE
      477     6562    2                   VBLK.EVENT = %XSC_CEV_ARELRSN;
      478     6563    2           CASE( %XSC_FNC_AUABREQ#);
      479     6564    2               CALL CKDATA( XSC_E$DATA, XSC$U_ABORT.DATA$, %XSC_MAXDATA#)
      480     6565    2                       ALTRET( GETOUT);
      481     6566    2               CALL CKABRTSRC( XSC_E$ABRTSRC) ALTRET( GETOUT);
      482     6567    2               VBLK.EVENT = %XSC_CEV_AUABREQ;
      483     6568    2           CASE( ELSE);
      484     6569    2               XSC$GENERIC.ERROR = XSC_E$BADFNC;
      485     6570    2               ALTRETURN;
      486     6571    2           END;
      487     6572    1       IF XSS_TRACE > 0 THEN
      488     6573    1           CALL XSC$DUMPFPT( XSC$GENERIC);
      489     6574    1       CALL XSC$AMACHINE( VBLK)
      490     6575    2       WHENALTRETURN DO;
      491     6576    2   ABORT:
      492     6577    2           IF XSC$GENERIC.ERROR = '0'O THEN
      493     6578    2               XSC$GENERIC.ERROR = XSC_E$STATE;
      494     6579    2   GETOUT:
      495     6580    2           ALTRETURN;
      496     6581    2           END;
      497     6582    1       RETURN;
      498     6583        %EJECT;
PL6.E3A0      #004=XSC$ACSE File=XSC$ACSE.:XSA1TSI                               WED 10/01/97 11:51 Page:73
      499     6584    1   CKDATA: PROC( ERR, PTR$, UB, LB) ALTRET;
      500     6585
      501     6586    2       DCL B$PTR PTR BASED CALIGNED;
      502     6587    2       DCL B$UBIN9 UBIN(9) BASED CALIGNED;
      503     6588    2       DCL B$UBIN18 UBIN(18) BASED HALIGNED;
      504     6589    2       DCL ERR BIT(36) ALIGNED;
      505     6590    2       DCL LB SBIN;  /* lower bound on size of framed data */
      506     6591    2       DCL LEN SBIN;
      507     6592    2       DCL LOWER SBIN;
      508     6593    2       DCL UB SBIN;  /* upper bound on size of framed data */
      509     6594    2       DCL UPPER REDEF UB SBIN;
      510     6595    2       DCL PTR$ PTR;
      511     6596
      512     6597    2       LEN = 0;
      513     6598    2       AFPT$ = PTR$;
      514     6599    3       DO WHILE( AFPT$ ~= ADDR( NIL));
      515     6600    4           IF AFPT.NXTX = 0 THEN DO;
      516     6601    4               XSC$GENERIC.ERROR = XSC_E$NXTX;
      517     6602    4               ALTRETURN;
      518     6603    4               END;
      519     6604    3           LEN = LEN + AFPT.NXTX;
      520     6605    3           VBLK.DATA.SIZE = LEN;
      521     6606    3           AFPT$ = AFPT.LINK$;
      522     6607    3           END;
      523     6608    2   COMMON:
      524     6609    2       IF ADDR( LB) = ADDR( NIL) THEN
      525     6610    2           LOWER = 0;
      526     6611    2       ELSE
      527     6612    2           LOWER = LB;
      528     6613    3       IF LEN < LOWER OR LEN > UPPER THEN DO;
      529     6614    3           XSC$GENERIC.ERROR = ERR;
      530     6615    3           ALTRETURN;
      531     6616    3           END;
      532     6617    2       RETURN;
      533     6618
      534     6619    2   CKTXTC: ENTRY( ERR, PTR$, UB, LB) ALTRET;
      535     6620
PL6.E3A0      #004=XSC$ACSE File=XSC$ACSE.:XSA1TSI                               WED 10/01/97 11:51 Page:74
      536     6621    2       IF PTR$ = ADDR( NIL) THEN
      537     6622    2           LEN = 0;
      538     6623    2       ELSE
      539     6624    2           LEN = PTR$->B$UBIN9;
      540     6625    2       GOTO COMMON;
      541     6626
      542     6627    2   CKTXTH: ENTRY( ERR, PTR$, UB, LB) ALTRET;
      543     6628
      544     6629    2       IF PTR$ = ADDR( NIL) THEN
      545     6630    2           LEN = 0;
      546     6631    2       ELSE
      547     6632    2           LEN = PTR$->B$UBIN18;
      548     6633    2       GOTO COMMON;
      549     6634
      550     6635    2       END CKDATA;
      551     6636
      552     6637    1   CKCTXT: PROC( ERR, PTR$) ALTRET;
      553     6638
      554     6639    2       DCL B$PTR PTR BASED CALIGNED;
      555     6640    2       DCL ERR BIT(36) ALIGNED;
      556     6641    2       DCL I SBIN;
      557     6642    2       DCL P$ PTR;
      558     6643    2       DCL PTR$ PTR;
      559     6644    2       DCL ZILCH SBIN;
      560     6645
      561     6646    2       IF PTR$ = ADDR( NIL) THEN
      562     6647    2           RETURN;  /* XSC$GENERIC.CTXT$ is ADDR( NIL).  Fine. */
      563     6648    2       ZILCH = 0;
      564     6649    3       DO I = 1 TO PTR$->CLST.COUNT(0);
      565     6650    3           P$ = PTR$->CLST.CTXT$( I);
      566     6651    3           IF P$ = ADDR( NIL) THEN
      567     6652    3               ZILCH = ZILCH + 1;  /* CLST.CTXT$( I) is ADDR( NIL).  O.K. */
      568     6653    3           ELSE
      569     6654    3               CALL CKTXTH( ERR, P$, 20, 1)
      570     6655    4               WHENALTRETURN DO;
      571     6656                        /* CLST.CTXT$( I) points at something incorrect */
      572     6657    4                   GOTO GETOUT;
PL6.E3A0      #004=XSC$ACSE File=XSC$ACSE.:XSA1TSI                               WED 10/01/97 11:51 Page:75
      573     6658    4                   END;
      574     6659    3           END;
      575     6660    3       IF ZILCH >= PTR$->CLST.COUNT(0) THEN DO;
      576     6661                /* every CLST.CTXT$( I) is ADDR( NIL), or COUNT is zero */
      577     6662    3   GETOUT:
      578     6663    3           XSC$GENERIC.ERROR = ERR;
      579     6664    3           ALTRETURN;
      580     6665    3           END;
      581     6666    2       RETURN;
      582     6667
      583     6668    2       END CKCTXT;
      584     6669
      585     6670    1   CKRSLT: PROC( ERR) ALTRET;
      586     6671
      587     6672    2       DCL ERR BIT(36) ALIGNED;
      588     6673
      589     6674    3       IF XSC$ASSOCIATE.RESULT > %XSC_RSLT_TRANREJECT# THEN DO;
      590     6675    3   GETOUT:
      591     6676    3           XSC$GENERIC.ERROR = ERR;
      592     6677    3           ALTRETURN;
      593     6678    3           END;
      594     6679    2       IF XSC$ASSOCIATE.RSDIAG > %XSC_RSDIAG_BADRAEID# THEN
      595     6680    2           GOTO GETOUT;
      596     6681    2       RETURN;
      597     6682
      598     6683    2   CKRELREQRSN: ENTRY( ERR) ALTRET;
      599     6684
      600     6685    2       IF XSC$RELEASE.REASON > %XSC_RELREQ_URGENT# AND
      601     6686    2               XSC$RELEASE.REASON ~= %XSC_RELREQ_USERDEFINED# THEN
      602     6687    2           GOTO GETOUT;
      603     6688    2       RETURN;
      604     6689
      605     6690    2   CKRELRSPRSN: ENTRY( ERR) ALTRET;
      606     6691
      607     6692    2       IF XSC$RELEASE.REASON > %XSC_RELRSP_NOTFINISHED# AND
      608     6693    2               XSC$RELEASE.REASON ~= %XSC_RELRSP_USERDEFINED# THEN
      609     6694    2           GOTO GETOUT;
PL6.E3A0      #004=XSC$ACSE File=XSC$ACSE.:XSA1TSI                               WED 10/01/97 11:51 Page:76
      610     6695    2       RETURN;
      611     6696
      612     6697    2   CKABRTSRC: ENTRY( ERR) ALTRET;
      613     6698
      614     6699    2       IF XSC$U_ABORT.ABRTSRC > %XSC_ABRTSRC_PROVIDER# THEN
      615     6700    2           GOTO GETOUT;
      616     6701    2       RETURN;
      617     6702
      618     6703    2       END CKRSLT;
      619     6704
      620     6705    1       END XSC$ACSE;
      621     6706        %EOD;

PL6.E3A0      #004=XSC$ACSE File=XSC$ACSE.:XSA1TSI                               WED 10/01/97 11:51 Page:77
--  Include file information  --

   XSC_PERR_C.:XSA1TOU  is referenced.
   UM_CP6.:E05OU  is referenced.
   XSP_ASN1_M.:XSA1TOU  is referenced.
   XSP_PRESENTATION_M.:XSA1TOU  is referenced.
   XSP_PRESENTATION_E.:XSA1TOU  is referenced.
   XSC_INTERNAL_M.:XSA1TOU  is referenced.
   XSC_INTERNAL_E.:XSA1TOU  is referenced.
   XSC_ACSE_M.:XSA1TOU  is referenced.
   XSC_ACSE_E.:XSA1TOU  is referenced.
   B$JIT_C.:LIB_E05  is referenced.
   B_SEGIDS_C.:LIB_E05  is referenced.
      No diagnostics issued in procedure XSC$ACSE.

   Procedure XSC$ACSE requires 464 words for executable code.
   Procedure XSC$ACSE requires 32 words of local(AUTO) storage.

PL6.E3A0      #004=XSC$ACSE File=XSC$ACSE.:XSA1TSI                               WED 10/01/97 11:51 Page:78

 Object Unit name= XSC$ACSE                                   File name= XSC$ACSE.:XSA1TOU
 UTS= OCT 01 '97 11:51:46.20 WED                              Compiler= PL-6/E31         Sev=      00
 SharedLib= :SHARED_SYSTEM                                    Alt SharedLib=


    ****  Control sections  ****

 Sect   Type Bound  Init  Size OctSiz  Section name(segment info)
    0  RoData even  UTS     22     26  XSC$ACSE
    1   Proc  even  none   464    720  XSC$ACSE
    2  RoData even  none    22     26  XSC$ACSE

    ****  Entry defs  ****

                              Check   Calling
                             calling  sequence
  Sect OctLoc Primary Altret sequence   type   Parms  Name
     1      0   yes    yes     yes      Std        1  XSC$ACSE
PL6.E3A0      #004=XSC$ACSE File=XSC$ACSE.:XSA1TSI                               WED 10/01/97 11:51 Page:79

  ****  Data defs  ****

 Sect OctLoc  Name                           Sect OctLoc  Name
    0      0  XSC_E$RDONLYFPT                    0      1  XSC_E$BADCID
    0      2  XSC_E$BADFNC                       0      3  XSC_E$STATE
    0      4  XSC_E$ABRTSRC                      0      5  XSC_E$ACN
    0      6  XSC_E$CTXT                         0      7  XSC_E$CTXTID
    0     10  XSC_E$DATA                         0     11  XSC_E$IAEID
    0     12  XSC_E$IAEQ                         0     13  XSC_E$IAPID
    0     14  XSC_E$IAPT                         0     15  XSC_E$IMPL
    0     16  XSC_E$NXTX                         0     17  XSC_E$RAEID
    0     20  XSC_E$RAEQ                         0     21  XSC_E$RAPID
    0     22  XSC_E$RAPT                         0     23  XSC_E$REASON
    0     24  XSC_E$RESULT                       0     25  XSC_E$RSDIAG

  ****  Entry refs  ****

         Check        Calling
        calling       sequence
Altret sequence SRef   type   Args  Name
         yes           Std       1 XSS$SCREECH
 yes     yes           Std       2 XSC$CTXPTR
 yes     yes           Std       1 XSC$RESOLVE
         yes           Std       1 XSC$DUMPFPT
 yes     yes           Std       1 XSC$AMACHINE
                       nStd      0 X66_AUTO_1
                       nStd      0 X66_AALT
                       nStd      0 X66_ARET

  ****  Data refs  ****

  Flags:  r = read only, s = secondary
Flgs Name                             Flgs Name                             Flgs Name
     XSC_VBLK                              B$JIT$                                XSS_TRACE
PL6.E3A0      #004=XSC$ACSE File=XSC$ACSE.:XSA1TSI                               WED 10/01/97 11:51 Page:80

  ****  Segment refs  ****

  Flags:  r = read only, s = secondary
Flgs Name                             Flgs Name                             Flgs Name
     NULLSID                               ISSID
PL6.E3A0      #004=XSC$ACSE File=XSC$ACSE.:XSA1TSI                               WED 10/01/97 11:51 Page:81


      249        1        /*T***********************************************************/
      250        2        /*T*                                                         */
      251        3        /*T* Copyright (c) Bull HN Information Systems Inc., 1997    */
      252        4        /*T*                                                         */
      253        5        /*T***********************************************************/
      254        6        /*F*    NAME:   XSC$ACSE
      255        7
      256        8                XSC$ACSE is the sole entry to the ACSE (Application Control Service
      257        9                Elements) portion of the ISO Application layer from an application.
      258       10                The programmer fills in the necessary parameters in an ACSE param
      259       11                block and calls this routine.
      260       12
      261       13                If the desired request is carried out successfully, this routine
      262       14                RETURNs.  Otherwise, the ALTRETURN is taken after the parameter
      263       15                block field ERROR is filled in with the appropriate error code.
      264       16        */
      265       17        XSC$ACSE: PROC( CFPT) ALTRET;

     17  1 000000   000000 700200 xent  XSC$ACSE     TSX0  ! X66_AUTO_1
         1 000001   000040 000001                    ZERO    32,1

      266       18        %INCLUDE B_SEGIDS_C;
      267      557        %INCLUDE B$JIT_C;
      268      871            %B$JIT0;
      269      960            %U$JIT1X;
      270      963            %M$JIT2;
      271      973            %F$JIT3X;
      272      976            %S$JIT4X;
      273      979            %J$JIT5X;
      274      982            %A$JIT6X;
      275      985        %INCLUDE XSC_ACSE_E;
      276     1063        %INCLUDE XSC_ACSE_M;
      277     1372            %XSC$PRIMITIVES( STCLASS="BASED( CFPT$)");
      278     1685            %XSC$GENERIC( FPTN=CFPT, STCLASS="");
      279     1744        %INCLUDE XSC_INTERNAL_E;
      280     1832        %INCLUDE XSC_INTERNAL_M;
PL6.E3A0      #004=XSC$ACSE File=XSC$ACSE.:XSA1TSI                               WED 10/01/97 11:51 Page:82
      281     2177            %XSC$VBLK( NAME=XSC_VBLK, STCLASS=SYMREF);
      282     2283            %XSC$CCTX( NAME=CCTX, STCLASS="BASED( CTX$)");
      283     2329            %XSC$VBLK( NAME=VBLK, STCLASS=AUTO);
      284     2435        %INCLUDE XSP_PRESENTATION_E;
      285     2534        %INCLUDE XSP_PRESENTATION_M;
      286     4020            %XSP$CTXTLIST( NAME=CLST);
      287     4047        %INCLUDE XSP_ASN1_M;
      288     4393            %XSP_ASN1_FPT( FPTN=AFPT, STCLASS="BASED( AFPT$)");
      289     4413        %INCLUDE UM_CP6;
      290     5265        %MACRO ERRORDEF( NAME=XSC_ERROR, STCLASS="CONSTANT SYMDEF", LVL=1, LAST=";",
      291     5266                         ERR#=0, SEV=0);
      292     5267            %VLP_ERRCODE( FPTN=NAME, STCLASS=STCLASS, FCG='XS', MID='C',
      293     5268                          MON='0'B, ERR#=ERR#, SEV=SEV);
      294     5269        %MEND;
      295     5270        %INCLUDE XSC_PERR_C;
      296     5347            %ERRORDEF( NAME=XSC_E$RDONLYFPT, ERR#=%E$RDONLYFPT);
      297     5395            /*E*  ERROR:  XSC-E$RDONLYFPT-0
      298     5396                MESSAGE:  FPT is read-only; must be writeable.
      299     5397            */
      300     5398            %ERRORDEF( NAME=XSC_E$BADCID, ERR#=%E$BADCID);
      301     5446            /*E*  ERROR:  XSC-E$BADCID-0
      302     5447                MESSAGE:  Illegal connection identifier.
      303     5448            */
      304     5449            %ERRORDEF( NAME=XSC_E$BADFNC, ERR#=%E$BADFNC);
      305     5497            /*E*  ERROR:  XSC-E$BADFNC-0
      306     5498                MESSAGE:  Illegal function code.
      307     5499            */
      308     5500            %ERRORDEF( NAME=XSC_E$STATE, ERR#=%E$STATE);
      309     5548            /*E*  ERROR:  XSC-E$STATE-0
      310     5549                MESSAGE:  Connection state prevents this action.
      311     5550            */
      312     5551            %ERRORDEF( NAME=XSC_E$ABRTSRC, ERR#=%E$ABRTSRC);
      313     5599            /*E*  ERROR:  XSC-E$ABRTSRC-0
      314     5600                MESSAGE:  ABRTSRC contains an illegal value.
      315     5601            */
      316     5602            %ERRORDEF( NAME=XSC_E$ACN, ERR#=%E$ACN);
      317     5650            /*E*  ERROR:  XSC-E$ACN-0
PL6.E3A0      #004=XSC$ACSE File=XSC$ACSE.:XSA1TSI                               WED 10/01/97 11:51 Page:83
      318     5651                MESSAGE:  ACN$ contains an illegal value.
      319     5652            */
      320     5653            %ERRORDEF( NAME=XSC_E$CTXT, ERR#=%E$CTXT);
      321     5701            /*E*  ERROR:  XSC-E$CTXT-0
      322     5702                MESSAGE:  CTXT$ contains an illegal value.
      323     5703            */
      324     5704            %ERRORDEF( NAME=XSC_E$CTXTID, ERR#=%E$CTXTID);
      325     5752            /*E*  ERROR:  XSC-E$CTXTID-0
      326     5753                MESSAGE:  XSP_ASN1_FPT.CTXTID contains an illegal value.
      327     5754            */
      328     5755            %ERRORDEF( NAME=XSC_E$DATA, ERR#=%E$DATA);
      329     5803            /*E*  ERROR:  XSC-E$DATA-0
      330     5804                MESSAGE:  DATA$ contains an illegal value.
      331     5805            */
      332     5806            %ERRORDEF( NAME=XSC_E$IAEID, ERR#=%E$IAEID);
      333     5854            /*E*  ERROR:  XSC-E$IAEID-0
      334     5855                MESSAGE:  IAEID contains an illegal value.
      335     5856            */
      336     5857            %ERRORDEF( NAME=XSC_E$IAEQ, ERR#=%E$IAEQ);
      337     5905            /*E*  ERROR:  XSC-E$IAEQ-0
      338     5906                MESSAGE:  IAEQ$ contains an illegal value.
      339     5907            */
      340     5908            %ERRORDEF( NAME=XSC_E$IAPID, ERR#=%E$IAPID);
      341     5956            /*E*  ERROR:  XSC-E$IAPID-0
      342     5957                MESSAGE:  IAPID contains an illegal value.
      343     5958            */
      344     5959            %ERRORDEF( NAME=XSC_E$IAPT, ERR#=%E$IAPT);
      345     6007            /*E*  ERROR:  XSC-E$IAPT-0
      346     6008                MESSAGE:  IAPT$ contains an illegal value.
      347     6009            */
      348     6010            %ERRORDEF( NAME=XSC_E$IMPL, ERR#=%E$IMPL);
      349     6058            /*E*  ERROR:  XSC-E$IMPL-0
      350     6059                MESSAGE:  IMPL$ contains an illegal value.
      351     6060            */
      352     6061            %ERRORDEF( NAME=XSC_E$NXTX, ERR#=%E$NXTX);
      353     6109            /*E*  ERROR:  XSC-E$NXTX-0
      354     6110                MESSAGE:  XSP_ASN1_FPT.NXTX contains an illegal value.
PL6.E3A0      #004=XSC$ACSE File=XSC$ACSE.:XSA1TSI                               WED 10/01/97 11:51 Page:84
      355     6111            */
      356     6112            %ERRORDEF( NAME=XSC_E$RAEID, ERR#=%E$RAEID);
      357     6160            /*E*  ERROR:  XSC-E$RAEID-0
      358     6161                MESSAGE:  RAEID contains an illegal value.
      359     6162            */
      360     6163            %ERRORDEF( NAME=XSC_E$RAEQ, ERR#=%E$RAEQ);
      361     6211            /*E*  ERROR:  XSC-E$RAEQ-0
      362     6212                MESSAGE:  RAEQ$ contains an illegal value.
      363     6213            */
      364     6214            %ERRORDEF( NAME=XSC_E$RAPID, ERR#=%E$RAPID);
      365     6262            /*E*  ERROR:  XSC-E$RAPID-0
      366     6263                MESSAGE:  RAPID contains an illegal value.
      367     6264            */
      368     6265            %ERRORDEF( NAME=XSC_E$RAPT, ERR#=%E$RAPT);
      369     6313            /*E*  ERROR:  XSC-E$RAPT-0
      370     6314                MESSAGE:  RAPT$ contains an illegal value.
      371     6315            */
      372     6316            %ERRORDEF( NAME=XSC_E$REASON, ERR#=%E$REASON);
      373     6364            /*E*  ERROR:  XSC-E$REASON-0
      374     6365                MESSAGE:  REASON contains an illegal value.
      375     6366            */
      376     6367            %ERRORDEF( NAME=XSC_E$RESULT, ERR#=%E$RESULT);
      377     6415            /*E*  ERROR:  XSC-E$RESULT-0
      378     6416                MESSAGE:  RESULT contains an illegal value.
      379     6417            */
      380     6418            %ERRORDEF( NAME=XSC_E$RSDIAG, ERR#=%E$RSDIAG);
      381     6466            /*E*  ERROR:  XSC-E$RSDIAG-0
      382     6467                MESSAGE:  RSDIAG contains an illegal value.
      383     6468            */
      384     6469
      385     6470    1       DCL XSC$AMACHINE ENTRY(1) ALTRET;
      386     6471    1       DCL XSC$CTXPTR ENTRY(2) ALTRET;
      387     6472    1       DCL XSC$DUMPFPT ENTRY(1);
      388     6473    1       DCL XSC$RESOLVE ENTRY(1) ALTRET;
      389     6474    1       DCL XSS$SCREECH ENTRY(1);
      390     6475
      391     6476    1       DCL B$JIT$ PTR SYMREF;
PL6.E3A0      #004=XSC$ACSE File=XSC$ACSE.:XSA1TSI                               WED 10/01/97 11:51 Page:85
      392     6477    1       DCL XSS_TRACE SBIN SYMREF;
      393     6478
      394     6479    1       DCL AFPT$ PTR;
      395     6480    1       DCL CCID SBIN;
      396     6481    1       DCL TEMP REDEF CCID SBIN;
      397     6482    1       DCL CTX$ PTR;
      398     6483    1       DCL CFPT$ PTR;
      399     6484    1       DCL 1 PX REDEF CFPT$,
      400     6485    1            2 OFFSET UBIN(18) UNAL,
      401     6486    1            2 * BIT(6) UNAL,
      402     6487    1            2 SEGID BIT(12) UNAL;
      403     6488        %EJECT;
PL6.E3A0      #004=XSC$ACSE File=XSC$ACSE.:XSA1TSI                               WED 10/01/97 11:51 Page:86
      404     6489    1       CFPT$ = ADDR( CFPT);

   6489  1 000002   200003 236100                    LDQ     @CFPT,,AUTO
         1 000003   200016 756100                    STQ     CFPT$,,AUTO

      405     6490    2       IF PX.SEGID = %ISSID THEN DO;

   6490  1 000004   200016 236100                    LDQ     CFPT$,,AUTO
         1 000005   007777 376007                    ANQ     4095,DL
         1 000006   006000 116007                    CMPQ    3072,DL
         1 000007   000037 601000 1                  TNZ     s:6500

      406     6491    2           TEMP = 64 + PX.OFFSET / 1024;  /* page number of FPT's page */

   6491  1 000010   200016 236100                    LDQ     CFPT$,,AUTO
         1 000011   000022 772000                    QRL     18
         1 000012   000012 772000                    QRL     10
         1 000013   000100 036007                    ADLQ    64,DL
         1 000014   200014 756100                    STQ     CCID,,AUTO

      407     6492    3           IF TEMP >= B$JIT.PLL AND TEMP <= B$JIT.PUL THEN DO;

   6492  1 000015   000000 470400 xsym               LDP0    B$JIT$
         1 000016   000176 236100                    LDQ     126,,PR0
         1 000017   000022 772000                    QRL     18
         1 000020   200014 116100                    CMPQ    CCID,,AUTO
         1 000021   000037 605400 1                  TPNZ    s:6500
         1 000022   000176 236100                    LDQ     126,,PR0
         1 000023   777777 376007                    ANQ     -1,DL
         1 000024   200014 116100                    CMPQ    CCID,,AUTO
         1 000025   000037 604000 1                  TMI     s:6500

      408     6493                    /* user's FPT was allocated in constant storage */
      409     6494    3               IF XSC$GENERIC.ERROR = XSC_E$RDONLYFPT THEN

   6494  1 000026   200016 471500                    LDP1    CFPT$,,AUTO
         1 000027   100001 236100                    LDQ     1,,PR1
PL6.E3A0      #004=XSC$ACSE File=XSC$ACSE.:XSA1TSI                               WED 10/01/97 11:51 Page:87
         1 000030   000000 116000 0                  CMPQ    XSC_E$RDONLYFPT
         1 000031   000033 601000 1                  TNZ     s:6496

      410     6495    3                   ALTRETURN;

   6495  1 000032   000000 702200 xent               TSX2  ! X66_AALT

      411     6496    3               CALL XSS$SCREECH( XSC_E$RDONLYFPT);

   6496  1 000033   000001 630400 2                  EPPR0   1
         1 000034   000000 631400 2                  EPPR1   0
         1 000035   000000 701000 xent               TSX1    XSS$SCREECH
         1 000036   000000 011000                    NOP     0

      412     6497    3               END;

      413     6498    2           END;

      414     6499            /* Initialize returned error code */
      415     6500    1       XSC$GENERIC.ERROR = '0'B;

   6500  1 000037   200016 470500                    LDP0    CFPT$,,AUTO
         1 000040   000001 450100                    STZ     1,,PR0

      416     6501            /* Initialize AUTO copy of VBLK structure */
      417     6502    1       VBLK = XSC_VBLK;

   6502  1 000041   000100 100400                    MLR     fill='000'O
         1 000042   000000 000034 xsym               ADSC9   XSC_VBLK                 cn=0,n=28
         1 000043   200004 000034                    ADSC9   VBLK,,AUTO               cn=0,n=28

      418     6503    1       VBLK.FPT$ = CFPT$;

   6503  1 000044   200016 236100                    LDQ     CFPT$,,AUTO
         1 000045   200005 756100                    STQ     VBLK+1,,AUTO

      419     6504            /* Determine which connection is being referred to */
PL6.E3A0      #004=XSC$ACSE File=XSC$ACSE.:XSA1TSI                               WED 10/01/97 11:51 Page:88
      420     6505    1       CCID = XSC$GENERIC.CCID;

   6505  1 000046   000000 236100                    LDQ     0,,PR0
         1 000047   000022 772000                    QRL     18
         1 000050   000777 376007                    ANQ     511,DL
         1 000051   200014 756100                    STQ     CCID,,AUTO

      421     6506    1       CALL XSC$CTXPTR( CCID, CTX$)

   6506  1 000052   200015 631500                    EPPR1   CTX$,,AUTO
         1 000053   200037 451500                    STP1    LOWER+3,,AUTO
         1 000054   200014 633500                    EPPR3   CCID,,AUTO
         1 000055   200036 453500                    STP3    LOWER+2,,AUTO
         1 000056   200036 630500                    EPPR0   LOWER+2,,AUTO
         1 000057   000002 631400 2                  EPPR1   2
         1 000060   000000 701000 xent               TSX1    XSC$CTXPTR
         1 000061   000063 702000 1                  TSX2    s:6508
         1 000062   000067 710000 1                  TRA     s:6512

      422     6507    2       WHENALTRETURN DO;

      423     6508    2           XSC$GENERIC.ERROR = XSC_E$BADCID;

   6508  1 000063   000001 236000 0                  LDQ     XSC_E$BADCID
         1 000064   200016 470500                    LDP0    CFPT$,,AUTO
         1 000065   000001 756100                    STQ     1,,PR0

      424     6509    2           ALTRETURN;

   6509  1 000066   000000 702200 xent               TSX2  ! X66_AALT

      425     6510    2           END;
      426     6511            /* Update AUTO VBLK context ptr */
      427     6512    1       VBLK.CTX$ = CTX$;

   6512  1 000067   200015 236100                    LDQ     CTX$,,AUTO
         1 000070   200004 756100                    STQ     VBLK,,AUTO
PL6.E3A0      #004=XSC$ACSE File=XSC$ACSE.:XSA1TSI                               WED 10/01/97 11:51 Page:89

      428     6513        %EJECT;
PL6.E3A0      #004=XSC$ACSE File=XSC$ACSE.:XSA1TSI                               WED 10/01/97 11:51 Page:90
      429     6514            /* Split depending on the ACSE function code requested */
      430     6515    2       DO CASE( XSC$GENERIC.FNC);

   6515  1 000071   200016 470500                    LDP0    CFPT$,,AUTO
         1 000072   000000 236100                    LDQ     0,,PR0
         1 000073   000033 772000                    QRL     27
         1 000074   000012 116007                    CMPQ    10,DL
         1 000075   000077 602006 1                  TNC     s:6515+6,QL
         1 000076   000433 710000 1                  TRA     s:6569
         1 000077   000433 710000 1                  TRA     s:6569
         1 000100   000111 710000 1                  TRA     s:6517
         1 000101   000433 710000 1                  TRA     s:6569
         1 000102   000231 710000 1                  TRA     s:6534
         1 000103   000433 710000 1                  TRA     s:6569
         1 000104   000336 710000 1                  TRA     s:6551
         1 000105   000433 710000 1                  TRA     s:6569
         1 000106   000360 710000 1                  TRA     s:6556
         1 000107   000433 710000 1                  TRA     s:6569
         1 000110   000411 710000 1                  TRA     s:6564

      431     6516    2           CASE( %XSC_FNC_AASCREQ#);

      432     6517    2               CALL CKTXTH( XSC_E$ACN, XSC$ASSOCIATE.ACN$, %XSC_MAXACN#)

   6517  1 000111   000004 236000 2                  LDQ     4
         1 000112   200032 756100                    STQ     @UB+1,,AUTO
         1 000113   000005 236000 2                  LDQ     5
         1 000114   200031 756100                    STQ     @PTR$+1,,AUTO
         1 000115   200016 236100                    LDQ     CFPT$,,AUTO
         1 000116   000003 036003                    ADLQ    3,DU
         1 000117   200030 756100                    STQ     @ERR+1,,AUTO
         1 000120   000006 236000 2                  LDQ     6
         1 000121   200027 756100                    STQ     ZILCH+2,,AUTO
         1 000122   000552 701000 1                  TSX1    CKTXTH
         1 000123   000460 702000 1                  TSX2    GETOUT

      433     6518    2                       ALTRET( GETOUT);
PL6.E3A0      #004=XSC$ACSE File=XSC$ACSE.:XSA1TSI                               WED 10/01/97 11:51 Page:91
      434     6519    2               CALL CKTXTC( XSC_E$IAPT, XSC$ASSOCIATE.IAPT$, %XSC_MAXAPT#)

   6519  1 000124   000004 236000 2                  LDQ     4
         1 000125   200032 756100                    STQ     @UB+1,,AUTO
         1 000126   000010 236000 2                  LDQ     8
         1 000127   200031 756100                    STQ     @PTR$+1,,AUTO
         1 000130   200016 236100                    LDQ     CFPT$,,AUTO
         1 000131   000004 036003                    ADLQ    4,DU
         1 000132   200030 756100                    STQ     @ERR+1,,AUTO
         1 000133   000011 236000 2                  LDQ     9
         1 000134   200027 756100                    STQ     ZILCH+2,,AUTO
         1 000135   000536 701000 1                  TSX1    CKTXTC
         1 000136   000460 702000 1                  TSX2    GETOUT

      435     6520    2                       ALTRET( GETOUT);
      436     6521    2               CALL CKTXTC( XSC_E$IAEQ, XSC$ASSOCIATE.IAEQ$, %XSC_MAXAEQ#)

   6521  1 000137   000004 236000 2                  LDQ     4
         1 000140   200032 756100                    STQ     @UB+1,,AUTO
         1 000141   000010 236000 2                  LDQ     8
         1 000142   200031 756100                    STQ     @PTR$+1,,AUTO
         1 000143   200016 236100                    LDQ     CFPT$,,AUTO
         1 000144   000005 036003                    ADLQ    5,DU
         1 000145   200030 756100                    STQ     @ERR+1,,AUTO
         1 000146   000012 236000 2                  LDQ     10
         1 000147   200027 756100                    STQ     ZILCH+2,,AUTO
         1 000150   000536 701000 1                  TSX1    CKTXTC
         1 000151   000460 702000 1                  TSX2    GETOUT

      437     6522    2                       ALTRET( GETOUT);
      438     6523    2               CALL CKTXTC( XSC_E$RAPT, XSC$ASSOCIATE.RAPT$, %XSC_MAXAPT#)

   6523  1 000152   000004 236000 2                  LDQ     4
         1 000153   200032 756100                    STQ     @UB+1,,AUTO
         1 000154   000010 236000 2                  LDQ     8
         1 000155   200031 756100                    STQ     @PTR$+1,,AUTO
         1 000156   200016 236100                    LDQ     CFPT$,,AUTO
PL6.E3A0      #004=XSC$ACSE File=XSC$ACSE.:XSA1TSI                               WED 10/01/97 11:51 Page:92
         1 000157   000010 036003                    ADLQ    8,DU
         1 000160   200030 756100                    STQ     @ERR+1,,AUTO
         1 000161   000013 236000 2                  LDQ     11
         1 000162   200027 756100                    STQ     ZILCH+2,,AUTO
         1 000163   000536 701000 1                  TSX1    CKTXTC
         1 000164   000460 702000 1                  TSX2    GETOUT

      439     6524    2                       ALTRET( GETOUT);
      440     6525    2               CALL CKTXTC( XSC_E$RAEQ, XSC$ASSOCIATE.RAEQ$, %XSC_MAXAEQ#)

   6525  1 000165   000004 236000 2                  LDQ     4
         1 000166   200032 756100                    STQ     @UB+1,,AUTO
         1 000167   000010 236000 2                  LDQ     8
         1 000170   200031 756100                    STQ     @PTR$+1,,AUTO
         1 000171   200016 236100                    LDQ     CFPT$,,AUTO
         1 000172   000011 036003                    ADLQ    9,DU
         1 000173   200030 756100                    STQ     @ERR+1,,AUTO
         1 000174   000014 236000 2                  LDQ     12
         1 000175   200027 756100                    STQ     ZILCH+2,,AUTO
         1 000176   000536 701000 1                  TSX1    CKTXTC
         1 000177   000460 702000 1                  TSX2    GETOUT

      441     6526    2                       ALTRET( GETOUT);
      442     6527    2               ;  /*N* validate IMPL$ */
      443     6528    2               CALL CKCTXT( XSC_E$CTXT, XSC$ASSOCIATE.CTXT$) ALTRET( GETOUT);

   6528  1 000200   200016 236100                    LDQ     CFPT$,,AUTO
         1 000201   000015 036003                    ADLQ    13,DU
         1 000202   200022 756100                    STQ     @ERR+1,,AUTO
         1 000203   000015 236000 2                  LDQ     13
         1 000204   200021 756100                    STQ     CFPT$+3,,AUTO
         1 000205   000566 701000 1                  TSX1    CKCTXT
         1 000206   000460 702000 1                  TSX2    GETOUT

      444     6529    2               CALL CKDATA( XSC_E$DATA, XSC$ASSOCIATE.DATA$, %XSC_MAXDATA#)

   6529  1 000207   000004 236000 2                  LDQ     4
PL6.E3A0      #004=XSC$ACSE File=XSC$ACSE.:XSA1TSI                               WED 10/01/97 11:51 Page:93
         1 000210   200032 756100                    STQ     @UB+1,,AUTO
         1 000211   000017 236000 2                  LDQ     15
         1 000212   200031 756100                    STQ     @PTR$+1,,AUTO
         1 000213   200016 236100                    LDQ     CFPT$,,AUTO
         1 000214   000002 036003                    ADLQ    2,DU
         1 000215   200030 756100                    STQ     @ERR+1,,AUTO
         1 000216   000020 236000 2                  LDQ     16
         1 000217   200027 756100                    STQ     ZILCH+2,,AUTO
         1 000220   000462 701000 1                  TSX1    CKDATA
         1 000221   000460 702000 1                  TSX2    GETOUT

      445     6530    2                       ALTRET( GETOUT);
      446     6531    2               CALL XSC$RESOLVE( XSC$ASSOCIATE) ALTRET( GETOUT);

   6531  1 000222   200016 630500                    EPPR0   CFPT$,,AUTO
         1 000223   000000 631400 2                  EPPR1   0
         1 000224   000000 701000 xent               TSX1    XSC$RESOLVE
         1 000225   000460 702000 1                  TSX2    GETOUT

      447     6532    2               VBLK.EVENT = %XSC_CEV_AASCREQ;

   6532  1 000226   000014 236007                    LDQ     12,DL
         1 000227   200012 552104                    STBQ    VBLK+6,'04'O,AUTO
         1 000230   000436 710000 1                  TRA     s:6572

      448     6533    2           CASE( %XSC_FNC_AASCRSP#);

      449     6534    2               CALL CKTXTH( XSC_E$ACN, XSC$ASSOCIATE.ACN$, %XSC_MAXACN#)

   6534  1 000231   000004 236000 2                  LDQ     4
         1 000232   200032 756100                    STQ     @UB+1,,AUTO
         1 000233   000005 236000 2                  LDQ     5
         1 000234   200031 756100                    STQ     @PTR$+1,,AUTO
         1 000235   200016 236100                    LDQ     CFPT$,,AUTO
         1 000236   000003 036003                    ADLQ    3,DU
         1 000237   200030 756100                    STQ     @ERR+1,,AUTO
         1 000240   000006 236000 2                  LDQ     6
PL6.E3A0      #004=XSC$ACSE File=XSC$ACSE.:XSA1TSI                               WED 10/01/97 11:51 Page:94
         1 000241   200027 756100                    STQ     ZILCH+2,,AUTO
         1 000242   000552 701000 1                  TSX1    CKTXTH
         1 000243   000460 702000 1                  TSX2    GETOUT

      450     6535    2                       ALTRET( GETOUT);
      451     6536    2               CALL CKTXTC( XSC_E$RAPT, XSC$ASSOCIATE.RAPT$, %XSC_MAXAPT#)

   6536  1 000244   000004 236000 2                  LDQ     4
         1 000245   200032 756100                    STQ     @UB+1,,AUTO
         1 000246   000010 236000 2                  LDQ     8
         1 000247   200031 756100                    STQ     @PTR$+1,,AUTO
         1 000250   200016 236100                    LDQ     CFPT$,,AUTO
         1 000251   000010 036003                    ADLQ    8,DU
         1 000252   200030 756100                    STQ     @ERR+1,,AUTO
         1 000253   000013 236000 2                  LDQ     11
         1 000254   200027 756100                    STQ     ZILCH+2,,AUTO
         1 000255   000536 701000 1                  TSX1    CKTXTC
         1 000256   000460 702000 1                  TSX2    GETOUT

      452     6537    2                       ALTRET( GETOUT);
      453     6538    2               CALL CKTXTC( XSC_E$RAEQ, XSC$ASSOCIATE.RAEQ$, %XSC_MAXAEQ#)

   6538  1 000257   000004 236000 2                  LDQ     4
         1 000260   200032 756100                    STQ     @UB+1,,AUTO
         1 000261   000010 236000 2                  LDQ     8
         1 000262   200031 756100                    STQ     @PTR$+1,,AUTO
         1 000263   200016 236100                    LDQ     CFPT$,,AUTO
         1 000264   000011 036003                    ADLQ    9,DU
         1 000265   200030 756100                    STQ     @ERR+1,,AUTO
         1 000266   000014 236000 2                  LDQ     12
         1 000267   200027 756100                    STQ     ZILCH+2,,AUTO
         1 000270   000536 701000 1                  TSX1    CKTXTC
         1 000271   000460 702000 1                  TSX2    GETOUT

      454     6539    2                       ALTRET( GETOUT);
      455     6540    2               ;  /*N* validate IMPL$ */
      456     6541    2               CALL CKCTXT( XSC_E$CTXT, XSC$ASSOCIATE.CTXT$) ALTRET( GETOUT);
PL6.E3A0      #004=XSC$ACSE File=XSC$ACSE.:XSA1TSI                               WED 10/01/97 11:51 Page:95

   6541  1 000272   200016 236100                    LDQ     CFPT$,,AUTO
         1 000273   000015 036003                    ADLQ    13,DU
         1 000274   200022 756100                    STQ     @ERR+1,,AUTO
         1 000275   000015 236000 2                  LDQ     13
         1 000276   200021 756100                    STQ     CFPT$+3,,AUTO
         1 000277   000566 701000 1                  TSX1    CKCTXT
         1 000300   000460 702000 1                  TSX2    GETOUT

      457     6542    2               CALL CKDATA( XSC_E$DATA, XSC$ASSOCIATE.DATA$, %XSC_MAXDATA#)

   6542  1 000301   000004 236000 2                  LDQ     4
         1 000302   200032 756100                    STQ     @UB+1,,AUTO
         1 000303   000017 236000 2                  LDQ     15
         1 000304   200031 756100                    STQ     @PTR$+1,,AUTO
         1 000305   200016 236100                    LDQ     CFPT$,,AUTO
         1 000306   000002 036003                    ADLQ    2,DU
         1 000307   200030 756100                    STQ     @ERR+1,,AUTO
         1 000310   000020 236000 2                  LDQ     16
         1 000311   200027 756100                    STQ     ZILCH+2,,AUTO
         1 000312   000462 701000 1                  TSX1    CKDATA
         1 000313   000460 702000 1                  TSX2    GETOUT

      458     6543    2                       ALTRET( GETOUT);
      459     6544    2               CALL CKRSLT( XSC_E$RESULT) ALTRET( GETOUT);

   6544  1 000314   000021 236000 2                  LDQ     17
         1 000315   200021 756100                    STQ     CFPT$+3,,AUTO
         1 000316   000646 701000 1                  TSX1    CKRSLT
         1 000317   000460 702000 1                  TSX2    GETOUT

      460     6545    2               CALL XSC$RESOLVE( XSC$ASSOCIATE) ALTRET( GETOUT);

   6545  1 000320   200016 630500                    EPPR0   CFPT$,,AUTO
         1 000321   000000 631400 2                  EPPR1   0
         1 000322   000000 701000 xent               TSX1    XSC$RESOLVE
         1 000323   000460 702000 1                  TSX2    GETOUT
PL6.E3A0      #004=XSC$ACSE File=XSC$ACSE.:XSA1TSI                               WED 10/01/97 11:51 Page:96

      461     6546    2               IF XSC$ASSOCIATE.RESULT = 0 THEN

   6546  1 000324   200016 470500                    LDP0    CFPT$,,AUTO
         1 000325   000000 236100                    LDQ     0,,PR0
         1 000326   000777 316007                    CANQ    511,DL
         1 000327   000333 601000 1                  TNZ     s:6549

      462     6547    2                   VBLK.EVENT = %XSC_CEV_AASCRSP;

   6547  1 000330   000016 236007                    LDQ     14,DL
         1 000331   200012 552104                    STBQ    VBLK+6,'04'O,AUTO
         1 000332   000436 710000 1                  TRA     s:6572

      463     6548    2               ELSE
      464     6549    2                   VBLK.EVENT = %XSC_CEV_AASCRSN;

   6549  1 000333   000020 236007                    LDQ     16,DL
         1 000334   200012 552104                    STBQ    VBLK+6,'04'O,AUTO
         1 000335   000436 710000 1                  TRA     s:6572

      465     6550    2           CASE( %XSC_FNC_ARELREQ#);

      466     6551    2               CALL CKDATA( XSC_E$DATA, XSC$RELEASE.DATA$, %XSC_MAXDATA#)

   6551  1 000336   000004 236000 2                  LDQ     4
         1 000337   200032 756100                    STQ     @UB+1,,AUTO
         1 000340   000017 236000 2                  LDQ     15
         1 000341   200031 756100                    STQ     @PTR$+1,,AUTO
         1 000342   200016 236100                    LDQ     CFPT$,,AUTO
         1 000343   000002 036003                    ADLQ    2,DU
         1 000344   200030 756100                    STQ     @ERR+1,,AUTO
         1 000345   000020 236000 2                  LDQ     16
         1 000346   200027 756100                    STQ     ZILCH+2,,AUTO
         1 000347   000462 701000 1                  TSX1    CKDATA
         1 000350   000460 702000 1                  TSX2    GETOUT

PL6.E3A0      #004=XSC$ACSE File=XSC$ACSE.:XSA1TSI                               WED 10/01/97 11:51 Page:97
      467     6552    2                       ALTRET( GETOUT);
      468     6553    2               CALL CKRELREQRSN( XSC_E$REASON) ALTRET( GETOUT);

   6553  1 000351   000022 236000 2                  LDQ     18
         1 000352   200021 756100                    STQ     CFPT$+3,,AUTO
         1 000353   000667 701000 1                  TSX1    CKRELREQRSN
         1 000354   000460 702000 1                  TSX2    GETOUT

      469     6554    2               VBLK.EVENT = %XSC_CEV_ARELREQ;

   6554  1 000355   000022 236007                    LDQ     18,DL
         1 000356   200012 552104                    STBQ    VBLK+6,'04'O,AUTO
         1 000357   000436 710000 1                  TRA     s:6572

      470     6555    2           CASE( %XSC_FNC_ARELRSP#);

      471     6556    2               CALL CKDATA( XSC_E$DATA, XSC$RELEASE.DATA$, %XSC_MAXDATA#)

   6556  1 000360   000004 236000 2                  LDQ     4
         1 000361   200032 756100                    STQ     @UB+1,,AUTO
         1 000362   000017 236000 2                  LDQ     15
         1 000363   200031 756100                    STQ     @PTR$+1,,AUTO
         1 000364   200016 236100                    LDQ     CFPT$,,AUTO
         1 000365   000002 036003                    ADLQ    2,DU
         1 000366   200030 756100                    STQ     @ERR+1,,AUTO
         1 000367   000020 236000 2                  LDQ     16
         1 000370   200027 756100                    STQ     ZILCH+2,,AUTO
         1 000371   000462 701000 1                  TSX1    CKDATA
         1 000372   000460 702000 1                  TSX2    GETOUT

      472     6557    2                       ALTRET( GETOUT);
      473     6558    2               CALL CKRELRSPRSN( XSC_E$REASON) ALTRET( GETOUT);

   6558  1 000373   000022 236000 2                  LDQ     18
         1 000374   200021 756100                    STQ     CFPT$+3,,AUTO
         1 000375   000700 701000 1                  TSX1    CKRELRSPRSN
         1 000376   000460 702000 1                  TSX2    GETOUT
PL6.E3A0      #004=XSC$ACSE File=XSC$ACSE.:XSA1TSI                               WED 10/01/97 11:51 Page:98

      474     6559    2               IF XSC$RELEASE.REASON = 0 THEN

   6559  1 000377   200016 470500                    LDP0    CFPT$,,AUTO
         1 000400   000000 236100                    LDQ     0,,PR0
         1 000401   777000 316007                    CANQ    -512,DL
         1 000402   000406 601000 1                  TNZ     s:6562

      475     6560    2                   VBLK.EVENT = %XSC_CEV_ARELRSP;

   6560  1 000403   000024 236007                    LDQ     20,DL
         1 000404   200012 552104                    STBQ    VBLK+6,'04'O,AUTO
         1 000405   000436 710000 1                  TRA     s:6572

      476     6561    2               ELSE
      477     6562    2                   VBLK.EVENT = %XSC_CEV_ARELRSN;

   6562  1 000406   000026 236007                    LDQ     22,DL
         1 000407   200012 552104                    STBQ    VBLK+6,'04'O,AUTO
         1 000410   000436 710000 1                  TRA     s:6572

      478     6563    2           CASE( %XSC_FNC_AUABREQ#);

      479     6564    2               CALL CKDATA( XSC_E$DATA, XSC$U_ABORT.DATA$, %XSC_MAXDATA#)

   6564  1 000411   000004 236000 2                  LDQ     4
         1 000412   200032 756100                    STQ     @UB+1,,AUTO
         1 000413   000017 236000 2                  LDQ     15
         1 000414   200031 756100                    STQ     @PTR$+1,,AUTO
         1 000415   200016 236100                    LDQ     CFPT$,,AUTO
         1 000416   000002 036003                    ADLQ    2,DU
         1 000417   200030 756100                    STQ     @ERR+1,,AUTO
         1 000420   000020 236000 2                  LDQ     16
         1 000421   200027 756100                    STQ     ZILCH+2,,AUTO
         1 000422   000462 701000 1                  TSX1    CKDATA
         1 000423   000460 702000 1                  TSX2    GETOUT

PL6.E3A0      #004=XSC$ACSE File=XSC$ACSE.:XSA1TSI                               WED 10/01/97 11:51 Page:99
      480     6565    2                       ALTRET( GETOUT);
      481     6566    2               CALL CKABRTSRC( XSC_E$ABRTSRC) ALTRET( GETOUT);

   6566  1 000424   000023 236000 2                  LDQ     19
         1 000425   200021 756100                    STQ     CFPT$+3,,AUTO
         1 000426   000711 701000 1                  TSX1    CKABRTSRC
         1 000427   000460 702000 1                  TSX2    GETOUT

      482     6567    2               VBLK.EVENT = %XSC_CEV_AUABREQ;

   6567  1 000430   000030 236007                    LDQ     24,DL
         1 000431   200012 552104                    STBQ    VBLK+6,'04'O,AUTO
         1 000432   000436 710000 1                  TRA     s:6572

      483     6568    2           CASE( ELSE);

      484     6569    2               XSC$GENERIC.ERROR = XSC_E$BADFNC;

   6569  1 000433   000002 236000 0                  LDQ     XSC_E$BADFNC
         1 000434   000001 756100                    STQ     1,,PR0

      485     6570    2               ALTRETURN;

   6570  1 000435   000000 702200 xent               TSX2  ! X66_AALT

      486     6571    2           END;

      487     6572    1       IF XSS_TRACE > 0 THEN

   6572  1 000436   000000 235000 xsym               LDA     XSS_TRACE
         1 000437   000444 604400 1                  TMOZ    s:6574

      488     6573    1           CALL XSC$DUMPFPT( XSC$GENERIC);

   6573  1 000440   200016 630500                    EPPR0   CFPT$,,AUTO
         1 000441   000000 631400 2                  EPPR1   0
         1 000442   000000 701000 xent               TSX1    XSC$DUMPFPT
PL6.E3A0      #004=XSC$ACSE File=XSC$ACSE.:XSA1TSI                               WED 10/01/97 11:51 Page:100
         1 000443   000000 011000                    NOP     0

      489     6574    1       CALL XSC$AMACHINE( VBLK)

   6574  1 000444   200004 630500                    EPPR0   VBLK,,AUTO
         1 000445   200036 450500                    STP0    LOWER+2,,AUTO
         1 000446   200036 630500                    EPPR0   LOWER+2,,AUTO
         1 000447   000000 631400 2                  EPPR1   0
         1 000450   000000 701000 xent               TSX1    XSC$AMACHINE
         1 000451   000453 702000 1                  TSX2    ABORT
         1 000452   000461 710000 1                  TRA     s:6582

      490     6575    2       WHENALTRETURN DO;

      491     6576    2   ABORT:
      492     6577    2           IF XSC$GENERIC.ERROR = '0'O THEN

   6577  1 000453   200016 470500       ABORT        LDP0    CFPT$,,AUTO
         1 000454   000001 235100                    LDA     1,,PR0
         1 000455   000460 601000 1                  TNZ     GETOUT

      493     6578    2               XSC$GENERIC.ERROR = XSC_E$STATE;

   6578  1 000456   000003 236000 0                  LDQ     XSC_E$STATE
         1 000457   000001 756100                    STQ     1,,PR0

      494     6579    2   GETOUT:
      495     6580    2           ALTRETURN;

   6580  1 000460   000000 702200 xent  GETOUT       TSX2  ! X66_AALT

      496     6581    2           END;
      497     6582    1       RETURN;

   6582  1 000461   000000 702200 xent               TSX2  ! X66_ARET

      498     6583        %EJECT;
PL6.E3A0      #004=XSC$ACSE File=XSC$ACSE.:XSA1TSI                               WED 10/01/97 11:51 Page:101
      499     6584    1   CKDATA: PROC( ERR, PTR$, UB, LB) ALTRET;

   6584  1 000462   200026 741300       CKDATA       STX1  ! ZILCH+1,,AUTO

      500     6585
      501     6586    2       DCL B$PTR PTR BASED CALIGNED;
      502     6587    2       DCL B$UBIN9 UBIN(9) BASED CALIGNED;
      503     6588    2       DCL B$UBIN18 UBIN(18) BASED HALIGNED;
      504     6589    2       DCL ERR BIT(36) ALIGNED;
      505     6590    2       DCL LB SBIN;  /* lower bound on size of framed data */
      506     6591    2       DCL LEN SBIN;
      507     6592    2       DCL LOWER SBIN;
      508     6593    2       DCL UB SBIN;  /* upper bound on size of framed data */
      509     6594    2       DCL UPPER REDEF UB SBIN;
      510     6595    2       DCL PTR$ PTR;
      511     6596
      512     6597    2       LEN = 0;

   6597  1 000463   200033 450100                    STZ     LEN,,AUTO

      513     6598    2       AFPT$ = PTR$;

   6598  1 000464   200030 470500                    LDP0    @PTR$,,AUTO
         1 000465   000000 236100                    LDQ     0,,PR0
         1 000466   200013 756100                    STQ     AFPT$,,AUTO

      514     6599    3       DO WHILE( AFPT$ ~= ADDR( NIL));

   6599  1 000467   000506 710000 1                  TRA     s:6607

      515     6600    4           IF AFPT.NXTX = 0 THEN DO;

   6600  1 000470   200013 470500                    LDP0    AFPT$,,AUTO
         1 000471   000014 235100                    LDA     12,,PR0
         1 000472   000500 601000 1                  TNZ     s:6604

      516     6601    4               XSC$GENERIC.ERROR = XSC_E$NXTX;
PL6.E3A0      #004=XSC$ACSE File=XSC$ACSE.:XSA1TSI                               WED 10/01/97 11:51 Page:102

   6601  1 000473   000016 236000 0                  LDQ     XSC_E$NXTX
         1 000474   200016 471500                    LDP1    CFPT$,,AUTO
         1 000475   100001 756100                    STQ     1,,PR1

      517     6602    4               ALTRETURN;

   6602  1 000476   200026 221300                    LDX1  ! ZILCH+1,,AUTO
         1 000477   000000 702211                    TSX2  ! 0,X1

      518     6603    4               END;
      519     6604    3           LEN = LEN + AFPT.NXTX;

   6604  1 000500   200033 236100                    LDQ     LEN,,AUTO
         1 000501   000014 036100                    ADLQ    12,,PR0
         1 000502   200033 756100                    STQ     LEN,,AUTO

      520     6605    3           VBLK.DATA.SIZE = LEN;

   6605  1 000503   200011 756100                    STQ     VBLK+5,,AUTO

      521     6606    3           AFPT$ = AFPT.LINK$;

   6606  1 000504   000004 236100                    LDQ     4,,PR0
         1 000505   200013 756100                    STQ     AFPT$,,AUTO

      522     6607    3           END;

   6607  1 000506   000004 116000 2                  CMPQ    4
         1 000507   000470 601000 1                  TNZ     s:6600

      523     6608    2   COMMON:
      524     6609    2       IF ADDR( LB) = ADDR( NIL) THEN

   6609  1 000510   200032 236100       COMMON       LDQ     @LB,,AUTO
         1 000511   000004 116000 2                  CMPQ    4
         1 000512   000515 601000 1                  TNZ     s:6612
PL6.E3A0      #004=XSC$ACSE File=XSC$ACSE.:XSA1TSI                               WED 10/01/97 11:51 Page:103

      525     6610    2           LOWER = 0;

   6610  1 000513   200034 450100                    STZ     LOWER,,AUTO
         1 000514   000520 710000 1                  TRA     s:6613

      526     6611    2       ELSE
      527     6612    2           LOWER = LB;

   6612  1 000515   200032 470500                    LDP0    @LB,,AUTO
         1 000516   000000 235100                    LDA     0,,PR0
         1 000517   200034 755100                    STA     LOWER,,AUTO

      528     6613    3       IF LEN < LOWER OR LEN > UPPER THEN DO;

   6613  1 000520   200033 236100                    LDQ     LEN,,AUTO
         1 000521   200034 116100                    CMPQ    LOWER,,AUTO
         1 000522   000526 604000 1                  TMI     s:6614
         1 000523   200031 470500                    LDP0    @UB,,AUTO
         1 000524   000000 116100                    CMPQ    0,,PR0
         1 000525   000534 604400 1                  TMOZ    s:6617

      529     6614    3           XSC$GENERIC.ERROR = ERR;

   6614  1 000526   200027 470500                    LDP0    @ERR,,AUTO
         1 000527   000000 236100                    LDQ     0,,PR0
         1 000530   200016 471500                    LDP1    CFPT$,,AUTO
         1 000531   100001 756100                    STQ     1,,PR1

      530     6615    3           ALTRETURN;

   6615  1 000532   200026 221300                    LDX1  ! ZILCH+1,,AUTO
         1 000533   000000 702211                    TSX2  ! 0,X1

      531     6616    3           END;
      532     6617    2       RETURN;

PL6.E3A0      #004=XSC$ACSE File=XSC$ACSE.:XSA1TSI                               WED 10/01/97 11:51 Page:104
   6617  1 000534   200026 221300                    LDX1  ! ZILCH+1,,AUTO
         1 000535   000001 702211                    TSX2  ! 1,X1

      533     6618
      534     6619    2   CKTXTC: ENTRY( ERR, PTR$, UB, LB) ALTRET;

   6619  1 000536   200026 741300       CKTXTC       STX1  ! ZILCH+1,,AUTO

      535     6620
      536     6621    2       IF PTR$ = ADDR( NIL) THEN

   6621  1 000537   200030 470500                    LDP0    @PTR$,,AUTO
         1 000540   000000 236100                    LDQ     0,,PR0
         1 000541   000004 116000 2                  CMPQ    4
         1 000542   000545 601000 1                  TNZ     s:6624

      537     6622    2           LEN = 0;

   6622  1 000543   200033 450100                    STZ     LEN,,AUTO
         1 000544   000551 710000 1                  TRA     s:6625

      538     6623    2       ELSE
      539     6624    2           LEN = PTR$->B$UBIN9;

   6624  1 000545   000000 471500                    LDP1    0,,PR0
         1 000546   000100 101500                    MRL     fill='000'O
         1 000547   100000 000001                    ADSC9   0,,PR1                   cn=0,n=1
         1 000550   200033 000004                    ADSC9   LEN,,AUTO                cn=0,n=4

      540     6625    2       GOTO COMMON;

   6625  1 000551   000510 710000 1                  TRA     COMMON

      541     6626
      542     6627    2   CKTXTH: ENTRY( ERR, PTR$, UB, LB) ALTRET;

   6627  1 000552   200026 741300       CKTXTH       STX1  ! ZILCH+1,,AUTO
PL6.E3A0      #004=XSC$ACSE File=XSC$ACSE.:XSA1TSI                               WED 10/01/97 11:51 Page:105

      543     6628
      544     6629    2       IF PTR$ = ADDR( NIL) THEN

   6629  1 000553   200030 470500                    LDP0    @PTR$,,AUTO
         1 000554   000000 236100                    LDQ     0,,PR0
         1 000555   000004 116000 2                  CMPQ    4
         1 000556   000561 601000 1                  TNZ     s:6632

      545     6630    2           LEN = 0;

   6630  1 000557   200033 450100                    STZ     LEN,,AUTO
         1 000560   000565 710000 1                  TRA     s:6633

      546     6631    2       ELSE
      547     6632    2           LEN = PTR$->B$UBIN18;

   6632  1 000561   000000 471500                    LDP1    0,,PR0
         1 000562   000100 101500                    MRL     fill='000'O
         1 000563   100000 000002                    ADSC9   0,,PR1                   cn=0,n=2
         1 000564   200033 000004                    ADSC9   LEN,,AUTO                cn=0,n=4

      548     6633    2       GOTO COMMON;

   6633  1 000565   000510 710000 1                  TRA     COMMON

      549     6634
      550     6635    2       END CKDATA;
      551     6636
      552     6637    1   CKCTXT: PROC( ERR, PTR$) ALTRET;

   6637  1 000566   200020 741300       CKCTXT       STX1  ! CFPT$+2,,AUTO

      553     6638
      554     6639    2       DCL B$PTR PTR BASED CALIGNED;
      555     6640    2       DCL ERR BIT(36) ALIGNED;
      556     6641    2       DCL I SBIN;
PL6.E3A0      #004=XSC$ACSE File=XSC$ACSE.:XSA1TSI                               WED 10/01/97 11:51 Page:106
      557     6642    2       DCL P$ PTR;
      558     6643    2       DCL PTR$ PTR;
      559     6644    2       DCL ZILCH SBIN;
      560     6645
      561     6646    2       IF PTR$ = ADDR( NIL) THEN

   6646  1 000567   200022 470500                    LDP0    @PTR$,,AUTO
         1 000570   000000 236100                    LDQ     0,,PR0
         1 000571   000004 116000 2                  CMPQ    4
         1 000572   000574 601000 1                  TNZ     s:6648

      562     6647    2           RETURN;  /* XSC$GENERIC.CTXT$ is ADDR( NIL).  Fine. */

   6647  1 000573   000001 702211                    TSX2  ! 1,X1

      563     6648    2       ZILCH = 0;

   6648  1 000574   200025 450100                    STZ     ZILCH,,AUTO

      564     6649    3       DO I = 1 TO PTR$->CLST.COUNT(0);

   6649  1 000575   000001 235007                    LDA     1,DL
         1 000576   200023 755100                    STA     I,,AUTO
         1 000577   000626 710000 1                  TRA     s:6659+1

      565     6650    3           P$ = PTR$->CLST.CTXT$( I);

   6650  1 000600   200022 470500                    LDP0    @PTR$,,AUTO
         1 000601   000000 471500                    LDP1    0,,PR0
         1 000602   200023 720100                    LXL0    I,,AUTO
         1 000603   100000 236110                    LDQ     0,X0,PR1
         1 000604   200024 756100                    STQ     P$,,AUTO

      566     6651    3           IF P$ = ADDR( NIL) THEN

   6651  1 000605   000004 116000 2                  CMPQ    4
         1 000606   000611 601000 1                  TNZ     s:6654
PL6.E3A0      #004=XSC$ACSE File=XSC$ACSE.:XSA1TSI                               WED 10/01/97 11:51 Page:107

      567     6652    3               ZILCH = ZILCH + 1;  /* CLST.CTXT$( I) is ADDR( NIL).  O.K. */

   6652  1 000607   200025 054100                    AOS     ZILCH,,AUTO
         1 000610   000625 710000 1                  TRA     s:6659

      568     6653    3           ELSE
      569     6654    3               CALL CKTXTH( ERR, P$, 20, 1)

   6654  1 000611   000025 236000 2                  LDQ     21
         1 000612   200032 756100                    STQ     @LB,,AUTO
         1 000613   000005 236000 2                  LDQ     5
         1 000614   200031 756100                    STQ     @UB,,AUTO
         1 000615   200024 631500                    EPPR1   P$,,AUTO
         1 000616   200030 451500                    STP1    @PTR$,,AUTO
         1 000617   200021 236100                    LDQ     @ERR,,AUTO
         1 000620   200027 756100                    STQ     @ERR,,AUTO
         1 000621   000552 701000 1                  TSX1    CKTXTH
         1 000622   000624 702000 1                  TSX2    s:6657
         1 000623   000625 710000 1                  TRA     s:6659

      570     6655    4               WHENALTRETURN DO;

      571     6656                        /* CLST.CTXT$( I) points at something incorrect */
      572     6657    4                   GOTO GETOUT;

   6657  1 000624   000636 710000 1                  TRA     GETOUT

      573     6658    4                   END;
      574     6659    3           END;

   6659  1 000625   200023 054100                    AOS     I,,AUTO
         1 000626   200022 470500                    LDP0    @PTR$,,AUTO
         1 000627   000000 471500                    LDP1    0,,PR0
         1 000630   200023 236100                    LDQ     I,,AUTO
         1 000631   100000 116100                    CMPQ    0,,PR1
         1 000632   000600 604400 1                  TMOZ    s:6650
PL6.E3A0      #004=XSC$ACSE File=XSC$ACSE.:XSA1TSI                               WED 10/01/97 11:51 Page:108

      575     6660    3       IF ZILCH >= PTR$->CLST.COUNT(0) THEN DO;

   6660  1 000633   200025 236100                    LDQ     ZILCH,,AUTO
         1 000634   100000 116100                    CMPQ    0,,PR1
         1 000635   000644 604000 1                  TMI     s:6666

      576     6661                /* every CLST.CTXT$( I) is ADDR( NIL), or COUNT is zero */
      577     6662    3   GETOUT:
      578     6663    3           XSC$GENERIC.ERROR = ERR;

   6663  1 000636   200021 470500       GETOUT       LDP0    @ERR,,AUTO
         1 000637   000000 236100                    LDQ     0,,PR0
         1 000640   200016 471500                    LDP1    CFPT$,,AUTO
         1 000641   100001 756100                    STQ     1,,PR1

      579     6664    3           ALTRETURN;

   6664  1 000642   200020 221300                    LDX1  ! CFPT$+2,,AUTO
         1 000643   000000 702211                    TSX2  ! 0,X1

      580     6665    3           END;
      581     6666    2       RETURN;

   6666  1 000644   200020 221300                    LDX1  ! CFPT$+2,,AUTO
         1 000645   000001 702211                    TSX2  ! 1,X1

      582     6667
      583     6668    2       END CKCTXT;
      584     6669
      585     6670    1   CKRSLT: PROC( ERR) ALTRET;

   6670  1 000646   200020 741300       CKRSLT       STX1  ! CFPT$+2,,AUTO

      586     6671
      587     6672    2       DCL ERR BIT(36) ALIGNED;
      588     6673
PL6.E3A0      #004=XSC$ACSE File=XSC$ACSE.:XSA1TSI                               WED 10/01/97 11:51 Page:109
      589     6674    3       IF XSC$ASSOCIATE.RESULT > %XSC_RSLT_TRANREJECT# THEN DO;

   6674  1 000647   200016 470500                    LDP0    CFPT$,,AUTO
         1 000650   000000 236100                    LDQ     0,,PR0
         1 000651   000777 376007                    ANQ     511,DL
         1 000652   000003 116007                    CMPQ    3,DL
         1 000653   000662 602000 1                  TNC     s:6679

      590     6675    3   GETOUT:
      591     6676    3           XSC$GENERIC.ERROR = ERR;

   6676  1 000654   200021 470500       GETOUT       LDP0    @ERR,,AUTO
         1 000655   000000 236100                    LDQ     0,,PR0
         1 000656   200016 471500                    LDP1    CFPT$,,AUTO
         1 000657   100001 756100                    STQ     1,,PR1

      592     6677    3           ALTRETURN;

   6677  1 000660   200020 221300                    LDX1  ! CFPT$+2,,AUTO
         1 000661   000000 702211                    TSX2  ! 0,X1

      593     6678    3           END;
      594     6679    2       IF XSC$ASSOCIATE.RSDIAG > %XSC_RSDIAG_BADRAEID# THEN

   6679  1 000662   000000 236100                    LDQ     0,,PR0
         1 000663   777000 376007                    ANQ     -512,DL
         1 000664   013000 116007                    CMPQ    5632,DL
         1 000665   000654 603000 1                  TRC     GETOUT

      595     6680    2           GOTO GETOUT;
      596     6681    2       RETURN;

   6681  1 000666   000001 702211                    TSX2  ! 1,X1

      597     6682
      598     6683    2   CKRELREQRSN: ENTRY( ERR) ALTRET;

PL6.E3A0      #004=XSC$ACSE File=XSC$ACSE.:XSA1TSI                               WED 10/01/97 11:51 Page:110
   6683  1 000667   200020 741300       CKRELREQRSN  STX1  ! CFPT$+2,,AUTO

      599     6684
      600     6685    2       IF XSC$RELEASE.REASON > %XSC_RELREQ_URGENT# AND

   6685  1 000670   200016 470500                    LDP0    CFPT$,,AUTO
         1 000671   000000 236100                    LDQ     0,,PR0
         1 000672   777000 376007                    ANQ     -512,DL
         1 000673   002000 116007                    CMPQ    1024,DL
         1 000674   000677 602000 1                  TNC     s:6688
         1 000675   036000 116007                    CMPQ    15360,DL
         1 000676   000654 601000 1                  TNZ     GETOUT

      601     6686    2               XSC$RELEASE.REASON ~= %XSC_RELREQ_USERDEFINED# THEN
      602     6687    2           GOTO GETOUT;
      603     6688    2       RETURN;

   6688  1 000677   000001 702211                    TSX2  ! 1,X1

      604     6689
      605     6690    2   CKRELRSPRSN: ENTRY( ERR) ALTRET;

   6690  1 000700   200020 741300       CKRELRSPRSN  STX1  ! CFPT$+2,,AUTO

      606     6691
      607     6692    2       IF XSC$RELEASE.REASON > %XSC_RELRSP_NOTFINISHED# AND

   6692  1 000701   200016 470500                    LDP0    CFPT$,,AUTO
         1 000702   000000 236100                    LDQ     0,,PR0
         1 000703   777000 376007                    ANQ     -512,DL
         1 000704   002000 116007                    CMPQ    1024,DL
         1 000705   000710 602000 1                  TNC     s:6695
         1 000706   036000 116007                    CMPQ    15360,DL
         1 000707   000654 601000 1                  TNZ     GETOUT

      608     6693    2               XSC$RELEASE.REASON ~= %XSC_RELRSP_USERDEFINED# THEN
      609     6694    2           GOTO GETOUT;
PL6.E3A0      #004=XSC$ACSE File=XSC$ACSE.:XSA1TSI                               WED 10/01/97 11:51 Page:111
      610     6695    2       RETURN;

   6695  1 000710   000001 702211                    TSX2  ! 1,X1

      611     6696
      612     6697    2   CKABRTSRC: ENTRY( ERR) ALTRET;

   6697  1 000711   200020 741300       CKABRTSRC    STX1  ! CFPT$+2,,AUTO

      613     6698
      614     6699    2       IF XSC$U_ABORT.ABRTSRC > %XSC_ABRTSRC_PROVIDER# THEN

   6699  1 000712   200016 470500                    LDP0    CFPT$,,AUTO
         1 000713   000000 236100                    LDQ     0,,PR0
         1 000714   777000 376007                    ANQ     -512,DL
         1 000715   002000 116007                    CMPQ    1024,DL
         1 000716   000654 603000 1                  TRC     GETOUT

      615     6700    2           GOTO GETOUT;
      616     6701    2       RETURN;

   6701  1 000717   000001 702211                    TSX2  ! 1,X1

XSC_E$RDONLYFPT
 Sect OctLoc
   0     000   302303 000200                                                    ....

XSC_E$BADCID
 Sect OctLoc
   0     001   302303 000010                                                    ....

XSC_E$BADFNC
 Sect OctLoc
   0     002   302303 000020                                                    ....

XSC_E$STATE
 Sect OctLoc
PL6.E3A0      #004=XSC$ACSE File=XSC$ACSE.:XSA1TSI                               WED 10/01/97 11:51 Page:112
   0     003   302303 000030                                                    ....

XSC_E$ABRTSRC
 Sect OctLoc
   0     004   302303 000740                                                    ....

XSC_E$ACN
 Sect OctLoc
   0     005   302303 000750                                                    ....

XSC_E$CTXT
 Sect OctLoc
   0     006   302303 000500                                                    ....

(unnamed)
 Sect OctLoc
   0     007   302303 000510                                                    ....

XSC_E$DATA
 Sect OctLoc
   0     010   302303 000310                                                    ....

(unnamed)
 Sect OctLoc
   0     011   302303 000760                                                    ....

XSC_E$IAEQ
 Sect OctLoc
   0     012   302303 000770                                                    ....

(unnamed)
 Sect OctLoc
   0     013   302303 001000                                                    ....

XSC_E$IAPT
 Sect OctLoc
   0     014   302303 001010                                                    ....
PL6.E3A0      #004=XSC$ACSE File=XSC$ACSE.:XSA1TSI                               WED 10/01/97 11:51 Page:113

(unnamed)
 Sect OctLoc
   0     015   302303 001020                                                    ....

XSC_E$NXTX
 Sect OctLoc
   0     016   302303 000540                                                    ....

(unnamed)
 Sect OctLoc
   0     017   302303 001030                                                    ....

XSC_E$RAEQ
 Sect OctLoc
   0     020   302303 001040                                                    ...

(unnamed)
 Sect OctLoc
   0     021   302303 001050                                                    ...(

XSC_E$RAPT
 Sect OctLoc
   0     022   302303 001060                                                    ...0

XSC_E$REASON
 Sect OctLoc
   0     023   302303 000360                                                    ....

XSC_E$RESULT
 Sect OctLoc
   0     024   302303 000400                                                    ....

(unnamed)
 Sect OctLoc
   0     025   302303 001070                                                    ...8

PL6.E3A0      #004=XSC$ACSE File=XSC$ACSE.:XSA1TSI                               WED 10/01/97 11:51 Page:114
(unnamed)
 Sect OctLoc
   2     000   000001 000000   000000 006000   000002 000000   000000 000024    ................
   2     004   000000 006014   000003 006000   000005 006000   000000 000100    ...............@
   2     010   000007 006000   000014 006000   000012 006000   000022 006000    ................
   2     014   000020 006000   000006 006000   000000 000400   000016 006000    ................
   2     020   000010 006000   000024 006000   000023 006000   000004 006000    ................
   2     024   000000 000001   000024 006000                                    ........
      617     6702
      618     6703    2       END CKRSLT;
      619     6704
      620     6705    1       END XSC$ACSE;
      621     6706        %EOD;

PL6.E3A0      #004=XSC$ACSE File=XSC$ACSE.:XSA1TSI                               WED 10/01/97 11:51 Page:115
--  Include file information  --

   XSC_PERR_C.:XSA1TOU  is referenced.
   UM_CP6.:E05OU  is referenced.
   XSP_ASN1_M.:XSA1TOU  is referenced.
   XSP_PRESENTATION_M.:XSA1TOU  is referenced.
   XSP_PRESENTATION_E.:XSA1TOU  is referenced.
   XSC_INTERNAL_M.:XSA1TOU  is referenced.
   XSC_INTERNAL_E.:XSA1TOU  is referenced.
   XSC_ACSE_M.:XSA1TOU  is referenced.
   XSC_ACSE_E.:XSA1TOU  is referenced.
   B$JIT_C.:LIB_E05  is referenced.
   B_SEGIDS_C.:LIB_E05  is referenced.
      No diagnostics issued in procedure XSC$ACSE.
PL6.E3A0      #004=XSC$ACSE File=XSC$ACSE.:XSA1TSI                               WED 10/01/97 11:51 Page:116

 **** Variables and constants ****

  ****  Section 000 RoData XSC$ACSE

  ****  Scalars and arrays  ****
OctLoc.c.b A Datatyp(siz) R M Lvl/name                 OctLoc.c.b A Datatyp(siz) R M Lvl/name

     4-0-0/w STRC        r     1 XSC_E$ABRTSRC              5-0-0/w STRC        r     1 XSC_E$ACN
     1-0-0/w STRC        r     1 XSC_E$BADCID               2-0-0/w STRC        r     1 XSC_E$BADFNC
     6-0-0/w STRC        r     1 XSC_E$CTXT                10-0-0/w STRC        r     1 XSC_E$DATA
    12-0-0/w STRC        r     1 XSC_E$IAEQ                14-0-0/w STRC        r     1 XSC_E$IAPT
    16-0-0/w STRC        r     1 XSC_E$NXTX                20-0-0/w STRC        r     1 XSC_E$RAEQ
    22-0-0/w STRC        r     1 XSC_E$RAPT                 0-0-0/w STRC        r     1 XSC_E$RDONLYFPT
    23-0-0/w STRC        r     1 XSC_E$REASON              24-0-0/w STRC        r     1 XSC_E$RESULT
     3-0-0/w STRC        r     1 XSC_E$STATE

  ****  Auto variables  ****

  ****  Scalars and arrays  ****
OctLoc.c.b A Datatyp(siz) R M Lvl/name                 OctLoc.c.b A Datatyp(siz) R M Lvl/name

     3-0-0/w PTR         r     1 @CFPT                     27-0-0/w PTR         r     1 @ERR
    21-0-0/w PTR         r     1 @ERR                      21-0-0/w PTR         r     1 @ERR
    32-0-0/w PTR         r     1 @LB                       30-0-0/w PTR         r     1 @PTR$
    22-0-0/w PTR         r     1 @PTR$                     31-0-0/w PTR         r     1 @UB
    13-0-0/w PTR         r     1 AFPT$                     14-0-0/w SBIN        r     1 CCID
    *0-0-0/w STRC(504)   r     1 CFPT                      16-0-0/w PTR         r     1 CFPT$
    15-0-0/w PTR         r     1 CTX$                      *0-0-0/w BIT         r     1 ERR
    *0-0-0/w BIT         r     1 ERR                       *0-0-0/w BIT         r     1 ERR
    23-0-0/w SBIN        r     1 I                         *0-0-0/w SBIN        r     1 LB
    33-0-0/w SBIN        r     1 LEN                       34-0-0/w SBIN        r     1 LOWER
    24-0-0/w PTR         r     1 P$                        *0-0-0/w PTR         r     1 PTR$
    *0-0-0/w PTR         r     1 PTR$                      16-0-0/w STRC        r     1 PX
    14-0-0/w SBIN        r     1 TEMP                      *0-0-0/w SBIN        r     1 UB
    *0-0-0/w SBIN        r     1 UPPER                      4-0-0/w STRC(252)   r     1 VBLK
    25-0-0/w SBIN        r     1 ZILCH

PL6.E3A0      #004=XSC$ACSE File=XSC$ACSE.:XSA1TSI                               WED 10/01/97 11:51 Page:117
  ****  SYMREF variables  ****

  ****  Scalars and arrays  ****
OctLoc.c.b A Datatyp(siz) R M Lvl/name                 OctLoc.c.b A Datatyp(siz) R M Lvl/name

     0-0-0/w PTR         r     1 B$JIT$                     0-0-0/w STRC(252)   r     1 XSC_VBLK
     0-0-0/w SBIN        r     1 XSS_TRACE

  ****  BASED and DCB variables  ****

  ****  Scalars and arrays  ****
OctLoc.c.b A Datatyp(siz) R M Lvl/name                 OctLoc.c.b A Datatyp(siz) R M Lvl/name

     0-0-0/w STRC(504)   r     1 AFPT                       0-0-0/d STRC(8856)  r     1 B$JIT
     0-0-0/h UBIN(18)    r     1 B$UBIN18                   0-0-0/c UBIN(9)     r     1 B$UBIN9
     0-0-0/d STRC        r     1 CLST                       0-0-0/w STRC(504)   r     1 XSC$ASSOCIATE
     0-0-0/w STRC(504)   r     1 XSC$GENERIC                0-0-0/w STRC(108)   r     1 XSC$RELEASE
     0-0-0/w STRC(108)   r     1 XSC$U_ABORT


   Procedure XSC$ACSE requires 464 words for executable code.
   Procedure XSC$ACSE requires 32 words of local(AUTO) storage.
PL6.E3A0      #004=XSC$ACSE File=XSC$ACSE.:XSA1TSI                               WED 10/01/97 11:51 Page:118
          *** CROSS REFERENCE LISTING ***
**     DENOTES     IDENTIFIER DEFINITION
<<                 IDENTIFIER'S VALUE SET
>>                 IDENTIFIER'S VALUE USED
<>                 IDENTIFIER SET AND/OR USED
--                 IDENTIFIER REFERENCED
PL6.E3A0      #004=XSC$ACSE File=XSC$ACSE.:XSA1TSI                               WED 10/01/97 11:51 Page:119
          MINI XREF LISTING

AFPT.C0
      4409**DCL      4409--REDEF
AFPT.DAT$
      4411**DCL      4411--REDEF
AFPT.LINK$
      4408**DCL      6606>>ASSIGN
AFPT.N0
      4410**DCL      4410--REDEF
AFPT.NXTX
      4410**DCL      6600>>IF       6604>>ASSIGN
AFPT.R0
      4408**DCL      4409--REDEF
AFPT$
      6479**DCL      4403--IMP-PTR  6598<<ASSIGN   6599>>DOWHILE  6600>>IF       6604>>ASSIGN   6606<<ASSIGN
      6606>>ASSIGN
B$JIT.ERR.MID
       878**DCL       878--REDEF
B$JIT.JRESPEAK
       968**DCL       969--REDEF
B$JIT.PLL
       964**DCL      6492>>IF
B$JIT.PUL
       964**DCL      6492>>IF
B$JIT$
      6476**DCL       872--IMP-PTR  6492>>IF       6492>>IF
B$UBIN18 IN PROCEDURE CKDATA
      6588**DCL      6632>>ASSIGN
B$UBIN9 IN PROCEDURE CKDATA
      6587**DCL      6624>>ASSIGN
CCID
      6480**DCL      6481--REDEF    6505<<ASSIGN   6506<>CALL
CCTX.HISTZ
PL6.E3A0      #004=XSC$ACSE File=XSC$ACSE.:XSA1TSI                               WED 10/01/97 11:51 Page:120
      2324**DCL      2325--REDEF
CFPT
      1702**DCL        17--PROC     6489--ASSIGN
CFPT.ERRDEF
      1711**DCL      1731--REDEF
CFPT$
      6483**DCL      1390--IMP-PTR  1449--IMP-PTR  1524--IMP-PTR  1583--IMP-PTR  1642--IMP-PTR  6484--REDEF
      6489<<ASSIGN   6494>>IF       6500>>ASSIGN   6503>>ASSIGN   6505>>ASSIGN   6508>>ASSIGN   6515>>DOCASE
      6517>>CALL     6519>>CALL     6521>>CALL     6523>>CALL     6525>>CALL     6528>>CALL     6529>>CALL
      6531>>CALL     6534>>CALL     6536>>CALL     6538>>CALL     6541>>CALL     6542>>CALL     6545>>CALL
      6546>>IF       6551>>CALL     6556>>CALL     6559>>IF       6564>>CALL     6569>>ASSIGN   6573>>CALL
      6577>>IF       6578>>ASSIGN   6601>>ASSIGN   6614>>ASSIGN   6663>>ASSIGN   6674>>IF       6676>>ASSIGN
      6679>>IF       6685>>IF       6685>>IF       6692>>IF       6692>>IF       6699>>IF
CKABRTSRC IN PROCEDURE CKRSLT
      6697**ENTRY    6566--CALL
CKCTXT
      6637**PROC     6528--CALL     6541--CALL
CKDATA
      6584**PROC     6529--CALL     6542--CALL     6551--CALL     6556--CALL     6564--CALL
CKRELREQRSN IN PROCEDURE CKRSLT
      6683**ENTRY    6553--CALL
CKRELRSPRSN IN PROCEDURE CKRSLT
      6690**ENTRY    6558--CALL
CKRSLT
      6670**PROC     6544--CALL
CKTXTC IN PROCEDURE CKDATA
      6619**ENTRY    6519--CALL     6521--CALL     6523--CALL     6525--CALL     6536--CALL     6538--CALL
CKTXTH IN PROCEDURE CKDATA
      6627**ENTRY    6517--CALL     6534--CALL     6654--CALL
CLST.COUNT
      4045**DCL      6649>>DOINDEX  6660>>IF
CLST.CTXT$
      4043**DCL      4044--REDEF    4045--REDEF    6650>>ASSIGN
COMMON IN PROCEDURE CKDATA
      6609**LABEL    6625--GOTO     6633--GOTO
CTX$
PL6.E3A0      #004=XSC$ACSE File=XSC$ACSE.:XSA1TSI                               WED 10/01/97 11:51 Page:121
      6482**DCL      2300--IMP-PTR  6506<>CALL     6512>>ASSIGN
ERR IN PROCEDURE CKCTXT
      6640**DCL      6637--PROC     6654<>CALL     6663>>ASSIGN
ERR IN PROCEDURE CKDATA
      6589**DCL      6584--PROC     6614>>ASSIGN   6619--ENTRY    6627--ENTRY
ERR IN PROCEDURE CKRSLT
      6672**DCL      6670--PROC     6676>>ASSIGN   6683--ENTRY    6690--ENTRY    6697--ENTRY
GETOUT
      6580**LABEL    6517--CALLALT  6519--CALLALT  6521--CALLALT  6523--CALLALT  6525--CALLALT  6528--CALLALT
      6529--CALLALT  6531--CALLALT  6534--CALLALT  6536--CALLALT  6538--CALLALT  6541--CALLALT  6542--CALLALT
      6544--CALLALT  6545--CALLALT  6551--CALLALT  6553--CALLALT  6556--CALLALT  6558--CALLALT  6564--CALLALT
      6566--CALLALT
GETOUT IN PROCEDURE CKCTXT
      6663**LABEL    6657--GOTO
GETOUT IN PROCEDURE CKRSLT
      6676**LABEL    6680--GOTO     6687--GOTO     6694--GOTO     6700--GOTO
I IN PROCEDURE CKCTXT
      6641**DCL      6649<<DOINDEX  6650>>ASSIGN
LB IN PROCEDURE CKDATA
      6590**DCL      6584--PROC     6609--IF       6612>>ASSIGN   6619--ENTRY    6627--ENTRY
LEN IN PROCEDURE CKDATA
      6591**DCL      6597<<ASSIGN   6604<<ASSIGN   6604>>ASSIGN   6605>>ASSIGN   6613>>IF       6613>>IF
      6622<<ASSIGN   6624<<ASSIGN   6630<<ASSIGN   6632<<ASSIGN
LOWER IN PROCEDURE CKDATA
      6592**DCL      6610<<ASSIGN   6612<<ASSIGN   6613>>IF
P$ IN PROCEDURE CKCTXT
      6642**DCL      6650<<ASSIGN   6651>>IF       6654<>CALL
PTR$ IN PROCEDURE CKCTXT
      6643**DCL      6637--PROC     6646>>IF       6649>>DOINDEX  6650>>ASSIGN   6660>>IF
PTR$ IN PROCEDURE CKDATA
      6595**DCL      6584--PROC     6598>>ASSIGN   6619--ENTRY    6621>>IF       6624>>ASSIGN   6627--ENTRY
      6629>>IF       6632>>ASSIGN
PX.OFFSET
      6485**DCL      6491>>ASSIGN
PX.SEGID
      6487**DCL      6490>>IF
PL6.E3A0      #004=XSC$ACSE File=XSC$ACSE.:XSA1TSI                               WED 10/01/97 11:51 Page:122
TEMP
      6481**DCL      6491<<ASSIGN   6492>>IF       6492>>IF
UB IN PROCEDURE CKDATA
      6593**DCL      6584--PROC     6594--REDEF    6619--ENTRY    6627--ENTRY
UPPER IN PROCEDURE CKDATA
      6594**DCL      6613>>IF
VBLK
      2346**DCL      6502<<ASSIGN   6574<>CALL
VBLK.CTX$
      2360**DCL      6512<<ASSIGN
VBLK.DATA.SIZE
      2428**DCL      6605<<ASSIGN
VBLK.EVENT
      2433**DCL      6532<<ASSIGN   6547<<ASSIGN   6549<<ASSIGN   6554<<ASSIGN   6560<<ASSIGN   6562<<ASSIGN
      6567<<ASSIGN
VBLK.FPT$
      2361**DCL      6503<<ASSIGN
XSC$AMACHINE
      6470**DCL-ENT  6574--CALL
XSC$ASSOCIATE
      1449**DCL      6531<>CALL     6545<>CALL
XSC$ASSOCIATE.ACN$
      1495**DCL      6517<>CALL     6534<>CALL
XSC$ASSOCIATE.CTXT$
      1505**DCL      6528<>CALL     6541<>CALL
XSC$ASSOCIATE.DATA$
      1494**DCL      6529<>CALL     6542<>CALL
XSC$ASSOCIATE.ERRDEF
      1464**DCL      1484--REDEF
XSC$ASSOCIATE.IAEQ$
      1497**DCL      6521<>CALL
XSC$ASSOCIATE.IAPT$
      1496**DCL      6519<>CALL
XSC$ASSOCIATE.RAEQ$
      1501**DCL      6525<>CALL     6538<>CALL
XSC$ASSOCIATE.RAPT$
PL6.E3A0      #004=XSC$ACSE File=XSC$ACSE.:XSA1TSI                               WED 10/01/97 11:51 Page:123
      1500**DCL      6523<>CALL     6536<>CALL
XSC$ASSOCIATE.RESULT
      1463**DCL      6546>>IF       6674>>IF
XSC$ASSOCIATE.RSDIAG
      1462**DCL      6679>>IF
XSC$CTXPTR
      6471**DCL-ENT  6506--CALL
XSC$DUMPFPT
      6472**DCL-ENT  6573--CALL
XSC$GENERIC
      1390**DCL      6573<>CALL
XSC$GENERIC.CCID
      1397**DCL      6505>>ASSIGN
XSC$GENERIC.ERRDEF
      1399**DCL      1419--REDEF
XSC$GENERIC.ERROR
      1419**DCL      6494>>IF       6500<<ASSIGN   6508<<ASSIGN   6569<<ASSIGN   6577>>IF       6578<<ASSIGN
      6601<<ASSIGN   6614<<ASSIGN   6663<<ASSIGN   6676<<ASSIGN
XSC$GENERIC.FNC
      1396**DCL      6515>>DOCASE
XSC$P_ABORT.ERRDEF
      1534**DCL      1554--REDEF
XSC$RELEASE.DATA$
      1623**DCL      6551<>CALL     6556<>CALL
XSC$RELEASE.ERRDEF
      1593**DCL      1613--REDEF
XSC$RELEASE.REASON
      1591**DCL      6559>>IF       6685>>IF       6685>>IF       6692>>IF       6692>>IF
XSC$RESOLVE
      6473**DCL-ENT  6531--CALL     6545--CALL
XSC$U_ABORT.ABRTSRC
      1650**DCL      6699>>IF
XSC$U_ABORT.DATA$
      1682**DCL      6564<>CALL
XSC$U_ABORT.ERRDEF
      1652**DCL      1672--REDEF
PL6.E3A0      #004=XSC$ACSE File=XSC$ACSE.:XSA1TSI                               WED 10/01/97 11:51 Page:124
XSC_E$ABRTSRC
      5565**DCL      6566<>CALL
XSC_E$ACN
      5616**DCL      6517<>CALL     6534<>CALL
XSC_E$BADCID
      5412**DCL      6508>>ASSIGN
XSC_E$BADFNC
      5463**DCL      6569>>ASSIGN
XSC_E$CTXT
      5667**DCL      6528<>CALL     6541<>CALL
XSC_E$DATA
      5769**DCL      6529<>CALL     6542<>CALL     6551<>CALL     6556<>CALL     6564<>CALL
XSC_E$IAEQ
      5871**DCL      6521<>CALL
XSC_E$IAPT
      5973**DCL      6519<>CALL
XSC_E$NXTX
      6075**DCL      6601>>ASSIGN
XSC_E$RAEQ
      6177**DCL      6525<>CALL     6538<>CALL
XSC_E$RAPT
      6279**DCL      6523<>CALL     6536<>CALL
XSC_E$RDONLYFPT
      5361**DCL      6494>>IF       6496<>CALL
XSC_E$REASON
      6330**DCL      6553<>CALL     6558<>CALL
XSC_E$RESULT
      6381**DCL      6544<>CALL
XSC_E$STATE
      5514**DCL      6578>>ASSIGN
XSC_VBLK
      2194**DCL      6502>>ASSIGN
XSS$SCREECH
      6474**DCL-ENT  6496--CALL
XSS_TRACE
      6477**DCL      6572>>IF
PL6.E3A0      #004=XSC$ACSE File=XSC$ACSE.:XSA1TSI                               WED 10/01/97 11:51 Page:125
ZILCH IN PROCEDURE CKCTXT
      6644**DCL      6648<<ASSIGN   6652<<ASSIGN   6652>>ASSIGN   6660>>IF
PL6.E3A0      #004=XSC$ACSE File=XSC$ACSE.:XSA1TSI                               WED 10/01/97 11:51 Page:126
              *** CROSS REFERENCE LISTING ***
    **     DENOTES     IDENTIFIER DEFINITION
    <<                 IDENTIFIER'S VALUE SET
    >>                 IDENTIFIER'S VALUE USED
    <>                 IDENTIFIER SET AND/OR USED
    --                 IDENTIFIER REFERENCED
PL6.E3A0      #004=XSC$ACSE File=XSC$ACSE.:XSA1TSI                               WED 10/01/97 11:51 Page:127
              MINI UREF LISTING

ABORT    6577**LABEL
B$PTR IN PROCEDURE CKCTXT   6639**DCL
B$PTR IN PROCEDURE CKDATA   6586**DCL
XSC$ACSE      17**PROC
XSC_E$CTXTID    5718**DCL
XSC_E$IAEID    5820**DCL
XSC_E$IAPID    5922**DCL
XSC_E$IMPL    6024**DCL
XSC_E$RAEID    6126**DCL
XSC_E$RAPID    6228**DCL
XSC_E$RSDIAG    6432**DCL

PL6.E3A0      #005=XSC$RESOLVE File=XSC$ACSE.:XSA1TSI                            WED 10/01/97 11:52 Page:128
      622        1        /*T***********************************************************/
      623        2        /*T*                                                         */
      624        3        /*T* Copyright (c) Bull HN Information Systems Inc., 1997    */
      625        4        /*T*                                                         */
      626        5        /*T***********************************************************/
      627        6        /*F*    NAME:   XSC$RESOLVE
      628        7
      629        8                XSC$RESOLVE is called by XSC$ACSE to resolve the two Application
      630        9                Process Titles (Application layer addresses) in the XSC$ASSOCIATE
      631       10                fpt into two Presentation addresses.
      632       11                (The Directory Service is the guy who does the real work for this).
      633       12        */
      634       13        XSC$RESOLVE: PROC( PARM1) ALTRET;
      635       14        %INCLUDE K_ADDRESS_M;
      636      517        %INCLUDE XSC_COMMON_M;
      637     1170            %XSC$ADDRESS( NAME=XSC_SOURCE, STCLASS=SYMREF);
      638     1453            %XSC$ADDRESS( NAME=XSC_TARGET, STCLASS=SYMREF);
      639     1736            %XSC$ADDRESS;
      640     2019        %INCLUDE XSC_ACSE_E;
      641     2097        %INCLUDE XSC_ACSE_M;
      642     2406            %XSC$ASSOCIATE( STCLASS="BASED( PARM1$)");
      643     2481        %INCLUDE XSC_INTERNAL_E;
      644     2569        %INCLUDE XSC_INTERNAL_M;
      645     2914        %INCLUDE UM_CP6;
      646     3766        %MACRO ERRORDEF( NAME=XSC_ERROR, STCLASS="CONSTANT SYMDEF", LVL=1, LAST=";",
      647     3767                         ERR#=0, SEV=0);
      648     3768            %VLP_ERRCODE( FPTN=NAME, STCLASS=STCLASS, FCG='XS', MID='C',
      649     3769                          MON='0'B, ERR#=ERR#, SEV=SEV);
      650     3770        %MEND;
      651     3771        %INCLUDE XSC_PERR_C;
      652     3848            %ERRORDEF( NAME=XSC_E$NODIRSERV, ERR#=%E$NODIRSERV);
      653     3896            /*E*  ERROR:  XSC-E$NODIRSERV-0
      654     3897                MESSAGE:  Directory Service User Agent not available.
      655     3898            */
      656     3899        %INCLUDE XSD_SUBS_C;
      657     4234        %INCLUDE XSD_MACRO_M;
      658     5343            %XSD_SERVICE( NAME=XSC_XSD_SERVICE, STCLASS=CONSTANT,
PL6.E3A0      #005=XSC$RESOLVE File=XSC$ACSE.:XSA1TSI                            WED 10/01/97 11:52 Page:129
      659     5344                          FNC=%XSD_FNC_READ, SUBC=%XSD_SUBC_READ,
      660     5345                          MODE=%XSD_MODE_NAME,
      661     5346                          LOCALOKAY=YES, UPDATELOCAL=YES,
      662     5347                          UENTADDR=XSC$RESOLVED);
      663     5512            %XSD_SERVICE( NAME=DFPT, STCLASS=AUTO);
      664     5677            %XSD_SERVICE( STCLASS="BASED( PARM1$)");
      665     5842
      666     5843    1       DCL XSC$COMMWAIT ENTRY(1) ALTRET;
      667     5844    1       DCL XSD$DIRECTORY ENTRY(1) ALTRET OPTIONAL;
      668     5845
      669     5846    1       DCL ERR SBIN;
      670     5847    1       DCL PARM1 SBIN;
      671     5848    1       DCL PARM1$ PTR;
      672     5849    1       DCL TMP$ PTR;
      673     5850    1       DCL SOURCEDONE BIT(1) STATIC INIT( %FALSE);
      674     5851    1       DCL TARGETDONE BIT(1) STATIC INIT( %FALSE);
      675     5852    1       DCL SOURCEERR BIT(36) STATIC;
      676     5853    1       DCL TARGETERR BIT(36) STATIC;
      677     5854
      678     5855    1       PARM1$ = ADDR( PARM1);
      679     5856    2       IF ENTADDR( XSD$DIRECTORY) = ENTADDR( NIL) THEN DO;
      680     5857    2           XSC$ASSOCIATE.ERROR = XSC_E$NODIRSERV;
      681     5858    2           ALTRETURN;
      682     5859    2           END;
      683     5860            /* first, set up to resolve the source address */
      684     5861    1       DFPT = XSC_XSD_SERVICE;
      685     5862    1       DFPT.EVENTID = XSC$ASSOCIATE.CCID*2 + 0;
      686     5863    1       DFPT.ATTRIBUTE.TYPE(0) = %XSD_AT_COMMONNAME;
      687     5864    1       DFPT.ATTRIBUTE.VALUE$(0) = XSC$ASSOCIATE.IAPT$;
      688     5865    1       DFPT.RESULT_ = VECTOR( XSC_SOURCE);
      689     5866    1       SOURCEERR = '0'O;
      690     5867    1       SOURCEDONE = %FALSE;
      691     5868    1       CALL XSD$DIRECTORY( DFPT) ALTRET( GETOUT);
      692     5869            /* next, set up to resolve the target address */
      693     5870    1       DFPT = XSC_XSD_SERVICE;
      694     5871    1       DFPT.EVENTID = XSC$ASSOCIATE.CCID*2 + 1;
      695     5872    1       DFPT.ATTRIBUTE.TYPE(0) = %XSD_AT_COMMONNAME;
PL6.E3A0      #005=XSC$RESOLVE File=XSC$ACSE.:XSA1TSI                            WED 10/01/97 11:52 Page:130
      696     5873    1       DFPT.ATTRIBUTE.VALUE$(0) = XSC$ASSOCIATE.RAPT$;
      697     5874    1       DFPT.RESULT_ = VECTOR( XSC_TARGET);
      698     5875    1       TARGETERR = '0'O;
      699     5876    1       TARGETDONE = %FALSE;
      700     5877    1       CALL XSD$DIRECTORY( DFPT) ALTRET( GETOUT);
      701     5878            /* now wait for address resolution if we have to */
      702     5879    2       DO WHILE( ~SOURCEDONE AND ~TARGETDONE);
      703     5880                /* loop until we have both addresses resolved */
      704     5881    2           CALL XSC$COMMWAIT( 10)
      705     5882    3           WHENALTRETURN DO;
      706     5883                    /* event occurred.. but we'll loop until both addrs resolved */
      707     5884    3               END;
      708     5885    2           END;
      709     5886            /* see if there was an error resolving either address */
      710     5887    1       IF SOURCEERR ~= '0'O THEN
      711     5888    1           XSC$ASSOCIATE.ERROR = SOURCEERR;  /* let appl know what happened */
      712     5889    1       ELSE
      713     5890    1           IF TARGETERR ~= '0'O THEN
      714     5891    1               XSC$ASSOCIATE.ERROR = TARGETERR; /* let appl know what happened */
      715     5892    1           ELSE
      716     5893    1               RETURN;
      717     5894    1       ALTRETURN;
      718     5895    1   GETOUT:
      719     5896    1       XSC$ASSOCIATE.ERROR = DFPT.ERRCODE;  /* hand DUA's error back to appl */
      720     5897    1       ALTRETURN;
      721     5898        %EJECT;
PL6.E3A0      #005=XSC$RESOLVE File=XSC$ACSE.:XSA1TSI                            WED 10/01/97 11:52 Page:131
      722     5899        /*F*    NAME:   XSC$RESOLVED
      723     5900
      724     5901                XSC$RESOLVED is called by the Directory Service user agent 'DUA'
      725     5902                when it has resolved, possibly with the assistance of the 'DSA',
      726     5903                an earlier resolve request.
      727     5904        */
      728     5905    1   XSC$RESOLVED: ENTRY( PARM1) ALTRET;
      729     5906
      730     5907    1       PARM1$ = ADDR( PARM1);  /* load XSD_SERVICE pointer */
      731     5908    1       ERR = XSD_SERVICE.ERRCODE.ERR#;
      732     5909    1       TMP$ = VBASE( XSD_SERVICE.RESULT_);
      733     5910    2       DO CASE( MOD( XSD_SERVICE.EVENTID, 2));
      734     5911    2           CASE( 0);
      735     5912    2               IF ERR ~= 0 THEN
      736     5913    2                   IF TMP$ ~= ADDR( XSC_SOURCE) THEN
      737     5914    2                       XSC_SOURCE = TMP$->XSC$ADDRESS;
      738     5915    2               SOURCEERR = XSD_SERVICE.ERRCODE;
      739     5916    2               SOURCEDONE = %TRUE;
      740     5917    2           CASE( 1);
      741     5918    2               IF ERR ~= 0 THEN
      742     5919    2                   IF TMP$ ~= ADDR( XSC_TARGET) THEN
      743     5920    2                       XSC_TARGET = TMP$->XSC$ADDRESS;
      744     5921    2               TARGETERR = XSD_SERVICE.ERRCODE;
      745     5922    2               TARGETDONE = %TRUE;
      746     5923    2           END;
      747     5924    1       RETURN;
      748     5925
      749     5926    1       END XSC$RESOLVE;
      750     5927        %EOD;

PL6.E3A0      #005=XSC$RESOLVE File=XSC$ACSE.:XSA1TSI                            WED 10/01/97 11:52 Page:132
--  Include file information  --

   XSD_MACRO_M.:XSA1TOU  is referenced.
   XSD_SUBS_C.:XSA1TOU  is referenced.
   XSC_PERR_C.:XSA1TOU  is referenced.
   UM_CP6.:E05OU  is referenced.
   XSC_INTERNAL_M.:XSA1TOU  is referenced.
   XSC_INTERNAL_E.:XSA1TOU  is referenced.
   XSC_ACSE_M.:XSA1TOU  is referenced.
   XSC_ACSE_E.:XSA1TOU  is referenced.
   XSC_COMMON_M.:XSA1TOU  is referenced.
   K_ADDRESS_M.:LIB_E05  is referenced.
      No diagnostics issued in procedure XSC$RESOLVE.

   Procedure XSC$RESOLVE requires 133 words for executable code.
   Procedure XSC$RESOLVE requires 24 words of local(AUTO) storage.

PL6.E3A0      #005=XSC$RESOLVE File=XSC$ACSE.:XSA1TSI                            WED 10/01/97 11:52 Page:133

 Object Unit name= XSC$RESOLVE                                File name= XSC$ACSE.:XSA1TOU
 UTS= OCT 01 '97 11:52:05.88 WED                              Compiler= PL-6/E31         Sev=      00
 SharedLib= :SHARED_SYSTEM                                    Alt SharedLib=


    ****  Control sections  ****

 Sect   Type Bound  Init  Size OctSiz  Section name(segment info)
    0  RoData even  UTS     16     20  XSC$RESOLVE
    1   Data  even  none     4      4  XSC$RESOLVE
    2   Proc  even  none   133    205  XSC$RESOLVE
    3  RoData even  none     8     10  XSC$RESOLVE

    ****  Entry defs  ****

                              Check   Calling
                             calling  sequence
  Sect OctLoc Primary Altret sequence   type   Parms  Name
     2      0   yes    yes     yes      Std        1  XSC$RESOLVE
     2    127          yes     yes      Std        1  XSC$RESOLVED

  ****  Data defs  ****

 Sect OctLoc  Name                           Sect OctLoc  Name
    0      0  XSC_E$NODIRSERV

  ****  Entry refs  ****

         Check        Calling
        calling       sequence
Altret sequence SRef   type   Args  Name
 yes     yes    yes    Std       1 XSD$DIRECTORY
 yes     yes           Std       1 XSC$COMMWAIT
 yes     yes           Std       1 XSC$RESOLVED
                       nStd      0 X66_AUTO_1
                       nStd      0 X66_AALT
                       nStd      0 X66_ARET
PL6.E3A0      #005=XSC$RESOLVE File=XSC$ACSE.:XSA1TSI                            WED 10/01/97 11:52 Page:134

  ****  Data refs  ****

  Flags:  r = read only, s = secondary
Flgs Name                             Flgs Name                             Flgs Name
     XSC_SOURCE                            XSC_TARGET

  ****  Segment refs  ****

  Flags:  r = read only, s = secondary
Flgs Name                             Flgs Name                             Flgs Name
     NULLSID                               ISSID
PL6.E3A0      #005=XSC$RESOLVE File=XSC$ACSE.:XSA1TSI                            WED 10/01/97 11:52 Page:135


      622        1        /*T***********************************************************/
      623        2        /*T*                                                         */
      624        3        /*T* Copyright (c) Bull HN Information Systems Inc., 1997    */
      625        4        /*T*                                                         */
      626        5        /*T***********************************************************/
      627        6        /*F*    NAME:   XSC$RESOLVE
      628        7
      629        8                XSC$RESOLVE is called by XSC$ACSE to resolve the two Application
      630        9                Process Titles (Application layer addresses) in the XSC$ASSOCIATE
      631       10                fpt into two Presentation addresses.
      632       11                (The Directory Service is the guy who does the real work for this).
      633       12        */
      634       13        XSC$RESOLVE: PROC( PARM1) ALTRET;

     13  2 000000   000000 700200 xent  XSC$RESOLVE  TSX0  ! X66_AUTO_1
         2 000001   000030 000001                    ZERO    24,1

      635       14        %INCLUDE K_ADDRESS_M;
      636      517        %INCLUDE XSC_COMMON_M;
      637     1170            %XSC$ADDRESS( NAME=XSC_SOURCE, STCLASS=SYMREF);
      638     1453            %XSC$ADDRESS( NAME=XSC_TARGET, STCLASS=SYMREF);
      639     1736            %XSC$ADDRESS;
      640     2019        %INCLUDE XSC_ACSE_E;
      641     2097        %INCLUDE XSC_ACSE_M;
      642     2406            %XSC$ASSOCIATE( STCLASS="BASED( PARM1$)");
      643     2481        %INCLUDE XSC_INTERNAL_E;
      644     2569        %INCLUDE XSC_INTERNAL_M;
      645     2914        %INCLUDE UM_CP6;
      646     3766        %MACRO ERRORDEF( NAME=XSC_ERROR, STCLASS="CONSTANT SYMDEF", LVL=1, LAST=";",
      647     3767                         ERR#=0, SEV=0);
      648     3768            %VLP_ERRCODE( FPTN=NAME, STCLASS=STCLASS, FCG='XS', MID='C',
      649     3769                          MON='0'B, ERR#=ERR#, SEV=SEV);
      650     3770        %MEND;
      651     3771        %INCLUDE XSC_PERR_C;
      652     3848            %ERRORDEF( NAME=XSC_E$NODIRSERV, ERR#=%E$NODIRSERV);
      653     3896            /*E*  ERROR:  XSC-E$NODIRSERV-0
PL6.E3A0      #005=XSC$RESOLVE File=XSC$ACSE.:XSA1TSI                            WED 10/01/97 11:52 Page:136
      654     3897                MESSAGE:  Directory Service User Agent not available.
      655     3898            */
      656     3899        %INCLUDE XSD_SUBS_C;
      657     4234        %INCLUDE XSD_MACRO_M;
      658     5343            %XSD_SERVICE( NAME=XSC_XSD_SERVICE, STCLASS=CONSTANT,
      659     5344                          FNC=%XSD_FNC_READ, SUBC=%XSD_SUBC_READ,
      660     5345                          MODE=%XSD_MODE_NAME,
      661     5346                          LOCALOKAY=YES, UPDATELOCAL=YES,
      662     5347                          UENTADDR=XSC$RESOLVED);
      663     5512            %XSD_SERVICE( NAME=DFPT, STCLASS=AUTO);
      664     5677            %XSD_SERVICE( STCLASS="BASED( PARM1$)");
      665     5842
      666     5843    1       DCL XSC$COMMWAIT ENTRY(1) ALTRET;
      667     5844    1       DCL XSD$DIRECTORY ENTRY(1) ALTRET OPTIONAL;
      668     5845
      669     5846    1       DCL ERR SBIN;
      670     5847    1       DCL PARM1 SBIN;
      671     5848    1       DCL PARM1$ PTR;
      672     5849    1       DCL TMP$ PTR;
      673     5850    1       DCL SOURCEDONE BIT(1) STATIC INIT( %FALSE);
      674     5851    1       DCL TARGETDONE BIT(1) STATIC INIT( %FALSE);
      675     5852    1       DCL SOURCEERR BIT(36) STATIC;
      676     5853    1       DCL TARGETERR BIT(36) STATIC;
      677     5854
      678     5855    1       PARM1$ = ADDR( PARM1);

   5855  2 000002   200003 236100                    LDQ     @PARM1,,AUTO
         2 000003   200023 756100                    STQ     PARM1$,,AUTO

      679     5856    2       IF ENTADDR( XSD$DIRECTORY) = ENTADDR( NIL) THEN DO;

   5856  2 000004   000000 636000 xent               EAQ     XSD$DIRECTORY
         2 000005   000000 116000 3                  CMPQ    0
         2 000006   000013 601000 2                  TNZ     s:5861

      680     5857    2           XSC$ASSOCIATE.ERROR = XSC_E$NODIRSERV;

PL6.E3A0      #005=XSC$RESOLVE File=XSC$ACSE.:XSA1TSI                            WED 10/01/97 11:52 Page:137
   5857  2 000007   000000 236000 0                  LDQ     XSC_E$NODIRSERV
         2 000010   200023 470500                    LDP0    PARM1$,,AUTO
         2 000011   000001 756100                    STQ     1,,PR0

      681     5858    2           ALTRETURN;

   5858  2 000012   000000 702200 xent               TSX2  ! X66_AALT

      682     5859    2           END;
      683     5860            /* first, set up to resolve the source address */
      684     5861    1       DFPT = XSC_XSD_SERVICE;

   5861  2 000013   000100 100400                    MLR     fill='000'O
         2 000014   000002 000064 0                  ADSC9   XSC_XSD_SERVICE          cn=0,n=52
         2 000015   200004 000064                    ADSC9   DFPT,,AUTO               cn=0,n=52

      685     5862    1       DFPT.EVENTID = XSC$ASSOCIATE.CCID*2 + 0;

   5862  2 000016   200023 470500                    LDP0    PARM1$,,AUTO
         2 000017   000000 236100                    LDQ     0,,PR0
         2 000020   000021 772000                    QRL     17
         2 000021   001776 376007                    ANQ     1022,DL
         2 000022   200005 756100                    STQ     DFPT+1,,AUTO

      686     5863    1       DFPT.ATTRIBUTE.TYPE(0) = %XSD_AT_COMMONNAME;

   5863  2 000023   000003 235007                    LDA     3,DL
         2 000024   200017 755100                    STA     DFPT+11,,AUTO

      687     5864    1       DFPT.ATTRIBUTE.VALUE$(0) = XSC$ASSOCIATE.IAPT$;

   5864  2 000025   000004 236100                    LDQ     4,,PR0
         2 000026   200020 756100                    STQ     DFPT+12,,AUTO

      688     5865    1       DFPT.RESULT_ = VECTOR( XSC_SOURCE);

   5865  2 000027   000002 237000 3                  LDAQ    2
PL6.E3A0      #005=XSC$RESOLVE File=XSC$ACSE.:XSA1TSI                            WED 10/01/97 11:52 Page:138
         2 000030   200012 757100                    STAQ    DFPT+6,,AUTO

      689     5866    1       SOURCEERR = '0'O;

   5866  2 000031   000002 450000 1                  STZ     SOURCEERR

      690     5867    1       SOURCEDONE = %FALSE;

   5867  2 000032   000000 450000 1                  STZ     SOURCEDONE

      691     5868    1       CALL XSD$DIRECTORY( DFPT) ALTRET( GETOUT);

   5868  2 000033   200004 631500                    EPPR1   DFPT,,AUTO
         2 000034   200026 451500                    STP1    TMP$+2,,AUTO
         2 000035   200026 630500                    EPPR0   TMP$+2,,AUTO
         2 000036   000001 631400 3                  EPPR1   1
         2 000037   000000 701000 xent               TSX1    XSD$DIRECTORY
         2 000040   000123 702000 2                  TSX2    GETOUT

      692     5869            /* next, set up to resolve the target address */
      693     5870    1       DFPT = XSC_XSD_SERVICE;

   5870  2 000041   000100 100400                    MLR     fill='000'O
         2 000042   000002 000064 0                  ADSC9   XSC_XSD_SERVICE          cn=0,n=52
         2 000043   200004 000064                    ADSC9   DFPT,,AUTO               cn=0,n=52

      694     5871    1       DFPT.EVENTID = XSC$ASSOCIATE.CCID*2 + 1;

   5871  2 000044   200023 470500                    LDP0    PARM1$,,AUTO
         2 000045   000000 236100                    LDQ     0,,PR0
         2 000046   000021 772000                    QRL     17
         2 000047   001776 376007                    ANQ     1022,DL
         2 000050   000001 036007                    ADLQ    1,DL
         2 000051   200005 756100                    STQ     DFPT+1,,AUTO

      695     5872    1       DFPT.ATTRIBUTE.TYPE(0) = %XSD_AT_COMMONNAME;

PL6.E3A0      #005=XSC$RESOLVE File=XSC$ACSE.:XSA1TSI                            WED 10/01/97 11:52 Page:139
   5872  2 000052   000003 235007                    LDA     3,DL
         2 000053   200017 755100                    STA     DFPT+11,,AUTO

      696     5873    1       DFPT.ATTRIBUTE.VALUE$(0) = XSC$ASSOCIATE.RAPT$;

   5873  2 000054   000010 236100                    LDQ     8,,PR0
         2 000055   200020 756100                    STQ     DFPT+12,,AUTO

      697     5874    1       DFPT.RESULT_ = VECTOR( XSC_TARGET);

   5874  2 000056   000004 237000 3                  LDAQ    4
         2 000057   200012 757100                    STAQ    DFPT+6,,AUTO

      698     5875    1       TARGETERR = '0'O;

   5875  2 000060   000003 450000 1                  STZ     TARGETERR

      699     5876    1       TARGETDONE = %FALSE;

   5876  2 000061   000001 450000 1                  STZ     TARGETDONE

      700     5877    1       CALL XSD$DIRECTORY( DFPT) ALTRET( GETOUT);

   5877  2 000062   200004 631500                    EPPR1   DFPT,,AUTO
         2 000063   200026 451500                    STP1    TMP$+2,,AUTO
         2 000064   200026 630500                    EPPR0   TMP$+2,,AUTO
         2 000065   000001 631400 3                  EPPR1   1
         2 000066   000000 701000 xent               TSX1    XSD$DIRECTORY
         2 000067   000123 702000 2                  TSX2    GETOUT

      701     5878            /* now wait for address resolution if we have to */
      702     5879    2       DO WHILE( ~SOURCEDONE AND ~TARGETDONE);

   5879  2 000070   000076 710000 2                  TRA     s:5885

      703     5880                /* loop until we have both addresses resolved */
      704     5881    2           CALL XSC$COMMWAIT( 10)
PL6.E3A0      #005=XSC$RESOLVE File=XSC$ACSE.:XSA1TSI                            WED 10/01/97 11:52 Page:140

   5881  2 000071   000007 630400 3                  EPPR0   7
         2 000072   000001 631400 3                  EPPR1   1
         2 000073   000000 701000 xent               TSX1    XSC$COMMWAIT
         2 000074   000076 702000 2                  TSX2    s:5885
         2 000075   000076 710000 2                  TRA     s:5885

      705     5882    3           WHENALTRETURN DO;

      706     5883                    /* event occurred.. but we'll loop until both addrs resolved */
      707     5884    3               END;

      708     5885    2           END;

   5885  2 000076   000000 236000 1                  LDQ     SOURCEDONE
         2 000077   400000 376003                    ANQ     -131072,DU
         2 000100   400000 676003                    ERQ     -131072,DU
         2 000101   000106 600000 2                  TZE     s:5887
         2 000102   000001 236000 1                  LDQ     TARGETDONE
         2 000103   400000 376003                    ANQ     -131072,DU
         2 000104   400000 676003                    ERQ     -131072,DU
         2 000105   000071 601000 2                  TNZ     s:5881

      709     5886            /* see if there was an error resolving either address */
      710     5887    1       IF SOURCEERR ~= '0'O THEN

   5887  2 000106   000002 235000 1                  LDA     SOURCEERR
         2 000107   000114 600000 2                  TZE     s:5890

      711     5888    1           XSC$ASSOCIATE.ERROR = SOURCEERR;  /* let appl know what happened */

   5888  2 000110   000002 236000 1                  LDQ     SOURCEERR
         2 000111   200023 470500                    LDP0    PARM1$,,AUTO
         2 000112   000001 756100                    STQ     1,,PR0
         2 000113   000122 710000 2                  TRA     s:5894

      712     5889    1       ELSE
PL6.E3A0      #005=XSC$RESOLVE File=XSC$ACSE.:XSA1TSI                            WED 10/01/97 11:52 Page:141
      713     5890    1           IF TARGETERR ~= '0'O THEN

   5890  2 000114   000003 236000 1                  LDQ     TARGETERR
         2 000115   000121 600000 2                  TZE     s:5893

      714     5891    1               XSC$ASSOCIATE.ERROR = TARGETERR; /* let appl know what happened */

   5891  2 000116   200023 470500                    LDP0    PARM1$,,AUTO
         2 000117   000001 756100                    STQ     1,,PR0
         2 000120   000122 710000 2                  TRA     s:5894

      715     5892    1           ELSE
      716     5893    1               RETURN;

   5893  2 000121   000000 702200 xent               TSX2  ! X66_ARET

      717     5894    1       ALTRETURN;

   5894  2 000122   000000 702200 xent               TSX2  ! X66_AALT

      718     5895    1   GETOUT:
      719     5896    1       XSC$ASSOCIATE.ERROR = DFPT.ERRCODE;  /* hand DUA's error back to appl */

   5896  2 000123   200007 236100       GETOUT       LDQ     DFPT+3,,AUTO
         2 000124   200023 470500                    LDP0    PARM1$,,AUTO
         2 000125   000001 756100                    STQ     1,,PR0

      720     5897    1       ALTRETURN;

   5897  2 000126   000000 702200 xent               TSX2  ! X66_AALT

      721     5898        %EJECT;
PL6.E3A0      #005=XSC$RESOLVE File=XSC$ACSE.:XSA1TSI                            WED 10/01/97 11:52 Page:142
      722     5899        /*F*    NAME:   XSC$RESOLVED
      723     5900
      724     5901                XSC$RESOLVED is called by the Directory Service user agent 'DUA'
      725     5902                when it has resolved, possibly with the assistance of the 'DSA',
      726     5903                an earlier resolve request.
      727     5904        */
      728     5905    1   XSC$RESOLVED: ENTRY( PARM1) ALTRET;

   5905  2 000127   000000 700200 xent  XSC$RESOLVED TSX0  ! X66_AUTO_1
         2 000130   000030 000001                    ZERO    24,1

      729     5906
      730     5907    1       PARM1$ = ADDR( PARM1);  /* load XSD_SERVICE pointer */

   5907  2 000131   200003 236100                    LDQ     @PARM1,,AUTO
         2 000132   200023 756100                    STQ     PARM1$,,AUTO

      731     5908    1       ERR = XSD_SERVICE.ERRCODE.ERR#;

   5908  2 000133   200023 470500                    LDP0    PARM1$,,AUTO
         2 000134   000003 236100                    LDQ     3,,PR0
         2 000135   000003 772000                    QRL     3
         2 000136   037777 376007                    ANQ     16383,DL
         2 000137   200022 756100                    STQ     ERR,,AUTO

      732     5909    1       TMP$ = VBASE( XSD_SERVICE.RESULT_);

   5909  2 000140   000007 236100                    LDQ     7,,PR0
         2 000141   200024 756100                    STQ     TMP$,,AUTO

      733     5910    2       DO CASE( MOD( XSD_SERVICE.EVENTID, 2));

   5910  2 000142   000001 236100                    LDQ     1,,PR0
         2 000143   000001 376007                    ANQ     1,DL
         2 000144   000002 116007                    CMPQ    2,DL
         2 000145   000147 602006 2                  TNC     s:5910+5,QL
         2 000146   000204 710000 2                  TRA     s:5924
PL6.E3A0      #005=XSC$RESOLVE File=XSC$ACSE.:XSA1TSI                            WED 10/01/97 11:52 Page:143
         2 000147   000151 710000 2                  TRA     s:5912
         2 000150   000167 710000 2                  TRA     s:5918

      734     5911    2           CASE( 0);

      735     5912    2               IF ERR ~= 0 THEN

   5912  2 000151   200022 235100                    LDA     ERR,,AUTO
         2 000152   000162 600000 2                  TZE     s:5915

      736     5913    2                   IF TMP$ ~= ADDR( XSC_SOURCE) THEN

   5913  2 000153   000003 236000 3                  LDQ     3
         2 000154   200024 116100                    CMPQ    TMP$,,AUTO
         2 000155   000162 600000 2                  TZE     s:5915

      737     5914    2                       XSC_SOURCE = TMP$->XSC$ADDRESS;

   5914  2 000156   200024 471500                    LDP1    TMP$,,AUTO
         2 000157   000000 100500                    MLR     fill='000'O
         2 000160   100000 000456                    ADSC9   0,,PR1                   cn=0,n=302
         2 000161   000000 000456 xsym               ADSC9   XSC_SOURCE               cn=0,n=302

      738     5915    2               SOURCEERR = XSD_SERVICE.ERRCODE;

   5915  2 000162   000003 236100                    LDQ     3,,PR0
         2 000163   000002 756000 1                  STQ     SOURCEERR

      739     5916    2               SOURCEDONE = %TRUE;

   5916  2 000164   400000 236003                    LDQ     -131072,DU
         2 000165   000000 756000 1                  STQ     SOURCEDONE
         2 000166   000204 710000 2                  TRA     s:5924

      740     5917    2           CASE( 1);

      741     5918    2               IF ERR ~= 0 THEN
PL6.E3A0      #005=XSC$RESOLVE File=XSC$ACSE.:XSA1TSI                            WED 10/01/97 11:52 Page:144

   5918  2 000167   200022 235100                    LDA     ERR,,AUTO
         2 000170   000200 600000 2                  TZE     s:5921

      742     5919    2                   IF TMP$ ~= ADDR( XSC_TARGET) THEN

   5919  2 000171   000005 236000 3                  LDQ     5
         2 000172   200024 116100                    CMPQ    TMP$,,AUTO
         2 000173   000200 600000 2                  TZE     s:5921

      743     5920    2                       XSC_TARGET = TMP$->XSC$ADDRESS;

   5920  2 000174   200024 471500                    LDP1    TMP$,,AUTO
         2 000175   000000 100500                    MLR     fill='000'O
         2 000176   100000 000456                    ADSC9   0,,PR1                   cn=0,n=302
         2 000177   000000 000456 xsym               ADSC9   XSC_TARGET               cn=0,n=302

      744     5921    2               TARGETERR = XSD_SERVICE.ERRCODE;

   5921  2 000200   000003 236100                    LDQ     3,,PR0
         2 000201   000003 756000 1                  STQ     TARGETERR

      745     5922    2               TARGETDONE = %TRUE;

   5922  2 000202   400000 236003                    LDQ     -131072,DU
         2 000203   000001 756000 1                  STQ     TARGETDONE

      746     5923    2           END;

      747     5924    1       RETURN;

   5924  2 000204   000000 702200 xent               TSX2  ! X66_ARET

XSC_E$NODIRSERV
 Sect OctLoc
   0     000   302303 000150                                                    ...h

PL6.E3A0      #005=XSC$RESOLVE File=XSC$ACSE.:XSA1TSI                            WED 10/01/97 11:52 Page:145
XSC_XSD_SERVICE
 Sect OctLoc
   0     002   001001 001000   000000 000000   620000 000000   000000 000000    ................
   0     006   000000 006014   000000 000000   000000 177640   000000 006014    ................
   0     012   000000 000000   000000 006014   000000 006014   ****** ******    ................
   0     016   ****** ******                                                    ....

SOURCEDONE
 Sect OctLoc
   1     000   0***** ******                                                    ....

TARGETDONE
 Sect OctLoc
   1     001   0***** ******                                                    ....

(unnamed)
 Sect OctLoc
   3     000   000000 000000   000001 000000   000113 777640   000000 006000    .........K......
   3     004   000113 777640   000000 006000   000000 000012   000006 006000    .K..............
      748     5925
      749     5926    1       END XSC$RESOLVE;
      750     5927        %EOD;

PL6.E3A0      #005=XSC$RESOLVE File=XSC$ACSE.:XSA1TSI                            WED 10/01/97 11:52 Page:146
--  Include file information  --

   XSD_MACRO_M.:XSA1TOU  is referenced.
   XSD_SUBS_C.:XSA1TOU  is referenced.
   XSC_PERR_C.:XSA1TOU  is referenced.
   UM_CP6.:E05OU  is referenced.
   XSC_INTERNAL_M.:XSA1TOU  is referenced.
   XSC_INTERNAL_E.:XSA1TOU  is referenced.
   XSC_ACSE_M.:XSA1TOU  is referenced.
   XSC_ACSE_E.:XSA1TOU  is referenced.
   XSC_COMMON_M.:XSA1TOU  is referenced.
   K_ADDRESS_M.:LIB_E05  is referenced.
      No diagnostics issued in procedure XSC$RESOLVE.
PL6.E3A0      #005=XSC$RESOLVE File=XSC$ACSE.:XSA1TSI                            WED 10/01/97 11:52 Page:147

 **** Variables and constants ****

  ****  Section 000 RoData XSC$RESOLVE

  ****  Scalars and arrays  ****
OctLoc.c.b A Datatyp(siz) R M Lvl/name                 OctLoc.c.b A Datatyp(siz) R M Lvl/name

     0-0-0/w STRC        r     1 XSC_E$NODIRSERV            2-0-0/d STRC(468)   r     1 XSC_XSD_SERVICE

  ****  Section 001  Data  XSC$RESOLVE

  ****  Scalars and arrays  ****
OctLoc.c.b A Datatyp(siz) R M Lvl/name                 OctLoc.c.b A Datatyp(siz) R M Lvl/name

     0-0-0/b BIT         r     1 SOURCEDONE                 2-0-0/b BIT         r     1 SOURCEERR
     1-0-0/b BIT         r     1 TARGETDONE                 3-0-0/b BIT         r     1 TARGETERR

  ****  Auto variables  ****

  ****  Scalars and arrays  ****
OctLoc.c.b A Datatyp(siz) R M Lvl/name                 OctLoc.c.b A Datatyp(siz) R M Lvl/name

     3-0-0/w PTR         r     1 @PARM1                     4-0-0/d STRC(468)   r     1 DFPT
    22-0-0/w SBIN        r     1 ERR                       *0-0-0/w SBIN        r     1 PARM1
    23-0-0/w PTR         r     1 PARM1$                    24-0-0/w PTR         r     1 TMP$

  ****  SYMREF variables  ****

  ****  Scalars and arrays  ****
OctLoc.c.b A Datatyp(siz) R M Lvl/name                 OctLoc.c.b A Datatyp(siz) R M Lvl/name

     0-0-0/w STRC(2718)  r     1 XSC_SOURCE                 0-0-0/w STRC(2718)  r     1 XSC_TARGET

  ****  BASED and DCB variables  ****

  ****  Scalars and arrays  ****
OctLoc.c.b A Datatyp(siz) R M Lvl/name                 OctLoc.c.b A Datatyp(siz) R M Lvl/name
PL6.E3A0      #005=XSC$RESOLVE File=XSC$ACSE.:XSA1TSI                            WED 10/01/97 11:52 Page:148

     0-0-0/w STRC(2718)  r     1 XSC$ADDRESS                0-0-0/w STRC(504)   r     1 XSC$ASSOCIATE
     0-0-0/d STRC(468)   r     1 XSD_SERVICE


   Procedure XSC$RESOLVE requires 133 words for executable code.
   Procedure XSC$RESOLVE requires 24 words of local(AUTO) storage.
PL6.E3A0      #005=XSC$RESOLVE File=XSC$ACSE.:XSA1TSI                            WED 10/01/97 11:52 Page:149
          *** CROSS REFERENCE LISTING ***
**     DENOTES     IDENTIFIER DEFINITION
<<                 IDENTIFIER'S VALUE SET
>>                 IDENTIFIER'S VALUE USED
<>                 IDENTIFIER SET AND/OR USED
--                 IDENTIFIER REFERENCED
PL6.E3A0      #005=XSC$RESOLVE File=XSC$ACSE.:XSA1TSI                            WED 10/01/97 11:52 Page:150
          MINI XREF LISTING

DFPT
      5533**DCL      5861<<ASSIGN   5868<>CALL     5870<<ASSIGN   5877<>CALL
DFPT.ATTRIBUTE.TYPE
      5670**DCL      5863<<ASSIGN   5872<<ASSIGN
DFPT.ATTRIBUTE.VALUE$
      5673**DCL      5864<<ASSIGN   5873<<ASSIGN
DFPT.ERRCODE
      5602**DCL      5633--REDEF    5634--REDEF    5896>>ASSIGN
DFPT.EVENTID
      5552**DCL      5862<<ASSIGN   5871<<ASSIGN
DFPT.RESULT_
      5645**DCL      5865<<ASSIGN   5874<<ASSIGN
DFPT.UENTADDR$
      5649**DCL      5653--REDEF    5656--REDEF
ERR
      5846**DCL      5908<<ASSIGN   5912>>IF       5918>>IF
GETOUT
      5896**LABEL    5868--CALLALT  5877--CALLALT
PARM1
      5847**DCL        13--PROC     5855--ASSIGN   5905--ENTRY    5907--ASSIGN
PARM1$
      5848**DCL      2423--IMP-PTR  5698--IMP-PTR  5855<<ASSIGN   5857>>ASSIGN   5862>>ASSIGN   5864>>ASSIGN
      5871>>ASSIGN   5873>>ASSIGN   5888>>ASSIGN   5891>>ASSIGN   5896>>ASSIGN   5907<<ASSIGN   5908>>ASSIGN
      5909>>ASSIGN   5910>>DOCASE   5915>>ASSIGN   5921>>ASSIGN
SOURCEDONE
      5850**DCL      5867<<ASSIGN   5879>>DOWHILE  5916<<ASSIGN
SOURCEERR
      5852**DCL      5866<<ASSIGN   5887>>IF       5888>>ASSIGN   5915<<ASSIGN
TARGETDONE
      5851**DCL      5876<<ASSIGN   5879>>DOWHILE  5922<<ASSIGN
TARGETERR
      5853**DCL      5875<<ASSIGN   5890>>IF       5891>>ASSIGN   5921<<ASSIGN
PL6.E3A0      #005=XSC$RESOLVE File=XSC$ACSE.:XSA1TSI                            WED 10/01/97 11:52 Page:151
TMP$
      5849**DCL      5909<<ASSIGN   5913>>IF       5914>>ASSIGN   5919>>IF       5920>>ASSIGN
XSC$ADDRESS
      1753**DCL      5914>>ASSIGN   5920>>ASSIGN
XSC$ADDRESS.NSAP.ADDRESS_N
      2014**DCL      2015--REDEF
XSC$ASSOCIATE.CCID
      2435**DCL      5862>>ASSIGN   5871>>ASSIGN
XSC$ASSOCIATE.ERRDEF
      2438**DCL      2458--REDEF
XSC$ASSOCIATE.ERROR
      2458**DCL      5857<<ASSIGN   5888<<ASSIGN   5891<<ASSIGN   5896<<ASSIGN
XSC$ASSOCIATE.IAPT$
      2470**DCL      5864>>ASSIGN
XSC$ASSOCIATE.RAPT$
      2474**DCL      5873>>ASSIGN
XSC$COMMWAIT
      5843**DCL-ENT  5881--CALL
XSC$RESOLVED
      5905**ENTRY    5484--DCLINIT
XSC_E$NODIRSERV
      3862**DCL      5857>>ASSIGN
XSC_SOURCE
      1187**DCL      5865--ASSIGN   5913--IF       5914<<ASSIGN
XSC_SOURCE.NSAP.ADDRESS_N
      1448**DCL      1449--REDEF
XSC_TARGET
      1470**DCL      5874--ASSIGN   5919--IF       5920<<ASSIGN
XSC_TARGET.NSAP.ADDRESS_N
      1731**DCL      1732--REDEF
XSC_XSD_SERVICE
      5368**DCL      5861>>ASSIGN   5870>>ASSIGN
XSC_XSD_SERVICE.ERRCODE
      5437**DCL      5468--REDEF    5469--REDEF
XSC_XSD_SERVICE.UENTADDR$
      5484**DCL      5488--REDEF    5491--REDEF
PL6.E3A0      #005=XSC$RESOLVE File=XSC$ACSE.:XSA1TSI                            WED 10/01/97 11:52 Page:152
XSD$DIRECTORY
      5844**DCL-ENT  5856--IF       5868--CALL     5877--CALL
XSD_SERVICE.ERRCODE
      5767**DCL      5798--REDEF    5799--REDEF    5915>>ASSIGN   5921>>ASSIGN
XSD_SERVICE.ERRCODE.ERR#
      5795**DCL      5908>>ASSIGN
XSD_SERVICE.EVENTID
      5717**DCL      5910>>DOCASE
XSD_SERVICE.RESULT_
      5810**DCL      5909>>ASSIGN
XSD_SERVICE.UENTADDR$
      5814**DCL      5818--REDEF    5821--REDEF
PL6.E3A0      #005=XSC$RESOLVE File=XSC$ACSE.:XSA1TSI                            WED 10/01/97 11:52 Page:153
              *** CROSS REFERENCE LISTING ***
    **     DENOTES     IDENTIFIER DEFINITION
    <<                 IDENTIFIER'S VALUE SET
    >>                 IDENTIFIER'S VALUE USED
    <>                 IDENTIFIER SET AND/OR USED
    --                 IDENTIFIER REFERENCED
PL6.E3A0      #005=XSC$RESOLVE File=XSC$ACSE.:XSA1TSI                            WED 10/01/97 11:52 Page:154
              MINI UREF LISTING

XSC$RESOLVE      13**PROC

PL6.E3A0      #006=XSC$PRECV File=XSC$ACSE.:XSA1TSI                              WED 10/01/97 11:52 Page:155
      751        1        /*T***********************************************************/
      752        2        /*T*                                                         */
      753        3        /*T* Copyright (c) Bull HN Information Systems Inc., 1997    */
      754        4        /*T*                                                         */
      755        5        /*T***********************************************************/
      756        6        /*F*    NAME:   XSC$PRECV
      757        7
      758        8                XSC$PRECV is the sole entry to the ACSE (Application Control Service
      759        9                Elements) portion of the ISO Application layer from the Presentation
      760       10                layer.  An incoming Presentation message has caused the Presentation
      761       11                layer to fill in a parameter block and call this routine to report
      762       12                the message.
      763       13        */
      764       14        XSC$PRECV: PROC( PFPT) ALTRET;
      765       15        %INCLUDE XSC_ACSE_E;
      766       93        %INCLUDE XSC_ACSE_M;
      767      402            %XSC$GENERIC( FPTN=CFPT, STCLASS=AUTO);
      768      461            %XSC$GENERIC( STCLASS="BASED( VBLK.FPT$)");
      769      520        %INCLUDE XSC_INTERNAL_E;
      770      608        %INCLUDE XSC_INTERNAL_M;
      771      953            %XSC$CCTX( NAME=CCTX, STCLASS="BASED( CTX$)");
      772      999            %XSC$VBLK( NAME=VBLK, STCLASS=AUTO);
      773     1105            %XSC$VBLK( NAME=XSC_VBLK, STCLASS="STATIC SYMDEF");
      774     1211        %INCLUDE XSS_SESSION_E;
      775     1776        %INCLUDE XSP_PRESENTATION_E;
      776     1875        %INCLUDE XSP_PRESENTATION_M;
      777     3361            %XSP$PRIMITIVES( STCLASS="BASED( PFPT$)");
      778     5060            %XSP$GENERIC( FPTN=PFPT, STCLASS="");
      779     5156        %INCLUDE K_ADDRESS_M;
      780     5659        %INCLUDE XSC_COMMON_M;
      781     6312            %XSC$CCB;
      782     6609            %XSC$CCB( NAME=TCCB, STCLASS="BASED( TCCB$)");
      783     6906        %INCLUDE XSP_ASN1_M;
      784     7252            %XSP_ASN1_FPT( FPTN=AFPT, STCLASS="BASED( AFPT$)");
      785     7272        %INCLUDE UM_CP6;
      786     8124        %MACRO FATALDEF( NAME=XSC_FATAL, STCLASS="CONSTANT SYMDEF", LVL=1, LAST=";",
      787     8125                         ERR#=0, SEV=7);
PL6.E3A0      #006=XSC$PRECV File=XSC$ACSE.:XSA1TSI                              WED 10/01/97 11:52 Page:156
      788     8126            %VLP_ERRCODE( FPTN=NAME, STCLASS=STCLASS, FCG='XS', MID='C',
      789     8127                          MON='0'B, ERR#=ERR#, SEV=SEV);
      790     8128        %MEND;
      791     8129        %INCLUDE XSC_PERR_C;
      792     8206            %FATALDEF( NAME=XSC_F$NOPCID, ERR#=%F$NOPCID);
      793     8254            /*E*  ERROR:  XSC-F$NOPCID-7
      794     8255                MESSAGE:  Presentation didn't supply a PCID.
      795     8256            */
      796     8257
      797     8258    1       DCL XSC$AMACHINE ENTRY(1) ALTRET;
      798     8259    1       DCL XSC$CTXPTR ENTRY(2) ALTRET;
      799     8260    1       DCL XSC$DECODE ENTRY(2) ALTRET;
      800     8261    1       DCL XSC$GETCTX ENTRY(2) ALTRET;
      801     8262    1       DCL XSS$SCREECH ENTRY(1);
      802     8263
      803     8264    1       DCL XSS_CCB$$ PTR SYMREF;
      804     8265
      805     8266    1       DCL AFPT$ PTR;
      806     8267    1       DCL CCB$(0:0) PTR BASED( XSS_CCB$$) ALIGNED;
      807     8268    1       DCL CCID SBIN;
      808     8269    1       DCL CTX$ PTR;
      809     8270    1       DCL I SBIN;
      810     8271    1       DCL PFPT$ PTR;
      811     8272    1       DCL SASE$ EPTR;
      812     8273    1       DCL SASEONLY BIT(1);
      813     8274    1       DCL TCCB$ PTR;
      814     8275
      815     8276    1       PFPT$ = ADDR( PFPT);
      816     8277    2       IF XSP$GENERIC.PCID ~= 0 THEN DO;
      817     8278    2           CCID = XSP$GENERIC.PCID;
      818     8279    2           CALL XSC$CTXPTR( CCID, CTX$)
      819     8280    3           WHENALTRETURN DO;
      820     8281                    /* This appears to be an incoming connection attempt */
      821     8282    3               CALL XSC$GETCTX( CTX$, CCID)
      822     8283    4               WHENALTRETURN DO;
      823     8284    4                   ALTRETURN;  /* reject connect attempt */
      824     8285    4                   END;
PL6.E3A0      #006=XSC$PRECV File=XSC$ACSE.:XSA1TSI                              WED 10/01/97 11:52 Page:157
      825     8286    3               CCTX.ENTRY$ = CCB$( CCID)->XSC$CCB.ACSE$;  /* inherit entry */
      826     8287    3               END;
      827     8288    2           END;
      828     8289    1       ELSE
      829     8290                /* PCID not filled in.  Presentation fouled up. */
      830     8291    1           CALL XSS$SCREECH( XSC_F$NOPCID);
      831     8292    1       VBLK = XSC_VBLK;
      832     8293    1       VBLK.CTX$ = CTX$;
      833     8294    1       VBLK.FPT$ = ADDR( CFPT);
      834     8295    2       DO CASE( XSP$GENERIC.FNC);
      835     8296    2           CASE( %XSP_FNC_PACEIND#,
      836     8297    2                 %XSP_FNC_PACECNF#,
      837     8298    2                 %XSP_FNC_PACRIND#,
      838     8299    2                 %XSP_FNC_PACSIND#,
      839     8300    2                 %XSP_FNC_PALTIND#,
      840     8301    2                 %XSP_FNC_PALTCNF#,
      841     8302    2                 %XSP_FNC_PCADIND#,
      842     8303    2                 %XSP_FNC_PCADCNF#,
      843     8304    2                 %XSP_FNC_PCONIND#,
      844     8305    2                 %XSP_FNC_PCONCNF#,
      845     8306    2                 %XSP_FNC_PDATIND#,
      846     8307    2                 %XSP_FNC_PEXPIND#,
      847     8308    2                 %XSP_FNC_PRELIND#,
      848     8309    2                 %XSP_FNC_PRELCNF#,
      849     8310    2                 %XSP_FNC_PRSXIND#,
      850     8311    2                 %XSP_FNC_PRSXCNF#,
      851     8312    2                 %XSP_FNC_PSMAIND#,
      852     8313    2                 %XSP_FNC_PSMACNF#,
      853     8314    2                 %XSP_FNC_PSMIIND#,
      854     8315    2                 %XSP_FNC_PSMICNF#,
      855     8316    2                 %XSP_FNC_PTKPIND#,
      856     8317    2                 %XSP_FNC_PTYDIND#,
      857     8318    2                 %XSP_FNC_PUABIND#,
      858     8319    2                 %XSP_FNC_PPERIND#);
      859     8320    3               IF XSP$GENERIC.DATA$ ~= ADDR( NIL) THEN DO;
      860     8321    3                   AFPT$ = XSP$GENERIC.DATA$;
      861     8322    3                   VBLK.DATA.PTR$ = AFPT.BUF$;
PL6.E3A0      #006=XSC$PRECV File=XSC$ACSE.:XSA1TSI                              WED 10/01/97 11:52 Page:158
      862     8323    3                   VBLK.DATA.SIZE = AFPT.NXTX;
      863     8324    3                   END;
      864     8325    2           CASE( ELSE);
      865     8326                    /* otherwise, no data present */
      866     8327    2           END;
      867     8328    1       SASEONLY = %FALSE;
      868     8329    2       DO CASE( XSP$GENERIC.FNC);
      869     8330    2           CASE( %XSP_FNC_PCONIND#,
      870     8331    2                 %XSP_FNC_PRELCNF#);
      871     8332                    /* These functions are for ACSE only */
      872     8333    2               CALL XSC$DECODE( VBLK, PFPT$)
      873     8334    3               WHENALTRETURN DO;
      874     8335    3                   VBLK.APDUERR = 1;
      875     8336    3                   END;
      876     8337    2           CASE( %XSP_FNC_PCONCNF#,
      877     8338    2                 %XSP_FNC_PRELIND#,
      878     8339    2                 %XSP_FNC_PUABIND#,
      879     8340    2                 %XSP_FNC_PPABIND#);
      880     8341                    /* These functions are for both ACSE and any SASE routines */
      881     8342    2               CALL XSC$DECODE( VBLK, PFPT$)
      882     8343    3               WHENALTRETURN DO;
      883     8344    3                   VBLK.APDUERR = 1;
      884     8345    3                   END;
      885     8346    2               GOTO SASETOO;
      886     8347    2           CASE( ELSE);
      887     8348                    /* Any other functions are only for SASE routines */
      888     8349    2               SASEONLY = %TRUE;
      889     8350    2   SASETOO:
      890     8351    2               TCCB$ = CCB$( XSP$GENERIC.PCID);
      891     8352    3               DO I = 0 TO 2;
      892     8353    3                   SASE$ = TCCB.SASE$( I);
      893     8354    3                   IF SASE$ ~= ENTADDR( NIL) THEN
      894     8355    3                       CALL SASE$( XSP$GENERIC)
      895     8356    4                       WHENALTRETURN DO;
      896     8357                                /* ignore ALTRETURN from SASE routine */
      897     8358    4                           END;
      898     8359    3                   END;
PL6.E3A0      #006=XSC$PRECV File=XSC$ACSE.:XSA1TSI                              WED 10/01/97 11:52 Page:159
      899     8360    2               IF SASEONLY THEN
      900     8361                        /* this message supposedly transparent to ACSE... */
      901     8362    2                   RETURN;
      902     8363    2           END;
      903     8364    1       XSC$GENERIC.CCID = XSP$GENERIC.PCID;
      904     8365            /* VBLK.EVENT was filled in by XSC$DECODE above */
      905     8366    1       CALL XSC$AMACHINE( VBLK)
      906     8367    2       WHENALTRETURN DO;
      907     8368    2           ALTRETURN;  /* connection died or protocol error */
      908     8369    2           END;
      909     8370    1       RETURN;
      910     8371
      911     8372    1       END XSC$PRECV;
      912     8373        %EOD;

PL6.E3A0      #006=XSC$PRECV File=XSC$ACSE.:XSA1TSI                              WED 10/01/97 11:52 Page:160
--  Include file information  --

   XSC_PERR_C.:XSA1TOU  is referenced.
   UM_CP6.:E05OU  is referenced.
   XSP_ASN1_M.:XSA1TOU  is referenced.
   XSC_COMMON_M.:XSA1TOU  is referenced.
   K_ADDRESS_M.:LIB_E05  is referenced.
   XSP_PRESENTATION_M.:XSA1TOU  is referenced.
   XSP_PRESENTATION_E.:XSA1TOU  is referenced.
   XSS_SESSION_E.:XSA1TOU  is referenced.
   XSC_INTERNAL_M.:XSA1TOU  is referenced.
   XSC_INTERNAL_E.:XSA1TOU  is referenced.
   XSC_ACSE_M.:XSA1TOU  is referenced.
   XSC_ACSE_E.:XSA1TOU  is referenced.
      No diagnostics issued in procedure XSC$PRECV.

   Procedure XSC$PRECV requires 231 words for executable code.
   Procedure XSC$PRECV requires 36 words of local(AUTO) storage.

PL6.E3A0      #006=XSC$PRECV File=XSC$ACSE.:XSA1TSI                              WED 10/01/97 11:52 Page:161

 Object Unit name= XSC$PRECV                                  File name= XSC$ACSE.:XSA1TOU
 UTS= OCT 01 '97 11:52:16.24 WED                              Compiler= PL-6/E31         Sev=      00
 SharedLib= :SHARED_SYSTEM                                    Alt SharedLib=


    ****  Control sections  ****

 Sect   Type Bound  Init  Size OctSiz  Section name(segment info)
    0   Data  even  none     7      7  XSC$PRECV
    1  RoData even  UTS      1      1  XSC$PRECV
    2   Proc  even  none   231    347  XSC$PRECV
    3  RoData even  none     5      5  XSC$PRECV

    ****  Entry defs  ****

                              Check   Calling
                             calling  sequence
  Sect OctLoc Primary Altret sequence   type   Parms  Name
     2      0   yes    yes     yes      Std        1  XSC$PRECV

  ****  Data defs  ****

 Sect OctLoc  Name                           Sect OctLoc  Name
    0      0  XSC_VBLK                           1      0  XSC_F$NOPCID
PL6.E3A0      #006=XSC$PRECV File=XSC$ACSE.:XSA1TSI                              WED 10/01/97 11:52 Page:162

  ****  Entry refs  ****

         Check        Calling
        calling       sequence
Altret sequence SRef   type   Args  Name
 yes     yes           Std       2 XSC$CTXPTR
 yes     yes           Std       2 XSC$GETCTX
         yes           Std       1 XSS$SCREECH
 yes     yes           Std       1 XSC$AMACHINE
 yes     yes           Std       2 XSC$DECODE
                       nStd      0 X66_AUTO_1
                       nStd      0 X66_AALT
                       nStd      0 X66_ARET

  ****  Data refs  ****

  Flags:  r = read only, s = secondary
Flgs Name                             Flgs Name                             Flgs Name
     XSS_CCB$$

  ****  Segment refs  ****

  Flags:  r = read only, s = secondary
Flgs Name                             Flgs Name                             Flgs Name
     NULLSID                               ISSID
PL6.E3A0      #006=XSC$PRECV File=XSC$ACSE.:XSA1TSI                              WED 10/01/97 11:52 Page:163


      751        1        /*T***********************************************************/
      752        2        /*T*                                                         */
      753        3        /*T* Copyright (c) Bull HN Information Systems Inc., 1997    */
      754        4        /*T*                                                         */
      755        5        /*T***********************************************************/
      756        6        /*F*    NAME:   XSC$PRECV
      757        7
      758        8                XSC$PRECV is the sole entry to the ACSE (Application Control Service
      759        9                Elements) portion of the ISO Application layer from the Presentation
      760       10                layer.  An incoming Presentation message has caused the Presentation
      761       11                layer to fill in a parameter block and call this routine to report
      762       12                the message.
      763       13        */
      764       14        XSC$PRECV: PROC( PFPT) ALTRET;

     14  2 000000   000000 700200 xent  XSC$PRECV    TSX0  ! X66_AUTO_1
         2 000001   000044 000001                    ZERO    36,1

      765       15        %INCLUDE XSC_ACSE_E;
      766       93        %INCLUDE XSC_ACSE_M;
      767      402            %XSC$GENERIC( FPTN=CFPT, STCLASS=AUTO);
      768      461            %XSC$GENERIC( STCLASS="BASED( VBLK.FPT$)");
      769      520        %INCLUDE XSC_INTERNAL_E;
      770      608        %INCLUDE XSC_INTERNAL_M;
      771      953            %XSC$CCTX( NAME=CCTX, STCLASS="BASED( CTX$)");
      772      999            %XSC$VBLK( NAME=VBLK, STCLASS=AUTO);
      773     1105            %XSC$VBLK( NAME=XSC_VBLK, STCLASS="STATIC SYMDEF");
      774     1211        %INCLUDE XSS_SESSION_E;
      775     1776        %INCLUDE XSP_PRESENTATION_E;
      776     1875        %INCLUDE XSP_PRESENTATION_M;
      777     3361            %XSP$PRIMITIVES( STCLASS="BASED( PFPT$)");
      778     5060            %XSP$GENERIC( FPTN=PFPT, STCLASS="");
      779     5156        %INCLUDE K_ADDRESS_M;
      780     5659        %INCLUDE XSC_COMMON_M;
      781     6312            %XSC$CCB;
      782     6609            %XSC$CCB( NAME=TCCB, STCLASS="BASED( TCCB$)");
PL6.E3A0      #006=XSC$PRECV File=XSC$ACSE.:XSA1TSI                              WED 10/01/97 11:52 Page:164
      783     6906        %INCLUDE XSP_ASN1_M;
      784     7252            %XSP_ASN1_FPT( FPTN=AFPT, STCLASS="BASED( AFPT$)");
      785     7272        %INCLUDE UM_CP6;
      786     8124        %MACRO FATALDEF( NAME=XSC_FATAL, STCLASS="CONSTANT SYMDEF", LVL=1, LAST=";",
      787     8125                         ERR#=0, SEV=7);
      788     8126            %VLP_ERRCODE( FPTN=NAME, STCLASS=STCLASS, FCG='XS', MID='C',
      789     8127                          MON='0'B, ERR#=ERR#, SEV=SEV);
      790     8128        %MEND;
      791     8129        %INCLUDE XSC_PERR_C;
      792     8206            %FATALDEF( NAME=XSC_F$NOPCID, ERR#=%F$NOPCID);
      793     8254            /*E*  ERROR:  XSC-F$NOPCID-7
      794     8255                MESSAGE:  Presentation didn't supply a PCID.
      795     8256            */
      796     8257
      797     8258    1       DCL XSC$AMACHINE ENTRY(1) ALTRET;
      798     8259    1       DCL XSC$CTXPTR ENTRY(2) ALTRET;
      799     8260    1       DCL XSC$DECODE ENTRY(2) ALTRET;
      800     8261    1       DCL XSC$GETCTX ENTRY(2) ALTRET;
      801     8262    1       DCL XSS$SCREECH ENTRY(1);
      802     8263
      803     8264    1       DCL XSS_CCB$$ PTR SYMREF;
      804     8265
      805     8266    1       DCL AFPT$ PTR;
      806     8267    1       DCL CCB$(0:0) PTR BASED( XSS_CCB$$) ALIGNED;
      807     8268    1       DCL CCID SBIN;
      808     8269    1       DCL CTX$ PTR;
      809     8270    1       DCL I SBIN;
      810     8271    1       DCL PFPT$ PTR;
      811     8272    1       DCL SASE$ EPTR;
      812     8273    1       DCL SASEONLY BIT(1);
      813     8274    1       DCL TCCB$ PTR;
      814     8275
      815     8276    1       PFPT$ = ADDR( PFPT);

   8276  2 000002   200003 236100                    LDQ     @PFPT,,AUTO
         2 000003   200035 756100                    STQ     PFPT$,,AUTO

PL6.E3A0      #006=XSC$PRECV File=XSC$ACSE.:XSA1TSI                              WED 10/01/97 11:52 Page:165
      816     8277    2       IF XSP$GENERIC.PCID ~= 0 THEN DO;

   8277  2 000004   200035 470500                    LDP0    PFPT$,,AUTO
         2 000005   000000 236100                    LDQ     0,,PR0
         2 000006   000777 316003                    CANQ    511,DU
         2 000007   000046 600000 2                  TZE     s:8291

      817     8278    2           CCID = XSP$GENERIC.PCID;

   8278  2 000010   000000 236100                    LDQ     0,,PR0
         2 000011   000022 772000                    QRL     18
         2 000012   000777 376007                    ANQ     511,DL
         2 000013   200032 756100                    STQ     CCID,,AUTO

      818     8279    2           CALL XSC$CTXPTR( CCID, CTX$)

   8279  2 000014   200033 631500                    EPPR1   CTX$,,AUTO
         2 000015   200043 451500                    STP1    TCCB$+3,,AUTO
         2 000016   200032 633500                    EPPR3   CCID,,AUTO
         2 000017   200042 453500                    STP3    TCCB$+2,,AUTO
         2 000020   200042 630500                    EPPR0   TCCB$+2,,AUTO
         2 000021   000000 631400 3                  EPPR1   0
         2 000022   000000 701000 xent               TSX1    XSC$CTXPTR
         2 000023   000025 702000 2                  TSX2    s:8282
         2 000024   000045 710000 2                  TRA     s:8288

      819     8280    3           WHENALTRETURN DO;

      820     8281                    /* This appears to be an incoming connection attempt */
      821     8282    3               CALL XSC$GETCTX( CTX$, CCID)

   8282  2 000025   200032 630500                    EPPR0   CCID,,AUTO
         2 000026   200043 450500                    STP0    TCCB$+3,,AUTO
         2 000027   200033 631500                    EPPR1   CTX$,,AUTO
         2 000030   200042 451500                    STP1    TCCB$+2,,AUTO
         2 000031   200042 630500                    EPPR0   TCCB$+2,,AUTO
         2 000032   000000 631400 3                  EPPR1   0
PL6.E3A0      #006=XSC$PRECV File=XSC$ACSE.:XSA1TSI                              WED 10/01/97 11:52 Page:166
         2 000033   000000 701000 xent               TSX1    XSC$GETCTX
         2 000034   000036 702000 2                  TSX2    s:8284
         2 000035   000037 710000 2                  TRA     s:8286

      822     8283    4               WHENALTRETURN DO;

      823     8284    4                   ALTRETURN;  /* reject connect attempt */

   8284  2 000036   000000 702200 xent               TSX2  ! X66_AALT

      824     8285    4                   END;
      825     8286    3               CCTX.ENTRY$ = CCB$( CCID)->XSC$CCB.ACSE$;  /* inherit entry */

   8286  2 000037   000000 470400 xsym               LDP0    XSS_CCB$$
         2 000040   200032 720100                    LXL0    CCID,,AUTO
         2 000041   000000 471510                    LDP1    0,X0,PR0
         2 000042   100012 236100                    LDQ     10,,PR1
         2 000043   200033 473500                    LDP3    CTX$,,AUTO
         2 000044   300001 756100                    STQ     1,,PR3

      826     8287    3               END;

      827     8288    2           END;

   8288  2 000045   000052 710000 2                  TRA     s:8292

      828     8289    1       ELSE
      829     8290                /* PCID not filled in.  Presentation fouled up. */
      830     8291    1           CALL XSS$SCREECH( XSC_F$NOPCID);

   8291  2 000046   000002 630400 3                  EPPR0   2
         2 000047   000001 631400 3                  EPPR1   1
         2 000050   000000 701000 xent               TSX1    XSS$SCREECH
         2 000051   000000 011000                    NOP     0

      831     8292    1       VBLK = XSC_VBLK;

PL6.E3A0      #006=XSC$PRECV File=XSC$ACSE.:XSA1TSI                              WED 10/01/97 11:52 Page:167
   8292  2 000052   000100 100400                    MLR     fill='000'O
         2 000053   000000 000034 0                  ADSC9   XSC_VBLK                 cn=0,n=28
         2 000054   200022 000034                    ADSC9   VBLK,,AUTO               cn=0,n=28

      832     8293    1       VBLK.CTX$ = CTX$;

   8293  2 000055   200033 236100                    LDQ     CTX$,,AUTO
         2 000056   200022 756100                    STQ     VBLK,,AUTO

      833     8294    1       VBLK.FPT$ = ADDR( CFPT);

   8294  2 000057   200004 630500                    EPPR0   CFPT,,AUTO
         2 000060   200023 450500                    STP0    VBLK+1,,AUTO

      834     8295    2       DO CASE( XSP$GENERIC.FNC);

   8295  2 000061   200035 471500                    LDP1    PFPT$,,AUTO
         2 000062   100000 236100                    LDQ     0,,PR1
         2 000063   000033 772000                    QRL     27
         2 000064   000006 136007                    SBLQ    6,DL
         2 000065   000071 116007                    CMPQ    57,DL
         2 000066   000070 602006 2                  TNC     s:8295+7,QL
         2 000067   000173 710000 2                  TRA     s:8328
         2 000070   000161 710000 2                  TRA     s:8320
         2 000071   000173 710000 2                  TRA     s:8328
         2 000072   000161 710000 2                  TRA     s:8320
         2 000073   000173 710000 2                  TRA     s:8328
         2 000074   000173 710000 2                  TRA     s:8328
         2 000075   000173 710000 2                  TRA     s:8328
         2 000076   000173 710000 2                  TRA     s:8328
         2 000077   000173 710000 2                  TRA     s:8328
         2 000100   000161 710000 2                  TRA     s:8320
         2 000101   000173 710000 2                  TRA     s:8328
         2 000102   000161 710000 2                  TRA     s:8320
         2 000103   000173 710000 2                  TRA     s:8328
         2 000104   000161 710000 2                  TRA     s:8320
         2 000105   000173 710000 2                  TRA     s:8328
PL6.E3A0      #006=XSC$PRECV File=XSC$ACSE.:XSA1TSI                              WED 10/01/97 11:52 Page:168
         2 000106   000161 710000 2                  TRA     s:8320
         2 000107   000173 710000 2                  TRA     s:8328
         2 000110   000161 710000 2                  TRA     s:8320
         2 000111   000173 710000 2                  TRA     s:8328
         2 000112   000161 710000 2                  TRA     s:8320
         2 000113   000173 710000 2                  TRA     s:8328
         2 000114   000161 710000 2                  TRA     s:8320
         2 000115   000173 710000 2                  TRA     s:8328
         2 000116   000161 710000 2                  TRA     s:8320
         2 000117   000173 710000 2                  TRA     s:8328
         2 000120   000173 710000 2                  TRA     s:8328
         2 000121   000173 710000 2                  TRA     s:8328
         2 000122   000161 710000 2                  TRA     s:8320
         2 000123   000173 710000 2                  TRA     s:8328
         2 000124   000161 710000 2                  TRA     s:8320
         2 000125   000173 710000 2                  TRA     s:8328
         2 000126   000161 710000 2                  TRA     s:8320
         2 000127   000173 710000 2                  TRA     s:8328
         2 000130   000161 710000 2                  TRA     s:8320
         2 000131   000173 710000 2                  TRA     s:8328
         2 000132   000161 710000 2                  TRA     s:8320
         2 000133   000173 710000 2                  TRA     s:8328
         2 000134   000161 710000 2                  TRA     s:8320
         2 000135   000173 710000 2                  TRA     s:8328
         2 000136   000161 710000 2                  TRA     s:8320
         2 000137   000173 710000 2                  TRA     s:8328
         2 000140   000161 710000 2                  TRA     s:8320
         2 000141   000173 710000 2                  TRA     s:8328
         2 000142   000161 710000 2                  TRA     s:8320
         2 000143   000173 710000 2                  TRA     s:8328
         2 000144   000161 710000 2                  TRA     s:8320
         2 000145   000173 710000 2                  TRA     s:8328
         2 000146   000173 710000 2                  TRA     s:8328
         2 000147   000173 710000 2                  TRA     s:8328
         2 000150   000161 710000 2                  TRA     s:8320
         2 000151   000173 710000 2                  TRA     s:8328
         2 000152   000161 710000 2                  TRA     s:8320
PL6.E3A0      #006=XSC$PRECV File=XSC$ACSE.:XSA1TSI                              WED 10/01/97 11:52 Page:169
         2 000153   000173 710000 2                  TRA     s:8328
         2 000154   000161 710000 2                  TRA     s:8320
         2 000155   000173 710000 2                  TRA     s:8328
         2 000156   000173 710000 2                  TRA     s:8328
         2 000157   000173 710000 2                  TRA     s:8328
         2 000160   000161 710000 2                  TRA     s:8320

      835     8296    2           CASE( %XSP_FNC_PACEIND#,

      836     8297    2                 %XSP_FNC_PACECNF#,
      837     8298    2                 %XSP_FNC_PACRIND#,
      838     8299    2                 %XSP_FNC_PACSIND#,
      839     8300    2                 %XSP_FNC_PALTIND#,
      840     8301    2                 %XSP_FNC_PALTCNF#,
      841     8302    2                 %XSP_FNC_PCADIND#,
      842     8303    2                 %XSP_FNC_PCADCNF#,
      843     8304    2                 %XSP_FNC_PCONIND#,
      844     8305    2                 %XSP_FNC_PCONCNF#,
      845     8306    2                 %XSP_FNC_PDATIND#,
      846     8307    2                 %XSP_FNC_PEXPIND#,
      847     8308    2                 %XSP_FNC_PRELIND#,
      848     8309    2                 %XSP_FNC_PRELCNF#,
      849     8310    2                 %XSP_FNC_PRSXIND#,
      850     8311    2                 %XSP_FNC_PRSXCNF#,
      851     8312    2                 %XSP_FNC_PSMAIND#,
      852     8313    2                 %XSP_FNC_PSMACNF#,
      853     8314    2                 %XSP_FNC_PSMIIND#,
      854     8315    2                 %XSP_FNC_PSMICNF#,
      855     8316    2                 %XSP_FNC_PTKPIND#,
      856     8317    2                 %XSP_FNC_PTYDIND#,
      857     8318    2                 %XSP_FNC_PUABIND#,
      858     8319    2                 %XSP_FNC_PPERIND#);
      859     8320    3               IF XSP$GENERIC.DATA$ ~= ADDR( NIL) THEN DO;

   8320  2 000161   100002 236100                    LDQ     2,,PR1
         2 000162   000003 116000 3                  CMPQ    3
         2 000163   000173 600000 2                  TZE     s:8328
PL6.E3A0      #006=XSC$PRECV File=XSC$ACSE.:XSA1TSI                              WED 10/01/97 11:52 Page:170

      860     8321    3                   AFPT$ = XSP$GENERIC.DATA$;

   8321  2 000164   200031 756100                    STQ     AFPT$,,AUTO

      861     8322    3                   VBLK.DATA.PTR$ = AFPT.BUF$;

   8322  2 000165   200031 473500                    LDP3    AFPT$,,AUTO
         2 000166   300001 236100                    LDQ     1,,PR3
         2 000167   200026 756100                    STQ     VBLK+4,,AUTO

      862     8323    3                   VBLK.DATA.SIZE = AFPT.NXTX;

   8323  2 000170   300014 235100                    LDA     12,,PR3
         2 000171   200027 755100                    STA     VBLK+5,,AUTO

      863     8324    3                   END;

   8324  2 000172   000173 710000 2                  TRA     s:8328

      864     8325    2           CASE( ELSE);

      865     8326                    /* otherwise, no data present */
      866     8327    2           END;

      867     8328    1       SASEONLY = %FALSE;

   8328  2 000173   200037 450100                    STZ     SASEONLY,,AUTO

      868     8329    2       DO CASE( XSP$GENERIC.FNC);

   8329  2 000174   100000 236100                    LDQ     0,,PR1
         2 000175   000033 772000                    QRL     27
         2 000176   000032 136007                    SBLQ    26,DL
         2 000177   000044 116007                    CMPQ    36,DL
         2 000200   000202 602006 2                  TNC     s:8329+6,QL
         2 000201   000276 710000 2                  TRA     s:8349
PL6.E3A0      #006=XSC$PRECV File=XSC$ACSE.:XSA1TSI                              WED 10/01/97 11:52 Page:171
         2 000202   000246 710000 2                  TRA     s:8333
         2 000203   000276 710000 2                  TRA     s:8349
         2 000204   000262 710000 2                  TRA     s:8342
         2 000205   000276 710000 2                  TRA     s:8349
         2 000206   000276 710000 2                  TRA     s:8349
         2 000207   000276 710000 2                  TRA     s:8349
         2 000210   000276 710000 2                  TRA     s:8349
         2 000211   000276 710000 2                  TRA     s:8349
         2 000212   000276 710000 2                  TRA     s:8349
         2 000213   000276 710000 2                  TRA     s:8349
         2 000214   000262 710000 2                  TRA     s:8342
         2 000215   000276 710000 2                  TRA     s:8349
         2 000216   000246 710000 2                  TRA     s:8333
         2 000217   000276 710000 2                  TRA     s:8349
         2 000220   000276 710000 2                  TRA     s:8349
         2 000221   000276 710000 2                  TRA     s:8349
         2 000222   000276 710000 2                  TRA     s:8349
         2 000223   000276 710000 2                  TRA     s:8349
         2 000224   000276 710000 2                  TRA     s:8349
         2 000225   000276 710000 2                  TRA     s:8349
         2 000226   000276 710000 2                  TRA     s:8349
         2 000227   000276 710000 2                  TRA     s:8349
         2 000230   000276 710000 2                  TRA     s:8349
         2 000231   000276 710000 2                  TRA     s:8349
         2 000232   000276 710000 2                  TRA     s:8349
         2 000233   000276 710000 2                  TRA     s:8349
         2 000234   000276 710000 2                  TRA     s:8349
         2 000235   000276 710000 2                  TRA     s:8349
         2 000236   000276 710000 2                  TRA     s:8349
         2 000237   000276 710000 2                  TRA     s:8349
         2 000240   000276 710000 2                  TRA     s:8349
         2 000241   000276 710000 2                  TRA     s:8349
         2 000242   000262 710000 2                  TRA     s:8342
         2 000243   000276 710000 2                  TRA     s:8349
         2 000244   000276 710000 2                  TRA     s:8349
         2 000245   000262 710000 2                  TRA     s:8342

PL6.E3A0      #006=XSC$PRECV File=XSC$ACSE.:XSA1TSI                              WED 10/01/97 11:52 Page:172
      869     8330    2           CASE( %XSP_FNC_PCONIND#,

      870     8331    2                 %XSP_FNC_PRELCNF#);
      871     8332                    /* These functions are for ACSE only */
      872     8333    2               CALL XSC$DECODE( VBLK, PFPT$)

   8333  2 000246   200035 633500                    EPPR3   PFPT$,,AUTO
         2 000247   200043 453500                    STP3    TCCB$+3,,AUTO
         2 000250   200022 634500                    EPPR4   VBLK,,AUTO
         2 000251   200042 454500                    STP4    TCCB$+2,,AUTO
         2 000252   200042 630500                    EPPR0   TCCB$+2,,AUTO
         2 000253   000000 631400 3                  EPPR1   0
         2 000254   000000 701000 xent               TSX1    XSC$DECODE
         2 000255   000257 702000 2                  TSX2    s:8335
         2 000256   000261 710000 2                  TRA     s:8336

      873     8334    3               WHENALTRETURN DO;

      874     8335    3                   VBLK.APDUERR = 1;

   8335  2 000257   001000 236007                    LDQ     512,DL
         2 000260   200030 552110                    STBQ    VBLK+6,'10'O,AUTO

      875     8336    3                   END;

   8336  2 000261   000332 710000 2                  TRA     s:8364

      876     8337    2           CASE( %XSP_FNC_PCONCNF#,

      877     8338    2                 %XSP_FNC_PRELIND#,
      878     8339    2                 %XSP_FNC_PUABIND#,
      879     8340    2                 %XSP_FNC_PPABIND#);
      880     8341                    /* These functions are for both ACSE and any SASE routines */
      881     8342    2               CALL XSC$DECODE( VBLK, PFPT$)

   8342  2 000262   200035 633500                    EPPR3   PFPT$,,AUTO
         2 000263   200043 453500                    STP3    TCCB$+3,,AUTO
PL6.E3A0      #006=XSC$PRECV File=XSC$ACSE.:XSA1TSI                              WED 10/01/97 11:52 Page:173
         2 000264   200022 634500                    EPPR4   VBLK,,AUTO
         2 000265   200042 454500                    STP4    TCCB$+2,,AUTO
         2 000266   200042 630500                    EPPR0   TCCB$+2,,AUTO
         2 000267   000000 631400 3                  EPPR1   0
         2 000270   000000 701000 xent               TSX1    XSC$DECODE
         2 000271   000273 702000 2                  TSX2    s:8344
         2 000272   000275 710000 2                  TRA     s:8346

      882     8343    3               WHENALTRETURN DO;

      883     8344    3                   VBLK.APDUERR = 1;

   8344  2 000273   001000 236007                    LDQ     512,DL
         2 000274   200030 552110                    STBQ    VBLK+6,'10'O,AUTO

      884     8345    3                   END;

      885     8346    2               GOTO SASETOO;

   8346  2 000275   000300 710000 2                  TRA     SASETOO

      886     8347    2           CASE( ELSE);

      887     8348                    /* Any other functions are only for SASE routines */
      888     8349    2               SASEONLY = %TRUE;

   8349  2 000276   400000 236003                    LDQ     -131072,DU
         2 000277   200037 756100                    STQ     SASEONLY,,AUTO

      889     8350    2   SASETOO:
      890     8351    2               TCCB$ = CCB$( XSP$GENERIC.PCID);

   8351  2 000300   200035 470500       SASETOO      LDP0    PFPT$,,AUTO
         2 000301   000000 220100                    LDX0    0,,PR0
         2 000302   000777 360003                    ANX0    511,DU
         2 000303   000000 471400 xsym               LDP1    XSS_CCB$$
         2 000304   100000 236110                    LDQ     0,X0,PR1
PL6.E3A0      #006=XSC$PRECV File=XSC$ACSE.:XSA1TSI                              WED 10/01/97 11:52 Page:174
         2 000305   200040 756100                    STQ     TCCB$,,AUTO

      891     8352    3               DO I = 0 TO 2;

   8352  2 000306   200034 450100                    STZ     I,,AUTO

      892     8353    3                   SASE$ = TCCB.SASE$( I);

   8353  2 000307   200040 470500                    LDP0    TCCB$,,AUTO
         2 000310   200034 720100                    LXL0    I,,AUTO
         2 000311   000013 236110                    LDQ     11,X0,PR0
         2 000312   200036 756100                    STQ     SASE$,,AUTO

      893     8354    3                   IF SASE$ ~= ENTADDR( NIL) THEN

   8354  2 000313   000004 116000 3                  CMPQ    4
         2 000314   000323 600000 2                  TZE     s:8359

      894     8355    3                       CALL SASE$( XSP$GENERIC)

   8355  2 000315   200035 630500                    EPPR0   PFPT$,,AUTO
         2 000316   200036 221100                    LDX1    SASE$,,AUTO
         2 000317   000001 631400 3                  EPPR1   1
         2 000320   000000 701011                    TSX1    0,X1
         2 000321   000323 702000 2                  TSX2    s:8359
         2 000322   000323 710000 2                  TRA     s:8359

      895     8356    4                       WHENALTRETURN DO;

      896     8357                                /* ignore ALTRETURN from SASE routine */
      897     8358    4                           END;

      898     8359    3                   END;

   8359  2 000323   200034 054100                    AOS     I,,AUTO
         2 000324   200034 235100                    LDA     I,,AUTO
         2 000325   000002 115007                    CMPA    2,DL
PL6.E3A0      #006=XSC$PRECV File=XSC$ACSE.:XSA1TSI                              WED 10/01/97 11:52 Page:175
         2 000326   000307 604400 2                  TMOZ    s:8353

      899     8360    2               IF SASEONLY THEN

   8360  2 000327   200037 234100                    SZN     SASEONLY,,AUTO
         2 000330   000332 605000 2                  TPL     s:8364

      900     8361                        /* this message supposedly transparent to ACSE... */
      901     8362    2                   RETURN;

   8362  2 000331   000000 702200 xent               TSX2  ! X66_ARET

      902     8363    2           END;

      903     8364    1       XSC$GENERIC.CCID = XSP$GENERIC.PCID;

   8364  2 000332   200035 470500                    LDP0    PFPT$,,AUTO
         2 000333   200023 471500                    LDP1    VBLK+1,,AUTO
         2 000334   000000 236100                    LDQ     0,,PR0
         2 000335   100000 552120                    STBQ    0,'20'O,PR1

      904     8365            /* VBLK.EVENT was filled in by XSC$DECODE above */
      905     8366    1       CALL XSC$AMACHINE( VBLK)

   8366  2 000336   200022 630500                    EPPR0   VBLK,,AUTO
         2 000337   200042 450500                    STP0    TCCB$+2,,AUTO
         2 000340   200042 630500                    EPPR0   TCCB$+2,,AUTO
         2 000341   000001 631400 3                  EPPR1   1
         2 000342   000000 701000 xent               TSX1    XSC$AMACHINE
         2 000343   000345 702000 2                  TSX2    s:8368
         2 000344   000346 710000 2                  TRA     s:8370

      906     8367    2       WHENALTRETURN DO;

      907     8368    2           ALTRETURN;  /* connection died or protocol error */

   8368  2 000345   000000 702200 xent               TSX2  ! X66_AALT
PL6.E3A0      #006=XSC$PRECV File=XSC$ACSE.:XSA1TSI                              WED 10/01/97 11:52 Page:176

      908     8369    2           END;
      909     8370    1       RETURN;

   8370  2 000346   000000 702200 xent               TSX2  ! X66_ARET

XSC_VBLK
 Sect OctLoc
   0     000   000000 006014   000000 006014   000000 006014   000000 000000    ................
   0     004   000000 006014   000000 000000   000000 000000                    ............

XSC_F$NOPCID
 Sect OctLoc
   1     000   302303 001407                                                    ....

(unnamed)
 Sect OctLoc
   3     000   000002 000000   000001 000000   000000 006000   000000 006014    ................
   3     004   000000 000000                                                    ....
      910     8371
      911     8372    1       END XSC$PRECV;
      912     8373        %EOD;

PL6.E3A0      #006=XSC$PRECV File=XSC$ACSE.:XSA1TSI                              WED 10/01/97 11:52 Page:177
--  Include file information  --

   XSC_PERR_C.:XSA1TOU  is referenced.
   UM_CP6.:E05OU  is referenced.
   XSP_ASN1_M.:XSA1TOU  is referenced.
   XSC_COMMON_M.:XSA1TOU  is referenced.
   K_ADDRESS_M.:LIB_E05  is referenced.
   XSP_PRESENTATION_M.:XSA1TOU  is referenced.
   XSP_PRESENTATION_E.:XSA1TOU  is referenced.
   XSS_SESSION_E.:XSA1TOU  is referenced.
   XSC_INTERNAL_M.:XSA1TOU  is referenced.
   XSC_INTERNAL_E.:XSA1TOU  is referenced.
   XSC_ACSE_M.:XSA1TOU  is referenced.
   XSC_ACSE_E.:XSA1TOU  is referenced.
      No diagnostics issued in procedure XSC$PRECV.
PL6.E3A0      #006=XSC$PRECV File=XSC$ACSE.:XSA1TSI                              WED 10/01/97 11:52 Page:178

 **** Variables and constants ****

  ****  Section 000  Data  XSC$PRECV

  ****  Scalars and arrays  ****
OctLoc.c.b A Datatyp(siz) R M Lvl/name                 OctLoc.c.b A Datatyp(siz) R M Lvl/name

     0-0-0/w STRC(252)   r     1 XSC_VBLK

  ****  Section 001 RoData XSC$PRECV

  ****  Scalars and arrays  ****
OctLoc.c.b A Datatyp(siz) R M Lvl/name                 OctLoc.c.b A Datatyp(siz) R M Lvl/name

     0-0-0/w STRC        r     1 XSC_F$NOPCID

  ****  Auto variables  ****

  ****  Scalars and arrays  ****
OctLoc.c.b A Datatyp(siz) R M Lvl/name                 OctLoc.c.b A Datatyp(siz) R M Lvl/name

     3-0-0/w PTR         r     1 @PFPT                     31-0-0/w PTR         r     1 AFPT$
    32-0-0/w SBIN        r     1 CCID                       4-0-0/w STRC(504)   r     1 CFPT
    33-0-0/w PTR         r     1 CTX$                      34-0-0/w SBIN        r     1 I
    *0-0-0/w STRC(504)   r     1 PFPT                      35-0-0/w PTR         r     1 PFPT$
    36-0-0/w EPTR        r     1 SASE$                     37-0-0/b BIT         r     1 SASEONLY
    40-0-0/w PTR         r     1 TCCB$                     22-0-0/w STRC(252)   r     1 VBLK

  ****  SYMREF variables  ****

  ****  Scalars and arrays  ****
OctLoc.c.b A Datatyp(siz) R M Lvl/name                 OctLoc.c.b A Datatyp(siz) R M Lvl/name

     0-0-0/w PTR         r     1 XSS_CCB$$

  ****  BASED and DCB variables  ****

PL6.E3A0      #006=XSC$PRECV File=XSC$ACSE.:XSA1TSI                              WED 10/01/97 11:52 Page:179
  ****  Scalars and arrays  ****
OctLoc.c.b A Datatyp(siz) R M Lvl/name                 OctLoc.c.b A Datatyp(siz) R M Lvl/name

     0-0-0/w STRC(504)   r     1 AFPT                       0-0-0/w PTR         r     1 CCB$(0:0)
     0-0-0/w STRC(216)   r     1 CCTX                       0-0-0/w STRC(504)   r     1 TCCB
     0-0-0/w STRC(504)   r     1 XSC$CCB                    0-0-0/w STRC(504)   r     1 XSC$GENERIC
     0-0-0/w STRC(504)   r     1 XSP$GENERIC


   Procedure XSC$PRECV requires 231 words for executable code.
   Procedure XSC$PRECV requires 36 words of local(AUTO) storage.
PL6.E3A0      #006=XSC$PRECV File=XSC$ACSE.:XSA1TSI                              WED 10/01/97 11:52 Page:180
          *** CROSS REFERENCE LISTING ***
**     DENOTES     IDENTIFIER DEFINITION
<<                 IDENTIFIER'S VALUE SET
>>                 IDENTIFIER'S VALUE USED
<>                 IDENTIFIER SET AND/OR USED
--                 IDENTIFIER REFERENCED
PL6.E3A0      #006=XSC$PRECV File=XSC$ACSE.:XSA1TSI                              WED 10/01/97 11:52 Page:181
          MINI XREF LISTING

AFPT.BUF$
      7266**DCL      8322>>ASSIGN
AFPT.C0
      7268**DCL      7268--REDEF
AFPT.DAT$
      7270**DCL      7270--REDEF
AFPT.N0
      7269**DCL      7269--REDEF
AFPT.NXTX
      7269**DCL      8323>>ASSIGN
AFPT.R0
      7267**DCL      7268--REDEF
AFPT$
      8266**DCL      7262--IMP-PTR  8321<<ASSIGN   8322>>ASSIGN   8323>>ASSIGN
CCB$
      8267**DCL      8286>>ASSIGN   8351>>ASSIGN
CCID
      8268**DCL      8278<<ASSIGN   8279<>CALL     8282<>CALL     8286>>ASSIGN
CCTX.ENTRY$
       993**DCL      8286<<ASSIGN
CCTX.HISTZ
       994**DCL       995--REDEF
CFPT
       419**DCL      8294--ASSIGN
CFPT.ERRDEF
       428**DCL       448--REDEF
CTX$
      8269**DCL       970--IMP-PTR  8279<>CALL     8282<>CALL     8286>>ASSIGN   8293>>ASSIGN
I
      8270**DCL      8352<<DOINDEX  8353>>ASSIGN
PFPT
      5077**DCL        14--PROC     8276--ASSIGN
PL6.E3A0      #006=XSC$PRECV File=XSC$ACSE.:XSA1TSI                              WED 10/01/97 11:52 Page:182
PFPT.ERRDEF
      5123**DCL      5143--REDEF
PFPT$
      8271**DCL      3379--IMP-PTR  3475--IMP-PTR  3533--IMP-PTR  3598--IMP-PTR  3656--IMP-PTR  3747--IMP-PTR
      3822--IMP-PTR  3883--IMP-PTR  3941--IMP-PTR  4086--IMP-PTR  4180--IMP-PTR  4238--IMP-PTR  4296--IMP-PTR
      4354--IMP-PTR  4412--IMP-PTR  4471--IMP-PTR  4576--IMP-PTR  4642--IMP-PTR  4708--IMP-PTR  4804--IMP-PTR
      4901--IMP-PTR  4959--IMP-PTR  5017--IMP-PTR  8276<<ASSIGN   8277>>IF       8278>>ASSIGN   8295>>DOCASE
      8320>>IF       8321>>ASSIGN   8329>>DOCASE   8333<>CALL     8342<>CALL     8351>>ASSIGN   8355>>CALL
      8364>>ASSIGN
SASE$
      8272**DCL      8353<<ASSIGN   8354>>IF       8355>>CALL
SASEONLY
      8273**DCL      8328<<ASSIGN   8349<<ASSIGN   8360>>IF
SASETOO
      8351**LABEL    8346--GOTO
TCCB.ERRDEF
      6733**DCL      6753--REDEF
TCCB.SASE$
      6903**DCL      8353>>ASSIGN
TCCB$
      8274**DCL      6626--IMP-PTR  8351<<ASSIGN   8353>>ASSIGN
VBLK
      1016**DCL      8292<<ASSIGN   8333<>CALL     8342<>CALL     8366<>CALL
VBLK.APDUERR
      1102**DCL      8335<<ASSIGN   8344<<ASSIGN
VBLK.CTX$
      1030**DCL      8293<<ASSIGN
VBLK.DATA.PTR$
      1097**DCL      8322<<ASSIGN
VBLK.DATA.SIZE
      1098**DCL      8323<<ASSIGN
VBLK.FPT$
      1031**DCL       478--IMP-PTR  8294<<ASSIGN   8364>>ASSIGN
XSC$AMACHINE
      8258**DCL-ENT  8366--CALL
XSC$CCB.ACSE$
PL6.E3A0      #006=XSC$PRECV File=XSC$ACSE.:XSA1TSI                              WED 10/01/97 11:52 Page:183
      6591**DCL      8286>>ASSIGN
XSC$CCB.ERRDEF
      6436**DCL      6456--REDEF
XSC$CTXPTR
      8259**DCL-ENT  8279--CALL
XSC$DECODE
      8260**DCL-ENT  8333--CALL     8342--CALL
XSC$GENERIC.CCID
       485**DCL      8364<<ASSIGN
XSC$GENERIC.ERRDEF
       487**DCL       507--REDEF
XSC$GETCTX
      8261**DCL-ENT  8282--CALL
XSC_F$NOPCID
      8220**DCL      8291<>CALL
XSC_VBLK
      1122**DCL      8292>>ASSIGN
XSP$ACTIVITY_DISCARD.ERRDEF
      3485**DCL      3505--REDEF
XSP$ACTIVITY_END.ERRDEF
      3547**DCL      3567--REDEF
XSP$ACTIVITY_INTERRUPT.ERRDEF
      3608**DCL      3628--REDEF
XSP$ACTIVITY_RESUME.ERRDEF
      3672**DCL      3692--REDEF
XSP$ACTIVITY_START.ERRDEF
      3762**DCL      3782--REDEF
XSP$ALTER_CONTEXT.ERRDEF
      3831**DCL      3851--REDEF
XSP$CAPABILITY_DATA.ERRDEF
      3892**DCL      3912--REDEF
XSP$CONNECT.CALLED$
      4036**DCL      4037--REDEF
XSP$CONNECT.DFLT$
      4026**DCL      4027--REDEF
XSP$CONNECT.ERRDEF
PL6.E3A0      #006=XSC$PRECV File=XSC$ACSE.:XSA1TSI                              WED 10/01/97 11:52 Page:184
      3995**DCL      4015--REDEF
XSP$CONTROL_GIVE.ERRDEF
      4132**DCL      4152--REDEF
XSP$DATA.ERRDEF
      4189**DCL      4209--REDEF
XSP$EXPEDITED_DATA.ERRDEF
      4247**DCL      4267--REDEF
XSP$GENERIC
      3379**DCL      8355<>CALL
XSP$GENERIC.DATA$
      3455**DCL      8320>>IF       8321>>ASSIGN
XSP$GENERIC.ERRDEF
      3425**DCL      3445--REDEF
XSP$GENERIC.FNC
      3385**DCL      8295>>DOCASE   8329>>DOCASE
XSP$GENERIC.PCID
      3386**DCL      8277>>IF       8278>>ASSIGN   8351>>ASSIGN   8364>>ASSIGN
XSP$P_ABORT.ERRDEF
      4306**DCL      4326--REDEF
XSP$P_EXCEPTION_REPORT.ERRDEF
      4364**DCL      4384--REDEF
XSP$RELEASE.ERRDEF
      4422**DCL      4442--REDEF
XSP$RESYNCHRONIZE.ERRDEF
      4524**DCL      4544--REDEF
XSP$SYNC_MAJOR.ERRDEF
      4591**DCL      4611--REDEF
XSP$SYNC_MINOR.ERRDEF
      4657**DCL      4677--REDEF
XSP$TOKEN_GIVE.ERRDEF
      4756**DCL      4776--REDEF
XSP$TOKEN_PLEASE.ERRDEF
      4852**DCL      4872--REDEF
XSP$TYPED_DATA.ERRDEF
      4910**DCL      4930--REDEF
XSP$U_ABORT.ERRDEF
PL6.E3A0      #006=XSC$PRECV File=XSC$ACSE.:XSA1TSI                              WED 10/01/97 11:52 Page:185
      4968**DCL      4988--REDEF
XSP$U_EXCEPTION_REPORT.ERRDEF
      5027**DCL      5047--REDEF
XSS$SCREECH
      8262**DCL-ENT  8291--CALL
XSS_CCB$$
      8264**DCL      8267--IMP-PTR  8286>>ASSIGN   8351>>ASSIGN
PL6.E3A0      #006=XSC$PRECV File=XSC$ACSE.:XSA1TSI                              WED 10/01/97 11:52 Page:186
              *** CROSS REFERENCE LISTING ***
    **     DENOTES     IDENTIFIER DEFINITION
    <<                 IDENTIFIER'S VALUE SET
    >>                 IDENTIFIER'S VALUE USED
    <>                 IDENTIFIER SET AND/OR USED
    --                 IDENTIFIER REFERENCED
PL6.E3A0      #006=XSC$PRECV File=XSC$ACSE.:XSA1TSI                              WED 10/01/97 11:52 Page:187
              MINI UREF LISTING

XSC$PRECV      14**PROC

