PL6.E3A0      #009=XSC$ENCODE File=XSC$ACSE.:XSA1TSI                             WED 10/01/97 11:53 Page:338
     1718        1        /*T***********************************************************/
     1719        2        /*T*                                                         */
     1720        3        /*T* Copyright (c) Bull HN Information Systems Inc., 1997    */
     1721        4        /*T*                                                         */
     1722        5        /*T***********************************************************/
     1723        6        /*F*    NAME:   XSC$ENCODE
     1724        7
     1725        8                XSC$ENCODE is called from XSC$AMACHINE when an APDU needs to be built
     1726        9                in order to send it to the other endpoint of an ACSE connection.
     1727       10        */
     1728       11        XSC$ENCODE: PROC( VBLK) ALTRET;
     1729       12        %INCLUDE XSS_SESSION_E;
     1730      577        %INCLUDE XSP_PRESENTATION_E;
     1731      676        %INCLUDE XSP_PRESENTATION_M;
     1732     2162            %XSP$CTXTNAME( NAME=CTXT, STCLASS=BASED);
     1733     2204        %INCLUDE XSC_ACSE_E;
     1734     2282        %INCLUDE XSC_ACSE_M;
     1735     2591            %XSC$PRIMITIVES( STCLASS="BASED( VBLK.FPT$)");
     1736     2904        %INCLUDE XSC_INTERNAL_E;
     1737     2992        %INCLUDE XSC_INTERNAL_M;
     1738     3337            %XSC$VBLK( NAME=VBLK, STCLASS="");
     1739     3443            %XSC$CCTX( NAME=CCTX, STCLASS="BASED( VBLK.CTX$)");
     1740     3489            %ENCDECMACS;
     1741     3669        %INCLUDE XSP_ASN1_M;
     1742     4015            %XSP_ASN1_FPT( FPTN=AFPT, STCLASS="BASED( AFPT$)");
     1743     4035        %INCLUDE UM_CP6;
     1744     4887        %MACRO FATALDEF( NAME=XSC_FATAL, STCLASS="CONSTANT SYMDEF", LVL=1, LAST=";",
     1745     4888                         ERR#=0, SEV=7);
     1746     4889            %VLP_ERRCODE( FPTN=NAME, STCLASS=STCLASS, FCG='XS', MID='C',
     1747     4890                          MON='0'B, ERR#=ERR#, SEV=SEV);
     1748     4891        %MEND;
     1749     4892        %INCLUDE XSC_PERR_C;
     1750     4969            %FATALDEF( NAME=XSC_F$ENCODE, ERR#=%F$ENCODE);
     1751     5017            /*E*  ERROR:  XSC-F$ENCODE-7
     1752     5018                MESSAGE:  VBLK.EVENT illegal for PDU encoder.
     1753     5019            */
     1754     5020        %EQU ITEMMAX = 20;
PL6.E3A0      #009=XSC$ENCODE File=XSC$ACSE.:XSA1TSI                             WED 10/01/97 11:53 Page:339
     1755     5021
     1756     5022    1       DCL XSC$PSEND ENTRY(1) ALTRET;
     1757     5023    1       DCL XSS$GETMEM ENTRY(3) ALTRET;
     1758     5024    1       DCL XSS$RELMEM ENTRY(1) ALTRET;
     1759     5025    1       DCL XSS$SCREECH ENTRY(1);
     1760     5026
     1761     5027    1       DCL XSC_ITEMCNT SBIN STATIC SYMDEF INIT( 0);
     1762     5028    1       DCL XSC_ITEMMAX SBIN STATIC SYMDEF INIT( %ITEMMAX);
     1763     5029
     1764     5030            %ITEM( NAME="ITEMLIST(0:%ITEMMAX)", STCLASS=AUTO);
     1765     5055    1       DCL AFPT$ PTR;
     1766     5056    1       DCL CTXT$ PTR;
     1767     5057    1       DCL I SBIN;
     1768     5058    1       DCL INFOLVL SBIN;
     1769     5059    1       DCL PDUBUF$ PTR;
     1770     5060    1       DCL PDUIDX SBIN;
     1771     5061    1       DCL PDUX UBIN HALF HALIGNED;
     1772     5062    1       DCL TEMP SBIN;
     1773     5063    1       DCL TEXT CHAR(16384) BASED CALIGNED;
     1774     5064    1       DCL 1 TXTC BASED( TXTC$) CALIGNED,
     1775     5065    1            2 LEN UBIN(9) CALIGNED,
     1776     5066    1            2 TXT CHAR( TXTC.LEN) CALIGNED;
     1777     5067    1       DCL TXTC$ PTR;
     1778     5068
     1779     5069    1       INFOLVL = 0;
     1780     5070    1       XSC_ITEMCNT = 0;
     1781     5071    1       ITEMLIST = '0'B;
     1782     5072            %LOAD( LVL=0, TYP=NONE, CON=Y);
     1783     5163    2       DO CASE( VBLK.EVENT);
     1784     5164        %EJECT;
PL6.E3A0      #009=XSC$ENCODE File=XSC$ACSE.:XSA1TSI                             WED 10/01/97 11:53 Page:340
     1785     5165        /*****************************************************************************
     1786     5166        *
     1787     5167        *       AARQ
     1788     5168        *
     1789     5169        *****************************************************************************/
     1790     5170    2           CASE( %XSC_CEV_AARQ);
     1791     5171                    %LOAD( LVL=1, TAG=A0, IMP=Y, TYP=SEQ);  /* AARQApdu */
     1792     5262                    %LOAD( LVL=2, TAG=C0, IMP=Y, TYP=BITSTR,
     1793     5263                            LEN=1, VAL='1'B);  /* ProtocolVersion */
     1794     5354    2               CTXT$ = XSC$ASSOCIATE.ACN$;
     1795     5355    3               IF CTXT$ ~= ADDR( NIL) THEN DO;
     1796     5356                        %LOAD( LVL=2, TAG=C1, TYP=OBJID,
     1797     5357                                VAL=CTXT$);  /* ApplicationContextName */
     1798     5448    3                   END;
     1799     5449    2               TXTC$ = XSC$ASSOCIATE.RAPT$;
     1800     5450    3               IF TXTC$ ~= ADDR( NIL) THEN DO;
     1801     5451                        %LOAD( LVL=2, TAG=C2, TYP=OCTETSTR,
     1802     5452                                LEN="TXTC.LEN", VAL="TXTC.TXT");  /* CalledAPTitle */
     1803     5543    3                   END;
     1804     5544    2               TXTC$ = XSC$ASSOCIATE.RAEQ$;
     1805     5545    3               IF TXTC$ ~= ADDR( NIL) THEN DO;
     1806     5546                        %LOAD( LVL=2, TAG=C3, TYP=OCTETSTR,
     1807     5547                                LEN="TXTC.LEN", VAL="TXTC.TXT");/*CalledAEQualifier*/
     1808     5638    3                   END;
     1809     5639    3               IF XSC$ASSOCIATE.RAPID ~= 0 THEN DO;
     1810     5640                        %LOAD( LVL=2, TAG=C4, TYP=INTG,
     1811     5641                                LEN=4, VAL="XSC$ASSOCIATE.RAPID");
              5641                                    /* CalledAPInvocationId */
     1812     5732    3                   END;
     1813     5733    3               IF XSC$ASSOCIATE.RAEID ~= 0 THEN DO;
     1814     5734                        %LOAD( LVL=2, TAG=C5, TYP=INTG,
     1815     5735                                LEN=4, VAL="XSC$ASSOCIATE.RAEID");
              5735                                    /* CalledAEInvocationId */
     1816     5826    3                   END;
     1817     5827    2               TXTC$ = XSC$ASSOCIATE.IAPT$;
     1818     5828    3               IF TXTC$ ~= ADDR( NIL) THEN DO;
     1819     5829                        %LOAD( LVL=2, TAG=C6, TYP=OCTETSTR,
PL6.E3A0      #009=XSC$ENCODE File=XSC$ACSE.:XSA1TSI                             WED 10/01/97 11:53 Page:341
     1820     5830                                LEN="TXTC.LEN", VAL="TXTC.TXT");  /* CallingAPTitle */
     1821     5921    3                   END;
     1822     5922    2               TXTC$ = XSC$ASSOCIATE.IAEQ$;
     1823     5923    3               IF TXTC$ ~= ADDR( NIL) THEN DO;
     1824     5924                        %LOAD( LVL=2, TAG=C7, TYP=OCTETSTR,
     1825     5925                                LEN="TXTC.LEN", VAL="TXTC.TXT");/*CallingAEQualifier*/
     1826     6016    3                   END;
     1827     6017    3               IF XSC$ASSOCIATE.IAPID ~= 0 THEN DO;
     1828     6018                        %LOAD( LVL=2, TAG=C8, TYP=INTG,
     1829     6019                                LEN=4, VAL="XSC$ASSOCIATE.IAPID");
              6019                                    /* CallingAPInvocationId */
     1830     6110    3                   END;
     1831     6111    3               IF XSC$ASSOCIATE.IAEID ~= 0 THEN DO;
     1832     6112                        %LOAD( LVL=2, TAG=C9, TYP=INTG,
     1833     6113                                LEN=4, VAL="XSC$ASSOCIATE.IAEID");
              6113                                    /* CallingAEInvocationId */
     1834     6204    3                   END;
     1835     6205    2               TXTC$ = XSC$ASSOCIATE.IMPL$;
     1836     6206    3               IF TXTC$ ~= ADDR( NIL) THEN DO;
     1837     6207                        %LOAD( LVL=2, TAG=C29, IMP=Y, TYP=GRFSTR,
     1838     6208                                LEN="TXTC.LEN", VAL="TXTC.TXT");/*ImplementationData*/
     1839     6299    3                   END;
     1840     6300    2               INFOLVL = 2;
     1841     6301        %EJECT;
PL6.E3A0      #009=XSC$ENCODE File=XSC$ACSE.:XSA1TSI                             WED 10/01/97 11:53 Page:342
     1842     6302        /*****************************************************************************
     1843     6303        *
     1844     6304        *       AARE+ and AARE-
     1845     6305        *
     1846     6306        *****************************************************************************/
     1847     6307    2           CASE( %XSC_CEV_AAREP,
     1848     6308    2                 %XSC_CEV_AAREN);
     1849     6309                    %LOAD( LVL=1, TAG=A1, IMP=Y, TYP=SEQ);  /* AAREApdu */
     1850     6400                    %LOAD( LVL=2, TAG=C0, IMP=Y, TYP=BITSTR,
     1851     6401                            LEN=1, VAL='1'B);  /* ProtocolVersion */
     1852     6492    2               CTXT$ = XSC$ASSOCIATE.ACN$;
     1853     6493    3               IF CTXT$ ~= ADDR( NIL) THEN DO;
     1854     6494                        %LOAD( LVL=2, TAG=C1, TYP=OBJID,
     1855     6495                                VAL=CTXT$);  /* ApplicationContextName */
     1856     6586    3                   END;
     1857     6587                    %LOAD( LVL=2, TAG=C2, TYP=INTG,
     1858     6588                            LEN=1, VAL="XSC$ASSOCIATE.RESULT");  /* Result */
     1859     6679                    %LOAD( LVL=2, TAG=C3, TYP=CHOICE);/* ResultSourceDiagnostic */
     1860     6770                    %LOAD( LVL=3, TAG=C1, TYP=INTG,
     1861     6771                            LEN=1, VAL="XSC$ASSOCIATE.RSDIAG");
     1862     6862    2               TXTC$ = XSC$ASSOCIATE.RAPT$;
     1863     6863    3               IF TXTC$ ~= ADDR( NIL) THEN DO;
     1864     6864                        %LOAD( LVL=2, TAG=C4, TYP=OCTETSTR,
     1865     6865                                LEN="TXTC.LEN", VAL="TXTC.TXT");/*RespondingAPTitle*/
     1866     6956    3                   END;
     1867     6957    2               TXTC$ = XSC$ASSOCIATE.RAEQ$;
     1868     6958    3               IF TXTC$ ~= ADDR( NIL) THEN DO;
     1869     6959                        %LOAD( LVL=2, TAG=C5, TYP=OCTETSTR,
     1870     6960                                LEN="TXTC.LEN", VAL="TXTC.TXT");/*RespondingAEQualifier*/
     1871     7051    3                   END;
     1872     7052    3               IF XSC$ASSOCIATE.RAPID ~= 0 THEN DO;
     1873     7053                        %LOAD( LVL=2, TAG=C6, TYP=INTG,
     1874     7054                                LEN=4, VAL="XSC$ASSOCIATE.RAPID");
              7054                                    /* RespondingAPInvocationId */
     1875     7145    3                   END;
     1876     7146    3               IF XSC$ASSOCIATE.RAEID ~= 0 THEN DO;
     1877     7147                        %LOAD( LVL=2, TAG=C9, TYP=INTG,
PL6.E3A0      #009=XSC$ENCODE File=XSC$ACSE.:XSA1TSI                             WED 10/01/97 11:53 Page:343
     1878     7148                                LEN=4, VAL="XSC$ASSOCIATE.RAEID");
              7148                                    /* RespondingAEInvocationId */
     1879     7239    3                   END;
     1880     7240    2               TXTC$ = XSC$ASSOCIATE.IMPL$;
     1881     7241    3               IF TXTC$ ~= ADDR( NIL) THEN DO;
     1882     7242                        %LOAD( LVL=2, TAG=C29, IMP=Y, TYP=GRFSTR,
     1883     7243                                LEN="TXTC.LEN", VAL="TXTC.TXT");/*ImplementationData*/
     1884     7334    3                   END;
     1885     7335    2               INFOLVL = 2;
     1886     7336        %EJECT;
PL6.E3A0      #009=XSC$ENCODE File=XSC$ACSE.:XSA1TSI                             WED 10/01/97 11:53 Page:344
     1887     7337        /*****************************************************************************
     1888     7338        *
     1889     7339        *       RLRQ
     1890     7340        *
     1891     7341        *****************************************************************************/
     1892     7342    2           CASE( %XSC_CEV_RLRQ);
     1893     7343                    %LOAD( LVL=1, TAG=A2, IMP=Y, TYP=SEQ);  /* RLRQApdu */
     1894     7434                    %LOAD( LVL=2, TAG=C0, IMP=Y, TYP=INTG,
     1895     7435                            LEN=1, VAL="XSC$RELEASE.REASON");  /* Reason */
     1896     7526    2               INFOLVL = 2;
     1897     7527        %EJECT;
PL6.E3A0      #009=XSC$ENCODE File=XSC$ACSE.:XSA1TSI                             WED 10/01/97 11:53 Page:345
     1898     7528        /*****************************************************************************
     1899     7529        *
     1900     7530        *       RLRE+ and RLRE-
     1901     7531        *
     1902     7532        *****************************************************************************/
     1903     7533    2           CASE( %XSC_CEV_RLREP,
     1904     7534    2                 %XSC_CEV_RLREN);
     1905     7535                    %LOAD( LVL=1, TAG=A3, IMP=Y, TYP=SEQ);  /* RLREApdu */
     1906     7626                    %LOAD( LVL=2, TAG=C0, IMP=Y, TYP=INTG,
     1907     7627                            LEN=1, VAL="XSC$RELEASE.REASON");  /* Reason */
     1908     7718    2               INFOLVL = 2;
     1909     7719        %EJECT;
PL6.E3A0      #009=XSC$ENCODE File=XSC$ACSE.:XSA1TSI                             WED 10/01/97 11:53 Page:346
     1910     7720        /*****************************************************************************
     1911     7721        *
     1912     7722        *       ABRT
     1913     7723        *
     1914     7724        *****************************************************************************/
     1915     7725    2           CASE( %XSC_CEV_ABRT);
     1916     7726                    %LOAD( LVL=1, TAG=A4, IMP=Y, TYP=SEQ);  /* ABRTApdu */
     1917     7817                    %LOAD( LVL=2, TAG=C0, IMP=Y, TYP=INTG,
     1918     7818                            LEN=1, VAL="XSC$U_ABORT.ABRTSRC");  /* AbortSource */
     1919     7909    2               INFOLVL = 2;
     1920     7910        /*****************************************************************************
     1921     7911        *
     1922     7912        *       Illegal VBLK.EVENT
     1923     7913        *
     1924     7914        *****************************************************************************/
     1925     7915    2           CASE( ELSE);
     1926     7916    2               CALL XSS$SCREECH( XSC_F$ENCODE);
     1927     7917    2           END;
     1928     7918        %EJECT;
PL6.E3A0      #009=XSC$ENCODE File=XSC$ACSE.:XSA1TSI                             WED 10/01/97 11:53 Page:347
     1929     7919            /* handle UserInformation if present */
     1930     7920    2       IF INFOLVL > 0 AND VBLK.DATA.SIZE > 0 THEN DO;
     1931     7921                %LOAD( LVL=INFOLVL, TAG=C30, IMP=Y, TYP=SEQOF);  /* UserInformation */
     1932     8012    2           INFOLVL = INFOLVL + 1;
     1933     8013    2           AFPT$ = XSC$GENERIC.DATA$;
     1934     8014    3           DO WHILE( AFPT$ ~= ADDR( NIL));
     1935     8015                    %LOAD( LVL=INFOLVL, TYP=EXTRN,
     1936     8016                            LEN="AFPT.NXTX", VAL="AFPT.BUF$->TEXT");
     1937     8107    3               AFPT$ = AFPT.LINK$;
     1938     8108    3               END;
     1939     8109    2           INFOLVL = INFOLVL - 1;
     1940     8110    2           END;
     1941     8111            /* Now, fix up the itemlist and build the PDU */
     1942     8112    1       CALL FIXITEMS;
     1943     8113    1       TEMP = ITEMLIST.X.LEN(0);  /* total length required for APDU */
     1944     8114    1       CALL XSS$GETMEM( PDUX, PDUBUF$, TEMP) ALTRET( OOPS);
     1945     8115    1       CALL BUILDPDU;
     1946     8116            /* Send the constructed PDU on to Presentation */
     1947     8117    1       VBLK.PDU.SIZE = PDUIDX;
     1948     8118    1       VBLK.PDU.PTR$ = PDUBUF$;
     1949     8119    1       CALL XSC$PSEND( VBLK)
     1950     8120    2       WHENALTRETURN DO;
     1951     8121    2           CALL XSS$RELMEM( PDUX);
     1952     8122    2   OOPS:
     1953     8123    2           ALTRETURN;
     1954     8124    2           END;
     1955     8125    1       CALL XSS$RELMEM( PDUX);
     1956     8126    1       RETURN;
     1957     8127        %EJECT;
PL6.E3A0      #009=XSC$ENCODE File=XSC$ACSE.:XSA1TSI                             WED 10/01/97 11:53 Page:348
     1958     8128        /*I*    NAME:   FIXITEMS
     1959     8129
     1960     8130                FIXITEMS is called to fix the itemlist.  'Fix'ing means trundling
     1961     8131                through the list figuring out the lengths of all constructor items
     1962     8132                now that we know how big each primitive item is.
     1963     8133        */
     1964     8134    1   FIXITEMS: PROC;
     1965     8135
     1966     8136    2       DCL I SBIN;
     1967     8137    2       DCL J SBIN;
     1968     8138    2       DCL LEN SBIN;
     1969     8139    2       DCL LVL SBIN;
     1970     8140    2       DCL TMP REDEF LVL SBIN;
     1971     8141    2       DCL UTMP REDEF LVL UBIN;
     1972     8142
     1973     8143    3       DO I = XSC_ITEMCNT - 1 DOWNTO 1;
     1974     8144    3           IF ITEMLIST.X.TAG( I) = 0 THEN
     1975     8145    3               ITEMLIST.X.TAG( I) = ITEMLIST.X.TYP( I);
     1976     8146    4           DO CASE( ITEMLIST.X.TYP( I));
     1977     8147    4               CASE( %XSC_TYP_BITSTR);
     1978     8148                        /* Have to convert bitstring lengths to bytelength + slack */
     1979     8149    4                   TMP = ITEMLIST.X.LEN( I);
     1980     8150    4                   IF TMP > 24 THEN
     1981     8151    4                       TMP = 24;  /* can't hold more than 24 bits in U */
     1982     8152    4                   ITEMLIST.X.LEN( I) = ( TMP + 15) / 8;  /* new bytelength */
     1983     8153    4                   UTMP = BITBIN( '007'O & BINBIT( 8-MOD( TMP, 8), 9)); /*slack*/
     1984     8154    4                   ITEMLIST.U( I) = UTMP*268435456 + ITEMLIST.U( I)/256;
     1985     8155                        /* U now has slack in highest 8 bits, followed by value */
     1986     8156    4               CASE( %XSC_TYP_NONE, %XSC_TYP_BOOL, %XSC_TYP_INTG,
     1987     8157    4                     %XSC_TYP_NULL, %XSC_TYP_SEQ, %XSC_TYP_SET,
     1988     8158    4                     %XSC_TYP_UTCTIM, %XSC_TYP_GENTIM, %XSC_TYP_CHOICE,
     1989     8159    4                     %XSC_TYP_SEQOF, %XSC_TYP_SETOF);
     1990     8160                        /* do nothing */
     1991     8161    4               CASE( %XSC_TYP_OBJID, %XSC_TYP_OBJDSCR);
     1992     8162    4                   ;  /*N* figure out final length by test-encoding */
     1993     8163    4               CASE( ELSE);
     1994     8164    4                   IF ITEMLIST.P( I) = ADDR( NIL) THEN
PL6.E3A0      #009=XSC$ENCODE File=XSC$ACSE.:XSA1TSI                             WED 10/01/97 11:53 Page:349
     1995     8165    4                       ITEMLIST.X.LEN( I) = 0;  /* don't address NIL segment */
     1996     8166    4               END;
     1997     8167    3           LEN = 1;  /* 1 byte to represent length */
     1998     8168    3           TMP = ITEMLIST.X.LEN( I);
     1999     8169    3           IF TMP > 127 THEN
     2000     8170    4               DO WHILE( TMP > 0);
     2001     8171    4                   LEN = LEN + 1;  /* add another byte to represent length */
     2002     8172    4                   TMP = TMP / 256;  /* keep going to find length of length */
     2003     8173    4                   END;
     2004     8174                /* now add length of item itself */
     2005     8175    3           LEN = LEN + ITEMLIST.X.LEN( I);
     2006     8176                /* add length of tag if a tag will be encoded */
     2007     8177    3           IF ITEMLIST.X.TAG( I) ~= %XSC_TYP_NONE OR
     2008     8178    3                   ( ITEMLIST.X.TYP( I) ~= %XSC_TYP_NONE AND
     2009     8179    3                   ITEMLIST.X.IMP( I) = 0) THEN
     2010     8180    3               LEN = LEN + 1;  /* assume all tags 1 byte long... */
     2011     8181    3           LVL = ITEMLIST.X.LVL( I) - 1;
     2012     8182    3   INCRLOOP:
     2013     8183    4           DO J = I - 1 DOWNTO 0;
     2014     8184    5               IF LVL = ITEMLIST.X.LVL( J) THEN DO;
     2015     8185    5                   ITEMLIST.X.LEN( J) = LEN + ITEMLIST.X.LEN( J);
     2016     8186    5                   EXIT INCRLOOP;
     2017     8187    5                   END;
     2018     8188    4               END;
     2019     8189    3           END;
     2020     8190    2       RETURN;
     2021     8191
     2022     8192    2       END FIXITEMS;
     2023     8193        %EJECT;
PL6.E3A0      #009=XSC$ENCODE File=XSC$ACSE.:XSA1TSI                             WED 10/01/97 11:53 Page:350
     2024     8194        /*I*    NAME:   BUILDPDU
     2025     8195
     2026     8196                BUILDPDU is called to actually construct the PPDU from the itemlist.
     2027     8197        */
     2028     8198    1   BUILDPDU: PROC;
     2029     8199
     2030     8200    2       DCL BYTES CHAR( LEN) BASED;
     2031     8201    2       DCL I SBIN;
     2032     8202    2       DCL LEN SBIN;
     2033     8203    2       DCL TMP SBIN;
     2034     8204    2       DCL U36(0:1) UBIN;
     2035     8205    2       DCL U8(0:8) REDEF U36 UBIN(8) UNAL;
     2036     8206        %MACRO STORBYTE( BYT=0);
     2037     8207            CALL INSERT( PDUBUF$->TEXT, PDUIDX, 1, BINASC( BYT));
     2038     8208            PDUIDX = PDUIDX + 1;
     2039     8209        %MEND;
     2040     8210
     2041     8211    2       PDUIDX = 0;
     2042     8212    2       XSC_ITEMCNT = XSC_ITEMCNT - 1;
     2043     8213            /* Construct each item of the itemlist in turn.  Item 0 not used. */
     2044     8214    3       DO I = 1 TO XSC_ITEMCNT;
     2045     8215                /* Move the TAG field into the PDU buffer */
     2046     8216                %STORBYTE( BYT="ITEMLIST.X.TAG( I)");
     2047     8220                /* Move the length into the PDU buffer */
     2048     8221    3           TMP = ITEMLIST.X.LEN( I);
     2049     8222    4           IF TMP > 127 THEN DO;
     2050     8223    4               LEN = 0;
     2051     8224    5               DO WHILE( TMP > 0);
     2052     8225    5                   LEN = LEN + 1;
     2053     8226    5                   TMP = TMP / 256;
     2054     8227    5                   END;
     2055     8228                    %STORBYTE( BYT="LEN+128");
     2056     8232    4               CALL INSERT( PDUBUF$->TEXT, PDUIDX, LEN,
     2057     8233    4                       PINCRC( ADDR( ITEMLIST.X.LEN( I)), 4 - LEN)->BYTES);
     2058     8234    4               PDUIDX = PDUIDX + LEN;
     2059     8235    4               END;
     2060     8236    4           ELSE DO;
PL6.E3A0      #009=XSC$ENCODE File=XSC$ACSE.:XSA1TSI                             WED 10/01/97 11:53 Page:351
     2061     8237                    %STORBYTE( BYT="TMP");
     2062     8241    4               END;
     2063     8242    3           ;  /*N* handle case where TYP~=TAG and not IMP */
     2064     8243                /* And finally.... move the value itself into the PDU buffer */
     2065     8244    3           LEN = ITEMLIST.X.LEN( I);
     2066     8245    4           DO CASE( ITEMLIST.X.TYP( I));
     2067     8246    4               CASE( %XSC_TYP_NONE, %XSC_TYP_NULL,
     2068     8247    4                     %XSC_TYP_SEQ, %XSC_TYP_SEQOF,
     2069     8248    4                     %XSC_TYP_SET, %XSC_TYP_SETOF,
     2070     8249    4                     %XSC_TYP_CHOICE);
     2071     8250                        /* Set LEN zero so not to incr PDUIDX for enclosing item */
     2072     8251    4                   LEN = 0;
     2073     8252    4               CASE( %XSC_TYP_BOOL);  /* boolean */
     2074     8253    5                   IF ITEMLIST.S( I) ~= 0 THEN DO;
     2075     8254                            %STORBYTE( BYT="511");
     2076     8258    5                       END;
     2077     8259    5                   ELSE DO;
     2078     8260                            %STORBYTE( BYT="0");
     2079     8264    5                       END;
     2080     8265    4               CASE( %XSC_TYP_INTG);  /* signed integer of length LEN */
     2081     8266    4                   U36(0) = 0;
     2082     8267    4                   U36(1) = ITEMLIST.U( I);
     2083     8268    5                   DO WHILE( LEN > 0);
     2084     8269                            %STORBYTE( BYT="U8( 9 - LEN)");
     2085     8273    5                       LEN = LEN - 1;
     2086     8274    5                       END;
     2087     8275    4                   GOTO NEXTITEM;
     2088     8276    4               CASE( %XSC_TYP_BITSTR);  /* left-justified bitstring */
     2089     8277    4                   U36(0) = ITEMLIST.U( I);
     2090     8278    4                   U36(1) = 0;
     2091     8279    4                   TMP = 0;
     2092     8280    4                   IF LEN > 0 THEN
     2093     8281    5                       DO WHILE( TMP < LEN);
     2094     8282                            %STORBYTE( BYT="U8( TMP)");
     2095     8286    5                       TMP = TMP + 1;
     2096     8287    5                       END;
     2097     8288    4                   GOTO NEXTITEM;
PL6.E3A0      #009=XSC$ENCODE File=XSC$ACSE.:XSA1TSI                             WED 10/01/97 11:53 Page:352
     2098     8289    4               CASE( %XSC_TYP_OBJID,
     2099     8290    4                     %XSC_TYP_OBJDSCR);
     2100     8291    4                   ;  /*N* Encode into temp buffer, then move bytes in */
     2101     8292    4                   GOTO COMMON;  /*N* But for now, just move raw text... */
     2102     8293    4               CASE( %XSC_TYP_UTCTIM,
     2103     8294    4                     %XSC_TYP_GENTIM);  /* UTS to be converted to ISO time */
     2104     8295    4                   LEN = 0;  /*N* worry about this later... */
     2105     8296    4               CASE( ELSE);  /* anything else is pointer to LEN bytes of text */
     2106     8297    4   COMMON:
     2107     8298    4                   IF LEN > 0 THEN
     2108     8299    4                       CALL INSERT( PDUBUF$->TEXT, PDUIDX, LEN,
     2109     8300    4                               ITEMLIST.P( I)->BYTES);
     2110     8301    4               END;
     2111     8302    3           PDUIDX = LEN + PDUIDX;
     2112     8303    3   NEXTITEM:
     2113     8304    3           END;
     2114     8305    2       RETURN;
     2115     8306
     2116     8307    2       END BUILDPDU;
     2117     8308
     2118     8309    1       END XSC$ENCODE;
     2119     8310        %EOD;

PL6.E3A0      #009=XSC$ENCODE File=XSC$ACSE.:XSA1TSI                             WED 10/01/97 11:53 Page:353
--  Include file information  --

   XSC_PERR_C.:XSA1TOU  is referenced.
   UM_CP6.:E05OU  is referenced.
   XSP_ASN1_M.:XSA1TOU  is referenced.
   XSC_INTERNAL_M.:XSA1TOU  is referenced.
   XSC_INTERNAL_E.:XSA1TOU  is referenced.
   XSC_ACSE_M.:XSA1TOU  is referenced.
   XSC_ACSE_E.:XSA1TOU  is referenced.
   XSP_PRESENTATION_M.:XSA1TOU  is referenced.
   XSP_PRESENTATION_E.:XSA1TOU  is referenced.
   XSS_SESSION_E.:XSA1TOU  is referenced.
      No diagnostics issued in procedure XSC$ENCODE.

   Procedure XSC$ENCODE requires 793 words for executable code.
   Procedure XSC$ENCODE requires 66 words of local(AUTO) storage.

PL6.E3A0      #009=XSC$ENCODE File=XSC$ACSE.:XSA1TSI                             WED 10/01/97 11:53 Page:354

 Object Unit name= XSC$ENCODE                                 File name= XSC$ACSE.:XSA1TOU
 UTS= OCT 01 '97 11:53:12.52 WED                              Compiler= PL-6/E31         Sev=      00
 SharedLib= :SHARED_SYSTEM                                    Alt SharedLib=


    ****  Control sections  ****

 Sect   Type Bound  Init  Size OctSiz  Section name(segment info)
    0  RoData even  UTS      1      1  XSC$ENCODE
    1   Data  even  none     2      2  XSC$ENCODE
    2   Proc  even  none   793   1431  XSC$ENCODE
    3  RoData even  none    17     21  XSC$ENCODE

    ****  Entry defs  ****

                              Check   Calling
                             calling  sequence
  Sect OctLoc Primary Altret sequence   type   Parms  Name
     2      0   yes    yes     yes      Std        1  XSC$ENCODE

  ****  Data defs  ****

 Sect OctLoc  Name                           Sect OctLoc  Name
    0      0  XSC_F$ENCODE                       1      0  XSC_ITEMCNT
    1      1  XSC_ITEMMAX
PL6.E3A0      #009=XSC$ENCODE File=XSC$ACSE.:XSA1TSI                             WED 10/01/97 11:53 Page:355

  ****  Entry refs  ****

         Check        Calling
        calling       sequence
Altret sequence SRef   type   Args  Name
         yes           Std       1 XSS$SCREECH
 yes     yes           Std       3 XSS$GETMEM
 yes     yes           Std       1 XSC$PSEND
 yes     yes           Std       1 XSS$RELMEM
                       nStd      0 X66_AUTO_1
                       nStd      0 X66_AALT
                       nStd      0 X66_ARET

  ****  Segment refs  ****

  Flags:  r = read only, s = secondary
Flgs Name                             Flgs Name                             Flgs Name
     NULLSID                               ISSID
PL6.E3A0      #009=XSC$ENCODE File=XSC$ACSE.:XSA1TSI                             WED 10/01/97 11:53 Page:356


     1718        1        /*T***********************************************************/
     1719        2        /*T*                                                         */
     1720        3        /*T* Copyright (c) Bull HN Information Systems Inc., 1997    */
     1721        4        /*T*                                                         */
     1722        5        /*T***********************************************************/
     1723        6        /*F*    NAME:   XSC$ENCODE
     1724        7
     1725        8                XSC$ENCODE is called from XSC$AMACHINE when an APDU needs to be built
     1726        9                in order to send it to the other endpoint of an ACSE connection.
     1727       10        */
     1728       11        XSC$ENCODE: PROC( VBLK) ALTRET;

     11  2 000000   000000 700200 xent  XSC$ENCODE   TSX0  ! X66_AUTO_1
         2 000001   000102 000001                    ZERO    66,1

     1729       12        %INCLUDE XSS_SESSION_E;
     1730      577        %INCLUDE XSP_PRESENTATION_E;
     1731      676        %INCLUDE XSP_PRESENTATION_M;
     1732     2162            %XSP$CTXTNAME( NAME=CTXT, STCLASS=BASED);
     1733     2204        %INCLUDE XSC_ACSE_E;
     1734     2282        %INCLUDE XSC_ACSE_M;
     1735     2591            %XSC$PRIMITIVES( STCLASS="BASED( VBLK.FPT$)");
     1736     2904        %INCLUDE XSC_INTERNAL_E;
     1737     2992        %INCLUDE XSC_INTERNAL_M;
     1738     3337            %XSC$VBLK( NAME=VBLK, STCLASS="");
     1739     3443            %XSC$CCTX( NAME=CCTX, STCLASS="BASED( VBLK.CTX$)");
     1740     3489            %ENCDECMACS;
     1741     3669        %INCLUDE XSP_ASN1_M;
     1742     4015            %XSP_ASN1_FPT( FPTN=AFPT, STCLASS="BASED( AFPT$)");
     1743     4035        %INCLUDE UM_CP6;
     1744     4887        %MACRO FATALDEF( NAME=XSC_FATAL, STCLASS="CONSTANT SYMDEF", LVL=1, LAST=";",
     1745     4888                         ERR#=0, SEV=7);
     1746     4889            %VLP_ERRCODE( FPTN=NAME, STCLASS=STCLASS, FCG='XS', MID='C',
     1747     4890                          MON='0'B, ERR#=ERR#, SEV=SEV);
     1748     4891        %MEND;
     1749     4892        %INCLUDE XSC_PERR_C;
PL6.E3A0      #009=XSC$ENCODE File=XSC$ACSE.:XSA1TSI                             WED 10/01/97 11:53 Page:357
     1750     4969            %FATALDEF( NAME=XSC_F$ENCODE, ERR#=%F$ENCODE);
     1751     5017            /*E*  ERROR:  XSC-F$ENCODE-7
     1752     5018                MESSAGE:  VBLK.EVENT illegal for PDU encoder.
     1753     5019            */
     1754     5020        %EQU ITEMMAX = 20;
     1755     5021
     1756     5022    1       DCL XSC$PSEND ENTRY(1) ALTRET;
     1757     5023    1       DCL XSS$GETMEM ENTRY(3) ALTRET;
     1758     5024    1       DCL XSS$RELMEM ENTRY(1) ALTRET;
     1759     5025    1       DCL XSS$SCREECH ENTRY(1);
     1760     5026
     1761     5027    1       DCL XSC_ITEMCNT SBIN STATIC SYMDEF INIT( 0);
     1762     5028    1       DCL XSC_ITEMMAX SBIN STATIC SYMDEF INIT( %ITEMMAX);
     1763     5029
     1764     5030            %ITEM( NAME="ITEMLIST(0:%ITEMMAX)", STCLASS=AUTO);
     1765     5055    1       DCL AFPT$ PTR;
     1766     5056    1       DCL CTXT$ PTR;
     1767     5057    1       DCL I SBIN;
     1768     5058    1       DCL INFOLVL SBIN;
     1769     5059    1       DCL PDUBUF$ PTR;
     1770     5060    1       DCL PDUIDX SBIN;
     1771     5061    1       DCL PDUX UBIN HALF HALIGNED;
     1772     5062    1       DCL TEMP SBIN;
     1773     5063    1       DCL TEXT CHAR(16384) BASED CALIGNED;
     1774     5064    1       DCL 1 TXTC BASED( TXTC$) CALIGNED,
     1775     5065    1            2 LEN UBIN(9) CALIGNED,
     1776     5066    1            2 TXT CHAR( TXTC.LEN) CALIGNED;
     1777     5067    1       DCL TXTC$ PTR;
     1778     5068
     1779     5069    1       INFOLVL = 0;

   5069  2 000002   200061 450100                    STZ     INFOLVL,,AUTO

     1780     5070    1       XSC_ITEMCNT = 0;

   5070  2 000003   000000 450000 1                  STZ     XSC_ITEMCNT

PL6.E3A0      #009=XSC$ENCODE File=XSC$ACSE.:XSA1TSI                             WED 10/01/97 11:53 Page:358
     1781     5071    1       ITEMLIST = '0'B;

   5071  2 000004   000100 100400                    MLR     fill='000'O
         2 000005   000000 000001 3                  ADSC9   0                        cn=0,n=1
         2 000006   200004 000250                    ADSC9   ITEMLIST,,AUTO           cn=0,n=168

     1782     5072            %LOAD( LVL=0, TYP=NONE, CON=Y);

   5156  2 000007   000000 235000 1                  LDA     XSC_ITEMCNT
         2 000010   000001 735000                    ALS     1
         2 000011   040000 236007                    LDQ     16384,DL
         2 000012   200004 756105                    STQ     ITEMLIST,AL,AUTO

   5159  2 000013   000000 054000 1                  AOS     XSC_ITEMCNT

     1783     5163    2       DO CASE( VBLK.EVENT);

   5163  2 000014   200003 470500                    LDP0    @VBLK,,AUTO
         2 000015   000006 720100                    LXL0    6,,PR0
         2 000016   000777 360003                    ANX0    511,DU
         2 000017   000010 100003                    CMPX0   8,DU
         2 000020   000022 602010 2                  TNC     s:5163+6,X0
         2 000021   000552 710000 2                  TRA     s:7916
         2 000022   000552 710000 2                  TRA     s:7916
         2 000023   000032 710000 2                  TRA     s:5255
         2 000024   000266 710000 2                  TRA     s:6393
         2 000025   000266 710000 2                  TRA     s:6393
         2 000026   000464 710000 2                  TRA     s:7427
         2 000027   000506 710000 2                  TRA     s:7619
         2 000030   000506 710000 2                  TRA     s:7619
         2 000031   000530 710000 2                  TRA     s:7810

     1784     5164        %EJECT;
PL6.E3A0      #009=XSC$ENCODE File=XSC$ACSE.:XSA1TSI                             WED 10/01/97 11:53 Page:359
     1785     5165        /*****************************************************************************
     1786     5166        *
     1787     5167        *       AARQ
     1788     5168        *
     1789     5169        *****************************************************************************/
     1790     5170    2           CASE( %XSC_CEV_AARQ);

     1791     5171                    %LOAD( LVL=1, TAG=A0, IMP=Y, TYP=SEQ);  /* AARQApdu */

   5255  2 000032   000000 235000 1                  LDA     XSC_ITEMCNT
         2 000033   000001 735000                    ALS     1
         2 000034   140601 236007                    LDQ     49537,DL
         2 000035   200004 756105                    STQ     ITEMLIST,AL,AUTO

   5258  2 000036   000000 054000 1                  AOS     XSC_ITEMCNT

     1792     5262                    %LOAD( LVL=2, TAG=C0, IMP=Y, TYP=BITSTR,
     1793     5263                            LEN=1, VAL='1'B);  /* ProtocolVersion */

   5322  2 000037   000000 235000 1                  LDA     XSC_ITEMCNT
         2 000040   000001 735000                    ALS     1
         2 000041   400000 236003                    LDQ     -131072,DU
         2 000042   200005 756105                    STQ     ITEMLIST+1,AL,AUTO

   5347  2 000043   000001 236000 3                  LDQ     1
         2 000044   200004 756105                    STQ     ITEMLIST,AL,AUTO

   5350  2 000045   000000 054000 1                  AOS     XSC_ITEMCNT

     1794     5354    2               CTXT$ = XSC$ASSOCIATE.ACN$;

   5354  2 000046   000001 471500                    LDP1    1,,PR0
         2 000047   100003 236100                    LDQ     3,,PR1
         2 000050   200057 756100                    STQ     CTXT$,,AUTO

     1795     5355    3               IF CTXT$ ~= ADDR( NIL) THEN DO;

PL6.E3A0      #009=XSC$ENCODE File=XSC$ACSE.:XSA1TSI                             WED 10/01/97 11:53 Page:360
   5355  2 000051   000002 116000 3                  CMPQ    2
         2 000052   000065 600000 2                  TZE     s:5449

     1796     5356                        %LOAD( LVL=2, TAG=C1, TYP=OBJID,
     1797     5357                                VAL=CTXT$);  /* ApplicationContextName */

   5429  2 000053   000000 235000 1                  LDA     XSC_ITEMCNT
         2 000054   000001 735000                    ALS     1
         2 000055   400000 036007                    ADLQ    -131072,DL
         2 000056   200005 756105                    STQ     ITEMLIST+1,AL,AUTO

   5441  2 000057   200057 471500                    LDP1    CTXT$,,AUTO
         2 000060   100000 236100                    LDQ     0,,PR1
         2 000061   777777 376003                    ANQ     -1,DU
         2 000062   201062 036007                    ADLQ    66098,DL
         2 000063   200004 756105                    STQ     ITEMLIST,AL,AUTO

   5444  2 000064   000000 054000 1                  AOS     XSC_ITEMCNT

     1798     5448    3                   END;

     1799     5449    2               TXTC$ = XSC$ASSOCIATE.RAPT$;

   5449  2 000065   000001 471500                    LDP1    1,,PR0
         2 000066   100010 236100                    LDQ     8,,PR1
         2 000067   200066 756100                    STQ     TXTC$,,AUTO

     1800     5450    3               IF TXTC$ ~= ADDR( NIL) THEN DO;

   5450  2 000070   000002 116000 3                  CMPQ    2
         2 000071   000107 600000 2                  TZE     s:5544

     1801     5451                        %LOAD( LVL=2, TAG=C2, TYP=OCTETSTR,
     1802     5452                                LEN="TXTC.LEN", VAL="TXTC.TXT");  /* CalledAPTitle */

   5533  2 000072   000000 235000 1                  LDA     XSC_ITEMCNT
         2 000073   000001 735000                    ALS     1
PL6.E3A0      #009=XSC$ENCODE File=XSC$ACSE.:XSA1TSI                             WED 10/01/97 11:53 Page:361
         2 000074   200000 036007                    ADLQ    65536,DL
         2 000075   200005 756105                    STQ     ITEMLIST+1,AL,AUTO

   5536  2 000076   200066 471500                    LDP1    TXTC$,,AUTO
         2 000077   000100 101500                    MRL     fill='000'O
         2 000100   100000 000001                    ADSC9   0,,PR1                   cn=0,n=1
         2 000101   200076 000004                    ADSC9   U36+2,,AUTO              cn=0,n=4
         2 000102   200076 236100                    LDQ     U36+2,,AUTO
         2 000103   000022 736000                    QLS     18
         2 000104   202042 036007                    ADLQ    66594,DL
         2 000105   200004 756105                    STQ     ITEMLIST,AL,AUTO

   5539  2 000106   000000 054000 1                  AOS     XSC_ITEMCNT

     1803     5543    3                   END;

     1804     5544    2               TXTC$ = XSC$ASSOCIATE.RAEQ$;

   5544  2 000107   000001 471500                    LDP1    1,,PR0
         2 000110   100011 236100                    LDQ     9,,PR1
         2 000111   200066 756100                    STQ     TXTC$,,AUTO

     1805     5545    3               IF TXTC$ ~= ADDR( NIL) THEN DO;

   5545  2 000112   000002 116000 3                  CMPQ    2
         2 000113   000131 600000 2                  TZE     s:5639

     1806     5546                        %LOAD( LVL=2, TAG=C3, TYP=OCTETSTR,
     1807     5547                                LEN="TXTC.LEN", VAL="TXTC.TXT");/*CalledAEQualifier*/

   5628  2 000114   000000 235000 1                  LDA     XSC_ITEMCNT
         2 000115   000001 735000                    ALS     1
         2 000116   200000 036007                    ADLQ    65536,DL
         2 000117   200005 756105                    STQ     ITEMLIST+1,AL,AUTO

   5631  2 000120   200066 471500                    LDP1    TXTC$,,AUTO
         2 000121   000100 101500                    MRL     fill='000'O
PL6.E3A0      #009=XSC$ENCODE File=XSC$ACSE.:XSA1TSI                             WED 10/01/97 11:53 Page:362
         2 000122   100000 000001                    ADSC9   0,,PR1                   cn=0,n=1
         2 000123   200076 000004                    ADSC9   U36+2,,AUTO              cn=0,n=4
         2 000124   200076 236100                    LDQ     U36+2,,AUTO
         2 000125   000022 736000                    QLS     18
         2 000126   203042 036007                    ADLQ    67106,DL
         2 000127   200004 756105                    STQ     ITEMLIST,AL,AUTO

   5634  2 000130   000000 054000 1                  AOS     XSC_ITEMCNT

     1808     5638    3                   END;

     1809     5639    3               IF XSC$ASSOCIATE.RAPID ~= 0 THEN DO;

   5639  2 000131   000001 471500                    LDP1    1,,PR0
         2 000132   100012 235100                    LDA     10,,PR1
         2 000133   000142 600000 2                  TZE     s:5733

     1810     5640                        %LOAD( LVL=2, TAG=C4, TYP=INTG,
     1811     5641                                LEN=4, VAL="XSC$ASSOCIATE.RAPID");
              5641                                    /* CalledAPInvocationId */

   5694  2 000134   000000 236000 1                  LDQ     XSC_ITEMCNT
         2 000135   000001 736000                    QLS     1
         2 000136   200005 755106                    STA     ITEMLIST+1,QL,AUTO

   5725  2 000137   000003 235000 3                  LDA     3
         2 000140   200004 755106                    STA     ITEMLIST,QL,AUTO

   5728  2 000141   000000 054000 1                  AOS     XSC_ITEMCNT

     1812     5732    3                   END;

     1813     5733    3               IF XSC$ASSOCIATE.RAEID ~= 0 THEN DO;

   5733  2 000142   000001 471500                    LDP1    1,,PR0
         2 000143   100013 235100                    LDA     11,,PR1
         2 000144   000153 600000 2                  TZE     s:5827
PL6.E3A0      #009=XSC$ENCODE File=XSC$ACSE.:XSA1TSI                             WED 10/01/97 11:53 Page:363

     1814     5734                        %LOAD( LVL=2, TAG=C5, TYP=INTG,
     1815     5735                                LEN=4, VAL="XSC$ASSOCIATE.RAEID");
              5735                                    /* CalledAEInvocationId */

   5788  2 000145   000000 236000 1                  LDQ     XSC_ITEMCNT
         2 000146   000001 736000                    QLS     1
         2 000147   200005 755106                    STA     ITEMLIST+1,QL,AUTO

   5819  2 000150   000004 235000 3                  LDA     4
         2 000151   200004 755106                    STA     ITEMLIST,QL,AUTO

   5822  2 000152   000000 054000 1                  AOS     XSC_ITEMCNT

     1816     5826    3                   END;

     1817     5827    2               TXTC$ = XSC$ASSOCIATE.IAPT$;

   5827  2 000153   000001 471500                    LDP1    1,,PR0
         2 000154   100004 236100                    LDQ     4,,PR1
         2 000155   200066 756100                    STQ     TXTC$,,AUTO

     1818     5828    3               IF TXTC$ ~= ADDR( NIL) THEN DO;

   5828  2 000156   000002 116000 3                  CMPQ    2
         2 000157   000175 600000 2                  TZE     s:5922

     1819     5829                        %LOAD( LVL=2, TAG=C6, TYP=OCTETSTR,
     1820     5830                                LEN="TXTC.LEN", VAL="TXTC.TXT");  /* CallingAPTitle */

   5911  2 000160   000000 235000 1                  LDA     XSC_ITEMCNT
         2 000161   000001 735000                    ALS     1
         2 000162   200000 036007                    ADLQ    65536,DL
         2 000163   200005 756105                    STQ     ITEMLIST+1,AL,AUTO

   5914  2 000164   200066 471500                    LDP1    TXTC$,,AUTO
         2 000165   000100 101500                    MRL     fill='000'O
PL6.E3A0      #009=XSC$ENCODE File=XSC$ACSE.:XSA1TSI                             WED 10/01/97 11:53 Page:364
         2 000166   100000 000001                    ADSC9   0,,PR1                   cn=0,n=1
         2 000167   200076 000004                    ADSC9   U36+2,,AUTO              cn=0,n=4
         2 000170   200076 236100                    LDQ     U36+2,,AUTO
         2 000171   000022 736000                    QLS     18
         2 000172   206042 036007                    ADLQ    68642,DL
         2 000173   200004 756105                    STQ     ITEMLIST,AL,AUTO

   5917  2 000174   000000 054000 1                  AOS     XSC_ITEMCNT

     1821     5921    3                   END;

     1822     5922    2               TXTC$ = XSC$ASSOCIATE.IAEQ$;

   5922  2 000175   000001 471500                    LDP1    1,,PR0
         2 000176   100005 236100                    LDQ     5,,PR1
         2 000177   200066 756100                    STQ     TXTC$,,AUTO

     1823     5923    3               IF TXTC$ ~= ADDR( NIL) THEN DO;

   5923  2 000200   000002 116000 3                  CMPQ    2
         2 000201   000217 600000 2                  TZE     s:6017

     1824     5924                        %LOAD( LVL=2, TAG=C7, TYP=OCTETSTR,
     1825     5925                                LEN="TXTC.LEN", VAL="TXTC.TXT");/*CallingAEQualifier*/

   6006  2 000202   000000 235000 1                  LDA     XSC_ITEMCNT
         2 000203   000001 735000                    ALS     1
         2 000204   200000 036007                    ADLQ    65536,DL
         2 000205   200005 756105                    STQ     ITEMLIST+1,AL,AUTO

   6009  2 000206   200066 471500                    LDP1    TXTC$,,AUTO
         2 000207   000100 101500                    MRL     fill='000'O
         2 000210   100000 000001                    ADSC9   0,,PR1                   cn=0,n=1
         2 000211   200076 000004                    ADSC9   U36+2,,AUTO              cn=0,n=4
         2 000212   200076 236100                    LDQ     U36+2,,AUTO
         2 000213   000022 736000                    QLS     18
         2 000214   207042 036007                    ADLQ    69154,DL
PL6.E3A0      #009=XSC$ENCODE File=XSC$ACSE.:XSA1TSI                             WED 10/01/97 11:53 Page:365
         2 000215   200004 756105                    STQ     ITEMLIST,AL,AUTO

   6012  2 000216   000000 054000 1                  AOS     XSC_ITEMCNT

     1826     6016    3                   END;

     1827     6017    3               IF XSC$ASSOCIATE.IAPID ~= 0 THEN DO;

   6017  2 000217   000001 471500                    LDP1    1,,PR0
         2 000220   100006 235100                    LDA     6,,PR1
         2 000221   000230 600000 2                  TZE     s:6111

     1828     6018                        %LOAD( LVL=2, TAG=C8, TYP=INTG,
     1829     6019                                LEN=4, VAL="XSC$ASSOCIATE.IAPID");
              6019                                    /* CallingAPInvocationId */

   6072  2 000222   000000 236000 1                  LDQ     XSC_ITEMCNT
         2 000223   000001 736000                    QLS     1
         2 000224   200005 755106                    STA     ITEMLIST+1,QL,AUTO

   6103  2 000225   000005 235000 3                  LDA     5
         2 000226   200004 755106                    STA     ITEMLIST,QL,AUTO

   6106  2 000227   000000 054000 1                  AOS     XSC_ITEMCNT

     1830     6110    3                   END;

     1831     6111    3               IF XSC$ASSOCIATE.IAEID ~= 0 THEN DO;

   6111  2 000230   000001 471500                    LDP1    1,,PR0
         2 000231   100007 235100                    LDA     7,,PR1
         2 000232   000241 600000 2                  TZE     s:6205

     1832     6112                        %LOAD( LVL=2, TAG=C9, TYP=INTG,
     1833     6113                                LEN=4, VAL="XSC$ASSOCIATE.IAEID");
              6113                                    /* CallingAEInvocationId */

PL6.E3A0      #009=XSC$ENCODE File=XSC$ACSE.:XSA1TSI                             WED 10/01/97 11:53 Page:366
   6166  2 000233   000000 236000 1                  LDQ     XSC_ITEMCNT
         2 000234   000001 736000                    QLS     1
         2 000235   200005 755106                    STA     ITEMLIST+1,QL,AUTO

   6197  2 000236   000006 235000 3                  LDA     6
         2 000237   200004 755106                    STA     ITEMLIST,QL,AUTO

   6200  2 000240   000000 054000 1                  AOS     XSC_ITEMCNT

     1834     6204    3                   END;

     1835     6205    2               TXTC$ = XSC$ASSOCIATE.IMPL$;

   6205  2 000241   000001 471500                    LDP1    1,,PR0
         2 000242   100014 236100                    LDQ     12,,PR1
         2 000243   200066 756100                    STQ     TXTC$,,AUTO

     1836     6206    3               IF TXTC$ ~= ADDR( NIL) THEN DO;

   6206  2 000244   000002 116000 3                  CMPQ    2
         2 000245   000263 600000 2                  TZE     s:6300

     1837     6207                        %LOAD( LVL=2, TAG=C29, IMP=Y, TYP=GRFSTR,
     1838     6208                                LEN="TXTC.LEN", VAL="TXTC.TXT");/*ImplementationData*/

   6289  2 000246   000000 235000 1                  LDA     XSC_ITEMCNT
         2 000247   000001 735000                    ALS     1
         2 000250   200000 036007                    ADLQ    65536,DL
         2 000251   200005 756105                    STQ     ITEMLIST+1,AL,AUTO

   6292  2 000252   200066 471500                    LDP1    TXTC$,,AUTO
         2 000253   000100 101500                    MRL     fill='000'O
         2 000254   100000 000001                    ADSC9   0,,PR1                   cn=0,n=1
         2 000255   200076 000004                    ADSC9   U36+2,,AUTO              cn=0,n=4
         2 000256   200076 236100                    LDQ     U36+2,,AUTO
         2 000257   000022 736000                    QLS     18
         2 000260   235712 036007                    ADLQ    80842,DL
PL6.E3A0      #009=XSC$ENCODE File=XSC$ACSE.:XSA1TSI                             WED 10/01/97 11:53 Page:367
         2 000261   200004 756105                    STQ     ITEMLIST,AL,AUTO

   6295  2 000262   000000 054000 1                  AOS     XSC_ITEMCNT

     1839     6299    3                   END;

     1840     6300    2               INFOLVL = 2;

   6300  2 000263   000002 235007                    LDA     2,DL
         2 000264   200061 755100                    STA     INFOLVL,,AUTO
         2 000265   000556 710000 2                  TRA     s:7920

     1841     6301        %EJECT;
PL6.E3A0      #009=XSC$ENCODE File=XSC$ACSE.:XSA1TSI                             WED 10/01/97 11:53 Page:368
     1842     6302        /*****************************************************************************
     1843     6303        *
     1844     6304        *       AARE+ and AARE-
     1845     6305        *
     1846     6306        *****************************************************************************/
     1847     6307    2           CASE( %XSC_CEV_AAREP,

     1848     6308    2                 %XSC_CEV_AAREN);
     1849     6309                    %LOAD( LVL=1, TAG=A1, IMP=Y, TYP=SEQ);  /* AAREApdu */

   6393  2 000266   000000 235000 1                  LDA     XSC_ITEMCNT
         2 000267   000001 735000                    ALS     1
         2 000270   141601 236007                    LDQ     50049,DL
         2 000271   200004 756105                    STQ     ITEMLIST,AL,AUTO

   6396  2 000272   000000 054000 1                  AOS     XSC_ITEMCNT

     1850     6400                    %LOAD( LVL=2, TAG=C0, IMP=Y, TYP=BITSTR,
     1851     6401                            LEN=1, VAL='1'B);  /* ProtocolVersion */

   6460  2 000273   000000 235000 1                  LDA     XSC_ITEMCNT
         2 000274   000001 735000                    ALS     1
         2 000275   400000 236003                    LDQ     -131072,DU
         2 000276   200005 756105                    STQ     ITEMLIST+1,AL,AUTO

   6485  2 000277   000001 236000 3                  LDQ     1
         2 000300   200004 756105                    STQ     ITEMLIST,AL,AUTO

   6488  2 000301   000000 054000 1                  AOS     XSC_ITEMCNT

     1852     6492    2               CTXT$ = XSC$ASSOCIATE.ACN$;

   6492  2 000302   000001 471500                    LDP1    1,,PR0
         2 000303   100003 236100                    LDQ     3,,PR1
         2 000304   200057 756100                    STQ     CTXT$,,AUTO

     1853     6493    3               IF CTXT$ ~= ADDR( NIL) THEN DO;
PL6.E3A0      #009=XSC$ENCODE File=XSC$ACSE.:XSA1TSI                             WED 10/01/97 11:53 Page:369

   6493  2 000305   000002 116000 3                  CMPQ    2
         2 000306   000321 600000 2                  TZE     s:6641

     1854     6494                        %LOAD( LVL=2, TAG=C1, TYP=OBJID,
     1855     6495                                VAL=CTXT$);  /* ApplicationContextName */

   6567  2 000307   000000 235000 1                  LDA     XSC_ITEMCNT
         2 000310   000001 735000                    ALS     1
         2 000311   400000 036007                    ADLQ    -131072,DL
         2 000312   200005 756105                    STQ     ITEMLIST+1,AL,AUTO

   6579  2 000313   200057 471500                    LDP1    CTXT$,,AUTO
         2 000314   100000 236100                    LDQ     0,,PR1
         2 000315   777777 376003                    ANQ     -1,DU
         2 000316   201062 036007                    ADLQ    66098,DL
         2 000317   200004 756105                    STQ     ITEMLIST,AL,AUTO

   6582  2 000320   000000 054000 1                  AOS     XSC_ITEMCNT

     1856     6586    3                   END;

     1857     6587                    %LOAD( LVL=2, TAG=C2, TYP=INTG,
     1858     6588                            LEN=1, VAL="XSC$ASSOCIATE.RESULT");  /* Result */

   6641  2 000321   000000 235000 1                  LDA     XSC_ITEMCNT
         2 000322   000001 735000                    ALS     1
         2 000323   000001 471500                    LDP1    1,,PR0
         2 000324   100000 236100                    LDQ     0,,PR1
         2 000325   000777 376007                    ANQ     511,DL
         2 000326   200005 756105                    STQ     ITEMLIST+1,AL,AUTO

   6672  2 000327   000007 236000 3                  LDQ     7
         2 000330   200004 756105                    STQ     ITEMLIST,AL,AUTO

   6675  2 000331   000000 054000 1                  AOS     XSC_ITEMCNT

PL6.E3A0      #009=XSC$ENCODE File=XSC$ACSE.:XSA1TSI                             WED 10/01/97 11:53 Page:370
     1859     6679                    %LOAD( LVL=2, TAG=C3, TYP=CHOICE);/* ResultSourceDiagnostic */

   6763  2 000332   000000 235000 1                  LDA     XSC_ITEMCNT
         2 000333   000001 735000                    ALS     1
         2 000334   203152 236007                    LDQ     67178,DL
         2 000335   200004 756105                    STQ     ITEMLIST,AL,AUTO

   6766  2 000336   000000 054000 1                  AOS     XSC_ITEMCNT

     1860     6770                    %LOAD( LVL=3, TAG=C1, TYP=INTG,
     1861     6771                            LEN=1, VAL="XSC$ASSOCIATE.RSDIAG");

   6824  2 000337   000000 235000 1                  LDA     XSC_ITEMCNT
         2 000340   000001 735000                    ALS     1
         2 000341   000001 471500                    LDP1    1,,PR0
         2 000342   100000 236100                    LDQ     0,,PR1
         2 000343   000011 772000                    QRL     9
         2 000344   000777 376007                    ANQ     511,DL
         2 000345   200005 756105                    STQ     ITEMLIST+1,AL,AUTO

   6855  2 000346   000010 236000 3                  LDQ     8
         2 000347   200004 756105                    STQ     ITEMLIST,AL,AUTO

   6858  2 000350   000000 054000 1                  AOS     XSC_ITEMCNT

     1862     6862    2               TXTC$ = XSC$ASSOCIATE.RAPT$;

   6862  2 000351   000001 471500                    LDP1    1,,PR0
         2 000352   100010 236100                    LDQ     8,,PR1
         2 000353   200066 756100                    STQ     TXTC$,,AUTO

     1863     6863    3               IF TXTC$ ~= ADDR( NIL) THEN DO;

   6863  2 000354   000002 116000 3                  CMPQ    2
         2 000355   000373 600000 2                  TZE     s:6957

     1864     6864                        %LOAD( LVL=2, TAG=C4, TYP=OCTETSTR,
PL6.E3A0      #009=XSC$ENCODE File=XSC$ACSE.:XSA1TSI                             WED 10/01/97 11:53 Page:371
     1865     6865                                LEN="TXTC.LEN", VAL="TXTC.TXT");/*RespondingAPTitle*/

   6946  2 000356   000000 235000 1                  LDA     XSC_ITEMCNT
         2 000357   000001 735000                    ALS     1
         2 000360   200000 036007                    ADLQ    65536,DL
         2 000361   200005 756105                    STQ     ITEMLIST+1,AL,AUTO

   6949  2 000362   200066 471500                    LDP1    TXTC$,,AUTO
         2 000363   000100 101500                    MRL     fill='000'O
         2 000364   100000 000001                    ADSC9   0,,PR1                   cn=0,n=1
         2 000365   200076 000004                    ADSC9   U36+2,,AUTO              cn=0,n=4
         2 000366   200076 236100                    LDQ     U36+2,,AUTO
         2 000367   000022 736000                    QLS     18
         2 000370   204042 036007                    ADLQ    67618,DL
         2 000371   200004 756105                    STQ     ITEMLIST,AL,AUTO

   6952  2 000372   000000 054000 1                  AOS     XSC_ITEMCNT

     1866     6956    3                   END;

     1867     6957    2               TXTC$ = XSC$ASSOCIATE.RAEQ$;

   6957  2 000373   000001 471500                    LDP1    1,,PR0
         2 000374   100011 236100                    LDQ     9,,PR1
         2 000375   200066 756100                    STQ     TXTC$,,AUTO

     1868     6958    3               IF TXTC$ ~= ADDR( NIL) THEN DO;

   6958  2 000376   000002 116000 3                  CMPQ    2
         2 000377   000415 600000 2                  TZE     s:7052

     1869     6959                        %LOAD( LVL=2, TAG=C5, TYP=OCTETSTR,
     1870     6960                                LEN="TXTC.LEN", VAL="TXTC.TXT");/*RespondingAEQualifier*/

   7041  2 000400   000000 235000 1                  LDA     XSC_ITEMCNT
         2 000401   000001 735000                    ALS     1
         2 000402   200000 036007                    ADLQ    65536,DL
PL6.E3A0      #009=XSC$ENCODE File=XSC$ACSE.:XSA1TSI                             WED 10/01/97 11:53 Page:372
         2 000403   200005 756105                    STQ     ITEMLIST+1,AL,AUTO

   7044  2 000404   200066 471500                    LDP1    TXTC$,,AUTO
         2 000405   000100 101500                    MRL     fill='000'O
         2 000406   100000 000001                    ADSC9   0,,PR1                   cn=0,n=1
         2 000407   200076 000004                    ADSC9   U36+2,,AUTO              cn=0,n=4
         2 000410   200076 236100                    LDQ     U36+2,,AUTO
         2 000411   000022 736000                    QLS     18
         2 000412   205042 036007                    ADLQ    68130,DL
         2 000413   200004 756105                    STQ     ITEMLIST,AL,AUTO

   7047  2 000414   000000 054000 1                  AOS     XSC_ITEMCNT

     1871     7051    3                   END;

     1872     7052    3               IF XSC$ASSOCIATE.RAPID ~= 0 THEN DO;

   7052  2 000415   000001 471500                    LDP1    1,,PR0
         2 000416   100012 235100                    LDA     10,,PR1
         2 000417   000426 600000 2                  TZE     s:7146

     1873     7053                        %LOAD( LVL=2, TAG=C6, TYP=INTG,
     1874     7054                                LEN=4, VAL="XSC$ASSOCIATE.RAPID");
              7054                                    /* RespondingAPInvocationId */

   7107  2 000420   000000 236000 1                  LDQ     XSC_ITEMCNT
         2 000421   000001 736000                    QLS     1
         2 000422   200005 755106                    STA     ITEMLIST+1,QL,AUTO

   7138  2 000423   000011 235000 3                  LDA     9
         2 000424   200004 755106                    STA     ITEMLIST,QL,AUTO

   7141  2 000425   000000 054000 1                  AOS     XSC_ITEMCNT

     1875     7145    3                   END;

     1876     7146    3               IF XSC$ASSOCIATE.RAEID ~= 0 THEN DO;
PL6.E3A0      #009=XSC$ENCODE File=XSC$ACSE.:XSA1TSI                             WED 10/01/97 11:53 Page:373

   7146  2 000426   000001 471500                    LDP1    1,,PR0
         2 000427   100013 235100                    LDA     11,,PR1
         2 000430   000437 600000 2                  TZE     s:7240

     1877     7147                        %LOAD( LVL=2, TAG=C9, TYP=INTG,
     1878     7148                                LEN=4, VAL="XSC$ASSOCIATE.RAEID");
              7148                                    /* RespondingAEInvocationId */

   7201  2 000431   000000 236000 1                  LDQ     XSC_ITEMCNT
         2 000432   000001 736000                    QLS     1
         2 000433   200005 755106                    STA     ITEMLIST+1,QL,AUTO

   7232  2 000434   000006 235000 3                  LDA     6
         2 000435   200004 755106                    STA     ITEMLIST,QL,AUTO

   7235  2 000436   000000 054000 1                  AOS     XSC_ITEMCNT

     1879     7239    3                   END;

     1880     7240    2               TXTC$ = XSC$ASSOCIATE.IMPL$;

   7240  2 000437   000001 471500                    LDP1    1,,PR0
         2 000440   100014 236100                    LDQ     12,,PR1
         2 000441   200066 756100                    STQ     TXTC$,,AUTO

     1881     7241    3               IF TXTC$ ~= ADDR( NIL) THEN DO;

   7241  2 000442   000002 116000 3                  CMPQ    2
         2 000443   000461 600000 2                  TZE     s:7335

     1882     7242                        %LOAD( LVL=2, TAG=C29, IMP=Y, TYP=GRFSTR,
     1883     7243                                LEN="TXTC.LEN", VAL="TXTC.TXT");/*ImplementationData*/

   7324  2 000444   000000 235000 1                  LDA     XSC_ITEMCNT
         2 000445   000001 735000                    ALS     1
         2 000446   200000 036007                    ADLQ    65536,DL
PL6.E3A0      #009=XSC$ENCODE File=XSC$ACSE.:XSA1TSI                             WED 10/01/97 11:53 Page:374
         2 000447   200005 756105                    STQ     ITEMLIST+1,AL,AUTO

   7327  2 000450   200066 471500                    LDP1    TXTC$,,AUTO
         2 000451   000100 101500                    MRL     fill='000'O
         2 000452   100000 000001                    ADSC9   0,,PR1                   cn=0,n=1
         2 000453   200076 000004                    ADSC9   U36+2,,AUTO              cn=0,n=4
         2 000454   200076 236100                    LDQ     U36+2,,AUTO
         2 000455   000022 736000                    QLS     18
         2 000456   235712 036007                    ADLQ    80842,DL
         2 000457   200004 756105                    STQ     ITEMLIST,AL,AUTO

   7330  2 000460   000000 054000 1                  AOS     XSC_ITEMCNT

     1884     7334    3                   END;

     1885     7335    2               INFOLVL = 2;

   7335  2 000461   000002 235007                    LDA     2,DL
         2 000462   200061 755100                    STA     INFOLVL,,AUTO
         2 000463   000556 710000 2                  TRA     s:7920

     1886     7336        %EJECT;
PL6.E3A0      #009=XSC$ENCODE File=XSC$ACSE.:XSA1TSI                             WED 10/01/97 11:53 Page:375
     1887     7337        /*****************************************************************************
     1888     7338        *
     1889     7339        *       RLRQ
     1890     7340        *
     1891     7341        *****************************************************************************/
     1892     7342    2           CASE( %XSC_CEV_RLRQ);

     1893     7343                    %LOAD( LVL=1, TAG=A2, IMP=Y, TYP=SEQ);  /* RLRQApdu */

   7427  2 000464   000000 235000 1                  LDA     XSC_ITEMCNT
         2 000465   000001 735000                    ALS     1
         2 000466   142601 236007                    LDQ     50561,DL
         2 000467   200004 756105                    STQ     ITEMLIST,AL,AUTO

   7430  2 000470   000000 054000 1                  AOS     XSC_ITEMCNT

     1894     7434                    %LOAD( LVL=2, TAG=C0, IMP=Y, TYP=INTG,
     1895     7435                            LEN=1, VAL="XSC$RELEASE.REASON");  /* Reason */

   7488  2 000471   000000 235000 1                  LDA     XSC_ITEMCNT
         2 000472   000001 735000                    ALS     1
         2 000473   000001 471500                    LDP1    1,,PR0
         2 000474   100000 236100                    LDQ     0,,PR1
         2 000475   000011 772000                    QRL     9
         2 000476   000777 376007                    ANQ     511,DL
         2 000477   200005 756105                    STQ     ITEMLIST+1,AL,AUTO

   7519  2 000500   000012 236000 3                  LDQ     10
         2 000501   200004 756105                    STQ     ITEMLIST,AL,AUTO

   7522  2 000502   000000 054000 1                  AOS     XSC_ITEMCNT

     1896     7526    2               INFOLVL = 2;

   7526  2 000503   000002 235007                    LDA     2,DL
         2 000504   200061 755100                    STA     INFOLVL,,AUTO
         2 000505   000556 710000 2                  TRA     s:7920
PL6.E3A0      #009=XSC$ENCODE File=XSC$ACSE.:XSA1TSI                             WED 10/01/97 11:53 Page:376

     1897     7527        %EJECT;
PL6.E3A0      #009=XSC$ENCODE File=XSC$ACSE.:XSA1TSI                             WED 10/01/97 11:53 Page:377
     1898     7528        /*****************************************************************************
     1899     7529        *
     1900     7530        *       RLRE+ and RLRE-
     1901     7531        *
     1902     7532        *****************************************************************************/
     1903     7533    2           CASE( %XSC_CEV_RLREP,

     1904     7534    2                 %XSC_CEV_RLREN);
     1905     7535                    %LOAD( LVL=1, TAG=A3, IMP=Y, TYP=SEQ);  /* RLREApdu */

   7619  2 000506   000000 235000 1                  LDA     XSC_ITEMCNT
         2 000507   000001 735000                    ALS     1
         2 000510   143601 236007                    LDQ     51073,DL
         2 000511   200004 756105                    STQ     ITEMLIST,AL,AUTO

   7622  2 000512   000000 054000 1                  AOS     XSC_ITEMCNT

     1906     7626                    %LOAD( LVL=2, TAG=C0, IMP=Y, TYP=INTG,
     1907     7627                            LEN=1, VAL="XSC$RELEASE.REASON");  /* Reason */

   7680  2 000513   000000 235000 1                  LDA     XSC_ITEMCNT
         2 000514   000001 735000                    ALS     1
         2 000515   000001 471500                    LDP1    1,,PR0
         2 000516   100000 236100                    LDQ     0,,PR1
         2 000517   000011 772000                    QRL     9
         2 000520   000777 376007                    ANQ     511,DL
         2 000521   200005 756105                    STQ     ITEMLIST+1,AL,AUTO

   7711  2 000522   000012 236000 3                  LDQ     10
         2 000523   200004 756105                    STQ     ITEMLIST,AL,AUTO

   7714  2 000524   000000 054000 1                  AOS     XSC_ITEMCNT

     1908     7718    2               INFOLVL = 2;

   7718  2 000525   000002 235007                    LDA     2,DL
         2 000526   200061 755100                    STA     INFOLVL,,AUTO
PL6.E3A0      #009=XSC$ENCODE File=XSC$ACSE.:XSA1TSI                             WED 10/01/97 11:53 Page:378
         2 000527   000556 710000 2                  TRA     s:7920

     1909     7719        %EJECT;
PL6.E3A0      #009=XSC$ENCODE File=XSC$ACSE.:XSA1TSI                             WED 10/01/97 11:53 Page:379
     1910     7720        /*****************************************************************************
     1911     7721        *
     1912     7722        *       ABRT
     1913     7723        *
     1914     7724        *****************************************************************************/
     1915     7725    2           CASE( %XSC_CEV_ABRT);

     1916     7726                    %LOAD( LVL=1, TAG=A4, IMP=Y, TYP=SEQ);  /* ABRTApdu */

   7810  2 000530   000000 235000 1                  LDA     XSC_ITEMCNT
         2 000531   000001 735000                    ALS     1
         2 000532   144601 236007                    LDQ     51585,DL
         2 000533   200004 756105                    STQ     ITEMLIST,AL,AUTO

   7813  2 000534   000000 054000 1                  AOS     XSC_ITEMCNT

     1917     7817                    %LOAD( LVL=2, TAG=C0, IMP=Y, TYP=INTG,
     1918     7818                            LEN=1, VAL="XSC$U_ABORT.ABRTSRC");  /* AbortSource */

   7871  2 000535   000000 235000 1                  LDA     XSC_ITEMCNT
         2 000536   000001 735000                    ALS     1
         2 000537   000001 471500                    LDP1    1,,PR0
         2 000540   100000 236100                    LDQ     0,,PR1
         2 000541   000011 772000                    QRL     9
         2 000542   000777 376007                    ANQ     511,DL
         2 000543   200005 756105                    STQ     ITEMLIST+1,AL,AUTO

   7902  2 000544   000012 236000 3                  LDQ     10
         2 000545   200004 756105                    STQ     ITEMLIST,AL,AUTO

   7905  2 000546   000000 054000 1                  AOS     XSC_ITEMCNT

     1919     7909    2               INFOLVL = 2;

   7909  2 000547   000002 235007                    LDA     2,DL
         2 000550   200061 755100                    STA     INFOLVL,,AUTO
         2 000551   000556 710000 2                  TRA     s:7920
PL6.E3A0      #009=XSC$ENCODE File=XSC$ACSE.:XSA1TSI                             WED 10/01/97 11:53 Page:380

     1920     7910        /*****************************************************************************
     1921     7911        *
     1922     7912        *       Illegal VBLK.EVENT
     1923     7913        *
     1924     7914        *****************************************************************************/
     1925     7915    2           CASE( ELSE);

     1926     7916    2               CALL XSS$SCREECH( XSC_F$ENCODE);

   7916  2 000552   000014 630400 3                  EPPR0   12
         2 000553   000013 631400 3                  EPPR1   11
         2 000554   000000 701000 xent               TSX1    XSS$SCREECH
         2 000555   000000 011000                    NOP     0

     1927     7917    2           END;

     1928     7918        %EJECT;
PL6.E3A0      #009=XSC$ENCODE File=XSC$ACSE.:XSA1TSI                             WED 10/01/97 11:53 Page:381
     1929     7919            /* handle UserInformation if present */
     1930     7920    2       IF INFOLVL > 0 AND VBLK.DATA.SIZE > 0 THEN DO;

   7920  2 000556   200061 235100                    LDA     INFOLVL,,AUTO
         2 000557   000617 604400 2                  TMOZ    s:8112
         2 000560   200003 470500                    LDP0    @VBLK,,AUTO
         2 000561   000005 235100                    LDA     5,,PR0
         2 000562   000617 604400 2                  TMOZ    s:8112

     1931     7921                %LOAD( LVL=INFOLVL, TAG=C30, IMP=Y, TYP=SEQOF);  /* UserInformation */

   8005  2 000563   000000 236000 1                  LDQ     XSC_ITEMCNT
         2 000564   000001 736000                    QLS     1
         2 000565   200061 235100                    LDA     INFOLVL,,AUTO
         2 000566   276560 035007                    ADLA    97648,DL
         2 000567   200004 755106                    STA     ITEMLIST,QL,AUTO

   8008  2 000570   000000 054000 1                  AOS     XSC_ITEMCNT

     1932     8012    2           INFOLVL = INFOLVL + 1;

   8012  2 000571   200061 054100                    AOS     INFOLVL,,AUTO

     1933     8013    2           AFPT$ = XSC$GENERIC.DATA$;

   8013  2 000572   000001 471500                    LDP1    1,,PR0
         2 000573   100002 236100                    LDQ     2,,PR1
         2 000574   200056 756100                    STQ     AFPT$,,AUTO

     1934     8014    3           DO WHILE( AFPT$ ~= ADDR( NIL));

   8014  2 000575   000613 710000 2                  TRA     s:8108

     1935     8015                    %LOAD( LVL=INFOLVL, TYP=EXTRN,
     1936     8016                            LEN="AFPT.NXTX", VAL="AFPT.BUF$->TEXT");

   8097  2 000576   000000 235000 1                  LDA     XSC_ITEMCNT
PL6.E3A0      #009=XSC$ENCODE File=XSC$ACSE.:XSA1TSI                             WED 10/01/97 11:53 Page:382
         2 000577   000001 735000                    ALS     1
         2 000600   200056 470500                    LDP0    AFPT$,,AUTO
         2 000601   000001 471500                    LDP1    1,,PR0
         2 000602   200005 451505                    STP1    ITEMLIST+1,AL,AUTO

   8100  2 000603   000014 236100                    LDQ     12,,PR0
         2 000604   000022 736000                    QLS     18
         2 000605   200061 036100                    ADLQ    INFOLVL,,AUTO
         2 000606   010100 036007                    ADLQ    4160,DL
         2 000607   200004 756105                    STQ     ITEMLIST,AL,AUTO

   8103  2 000610   000000 054000 1                  AOS     XSC_ITEMCNT

     1937     8107    3               AFPT$ = AFPT.LINK$;

   8107  2 000611   000004 236100                    LDQ     4,,PR0
         2 000612   200056 756100                    STQ     AFPT$,,AUTO

     1938     8108    3               END;

   8108  2 000613   000002 116000 3                  CMPQ    2
         2 000614   000576 601000 2                  TNZ     s:8097

     1939     8109    2           INFOLVL = INFOLVL - 1;

   8109  2 000615   000001 336007                    LCQ     1,DL
         2 000616   200061 056100                    ASQ     INFOLVL,,AUTO

     1940     8110    2           END;

     1941     8111            /* Now, fix up the itemlist and build the PDU */
     1942     8112    1       CALL FIXITEMS;

   8112  2 000617   000670 701000 2                  TSX1    FIXITEMS
         2 000620   000000 011000                    NOP     0

     1943     8113    1       TEMP = ITEMLIST.X.LEN(0);  /* total length required for APDU */
PL6.E3A0      #009=XSC$ENCODE File=XSC$ACSE.:XSA1TSI                             WED 10/01/97 11:53 Page:383

   8113  2 000621   200004 235100                    LDA     ITEMLIST,,AUTO
         2 000622   000022 771000                    ARL     18
         2 000623   200065 755100                    STA     TEMP,,AUTO

     1944     8114    1       CALL XSS$GETMEM( PDUX, PDUBUF$, TEMP) ALTRET( OOPS);

   8114  2 000624   200065 630500                    EPPR0   TEMP,,AUTO
         2 000625   200100 450500                    STP0    U36+4,,AUTO
         2 000626   200062 631500                    EPPR1   PDUBUF$,,AUTO
         2 000627   200077 451500                    STP1    U36+3,,AUTO
         2 000630   200064 633500                    EPPR3   PDUX,,AUTO
         2 000631   200076 453500                    STP3    U36+2,,AUTO
         2 000632   200076 630500                    EPPR0   U36+2,,AUTO
         2 000633   000015 631400 3                  EPPR1   13
         2 000634   000000 701000 xent               TSX1    XSS$GETMEM
         2 000635   000660 702000 2                  TSX2    OOPS

     1945     8115    1       CALL BUILDPDU;

   8115  2 000636   001113 701000 2                  TSX1    BUILDPDU
         2 000637   000000 011000                    NOP     0

     1946     8116            /* Send the constructed PDU on to Presentation */
     1947     8117    1       VBLK.PDU.SIZE = PDUIDX;

   8117  2 000640   200003 470500                    LDP0    @VBLK,,AUTO
         2 000641   200063 235100                    LDA     PDUIDX,,AUTO
         2 000642   000003 755100                    STA     3,,PR0

     1948     8118    1       VBLK.PDU.PTR$ = PDUBUF$;

   8118  2 000643   200062 236100                    LDQ     PDUBUF$,,AUTO
         2 000644   000002 756100                    STQ     2,,PR0

     1949     8119    1       CALL XSC$PSEND( VBLK)

PL6.E3A0      #009=XSC$ENCODE File=XSC$ACSE.:XSA1TSI                             WED 10/01/97 11:53 Page:384
   8119  2 000645   200003 630500                    EPPR0   @VBLK,,AUTO
         2 000646   000013 631400 3                  EPPR1   11
         2 000647   000000 701000 xent               TSX1    XSC$PSEND
         2 000650   000652 702000 2                  TSX2    s:8121
         2 000651   000661 710000 2                  TRA     s:8125

     1950     8120    2       WHENALTRETURN DO;

     1951     8121    2           CALL XSS$RELMEM( PDUX);

   8121  2 000652   200064 630500                    EPPR0   PDUX,,AUTO
         2 000653   200076 450500                    STP0    U36+2,,AUTO
         2 000654   200076 630500                    EPPR0   U36+2,,AUTO
         2 000655   000013 631400 3                  EPPR1   11
         2 000656   000000 701000 xent               TSX1    XSS$RELMEM
         2 000657   000000 011000                    NOP     0

     1952     8122    2   OOPS:
     1953     8123    2           ALTRETURN;

   8123  2 000660   000000 702200 xent  OOPS         TSX2  ! X66_AALT

     1954     8124    2           END;
     1955     8125    1       CALL XSS$RELMEM( PDUX);

   8125  2 000661   200064 630500                    EPPR0   PDUX,,AUTO
         2 000662   200076 450500                    STP0    U36+2,,AUTO
         2 000663   200076 630500                    EPPR0   U36+2,,AUTO
         2 000664   000013 631400 3                  EPPR1   11
         2 000665   000000 701000 xent               TSX1    XSS$RELMEM
         2 000666   000000 011000                    NOP     0

     1956     8126    1       RETURN;

   8126  2 000667   000000 702200 xent               TSX2  ! X66_ARET

     1957     8127        %EJECT;
PL6.E3A0      #009=XSC$ENCODE File=XSC$ACSE.:XSA1TSI                             WED 10/01/97 11:53 Page:385
     1958     8128        /*I*    NAME:   FIXITEMS
     1959     8129
     1960     8130                FIXITEMS is called to fix the itemlist.  'Fix'ing means trundling
     1961     8131                through the list figuring out the lengths of all constructor items
     1962     8132                now that we know how big each primitive item is.
     1963     8133        */
     1964     8134    1   FIXITEMS: PROC;

   8134  2 000670   200070 741300       FIXITEMS     STX1  ! TXTC$+2,,AUTO

     1965     8135
     1966     8136    2       DCL I SBIN;
     1967     8137    2       DCL J SBIN;
     1968     8138    2       DCL LEN SBIN;
     1969     8139    2       DCL LVL SBIN;
     1970     8140    2       DCL TMP REDEF LVL SBIN;
     1971     8141    2       DCL UTMP REDEF LVL UBIN;
     1972     8142
     1973     8143    3       DO I = XSC_ITEMCNT - 1 DOWNTO 1;

   8143  2 000671   000000 235000 1                  LDA     XSC_ITEMCNT
         2 000672   000001 135007                    SBLA    1,DL
         2 000673   200071 755100                    STA     I,,AUTO
         2 000674   001107 710000 2                  TRA     s:8189+2

     1974     8144    3           IF ITEMLIST.X.TAG( I) = 0 THEN

   8144  2 000675   200071 235100                    LDA     I,,AUTO
         2 000676   000001 735000                    ALS     1
         2 000677   200004 236105                    LDQ     ITEMLIST,AL,AUTO
         2 000700   377000 316007                    CANQ    130560,DL
         2 000701   000707 601000 2                  TNZ     s:8146

     1975     8145    3               ITEMLIST.X.TAG( I) = ITEMLIST.X.TYP( I);

   8145  2 000702   000370 376007                    ANQ     248,DL
         2 000703   000006 736000                    QLS     6
PL6.E3A0      #009=XSC$ENCODE File=XSC$ACSE.:XSA1TSI                             WED 10/01/97 11:53 Page:386
         2 000704   200004 676105                    ERQ     ITEMLIST,AL,AUTO
         2 000705   377000 376007                    ANQ     130560,DL
         2 000706   200004 656105                    ERSQ    ITEMLIST,AL,AUTO

     1976     8146    4           DO CASE( ITEMLIST.X.TYP( I));

   8146  2 000707   200004 236105                    LDQ     ITEMLIST,AL,AUTO
         2 000710   000003 772000                    QRL     3
         2 000711   000037 376007                    ANQ     31,DL
         2 000712   000031 116007                    CMPQ    25,DL
         2 000713   000715 602006 2                  TNC     s:8146+6,QL
         2 000714   001013 710000 2                  TRA     s:8164
         2 000715   001020 710000 2                  TRA     s:8167
         2 000716   001020 710000 2                  TRA     s:8167
         2 000717   001020 710000 2                  TRA     s:8167
         2 000720   000746 710000 2                  TRA     s:8149
         2 000721   001013 710000 2                  TRA     s:8164
         2 000722   001020 710000 2                  TRA     s:8167
         2 000723   001020 710000 2                  TRA     s:8167
         2 000724   001020 710000 2                  TRA     s:8167
         2 000725   001013 710000 2                  TRA     s:8164
         2 000726   001013 710000 2                  TRA     s:8164
         2 000727   001013 710000 2                  TRA     s:8164
         2 000730   001013 710000 2                  TRA     s:8164
         2 000731   001013 710000 2                  TRA     s:8164
         2 000732   001020 710000 2                  TRA     s:8167
         2 000733   001020 710000 2                  TRA     s:8167
         2 000734   001020 710000 2                  TRA     s:8167
         2 000735   001020 710000 2                  TRA     s:8167
         2 000736   001020 710000 2                  TRA     s:8167
         2 000737   001013 710000 2                  TRA     s:8164
         2 000740   001013 710000 2                  TRA     s:8164
         2 000741   001013 710000 2                  TRA     s:8164
         2 000742   001013 710000 2                  TRA     s:8164
         2 000743   001013 710000 2                  TRA     s:8164
         2 000744   001020 710000 2                  TRA     s:8167
         2 000745   001020 710000 2                  TRA     s:8167
PL6.E3A0      #009=XSC$ENCODE File=XSC$ACSE.:XSA1TSI                             WED 10/01/97 11:53 Page:387

     1977     8147    4               CASE( %XSC_TYP_BITSTR);

     1978     8148                        /* Have to convert bitstring lengths to bytelength + slack */
     1979     8149    4                   TMP = ITEMLIST.X.LEN( I);

   8149  2 000746   200004 236105                    LDQ     ITEMLIST,AL,AUTO
         2 000747   000022 772000                    QRL     18
         2 000750   200074 756100                    STQ     LVL,,AUTO

     1980     8150    4                   IF TMP > 24 THEN

   8150  2 000751   000030 116007                    CMPQ    24,DL
         2 000752   000755 604400 2                  TMOZ    s:8152

     1981     8151    4                       TMP = 24;  /* can't hold more than 24 bits in U */

   8151  2 000753   000030 235007                    LDA     24,DL
         2 000754   200074 755100                    STA     LVL,,AUTO

     1982     8152    4                   ITEMLIST.X.LEN( I) = ( TMP + 15) / 8;  /* new bytelength */

   8152  2 000755   200071 235100                    LDA     I,,AUTO
         2 000756   000001 735000                    ALS     1
         2 000757   200074 236100                    LDQ     LVL,,AUTO
         2 000760   000017 036007                    ADLQ    15,DL
         2 000761   000000 620005                    EAX0    0,AL
         2 000762   000010 506007                    DIV     8,DL
         2 000763   000000 621006                    EAX1    0,QL
         2 000764   200004 741110                    STX1    ITEMLIST,X0,AUTO

     1983     8153    4                   UTMP = BITBIN( '007'O & BINBIT( 8-MOD( TMP, 8), 9)); /*slack*/

   8153  2 000765   200074 236100                    LDQ     LVL,,AUTO
         2 000766   000010 506007                    DIV     8,DL
         2 000767   000044 733000                    LRS     36
         2 000770   000016 676000 3                  ERQ     14
PL6.E3A0      #009=XSC$ENCODE File=XSC$ACSE.:XSA1TSI                             WED 10/01/97 11:53 Page:388
         2 000771   000011 036007                    ADLQ    9,DL
         2 000772   000033 736000                    QLS     27
         2 000773   000022 772000                    QRL     18
         2 000774   000000 620006                    EAX0    0,QL
         2 000775   007000 360003                    ANX0    3584,DU
         2 000776   000000 636010                    EAQ     0,X0
         2 000777   000033 772000                    QRL     27
         2 001000   200074 756100                    STQ     LVL,,AUTO

     1984     8154    4                   ITEMLIST.U( I) = UTMP*268435456 + ITEMLIST.U( I)/256;

   8154  2 001001   200071 235100                    LDA     I,,AUTO
         2 001002   000001 735000                    ALS     1
         2 001003   200005 236105                    LDQ     ITEMLIST+1,AL,AUTO
         2 001004   000010 772000                    QRL     8
         2 001005   200076 756100                    STQ     U36+2,,AUTO
         2 001006   200074 236100                    LDQ     LVL,,AUTO
         2 001007   000034 736000                    QLS     28
         2 001010   200076 036100                    ADLQ    U36+2,,AUTO
         2 001011   200005 756105                    STQ     ITEMLIST+1,AL,AUTO
         2 001012   001020 710000 2                  TRA     s:8167

     1985     8155                        /* U now has slack in highest 8 bits, followed by value */
     1986     8156    4               CASE( %XSC_TYP_NONE, %XSC_TYP_BOOL, %XSC_TYP_INTG,

     1987     8157    4                     %XSC_TYP_NULL, %XSC_TYP_SEQ, %XSC_TYP_SET,
     1988     8158    4                     %XSC_TYP_UTCTIM, %XSC_TYP_GENTIM, %XSC_TYP_CHOICE,
     1989     8159    4                     %XSC_TYP_SEQOF, %XSC_TYP_SETOF);
     1990     8160                        /* do nothing */
     1991     8161    4               CASE( %XSC_TYP_OBJID, %XSC_TYP_OBJDSCR);

     1992     8162    4                   ;  /*N* figure out final length by test-encoding */
     1993     8163    4               CASE( ELSE);

     1994     8164    4                   IF ITEMLIST.P( I) = ADDR( NIL) THEN

   8164  2 001013   200005 236105                    LDQ     ITEMLIST+1,AL,AUTO
PL6.E3A0      #009=XSC$ENCODE File=XSC$ACSE.:XSA1TSI                             WED 10/01/97 11:53 Page:389
         2 001014   000002 116000 3                  CMPQ    2
         2 001015   001020 601000 2                  TNZ     s:8167

     1995     8165    4                       ITEMLIST.X.LEN( I) = 0;  /* don't address NIL segment */

   8165  2 001016   000000 220003                    LDX0    0,DU
         2 001017   200004 740105                    STX0    ITEMLIST,AL,AUTO

     1996     8166    4               END;

     1997     8167    3           LEN = 1;  /* 1 byte to represent length */

   8167  2 001020   000001 236007                    LDQ     1,DL
         2 001021   200073 756100                    STQ     LEN,,AUTO

     1998     8168    3           TMP = ITEMLIST.X.LEN( I);

   8168  2 001022   200004 236105                    LDQ     ITEMLIST,AL,AUTO
         2 001023   000022 772000                    QRL     18
         2 001024   200074 756100                    STQ     LVL,,AUTO

     1999     8169    3           IF TMP > 127 THEN

   8169  2 001025   000177 116007                    CMPQ    127,DL
         2 001026   001037 604400 2                  TMOZ    s:8175

     2000     8170    4               DO WHILE( TMP > 0);

   8170  2 001027   000000 116003                    CMPQ    0,DU
         2 001030   001037 604400 2                  TMOZ    s:8175

     2001     8171    4                   LEN = LEN + 1;  /* add another byte to represent length */

   8171  2 001031   200073 054100                    AOS     LEN,,AUTO

     2002     8172    4                   TMP = TMP / 256;  /* keep going to find length of length */

PL6.E3A0      #009=XSC$ENCODE File=XSC$ACSE.:XSA1TSI                             WED 10/01/97 11:53 Page:390
   8172  2 001032   200074 236100                    LDQ     LVL,,AUTO
         2 001033   000400 506007                    DIV     256,DL
         2 001034   200074 756100                    STQ     LVL,,AUTO

     2003     8173    4                   END;

   8173  2 001035   000000 116003                    CMPQ    0,DU
         2 001036   001031 605400 2                  TPNZ    s:8171

     2004     8174                /* now add length of item itself */
     2005     8175    3           LEN = LEN + ITEMLIST.X.LEN( I);

   8175  2 001037   200071 235100                    LDA     I,,AUTO
         2 001040   000001 735000                    ALS     1
         2 001041   200004 236105                    LDQ     ITEMLIST,AL,AUTO
         2 001042   000022 772000                    QRL     18
         2 001043   200073 036100                    ADLQ    LEN,,AUTO
         2 001044   200073 756100                    STQ     LEN,,AUTO

     2006     8176                /* add length of tag if a tag will be encoded */
     2007     8177    3           IF ITEMLIST.X.TAG( I) ~= %XSC_TYP_NONE OR

   8177  2 001045   200004 236105                    LDQ     ITEMLIST,AL,AUTO
         2 001046   377000 316007                    CANQ    130560,DL
         2 001047   001054 601000 2                  TNZ     s:8180
         2 001050   000370 316007                    CANQ    248,DL
         2 001051   001055 600000 2                  TZE     s:8181
         2 001052   000400 316007                    CANQ    256,DL
         2 001053   001055 601000 2                  TNZ     s:8181

     2008     8178    3                   ( ITEMLIST.X.TYP( I) ~= %XSC_TYP_NONE AND
     2009     8179    3                   ITEMLIST.X.IMP( I) = 0) THEN
     2010     8180    3               LEN = LEN + 1;  /* assume all tags 1 byte long... */

   8180  2 001054   200073 054100                    AOS     LEN,,AUTO

     2011     8181    3           LVL = ITEMLIST.X.LVL( I) - 1;
PL6.E3A0      #009=XSC$ENCODE File=XSC$ACSE.:XSA1TSI                             WED 10/01/97 11:53 Page:391

   8181  2 001055   200004 236105                    LDQ     ITEMLIST,AL,AUTO
         2 001056   000007 376007                    ANQ     7,DL
         2 001057   000001 136007                    SBLQ    1,DL
         2 001060   200074 756100                    STQ     LVL,,AUTO

     2012     8182    3   INCRLOOP:
     2013     8183    4           DO J = I - 1 DOWNTO 0;

   8183  2 001061   200071 235100       INCRLOOP     LDA     I,,AUTO
         2 001062   000001 135007                    SBLA    1,DL
         2 001063   200072 755100                    STA     J,,AUTO
         2 001064   001103 710000 2                  TRA     s:8188+2

     2014     8184    5               IF LVL = ITEMLIST.X.LVL( J) THEN DO;

   8184  2 001065   200072 235100                    LDA     J,,AUTO
         2 001066   000001 735000                    ALS     1
         2 001067   200004 236105                    LDQ     ITEMLIST,AL,AUTO
         2 001070   000007 376007                    ANQ     7,DL
         2 001071   200074 116100                    CMPQ    LVL,,AUTO
         2 001072   001101 601000 2                  TNZ     s:8188

     2015     8185    5                   ITEMLIST.X.LEN( J) = LEN + ITEMLIST.X.LEN( J);

   8185  2 001073   200004 236105                    LDQ     ITEMLIST,AL,AUTO
         2 001074   000022 772000                    QRL     18
         2 001075   200073 036100                    ADLQ    LEN,,AUTO
         2 001076   000000 620006                    EAX0    0,QL
         2 001077   200004 740105                    STX0    ITEMLIST,AL,AUTO

     2016     8186    5                   EXIT INCRLOOP;

   8186  2 001100   001105 710000 2                  TRA     s:8189

     2017     8187    5                   END;
     2018     8188    4               END;
PL6.E3A0      #009=XSC$ENCODE File=XSC$ACSE.:XSA1TSI                             WED 10/01/97 11:53 Page:392

   8188  2 001101   000001 336007                    LCQ     1,DL
         2 001102   200072 056100                    ASQ     J,,AUTO
         2 001103   200072 235100                    LDA     J,,AUTO
         2 001104   001065 605000 2                  TPL     s:8184

     2019     8189    3           END;

   8189  2 001105   000001 336007                    LCQ     1,DL
         2 001106   200071 056100                    ASQ     I,,AUTO
         2 001107   200071 235100                    LDA     I,,AUTO
         2 001110   000675 605400 2                  TPNZ    s:8144

     2020     8190    2       RETURN;

   8190  2 001111   200070 221300                    LDX1  ! TXTC$+2,,AUTO
         2 001112   000001 702211                    TSX2  ! 1,X1

     2021     8191
     2022     8192    2       END FIXITEMS;
     2023     8193        %EJECT;
PL6.E3A0      #009=XSC$ENCODE File=XSC$ACSE.:XSA1TSI                             WED 10/01/97 11:53 Page:393
     2024     8194        /*I*    NAME:   BUILDPDU
     2025     8195
     2026     8196                BUILDPDU is called to actually construct the PPDU from the itemlist.
     2027     8197        */
     2028     8198    1   BUILDPDU: PROC;

   8198  2 001113   200070 741300       BUILDPDU     STX1  ! TXTC$+2,,AUTO

     2029     8199
     2030     8200    2       DCL BYTES CHAR( LEN) BASED;
     2031     8201    2       DCL I SBIN;
     2032     8202    2       DCL LEN SBIN;
     2033     8203    2       DCL TMP SBIN;
     2034     8204    2       DCL U36(0:1) UBIN;
     2035     8205    2       DCL U8(0:8) REDEF U36 UBIN(8) UNAL;
     2036     8206        %MACRO STORBYTE( BYT=0);
     2037     8207            CALL INSERT( PDUBUF$->TEXT, PDUIDX, 1, BINASC( BYT));
     2038     8208            PDUIDX = PDUIDX + 1;
     2039     8209        %MEND;
     2040     8210
     2041     8211    2       PDUIDX = 0;

   8211  2 001114   200063 450100                    STZ     PDUIDX,,AUTO

     2042     8212    2       XSC_ITEMCNT = XSC_ITEMCNT - 1;

   8212  2 001115   000001 336007                    LCQ     1,DL
         2 001116   000000 056000 1                  ASQ     XSC_ITEMCNT

     2043     8213            /* Construct each item of the itemlist in turn.  Item 0 not used. */
     2044     8214    3       DO I = 1 TO XSC_ITEMCNT;

   8214  2 001117   000001 235007                    LDA     1,DL
         2 001120   200071 755100                    STA     I,,AUTO
         2 001121   001424 710000 2                  TRA     NEXTITEM+1

     2045     8215                /* Move the TAG field into the PDU buffer */
PL6.E3A0      #009=XSC$ENCODE File=XSC$ACSE.:XSA1TSI                             WED 10/01/97 11:53 Page:394
     2046     8216                %STORBYTE( BYT="ITEMLIST.X.TAG( I)");

   8217  2 001122   200071 235100                    LDA     I,,AUTO
         2 001123   000001 735000                    ALS     1
         2 001124   200004 236105                    LDQ     ITEMLIST,AL,AUTO
         2 001125   000011 772000                    QRL     9
         2 001126   000377 376007                    ANQ     255,DL
         2 001127   000033 736000                    QLS     27
         2 001130   000017 276000 3                  ORQ     15
         2 001131   200076 756100                    STQ     U36+2,,AUTO
         2 001132   200062 470500                    LDP0    PDUBUF$,,AUTO
         2 001133   200063 235100                    LDA     PDUIDX,,AUTO
         2 001134   040105 100500                    MLR     fill='040'O
         2 001135   200076 000004                    ADSC9   U36+2,,AUTO              cn=0,n=4
         2 001136   000000 000001                    ADSC9   0,A,PR0                  cn=0,n=1

   8218  2 001137   200063 054100                    AOS     PDUIDX,,AUTO

     2047     8220                /* Move the length into the PDU buffer */
     2048     8221    3           TMP = ITEMLIST.X.LEN( I);

   8221  2 001140   200071 235100                    LDA     I,,AUTO
         2 001141   000001 735000                    ALS     1
         2 001142   200004 236105                    LDQ     ITEMLIST,AL,AUTO
         2 001143   000022 772000                    QRL     18
         2 001144   200073 756100                    STQ     TMP,,AUTO

     2049     8222    4           IF TMP > 127 THEN DO;

   8222  2 001145   000177 116007                    CMPQ    127,DL
         2 001146   001212 604400 2                  TMOZ    s:8238

     2050     8223    4               LEN = 0;

   8223  2 001147   200072 450100                    STZ     LEN,,AUTO

     2051     8224    5               DO WHILE( TMP > 0);
PL6.E3A0      #009=XSC$ENCODE File=XSC$ACSE.:XSA1TSI                             WED 10/01/97 11:53 Page:395

   8224  2 001150   000000 116003                    CMPQ    0,DU
         2 001151   001160 604400 2                  TMOZ    s:8229

     2052     8225    5                   LEN = LEN + 1;

   8225  2 001152   200072 054100                    AOS     LEN,,AUTO

     2053     8226    5                   TMP = TMP / 256;

   8226  2 001153   200073 236100                    LDQ     TMP,,AUTO
         2 001154   000400 506007                    DIV     256,DL
         2 001155   200073 756100                    STQ     TMP,,AUTO

     2054     8227    5                   END;

   8227  2 001156   000000 116003                    CMPQ    0,DU
         2 001157   001152 605400 2                  TPNZ    s:8225

     2055     8228                    %STORBYTE( BYT="LEN+128");

   8229  2 001160   200072 236100                    LDQ     LEN,,AUTO
         2 001161   000200 036007                    ADLQ    128,DL
         2 001162   000033 736000                    QLS     27
         2 001163   000017 276000 3                  ORQ     15
         2 001164   200076 756100                    STQ     U36+2,,AUTO
         2 001165   200062 470500                    LDP0    PDUBUF$,,AUTO
         2 001166   200063 235100                    LDA     PDUIDX,,AUTO
         2 001167   040105 100500                    MLR     fill='040'O
         2 001170   200076 000004                    ADSC9   U36+2,,AUTO              cn=0,n=4
         2 001171   000000 000001                    ADSC9   0,A,PR0                  cn=0,n=1

   8230  2 001172   200063 054100                    AOS     PDUIDX,,AUTO

     2056     8232    4               CALL INSERT( PDUBUF$->TEXT, PDUIDX, LEN,

   8232  2 001173   200071 336100                    LCQ     I,,AUTO
PL6.E3A0      #009=XSC$ENCODE File=XSC$ACSE.:XSA1TSI                             WED 10/01/97 11:53 Page:396
         2 001174   000003 736000                    QLS     3
         2 001175   200072 036100                    ADLQ    LEN,,AUTO
         2 001176   000016 676000 3                  ERQ     14
         2 001177   000001 036007                    ADLQ    1,DL
         2 001200   200072 720100                    LXL0    LEN,,AUTO
         2 001201   200062 470500                    LDP0    PDUBUF$,,AUTO
         2 001202   200063 235100                    LDA     PDUIDX,,AUTO
         2 001203   040145 100546                    MLR     fill='040'O
         2 001204   200005 000010                    ADSC9   ITEMLIST+1,Q,AUTO        cn=0,n=*X0
         2 001205   000000 000010                    ADSC9   0,A,PR0                  cn=0,n=*X0

     2057     8233    4                       PINCRC( ADDR( ITEMLIST.X.LEN( I)), 4 - LEN)->BYTES);
     2058     8234    4               PDUIDX = PDUIDX + LEN;

   8234  2 001206   200063 236100                    LDQ     PDUIDX,,AUTO
         2 001207   200072 036100                    ADLQ    LEN,,AUTO
         2 001210   200063 756100                    STQ     PDUIDX,,AUTO

     2059     8235    4               END;

   8235  2 001211   001223 710000 2                  TRA     s:8244

     2060     8236    4           ELSE DO;

     2061     8237                    %STORBYTE( BYT="TMP");

   8238  2 001212   000033 736000                    QLS     27
         2 001213   000017 276000 3                  ORQ     15
         2 001214   200076 756100                    STQ     U36+2,,AUTO
         2 001215   200062 470500                    LDP0    PDUBUF$,,AUTO
         2 001216   200063 235100                    LDA     PDUIDX,,AUTO
         2 001217   040105 100500                    MLR     fill='040'O
         2 001220   200076 000004                    ADSC9   U36+2,,AUTO              cn=0,n=4
         2 001221   000000 000001                    ADSC9   0,A,PR0                  cn=0,n=1

   8239  2 001222   200063 054100                    AOS     PDUIDX,,AUTO

PL6.E3A0      #009=XSC$ENCODE File=XSC$ACSE.:XSA1TSI                             WED 10/01/97 11:53 Page:397
     2062     8241    4               END;

     2063     8242    3           ;  /*N* handle case where TYP~=TAG and not IMP */
     2064     8243                /* And finally.... move the value itself into the PDU buffer */
     2065     8244    3           LEN = ITEMLIST.X.LEN( I);

   8244  2 001223   200071 235100                    LDA     I,,AUTO
         2 001224   000001 735000                    ALS     1
         2 001225   200004 236105                    LDQ     ITEMLIST,AL,AUTO
         2 001226   000022 772000                    QRL     18
         2 001227   200072 756100                    STQ     LEN,,AUTO

     2066     8245    4           DO CASE( ITEMLIST.X.TYP( I));

   8245  2 001230   200004 236105                    LDQ     ITEMLIST,AL,AUTO
         2 001231   000003 772000                    QRL     3
         2 001232   000037 376007                    ANQ     31,DL
         2 001233   000031 116007                    CMPQ    25,DL
         2 001234   001236 602006 2                  TNC     s:8245+6,QL
         2 001235   001404 710000 2                  TRA     COMMON
         2 001236   001267 710000 2                  TRA     s:8251
         2 001237   001271 710000 2                  TRA     s:8253
         2 001240   001311 710000 2                  TRA     s:8266
         2 001241   001343 710000 2                  TRA     s:8277
         2 001242   001404 710000 2                  TRA     COMMON
         2 001243   001267 710000 2                  TRA     s:8251
         2 001244   001401 710000 2                  TRA     s:8292
         2 001245   001401 710000 2                  TRA     s:8292
         2 001246   001404 710000 2                  TRA     COMMON
         2 001247   001404 710000 2                  TRA     COMMON
         2 001250   001404 710000 2                  TRA     COMMON
         2 001251   001404 710000 2                  TRA     COMMON
         2 001252   001404 710000 2                  TRA     COMMON
         2 001253   001267 710000 2                  TRA     s:8251
         2 001254   001267 710000 2                  TRA     s:8251
         2 001255   001267 710000 2                  TRA     s:8251
         2 001256   001267 710000 2                  TRA     s:8251
PL6.E3A0      #009=XSC$ENCODE File=XSC$ACSE.:XSA1TSI                             WED 10/01/97 11:53 Page:398
         2 001257   001267 710000 2                  TRA     s:8251
         2 001260   001404 710000 2                  TRA     COMMON
         2 001261   001404 710000 2                  TRA     COMMON
         2 001262   001404 710000 2                  TRA     COMMON
         2 001263   001404 710000 2                  TRA     COMMON
         2 001264   001404 710000 2                  TRA     COMMON
         2 001265   001402 710000 2                  TRA     s:8295
         2 001266   001402 710000 2                  TRA     s:8295

     2067     8246    4               CASE( %XSC_TYP_NONE, %XSC_TYP_NULL,

     2068     8247    4                     %XSC_TYP_SEQ, %XSC_TYP_SEQOF,
     2069     8248    4                     %XSC_TYP_SET, %XSC_TYP_SETOF,
     2070     8249    4                     %XSC_TYP_CHOICE);
     2071     8250                        /* Set LEN zero so not to incr PDUIDX for enclosing item */
     2072     8251    4                   LEN = 0;

   8251  2 001267   200072 450100                    STZ     LEN,,AUTO
         2 001270   001420 710000 2                  TRA     s:8302

     2073     8252    4               CASE( %XSC_TYP_BOOL);  /* boolean */

     2074     8253    5                   IF ITEMLIST.S( I) ~= 0 THEN DO;

   8253  2 001271   200005 235105                    LDA     ITEMLIST+1,AL,AUTO
         2 001272   001302 600000 2                  TZE     s:8261

     2075     8254                            %STORBYTE( BYT="511");

   8255  2 001273   200062 470500                    LDP0    PDUBUF$,,AUTO
         2 001274   200063 235100                    LDA     PDUIDX,,AUTO
         2 001275   040105 100400                    MLR     fill='040'O
         2 001276   000020 000001 3                  ADSC9   16                       cn=0,n=1
         2 001277   000000 000001                    ADSC9   0,A,PR0                  cn=0,n=1

   8256  2 001300   200063 054100                    AOS     PDUIDX,,AUTO

PL6.E3A0      #009=XSC$ENCODE File=XSC$ACSE.:XSA1TSI                             WED 10/01/97 11:53 Page:399
     2076     8258    5                       END;

   8258  2 001301   001420 710000 2                  TRA     s:8302

     2077     8259    5                   ELSE DO;

     2078     8260                            %STORBYTE( BYT="0");

   8261  2 001302   200062 470500                    LDP0    PDUBUF$,,AUTO
         2 001303   200063 235100                    LDA     PDUIDX,,AUTO
         2 001304   040105 100400                    MLR     fill='040'O
         2 001305   000017 000001 3                  ADSC9   15                       cn=0,n=1
         2 001306   000000 000001                    ADSC9   0,A,PR0                  cn=0,n=1

   8262  2 001307   200063 054100                    AOS     PDUIDX,,AUTO

     2079     8264    5                       END;

   8264  2 001310   001420 710000 2                  TRA     s:8302

     2080     8265    4               CASE( %XSC_TYP_INTG);  /* signed integer of length LEN */

     2081     8266    4                   U36(0) = 0;

   8266  2 001311   200074 450100                    STZ     U36,,AUTO

     2082     8267    4                   U36(1) = ITEMLIST.U( I);

   8267  2 001312   200005 235105                    LDA     ITEMLIST+1,AL,AUTO
         2 001313   200075 755100                    STA     U36+1,,AUTO

     2083     8268    5                   DO WHILE( LEN > 0);

   8268  2 001314   200072 236100                    LDQ     LEN,,AUTO
         2 001315   001342 604400 2                  TMOZ    s:8275

     2084     8269                            %STORBYTE( BYT="U8( 9 - LEN)");
PL6.E3A0      #009=XSC$ENCODE File=XSC$ACSE.:XSA1TSI                             WED 10/01/97 11:53 Page:400

   8270  2 001316   200072 335100                    LCA     LEN,,AUTO
         2 001317   000003 735000                    ALS     3
         2 001320   001322 605000 2                  TPL     s:8270+4
         2 001321   000044 035003                    ADLA    36,DU
         2 001322   003100 061505                    CSR     bolr='003'O
         2 001323   200076 000010                    BDSC    U36+2,A,AUTO             by=0,bit=0,n=8
         2 001324   200076 000044                    BDSC    U36+2,,AUTO              by=0,bit=0,n=36
         2 001325   200076 236100                    LDQ     U36+2,,AUTO
         2 001326   000033 736000                    QLS     27
         2 001327   000017 276000 3                  ORQ     15
         2 001330   200077 756100                    STQ     U36+3,,AUTO
         2 001331   200062 470500                    LDP0    PDUBUF$,,AUTO
         2 001332   200063 235100                    LDA     PDUIDX,,AUTO
         2 001333   040105 100500                    MLR     fill='040'O
         2 001334   200077 000004                    ADSC9   U36+3,,AUTO              cn=0,n=4
         2 001335   000000 000001                    ADSC9   0,A,PR0                  cn=0,n=1

   8271  2 001336   200063 054100                    AOS     PDUIDX,,AUTO

     2085     8273    5                       LEN = LEN - 1;

   8273  2 001337   000001 336007                    LCQ     1,DL
         2 001340   200072 056100                    ASQ     LEN,,AUTO

     2086     8274    5                       END;

   8274  2 001341   001316 605400 2                  TPNZ    s:8270

     2087     8275    4                   GOTO NEXTITEM;

   8275  2 001342   001423 710000 2                  TRA     NEXTITEM

     2088     8276    4               CASE( %XSC_TYP_BITSTR);  /* left-justified bitstring */

     2089     8277    4                   U36(0) = ITEMLIST.U( I);

PL6.E3A0      #009=XSC$ENCODE File=XSC$ACSE.:XSA1TSI                             WED 10/01/97 11:53 Page:401
   8277  2 001343   200005 235105                    LDA     ITEMLIST+1,AL,AUTO
         2 001344   200074 755100                    STA     U36,,AUTO

     2090     8278    4                   U36(1) = 0;

   8278  2 001345   200075 450100                    STZ     U36+1,,AUTO

     2091     8279    4                   TMP = 0;

   8279  2 001346   200073 450100                    STZ     TMP,,AUTO

     2092     8280    4                   IF LEN > 0 THEN

   8280  2 001347   200072 236100                    LDQ     LEN,,AUTO
         2 001350   001400 604400 2                  TMOZ    s:8288

     2093     8281    5                       DO WHILE( TMP < LEN);

   8281  2 001351   200073 116100                    CMPQ    TMP,,AUTO
         2 001352   001400 604400 2                  TMOZ    s:8288

     2094     8282                            %STORBYTE( BYT="U8( TMP)");

   8283  2 001353   200073 235100                    LDA     TMP,,AUTO
         2 001354   000003 735000                    ALS     3
         2 001355   001357 605000 2                  TPL     s:8283+4
         2 001356   000044 035003                    ADLA    36,DU
         2 001357   003100 061505                    CSR     bolr='003'O
         2 001360   200074 000010                    BDSC    U36,A,AUTO               by=0,bit=0,n=8
         2 001361   200076 000044                    BDSC    U36+2,,AUTO              by=0,bit=0,n=36
         2 001362   200076 236100                    LDQ     U36+2,,AUTO
         2 001363   000033 736000                    QLS     27
         2 001364   000017 276000 3                  ORQ     15
         2 001365   200077 756100                    STQ     U36+3,,AUTO
         2 001366   200062 470500                    LDP0    PDUBUF$,,AUTO
         2 001367   200063 235100                    LDA     PDUIDX,,AUTO
         2 001370   040105 100500                    MLR     fill='040'O
PL6.E3A0      #009=XSC$ENCODE File=XSC$ACSE.:XSA1TSI                             WED 10/01/97 11:53 Page:402
         2 001371   200077 000004                    ADSC9   U36+3,,AUTO              cn=0,n=4
         2 001372   000000 000001                    ADSC9   0,A,PR0                  cn=0,n=1

   8284  2 001373   200063 054100                    AOS     PDUIDX,,AUTO

     2095     8286    5                       TMP = TMP + 1;

   8286  2 001374   200073 054100                    AOS     TMP,,AUTO

     2096     8287    5                       END;

   8287  2 001375   200073 236100                    LDQ     TMP,,AUTO
         2 001376   200072 116100                    CMPQ    LEN,,AUTO
         2 001377   001353 604000 2                  TMI     s:8283

     2097     8288    4                   GOTO NEXTITEM;

   8288  2 001400   001423 710000 2                  TRA     NEXTITEM

     2098     8289    4               CASE( %XSC_TYP_OBJID,

     2099     8290    4                     %XSC_TYP_OBJDSCR);
     2100     8291    4                   ;  /*N* Encode into temp buffer, then move bytes in */
     2101     8292    4                   GOTO COMMON;  /*N* But for now, just move raw text... */

   8292  2 001401   001404 710000 2                  TRA     COMMON

     2102     8293    4               CASE( %XSC_TYP_UTCTIM,

     2103     8294    4                     %XSC_TYP_GENTIM);  /* UTS to be converted to ISO time */
     2104     8295    4                   LEN = 0;  /*N* worry about this later... */

   8295  2 001402   200072 450100                    STZ     LEN,,AUTO
         2 001403   001420 710000 2                  TRA     s:8302

     2105     8296    4               CASE( ELSE);  /* anything else is pointer to LEN bytes of text */

PL6.E3A0      #009=XSC$ENCODE File=XSC$ACSE.:XSA1TSI                             WED 10/01/97 11:53 Page:403
     2106     8297    4   COMMON:
     2107     8298    4                   IF LEN > 0 THEN

   8298  2 001404   200072 235100       COMMON       LDA     LEN,,AUTO
         2 001405   001420 604400 2                  TMOZ    s:8302

     2108     8299    4                       CALL INSERT( PDUBUF$->TEXT, PDUIDX, LEN,

   8299  2 001406   200071 236100                    LDQ     I,,AUTO
         2 001407   000001 736000                    QLS     1
         2 001410   200005 470506                    LDP0    ITEMLIST+1,QL,AUTO
         2 001411   000000 620005                    EAX0    0,AL
         2 001412   200062 471500                    LDP1    PDUBUF$,,AUTO
         2 001413   200072 721100                    LXL1    LEN,,AUTO
         2 001414   200063 235100                    LDA     PDUIDX,,AUTO
         2 001415   040145 100540                    MLR     fill='040'O
         2 001416   000000 000010                    ADSC9   0,,PR0                   cn=0,n=*X0
         2 001417   100000 000011                    ADSC9   0,A,PR1                  cn=0,n=*X1

     2109     8300    4                               ITEMLIST.P( I)->BYTES);
     2110     8301    4               END;

     2111     8302    3           PDUIDX = LEN + PDUIDX;

   8302  2 001420   200072 236100                    LDQ     LEN,,AUTO
         2 001421   200063 036100                    ADLQ    PDUIDX,,AUTO
         2 001422   200063 756100                    STQ     PDUIDX,,AUTO

     2112     8303    3   NEXTITEM:
     2113     8304    3           END;

   8304  2 001423   200071 054100       NEXTITEM     AOS     I,,AUTO
         2 001424   200071 236100                    LDQ     I,,AUTO
         2 001425   000000 116000 1                  CMPQ    XSC_ITEMCNT
         2 001426   001122 604400 2                  TMOZ    s:8217

     2114     8305    2       RETURN;
PL6.E3A0      #009=XSC$ENCODE File=XSC$ACSE.:XSA1TSI                             WED 10/01/97 11:53 Page:404

   8305  2 001427   200070 221300                    LDX1  ! TXTC$+2,,AUTO
         2 001430   000001 702211                    TSX2  ! 1,X1

XSC_F$ENCODE
 Sect OctLoc
   0     000   302303 001327                                                    ....

XSC_ITEMCNT
 Sect OctLoc
   1     000   000000 000000                                                    ....

(unnamed)
 Sect OctLoc
   1     001   000000 000024                                                    ....

(unnamed)
 Sect OctLoc
   3     000   000000 000000   000001 200432   000000 006014   000004 204022    ................
   3     004   000004 205022   000004 210022   000004 211022   000001 202022    ................
   3     010   000001 201023   000004 206022   000001 200422   000001 000000    ................
   3     014   000000 006000   000003 000000   777777 777777   000040 040040    .............
   3     020   777040 040040                                                    .
     2115     8306
     2116     8307    2       END BUILDPDU;
     2117     8308
     2118     8309    1       END XSC$ENCODE;
     2119     8310        %EOD;

PL6.E3A0      #009=XSC$ENCODE File=XSC$ACSE.:XSA1TSI                             WED 10/01/97 11:53 Page:405
--  Include file information  --

   XSC_PERR_C.:XSA1TOU  is referenced.
   UM_CP6.:E05OU  is referenced.
   XSP_ASN1_M.:XSA1TOU  is referenced.
   XSC_INTERNAL_M.:XSA1TOU  is referenced.
   XSC_INTERNAL_E.:XSA1TOU  is referenced.
   XSC_ACSE_M.:XSA1TOU  is referenced.
   XSC_ACSE_E.:XSA1TOU  is referenced.
   XSP_PRESENTATION_M.:XSA1TOU  is referenced.
   XSP_PRESENTATION_E.:XSA1TOU  is referenced.
   XSS_SESSION_E.:XSA1TOU  is referenced.
      No diagnostics issued in procedure XSC$ENCODE.
PL6.E3A0      #009=XSC$ENCODE File=XSC$ACSE.:XSA1TSI                             WED 10/01/97 11:53 Page:406

 **** Variables and constants ****

  ****  Section 000 RoData XSC$ENCODE

  ****  Scalars and arrays  ****
OctLoc.c.b A Datatyp(siz) R M Lvl/name                 OctLoc.c.b A Datatyp(siz) R M Lvl/name

     0-0-0/w STRC        r     1 XSC_F$ENCODE

  ****  Section 001  Data  XSC$ENCODE

  ****  Scalars and arrays  ****
OctLoc.c.b A Datatyp(siz) R M Lvl/name                 OctLoc.c.b A Datatyp(siz) R M Lvl/name

     0-0-0/w SBIN        r     1 XSC_ITEMCNT

  ****  Auto variables  ****

  ****  Scalars and arrays  ****
OctLoc.c.b A Datatyp(siz) R M Lvl/name                 OctLoc.c.b A Datatyp(siz) R M Lvl/name

     3-0-0/w PTR         r     1 @VBLK                     56-0-0/w PTR         r     1 AFPT$
    57-0-0/w PTR         r     1 CTXT$                     71-0-0/w SBIN        r     1 I
    71-0-0/w SBIN        r     1 I                         61-0-0/w SBIN        r     1 INFOLVL
     4-0-0/w STRC(72)    r     1 ITEMLIST(0:20)
    72-0-0/w SBIN        r     1 J                         73-0-0/w SBIN        r     1 LEN
    72-0-0/w SBIN        r     1 LEN                       74-0-0/w SBIN        r     1 LVL
    62-0-0/w PTR         r     1 PDUBUF$                   63-0-0/w SBIN        r     1 PDUIDX
    64-0-0/h UBIN(18)    r     1 PDUX                      65-0-0/w SBIN        r     1 TEMP
    74-0-0/w SBIN        r     1 TMP                       73-0-0/w SBIN        r     1 TMP
    66-0-0/w PTR         r     1 TXTC$                     74-0-0/w UBIN        r     1 U36(0:1)
    74-0-0/w UBIN(8)     r     1 U8(0:8)                   74-0-0/w UBIN        r     1 UTMP
    *0-0-0/w STRC(252)   r     1 VBLK

  ****  BASED and DCB variables  ****

  ****  Scalars and arrays  ****
PL6.E3A0      #009=XSC$ENCODE File=XSC$ACSE.:XSA1TSI                             WED 10/01/97 11:53 Page:407
OctLoc.c.b A Datatyp(siz) R M Lvl/name                 OctLoc.c.b A Datatyp(siz) R M Lvl/name

     0-0-0/w STRC(504)   r     1 AFPT                       0-0-0/c ACHR        r     1 BYTES
     0-0-0/w ASTR(18)    r     1 CTXT                       0-0-0/c CHAR(16384) r     1 TEXT
     0-0-0/c ASTR(9)     r     1 TXTC                       0-0-0/w STRC(504)   r     1 XSC$ASSOCIATE
     0-0-0/w STRC(504)   r     1 XSC$GENERIC                0-0-0/w STRC(108)   r     1 XSC$RELEASE
     0-0-0/w STRC(108)   r     1 XSC$U_ABORT


   Procedure XSC$ENCODE requires 793 words for executable code.
   Procedure XSC$ENCODE requires 66 words of local(AUTO) storage.
PL6.E3A0      #009=XSC$ENCODE File=XSC$ACSE.:XSA1TSI                             WED 10/01/97 11:53 Page:408
          *** CROSS REFERENCE LISTING ***
**     DENOTES     IDENTIFIER DEFINITION
<<                 IDENTIFIER'S VALUE SET
>>                 IDENTIFIER'S VALUE USED
<>                 IDENTIFIER SET AND/OR USED
--                 IDENTIFIER REFERENCED
PL6.E3A0      #009=XSC$ENCODE File=XSC$ACSE.:XSA1TSI                             WED 10/01/97 11:53 Page:409
          MINI XREF LISTING

AFPT.BUF$
      4029**DCL      8097>>ASSIGN
AFPT.C0
      4031**DCL      4031--REDEF
AFPT.DAT$
      4033**DCL      4033--REDEF
AFPT.LINK$
      4030**DCL      8107>>ASSIGN
AFPT.N0
      4032**DCL      4032--REDEF
AFPT.NXTX
      4032**DCL      8100>>ASSIGN
AFPT.R0
      4030**DCL      4031--REDEF
AFPT$
      5055**DCL      4025--IMP-PTR  8013<<ASSIGN   8014>>DOWHILE  8097>>ASSIGN   8100>>ASSIGN   8107<<ASSIGN
      8107>>ASSIGN
BUILDPDU
      8198**PROC     8115--CALL
BYTES IN PROCEDURE BUILDPDU
      8200**DCL      8232>>CALLBLT  8299>>CALLBLT
CCTX.HISTZ
      3484**DCL      3485--REDEF
COMMON IN PROCEDURE BUILDPDU
      8298**LABEL    8292--GOTO
CTXT.LEN
      2200**DCL      2201--IMP-SIZ  5441>>ASSIGN   6579>>ASSIGN
CTXT.TXT
      2201**DCL      5429--ASSIGN   6567--ASSIGN
CTXT$
      5056**DCL      5354<<ASSIGN   5355>>IF       5429>>ASSIGN   5441>>ASSIGN   6492<<ASSIGN   6493>>IF
      6567>>ASSIGN   6579>>ASSIGN
PL6.E3A0      #009=XSC$ENCODE File=XSC$ACSE.:XSA1TSI                             WED 10/01/97 11:53 Page:410
FIXITEMS
      8134**PROC     8112--CALL
I IN PROCEDURE BUILDPDU
      8201**DCL      8214<<DOINDEX  8217>>CALLBLT  8221>>ASSIGN   8232>>CALLBLT  8244>>ASSIGN   8245>>DOCASE
      8253>>IF       8267>>ASSIGN   8277>>ASSIGN   8299>>CALLBLT
I IN PROCEDURE FIXITEMS
      8136**DCL      8143<<DOINDEX  8144>>IF       8145>>ASSIGN   8145>>ASSIGN   8146>>DOCASE   8149>>ASSIGN
      8152>>ASSIGN   8154>>ASSIGN   8154>>ASSIGN   8164>>IF       8165>>ASSIGN   8168>>ASSIGN   8175>>ASSIGN
      8177>>IF       8177>>IF       8177>>IF       8181>>ASSIGN   8183>>DOINDEX
INCRLOOP IN PROCEDURE FIXITEMS
      8183**LABEL    8186--EXIT
INFOLVL
      5058**DCL      5069<<ASSIGN   6300<<ASSIGN   7335<<ASSIGN   7526<<ASSIGN   7718<<ASSIGN   7909<<ASSIGN
      7920>>IF       8005>>ASSIGN   8012<<ASSIGN   8012>>ASSIGN   8100>>ASSIGN   8109<<ASSIGN   8109>>ASSIGN
ITEMLIST
      5035**DCL      5071<<ASSIGN
ITEMLIST.B
      5053**DCL      5322<<ASSIGN   6460<<ASSIGN
ITEMLIST.P
      5052**DCL      5429<<ASSIGN   5533<<ASSIGN   5628<<ASSIGN   5911<<ASSIGN   6006<<ASSIGN   6289<<ASSIGN
      6567<<ASSIGN   6946<<ASSIGN   7041<<ASSIGN   7324<<ASSIGN   8097<<ASSIGN   8164>>IF       8299>>CALLBLT
ITEMLIST.S
      5051**DCL      5694<<ASSIGN   5788<<ASSIGN   6072<<ASSIGN   6166<<ASSIGN   6641<<ASSIGN   6824<<ASSIGN
      7107<<ASSIGN   7201<<ASSIGN   7488<<ASSIGN   7680<<ASSIGN   7871<<ASSIGN   8253>>IF
ITEMLIST.U
      5050**DCL      5051--REDEF    5052--REDEF    5053--REDEF    8154<<ASSIGN   8154>>ASSIGN   8267>>ASSIGN
      8277>>ASSIGN
ITEMLIST.X.IMP
      5047**DCL      8177>>IF
ITEMLIST.X.LEN
      5044**DCL      8113>>ASSIGN   8149>>ASSIGN   8152<<ASSIGN   8165<<ASSIGN   8168>>ASSIGN   8175>>ASSIGN
      8185<<ASSIGN   8185>>ASSIGN   8221>>ASSIGN   8232--CALLBLT  8244>>ASSIGN
ITEMLIST.X.LVL
      5049**DCL      8181>>ASSIGN   8184>>IF
ITEMLIST.X.TAG
      5046**DCL      8144>>IF       8145<<ASSIGN   8177>>IF       8217>>CALLBLT
PL6.E3A0      #009=XSC$ENCODE File=XSC$ACSE.:XSA1TSI                             WED 10/01/97 11:53 Page:411
ITEMLIST.X.TYP
      5048**DCL      8145>>ASSIGN   8146>>DOCASE   8177>>IF       8245>>DOCASE
ITEMLIST.Z
      5042**DCL      5043--REDEF    5156<<ASSIGN   5255<<ASSIGN   5347<<ASSIGN   5441<<ASSIGN   5536<<ASSIGN
      5631<<ASSIGN   5725<<ASSIGN   5819<<ASSIGN   5914<<ASSIGN   6009<<ASSIGN   6103<<ASSIGN   6197<<ASSIGN
      6292<<ASSIGN   6393<<ASSIGN   6485<<ASSIGN   6579<<ASSIGN   6672<<ASSIGN   6763<<ASSIGN   6855<<ASSIGN
      6949<<ASSIGN   7044<<ASSIGN   7138<<ASSIGN   7232<<ASSIGN   7327<<ASSIGN   7427<<ASSIGN   7519<<ASSIGN
      7619<<ASSIGN   7711<<ASSIGN   7810<<ASSIGN   7902<<ASSIGN   8005<<ASSIGN   8100<<ASSIGN
J IN PROCEDURE FIXITEMS
      8137**DCL      8183<<DOINDEX  8184>>IF       8185>>ASSIGN   8185>>ASSIGN
LEN IN PROCEDURE BUILDPDU
      8202**DCL      8200--IMP-SIZ  8223<<ASSIGN   8225<<ASSIGN   8225>>ASSIGN   8229>>CALLBLT  8232>>CALLBLT
      8232>>CALLBLT  8232>>CALLBLT  8234>>ASSIGN   8244<<ASSIGN   8251<<ASSIGN   8268>>DOWHILE  8270>>CALLBLT
      8273<<ASSIGN   8273>>ASSIGN   8280>>IF       8281>>DOWHILE  8295<<ASSIGN   8298>>IF       8299>>CALLBLT
      8299>>CALLBLT  8302>>ASSIGN
LEN IN PROCEDURE FIXITEMS
      8138**DCL      8167<<ASSIGN   8171<<ASSIGN   8171>>ASSIGN   8175<<ASSIGN   8175>>ASSIGN   8180<<ASSIGN
      8180>>ASSIGN   8185>>ASSIGN
LVL IN PROCEDURE FIXITEMS
      8139**DCL      8140--REDEF    8141--REDEF    8181<<ASSIGN   8184>>IF
NEXTITEM IN PROCEDURE BUILDPDU
      8304**LABEL    8275--GOTO     8288--GOTO
OOPS
      8123**LABEL    8114--CALLALT
PDUBUF$
      5059**DCL      8114<>CALL     8118>>ASSIGN   8217>>CALLBLT  8229>>CALLBLT  8232>>CALLBLT  8238>>CALLBLT
      8255>>CALLBLT  8261>>CALLBLT  8270>>CALLBLT  8283>>CALLBLT  8299>>CALLBLT
PDUIDX
      5060**DCL      8117>>ASSIGN   8211<<ASSIGN   8217>>CALLBLT  8218<<ASSIGN   8218>>ASSIGN   8229>>CALLBLT
      8230<<ASSIGN   8230>>ASSIGN   8232>>CALLBLT  8234<<ASSIGN   8234>>ASSIGN   8238>>CALLBLT  8239<<ASSIGN
      8239>>ASSIGN   8255>>CALLBLT  8256<<ASSIGN   8256>>ASSIGN   8261>>CALLBLT  8262<<ASSIGN   8262>>ASSIGN
      8270>>CALLBLT  8271<<ASSIGN   8271>>ASSIGN   8283>>CALLBLT  8284<<ASSIGN   8284>>ASSIGN   8299>>CALLBLT
      8302<<ASSIGN   8302>>ASSIGN
PDUX
      5061**DCL      8114<>CALL     8121<>CALL     8125<>CALL
TEMP
PL6.E3A0      #009=XSC$ENCODE File=XSC$ACSE.:XSA1TSI                             WED 10/01/97 11:53 Page:412
      5062**DCL      8113<<ASSIGN   8114<>CALL
TEXT
      5063**DCL      8097--ASSIGN   8217<<CALLBLT  8229<<CALLBLT  8232<<CALLBLT  8238<<CALLBLT  8255<<CALLBLT
      8261<<CALLBLT  8270<<CALLBLT  8283<<CALLBLT  8299<<CALLBLT
TMP IN PROCEDURE BUILDPDU
      8203**DCL      8221<<ASSIGN   8222>>IF       8224>>DOWHILE  8226<<ASSIGN   8226>>ASSIGN   8238>>CALLBLT
      8279<<ASSIGN   8281>>DOWHILE  8283>>CALLBLT  8286<<ASSIGN   8286>>ASSIGN
TMP IN PROCEDURE FIXITEMS
      8140**DCL      8149<<ASSIGN   8150>>IF       8151<<ASSIGN   8152>>ASSIGN   8153>>ASSIGN   8168<<ASSIGN
      8169>>IF       8170>>DOWHILE  8172<<ASSIGN   8172>>ASSIGN
TXTC.LEN
      5065**DCL      5066--IMP-SIZ  5536>>ASSIGN   5631>>ASSIGN   5914>>ASSIGN   6009>>ASSIGN   6292>>ASSIGN
      6949>>ASSIGN   7044>>ASSIGN   7327>>ASSIGN
TXTC.TXT
      5066**DCL      5533--ASSIGN   5628--ASSIGN   5911--ASSIGN   6006--ASSIGN   6289--ASSIGN   6946--ASSIGN
      7041--ASSIGN   7324--ASSIGN
TXTC$
      5067**DCL      5064--IMP-PTR  5449<<ASSIGN   5450>>IF       5533>>ASSIGN   5536>>ASSIGN   5544<<ASSIGN
      5545>>IF       5628>>ASSIGN   5631>>ASSIGN   5827<<ASSIGN   5828>>IF       5911>>ASSIGN   5914>>ASSIGN
      5922<<ASSIGN   5923>>IF       6006>>ASSIGN   6009>>ASSIGN   6205<<ASSIGN   6206>>IF       6289>>ASSIGN
      6292>>ASSIGN   6862<<ASSIGN   6863>>IF       6946>>ASSIGN   6949>>ASSIGN   6957<<ASSIGN   6958>>IF
      7041>>ASSIGN   7044>>ASSIGN   7240<<ASSIGN   7241>>IF       7324>>ASSIGN   7327>>ASSIGN
U36 IN PROCEDURE BUILDPDU
      8204**DCL      8205--REDEF    8266<<ASSIGN   8267<<ASSIGN   8277<<ASSIGN   8278<<ASSIGN
U8 IN PROCEDURE BUILDPDU
      8205**DCL      8270>>CALLBLT  8283>>CALLBLT
UTMP IN PROCEDURE FIXITEMS
      8141**DCL      8153<<ASSIGN   8154>>ASSIGN
VBLK
      3354**DCL        11--PROC     8119<>CALL
VBLK.CTX$
      3368**DCL      3460--IMP-PTR
VBLK.DATA.SIZE
      3436**DCL      7920>>IF
VBLK.EVENT
      3441**DCL      5163>>DOCASE
PL6.E3A0      #009=XSC$ENCODE File=XSC$ACSE.:XSA1TSI                             WED 10/01/97 11:53 Page:413
VBLK.FPT$
      3369**DCL      2609--IMP-PTR  2668--IMP-PTR  2743--IMP-PTR  2802--IMP-PTR  2861--IMP-PTR  5354>>ASSIGN
      5449>>ASSIGN   5544>>ASSIGN   5639>>IF       5694>>ASSIGN   5733>>IF       5788>>ASSIGN   5827>>ASSIGN
      5922>>ASSIGN   6017>>IF       6072>>ASSIGN   6111>>IF       6166>>ASSIGN   6205>>ASSIGN   6492>>ASSIGN
      6641>>ASSIGN   6824>>ASSIGN   6862>>ASSIGN   6957>>ASSIGN   7052>>IF       7107>>ASSIGN   7146>>IF
      7201>>ASSIGN   7240>>ASSIGN   7488>>ASSIGN   7680>>ASSIGN   7871>>ASSIGN   8013>>ASSIGN
VBLK.PDU.PTR$
      3401**DCL      8118<<ASSIGN
VBLK.PDU.SIZE
      3402**DCL      8117<<ASSIGN
XSC$ASSOCIATE.ACN$
      2714**DCL      5354>>ASSIGN   6492>>ASSIGN
XSC$ASSOCIATE.ERRDEF
      2683**DCL      2703--REDEF
XSC$ASSOCIATE.IAEID
      2718**DCL      6111>>IF       6166>>ASSIGN
XSC$ASSOCIATE.IAEQ$
      2716**DCL      5922>>ASSIGN
XSC$ASSOCIATE.IAPID
      2717**DCL      6017>>IF       6072>>ASSIGN
XSC$ASSOCIATE.IAPT$
      2715**DCL      5827>>ASSIGN
XSC$ASSOCIATE.IMPL$
      2723**DCL      6205>>ASSIGN   7240>>ASSIGN
XSC$ASSOCIATE.RAEID
      2722**DCL      5733>>IF       5788>>ASSIGN   7146>>IF       7201>>ASSIGN
XSC$ASSOCIATE.RAEQ$
      2720**DCL      5544>>ASSIGN   6957>>ASSIGN
XSC$ASSOCIATE.RAPID
      2721**DCL      5639>>IF       5694>>ASSIGN   7052>>IF       7107>>ASSIGN
XSC$ASSOCIATE.RAPT$
      2719**DCL      5449>>ASSIGN   6862>>ASSIGN
XSC$ASSOCIATE.RESULT
      2682**DCL      6641>>ASSIGN
XSC$ASSOCIATE.RSDIAG
      2681**DCL      6824>>ASSIGN
PL6.E3A0      #009=XSC$ENCODE File=XSC$ACSE.:XSA1TSI                             WED 10/01/97 11:53 Page:414
XSC$GENERIC.DATA$
      2648**DCL      8013>>ASSIGN
XSC$GENERIC.ERRDEF
      2618**DCL      2638--REDEF
XSC$PSEND
      5022**DCL-ENT  8119--CALL
XSC$P_ABORT.ERRDEF
      2753**DCL      2773--REDEF
XSC$RELEASE.ERRDEF
      2812**DCL      2832--REDEF
XSC$RELEASE.REASON
      2810**DCL      7488>>ASSIGN   7680>>ASSIGN
XSC$U_ABORT.ABRTSRC
      2869**DCL      7871>>ASSIGN
XSC$U_ABORT.ERRDEF
      2871**DCL      2891--REDEF
XSC_F$ENCODE
      4983**DCL      7916<>CALL
XSC_ITEMCNT
      5027**DCL      5070<<ASSIGN   5156>>ASSIGN   5159<<ASSIGN   5159>>ASSIGN   5255>>ASSIGN   5258<<ASSIGN
      5258>>ASSIGN   5322>>ASSIGN   5347>>ASSIGN   5350<<ASSIGN   5350>>ASSIGN   5429>>ASSIGN   5441>>ASSIGN
      5444<<ASSIGN   5444>>ASSIGN   5533>>ASSIGN   5536>>ASSIGN   5539<<ASSIGN   5539>>ASSIGN   5628>>ASSIGN
      5631>>ASSIGN   5634<<ASSIGN   5634>>ASSIGN   5694>>ASSIGN   5725>>ASSIGN   5728<<ASSIGN   5728>>ASSIGN
      5788>>ASSIGN   5819>>ASSIGN   5822<<ASSIGN   5822>>ASSIGN   5911>>ASSIGN   5914>>ASSIGN   5917<<ASSIGN
      5917>>ASSIGN   6006>>ASSIGN   6009>>ASSIGN   6012<<ASSIGN   6012>>ASSIGN   6072>>ASSIGN   6103>>ASSIGN
      6106<<ASSIGN   6106>>ASSIGN   6166>>ASSIGN   6197>>ASSIGN   6200<<ASSIGN   6200>>ASSIGN   6289>>ASSIGN
      6292>>ASSIGN   6295<<ASSIGN   6295>>ASSIGN   6393>>ASSIGN   6396<<ASSIGN   6396>>ASSIGN   6460>>ASSIGN
      6485>>ASSIGN   6488<<ASSIGN   6488>>ASSIGN   6567>>ASSIGN   6579>>ASSIGN   6582<<ASSIGN   6582>>ASSIGN
      6641>>ASSIGN   6672>>ASSIGN   6675<<ASSIGN   6675>>ASSIGN   6763>>ASSIGN   6766<<ASSIGN   6766>>ASSIGN
      6824>>ASSIGN   6855>>ASSIGN   6858<<ASSIGN   6858>>ASSIGN   6946>>ASSIGN   6949>>ASSIGN   6952<<ASSIGN
      6952>>ASSIGN   7041>>ASSIGN   7044>>ASSIGN   7047<<ASSIGN   7047>>ASSIGN   7107>>ASSIGN   7138>>ASSIGN
      7141<<ASSIGN   7141>>ASSIGN   7201>>ASSIGN   7232>>ASSIGN   7235<<ASSIGN   7235>>ASSIGN   7324>>ASSIGN
      7327>>ASSIGN   7330<<ASSIGN   7330>>ASSIGN   7427>>ASSIGN   7430<<ASSIGN   7430>>ASSIGN   7488>>ASSIGN
      7519>>ASSIGN   7522<<ASSIGN   7522>>ASSIGN   7619>>ASSIGN   7622<<ASSIGN   7622>>ASSIGN   7680>>ASSIGN
      7711>>ASSIGN   7714<<ASSIGN   7714>>ASSIGN   7810>>ASSIGN   7813<<ASSIGN   7813>>ASSIGN   7871>>ASSIGN
      7902>>ASSIGN   7905<<ASSIGN   7905>>ASSIGN   8005>>ASSIGN   8008<<ASSIGN   8008>>ASSIGN   8097>>ASSIGN
PL6.E3A0      #009=XSC$ENCODE File=XSC$ACSE.:XSA1TSI                             WED 10/01/97 11:53 Page:415
      8100>>ASSIGN   8103<<ASSIGN   8103>>ASSIGN   8143>>DOINDEX  8212<<ASSIGN   8212>>ASSIGN   8214>>DOINDEX
XSS$GETMEM
      5023**DCL-ENT  8114--CALL
XSS$RELMEM
      5024**DCL-ENT  8121--CALL     8125--CALL
XSS$SCREECH
      5025**DCL-ENT  7916--CALL
PL6.E3A0      #009=XSC$ENCODE File=XSC$ACSE.:XSA1TSI                             WED 10/01/97 11:53 Page:416
              *** CROSS REFERENCE LISTING ***
    **     DENOTES     IDENTIFIER DEFINITION
    <<                 IDENTIFIER'S VALUE SET
    >>                 IDENTIFIER'S VALUE USED
    <>                 IDENTIFIER SET AND/OR USED
    --                 IDENTIFIER REFERENCED
PL6.E3A0      #009=XSC$ENCODE File=XSC$ACSE.:XSA1TSI                             WED 10/01/97 11:53 Page:417
              MINI UREF LISTING

I    5057**DCL
XSC$ENCODE      11**PROC
XSC_ITEMMAX    5028**DCL

PL6.E3A0      #010=XSC$PSEND File=XSC$ACSE.:XSA1TSI                              WED 10/01/97 11:53 Page:418
     2120        1        /*T***********************************************************/
     2121        2        /*T*                                                         */
     2122        3        /*T* Copyright (c) Bull HN Information Systems Inc., 1997    */
     2123        4        /*T*                                                         */
     2124        5        /*T***********************************************************/
     2125        6        /*F*    NAME:   XSC$PSEND
     2126        7
     2127        8                XSC$PSEND takes care of the details of forwarding an outbound APDU
     2128        9                to the Presentation layer for transfer to the other ACSE endpoint.
     2129       10                The ACSE event in VBLK.EVENT is mapped to a Presentation function.
     2130       11        */
     2131       12        XSC$PSEND: PROC( VBLK) ALTRET;
     2132       13        %INCLUDE K_ADDRESS_M;
     2133      516        %INCLUDE XSC_COMMON_M;
     2134     1169            %XSC$ADDRESS( NAME=XSC_SOURCE, STCLASS=SYMREF);
     2135     1452            %XSC$ADDRESS( NAME=XSC_TARGET, STCLASS=SYMREF);
     2136     1735        %INCLUDE XSP_ASN1_M;
     2137     2081            %XSP_ASN1_FPT( FPTN=AFPT, STCLASS=AUTO);
     2138     2101            %XSP_ASN1_FPT( FPTN=XSC_XSP_ASN1_FPT, STCLASS=CONSTANT);
     2139     2121        %INCLUDE XSS_SESSION_E;
     2140     2686        %INCLUDE XSP_PRESENTATION_E;
     2141     2785        %INCLUDE XSP_PRESENTATION_M;
     2142     4271            %XSP$GENERIC( FPTN=PFPT, STCLASS=AUTO);
     2143     4367            %XSP$PRIMITIVES( STCLASS="BASED( PFPT$)");
     2144     6066            %XSP_PRIMITIVES( STCLASS=SYMREF);
     2145     7765            %XSP$CTXTNAME( NAME=ACSECTXT, CTXT="2-2-1-0-1", STCLASS=CONSTANT);
     2146     7807        %INCLUDE XSC_ACSE_E;
     2147     7885        %INCLUDE XSC_ACSE_M;
     2148     8194            %XSC$PRIMITIVES( STCLASS="BASED( VBLK.FPT$)");
     2149     8507        %INCLUDE XSC_INTERNAL_E;
     2150     8595        %INCLUDE XSC_INTERNAL_M;
     2151     8940            %XSC$VBLK( NAME=VBLK, STCLASS="");
     2152     9046
     2153     9047    1       DCL XSP$PRESENTATION ENTRY(1) ALTRET;
     2154     9048
     2155     9049    1       DCL 1 CTXTLIST CONSTANT,
     2156     9050    1            2 * SBIN INIT( 1),
PL6.E3A0      #010=XSC$PSEND File=XSC$ACSE.:XSA1TSI                              WED 10/01/97 11:53 Page:419
     2157     9051    1            2 * PTR INIT( ADDR( ACSECTXT));
     2158     9052    1       DCL PFPT$ PTR;
     2159     9053
     2160     9054    1       PFPT$ = ADDR( PFPT);
     2161     9055            /* Determine the Presentation function code and init Presentation fpt */
     2162     9056    2       DO CASE( VBLK.EVENT);
     2163     9057    2           CASE( %XSC_CEV_AARQ);
     2164     9058    2               XSP$CONNECT = XSP_CONNECT;
     2165     9059    2               XSP$CONNECT.FNC = %XSP_FNC_PCONREQ#;
     2166     9060    2               XSP$CONNECT.DFLT$ = XSC$ASSOCIATE.CTXT$;
     2167     9061    2               XSP$CONNECT.CTXT$ = ADDR( CTXTLIST);
     2168     9062    2               XSP$CONNECT.CALLING$ = ADDR( XSC_TARGET);
     2169     9063    2               XSP$CONNECT.CALLED$ = ADDR( XSC_SOURCE);
     2170     9064    2               XSP$CONNECT.SFU.FD = %TRUE;
     2171     9065    2           CASE( %XSC_CEV_AAREP,
     2172     9066    2                 %XSC_CEV_AAREN);
     2173     9067    2               XSP$CONNECT = XSP_CONNECT;
     2174     9068    2               XSP$CONNECT.FNC = %XSP_FNC_PCONRSP#;
     2175     9069    2               XSP$CONNECT.DFLT$ = XSC$ASSOCIATE.CTXT$;
     2176     9070    2               XSP$CONNECT.CTXT$ = ADDR( CTXTLIST);
     2177     9071    2               XSP$CONNECT.CALLING$ = ADDR( XSC_SOURCE);
     2178     9072    2               XSP$CONNECT.RESPONDING$ = ADDR( XSC_TARGET);
     2179     9073    2               XSP$CONNECT.SFU.FD = %TRUE;
     2180     9074    2           CASE( %XSC_CEV_RLRQ);
     2181     9075    2               XSP$RELEASE = XSP_RELEASE;
     2182     9076    2               XSP$RELEASE.FNC = %XSP_FNC_PRELREQ#;
     2183     9077    2           CASE( %XSC_CEV_RLREP,
     2184     9078    2                 %XSC_CEV_RLREN);
     2185     9079    2               XSP$RELEASE = XSP_RELEASE;
     2186     9080    2               XSP$RELEASE.FNC = %XSP_FNC_PRELRSP#;
     2187     9081    2           CASE( %XSC_CEV_ABRT);
     2188     9082    2               XSP$U_ABORT = XSP_U_ABORT;
     2189     9083    2               XSP$U_ABORT.FNC = %XSP_FNC_PUABREQ#;
     2190     9084    2           CASE( ELSE);
     2191     9085    2               ALTRETURN;
     2192     9086    2           END;
     2193     9087    2       IF VBLK.PDU.SIZE > 0 THEN DO;
PL6.E3A0      #010=XSC$PSEND File=XSC$ACSE.:XSA1TSI                              WED 10/01/97 11:53 Page:420
     2194     9088    2           AFPT = XSC_XSP_ASN1_FPT;  /* initialize ASN1 fpt */
     2195     9089    2           AFPT.BUF$ = VBLK.PDU.PTR$;
     2196     9090    2           AFPT.NXTX = VBLK.PDU.SIZE;
     2197     9091    2           AFPT.CTXTID = 1;  /* PDU encoded by the first (only) CTXT in use... */
     2198     9092    2           XSP$GENERIC.DATA$ = ADDR( AFPT);
     2199     9093    2           END;
     2200     9094    1       XSP$GENERIC.PCID = XSC$GENERIC.CCID;
     2201     9095            /* ..and send it on its way  */
     2202     9096    1       CALL XSP$PRESENTATION( XSP$GENERIC)
     2203     9097    2       WHENALTRETURN DO;
     2204     9098    2           XSC$GENERIC.ERROR = XSP$GENERIC.ERROR;
     2205     9099    2           ALTRETURN;
     2206     9100    2           END;
     2207     9101    1       RETURN;
     2208     9102
     2209     9103    1       END XSC$PSEND;
     2210     9104        %EOD;

PL6.E3A0      #010=XSC$PSEND File=XSC$ACSE.:XSA1TSI                              WED 10/01/97 11:53 Page:421
--  Include file information  --

   XSC_INTERNAL_M.:XSA1TOU  is referenced.
   XSC_INTERNAL_E.:XSA1TOU  is referenced.
   XSC_ACSE_M.:XSA1TOU  is referenced.
   XSC_ACSE_E.:XSA1TOU  is referenced.
   XSP_PRESENTATION_M.:XSA1TOU  is referenced.
   XSP_PRESENTATION_E.:XSA1TOU  is referenced.
   XSS_SESSION_E.:XSA1TOU  is referenced.
   XSP_ASN1_M.:XSA1TOU  is referenced.
   XSC_COMMON_M.:XSA1TOU  is referenced.
   K_ADDRESS_M.:LIB_E05  is referenced.
      No diagnostics issued in procedure XSC$PSEND.

   Procedure XSC$PSEND requires 99 words for executable code.
   Procedure XSC$PSEND requires 34 words of local(AUTO) storage.

PL6.E3A0      #010=XSC$PSEND File=XSC$ACSE.:XSA1TSI                              WED 10/01/97 11:53 Page:422

 Object Unit name= XSC$PSEND                                  File name= XSC$ACSE.:XSA1TOU
 UTS= OCT 01 '97 11:53:33.72 WED                              Compiler= PL-6/E31         Sev=      00
 SharedLib= :SHARED_SYSTEM                                    Alt SharedLib=


    ****  Control sections  ****

 Sect   Type Bound  Init  Size OctSiz  Section name(segment info)
    0  RoData even  UTS     19     23  XSC$PSEND
    1   Proc  even  none    99    143  XSC$PSEND
    2  RoData even  none     4      4  XSC$PSEND

    ****  Entry defs  ****

                              Check   Calling
                             calling  sequence
  Sect OctLoc Primary Altret sequence   type   Parms  Name
     1      0   yes    yes     yes      Std        1  XSC$PSEND

  ****  Entry refs  ****

         Check        Calling
        calling       sequence
Altret sequence SRef   type   Args  Name
 yes     yes           Std       1 XSP$PRESENTATION
                       nStd      0 X66_AUTO_1
                       nStd      0 X66_AALT
                       nStd      0 X66_ARET

  ****  Data refs  ****

  Flags:  r = read only, s = secondary
Flgs Name                             Flgs Name                             Flgs Name
     XSC_SOURCE                            XSC_TARGET                            XSP_CONNECT
     XSP_RELEASE                           XSP_U_ABORT
PL6.E3A0      #010=XSC$PSEND File=XSC$ACSE.:XSA1TSI                              WED 10/01/97 11:53 Page:423

  ****  Segment refs  ****

  Flags:  r = read only, s = secondary
Flgs Name                             Flgs Name                             Flgs Name
     NULLSID                               ISSID
PL6.E3A0      #010=XSC$PSEND File=XSC$ACSE.:XSA1TSI                              WED 10/01/97 11:53 Page:424


     2120        1        /*T***********************************************************/
     2121        2        /*T*                                                         */
     2122        3        /*T* Copyright (c) Bull HN Information Systems Inc., 1997    */
     2123        4        /*T*                                                         */
     2124        5        /*T***********************************************************/
     2125        6        /*F*    NAME:   XSC$PSEND
     2126        7
     2127        8                XSC$PSEND takes care of the details of forwarding an outbound APDU
     2128        9                to the Presentation layer for transfer to the other ACSE endpoint.
     2129       10                The ACSE event in VBLK.EVENT is mapped to a Presentation function.
     2130       11        */
     2131       12        XSC$PSEND: PROC( VBLK) ALTRET;

     12  1 000000   000000 700200 xent  XSC$PSEND    TSX0  ! X66_AUTO_1
         1 000001   000042 000001                    ZERO    34,1

     2132       13        %INCLUDE K_ADDRESS_M;
     2133      516        %INCLUDE XSC_COMMON_M;
     2134     1169            %XSC$ADDRESS( NAME=XSC_SOURCE, STCLASS=SYMREF);
     2135     1452            %XSC$ADDRESS( NAME=XSC_TARGET, STCLASS=SYMREF);
     2136     1735        %INCLUDE XSP_ASN1_M;
     2137     2081            %XSP_ASN1_FPT( FPTN=AFPT, STCLASS=AUTO);
     2138     2101            %XSP_ASN1_FPT( FPTN=XSC_XSP_ASN1_FPT, STCLASS=CONSTANT);
     2139     2121        %INCLUDE XSS_SESSION_E;
     2140     2686        %INCLUDE XSP_PRESENTATION_E;
     2141     2785        %INCLUDE XSP_PRESENTATION_M;
     2142     4271            %XSP$GENERIC( FPTN=PFPT, STCLASS=AUTO);
     2143     4367            %XSP$PRIMITIVES( STCLASS="BASED( PFPT$)");
     2144     6066            %XSP_PRIMITIVES( STCLASS=SYMREF);
     2145     7765            %XSP$CTXTNAME( NAME=ACSECTXT, CTXT="2-2-1-0-1", STCLASS=CONSTANT);
     2146     7807        %INCLUDE XSC_ACSE_E;
     2147     7885        %INCLUDE XSC_ACSE_M;
     2148     8194            %XSC$PRIMITIVES( STCLASS="BASED( VBLK.FPT$)");
     2149     8507        %INCLUDE XSC_INTERNAL_E;
     2150     8595        %INCLUDE XSC_INTERNAL_M;
     2151     8940            %XSC$VBLK( NAME=VBLK, STCLASS="");
PL6.E3A0      #010=XSC$PSEND File=XSC$ACSE.:XSA1TSI                              WED 10/01/97 11:53 Page:425
     2152     9046
     2153     9047    1       DCL XSP$PRESENTATION ENTRY(1) ALTRET;
     2154     9048
     2155     9049    1       DCL 1 CTXTLIST CONSTANT,
     2156     9050    1            2 * SBIN INIT( 1),
     2157     9051    1            2 * PTR INIT( ADDR( ACSECTXT));
     2158     9052    1       DCL PFPT$ PTR;
     2159     9053
     2160     9054    1       PFPT$ = ADDR( PFPT);

   9054  1 000002   200022 630500                    EPPR0   PFPT,,AUTO
         1 000003   200040 450500                    STP0    PFPT$,,AUTO

     2161     9055            /* Determine the Presentation function code and init Presentation fpt */
     2162     9056    2       DO CASE( VBLK.EVENT);

   9056  1 000004   200003 471500                    LDP1    @VBLK,,AUTO
         1 000005   100006 720100                    LXL0    6,,PR1
         1 000006   000777 360003                    ANX0    511,DU
         1 000007   000010 100003                    CMPX0   8,DU
         1 000010   000012 602010 1                  TNC     s:9056+6,X0
         1 000011   000106 710000 1                  TRA     s:9085
         1 000012   000106 710000 1                  TRA     s:9085
         1 000013   000022 710000 1                  TRA     s:9058
         1 000014   000043 710000 1                  TRA     s:9067
         1 000015   000043 710000 1                  TRA     s:9067
         1 000016   000064 710000 1                  TRA     s:9075
         1 000017   000072 710000 1                  TRA     s:9079
         1 000020   000072 710000 1                  TRA     s:9079
         1 000021   000100 710000 1                  TRA     s:9082

     2163     9057    2           CASE( %XSC_CEV_AARQ);

     2164     9058    2               XSP$CONNECT = XSP_CONNECT;

   9058  1 000022   003100 060400                    CSL     bolr='003'O
         1 000023   000000 000616 xsym               BDSC    XSP_CONNECT              by=0,bit=0,n=398
PL6.E3A0      #010=XSC$PSEND File=XSC$ACSE.:XSA1TSI                              WED 10/01/97 11:53 Page:426
         1 000024   000000 000616                    BDSC    0,,PR0                   by=0,bit=0,n=398

     2165     9059    2               XSP$CONNECT.FNC = %XSP_FNC_PCONREQ#;

   9059  1 000025   031000 236003                    LDQ     12800,DU
         1 000026   000000 552140                    STBQ    0,'40'O,PR0

     2166     9060    2               XSP$CONNECT.DFLT$ = XSC$ASSOCIATE.CTXT$;

   9060  1 000027   100001 473500                    LDP3    1,,PR1
         1 000030   300015 236100                    LDQ     13,,PR3
         1 000031   000003 756100                    STQ     3,,PR0

     2167     9061    2               XSP$CONNECT.CTXT$ = ADDR( CTXTLIST);

   9061  1 000032   000000 236000 2                  LDQ     0
         1 000033   000005 756100                    STQ     5,,PR0

     2168     9062    2               XSP$CONNECT.CALLING$ = ADDR( XSC_TARGET);

   9062  1 000034   000001 236000 2                  LDQ     1
         1 000035   000006 756100                    STQ     6,,PR0

     2169     9063    2               XSP$CONNECT.CALLED$ = ADDR( XSC_SOURCE);

   9063  1 000036   000002 236000 2                  LDQ     2
         1 000037   000007 756100                    STQ     7,,PR0

     2170     9064    2               XSP$CONNECT.SFU.FD = %TRUE;

   9064  1 000040   000010 236007                    LDQ     8,DL
         1 000041   000010 256100                    ORSQ    8,,PR0
         1 000042   000107 710000 1                  TRA     s:9087

     2171     9065    2           CASE( %XSC_CEV_AAREP,

     2172     9066    2                 %XSC_CEV_AAREN);
PL6.E3A0      #010=XSC$PSEND File=XSC$ACSE.:XSA1TSI                              WED 10/01/97 11:53 Page:427
     2173     9067    2               XSP$CONNECT = XSP_CONNECT;

   9067  1 000043   003100 060400                    CSL     bolr='003'O
         1 000044   000000 000616 xsym               BDSC    XSP_CONNECT              by=0,bit=0,n=398
         1 000045   000000 000616                    BDSC    0,,PR0                   by=0,bit=0,n=398

     2174     9068    2               XSP$CONNECT.FNC = %XSP_FNC_PCONRSP#;

   9068  1 000046   033000 236003                    LDQ     13824,DU
         1 000047   000000 552140                    STBQ    0,'40'O,PR0

     2175     9069    2               XSP$CONNECT.DFLT$ = XSC$ASSOCIATE.CTXT$;

   9069  1 000050   100001 473500                    LDP3    1,,PR1
         1 000051   300015 236100                    LDQ     13,,PR3
         1 000052   000003 756100                    STQ     3,,PR0

     2176     9070    2               XSP$CONNECT.CTXT$ = ADDR( CTXTLIST);

   9070  1 000053   000000 236000 2                  LDQ     0
         1 000054   000005 756100                    STQ     5,,PR0

     2177     9071    2               XSP$CONNECT.CALLING$ = ADDR( XSC_SOURCE);

   9071  1 000055   000002 236000 2                  LDQ     2
         1 000056   000006 756100                    STQ     6,,PR0

     2178     9072    2               XSP$CONNECT.RESPONDING$ = ADDR( XSC_TARGET);

   9072  1 000057   000001 236000 2                  LDQ     1
         1 000060   000007 756100                    STQ     7,,PR0

     2179     9073    2               XSP$CONNECT.SFU.FD = %TRUE;

   9073  1 000061   000010 236007                    LDQ     8,DL
         1 000062   000010 256100                    ORSQ    8,,PR0
         1 000063   000107 710000 1                  TRA     s:9087
PL6.E3A0      #010=XSC$PSEND File=XSC$ACSE.:XSA1TSI                              WED 10/01/97 11:53 Page:428

     2180     9074    2           CASE( %XSC_CEV_RLRQ);

     2181     9075    2               XSP$RELEASE = XSP_RELEASE;

   9075  1 000064   000100 100400                    MLR     fill='000'O
         1 000065   000000 000014 xsym               ADSC9   XSP_RELEASE              cn=0,n=12
         1 000066   000000 000014                    ADSC9   0,,PR0                   cn=0,n=12

     2182     9076    2               XSP$RELEASE.FNC = %XSP_FNC_PRELREQ#;

   9076  1 000067   043000 236003                    LDQ     17920,DU
         1 000070   000000 552140                    STBQ    0,'40'O,PR0
         1 000071   000107 710000 1                  TRA     s:9087

     2183     9077    2           CASE( %XSC_CEV_RLREP,

     2184     9078    2                 %XSC_CEV_RLREN);
     2185     9079    2               XSP$RELEASE = XSP_RELEASE;

   9079  1 000072   000100 100400                    MLR     fill='000'O
         1 000073   000000 000014 xsym               ADSC9   XSP_RELEASE              cn=0,n=12
         1 000074   000000 000014                    ADSC9   0,,PR0                   cn=0,n=12

     2186     9080    2               XSP$RELEASE.FNC = %XSP_FNC_PRELRSP#;

   9080  1 000075   045000 236003                    LDQ     18944,DU
         1 000076   000000 552140                    STBQ    0,'40'O,PR0
         1 000077   000107 710000 1                  TRA     s:9087

     2187     9081    2           CASE( %XSC_CEV_ABRT);

     2188     9082    2               XSP$U_ABORT = XSP_U_ABORT;

   9082  1 000100   000100 100400                    MLR     fill='000'O
         1 000101   000000 000014 xsym               ADSC9   XSP_U_ABORT              cn=0,n=12
         1 000102   000000 000014                    ADSC9   0,,PR0                   cn=0,n=12
PL6.E3A0      #010=XSC$PSEND File=XSC$ACSE.:XSA1TSI                              WED 10/01/97 11:53 Page:429

     2189     9083    2               XSP$U_ABORT.FNC = %XSP_FNC_PUABREQ#;

   9083  1 000103   071000 236003                    LDQ     29184,DU
         1 000104   000000 552140                    STBQ    0,'40'O,PR0
         1 000105   000107 710000 1                  TRA     s:9087

     2190     9084    2           CASE( ELSE);

     2191     9085    2               ALTRETURN;

   9085  1 000106   000000 702200 xent               TSX2  ! X66_AALT

     2192     9086    2           END;

     2193     9087    2       IF VBLK.PDU.SIZE > 0 THEN DO;

   9087  1 000107   100003 235100                    LDA     3,,PR1
         1 000110   000124 604400 1                  TMOZ    s:9094

     2194     9088    2           AFPT = XSC_XSP_ASN1_FPT;  /* initialize ASN1 fpt */

   9088  1 000111   000100 100400                    MLR     fill='000'O
         1 000112   000000 000070 0                  ADSC9   XSC_XSP_ASN1_FPT         cn=0,n=56
         1 000113   200004 000070                    ADSC9   AFPT,,AUTO               cn=0,n=56

     2195     9089    2           AFPT.BUF$ = VBLK.PDU.PTR$;

   9089  1 000114   100002 236100                    LDQ     2,,PR1
         1 000115   200005 756100                    STQ     AFPT+1,,AUTO

     2196     9090    2           AFPT.NXTX = VBLK.PDU.SIZE;

   9090  1 000116   100003 235100                    LDA     3,,PR1
         1 000117   200020 755100                    STA     AFPT+12,,AUTO

     2197     9091    2           AFPT.CTXTID = 1;  /* PDU encoded by the first (only) CTXT in use... */
PL6.E3A0      #010=XSC$PSEND File=XSC$ACSE.:XSA1TSI                              WED 10/01/97 11:53 Page:430

   9091  1 000120   000001 235007                    LDA     1,DL
         1 000121   200011 755100                    STA     AFPT+5,,AUTO

     2198     9092    2           XSP$GENERIC.DATA$ = ADDR( AFPT);

   9092  1 000122   200004 633500                    EPPR3   AFPT,,AUTO
         1 000123   000002 453500                    STP3    2,,PR0

     2199     9093    2           END;

     2200     9094    1       XSP$GENERIC.PCID = XSC$GENERIC.CCID;

   9094  1 000124   100001 473500                    LDP3    1,,PR1
         1 000125   300000 236100                    LDQ     0,,PR3
         1 000126   000000 552120                    STBQ    0,'20'O,PR0

     2201     9095            /* ..and send it on its way  */
     2202     9096    1       CALL XSP$PRESENTATION( XSP$GENERIC)

   9096  1 000127   200040 630500                    EPPR0   PFPT$,,AUTO
         1 000130   000003 631400 2                  EPPR1   3
         1 000131   000000 701000 xent               TSX1    XSP$PRESENTATION
         1 000132   000134 702000 1                  TSX2    s:9098
         1 000133   000142 710000 1                  TRA     s:9101

     2203     9097    2       WHENALTRETURN DO;

     2204     9098    2           XSC$GENERIC.ERROR = XSP$GENERIC.ERROR;

   9098  1 000134   200003 470500                    LDP0    @VBLK,,AUTO
         1 000135   000001 471500                    LDP1    1,,PR0
         1 000136   200040 473500                    LDP3    PFPT$,,AUTO
         1 000137   300001 236100                    LDQ     1,,PR3
         1 000140   100001 756100                    STQ     1,,PR1

     2205     9099    2           ALTRETURN;
PL6.E3A0      #010=XSC$PSEND File=XSC$ACSE.:XSA1TSI                              WED 10/01/97 11:53 Page:431

   9099  1 000141   000000 702200 xent               TSX2  ! X66_AALT

     2206     9100    2           END;
     2207     9101    1       RETURN;

   9101  1 000142   000000 702200 xent               TSX2  ! X66_ARET

XSC_XSP_ASN1_FPT
 Sect OctLoc
   0     000   000000 006014   000000 006014   000000 000000   000000 000000    ................
   0     004   000000 006014   000000 000000   000000 000000   000000 000000    ................
   0     010   400000 000000   000000 000000   000000 000000   000000 000000    ................
   0     014   000000 000000   000000 006014                                    ........

ACSECTXT
 Sect OctLoc
   0     016   000011 062055   062055 061055   060055 061***                    ..2-2-1-0-1.

CTXTLIST
 Sect OctLoc
   0     021   000000 000001   000016 006000                                    ........

(unnamed)
 Sect OctLoc
   2     000   000021 006000   000000 006000   000000 006000   000001 000000    ................
     2208     9102
     2209     9103    1       END XSC$PSEND;
     2210     9104        %EOD;

PL6.E3A0      #010=XSC$PSEND File=XSC$ACSE.:XSA1TSI                              WED 10/01/97 11:53 Page:432
--  Include file information  --

   XSC_INTERNAL_M.:XSA1TOU  is referenced.
   XSC_INTERNAL_E.:XSA1TOU  is referenced.
   XSC_ACSE_M.:XSA1TOU  is referenced.
   XSC_ACSE_E.:XSA1TOU  is referenced.
   XSP_PRESENTATION_M.:XSA1TOU  is referenced.
   XSP_PRESENTATION_E.:XSA1TOU  is referenced.
   XSS_SESSION_E.:XSA1TOU  is referenced.
   XSP_ASN1_M.:XSA1TOU  is referenced.
   XSC_COMMON_M.:XSA1TOU  is referenced.
   K_ADDRESS_M.:LIB_E05  is referenced.
      No diagnostics issued in procedure XSC$PSEND.
PL6.E3A0      #010=XSC$PSEND File=XSC$ACSE.:XSA1TSI                              WED 10/01/97 11:53 Page:433

 **** Variables and constants ****

  ****  Section 000 RoData XSC$PSEND

  ****  Scalars and arrays  ****
OctLoc.c.b A Datatyp(siz) R M Lvl/name                 OctLoc.c.b A Datatyp(siz) R M Lvl/name

    16-0-0/w STRC(99)    r     1 ACSECTXT                  21-0-0/w STRC(72)    r     1 CTXTLIST
     0-0-0/w STRC(504)   r     1 XSC_XSP_ASN1_FPT

  ****  Auto variables  ****

  ****  Scalars and arrays  ****
OctLoc.c.b A Datatyp(siz) R M Lvl/name                 OctLoc.c.b A Datatyp(siz) R M Lvl/name

     3-0-0/w PTR         r     1 @VBLK                      4-0-0/w STRC(504)   r     1 AFPT
    22-0-0/w STRC(504)   r     1 PFPT                      40-0-0/w PTR         r     1 PFPT$
    *0-0-0/w STRC(252)   r     1 VBLK

  ****  SYMREF variables  ****

  ****  Scalars and arrays  ****
OctLoc.c.b A Datatyp(siz) R M Lvl/name                 OctLoc.c.b A Datatyp(siz) R M Lvl/name

     0-0-0/w STRC(2718)  r     1 XSC_SOURCE                 0-0-0/w STRC(2718)  r     1 XSC_TARGET
     0-0-0/w STRC(398)   r     1 XSP_CONNECT                0-0-0/w STRC(108)   r     1 XSP_RELEASE
     0-0-0/w STRC(108)   r     1 XSP_U_ABORT

  ****  BASED and DCB variables  ****

  ****  Scalars and arrays  ****
OctLoc.c.b A Datatyp(siz) R M Lvl/name                 OctLoc.c.b A Datatyp(siz) R M Lvl/name

     0-0-0/w STRC(504)   r     1 XSC$ASSOCIATE              0-0-0/w STRC(504)   r     1 XSC$GENERIC
     0-0-0/w STRC(398)   r     1 XSP$CONNECT                0-0-0/w STRC(504)   r     1 XSP$GENERIC
     0-0-0/w STRC(108)   r     1 XSP$RELEASE                0-0-0/w STRC(108)   r     1 XSP$U_ABORT

PL6.E3A0      #010=XSC$PSEND File=XSC$ACSE.:XSA1TSI                              WED 10/01/97 11:53 Page:434

   Procedure XSC$PSEND requires 99 words for executable code.
   Procedure XSC$PSEND requires 34 words of local(AUTO) storage.
PL6.E3A0      #010=XSC$PSEND File=XSC$ACSE.:XSA1TSI                              WED 10/01/97 11:53 Page:435
          *** CROSS REFERENCE LISTING ***
**     DENOTES     IDENTIFIER DEFINITION
<<                 IDENTIFIER'S VALUE SET
>>                 IDENTIFIER'S VALUE USED
<>                 IDENTIFIER SET AND/OR USED
--                 IDENTIFIER REFERENCED
PL6.E3A0      #010=XSC$PSEND File=XSC$ACSE.:XSA1TSI                              WED 10/01/97 11:53 Page:436
          MINI XREF LISTING

ACSECTXT
      7784**DCL      9051--DCLINIT
AFPT
      2091**DCL      9088<<ASSIGN   9092--ASSIGN
AFPT.BUF$
      2095**DCL      9089<<ASSIGN
AFPT.C0
      2097**DCL      2097--REDEF
AFPT.CTXTID
      2096**DCL      9091<<ASSIGN
AFPT.DAT$
      2099**DCL      2099--REDEF
AFPT.N0
      2098**DCL      2098--REDEF
AFPT.NXTX
      2098**DCL      9090<<ASSIGN
AFPT.R0
      2096**DCL      2097--REDEF
CTXTLIST
      9049**DCL      9061--ASSIGN   9070--ASSIGN
PFPT
      4288**DCL      9054--ASSIGN
PFPT.ERRDEF
      4334**DCL      4354--REDEF
PFPT$
      9052**DCL      4385--IMP-PTR  4481--IMP-PTR  4539--IMP-PTR  4604--IMP-PTR  4662--IMP-PTR  4753--IMP-PTR
      4828--IMP-PTR  4889--IMP-PTR  4947--IMP-PTR  5092--IMP-PTR  5186--IMP-PTR  5244--IMP-PTR  5302--IMP-PTR
      5360--IMP-PTR  5418--IMP-PTR  5477--IMP-PTR  5582--IMP-PTR  5648--IMP-PTR  5714--IMP-PTR  5810--IMP-PTR
      5907--IMP-PTR  5965--IMP-PTR  6023--IMP-PTR  9054<<ASSIGN   9058>>ASSIGN   9059>>ASSIGN   9060>>ASSIGN
      9061>>ASSIGN   9062>>ASSIGN   9063>>ASSIGN   9064>>ASSIGN   9067>>ASSIGN   9068>>ASSIGN   9069>>ASSIGN
      9070>>ASSIGN   9071>>ASSIGN   9072>>ASSIGN   9073>>ASSIGN   9075>>ASSIGN   9076>>ASSIGN   9079>>ASSIGN
      9080>>ASSIGN   9082>>ASSIGN   9083>>ASSIGN   9092>>ASSIGN   9094>>ASSIGN   9096>>CALL     9098>>ASSIGN
PL6.E3A0      #010=XSC$PSEND File=XSC$ACSE.:XSA1TSI                              WED 10/01/97 11:53 Page:437
VBLK
      8957**DCL        12--PROC
VBLK.EVENT
      9044**DCL      9056>>DOCASE
VBLK.FPT$
      8972**DCL      8212--IMP-PTR  8271--IMP-PTR  8346--IMP-PTR  8405--IMP-PTR  8464--IMP-PTR  9060>>ASSIGN
      9069>>ASSIGN   9094>>ASSIGN   9098>>ASSIGN
VBLK.PDU.PTR$
      9004**DCL      9089>>ASSIGN
VBLK.PDU.SIZE
      9005**DCL      9087>>IF       9090>>ASSIGN
XSC$ASSOCIATE.CTXT$
      8327**DCL      9060>>ASSIGN   9069>>ASSIGN
XSC$ASSOCIATE.ERRDEF
      8286**DCL      8306--REDEF
XSC$GENERIC.CCID
      8219**DCL      9094>>ASSIGN
XSC$GENERIC.ERRDEF
      8221**DCL      8241--REDEF
XSC$GENERIC.ERROR
      8241**DCL      9098<<ASSIGN
XSC$P_ABORT.ERRDEF
      8356**DCL      8376--REDEF
XSC$RELEASE.ERRDEF
      8415**DCL      8435--REDEF
XSC$U_ABORT.ERRDEF
      8474**DCL      8494--REDEF
XSC_SOURCE
      1186**DCL      9063--ASSIGN   9071--ASSIGN
XSC_SOURCE.NSAP.ADDRESS_N
      1447**DCL      1448--REDEF
XSC_TARGET
      1469**DCL      9062--ASSIGN   9072--ASSIGN
XSC_TARGET.NSAP.ADDRESS_N
      1730**DCL      1731--REDEF
XSC_XSP_ASN1_FPT
PL6.E3A0      #010=XSC$PSEND File=XSC$ACSE.:XSA1TSI                              WED 10/01/97 11:53 Page:438
      2111**DCL      9088>>ASSIGN
XSC_XSP_ASN1_FPT.C0
      2117**DCL      2117--REDEF
XSC_XSP_ASN1_FPT.DAT$
      2119**DCL      2119--REDEF
XSC_XSP_ASN1_FPT.N0
      2118**DCL      2118--REDEF
XSC_XSP_ASN1_FPT.R0
      2116**DCL      2117--REDEF
XSP$ACTIVITY_DISCARD.ERRDEF
      4491**DCL      4511--REDEF
XSP$ACTIVITY_END.ERRDEF
      4553**DCL      4573--REDEF
XSP$ACTIVITY_INTERRUPT.ERRDEF
      4614**DCL      4634--REDEF
XSP$ACTIVITY_RESUME.ERRDEF
      4678**DCL      4698--REDEF
XSP$ACTIVITY_START.ERRDEF
      4768**DCL      4788--REDEF
XSP$ALTER_CONTEXT.ERRDEF
      4837**DCL      4857--REDEF
XSP$CAPABILITY_DATA.ERRDEF
      4898**DCL      4918--REDEF
XSP$CONNECT
      4947**DCL      9058<<ASSIGN   9067<<ASSIGN
XSP$CONNECT.CALLED$
      5042**DCL      5043--REDEF    9063<<ASSIGN
XSP$CONNECT.CALLING$
      5036**DCL      9062<<ASSIGN   9071<<ASSIGN
XSP$CONNECT.CTXT$
      5035**DCL      9061<<ASSIGN   9070<<ASSIGN
XSP$CONNECT.DFLT$
      5032**DCL      5033--REDEF    9060<<ASSIGN   9069<<ASSIGN
XSP$CONNECT.ERRDEF
      5001**DCL      5021--REDEF
XSP$CONNECT.FNC
PL6.E3A0      #010=XSC$PSEND File=XSC$ACSE.:XSA1TSI                              WED 10/01/97 11:53 Page:439
      4961**DCL      9059<<ASSIGN   9068<<ASSIGN
XSP$CONNECT.RESPONDING$
      5043**DCL      9072<<ASSIGN
XSP$CONNECT.SFU.FD
      5064**DCL      9064<<ASSIGN   9073<<ASSIGN
XSP$CONTROL_GIVE.ERRDEF
      5138**DCL      5158--REDEF
XSP$DATA.ERRDEF
      5195**DCL      5215--REDEF
XSP$EXPEDITED_DATA.ERRDEF
      5253**DCL      5273--REDEF
XSP$GENERIC
      4385**DCL      9096<>CALL
XSP$GENERIC.DATA$
      4461**DCL      9092<<ASSIGN
XSP$GENERIC.ERRDEF
      4431**DCL      4451--REDEF
XSP$GENERIC.ERROR
      4451**DCL      9098>>ASSIGN
XSP$GENERIC.PCID
      4392**DCL      9094<<ASSIGN
XSP$PRESENTATION
      9047**DCL-ENT  9096--CALL
XSP$P_ABORT.ERRDEF
      5312**DCL      5332--REDEF
XSP$P_EXCEPTION_REPORT.ERRDEF
      5370**DCL      5390--REDEF
XSP$RELEASE
      5418**DCL      9075<<ASSIGN   9079<<ASSIGN
XSP$RELEASE.ERRDEF
      5428**DCL      5448--REDEF
XSP$RELEASE.FNC
      5424**DCL      9076<<ASSIGN   9080<<ASSIGN
XSP$RESYNCHRONIZE.ERRDEF
      5530**DCL      5550--REDEF
XSP$SYNC_MAJOR.ERRDEF
PL6.E3A0      #010=XSC$PSEND File=XSC$ACSE.:XSA1TSI                              WED 10/01/97 11:53 Page:440
      5597**DCL      5617--REDEF
XSP$SYNC_MINOR.ERRDEF
      5663**DCL      5683--REDEF
XSP$TOKEN_GIVE.ERRDEF
      5762**DCL      5782--REDEF
XSP$TOKEN_PLEASE.ERRDEF
      5858**DCL      5878--REDEF
XSP$TYPED_DATA.ERRDEF
      5916**DCL      5936--REDEF
XSP$U_ABORT
      5965**DCL      9082<<ASSIGN
XSP$U_ABORT.ERRDEF
      5974**DCL      5994--REDEF
XSP$U_ABORT.FNC
      5971**DCL      9083<<ASSIGN
XSP$U_EXCEPTION_REPORT.ERRDEF
      6033**DCL      6053--REDEF
XSP_ACTIVITY_DISCARD.ERRDEF
      6190**DCL      6210--REDEF
XSP_ACTIVITY_END.ERRDEF
      6252**DCL      6272--REDEF
XSP_ACTIVITY_INTERRUPT.ERRDEF
      6313**DCL      6333--REDEF
XSP_ACTIVITY_RESUME.ERRDEF
      6377**DCL      6397--REDEF
XSP_ACTIVITY_START.ERRDEF
      6467**DCL      6487--REDEF
XSP_ALTER_CONTEXT.ERRDEF
      6536**DCL      6556--REDEF
XSP_CAPABILITY_DATA.ERRDEF
      6597**DCL      6617--REDEF
XSP_CONNECT
      6646**DCL      9058>>ASSIGN   9067>>ASSIGN
XSP_CONNECT.CALLED$
      6741**DCL      6742--REDEF
XSP_CONNECT.DFLT$
PL6.E3A0      #010=XSC$PSEND File=XSC$ACSE.:XSA1TSI                              WED 10/01/97 11:53 Page:441
      6731**DCL      6732--REDEF
XSP_CONNECT.ERRDEF
      6700**DCL      6720--REDEF
XSP_CONTROL_GIVE.ERRDEF
      6837**DCL      6857--REDEF
XSP_DATA.ERRDEF
      6894**DCL      6914--REDEF
XSP_EXPEDITED_DATA.ERRDEF
      6952**DCL      6972--REDEF
XSP_GENERIC.ERRDEF
      6130**DCL      6150--REDEF
XSP_P_ABORT.ERRDEF
      7011**DCL      7031--REDEF
XSP_P_EXCEPTION_REPORT.ERRDEF
      7069**DCL      7089--REDEF
XSP_RELEASE
      7117**DCL      9075>>ASSIGN   9079>>ASSIGN
XSP_RELEASE.ERRDEF
      7127**DCL      7147--REDEF
XSP_RESYNCHRONIZE.ERRDEF
      7229**DCL      7249--REDEF
XSP_SYNC_MAJOR.ERRDEF
      7296**DCL      7316--REDEF
XSP_SYNC_MINOR.ERRDEF
      7362**DCL      7382--REDEF
XSP_TOKEN_GIVE.ERRDEF
      7461**DCL      7481--REDEF
XSP_TOKEN_PLEASE.ERRDEF
      7557**DCL      7577--REDEF
XSP_TYPED_DATA.ERRDEF
      7615**DCL      7635--REDEF
XSP_U_ABORT
      7664**DCL      9082>>ASSIGN
XSP_U_ABORT.ERRDEF
      7673**DCL      7693--REDEF
XSP_U_EXCEPTION_REPORT.ERRDEF
PL6.E3A0      #010=XSC$PSEND File=XSC$ACSE.:XSA1TSI                              WED 10/01/97 11:53 Page:442
      7732**DCL      7752--REDEF
PL6.E3A0      #010=XSC$PSEND File=XSC$ACSE.:XSA1TSI                              WED 10/01/97 11:53 Page:443
              *** CROSS REFERENCE LISTING ***
    **     DENOTES     IDENTIFIER DEFINITION
    <<                 IDENTIFIER'S VALUE SET
    >>                 IDENTIFIER'S VALUE USED
    <>                 IDENTIFIER SET AND/OR USED
    --                 IDENTIFIER REFERENCED
PL6.E3A0      #010=XSC$PSEND File=XSC$ACSE.:XSA1TSI                              WED 10/01/97 11:53 Page:444
              MINI UREF LISTING

XSC$PSEND      12**PROC

PL6.E3A0      #011=XSC$DUMPFPT File=XSC$ACSE.:XSA1TSI                            WED 10/01/97 11:53 Page:445
     2211        1        /*T***********************************************************/
     2212        2        /*T*                                                         */
     2213        3        /*T* Copyright (c) Bull HN Information Systems Inc., 1997    */
     2214        4        /*T*                                                         */
     2215        5        /*T***********************************************************/
     2216        6        /*F*    NAME:   XSC$DUMPFPT
     2217        7
     2218        8        */
     2219        9        XSC$DUMPFPT: PROC( XSC$GENERIC);
     2220       10        %INCLUDE CP_6;
     2221     5569            %FPT_WRITE( FPTN=FPT_DUMPFPT, DCB=M$DO, BUF=XSS_SCRITCH);
     2222     5600        %INCLUDE XSS_SESSION_E;
     2223     6165        %INCLUDE XSP_PRESENTATION_E;
     2224     6264        %INCLUDE XSC_ACSE_E;
     2225     6342        %INCLUDE XSC_ACSE_M;
     2226     6651            %XSC$GENERIC( STCLASS="");
     2227     6710
     2228     6711    1       DCL XSS_SCRITCH CHAR(80) SYMREF;
     2229     6712
     2230     6713    1       DCL I SBIN;
     2231     6714    1       DCL M$DO DCB;
     2232     6715    1       DCL CKID CHAR(2);
     2233     6716    1       DCL FNCGRP CHAR(15) CONSTANT INIT( 'BUGAscRelUAbPAb');
     2234     6717    1       DCL FNCTYP CHAR(15) CONSTANT INIT( 'BUGReqIndRspCnf');
     2235     6718    1       DCL FNCMAP(0:11) UBIN BYTE CONSTANT INIT(
     2236     6719    1           0,
     2237     6720    1           65, 129, 193, 257,
     2238     6721    1           66, 130, 194, 258,
     2239     6722    1           67, 131,
     2240     6723    1               132) CALIGNED;
     2241     6724
     2242     6725    1       CALL BINCHAR( CKID, XSC$GENERIC.CCID);
     2243     6726    1       I = FNCMAP( XSC$GENERIC.FNC);
     2244     6727    1       CALL INSERT( XSS_SCRITCH, , , '          ', CKID, ' A',
     2245     6728    1               SUBSTR( FNCGRP, 3 * MOD( I, 64), 3),
     2246     6729    1               SUBSTR( FNCTYP, 3 * ( I / 64), 3));
     2247     6730    1       FPT_DUMPFPT.BUF_.BOUND = 19;
PL6.E3A0      #011=XSC$DUMPFPT File=XSC$ACSE.:XSA1TSI                            WED 10/01/97 11:53 Page:446
     2248     6731    1       CALL M$WRITE( FPT_DUMPFPT);
     2249     6732    1       RETURN;
     2250     6733
     2251     6734    1       END XSC$DUMPFPT;

PL6.E3A0      #011=XSC$DUMPFPT File=XSC$ACSE.:XSA1TSI                            WED 10/01/97 11:53 Page:447
--  Include file information  --

   XSC_ACSE_M.:XSA1TOU  is referenced.
   XSC_ACSE_E.:XSA1TOU  is referenced.
   XSP_PRESENTATION_E.:XSA1TOU  is referenced.
   XSS_SESSION_E.:XSA1TOU  is referenced.
   CP_6_C.:LIB_E05  is referenced.
   CP_6.:LIB_E05  cannot be made into a system file and is referenced.
      No diagnostics issued in procedure XSC$DUMPFPT.

   Procedure XSC$DUMPFPT requires 47 words for executable code.
   Procedure XSC$DUMPFPT requires 8 words of local(AUTO) storage.

    No errors detected in file XSC$ACSE.:XSA1TSI    .

PL6.E3A0      #011=XSC$DUMPFPT File=XSC$ACSE.:XSA1TSI                            WED 10/01/97 11:53 Page:448

 Object Unit name= XSC$DUMPFPT                                File name= XSC$ACSE.:XSA1TOU
 UTS= OCT 01 '97 11:53:53.44 WED                              Compiler= PL-6/E31         Sev=      00
 SharedLib= :SHARED_SYSTEM                                    Alt SharedLib=


    ****  Control sections  ****

 Sect   Type Bound  Init  Size OctSiz  Section name(segment info)
    0   DCB   even  none     0      0  M$UC
    1   Data  even  none    12     14  XSC$DUMPFPT
    2   DCB   even  none     0      0  M$DO
    3  RoData even  UTS     15     17  XSC$DUMPFPT
    4   Proc  even  none    47     57  XSC$DUMPFPT
    5  RoData even  none     1      1  XSC$DUMPFPT

    ****  Entry defs  ****

                              Check   Calling
                             calling  sequence
  Sect OctLoc Primary Altret sequence   type   Parms  Name
     4      0   yes            yes      Std        1  XSC$DUMPFPT

  ****  Entry refs  ****

         Check        Calling
        calling       sequence
Altret sequence SRef   type   Args  Name
                       nStd      0 X66_AUTO_1
                       nStd      0 X66_ARET

  ****  Data refs  ****

  Flags:  r = read only, s = secondary
Flgs Name                             Flgs Name                             Flgs Name
     M$UC                                  XSS_SCRITCH                           M$DO
PL6.E3A0      #011=XSC$DUMPFPT File=XSC$ACSE.:XSA1TSI                            WED 10/01/97 11:53 Page:449

  ****  Segment refs  ****

  Flags:  r = read only, s = secondary
Flgs Name                             Flgs Name                             Flgs Name
     ISSID                                 NULLSID
PL6.E3A0      #011=XSC$DUMPFPT File=XSC$ACSE.:XSA1TSI                            WED 10/01/97 11:53 Page:450


     2211        1        /*T***********************************************************/
     2212        2        /*T*                                                         */
     2213        3        /*T* Copyright (c) Bull HN Information Systems Inc., 1997    */
     2214        4        /*T*                                                         */
     2215        5        /*T***********************************************************/
     2216        6        /*F*    NAME:   XSC$DUMPFPT
     2217        7
     2218        8        */
     2219        9        XSC$DUMPFPT: PROC( XSC$GENERIC);

      9  4 000000   000000 700200 xent  XSC$DUMPFPT  TSX0  ! X66_AUTO_1
         4 000001   000010 000001                    ZERO    8,1

     2220       10        %INCLUDE CP_6;
     2221     5569            %FPT_WRITE( FPTN=FPT_DUMPFPT, DCB=M$DO, BUF=XSS_SCRITCH);
     2222     5600        %INCLUDE XSS_SESSION_E;
     2223     6165        %INCLUDE XSP_PRESENTATION_E;
     2224     6264        %INCLUDE XSC_ACSE_E;
     2225     6342        %INCLUDE XSC_ACSE_M;
     2226     6651            %XSC$GENERIC( STCLASS="");
     2227     6710
     2228     6711    1       DCL XSS_SCRITCH CHAR(80) SYMREF;
     2229     6712
     2230     6713    1       DCL I SBIN;
     2231     6714    1       DCL M$DO DCB;
     2232     6715    1       DCL CKID CHAR(2);
     2233     6716    1       DCL FNCGRP CHAR(15) CONSTANT INIT( 'BUGAscRelUAbPAb');
     2234     6717    1       DCL FNCTYP CHAR(15) CONSTANT INIT( 'BUGReqIndRspCnf');
     2235     6718    1       DCL FNCMAP(0:11) UBIN BYTE CONSTANT INIT(
     2236     6719    1           0,
     2237     6720    1           65, 129, 193, 257,
     2238     6721    1           66, 130, 194, 258,
     2239     6722    1           67, 131,
     2240     6723    1               132) CALIGNED;
     2241     6724
     2242     6725    1       CALL BINCHAR( CKID, XSC$GENERIC.CCID);
PL6.E3A0      #011=XSC$DUMPFPT File=XSC$ACSE.:XSA1TSI                            WED 10/01/97 11:53 Page:451

   6725  4 000002   200003 470500                    LDP0    @XSC$GENERIC,,AUTO
         4 000003   000000 236100                    LDQ     0,,PR0
         4 000004   000022 772000                    QRL     18
         4 000005   000777 376007                    ANQ     511,DL
         4 000006   000000 235003                    LDA     0,DU
         4 000007   200006 757100                    STAQ    CKID+1,,AUTO
         4 000010   000100 301500                    BTD
         4 000011   200006 000010                    NDSC9   CKID+1,,AUTO             cn=0,s=lsgnf,sf=0,n=8
         4 000012   200005 030002                    NDSC9   CKID,,AUTO               cn=0,s=nosgn,sf=0,n=2

     2243     6726    1       I = FNCMAP( XSC$GENERIC.FNC);

   6726  4 000013   000000 236100                    LDQ     0,,PR0
         4 000014   000033 772000                    QRL     27
         4 000015   000100 101406                    MRL     fill='000'O
         4 000016   000010 000001 3                  ADSC9   FNCMAP,Q                 cn=0,n=1
         4 000017   200004 000004                    ADSC9   I,,AUTO                  cn=0,n=4

     2244     6727    1       CALL INSERT( XSS_SCRITCH, , , '          ', CKID, ' A',

   6727  4 000020   200004 236100                    LDQ     I,,AUTO
         4 000021   000100 506007                    DIV     64,DL
         4 000022   200004 236100                    LDQ     I,,AUTO
         4 000023   200006 755100                    STA     CKID+1,,AUTO
         4 000024   000100 506007                    DIV     64,DL
         4 000025   040000 100400                    MLR     fill='040'O
         4 000026   000013 000012 3                  ADSC9   FNCMAP+3                 cn=0,n=10
         4 000027   000000 000012 xsym               ADSC9   XSS_SCRITCH              cn=0,n=10
         4 000030   200005 220100                    LDX0    CKID,,AUTO
         4 000031   000002 440000 xsym               SXL0    XSS_SCRITCH+2
         4 000032   000016 221000 3                  LDX1    FNCMAP+6
         4 000033   000003 741000 xsym               STX1    XSS_SCRITCH+3
         4 000034   200007 756100                    STQ     CKID+2,,AUTO
         4 000035   200006 236100                    LDQ     CKID+1,,AUTO
         4 000036   000003 402007                    MPY     3,DL
         4 000037   040000 100406                    MLR     fill='040'O
PL6.E3A0      #011=XSC$DUMPFPT File=XSC$ACSE.:XSA1TSI                            WED 10/01/97 11:53 Page:452
         4 000040   000000 000003 3                  ADSC9   FNCGRP,Q                 cn=0,n=3
         4 000041   000003 400003 xsym               ADSC9   XSS_SCRITCH+3            cn=2,n=3
         4 000042   200007 236100                    LDQ     CKID+2,,AUTO
         4 000043   000003 402007                    MPY     3,DL
         4 000044   040000 100406                    MLR     fill='040'O
         4 000045   000004 000003 3                  ADSC9   FNCTYP,Q                 cn=0,n=3
         4 000046   000004 200077 xsym               ADSC9   XSS_SCRITCH+4            cn=1,n=63

     2245     6728    1               SUBSTR( FNCGRP, 3 * MOD( I, 64), 3),
     2246     6729    1               SUBSTR( FNCTYP, 3 * ( I / 64), 3));
     2247     6730    1       FPT_DUMPFPT.BUF_.BOUND = 19;

   6730  4 000047   000004 236000 1                  LDQ     FPT_DUMPFPT+4
         4 000050   177777 376007                    ANQ     65535,DL
         4 000051   000000 276000 5                  ORQ     0
         4 000052   000004 756000 1                  STQ     FPT_DUMPFPT+4

     2248     6731    1       CALL M$WRITE( FPT_DUMPFPT);

   6731  4 000053   000000 630400 1                  EPPR0   FPT_DUMPFPT
         4 000054   040001 713400                    CLIMB   write
         4 000055   401400 401760                    pmme    nvectors=4

     2249     6732    1       RETURN;

   6732  4 000056   000000 702200 xent               TSX2  ! X66_ARET

FPT_DUMPFPT
 Sect OctLoc
   1     000   000003 777640   000010 006000   000000 177640   000000 006014    ................
   1     004   000023 777640   000000 006000   000000 177640   000000 006014    ................
   1     010   000000 400400   000000 000000   000000 000000   000000 000000    ................

FNCGRP
 Sect OctLoc
   3     000   102125 107101   163143 122145   154125 101142   120101 142***    BUGAscRelUAbPAb.

PL6.E3A0      #011=XSC$DUMPFPT File=XSC$ACSE.:XSA1TSI                            WED 10/01/97 11:53 Page:453
FNCTYP
 Sect OctLoc
   3     004   102125 107122   145161 111156   144122 163160   103156 146***    BUGReqIndRspCnf.

FNCMAP
 Sect OctLoc
   3     010   000101 201301   401102 202302   402103 203204                    .A...B...C..

(unnamed)
 Sect OctLoc
   3     013   040040 040040   040040 040040   040040 040040   040101 040040                 A

(unnamed)
 Sect OctLoc
   5     000   000004 600000                                                    ....
     2250     6733
     2251     6734    1       END XSC$DUMPFPT;

PL6.E3A0      #011=XSC$DUMPFPT File=XSC$ACSE.:XSA1TSI                            WED 10/01/97 11:53 Page:454
--  Include file information  --

   XSC_ACSE_M.:XSA1TOU  is referenced.
   XSC_ACSE_E.:XSA1TOU  is referenced.
   XSP_PRESENTATION_E.:XSA1TOU  is referenced.
   XSS_SESSION_E.:XSA1TOU  is referenced.
   CP_6_C.:LIB_E05  is referenced.
   CP_6.:LIB_E05  cannot be made into a system file and is referenced.
      No diagnostics issued in procedure XSC$DUMPFPT.
PL6.E3A0      #011=XSC$DUMPFPT File=XSC$ACSE.:XSA1TSI                            WED 10/01/97 11:53 Page:455

 **** Variables and constants ****

  ****  Section 001  Data  XSC$DUMPFPT

  ****  Scalars and arrays  ****
OctLoc.c.b A Datatyp(siz) R M Lvl/name                 OctLoc.c.b A Datatyp(siz) R M Lvl/name

     0-0-0/d STRC(432)   r     1 FPT_DUMPFPT

  ****  Section 003 RoData XSC$DUMPFPT

  ****  Scalars and arrays  ****
OctLoc.c.b A Datatyp(siz) R M Lvl/name                 OctLoc.c.b A Datatyp(siz) R M Lvl/name

     0-0-0/c CHAR(15)    r     1 FNCGRP                    10-0-0/c UBIN(9)     r     1 FNCMAP(0:11)
     4-0-0/c CHAR(15)    r     1 FNCTYP

  ****  Auto variables  ****

  ****  Scalars and arrays  ****
OctLoc.c.b A Datatyp(siz) R M Lvl/name                 OctLoc.c.b A Datatyp(siz) R M Lvl/name

     3-0-0/w PTR         r     1 @XSC$GENERIC               5-0-0/c CHAR(2)     r     1 CKID
     4-0-0/w SBIN        r     1 I                         *0-0-0/w STRC(504)   r     1 XSC$GENERIC

  ****  SYMREF variables  ****

  ****  Scalars and arrays  ****
OctLoc.c.b A Datatyp(siz) R M Lvl/name                 OctLoc.c.b A Datatyp(siz) R M Lvl/name

     0-0-0/c CHAR(80)    r     1 XSS_SCRITCH

  ****  BASED and DCB variables  ****

  ****  Scalars and arrays  ****
OctLoc.c.b A Datatyp(siz) R M Lvl/name                 OctLoc.c.b A Datatyp(siz) R M Lvl/name

PL6.E3A0      #011=XSC$DUMPFPT File=XSC$ACSE.:XSA1TSI                            WED 10/01/97 11:53 Page:456
     0-0-0N  NULL        r     1 M$DO


   Procedure XSC$DUMPFPT requires 47 words for executable code.
   Procedure XSC$DUMPFPT requires 8 words of local(AUTO) storage.

    No errors detected in file XSC$ACSE.:XSA1TSI    .
PL6.E3A0      #011=XSC$DUMPFPT File=XSC$ACSE.:XSA1TSI                            WED 10/01/97 11:53 Page:457
          *** CROSS REFERENCE LISTING ***
**     DENOTES     IDENTIFIER DEFINITION
<<                 IDENTIFIER'S VALUE SET
>>                 IDENTIFIER'S VALUE USED
<>                 IDENTIFIER SET AND/OR USED
--                 IDENTIFIER REFERENCED
PL6.E3A0      #011=XSC$DUMPFPT File=XSC$ACSE.:XSA1TSI                            WED 10/01/97 11:53 Page:458
          MINI XREF LISTING

CKID
      6715**DCL      6725<<CALLBLT  6727>>CALLBLT
FNCGRP
      6716**DCL      6727>>CALLBLT
FNCMAP
      6718**DCL      6726>>ASSIGN
FNCTYP
      6717**DCL      6727>>CALLBLT
FPT_DUMPFPT
      5586**DCL      6731<>CALL
FPT_DUMPFPT.BUF_.BOUND
      5586**DCL      6730<<ASSIGN
FPT_DUMPFPT.STATION_
      5588**DCL      5588--REDEF
FPT_DUMPFPT.V
      5589**DCL      5586--DCLINIT
FPT_DUMPFPT.V.DVBYTE.VFC#
      5595**DCL      5595--REDEF
I
      6713**DCL      6726<<ASSIGN   6727>>CALLBLT  6727>>CALLBLT
M$WRITE
      5498**DCL-ENT  6731--CALL
XSC$GENERIC
      6668**DCL         9--PROC
XSC$GENERIC.CCID
      6675**DCL      6725>>CALLBLT
XSC$GENERIC.ERRDEF
      6677**DCL      6697--REDEF
XSC$GENERIC.FNC
      6674**DCL      6726>>ASSIGN
XSS_SCRITCH
      6711**DCL      5587--DCLINIT  5588--DCLINIT  6727<<CALLBLT
PL6.E3A0      #011=XSC$DUMPFPT File=XSC$ACSE.:XSA1TSI                            WED 10/01/97 11:53 Page:459
              *** CROSS REFERENCE LISTING ***
    **     DENOTES     IDENTIFIER DEFINITION
    <<                 IDENTIFIER'S VALUE SET
    >>                 IDENTIFIER'S VALUE USED
    <>                 IDENTIFIER SET AND/OR USED
    --                 IDENTIFIER REFERENCED
PL6.E3A0      #011=XSC$DUMPFPT File=XSC$ACSE.:XSA1TSI                            WED 10/01/97 11:53 Page:460
              MINI UREF LISTING

M$ACCT    5514**DCL-ENT
M$ACTIVATE    5517**DCL-ENT
M$ALIB    5510**DCL-ENT
M$ASUSER    5512**DCL-ENT
M$ATTACH    5519**DCL-ENT
M$BADPP    5537**DCL-ENT
M$CGCTL    5518**DCL-ENT
M$CGINFO    5518**DCL-ENT
M$CHECK    5499**DCL-ENT
M$CHGUNIT    5557**DCL-ENT
M$CLOSE    5497**DCL-ENT
M$CLRSTK    5555**DCL-ENT
M$CMDVAR    5566**DCL-ENT
M$CONFIG    5527**DCL-ENT
M$CORRES    5502**DCL-ENT
M$CPEXIT    5511**DCL-ENT
M$CVM    5535**DCL-ENT
M$CVOL    5500**DCL-ENT
M$DCLFLD    5527**DCL-ENT
M$DEACTIVATE    5517**DCL-ENT
M$DELREC    5499**DCL-ENT
M$DEQ    5564**DCL-ENT
M$DETACH    5519**DCL-ENT
M$DEVICE    5501**DCL-ENT
M$DISPLAY    5564**DCL-ENT
M$DISPRES    5504**DCL-ENT
M$DLIB    5510**DCL-ENT
M$DO    6714**DCL
M$DRIBBLE    5527**DCL-ENT
M$DRTN    5555**DCL-ENT
M$DSUSER    5512**DCL-ENT
M$ENQ    5563**DCL-ENT
PL6.E3A0      #011=XSC$DUMPFPT File=XSC$ACSE.:XSA1TSI                            WED 10/01/97 11:53 Page:461
M$EOM    5522**DCL-ENT
M$ERASE    5528**DCL-ENT
M$ERR    5509**DCL-ENT
M$ERRMSG    5560**DCL-ENT
M$EVENT    5552**DCL-ENT
M$EXHUME    5561**DCL-ENT
M$EXIT    5509**DCL-ENT
M$EXTEND    5501**DCL-ENT
M$FDP    5533**DCL-ENT
M$FDS    5532**DCL-ENT
M$FEBOOT    5525**DCL-ENT
M$FECTL    5526**DCL-ENT
M$FEDUMP    5525**DCL-ENT
M$FID    5560**DCL-ENT
M$FINDPROC    5514**DCL-ENT
M$FSUSER    5512**DCL-ENT
M$FVP    5534**DCL-ENT
M$FWCG    5518**DCL-ENT
M$GBPL    5538**DCL-ENT
M$GDDL    5534**DCL-ENT
M$GDP    5533**DCL-ENT
M$GDS    5532**DCL-ENT
M$GETDCB    5503**DCL-ENT
M$GETMOUSE    5543**DCL-ENT
M$GETPM    5544**DCL-ENT
M$GJOB    5562**DCL-ENT
M$GLINEATTR    5522**DCL-ENT
M$GOODPP    5537**DCL-ENT
M$GPLATEN    5530**DCL-ENT
M$GPROMPT    5529**DCL-ENT
M$GTRMATTR    5523**DCL-ENT
M$GTRMCTL    5521**DCL-ENT
M$GTRMTAB    5524**DCL-ENT
M$GVP    5533**DCL-ENT
M$HELP    5560**DCL-ENT
M$INT    5552**DCL-ENT
PL6.E3A0      #011=XSC$DUMPFPT File=XSC$ACSE.:XSA1TSI                            WED 10/01/97 11:53 Page:462
M$INTRTN    5513**DCL-ENT
M$IOQ    5548**DCL-ENT
M$JOBSTATS    5562**DCL-ENT
M$KEYIN    5502**DCL-ENT
M$LDEV    5497**DCL-ENT
M$LDTRC    5510**DCL-ENT
M$LIMIT    5503**DCL-ENT
M$LINES    5502**DCL-ENT
M$LINK    5509**DCL-ENT
M$MADMUCK    5505**DCL-ENT
M$MAKUSER    5536**DCL-ENT
M$MBS    5504**DCL-ENT
M$MDFFLD    5528**DCL-ENT
M$MERC    5553**DCL-ENT
M$MERCS    5554**DCL-ENT
M$MIRROR    5548**DCL-ENT
M$MONINFO    5565**DCL-ENT
M$MPL    5538**DCL-ENT
M$NODEINFO    5529**DCL-ENT
M$NXTUSR    5563**DCL-ENT
M$OCMSG    5561**DCL-ENT
M$OLAY    5509**DCL-ENT
M$OPEN    5497**DCL-ENT
M$PAS    5538**DCL-ENT
M$PATHCON    5561**DCL-ENT
M$PDS    5532**DCL-ENT
M$PFIL    5499**DCL-ENT
M$PLATEN    5523**DCL-ENT
M$PRECORD    5501**DCL-ENT
M$PROCNAME    5514**DCL-ENT
M$PROFILE    5525**DCL-ENT
M$PROMPT    5521**DCL-ENT
M$RACST    5505**DCL-ENT
M$RDSYSLOG    5546**DCL-ENT
M$READ    5498**DCL-ENT
M$RELDCB    5503**DCL-ENT
PL6.E3A0      #011=XSC$DUMPFPT File=XSC$ACSE.:XSA1TSI                            WED 10/01/97 11:53 Page:463
M$RELRES    5504**DCL-ENT
M$RELSTARF    5506**DCL-ENT
M$REM    5506**DCL-ENT
M$RENV    5553**DCL-ENT
M$REQUIRE    5505**DCL-ENT
M$RETRY    5554**DCL-ENT
M$RETRYS    5554**DCL-ENT
M$REW    5500**DCL-ENT
M$RLSFLD    5528**DCL-ENT
M$RPRIV    5556**DCL-ENT
M$RSPP    5535**DCL-ENT
M$RSWITCH    5557**DCL-ENT
M$RUE    5563**DCL-ENT
M$SAD    5536**DCL-ENT
M$SAVE    5512**DCL-ENT
M$SCON    5513**DCL-ENT
M$SCREECH    5511**DCL-ENT
M$SENV    5553**DCL-ENT
M$SETFMA    5497**DCL-ENT
M$SETFP    5526**DCL-ENT
M$SINPUT    5524**DCL-ENT
M$SLCFLD    5529**DCL-ENT
M$SMOUSE    5543**DCL-ENT
M$SMPRT    5535**DCL-ENT
M$SPRIV    5556**DCL-ENT
M$SSC    5536**DCL-ENT
M$SSWITCH    5556**DCL-ENT
M$STATE    5565**DCL-ENT
M$STD    5537**DCL-ENT
M$STIMER    5551**DCL-ENT
M$STLPP    5534**DCL-ENT
M$STRAP    5551**DCL-ENT
M$STRMATTR    5523**DCL-ENT
M$STRMCTL    5521**DCL-ENT
M$STRMTAB    5524**DCL-ENT
M$SYMBIO    5562**DCL-ENT
PL6.E3A0      #011=XSC$DUMPFPT File=XSC$ACSE.:XSA1TSI                            WED 10/01/97 11:53 Page:464
M$SYSCON    5548**DCL-ENT
M$SYSID    5566**DCL-ENT
M$TDCLOSE    5547**DCL-ENT
M$TDIO    5547**DCL-ENT
M$TDOPEN    5546**DCL-ENT
M$TDREQCPU    5547**DCL-ENT
M$TEMPWROC    5541**DCL-ENT
M$TIME    5564**DCL-ENT
M$TRAP    5551**DCL-ENT
M$TRMISC    5526**DCL-ENT
M$TRMPRG    5522**DCL-ENT
M$TRTN    5555**DCL-ENT
M$TRUNC    5498**DCL-ENT
M$TTIMER    5551**DCL-ENT
M$UC    5521**DCL
M$UMPL    5538**DCL-ENT
M$UNFID    5560**DCL-ENT
M$UNLATCH    5517**DCL-ENT
M$UNSHARE    5514**DCL-ENT
M$USRFIELD    5557**DCL-ENT
M$VIRTUAL    5532**DCL-ENT
M$WAIT    5555**DCL-ENT
M$WEOF    5500**DCL-ENT
M$WRSYSLOG    5546**DCL-ENT
M$XCON    5552**DCL-ENT
M$XCONRTN    5513**DCL-ENT
M$XEQTIME    5565**DCL-ENT
M$XFLUSH    5506**DCL-ENT
M$XMOUSE    5543**DCL-ENT
M$XXX    5509**DCL-ENT
M$YC    5511**DCL-ENT
XSC$DUMPFPT       9**PROC
