PL6.E3A0      #007=XSC$DECODE File=XSC$ACSE.:XSA1TSI                             WED 10/01/97 11:52 Page:188
      913        1        /*T***********************************************************/
      914        2        /*T*                                                         */
      915        3        /*T* Copyright (c) Bull HN Information Systems Inc., 1997    */
      916        4        /*T*                                                         */
      917        5        /*T***********************************************************/
      918        6        /*F*    NAME:   XSC$DECODE
      919        7
      920        8                XSC$DECODE is called from the ACSE message handler when an incoming
      921        9                message needs to be decoded as an ACSE PDU.  As decoding takes place
      922       10                an ACSE parameter block is filled in.  The calling routine takes
      923       11                further action with the FPT built.  ALTRETURNs if APDU is malformed.
      924       12        */
      925       13        XSC$DECODE: PROC( VBLK, PFPT$) ALTRET;
      926       14        %INCLUDE XSS_SESSION_E;
      927      579        %INCLUDE XSP_PRESENTATION_E;
      928      678        %INCLUDE XSP_PRESENTATION_M;
      929     2164            %XSP$PRIMITIVES( STCLASS="BASED( PFPT$)");
      930     3863            %XSP$CTXTNAME( NAME=CTXT, STCLASS=BASED);
      931     3905            %XSP$CTXTNAME( NAME=ACN, STCLASS=STATIC, CTXT='....................');
      932     3947        %INCLUDE XSC_ACSE_E;
      933     4025        %INCLUDE XSC_ACSE_M;
      934     4334            %XSC$PRIMITIVES( STCLASS="BASED( VBLK.FPT$)");
      935     4647            %XSC_PRIMITIVES( STCLASS=SYMREF);
      936     4960        %INCLUDE XSC_INTERNAL_E;
      937     5048        %INCLUDE XSC_INTERNAL_M;
      938     5393            %XSC$VBLK( NAME=VBLK, STCLASS="");
      939     5499            %ENCDECMACS;
      940     5679        %EQU ITEMMAX = 20;
      941     5680        %EQU MAXDEPTH = 3;
      942     5681        /* in the following TAGxx equates, 32 is added if constructed */
      943     5682        %EQU TAGC1 = (129+32);
      944     5683        %EQU TAGC2 = (130+32);
      945     5684
      946     5685    1       DCL XSC_ITEMCNT SBIN SYMREF;
      947     5686
      948     5687            %ITEM( NAME=SCANITEM, STCLASS=AUTO);              /* THESE TWO LINES..  */
      949     5712            %ITEM( NAME="ITEMLIST(0:%ITEMMAX)", STCLASS=AUTO);/* MUST BE CONTIGUOUS */
PL6.E3A0      #007=XSC$DECODE File=XSC$ACSE.:XSA1TSI                             WED 10/01/97 11:52 Page:189
      950     5737    1       DCL ACN$ PTR;
      951     5738    1       DCL BSRC$ PTR UNAL;
      952     5739    1       DCL BDST$ PTR UNAL;
      953     5740    1       DCL BIT1 BIT(1) BASED UNAL;
      954     5741    1       DCL BIT8 BIT(8) BASED UNAL;
      955     5742    1       DCL BTMP BIT(36);
      956     5743    1       DCL DEPTH SBIN;
      957     5744    1       DCL DSTBYTES CHAR( DSTLEN) BASED CALIGNED;
      958     5745    1       DCL DSTLEN SBIN;
      959     5746    1       DCL I SBIN;
      960     5747    1       DCL INFOLVL SBIN;
      961     5748    1       DCL ITEMCUR SBIN;
      962     5749    1       DCL ITEMNUM SBIN;
      963     5750    1       DCL PDU$ PTR CALIGNED;
      964     5751    1       DCL PDU CHAR(16384) BASED( PDU$) CALIGNED;
      965     5752    1       DCL PDUIDX SBIN;
      966     5753    1       DCL PFPT$ PTR;
      967     5754    1       DCL SRC$ PTR CALIGNED;
      968     5755    1       DCL SRCBYTES CHAR( SRCLEN) BASED CALIGNED;
      969     5756    1       DCL SRCLEN SBIN;
      970     5757    1       DCL TAG SBIN;
      971     5758    1       DCL 1 TAGX REDEF TAG,
      972     5759    1            2 * BIT(28) UNAL,
      973     5760    1            2 CLASS UBIN(2) UNAL,
      974     5761    1            2 CONSTRUCTED BIT(1) UNAL,
      975     5762    1            2 VALUE UBIN(5) UNAL;
      976     5763    1       DCL TEMP SBIN;
      977     5764    1       DCL 1 TWOZEROES CONSTANT,
      978     5765    1            2 X(0:1) UBIN(9) INIT( 0, 0) CALIGNED,
      979     5766    1            2 C REDEF X CHAR(2) CALIGNED;
      980     5767    1       DCL CURRLEN(0:%MAXDEPTH) SBIN;
      981     5768    1       DCL INITLEN(0:%MAXDEPTH) SBIN;
      982     5769
      983     5770    1       ITEMLIST = '0'B;
      984     5771    1       TEMP = VBLK.DATA.SIZE;
      985     5772    1       INITLEN = '0'B;
      986     5773    1       INITLEN(0) = TEMP;
PL6.E3A0      #007=XSC$DECODE File=XSC$ACSE.:XSA1TSI                             WED 10/01/97 11:52 Page:190
      987     5774    1       INITLEN(1) = TEMP;
      988     5775    1       CURRLEN = '0'B;
      989     5776    1       CURRLEN(0) = TEMP;
      990     5777    1       CURRLEN(1) = TEMP;
      991     5778    1       PDU$ = VBLK.DATA.PTR$;
      992     5779    1       PDUIDX = 0;
      993     5780    1       ITEMLIST.Z(0) = 32*512 + TEMP*262144;  /* set up CON and LEN */
      994     5781    1       ITEMLIST.P(0) = PDU$;
      995     5782    1       ITEMNUM = 1;
      996     5783    1       DEPTH = 1;
      997     5784    1       GOTO NEXTBYTE;
      998     5785    1   NEXTLEVEL:
      999     5786    1       DEPTH = DEPTH + 1;
     1000     5787    1       IF DEPTH > %MAXDEPTH THEN
     1001     5788    1           GOTO SCANERR;
     1002     5789    1       CURRLEN( DEPTH) = TEMP;
     1003     5790    1       IF TEMP >= 0 THEN
     1004     5791    1           INITLEN( DEPTH) = TEMP;
     1005     5792    1       ELSE
     1006     5793    1           INITLEN( DEPTH) = -( ITEMNUM - 1);  /* LEN will be fixed at ENDITEM */
     1007     5794    1   NEXTBYTE:
     1008     5795    2       IF CURRLEN( DEPTH) > 0 THEN DO;
     1009     5796    2           IF SUBSTR( PDU, PDUIDX, 2) = TWOZEROES.C THEN
     1010     5797    2               GOTO ENDITEM;
     1011     5798    2           TAG = ASCBIN( SUBSTR( PDU, PDUIDX, 1));
     1012     5799    2           PDUIDX = PDUIDX + 1;
     1013     5800    2           CURRLEN( DEPTH) = CURRLEN( DEPTH) - 1;
     1014     5801    2           CALL GETLEN;  /* parse length of item into TEMP */
     1015     5802    2           IF TEMP >= 0 THEN
     1016     5803    2               ITEMLIST.Z( ITEMNUM) = DEPTH + TAG*512 + TEMP*262144;
     1017     5804    2           ELSE
     1018     5805    2               ITEMLIST.Z( ITEMNUM) = DEPTH + TAG*512;  /* LEN fixed later */
     1019     5806    2           ITEMLIST.P( ITEMNUM) = PINCRC( PDU$, PDUIDX);
     1020     5807    2           ITEMNUM = ITEMNUM + 1;
     1021     5808    2           IF TAGX.CONSTRUCTED THEN
     1022     5809    2               GOTO NEXTLEVEL;
     1023     5810    2           IF TEMP < 0 THEN
PL6.E3A0      #007=XSC$DECODE File=XSC$ACSE.:XSA1TSI                             WED 10/01/97 11:52 Page:191
     1024     5811    2               GOTO SCANERR;  /* indefinite form illegal for primitive */
     1025     5812    2           PDUIDX = PDUIDX + TEMP;
     1026     5813    2           CURRLEN( DEPTH) = CURRLEN( DEPTH) - TEMP;
     1027     5814    2           IF VBLK.DATA.SIZE > PDUIDX THEN
     1028     5815    2               GOTO NEXTBYTE;
     1029     5816    2           END;
     1030     5817    1   ENDITEM:
     1031     5818    2       IF INITLEN( DEPTH) < 0 THEN DO;
     1032     5819                /* have to fix up length of an indefinite-length item */
     1033     5820    2           TEMP = -INITLEN( DEPTH);
     1034     5821    2           ITEMLIST.X.LEN( TEMP) = PDUIDX - POFFC( ITEMLIST.P( TEMP), PDU$);
     1035     5822    2           PDUIDX = PDUIDX + 2;
     1036     5823    2           CURRLEN( DEPTH) = CURRLEN( DEPTH) - 2;
     1037     5824    2           INITLEN( DEPTH) = - ( CURRLEN( DEPTH) + 1);
     1038     5825    2           END;
     1039     5826    1       TEMP = DEPTH;
     1040     5827    1       DEPTH = DEPTH - 1;
     1041     5828    2       IF DEPTH >= 0 THEN DO;
     1042     5829    2           CURRLEN( DEPTH) = CURRLEN( DEPTH) - INITLEN( TEMP);
     1043     5830    2           INITLEN( TEMP) = 0;
     1044     5831    2           GOTO NEXTBYTE;
     1045     5832    2           END;
     1046     5833            /* done scanning the APDU.. now try to decode it item by item */
     1047     5834    1       ACN$ = ADDR( ACN);
     1048     5835    1       XSC_ITEMCNT = -1;  /* make SCAN/LOAD load into SCANITEM, not ITEMLIST */
     1049     5836    1       ITEMCUR = 0;
     1050     5837    1       INFOLVL = 0;
     1051     5838            %SCAN( LVL=0, TYP=NONE, CON=Y, LEN="VBLK.DATA.SIZE");
     1052     5934    1   PFNCCASE:
     1053     5935    2       DO CASE( XSP$GENERIC.FNC);
     1054     5936        %EJECT;
PL6.E3A0      #007=XSC$DECODE File=XSC$ACSE.:XSA1TSI                             WED 10/01/97 11:52 Page:192
     1055     5937        /*****************************************************************************
     1056     5938        *
     1057     5939        *       PCONIND
     1058     5940        *
     1059     5941        *****************************************************************************/
     1060     5942    2           CASE( %XSP_FNC_PCONIND#);  /* should be an AARQ APDU */
     1061     5943                    %SCAN( LVL=1, TAG=A0, IMP=Y, TYP=SEQ);  /* AARQApdu */
     1062     6039    2               VBLK.EVENT = %XSC_CEV_AARQ;
     1063     6040    2               XSC$ASSOCIATE = XSC_ASSOCIATE;
     1064     6041    2               XSC$ASSOCIATE.FNC = %XSC_FNC_AASCIND#;
     1065     6042                    %SCAN( LVL=2, TAG=C0, IMP=Y, TYP=BITSTR, OPT=Y,
     1066     6043                            LEN=1, VAL=BTMP);  /* ProtocolVersion */
     1067     6139    2               IF BTMP ~= '1'B THEN
     1068     6140    2                   GOTO SCANERR;
     1069     6141                    %SCAN( LVL=2, TAG=C1, TYP=OBJID,
     1070     6142                            LEN=20, VAL=ACN$);  /* ApplicationContextName */
     1071     6238                    %SCAN( LVL=2, TAG=C2, TYP=ANY, OPT=Y,
     1072     6239                            LEN=64, VAL=NIL);  /* CalledAPTitle */
     1073     6335                    %SCAN( LVL=2, TAG=C3, TYP=ANY, OPT=Y,
     1074     6336                            LEN=64, VAL=NIL);  /* CalledAEQualifier */
     1075     6432                    %SCAN( LVL=2, TAG=C4, TYP=INTG, OPT=Y,
     1076     6433                            LEN=4, VAL=TEMP); /* CalledAPInvocationId */
     1077     6529    2               XSC$ASSOCIATE.RAPID = TEMP;
     1078     6530                    %SCAN( LVL=2, TAG=C5, TYP=INTG, OPT=Y,
     1079     6531                            LEN=4, VAL=TEMP); /* CalledAEInvocationId */
     1080     6627    2               XSC$ASSOCIATE.RAEID = TEMP;
     1081     6628                    %SCAN( LVL=2, TAG=C6, TYP=ANY, OPT=Y,
     1082     6629                            LEN=64, VAL=NIL);  /* CallingAPTitle */
     1083     6725                    %SCAN( LVL=2, TAG=C7, TYP=ANY, OPT=Y,
     1084     6726                            LEN=64, VAL=NIL);  /* CallingAEQualifier */
     1085     6822                    %SCAN( LVL=2, TAG=C8, TYP=INTG, OPT=Y,
     1086     6823                            LEN=4, VAL=TEMP);/* CallingAPInvocationId */
     1087     6919    2               XSC$ASSOCIATE.IAPID = TEMP;
     1088     6920                    %SCAN( LVL=2, TAG=C9, TYP=INTG, OPT=Y,
     1089     6921                            LEN=4, VAL=TEMP);/* CallingAEInvocationId */
     1090     7017    2               XSC$ASSOCIATE.IAEID = TEMP;
     1091     7018                    %SCAN( LVL=2, TAG=C29, IMP=Y, TYP=GRFSTR, OPT=Y,
PL6.E3A0      #007=XSC$DECODE File=XSC$ACSE.:XSA1TSI                             WED 10/01/97 11:52 Page:193
     1092     7019                            LEN=64, VAL=NIL);  /* ImplementationData */
     1093     7115    2               XSC$ASSOCIATE.CTXT$ = XSP$CONNECT.CTXT$;
     1094     7116    2               INFOLVL = 2;
     1095     7117        %EJECT;
PL6.E3A0      #007=XSC$DECODE File=XSC$ACSE.:XSA1TSI                             WED 10/01/97 11:52 Page:194
     1096     7118        /*****************************************************************************
     1097     7119        *
     1098     7120        *       PCONCNF
     1099     7121        *
     1100     7122        *****************************************************************************/
     1101     7123    2           CASE( %XSP_FNC_PCONCNF#);  /* should be an AARE APDU */
     1102     7124                    %SCAN( LVL=1, TAG=A1, IMP=Y, TYP=SEQ);  /* AAREApdu */
     1103     7220    2               XSC$ASSOCIATE = XSC_ASSOCIATE;
     1104     7221    2               XSC$ASSOCIATE.FNC = %XSC_FNC_AASCCNF#;
     1105     7222                    %SCAN( LVL=2, TAG=C0, IMP=Y, TYP=BITSTR, OPT=Y,
     1106     7223                            LEN=1, VAL=BTMP);  /* ProtocolVersion */
     1107     7319    2               IF BTMP ~= '1'B THEN
     1108     7320    2                   GOTO SCANERR;
     1109     7321                    %SCAN( LVL=2, TAG=C1, TYP=OBJID,
     1110     7322                            LEN=20, VAL=ACN$);  /* ApplicationContextName */
     1111     7418                    %SCAN( LVL=2, TAG=C2, TYP=INTG,
     1112     7419                            LEN=4, VAL=TEMP);  /* Result */
     1113     7515    2               IF TEMP = %XSC_RSLT_ACCEPTED# THEN
     1114     7516    2                   VBLK.EVENT = %XSC_CEV_AAREP;
     1115     7517    2               ELSE
     1116     7518    2                   VBLK.EVENT = %XSC_CEV_AAREN;
     1117     7519    2               XSC$ASSOCIATE.RESULT = TEMP;
     1118     7520                    %SCAN( LVL=2, TAG=C3, TYP=CHOICE);  /* ResultSourceDiagnostic */
     1119     7616    3               IF ITEMLIST.X.TAG( ITEMCUR) = %TAGC1 THEN DO;
     1120     7617                        %SCAN( LVL=3, TAG=C1, TYP=INTG,
     1121     7618                                LEN=4, VAL=TEMP);  /* ACSEServiceUser */
     1122     7714    3                   END;
     1123     7715    2               ELSE
     1124     7716    3                   IF ITEMLIST.X.TAG( ITEMCUR) = %TAGC2 THEN DO;
     1125     7717                            %SCAN( LVL=3, TAG=C2, TYP=INTG,
     1126     7718                                    LEN=4, VAL=TEMP);  /* ACSEServiceProvider */
     1127     7814    3                       END;
     1128     7815    2                   ELSE
     1129     7816    2                       GOTO SCANERR;
     1130     7817    2               XSC$ASSOCIATE.RSDIAG = TEMP;
     1131     7818                    %SCAN( LVL=2, TAG=C4, TYP=ANY, OPT=Y,
     1132     7819                            LEN=64, VAL=NIL);  /* RespondingAPTitle */
PL6.E3A0      #007=XSC$DECODE File=XSC$ACSE.:XSA1TSI                             WED 10/01/97 11:52 Page:195
     1133     7915                    %SCAN( LVL=2, TAG=C5, TYP=ANY, OPT=Y,
     1134     7916                            LEN=64, VAL=NIL); /* RespondingAEQualifier */
     1135     8012                    %SCAN( LVL=2, TAG=C6, TYP=INTG, OPT=Y,
     1136     8013                            LEN=4, VAL=TEMP);/*RespondingAPInvocationId*/
     1137     8109    2               XSC$ASSOCIATE.RAPID = TEMP;
     1138     8110                    %SCAN( LVL=2, TAG=C7, TYP=INTG, OPT=Y,
     1139     8111                            LEN=4, VAL=TEMP);/*RespondingAEInvocationId*/
     1140     8207    2               XSC$ASSOCIATE.RAEID = TEMP;
     1141     8208                    %SCAN( LVL=2, TAG=C29, IMP=Y, TYP=GRFSTR, OPT=Y,
     1142     8209                            LEN=64, VAL=NIL);  /* ImplementationData */
     1143     8305    2               XSC$ASSOCIATE.CTXT$ = XSP$CONNECT.CTXT$;
     1144     8306    2               INFOLVL = 2;
     1145     8307        %EJECT;
PL6.E3A0      #007=XSC$DECODE File=XSC$ACSE.:XSA1TSI                             WED 10/01/97 11:52 Page:196
     1146     8308        /*****************************************************************************
     1147     8309        *
     1148     8310        *       PRELIND
     1149     8311        *
     1150     8312        *****************************************************************************/
     1151     8313    2           CASE( %XSP_FNC_PRELIND#);  /* should be an RLRQ APDU */
     1152     8314                    %SCAN( LVL=1, TAG=A2, IMP=Y, TYP=SEQ);  /* RLRQApdu */
     1153     8410    2               VBLK.EVENT = %XSC_CEV_RLRQ;
     1154     8411    2               XSC$RELEASE = XSC_RELEASE;
     1155     8412    2               XSC$RELEASE.FNC = %XSC_FNC_ARELIND#;
     1156     8413                    %SCAN( LVL=2, TAG=C0, IMP=Y, TYP=INTG, OPT=Y,
     1157     8414                            LEN=4, VAL=TEMP);  /* Reason */
     1158     8510    2               XSC$RELEASE.REASON = TEMP;
     1159     8511    2               INFOLVL = 2;
     1160     8512        /*****************************************************************************
     1161     8513        *
     1162     8514        *       PRELCNF
     1163     8515        *
     1164     8516        *****************************************************************************/
     1165     8517    2           CASE( %XSP_FNC_PRELCNF#);  /* should be an RLRE APDU */
     1166     8518                    %SCAN( LVL=1, TAG=A3, IMP=Y, TYP=SEQ);  /* RLREApdu */
     1167     8614    2               XSC$RELEASE = XSC_RELEASE;
     1168     8615    2               XSC$RELEASE.FNC = %XSC_FNC_ARELCNF#;
     1169     8616                    %SCAN( LVL=2, TAG=C0, IMP=Y, TYP=INTG, OPT=Y,
     1170     8617                            LEN=4, VAL=TEMP);  /* Reason */
     1171     8713    2               IF TEMP = %XSC_RELRSP_NORMAL# THEN
     1172     8714    2                   VBLK.EVENT = %XSC_CEV_RLREP;
     1173     8715    2               ELSE
     1174     8716    2                   VBLK.EVENT = %XSC_CEV_RLREN;
     1175     8717    2               XSC$RELEASE.REASON = TEMP;
     1176     8718    2               INFOLVL = 2;
     1177     8719        %EJECT;
PL6.E3A0      #007=XSC$DECODE File=XSC$ACSE.:XSA1TSI                             WED 10/01/97 11:52 Page:197
     1178     8720        /*****************************************************************************
     1179     8721        *
     1180     8722        *       PUABIND
     1181     8723        *
     1182     8724        *****************************************************************************/
     1183     8725    2           CASE( %XSP_FNC_PUABIND#);  /* should be an ABRT APDU */
     1184     8726                    %SCAN( LVL=1, TAG=A4, IMP=Y, TYP=SEQ);  /* ABRTApdu */
     1185     8822    2               VBLK.EVENT = %XSC_CEV_ABRT;
     1186     8823    2               XSC$U_ABORT = XSC_U_ABORT;
     1187     8824    2               XSC$U_ABORT.FNC = %XSC_FNC_AUABIND#;
     1188     8825                    %SCAN( LVL=2, TAG=C0, IMP=Y, TYP=INTG,
     1189     8826                            LEN=4, VAL=TEMP);  /* AbortSource */
     1190     8922    2               XSC$U_ABORT.ABRTSRC = TEMP;
     1191     8923    2               INFOLVL = 2;
     1192     8924        /*****************************************************************************
     1193     8925        *
     1194     8926        *       PPABIND
     1195     8927        *
     1196     8928        *****************************************************************************/
     1197     8929    2           CASE( %XSP_FNC_PPABIND#);  /* no APDU for this event */
     1198     8930    2               VBLK.EVENT = %XSC_CEV_PPABIND;
     1199     8931    2               XSC$P_ABORT = XSC_P_ABORT;
     1200     8932    2               XSC$P_ABORT.FNC = %XSC_FNC_APABIND#;
     1201     8933        %EJECT;
PL6.E3A0      #007=XSC$DECODE File=XSC$ACSE.:XSA1TSI                             WED 10/01/97 11:52 Page:198
     1202     8934        /*****************************************************************************
     1203     8935        *
     1204     8936        *       Illegal Presentation function -> error
     1205     8937        *
     1206     8938        *****************************************************************************/
     1207     8939    2           CASE( ELSE);
     1208     8940    2               GOTO SCANERR;
     1209     8941    2           END;
     1210     8942    2       IF INFOLVL > 0 AND ITEMCUR < ITEMNUM THEN DO;
     1211     8943                %SCAN( LVL=INFOLVL, TAG=C30, IMP=Y, TYP=SEQOF, OPT=Y); /* UserInformation */
     1212     9039    3           DO WHILE( ITEMLIST.X.LVL( ITEMCUR) > INFOLVL);
     1213     9040                    /*N* this code assumes SEQOF one EXTRN item */
     1214     9041    3               INFOLVL = INFOLVL + 1;
     1215     9042                    %SCAN( LVL=INFOLVL, TYP=EXTRN,
     1216     9043                            LEN=262143, VAL=NIL);
     1217     9139    3               INFOLVL = INFOLVL - 1;
     1218     9140    3               END;
     1219     9141    2           END;
     1220     9142    1       RETURN;
     1221     9143    1   SCANERR:
     1222     9144            /* An error occurred while decoding the APDU */
     1223     9145    1       ALTRETURN;
     1224     9146        %EJECT;
PL6.E3A0      #007=XSC$DECODE File=XSC$ACSE.:XSA1TSI                             WED 10/01/97 11:52 Page:199
     1225     9147        /*I*    NAME:   SCAN
     1226     9148
     1227     9149                SCAN is called for each item of the APDU expected to be seen.  The
     1228     9150                contents of SCANITEM are compared with the current item.  If they
     1229     9151                match, the associated value is moved from the current item to the
     1230     9152                VAL field indicated in SCANITEM.  Otherwise, heuristics are used to
     1231     9153                figure out if the APDU is in error or we need to skip over optional
     1232     9154                items not supplied in the APDU.
     1233     9155        */
     1234     9156    1   SCAN: PROC ALTRET;
     1235     9157
     1236     9158    2       IF ITEMCUR > ITEMNUM THEN
     1237     9159                /* fell off the end of the APDU */
     1238     9160    2           ALTRETURN;
     1239     9161    2       TEMP = 0;
     1240     9162    2       BTMP = '000000000000'O;
     1241     9163            /* compare LVLs */
     1242     9164    2       IF ITEMLIST.X.LVL( ITEMCUR) < SCANITEM.X.LVL THEN
     1243     9165    2           RETURN;  /* skip ahead in order to resynchronize levels */
     1244     9166    3       IF ITEMLIST.X.LVL( ITEMCUR) = SCANITEM.X.LVL THEN DO;
     1245     9167                /* compare TAGs */
     1246     9168    4           IF ITEMLIST.X.TAG( ITEMCUR) = SCANITEM.X.TAG THEN DO;
     1247     9169                    /* O.K. We have a match!  Now we move the value part of the
     1248     9170                       matched tag-length-value item to the given buffer. */
     1249     9171    5               DO CASE( SCANITEM.X.TYP);
     1250     9172    5                   CASE( %XSC_TYP_NONE,
     1251     9173    5                         %XSC_TYP_NULL,
     1252     9174    5                         %XSC_TYP_EXTRN,
     1253     9175    5                         %XSC_TYP_SEQ,
     1254     9176    5                         %XSC_TYP_SET,
     1255     9177    5                         %XSC_TYP_SEQOF,
     1256     9178    5                         %XSC_TYP_SETOF,
     1257     9179    5                         %XSC_TYP_CHOICE);
     1258     9180    5                       ;  /* no need to do anything for these types */
     1259     9181    5                   CASE( %XSC_TYP_BOOL);
     1260     9182    5                       SRCLEN = ITEMLIST.X.LEN( ITEMCUR);
     1261     9183    5                       DSTLEN = SCANITEM.X.LEN;
PL6.E3A0      #007=XSC$DECODE File=XSC$ACSE.:XSA1TSI                             WED 10/01/97 11:52 Page:200
     1262     9184    5                       IF SRCLEN > DSTLEN THEN
     1263     9185    5                           ALTRETURN;  /* source is too long for buffer */
     1264     9186    5                       SRC$ = ITEMLIST.P( ITEMCUR);
     1265     9187    5                       BDST$ = SCANITEM.P;
     1266     9188    5                       TEMP = ASCBIN( SUBSTR( SRC$->SRCBYTES, 0, 1));
     1267     9189    5                       IF TEMP = 0 THEN
     1268     9190    5                           BDST$->BIT1 = '0'B;
     1269     9191    5                       ELSE
     1270     9192    5                           BDST$->BIT1 = '1'B;
     1271     9193    5                   CASE( %XSC_TYP_INTG);
     1272     9194    5                       SRCLEN = ITEMLIST.X.LEN( ITEMCUR);
     1273     9195    5                       DSTLEN = SCANITEM.X.LEN;
     1274     9196    5                       IF SRCLEN > DSTLEN THEN
     1275     9197    5                           ALTRETURN;  /* source is too long for buffer */
     1276     9198    5                       BSRC$ = ITEMLIST.P( ITEMCUR);
     1277     9199    5                       BDST$ = PINCRB( SCANITEM.P, 4 + 8*(4-SRCLEN));
     1278     9200    6                       DO I = 1 TO SRCLEN;
     1279     9201    6                           BDST$->BIT8 = PINCRB( BSRC$, 1)->BIT8;
     1280     9202    6                           BDST$ = PINCRB( BDST$, 8);
     1281     9203    6                           BSRC$ = PINCRC( BSRC$, 1);
     1282     9204    6                           END;
     1283     9205    5                   CASE( %XSC_TYP_BITSTR);
     1284     9206    5                       SRC$ = ITEMLIST.P( ITEMCUR);
     1285     9207    5                       TEMP = ASCBIN( SUBSTR( SRC$->SRCBYTES, 0, 1)); /* slack */
     1286     9208    5                       SRCLEN = ITEMLIST.X.LEN( ITEMCUR);  /* byte-length */
     1287     9209    5                       SRCLEN = ( 8-TEMP) + ( SRCLEN-2)*8;  /* bit-length */
     1288     9210    5                       DSTLEN = SCANITEM.X.LEN;
     1289     9211                            /* NOTE: SRCLEN AND DSTLEN CONTAIN LENGTHS IN *BITS* */
     1290     9212    5                       IF SRCLEN > DSTLEN THEN
     1291     9213    5                           ALTRETURN;  /* source is too long for buffer */
     1292     9214                            /* move octets from source to destination */
     1293     9215    5                       BSRC$ = SRC$;
     1294     9216    5                       BDST$ = SCANITEM.P;
     1295     9217    5                       TEMP = ( DSTLEN + 8) / 9;
     1296     9218    6                       DO I = 1 TO TEMP;
     1297     9219    6                           BSRC$ = PINCRC( BSRC$, 1);
     1298     9220    6                           BDST$->BIT8 = PINCRB( BSRC$, 1)->BIT8;
PL6.E3A0      #007=XSC$DECODE File=XSC$ACSE.:XSA1TSI                             WED 10/01/97 11:52 Page:201
     1299     9221    6                           BDST$ = PINCRB( BDST$, 8);
     1300     9222    6                           END;
     1301     9223    5                   CASE( %XSC_TYP_OCTETSTR,
     1302     9224    5                         %XSC_TYP_NUMSTR,
     1303     9225    5                         %XSC_TYP_PRNTSTR,
     1304     9226    5                         %XSC_TYP_TELSTR,
     1305     9227    5                         %XSC_TYP_VIDSTR,
     1306     9228    5                         %XSC_TYP_IA5STR,
     1307     9229    5                         %XSC_TYP_GRFSTR,
     1308     9230    5                         %XSC_TYP_VISSTR /* == %XSC_TYP_ISO646STR */,
     1309     9231    5                         %XSC_TYP_GENSTR,
     1310     9232    5                         %XSC_TYP_ANY);  /* treat ANY like a bytestring */
     1311     9233    5                       SRCLEN = ITEMLIST.X.LEN( ITEMCUR);
     1312     9234    5                       DSTLEN = SCANITEM.X.LEN;
     1313     9235    5                       IF SRCLEN > DSTLEN THEN
     1314     9236    5                           ALTRETURN;  /* source is too long for buffer */
     1315     9237    5                       DSTLEN = MINIMUM( DSTLEN, SRCLEN);
     1316     9238    6                       IF SCANITEM.P = ADDR( NIL) THEN DO;
     1317     9239                                /* don't copy data; just point at it in the APDU */
     1318     9240    6                           SCANITEM.P = ITEMLIST.P( ITEMCUR);
     1319     9241    6                           SCANITEM.X.LEN = DSTLEN;
     1320     9242    6                           END;
     1321     9243    5                       ELSE
     1322     9244    5                           SCANITEM.P->DSTBYTES = ITEMLIST.P( ITEMCUR)->SRCBYTES;
     1323     9245    5                   CASE( %XSC_TYP_OBJID,
     1324     9246    5                         %XSC_TYP_OBJDSCR);
     1325     9247                            /*N* convert encoding to num-num-num form */
     1326     9248    5                       SRCLEN = ITEMLIST.X.LEN( ITEMCUR);
     1327     9249    5                       SCANITEM.P = PINCRC( SCANITEM.P, -2);
     1328     9250    5                       SCANITEM.P->CTXT.LEN = SRCLEN;
     1329     9251    5                       SCANITEM.P->CTXT.TXT = ITEMLIST.P( ITEMCUR)->SRCBYTES;
     1330     9252    5                   CASE( %XSC_TYP_UTCTIM,
     1331     9253    5                         %XSC_TYP_GENTIM);
     1332     9254                            /*N* convert encoding to UTS value, someday */
     1333     9255    5                   CASE( ELSE);
     1334     9256                            /* bad SCANITEM.TYP */
     1335     9257    5                       ALTRETURN;
PL6.E3A0      #007=XSC$DECODE File=XSC$ACSE.:XSA1TSI                             WED 10/01/97 11:52 Page:202
     1336     9258    5                   END;
     1337     9259    4               GOTO RET;
     1338     9260    4               END;
     1339     9261    3           IF SCANITEM.X.OPT = 1 THEN
     1340     9262                    /* looks like this optional item is not present */
     1341     9263    3               RETURN;
     1342     9264                /* this required item is not present */
     1343     9265    3           ALTRETURN;
     1344     9266    3           END;
     1345     9267            /* something's wrong with the heuristics */
     1346     9268    2       ALTRETURN;
     1347     9269    2   RET:
     1348     9270    2       ITEMCUR = ITEMCUR + 1;
     1349     9271    2       RETURN;
     1350     9272
     1351     9273    2       END SCAN;
     1352     9274        %EJECT;
PL6.E3A0      #007=XSC$DECODE File=XSC$ACSE.:XSA1TSI                             WED 10/01/97 11:52 Page:203
     1353     9275        /*I*    NAME:   GETLEN
     1354     9276
     1355     9277                GETLEN is called to extract the length of the next item of the PDU.
     1356     9278                It handles both forms of definite length as well as indefinite length.
     1357     9279                The various PDU scan pointers are updated.  The length is stored in
     1358     9280                TEMP for use by the main code.
     1359     9281        */
     1360     9282    1   GETLEN: PROC;
     1361     9283
     1362     9284    2       TEMP = ASCBIN( SUBSTR( PDU, PDUIDX, 1));
     1363     9285    2       PDUIDX = PDUIDX + 1;
     1364     9286    2       CURRLEN( DEPTH) = CURRLEN( DEPTH) - 1;
     1365     9287    3       IF TEMP = 128 THEN DO;
     1366     9288                /* indefinite form */
     1367     9289    3           TEMP = -1;
     1368     9290    3           RETURN;
     1369     9291    3           END;
     1370     9292    3       IF TEMP > 128 THEN DO;
     1371     9293                /* long form */
     1372     9294    3           I = TEMP - 128;
     1373     9295    3           CURRLEN( DEPTH) = CURRLEN( DEPTH) - I;
     1374     9296    3           TEMP = 0;
     1375     9297    4           DO WHILE( I > 0);
     1376     9298    4               TEMP = TEMP*256 + ASCBIN( SUBSTR( PDU, PDUIDX, 1));
     1377     9299    4               PDUIDX = PDUIDX + 1;
     1378     9300    4               I = I - 1;
     1379     9301    4               END;
     1380     9302    3           END;
     1381     9303    2       RETURN;
     1382     9304
     1383     9305    2       END GETLEN;
     1384     9306
     1385     9307    1       END XSC$DECODE;
     1386     9308        %EOD;

PL6.E3A0      #007=XSC$DECODE File=XSC$ACSE.:XSA1TSI                             WED 10/01/97 11:52 Page:204
--  Include file information  --

   XSC_INTERNAL_M.:XSA1TOU  is referenced.
   XSC_INTERNAL_E.:XSA1TOU  is referenced.
   XSC_ACSE_M.:XSA1TOU  is referenced.
   XSC_ACSE_E.:XSA1TOU  is referenced.
   XSP_PRESENTATION_M.:XSA1TOU  is referenced.
   XSP_PRESENTATION_E.:XSA1TOU  is referenced.
   XSS_SESSION_E.:XSA1TOU  is referenced.
      No diagnostics issued in procedure XSC$DECODE.

   Procedure XSC$DECODE requires 925 words for executable code.
   Procedure XSC$DECODE requires 78 words of local(AUTO) storage.

PL6.E3A0      #007=XSC$DECODE File=XSC$ACSE.:XSA1TSI                             WED 10/01/97 11:52 Page:205

 Object Unit name= XSC$DECODE                                 File name= XSC$ACSE.:XSA1TOU
 UTS= OCT 01 '97 11:52:33.24 WED                              Compiler= PL-6/E31         Sev=      00
 SharedLib= :SHARED_SYSTEM                                    Alt SharedLib=


    ****  Control sections  ****

 Sect   Type Bound  Init  Size OctSiz  Section name(segment info)
    0   Data  even  none     6      6  XSC$DECODE
    1  RoData even  UTS      2      2  XSC$DECODE
    2   Proc  even  none   925   1635  XSC$DECODE
    3  RoData even  none    25     31  XSC$DECODE

    ****  Entry defs  ****

                              Check   Calling
                             calling  sequence
  Sect OctLoc Primary Altret sequence   type   Parms  Name
     2      0   yes    yes     yes      Std        2  XSC$DECODE

  ****  Entry refs  ****

         Check        Calling
        calling       sequence
Altret sequence SRef   type   Args  Name
                       nStd      0 X66_AUTO_2
                       nStd      0 X66_ARET
                       nStd      0 X66_AALT

  ****  Data refs  ****

  Flags:  r = read only, s = secondary
Flgs Name                             Flgs Name                             Flgs Name
     XSC_ASSOCIATE                         XSC_P_ABORT                           XSC_RELEASE
     XSC_U_ABORT                           XSC_ITEMCNT
PL6.E3A0      #007=XSC$DECODE File=XSC$ACSE.:XSA1TSI                             WED 10/01/97 11:52 Page:206

  ****  Segment refs  ****

  Flags:  r = read only, s = secondary
Flgs Name                             Flgs Name                             Flgs Name
     NULLSID                               ISSID
PL6.E3A0      #007=XSC$DECODE File=XSC$ACSE.:XSA1TSI                             WED 10/01/97 11:52 Page:207


      913        1        /*T***********************************************************/
      914        2        /*T*                                                         */
      915        3        /*T* Copyright (c) Bull HN Information Systems Inc., 1997    */
      916        4        /*T*                                                         */
      917        5        /*T***********************************************************/
      918        6        /*F*    NAME:   XSC$DECODE
      919        7
      920        8                XSC$DECODE is called from the ACSE message handler when an incoming
      921        9                message needs to be decoded as an ACSE PDU.  As decoding takes place
      922       10                an ACSE parameter block is filled in.  The calling routine takes
      923       11                further action with the FPT built.  ALTRETURNs if APDU is malformed.
      924       12        */
      925       13        XSC$DECODE: PROC( VBLK, PFPT$) ALTRET;

     13  2 000000   000000 700200 xent  XSC$DECODE   TSX0  ! X66_AUTO_2
         2 000001   000116 000002                    ZERO    78,2

      926       14        %INCLUDE XSS_SESSION_E;
      927      579        %INCLUDE XSP_PRESENTATION_E;
      928      678        %INCLUDE XSP_PRESENTATION_M;
      929     2164            %XSP$PRIMITIVES( STCLASS="BASED( PFPT$)");
      930     3863            %XSP$CTXTNAME( NAME=CTXT, STCLASS=BASED);
      931     3905            %XSP$CTXTNAME( NAME=ACN, STCLASS=STATIC, CTXT='....................');
      932     3947        %INCLUDE XSC_ACSE_E;
      933     4025        %INCLUDE XSC_ACSE_M;
      934     4334            %XSC$PRIMITIVES( STCLASS="BASED( VBLK.FPT$)");
      935     4647            %XSC_PRIMITIVES( STCLASS=SYMREF);
      936     4960        %INCLUDE XSC_INTERNAL_E;
      937     5048        %INCLUDE XSC_INTERNAL_M;
      938     5393            %XSC$VBLK( NAME=VBLK, STCLASS="");
      939     5499            %ENCDECMACS;
      940     5679        %EQU ITEMMAX = 20;
      941     5680        %EQU MAXDEPTH = 3;
      942     5681        /* in the following TAGxx equates, 32 is added if constructed */
      943     5682        %EQU TAGC1 = (129+32);
      944     5683        %EQU TAGC2 = (130+32);
PL6.E3A0      #007=XSC$DECODE File=XSC$ACSE.:XSA1TSI                             WED 10/01/97 11:52 Page:208
      945     5684
      946     5685    1       DCL XSC_ITEMCNT SBIN SYMREF;
      947     5686
      948     5687            %ITEM( NAME=SCANITEM, STCLASS=AUTO);              /* THESE TWO LINES..  */
      949     5712            %ITEM( NAME="ITEMLIST(0:%ITEMMAX)", STCLASS=AUTO);/* MUST BE CONTIGUOUS */
      950     5737    1       DCL ACN$ PTR;
      951     5738    1       DCL BSRC$ PTR UNAL;
      952     5739    1       DCL BDST$ PTR UNAL;
      953     5740    1       DCL BIT1 BIT(1) BASED UNAL;
      954     5741    1       DCL BIT8 BIT(8) BASED UNAL;
      955     5742    1       DCL BTMP BIT(36);
      956     5743    1       DCL DEPTH SBIN;
      957     5744    1       DCL DSTBYTES CHAR( DSTLEN) BASED CALIGNED;
      958     5745    1       DCL DSTLEN SBIN;
      959     5746    1       DCL I SBIN;
      960     5747    1       DCL INFOLVL SBIN;
      961     5748    1       DCL ITEMCUR SBIN;
      962     5749    1       DCL ITEMNUM SBIN;
      963     5750    1       DCL PDU$ PTR CALIGNED;
      964     5751    1       DCL PDU CHAR(16384) BASED( PDU$) CALIGNED;
      965     5752    1       DCL PDUIDX SBIN;
      966     5753    1       DCL PFPT$ PTR;
      967     5754    1       DCL SRC$ PTR CALIGNED;
      968     5755    1       DCL SRCBYTES CHAR( SRCLEN) BASED CALIGNED;
      969     5756    1       DCL SRCLEN SBIN;
      970     5757    1       DCL TAG SBIN;
      971     5758    1       DCL 1 TAGX REDEF TAG,
      972     5759    1            2 * BIT(28) UNAL,
      973     5760    1            2 CLASS UBIN(2) UNAL,
      974     5761    1            2 CONSTRUCTED BIT(1) UNAL,
      975     5762    1            2 VALUE UBIN(5) UNAL;
      976     5763    1       DCL TEMP SBIN;
      977     5764    1       DCL 1 TWOZEROES CONSTANT,
      978     5765    1            2 X(0:1) UBIN(9) INIT( 0, 0) CALIGNED,
      979     5766    1            2 C REDEF X CHAR(2) CALIGNED;
      980     5767    1       DCL CURRLEN(0:%MAXDEPTH) SBIN;
      981     5768    1       DCL INITLEN(0:%MAXDEPTH) SBIN;
PL6.E3A0      #007=XSC$DECODE File=XSC$ACSE.:XSA1TSI                             WED 10/01/97 11:52 Page:209
      982     5769
      983     5770    1       ITEMLIST = '0'B;

   5770  2 000002   000100 100400                    MLR     fill='000'O
         2 000003   000000 000001 3                  ADSC9   0                        cn=0,n=1
         2 000004   200007 000250                    ADSC9   ITEMLIST,,AUTO           cn=0,n=168

      984     5771    1       TEMP = VBLK.DATA.SIZE;

   5771  2 000005   200003 470500                    LDP0    @VBLK,,AUTO
         2 000006   000005 235100                    LDA     5,,PR0
         2 000007   200100 755100                    STA     TEMP,,AUTO

      985     5772    1       INITLEN = '0'B;

   5772  2 000010   000100 100400                    MLR     fill='000'O
         2 000011   000000 000001 3                  ADSC9   0                        cn=0,n=1
         2 000012   200105 000020                    ADSC9   INITLEN,,AUTO            cn=0,n=16

      986     5773    1       INITLEN(0) = TEMP;

   5773  2 000013   200105 755100                    STA     INITLEN,,AUTO

      987     5774    1       INITLEN(1) = TEMP;

   5774  2 000014   200106 755100                    STA     INITLEN+1,,AUTO

      988     5775    1       CURRLEN = '0'B;

   5775  2 000015   000100 100400                    MLR     fill='000'O
         2 000016   000000 000001 3                  ADSC9   0                        cn=0,n=1
         2 000017   200101 000020                    ADSC9   CURRLEN,,AUTO            cn=0,n=16

      989     5776    1       CURRLEN(0) = TEMP;

   5776  2 000020   200101 755100                    STA     CURRLEN,,AUTO

PL6.E3A0      #007=XSC$DECODE File=XSC$ACSE.:XSA1TSI                             WED 10/01/97 11:52 Page:210
      990     5777    1       CURRLEN(1) = TEMP;

   5777  2 000021   200102 755100                    STA     CURRLEN+1,,AUTO

      991     5778    1       PDU$ = VBLK.DATA.PTR$;

   5778  2 000022   000004 236100                    LDQ     4,,PR0
         2 000023   200073 756100                    STQ     PDU$,,AUTO

      992     5779    1       PDUIDX = 0;

   5779  2 000024   200074 450100                    STZ     PDUIDX,,AUTO

      993     5780    1       ITEMLIST.Z(0) = 32*512 + TEMP*262144;  /* set up CON and LEN */

   5780  2 000025   000022 735000                    ALS     18
         2 000026   040000 035007                    ADLA    16384,DL
         2 000027   200007 755100                    STA     ITEMLIST,,AUTO

      994     5781    1       ITEMLIST.P(0) = PDU$;

   5781  2 000030   200010 756100                    STQ     ITEMLIST+1,,AUTO

      995     5782    1       ITEMNUM = 1;

   5782  2 000031   000001 235007                    LDA     1,DL
         2 000032   200072 755100                    STA     ITEMNUM,,AUTO

      996     5783    1       DEPTH = 1;

   5783  2 000033   200065 755100                    STA     DEPTH,,AUTO

      997     5784    1       GOTO NEXTBYTE;

   5784  2 000034   000053 710000 2                  TRA     NEXTBYTE

      998     5785    1   NEXTLEVEL:
PL6.E3A0      #007=XSC$DECODE File=XSC$ACSE.:XSA1TSI                             WED 10/01/97 11:52 Page:211
      999     5786    1       DEPTH = DEPTH + 1;

   5786  2 000035   200065 054100       NEXTLEVEL    AOS     DEPTH,,AUTO

     1000     5787    1       IF DEPTH > %MAXDEPTH THEN

   5787  2 000036   200065 235100                    LDA     DEPTH,,AUTO
         2 000037   000003 115007                    CMPA    3,DL
         2 000040   001200 605400 2                  TPNZ    SCANERR

     1001     5788    1           GOTO SCANERR;
     1002     5789    1       CURRLEN( DEPTH) = TEMP;

   5789  2 000041   200100 236100                    LDQ     TEMP,,AUTO
         2 000042   200101 756105                    STQ     CURRLEN,AL,AUTO

     1003     5790    1       IF TEMP >= 0 THEN

   5790  2 000043   000047 604000 2                  TMI     s:5793

     1004     5791    1           INITLEN( DEPTH) = TEMP;

   5791  2 000044   200065 720100                    LXL0    DEPTH,,AUTO
         2 000045   200105 756110                    STQ     INITLEN,X0,AUTO
         2 000046   000053 710000 2                  TRA     NEXTBYTE

     1005     5792    1       ELSE
     1006     5793    1           INITLEN( DEPTH) = -( ITEMNUM - 1);  /* LEN will be fixed at ENDITEM */

   5793  2 000047   200065 720100                    LXL0    DEPTH,,AUTO
         2 000050   000001 235007                    LDA     1,DL
         2 000051   200072 135100                    SBLA    ITEMNUM,,AUTO
         2 000052   200105 755110                    STA     INITLEN,X0,AUTO

     1007     5794    1   NEXTBYTE:
     1008     5795    2       IF CURRLEN( DEPTH) > 0 THEN DO;

PL6.E3A0      #007=XSC$DECODE File=XSC$ACSE.:XSA1TSI                             WED 10/01/97 11:52 Page:212
   5795  2 000053   200065 720100       NEXTBYTE     LXL0    DEPTH,,AUTO
         2 000054   200101 235110                    LDA     CURRLEN,X0,AUTO
         2 000055   000150 604400 2                  TMOZ    ENDITEM

     1009     5796    2           IF SUBSTR( PDU, PDUIDX, 2) = TWOZEROES.C THEN

   5796  2 000056   200073 470500                    LDP0    PDU$,,AUTO
         2 000057   200074 236100                    LDQ     PDUIDX,,AUTO
         2 000060   040000 106506                    CMPC    fill='040'O
         2 000061   000000 000002                    ADSC9   0,Q,PR0                  cn=0,n=2
         2 000062   000000 000002 1                  ADSC9   TWOZEROES                cn=0,n=2
         2 000063   000150 600000 2                  TZE     ENDITEM

     1010     5797    2               GOTO ENDITEM;
     1011     5798    2           TAG = ASCBIN( SUBSTR( PDU, PDUIDX, 1));

   5798  2 000064   000100 101506                    MRL     fill='000'O
         2 000065   000000 000001                    ADSC9   0,Q,PR0                  cn=0,n=1
         2 000066   200114 000004                    ADSC9   INITLEN+7,,AUTO          cn=0,n=4
         2 000067   200114 236100                    LDQ     INITLEN+7,,AUTO
         2 000070   200077 756100                    STQ     TAG,,AUTO

     1012     5799    2           PDUIDX = PDUIDX + 1;

   5799  2 000071   200074 054100                    AOS     PDUIDX,,AUTO

     1013     5800    2           CURRLEN( DEPTH) = CURRLEN( DEPTH) - 1;

   5800  2 000072   000001 336007                    LCQ     1,DL
         2 000073   200101 056110                    ASQ     CURRLEN,X0,AUTO

     1014     5801    2           CALL GETLEN;  /* parse length of item into TEMP */

   5801  2 000074   001562 701000 2                  TSX1    GETLEN
         2 000075   000000 011000                    NOP     0

     1015     5802    2           IF TEMP >= 0 THEN
PL6.E3A0      #007=XSC$DECODE File=XSC$ACSE.:XSA1TSI                             WED 10/01/97 11:52 Page:213

   5802  2 000076   200100 235100                    LDA     TEMP,,AUTO
         2 000077   000114 604000 2                  TMI     s:5805

     1016     5803    2               ITEMLIST.Z( ITEMNUM) = DEPTH + TAG*512 + TEMP*262144;

   5803  2 000100   200072 236100                    LDQ     ITEMNUM,,AUTO
         2 000101   000001 736000                    QLS     1
         2 000102   000000 620006                    EAX0    0,QL
         2 000103   200077 236100                    LDQ     TAG,,AUTO
         2 000104   000011 736000                    QLS     9
         2 000105   200065 036100                    ADLQ    DEPTH,,AUTO
         2 000106   200114 756100                    STQ     INITLEN+7,,AUTO
         2 000107   200100 236100                    LDQ     TEMP,,AUTO
         2 000110   000022 736000                    QLS     18
         2 000111   200114 036100                    ADLQ    INITLEN+7,,AUTO
         2 000112   200007 756110                    STQ     ITEMLIST,X0,AUTO
         2 000113   000123 710000 2                  TRA     s:5806

     1017     5804    2           ELSE
     1018     5805    2               ITEMLIST.Z( ITEMNUM) = DEPTH + TAG*512;  /* LEN fixed later */

   5805  2 000114   200072 236100                    LDQ     ITEMNUM,,AUTO
         2 000115   000001 736000                    QLS     1
         2 000116   000000 620006                    EAX0    0,QL
         2 000117   200077 236100                    LDQ     TAG,,AUTO
         2 000120   000011 736000                    QLS     9
         2 000121   200065 036100                    ADLQ    DEPTH,,AUTO
         2 000122   200007 756110                    STQ     ITEMLIST,X0,AUTO

     1019     5806    2           ITEMLIST.P( ITEMNUM) = PINCRC( PDU$, PDUIDX);

   5806  2 000123   200074 236100                    LDQ     PDUIDX,,AUTO
         2 000124   000020 736000                    QLS     16
         2 000125   200073 036100                    ADLQ    PDU$,,AUTO
         2 000126   200010 756110                    STQ     ITEMLIST+1,X0,AUTO

PL6.E3A0      #007=XSC$DECODE File=XSC$ACSE.:XSA1TSI                             WED 10/01/97 11:52 Page:214
     1020     5807    2           ITEMNUM = ITEMNUM + 1;

   5807  2 000127   200072 054100                    AOS     ITEMNUM,,AUTO

     1021     5808    2           IF TAGX.CONSTRUCTED THEN

   5808  2 000130   200077 236100                    LDQ     TAG,,AUTO
         2 000131   000040 316007                    CANQ    32,DL
         2 000132   000035 601000 2                  TNZ     NEXTLEVEL

     1022     5809    2               GOTO NEXTLEVEL;
     1023     5810    2           IF TEMP < 0 THEN

   5810  2 000133   000000 115003                    CMPA    0,DU
         2 000134   001200 604000 2                  TMI     SCANERR

     1024     5811    2               GOTO SCANERR;  /* indefinite form illegal for primitive */
     1025     5812    2           PDUIDX = PDUIDX + TEMP;

   5812  2 000135   200074 236100                    LDQ     PDUIDX,,AUTO
         2 000136   200100 036100                    ADLQ    TEMP,,AUTO
         2 000137   200074 756100                    STQ     PDUIDX,,AUTO

     1026     5813    2           CURRLEN( DEPTH) = CURRLEN( DEPTH) - TEMP;

   5813  2 000140   200065 720100                    LXL0    DEPTH,,AUTO
         2 000141   200101 236110                    LDQ     CURRLEN,X0,AUTO
         2 000142   200100 136100                    SBLQ    TEMP,,AUTO
         2 000143   200101 756110                    STQ     CURRLEN,X0,AUTO

     1027     5814    2           IF VBLK.DATA.SIZE > PDUIDX THEN

   5814  2 000144   200003 470500                    LDP0    @VBLK,,AUTO
         2 000145   000005 236100                    LDQ     5,,PR0
         2 000146   200074 116100                    CMPQ    PDUIDX,,AUTO
         2 000147   000053 605400 2                  TPNZ    NEXTBYTE

PL6.E3A0      #007=XSC$DECODE File=XSC$ACSE.:XSA1TSI                             WED 10/01/97 11:52 Page:215
     1028     5815    2               GOTO NEXTBYTE;
     1029     5816    2           END;

     1030     5817    1   ENDITEM:
     1031     5818    2       IF INITLEN( DEPTH) < 0 THEN DO;

   5818  2 000150   200105 235110       ENDITEM      LDA     INITLEN,X0,AUTO
         2 000151   000200 605000 2                  TPL     s:5826

     1032     5819                /* have to fix up length of an indefinite-length item */
     1033     5820    2           TEMP = -INITLEN( DEPTH);

   5820  2 000152   200105 235110                    LDA     INITLEN,X0,AUTO
         2 000153   000000 531000                    NEG     0
         2 000154   200100 755100                    STA     TEMP,,AUTO

     1034     5821    2           ITEMLIST.X.LEN( TEMP) = PDUIDX - POFFC( ITEMLIST.P( TEMP), PDU$);

   5821  2 000155   000001 735000                    ALS     1
         2 000156   200073 236100                    LDQ     PDU$,,AUTO
         2 000157   000020 772000                    QRL     16
         2 000160   200114 756100                    STQ     INITLEN+7,,AUTO
         2 000161   200010 236105                    LDQ     ITEMLIST+1,AL,AUTO
         2 000162   000020 772000                    QRL     16
         2 000163   200114 136100                    SBLQ    INITLEN+7,,AUTO
         2 000164   200115 756100                    STQ     INITLEN+8,,AUTO
         2 000165   200074 236100                    LDQ     PDUIDX,,AUTO
         2 000166   200115 136100                    SBLQ    INITLEN+8,,AUTO
         2 000167   000000 621006                    EAX1    0,QL
         2 000170   200007 741105                    STX1    ITEMLIST,AL,AUTO

     1035     5822    2           PDUIDX = PDUIDX + 2;

   5822  2 000171   000002 236007                    LDQ     2,DL
         2 000172   200074 056100                    ASQ     PDUIDX,,AUTO

     1036     5823    2           CURRLEN( DEPTH) = CURRLEN( DEPTH) - 2;
PL6.E3A0      #007=XSC$DECODE File=XSC$ACSE.:XSA1TSI                             WED 10/01/97 11:52 Page:216

   5823  2 000173   000002 336007                    LCQ     2,DL
         2 000174   200101 056110                    ASQ     CURRLEN,X0,AUTO

     1037     5824    2           INITLEN( DEPTH) = - ( CURRLEN( DEPTH) + 1);

   5824  2 000175   200101 235110                    LDA     CURRLEN,X0,AUTO
         2 000176   000001 675000 3                  ERA     1
         2 000177   200105 755110                    STA     INITLEN,X0,AUTO

     1038     5825    2           END;

     1039     5826    1       TEMP = DEPTH;

   5826  2 000200   200065 236100                    LDQ     DEPTH,,AUTO
         2 000201   200100 756100                    STQ     TEMP,,AUTO

     1040     5827    1       DEPTH = DEPTH - 1;

   5827  2 000202   000001 336007                    LCQ     1,DL
         2 000203   200065 056100                    ASQ     DEPTH,,AUTO

     1041     5828    2       IF DEPTH >= 0 THEN DO;

   5828  2 000204   000214 604000 2                  TMI     s:5834

     1042     5829    2           CURRLEN( DEPTH) = CURRLEN( DEPTH) - INITLEN( TEMP);

   5829  2 000205   200100 720100                    LXL0    TEMP,,AUTO
         2 000206   200065 721100                    LXL1    DEPTH,,AUTO
         2 000207   200101 236111                    LDQ     CURRLEN,X1,AUTO
         2 000210   200105 136110                    SBLQ    INITLEN,X0,AUTO
         2 000211   200101 756111                    STQ     CURRLEN,X1,AUTO

     1043     5830    2           INITLEN( TEMP) = 0;

   5830  2 000212   200105 450110                    STZ     INITLEN,X0,AUTO
PL6.E3A0      #007=XSC$DECODE File=XSC$ACSE.:XSA1TSI                             WED 10/01/97 11:52 Page:217

     1044     5831    2           GOTO NEXTBYTE;

   5831  2 000213   000053 710000 2                  TRA     NEXTBYTE

     1045     5832    2           END;
     1046     5833            /* done scanning the APDU.. now try to decode it item by item */
     1047     5834    1       ACN$ = ADDR( ACN);

   5834  2 000214   000002 236000 3                  LDQ     2
         2 000215   200061 756100                    STQ     ACN$,,AUTO

     1048     5835    1       XSC_ITEMCNT = -1;  /* make SCAN/LOAD load into SCANITEM, not ITEMLIST */

   5835  2 000216   000001 335007                    LCA     1,DL
         2 000217   000000 755000 xsym               STA     XSC_ITEMCNT

     1049     5836    1       ITEMCUR = 0;

   5836  2 000220   200071 450100                    STZ     ITEMCUR,,AUTO

     1050     5837    1       INFOLVL = 0;

   5837  2 000221   200070 450100                    STZ     INFOLVL,,AUTO

     1051     5838            %SCAN( LVL=0, TYP=NONE, CON=Y, LEN="VBLK.DATA.SIZE");

   5924  2 000222   000001 735000                    ALS     1
         2 000223   200003 470500                    LDP0    @VBLK,,AUTO
         2 000224   000000 620005                    EAX0    0,AL
         2 000225   000005 235100                    LDA     5,,PR0
         2 000226   000022 735000                    ALS     18
         2 000227   040000 035007                    ADLA    16384,DL
         2 000230   200007 755110                    STA     ITEMLIST,X0,AUTO

   5931  2 000231   001201 701000 2                  TSX1    SCAN
         2 000232   001200 702000 2                  TSX2    SCANERR
PL6.E3A0      #007=XSC$DECODE File=XSC$ACSE.:XSA1TSI                             WED 10/01/97 11:52 Page:218

     1052     5934    1   PFNCCASE:
     1053     5935    2       DO CASE( XSP$GENERIC.FNC);

   5935  2 000233   200004 470500       PFNCCASE     LDP0    @PFPT$,,AUTO
         2 000234   000000 471500                    LDP1    0,,PR0
         2 000235   100000 236100                    LDQ     0,,PR1
         2 000236   000033 772000                    QRL     27
         2 000237   000032 136007                    SBLQ    26,DL
         2 000240   000044 116007                    CMPQ    36,DL
         2 000241   000243 602006 2                  TNC     PFNCCASE+8,QL
         2 000242   001127 710000 2                  TRA     s:8940
         2 000243   000307 710000 2                  TRA     s:6029
         2 000244   001127 710000 2                  TRA     s:8940
         2 000245   000517 710000 2                  TRA     s:7210
         2 000246   001127 710000 2                  TRA     s:8940
         2 000247   001127 710000 2                  TRA     s:8940
         2 000250   001127 710000 2                  TRA     s:8940
         2 000251   001127 710000 2                  TRA     s:8940
         2 000252   001127 710000 2                  TRA     s:8940
         2 000253   001127 710000 2                  TRA     s:8940
         2 000254   001127 710000 2                  TRA     s:8940
         2 000255   000746 710000 2                  TRA     s:8400
         2 000256   001127 710000 2                  TRA     s:8940
         2 000257   001006 710000 2                  TRA     s:8604
         2 000260   001127 710000 2                  TRA     s:8940
         2 000261   001127 710000 2                  TRA     s:8940
         2 000262   001127 710000 2                  TRA     s:8940
         2 000263   001127 710000 2                  TRA     s:8940
         2 000264   001127 710000 2                  TRA     s:8940
         2 000265   001127 710000 2                  TRA     s:8940
         2 000266   001127 710000 2                  TRA     s:8940
         2 000267   001127 710000 2                  TRA     s:8940
         2 000270   001127 710000 2                  TRA     s:8940
         2 000271   001127 710000 2                  TRA     s:8940
         2 000272   001127 710000 2                  TRA     s:8940
         2 000273   001127 710000 2                  TRA     s:8940
PL6.E3A0      #007=XSC$DECODE File=XSC$ACSE.:XSA1TSI                             WED 10/01/97 11:52 Page:219
         2 000274   001127 710000 2                  TRA     s:8940
         2 000275   001127 710000 2                  TRA     s:8940
         2 000276   001127 710000 2                  TRA     s:8940
         2 000277   001127 710000 2                  TRA     s:8940
         2 000300   001127 710000 2                  TRA     s:8940
         2 000301   001127 710000 2                  TRA     s:8940
         2 000302   001127 710000 2                  TRA     s:8940
         2 000303   001054 710000 2                  TRA     s:8812
         2 000304   001127 710000 2                  TRA     s:8940
         2 000305   001127 710000 2                  TRA     s:8940
         2 000306   001114 710000 2                  TRA     s:8930

     1054     5936        %EJECT;
PL6.E3A0      #007=XSC$DECODE File=XSC$ACSE.:XSA1TSI                             WED 10/01/97 11:52 Page:220
     1055     5937        /*****************************************************************************
     1056     5938        *
     1057     5939        *       PCONIND
     1058     5940        *
     1059     5941        *****************************************************************************/
     1060     5942    2           CASE( %XSP_FNC_PCONIND#);  /* should be an AARQ APDU */

     1061     5943                    %SCAN( LVL=1, TAG=A0, IMP=Y, TYP=SEQ);  /* AARQApdu */

   6029  2 000307   000000 235000 xsym               LDA     XSC_ITEMCNT
         2 000310   000001 735000                    ALS     1
         2 000311   140601 236007                    LDQ     49537,DL
         2 000312   200007 756105                    STQ     ITEMLIST,AL,AUTO

   6036  2 000313   001201 701000 2                  TSX1    SCAN
         2 000314   001200 702000 2                  TSX2    SCANERR

     1062     6039    2               VBLK.EVENT = %XSC_CEV_AARQ;

   6039  2 000315   200003 470500                    LDP0    @VBLK,,AUTO
         2 000316   000001 236007                    LDQ     1,DL
         2 000317   000006 552104                    STBQ    6,'04'O,PR0

     1063     6040    2               XSC$ASSOCIATE = XSC_ASSOCIATE;

   6040  2 000320   000001 471500                    LDP1    1,,PR0
         2 000321   000100 100400                    MLR     fill='000'O
         2 000322   000000 000070 xsym               ADSC9   XSC_ASSOCIATE            cn=0,n=56
         2 000323   100000 000070                    ADSC9   0,,PR1                   cn=0,n=56

     1064     6041    2               XSC$ASSOCIATE.FNC = %XSC_FNC_AASCIND#;

   6041  2 000324   000001 471500                    LDP1    1,,PR0
         2 000325   002000 236003                    LDQ     1024,DU
         2 000326   100000 552140                    STBQ    0,'40'O,PR1

     1065     6042                    %SCAN( LVL=2, TAG=C0, IMP=Y, TYP=BITSTR, OPT=Y,
PL6.E3A0      #007=XSC$DECODE File=XSC$ACSE.:XSA1TSI                             WED 10/01/97 11:52 Page:221
     1066     6043                            LEN=1, VAL=BTMP);  /* ProtocolVersion */

   6102  2 000327   000000 235000 xsym               LDA     XSC_ITEMCNT
         2 000330   000001 735000                    ALS     1
         2 000331   200064 631500                    EPPR1   BTMP,,AUTO
         2 000332   200010 451505                    STP1    ITEMLIST+1,AL,AUTO

   6129  2 000333   000003 236000 3                  LDQ     3
         2 000334   200007 756105                    STQ     ITEMLIST,AL,AUTO

   6136  2 000335   001201 701000 2                  TSX1    SCAN
         2 000336   001200 702000 2                  TSX2    SCANERR

     1067     6139    2               IF BTMP ~= '1'B THEN

   6139  2 000337   200064 236100                    LDQ     BTMP,,AUTO
         2 000340   400000 116003                    CMPQ    -131072,DU
         2 000341   001200 601000 2                  TNZ     SCANERR

     1068     6140    2                   GOTO SCANERR;
     1069     6141                    %SCAN( LVL=2, TAG=C1, TYP=OBJID,
     1070     6142                            LEN=20, VAL=ACN$);  /* ApplicationContextName */

   6216  2 000342   000000 235000 xsym               LDA     XSC_ITEMCNT
         2 000343   000001 735000                    ALS     1
         2 000344   200061 236100                    LDQ     ACN$,,AUTO
         2 000345   400000 036007                    ADLQ    -131072,DL
         2 000346   200010 756105                    STQ     ITEMLIST+1,AL,AUTO

   6228  2 000347   200061 470500                    LDP0    ACN$,,AUTO
         2 000350   000000 236100                    LDQ     0,,PR0
         2 000351   777777 376003                    ANQ     -1,DU
         2 000352   201062 036007                    ADLQ    66098,DL
         2 000353   200007 756105                    STQ     ITEMLIST,AL,AUTO

   6235  2 000354   001201 701000 2                  TSX1    SCAN
         2 000355   001200 702000 2                  TSX2    SCANERR
PL6.E3A0      #007=XSC$DECODE File=XSC$ACSE.:XSA1TSI                             WED 10/01/97 11:52 Page:222

     1071     6238                    %SCAN( LVL=2, TAG=C2, TYP=ANY, OPT=Y,
     1072     6239                            LEN=64, VAL=NIL);  /* CalledAPTitle */

   6322  2 000356   000000 235000 xsym               LDA     XSC_ITEMCNT
         2 000357   000001 735000                    ALS     1
         2 000360   000004 236000 3                  LDQ     4
         2 000361   200010 756105                    STQ     ITEMLIST+1,AL,AUTO

   6325  2 000362   000005 236000 3                  LDQ     5
         2 000363   200007 756105                    STQ     ITEMLIST,AL,AUTO

   6332  2 000364   001201 701000 2                  TSX1    SCAN
         2 000365   001200 702000 2                  TSX2    SCANERR

     1073     6335                    %SCAN( LVL=2, TAG=C3, TYP=ANY, OPT=Y,
     1074     6336                            LEN=64, VAL=NIL);  /* CalledAEQualifier */

   6419  2 000366   000000 235000 xsym               LDA     XSC_ITEMCNT
         2 000367   000001 735000                    ALS     1
         2 000370   000004 236000 3                  LDQ     4
         2 000371   200010 756105                    STQ     ITEMLIST+1,AL,AUTO

   6422  2 000372   000006 236000 3                  LDQ     6
         2 000373   200007 756105                    STQ     ITEMLIST,AL,AUTO

   6429  2 000374   001201 701000 2                  TSX1    SCAN
         2 000375   001200 702000 2                  TSX2    SCANERR

     1075     6432                    %SCAN( LVL=2, TAG=C4, TYP=INTG, OPT=Y,
     1076     6433                            LEN=4, VAL=TEMP); /* CalledAPInvocationId */

   6486  2 000376   000000 235000 xsym               LDA     XSC_ITEMCNT
         2 000377   000001 735000                    ALS     1
         2 000400   200100 630500                    EPPR0   TEMP,,AUTO
         2 000401   200010 450505                    STP0    ITEMLIST+1,AL,AUTO

PL6.E3A0      #007=XSC$DECODE File=XSC$ACSE.:XSA1TSI                             WED 10/01/97 11:52 Page:223
   6519  2 000402   000007 236000 3                  LDQ     7
         2 000403   200007 756105                    STQ     ITEMLIST,AL,AUTO

   6526  2 000404   001201 701000 2                  TSX1    SCAN
         2 000405   001200 702000 2                  TSX2    SCANERR

     1077     6529    2               XSC$ASSOCIATE.RAPID = TEMP;

   6529  2 000406   200003 470500                    LDP0    @VBLK,,AUTO
         2 000407   000001 471500                    LDP1    1,,PR0
         2 000410   200100 235100                    LDA     TEMP,,AUTO
         2 000411   100012 755100                    STA     10,,PR1

     1078     6530                    %SCAN( LVL=2, TAG=C5, TYP=INTG, OPT=Y,
     1079     6531                            LEN=4, VAL=TEMP); /* CalledAEInvocationId */

   6584  2 000412   000000 235000 xsym               LDA     XSC_ITEMCNT
         2 000413   000001 735000                    ALS     1
         2 000414   200100 631500                    EPPR1   TEMP,,AUTO
         2 000415   200010 451505                    STP1    ITEMLIST+1,AL,AUTO

   6617  2 000416   000010 236000 3                  LDQ     8
         2 000417   200007 756105                    STQ     ITEMLIST,AL,AUTO

   6624  2 000420   001201 701000 2                  TSX1    SCAN
         2 000421   001200 702000 2                  TSX2    SCANERR

     1080     6627    2               XSC$ASSOCIATE.RAEID = TEMP;

   6627  2 000422   200003 470500                    LDP0    @VBLK,,AUTO
         2 000423   000001 471500                    LDP1    1,,PR0
         2 000424   200100 235100                    LDA     TEMP,,AUTO
         2 000425   100013 755100                    STA     11,,PR1

     1081     6628                    %SCAN( LVL=2, TAG=C6, TYP=ANY, OPT=Y,
     1082     6629                            LEN=64, VAL=NIL);  /* CallingAPTitle */

PL6.E3A0      #007=XSC$DECODE File=XSC$ACSE.:XSA1TSI                             WED 10/01/97 11:52 Page:224
   6712  2 000426   000000 235000 xsym               LDA     XSC_ITEMCNT
         2 000427   000001 735000                    ALS     1
         2 000430   000004 236000 3                  LDQ     4
         2 000431   200010 756105                    STQ     ITEMLIST+1,AL,AUTO

   6715  2 000432   000011 236000 3                  LDQ     9
         2 000433   200007 756105                    STQ     ITEMLIST,AL,AUTO

   6722  2 000434   001201 701000 2                  TSX1    SCAN
         2 000435   001200 702000 2                  TSX2    SCANERR

     1083     6725                    %SCAN( LVL=2, TAG=C7, TYP=ANY, OPT=Y,
     1084     6726                            LEN=64, VAL=NIL);  /* CallingAEQualifier */

   6809  2 000436   000000 235000 xsym               LDA     XSC_ITEMCNT
         2 000437   000001 735000                    ALS     1
         2 000440   000004 236000 3                  LDQ     4
         2 000441   200010 756105                    STQ     ITEMLIST+1,AL,AUTO

   6812  2 000442   000012 236000 3                  LDQ     10
         2 000443   200007 756105                    STQ     ITEMLIST,AL,AUTO

   6819  2 000444   001201 701000 2                  TSX1    SCAN
         2 000445   001200 702000 2                  TSX2    SCANERR

     1085     6822                    %SCAN( LVL=2, TAG=C8, TYP=INTG, OPT=Y,
     1086     6823                            LEN=4, VAL=TEMP);/* CallingAPInvocationId */

   6876  2 000446   000000 235000 xsym               LDA     XSC_ITEMCNT
         2 000447   000001 735000                    ALS     1
         2 000450   200100 630500                    EPPR0   TEMP,,AUTO
         2 000451   200010 450505                    STP0    ITEMLIST+1,AL,AUTO

   6909  2 000452   000013 236000 3                  LDQ     11
         2 000453   200007 756105                    STQ     ITEMLIST,AL,AUTO

   6916  2 000454   001201 701000 2                  TSX1    SCAN
PL6.E3A0      #007=XSC$DECODE File=XSC$ACSE.:XSA1TSI                             WED 10/01/97 11:52 Page:225
         2 000455   001200 702000 2                  TSX2    SCANERR

     1087     6919    2               XSC$ASSOCIATE.IAPID = TEMP;

   6919  2 000456   200003 470500                    LDP0    @VBLK,,AUTO
         2 000457   000001 471500                    LDP1    1,,PR0
         2 000460   200100 235100                    LDA     TEMP,,AUTO
         2 000461   100006 755100                    STA     6,,PR1

     1088     6920                    %SCAN( LVL=2, TAG=C9, TYP=INTG, OPT=Y,
     1089     6921                            LEN=4, VAL=TEMP);/* CallingAEInvocationId */

   6974  2 000462   000000 235000 xsym               LDA     XSC_ITEMCNT
         2 000463   000001 735000                    ALS     1
         2 000464   200100 631500                    EPPR1   TEMP,,AUTO
         2 000465   200010 451505                    STP1    ITEMLIST+1,AL,AUTO

   7007  2 000466   000014 236000 3                  LDQ     12
         2 000467   200007 756105                    STQ     ITEMLIST,AL,AUTO

   7014  2 000470   001201 701000 2                  TSX1    SCAN
         2 000471   001200 702000 2                  TSX2    SCANERR

     1090     7017    2               XSC$ASSOCIATE.IAEID = TEMP;

   7017  2 000472   200003 470500                    LDP0    @VBLK,,AUTO
         2 000473   000001 471500                    LDP1    1,,PR0
         2 000474   200100 235100                    LDA     TEMP,,AUTO
         2 000475   100007 755100                    STA     7,,PR1

     1091     7018                    %SCAN( LVL=2, TAG=C29, IMP=Y, TYP=GRFSTR, OPT=Y,
     1092     7019                            LEN=64, VAL=NIL);  /* ImplementationData */

   7102  2 000476   000000 235000 xsym               LDA     XSC_ITEMCNT
         2 000477   000001 735000                    ALS     1
         2 000500   000004 236000 3                  LDQ     4
         2 000501   200010 756105                    STQ     ITEMLIST+1,AL,AUTO
PL6.E3A0      #007=XSC$DECODE File=XSC$ACSE.:XSA1TSI                             WED 10/01/97 11:52 Page:226

   7105  2 000502   000015 236000 3                  LDQ     13
         2 000503   200007 756105                    STQ     ITEMLIST,AL,AUTO

   7112  2 000504   001201 701000 2                  TSX1    SCAN
         2 000505   001200 702000 2                  TSX2    SCANERR

     1093     7115    2               XSC$ASSOCIATE.CTXT$ = XSP$CONNECT.CTXT$;

   7115  2 000506   200003 470500                    LDP0    @VBLK,,AUTO
         2 000507   000001 471500                    LDP1    1,,PR0
         2 000510   200004 473500                    LDP3    @PFPT$,,AUTO
         2 000511   300000 474500                    LDP4    0,,PR3
         2 000512   400005 236100                    LDQ     5,,PR4
         2 000513   100015 756100                    STQ     13,,PR1

     1094     7116    2               INFOLVL = 2;

   7116  2 000514   000002 235007                    LDA     2,DL
         2 000515   200070 755100                    STA     INFOLVL,,AUTO
         2 000516   001130 710000 2                  TRA     s:8942

     1095     7117        %EJECT;
PL6.E3A0      #007=XSC$DECODE File=XSC$ACSE.:XSA1TSI                             WED 10/01/97 11:52 Page:227
     1096     7118        /*****************************************************************************
     1097     7119        *
     1098     7120        *       PCONCNF
     1099     7121        *
     1100     7122        *****************************************************************************/
     1101     7123    2           CASE( %XSP_FNC_PCONCNF#);  /* should be an AARE APDU */

     1102     7124                    %SCAN( LVL=1, TAG=A1, IMP=Y, TYP=SEQ);  /* AAREApdu */

   7210  2 000517   000000 235000 xsym               LDA     XSC_ITEMCNT
         2 000520   000001 735000                    ALS     1
         2 000521   141601 236007                    LDQ     50049,DL
         2 000522   200007 756105                    STQ     ITEMLIST,AL,AUTO

   7217  2 000523   001201 701000 2                  TSX1    SCAN
         2 000524   001200 702000 2                  TSX2    SCANERR

     1103     7220    2               XSC$ASSOCIATE = XSC_ASSOCIATE;

   7220  2 000525   200003 470500                    LDP0    @VBLK,,AUTO
         2 000526   000001 471500                    LDP1    1,,PR0
         2 000527   000100 100400                    MLR     fill='000'O
         2 000530   000000 000070 xsym               ADSC9   XSC_ASSOCIATE            cn=0,n=56
         2 000531   100000 000070                    ADSC9   0,,PR1                   cn=0,n=56

     1104     7221    2               XSC$ASSOCIATE.FNC = %XSC_FNC_AASCCNF#;

   7221  2 000532   000001 471500                    LDP1    1,,PR0
         2 000533   004000 236003                    LDQ     2048,DU
         2 000534   100000 552140                    STBQ    0,'40'O,PR1

     1105     7222                    %SCAN( LVL=2, TAG=C0, IMP=Y, TYP=BITSTR, OPT=Y,
     1106     7223                            LEN=1, VAL=BTMP);  /* ProtocolVersion */

   7282  2 000535   000000 235000 xsym               LDA     XSC_ITEMCNT
         2 000536   000001 735000                    ALS     1
         2 000537   200064 631500                    EPPR1   BTMP,,AUTO
PL6.E3A0      #007=XSC$DECODE File=XSC$ACSE.:XSA1TSI                             WED 10/01/97 11:52 Page:228
         2 000540   200010 451505                    STP1    ITEMLIST+1,AL,AUTO

   7309  2 000541   000003 236000 3                  LDQ     3
         2 000542   200007 756105                    STQ     ITEMLIST,AL,AUTO

   7316  2 000543   001201 701000 2                  TSX1    SCAN
         2 000544   001200 702000 2                  TSX2    SCANERR

     1107     7319    2               IF BTMP ~= '1'B THEN

   7319  2 000545   200064 236100                    LDQ     BTMP,,AUTO
         2 000546   400000 116003                    CMPQ    -131072,DU
         2 000547   001200 601000 2                  TNZ     SCANERR

     1108     7320    2                   GOTO SCANERR;
     1109     7321                    %SCAN( LVL=2, TAG=C1, TYP=OBJID,
     1110     7322                            LEN=20, VAL=ACN$);  /* ApplicationContextName */

   7396  2 000550   000000 235000 xsym               LDA     XSC_ITEMCNT
         2 000551   000001 735000                    ALS     1
         2 000552   200061 236100                    LDQ     ACN$,,AUTO
         2 000553   400000 036007                    ADLQ    -131072,DL
         2 000554   200010 756105                    STQ     ITEMLIST+1,AL,AUTO

   7408  2 000555   200061 470500                    LDP0    ACN$,,AUTO
         2 000556   000000 236100                    LDQ     0,,PR0
         2 000557   777777 376003                    ANQ     -1,DU
         2 000560   201062 036007                    ADLQ    66098,DL
         2 000561   200007 756105                    STQ     ITEMLIST,AL,AUTO

   7415  2 000562   001201 701000 2                  TSX1    SCAN
         2 000563   001200 702000 2                  TSX2    SCANERR

     1111     7418                    %SCAN( LVL=2, TAG=C2, TYP=INTG,
     1112     7419                            LEN=4, VAL=TEMP);  /* Result */

   7472  2 000564   000000 235000 xsym               LDA     XSC_ITEMCNT
PL6.E3A0      #007=XSC$DECODE File=XSC$ACSE.:XSA1TSI                             WED 10/01/97 11:52 Page:229
         2 000565   000001 735000                    ALS     1
         2 000566   200100 630500                    EPPR0   TEMP,,AUTO
         2 000567   200010 450505                    STP0    ITEMLIST+1,AL,AUTO

   7505  2 000570   000016 236000 3                  LDQ     14
         2 000571   200007 756105                    STQ     ITEMLIST,AL,AUTO

   7512  2 000572   001201 701000 2                  TSX1    SCAN
         2 000573   001200 702000 2                  TSX2    SCANERR

     1113     7515    2               IF TEMP = %XSC_RSLT_ACCEPTED# THEN

   7515  2 000574   200100 235100                    LDA     TEMP,,AUTO
         2 000575   000602 601000 2                  TNZ     s:7518

     1114     7516    2                   VBLK.EVENT = %XSC_CEV_AAREP;

   7516  2 000576   200003 470500                    LDP0    @VBLK,,AUTO
         2 000577   000002 236007                    LDQ     2,DL
         2 000600   000006 552104                    STBQ    6,'04'O,PR0
         2 000601   000605 710000 2                  TRA     s:7519

     1115     7517    2               ELSE
     1116     7518    2                   VBLK.EVENT = %XSC_CEV_AAREN;

   7518  2 000602   200003 470500                    LDP0    @VBLK,,AUTO
         2 000603   000003 236007                    LDQ     3,DL
         2 000604   000006 552104                    STBQ    6,'04'O,PR0

     1117     7519    2               XSC$ASSOCIATE.RESULT = TEMP;

   7519  2 000605   000001 471500                    LDP1    1,,PR0
         2 000606   200100 236100                    LDQ     TEMP,,AUTO
         2 000607   100000 552104                    STBQ    0,'04'O,PR1

     1118     7520                    %SCAN( LVL=2, TAG=C3, TYP=CHOICE);  /* ResultSourceDiagnostic */

PL6.E3A0      #007=XSC$DECODE File=XSC$ACSE.:XSA1TSI                             WED 10/01/97 11:52 Page:230
   7606  2 000610   000000 235000 xsym               LDA     XSC_ITEMCNT
         2 000611   000001 735000                    ALS     1
         2 000612   203152 236007                    LDQ     67178,DL
         2 000613   200007 756105                    STQ     ITEMLIST,AL,AUTO

   7613  2 000614   001201 701000 2                  TSX1    SCAN
         2 000615   001200 702000 2                  TSX2    SCANERR

     1119     7616    3               IF ITEMLIST.X.TAG( ITEMCUR) = %TAGC1 THEN DO;

   7616  2 000616   200071 235100                    LDA     ITEMCUR,,AUTO
         2 000617   000001 735000                    ALS     1
         2 000620   200007 236105                    LDQ     ITEMLIST,AL,AUTO
         2 000621   377000 376007                    ANQ     130560,DL
         2 000622   241000 116007                    CMPQ    82432,DL
         2 000623   000635 601000 2                  TNZ     s:7716

     1120     7617                        %SCAN( LVL=3, TAG=C1, TYP=INTG,
     1121     7618                                LEN=4, VAL=TEMP);  /* ACSEServiceUser */

   7671  2 000624   000000 235000 xsym               LDA     XSC_ITEMCNT
         2 000625   000001 735000                    ALS     1
         2 000626   200100 630500                    EPPR0   TEMP,,AUTO
         2 000627   200010 450505                    STP0    ITEMLIST+1,AL,AUTO

   7704  2 000630   000017 236000 3                  LDQ     15
         2 000631   200007 756105                    STQ     ITEMLIST,AL,AUTO

   7711  2 000632   001201 701000 2                  TSX1    SCAN
         2 000633   001200 702000 2                  TSX2    SCANERR

     1122     7714    3                   END;

   7714  2 000634   000650 710000 2                  TRA     s:7817

     1123     7715    2               ELSE
     1124     7716    3                   IF ITEMLIST.X.TAG( ITEMCUR) = %TAGC2 THEN DO;
PL6.E3A0      #007=XSC$DECODE File=XSC$ACSE.:XSA1TSI                             WED 10/01/97 11:52 Page:231

   7716  2 000635   242000 116007                    CMPQ    82944,DL
         2 000636   001200 601000 2                  TNZ     SCANERR

     1125     7717                            %SCAN( LVL=3, TAG=C2, TYP=INTG,
     1126     7718                                    LEN=4, VAL=TEMP);  /* ACSEServiceProvider */

   7771  2 000637   000000 235000 xsym               LDA     XSC_ITEMCNT
         2 000640   000001 735000                    ALS     1
         2 000641   200100 630500                    EPPR0   TEMP,,AUTO
         2 000642   200010 450505                    STP0    ITEMLIST+1,AL,AUTO

   7804  2 000643   000020 236000 3                  LDQ     16
         2 000644   200007 756105                    STQ     ITEMLIST,AL,AUTO

   7811  2 000645   001201 701000 2                  TSX1    SCAN
         2 000646   001200 702000 2                  TSX2    SCANERR

     1127     7814    3                       END;

   7814  2 000647   000650 710000 2                  TRA     s:7817

     1128     7815    2                   ELSE
     1129     7816    2                       GOTO SCANERR;
     1130     7817    2               XSC$ASSOCIATE.RSDIAG = TEMP;

   7817  2 000650   200003 470500                    LDP0    @VBLK,,AUTO
         2 000651   000001 471500                    LDP1    1,,PR0
         2 000652   200100 236100                    LDQ     TEMP,,AUTO
         2 000653   000011 736000                    QLS     9
         2 000654   100000 552110                    STBQ    0,'10'O,PR1

     1131     7818                    %SCAN( LVL=2, TAG=C4, TYP=ANY, OPT=Y,
     1132     7819                            LEN=64, VAL=NIL);  /* RespondingAPTitle */

   7902  2 000655   000000 235000 xsym               LDA     XSC_ITEMCNT
         2 000656   000001 735000                    ALS     1
PL6.E3A0      #007=XSC$DECODE File=XSC$ACSE.:XSA1TSI                             WED 10/01/97 11:52 Page:232
         2 000657   000004 236000 3                  LDQ     4
         2 000660   200010 756105                    STQ     ITEMLIST+1,AL,AUTO

   7905  2 000661   000021 236000 3                  LDQ     17
         2 000662   200007 756105                    STQ     ITEMLIST,AL,AUTO

   7912  2 000663   001201 701000 2                  TSX1    SCAN
         2 000664   001200 702000 2                  TSX2    SCANERR

     1133     7915                    %SCAN( LVL=2, TAG=C5, TYP=ANY, OPT=Y,
     1134     7916                            LEN=64, VAL=NIL); /* RespondingAEQualifier */

   7999  2 000665   000000 235000 xsym               LDA     XSC_ITEMCNT
         2 000666   000001 735000                    ALS     1
         2 000667   000004 236000 3                  LDQ     4
         2 000670   200010 756105                    STQ     ITEMLIST+1,AL,AUTO

   8002  2 000671   000022 236000 3                  LDQ     18
         2 000672   200007 756105                    STQ     ITEMLIST,AL,AUTO

   8009  2 000673   001201 701000 2                  TSX1    SCAN
         2 000674   001200 702000 2                  TSX2    SCANERR

     1135     8012                    %SCAN( LVL=2, TAG=C6, TYP=INTG, OPT=Y,
     1136     8013                            LEN=4, VAL=TEMP);/*RespondingAPInvocationId*/

   8066  2 000675   000000 235000 xsym               LDA     XSC_ITEMCNT
         2 000676   000001 735000                    ALS     1
         2 000677   200100 630500                    EPPR0   TEMP,,AUTO
         2 000700   200010 450505                    STP0    ITEMLIST+1,AL,AUTO

   8099  2 000701   000023 236000 3                  LDQ     19
         2 000702   200007 756105                    STQ     ITEMLIST,AL,AUTO

   8106  2 000703   001201 701000 2                  TSX1    SCAN
         2 000704   001200 702000 2                  TSX2    SCANERR

PL6.E3A0      #007=XSC$DECODE File=XSC$ACSE.:XSA1TSI                             WED 10/01/97 11:52 Page:233
     1137     8109    2               XSC$ASSOCIATE.RAPID = TEMP;

   8109  2 000705   200003 470500                    LDP0    @VBLK,,AUTO
         2 000706   000001 471500                    LDP1    1,,PR0
         2 000707   200100 235100                    LDA     TEMP,,AUTO
         2 000710   100012 755100                    STA     10,,PR1

     1138     8110                    %SCAN( LVL=2, TAG=C7, TYP=INTG, OPT=Y,
     1139     8111                            LEN=4, VAL=TEMP);/*RespondingAEInvocationId*/

   8164  2 000711   000000 235000 xsym               LDA     XSC_ITEMCNT
         2 000712   000001 735000                    ALS     1
         2 000713   200100 631500                    EPPR1   TEMP,,AUTO
         2 000714   200010 451505                    STP1    ITEMLIST+1,AL,AUTO

   8197  2 000715   000024 236000 3                  LDQ     20
         2 000716   200007 756105                    STQ     ITEMLIST,AL,AUTO

   8204  2 000717   001201 701000 2                  TSX1    SCAN
         2 000720   001200 702000 2                  TSX2    SCANERR

     1140     8207    2               XSC$ASSOCIATE.RAEID = TEMP;

   8207  2 000721   200003 470500                    LDP0    @VBLK,,AUTO
         2 000722   000001 471500                    LDP1    1,,PR0
         2 000723   200100 235100                    LDA     TEMP,,AUTO
         2 000724   100013 755100                    STA     11,,PR1

     1141     8208                    %SCAN( LVL=2, TAG=C29, IMP=Y, TYP=GRFSTR, OPT=Y,
     1142     8209                            LEN=64, VAL=NIL);  /* ImplementationData */

   8292  2 000725   000000 235000 xsym               LDA     XSC_ITEMCNT
         2 000726   000001 735000                    ALS     1
         2 000727   000004 236000 3                  LDQ     4
         2 000730   200010 756105                    STQ     ITEMLIST+1,AL,AUTO

   8295  2 000731   000015 236000 3                  LDQ     13
PL6.E3A0      #007=XSC$DECODE File=XSC$ACSE.:XSA1TSI                             WED 10/01/97 11:52 Page:234
         2 000732   200007 756105                    STQ     ITEMLIST,AL,AUTO

   8302  2 000733   001201 701000 2                  TSX1    SCAN
         2 000734   001200 702000 2                  TSX2    SCANERR

     1143     8305    2               XSC$ASSOCIATE.CTXT$ = XSP$CONNECT.CTXT$;

   8305  2 000735   200003 470500                    LDP0    @VBLK,,AUTO
         2 000736   000001 471500                    LDP1    1,,PR0
         2 000737   200004 473500                    LDP3    @PFPT$,,AUTO
         2 000740   300000 474500                    LDP4    0,,PR3
         2 000741   400005 236100                    LDQ     5,,PR4
         2 000742   100015 756100                    STQ     13,,PR1

     1144     8306    2               INFOLVL = 2;

   8306  2 000743   000002 235007                    LDA     2,DL
         2 000744   200070 755100                    STA     INFOLVL,,AUTO
         2 000745   001130 710000 2                  TRA     s:8942

     1145     8307        %EJECT;
PL6.E3A0      #007=XSC$DECODE File=XSC$ACSE.:XSA1TSI                             WED 10/01/97 11:52 Page:235
     1146     8308        /*****************************************************************************
     1147     8309        *
     1148     8310        *       PRELIND
     1149     8311        *
     1150     8312        *****************************************************************************/
     1151     8313    2           CASE( %XSP_FNC_PRELIND#);  /* should be an RLRQ APDU */

     1152     8314                    %SCAN( LVL=1, TAG=A2, IMP=Y, TYP=SEQ);  /* RLRQApdu */

   8400  2 000746   000000 235000 xsym               LDA     XSC_ITEMCNT
         2 000747   000001 735000                    ALS     1
         2 000750   142601 236007                    LDQ     50561,DL
         2 000751   200007 756105                    STQ     ITEMLIST,AL,AUTO

   8407  2 000752   001201 701000 2                  TSX1    SCAN
         2 000753   001200 702000 2                  TSX2    SCANERR

     1153     8410    2               VBLK.EVENT = %XSC_CEV_RLRQ;

   8410  2 000754   200003 470500                    LDP0    @VBLK,,AUTO
         2 000755   000004 236007                    LDQ     4,DL
         2 000756   000006 552104                    STBQ    6,'04'O,PR0

     1154     8411    2               XSC$RELEASE = XSC_RELEASE;

   8411  2 000757   000001 471500                    LDP1    1,,PR0
         2 000760   000100 100400                    MLR     fill='000'O
         2 000761   000000 000014 xsym               ADSC9   XSC_RELEASE              cn=0,n=12
         2 000762   100000 000014                    ADSC9   0,,PR1                   cn=0,n=12

     1155     8412    2               XSC$RELEASE.FNC = %XSC_FNC_ARELIND#;

   8412  2 000763   000001 471500                    LDP1    1,,PR0
         2 000764   006000 236003                    LDQ     3072,DU
         2 000765   100000 552140                    STBQ    0,'40'O,PR1

     1156     8413                    %SCAN( LVL=2, TAG=C0, IMP=Y, TYP=INTG, OPT=Y,
PL6.E3A0      #007=XSC$DECODE File=XSC$ACSE.:XSA1TSI                             WED 10/01/97 11:52 Page:236
     1157     8414                            LEN=4, VAL=TEMP);  /* Reason */

   8467  2 000766   000000 235000 xsym               LDA     XSC_ITEMCNT
         2 000767   000001 735000                    ALS     1
         2 000770   200100 631500                    EPPR1   TEMP,,AUTO
         2 000771   200010 451505                    STP1    ITEMLIST+1,AL,AUTO

   8500  2 000772   000025 236000 3                  LDQ     21
         2 000773   200007 756105                    STQ     ITEMLIST,AL,AUTO

   8507  2 000774   001201 701000 2                  TSX1    SCAN
         2 000775   001200 702000 2                  TSX2    SCANERR

     1158     8510    2               XSC$RELEASE.REASON = TEMP;

   8510  2 000776   200003 470500                    LDP0    @VBLK,,AUTO
         2 000777   000001 471500                    LDP1    1,,PR0
         2 001000   200100 236100                    LDQ     TEMP,,AUTO
         2 001001   000011 736000                    QLS     9
         2 001002   100000 552110                    STBQ    0,'10'O,PR1

     1159     8511    2               INFOLVL = 2;

   8511  2 001003   000002 235007                    LDA     2,DL
         2 001004   200070 755100                    STA     INFOLVL,,AUTO
         2 001005   001130 710000 2                  TRA     s:8942

     1160     8512        /*****************************************************************************
     1161     8513        *
     1162     8514        *       PRELCNF
     1163     8515        *
     1164     8516        *****************************************************************************/
     1165     8517    2           CASE( %XSP_FNC_PRELCNF#);  /* should be an RLRE APDU */

     1166     8518                    %SCAN( LVL=1, TAG=A3, IMP=Y, TYP=SEQ);  /* RLREApdu */

   8604  2 001006   000000 235000 xsym               LDA     XSC_ITEMCNT
PL6.E3A0      #007=XSC$DECODE File=XSC$ACSE.:XSA1TSI                             WED 10/01/97 11:52 Page:237
         2 001007   000001 735000                    ALS     1
         2 001010   143601 236007                    LDQ     51073,DL
         2 001011   200007 756105                    STQ     ITEMLIST,AL,AUTO

   8611  2 001012   001201 701000 2                  TSX1    SCAN
         2 001013   001200 702000 2                  TSX2    SCANERR

     1167     8614    2               XSC$RELEASE = XSC_RELEASE;

   8614  2 001014   200003 470500                    LDP0    @VBLK,,AUTO
         2 001015   000001 471500                    LDP1    1,,PR0
         2 001016   000100 100400                    MLR     fill='000'O
         2 001017   000000 000014 xsym               ADSC9   XSC_RELEASE              cn=0,n=12
         2 001020   100000 000014                    ADSC9   0,,PR1                   cn=0,n=12

     1168     8615    2               XSC$RELEASE.FNC = %XSC_FNC_ARELCNF#;

   8615  2 001021   000001 471500                    LDP1    1,,PR0
         2 001022   010000 236003                    LDQ     4096,DU
         2 001023   100000 552140                    STBQ    0,'40'O,PR1

     1169     8616                    %SCAN( LVL=2, TAG=C0, IMP=Y, TYP=INTG, OPT=Y,
     1170     8617                            LEN=4, VAL=TEMP);  /* Reason */

   8670  2 001024   000000 235000 xsym               LDA     XSC_ITEMCNT
         2 001025   000001 735000                    ALS     1
         2 001026   200100 631500                    EPPR1   TEMP,,AUTO
         2 001027   200010 451505                    STP1    ITEMLIST+1,AL,AUTO

   8703  2 001030   000025 236000 3                  LDQ     21
         2 001031   200007 756105                    STQ     ITEMLIST,AL,AUTO

   8710  2 001032   001201 701000 2                  TSX1    SCAN
         2 001033   001200 702000 2                  TSX2    SCANERR

     1171     8713    2               IF TEMP = %XSC_RELRSP_NORMAL# THEN

PL6.E3A0      #007=XSC$DECODE File=XSC$ACSE.:XSA1TSI                             WED 10/01/97 11:52 Page:238
   8713  2 001034   200100 235100                    LDA     TEMP,,AUTO
         2 001035   001042 601000 2                  TNZ     s:8716

     1172     8714    2                   VBLK.EVENT = %XSC_CEV_RLREP;

   8714  2 001036   200003 470500                    LDP0    @VBLK,,AUTO
         2 001037   000005 236007                    LDQ     5,DL
         2 001040   000006 552104                    STBQ    6,'04'O,PR0
         2 001041   001045 710000 2                  TRA     s:8717

     1173     8715    2               ELSE
     1174     8716    2                   VBLK.EVENT = %XSC_CEV_RLREN;

   8716  2 001042   200003 470500                    LDP0    @VBLK,,AUTO
         2 001043   000006 236007                    LDQ     6,DL
         2 001044   000006 552104                    STBQ    6,'04'O,PR0

     1175     8717    2               XSC$RELEASE.REASON = TEMP;

   8717  2 001045   000001 471500                    LDP1    1,,PR0
         2 001046   200100 236100                    LDQ     TEMP,,AUTO
         2 001047   000011 736000                    QLS     9
         2 001050   100000 552110                    STBQ    0,'10'O,PR1

     1176     8718    2               INFOLVL = 2;

   8718  2 001051   000002 235007                    LDA     2,DL
         2 001052   200070 755100                    STA     INFOLVL,,AUTO
         2 001053   001130 710000 2                  TRA     s:8942

     1177     8719        %EJECT;
PL6.E3A0      #007=XSC$DECODE File=XSC$ACSE.:XSA1TSI                             WED 10/01/97 11:52 Page:239
     1178     8720        /*****************************************************************************
     1179     8721        *
     1180     8722        *       PUABIND
     1181     8723        *
     1182     8724        *****************************************************************************/
     1183     8725    2           CASE( %XSP_FNC_PUABIND#);  /* should be an ABRT APDU */

     1184     8726                    %SCAN( LVL=1, TAG=A4, IMP=Y, TYP=SEQ);  /* ABRTApdu */

   8812  2 001054   000000 235000 xsym               LDA     XSC_ITEMCNT
         2 001055   000001 735000                    ALS     1
         2 001056   144601 236007                    LDQ     51585,DL
         2 001057   200007 756105                    STQ     ITEMLIST,AL,AUTO

   8819  2 001060   001201 701000 2                  TSX1    SCAN
         2 001061   001200 702000 2                  TSX2    SCANERR

     1185     8822    2               VBLK.EVENT = %XSC_CEV_ABRT;

   8822  2 001062   200003 470500                    LDP0    @VBLK,,AUTO
         2 001063   000007 236007                    LDQ     7,DL
         2 001064   000006 552104                    STBQ    6,'04'O,PR0

     1186     8823    2               XSC$U_ABORT = XSC_U_ABORT;

   8823  2 001065   000001 471500                    LDP1    1,,PR0
         2 001066   000100 100400                    MLR     fill='000'O
         2 001067   000000 000014 xsym               ADSC9   XSC_U_ABORT              cn=0,n=12
         2 001070   100000 000014                    ADSC9   0,,PR1                   cn=0,n=12

     1187     8824    2               XSC$U_ABORT.FNC = %XSC_FNC_AUABIND#;

   8824  2 001071   000001 471500                    LDP1    1,,PR0
         2 001072   012000 236003                    LDQ     5120,DU
         2 001073   100000 552140                    STBQ    0,'40'O,PR1

     1188     8825                    %SCAN( LVL=2, TAG=C0, IMP=Y, TYP=INTG,
PL6.E3A0      #007=XSC$DECODE File=XSC$ACSE.:XSA1TSI                             WED 10/01/97 11:52 Page:240
     1189     8826                            LEN=4, VAL=TEMP);  /* AbortSource */

   8879  2 001074   000000 235000 xsym               LDA     XSC_ITEMCNT
         2 001075   000001 735000                    ALS     1
         2 001076   200100 631500                    EPPR1   TEMP,,AUTO
         2 001077   200010 451505                    STP1    ITEMLIST+1,AL,AUTO

   8912  2 001100   000026 236000 3                  LDQ     22
         2 001101   200007 756105                    STQ     ITEMLIST,AL,AUTO

   8919  2 001102   001201 701000 2                  TSX1    SCAN
         2 001103   001200 702000 2                  TSX2    SCANERR

     1190     8922    2               XSC$U_ABORT.ABRTSRC = TEMP;

   8922  2 001104   200003 470500                    LDP0    @VBLK,,AUTO
         2 001105   000001 471500                    LDP1    1,,PR0
         2 001106   200100 236100                    LDQ     TEMP,,AUTO
         2 001107   000011 736000                    QLS     9
         2 001110   100000 552110                    STBQ    0,'10'O,PR1

     1191     8923    2               INFOLVL = 2;

   8923  2 001111   000002 235007                    LDA     2,DL
         2 001112   200070 755100                    STA     INFOLVL,,AUTO
         2 001113   001130 710000 2                  TRA     s:8942

     1192     8924        /*****************************************************************************
     1193     8925        *
     1194     8926        *       PPABIND
     1195     8927        *
     1196     8928        *****************************************************************************/
     1197     8929    2           CASE( %XSP_FNC_PPABIND#);  /* no APDU for this event */

     1198     8930    2               VBLK.EVENT = %XSC_CEV_PPABIND;

   8930  2 001114   200003 473500                    LDP3    @VBLK,,AUTO
PL6.E3A0      #007=XSC$DECODE File=XSC$ACSE.:XSA1TSI                             WED 10/01/97 11:52 Page:241
         2 001115   000013 236007                    LDQ     11,DL
         2 001116   300006 552104                    STBQ    6,'04'O,PR3

     1199     8931    2               XSC$P_ABORT = XSC_P_ABORT;

   8931  2 001117   300001 471500                    LDP1    1,,PR3
         2 001120   000100 100400                    MLR     fill='000'O
         2 001121   000000 000014 xsym               ADSC9   XSC_P_ABORT              cn=0,n=12
         2 001122   100000 000014                    ADSC9   0,,PR1                   cn=0,n=12

     1200     8932    2               XSC$P_ABORT.FNC = %XSC_FNC_APABIND#;

   8932  2 001123   300001 471500                    LDP1    1,,PR3
         2 001124   013000 236003                    LDQ     5632,DU
         2 001125   100000 552140                    STBQ    0,'40'O,PR1
         2 001126   001130 710000 2                  TRA     s:8942

     1201     8933        %EJECT;
PL6.E3A0      #007=XSC$DECODE File=XSC$ACSE.:XSA1TSI                             WED 10/01/97 11:52 Page:242
     1202     8934        /*****************************************************************************
     1203     8935        *
     1204     8936        *       Illegal Presentation function -> error
     1205     8937        *
     1206     8938        *****************************************************************************/
     1207     8939    2           CASE( ELSE);

     1208     8940    2               GOTO SCANERR;

   8940  2 001127   001200 710000 2                  TRA     SCANERR

     1209     8941    2           END;

     1210     8942    2       IF INFOLVL > 0 AND ITEMCUR < ITEMNUM THEN DO;

   8942  2 001130   200070 235100                    LDA     INFOLVL,,AUTO
         2 001131   001177 604400 2                  TMOZ    s:9142
         2 001132   200071 236100                    LDQ     ITEMCUR,,AUTO
         2 001133   200072 116100                    CMPQ    ITEMNUM,,AUTO
         2 001134   001177 605000 2                  TPL     s:9142

     1211     8943               %SCAN( LVL=INFOLVL, TAG=C30, IMP=Y, TYP=SEQOF, OPT=Y); /* UserInformation */

   9029  2 001135   000000 235000 xsym               LDA     XSC_ITEMCNT
         2 001136   000001 735000                    ALS     1
         2 001137   200070 236100                    LDQ     INFOLVL,,AUTO
         2 001140   676560 036007                    ADLQ    -33424,DL
         2 001141   200007 756105                    STQ     ITEMLIST,AL,AUTO

   9036  2 001142   001201 701000 2                  TSX1    SCAN
         2 001143   001200 702000 2                  TSX2    SCANERR

     1212     9039    3           DO WHILE( ITEMLIST.X.LVL( ITEMCUR) > INFOLVL);

   9039  2 001144   200071 235100                    LDA     ITEMCUR,,AUTO
         2 001145   000001 735000                    ALS     1
         2 001146   200007 236105                    LDQ     ITEMLIST,AL,AUTO
PL6.E3A0      #007=XSC$DECODE File=XSC$ACSE.:XSA1TSI                             WED 10/01/97 11:52 Page:243
         2 001147   000007 376007                    ANQ     7,DL
         2 001150   200070 116100                    CMPQ    INFOLVL,,AUTO
         2 001151   001177 604400 2                  TMOZ    s:9142

     1213     9040                    /*N* this code assumes SEQOF one EXTRN item */
     1214     9041    3               INFOLVL = INFOLVL + 1;

   9041  2 001152   200070 054100                    AOS     INFOLVL,,AUTO

     1215     9042                    %SCAN( LVL=INFOLVL, TYP=EXTRN,
     1216     9043                            LEN=262143, VAL=NIL);

   9126  2 001153   000000 235000 xsym               LDA     XSC_ITEMCNT
         2 001154   000001 735000                    ALS     1
         2 001155   000004 236000 3                  LDQ     4
         2 001156   200010 756105                    STQ     ITEMLIST+1,AL,AUTO

   9129  2 001157   777777 236007                    LDQ     -1,DL
         2 001160   000000 620005                    EAX0    0,AL
         2 001161   000001 402003                    MPY     1,DU
         2 001162   200070 036100                    ADLQ    INFOLVL,,AUTO
         2 001163   010100 036007                    ADLQ    4160,DL
         2 001164   200007 756110                    STQ     ITEMLIST,X0,AUTO

   9136  2 001165   001201 701000 2                  TSX1    SCAN
         2 001166   001200 702000 2                  TSX2    SCANERR

     1217     9139    3               INFOLVL = INFOLVL - 1;

   9139  2 001167   000001 336007                    LCQ     1,DL
         2 001170   200070 056100                    ASQ     INFOLVL,,AUTO

     1218     9140    3               END;

   9140  2 001171   200071 235100                    LDA     ITEMCUR,,AUTO
         2 001172   000001 735000                    ALS     1
         2 001173   200007 236105                    LDQ     ITEMLIST,AL,AUTO
PL6.E3A0      #007=XSC$DECODE File=XSC$ACSE.:XSA1TSI                             WED 10/01/97 11:52 Page:244
         2 001174   000007 376007                    ANQ     7,DL
         2 001175   200070 116100                    CMPQ    INFOLVL,,AUTO
         2 001176   001152 605400 2                  TPNZ    s:9041

     1219     9141    2           END;

     1220     9142    1       RETURN;

   9142  2 001177   000000 702200 xent               TSX2  ! X66_ARET

     1221     9143    1   SCANERR:
     1222     9144            /* An error occurred while decoding the APDU */
     1223     9145    1       ALTRETURN;

   9145  2 001200   000000 702200 xent  SCANERR      TSX2  ! X66_AALT

     1224     9146        %EJECT;
PL6.E3A0      #007=XSC$DECODE File=XSC$ACSE.:XSA1TSI                             WED 10/01/97 11:52 Page:245
     1225     9147        /*I*    NAME:   SCAN
     1226     9148
     1227     9149                SCAN is called for each item of the APDU expected to be seen.  The
     1228     9150                contents of SCANITEM are compared with the current item.  If they
     1229     9151                match, the associated value is moved from the current item to the
     1230     9152                VAL field indicated in SCANITEM.  Otherwise, heuristics are used to
     1231     9153                figure out if the APDU is in error or we need to skip over optional
     1232     9154                items not supplied in the APDU.
     1233     9155        */
     1234     9156    1   SCAN: PROC ALTRET;

   9156  2 001201   200112 741300       SCAN         STX1  ! INITLEN+5,,AUTO

     1235     9157
     1236     9158    2       IF ITEMCUR > ITEMNUM THEN

   9158  2 001202   200071 236100                    LDQ     ITEMCUR,,AUTO
         2 001203   200072 116100                    CMPQ    ITEMNUM,,AUTO
         2 001204   001206 604400 2                  TMOZ    s:9161

     1237     9159                /* fell off the end of the APDU */
     1238     9160    2           ALTRETURN;

   9160  2 001205   000000 702211                    TSX2  ! 0,X1

     1239     9161    2       TEMP = 0;

   9161  2 001206   200100 450100                    STZ     TEMP,,AUTO

     1240     9162    2       BTMP = '000000000000'O;

   9162  2 001207   000001 236000 1                  LDQ     TWOZEROES+1
         2 001210   200064 756100                    STQ     BTMP,,AUTO

     1241     9163            /* compare LVLs */
     1242     9164    2       IF ITEMLIST.X.LVL( ITEMCUR) < SCANITEM.X.LVL THEN

PL6.E3A0      #007=XSC$DECODE File=XSC$ACSE.:XSA1TSI                             WED 10/01/97 11:52 Page:246
   9164  2 001211   200005 236100                    LDQ     SCANITEM,,AUTO
         2 001212   000007 376007                    ANQ     7,DL
         2 001213   200114 756100                    STQ     INITLEN+7,,AUTO
         2 001214   200071 235100                    LDA     ITEMCUR,,AUTO
         2 001215   000001 735000                    ALS     1
         2 001216   200007 236105                    LDQ     ITEMLIST,AL,AUTO
         2 001217   000007 376007                    ANQ     7,DL
         2 001220   200114 116100                    CMPQ    INITLEN+7,,AUTO
         2 001221   001223 605000 2                  TPL     s:9166

     1243     9165    2           RETURN;  /* skip ahead in order to resynchronize levels */

   9165  2 001222   000001 702211                    TSX2  ! 1,X1

     1244     9166    3       IF ITEMLIST.X.LVL( ITEMCUR) = SCANITEM.X.LVL THEN DO;

   9166  2 001223   200007 236105                    LDQ     ITEMLIST,AL,AUTO
         2 001224   200005 676100                    ERQ     SCANITEM,,AUTO
         2 001225   000007 376007                    ANQ     7,DL
         2 001226   001556 601000 2                  TNZ     s:9268

     1245     9167                /* compare TAGs */
     1246     9168    4           IF ITEMLIST.X.TAG( ITEMCUR) = SCANITEM.X.TAG THEN DO;

   9168  2 001227   200007 236105                    LDQ     ITEMLIST,AL,AUTO
         2 001230   200005 676100                    ERQ     SCANITEM,,AUTO
         2 001231   377000 376007                    ANQ     130560,DL
         2 001232   001550 601000 2                  TNZ     s:9261

     1247     9169                    /* O.K. We have a match!  Now we move the value part of the
     1248     9170                       matched tag-length-value item to the given buffer. */
     1249     9171    5               DO CASE( SCANITEM.X.TYP);

   9171  2 001233   200005 236100                    LDQ     SCANITEM,,AUTO
         2 001234   000003 772000                    QRL     3
         2 001235   000037 376007                    ANQ     31,DL
         2 001236   000034 116007                    CMPQ    28,DL
PL6.E3A0      #007=XSC$DECODE File=XSC$ACSE.:XSA1TSI                             WED 10/01/97 11:52 Page:247
         2 001237   001241 602006 2                  TNC     s:9171+6,QL
         2 001240   001546 710000 2                  TRA     s:9257
         2 001241   001547 710000 2                  TRA     s:9259
         2 001242   001275 710000 2                  TRA     s:9182
         2 001243   001335 710000 2                  TRA     s:9194
         2 001244   001404 710000 2                  TRA     s:9206
         2 001245   001467 710000 2                  TRA     s:9233
         2 001246   001547 710000 2                  TRA     s:9259
         2 001247   001527 710000 2                  TRA     s:9248
         2 001250   001527 710000 2                  TRA     s:9248
         2 001251   001547 710000 2                  TRA     s:9259
         2 001252   001546 710000 2                  TRA     s:9257
         2 001253   001546 710000 2                  TRA     s:9257
         2 001254   001546 710000 2                  TRA     s:9257
         2 001255   001467 710000 2                  TRA     s:9233
         2 001256   001547 710000 2                  TRA     s:9259
         2 001257   001547 710000 2                  TRA     s:9259
         2 001260   001547 710000 2                  TRA     s:9259
         2 001261   001547 710000 2                  TRA     s:9259
         2 001262   001547 710000 2                  TRA     s:9259
         2 001263   001467 710000 2                  TRA     s:9233
         2 001264   001467 710000 2                  TRA     s:9233
         2 001265   001467 710000 2                  TRA     s:9233
         2 001266   001467 710000 2                  TRA     s:9233
         2 001267   001467 710000 2                  TRA     s:9233
         2 001270   001547 710000 2                  TRA     s:9259
         2 001271   001547 710000 2                  TRA     s:9259
         2 001272   001467 710000 2                  TRA     s:9233
         2 001273   001467 710000 2                  TRA     s:9233
         2 001274   001467 710000 2                  TRA     s:9233

     1250     9172    5                   CASE( %XSC_TYP_NONE,

     1251     9173    5                         %XSC_TYP_NULL,
     1252     9174    5                         %XSC_TYP_EXTRN,
     1253     9175    5                         %XSC_TYP_SEQ,
     1254     9176    5                         %XSC_TYP_SET,
PL6.E3A0      #007=XSC$DECODE File=XSC$ACSE.:XSA1TSI                             WED 10/01/97 11:52 Page:248
     1255     9177    5                         %XSC_TYP_SEQOF,
     1256     9178    5                         %XSC_TYP_SETOF,
     1257     9179    5                         %XSC_TYP_CHOICE);
     1258     9180    5                       ;  /* no need to do anything for these types */
     1259     9181    5                   CASE( %XSC_TYP_BOOL);

     1260     9182    5                       SRCLEN = ITEMLIST.X.LEN( ITEMCUR);

   9182  2 001275   200007 236105                    LDQ     ITEMLIST,AL,AUTO
         2 001276   000022 772000                    QRL     18
         2 001277   200076 756100                    STQ     SRCLEN,,AUTO

     1261     9183    5                       DSTLEN = SCANITEM.X.LEN;

   9183  2 001300   200005 235100                    LDA     SCANITEM,,AUTO
         2 001301   000022 771000                    ARL     18
         2 001302   200066 755100                    STA     DSTLEN,,AUTO

     1262     9184    5                       IF SRCLEN > DSTLEN THEN

   9184  2 001303   200066 116100                    CMPQ    DSTLEN,,AUTO
         2 001304   001306 604400 2                  TMOZ    s:9186

     1263     9185    5                           ALTRETURN;  /* source is too long for buffer */

   9185  2 001305   000000 702211                    TSX2  ! 0,X1

     1264     9186    5                       SRC$ = ITEMLIST.P( ITEMCUR);

   9186  2 001306   200071 235100                    LDA     ITEMCUR,,AUTO
         2 001307   000001 735000                    ALS     1
         2 001310   200010 236105                    LDQ     ITEMLIST+1,AL,AUTO
         2 001311   200075 756100                    STQ     SRC$,,AUTO

     1265     9187    5                       BDST$ = SCANITEM.P;

   9187  2 001312   200006 236100                    LDQ     SCANITEM+1,,AUTO
PL6.E3A0      #007=XSC$DECODE File=XSC$ACSE.:XSA1TSI                             WED 10/01/97 11:52 Page:249
         2 001313   200063 756100                    STQ     BDST$,,AUTO

     1266     9188    5                       TEMP = ASCBIN( SUBSTR( SRC$->SRCBYTES, 0, 1));

   9188  2 001314   200075 470500                    LDP0    SRC$,,AUTO
         2 001315   000100 101500                    MRL     fill='000'O
         2 001316   000000 000001                    ADSC9   0,,PR0                   cn=0,n=1
         2 001317   200114 000004                    ADSC9   INITLEN+7,,AUTO          cn=0,n=4
         2 001320   200114 236100                    LDQ     INITLEN+7,,AUTO
         2 001321   200100 756100                    STQ     TEMP,,AUTO

     1267     9189    5                       IF TEMP = 0 THEN

   9189  2 001322   001330 601000 2                  TNZ     s:9192

     1268     9190    5                           BDST$->BIT1 = '0'B;

   9190  2 001323   200063 471500                    LDP1    BDST$,,AUTO
         2 001324   003100 060400                    CSL     bolr='003'O
         2 001325   000000 000001 3                  BDSC    0                        by=0,bit=0,n=1
         2 001326   100000 000001                    BDSC    0,,PR1                   by=0,bit=0,n=1
         2 001327   001547 710000 2                  TRA     s:9259

     1269     9191    5                       ELSE
     1270     9192    5                           BDST$->BIT1 = '1'B;

   9192  2 001330   200063 471500                    LDP1    BDST$,,AUTO
         2 001331   003100 060400                    CSL     bolr='003'O
         2 001332   000027 000001 3                  BDSC    23                       by=0,bit=0,n=1
         2 001333   100000 000001                    BDSC    0,,PR1                   by=0,bit=0,n=1
         2 001334   001547 710000 2                  TRA     s:9259

     1271     9193    5                   CASE( %XSC_TYP_INTG);

     1272     9194    5                       SRCLEN = ITEMLIST.X.LEN( ITEMCUR);

   9194  2 001335   200007 236105                    LDQ     ITEMLIST,AL,AUTO
PL6.E3A0      #007=XSC$DECODE File=XSC$ACSE.:XSA1TSI                             WED 10/01/97 11:52 Page:250
         2 001336   000022 772000                    QRL     18
         2 001337   200076 756100                    STQ     SRCLEN,,AUTO

     1273     9195    5                       DSTLEN = SCANITEM.X.LEN;

   9195  2 001340   200005 235100                    LDA     SCANITEM,,AUTO
         2 001341   000022 771000                    ARL     18
         2 001342   200066 755100                    STA     DSTLEN,,AUTO

     1274     9196    5                       IF SRCLEN > DSTLEN THEN

   9196  2 001343   200066 116100                    CMPQ    DSTLEN,,AUTO
         2 001344   001346 604400 2                  TMOZ    s:9198

     1275     9197    5                           ALTRETURN;  /* source is too long for buffer */

   9197  2 001345   000000 702211                    TSX2  ! 0,X1

     1276     9198    5                       BSRC$ = ITEMLIST.P( ITEMCUR);

   9198  2 001346   200071 235100                    LDA     ITEMCUR,,AUTO
         2 001347   000001 735000                    ALS     1
         2 001350   200010 236105                    LDQ     ITEMLIST+1,AL,AUTO
         2 001351   200062 756100                    STQ     BSRC$,,AUTO

     1277     9199    5                       BDST$ = PINCRB( SCANITEM.P, 4 + 8*(4-SRCLEN));

   9199  2 001352   200006 470500                    LDP0    SCANITEM+1,,AUTO
         2 001353   200076 335100                    LCA     SRCLEN,,AUTO
         2 001354   000003 735000                    ALS     3
         2 001355   001357 605000 2                  TPL     s:9199+5
         2 001356   000044 035003                    ADLA    36,DU
         2 001357   000001 503505                    ABD     1,AL,PR0
         2 001360   200063 450500                    STP0    BDST$,,AUTO

     1278     9200    6                       DO I = 1 TO SRCLEN;

PL6.E3A0      #007=XSC$DECODE File=XSC$ACSE.:XSA1TSI                             WED 10/01/97 11:52 Page:251
   9200  2 001361   000001 235007                    LDA     1,DL
         2 001362   200067 755100                    STA     I,,AUTO
         2 001363   001400 710000 2                  TRA     s:9204+1

     1279     9201    6                           BDST$->BIT8 = PINCRB( BSRC$, 1)->BIT8;

   9201  2 001364   200062 470500                    LDP0    BSRC$,,AUTO
         2 001365   200063 471500                    LDP1    BDST$,,AUTO
         2 001366   003100 060500                    CSL     bolr='003'O
         2 001367   000000 010010                    BDSC    0,,PR0                   by=0,bit=1,n=8
         2 001370   100000 000010                    BDSC    0,,PR1                   by=0,bit=0,n=8

     1280     9202    6                           BDST$ = PINCRB( BDST$, 8);

   9202  2 001371   000010 220003                    LDX0    8,DU
         2 001372   100000 503510                    ABD     0,X0,PR1
         2 001373   200063 451500                    STP1    BDST$,,AUTO

     1281     9203    6                           BSRC$ = PINCRC( BSRC$, 1);

   9203  2 001374   200062 236100                    LDQ     BSRC$,,AUTO
         2 001375   200000 036007                    ADLQ    65536,DL
         2 001376   200062 756100                    STQ     BSRC$,,AUTO

     1282     9204    6                           END;

   9204  2 001377   200067 054100                    AOS     I,,AUTO
         2 001400   200067 236100                    LDQ     I,,AUTO
         2 001401   200076 116100                    CMPQ    SRCLEN,,AUTO
         2 001402   001364 604400 2                  TMOZ    s:9201
         2 001403   001547 710000 2                  TRA     s:9259

     1283     9205    5                   CASE( %XSC_TYP_BITSTR);

     1284     9206    5                       SRC$ = ITEMLIST.P( ITEMCUR);

   9206  2 001404   200010 236105                    LDQ     ITEMLIST+1,AL,AUTO
PL6.E3A0      #007=XSC$DECODE File=XSC$ACSE.:XSA1TSI                             WED 10/01/97 11:52 Page:252
         2 001405   200075 756100                    STQ     SRC$,,AUTO

     1285     9207    5                       TEMP = ASCBIN( SUBSTR( SRC$->SRCBYTES, 0, 1)); /* slack */

   9207  2 001406   200075 470500                    LDP0    SRC$,,AUTO
         2 001407   000100 101500                    MRL     fill='000'O
         2 001410   000000 000001                    ADSC9   0,,PR0                   cn=0,n=1
         2 001411   200114 000004                    ADSC9   INITLEN+7,,AUTO          cn=0,n=4
         2 001412   200114 236100                    LDQ     INITLEN+7,,AUTO
         2 001413   200100 756100                    STQ     TEMP,,AUTO

     1286     9208    5                       SRCLEN = ITEMLIST.X.LEN( ITEMCUR);  /* byte-length */

   9208  2 001414   200007 236105                    LDQ     ITEMLIST,AL,AUTO
         2 001415   000022 772000                    QRL     18
         2 001416   200076 756100                    STQ     SRCLEN,,AUTO

     1287     9209    5                       SRCLEN = ( 8-TEMP) + ( SRCLEN-2)*8;  /* bit-length */

   9209  2 001417   000003 736000                    QLS     3
         2 001420   000001 676000 3                  ERQ     1
         2 001421   000001 036007                    ADLQ    1,DL
         2 001422   200100 036100                    ADLQ    TEMP,,AUTO
         2 001423   000001 676000 3                  ERQ     1
         2 001424   000007 136007                    SBLQ    7,DL
         2 001425   200076 756100                    STQ     SRCLEN,,AUTO

     1288     9210    5                       DSTLEN = SCANITEM.X.LEN;

   9210  2 001426   200005 235100                    LDA     SCANITEM,,AUTO
         2 001427   000022 771000                    ARL     18
         2 001430   200066 755100                    STA     DSTLEN,,AUTO

     1289     9211                            /* NOTE: SRCLEN AND DSTLEN CONTAIN LENGTHS IN *BITS* */
     1290     9212    5                       IF SRCLEN > DSTLEN THEN

   9212  2 001431   200066 116100                    CMPQ    DSTLEN,,AUTO
PL6.E3A0      #007=XSC$DECODE File=XSC$ACSE.:XSA1TSI                             WED 10/01/97 11:52 Page:253
         2 001432   001434 604400 2                  TMOZ    s:9215

     1291     9213    5                           ALTRETURN;  /* source is too long for buffer */

   9213  2 001433   000000 702211                    TSX2  ! 0,X1

     1292     9214                            /* move octets from source to destination */
     1293     9215    5                       BSRC$ = SRC$;

   9215  2 001434   200075 236100                    LDQ     SRC$,,AUTO
         2 001435   200062 756100                    STQ     BSRC$,,AUTO

     1294     9216    5                       BDST$ = SCANITEM.P;

   9216  2 001436   200006 236100                    LDQ     SCANITEM+1,,AUTO
         2 001437   200063 756100                    STQ     BDST$,,AUTO

     1295     9217    5                       TEMP = ( DSTLEN + 8) / 9;

   9217  2 001440   200066 236100                    LDQ     DSTLEN,,AUTO
         2 001441   000010 036007                    ADLQ    8,DL
         2 001442   000011 506007                    DIV     9,DL
         2 001443   200100 756100                    STQ     TEMP,,AUTO

     1296     9218    6                       DO I = 1 TO TEMP;

   9218  2 001444   000001 235007                    LDA     1,DL
         2 001445   200067 755100                    STA     I,,AUTO
         2 001446   001463 710000 2                  TRA     s:9222+1

     1297     9219    6                           BSRC$ = PINCRC( BSRC$, 1);

   9219  2 001447   200062 236100                    LDQ     BSRC$,,AUTO
         2 001450   200000 036007                    ADLQ    65536,DL
         2 001451   200062 756100                    STQ     BSRC$,,AUTO

     1298     9220    6                           BDST$->BIT8 = PINCRB( BSRC$, 1)->BIT8;
PL6.E3A0      #007=XSC$DECODE File=XSC$ACSE.:XSA1TSI                             WED 10/01/97 11:52 Page:254

   9220  2 001452   200062 470500                    LDP0    BSRC$,,AUTO
         2 001453   200063 471500                    LDP1    BDST$,,AUTO
         2 001454   003100 060500                    CSL     bolr='003'O
         2 001455   000000 010010                    BDSC    0,,PR0                   by=0,bit=1,n=8
         2 001456   100000 000010                    BDSC    0,,PR1                   by=0,bit=0,n=8

     1299     9221    6                           BDST$ = PINCRB( BDST$, 8);

   9221  2 001457   000010 220003                    LDX0    8,DU
         2 001460   100000 503510                    ABD     0,X0,PR1
         2 001461   200063 451500                    STP1    BDST$,,AUTO

     1300     9222    6                           END;

   9222  2 001462   200067 054100                    AOS     I,,AUTO
         2 001463   200067 236100                    LDQ     I,,AUTO
         2 001464   200100 116100                    CMPQ    TEMP,,AUTO
         2 001465   001447 604400 2                  TMOZ    s:9219
         2 001466   001547 710000 2                  TRA     s:9259

     1301     9223    5                   CASE( %XSC_TYP_OCTETSTR,

     1302     9224    5                         %XSC_TYP_NUMSTR,
     1303     9225    5                         %XSC_TYP_PRNTSTR,
     1304     9226    5                         %XSC_TYP_TELSTR,
     1305     9227    5                         %XSC_TYP_VIDSTR,
     1306     9228    5                         %XSC_TYP_IA5STR,
     1307     9229    5                         %XSC_TYP_GRFSTR,
     1308     9230    5                         %XSC_TYP_VISSTR /* == %XSC_TYP_ISO646STR */,
     1309     9231    5                         %XSC_TYP_GENSTR,
     1310     9232    5                         %XSC_TYP_ANY);  /* treat ANY like a bytestring */
     1311     9233    5                       SRCLEN = ITEMLIST.X.LEN( ITEMCUR);

   9233  2 001467   200007 236105                    LDQ     ITEMLIST,AL,AUTO
         2 001470   000022 772000                    QRL     18
         2 001471   200076 756100                    STQ     SRCLEN,,AUTO
PL6.E3A0      #007=XSC$DECODE File=XSC$ACSE.:XSA1TSI                             WED 10/01/97 11:52 Page:255

     1312     9234    5                       DSTLEN = SCANITEM.X.LEN;

   9234  2 001472   200005 235100                    LDA     SCANITEM,,AUTO
         2 001473   000022 771000                    ARL     18
         2 001474   200066 755100                    STA     DSTLEN,,AUTO

     1313     9235    5                       IF SRCLEN > DSTLEN THEN

   9235  2 001475   200066 116100                    CMPQ    DSTLEN,,AUTO
         2 001476   001500 604400 2                  TMOZ    s:9237

     1314     9236    5                           ALTRETURN;  /* source is too long for buffer */

   9236  2 001477   000000 702211                    TSX2  ! 0,X1

     1315     9237    5                       DSTLEN = MINIMUM( DSTLEN, SRCLEN);

   9237  2 001500   001502 604400 2                  TMOZ    s:9237+2
         2 001501   200066 236100                    LDQ     DSTLEN,,AUTO
         2 001502   200066 756100                    STQ     DSTLEN,,AUTO

     1316     9238    6                       IF SCANITEM.P = ADDR( NIL) THEN DO;

   9238  2 001503   200006 236100                    LDQ     SCANITEM+1,,AUTO
         2 001504   000004 116000 3                  CMPQ    4
         2 001505   001515 601000 2                  TNZ     s:9244

     1317     9239                                /* don't copy data; just point at it in the APDU */
     1318     9240    6                           SCANITEM.P = ITEMLIST.P( ITEMCUR);

   9240  2 001506   200071 235100                    LDA     ITEMCUR,,AUTO
         2 001507   000001 735000                    ALS     1
         2 001510   200010 236105                    LDQ     ITEMLIST+1,AL,AUTO
         2 001511   200006 756100                    STQ     SCANITEM+1,,AUTO

     1319     9241    6                           SCANITEM.X.LEN = DSTLEN;
PL6.E3A0      #007=XSC$DECODE File=XSC$ACSE.:XSA1TSI                             WED 10/01/97 11:52 Page:256

   9241  2 001512   200066 720100                    LXL0    DSTLEN,,AUTO
         2 001513   200005 740100                    STX0    SCANITEM,,AUTO

     1320     9242    6                           END;

   9242  2 001514   001547 710000 2                  TRA     s:9259

     1321     9243    5                       ELSE
     1322     9244    5                           SCANITEM.P->DSTBYTES = ITEMLIST.P( ITEMCUR)->SRCBYTES;

   9244  2 001515   200071 235100                    LDA     ITEMCUR,,AUTO
         2 001516   000001 735000                    ALS     1
         2 001517   200010 470505                    LDP0    ITEMLIST+1,AL,AUTO
         2 001520   200076 720100                    LXL0    SRCLEN,,AUTO
         2 001521   200006 471500                    LDP1    SCANITEM+1,,AUTO
         2 001522   200066 722100                    LXL2    DSTLEN,,AUTO
         2 001523   040140 100540                    MLR     fill='040'O
         2 001524   000000 000010                    ADSC9   0,,PR0                   cn=0,n=*X0
         2 001525   100000 000012                    ADSC9   0,,PR1                   cn=0,n=*X2
         2 001526   001547 710000 2                  TRA     s:9259

     1323     9245    5                   CASE( %XSC_TYP_OBJID,

     1324     9246    5                         %XSC_TYP_OBJDSCR);
     1325     9247                            /*N* convert encoding to num-num-num form */
     1326     9248    5                       SRCLEN = ITEMLIST.X.LEN( ITEMCUR);

   9248  2 001527   200007 236105                    LDQ     ITEMLIST,AL,AUTO
         2 001530   000022 772000                    QRL     18
         2 001531   200076 756100                    STQ     SRCLEN,,AUTO

     1327     9249    5                       SCANITEM.P = PINCRC( SCANITEM.P, -2);

   9249  2 001532   200006 236100                    LDQ     SCANITEM+1,,AUTO
         2 001533   000030 036000 3                  ADLQ    24
         2 001534   200006 756100                    STQ     SCANITEM+1,,AUTO
PL6.E3A0      #007=XSC$DECODE File=XSC$ACSE.:XSA1TSI                             WED 10/01/97 11:52 Page:257

     1328     9250    5                       SCANITEM.P->CTXT.LEN = SRCLEN;

   9250  2 001535   200076 720100                    LXL0    SRCLEN,,AUTO
         2 001536   200006 470500                    LDP0    SCANITEM+1,,AUTO
         2 001537   000000 740100                    STX0    0,,PR0

     1329     9251    5                       SCANITEM.P->CTXT.TXT = ITEMLIST.P( ITEMCUR)->SRCBYTES;

   9251  2 001540   200010 471505                    LDP1    ITEMLIST+1,AL,AUTO
         2 001541   200076 721100                    LXL1    SRCLEN,,AUTO
         2 001542   040140 100540                    MLR     fill='040'O
         2 001543   100000 000011                    ADSC9   0,,PR1                   cn=0,n=*X1
         2 001544   000000 400010                    ADSC9   0,,PR0                   cn=2,n=*X0
         2 001545   001547 710000 2                  TRA     s:9259

     1330     9252    5                   CASE( %XSC_TYP_UTCTIM,

     1331     9253    5                         %XSC_TYP_GENTIM);
     1332     9254                            /*N* convert encoding to UTS value, someday */
     1333     9255    5                   CASE( ELSE);

     1334     9256                            /* bad SCANITEM.TYP */
     1335     9257    5                       ALTRETURN;

   9257  2 001546   000000 702211                    TSX2  ! 0,X1

     1336     9258    5                   END;

     1337     9259    4               GOTO RET;

   9259  2 001547   001557 710000 2                  TRA     RET

     1338     9260    4               END;
     1339     9261    3           IF SCANITEM.X.OPT = 1 THEN

   9261  2 001550   200005 236100                    LDQ     SCANITEM,,AUTO
PL6.E3A0      #007=XSC$DECODE File=XSC$ACSE.:XSA1TSI                             WED 10/01/97 11:52 Page:258
         2 001551   400000 376007                    ANQ     -131072,DL
         2 001552   400000 116007                    CMPQ    -131072,DL
         2 001553   001555 601000 2                  TNZ     s:9265

     1340     9262                    /* looks like this optional item is not present */
     1341     9263    3               RETURN;

   9263  2 001554   000001 702211                    TSX2  ! 1,X1

     1342     9264                /* this required item is not present */
     1343     9265    3           ALTRETURN;

   9265  2 001555   000000 702211                    TSX2  ! 0,X1

     1344     9266    3           END;
     1345     9267            /* something's wrong with the heuristics */
     1346     9268    2       ALTRETURN;

   9268  2 001556   000000 702211                    TSX2  ! 0,X1

     1347     9269    2   RET:
     1348     9270    2       ITEMCUR = ITEMCUR + 1;

   9270  2 001557   200071 054100       RET          AOS     ITEMCUR,,AUTO

     1349     9271    2       RETURN;

   9271  2 001560   200112 221300                    LDX1  ! INITLEN+5,,AUTO
         2 001561   000001 702211                    TSX2  ! 1,X1

     1350     9272
     1351     9273    2       END SCAN;
     1352     9274        %EJECT;
PL6.E3A0      #007=XSC$DECODE File=XSC$ACSE.:XSA1TSI                             WED 10/01/97 11:52 Page:259
     1353     9275        /*I*    NAME:   GETLEN
     1354     9276
     1355     9277                GETLEN is called to extract the length of the next item of the PDU.
     1356     9278                It handles both forms of definite length as well as indefinite length.
     1357     9279                The various PDU scan pointers are updated.  The length is stored in
     1358     9280                TEMP for use by the main code.
     1359     9281        */
     1360     9282    1   GETLEN: PROC;

   9282  2 001562   200112 741300       GETLEN       STX1  ! INITLEN+5,,AUTO

     1361     9283
     1362     9284    2       TEMP = ASCBIN( SUBSTR( PDU, PDUIDX, 1));

   9284  2 001563   200073 470500                    LDP0    PDU$,,AUTO
         2 001564   200074 235100                    LDA     PDUIDX,,AUTO
         2 001565   000100 101505                    MRL     fill='000'O
         2 001566   000000 000001                    ADSC9   0,A,PR0                  cn=0,n=1
         2 001567   200114 000004                    ADSC9   INITLEN+7,,AUTO          cn=0,n=4
         2 001570   200114 236100                    LDQ     INITLEN+7,,AUTO
         2 001571   200100 756100                    STQ     TEMP,,AUTO

     1363     9285    2       PDUIDX = PDUIDX + 1;

   9285  2 001572   200074 054100                    AOS     PDUIDX,,AUTO

     1364     9286    2       CURRLEN( DEPTH) = CURRLEN( DEPTH) - 1;

   9286  2 001573   200065 720100                    LXL0    DEPTH,,AUTO
         2 001574   000001 336007                    LCQ     1,DL
         2 001575   200101 056110                    ASQ     CURRLEN,X0,AUTO

     1365     9287    3       IF TEMP = 128 THEN DO;

   9287  2 001576   200100 235100                    LDA     TEMP,,AUTO
         2 001577   000200 115007                    CMPA    128,DL
         2 001600   001603 601000 2                  TNZ     s:9292
PL6.E3A0      #007=XSC$DECODE File=XSC$ACSE.:XSA1TSI                             WED 10/01/97 11:52 Page:260

     1366     9288                /* indefinite form */
     1367     9289    3           TEMP = -1;

   9289  2 001601   200100 756100                    STQ     TEMP,,AUTO

     1368     9290    3           RETURN;

   9290  2 001602   000001 702211                    TSX2  ! 1,X1

     1369     9291    3           END;
     1370     9292    3       IF TEMP > 128 THEN DO;

   9292  2 001603   001633 604400 2                  TMOZ    s:9303

     1371     9293                /* long form */
     1372     9294    3           I = TEMP - 128;

   9294  2 001604   000200 135007                    SBLA    128,DL
         2 001605   200067 755100                    STA     I,,AUTO

     1373     9295    3           CURRLEN( DEPTH) = CURRLEN( DEPTH) - I;

   9295  2 001606   200101 236110                    LDQ     CURRLEN,X0,AUTO
         2 001607   200067 136100                    SBLQ    I,,AUTO
         2 001610   200101 756110                    STQ     CURRLEN,X0,AUTO

     1374     9296    3           TEMP = 0;

   9296  2 001611   200100 450100                    STZ     TEMP,,AUTO

     1375     9297    4           DO WHILE( I > 0);

   9297  2 001612   000000 115003                    CMPA    0,DU
         2 001613   001633 604400 2                  TMOZ    s:9303

     1376     9298    4               TEMP = TEMP*256 + ASCBIN( SUBSTR( PDU, PDUIDX, 1));
PL6.E3A0      #007=XSC$DECODE File=XSC$ACSE.:XSA1TSI                             WED 10/01/97 11:52 Page:261

   9298  2 001614   200073 470500                    LDP0    PDU$,,AUTO
         2 001615   200074 235100                    LDA     PDUIDX,,AUTO
         2 001616   000100 101505                    MRL     fill='000'O
         2 001617   000000 000001                    ADSC9   0,A,PR0                  cn=0,n=1
         2 001620   200114 000004                    ADSC9   INITLEN+7,,AUTO          cn=0,n=4
         2 001621   200114 236100                    LDQ     INITLEN+7,,AUTO
         2 001622   200115 756100                    STQ     INITLEN+8,,AUTO
         2 001623   200100 236100                    LDQ     TEMP,,AUTO
         2 001624   000010 736000                    QLS     8
         2 001625   200115 036100                    ADLQ    INITLEN+8,,AUTO
         2 001626   200100 756100                    STQ     TEMP,,AUTO

     1377     9299    4               PDUIDX = PDUIDX + 1;

   9299  2 001627   200074 054100                    AOS     PDUIDX,,AUTO

     1378     9300    4               I = I - 1;

   9300  2 001630   000001 336007                    LCQ     1,DL
         2 001631   200067 056100                    ASQ     I,,AUTO

     1379     9301    4               END;

   9301  2 001632   001614 605400 2                  TPNZ    s:9298

     1380     9302    3           END;

     1381     9303    2       RETURN;

   9303  2 001633   200112 221300                    LDX1  ! INITLEN+5,,AUTO
         2 001634   000001 702211                    TSX2  ! 1,X1

ACN
 Sect OctLoc
   0     000   000026 047056   056056 056056   056056 056056   056056 056056    ..'.............
   0     004   056056 056056   056056 056047                                    .......'
PL6.E3A0      #007=XSC$DECODE File=XSC$ACSE.:XSA1TSI                             WED 10/01/97 11:52 Page:262

TWOZEROES
 Sect OctLoc
   1     000   000000 ******                                                    ....

(unnamed)
 Sect OctLoc
   1     001   000000 000000                                                    ....

(unnamed)
 Sect OctLoc
   3     000   000000 000000   777777 777777   000000 006000   000001 600432    ................
   3     004   000000 006014   000100 602142   000100 603142   000004 604022    .....@.b.@.b....
   3     010   000004 605022   000100 606142   000100 607142   000004 610022    .....@.b.@.b....
   3     014   000004 611022   000100 635712   000004 202022   000004 201023    .....@..........
   3     020   000004 202023   000100 604142   000100 605142   000004 606022    .....@.b.@.b....
   3     024   000004 607022   000004 600422   000004 200422   400000 000000    ................
   3     030   777777 400000                                                    ....
     1382     9304
     1383     9305    2       END GETLEN;
     1384     9306
     1385     9307    1       END XSC$DECODE;
     1386     9308        %EOD;

PL6.E3A0      #007=XSC$DECODE File=XSC$ACSE.:XSA1TSI                             WED 10/01/97 11:52 Page:263
--  Include file information  --

   XSC_INTERNAL_M.:XSA1TOU  is referenced.
   XSC_INTERNAL_E.:XSA1TOU  is referenced.
   XSC_ACSE_M.:XSA1TOU  is referenced.
   XSC_ACSE_E.:XSA1TOU  is referenced.
   XSP_PRESENTATION_M.:XSA1TOU  is referenced.
   XSP_PRESENTATION_E.:XSA1TOU  is referenced.
   XSS_SESSION_E.:XSA1TOU  is referenced.
      No diagnostics issued in procedure XSC$DECODE.
PL6.E3A0      #007=XSC$DECODE File=XSC$ACSE.:XSA1TSI                             WED 10/01/97 11:52 Page:264

 **** Variables and constants ****

  ****  Section 000  Data  XSC$DECODE

  ****  Scalars and arrays  ****
OctLoc.c.b A Datatyp(siz) R M Lvl/name                 OctLoc.c.b A Datatyp(siz) R M Lvl/name

     0-0-0/w STRC(216)   r     1 ACN

  ****  Section 001 RoData XSC$DECODE

  ****  Scalars and arrays  ****
OctLoc.c.b A Datatyp(siz) R M Lvl/name                 OctLoc.c.b A Datatyp(siz) R M Lvl/name

     0-0-0/c STRC(18)    r     1 TWOZEROES

  ****  Auto variables  ****

  ****  Scalars and arrays  ****
OctLoc.c.b A Datatyp(siz) R M Lvl/name                 OctLoc.c.b A Datatyp(siz) R M Lvl/name

     4-0-0/w PTR         r     1 @PFPT$                     3-0-0/w PTR         r     1 @VBLK
    61-0-0/w PTR         r     1 ACN$                      63-0-0/b PTR         r     1 BDST$
    62-0-0/b PTR         r     1 BSRC$                     64-0-0/b BIT         r     1 BTMP
   101-0-0/w SBIN        r     1 CURRLEN(0:3)
    65-0-0/w SBIN        r     1 DEPTH                     66-0-0/w SBIN        r     1 DSTLEN
    67-0-0/w SBIN        r     1 I                         70-0-0/w SBIN        r     1 INFOLVL
   105-0-0/w SBIN        r     1 INITLEN(0:3)
    71-0-0/w SBIN        r     1 ITEMCUR
     7-0-0/w STRC(72)    r     1 ITEMLIST(0:20)
    72-0-0/w SBIN        r     1 ITEMNUM                   73-0-0/c PTR         r     1 PDU$
    74-0-0/w SBIN        r     1 PDUIDX                    *0-0-0/w PTR         r     1 PFPT$
     5-0-0/w STRC(72)    r     1 SCANITEM                  75-0-0/c PTR         r     1 SRC$
    76-0-0/w SBIN        r     1 SRCLEN                    77-0-0/w SBIN        r     1 TAG
    77-0-0/w STRC        r     1 TAGX                     100-0-0/w SBIN        r     1 TEMP
    *0-0-0/w STRC(252)   r     1 VBLK

PL6.E3A0      #007=XSC$DECODE File=XSC$ACSE.:XSA1TSI                             WED 10/01/97 11:52 Page:265
  ****  SYMREF variables  ****

  ****  Scalars and arrays  ****
OctLoc.c.b A Datatyp(siz) R M Lvl/name                 OctLoc.c.b A Datatyp(siz) R M Lvl/name

     0-0-0/w STRC(504)   r     1 XSC_ASSOCIATE              0-0-0/w SBIN        r     1 XSC_ITEMCNT
     0-0-0/w STRC(108)   r     1 XSC_P_ABORT                0-0-0/w STRC(108)   r     1 XSC_RELEASE
     0-0-0/w STRC(108)   r     1 XSC_U_ABORT

  ****  BASED and DCB variables  ****

  ****  Scalars and arrays  ****
OctLoc.c.b A Datatyp(siz) R M Lvl/name                 OctLoc.c.b A Datatyp(siz) R M Lvl/name

     0-0-0/b BIT         r     1 BIT1                       0-0-0/b BIT (8)     r     1 BIT8
     0-0-0/w ASTR(18)    r     1 CTXT                       0-0-0/c ACHR        r     1 DSTBYTES
     0-0-0/c CHAR(16384) r     1 PDU                        0-0-0/c ACHR        r     1 SRCBYTES
     0-0-0/w STRC(504)   r     1 XSC$ASSOCIATE              0-0-0/w STRC(108)   r     1 XSC$P_ABORT
     0-0-0/w STRC(108)   r     1 XSC$RELEASE                0-0-0/w STRC(108)   r     1 XSC$U_ABORT
     0-0-0/w STRC(398)   r     1 XSP$CONNECT                0-0-0/w STRC(504)   r     1 XSP$GENERIC


   Procedure XSC$DECODE requires 925 words for executable code.
   Procedure XSC$DECODE requires 78 words of local(AUTO) storage.
PL6.E3A0      #007=XSC$DECODE File=XSC$ACSE.:XSA1TSI                             WED 10/01/97 11:52 Page:266
          *** CROSS REFERENCE LISTING ***
**     DENOTES     IDENTIFIER DEFINITION
<<                 IDENTIFIER'S VALUE SET
>>                 IDENTIFIER'S VALUE USED
<>                 IDENTIFIER SET AND/OR USED
--                 IDENTIFIER REFERENCED
PL6.E3A0      #007=XSC$DECODE File=XSC$ACSE.:XSA1TSI                             WED 10/01/97 11:52 Page:267
          MINI XREF LISTING

ACN
      3924**DCL      5834--ASSIGN
ACN$
      5737**DCL      5834<<ASSIGN   6216>>ASSIGN   6228>>ASSIGN   7396>>ASSIGN   7408>>ASSIGN
BDST$
      5739**DCL      9187<<ASSIGN   9190>>ASSIGN   9192>>ASSIGN   9199<<ASSIGN   9201>>ASSIGN   9202<<ASSIGN
      9202>>ASSIGN   9216<<ASSIGN   9220>>ASSIGN   9221<<ASSIGN   9221>>ASSIGN
BIT1
      5740**DCL      9190<<ASSIGN   9192<<ASSIGN
BIT8
      5741**DCL      9201<<ASSIGN   9201>>ASSIGN   9220<<ASSIGN   9220>>ASSIGN
BSRC$
      5738**DCL      9198<<ASSIGN   9201>>ASSIGN   9203<<ASSIGN   9203>>ASSIGN   9215<<ASSIGN   9219<<ASSIGN
      9219>>ASSIGN   9220>>ASSIGN
BTMP
      5742**DCL      6102--ASSIGN   6139>>IF       7282--ASSIGN   7319>>IF       9162<<ASSIGN
CTXT.LEN
      3901**DCL      3902--IMP-SIZ  6228>>ASSIGN   7408>>ASSIGN   9250<<ASSIGN   9251>>ASSIGN
CTXT.TXT
      3902**DCL      6216--ASSIGN   7396--ASSIGN   9251<<ASSIGN
CURRLEN
      5767**DCL      5775<<ASSIGN   5776<<ASSIGN   5777<<ASSIGN   5789<<ASSIGN   5795>>IF       5800<<ASSIGN
      5800>>ASSIGN   5813<<ASSIGN   5813>>ASSIGN   5823<<ASSIGN   5823>>ASSIGN   5824>>ASSIGN   5829<<ASSIGN
      5829>>ASSIGN   9286<<ASSIGN   9286>>ASSIGN   9295<<ASSIGN   9295>>ASSIGN
DEPTH
      5743**DCL      5783<<ASSIGN   5786<<ASSIGN   5786>>ASSIGN   5787>>IF       5789>>ASSIGN   5791>>ASSIGN
      5793>>ASSIGN   5795>>IF       5800>>ASSIGN   5800>>ASSIGN   5803>>ASSIGN   5805>>ASSIGN   5813>>ASSIGN
      5813>>ASSIGN   5818>>IF       5820>>ASSIGN   5823>>ASSIGN   5823>>ASSIGN   5824>>ASSIGN   5824>>ASSIGN
      5826>>ASSIGN   5827<<ASSIGN   5827>>ASSIGN   5828>>IF       5829>>ASSIGN   5829>>ASSIGN   9286>>ASSIGN
      9286>>ASSIGN   9295>>ASSIGN   9295>>ASSIGN
DSTBYTES
      5744**DCL      9244<<ASSIGN
PL6.E3A0      #007=XSC$DECODE File=XSC$ACSE.:XSA1TSI                             WED 10/01/97 11:52 Page:268
DSTLEN
      5745**DCL      5744--IMP-SIZ  9183<<ASSIGN   9184>>IF       9195<<ASSIGN   9196>>IF       9210<<ASSIGN
      9212>>IF       9217>>ASSIGN   9234<<ASSIGN   9235>>IF       9237<<ASSIGN   9237>>ASSIGN   9241>>ASSIGN
      9244>>ASSIGN
ENDITEM
      5818**LABEL    5797--GOTO
GETLEN
      9282**PROC     5801--CALL
I
      5746**DCL      9200<<DOINDEX  9218<<DOINDEX  9294<<ASSIGN   9295>>ASSIGN   9297>>DOWHILE  9300<<ASSIGN
      9300>>ASSIGN
INFOLVL
      5747**DCL      5837<<ASSIGN   7116<<ASSIGN   8306<<ASSIGN   8511<<ASSIGN   8718<<ASSIGN   8923<<ASSIGN
      8942>>IF       9029>>ASSIGN   9039>>DOWHILE  9041<<ASSIGN   9041>>ASSIGN   9129>>ASSIGN   9139<<ASSIGN
      9139>>ASSIGN
INITLEN
      5768**DCL      5772<<ASSIGN   5773<<ASSIGN   5774<<ASSIGN   5791<<ASSIGN   5793<<ASSIGN   5818>>IF
      5820>>ASSIGN   5824<<ASSIGN   5829>>ASSIGN   5830<<ASSIGN
ITEMCUR
      5748**DCL      5836<<ASSIGN   7616>>IF       7716>>IF       8942>>IF       9039>>DOWHILE  9158>>IF
      9164>>IF       9166>>IF       9168>>IF       9182>>ASSIGN   9186>>ASSIGN   9194>>ASSIGN   9198>>ASSIGN
      9206>>ASSIGN   9208>>ASSIGN   9233>>ASSIGN   9240>>ASSIGN   9244>>ASSIGN   9248>>ASSIGN   9251>>ASSIGN
      9270<<ASSIGN   9270>>ASSIGN
ITEMLIST
      5717**DCL      5770<<ASSIGN
ITEMLIST.P
      5734**DCL      5781<<ASSIGN   5806<<ASSIGN   5821>>ASSIGN   6102<<ASSIGN   6216<<ASSIGN   6322<<ASSIGN
      6419<<ASSIGN   6486<<ASSIGN   6584<<ASSIGN   6712<<ASSIGN   6809<<ASSIGN   6876<<ASSIGN   6974<<ASSIGN
      7102<<ASSIGN   7282<<ASSIGN   7396<<ASSIGN   7472<<ASSIGN   7671<<ASSIGN   7771<<ASSIGN   7902<<ASSIGN
      7999<<ASSIGN   8066<<ASSIGN   8164<<ASSIGN   8292<<ASSIGN   8467<<ASSIGN   8670<<ASSIGN   8879<<ASSIGN
      9126<<ASSIGN   9186>>ASSIGN   9198>>ASSIGN   9206>>ASSIGN   9240>>ASSIGN   9244>>ASSIGN   9251>>ASSIGN
ITEMLIST.U
      5732**DCL      5733--REDEF    5734--REDEF    5735--REDEF
ITEMLIST.X.LEN
      5726**DCL      5821<<ASSIGN   9182>>ASSIGN   9194>>ASSIGN   9208>>ASSIGN   9233>>ASSIGN   9248>>ASSIGN
ITEMLIST.X.LVL
PL6.E3A0      #007=XSC$DECODE File=XSC$ACSE.:XSA1TSI                             WED 10/01/97 11:52 Page:269
      5731**DCL      9039>>DOWHILE  9164>>IF       9166>>IF
ITEMLIST.X.TAG
      5728**DCL      7616>>IF       7716>>IF       9168>>IF
ITEMLIST.Z
      5724**DCL      5725--REDEF    5780<<ASSIGN   5803<<ASSIGN   5805<<ASSIGN   5924<<ASSIGN   6029<<ASSIGN
      6129<<ASSIGN   6228<<ASSIGN   6325<<ASSIGN   6422<<ASSIGN   6519<<ASSIGN   6617<<ASSIGN   6715<<ASSIGN
      6812<<ASSIGN   6909<<ASSIGN   7007<<ASSIGN   7105<<ASSIGN   7210<<ASSIGN   7309<<ASSIGN   7408<<ASSIGN
      7505<<ASSIGN   7606<<ASSIGN   7704<<ASSIGN   7804<<ASSIGN   7905<<ASSIGN   8002<<ASSIGN   8099<<ASSIGN
      8197<<ASSIGN   8295<<ASSIGN   8400<<ASSIGN   8500<<ASSIGN   8604<<ASSIGN   8703<<ASSIGN   8812<<ASSIGN
      8912<<ASSIGN   9029<<ASSIGN   9129<<ASSIGN
ITEMNUM
      5749**DCL      5782<<ASSIGN   5793>>ASSIGN   5803>>ASSIGN   5805>>ASSIGN   5806>>ASSIGN   5807<<ASSIGN
      5807>>ASSIGN   8942>>IF       9158>>IF
NEXTBYTE
      5795**LABEL    5784--GOTO     5815--GOTO     5831--GOTO
NEXTLEVEL
      5786**LABEL    5809--GOTO
PDU
      5751**DCL      5796>>IF       5798>>ASSIGN   9284>>ASSIGN   9298>>ASSIGN
PDU$
      5750**DCL      5751--IMP-PTR  5778<<ASSIGN   5781>>ASSIGN   5796>>IF       5798>>ASSIGN   5806>>ASSIGN
      5821>>ASSIGN   9284>>ASSIGN   9298>>ASSIGN
PDUIDX
      5752**DCL      5779<<ASSIGN   5796>>IF       5798>>ASSIGN   5799<<ASSIGN   5799>>ASSIGN   5806>>ASSIGN
      5812<<ASSIGN   5812>>ASSIGN   5814>>IF       5821>>ASSIGN   5822<<ASSIGN   5822>>ASSIGN   9284>>ASSIGN
      9285<<ASSIGN   9285>>ASSIGN   9298>>ASSIGN   9299<<ASSIGN   9299>>ASSIGN
PFPT$
      5753**DCL        13--PROC     2182--IMP-PTR  2278--IMP-PTR  2336--IMP-PTR  2401--IMP-PTR  2459--IMP-PTR
      2550--IMP-PTR  2625--IMP-PTR  2686--IMP-PTR  2744--IMP-PTR  2889--IMP-PTR  2983--IMP-PTR  3041--IMP-PTR
      3099--IMP-PTR  3157--IMP-PTR  3215--IMP-PTR  3274--IMP-PTR  3379--IMP-PTR  3445--IMP-PTR  3511--IMP-PTR
      3607--IMP-PTR  3704--IMP-PTR  3762--IMP-PTR  3820--IMP-PTR  5935>>DOCASE   7115>>ASSIGN   8305>>ASSIGN
RET IN PROCEDURE SCAN
      9270**LABEL    9259--GOTO
SCAN
      9156**PROC     5931--CALL     6036--CALL     6136--CALL     6235--CALL     6332--CALL     6429--CALL
      6526--CALL     6624--CALL     6722--CALL     6819--CALL     6916--CALL     7014--CALL     7112--CALL
PL6.E3A0      #007=XSC$DECODE File=XSC$ACSE.:XSA1TSI                             WED 10/01/97 11:52 Page:270
      7217--CALL     7316--CALL     7415--CALL     7512--CALL     7613--CALL     7711--CALL     7811--CALL
      7912--CALL     8009--CALL     8106--CALL     8204--CALL     8302--CALL     8407--CALL     8507--CALL
      8611--CALL     8710--CALL     8819--CALL     8919--CALL     9036--CALL     9136--CALL
SCANERR
      9145**LABEL    5788--GOTO     5811--GOTO     5931--CALLALT  6036--CALLALT  6136--CALLALT  6140--GOTO
      6235--CALLALT  6332--CALLALT  6429--CALLALT  6526--CALLALT  6624--CALLALT  6722--CALLALT  6819--CALLALT
      6916--CALLALT  7014--CALLALT  7112--CALLALT  7217--CALLALT  7316--CALLALT  7320--GOTO     7415--CALLALT
      7512--CALLALT  7613--CALLALT  7711--CALLALT  7811--CALLALT  7816--GOTO     7912--CALLALT  8009--CALLALT
      8106--CALLALT  8204--CALLALT  8302--CALLALT  8407--CALLALT  8507--CALLALT  8611--CALLALT  8710--CALLALT
      8819--CALLALT  8919--CALLALT  8940--GOTO     9036--CALLALT  9136--CALLALT
SCANITEM.P
      5709**DCL      9187>>ASSIGN   9199>>ASSIGN   9216>>ASSIGN   9238>>IF       9240<<ASSIGN   9244>>ASSIGN
      9249<<ASSIGN   9249>>ASSIGN   9250>>ASSIGN   9251>>ASSIGN   9251>>ASSIGN
SCANITEM.U
      5707**DCL      5708--REDEF    5709--REDEF    5710--REDEF
SCANITEM.X.LEN
      5701**DCL      9183>>ASSIGN   9195>>ASSIGN   9210>>ASSIGN   9234>>ASSIGN   9241<<ASSIGN
SCANITEM.X.LVL
      5706**DCL      9164>>IF       9166>>IF
SCANITEM.X.OPT
      5702**DCL      9261>>IF
SCANITEM.X.TAG
      5703**DCL      9168>>IF
SCANITEM.X.TYP
      5705**DCL      9171>>DOCASE
SCANITEM.Z
      5699**DCL      5700--REDEF
SRC$
      5754**DCL      9186<<ASSIGN   9188>>ASSIGN   9206<<ASSIGN   9207>>ASSIGN   9215>>ASSIGN
SRCBYTES
      5755**DCL      9188>>ASSIGN   9207>>ASSIGN   9244>>ASSIGN   9251>>ASSIGN
SRCLEN
      5756**DCL      5755--IMP-SIZ  9182<<ASSIGN   9184>>IF       9188>>ASSIGN   9194<<ASSIGN   9196>>IF
      9199>>ASSIGN   9200>>DOINDEX  9207>>ASSIGN   9208<<ASSIGN   9209<<ASSIGN   9209>>ASSIGN   9212>>IF
      9233<<ASSIGN   9235>>IF       9237>>ASSIGN   9244>>ASSIGN   9248<<ASSIGN   9250>>ASSIGN   9251>>ASSIGN
TAG
PL6.E3A0      #007=XSC$DECODE File=XSC$ACSE.:XSA1TSI                             WED 10/01/97 11:52 Page:271
      5757**DCL      5758--REDEF    5798<<ASSIGN   5803>>ASSIGN   5805>>ASSIGN
TAGX.CONSTRUCTED
      5761**DCL      5808>>IF
TEMP
      5763**DCL      5771<<ASSIGN   5773>>ASSIGN   5774>>ASSIGN   5776>>ASSIGN   5777>>ASSIGN   5780>>ASSIGN
      5789>>ASSIGN   5790>>IF       5791>>ASSIGN   5802>>IF       5803>>ASSIGN   5810>>IF       5812>>ASSIGN
      5813>>ASSIGN   5820<<ASSIGN   5821>>ASSIGN   5821>>ASSIGN   5826<<ASSIGN   5829>>ASSIGN   5830>>ASSIGN
      6486--ASSIGN   6529>>ASSIGN   6584--ASSIGN   6627>>ASSIGN   6876--ASSIGN   6919>>ASSIGN   6974--ASSIGN
      7017>>ASSIGN   7472--ASSIGN   7515>>IF       7519>>ASSIGN   7671--ASSIGN   7771--ASSIGN   7817>>ASSIGN
      8066--ASSIGN   8109>>ASSIGN   8164--ASSIGN   8207>>ASSIGN   8467--ASSIGN   8510>>ASSIGN   8670--ASSIGN
      8713>>IF       8717>>ASSIGN   8879--ASSIGN   8922>>ASSIGN   9161<<ASSIGN   9188<<ASSIGN   9189>>IF
      9207<<ASSIGN   9209>>ASSIGN   9217<<ASSIGN   9218>>DOINDEX  9284<<ASSIGN   9287>>IF       9289<<ASSIGN
      9292>>IF       9294>>ASSIGN   9296<<ASSIGN   9298<<ASSIGN   9298>>ASSIGN
TWOZEROES.C
      5766**DCL      5796>>IF
TWOZEROES.X
      5765**DCL      5766--REDEF
VBLK
      5410**DCL        13--PROC
VBLK.DATA.PTR$
      5491**DCL      5778>>ASSIGN
VBLK.DATA.SIZE
      5492**DCL      5771>>ASSIGN   5814>>IF       5924>>ASSIGN
VBLK.EVENT
      5497**DCL      6039<<ASSIGN   7516<<ASSIGN   7518<<ASSIGN   8410<<ASSIGN   8714<<ASSIGN   8716<<ASSIGN
      8822<<ASSIGN   8930<<ASSIGN
VBLK.FPT$
      5425**DCL      4352--IMP-PTR  4411--IMP-PTR  4486--IMP-PTR  4545--IMP-PTR  4604--IMP-PTR  6040>>ASSIGN
      6041>>ASSIGN   6529>>ASSIGN   6627>>ASSIGN   6919>>ASSIGN   7017>>ASSIGN   7115>>ASSIGN   7220>>ASSIGN
      7221>>ASSIGN   7519>>ASSIGN   7817>>ASSIGN   8109>>ASSIGN   8207>>ASSIGN   8305>>ASSIGN   8411>>ASSIGN
      8412>>ASSIGN   8510>>ASSIGN   8614>>ASSIGN   8615>>ASSIGN   8717>>ASSIGN   8823>>ASSIGN   8824>>ASSIGN
      8922>>ASSIGN   8931>>ASSIGN   8932>>ASSIGN
XSC$ASSOCIATE
      4411**DCL      6040<<ASSIGN   7220<<ASSIGN
XSC$ASSOCIATE.CTXT$
      4467**DCL      7115<<ASSIGN   8305<<ASSIGN
PL6.E3A0      #007=XSC$DECODE File=XSC$ACSE.:XSA1TSI                             WED 10/01/97 11:52 Page:272
XSC$ASSOCIATE.ERRDEF
      4426**DCL      4446--REDEF
XSC$ASSOCIATE.FNC
      4422**DCL      6041<<ASSIGN   7221<<ASSIGN
XSC$ASSOCIATE.IAEID
      4461**DCL      7017<<ASSIGN
XSC$ASSOCIATE.IAPID
      4460**DCL      6919<<ASSIGN
XSC$ASSOCIATE.RAEID
      4465**DCL      6627<<ASSIGN   8207<<ASSIGN
XSC$ASSOCIATE.RAPID
      4464**DCL      6529<<ASSIGN   8109<<ASSIGN
XSC$ASSOCIATE.RESULT
      4425**DCL      7519<<ASSIGN
XSC$ASSOCIATE.RSDIAG
      4424**DCL      7817<<ASSIGN
XSC$GENERIC.ERRDEF
      4361**DCL      4381--REDEF
XSC$P_ABORT
      4486**DCL      8931<<ASSIGN
XSC$P_ABORT.ERRDEF
      4496**DCL      4516--REDEF
XSC$P_ABORT.FNC
      4492**DCL      8932<<ASSIGN
XSC$RELEASE
      4545**DCL      8411<<ASSIGN   8614<<ASSIGN
XSC$RELEASE.ERRDEF
      4555**DCL      4575--REDEF
XSC$RELEASE.FNC
      4551**DCL      8412<<ASSIGN   8615<<ASSIGN
XSC$RELEASE.REASON
      4553**DCL      8510<<ASSIGN   8717<<ASSIGN
XSC$U_ABORT
      4604**DCL      8823<<ASSIGN
XSC$U_ABORT.ABRTSRC
      4612**DCL      8922<<ASSIGN
PL6.E3A0      #007=XSC$DECODE File=XSC$ACSE.:XSA1TSI                             WED 10/01/97 11:52 Page:273
XSC$U_ABORT.ERRDEF
      4614**DCL      4634--REDEF
XSC$U_ABORT.FNC
      4610**DCL      8824<<ASSIGN
XSC_ASSOCIATE
      4724**DCL      6040>>ASSIGN   7220>>ASSIGN
XSC_ASSOCIATE.ERRDEF
      4739**DCL      4759--REDEF
XSC_GENERIC.ERRDEF
      4674**DCL      4694--REDEF
XSC_ITEMCNT
      5685**DCL      5835<<ASSIGN   5924>>ASSIGN   6029>>ASSIGN   6102>>ASSIGN   6129>>ASSIGN   6216>>ASSIGN
      6228>>ASSIGN   6322>>ASSIGN   6325>>ASSIGN   6419>>ASSIGN   6422>>ASSIGN   6486>>ASSIGN   6519>>ASSIGN
      6584>>ASSIGN   6617>>ASSIGN   6712>>ASSIGN   6715>>ASSIGN   6809>>ASSIGN   6812>>ASSIGN   6876>>ASSIGN
      6909>>ASSIGN   6974>>ASSIGN   7007>>ASSIGN   7102>>ASSIGN   7105>>ASSIGN   7210>>ASSIGN   7282>>ASSIGN
      7309>>ASSIGN   7396>>ASSIGN   7408>>ASSIGN   7472>>ASSIGN   7505>>ASSIGN   7606>>ASSIGN   7671>>ASSIGN
      7704>>ASSIGN   7771>>ASSIGN   7804>>ASSIGN   7902>>ASSIGN   7905>>ASSIGN   7999>>ASSIGN   8002>>ASSIGN
      8066>>ASSIGN   8099>>ASSIGN   8164>>ASSIGN   8197>>ASSIGN   8292>>ASSIGN   8295>>ASSIGN   8400>>ASSIGN
      8467>>ASSIGN   8500>>ASSIGN   8604>>ASSIGN   8670>>ASSIGN   8703>>ASSIGN   8812>>ASSIGN   8879>>ASSIGN
      8912>>ASSIGN   9029>>ASSIGN   9126>>ASSIGN   9129>>ASSIGN
XSC_P_ABORT
      4799**DCL      8931>>ASSIGN
XSC_P_ABORT.ERRDEF
      4809**DCL      4829--REDEF
XSC_RELEASE
      4858**DCL      8411>>ASSIGN   8614>>ASSIGN
XSC_RELEASE.ERRDEF
      4868**DCL      4888--REDEF
XSC_U_ABORT
      4917**DCL      8823>>ASSIGN
XSC_U_ABORT.ERRDEF
      4927**DCL      4947--REDEF
XSP$ACTIVITY_DISCARD.ERRDEF
      2288**DCL      2308--REDEF
XSP$ACTIVITY_END.ERRDEF
      2350**DCL      2370--REDEF
PL6.E3A0      #007=XSC$DECODE File=XSC$ACSE.:XSA1TSI                             WED 10/01/97 11:52 Page:274
XSP$ACTIVITY_INTERRUPT.ERRDEF
      2411**DCL      2431--REDEF
XSP$ACTIVITY_RESUME.ERRDEF
      2475**DCL      2495--REDEF
XSP$ACTIVITY_START.ERRDEF
      2565**DCL      2585--REDEF
XSP$ALTER_CONTEXT.ERRDEF
      2634**DCL      2654--REDEF
XSP$CAPABILITY_DATA.ERRDEF
      2695**DCL      2715--REDEF
XSP$CONNECT.CALLED$
      2839**DCL      2840--REDEF
XSP$CONNECT.CTXT$
      2832**DCL      7115>>ASSIGN   8305>>ASSIGN
XSP$CONNECT.DFLT$
      2829**DCL      2830--REDEF
XSP$CONNECT.ERRDEF
      2798**DCL      2818--REDEF
XSP$CONTROL_GIVE.ERRDEF
      2935**DCL      2955--REDEF
XSP$DATA.ERRDEF
      2992**DCL      3012--REDEF
XSP$EXPEDITED_DATA.ERRDEF
      3050**DCL      3070--REDEF
XSP$GENERIC.ERRDEF
      2228**DCL      2248--REDEF
XSP$GENERIC.FNC
      2188**DCL      5935>>DOCASE
XSP$P_ABORT.ERRDEF
      3109**DCL      3129--REDEF
XSP$P_EXCEPTION_REPORT.ERRDEF
      3167**DCL      3187--REDEF
XSP$RELEASE.ERRDEF
      3225**DCL      3245--REDEF
XSP$RESYNCHRONIZE.ERRDEF
      3327**DCL      3347--REDEF
PL6.E3A0      #007=XSC$DECODE File=XSC$ACSE.:XSA1TSI                             WED 10/01/97 11:52 Page:275
XSP$SYNC_MAJOR.ERRDEF
      3394**DCL      3414--REDEF
XSP$SYNC_MINOR.ERRDEF
      3460**DCL      3480--REDEF
XSP$TOKEN_GIVE.ERRDEF
      3559**DCL      3579--REDEF
XSP$TOKEN_PLEASE.ERRDEF
      3655**DCL      3675--REDEF
XSP$TYPED_DATA.ERRDEF
      3713**DCL      3733--REDEF
XSP$U_ABORT.ERRDEF
      3771**DCL      3791--REDEF
XSP$U_EXCEPTION_REPORT.ERRDEF
      3830**DCL      3850--REDEF
PL6.E3A0      #007=XSC$DECODE File=XSC$ACSE.:XSA1TSI                             WED 10/01/97 11:52 Page:276
              *** CROSS REFERENCE LISTING ***
    **     DENOTES     IDENTIFIER DEFINITION
    <<                 IDENTIFIER'S VALUE SET
    >>                 IDENTIFIER'S VALUE USED
    <>                 IDENTIFIER SET AND/OR USED
    --                 IDENTIFIER REFERENCED
PL6.E3A0      #007=XSC$DECODE File=XSC$ACSE.:XSA1TSI                             WED 10/01/97 11:52 Page:277
              MINI UREF LISTING

PFNCCASE    5935**LABEL
XSC$DECODE      13**PROC

PL6.E3A0      #008=XSC$AMACHINE File=XSC$ACSE.:XSA1TSI                           WED 10/01/97 11:53 Page:278
     1387        1        /*T***********************************************************/
     1388        2        /*T*                                                         */
     1389        3        /*T* Copyright (c) Bull HN Information Systems Inc., 1997    */
     1390        4        /*T*                                                         */
     1391        5        /*T***********************************************************/
     1392        6        /*F*    NAME:   XSC$AMACHINE
     1393        7
     1394        8                XSC$AMACHINE is the ACSE state machine.  This routine mixes the
     1395        9                current state of a connection with an incoming event to form an
     1396       10                unpredictable brew of outgoing events and connection state changes.
     1397       11        */
     1398       12        XSC$AMACHINE: PROC( VBLK) ALTRET;
     1399       13        %INCLUDE XSC_ACSE_E;
     1400       91        %INCLUDE XSC_ACSE_M;
     1401      400            %XSC$GENERIC( STCLASS="BASED( CFPT$)");
     1402      459        %INCLUDE XSC_INTERNAL_E;
     1403      547        %INCLUDE XSC_INTERNAL_M;
     1404      892            %XSC$CCTX( NAME=CCTX, STCLASS="BASED( VBLK.CTX$)");
     1405      938            %XSC$VBLK( NAME=VBLK, STCLASS="");
     1406     1044        %INCLUDE UM_CP6;
     1407     1896        %MACRO FATALDEF( NAME=XSC_FATAL, STCLASS="CONSTANT SYMDEF", LVL=1, LAST=";",
     1408     1897                         ERR#=0, SEV=7);
     1409     1898            %VLP_ERRCODE( FPTN=NAME, STCLASS=STCLASS, FCG='XS', MID='C',
     1410     1899                          MON='0'B, ERR#=ERR#, SEV=SEV);
     1411     1900        %MEND;
     1412     1901        %INCLUDE XSC_PERR_C;
     1413     1978            %FATALDEF( NAME=XSC_F$NOACSE, ERR#=%F$NOACSE);
     1414     2026            /*E*  ERROR:  XSC-F$NOACSE-7
     1415     2027                MESSAGE:  No handler for this ACSE primitive.
     1416     2028            */
     1417     2029
     1418     2030    1       DCL XSC$DUMPFPT ENTRY(1);
     1419     2031    1       DCL XSC$ENCODE ENTRY(1) ALTRET;
     1420     2032    1       DCL XSC$RELCTX ENTRY(1) ALTRET;
     1421     2033    1       DCL XSS$SCREECH ENTRY(1);
     1422     2034
     1423     2035    1       DCL XSS_TRACE SBIN SYMREF;
PL6.E3A0      #008=XSC$AMACHINE File=XSC$ACSE.:XSA1TSI                           WED 10/01/97 11:53 Page:279
     1424     2036
     1425     2037    1       DCL I SBIN;
     1426     2038    1       DCL CFPT$ PTR;
     1427     2039        %EJECT;
PL6.E3A0      #008=XSC$AMACHINE File=XSC$ACSE.:XSA1TSI                           WED 10/01/97 11:53 Page:280
     1428     2040        /************************************************************************
     1429     2041        *                                                                       *
     1430     2042        *       Various internal macros                                         *
     1431     2043        *                                                                       *
     1432     2044        ************************************************************************/
     1433     2045        %MACRO EVENT( EV=0); /* generate an output event of the specified type */
     1434     2046            CALL EVNT( EV) ALTRET( EVNTERR);
     1435     2047        %MEND;
     1436     2048        %MACRO INVALID; /* an illegal state/event combination has occurred */
     1437     2049            CALL OOPS;
     1438     2050        %MEND;
     1439     2051
     1440     2052        %SET P1 = CHARTEXT( 'VBLK.APDUERR = 0');
     1441     2053
     1442     2054        %SET P2 = CHARTEXT( 'CCTX.ORIGINATOR');
     1443     2055
     1444     2056        %EJECT;
PL6.E3A0      #008=XSC$AMACHINE File=XSC$ACSE.:XSA1TSI                           WED 10/01/97 11:53 Page:281
     1445     2057        /************************************************************************
     1446     2058        *                                                                       *
     1447     2059        *       Set up and then enter the ACSE state machine                    *
     1448     2060        *                                                                       *
     1449     2061        ************************************************************************/
     1450     2062    1       CFPT$ = VBLK.FPT$;
     1451     2063            /* update state/event history */
     1452     2064    1       I = 1 + CCTX.HISTX;
     1453     2065    1       IF I > 7 THEN
     1454     2066    1           I = 0;
     1455     2067    1       CCTX.HISTX = I;
     1456     2068    1       CCTX.HIST.EVENT( I) = VBLK.EVENT;
     1457     2069    1       CCTX.HIST.NXTST( I) = %XSC_CST_NULL;  /* filled in before RETURN */
     1458     2070            /* fan out on the state and event */
     1459     2071    2       DO CASE( VBLK.EVENT);
     1460     2072    2           CASE( %XSC_CEV_AASCREQ);
     1461     2073    3               IF CCTX.STATE = %XSC_CST_0 THEN DO;
     1462     2074    4                   IF( %P1) THEN DO;
     1463     2075                            %EVENT( EV=%XSC_CEV_AARQ);
     1464     2078    4                       CCTX.STATE = %XSC_CST_1;
     1465     2079    4                       END;
     1466     2080    3                   ELSE
     1467     2081                            %INVALID;
     1468     2084    3                   END;
     1469     2085    2               ELSE
     1470     2086                        %INVALID;
     1471     2089    2           CASE( %XSC_CEV_AASCRSP);
     1472     2090    3               IF CCTX.STATE = %XSC_CST_2 THEN DO;
     1473     2091                        %EVENT( EV=%XSC_CEV_AAREP);
     1474     2094    3                   CCTX.STATE = %XSC_CST_5;
     1475     2095    3                   END;
     1476     2096    2               ELSE
     1477     2097                        %INVALID;
     1478     2100    2           CASE( %XSC_CEV_AASCRSN);
     1479     2101    3               IF CCTX.STATE = %XSC_CST_2 THEN DO;
     1480     2102                        %EVENT( EV=%XSC_CEV_AAREN);
     1481     2105    3                   CCTX.STATE = %XSC_CST_0;
PL6.E3A0      #008=XSC$AMACHINE File=XSC$ACSE.:XSA1TSI                           WED 10/01/97 11:53 Page:282
     1482     2106    3                   END;
     1483     2107    2               ELSE
     1484     2108                        %INVALID;
     1485     2111    2           CASE( %XSC_CEV_AARQ);
     1486     2112    3               IF CCTX.STATE = %XSC_CST_0 THEN DO;
     1487     2113    4                   IF( %P1) THEN DO;
     1488     2114                            %EVENT( EV=%XSC_CEV_AASCIND);
     1489     2117    4                       CCTX.STATE = %XSC_CST_2;
     1490     2118    4                       END;
     1491     2119    4                   ELSE DO;
     1492     2120                            %EVENT( EV=%XSC_CEV_AAREN);
     1493     2123    4                       CCTX.STATE = %XSC_CST_0;
     1494     2124    4                       END;
     1495     2125    3                   END;
     1496     2126    2               ELSE
     1497     2127                        %INVALID;
     1498     2130    2           CASE( %XSC_CEV_AAREP);
     1499     2131    3               IF CCTX.STATE = %XSC_CST_1 THEN DO;
     1500     2132                        %EVENT( EV=%XSC_CEV_AASCCNP);
     1501     2135    3                   CCTX.STATE = %XSC_CST_5;
     1502     2136    3                   END;
     1503     2137    2               ELSE
     1504     2138                        %INVALID;
     1505     2141    2           CASE( %XSC_CEV_AAREN);
     1506     2142    3               IF CCTX.STATE = %XSC_CST_1 THEN DO;
     1507     2143                        %EVENT( EV=%XSC_CEV_AASCCNN);
     1508     2146    3                   CCTX.STATE = %XSC_CST_0;
     1509     2147    3                   END;
     1510     2148    2               ELSE
     1511     2149                        %INVALID;
     1512     2152    2           CASE( %XSC_CEV_PCONCNN);
     1513     2153    3               IF CCTX.STATE = %XSC_CST_1 THEN DO;
     1514     2154                        %EVENT( EV=%XSC_CEV_AASCCNN);
     1515     2157    3                   CCTX.STATE = %XSC_CST_0;
     1516     2158    3                   END;
     1517     2159    2               ELSE
     1518     2160                        %INVALID;
PL6.E3A0      #008=XSC$AMACHINE File=XSC$ACSE.:XSA1TSI                           WED 10/01/97 11:53 Page:283
     1519     2163    2           CASE( %XSC_CEV_ARELREQ);
     1520     2164    3               IF CCTX.STATE = %XSC_CST_5 THEN DO;
     1521     2165                        %EVENT( EV=%XSC_CEV_RLRQ);
     1522     2168    3                   CCTX.STATE = %XSC_CST_3;
     1523     2169    3                   END;
     1524     2170    2               ELSE
     1525     2171                        %INVALID;
     1526     2174    2           CASE( %XSC_CEV_ARELRSP);
     1527     2175    3               IF CCTX.STATE = %XSC_CST_4 THEN DO;
     1528     2176                        %EVENT( EV=%XSC_CEV_RLREP);
     1529     2179    3                   CCTX.STATE = %XSC_CST_0;
     1530     2180    3                   END;
     1531     2181    2               ELSE
     1532     2182    3                   IF CCTX.STATE = %XSC_CST_6 THEN DO;
     1533     2183                            %EVENT( EV=%XSC_CEV_RLREP);
     1534     2186    3                       CCTX.STATE = %XSC_CST_3;
     1535     2187    3                       END;
     1536     2188    2                   ELSE
     1537     2189                            %INVALID;
     1538     2192    2           CASE( %XSC_CEV_ARELRSN);
     1539     2193    3               IF CCTX.STATE = %XSC_CST_4 THEN DO;
     1540     2194                        %EVENT( EV=%XSC_CEV_RLREN);
     1541     2197    3                   CCTX.STATE = %XSC_CST_5;
     1542     2198    3                   END;
     1543     2199    2               ELSE
     1544     2200                        %INVALID;
     1545     2203    2           CASE( %XSC_CEV_RLRQ);
     1546     2204    3               IF CCTX.STATE = %XSC_CST_5 THEN DO;
     1547     2205                        %EVENT( EV=%XSC_CEV_ARELIND);
     1548     2208    3                   CCTX.STATE = %XSC_CST_4;
     1549     2209    3                   END;
     1550     2210    2               ELSE
     1551     2211    3                   IF CCTX.STATE = %XSC_CST_3 THEN DO;
     1552     2212    4                       IF( %P2) THEN DO;
     1553     2213                                %EVENT( EV=%XSC_CEV_ARELIND);
     1554     2216    4                           CCTX.STATE = %XSC_CST_6;
     1555     2217    4                           END;
PL6.E3A0      #008=XSC$AMACHINE File=XSC$ACSE.:XSA1TSI                           WED 10/01/97 11:53 Page:284
     1556     2218    4                       ELSE DO;
     1557     2219                                %EVENT( EV=%XSC_CEV_ARELIND);
     1558     2222    4                           CCTX.STATE = %XSC_CST_7;
     1559     2223    4                           END;
     1560     2224    3                       END;
     1561     2225    2                   ELSE
     1562     2226                            %INVALID;
     1563     2229    2           CASE( %XSC_CEV_RLREP);
     1564     2230    3               IF CCTX.STATE = %XSC_CST_3 THEN DO;
     1565     2231                        %EVENT( EV=%XSC_CEV_ARELCNP);
     1566     2234    3                   CCTX.STATE = %XSC_CST_0;
     1567     2235    3                   END;
     1568     2236    2               ELSE
     1569     2237    3                   IF CCTX.STATE = %XSC_CST_7 THEN DO;
     1570     2238                            %EVENT( EV=%XSC_CEV_ARELCNP);
     1571     2241    3                       CCTX.STATE = %XSC_CST_4;
     1572     2242    3                       END;
     1573     2243    2                   ELSE
     1574     2244                            %INVALID;
     1575     2247    2           CASE( %XSC_CEV_RLREN);
     1576     2248    3               IF CCTX.STATE = %XSC_CST_3 THEN DO;
     1577     2249                        %EVENT( EV=%XSC_CEV_ARELCNN);
     1578     2252    3                   CCTX.STATE = %XSC_CST_5;
     1579     2253    3                   END;
     1580     2254    2               ELSE
     1581     2255                        %INVALID;
     1582     2258    2           CASE( %XSC_CEV_AUABREQ);
     1583     2259    3               IF CCTX.STATE ~= %XSC_CST_0 THEN DO;
     1584     2260                        %EVENT( EV=%XSC_CEV_ABRT);
     1585     2263    3                   CCTX.STATE = %XSC_CST_0;
     1586     2264    3                   END;
     1587     2265    2               ELSE
     1588     2266                        %INVALID;
     1589     2269    2           CASE( %XSC_CEV_ABRT);
     1590     2270    3               IF CCTX.STATE ~= %XSC_CST_0 THEN DO;
     1591     2271                        %EVENT( EV=%XSC_CEV_AUABIND);
     1592     2274    3                   CCTX.STATE = %XSC_CST_0;
PL6.E3A0      #008=XSC$AMACHINE File=XSC$ACSE.:XSA1TSI                           WED 10/01/97 11:53 Page:285
     1593     2275    3                   END;
     1594     2276    2               ELSE
     1595     2277                        %INVALID;
     1596     2280    2           CASE( %XSC_CEV_PPABIND);
     1597     2281    3               IF CCTX.STATE ~= %XSC_CST_0 THEN DO;
     1598     2282                        %EVENT( EV=%XSC_CEV_APABIND);
     1599     2285    3                   CCTX.STATE = %XSC_CST_0;
     1600     2286    3                   END;
     1601     2287    2               ELSE
     1602     2288                        %INVALID;
     1603     2291    2           CASE( ELSE);
     1604     2292                    %INVALID;
     1605     2295    2           END;
     1606     2296        %EJECT;
PL6.E3A0      #008=XSC$AMACHINE File=XSC$ACSE.:XSA1TSI                           WED 10/01/97 11:53 Page:286
     1607     2297    2       DO WHILE( %FALSE);
     1608     2298    2   EVNTERR:
     1609     2299                /* the EVNT routine ALTRETURNed because of some internal error */
     1610     2300    2           GOTO DONE;
     1611     2301    2           END;
     1612     2302        /************************************************************************
     1613     2303        *                                                                       *
     1614     2304        *       Done with state machine; record state and light outa here       *
     1615     2305        *                                                                       *
     1616     2306        ************************************************************************/
     1617     2307    1       I = CCTX.HISTX;
     1618     2308    1       CCTX.HIST.NXTST( I) = CCTX.STATE;  /* record new state in hist buffer */
     1619     2309    1   DONE:
     1620     2310    2       IF CCTX.ABORTING THEN DO;
     1621     2311                /* There was a problem handling the application's request
     1622     2312                   (probably the connection was dropped out from under it) or an
     1623     2313                   APDU was received that is inconsistent with connection state,
     1624     2314                   so we force a 'provider abort'.                              */
     1625     2315    3           IF CCTX.STATE > %XSC_CST_0 THEN DO;
     1626     2316    3               CALL EVNT( %XSC_CEV_ABRT);
     1627     2317    3               CALL EVNT( %XSC_CEV_APABIND);
     1628     2318    3               CCTX.STATE = %XSC_CST_0;
     1629     2319    3               END;
     1630     2320    2           END;
     1631     2321    2       IF CCTX.STATE = %XSC_CST_0 THEN DO;
     1632     2322                /* State is 'idle - unassociated' so release context */
     1633     2323    2           CALL XSC$RELCTX( VBLK.CTX$);
     1634     2324    2           IF CCTX.ABORTING THEN
     1635     2325                    /* during this trip thru the state machine, connection aborted */
     1636     2326                    /* have E$STATE or other error reported to user */
     1637     2327    2               ALTRETURN;
     1638     2328    2           END;
     1639     2329    2       IF CCTX.STATE > 127 THEN DO;
     1640     2330                /* There was a user request inconsistent with connection state. */
     1641     2331    2           CCTX.STATE = CCTX.STATE - 128;
     1642     2332                /* have E$STATE reported to user */
     1643     2333    2           ALTRETURN;
PL6.E3A0      #008=XSC$AMACHINE File=XSC$ACSE.:XSA1TSI                           WED 10/01/97 11:53 Page:287
     1644     2334    2           END;
     1645     2335    1       RETURN;
     1646     2336        %EJECT;
PL6.E3A0      #008=XSC$AMACHINE File=XSC$ACSE.:XSA1TSI                           WED 10/01/97 11:53 Page:288
     1647     2337        /************************************************************************
     1648     2338        *                                                                       *
     1649     2339        *       EVNT Routine                                                    *
     1650     2340        *                                                                       *
     1651     2341        ************************************************************************/
     1652     2342    1   EVNT: PROC( EVENT) ALTRET;
     1653     2343
     1654     2344    2       DCL EVENT SBIN;
     1655     2345            /* This table maps events destined for the ACSE-user into the function
     1656     2346               code identifying the ACSE FPT the user receives.                 */
     1657     2347    2       DCL CEV_TO_FNC(0:7) UBIN BYTE CONSTANT CALIGNED INIT(
     1658     2348    2           %XSC_FNC_AASCIND#,      /* XSC_CEV_AASCIND */
     1659     2349    2           %XSC_FNC_AASCCNF#,      /* XSC_CEV_AASCCNP */
     1660     2350    2           %XSC_FNC_AASCCNF#,      /* XSC_CEV_AASCCNN */
     1661     2351    2           %XSC_FNC_ARELIND#,      /* XSC_CEV_ARELIND */
     1662     2352    2           %XSC_FNC_ARELCNF#,      /* XSC_CEV_ARELCNP */
     1663     2353    2           %XSC_FNC_ARELCNF#,      /* XSC_CEV_ARELCNN */
     1664     2354    2           %XSC_FNC_AUABIND#,      /* XSC_CEV_AUABIND */
     1665     2355    2           %XSC_FNC_APABIND#);     /* XSC_CEV_APABIND */
     1666     2356
     1667     2357    2       IF EVENT <= %XSC_CEV_ABRT THEN
     1668     2358    2           GOTO SEND_APDU;
     1669     2359            /* determine whether event is to be reported to this user or other end */
     1670     2360    3       IF BINBIT( EVENT, 1) THEN DO;
     1671     2361                /* odd event number means report it (as FPT) to this user */
     1672     2362    3           XSC$GENERIC.FNC = CEV_TO_FNC( EVENT / 2 - 6);
     1673     2363    3           IF XSS_TRACE > 0 THEN
     1674     2364    3               CALL XSC$DUMPFPT( XSC$GENERIC);
     1675     2365    3           IF CCTX.ENTRY$ ~= ENTADDR( NIL) THEN
     1676     2366    3               CALL CCTX.ENTRY$( XSC$GENERIC)
     1677     2367    4               WHENALTRETURN DO;
     1678     2368    4                   CCTX.ABORTING = %TRUE;
     1679     2369    4                   END;
     1680     2370    3           ELSE
     1681     2371                    /* no ACSE-user handler routine defined.  This can't be! */
     1682     2372    3               CALL XSS$SCREECH( XSC_F$NOACSE);
     1683     2373    3           END;
PL6.E3A0      #008=XSC$AMACHINE File=XSC$ACSE.:XSA1TSI                           WED 10/01/97 11:53 Page:289
     1684     2374    3       ELSE DO;
     1685     2375                /* even event number means send it (as APDU) to the other end */
     1686     2376    3   SEND_APDU:
     1687     2377    3           VBLK.EVENT = EVENT;
     1688     2378    3           CALL XSC$ENCODE( VBLK)
     1689     2379    4           WHENALTRETURN DO;
     1690     2380    4               CCTX.ABORTING = %TRUE;
     1691     2381    4               END;
     1692     2382    3           END;
     1693     2383    2       IF CCTX.ABORTING THEN
     1694     2384    2           ALTRETURN;
     1695     2385    2       RETURN;
     1696     2386
     1697     2387    2       END EVNT;
     1698     2388        %EJECT;
PL6.E3A0      #008=XSC$AMACHINE File=XSC$ACSE.:XSA1TSI                           WED 10/01/97 11:53 Page:290
     1699     2389        /************************************************************************
     1700     2390        *                                                                       *
     1701     2391        *       OOPS Routine                                                    *
     1702     2392        *                                                                       *
     1703     2393        ************************************************************************/
     1704     2394    1   OOPS: PROC;
     1705     2395            /* An illegal state/event combination was detected */
     1706     2396    2       IF VBLK.EVENT < %XSC_CEV_AASCREQ THEN
     1707     2397                /* Illegal incoming APDU or Presentation event, so abort connection */
     1708     2398    2           CCTX.ABORTING = %TRUE;
     1709     2399    2       ELSE
     1710     2400                /* Illegal event was a user request, so just crab about it */
     1711     2401    2           CCTX.STATE = CCTX.STATE + 128;
     1712     2402    2       RETURN;
     1713     2403
     1714     2404    2       END OOPS;
     1715     2405
     1716     2406    1       END XSC$AMACHINE;
     1717     2407        %EOD;

PL6.E3A0      #008=XSC$AMACHINE File=XSC$ACSE.:XSA1TSI                           WED 10/01/97 11:53 Page:291
--  Include file information  --

   XSC_PERR_C.:XSA1TOU  is referenced.
   UM_CP6.:E05OU  is referenced.
   XSC_INTERNAL_M.:XSA1TOU  is referenced.
   XSC_INTERNAL_E.:XSA1TOU  is referenced.
   XSC_ACSE_M.:XSA1TOU  is referenced.
   XSC_ACSE_E.:XSA1TOU  is referenced.
      No diagnostics issued in procedure XSC$AMACHINE.

   Procedure XSC$AMACHINE requires 522 words for executable code.
   Procedure XSC$AMACHINE requires 8 words of local(AUTO) storage.

PL6.E3A0      #008=XSC$AMACHINE File=XSC$ACSE.:XSA1TSI                           WED 10/01/97 11:53 Page:292

 Object Unit name= XSC$AMACHINE                               File name= XSC$ACSE.:XSA1TOU
 UTS= OCT 01 '97 11:53:01.28 WED                              Compiler= PL-6/E31         Sev=      00
 SharedLib= :SHARED_SYSTEM                                    Alt SharedLib=


    ****  Control sections  ****

 Sect   Type Bound  Init  Size OctSiz  Section name(segment info)
    0  RoData even  UTS      3      3  XSC$AMACHINE
    1   Proc  even  none   522   1012  XSC$AMACHINE
    2  RoData even  none    34     42  XSC$AMACHINE

    ****  Entry defs  ****

                              Check   Calling
                             calling  sequence
  Sect OctLoc Primary Altret sequence   type   Parms  Name
     1      0   yes    yes     yes      Std        1  XSC$AMACHINE

  ****  Data defs  ****

 Sect OctLoc  Name                           Sect OctLoc  Name
    0      0  XSC_F$NOACSE

  ****  Entry refs  ****

         Check        Calling
        calling       sequence
Altret sequence SRef   type   Args  Name
 yes     yes           Std       1 XSC$RELCTX
         yes           Std       1 XSC$DUMPFPT
         yes           Std       1 XSS$SCREECH
 yes     yes           Std       1 XSC$ENCODE
                       nStd      0 X66_AUTO_1
                       nStd      0 X66_AALT
                       nStd      0 X66_ARET
PL6.E3A0      #008=XSC$AMACHINE File=XSC$ACSE.:XSA1TSI                           WED 10/01/97 11:53 Page:293

  ****  Data refs  ****

  Flags:  r = read only, s = secondary
Flgs Name                             Flgs Name                             Flgs Name
     XSS_TRACE

  ****  Segment refs  ****

  Flags:  r = read only, s = secondary
Flgs Name                             Flgs Name                             Flgs Name
     ISSID
PL6.E3A0      #008=XSC$AMACHINE File=XSC$ACSE.:XSA1TSI                           WED 10/01/97 11:53 Page:294


     1387        1        /*T***********************************************************/
     1388        2        /*T*                                                         */
     1389        3        /*T* Copyright (c) Bull HN Information Systems Inc., 1997    */
     1390        4        /*T*                                                         */
     1391        5        /*T***********************************************************/
     1392        6        /*F*    NAME:   XSC$AMACHINE
     1393        7
     1394        8                XSC$AMACHINE is the ACSE state machine.  This routine mixes the
     1395        9                current state of a connection with an incoming event to form an
     1396       10                unpredictable brew of outgoing events and connection state changes.
     1397       11        */
     1398       12        XSC$AMACHINE: PROC( VBLK) ALTRET;

     12  1 000000   000000 700200 xent  XSC$AMACHINE TSX0  ! X66_AUTO_1
         1 000001   000010 000001                    ZERO    8,1

     1399       13        %INCLUDE XSC_ACSE_E;
     1400       91        %INCLUDE XSC_ACSE_M;
     1401      400            %XSC$GENERIC( STCLASS="BASED( CFPT$)");
     1402      459        %INCLUDE XSC_INTERNAL_E;
     1403      547        %INCLUDE XSC_INTERNAL_M;
     1404      892            %XSC$CCTX( NAME=CCTX, STCLASS="BASED( VBLK.CTX$)");
     1405      938            %XSC$VBLK( NAME=VBLK, STCLASS="");
     1406     1044        %INCLUDE UM_CP6;
     1407     1896        %MACRO FATALDEF( NAME=XSC_FATAL, STCLASS="CONSTANT SYMDEF", LVL=1, LAST=";",
     1408     1897                         ERR#=0, SEV=7);
     1409     1898            %VLP_ERRCODE( FPTN=NAME, STCLASS=STCLASS, FCG='XS', MID='C',
     1410     1899                          MON='0'B, ERR#=ERR#, SEV=SEV);
     1411     1900        %MEND;
     1412     1901        %INCLUDE XSC_PERR_C;
     1413     1978            %FATALDEF( NAME=XSC_F$NOACSE, ERR#=%F$NOACSE);
     1414     2026            /*E*  ERROR:  XSC-F$NOACSE-7
     1415     2027                MESSAGE:  No handler for this ACSE primitive.
     1416     2028            */
     1417     2029
     1418     2030    1       DCL XSC$DUMPFPT ENTRY(1);
PL6.E3A0      #008=XSC$AMACHINE File=XSC$ACSE.:XSA1TSI                           WED 10/01/97 11:53 Page:295
     1419     2031    1       DCL XSC$ENCODE ENTRY(1) ALTRET;
     1420     2032    1       DCL XSC$RELCTX ENTRY(1) ALTRET;
     1421     2033    1       DCL XSS$SCREECH ENTRY(1);
     1422     2034
     1423     2035    1       DCL XSS_TRACE SBIN SYMREF;
     1424     2036
     1425     2037    1       DCL I SBIN;
     1426     2038    1       DCL CFPT$ PTR;
     1427     2039        %EJECT;
PL6.E3A0      #008=XSC$AMACHINE File=XSC$ACSE.:XSA1TSI                           WED 10/01/97 11:53 Page:296
     1428     2040        /************************************************************************
     1429     2041        *                                                                       *
     1430     2042        *       Various internal macros                                         *
     1431     2043        *                                                                       *
     1432     2044        ************************************************************************/
     1433     2045        %MACRO EVENT( EV=0); /* generate an output event of the specified type */
     1434     2046            CALL EVNT( EV) ALTRET( EVNTERR);
     1435     2047        %MEND;
     1436     2048        %MACRO INVALID; /* an illegal state/event combination has occurred */
     1437     2049            CALL OOPS;
     1438     2050        %MEND;
     1439     2051
     1440     2052        %SET P1 = CHARTEXT( 'VBLK.APDUERR = 0');
     1441     2053
     1442     2054        %SET P2 = CHARTEXT( 'CCTX.ORIGINATOR');
     1443     2055
     1444     2056        %EJECT;
PL6.E3A0      #008=XSC$AMACHINE File=XSC$ACSE.:XSA1TSI                           WED 10/01/97 11:53 Page:297
     1445     2057        /************************************************************************
     1446     2058        *                                                                       *
     1447     2059        *       Set up and then enter the ACSE state machine                    *
     1448     2060        *                                                                       *
     1449     2061        ************************************************************************/
     1450     2062    1       CFPT$ = VBLK.FPT$;

   2062  1 000002   200003 470500                    LDP0    @VBLK,,AUTO
         1 000003   000001 236100                    LDQ     1,,PR0
         1 000004   200005 756100                    STQ     CFPT$,,AUTO

     1451     2063            /* update state/event history */
     1452     2064    1       I = 1 + CCTX.HISTX;

   2064  1 000005   000000 471500                    LDP1    0,,PR0
         1 000006   100000 236100                    LDQ     0,,PR1
         1 000007   000022 772000                    QRL     18
         1 000010   000777 376007                    ANQ     511,DL
         1 000011   000001 036007                    ADLQ    1,DL
         1 000012   200004 756100                    STQ     I,,AUTO

     1453     2065    1       IF I > 7 THEN

   2065  1 000013   000007 116007                    CMPQ    7,DL
         1 000014   000016 604400 1                  TMOZ    s:2067

     1454     2066    1           I = 0;

   2066  1 000015   200004 450100                    STZ     I,,AUTO

     1455     2067    1       CCTX.HISTX = I;

   2067  1 000016   200004 236100                    LDQ     I,,AUTO
         1 000017   000022 736000                    QLS     18
         1 000020   100000 552120                    STBQ    0,'20'O,PR1

     1456     2068    1       CCTX.HIST.EVENT( I) = VBLK.EVENT;
PL6.E3A0      #008=XSC$AMACHINE File=XSC$ACSE.:XSA1TSI                           WED 10/01/97 11:53 Page:298

   2068  1 000021   000000 471500                    LDP1    0,,PR0
         1 000022   200004 235100                    LDA     I,,AUTO
         1 000023   000001 735000                    ALS     1
         1 000024   000105 100500                    MLR     fill='000'O
         1 000025   000006 600001                    ADSC9   6,,PR0                   cn=3,n=1
         1 000026   100002 000001                    ADSC9   2,A,PR1                  cn=0,n=1

     1457     2069    1       CCTX.HIST.NXTST( I) = %XSC_CST_NULL;  /* filled in before RETURN */

   2069  1 000027   000000 471500                    LDP1    0,,PR0
         1 000030   000105 101400                    MRL     fill='000'O
         1 000031   000000 000004 2                  ADSC9   0                        cn=0,n=4
         1 000032   100002 200001                    ADSC9   2,A,PR1                  cn=1,n=1

     1458     2070            /* fan out on the state and event */
     1459     2071    2       DO CASE( VBLK.EVENT);

   2071  1 000033   000006 720100                    LXL0    6,,PR0
         1 000034   000777 360003                    ANX0    511,DU
         1 000035   000031 100003                    CMPX0   25,DU
         1 000036   000040 602010 1                  TNC     s:2071+5,X0
         1 000037   000603 710000 1                  TRA     s:2293
         1 000040   000603 710000 1                  TRA     s:2293
         1 000041   000161 710000 1                  TRA     s:2112
         1 000042   000215 710000 1                  TRA     s:2131
         1 000043   000236 710000 1                  TRA     s:2142
         1 000044   000376 710000 1                  TRA     s:2204
         1 000045   000446 710000 1                  TRA     s:2230
         1 000046   000502 710000 1                  TRA     s:2248
         1 000047   000543 710000 1                  TRA     s:2270
         1 000050   000603 710000 1                  TRA     s:2293
         1 000051   000257 710000 1                  TRA     s:2153
         1 000052   000603 710000 1                  TRA     s:2293
         1 000053   000563 710000 1                  TRA     s:2281
         1 000054   000071 710000 1                  TRA     s:2073
         1 000055   000603 710000 1                  TRA     s:2293
PL6.E3A0      #008=XSC$AMACHINE File=XSC$ACSE.:XSA1TSI                           WED 10/01/97 11:53 Page:299
         1 000056   000117 710000 1                  TRA     s:2090
         1 000057   000603 710000 1                  TRA     s:2293
         1 000060   000140 710000 1                  TRA     s:2101
         1 000061   000603 710000 1                  TRA     s:2293
         1 000062   000300 710000 1                  TRA     s:2164
         1 000063   000603 710000 1                  TRA     s:2293
         1 000064   000321 710000 1                  TRA     s:2175
         1 000065   000603 710000 1                  TRA     s:2293
         1 000066   000355 710000 1                  TRA     s:2193
         1 000067   000603 710000 1                  TRA     s:2293
         1 000070   000523 710000 1                  TRA     s:2259

     1460     2072    2           CASE( %XSC_CEV_AASCREQ);

     1461     2073    3               IF CCTX.STATE = %XSC_CST_0 THEN DO;

   2073  1 000071   000000 471500                    LDP1    0,,PR0
         1 000072   100000 236100                    LDQ     0,,PR1
         1 000073   777000 316003                    CANQ    -512,DU
         1 000074   000114 601000 1                  TNZ     s:2087

     1462     2074    4                   IF( %P1) THEN DO;

   2074  1 000075   000006 236100                    LDQ     6,,PR0
         1 000076   777000 316007                    CANQ    -512,DL
         1 000077   000111 601000 1                  TNZ     s:2082

     1463     2075                            %EVENT( EV=%XSC_CEV_AARQ);

   2076  1 000100   000002 236000 2                  LDQ     2
         1 000101   200007 756100                    STQ     CFPT$+2,,AUTO
         1 000102   000674 701000 1                  TSX1    EVNT
         1 000103   000606 702000 1                  TSX2    EVNTERR

     1464     2078    4                       CCTX.STATE = %XSC_CST_1;

   2078  1 000104   200003 470500                    LDP0    @VBLK,,AUTO
PL6.E3A0      #008=XSC$AMACHINE File=XSC$ACSE.:XSA1TSI                           WED 10/01/97 11:53 Page:300
         1 000105   000000 471500                    LDP1    0,,PR0
         1 000106   001000 236003                    LDQ     512,DU
         1 000107   100000 552140                    STBQ    0,'40'O,PR1

     1465     2079    4                       END;

   2079  1 000110   000605 710000 1                  TRA     s:2297

     1466     2080    3                   ELSE
     1467     2081                            %INVALID;

   2082  1 000111   000772 701000 1                  TSX1    OOPS
         1 000112   000000 011000                    NOP     0

     1468     2084    3                   END;

   2084  1 000113   000605 710000 1                  TRA     s:2297

     1469     2085    2               ELSE
     1470     2086                        %INVALID;

   2087  1 000114   000772 701000 1                  TSX1    OOPS
         1 000115   000000 011000                    NOP     0
         1 000116   000605 710000 1                  TRA     s:2297

     1471     2089    2           CASE( %XSC_CEV_AASCRSP);

     1472     2090    3               IF CCTX.STATE = %XSC_CST_2 THEN DO;

   2090  1 000117   000000 471500                    LDP1    0,,PR0
         1 000120   100000 236100                    LDQ     0,,PR1
         1 000121   777000 376003                    ANQ     -512,DU
         1 000122   002000 116003                    CMPQ    1024,DU
         1 000123   000135 601000 1                  TNZ     s:2098

     1473     2091                        %EVENT( EV=%XSC_CEV_AAREP);

PL6.E3A0      #008=XSC$AMACHINE File=XSC$ACSE.:XSA1TSI                           WED 10/01/97 11:53 Page:301
   2092  1 000124   000004 236000 2                  LDQ     4
         1 000125   200007 756100                    STQ     CFPT$+2,,AUTO
         1 000126   000674 701000 1                  TSX1    EVNT
         1 000127   000606 702000 1                  TSX2    EVNTERR

     1474     2094    3                   CCTX.STATE = %XSC_CST_5;

   2094  1 000130   200003 470500                    LDP0    @VBLK,,AUTO
         1 000131   000000 471500                    LDP1    0,,PR0
         1 000132   005000 236003                    LDQ     2560,DU
         1 000133   100000 552140                    STBQ    0,'40'O,PR1

     1475     2095    3                   END;

   2095  1 000134   000605 710000 1                  TRA     s:2297

     1476     2096    2               ELSE
     1477     2097                        %INVALID;

   2098  1 000135   000772 701000 1                  TSX1    OOPS
         1 000136   000000 011000                    NOP     0
         1 000137   000605 710000 1                  TRA     s:2297

     1478     2100    2           CASE( %XSC_CEV_AASCRSN);

     1479     2101    3               IF CCTX.STATE = %XSC_CST_2 THEN DO;

   2101  1 000140   000000 471500                    LDP1    0,,PR0
         1 000141   100000 236100                    LDQ     0,,PR1
         1 000142   777000 376003                    ANQ     -512,DU
         1 000143   002000 116003                    CMPQ    1024,DU
         1 000144   000156 601000 1                  TNZ     s:2109

     1480     2102                        %EVENT( EV=%XSC_CEV_AAREN);

   2103  1 000145   000006 236000 2                  LDQ     6
         1 000146   200007 756100                    STQ     CFPT$+2,,AUTO
PL6.E3A0      #008=XSC$AMACHINE File=XSC$ACSE.:XSA1TSI                           WED 10/01/97 11:53 Page:302
         1 000147   000674 701000 1                  TSX1    EVNT
         1 000150   000606 702000 1                  TSX2    EVNTERR

     1481     2105    3                   CCTX.STATE = %XSC_CST_0;

   2105  1 000151   200003 470500                    LDP0    @VBLK,,AUTO
         1 000152   000000 471500                    LDP1    0,,PR0
         1 000153   000000 236003                    LDQ     0,DU
         1 000154   100000 552140                    STBQ    0,'40'O,PR1

     1482     2106    3                   END;

   2106  1 000155   000605 710000 1                  TRA     s:2297

     1483     2107    2               ELSE
     1484     2108                        %INVALID;

   2109  1 000156   000772 701000 1                  TSX1    OOPS
         1 000157   000000 011000                    NOP     0
         1 000160   000605 710000 1                  TRA     s:2297

     1485     2111    2           CASE( %XSC_CEV_AARQ);

     1486     2112    3               IF CCTX.STATE = %XSC_CST_0 THEN DO;

   2112  1 000161   000000 471500                    LDP1    0,,PR0
         1 000162   100000 236100                    LDQ     0,,PR1
         1 000163   777000 316003                    CANQ    -512,DU
         1 000164   000212 601000 1                  TNZ     s:2128

     1487     2113    4                   IF( %P1) THEN DO;

   2113  1 000165   000006 236100                    LDQ     6,,PR0
         1 000166   777000 316007                    CANQ    -512,DL
         1 000167   000201 601000 1                  TNZ     s:2121

     1488     2114                            %EVENT( EV=%XSC_CEV_AASCIND);
PL6.E3A0      #008=XSC$AMACHINE File=XSC$ACSE.:XSA1TSI                           WED 10/01/97 11:53 Page:303

   2115  1 000170   000010 236000 2                  LDQ     8
         1 000171   200007 756100                    STQ     CFPT$+2,,AUTO
         1 000172   000674 701000 1                  TSX1    EVNT
         1 000173   000606 702000 1                  TSX2    EVNTERR

     1489     2117    4                       CCTX.STATE = %XSC_CST_2;

   2117  1 000174   200003 470500                    LDP0    @VBLK,,AUTO
         1 000175   000000 471500                    LDP1    0,,PR0
         1 000176   002000 236003                    LDQ     1024,DU
         1 000177   100000 552140                    STBQ    0,'40'O,PR1

     1490     2118    4                       END;

   2118  1 000200   000605 710000 1                  TRA     s:2297

     1491     2119    4                   ELSE DO;

     1492     2120                            %EVENT( EV=%XSC_CEV_AAREN);

   2121  1 000201   000006 236000 2                  LDQ     6
         1 000202   200007 756100                    STQ     CFPT$+2,,AUTO
         1 000203   000674 701000 1                  TSX1    EVNT
         1 000204   000606 702000 1                  TSX2    EVNTERR

     1493     2123    4                       CCTX.STATE = %XSC_CST_0;

   2123  1 000205   200003 470500                    LDP0    @VBLK,,AUTO
         1 000206   000000 471500                    LDP1    0,,PR0
         1 000207   000000 236003                    LDQ     0,DU
         1 000210   100000 552140                    STBQ    0,'40'O,PR1

     1494     2124    4                       END;

     1495     2125    3                   END;

PL6.E3A0      #008=XSC$AMACHINE File=XSC$ACSE.:XSA1TSI                           WED 10/01/97 11:53 Page:304
   2125  1 000211   000605 710000 1                  TRA     s:2297

     1496     2126    2               ELSE
     1497     2127                        %INVALID;

   2128  1 000212   000772 701000 1                  TSX1    OOPS
         1 000213   000000 011000                    NOP     0
         1 000214   000605 710000 1                  TRA     s:2297

     1498     2130    2           CASE( %XSC_CEV_AAREP);

     1499     2131    3               IF CCTX.STATE = %XSC_CST_1 THEN DO;

   2131  1 000215   000000 471500                    LDP1    0,,PR0
         1 000216   100000 236100                    LDQ     0,,PR1
         1 000217   777000 376003                    ANQ     -512,DU
         1 000220   001000 116003                    CMPQ    512,DU
         1 000221   000233 601000 1                  TNZ     s:2139

     1500     2132                        %EVENT( EV=%XSC_CEV_AASCCNP);

   2133  1 000222   000012 236000 2                  LDQ     10
         1 000223   200007 756100                    STQ     CFPT$+2,,AUTO
         1 000224   000674 701000 1                  TSX1    EVNT
         1 000225   000606 702000 1                  TSX2    EVNTERR

     1501     2135    3                   CCTX.STATE = %XSC_CST_5;

   2135  1 000226   200003 470500                    LDP0    @VBLK,,AUTO
         1 000227   000000 471500                    LDP1    0,,PR0
         1 000230   005000 236003                    LDQ     2560,DU
         1 000231   100000 552140                    STBQ    0,'40'O,PR1

     1502     2136    3                   END;

   2136  1 000232   000605 710000 1                  TRA     s:2297

PL6.E3A0      #008=XSC$AMACHINE File=XSC$ACSE.:XSA1TSI                           WED 10/01/97 11:53 Page:305
     1503     2137    2               ELSE
     1504     2138                        %INVALID;

   2139  1 000233   000772 701000 1                  TSX1    OOPS
         1 000234   000000 011000                    NOP     0
         1 000235   000605 710000 1                  TRA     s:2297

     1505     2141    2           CASE( %XSC_CEV_AAREN);

     1506     2142    3               IF CCTX.STATE = %XSC_CST_1 THEN DO;

   2142  1 000236   000000 471500                    LDP1    0,,PR0
         1 000237   100000 236100                    LDQ     0,,PR1
         1 000240   777000 376003                    ANQ     -512,DU
         1 000241   001000 116003                    CMPQ    512,DU
         1 000242   000254 601000 1                  TNZ     s:2150

     1507     2143                        %EVENT( EV=%XSC_CEV_AASCCNN);

   2144  1 000243   000014 236000 2                  LDQ     12
         1 000244   200007 756100                    STQ     CFPT$+2,,AUTO
         1 000245   000674 701000 1                  TSX1    EVNT
         1 000246   000606 702000 1                  TSX2    EVNTERR

     1508     2146    3                   CCTX.STATE = %XSC_CST_0;

   2146  1 000247   200003 470500                    LDP0    @VBLK,,AUTO
         1 000250   000000 471500                    LDP1    0,,PR0
         1 000251   000000 236003                    LDQ     0,DU
         1 000252   100000 552140                    STBQ    0,'40'O,PR1

     1509     2147    3                   END;

   2147  1 000253   000605 710000 1                  TRA     s:2297

     1510     2148    2               ELSE
     1511     2149                        %INVALID;
PL6.E3A0      #008=XSC$AMACHINE File=XSC$ACSE.:XSA1TSI                           WED 10/01/97 11:53 Page:306

   2150  1 000254   000772 701000 1                  TSX1    OOPS
         1 000255   000000 011000                    NOP     0
         1 000256   000605 710000 1                  TRA     s:2297

     1512     2152    2           CASE( %XSC_CEV_PCONCNN);

     1513     2153    3               IF CCTX.STATE = %XSC_CST_1 THEN DO;

   2153  1 000257   000000 471500                    LDP1    0,,PR0
         1 000260   100000 236100                    LDQ     0,,PR1
         1 000261   777000 376003                    ANQ     -512,DU
         1 000262   001000 116003                    CMPQ    512,DU
         1 000263   000275 601000 1                  TNZ     s:2161

     1514     2154                        %EVENT( EV=%XSC_CEV_AASCCNN);

   2155  1 000264   000014 236000 2                  LDQ     12
         1 000265   200007 756100                    STQ     CFPT$+2,,AUTO
         1 000266   000674 701000 1                  TSX1    EVNT
         1 000267   000606 702000 1                  TSX2    EVNTERR

     1515     2157    3                   CCTX.STATE = %XSC_CST_0;

   2157  1 000270   200003 470500                    LDP0    @VBLK,,AUTO
         1 000271   000000 471500                    LDP1    0,,PR0
         1 000272   000000 236003                    LDQ     0,DU
         1 000273   100000 552140                    STBQ    0,'40'O,PR1

     1516     2158    3                   END;

   2158  1 000274   000605 710000 1                  TRA     s:2297

     1517     2159    2               ELSE
     1518     2160                        %INVALID;

   2161  1 000275   000772 701000 1                  TSX1    OOPS
PL6.E3A0      #008=XSC$AMACHINE File=XSC$ACSE.:XSA1TSI                           WED 10/01/97 11:53 Page:307
         1 000276   000000 011000                    NOP     0
         1 000277   000605 710000 1                  TRA     s:2297

     1519     2163    2           CASE( %XSC_CEV_ARELREQ);

     1520     2164    3               IF CCTX.STATE = %XSC_CST_5 THEN DO;

   2164  1 000300   000000 471500                    LDP1    0,,PR0
         1 000301   100000 236100                    LDQ     0,,PR1
         1 000302   777000 376003                    ANQ     -512,DU
         1 000303   005000 116003                    CMPQ    2560,DU
         1 000304   000316 601000 1                  TNZ     s:2172

     1521     2165                        %EVENT( EV=%XSC_CEV_RLRQ);

   2166  1 000305   000016 236000 2                  LDQ     14
         1 000306   200007 756100                    STQ     CFPT$+2,,AUTO
         1 000307   000674 701000 1                  TSX1    EVNT
         1 000310   000606 702000 1                  TSX2    EVNTERR

     1522     2168    3                   CCTX.STATE = %XSC_CST_3;

   2168  1 000311   200003 470500                    LDP0    @VBLK,,AUTO
         1 000312   000000 471500                    LDP1    0,,PR0
         1 000313   003000 236003                    LDQ     1536,DU
         1 000314   100000 552140                    STBQ    0,'40'O,PR1

     1523     2169    3                   END;

   2169  1 000315   000605 710000 1                  TRA     s:2297

     1524     2170    2               ELSE
     1525     2171                        %INVALID;

   2172  1 000316   000772 701000 1                  TSX1    OOPS
         1 000317   000000 011000                    NOP     0
         1 000320   000605 710000 1                  TRA     s:2297
PL6.E3A0      #008=XSC$AMACHINE File=XSC$ACSE.:XSA1TSI                           WED 10/01/97 11:53 Page:308

     1526     2174    2           CASE( %XSC_CEV_ARELRSP);

     1527     2175    3               IF CCTX.STATE = %XSC_CST_4 THEN DO;

   2175  1 000321   000000 471500                    LDP1    0,,PR0
         1 000322   100000 236100                    LDQ     0,,PR1
         1 000323   777000 376003                    ANQ     -512,DU
         1 000324   004000 116003                    CMPQ    2048,DU
         1 000325   000337 601000 1                  TNZ     s:2182

     1528     2176                        %EVENT( EV=%XSC_CEV_RLREP);

   2177  1 000326   000020 236000 2                  LDQ     16
         1 000327   200007 756100                    STQ     CFPT$+2,,AUTO
         1 000330   000674 701000 1                  TSX1    EVNT
         1 000331   000606 702000 1                  TSX2    EVNTERR

     1529     2179    3                   CCTX.STATE = %XSC_CST_0;

   2179  1 000332   200003 470500                    LDP0    @VBLK,,AUTO
         1 000333   000000 471500                    LDP1    0,,PR0
         1 000334   000000 236003                    LDQ     0,DU
         1 000335   100000 552140                    STBQ    0,'40'O,PR1

     1530     2180    3                   END;

   2180  1 000336   000605 710000 1                  TRA     s:2297

     1531     2181    2               ELSE
     1532     2182    3                   IF CCTX.STATE = %XSC_CST_6 THEN DO;

   2182  1 000337   006000 116003                    CMPQ    3072,DU
         1 000340   000352 601000 1                  TNZ     s:2190

     1533     2183                            %EVENT( EV=%XSC_CEV_RLREP);

PL6.E3A0      #008=XSC$AMACHINE File=XSC$ACSE.:XSA1TSI                           WED 10/01/97 11:53 Page:309
   2184  1 000341   000020 236000 2                  LDQ     16
         1 000342   200007 756100                    STQ     CFPT$+2,,AUTO
         1 000343   000674 701000 1                  TSX1    EVNT
         1 000344   000606 702000 1                  TSX2    EVNTERR

     1534     2186    3                       CCTX.STATE = %XSC_CST_3;

   2186  1 000345   200003 470500                    LDP0    @VBLK,,AUTO
         1 000346   000000 471500                    LDP1    0,,PR0
         1 000347   003000 236003                    LDQ     1536,DU
         1 000350   100000 552140                    STBQ    0,'40'O,PR1

     1535     2187    3                       END;

   2187  1 000351   000605 710000 1                  TRA     s:2297

     1536     2188    2                   ELSE
     1537     2189                            %INVALID;

   2190  1 000352   000772 701000 1                  TSX1    OOPS
         1 000353   000000 011000                    NOP     0
         1 000354   000605 710000 1                  TRA     s:2297

     1538     2192    2           CASE( %XSC_CEV_ARELRSN);

     1539     2193    3               IF CCTX.STATE = %XSC_CST_4 THEN DO;

   2193  1 000355   000000 471500                    LDP1    0,,PR0
         1 000356   100000 236100                    LDQ     0,,PR1
         1 000357   777000 376003                    ANQ     -512,DU
         1 000360   004000 116003                    CMPQ    2048,DU
         1 000361   000373 601000 1                  TNZ     s:2201

     1540     2194                        %EVENT( EV=%XSC_CEV_RLREN);

   2195  1 000362   000022 236000 2                  LDQ     18
         1 000363   200007 756100                    STQ     CFPT$+2,,AUTO
PL6.E3A0      #008=XSC$AMACHINE File=XSC$ACSE.:XSA1TSI                           WED 10/01/97 11:53 Page:310
         1 000364   000674 701000 1                  TSX1    EVNT
         1 000365   000606 702000 1                  TSX2    EVNTERR

     1541     2197    3                   CCTX.STATE = %XSC_CST_5;

   2197  1 000366   200003 470500                    LDP0    @VBLK,,AUTO
         1 000367   000000 471500                    LDP1    0,,PR0
         1 000370   005000 236003                    LDQ     2560,DU
         1 000371   100000 552140                    STBQ    0,'40'O,PR1

     1542     2198    3                   END;

   2198  1 000372   000605 710000 1                  TRA     s:2297

     1543     2199    2               ELSE
     1544     2200                        %INVALID;

   2201  1 000373   000772 701000 1                  TSX1    OOPS
         1 000374   000000 011000                    NOP     0
         1 000375   000605 710000 1                  TRA     s:2297

     1545     2203    2           CASE( %XSC_CEV_RLRQ);

     1546     2204    3               IF CCTX.STATE = %XSC_CST_5 THEN DO;

   2204  1 000376   000000 471500                    LDP1    0,,PR0
         1 000377   100000 236100                    LDQ     0,,PR1
         1 000400   777000 376003                    ANQ     -512,DU
         1 000401   005000 116003                    CMPQ    2560,DU
         1 000402   000414 601000 1                  TNZ     s:2211

     1547     2205                        %EVENT( EV=%XSC_CEV_ARELIND);

   2206  1 000403   000024 236000 2                  LDQ     20
         1 000404   200007 756100                    STQ     CFPT$+2,,AUTO
         1 000405   000674 701000 1                  TSX1    EVNT
         1 000406   000606 702000 1                  TSX2    EVNTERR
PL6.E3A0      #008=XSC$AMACHINE File=XSC$ACSE.:XSA1TSI                           WED 10/01/97 11:53 Page:311

     1548     2208    3                   CCTX.STATE = %XSC_CST_4;

   2208  1 000407   200003 470500                    LDP0    @VBLK,,AUTO
         1 000410   000000 471500                    LDP1    0,,PR0
         1 000411   004000 236003                    LDQ     2048,DU
         1 000412   100000 552140                    STBQ    0,'40'O,PR1

     1549     2209    3                   END;

   2209  1 000413   000605 710000 1                  TRA     s:2297

     1550     2210    2               ELSE
     1551     2211    3                   IF CCTX.STATE = %XSC_CST_3 THEN DO;

   2211  1 000414   003000 116003                    CMPQ    1536,DU
         1 000415   000443 601000 1                  TNZ     s:2227

     1552     2212    4                       IF( %P2) THEN DO;

   2212  1 000416   100000 236100                    LDQ     0,,PR1
         1 000417   000002 316007                    CANQ    2,DL
         1 000420   000432 600000 1                  TZE     s:2220

     1553     2213                                %EVENT( EV=%XSC_CEV_ARELIND);

   2214  1 000421   000024 236000 2                  LDQ     20
         1 000422   200007 756100                    STQ     CFPT$+2,,AUTO
         1 000423   000674 701000 1                  TSX1    EVNT
         1 000424   000606 702000 1                  TSX2    EVNTERR

     1554     2216    4                           CCTX.STATE = %XSC_CST_6;

   2216  1 000425   200003 470500                    LDP0    @VBLK,,AUTO
         1 000426   000000 471500                    LDP1    0,,PR0
         1 000427   006000 236003                    LDQ     3072,DU
         1 000430   100000 552140                    STBQ    0,'40'O,PR1
PL6.E3A0      #008=XSC$AMACHINE File=XSC$ACSE.:XSA1TSI                           WED 10/01/97 11:53 Page:312

     1555     2217    4                           END;

   2217  1 000431   000605 710000 1                  TRA     s:2297

     1556     2218    4                       ELSE DO;

     1557     2219                                %EVENT( EV=%XSC_CEV_ARELIND);

   2220  1 000432   000024 236000 2                  LDQ     20
         1 000433   200007 756100                    STQ     CFPT$+2,,AUTO
         1 000434   000674 701000 1                  TSX1    EVNT
         1 000435   000606 702000 1                  TSX2    EVNTERR

     1558     2222    4                           CCTX.STATE = %XSC_CST_7;

   2222  1 000436   200003 470500                    LDP0    @VBLK,,AUTO
         1 000437   000000 471500                    LDP1    0,,PR0
         1 000440   007000 236003                    LDQ     3584,DU
         1 000441   100000 552140                    STBQ    0,'40'O,PR1

     1559     2223    4                           END;

     1560     2224    3                       END;

   2224  1 000442   000605 710000 1                  TRA     s:2297

     1561     2225    2                   ELSE
     1562     2226                            %INVALID;

   2227  1 000443   000772 701000 1                  TSX1    OOPS
         1 000444   000000 011000                    NOP     0
         1 000445   000605 710000 1                  TRA     s:2297

     1563     2229    2           CASE( %XSC_CEV_RLREP);

     1564     2230    3               IF CCTX.STATE = %XSC_CST_3 THEN DO;
PL6.E3A0      #008=XSC$AMACHINE File=XSC$ACSE.:XSA1TSI                           WED 10/01/97 11:53 Page:313

   2230  1 000446   000000 471500                    LDP1    0,,PR0
         1 000447   100000 236100                    LDQ     0,,PR1
         1 000450   777000 376003                    ANQ     -512,DU
         1 000451   003000 116003                    CMPQ    1536,DU
         1 000452   000464 601000 1                  TNZ     s:2237

     1565     2231                        %EVENT( EV=%XSC_CEV_ARELCNP);

   2232  1 000453   000026 236000 2                  LDQ     22
         1 000454   200007 756100                    STQ     CFPT$+2,,AUTO
         1 000455   000674 701000 1                  TSX1    EVNT
         1 000456   000606 702000 1                  TSX2    EVNTERR

     1566     2234    3                   CCTX.STATE = %XSC_CST_0;

   2234  1 000457   200003 470500                    LDP0    @VBLK,,AUTO
         1 000460   000000 471500                    LDP1    0,,PR0
         1 000461   000000 236003                    LDQ     0,DU
         1 000462   100000 552140                    STBQ    0,'40'O,PR1

     1567     2235    3                   END;

   2235  1 000463   000605 710000 1                  TRA     s:2297

     1568     2236    2               ELSE
     1569     2237    3                   IF CCTX.STATE = %XSC_CST_7 THEN DO;

   2237  1 000464   007000 116003                    CMPQ    3584,DU
         1 000465   000477 601000 1                  TNZ     s:2245

     1570     2238                            %EVENT( EV=%XSC_CEV_ARELCNP);

   2239  1 000466   000026 236000 2                  LDQ     22
         1 000467   200007 756100                    STQ     CFPT$+2,,AUTO
         1 000470   000674 701000 1                  TSX1    EVNT
         1 000471   000606 702000 1                  TSX2    EVNTERR
PL6.E3A0      #008=XSC$AMACHINE File=XSC$ACSE.:XSA1TSI                           WED 10/01/97 11:53 Page:314

     1571     2241    3                       CCTX.STATE = %XSC_CST_4;

   2241  1 000472   200003 470500                    LDP0    @VBLK,,AUTO
         1 000473   000000 471500                    LDP1    0,,PR0
         1 000474   004000 236003                    LDQ     2048,DU
         1 000475   100000 552140                    STBQ    0,'40'O,PR1

     1572     2242    3                       END;

   2242  1 000476   000605 710000 1                  TRA     s:2297

     1573     2243    2                   ELSE
     1574     2244                            %INVALID;

   2245  1 000477   000772 701000 1                  TSX1    OOPS
         1 000500   000000 011000                    NOP     0
         1 000501   000605 710000 1                  TRA     s:2297

     1575     2247    2           CASE( %XSC_CEV_RLREN);

     1576     2248    3               IF CCTX.STATE = %XSC_CST_3 THEN DO;

   2248  1 000502   000000 471500                    LDP1    0,,PR0
         1 000503   100000 236100                    LDQ     0,,PR1
         1 000504   777000 376003                    ANQ     -512,DU
         1 000505   003000 116003                    CMPQ    1536,DU
         1 000506   000520 601000 1                  TNZ     s:2256

     1577     2249                        %EVENT( EV=%XSC_CEV_ARELCNN);

   2250  1 000507   000030 236000 2                  LDQ     24
         1 000510   200007 756100                    STQ     CFPT$+2,,AUTO
         1 000511   000674 701000 1                  TSX1    EVNT
         1 000512   000606 702000 1                  TSX2    EVNTERR

     1578     2252    3                   CCTX.STATE = %XSC_CST_5;
PL6.E3A0      #008=XSC$AMACHINE File=XSC$ACSE.:XSA1TSI                           WED 10/01/97 11:53 Page:315

   2252  1 000513   200003 470500                    LDP0    @VBLK,,AUTO
         1 000514   000000 471500                    LDP1    0,,PR0
         1 000515   005000 236003                    LDQ     2560,DU
         1 000516   100000 552140                    STBQ    0,'40'O,PR1

     1579     2253    3                   END;

   2253  1 000517   000605 710000 1                  TRA     s:2297

     1580     2254    2               ELSE
     1581     2255                        %INVALID;

   2256  1 000520   000772 701000 1                  TSX1    OOPS
         1 000521   000000 011000                    NOP     0
         1 000522   000605 710000 1                  TRA     s:2297

     1582     2258    2           CASE( %XSC_CEV_AUABREQ);

     1583     2259    3               IF CCTX.STATE ~= %XSC_CST_0 THEN DO;

   2259  1 000523   000000 471500                    LDP1    0,,PR0
         1 000524   100000 236100                    LDQ     0,,PR1
         1 000525   777000 316003                    CANQ    -512,DU
         1 000526   000540 600000 1                  TZE     s:2267

     1584     2260                        %EVENT( EV=%XSC_CEV_ABRT);

   2261  1 000527   000032 236000 2                  LDQ     26
         1 000530   200007 756100                    STQ     CFPT$+2,,AUTO
         1 000531   000674 701000 1                  TSX1    EVNT
         1 000532   000606 702000 1                  TSX2    EVNTERR

     1585     2263    3                   CCTX.STATE = %XSC_CST_0;

   2263  1 000533   200003 470500                    LDP0    @VBLK,,AUTO
         1 000534   000000 471500                    LDP1    0,,PR0
PL6.E3A0      #008=XSC$AMACHINE File=XSC$ACSE.:XSA1TSI                           WED 10/01/97 11:53 Page:316
         1 000535   000000 236003                    LDQ     0,DU
         1 000536   100000 552140                    STBQ    0,'40'O,PR1

     1586     2264    3                   END;

   2264  1 000537   000605 710000 1                  TRA     s:2297

     1587     2265    2               ELSE
     1588     2266                        %INVALID;

   2267  1 000540   000772 701000 1                  TSX1    OOPS
         1 000541   000000 011000                    NOP     0
         1 000542   000605 710000 1                  TRA     s:2297

     1589     2269    2           CASE( %XSC_CEV_ABRT);

     1590     2270    3               IF CCTX.STATE ~= %XSC_CST_0 THEN DO;

   2270  1 000543   000000 471500                    LDP1    0,,PR0
         1 000544   100000 236100                    LDQ     0,,PR1
         1 000545   777000 316003                    CANQ    -512,DU
         1 000546   000560 600000 1                  TZE     s:2278

     1591     2271                        %EVENT( EV=%XSC_CEV_AUABIND);

   2272  1 000547   000034 236000 2                  LDQ     28
         1 000550   200007 756100                    STQ     CFPT$+2,,AUTO
         1 000551   000674 701000 1                  TSX1    EVNT
         1 000552   000606 702000 1                  TSX2    EVNTERR

     1592     2274    3                   CCTX.STATE = %XSC_CST_0;

   2274  1 000553   200003 470500                    LDP0    @VBLK,,AUTO
         1 000554   000000 471500                    LDP1    0,,PR0
         1 000555   000000 236003                    LDQ     0,DU
         1 000556   100000 552140                    STBQ    0,'40'O,PR1

PL6.E3A0      #008=XSC$AMACHINE File=XSC$ACSE.:XSA1TSI                           WED 10/01/97 11:53 Page:317
     1593     2275    3                   END;

   2275  1 000557   000605 710000 1                  TRA     s:2297

     1594     2276    2               ELSE
     1595     2277                        %INVALID;

   2278  1 000560   000772 701000 1                  TSX1    OOPS
         1 000561   000000 011000                    NOP     0
         1 000562   000605 710000 1                  TRA     s:2297

     1596     2280    2           CASE( %XSC_CEV_PPABIND);

     1597     2281    3               IF CCTX.STATE ~= %XSC_CST_0 THEN DO;

   2281  1 000563   000000 471500                    LDP1    0,,PR0
         1 000564   100000 236100                    LDQ     0,,PR1
         1 000565   777000 316003                    CANQ    -512,DU
         1 000566   000600 600000 1                  TZE     s:2289

     1598     2282                        %EVENT( EV=%XSC_CEV_APABIND);

   2283  1 000567   000036 236000 2                  LDQ     30
         1 000570   200007 756100                    STQ     CFPT$+2,,AUTO
         1 000571   000674 701000 1                  TSX1    EVNT
         1 000572   000606 702000 1                  TSX2    EVNTERR

     1599     2285    3                   CCTX.STATE = %XSC_CST_0;

   2285  1 000573   200003 470500                    LDP0    @VBLK,,AUTO
         1 000574   000000 471500                    LDP1    0,,PR0
         1 000575   000000 236003                    LDQ     0,DU
         1 000576   100000 552140                    STBQ    0,'40'O,PR1

     1600     2286    3                   END;

   2286  1 000577   000605 710000 1                  TRA     s:2297
PL6.E3A0      #008=XSC$AMACHINE File=XSC$ACSE.:XSA1TSI                           WED 10/01/97 11:53 Page:318

     1601     2287    2               ELSE
     1602     2288                        %INVALID;

   2289  1 000600   000772 701000 1                  TSX1    OOPS
         1 000601   000000 011000                    NOP     0
         1 000602   000605 710000 1                  TRA     s:2297

     1603     2291    2           CASE( ELSE);

     1604     2292                    %INVALID;

   2293  1 000603   000772 701000 1                  TSX1    OOPS
         1 000604   000000 011000                    NOP     0

     1605     2295    2           END;

     1606     2296        %EJECT;
PL6.E3A0      #008=XSC$AMACHINE File=XSC$ACSE.:XSA1TSI                           WED 10/01/97 11:53 Page:319
     1607     2297    2       DO WHILE( %FALSE);

   2297  1 000605   000607 710000 1                  TRA     s:2307

     1608     2298    2   EVNTERR:
     1609     2299                /* the EVNT routine ALTRETURNed because of some internal error */
     1610     2300    2           GOTO DONE;

   2300  1 000606   000622 710000 1     EVNTERR      TRA     DONE

     1611     2301    2           END;

     1612     2302        /************************************************************************
     1613     2303        *                                                                       *
     1614     2304        *       Done with state machine; record state and light outa here       *
     1615     2305        *                                                                       *
     1616     2306        ************************************************************************/
     1617     2307    1       I = CCTX.HISTX;

   2307  1 000607   200003 470500                    LDP0    @VBLK,,AUTO
         1 000610   000000 471500                    LDP1    0,,PR0
         1 000611   100000 236100                    LDQ     0,,PR1
         1 000612   000022 772000                    QRL     18
         1 000613   000777 376007                    ANQ     511,DL
         1 000614   200004 756100                    STQ     I,,AUTO

     1618     2308    1       CCTX.HIST.NXTST( I) = CCTX.STATE;  /* record new state in hist buffer */

   2308  1 000615   200004 235100                    LDA     I,,AUTO
         1 000616   000001 735000                    ALS     1
         1 000617   000105 100500                    MLR     fill='000'O
         1 000620   100000 000001                    ADSC9   0,,PR1                   cn=0,n=1
         1 000621   100002 200001                    ADSC9   2,A,PR1                  cn=1,n=1

     1619     2309    1   DONE:
     1620     2310    2       IF CCTX.ABORTING THEN DO;

PL6.E3A0      #008=XSC$AMACHINE File=XSC$ACSE.:XSA1TSI                           WED 10/01/97 11:53 Page:320
   2310  1 000622   200003 470500       DONE         LDP0    @VBLK,,AUTO
         1 000623   000000 471500                    LDP1    0,,PR0
         1 000624   100000 236100                    LDQ     0,,PR1
         1 000625   000001 316007                    CANQ    1,DL
         1 000626   000645 600000 1                  TZE     s:2321

     1621     2311                /* There was a problem handling the application's request
     1622     2312                   (probably the connection was dropped out from under it) or an
     1623     2313                   APDU was received that is inconsistent with connection state,
     1624     2314                   so we force a 'provider abort'.                              */
     1625     2315    3           IF CCTX.STATE > %XSC_CST_0 THEN DO;

   2315  1 000627   777000 316003                    CANQ    -512,DU
         1 000630   000645 600000 1                  TZE     s:2321

     1626     2316    3               CALL EVNT( %XSC_CEV_ABRT);

   2316  1 000631   000032 236000 2                  LDQ     26
         1 000632   200007 756100                    STQ     CFPT$+2,,AUTO
         1 000633   000674 701000 1                  TSX1    EVNT
         1 000634   000000 011000                    NOP     0

     1627     2317    3               CALL EVNT( %XSC_CEV_APABIND);

   2317  1 000635   000036 236000 2                  LDQ     30
         1 000636   200007 756100                    STQ     CFPT$+2,,AUTO
         1 000637   000674 701000 1                  TSX1    EVNT
         1 000640   000000 011000                    NOP     0

     1628     2318    3               CCTX.STATE = %XSC_CST_0;

   2318  1 000641   200003 470500                    LDP0    @VBLK,,AUTO
         1 000642   000000 471500                    LDP1    0,,PR0
         1 000643   000000 236003                    LDQ     0,DU
         1 000644   100000 552140                    STBQ    0,'40'O,PR1

     1629     2319    3               END;
PL6.E3A0      #008=XSC$AMACHINE File=XSC$ACSE.:XSA1TSI                           WED 10/01/97 11:53 Page:321

     1630     2320    2           END;

     1631     2321    2       IF CCTX.STATE = %XSC_CST_0 THEN DO;

   2321  1 000645   000000 471500                    LDP1    0,,PR0
         1 000646   100000 236100                    LDQ     0,,PR1
         1 000647   777000 316003                    CANQ    -512,DU
         1 000650   000663 601000 1                  TNZ     s:2329

     1632     2322                /* State is 'idle - unassociated' so release context */
     1633     2323    2           CALL XSC$RELCTX( VBLK.CTX$);

   2323  1 000651   200003 630500                    EPPR0   @VBLK,,AUTO
         1 000652   000037 631400 2                  EPPR1   31
         1 000653   000000 701000 xent               TSX1    XSC$RELCTX
         1 000654   000000 011000                    NOP     0

     1634     2324    2           IF CCTX.ABORTING THEN

   2324  1 000655   200003 470500                    LDP0    @VBLK,,AUTO
         1 000656   000000 471500                    LDP1    0,,PR0
         1 000657   100000 236100                    LDQ     0,,PR1
         1 000660   000001 316007                    CANQ    1,DL
         1 000661   000663 600000 1                  TZE     s:2329

     1635     2325                    /* during this trip thru the state machine, connection aborted */
     1636     2326                    /* have E$STATE or other error reported to user */
     1637     2327    2               ALTRETURN;

   2327  1 000662   000000 702200 xent               TSX2  ! X66_AALT

     1638     2328    2           END;
     1639     2329    2       IF CCTX.STATE > 127 THEN DO;

   2329  1 000663   100000 236100                    LDQ     0,,PR1
         1 000664   777000 376003                    ANQ     -512,DU
PL6.E3A0      #008=XSC$AMACHINE File=XSC$ACSE.:XSA1TSI                           WED 10/01/97 11:53 Page:322
         1 000665   200000 116003                    CMPQ    65536,DU
         1 000666   000673 602000 1                  TNC     s:2335

     1640     2330                /* There was a user request inconsistent with connection state. */
     1641     2331    2           CCTX.STATE = CCTX.STATE - 128;

   2331  1 000667   100000 236100                    LDQ     0,,PR1
         1 000670   600000 036003                    ADLQ    -65536,DU
         1 000671   100000 552140                    STBQ    0,'40'O,PR1

     1642     2332                /* have E$STATE reported to user */
     1643     2333    2           ALTRETURN;

   2333  1 000672   000000 702200 xent               TSX2  ! X66_AALT

     1644     2334    2           END;
     1645     2335    1       RETURN;

   2335  1 000673   000000 702200 xent               TSX2  ! X66_ARET

     1646     2336        %EJECT;
PL6.E3A0      #008=XSC$AMACHINE File=XSC$ACSE.:XSA1TSI                           WED 10/01/97 11:53 Page:323
     1647     2337        /************************************************************************
     1648     2338        *                                                                       *
     1649     2339        *       EVNT Routine                                                    *
     1650     2340        *                                                                       *
     1651     2341        ************************************************************************/
     1652     2342    1   EVNT: PROC( EVENT) ALTRET;

   2342  1 000674   200006 741300       EVNT         STX1  ! CFPT$+1,,AUTO

     1653     2343
     1654     2344    2       DCL EVENT SBIN;
     1655     2345            /* This table maps events destined for the ACSE-user into the function
     1656     2346               code identifying the ACSE FPT the user receives.                 */
     1657     2347    2       DCL CEV_TO_FNC(0:7) UBIN BYTE CONSTANT CALIGNED INIT(
     1658     2348    2           %XSC_FNC_AASCIND#,      /* XSC_CEV_AASCIND */
     1659     2349    2           %XSC_FNC_AASCCNF#,      /* XSC_CEV_AASCCNP */
     1660     2350    2           %XSC_FNC_AASCCNF#,      /* XSC_CEV_AASCCNN */
     1661     2351    2           %XSC_FNC_ARELIND#,      /* XSC_CEV_ARELIND */
     1662     2352    2           %XSC_FNC_ARELCNF#,      /* XSC_CEV_ARELCNP */
     1663     2353    2           %XSC_FNC_ARELCNF#,      /* XSC_CEV_ARELCNN */
     1664     2354    2           %XSC_FNC_AUABIND#,      /* XSC_CEV_AUABIND */
     1665     2355    2           %XSC_FNC_APABIND#);     /* XSC_CEV_APABIND */
     1666     2356
     1667     2357    2       IF EVENT <= %XSC_CEV_ABRT THEN

   2357  1 000675   200007 470500                    LDP0    @EVENT,,AUTO
         1 000676   000000 235100                    LDA     0,,PR0
         1 000677   000007 115007                    CMPA    7,DL
         1 000700   000745 604400 1                  TMOZ    SEND_APDU

     1668     2358    2           GOTO SEND_APDU;
     1669     2359            /* determine whether event is to be reported to this user or other end */
     1670     2360    3       IF BINBIT( EVENT, 1) THEN DO;

   2360  1 000701   000000 236100                    LDQ     0,,PR0
         1 000702   000043 736000                    QLS     35
         1 000703   000745 600000 1                  TZE     SEND_APDU
PL6.E3A0      #008=XSC$AMACHINE File=XSC$ACSE.:XSA1TSI                           WED 10/01/97 11:53 Page:324

     1671     2361                /* odd event number means report it (as FPT) to this user */
     1672     2362    3           XSC$GENERIC.FNC = CEV_TO_FNC( EVENT / 2 - 6);

   2362  1 000704   000000 236100                    LDQ     0,,PR0
         1 000705   000002 506007                    DIV     2,DL
         1 000706   200005 471500                    LDP1    CFPT$,,AUTO
         1 000707   000100 100406                    MLR     fill='000'O
         1 000710   777777 400001 0                  ADSC9   CEV_TO_FNC-2,Q           cn=2,n=1
         1 000711   100000 000001                    ADSC9   0,,PR1                   cn=0,n=1

     1673     2363    3           IF XSS_TRACE > 0 THEN

   2363  1 000712   000000 235000 xsym               LDA     XSS_TRACE
         1 000713   000720 604400 1                  TMOZ    s:2365

     1674     2364    3               CALL XSC$DUMPFPT( XSC$GENERIC);

   2364  1 000714   200005 630500                    EPPR0   CFPT$,,AUTO
         1 000715   000037 631400 2                  EPPR1   31
         1 000716   000000 701000 xent               TSX1    XSC$DUMPFPT
         1 000717   000000 011000                    NOP     0

     1675     2365    3           IF CCTX.ENTRY$ ~= ENTADDR( NIL) THEN

   2365  1 000720   200003 470500                    LDP0    @VBLK,,AUTO
         1 000721   000000 471500                    LDP1    0,,PR0
         1 000722   100001 236100                    LDQ     1,,PR1
         1 000723   000040 116000 2                  CMPQ    32
         1 000724   000740 600000 1                  TZE     s:2372

     1676     2366    3               CALL CCTX.ENTRY$( XSC$GENERIC)

   2366  1 000725   200005 630500                    EPPR0   CFPT$,,AUTO
         1 000726   100001 220100                    LDX0    1,,PR1
         1 000727   000037 631400 2                  EPPR1   31
         1 000730   000000 701010                    TSX1    0,X0
PL6.E3A0      #008=XSC$AMACHINE File=XSC$ACSE.:XSA1TSI                           WED 10/01/97 11:53 Page:325
         1 000731   000733 702000 1                  TSX2    s:2368
         1 000732   000737 710000 1                  TRA     s:2369

     1677     2367    4               WHENALTRETURN DO;

     1678     2368    4                   CCTX.ABORTING = %TRUE;

   2368  1 000733   200003 470500                    LDP0    @VBLK,,AUTO
         1 000734   000000 471500                    LDP1    0,,PR0
         1 000735   000001 236007                    LDQ     1,DL
         1 000736   100000 256100                    ORSQ    0,,PR1

     1679     2369    4                   END;

   2369  1 000737   000761 710000 1                  TRA     s:2383

     1680     2370    3           ELSE
     1681     2371                    /* no ACSE-user handler routine defined.  This can't be! */
     1682     2372    3               CALL XSS$SCREECH( XSC_F$NOACSE);

   2372  1 000740   000041 630400 2                  EPPR0   33
         1 000741   000037 631400 2                  EPPR1   31
         1 000742   000000 701000 xent               TSX1    XSS$SCREECH
         1 000743   000000 011000                    NOP     0

     1683     2373    3           END;

   2373  1 000744   000761 710000 1                  TRA     s:2383

     1684     2374    3       ELSE DO;

     1685     2375                /* even event number means send it (as APDU) to the other end */
     1686     2376    3   SEND_APDU:
     1687     2377    3           VBLK.EVENT = EVENT;

   2377  1 000745   200003 471500       SEND_APDU    LDP1    @VBLK,,AUTO
         1 000746   000000 236100                    LDQ     0,,PR0
PL6.E3A0      #008=XSC$AMACHINE File=XSC$ACSE.:XSA1TSI                           WED 10/01/97 11:53 Page:326
         1 000747   100006 552104                    STBQ    6,'04'O,PR1

     1688     2378    3           CALL XSC$ENCODE( VBLK)

   2378  1 000750   200003 630500                    EPPR0   @VBLK,,AUTO
         1 000751   000037 631400 2                  EPPR1   31
         1 000752   000000 701000 xent               TSX1    XSC$ENCODE
         1 000753   000755 702000 1                  TSX2    s:2380
         1 000754   000761 710000 1                  TRA     s:2383

     1689     2379    4           WHENALTRETURN DO;

     1690     2380    4               CCTX.ABORTING = %TRUE;

   2380  1 000755   200003 470500                    LDP0    @VBLK,,AUTO
         1 000756   000000 471500                    LDP1    0,,PR0
         1 000757   000001 236007                    LDQ     1,DL
         1 000760   100000 256100                    ORSQ    0,,PR1

     1691     2381    4               END;

     1692     2382    3           END;

     1693     2383    2       IF CCTX.ABORTING THEN

   2383  1 000761   200003 470500                    LDP0    @VBLK,,AUTO
         1 000762   000000 471500                    LDP1    0,,PR0
         1 000763   100000 236100                    LDQ     0,,PR1
         1 000764   000001 316007                    CANQ    1,DL
         1 000765   000770 600000 1                  TZE     s:2385

     1694     2384    2           ALTRETURN;

   2384  1 000766   200006 221300                    LDX1  ! CFPT$+1,,AUTO
         1 000767   000000 702211                    TSX2  ! 0,X1

     1695     2385    2       RETURN;
PL6.E3A0      #008=XSC$AMACHINE File=XSC$ACSE.:XSA1TSI                           WED 10/01/97 11:53 Page:327

   2385  1 000770   200006 221300                    LDX1  ! CFPT$+1,,AUTO
         1 000771   000001 702211                    TSX2  ! 1,X1

     1696     2386
     1697     2387    2       END EVNT;
     1698     2388        %EJECT;
PL6.E3A0      #008=XSC$AMACHINE File=XSC$ACSE.:XSA1TSI                           WED 10/01/97 11:53 Page:328
     1699     2389        /************************************************************************
     1700     2390        *                                                                       *
     1701     2391        *       OOPS Routine                                                    *
     1702     2392        *                                                                       *
     1703     2393        ************************************************************************/
     1704     2394    1   OOPS: PROC;

   2394  1 000772   200006 741300       OOPS         STX1  ! CFPT$+1,,AUTO

     1705     2395            /* An illegal state/event combination was detected */
     1706     2396    2       IF VBLK.EVENT < %XSC_CEV_AASCREQ THEN

   2396  1 000773   200003 470500                    LDP0    @VBLK,,AUTO
         1 000774   000006 236100                    LDQ     6,,PR0
         1 000775   000777 376007                    ANQ     511,DL
         1 000776   000014 116007                    CMPQ    12,DL
         1 000777   001004 603000 1                  TRC     s:2401

     1707     2397                /* Illegal incoming APDU or Presentation event, so abort connection */
     1708     2398    2           CCTX.ABORTING = %TRUE;

   2398  1 001000   000000 471500                    LDP1    0,,PR0
         1 001001   000001 236007                    LDQ     1,DL
         1 001002   100000 256100                    ORSQ    0,,PR1
         1 001003   001010 710000 1                  TRA     s:2402

     1709     2399    2       ELSE
     1710     2400                /* Illegal event was a user request, so just crab about it */
     1711     2401    2           CCTX.STATE = CCTX.STATE + 128;

   2401  1 001004   000000 471500                    LDP1    0,,PR0
         1 001005   100000 236100                    LDQ     0,,PR1
         1 001006   200000 036003                    ADLQ    65536,DU
         1 001007   100000 552140                    STBQ    0,'40'O,PR1

     1712     2402    2       RETURN;

PL6.E3A0      #008=XSC$AMACHINE File=XSC$ACSE.:XSA1TSI                           WED 10/01/97 11:53 Page:329
   2402  1 001010   200006 221300                    LDX1  ! CFPT$+1,,AUTO
         1 001011   000001 702211                    TSX2  ! 1,X1

XSC_F$NOACSE
 Sect OctLoc
   0     000   302303 001367                                                    ....

CEV_TO_FNC
 Sect OctLoc
   0     001   002004 004006   010010 012013                                    ........

(unnamed)
 Sect OctLoc
   2     000   000000 000143   000000 000001   000001 006000   000000 000002    ...c............
   2     004   000003 006000   000000 000003   000005 006000   000000 000015    ................
   2     010   000007 006000   000000 000017   000011 006000   000000 000021    ................
   2     014   000013 006000   000000 000004   000015 006000   000000 000005    ................
   2     020   000017 006000   000000 000006   000021 006000   000000 000023    ................
   2     024   000023 006000   000000 000025   000025 006000   000000 000027    ................
   2     030   000027 006000   000000 000007   000031 006000   000000 000031    ................
   2     034   000033 006000   000000 000033   000035 006000   000001 000000    ................
   2     040   000000 000000   000000 006000                                    ........
     1713     2403
     1714     2404    2       END OOPS;
     1715     2405
     1716     2406    1       END XSC$AMACHINE;
     1717     2407        %EOD;

PL6.E3A0      #008=XSC$AMACHINE File=XSC$ACSE.:XSA1TSI                           WED 10/01/97 11:53 Page:330
--  Include file information  --

   XSC_PERR_C.:XSA1TOU  is referenced.
   UM_CP6.:E05OU  is referenced.
   XSC_INTERNAL_M.:XSA1TOU  is referenced.
   XSC_INTERNAL_E.:XSA1TOU  is referenced.
   XSC_ACSE_M.:XSA1TOU  is referenced.
   XSC_ACSE_E.:XSA1TOU  is referenced.
      No diagnostics issued in procedure XSC$AMACHINE.
PL6.E3A0      #008=XSC$AMACHINE File=XSC$ACSE.:XSA1TSI                           WED 10/01/97 11:53 Page:331

 **** Variables and constants ****

  ****  Section 000 RoData XSC$AMACHINE

  ****  Scalars and arrays  ****
OctLoc.c.b A Datatyp(siz) R M Lvl/name                 OctLoc.c.b A Datatyp(siz) R M Lvl/name

     1-0-0/c UBIN(9)     r     1 CEV_TO_FNC(0:7)
     0-0-0/w STRC        r     1 XSC_F$NOACSE

  ****  Auto variables  ****

  ****  Scalars and arrays  ****
OctLoc.c.b A Datatyp(siz) R M Lvl/name                 OctLoc.c.b A Datatyp(siz) R M Lvl/name

     7-0-0/w PTR         r     1 @EVENT                     3-0-0/w PTR         r     1 @VBLK
     5-0-0/w PTR         r     1 CFPT$                     *0-0-0/w SBIN        r     1 EVENT
     4-0-0/w SBIN        r     1 I                         *0-0-0/w STRC(252)   r     1 VBLK

  ****  SYMREF variables  ****

  ****  Scalars and arrays  ****
OctLoc.c.b A Datatyp(siz) R M Lvl/name                 OctLoc.c.b A Datatyp(siz) R M Lvl/name

     0-0-0/w SBIN        r     1 XSS_TRACE

  ****  BASED and DCB variables  ****

  ****  Scalars and arrays  ****
OctLoc.c.b A Datatyp(siz) R M Lvl/name                 OctLoc.c.b A Datatyp(siz) R M Lvl/name

     0-0-0/w STRC(216)   r     1 CCTX                       0-0-0/w STRC(504)   r     1 XSC$GENERIC


   Procedure XSC$AMACHINE requires 522 words for executable code.
   Procedure XSC$AMACHINE requires 8 words of local(AUTO) storage.
PL6.E3A0      #008=XSC$AMACHINE File=XSC$ACSE.:XSA1TSI                           WED 10/01/97 11:53 Page:332
          *** CROSS REFERENCE LISTING ***
**     DENOTES     IDENTIFIER DEFINITION
<<                 IDENTIFIER'S VALUE SET
>>                 IDENTIFIER'S VALUE USED
<>                 IDENTIFIER SET AND/OR USED
--                 IDENTIFIER REFERENCED
PL6.E3A0      #008=XSC$AMACHINE File=XSC$ACSE.:XSA1TSI                           WED 10/01/97 11:53 Page:333
          MINI XREF LISTING

CCTX.ABORTING
       931**DCL      2310>>IF       2324>>IF       2368<<ASSIGN   2380<<ASSIGN   2383>>IF       2398<<ASSIGN
CCTX.ENTRY$
       932**DCL      2365>>IF       2366>>CALL
CCTX.HIST.EVENT
       935**DCL      2068<<ASSIGN
CCTX.HIST.NXTST
       936**DCL      2069<<ASSIGN   2308<<ASSIGN
CCTX.HISTX
       924**DCL      2064>>ASSIGN   2067<<ASSIGN   2307>>ASSIGN
CCTX.HISTZ
       933**DCL       934--REDEF
CCTX.ORIGINATOR
       930**DCL      2212>>IF
CCTX.STATE
       923**DCL      2073>>IF       2078<<ASSIGN   2090>>IF       2094<<ASSIGN   2101>>IF       2105<<ASSIGN
      2112>>IF       2117<<ASSIGN   2123<<ASSIGN   2131>>IF       2135<<ASSIGN   2142>>IF       2146<<ASSIGN
      2153>>IF       2157<<ASSIGN   2164>>IF       2168<<ASSIGN   2175>>IF       2179<<ASSIGN   2182>>IF
      2186<<ASSIGN   2193>>IF       2197<<ASSIGN   2204>>IF       2208<<ASSIGN   2211>>IF       2216<<ASSIGN
      2222<<ASSIGN   2230>>IF       2234<<ASSIGN   2237>>IF       2241<<ASSIGN   2248>>IF       2252<<ASSIGN
      2259>>IF       2263<<ASSIGN   2270>>IF       2274<<ASSIGN   2281>>IF       2285<<ASSIGN   2308>>ASSIGN
      2315>>IF       2318<<ASSIGN   2321>>IF       2329>>IF       2331<<ASSIGN   2331>>ASSIGN   2401<<ASSIGN
      2401>>ASSIGN
CEV_TO_FNC IN PROCEDURE EVNT
      2347**DCL      2362>>ASSIGN
CFPT$
      2038**DCL       417--IMP-PTR  2062<<ASSIGN   2362>>ASSIGN   2364>>CALL     2366>>CALL
DONE
      2310**LABEL    2300--GOTO
EVENT IN PROCEDURE EVNT
      2344**DCL      2342--PROC     2357>>IF       2360>>IF       2362>>ASSIGN   2377>>ASSIGN
EVNT
PL6.E3A0      #008=XSC$AMACHINE File=XSC$ACSE.:XSA1TSI                           WED 10/01/97 11:53 Page:334
      2342**PROC     2076--CALL     2092--CALL     2103--CALL     2115--CALL     2121--CALL     2133--CALL
      2144--CALL     2155--CALL     2166--CALL     2177--CALL     2184--CALL     2195--CALL     2206--CALL
      2214--CALL     2220--CALL     2232--CALL     2239--CALL     2250--CALL     2261--CALL     2272--CALL
      2283--CALL     2316--CALL     2317--CALL
EVNTERR
      2300**LABEL    2076--CALLALT  2092--CALLALT  2103--CALLALT  2115--CALLALT  2121--CALLALT  2133--CALLALT
      2144--CALLALT  2155--CALLALT  2166--CALLALT  2177--CALLALT  2184--CALLALT  2195--CALLALT  2206--CALLALT
      2214--CALLALT  2220--CALLALT  2232--CALLALT  2239--CALLALT  2250--CALLALT  2261--CALLALT  2272--CALLALT
      2283--CALLALT
I
      2037**DCL      2064<<ASSIGN   2065>>IF       2066<<ASSIGN   2067>>ASSIGN   2068>>ASSIGN   2069>>ASSIGN
      2307<<ASSIGN   2308>>ASSIGN
OOPS
      2394**PROC     2082--CALL     2087--CALL     2098--CALL     2109--CALL     2128--CALL     2139--CALL
      2150--CALL     2161--CALL     2172--CALL     2190--CALL     2201--CALL     2227--CALL     2245--CALL
      2256--CALL     2267--CALL     2278--CALL     2289--CALL     2293--CALL
SEND_APDU IN PROCEDURE EVNT
      2377**LABEL    2358--GOTO
VBLK
       955**DCL        12--PROC     2378<>CALL
VBLK.APDUERR
      1041**DCL      2074>>IF       2113>>IF
VBLK.CTX$
       969**DCL       909--IMP-PTR  2064>>ASSIGN   2067>>ASSIGN   2068>>ASSIGN   2069>>ASSIGN   2073>>IF
      2078>>ASSIGN   2090>>IF       2094>>ASSIGN   2101>>IF       2105>>ASSIGN   2112>>IF       2117>>ASSIGN
      2123>>ASSIGN   2131>>IF       2135>>ASSIGN   2142>>IF       2146>>ASSIGN   2153>>IF       2157>>ASSIGN
      2164>>IF       2168>>ASSIGN   2175>>IF       2179>>ASSIGN   2182>>IF       2186>>ASSIGN   2193>>IF
      2197>>ASSIGN   2204>>IF       2208>>ASSIGN   2211>>IF       2212>>IF       2216>>ASSIGN   2222>>ASSIGN
      2230>>IF       2234>>ASSIGN   2237>>IF       2241>>ASSIGN   2248>>IF       2252>>ASSIGN   2259>>IF
      2263>>ASSIGN   2270>>IF       2274>>ASSIGN   2281>>IF       2285>>ASSIGN   2307>>ASSIGN   2308>>ASSIGN
      2308>>ASSIGN   2310>>IF       2315>>IF       2318>>ASSIGN   2321>>IF       2323<>CALL     2324>>IF
      2329>>IF       2331>>ASSIGN   2331>>ASSIGN   2365>>IF       2366>>CALL     2368>>ASSIGN   2380>>ASSIGN
      2383>>IF       2398>>ASSIGN   2401>>ASSIGN   2401>>ASSIGN
VBLK.EVENT
      1042**DCL      2068>>ASSIGN   2071>>DOCASE   2377<<ASSIGN   2396>>IF
VBLK.FPT$
PL6.E3A0      #008=XSC$AMACHINE File=XSC$ACSE.:XSA1TSI                           WED 10/01/97 11:53 Page:335
       970**DCL      2062>>ASSIGN
XSC$DUMPFPT
      2030**DCL-ENT  2364--CALL
XSC$ENCODE
      2031**DCL-ENT  2378--CALL
XSC$GENERIC
       417**DCL      2364<>CALL     2366<>CALL
XSC$GENERIC.ERRDEF
       426**DCL       446--REDEF
XSC$GENERIC.FNC
       423**DCL      2362<<ASSIGN
XSC$RELCTX
      2032**DCL-ENT  2323--CALL
XSC_F$NOACSE
      1992**DCL      2372<>CALL
XSS$SCREECH
      2033**DCL-ENT  2372--CALL
XSS_TRACE
      2035**DCL      2363>>IF
PL6.E3A0      #008=XSC$AMACHINE File=XSC$ACSE.:XSA1TSI                           WED 10/01/97 11:53 Page:336
              *** CROSS REFERENCE LISTING ***
    **     DENOTES     IDENTIFIER DEFINITION
    <<                 IDENTIFIER'S VALUE SET
    >>                 IDENTIFIER'S VALUE USED
    <>                 IDENTIFIER SET AND/OR USED
    --                 IDENTIFIER REFERENCED
PL6.E3A0      #008=XSC$AMACHINE File=XSC$ACSE.:XSA1TSI                           WED 10/01/97 11:53 Page:337
              MINI UREF LISTING

XSC$AMACHINE      12**PROC

