VERSION A01

PL6.E3A0      #001=XSC$ROSE_RECV File=XSC$ROSE.:XSA1TSI                          WED 10/01/97 11:54 Page:1
        1        1        /*T***********************************************************/
        2        2        /*T*                                                         */
        3        3        /*T* Copyright (c) Bull HN Information Systems Inc., 1997    */
        4        4        /*T*                                                         */
        5        5        /*T***********************************************************/
        6        6        XSC$ROSE_RECV: PROC(X) ALTRET;
        7        7    1   DCL X UBIN;
        8        8    1   X = X +1;
        9        9    1   END XSC$ROSE_RECV;
       10       10        %EOD;

PL6.E3A0      #001=XSC$ROSE_RECV File=XSC$ROSE.:XSA1TSI                          WED 10/01/97 11:54 Page:2
      No diagnostics issued in procedure XSC$ROSE_RECV.

   Procedure XSC$ROSE_RECV requires 7 words for executable code.
   Procedure XSC$ROSE_RECV requires 4 words of local(AUTO) storage.

PL6.E3A0      #001=XSC$ROSE_RECV File=XSC$ROSE.:XSA1TSI                          WED 10/01/97 11:54 Page:3

 Object Unit name= XSC$ROSE_RECV                              File name= XSC$ROSE.:XSA1TOU
 UTS= OCT 01 '97 11:54:13.04 WED                              Compiler= PL-6/E31         Sev=      00
 SharedLib= :SHARED_SYSTEM                                    Alt SharedLib=


    ****  Control sections  ****

 Sect   Type Bound  Init  Size OctSiz  Section name(segment info)
    0   Proc  even  none     7      7  XSC$ROSE_RECV

    ****  Entry defs  ****

                              Check   Calling
                             calling  sequence
  Sect OctLoc Primary Altret sequence   type   Parms  Name
     0      0   yes    yes     yes      Std        1  XSC$ROSE_RECV

  ****  Entry refs  ****

         Check        Calling
        calling       sequence
Altret sequence SRef   type   Args  Name
                       nStd      0 X66_AUTO_1
                       nStd      0 X66_ARET
PL6.E3A0      #001=XSC$ROSE_RECV File=XSC$ROSE.:XSA1TSI                          WED 10/01/97 11:54 Page:4


        1        1        /*T***********************************************************/
        2        2        /*T*                                                         */
        3        3        /*T* Copyright (c) Bull HN Information Systems Inc., 1997    */
        4        4        /*T*                                                         */
        5        5        /*T***********************************************************/
        6        6        XSC$ROSE_RECV: PROC(X) ALTRET;

      6  0 000000   000000 700200 xent  XSC$ROSE_RE* TSX0  ! X66_AUTO_1
         0 000001   000004 000001                    ZERO    4,1

        7        7    1   DCL X UBIN;
        8        8    1   X = X +1;

      8  0 000002   200003 470500                    LDP0    @X,,AUTO
         0 000003   000000 235100                    LDA     0,,PR0
         0 000004   000001 035007                    ADLA    1,DL
         0 000005   000000 755100                    STA     0,,PR0

        9        9    1   END XSC$ROSE_RECV;

      9  0 000006   000000 702200 xent               TSX2  ! X66_ARET
       10       10        %EOD;

PL6.E3A0      #001=XSC$ROSE_RECV File=XSC$ROSE.:XSA1TSI                          WED 10/01/97 11:54 Page:5
      No diagnostics issued in procedure XSC$ROSE_RECV.
PL6.E3A0      #001=XSC$ROSE_RECV File=XSC$ROSE.:XSA1TSI                          WED 10/01/97 11:54 Page:6

 **** Variables and constants ****

  ****  Auto variables  ****

  ****  Scalars and arrays  ****
OctLoc.c.b A Datatyp(siz) R M Lvl/name                 OctLoc.c.b A Datatyp(siz) R M Lvl/name

     3-0-0/w PTR         r     1 @X                        *0-0-0/w UBIN        r     1 X


   Procedure XSC$ROSE_RECV requires 7 words for executable code.
   Procedure XSC$ROSE_RECV requires 4 words of local(AUTO) storage.
PL6.E3A0      #001=XSC$ROSE_RECV File=XSC$ROSE.:XSA1TSI                          WED 10/01/97 11:54 Page:7
          *** CROSS REFERENCE LISTING ***
**     DENOTES     IDENTIFIER DEFINITION
<<                 IDENTIFIER'S VALUE SET
>>                 IDENTIFIER'S VALUE USED
<>                 IDENTIFIER SET AND/OR USED
--                 IDENTIFIER REFERENCED
PL6.E3A0      #001=XSC$ROSE_RECV File=XSC$ROSE.:XSA1TSI                          WED 10/01/97 11:54 Page:8
          MINI XREF LISTING

X
         7**DCL         6--PROC        8<<ASSIGN      8>>ASSIGN
PL6.E3A0      #001=XSC$ROSE_RECV File=XSC$ROSE.:XSA1TSI                          WED 10/01/97 11:54 Page:9
              *** CROSS REFERENCE LISTING ***
    **     DENOTES     IDENTIFIER DEFINITION
    <<                 IDENTIFIER'S VALUE SET
    >>                 IDENTIFIER'S VALUE USED
    <>                 IDENTIFIER SET AND/OR USED
    --                 IDENTIFIER REFERENCED
PL6.E3A0      #001=XSC$ROSE_RECV File=XSC$ROSE.:XSA1TSI                          WED 10/01/97 11:54 Page:10
              MINI UREF LISTING

XSC$ROSE_RECV       6**PROC

PL6.E3A0      #002=XSC$ROSE_SEND File=XSC$ROSE.:XSA1TSI                          WED 10/01/97 11:54 Page:11
       11        1        /*T***********************************************************/
       12        2        /*T*                                                         */
       13        3        /*T* Copyright (c) Bull HN Information Systems Inc., 1997    */
       14        4        /*T*                                                         */
       15        5        /*T***********************************************************/
       16        6        XSC$ROSE_SEND: PROC(X) ALTRET;
       17        7    1   DCL X UBIN;
       18        8    1   X = X + 1;
       19        9    1   END XSC$ROSE_SEND;

PL6.E3A0      #002=XSC$ROSE_SEND File=XSC$ROSE.:XSA1TSI                          WED 10/01/97 11:54 Page:12
      No diagnostics issued in procedure XSC$ROSE_SEND.

   Procedure XSC$ROSE_SEND requires 7 words for executable code.
   Procedure XSC$ROSE_SEND requires 4 words of local(AUTO) storage.

    No errors detected in file XSC$ROSE.:XSA1TSI    .

PL6.E3A0      #002=XSC$ROSE_SEND File=XSC$ROSE.:XSA1TSI                          WED 10/01/97 11:54 Page:13

 Object Unit name= XSC$ROSE_SEND                              File name= XSC$ROSE.:XSA1TOU
 UTS= OCT 01 '97 11:54:14.40 WED                              Compiler= PL-6/E31         Sev=      00
 SharedLib= :SHARED_SYSTEM                                    Alt SharedLib=


    ****  Control sections  ****

 Sect   Type Bound  Init  Size OctSiz  Section name(segment info)
    0   Proc  even  none     7      7  XSC$ROSE_SEND

    ****  Entry defs  ****

                              Check   Calling
                             calling  sequence
  Sect OctLoc Primary Altret sequence   type   Parms  Name
     0      0   yes    yes     yes      Std        1  XSC$ROSE_SEND

  ****  Entry refs  ****

         Check        Calling
        calling       sequence
Altret sequence SRef   type   Args  Name
                       nStd      0 X66_AUTO_1
                       nStd      0 X66_ARET
PL6.E3A0      #002=XSC$ROSE_SEND File=XSC$ROSE.:XSA1TSI                          WED 10/01/97 11:54 Page:14


       11        1        /*T***********************************************************/
       12        2        /*T*                                                         */
       13        3        /*T* Copyright (c) Bull HN Information Systems Inc., 1997    */
       14        4        /*T*                                                         */
       15        5        /*T***********************************************************/
       16        6        XSC$ROSE_SEND: PROC(X) ALTRET;

      6  0 000000   000000 700200 xent  XSC$ROSE_SE* TSX0  ! X66_AUTO_1
         0 000001   000004 000001                    ZERO    4,1

       17        7    1   DCL X UBIN;
       18        8    1   X = X + 1;

      8  0 000002   200003 470500                    LDP0    @X,,AUTO
         0 000003   000000 235100                    LDA     0,,PR0
         0 000004   000001 035007                    ADLA    1,DL
         0 000005   000000 755100                    STA     0,,PR0

       19        9    1   END XSC$ROSE_SEND;

      9  0 000006   000000 702200 xent               TSX2  ! X66_ARET

PL6.E3A0      #002=XSC$ROSE_SEND File=XSC$ROSE.:XSA1TSI                          WED 10/01/97 11:54 Page:15
      No diagnostics issued in procedure XSC$ROSE_SEND.
PL6.E3A0      #002=XSC$ROSE_SEND File=XSC$ROSE.:XSA1TSI                          WED 10/01/97 11:54 Page:16

 **** Variables and constants ****

  ****  Auto variables  ****

  ****  Scalars and arrays  ****
OctLoc.c.b A Datatyp(siz) R M Lvl/name                 OctLoc.c.b A Datatyp(siz) R M Lvl/name

     3-0-0/w PTR         r     1 @X                        *0-0-0/w UBIN        r     1 X


   Procedure XSC$ROSE_SEND requires 7 words for executable code.
   Procedure XSC$ROSE_SEND requires 4 words of local(AUTO) storage.

    No errors detected in file XSC$ROSE.:XSA1TSI    .
PL6.E3A0      #002=XSC$ROSE_SEND File=XSC$ROSE.:XSA1TSI                          WED 10/01/97 11:54 Page:17
          *** CROSS REFERENCE LISTING ***
**     DENOTES     IDENTIFIER DEFINITION
<<                 IDENTIFIER'S VALUE SET
>>                 IDENTIFIER'S VALUE USED
<>                 IDENTIFIER SET AND/OR USED
--                 IDENTIFIER REFERENCED
PL6.E3A0      #002=XSC$ROSE_SEND File=XSC$ROSE.:XSA1TSI                          WED 10/01/97 11:54 Page:18
          MINI XREF LISTING

X
         7**DCL         6--PROC        8<<ASSIGN      8>>ASSIGN
PL6.E3A0      #002=XSC$ROSE_SEND File=XSC$ROSE.:XSA1TSI                          WED 10/01/97 11:54 Page:19
              *** CROSS REFERENCE LISTING ***
    **     DENOTES     IDENTIFIER DEFINITION
    <<                 IDENTIFIER'S VALUE SET
    >>                 IDENTIFIER'S VALUE USED
    <>                 IDENTIFIER SET AND/OR USED
    --                 IDENTIFIER REFERENCED
PL6.E3A0      #002=XSC$ROSE_SEND File=XSC$ROSE.:XSA1TSI                          WED 10/01/97 11:54 Page:20
              MINI UREF LISTING

XSC$ROSE_SEND       6**PROC
