VERSION A01

PL6.E3A0      #001=XSD$BIND File=XSD$BIND.:XSA1TSI                               WED 10/01/97 11:54 Page:1
        1        1        /*M* XSD$BIND - library routine to connect to a foreign dsa.*/
        2        2        /*T***********************************************************/
        3        3        /*T*                                                         */
        4        4        /*T* Copyright (c) Bull HN Information Systems Inc., 1997    */
        5        5        /*T*                                                         */
        6        6        /*T***********************************************************/
        7        7        /*X*DMR,PLM=5,IND=3,CTI=2,SDI=5,MCL=10,CSI=1,DTI=2,DCI=3,ECI=0,AND */
        8        8
        9        9
       10       10
       11       11        XSD$BIND: PROC(SERVICE,BINDTO,BINDFROM,BUFFER,SIZE,SNDFLG) ALTRET;
       12       12
       13       13        %INCLUDE XSP_ASN1_M;
       14      359        %INCLUDE XSD_MACRO_M;
       15     1468        %INCLUDE XSD_PERR_C;
       16     1490        %INCLUDE FM$FIT;
       17     1711        %INCLUDE XSD_SUBS_C;
       18     2046        %INCLUDE CP_6;
       19     7605
       20     7606    1   DCL XSP$SEND ENTRY(1) ALTRET;
       21     7607    1   DCL XSP$RECV ENTRY(1) ALTRET;
       22     7608    1   DCL XSS$GETMEM ENTRY(3) ALTRET;
       23     7609    1   DCL XSS$RELMEM ENTRY(1) ALTRET;
       24     7610
       25     7611        %XSD_BIND(NAME=BINDFROM,ALGN=ALIGNED,STCLASS="");
       26     7833        %XSD_BIND(NAME=BINDTO,ALGN=ALIGNED,STCLASS="");
       27     8055        %XSD_SERVICE(NAME=SERVICE,STCLASS="");
       28     8220    1   DCL BUFFER CHAR(SIZE);
       29     8221    1   DCL SIZE UBIN;
       30     8222    1   DCL SNDFLG BIT(1) ALIGNED;
       31     8223
       32     8224        /*asn.1 nodes for bind */
       33     8225
       34     8226        %XSP_ASN1_SET(NAME=DBA,                 /* directory bind argument */
       35     8227                      SUBNDS="CREDEN,VERSIONS");
       36     8453
       37     8454        %XSP_ASN1_CHOICE(NAME=CREDEN,TAG=0,OPTIONL=YES,TAGS=YES,FPTPTR=4,
PL6.E3A0      #001=XSD$BIND File=XSD$BIND.:XSA1TSI                               WED 10/01/97 11:54 Page:2
       38     8455                         SUBNDS="SIMPLE,STRONG,EXTERNAL",CP6TYP=SBIN);
       39     8740        %XSP_ASN1_N(NAME=VERSIONS,TYPE=BIT_STRING,TAG=1,SIZELIM=36,FPTPTR=14,DEFAULT='0'B);
       40     8828        %XSP_ASN1_SEQUENCE(NAME=SIMPLE,TAG=0,SUBNDS="DNAME,VALIDITY,PASSWORD");
       41     9120
       42     9121        /* dname - determines how many RDNAME elements are in list */
       43     9122        %XSP_ASN1_SEQUENCE_OF(NAME=DNAME,TAG=A1,SUBND="RDNAME",CP6TYP=SBIN,FPTPTR=6);
       44     9274
       45     9275        /* number of elements in attribute value assertion set */
       46     9276        %XSP_ASN1_SET_OF(NAME=RDNAME,SUBND="ATTRVALASSERT",FPTPTR=1,CP6TYP=SBIN);
       47     9477        %XSP_ASN1_SEQUENCE(NAME=ATTRVALASSERT,SUBNDS="ATTRTYPE,ATTRVALUE");
       48     9724
       49     9725        /* presentation address */
       50     9726        %XSP_ASN1_SEQUENCE(NAME=PADDR,SUBNDS="PSEL,SSEL,TSEL,NADDR");
       51    10007        %XSP_ASN1_N(NAME=PSEL,TYPE=OCTET_STRING,TAG=0,OPTIONL=YES,FPTPTR=23,
       52    10008                    CP6TYP=TEXTC);
       53    10096        %XSP_ASN1_N(NAME=SSEL,TYPE=OCTET_STRING,TAG=1,OPTIONL=YES,FPTPTR=24,
       54    10097                    CP6TYP=TEXTC);
       55    10185        %XSP_ASN1_N(NAME=TSEL,TYPE=OCTET_STRING,TAG=2,OPTIONL=YES,FPTPTR=25,
       56    10186                    CP6TYP=TEXTC);
       57    10274        %XSP_ASN1_SET(NAME=NADDR,SUBNDS="NSAP");
       58    10413        %XSP_ASN1_N(NAME=NSAP,TYPE=OCTET_STRING,TAG=3,FPTPTR=26,CP6TYP=TEXTC);
       59    10501
       60    10502        /* common name */
       61    10503        %XSP_ASN1_N(NAME=CN,TYPE=PRINTABLE_STRING,FPTPTR=22,CP6TYP=TEXTC,
       62    10504                   SIZELIM = %XSD_UB_COMMONNAME);
       63    10592        %XSP_ASN1_N(NAME=ATTRTYPE,TYPE=OBJECT_IDENTIFIER,INCRPTR=YES,FPTPTR=2,CP6TYP=TEXTC,
       64    10593                   SIZELIM=%XSD_UB_OBJECTID);
       65    10681        %XSP_ASN1_CHOICE(NAME=ATTRVALUE,TAGS=YES,FPTPTR=27,CP6TYP=SBIN,PRE=BOTH,
       66    10682                         SUBNDS="CN,PADDR");    /* this is really ASN.1 type ANY*/
       67    10859
       68    10860
       69    10861        %XSP_ASN1_N(NAME=STRONG,TYPE=NULL);
       70    10949        %XSP_ASN1_N(NAME=EXTERNAL,TYPE=NULL);
       71    11037        %XSP_ASN1_SET(NAME=VALIDITY,TAG=1,OPTIONL=YES,SUBNDS="TIME1,TIME2,RANDOM1,RANDOM2");
       72    11367        %XSP_ASN1_N(NAME=TIME1,TYPE=UTC_TIME,TAG=0,OPTIONL=YES,SIZELIM=36,CP6TYP=BIT,
       73    11368                         FPTPTR=0);
       74    11456        %XSP_ASN1_N(NAME=TIME2,TYPE=UTC_TIME,TAG=1,OPTIONL=YES,SIZELIM=36,CP6TYP=BIT,
PL6.E3A0      #001=XSD$BIND File=XSD$BIND.:XSA1TSI                               WED 10/01/97 11:54 Page:3
       75    11457                    FPTPTR=20,CONDITION=20);
       76    11545        %XSP_ASN1_N(NAME=RANDOM1,TYPE=BIT_STRING,TAG=2,OPTIONL=YES,INCRPTR=NO,
       77    11546                    CP6TYP=BIT,SIZE=36,FPTPTR=8,CONDITION=8);
       78    11634        %XSP_ASN1_N(TYPE=BIT_STRING,NAME=RANDOM2,TAG=3,OPTIONL=YES,INCRPTR=NO,SIZE=5,CP6TYP=
             11634            BIT,
       79    11635                      FPTPTR=10,CONDITION=10);
       80    11723
       81    11724        %XSP_ASN1_N(NAME=PASSWORD,TYPE=OCTET_STRING,OPTIONL=YES,TAG=2,FPTPTR=12,
       82    11725                    CP6TYP=TEXTC,SIZELIM=20,CONDITION=12);
       83    11813
       84    11814
       85    11815        %XSP_ASN1_FPT(FPTN=DBAFPT,DATVECS=30,TOPNODE=DBA,UENTRY=XSD$FIXBIND);
       86    11835        %XSP$ASN1_PARM(NAME=PARM,STCLASS="");
       87    11861
       88    11862        /*  directory bind error */
       89    11863        %XSP_ASN1_SET(NAME=DBE,SUBNDS="VERSIONS,PROBLEMS");
       90    12103        %XSP_ASN1_CHOICE(NAME=PROBLEMS,SUBNDS="SERVICEPROB,SECURITYPROB",CP6TYP=SBIN,FPTPTR=
             12103            1);
       91    12392        %XSP_ASN1_INTEGER(NAME=SERVICEPROB,CP6TYP=SBIN,FPTPTR=0,TAG=1);
       92    12485        %XSP_ASN1_INTEGER(NAME=SECURITYPROB,CP6TYP=SBIN,FPTPTR=0,TAG=2);
       93    12578
       94    12579        %XSP_ASN1_FPT(FPTN=ASN1FPT_C,STCLASS=CONSTANT,DATVECS=30);
       95    12599
       96    12600        /* based */
       97    12601        %XSP_ASN1_N(NAME=NODEB,STCLASS="BASED");
       98    12689    1   DCL UBIN36 UBIN(36) BASED;
       99    12690
      100    12691        /* auto fpts */
      101    12692        %XSP_ASN1_FPT(FPTN=XSP@DBEFPT,DATVECS=30,STCLASS=AUTO);
      102    12712
      103    12713        /* misc fpts */
      104    12714        %FPT_TIME(DEST=UTS,SOURCE=CLOCK,TSTAMP=UTSBUF);
      105    12733        %VLP_ERRCODE(FPTN=ERR_C,FCG=XS,MID=D,STCLASS=CONSTANT);
      106    12778
      107    12779        /* static data */
      108    12780    1   DCL UTSBUF UBIN(36) STATIC;
      109    12781    1   DCL DNAMECNT SBIN STATIC INIT(2);
PL6.E3A0      #001=XSD$BIND File=XSD$BIND.:XSA1TSI                               WED 10/01/97 11:54 Page:4
             12781            /* how many attr are specified in the rdn sequence*/
      110    12782    1   DCL RDNAMECNT SBIN STATIC INIT(1); /* how many relative distinguished names */
      111    12783    1   DCL CREDCHOICE SBIN STATIC INIT(0);     /* choose simple credentials */
      112    12784    1   DCL OBJECTID SBIN STATIC;     /* use by attrvalue choice node to determine*/
      113    12785                                                /* which attr to encode */
      114    12786    1   DCL VERS BIT(36) STATIC INIT('0'B);     /* version is 1988 */
      115    12787    1   DCL COUNT SBIN STATIC INIT(0);
      116    12788
      117    12789        %MACRO LTEXTC(LVL=2,TEXT="",LAST=",");  /* local textc */
      118    12790             LVL * UBIN(9) CALIGNED INIT(%LENGTHC(TEXT)),
      119    12791               LVL * CHAR(19) INIT(TEXT) LAST
      120    12792        %MEND;
      121    12793
      122    12794
      123    12795    1   DCL 1 ATTRTYPES STATIC,
      124    12796             %LTEXTC (TEXT='2-5-4-3');          /* commonname */
      125    12800             %LTEXTC (TEXT='2-5-4-29',LAST=";"); /* pres addr */
      126    12804
      127    12805
      128    12806        /* bop */
      129    12807
      130    12808    1        DBAFPT.BUF$ = ADDR(BUFFER);
      131    12809    1        DBAFPT.NXTX = SIZE;
      132    12810    1        DBAFPT.DAT$(4) = ADDR(CREDCHOICE);
      133    12811    1        DBAFPT.DAT$(6) = ADDR(DNAMECNT);
      134    12812    1        DBAFPT.DAT$(1) = ADDR(RDNAMECNT);
      135    12813    1        DBAFPT.DAT$(2) = ADDR(ATTRTYPES);
      136    12814    1        DBAFPT.DAT$(0) = ADDR(UTSBUF);
      137    12815    1        DBAFPT.DAT$(14) = ADDR(VERS);
      138    12816    1        DBAFPT.DAT$(22) = ADDR(BINDFROM.COMMONNAME);
      139    12817    1        DBAFPT.DAT$(23) = ADDR(BINDFROM.PRES);
      140    12818    1        DBAFPT.DAT$(24) = ADDR(BINDFROM.SESS);
      141    12819    1        DBAFPT.DAT$(25) = ADDR(BINDFROM.TRAN);
      142    12820    1        DBAFPT.DAT$(26) = ADDR(BINDFROM.NSAP);
      143    12821    1        OBJECTID = -1;
      144    12822    1        DBAFPT.DAT$(27) = ADDR(OBJECTID);
      145    12823    1        DBAFPT.CONDITION(20) = '0'B;       /* no time2 */
PL6.E3A0      #001=XSD$BIND File=XSD$BIND.:XSA1TSI                               WED 10/01/97 11:54 Page:5
      146    12824    1        DBAFPT.CONDITION(8) = '0'B;        /* no random1 */
      147    12825    1        DBAFPT.CONDITION(10) = '0'B;       /* no random2 */
      148    12826    1        DBAFPT.CONDITION(12) = '0'B;       /* no password*/
      149    12827    2        IF SNDFLG THEN DO;
      150    12828    3             CALL XSP$SEND(DBAFPT) WHENALTRETURN DO;
      151    12829    3                  SERVICE.ERRCODE = ERR_C;
      152    12830    3                  SERVICE.ERRCODE.ERR# = %E$ASN1SEND;
      153    12831    3                  ALTRETURN;
      154    12832    3               END;
      155    12833    2          END;
      156    12834    2        ELSE DO;
      157    12835    3             CALL XSP$RECV(DBAFPT) WHENALTRETURN DO;
      158    12836    3                  SERVICE.ERRCODE.ERR# = DBAFPT.ERR;
      159    12837    3                  ALTRETURN;
      160    12838    2               END;;
      161    12839    2          END;
      162    12840    1        SIZE = DBAFPT.NXTX;
      163    12841    1        RETURN;
      164    12842
      165    12843        %EJECT;
PL6.E3A0      #001=XSD$BIND File=XSD$BIND.:XSA1TSI                               WED 10/01/97 11:54 Page:6
      166    12844    1   XSD$BINDERR: ENTRY(SERVICE,BINDTO,BINDFROM,BUFFER,SIZE,SNDFLG) ALTRET;
      167    12845        /* BINDTO -> ERROR */
      168    12846        /* BINDFROM -> PROBLEM */
      169    12847
      170    12848    1        XSP@DBEFPT.BUF$ = ADDR(BUFFER);
      171    12849    1        XSP@DBEFPT.NXTX = SIZE;
      172    12850    1        XSP@DBEFPT = ASN1FPT_C;
      173    12851    1        XSP@DBEFPT.TOPNODE$ = ADDR(DBE);
      174    12852    1        XSP@DBEFPT.DAT$(0) = ADDR(BINDTO);
      175    12853    1        XSP@DBEFPT.DAT$(1) = ADDR(BINDFROM); /* which choice in choice node */
      176    12854    1        XSP@DBEFPT.DAT$(14) = ADDR(VERS);
      177    12855    2        IF SNDFLG THEN DO;
      178    12856    3             CALL XSP$SEND(XSP@DBEFPT) WHENALTRETURN DO;
      179    12857    3                  ADDR(BINDTO)->UBIN36 = XSP@DBEFPT.ERR;
      180    12858    3                  ALTRETURN;
      181    12859    3               END;
      182    12860    2          END;
      183    12861    2        ELSE DO;
      184    12862    3             CALL XSP$RECV(XSP@DBEFPT) WHENALTRETURN DO;
      185    12863    3                  ADDR(BINDTO)->UBIN36 = XSP@DBEFPT.ERR;
      186    12864    3                  ALTRETURN;
      187    12865    3               END;
      188    12866    2          END;
      189    12867    1        SIZE = XSP@DBEFPT.NXTX;
      190    12868    1        RETURN;
      191    12869        %EJECT;
PL6.E3A0      #001=XSD$BIND File=XSD$BIND.:XSA1TSI                               WED 10/01/97 11:54 Page:7
      192    12870    1   XSD$UNBIND: ENTRY(SERVICE,BINDTO,BINDFROM,BUFFER,SIZE,SNDFLG) ALTRET;
      193    12871
      194    12872    1        DBAFPT.CONDITION(20) = '1'B;       /* no time2 */
      195    12873    1        DBAFPT.CONDITION(8) = '1'B;        /* no random1 */
      196    12874    1        DBAFPT.CONDITION(10) = '1'B;       /* no random2 */
      197    12875    1        DBAFPT.CONDITION(12) = '1'B;       /* no password*/
      198    12876    1        CREDCHOICE = 0;
      199    12877    1        DNAMECNT = 0;
      200    12878    1        DBAFPT.BUF$ = ADDR(BUFFER);
      201    12879    1        DBAFPT.DAT$(4) = ADDR(CREDCHOICE);
      202    12880    1        DBAFPT.DAT$(6) = ADDR(DNAMECNT);
      203    12881    1        DBAFPT.DAT$(2) = ADDR(ATTRTYPES);
      204    12882    1        DBAFPT.DAT$(14) = ADDR(VERS);
      205    12883    1        DBAFPT.DAT$(0) = ADDR(UTSBUF);
      206    12884    1        DBAFPT.DAT$(22) = ADDR(BINDFROM.COMMONNAME);
      207    12885    1        DBAFPT.DAT$(23) = ADDR(BINDFROM.PRES);
      208    12886    1        DBAFPT.DAT$(24) = ADDR(BINDFROM.SESS);
      209    12887    1        DBAFPT.DAT$(25) = ADDR(BINDFROM.TRAN);
      210    12888    1        DBAFPT.DAT$(26) = ADDR(BINDFROM.NSAP);
      211    12889    2        CALL XSP$RECV(DBAFPT) WHENALTRETURN DO;
      212    12890    2             SERVICE.ERRCODES = DBAFPT.ERR;
      213    12891    2             ALTRETURN;
      214    12892    2          END;
      215    12893    1        SIZE = DBAFPT.NXTX;
      216    12894    1        RETURN;
      217    12895
      218    12896        %EJECT;
PL6.E3A0      #001=XSD$BIND File=XSD$BIND.:XSA1TSI                               WED 10/01/97 11:54 Page:8
      219    12897
      220    12898    1   XSD$FIXBIND: ENTRY(SERVICE,BINDTO,BINDFROM) ALTRET;
      221    12899
      222    12900
      223    12901    1        IF OBJECTID = -1 THEN
      224    12902    1           OBJECTID = 0;              /* next choice should presentation address */
      225    12903    1        ELSE IF OBJECTID = 0 THEN
      226    12904    1              OBJECTID = 1;                /* next choice should be commonname */
      227    12905    1           ELSE
      228    12906    1              ALTRETURN;
      229    12907
      230    12908    1   END XSD$BIND;

PL6.E3A0      #001=XSD$BIND File=XSD$BIND.:XSA1TSI                               WED 10/01/97 11:54 Page:9
--  Include file information  --

   CP_6_C.:LIB_E05  is referenced.
   CP_6.:LIB_E05  cannot be made into a system file and is referenced.
   XSD_SUBS_C.:XSA1TOU  is referenced.
   FM$FIT.:LIB_E05  is referenced.
   XSD_PERR_C.:XSA1TOU  is referenced.
   XSD_MACRO_M.:XSA1TOU  is referenced.
   XSP_ASN1_M.:XSA1TOU  is referenced.
      No diagnostics issued in procedure XSD$BIND.

   Procedure XSD$BIND requires 188 words for executable code.
   Procedure XSD$BIND requires 70 words of local(AUTO) storage.

    No errors detected in file XSD$BIND.:XSA1TSI    .

PL6.E3A0      #001=XSD$BIND File=XSD$BIND.:XSA1TSI                               WED 10/01/97 11:54 Page:10

 Object Unit name= XSD$BIND                                   File name= XSD$BIND.:XSA1TOU
 UTS= OCT 01 '97 11:54:23.40 WED                              Compiler= PL-6/E31         Sev=      00
 SharedLib= :SHARED_SYSTEM                                    Alt SharedLib=


    ****  Control sections  ****

 Sect   Type Bound  Init  Size OctSiz  Section name(segment info)
    0   DCB   even  none     0      0  M$UC
    1  RoData even  UTS    156    234  XSD$BIND
    2   Data  even  none    73    111  XSD$BIND
    3   Proc  even  none   188    274  XSD$BIND
    4  RoData even  none    20     24  XSD$BIND

    ****  Entry defs  ****

                              Check   Calling
                             calling  sequence
  Sect OctLoc Primary Altret sequence   type   Parms  Name
     3      0   yes    yes     yes      Std        6  XSD$BIND
     3    114          yes     yes      Std        6  XSD$BINDERR
     3    174          yes     yes      Std        6  XSD$UNBIND
     3    256          yes     yes      Std        3  XSD$FIXBIND

  ****  Entry refs  ****

         Check        Calling
        calling       sequence
Altret sequence SRef   type   Args  Name
 yes     yes           Std       1 XSP$SEND
 yes     yes           Std       1 XSP$RECV
 yes     yes           Std       3 XSD$FIXBIND
                       nStd      0 X66_AUTO_N
                       nStd      0 X66_AALT
                       nStd      0 X66_ARET
PL6.E3A0      #001=XSD$BIND File=XSD$BIND.:XSA1TSI                               WED 10/01/97 11:54 Page:11

  ****  Data refs  ****

  Flags:  r = read only, s = secondary
Flgs Name                             Flgs Name                             Flgs Name
     M$UC

  ****  Segment refs  ****

  Flags:  r = read only, s = secondary
Flgs Name                             Flgs Name                             Flgs Name
     ISSID                                 NULLSID
PL6.E3A0      #001=XSD$BIND File=XSD$BIND.:XSA1TSI                               WED 10/01/97 11:54 Page:12


        1        1        /*M* XSD$BIND - library routine to connect to a foreign dsa.*/
        2        2        /*T***********************************************************/
        3        3        /*T*                                                         */
        4        4        /*T* Copyright (c) Bull HN Information Systems Inc., 1997    */
        5        5        /*T*                                                         */
        6        6        /*T***********************************************************/
        7        7        /*X*DMR,PLM=5,IND=3,CTI=2,SDI=5,MCL=10,CSI=1,DTI=2,DCI=3,ECI=0,AND */
        8        8
        9        9
       10       10
       11       11        XSD$BIND: PROC(SERVICE,BINDTO,BINDFROM,BUFFER,SIZE,SNDFLG) ALTRET;

     11  3 000000   000000 700200 xent  XSD$BIND     TSX0  ! X66_AUTO_N
         3 000001   000106 000006                    ZERO    70,6

       12       12
       13       13        %INCLUDE XSP_ASN1_M;
       14      359        %INCLUDE XSD_MACRO_M;
       15     1468        %INCLUDE XSD_PERR_C;
       16     1490        %INCLUDE FM$FIT;
       17     1711        %INCLUDE XSD_SUBS_C;
       18     2046        %INCLUDE CP_6;
       19     7605
       20     7606    1   DCL XSP$SEND ENTRY(1) ALTRET;
       21     7607    1   DCL XSP$RECV ENTRY(1) ALTRET;
       22     7608    1   DCL XSS$GETMEM ENTRY(3) ALTRET;
       23     7609    1   DCL XSS$RELMEM ENTRY(1) ALTRET;
       24     7610
       25     7611        %XSD_BIND(NAME=BINDFROM,ALGN=ALIGNED,STCLASS="");
       26     7833        %XSD_BIND(NAME=BINDTO,ALGN=ALIGNED,STCLASS="");
       27     8055        %XSD_SERVICE(NAME=SERVICE,STCLASS="");
       28     8220    1   DCL BUFFER CHAR(SIZE);
       29     8221    1   DCL SIZE UBIN;
       30     8222    1   DCL SNDFLG BIT(1) ALIGNED;
       31     8223
       32     8224        /*asn.1 nodes for bind */
PL6.E3A0      #001=XSD$BIND File=XSD$BIND.:XSA1TSI                               WED 10/01/97 11:54 Page:13
       33     8225
       34     8226        %XSP_ASN1_SET(NAME=DBA,                 /* directory bind argument */
       35     8227                      SUBNDS="CREDEN,VERSIONS");
       36     8453
       37     8454        %XSP_ASN1_CHOICE(NAME=CREDEN,TAG=0,OPTIONL=YES,TAGS=YES,FPTPTR=4,
       38     8455                         SUBNDS="SIMPLE,STRONG,EXTERNAL",CP6TYP=SBIN);
       39     8740        %XSP_ASN1_N(NAME=VERSIONS,TYPE=BIT_STRING,TAG=1,SIZELIM=36,FPTPTR=14,DEFAULT='0'B);
       40     8828        %XSP_ASN1_SEQUENCE(NAME=SIMPLE,TAG=0,SUBNDS="DNAME,VALIDITY,PASSWORD");
       41     9120
       42     9121        /* dname - determines how many RDNAME elements are in list */
       43     9122        %XSP_ASN1_SEQUENCE_OF(NAME=DNAME,TAG=A1,SUBND="RDNAME",CP6TYP=SBIN,FPTPTR=6);
       44     9274
       45     9275        /* number of elements in attribute value assertion set */
       46     9276        %XSP_ASN1_SET_OF(NAME=RDNAME,SUBND="ATTRVALASSERT",FPTPTR=1,CP6TYP=SBIN);
       47     9477        %XSP_ASN1_SEQUENCE(NAME=ATTRVALASSERT,SUBNDS="ATTRTYPE,ATTRVALUE");
       48     9724
       49     9725        /* presentation address */
       50     9726        %XSP_ASN1_SEQUENCE(NAME=PADDR,SUBNDS="PSEL,SSEL,TSEL,NADDR");
       51    10007        %XSP_ASN1_N(NAME=PSEL,TYPE=OCTET_STRING,TAG=0,OPTIONL=YES,FPTPTR=23,
       52    10008                    CP6TYP=TEXTC);
       53    10096        %XSP_ASN1_N(NAME=SSEL,TYPE=OCTET_STRING,TAG=1,OPTIONL=YES,FPTPTR=24,
       54    10097                    CP6TYP=TEXTC);
       55    10185        %XSP_ASN1_N(NAME=TSEL,TYPE=OCTET_STRING,TAG=2,OPTIONL=YES,FPTPTR=25,
       56    10186                    CP6TYP=TEXTC);
       57    10274        %XSP_ASN1_SET(NAME=NADDR,SUBNDS="NSAP");
       58    10413        %XSP_ASN1_N(NAME=NSAP,TYPE=OCTET_STRING,TAG=3,FPTPTR=26,CP6TYP=TEXTC);
       59    10501
       60    10502        /* common name */
       61    10503        %XSP_ASN1_N(NAME=CN,TYPE=PRINTABLE_STRING,FPTPTR=22,CP6TYP=TEXTC,
       62    10504                   SIZELIM = %XSD_UB_COMMONNAME);
       63    10592        %XSP_ASN1_N(NAME=ATTRTYPE,TYPE=OBJECT_IDENTIFIER,INCRPTR=YES,FPTPTR=2,CP6TYP=TEXTC,
       64    10593                   SIZELIM=%XSD_UB_OBJECTID);
       65    10681        %XSP_ASN1_CHOICE(NAME=ATTRVALUE,TAGS=YES,FPTPTR=27,CP6TYP=SBIN,PRE=BOTH,
       66    10682                         SUBNDS="CN,PADDR");    /* this is really ASN.1 type ANY*/
       67    10859
       68    10860
       69    10861        %XSP_ASN1_N(NAME=STRONG,TYPE=NULL);
PL6.E3A0      #001=XSD$BIND File=XSD$BIND.:XSA1TSI                               WED 10/01/97 11:54 Page:14
       70    10949        %XSP_ASN1_N(NAME=EXTERNAL,TYPE=NULL);
       71    11037       %XSP_ASN1_SET(NAME=VALIDITY,TAG=1,OPTIONL=YES,SUBNDS="TIME1,TIME2,RANDOM1,RANDOM2");
       72    11367        %XSP_ASN1_N(NAME=TIME1,TYPE=UTC_TIME,TAG=0,OPTIONL=YES,SIZELIM=36,CP6TYP=BIT,
       73    11368                         FPTPTR=0);
       74    11456        %XSP_ASN1_N(NAME=TIME2,TYPE=UTC_TIME,TAG=1,OPTIONL=YES,SIZELIM=36,CP6TYP=BIT,
       75    11457                    FPTPTR=20,CONDITION=20);
       76    11545        %XSP_ASN1_N(NAME=RANDOM1,TYPE=BIT_STRING,TAG=2,OPTIONL=YES,INCRPTR=NO,
       77    11546                    CP6TYP=BIT,SIZE=36,FPTPTR=8,CONDITION=8);
       78    11634       %XSP_ASN1_N(TYPE=BIT_STRING,NAME=RANDOM2,TAG=3,OPTIONL=YES,INCRPTR=NO,SIZE=5,CP6TYP=
             11634            BIT,
       79    11635                      FPTPTR=10,CONDITION=10);
       80    11723
       81    11724        %XSP_ASN1_N(NAME=PASSWORD,TYPE=OCTET_STRING,OPTIONL=YES,TAG=2,FPTPTR=12,
       82    11725                    CP6TYP=TEXTC,SIZELIM=20,CONDITION=12);
       83    11813
       84    11814
       85    11815        %XSP_ASN1_FPT(FPTN=DBAFPT,DATVECS=30,TOPNODE=DBA,UENTRY=XSD$FIXBIND);
       86    11835        %XSP$ASN1_PARM(NAME=PARM,STCLASS="");
       87    11861
       88    11862        /*  directory bind error */
       89    11863        %XSP_ASN1_SET(NAME=DBE,SUBNDS="VERSIONS,PROBLEMS");
       90    12103       %XSP_ASN1_CHOICE(NAME=PROBLEMS,SUBNDS="SERVICEPROB,SECURITYPROB",CP6TYP=SBIN,FPTPTR=
             12103            1);
       91    12392        %XSP_ASN1_INTEGER(NAME=SERVICEPROB,CP6TYP=SBIN,FPTPTR=0,TAG=1);
       92    12485        %XSP_ASN1_INTEGER(NAME=SECURITYPROB,CP6TYP=SBIN,FPTPTR=0,TAG=2);
       93    12578
       94    12579        %XSP_ASN1_FPT(FPTN=ASN1FPT_C,STCLASS=CONSTANT,DATVECS=30);
       95    12599
       96    12600        /* based */
       97    12601        %XSP_ASN1_N(NAME=NODEB,STCLASS="BASED");
       98    12689    1   DCL UBIN36 UBIN(36) BASED;
       99    12690
      100    12691        /* auto fpts */
      101    12692        %XSP_ASN1_FPT(FPTN=XSP@DBEFPT,DATVECS=30,STCLASS=AUTO);
      102    12712
      103    12713        /* misc fpts */
      104    12714        %FPT_TIME(DEST=UTS,SOURCE=CLOCK,TSTAMP=UTSBUF);
PL6.E3A0      #001=XSD$BIND File=XSD$BIND.:XSA1TSI                               WED 10/01/97 11:54 Page:15
      105    12733        %VLP_ERRCODE(FPTN=ERR_C,FCG=XS,MID=D,STCLASS=CONSTANT);
      106    12778
      107    12779        /* static data */
      108    12780    1   DCL UTSBUF UBIN(36) STATIC;
      109    12781    1   DCL DNAMECNT SBIN STATIC INIT(2);
             12781            /* how many attr are specified in the rdn sequence*/
      110    12782    1   DCL RDNAMECNT SBIN STATIC INIT(1); /* how many relative distinguished names */
      111    12783    1   DCL CREDCHOICE SBIN STATIC INIT(0);     /* choose simple credentials */
      112    12784    1   DCL OBJECTID SBIN STATIC;     /* use by attrvalue choice node to determine*/
      113    12785                                                /* which attr to encode */
      114    12786    1   DCL VERS BIT(36) STATIC INIT('0'B);     /* version is 1988 */
      115    12787    1   DCL COUNT SBIN STATIC INIT(0);
      116    12788
      117    12789        %MACRO LTEXTC(LVL=2,TEXT="",LAST=",");  /* local textc */
      118    12790             LVL * UBIN(9) CALIGNED INIT(%LENGTHC(TEXT)),
      119    12791               LVL * CHAR(19) INIT(TEXT) LAST
      120    12792        %MEND;
      121    12793
      122    12794
      123    12795    1   DCL 1 ATTRTYPES STATIC,
      124    12796             %LTEXTC (TEXT='2-5-4-3');          /* commonname */
      125    12800             %LTEXTC (TEXT='2-5-4-29',LAST=";"); /* pres addr */
      126    12804
      127    12805
      128    12806        /* bop */
      129    12807
      130    12808    1        DBAFPT.BUF$ = ADDR(BUFFER);

  12808  3 000002   200006 236100                    LDQ     @BUFFER,,AUTO
         3 000003   000001 756000 2                  STQ     DBAFPT+1

      131    12809    1        DBAFPT.NXTX = SIZE;

  12809  3 000004   200007 470500                    LDP0    @SIZE,,AUTO
         3 000005   000000 235100                    LDA     0,,PR0
         3 000006   000014 755000 2                  STA     DBAFPT+12

PL6.E3A0      #001=XSD$BIND File=XSD$BIND.:XSA1TSI                               WED 10/01/97 11:54 Page:16
      132    12810    1        DBAFPT.DAT$(4) = ADDR(CREDCHOICE);

  12810  3 000007   000000 236000 4                  LDQ     0
         3 000010   000021 756000 2                  STQ     DBAFPT+17

      133    12811    1        DBAFPT.DAT$(6) = ADDR(DNAMECNT);

  12811  3 000011   000001 236000 4                  LDQ     1
         3 000012   000023 756000 2                  STQ     DBAFPT+19

      134    12812    1        DBAFPT.DAT$(1) = ADDR(RDNAMECNT);

  12812  3 000013   000002 236000 4                  LDQ     2
         3 000014   000016 756000 2                  STQ     DBAFPT+14

      135    12813    1        DBAFPT.DAT$(2) = ADDR(ATTRTYPES);

  12813  3 000015   000003 236000 4                  LDQ     3
         3 000016   000017 756000 2                  STQ     DBAFPT+15

      136    12814    1        DBAFPT.DAT$(0) = ADDR(UTSBUF);

  12814  3 000017   000004 236000 4                  LDQ     4
         3 000020   000015 756000 2                  STQ     DBAFPT+13

      137    12815    1        DBAFPT.DAT$(14) = ADDR(VERS);

  12815  3 000021   000005 236000 4                  LDQ     5
         3 000022   000033 756000 2                  STQ     DBAFPT+27

      138    12816    1        DBAFPT.DAT$(22) = ADDR(BINDFROM.COMMONNAME);

  12816  3 000023   200005 236100                    LDQ     @BINDFROM,,AUTO
         3 000024   000043 756000 2                  STQ     DBAFPT+35

      139    12817    1        DBAFPT.DAT$(23) = ADDR(BINDFROM.PRES);

PL6.E3A0      #001=XSD$BIND File=XSD$BIND.:XSA1TSI                               WED 10/01/97 11:54 Page:17
  12817  3 000025   000006 036000 4                  ADLQ    6
         3 000026   000044 756000 2                  STQ     DBAFPT+36

      140    12818    1        DBAFPT.DAT$(24) = ADDR(BINDFROM.SESS);

  12818  3 000027   200005 236100                    LDQ     @BINDFROM,,AUTO
         3 000030   000007 036000 4                  ADLQ    7
         3 000031   000045 756000 2                  STQ     DBAFPT+37

      141    12819    1        DBAFPT.DAT$(25) = ADDR(BINDFROM.TRAN);

  12819  3 000032   200005 236100                    LDQ     @BINDFROM,,AUTO
         3 000033   000010 036000 4                  ADLQ    8
         3 000034   000046 756000 2                  STQ     DBAFPT+38

      142    12820    1        DBAFPT.DAT$(26) = ADDR(BINDFROM.NSAP);

  12820  3 000035   200005 236100                    LDQ     @BINDFROM,,AUTO
         3 000036   000011 036000 4                  ADLQ    9
         3 000037   000047 756000 2                  STQ     DBAFPT+39

      143    12821    1        OBJECTID = -1;

  12821  3 000040   000001 335007                    LCA     1,DL
         3 000041   000074 755000 2                  STA     OBJECTID

      144    12822    1        DBAFPT.DAT$(27) = ADDR(OBJECTID);

  12822  3 000042   000012 236000 4                  LDQ     10
         3 000043   000050 756000 2                  STQ     DBAFPT+40

      145    12823    1        DBAFPT.CONDITION(20) = '0'B;       /* no time2 */

  12823  3 000044   000013 236000 4                  LDQ     11
         3 000045   000010 356000 2                  ANSQ    DBAFPT+8

      146    12824    1        DBAFPT.CONDITION(8) = '0'B;        /* no random1 */
PL6.E3A0      #001=XSD$BIND File=XSD$BIND.:XSA1TSI                               WED 10/01/97 11:54 Page:18

  12824  3 000046   000014 236000 4                  LDQ     12
         3 000047   000010 356000 2                  ANSQ    DBAFPT+8

      147    12825    1        DBAFPT.CONDITION(10) = '0'B;       /* no random2 */

  12825  3 000050   000015 236000 4                  LDQ     13
         3 000051   000010 356000 2                  ANSQ    DBAFPT+8

      148    12826    1        DBAFPT.CONDITION(12) = '0'B;       /* no password*/

  12826  3 000052   000016 236000 4                  LDQ     14
         3 000053   000010 356000 2                  ANSQ    DBAFPT+8

      149    12827    2        IF SNDFLG THEN DO;

  12827  3 000054   200010 471500                    LDP1    @SNDFLG,,AUTO
         3 000055   100000 234100                    SZN     0,,PR1
         3 000056   000074 605000 3                  TPL     s:12835

      150    12828    3             CALL XSP$SEND(DBAFPT) WHENALTRETURN DO;

  12828  3 000057   000020 630400 4                  EPPR0   16
         3 000060   000017 631400 4                  EPPR1   15
         3 000061   000000 701000 xent               TSX1    XSP$SEND
         3 000062   000064 702000 3                  TSX2    s:12829
         3 000063   000073 710000 3                  TRA     s:12833

      151    12829    3                  SERVICE.ERRCODE = ERR_C;

  12829  3 000064   000233 236000 1                  LDQ     ERR_C
         3 000065   200003 470500                    LDP0    @SERVICE,,AUTO
         3 000066   000003 756100                    STQ     3,,PR0

      152    12830    3                  SERVICE.ERRCODE.ERR# = %E$ASN1SEND;

  12830  3 000067   000021 376000 4                  ANQ     17
PL6.E3A0      #001=XSD$BIND File=XSD$BIND.:XSA1TSI                               WED 10/01/97 11:54 Page:19
         3 000070   000130 276007                    ORQ     88,DL
         3 000071   000003 756100                    STQ     3,,PR0

      153    12831    3                  ALTRETURN;

  12831  3 000072   000000 702200 xent               TSX2  ! X66_AALT

      154    12832    3               END;
      155    12833    2          END;

  12833  3 000073   000110 710000 3                  TRA     s:12840

      156    12834    2        ELSE DO;

      157    12835    3             CALL XSP$RECV(DBAFPT) WHENALTRETURN DO;

  12835  3 000074   000020 630400 4                  EPPR0   16
         3 000075   000017 631400 4                  EPPR1   15
         3 000076   000000 701000 xent               TSX1    XSP$RECV
         3 000077   000101 702000 3                  TSX2    s:12836
         3 000100   000110 710000 3                  TRA     s:12840

      158    12836    3                  SERVICE.ERRCODE.ERR# = DBAFPT.ERR;

  12836  3 000101   200003 470500                    LDP0    @SERVICE,,AUTO
         3 000102   000003 236000 2                  LDQ     DBAFPT+3
         3 000103   000003 736000                    QLS     3
         3 000104   000003 676100                    ERQ     3,,PR0
         3 000105   377770 376007                    ANQ     131064,DL
         3 000106   000003 656100                    ERSQ    3,,PR0

      159    12837    3                  ALTRETURN;

  12837  3 000107   000000 702200 xent               TSX2  ! X66_AALT

      160    12838    2               END;;
      161    12839    2          END;
PL6.E3A0      #001=XSD$BIND File=XSD$BIND.:XSA1TSI                               WED 10/01/97 11:54 Page:20

      162    12840    1        SIZE = DBAFPT.NXTX;

  12840  3 000110   000014 235000 2                  LDA     DBAFPT+12
         3 000111   200007 470500                    LDP0    @SIZE,,AUTO
         3 000112   000000 755100                    STA     0,,PR0

      163    12841    1        RETURN;

  12841  3 000113   000000 702200 xent               TSX2  ! X66_ARET

      164    12842
      165    12843        %EJECT;
PL6.E3A0      #001=XSD$BIND File=XSD$BIND.:XSA1TSI                               WED 10/01/97 11:54 Page:21
      166    12844    1   XSD$BINDERR: ENTRY(SERVICE,BINDTO,BINDFROM,BUFFER,SIZE,SNDFLG) ALTRET;

  12844  3 000114   000000 700200 xent  XSD$BINDERR  TSX0  ! X66_AUTO_N
         3 000115   000106 000006                    ZERO    70,6

      167    12845        /* BINDTO -> ERROR */
      168    12846        /* BINDFROM -> PROBLEM */
      169    12847
      170    12848    1        XSP@DBEFPT.BUF$ = ADDR(BUFFER);

  12848  3 000116   200006 236100                    LDQ     @BUFFER,,AUTO
         3 000117   200031 756100                    STQ     XSP@DBEFPT+1,,AUTO

      171    12849    1        XSP@DBEFPT.NXTX = SIZE;

  12849  3 000120   200007 470500                    LDP0    @SIZE,,AUTO
         3 000121   000000 235100                    LDA     0,,PR0
         3 000122   200044 755100                    STA     XSP@DBEFPT+12,,AUTO

      172    12850    1        XSP@DBEFPT = ASN1FPT_C;

  12850  3 000123   000100 100400                    MLR     fill='000'O
         3 000124   000160 000254 1                  ADSC9   ASN1FPT_C                cn=0,n=172
         3 000125   200030 000254                    ADSC9   XSP@DBEFPT,,AUTO         cn=0,n=172

      173    12851    1        XSP@DBEFPT.TOPNODE$ = ADDR(DBE);

  12851  3 000126   000022 236000 4                  LDQ     18
         3 000127   200030 756100                    STQ     XSP@DBEFPT,,AUTO

      174    12852    1        XSP@DBEFPT.DAT$(0) = ADDR(BINDTO);

  12852  3 000130   200004 236100                    LDQ     @BINDTO,,AUTO
         3 000131   200045 756100                    STQ     XSP@DBEFPT+13,,AUTO

      175    12853    1        XSP@DBEFPT.DAT$(1) = ADDR(BINDFROM); /* which choice in choice node */

PL6.E3A0      #001=XSD$BIND File=XSD$BIND.:XSA1TSI                               WED 10/01/97 11:54 Page:22
  12853  3 000132   200005 236100                    LDQ     @BINDFROM,,AUTO
         3 000133   200046 756100                    STQ     XSP@DBEFPT+14,,AUTO

      176    12854    1        XSP@DBEFPT.DAT$(14) = ADDR(VERS);

  12854  3 000134   000005 236000 4                  LDQ     5
         3 000135   200063 756100                    STQ     XSP@DBEFPT+27,,AUTO

      177    12855    2        IF SNDFLG THEN DO;

  12855  3 000136   200010 471500                    LDP1    @SNDFLG,,AUTO
         3 000137   100000 234100                    SZN     0,,PR1
         3 000140   000155 605000 3                  TPL     s:12862

      178    12856    3             CALL XSP$SEND(XSP@DBEFPT) WHENALTRETURN DO;

  12856  3 000141   200030 633500                    EPPR3   XSP@DBEFPT,,AUTO
         3 000142   200104 453500                    STP3    XSP@DBEFPT+44,,AUTO
         3 000143   200104 630500                    EPPR0   XSP@DBEFPT+44,,AUTO
         3 000144   000017 631400 4                  EPPR1   15
         3 000145   000000 701000 xent               TSX1    XSP$SEND
         3 000146   000150 702000 3                  TSX2    s:12857
         3 000147   000154 710000 3                  TRA     s:12860

      179    12857    3                  ADDR(BINDTO)->UBIN36 = XSP@DBEFPT.ERR;

  12857  3 000150   200004 470500                    LDP0    @BINDTO,,AUTO
         3 000151   200033 235100                    LDA     XSP@DBEFPT+3,,AUTO
         3 000152   000000 755100                    STA     0,,PR0

      180    12858    3                  ALTRETURN;

  12858  3 000153   000000 702200 xent               TSX2  ! X66_AALT

      181    12859    3               END;
      182    12860    2          END;

PL6.E3A0      #001=XSD$BIND File=XSD$BIND.:XSA1TSI                               WED 10/01/97 11:54 Page:23
  12860  3 000154   000170 710000 3                  TRA     s:12867

      183    12861    2        ELSE DO;

      184    12862    3             CALL XSP$RECV(XSP@DBEFPT) WHENALTRETURN DO;

  12862  3 000155   200030 633500                    EPPR3   XSP@DBEFPT,,AUTO
         3 000156   200104 453500                    STP3    XSP@DBEFPT+44,,AUTO
         3 000157   200104 630500                    EPPR0   XSP@DBEFPT+44,,AUTO
         3 000160   000017 631400 4                  EPPR1   15
         3 000161   000000 701000 xent               TSX1    XSP$RECV
         3 000162   000164 702000 3                  TSX2    s:12863
         3 000163   000170 710000 3                  TRA     s:12867

      185    12863    3                  ADDR(BINDTO)->UBIN36 = XSP@DBEFPT.ERR;

  12863  3 000164   200004 470500                    LDP0    @BINDTO,,AUTO
         3 000165   200033 235100                    LDA     XSP@DBEFPT+3,,AUTO
         3 000166   000000 755100                    STA     0,,PR0

      186    12864    3                  ALTRETURN;

  12864  3 000167   000000 702200 xent               TSX2  ! X66_AALT

      187    12865    3               END;
      188    12866    2          END;

      189    12867    1        SIZE = XSP@DBEFPT.NXTX;

  12867  3 000170   200044 235100                    LDA     XSP@DBEFPT+12,,AUTO
         3 000171   200007 470500                    LDP0    @SIZE,,AUTO
         3 000172   000000 755100                    STA     0,,PR0

      190    12868    1        RETURN;

  12868  3 000173   000000 702200 xent               TSX2  ! X66_ARET

PL6.E3A0      #001=XSD$BIND File=XSD$BIND.:XSA1TSI                               WED 10/01/97 11:54 Page:24
      191    12869        %EJECT;
PL6.E3A0      #001=XSD$BIND File=XSD$BIND.:XSA1TSI                               WED 10/01/97 11:54 Page:25
      192    12870    1   XSD$UNBIND: ENTRY(SERVICE,BINDTO,BINDFROM,BUFFER,SIZE,SNDFLG) ALTRET;

  12870  3 000174   000000 700200 xent  XSD$UNBIND   TSX0  ! X66_AUTO_N
         3 000175   000106 000006                    ZERO    70,6

      193    12871
      194    12872    1        DBAFPT.CONDITION(20) = '1'B;       /* no time2 */

  12872  3 000176   100000 236007                    LDQ     32768,DL
         3 000177   000010 256000 2                  ORSQ    DBAFPT+8

      195    12873    1        DBAFPT.CONDITION(8) = '1'B;        /* no random1 */

  12873  3 000200   001000 236003                    LDQ     512,DU
         3 000201   000010 256000 2                  ORSQ    DBAFPT+8

      196    12874    1        DBAFPT.CONDITION(10) = '1'B;       /* no random2 */

  12874  3 000202   000200 236003                    LDQ     128,DU
         3 000203   000010 256000 2                  ORSQ    DBAFPT+8

      197    12875    1        DBAFPT.CONDITION(12) = '1'B;       /* no password*/

  12875  3 000204   000040 236003                    LDQ     32,DU
         3 000205   000010 256000 2                  ORSQ    DBAFPT+8

      198    12876    1        CREDCHOICE = 0;

  12876  3 000206   000073 450000 2                  STZ     CREDCHOICE

      199    12877    1        DNAMECNT = 0;

  12877  3 000207   000071 450000 2                  STZ     DNAMECNT

      200    12878    1        DBAFPT.BUF$ = ADDR(BUFFER);

  12878  3 000210   200006 236100                    LDQ     @BUFFER,,AUTO
PL6.E3A0      #001=XSD$BIND File=XSD$BIND.:XSA1TSI                               WED 10/01/97 11:54 Page:26
         3 000211   000001 756000 2                  STQ     DBAFPT+1

      201    12879    1        DBAFPT.DAT$(4) = ADDR(CREDCHOICE);

  12879  3 000212   000000 236000 4                  LDQ     0
         3 000213   000021 756000 2                  STQ     DBAFPT+17

      202    12880    1        DBAFPT.DAT$(6) = ADDR(DNAMECNT);

  12880  3 000214   000001 236000 4                  LDQ     1
         3 000215   000023 756000 2                  STQ     DBAFPT+19

      203    12881    1        DBAFPT.DAT$(2) = ADDR(ATTRTYPES);

  12881  3 000216   000003 236000 4                  LDQ     3
         3 000217   000017 756000 2                  STQ     DBAFPT+15

      204    12882    1        DBAFPT.DAT$(14) = ADDR(VERS);

  12882  3 000220   000005 236000 4                  LDQ     5
         3 000221   000033 756000 2                  STQ     DBAFPT+27

      205    12883    1        DBAFPT.DAT$(0) = ADDR(UTSBUF);

  12883  3 000222   000004 236000 4                  LDQ     4
         3 000223   000015 756000 2                  STQ     DBAFPT+13

      206    12884    1        DBAFPT.DAT$(22) = ADDR(BINDFROM.COMMONNAME);

  12884  3 000224   200005 236100                    LDQ     @BINDFROM,,AUTO
         3 000225   000043 756000 2                  STQ     DBAFPT+35

      207    12885    1        DBAFPT.DAT$(23) = ADDR(BINDFROM.PRES);

  12885  3 000226   000006 036000 4                  ADLQ    6
         3 000227   000044 756000 2                  STQ     DBAFPT+36

PL6.E3A0      #001=XSD$BIND File=XSD$BIND.:XSA1TSI                               WED 10/01/97 11:54 Page:27
      208    12886    1        DBAFPT.DAT$(24) = ADDR(BINDFROM.SESS);

  12886  3 000230   200005 236100                    LDQ     @BINDFROM,,AUTO
         3 000231   000007 036000 4                  ADLQ    7
         3 000232   000045 756000 2                  STQ     DBAFPT+37

      209    12887    1        DBAFPT.DAT$(25) = ADDR(BINDFROM.TRAN);

  12887  3 000233   200005 236100                    LDQ     @BINDFROM,,AUTO
         3 000234   000010 036000 4                  ADLQ    8
         3 000235   000046 756000 2                  STQ     DBAFPT+38

      210    12888    1        DBAFPT.DAT$(26) = ADDR(BINDFROM.NSAP);

  12888  3 000236   200005 236100                    LDQ     @BINDFROM,,AUTO
         3 000237   000011 036000 4                  ADLQ    9
         3 000240   000047 756000 2                  STQ     DBAFPT+39

      211    12889    2        CALL XSP$RECV(DBAFPT) WHENALTRETURN DO;

  12889  3 000241   000020 630400 4                  EPPR0   16
         3 000242   000017 631400 4                  EPPR1   15
         3 000243   000000 701000 xent               TSX1    XSP$RECV
         3 000244   000246 702000 3                  TSX2    s:12890
         3 000245   000252 710000 3                  TRA     s:12893

      212    12890    2             SERVICE.ERRCODES = DBAFPT.ERR;

  12890  3 000246   000003 235000 2                  LDA     DBAFPT+3
         3 000247   200003 470500                    LDP0    @SERVICE,,AUTO
         3 000250   000003 755100                    STA     3,,PR0

      213    12891    2             ALTRETURN;

  12891  3 000251   000000 702200 xent               TSX2  ! X66_AALT

      214    12892    2          END;
PL6.E3A0      #001=XSD$BIND File=XSD$BIND.:XSA1TSI                               WED 10/01/97 11:54 Page:28
      215    12893    1        SIZE = DBAFPT.NXTX;

  12893  3 000252   000014 235000 2                  LDA     DBAFPT+12
         3 000253   200007 470500                    LDP0    @SIZE,,AUTO
         3 000254   000000 755100                    STA     0,,PR0

      216    12894    1        RETURN;

  12894  3 000255   000000 702200 xent               TSX2  ! X66_ARET

      217    12895
      218    12896        %EJECT;
PL6.E3A0      #001=XSD$BIND File=XSD$BIND.:XSA1TSI                               WED 10/01/97 11:54 Page:29
      219    12897
      220    12898    1   XSD$FIXBIND: ENTRY(SERVICE,BINDTO,BINDFROM) ALTRET;

  12898  3 000256   000000 700200 xent  XSD$FIXBIND  TSX0  ! X66_AUTO_N
         3 000257   000106 000006                    ZERO    70,6

      221    12899
      222    12900
      223    12901    1        IF OBJECTID = -1 THEN

  12901  3 000260   000074 235000 2                  LDA     OBJECTID
         3 000261   000023 115000 4                  CMPA    19
         3 000262   000265 601000 3                  TNZ     s:12903

      224    12902    1           OBJECTID = 0;              /* next choice should presentation address */

  12902  3 000263   000074 450000 2                  STZ     OBJECTID
         3 000264   000273 710000 3                  TRA     s:12908

      225    12903    1        ELSE IF OBJECTID = 0 THEN

  12903  3 000265   000000 115003                    CMPA    0,DU
         3 000266   000272 601000 3                  TNZ     s:12906

      226    12904    1              OBJECTID = 1;                /* next choice should be commonname */

  12904  3 000267   000001 236007                    LDQ     1,DL
         3 000270   000074 756000 2                  STQ     OBJECTID
         3 000271   000273 710000 3                  TRA     s:12908

      227    12905    1           ELSE
      228    12906    1              ALTRETURN;

  12906  3 000272   000000 702200 xent               TSX2  ! X66_AALT

      229    12907
      230    12908    1   END XSD$BIND;
PL6.E3A0      #001=XSD$BIND File=XSD$BIND.:XSA1TSI                               WED 10/01/97 11:54 Page:30

  12908  3 000273   000000 702200 xent               TSX2  ! X66_ARET

DBA
 Sect OctLoc
   1     000   210200 000021   000000 000002   000000 000000   000005 006000    ................
   1     004   000013 006000                                                    ....

CREDEN
 Sect OctLoc
   1     005   402600 400000   400200 000003   000000 000004   000017 006000    ................
   1     011   000104 006000   000107 006000                                    .D...G..

VERSIONS
 Sect OctLoc
   1     013   030000 400001   000000 000000   000000 404416   000000 000000    ................

SIMPLE
 Sect OctLoc
   1     017   200200 400000   000000 000003   000000 000000   000025 006000    ................
   1     023   000112 006000   000135 006000                                    .J...]..

DNAME
 Sect OctLoc
   1     025   602600 200001   000000 000001   000000 000006   000031 006000    ................

RDNAME
 Sect OctLoc
   1     031   612600 000021   000000 000001   000000 000001   000035 006000    ................

ATTRVALASSERT
 Sect OctLoc
   1     035   200200 000020   000000 000002   000000 000000   000074 006000    .............<..
   1     041   000077 006000                                                    .?..

PADDR
 Sect OctLoc
PL6.E3A0      #001=XSD$BIND File=XSD$BIND.:XSA1TSI                               WED 10/01/97 11:54 Page:31
   1     042   200200 000020   000000 000004   000000 000000   000051 006000    .............)..
   1     046   000054 006000   000057 006000   000062 006000                    .,.../...2..

PSEL
 Sect OctLoc
   1     051   040400 400000   400000 000000   000000 000027                     ...........

SSEL
 Sect OctLoc
   1     054   040400 400001   400000 000000   000000 000030                     ...........

TSEL
 Sect OctLoc
   1     057   040400 400002   400000 000000   000000 000031                     ...........

NADDR
 Sect OctLoc
   1     062   210200 000021   000000 000001   000000 000000   000066 006000    .............6..

NSAP
 Sect OctLoc
   1     066   040400 400003   000000 000000   000000 000032                     ...........

CN
 Sect OctLoc
   1     071   230400 000023   000000 000000   000000 010026                    ............

ATTRTYPE
 Sect OctLoc
   1     074   060400 000006   000040 000000   000000 002402                    0.... ......

ATTRVALUE
 Sect OctLoc
   1     077   402600 000000   300200 000002   000000 000033   000071 006000    .............9..
   1     103   000042 006000                                                    ."..

STRONG
PL6.E3A0      #001=XSD$BIND File=XSD$BIND.:XSA1TSI                               WED 10/01/97 11:54 Page:32
 Sect OctLoc
   1     104   050000 000005   000000 000000   000000 000000                    (...........

EXTERNAL
 Sect OctLoc
   1     107   050000 000005   000000 000000   000000 000000                    (...........

VALIDITY
 Sect OctLoc
   1     112   210200 400001   400000 000004   000000 000000   000121 006000    .............Q..
   1     116   000124 006000   000127 006000   000132 006000                    .T...W...Z..

TIME1
 Sect OctLoc
   1     121   271400 400000   400000 000000   000000 004400                    ............

TIME2
 Sect OctLoc
   1     124   271424 400001   400000 000000   000000 004424                    ............

RANDOM1
 Sect OctLoc
   1     127   031410 400002   400001 100000   000000 004410                    ......@.....

RANDOM2
 Sect OctLoc
   1     132   031412 400003   400000 120000   000000 000512                    ......P.....

PASSWORD
 Sect OctLoc
   1     135   040414 400002   400000 000000   000000 002414                     ...........

DBE
 Sect OctLoc
   1     140   210200 000021   000000 000002   000000 000000   000013 006000    ................
   1     144   000145 006000                                                    .e..

PL6.E3A0      #001=XSD$BIND File=XSD$BIND.:XSA1TSI                               WED 10/01/97 11:54 Page:33
PROBLEMS
 Sect OctLoc
   1     145   402600 000000   000000 000002   000000 000001   000152 006000    .............j..
   1     151   000155 006000                                                    .m..

SERVICEPROB
 Sect OctLoc
   1     152   022400 400001   000000 000000   000000 000000                    ............

SECURITYPROB
 Sect OctLoc
   1     155   022400 400002   000000 000000   000000 000000                    ............

ASN1FPT_C
 Sect OctLoc
   1     160   000000 006014   000000 006014   000000 000000   000000 000000    ................
   1     164   000000 006014   000000 000000   000000 000000   000000 000000    ................
   1     170   400000 000000   000000 000000   000000 000000   000000 000000    ................
   1     174   000000 000000   000000 006014   000000 006014   000000 006014    ................
   1     200   000000 006014   000000 006014   000000 006014   000000 006014    ................
   1     230*  000000 006014   000000 006014   000000 006014                    ............

ERR_C
 Sect OctLoc
   1     233   302304 000000                                                    ....

DBAFPT
 Sect OctLoc
   2     000   000000 006000   000000 006014   000000 000000   000000 000000    ................
   2     004   000000 006014   000000 000000   000000 000000   000000 000000    ................
   2     010   400000 000000   000000 000000   000000 000000   000000 000000    ................
   2     014   000000 000000   000000 006014   000000 006014   000000 006014    ................
   2     020   000000 006014   000000 006014   000000 006014   000000 006014    ................
   2     050*  000000 006014   000000 006014   000000 006014                    ............

FPT_TIME
 Sect OctLoc
PL6.E3A0      #001=XSD$BIND File=XSD$BIND.:XSA1TSI                               WED 10/01/97 11:54 Page:34
   2     054   000001 777640   000066 006000   000000 177640   000000 006014    .....6..........
   2     060   000000 177640   000000 006014   000000 177640   000000 006014    ................
   2     064   000000 777640   000070 006000   000004 000000   ****** ******    .....8..........

DNAMECNT
 Sect OctLoc
   2     071   000000 000002                                                    ....

RDNAMECNT
 Sect OctLoc
   2     072   000000 000001                                                    ....

CREDCHOICE
 Sect OctLoc
   2     073   000000 000000                                                    ....

VERS
 Sect OctLoc
   2     075   000000 000000                                                    ....

(unnamed)
 Sect OctLoc
   2     076   000000 000000                                                    ....

ATTRTYPES
 Sect OctLoc
   2     077   007062 055065   055064 055063   040040 040040   040040 040040    .2-5-4-3
   2     103   040040 040040   010062 055065   055064 055062   071040 040040        .2-5-4-29
   2     107   040040 040040   040040 040040

(unnamed)
 Sect OctLoc
   4     000   000073 006000   000071 006000   000072 006000   000077 006000    .;...9...:...?..
   4     004   000070 006000   000075 006000   000020 200000   000220 200000    .8...=..........
   4     010   000420 200000   000620 200000   000074 006000   777777 677777    .........<......
   4     014   776777 777777   777577 777777   777737 777777   000001 000000    ................
   4     020   000000 006000   777777 400007   000140 006000   777777 777777    .........`......
PL6.E3A0      #001=XSD$BIND File=XSD$BIND.:XSA1TSI                               WED 10/01/97 11:54 Page:35

PL6.E3A0      #001=XSD$BIND File=XSD$BIND.:XSA1TSI                               WED 10/01/97 11:54 Page:36
--  Include file information  --

   CP_6_C.:LIB_E05  is referenced.
   CP_6.:LIB_E05  cannot be made into a system file and is referenced.
   XSD_SUBS_C.:XSA1TOU  is referenced.
   FM$FIT.:LIB_E05  is referenced.
   XSD_PERR_C.:XSA1TOU  is referenced.
   XSD_MACRO_M.:XSA1TOU  is referenced.
   XSP_ASN1_M.:XSA1TOU  is referenced.
      No diagnostics issued in procedure XSD$BIND.
PL6.E3A0      #001=XSD$BIND File=XSD$BIND.:XSA1TSI                               WED 10/01/97 11:54 Page:37

 **** Variables and constants ****

  ****  Section 001 RoData XSD$BIND

  ****  Scalars and arrays  ****
OctLoc.c.b A Datatyp(siz) R M Lvl/name                 OctLoc.c.b A Datatyp(siz) R M Lvl/name

   160-0-0/w STRC(1548)  r     1 ASN1FPT_C                 74-0-0/w STRC(108)   r     1 ATTRTYPE
    35-0-0/w STRC(180)   r     1 ATTRVALASSERT             77-0-0/w STRC(180)   r     1 ATTRVALUE
    71-0-0/w STRC(108)   r     1 CN                         5-0-0/w STRC(216)   r     1 CREDEN
     0-0-0/w STRC(180)   r     1 DBA                      140-0-0/w STRC(180)   r     1 DBE
    25-0-0/w STRC(144)   r     1 DNAME                    233-0-0/w STRC        r     1 ERR_C
   107-0-0/w STRC(108)   r     1 EXTERNAL                  62-0-0/w STRC(144)   r     1 NADDR
    66-0-0/w STRC(108)   r     1 NSAP                      42-0-0/w STRC(252)   r     1 PADDR
   135-0-0/w STRC(108)   r     1 PASSWORD                 145-0-0/w STRC(180)   r     1 PROBLEMS
    51-0-0/w STRC(108)   r     1 PSEL                     127-0-0/w STRC(108)   r     1 RANDOM1
   132-0-0/w STRC(108)   r     1 RANDOM2                   31-0-0/w STRC(144)   r     1 RDNAME
   155-0-0/w STRC(108)   r     1 SECURITYPROB             152-0-0/w STRC(108)   r     1 SERVICEPROB
    17-0-0/w STRC(216)   r     1 SIMPLE                    54-0-0/w STRC(108)   r     1 SSEL
   104-0-0/w STRC(108)   r     1 STRONG                   121-0-0/w STRC(108)   r     1 TIME1
   124-0-0/w STRC(108)   r     1 TIME2                     57-0-0/w STRC(108)   r     1 TSEL
   112-0-0/w STRC(252)   r     1 VALIDITY                  13-0-0/w STRC(144)   r     1 VERSIONS

  ****  Section 002  Data  XSD$BIND

  ****  Scalars and arrays  ****
OctLoc.c.b A Datatyp(siz) R M Lvl/name                 OctLoc.c.b A Datatyp(siz) R M Lvl/name

    77-0-0/c STRC(360)   r     1 ATTRTYPES                 73-0-0/w SBIN        r     1 CREDCHOICE
     0-0-0/w STRC(1548)  r     1 DBAFPT                    71-0-0/w SBIN        r     1 DNAMECNT
    54-0-0/d STRC(432)   r     1 FPT_TIME                  74-0-0/w SBIN        r     1 OBJECTID
    72-0-0/w SBIN        r     1 RDNAMECNT                 70-0-0/w UBIN        r     1 UTSBUF
    75-0-0/b BIT         r     1 VERS

  ****  Auto variables  ****

  ****  Scalars and arrays  ****
PL6.E3A0      #001=XSD$BIND File=XSD$BIND.:XSA1TSI                               WED 10/01/97 11:54 Page:38
OctLoc.c.b A Datatyp(siz) R M Lvl/name                 OctLoc.c.b A Datatyp(siz) R M Lvl/name

     5-0-0/w PTR         r     1 @BINDFROM                  4-0-0/w PTR         r     1 @BINDTO
     6-0-0/w PTR         r     1 @BUFFER                    3-0-0/w PTR         r     1 @SERVICE
     7-0-0/w PTR         r     1 @SIZE                     10-0-0/w PTR         r     1 @SNDFLG
    *0-0-0/w STRC(19017) r     1 BINDFROM                  *0-0-0/w STRC(19017) r     1 BINDTO
    *0-0-0/c ACHR        r     1 BUFFER                    *0-0-0/d STRC(468)   r     1 SERVICE
    *0-0-0/w UBIN        r     1 SIZE                      *0-0-0/w BIT         r     1 SNDFLG
    30-0-0/w STRC(1548)  r     1 XSP@DBEFPT

  ****  BASED and DCB variables  ****

  ****  Scalars and arrays  ****
OctLoc.c.b A Datatyp(siz) R M Lvl/name                 OctLoc.c.b A Datatyp(siz) R M Lvl/name

     0-0-0/w UBIN        r     1 UBIN36


   Procedure XSD$BIND requires 188 words for executable code.
   Procedure XSD$BIND requires 70 words of local(AUTO) storage.

    No errors detected in file XSD$BIND.:XSA1TSI    .
PL6.E3A0      #001=XSD$BIND File=XSD$BIND.:XSA1TSI                               WED 10/01/97 11:54 Page:39
          *** CROSS REFERENCE LISTING ***
**     DENOTES     IDENTIFIER DEFINITION
<<                 IDENTIFIER'S VALUE SET
>>                 IDENTIFIER'S VALUE USED
<>                 IDENTIFIER SET AND/OR USED
--                 IDENTIFIER REFERENCED
PL6.E3A0      #001=XSD$BIND File=XSD$BIND.:XSA1TSI                               WED 10/01/97 11:54 Page:40
          MINI XREF LISTING

ASN1FPT_C
     12589**DCL     12850>>ASSIGN
ASN1FPT_C.C0
     12595**DCL     12595--REDEF
ASN1FPT_C.DAT$
     12597**DCL     12597--REDEF
ASN1FPT_C.N0
     12596**DCL     12596--REDEF
ASN1FPT_C.R0
     12594**DCL     12595--REDEF
ATTRTYPE
     10602**DCL      9611--DCLINIT
ATTRTYPE.TAG
     10622**DCL     10622--REDEF
ATTRTYPES
     12795**DCL     12813--ASSIGN  12881--ASSIGN
ATTRVALASSERT
      9491**DCL      9442--DCLINIT
ATTRVALASSERT.TAG
      9511**DCL      9511--REDEF
ATTRVALUE
     10696**DCL      9687--DCLINIT
ATTRVALUE.TAG
     10716**DCL     10716--REDEF
BINDFROM
      7627**DCL        11--PROC    12844--ENTRY   12853--ASSIGN  12870--ENTRY   12898--ENTRY
BINDFROM.COMMONNAME
      7650**DCL     12816--ASSIGN  12884--ASSIGN
BINDFROM.NSAP
      7810**DCL     12820--ASSIGN  12888--ASSIGN
BINDFROM.PRES
      7690**DCL     12817--ASSIGN  12885--ASSIGN
PL6.E3A0      #001=XSD$BIND File=XSD$BIND.:XSA1TSI                               WED 10/01/97 11:54 Page:41
BINDFROM.SESS
      7730**DCL     12818--ASSIGN  12886--ASSIGN
BINDFROM.TRAN
      7770**DCL     12819--ASSIGN  12887--ASSIGN
BINDTO
      7849**DCL        11--PROC    12844--ENTRY   12852--ASSIGN  12857--ASSIGN  12863--ASSIGN  12870--ENTRY
     12898--ENTRY
BUFFER
      8220**DCL        11--PROC    12808--ASSIGN  12844--ENTRY   12848--ASSIGN  12870--ENTRY   12878--ASSIGN
CN
     10513**DCL     10774--DCLINIT
CN.TAG
     10533**DCL     10533--REDEF
CREDCHOICE
     12783**DCL     12810--ASSIGN  12876<<ASSIGN  12879--ASSIGN
CREDEN
      8469**DCL      8347--DCLINIT
CREDEN.TAG
      8489**DCL      8489--REDEF
DBA
      8241**DCL     11829--DCLINIT
DBA.TAG
      8261**DCL      8261--REDEF
DBAFPT
     11825**DCL     12828<>CALL    12835<>CALL    12889<>CALL
DBAFPT.BUF$
     11829**DCL     12808<<ASSIGN  12878<<ASSIGN
DBAFPT.C0
     11831**DCL     11831--REDEF
DBAFPT.CONDITION
     11831**DCL     12823<<ASSIGN  12824<<ASSIGN  12825<<ASSIGN  12826<<ASSIGN  12872<<ASSIGN  12873<<ASSIGN
     12874<<ASSIGN  12875<<ASSIGN
DBAFPT.DAT$
     11833**DCL     11833--REDEF   12810<<ASSIGN  12811<<ASSIGN  12812<<ASSIGN  12813<<ASSIGN  12814<<ASSIGN
     12815<<ASSIGN  12816<<ASSIGN  12817<<ASSIGN  12818<<ASSIGN  12819<<ASSIGN  12820<<ASSIGN  12822<<ASSIGN
     12879<<ASSIGN  12880<<ASSIGN  12881<<ASSIGN  12882<<ASSIGN  12883<<ASSIGN  12884<<ASSIGN  12885<<ASSIGN
PL6.E3A0      #001=XSD$BIND File=XSD$BIND.:XSA1TSI                               WED 10/01/97 11:54 Page:42
     12886<<ASSIGN  12887<<ASSIGN  12888<<ASSIGN
DBAFPT.ERR
     11830**DCL     12836>>ASSIGN  12890>>ASSIGN
DBAFPT.N0
     11832**DCL     11832--REDEF
DBAFPT.NXTX
     11832**DCL     12809<<ASSIGN  12840>>ASSIGN  12893>>ASSIGN
DBAFPT.R0
     11830**DCL     11831--REDEF
DBE
     11877**DCL     12851--ASSIGN
DBE.TAG
     11897**DCL     11897--REDEF
DNAME
      9135**DCL      8941--DCLINIT
DNAME.TAG
      9155**DCL      9155--REDEF
DNAMECNT
     12781**DCL     12811--ASSIGN  12877<<ASSIGN  12880--ASSIGN
ERR_C
     12745**DCL     12829>>ASSIGN
EXTERNAL
     10958**DCL      8701--DCLINIT
EXTERNAL.TAG
     10978**DCL     10978--REDEF
FPT_TIME.V
     12729**DCL     12725--DCLINIT
NADDR
     10288**DCL      9966--DCLINIT
NADDR.TAG
     10308**DCL     10308--REDEF
NODEB.SUBND$
     12685**DCL     12685--REDEF   12685--REDEF   12685--REDEF   12686--REDEF   12686--REDEF
NODEB.TAG
     12630**DCL     12630--REDEF
NSAP
PL6.E3A0      #001=XSD$BIND File=XSD$BIND.:XSA1TSI                               WED 10/01/97 11:54 Page:43
     10422**DCL     10378--DCLINIT
NSAP.TAG
     10442**DCL     10442--REDEF
OBJECTID
     12784**DCL     12821<<ASSIGN  12822--ASSIGN  12901>>IF      12902<<ASSIGN  12903>>IF      12904<<ASSIGN
PADDR
      9740**DCL     10822--DCLINIT
PADDR.TAG
      9760**DCL      9760--REDEF
PASSWORD
     11734**DCL      9081--DCLINIT
PASSWORD.TAG
     11754**DCL     11754--REDEF
PROBLEMS
     12117**DCL     12066--DCLINIT
PROBLEMS.TAG
     12137**DCL     12137--REDEF
PSEL
     10017**DCL      9832--DCLINIT
PSEL.TAG
     10037**DCL     10037--REDEF
RANDOM1
     11555**DCL     11264--DCLINIT
RANDOM1.TAG
     11575**DCL     11575--REDEF
RANDOM2
     11644**DCL     11326--DCLINIT
RANDOM2.TAG
     11664**DCL     11664--REDEF
RDNAME
      9289**DCL      9239--DCLINIT
RDNAME.TAG
      9309**DCL      9309--REDEF
RDNAMECNT
     12782**DCL     12812--ASSIGN
SECURITYPROB
PL6.E3A0      #001=XSD$BIND File=XSD$BIND.:XSA1TSI                               WED 10/01/97 11:54 Page:44
     12498**DCL     12355--DCLINIT
SECURITYPROB.TAG
     12518**DCL     12518--REDEF
SERVICE
      8076**DCL        11--PROC    12844--ENTRY   12870--ENTRY   12898--ENTRY
SERVICE.ERRCODE
      8145**DCL      8176--REDEF    8177--REDEF   12829<<ASSIGN
SERVICE.ERRCODE.ERR#
      8173**DCL     12830<<ASSIGN  12836<<ASSIGN
SERVICE.ERRCODES
      8177**DCL     12890<<ASSIGN
SERVICE.UENTADDR$
      8192**DCL      8196--REDEF    8199--REDEF
SERVICEPROB
     12405**DCL     12258--DCLINIT
SERVICEPROB.TAG
     12425**DCL     12425--REDEF
SIMPLE
      8842**DCL      8575--DCLINIT
SIMPLE.TAG
      8862**DCL      8862--REDEF
SIZE
      8221**DCL        11--PROC     8220--IMP-SIZ 12809>>ASSIGN  12840<<ASSIGN  12844--ENTRY   12849>>ASSIGN
     12867<<ASSIGN  12870--ENTRY   12893<<ASSIGN
SNDFLG
      8222**DCL        11--PROC    12827>>IF      12844--ENTRY   12855>>IF      12870--ENTRY
SSEL
     10106**DCL      9875--DCLINIT
SSEL.TAG
     10126**DCL     10126--REDEF
STRONG
     10870**DCL      8632--DCLINIT
STRONG.TAG
     10890**DCL     10890--REDEF
TIME1
     11377**DCL     11150--DCLINIT
PL6.E3A0      #001=XSD$BIND File=XSD$BIND.:XSA1TSI                               WED 10/01/97 11:54 Page:45
TIME1.TAG
     11397**DCL     11397--REDEF
TIME2
     11466**DCL     11200--DCLINIT
TIME2.TAG
     11486**DCL     11486--REDEF
TSEL
     10195**DCL      9918--DCLINIT
TSEL.TAG
     10215**DCL     10215--REDEF
UBIN36
     12689**DCL     12857<<ASSIGN  12863<<ASSIGN
UTSBUF
     12780**DCL     12729--DCLINIT 12814--ASSIGN  12883--ASSIGN
VALIDITY
     11051**DCL      9012--DCLINIT
VALIDITY.TAG
     11071**DCL     11071--REDEF
VERS
     12786**DCL     12815--ASSIGN  12854--ASSIGN  12882--ASSIGN
VERSIONS
      8749**DCL      8416--DCLINIT 11997--DCLINIT
VERSIONS.TAG
      8769**DCL      8769--REDEF
XSD$FIXBIND
     12898**ENTRY   11829--DCLINIT
XSP$RECV
      7607**DCL-ENT 12835--CALL    12862--CALL    12889--CALL
XSP$SEND
      7606**DCL-ENT 12828--CALL    12856--CALL
XSP@DBEFPT
     12702**DCL     12850<<ASSIGN  12856<>CALL    12862<>CALL
XSP@DBEFPT.BUF$
     12706**DCL     12848<<ASSIGN
XSP@DBEFPT.C0
     12708**DCL     12708--REDEF
PL6.E3A0      #001=XSD$BIND File=XSD$BIND.:XSA1TSI                               WED 10/01/97 11:54 Page:46
XSP@DBEFPT.DAT$
     12710**DCL     12710--REDEF   12852<<ASSIGN  12853<<ASSIGN  12854<<ASSIGN
XSP@DBEFPT.ERR
     12707**DCL     12857>>ASSIGN  12863>>ASSIGN
XSP@DBEFPT.N0
     12709**DCL     12709--REDEF
XSP@DBEFPT.NXTX
     12709**DCL     12849<<ASSIGN  12867>>ASSIGN
XSP@DBEFPT.R0
     12707**DCL     12708--REDEF
XSP@DBEFPT.TOPNODE$
     12706**DCL     12851<<ASSIGN
PL6.E3A0      #001=XSD$BIND File=XSD$BIND.:XSA1TSI                               WED 10/01/97 11:54 Page:47
              *** CROSS REFERENCE LISTING ***
    **     DENOTES     IDENTIFIER DEFINITION
    <<                 IDENTIFIER'S VALUE SET
    >>                 IDENTIFIER'S VALUE USED
    <>                 IDENTIFIER SET AND/OR USED
    --                 IDENTIFIER REFERENCED
PL6.E3A0      #001=XSD$BIND File=XSD$BIND.:XSA1TSI                               WED 10/01/97 11:54 Page:48
              MINI UREF LISTING

COUNT   12787**DCL
M$ACCT    7550**DCL-ENT
M$ACTIVATE    7553**DCL-ENT
M$ALIB    7546**DCL-ENT
M$ASUSER    7548**DCL-ENT
M$ATTACH    7555**DCL-ENT
M$BADPP    7573**DCL-ENT
M$CGCTL    7554**DCL-ENT
M$CGINFO    7554**DCL-ENT
M$CHECK    7535**DCL-ENT
M$CHGUNIT    7593**DCL-ENT
M$CLOSE    7533**DCL-ENT
M$CLRSTK    7591**DCL-ENT
M$CMDVAR    7602**DCL-ENT
M$CONFIG    7563**DCL-ENT
M$CORRES    7538**DCL-ENT
M$CPEXIT    7547**DCL-ENT
M$CVM    7571**DCL-ENT
M$CVOL    7536**DCL-ENT
M$DCLFLD    7563**DCL-ENT
M$DEACTIVATE    7553**DCL-ENT
M$DELREC    7535**DCL-ENT
M$DEQ    7600**DCL-ENT
M$DETACH    7555**DCL-ENT
M$DEVICE    7537**DCL-ENT
M$DISPLAY    7600**DCL-ENT
M$DISPRES    7540**DCL-ENT
M$DLIB    7546**DCL-ENT
M$DRIBBLE    7563**DCL-ENT
M$DRTN    7591**DCL-ENT
M$DSUSER    7548**DCL-ENT
M$ENQ    7599**DCL-ENT
PL6.E3A0      #001=XSD$BIND File=XSD$BIND.:XSA1TSI                               WED 10/01/97 11:54 Page:49
M$EOM    7558**DCL-ENT
M$ERASE    7564**DCL-ENT
M$ERR    7545**DCL-ENT
M$ERRMSG    7596**DCL-ENT
M$EVENT    7588**DCL-ENT
M$EXHUME    7597**DCL-ENT
M$EXIT    7545**DCL-ENT
M$EXTEND    7537**DCL-ENT
M$FDP    7569**DCL-ENT
M$FDS    7568**DCL-ENT
M$FEBOOT    7561**DCL-ENT
M$FECTL    7562**DCL-ENT
M$FEDUMP    7561**DCL-ENT
M$FID    7596**DCL-ENT
M$FINDPROC    7550**DCL-ENT
M$FSUSER    7548**DCL-ENT
M$FVP    7570**DCL-ENT
M$FWCG    7554**DCL-ENT
M$GBPL    7574**DCL-ENT
M$GDDL    7570**DCL-ENT
M$GDP    7569**DCL-ENT
M$GDS    7568**DCL-ENT
M$GETDCB    7539**DCL-ENT
M$GETMOUSE    7579**DCL-ENT
M$GETPM    7580**DCL-ENT
M$GJOB    7598**DCL-ENT
M$GLINEATTR    7558**DCL-ENT
M$GOODPP    7573**DCL-ENT
M$GPLATEN    7566**DCL-ENT
M$GPROMPT    7565**DCL-ENT
M$GTRMATTR    7559**DCL-ENT
M$GTRMCTL    7557**DCL-ENT
M$GTRMTAB    7560**DCL-ENT
M$GVP    7569**DCL-ENT
M$HELP    7596**DCL-ENT
M$INT    7588**DCL-ENT
PL6.E3A0      #001=XSD$BIND File=XSD$BIND.:XSA1TSI                               WED 10/01/97 11:54 Page:50
M$INTRTN    7549**DCL-ENT
M$IOQ    7584**DCL-ENT
M$JOBSTATS    7598**DCL-ENT
M$KEYIN    7538**DCL-ENT
M$LDEV    7533**DCL-ENT
M$LDTRC    7546**DCL-ENT
M$LIMIT    7539**DCL-ENT
M$LINES    7538**DCL-ENT
M$LINK    7545**DCL-ENT
M$MADMUCK    7541**DCL-ENT
M$MAKUSER    7572**DCL-ENT
M$MBS    7540**DCL-ENT
M$MDFFLD    7564**DCL-ENT
M$MERC    7589**DCL-ENT
M$MERCS    7590**DCL-ENT
M$MIRROR    7584**DCL-ENT
M$MONINFO    7601**DCL-ENT
M$MPL    7574**DCL-ENT
M$NODEINFO    7565**DCL-ENT
M$NXTUSR    7599**DCL-ENT
M$OCMSG    7597**DCL-ENT
M$OLAY    7545**DCL-ENT
M$OPEN    7533**DCL-ENT
M$PAS    7574**DCL-ENT
M$PATHCON    7597**DCL-ENT
M$PDS    7568**DCL-ENT
M$PFIL    7535**DCL-ENT
M$PLATEN    7559**DCL-ENT
M$PRECORD    7537**DCL-ENT
M$PROCNAME    7550**DCL-ENT
M$PROFILE    7561**DCL-ENT
M$PROMPT    7557**DCL-ENT
M$RACST    7541**DCL-ENT
M$RDSYSLOG    7582**DCL-ENT
M$READ    7534**DCL-ENT
M$RELDCB    7539**DCL-ENT
PL6.E3A0      #001=XSD$BIND File=XSD$BIND.:XSA1TSI                               WED 10/01/97 11:54 Page:51
M$RELRES    7540**DCL-ENT
M$RELSTARF    7542**DCL-ENT
M$REM    7542**DCL-ENT
M$RENV    7589**DCL-ENT
M$REQUIRE    7541**DCL-ENT
M$RETRY    7590**DCL-ENT
M$RETRYS    7590**DCL-ENT
M$REW    7536**DCL-ENT
M$RLSFLD    7564**DCL-ENT
M$RPRIV    7592**DCL-ENT
M$RSPP    7571**DCL-ENT
M$RSWITCH    7593**DCL-ENT
M$RUE    7599**DCL-ENT
M$SAD    7572**DCL-ENT
M$SAVE    7548**DCL-ENT
M$SCON    7549**DCL-ENT
M$SCREECH    7547**DCL-ENT
M$SENV    7589**DCL-ENT
M$SETFMA    7533**DCL-ENT
M$SETFP    7562**DCL-ENT
M$SINPUT    7560**DCL-ENT
M$SLCFLD    7565**DCL-ENT
M$SMOUSE    7579**DCL-ENT
M$SMPRT    7571**DCL-ENT
M$SPRIV    7592**DCL-ENT
M$SSC    7572**DCL-ENT
M$SSWITCH    7592**DCL-ENT
M$STATE    7601**DCL-ENT
M$STD    7573**DCL-ENT
M$STIMER    7587**DCL-ENT
M$STLPP    7570**DCL-ENT
M$STRAP    7587**DCL-ENT
M$STRMATTR    7559**DCL-ENT
M$STRMCTL    7557**DCL-ENT
M$STRMTAB    7560**DCL-ENT
M$SYMBIO    7598**DCL-ENT
PL6.E3A0      #001=XSD$BIND File=XSD$BIND.:XSA1TSI                               WED 10/01/97 11:54 Page:52
M$SYSCON    7584**DCL-ENT
M$SYSID    7602**DCL-ENT
M$TDCLOSE    7583**DCL-ENT
M$TDIO    7583**DCL-ENT
M$TDOPEN    7582**DCL-ENT
M$TDREQCPU    7583**DCL-ENT
M$TEMPWROC    7577**DCL-ENT
M$TIME    7600**DCL-ENT
M$TRAP    7587**DCL-ENT
M$TRMISC    7562**DCL-ENT
M$TRMPRG    7558**DCL-ENT
M$TRTN    7591**DCL-ENT
M$TRUNC    7534**DCL-ENT
M$TTIMER    7587**DCL-ENT
M$UC    7557**DCL
M$UMPL    7574**DCL-ENT
M$UNFID    7596**DCL-ENT
M$UNLATCH    7553**DCL-ENT
M$UNSHARE    7550**DCL-ENT
M$USRFIELD    7593**DCL-ENT
M$VIRTUAL    7568**DCL-ENT
M$WAIT    7591**DCL-ENT
M$WEOF    7536**DCL-ENT
M$WRITE    7534**DCL-ENT
M$WRSYSLOG    7582**DCL-ENT
M$XCON    7588**DCL-ENT
M$XCONRTN    7549**DCL-ENT
M$XEQTIME    7601**DCL-ENT
M$XFLUSH    7542**DCL-ENT
M$XMOUSE    7579**DCL-ENT
M$XXX    7545**DCL-ENT
M$YC    7547**DCL-ENT
PARM   11848**DCL
XSD$BIND      11**PROC
XSD$BINDERR   12844**ENTRY
XSD$UNBIND   12870**ENTRY
PL6.E3A0      #001=XSD$BIND File=XSD$BIND.:XSA1TSI                               WED 10/01/97 11:54 Page:53
XSS$GETMEM    7608**DCL-ENT
XSS$RELMEM    7609**DCL-ENT
