VERSION A01

PL6.E3A0      #001=XSD$DSDATA File=XSD_DATA_D.:XSA1TSI                           WED 10/01/97 11:57 Page:1
        1        1        /*M* XSD_DATA_D external data declarations for directory library */
        2        2        /*T***********************************************************/
        3        3        /*T*                                                         */
        4        4        /*T* Copyright (c) Bull HN Information Systems Inc., 1997    */
        5        5        /*T*                                                         */
        6        6        /*T***********************************************************/
        7        7        /*X*DMR,PLM=5,IND=3,CTI=2,SDI=5,MCL=10,CSI=1,DTI=2,DCI=3,ECI=0,AND */
        8        8
        9        9        XSD$DSDATA: PROC NOAUTO;
       10       10        /* useful object identifiers from UsefulDefinitions. in the form
       11       11           joint-iso-ccitt - ds - x.  where x is the value of one of module,
       12       12           service element etc.
       13       13           joint_iso_ccitt = 2 from iso 8824. ds = 5 from dis 9594-2 */
       14       14
       15       15        %INCLUDE XSD_MACRO_M;
       16     1124        %INCLUDE XSC_ACSE_M;
       17     1433
       18     1434        /* presentation context definition list for the DUA */
       19     1435    1   DCL 1 XSD_PCDL_DUA STATIC SYMDEF ALIGNED,
       20     1436    1            2 * UBIN INIT(2),
       21     1437    1            2 * PTR INIT(ADDR(XSD_IDASACSE)),
       22     1438    1            2 * PTR INIT(ADDR(XSD_IDASDUA));
       23     1439
       24     1440        /* presentation context definition list for the DSA */
       25     1441    1   DCL 1 XSD_PCDL_DSA STATIC SYMDEF ALIGNED,
       26     1442    1            2 * UBIN INIT(2),
       27     1443    1            2 * PTR INIT(ADDR(XSD_IDASACSE)),
       28     1444    1            2 * PTR INIT(ADDR(XSD_IDASDSA));
       29     1445
       30     1446        %XSD_TEXTH(NAME=XSD_DIRECTORYACCESSAC,TEXT=2-5-3-1,STCLASS="STATIC SYMDEF");
       31     1486        %XSD_TEXTH(NAME=XSD_DIRECTORYSYSTEMAC,TEXT=2-5-3-2,STCLASS="STATIC SYMDEF");
       32     1526
       33     1527        /* joint-iso-ccitt association-control(2) abstract-syntax(1) apdus(0)
       34     1528             version(1) */
       35     1529        %XSD_TEXTH(NAME=XSD_IDASDSA,TEXT=2-2-1-0-1-2,STCLASS="STATIC SYMDEF");
       36     1569        %XSD_TEXTH(NAME=XSD_IDASDUA,TEXT=2-2-1-0-1-1,STCLASS="STATIC SYMDEF");
       37     1609        %XSD_TEXTH(NAME=XSD_IDASACSE,TEXT=2-2-1-0-1-3,STCLASS="STATIC SYMDEF");
PL6.E3A0      #001=XSD$DSDATA File=XSD_DATA_D.:XSA1TSI                           WED 10/01/97 11:57 Page:2
       38     1649
       39     1650
       40     1651    1   DCL XSD_DS_OPENDIB SBIN STATIC SYMDEF INIT(-1); /* dib open bit */
       41     1652    1   DCL XSD_CONTEXTXS SBIN HALF HALIGNED STATIC SYMDEF INIT(-1);
              1652            /* context block index */
       42     1653    1   DCL XSD_CONTEXTX REDEF XSD_CONTEXTXS UBIN HALF HALIGNED;
       43     1654    1   END XSD$DSDATA;

PL6.E3A0      #001=XSD$DSDATA File=XSD_DATA_D.:XSA1TSI                           WED 10/01/97 11:57 Page:3
--  Include file information  --

   XSC_ACSE_M.:XSA1TOU  is referenced.
   XSD_MACRO_M.:XSA1TOU  is referenced.
      No diagnostics issued in procedure XSD$DSDATA.

   No code generated for procedure XSD$DSDATA .
   Procedure XSD$DSDATA is declared NOAUTO and requires 28 words of local(STATIC) storage.

    No errors detected in file XSD_DATA_D.:XSA1TSI    .

PL6.E3A0      #001=XSD$DSDATA File=XSD_DATA_D.:XSA1TSI                           WED 10/01/97 11:57 Page:4

 Object Unit name= XSD$DSDATA                                 File name= XSD_DATA_D.:XSA1TOU
 UTS= OCT 01 '97 11:57:12.72 WED                              Compiler= PL-6/E31         Sev=      00
 SharedLib= :SHARED_SYSTEM                                    Alt SharedLib=


    ****  Control sections  ****

 Sect   Type Bound  Init  Size OctSiz  Section name(segment info)
    0   Data  even  none    28     34  XSD$DSDATA
    1   Proc  even  none     0      0  XSD$DSDATA

    ****  Entry defs  ****

                              Check   Calling
                             calling  sequence
  Sect OctLoc Primary Altret sequence   type   Parms  Name
     1      0   yes            yes     ~proc       0  XSD$DSDATA

  ****  Data defs  ****

 Sect OctLoc  Name                           Sect OctLoc  Name
    0      1  XSD_PCDL_DUA                       0      4  XSD_PCDL_DSA
    0      7  XSD_DIRECTORYACCESSAC              0     12  XSD_DIRECTORYSYSTEMAC
    0     15  XSD_IDASDSA                        0     21  XSD_IDASDUA
    0     25  XSD_IDASACSE                       0     31  XSD_DS_OPENDIB
    0     32  XSD_CONTEXTXS

  ****  Segment refs  ****

  Flags:  r = read only, s = secondary
Flgs Name                             Flgs Name                             Flgs Name
     ISSID
PL6.E3A0      #001=XSD$DSDATA File=XSD_DATA_D.:XSA1TSI                           WED 10/01/97 11:57 Page:5


(unnamed)
 Sect OctLoc
   0     000   ****** ******   000000 000002   000025 006000   000021 006000    ................
   0     004   000000 000002   000025 006000   000015 006000   000007 062055    ..............2-
   0     010   065055 063055   061*** ******   000007 062055   065055 063055    5-3-1.....2-5-3-
   0     014   062*** ******                                                    2...

XSD_IDASDSA
 Sect OctLoc
   0     015   000013 062055   062055 061055   060055 061055   062*** ******    ..2-2-1-0-1-2...

XSD_IDASDUA
 Sect OctLoc
   0     021   000013 062055   062055 061055   060055 061055   061*** ******    ..2-2-1-0-1-1...

XSD_IDASACSE
 Sect OctLoc
   0     025   000013 062055   062055 061055   060055 061055   063*** ******    ..2-2-1-0-1-3...

(unnamed)
 Sect OctLoc
   0     031   777777 777777   777777 ******   ****** ******                    ............
        1        1        /*M* XSD_DATA_D external data declarations for directory library */
        2        2        /*T***********************************************************/
        3        3        /*T*                                                         */
        4        4        /*T* Copyright (c) Bull HN Information Systems Inc., 1997    */
        5        5        /*T*                                                         */
        6        6        /*T***********************************************************/
        7        7        /*X*DMR,PLM=5,IND=3,CTI=2,SDI=5,MCL=10,CSI=1,DTI=2,DCI=3,ECI=0,AND */
        8        8
        9        9        XSD$DSDATA: PROC NOAUTO;
       10       10        /* useful object identifiers from UsefulDefinitions. in the form
       11       11           joint-iso-ccitt - ds - x.  where x is the value of one of module,
       12       12           service element etc.
       13       13           joint_iso_ccitt = 2 from iso 8824. ds = 5 from dis 9594-2 */
       14       14
PL6.E3A0      #001=XSD$DSDATA File=XSD_DATA_D.:XSA1TSI                           WED 10/01/97 11:57 Page:6
       15       15        %INCLUDE XSD_MACRO_M;
       16     1124        %INCLUDE XSC_ACSE_M;
       17     1433
       18     1434        /* presentation context definition list for the DUA */
       19     1435    1   DCL 1 XSD_PCDL_DUA STATIC SYMDEF ALIGNED,
       20     1436    1            2 * UBIN INIT(2),
       21     1437    1            2 * PTR INIT(ADDR(XSD_IDASACSE)),
       22     1438    1            2 * PTR INIT(ADDR(XSD_IDASDUA));
       23     1439
       24     1440        /* presentation context definition list for the DSA */
       25     1441    1   DCL 1 XSD_PCDL_DSA STATIC SYMDEF ALIGNED,
       26     1442    1            2 * UBIN INIT(2),
       27     1443    1            2 * PTR INIT(ADDR(XSD_IDASACSE)),
       28     1444    1            2 * PTR INIT(ADDR(XSD_IDASDSA));
       29     1445
       30     1446        %XSD_TEXTH(NAME=XSD_DIRECTORYACCESSAC,TEXT=2-5-3-1,STCLASS="STATIC SYMDEF");
       31     1486        %XSD_TEXTH(NAME=XSD_DIRECTORYSYSTEMAC,TEXT=2-5-3-2,STCLASS="STATIC SYMDEF");
       32     1526
       33     1527        /* joint-iso-ccitt association-control(2) abstract-syntax(1) apdus(0)
       34     1528             version(1) */
       35     1529        %XSD_TEXTH(NAME=XSD_IDASDSA,TEXT=2-2-1-0-1-2,STCLASS="STATIC SYMDEF");
       36     1569        %XSD_TEXTH(NAME=XSD_IDASDUA,TEXT=2-2-1-0-1-1,STCLASS="STATIC SYMDEF");
       37     1609        %XSD_TEXTH(NAME=XSD_IDASACSE,TEXT=2-2-1-0-1-3,STCLASS="STATIC SYMDEF");
       38     1649
       39     1650
       40     1651    1   DCL XSD_DS_OPENDIB SBIN STATIC SYMDEF INIT(-1); /* dib open bit */
       41     1652    1   DCL XSD_CONTEXTXS SBIN HALF HALIGNED STATIC SYMDEF INIT(-1);
              1652            /* context block index */
       42     1653    1   DCL XSD_CONTEXTX REDEF XSD_CONTEXTXS UBIN HALF HALIGNED;
       43     1654    1   END XSD$DSDATA;

PL6.E3A0      #001=XSD$DSDATA File=XSD_DATA_D.:XSA1TSI                           WED 10/01/97 11:57 Page:7
--  Include file information  --

   XSC_ACSE_M.:XSA1TOU  is referenced.
   XSD_MACRO_M.:XSA1TOU  is referenced.
      No diagnostics issued in procedure XSD$DSDATA.
PL6.E3A0      #001=XSD$DSDATA File=XSD_DATA_D.:XSA1TSI                           WED 10/01/97 11:57 Page:8

 **** Variables and constants ****

  ****  Section 000  Data  XSD$DSDATA

  ****  Scalars and arrays  ****
OctLoc.c.b A Datatyp(siz) R M Lvl/name                 OctLoc.c.b A Datatyp(siz) R M Lvl/name

    25-0-0/c STRC(117)   r     1 XSD_IDASACSE              15-0-0/c STRC(117)   r     1 XSD_IDASDSA
    21-0-0/c STRC(117)   r     1 XSD_IDASDUA


   No code generated for procedure XSD$DSDATA .
   Procedure XSD$DSDATA is declared NOAUTO and requires 28 words of local(STATIC) storage.

    No errors detected in file XSD_DATA_D.:XSA1TSI    .
PL6.E3A0      #001=XSD$DSDATA File=XSD_DATA_D.:XSA1TSI                           WED 10/01/97 11:57 Page:9
          *** CROSS REFERENCE LISTING ***
**     DENOTES     IDENTIFIER DEFINITION
<<                 IDENTIFIER'S VALUE SET
>>                 IDENTIFIER'S VALUE USED
<>                 IDENTIFIER SET AND/OR USED
--                 IDENTIFIER REFERENCED
PL6.E3A0      #001=XSD$DSDATA File=XSD_DATA_D.:XSA1TSI                           WED 10/01/97 11:57 Page:10
          MINI XREF LISTING

XSD_CONTEXTXS
      1652**DCL      1653--REDEF
XSD_IDASACSE
      1625**DCL      1437--DCLINIT  1443--DCLINIT
XSD_IDASDSA
      1545**DCL      1444--DCLINIT
XSD_IDASDUA
      1585**DCL      1438--DCLINIT
PL6.E3A0      #001=XSD$DSDATA File=XSD_DATA_D.:XSA1TSI                           WED 10/01/97 11:57 Page:11
              *** CROSS REFERENCE LISTING ***
    **     DENOTES     IDENTIFIER DEFINITION
    <<                 IDENTIFIER'S VALUE SET
    >>                 IDENTIFIER'S VALUE USED
    <>                 IDENTIFIER SET AND/OR USED
    --                 IDENTIFIER REFERENCED
PL6.E3A0      #001=XSD$DSDATA File=XSD_DATA_D.:XSA1TSI                           WED 10/01/97 11:57 Page:12
              MINI UREF LISTING

XSD$DSDATA       9**PROC
XSD_CONTEXTX    1653**DCL
XSD_DIRECTORYACCESSAC    1462**DCL
XSD_DIRECTORYSYSTEMAC    1502**DCL
XSD_DS_OPENDIB    1651**DCL
XSD_PCDL_DSA    1441**DCL
XSD_PCDL_DUA    1435**DCL
