VERSION A01

PL6.E3A0      #001=XSD$TABLE File=XSD_TABLE_D.:XSA1TSI                           WED 10/01/97 11:57 Page:1
        1        1        /*M* XSR_DATA_D - data file for directory (dua/dsa)*/
        2        2        /*T***********************************************************/
        3        3        /*T*                                                         */
        4        4        /*T* Copyright (c) Bull HN Information Systems Inc., 1997    */
        5        5        /*T*                                                         */
        6        6        /*T***********************************************************/
        7        7        /*X*DMR,PLM=5,IND=3,CTI=2,SDI=5,MCL=10,CSI=1,DTI=2,DCI=3,ECI=0,AND */
        8        8
        9        9        /*
       10       10             XSD_ATTRIBUTE_TABLE - array of xsd_attribute macros.  Defines
       11       11             the set of legal attribute types in terms of size, syntax and
       12       12             semantics.  Table is indexed by the last digit of the attribute
       13       13             type as defined in iso 9594-6.  The attribute type object identifiers
       14       14             are {joint-iso-ccitt ds(5) attributeType attribute#} ie
       15       15             commonname = {2 5 4 3}.  The attribute syntax is similar except using
       16       16             attributeSyntax instead of attributeType.
       17       17              */
       18       18
       19       19        XSD$TABLE: PROC NOAUTO;
       20       20        %INCLUDE XSD_MACRO_M;                   /* attribute macro */
       21     1129        %INCLUDE XSD_SUBS_C;
       22     1464        %INCLUDE CP_6;
       23     7023        %INCLUDE CP_6_SUBS;
       24     7563
       25     7564    1   DCL XSD$ATTR_TBL$(0:%(%XSD_AT_MAXATTR-1)) PTR STATIC SYMDEF INIT(
       26     7565    1                                                     ADDR(OBJECTCLASS),
       27     7566    1                                                     ADDR(ALIASEDOBJECT),
       28     7567    1                                                     ADDR(KNOWINFO),
       29     7568    1                                                     ADDR(COMMONNAME),
       30     7569    1                                                     ADDR(SURNAME),
       31     7570    1                                                     ADDR(SERIAL#),
       32     7571    1                                                     ADDR(COUNTYNAME ),
       33     7572    1                                                     ADDR(LOCALITYNAME),
       34     7573    1                                                     ADDR(STATENAME),
       35     7574    1                                                     ADDR(STREETADDRESS),
       36     7575    1                                                     ADDR(ORGNAME),
       37     7576    1                                                     ADDR(ORUNITNAME),
PL6.E3A0      #001=XSD$TABLE File=XSD_TABLE_D.:XSA1TSI                           WED 10/01/97 11:57 Page:2
       38     7577    1                                                     ADDR(TITLE),
       39     7578    1                                                     ADDR(DESC),
       40     7579    1                                                     ADDR(SEARCHGUIDE),
       41     7580    1                                                     ADDR(BUSINESSCAT),
       42     7581    1                                                     ADDR(POADDR),
       43     7582    1                                                     ADDR(POCODE),
       44     7583    1                                                     ADDR(POBOX),
       45     7584    1                                                     ADDR(PDON),
       46     7585    1                                                     ADDR(TELEPHONE#),
       47     7586    1                                                     ADDR(TELEX#),
       48     7587    1                                                     ADDR(TELETEXTERMID),
       49     7588    1                                                     ADDR(FAXTELEPHONE#),
       50     7589    1                                                     ADDR(X121ADDR),
       51     7590    1                                                     ADDR(INTISDN#),
       52     7591    1                                                     ADDR(REGISTEREDADDR),
       53     7592    1                                                     ADDR(DESTIND),
       54     7593    1                                                     ADDR(PREFDELIVERY),
       55     7594    1                                                     ADDR(PRESADDR),
       56     7595    1                                                     ADDR(SUPPORTEDAPCON),
       57     7596    1                                                     ADDR(MEMBER),
       58     7597    1                                                     ADDR(OWNER),
       59     7598    1                                                     ADDR(ROLEOCCUPANT),
       60     7599    1                                                     ADDR(SEEALSO),
       61     7600    1                                                     ADDR(USERPASS),
       62     7601    1                                                     ADDR(USERCERT),
       63     7602    1                                                     ADDR(CACERT),
       64     7603    1                                                     ADDR(AUTHORITYREVLIST),
       65     7604    1                                                     ADDR(CERTIFICATEREVLIST),
       66     7605    1                                                     ADDR(CROSSCERT));
       67     7606
       68     7607
       69     7608        %XSD_ATTRIBUTE(NAME=OBJECTCLASS,ATYPE=OC,ASYNTAX=0,STCLASS="CONSTANT SYMDEF");
       70     7843        /* aliased object name */
       71     7844        %XSD_ATTRIBUTE(NAME=ALIASEDOBJECT,ATYPE=AON,ASYNTAX=0,STCLASS="CONSTANT SYMDEF");
       72     8079        /* knowledge information */
       73     8080        %XSD_ATTRIBUTE(NAME=KNOWINFO,ATYPE=KI,ASYNTAX=CISS,STCLASS="CONSTANT SYMDEF");
       74     8315        /* common name */
PL6.E3A0      #001=XSD$TABLE File=XSD_TABLE_D.:XSA1TSI                           WED 10/01/97 11:57 Page:3
       75     8316        %XSD_ATTRIBUTE(NAME=COMMONNAME ,ATYPE= CN,ASYNTAX=CISS,LOWER=1,UPPER=
              8316            %XSD_UB_COMMONNAME,
       76     8317                       STCLASS="CONSTANT SYMDEF");
       77     8552        /* surname */
       78     8553        %XSD_ATTRIBUTE(NAME=SURNAME ,ATYPE= SN,ASYNTAX=CISS,LOWER=1,UPPER=%XSD_UB_SURNAME,
       79     8554                       STCLASS="CONSTANT SYMDEF");
       80     8789        /* serial number */
       81     8790        %XSD_ATTRIBUTE(NAME=SERIAL# ,ATYPE= SERIAL,ASYNTAX=PSS,LOWER=1,UPPER=%XSD_UB_SERIAL#
              8790            ,
       82     8791                       STCLASS="CONSTANT SYMDEF");
       83     9026        /* country name */
       84     9027        %XSD_ATTRIBUTE(NAME=COUNTYNAME ,ATYPE= COUNTRY,PRINTABLESTRING=YES,
       85     9028                       LOWER=2,UPPER=2,EQUAL=YES,VALUED=SINGLE,
       86     9029                       STCLASS="CONSTANT SYMDEF");
       87     9264        /* locality name */
       88     9265        %XSD_ATTRIBUTE(NAME=LOCALITYNAME ,ATYPE= LN,ASYNTAX=CISS,LOWER=1,UPPER=
              9265            %XSD_UB_LOCALITYNAME,
       89     9266                       STCLASS="CONSTANT SYMDEF");
       90     9501        /* State or province name */
       91     9502        %XSD_ATTRIBUTE(NAME= STATENAME,ATYPE= STATE,ASYNTAX=CISS,LOWER=1,UPPER=
              9502            %XSD_UB_STATENAME,
       92     9503                       STCLASS="CONSTANT SYMDEF");
       93     9738        /* street address */
       94     9739        %XSD_ATTRIBUTE(NAME= STREETADDRESS,ATYPE= SA,ASYNTAX=CISS,LOWER=1,UPPER=
              9739            %XSD_UB_STREETADDR,
       95     9740                       STCLASS="CONSTANT SYMDEF");
       96     9975        /* organization Name */
       97     9976        %XSD_ATTRIBUTE(NAME= ORGNAME,ATYPE= ON,ASYNTAX=CISS,LOWER=1,UPPER=%XSD_UB_ORGNAME,
       98     9977                       STCLASS="CONSTANT SYMDEF");
       99    10212        /* organization Unit Name */
      100    10213        %XSD_ATTRIBUTE(NAME= ORUNITNAME,ATYPE= OUN,ASYNTAX=CISS,LOWER=1,UPPER=
             10213            %XSD_UB_ORGUNITNAME,
      101    10214                       STCLASS="CONSTANT SYMDEF");
      102    10449        /* title */
      103    10450        %XSD_ATTRIBUTE(NAME= TITLE,ATYPE= TITLE,ASYNTAX=CISS,LOWER=1,UPPER=%XSD_UB_TITLE,
      104    10451                       STCLASS="CONSTANT SYMDEF");
      105    10686        /* description */
PL6.E3A0      #001=XSD$TABLE File=XSD_TABLE_D.:XSA1TSI                           WED 10/01/97 11:57 Page:4
      106    10687        %XSD_ATTRIBUTE(NAME= DESC,ATYPE= DESC,ASYNTAX=CISS,LOWER=1,UPPER=%XSD_UB_DESC,
      107    10688                       STCLASS="CONSTANT SYMDEF");
      108    10923        /* search Guide */
      109    10924        %XSD_ATTRIBUTE(NAME= SEARCHGUIDE,ATYPE= SG ,STCLASS="CONSTANT SYMDEF");
      110    11159        /* buisness Category */
      111    11160        %XSD_ATTRIBUTE(NAME= BUSINESSCAT,ATYPE= BC,ASYNTAX=CISS,LOWER=1,UPPER=
             11160            %XSD_UB_BUSINESSCAT,
      112    11161                       STCLASS="CONSTANT SYMDEF");
      113    11396        /* postal address */
      114    11397        %XSD_ATTRIBUTE(NAME= POADDR,ATYPE= PA ,EQUAL=YES,
      115    11398                       STCLASS="CONSTANT SYMDEF");
      116    11633        /* postal code */
      117    11634        %XSD_ATTRIBUTE(NAME= POCODE,ATYPE= PC,ASYNTAX=CISS,LOWER=1,UPPER=%XSD_UB_POCODE,
      118    11635                       STCLASS="CONSTANT SYMDEF");
      119    11870        /* postoffice Box*/
      120    11871        %XSD_ATTRIBUTE(NAME= POBOX,ATYPE= POBOX,ASYNTAX=CISS,LOWER=1,UPPER=%XSD_UB_POBOX,
      121    11872                       STCLASS="CONSTANT SYMDEF");
      122    12107        /* physical delivery office name */
      123    12108        %XSD_ATTRIBUTE(NAME=PDON,ATYPE=PDON,ASYNTAX=CISS,LOWER=1,UPPER=%XSD_UB_OFFICENAME,
      124    12109                      STCLASS="CONSTANT SYMDEF");
      125    12344        /* telephone# */
      126    12345        %XSD_ATTRIBUTE(NAME= TELEPHONE#,ATYPE= TELE,ASYNTAX = TNS,
      127    12346                       STCLASS="CONSTANT SYMDEF");
      128    12581        /* telex number */
      129    12582        %XSD_ATTRIBUTE(NAME= TELEX#,ATYPE= TELEX   ,
      130    12583                       STCLASS="CONSTANT SYMDEF");
      131    12818        /* teletex terminal identifier */
      132    12819        %XSD_ATTRIBUTE(NAME= TELETEXTERMID,ATYPE= TTT  ,
      133    12820                       STCLASS="CONSTANT SYMDEF");
      134    13055        /* fax telephone # */
      135    13056        %XSD_ATTRIBUTE(NAME= FAXTELEPHONE#,ATYPE= FTP  ,
      136    13057                       STCLASS="CONSTANT SYMDEF");
      137    13292
      138    13293        %XSD_ATTRIBUTE(NAME= X121ADDR,ATYPE= X121,NUMERICSTRING=YES,LOWER=1,UPPER=
             13293            %XSD_UB_X121ADDR,
      139    13294                       EQUAL=YES,SUBSTRING=YES,STCLASS="CONSTANT SYMDEF");
      140    13529
PL6.E3A0      #001=XSD$TABLE File=XSD_TABLE_D.:XSA1TSI                           WED 10/01/97 11:57 Page:5
      141    13530        %XSD_ATTRIBUTE(NAME= INTISDN#,ATYPE= INTISDN ,NUMERICSTRING=YES,LOWER=1,UPPER=
             13530            %XSD_UB_ISDNADDR,
      142    13531                    STCLASS="CONSTANT SYMDEF");
      143    13766
      144    13767        %XSD_ATTRIBUTE(NAME= REGISTEREDADDR,ATYPE= REGADDR ,NONPRIM=YES,STCLASS=
             13767            "CONSTANT SYMDEF");
      145    14002
      146    14003        /* destination indicator -- alphabetic characters only */
      147    14004        %XSD_ATTRIBUTE(NAME= DESTIND,ATYPE= DESTIND ,PRINTABLESTRING=YES,LOWER=1,UPPER=
             14004            %XSD_UB_DESTINDIC,
      148    14005                       EQUAL=YES,SUBSTRING=YES,STCLASS="CONSTANT SYMDEF");
      149    14240
      150    14241        %XSD_ATTRIBUTE(NAME= PREFDELIVERY,ATYPE= PDM  ,VALUED=SINGLE,STCLASS=
             14241            "CONSTANT SYMDEF");
      151    14476
      152    14477        %XSD_ATTRIBUTE(NAME= PRESADDR,ATYPE= PRESADDR,EQUAL=YES,STCLASS="CONSTANT SYMDEF");
      153    14712        /* supported application context */
      154    14713        %XSD_ATTRIBUTE(NAME= SUPPORTEDAPCON,ATYPE= SAC ,ASYNTAX=OIS,STCLASS=
             14713            "CONSTANT SYMDEF");
      155    14948
      156    14949        %XSD_ATTRIBUTE(NAME= MEMBER,ATYPE= MEMBER ,ASYNTAX=DNS,STCLASS="CONSTANT SYMDEF");
      157    15184
      158    15185        %XSD_ATTRIBUTE(NAME= OWNER,ATYPE= OWNER  ,ASYNTAX=DNS,STCLASS="CONSTANT SYMDEF");
      159    15420
      160    15421        %XSD_ATTRIBUTE(NAME= ROLEOCCUPANT,ATYPE= RO ,ASYNTAX=DNS,STCLASS="CONSTANT SYMDEF");
      161    15656
      162    15657        %XSD_ATTRIBUTE(NAME= SEEALSO,ATYPE= SEEALSO ,ASYNTAX=DNS,STCLASS="CONSTANT SYMDEF");
      163    15892
      164    15893        %XSD_ATTRIBUTE(NAME= USERPASS,ATYPE= UP ,ASYNTAX=0,STCLASS="CONSTANT SYMDEF");
      165    16128
      166    16129        %XSD_ATTRIBUTE(NAME= USERCERT,ATYPE= UC,ASYNTAX=0, STCLASS="CONSTANT SYMDEF");
      167    16364
      168    16365        %XSD_ATTRIBUTE(NAME= CACERT,ATYPE= CAC,ASYNTAX=0,STCLASS="CONSTANT SYMDEF");
      169    16600
      170    16601        %XSD_ATTRIBUTE(NAME= AUTHORITYREVLIST,ATYPE= ARL ,ASYNTAX=0,STCLASS=
             16601            "CONSTANT SYMDEF");
      171    16836
PL6.E3A0      #001=XSD$TABLE File=XSD_TABLE_D.:XSA1TSI                           WED 10/01/97 11:57 Page:6
      172    16837        %XSD_ATTRIBUTE(NAME= CERTIFICATEREVLIST,ATYPE= CRL ,ASYNTAX=0,STCLASS=
             16837            "CONSTANT SYMDEF");
      173    17072
      174    17073        %XSD_ATTRIBUTE(NAME= CROSSCERT,ATYPE= CC  ,ASYNTAX=0,STCLASS="CONSTANT SYMDEF");
      175    17308
      176    17309
      177    17310
      178    17311        /*
      179    17312                XSD$OBJECT_TBL$ - pointer to the object class table.
      180    17313                   the object class table defines the attributes which are
      181    17314                   associated with that object, of course.
      182    17315        */
      183    17316    1   DCL XSD$OBJECT_TBL$(0:%XSD_OC_MAX) PTR STATIC SYMDEF INIT(
      184    17317    1                                      ADDR(TOP        ),
      185    17318    1                                      ADDR(ALIAS      ),
      186    17319    1                                      ADDR(COUNTRY    ),
      187    17320    1                                      ADDR(LOCALITY   ),
      188    17321    1                                      ADDR(ORG        ),
      189    17322    1                                      ADDR(ORGUNIT    ),
      190    17323    1                                      ADDR(PERSON     ),
      191    17324    1                                      ADDR(ORGPERSON  ),
      192    17325    1                                      ADDR(ORGROLE    ),
      193    17326    1                                      ADDR(GROUPOFNAMES),
      194    17327    1                                      ADDR(RESPERSON  ),
      195    17328    1                                      ADDR(APPLCPROC  ),
      196    17329    1                                      ADDR(APPLCENTITY),
      197    17330    1                                      ADDR(DSA        ),
      198    17331    1                                      ADDR(DEVICE     ),
      199    17332    1                                      ADDR(STRONGAUTH ),
      200    17333    1                                      ADDR(CERTAUTH   ));
      201    17334
      202    17335        %XSD_OBJECT(NAME=TOP        ,STCLASS="STATIC SYMDEF",OBJECTCLASS=TOP        );
      203    17532        %XSD_OBJECT(NAME=ALIAS      ,STCLASS="STATIC SYMDEF",OBJECTCLASS=ALIAS      );
      204    17729        %XSD_OBJECT(NAME=COUNTRY    ,STCLASS="STATIC SYMDEF",OBJECTCLASS=COUNTRY    );
      205    17926        %XSD_OBJECT(NAME=LOCALITY   ,STCLASS="STATIC SYMDEF",OBJECTCLASS=LOCALITY   );
      206    18123        %XSD_OBJECT(NAME=ORG        ,STCLASS="STATIC SYMDEF",OBJECTCLASS=ORG        );
      207    18320        %XSD_OBJECT(NAME=ORGUNIT    ,STCLASS="STATIC SYMDEF",OBJECTCLASS=ORGUNIT    );
PL6.E3A0      #001=XSD$TABLE File=XSD_TABLE_D.:XSA1TSI                           WED 10/01/97 11:57 Page:7
      208    18517        %XSD_OBJECT(NAME=PERSON     ,STCLASS="STATIC SYMDEF",OBJECTCLASS=PERSON     );
      209    18714        %XSD_OBJECT(NAME=ORGPERSON  ,STCLASS="STATIC SYMDEF",OBJECTCLASS=ORGPERSON  );
      210    18911        %XSD_OBJECT(NAME=ORGROLE    ,STCLASS="STATIC SYMDEF",OBJECTCLASS=ORGROLE    );
      211    19108        %XSD_OBJECT(NAME=GROUPOFNAMES,STCLASS="STATIC SYMDEF",OBJECTCLASS=GROUPOFNAMES);
      212    19305        %XSD_OBJECT(NAME=RESPERSON  ,STCLASS="STATIC SYMDEF",OBJECTCLASS=RESPERSON  );
      213    19502        %XSD_OBJECT(NAME=APPLCPROC  ,STCLASS="STATIC SYMDEF",OBJECTCLASS=APPLCPROC  );
      214    19699        %XSD_OBJECT(NAME=APPLCENTITY,STCLASS="STATIC SYMDEF",OBJECTCLASS=APPLCENTITY);
      215    19896        %XSD_OBJECT(NAME=DSA        ,STCLASS="STATIC SYMDEF",OBJECTCLASS=DSA        );
      216    20093        %XSD_OBJECT(NAME=DEVICE     ,STCLASS="STATIC SYMDEF",OBJECTCLASS=DEVICE     );
      217    20290        %XSD_OBJECT(NAME=STRONGAUTH ,STCLASS="STATIC SYMDEF",OBJECTCLASS=STRONGAUTH );
      218    20487        %XSD_OBJECT(NAME=CERTAUTH   ,STCLASS="STATIC SYMDEF",OBJECTCLASS=CERTAUTH   );
      219    20684        /*
      220    20685             vlp_irrec
      221    20686                XSD_IRREC.FIELDN set at run time
      222    20687        */
      223    20688        %VLP_IRREC(FPTN=XSD_IRREC,N=%XSD_AT_MAXATTR,STCLASS="STATIC SYMDEF");
      224    20702        /*
      225    20703                vlp_irkey
      226    20704                   set all the entries to unique=no.  The unique key will be
      227    20705                   defined in xsd$irel.
      228    20706        */
      229    20707        %VLP_IRKEYS(FPTN=XSD_IRKEYS,UNIQUE=NO,N=%XSD_MAXKEYS, NKEYS=%XSD_MAXKEYS,STCLASS=
             20707            "STATIC SYMDEF");
      230    20722        /*
      231    20723             vlp_recfield definition
      232    20724        */
      233    20725        %VLP_RECFIELD(FPTN=XSD_RECFIELD,N=%XSD_MAXRECS, /* max number of physical fields */
      234    20726                         FIRST=YES,STCLASS="STATIC SYMDEF",LAST=NO);
      235    20770                                                /* object class */
      236    20771        %VLP_RECFIELD(N=1,DTYPE=UBIN,LEN=%XSD_UB_OBJECTCLASS,FIRST=NO,LAST=NO);
      237    20815                                                /* aliased object name */
      238    20816        %VLP_RECFIELD(N=1,DTYPE=UBIN,LEN=%XSD_UB_ALIASOBJNAME,FIRST=NO,LAST=NO);
      239    20860                                                /* knowledge info */
      240    20861        %VLP_RECFIELD(N=1,DTYPE=UBIN,LEN=%XSD_UB_KNOWINFO,FIRST=NO,LAST=NO);
      241    20905                                                /*common name */
      242    20906        %VLP_RECFIELD(N=1,DTYPE=CHAR,LEN=%XSD_UB_COMMONNAME,FIRST=NO,LAST=NO);
      243    20950                                                /* surname */
PL6.E3A0      #001=XSD$TABLE File=XSD_TABLE_D.:XSA1TSI                           WED 10/01/97 11:57 Page:8
      244    20951        %VLP_RECFIELD(N=1,DTYPE=CHAR,LEN=%XSD_UB_SURNAME,FIRST=NO,LAST=NO);
      245    20995                                                /* serial number*/
      246    20996        %VLP_RECFIELD(N=1,DTYPE=CHAR,LEN=%XSD_UB_SERIAL#,FIRST=NO,LAST=NO);
      247    21040                                                /* country */
      248    21041        %VLP_RECFIELD(N=1,DTYPE=CHAR,LEN=%XSD_UB_COUNTRYNAME,FIRST=NO,LAST=NO);
      249    21085                                                /* locality */
      250    21086        %VLP_RECFIELD(N=1,DTYPE=CHAR,LEN=%XSD_UB_LOCALITYNAME,FIRST=NO,LAST=NO);
      251    21130                                                /* statename */
      252    21131        %VLP_RECFIELD(N=1,DTYPE=CHAR,LEN=%XSD_UB_STATENAME,FIRST=NO,LAST=NO);
      253    21175                                                /* street address */
      254    21176        %VLP_RECFIELD(N=1,DTYPE=CHAR,LEN=%XSD_UB_STREETADDR,FIRST=NO,LAST=NO);
      255    21220        %VLP_RECFIELD(N=1,DTYPE=CHAR,LEN=%XSD_UB_ORGNAME,FIRST=NO,LAST=NO);
      256    21264        %VLP_RECFIELD(N=1,DTYPE=CHAR,LEN=%XSD_UB_ORGUNITNAME,FIRST=NO,LAST=NO);
      257    21308        %VLP_RECFIELD(N=1,DTYPE=CHAR,LEN=%XSD_UB_TITLE,FIRST=NO,LAST=NO);
      258    21352        %VLP_RECFIELD(N=1,DTYPE=CHAR,LEN=%XSD_UB_BUSINESSCAT,FIRST=NO,LAST=NO);
      259    21396                                      /* cp6 defined object name, used for unique key */
      260    21397        %VLP_RECFIELD(N=1,DTYPE=CHAR,LEN=%XSD_DIBKEY_LEN,FIRST=NO,LAST=NO);
      261    21441                                                /* postaladdress */
      262    21442        %VLP_RECFIELD(N=1,DTYPE=LIST,LEN=%XSD_UB_POLINE,FIRST=NO,LAST=NO);
      263    21486           %VLP_RECFIELD(N=1,DTYPE=CHAR,LEN=%XSD_UB_POSTRING,FIRST=NO,LAST=NO);
      264    21530                 /* postal code */
      265    21531        %VLP_RECFIELD(N=1,DTYPE=TEXTC,LEN=%XSD_UB_POCODE,FIRST=NO,LAST=NO);
      266    21575                /* post office box */
      267    21576        %VLP_RECFIELD(N=1,DTYPE=TEXTC,LEN=%XSD_UB_POBOX,FIRST=NO,LAST=NO);
      268    21620                /* telephone# */
      269    21621        %VLP_RECFIELD(N=1,DTYPE=TEXTC,LEN=%XSD_UB_TELEPHONE#,FIRST=NO,LAST=NO);
      270    21665                  /*telex number - comprised of telex# ,countrycode and answerback*/
      271    21666        %VLP_RECFIELD(N=1,DTYPE=LIST,LEN=3,FIRST=NO,LAST=NO);
      272    21710          %VLP_RECFIELD(N=1,DTYPE=CHAR,LEN=%XSD_UB_TELEX#,FIRST=NO,LAST=NO);
      273    21754                /* fax telephone # */
      274    21755        %VLP_RECFIELD(N=1,DTYPE=TEXTC,LEN=%XSD_UB_TELEPHONE#,FIRST=NO,LAST=NO);
      275    21799                /* x.121 address */
      276    21800        %VLP_RECFIELD(N=1,DTYPE=TEXTC,LEN=%XSD_UB_X121ADDR,FIRST=NO,LAST=NO);
      277    21844                /* international isdn address */
      278    21845        %VLP_RECFIELD(N=1,DTYPE=TEXTC,LEN=%XSD_UB_ISDNADDR,FIRST=NO,LAST=NO);
      279    21889                /* registered address same as postal */
      280    21890        %VLP_RECFIELD(N=1,DTYPE=LIST,LEN=%XSD_UB_POLINE,FIRST=NO,LAST=NO);
PL6.E3A0      #001=XSD$TABLE File=XSD_TABLE_D.:XSA1TSI                           WED 10/01/97 11:57 Page:9
      281    21934          %VLP_RECFIELD(N=1,DTYPE=CHAR,LEN=%XSD_UB_POSTRING,FIRST=NO,LAST=NO);
      282    21978             /* preferred delivery method */
      283    21979        %VLP_RECFIELD(N=1,DTYPE=LIST,LEN=10,FIRST=NO,LAST=NO);
      284    22023          %VLP_RECFIELD(N=1,DTYPE=UBIN,LEN=9,FIRST=NO,LAST=NO);
      285    22067        %VLP_RECFIELD(N=1,DTYPE=CHAR,LEN=%XSD_UB_USERPASS,FIRST=NO,LAST=NO);
      286    22111        %VLP_RECFIELD(N=1,DTYPE=CHAR,LEN=%XSD_UB_USERCERT,FIRST=NO,LAST=NO);
      287    22155        %VLP_RECFIELD(N=1,DTYPE=CHAR,LEN=%XSD_UB_CACERT,FIRST=NO,LAST=NO);
      288    22199        %VLP_RECFIELD(N=1,DTYPE=CHAR,LEN=%XSD_UB_ARL,FIRST=NO,LAST=NO);
      289    22243        %VLP_RECFIELD(N=1,DTYPE=CHAR,LEN=%XSD_UB_CRL,FIRST=NO,LAST=NO);
      290    22287        %VLP_RECFIELD(N=1,DTYPE=CHAR,LEN=%XSD_UB_CROSSCERT,FIRST=NO,LAST=NO);
      291    22331                                                /*  physical delivery office name */
      292    22332        %VLP_RECFIELD(N=1,DTYPE=TEXTC,LEN=%XSD_UB_OFFICENAME,FIRST=NO,LAST=NO);
      293    22376                /* destination indication */
      294    22377        %VLP_RECFIELD(N=1,DTYPE=TEXTC,LEN=%XSD_UB_DESTINDIC,FIRST=NO,LAST=NO);
      295    22421                /* teltex termid */
      296    22422        %VLP_RECFIELD(N=1,DTYPE=TEXTH,LEN=%XSD_UB_TELTEXTERMID,FIRST=NO,LAST=NO);
      297    22466                /* description */
      298    22467        %VLP_RECFIELD(N=1,DTYPE=TEXTH,LEN=%XSD_UB_DESC,FIRST=NO,LAST=NO);
      299    22511                /* search guide */
      300    22512        %VLP_RECFIELD(N=1,DTYPE=TEXTH,LEN=%XSD_UB_SEARCHGUIDE,FIRST=NO,LAST=NO);
      301    22556                                                /*  pselector,sselector,tselector,nsap*/
      302    22557        %VLP_RECFIELD(N=1,DTYPE=TEXTC,LEN=%XSD_UB_PRESADDR,FIRST=NO,LAST=NO);
      303    22601        %VLP_RECFIELD(N=1,DTYPE=TEXTC,LEN=%XSD_UB_PRESADDR,FIRST=NO,LAST=NO);
      304    22645        %VLP_RECFIELD(N=1,DTYPE=TEXTC,LEN=%XSD_UB_PRESADDR,FIRST=NO,LAST=NO);
      305    22689        %VLP_RECFIELD(N=1,DTYPE=TEXTC,LEN=%XSD_UB_NSAP,FIRST=NO,LAST=NO);
      306    22733                                                /* supported application context */
      307    22734        %VLP_RECFIELD(N=1,DTYPE=TEXTH,LEN=%XSD_UB_OBJECTID,FIRST=NO,LAST=NO);
      308    22778                       /*    member upto 2 consisting of 2 parts each object id, value*/
      309    22779        %VLP_RECFIELD(N=1,DTYPE=TEXTH,LEN=%XSD_UB_OBJECTID,FIRST=NO,LAST=NO);
      310    22823                /* owner same as member */
      311    22824        %VLP_RECFIELD(N=1,DTYPE=TEXTH,LEN=%XSD_UB_OBJECTID,FIRST=NO,LAST=NO);
      312    22868                /* role occupant, same as member */
      313    22869        %VLP_RECFIELD(N=1,DTYPE=TEXTH,LEN=%XSD_UB_OBJECTID,FIRST=NO,LAST=NO);
      314    22913                /* see also, same as occpant, owner  member */
      315    22914        %VLP_RECFIELD(N=1,DTYPE=TEXTH,LEN=%XSD_UB_OBJECTID,FIRST=NO,LAST=YES);
      316    22958        /* finally */
      317    22959
PL6.E3A0      #001=XSD$TABLE File=XSD_TABLE_D.:XSA1TSI                           WED 10/01/97 11:57 Page:10
      318    22960        /* DIB - key and buffer */
      319    22961        %XSD_DIBKEY(NAME=XSD_DIBKEY,STCLASS="STATIC SYMDEF");
      320    22997        %XSD_DIBBUF(NAME=XSD_DIBBUF,STCLASS="STATIC SYMDEF");
      321    23062
      322    23063        /* Array - maps attributes to XSD_RECFIELD entry, indexed by XSD_AT_? */
      323    23064    1   DCL XSD_ATTRRECX(0:%(%XSD_AT_MAXATTR-1)) UBIN BYTE CALIGNED STATIC SYMDEF
      324    23065    1                                       INIT(%XSD_RECX_OBJECTCLASS,
      325    23066    1                                            %XSD_RECX_ALIASOBJNAME,
      326    23067    1                                            %XSD_RECX_KNOWINFO,
      327    23068    1                                            %XSD_RECX_COMMONNAME,
      328    23069    1                                            %XSD_RECX_SURNAME,
      329    23070    1                                            %XSD_RECX_SERIAL#,
      330    23071    1                                            %XSD_RECX_COUNTRYNAME,
      331    23072    1                                            %XSD_RECX_LOCALITYNAME,
      332    23073    1                                            %XSD_RECX_STATENAME,
      333    23074    1                                            %XSD_RECX_STREETADDR,
      334    23075    1                                            %XSD_RECX_ORGNAME,
      335    23076    1                                            %XSD_RECX_ORGUNITNAME,
      336    23077    1                                            %XSD_RECX_TITLE,
      337    23078    1                                            %XSD_RECX_DESC,
      338    23079    1                                            %XSD_RECX_SEARCHGUIDE,
      339    23080    1                                            %XSD_RECX_BUSINESSCAT,
      340    23081    1                                            %XSD_RECX_POSTALADDR,
      341    23082    1                                            %XSD_RECX_POSTALCODE,
      342    23083    1                                            %XSD_RECX_POBOX,
      343    23084    1                                            %XSD_RECX_OFFICENAME,
      344    23085    1                                            %XSD_RECX_TELEPHONE#,
      345    23086    1                                            %XSD_RECX_TELEX#,
      346    23087    1                                            %XSD_RECX_TELTEXTERMID,
      347    23088    1                                            %XSD_RECX_FAXTELEPHONE#,
      348    23089    1                                            %XSD_RECX_X121ADDR,
      349    23090    1                                            %XSD_RECX_ISDNADDR,
      350    23091    1                                            %XSD_RECX_REGADDR,
      351    23092    1                                            %XSD_RECX_DESTINDIC,
      352    23093    1                                            %XSD_RECX_PDM,
      353    23094    1                                            %XSD_RECX_PSELECTOR,
      354    23095    1                                            %XSD_RECX_SAC,
PL6.E3A0      #001=XSD$TABLE File=XSD_TABLE_D.:XSA1TSI                           WED 10/01/97 11:57 Page:11
      355    23096    1                                            %XSD_RECX_MEMBER,
      356    23097    1                                            %XSD_RECX_OWNER,
      357    23098    1                                            %XSD_RECX_ROLEOCCUPANT,
      358    23099    1                                            %XSD_RECX_SEEALSO,
      359    23100    1                                            %XSD_RECX_USERPASS,
      360    23101    1                                            %XSD_RECX_USERCERT,
      361    23102    1                                            %XSD_RECX_CACERT,
      362    23103    1                                            %XSD_RECX_ARL,
      363    23104    1                                            %XSD_RECX_CRL,
      364    23105    1                                            %XSD_RECX_CROSSCERT);
      365    23106
      366    23107        /* Array - maps XSD_RECFIELD entry indexes into ATTRIBUTES indexed by XSD_RECX_? */
      367    23108    1   DCL XSD_RECXATTR(0:%XSD_RECX_MAXRECX) UBIN BYTE CALIGNED STATIC SYMDEF
      368    23109    1                  INIT(%XSD_AT_OBJECTCLASS,
      369    23110    1                       %XSD_AT_ALIASOBJNAME,
      370    23111    1                       %XSD_AT_KNOWINFO,
      371    23112    1                       %XSD_AT_COMMONNAME,
      372    23113    1                       %XSD_AT_SURNAME,
      373    23114    1                       %XSD_AT_SERIAL#,
      374    23115    1                       %XSD_AT_COUNTRYNAME,
      375    23116    1                       %XSD_AT_LOCALITYNAME,
      376    23117    1                       %XSD_AT_STATENAME,
      377    23118    1                       %XSD_AT_STREETADDR,
      378    23119    1                       %XSD_AT_ORGNAME,
      379    23120    1                       %XSD_AT_ORGUNITNAME,
      380    23121    1                       %XSD_AT_TITLE,
      381    23122    1                       %XSD_AT_BUSINESSCAT,
      382    23123    1                       %XSD_AT_DIBUNIQUE,
      383    23124    1                       %XSD_AT_POSTALADDR,
      384    23125    1                       %XSD_AT_POSTALADDR,
      385    23126    1                       %XSD_AT_POSTALCODE,
      386    23127    1                       %XSD_AT_POBOX,
      387    23128    1                       %XSD_AT_TELEPHONE#,
      388    23129    1                       %XSD_AT_TELEX#,
      389    23130    1                       %XSD_AT_TELEX#,
      390    23131    1                       %XSD_AT_FAXTELEPHONE#,
      391    23132    1                       %XSD_AT_X121ADDR,
PL6.E3A0      #001=XSD$TABLE File=XSD_TABLE_D.:XSA1TSI                           WED 10/01/97 11:57 Page:12
      392    23133    1                       %XSD_AT_INTISDN#,
      393    23134    1                       %XSD_AT_REGADDR,
      394    23135    1                       %XSD_AT_REGADDR,
      395    23136    1                       %XSD_AT_PDM,
      396    23137    1                       %XSD_AT_PDM,
      397    23138    1                       %XSD_AT_USERPASS,
      398    23139    1                       %XSD_AT_USERCERT,
      399    23140    1                       %XSD_AT_CACERT,
      400    23141    1                       %XSD_AT_ARL,
      401    23142    1                       %XSD_AT_CRL,
      402    23143    1                       %XSD_AT_CROSSCERT,
      403    23144    1                       %XSD_AT_PDON,
      404    23145    1                       %XSD_AT_DESTIND,
      405    23146    1                       %XSD_AT_TELTEXTERMID,
      406    23147    1                       %XSD_AT_DESC,
      407    23148    1                       %XSD_AT_SEARCHGUIDE,
      408    23149    1                       %XSD_AT_PRESADDR,
      409    23150    1                       %XSD_AT_PRESADDR,
      410    23151    1                       %XSD_AT_PRESADDR,
      411    23152    1                       %XSD_AT_PRESADDR,
      412    23153    1                       %XSD_AT_SAC,
      413    23154    1                       %XSD_AT_MEMBER,
      414    23155    1                       %XSD_AT_OWNER,
      415    23156    1                       %XSD_AT_ROLEOCCUPANT,
      416    23157    1                       %XSD_AT_SEEALSO);
      417    23158
      418    23159    1   DCL XSD_ATTRKEYX(0:%(%XSD_AT_MAXATTR-1)) UBIN BYTE CALIGNED STATIC SYMDEF
      419    23160    1                                       INIT(%XSD_KEYX_OBJECTCLASS,
      420    23161    1                                            %XSD_KEYX_ALIASOBJNAME,
      421    23162    1                                            %XSD_KEYX_KNOWINFO,
      422    23163    1                                            %XSD_KEYX_COMMONNAME,
      423    23164    1                                            %XSD_KEYX_SURNAME,
      424    23165    1                                            %XSD_KEYX_SERIAL#,
      425    23166    1                                            %XSD_KEYX_COUNTRYNAME,
      426    23167    1                                            %XSD_KEYX_LOCALITYNAME,
      427    23168    1                                            %XSD_KEYX_STATENAME,
      428    23169    1                                            %XSD_KEYX_STREETADDR,
PL6.E3A0      #001=XSD$TABLE File=XSD_TABLE_D.:XSA1TSI                           WED 10/01/97 11:57 Page:13
      429    23170    1                                            %XSD_KEYX_ORGNAME,
      430    23171    1                                            %XSD_KEYX_ORGUNITNAME,
      431    23172    1                                            %XSD_KEYX_TITLE,
      432    23173    1                                            0,
      433    23174    1                                            0,
      434    23175    1                                            %XSD_KEYX_BUSINESSCAT,
      435    23176    1                                            0,
      436    23177    1                                            0,
      437    23178    1                                            0,
      438    23179    1                                            0,
      439    23180    1                                            0,
      440    23181    1                                            0,
      441    23182    1                                            0,
      442    23183    1                                            0,
      443    23184    1                                            0,
      444    23185    1                                            0,
      445    23186    1                                            0,
      446    23187    1                                            0,
      447    23188    1                                            0,
      448    23189    1                                            0,
      449    23190    1                                            0,
      450    23191    1                                            0,
      451    23192    1                                            0,
      452    23193    1                                            0,
      453    23194    1                                            0,
      454    23195    1                                            0,
      455    23196    1                                            0,
      456    23197    1                                            0,
      457    23198    1                                            0,
      458    23199    1                                            0,
      459    23200    1                                            0);
      460    23201
      461    23202    1   END XSD$TABLE;
      462    23203

PL6.E3A0      #001=XSD$TABLE File=XSD_TABLE_D.:XSA1TSI                           WED 10/01/97 11:57 Page:14
--  Include file information  --

   CP_6_SUBS.:LIB_E05  is referenced.
   CP_6_C.:LIB_E05  is referenced.
   CP_6.:LIB_E05  cannot be made into a system file and is referenced.
   XSD_SUBS_C.:XSA1TOU  is referenced.
   XSD_MACRO_M.:XSA1TOU  is referenced.
      No diagnostics issued in procedure XSD$TABLE.

   No code generated for procedure XSD$TABLE .
   Procedure XSD$TABLE is declared NOAUTO and requires 748 words of local(STATIC) storage.

    No errors detected in file XSD_TABLE_D.:XSA1TSI    .

PL6.E3A0      #001=XSD$TABLE File=XSD_TABLE_D.:XSA1TSI                           WED 10/01/97 11:57 Page:15

 Object Unit name= XSD$TABLE                                  File name= XSD_TABLE_D.:XSA1TOU
 UTS= OCT 01 '97 11:57:24.12 WED                              Compiler= PL-6/E31         Sev=      00
 SharedLib= :SHARED_SYSTEM                                    Alt SharedLib=


    ****  Control sections  ****

 Sect   Type Bound  Init  Size OctSiz  Section name(segment info)
    0   Data  even  none   748   1354  XSD$TABLE
    1   DCB   even  none     0      0  M$UC
    2  RoData even  UTS    490    752  XSD$TABLE
    3   Proc  even  none     0      0  XSD$TABLE

    ****  Entry defs  ****

                              Check   Calling
                             calling  sequence
  Sect OctLoc Primary Altret sequence   type   Parms  Name
     3      0   yes            yes     ~proc       0  XSD$TABLE
PL6.E3A0      #001=XSD$TABLE File=XSD_TABLE_D.:XSA1TSI                           WED 10/01/97 11:57 Page:16

  ****  Data defs  ****

 Sect OctLoc  Name                           Sect OctLoc  Name
    0      1  XSD$ATTR_TBL$                      2      0  OBJECTCLASS
    2     14  ALIASEDOBJECT                      2     31  KNOWINFO
    2     45  COMMONNAME                         2     61  SURNAME
    2     74  SERIAL#                            2    107  COUNTYNAME
    2    123  LOCALITYNAME                       2    140  STATENAME
    2    154  STREETADDRESS                      2    171  ORGNAME
    2    204  ORUNITNAME                         2    220  TITLE
    2    233  DESC                               2    246  SEARCHGUIDE
    2    262  BUSINESSCAT                        2    276  POADDR
    2    311  POCODE                             2    324  POBOX
    2    337  PDON                               2    352  TELEPHONE#
    2    366  TELEX#                             2    401  TELETEXTERMID
    2    416  FAXTELEPHONE#                      2    433  X121ADDR
    2    447  INTISDN#                           2    463  REGISTEREDADDR
    2    500  DESTIND                            2    513  PREFDELIVERY
    2    530  PRESADDR                           2    544  SUPPORTEDAPCON
    2    561  MEMBER                             2    574  OWNER
    2    607  ROLEOCCUPANT                       2    624  SEEALSO
    2    637  USERPASS                           2    653  USERCERT
    2    667  CACERT                             2    702  AUTHORITYREVLIST
    2    720  CERTIFICATEREVLIST                 2    736  CROSSCERT
    0     52  XSD$OBJECT_TBL$                    0     73  TOP
    0    103  ALIAS                              0    113  COUNTRY
    0    123  LOCALITY                           0    133  ORG
    0    143  ORGUNIT                            0    153  PERSON
    0    163  ORGPERSON                          0    173  ORGROLE
    0    203  GROUPOFNAMES                       0    213  RESPERSON
    0    223  APPLCPROC                          0    233  APPLCENTITY
    0    243  DSA                                0    253  DEVICE
    0    263  STRONGAUTH                         0    273  CERTAUTH
    0    304  XSD_IRREC                          0    320  XSD_IRKEYS
    0    332  XSD_RECFIELD                       0    364  XSD_DIBKEY
    0    735  XSD_DIBBUF                         0   1310  XSD_ATTRRECX
    0   1323  XSD_RECXATTR                       0   1340  XSD_ATTRKEYX
PL6.E3A0      #001=XSD$TABLE File=XSD_TABLE_D.:XSA1TSI                           WED 10/01/97 11:57 Page:17

  ****  Data refs  ****

  Flags:  r = read only, s = secondary
Flgs Name                             Flgs Name                             Flgs Name
     M$UC

  ****  Segment refs  ****

  Flags:  r = read only, s = secondary
Flgs Name                             Flgs Name                             Flgs Name
     ISSID
PL6.E3A0      #001=XSD$TABLE File=XSD_TABLE_D.:XSA1TSI                           WED 10/01/97 11:57 Page:18


(unnamed)
 Sect OctLoc
   0     000   ****** ******   000000 006000   000014 006000   000031 006000    ................
   0     004   000045 006000   000061 006000   000074 006000   000107 006000    .%...1...<...G..
   0     010   000123 006000   000140 006000   000154 006000   000171 006000    .S...`...l...y..
   0     014   000204 006000   000220 006000   000233 006000   000246 006000    ................
   0     020   000262 006000   000276 006000   000311 006000   000324 006000    ................
   0     024   000337 006000   000352 006000   000366 006000   000401 006000    ................
   0     030   000416 006000   000433 006000   000447 006000   000463 006000    ................
   0     034   000500 006000   000513 006000   000530 006000   000544 006000    ................
   0     040   000561 006000   000574 006000   000607 006000   000624 006000    ................
   0     044   000637 006000   000653 006000   000667 006000   000702 006000    ................
   0     050   000720 006000   000736 006000   000073 006000   000103 006000    .........;...C..
   0     054   000113 006000   000123 006000   000133 006000   000143 006000    .K...S...[...c..
   0     060   000153 006000   000163 006000   000173 006000   000203 006000    .k...s...{......
   0     064   000213 006000   000223 006000   000233 006000   000243 006000    ................
   0     070   000253 006000   000263 006000   000273 006000                    ............

TOP
 Sect OctLoc
   0     073   000000 000000   000000 000000   000000 000000   000000 000000    ................
   0     077   000000 000000   000000 000000   000000 000000   000000 000000    ................

ALIAS
 Sect OctLoc
   0     103   000000 000000   000000 000000   000000 000000   000000 000000    ................
   0     107   000000 000000   000000 000000   000000 000000   000000 000000    ................

COUNTRY
 Sect OctLoc
   0     113   000000 000000   000000 000000   004000 000000   000000 000000    ................
   0     117   000000 000000   000030 000000   000000 000000   000000 000000    ................

LOCALITY
 Sect OctLoc
   0     123   000000 000000   000000 000000   000000 000000   000000 000000    ................
PL6.E3A0      #001=XSD$TABLE File=XSD_TABLE_D.:XSA1TSI                           WED 10/01/97 11:57 Page:19
   0     127   000000 000000   003430 000002   000000 000000   000000 000000    ................

ORG
 Sect OctLoc
   0     133   000000 000000   000000 000000   000100 000000   000000 000000    .........@......
   0     137   000000 000000   003437 776603   000000 000000   000000 000000    ................

ORGUNIT
 Sect OctLoc
   0     143   000000 000000   000000 000000   000100 000000   000000 000000    .........@......
   0     147   000000 000000   003437 776603   000000 000000   000000 000000    ................

PERSON
 Sect OctLoc
   0     153   000000 000000   000000 000000   060000 000000   000000 000000    ........0.......
   0     157   000000 000000   000020 100003   000000 000000   000000 000000    ......@.........

ORGPERSON
 Sect OctLoc
   0     163   006000 000000   000000 000000   060000 000000   000000 000000    ........0.......
   0     167   000000 000000   003543 776600   000000 000000   000000 000000    ................

ORGROLE
 Sect OctLoc
   0     173   000000 000000   000000 000000   040000 000000   000000 000000    ........ .......
   0     177   000000 000000   003523 776606   000000 000000   000000 000000    ................

GROUPOFNAMES
 Sect OctLoc
   0     203   000000 000000   000000 000000   040000 000020   000000 000000    ........ .......
   0     207   000000 000000   000324 000012   000000 000000   000000 000000    ................

RESPERSON
 Sect OctLoc
   0     213   006000 000000   000000 000000   062000 000000   000000 000000    ........2.......
   0     217   000000 000000   003407 776600   000000 000000   000000 000000    ................

PL6.E3A0      #001=XSD$TABLE File=XSD_TABLE_D.:XSA1TSI                           WED 10/01/97 11:57 Page:20
APPLCPROC
 Sect OctLoc
   0     223   000000 000000   000000 000000   040000 000000   000000 000000    ........ .......
   0     227   000000 000000   002120 000002   000000 000000   000000 000000    .....P..........

APPLCENTITY
 Sect OctLoc
   0     233   000000 000000   000000 000000   040000 000100   000000 000000    ........ ..@....
   0     237   000000 000000   002320 000042   000000 000000   000000 000000    ......."........

DSA
 Sect OctLoc
   0     243   014000 000000   000000 000000   040000 000100   000000 000000    ........ ..@....
   0     247   000000 000000   100000 000000   000000 000000   000000 000000    ....@...........

DEVICE
 Sect OctLoc
   0     253   000000 000000   000000 000000   052320 000012   000000 000000    ........*.......
   0     257   000000 000000   000000 000000   000000 000000   000000 000000    ................

STRONGAUTH
 Sect OctLoc
   0     263   000000 000000   000000 000000   000000 000000   400000 000000    ................
   0     267   000000 000000   000000 000000   000000 000000   000000 000000    ................

CERTAUTH
 Sect OctLoc
   0     273   000000 000000   000000 000000   000000 000000   340000 000000    ................
   0     277   000000 000000   000000 000000   020000 000000   000000 000000    ................

(unnamed)
 Sect OctLoc
   0     303   ****** ******   777000 000051   000000 000000   000000 000000    .......)........
   0     307   000000 000000   000000 000000   000000 000000   000000 000000    ................
   0     317*  000*** ******   000000 000017   000000 000000   000000 000000    ................
   0     323   000000 000000   000000 000000   000000 000000   000000 000000    ................
   0     327   000000 000000   000000 ******   ****** ******   777000 000061    ...............1
PL6.E3A0      #001=XSD$TABLE File=XSD_TABLE_D.:XSA1TSI                           WED 10/01/97 11:57 Page:21
   0     333   300011 300011   300011 250100   250100 250100   250002 250200    .......@.@.@....
   0     337   250200 250200   250100 250100   250100 250200   250037 570006    .....@.@.@......
   0     343   250036 260050   260050 260040   570003 250016   260040 260017    ...(.(. ..... ..
   0     347   260020 570006   250036 570012   300011 250001   250001 250001    ................
   0     353   250001 250001   250001 260200   260200 702000   702000 700011    ................
   0     357   260777 260777   260777 260024   700024 700024   700024 700024    ................
   0     363   700024 ******   000000 000040   040040 040040   040040 040040    .......
   0     367   040040 040040   040040 040040   040040 040040   040040 040040
   0     733*  040040 040040   040040 040040   000000 000040   040040 040040            ...
   0     737   040040 040040   040040 040040   040040 040040   040040 040040
   0    1303*  040040 040040   040040 040040   040040 040040   000100 000001                .@..
   0    1307   040*** ******   000001 002003   004005 006007   010011 012013     ...............
   0    1313   014046 047015   017021 022043   023024 045026   027030 031044    .&'....#..%....$
   0    1317   033050 054055   056057 060035   036037 040041   042*** ******    .(,-./0... !"...
   0    1323   000001 002003   004005 006007   010011 012013   014017 051020    ..............).
   0    1327   020021 022024   025025 027030   031032 032034   034043 044045    .............#$%
   0    1333   046047 050023   033026 015016   035035 035035   036037 040041    &'(........... !
   0    1337   042*** ******   017002 003004   005006 007010   011012 013014    "...............
   0    1343   015000 000016   000000 000000   000000 000000   000000 000000    ................
   0    1347   000000 000000   000000 000000   000000 000000   000*** ******    ................
   0    1353   ****** ******                                                    ....

OBJECTCLASS
 Sect OctLoc
   2     000   000000 000000   000000 000000   000000 000000   000000 000000    ................
   2     010*  000000 000000   013117 102112   105103 124103   114101 123123    .....OBJECTCLASS

ALIASEDOBJECT
 Sect OctLoc
   2     014   000000 000001   000000 000000   000000 000000   000000 000000    ................
   2     020   000000 000000   000000 000000   000000 000000   000000 000000    ................
   2     024   000000 000000   015101 114111   101123 105104   117102 112105    .....ALIASEDOBJE
   2     030   103124 ******                                                    CT..

KNOWINFO
 Sect OctLoc
   2     031   000000 000002   000000 000004   000000 600000   600000 000000    ................
PL6.E3A0      #001=XSD$TABLE File=XSD_TABLE_D.:XSA1TSI                           WED 10/01/97 11:57 Page:22
   2     035   000000 000000   000000 000000   000000 000000   000000 000000    ................
   2     041   000000 000000   010113 116117   127111 116106   117*** ******    .....KNOWINFO...

COMMONNAME
 Sect OctLoc
   2     045   000000 000003   000000 000004   000000 600000   600000 000000    ................
   2     051   000000 000000   000000 000001   000000 000100   000000 000000    ...........@....
   2     055   000000 000000   012103 117115   115117 116116   101115 105***    .....COMMONNAME.

SURNAME
 Sect OctLoc
   2     061   000000 000004   000000 000004   000000 600000   600000 000000    ................
   2     065   000000 000000   000000 000001   000000 000100   000000 000000    ...........@....
   2     071   000000 000000   007123 125122   116101 115105                    .....SURNAME

SERIAL#
 Sect OctLoc
   2     074   000000 000005   000000 000005   000000 400000   600000 000000    ................
   2     100   000000 000000   000000 000001   000000 000100   000000 000000    ...........@....
   2     104   000000 000000   007123 105122   111101 114043                    .....SERIAL#

COUNTYNAME
 Sect OctLoc
   2     107   000000 000006   000000 000000   000000 400000   400000 000000    ................
   2     113   400000 000000   000000 000002   000000 000002   000000 000000    ................
   2     117   000000 000000   012103 117125   116124 131116   101115 105***    .....COUNTYNAME.

LOCALITYNAME
 Sect OctLoc
   2     123   000000 000007   000000 000004   000000 600000   600000 000000    ................
   2     127   000000 000000   000000 000001   000000 000200   000000 000000    ................
   2     133   000000 000000   014114 117103   101114 111124   131116 101115    .....LOCALITYNAM
   2     137   105*** ******                                                    E...

STATENAME
 Sect OctLoc
   2     140   000000 000010   000000 000004   000000 600000   600000 000000    ................
PL6.E3A0      #001=XSD$TABLE File=XSD_TABLE_D.:XSA1TSI                           WED 10/01/97 11:57 Page:23
   2     144   000000 000000   000000 000001   000000 000200   000000 000000    ................
   2     150   000000 000000   011123 124101   124105 116101   115105 ******    .....STATENAME..

STREETADDRESS
 Sect OctLoc
   2     154   000000 000011   000000 000004   000000 600000   600000 000000    ................
   2     160   000000 000000   000000 000001   000000 000200   000000 000000    ................
   2     164   000000 000000   015123 124122   105105 124101   104104 122105    .....STREETADDRE
   2     170   123123 ******                                                    SS..

ORGNAME
 Sect OctLoc
   2     171   000000 000012   000000 000004   000000 600000   600000 000000    ................
   2     175   000000 000000   000000 000001   000000 000100   000000 000000    ...........@....
   2     201   000000 000000   007117 122107   116101 115105                    .....ORGNAME

ORUNITNAME
 Sect OctLoc
   2     204   000000 000013   000000 000004   000000 600000   600000 000000    ................
   2     210   000000 000000   000000 000001   000000 000100   000000 000000    ...........@....
   2     214   000000 000000   012117 122125   116111 124116   101115 105***    .....ORUNITNAME.

TITLE
 Sect OctLoc
   2     220   000000 000014   000000 000004   000000 600000   600000 000000    ................
   2     224   000000 000000   000000 000001   000000 000100   000000 000000    ...........@....
   2     230   000000 000000   005124 111124   114105 ******                    .....TITLE..

DESC
 Sect OctLoc
   2     233   000000 000015   000000 000004   000000 600000   600000 000000    ................
   2     237   000000 000000   000000 000001   000000 002000   000000 000000    ................
   2     243   000000 000000   004104 105123   103*** ******                    .....DESC...

SEARCHGUIDE
 Sect OctLoc
   2     246   000000 000016   000000 000000   000000 000000   000000 000000    ................
PL6.E3A0      #001=XSD$TABLE File=XSD_TABLE_D.:XSA1TSI                           WED 10/01/97 11:57 Page:24
   2     252   000000 000000   000000 000000   000000 000000   000000 000000    ................
   2     256   000000 000000   013123 105101   122103 110107   125111 104105    .....SEARCHGUIDE

BUSINESSCAT
 Sect OctLoc
   2     262   000000 000017   000000 000004   000000 600000   600000 000000    ................
   2     266   000000 000000   000000 000001   000000 000200   000000 000000    ................
   2     272   000000 000000   013102 125123   111116 105123   123103 101124    .....BUSINESSCAT

POADDR
 Sect OctLoc
   2     276   000000 000020   000000 000000   000000 000000   400000 000000    ................
   2     302   000000 000000   000000 000000   000000 000000   000000 000000    ................
   2     306   000000 000000   006120 117101   104104 122***                    .....POADDR.

POCODE
 Sect OctLoc
   2     311   000000 000021   000000 000004   000000 600000   600000 000000    ................
   2     315   000000 000000   000000 000001   000000 000050   000000 000000    ...........(....
   2     321   000000 000000   006120 117103   117104 105***                    .....POCODE.

POBOX
 Sect OctLoc
   2     324   000000 000022   000000 000004   000000 600000   600000 000000    ................
   2     330   000000 000000   000000 000001   000000 000050   000000 000000    ...........(....
   2     334   000000 000000   005120 117102   117130 ******                    .....POBOX..

PDON
 Sect OctLoc
   2     337   000000 000023   000000 000004   000000 600000   600000 000000    ................
   2     343   000000 000000   000000 000001   000000 000200   000000 000000    ................
   2     347   000000 000000   004120 104117   116*** ******                    .....PDON...

TELEPHONE#
 Sect OctLoc
   2     352   000000 000024   000000 000014   000000 400000   600000 000000    ................
   2     356   000000 000000   000000 000001   000000 000040   000000 000000    ........... ....
PL6.E3A0      #001=XSD$TABLE File=XSD_TABLE_D.:XSA1TSI                           WED 10/01/97 11:57 Page:25
   2     362   000000 000000   012124 105114   105120 110117   116105 043***    .....TELEPHONE#.

TELEX#
 Sect OctLoc
   2     366   000000 000025   000000 000000   000000 000000   000000 000000    ................
   2     372   000000 000000   000000 000000   000000 000000   000000 000000    ................
   2     376   000000 000000   006124 105114   105130 043***                    .....TELEX#.

TELETEXTERMID
 Sect OctLoc
   2     401   000000 000026   000000 000000   000000 000000   000000 000000    ................
   2     405   000000 000000   000000 000000   000000 000000   000000 000000    ................
   2     411   000000 000000   015124 105114   105124 105130   124105 122115    .....TELETEXTERM
   2     415   111104 ******                                                    ID..

FAXTELEPHONE#
 Sect OctLoc
   2     416   000000 000027   000000 000000   000000 000000   000000 000000    ................
   2     422   000000 000000   000000 000000   000000 000000   000000 000000    ................
   2     426   000000 000000   015106 101130   124105 114105   120110 117116    .....FAXTELEPHON
   2     432   105043 ******                                                    E#..

X121ADDR
 Sect OctLoc
   2     433   000000 000030   000000 000000   000001 000000   600000 000000    ................
   2     437   000000 000000   000000 000001   000000 000017   000000 000000    ................
   2     443   000000 000000   010130 061062   061101 104104   122*** ******    .....X121ADDR...

INTISDN#
 Sect OctLoc
   2     447   000000 000031   000000 000000   000001 000000   000000 000000    ................
   2     453   000000 000000   000000 000001   000000 000020   000000 000000    ................
   2     457   000000 000000   010111 116124   111123 104116   043*** ******    .....INTISDN#...

REGISTEREDADDR
 Sect OctLoc
   2     463   000000 000032   000000 000000   000000 000000   000000 000000    ................
PL6.E3A0      #001=XSD$TABLE File=XSD_TABLE_D.:XSA1TSI                           WED 10/01/97 11:57 Page:26
   2     467   000000 000000   000000 000000   000000 000000   000000 000000    ................
   2     473   000000 000000   016122 105107   111123 124105   122105 104101    .....REGISTEREDA
   2     477   104104 122***                                                    DDR.

DESTIND
 Sect OctLoc
   2     500   000000 000033   000000 000000   000000 400000   600000 000000    ................
   2     504   000000 000000   000000 000001   000000 000200   000000 000000    ................
   2     510   000000 000000   007104 105123   124111 116104                    .....DESTIND

PREFDELIVERY
 Sect OctLoc
   2     513   000000 000034   000000 000000   000000 000000   000000 000000    ................
   2     517   400000 000000   000000 000000   000000 000000   000000 000000    ................
   2     523   000000 000000   014120 122105   106104 105114   111126 105122    .....PREFDELIVER
   2     527   131*** ******                                                    Y...

PRESADDR
 Sect OctLoc
   2     530   000000 000035   000000 000000   000000 000000   400000 000000    ................
   2     534   000000 000000   000000 000000   000000 000000   000000 000000    ................
   2     540   000000 000000   010120 122105   123101 104104   122*** ******    .....PRESADDR...

SUPPORTEDAPCON
 Sect OctLoc
   2     544   000000 000036   000000 000002   000000 000000   000000 000000    ................
   2     550   000000 000000   000000 000000   000000 000000   000000 000000    ................
   2     554   000000 000000   016123 125120   120117 122124   105104 101120    .....SUPPORTEDAP
   2     560   103117 116***                                                    CON.

MEMBER
 Sect OctLoc
   2     561   000000 000037   000000 000001   000000 000000   000000 000000    ................
   2     565   000000 000000   000000 000000   000000 000000   000000 000000    ................
   2     571   000000 000000   006115 105115   102105 122***                    .....MEMBER.

OWNER
PL6.E3A0      #001=XSD$TABLE File=XSD_TABLE_D.:XSA1TSI                           WED 10/01/97 11:57 Page:27
 Sect OctLoc
   2     574   000000 000040   000000 000001   000000 000000   000000 000000    ... ............
   2     600   000000 000000   000000 000000   000000 000000   000000 000000    ................
   2     604   000000 000000   005117 127116   105122 ******                    .....OWNER..

ROLEOCCUPANT
 Sect OctLoc
   2     607   000000 000041   000000 000001   000000 000000   000000 000000    ...!............
   2     613   000000 000000   000000 000000   000000 000000   000000 000000    ................
   2     617   000000 000000   014122 117114   105117 103103   125120 101116    .....ROLEOCCUPAN
   2     623   124*** ******                                                    T...

SEEALSO
 Sect OctLoc
   2     624   000000 000042   000000 000001   000000 000000   000000 000000    ..."............
   2     630   000000 000000   000000 000000   000000 000000   000000 000000    ................
   2     634   000000 000000   007123 105105   101114 123117                    .....SEEALSO

USERPASS
 Sect OctLoc
   2     637   000000 000043   000000 000000   000000 000000   000000 000000    ...#............
   2     643   000000 000000   000000 000000   000000 000000   000000 000000    ................
   2     647   000000 000000   010125 123105   122120 101123   123*** ******    .....USERPASS...

USERCERT
 Sect OctLoc
   2     653   000000 000044   000000 000000   000000 000000   000000 000000    ...$............
   2     657   000000 000000   000000 000000   000000 000000   000000 000000    ................
   2     663   000000 000000   010125 123105   122103 105122   124*** ******    .....USERCERT...

CACERT
 Sect OctLoc
   2     667   000000 000045   000000 000000   000000 000000   000000 000000    ...%............
   2     673   000000 000000   000000 000000   000000 000000   000000 000000    ................
   2     677   000000 000000   006103 101103   105122 124***                    .....CACERT.

AUTHORITYREVLIST
PL6.E3A0      #001=XSD$TABLE File=XSD_TABLE_D.:XSA1TSI                           WED 10/01/97 11:57 Page:28
 Sect OctLoc
   2     702   000000 000046   000000 000000   000000 000000   000000 000000    ...&............
   2     706   000000 000000   000000 000000   000000 000000   000000 000000    ................
   2     712   000000 000000   020101 125124   110117 122111   124131 122105    .....AUTHORITYRE
   2     716   126114 111123   124*** ******                                    VLIST...

CERTIFICATEREVLIST
 Sect OctLoc
   2     720   000000 000047   000000 000000   000000 000000   000000 000000    ...'............
   2     724   000000 000000   000000 000000   000000 000000   000000 000000    ................
   2     730   000000 000000   022103 105122   124111 106111   103101 124105    .....CERTIFICATE
   2     734   122105 126114   111123 124***                                    REVLIST.

CROSSCERT
 Sect OctLoc
   2     736   000000 000050   000000 000000   000000 000000   000000 000000    ...(............
   2     742   000000 000000   000000 000000   000000 000000   000000 000000    ................
   2     746   000000 000000   011103 122117   123123 103105   122124 ******    .....CROSSCERT..
        1        1        /*M* XSR_DATA_D - data file for directory (dua/dsa)*/
        2        2        /*T***********************************************************/
        3        3        /*T*                                                         */
        4        4        /*T* Copyright (c) Bull HN Information Systems Inc., 1997    */
        5        5        /*T*                                                         */
        6        6        /*T***********************************************************/
        7        7        /*X*DMR,PLM=5,IND=3,CTI=2,SDI=5,MCL=10,CSI=1,DTI=2,DCI=3,ECI=0,AND */
        8        8
        9        9        /*
       10       10             XSD_ATTRIBUTE_TABLE - array of xsd_attribute macros.  Defines
       11       11             the set of legal attribute types in terms of size, syntax and
       12       12             semantics.  Table is indexed by the last digit of the attribute
       13       13             type as defined in iso 9594-6.  The attribute type object identifiers
       14       14             are {joint-iso-ccitt ds(5) attributeType attribute#} ie
       15       15             commonname = {2 5 4 3}.  The attribute syntax is similar except using
       16       16             attributeSyntax instead of attributeType.
       17       17              */
       18       18
       19       19        XSD$TABLE: PROC NOAUTO;
PL6.E3A0      #001=XSD$TABLE File=XSD_TABLE_D.:XSA1TSI                           WED 10/01/97 11:57 Page:29
       20       20        %INCLUDE XSD_MACRO_M;                   /* attribute macro */
       21     1129        %INCLUDE XSD_SUBS_C;
       22     1464        %INCLUDE CP_6;
       23     7023        %INCLUDE CP_6_SUBS;
       24     7563
       25     7564    1   DCL XSD$ATTR_TBL$(0:%(%XSD_AT_MAXATTR-1)) PTR STATIC SYMDEF INIT(
       26     7565    1                                                     ADDR(OBJECTCLASS),
       27     7566    1                                                     ADDR(ALIASEDOBJECT),
       28     7567    1                                                     ADDR(KNOWINFO),
       29     7568    1                                                     ADDR(COMMONNAME),
       30     7569    1                                                     ADDR(SURNAME),
       31     7570    1                                                     ADDR(SERIAL#),
       32     7571    1                                                     ADDR(COUNTYNAME ),
       33     7572    1                                                     ADDR(LOCALITYNAME),
       34     7573    1                                                     ADDR(STATENAME),
       35     7574    1                                                     ADDR(STREETADDRESS),
       36     7575    1                                                     ADDR(ORGNAME),
       37     7576    1                                                     ADDR(ORUNITNAME),
       38     7577    1                                                     ADDR(TITLE),
       39     7578    1                                                     ADDR(DESC),
       40     7579    1                                                     ADDR(SEARCHGUIDE),
       41     7580    1                                                     ADDR(BUSINESSCAT),
       42     7581    1                                                     ADDR(POADDR),
       43     7582    1                                                     ADDR(POCODE),
       44     7583    1                                                     ADDR(POBOX),
       45     7584    1                                                     ADDR(PDON),
       46     7585    1                                                     ADDR(TELEPHONE#),
       47     7586    1                                                     ADDR(TELEX#),
       48     7587    1                                                     ADDR(TELETEXTERMID),
       49     7588    1                                                     ADDR(FAXTELEPHONE#),
       50     7589    1                                                     ADDR(X121ADDR),
       51     7590    1                                                     ADDR(INTISDN#),
       52     7591    1                                                     ADDR(REGISTEREDADDR),
       53     7592    1                                                     ADDR(DESTIND),
       54     7593    1                                                     ADDR(PREFDELIVERY),
       55     7594    1                                                     ADDR(PRESADDR),
       56     7595    1                                                     ADDR(SUPPORTEDAPCON),
PL6.E3A0      #001=XSD$TABLE File=XSD_TABLE_D.:XSA1TSI                           WED 10/01/97 11:57 Page:30
       57     7596    1                                                     ADDR(MEMBER),
       58     7597    1                                                     ADDR(OWNER),
       59     7598    1                                                     ADDR(ROLEOCCUPANT),
       60     7599    1                                                     ADDR(SEEALSO),
       61     7600    1                                                     ADDR(USERPASS),
       62     7601    1                                                     ADDR(USERCERT),
       63     7602    1                                                     ADDR(CACERT),
       64     7603    1                                                     ADDR(AUTHORITYREVLIST),
       65     7604    1                                                     ADDR(CERTIFICATEREVLIST),
       66     7605    1                                                     ADDR(CROSSCERT));
       67     7606
       68     7607
       69     7608        %XSD_ATTRIBUTE(NAME=OBJECTCLASS,ATYPE=OC,ASYNTAX=0,STCLASS="CONSTANT SYMDEF");
       70     7843        /* aliased object name */
       71     7844        %XSD_ATTRIBUTE(NAME=ALIASEDOBJECT,ATYPE=AON,ASYNTAX=0,STCLASS="CONSTANT SYMDEF");
       72     8079        /* knowledge information */
       73     8080        %XSD_ATTRIBUTE(NAME=KNOWINFO,ATYPE=KI,ASYNTAX=CISS,STCLASS="CONSTANT SYMDEF");
       74     8315        /* common name */
       75     8316        %XSD_ATTRIBUTE(NAME=COMMONNAME ,ATYPE= CN,ASYNTAX=CISS,LOWER=1,UPPER=
              8316            %XSD_UB_COMMONNAME,
       76     8317                       STCLASS="CONSTANT SYMDEF");
       77     8552        /* surname */
       78     8553        %XSD_ATTRIBUTE(NAME=SURNAME ,ATYPE= SN,ASYNTAX=CISS,LOWER=1,UPPER=%XSD_UB_SURNAME,
       79     8554                       STCLASS="CONSTANT SYMDEF");
       80     8789        /* serial number */
       81     8790       %XSD_ATTRIBUTE(NAME=SERIAL# ,ATYPE= SERIAL,ASYNTAX=PSS,LOWER=1,UPPER=%XSD_UB_SERIAL#
              8790            ,
       82     8791                       STCLASS="CONSTANT SYMDEF");
       83     9026        /* country name */
       84     9027        %XSD_ATTRIBUTE(NAME=COUNTYNAME ,ATYPE= COUNTRY,PRINTABLESTRING=YES,
       85     9028                       LOWER=2,UPPER=2,EQUAL=YES,VALUED=SINGLE,
       86     9029                       STCLASS="CONSTANT SYMDEF");
       87     9264        /* locality name */
       88     9265        %XSD_ATTRIBUTE(NAME=LOCALITYNAME ,ATYPE= LN,ASYNTAX=CISS,LOWER=1,UPPER=
              9265            %XSD_UB_LOCALITYNAME,
       89     9266                       STCLASS="CONSTANT SYMDEF");
       90     9501        /* State or province name */
PL6.E3A0      #001=XSD$TABLE File=XSD_TABLE_D.:XSA1TSI                           WED 10/01/97 11:57 Page:31
       91     9502        %XSD_ATTRIBUTE(NAME= STATENAME,ATYPE= STATE,ASYNTAX=CISS,LOWER=1,UPPER=
              9502            %XSD_UB_STATENAME,
       92     9503                       STCLASS="CONSTANT SYMDEF");
       93     9738        /* street address */
       94     9739        %XSD_ATTRIBUTE(NAME= STREETADDRESS,ATYPE= SA,ASYNTAX=CISS,LOWER=1,UPPER=
              9739            %XSD_UB_STREETADDR,
       95     9740                       STCLASS="CONSTANT SYMDEF");
       96     9975        /* organization Name */
       97     9976        %XSD_ATTRIBUTE(NAME= ORGNAME,ATYPE= ON,ASYNTAX=CISS,LOWER=1,UPPER=%XSD_UB_ORGNAME,
       98     9977                       STCLASS="CONSTANT SYMDEF");
       99    10212        /* organization Unit Name */
      100    10213        %XSD_ATTRIBUTE(NAME= ORUNITNAME,ATYPE= OUN,ASYNTAX=CISS,LOWER=1,UPPER=
             10213            %XSD_UB_ORGUNITNAME,
      101    10214                       STCLASS="CONSTANT SYMDEF");
      102    10449        /* title */
      103    10450        %XSD_ATTRIBUTE(NAME= TITLE,ATYPE= TITLE,ASYNTAX=CISS,LOWER=1,UPPER=%XSD_UB_TITLE,
      104    10451                       STCLASS="CONSTANT SYMDEF");
      105    10686        /* description */
      106    10687        %XSD_ATTRIBUTE(NAME= DESC,ATYPE= DESC,ASYNTAX=CISS,LOWER=1,UPPER=%XSD_UB_DESC,
      107    10688                       STCLASS="CONSTANT SYMDEF");
      108    10923        /* search Guide */
      109    10924        %XSD_ATTRIBUTE(NAME= SEARCHGUIDE,ATYPE= SG ,STCLASS="CONSTANT SYMDEF");
      110    11159        /* buisness Category */
      111    11160        %XSD_ATTRIBUTE(NAME= BUSINESSCAT,ATYPE= BC,ASYNTAX=CISS,LOWER=1,UPPER=
             11160            %XSD_UB_BUSINESSCAT,
      112    11161                       STCLASS="CONSTANT SYMDEF");
      113    11396        /* postal address */
      114    11397        %XSD_ATTRIBUTE(NAME= POADDR,ATYPE= PA ,EQUAL=YES,
      115    11398                       STCLASS="CONSTANT SYMDEF");
      116    11633        /* postal code */
      117    11634        %XSD_ATTRIBUTE(NAME= POCODE,ATYPE= PC,ASYNTAX=CISS,LOWER=1,UPPER=%XSD_UB_POCODE,
      118    11635                       STCLASS="CONSTANT SYMDEF");
      119    11870        /* postoffice Box*/
      120    11871        %XSD_ATTRIBUTE(NAME= POBOX,ATYPE= POBOX,ASYNTAX=CISS,LOWER=1,UPPER=%XSD_UB_POBOX,
      121    11872                       STCLASS="CONSTANT SYMDEF");
      122    12107        /* physical delivery office name */
      123    12108        %XSD_ATTRIBUTE(NAME=PDON,ATYPE=PDON,ASYNTAX=CISS,LOWER=1,UPPER=%XSD_UB_OFFICENAME,
PL6.E3A0      #001=XSD$TABLE File=XSD_TABLE_D.:XSA1TSI                           WED 10/01/97 11:57 Page:32
      124    12109                      STCLASS="CONSTANT SYMDEF");
      125    12344        /* telephone# */
      126    12345        %XSD_ATTRIBUTE(NAME= TELEPHONE#,ATYPE= TELE,ASYNTAX = TNS,
      127    12346                       STCLASS="CONSTANT SYMDEF");
      128    12581        /* telex number */
      129    12582        %XSD_ATTRIBUTE(NAME= TELEX#,ATYPE= TELEX   ,
      130    12583                       STCLASS="CONSTANT SYMDEF");
      131    12818        /* teletex terminal identifier */
      132    12819        %XSD_ATTRIBUTE(NAME= TELETEXTERMID,ATYPE= TTT  ,
      133    12820                       STCLASS="CONSTANT SYMDEF");
      134    13055        /* fax telephone # */
      135    13056        %XSD_ATTRIBUTE(NAME= FAXTELEPHONE#,ATYPE= FTP  ,
      136    13057                       STCLASS="CONSTANT SYMDEF");
      137    13292
      138    13293        %XSD_ATTRIBUTE(NAME= X121ADDR,ATYPE= X121,NUMERICSTRING=YES,LOWER=1,UPPER=
             13293            %XSD_UB_X121ADDR,
      139    13294                       EQUAL=YES,SUBSTRING=YES,STCLASS="CONSTANT SYMDEF");
      140    13529
      141    13530        %XSD_ATTRIBUTE(NAME= INTISDN#,ATYPE= INTISDN ,NUMERICSTRING=YES,LOWER=1,UPPER=
             13530            %XSD_UB_ISDNADDR,
      142    13531                    STCLASS="CONSTANT SYMDEF");
      143    13766
      144    13767        %XSD_ATTRIBUTE(NAME= REGISTEREDADDR,ATYPE= REGADDR ,NONPRIM=YES,STCLASS=
             13767            "CONSTANT SYMDEF");
      145    14002
      146    14003        /* destination indicator -- alphabetic characters only */
      147    14004        %XSD_ATTRIBUTE(NAME= DESTIND,ATYPE= DESTIND ,PRINTABLESTRING=YES,LOWER=1,UPPER=
             14004            %XSD_UB_DESTINDIC,
      148    14005                       EQUAL=YES,SUBSTRING=YES,STCLASS="CONSTANT SYMDEF");
      149    14240
      150    14241        %XSD_ATTRIBUTE(NAME= PREFDELIVERY,ATYPE= PDM  ,VALUED=SINGLE,STCLASS=
             14241            "CONSTANT SYMDEF");
      151    14476
      152    14477        %XSD_ATTRIBUTE(NAME= PRESADDR,ATYPE= PRESADDR,EQUAL=YES,STCLASS="CONSTANT SYMDEF");
      153    14712        /* supported application context */
      154    14713        %XSD_ATTRIBUTE(NAME= SUPPORTEDAPCON,ATYPE= SAC ,ASYNTAX=OIS,STCLASS=
             14713            "CONSTANT SYMDEF");
PL6.E3A0      #001=XSD$TABLE File=XSD_TABLE_D.:XSA1TSI                           WED 10/01/97 11:57 Page:33
      155    14948
      156    14949        %XSD_ATTRIBUTE(NAME= MEMBER,ATYPE= MEMBER ,ASYNTAX=DNS,STCLASS="CONSTANT SYMDEF");
      157    15184
      158    15185        %XSD_ATTRIBUTE(NAME= OWNER,ATYPE= OWNER  ,ASYNTAX=DNS,STCLASS="CONSTANT SYMDEF");
      159    15420
      160    15421       %XSD_ATTRIBUTE(NAME= ROLEOCCUPANT,ATYPE= RO ,ASYNTAX=DNS,STCLASS="CONSTANT SYMDEF");
      161    15656
      162    15657       %XSD_ATTRIBUTE(NAME= SEEALSO,ATYPE= SEEALSO ,ASYNTAX=DNS,STCLASS="CONSTANT SYMDEF");
      163    15892
      164    15893        %XSD_ATTRIBUTE(NAME= USERPASS,ATYPE= UP ,ASYNTAX=0,STCLASS="CONSTANT SYMDEF");
      165    16128
      166    16129        %XSD_ATTRIBUTE(NAME= USERCERT,ATYPE= UC,ASYNTAX=0, STCLASS="CONSTANT SYMDEF");
      167    16364
      168    16365        %XSD_ATTRIBUTE(NAME= CACERT,ATYPE= CAC,ASYNTAX=0,STCLASS="CONSTANT SYMDEF");
      169    16600
      170    16601        %XSD_ATTRIBUTE(NAME= AUTHORITYREVLIST,ATYPE= ARL ,ASYNTAX=0,STCLASS=
             16601            "CONSTANT SYMDEF");
      171    16836
      172    16837        %XSD_ATTRIBUTE(NAME= CERTIFICATEREVLIST,ATYPE= CRL ,ASYNTAX=0,STCLASS=
             16837            "CONSTANT SYMDEF");
      173    17072
      174    17073        %XSD_ATTRIBUTE(NAME= CROSSCERT,ATYPE= CC  ,ASYNTAX=0,STCLASS="CONSTANT SYMDEF");
      175    17308
      176    17309
      177    17310
      178    17311        /*
      179    17312                XSD$OBJECT_TBL$ - pointer to the object class table.
      180    17313                   the object class table defines the attributes which are
      181    17314                   associated with that object, of course.
      182    17315        */
      183    17316    1   DCL XSD$OBJECT_TBL$(0:%XSD_OC_MAX) PTR STATIC SYMDEF INIT(
      184    17317    1                                      ADDR(TOP        ),
      185    17318    1                                      ADDR(ALIAS      ),
      186    17319    1                                      ADDR(COUNTRY    ),
      187    17320    1                                      ADDR(LOCALITY   ),
      188    17321    1                                      ADDR(ORG        ),
      189    17322    1                                      ADDR(ORGUNIT    ),
PL6.E3A0      #001=XSD$TABLE File=XSD_TABLE_D.:XSA1TSI                           WED 10/01/97 11:57 Page:34
      190    17323    1                                      ADDR(PERSON     ),
      191    17324    1                                      ADDR(ORGPERSON  ),
      192    17325    1                                      ADDR(ORGROLE    ),
      193    17326    1                                      ADDR(GROUPOFNAMES),
      194    17327    1                                      ADDR(RESPERSON  ),
      195    17328    1                                      ADDR(APPLCPROC  ),
      196    17329    1                                      ADDR(APPLCENTITY),
      197    17330    1                                      ADDR(DSA        ),
      198    17331    1                                      ADDR(DEVICE     ),
      199    17332    1                                      ADDR(STRONGAUTH ),
      200    17333    1                                      ADDR(CERTAUTH   ));
      201    17334
      202    17335        %XSD_OBJECT(NAME=TOP        ,STCLASS="STATIC SYMDEF",OBJECTCLASS=TOP        );
      203    17532        %XSD_OBJECT(NAME=ALIAS      ,STCLASS="STATIC SYMDEF",OBJECTCLASS=ALIAS      );
      204    17729        %XSD_OBJECT(NAME=COUNTRY    ,STCLASS="STATIC SYMDEF",OBJECTCLASS=COUNTRY    );
      205    17926        %XSD_OBJECT(NAME=LOCALITY   ,STCLASS="STATIC SYMDEF",OBJECTCLASS=LOCALITY   );
      206    18123        %XSD_OBJECT(NAME=ORG        ,STCLASS="STATIC SYMDEF",OBJECTCLASS=ORG        );
      207    18320        %XSD_OBJECT(NAME=ORGUNIT    ,STCLASS="STATIC SYMDEF",OBJECTCLASS=ORGUNIT    );
      208    18517        %XSD_OBJECT(NAME=PERSON     ,STCLASS="STATIC SYMDEF",OBJECTCLASS=PERSON     );
      209    18714        %XSD_OBJECT(NAME=ORGPERSON  ,STCLASS="STATIC SYMDEF",OBJECTCLASS=ORGPERSON  );
      210    18911        %XSD_OBJECT(NAME=ORGROLE    ,STCLASS="STATIC SYMDEF",OBJECTCLASS=ORGROLE    );
      211    19108        %XSD_OBJECT(NAME=GROUPOFNAMES,STCLASS="STATIC SYMDEF",OBJECTCLASS=GROUPOFNAMES);
      212    19305        %XSD_OBJECT(NAME=RESPERSON  ,STCLASS="STATIC SYMDEF",OBJECTCLASS=RESPERSON  );
      213    19502        %XSD_OBJECT(NAME=APPLCPROC  ,STCLASS="STATIC SYMDEF",OBJECTCLASS=APPLCPROC  );
      214    19699        %XSD_OBJECT(NAME=APPLCENTITY,STCLASS="STATIC SYMDEF",OBJECTCLASS=APPLCENTITY);
      215    19896        %XSD_OBJECT(NAME=DSA        ,STCLASS="STATIC SYMDEF",OBJECTCLASS=DSA        );
      216    20093        %XSD_OBJECT(NAME=DEVICE     ,STCLASS="STATIC SYMDEF",OBJECTCLASS=DEVICE     );
      217    20290        %XSD_OBJECT(NAME=STRONGAUTH ,STCLASS="STATIC SYMDEF",OBJECTCLASS=STRONGAUTH );
      218    20487        %XSD_OBJECT(NAME=CERTAUTH   ,STCLASS="STATIC SYMDEF",OBJECTCLASS=CERTAUTH   );
      219    20684        /*
      220    20685             vlp_irrec
      221    20686                XSD_IRREC.FIELDN set at run time
      222    20687        */
      223    20688        %VLP_IRREC(FPTN=XSD_IRREC,N=%XSD_AT_MAXATTR,STCLASS="STATIC SYMDEF");
      224    20702        /*
      225    20703                vlp_irkey
      226    20704                   set all the entries to unique=no.  The unique key will be
PL6.E3A0      #001=XSD$TABLE File=XSD_TABLE_D.:XSA1TSI                           WED 10/01/97 11:57 Page:35
      227    20705                   defined in xsd$irel.
      228    20706        */
      229    20707        %VLP_IRKEYS(FPTN=XSD_IRKEYS,UNIQUE=NO,N=%XSD_MAXKEYS, NKEYS=%XSD_MAXKEYS,STCLASS=
             20707            "STATIC SYMDEF");
      230    20722        /*
      231    20723             vlp_recfield definition
      232    20724        */
      233    20725        %VLP_RECFIELD(FPTN=XSD_RECFIELD,N=%XSD_MAXRECS, /* max number of physical fields */
      234    20726                         FIRST=YES,STCLASS="STATIC SYMDEF",LAST=NO);
      235    20770                                                /* object class */
      236    20771        %VLP_RECFIELD(N=1,DTYPE=UBIN,LEN=%XSD_UB_OBJECTCLASS,FIRST=NO,LAST=NO);
      237    20815                                                /* aliased object name */
      238    20816        %VLP_RECFIELD(N=1,DTYPE=UBIN,LEN=%XSD_UB_ALIASOBJNAME,FIRST=NO,LAST=NO);
      239    20860                                                /* knowledge info */
      240    20861        %VLP_RECFIELD(N=1,DTYPE=UBIN,LEN=%XSD_UB_KNOWINFO,FIRST=NO,LAST=NO);
      241    20905                                                /*common name */
      242    20906        %VLP_RECFIELD(N=1,DTYPE=CHAR,LEN=%XSD_UB_COMMONNAME,FIRST=NO,LAST=NO);
      243    20950                                                /* surname */
      244    20951        %VLP_RECFIELD(N=1,DTYPE=CHAR,LEN=%XSD_UB_SURNAME,FIRST=NO,LAST=NO);
      245    20995                                                /* serial number*/
      246    20996        %VLP_RECFIELD(N=1,DTYPE=CHAR,LEN=%XSD_UB_SERIAL#,FIRST=NO,LAST=NO);
      247    21040                                                /* country */
      248    21041        %VLP_RECFIELD(N=1,DTYPE=CHAR,LEN=%XSD_UB_COUNTRYNAME,FIRST=NO,LAST=NO);
      249    21085                                                /* locality */
      250    21086        %VLP_RECFIELD(N=1,DTYPE=CHAR,LEN=%XSD_UB_LOCALITYNAME,FIRST=NO,LAST=NO);
      251    21130                                                /* statename */
      252    21131        %VLP_RECFIELD(N=1,DTYPE=CHAR,LEN=%XSD_UB_STATENAME,FIRST=NO,LAST=NO);
      253    21175                                                /* street address */
      254    21176        %VLP_RECFIELD(N=1,DTYPE=CHAR,LEN=%XSD_UB_STREETADDR,FIRST=NO,LAST=NO);
      255    21220        %VLP_RECFIELD(N=1,DTYPE=CHAR,LEN=%XSD_UB_ORGNAME,FIRST=NO,LAST=NO);
      256    21264        %VLP_RECFIELD(N=1,DTYPE=CHAR,LEN=%XSD_UB_ORGUNITNAME,FIRST=NO,LAST=NO);
      257    21308        %VLP_RECFIELD(N=1,DTYPE=CHAR,LEN=%XSD_UB_TITLE,FIRST=NO,LAST=NO);
      258    21352        %VLP_RECFIELD(N=1,DTYPE=CHAR,LEN=%XSD_UB_BUSINESSCAT,FIRST=NO,LAST=NO);
      259    21396                                      /* cp6 defined object name, used for unique key */
      260    21397        %VLP_RECFIELD(N=1,DTYPE=CHAR,LEN=%XSD_DIBKEY_LEN,FIRST=NO,LAST=NO);
      261    21441                                                /* postaladdress */
      262    21442        %VLP_RECFIELD(N=1,DTYPE=LIST,LEN=%XSD_UB_POLINE,FIRST=NO,LAST=NO);
PL6.E3A0      #001=XSD$TABLE File=XSD_TABLE_D.:XSA1TSI                           WED 10/01/97 11:57 Page:36
      263    21486           %VLP_RECFIELD(N=1,DTYPE=CHAR,LEN=%XSD_UB_POSTRING,FIRST=NO,LAST=NO);
      264    21530                 /* postal code */
      265    21531        %VLP_RECFIELD(N=1,DTYPE=TEXTC,LEN=%XSD_UB_POCODE,FIRST=NO,LAST=NO);
      266    21575                /* post office box */
      267    21576        %VLP_RECFIELD(N=1,DTYPE=TEXTC,LEN=%XSD_UB_POBOX,FIRST=NO,LAST=NO);
      268    21620                /* telephone# */
      269    21621        %VLP_RECFIELD(N=1,DTYPE=TEXTC,LEN=%XSD_UB_TELEPHONE#,FIRST=NO,LAST=NO);
      270    21665                  /*telex number - comprised of telex# ,countrycode and answerback*/
      271    21666        %VLP_RECFIELD(N=1,DTYPE=LIST,LEN=3,FIRST=NO,LAST=NO);
      272    21710          %VLP_RECFIELD(N=1,DTYPE=CHAR,LEN=%XSD_UB_TELEX#,FIRST=NO,LAST=NO);
      273    21754                /* fax telephone # */
      274    21755        %VLP_RECFIELD(N=1,DTYPE=TEXTC,LEN=%XSD_UB_TELEPHONE#,FIRST=NO,LAST=NO);
      275    21799                /* x.121 address */
      276    21800        %VLP_RECFIELD(N=1,DTYPE=TEXTC,LEN=%XSD_UB_X121ADDR,FIRST=NO,LAST=NO);
      277    21844                /* international isdn address */
      278    21845        %VLP_RECFIELD(N=1,DTYPE=TEXTC,LEN=%XSD_UB_ISDNADDR,FIRST=NO,LAST=NO);
      279    21889                /* registered address same as postal */
      280    21890        %VLP_RECFIELD(N=1,DTYPE=LIST,LEN=%XSD_UB_POLINE,FIRST=NO,LAST=NO);
      281    21934          %VLP_RECFIELD(N=1,DTYPE=CHAR,LEN=%XSD_UB_POSTRING,FIRST=NO,LAST=NO);
      282    21978             /* preferred delivery method */
      283    21979        %VLP_RECFIELD(N=1,DTYPE=LIST,LEN=10,FIRST=NO,LAST=NO);
      284    22023          %VLP_RECFIELD(N=1,DTYPE=UBIN,LEN=9,FIRST=NO,LAST=NO);
      285    22067        %VLP_RECFIELD(N=1,DTYPE=CHAR,LEN=%XSD_UB_USERPASS,FIRST=NO,LAST=NO);
      286    22111        %VLP_RECFIELD(N=1,DTYPE=CHAR,LEN=%XSD_UB_USERCERT,FIRST=NO,LAST=NO);
      287    22155        %VLP_RECFIELD(N=1,DTYPE=CHAR,LEN=%XSD_UB_CACERT,FIRST=NO,LAST=NO);
      288    22199        %VLP_RECFIELD(N=1,DTYPE=CHAR,LEN=%XSD_UB_ARL,FIRST=NO,LAST=NO);
      289    22243        %VLP_RECFIELD(N=1,DTYPE=CHAR,LEN=%XSD_UB_CRL,FIRST=NO,LAST=NO);
      290    22287        %VLP_RECFIELD(N=1,DTYPE=CHAR,LEN=%XSD_UB_CROSSCERT,FIRST=NO,LAST=NO);
      291    22331                                                /*  physical delivery office name */
      292    22332        %VLP_RECFIELD(N=1,DTYPE=TEXTC,LEN=%XSD_UB_OFFICENAME,FIRST=NO,LAST=NO);
      293    22376                /* destination indication */
      294    22377        %VLP_RECFIELD(N=1,DTYPE=TEXTC,LEN=%XSD_UB_DESTINDIC,FIRST=NO,LAST=NO);
      295    22421                /* teltex termid */
      296    22422        %VLP_RECFIELD(N=1,DTYPE=TEXTH,LEN=%XSD_UB_TELTEXTERMID,FIRST=NO,LAST=NO);
      297    22466                /* description */
      298    22467        %VLP_RECFIELD(N=1,DTYPE=TEXTH,LEN=%XSD_UB_DESC,FIRST=NO,LAST=NO);
      299    22511                /* search guide */
PL6.E3A0      #001=XSD$TABLE File=XSD_TABLE_D.:XSA1TSI                           WED 10/01/97 11:57 Page:37
      300    22512        %VLP_RECFIELD(N=1,DTYPE=TEXTH,LEN=%XSD_UB_SEARCHGUIDE,FIRST=NO,LAST=NO);
      301    22556                                                /*  pselector,sselector,tselector,nsap*/
      302    22557        %VLP_RECFIELD(N=1,DTYPE=TEXTC,LEN=%XSD_UB_PRESADDR,FIRST=NO,LAST=NO);
      303    22601        %VLP_RECFIELD(N=1,DTYPE=TEXTC,LEN=%XSD_UB_PRESADDR,FIRST=NO,LAST=NO);
      304    22645        %VLP_RECFIELD(N=1,DTYPE=TEXTC,LEN=%XSD_UB_PRESADDR,FIRST=NO,LAST=NO);
      305    22689        %VLP_RECFIELD(N=1,DTYPE=TEXTC,LEN=%XSD_UB_NSAP,FIRST=NO,LAST=NO);
      306    22733                                                /* supported application context */
      307    22734        %VLP_RECFIELD(N=1,DTYPE=TEXTH,LEN=%XSD_UB_OBJECTID,FIRST=NO,LAST=NO);
      308    22778                       /*    member upto 2 consisting of 2 parts each object id, value*/
      309    22779        %VLP_RECFIELD(N=1,DTYPE=TEXTH,LEN=%XSD_UB_OBJECTID,FIRST=NO,LAST=NO);
      310    22823                /* owner same as member */
      311    22824        %VLP_RECFIELD(N=1,DTYPE=TEXTH,LEN=%XSD_UB_OBJECTID,FIRST=NO,LAST=NO);
      312    22868                /* role occupant, same as member */
      313    22869        %VLP_RECFIELD(N=1,DTYPE=TEXTH,LEN=%XSD_UB_OBJECTID,FIRST=NO,LAST=NO);
      314    22913                /* see also, same as occpant, owner  member */
      315    22914        %VLP_RECFIELD(N=1,DTYPE=TEXTH,LEN=%XSD_UB_OBJECTID,FIRST=NO,LAST=YES);
      316    22958        /* finally */
      317    22959
      318    22960        /* DIB - key and buffer */
      319    22961        %XSD_DIBKEY(NAME=XSD_DIBKEY,STCLASS="STATIC SYMDEF");
      320    22997        %XSD_DIBBUF(NAME=XSD_DIBBUF,STCLASS="STATIC SYMDEF");
      321    23062
      322    23063        /* Array - maps attributes to XSD_RECFIELD entry, indexed by XSD_AT_? */
      323    23064    1   DCL XSD_ATTRRECX(0:%(%XSD_AT_MAXATTR-1)) UBIN BYTE CALIGNED STATIC SYMDEF
      324    23065    1                                       INIT(%XSD_RECX_OBJECTCLASS,
      325    23066    1                                            %XSD_RECX_ALIASOBJNAME,
      326    23067    1                                            %XSD_RECX_KNOWINFO,
      327    23068    1                                            %XSD_RECX_COMMONNAME,
      328    23069    1                                            %XSD_RECX_SURNAME,
      329    23070    1                                            %XSD_RECX_SERIAL#,
      330    23071    1                                            %XSD_RECX_COUNTRYNAME,
      331    23072    1                                            %XSD_RECX_LOCALITYNAME,
      332    23073    1                                            %XSD_RECX_STATENAME,
      333    23074    1                                            %XSD_RECX_STREETADDR,
      334    23075    1                                            %XSD_RECX_ORGNAME,
      335    23076    1                                            %XSD_RECX_ORGUNITNAME,
      336    23077    1                                            %XSD_RECX_TITLE,
PL6.E3A0      #001=XSD$TABLE File=XSD_TABLE_D.:XSA1TSI                           WED 10/01/97 11:57 Page:38
      337    23078    1                                            %XSD_RECX_DESC,
      338    23079    1                                            %XSD_RECX_SEARCHGUIDE,
      339    23080    1                                            %XSD_RECX_BUSINESSCAT,
      340    23081    1                                            %XSD_RECX_POSTALADDR,
      341    23082    1                                            %XSD_RECX_POSTALCODE,
      342    23083    1                                            %XSD_RECX_POBOX,
      343    23084    1                                            %XSD_RECX_OFFICENAME,
      344    23085    1                                            %XSD_RECX_TELEPHONE#,
      345    23086    1                                            %XSD_RECX_TELEX#,
      346    23087    1                                            %XSD_RECX_TELTEXTERMID,
      347    23088    1                                            %XSD_RECX_FAXTELEPHONE#,
      348    23089    1                                            %XSD_RECX_X121ADDR,
      349    23090    1                                            %XSD_RECX_ISDNADDR,
      350    23091    1                                            %XSD_RECX_REGADDR,
      351    23092    1                                            %XSD_RECX_DESTINDIC,
      352    23093    1                                            %XSD_RECX_PDM,
      353    23094    1                                            %XSD_RECX_PSELECTOR,
      354    23095    1                                            %XSD_RECX_SAC,
      355    23096    1                                            %XSD_RECX_MEMBER,
      356    23097    1                                            %XSD_RECX_OWNER,
      357    23098    1                                            %XSD_RECX_ROLEOCCUPANT,
      358    23099    1                                            %XSD_RECX_SEEALSO,
      359    23100    1                                            %XSD_RECX_USERPASS,
      360    23101    1                                            %XSD_RECX_USERCERT,
      361    23102    1                                            %XSD_RECX_CACERT,
      362    23103    1                                            %XSD_RECX_ARL,
      363    23104    1                                            %XSD_RECX_CRL,
      364    23105    1                                            %XSD_RECX_CROSSCERT);
      365    23106
      366    23107        /* Array - maps XSD_RECFIELD entry indexes into ATTRIBUTES indexed by XSD_RECX_? */
      367    23108    1   DCL XSD_RECXATTR(0:%XSD_RECX_MAXRECX) UBIN BYTE CALIGNED STATIC SYMDEF
      368    23109    1                  INIT(%XSD_AT_OBJECTCLASS,
      369    23110    1                       %XSD_AT_ALIASOBJNAME,
      370    23111    1                       %XSD_AT_KNOWINFO,
      371    23112    1                       %XSD_AT_COMMONNAME,
      372    23113    1                       %XSD_AT_SURNAME,
      373    23114    1                       %XSD_AT_SERIAL#,
PL6.E3A0      #001=XSD$TABLE File=XSD_TABLE_D.:XSA1TSI                           WED 10/01/97 11:57 Page:39
      374    23115    1                       %XSD_AT_COUNTRYNAME,
      375    23116    1                       %XSD_AT_LOCALITYNAME,
      376    23117    1                       %XSD_AT_STATENAME,
      377    23118    1                       %XSD_AT_STREETADDR,
      378    23119    1                       %XSD_AT_ORGNAME,
      379    23120    1                       %XSD_AT_ORGUNITNAME,
      380    23121    1                       %XSD_AT_TITLE,
      381    23122    1                       %XSD_AT_BUSINESSCAT,
      382    23123    1                       %XSD_AT_DIBUNIQUE,
      383    23124    1                       %XSD_AT_POSTALADDR,
      384    23125    1                       %XSD_AT_POSTALADDR,
      385    23126    1                       %XSD_AT_POSTALCODE,
      386    23127    1                       %XSD_AT_POBOX,
      387    23128    1                       %XSD_AT_TELEPHONE#,
      388    23129    1                       %XSD_AT_TELEX#,
      389    23130    1                       %XSD_AT_TELEX#,
      390    23131    1                       %XSD_AT_FAXTELEPHONE#,
      391    23132    1                       %XSD_AT_X121ADDR,
      392    23133    1                       %XSD_AT_INTISDN#,
      393    23134    1                       %XSD_AT_REGADDR,
      394    23135    1                       %XSD_AT_REGADDR,
      395    23136    1                       %XSD_AT_PDM,
      396    23137    1                       %XSD_AT_PDM,
      397    23138    1                       %XSD_AT_USERPASS,
      398    23139    1                       %XSD_AT_USERCERT,
      399    23140    1                       %XSD_AT_CACERT,
      400    23141    1                       %XSD_AT_ARL,
      401    23142    1                       %XSD_AT_CRL,
      402    23143    1                       %XSD_AT_CROSSCERT,
      403    23144    1                       %XSD_AT_PDON,
      404    23145    1                       %XSD_AT_DESTIND,
      405    23146    1                       %XSD_AT_TELTEXTERMID,
      406    23147    1                       %XSD_AT_DESC,
      407    23148    1                       %XSD_AT_SEARCHGUIDE,
      408    23149    1                       %XSD_AT_PRESADDR,
      409    23150    1                       %XSD_AT_PRESADDR,
      410    23151    1                       %XSD_AT_PRESADDR,
PL6.E3A0      #001=XSD$TABLE File=XSD_TABLE_D.:XSA1TSI                           WED 10/01/97 11:57 Page:40
      411    23152    1                       %XSD_AT_PRESADDR,
      412    23153    1                       %XSD_AT_SAC,
      413    23154    1                       %XSD_AT_MEMBER,
      414    23155    1                       %XSD_AT_OWNER,
      415    23156    1                       %XSD_AT_ROLEOCCUPANT,
      416    23157    1                       %XSD_AT_SEEALSO);
      417    23158
      418    23159    1   DCL XSD_ATTRKEYX(0:%(%XSD_AT_MAXATTR-1)) UBIN BYTE CALIGNED STATIC SYMDEF
      419    23160    1                                       INIT(%XSD_KEYX_OBJECTCLASS,
      420    23161    1                                            %XSD_KEYX_ALIASOBJNAME,
      421    23162    1                                            %XSD_KEYX_KNOWINFO,
      422    23163    1                                            %XSD_KEYX_COMMONNAME,
      423    23164    1                                            %XSD_KEYX_SURNAME,
      424    23165    1                                            %XSD_KEYX_SERIAL#,
      425    23166    1                                            %XSD_KEYX_COUNTRYNAME,
      426    23167    1                                            %XSD_KEYX_LOCALITYNAME,
      427    23168    1                                            %XSD_KEYX_STATENAME,
      428    23169    1                                            %XSD_KEYX_STREETADDR,
      429    23170    1                                            %XSD_KEYX_ORGNAME,
      430    23171    1                                            %XSD_KEYX_ORGUNITNAME,
      431    23172    1                                            %XSD_KEYX_TITLE,
      432    23173    1                                            0,
      433    23174    1                                            0,
      434    23175    1                                            %XSD_KEYX_BUSINESSCAT,
      435    23176    1                                            0,
      436    23177    1                                            0,
      437    23178    1                                            0,
      438    23179    1                                            0,
      439    23180    1                                            0,
      440    23181    1                                            0,
      441    23182    1                                            0,
      442    23183    1                                            0,
      443    23184    1                                            0,
      444    23185    1                                            0,
      445    23186    1                                            0,
      446    23187    1                                            0,
      447    23188    1                                            0,
PL6.E3A0      #001=XSD$TABLE File=XSD_TABLE_D.:XSA1TSI                           WED 10/01/97 11:57 Page:41
      448    23189    1                                            0,
      449    23190    1                                            0,
      450    23191    1                                            0,
      451    23192    1                                            0,
      452    23193    1                                            0,
      453    23194    1                                            0,
      454    23195    1                                            0,
      455    23196    1                                            0,
      456    23197    1                                            0,
      457    23198    1                                            0,
      458    23199    1                                            0,
      459    23200    1                                            0);
      460    23201
      461    23202    1   END XSD$TABLE;
      462    23203

PL6.E3A0      #001=XSD$TABLE File=XSD_TABLE_D.:XSA1TSI                           WED 10/01/97 11:57 Page:42
--  Include file information  --

   CP_6_SUBS.:LIB_E05  is referenced.
   CP_6_C.:LIB_E05  is referenced.
   CP_6.:LIB_E05  cannot be made into a system file and is referenced.
   XSD_SUBS_C.:XSA1TOU  is referenced.
   XSD_MACRO_M.:XSA1TOU  is referenced.
      No diagnostics issued in procedure XSD$TABLE.
PL6.E3A0      #001=XSD$TABLE File=XSD_TABLE_D.:XSA1TSI                           WED 10/01/97 11:57 Page:43

 **** Variables and constants ****

  ****  Section 000  Data  XSD$TABLE

  ****  Scalars and arrays  ****
OctLoc.c.b A Datatyp(siz) R M Lvl/name                 OctLoc.c.b A Datatyp(siz) R M Lvl/name

   103-0-0/w STRC(288)   r     1 ALIAS                    233-0-0/w STRC(288)   r     1 APPLCENTITY
   223-0-0/w STRC(288)   r     1 APPLCPROC                273-0-0/w STRC(288)   r     1 CERTAUTH
   113-0-0/w STRC(288)   r     1 COUNTRY                  253-0-0/w STRC(288)   r     1 DEVICE
   243-0-0/w STRC(288)   r     1 DSA                      203-0-0/w STRC(288)   r     1 GROUPOFNAMES
   123-0-0/w STRC(288)   r     1 LOCALITY                 133-0-0/w STRC(288)   r     1 ORG
   163-0-0/w STRC(288)   r     1 ORGPERSON                173-0-0/w STRC(288)   r     1 ORGROLE
   143-0-0/w STRC(288)   r     1 ORGUNIT                  153-0-0/w STRC(288)   r     1 PERSON
   213-0-0/w STRC(288)   r     1 RESPERSON                263-0-0/w STRC(288)   r     1 STRONGAUTH
    73-0-0/w STRC(288)   r     1 TOP

  ****  Section 002 RoData XSD$TABLE

  ****  Scalars and arrays  ****
OctLoc.c.b A Datatyp(siz) R M Lvl/name                 OctLoc.c.b A Datatyp(siz) R M Lvl/name

    14-0-0/w STRC(468)   r     1 ALIASEDOBJECT            702-0-0/w STRC(504)   r     1 AUTHORITYREVLIST
   262-0-0/w STRC(432)   r     1 BUSINESSCAT              667-0-0/w STRC(396)   r     1 CACERT
   720-0-0/w STRC(504)   r     1 CERTIFICATEREVLIST        45-0-0/w STRC(432)   r     1 COMMONNAME
   107-0-0/w STRC(432)   r     1 COUNTYNAME               736-0-0/w STRC(432)   r     1 CROSSCERT
   233-0-0/w STRC(396)   r     1 DESC                     500-0-0/w STRC(396)   r     1 DESTIND
   416-0-0/w STRC(468)   r     1 FAXTELEPHONE#            447-0-0/w STRC(432)   r     1 INTISDN#
    31-0-0/w STRC(432)   r     1 KNOWINFO                 123-0-0/w STRC(468)   r     1 LOCALITYNAME
   561-0-0/w STRC(396)   r     1 MEMBER                     0-0-0/w STRC(432)   r     1 OBJECTCLASS
   171-0-0/w STRC(396)   r     1 ORGNAME                  204-0-0/w STRC(432)   r     1 ORUNITNAME
   574-0-0/w STRC(396)   r     1 OWNER                    337-0-0/w STRC(396)   r     1 PDON
   276-0-0/w STRC(396)   r     1 POADDR                   324-0-0/w STRC(396)   r     1 POBOX
   311-0-0/w STRC(396)   r     1 POCODE                   513-0-0/w STRC(468)   r     1 PREFDELIVERY
   530-0-0/w STRC(432)   r     1 PRESADDR                 463-0-0/w STRC(468)   r     1 REGISTEREDADDR
   607-0-0/w STRC(468)   r     1 ROLEOCCUPANT             246-0-0/w STRC(432)   r     1 SEARCHGUIDE
   624-0-0/w STRC(396)   r     1 SEEALSO                   74-0-0/w STRC(396)   r     1 SERIAL#
PL6.E3A0      #001=XSD$TABLE File=XSD_TABLE_D.:XSA1TSI                           WED 10/01/97 11:57 Page:44
   140-0-0/w STRC(432)   r     1 STATENAME                154-0-0/w STRC(468)   r     1 STREETADDRESS
   544-0-0/w STRC(468)   r     1 SUPPORTEDAPCON            61-0-0/w STRC(396)   r     1 SURNAME
   352-0-0/w STRC(432)   r     1 TELEPHONE#               401-0-0/w STRC(468)   r     1 TELETEXTERMID
   366-0-0/w STRC(396)   r     1 TELEX#                   220-0-0/w STRC(396)   r     1 TITLE
   653-0-0/w STRC(432)   r     1 USERCERT                 637-0-0/w STRC(432)   r     1 USERPASS
   433-0-0/w STRC(432)   r     1 X121ADDR


   No code generated for procedure XSD$TABLE .
   Procedure XSD$TABLE is declared NOAUTO and requires 748 words of local(STATIC) storage.

    No errors detected in file XSD_TABLE_D.:XSA1TSI    .
PL6.E3A0      #001=XSD$TABLE File=XSD_TABLE_D.:XSA1TSI                           WED 10/01/97 11:57 Page:45
          *** CROSS REFERENCE LISTING ***
**     DENOTES     IDENTIFIER DEFINITION
<<                 IDENTIFIER'S VALUE SET
>>                 IDENTIFIER'S VALUE USED
<>                 IDENTIFIER SET AND/OR USED
--                 IDENTIFIER REFERENCED
PL6.E3A0      #001=XSD$TABLE File=XSD_TABLE_D.:XSA1TSI                           WED 10/01/97 11:57 Page:46
          MINI XREF LISTING

ALIAS
     17611**DCL     17318--DCLINIT
ALIAS.MAYCB
     17681**DCL     17682--REDEF   17725--REDEF   17726--REDEF
ALIAS.MUSTCB
     17629**DCL     17630--REDEF   17673--REDEF   17674--REDEF
ALIASEDOBJECT
      7860**DCL      7566--DCLINIT
ALIASEDOBJECT.ATTRSYNTAX
      8026**DCL      8039--REDEF
APPLCENTITY
     19778**DCL     17329--DCLINIT
APPLCENTITY.MAYCB
     19848**DCL     19849--REDEF   19892--REDEF   19893--REDEF
APPLCENTITY.MUSTCB
     19796**DCL     19797--REDEF   19840--REDEF   19841--REDEF
APPLCPROC
     19581**DCL     17328--DCLINIT
APPLCPROC.MAYCB
     19651**DCL     19652--REDEF   19695--REDEF   19696--REDEF
APPLCPROC.MUSTCB
     19599**DCL     19600--REDEF   19643--REDEF   19644--REDEF
AUTHORITYREVLIST
     16617**DCL      7603--DCLINIT
AUTHORITYREVLIST.ATTRSYNTAX
     16783**DCL     16796--REDEF
BUSINESSCAT
     11177**DCL      7580--DCLINIT
BUSINESSCAT.ATTRSYNTAX
     11343**DCL     11356--REDEF
CACERT
     16381**DCL      7602--DCLINIT
PL6.E3A0      #001=XSD$TABLE File=XSD_TABLE_D.:XSA1TSI                           WED 10/01/97 11:57 Page:47
CACERT.ATTRSYNTAX
     16547**DCL     16560--REDEF
CERTAUTH
     20566**DCL     17333--DCLINIT
CERTAUTH.MAYCB
     20636**DCL     20637--REDEF   20680--REDEF   20681--REDEF
CERTAUTH.MUSTCB
     20584**DCL     20585--REDEF   20628--REDEF   20629--REDEF
CERTIFICATEREVLIST
     16853**DCL      7604--DCLINIT
CERTIFICATEREVLIST.ATTRSYNTAX
     17019**DCL     17032--REDEF
COMMONNAME
      8333**DCL      7568--DCLINIT
COMMONNAME.ATTRSYNTAX
      8499**DCL      8512--REDEF
COUNTRY
     17808**DCL     17319--DCLINIT
COUNTRY.MAYCB
     17878**DCL     17879--REDEF   17922--REDEF   17923--REDEF
COUNTRY.MUSTCB
     17826**DCL     17827--REDEF   17870--REDEF   17871--REDEF
COUNTYNAME
      9045**DCL      7571--DCLINIT
COUNTYNAME.ATTRSYNTAX
      9211**DCL      9224--REDEF
CROSSCERT
     17089**DCL      7605--DCLINIT
CROSSCERT.ATTRSYNTAX
     17255**DCL     17268--REDEF
DESC
     10704**DCL      7578--DCLINIT
DESC.ATTRSYNTAX
     10870**DCL     10883--REDEF
DESTIND
     14021**DCL      7592--DCLINIT
PL6.E3A0      #001=XSD$TABLE File=XSD_TABLE_D.:XSA1TSI                           WED 10/01/97 11:57 Page:48
DESTIND.ATTRSYNTAX
     14187**DCL     14200--REDEF
DEVICE
     20172**DCL     17331--DCLINIT
DEVICE.MAYCB
     20242**DCL     20243--REDEF   20286--REDEF   20287--REDEF
DEVICE.MUSTCB
     20190**DCL     20191--REDEF   20234--REDEF   20235--REDEF
DSA
     19975**DCL     17330--DCLINIT
DSA.MAYCB
     20045**DCL     20046--REDEF   20089--REDEF   20090--REDEF
DSA.MUSTCB
     19993**DCL     19994--REDEF   20037--REDEF   20038--REDEF
FAXTELEPHONE#
     13073**DCL      7588--DCLINIT
FAXTELEPHONE#.ATTRSYNTAX
     13239**DCL     13252--REDEF
GROUPOFNAMES
     19187**DCL     17326--DCLINIT
GROUPOFNAMES.MAYCB
     19257**DCL     19258--REDEF   19301--REDEF   19302--REDEF
GROUPOFNAMES.MUSTCB
     19205**DCL     19206--REDEF   19249--REDEF   19250--REDEF
INTISDN#
     13547**DCL      7590--DCLINIT
INTISDN#.ATTRSYNTAX
     13713**DCL     13726--REDEF
KNOWINFO
      8096**DCL      7567--DCLINIT
KNOWINFO.ATTRSYNTAX
      8262**DCL      8275--REDEF
LOCALITY
     18005**DCL     17320--DCLINIT
LOCALITY.MAYCB
     18075**DCL     18076--REDEF   18119--REDEF   18120--REDEF
PL6.E3A0      #001=XSD$TABLE File=XSD_TABLE_D.:XSA1TSI                           WED 10/01/97 11:57 Page:49
LOCALITY.MUSTCB
     18023**DCL     18024--REDEF   18067--REDEF   18068--REDEF
LOCALITYNAME
      9282**DCL      7572--DCLINIT
LOCALITYNAME.ATTRSYNTAX
      9448**DCL      9461--REDEF
MEMBER
     14965**DCL      7596--DCLINIT
MEMBER.ATTRSYNTAX
     15131**DCL     15144--REDEF
OBJECTCLASS
      7624**DCL      7565--DCLINIT
OBJECTCLASS.ATTRSYNTAX
      7790**DCL      7803--REDEF
ORG
     18202**DCL     17321--DCLINIT
ORG.MAYCB
     18272**DCL     18273--REDEF   18316--REDEF   18317--REDEF
ORG.MUSTCB
     18220**DCL     18221--REDEF   18264--REDEF   18265--REDEF
ORGNAME
      9993**DCL      7575--DCLINIT
ORGNAME.ATTRSYNTAX
     10159**DCL     10172--REDEF
ORGPERSON
     18793**DCL     17324--DCLINIT
ORGPERSON.MAYCB
     18863**DCL     18864--REDEF   18907--REDEF   18908--REDEF
ORGPERSON.MUSTCB
     18811**DCL     18812--REDEF   18855--REDEF   18856--REDEF
ORGROLE
     18990**DCL     17325--DCLINIT
ORGROLE.MAYCB
     19060**DCL     19061--REDEF   19104--REDEF   19105--REDEF
ORGROLE.MUSTCB
     19008**DCL     19009--REDEF   19052--REDEF   19053--REDEF
PL6.E3A0      #001=XSD$TABLE File=XSD_TABLE_D.:XSA1TSI                           WED 10/01/97 11:57 Page:50
ORGUNIT
     18399**DCL     17322--DCLINIT
ORGUNIT.MAYCB
     18469**DCL     18470--REDEF   18513--REDEF   18514--REDEF
ORGUNIT.MUSTCB
     18417**DCL     18418--REDEF   18461--REDEF   18462--REDEF
ORUNITNAME
     10230**DCL      7576--DCLINIT
ORUNITNAME.ATTRSYNTAX
     10396**DCL     10409--REDEF
OWNER
     15201**DCL      7597--DCLINIT
OWNER.ATTRSYNTAX
     15367**DCL     15380--REDEF
PDON
     12125**DCL      7584--DCLINIT
PDON.ATTRSYNTAX
     12291**DCL     12304--REDEF
PERSON
     18596**DCL     17323--DCLINIT
PERSON.MAYCB
     18666**DCL     18667--REDEF   18710--REDEF   18711--REDEF
PERSON.MUSTCB
     18614**DCL     18615--REDEF   18658--REDEF   18659--REDEF
POADDR
     11414**DCL      7581--DCLINIT
POADDR.ATTRSYNTAX
     11580**DCL     11593--REDEF
POBOX
     11888**DCL      7583--DCLINIT
POBOX.ATTRSYNTAX
     12054**DCL     12067--REDEF
POCODE
     11651**DCL      7582--DCLINIT
POCODE.ATTRSYNTAX
     11817**DCL     11830--REDEF
PL6.E3A0      #001=XSD$TABLE File=XSD_TABLE_D.:XSA1TSI                           WED 10/01/97 11:57 Page:51
PREFDELIVERY
     14257**DCL      7593--DCLINIT
PREFDELIVERY.ATTRSYNTAX
     14423**DCL     14436--REDEF
PRESADDR
     14493**DCL      7594--DCLINIT
PRESADDR.ATTRSYNTAX
     14659**DCL     14672--REDEF
REGISTEREDADDR
     13783**DCL      7591--DCLINIT
REGISTEREDADDR.ATTRSYNTAX
     13949**DCL     13962--REDEF
RESPERSON
     19384**DCL     17327--DCLINIT
RESPERSON.MAYCB
     19454**DCL     19455--REDEF   19498--REDEF   19499--REDEF
RESPERSON.MUSTCB
     19402**DCL     19403--REDEF   19446--REDEF   19447--REDEF
ROLEOCCUPANT
     15437**DCL      7598--DCLINIT
ROLEOCCUPANT.ATTRSYNTAX
     15603**DCL     15616--REDEF
SEARCHGUIDE
     10940**DCL      7579--DCLINIT
SEARCHGUIDE.ATTRSYNTAX
     11106**DCL     11119--REDEF
SEEALSO
     15673**DCL      7599--DCLINIT
SEEALSO.ATTRSYNTAX
     15839**DCL     15852--REDEF
SERIAL#
      8807**DCL      7570--DCLINIT
SERIAL#.ATTRSYNTAX
      8973**DCL      8986--REDEF
STATENAME
      9519**DCL      7573--DCLINIT
PL6.E3A0      #001=XSD$TABLE File=XSD_TABLE_D.:XSA1TSI                           WED 10/01/97 11:57 Page:52
STATENAME.ATTRSYNTAX
      9685**DCL      9698--REDEF
STREETADDRESS
      9756**DCL      7574--DCLINIT
STREETADDRESS.ATTRSYNTAX
      9922**DCL      9935--REDEF
STRONGAUTH
     20369**DCL     17332--DCLINIT
STRONGAUTH.MAYCB
     20439**DCL     20440--REDEF   20483--REDEF   20484--REDEF
STRONGAUTH.MUSTCB
     20387**DCL     20388--REDEF   20431--REDEF   20432--REDEF
SUPPORTEDAPCON
     14729**DCL      7595--DCLINIT
SUPPORTEDAPCON.ATTRSYNTAX
     14895**DCL     14908--REDEF
SURNAME
      8570**DCL      7569--DCLINIT
SURNAME.ATTRSYNTAX
      8736**DCL      8749--REDEF
TELEPHONE#
     12362**DCL      7585--DCLINIT
TELEPHONE#.ATTRSYNTAX
     12528**DCL     12541--REDEF
TELETEXTERMID
     12836**DCL      7587--DCLINIT
TELETEXTERMID.ATTRSYNTAX
     13002**DCL     13015--REDEF
TELEX#
     12599**DCL      7586--DCLINIT
TELEX#.ATTRSYNTAX
     12765**DCL     12778--REDEF
TITLE
     10467**DCL      7577--DCLINIT
TITLE.ATTRSYNTAX
     10633**DCL     10646--REDEF
PL6.E3A0      #001=XSD$TABLE File=XSD_TABLE_D.:XSA1TSI                           WED 10/01/97 11:57 Page:53
TOP
     17414**DCL     17317--DCLINIT
TOP.MAYCB
     17484**DCL     17485--REDEF   17528--REDEF   17529--REDEF
TOP.MUSTCB
     17432**DCL     17433--REDEF   17476--REDEF   17477--REDEF
USERCERT
     16145**DCL      7601--DCLINIT
USERCERT.ATTRSYNTAX
     16311**DCL     16324--REDEF
USERPASS
     15909**DCL      7600--DCLINIT
USERPASS.ATTRSYNTAX
     16075**DCL     16088--REDEF
X121ADDR
     13310**DCL      7589--DCLINIT
X121ADDR.ATTRSYNTAX
     13476**DCL     13489--REDEF
PL6.E3A0      #001=XSD$TABLE File=XSD_TABLE_D.:XSA1TSI                           WED 10/01/97 11:57 Page:54
              *** CROSS REFERENCE LISTING ***
    **     DENOTES     IDENTIFIER DEFINITION
    <<                 IDENTIFIER'S VALUE SET
    >>                 IDENTIFIER'S VALUE USED
    <>                 IDENTIFIER SET AND/OR USED
    --                 IDENTIFIER REFERENCED
PL6.E3A0      #001=XSD$TABLE File=XSD_TABLE_D.:XSA1TSI                           WED 10/01/97 11:57 Page:55
              MINI UREF LISTING

M$ACCT    6968**DCL-ENT
M$ACTIVATE    6971**DCL-ENT
M$ALIB    6964**DCL-ENT
M$ASUSER    6966**DCL-ENT
M$ATTACH    6973**DCL-ENT
M$BADPP    6991**DCL-ENT
M$CGCTL    6972**DCL-ENT
M$CGINFO    6972**DCL-ENT
M$CHECK    6953**DCL-ENT
M$CHGUNIT    7011**DCL-ENT
M$CLOSE    6951**DCL-ENT
M$CLRSTK    7009**DCL-ENT
M$CMDVAR    7020**DCL-ENT
M$CONFIG    6981**DCL-ENT
M$CORRES    6956**DCL-ENT
M$CPEXIT    6965**DCL-ENT
M$CVM    6989**DCL-ENT
M$CVOL    6954**DCL-ENT
M$DCLFLD    6981**DCL-ENT
M$DEACTIVATE    6971**DCL-ENT
M$DELREC    6953**DCL-ENT
M$DEQ    7018**DCL-ENT
M$DETACH    6973**DCL-ENT
M$DEVICE    6955**DCL-ENT
M$DISPLAY    7018**DCL-ENT
M$DISPRES    6958**DCL-ENT
M$DLIB    6964**DCL-ENT
M$DRIBBLE    6981**DCL-ENT
M$DRTN    7009**DCL-ENT
M$DSUSER    6966**DCL-ENT
M$ENQ    7017**DCL-ENT
M$EOM    6976**DCL-ENT
PL6.E3A0      #001=XSD$TABLE File=XSD_TABLE_D.:XSA1TSI                           WED 10/01/97 11:57 Page:56
M$ERASE    6982**DCL-ENT
M$ERR    6963**DCL-ENT
M$ERRMSG    7014**DCL-ENT
M$EVENT    7006**DCL-ENT
M$EXHUME    7015**DCL-ENT
M$EXIT    6963**DCL-ENT
M$EXTEND    6955**DCL-ENT
M$FDP    6987**DCL-ENT
M$FDS    6986**DCL-ENT
M$FEBOOT    6979**DCL-ENT
M$FECTL    6980**DCL-ENT
M$FEDUMP    6979**DCL-ENT
M$FID    7014**DCL-ENT
M$FINDPROC    6968**DCL-ENT
M$FSUSER    6966**DCL-ENT
M$FVP    6988**DCL-ENT
M$FWCG    6972**DCL-ENT
M$GBPL    6992**DCL-ENT
M$GDDL    6988**DCL-ENT
M$GDP    6987**DCL-ENT
M$GDS    6986**DCL-ENT
M$GETDCB    6957**DCL-ENT
M$GETMOUSE    6997**DCL-ENT
M$GETPM    6998**DCL-ENT
M$GJOB    7016**DCL-ENT
M$GLINEATTR    6976**DCL-ENT
M$GOODPP    6991**DCL-ENT
M$GPLATEN    6984**DCL-ENT
M$GPROMPT    6983**DCL-ENT
M$GTRMATTR    6977**DCL-ENT
M$GTRMCTL    6975**DCL-ENT
M$GTRMTAB    6978**DCL-ENT
M$GVP    6987**DCL-ENT
M$HELP    7014**DCL-ENT
M$INT    7006**DCL-ENT
M$INTRTN    6967**DCL-ENT
PL6.E3A0      #001=XSD$TABLE File=XSD_TABLE_D.:XSA1TSI                           WED 10/01/97 11:57 Page:57
M$IOQ    7002**DCL-ENT
M$JOBSTATS    7016**DCL-ENT
M$KEYIN    6956**DCL-ENT
M$LDEV    6951**DCL-ENT
M$LDTRC    6964**DCL-ENT
M$LIMIT    6957**DCL-ENT
M$LINES    6956**DCL-ENT
M$LINK    6963**DCL-ENT
M$MADMUCK    6959**DCL-ENT
M$MAKUSER    6990**DCL-ENT
M$MBS    6958**DCL-ENT
M$MDFFLD    6982**DCL-ENT
M$MERC    7007**DCL-ENT
M$MERCS    7008**DCL-ENT
M$MIRROR    7002**DCL-ENT
M$MONINFO    7019**DCL-ENT
M$MPL    6992**DCL-ENT
M$NODEINFO    6983**DCL-ENT
M$NXTUSR    7017**DCL-ENT
M$OCMSG    7015**DCL-ENT
M$OLAY    6963**DCL-ENT
M$OPEN    6951**DCL-ENT
M$PAS    6992**DCL-ENT
M$PATHCON    7015**DCL-ENT
M$PDS    6986**DCL-ENT
M$PFIL    6953**DCL-ENT
M$PLATEN    6977**DCL-ENT
M$PRECORD    6955**DCL-ENT
M$PROCNAME    6968**DCL-ENT
M$PROFILE    6979**DCL-ENT
M$PROMPT    6975**DCL-ENT
M$RACST    6959**DCL-ENT
M$RDSYSLOG    7000**DCL-ENT
M$READ    6952**DCL-ENT
M$RELDCB    6957**DCL-ENT
M$RELRES    6958**DCL-ENT
PL6.E3A0      #001=XSD$TABLE File=XSD_TABLE_D.:XSA1TSI                           WED 10/01/97 11:57 Page:58
M$RELSTARF    6960**DCL-ENT
M$REM    6960**DCL-ENT
M$RENV    7007**DCL-ENT
M$REQUIRE    6959**DCL-ENT
M$RETRY    7008**DCL-ENT
M$RETRYS    7008**DCL-ENT
M$REW    6954**DCL-ENT
M$RLSFLD    6982**DCL-ENT
M$RPRIV    7010**DCL-ENT
M$RSPP    6989**DCL-ENT
M$RSWITCH    7011**DCL-ENT
M$RUE    7017**DCL-ENT
M$SAD    6990**DCL-ENT
M$SAVE    6966**DCL-ENT
M$SCON    6967**DCL-ENT
M$SCREECH    6965**DCL-ENT
M$SENV    7007**DCL-ENT
M$SETFMA    6951**DCL-ENT
M$SETFP    6980**DCL-ENT
M$SINPUT    6978**DCL-ENT
M$SLCFLD    6983**DCL-ENT
M$SMOUSE    6997**DCL-ENT
M$SMPRT    6989**DCL-ENT
M$SPRIV    7010**DCL-ENT
M$SSC    6990**DCL-ENT
M$SSWITCH    7010**DCL-ENT
M$STATE    7019**DCL-ENT
M$STD    6991**DCL-ENT
M$STIMER    7005**DCL-ENT
M$STLPP    6988**DCL-ENT
M$STRAP    7005**DCL-ENT
M$STRMATTR    6977**DCL-ENT
M$STRMCTL    6975**DCL-ENT
M$STRMTAB    6978**DCL-ENT
M$SYMBIO    7016**DCL-ENT
M$SYSCON    7002**DCL-ENT
PL6.E3A0      #001=XSD$TABLE File=XSD_TABLE_D.:XSA1TSI                           WED 10/01/97 11:57 Page:59
M$SYSID    7020**DCL-ENT
M$TDCLOSE    7001**DCL-ENT
M$TDIO    7001**DCL-ENT
M$TDOPEN    7000**DCL-ENT
M$TDREQCPU    7001**DCL-ENT
M$TEMPWROC    6995**DCL-ENT
M$TIME    7018**DCL-ENT
M$TRAP    7005**DCL-ENT
M$TRMISC    6980**DCL-ENT
M$TRMPRG    6976**DCL-ENT
M$TRTN    7009**DCL-ENT
M$TRUNC    6952**DCL-ENT
M$TTIMER    7005**DCL-ENT
M$UC    6975**DCL
M$UMPL    6992**DCL-ENT
M$UNFID    7014**DCL-ENT
M$UNLATCH    6971**DCL-ENT
M$UNSHARE    6968**DCL-ENT
M$USRFIELD    7011**DCL-ENT
M$VIRTUAL    6986**DCL-ENT
M$WAIT    7009**DCL-ENT
M$WEOF    6954**DCL-ENT
M$WRITE    6952**DCL-ENT
M$WRSYSLOG    7000**DCL-ENT
M$XCON    7006**DCL-ENT
M$XCONRTN    6967**DCL-ENT
M$XEQTIME    7019**DCL-ENT
M$XFLUSH    6960**DCL-ENT
M$XMOUSE    6997**DCL-ENT
M$XXX    6963**DCL-ENT
M$YC    6965**DCL-ENT
XSD$ATTR_TBL$    7564**DCL
XSD$OBJECT_TBL$   17316**DCL
XSD$TABLE      19**PROC
XSD_ATTRKEYX   23159**DCL
XSD_ATTRRECX   23064**DCL
PL6.E3A0      #001=XSD$TABLE File=XSD_TABLE_D.:XSA1TSI                           WED 10/01/97 11:57 Page:60
XSD_DIBBUF   23013**DCL
XSD_DIBKEY   22977**DCL
XSD_IRKEYS   20718**DCL
XSD_IRREC   20699**DCL
XSD_RECFIELD   20738**DCL
XSD_RECXATTR   23108**DCL
