PL6.E3A0      #002=XSP$RECV File=XSP$ASN1.:XSA1TSI                               WED 10/01/97 11:59 Page:249
     1088        1        /*T***********************************************************/
     1089        2        /*T*                                                         */
     1090        3        /*T* Copyright (c) Bull HN Information Systems Inc., 1997    */
     1091        4        /*T*                                                         */
     1092        5        /*T***********************************************************/
     1093        6        XSP$RECV: PROC (FPT) ALTRET;
     1094        7
     1095        8        %INCLUDE XSP_ASN1_M;
     1096      354        %XSP_ASN1_FPT (FPTN=FPT, STCLASS=PARAM);
     1097      374        %XSP_ASN1_FPT (FPTN=BFPT, STCLASS="BASED(PARM.P.FPT$)");
     1098      394        %XSP$ASN1_PARM (NAME=PARM, STCLASS=AUTO);
     1099      420        %XSP$ASN1_PARM (STCLASS=CONSTANT);
     1100      446
     1101      447    1   DCL XSP$RECV1 ENTRY(1) ALTRET;
     1102      448    1   DCL XSP$SEND1 ENTRY(1) ALTRET;
     1103      449
     1104      450    1      CALL SETPARM;
     1105      451    1      CALL XSP$RECV1 (PARM) ALTRET(RETALT);
     1106      452    1      GOTO RETRET;
     1107      453
     1108      454    1   XSP$SEND: ENTRY (FPT) ALTRET;
     1109      455
     1110      456    1      CALL SETPARM;
     1111      457    1      REMEMBER RETALT IN PARM.ABORT;
     1112      458    1      CALL XSP$SEND1 (PARM) ALTRET(RETALT);
     1113      459
     1114      460    1   RETRET:;
     1115      461    1      BFPT.NXTX = PARM.NXTX;
     1116      462    1      RETURN;
     1117      463
     1118      464    1   SETPARM: PROC;
     1119      465    2      PARM = XSP$ASN1_PARM;
     1120      466    2      PARM.P.FPT$ = ADDR(FPT);
     1121      467    2      PARM.P.NODE$ = FPT.TOPNODE$;
     1122      468    2      PARM.P.BUF$ = FPT.BUF$;
     1123      469    2      PARM.MAXX = FPT.NXTX;
     1124      470    2   END SETPARM;
PL6.E3A0      #002=XSP$RECV File=XSP$ASN1.:XSA1TSI                               WED 10/01/97 11:59 Page:250
     1125      471
     1126      472    1   RETALT: BFPT.ERR = PARM.ERR;
     1127      473    1      BFPT.NXTX = PARM.NXTX;
     1128      474    1      ALTRETURN;
     1129      475    1   END XSP$RECV;

PL6.E3A0      #002=XSP$RECV File=XSP$ASN1.:XSA1TSI                               WED 10/01/97 11:59 Page:251
--  Include file information  --

   XSP_ASN1_M.:XSA1TOU  is referenced.
      No diagnostics issued in procedure XSP$RECV.

   Procedure XSP$RECV requires 49 words for executable code.
   Procedure XSP$RECV requires 22 words of local(AUTO) storage.

    No errors detected in file XSP$ASN1.:XSA1TSI    .

PL6.E3A0      #002=XSP$RECV File=XSP$ASN1.:XSA1TSI                               WED 10/01/97 11:59 Page:252

 Object Unit name= XSP$RECV                                   File name= XSP$ASN1.:XSA1TOU
 UTS= OCT 01 '97 11:59:05.96 WED                              Compiler= PL-6/E31         Sev=      00
 SharedLib= :SHARED_SYSTEM                                    Alt SharedLib=


    ****  Control sections  ****

 Sect   Type Bound  Init  Size OctSiz  Section name(segment info)
    0  RoData even  UTS     14     16  XSP$RECV
    1   Proc  even  none    49     61  XSP$RECV
    2  RoData even  none     1      1  XSP$RECV

    ****  Entry defs  ****

                              Check   Calling
                             calling  sequence
  Sect OctLoc Primary Altret sequence   type   Parms  Name
     1      0   yes    yes     yes      Std        1  XSP$RECV
     1     13          yes     yes      Std        1  XSP$SEND

  ****  Entry refs  ****

         Check        Calling
        calling       sequence
Altret sequence SRef   type   Args  Name
 yes     yes           Std       1 XSP$RECV1
 yes     yes           Std       1 XSP$SEND1
                       nStd      0 X66_AUTO_1
                       nStd      0 X66_ARET
                       nStd      0 X66_AALT

  ****  Segment refs  ****

  Flags:  r = read only, s = secondary
Flgs Name                             Flgs Name                             Flgs Name
     NULLSID
PL6.E3A0      #002=XSP$RECV File=XSP$ASN1.:XSA1TSI                               WED 10/01/97 11:59 Page:253


     1088        1        /*T***********************************************************/
     1089        2        /*T*                                                         */
     1090        3        /*T* Copyright (c) Bull HN Information Systems Inc., 1997    */
     1091        4        /*T*                                                         */
     1092        5        /*T***********************************************************/
     1093        6        XSP$RECV: PROC (FPT) ALTRET;

      6  1 000000   000000 700200 xent  XSP$RECV     TSX0  ! X66_AUTO_1
         1 000001   000026 000001                    ZERO    22,1

     1094        7
     1095        8        %INCLUDE XSP_ASN1_M;
     1096      354        %XSP_ASN1_FPT (FPTN=FPT, STCLASS=PARAM);
     1097      374        %XSP_ASN1_FPT (FPTN=BFPT, STCLASS="BASED(PARM.P.FPT$)");
     1098      394        %XSP$ASN1_PARM (NAME=PARM, STCLASS=AUTO);
     1099      420        %XSP$ASN1_PARM (STCLASS=CONSTANT);
     1100      446
     1101      447    1   DCL XSP$RECV1 ENTRY(1) ALTRET;
     1102      448    1   DCL XSP$SEND1 ENTRY(1) ALTRET;
     1103      449
     1104      450    1      CALL SETPARM;

    450  1 000002   000034 701000 1                  TSX1    SETPARM
         1 000003   000000 011000                    NOP     0

     1105      451    1      CALL XSP$RECV1 (PARM) ALTRET(RETALT);

    451  1 000004   200004 630500                    EPPR0   PARM,,AUTO
         1 000005   200024 450500                    STP0    PARM+16,,AUTO
         1 000006   200024 630500                    EPPR0   PARM+16,,AUTO
         1 000007   000000 631400 2                  EPPR1   0
         1 000010   000000 701000 xent               TSX1    XSP$RECV1
         1 000011   000052 702000 1                  TSX2    RETALT

     1106      452    1      GOTO RETRET;

PL6.E3A0      #002=XSP$RECV File=XSP$ASN1.:XSA1TSI                               WED 10/01/97 11:59 Page:254
    452  1 000012   000030 710000 1                  TRA     RETRET

     1107      453
     1108      454    1   XSP$SEND: ENTRY (FPT) ALTRET;

    454  1 000013   000000 700200 xent  XSP$SEND     TSX0  ! X66_AUTO_1
         1 000014   000026 000001                    ZERO    22,1

     1109      455
     1110      456    1      CALL SETPARM;

    456  1 000015   000034 701000 1                  TSX1    SETPARM
         1 000016   000000 011000                    NOP     0

     1111      457    1      REMEMBER RETALT IN PARM.ABORT;

    457  1 000017   000052 635000 1                  EAA     RETALT
         1 000020   200012 452500                    STP2    PARM+6,,AUTO
         1 000021   200013 755100                    STA     PARM+7,,AUTO

     1112      458    1      CALL XSP$SEND1 (PARM) ALTRET(RETALT);

    458  1 000022   200004 630500                    EPPR0   PARM,,AUTO
         1 000023   200024 450500                    STP0    PARM+16,,AUTO
         1 000024   200024 630500                    EPPR0   PARM+16,,AUTO
         1 000025   000000 631400 2                  EPPR1   0
         1 000026   000000 701000 xent               TSX1    XSP$SEND1
         1 000027   000052 702000 1                  TSX2    RETALT

    450  1 000030                       RETRET       null
     1113      459
     1114      460    1   RETRET:;
     1115      461    1      BFPT.NXTX = PARM.NXTX;

    461  1 000030   200006 470500                    LDP0    PARM+2,,AUTO
         1 000031   200015 235100                    LDA     PARM+9,,AUTO
         1 000032   000014 755100                    STA     12,,PR0
PL6.E3A0      #002=XSP$RECV File=XSP$ASN1.:XSA1TSI                               WED 10/01/97 11:59 Page:255

     1116      462    1      RETURN;

    462  1 000033   000000 702200 xent               TSX2  ! X66_ARET

     1117      463
     1118      464    1   SETPARM: PROC;

    464  1 000034   200022 741300       SETPARM      STX1  ! PARM+14,,AUTO

     1119      465    2      PARM = XSP$ASN1_PARM;

    465  1 000035   000100 100400                    MLR     fill='000'O
         1 000036   000000 000064 0                  ADSC9   XSP$ASN1_PARM            cn=0,n=52
         1 000037   200004 000064                    ADSC9   PARM,,AUTO               cn=0,n=52

     1120      466    2      PARM.P.FPT$ = ADDR(FPT);

    466  1 000040   200003 236100                    LDQ     @FPT,,AUTO
         1 000041   200006 756100                    STQ     PARM+2,,AUTO

     1121      467    2      PARM.P.NODE$ = FPT.TOPNODE$;

    467  1 000042   200003 470500                    LDP0    @FPT,,AUTO
         1 000043   000000 236100                    LDQ     0,,PR0
         1 000044   200004 756100                    STQ     PARM,,AUTO

     1122      468    2      PARM.P.BUF$ = FPT.BUF$;

    468  1 000045   000001 236100                    LDQ     1,,PR0
         1 000046   200005 756100                    STQ     PARM+1,,AUTO

     1123      469    2      PARM.MAXX = FPT.NXTX;

    469  1 000047   000014 235100                    LDA     12,,PR0
         1 000050   200020 755100                    STA     PARM+12,,AUTO

PL6.E3A0      #002=XSP$RECV File=XSP$ASN1.:XSA1TSI                               WED 10/01/97 11:59 Page:256
     1124      470    2   END SETPARM;

    470  1 000051   000001 702211                    TSX2  ! 1,X1

     1125      471
     1126      472    1   RETALT: BFPT.ERR = PARM.ERR;

    472  1 000052   200014 235100       RETALT       LDA     PARM+8,,AUTO
         1 000053   200006 470500                    LDP0    PARM+2,,AUTO
         1 000054   000003 755100                    STA     3,,PR0

     1127      473    1      BFPT.NXTX = PARM.NXTX;

    473  1 000055   200006 470500                    LDP0    PARM+2,,AUTO
         1 000056   200015 235100                    LDA     PARM+9,,AUTO
         1 000057   000014 755100                    STA     12,,PR0

     1128      474    1      ALTRETURN;

    474  1 000060   000000 702200 xent               TSX2  ! X66_AALT

XSP$ASN1_PARM
 Sect OctLoc
   0     000   000000 006014   000000 006014   000000 006014   000000 006014    ................
   0     004   000000 006014   10*000 ******   ****** ******   ****** ******    ....@...........
   0     010   000000 000000   000000 000000   000000 000000   000000 000000    ................
   0     014   000000 000000                                                    ....

(unnamed)
 Sect OctLoc
   2     000   000001 000000                                                    ....
     1129      475    1   END XSP$RECV;

PL6.E3A0      #002=XSP$RECV File=XSP$ASN1.:XSA1TSI                               WED 10/01/97 11:59 Page:257
--  Include file information  --

   XSP_ASN1_M.:XSA1TOU  is referenced.
      No diagnostics issued in procedure XSP$RECV.
PL6.E3A0      #002=XSP$RECV File=XSP$ASN1.:XSA1TSI                               WED 10/01/97 11:59 Page:258

 **** Variables and constants ****

  ****  Section 000 RoData XSP$RECV

  ****  Scalars and arrays  ****
OctLoc.c.b A Datatyp(siz) R M Lvl/name                 OctLoc.c.b A Datatyp(siz) R M Lvl/name

     0-0-0/d STRC(468)   r     1 XSP$ASN1_PARM

  ****  Auto variables  ****

  ****  Scalars and arrays  ****
OctLoc.c.b A Datatyp(siz) R M Lvl/name                 OctLoc.c.b A Datatyp(siz) R M Lvl/name

     3-0-0/w PTR         r     1 @FPT                      *0-0-0/w STRC(504)   r     1 FPT
     4-0-0/d STRC(468)   r     1 PARM

  ****  BASED and DCB variables  ****

  ****  Scalars and arrays  ****
OctLoc.c.b A Datatyp(siz) R M Lvl/name                 OctLoc.c.b A Datatyp(siz) R M Lvl/name

     0-0-0/w STRC(504)   r     1 BFPT


   Procedure XSP$RECV requires 49 words for executable code.
   Procedure XSP$RECV requires 22 words of local(AUTO) storage.

    No errors detected in file XSP$ASN1.:XSA1TSI    .
PL6.E3A0      #002=XSP$RECV File=XSP$ASN1.:XSA1TSI                               WED 10/01/97 11:59 Page:259
          *** CROSS REFERENCE LISTING ***
**     DENOTES     IDENTIFIER DEFINITION
<<                 IDENTIFIER'S VALUE SET
>>                 IDENTIFIER'S VALUE USED
<>                 IDENTIFIER SET AND/OR USED
--                 IDENTIFIER REFERENCED
PL6.E3A0      #002=XSP$RECV File=XSP$ASN1.:XSA1TSI                               WED 10/01/97 11:59 Page:260
          MINI XREF LISTING

BFPT.C0
       390**DCL       390--REDEF
BFPT.DAT$
       392**DCL       392--REDEF
BFPT.ERR
       389**DCL       472<<ASSIGN
BFPT.N0
       391**DCL       391--REDEF
BFPT.NXTX
       391**DCL       461<<ASSIGN    473<<ASSIGN
BFPT.R0
       389**DCL       390--REDEF
FPT
       364**DCL         6--PROC      454--ENTRY     466--ASSIGN
FPT.BUF$
       368**DCL       468>>ASSIGN
FPT.C0
       370**DCL       370--REDEF
FPT.DAT$
       372**DCL       372--REDEF
FPT.N0
       371**DCL       371--REDEF
FPT.NXTX
       371**DCL       469>>ASSIGN
FPT.R0
       369**DCL       370--REDEF
FPT.TOPNODE$
       368**DCL       467>>ASSIGN
PARM
       407**DCL       451<>CALL      458<>CALL      465<<ASSIGN
PARM.ABORT
       416**DCL       457<<REMEMBR
PL6.E3A0      #002=XSP$RECV File=XSP$ASN1.:XSA1TSI                               WED 10/01/97 11:59 Page:261
PARM.ERR
       416**DCL       472>>ASSIGN
PARM.MAXX
       416**DCL       469<<ASSIGN
PARM.NXTX
       416**DCL       461>>ASSIGN    473>>ASSIGN
PARM.P.BUF$
       412**DCL       468<<ASSIGN
PARM.P.FPT$
       412**DCL       384--IMP-PTR   461>>ASSIGN    466<<ASSIGN    472>>ASSIGN    473>>ASSIGN
PARM.P.NODE$
       412**DCL       467<<ASSIGN
RETALT
       472**LABEL     451--CALLALT   457--REMEMBR   458--CALLALT
RETRET
       450**LABEL     452--GOTO
SETPARM
       464**PROC      450--CALL      456--CALL
XSP$ASN1_PARM
       433**DCL       465>>ASSIGN
XSP$RECV1
       447**DCL-ENT   451--CALL
XSP$SEND1
       448**DCL-ENT   458--CALL
PL6.E3A0      #002=XSP$RECV File=XSP$ASN1.:XSA1TSI                               WED 10/01/97 11:59 Page:262
              *** CROSS REFERENCE LISTING ***
    **     DENOTES     IDENTIFIER DEFINITION
    <<                 IDENTIFIER'S VALUE SET
    >>                 IDENTIFIER'S VALUE USED
    <>                 IDENTIFIER SET AND/OR USED
    --                 IDENTIFIER REFERENCED
PL6.E3A0      #002=XSP$RECV File=XSP$ASN1.:XSA1TSI                               WED 10/01/97 11:59 Page:263
              MINI UREF LISTING

XSP$RECV       6**PROC
XSP$SEND     454**ENTRY
