PL6.E3A0      #002=XSP$SRECV File=XSP$DECODE.:XSA1TSI                            WED 10/01/97 12:01 Page:185
      922        1        /*T***********************************************************/
      923        2        /*T*                                                         */
      924        3        /*T* Copyright (c) Bull HN Information Systems Inc., 1997    */
      925        4        /*T*                                                         */
      926        5        /*T***********************************************************/
      927        6        /*F*    NAME:   XSP$SRECV
      928        7                DESCRIPTION:
      929        8                    This is the interface routine for messages traveling up the
      930        9                    comm layers from Session to Presentation.
      931       10
      932       11                    If this is a connection attempt, we allocate a new connection
      933       12                    context.  In any case we initialize a VBLK, decode the PPDU and
      934       13                    any enclosed User Data, and enter the state machine.
      935       14        */
      936       15        XSP$SRECV: PROC( SFPT) ALTRET;
      937       16        %INCLUDE XSS_SESSION_E;
      938      581        %INCLUDE XSS_SESSION_M;
      939     3224            %XSS$PRIMITIVES( STCLASS="BASED( SFPT$)");
      940     6603            %XSS$GENERIC( FPTN=SFPT, STCLASS="");
      941     6749        %INCLUDE XSP_PRESENTATION_E;
      942     6848        %INCLUDE XSP_PRESENTATION_M;
      943     8334            %XSP$GENERIC( FPTN=PFPT, STCLASS=AUTO);
      944     8430            %XSP$PRIMITIVES( STCLASS="BASED( PFPT$)");
      945    10129            %XSP_PRIMITIVES( STCLASS=SYMREF);
      946    11828        %INCLUDE XSP_INTERNAL_E;
      947    12102        %INCLUDE XSP_INTERNAL_M;
      948    12763            %XSP$PCTX( NAME=PCTX, STCLASS="BASED( CTX$)");
      949    12919            %XSP$VBLK( NAME=VBLK, STCLASS=AUTO);
      950    13065            %XSP$VBLK( NAME=XSP_VBLK, STCLASS=SYMREF);
      951    13211        %INCLUDE K_ADDRESS_M;
      952    13714        %INCLUDE XSC_COMMON_M;
      953    14367            %XSC$ADDRESS( NAME=SRCADDR, STCLASS=AUTO);
      954    14650            %XSC$ADDRESS( NAME=DSTADDR, STCLASS=AUTO);
      955    14933            %XSC$CCB;
      956    15230        %INCLUDE XSP_ASN1_M;
      957    15576            %XSP_ASN1_FPT( STCLASS=CONSTANT);
      958    15596            %XSP_ASN1_FPT( FPTN=AFPT, STCLASS="BASED( AFPT$)");
PL6.E3A0      #002=XSP$SRECV File=XSP$DECODE.:XSA1TSI                            WED 10/01/97 12:01 Page:186
      959    15616        %INCLUDE UM_CP6;
      960    16468        %MACRO FATALDEF( NAME=XSP_FATAL, STCLASS="CONSTANT SYMDEF", LVL=1, LAST=";",
      961    16469                         ERR#=0, SEV=7);
      962    16470            %VLP_ERRCODE( FPTN=NAME, STCLASS=STCLASS, FCG='XS', MID='P',
      963    16471                          MON='0'B, ERR#=ERR#, SEV=SEV);
      964    16472        %MEND;
      965    16473        %INCLUDE XSC_PERR_C;
      966    16550            %FATALDEF( NAME=XSP_F$NOSCID, ERR#=%F$NOSCID);
      967    16598            /*E*  ERROR:  XSP-F$NOSCID-7
      968    16599                MESSAGE:  Session didn't supply a SCID.
      969    16600            */
      970    16601
      971    16602    1       DCL XSP$CTXPTR ENTRY(2) ALTRET;
      972    16603    1       DCL XSP$DECODE ENTRY(2) ALTRET;
      973    16604    1       DCL XSP$GETCTX ENTRY(2) ALTRET;
      974    16605    1       DCL XSP$MACHINE ENTRY(1) ALTRET;
      975    16606    1       DCL XSS$GETMEM ENTRY(3) ALTRET;
      976    16607    1       DCL XSS$RELMEM ENTRY(1) ALTRET;
      977    16608    1       DCL XSS$SCREECH ENTRY(1);
      978    16609
      979    16610    1       DCL XSS_CCB$$ PTR SYMREF;
      980    16611
      981    16612    1       DCL ABORTING BIT(1);
      982    16613    1       DCL AFPT$ PTR;
      983    16614    1       DCL BLKX UBIN HALF HALIGNED;
      984    16615    1       DCL CCB$(0:0) PTR BASED( XSS_CCB$$) ALIGNED;
      985    16616    1       DCL CTX$ PTR;
      986    16617    1       DCL I SBIN;
      987    16618    1       DCL PCID SBIN;
      988    16619    1       DCL PFPT$ PTR;
      989    16620    1       DCL SFPT$ PTR;
      990    16621    1       DCL TMPCTXT(0:%XSP_MAX_DATANUM) SBIN AUTO;
      991    16622    1       DCL XSP_DATANUM SBIN STATIC SYMDEF;
      992    16623    1       DCL XSP_DATABUF$(0:%XSP_MAX_DATANUM) PTR STATIC SYMDEF;
      993    16624    1       DCL XSP_DATACTXT(0:%XSP_MAX_DATANUM) UBIN BYTE STATIC SYMDEF CALIGNED;
      994    16625    1       DCL XSP_DATASIZE(0:%XSP_MAX_DATANUM) SBIN STATIC SYMDEF;
      995    16626    1       DCL XSP_DSTADDR$ PTR STATIC SYMDEF;
PL6.E3A0      #002=XSP$SRECV File=XSP$DECODE.:XSA1TSI                            WED 10/01/97 12:01 Page:187
      996    16627    1       DCL XSP_SRCADDR$ PTR STATIC SYMDEF;
      997    16628    1       DCL XSP_TMPCTXT$ PTR STATIC SYMDEF;
      998    16629
      999    16630    1       SFPT$ = ADDR( SFPT);
     1000    16631    2       IF XSS$GENERIC.SCID ~= 0 THEN DO;
     1001    16632    2           PCID = XSS$GENERIC.SCID;
     1002    16633    2           CALL XSP$CTXPTR( PCID, CTX$)
     1003    16634    3           WHENALTRETURN DO;
     1004    16635                    /* This appears to be an incoming connection attempt */
     1005    16636    3               CALL XSP$GETCTX( CTX$, PCID)
     1006    16637    4               WHENALTRETURN DO;
     1007    16638    4                   ALTRETURN;  /* reject connect attempt */
     1008    16639    4                   END;
     1009    16640    3               PCTX.ENTRY$ = CCB$( PCID)->XSC$CCB.PRES$;  /* inherit entry */
     1010    16641    3               END;
     1011    16642    2           END;
     1012    16643    1       ELSE
     1013    16644                /* SCID not filled in.  Session blew it. */
     1014    16645    1           CALL XSS$SCREECH( XSP_F$NOSCID);
     1015    16646    1       PFPT$ = ADDR( PFPT);
     1016    16647    1       VBLK = XSP_VBLK;
     1017    16648    1       VBLK.CTX$ = CTX$;
     1018    16649    1       VBLK.FPT$ = PFPT$;
     1019    16650    1       VBLK.DATA = XSS$GENERIC.DATA;
     1020    16651    1       XSP_DATANUM = 0;
     1021    16652            /* set up the corresponding event and Presentation FPT */
     1022    16653    2       DO CASE( XSS$GENERIC.FNC);
     1023    16654    2           CASE( %XSS_FNC_SACDIND#);
     1024    16655    2               XSP$ACTIVITY_DISCARD = XSP_ACTIVITY_DISCARD;
     1025    16656    2               XSP$ACTIVITY_DISCARD.FNC = %XSP_FNC_PACDIND#;
     1026    16657    2               XSP$ACTIVITY_DISCARD.REASON = XSS$ACTIVITY_DISCARD.REASON;
     1027    16658    2               VBLK.EVENT = %XSP_PEV_SACDIND;
     1028    16659    2           CASE( %XSS_FNC_SACDCNF#);
     1029    16660    2               XSP$ACTIVITY_DISCARD = XSP_ACTIVITY_DISCARD;
     1030    16661    2               XSP$ACTIVITY_DISCARD.FNC = %XSP_FNC_PACDCNF#;
     1031    16662    2               XSP$ACTIVITY_DISCARD.REASON = XSS$ACTIVITY_DISCARD.REASON;
     1032    16663    2               VBLK.EVENT = %XSP_PEV_SACDCNF;
PL6.E3A0      #002=XSP$SRECV File=XSP$DECODE.:XSA1TSI                            WED 10/01/97 12:01 Page:188
     1033    16664    2           CASE( %XSS_FNC_SACEIND#);
     1034    16665    2               XSP$ACTIVITY_END = XSP_ACTIVITY_END;
     1035    16666    2               XSP$ACTIVITY_END.FNC = %XSP_FNC_PACEIND#;
     1036    16667    2               XSP$ACTIVITY_END.DATA$ = XSS$ACTIVITY_END.DATA.PTR$;  /*N*/
     1037    16668    2               XSP$ACTIVITY_END.SERNUM = XSS$ACTIVITY_END.SERNUM;
     1038    16669    2               VBLK.EVENT = %XSP_PEV_SACEIND;
     1039    16670    2           CASE( %XSS_FNC_SACECNF#);
     1040    16671    2               XSP$ACTIVITY_END = XSP_ACTIVITY_END;
     1041    16672    2               XSP$ACTIVITY_END.FNC = %XSP_FNC_PACECNF#;
     1042    16673    2               XSP$ACTIVITY_END.DATA$ = XSS$ACTIVITY_END.DATA.PTR$;  /*N*/
     1043    16674    2               XSP$ACTIVITY_END.SERNUM = XSS$ACTIVITY_END.SERNUM;
     1044    16675    2               VBLK.EVENT = %XSP_PEV_SACECNF;
     1045    16676    2           CASE( %XSS_FNC_SACIIND#);
     1046    16677    2               XSP$ACTIVITY_INTERRUPT = XSP_ACTIVITY_INTERRUPT;
     1047    16678    2               XSP$ACTIVITY_INTERRUPT.FNC = %XSP_FNC_PACIIND#;
     1048    16679    2               XSP$ACTIVITY_INTERRUPT.REASON = XSS$ACTIVITY_INTERRUPT.REASON;
     1049    16680    2               VBLK.EVENT = %XSP_PEV_SACIIND;
     1050    16681    2           CASE( %XSS_FNC_SACICNF#);
     1051    16682    2               XSP$ACTIVITY_INTERRUPT = XSP_ACTIVITY_INTERRUPT;
     1052    16683    2               XSP$ACTIVITY_INTERRUPT.FNC = %XSP_FNC_PACICNF#;
     1053    16684    2               XSP$ACTIVITY_INTERRUPT.REASON = XSS$ACTIVITY_INTERRUPT.REASON;
     1054    16685    2               VBLK.EVENT = %XSP_PEV_SACICNF;
     1055    16686    2           CASE( %XSS_FNC_SACRIND#);
     1056    16687    2               XSP$ACTIVITY_RESUME = XSP_ACTIVITY_RESUME;
     1057    16688    2               XSP$ACTIVITY_RESUME.FNC = %XSP_FNC_PACRIND#;
     1058    16689    2               XSP$ACTIVITY_RESUME.DATA$ = XSS$ACTIVITY_RESUME.DATA.PTR$;  /*N*/
     1059    16690    2               XSP$ACTIVITY_RESUME.SERNUM = XSS$ACTIVITY_RESUME.SERNUM;
     1060    16691    2               XSP$ACTIVITY_RESUME.ACTID = XSS$ACTIVITY_RESUME.ACTID;
     1061    16692    2               XSP$ACTIVITY_RESUME.OACTID = XSS$ACTIVITY_RESUME.OACTID;
     1062    16693    2               VBLK.EVENT = %XSP_PEV_SACRIND;
     1063    16694    2           CASE( %XSS_FNC_SACSIND#);
     1064    16695    2               XSP$ACTIVITY_START = XSP_ACTIVITY_START;
     1065    16696    2               XSP$ACTIVITY_START.FNC = %XSP_FNC_PACSIND#;
     1066    16697    2               XSP$ACTIVITY_START.DATA$ = XSS$ACTIVITY_START.DATA.PTR$;  /*N*/
     1067    16698    2               XSP$ACTIVITY_START.ACTID = XSS$ACTIVITY_START.ACTID;
     1068    16699    2               VBLK.EVENT = %XSP_PEV_SACSIND;
     1069    16700    2           CASE( %XSS_FNC_SCADIND#);
PL6.E3A0      #002=XSP$SRECV File=XSP$DECODE.:XSA1TSI                            WED 10/01/97 12:01 Page:189
     1070    16701                    /* should be a TC PPDU from Presentation-peer */
     1071    16702    2               CALL XSP$DECODE( VBLK, SFPT$)
     1072    16703    3               WHENALTRETURN DO;
     1073    16704    3                   VBLK.PPDUERR = 1;
     1074    16705    3                   END;
     1075    16706    2               VBLK.EVENT = %XSP_PEV_TC;
     1076    16707    2           CASE( %XSS_FNC_SCADCNF#);
     1077    16708                    /* should be a TCC PPDU from Presentation-peer */
     1078    16709    2               CALL XSP$DECODE( VBLK, SFPT$)
     1079    16710    3               WHENALTRETURN DO;
     1080    16711    3                   VBLK.PPDUERR = 1;
     1081    16712    3                   END;
     1082    16713    2               VBLK.EVENT = %XSP_PEV_TCC;
     1083    16714    2           CASE( %XSS_FNC_SCONIND#);
     1084    16715                    /* should be a CP PPDU from Presentation-peer */
     1085    16716    2               XSP_SRCADDR$ = ADDR( SRCADDR);
     1086    16717    2               XSP_DSTADDR$ = ADDR( DSTADDR);
     1087    16718    2               XSP_TMPCTXT$ = ADDR( TMPCTXT);
     1088    16719    2               TMPCTXT(0) = 0;
     1089    16720    2               CALL XSP$DECODE( VBLK, SFPT$)
     1090    16721    3               WHENALTRETURN DO;
     1091    16722    3                   VBLK.PPDUERR = 1;
     1092    16723    3                   END;
     1093    16724    2               VBLK.EVENT = %XSP_PEV_CP;
     1094    16725    2           CASE( %XSS_FNC_SCONCNF#);
     1095    16726                    /* should be a CPA or CPR PPDU from Presentation-peer */
     1096    16727    2               XSP_SRCADDR$ = ADDR( SRCADDR);
     1097    16728    2               XSP_DSTADDR$ = ADDR( DSTADDR);
     1098    16729    2               XSP_TMPCTXT$ = ADDR( TMPCTXT);
     1099    16730    2               TMPCTXT(0) = 0;
     1100    16731    2               CALL XSP$DECODE( VBLK, SFPT$)
     1101    16732    3               WHENALTRETURN DO;
     1102    16733    3                   VBLK.PPDUERR = 1;
     1103    16734    3                   END;
     1104    16735                    /* VBLK.EVENT filled in by XSP$DECODE */
     1105    16736    2           CASE( %XSS_FNC_SCTGIND#);
     1106    16737    2               XSP$CONTROL_GIVE = XSP_CONTROL_GIVE;
PL6.E3A0      #002=XSP$SRECV File=XSP$DECODE.:XSA1TSI                            WED 10/01/97 12:01 Page:190
     1107    16738    2               XSP$CONTROL_GIVE.FNC = %XSP_FNC_PCTGIND#;
     1108    16739    2               VBLK.EVENT = %XSP_PEV_SCTGIND;
     1109    16740    2           CASE( %XSS_FNC_SDATIND#);
     1110    16741                    /* should be a TD PPDU from Presentation-peer */
     1111    16742    2               CALL XSP$DECODE( VBLK, SFPT$)
     1112    16743    3               WHENALTRETURN DO;
     1113    16744    3                   VBLK.PPDUERR = 1;
     1114    16745    3                   END;
     1115    16746    2               VBLK.EVENT = %XSP_PEV_TD;
     1116    16747    2           CASE( %XSS_FNC_SEXPIND#);
     1117    16748                    /* should be a TE PPDU from Presentation-peer */
     1118    16749    2               CALL XSP$DECODE( VBLK, SFPT$)
     1119    16750    3               WHENALTRETURN DO;
     1120    16751    3                   VBLK.PPDUERR = 1;
     1121    16752    3                   END;
     1122    16753    2               VBLK.EVENT = %XSP_PEV_TE;
     1123    16754    2           CASE( %XSS_FNC_SPABIND#);
     1124    16755                    /* Session-provider abort */
     1125    16756    2               XSP$P_ABORT = XSP_P_ABORT;
     1126    16757    2               XSP$P_ABORT.FNC = %XSP_FNC_PPABIND#;
     1127    16758    2               XSP$P_ABORT.REASON = XSS$P_ABORT.REASON;
     1128    16759    2               VBLK.EVENT = %XSP_PEV_SPABIND;
     1129    16760    2           CASE( %XSS_FNC_SPERIND#);
     1130    16761                    /* Session-provider exception report */
     1131    16762    2               XSP$P_EXCEPTION_REPORT = XSP_P_EXCEPTION_REPORT;
     1132    16763    2               XSP$P_EXCEPTION_REPORT.FNC = %XSP_FNC_PPERIND#;
     1133    16764    2               XSP$P_EXCEPTION_REPORT.REASON = XSS$P_EXCEPTION_REPORT.REASON;
     1134    16765    2               VBLK.EVENT = %XSP_PEV_SPERIND;
     1135    16766    2           CASE( %XSS_FNC_SRELIND#);
     1136    16767    2               XSP$RELEASE = XSP_RELEASE;
     1137    16768    2               XSP$RELEASE.FNC = %XSP_FNC_PRELIND#;
     1138    16769    2               XSP$RELEASE.DATA$ = XSS$RELEASE.DATA.PTR$;  /*N*/
     1139    16770    2               VBLK.EVENT = %XSP_PEV_SRELIND;
     1140    16771    2           CASE( %XSS_FNC_SRELCNF#);
     1141    16772    2               XSP$RELEASE = XSP_RELEASE;
     1142    16773    2               XSP$RELEASE.FNC = %XSP_FNC_PRELCNF#;
     1143    16774    2               XSP$RELEASE.RESULT = XSS$RELEASE.RESULT;
PL6.E3A0      #002=XSP$SRECV File=XSP$DECODE.:XSA1TSI                            WED 10/01/97 12:01 Page:191
     1144    16775    2               XSP$RELEASE.DATA$ = XSS$RELEASE.DATA.PTR$;  /*N*/
     1145    16776    2               IF XSS$RELEASE.RESULT = 0 THEN
     1146    16777                        /* release accepted */
     1147    16778    2                   VBLK.EVENT = %XSP_PEV_SRELCFP;
     1148    16779    2               ELSE
     1149    16780                        /* release rejected by Session-peer or Presentation-peer */
     1150    16781    2                   VBLK.EVENT = %XSP_PEV_SRELCFN;
     1151    16782    2           CASE( %XSS_FNC_SRSXIND#);
     1152    16783                    /* should be an RS PPDU from Presentation-peer */
     1153    16784    2               CALL XSP$DECODE( VBLK, SFPT$)
     1154    16785    3               WHENALTRETURN DO;
     1155    16786    3                   VBLK.PPDUERR = 1;
     1156    16787    3                   END;
     1157    16788    2               VBLK.EVENT = %XSP_PEV_RS;
     1158    16789    2           CASE( %XSS_FNC_SRSXCNF#);
     1159    16790                    /* should be an RSA PPDU from Presentation-peer */
     1160    16791    2               CALL XSP$DECODE( VBLK, SFPT$)
     1161    16792    3               WHENALTRETURN DO;
     1162    16793    3                   VBLK.PPDUERR = 1;
     1163    16794    3                   END;
     1164    16795    2               VBLK.EVENT = %XSP_PEV_RSA;
     1165    16796    2           CASE( %XSS_FNC_SSMAIND#);
     1166    16797    2               XSP$SYNC_MAJOR = XSP_SYNC_MAJOR;
     1167    16798    2               XSP$SYNC_MAJOR.FNC = %XSP_FNC_PSMAIND#;
     1168    16799    2               XSP$SYNC_MAJOR.DATA$ = XSS$SYNC_MAJOR.DATA.PTR$;  /*N*/
     1169    16800    2               XSP$SYNC_MAJOR.SERNUM = XSS$SYNC_MAJOR.SERNUM;
     1170    16801    2               VBLK.EVENT = %XSP_PEV_SSMAIND;
     1171    16802    2           CASE( %XSS_FNC_SSMACNF#);
     1172    16803    2               XSP$SYNC_MAJOR = XSP_SYNC_MAJOR;
     1173    16804    2               XSP$SYNC_MAJOR.FNC = %XSP_FNC_PSMACNF#;
     1174    16805    2               XSP$SYNC_MAJOR.DATA$ = XSS$SYNC_MAJOR.DATA.PTR$;  /*N*/
     1175    16806    2               XSP$SYNC_MAJOR.SERNUM = XSS$SYNC_MAJOR.SERNUM;
     1176    16807    2               VBLK.EVENT = %XSP_PEV_SSMACNF;
     1177    16808    2           CASE( %XSS_FNC_SSMIIND#);
     1178    16809    2               XSP$SYNC_MINOR = XSP_SYNC_MINOR;
     1179    16810    2               XSP$SYNC_MINOR.FNC = %XSP_FNC_PSMIIND#;
     1180    16811    2               XSP$SYNC_MINOR.TYPE = XSS$SYNC_MINOR.TYPE;
PL6.E3A0      #002=XSP$SRECV File=XSP$DECODE.:XSA1TSI                            WED 10/01/97 12:01 Page:192
     1181    16812    2               XSP$SYNC_MINOR.DATA$ = XSS$SYNC_MINOR.DATA.PTR$;  /*N*/
     1182    16813    2               XSP$SYNC_MINOR.SERNUM = XSS$SYNC_MINOR.SERNUM;
     1183    16814    2               VBLK.EVENT = %XSP_PEV_SSMIIND;
     1184    16815    2           CASE( %XSS_FNC_SSMICNF#);
     1185    16816    2               XSP$SYNC_MINOR = XSP_SYNC_MINOR;
     1186    16817    2               XSP$SYNC_MINOR.FNC = %XSP_FNC_PSMICNF#;
     1187    16818    2               XSP$SYNC_MINOR.TYPE = XSS$SYNC_MINOR.TYPE;
     1188    16819    2               XSP$SYNC_MINOR.DATA$ = XSS$SYNC_MINOR.DATA.PTR$;  /*N*/
     1189    16820    2               XSP$SYNC_MINOR.SERNUM = XSS$SYNC_MINOR.SERNUM;
     1190    16821    2               VBLK.EVENT = %XSP_PEV_SSMICNF;
     1191    16822    2           CASE( %XSS_FNC_STKGIND#);
     1192    16823    2               XSP$TOKEN_GIVE = XSP_TOKEN_GIVE;
     1193    16824    2               XSP$TOKEN_GIVE.FNC = %XSP_FNC_PTKGIND#;
     1194    16825    2               XSP$TOKEN_GIVE.TOKENS = XSS$TOKEN_GIVE.TOKENS;
     1195    16826    2               VBLK.EVENT = %XSP_PEV_STKGIND;
     1196    16827    2           CASE( %XSS_FNC_STKPIND#);
     1197    16828    2               XSP$TOKEN_PLEASE = XSP_TOKEN_PLEASE;
     1198    16829    2               XSP$TOKEN_PLEASE.FNC = %XSP_FNC_PTKPIND#;
     1199    16830    2               XSP$TOKEN_PLEASE.TOKENS = XSS$TOKEN_PLEASE.TOKENS;
     1200    16831    2               XSP$TOKEN_PLEASE.DATA$ = XSS$TOKEN_PLEASE.DATA.PTR$;  /*N*/
     1201    16832    2               VBLK.EVENT = %XSP_PEV_STKPIND;
     1202    16833    2           CASE( %XSS_FNC_STYDIND#);
     1203    16834                    /* should be one of AC, ACA, or TTD PPDU from Presentation-peer */
     1204    16835    2               XSP_TMPCTXT$ = ADDR( TMPCTXT);
     1205    16836    2               TMPCTXT(0) = 0;
     1206    16837    2               CALL XSP$DECODE( VBLK, SFPT$)
     1207    16838    3               WHENALTRETURN DO;
     1208    16839    3                   VBLK.PPDUERR = 1;
     1209    16840    3                   END;
     1210    16841                    /* VBLK.EVENT filled in by XSP$DECODE */
     1211    16842    2           CASE( %XSS_FNC_SUABIND#);
     1212    16843                    /* should be ARP or ARU PPDU from Presentation-peer */
     1213    16844    2               CALL XSP$DECODE( VBLK, SFPT$)
     1214    16845    3               WHENALTRETURN DO;
     1215    16846    3                   VBLK.PPDUERR = 1;
     1216    16847    3                   END;
     1217    16848                    /* VBLK.EVENT filled in by XSP$DECODE */
PL6.E3A0      #002=XSP$SRECV File=XSP$DECODE.:XSA1TSI                            WED 10/01/97 12:01 Page:193
     1218    16849    2           CASE( %XSS_FNC_SUERIND#);
     1219    16850                    /* Session-peer reporting an exception */
     1220    16851    2               XSP$U_EXCEPTION_REPORT = XSP_U_EXCEPTION_REPORT;
     1221    16852    2               XSP$U_EXCEPTION_REPORT.FNC = %XSP_FNC_PUERIND#;
     1222    16853    2               XSP$U_EXCEPTION_REPORT.REASON = XSS$U_EXCEPTION_REPORT.REASON;
     1223    16854    2               XSP$U_EXCEPTION_REPORT.DATA$ = XSS$U_EXCEPTION_REPORT.DATA.PTR$;  /*N*/
     1224    16855    2               VBLK.EVENT = %XSP_PEV_SUERIND;
     1225    16856    2           END;
     1226    16857    1       XSP$GENERIC.PCID = XSS$GENERIC.SCID;
     1227    16858    2       IF XSP_DATANUM > 0 THEN DO;
     1228    16859    2           CALL XSS$GETMEM( BLKX, AFPT$, XSP_DATANUM * SIZEC( XSP_ASN1_FPT));
     1229    16860    2           XSP$GENERIC.DATA$ = AFPT$;
     1230    16861    3           DO I = 1 TO XSP_DATANUM;
     1231    16862    3               AFPT = XSP_ASN1_FPT;
     1232    16863    3               AFPT.BUF$ = XSP_DATABUF$( I-1);
     1233    16864    3               AFPT.NXTX = XSP_DATASIZE( I-1);
     1234    16865    3               AFPT.CTXTID = XSP_DATACTXT( I-1);
     1235    16866    3               IF I < XSP_DATANUM THEN
     1236    16867    3                   AFPT.LINK$ = PINCRC( AFPT$, SIZEC( XSP_ASN1_FPT));
     1237    16868    3               AFPT$ = AFPT.LINK$;
     1238    16869    3               END;
     1239    16870    2           END;
     1240    16871    1       ABORTING = %FALSE;
     1241    16872    1       CALL XSP$MACHINE( VBLK)
     1242    16873    2       WHENALTRETURN DO;
     1243    16874    2           ABORTING = %TRUE;  /* connection died or protocol error */
     1244    16875    2           END;
     1245    16876    1       IF XSP_DATANUM > 0 THEN
     1246    16877    1           CALL XSS$RELMEM( BLKX);
     1247    16878    1       IF ABORTING THEN
     1248    16879    1           ALTRETURN;
     1249    16880    1       RETURN;
     1250    16881
     1251    16882    1       END XSP$SRECV;

PL6.E3A0      #002=XSP$SRECV File=XSP$DECODE.:XSA1TSI                            WED 10/01/97 12:01 Page:194
--  Include file information  --

   XSC_PERR_C.:XSA1TOU  is referenced.
   UM_CP6.:E05OU  is referenced.
   XSP_ASN1_M.:XSA1TOU  is referenced.
   XSC_COMMON_M.:XSA1TOU  is referenced.
   K_ADDRESS_M.:LIB_E05  is referenced.
   XSP_INTERNAL_M.:XSA1TOU  is referenced.
   XSP_INTERNAL_E.:XSA1TOU  is referenced.
   XSP_PRESENTATION_M.:XSA1TOU  is referenced.
   XSP_PRESENTATION_E.:XSA1TOU  is referenced.
   XSS_SESSION_M.:XSA1TOU  is referenced.
   XSS_SESSION_E.:XSA1TOU  is referenced.
      No diagnostics issued in procedure XSP$SRECV.

   Procedure XSP$SRECV requires 618 words for executable code.
   Procedure XSP$SRECV requires 202 words of local(AUTO) storage.

    No errors detected in file XSP$DECODE.:XSA1TSI    .

PL6.E3A0      #002=XSP$SRECV File=XSP$DECODE.:XSA1TSI                            WED 10/01/97 12:01 Page:195

 Object Unit name= XSP$SRECV                                  File name= XSP$DECODE.:XSA1TOU
 UTS= OCT 01 '97 12:01:32.32 WED                              Compiler= PL-6/E31         Sev=      00
 SharedLib= :SHARED_SYSTEM                                    Alt SharedLib=


    ****  Control sections  ****

 Sect   Type Bound  Init  Size OctSiz  Section name(segment info)
    0  RoData even  UTS     15     17  XSP$SRECV
    1   Data  even  none    22     26  XSP$SRECV
    2   Proc  even  none   618   1152  XSP$SRECV
    3  RoData even  none     4      4  XSP$SRECV

    ****  Entry defs  ****

                              Check   Calling
                             calling  sequence
  Sect OctLoc Primary Altret sequence   type   Parms  Name
     2      0   yes    yes     yes      Std        1  XSP$SRECV

  ****  Data defs  ****

 Sect OctLoc  Name                           Sect OctLoc  Name
    0     16  XSP_F$NOSCID                       1      0  XSP_DATANUM
    1      1  XSP_DATABUF$                       1     11  XSP_DATACTXT
    1     13  XSP_DATASIZE                       1     23  XSP_DSTADDR$
    1     24  XSP_SRCADDR$                       1     25  XSP_TMPCTXT$
PL6.E3A0      #002=XSP$SRECV File=XSP$DECODE.:XSA1TSI                            WED 10/01/97 12:01 Page:196

  ****  Entry refs  ****

         Check        Calling
        calling       sequence
Altret sequence SRef   type   Args  Name
 yes     yes           Std       2 XSP$CTXPTR
 yes     yes           Std       2 XSP$GETCTX
         yes           Std       1 XSS$SCREECH
 yes     yes           Std       3 XSS$GETMEM
 yes     yes           Std       2 XSP$DECODE
 yes     yes           Std       1 XSP$MACHINE
 yes     yes           Std       1 XSS$RELMEM
                       nStd      0 X66_AUTO_1
                       nStd      0 X66_AALT
                       nStd      0 X66_ARET

  ****  Data refs  ****

  Flags:  r = read only, s = secondary
Flgs Name                             Flgs Name                             Flgs Name
     XSP_ACTIVITY_DISCARD                  XSP_ACTIVITY_END                      XSP_ACTIVITY_INTERRUPT
     XSP_ACTIVITY_RESUME                   XSP_ACTIVITY_START                    XSP_CONTROL_GIVE
     XSP_P_ABORT                           XSP_P_EXCEPTION_REPORT                XSP_RELEASE
     XSP_SYNC_MAJOR                        XSP_SYNC_MINOR                        XSP_TOKEN_GIVE
     XSP_TOKEN_PLEASE                      XSP_U_EXCEPTION_REPORT                XSP_VBLK
     XSS_CCB$$

  ****  Segment refs  ****

  Flags:  r = read only, s = secondary
Flgs Name                             Flgs Name                             Flgs Name
     NULLSID                               ISSID
PL6.E3A0      #002=XSP$SRECV File=XSP$DECODE.:XSA1TSI                            WED 10/01/97 12:01 Page:197


      922        1        /*T***********************************************************/
      923        2        /*T*                                                         */
      924        3        /*T* Copyright (c) Bull HN Information Systems Inc., 1997    */
      925        4        /*T*                                                         */
      926        5        /*T***********************************************************/
      927        6        /*F*    NAME:   XSP$SRECV
      928        7                DESCRIPTION:
      929        8                    This is the interface routine for messages traveling up the
      930        9                    comm layers from Session to Presentation.
      931       10
      932       11                    If this is a connection attempt, we allocate a new connection
      933       12                    context.  In any case we initialize a VBLK, decode the PPDU and
      934       13                    any enclosed User Data, and enter the state machine.
      935       14        */
      936       15        XSP$SRECV: PROC( SFPT) ALTRET;

     15  2 000000   000000 700200 xent  XSP$SRECV    TSX0  ! X66_AUTO_1
         2 000001   000312 000001                    ZERO    202,1

      937       16        %INCLUDE XSS_SESSION_E;
      938      581        %INCLUDE XSS_SESSION_M;
      939     3224            %XSS$PRIMITIVES( STCLASS="BASED( SFPT$)");
      940     6603            %XSS$GENERIC( FPTN=SFPT, STCLASS="");
      941     6749        %INCLUDE XSP_PRESENTATION_E;
      942     6848        %INCLUDE XSP_PRESENTATION_M;
      943     8334            %XSP$GENERIC( FPTN=PFPT, STCLASS=AUTO);
      944     8430            %XSP$PRIMITIVES( STCLASS="BASED( PFPT$)");
      945    10129            %XSP_PRIMITIVES( STCLASS=SYMREF);
      946    11828        %INCLUDE XSP_INTERNAL_E;
      947    12102        %INCLUDE XSP_INTERNAL_M;
      948    12763            %XSP$PCTX( NAME=PCTX, STCLASS="BASED( CTX$)");
      949    12919            %XSP$VBLK( NAME=VBLK, STCLASS=AUTO);
      950    13065            %XSP$VBLK( NAME=XSP_VBLK, STCLASS=SYMREF);
      951    13211        %INCLUDE K_ADDRESS_M;
      952    13714        %INCLUDE XSC_COMMON_M;
      953    14367            %XSC$ADDRESS( NAME=SRCADDR, STCLASS=AUTO);
PL6.E3A0      #002=XSP$SRECV File=XSP$DECODE.:XSA1TSI                            WED 10/01/97 12:01 Page:198
      954    14650            %XSC$ADDRESS( NAME=DSTADDR, STCLASS=AUTO);
      955    14933            %XSC$CCB;
      956    15230        %INCLUDE XSP_ASN1_M;
      957    15576            %XSP_ASN1_FPT( STCLASS=CONSTANT);
      958    15596            %XSP_ASN1_FPT( FPTN=AFPT, STCLASS="BASED( AFPT$)");
      959    15616        %INCLUDE UM_CP6;
      960    16468        %MACRO FATALDEF( NAME=XSP_FATAL, STCLASS="CONSTANT SYMDEF", LVL=1, LAST=";",
      961    16469                         ERR#=0, SEV=7);
      962    16470            %VLP_ERRCODE( FPTN=NAME, STCLASS=STCLASS, FCG='XS', MID='P',
      963    16471                          MON='0'B, ERR#=ERR#, SEV=SEV);
      964    16472        %MEND;
      965    16473        %INCLUDE XSC_PERR_C;
      966    16550            %FATALDEF( NAME=XSP_F$NOSCID, ERR#=%F$NOSCID);
      967    16598            /*E*  ERROR:  XSP-F$NOSCID-7
      968    16599                MESSAGE:  Session didn't supply a SCID.
      969    16600            */
      970    16601
      971    16602    1       DCL XSP$CTXPTR ENTRY(2) ALTRET;
      972    16603    1       DCL XSP$DECODE ENTRY(2) ALTRET;
      973    16604    1       DCL XSP$GETCTX ENTRY(2) ALTRET;
      974    16605    1       DCL XSP$MACHINE ENTRY(1) ALTRET;
      975    16606    1       DCL XSS$GETMEM ENTRY(3) ALTRET;
      976    16607    1       DCL XSS$RELMEM ENTRY(1) ALTRET;
      977    16608    1       DCL XSS$SCREECH ENTRY(1);
      978    16609
      979    16610    1       DCL XSS_CCB$$ PTR SYMREF;
      980    16611
      981    16612    1       DCL ABORTING BIT(1);
      982    16613    1       DCL AFPT$ PTR;
      983    16614    1       DCL BLKX UBIN HALF HALIGNED;
      984    16615    1       DCL CCB$(0:0) PTR BASED( XSS_CCB$$) ALIGNED;
      985    16616    1       DCL CTX$ PTR;
      986    16617    1       DCL I SBIN;
      987    16618    1       DCL PCID SBIN;
      988    16619    1       DCL PFPT$ PTR;
      989    16620    1       DCL SFPT$ PTR;
      990    16621    1       DCL TMPCTXT(0:%XSP_MAX_DATANUM) SBIN AUTO;
PL6.E3A0      #002=XSP$SRECV File=XSP$DECODE.:XSA1TSI                            WED 10/01/97 12:01 Page:199
      991    16622    1       DCL XSP_DATANUM SBIN STATIC SYMDEF;
      992    16623    1       DCL XSP_DATABUF$(0:%XSP_MAX_DATANUM) PTR STATIC SYMDEF;
      993    16624    1       DCL XSP_DATACTXT(0:%XSP_MAX_DATANUM) UBIN BYTE STATIC SYMDEF CALIGNED;
      994    16625    1       DCL XSP_DATASIZE(0:%XSP_MAX_DATANUM) SBIN STATIC SYMDEF;
      995    16626    1       DCL XSP_DSTADDR$ PTR STATIC SYMDEF;
      996    16627    1       DCL XSP_SRCADDR$ PTR STATIC SYMDEF;
      997    16628    1       DCL XSP_TMPCTXT$ PTR STATIC SYMDEF;
      998    16629
      999    16630    1       SFPT$ = ADDR( SFPT);

  16630  2 000002   200003 236100                    LDQ     @SFPT,,AUTO
         2 000003   200275 756100                    STQ     SFPT$,,AUTO

     1000    16631    2       IF XSS$GENERIC.SCID ~= 0 THEN DO;

  16631  2 000004   200275 470500                    LDP0    SFPT$,,AUTO
         2 000005   000000 236100                    LDQ     0,,PR0
         2 000006   000777 316003                    CANQ    511,DU
         2 000007   000046 600000 2                  TZE     s:16645

     1001    16632    2           PCID = XSS$GENERIC.SCID;

  16632  2 000010   000000 236100                    LDQ     0,,PR0
         2 000011   000022 772000                    QRL     18
         2 000012   000777 376007                    ANQ     511,DL
         2 000013   200273 756100                    STQ     PCID,,AUTO

     1002    16633    2           CALL XSP$CTXPTR( PCID, CTX$)

  16633  2 000014   200271 631500                    EPPR1   CTX$,,AUTO
         2 000015   200307 451500                    STP1    TMPCTXT+9,,AUTO
         2 000016   200273 633500                    EPPR3   PCID,,AUTO
         2 000017   200306 453500                    STP3    TMPCTXT+8,,AUTO
         2 000020   200306 630500                    EPPR0   TMPCTXT+8,,AUTO
         2 000021   000000 631400 3                  EPPR1   0
         2 000022   000000 701000 xent               TSX1    XSP$CTXPTR
         2 000023   000025 702000 2                  TSX2    s:16636
PL6.E3A0      #002=XSP$SRECV File=XSP$DECODE.:XSA1TSI                            WED 10/01/97 12:01 Page:200
         2 000024   000045 710000 2                  TRA     s:16642

     1003    16634    3           WHENALTRETURN DO;

     1004    16635                    /* This appears to be an incoming connection attempt */
     1005    16636    3               CALL XSP$GETCTX( CTX$, PCID)

  16636  2 000025   200273 630500                    EPPR0   PCID,,AUTO
         2 000026   200307 450500                    STP0    TMPCTXT+9,,AUTO
         2 000027   200271 631500                    EPPR1   CTX$,,AUTO
         2 000030   200306 451500                    STP1    TMPCTXT+8,,AUTO
         2 000031   200306 630500                    EPPR0   TMPCTXT+8,,AUTO
         2 000032   000000 631400 3                  EPPR1   0
         2 000033   000000 701000 xent               TSX1    XSP$GETCTX
         2 000034   000036 702000 2                  TSX2    s:16638
         2 000035   000037 710000 2                  TRA     s:16640

     1006    16637    4               WHENALTRETURN DO;

     1007    16638    4                   ALTRETURN;  /* reject connect attempt */

  16638  2 000036   000000 702200 xent               TSX2  ! X66_AALT

     1008    16639    4                   END;
     1009    16640    3               PCTX.ENTRY$ = CCB$( PCID)->XSC$CCB.PRES$;  /* inherit entry */

  16640  2 000037   000000 470400 xsym               LDP0    XSS_CCB$$
         2 000040   200273 720100                    LXL0    PCID,,AUTO
         2 000041   000000 471510                    LDP1    0,X0,PR0
         2 000042   100011 236100                    LDQ     9,,PR1
         2 000043   200271 473500                    LDP3    CTX$,,AUTO
         2 000044   300007 756100                    STQ     7,,PR3

     1010    16641    3               END;

     1011    16642    2           END;

PL6.E3A0      #002=XSP$SRECV File=XSP$DECODE.:XSA1TSI                            WED 10/01/97 12:01 Page:201
  16642  2 000045   000052 710000 2                  TRA     s:16646

     1012    16643    1       ELSE
     1013    16644                /* SCID not filled in.  Session blew it. */
     1014    16645    1           CALL XSS$SCREECH( XSP_F$NOSCID);

  16645  2 000046   000002 630400 3                  EPPR0   2
         2 000047   000001 631400 3                  EPPR1   1
         2 000050   000000 701000 xent               TSX1    XSS$SCREECH
         2 000051   000000 011000                    NOP     0

     1015    16646    1       PFPT$ = ADDR( PFPT);

  16646  2 000052   200004 630500                    EPPR0   PFPT,,AUTO
         2 000053   200274 450500                    STP0    PFPT$,,AUTO

     1016    16647    1       VBLK = XSP_VBLK;

  16647  2 000054   000100 100400                    MLR     fill='000'O
         2 000055   000000 000054 xsym               ADSC9   XSP_VBLK                 cn=0,n=44
         2 000056   200022 000054                    ADSC9   VBLK,,AUTO               cn=0,n=44

     1017    16648    1       VBLK.CTX$ = CTX$;

  16648  2 000057   200271 236100                    LDQ     CTX$,,AUTO
         2 000060   200022 756100                    STQ     VBLK,,AUTO

     1018    16649    1       VBLK.FPT$ = PFPT$;

  16649  2 000061   200274 236100                    LDQ     PFPT$,,AUTO
         2 000062   200023 756100                    STQ     VBLK+1,,AUTO

     1019    16650    1       VBLK.DATA = XSS$GENERIC.DATA;

  16650  2 000063   200275 471500                    LDP1    SFPT$,,AUTO
         2 000064   100002 237100                    LDAQ    2,,PR1
         2 000065   200026 757100                    STAQ    VBLK+4,,AUTO
PL6.E3A0      #002=XSP$SRECV File=XSP$DECODE.:XSA1TSI                            WED 10/01/97 12:01 Page:202

     1020    16651    1       XSP_DATANUM = 0;

  16651  2 000066   000000 450000 1                  STZ     XSP_DATANUM

     1021    16652            /* set up the corresponding event and Presentation FPT */
     1022    16653    2       DO CASE( XSS$GENERIC.FNC);

  16653  2 000067   100000 236100                    LDQ     0,,PR1
         2 000070   000033 772000                    QRL     27
         2 000071   000073 116007                    CMPQ    59,DL
         2 000072   000074 602006 2                  TNC     s:16653+5,QL
         2 000073   001035 710000 2                  TRA     s:16857
         2 000074   001035 710000 2                  TRA     s:16857
         2 000075   001035 710000 2                  TRA     s:16857
         2 000076   000167 710000 2                  TRA     s:16655
         2 000077   001035 710000 2                  TRA     s:16857
         2 000100   000202 710000 2                  TRA     s:16660
         2 000101   001035 710000 2                  TRA     s:16857
         2 000102   000215 710000 2                  TRA     s:16665
         2 000103   001035 710000 2                  TRA     s:16857
         2 000104   000233 710000 2                  TRA     s:16671
         2 000105   001035 710000 2                  TRA     s:16857
         2 000106   000251 710000 2                  TRA     s:16677
         2 000107   001035 710000 2                  TRA     s:16857
         2 000110   000264 710000 2                  TRA     s:16682
         2 000111   001035 710000 2                  TRA     s:16857
         2 000112   000277 710000 2                  TRA     s:16687
         2 000113   001035 710000 2                  TRA     s:16857
         2 000114   000325 710000 2                  TRA     s:16695
         2 000115   001035 710000 2                  TRA     s:16857
         2 000116   000344 710000 2                  TRA     s:16702
         2 000117   001035 710000 2                  TRA     s:16857
         2 000120   000362 710000 2                  TRA     s:16709
         2 000121   001035 710000 2                  TRA     s:16857
         2 000122   000400 710000 2                  TRA     s:16716
         2 000123   001035 710000 2                  TRA     s:16857
PL6.E3A0      #002=XSP$SRECV File=XSP$DECODE.:XSA1TSI                            WED 10/01/97 12:01 Page:203
         2 000124   000425 710000 2                  TRA     s:16727
         2 000125   001035 710000 2                  TRA     s:16857
         2 000126   000450 710000 2                  TRA     s:16737
         2 000127   001035 710000 2                  TRA     s:16857
         2 000130   000460 710000 2                  TRA     s:16742
         2 000131   001035 710000 2                  TRA     s:16857
         2 000132   000476 710000 2                  TRA     s:16749
         2 000133   001035 710000 2                  TRA     s:16857
         2 000134   000542 710000 2                  TRA     s:16767
         2 000135   001035 710000 2                  TRA     s:16857
         2 000136   000555 710000 2                  TRA     s:16772
         2 000137   001035 710000 2                  TRA     s:16857
         2 000140   000602 710000 2                  TRA     s:16784
         2 000141   001035 710000 2                  TRA     s:16857
         2 000142   000620 710000 2                  TRA     s:16791
         2 000143   001035 710000 2                  TRA     s:16857
         2 000144   000636 710000 2                  TRA     s:16797
         2 000145   001035 710000 2                  TRA     s:16857
         2 000146   000654 710000 2                  TRA     s:16803
         2 000147   001035 710000 2                  TRA     s:16857
         2 000150   000672 710000 2                  TRA     s:16809
         2 000151   001035 710000 2                  TRA     s:16857
         2 000152   000713 710000 2                  TRA     s:16816
         2 000153   001035 710000 2                  TRA     s:16857
         2 000154   000734 710000 2                  TRA     s:16823
         2 000155   001035 710000 2                  TRA     s:16857
         2 000156   000747 710000 2                  TRA     s:16828
         2 000157   001035 710000 2                  TRA     s:16857
         2 000160   000765 710000 2                  TRA     s:16835
         2 000161   001035 710000 2                  TRA     s:16857
         2 000162   001004 710000 2                  TRA     s:16844
         2 000163   001035 710000 2                  TRA     s:16857
         2 000164   001020 710000 2                  TRA     s:16851
         2 000165   000514 710000 2                  TRA     s:16756
         2 000166   000527 710000 2                  TRA     s:16762

     1023    16654    2           CASE( %XSS_FNC_SACDIND#);
PL6.E3A0      #002=XSP$SRECV File=XSP$DECODE.:XSA1TSI                            WED 10/01/97 12:01 Page:204

     1024    16655    2               XSP$ACTIVITY_DISCARD = XSP_ACTIVITY_DISCARD;

  16655  2 000167   000100 100400                    MLR     fill='000'O
         2 000170   000000 000010 xsym               ADSC9   XSP_ACTIVITY_DISCARD     cn=0,n=8
         2 000171   000000 000010                    ADSC9   0,,PR0                   cn=0,n=8

     1025    16656    2               XSP$ACTIVITY_DISCARD.FNC = %XSP_FNC_PACDIND#;

  16656  2 000172   002000 236003                    LDQ     1024,DU
         2 000173   000000 552140                    STBQ    0,'40'O,PR0

     1026    16657    2               XSP$ACTIVITY_DISCARD.REASON = XSS$ACTIVITY_DISCARD.REASON;

  16657  2 000174   200275 471500                    LDP1    SFPT$,,AUTO
         2 000175   100000 236100                    LDQ     0,,PR1
         2 000176   000000 552110                    STBQ    0,'10'O,PR0

     1027    16658    2               VBLK.EVENT = %XSP_PEV_SACDIND;

  16658  2 000177   000021 236007                    LDQ     17,DL
         2 000200   200030 552104                    STBQ    VBLK+6,'04'O,AUTO
         2 000201   001035 710000 2                  TRA     s:16857

     1028    16659    2           CASE( %XSS_FNC_SACDCNF#);

     1029    16660    2               XSP$ACTIVITY_DISCARD = XSP_ACTIVITY_DISCARD;

  16660  2 000202   000100 100400                    MLR     fill='000'O
         2 000203   000000 000010 xsym               ADSC9   XSP_ACTIVITY_DISCARD     cn=0,n=8
         2 000204   000000 000010                    ADSC9   0,,PR0                   cn=0,n=8

     1030    16661    2               XSP$ACTIVITY_DISCARD.FNC = %XSP_FNC_PACDCNF#;

  16661  2 000205   004000 236003                    LDQ     2048,DU
         2 000206   000000 552140                    STBQ    0,'40'O,PR0

PL6.E3A0      #002=XSP$SRECV File=XSP$DECODE.:XSA1TSI                            WED 10/01/97 12:01 Page:205
     1031    16662    2               XSP$ACTIVITY_DISCARD.REASON = XSS$ACTIVITY_DISCARD.REASON;

  16662  2 000207   200275 471500                    LDP1    SFPT$,,AUTO
         2 000210   100000 236100                    LDQ     0,,PR1
         2 000211   000000 552110                    STBQ    0,'10'O,PR0

     1032    16663    2               VBLK.EVENT = %XSP_PEV_SACDCNF;

  16663  2 000212   000023 236007                    LDQ     19,DL
         2 000213   200030 552104                    STBQ    VBLK+6,'04'O,AUTO
         2 000214   001035 710000 2                  TRA     s:16857

     1033    16664    2           CASE( %XSS_FNC_SACEIND#);

     1034    16665    2               XSP$ACTIVITY_END = XSP_ACTIVITY_END;

  16665  2 000215   000100 100400                    MLR     fill='000'O
         2 000216   000000 000024 xsym               ADSC9   XSP_ACTIVITY_END         cn=0,n=20
         2 000217   000000 000024                    ADSC9   0,,PR0                   cn=0,n=20

     1035    16666    2               XSP$ACTIVITY_END.FNC = %XSP_FNC_PACEIND#;

  16666  2 000220   006000 236003                    LDQ     3072,DU
         2 000221   000000 552140                    STBQ    0,'40'O,PR0

     1036    16667    2               XSP$ACTIVITY_END.DATA$ = XSS$ACTIVITY_END.DATA.PTR$;  /*N*/

  16667  2 000222   200275 471500                    LDP1    SFPT$,,AUTO
         2 000223   100002 236100                    LDQ     2,,PR1
         2 000224   000002 756100                    STQ     2,,PR0

     1037    16668    2               XSP$ACTIVITY_END.SERNUM = XSS$ACTIVITY_END.SERNUM;

  16668  2 000225   200275 471500                    LDP1    SFPT$,,AUTO
         2 000226   100004 235100                    LDA     4,,PR1
         2 000227   000004 755100                    STA     4,,PR0

PL6.E3A0      #002=XSP$SRECV File=XSP$DECODE.:XSA1TSI                            WED 10/01/97 12:01 Page:206
     1038    16669    2               VBLK.EVENT = %XSP_PEV_SACEIND;

  16669  2 000230   000025 236007                    LDQ     21,DL
         2 000231   200030 552104                    STBQ    VBLK+6,'04'O,AUTO
         2 000232   001035 710000 2                  TRA     s:16857

     1039    16670    2           CASE( %XSS_FNC_SACECNF#);

     1040    16671    2               XSP$ACTIVITY_END = XSP_ACTIVITY_END;

  16671  2 000233   000100 100400                    MLR     fill='000'O
         2 000234   000000 000024 xsym               ADSC9   XSP_ACTIVITY_END         cn=0,n=20
         2 000235   000000 000024                    ADSC9   0,,PR0                   cn=0,n=20

     1041    16672    2               XSP$ACTIVITY_END.FNC = %XSP_FNC_PACECNF#;

  16672  2 000236   010000 236003                    LDQ     4096,DU
         2 000237   000000 552140                    STBQ    0,'40'O,PR0

     1042    16673    2               XSP$ACTIVITY_END.DATA$ = XSS$ACTIVITY_END.DATA.PTR$;  /*N*/

  16673  2 000240   200275 471500                    LDP1    SFPT$,,AUTO
         2 000241   100002 236100                    LDQ     2,,PR1
         2 000242   000002 756100                    STQ     2,,PR0

     1043    16674    2               XSP$ACTIVITY_END.SERNUM = XSS$ACTIVITY_END.SERNUM;

  16674  2 000243   200275 471500                    LDP1    SFPT$,,AUTO
         2 000244   100004 235100                    LDA     4,,PR1
         2 000245   000004 755100                    STA     4,,PR0

     1044    16675    2               VBLK.EVENT = %XSP_PEV_SACECNF;

  16675  2 000246   000027 236007                    LDQ     23,DL
         2 000247   200030 552104                    STBQ    VBLK+6,'04'O,AUTO
         2 000250   001035 710000 2                  TRA     s:16857

PL6.E3A0      #002=XSP$SRECV File=XSP$DECODE.:XSA1TSI                            WED 10/01/97 12:01 Page:207
     1045    16676    2           CASE( %XSS_FNC_SACIIND#);

     1046    16677    2               XSP$ACTIVITY_INTERRUPT = XSP_ACTIVITY_INTERRUPT;

  16677  2 000251   000100 100400                    MLR     fill='000'O
         2 000252   000000 000010 xsym               ADSC9   XSP_ACTIVITY_INTERRUPT   cn=0,n=8
         2 000253   000000 000010                    ADSC9   0,,PR0                   cn=0,n=8

     1047    16678    2               XSP$ACTIVITY_INTERRUPT.FNC = %XSP_FNC_PACIIND#;

  16678  2 000254   012000 236003                    LDQ     5120,DU
         2 000255   000000 552140                    STBQ    0,'40'O,PR0

     1048    16679    2               XSP$ACTIVITY_INTERRUPT.REASON = XSS$ACTIVITY_INTERRUPT.REASON;

  16679  2 000256   200275 471500                    LDP1    SFPT$,,AUTO
         2 000257   100000 236100                    LDQ     0,,PR1
         2 000260   000000 552110                    STBQ    0,'10'O,PR0

     1049    16680    2               VBLK.EVENT = %XSP_PEV_SACIIND;

  16680  2 000261   000031 236007                    LDQ     25,DL
         2 000262   200030 552104                    STBQ    VBLK+6,'04'O,AUTO
         2 000263   001035 710000 2                  TRA     s:16857

     1050    16681    2           CASE( %XSS_FNC_SACICNF#);

     1051    16682    2               XSP$ACTIVITY_INTERRUPT = XSP_ACTIVITY_INTERRUPT;

  16682  2 000264   000100 100400                    MLR     fill='000'O
         2 000265   000000 000010 xsym               ADSC9   XSP_ACTIVITY_INTERRUPT   cn=0,n=8
         2 000266   000000 000010                    ADSC9   0,,PR0                   cn=0,n=8

     1052    16683    2               XSP$ACTIVITY_INTERRUPT.FNC = %XSP_FNC_PACICNF#;

  16683  2 000267   014000 236003                    LDQ     6144,DU
         2 000270   000000 552140                    STBQ    0,'40'O,PR0
PL6.E3A0      #002=XSP$SRECV File=XSP$DECODE.:XSA1TSI                            WED 10/01/97 12:01 Page:208

     1053    16684    2               XSP$ACTIVITY_INTERRUPT.REASON = XSS$ACTIVITY_INTERRUPT.REASON;

  16684  2 000271   200275 471500                    LDP1    SFPT$,,AUTO
         2 000272   100000 236100                    LDQ     0,,PR1
         2 000273   000000 552110                    STBQ    0,'10'O,PR0

     1054    16685    2               VBLK.EVENT = %XSP_PEV_SACICNF;

  16685  2 000274   000033 236007                    LDQ     27,DL
         2 000275   200030 552104                    STBQ    VBLK+6,'04'O,AUTO
         2 000276   001035 710000 2                  TRA     s:16857

     1055    16686    2           CASE( %XSS_FNC_SACRIND#);

     1056    16687    2               XSP$ACTIVITY_RESUME = XSP_ACTIVITY_RESUME;

  16687  2 000277   000100 100400                    MLR     fill='000'O
         2 000300   000000 000064 xsym               ADSC9   XSP_ACTIVITY_RESUME      cn=0,n=52
         2 000301   000000 000064                    ADSC9   0,,PR0                   cn=0,n=52

     1057    16688    2               XSP$ACTIVITY_RESUME.FNC = %XSP_FNC_PACRIND#;

  16688  2 000302   016000 236003                    LDQ     7168,DU
         2 000303   000000 552140                    STBQ    0,'40'O,PR0

     1058    16689    2               XSP$ACTIVITY_RESUME.DATA$ = XSS$ACTIVITY_RESUME.DATA.PTR$;  /*N*/

  16689  2 000304   200275 471500                    LDP1    SFPT$,,AUTO
         2 000305   100002 236100                    LDQ     2,,PR1
         2 000306   000002 756100                    STQ     2,,PR0

     1059    16690    2               XSP$ACTIVITY_RESUME.SERNUM = XSS$ACTIVITY_RESUME.SERNUM;

  16690  2 000307   200275 471500                    LDP1    SFPT$,,AUTO
         2 000310   100004 235100                    LDA     4,,PR1
         2 000311   000004 755100                    STA     4,,PR0
PL6.E3A0      #002=XSP$SRECV File=XSP$DECODE.:XSA1TSI                            WED 10/01/97 12:01 Page:209

     1060    16691    2               XSP$ACTIVITY_RESUME.ACTID = XSS$ACTIVITY_RESUME.ACTID;

  16691  2 000312   200275 471500                    LDP1    SFPT$,,AUTO
         2 000313   000100 100500                    MLR     fill='000'O
         2 000314   100010 000007                    ADSC9   8,,PR1                   cn=0,n=7
         2 000315   000010 000007                    ADSC9   8,,PR0                   cn=0,n=7

     1061    16692    2               XSP$ACTIVITY_RESUME.OACTID = XSS$ACTIVITY_RESUME.OACTID;

  16692  2 000316   200275 471500                    LDP1    SFPT$,,AUTO
         2 000317   000100 100500                    MLR     fill='000'O
         2 000320   100012 000007                    ADSC9   10,,PR1                  cn=0,n=7
         2 000321   000012 000007                    ADSC9   10,,PR0                  cn=0,n=7

     1062    16693    2               VBLK.EVENT = %XSP_PEV_SACRIND;

  16693  2 000322   000035 236007                    LDQ     29,DL
         2 000323   200030 552104                    STBQ    VBLK+6,'04'O,AUTO
         2 000324   001035 710000 2                  TRA     s:16857

     1063    16694    2           CASE( %XSS_FNC_SACSIND#);

     1064    16695    2               XSP$ACTIVITY_START = XSP_ACTIVITY_START;

  16695  2 000325   000100 100400                    MLR     fill='000'O
         2 000326   000000 000030 xsym               ADSC9   XSP_ACTIVITY_START       cn=0,n=24
         2 000327   000000 000030                    ADSC9   0,,PR0                   cn=0,n=24

     1065    16696    2               XSP$ACTIVITY_START.FNC = %XSP_FNC_PACSIND#;

  16696  2 000330   020000 236003                    LDQ     8192,DU
         2 000331   000000 552140                    STBQ    0,'40'O,PR0

     1066    16697    2               XSP$ACTIVITY_START.DATA$ = XSS$ACTIVITY_START.DATA.PTR$;  /*N*/

  16697  2 000332   200275 471500                    LDP1    SFPT$,,AUTO
PL6.E3A0      #002=XSP$SRECV File=XSP$DECODE.:XSA1TSI                            WED 10/01/97 12:01 Page:210
         2 000333   100002 236100                    LDQ     2,,PR1
         2 000334   000002 756100                    STQ     2,,PR0

     1067    16698    2               XSP$ACTIVITY_START.ACTID = XSS$ACTIVITY_START.ACTID;

  16698  2 000335   200275 471500                    LDP1    SFPT$,,AUTO
         2 000336   000100 100500                    MLR     fill='000'O
         2 000337   100004 000007                    ADSC9   4,,PR1                   cn=0,n=7
         2 000340   000004 000007                    ADSC9   4,,PR0                   cn=0,n=7

     1068    16699    2               VBLK.EVENT = %XSP_PEV_SACSIND;

  16699  2 000341   000037 236007                    LDQ     31,DL
         2 000342   200030 552104                    STBQ    VBLK+6,'04'O,AUTO
         2 000343   001035 710000 2                  TRA     s:16857

     1069    16700    2           CASE( %XSS_FNC_SCADIND#);

     1070    16701                    /* should be a TC PPDU from Presentation-peer */
     1071    16702    2               CALL XSP$DECODE( VBLK, SFPT$)

  16702  2 000344   200275 633500                    EPPR3   SFPT$,,AUTO
         2 000345   200307 453500                    STP3    TMPCTXT+9,,AUTO
         2 000346   200022 634500                    EPPR4   VBLK,,AUTO
         2 000347   200306 454500                    STP4    TMPCTXT+8,,AUTO
         2 000350   200306 630500                    EPPR0   TMPCTXT+8,,AUTO
         2 000351   000000 631400 3                  EPPR1   0
         2 000352   000000 701000 xent               TSX1    XSP$DECODE
         2 000353   000355 702000 2                  TSX2    s:16704
         2 000354   000357 710000 2                  TRA     s:16706

     1072    16703    3               WHENALTRETURN DO;

     1073    16704    3                   VBLK.PPDUERR = 1;

  16704  2 000355   001000 236007                    LDQ     512,DL
         2 000356   200030 552110                    STBQ    VBLK+6,'10'O,AUTO
PL6.E3A0      #002=XSP$SRECV File=XSP$DECODE.:XSA1TSI                            WED 10/01/97 12:01 Page:211

     1074    16705    3                   END;

     1075    16706    2               VBLK.EVENT = %XSP_PEV_TC;

  16706  2 000357   000012 236007                    LDQ     10,DL
         2 000360   200030 552104                    STBQ    VBLK+6,'04'O,AUTO
         2 000361   001035 710000 2                  TRA     s:16857

     1076    16707    2           CASE( %XSS_FNC_SCADCNF#);

     1077    16708                    /* should be a TCC PPDU from Presentation-peer */
     1078    16709    2               CALL XSP$DECODE( VBLK, SFPT$)

  16709  2 000362   200275 633500                    EPPR3   SFPT$,,AUTO
         2 000363   200307 453500                    STP3    TMPCTXT+9,,AUTO
         2 000364   200022 634500                    EPPR4   VBLK,,AUTO
         2 000365   200306 454500                    STP4    TMPCTXT+8,,AUTO
         2 000366   200306 630500                    EPPR0   TMPCTXT+8,,AUTO
         2 000367   000000 631400 3                  EPPR1   0
         2 000370   000000 701000 xent               TSX1    XSP$DECODE
         2 000371   000373 702000 2                  TSX2    s:16711
         2 000372   000375 710000 2                  TRA     s:16713

     1079    16710    3               WHENALTRETURN DO;

     1080    16711    3                   VBLK.PPDUERR = 1;

  16711  2 000373   001000 236007                    LDQ     512,DL
         2 000374   200030 552110                    STBQ    VBLK+6,'10'O,AUTO

     1081    16712    3                   END;

     1082    16713    2               VBLK.EVENT = %XSP_PEV_TCC;

  16713  2 000375   000013 236007                    LDQ     11,DL
         2 000376   200030 552104                    STBQ    VBLK+6,'04'O,AUTO
PL6.E3A0      #002=XSP$SRECV File=XSP$DECODE.:XSA1TSI                            WED 10/01/97 12:01 Page:212
         2 000377   001035 710000 2                  TRA     s:16857

     1083    16714    2           CASE( %XSS_FNC_SCONIND#);

     1084    16715                    /* should be a CP PPDU from Presentation-peer */
     1085    16716    2               XSP_SRCADDR$ = ADDR( SRCADDR);

  16716  2 000400   200036 633500                    EPPR3   SRCADDR,,AUTO
         2 000401   000024 453400 1                  STP3    XSP_SRCADDR$

     1086    16717    2               XSP_DSTADDR$ = ADDR( DSTADDR);

  16717  2 000402   200152 634500                    EPPR4   DSTADDR,,AUTO
         2 000403   000023 454400 1                  STP4    XSP_DSTADDR$

     1087    16718    2               XSP_TMPCTXT$ = ADDR( TMPCTXT);

  16718  2 000404   200276 635500                    EPPR5   TMPCTXT,,AUTO
         2 000405   000025 455400 1                  STP5    XSP_TMPCTXT$

     1088    16719    2               TMPCTXT(0) = 0;

  16719  2 000406   200276 450100                    STZ     TMPCTXT,,AUTO

     1089    16720    2               CALL XSP$DECODE( VBLK, SFPT$)

  16720  2 000407   200275 636500                    EPPR6   SFPT$,,AUTO
         2 000410   200307 456500                    STP6    TMPCTXT+9,,AUTO
         2 000411   200022 637500                    EPPR7   VBLK,,AUTO
         2 000412   200306 457500                    STP7    TMPCTXT+8,,AUTO
         2 000413   200306 630500                    EPPR0   TMPCTXT+8,,AUTO
         2 000414   000000 631400 3                  EPPR1   0
         2 000415   000000 701000 xent               TSX1    XSP$DECODE
         2 000416   000420 702000 2                  TSX2    s:16722
         2 000417   000422 710000 2                  TRA     s:16724

     1090    16721    3               WHENALTRETURN DO;
PL6.E3A0      #002=XSP$SRECV File=XSP$DECODE.:XSA1TSI                            WED 10/01/97 12:01 Page:213

     1091    16722    3                   VBLK.PPDUERR = 1;

  16722  2 000420   001000 236007                    LDQ     512,DL
         2 000421   200030 552110                    STBQ    VBLK+6,'10'O,AUTO

     1092    16723    3                   END;

     1093    16724    2               VBLK.EVENT = %XSP_PEV_CP;

  16724  2 000422   000005 236007                    LDQ     5,DL
         2 000423   200030 552104                    STBQ    VBLK+6,'04'O,AUTO
         2 000424   001035 710000 2                  TRA     s:16857

     1094    16725    2           CASE( %XSS_FNC_SCONCNF#);

     1095    16726                    /* should be a CPA or CPR PPDU from Presentation-peer */
     1096    16727    2               XSP_SRCADDR$ = ADDR( SRCADDR);

  16727  2 000425   200036 633500                    EPPR3   SRCADDR,,AUTO
         2 000426   000024 453400 1                  STP3    XSP_SRCADDR$

     1097    16728    2               XSP_DSTADDR$ = ADDR( DSTADDR);

  16728  2 000427   200152 634500                    EPPR4   DSTADDR,,AUTO
         2 000430   000023 454400 1                  STP4    XSP_DSTADDR$

     1098    16729    2               XSP_TMPCTXT$ = ADDR( TMPCTXT);

  16729  2 000431   200276 635500                    EPPR5   TMPCTXT,,AUTO
         2 000432   000025 455400 1                  STP5    XSP_TMPCTXT$

     1099    16730    2               TMPCTXT(0) = 0;

  16730  2 000433   200276 450100                    STZ     TMPCTXT,,AUTO

     1100    16731    2               CALL XSP$DECODE( VBLK, SFPT$)
PL6.E3A0      #002=XSP$SRECV File=XSP$DECODE.:XSA1TSI                            WED 10/01/97 12:01 Page:214

  16731  2 000434   200275 636500                    EPPR6   SFPT$,,AUTO
         2 000435   200307 456500                    STP6    TMPCTXT+9,,AUTO
         2 000436   200022 637500                    EPPR7   VBLK,,AUTO
         2 000437   200306 457500                    STP7    TMPCTXT+8,,AUTO
         2 000440   200306 630500                    EPPR0   TMPCTXT+8,,AUTO
         2 000441   000000 631400 3                  EPPR1   0
         2 000442   000000 701000 xent               TSX1    XSP$DECODE
         2 000443   000445 702000 2                  TSX2    s:16733
         2 000444   000447 710000 2                  TRA     s:16734

     1101    16732    3               WHENALTRETURN DO;

     1102    16733    3                   VBLK.PPDUERR = 1;

  16733  2 000445   001000 236007                    LDQ     512,DL
         2 000446   200030 552110                    STBQ    VBLK+6,'10'O,AUTO

     1103    16734    3                   END;

  16734  2 000447   001035 710000 2                  TRA     s:16857

     1104    16735                    /* VBLK.EVENT filled in by XSP$DECODE */
     1105    16736    2           CASE( %XSS_FNC_SCTGIND#);

     1106    16737    2               XSP$CONTROL_GIVE = XSP_CONTROL_GIVE;

  16737  2 000450   000100 100400                    MLR     fill='000'O
         2 000451   000000 000010 xsym               ADSC9   XSP_CONTROL_GIVE         cn=0,n=8
         2 000452   000000 000010                    ADSC9   0,,PR0                   cn=0,n=8

     1107    16738    2               XSP$CONTROL_GIVE.FNC = %XSP_FNC_PCTGIND#;

  16738  2 000453   036000 236003                    LDQ     15360,DU
         2 000454   000000 552140                    STBQ    0,'40'O,PR0

     1108    16739    2               VBLK.EVENT = %XSP_PEV_SCTGIND;
PL6.E3A0      #002=XSP$SRECV File=XSP$DECODE.:XSA1TSI                            WED 10/01/97 12:01 Page:215

  16739  2 000455   000041 236007                    LDQ     33,DL
         2 000456   200030 552104                    STBQ    VBLK+6,'04'O,AUTO
         2 000457   001035 710000 2                  TRA     s:16857

     1109    16740    2           CASE( %XSS_FNC_SDATIND#);

     1110    16741                    /* should be a TD PPDU from Presentation-peer */
     1111    16742    2               CALL XSP$DECODE( VBLK, SFPT$)

  16742  2 000460   200275 633500                    EPPR3   SFPT$,,AUTO
         2 000461   200307 453500                    STP3    TMPCTXT+9,,AUTO
         2 000462   200022 634500                    EPPR4   VBLK,,AUTO
         2 000463   200306 454500                    STP4    TMPCTXT+8,,AUTO
         2 000464   200306 630500                    EPPR0   TMPCTXT+8,,AUTO
         2 000465   000000 631400 3                  EPPR1   0
         2 000466   000000 701000 xent               TSX1    XSP$DECODE
         2 000467   000471 702000 2                  TSX2    s:16744
         2 000470   000473 710000 2                  TRA     s:16746

     1112    16743    3               WHENALTRETURN DO;

     1113    16744    3                   VBLK.PPDUERR = 1;

  16744  2 000471   001000 236007                    LDQ     512,DL
         2 000472   200030 552110                    STBQ    VBLK+6,'10'O,AUTO

     1114    16745    3                   END;

     1115    16746    2               VBLK.EVENT = %XSP_PEV_TD;

  16746  2 000473   000014 236007                    LDQ     12,DL
         2 000474   200030 552104                    STBQ    VBLK+6,'04'O,AUTO
         2 000475   001035 710000 2                  TRA     s:16857

     1116    16747    2           CASE( %XSS_FNC_SEXPIND#);

PL6.E3A0      #002=XSP$SRECV File=XSP$DECODE.:XSA1TSI                            WED 10/01/97 12:01 Page:216
     1117    16748                    /* should be a TE PPDU from Presentation-peer */
     1118    16749    2               CALL XSP$DECODE( VBLK, SFPT$)

  16749  2 000476   200275 633500                    EPPR3   SFPT$,,AUTO
         2 000477   200307 453500                    STP3    TMPCTXT+9,,AUTO
         2 000500   200022 634500                    EPPR4   VBLK,,AUTO
         2 000501   200306 454500                    STP4    TMPCTXT+8,,AUTO
         2 000502   200306 630500                    EPPR0   TMPCTXT+8,,AUTO
         2 000503   000000 631400 3                  EPPR1   0
         2 000504   000000 701000 xent               TSX1    XSP$DECODE
         2 000505   000507 702000 2                  TSX2    s:16751
         2 000506   000511 710000 2                  TRA     s:16753

     1119    16750    3               WHENALTRETURN DO;

     1120    16751    3                   VBLK.PPDUERR = 1;

  16751  2 000507   001000 236007                    LDQ     512,DL
         2 000510   200030 552110                    STBQ    VBLK+6,'10'O,AUTO

     1121    16752    3                   END;

     1122    16753    2               VBLK.EVENT = %XSP_PEV_TE;

  16753  2 000511   000015 236007                    LDQ     13,DL
         2 000512   200030 552104                    STBQ    VBLK+6,'04'O,AUTO
         2 000513   001035 710000 2                  TRA     s:16857

     1123    16754    2           CASE( %XSS_FNC_SPABIND#);

     1124    16755                    /* Session-provider abort */
     1125    16756    2               XSP$P_ABORT = XSP_P_ABORT;

  16756  2 000514   000100 100400                    MLR     fill='000'O
         2 000515   000000 000010 xsym               ADSC9   XSP_P_ABORT              cn=0,n=8
         2 000516   000000 000010                    ADSC9   0,,PR0                   cn=0,n=8

PL6.E3A0      #002=XSP$SRECV File=XSP$DECODE.:XSA1TSI                            WED 10/01/97 12:01 Page:217
     1126    16757    2               XSP$P_ABORT.FNC = %XSP_FNC_PPABIND#;

  16757  2 000517   075000 236003                    LDQ     31232,DU
         2 000520   000000 552140                    STBQ    0,'40'O,PR0

     1127    16758    2               XSP$P_ABORT.REASON = XSS$P_ABORT.REASON;

  16758  2 000521   200275 471500                    LDP1    SFPT$,,AUTO
         2 000522   100000 236100                    LDQ     0,,PR1
         2 000523   000000 552110                    STBQ    0,'10'O,PR0

     1128    16759    2               VBLK.EVENT = %XSP_PEV_SPABIND;

  16759  2 000524   000073 236007                    LDQ     59,DL
         2 000525   200030 552104                    STBQ    VBLK+6,'04'O,AUTO
         2 000526   001035 710000 2                  TRA     s:16857

     1129    16760    2           CASE( %XSS_FNC_SPERIND#);

     1130    16761                    /* Session-provider exception report */
     1131    16762    2               XSP$P_EXCEPTION_REPORT = XSP_P_EXCEPTION_REPORT;

  16762  2 000527   000100 100400                    MLR     fill='000'O
         2 000530   000000 000010 xsym               ADSC9   XSP_P_EXCEPTION_REPORT   cn=0,n=8
         2 000531   000000 000010                    ADSC9   0,,PR0                   cn=0,n=8

     1132    16763    2               XSP$P_EXCEPTION_REPORT.FNC = %XSP_FNC_PPERIND#;

  16763  2 000532   076000 236003                    LDQ     31744,DU
         2 000533   000000 552140                    STBQ    0,'40'O,PR0

     1133    16764    2               XSP$P_EXCEPTION_REPORT.REASON = XSS$P_EXCEPTION_REPORT.REASON;

  16764  2 000534   200275 471500                    LDP1    SFPT$,,AUTO
         2 000535   100000 236100                    LDQ     0,,PR1
         2 000536   000000 552110                    STBQ    0,'10'O,PR0

PL6.E3A0      #002=XSP$SRECV File=XSP$DECODE.:XSA1TSI                            WED 10/01/97 12:01 Page:218
     1134    16765    2               VBLK.EVENT = %XSP_PEV_SPERIND;

  16765  2 000537   000075 236007                    LDQ     61,DL
         2 000540   200030 552104                    STBQ    VBLK+6,'04'O,AUTO
         2 000541   001035 710000 2                  TRA     s:16857

     1135    16766    2           CASE( %XSS_FNC_SRELIND#);

     1136    16767    2               XSP$RELEASE = XSP_RELEASE;

  16767  2 000542   000100 100400                    MLR     fill='000'O
         2 000543   000000 000014 xsym               ADSC9   XSP_RELEASE              cn=0,n=12
         2 000544   000000 000014                    ADSC9   0,,PR0                   cn=0,n=12

     1137    16768    2               XSP$RELEASE.FNC = %XSP_FNC_PRELIND#;

  16768  2 000545   044000 236003                    LDQ     18432,DU
         2 000546   000000 552140                    STBQ    0,'40'O,PR0

     1138    16769    2               XSP$RELEASE.DATA$ = XSS$RELEASE.DATA.PTR$;  /*N*/

  16769  2 000547   200275 471500                    LDP1    SFPT$,,AUTO
         2 000550   100002 236100                    LDQ     2,,PR1
         2 000551   000002 756100                    STQ     2,,PR0

     1139    16770    2               VBLK.EVENT = %XSP_PEV_SRELIND;

  16770  2 000552   000047 236007                    LDQ     39,DL
         2 000553   200030 552104                    STBQ    VBLK+6,'04'O,AUTO
         2 000554   001035 710000 2                  TRA     s:16857

     1140    16771    2           CASE( %XSS_FNC_SRELCNF#);

     1141    16772    2               XSP$RELEASE = XSP_RELEASE;

  16772  2 000555   000100 100400                    MLR     fill='000'O
         2 000556   000000 000014 xsym               ADSC9   XSP_RELEASE              cn=0,n=12
PL6.E3A0      #002=XSP$SRECV File=XSP$DECODE.:XSA1TSI                            WED 10/01/97 12:01 Page:219
         2 000557   000000 000014                    ADSC9   0,,PR0                   cn=0,n=12

     1142    16773    2               XSP$RELEASE.FNC = %XSP_FNC_PRELCNF#;

  16773  2 000560   046000 236003                    LDQ     19456,DU
         2 000561   000000 552140                    STBQ    0,'40'O,PR0

     1143    16774    2               XSP$RELEASE.RESULT = XSS$RELEASE.RESULT;

  16774  2 000562   200275 471500                    LDP1    SFPT$,,AUTO
         2 000563   100000 236100                    LDQ     0,,PR1
         2 000564   000000 552104                    STBQ    0,'04'O,PR0

     1144    16775    2               XSP$RELEASE.DATA$ = XSS$RELEASE.DATA.PTR$;  /*N*/

  16775  2 000565   200275 471500                    LDP1    SFPT$,,AUTO
         2 000566   100002 236100                    LDQ     2,,PR1
         2 000567   000002 756100                    STQ     2,,PR0

     1145    16776    2               IF XSS$RELEASE.RESULT = 0 THEN

  16776  2 000570   200275 471500                    LDP1    SFPT$,,AUTO
         2 000571   100000 236100                    LDQ     0,,PR1
         2 000572   000777 316007                    CANQ    511,DL
         2 000573   000577 601000 2                  TNZ     s:16781

     1146    16777                        /* release accepted */
     1147    16778    2                   VBLK.EVENT = %XSP_PEV_SRELCFP;

  16778  2 000574   000051 236007                    LDQ     41,DL
         2 000575   200030 552104                    STBQ    VBLK+6,'04'O,AUTO
         2 000576   001035 710000 2                  TRA     s:16857

     1148    16779    2               ELSE
     1149    16780                        /* release rejected by Session-peer or Presentation-peer */
     1150    16781    2                   VBLK.EVENT = %XSP_PEV_SRELCFN;

PL6.E3A0      #002=XSP$SRECV File=XSP$DECODE.:XSA1TSI                            WED 10/01/97 12:01 Page:220
  16781  2 000577   000053 236007                    LDQ     43,DL
         2 000600   200030 552104                    STBQ    VBLK+6,'04'O,AUTO
         2 000601   001035 710000 2                  TRA     s:16857

     1151    16782    2           CASE( %XSS_FNC_SRSXIND#);

     1152    16783                    /* should be an RS PPDU from Presentation-peer */
     1153    16784    2               CALL XSP$DECODE( VBLK, SFPT$)

  16784  2 000602   200275 633500                    EPPR3   SFPT$,,AUTO
         2 000603   200307 453500                    STP3    TMPCTXT+9,,AUTO
         2 000604   200022 634500                    EPPR4   VBLK,,AUTO
         2 000605   200306 454500                    STP4    TMPCTXT+8,,AUTO
         2 000606   200306 630500                    EPPR0   TMPCTXT+8,,AUTO
         2 000607   000000 631400 3                  EPPR1   0
         2 000610   000000 701000 xent               TSX1    XSP$DECODE
         2 000611   000613 702000 2                  TSX2    s:16786
         2 000612   000615 710000 2                  TRA     s:16788

     1154    16785    3               WHENALTRETURN DO;

     1155    16786    3                   VBLK.PPDUERR = 1;

  16786  2 000613   001000 236007                    LDQ     512,DL
         2 000614   200030 552110                    STBQ    VBLK+6,'10'O,AUTO

     1156    16787    3                   END;

     1157    16788    2               VBLK.EVENT = %XSP_PEV_RS;

  16788  2 000615   000010 236007                    LDQ     8,DL
         2 000616   200030 552104                    STBQ    VBLK+6,'04'O,AUTO
         2 000617   001035 710000 2                  TRA     s:16857

     1158    16789    2           CASE( %XSS_FNC_SRSXCNF#);

     1159    16790                    /* should be an RSA PPDU from Presentation-peer */
PL6.E3A0      #002=XSP$SRECV File=XSP$DECODE.:XSA1TSI                            WED 10/01/97 12:01 Page:221
     1160    16791    2               CALL XSP$DECODE( VBLK, SFPT$)

  16791  2 000620   200275 633500                    EPPR3   SFPT$,,AUTO
         2 000621   200307 453500                    STP3    TMPCTXT+9,,AUTO
         2 000622   200022 634500                    EPPR4   VBLK,,AUTO
         2 000623   200306 454500                    STP4    TMPCTXT+8,,AUTO
         2 000624   200306 630500                    EPPR0   TMPCTXT+8,,AUTO
         2 000625   000000 631400 3                  EPPR1   0
         2 000626   000000 701000 xent               TSX1    XSP$DECODE
         2 000627   000631 702000 2                  TSX2    s:16793
         2 000630   000633 710000 2                  TRA     s:16795

     1161    16792    3               WHENALTRETURN DO;

     1162    16793    3                   VBLK.PPDUERR = 1;

  16793  2 000631   001000 236007                    LDQ     512,DL
         2 000632   200030 552110                    STBQ    VBLK+6,'10'O,AUTO

     1163    16794    3                   END;

     1164    16795    2               VBLK.EVENT = %XSP_PEV_RSA;

  16795  2 000633   000011 236007                    LDQ     9,DL
         2 000634   200030 552104                    STBQ    VBLK+6,'04'O,AUTO
         2 000635   001035 710000 2                  TRA     s:16857

     1165    16796    2           CASE( %XSS_FNC_SSMAIND#);

     1166    16797    2               XSP$SYNC_MAJOR = XSP_SYNC_MAJOR;

  16797  2 000636   000100 100400                    MLR     fill='000'O
         2 000637   000000 000024 xsym               ADSC9   XSP_SYNC_MAJOR           cn=0,n=20
         2 000640   000000 000024                    ADSC9   0,,PR0                   cn=0,n=20

     1167    16798    2               XSP$SYNC_MAJOR.FNC = %XSP_FNC_PSMAIND#;

PL6.E3A0      #002=XSP$SRECV File=XSP$DECODE.:XSA1TSI                            WED 10/01/97 12:01 Page:222
  16798  2 000641   054000 236003                    LDQ     22528,DU
         2 000642   000000 552140                    STBQ    0,'40'O,PR0

     1168    16799    2               XSP$SYNC_MAJOR.DATA$ = XSS$SYNC_MAJOR.DATA.PTR$;  /*N*/

  16799  2 000643   200275 471500                    LDP1    SFPT$,,AUTO
         2 000644   100002 236100                    LDQ     2,,PR1
         2 000645   000002 756100                    STQ     2,,PR0

     1169    16800    2               XSP$SYNC_MAJOR.SERNUM = XSS$SYNC_MAJOR.SERNUM;

  16800  2 000646   200275 471500                    LDP1    SFPT$,,AUTO
         2 000647   100004 235100                    LDA     4,,PR1
         2 000650   000004 755100                    STA     4,,PR0

     1170    16801    2               VBLK.EVENT = %XSP_PEV_SSMAIND;

  16801  2 000651   000061 236007                    LDQ     49,DL
         2 000652   200030 552104                    STBQ    VBLK+6,'04'O,AUTO
         2 000653   001035 710000 2                  TRA     s:16857

     1171    16802    2           CASE( %XSS_FNC_SSMACNF#);

     1172    16803    2               XSP$SYNC_MAJOR = XSP_SYNC_MAJOR;

  16803  2 000654   000100 100400                    MLR     fill='000'O
         2 000655   000000 000024 xsym               ADSC9   XSP_SYNC_MAJOR           cn=0,n=20
         2 000656   000000 000024                    ADSC9   0,,PR0                   cn=0,n=20

     1173    16804    2               XSP$SYNC_MAJOR.FNC = %XSP_FNC_PSMACNF#;

  16804  2 000657   056000 236003                    LDQ     23552,DU
         2 000660   000000 552140                    STBQ    0,'40'O,PR0

     1174    16805    2               XSP$SYNC_MAJOR.DATA$ = XSS$SYNC_MAJOR.DATA.PTR$;  /*N*/

  16805  2 000661   200275 471500                    LDP1    SFPT$,,AUTO
PL6.E3A0      #002=XSP$SRECV File=XSP$DECODE.:XSA1TSI                            WED 10/01/97 12:01 Page:223
         2 000662   100002 236100                    LDQ     2,,PR1
         2 000663   000002 756100                    STQ     2,,PR0

     1175    16806    2               XSP$SYNC_MAJOR.SERNUM = XSS$SYNC_MAJOR.SERNUM;

  16806  2 000664   200275 471500                    LDP1    SFPT$,,AUTO
         2 000665   100004 235100                    LDA     4,,PR1
         2 000666   000004 755100                    STA     4,,PR0

     1176    16807    2               VBLK.EVENT = %XSP_PEV_SSMACNF;

  16807  2 000667   000063 236007                    LDQ     51,DL
         2 000670   200030 552104                    STBQ    VBLK+6,'04'O,AUTO
         2 000671   001035 710000 2                  TRA     s:16857

     1177    16808    2           CASE( %XSS_FNC_SSMIIND#);

     1178    16809    2               XSP$SYNC_MINOR = XSP_SYNC_MINOR;

  16809  2 000672   000100 100400                    MLR     fill='000'O
         2 000673   000000 000024 xsym               ADSC9   XSP_SYNC_MINOR           cn=0,n=20
         2 000674   000000 000024                    ADSC9   0,,PR0                   cn=0,n=20

     1179    16810    2               XSP$SYNC_MINOR.FNC = %XSP_FNC_PSMIIND#;

  16810  2 000675   060000 236003                    LDQ     24576,DU
         2 000676   000000 552140                    STBQ    0,'40'O,PR0

     1180    16811    2               XSP$SYNC_MINOR.TYPE = XSS$SYNC_MINOR.TYPE;

  16811  2 000677   200275 471500                    LDP1    SFPT$,,AUTO
         2 000700   100000 236100                    LDQ     0,,PR1
         2 000701   000000 552110                    STBQ    0,'10'O,PR0

     1181    16812    2               XSP$SYNC_MINOR.DATA$ = XSS$SYNC_MINOR.DATA.PTR$;  /*N*/

  16812  2 000702   200275 471500                    LDP1    SFPT$,,AUTO
PL6.E3A0      #002=XSP$SRECV File=XSP$DECODE.:XSA1TSI                            WED 10/01/97 12:01 Page:224
         2 000703   100002 236100                    LDQ     2,,PR1
         2 000704   000002 756100                    STQ     2,,PR0

     1182    16813    2               XSP$SYNC_MINOR.SERNUM = XSS$SYNC_MINOR.SERNUM;

  16813  2 000705   200275 471500                    LDP1    SFPT$,,AUTO
         2 000706   100004 235100                    LDA     4,,PR1
         2 000707   000004 755100                    STA     4,,PR0

     1183    16814    2               VBLK.EVENT = %XSP_PEV_SSMIIND;

  16814  2 000710   000065 236007                    LDQ     53,DL
         2 000711   200030 552104                    STBQ    VBLK+6,'04'O,AUTO
         2 000712   001035 710000 2                  TRA     s:16857

     1184    16815    2           CASE( %XSS_FNC_SSMICNF#);

     1185    16816    2               XSP$SYNC_MINOR = XSP_SYNC_MINOR;

  16816  2 000713   000100 100400                    MLR     fill='000'O
         2 000714   000000 000024 xsym               ADSC9   XSP_SYNC_MINOR           cn=0,n=20
         2 000715   000000 000024                    ADSC9   0,,PR0                   cn=0,n=20

     1186    16817    2               XSP$SYNC_MINOR.FNC = %XSP_FNC_PSMICNF#;

  16817  2 000716   062000 236003                    LDQ     25600,DU
         2 000717   000000 552140                    STBQ    0,'40'O,PR0

     1187    16818    2               XSP$SYNC_MINOR.TYPE = XSS$SYNC_MINOR.TYPE;

  16818  2 000720   200275 471500                    LDP1    SFPT$,,AUTO
         2 000721   100000 236100                    LDQ     0,,PR1
         2 000722   000000 552110                    STBQ    0,'10'O,PR0

     1188    16819    2               XSP$SYNC_MINOR.DATA$ = XSS$SYNC_MINOR.DATA.PTR$;  /*N*/

  16819  2 000723   200275 471500                    LDP1    SFPT$,,AUTO
PL6.E3A0      #002=XSP$SRECV File=XSP$DECODE.:XSA1TSI                            WED 10/01/97 12:01 Page:225
         2 000724   100002 236100                    LDQ     2,,PR1
         2 000725   000002 756100                    STQ     2,,PR0

     1189    16820    2               XSP$SYNC_MINOR.SERNUM = XSS$SYNC_MINOR.SERNUM;

  16820  2 000726   200275 471500                    LDP1    SFPT$,,AUTO
         2 000727   100004 235100                    LDA     4,,PR1
         2 000730   000004 755100                    STA     4,,PR0

     1190    16821    2               VBLK.EVENT = %XSP_PEV_SSMICNF;

  16821  2 000731   000067 236007                    LDQ     55,DL
         2 000732   200030 552104                    STBQ    VBLK+6,'04'O,AUTO
         2 000733   001035 710000 2                  TRA     s:16857

     1191    16822    2           CASE( %XSS_FNC_STKGIND#);

     1192    16823    2               XSP$TOKEN_GIVE = XSP_TOKEN_GIVE;

  16823  2 000734   000100 100400                    MLR     fill='000'O
         2 000735   000000 000010 xsym               ADSC9   XSP_TOKEN_GIVE           cn=0,n=8
         2 000736   000000 000010                    ADSC9   0,,PR0                   cn=0,n=8

     1193    16824    2               XSP$TOKEN_GIVE.FNC = %XSP_FNC_PTKGIND#;

  16824  2 000737   064000 236003                    LDQ     26624,DU
         2 000740   000000 552140                    STBQ    0,'40'O,PR0

     1194    16825    2               XSP$TOKEN_GIVE.TOKENS = XSS$TOKEN_GIVE.TOKENS;

  16825  2 000741   200275 471500                    LDP1    SFPT$,,AUTO
         2 000742   100000 236100                    LDQ     0,,PR1
         2 000743   000000 552104                    STBQ    0,'04'O,PR0

     1195    16826    2               VBLK.EVENT = %XSP_PEV_STKGIND;

  16826  2 000744   000043 236007                    LDQ     35,DL
PL6.E3A0      #002=XSP$SRECV File=XSP$DECODE.:XSA1TSI                            WED 10/01/97 12:01 Page:226
         2 000745   200030 552104                    STBQ    VBLK+6,'04'O,AUTO
         2 000746   001035 710000 2                  TRA     s:16857

     1196    16827    2           CASE( %XSS_FNC_STKPIND#);

     1197    16828    2               XSP$TOKEN_PLEASE = XSP_TOKEN_PLEASE;

  16828  2 000747   000100 100400                    MLR     fill='000'O
         2 000750   000000 000014 xsym               ADSC9   XSP_TOKEN_PLEASE         cn=0,n=12
         2 000751   000000 000014                    ADSC9   0,,PR0                   cn=0,n=12

     1198    16829    2               XSP$TOKEN_PLEASE.FNC = %XSP_FNC_PTKPIND#;

  16829  2 000752   066000 236003                    LDQ     27648,DU
         2 000753   000000 552140                    STBQ    0,'40'O,PR0

     1199    16830    2               XSP$TOKEN_PLEASE.TOKENS = XSS$TOKEN_PLEASE.TOKENS;

  16830  2 000754   200275 471500                    LDP1    SFPT$,,AUTO
         2 000755   100000 236100                    LDQ     0,,PR1
         2 000756   000000 552104                    STBQ    0,'04'O,PR0

     1200    16831    2               XSP$TOKEN_PLEASE.DATA$ = XSS$TOKEN_PLEASE.DATA.PTR$;  /*N*/

  16831  2 000757   200275 471500                    LDP1    SFPT$,,AUTO
         2 000760   100002 236100                    LDQ     2,,PR1
         2 000761   000002 756100                    STQ     2,,PR0

     1201    16832    2               VBLK.EVENT = %XSP_PEV_STKPIND;

  16832  2 000762   000045 236007                    LDQ     37,DL
         2 000763   200030 552104                    STBQ    VBLK+6,'04'O,AUTO
         2 000764   001035 710000 2                  TRA     s:16857

     1202    16833    2           CASE( %XSS_FNC_STYDIND#);

     1203    16834                    /* should be one of AC, ACA, or TTD PPDU from Presentation-peer */
PL6.E3A0      #002=XSP$SRECV File=XSP$DECODE.:XSA1TSI                            WED 10/01/97 12:01 Page:227
     1204    16835    2               XSP_TMPCTXT$ = ADDR( TMPCTXT);

  16835  2 000765   200276 633500                    EPPR3   TMPCTXT,,AUTO
         2 000766   000025 453400 1                  STP3    XSP_TMPCTXT$

     1205    16836    2               TMPCTXT(0) = 0;

  16836  2 000767   200276 450100                    STZ     TMPCTXT,,AUTO

     1206    16837    2               CALL XSP$DECODE( VBLK, SFPT$)

  16837  2 000770   200275 634500                    EPPR4   SFPT$,,AUTO
         2 000771   200307 454500                    STP4    TMPCTXT+9,,AUTO
         2 000772   200022 635500                    EPPR5   VBLK,,AUTO
         2 000773   200306 455500                    STP5    TMPCTXT+8,,AUTO
         2 000774   200306 630500                    EPPR0   TMPCTXT+8,,AUTO
         2 000775   000000 631400 3                  EPPR1   0
         2 000776   000000 701000 xent               TSX1    XSP$DECODE
         2 000777   001001 702000 2                  TSX2    s:16839
         2 001000   001003 710000 2                  TRA     s:16840

     1207    16838    3               WHENALTRETURN DO;

     1208    16839    3                   VBLK.PPDUERR = 1;

  16839  2 001001   001000 236007                    LDQ     512,DL
         2 001002   200030 552110                    STBQ    VBLK+6,'10'O,AUTO

     1209    16840    3                   END;

  16840  2 001003   001035 710000 2                  TRA     s:16857

     1210    16841                    /* VBLK.EVENT filled in by XSP$DECODE */
     1211    16842    2           CASE( %XSS_FNC_SUABIND#);

     1212    16843                    /* should be ARP or ARU PPDU from Presentation-peer */
     1213    16844    2               CALL XSP$DECODE( VBLK, SFPT$)
PL6.E3A0      #002=XSP$SRECV File=XSP$DECODE.:XSA1TSI                            WED 10/01/97 12:01 Page:228

  16844  2 001004   200275 633500                    EPPR3   SFPT$,,AUTO
         2 001005   200307 453500                    STP3    TMPCTXT+9,,AUTO
         2 001006   200022 634500                    EPPR4   VBLK,,AUTO
         2 001007   200306 454500                    STP4    TMPCTXT+8,,AUTO
         2 001010   200306 630500                    EPPR0   TMPCTXT+8,,AUTO
         2 001011   000000 631400 3                  EPPR1   0
         2 001012   000000 701000 xent               TSX1    XSP$DECODE
         2 001013   001015 702000 2                  TSX2    s:16846
         2 001014   001017 710000 2                  TRA     s:16847

     1214    16845    3               WHENALTRETURN DO;

     1215    16846    3                   VBLK.PPDUERR = 1;

  16846  2 001015   001000 236007                    LDQ     512,DL
         2 001016   200030 552110                    STBQ    VBLK+6,'10'O,AUTO

     1216    16847    3                   END;

  16847  2 001017   001035 710000 2                  TRA     s:16857

     1217    16848                    /* VBLK.EVENT filled in by XSP$DECODE */
     1218    16849    2           CASE( %XSS_FNC_SUERIND#);

     1219    16850                    /* Session-peer reporting an exception */
     1220    16851    2               XSP$U_EXCEPTION_REPORT = XSP_U_EXCEPTION_REPORT;

  16851  2 001020   000100 100400                    MLR     fill='000'O
         2 001021   000000 000014 xsym               ADSC9   XSP_U_EXCEPTION_REPORT   cn=0,n=12
         2 001022   000000 000014                    ADSC9   0,,PR0                   cn=0,n=12

     1221    16852    2               XSP$U_EXCEPTION_REPORT.FNC = %XSP_FNC_PUERIND#;

  16852  2 001023   074000 236003                    LDQ     30720,DU
         2 001024   000000 552140                    STBQ    0,'40'O,PR0

PL6.E3A0      #002=XSP$SRECV File=XSP$DECODE.:XSA1TSI                            WED 10/01/97 12:01 Page:229
     1222    16853    2               XSP$U_EXCEPTION_REPORT.REASON = XSS$U_EXCEPTION_REPORT.REASON;

  16853  2 001025   200275 471500                    LDP1    SFPT$,,AUTO
         2 001026   100000 236100                    LDQ     0,,PR1
         2 001027   000000 552110                    STBQ    0,'10'O,PR0

     1223    16854    2               XSP$U_EXCEPTION_REPORT.DATA$ = XSS$U_EXCEPTION_REPORT.DATA.PTR$;  /*N*/

  16854  2 001030   200275 471500                    LDP1    SFPT$,,AUTO
         2 001031   100002 236100                    LDQ     2,,PR1
         2 001032   000002 756100                    STQ     2,,PR0

     1224    16855    2               VBLK.EVENT = %XSP_PEV_SUERIND;

  16855  2 001033   000071 236007                    LDQ     57,DL
         2 001034   200030 552104                    STBQ    VBLK+6,'04'O,AUTO

     1225    16856    2           END;

     1226    16857    1       XSP$GENERIC.PCID = XSS$GENERIC.SCID;

  16857  2 001035   200275 470500                    LDP0    SFPT$,,AUTO
         2 001036   200274 471500                    LDP1    PFPT$,,AUTO
         2 001037   000000 236100                    LDQ     0,,PR0
         2 001040   100000 552120                    STBQ    0,'20'O,PR1

     1227    16858    2       IF XSP_DATANUM > 0 THEN DO;

  16858  2 001041   000000 235000 1                  LDA     XSP_DATANUM
         2 001042   001124 604400 2                  TMOZ    s:16871

     1228    16859    2           CALL XSS$GETMEM( BLKX, AFPT$, XSP_DATANUM * SIZEC( XSP_ASN1_FPT));

  16859  2 001043   000000 236000 1                  LDQ     XSP_DATANUM
         2 001044   000070 402007                    MPY     56,DL
         2 001045   200306 756100                    STQ     TMPCTXT+8,,AUTO
         2 001046   200306 630500                    EPPR0   TMPCTXT+8,,AUTO
PL6.E3A0      #002=XSP$SRECV File=XSP$DECODE.:XSA1TSI                            WED 10/01/97 12:01 Page:230
         2 001047   200311 450500                    STP0    TMPCTXT+11,,AUTO
         2 001050   200267 633500                    EPPR3   AFPT$,,AUTO
         2 001051   200310 453500                    STP3    TMPCTXT+10,,AUTO
         2 001052   200270 634500                    EPPR4   BLKX,,AUTO
         2 001053   200307 454500                    STP4    TMPCTXT+9,,AUTO
         2 001054   200307 630500                    EPPR0   TMPCTXT+9,,AUTO
         2 001055   000003 631400 3                  EPPR1   3
         2 001056   000000 701000 xent               TSX1    XSS$GETMEM
         2 001057   000000 011000                    NOP     0

     1229    16860    2           XSP$GENERIC.DATA$ = AFPT$;

  16860  2 001060   200267 236100                    LDQ     AFPT$,,AUTO
         2 001061   200274 470500                    LDP0    PFPT$,,AUTO
         2 001062   000002 756100                    STQ     2,,PR0

     1230    16861    3           DO I = 1 TO XSP_DATANUM;

  16861  2 001063   000001 235007                    LDA     1,DL
         2 001064   200272 755100                    STA     I,,AUTO
         2 001065   001121 710000 2                  TRA     s:16869+1

     1231    16862    3               AFPT = XSP_ASN1_FPT;

  16862  2 001066   200267 470500                    LDP0    AFPT$,,AUTO
         2 001067   000100 100400                    MLR     fill='000'O
         2 001070   000000 000070 0                  ADSC9   XSP_ASN1_FPT             cn=0,n=56
         2 001071   000000 000070                    ADSC9   0,,PR0                   cn=0,n=56

     1232    16863    3               AFPT.BUF$ = XSP_DATABUF$( I-1);

  16863  2 001072   200272 720100                    LXL0    I,,AUTO
         2 001073   000000 236010 1                  LDQ     XSP_DATANUM,X0
         2 001074   200267 470500                    LDP0    AFPT$,,AUTO
         2 001075   000001 756100                    STQ     1,,PR0

     1233    16864    3               AFPT.NXTX = XSP_DATASIZE( I-1);
PL6.E3A0      #002=XSP$SRECV File=XSP$DECODE.:XSA1TSI                            WED 10/01/97 12:01 Page:231

  16864  2 001076   200267 470500                    LDP0    AFPT$,,AUTO
         2 001077   000012 235010 1                  LDA     XSP_DATACTXT+1,X0
         2 001100   000014 755100                    STA     12,,PR0

     1234    16865    3               AFPT.CTXTID = XSP_DATACTXT( I-1);

  16865  2 001101   200272 235100                    LDA     I,,AUTO
         2 001102   200267 470500                    LDP0    AFPT$,,AUTO
         2 001103   000100 101405                    MRL     fill='000'O
         2 001104   000010 600001 1                  ADSC9   XSP_DATABUF$+7,A         cn=3,n=1
         2 001105   000005 000004                    ADSC9   5,,PR0                   cn=0,n=4

     1235    16866    3               IF I < XSP_DATANUM THEN

  16866  2 001106   200272 236100                    LDQ     I,,AUTO
         2 001107   000000 116000 1                  CMPQ    XSP_DATANUM
         2 001110   001115 605000 2                  TPL     s:16868

     1236    16867    3                   AFPT.LINK$ = PINCRC( AFPT$, SIZEC( XSP_ASN1_FPT));

  16867  2 001111   200267 236100                    LDQ     AFPT$,,AUTO
         2 001112   000016 036003                    ADLQ    14,DU
         2 001113   200267 470500                    LDP0    AFPT$,,AUTO
         2 001114   000004 756100                    STQ     4,,PR0

     1237    16868    3               AFPT$ = AFPT.LINK$;

  16868  2 001115   200267 470500                    LDP0    AFPT$,,AUTO
         2 001116   000004 236100                    LDQ     4,,PR0
         2 001117   200267 756100                    STQ     AFPT$,,AUTO

     1238    16869    3               END;

  16869  2 001120   200272 054100                    AOS     I,,AUTO
         2 001121   200272 236100                    LDQ     I,,AUTO
         2 001122   000000 116000 1                  CMPQ    XSP_DATANUM
PL6.E3A0      #002=XSP$SRECV File=XSP$DECODE.:XSA1TSI                            WED 10/01/97 12:01 Page:232
         2 001123   001066 604400 2                  TMOZ    s:16862

     1239    16870    2           END;

     1240    16871    1       ABORTING = %FALSE;

  16871  2 001124   200266 450100                    STZ     ABORTING,,AUTO

     1241    16872    1       CALL XSP$MACHINE( VBLK)

  16872  2 001125   200022 630500                    EPPR0   VBLK,,AUTO
         2 001126   200306 450500                    STP0    TMPCTXT+8,,AUTO
         2 001127   200306 630500                    EPPR0   TMPCTXT+8,,AUTO
         2 001130   000001 631400 3                  EPPR1   1
         2 001131   000000 701000 xent               TSX1    XSP$MACHINE
         2 001132   001134 702000 2                  TSX2    s:16874
         2 001133   001136 710000 2                  TRA     s:16876

     1242    16873    2       WHENALTRETURN DO;

     1243    16874    2           ABORTING = %TRUE;  /* connection died or protocol error */

  16874  2 001134   400000 236003                    LDQ     -131072,DU
         2 001135   200266 756100                    STQ     ABORTING,,AUTO

     1244    16875    2           END;

     1245    16876    1       IF XSP_DATANUM > 0 THEN

  16876  2 001136   000000 235000 1                  LDA     XSP_DATANUM
         2 001137   001146 604400 2                  TMOZ    s:16878

     1246    16877    1           CALL XSS$RELMEM( BLKX);

  16877  2 001140   200270 630500                    EPPR0   BLKX,,AUTO
         2 001141   200306 450500                    STP0    TMPCTXT+8,,AUTO
         2 001142   200306 630500                    EPPR0   TMPCTXT+8,,AUTO
PL6.E3A0      #002=XSP$SRECV File=XSP$DECODE.:XSA1TSI                            WED 10/01/97 12:01 Page:233
         2 001143   000001 631400 3                  EPPR1   1
         2 001144   000000 701000 xent               TSX1    XSS$RELMEM
         2 001145   000000 011000                    NOP     0

     1247    16878    1       IF ABORTING THEN

  16878  2 001146   200266 234100                    SZN     ABORTING,,AUTO
         2 001147   001151 605000 2                  TPL     s:16880

     1248    16879    1           ALTRETURN;

  16879  2 001150   000000 702200 xent               TSX2  ! X66_AALT

     1249    16880    1       RETURN;

  16880  2 001151   000000 702200 xent               TSX2  ! X66_ARET

XSP_ASN1_FPT
 Sect OctLoc
   0     000   000000 006014   000000 006014   000000 000000   000000 000000    ................
   0     004   000000 006014   000000 000000   000000 000000   000000 000000    ................
   0     010   400000 000000   000000 000000   000000 000000   000000 000000    ................
   0     014   000000 000000   000000 006014                                    ........

XSP_F$NOSCID
 Sect OctLoc
   0     016   302320 001427                                                    ....

XSP_DATABUF$
 Sect OctLoc
   1     001   ****** ******   ****** ******   ****** ******   ****** ******    ................

XSP_DATASIZE
 Sect OctLoc
   1     013   ****** ******   ****** ******   ****** ******   ****** ******    ................

(unnamed)
PL6.E3A0      #002=XSP$SRECV File=XSP$DECODE.:XSA1TSI                            WED 10/01/97 12:01 Page:234
 Sect OctLoc
   3     000   000002 000000   000001 000000   000016 006000   000003 000000    ................
     1250    16881
     1251    16882    1       END XSP$SRECV;

PL6.E3A0      #002=XSP$SRECV File=XSP$DECODE.:XSA1TSI                            WED 10/01/97 12:01 Page:235
--  Include file information  --

   XSC_PERR_C.:XSA1TOU  is referenced.
   UM_CP6.:E05OU  is referenced.
   XSP_ASN1_M.:XSA1TOU  is referenced.
   XSC_COMMON_M.:XSA1TOU  is referenced.
   K_ADDRESS_M.:LIB_E05  is referenced.
   XSP_INTERNAL_M.:XSA1TOU  is referenced.
   XSP_INTERNAL_E.:XSA1TOU  is referenced.
   XSP_PRESENTATION_M.:XSA1TOU  is referenced.
   XSP_PRESENTATION_E.:XSA1TOU  is referenced.
   XSS_SESSION_M.:XSA1TOU  is referenced.
   XSS_SESSION_E.:XSA1TOU  is referenced.
      No diagnostics issued in procedure XSP$SRECV.
PL6.E3A0      #002=XSP$SRECV File=XSP$DECODE.:XSA1TSI                            WED 10/01/97 12:01 Page:236

 **** Variables and constants ****

  ****  Section 000 RoData XSP$SRECV

  ****  Scalars and arrays  ****
OctLoc.c.b A Datatyp(siz) R M Lvl/name                 OctLoc.c.b A Datatyp(siz) R M Lvl/name

     0-0-0/w STRC(504)   r     1 XSP_ASN1_FPT              16-0-0/w STRC        r     1 XSP_F$NOSCID

  ****  Section 001  Data  XSP$SRECV

  ****  Scalars and arrays  ****
OctLoc.c.b A Datatyp(siz) R M Lvl/name                 OctLoc.c.b A Datatyp(siz) R M Lvl/name

     1-0-0/w PTR         r     1 XSP_DATABUF$(0:7)
    11-0-0/c UBIN(9)     r     1 XSP_DATACTXT(0:7)
     0-0-0/w SBIN        r     1 XSP_DATANUM
    13-0-0/w SBIN        r     1 XSP_DATASIZE(0:7)
    23-0-0/w PTR         r     1 XSP_DSTADDR$              24-0-0/w PTR         r     1 XSP_SRCADDR$
    25-0-0/w PTR         r     1 XSP_TMPCTXT$

  ****  Auto variables  ****

  ****  Scalars and arrays  ****
OctLoc.c.b A Datatyp(siz) R M Lvl/name                 OctLoc.c.b A Datatyp(siz) R M Lvl/name

     3-0-0/w PTR         r     1 @SFPT                    266-0-0/b BIT         r     1 ABORTING
   267-0-0/w PTR         r     1 AFPT$                    270-0-0/h UBIN(18)    r     1 BLKX
   271-0-0/w PTR         r     1 CTX$                     152-0-0/w STRC(2718)  r     1 DSTADDR
   272-0-0/w SBIN        r     1 I                        273-0-0/w SBIN        r     1 PCID
     4-0-0/w STRC(504)   r     1 PFPT                     274-0-0/w PTR         r     1 PFPT$
    *0-0-0/d STRC(504)   r     1 SFPT                     275-0-0/w PTR         r     1 SFPT$
    36-0-0/w STRC(2718)  r     1 SRCADDR
   276-0-0/w SBIN        r     1 TMPCTXT(0:7)
    22-0-0/d STRC(396)   r     1 VBLK

  ****  SYMREF variables  ****
PL6.E3A0      #002=XSP$SRECV File=XSP$DECODE.:XSA1TSI                            WED 10/01/97 12:01 Page:237

  ****  Scalars and arrays  ****
OctLoc.c.b A Datatyp(siz) R M Lvl/name                 OctLoc.c.b A Datatyp(siz) R M Lvl/name

     0-0-0/w STRC(72)    r     1 XSP_ACTIVITY_DISCARD       0-0-0/w STRC(180)   r     1 XSP_ACTIVITY_END
     0-0-0/w STRC(72)    r     1 XSP_ACTIVITY_INTERRUPT
     0-0-0/w STRC(468)   r     1 XSP_ACTIVITY_RESUME        0-0-0/w STRC(216)   r     1 XSP_ACTIVITY_START
     0-0-0/w STRC(72)    r     1 XSP_CONTROL_GIVE           0-0-0/w STRC(72)    r     1 XSP_P_ABORT
     0-0-0/w STRC(72)    r     1 XSP_P_EXCEPTION_REPORT
     0-0-0/w STRC(108)   r     1 XSP_RELEASE                0-0-0/w STRC(180)   r     1 XSP_SYNC_MAJOR
     0-0-0/w STRC(180)   r     1 XSP_SYNC_MINOR             0-0-0/w STRC(72)    r     1 XSP_TOKEN_GIVE
     0-0-0/w STRC(108)   r     1 XSP_TOKEN_PLEASE
     0-0-0/w STRC(108)   r     1 XSP_U_EXCEPTION_REPORT
     0-0-0/d STRC(396)   r     1 XSP_VBLK                   0-0-0/w PTR         r     1 XSS_CCB$$

  ****  BASED and DCB variables  ****

  ****  Scalars and arrays  ****
OctLoc.c.b A Datatyp(siz) R M Lvl/name                 OctLoc.c.b A Datatyp(siz) R M Lvl/name

     0-0-0/w STRC(504)   r     1 AFPT                       0-0-0/w PTR         r     1 CCB$(0:0)
     0-0-0/w STRC(468)   r     1 PCTX                       0-0-0/w STRC(504)   r     1 XSC$CCB
     0-0-0/w STRC(72)    r     1 XSP$ACTIVITY_DISCARD       0-0-0/w STRC(180)   r     1 XSP$ACTIVITY_END
     0-0-0/w STRC(72)    r     1 XSP$ACTIVITY_INTERRUPT
     0-0-0/w STRC(468)   r     1 XSP$ACTIVITY_RESUME        0-0-0/w STRC(216)   r     1 XSP$ACTIVITY_START
     0-0-0/w STRC(72)    r     1 XSP$CONTROL_GIVE           0-0-0/w STRC(504)   r     1 XSP$GENERIC
     0-0-0/w STRC(72)    r     1 XSP$P_ABORT
     0-0-0/w STRC(72)    r     1 XSP$P_EXCEPTION_REPORT
     0-0-0/w STRC(108)   r     1 XSP$RELEASE                0-0-0/w STRC(180)   r     1 XSP$SYNC_MAJOR
     0-0-0/w STRC(180)   r     1 XSP$SYNC_MINOR             0-0-0/w STRC(72)    r     1 XSP$TOKEN_GIVE
     0-0-0/w STRC(108)   r     1 XSP$TOKEN_PLEASE
     0-0-0/w STRC(108)   r     1 XSP$U_EXCEPTION_REPORT
     0-0-0/w STRC(72)    r     1 XSS$ACTIVITY_DISCARD       0-0-0/d STRC(180)   r     1 XSS$ACTIVITY_END
     0-0-0/w STRC(72)    r     1 XSS$ACTIVITY_INTERRUPT
     0-0-0/d STRC(468)   r     1 XSS$ACTIVITY_RESUME        0-0-0/d STRC(216)   r     1 XSS$ACTIVITY_START
     0-0-0/d STRC(504)   r     1 XSS$GENERIC                0-0-0/w STRC(72)    r     1 XSS$P_ABORT
     0-0-0/w STRC(72)    r     1 XSS$P_EXCEPTION_REPORT
PL6.E3A0      #002=XSP$SRECV File=XSP$DECODE.:XSA1TSI                            WED 10/01/97 12:01 Page:238
     0-0-0/d STRC(144)   r     1 XSS$RELEASE                0-0-0/d STRC(180)   r     1 XSS$SYNC_MAJOR
     0-0-0/d STRC(180)   r     1 XSS$SYNC_MINOR             0-0-0/w STRC(72)    r     1 XSS$TOKEN_GIVE
     0-0-0/d STRC(144)   r     1 XSS$TOKEN_PLEASE
     0-0-0/d STRC(144)   r     1 XSS$U_EXCEPTION_REPORT


   Procedure XSP$SRECV requires 618 words for executable code.
   Procedure XSP$SRECV requires 202 words of local(AUTO) storage.

    No errors detected in file XSP$DECODE.:XSA1TSI    .
PL6.E3A0      #002=XSP$SRECV File=XSP$DECODE.:XSA1TSI                            WED 10/01/97 12:01 Page:239
          *** CROSS REFERENCE LISTING ***
**     DENOTES     IDENTIFIER DEFINITION
<<                 IDENTIFIER'S VALUE SET
>>                 IDENTIFIER'S VALUE USED
<>                 IDENTIFIER SET AND/OR USED
--                 IDENTIFIER REFERENCED
PL6.E3A0      #002=XSP$SRECV File=XSP$DECODE.:XSA1TSI                            WED 10/01/97 12:01 Page:240
          MINI XREF LISTING

ABORTING
     16612**DCL     16871<<ASSIGN  16874<<ASSIGN  16878>>IF
AFPT
     15606**DCL     16862<<ASSIGN
AFPT.BUF$
     15610**DCL     16863<<ASSIGN
AFPT.C0
     15612**DCL     15612--REDEF
AFPT.CTXTID
     15611**DCL     16865<<ASSIGN
AFPT.DAT$
     15614**DCL     15614--REDEF
AFPT.LINK$
     15611**DCL     16867<<ASSIGN  16868>>ASSIGN
AFPT.N0
     15613**DCL     15613--REDEF
AFPT.NXTX
     15613**DCL     16864<<ASSIGN
AFPT.R0
     15611**DCL     15612--REDEF
AFPT$
     16613**DCL     15606--IMP-PTR 16859<>CALL    16860>>ASSIGN  16862>>ASSIGN  16863>>ASSIGN  16864>>ASSIGN
     16865>>ASSIGN  16867>>ASSIGN  16867>>ASSIGN  16868<<ASSIGN  16868>>ASSIGN
BLKX
     16614**DCL     16859<>CALL    16877<>CALL
CCB$
     16615**DCL     16640>>ASSIGN
CTX$
     16616**DCL     12781--IMP-PTR 16633<>CALL    16636<>CALL    16640>>ASSIGN  16648>>ASSIGN
DSTADDR
     14667**DCL     16717--ASSIGN  16728--ASSIGN
DSTADDR.NSAP.ADDRESS_N
PL6.E3A0      #002=XSP$SRECV File=XSP$DECODE.:XSA1TSI                            WED 10/01/97 12:01 Page:241
     14928**DCL     14929--REDEF
I
     16617**DCL     16861<<DOINDEX 16863>>ASSIGN  16864>>ASSIGN  16865>>ASSIGN  16866>>IF
PCID
     16618**DCL     16632<<ASSIGN  16633<>CALL    16636<>CALL    16640>>ASSIGN
PCTX.ACTDCSMASK
     12867**DCL     12870--REDEF
PCTX.CURDCSMASK
     12852**DCL     12855--REDEF
PCTX.ENTRY$
     12886**DCL     16640<<ASSIGN
PCTX.HISTZ
     12910**DCL     12911--REDEF
PCTX.INIDCSMASK
     12860**DCL     12863--REDEF
PFPT
      8351**DCL     16646--ASSIGN
PFPT.ERRDEF
      8397**DCL      8417--REDEF
PFPT$
     16619**DCL      8448--IMP-PTR  8544--IMP-PTR  8602--IMP-PTR  8667--IMP-PTR  8725--IMP-PTR  8816--IMP-PTR
      8891--IMP-PTR  8952--IMP-PTR  9010--IMP-PTR  9155--IMP-PTR  9249--IMP-PTR  9307--IMP-PTR  9365--IMP-PTR
      9423--IMP-PTR  9481--IMP-PTR  9540--IMP-PTR  9645--IMP-PTR  9711--IMP-PTR  9777--IMP-PTR  9873--IMP-PTR
      9970--IMP-PTR 10028--IMP-PTR 10086--IMP-PTR 16646<<ASSIGN  16649>>ASSIGN  16655>>ASSIGN  16656>>ASSIGN
     16657>>ASSIGN  16660>>ASSIGN  16661>>ASSIGN  16662>>ASSIGN  16665>>ASSIGN  16666>>ASSIGN  16667>>ASSIGN
     16668>>ASSIGN  16671>>ASSIGN  16672>>ASSIGN  16673>>ASSIGN  16674>>ASSIGN  16677>>ASSIGN  16678>>ASSIGN
     16679>>ASSIGN  16682>>ASSIGN  16683>>ASSIGN  16684>>ASSIGN  16687>>ASSIGN  16688>>ASSIGN  16689>>ASSIGN
     16690>>ASSIGN  16691>>ASSIGN  16692>>ASSIGN  16695>>ASSIGN  16696>>ASSIGN  16697>>ASSIGN  16698>>ASSIGN
     16737>>ASSIGN  16738>>ASSIGN  16756>>ASSIGN  16757>>ASSIGN  16758>>ASSIGN  16762>>ASSIGN  16763>>ASSIGN
     16764>>ASSIGN  16767>>ASSIGN  16768>>ASSIGN  16769>>ASSIGN  16772>>ASSIGN  16773>>ASSIGN  16774>>ASSIGN
     16775>>ASSIGN  16797>>ASSIGN  16798>>ASSIGN  16799>>ASSIGN  16800>>ASSIGN  16803>>ASSIGN  16804>>ASSIGN
     16805>>ASSIGN  16806>>ASSIGN  16809>>ASSIGN  16810>>ASSIGN  16811>>ASSIGN  16812>>ASSIGN  16813>>ASSIGN
     16816>>ASSIGN  16817>>ASSIGN  16818>>ASSIGN  16819>>ASSIGN  16820>>ASSIGN  16823>>ASSIGN  16824>>ASSIGN
     16825>>ASSIGN  16828>>ASSIGN  16829>>ASSIGN  16830>>ASSIGN  16831>>ASSIGN  16851>>ASSIGN  16852>>ASSIGN
     16853>>ASSIGN  16854>>ASSIGN  16857>>ASSIGN  16860>>ASSIGN
SFPT
PL6.E3A0      #002=XSP$SRECV File=XSP$DECODE.:XSA1TSI                            WED 10/01/97 12:01 Page:242
      6620**DCL        15--PROC    16630--ASSIGN
SFPT.ERRDEF
      6674**DCL      6694--REDEF
SFPT$
     16620**DCL      3242--IMP-PTR  3388--IMP-PTR  3486--IMP-PTR  3637--IMP-PTR  3735--IMP-PTR  3961--IMP-PTR
      4124--IMP-PTR  4270--IMP-PTR  4593--IMP-PTR  4717--IMP-PTR  4861--IMP-PTR  5005--IMP-PTR  5091--IMP-PTR
      5177--IMP-PTR  5329--IMP-PTR  5542--IMP-PTR  5701--IMP-PTR  5860--IMP-PTR  5990--IMP-PTR  6182--IMP-PTR
      6326--IMP-PTR  6470--IMP-PTR 16630<<ASSIGN  16631>>IF      16632>>ASSIGN  16650>>ASSIGN  16653>>DOCASE
     16657>>ASSIGN  16662>>ASSIGN  16667>>ASSIGN  16668>>ASSIGN  16673>>ASSIGN  16674>>ASSIGN  16679>>ASSIGN
     16684>>ASSIGN  16689>>ASSIGN  16690>>ASSIGN  16691>>ASSIGN  16692>>ASSIGN  16697>>ASSIGN  16698>>ASSIGN
     16702<>CALL    16709<>CALL    16720<>CALL    16731<>CALL    16742<>CALL    16749<>CALL    16758>>ASSIGN
     16764>>ASSIGN  16769>>ASSIGN  16774>>ASSIGN  16775>>ASSIGN  16776>>IF      16784<>CALL    16791<>CALL
     16799>>ASSIGN  16800>>ASSIGN  16805>>ASSIGN  16806>>ASSIGN  16811>>ASSIGN  16812>>ASSIGN  16813>>ASSIGN
     16818>>ASSIGN  16819>>ASSIGN  16820>>ASSIGN  16825>>ASSIGN  16830>>ASSIGN  16831>>ASSIGN  16837<>CALL
     16844<>CALL    16853>>ASSIGN  16854>>ASSIGN  16857>>ASSIGN
SRCADDR
     14384**DCL     16716--ASSIGN  16727--ASSIGN
SRCADDR.NSAP.ADDRESS_N
     14645**DCL     14646--REDEF
TMPCTXT
     16621**DCL     16718--ASSIGN  16719<<ASSIGN  16729--ASSIGN  16730<<ASSIGN  16835--ASSIGN  16836<<ASSIGN
VBLK
     12936**DCL     16647<<ASSIGN  16702<>CALL    16709<>CALL    16720<>CALL    16731<>CALL    16742<>CALL
     16749<>CALL    16784<>CALL    16791<>CALL    16837<>CALL    16844<>CALL    16872<>CALL
VBLK.CTX$
     12946**DCL     16648<<ASSIGN
VBLK.DATA
     13010**DCL     16650<<ASSIGN
VBLK.DATMASK
     13052**DCL     13055--REDEF
VBLK.DEFMASK
     13036**DCL     13039--REDEF
VBLK.DELMASK
     13044**DCL     13047--REDEF
VBLK.EVENT
     13031**DCL     16658<<ASSIGN  16663<<ASSIGN  16669<<ASSIGN  16675<<ASSIGN  16680<<ASSIGN  16685<<ASSIGN
PL6.E3A0      #002=XSP$SRECV File=XSP$DECODE.:XSA1TSI                            WED 10/01/97 12:01 Page:243
     16693<<ASSIGN  16699<<ASSIGN  16706<<ASSIGN  16713<<ASSIGN  16724<<ASSIGN  16739<<ASSIGN  16746<<ASSIGN
     16753<<ASSIGN  16759<<ASSIGN  16765<<ASSIGN  16770<<ASSIGN  16778<<ASSIGN  16781<<ASSIGN  16788<<ASSIGN
     16795<<ASSIGN  16801<<ASSIGN  16807<<ASSIGN  16814<<ASSIGN  16821<<ASSIGN  16826<<ASSIGN  16832<<ASSIGN
     16855<<ASSIGN
VBLK.FPT$
     12950**DCL     16649<<ASSIGN
VBLK.PPDUERR
     13028**DCL     16704<<ASSIGN  16711<<ASSIGN  16722<<ASSIGN  16733<<ASSIGN  16744<<ASSIGN  16751<<ASSIGN
     16786<<ASSIGN  16793<<ASSIGN  16839<<ASSIGN  16846<<ASSIGN
VBLK.SPIMASK
     13060**DCL     13063--REDEF
XSC$CCB.ERRDEF
     15057**DCL     15077--REDEF
XSC$CCB.PRES$
     15200**DCL     16640>>ASSIGN
XSP$ACTIVITY_DISCARD
      8544**DCL     16655<<ASSIGN  16660<<ASSIGN
XSP$ACTIVITY_DISCARD.ERRDEF
      8554**DCL      8574--REDEF
XSP$ACTIVITY_DISCARD.FNC
      8550**DCL     16656<<ASSIGN  16661<<ASSIGN
XSP$ACTIVITY_DISCARD.REASON
      8552**DCL     16657<<ASSIGN  16662<<ASSIGN
XSP$ACTIVITY_END
      8602**DCL     16665<<ASSIGN  16671<<ASSIGN
XSP$ACTIVITY_END.DATA$
      8646**DCL     16667<<ASSIGN  16673<<ASSIGN
XSP$ACTIVITY_END.ERRDEF
      8616**DCL      8636--REDEF
XSP$ACTIVITY_END.FNC
      8613**DCL     16666<<ASSIGN  16672<<ASSIGN
XSP$ACTIVITY_END.SERNUM
      8648**DCL     16668<<ASSIGN  16674<<ASSIGN
XSP$ACTIVITY_INTERRUPT
      8667**DCL     16677<<ASSIGN  16682<<ASSIGN
XSP$ACTIVITY_INTERRUPT.ERRDEF
PL6.E3A0      #002=XSP$SRECV File=XSP$DECODE.:XSA1TSI                            WED 10/01/97 12:01 Page:244
      8677**DCL      8697--REDEF
XSP$ACTIVITY_INTERRUPT.FNC
      8673**DCL     16678<<ASSIGN  16683<<ASSIGN
XSP$ACTIVITY_INTERRUPT.REASON
      8675**DCL     16679<<ASSIGN  16684<<ASSIGN
XSP$ACTIVITY_RESUME
      8725**DCL     16687<<ASSIGN
XSP$ACTIVITY_RESUME.ACTID
      8784**DCL     16691<<ASSIGN
XSP$ACTIVITY_RESUME.DATA$
      8771**DCL     16689<<ASSIGN
XSP$ACTIVITY_RESUME.ERRDEF
      8741**DCL      8761--REDEF
XSP$ACTIVITY_RESUME.FNC
      8737**DCL     16688<<ASSIGN
XSP$ACTIVITY_RESUME.OACTID
      8794**DCL     16692<<ASSIGN
XSP$ACTIVITY_RESUME.SERNUM
      8773**DCL     16690<<ASSIGN
XSP$ACTIVITY_START
      8816**DCL     16695<<ASSIGN
XSP$ACTIVITY_START.ACTID
      8870**DCL     16698<<ASSIGN
XSP$ACTIVITY_START.DATA$
      8861**DCL     16697<<ASSIGN
XSP$ACTIVITY_START.ERRDEF
      8831**DCL      8851--REDEF
XSP$ACTIVITY_START.FNC
      8828**DCL     16696<<ASSIGN
XSP$ALTER_CONTEXT.ERRDEF
      8900**DCL      8920--REDEF
XSP$CAPABILITY_DATA.ERRDEF
      8961**DCL      8981--REDEF
XSP$CONNECT.CALLED$
      9105**DCL      9106--REDEF
XSP$CONNECT.DFLT$
PL6.E3A0      #002=XSP$SRECV File=XSP$DECODE.:XSA1TSI                            WED 10/01/97 12:01 Page:245
      9095**DCL      9096--REDEF
XSP$CONNECT.ERRDEF
      9064**DCL      9084--REDEF
XSP$CONTROL_GIVE
      9155**DCL     16737<<ASSIGN
XSP$CONTROL_GIVE.ERRDEF
      9201**DCL      9221--REDEF
XSP$CONTROL_GIVE.FNC
      9161**DCL     16738<<ASSIGN
XSP$CTXPTR
     16602**DCL-ENT 16633--CALL
XSP$DATA.ERRDEF
      9258**DCL      9278--REDEF
XSP$DECODE
     16603**DCL-ENT 16702--CALL    16709--CALL    16720--CALL    16731--CALL    16742--CALL    16749--CALL
     16784--CALL    16791--CALL    16837--CALL    16844--CALL
XSP$EXPEDITED_DATA.ERRDEF
      9316**DCL      9336--REDEF
XSP$GENERIC.DATA$
      8524**DCL     16860<<ASSIGN
XSP$GENERIC.ERRDEF
      8494**DCL      8514--REDEF
XSP$GENERIC.PCID
      8455**DCL     16857<<ASSIGN
XSP$GETCTX
     16604**DCL-ENT 16636--CALL
XSP$MACHINE
     16605**DCL-ENT 16872--CALL
XSP$P_ABORT
      9365**DCL     16756<<ASSIGN
XSP$P_ABORT.ERRDEF
      9375**DCL      9395--REDEF
XSP$P_ABORT.FNC
      9371**DCL     16757<<ASSIGN
XSP$P_ABORT.REASON
      9373**DCL     16758<<ASSIGN
PL6.E3A0      #002=XSP$SRECV File=XSP$DECODE.:XSA1TSI                            WED 10/01/97 12:01 Page:246
XSP$P_EXCEPTION_REPORT
      9423**DCL     16762<<ASSIGN
XSP$P_EXCEPTION_REPORT.ERRDEF
      9433**DCL      9453--REDEF
XSP$P_EXCEPTION_REPORT.FNC
      9429**DCL     16763<<ASSIGN
XSP$P_EXCEPTION_REPORT.REASON
      9431**DCL     16764<<ASSIGN
XSP$RELEASE
      9481**DCL     16767<<ASSIGN  16772<<ASSIGN
XSP$RELEASE.DATA$
      9521**DCL     16769<<ASSIGN  16775<<ASSIGN
XSP$RELEASE.ERRDEF
      9491**DCL      9511--REDEF
XSP$RELEASE.FNC
      9487**DCL     16768<<ASSIGN  16773<<ASSIGN
XSP$RELEASE.RESULT
      9490**DCL     16774<<ASSIGN
XSP$RESYNCHRONIZE.ERRDEF
      9593**DCL      9613--REDEF
XSP$SYNC_MAJOR
      9645**DCL     16797<<ASSIGN  16803<<ASSIGN
XSP$SYNC_MAJOR.DATA$
      9690**DCL     16799<<ASSIGN  16805<<ASSIGN
XSP$SYNC_MAJOR.ERRDEF
      9660**DCL      9680--REDEF
XSP$SYNC_MAJOR.FNC
      9656**DCL     16798<<ASSIGN  16804<<ASSIGN
XSP$SYNC_MAJOR.SERNUM
      9692**DCL     16800<<ASSIGN  16806<<ASSIGN
XSP$SYNC_MINOR
      9711**DCL     16809<<ASSIGN  16816<<ASSIGN
XSP$SYNC_MINOR.DATA$
      9756**DCL     16812<<ASSIGN  16819<<ASSIGN
XSP$SYNC_MINOR.ERRDEF
      9726**DCL      9746--REDEF
PL6.E3A0      #002=XSP$SRECV File=XSP$DECODE.:XSA1TSI                            WED 10/01/97 12:01 Page:247
XSP$SYNC_MINOR.FNC
      9722**DCL     16810<<ASSIGN  16817<<ASSIGN
XSP$SYNC_MINOR.SERNUM
      9758**DCL     16813<<ASSIGN  16820<<ASSIGN
XSP$SYNC_MINOR.TYPE
      9724**DCL     16811<<ASSIGN  16818<<ASSIGN
XSP$TOKEN_GIVE
      9777**DCL     16823<<ASSIGN
XSP$TOKEN_GIVE.ERRDEF
      9825**DCL      9845--REDEF
XSP$TOKEN_GIVE.FNC
      9784**DCL     16824<<ASSIGN
XSP$TOKEN_GIVE.TOKENS
      9807**DCL     16825<<ASSIGN
XSP$TOKEN_PLEASE
      9873**DCL     16828<<ASSIGN
XSP$TOKEN_PLEASE.DATA$
      9951**DCL     16831<<ASSIGN
XSP$TOKEN_PLEASE.ERRDEF
      9921**DCL      9941--REDEF
XSP$TOKEN_PLEASE.FNC
      9880**DCL     16829<<ASSIGN
XSP$TOKEN_PLEASE.TOKENS
      9903**DCL     16830<<ASSIGN
XSP$TYPED_DATA.ERRDEF
      9979**DCL      9999--REDEF
XSP$U_ABORT.ERRDEF
     10037**DCL     10057--REDEF
XSP$U_EXCEPTION_REPORT
     10086**DCL     16851<<ASSIGN
XSP$U_EXCEPTION_REPORT.DATA$
     10126**DCL     16854<<ASSIGN
XSP$U_EXCEPTION_REPORT.ERRDEF
     10096**DCL     10116--REDEF
XSP$U_EXCEPTION_REPORT.FNC
     10092**DCL     16852<<ASSIGN
PL6.E3A0      #002=XSP$SRECV File=XSP$DECODE.:XSA1TSI                            WED 10/01/97 12:01 Page:248
XSP$U_EXCEPTION_REPORT.REASON
     10094**DCL     16853<<ASSIGN
XSP_ACTIVITY_DISCARD
     10243**DCL     16655>>ASSIGN  16660>>ASSIGN
XSP_ACTIVITY_DISCARD.ERRDEF
     10253**DCL     10273--REDEF
XSP_ACTIVITY_END
     10301**DCL     16665>>ASSIGN  16671>>ASSIGN
XSP_ACTIVITY_END.ERRDEF
     10315**DCL     10335--REDEF
XSP_ACTIVITY_INTERRUPT
     10366**DCL     16677>>ASSIGN  16682>>ASSIGN
XSP_ACTIVITY_INTERRUPT.ERRDEF
     10376**DCL     10396--REDEF
XSP_ACTIVITY_RESUME
     10424**DCL     16687>>ASSIGN
XSP_ACTIVITY_RESUME.ERRDEF
     10440**DCL     10460--REDEF
XSP_ACTIVITY_START
     10515**DCL     16695>>ASSIGN
XSP_ACTIVITY_START.ERRDEF
     10530**DCL     10550--REDEF
XSP_ALTER_CONTEXT.ERRDEF
     10599**DCL     10619--REDEF
XSP_ASN1_FPT
     15586**DCL     16859--CALL    16862>>ASSIGN  16867--ASSIGN
XSP_ASN1_FPT.C0
     15592**DCL     15592--REDEF
XSP_ASN1_FPT.DAT$
     15594**DCL     15594--REDEF
XSP_ASN1_FPT.N0
     15593**DCL     15593--REDEF
XSP_ASN1_FPT.R0
     15591**DCL     15592--REDEF
XSP_CAPABILITY_DATA.ERRDEF
     10660**DCL     10680--REDEF
PL6.E3A0      #002=XSP$SRECV File=XSP$DECODE.:XSA1TSI                            WED 10/01/97 12:01 Page:249
XSP_CONNECT.CALLED$
     10804**DCL     10805--REDEF
XSP_CONNECT.DFLT$
     10794**DCL     10795--REDEF
XSP_CONNECT.ERRDEF
     10763**DCL     10783--REDEF
XSP_CONTROL_GIVE
     10854**DCL     16737>>ASSIGN
XSP_CONTROL_GIVE.ERRDEF
     10900**DCL     10920--REDEF
XSP_DATA.ERRDEF
     10957**DCL     10977--REDEF
XSP_DATABUF$
     16623**DCL     16863>>ASSIGN
XSP_DATACTXT
     16624**DCL     16865>>ASSIGN
XSP_DATANUM
     16622**DCL     16651<<ASSIGN  16858>>IF      16859>>CALL    16861>>DOINDEX 16866>>IF      16876>>IF
XSP_DATASIZE
     16625**DCL     16864>>ASSIGN
XSP_DSTADDR$
     16626**DCL     16717<<ASSIGN  16728<<ASSIGN
XSP_EXPEDITED_DATA.ERRDEF
     11015**DCL     11035--REDEF
XSP_F$NOSCID
     16564**DCL     16645<>CALL
XSP_GENERIC.ERRDEF
     10193**DCL     10213--REDEF
XSP_P_ABORT
     11064**DCL     16756>>ASSIGN
XSP_P_ABORT.ERRDEF
     11074**DCL     11094--REDEF
XSP_P_EXCEPTION_REPORT
     11122**DCL     16762>>ASSIGN
XSP_P_EXCEPTION_REPORT.ERRDEF
     11132**DCL     11152--REDEF
PL6.E3A0      #002=XSP$SRECV File=XSP$DECODE.:XSA1TSI                            WED 10/01/97 12:01 Page:250
XSP_RELEASE
     11180**DCL     16767>>ASSIGN  16772>>ASSIGN
XSP_RELEASE.ERRDEF
     11190**DCL     11210--REDEF
XSP_RESYNCHRONIZE.ERRDEF
     11292**DCL     11312--REDEF
XSP_SRCADDR$
     16627**DCL     16716<<ASSIGN  16727<<ASSIGN
XSP_SYNC_MAJOR
     11344**DCL     16797>>ASSIGN  16803>>ASSIGN
XSP_SYNC_MAJOR.ERRDEF
     11359**DCL     11379--REDEF
XSP_SYNC_MINOR
     11410**DCL     16809>>ASSIGN  16816>>ASSIGN
XSP_SYNC_MINOR.ERRDEF
     11425**DCL     11445--REDEF
XSP_TMPCTXT$
     16628**DCL     16718<<ASSIGN  16729<<ASSIGN  16835<<ASSIGN
XSP_TOKEN_GIVE
     11476**DCL     16823>>ASSIGN
XSP_TOKEN_GIVE.ERRDEF
     11524**DCL     11544--REDEF
XSP_TOKEN_PLEASE
     11572**DCL     16828>>ASSIGN
XSP_TOKEN_PLEASE.ERRDEF
     11620**DCL     11640--REDEF
XSP_TYPED_DATA.ERRDEF
     11678**DCL     11698--REDEF
XSP_U_ABORT.ERRDEF
     11736**DCL     11756--REDEF
XSP_U_EXCEPTION_REPORT
     11785**DCL     16851>>ASSIGN
XSP_U_EXCEPTION_REPORT.ERRDEF
     11795**DCL     11815--REDEF
XSP_VBLK
     13082**DCL     16647>>ASSIGN
PL6.E3A0      #002=XSP$SRECV File=XSP$DECODE.:XSA1TSI                            WED 10/01/97 12:01 Page:251
XSP_VBLK.DATMASK
     13198**DCL     13201--REDEF
XSP_VBLK.DEFMASK
     13182**DCL     13185--REDEF
XSP_VBLK.DELMASK
     13190**DCL     13193--REDEF
XSP_VBLK.SPIMASK
     13206**DCL     13209--REDEF
XSS$ACTIVITY_DISCARD.ERRDEF
      3432**DCL      3458--REDEF
XSS$ACTIVITY_DISCARD.REASON
      3430**DCL     16657>>ASSIGN  16662>>ASSIGN
XSS$ACTIVITY_END.DATA.PTR$
      3600**DCL     16667>>ASSIGN  16673>>ASSIGN
XSS$ACTIVITY_END.ERRDEF
      3522**DCL      3542--REDEF
XSS$ACTIVITY_END.SERNUM
      3618**DCL     16668>>ASSIGN  16674>>ASSIGN
XSS$ACTIVITY_INTERRUPT.ERRDEF
      3687**DCL      3707--REDEF
XSS$ACTIVITY_INTERRUPT.REASON
      3679**DCL     16679>>ASSIGN  16684>>ASSIGN
XSS$ACTIVITY_RESUME.ACTID
      3924**DCL     16691>>ASSIGN
XSS$ACTIVITY_RESUME.DATA.PTR$
      3852**DCL     16689>>ASSIGN
XSS$ACTIVITY_RESUME.ERRDEF
      3774**DCL      3794--REDEF
XSS$ACTIVITY_RESUME.OACTID
      3934**DCL     16692>>ASSIGN
XSS$ACTIVITY_RESUME.SERNUM
      3870**DCL     16690>>ASSIGN
XSS$ACTIVITY_START.ACTID
      4103**DCL     16698>>ASSIGN
XSS$ACTIVITY_START.DATA.PTR$
      4073**DCL     16697>>ASSIGN
PL6.E3A0      #002=XSP$SRECV File=XSP$DECODE.:XSA1TSI                            WED 10/01/97 12:01 Page:252
XSS$ACTIVITY_START.ERRDEF
      3995**DCL      4015--REDEF
XSS$CAPABILITY_DATA.ERRDEF
      4160**DCL      4180--REDEF
XSS$CONNECT.CALLED$
      4496**DCL      4497--REDEF
XSS$CONNECT.ERRDEF
      4364**DCL      4384--REDEF
XSS$CONTROL_GIVE.ERRDEF
      4669**DCL      4689--REDEF
XSS$DATA.ERRDEF
      4751**DCL      4771--REDEF
XSS$EXPEDITED_DATA.ERRDEF
      4895**DCL      4915--REDEF
XSS$GENERIC.DATA
      3345**DCL     16650>>ASSIGN
XSS$GENERIC.ERRDEF
      3296**DCL      3316--REDEF
XSS$GENERIC.FNC
      3256**DCL     16653>>DOCASE
XSS$GENERIC.SCID
      3257**DCL     16631>>IF      16632>>ASSIGN  16857>>ASSIGN
XSS$GETMEM
     16606**DCL-ENT 16859--CALL
XSS$P_ABORT.ERRDEF
      5043**DCL      5063--REDEF
XSS$P_ABORT.REASON
      5035**DCL     16758>>ASSIGN
XSS$P_EXCEPTION_REPORT.ERRDEF
      5129**DCL      5149--REDEF
XSS$P_EXCEPTION_REPORT.REASON
      5121**DCL     16764>>ASSIGN
XSS$RELEASE.DATA.PTR$
      5297**DCL     16769>>ASSIGN  16775>>ASSIGN
XSS$RELEASE.ERRDEF
      5219**DCL      5239--REDEF
PL6.E3A0      #002=XSP$SRECV File=XSP$DECODE.:XSA1TSI                            WED 10/01/97 12:01 Page:253
XSS$RELEASE.RESULT
      5212**DCL     16774>>ASSIGN  16776>>IF
XSS$RELMEM
     16607**DCL-ENT 16877--CALL
XSS$RESYNCHRONIZE.ERRDEF
      5427**DCL      5447--REDEF
XSS$SCREECH
     16608**DCL-ENT 16645--CALL
XSS$SYNC_MAJOR.DATA.PTR$
      5664**DCL     16799>>ASSIGN  16805>>ASSIGN
XSS$SYNC_MAJOR.ERRDEF
      5586**DCL      5606--REDEF
XSS$SYNC_MAJOR.SERNUM
      5682**DCL     16800>>ASSIGN  16806>>ASSIGN
XSS$SYNC_MINOR.DATA.PTR$
      5823**DCL     16812>>ASSIGN  16819>>ASSIGN
XSS$SYNC_MINOR.ERRDEF
      5745**DCL      5765--REDEF
XSS$SYNC_MINOR.SERNUM
      5841**DCL     16813>>ASSIGN  16820>>ASSIGN
XSS$SYNC_MINOR.TYPE
      5737**DCL     16811>>ASSIGN  16818>>ASSIGN
XSS$TOKEN_GIVE.ERRDEF
      5942**DCL      5962--REDEF
XSS$TOKEN_GIVE.TOKENS
      5918**DCL     16825>>ASSIGN
XSS$TOKEN_PLEASE.DATA.PTR$
      6150**DCL     16831>>ASSIGN
XSS$TOKEN_PLEASE.ERRDEF
      6072**DCL      6092--REDEF
XSS$TOKEN_PLEASE.TOKENS
      6048**DCL     16830>>ASSIGN
XSS$TYPED_DATA.ERRDEF
      6216**DCL      6236--REDEF
XSS$U_ABORT.ERRDEF
      6360**DCL      6380--REDEF
PL6.E3A0      #002=XSP$SRECV File=XSP$DECODE.:XSA1TSI                            WED 10/01/97 12:01 Page:254
XSS$U_EXCEPTION_REPORT.DATA.PTR$
      6587**DCL     16854>>ASSIGN
XSS$U_EXCEPTION_REPORT.ERRDEF
      6509**DCL      6529--REDEF
XSS$U_EXCEPTION_REPORT.REASON
      6501**DCL     16853>>ASSIGN
XSS_CCB$$
     16610**DCL     16615--IMP-PTR 16640>>ASSIGN
PL6.E3A0      #002=XSP$SRECV File=XSP$DECODE.:XSA1TSI                            WED 10/01/97 12:01 Page:255
              *** CROSS REFERENCE LISTING ***
    **     DENOTES     IDENTIFIER DEFINITION
    <<                 IDENTIFIER'S VALUE SET
    >>                 IDENTIFIER'S VALUE USED
    <>                 IDENTIFIER SET AND/OR USED
    --                 IDENTIFIER REFERENCED
PL6.E3A0      #002=XSP$SRECV File=XSP$DECODE.:XSA1TSI                            WED 10/01/97 12:01 Page:256
              MINI UREF LISTING

XSP$SRECV      15**PROC
