PL6.E3A0      #002=XSP$SSEND File=XSP$ENCODE.:XSA1TSI                            WED 10/01/97 12:03 Page:117
      556        1        /*T***********************************************************/
      557        2        /*T*                                                         */
      558        3        /*T* Copyright (c) Bull HN Information Systems Inc., 1997    */
      559        4        /*T*                                                         */
      560        5        /*T***********************************************************/
      561        6        /*F*    NAME:   XSP$SSEND
      562        7                DESCRIPTION:
      563        8                    This is the common routine in Presentation that handles sending
      564        9                    a message on to Session.  The Presentation event in VBLK.EVENT
      565       10                    is mapped to a Session function code.
      566       11        */
      567       12        XSP$SSEND: PROC( VBLK) ALTRET;
      568       13        %INCLUDE XSS_SESSION_E;
      569      578        %INCLUDE XSS_SESSION_M;
      570     3221            %XSS$GENERIC( FPTN=SFPT, STCLASS=AUTO);
      571     3367            %XSS$PRIMITIVES( STCLASS="BASED( SFPT$)");
      572     6746            %XSS_PRIMITIVES( STCLASS=SYMREF);
      573    10125        %INCLUDE XSP_PRESENTATION_E;
      574    10224        %INCLUDE XSP_PRESENTATION_M;
      575    11710            %XSP$PRIMITIVES( STCLASS="BASED( VBLK.FPT$)");
      576    13409        %INCLUDE XSP_INTERNAL_E;
      577    13683        %INCLUDE XSP_INTERNAL_M;
      578    14344            %XSP$VBLK( NAME=VBLK, STCLASS="");
      579    14490
      580    14491    1       DCL XSS$SESSION ENTRY(1) ALTRET;
      581    14492
      582    14493    1       DCL SFPT$ PTR;
      583    14494
      584    14495    1       SFPT$ = ADDR( SFPT);
      585    14496            /* Determine the Session function code and copy params if necessary */
      586    14497    2       DO CASE( VBLK.EVENT);
      587    14498    2           CASE( %XSP_PEV_AC,
      588    14499    2                 %XSP_PEV_ACA,
      589    14500    2                 %XSP_PEV_TTD);
      590    14501    2               XSS$TYPED_DATA = XSS_TYPED_DATA;
      591    14502    2               XSS$TYPED_DATA.FNC = %XSS_FNC_STYDREQ#;
      592    14503    2               XSS$TYPED_DATA.DATA = VBLK.DATA;
PL6.E3A0      #002=XSP$SSEND File=XSP$ENCODE.:XSA1TSI                            WED 10/01/97 12:03 Page:118
      593    14504    2           CASE( %XSP_PEV_ARP,
      594    14505    2                 %XSP_PEV_ARU);
      595    14506    2               XSS$U_ABORT = XSS_U_ABORT;
      596    14507    2               XSS$U_ABORT.FNC = %XSS_FNC_SUABREQ#;
      597    14508    2               XSS$U_ABORT.DATA = VBLK.DATA;
      598    14509    2           CASE( %XSP_PEV_CP);
      599    14510    2               XSS$CONNECT = XSS_CONNECT;
      600    14511    2               XSS$CONNECT.FNC = %XSS_FNC_SCONREQ#;
      601    14512    2               XSS$CONNECT.DATA = VBLK.DATA;
      602    14513    2               XSS$CONNECT.SERNUM = XSP$CONNECT.SERNUM;
      603    14514    2               XSS$CONNECT.CALLING$ = XSP$CONNECT.CALLING$;
      604    14515    2               XSS$CONNECT.CALLED$ = XSP$CONNECT.CALLED$;
      605    14516    2               XSS$CONNECT.ITOKENS = XSP$CONNECT.ITOKENS;
      606    14517    2               XSS$CONNECT.SFU = XSP$CONNECT.SFU;
      607    14518    2               XSS$CONNECT.QOS = XSP$CONNECT.QOS;
      608    14519    2           CASE( %XSP_PEV_CPA,
      609    14520    2                 %XSP_PEV_CPR);
      610    14521    2               XSS$CONNECT = XSS_CONNECT;
      611    14522    2               XSS$CONNECT.FNC = %XSS_FNC_SCONRSP#;
      612    14523    2               XSS$CONNECT.RESULT = XSP$CONNECT.RESULT;
      613    14524    2               XSS$CONNECT.DATA = VBLK.DATA;
      614    14525    2               XSS$CONNECT.SERNUM = XSP$CONNECT.SERNUM;
      615    14526    2               XSS$CONNECT.CALLING$ = XSP$CONNECT.CALLING$;
      616    14527    2               XSS$CONNECT.RESPONDING$ = XSP$CONNECT.RESPONDING$;
      617    14528    2               XSS$CONNECT.ITOKENS = XSP$CONNECT.ITOKENS;
      618    14529    2               XSS$CONNECT.SFU = XSP$CONNECT.SFU;
      619    14530    2               XSS$CONNECT.QOS = XSP$CONNECT.QOS;
      620    14531    2           CASE( %XSP_PEV_RS);
      621    14532    2               XSS$RESYNCHRONIZE = XSS_RESYNCHRONIZE;
      622    14533    2               XSS$RESYNCHRONIZE.FNC = %XSS_FNC_SRSXREQ#;
      623    14534    2               XSS$RESYNCHRONIZE.TYPE = XSP$RESYNCHRONIZE.TYPE;
      624    14535    2               XSS$RESYNCHRONIZE.TOKENS = XSP$RESYNCHRONIZE.TOKENS;
      625    14536    2               XSS$RESYNCHRONIZE.DATA = VBLK.DATA;
      626    14537    2               XSS$RESYNCHRONIZE.SERNUM = XSP$RESYNCHRONIZE.SERNUM;
      627    14538    2           CASE( %XSP_PEV_RSA);
      628    14539    2               XSS$RESYNCHRONIZE = XSS_RESYNCHRONIZE;
      629    14540    2               XSS$RESYNCHRONIZE.FNC = %XSS_FNC_SRSXRSP#;
PL6.E3A0      #002=XSP$SSEND File=XSP$ENCODE.:XSA1TSI                            WED 10/01/97 12:03 Page:119
      630    14541    2               XSS$RESYNCHRONIZE.TYPE = XSP$RESYNCHRONIZE.TYPE;
      631    14542    2               XSS$RESYNCHRONIZE.TOKENS = XSP$RESYNCHRONIZE.TOKENS;
      632    14543    2               XSS$RESYNCHRONIZE.DATA = VBLK.DATA;
      633    14544    2               XSS$RESYNCHRONIZE.SERNUM = XSP$RESYNCHRONIZE.SERNUM;
      634    14545    2           CASE( %XSP_PEV_TC);
      635    14546    2               XSS$CAPABILITY_DATA = XSS_CAPABILITY_DATA;
      636    14547    2               XSS$CAPABILITY_DATA.FNC = %XSS_FNC_SCADREQ#;
      637    14548    2               XSS$CAPABILITY_DATA.DATA = VBLK.DATA;
      638    14549    2           CASE( %XSP_PEV_TCC);
      639    14550    2               XSS$CAPABILITY_DATA = XSS_CAPABILITY_DATA;
      640    14551    2               XSS$CAPABILITY_DATA.FNC = %XSS_FNC_SCADRSP#;
      641    14552    2               XSS$CAPABILITY_DATA.DATA = VBLK.DATA;
      642    14553    2           CASE( %XSP_PEV_TD);
      643    14554    2               XSS$DATA = XSS_DATA;
      644    14555    2               XSS$DATA.FNC = %XSS_FNC_SDATREQ#;
      645    14556    2               XSS$DATA.DATA = VBLK.DATA;
      646    14557    2           CASE( %XSP_PEV_TE);
      647    14558    2               XSS$EXPEDITED_DATA = XSS_EXPEDITED_DATA;
      648    14559    2               XSS$EXPEDITED_DATA.FNC = %XSS_FNC_SEXPREQ#;
      649    14560    2               XSS$EXPEDITED_DATA.DATA = VBLK.DATA;
      650    14561    2           CASE( %XSP_PEV_SACDREQ);
      651    14562    2               XSS$ACTIVITY_DISCARD = XSS_ACTIVITY_DISCARD;
      652    14563    2               XSS$ACTIVITY_DISCARD.FNC = %XSS_FNC_SACDREQ#;
      653    14564    2               XSS$ACTIVITY_DISCARD.REASON = XSP$ACTIVITY_DISCARD.REASON;
      654    14565    2           CASE( %XSP_PEV_SACDRSP);
      655    14566    2               XSS$ACTIVITY_DISCARD = XSS_ACTIVITY_DISCARD;
      656    14567    2               XSS$ACTIVITY_DISCARD.FNC = %XSS_FNC_SACDRSP#;
      657    14568    2               XSS$ACTIVITY_DISCARD.REASON = XSP$ACTIVITY_DISCARD.REASON;
      658    14569    2           CASE( %XSP_PEV_SACEREQ);
      659    14570    2               XSS$ACTIVITY_END = XSS_ACTIVITY_END;
      660    14571    2               XSS$ACTIVITY_END.FNC = %XSS_FNC_SACEREQ#;
      661    14572    2               XSS$ACTIVITY_END.DATA = VBLK.DATA;
      662    14573    2               XSS$ACTIVITY_END.SERNUM = XSP$ACTIVITY_END.SERNUM;
      663    14574    2           CASE( %XSP_PEV_SACERSP);
      664    14575    2               XSS$ACTIVITY_END = XSS_ACTIVITY_END;
      665    14576    2               XSS$ACTIVITY_END.FNC = %XSS_FNC_SACERSP#;
      666    14577    2               XSS$ACTIVITY_END.DATA = VBLK.DATA;
PL6.E3A0      #002=XSP$SSEND File=XSP$ENCODE.:XSA1TSI                            WED 10/01/97 12:03 Page:120
      667    14578    2               XSS$ACTIVITY_END.SERNUM = XSP$ACTIVITY_END.SERNUM;
      668    14579    2           CASE( %XSP_PEV_SACIREQ);
      669    14580    2               XSS$ACTIVITY_INTERRUPT = XSS_ACTIVITY_INTERRUPT;
      670    14581    2               XSS$ACTIVITY_INTERRUPT.FNC = %XSS_FNC_SACIREQ#;
      671    14582    2               XSS$ACTIVITY_INTERRUPT.REASON = XSP$ACTIVITY_INTERRUPT.REASON;
      672    14583    2           CASE( %XSP_PEV_SACIRSP);
      673    14584    2               XSS$ACTIVITY_INTERRUPT = XSS_ACTIVITY_INTERRUPT;
      674    14585    2               XSS$ACTIVITY_INTERRUPT.FNC = %XSS_FNC_SACIRSP#;
      675    14586    2               XSS$ACTIVITY_INTERRUPT.REASON = XSP$ACTIVITY_INTERRUPT.REASON;
      676    14587    2           CASE( %XSP_PEV_SACRREQ);
      677    14588    2               XSS$ACTIVITY_RESUME = XSS_ACTIVITY_RESUME;
      678    14589    2               XSS$ACTIVITY_RESUME.FNC = %XSS_FNC_SACRREQ#;
      679    14590    2               XSS$ACTIVITY_RESUME.OSCID = XSP$ACTIVITY_RESUME.OSCID;
      680    14591    2               XSS$ACTIVITY_RESUME.DATA = VBLK.DATA;
      681    14592    2               XSS$ACTIVITY_RESUME.SERNUM = XSP$ACTIVITY_RESUME.SERNUM;
      682    14593    2               XSS$ACTIVITY_RESUME.ACTID = XSP$ACTIVITY_RESUME.ACTID;
      683    14594    2               XSS$ACTIVITY_RESUME.OACTID = XSP$ACTIVITY_RESUME.OACTID;
      684    14595    2           CASE( %XSP_PEV_SACSREQ);
      685    14596    2               XSS$ACTIVITY_START = XSS_ACTIVITY_START;
      686    14597    2               XSS$ACTIVITY_START.FNC = %XSS_FNC_SACSREQ#;
      687    14598    2               XSS$ACTIVITY_START.DATA = VBLK.DATA;
      688    14599    2               XSS$ACTIVITY_START.ACTID = XSP$ACTIVITY_START.ACTID;
      689    14600    2           CASE( %XSP_PEV_SCTGREQ);
      690    14601    2               XSS$CONTROL_GIVE = XSS_CONTROL_GIVE;
      691    14602    2               XSS$CONTROL_GIVE.FNC = %XSS_FNC_SCTGREQ#;
      692    14603    2           CASE( %XSP_PEV_STKGREQ);
      693    14604    2               XSS$TOKEN_GIVE = XSS_TOKEN_GIVE;
      694    14605    2               XSS$TOKEN_GIVE.FNC = %XSS_FNC_STKGREQ#;
      695    14606    2               XSS$TOKEN_GIVE.TOKENS = XSP$TOKEN_GIVE.TOKENS;
      696    14607    2           CASE( %XSP_PEV_STKPREQ);
      697    14608    2               XSS$TOKEN_PLEASE = XSS_TOKEN_PLEASE;
      698    14609    2               XSS$TOKEN_PLEASE.FNC = %XSS_FNC_STKPREQ#;
      699    14610    2               XSS$TOKEN_PLEASE.TOKENS = XSP$TOKEN_PLEASE.TOKENS;
      700    14611    2               XSS$TOKEN_PLEASE.DATA = VBLK.DATA;
      701    14612    2           CASE( %XSP_PEV_SRELREQ);
      702    14613    2               XSS$RELEASE = XSS_RELEASE;
      703    14614    2               XSS$RELEASE.FNC = %XSS_FNC_SRELREQ#;
PL6.E3A0      #002=XSP$SSEND File=XSP$ENCODE.:XSA1TSI                            WED 10/01/97 12:03 Page:121
      704    14615    2               XSS$RELEASE.DATA = VBLK.DATA;
      705    14616    2           CASE( %XSP_PEV_SRELRSP,
      706    14617    2                 %XSP_PEV_SRELRSN);
      707    14618    2               XSS$RELEASE = XSS_RELEASE;
      708    14619    2               XSS$RELEASE.FNC = %XSS_FNC_SRELRSP#;
      709    14620    2               XSS$RELEASE.RESULT = XSP$RELEASE.RESULT;
      710    14621    2               XSS$RELEASE.DATA = VBLK.DATA;
      711    14622    2           CASE( %XSP_PEV_SRSXREQ);
      712    14623    2               XSS$RESYNCHRONIZE = XSS_RESYNCHRONIZE;
      713    14624    2               XSS$RESYNCHRONIZE.FNC = %XSS_FNC_SRSXREQ#;
      714    14625    2               XSS$RESYNCHRONIZE.TYPE = XSP$RESYNCHRONIZE.TYPE;
      715    14626    2               XSS$RESYNCHRONIZE.TOKENS = XSP$RESYNCHRONIZE.TOKENS;
      716    14627    2               XSS$RESYNCHRONIZE.DATA = VBLK.DATA;
      717    14628    2               XSS$RESYNCHRONIZE.SERNUM = XSP$RESYNCHRONIZE.SERNUM;
      718    14629    2           CASE( %XSP_PEV_SRSXRSP);
      719    14630    2               XSS$RESYNCHRONIZE = XSS_RESYNCHRONIZE;
      720    14631    2               XSS$RESYNCHRONIZE.FNC = %XSS_FNC_SRSXRSP#;
      721    14632    2               XSS$RESYNCHRONIZE.TYPE = XSP$RESYNCHRONIZE.TYPE;
      722    14633    2               XSS$RESYNCHRONIZE.TOKENS = XSP$RESYNCHRONIZE.TOKENS;
      723    14634    2               XSS$RESYNCHRONIZE.DATA = VBLK.DATA;
      724    14635    2               XSS$RESYNCHRONIZE.SERNUM = XSP$RESYNCHRONIZE.SERNUM;
      725    14636    2           CASE( %XSP_PEV_SSMAREQ);
      726    14637    2               XSS$SYNC_MAJOR = XSS_SYNC_MAJOR;
      727    14638    2               XSS$SYNC_MAJOR.FNC = %XSS_FNC_SSMAREQ#;
      728    14639    2               XSS$SYNC_MAJOR.DATA = VBLK.DATA;
      729    14640    2               XSS$SYNC_MAJOR.SERNUM = XSP$SYNC_MAJOR.SERNUM;
      730    14641    2           CASE( %XSP_PEV_SSMARSP);
      731    14642    2               XSS$SYNC_MAJOR = XSS_SYNC_MAJOR;
      732    14643    2               XSS$SYNC_MAJOR.FNC = %XSS_FNC_SSMARSP#;
      733    14644    2               XSS$SYNC_MAJOR.DATA = VBLK.DATA;
      734    14645    2               XSS$SYNC_MAJOR.SERNUM = XSP$SYNC_MAJOR.SERNUM;
      735    14646    2           CASE( %XSP_PEV_SSMIREQ);
      736    14647    2               XSS$SYNC_MINOR = XSS_SYNC_MINOR;
      737    14648    2               XSS$SYNC_MINOR.FNC = %XSS_FNC_SSMIRSP#;
      738    14649    2               XSS$SYNC_MINOR.TYPE = XSP$SYNC_MINOR.TYPE;
      739    14650    2               XSS$SYNC_MINOR.DATA = VBLK.DATA;
      740    14651    2               XSS$SYNC_MINOR.SERNUM = XSP$SYNC_MINOR.SERNUM;
PL6.E3A0      #002=XSP$SSEND File=XSP$ENCODE.:XSA1TSI                            WED 10/01/97 12:03 Page:122
      741    14652    2           CASE( %XSP_PEV_SSMIRSP);
      742    14653    2               XSS$SYNC_MINOR = XSS_SYNC_MINOR;
      743    14654    2               XSS$SYNC_MINOR.FNC = %XSS_FNC_SSMIRSP#;
      744    14655    2               XSS$SYNC_MINOR.TYPE = XSP$SYNC_MINOR.TYPE;
      745    14656    2               XSS$SYNC_MINOR.DATA = VBLK.DATA;
      746    14657    2               XSS$SYNC_MINOR.SERNUM = XSP$SYNC_MINOR.SERNUM;
      747    14658    2           CASE( %XSP_PEV_SUERREQ);
      748    14659    2               XSS$U_EXCEPTION_REPORT = XSS_U_EXCEPTION_REPORT;
      749    14660    2               XSS$U_EXCEPTION_REPORT.FNC = %XSS_FNC_SUERREQ#;
      750    14661    2               XSS$U_EXCEPTION_REPORT.REASON = XSP$U_EXCEPTION_REPORT.REASON;
      751    14662    2               XSS$U_EXCEPTION_REPORT.DATA = VBLK.DATA;
      752    14663    2           CASE( ELSE);
      753    14664    2               ALTRETURN;
      754    14665    2           END;
      755    14666    1       XSS$GENERIC.SCID = XSP$GENERIC.PCID;
      756    14667            /* ..and send it on its way */
      757    14668    1       CALL XSS$SESSION( XSS$GENERIC)
      758    14669    2       WHENALTRETURN DO;
      759    14670    2           XSP$GENERIC.ERROR = XSS$GENERIC.ERROR;
      760    14671    2           ALTRETURN;
      761    14672    2           END;
      762    14673    1       RETURN;
      763    14674
      764    14675    1       END XSP$SSEND;

PL6.E3A0      #002=XSP$SSEND File=XSP$ENCODE.:XSA1TSI                            WED 10/01/97 12:03 Page:123
--  Include file information  --

   XSP_INTERNAL_M.:XSA1TOU  is referenced.
   XSP_INTERNAL_E.:XSA1TOU  is referenced.
   XSP_PRESENTATION_M.:XSA1TOU  is referenced.
   XSP_PRESENTATION_E.:XSA1TOU  is referenced.
   XSS_SESSION_M.:XSA1TOU  is referenced.
   XSS_SESSION_E.:XSA1TOU  is referenced.
      No diagnostics issued in procedure XSP$SSEND.

   Procedure XSP$SSEND requires 452 words for executable code.
   Procedure XSP$SSEND requires 20 words of local(AUTO) storage.

    No errors detected in file XSP$ENCODE.:XSA1TSI    .

PL6.E3A0      #002=XSP$SSEND File=XSP$ENCODE.:XSA1TSI                            WED 10/01/97 12:03 Page:124

 Object Unit name= XSP$SSEND                                  File name= XSP$ENCODE.:XSA1TOU
 UTS= OCT 01 '97 12:03:17.40 WED                              Compiler= PL-6/E31         Sev=      00
 SharedLib= :SHARED_SYSTEM                                    Alt SharedLib=


    ****  Control sections  ****

 Sect   Type Bound  Init  Size OctSiz  Section name(segment info)
    0   Proc  even  none   452    704  XSP$SSEND
    1  RoData even  none     1      1  XSP$SSEND

    ****  Entry defs  ****

                              Check   Calling
                             calling  sequence
  Sect OctLoc Primary Altret sequence   type   Parms  Name
     0      0   yes    yes     yes      Std        1  XSP$SSEND

  ****  Entry refs  ****

         Check        Calling
        calling       sequence
Altret sequence SRef   type   Args  Name
 yes     yes           Std       1 XSS$SESSION
                       nStd      0 X66_AUTO_1
                       nStd      0 X66_AALT
                       nStd      0 X66_ARET
PL6.E3A0      #002=XSP$SSEND File=XSP$ENCODE.:XSA1TSI                            WED 10/01/97 12:03 Page:125

  ****  Data refs  ****

  Flags:  r = read only, s = secondary
Flgs Name                             Flgs Name                             Flgs Name
     XSS_ACTIVITY_DISCARD                  XSS_ACTIVITY_END                      XSS_ACTIVITY_INTERRUPT
     XSS_ACTIVITY_RESUME                   XSS_ACTIVITY_START                    XSS_CAPABILITY_DATA
     XSS_CONNECT                           XSS_CONTROL_GIVE                      XSS_DATA
     XSS_EXPEDITED_DATA                    XSS_RELEASE                           XSS_RESYNCHRONIZE
     XSS_SYNC_MAJOR                        XSS_SYNC_MINOR                        XSS_TOKEN_GIVE
     XSS_TOKEN_PLEASE                      XSS_TYPED_DATA                        XSS_U_ABORT
     XSS_U_EXCEPTION_REPORT
PL6.E3A0      #002=XSP$SSEND File=XSP$ENCODE.:XSA1TSI                            WED 10/01/97 12:03 Page:126


      556        1        /*T***********************************************************/
      557        2        /*T*                                                         */
      558        3        /*T* Copyright (c) Bull HN Information Systems Inc., 1997    */
      559        4        /*T*                                                         */
      560        5        /*T***********************************************************/
      561        6        /*F*    NAME:   XSP$SSEND
      562        7                DESCRIPTION:
      563        8                    This is the common routine in Presentation that handles sending
      564        9                    a message on to Session.  The Presentation event in VBLK.EVENT
      565       10                    is mapped to a Session function code.
      566       11        */
      567       12        XSP$SSEND: PROC( VBLK) ALTRET;

     12  0 000000   000000 700200 xent  XSP$SSEND    TSX0  ! X66_AUTO_1
         0 000001   000024 000001                    ZERO    20,1

      568       13        %INCLUDE XSS_SESSION_E;
      569      578        %INCLUDE XSS_SESSION_M;
      570     3221            %XSS$GENERIC( FPTN=SFPT, STCLASS=AUTO);
      571     3367            %XSS$PRIMITIVES( STCLASS="BASED( SFPT$)");
      572     6746            %XSS_PRIMITIVES( STCLASS=SYMREF);
      573    10125        %INCLUDE XSP_PRESENTATION_E;
      574    10224        %INCLUDE XSP_PRESENTATION_M;
      575    11710            %XSP$PRIMITIVES( STCLASS="BASED( VBLK.FPT$)");
      576    13409        %INCLUDE XSP_INTERNAL_E;
      577    13683        %INCLUDE XSP_INTERNAL_M;
      578    14344            %XSP$VBLK( NAME=VBLK, STCLASS="");
      579    14490
      580    14491    1       DCL XSS$SESSION ENTRY(1) ALTRET;
      581    14492
      582    14493    1       DCL SFPT$ PTR;
      583    14494
      584    14495    1       SFPT$ = ADDR( SFPT);

  14495  0 000002   200004 630500                    EPPR0   SFPT,,AUTO
         0 000003   200022 450500                    STP0    SFPT$,,AUTO
PL6.E3A0      #002=XSP$SSEND File=XSP$ENCODE.:XSA1TSI                            WED 10/01/97 12:03 Page:127

      585    14496            /* Determine the Session function code and copy params if necessary */
      586    14497    2       DO CASE( VBLK.EVENT);

  14497  0 000004   200003 471500                    LDP1    @VBLK,,AUTO
         0 000005   100006 720100                    LXL0    6,,PR1
         0 000006   000777 360003                    ANX0    511,DU
         0 000007   000071 100003                    CMPX0   57,DU
         0 000010   000012 602010 0                  TNC     s:14497+6,X0
         0 000011   000664 710000 0                  TRA     s:14664
         0 000012   000664 710000 0                  TRA     s:14664
         0 000013   000103 710000 0                  TRA     s:14501
         0 000014   000103 710000 0                  TRA     s:14501
         0 000015   000113 710000 0                  TRA     s:14506
         0 000016   000113 710000 0                  TRA     s:14506
         0 000017   000123 710000 0                  TRA     s:14510
         0 000020   000155 710000 0                  TRA     s:14521
         0 000021   000155 710000 0                  TRA     s:14521
         0 000022   000212 710000 0                  TRA     s:14532
         0 000023   000233 710000 0                  TRA     s:14539
         0 000024   000254 710000 0                  TRA     s:14546
         0 000025   000264 710000 0                  TRA     s:14550
         0 000026   000274 710000 0                  TRA     s:14554
         0 000027   000304 710000 0                  TRA     s:14558
         0 000030   000103 710000 0                  TRA     s:14501
         0 000031   000664 710000 0                  TRA     s:14664
         0 000032   000314 710000 0                  TRA     s:14562
         0 000033   000664 710000 0                  TRA     s:14664
         0 000034   000325 710000 0                  TRA     s:14566
         0 000035   000664 710000 0                  TRA     s:14664
         0 000036   000336 710000 0                  TRA     s:14570
         0 000037   000664 710000 0                  TRA     s:14664
         0 000040   000351 710000 0                  TRA     s:14575
         0 000041   000664 710000 0                  TRA     s:14664
         0 000042   000364 710000 0                  TRA     s:14580
         0 000043   000664 710000 0                  TRA     s:14664
         0 000044   000375 710000 0                  TRA     s:14584
PL6.E3A0      #002=XSP$SSEND File=XSP$ENCODE.:XSA1TSI                            WED 10/01/97 12:03 Page:128
         0 000045   000664 710000 0                  TRA     s:14664
         0 000046   000406 710000 0                  TRA     s:14588
         0 000047   000664 710000 0                  TRA     s:14664
         0 000050   000434 710000 0                  TRA     s:14596
         0 000051   000664 710000 0                  TRA     s:14664
         0 000052   000450 710000 0                  TRA     s:14601
         0 000053   000664 710000 0                  TRA     s:14664
         0 000054   000456 710000 0                  TRA     s:14604
         0 000055   000664 710000 0                  TRA     s:14664
         0 000056   000467 710000 0                  TRA     s:14608
         0 000057   000664 710000 0                  TRA     s:14664
         0 000060   000502 710000 0                  TRA     s:14613
         0 000061   000664 710000 0                  TRA     s:14664
         0 000062   000512 710000 0                  TRA     s:14618
         0 000063   000664 710000 0                  TRA     s:14664
         0 000064   000512 710000 0                  TRA     s:14618
         0 000065   000664 710000 0                  TRA     s:14664
         0 000066   000525 710000 0                  TRA     s:14623
         0 000067   000664 710000 0                  TRA     s:14664
         0 000070   000546 710000 0                  TRA     s:14630
         0 000071   000664 710000 0                  TRA     s:14664
         0 000072   000567 710000 0                  TRA     s:14637
         0 000073   000664 710000 0                  TRA     s:14664
         0 000074   000602 710000 0                  TRA     s:14642
         0 000075   000664 710000 0                  TRA     s:14664
         0 000076   000615 710000 0                  TRA     s:14647
         0 000077   000664 710000 0                  TRA     s:14664
         0 000100   000633 710000 0                  TRA     s:14653
         0 000101   000664 710000 0                  TRA     s:14664
         0 000102   000651 710000 0                  TRA     s:14659

      587    14498    2           CASE( %XSP_PEV_AC,

      588    14499    2                 %XSP_PEV_ACA,
      589    14500    2                 %XSP_PEV_TTD);
      590    14501    2               XSS$TYPED_DATA = XSS_TYPED_DATA;

PL6.E3A0      #002=XSP$SSEND File=XSP$ENCODE.:XSA1TSI                            WED 10/01/97 12:03 Page:129
  14501  0 000103   000100 100400                    MLR     fill='000'O
         0 000104   000000 000020 xsym               ADSC9   XSS_TYPED_DATA           cn=0,n=16
         0 000105   000000 000020                    ADSC9   0,,PR0                   cn=0,n=16

      591    14502    2               XSS$TYPED_DATA.FNC = %XSS_FNC_STYDREQ#;

  14502  0 000106   063000 236003                    LDQ     26112,DU
         0 000107   000000 552140                    STBQ    0,'40'O,PR0

      592    14503    2               XSS$TYPED_DATA.DATA = VBLK.DATA;

  14503  0 000110   100004 237100                    LDAQ    4,,PR1
         0 000111   000002 757100                    STAQ    2,,PR0
         0 000112   000665 710000 0                  TRA     s:14666

      593    14504    2           CASE( %XSP_PEV_ARP,

      594    14505    2                 %XSP_PEV_ARU);
      595    14506    2               XSS$U_ABORT = XSS_U_ABORT;

  14506  0 000113   000100 100400                    MLR     fill='000'O
         0 000114   000000 000020 xsym               ADSC9   XSS_U_ABORT              cn=0,n=16
         0 000115   000000 000020                    ADSC9   0,,PR0                   cn=0,n=16

      596    14507    2               XSS$U_ABORT.FNC = %XSS_FNC_SUABREQ#;

  14507  0 000116   065000 236003                    LDQ     27136,DU
         0 000117   000000 552140                    STBQ    0,'40'O,PR0

      597    14508    2               XSS$U_ABORT.DATA = VBLK.DATA;

  14508  0 000120   100004 237100                    LDAQ    4,,PR1
         0 000121   000002 757100                    STAQ    2,,PR0
         0 000122   000665 710000 0                  TRA     s:14666

      598    14509    2           CASE( %XSP_PEV_CP);

PL6.E3A0      #002=XSP$SSEND File=XSP$ENCODE.:XSA1TSI                            WED 10/01/97 12:03 Page:130
      599    14510    2               XSS$CONNECT = XSS_CONNECT;

  14510  0 000123   000100 100400                    MLR     fill='000'O
         0 000124   000000 000054 xsym               ADSC9   XSS_CONNECT              cn=0,n=44
         0 000125   000000 000054                    ADSC9   0,,PR0                   cn=0,n=44

      600    14511    2               XSS$CONNECT.FNC = %XSS_FNC_SCONREQ#;

  14511  0 000126   025000 236003                    LDQ     10752,DU
         0 000127   000000 552140                    STBQ    0,'40'O,PR0

      601    14512    2               XSS$CONNECT.DATA = VBLK.DATA;

  14512  0 000130   100004 237100                    LDAQ    4,,PR1
         0 000131   000002 757100                    STAQ    2,,PR0

      602    14513    2               XSS$CONNECT.SERNUM = XSP$CONNECT.SERNUM;

  14513  0 000132   100001 473500                    LDP3    1,,PR1
         0 000133   300004 235100                    LDA     4,,PR3
         0 000134   000004 755100                    STA     4,,PR0

      603    14514    2               XSS$CONNECT.CALLING$ = XSP$CONNECT.CALLING$;

  14514  0 000135   100001 473500                    LDP3    1,,PR1
         0 000136   300006 236100                    LDQ     6,,PR3
         0 000137   000006 756100                    STQ     6,,PR0

      604    14515    2               XSS$CONNECT.CALLED$ = XSP$CONNECT.CALLED$;

  14515  0 000140   100001 473500                    LDP3    1,,PR1
         0 000141   300007 236100                    LDQ     7,,PR3
         0 000142   000007 756100                    STQ     7,,PR0

      605    14516    2               XSS$CONNECT.ITOKENS = XSP$CONNECT.ITOKENS;

  14516  0 000143   100001 473500                    LDP3    1,,PR1
PL6.E3A0      #002=XSP$SSEND File=XSP$ENCODE.:XSA1TSI                            WED 10/01/97 12:03 Page:131
         0 000144   300010 236100                    LDQ     8,,PR3
         0 000145   000010 552140                    STBQ    8,'40'O,PR0

      606    14517    2               XSS$CONNECT.SFU = XSP$CONNECT.SFU;

  14517  0 000146   100001 473500                    LDP3    1,,PR1
         0 000147   300010 720100                    LXL0    8,,PR3
         0 000150   000010 440100                    SXL0    8,,PR0

      607    14518    2               XSS$CONNECT.QOS = XSP$CONNECT.QOS;

  14518  0 000151   100001 473500                    LDP3    1,,PR1
         0 000152   300011 235100                    LDA     9,,PR3
         0 000153   000011 755100                    STA     9,,PR0
         0 000154   000665 710000 0                  TRA     s:14666

      608    14519    2           CASE( %XSP_PEV_CPA,

      609    14520    2                 %XSP_PEV_CPR);
      610    14521    2               XSS$CONNECT = XSS_CONNECT;

  14521  0 000155   000100 100400                    MLR     fill='000'O
         0 000156   000000 000054 xsym               ADSC9   XSS_CONNECT              cn=0,n=44
         0 000157   000000 000054                    ADSC9   0,,PR0                   cn=0,n=44

      611    14522    2               XSS$CONNECT.FNC = %XSS_FNC_SCONRSP#;

  14522  0 000160   027000 236003                    LDQ     11776,DU
         0 000161   000000 552140                    STBQ    0,'40'O,PR0

      612    14523    2               XSS$CONNECT.RESULT = XSP$CONNECT.RESULT;

  14523  0 000162   100001 473500                    LDP3    1,,PR1
         0 000163   300010 236100                    LDQ     8,,PR3
         0 000164   000010 552120                    STBQ    8,'20'O,PR0

      613    14524    2               XSS$CONNECT.DATA = VBLK.DATA;
PL6.E3A0      #002=XSP$SSEND File=XSP$ENCODE.:XSA1TSI                            WED 10/01/97 12:03 Page:132

  14524  0 000165   100004 237100                    LDAQ    4,,PR1
         0 000166   000002 757100                    STAQ    2,,PR0

      614    14525    2               XSS$CONNECT.SERNUM = XSP$CONNECT.SERNUM;

  14525  0 000167   100001 473500                    LDP3    1,,PR1
         0 000170   300004 235100                    LDA     4,,PR3
         0 000171   000004 755100                    STA     4,,PR0

      615    14526    2               XSS$CONNECT.CALLING$ = XSP$CONNECT.CALLING$;

  14526  0 000172   100001 473500                    LDP3    1,,PR1
         0 000173   300006 236100                    LDQ     6,,PR3
         0 000174   000006 756100                    STQ     6,,PR0

      616    14527    2               XSS$CONNECT.RESPONDING$ = XSP$CONNECT.RESPONDING$;

  14527  0 000175   100001 473500                    LDP3    1,,PR1
         0 000176   300007 236100                    LDQ     7,,PR3
         0 000177   000007 756100                    STQ     7,,PR0

      617    14528    2               XSS$CONNECT.ITOKENS = XSP$CONNECT.ITOKENS;

  14528  0 000200   100001 473500                    LDP3    1,,PR1
         0 000201   300010 236100                    LDQ     8,,PR3
         0 000202   000010 552140                    STBQ    8,'40'O,PR0

      618    14529    2               XSS$CONNECT.SFU = XSP$CONNECT.SFU;

  14529  0 000203   100001 473500                    LDP3    1,,PR1
         0 000204   300010 720100                    LXL0    8,,PR3
         0 000205   000010 440100                    SXL0    8,,PR0

      619    14530    2               XSS$CONNECT.QOS = XSP$CONNECT.QOS;

  14530  0 000206   100001 473500                    LDP3    1,,PR1
PL6.E3A0      #002=XSP$SSEND File=XSP$ENCODE.:XSA1TSI                            WED 10/01/97 12:03 Page:133
         0 000207   300011 235100                    LDA     9,,PR3
         0 000210   000011 755100                    STA     9,,PR0
         0 000211   000665 710000 0                  TRA     s:14666

      620    14531    2           CASE( %XSP_PEV_RS);

      621    14532    2               XSS$RESYNCHRONIZE = XSS_RESYNCHRONIZE;

  14532  0 000212   000100 100400                    MLR     fill='000'O
         0 000213   000000 000024 xsym               ADSC9   XSS_RESYNCHRONIZE        cn=0,n=20
         0 000214   000000 000024                    ADSC9   0,,PR0                   cn=0,n=20

      622    14533    2               XSS$RESYNCHRONIZE.FNC = %XSS_FNC_SRSXREQ#;

  14533  0 000215   043000 236003                    LDQ     17920,DU
         0 000216   000000 552140                    STBQ    0,'40'O,PR0

      623    14534    2               XSS$RESYNCHRONIZE.TYPE = XSP$RESYNCHRONIZE.TYPE;

  14534  0 000217   100001 473500                    LDP3    1,,PR1
         0 000220   300000 236100                    LDQ     0,,PR3
         0 000221   000000 552110                    STBQ    0,'10'O,PR0

      624    14535    2               XSS$RESYNCHRONIZE.TOKENS = XSP$RESYNCHRONIZE.TOKENS;

  14535  0 000222   100001 473500                    LDP3    1,,PR1
         0 000223   300000 236100                    LDQ     0,,PR3
         0 000224   000000 552104                    STBQ    0,'04'O,PR0

      625    14536    2               XSS$RESYNCHRONIZE.DATA = VBLK.DATA;

  14536  0 000225   100004 237100                    LDAQ    4,,PR1
         0 000226   000002 757100                    STAQ    2,,PR0

      626    14537    2               XSS$RESYNCHRONIZE.SERNUM = XSP$RESYNCHRONIZE.SERNUM;

  14537  0 000227   100001 473500                    LDP3    1,,PR1
PL6.E3A0      #002=XSP$SSEND File=XSP$ENCODE.:XSA1TSI                            WED 10/01/97 12:03 Page:134
         0 000230   300004 235100                    LDA     4,,PR3
         0 000231   000004 755100                    STA     4,,PR0
         0 000232   000665 710000 0                  TRA     s:14666

      627    14538    2           CASE( %XSP_PEV_RSA);

      628    14539    2               XSS$RESYNCHRONIZE = XSS_RESYNCHRONIZE;

  14539  0 000233   000100 100400                    MLR     fill='000'O
         0 000234   000000 000024 xsym               ADSC9   XSS_RESYNCHRONIZE        cn=0,n=20
         0 000235   000000 000024                    ADSC9   0,,PR0                   cn=0,n=20

      629    14540    2               XSS$RESYNCHRONIZE.FNC = %XSS_FNC_SRSXRSP#;

  14540  0 000236   045000 236003                    LDQ     18944,DU
         0 000237   000000 552140                    STBQ    0,'40'O,PR0

      630    14541    2               XSS$RESYNCHRONIZE.TYPE = XSP$RESYNCHRONIZE.TYPE;

  14541  0 000240   100001 473500                    LDP3    1,,PR1
         0 000241   300000 236100                    LDQ     0,,PR3
         0 000242   000000 552110                    STBQ    0,'10'O,PR0

      631    14542    2               XSS$RESYNCHRONIZE.TOKENS = XSP$RESYNCHRONIZE.TOKENS;

  14542  0 000243   100001 473500                    LDP3    1,,PR1
         0 000244   300000 236100                    LDQ     0,,PR3
         0 000245   000000 552104                    STBQ    0,'04'O,PR0

      632    14543    2               XSS$RESYNCHRONIZE.DATA = VBLK.DATA;

  14543  0 000246   100004 237100                    LDAQ    4,,PR1
         0 000247   000002 757100                    STAQ    2,,PR0

      633    14544    2               XSS$RESYNCHRONIZE.SERNUM = XSP$RESYNCHRONIZE.SERNUM;

  14544  0 000250   100001 473500                    LDP3    1,,PR1
PL6.E3A0      #002=XSP$SSEND File=XSP$ENCODE.:XSA1TSI                            WED 10/01/97 12:03 Page:135
         0 000251   300004 235100                    LDA     4,,PR3
         0 000252   000004 755100                    STA     4,,PR0
         0 000253   000665 710000 0                  TRA     s:14666

      634    14545    2           CASE( %XSP_PEV_TC);

      635    14546    2               XSS$CAPABILITY_DATA = XSS_CAPABILITY_DATA;

  14546  0 000254   000100 100400                    MLR     fill='000'O
         0 000255   000000 000020 xsym               ADSC9   XSS_CAPABILITY_DATA      cn=0,n=16
         0 000256   000000 000020                    ADSC9   0,,PR0                   cn=0,n=16

      636    14547    2               XSS$CAPABILITY_DATA.FNC = %XSS_FNC_SCADREQ#;

  14547  0 000257   021000 236003                    LDQ     8704,DU
         0 000260   000000 552140                    STBQ    0,'40'O,PR0

      637    14548    2               XSS$CAPABILITY_DATA.DATA = VBLK.DATA;

  14548  0 000261   100004 237100                    LDAQ    4,,PR1
         0 000262   000002 757100                    STAQ    2,,PR0
         0 000263   000665 710000 0                  TRA     s:14666

      638    14549    2           CASE( %XSP_PEV_TCC);

      639    14550    2               XSS$CAPABILITY_DATA = XSS_CAPABILITY_DATA;

  14550  0 000264   000100 100400                    MLR     fill='000'O
         0 000265   000000 000020 xsym               ADSC9   XSS_CAPABILITY_DATA      cn=0,n=16
         0 000266   000000 000020                    ADSC9   0,,PR0                   cn=0,n=16

      640    14551    2               XSS$CAPABILITY_DATA.FNC = %XSS_FNC_SCADRSP#;

  14551  0 000267   023000 236003                    LDQ     9728,DU
         0 000270   000000 552140                    STBQ    0,'40'O,PR0

      641    14552    2               XSS$CAPABILITY_DATA.DATA = VBLK.DATA;
PL6.E3A0      #002=XSP$SSEND File=XSP$ENCODE.:XSA1TSI                            WED 10/01/97 12:03 Page:136

  14552  0 000271   100004 237100                    LDAQ    4,,PR1
         0 000272   000002 757100                    STAQ    2,,PR0
         0 000273   000665 710000 0                  TRA     s:14666

      642    14553    2           CASE( %XSP_PEV_TD);

      643    14554    2               XSS$DATA = XSS_DATA;

  14554  0 000274   000100 100400                    MLR     fill='000'O
         0 000275   000000 000020 xsym               ADSC9   XSS_DATA                 cn=0,n=16
         0 000276   000000 000020                    ADSC9   0,,PR0                   cn=0,n=16

      644    14555    2               XSS$DATA.FNC = %XSS_FNC_SDATREQ#;

  14555  0 000277   033000 236003                    LDQ     13824,DU
         0 000300   000000 552140                    STBQ    0,'40'O,PR0

      645    14556    2               XSS$DATA.DATA = VBLK.DATA;

  14556  0 000301   100004 237100                    LDAQ    4,,PR1
         0 000302   000002 757100                    STAQ    2,,PR0
         0 000303   000665 710000 0                  TRA     s:14666

      646    14557    2           CASE( %XSP_PEV_TE);

      647    14558    2               XSS$EXPEDITED_DATA = XSS_EXPEDITED_DATA;

  14558  0 000304   000100 100400                    MLR     fill='000'O
         0 000305   000000 000020 xsym               ADSC9   XSS_EXPEDITED_DATA       cn=0,n=16
         0 000306   000000 000020                    ADSC9   0,,PR0                   cn=0,n=16

      648    14559    2               XSS$EXPEDITED_DATA.FNC = %XSS_FNC_SEXPREQ#;

  14559  0 000307   035000 236003                    LDQ     14848,DU
         0 000310   000000 552140                    STBQ    0,'40'O,PR0

PL6.E3A0      #002=XSP$SSEND File=XSP$ENCODE.:XSA1TSI                            WED 10/01/97 12:03 Page:137
      649    14560    2               XSS$EXPEDITED_DATA.DATA = VBLK.DATA;

  14560  0 000311   100004 237100                    LDAQ    4,,PR1
         0 000312   000002 757100                    STAQ    2,,PR0
         0 000313   000665 710000 0                  TRA     s:14666

      650    14561    2           CASE( %XSP_PEV_SACDREQ);

      651    14562    2               XSS$ACTIVITY_DISCARD = XSS_ACTIVITY_DISCARD;

  14562  0 000314   000100 100400                    MLR     fill='000'O
         0 000315   000000 000010 xsym               ADSC9   XSS_ACTIVITY_DISCARD     cn=0,n=8
         0 000316   000000 000010                    ADSC9   0,,PR0                   cn=0,n=8

      652    14563    2               XSS$ACTIVITY_DISCARD.FNC = %XSS_FNC_SACDREQ#;

  14563  0 000317   001000 236003                    LDQ     512,DU
         0 000320   000000 552140                    STBQ    0,'40'O,PR0

      653    14564    2               XSS$ACTIVITY_DISCARD.REASON = XSP$ACTIVITY_DISCARD.REASON;

  14564  0 000321   100001 473500                    LDP3    1,,PR1
         0 000322   300000 236100                    LDQ     0,,PR3
         0 000323   000000 552110                    STBQ    0,'10'O,PR0
         0 000324   000665 710000 0                  TRA     s:14666

      654    14565    2           CASE( %XSP_PEV_SACDRSP);

      655    14566    2               XSS$ACTIVITY_DISCARD = XSS_ACTIVITY_DISCARD;

  14566  0 000325   000100 100400                    MLR     fill='000'O
         0 000326   000000 000010 xsym               ADSC9   XSS_ACTIVITY_DISCARD     cn=0,n=8
         0 000327   000000 000010                    ADSC9   0,,PR0                   cn=0,n=8

      656    14567    2               XSS$ACTIVITY_DISCARD.FNC = %XSS_FNC_SACDRSP#;

  14567  0 000330   003000 236003                    LDQ     1536,DU
PL6.E3A0      #002=XSP$SSEND File=XSP$ENCODE.:XSA1TSI                            WED 10/01/97 12:03 Page:138
         0 000331   000000 552140                    STBQ    0,'40'O,PR0

      657    14568    2               XSS$ACTIVITY_DISCARD.REASON = XSP$ACTIVITY_DISCARD.REASON;

  14568  0 000332   100001 473500                    LDP3    1,,PR1
         0 000333   300000 236100                    LDQ     0,,PR3
         0 000334   000000 552110                    STBQ    0,'10'O,PR0
         0 000335   000665 710000 0                  TRA     s:14666

      658    14569    2           CASE( %XSP_PEV_SACEREQ);

      659    14570    2               XSS$ACTIVITY_END = XSS_ACTIVITY_END;

  14570  0 000336   000100 100400                    MLR     fill='000'O
         0 000337   000000 000024 xsym               ADSC9   XSS_ACTIVITY_END         cn=0,n=20
         0 000340   000000 000024                    ADSC9   0,,PR0                   cn=0,n=20

      660    14571    2               XSS$ACTIVITY_END.FNC = %XSS_FNC_SACEREQ#;

  14571  0 000341   005000 236003                    LDQ     2560,DU
         0 000342   000000 552140                    STBQ    0,'40'O,PR0

      661    14572    2               XSS$ACTIVITY_END.DATA = VBLK.DATA;

  14572  0 000343   100004 237100                    LDAQ    4,,PR1
         0 000344   000002 757100                    STAQ    2,,PR0

      662    14573    2               XSS$ACTIVITY_END.SERNUM = XSP$ACTIVITY_END.SERNUM;

  14573  0 000345   100001 473500                    LDP3    1,,PR1
         0 000346   300004 235100                    LDA     4,,PR3
         0 000347   000004 755100                    STA     4,,PR0
         0 000350   000665 710000 0                  TRA     s:14666

      663    14574    2           CASE( %XSP_PEV_SACERSP);

      664    14575    2               XSS$ACTIVITY_END = XSS_ACTIVITY_END;
PL6.E3A0      #002=XSP$SSEND File=XSP$ENCODE.:XSA1TSI                            WED 10/01/97 12:03 Page:139

  14575  0 000351   000100 100400                    MLR     fill='000'O
         0 000352   000000 000024 xsym               ADSC9   XSS_ACTIVITY_END         cn=0,n=20
         0 000353   000000 000024                    ADSC9   0,,PR0                   cn=0,n=20

      665    14576    2               XSS$ACTIVITY_END.FNC = %XSS_FNC_SACERSP#;

  14576  0 000354   007000 236003                    LDQ     3584,DU
         0 000355   000000 552140                    STBQ    0,'40'O,PR0

      666    14577    2               XSS$ACTIVITY_END.DATA = VBLK.DATA;

  14577  0 000356   100004 237100                    LDAQ    4,,PR1
         0 000357   000002 757100                    STAQ    2,,PR0

      667    14578    2               XSS$ACTIVITY_END.SERNUM = XSP$ACTIVITY_END.SERNUM;

  14578  0 000360   100001 473500                    LDP3    1,,PR1
         0 000361   300004 235100                    LDA     4,,PR3
         0 000362   000004 755100                    STA     4,,PR0
         0 000363   000665 710000 0                  TRA     s:14666

      668    14579    2           CASE( %XSP_PEV_SACIREQ);

      669    14580    2               XSS$ACTIVITY_INTERRUPT = XSS_ACTIVITY_INTERRUPT;

  14580  0 000364   000100 100400                    MLR     fill='000'O
         0 000365   000000 000010 xsym               ADSC9   XSS_ACTIVITY_INTERRUPT   cn=0,n=8
         0 000366   000000 000010                    ADSC9   0,,PR0                   cn=0,n=8

      670    14581    2               XSS$ACTIVITY_INTERRUPT.FNC = %XSS_FNC_SACIREQ#;

  14581  0 000367   011000 236003                    LDQ     4608,DU
         0 000370   000000 552140                    STBQ    0,'40'O,PR0

      671    14582    2               XSS$ACTIVITY_INTERRUPT.REASON = XSP$ACTIVITY_INTERRUPT.REASON;

PL6.E3A0      #002=XSP$SSEND File=XSP$ENCODE.:XSA1TSI                            WED 10/01/97 12:03 Page:140
  14582  0 000371   100001 473500                    LDP3    1,,PR1
         0 000372   300000 236100                    LDQ     0,,PR3
         0 000373   000000 552110                    STBQ    0,'10'O,PR0
         0 000374   000665 710000 0                  TRA     s:14666

      672    14583    2           CASE( %XSP_PEV_SACIRSP);

      673    14584    2               XSS$ACTIVITY_INTERRUPT = XSS_ACTIVITY_INTERRUPT;

  14584  0 000375   000100 100400                    MLR     fill='000'O
         0 000376   000000 000010 xsym               ADSC9   XSS_ACTIVITY_INTERRUPT   cn=0,n=8
         0 000377   000000 000010                    ADSC9   0,,PR0                   cn=0,n=8

      674    14585    2               XSS$ACTIVITY_INTERRUPT.FNC = %XSS_FNC_SACIRSP#;

  14585  0 000400   013000 236003                    LDQ     5632,DU
         0 000401   000000 552140                    STBQ    0,'40'O,PR0

      675    14586    2               XSS$ACTIVITY_INTERRUPT.REASON = XSP$ACTIVITY_INTERRUPT.REASON;

  14586  0 000402   100001 473500                    LDP3    1,,PR1
         0 000403   300000 236100                    LDQ     0,,PR3
         0 000404   000000 552110                    STBQ    0,'10'O,PR0
         0 000405   000665 710000 0                  TRA     s:14666

      676    14587    2           CASE( %XSP_PEV_SACRREQ);

      677    14588    2               XSS$ACTIVITY_RESUME = XSS_ACTIVITY_RESUME;

  14588  0 000406   000100 100400                    MLR     fill='000'O
         0 000407   000000 000064 xsym               ADSC9   XSS_ACTIVITY_RESUME      cn=0,n=52
         0 000410   000000 000064                    ADSC9   0,,PR0                   cn=0,n=52

      678    14589    2               XSS$ACTIVITY_RESUME.FNC = %XSS_FNC_SACRREQ#;

  14589  0 000411   015000 236003                    LDQ     6656,DU
         0 000412   000000 552140                    STBQ    0,'40'O,PR0
PL6.E3A0      #002=XSP$SSEND File=XSP$ENCODE.:XSA1TSI                            WED 10/01/97 12:03 Page:141

      679    14590    2               XSS$ACTIVITY_RESUME.OSCID = XSP$ACTIVITY_RESUME.OSCID;

  14590  0 000413   100001 473500                    LDP3    1,,PR1
         0 000414   300000 236100                    LDQ     0,,PR3
         0 000415   000000 552110                    STBQ    0,'10'O,PR0

      680    14591    2               XSS$ACTIVITY_RESUME.DATA = VBLK.DATA;

  14591  0 000416   100004 237100                    LDAQ    4,,PR1
         0 000417   000002 757100                    STAQ    2,,PR0

      681    14592    2               XSS$ACTIVITY_RESUME.SERNUM = XSP$ACTIVITY_RESUME.SERNUM;

  14592  0 000420   100001 473500                    LDP3    1,,PR1
         0 000421   300004 235100                    LDA     4,,PR3
         0 000422   000004 755100                    STA     4,,PR0

      682    14593    2               XSS$ACTIVITY_RESUME.ACTID = XSP$ACTIVITY_RESUME.ACTID;

  14593  0 000423   100001 473500                    LDP3    1,,PR1
         0 000424   000100 100500                    MLR     fill='000'O
         0 000425   300010 000007                    ADSC9   8,,PR3                   cn=0,n=7
         0 000426   000010 000007                    ADSC9   8,,PR0                   cn=0,n=7

      683    14594    2               XSS$ACTIVITY_RESUME.OACTID = XSP$ACTIVITY_RESUME.OACTID;

  14594  0 000427   100001 473500                    LDP3    1,,PR1
         0 000430   000100 100500                    MLR     fill='000'O
         0 000431   300012 000007                    ADSC9   10,,PR3                  cn=0,n=7
         0 000432   000012 000007                    ADSC9   10,,PR0                  cn=0,n=7
         0 000433   000665 710000 0                  TRA     s:14666

      684    14595    2           CASE( %XSP_PEV_SACSREQ);

      685    14596    2               XSS$ACTIVITY_START = XSS_ACTIVITY_START;

PL6.E3A0      #002=XSP$SSEND File=XSP$ENCODE.:XSA1TSI                            WED 10/01/97 12:03 Page:142
  14596  0 000434   000100 100400                    MLR     fill='000'O
         0 000435   000000 000030 xsym               ADSC9   XSS_ACTIVITY_START       cn=0,n=24
         0 000436   000000 000030                    ADSC9   0,,PR0                   cn=0,n=24

      686    14597    2               XSS$ACTIVITY_START.FNC = %XSS_FNC_SACSREQ#;

  14597  0 000437   017000 236003                    LDQ     7680,DU
         0 000440   000000 552140                    STBQ    0,'40'O,PR0

      687    14598    2               XSS$ACTIVITY_START.DATA = VBLK.DATA;

  14598  0 000441   100004 237100                    LDAQ    4,,PR1
         0 000442   000002 757100                    STAQ    2,,PR0

      688    14599    2               XSS$ACTIVITY_START.ACTID = XSP$ACTIVITY_START.ACTID;

  14599  0 000443   100001 473500                    LDP3    1,,PR1
         0 000444   000100 100500                    MLR     fill='000'O
         0 000445   300004 000007                    ADSC9   4,,PR3                   cn=0,n=7
         0 000446   000004 000007                    ADSC9   4,,PR0                   cn=0,n=7
         0 000447   000665 710000 0                  TRA     s:14666

      689    14600    2           CASE( %XSP_PEV_SCTGREQ);

      690    14601    2               XSS$CONTROL_GIVE = XSS_CONTROL_GIVE;

  14601  0 000450   000100 100400                    MLR     fill='000'O
         0 000451   000000 000010 xsym               ADSC9   XSS_CONTROL_GIVE         cn=0,n=8
         0 000452   000000 000010                    ADSC9   0,,PR0                   cn=0,n=8

      691    14602    2               XSS$CONTROL_GIVE.FNC = %XSS_FNC_SCTGREQ#;

  14602  0 000453   031000 236003                    LDQ     12800,DU
         0 000454   000000 552140                    STBQ    0,'40'O,PR0
         0 000455   000665 710000 0                  TRA     s:14666

      692    14603    2           CASE( %XSP_PEV_STKGREQ);
PL6.E3A0      #002=XSP$SSEND File=XSP$ENCODE.:XSA1TSI                            WED 10/01/97 12:03 Page:143

      693    14604    2               XSS$TOKEN_GIVE = XSS_TOKEN_GIVE;

  14604  0 000456   000100 100400                    MLR     fill='000'O
         0 000457   000000 000010 xsym               ADSC9   XSS_TOKEN_GIVE           cn=0,n=8
         0 000460   000000 000010                    ADSC9   0,,PR0                   cn=0,n=8

      694    14605    2               XSS$TOKEN_GIVE.FNC = %XSS_FNC_STKGREQ#;

  14605  0 000461   057000 236003                    LDQ     24064,DU
         0 000462   000000 552140                    STBQ    0,'40'O,PR0

      695    14606    2               XSS$TOKEN_GIVE.TOKENS = XSP$TOKEN_GIVE.TOKENS;

  14606  0 000463   100001 473500                    LDP3    1,,PR1
         0 000464   300000 236100                    LDQ     0,,PR3
         0 000465   000000 552104                    STBQ    0,'04'O,PR0
         0 000466   000665 710000 0                  TRA     s:14666

      696    14607    2           CASE( %XSP_PEV_STKPREQ);

      697    14608    2               XSS$TOKEN_PLEASE = XSS_TOKEN_PLEASE;

  14608  0 000467   000100 100400                    MLR     fill='000'O
         0 000470   000000 000020 xsym               ADSC9   XSS_TOKEN_PLEASE         cn=0,n=16
         0 000471   000000 000020                    ADSC9   0,,PR0                   cn=0,n=16

      698    14609    2               XSS$TOKEN_PLEASE.FNC = %XSS_FNC_STKPREQ#;

  14609  0 000472   061000 236003                    LDQ     25088,DU
         0 000473   000000 552140                    STBQ    0,'40'O,PR0

      699    14610    2               XSS$TOKEN_PLEASE.TOKENS = XSP$TOKEN_PLEASE.TOKENS;

  14610  0 000474   100001 473500                    LDP3    1,,PR1
         0 000475   300000 236100                    LDQ     0,,PR3
         0 000476   000000 552104                    STBQ    0,'04'O,PR0
PL6.E3A0      #002=XSP$SSEND File=XSP$ENCODE.:XSA1TSI                            WED 10/01/97 12:03 Page:144

      700    14611    2               XSS$TOKEN_PLEASE.DATA = VBLK.DATA;

  14611  0 000477   100004 237100                    LDAQ    4,,PR1
         0 000500   000002 757100                    STAQ    2,,PR0
         0 000501   000665 710000 0                  TRA     s:14666

      701    14612    2           CASE( %XSP_PEV_SRELREQ);

      702    14613    2               XSS$RELEASE = XSS_RELEASE;

  14613  0 000502   000100 100400                    MLR     fill='000'O
         0 000503   000000 000020 xsym               ADSC9   XSS_RELEASE              cn=0,n=16
         0 000504   000000 000020                    ADSC9   0,,PR0                   cn=0,n=16

      703    14614    2               XSS$RELEASE.FNC = %XSS_FNC_SRELREQ#;

  14614  0 000505   037000 236003                    LDQ     15872,DU
         0 000506   000000 552140                    STBQ    0,'40'O,PR0

      704    14615    2               XSS$RELEASE.DATA = VBLK.DATA;

  14615  0 000507   100004 237100                    LDAQ    4,,PR1
         0 000510   000002 757100                    STAQ    2,,PR0
         0 000511   000665 710000 0                  TRA     s:14666

      705    14616    2           CASE( %XSP_PEV_SRELRSP,

      706    14617    2                 %XSP_PEV_SRELRSN);
      707    14618    2               XSS$RELEASE = XSS_RELEASE;

  14618  0 000512   000100 100400                    MLR     fill='000'O
         0 000513   000000 000020 xsym               ADSC9   XSS_RELEASE              cn=0,n=16
         0 000514   000000 000020                    ADSC9   0,,PR0                   cn=0,n=16

      708    14619    2               XSS$RELEASE.FNC = %XSS_FNC_SRELRSP#;

PL6.E3A0      #002=XSP$SSEND File=XSP$ENCODE.:XSA1TSI                            WED 10/01/97 12:03 Page:145
  14619  0 000515   041000 236003                    LDQ     16896,DU
         0 000516   000000 552140                    STBQ    0,'40'O,PR0

      709    14620    2               XSS$RELEASE.RESULT = XSP$RELEASE.RESULT;

  14620  0 000517   100001 473500                    LDP3    1,,PR1
         0 000520   300000 236100                    LDQ     0,,PR3
         0 000521   000000 552104                    STBQ    0,'04'O,PR0

      710    14621    2               XSS$RELEASE.DATA = VBLK.DATA;

  14621  0 000522   100004 237100                    LDAQ    4,,PR1
         0 000523   000002 757100                    STAQ    2,,PR0
         0 000524   000665 710000 0                  TRA     s:14666

      711    14622    2           CASE( %XSP_PEV_SRSXREQ);

      712    14623    2               XSS$RESYNCHRONIZE = XSS_RESYNCHRONIZE;

  14623  0 000525   000100 100400                    MLR     fill='000'O
         0 000526   000000 000024 xsym               ADSC9   XSS_RESYNCHRONIZE        cn=0,n=20
         0 000527   000000 000024                    ADSC9   0,,PR0                   cn=0,n=20

      713    14624    2               XSS$RESYNCHRONIZE.FNC = %XSS_FNC_SRSXREQ#;

  14624  0 000530   043000 236003                    LDQ     17920,DU
         0 000531   000000 552140                    STBQ    0,'40'O,PR0

      714    14625    2               XSS$RESYNCHRONIZE.TYPE = XSP$RESYNCHRONIZE.TYPE;

  14625  0 000532   100001 473500                    LDP3    1,,PR1
         0 000533   300000 236100                    LDQ     0,,PR3
         0 000534   000000 552110                    STBQ    0,'10'O,PR0

      715    14626    2               XSS$RESYNCHRONIZE.TOKENS = XSP$RESYNCHRONIZE.TOKENS;

  14626  0 000535   100001 473500                    LDP3    1,,PR1
PL6.E3A0      #002=XSP$SSEND File=XSP$ENCODE.:XSA1TSI                            WED 10/01/97 12:03 Page:146
         0 000536   300000 236100                    LDQ     0,,PR3
         0 000537   000000 552104                    STBQ    0,'04'O,PR0

      716    14627    2               XSS$RESYNCHRONIZE.DATA = VBLK.DATA;

  14627  0 000540   100004 237100                    LDAQ    4,,PR1
         0 000541   000002 757100                    STAQ    2,,PR0

      717    14628    2               XSS$RESYNCHRONIZE.SERNUM = XSP$RESYNCHRONIZE.SERNUM;

  14628  0 000542   100001 473500                    LDP3    1,,PR1
         0 000543   300004 235100                    LDA     4,,PR3
         0 000544   000004 755100                    STA     4,,PR0
         0 000545   000665 710000 0                  TRA     s:14666

      718    14629    2           CASE( %XSP_PEV_SRSXRSP);

      719    14630    2               XSS$RESYNCHRONIZE = XSS_RESYNCHRONIZE;

  14630  0 000546   000100 100400                    MLR     fill='000'O
         0 000547   000000 000024 xsym               ADSC9   XSS_RESYNCHRONIZE        cn=0,n=20
         0 000550   000000 000024                    ADSC9   0,,PR0                   cn=0,n=20

      720    14631    2               XSS$RESYNCHRONIZE.FNC = %XSS_FNC_SRSXRSP#;

  14631  0 000551   045000 236003                    LDQ     18944,DU
         0 000552   000000 552140                    STBQ    0,'40'O,PR0

      721    14632    2               XSS$RESYNCHRONIZE.TYPE = XSP$RESYNCHRONIZE.TYPE;

  14632  0 000553   100001 473500                    LDP3    1,,PR1
         0 000554   300000 236100                    LDQ     0,,PR3
         0 000555   000000 552110                    STBQ    0,'10'O,PR0

      722    14633    2               XSS$RESYNCHRONIZE.TOKENS = XSP$RESYNCHRONIZE.TOKENS;

  14633  0 000556   100001 473500                    LDP3    1,,PR1
PL6.E3A0      #002=XSP$SSEND File=XSP$ENCODE.:XSA1TSI                            WED 10/01/97 12:03 Page:147
         0 000557   300000 236100                    LDQ     0,,PR3
         0 000560   000000 552104                    STBQ    0,'04'O,PR0

      723    14634    2               XSS$RESYNCHRONIZE.DATA = VBLK.DATA;

  14634  0 000561   100004 237100                    LDAQ    4,,PR1
         0 000562   000002 757100                    STAQ    2,,PR0

      724    14635    2               XSS$RESYNCHRONIZE.SERNUM = XSP$RESYNCHRONIZE.SERNUM;

  14635  0 000563   100001 473500                    LDP3    1,,PR1
         0 000564   300004 235100                    LDA     4,,PR3
         0 000565   000004 755100                    STA     4,,PR0
         0 000566   000665 710000 0                  TRA     s:14666

      725    14636    2           CASE( %XSP_PEV_SSMAREQ);

      726    14637    2               XSS$SYNC_MAJOR = XSS_SYNC_MAJOR;

  14637  0 000567   000100 100400                    MLR     fill='000'O
         0 000570   000000 000024 xsym               ADSC9   XSS_SYNC_MAJOR           cn=0,n=20
         0 000571   000000 000024                    ADSC9   0,,PR0                   cn=0,n=20

      727    14638    2               XSS$SYNC_MAJOR.FNC = %XSS_FNC_SSMAREQ#;

  14638  0 000572   047000 236003                    LDQ     19968,DU
         0 000573   000000 552140                    STBQ    0,'40'O,PR0

      728    14639    2               XSS$SYNC_MAJOR.DATA = VBLK.DATA;

  14639  0 000574   100004 237100                    LDAQ    4,,PR1
         0 000575   000002 757100                    STAQ    2,,PR0

      729    14640    2               XSS$SYNC_MAJOR.SERNUM = XSP$SYNC_MAJOR.SERNUM;

  14640  0 000576   100001 473500                    LDP3    1,,PR1
         0 000577   300004 235100                    LDA     4,,PR3
PL6.E3A0      #002=XSP$SSEND File=XSP$ENCODE.:XSA1TSI                            WED 10/01/97 12:03 Page:148
         0 000600   000004 755100                    STA     4,,PR0
         0 000601   000665 710000 0                  TRA     s:14666

      730    14641    2           CASE( %XSP_PEV_SSMARSP);

      731    14642    2               XSS$SYNC_MAJOR = XSS_SYNC_MAJOR;

  14642  0 000602   000100 100400                    MLR     fill='000'O
         0 000603   000000 000024 xsym               ADSC9   XSS_SYNC_MAJOR           cn=0,n=20
         0 000604   000000 000024                    ADSC9   0,,PR0                   cn=0,n=20

      732    14643    2               XSS$SYNC_MAJOR.FNC = %XSS_FNC_SSMARSP#;

  14643  0 000605   051000 236003                    LDQ     20992,DU
         0 000606   000000 552140                    STBQ    0,'40'O,PR0

      733    14644    2               XSS$SYNC_MAJOR.DATA = VBLK.DATA;

  14644  0 000607   100004 237100                    LDAQ    4,,PR1
         0 000610   000002 757100                    STAQ    2,,PR0

      734    14645    2               XSS$SYNC_MAJOR.SERNUM = XSP$SYNC_MAJOR.SERNUM;

  14645  0 000611   100001 473500                    LDP3    1,,PR1
         0 000612   300004 235100                    LDA     4,,PR3
         0 000613   000004 755100                    STA     4,,PR0
         0 000614   000665 710000 0                  TRA     s:14666

      735    14646    2           CASE( %XSP_PEV_SSMIREQ);

      736    14647    2               XSS$SYNC_MINOR = XSS_SYNC_MINOR;

  14647  0 000615   000100 100400                    MLR     fill='000'O
         0 000616   000000 000024 xsym               ADSC9   XSS_SYNC_MINOR           cn=0,n=20
         0 000617   000000 000024                    ADSC9   0,,PR0                   cn=0,n=20

      737    14648    2               XSS$SYNC_MINOR.FNC = %XSS_FNC_SSMIRSP#;
PL6.E3A0      #002=XSP$SSEND File=XSP$ENCODE.:XSA1TSI                            WED 10/01/97 12:03 Page:149

  14648  0 000620   055000 236003                    LDQ     23040,DU
         0 000621   000000 552140                    STBQ    0,'40'O,PR0

      738    14649    2               XSS$SYNC_MINOR.TYPE = XSP$SYNC_MINOR.TYPE;

  14649  0 000622   100001 473500                    LDP3    1,,PR1
         0 000623   300000 236100                    LDQ     0,,PR3
         0 000624   000000 552110                    STBQ    0,'10'O,PR0

      739    14650    2               XSS$SYNC_MINOR.DATA = VBLK.DATA;

  14650  0 000625   100004 237100                    LDAQ    4,,PR1
         0 000626   000002 757100                    STAQ    2,,PR0

      740    14651    2               XSS$SYNC_MINOR.SERNUM = XSP$SYNC_MINOR.SERNUM;

  14651  0 000627   100001 473500                    LDP3    1,,PR1
         0 000630   300004 235100                    LDA     4,,PR3
         0 000631   000004 755100                    STA     4,,PR0
         0 000632   000665 710000 0                  TRA     s:14666

      741    14652    2           CASE( %XSP_PEV_SSMIRSP);

      742    14653    2               XSS$SYNC_MINOR = XSS_SYNC_MINOR;

  14653  0 000633   000100 100400                    MLR     fill='000'O
         0 000634   000000 000024 xsym               ADSC9   XSS_SYNC_MINOR           cn=0,n=20
         0 000635   000000 000024                    ADSC9   0,,PR0                   cn=0,n=20

      743    14654    2               XSS$SYNC_MINOR.FNC = %XSS_FNC_SSMIRSP#;

  14654  0 000636   055000 236003                    LDQ     23040,DU
         0 000637   000000 552140                    STBQ    0,'40'O,PR0

      744    14655    2               XSS$SYNC_MINOR.TYPE = XSP$SYNC_MINOR.TYPE;

PL6.E3A0      #002=XSP$SSEND File=XSP$ENCODE.:XSA1TSI                            WED 10/01/97 12:03 Page:150
  14655  0 000640   100001 473500                    LDP3    1,,PR1
         0 000641   300000 236100                    LDQ     0,,PR3
         0 000642   000000 552110                    STBQ    0,'10'O,PR0

      745    14656    2               XSS$SYNC_MINOR.DATA = VBLK.DATA;

  14656  0 000643   100004 237100                    LDAQ    4,,PR1
         0 000644   000002 757100                    STAQ    2,,PR0

      746    14657    2               XSS$SYNC_MINOR.SERNUM = XSP$SYNC_MINOR.SERNUM;

  14657  0 000645   100001 473500                    LDP3    1,,PR1
         0 000646   300004 235100                    LDA     4,,PR3
         0 000647   000004 755100                    STA     4,,PR0
         0 000650   000665 710000 0                  TRA     s:14666

      747    14658    2           CASE( %XSP_PEV_SUERREQ);

      748    14659    2               XSS$U_EXCEPTION_REPORT = XSS_U_EXCEPTION_REPORT;

  14659  0 000651   000100 100400                    MLR     fill='000'O
         0 000652   000000 000020 xsym               ADSC9   XSS_U_EXCEPTION_REPORT   cn=0,n=16
         0 000653   000000 000020                    ADSC9   0,,PR0                   cn=0,n=16

      749    14660    2               XSS$U_EXCEPTION_REPORT.FNC = %XSS_FNC_SUERREQ#;

  14660  0 000654   067000 236003                    LDQ     28160,DU
         0 000655   000000 552140                    STBQ    0,'40'O,PR0

      750    14661    2               XSS$U_EXCEPTION_REPORT.REASON = XSP$U_EXCEPTION_REPORT.REASON;

  14661  0 000656   100001 473500                    LDP3    1,,PR1
         0 000657   300000 236100                    LDQ     0,,PR3
         0 000660   000000 552110                    STBQ    0,'10'O,PR0

      751    14662    2               XSS$U_EXCEPTION_REPORT.DATA = VBLK.DATA;

PL6.E3A0      #002=XSP$SSEND File=XSP$ENCODE.:XSA1TSI                            WED 10/01/97 12:03 Page:151
  14662  0 000661   100004 237100                    LDAQ    4,,PR1
         0 000662   000002 757100                    STAQ    2,,PR0
         0 000663   000665 710000 0                  TRA     s:14666

      752    14663    2           CASE( ELSE);

      753    14664    2               ALTRETURN;

  14664  0 000664   000000 702200 xent               TSX2  ! X66_AALT

      754    14665    2           END;

      755    14666    1       XSS$GENERIC.SCID = XSP$GENERIC.PCID;

  14666  0 000665   100001 473500                    LDP3    1,,PR1
         0 000666   300000 236100                    LDQ     0,,PR3
         0 000667   000000 552120                    STBQ    0,'20'O,PR0

      756    14667            /* ..and send it on its way */
      757    14668    1       CALL XSS$SESSION( XSS$GENERIC)

  14668  0 000670   200022 630500                    EPPR0   SFPT$,,AUTO
         0 000671   000000 631400 1                  EPPR1   0
         0 000672   000000 701000 xent               TSX1    XSS$SESSION
         0 000673   000675 702000 0                  TSX2    s:14670
         0 000674   000703 710000 0                  TRA     s:14673

      758    14669    2       WHENALTRETURN DO;

      759    14670    2           XSP$GENERIC.ERROR = XSS$GENERIC.ERROR;

  14670  0 000675   200003 470500                    LDP0    @VBLK,,AUTO
         0 000676   000001 471500                    LDP1    1,,PR0
         0 000677   200022 473500                    LDP3    SFPT$,,AUTO
         0 000700   300001 236100                    LDQ     1,,PR3
         0 000701   100001 756100                    STQ     1,,PR1

PL6.E3A0      #002=XSP$SSEND File=XSP$ENCODE.:XSA1TSI                            WED 10/01/97 12:03 Page:152
      760    14671    2           ALTRETURN;

  14671  0 000702   000000 702200 xent               TSX2  ! X66_AALT

      761    14672    2           END;
      762    14673    1       RETURN;

  14673  0 000703   000000 702200 xent               TSX2  ! X66_ARET

(unnamed)
 Sect OctLoc
   1     000   000001 000000                                                    ....
      763    14674
      764    14675    1       END XSP$SSEND;

PL6.E3A0      #002=XSP$SSEND File=XSP$ENCODE.:XSA1TSI                            WED 10/01/97 12:03 Page:153
--  Include file information  --

   XSP_INTERNAL_M.:XSA1TOU  is referenced.
   XSP_INTERNAL_E.:XSA1TOU  is referenced.
   XSP_PRESENTATION_M.:XSA1TOU  is referenced.
   XSP_PRESENTATION_E.:XSA1TOU  is referenced.
   XSS_SESSION_M.:XSA1TOU  is referenced.
   XSS_SESSION_E.:XSA1TOU  is referenced.
      No diagnostics issued in procedure XSP$SSEND.
PL6.E3A0      #002=XSP$SSEND File=XSP$ENCODE.:XSA1TSI                            WED 10/01/97 12:03 Page:154

 **** Variables and constants ****

  ****  Auto variables  ****

  ****  Scalars and arrays  ****
OctLoc.c.b A Datatyp(siz) R M Lvl/name                 OctLoc.c.b A Datatyp(siz) R M Lvl/name

     3-0-0/w PTR         r     1 @VBLK                      4-0-0/d STRC(504)   r     1 SFPT
    22-0-0/w PTR         r     1 SFPT$                     *0-0-0/d STRC(396)   r     1 VBLK

  ****  SYMREF variables  ****

  ****  Scalars and arrays  ****
OctLoc.c.b A Datatyp(siz) R M Lvl/name                 OctLoc.c.b A Datatyp(siz) R M Lvl/name

     0-0-0/w STRC(72)    r     1 XSS_ACTIVITY_DISCARD       0-0-0/d STRC(180)   r     1 XSS_ACTIVITY_END
     0-0-0/w STRC(72)    r     1 XSS_ACTIVITY_INTERRUPT
     0-0-0/d STRC(468)   r     1 XSS_ACTIVITY_RESUME        0-0-0/d STRC(216)   r     1 XSS_ACTIVITY_START
     0-0-0/d STRC(144)   r     1 XSS_CAPABILITY_DATA        0-0-0/d STRC(396)   r     1 XSS_CONNECT
     0-0-0/w STRC(72)    r     1 XSS_CONTROL_GIVE           0-0-0/d STRC(144)   r     1 XSS_DATA
     0-0-0/d STRC(144)   r     1 XSS_EXPEDITED_DATA         0-0-0/d STRC(144)   r     1 XSS_RELEASE
     0-0-0/d STRC(180)   r     1 XSS_RESYNCHRONIZE          0-0-0/d STRC(180)   r     1 XSS_SYNC_MAJOR
     0-0-0/d STRC(180)   r     1 XSS_SYNC_MINOR             0-0-0/w STRC(72)    r     1 XSS_TOKEN_GIVE
     0-0-0/d STRC(144)   r     1 XSS_TOKEN_PLEASE           0-0-0/d STRC(144)   r     1 XSS_TYPED_DATA
     0-0-0/d STRC(144)   r     1 XSS_U_ABORT
     0-0-0/d STRC(144)   r     1 XSS_U_EXCEPTION_REPORT

  ****  BASED and DCB variables  ****

  ****  Scalars and arrays  ****
OctLoc.c.b A Datatyp(siz) R M Lvl/name                 OctLoc.c.b A Datatyp(siz) R M Lvl/name

     0-0-0/w STRC(72)    r     1 XSP$ACTIVITY_DISCARD       0-0-0/w STRC(180)   r     1 XSP$ACTIVITY_END
     0-0-0/w STRC(72)    r     1 XSP$ACTIVITY_INTERRUPT
     0-0-0/w STRC(468)   r     1 XSP$ACTIVITY_RESUME        0-0-0/w STRC(216)   r     1 XSP$ACTIVITY_START
     0-0-0/w STRC(398)   r     1 XSP$CONNECT                0-0-0/w STRC(504)   r     1 XSP$GENERIC
     0-0-0/w STRC(108)   r     1 XSP$RELEASE                0-0-0/w STRC(216)   r     1 XSP$RESYNCHRONIZE
PL6.E3A0      #002=XSP$SSEND File=XSP$ENCODE.:XSA1TSI                            WED 10/01/97 12:03 Page:155
     0-0-0/w STRC(180)   r     1 XSP$SYNC_MAJOR             0-0-0/w STRC(180)   r     1 XSP$SYNC_MINOR
     0-0-0/w STRC(72)    r     1 XSP$TOKEN_GIVE             0-0-0/w STRC(108)   r     1 XSP$TOKEN_PLEASE
     0-0-0/w STRC(108)   r     1 XSP$U_EXCEPTION_REPORT
     0-0-0/w STRC(72)    r     1 XSS$ACTIVITY_DISCARD       0-0-0/d STRC(180)   r     1 XSS$ACTIVITY_END
     0-0-0/w STRC(72)    r     1 XSS$ACTIVITY_INTERRUPT
     0-0-0/d STRC(468)   r     1 XSS$ACTIVITY_RESUME        0-0-0/d STRC(216)   r     1 XSS$ACTIVITY_START
     0-0-0/d STRC(144)   r     1 XSS$CAPABILITY_DATA        0-0-0/d STRC(396)   r     1 XSS$CONNECT
     0-0-0/w STRC(72)    r     1 XSS$CONTROL_GIVE           0-0-0/d STRC(144)   r     1 XSS$DATA
     0-0-0/d STRC(144)   r     1 XSS$EXPEDITED_DATA         0-0-0/d STRC(504)   r     1 XSS$GENERIC
     0-0-0/d STRC(144)   r     1 XSS$RELEASE                0-0-0/d STRC(180)   r     1 XSS$RESYNCHRONIZE
     0-0-0/d STRC(180)   r     1 XSS$SYNC_MAJOR             0-0-0/d STRC(180)   r     1 XSS$SYNC_MINOR
     0-0-0/w STRC(72)    r     1 XSS$TOKEN_GIVE             0-0-0/d STRC(144)   r     1 XSS$TOKEN_PLEASE
     0-0-0/d STRC(144)   r     1 XSS$TYPED_DATA             0-0-0/d STRC(144)   r     1 XSS$U_ABORT
     0-0-0/d STRC(144)   r     1 XSS$U_EXCEPTION_REPORT


   Procedure XSP$SSEND requires 452 words for executable code.
   Procedure XSP$SSEND requires 20 words of local(AUTO) storage.

    No errors detected in file XSP$ENCODE.:XSA1TSI    .
PL6.E3A0      #002=XSP$SSEND File=XSP$ENCODE.:XSA1TSI                            WED 10/01/97 12:03 Page:156
          *** CROSS REFERENCE LISTING ***
**     DENOTES     IDENTIFIER DEFINITION
<<                 IDENTIFIER'S VALUE SET
>>                 IDENTIFIER'S VALUE USED
<>                 IDENTIFIER SET AND/OR USED
--                 IDENTIFIER REFERENCED
PL6.E3A0      #002=XSP$SSEND File=XSP$ENCODE.:XSA1TSI                            WED 10/01/97 12:03 Page:157
          MINI XREF LISTING

SFPT
      3238**DCL     14495--ASSIGN
SFPT.ERRDEF
      3292**DCL      3312--REDEF
SFPT$
     14493**DCL      3385--IMP-PTR  3531--IMP-PTR  3629--IMP-PTR  3780--IMP-PTR  3878--IMP-PTR  4104--IMP-PTR
      4267--IMP-PTR  4413--IMP-PTR  4736--IMP-PTR  4860--IMP-PTR  5004--IMP-PTR  5148--IMP-PTR  5234--IMP-PTR
      5320--IMP-PTR  5472--IMP-PTR  5685--IMP-PTR  5844--IMP-PTR  6003--IMP-PTR  6133--IMP-PTR  6325--IMP-PTR
      6469--IMP-PTR  6613--IMP-PTR 14495<<ASSIGN  14501>>ASSIGN  14502>>ASSIGN  14503>>ASSIGN  14506>>ASSIGN
     14507>>ASSIGN  14508>>ASSIGN  14510>>ASSIGN  14511>>ASSIGN  14512>>ASSIGN  14513>>ASSIGN  14514>>ASSIGN
     14515>>ASSIGN  14516>>ASSIGN  14517>>ASSIGN  14518>>ASSIGN  14521>>ASSIGN  14522>>ASSIGN  14523>>ASSIGN
     14524>>ASSIGN  14525>>ASSIGN  14526>>ASSIGN  14527>>ASSIGN  14528>>ASSIGN  14529>>ASSIGN  14530>>ASSIGN
     14532>>ASSIGN  14533>>ASSIGN  14534>>ASSIGN  14535>>ASSIGN  14536>>ASSIGN  14537>>ASSIGN  14539>>ASSIGN
     14540>>ASSIGN  14541>>ASSIGN  14542>>ASSIGN  14543>>ASSIGN  14544>>ASSIGN  14546>>ASSIGN  14547>>ASSIGN
     14548>>ASSIGN  14550>>ASSIGN  14551>>ASSIGN  14552>>ASSIGN  14554>>ASSIGN  14555>>ASSIGN  14556>>ASSIGN
     14558>>ASSIGN  14559>>ASSIGN  14560>>ASSIGN  14562>>ASSIGN  14563>>ASSIGN  14564>>ASSIGN  14566>>ASSIGN
     14567>>ASSIGN  14568>>ASSIGN  14570>>ASSIGN  14571>>ASSIGN  14572>>ASSIGN  14573>>ASSIGN  14575>>ASSIGN
     14576>>ASSIGN  14577>>ASSIGN  14578>>ASSIGN  14580>>ASSIGN  14581>>ASSIGN  14582>>ASSIGN  14584>>ASSIGN
     14585>>ASSIGN  14586>>ASSIGN  14588>>ASSIGN  14589>>ASSIGN  14590>>ASSIGN  14591>>ASSIGN  14592>>ASSIGN
     14593>>ASSIGN  14594>>ASSIGN  14596>>ASSIGN  14597>>ASSIGN  14598>>ASSIGN  14599>>ASSIGN  14601>>ASSIGN
     14602>>ASSIGN  14604>>ASSIGN  14605>>ASSIGN  14606>>ASSIGN  14608>>ASSIGN  14609>>ASSIGN  14610>>ASSIGN
     14611>>ASSIGN  14613>>ASSIGN  14614>>ASSIGN  14615>>ASSIGN  14618>>ASSIGN  14619>>ASSIGN  14620>>ASSIGN
     14621>>ASSIGN  14623>>ASSIGN  14624>>ASSIGN  14625>>ASSIGN  14626>>ASSIGN  14627>>ASSIGN  14628>>ASSIGN
     14630>>ASSIGN  14631>>ASSIGN  14632>>ASSIGN  14633>>ASSIGN  14634>>ASSIGN  14635>>ASSIGN  14637>>ASSIGN
     14638>>ASSIGN  14639>>ASSIGN  14640>>ASSIGN  14642>>ASSIGN  14643>>ASSIGN  14644>>ASSIGN  14645>>ASSIGN
     14647>>ASSIGN  14648>>ASSIGN  14649>>ASSIGN  14650>>ASSIGN  14651>>ASSIGN  14653>>ASSIGN  14654>>ASSIGN
     14655>>ASSIGN  14656>>ASSIGN  14657>>ASSIGN  14659>>ASSIGN  14660>>ASSIGN  14661>>ASSIGN  14662>>ASSIGN
     14666>>ASSIGN  14668>>CALL    14670>>ASSIGN
VBLK
     14361**DCL        12--PROC
VBLK.DATA
     14435**DCL     14503>>ASSIGN  14508>>ASSIGN  14512>>ASSIGN  14524>>ASSIGN  14536>>ASSIGN  14543>>ASSIGN
PL6.E3A0      #002=XSP$SSEND File=XSP$ENCODE.:XSA1TSI                            WED 10/01/97 12:03 Page:158
     14548>>ASSIGN  14552>>ASSIGN  14556>>ASSIGN  14560>>ASSIGN  14572>>ASSIGN  14577>>ASSIGN  14591>>ASSIGN
     14598>>ASSIGN  14611>>ASSIGN  14615>>ASSIGN  14621>>ASSIGN  14627>>ASSIGN  14634>>ASSIGN  14639>>ASSIGN
     14644>>ASSIGN  14650>>ASSIGN  14656>>ASSIGN  14662>>ASSIGN
VBLK.DATMASK
     14477**DCL     14480--REDEF
VBLK.DEFMASK
     14461**DCL     14464--REDEF
VBLK.DELMASK
     14469**DCL     14472--REDEF
VBLK.EVENT
     14456**DCL     14497>>DOCASE
VBLK.FPT$
     14375**DCL     11728--IMP-PTR 11824--IMP-PTR 11882--IMP-PTR 11947--IMP-PTR 12005--IMP-PTR 12096--IMP-PTR
     12171--IMP-PTR 12232--IMP-PTR 12290--IMP-PTR 12435--IMP-PTR 12529--IMP-PTR 12587--IMP-PTR 12645--IMP-PTR
     12703--IMP-PTR 12761--IMP-PTR 12820--IMP-PTR 12925--IMP-PTR 12991--IMP-PTR 13057--IMP-PTR 13153--IMP-PTR
     13250--IMP-PTR 13308--IMP-PTR 13366--IMP-PTR 14513>>ASSIGN  14514>>ASSIGN  14515>>ASSIGN  14516>>ASSIGN
     14517>>ASSIGN  14518>>ASSIGN  14523>>ASSIGN  14525>>ASSIGN  14526>>ASSIGN  14527>>ASSIGN  14528>>ASSIGN
     14529>>ASSIGN  14530>>ASSIGN  14534>>ASSIGN  14535>>ASSIGN  14537>>ASSIGN  14541>>ASSIGN  14542>>ASSIGN
     14544>>ASSIGN  14564>>ASSIGN  14568>>ASSIGN  14573>>ASSIGN  14578>>ASSIGN  14582>>ASSIGN  14586>>ASSIGN
     14590>>ASSIGN  14592>>ASSIGN  14593>>ASSIGN  14594>>ASSIGN  14599>>ASSIGN  14606>>ASSIGN  14610>>ASSIGN
     14620>>ASSIGN  14625>>ASSIGN  14626>>ASSIGN  14628>>ASSIGN  14632>>ASSIGN  14633>>ASSIGN  14635>>ASSIGN
     14640>>ASSIGN  14645>>ASSIGN  14649>>ASSIGN  14651>>ASSIGN  14655>>ASSIGN  14657>>ASSIGN  14661>>ASSIGN
     14666>>ASSIGN  14670>>ASSIGN
VBLK.SPIMASK
     14485**DCL     14488--REDEF
XSP$ACTIVITY_DISCARD.ERRDEF
     11834**DCL     11854--REDEF
XSP$ACTIVITY_DISCARD.REASON
     11832**DCL     14564>>ASSIGN  14568>>ASSIGN
XSP$ACTIVITY_END.ERRDEF
     11896**DCL     11916--REDEF
XSP$ACTIVITY_END.SERNUM
     11928**DCL     14573>>ASSIGN  14578>>ASSIGN
XSP$ACTIVITY_INTERRUPT.ERRDEF
     11957**DCL     11977--REDEF
XSP$ACTIVITY_INTERRUPT.REASON
PL6.E3A0      #002=XSP$SSEND File=XSP$ENCODE.:XSA1TSI                            WED 10/01/97 12:03 Page:159
     11955**DCL     14582>>ASSIGN  14586>>ASSIGN
XSP$ACTIVITY_RESUME.ACTID
     12064**DCL     14593>>ASSIGN
XSP$ACTIVITY_RESUME.ERRDEF
     12021**DCL     12041--REDEF
XSP$ACTIVITY_RESUME.OACTID
     12074**DCL     14594>>ASSIGN
XSP$ACTIVITY_RESUME.OSCID
     12019**DCL     14590>>ASSIGN
XSP$ACTIVITY_RESUME.SERNUM
     12053**DCL     14592>>ASSIGN
XSP$ACTIVITY_START.ACTID
     12150**DCL     14599>>ASSIGN
XSP$ACTIVITY_START.ERRDEF
     12111**DCL     12131--REDEF
XSP$ALTER_CONTEXT.ERRDEF
     12180**DCL     12200--REDEF
XSP$CAPABILITY_DATA.ERRDEF
     12241**DCL     12261--REDEF
XSP$CONNECT.CALLED$
     12385**DCL     12386--REDEF   14515>>ASSIGN
XSP$CONNECT.CALLING$
     12379**DCL     14514>>ASSIGN  14526>>ASSIGN
XSP$CONNECT.DFLT$
     12375**DCL     12376--REDEF
XSP$CONNECT.ERRDEF
     12344**DCL     12364--REDEF
XSP$CONNECT.ITOKENS
     12387**DCL     14516>>ASSIGN  14528>>ASSIGN
XSP$CONNECT.QOS
     12412**DCL     14518>>ASSIGN  14530>>ASSIGN
XSP$CONNECT.RESPONDING$
     12386**DCL     14527>>ASSIGN
XSP$CONNECT.RESULT
     12395**DCL     14523>>ASSIGN
XSP$CONNECT.SERNUM
PL6.E3A0      #002=XSP$SSEND File=XSP$ENCODE.:XSA1TSI                            WED 10/01/97 12:03 Page:160
     12377**DCL     14513>>ASSIGN  14525>>ASSIGN
XSP$CONNECT.SFU
     12396**DCL     14517>>ASSIGN  14529>>ASSIGN
XSP$CONTROL_GIVE.ERRDEF
     12481**DCL     12501--REDEF
XSP$DATA.ERRDEF
     12538**DCL     12558--REDEF
XSP$EXPEDITED_DATA.ERRDEF
     12596**DCL     12616--REDEF
XSP$GENERIC.ERRDEF
     11774**DCL     11794--REDEF
XSP$GENERIC.ERROR
     11794**DCL     14670<<ASSIGN
XSP$GENERIC.PCID
     11735**DCL     14666>>ASSIGN
XSP$P_ABORT.ERRDEF
     12655**DCL     12675--REDEF
XSP$P_EXCEPTION_REPORT.ERRDEF
     12713**DCL     12733--REDEF
XSP$RELEASE.ERRDEF
     12771**DCL     12791--REDEF
XSP$RELEASE.RESULT
     12770**DCL     14620>>ASSIGN
XSP$RESYNCHRONIZE.ERRDEF
     12873**DCL     12893--REDEF
XSP$RESYNCHRONIZE.SERNUM
     12905**DCL     14537>>ASSIGN  14544>>ASSIGN  14628>>ASSIGN  14635>>ASSIGN
XSP$RESYNCHRONIZE.TOKENS
     12855**DCL     14535>>ASSIGN  14542>>ASSIGN  14626>>ASSIGN  14633>>ASSIGN
XSP$RESYNCHRONIZE.TYPE
     12834**DCL     14534>>ASSIGN  14541>>ASSIGN  14625>>ASSIGN  14632>>ASSIGN
XSP$SYNC_MAJOR.ERRDEF
     12940**DCL     12960--REDEF
XSP$SYNC_MAJOR.SERNUM
     12972**DCL     14640>>ASSIGN  14645>>ASSIGN
XSP$SYNC_MINOR.ERRDEF
PL6.E3A0      #002=XSP$SSEND File=XSP$ENCODE.:XSA1TSI                            WED 10/01/97 12:03 Page:161
     13006**DCL     13026--REDEF
XSP$SYNC_MINOR.SERNUM
     13038**DCL     14651>>ASSIGN  14657>>ASSIGN
XSP$SYNC_MINOR.TYPE
     13004**DCL     14649>>ASSIGN  14655>>ASSIGN
XSP$TOKEN_GIVE.ERRDEF
     13105**DCL     13125--REDEF
XSP$TOKEN_GIVE.TOKENS
     13087**DCL     14606>>ASSIGN
XSP$TOKEN_PLEASE.ERRDEF
     13201**DCL     13221--REDEF
XSP$TOKEN_PLEASE.TOKENS
     13183**DCL     14610>>ASSIGN
XSP$TYPED_DATA.ERRDEF
     13259**DCL     13279--REDEF
XSP$U_ABORT.ERRDEF
     13317**DCL     13337--REDEF
XSP$U_EXCEPTION_REPORT.ERRDEF
     13376**DCL     13396--REDEF
XSP$U_EXCEPTION_REPORT.REASON
     13374**DCL     14661>>ASSIGN
XSS$ACTIVITY_DISCARD
      3531**DCL     14562<<ASSIGN  14566<<ASSIGN
XSS$ACTIVITY_DISCARD.ERRDEF
      3575**DCL      3601--REDEF
XSS$ACTIVITY_DISCARD.FNC
      3554**DCL     14563<<ASSIGN  14567<<ASSIGN
XSS$ACTIVITY_DISCARD.REASON
      3573**DCL     14564<<ASSIGN  14568<<ASSIGN
XSS$ACTIVITY_END
      3629**DCL     14570<<ASSIGN  14575<<ASSIGN
XSS$ACTIVITY_END.DATA
      3728**DCL     14572<<ASSIGN  14577<<ASSIGN
XSS$ACTIVITY_END.ERRDEF
      3665**DCL      3685--REDEF
XSS$ACTIVITY_END.FNC
PL6.E3A0      #002=XSP$SSEND File=XSP$ENCODE.:XSA1TSI                            WED 10/01/97 12:03 Page:162
      3652**DCL     14571<<ASSIGN  14576<<ASSIGN
XSS$ACTIVITY_END.SERNUM
      3761**DCL     14573<<ASSIGN  14578<<ASSIGN
XSS$ACTIVITY_INTERRUPT
      3780**DCL     14580<<ASSIGN  14584<<ASSIGN
XSS$ACTIVITY_INTERRUPT.ERRDEF
      3830**DCL      3850--REDEF
XSS$ACTIVITY_INTERRUPT.FNC
      3803**DCL     14581<<ASSIGN  14585<<ASSIGN
XSS$ACTIVITY_INTERRUPT.REASON
      3822**DCL     14582<<ASSIGN  14586<<ASSIGN
XSS$ACTIVITY_RESUME
      3878**DCL     14588<<ASSIGN
XSS$ACTIVITY_RESUME.ACTID
      4067**DCL     14593<<ASSIGN
XSS$ACTIVITY_RESUME.DATA
      3980**DCL     14591<<ASSIGN
XSS$ACTIVITY_RESUME.ERRDEF
      3917**DCL      3937--REDEF
XSS$ACTIVITY_RESUME.FNC
      3899**DCL     14589<<ASSIGN
XSS$ACTIVITY_RESUME.OACTID
      4077**DCL     14594<<ASSIGN
XSS$ACTIVITY_RESUME.OSCID
      3909**DCL     14590<<ASSIGN
XSS$ACTIVITY_RESUME.SERNUM
      4013**DCL     14592<<ASSIGN
XSS$ACTIVITY_START
      4104**DCL     14596<<ASSIGN
XSS$ACTIVITY_START.ACTID
      4246**DCL     14599<<ASSIGN
XSS$ACTIVITY_START.DATA
      4201**DCL     14598<<ASSIGN
XSS$ACTIVITY_START.ERRDEF
      4138**DCL      4158--REDEF
XSS$ACTIVITY_START.FNC
PL6.E3A0      #002=XSP$SSEND File=XSP$ENCODE.:XSA1TSI                            WED 10/01/97 12:03 Page:163
      4125**DCL     14597<<ASSIGN
XSS$CAPABILITY_DATA
      4267**DCL     14546<<ASSIGN  14550<<ASSIGN
XSS$CAPABILITY_DATA.DATA
      4366**DCL     14548<<ASSIGN  14552<<ASSIGN
XSS$CAPABILITY_DATA.ERRDEF
      4303**DCL      4323--REDEF
XSS$CAPABILITY_DATA.FNC
      4290**DCL     14547<<ASSIGN  14551<<ASSIGN
XSS$CONNECT
      4413**DCL     14510<<ASSIGN  14521<<ASSIGN
XSS$CONNECT.CALLED$
      4639**DCL      4640--REDEF   14515<<ASSIGN
XSS$CONNECT.CALLING$
      4622**DCL     14514<<ASSIGN  14526<<ASSIGN
XSS$CONNECT.DATA
      4570**DCL     14512<<ASSIGN  14524<<ASSIGN
XSS$CONNECT.ERRDEF
      4507**DCL      4527--REDEF
XSS$CONNECT.FNC
      4436**DCL     14511<<ASSIGN  14522<<ASSIGN
XSS$CONNECT.ITOKENS
      4656**DCL     14516<<ASSIGN  14528<<ASSIGN
XSS$CONNECT.QOS
      4711**DCL     14518<<ASSIGN  14530<<ASSIGN
XSS$CONNECT.RESPONDING$
      4640**DCL     14527<<ASSIGN
XSS$CONNECT.RESULT
      4669**DCL     14523<<ASSIGN
XSS$CONNECT.SERNUM
      4603**DCL     14513<<ASSIGN  14525<<ASSIGN
XSS$CONNECT.SFU
      4692**DCL     14517<<ASSIGN  14529<<ASSIGN
XSS$CONTROL_GIVE
      4736**DCL     14601<<ASSIGN
XSS$CONTROL_GIVE.ERRDEF
PL6.E3A0      #002=XSP$SSEND File=XSP$ENCODE.:XSA1TSI                            WED 10/01/97 12:03 Page:164
      4812**DCL      4832--REDEF
XSS$CONTROL_GIVE.FNC
      4757**DCL     14602<<ASSIGN
XSS$DATA
      4860**DCL     14554<<ASSIGN
XSS$DATA.DATA
      4957**DCL     14556<<ASSIGN
XSS$DATA.ERRDEF
      4894**DCL      4914--REDEF
XSS$DATA.FNC
      4881**DCL     14555<<ASSIGN
XSS$EXPEDITED_DATA
      5004**DCL     14558<<ASSIGN
XSS$EXPEDITED_DATA.DATA
      5101**DCL     14560<<ASSIGN
XSS$EXPEDITED_DATA.ERRDEF
      5038**DCL      5058--REDEF
XSS$EXPEDITED_DATA.FNC
      5025**DCL     14559<<ASSIGN
XSS$GENERIC
      3385**DCL     14668<>CALL
XSS$GENERIC.ERRDEF
      3439**DCL      3459--REDEF
XSS$GENERIC.ERROR
      3459**DCL     14670>>ASSIGN
XSS$GENERIC.SCID
      3400**DCL     14666<<ASSIGN
XSS$P_ABORT.ERRDEF
      5186**DCL      5206--REDEF
XSS$P_EXCEPTION_REPORT.ERRDEF
      5272**DCL      5292--REDEF
XSS$RELEASE
      5320**DCL     14613<<ASSIGN  14618<<ASSIGN
XSS$RELEASE.DATA
      5425**DCL     14615<<ASSIGN  14621<<ASSIGN
XSS$RELEASE.ERRDEF
PL6.E3A0      #002=XSP$SSEND File=XSP$ENCODE.:XSA1TSI                            WED 10/01/97 12:03 Page:165
      5362**DCL      5382--REDEF
XSS$RELEASE.FNC
      5343**DCL     14614<<ASSIGN  14619<<ASSIGN
XSS$RELEASE.RESULT
      5355**DCL     14620<<ASSIGN
XSS$RESYNCHRONIZE
      5472**DCL     14532<<ASSIGN  14539<<ASSIGN  14623<<ASSIGN  14630<<ASSIGN
XSS$RESYNCHRONIZE.DATA
      5633**DCL     14536<<ASSIGN  14543<<ASSIGN  14627<<ASSIGN  14634<<ASSIGN
XSS$RESYNCHRONIZE.ERRDEF
      5570**DCL      5590--REDEF
XSS$RESYNCHRONIZE.FNC
      5495**DCL     14533<<ASSIGN  14540<<ASSIGN  14624<<ASSIGN  14631<<ASSIGN
XSS$RESYNCHRONIZE.SERNUM
      5666**DCL     14537<<ASSIGN  14544<<ASSIGN  14628<<ASSIGN  14635<<ASSIGN
XSS$RESYNCHRONIZE.TOKENS
      5546**DCL     14535<<ASSIGN  14542<<ASSIGN  14626<<ASSIGN  14633<<ASSIGN
XSS$RESYNCHRONIZE.TYPE
      5510**DCL     14534<<ASSIGN  14541<<ASSIGN  14625<<ASSIGN  14632<<ASSIGN
XSS$SESSION
     14491**DCL-ENT 14668--CALL
XSS$SYNC_MAJOR
      5685**DCL     14637<<ASSIGN  14642<<ASSIGN
XSS$SYNC_MAJOR.DATA
      5792**DCL     14639<<ASSIGN  14644<<ASSIGN
XSS$SYNC_MAJOR.ERRDEF
      5729**DCL      5749--REDEF
XSS$SYNC_MAJOR.FNC
      5708**DCL     14638<<ASSIGN  14643<<ASSIGN
XSS$SYNC_MAJOR.SERNUM
      5825**DCL     14640<<ASSIGN  14645<<ASSIGN
XSS$SYNC_MINOR
      5844**DCL     14647<<ASSIGN  14653<<ASSIGN
XSS$SYNC_MINOR.DATA
      5951**DCL     14650<<ASSIGN  14656<<ASSIGN
XSS$SYNC_MINOR.ERRDEF
PL6.E3A0      #002=XSP$SSEND File=XSP$ENCODE.:XSA1TSI                            WED 10/01/97 12:03 Page:166
      5888**DCL      5908--REDEF
XSS$SYNC_MINOR.FNC
      5867**DCL     14648<<ASSIGN  14654<<ASSIGN
XSS$SYNC_MINOR.SERNUM
      5984**DCL     14651<<ASSIGN  14657<<ASSIGN
XSS$SYNC_MINOR.TYPE
      5880**DCL     14649<<ASSIGN  14655<<ASSIGN
XSS$TOKEN_GIVE
      6003**DCL     14604<<ASSIGN
XSS$TOKEN_GIVE.ERRDEF
      6085**DCL      6105--REDEF
XSS$TOKEN_GIVE.FNC
      6024**DCL     14605<<ASSIGN
XSS$TOKEN_GIVE.TOKENS
      6061**DCL     14606<<ASSIGN
XSS$TOKEN_PLEASE
      6133**DCL     14608<<ASSIGN
XSS$TOKEN_PLEASE.DATA
      6278**DCL     14611<<ASSIGN
XSS$TOKEN_PLEASE.ERRDEF
      6215**DCL      6235--REDEF
XSS$TOKEN_PLEASE.FNC
      6154**DCL     14609<<ASSIGN
XSS$TOKEN_PLEASE.TOKENS
      6191**DCL     14610<<ASSIGN
XSS$TYPED_DATA
      6325**DCL     14501<<ASSIGN
XSS$TYPED_DATA.DATA
      6422**DCL     14503<<ASSIGN
XSS$TYPED_DATA.ERRDEF
      6359**DCL      6379--REDEF
XSS$TYPED_DATA.FNC
      6346**DCL     14502<<ASSIGN
XSS$U_ABORT
      6469**DCL     14506<<ASSIGN
XSS$U_ABORT.DATA
PL6.E3A0      #002=XSP$SSEND File=XSP$ENCODE.:XSA1TSI                            WED 10/01/97 12:03 Page:167
      6566**DCL     14508<<ASSIGN
XSS$U_ABORT.ERRDEF
      6503**DCL      6523--REDEF
XSS$U_ABORT.FNC
      6490**DCL     14507<<ASSIGN
XSS$U_EXCEPTION_REPORT
      6613**DCL     14659<<ASSIGN
XSS$U_EXCEPTION_REPORT.DATA
      6715**DCL     14662<<ASSIGN
XSS$U_EXCEPTION_REPORT.ERRDEF
      6652**DCL      6672--REDEF
XSS$U_EXCEPTION_REPORT.FNC
      6634**DCL     14660<<ASSIGN
XSS$U_EXCEPTION_REPORT.REASON
      6644**DCL     14661<<ASSIGN
XSS_ACTIVITY_DISCARD
      6910**DCL     14562>>ASSIGN  14566>>ASSIGN
XSS_ACTIVITY_DISCARD.ERRDEF
      6954**DCL      6980--REDEF
XSS_ACTIVITY_END
      7008**DCL     14570>>ASSIGN  14575>>ASSIGN
XSS_ACTIVITY_END.ERRDEF
      7044**DCL      7064--REDEF
XSS_ACTIVITY_INTERRUPT
      7159**DCL     14580>>ASSIGN  14584>>ASSIGN
XSS_ACTIVITY_INTERRUPT.ERRDEF
      7209**DCL      7229--REDEF
XSS_ACTIVITY_RESUME
      7257**DCL     14588>>ASSIGN
XSS_ACTIVITY_RESUME.ERRDEF
      7296**DCL      7316--REDEF
XSS_ACTIVITY_START
      7483**DCL     14596>>ASSIGN
XSS_ACTIVITY_START.ERRDEF
      7517**DCL      7537--REDEF
XSS_CAPABILITY_DATA
PL6.E3A0      #002=XSP$SSEND File=XSP$ENCODE.:XSA1TSI                            WED 10/01/97 12:03 Page:168
      7646**DCL     14546>>ASSIGN  14550>>ASSIGN
XSS_CAPABILITY_DATA.ERRDEF
      7682**DCL      7702--REDEF
XSS_CONNECT
      7792**DCL     14510>>ASSIGN  14521>>ASSIGN
XSS_CONNECT.CALLED$
      8018**DCL      8019--REDEF
XSS_CONNECT.ERRDEF
      7886**DCL      7906--REDEF
XSS_CONTROL_GIVE
      8115**DCL     14601>>ASSIGN
XSS_CONTROL_GIVE.ERRDEF
      8191**DCL      8211--REDEF
XSS_DATA
      8239**DCL     14554>>ASSIGN
XSS_DATA.ERRDEF
      8273**DCL      8293--REDEF
XSS_EXPEDITED_DATA
      8383**DCL     14558>>ASSIGN
XSS_EXPEDITED_DATA.ERRDEF
      8417**DCL      8437--REDEF
XSS_GENERIC.ERRDEF
      6818**DCL      6838--REDEF
XSS_P_ABORT.ERRDEF
      8565**DCL      8585--REDEF
XSS_P_EXCEPTION_REPORT.ERRDEF
      8651**DCL      8671--REDEF
XSS_RELEASE
      8699**DCL     14613>>ASSIGN  14618>>ASSIGN
XSS_RELEASE.ERRDEF
      8741**DCL      8761--REDEF
XSS_RESYNCHRONIZE
      8851**DCL     14532>>ASSIGN  14539>>ASSIGN  14623>>ASSIGN  14630>>ASSIGN
XSS_RESYNCHRONIZE.ERRDEF
      8949**DCL      8969--REDEF
XSS_SYNC_MAJOR
PL6.E3A0      #002=XSP$SSEND File=XSP$ENCODE.:XSA1TSI                            WED 10/01/97 12:03 Page:169
      9064**DCL     14637>>ASSIGN  14642>>ASSIGN
XSS_SYNC_MAJOR.ERRDEF
      9108**DCL      9128--REDEF
XSS_SYNC_MINOR
      9223**DCL     14647>>ASSIGN  14653>>ASSIGN
XSS_SYNC_MINOR.ERRDEF
      9267**DCL      9287--REDEF
XSS_TOKEN_GIVE
      9382**DCL     14604>>ASSIGN
XSS_TOKEN_GIVE.ERRDEF
      9464**DCL      9484--REDEF
XSS_TOKEN_PLEASE
      9512**DCL     14608>>ASSIGN
XSS_TOKEN_PLEASE.ERRDEF
      9594**DCL      9614--REDEF
XSS_TYPED_DATA
      9704**DCL     14501>>ASSIGN
XSS_TYPED_DATA.ERRDEF
      9738**DCL      9758--REDEF
XSS_U_ABORT
      9848**DCL     14506>>ASSIGN
XSS_U_ABORT.ERRDEF
      9882**DCL      9902--REDEF
XSS_U_EXCEPTION_REPORT
      9992**DCL     14659>>ASSIGN
XSS_U_EXCEPTION_REPORT.ERRDEF
     10031**DCL     10051--REDEF
PL6.E3A0      #002=XSP$SSEND File=XSP$ENCODE.:XSA1TSI                            WED 10/01/97 12:03 Page:170
              *** CROSS REFERENCE LISTING ***
    **     DENOTES     IDENTIFIER DEFINITION
    <<                 IDENTIFIER'S VALUE SET
    >>                 IDENTIFIER'S VALUE USED
    <>                 IDENTIFIER SET AND/OR USED
    --                 IDENTIFIER REFERENCED
PL6.E3A0      #002=XSP$SSEND File=XSP$ENCODE.:XSA1TSI                            WED 10/01/97 12:03 Page:171
              MINI UREF LISTING

XSP$SSEND      12**PROC
