PL6.E3A0      #001=XSP$MACHINE File=XSP$MACHINE.:XSA1TSI                         WED 10/01/97 12:04 Page:1
        1        1        /*M*    XSP$MACHINE     ISO Presentation Protocol Machine               */
        2        2        /*T***********************************************************/
        3        3        /*T*                                                         */
        4        4        /*T* Copyright (c) Bull HN Information Systems Inc., 1997    */
        5        5        /*T*                                                         */
        6        6        /*T***********************************************************/
        7        7        /*X* DDA */
        8        8        /*P*
        9        9                NAME:   XSP$MACHINE
       10       10                PURPOSE:
       11       11                    This module is the state machine for the ISO Presentation
       12       12                    layer.
       13       13        */
       14       14        /*F*
       15       15                NAME:   XSP$MACHINE
       16       16                PURPOSE:
       17       17                    This module is the state machine for the ISO Presentation
       18       18                    layer.
       19       19                DESCRIPTION:
       20       20                    On entry, the parameter VBLK contains or points to all the
       21       21                    information of interest.  The event being reported is combined
       22       22                    with the current state of the connection and looked up in the
       23       23                    table of permitted actions.  Depending on the particular action
       24       24                    to be performed, other routines are called.  In general, internal
       25       25                    Presentation routines are called, various flags are updated in
       26       26                    the Presentation connection context, the state of the connection
       27       27                    is possibly updated, and the module RETURNs.
       28       28
       29       29                    This module assumes that VBLK.CTX$ points to the Presentation
       30       30                    connection context for this event, and that VBLK.FPT$ points to
       31       31                    a Presentation primitive FPT corresponding to this event.  In
       32       32                    the case of an outgoing event, VBLK.FPT$ points to the user-
       33       33                    supplied Request or Response FPT that caused the event.  In the
       34       34                    case of an incoming event, VBLK.FPT$ points to the library-
       35       35                    supplied Indication or Confirm FPT that will be reported to the
       36       36                    application's Presentation handler.
       37       37
PL6.E3A0      #001=XSP$MACHINE File=XSP$MACHINE.:XSA1TSI                         WED 10/01/97 12:04 Page:2
       38       38                    In the code below, the notation TABLE xx refers to a specific
       39       39                    protocol state machine table in the ISO Presentation protocol
       40       40                    spec.
       41       41        */
       42       42        XSP$MACHINE: PROC( VBLK) ALTRET;
       43       43        %INCLUDE XSS_SESSION_E;
       44      608        %INCLUDE XSP_PRESENTATION_E;
       45      707        %INCLUDE XSP_PRESENTATION_M;
       46     2193            %XSP$PRIMITIVES( STCLASS="BASED( PFPT$)");
       47     3892            %XSP$CTXTLIST( NAME=CLST, STCLASS="BASED( CLST$)");
       48     3919            %XSP$CTXTLIST( NAME=XSP_ABSLIST, STCLASS=SYMREF);
       49     3946            %XSP$CTXTLIST( NAME=XSP_TFRLIST, STCLASS=SYMREF);
       50     3973            %XSP$CTXTNAME( NAME=NAME, STCLASS=BASED);
       51     4015        %INCLUDE XSP_INTERNAL_E;
       52     4289        %INCLUDE XSP_INTERNAL_M;
       53     4950            %XSP$PCTX( NAME=PCTX, STCLASS="BASED( PCTX$)");
       54     5106            %XSP$VBLK( NAME=VBLK, STCLASS="");
       55     5252            %XSP$CTXTMAP( NAME=CMAP, STCLASS="BASED( CMAP$)");
       56     5293        %INCLUDE XSP_MACHINE_M;
       57     5508        %INCLUDE UM_CP6;
       58     6360        %MACRO FATALDEF( NAME=XSP_FATAL, STCLASS="CONSTANT SYMDEF", LVL=1, LAST=";",
       59     6361                         ERR#=0, SEV=7);
       60     6362            %VLP_ERRCODE( FPTN=NAME, STCLASS=STCLASS, FCG='XS', MID='P',
       61     6363                          MON='0'B, ERR#=ERR#, SEV=SEV);
       62     6364        %MEND;
       63     6365        %INCLUDE XSC_PERR_C;
       64     6442            %FATALDEF( NAME=XSP_F$EVNTERR, ERR#=%F$EVNTERR);
       65     6490            /*E*  ERROR:  XSP-F$EVNTERR-7
       66     6491                MESSAGE:  State machine requested wrong event.
       67     6492            */
       68     6493            %FATALDEF( NAME=XSP_F$NOPRES, ERR#=%F$NOPRES);
       69     6541            /*E*  ERROR:  XSP-F$NOPRES-7
       70     6542                MESSAGE:  No handler for this Presentation primitive.
       71     6543            */
       72     6544        %EQU MAXBITS = 8;  /* biggest context id expected from user */
       73     6545
       74     6546    1       DCL XSP$DUMPFPT ENTRY(1);
PL6.E3A0      #001=XSP$MACHINE File=XSP$MACHINE.:XSA1TSI                         WED 10/01/97 12:04 Page:3
       75     6547    1       DCL XSP$ENCODE ENTRY(1) ALTRET;
       76     6548    1       DCL XSP$RELCTX ENTRY(1) ALTRET;
       77     6549    1       DCL XSP$SSEND ENTRY(1) ALTRET;
       78     6550    1       DCL XSS$BUFPTR ENTRY(2) ALTRET;
       79     6551    1       DCL XSS$SCREECH ENTRY(1);
       80     6552
       81     6553    1       DCL XSS_TRACE SBIN SYMREF;
       82     6554
       83     6555    1       DCL CLST$ PTR;
       84     6556    1       DCL CMAP$ PTR;
       85     6557    1       DCL I SBIN;
       86     6558    1       DCL J SBIN;
       87     6559    1       DCL PCTX$ PTR;
       88     6560    1       DCL PFPT$ PTR;
       89     6561            /* PRED, PINV, and CONTINUING used by the {IF/ELSE/END}PREDDO macros */
       90     6562    1       DCL PRED(0:35) BIT(1) UNAL;
       91     6563    1       DCL PINV(0:35) BIT(1) UNAL;
       92     6564    1       DCL CONTINUING BIT(1);
       93     6565        %EJECT;
PL6.E3A0      #001=XSP$MACHINE File=XSP$MACHINE.:XSA1TSI                         WED 10/01/97 12:04 Page:4
       94     6566        /*****************************************************************************
       95     6567        *                                                                            *
       96     6568        *       Various internal MACROs                                              *
       97     6569        *                                                                            *
       98     6570        *****************************************************************************/
       99     6571        %MACRO EVENT( EV=0); /* generate an output event of the specified type */
      100     6572            CALL EVNT( EV) ALTRET( EVNTERR);
      101     6573        %MEND;
      102     6574        %MACRO INVALID; /* an illegal state/event combination has occurred */
      103     6575            CALL OOPS;
      104     6576        %MEND;
      105     6577        %EJECT;
PL6.E3A0      #001=XSP$MACHINE File=XSP$MACHINE.:XSA1TSI                         WED 10/01/97 12:04 Page:5
      106     6578        /*****************************************************************************
      107     6579        *                                                                            *
      108     6580        *       Set up to enter the Presentation state machine                       *
      109     6581        *                                                                            *
      110     6582        *****************************************************************************/
      111     6583    1       PCTX$ = VBLK.CTX$;
      112     6584    1       PFPT$ = VBLK.FPT$;
      113     6585    1       CALL XSS$BUFPTR( PCTX.CTXTMAPX, CMAP$)
      114     6586    2       WHENALTRETURN DO;
      115     6587    2           CMAP$ = ADDR( NIL);
      116     6588    2           END;
      117     6589            /* update state/event history */
      118     6590    1       I = 1 + PCTX.HISTX;
      119     6591    1       IF I > 7 THEN
      120     6592    1           I = 0;
      121     6593    1       PCTX.HISTX = I;
      122     6594    1       PCTX.HIST.EVENT( I) = VBLK.EVENT;
      123     6595    1       PCTX.HIST.NXTST( I) = %XSP_PST_00;  /* filled in before RETURN */
      124     6596        %SET INPRED = '0'B;  /* set up {IF|ELSE|END}PREDDO macro invocation check */
      125     6597            /* set predicate flags up */
      126     6598    1       PRED = '000000000000'O;
      127     6599    1       PINV = '777777777777'O;
      128     6600            /* fan out on the event and state */
      129     6601    2       DO CASE( VBLK.EVENT);
      130     6602        %EJECT;
PL6.E3A0      #001=XSP$MACHINE File=XSP$MACHINE.:XSA1TSI                         WED 10/01/97 12:04 Page:6
      131     6603    2           CASE( %XSP_PEV_AC);                     /* TABLE 24 */
      132     6604    3               DO CASE( PCTX.STATE);
      133     6605    3                   CASE( %XSP_PST_AC0);
      134     6606                            %IFPREDDO( P="06");
      135     6705                                %ACTION01;
      136     6708                                %EVENT( EV=%XSP_PEV_PALTIND);
      137     6711    4                           PCTX.STATE = %XSP_PST_AC2;
      138     6712    4                           END;
      139     6713                            %ENDPREDDO;
      140     6718    3                   CASE( %XSP_PST_T0);
      141     6719                            %IFPREDDO( P="05&11");
      142     6903                                %ACTION01;
      143     6906                                %ACTION09;
      144     6909                                %EVENT( EV=%XSP_PEV_PALTIND);
      145     6912    4                           PCTX.STATE = %XSP_PST_AC1;
      146     6913    4                           END;
      147     6914                            %ENDPREDDO;
      148     6919    3                   CASE( ELSE);
      149     6920                            %INVALID;
      150     6923    3                   END;
      151     6924    2           CASE( %XSP_PEV_ACA);                    /* TABLE 24 */
      152     6925    3               DO CASE( PCTX.STATE);
      153     6926    3                   CASE( %XSP_PST_AC0);
      154     6927                            %IFPREDDO( P="09");
      155     7026                                %ACTION10;
      156     7029                                %ACTION11;
      157     7032                                %EVENT( EV=%XSP_PEV_PALTCNF);
      158     7035    4                           END;
      159     7036                            %ENDPREDDO;
      160     7041    3                   CASE( %XSP_PST_AC2);
      161     7042                            %IFPREDDO( P="09&06");
      162     7226                                %ACTION10;
      163     7229                                %ACTION11;
      164     7232                                %EVENT( EV=%XSP_PEV_PALTCNF);
      165     7235    4                           END;
      166     7236                            %ENDPREDDO;
      167     7241    3                   CASE( ELSE);
PL6.E3A0      #001=XSP$MACHINE File=XSP$MACHINE.:XSA1TSI                         WED 10/01/97 12:04 Page:7
      168     7242                            %INVALID;
      169     7245    3                   END;
      170     7246    2           CASE( %XSP_PEV_ARP,                     /* TABLE 23 */
      171     7247    2                 %XSP_PEV_SPABIND);                /* TABLE 23 */
      172     7248    3               DO CASE( PCTX.STATE);
      173     7249    3                   CASE( %XSP_PST_I1,
      174     7250    3                         %XSP_PST_I2,
      175     7251    3                         %XSP_PST_AC0,
      176     7252    3                         %XSP_PST_AC1,
      177     7253    3                         %XSP_PST_AC2,
      178     7254    3                         %XSP_PST_T0);
      179     7255                            %EVENT( EV=%XSP_PEV_PPABIND);
      180     7258    3                       PCTX.STATE = %XSP_PST_I0;
      181     7259    3                   CASE( ELSE);
      182     7260                            %INVALID;
      183     7263    3                   END;
      184     7264    2           CASE( %XSP_PEV_ARU);                    /* TABLE 23 */
      185     7265    3               DO CASE( PCTX.STATE);
      186     7266    3                   CASE( %XSP_PST_I1);
      187     7267                            %IFPREDDO( P="03&21");
      188     7451                                %EVENT( EV=%XSP_PEV_PUABIND);
      189     7454    4                           PCTX.STATE = %XSP_PST_I0;
      190     7455    4                           END;
      191     7456                            %ENDPREDDO;
      192     7461    3                   CASE( %XSP_PST_I2);
      193     7462                            %IFPREDDO( P="03&21&23");
      194     7731                                %EVENT( EV=%XSP_PEV_PUABIND);
      195     7734    4                           PCTX.STATE = %XSP_PST_I0;
      196     7735    4                           END;
      197     7736                            %ENDPREDDO;
      198     7741    3                   CASE( %XSP_PST_AC0);
      199     7742                            %IFPREDDO( P="21&24");
      200     7926                                %EVENT( EV=%XSP_PEV_PUABIND);
      201     7929    4                           PCTX.STATE = %XSP_PST_I0;
      202     7930    4                           END;
      203     7931                            %ENDPREDDO;
      204     7936    3                   CASE( %XSP_PST_AC1);
PL6.E3A0      #001=XSP$MACHINE File=XSP$MACHINE.:XSA1TSI                         WED 10/01/97 12:04 Page:8
      205     7937                            %IFPREDDO( P="06&21");
      206     8121                                %EVENT( EV=%XSP_PEV_PUABIND);
      207     8124    4                           PCTX.STATE = %XSP_PST_I0;
      208     8125    4                           END;
      209     8126                            %ENDPREDDO;
      210     8131    3                   CASE( %XSP_PST_AC2);
      211     8132                            %IFPREDDO( P="21&25");
      212     8316                                %EVENT( EV=%XSP_PEV_PUABIND);
      213     8319    4                           PCTX.STATE = %XSP_PST_I0;
      214     8320    4                           END;
      215     8321                            %ENDPREDDO;
      216     8326    3                   CASE( %XSP_PST_T0);
      217     8327                            %IFPREDDO( P="05&21");
      218     8511                                %EVENT( EV=%XSP_PEV_PUABIND);
      219     8514    4                           PCTX.STATE = %XSP_PST_I0;
      220     8515    4                           END;
      221     8516                            %ENDPREDDO;
      222     8521    3                   CASE( ELSE);
      223     8522                            %INVALID;
      224     8525    3                   END;
      225     8526    2           CASE( %XSP_PEV_CP);                     /* TABLE 21 */
      226     8527    3               IF PCTX.STATE = %XSP_PST_I0 THEN DO;
      227     8528                        %IFPREDDO( P="01&02&03&22");
      228     8882                            %ACTION01;
      229     8885                            %ACTION02;
      230     8888                            %ACTION20;
      231     8891                            %EVENT( EV=%XSP_PEV_PCONIND);
      232     8894    4                       PCTX.STATE = %XSP_PST_I2;
      233     8895    4                       END;
      234     8896                        %ELSEPREDDO( P="-01|-02|-22");
      235     9216                            %ACTION01;
      236     9219                            %EVENT( EV=%XSP_PEV_CPR);
      237     9222    4                       END;
      238     9223                        %ENDPREDDO;
      239     9228    3                   END;
      240     9229    2               ELSE
      241     9230                        %INVALID;
PL6.E3A0      #001=XSP$MACHINE File=XSP$MACHINE.:XSA1TSI                         WED 10/01/97 12:04 Page:9
      242     9233    2           CASE( %XSP_PEV_CPA);                    /* TABLE 21 */
      243     9234    3               IF PCTX.STATE = %XSP_PST_I1 THEN DO;
      244     9235                        %IFPREDDO( P="04");
      245     9334                            %ACTION03;
      246     9337                            %ACTION12;
      247     9340                            %EVENT( EV=%XSP_PEV_PCONCFP);
      248     9343    4                       PCTX.STATE = %XSP_PST_T0;
      249     9344    4                       END;
      250     9345                        %ENDPREDDO;
      251     9350    3                   END;
      252     9351    2               ELSE
      253     9352                        %INVALID;
      254     9355    2           CASE( %XSP_PEV_CPR);                    /* TABLE 21 */
      255     9356    3               IF PCTX.STATE = %XSP_PST_I1 THEN DO;
      256     9357                        %IFPREDDO( P="04");
      257     9456                            %EVENT( EV=%XSP_PEV_PCONCFN);
      258     9459    4                       PCTX.STATE = %XSP_PST_I0;
      259     9460    4                       END;
      260     9461                        %ENDPREDDO;
      261     9466    3                   END;
      262     9467    2               ELSE
      263     9468                        %INVALID;
      264     9471    2           CASE( %XSP_PEV_RS);                     /* TABLE 29 */
      265     9472    3               DO CASE( PCTX.STATE);
      266     9473    3                   CASE( %XSP_PST_AC0,
      267     9474    3                         %XSP_PST_AC2);
      268     9475                            %IFPREDDO( P="-17&21");
      269     9682                                %ACTION21;
      270     9685                                %EVENT( EV=%XSP_PEV_PRSXIND);
      271     9688    4                           PCTX.STATE = %XSP_PST_T0;
      272     9689    4                           END;
      273     9690                            %ELSEPREDDO( P="17&19&21");
      274     9957                                %ACTION21;
      275     9960                                %EVENT( EV=%XSP_PEV_PRSXIND);
      276     9963    4                           PCTX.STATE = %XSP_PST_T0;
      277     9964    4                           END;
      278     9965                            %ELSEPREDDO( P="17&26&18");
PL6.E3A0      #001=XSP$MACHINE File=XSP$MACHINE.:XSA1TSI                         WED 10/01/97 12:04 Page:10
      279    10232                                %ACTION16;
      280    10235                                %EVENT( EV=%XSP_PEV_PRSXIND);
      281    10238    4                           PCTX.STATE = %XSP_PST_T0;
      282    10239    4                           END;
      283    10240                            %ELSEPREDDO( P="17&-19&-26&15");
      284    10638                                %ACTION18;
      285    10641                                %EVENT( EV=%XSP_PEV_PRSXIND);
      286    10644    4                           PCTX.STATE = %XSP_PST_T0;
      287    10645    4                           END;
      288    10646                            %ENDPREDDO;
      289    10651    3                   CASE( %XSP_PST_AC1);
      290    10652                            %IFPREDDO( P="-17&21");
      291    10859                                %EVENT( EV=%XSP_PEV_PRSXIND);
      292    10862    4                           PCTX.STATE = %XSP_PST_T0;
      293    10863    4                           END;
      294    10864                            %ELSEPREDDO( P="17&19&21");
      295    11131                                %EVENT( EV=%XSP_PEV_PRSXIND);
      296    11134    4                           PCTX.STATE = %XSP_PST_T0;
      297    11135    4                           END;
      298    11136                            %ELSEPREDDO( P="17&26&18");
      299    11403                                %ACTION16;
      300    11406                                %EVENT( EV=%XSP_PEV_PRSXIND);
      301    11409    4                           PCTX.STATE = %XSP_PST_T0;
      302    11410    4                           END;
      303    11411                            %ELSEPREDDO( P="17&-19&-26&15");
      304    11809                                %ACTION18;
      305    11812                                %EVENT( EV=%XSP_PEV_PRSXIND);
      306    11815    4                           PCTX.STATE = %XSP_PST_T0;
      307    11816    4                           END;
      308    11817                            %ENDPREDDO;
      309    11822    3                   CASE( %XSP_PST_T0);
      310    11823                            %IFPREDDO( P="-11&05");
      311    12030                                %EVENT( EV=%XSP_PEV_PRSXIND);
      312    12033    4                           END;
      313    12034                            %ELSEPREDDO( P="11&-17&21");
      314    12324                                %EVENT( EV=%XSP_PEV_PRSXIND);
      315    12327    4                           END;
PL6.E3A0      #001=XSP$MACHINE File=XSP$MACHINE.:XSA1TSI                         WED 10/01/97 12:04 Page:11
      316    12328                            %ELSEPREDDO( P="11&17&19&21");
      317    12680                                %EVENT( EV=%XSP_PEV_PRSXIND);
      318    12683    4                           END;
      319    12684                            %ELSEPREDDO( P="11&17&26&18");
      320    13036                                %ACTION16;
      321    13039                                %EVENT( EV=%XSP_PEV_PRSXIND);
      322    13042    4                           PCTX.STATE = %XSP_PST_T0;
      323    13043    4                           END;
      324    13044                            %ELSEPREDDO( P="11&17&-19&-26&15");
      325    13527                                %ACTION18;
      326    13530                                %EVENT( EV=%XSP_PEV_PRSXIND);
      327    13533    4                           END;
      328    13534                            %ENDPREDDO;
      329    13539    3                   CASE( ELSE);
      330    13540                            %INVALID;
      331    13543    3                   END;
      332    13544    2           CASE( %XSP_PEV_RSA);                    /* TABLE 29 */
      333    13545    3               IF PCTX.STATE = %XSP_PST_T0 THEN DO;
      334    13546                        %IFPREDDO( P="-11&05");
      335    13753                            %EVENT( EV=%XSP_PEV_PRSXCNF);
      336    13756    4                       END;
      337    13757                        %ELSEPREDDO( P="11&-17&21");
      338    14047                            %ACTION21;
      339    14050                            %EVENT( EV=%XSP_PEV_PRSXCNF);
      340    14053    4                       END;
      341    14054                        %ELSEPREDDO( P="11&17&19&21");
      342    14406                            %ACTION21;
      343    14409                            %EVENT( EV=%XSP_PEV_PRSXCNF);
      344    14412    4                       END;
      345    14413                        %ELSEPREDDO( P="11&17&26&05");
      346    14765                            %EVENT( EV=%XSP_PEV_PRSXCNF);
      347    14768    4                       END;
      348    14769                        %ELSEPREDDO( P="11&17&-19&-26&05");
      349    15252                            %EVENT( EV=%XSP_PEV_PRSXCNF);
      350    15255    4                       END;
      351    15256                        %ENDPREDDO;
      352    15261    3                   END;
PL6.E3A0      #001=XSP$MACHINE File=XSP$MACHINE.:XSA1TSI                         WED 10/01/97 12:04 Page:12
      353    15262    2               ELSE
      354    15263                        %INVALID;
      355    15266    2           CASE( %XSP_PEV_TC);                     /* TABLE 25 */
      356    15267    3               DO CASE( PCTX.STATE);
      357    15268    3                   CASE( %XSP_PST_AC0);
      358    15269                            %IFPREDDO( P="05");
      359    15368                                %EVENT( EV=%XSP_PEV_PCADIND);
      360    15371    4                           END;
      361    15372                            %ENDPREDDO;
      362    15377    3                   CASE( %XSP_PST_AC1,
      363    15378    3                         %XSP_PST_AC2);
      364    15379                            %IFPREDDO( P="06");
      365    15478                                %EVENT( EV=%XSP_PEV_PCADIND);
      366    15481    4                           END;
      367    15482                            %ENDPREDDO;
      368    15487    3                   CASE( %XSP_PST_T0);
      369    15488                            %IFPREDDO( P="05");
      370    15587                                %ACTION09;
      371    15590                                %EVENT( EV=%XSP_PEV_PCADIND);
      372    15593    4                           END;
      373    15594                            %ENDPREDDO;
      374    15599    3                   CASE( ELSE);
      375    15600                            %INVALID;
      376    15603    3                   END;
      377    15604    2           CASE( %XSP_PEV_TCC);                    /* TABLE 25 */
      378    15605    3               DO CASE( PCTX.STATE);
      379    15606    3                   CASE( %XSP_PST_AC0,
      380    15607    3                         %XSP_PST_T0);
      381    15608                            %IFPREDDO( P="05");
      382    15707                                %EVENT( EV=%XSP_PEV_PCADCNF);
      383    15710    4                           END;
      384    15711                            %ENDPREDDO;
      385    15716    3                   CASE( %XSP_PST_AC1,
      386    15717    3                         %XSP_PST_AC2);
      387    15718                            %IFPREDDO( P="06");
      388    15817                                %EVENT( EV=%XSP_PEV_PCADCNF);
      389    15820    4                           END;
PL6.E3A0      #001=XSP$MACHINE File=XSP$MACHINE.:XSA1TSI                         WED 10/01/97 12:04 Page:13
      390    15821                            %ENDPREDDO;
      391    15826    3                   CASE( ELSE);
      392    15827                            %INVALID;
      393    15830    3                   END;
      394    15831    2           CASE( %XSP_PEV_TD);                     /* TABLE 25 */
      395    15832    3               DO CASE( PCTX.STATE);
      396    15833    3                   CASE( %XSP_PST_AC0);
      397    15834                            %IFPREDDO( P="05");
      398    15933                                %EVENT( EV=%XSP_PEV_PDATIND);
      399    15936    4                           END;
      400    15937                            %ENDPREDDO;
      401    15942    3                   CASE( %XSP_PST_AC1,
      402    15943    3                         %XSP_PST_AC2);
      403    15944                            %IFPREDDO( P="06");
      404    16043                                %EVENT( EV=%XSP_PEV_PDATIND);
      405    16046    4                           END;
      406    16047                            %ENDPREDDO;
      407    16052    3                   CASE( %XSP_PST_T0);
      408    16053                            %IFPREDDO( P="05");
      409    16152                                %ACTION09;
      410    16155                                %EVENT( EV=%XSP_PEV_PDATIND);
      411    16158    4                           END;
      412    16159                            %ENDPREDDO;
      413    16164    3                   CASE( ELSE);
      414    16165                            %INVALID;
      415    16168    3                   END;
      416    16169    2           CASE( %XSP_PEV_TE);                     /* TABLE 25 */
      417    16170    3               DO CASE( PCTX.STATE);
      418    16171    3                   CASE( %XSP_PST_AC0,
      419    16172    3                         %XSP_PST_AC1,
      420    16173    3                         %XSP_PST_AC2);
      421    16174                            %IFPREDDO( P="13");
      422    16273                                %EVENT( EV=%XSP_PEV_PEXPIND);
      423    16276    4                           END;
      424    16277                            %ENDPREDDO;
      425    16282    3                   CASE( %XSP_PST_T0);
      426    16283                            %IFPREDDO( P="13");
PL6.E3A0      #001=XSP$MACHINE File=XSP$MACHINE.:XSA1TSI                         WED 10/01/97 12:04 Page:14
      427    16382                                %ACTION09;
      428    16385                                %EVENT( EV=%XSP_PEV_PEXPIND);
      429    16388    4                           END;
      430    16389                            %ENDPREDDO;
      431    16394    3                   CASE( ELSE);
      432    16395                            %INVALID;
      433    16398    3                   END;
      434    16399    2           CASE( %XSP_PEV_TTD);                    /* TABLE 25 */
      435    16400    3               DO CASE( PCTX.STATE);
      436    16401    3                   CASE( %XSP_PST_AC0);
      437    16402                            %IFPREDDO( P="05&14");
      438    16586                                %EVENT( EV=%XSP_PEV_PTYDIND);
      439    16589    4                           END;
      440    16590                            %ENDPREDDO;
      441    16595    3                   CASE( %XSP_PST_AC1,
      442    16596    3                         %XSP_PST_AC2);
      443    16597                            %IFPREDDO( P="06&14");
      444    16781                                %EVENT( EV=%XSP_PEV_PTYDIND);
      445    16784    4                           END;
      446    16785                            %ENDPREDDO;
      447    16790    3                   CASE( %XSP_PST_T0);
      448    16791                            %IFPREDDO( P="05&14");
      449    16975                                %ACTION09;
      450    16978                                %EVENT( EV=%XSP_PEV_PTYDIND);
      451    16981    4                           END;
      452    16982                            %ENDPREDDO;
      453    16987    3                   END;
      454    16988    2           CASE( %XSP_PEV_SACDIND);                /* TABLE 28 */
      455    16989    3               DO CASE( PCTX.STATE);
      456    16990    3                   CASE( %XSP_PST_AC0,
      457    16991    3                         %XSP_PST_AC1,
      458    16992    3                         %XSP_PST_AC2,
      459    16993    3                         %XSP_PST_T0);
      460    16994                            %ACTION09;
      461    16997                            %EVENT( EV=%XSP_PEV_PACDIND);
      462    17000    3                       PCTX.STATE = %XSP_PST_T0;
      463    17001    3                   CASE( ELSE);
PL6.E3A0      #001=XSP$MACHINE File=XSP$MACHINE.:XSA1TSI                         WED 10/01/97 12:04 Page:15
      464    17002                            %INVALID;
      465    17005    3                   END;
      466    17006    2           CASE( %XSP_PEV_SACDCNF);                /* TABLE 28 */
      467    17007    3               IF PCTX.STATE = %XSP_PST_T0 THEN DO;
      468    17008                        %ACTION14;
      469    17011                        %ACTION19;
      470    17014                        %EVENT( EV=%XSP_PEV_PACDCNF);
      471    17017    3                   END;
      472    17018    2               ELSE
      473    17019                        %INVALID;
      474    17022    2           CASE( %XSP_PEV_SACEIND);                /* TABLE 28 */
      475    17023    3               DO CASE( PCTX.STATE);
      476    17024    3                   CASE( %XSP_PST_AC0,
      477    17025    3                         %XSP_PST_T0);
      478    17026                            %IFPREDDO( P="05");
      479    17125                                %EVENT( EV=%XSP_PEV_PACEIND);
      480    17128    4                           END;
      481    17129                            %ENDPREDDO;
      482    17134    3                   CASE( %XSP_PST_AC1,
      483    17135    3                         %XSP_PST_AC2);
      484    17136                            %IFPREDDO( P="-17&06");
      485    17343                                %EVENT( EV=%XSP_PEV_PACEIND);
      486    17346    4                           END;
      487    17347                            %ENDPREDDO;
      488    17352    3                   CASE( ELSE);
      489    17353                            %INVALID;
      490    17356    3                   END;
      491    17357    2           CASE( %XSP_PEV_SACECNF);                /* TABLE 28 */
      492    17358    3               DO CASE( PCTX.STATE);
      493    17359    3                   CASE( %XSP_PST_AC0);
      494    17360                            %IFPREDDO( P="-17&05");
      495    17567                                %EVENT( EV=%XSP_PEV_PACECNF);
      496    17570    4                           END;
      497    17571                            %ENDPREDDO;
      498    17576    3                   CASE( %XSP_PST_AC1);
      499    17577                            %IFPREDDO( P="06");
      500    17676                                %ACTION14;
PL6.E3A0      #001=XSP$MACHINE File=XSP$MACHINE.:XSA1TSI                         WED 10/01/97 12:04 Page:16
      501    17679                                %ACTION19;
      502    17682                                %EVENT( EV=%XSP_PEV_PACECNF);
      503    17685    4                           END;
      504    17686                            %ENDPREDDO;
      505    17691    3                   CASE( %XSP_PST_AC2);
      506    17692                            %IFPREDDO( P="-17&06");
      507    17899                                %EVENT( EV=%XSP_PEV_PACECNF);
      508    17902    4                           END;
      509    17903                            %ENDPREDDO;
      510    17908    3                   CASE( %XSP_PST_T0);
      511    17909                            %IFPREDDO( P="05");
      512    18008                                %ACTION14;
      513    18011                                %ACTION19;
      514    18014                                %EVENT( EV=%XSP_PEV_PACECNF);
      515    18017    4                           END;
      516    18018                            %ENDPREDDO;
      517    18023    3                   CASE( ELSE);
      518    18024                            %INVALID;
      519    18027    3                   END;
      520    18028    2           CASE( %XSP_PEV_SACIIND);                /* TABLE 28 */
      521    18029    3               DO CASE( PCTX.STATE);
      522    18030    3                   CASE( %XSP_PST_AC0,
      523    18031    3                         %XSP_PST_AC1,
      524    18032    3                         %XSP_PST_AC2,
      525    18033    3                         %XSP_PST_T0);
      526    18034                            %ACTION20;
      527    18037                            %EVENT( EV=%XSP_PEV_PACIIND);
      528    18040    3                       PCTX.STATE = %XSP_PST_T0;
      529    18041    3                   CASE( ELSE);
      530    18042                            %INVALID;
      531    18045    3                   END;
      532    18046    2           CASE( %XSP_PEV_SACICNF);                /* TABLE 28 */
      533    18047    3               IF PCTX.STATE = %XSP_PST_T0 THEN DO;
      534    18048                        %ACTION14;
      535    18051                        %EVENT( EV=%XSP_PEV_PACICNF);
      536    18054    3                   END;
      537    18055    2               ELSE
PL6.E3A0      #001=XSP$MACHINE File=XSP$MACHINE.:XSA1TSI                         WED 10/01/97 12:04 Page:17
      538    18056                        %INVALID;
      539    18059    2           CASE( %XSP_PEV_SACRIND);                /* TABLE 28 */
      540    18060    3               DO CASE( PCTX.STATE);
      541    18061    3                   CASE( %XSP_PST_AC0,
      542    18062    3                         %XSP_PST_T0);
      543    18063                            %IFPREDDO( P="(-17|27|-28)&05");
      544    18510                                %ACTION09;
      545    18513                                %EVENT( EV=%XSP_PEV_PACRIND);
      546    18516    4                           END;
      547    18517                            %ELSEPREDDO( P="-27&28&17&16");
      548    18892                                %ACTION09;
      549    18895                                %ACTION17;
      550    18898                                %ACTION16;
      551    18901                                %EVENT( EV=%XSP_PEV_PACRIND);
      552    18904    4                           END;
      553    18905                            %ENDPREDDO;
      554    18910    3                   CASE( %XSP_PST_AC1,
      555    18911    3                         %XSP_PST_AC2);
      556    18912                            %IFPREDDO( P="-17&06");
      557    19119                                %EVENT( EV=%XSP_PEV_PACRIND);
      558    19122    4                           END;
      559    19123                            %ENDPREDDO;
      560    19128    3                   CASE( ELSE);
      561    19129                            %INVALID;
      562    19132    3                   END;
      563    19133    2           CASE( %XSP_PEV_SACSIND);                /* TABLE 28 */
      564    19134    3               DO CASE( PCTX.STATE);
      565    19135    3                   CASE( %XSP_PST_AC0,
      566    19136    3                         %XSP_PST_T0);
      567    19137                            %IFPREDDO( P="05");
      568    19236                                %ACTION09;
      569    19239                                %ACTION17;
      570    19242                                %EVENT( EV=%XSP_PEV_PACSIND);
      571    19245    4                           END;
      572    19246                            %ENDPREDDO;
      573    19251    3                   CASE( %XSP_PST_AC1,
      574    19252    3                         %XSP_PST_AC2);
PL6.E3A0      #001=XSP$MACHINE File=XSP$MACHINE.:XSA1TSI                         WED 10/01/97 12:04 Page:18
      575    19253                            %IFPREDDO( P="-17&06");
      576    19460                                %EVENT( EV=%XSP_PEV_PACSIND);
      577    19463    4                           END;
      578    19464                            %ENDPREDDO;
      579    19469    3                   CASE( ELSE);
      580    19470                            %INVALID;
      581    19473    3                   END;
      582    19474    2           CASE( %XSP_PEV_SCONCFN);                /* TABLE 21 */
      583    19475    3               IF PCTX.STATE = %XSP_PST_I1 THEN DO;
      584    19476                        %EVENT( EV=%XSP_PEV_PCONCFN);
      585    19479    3                   PCTX.STATE = %XSP_PST_I0;
      586    19480    3                   END;
      587    19481    2               ELSE
      588    19482                        %INVALID;
      589    19485    2           CASE( %XSP_PEV_SCTGIND);                /* TABLE 26 */
      590    19486    3               DO CASE( PCTX.STATE);
      591    19487    3                   CASE( %XSP_PST_AC0,
      592    19488    3                         %XSP_PST_AC1,
      593    19489    3                         %XSP_PST_AC2);
      594    19490                            %EVENT( EV=%XSP_PEV_PCTGIND);
      595    19493    3                   CASE( %XSP_PST_T0);
      596    19494                            %ACTION09;
      597    19497                            %EVENT( EV=%XSP_PEV_PCTGIND);
      598    19500    3                   CASE( ELSE);
      599    19501                            %INVALID;
      600    19504    3                   END;
      601    19505        /*      CASE( %XSP_PEV_SPABIND);   see %XSP_PEV_ARP case above          */
      602    19506    2           CASE( %XSP_PEV_SPERIND);                /* TABLE 28 */
      603    19507    3               DO CASE( PCTX.STATE);
      604    19508    3                   CASE( %XSP_PST_AC0,
      605    19509    3                         %XSP_PST_AC1,
      606    19510    3                         %XSP_PST_AC2,
      607    19511    3                         %XSP_PST_T0);
      608    19512                            %EVENT( EV=%XSP_PEV_PPERIND);
      609    19515    3                       PCTX.STATE = %XSP_PST_T0;
      610    19516    3                   CASE( ELSE);
      611    19517                            %INVALID;
PL6.E3A0      #001=XSP$MACHINE File=XSP$MACHINE.:XSA1TSI                         WED 10/01/97 12:04 Page:19
      612    19520    3                   END;
      613    19521    2           CASE( %XSP_PEV_SRELIND);                /* TABLE 22 */
      614    19522    3               DO CASE( PCTX.STATE);
      615    19523    3                   CASE( %XSP_PST_AC0);
      616    19524                            %IFPREDDO( P="05");
      617    19623                                %ACTION08;
      618    19626                                %ACTION07;
      619    19629                                %EVENT( EV=%XSP_PEV_PRELIND);
      620    19632    4                           END;
      621    19633                            %ENDPREDDO;
      622    19638    3                   CASE( %XSP_PST_AC1,
      623    19639    3                         %XSP_PST_AC2);
      624    19640                            %IFPREDDO( P="06");
      625    19739                                %ACTION08;
      626    19742                                %ACTION07;
      627    19745                                %EVENT( EV=%XSP_PEV_PRELIND);
      628    19748    4                           END;
      629    19749                            %ENDPREDDO;
      630    19754    3                   CASE( %XSP_PST_T0);
      631    19755                            %IFPREDDO( P="05");
      632    19854                                %ACTION08;
      633    19857                                %ACTION07;
      634    19860                                %EVENT( EV=%XSP_PEV_PRELIND);
      635    19863    4                           END;
      636    19864                            %ENDPREDDO;
      637    19869    3                   CASE( ELSE);
      638    19870                            %INVALID;
      639    19873    3                   END;
      640    19874    2           CASE( %XSP_PEV_SRELCFP);                /* TABLE 22 */
      641    19875    3               DO CASE( PCTX.STATE);
      642    19876    3                   CASE( %XSP_PST_AC0,
      643    19877    3                         %XSP_PST_T0);
      644    19878                            %IFPREDDO( P="05&-08");
      645    20085                                %EVENT( EV=%XSP_PEV_PRELCFP);
      646    20088    4                           PCTX.STATE = %XSP_PST_I0;
      647    20089    4                           END;
      648    20090                            %ELSEPREDDO( P="05&08");
PL6.E3A0      #001=XSP$MACHINE File=XSP$MACHINE.:XSA1TSI                         WED 10/01/97 12:04 Page:20
      649    20272                                %ACTION02;
      650    20275                                %EVENT( EV=%XSP_PEV_PRELCFP);
      651    20278    4                           PCTX.STATE = %XSP_PST_T0;
      652    20279    4                           END;
      653    20280                            %ENDPREDDO;
      654    20285    3                   CASE( %XSP_PST_AC1,
      655    20286    3                         %XSP_PST_AC2);
      656    20287                            %IFPREDDO( P="06&-08");
      657    20494                                %EVENT( EV=%XSP_PEV_PRELCFP);
      658    20497    4                           PCTX.STATE = %XSP_PST_I0;
      659    20498    4                           END;
      660    20499                            %ELSEPREDDO( P="06&08");
      661    20681                                %ACTION02;
      662    20684                                %EVENT( EV=%XSP_PEV_PRELCFP);
      663    20687    4                           PCTX.STATE = %XSP_PST_T0;
      664    20688    4                           END;
      665    20689                            %ENDPREDDO;
      666    20694    3                   CASE( ELSE);
      667    20695                            %INVALID;
      668    20698    3                   END;
      669    20699    2           CASE( %XSP_PEV_SRELCFN);                /* TABLE 22 */
      670    20700    3               DO CASE( PCTX.STATE);
      671    20701    3                   CASE( %XSP_PST_AC0);
      672    20702                            %IFPREDDO( P="05");
      673    20801                                %ACTION02;
      674    20804                                %EVENT( EV=%XSP_PEV_PRELCFN);
      675    20807    4                           END;
      676    20808                            %ENDPREDDO;
      677    20813    3                   CASE( %XSP_PST_AC1,
      678    20814    3                         %XSP_PST_AC2);
      679    20815                            %IFPREDDO( P="06");
      680    20914                                %ACTION02;
      681    20917                                %EVENT( EV=%XSP_PEV_PRELCFN);
      682    20920    4                           END;
      683    20921                            %ENDPREDDO;
      684    20926    3                   CASE( %XSP_PST_T0);
      685    20927                            %IFPREDDO( P="05");
PL6.E3A0      #001=XSP$MACHINE File=XSP$MACHINE.:XSA1TSI                         WED 10/01/97 12:04 Page:21
      686    21026                                %ACTION02;
      687    21029                                %EVENT( EV=%XSP_PEV_PRELCFN);
      688    21032    4                           END;
      689    21033                            %ENDPREDDO;
      690    21038    3                   CASE( ELSE);
      691    21039                            %INVALID;
      692    21042    3                   END;
      693    21043    2           CASE( %XSP_PEV_SRSXIND);
      694    21044                    %INVALID;  /* nothing in the state table for this event */
      695    21047    2           CASE( %XSP_PEV_SRSXCNF);
      696    21048                    %INVALID;  /* nothing in the state table for this event */
      697    21051    2           CASE( %XSP_PEV_SSMAIND);                /* TABLE 27 */
      698    21052    3               DO CASE( PCTX.STATE);
      699    21053    3                   CASE( %XSP_PST_AC0,
      700    21054    3                         %XSP_PST_T0);
      701    21055                            %IFPREDDO( P="05");
      702    21154                                %EVENT( EV=%XSP_PEV_PSMAIND);
      703    21157    4                           END;
      704    21158                            %ENDPREDDO;
      705    21163    3                   CASE( %XSP_PST_AC1,
      706    21164    3                         %XSP_PST_AC2);
      707    21165                            %IFPREDDO( P="-17&06");
      708    21372                                %EVENT( EV=%XSP_PEV_PSMAIND);
      709    21375    4                           END;
      710    21376                            %ENDPREDDO;
      711    21381    3                   CASE( ELSE);
      712    21382                            %INVALID;
      713    21385    3                   END;
      714    21386    2           CASE( %XSP_PEV_SSMACNF);                /* TABLE 27 */
      715    21387    3               DO CASE( PCTX.STATE);
      716    21388    3                   CASE( %XSP_PST_AC0);
      717    21389                            %IFPREDDO( P="-17&05");
      718    21596                                %EVENT( EV=%XSP_PEV_PSMACNF);
      719    21599    4                           END;
      720    21600                            %ENDPREDDO;
      721    21605    3                   CASE( %XSP_PST_AC1);
      722    21606                            %IFPREDDO( P="06");
PL6.E3A0      #001=XSP$MACHINE File=XSP$MACHINE.:XSA1TSI                         WED 10/01/97 12:04 Page:22
      723    21705                                %EVENT( EV=%XSP_PEV_PSMACNF);
      724    21708                                %ACTION22;
      725    21711                                %ACTION13;
      726    21714    4                           END;
      727    21715                            %ENDPREDDO;
      728    21720    3                   CASE( %XSP_PST_AC2);
      729    21721                            %IFPREDDO( P="-17&06");
      730    21928                                %EVENT( EV=%XSP_PEV_PSMACNF);
      731    21931    4                           END;
      732    21932                            %ENDPREDDO;
      733    21937    3                   CASE( %XSP_PST_T0);
      734    21938                            %IFPREDDO( P="05");
      735    22037                                %EVENT( EV=%XSP_PEV_PSMACNF);
      736    22040                                %ACTION22;
      737    22043                                %ACTION13;
      738    22046    4                           END;
      739    22047                            %ENDPREDDO;
      740    22052    3                   CASE( ELSE);
      741    22053                            %INVALID;
      742    22056    3                   END;
      743    22057    2           CASE( %XSP_PEV_SSMIIND);                /* TABLE 27 */
      744    22058    3               DO CASE( PCTX.STATE);
      745    22059    3                   CASE( %XSP_PST_AC0,
      746    22060    3                         %XSP_PST_T0);
      747    22061                            %IFPREDDO( P="05");
      748    22160                                %EVENT( EV=%XSP_PEV_PSMIIND);
      749    22163                                %ACTION13;
      750    22166    4                           END;
      751    22167                            %ENDPREDDO;
      752    22172    3                   CASE( %XSP_PST_AC1,
      753    22173    3                         %XSP_PST_AC2);
      754    22174                            %IFPREDDO( P="-17&06");
      755    22381                                %EVENT( EV=%XSP_PEV_PSMIIND);
      756    22384    4                           END;
      757    22385                            %ENDPREDDO;
      758    22390    3                   CASE( ELSE);
      759    22391                            %INVALID;
PL6.E3A0      #001=XSP$MACHINE File=XSP$MACHINE.:XSA1TSI                         WED 10/01/97 12:04 Page:23
      760    22394    3                   END;
      761    22395    2           CASE( %XSP_PEV_SSMICNF);                /* TABLE 27 */
      762    22396    3               DO CASE( PCTX.STATE);
      763    22397    3                   CASE( %XSP_PST_AC0,
      764    22398    3                         %XSP_PST_T0);
      765    22399                            %IFPREDDO( P="05");
      766    22498                                %EVENT( EV=%XSP_PEV_PSMICNF);
      767    22501    4                           END;
      768    22502                            %ENDPREDDO;
      769    22507    3                   CASE( %XSP_PST_AC1,
      770    22508    3                         %XSP_PST_AC2);
      771    22509                            %IFPREDDO( P="06");
      772    22608                                %EVENT( EV=%XSP_PEV_PSMICNF);
      773    22611    4                           END;
      774    22612                            %ENDPREDDO;
      775    22617    3                   CASE( ELSE);
      776    22618                            %INVALID;
      777    22621    3                   END;
      778    22622    2           CASE( %XSP_PEV_STKGIND);                /* TABLE 26 */
      779    22623    3               DO CASE( PCTX.STATE);
      780    22624    3                   CASE( %XSP_PST_AC0,
      781    22625    3                         %XSP_PST_AC1,
      782    22626    3                         %XSP_PST_AC2);
      783    22627                            %EVENT( EV=%XSP_PEV_PTKGIND);
      784    22630    3                   CASE( %XSP_PST_T0);
      785    22631                            %ACTION09;
      786    22634                            %EVENT( EV=%XSP_PEV_PTKGIND);
      787    22637    3                   CASE( ELSE);
      788    22638                            %INVALID;
      789    22641    3                   END;
      790    22642    2           CASE( %XSP_PEV_STKPIND);                /* TABLE 26 */
      791    22643    3               DO CASE( PCTX.STATE);
      792    22644    3                   CASE( %XSP_PST_AC0);
      793    22645                            %IFPREDDO( P="05");
      794    22744                                %EVENT( EV=%XSP_PEV_PTKPIND);
      795    22747    4                           END;
      796    22748                            %ENDPREDDO;
PL6.E3A0      #001=XSP$MACHINE File=XSP$MACHINE.:XSA1TSI                         WED 10/01/97 12:04 Page:24
      797    22753    3                   CASE( %XSP_PST_AC1,
      798    22754    3                         %XSP_PST_AC2);
      799    22755                            %IFPREDDO( P="06");
      800    22854                                %EVENT( EV=%XSP_PEV_PTKPIND);
      801    22857    4                           END;
      802    22858                            %ENDPREDDO;
      803    22863    3                   CASE( %XSP_PST_T0);
      804    22864                            %IFPREDDO( P="05");
      805    22963                                %ACTION09;
      806    22966                                %EVENT( EV=%XSP_PEV_PTKPIND);
      807    22969    4                           END;
      808    22970                            %ENDPREDDO;
      809    22975    3                   CASE( ELSE);
      810    22976                            %INVALID;
      811    22979    3                   END;
      812    22980    2           CASE( %XSP_PEV_SUERIND);                /* TABLE 28 */
      813    22981    3               DO CASE( PCTX.STATE);
      814    22982    3                   CASE( %XSP_PST_AC0,
      815    22983    3                         %XSP_PST_T0);
      816    22984                            %IFPREDDO( P="05");
      817    23083                                %EVENT( EV=%XSP_PEV_PUERIND);
      818    23086    4                           PCTX.STATE = %XSP_PST_T0;
      819    23087    4                           END;
      820    23088                            %ENDPREDDO;
      821    23093    3                   CASE( %XSP_PST_AC1,
      822    23094    3                         %XSP_PST_AC2);
      823    23095                            %IFPREDDO( P="06");
      824    23194                                %EVENT( EV=%XSP_PEV_PUERIND);
      825    23197    4                           PCTX.STATE = %XSP_PST_T0;
      826    23198    4                           END;
      827    23199                            %ENDPREDDO;
      828    23204    3                   CASE( ELSE);
      829    23205                            %INVALID;
      830    23208    3                   END;
      831    23209    2           CASE( %XSP_PEV_PACDREQ);                /* TABLE 28 */
      832    23210    3               DO CASE( PCTX.STATE);
      833    23211    3                   CASE( %XSP_PST_AC0,
PL6.E3A0      #001=XSP$MACHINE File=XSP$MACHINE.:XSA1TSI                         WED 10/01/97 12:04 Page:25
      834    23212    3                         %XSP_PST_AC1,
      835    23213    3                         %XSP_PST_AC2,
      836    23214    3                         %XSP_PST_T0);
      837    23215                            %EVENT( EV=%XSP_PEV_SACDREQ);
      838    23218    3                       PCTX.STATE = %XSP_PST_T0;
      839    23219    3                   CASE( ELSE);
      840    23220                            %INVALID;
      841    23223    3                   END;
      842    23224    2           CASE( %XSP_PEV_PACDRSP);                /* TABLE 28 */
      843    23225    3               IF PCTX.STATE = %XSP_PST_T0 THEN DO;
      844    23226                        %ACTION14;
      845    23229                        %ACTION19;
      846    23232                        %EVENT( EV=%XSP_PEV_SACDRSP);
      847    23235    3                   END;
      848    23236    2               ELSE
      849    23237                        %INVALID;
      850    23240    2           CASE( %XSP_PEV_PACEREQ);                /* TABLE 28 */
      851    23241    3               DO CASE( PCTX.STATE);
      852    23242    3                   CASE( %XSP_PST_AC0,
      853    23243    3                         %XSP_PST_AC2);
      854    23244                            %IFPREDDO( P="-17&07");
      855    23451                                %EVENT( EV=%XSP_PEV_SACEREQ);
      856    23454    4                           END;
      857    23455                            %ENDPREDDO;
      858    23460    3                   CASE( %XSP_PST_AC1,
      859    23461    3                         %XSP_PST_T0);
      860    23462                            %IFPREDDO( P="05");
      861    23561                                %EVENT( EV=%XSP_PEV_SACEREQ);
      862    23564    4                           END;
      863    23565                            %ENDPREDDO;
      864    23570    3                   CASE( ELSE);
      865    23571                            %INVALID;
      866    23574    3                   END;
      867    23575    2           CASE( %XSP_PEV_PACERSP);                /* TABLE 28 */
      868    23576    3               DO CASE( PCTX.STATE);
      869    23577    3                   CASE( %XSP_PST_AC0);
      870    23578                            %IFPREDDO( P="07");
PL6.E3A0      #001=XSP$MACHINE File=XSP$MACHINE.:XSA1TSI                         WED 10/01/97 12:04 Page:26
      871    23677                                %ACTION14;
      872    23680                                %ACTION15;
      873    23683                                %EVENT( EV=%XSP_PEV_SACERSP);
      874    23686    4                           END;
      875    23687                            %ENDPREDDO;
      876    23692    3                   CASE( %XSP_PST_AC1);
      877    23693                            %IFPREDDO( P="-17&05");
      878    23900                                %EVENT( EV=%XSP_PEV_SACERSP);
      879    23903    4                           END;
      880    23904                            %ENDPREDDO;
      881    23909    3                   CASE( %XSP_PST_AC2);
      882    23910                            %IFPREDDO( P="-17&07");
      883    24117                                %EVENT( EV=%XSP_PEV_SACERSP);
      884    24120    4                           END;
      885    24121                            %ENDPREDDO;
      886    24126    3                   CASE( %XSP_PST_T0);
      887    24127                            %IFPREDDO( P="05");
      888    24226                                %ACTION14;
      889    24229                                %ACTION15;
      890    24232                                %EVENT( EV=%XSP_PEV_SACERSP);
      891    24235    4                           END;
      892    24236                            %ENDPREDDO;
      893    24241    3                   CASE( ELSE);
      894    24242                            %INVALID;
      895    24245    3                   END;
      896    24246    2           CASE( %XSP_PEV_PACIREQ);                /* TABLE 28 */
      897    24247    3               DO CASE( PCTX.STATE);
      898    24248    3                   CASE( %XSP_PST_AC0,
      899    24249    3                         %XSP_PST_AC1,
      900    24250    3                         %XSP_PST_AC2,
      901    24251    3                         %XSP_PST_T0);
      902    24252                            %EVENT( EV=%XSP_PEV_SACIREQ);
      903    24255    3                       PCTX.STATE = %XSP_PST_T0;
      904    24256    3                   CASE( ELSE);
      905    24257                            %INVALID;
      906    24260    3                   END;
      907    24261    2           CASE( %XSP_PEV_PACIRSP);                /* TABLE 28 */
PL6.E3A0      #001=XSP$MACHINE File=XSP$MACHINE.:XSA1TSI                         WED 10/01/97 12:04 Page:27
      908    24262    3               IF PCTX.STATE = %XSP_PST_T0 THEN DO;
      909    24263                        %ACTION14;
      910    24266                        %EVENT( EV=%XSP_PEV_SACIRSP);
      911    24269    3                   END;
      912    24270    2               ELSE
      913    24271                        %INVALID;
      914    24274    2           CASE( %XSP_PEV_PACRREQ);                /* TABLE 28 */
      915    24275    3               DO CASE( PCTX.STATE);
      916    24276    3                   CASE( %XSP_PST_AC0,
      917    24277    3                         %XSP_PST_AC2);
      918    24278                            %IFPREDDO( P="-17&07");
      919    24485                                %EVENT( EV=%XSP_PEV_SACRREQ);
      920    24488    4                           END;
      921    24489                            %ENDPREDDO;
      922    24494    3                   CASE( %XSP_PST_AC1,
      923    24495    3                         %XSP_PST_T0);
      924    24496                            %IFPREDDO( P="(-17|27|-28)&05");
      925    24943                                %EVENT( EV=%XSP_PEV_SACRREQ);
      926    24946    4                           END;
      927    24947                            %ELSEPREDDO( P="-27&28&17&16");
      928    25322                                %ACTION17;
      929    25325                                %ACTION16;
      930    25328                                %EVENT( EV=%XSP_PEV_SACRREQ);
      931    25331    4                           END;
      932    25332                            %ENDPREDDO;
      933    25337    3                   CASE( ELSE);
      934    25338                            %INVALID;
      935    25341    3                   END;
      936    25342    2           CASE( %XSP_PEV_PACSREQ);                /* TABLE 28 */
      937    25343    3               DO CASE( PCTX.STATE);
      938    25344    3                   CASE( %XSP_PST_AC0,
      939    25345    3                         %XSP_PST_AC2);
      940    25346                            %IFPREDDO( P="-17&07");
      941    25553                                %EVENT( EV=%XSP_PEV_SACSREQ);
      942    25556    4                           END;
      943    25557                            %ENDPREDDO;
      944    25562    3                   CASE( %XSP_PST_AC1,
PL6.E3A0      #001=XSP$MACHINE File=XSP$MACHINE.:XSA1TSI                         WED 10/01/97 12:04 Page:28
      945    25563    3                         %XSP_PST_T0);
      946    25564                            %IFPREDDO( P="05");
      947    25663                                %ACTION17;
      948    25666                                %EVENT( EV=%XSP_PEV_SACSREQ);
      949    25669    4                           END;
      950    25670                            %ENDPREDDO;
      951    25675    3                   CASE( ELSE);
      952    25676                            %INVALID;
      953    25679    3                   END;
      954    25680    2           CASE( %XSP_PEV_PALTREQ);                /* TABLE 24 */
      955    25681    3               DO CASE( PCTX.STATE);
      956    25682    3                   CASE( %XSP_PST_AC1);
      957    25683                            %IFPREDDO( P="05");
      958    25782                                %ACTION04;
      959    25785                                %EVENT( EV=%XSP_PEV_AC);
      960    25788    4                           PCTX.STATE = %XSP_PST_AC2;
      961    25789    4                           END;
      962    25790                            %ENDPREDDO;
      963    25795    3                   CASE( %XSP_PST_T0);
      964    25796                            %IFPREDDO( P="05&11");
      965    25980                                %ACTION04;
      966    25983                                %EVENT( EV=%XSP_PEV_AC);
      967    25986    4                           PCTX.STATE = %XSP_PST_AC0;
      968    25987    4                           END;
      969    25988                            %ENDPREDDO;
      970    25993    3                   CASE( ELSE);
      971    25994                            %INVALID;
      972    25997    3                   END;
      973    25998    2           CASE( %XSP_PEV_PALTRSP);                /* TABLE 24 */
      974    25999    3               DO CASE( PCTX.STATE);
      975    26000    3                   CASE( %XSP_PST_AC1);
      976    26001                            %IFPREDDO( P="09");
      977    26100                                %ACTION06;
      978    26103                                %ACTION11;
      979    26106                                %EVENT( EV=%XSP_PEV_ACA);
      980    26109    4                           PCTX.STATE = %XSP_PST_T0;
      981    26110    4                           END;
PL6.E3A0      #001=XSP$MACHINE File=XSP$MACHINE.:XSA1TSI                         WED 10/01/97 12:04 Page:29
      982    26111                            %ENDPREDDO;
      983    26116    3                   CASE( %XSP_PST_AC2);
      984    26117                            %IFPREDDO( P="09");
      985    26216                                %ACTION06;
      986    26219                                %ACTION11;
      987    26222                                %EVENT( EV=%XSP_PEV_ACA);
      988    26225    4                           PCTX.STATE = %XSP_PST_AC0;
      989    26226    4                           END;
      990    26227                            %ENDPREDDO;
      991    26232    3                   CASE( ELSE);
      992    26233                            %INVALID;
      993    26236    3                   END;
      994    26237    2           CASE( %XSP_PEV_PCADREQ);                /* TABLE 25 */
      995    26238    3               DO CASE( PCTX.STATE);
      996    26239    3                   CASE( %XSP_PST_AC0,
      997    26240    3                         %XSP_PST_AC2);
      998    26241                            %IFPREDDO( P="07");
      999    26340                                %EVENT( EV=%XSP_PEV_TC);
     1000    26343    4                           END;
     1001    26344                            %ENDPREDDO;
     1002    26349    3                   CASE( %XSP_PST_AC1,
     1003    26350    3                         %XSP_PST_T0);
     1004    26351                            %IFPREDDO( P="05");
     1005    26450                                %EVENT( EV=%XSP_PEV_TC);
     1006    26453    4                           END;
     1007    26454                            %ENDPREDDO;
     1008    26459    3                   CASE( ELSE);
     1009    26460                            %INVALID;
     1010    26463    3                   END;
     1011    26464    2           CASE( %XSP_PEV_PCADRSP);                /* TABLE 25 */
     1012    26465    3               DO CASE( PCTX.STATE);
     1013    26466    3                   CASE( %XSP_PST_AC0,
     1014    26467    3                         %XSP_PST_AC2);
     1015    26468                            %IFPREDDO( P="07");
     1016    26567                                %EVENT( EV=%XSP_PEV_TCC);
     1017    26570    4                           END;
     1018    26571                            %ENDPREDDO;
PL6.E3A0      #001=XSP$MACHINE File=XSP$MACHINE.:XSA1TSI                         WED 10/01/97 12:04 Page:30
     1019    26576    3                   CASE( %XSP_PST_AC1,
     1020    26577    3                         %XSP_PST_T0);
     1021    26578                            %IFPREDDO( P="05");
     1022    26677                                %EVENT( EV=%XSP_PEV_TCC);
     1023    26680    4                           END;
     1024    26681                            %ENDPREDDO;
     1025    26686    3                   CASE( ELSE);
     1026    26687                            %INVALID;
     1027    26690    3                   END;
     1028    26691    2           CASE( %XSP_PEV_PCONREQ);                /* TABLE 21 */
     1029    26692    3               IF PCTX.STATE = %XSP_PST_I0 THEN DO;
     1030    26693                        %IFPREDDO( P="02&03");
     1031    26877                            %ACTION04;
     1032    26880                            %ACTION05;
     1033    26883                            %ACTION02;
     1034    26886                            %ACTION20;
     1035    26889                            %EVENT( EV=%XSP_PEV_CP);
     1036    26892    4                       PCTX.STATE = %XSP_PST_I1;
     1037    26893    4                       END;
     1038    26894                        %ENDPREDDO;
     1039    26899    3                   END;
     1040    26900    2               ELSE
     1041    26901                        %INVALID;
     1042    26904    2           CASE( %XSP_PEV_PCONRSP);                /* TABLE 21 */
     1043    26905    3               IF PCTX.STATE = %XSP_PST_I2 THEN DO;
     1044    26906                        %IFPREDDO( P="04");
     1045    27005                            %ACTION06;
     1046    27008                            %ACTION12;
     1047    27011                            %EVENT( EV=%XSP_PEV_CPA);
     1048    27014    4                       PCTX.STATE = %XSP_PST_T0;
     1049    27015    4                       END;
     1050    27016                        %ENDPREDDO;
     1051    27021    3                   END;
     1052    27022    2               ELSE
     1053    27023                        %INVALID;
     1054    27026    2           CASE( %XSP_PEV_PCONRSN);                /* TABLE 21 */
     1055    27027    3               IF PCTX.STATE = %XSP_PST_I2 THEN DO;
PL6.E3A0      #001=XSP$MACHINE File=XSP$MACHINE.:XSA1TSI                         WED 10/01/97 12:04 Page:31
     1056    27028                        %IFPREDDO( P="04");
     1057    27127                            %ACTION06;
     1058    27130                            %EVENT( EV=%XSP_PEV_CPR);
     1059    27133    4                       PCTX.STATE = %XSP_PST_I0;
     1060    27134    4                       END;
     1061    27135                        %ENDPREDDO;
     1062    27140    3                   END;
     1063    27141    2               ELSE
     1064    27142                        %INVALID;
     1065    27145    2           CASE( %XSP_PEV_PCTGREQ);                /* TABLE 26 */
     1066    27146    3               DO CASE( PCTX.STATE);
     1067    27147    3                   CASE( %XSP_PST_AC0,
     1068    27148    3                         %XSP_PST_AC1,
     1069    27149    3                         %XSP_PST_AC2,
     1070    27150    3                         %XSP_PST_T0);
     1071    27151                            %EVENT( EV=%XSP_PEV_SCTGREQ);
     1072    27154    3                   CASE( ELSE);
     1073    27155                            %INVALID;
     1074    27158    3                   END;
     1075    27159    2           CASE( %XSP_PEV_PDATREQ);                /* TABLE 25 */
     1076    27160    3               DO CASE( PCTX.STATE);
     1077    27161    3                   CASE( %XSP_PST_AC0,
     1078    27162    3                         %XSP_PST_AC2);
     1079    27163                            %IFPREDDO( P="07");
     1080    27262                                %EVENT( EV=%XSP_PEV_TD);
     1081    27265    4                           END;
     1082    27266                            %ENDPREDDO;
     1083    27271    3                   CASE( %XSP_PST_AC1,
     1084    27272    3                         %XSP_PST_T0);
     1085    27273                            %IFPREDDO( P="05");
     1086    27372                                %EVENT( EV=%XSP_PEV_TD);
     1087    27375    4                           END;
     1088    27376                            %ENDPREDDO;
     1089    27381    3                   CASE( ELSE);
     1090    27382                            %INVALID;
     1091    27385    3                   END;
     1092    27386    2           CASE( %XSP_PEV_PEXPREQ);                /* TABLE 25 */
PL6.E3A0      #001=XSP$MACHINE File=XSP$MACHINE.:XSA1TSI                         WED 10/01/97 12:04 Page:32
     1093    27387    3               DO CASE( PCTX.STATE);
     1094    27388    3                   CASE( %XSP_PST_AC0,
     1095    27389    3                         %XSP_PST_AC1,
     1096    27390    3                         %XSP_PST_AC2,
     1097    27391    3                         %XSP_PST_T0);
     1098    27392                            %IFPREDDO( P="13");
     1099    27491                                %EVENT( EV=%XSP_PEV_TE);
     1100    27494    4                           END;
     1101    27495                            %ENDPREDDO;
     1102    27500    3                   CASE( ELSE);
     1103    27501                            %INVALID;
     1104    27504    3                   END;
     1105    27505    2           CASE( %XSP_PEV_PRELREQ);                /* TABLE 22 */
     1106    27506    3               DO CASE( PCTX.STATE);
     1107    27507    3                   CASE( %XSP_PST_AC0,
     1108    27508    3                         %XSP_PST_AC2);
     1109    27509                            %IFPREDDO( P="07");
     1110    27608                                %ACTION08;
     1111    27611                                %ACTION07;
     1112    27614                                %EVENT( EV=%XSP_PEV_SRELREQ);
     1113    27617    4                           END;
     1114    27618                            %ENDPREDDO;
     1115    27623    3                   CASE( %XSP_PST_AC1,
     1116    27624    3                         %XSP_PST_T0);
     1117    27625                            %IFPREDDO( P="05");
     1118    27724                                %ACTION08;
     1119    27727                                %ACTION07;
     1120    27730                                %EVENT( EV=%XSP_PEV_SRELREQ);
     1121    27733    4                           END;
     1122    27734                            %ENDPREDDO;
     1123    27739    3                   CASE( ELSE);
     1124    27740                            %INVALID;
     1125    27743    3                   END;
     1126    27744    2           CASE( %XSP_PEV_PRELRSP);                /* TABLE 22 */
     1127    27745    3               DO CASE( PCTX.STATE);
     1128    27746    3                   CASE( %XSP_PST_AC0,
     1129    27747    3                         %XSP_PST_AC2);
PL6.E3A0      #001=XSP$MACHINE File=XSP$MACHINE.:XSA1TSI                         WED 10/01/97 12:04 Page:33
     1130    27748                            %IFPREDDO( P="07&-08");
     1131    27955                                %EVENT( EV=%XSP_PEV_SRELRSP);
     1132    27958    4                           PCTX.STATE = %XSP_PST_I0;
     1133    27959    4                           END;
     1134    27960                            %ELSEPREDDO( P="07&08");
     1135    28142                                %ACTION02;
     1136    28145                                %EVENT( EV=%XSP_PEV_SRELRSP);
     1137    28148    4                           PCTX.STATE = %XSP_PST_T0;
     1138    28149    4                           END;
     1139    28150                            %ENDPREDDO;
     1140    28155    3                   CASE( %XSP_PST_AC1,
     1141    28156    3                         %XSP_PST_T0);
     1142    28157                            %IFPREDDO( P="05&-08");
     1143    28364                                %EVENT( EV=%XSP_PEV_SRELRSP);
     1144    28367    4                           PCTX.STATE = %XSP_PST_I0;
     1145    28368    4                           END;
     1146    28369                            %ELSEPREDDO( P="05&08");
     1147    28551                                %ACTION02;
     1148    28554                                %EVENT( EV=%XSP_PEV_SRELRSP);
     1149    28557    4                           PCTX.STATE = %XSP_PST_T0;
     1150    28558    4                           END;
     1151    28559                            %ENDPREDDO;
     1152    28564    3                   CASE( ELSE);
     1153    28565                            %INVALID;
     1154    28568    3                   END;
     1155    28569    2           CASE( %XSP_PEV_PRELRSN);                /* TABLE 22 */
     1156    28570    3               DO CASE( PCTX.STATE);
     1157    28571    3                   CASE( %XSP_PST_AC0,
     1158    28572    3                         %XSP_PST_AC2);
     1159    28573                            %IFPREDDO( P="07");
     1160    28672                                %ACTION02;
     1161    28675                                %EVENT( EV=%XSP_PEV_SRELRSN);
     1162    28678    4                           END;
     1163    28679                            %ENDPREDDO;
     1164    28684    3                   CASE( %XSP_PST_AC1,
     1165    28685    3                         %XSP_PST_T0);
     1166    28686                            %IFPREDDO( P="05");
PL6.E3A0      #001=XSP$MACHINE File=XSP$MACHINE.:XSA1TSI                         WED 10/01/97 12:04 Page:34
     1167    28785                                %ACTION02;
     1168    28788                                %EVENT( EV=%XSP_PEV_SRELRSN);
     1169    28791    4                           END;
     1170    28792                            %ENDPREDDO;
     1171    28797    3                   CASE( ELSE);
     1172    28798                            %INVALID;
     1173    28801    3                   END;
     1174    28802    2           CASE( %XSP_PEV_PRSXREQ);                /* TABLE 29 */
     1175    28803    3               DO CASE( PCTX.STATE);
     1176    28804    3                   CASE( %XSP_PST_AC0,
     1177    28805    3                         %XSP_PST_AC2);
     1178    28806                            %IFPREDDO( P="-17&07");
     1179    29013                                %EVENT( EV=%XSP_PEV_RS);
     1180    29016    4                           PCTX.STATE = %XSP_PST_T0;
     1181    29017    4                           END;
     1182    29018                            %ELSEPREDDO( P="17&19&07");
     1183    29285                                %EVENT( EV=%XSP_PEV_RS);
     1184    29288    4                           PCTX.STATE = %XSP_PST_T0;
     1185    29289    4                           END;
     1186    29290                            %ELSEPREDDO( P="17&26&18");
     1187    29557                                %EVENT( EV=%XSP_PEV_RS);
     1188    29560    4                           PCTX.STATE = %XSP_PST_T0;
     1189    29561    4                           END;
     1190    29562                            %ELSEPREDDO( P="17&-19&-26&15");
     1191    29960                                %ACTION18;
     1192    29963                                %EVENT( EV=%XSP_PEV_RS);
     1193    29966    4                           PCTX.STATE = %XSP_PST_T0;
     1194    29967    4                           END;
     1195    29968                            %ENDPREDDO;
     1196    29973    3                   CASE( %XSP_PST_AC1);
     1197    29974                            %IFPREDDO( P="-17&05");
     1198    30181                                %EVENT( EV=%XSP_PEV_RS);
     1199    30184    4                           PCTX.STATE = %XSP_PST_T0;
     1200    30185    4                           END;
     1201    30186                            %ELSEPREDDO( P="17&19&05");
     1202    30453                                %EVENT( EV=%XSP_PEV_RS);
     1203    30456    4                           PCTX.STATE = %XSP_PST_T0;
PL6.E3A0      #001=XSP$MACHINE File=XSP$MACHINE.:XSA1TSI                         WED 10/01/97 12:04 Page:35
     1204    30457    4                           END;
     1205    30458                            %ELSEPREDDO( P="17&26&18");
     1206    30725                                %EVENT( EV=%XSP_PEV_RS);
     1207    30728    4                           PCTX.STATE = %XSP_PST_T0;
     1208    30729    4                           END;
     1209    30730                            %ELSEPREDDO( P="17&-19&-26&15");
     1210    31128                                %ACTION18;
     1211    31131                                %EVENT( EV=%XSP_PEV_RS);
     1212    31134    4                           PCTX.STATE = %XSP_PST_T0;
     1213    31135    4                           END;
     1214    31136                            %ENDPREDDO;
     1215    31141    3                   CASE( %XSP_PST_T0);
     1216    31142                            %IFPREDDO( P="-11&05");
     1217    31349                                %EVENT( EV=%XSP_PEV_RS);
     1218    31352    4                           END;
     1219    31353                            %ELSEPREDDO( P="11&-17&05");
     1220    31643                                %EVENT( EV=%XSP_PEV_RS);
     1221    31646    4                           END;
     1222    31647                            %ELSEPREDDO( P="11&17&19&05");
     1223    31999                                %EVENT( EV=%XSP_PEV_RS);
     1224    32002    4                           END;
     1225    32003                            %ELSEPREDDO( P="11&17&26&18");
     1226    32355                                %EVENT( EV=%XSP_PEV_RS);
     1227    32358    4                           END;
     1228    32359                            %ELSEPREDDO( P="11&17&-19&-26&15");
     1229    32842                                %ACTION18;
     1230    32845                                %EVENT( EV=%XSP_PEV_RS);
     1231    32848    4                           END;
     1232    32849                            %ENDPREDDO;
     1233    32854    3                   CASE( ELSE);
     1234    32855                            %INVALID;
     1235    32858    3                   END;
     1236    32859    2           CASE( %XSP_PEV_PRSXRSP);                /* TABLE 29 */
     1237    32860    3               IF PCTX.STATE = %XSP_PST_T0 THEN DO;
     1238    32861                        %IFPREDDO( P="-11&05");
     1239    33068                            %EVENT( EV=%XSP_PEV_RSA);
     1240    33071    4                       END;
PL6.E3A0      #001=XSP$MACHINE File=XSP$MACHINE.:XSA1TSI                         WED 10/01/97 12:04 Page:36
     1241    33072                        %ELSEPREDDO( P="11&-17&05");
     1242    33362                            %EVENT( EV=%XSP_PEV_RSA);
     1243    33365    4                       END;
     1244    33366                        %ELSEPREDDO( P="11&17&19&05");
     1245    33718                            %EVENT( EV=%XSP_PEV_RSA);
     1246    33721    4                       END;
     1247    33722                        %ELSEPREDDO( P="11&17&26&05");
     1248    34074                            %EVENT( EV=%XSP_PEV_RSA);
     1249    34077    4                       END;
     1250    34078                        %ELSEPREDDO( P="11&17&-19&-26&05");
     1251    34561                            %EVENT( EV=%XSP_PEV_RSA);
     1252    34564    4                       END;
     1253    34565                        %ENDPREDDO;
     1254    34570    3                   END;
     1255    34571    2               ELSE
     1256    34572                        %INVALID;
     1257    34575    2           CASE( %XSP_PEV_PSMAREQ);                /* TABLE 27 */
     1258    34576    3               DO CASE( PCTX.STATE);
     1259    34577    3                   CASE( %XSP_PST_AC0,
     1260    34578    3                         %XSP_PST_AC2);
     1261    34579                            %IFPREDDO( P="-17&07");
     1262    34786                                %EVENT( EV=%XSP_PEV_SSMAREQ);
     1263    34789    4                           END;
     1264    34790                            %ENDPREDDO;
     1265    34795    3                   CASE( %XSP_PST_AC1,
     1266    34796    3                         %XSP_PST_T0);
     1267    34797                            %IFPREDDO( P="05");
     1268    34896                                %EVENT( EV=%XSP_PEV_SSMAREQ);
     1269    34899    4                           END;
     1270    34900                            %ENDPREDDO;
     1271    34905    3                   CASE( ELSE);
     1272    34906                            %INVALID;
     1273    34909    3                   END;
     1274    34910    2           CASE( %XSP_PEV_PSMARSP);                /* TABLE 27 */
     1275    34911    3               DO CASE( PCTX.STATE);
     1276    34912    3                   CASE( %XSP_PST_AC0);
     1277    34913                            %IFPREDDO( P="07");
PL6.E3A0      #001=XSP$MACHINE File=XSP$MACHINE.:XSA1TSI                         WED 10/01/97 12:04 Page:37
     1278    35012                                %EVENT( EV=%XSP_PEV_SSMARSP);
     1279    35015                                %ACTION22;
     1280    35018                                %ACTION13;
     1281    35021    4                           END;
     1282    35022                            %ENDPREDDO;
     1283    35027    3                   CASE( %XSP_PST_AC1);
     1284    35028                            %IFPREDDO( P="-17&05");
     1285    35235                                %EVENT( EV=%XSP_PEV_SSMARSP);
     1286    35238    4                           END;
     1287    35239                            %ENDPREDDO;
     1288    35244    3                   CASE( %XSP_PST_AC2);
     1289    35245                            %IFPREDDO( P="-17&07");
     1290    35452                                %EVENT( EV=%XSP_PEV_SSMARSP);
     1291    35455    4                           END;
     1292    35456                            %ENDPREDDO;
     1293    35461    3                   CASE( %XSP_PST_T0);
     1294    35462                            %IFPREDDO( P="05");
     1295    35561                                %EVENT( EV=%XSP_PEV_SSMARSP);
     1296    35564                                %ACTION22;
     1297    35567                                %ACTION13;
     1298    35570    4                           END;
     1299    35571                            %ENDPREDDO;
     1300    35576    3                   CASE( ELSE);
     1301    35577                            %INVALID;
     1302    35580    3                   END;
     1303    35581    2           CASE( %XSP_PEV_PSMIREQ);                /* TABLE 27 */
     1304    35582    3               DO CASE( PCTX.STATE);
     1305    35583    3                   CASE( %XSP_PST_AC0,
     1306    35584    3                         %XSP_PST_AC2);
     1307    35585                            %IFPREDDO( P="-17&07");
     1308    35792                                %EVENT( EV=%XSP_PEV_SSMIREQ);
     1309    35795    4                           END;
     1310    35796                            %ENDPREDDO;
     1311    35801    3                   CASE( %XSP_PST_AC1,
     1312    35802    3                         %XSP_PST_T0);
     1313    35803                            %IFPREDDO( P="05");
     1314    35902                                %EVENT( EV=%XSP_PEV_SSMIREQ);
PL6.E3A0      #001=XSP$MACHINE File=XSP$MACHINE.:XSA1TSI                         WED 10/01/97 12:04 Page:38
     1315    35905                                %ACTION13;
     1316    35908    4                           END;
     1317    35909                            %ENDPREDDO;
     1318    35914    3                   CASE( ELSE);
     1319    35915                            %INVALID;
     1320    35918    3                   END;
     1321    35919    2           CASE( %XSP_PEV_PSMIRSP);                /* TABLE 27 */
     1322    35920    3               DO CASE( PCTX.STATE);
     1323    35921    3                   CASE( %XSP_PST_AC0,
     1324    35922    3                         %XSP_PST_AC2);
     1325    35923                            %IFPREDDO( P="07");
     1326    36022                                %EVENT( EV=%XSP_PEV_SSMIRSP);
     1327    36025    4                           END;
     1328    36026                            %ENDPREDDO;
     1329    36031    3                   CASE( %XSP_PST_AC1,
     1330    36032    3                         %XSP_PST_T0);
     1331    36033                            %IFPREDDO( P="05");
     1332    36132                                %EVENT( EV=%XSP_PEV_SSMIRSP);
     1333    36135    4                           END;
     1334    36136                            %ENDPREDDO;
     1335    36141    3                   CASE( ELSE);
     1336    36142                            %INVALID;
     1337    36145    3                   END;
     1338    36146    2           CASE( %XSP_PEV_PTKGREQ);                /* TABLE 26 */
     1339    36147    3               DO CASE( PCTX.STATE);
     1340    36148    3                   CASE( %XSP_PST_AC0,
     1341    36149    3                         %XSP_PST_AC1,
     1342    36150    3                         %XSP_PST_AC2,
     1343    36151    3                         %XSP_PST_T0);
     1344    36152                            %EVENT( EV=%XSP_PEV_STKGREQ);
     1345    36155    3                   CASE( ELSE);
     1346    36156                            %INVALID;
     1347    36159    3                   END;
     1348    36160    2           CASE( %XSP_PEV_PTKPREQ);                /* TABLE 26 */
     1349    36161    3               DO CASE( PCTX.STATE);
     1350    36162    3                   CASE( %XSP_PST_AC0,
     1351    36163    3                         %XSP_PST_AC2);
PL6.E3A0      #001=XSP$MACHINE File=XSP$MACHINE.:XSA1TSI                         WED 10/01/97 12:04 Page:39
     1352    36164                            %IFPREDDO( P="07");
     1353    36263                                %EVENT( EV=%XSP_PEV_STKPREQ);
     1354    36266    4                           END;
     1355    36267                            %ENDPREDDO;
     1356    36272    3                   CASE( %XSP_PST_AC1,
     1357    36273    3                         %XSP_PST_T0);
     1358    36274                            %IFPREDDO( P="05");
     1359    36373                                %EVENT( EV=%XSP_PEV_STKPREQ);
     1360    36376    4                           END;
     1361    36377                            %ENDPREDDO;
     1362    36382    3                   CASE( ELSE);
     1363    36383                            %INVALID;
     1364    36386    3                   END;
     1365    36387    2           CASE( %XSP_PEV_PTYDREQ);                /* TABLE 25 */
     1366    36388    3               DO CASE( PCTX.STATE);
     1367    36389    3                   CASE( %XSP_PST_AC0,
     1368    36390    3                         %XSP_PST_AC2);
     1369    36391                            %IFPREDDO( P="07&14");
     1370    36575                                %EVENT( EV=%XSP_PEV_TTD);
     1371    36578    4                           END;
     1372    36579                            %ENDPREDDO;
     1373    36584    3                   CASE( %XSP_PST_AC1,
     1374    36585    3                         %XSP_PST_T0);
     1375    36586                            %IFPREDDO( P="05&14");
     1376    36770                                %EVENT( EV=%XSP_PEV_TTD);
     1377    36773    4                           END;
     1378    36774                            %ENDPREDDO;
     1379    36779    3                   CASE( ELSE);
     1380    36780                            %INVALID;
     1381    36783    3                   END;
     1382    36784    2           CASE( %XSP_PEV_PUABREQ);                /* TABLE 23 */
     1383    36785    3               DO CASE( PCTX.STATE);
     1384    36786    3                   CASE( %XSP_PST_I1,
     1385    36787    3                         %XSP_PST_I2);
     1386    36788                            %IFPREDDO( P="03");
     1387    36887                                %EVENT( EV=%XSP_PEV_ARU);
     1388    36890    4                           PCTX.STATE = %XSP_PST_I0;
PL6.E3A0      #001=XSP$MACHINE File=XSP$MACHINE.:XSA1TSI                         WED 10/01/97 12:04 Page:40
     1389    36891    4                           END;
     1390    36892                            %ENDPREDDO;
     1391    36897    3                   CASE( %XSP_PST_AC0,
     1392    36898    3                         %XSP_PST_AC2);
     1393    36899                            %IFPREDDO( P="07");
     1394    36998                                %EVENT( EV=%XSP_PEV_ARU);
     1395    37001    4                           PCTX.STATE = %XSP_PST_I0;
     1396    37002    4                           END;
     1397    37003                            %ENDPREDDO;
     1398    37008    3                   CASE( %XSP_PST_AC1,
     1399    37009    3                         %XSP_PST_T0);
     1400    37010                            %IFPREDDO( P="05");
     1401    37109                                %EVENT( EV=%XSP_PEV_ARU);
     1402    37112    4                           PCTX.STATE = %XSP_PST_I0;
     1403    37113    4                           END;
     1404    37114                            %ENDPREDDO;
     1405    37119    3                   CASE( ELSE);
     1406    37120                            %INVALID;
     1407    37123    3                   END;
     1408    37124    2           CASE( %XSP_PEV_PUERREQ);                /* TABLE 28 */
     1409    37125    3               DO CASE( PCTX.STATE);
     1410    37126    3                   CASE( %XSP_PST_AC0,
     1411    37127    3                         %XSP_PST_AC2);
     1412    37128                            %IFPREDDO( P="07");
     1413    37227                                %EVENT( EV=%XSP_PEV_SUERREQ);
     1414    37230    4                           PCTX.STATE = %XSP_PST_T0;
     1415    37231    4                           END;
     1416    37232                            %ENDPREDDO;
     1417    37237    3                   CASE( %XSP_PST_AC1,
     1418    37238    3                         %XSP_PST_T0);
     1419    37239                            %IFPREDDO( P="05");
     1420    37338                                %EVENT( EV=%XSP_PEV_SUERREQ);
     1421    37341    4                           PCTX.STATE = %XSP_PST_T0;
     1422    37342    4                           END;
     1423    37343                            %ENDPREDDO;
     1424    37348    3                   CASE( ELSE);
     1425    37349                            %INVALID;
PL6.E3A0      #001=XSP$MACHINE File=XSP$MACHINE.:XSA1TSI                         WED 10/01/97 12:04 Page:41
     1426    37352    3                   END;
     1427    37353        %EJECT;
PL6.E3A0      #001=XSP$MACHINE File=XSP$MACHINE.:XSA1TSI                         WED 10/01/97 12:04 Page:42
     1428    37354    2           CASE( ELSE);
     1429    37355                    %INVALID;
     1430    37358    2           END;
     1431    37359    2       DO WHILE( %FALSE);
     1432    37360    2   EVNTERR:
     1433    37361                /* the EVNT routine ALTRETURNed because of some internal error */
     1434    37362    2           GOTO DONE;
     1435    37363    2           END;
     1436    37364        /*****************************************************************************
     1437    37365        *                                                                            *
     1438    37366        *       Done with state machine; record state and light outa here            *
     1439    37367        *                                                                            *
     1440    37368        *****************************************************************************/
     1441    37369    1       I = PCTX.HISTX;
     1442    37370    1       PCTX.HIST.NXTST( I) = PCTX.STATE;  /* record new state in hist buffer */
     1443    37371    1   DONE:
     1444    37372    2       IF PCTX.ABORTING THEN DO;
     1445    37373                /* There was a problem handling the application's request
     1446    37374                   (probably the connection was dropped out from under it) or a
     1447    37375                   PPDU was received that is inconsistent with connection state,
     1448    37376                   so we force a 'provider abort'.                              */
     1449    37377    3           IF PCTX.STATE > %XSP_PST_I0 THEN DO;
     1450    37378    3               CALL EVNT( %XSP_PEV_ARP);  /* ignore possible ALTRETURN */
     1451    37379    3               CALL EVNT( %XSP_PEV_PPABIND);  /* ignore possible ALTRETURN */
     1452    37380    3               PCTX.STATE = %XSP_PST_I0;
     1453    37381    3               END;
     1454    37382    2           END;
     1455    37383    2       IF PCTX.STATE = %XSP_PST_I0 THEN DO;
     1456    37384                /* State is 'Idle, no connection' so release context */
     1457    37385    2           CALL XSP$RELCTX( VBLK.CTX$);
     1458    37386    2           IF PCTX.ABORTING THEN
     1459    37387                    /* during this trip thru the state machine, connection aborted */
     1460    37388                    /* have E$STATE or other error reported to user */
     1461    37389    2               ALTRETURN;
     1462    37390    2           END;
     1463    37391    2       IF PCTX.STATE > 127 THEN DO;
     1464    37392                /* There was a user request inconsistent with connection state. */
PL6.E3A0      #001=XSP$MACHINE File=XSP$MACHINE.:XSA1TSI                         WED 10/01/97 12:04 Page:43
     1465    37393    2           PCTX.STATE = PCTX.STATE - 128;
     1466    37394                /* have E$STATE reported to user */
     1467    37395    2           ALTRETURN;
     1468    37396    2           END;
     1469    37397    1       RETURN;
     1470    37398        %EJECT;
PL6.E3A0      #001=XSP$MACHINE File=XSP$MACHINE.:XSA1TSI                         WED 10/01/97 12:04 Page:44
     1471    37399        /*****************************************************************************
     1472    37400        *                                                                            *
     1473    37401        *       EVNT Routine                                                         *
     1474    37402        *                                                                            *
     1475    37403        *****************************************************************************/
     1476    37404    1   EVNT: PROC( EVENT) ALTRET;
     1477    37405    2       DCL EVENT UBIN;
     1478    37406            /* This table maps events destined for the Presentation-user into the
     1479    37407               function code identifying the Presentation FPT the user receives. */
     1480    37408    2       DCL PEV_TO_FNC(0:33) UBIN BYTE CONSTANT CALIGNED INIT(
     1481    37409    2           %XSP_FNC_PACDIND#,      /* XSP_PEV_PACDIND */
     1482    37410    2           %XSP_FNC_PACDCNF#,      /* XSP_PEV_PACDCNF */
     1483    37411    2           %XSP_FNC_PACEIND#,      /* XSP_PEV_PACEIND */
     1484    37412    2           %XSP_FNC_PACECNF#,      /* XSP_PEV_PACECNF */
     1485    37413    2           %XSP_FNC_PACIIND#,      /* XSP_PEV_PACIIND */
     1486    37414    2           %XSP_FNC_PACICNF#,      /* XSP_PEV_PACICNF */
     1487    37415    2           %XSP_FNC_PACRIND#,      /* XSP_PEV_PACRIND */
     1488    37416    2           %XSP_FNC_PACSIND#,      /* XSP_PEV_PACSIND */
     1489    37417    2           %XSP_FNC_PALTIND#,      /* XSP_PEV_PALTIND */
     1490    37418    2           %XSP_FNC_PALTCNF#,      /* XSP_PEV_PALTCNF */
     1491    37419    2           %XSP_FNC_PCADIND#,      /* XSP_PEV_PCADIND */
     1492    37420    2           %XSP_FNC_PCADCNF#,      /* XSP_PEV_PCADCNF */
     1493    37421    2           %XSP_FNC_PCTGIND#,      /* XSP_PEV_PCTGIND */
     1494    37422    2           %XSP_FNC_PCONIND#,      /* XSP_PEV_PCONIND */
     1495    37423    2           %XSP_FNC_PCONCNF#,      /* XSP_PEV_PCONCFP */
     1496    37424    2           %XSP_FNC_PCONCNF#,      /* XSP_PEV_PCONCFN */
     1497    37425    2           %XSP_FNC_PDATIND#,      /* XSP_PEV_PDATIND */
     1498    37426    2           %XSP_FNC_PEXPIND#,      /* XSP_PEV_PEXPIND */
     1499    37427    2           %XSP_FNC_PTKGIND#,      /* XSP_PEV_PTKGIND */
     1500    37428    2           %XSP_FNC_PTKPIND#,      /* XSP_PEV_PTKPIND */
     1501    37429    2           %XSP_FNC_PRELIND#,      /* XSP_PEV_PRELIND */
     1502    37430    2           %XSP_FNC_PRELCNF#,      /* XSP_PEV_PRELCFP */
     1503    37431    2           %XSP_FNC_PRELCNF#,      /* XSP_PEV_PRELCFN */
     1504    37432    2           %XSP_FNC_PRSXIND#,      /* XSP_PEV_PRSXIND */
     1505    37433    2           %XSP_FNC_PRSXCNF#,      /* XSP_PEV_PRSXCNF */
     1506    37434    2           %XSP_FNC_PSMAIND#,      /* XSP_PEV_PSMAIND */
     1507    37435    2           %XSP_FNC_PSMACNF#,      /* XSP_PEV_PSMACNF */
PL6.E3A0      #001=XSP$MACHINE File=XSP$MACHINE.:XSA1TSI                         WED 10/01/97 12:04 Page:45
     1508    37436    2           %XSP_FNC_PSMIIND#,      /* XSP_PEV_PSMIIND */
     1509    37437    2           %XSP_FNC_PSMICNF#,      /* XSP_PEV_PSMICNF */
     1510    37438    2           %XSP_FNC_PTYDIND#,      /* XSP_PEV_PTYDIND */
     1511    37439    2           %XSP_FNC_PUABIND#,      /* XSP_PEV_PUABIND */
     1512    37440    2           %XSP_FNC_PUERIND#,      /* XSP_PEV_PUERIND */
     1513    37441    2           %XSP_FNC_PPABIND#,      /* XSP_PEV_PPABIND */
     1514    37442    2           %XSP_FNC_PPERIND#);     /* XSP_PEV_PPERIND */
     1515    37443
     1516    37444    2       IF EVENT < %XSP_PEV_SACDREQ THEN
     1517    37445    2           GOTO SEND_PPDU;
     1518    37446    3       IF EVENT >= %XSP_PEV_SACDREQ AND EVENT <= %XSP_PEV_SCONCFN THEN DO;
     1519    37447                /* this is a Session event */
     1520    37448    3           IF BINBIT( EVENT, 1) THEN
     1521    37449                    /* these can only be destined for the other endpoint */
     1522    37450    3               CALL XSS$SCREECH( XSP_F$EVNTERR);
     1523    37451    3           VBLK.EVENT = EVENT;
     1524    37452    3           CALL XSP$SSEND( VBLK)
     1525    37453    4           WHENALTRETURN DO;
     1526    37454    4               PCTX.ABORTING = %TRUE;
     1527    37455    4               ALTRETURN;
     1528    37456    4               END;
     1529    37457    3           RETURN;
     1530    37458    3           END;
     1531    37459            /* determine whether event is to be reported to this user or other end */
     1532    37460    3       IF BINBIT( EVENT, 1) THEN DO;
     1533    37461                /* odd event number means report it (as FPT) to this user */
     1534    37462    3           XSP$GENERIC.FNC = PEV_TO_FNC( EVENT / 2 - 32);
     1535    37463    3           IF XSS_TRACE > 0 THEN
     1536    37464    3               CALL XSP$DUMPFPT( XSP$GENERIC);
     1537    37465    4           IF PCTX.ENTRY$ ~= ENTADDR( NIL) THEN DO;
     1538    37466    4               CALL PCTX.ENTRY$( XSP$GENERIC)
     1539    37467    5               WHENALTRETURN DO;
     1540    37468    5                   PCTX.ABORTING = %TRUE;
     1541    37469    5                   END;
     1542    37470    4               END;
     1543    37471    3           ELSE
     1544    37472                    /* no Presentation-user handler routine defined.  Oops! */
PL6.E3A0      #001=XSP$MACHINE File=XSP$MACHINE.:XSA1TSI                         WED 10/01/97 12:04 Page:46
     1545    37473    3               CALL XSS$SCREECH( XSP_F$NOPRES);
     1546    37474    3           END;
     1547    37475    3       ELSE DO;
     1548    37476                /* even event number means send it (as PPDU) to the other end */
     1549    37477    3   SEND_PPDU:
     1550    37478    3           VBLK.EVENT = EVENT;
     1551    37479    3           CALL XSP$ENCODE( VBLK)
     1552    37480    4           WHENALTRETURN DO;
     1553    37481    4               PCTX.ABORTING = %TRUE;
     1554    37482    4               END;
     1555    37483    3           END;
     1556    37484    2       IF PCTX.ABORTING THEN
     1557    37485    2           ALTRETURN;
     1558    37486    2       RETURN;
     1559    37487
     1560    37488    2       END EVNT;
     1561    37489        %EJECT;
PL6.E3A0      #001=XSP$MACHINE File=XSP$MACHINE.:XSA1TSI                         WED 10/01/97 12:04 Page:47
     1562    37490        /*****************************************************************************
     1563    37491        *                                                                            *
     1564    37492        *       OOPS Routine                                                         *
     1565    37493        *                                                                            *
     1566    37494        *****************************************************************************/
     1567    37495    1   OOPS: PROC;
     1568    37496
     1569    37497            /* An illegal state/event combination was detected */
     1570    37498    2       IF VBLK.EVENT < %XSP_PEV_PACDREQ THEN
     1571    37499                /* Illegal incoming PPDU or Session event, so abort connection */
     1572    37500    2           PCTX.ABORTING = %TRUE;
     1573    37501    2       ELSE
     1574    37502                /* Illegal event was a user request, so just crab about it */
     1575    37503    2           PCTX.STATE = PCTX.STATE + 128;
     1576    37504    2       RETURN;
     1577    37505
     1578    37506    2       END OOPS;
     1579    37507        %EJECT;
PL6.E3A0      #001=XSP$MACHINE File=XSP$MACHINE.:XSA1TSI                         WED 10/01/97 12:04 Page:48
     1580    37508        /*****************************************************************************
     1581    37509        *                                                                            *
     1582    37510        *       ACTIONxx Routines                                                    *
     1583    37511        *                                                                            *
     1584    37512        *****************************************************************************/
     1585    37513    1   ACTION00: PROC;
     1586    37514
     1587    37515    2   ACTION01: ENTRY;
     1588    37516
     1589    37517            /* "Mark presentation contexts proposed for definition which provider
     1590    37518                cannot support as 'provider-rejection'." */
     1591    37519            /* Events:  CP AC */
     1592    37520    3       DO I = 1 TO %MAXBITS;
     1593    37521    4           IF CMAP.STATE( I) = %XSP_CMAP_RMTDEF THEN DO;
     1594    37522    4               IF CMAP.ABSCTXTID( I) = 0 THEN
     1595    37523    4                   CMAP.RESULT( I) = %XSP_RSLT_PREJECT;
     1596    37524    4               END;
     1597    37525    3           END;
     1598    37526    2       RETURN;
     1599    37527
     1600    37528    2   ACTION02: ENTRY;
     1601    37529
     1602    37530            /* "Set cr and rl to FALSE." */
     1603    37531            /* Events:  PCONREQ CP PRELRSP SRELCNP PRELRSN SRELCNN */
     1604    37532    2       PCTX.FLAGS.CR = %FALSE;
     1605    37533    2       PCTX.FLAGS.RL = %FALSE;
     1606    37534    2       RETURN;
     1607    37535
     1608    37536    2   ACTION03: ENTRY;
     1609    37537
     1610    37538            /* "Record abstract and transfer syntaxes for the presentation contexts
     1611    37539                of the agreed DCS and for the default context." */
     1612    37540            /* Events:  CPA */
     1613    37541    2       PCTX.INIDCSMASK = VBLK.DEFMASK;
     1614    37542    2       PCTX.CURDCSMASK = VBLK.DEFMASK;
     1615    37543    2       PCTX.DFLCTXTID = CMAP.ABSCTXTID(0);
     1616    37544    2       RETURN;
PL6.E3A0      #001=XSP$MACHINE File=XSP$MACHINE.:XSA1TSI                         WED 10/01/97 12:04 Page:49
     1617    37545
     1618    37546    2   ACTION04: ENTRY;
     1619    37547
     1620    37548            /* "Propose at least one transfer syntax for each presentation
     1621    37549                context." */
     1622    37550            /* Events:  PCONREQ PALTREQ */
     1623    37551    3       DO I = 1 TO %MAXBITS;
     1624    37552    3           IF CMAP.STATE( I) = %XSP_CMAP_LCLDEF THEN
     1625    37553    3               CMAP.TFRCTXTID( I) = 1;  /*N* hardwired ISO 8825 syntax index */
     1626    37554    3           END;
     1627    37555    2       RETURN;
     1628    37556
     1629    37557    2   ACTION05: ENTRY;
     1630    37558
     1631    37559            /* "Propose a transfer syntax for the default context if one is named in
     1632    37560                the request service primitive." */
     1633    37561            /* Events:  PCONREQ */
     1634    37562    2       IF CMAP.STATE(0) = %XSP_CMAP_LCLDEF THEN
     1635    37563    2           CMAP.TFRCTXTID(0) = 1;  /*N* hardwired ISO 8825 syntax index */
     1636    37564    2       RETURN;
     1637    37565
     1638    37566    2   ACTION06: ENTRY;
     1639    37567
     1640    37568            /* "Select one transfer syntax for each presentation context agreed for
     1641    37569                definition and include the agreed presentation context in the DCS." */
     1642    37570            /* Events:  PCONRSP PCONRSN PALTRSP */
     1643    37571    3       DO I = 1 TO %MAXBITS;
     1644    37572    3           IF CMAP.STATE( I) = %XSP_CMAP_RMTDEF THEN
     1645    37573    3               CMAP.STATE( I) = %XSP_CMAP_ACTIVE;
     1646    37574    3           END;
     1647    37575    2       PCTX.INIDCSMASK = VBLK.DEFMASK;
     1648    37576    2       PCTX.CURDCSMASK = VBLK.DEFMASK;
     1649    37577    2       RETURN;
     1650    37578
     1651    37579    2   ACTION07: ENTRY;
     1652    37580
     1653    37581            /* "Set rl to TRUE." */
PL6.E3A0      #001=XSP$MACHINE File=XSP$MACHINE.:XSA1TSI                         WED 10/01/97 12:04 Page:50
     1654    37582            /* Events:  PRELREQ SRELIND */
     1655    37583    2       PCTX.FLAGS.RL = %TRUE;
     1656    37584    2       RETURN;
     1657    37585
     1658    37586    2   ACTION08: ENTRY;
     1659    37587
     1660    37588            /* "If rl is TRUE then set cr to TRUE." */
     1661    37589            /* Events:  PRELREQ SRELIND */
     1662    37590    2       IF PCTX.FLAGS.RL THEN
     1663    37591    2           PCTX.FLAGS.CR = %TRUE;
     1664    37592    2       RETURN;
     1665    37593
     1666    37594    2   ACTION09: ENTRY;
     1667    37595
     1668    37596            /* "If aep is TRUE then:
     1669    37597                    a) set aep to FALSE; and
     1670    37598                    b) if FU(CR) is TRUE then the synchronization points associated
     1671    37599                       with the last activity no longer have associated DCSs." */
     1672    37600            /* Events:  AC TD TTD TE TC */
     1673    37601            /* Events:  STKGIND STKPIND SCTGIND SACSIND SACRIND SACDIND */
     1674    37602    3       IF PCTX.FLAGS.AEP THEN DO;
     1675    37603    3           PCTX.FLAGS.AEP = %FALSE;
     1676    37604    4           IF PCTX.FU.CR THEN DO;
     1677    37605    4               ;  /*N*  TBD */
     1678    37606    4               END;
     1679    37607    3           END;
     1680    37608    2       RETURN;
     1681    37609
     1682    37610    2   ACTION10: ENTRY;
     1683    37611
     1684    37612            /* "Record selected transfer syntax for each new presentation context and
     1685    37613                include new presentation contexts in the DCS." */
     1686    37614            /* Events:  ACA */
     1687    37615    2       ;  /*N*  TBD */
     1688    37616    2       RETURN;
     1689    37617
     1690    37618    2   ACTION11: ENTRY;
PL6.E3A0      #001=XSP$MACHINE File=XSP$MACHINE.:XSA1TSI                         WED 10/01/97 12:04 Page:51
     1691    37619
     1692    37620            /* "Remove the presentation contexts agreed for deletion from the DCS." */
     1693    37621            /* Events:  PALTRSP ACA */
     1694    37622    2       ;  /*N*  TBD */
     1695    37623    2       RETURN;
     1696    37624
     1697    37625    2   ACTION12: ENTRY;
     1698    37626
     1699    37627            /* "Record FU(f) for f in fu-dom according to the presentation
     1700    37628                requirements in the CPA PPDU." */
     1701    37629            /* Events:  PCONRSP CPA */
     1702    37630    2       PCTX.FU = XSP$CONNECT.PFU;
     1703    37631    2       RETURN;
     1704    37632
     1705    37633    2   ACTION13: ENTRY;
     1706    37634
     1707    37635            /* "If FU(CR) then associate the DCS with the syncpoint identifier." */
     1708    37636            /* Events:  PSMIRSP PSMIIND PSMARSP SSMACNF */
     1709    37637    2       ;  /*N*  TBD */
     1710    37638    2       RETURN;
     1711    37639
     1712    37640    2   ACTION14: ENTRY;
     1713    37641
     1714    37642            /* "If FU(CR) and an activity is in progress, set the DCS to the
     1715    37643                inter-activity DCS." */
     1716    37644            /* Events:  PACERSP SACECNF PACIRSP SACICNF PACDRSP SACDCNF */
     1717    37645    2       ;  /*N*  TBD */
     1718    37646    2       RETURN;
     1719    37647
     1720    37648    2   ACTION15: ENTRY;
     1721    37649
     1722    37650            /* "Set aep to TRUE." */
     1723    37651            /* Events:  PACERSP */
     1724    37652    2       PCTX.FLAGS.AEP = %TRUE;
     1725    37653    2       RETURN;
     1726    37654
     1727    37655    2   ACTION16: ENTRY;
PL6.E3A0      #001=XSP$MACHINE File=XSP$MACHINE.:XSA1TSI                         WED 10/01/97 12:04 Page:52
     1728    37656
     1729    37657            /* "Set the DCS to that associated with the syncpoint identifier." */
     1730    37658            /* Events:  PACRREQ SACRIND RS */
     1731    37659    2       ;  /*N*  TBD */
     1732    37660    2       RETURN;
     1733    37661
     1734    37662    2   ACTION17: ENTRY;
     1735    37663
     1736    37664            /* "If FU(CR) then remember the DCS as the inter-activity DCS." */
     1737    37665            /* Events:  PACSREQ SACSIND PACRREQ SACRIND */
     1738    37666    2       IF PCTX.FU.CR THEN
     1739    37667    2           PCTX.ACTDCSMASK = PCTX.CURDCSMASK;
     1740    37668    2       RETURN;
     1741    37669
     1742    37670    2   ACTION18: ENTRY;
     1743    37671
     1744    37672            /* "Set the DCS to that agreed during presentation-connection
     1745    37673                establishment." */
     1746    37674            /* Events:  PRSXREQ RS */
     1747    37675    2       PCTX.CURDCSMASK = PCTX.INIDCSMASK;
     1748    37676    2       RETURN;
     1749    37677
     1750    37678    2   ACTION19: ENTRY;
     1751    37679
     1752    37680            /* "Eliminate any associations between syncpoint serial number and the
     1753    37681                DCS for the current activity." */
     1754    37682            /* Events:  SACECNF PACDRSP SACDCNF */
     1755    37683    2       ;  /*N*  TBD */
     1756    37684    2       RETURN;
     1757    37685
     1758    37686    2   ACTION20: ENTRY;
     1759    37687
     1760    37688            /* "Set aep to FALSE." */
     1761    37689            /* Events:  PCONREQ CP SACIIND */
     1762    37690    2       PCTX.FLAGS.AEP = %FALSE;
     1763    37691    2       RETURN;
     1764    37692
PL6.E3A0      #001=XSP$MACHINE File=XSP$MACHINE.:XSA1TSI                         WED 10/01/97 12:04 Page:53
     1765    37693    2   ACTION21: ENTRY;
     1766    37694
     1767    37695            /* "Set the DCS as specified by the Presentation context identifier list
     1768    37696                parameter of the PPDU." */
     1769    37697            /* Events:  RS RSA */
     1770    37698    2       ;  /*N*  TBD */
     1771    37699    2       RETURN;
     1772    37700
     1773    37701    2   ACTION22: ENTRY;
     1774    37702
     1775    37703            /* "If FU(CR), then eliminate any associations between syncpoint
     1776    37704                identifiers and DCSs." */
     1777    37705            /* Events:  PSMARSP SSMACNF */
     1778    37706    2       ;  /*N*  TBD */
     1779    37707    2       RETURN;
     1780    37708
     1781    37709    2       END ACTION00;
     1782    37710        %EJECT;
PL6.E3A0      #001=XSP$MACHINE File=XSP$MACHINE.:XSA1TSI                         WED 10/01/97 12:04 Page:54
     1783    37711        /*****************************************************************************
     1784    37712        *                                                                            *
     1785    37713        *       PREDxx Routines                                                      *
     1786    37714        *                                                                            *
     1787    37715        *****************************************************************************/
     1788    37716    1   PRED00: PROC;
     1789    37717
     1790    37718    2   PRED01: ENTRY;
     1791    37719
     1792    37720            /* "The presentation-connection is acceptable to the PPM (local
     1793    37721                matter)." */
     1794    37722            /* Events:  CP */
     1795    37723    2       IF VBLK.PPDUERR = 0 THEN
     1796    37724    2           PRED(1) = %TRUE;
     1797    37725    2       PINV(1) = %FALSE;
     1798    37726    2       RETURN;
     1799    37727
     1800    37728    2   PRED02: ENTRY;
     1801    37729
     1802    37730            /* "If present, the named default context can be supported." */
     1803    37731            /* Events:  PCONREQ CP */
     1804    37732    2       IF XSP$CONNECT.DFLTRSLT = %XSP_RSLT_ACCEPT THEN
     1805    37733    2           PRED(2) = %TRUE;
     1806    37734    2       PINV(2) = %FALSE;
     1807    37735    2       RETURN;
     1808    37736
     1809    37737    2   PRED03: ENTRY;
     1810    37738
     1811    37739            /* "Each presentation data value is from a presentation context of the DCS
     1812    37740                proposed in the presentation-connection establishment, or from the
     1813    37741                default context if this DCS is empty." */
     1814    37742            /* Events:  PCONREQ CP PUABREQ ARU */
     1815    37743    2       IF VBLK.DEFMASK = '0'O THEN
     1816    37744    2   CHECKDFL3:
     1817    37745    3                                   DO;
     1818    37746                /* no contexts were proposed for DCS */
     1819    37747    4           DO I = 1 TO %MAXBITS;
PL6.E3A0      #001=XSP$MACHINE File=XSP$MACHINE.:XSA1TSI                         WED 10/01/97 12:04 Page:55
     1820    37748    4               IF VBLK.DATBITS( I) THEN
     1821    37749    4                   IF I ~= CMAP.ABSCTXTID(0) THEN
     1822    37750                            /* here's a context used but not the default context */
     1823    37751    4                       EXIT CHECKDFL3;
     1824    37752    4               END;
     1825    37753                /* only the default context is used */
     1826    37754    3           PRED(3) = %TRUE;
     1827    37755    3           END;
     1828    37756    2       ELSE
     1829    37757    2   CHECKDCS3:
     1830    37758    3            DO;
     1831    37759                /* at least one context was proposed for DCS */
     1832    37760    4           DO I = 1 TO %MAXBITS;
     1833    37761    4               IF VBLK.DATBITS( I) THEN
     1834    37762    4                   IF NOT VBLK.DEFBITS( I) THEN
     1835    37763                            /* here's a context used but not defined */
     1836    37764    4                       EXIT CHECKDCS3;
     1837    37765    4               END;
     1838    37766                /* every context used has been defined */
     1839    37767    3           PRED(3) = %TRUE;
     1840    37768    3           END;
     1841    37769    2       PINV(3) = %FALSE;
     1842    37770    2       RETURN;
     1843    37771
     1844    37772    2   PRED04: ENTRY;
     1845    37773
     1846    37774            /* "Each presentation data value is from a presentation context of the DCS
     1847    37775                accepted in the presentation-connection establishment, or from the
     1848    37776                default context if this DCS is empty." */
     1849    37777            /* Events:  PCONRSP CPA PCONRSN CPR */
     1850    37778    2       IF VBLK.DEFMASK = '0'O THEN
     1851    37779    2   CHECKDFL4:
     1852    37780    3                                   DO;
     1853    37781                /* no contexts were accepted */
     1854    37782    4           DO I = 1 TO %MAXBITS;
     1855    37783    4               IF VBLK.DATBITS( I) THEN
     1856    37784    4                   IF I ~= CMAP.ABSCTXTID(0) THEN
PL6.E3A0      #001=XSP$MACHINE File=XSP$MACHINE.:XSA1TSI                         WED 10/01/97 12:04 Page:56
     1857    37785                            /* here's a context used but not the default context */
     1858    37786    4                       EXIT CHECKDFL4;
     1859    37787    4               END;
     1860    37788                /* only the default context is used */
     1861    37789    3           PRED(4) = %TRUE;
     1862    37790    3           END;
     1863    37791    2       ELSE
     1864    37792    2   CHECKDCS4:
     1865    37793    3            DO;
     1866    37794                /* at least one context was proposed for DCS */
     1867    37795    4           DO I = 1 TO %MAXBITS;
     1868    37796    4               IF VBLK.DATBITS( I) THEN
     1869    37797    4                   IF CMAP.STATE( I) ~= %XSP_CMAP_ACTIVE THEN
     1870    37798                            /* here's a context used but not accepted */
     1871    37799    4                       EXIT CHECKDCS4;
     1872    37800    4               END;
     1873    37801                /* every context used has been accepted */
     1874    37802    3           PRED(4) = %TRUE;
     1875    37803    3           END;
     1876    37804    2       PINV(4) = %FALSE;
     1877    37805    2       RETURN;
     1878    37806
     1879    37807    2   PRED05: ENTRY;
     1880    37808
     1881    37809            /* "Each presentation data value is from presentation contexts of the DCS,
     1882    37810                or from the default context if the DCS is empty." */
     1883    37811            /* Events:  (many) */
     1884    37812    2       IF PCTX.CURDCSMASK = '000000000000'O THEN
     1885    37813                /*N* ..AND ONE_BIT_SET_IN( VBLK.DATBITS) */
     1886    37814    2           PRED(5) = VBLK.DATBITS( PCTX.DFLCTXTID);
     1887    37815    2       ELSE
     1888    37816    2           IF PCTX.CURDCSMASK = ( VBLK.DATMASK | PCTX.CURDCSMASK) THEN
     1889    37817    2               PRED(5) = %TRUE;
     1890    37818    2       PINV(5) = %FALSE;
     1891    37819    2       RETURN;
     1892    37820
     1893    37821    2   PRED06: ENTRY;
PL6.E3A0      #001=XSP$MACHINE File=XSP$MACHINE.:XSA1TSI                         WED 10/01/97 12:04 Page:57
     1894    37822
     1895    37823            /* "Each presentation data value is from presentation contexts of the DCS
     1896    37824                not proposed for deletion from the DCS by the peer PPM." */
     1897    37825            /* Events:  (many) */
     1898    37826    2       ;  /*N*  TBD */
     1899    37827    2       PINV(6) = %FALSE;
     1900    37828    2       RETURN;
     1901    37829
     1902    37830    2   PRED07: ENTRY;
     1903    37831
     1904    37832            /* "Each presentation data value is from presentation contexts of the DCS
     1905    37833                not proposed for deletion from the DCS by the local PPM." */
     1906    37834            /* Events:  (many) */
     1907    37835    2       ;  /*N*  TBD */
     1908    37836    2       PINV(7) = %FALSE;
     1909    37837    2       RETURN;
     1910    37838
     1911    37839    2   PRED08: ENTRY;
     1912    37840
     1913    37841            /* "The value of cr is TRUE." */
     1914    37842            /* Events:  PRELRSP SRELCFP */
     1915    37843    2       PRED(8) = PCTX.FLAGS.CR;
     1916    37844    2       PINV(8) = %FALSE;
     1917    37845    2       RETURN;
     1918    37846
     1919    37847    2   PRED09: ENTRY;
     1920    37848
     1921    37849            /* "Each presentation data value is from presentation contexts of the DCS
     1922    37850                not accepted for deletion from the DCS, or from presentation contexts
     1923    37851                accepted for addition to the DCS, or if no such presentation contexts
     1924    37852                are available, from the default context." */
     1925    37853            /* Events:  PALTRSP ACA */
     1926    37854    2       ;  /*N*  TBD */
     1927    37855    2       PINV(9) = %FALSE;
     1928    37856    2       RETURN;
     1929    37857
     1930    37858    2   PRED10: ENTRY;
PL6.E3A0      #001=XSP$MACHINE File=XSP$MACHINE.:XSA1TSI                         WED 10/01/97 12:04 Page:58
     1931    37859
     1932    37860            /* (predicate 10 is not defined by the spec) */
     1933    37861            /* Events:  (none) */
     1934    37862    2       RETURN;
     1935    37863
     1936    37864    2   PRED11: ENTRY;
     1937    37865
     1938    37866            /* "FU(CM) is TRUE." */
     1939    37867            /* Events:  PALTREQ AC PRSXREQ RS PRSXRSP RSA */
     1940    37868    2       PRED(11) = PCTX.FU.CM;
     1941    37869    2       PINV(11) = %FALSE;
     1942    37870    2       RETURN;
     1943    37871
     1944    37872    2   PRED12: ENTRY;
     1945    37873
     1946    37874            /* (predicate 12 is not defined by the spec) */
     1947    37875            /* Events:  (none) */
     1948    37876    2       RETURN;
     1949    37877
     1950    37878    2   PRED13: ENTRY;
     1951    37879
     1952    37880            /* "Each presentation data value is from the default context." */
     1953    37881            /* Events:  PEXPREQ TE */
     1954    37882    2       ;  /*N*  TBD */
     1955    37883    2       PINV(13) = %FALSE;
     1956    37884    2       RETURN;
     1957    37885
     1958    37886    2   PRED14: ENTRY;
     1959    37887
     1960    37888            /* "FU(CM) is FALSE, or FU(CM) is TRUE and typed data functional unit was
     1961    37889                selected as a User session requirement." */
     1962    37890            /* Events:  PTYDREQ TTD */
     1963    37891    2       IF PCTX.FU.CM THEN
     1964    37892    2           PRED(14) = PCTX.SUR.TD;
     1965    37893    2       ELSE
     1966    37894    2           PRED(14) = %TRUE;
     1967    37895    2       PINV(14) = %FALSE;
PL6.E3A0      #001=XSP$MACHINE File=XSP$MACHINE.:XSA1TSI                         WED 10/01/97 12:04 Page:59
     1968    37896    2       RETURN;
     1969    37897
     1970    37898    2   PRED15: ENTRY;
     1971    37899
     1972    37900            /* "Each presentation data value is from presentation contexts of the DCS
     1973    37901                which was agreed during presentation-connection establishment, or from
     1974    37902                the default context if this DCS is empty." */
     1975    37903            /* Events:  PRSXREQ RS */
     1976    37904    2       ;  /*N*  TBD */
     1977    37905    2       PINV(15) = %FALSE;
     1978    37906    2       RETURN;
     1979    37907
     1980    37908    2   PRED16: ENTRY;
     1981    37909
     1982    37910            /* "Each presentation data value is from presentation contexts of the DCS
     1983    37911                associated with the pair of Old activity identifier and
     1984    37912                Synchronization point serial number parameter values or from the
     1985    37913                default context when this DCS is empty." */
     1986    37914            /* Events:  PACRREQ SACRIND */
     1987    37915    2       ;  /*N*  TBD */
     1988    37916    2       PINV(16) = %FALSE;
     1989    37917    2       RETURN;
     1990    37918
     1991    37919    2   PRED17: ENTRY;
     1992    37920
     1993    37921            /* "FU(CR) is TRUE." */
     1994    37922            /* Events:  (many) */
     1995    37923    2       PRED(17) = PCTX.FU.CR;
     1996    37924    2       PINV(17) = %FALSE;
     1997    37925    2       RETURN;
     1998    37926
     1999    37927    2   PRED18: ENTRY;
     2000    37928
     2001    37929            /* "Each presentation data value is in presentation contexts of the DCS
     2002    37930                associated with the syncpoint identifier or from the default context
     2003    37931                if this DCS is empty." */
     2004    37932            /* Events:  PRSXREQ RS */
PL6.E3A0      #001=XSP$MACHINE File=XSP$MACHINE.:XSA1TSI                         WED 10/01/97 12:04 Page:60
     2005    37933    2       ;  /*N*  TBD */
     2006    37934    2       PINV(18) = %FALSE;
     2007    37935    2       RETURN;
     2008    37936
     2009    37937    2   PRED19: ENTRY;
     2010    37938
     2011    37939            /* "Either no syncpoint identifier is associated with a DCS or the resync
     2012    37940                identifier is not associated with a DCS and is greater than the lowest
     2013    37941                syncpoint identifier which has an associated DCS." */
     2014    37942            /* Events:  PRSXREQ RS PRSXRSP RSA */
     2015    37943    2       ;  /*N*  TBD */
     2016    37944    2       PINV(19) = %FALSE;
     2017    37945    2       RETURN;
     2018    37946
     2019    37947    2   PRED20: ENTRY;
     2020    37948
     2021    37949            /* "The PPDU contains a Presentation context identifier list
     2022    37950                parameter." */
     2023    37951            /* Events:  (none) */
     2024    37952    2       ;  /*N*  TBD */
     2025    37953    2       PINV(20) = %FALSE;
     2026    37954    2       RETURN;
     2027    37955
     2028    37956    2   PRED21: ENTRY;
     2029    37957
     2030    37958            /* "Each presentation data value is from presentation contexts specified
     2031    37959                in the PPDU, or from the default context if no presentation contexts
     2032    37960                are specified in the PPDU." */
     2033    37961            /* Events:  ARU RS RSA */
     2034    37962    2       ;  /*N*  TBD */
     2035    37963    2       PINV(21) = %FALSE;
     2036    37964    2       RETURN;
     2037    37965
     2038    37966    2   PRED22: ENTRY;
     2039    37967
     2040    37968            /* "For each presentation data value, an instance (chosen as a local
     2041    37969                matter) of encoding is supported by the PPM." */
PL6.E3A0      #001=XSP$MACHINE File=XSP$MACHINE.:XSA1TSI                         WED 10/01/97 12:04 Page:61
     2042    37970            /* Events:  CP */
     2043    37971    2   CHECK22:
     2044    37972    3       DO;
     2045    37973    4           DO I = 1 TO %MAXBITS;
     2046    37974    4               IF VBLK.DATBITS( I) THEN
     2047    37975    4                   IF CMAP.TFRCTXTID( I) ~= 1 THEN
     2048    37976                            /* this data was encoded with non-ISO 8825 syntax */
     2049    37977    4                       EXIT CHECK22;
     2050    37978    4               END;
     2051    37979                /* all user data was encoded with ISO 8825 */
     2052    37980    3           PRED(22) = %TRUE;
     2053    37981    3           END;
     2054    37982    2       PINV(22) = %FALSE;
     2055    37983    2       RETURN;
     2056    37984
     2057    37985    2   PRED23: ENTRY;
     2058    37986
     2059    37987            /* "For each presentation data value the encoding is supported by the
     2060    37988                PPM." */
     2061    37989            /* Events:  ARU */
     2062    37990    2       ;  /*N*  TBD */
     2063    37991    2       PINV(23) = %FALSE;
     2064    37992    2       RETURN;
     2065    37993
     2066    37994    2   PRED24: ENTRY;
     2067    37995
     2068    37996            /* "Each presentation data value is from presentation contexts of the DCS,
     2069    37997                or from presentation contexts proposed for addition to the DCS by the
     2070    37998                local PPM, or from the default context if either the DCS is empty or
     2071    37999                all presentation contexts of the DCS were proposed for deletion by the
     2072    38000                local PPM." */
     2073    38001            /* Events:  ARU */
     2074    38002    2       ;  /*N*  TBD */
     2075    38003    2       PINV(24) = %FALSE;
     2076    38004    2       RETURN;
     2077    38005
     2078    38006    2   PRED25: ENTRY;
PL6.E3A0      #001=XSP$MACHINE File=XSP$MACHINE.:XSA1TSI                         WED 10/01/97 12:04 Page:62
     2079    38007
     2080    38008            /* "Each presentation data value is from presentation contexts of the DCS
     2081    38009                not proposed for deletion by the peer PPM or from presentation
     2082    38010                contexts proposed for addition to the DCS by the local PPM." */
     2083    38011            /* Events:  ARU */
     2084    38012    2       ;  /*N*  TBD */
     2085    38013    2       PINV(25) = %FALSE;
     2086    38014    2       RETURN;
     2087    38015
     2088    38016    2   PRED26: ENTRY;
     2089    38017
     2090    38018            /* "The syncpoint identifier has an associated DCS." */
     2091    38019            /* Events:  PRSXREQ RS PRSXRSP RSA */
     2092    38020    2       ;  /*N*  TBD */
     2093    38021    2       PINV(26) = %FALSE;
     2094    38022    2       RETURN;
     2095    38023
     2096    38024    2   PRED27: ENTRY;
     2097    38025
     2098    38026            /* "Old session connection identifier parameter present." */
     2099    38027            /* Events:  PACRREQ SACRIND */
     2100    38028    2       ;  /*N*  TBD */
     2101    38029    2       PINV(27) = %FALSE;
     2102    38030    2       RETURN;
     2103    38031
     2104    38032    2   PRED28: ENTRY;
     2105    38033
     2106    38034            /* "There is a DCS associated with the pair of Old activity identifier and
     2107    38035                Synchronization point serial number parameters [sic] values." */
     2108    38036            /* Events:  PACRREQ SACRIND */
     2109    38037    2       ;  /*N*  TBD */
     2110    38038    2       PINV(28) = %FALSE;
     2111    38039    2       RETURN;
     2112    38040
     2113    38041    2       END PRED00;
     2114    38042
     2115    38043    1       END XSP$MACHINE;
PL6.E3A0      #001=XSP$MACHINE File=XSP$MACHINE.:XSA1TSI                         WED 10/01/97 12:04 Page:63

PL6.E3A0      #001=XSP$MACHINE File=XSP$MACHINE.:XSA1TSI                         WED 10/01/97 12:04 Page:64
--  Include file information  --

   XSC_PERR_C.:XSA1TOU  is referenced.
   UM_CP6.:E05OU  is referenced.
   XSP_MACHINE_M.:XSA1TOU  is referenced.
   XSP_INTERNAL_M.:XSA1TOU  is referenced.
   XSP_INTERNAL_E.:XSA1TOU  is referenced.
   XSP_PRESENTATION_M.:XSA1TOU  is referenced.
   XSP_PRESENTATION_E.:XSA1TOU  is referenced.
   XSS_SESSION_E.:XSA1TOU  is referenced.
      No diagnostics issued in procedure XSP$MACHINE.

   Procedure XSP$MACHINE requires 6027 words for executable code.
   Procedure XSP$MACHINE requires 18 words of local(AUTO) storage.

    No errors detected in file XSP$MACHINE.:XSA1TSI    .

PL6.E3A0      #001=XSP$MACHINE File=XSP$MACHINE.:XSA1TSI                         WED 10/01/97 12:04 Page:65

 Object Unit name= XSP$MACHINE                                File name= XSP$MACHINE.:XSA1TOU
 UTS= OCT 01 '97 12:04:22.68 WED                              Compiler= PL-6/E31         Sev=      00
 SharedLib= :SHARED_SYSTEM                                    Alt SharedLib=


    ****  Control sections  ****

 Sect   Type Bound  Init  Size OctSiz  Section name(segment info)
    0  RoData even  UTS     13     15  XSP$MACHINE
    1   Proc  even  none  6027  13613  XSP$MACHINE
    2  RoData even  none   173    255  XSP$MACHINE

    ****  Entry defs  ****

                              Check   Calling
                             calling  sequence
  Sect OctLoc Primary Altret sequence   type   Parms  Name
     1      0   yes    yes     yes      Std        1  XSP$MACHINE

  ****  Data defs  ****

 Sect OctLoc  Name                           Sect OctLoc  Name
    0      0  XSP_F$EVNTERR                      0      1  XSP_F$NOPRES
PL6.E3A0      #001=XSP$MACHINE File=XSP$MACHINE.:XSA1TSI                         WED 10/01/97 12:04 Page:66

  ****  Entry refs  ****

         Check        Calling
        calling       sequence
Altret sequence SRef   type   Args  Name
 yes     yes           Std       2 XSS$BUFPTR
 yes     yes           Std       1 XSP$RELCTX
         yes           Std       1 XSS$SCREECH
 yes     yes           Std       1 XSP$SSEND
         yes           Std       1 XSP$DUMPFPT
 yes     yes           Std       1 XSP$ENCODE
                       nStd      0 X66_AUTO_1
                       nStd      0 X66_AALT
                       nStd      0 X66_ARET

  ****  Data refs  ****

  Flags:  r = read only, s = secondary
Flgs Name                             Flgs Name                             Flgs Name
     XSS_TRACE

  ****  Segment refs  ****

  Flags:  r = read only, s = secondary
Flgs Name                             Flgs Name                             Flgs Name
     NULLSID                               ISSID
PL6.E3A0      #001=XSP$MACHINE File=XSP$MACHINE.:XSA1TSI                         WED 10/01/97 12:04 Page:67


        1        1        /*M*    XSP$MACHINE     ISO Presentation Protocol Machine               */
        2        2        /*T***********************************************************/
        3        3        /*T*                                                         */
        4        4        /*T* Copyright (c) Bull HN Information Systems Inc., 1997    */
        5        5        /*T*                                                         */
        6        6        /*T***********************************************************/
        7        7        /*X* DDA */
        8        8        /*P*
        9        9                NAME:   XSP$MACHINE
       10       10                PURPOSE:
       11       11                    This module is the state machine for the ISO Presentation
       12       12                    layer.
       13       13        */
       14       14        /*F*
       15       15                NAME:   XSP$MACHINE
       16       16                PURPOSE:
       17       17                    This module is the state machine for the ISO Presentation
       18       18                    layer.
       19       19                DESCRIPTION:
       20       20                    On entry, the parameter VBLK contains or points to all the
       21       21                    information of interest.  The event being reported is combined
       22       22                    with the current state of the connection and looked up in the
       23       23                    table of permitted actions.  Depending on the particular action
       24       24                    to be performed, other routines are called.  In general, internal
       25       25                    Presentation routines are called, various flags are updated in
       26       26                    the Presentation connection context, the state of the connection
       27       27                    is possibly updated, and the module RETURNs.
       28       28
       29       29                    This module assumes that VBLK.CTX$ points to the Presentation
       30       30                    connection context for this event, and that VBLK.FPT$ points to
       31       31                    a Presentation primitive FPT corresponding to this event.  In
       32       32                    the case of an outgoing event, VBLK.FPT$ points to the user-
       33       33                    supplied Request or Response FPT that caused the event.  In the
       34       34                    case of an incoming event, VBLK.FPT$ points to the library-
       35       35                    supplied Indication or Confirm FPT that will be reported to the
       36       36                    application's Presentation handler.
PL6.E3A0      #001=XSP$MACHINE File=XSP$MACHINE.:XSA1TSI                         WED 10/01/97 12:04 Page:68
       37       37
       38       38                    In the code below, the notation TABLE xx refers to a specific
       39       39                    protocol state machine table in the ISO Presentation protocol
       40       40                    spec.
       41       41        */
       42       42        XSP$MACHINE: PROC( VBLK) ALTRET;

     42  1 000000   000000 700200 xent  XSP$MACHINE  TSX0  ! X66_AUTO_1
         1 000001   000022 000001                    ZERO    18,1

       43       43        %INCLUDE XSS_SESSION_E;
       44      608        %INCLUDE XSP_PRESENTATION_E;
       45      707        %INCLUDE XSP_PRESENTATION_M;
       46     2193            %XSP$PRIMITIVES( STCLASS="BASED( PFPT$)");
       47     3892            %XSP$CTXTLIST( NAME=CLST, STCLASS="BASED( CLST$)");
       48     3919            %XSP$CTXTLIST( NAME=XSP_ABSLIST, STCLASS=SYMREF);
       49     3946            %XSP$CTXTLIST( NAME=XSP_TFRLIST, STCLASS=SYMREF);
       50     3973            %XSP$CTXTNAME( NAME=NAME, STCLASS=BASED);
       51     4015        %INCLUDE XSP_INTERNAL_E;
       52     4289        %INCLUDE XSP_INTERNAL_M;
       53     4950            %XSP$PCTX( NAME=PCTX, STCLASS="BASED( PCTX$)");
       54     5106            %XSP$VBLK( NAME=VBLK, STCLASS="");
       55     5252            %XSP$CTXTMAP( NAME=CMAP, STCLASS="BASED( CMAP$)");
       56     5293        %INCLUDE XSP_MACHINE_M;
       57     5508        %INCLUDE UM_CP6;
       58     6360        %MACRO FATALDEF( NAME=XSP_FATAL, STCLASS="CONSTANT SYMDEF", LVL=1, LAST=";",
       59     6361                         ERR#=0, SEV=7);
       60     6362            %VLP_ERRCODE( FPTN=NAME, STCLASS=STCLASS, FCG='XS', MID='P',
       61     6363                          MON='0'B, ERR#=ERR#, SEV=SEV);
       62     6364        %MEND;
       63     6365        %INCLUDE XSC_PERR_C;
       64     6442            %FATALDEF( NAME=XSP_F$EVNTERR, ERR#=%F$EVNTERR);
       65     6490            /*E*  ERROR:  XSP-F$EVNTERR-7
       66     6491                MESSAGE:  State machine requested wrong event.
       67     6492            */
       68     6493            %FATALDEF( NAME=XSP_F$NOPRES, ERR#=%F$NOPRES);
       69     6541            /*E*  ERROR:  XSP-F$NOPRES-7
PL6.E3A0      #001=XSP$MACHINE File=XSP$MACHINE.:XSA1TSI                         WED 10/01/97 12:04 Page:69
       70     6542                MESSAGE:  No handler for this Presentation primitive.
       71     6543            */
       72     6544        %EQU MAXBITS = 8;  /* biggest context id expected from user */
       73     6545
       74     6546    1       DCL XSP$DUMPFPT ENTRY(1);
       75     6547    1       DCL XSP$ENCODE ENTRY(1) ALTRET;
       76     6548    1       DCL XSP$RELCTX ENTRY(1) ALTRET;
       77     6549    1       DCL XSP$SSEND ENTRY(1) ALTRET;
       78     6550    1       DCL XSS$BUFPTR ENTRY(2) ALTRET;
       79     6551    1       DCL XSS$SCREECH ENTRY(1);
       80     6552
       81     6553    1       DCL XSS_TRACE SBIN SYMREF;
       82     6554
       83     6555    1       DCL CLST$ PTR;
       84     6556    1       DCL CMAP$ PTR;
       85     6557    1       DCL I SBIN;
       86     6558    1       DCL J SBIN;
       87     6559    1       DCL PCTX$ PTR;
       88     6560    1       DCL PFPT$ PTR;
       89     6561            /* PRED, PINV, and CONTINUING used by the {IF/ELSE/END}PREDDO macros */
       90     6562    1       DCL PRED(0:35) BIT(1) UNAL;
       91     6563    1       DCL PINV(0:35) BIT(1) UNAL;
       92     6564    1       DCL CONTINUING BIT(1);
       93     6565        %EJECT;
PL6.E3A0      #001=XSP$MACHINE File=XSP$MACHINE.:XSA1TSI                         WED 10/01/97 12:04 Page:70
       94     6566        /*****************************************************************************
       95     6567        *                                                                            *
       96     6568        *       Various internal MACROs                                              *
       97     6569        *                                                                            *
       98     6570        *****************************************************************************/
       99     6571        %MACRO EVENT( EV=0); /* generate an output event of the specified type */
      100     6572            CALL EVNT( EV) ALTRET( EVNTERR);
      101     6573        %MEND;
      102     6574        %MACRO INVALID; /* an illegal state/event combination has occurred */
      103     6575            CALL OOPS;
      104     6576        %MEND;
      105     6577        %EJECT;
PL6.E3A0      #001=XSP$MACHINE File=XSP$MACHINE.:XSA1TSI                         WED 10/01/97 12:04 Page:71
      106     6578        /*****************************************************************************
      107     6579        *                                                                            *
      108     6580        *       Set up to enter the Presentation state machine                       *
      109     6581        *                                                                            *
      110     6582        *****************************************************************************/
      111     6583    1       PCTX$ = VBLK.CTX$;

   6583  1 000002   200003 470500                    LDP0    @VBLK,,AUTO
         1 000003   000000 236100                    LDQ     0,,PR0
         1 000004   200010 756100                    STQ     PCTX$,,AUTO

      112     6584    1       PFPT$ = VBLK.FPT$;

   6584  1 000005   000001 236100                    LDQ     1,,PR0
         1 000006   200011 756100                    STQ     PFPT$,,AUTO

      113     6585    1       CALL XSS$BUFPTR( PCTX.CTXTMAPX, CMAP$)

   6585  1 000007   200005 631500                    EPPR1   CMAP$,,AUTO
         1 000010   200021 451500                    STP1    @EVENT+2,,AUTO
         1 000011   200010 236100                    LDQ     PCTX$,,AUTO
         1 000012   000001 036000 2                  ADLQ    1
         1 000013   200020 756100                    STQ     @EVENT+1,,AUTO
         1 000014   200020 630500                    EPPR0   @EVENT+1,,AUTO
         1 000015   000000 631400 2                  EPPR1   0
         1 000016   000000 701000 xent               TSX1    XSS$BUFPTR
         1 000017   000021 702000 1                  TSX2    s:6587
         1 000020   000023 710000 1                  TRA     s:6590

      114     6586    2       WHENALTRETURN DO;

      115     6587    2           CMAP$ = ADDR( NIL);

   6587  1 000021   000002 236000 2                  LDQ     2
         1 000022   200005 756100                    STQ     CMAP$,,AUTO

      116     6588    2           END;
PL6.E3A0      #001=XSP$MACHINE File=XSP$MACHINE.:XSA1TSI                         WED 10/01/97 12:04 Page:72

      117     6589            /* update state/event history */
      118     6590    1       I = 1 + PCTX.HISTX;

   6590  1 000023   200010 470500                    LDP0    PCTX$,,AUTO
         1 000024   000000 236100                    LDQ     0,,PR0
         1 000025   000022 772000                    QRL     18
         1 000026   000777 376007                    ANQ     511,DL
         1 000027   000001 036007                    ADLQ    1,DL
         1 000030   200006 756100                    STQ     I,,AUTO

      119     6591    1       IF I > 7 THEN

   6591  1 000031   000007 116007                    CMPQ    7,DL
         1 000032   000034 604400 1                  TMOZ    s:6593

      120     6592    1           I = 0;

   6592  1 000033   200006 450100                    STZ     I,,AUTO

      121     6593    1       PCTX.HISTX = I;

   6593  1 000034   200006 236100                    LDQ     I,,AUTO
         1 000035   000022 736000                    QLS     18
         1 000036   000000 552120                    STBQ    0,'20'O,PR0

      122     6594    1       PCTX.HIST.EVENT( I) = VBLK.EVENT;

   6594  1 000037   200006 235100                    LDA     I,,AUTO
         1 000040   000001 735000                    ALS     1
         1 000041   200003 471500                    LDP1    @VBLK,,AUTO
         1 000042   000105 100500                    MLR     fill='000'O
         1 000043   100006 600001                    ADSC9   6,,PR1                   cn=3,n=1
         1 000044   000010 400001                    ADSC9   8,A,PR0                  cn=2,n=1

      123     6595    1       PCTX.HIST.NXTST( I) = %XSP_PST_00;  /* filled in before RETURN */

PL6.E3A0      #001=XSP$MACHINE File=XSP$MACHINE.:XSA1TSI                         WED 10/01/97 12:04 Page:73
   6595  1 000045   000105 101400                    MRL     fill='000'O
         1 000046   000003 000004 2                  ADSC9   3                        cn=0,n=4
         1 000047   000010 600001                    ADSC9   8,A,PR0                  cn=3,n=1

      124     6596        %SET INPRED = '0'B;  /* set up {IF|ELSE|END}PREDDO macro invocation check */
      125     6597            /* set predicate flags up */
      126     6598    1       PRED = '000000000000'O;

   6598  1 000050   000013 236000 0                  LDQ     PEV_TO_FNC+9
         1 000051   200012 756100                    STQ     PRED,,AUTO

      127     6599    1       PINV = '777777777777'O;

   6599  1 000052   000014 236000 0                  LDQ     PEV_TO_FNC+10
         1 000053   200013 756100                    STQ     PINV,,AUTO

      128     6600            /* fan out on the event and state */
      129     6601    2       DO CASE( VBLK.EVENT);

   6601  1 000054   100006 720100                    LXL0    6,,PR1
         1 000055   000777 360003                    ANX0    511,DU
         1 000056   000177 100003                    CMPX0   127,DU
         1 000057   000061 602010 1                  TNC     s:6601+5,X0
         1 000060   012430 710000 1                  TRA     s:37356
         1 000061   012430 710000 1                  TRA     s:37356
         1 000062   000260 710000 1                  TRA     s:6604
         1 000063   000371 710000 1                  TRA     s:6925
         1 000064   000475 710000 1                  TRA     s:7248
         1 000065   000525 710000 1                  TRA     s:7265
         1 000066   001047 710000 1                  TRA     s:8527
         1 000067   001202 710000 1                  TRA     s:9234
         1 000070   001244 710000 1                  TRA     s:9356
         1 000071   001302 710000 1                  TRA     s:9472
         1 000072   002264 710000 1                  TRA     s:13545
         1 000073   002567 710000 1                  TRA     s:15267
         1 000074   002702 710000 1                  TRA     s:15605
         1 000075   002767 710000 1                  TRA     s:15832
PL6.E3A0      #001=XSP$MACHINE File=XSP$MACHINE.:XSA1TSI                         WED 10/01/97 12:04 Page:74
         1 000076   003102 710000 1                  TRA     s:16170
         1 000077   003171 710000 1                  TRA     s:16400
         1 000100   012430 710000 1                  TRA     s:37356
         1 000101   012430 710000 1                  TRA     s:37356
         1 000102   003331 710000 1                  TRA     s:16989
         1 000103   012430 710000 1                  TRA     s:37356
         1 000104   003360 710000 1                  TRA     s:17007
         1 000105   012430 710000 1                  TRA     s:37356
         1 000106   003400 710000 1                  TRA     s:17023
         1 000107   012430 710000 1                  TRA     s:37356
         1 000110   003475 710000 1                  TRA     s:17358
         1 000111   012430 710000 1                  TRA     s:37356
         1 000112   003662 710000 1                  TRA     s:18029
         1 000113   012430 710000 1                  TRA     s:37356
         1 000114   003711 710000 1                  TRA     s:18047
         1 000115   012430 710000 1                  TRA     s:37356
         1 000116   003727 710000 1                  TRA     s:18060
         1 000117   012430 710000 1                  TRA     s:37356
         1 000120   004131 710000 1                  TRA     s:19134
         1 000121   012430 710000 1                  TRA     s:37356
         1 000122   004251 710000 1                  TRA     s:19486
         1 000123   012430 710000 1                  TRA     s:37356
         1 000124   005442 710000 1                  TRA     s:22623
         1 000125   012430 710000 1                  TRA     s:37356
         1 000126   005473 710000 1                  TRA     s:22643
         1 000127   012430 710000 1                  TRA     s:37356
         1 000130   004327 710000 1                  TRA     s:19522
         1 000131   012430 710000 1                  TRA     s:37356
         1 000132   004454 710000 1                  TRA     s:19875
         1 000133   012430 710000 1                  TRA     s:37356
         1 000134   004647 710000 1                  TRA     s:20700
         1 000135   012430 710000 1                  TRA     s:37356
         1 000136   004766 710000 1                  TRA     s:21045
         1 000137   012430 710000 1                  TRA     s:37356
         1 000140   004771 710000 1                  TRA     s:21049
         1 000141   012430 710000 1                  TRA     s:37356
         1 000142   004774 710000 1                  TRA     s:21052
PL6.E3A0      #001=XSP$MACHINE File=XSP$MACHINE.:XSA1TSI                         WED 10/01/97 12:04 Page:75
         1 000143   012430 710000 1                  TRA     s:37356
         1 000144   005071 710000 1                  TRA     s:21387
         1 000145   012430 710000 1                  TRA     s:37356
         1 000146   005256 710000 1                  TRA     s:22058
         1 000147   012430 710000 1                  TRA     s:37356
         1 000150   005355 710000 1                  TRA     s:22396
         1 000151   012430 710000 1                  TRA     s:37356
         1 000152   005606 710000 1                  TRA     s:22981
         1 000153   012430 710000 1                  TRA     s:37356
         1 000154   000475 710000 1                  TRA     s:7248
         1 000155   012430 710000 1                  TRA     s:37356
         1 000156   004302 710000 1                  TRA     s:19507
         1 000157   012430 710000 1                  TRA     s:37356
         1 000160   004232 710000 1                  TRA     s:19475
         1 000161   005701 710000 1                  TRA     s:23210
         1 000162   012430 710000 1                  TRA     s:37356
         1 000163   005726 710000 1                  TRA     s:23225
         1 000164   012430 710000 1                  TRA     s:37356
         1 000165   005746 710000 1                  TRA     s:23241
         1 000166   012430 710000 1                  TRA     s:37356
         1 000167   006043 710000 1                  TRA     s:23576
         1 000170   012430 710000 1                  TRA     s:37356
         1 000171   006230 710000 1                  TRA     s:24247
         1 000172   012430 710000 1                  TRA     s:37356
         1 000173   006255 710000 1                  TRA     s:24262
         1 000174   012430 710000 1                  TRA     s:37356
         1 000175   006273 710000 1                  TRA     s:24275
         1 000176   012430 710000 1                  TRA     s:37356
         1 000177   006471 710000 1                  TRA     s:25343
         1 000200   012430 710000 1                  TRA     s:37356
         1 000201   006570 710000 1                  TRA     s:25681
         1 000202   012430 710000 1                  TRA     s:37356
         1 000203   006676 710000 1                  TRA     s:25999
         1 000204   012430 710000 1                  TRA     s:37356
         1 000205   006777 710000 1                  TRA     s:26238
         1 000206   012430 710000 1                  TRA     s:37356
         1 000207   007064 710000 1                  TRA     s:26465
PL6.E3A0      #001=XSP$MACHINE File=XSP$MACHINE.:XSA1TSI                         WED 10/01/97 12:04 Page:76
         1 000210   012430 710000 1                  TRA     s:37356
         1 000211   007331 710000 1                  TRA     s:27146
         1 000212   012430 710000 1                  TRA     s:37356
         1 000213   007151 710000 1                  TRA     s:26692
         1 000214   012430 710000 1                  TRA     s:37356
         1 000215   007227 710000 1                  TRA     s:26905
         1 000216   012430 710000 1                  TRA     s:37356
         1 000217   007271 710000 1                  TRA     s:27027
         1 000220   012430 710000 1                  TRA     s:37356
         1 000221   007353 710000 1                  TRA     s:27160
         1 000222   012430 710000 1                  TRA     s:37356
         1 000223   007440 710000 1                  TRA     s:27387
         1 000224   012430 710000 1                  TRA     s:37356
         1 000225   011774 710000 1                  TRA     s:36147
         1 000226   012430 710000 1                  TRA     s:37356
         1 000227   012016 710000 1                  TRA     s:36161
         1 000230   012430 710000 1                  TRA     s:37356
         1 000231   007501 710000 1                  TRA     s:27506
         1 000232   012430 710000 1                  TRA     s:37356
         1 000233   007576 710000 1                  TRA     s:27745
         1 000234   012430 710000 1                  TRA     s:37356
         1 000235   007771 710000 1                  TRA     s:28570
         1 000236   012430 710000 1                  TRA     s:37356
         1 000237   010062 710000 1                  TRA     s:28803
         1 000240   012430 710000 1                  TRA     s:37356
         1 000241   011027 710000 1                  TRA     s:32860
         1 000242   012430 710000 1                  TRA     s:37356
         1 000243   011326 710000 1                  TRA     s:34576
         1 000244   012430 710000 1                  TRA     s:37356
         1 000245   011423 710000 1                  TRA     s:34911
         1 000246   012430 710000 1                  TRA     s:37356
         1 000247   011610 710000 1                  TRA     s:35582
         1 000250   012430 710000 1                  TRA     s:37356
         1 000251   011707 710000 1                  TRA     s:35920
         1 000252   012430 710000 1                  TRA     s:37356
         1 000253   012103 710000 1                  TRA     s:36388
         1 000254   012430 710000 1                  TRA     s:37356
PL6.E3A0      #001=XSP$MACHINE File=XSP$MACHINE.:XSA1TSI                         WED 10/01/97 12:04 Page:77
         1 000255   012210 710000 1                  TRA     s:36785
         1 000256   012430 710000 1                  TRA     s:37356
         1 000257   012335 710000 1                  TRA     s:37125

      130     6602        %EJECT;
PL6.E3A0      #001=XSP$MACHINE File=XSP$MACHINE.:XSA1TSI                         WED 10/01/97 12:04 Page:78
      131     6603    2           CASE( %XSP_PEV_AC);                     /* TABLE 24 */

      132     6604    3               DO CASE( PCTX.STATE);

   6604  1 000260   000000 236100                    LDQ     0,,PR0
         1 000261   000033 772000                    QRL     27
         1 000262   000004 136007                    SBLQ    4,DL
         1 000263   000004 116007                    CMPQ    4,DL
         1 000264   000266 602006 1                  TNC     s:6604+6,QL
         1 000265   000366 710000 1                  TRA     s:6921
         1 000266   000272 710000 1                  TRA     s:6614
         1 000267   000366 710000 1                  TRA     s:6921
         1 000270   000366 710000 1                  TRA     s:6921
         1 000271   000323 710000 1                  TRA     s:6727

      133     6605    3                   CASE( %XSP_PST_AC0);

      134     6606                            %IFPREDDO( P="06");

   6614  1 000272   400000 236003                    LDQ     -131072,DU
         1 000273   200014 756100                    STQ     CONTINUING,,AUTO

   6674  1 000274   200013 236100                    LDQ     PINV,,AUTO
         1 000275   004000 316003                    CANQ    2048,DU
         1 000276   000301 600000 1                  TZE     s:6684

   6674  1 000277   013375 701000 1                  TSX1    PRED06
         1 000300   000000 011000                    NOP     0

   6684  1 000301   200012 236100                    LDQ     PRED,,AUTO
         1 000302   004000 316003                    CANQ    2048,DU
         1 000303   000316 600000 1                  TZE     s:6716

   6703  1 000304   200014 450100                    STZ     CONTINUING,,AUTO

      135     6705                                %ACTION01;

PL6.E3A0      #001=XSP$MACHINE File=XSP$MACHINE.:XSA1TSI                         WED 10/01/97 12:04 Page:79
   6706  1 000305   012666 701000 1                  TSX1    ACTION01
         1 000306   000000 011000                    NOP     0

      136     6708                                %EVENT( EV=%XSP_PEV_PALTIND);

   6709  1 000307   000005 236000 2                  LDQ     5
         1 000310   200017 756100                    STQ     CONTINUING+3,,AUTO
         1 000311   012517 701000 1                  TSX1    EVNT
         1 000312   012433 702000 1                  TSX2    EVNTERR

      137     6711    4                           PCTX.STATE = %XSP_PST_AC2;

   6711  1 000313   200010 470500                    LDP0    PCTX$,,AUTO
         1 000314   006000 236003                    LDQ     3072,DU
         1 000315   000000 552140                    STBQ    0,'40'O,PR0

      138     6712    4                           END;

      139     6713                            %ENDPREDDO;

   6716  1 000316   200014 234100                    SZN     CONTINUING,,AUTO
         1 000317   012432 605000 1                  TPL     s:37359

   6716  1 000320   012644 701000 1                  TSX1    OOPS
         1 000321   000000 011000                    NOP     0
         1 000322   012432 710000 1                  TRA     s:37359

      140     6718    3                   CASE( %XSP_PST_T0);

      141     6719                            %IFPREDDO( P="05&11");

   6727  1 000323   400000 236003                    LDQ     -131072,DU
         1 000324   200014 756100                    STQ     CONTINUING,,AUTO

   6773  1 000325   200013 236100                    LDQ     PINV,,AUTO
         1 000326   010000 316003                    CANQ    4096,DU
         1 000327   000332 600000 1                  TZE     s:6782
PL6.E3A0      #001=XSP$MACHINE File=XSP$MACHINE.:XSA1TSI                         WED 10/01/97 12:04 Page:80

   6773  1 000330   013347 701000 1                  TSX1    PRED05
         1 000331   000000 011000                    NOP     0

   6782  1 000332   200012 236100                    LDQ     PRED,,AUTO
         1 000333   010000 316003                    CANQ    4096,DU
         1 000334   000361 600000 1                  TZE     s:6917

   6857  1 000335   200013 236100                    LDQ     PINV,,AUTO
         1 000336   000100 316003                    CANQ    64,DU
         1 000337   000342 600000 1                  TZE     s:6867

   6857  1 000340   013425 701000 1                  TSX1    PRED11
         1 000341   000000 011000                    NOP     0

   6867  1 000342   200012 236100                    LDQ     PRED,,AUTO
         1 000343   000100 316003                    CANQ    64,DU
         1 000344   000361 600000 1                  TZE     s:6917

   6901  1 000345   200014 450100                    STZ     CONTINUING,,AUTO

      142     6903                                %ACTION01;

   6904  1 000346   012666 701000 1                  TSX1    ACTION01
         1 000347   000000 011000                    NOP     0

      143     6906                                %ACTION09;

   6907  1 000350   013050 701000 1                  TSX1    ACTION09
         1 000351   000000 011000                    NOP     0

      144     6909                                %EVENT( EV=%XSP_PEV_PALTIND);

   6910  1 000352   000005 236000 2                  LDQ     5
         1 000353   200017 756100                    STQ     CONTINUING+3,,AUTO
         1 000354   012517 701000 1                  TSX1    EVNT
         1 000355   012433 702000 1                  TSX2    EVNTERR
PL6.E3A0      #001=XSP$MACHINE File=XSP$MACHINE.:XSA1TSI                         WED 10/01/97 12:04 Page:81

      145     6912    4                           PCTX.STATE = %XSP_PST_AC1;

   6912  1 000356   200010 470500                    LDP0    PCTX$,,AUTO
         1 000357   005000 236003                    LDQ     2560,DU
         1 000360   000000 552140                    STBQ    0,'40'O,PR0

      146     6913    4                           END;

      147     6914                            %ENDPREDDO;

   6917  1 000361   200014 234100                    SZN     CONTINUING,,AUTO
         1 000362   012432 605000 1                  TPL     s:37359

   6917  1 000363   012644 701000 1                  TSX1    OOPS
         1 000364   000000 011000                    NOP     0
         1 000365   012432 710000 1                  TRA     s:37359

      148     6919    3                   CASE( ELSE);

      149     6920                            %INVALID;

   6921  1 000366   012644 701000 1                  TSX1    OOPS
         1 000367   000000 011000                    NOP     0

      150     6923    3                   END;

   6923  1 000370   012432 710000 1                  TRA     s:37359

      151     6924    2           CASE( %XSP_PEV_ACA);                    /* TABLE 24 */

      152     6925    3               DO CASE( PCTX.STATE);

   6925  1 000371   000000 236100                    LDQ     0,,PR0
         1 000372   000033 772000                    QRL     27
         1 000373   000004 136007                    SBLQ    4,DL
         1 000374   000003 116007                    CMPQ    3,DL
PL6.E3A0      #001=XSP$MACHINE File=XSP$MACHINE.:XSA1TSI                         WED 10/01/97 12:04 Page:82
         1 000375   000377 602006 1                  TNC     s:6925+6,QL
         1 000376   000472 710000 1                  TRA     s:7243
         1 000377   000402 710000 1                  TRA     s:6935
         1 000400   000472 710000 1                  TRA     s:7243
         1 000401   000432 710000 1                  TRA     s:7050

      153     6926    3                   CASE( %XSP_PST_AC0);

      154     6927                            %IFPREDDO( P="09");

   6935  1 000402   400000 236003                    LDQ     -131072,DU
         1 000403   200014 756100                    STQ     CONTINUING,,AUTO

   6995  1 000404   200013 236100                    LDQ     PINV,,AUTO
         1 000405   000400 316003                    CANQ    256,DU
         1 000406   000411 600000 1                  TZE     s:7005

   6995  1 000407   013417 701000 1                  TSX1    PRED09
         1 000410   000000 011000                    NOP     0

   7005  1 000411   200012 236100                    LDQ     PRED,,AUTO
         1 000412   000400 316003                    CANQ    256,DU
         1 000413   000425 600000 1                  TZE     s:7039

   7024  1 000414   200014 450100                    STZ     CONTINUING,,AUTO

      155     7026                                %ACTION10;

   7027  1 000415   013064 701000 1                  TSX1    ACTION10
         1 000416   000000 011000                    NOP     0

      156     7029                                %ACTION11;

   7030  1 000417   013066 701000 1                  TSX1    ACTION11
         1 000420   000000 011000                    NOP     0

      157     7032                                %EVENT( EV=%XSP_PEV_PALTCNF);
PL6.E3A0      #001=XSP$MACHINE File=XSP$MACHINE.:XSA1TSI                         WED 10/01/97 12:04 Page:83

   7033  1 000421   000007 236000 2                  LDQ     7
         1 000422   200017 756100                    STQ     CONTINUING+3,,AUTO
         1 000423   012517 701000 1                  TSX1    EVNT
         1 000424   012433 702000 1                  TSX2    EVNTERR

      158     7035    4                           END;

      159     7036                            %ENDPREDDO;

   7039  1 000425   200014 234100                    SZN     CONTINUING,,AUTO
         1 000426   012432 605000 1                  TPL     s:37359

   7039  1 000427   012644 701000 1                  TSX1    OOPS
         1 000430   000000 011000                    NOP     0
         1 000431   012432 710000 1                  TRA     s:37359

      160     7041    3                   CASE( %XSP_PST_AC2);

      161     7042                            %IFPREDDO( P="09&06");

   7050  1 000432   400000 236003                    LDQ     -131072,DU
         1 000433   200014 756100                    STQ     CONTINUING,,AUTO

   7096  1 000434   200013 236100                    LDQ     PINV,,AUTO
         1 000435   000400 316003                    CANQ    256,DU
         1 000436   000441 600000 1                  TZE     s:7105

   7096  1 000437   013417 701000 1                  TSX1    PRED09
         1 000440   000000 011000                    NOP     0

   7105  1 000441   200012 236100                    LDQ     PRED,,AUTO
         1 000442   000400 316003                    CANQ    256,DU
         1 000443   000465 600000 1                  TZE     s:7239

   7180  1 000444   200013 236100                    LDQ     PINV,,AUTO
         1 000445   004000 316003                    CANQ    2048,DU
PL6.E3A0      #001=XSP$MACHINE File=XSP$MACHINE.:XSA1TSI                         WED 10/01/97 12:04 Page:84
         1 000446   000451 600000 1                  TZE     s:7190

   7180  1 000447   013375 701000 1                  TSX1    PRED06
         1 000450   000000 011000                    NOP     0

   7190  1 000451   200012 236100                    LDQ     PRED,,AUTO
         1 000452   004000 316003                    CANQ    2048,DU
         1 000453   000465 600000 1                  TZE     s:7239

   7224  1 000454   200014 450100                    STZ     CONTINUING,,AUTO

      162     7226                                %ACTION10;

   7227  1 000455   013064 701000 1                  TSX1    ACTION10
         1 000456   000000 011000                    NOP     0

      163     7229                                %ACTION11;

   7230  1 000457   013066 701000 1                  TSX1    ACTION11
         1 000460   000000 011000                    NOP     0

      164     7232                                %EVENT( EV=%XSP_PEV_PALTCNF);

   7233  1 000461   000007 236000 2                  LDQ     7
         1 000462   200017 756100                    STQ     CONTINUING+3,,AUTO
         1 000463   012517 701000 1                  TSX1    EVNT
         1 000464   012433 702000 1                  TSX2    EVNTERR

      165     7235    4                           END;

      166     7236                            %ENDPREDDO;

   7239  1 000465   200014 234100                    SZN     CONTINUING,,AUTO
         1 000466   012432 605000 1                  TPL     s:37359

   7239  1 000467   012644 701000 1                  TSX1    OOPS
         1 000470   000000 011000                    NOP     0
PL6.E3A0      #001=XSP$MACHINE File=XSP$MACHINE.:XSA1TSI                         WED 10/01/97 12:04 Page:85
         1 000471   012432 710000 1                  TRA     s:37359

      167     7241    3                   CASE( ELSE);

      168     7242                            %INVALID;

   7243  1 000472   012644 701000 1                  TSX1    OOPS
         1 000473   000000 011000                    NOP     0

      169     7245    3                   END;

   7245  1 000474   012432 710000 1                  TRA     s:37359

      170     7246    2           CASE( %XSP_PEV_ARP,                     /* TABLE 23 */

      171     7247    2                 %XSP_PEV_SPABIND);                /* TABLE 23 */
      172     7248    3               DO CASE( PCTX.STATE);

   7248  1 000475   000000 236100                    LDQ     0,,PR0
         1 000476   000033 772000                    QRL     27
         1 000477   000010 116007                    CMPQ    8,DL
         1 000500   000502 602006 1                  TNC     s:7248+5,QL
         1 000501   000522 710000 1                  TRA     s:7261
         1 000502   000522 710000 1                  TRA     s:7261
         1 000503   000522 710000 1                  TRA     s:7261
         1 000504   000512 710000 1                  TRA     s:7256
         1 000505   000512 710000 1                  TRA     s:7256
         1 000506   000512 710000 1                  TRA     s:7256
         1 000507   000512 710000 1                  TRA     s:7256
         1 000510   000512 710000 1                  TRA     s:7256
         1 000511   000512 710000 1                  TRA     s:7256

      173     7249    3                   CASE( %XSP_PST_I1,

      174     7250    3                         %XSP_PST_I2,
      175     7251    3                         %XSP_PST_AC0,
      176     7252    3                         %XSP_PST_AC1,
PL6.E3A0      #001=XSP$MACHINE File=XSP$MACHINE.:XSA1TSI                         WED 10/01/97 12:04 Page:86
      177     7253    3                         %XSP_PST_AC2,
      178     7254    3                         %XSP_PST_T0);
      179     7255                            %EVENT( EV=%XSP_PEV_PPABIND);

   7256  1 000512   000011 236000 2                  LDQ     9
         1 000513   200017 756100                    STQ     CONTINUING+3,,AUTO
         1 000514   012517 701000 1                  TSX1    EVNT
         1 000515   012433 702000 1                  TSX2    EVNTERR

      180     7258    3                       PCTX.STATE = %XSP_PST_I0;

   7258  1 000516   200010 470500                    LDP0    PCTX$,,AUTO
         1 000517   001000 236003                    LDQ     512,DU
         1 000520   000000 552140                    STBQ    0,'40'O,PR0
         1 000521   012432 710000 1                  TRA     s:37359

      181     7259    3                   CASE( ELSE);

      182     7260                            %INVALID;

   7261  1 000522   012644 701000 1                  TSX1    OOPS
         1 000523   000000 011000                    NOP     0

      183     7263    3                   END;

   7263  1 000524   012432 710000 1                  TRA     s:37359

      184     7264    2           CASE( %XSP_PEV_ARU);                    /* TABLE 23 */

      185     7265    3               DO CASE( PCTX.STATE);

   7265  1 000525   000000 236100                    LDQ     0,,PR0
         1 000526   000033 772000                    QRL     27
         1 000527   000010 116007                    CMPQ    8,DL
         1 000530   000532 602006 1                  TNC     s:7265+5,QL
         1 000531   001044 710000 1                  TRA     s:8523
         1 000532   001044 710000 1                  TRA     s:8523
PL6.E3A0      #001=XSP$MACHINE File=XSP$MACHINE.:XSA1TSI                         WED 10/01/97 12:04 Page:87
         1 000533   001044 710000 1                  TRA     s:8523
         1 000534   000542 710000 1                  TRA     s:7275
         1 000535   000601 710000 1                  TRA     s:7470
         1 000536   000650 710000 1                  TRA     s:7750
         1 000537   000707 710000 1                  TRA     s:7945
         1 000540   000746 710000 1                  TRA     s:8140
         1 000541   001005 710000 1                  TRA     s:8335

      186     7266    3                   CASE( %XSP_PST_I1);

      187     7267                            %IFPREDDO( P="03&21");

   7275  1 000542   400000 236003                    LDQ     -131072,DU
         1 000543   200014 756100                    STQ     CONTINUING,,AUTO

   7321  1 000544   200013 236100                    LDQ     PINV,,AUTO
         1 000545   040000 316003                    CANQ    16384,DU
         1 000546   000551 600000 1                  TZE     s:7330

   7321  1 000547   013175 701000 1                  TSX1    PRED03
         1 000550   000000 011000                    NOP     0

   7330  1 000551   200012 236100                    LDQ     PRED,,AUTO
         1 000552   040000 316003                    CANQ    16384,DU
         1 000553   000574 600000 1                  TZE     s:7459

   7405  1 000554   200013 236100                    LDQ     PINV,,AUTO
         1 000555   040000 316007                    CANQ    16384,DL
         1 000556   000561 600000 1                  TZE     s:7415

   7405  1 000557   013523 701000 1                  TSX1    PRED21
         1 000560   000000 011000                    NOP     0

   7415  1 000561   200012 236100                    LDQ     PRED,,AUTO
         1 000562   040000 316007                    CANQ    16384,DL
         1 000563   000574 600000 1                  TZE     s:7459

PL6.E3A0      #001=XSP$MACHINE File=XSP$MACHINE.:XSA1TSI                         WED 10/01/97 12:04 Page:88
   7449  1 000564   200014 450100                    STZ     CONTINUING,,AUTO

      188     7451                                %EVENT( EV=%XSP_PEV_PUABIND);

   7452  1 000565   000013 236000 2                  LDQ     11
         1 000566   200017 756100                    STQ     CONTINUING+3,,AUTO
         1 000567   012517 701000 1                  TSX1    EVNT
         1 000570   012433 702000 1                  TSX2    EVNTERR

      189     7454    4                           PCTX.STATE = %XSP_PST_I0;

   7454  1 000571   200010 470500                    LDP0    PCTX$,,AUTO
         1 000572   001000 236003                    LDQ     512,DU
         1 000573   000000 552140                    STBQ    0,'40'O,PR0

      190     7455    4                           END;

      191     7456                            %ENDPREDDO;

   7459  1 000574   200014 234100                    SZN     CONTINUING,,AUTO
         1 000575   012432 605000 1                  TPL     s:37359

   7459  1 000576   012644 701000 1                  TSX1    OOPS
         1 000577   000000 011000                    NOP     0
         1 000600   012432 710000 1                  TRA     s:37359

      192     7461    3                   CASE( %XSP_PST_I2);

      193     7462                            %IFPREDDO( P="03&21&23");

   7470  1 000601   400000 236003                    LDQ     -131072,DU
         1 000602   200014 756100                    STQ     CONTINUING,,AUTO

   7516  1 000603   200013 236100                    LDQ     PINV,,AUTO
         1 000604   040000 316003                    CANQ    16384,DU
         1 000605   000610 600000 1                  TZE     s:7525

PL6.E3A0      #001=XSP$MACHINE File=XSP$MACHINE.:XSA1TSI                         WED 10/01/97 12:04 Page:89
   7516  1 000606   013175 701000 1                  TSX1    PRED03
         1 000607   000000 011000                    NOP     0

   7525  1 000610   200012 236100                    LDQ     PRED,,AUTO
         1 000611   040000 316003                    CANQ    16384,DU
         1 000612   000643 600000 1                  TZE     s:7739

   7586  1 000613   200013 236100                    LDQ     PINV,,AUTO
         1 000614   040000 316007                    CANQ    16384,DL
         1 000615   000620 600000 1                  TZE     s:7595

   7586  1 000616   013523 701000 1                  TSX1    PRED21
         1 000617   000000 011000                    NOP     0

   7595  1 000620   200012 236100                    LDQ     PRED,,AUTO
         1 000621   040000 316007                    CANQ    16384,DL
         1 000622   000643 600000 1                  TZE     s:7739

   7670  1 000623   200013 236100                    LDQ     PINV,,AUTO
         1 000624   010000 316007                    CANQ    4096,DL
         1 000625   000630 600000 1                  TZE     s:7680

   7670  1 000626   013563 701000 1                  TSX1    PRED23
         1 000627   000000 011000                    NOP     0

   7680  1 000630   200012 236100                    LDQ     PRED,,AUTO
         1 000631   010000 316007                    CANQ    4096,DL
         1 000632   000643 600000 1                  TZE     s:7739

   7729  1 000633   200014 450100                    STZ     CONTINUING,,AUTO

      194     7731                                %EVENT( EV=%XSP_PEV_PUABIND);

   7732  1 000634   000013 236000 2                  LDQ     11
         1 000635   200017 756100                    STQ     CONTINUING+3,,AUTO
         1 000636   012517 701000 1                  TSX1    EVNT
         1 000637   012433 702000 1                  TSX2    EVNTERR
PL6.E3A0      #001=XSP$MACHINE File=XSP$MACHINE.:XSA1TSI                         WED 10/01/97 12:04 Page:90

      195     7734    4                           PCTX.STATE = %XSP_PST_I0;

   7734  1 000640   200010 470500                    LDP0    PCTX$,,AUTO
         1 000641   001000 236003                    LDQ     512,DU
         1 000642   000000 552140                    STBQ    0,'40'O,PR0

      196     7735    4                           END;

      197     7736                            %ENDPREDDO;

   7739  1 000643   200014 234100                    SZN     CONTINUING,,AUTO
         1 000644   012432 605000 1                  TPL     s:37359

   7739  1 000645   012644 701000 1                  TSX1    OOPS
         1 000646   000000 011000                    NOP     0
         1 000647   012432 710000 1                  TRA     s:37359

      198     7741    3                   CASE( %XSP_PST_AC0);

      199     7742                            %IFPREDDO( P="21&24");

   7750  1 000650   400000 236003                    LDQ     -131072,DU
         1 000651   200014 756100                    STQ     CONTINUING,,AUTO

   7796  1 000652   200013 236100                    LDQ     PINV,,AUTO
         1 000653   040000 316007                    CANQ    16384,DL
         1 000654   000657 600000 1                  TZE     s:7805

   7796  1 000655   013523 701000 1                  TSX1    PRED21
         1 000656   000000 011000                    NOP     0

   7805  1 000657   200012 236100                    LDQ     PRED,,AUTO
         1 000660   040000 316007                    CANQ    16384,DL
         1 000661   000702 600000 1                  TZE     s:7934

   7880  1 000662   200013 236100                    LDQ     PINV,,AUTO
PL6.E3A0      #001=XSP$MACHINE File=XSP$MACHINE.:XSA1TSI                         WED 10/01/97 12:04 Page:91
         1 000663   004000 316007                    CANQ    2048,DL
         1 000664   000667 600000 1                  TZE     s:7890

   7880  1 000665   013567 701000 1                  TSX1    PRED24
         1 000666   000000 011000                    NOP     0

   7890  1 000667   200012 236100                    LDQ     PRED,,AUTO
         1 000670   004000 316007                    CANQ    2048,DL
         1 000671   000702 600000 1                  TZE     s:7934

   7924  1 000672   200014 450100                    STZ     CONTINUING,,AUTO

      200     7926                                %EVENT( EV=%XSP_PEV_PUABIND);

   7927  1 000673   000013 236000 2                  LDQ     11
         1 000674   200017 756100                    STQ     CONTINUING+3,,AUTO
         1 000675   012517 701000 1                  TSX1    EVNT
         1 000676   012433 702000 1                  TSX2    EVNTERR

      201     7929    4                           PCTX.STATE = %XSP_PST_I0;

   7929  1 000677   200010 470500                    LDP0    PCTX$,,AUTO
         1 000700   001000 236003                    LDQ     512,DU
         1 000701   000000 552140                    STBQ    0,'40'O,PR0

      202     7930    4                           END;

      203     7931                            %ENDPREDDO;

   7934  1 000702   200014 234100                    SZN     CONTINUING,,AUTO
         1 000703   012432 605000 1                  TPL     s:37359

   7934  1 000704   012644 701000 1                  TSX1    OOPS
         1 000705   000000 011000                    NOP     0
         1 000706   012432 710000 1                  TRA     s:37359

      204     7936    3                   CASE( %XSP_PST_AC1);
PL6.E3A0      #001=XSP$MACHINE File=XSP$MACHINE.:XSA1TSI                         WED 10/01/97 12:04 Page:92

      205     7937                            %IFPREDDO( P="06&21");

   7945  1 000707   400000 236003                    LDQ     -131072,DU
         1 000710   200014 756100                    STQ     CONTINUING,,AUTO

   7991  1 000711   200013 236100                    LDQ     PINV,,AUTO
         1 000712   004000 316003                    CANQ    2048,DU
         1 000713   000716 600000 1                  TZE     s:8000

   7991  1 000714   013375 701000 1                  TSX1    PRED06
         1 000715   000000 011000                    NOP     0

   8000  1 000716   200012 236100                    LDQ     PRED,,AUTO
         1 000717   004000 316003                    CANQ    2048,DU
         1 000720   000741 600000 1                  TZE     s:8129

   8075  1 000721   200013 236100                    LDQ     PINV,,AUTO
         1 000722   040000 316007                    CANQ    16384,DL
         1 000723   000726 600000 1                  TZE     s:8085

   8075  1 000724   013523 701000 1                  TSX1    PRED21
         1 000725   000000 011000                    NOP     0

   8085  1 000726   200012 236100                    LDQ     PRED,,AUTO
         1 000727   040000 316007                    CANQ    16384,DL
         1 000730   000741 600000 1                  TZE     s:8129

   8119  1 000731   200014 450100                    STZ     CONTINUING,,AUTO

      206     8121                                %EVENT( EV=%XSP_PEV_PUABIND);

   8122  1 000732   000013 236000 2                  LDQ     11
         1 000733   200017 756100                    STQ     CONTINUING+3,,AUTO
         1 000734   012517 701000 1                  TSX1    EVNT
         1 000735   012433 702000 1                  TSX2    EVNTERR

PL6.E3A0      #001=XSP$MACHINE File=XSP$MACHINE.:XSA1TSI                         WED 10/01/97 12:04 Page:93
      207     8124    4                           PCTX.STATE = %XSP_PST_I0;

   8124  1 000736   200010 470500                    LDP0    PCTX$,,AUTO
         1 000737   001000 236003                    LDQ     512,DU
         1 000740   000000 552140                    STBQ    0,'40'O,PR0

      208     8125    4                           END;

      209     8126                            %ENDPREDDO;

   8129  1 000741   200014 234100                    SZN     CONTINUING,,AUTO
         1 000742   012432 605000 1                  TPL     s:37359

   8129  1 000743   012644 701000 1                  TSX1    OOPS
         1 000744   000000 011000                    NOP     0
         1 000745   012432 710000 1                  TRA     s:37359

      210     8131    3                   CASE( %XSP_PST_AC2);

      211     8132                            %IFPREDDO( P="21&25");

   8140  1 000746   400000 236003                    LDQ     -131072,DU
         1 000747   200014 756100                    STQ     CONTINUING,,AUTO

   8186  1 000750   200013 236100                    LDQ     PINV,,AUTO
         1 000751   040000 316007                    CANQ    16384,DL
         1 000752   000755 600000 1                  TZE     s:8195

   8186  1 000753   013523 701000 1                  TSX1    PRED21
         1 000754   000000 011000                    NOP     0

   8195  1 000755   200012 236100                    LDQ     PRED,,AUTO
         1 000756   040000 316007                    CANQ    16384,DL
         1 000757   001000 600000 1                  TZE     s:8324

   8270  1 000760   200013 236100                    LDQ     PINV,,AUTO
         1 000761   002000 316007                    CANQ    1024,DL
PL6.E3A0      #001=XSP$MACHINE File=XSP$MACHINE.:XSA1TSI                         WED 10/01/97 12:04 Page:94
         1 000762   000765 600000 1                  TZE     s:8280

   8270  1 000763   013573 701000 1                  TSX1    PRED25
         1 000764   000000 011000                    NOP     0

   8280  1 000765   200012 236100                    LDQ     PRED,,AUTO
         1 000766   002000 316007                    CANQ    1024,DL
         1 000767   001000 600000 1                  TZE     s:8324

   8314  1 000770   200014 450100                    STZ     CONTINUING,,AUTO

      212     8316                                %EVENT( EV=%XSP_PEV_PUABIND);

   8317  1 000771   000013 236000 2                  LDQ     11
         1 000772   200017 756100                    STQ     CONTINUING+3,,AUTO
         1 000773   012517 701000 1                  TSX1    EVNT
         1 000774   012433 702000 1                  TSX2    EVNTERR

      213     8319    4                           PCTX.STATE = %XSP_PST_I0;

   8319  1 000775   200010 470500                    LDP0    PCTX$,,AUTO
         1 000776   001000 236003                    LDQ     512,DU
         1 000777   000000 552140                    STBQ    0,'40'O,PR0

      214     8320    4                           END;

      215     8321                            %ENDPREDDO;

   8324  1 001000   200014 234100                    SZN     CONTINUING,,AUTO
         1 001001   012432 605000 1                  TPL     s:37359

   8324  1 001002   012644 701000 1                  TSX1    OOPS
         1 001003   000000 011000                    NOP     0
         1 001004   012432 710000 1                  TRA     s:37359

      216     8326    3                   CASE( %XSP_PST_T0);

PL6.E3A0      #001=XSP$MACHINE File=XSP$MACHINE.:XSA1TSI                         WED 10/01/97 12:04 Page:95
      217     8327                            %IFPREDDO( P="05&21");

   8335  1 001005   400000 236003                    LDQ     -131072,DU
         1 001006   200014 756100                    STQ     CONTINUING,,AUTO

   8381  1 001007   200013 236100                    LDQ     PINV,,AUTO
         1 001010   010000 316003                    CANQ    4096,DU
         1 001011   001014 600000 1                  TZE     s:8390

   8381  1 001012   013347 701000 1                  TSX1    PRED05
         1 001013   000000 011000                    NOP     0

   8390  1 001014   200012 236100                    LDQ     PRED,,AUTO
         1 001015   010000 316003                    CANQ    4096,DU
         1 001016   001037 600000 1                  TZE     s:8519

   8465  1 001017   200013 236100                    LDQ     PINV,,AUTO
         1 001020   040000 316007                    CANQ    16384,DL
         1 001021   001024 600000 1                  TZE     s:8475

   8465  1 001022   013523 701000 1                  TSX1    PRED21
         1 001023   000000 011000                    NOP     0

   8475  1 001024   200012 236100                    LDQ     PRED,,AUTO
         1 001025   040000 316007                    CANQ    16384,DL
         1 001026   001037 600000 1                  TZE     s:8519

   8509  1 001027   200014 450100                    STZ     CONTINUING,,AUTO

      218     8511                                %EVENT( EV=%XSP_PEV_PUABIND);

   8512  1 001030   000013 236000 2                  LDQ     11
         1 001031   200017 756100                    STQ     CONTINUING+3,,AUTO
         1 001032   012517 701000 1                  TSX1    EVNT
         1 001033   012433 702000 1                  TSX2    EVNTERR

      219     8514    4                           PCTX.STATE = %XSP_PST_I0;
PL6.E3A0      #001=XSP$MACHINE File=XSP$MACHINE.:XSA1TSI                         WED 10/01/97 12:04 Page:96

   8514  1 001034   200010 470500                    LDP0    PCTX$,,AUTO
         1 001035   001000 236003                    LDQ     512,DU
         1 001036   000000 552140                    STBQ    0,'40'O,PR0

      220     8515    4                           END;

      221     8516                            %ENDPREDDO;

   8519  1 001037   200014 234100                    SZN     CONTINUING,,AUTO
         1 001040   012432 605000 1                  TPL     s:37359

   8519  1 001041   012644 701000 1                  TSX1    OOPS
         1 001042   000000 011000                    NOP     0
         1 001043   012432 710000 1                  TRA     s:37359

      222     8521    3                   CASE( ELSE);

      223     8522                            %INVALID;

   8523  1 001044   012644 701000 1                  TSX1    OOPS
         1 001045   000000 011000                    NOP     0

      224     8525    3                   END;

   8525  1 001046   012432 710000 1                  TRA     s:37359

      225     8526    2           CASE( %XSP_PEV_CP);                     /* TABLE 21 */

      226     8527    3               IF PCTX.STATE = %XSP_PST_I0 THEN DO;

   8527  1 001047   000000 236100                    LDQ     0,,PR0
         1 001050   777000 376003                    ANQ     -512,DU
         1 001051   001000 116003                    CMPQ    512,DU
         1 001052   001177 601000 1                  TNZ     s:9231

      227     8528                        %IFPREDDO( P="01&02&03&22");
PL6.E3A0      #001=XSP$MACHINE File=XSP$MACHINE.:XSA1TSI                         WED 10/01/97 12:04 Page:97

   8536  1 001053   400000 236003                    LDQ     -131072,DU
         1 001054   200014 756100                    STQ     CONTINUING,,AUTO

   8582  1 001055   200013 236100                    LDQ     PINV,,AUTO
         1 001056   200000 316003                    CANQ    65536,DU
         1 001057   001062 600000 1                  TZE     s:8591

   8582  1 001060   013152 701000 1                  TSX1    PRED01
         1 001061   000000 011000                    NOP     0

   8591  1 001062   200012 236100                    LDQ     PRED,,AUTO
         1 001063   200000 316003                    CANQ    65536,DU
         1 001064   001133 600000 1                  TZE     s:8903

   8652  1 001065   200013 236100                    LDQ     PINV,,AUTO
         1 001066   100000 316003                    CANQ    32768,DU
         1 001067   001072 600000 1                  TZE     s:8661

   8652  1 001070   013164 701000 1                  TSX1    PRED02
         1 001071   000000 011000                    NOP     0

   8661  1 001072   200012 236100                    LDQ     PRED,,AUTO
         1 001073   100000 316003                    CANQ    32768,DU
         1 001074   001133 600000 1                  TZE     s:8903

   8722  1 001075   200013 236100                    LDQ     PINV,,AUTO
         1 001076   040000 316003                    CANQ    16384,DU
         1 001077   001102 600000 1                  TZE     s:8731

   8722  1 001100   013175 701000 1                  TSX1    PRED03
         1 001101   000000 011000                    NOP     0

   8731  1 001102   200012 236100                    LDQ     PRED,,AUTO
         1 001103   040000 316003                    CANQ    16384,DU
         1 001104   001133 600000 1                  TZE     s:8903

PL6.E3A0      #001=XSP$MACHINE File=XSP$MACHINE.:XSA1TSI                         WED 10/01/97 12:04 Page:98
   8806  1 001105   200013 236100                    LDQ     PINV,,AUTO
         1 001106   020000 316007                    CANQ    8192,DL
         1 001107   001112 600000 1                  TZE     s:8816

   8806  1 001110   013527 701000 1                  TSX1    PRED22
         1 001111   000000 011000                    NOP     0

   8816  1 001112   200012 236100                    LDQ     PRED,,AUTO
         1 001113   020000 316007                    CANQ    8192,DL
         1 001114   001133 600000 1                  TZE     s:8903

   8880  1 001115   200014 450100                    STZ     CONTINUING,,AUTO

      228     8882                            %ACTION01;

   8883  1 001116   012666 701000 1                  TSX1    ACTION01
         1 001117   000000 011000                    NOP     0

      229     8885                            %ACTION02;

   8886  1 001120   012714 701000 1                  TSX1    ACTION02
         1 001121   000000 011000                    NOP     0

      230     8888                            %ACTION20;

   8889  1 001122   013136 701000 1                  TSX1    ACTION20
         1 001123   000000 011000                    NOP     0

      231     8891                            %EVENT( EV=%XSP_PEV_PCONIND);

   8892  1 001124   000015 236000 2                  LDQ     13
         1 001125   200017 756100                    STQ     CONTINUING+3,,AUTO
         1 001126   012517 701000 1                  TSX1    EVNT
         1 001127   012433 702000 1                  TSX2    EVNTERR

      232     8894    4                       PCTX.STATE = %XSP_PST_I2;

PL6.E3A0      #001=XSP$MACHINE File=XSP$MACHINE.:XSA1TSI                         WED 10/01/97 12:04 Page:99
   8894  1 001130   200010 470500                    LDP0    PCTX$,,AUTO
         1 001131   003000 236003                    LDQ     1536,DU
         1 001132   000000 552140                    STBQ    0,'40'O,PR0

      233     8895    4                       END;

      234     8896                        %ELSEPREDDO( P="-01|-02|-22");

   8903  1 001133   200014 234100                    SZN     CONTINUING,,AUTO
         1 001134   001172 605000 1                  TPL     s:9226

   8969  1 001135   200013 236100                    LDQ     PINV,,AUTO
         1 001136   200000 316003                    CANQ    65536,DU
         1 001137   001142 600000 1                  TZE     s:9049

   8969  1 001140   013152 701000 1                  TSX1    PRED01
         1 001141   000000 011000                    NOP     0

   9049  1 001142   200013 236100                    LDQ     PINV,,AUTO
         1 001143   100000 316003                    CANQ    32768,DU
         1 001144   001147 600000 1                  TZE     s:9140

   9049  1 001145   013164 701000 1                  TSX1    PRED02
         1 001146   000000 011000                    NOP     0

   9140  1 001147   200013 236100                    LDQ     PINV,,AUTO
         1 001150   020000 316007                    CANQ    8192,DL
         1 001151   001154 600000 1                  TZE     s:9150

   9140  1 001152   013527 701000 1                  TSX1    PRED22
         1 001153   000000 011000                    NOP     0

   9150  1 001154   200012 236100                    LDQ     PRED,,AUTO
         1 001155   200000 316003                    CANQ    65536,DU
         1 001156   001163 600000 1                  TZE     s:9214
         1 001157   100000 316003                    CANQ    32768,DU
         1 001160   001163 600000 1                  TZE     s:9214
PL6.E3A0      #001=XSP$MACHINE File=XSP$MACHINE.:XSA1TSI                         WED 10/01/97 12:04 Page:100
         1 001161   020000 316007                    CANQ    8192,DL
         1 001162   001172 601000 1                  TNZ     s:9226

   9214  1 001163   200014 450100                    STZ     CONTINUING,,AUTO

      235     9216                            %ACTION01;

   9217  1 001164   012666 701000 1                  TSX1    ACTION01
         1 001165   000000 011000                    NOP     0

      236     9219                            %EVENT( EV=%XSP_PEV_CPR);

   9220  1 001166   000017 236000 2                  LDQ     15
         1 001167   200017 756100                    STQ     CONTINUING+3,,AUTO
         1 001170   012517 701000 1                  TSX1    EVNT
         1 001171   012433 702000 1                  TSX2    EVNTERR

      237     9222    4                       END;

      238     9223                        %ENDPREDDO;

   9226  1 001172   200014 234100                    SZN     CONTINUING,,AUTO
         1 001173   012432 605000 1                  TPL     s:37359

   9226  1 001174   012644 701000 1                  TSX1    OOPS
         1 001175   000000 011000                    NOP     0

      239     9228    3                   END;

   9228  1 001176   012432 710000 1                  TRA     s:37359

      240     9229    2               ELSE
      241     9230                        %INVALID;

   9231  1 001177   012644 701000 1                  TSX1    OOPS
         1 001200   000000 011000                    NOP     0
         1 001201   012432 710000 1                  TRA     s:37359
PL6.E3A0      #001=XSP$MACHINE File=XSP$MACHINE.:XSA1TSI                         WED 10/01/97 12:04 Page:101

      242     9233    2           CASE( %XSP_PEV_CPA);                    /* TABLE 21 */

      243     9234    3               IF PCTX.STATE = %XSP_PST_I1 THEN DO;

   9234  1 001202   000000 236100                    LDQ     0,,PR0
         1 001203   777000 376003                    ANQ     -512,DU
         1 001204   002000 116003                    CMPQ    1024,DU
         1 001205   001241 601000 1                  TNZ     s:9353

      244     9235                        %IFPREDDO( P="04");

   9243  1 001206   400000 236003                    LDQ     -131072,DU
         1 001207   200014 756100                    STQ     CONTINUING,,AUTO

   9303  1 001210   200013 236100                    LDQ     PINV,,AUTO
         1 001211   020000 316003                    CANQ    8192,DU
         1 001212   001215 600000 1                  TZE     s:9313

   9303  1 001213   013262 701000 1                  TSX1    PRED04
         1 001214   000000 011000                    NOP     0

   9313  1 001215   200012 236100                    LDQ     PRED,,AUTO
         1 001216   020000 316003                    CANQ    8192,DU
         1 001217   001234 600000 1                  TZE     s:9348

   9332  1 001220   200014 450100                    STZ     CONTINUING,,AUTO

      245     9334                            %ACTION03;

   9335  1 001221   012724 701000 1                  TSX1    ACTION03
         1 001222   000000 011000                    NOP     0

      246     9337                            %ACTION12;

   9338  1 001223   013070 701000 1                  TSX1    ACTION12
         1 001224   000000 011000                    NOP     0
PL6.E3A0      #001=XSP$MACHINE File=XSP$MACHINE.:XSA1TSI                         WED 10/01/97 12:04 Page:102

      247     9340                            %EVENT( EV=%XSP_PEV_PCONCFP);

   9341  1 001225   000021 236000 2                  LDQ     17
         1 001226   200017 756100                    STQ     CONTINUING+3,,AUTO
         1 001227   012517 701000 1                  TSX1    EVNT
         1 001230   012433 702000 1                  TSX2    EVNTERR

      248     9343    4                       PCTX.STATE = %XSP_PST_T0;

   9343  1 001231   200010 470500                    LDP0    PCTX$,,AUTO
         1 001232   007000 236003                    LDQ     3584,DU
         1 001233   000000 552140                    STBQ    0,'40'O,PR0

      249     9344    4                       END;

      250     9345                        %ENDPREDDO;

   9348  1 001234   200014 234100                    SZN     CONTINUING,,AUTO
         1 001235   012432 605000 1                  TPL     s:37359

   9348  1 001236   012644 701000 1                  TSX1    OOPS
         1 001237   000000 011000                    NOP     0

      251     9350    3                   END;

   9350  1 001240   012432 710000 1                  TRA     s:37359

      252     9351    2               ELSE
      253     9352                        %INVALID;

   9353  1 001241   012644 701000 1                  TSX1    OOPS
         1 001242   000000 011000                    NOP     0
         1 001243   012432 710000 1                  TRA     s:37359

      254     9355    2           CASE( %XSP_PEV_CPR);                    /* TABLE 21 */

PL6.E3A0      #001=XSP$MACHINE File=XSP$MACHINE.:XSA1TSI                         WED 10/01/97 12:04 Page:103
      255     9356    3               IF PCTX.STATE = %XSP_PST_I1 THEN DO;

   9356  1 001244   000000 236100                    LDQ     0,,PR0
         1 001245   777000 376003                    ANQ     -512,DU
         1 001246   002000 116003                    CMPQ    1024,DU
         1 001247   001277 601000 1                  TNZ     s:9469

      256     9357                        %IFPREDDO( P="04");

   9365  1 001250   400000 236003                    LDQ     -131072,DU
         1 001251   200014 756100                    STQ     CONTINUING,,AUTO

   9425  1 001252   200013 236100                    LDQ     PINV,,AUTO
         1 001253   020000 316003                    CANQ    8192,DU
         1 001254   001257 600000 1                  TZE     s:9435

   9425  1 001255   013262 701000 1                  TSX1    PRED04
         1 001256   000000 011000                    NOP     0

   9435  1 001257   200012 236100                    LDQ     PRED,,AUTO
         1 001260   020000 316003                    CANQ    8192,DU
         1 001261   001272 600000 1                  TZE     s:9464

   9454  1 001262   200014 450100                    STZ     CONTINUING,,AUTO

      257     9456                            %EVENT( EV=%XSP_PEV_PCONCFN);

   9457  1 001263   000023 236000 2                  LDQ     19
         1 001264   200017 756100                    STQ     CONTINUING+3,,AUTO
         1 001265   012517 701000 1                  TSX1    EVNT
         1 001266   012433 702000 1                  TSX2    EVNTERR

      258     9459    4                       PCTX.STATE = %XSP_PST_I0;

   9459  1 001267   200010 470500                    LDP0    PCTX$,,AUTO
         1 001270   001000 236003                    LDQ     512,DU
         1 001271   000000 552140                    STBQ    0,'40'O,PR0
PL6.E3A0      #001=XSP$MACHINE File=XSP$MACHINE.:XSA1TSI                         WED 10/01/97 12:04 Page:104

      259     9460    4                       END;

      260     9461                        %ENDPREDDO;

   9464  1 001272   200014 234100                    SZN     CONTINUING,,AUTO
         1 001273   012432 605000 1                  TPL     s:37359

   9464  1 001274   012644 701000 1                  TSX1    OOPS
         1 001275   000000 011000                    NOP     0

      261     9466    3                   END;

   9466  1 001276   012432 710000 1                  TRA     s:37359

      262     9467    2               ELSE
      263     9468                        %INVALID;

   9469  1 001277   012644 701000 1                  TSX1    OOPS
         1 001300   000000 011000                    NOP     0
         1 001301   012432 710000 1                  TRA     s:37359

      264     9471    2           CASE( %XSP_PEV_RS);                     /* TABLE 29 */

      265     9472    3               DO CASE( PCTX.STATE);

   9472  1 001302   000000 236100                    LDQ     0,,PR0
         1 001303   000033 772000                    QRL     27
         1 001304   000004 136007                    SBLQ    4,DL
         1 001305   000004 116007                    CMPQ    4,DL
         1 001306   001310 602006 1                  TNC     s:9472+6,QL
         1 001307   002261 710000 1                  TRA     s:13541
         1 001310   001314 710000 1                  TRA     s:9483
         1 001311   001541 710000 1                  TRA     s:10660
         1 001312   001314 710000 1                  TRA     s:9483
         1 001313   001762 710000 1                  TRA     s:11831

PL6.E3A0      #001=XSP$MACHINE File=XSP$MACHINE.:XSA1TSI                         WED 10/01/97 12:04 Page:105
      266     9473    3                   CASE( %XSP_PST_AC0,

      267     9474    3                         %XSP_PST_AC2);
      268     9475                            %IFPREDDO( P="-17&21");

   9483  1 001314   400000 236003                    LDQ     -131072,DU
         1 001315   200014 756100                    STQ     CONTINUING,,AUTO

   9547  1 001316   200013 236100                    LDQ     PINV,,AUTO
         1 001317   000001 316003                    CANQ    1,DU
         1 001320   001323 600000 1                  TZE     s:9556

   9547  1 001321   013475 701000 1                  TSX1    PRED17
         1 001322   000000 011000                    NOP     0

   9556  1 001323   200012 236100                    LDQ     PRED,,AUTO
         1 001324   000001 316003                    CANQ    1,DU
         1 001325   001350 601000 1                  TNZ     s:9697

   9631  1 001326   200013 236100                    LDQ     PINV,,AUTO
         1 001327   040000 316007                    CANQ    16384,DL
         1 001330   001333 600000 1                  TZE     s:9641

   9631  1 001331   013523 701000 1                  TSX1    PRED21
         1 001332   000000 011000                    NOP     0

   9641  1 001333   200012 236100                    LDQ     PRED,,AUTO
         1 001334   040000 316007                    CANQ    16384,DL
         1 001335   001350 600000 1                  TZE     s:9697

   9680  1 001336   200014 450100                    STZ     CONTINUING,,AUTO

      269     9682                                %ACTION21;

   9683  1 001337   013144 701000 1                  TSX1    ACTION21
         1 001340   000000 011000                    NOP     0

PL6.E3A0      #001=XSP$MACHINE File=XSP$MACHINE.:XSA1TSI                         WED 10/01/97 12:04 Page:106
      270     9685                                %EVENT( EV=%XSP_PEV_PRSXIND);

   9686  1 001341   000025 236000 2                  LDQ     21
         1 001342   200017 756100                    STQ     CONTINUING+3,,AUTO
         1 001343   012517 701000 1                  TSX1    EVNT
         1 001344   012433 702000 1                  TSX2    EVNTERR

      271     9688    4                           PCTX.STATE = %XSP_PST_T0;

   9688  1 001345   200010 470500                    LDP0    PCTX$,,AUTO
         1 001346   007000 236003                    LDQ     3584,DU
         1 001347   000000 552140                    STBQ    0,'40'O,PR0

      272     9689    4                           END;

      273     9690                            %ELSEPREDDO( P="17&19&21");

   9697  1 001350   200014 234100                    SZN     CONTINUING,,AUTO
         1 001351   001414 605000 1                  TPL     s:9972

   9742  1 001352   200013 236100                    LDQ     PINV,,AUTO
         1 001353   000001 316003                    CANQ    1,DU
         1 001354   001357 600000 1                  TZE     s:9751

   9742  1 001355   013475 701000 1                  TSX1    PRED17
         1 001356   000000 011000                    NOP     0

   9751  1 001357   200012 236100                    LDQ     PRED,,AUTO
         1 001360   000001 316003                    CANQ    1,DU
         1 001361   001414 600000 1                  TZE     s:9972

   9812  1 001362   200013 236100                    LDQ     PINV,,AUTO
         1 001363   200000 316007                    CANQ    65536,DL
         1 001364   001367 600000 1                  TZE     s:9821

   9812  1 001365   013513 701000 1                  TSX1    PRED19
         1 001366   000000 011000                    NOP     0
PL6.E3A0      #001=XSP$MACHINE File=XSP$MACHINE.:XSA1TSI                         WED 10/01/97 12:04 Page:107

   9821  1 001367   200012 236100                    LDQ     PRED,,AUTO
         1 001370   200000 316007                    CANQ    65536,DL
         1 001371   001414 600000 1                  TZE     s:9972

   9896  1 001372   200013 236100                    LDQ     PINV,,AUTO
         1 001373   040000 316007                    CANQ    16384,DL
         1 001374   001377 600000 1                  TZE     s:9906

   9896  1 001375   013523 701000 1                  TSX1    PRED21
         1 001376   000000 011000                    NOP     0

   9906  1 001377   200012 236100                    LDQ     PRED,,AUTO
         1 001400   040000 316007                    CANQ    16384,DL
         1 001401   001414 600000 1                  TZE     s:9972

   9955  1 001402   200014 450100                    STZ     CONTINUING,,AUTO

      274     9957                                %ACTION21;

   9958  1 001403   013144 701000 1                  TSX1    ACTION21
         1 001404   000000 011000                    NOP     0

      275     9960                                %EVENT( EV=%XSP_PEV_PRSXIND);

   9961  1 001405   000025 236000 2                  LDQ     21
         1 001406   200017 756100                    STQ     CONTINUING+3,,AUTO
         1 001407   012517 701000 1                  TSX1    EVNT
         1 001410   012433 702000 1                  TSX2    EVNTERR

      276     9963    4                           PCTX.STATE = %XSP_PST_T0;

   9963  1 001411   200010 470500                    LDP0    PCTX$,,AUTO
         1 001412   007000 236003                    LDQ     3584,DU
         1 001413   000000 552140                    STBQ    0,'40'O,PR0

      277     9964    4                           END;
PL6.E3A0      #001=XSP$MACHINE File=XSP$MACHINE.:XSA1TSI                         WED 10/01/97 12:04 Page:108

      278     9965                            %ELSEPREDDO( P="17&26&18");

   9972  1 001414   200014 234100                    SZN     CONTINUING,,AUTO
         1 001415   001460 605000 1                  TPL     s:10247

  10017  1 001416   200013 236100                    LDQ     PINV,,AUTO
         1 001417   000001 316003                    CANQ    1,DU
         1 001420   001423 600000 1                  TZE     s:10026

  10017  1 001421   013475 701000 1                  TSX1    PRED17
         1 001422   000000 011000                    NOP     0

  10026  1 001423   200012 236100                    LDQ     PRED,,AUTO
         1 001424   000001 316003                    CANQ    1,DU
         1 001425   001460 600000 1                  TZE     s:10247

  10087  1 001426   200013 236100                    LDQ     PINV,,AUTO
         1 001427   001000 316007                    CANQ    512,DL
         1 001430   001433 600000 1                  TZE     s:10096

  10087  1 001431   013577 701000 1                  TSX1    PRED26
         1 001432   000000 011000                    NOP     0

  10096  1 001433   200012 236100                    LDQ     PRED,,AUTO
         1 001434   001000 316007                    CANQ    512,DL
         1 001435   001460 600000 1                  TZE     s:10247

  10171  1 001436   200013 236100                    LDQ     PINV,,AUTO
         1 001437   400000 316007                    CANQ    -131072,DL
         1 001440   001443 600000 1                  TZE     s:10181

  10171  1 001441   013507 701000 1                  TSX1    PRED18
         1 001442   000000 011000                    NOP     0

  10181  1 001443   200012 236100                    LDQ     PRED,,AUTO
         1 001444   400000 316007                    CANQ    -131072,DL
PL6.E3A0      #001=XSP$MACHINE File=XSP$MACHINE.:XSA1TSI                         WED 10/01/97 12:04 Page:109
         1 001445   001460 600000 1                  TZE     s:10247

  10230  1 001446   200014 450100                    STZ     CONTINUING,,AUTO

      279    10232                                %ACTION16;

  10233  1 001447   013113 701000 1                  TSX1    ACTION16
         1 001450   000000 011000                    NOP     0

      280    10235                                %EVENT( EV=%XSP_PEV_PRSXIND);

  10236  1 001451   000025 236000 2                  LDQ     21
         1 001452   200017 756100                    STQ     CONTINUING+3,,AUTO
         1 001453   012517 701000 1                  TSX1    EVNT
         1 001454   012433 702000 1                  TSX2    EVNTERR

      281    10238    4                           PCTX.STATE = %XSP_PST_T0;

  10238  1 001455   200010 470500                    LDP0    PCTX$,,AUTO
         1 001456   007000 236003                    LDQ     3584,DU
         1 001457   000000 552140                    STBQ    0,'40'O,PR0

      282    10239    4                           END;

      283    10240                            %ELSEPREDDO( P="17&-19&-26&15");

  10247  1 001460   200014 234100                    SZN     CONTINUING,,AUTO
         1 001461   001534 605000 1                  TPL     s:10649

  10292  1 001462   200013 236100                    LDQ     PINV,,AUTO
         1 001463   000001 316003                    CANQ    1,DU
         1 001464   001467 600000 1                  TZE     s:10301

  10292  1 001465   013475 701000 1                  TSX1    PRED17
         1 001466   000000 011000                    NOP     0

  10301  1 001467   200012 236100                    LDQ     PRED,,AUTO
PL6.E3A0      #001=XSP$MACHINE File=XSP$MACHINE.:XSA1TSI                         WED 10/01/97 12:04 Page:110
         1 001470   000001 316003                    CANQ    1,DU
         1 001471   001534 600000 1                  TZE     s:10649

  10380  1 001472   200013 236100                    LDQ     PINV,,AUTO
         1 001473   200000 316007                    CANQ    65536,DL
         1 001474   001477 600000 1                  TZE     s:10389

  10380  1 001475   013513 701000 1                  TSX1    PRED19
         1 001476   000000 011000                    NOP     0

  10389  1 001477   200012 236100                    LDQ     PRED,,AUTO
         1 001500   200000 316007                    CANQ    65536,DL
         1 001501   001534 601000 1                  TNZ     s:10649

  10468  1 001502   200013 236100                    LDQ     PINV,,AUTO
         1 001503   001000 316007                    CANQ    512,DL
         1 001504   001507 600000 1                  TZE     s:10477

  10468  1 001505   013577 701000 1                  TSX1    PRED26
         1 001506   000000 011000                    NOP     0

  10477  1 001507   200012 236100                    LDQ     PRED,,AUTO
         1 001510   001000 316007                    CANQ    512,DL
         1 001511   001534 601000 1                  TNZ     s:10649

  10552  1 001512   200013 236100                    LDQ     PINV,,AUTO
         1 001513   000004 316003                    CANQ    4,DU
         1 001514   001517 600000 1                  TZE     s:10562

  10552  1 001515   013465 701000 1                  TSX1    PRED15
         1 001516   000000 011000                    NOP     0

  10562  1 001517   200012 236100                    LDQ     PRED,,AUTO
         1 001520   000004 316003                    CANQ    4,DU
         1 001521   001534 600000 1                  TZE     s:10649

  10636  1 001522   200014 450100                    STZ     CONTINUING,,AUTO
PL6.E3A0      #001=XSP$MACHINE File=XSP$MACHINE.:XSA1TSI                         WED 10/01/97 12:04 Page:111

      284    10638                                %ACTION18;

  10639  1 001523   013126 701000 1                  TSX1    ACTION18
         1 001524   000000 011000                    NOP     0

      285    10641                                %EVENT( EV=%XSP_PEV_PRSXIND);

  10642  1 001525   000025 236000 2                  LDQ     21
         1 001526   200017 756100                    STQ     CONTINUING+3,,AUTO
         1 001527   012517 701000 1                  TSX1    EVNT
         1 001530   012433 702000 1                  TSX2    EVNTERR

      286    10644    4                           PCTX.STATE = %XSP_PST_T0;

  10644  1 001531   200010 470500                    LDP0    PCTX$,,AUTO
         1 001532   007000 236003                    LDQ     3584,DU
         1 001533   000000 552140                    STBQ    0,'40'O,PR0

      287    10645    4                           END;

      288    10646                            %ENDPREDDO;

  10649  1 001534   200014 234100                    SZN     CONTINUING,,AUTO
         1 001535   012432 605000 1                  TPL     s:37359

  10649  1 001536   012644 701000 1                  TSX1    OOPS
         1 001537   000000 011000                    NOP     0
         1 001540   012432 710000 1                  TRA     s:37359

      289    10651    3                   CASE( %XSP_PST_AC1);

      290    10652                            %IFPREDDO( P="-17&21");

  10660  1 001541   400000 236003                    LDQ     -131072,DU
         1 001542   200014 756100                    STQ     CONTINUING,,AUTO

PL6.E3A0      #001=XSP$MACHINE File=XSP$MACHINE.:XSA1TSI                         WED 10/01/97 12:04 Page:112
  10724  1 001543   200013 236100                    LDQ     PINV,,AUTO
         1 001544   000001 316003                    CANQ    1,DU
         1 001545   001550 600000 1                  TZE     s:10733

  10724  1 001546   013475 701000 1                  TSX1    PRED17
         1 001547   000000 011000                    NOP     0

  10733  1 001550   200012 236100                    LDQ     PRED,,AUTO
         1 001551   000001 316003                    CANQ    1,DU
         1 001552   001573 601000 1                  TNZ     s:10871

  10808  1 001553   200013 236100                    LDQ     PINV,,AUTO
         1 001554   040000 316007                    CANQ    16384,DL
         1 001555   001560 600000 1                  TZE     s:10818

  10808  1 001556   013523 701000 1                  TSX1    PRED21
         1 001557   000000 011000                    NOP     0

  10818  1 001560   200012 236100                    LDQ     PRED,,AUTO
         1 001561   040000 316007                    CANQ    16384,DL
         1 001562   001573 600000 1                  TZE     s:10871

  10857  1 001563   200014 450100                    STZ     CONTINUING,,AUTO

      291    10859                                %EVENT( EV=%XSP_PEV_PRSXIND);

  10860  1 001564   000025 236000 2                  LDQ     21
         1 001565   200017 756100                    STQ     CONTINUING+3,,AUTO
         1 001566   012517 701000 1                  TSX1    EVNT
         1 001567   012433 702000 1                  TSX2    EVNTERR

      292    10862    4                           PCTX.STATE = %XSP_PST_T0;

  10862  1 001570   200010 470500                    LDP0    PCTX$,,AUTO
         1 001571   007000 236003                    LDQ     3584,DU
         1 001572   000000 552140                    STBQ    0,'40'O,PR0

PL6.E3A0      #001=XSP$MACHINE File=XSP$MACHINE.:XSA1TSI                         WED 10/01/97 12:04 Page:113
      293    10863    4                           END;

      294    10864                            %ELSEPREDDO( P="17&19&21");

  10871  1 001573   200014 234100                    SZN     CONTINUING,,AUTO
         1 001574   001635 605000 1                  TPL     s:11143

  10916  1 001575   200013 236100                    LDQ     PINV,,AUTO
         1 001576   000001 316003                    CANQ    1,DU
         1 001577   001602 600000 1                  TZE     s:10925

  10916  1 001600   013475 701000 1                  TSX1    PRED17
         1 001601   000000 011000                    NOP     0

  10925  1 001602   200012 236100                    LDQ     PRED,,AUTO
         1 001603   000001 316003                    CANQ    1,DU
         1 001604   001635 600000 1                  TZE     s:11143

  10986  1 001605   200013 236100                    LDQ     PINV,,AUTO
         1 001606   200000 316007                    CANQ    65536,DL
         1 001607   001612 600000 1                  TZE     s:10995

  10986  1 001610   013513 701000 1                  TSX1    PRED19
         1 001611   000000 011000                    NOP     0

  10995  1 001612   200012 236100                    LDQ     PRED,,AUTO
         1 001613   200000 316007                    CANQ    65536,DL
         1 001614   001635 600000 1                  TZE     s:11143

  11070  1 001615   200013 236100                    LDQ     PINV,,AUTO
         1 001616   040000 316007                    CANQ    16384,DL
         1 001617   001622 600000 1                  TZE     s:11080

  11070  1 001620   013523 701000 1                  TSX1    PRED21
         1 001621   000000 011000                    NOP     0

  11080  1 001622   200012 236100                    LDQ     PRED,,AUTO
PL6.E3A0      #001=XSP$MACHINE File=XSP$MACHINE.:XSA1TSI                         WED 10/01/97 12:04 Page:114
         1 001623   040000 316007                    CANQ    16384,DL
         1 001624   001635 600000 1                  TZE     s:11143

  11129  1 001625   200014 450100                    STZ     CONTINUING,,AUTO

      295    11131                                %EVENT( EV=%XSP_PEV_PRSXIND);

  11132  1 001626   000025 236000 2                  LDQ     21
         1 001627   200017 756100                    STQ     CONTINUING+3,,AUTO
         1 001630   012517 701000 1                  TSX1    EVNT
         1 001631   012433 702000 1                  TSX2    EVNTERR

      296    11134    4                           PCTX.STATE = %XSP_PST_T0;

  11134  1 001632   200010 470500                    LDP0    PCTX$,,AUTO
         1 001633   007000 236003                    LDQ     3584,DU
         1 001634   000000 552140                    STBQ    0,'40'O,PR0

      297    11135    4                           END;

      298    11136                            %ELSEPREDDO( P="17&26&18");

  11143  1 001635   200014 234100                    SZN     CONTINUING,,AUTO
         1 001636   001701 605000 1                  TPL     s:11418

  11188  1 001637   200013 236100                    LDQ     PINV,,AUTO
         1 001640   000001 316003                    CANQ    1,DU
         1 001641   001644 600000 1                  TZE     s:11197

  11188  1 001642   013475 701000 1                  TSX1    PRED17
         1 001643   000000 011000                    NOP     0

  11197  1 001644   200012 236100                    LDQ     PRED,,AUTO
         1 001645   000001 316003                    CANQ    1,DU
         1 001646   001701 600000 1                  TZE     s:11418

  11258  1 001647   200013 236100                    LDQ     PINV,,AUTO
PL6.E3A0      #001=XSP$MACHINE File=XSP$MACHINE.:XSA1TSI                         WED 10/01/97 12:04 Page:115
         1 001650   001000 316007                    CANQ    512,DL
         1 001651   001654 600000 1                  TZE     s:11267

  11258  1 001652   013577 701000 1                  TSX1    PRED26
         1 001653   000000 011000                    NOP     0

  11267  1 001654   200012 236100                    LDQ     PRED,,AUTO
         1 001655   001000 316007                    CANQ    512,DL
         1 001656   001701 600000 1                  TZE     s:11418

  11342  1 001657   200013 236100                    LDQ     PINV,,AUTO
         1 001660   400000 316007                    CANQ    -131072,DL
         1 001661   001664 600000 1                  TZE     s:11352

  11342  1 001662   013507 701000 1                  TSX1    PRED18
         1 001663   000000 011000                    NOP     0

  11352  1 001664   200012 236100                    LDQ     PRED,,AUTO
         1 001665   400000 316007                    CANQ    -131072,DL
         1 001666   001701 600000 1                  TZE     s:11418

  11401  1 001667   200014 450100                    STZ     CONTINUING,,AUTO

      299    11403                                %ACTION16;

  11404  1 001670   013113 701000 1                  TSX1    ACTION16
         1 001671   000000 011000                    NOP     0

      300    11406                                %EVENT( EV=%XSP_PEV_PRSXIND);

  11407  1 001672   000025 236000 2                  LDQ     21
         1 001673   200017 756100                    STQ     CONTINUING+3,,AUTO
         1 001674   012517 701000 1                  TSX1    EVNT
         1 001675   012433 702000 1                  TSX2    EVNTERR

      301    11409    4                           PCTX.STATE = %XSP_PST_T0;

PL6.E3A0      #001=XSP$MACHINE File=XSP$MACHINE.:XSA1TSI                         WED 10/01/97 12:04 Page:116
  11409  1 001676   200010 470500                    LDP0    PCTX$,,AUTO
         1 001677   007000 236003                    LDQ     3584,DU
         1 001700   000000 552140                    STBQ    0,'40'O,PR0

      302    11410    4                           END;

      303    11411                            %ELSEPREDDO( P="17&-19&-26&15");

  11418  1 001701   200014 234100                    SZN     CONTINUING,,AUTO
         1 001702   001755 605000 1                  TPL     s:11820

  11463  1 001703   200013 236100                    LDQ     PINV,,AUTO
         1 001704   000001 316003                    CANQ    1,DU
         1 001705   001710 600000 1                  TZE     s:11472

  11463  1 001706   013475 701000 1                  TSX1    PRED17
         1 001707   000000 011000                    NOP     0

  11472  1 001710   200012 236100                    LDQ     PRED,,AUTO
         1 001711   000001 316003                    CANQ    1,DU
         1 001712   001755 600000 1                  TZE     s:11820

  11551  1 001713   200013 236100                    LDQ     PINV,,AUTO
         1 001714   200000 316007                    CANQ    65536,DL
         1 001715   001720 600000 1                  TZE     s:11560

  11551  1 001716   013513 701000 1                  TSX1    PRED19
         1 001717   000000 011000                    NOP     0

  11560  1 001720   200012 236100                    LDQ     PRED,,AUTO
         1 001721   200000 316007                    CANQ    65536,DL
         1 001722   001755 601000 1                  TNZ     s:11820

  11639  1 001723   200013 236100                    LDQ     PINV,,AUTO
         1 001724   001000 316007                    CANQ    512,DL
         1 001725   001730 600000 1                  TZE     s:11648

PL6.E3A0      #001=XSP$MACHINE File=XSP$MACHINE.:XSA1TSI                         WED 10/01/97 12:04 Page:117
  11639  1 001726   013577 701000 1                  TSX1    PRED26
         1 001727   000000 011000                    NOP     0

  11648  1 001730   200012 236100                    LDQ     PRED,,AUTO
         1 001731   001000 316007                    CANQ    512,DL
         1 001732   001755 601000 1                  TNZ     s:11820

  11723  1 001733   200013 236100                    LDQ     PINV,,AUTO
         1 001734   000004 316003                    CANQ    4,DU
         1 001735   001740 600000 1                  TZE     s:11733

  11723  1 001736   013465 701000 1                  TSX1    PRED15
         1 001737   000000 011000                    NOP     0

  11733  1 001740   200012 236100                    LDQ     PRED,,AUTO
         1 001741   000004 316003                    CANQ    4,DU
         1 001742   001755 600000 1                  TZE     s:11820

  11807  1 001743   200014 450100                    STZ     CONTINUING,,AUTO

      304    11809                                %ACTION18;

  11810  1 001744   013126 701000 1                  TSX1    ACTION18
         1 001745   000000 011000                    NOP     0

      305    11812                                %EVENT( EV=%XSP_PEV_PRSXIND);

  11813  1 001746   000025 236000 2                  LDQ     21
         1 001747   200017 756100                    STQ     CONTINUING+3,,AUTO
         1 001750   012517 701000 1                  TSX1    EVNT
         1 001751   012433 702000 1                  TSX2    EVNTERR

      306    11815    4                           PCTX.STATE = %XSP_PST_T0;

  11815  1 001752   200010 470500                    LDP0    PCTX$,,AUTO
         1 001753   007000 236003                    LDQ     3584,DU
         1 001754   000000 552140                    STBQ    0,'40'O,PR0
PL6.E3A0      #001=XSP$MACHINE File=XSP$MACHINE.:XSA1TSI                         WED 10/01/97 12:04 Page:118

      307    11816    4                           END;

      308    11817                            %ENDPREDDO;

  11820  1 001755   200014 234100                    SZN     CONTINUING,,AUTO
         1 001756   012432 605000 1                  TPL     s:37359

  11820  1 001757   012644 701000 1                  TSX1    OOPS
         1 001760   000000 011000                    NOP     0
         1 001761   012432 710000 1                  TRA     s:37359

      309    11822    3                   CASE( %XSP_PST_T0);

      310    11823                            %IFPREDDO( P="-11&05");

  11831  1 001762   400000 236003                    LDQ     -131072,DU
         1 001763   200014 756100                    STQ     CONTINUING,,AUTO

  11895  1 001764   200013 236100                    LDQ     PINV,,AUTO
         1 001765   000100 316003                    CANQ    64,DU
         1 001766   001771 600000 1                  TZE     s:11904

  11895  1 001767   013425 701000 1                  TSX1    PRED11
         1 001770   000000 011000                    NOP     0

  11904  1 001771   200012 236100                    LDQ     PRED,,AUTO
         1 001772   000100 316003                    CANQ    64,DU
         1 001773   002011 601000 1                  TNZ     s:12041

  11979  1 001774   200013 236100                    LDQ     PINV,,AUTO
         1 001775   010000 316003                    CANQ    4096,DU
         1 001776   002001 600000 1                  TZE     s:11989

  11979  1 001777   013347 701000 1                  TSX1    PRED05
         1 002000   000000 011000                    NOP     0

PL6.E3A0      #001=XSP$MACHINE File=XSP$MACHINE.:XSA1TSI                         WED 10/01/97 12:04 Page:119
  11989  1 002001   200012 236100                    LDQ     PRED,,AUTO
         1 002002   010000 316003                    CANQ    4096,DU
         1 002003   002011 600000 1                  TZE     s:12041

  12028  1 002004   200014 450100                    STZ     CONTINUING,,AUTO

      311    12030                                %EVENT( EV=%XSP_PEV_PRSXIND);

  12031  1 002005   000025 236000 2                  LDQ     21
         1 002006   200017 756100                    STQ     CONTINUING+3,,AUTO
         1 002007   012517 701000 1                  TSX1    EVNT
         1 002010   012433 702000 1                  TSX2    EVNTERR

      312    12033    4                           END;

      313    12034                            %ELSEPREDDO( P="11&-17&21");

  12041  1 002011   200014 234100                    SZN     CONTINUING,,AUTO
         1 002012   002050 605000 1                  TPL     s:12335

  12086  1 002013   200013 236100                    LDQ     PINV,,AUTO
         1 002014   000100 316003                    CANQ    64,DU
         1 002015   002020 600000 1                  TZE     s:12095

  12086  1 002016   013425 701000 1                  TSX1    PRED11
         1 002017   000000 011000                    NOP     0

  12095  1 002020   200012 236100                    LDQ     PRED,,AUTO
         1 002021   000100 316003                    CANQ    64,DU
         1 002022   002050 600000 1                  TZE     s:12335

  12174  1 002023   200013 236100                    LDQ     PINV,,AUTO
         1 002024   000001 316003                    CANQ    1,DU
         1 002025   002030 600000 1                  TZE     s:12183

  12174  1 002026   013475 701000 1                  TSX1    PRED17
         1 002027   000000 011000                    NOP     0
PL6.E3A0      #001=XSP$MACHINE File=XSP$MACHINE.:XSA1TSI                         WED 10/01/97 12:04 Page:120

  12183  1 002030   200012 236100                    LDQ     PRED,,AUTO
         1 002031   000001 316003                    CANQ    1,DU
         1 002032   002050 601000 1                  TNZ     s:12335

  12258  1 002033   200013 236100                    LDQ     PINV,,AUTO
         1 002034   040000 316007                    CANQ    16384,DL
         1 002035   002040 600000 1                  TZE     s:12268

  12258  1 002036   013523 701000 1                  TSX1    PRED21
         1 002037   000000 011000                    NOP     0

  12268  1 002040   200012 236100                    LDQ     PRED,,AUTO
         1 002041   040000 316007                    CANQ    16384,DL
         1 002042   002050 600000 1                  TZE     s:12335

  12322  1 002043   200014 450100                    STZ     CONTINUING,,AUTO

      314    12324                                %EVENT( EV=%XSP_PEV_PRSXIND);

  12325  1 002044   000025 236000 2                  LDQ     21
         1 002045   200017 756100                    STQ     CONTINUING+3,,AUTO
         1 002046   012517 701000 1                  TSX1    EVNT
         1 002047   012433 702000 1                  TSX2    EVNTERR

      315    12327    4                           END;

      316    12328                            %ELSEPREDDO( P="11&17&19&21");

  12335  1 002050   200014 234100                    SZN     CONTINUING,,AUTO
         1 002051   002117 605000 1                  TPL     s:12691

  12380  1 002052   200013 236100                    LDQ     PINV,,AUTO
         1 002053   000100 316003                    CANQ    64,DU
         1 002054   002057 600000 1                  TZE     s:12389

  12380  1 002055   013425 701000 1                  TSX1    PRED11
PL6.E3A0      #001=XSP$MACHINE File=XSP$MACHINE.:XSA1TSI                         WED 10/01/97 12:04 Page:121
         1 002056   000000 011000                    NOP     0

  12389  1 002057   200012 236100                    LDQ     PRED,,AUTO
         1 002060   000100 316003                    CANQ    64,DU
         1 002061   002117 600000 1                  TZE     s:12691

  12450  1 002062   200013 236100                    LDQ     PINV,,AUTO
         1 002063   000001 316003                    CANQ    1,DU
         1 002064   002067 600000 1                  TZE     s:12459

  12450  1 002065   013475 701000 1                  TSX1    PRED17
         1 002066   000000 011000                    NOP     0

  12459  1 002067   200012 236100                    LDQ     PRED,,AUTO
         1 002070   000001 316003                    CANQ    1,DU
         1 002071   002117 600000 1                  TZE     s:12691

  12520  1 002072   200013 236100                    LDQ     PINV,,AUTO
         1 002073   200000 316007                    CANQ    65536,DL
         1 002074   002077 600000 1                  TZE     s:12529

  12520  1 002075   013513 701000 1                  TSX1    PRED19
         1 002076   000000 011000                    NOP     0

  12529  1 002077   200012 236100                    LDQ     PRED,,AUTO
         1 002100   200000 316007                    CANQ    65536,DL
         1 002101   002117 600000 1                  TZE     s:12691

  12604  1 002102   200013 236100                    LDQ     PINV,,AUTO
         1 002103   040000 316007                    CANQ    16384,DL
         1 002104   002107 600000 1                  TZE     s:12614

  12604  1 002105   013523 701000 1                  TSX1    PRED21
         1 002106   000000 011000                    NOP     0

  12614  1 002107   200012 236100                    LDQ     PRED,,AUTO
         1 002110   040000 316007                    CANQ    16384,DL
PL6.E3A0      #001=XSP$MACHINE File=XSP$MACHINE.:XSA1TSI                         WED 10/01/97 12:04 Page:122
         1 002111   002117 600000 1                  TZE     s:12691

  12678  1 002112   200014 450100                    STZ     CONTINUING,,AUTO

      317    12680                                %EVENT( EV=%XSP_PEV_PRSXIND);

  12681  1 002113   000025 236000 2                  LDQ     21
         1 002114   200017 756100                    STQ     CONTINUING+3,,AUTO
         1 002115   012517 701000 1                  TSX1    EVNT
         1 002116   012433 702000 1                  TSX2    EVNTERR

      318    12683    4                           END;

      319    12684                            %ELSEPREDDO( P="11&17&26&18");

  12691  1 002117   200014 234100                    SZN     CONTINUING,,AUTO
         1 002120   002173 605000 1                  TPL     s:13051

  12736  1 002121   200013 236100                    LDQ     PINV,,AUTO
         1 002122   000100 316003                    CANQ    64,DU
         1 002123   002126 600000 1                  TZE     s:12745

  12736  1 002124   013425 701000 1                  TSX1    PRED11
         1 002125   000000 011000                    NOP     0

  12745  1 002126   200012 236100                    LDQ     PRED,,AUTO
         1 002127   000100 316003                    CANQ    64,DU
         1 002130   002173 600000 1                  TZE     s:13051

  12806  1 002131   200013 236100                    LDQ     PINV,,AUTO
         1 002132   000001 316003                    CANQ    1,DU
         1 002133   002136 600000 1                  TZE     s:12815

  12806  1 002134   013475 701000 1                  TSX1    PRED17
         1 002135   000000 011000                    NOP     0

  12815  1 002136   200012 236100                    LDQ     PRED,,AUTO
PL6.E3A0      #001=XSP$MACHINE File=XSP$MACHINE.:XSA1TSI                         WED 10/01/97 12:04 Page:123
         1 002137   000001 316003                    CANQ    1,DU
         1 002140   002173 600000 1                  TZE     s:13051

  12876  1 002141   200013 236100                    LDQ     PINV,,AUTO
         1 002142   001000 316007                    CANQ    512,DL
         1 002143   002146 600000 1                  TZE     s:12885

  12876  1 002144   013577 701000 1                  TSX1    PRED26
         1 002145   000000 011000                    NOP     0

  12885  1 002146   200012 236100                    LDQ     PRED,,AUTO
         1 002147   001000 316007                    CANQ    512,DL
         1 002150   002173 600000 1                  TZE     s:13051

  12960  1 002151   200013 236100                    LDQ     PINV,,AUTO
         1 002152   400000 316007                    CANQ    -131072,DL
         1 002153   002156 600000 1                  TZE     s:12970

  12960  1 002154   013507 701000 1                  TSX1    PRED18
         1 002155   000000 011000                    NOP     0

  12970  1 002156   200012 236100                    LDQ     PRED,,AUTO
         1 002157   400000 316007                    CANQ    -131072,DL
         1 002160   002173 600000 1                  TZE     s:13051

  13034  1 002161   200014 450100                    STZ     CONTINUING,,AUTO

      320    13036                                %ACTION16;

  13037  1 002162   013113 701000 1                  TSX1    ACTION16
         1 002163   000000 011000                    NOP     0

      321    13039                                %EVENT( EV=%XSP_PEV_PRSXIND);

  13040  1 002164   000025 236000 2                  LDQ     21
         1 002165   200017 756100                    STQ     CONTINUING+3,,AUTO
         1 002166   012517 701000 1                  TSX1    EVNT
PL6.E3A0      #001=XSP$MACHINE File=XSP$MACHINE.:XSA1TSI                         WED 10/01/97 12:04 Page:124
         1 002167   012433 702000 1                  TSX2    EVNTERR

      322    13042    4                           PCTX.STATE = %XSP_PST_T0;

  13042  1 002170   200010 470500                    LDP0    PCTX$,,AUTO
         1 002171   007000 236003                    LDQ     3584,DU
         1 002172   000000 552140                    STBQ    0,'40'O,PR0

      323    13043    4                           END;

      324    13044                            %ELSEPREDDO( P="11&17&-19&-26&15");

  13051  1 002173   200014 234100                    SZN     CONTINUING,,AUTO
         1 002174   002254 605000 1                  TPL     s:13537

  13096  1 002175   200013 236100                    LDQ     PINV,,AUTO
         1 002176   000100 316003                    CANQ    64,DU
         1 002177   002202 600000 1                  TZE     s:13105

  13096  1 002200   013425 701000 1                  TSX1    PRED11
         1 002201   000000 011000                    NOP     0

  13105  1 002202   200012 236100                    LDQ     PRED,,AUTO
         1 002203   000100 316003                    CANQ    64,DU
         1 002204   002254 600000 1                  TZE     s:13537

  13166  1 002205   200013 236100                    LDQ     PINV,,AUTO
         1 002206   000001 316003                    CANQ    1,DU
         1 002207   002212 600000 1                  TZE     s:13175

  13166  1 002210   013475 701000 1                  TSX1    PRED17
         1 002211   000000 011000                    NOP     0

  13175  1 002212   200012 236100                    LDQ     PRED,,AUTO
         1 002213   000001 316003                    CANQ    1,DU
         1 002214   002254 600000 1                  TZE     s:13537

PL6.E3A0      #001=XSP$MACHINE File=XSP$MACHINE.:XSA1TSI                         WED 10/01/97 12:04 Page:125
  13254  1 002215   200013 236100                    LDQ     PINV,,AUTO
         1 002216   200000 316007                    CANQ    65536,DL
         1 002217   002222 600000 1                  TZE     s:13263

  13254  1 002220   013513 701000 1                  TSX1    PRED19
         1 002221   000000 011000                    NOP     0

  13263  1 002222   200012 236100                    LDQ     PRED,,AUTO
         1 002223   200000 316007                    CANQ    65536,DL
         1 002224   002254 601000 1                  TNZ     s:13537

  13342  1 002225   200013 236100                    LDQ     PINV,,AUTO
         1 002226   001000 316007                    CANQ    512,DL
         1 002227   002232 600000 1                  TZE     s:13351

  13342  1 002230   013577 701000 1                  TSX1    PRED26
         1 002231   000000 011000                    NOP     0

  13351  1 002232   200012 236100                    LDQ     PRED,,AUTO
         1 002233   001000 316007                    CANQ    512,DL
         1 002234   002254 601000 1                  TNZ     s:13537

  13426  1 002235   200013 236100                    LDQ     PINV,,AUTO
         1 002236   000004 316003                    CANQ    4,DU
         1 002237   002242 600000 1                  TZE     s:13436

  13426  1 002240   013465 701000 1                  TSX1    PRED15
         1 002241   000000 011000                    NOP     0

  13436  1 002242   200012 236100                    LDQ     PRED,,AUTO
         1 002243   000004 316003                    CANQ    4,DU
         1 002244   002254 600000 1                  TZE     s:13537

  13525  1 002245   200014 450100                    STZ     CONTINUING,,AUTO

      325    13527                                %ACTION18;

PL6.E3A0      #001=XSP$MACHINE File=XSP$MACHINE.:XSA1TSI                         WED 10/01/97 12:04 Page:126
  13528  1 002246   013126 701000 1                  TSX1    ACTION18
         1 002247   000000 011000                    NOP     0

      326    13530                                %EVENT( EV=%XSP_PEV_PRSXIND);

  13531  1 002250   000025 236000 2                  LDQ     21
         1 002251   200017 756100                    STQ     CONTINUING+3,,AUTO
         1 002252   012517 701000 1                  TSX1    EVNT
         1 002253   012433 702000 1                  TSX2    EVNTERR

      327    13533    4                           END;

      328    13534                            %ENDPREDDO;

  13537  1 002254   200014 234100                    SZN     CONTINUING,,AUTO
         1 002255   012432 605000 1                  TPL     s:37359

  13537  1 002256   012644 701000 1                  TSX1    OOPS
         1 002257   000000 011000                    NOP     0
         1 002260   012432 710000 1                  TRA     s:37359

      329    13539    3                   CASE( ELSE);

      330    13540                            %INVALID;

  13541  1 002261   012644 701000 1                  TSX1    OOPS
         1 002262   000000 011000                    NOP     0

      331    13543    3                   END;

  13543  1 002263   012432 710000 1                  TRA     s:37359

      332    13544    2           CASE( %XSP_PEV_RSA);                    /* TABLE 29 */

      333    13545    3               IF PCTX.STATE = %XSP_PST_T0 THEN DO;

  13545  1 002264   000000 236100                    LDQ     0,,PR0
PL6.E3A0      #001=XSP$MACHINE File=XSP$MACHINE.:XSA1TSI                         WED 10/01/97 12:04 Page:127
         1 002265   777000 376003                    ANQ     -512,DU
         1 002266   007000 116003                    CMPQ    3584,DU
         1 002267   002564 601000 1                  TNZ     s:15264

      334    13546                        %IFPREDDO( P="-11&05");

  13554  1 002270   400000 236003                    LDQ     -131072,DU
         1 002271   200014 756100                    STQ     CONTINUING,,AUTO

  13618  1 002272   200013 236100                    LDQ     PINV,,AUTO
         1 002273   000100 316003                    CANQ    64,DU
         1 002274   002277 600000 1                  TZE     s:13627

  13618  1 002275   013425 701000 1                  TSX1    PRED11
         1 002276   000000 011000                    NOP     0

  13627  1 002277   200012 236100                    LDQ     PRED,,AUTO
         1 002300   000100 316003                    CANQ    64,DU
         1 002301   002317 601000 1                  TNZ     s:13764

  13702  1 002302   200013 236100                    LDQ     PINV,,AUTO
         1 002303   010000 316003                    CANQ    4096,DU
         1 002304   002307 600000 1                  TZE     s:13712

  13702  1 002305   013347 701000 1                  TSX1    PRED05
         1 002306   000000 011000                    NOP     0

  13712  1 002307   200012 236100                    LDQ     PRED,,AUTO
         1 002310   010000 316003                    CANQ    4096,DU
         1 002311   002317 600000 1                  TZE     s:13764

  13751  1 002312   200014 450100                    STZ     CONTINUING,,AUTO

      335    13753                            %EVENT( EV=%XSP_PEV_PRSXCNF);

  13754  1 002313   000027 236000 2                  LDQ     23
         1 002314   200017 756100                    STQ     CONTINUING+3,,AUTO
PL6.E3A0      #001=XSP$MACHINE File=XSP$MACHINE.:XSA1TSI                         WED 10/01/97 12:04 Page:128
         1 002315   012517 701000 1                  TSX1    EVNT
         1 002316   012433 702000 1                  TSX2    EVNTERR

      336    13756    4                       END;

      337    13757                        %ELSEPREDDO( P="11&-17&21");

  13764  1 002317   200014 234100                    SZN     CONTINUING,,AUTO
         1 002320   002360 605000 1                  TPL     s:14061

  13809  1 002321   200013 236100                    LDQ     PINV,,AUTO
         1 002322   000100 316003                    CANQ    64,DU
         1 002323   002326 600000 1                  TZE     s:13818

  13809  1 002324   013425 701000 1                  TSX1    PRED11
         1 002325   000000 011000                    NOP     0

  13818  1 002326   200012 236100                    LDQ     PRED,,AUTO
         1 002327   000100 316003                    CANQ    64,DU
         1 002330   002360 600000 1                  TZE     s:14061

  13897  1 002331   200013 236100                    LDQ     PINV,,AUTO
         1 002332   000001 316003                    CANQ    1,DU
         1 002333   002336 600000 1                  TZE     s:13906

  13897  1 002334   013475 701000 1                  TSX1    PRED17
         1 002335   000000 011000                    NOP     0

  13906  1 002336   200012 236100                    LDQ     PRED,,AUTO
         1 002337   000001 316003                    CANQ    1,DU
         1 002340   002360 601000 1                  TNZ     s:14061

  13981  1 002341   200013 236100                    LDQ     PINV,,AUTO
         1 002342   040000 316007                    CANQ    16384,DL
         1 002343   002346 600000 1                  TZE     s:13991

  13981  1 002344   013523 701000 1                  TSX1    PRED21
PL6.E3A0      #001=XSP$MACHINE File=XSP$MACHINE.:XSA1TSI                         WED 10/01/97 12:04 Page:129
         1 002345   000000 011000                    NOP     0

  13991  1 002346   200012 236100                    LDQ     PRED,,AUTO
         1 002347   040000 316007                    CANQ    16384,DL
         1 002350   002360 600000 1                  TZE     s:14061

  14045  1 002351   200014 450100                    STZ     CONTINUING,,AUTO

      338    14047                            %ACTION21;

  14048  1 002352   013144 701000 1                  TSX1    ACTION21
         1 002353   000000 011000                    NOP     0

      339    14050                            %EVENT( EV=%XSP_PEV_PRSXCNF);

  14051  1 002354   000027 236000 2                  LDQ     23
         1 002355   200017 756100                    STQ     CONTINUING+3,,AUTO
         1 002356   012517 701000 1                  TSX1    EVNT
         1 002357   012433 702000 1                  TSX2    EVNTERR

      340    14053    4                       END;

      341    14054                        %ELSEPREDDO( P="11&17&19&21");

  14061  1 002360   200014 234100                    SZN     CONTINUING,,AUTO
         1 002361   002431 605000 1                  TPL     s:14420

  14106  1 002362   200013 236100                    LDQ     PINV,,AUTO
         1 002363   000100 316003                    CANQ    64,DU
         1 002364   002367 600000 1                  TZE     s:14115

  14106  1 002365   013425 701000 1                  TSX1    PRED11
         1 002366   000000 011000                    NOP     0

  14115  1 002367   200012 236100                    LDQ     PRED,,AUTO
         1 002370   000100 316003                    CANQ    64,DU
         1 002371   002431 600000 1                  TZE     s:14420
PL6.E3A0      #001=XSP$MACHINE File=XSP$MACHINE.:XSA1TSI                         WED 10/01/97 12:04 Page:130

  14176  1 002372   200013 236100                    LDQ     PINV,,AUTO
         1 002373   000001 316003                    CANQ    1,DU
         1 002374   002377 600000 1                  TZE     s:14185

  14176  1 002375   013475 701000 1                  TSX1    PRED17
         1 002376   000000 011000                    NOP     0

  14185  1 002377   200012 236100                    LDQ     PRED,,AUTO
         1 002400   000001 316003                    CANQ    1,DU
         1 002401   002431 600000 1                  TZE     s:14420

  14246  1 002402   200013 236100                    LDQ     PINV,,AUTO
         1 002403   200000 316007                    CANQ    65536,DL
         1 002404   002407 600000 1                  TZE     s:14255

  14246  1 002405   013513 701000 1                  TSX1    PRED19
         1 002406   000000 011000                    NOP     0

  14255  1 002407   200012 236100                    LDQ     PRED,,AUTO
         1 002410   200000 316007                    CANQ    65536,DL
         1 002411   002431 600000 1                  TZE     s:14420

  14330  1 002412   200013 236100                    LDQ     PINV,,AUTO
         1 002413   040000 316007                    CANQ    16384,DL
         1 002414   002417 600000 1                  TZE     s:14340

  14330  1 002415   013523 701000 1                  TSX1    PRED21
         1 002416   000000 011000                    NOP     0

  14340  1 002417   200012 236100                    LDQ     PRED,,AUTO
         1 002420   040000 316007                    CANQ    16384,DL
         1 002421   002431 600000 1                  TZE     s:14420

  14404  1 002422   200014 450100                    STZ     CONTINUING,,AUTO

      342    14406                            %ACTION21;
PL6.E3A0      #001=XSP$MACHINE File=XSP$MACHINE.:XSA1TSI                         WED 10/01/97 12:04 Page:131

  14407  1 002423   013144 701000 1                  TSX1    ACTION21
         1 002424   000000 011000                    NOP     0

      343    14409                            %EVENT( EV=%XSP_PEV_PRSXCNF);

  14410  1 002425   000027 236000 2                  LDQ     23
         1 002426   200017 756100                    STQ     CONTINUING+3,,AUTO
         1 002427   012517 701000 1                  TSX1    EVNT
         1 002430   012433 702000 1                  TSX2    EVNTERR

      344    14412    4                       END;

      345    14413                        %ELSEPREDDO( P="11&17&26&05");

  14420  1 002431   200014 234100                    SZN     CONTINUING,,AUTO
         1 002432   002500 605000 1                  TPL     s:14776

  14465  1 002433   200013 236100                    LDQ     PINV,,AUTO
         1 002434   000100 316003                    CANQ    64,DU
         1 002435   002440 600000 1                  TZE     s:14474

  14465  1 002436   013425 701000 1                  TSX1    PRED11
         1 002437   000000 011000                    NOP     0

  14474  1 002440   200012 236100                    LDQ     PRED,,AUTO
         1 002441   000100 316003                    CANQ    64,DU
         1 002442   002500 600000 1                  TZE     s:14776

  14535  1 002443   200013 236100                    LDQ     PINV,,AUTO
         1 002444   000001 316003                    CANQ    1,DU
         1 002445   002450 600000 1                  TZE     s:14544

  14535  1 002446   013475 701000 1                  TSX1    PRED17
         1 002447   000000 011000                    NOP     0

  14544  1 002450   200012 236100                    LDQ     PRED,,AUTO
PL6.E3A0      #001=XSP$MACHINE File=XSP$MACHINE.:XSA1TSI                         WED 10/01/97 12:04 Page:132
         1 002451   000001 316003                    CANQ    1,DU
         1 002452   002500 600000 1                  TZE     s:14776

  14605  1 002453   200013 236100                    LDQ     PINV,,AUTO
         1 002454   001000 316007                    CANQ    512,DL
         1 002455   002460 600000 1                  TZE     s:14614

  14605  1 002456   013577 701000 1                  TSX1    PRED26
         1 002457   000000 011000                    NOP     0

  14614  1 002460   200012 236100                    LDQ     PRED,,AUTO
         1 002461   001000 316007                    CANQ    512,DL
         1 002462   002500 600000 1                  TZE     s:14776

  14689  1 002463   200013 236100                    LDQ     PINV,,AUTO
         1 002464   010000 316003                    CANQ    4096,DU
         1 002465   002470 600000 1                  TZE     s:14699

  14689  1 002466   013347 701000 1                  TSX1    PRED05
         1 002467   000000 011000                    NOP     0

  14699  1 002470   200012 236100                    LDQ     PRED,,AUTO
         1 002471   010000 316003                    CANQ    4096,DU
         1 002472   002500 600000 1                  TZE     s:14776

  14763  1 002473   200014 450100                    STZ     CONTINUING,,AUTO

      346    14765                            %EVENT( EV=%XSP_PEV_PRSXCNF);

  14766  1 002474   000027 236000 2                  LDQ     23
         1 002475   200017 756100                    STQ     CONTINUING+3,,AUTO
         1 002476   012517 701000 1                  TSX1    EVNT
         1 002477   012433 702000 1                  TSX2    EVNTERR

      347    14768    4                       END;

      348    14769                        %ELSEPREDDO( P="11&17&-19&-26&05");
PL6.E3A0      #001=XSP$MACHINE File=XSP$MACHINE.:XSA1TSI                         WED 10/01/97 12:04 Page:133

  14776  1 002500   200014 234100                    SZN     CONTINUING,,AUTO
         1 002501   002557 605000 1                  TPL     s:15259

  14821  1 002502   200013 236100                    LDQ     PINV,,AUTO
         1 002503   000100 316003                    CANQ    64,DU
         1 002504   002507 600000 1                  TZE     s:14830

  14821  1 002505   013425 701000 1                  TSX1    PRED11
         1 002506   000000 011000                    NOP     0

  14830  1 002507   200012 236100                    LDQ     PRED,,AUTO
         1 002510   000100 316003                    CANQ    64,DU
         1 002511   002557 600000 1                  TZE     s:15259

  14891  1 002512   200013 236100                    LDQ     PINV,,AUTO
         1 002513   000001 316003                    CANQ    1,DU
         1 002514   002517 600000 1                  TZE     s:14900

  14891  1 002515   013475 701000 1                  TSX1    PRED17
         1 002516   000000 011000                    NOP     0

  14900  1 002517   200012 236100                    LDQ     PRED,,AUTO
         1 002520   000001 316003                    CANQ    1,DU
         1 002521   002557 600000 1                  TZE     s:15259

  14979  1 002522   200013 236100                    LDQ     PINV,,AUTO
         1 002523   200000 316007                    CANQ    65536,DL
         1 002524   002527 600000 1                  TZE     s:14988

  14979  1 002525   013513 701000 1                  TSX1    PRED19
         1 002526   000000 011000                    NOP     0

  14988  1 002527   200012 236100                    LDQ     PRED,,AUTO
         1 002530   200000 316007                    CANQ    65536,DL
         1 002531   002557 601000 1                  TNZ     s:15259

PL6.E3A0      #001=XSP$MACHINE File=XSP$MACHINE.:XSA1TSI                         WED 10/01/97 12:04 Page:134
  15067  1 002532   200013 236100                    LDQ     PINV,,AUTO
         1 002533   001000 316007                    CANQ    512,DL
         1 002534   002537 600000 1                  TZE     s:15076

  15067  1 002535   013577 701000 1                  TSX1    PRED26
         1 002536   000000 011000                    NOP     0

  15076  1 002537   200012 236100                    LDQ     PRED,,AUTO
         1 002540   001000 316007                    CANQ    512,DL
         1 002541   002557 601000 1                  TNZ     s:15259

  15151  1 002542   200013 236100                    LDQ     PINV,,AUTO
         1 002543   010000 316003                    CANQ    4096,DU
         1 002544   002547 600000 1                  TZE     s:15161

  15151  1 002545   013347 701000 1                  TSX1    PRED05
         1 002546   000000 011000                    NOP     0

  15161  1 002547   200012 236100                    LDQ     PRED,,AUTO
         1 002550   010000 316003                    CANQ    4096,DU
         1 002551   002557 600000 1                  TZE     s:15259

  15250  1 002552   200014 450100                    STZ     CONTINUING,,AUTO

      349    15252                            %EVENT( EV=%XSP_PEV_PRSXCNF);

  15253  1 002553   000027 236000 2                  LDQ     23
         1 002554   200017 756100                    STQ     CONTINUING+3,,AUTO
         1 002555   012517 701000 1                  TSX1    EVNT
         1 002556   012433 702000 1                  TSX2    EVNTERR

      350    15255    4                       END;

      351    15256                        %ENDPREDDO;

  15259  1 002557   200014 234100                    SZN     CONTINUING,,AUTO
         1 002560   012432 605000 1                  TPL     s:37359
PL6.E3A0      #001=XSP$MACHINE File=XSP$MACHINE.:XSA1TSI                         WED 10/01/97 12:04 Page:135

  15259  1 002561   012644 701000 1                  TSX1    OOPS
         1 002562   000000 011000                    NOP     0

      352    15261    3                   END;

  15261  1 002563   012432 710000 1                  TRA     s:37359

      353    15262    2               ELSE
      354    15263                        %INVALID;

  15264  1 002564   012644 701000 1                  TSX1    OOPS
         1 002565   000000 011000                    NOP     0
         1 002566   012432 710000 1                  TRA     s:37359

      355    15266    2           CASE( %XSP_PEV_TC);                     /* TABLE 25 */

      356    15267    3               DO CASE( PCTX.STATE);

  15267  1 002567   000000 236100                    LDQ     0,,PR0
         1 002570   000033 772000                    QRL     27
         1 002571   000004 136007                    SBLQ    4,DL
         1 002572   000004 116007                    CMPQ    4,DL
         1 002573   002575 602006 1                  TNC     s:15267+6,QL
         1 002574   002677 710000 1                  TRA     s:15601
         1 002575   002601 710000 1                  TRA     s:15277
         1 002576   002625 710000 1                  TRA     s:15387
         1 002577   002625 710000 1                  TRA     s:15387
         1 002600   002651 710000 1                  TRA     s:15496

      357    15268    3                   CASE( %XSP_PST_AC0);

      358    15269                            %IFPREDDO( P="05");

  15277  1 002601   400000 236003                    LDQ     -131072,DU
         1 002602   200014 756100                    STQ     CONTINUING,,AUTO

PL6.E3A0      #001=XSP$MACHINE File=XSP$MACHINE.:XSA1TSI                         WED 10/01/97 12:04 Page:136
  15337  1 002603   200013 236100                    LDQ     PINV,,AUTO
         1 002604   010000 316003                    CANQ    4096,DU
         1 002605   002610 600000 1                  TZE     s:15347

  15337  1 002606   013347 701000 1                  TSX1    PRED05
         1 002607   000000 011000                    NOP     0

  15347  1 002610   200012 236100                    LDQ     PRED,,AUTO
         1 002611   010000 316003                    CANQ    4096,DU
         1 002612   002620 600000 1                  TZE     s:15375

  15366  1 002613   200014 450100                    STZ     CONTINUING,,AUTO

      359    15368                                %EVENT( EV=%XSP_PEV_PCADIND);

  15369  1 002614   000031 236000 2                  LDQ     25
         1 002615   200017 756100                    STQ     CONTINUING+3,,AUTO
         1 002616   012517 701000 1                  TSX1    EVNT
         1 002617   012433 702000 1                  TSX2    EVNTERR

      360    15371    4                           END;

      361    15372                            %ENDPREDDO;

  15375  1 002620   200014 234100                    SZN     CONTINUING,,AUTO
         1 002621   012432 605000 1                  TPL     s:37359

  15375  1 002622   012644 701000 1                  TSX1    OOPS
         1 002623   000000 011000                    NOP     0
         1 002624   012432 710000 1                  TRA     s:37359

      362    15377    3                   CASE( %XSP_PST_AC1,

      363    15378    3                         %XSP_PST_AC2);
      364    15379                            %IFPREDDO( P="06");

  15387  1 002625   400000 236003                    LDQ     -131072,DU
PL6.E3A0      #001=XSP$MACHINE File=XSP$MACHINE.:XSA1TSI                         WED 10/01/97 12:04 Page:137
         1 002626   200014 756100                    STQ     CONTINUING,,AUTO

  15447  1 002627   200013 236100                    LDQ     PINV,,AUTO
         1 002630   004000 316003                    CANQ    2048,DU
         1 002631   002634 600000 1                  TZE     s:15457

  15447  1 002632   013375 701000 1                  TSX1    PRED06
         1 002633   000000 011000                    NOP     0

  15457  1 002634   200012 236100                    LDQ     PRED,,AUTO
         1 002635   004000 316003                    CANQ    2048,DU
         1 002636   002644 600000 1                  TZE     s:15485

  15476  1 002637   200014 450100                    STZ     CONTINUING,,AUTO

      365    15478                                %EVENT( EV=%XSP_PEV_PCADIND);

  15479  1 002640   000031 236000 2                  LDQ     25
         1 002641   200017 756100                    STQ     CONTINUING+3,,AUTO
         1 002642   012517 701000 1                  TSX1    EVNT
         1 002643   012433 702000 1                  TSX2    EVNTERR

      366    15481    4                           END;

      367    15482                            %ENDPREDDO;

  15485  1 002644   200014 234100                    SZN     CONTINUING,,AUTO
         1 002645   012432 605000 1                  TPL     s:37359

  15485  1 002646   012644 701000 1                  TSX1    OOPS
         1 002647   000000 011000                    NOP     0
         1 002650   012432 710000 1                  TRA     s:37359

      368    15487    3                   CASE( %XSP_PST_T0);

      369    15488                            %IFPREDDO( P="05");

PL6.E3A0      #001=XSP$MACHINE File=XSP$MACHINE.:XSA1TSI                         WED 10/01/97 12:04 Page:138
  15496  1 002651   400000 236003                    LDQ     -131072,DU
         1 002652   200014 756100                    STQ     CONTINUING,,AUTO

  15556  1 002653   200013 236100                    LDQ     PINV,,AUTO
         1 002654   010000 316003                    CANQ    4096,DU
         1 002655   002660 600000 1                  TZE     s:15566

  15556  1 002656   013347 701000 1                  TSX1    PRED05
         1 002657   000000 011000                    NOP     0

  15566  1 002660   200012 236100                    LDQ     PRED,,AUTO
         1 002661   010000 316003                    CANQ    4096,DU
         1 002662   002672 600000 1                  TZE     s:15597

  15585  1 002663   200014 450100                    STZ     CONTINUING,,AUTO

      370    15587                                %ACTION09;

  15588  1 002664   013050 701000 1                  TSX1    ACTION09
         1 002665   000000 011000                    NOP     0

      371    15590                                %EVENT( EV=%XSP_PEV_PCADIND);

  15591  1 002666   000031 236000 2                  LDQ     25
         1 002667   200017 756100                    STQ     CONTINUING+3,,AUTO
         1 002670   012517 701000 1                  TSX1    EVNT
         1 002671   012433 702000 1                  TSX2    EVNTERR

      372    15593    4                           END;

      373    15594                            %ENDPREDDO;

  15597  1 002672   200014 234100                    SZN     CONTINUING,,AUTO
         1 002673   012432 605000 1                  TPL     s:37359

  15597  1 002674   012644 701000 1                  TSX1    OOPS
         1 002675   000000 011000                    NOP     0
PL6.E3A0      #001=XSP$MACHINE File=XSP$MACHINE.:XSA1TSI                         WED 10/01/97 12:04 Page:139
         1 002676   012432 710000 1                  TRA     s:37359

      374    15599    3                   CASE( ELSE);

      375    15600                            %INVALID;

  15601  1 002677   012644 701000 1                  TSX1    OOPS
         1 002700   000000 011000                    NOP     0

      376    15603    3                   END;

  15603  1 002701   012432 710000 1                  TRA     s:37359

      377    15604    2           CASE( %XSP_PEV_TCC);                    /* TABLE 25 */

      378    15605    3               DO CASE( PCTX.STATE);

  15605  1 002702   000000 236100                    LDQ     0,,PR0
         1 002703   000033 772000                    QRL     27
         1 002704   000004 136007                    SBLQ    4,DL
         1 002705   000004 116007                    CMPQ    4,DL
         1 002706   002710 602006 1                  TNC     s:15605+6,QL
         1 002707   002764 710000 1                  TRA     s:15828
         1 002710   002714 710000 1                  TRA     s:15616
         1 002711   002740 710000 1                  TRA     s:15726
         1 002712   002740 710000 1                  TRA     s:15726
         1 002713   002714 710000 1                  TRA     s:15616

      379    15606    3                   CASE( %XSP_PST_AC0,

      380    15607    3                         %XSP_PST_T0);
      381    15608                            %IFPREDDO( P="05");

  15616  1 002714   400000 236003                    LDQ     -131072,DU
         1 002715   200014 756100                    STQ     CONTINUING,,AUTO

  15676  1 002716   200013 236100                    LDQ     PINV,,AUTO
PL6.E3A0      #001=XSP$MACHINE File=XSP$MACHINE.:XSA1TSI                         WED 10/01/97 12:04 Page:140
         1 002717   010000 316003                    CANQ    4096,DU
         1 002720   002723 600000 1                  TZE     s:15686

  15676  1 002721   013347 701000 1                  TSX1    PRED05
         1 002722   000000 011000                    NOP     0

  15686  1 002723   200012 236100                    LDQ     PRED,,AUTO
         1 002724   010000 316003                    CANQ    4096,DU
         1 002725   002733 600000 1                  TZE     s:15714

  15705  1 002726   200014 450100                    STZ     CONTINUING,,AUTO

      382    15707                                %EVENT( EV=%XSP_PEV_PCADCNF);

  15708  1 002727   000033 236000 2                  LDQ     27
         1 002730   200017 756100                    STQ     CONTINUING+3,,AUTO
         1 002731   012517 701000 1                  TSX1    EVNT
         1 002732   012433 702000 1                  TSX2    EVNTERR

      383    15710    4                           END;

      384    15711                            %ENDPREDDO;

  15714  1 002733   200014 234100                    SZN     CONTINUING,,AUTO
         1 002734   012432 605000 1                  TPL     s:37359

  15714  1 002735   012644 701000 1                  TSX1    OOPS
         1 002736   000000 011000                    NOP     0
         1 002737   012432 710000 1                  TRA     s:37359

      385    15716    3                   CASE( %XSP_PST_AC1,

      386    15717    3                         %XSP_PST_AC2);
      387    15718                            %IFPREDDO( P="06");

  15726  1 002740   400000 236003                    LDQ     -131072,DU
         1 002741   200014 756100                    STQ     CONTINUING,,AUTO
PL6.E3A0      #001=XSP$MACHINE File=XSP$MACHINE.:XSA1TSI                         WED 10/01/97 12:04 Page:141

  15786  1 002742   200013 236100                    LDQ     PINV,,AUTO
         1 002743   004000 316003                    CANQ    2048,DU
         1 002744   002747 600000 1                  TZE     s:15796

  15786  1 002745   013375 701000 1                  TSX1    PRED06
         1 002746   000000 011000                    NOP     0

  15796  1 002747   200012 236100                    LDQ     PRED,,AUTO
         1 002750   004000 316003                    CANQ    2048,DU
         1 002751   002757 600000 1                  TZE     s:15824

  15815  1 002752   200014 450100                    STZ     CONTINUING,,AUTO

      388    15817                                %EVENT( EV=%XSP_PEV_PCADCNF);

  15818  1 002753   000033 236000 2                  LDQ     27
         1 002754   200017 756100                    STQ     CONTINUING+3,,AUTO
         1 002755   012517 701000 1                  TSX1    EVNT
         1 002756   012433 702000 1                  TSX2    EVNTERR

      389    15820    4                           END;

      390    15821                            %ENDPREDDO;

  15824  1 002757   200014 234100                    SZN     CONTINUING,,AUTO
         1 002760   012432 605000 1                  TPL     s:37359

  15824  1 002761   012644 701000 1                  TSX1    OOPS
         1 002762   000000 011000                    NOP     0
         1 002763   012432 710000 1                  TRA     s:37359

      391    15826    3                   CASE( ELSE);

      392    15827                            %INVALID;

  15828  1 002764   012644 701000 1                  TSX1    OOPS
PL6.E3A0      #001=XSP$MACHINE File=XSP$MACHINE.:XSA1TSI                         WED 10/01/97 12:04 Page:142
         1 002765   000000 011000                    NOP     0

      393    15830    3                   END;

  15830  1 002766   012432 710000 1                  TRA     s:37359

      394    15831    2           CASE( %XSP_PEV_TD);                     /* TABLE 25 */

      395    15832    3               DO CASE( PCTX.STATE);

  15832  1 002767   000000 236100                    LDQ     0,,PR0
         1 002770   000033 772000                    QRL     27
         1 002771   000004 136007                    SBLQ    4,DL
         1 002772   000004 116007                    CMPQ    4,DL
         1 002773   002775 602006 1                  TNC     s:15832+6,QL
         1 002774   003077 710000 1                  TRA     s:16166
         1 002775   003001 710000 1                  TRA     s:15842
         1 002776   003025 710000 1                  TRA     s:15952
         1 002777   003025 710000 1                  TRA     s:15952
         1 003000   003051 710000 1                  TRA     s:16061

      396    15833    3                   CASE( %XSP_PST_AC0);

      397    15834                            %IFPREDDO( P="05");

  15842  1 003001   400000 236003                    LDQ     -131072,DU
         1 003002   200014 756100                    STQ     CONTINUING,,AUTO

  15902  1 003003   200013 236100                    LDQ     PINV,,AUTO
         1 003004   010000 316003                    CANQ    4096,DU
         1 003005   003010 600000 1                  TZE     s:15912

  15902  1 003006   013347 701000 1                  TSX1    PRED05
         1 003007   000000 011000                    NOP     0

  15912  1 003010   200012 236100                    LDQ     PRED,,AUTO
         1 003011   010000 316003                    CANQ    4096,DU
PL6.E3A0      #001=XSP$MACHINE File=XSP$MACHINE.:XSA1TSI                         WED 10/01/97 12:04 Page:143
         1 003012   003020 600000 1                  TZE     s:15940

  15931  1 003013   200014 450100                    STZ     CONTINUING,,AUTO

      398    15933                                %EVENT( EV=%XSP_PEV_PDATIND);

  15934  1 003014   000035 236000 2                  LDQ     29
         1 003015   200017 756100                    STQ     CONTINUING+3,,AUTO
         1 003016   012517 701000 1                  TSX1    EVNT
         1 003017   012433 702000 1                  TSX2    EVNTERR

      399    15936    4                           END;

      400    15937                            %ENDPREDDO;

  15940  1 003020   200014 234100                    SZN     CONTINUING,,AUTO
         1 003021   012432 605000 1                  TPL     s:37359

  15940  1 003022   012644 701000 1                  TSX1    OOPS
         1 003023   000000 011000                    NOP     0
         1 003024   012432 710000 1                  TRA     s:37359

      401    15942    3                   CASE( %XSP_PST_AC1,

      402    15943    3                         %XSP_PST_AC2);
      403    15944                            %IFPREDDO( P="06");

  15952  1 003025   400000 236003                    LDQ     -131072,DU
         1 003026   200014 756100                    STQ     CONTINUING,,AUTO

  16012  1 003027   200013 236100                    LDQ     PINV,,AUTO
         1 003030   004000 316003                    CANQ    2048,DU
         1 003031   003034 600000 1                  TZE     s:16022

  16012  1 003032   013375 701000 1                  TSX1    PRED06
         1 003033   000000 011000                    NOP     0

PL6.E3A0      #001=XSP$MACHINE File=XSP$MACHINE.:XSA1TSI                         WED 10/01/97 12:04 Page:144
  16022  1 003034   200012 236100                    LDQ     PRED,,AUTO
         1 003035   004000 316003                    CANQ    2048,DU
         1 003036   003044 600000 1                  TZE     s:16050

  16041  1 003037   200014 450100                    STZ     CONTINUING,,AUTO

      404    16043                                %EVENT( EV=%XSP_PEV_PDATIND);

  16044  1 003040   000035 236000 2                  LDQ     29
         1 003041   200017 756100                    STQ     CONTINUING+3,,AUTO
         1 003042   012517 701000 1                  TSX1    EVNT
         1 003043   012433 702000 1                  TSX2    EVNTERR

      405    16046    4                           END;

      406    16047                            %ENDPREDDO;

  16050  1 003044   200014 234100                    SZN     CONTINUING,,AUTO
         1 003045   012432 605000 1                  TPL     s:37359

  16050  1 003046   012644 701000 1                  TSX1    OOPS
         1 003047   000000 011000                    NOP     0
         1 003050   012432 710000 1                  TRA     s:37359

      407    16052    3                   CASE( %XSP_PST_T0);

      408    16053                            %IFPREDDO( P="05");

  16061  1 003051   400000 236003                    LDQ     -131072,DU
         1 003052   200014 756100                    STQ     CONTINUING,,AUTO

  16121  1 003053   200013 236100                    LDQ     PINV,,AUTO
         1 003054   010000 316003                    CANQ    4096,DU
         1 003055   003060 600000 1                  TZE     s:16131

  16121  1 003056   013347 701000 1                  TSX1    PRED05
         1 003057   000000 011000                    NOP     0
PL6.E3A0      #001=XSP$MACHINE File=XSP$MACHINE.:XSA1TSI                         WED 10/01/97 12:04 Page:145

  16131  1 003060   200012 236100                    LDQ     PRED,,AUTO
         1 003061   010000 316003                    CANQ    4096,DU
         1 003062   003072 600000 1                  TZE     s:16162

  16150  1 003063   200014 450100                    STZ     CONTINUING,,AUTO

      409    16152                                %ACTION09;

  16153  1 003064   013050 701000 1                  TSX1    ACTION09
         1 003065   000000 011000                    NOP     0

      410    16155                                %EVENT( EV=%XSP_PEV_PDATIND);

  16156  1 003066   000035 236000 2                  LDQ     29
         1 003067   200017 756100                    STQ     CONTINUING+3,,AUTO
         1 003070   012517 701000 1                  TSX1    EVNT
         1 003071   012433 702000 1                  TSX2    EVNTERR

      411    16158    4                           END;

      412    16159                            %ENDPREDDO;

  16162  1 003072   200014 234100                    SZN     CONTINUING,,AUTO
         1 003073   012432 605000 1                  TPL     s:37359

  16162  1 003074   012644 701000 1                  TSX1    OOPS
         1 003075   000000 011000                    NOP     0
         1 003076   012432 710000 1                  TRA     s:37359

      413    16164    3                   CASE( ELSE);

      414    16165                            %INVALID;

  16166  1 003077   012644 701000 1                  TSX1    OOPS
         1 003100   000000 011000                    NOP     0

PL6.E3A0      #001=XSP$MACHINE File=XSP$MACHINE.:XSA1TSI                         WED 10/01/97 12:04 Page:146
      415    16168    3                   END;

  16168  1 003101   012432 710000 1                  TRA     s:37359

      416    16169    2           CASE( %XSP_PEV_TE);                     /* TABLE 25 */

      417    16170    3               DO CASE( PCTX.STATE);

  16170  1 003102   000000 236100                    LDQ     0,,PR0
         1 003103   000033 772000                    QRL     27
         1 003104   000004 136007                    SBLQ    4,DL
         1 003105   000004 116007                    CMPQ    4,DL
         1 003106   003110 602006 1                  TNC     s:16170+6,QL
         1 003107   003166 710000 1                  TRA     s:16396
         1 003110   003114 710000 1                  TRA     s:16182
         1 003111   003114 710000 1                  TRA     s:16182
         1 003112   003114 710000 1                  TRA     s:16182
         1 003113   003140 710000 1                  TRA     s:16291

      418    16171    3                   CASE( %XSP_PST_AC0,

      419    16172    3                         %XSP_PST_AC1,
      420    16173    3                         %XSP_PST_AC2);
      421    16174                            %IFPREDDO( P="13");

  16182  1 003114   400000 236003                    LDQ     -131072,DU
         1 003115   200014 756100                    STQ     CONTINUING,,AUTO

  16242  1 003116   200013 236100                    LDQ     PINV,,AUTO
         1 003117   000020 316003                    CANQ    16,DU
         1 003120   003123 600000 1                  TZE     s:16252

  16242  1 003121   013441 701000 1                  TSX1    PRED13
         1 003122   000000 011000                    NOP     0

  16252  1 003123   200012 236100                    LDQ     PRED,,AUTO
         1 003124   000020 316003                    CANQ    16,DU
PL6.E3A0      #001=XSP$MACHINE File=XSP$MACHINE.:XSA1TSI                         WED 10/01/97 12:04 Page:147
         1 003125   003133 600000 1                  TZE     s:16280

  16271  1 003126   200014 450100                    STZ     CONTINUING,,AUTO

      422    16273                                %EVENT( EV=%XSP_PEV_PEXPIND);

  16274  1 003127   000037 236000 2                  LDQ     31
         1 003130   200017 756100                    STQ     CONTINUING+3,,AUTO
         1 003131   012517 701000 1                  TSX1    EVNT
         1 003132   012433 702000 1                  TSX2    EVNTERR

      423    16276    4                           END;

      424    16277                            %ENDPREDDO;

  16280  1 003133   200014 234100                    SZN     CONTINUING,,AUTO
         1 003134   012432 605000 1                  TPL     s:37359

  16280  1 003135   012644 701000 1                  TSX1    OOPS
         1 003136   000000 011000                    NOP     0
         1 003137   012432 710000 1                  TRA     s:37359

      425    16282    3                   CASE( %XSP_PST_T0);

      426    16283                            %IFPREDDO( P="13");

  16291  1 003140   400000 236003                    LDQ     -131072,DU
         1 003141   200014 756100                    STQ     CONTINUING,,AUTO

  16351  1 003142   200013 236100                    LDQ     PINV,,AUTO
         1 003143   000020 316003                    CANQ    16,DU
         1 003144   003147 600000 1                  TZE     s:16361

  16351  1 003145   013441 701000 1                  TSX1    PRED13
         1 003146   000000 011000                    NOP     0

  16361  1 003147   200012 236100                    LDQ     PRED,,AUTO
PL6.E3A0      #001=XSP$MACHINE File=XSP$MACHINE.:XSA1TSI                         WED 10/01/97 12:04 Page:148
         1 003150   000020 316003                    CANQ    16,DU
         1 003151   003161 600000 1                  TZE     s:16392

  16380  1 003152   200014 450100                    STZ     CONTINUING,,AUTO

      427    16382                                %ACTION09;

  16383  1 003153   013050 701000 1                  TSX1    ACTION09
         1 003154   000000 011000                    NOP     0

      428    16385                                %EVENT( EV=%XSP_PEV_PEXPIND);

  16386  1 003155   000037 236000 2                  LDQ     31
         1 003156   200017 756100                    STQ     CONTINUING+3,,AUTO
         1 003157   012517 701000 1                  TSX1    EVNT
         1 003160   012433 702000 1                  TSX2    EVNTERR

      429    16388    4                           END;

      430    16389                            %ENDPREDDO;

  16392  1 003161   200014 234100                    SZN     CONTINUING,,AUTO
         1 003162   012432 605000 1                  TPL     s:37359

  16392  1 003163   012644 701000 1                  TSX1    OOPS
         1 003164   000000 011000                    NOP     0
         1 003165   012432 710000 1                  TRA     s:37359

      431    16394    3                   CASE( ELSE);

      432    16395                            %INVALID;

  16396  1 003166   012644 701000 1                  TSX1    OOPS
         1 003167   000000 011000                    NOP     0

      433    16398    3                   END;

PL6.E3A0      #001=XSP$MACHINE File=XSP$MACHINE.:XSA1TSI                         WED 10/01/97 12:04 Page:149
  16398  1 003170   012432 710000 1                  TRA     s:37359

      434    16399    2           CASE( %XSP_PEV_TTD);                    /* TABLE 25 */

      435    16400    3               DO CASE( PCTX.STATE);

  16400  1 003171   000000 236100                    LDQ     0,,PR0
         1 003172   000033 772000                    QRL     27
         1 003173   000004 136007                    SBLQ    4,DL
         1 003174   000004 116007                    CMPQ    4,DL
         1 003175   003177 602006 1                  TNC     s:16400+6,QL
         1 003176   012432 710000 1                  TRA     s:37359
         1 003177   003203 710000 1                  TRA     s:16410
         1 003200   003237 710000 1                  TRA     s:16605
         1 003201   003237 710000 1                  TRA     s:16605
         1 003202   003273 710000 1                  TRA     s:16799

      436    16401    3                   CASE( %XSP_PST_AC0);

      437    16402                            %IFPREDDO( P="05&14");

  16410  1 003203   400000 236003                    LDQ     -131072,DU
         1 003204   200014 756100                    STQ     CONTINUING,,AUTO

  16456  1 003205   200013 236100                    LDQ     PINV,,AUTO
         1 003206   010000 316003                    CANQ    4096,DU
         1 003207   003212 600000 1                  TZE     s:16465

  16456  1 003210   013347 701000 1                  TSX1    PRED05
         1 003211   000000 011000                    NOP     0

  16465  1 003212   200012 236100                    LDQ     PRED,,AUTO
         1 003213   010000 316003                    CANQ    4096,DU
         1 003214   003232 600000 1                  TZE     s:16593

  16540  1 003215   200013 236100                    LDQ     PINV,,AUTO
         1 003216   000010 316003                    CANQ    8,DU
PL6.E3A0      #001=XSP$MACHINE File=XSP$MACHINE.:XSA1TSI                         WED 10/01/97 12:04 Page:150
         1 003217   003222 600000 1                  TZE     s:16550

  16540  1 003220   013445 701000 1                  TSX1    PRED14
         1 003221   000000 011000                    NOP     0

  16550  1 003222   200012 236100                    LDQ     PRED,,AUTO
         1 003223   000010 316003                    CANQ    8,DU
         1 003224   003232 600000 1                  TZE     s:16593

  16584  1 003225   200014 450100                    STZ     CONTINUING,,AUTO

      438    16586                                %EVENT( EV=%XSP_PEV_PTYDIND);

  16587  1 003226   000041 236000 2                  LDQ     33
         1 003227   200017 756100                    STQ     CONTINUING+3,,AUTO
         1 003230   012517 701000 1                  TSX1    EVNT
         1 003231   012433 702000 1                  TSX2    EVNTERR

      439    16589    4                           END;

      440    16590                            %ENDPREDDO;

  16593  1 003232   200014 234100                    SZN     CONTINUING,,AUTO
         1 003233   012432 605000 1                  TPL     s:37359

  16593  1 003234   012644 701000 1                  TSX1    OOPS
         1 003235   000000 011000                    NOP     0
         1 003236   012432 710000 1                  TRA     s:37359

      441    16595    3                   CASE( %XSP_PST_AC1,

      442    16596    3                         %XSP_PST_AC2);
      443    16597                            %IFPREDDO( P="06&14");

  16605  1 003237   400000 236003                    LDQ     -131072,DU
         1 003240   200014 756100                    STQ     CONTINUING,,AUTO

PL6.E3A0      #001=XSP$MACHINE File=XSP$MACHINE.:XSA1TSI                         WED 10/01/97 12:04 Page:151
  16651  1 003241   200013 236100                    LDQ     PINV,,AUTO
         1 003242   004000 316003                    CANQ    2048,DU
         1 003243   003246 600000 1                  TZE     s:16660

  16651  1 003244   013375 701000 1                  TSX1    PRED06
         1 003245   000000 011000                    NOP     0

  16660  1 003246   200012 236100                    LDQ     PRED,,AUTO
         1 003247   004000 316003                    CANQ    2048,DU
         1 003250   003266 600000 1                  TZE     s:16788

  16735  1 003251   200013 236100                    LDQ     PINV,,AUTO
         1 003252   000010 316003                    CANQ    8,DU
         1 003253   003256 600000 1                  TZE     s:16745

  16735  1 003254   013445 701000 1                  TSX1    PRED14
         1 003255   000000 011000                    NOP     0

  16745  1 003256   200012 236100                    LDQ     PRED,,AUTO
         1 003257   000010 316003                    CANQ    8,DU
         1 003260   003266 600000 1                  TZE     s:16788

  16779  1 003261   200014 450100                    STZ     CONTINUING,,AUTO

      444    16781                                %EVENT( EV=%XSP_PEV_PTYDIND);

  16782  1 003262   000041 236000 2                  LDQ     33
         1 003263   200017 756100                    STQ     CONTINUING+3,,AUTO
         1 003264   012517 701000 1                  TSX1    EVNT
         1 003265   012433 702000 1                  TSX2    EVNTERR

      445    16784    4                           END;

      446    16785                            %ENDPREDDO;

  16788  1 003266   200014 234100                    SZN     CONTINUING,,AUTO
         1 003267   012432 605000 1                  TPL     s:37359
PL6.E3A0      #001=XSP$MACHINE File=XSP$MACHINE.:XSA1TSI                         WED 10/01/97 12:04 Page:152

  16788  1 003270   012644 701000 1                  TSX1    OOPS
         1 003271   000000 011000                    NOP     0
         1 003272   012432 710000 1                  TRA     s:37359

      447    16790    3                   CASE( %XSP_PST_T0);

      448    16791                            %IFPREDDO( P="05&14");

  16799  1 003273   400000 236003                    LDQ     -131072,DU
         1 003274   200014 756100                    STQ     CONTINUING,,AUTO

  16845  1 003275   200013 236100                    LDQ     PINV,,AUTO
         1 003276   010000 316003                    CANQ    4096,DU
         1 003277   003302 600000 1                  TZE     s:16854

  16845  1 003300   013347 701000 1                  TSX1    PRED05
         1 003301   000000 011000                    NOP     0

  16854  1 003302   200012 236100                    LDQ     PRED,,AUTO
         1 003303   010000 316003                    CANQ    4096,DU
         1 003304   003324 600000 1                  TZE     s:16985

  16929  1 003305   200013 236100                    LDQ     PINV,,AUTO
         1 003306   000010 316003                    CANQ    8,DU
         1 003307   003312 600000 1                  TZE     s:16939

  16929  1 003310   013445 701000 1                  TSX1    PRED14
         1 003311   000000 011000                    NOP     0

  16939  1 003312   200012 236100                    LDQ     PRED,,AUTO
         1 003313   000010 316003                    CANQ    8,DU
         1 003314   003324 600000 1                  TZE     s:16985

  16973  1 003315   200014 450100                    STZ     CONTINUING,,AUTO

      449    16975                                %ACTION09;
PL6.E3A0      #001=XSP$MACHINE File=XSP$MACHINE.:XSA1TSI                         WED 10/01/97 12:04 Page:153

  16976  1 003316   013050 701000 1                  TSX1    ACTION09
         1 003317   000000 011000                    NOP     0

      450    16978                                %EVENT( EV=%XSP_PEV_PTYDIND);

  16979  1 003320   000041 236000 2                  LDQ     33
         1 003321   200017 756100                    STQ     CONTINUING+3,,AUTO
         1 003322   012517 701000 1                  TSX1    EVNT
         1 003323   012433 702000 1                  TSX2    EVNTERR

      451    16981    4                           END;

      452    16982                            %ENDPREDDO;

  16985  1 003324   200014 234100                    SZN     CONTINUING,,AUTO
         1 003325   012432 605000 1                  TPL     s:37359

  16985  1 003326   012644 701000 1                  TSX1    OOPS
         1 003327   000000 011000                    NOP     0

      453    16987    3                   END;

  16987  1 003330   012432 710000 1                  TRA     s:37359

      454    16988    2           CASE( %XSP_PEV_SACDIND);                /* TABLE 28 */

      455    16989    3               DO CASE( PCTX.STATE);

  16989  1 003331   000000 236100                    LDQ     0,,PR0
         1 003332   000033 772000                    QRL     27
         1 003333   000004 136007                    SBLQ    4,DL
         1 003334   000004 116007                    CMPQ    4,DL
         1 003335   003337 602006 1                  TNC     s:16989+6,QL
         1 003336   003355 710000 1                  TRA     s:17003
         1 003337   003343 710000 1                  TRA     s:16995
         1 003340   003343 710000 1                  TRA     s:16995
PL6.E3A0      #001=XSP$MACHINE File=XSP$MACHINE.:XSA1TSI                         WED 10/01/97 12:04 Page:154
         1 003341   003343 710000 1                  TRA     s:16995
         1 003342   003343 710000 1                  TRA     s:16995

      456    16990    3                   CASE( %XSP_PST_AC0,

      457    16991    3                         %XSP_PST_AC1,
      458    16992    3                         %XSP_PST_AC2,
      459    16993    3                         %XSP_PST_T0);
      460    16994                            %ACTION09;

  16995  1 003343   013050 701000 1                  TSX1    ACTION09
         1 003344   000000 011000                    NOP     0

      461    16997                            %EVENT( EV=%XSP_PEV_PACDIND);

  16998  1 003345   000043 236000 2                  LDQ     35
         1 003346   200017 756100                    STQ     CONTINUING+3,,AUTO
         1 003347   012517 701000 1                  TSX1    EVNT
         1 003350   012433 702000 1                  TSX2    EVNTERR

      462    17000    3                       PCTX.STATE = %XSP_PST_T0;

  17000  1 003351   200010 470500                    LDP0    PCTX$,,AUTO
         1 003352   007000 236003                    LDQ     3584,DU
         1 003353   000000 552140                    STBQ    0,'40'O,PR0
         1 003354   012432 710000 1                  TRA     s:37359

      463    17001    3                   CASE( ELSE);

      464    17002                            %INVALID;

  17003  1 003355   012644 701000 1                  TSX1    OOPS
         1 003356   000000 011000                    NOP     0

      465    17005    3                   END;

  17005  1 003357   012432 710000 1                  TRA     s:37359
PL6.E3A0      #001=XSP$MACHINE File=XSP$MACHINE.:XSA1TSI                         WED 10/01/97 12:04 Page:155

      466    17006    2           CASE( %XSP_PEV_SACDCNF);                /* TABLE 28 */

      467    17007    3               IF PCTX.STATE = %XSP_PST_T0 THEN DO;

  17007  1 003360   000000 236100                    LDQ     0,,PR0
         1 003361   777000 376003                    ANQ     -512,DU
         1 003362   007000 116003                    CMPQ    3584,DU
         1 003363   003375 601000 1                  TNZ     s:17020

      468    17008                        %ACTION14;

  17009  1 003364   013103 701000 1                  TSX1    ACTION14
         1 003365   000000 011000                    NOP     0

      469    17011                        %ACTION19;

  17012  1 003366   013134 701000 1                  TSX1    ACTION19
         1 003367   000000 011000                    NOP     0

      470    17014                        %EVENT( EV=%XSP_PEV_PACDCNF);

  17015  1 003370   000045 236000 2                  LDQ     37
         1 003371   200017 756100                    STQ     CONTINUING+3,,AUTO
         1 003372   012517 701000 1                  TSX1    EVNT
         1 003373   012433 702000 1                  TSX2    EVNTERR

      471    17017    3                   END;

  17017  1 003374   012432 710000 1                  TRA     s:37359

      472    17018    2               ELSE
      473    17019                        %INVALID;

  17020  1 003375   012644 701000 1                  TSX1    OOPS
         1 003376   000000 011000                    NOP     0
         1 003377   012432 710000 1                  TRA     s:37359
PL6.E3A0      #001=XSP$MACHINE File=XSP$MACHINE.:XSA1TSI                         WED 10/01/97 12:04 Page:156

      474    17022    2           CASE( %XSP_PEV_SACEIND);                /* TABLE 28 */

      475    17023    3               DO CASE( PCTX.STATE);

  17023  1 003400   000000 236100                    LDQ     0,,PR0
         1 003401   000033 772000                    QRL     27
         1 003402   000004 136007                    SBLQ    4,DL
         1 003403   000004 116007                    CMPQ    4,DL
         1 003404   003406 602006 1                  TNC     s:17023+6,QL
         1 003405   003472 710000 1                  TRA     s:17354
         1 003406   003412 710000 1                  TRA     s:17034
         1 003407   003436 710000 1                  TRA     s:17144
         1 003410   003436 710000 1                  TRA     s:17144
         1 003411   003412 710000 1                  TRA     s:17034

      476    17024    3                   CASE( %XSP_PST_AC0,

      477    17025    3                         %XSP_PST_T0);
      478    17026                            %IFPREDDO( P="05");

  17034  1 003412   400000 236003                    LDQ     -131072,DU
         1 003413   200014 756100                    STQ     CONTINUING,,AUTO

  17094  1 003414   200013 236100                    LDQ     PINV,,AUTO
         1 003415   010000 316003                    CANQ    4096,DU
         1 003416   003421 600000 1                  TZE     s:17104

  17094  1 003417   013347 701000 1                  TSX1    PRED05
         1 003420   000000 011000                    NOP     0

  17104  1 003421   200012 236100                    LDQ     PRED,,AUTO
         1 003422   010000 316003                    CANQ    4096,DU
         1 003423   003431 600000 1                  TZE     s:17132

  17123  1 003424   200014 450100                    STZ     CONTINUING,,AUTO

PL6.E3A0      #001=XSP$MACHINE File=XSP$MACHINE.:XSA1TSI                         WED 10/01/97 12:04 Page:157
      479    17125                                %EVENT( EV=%XSP_PEV_PACEIND);

  17126  1 003425   000047 236000 2                  LDQ     39
         1 003426   200017 756100                    STQ     CONTINUING+3,,AUTO
         1 003427   012517 701000 1                  TSX1    EVNT
         1 003430   012433 702000 1                  TSX2    EVNTERR

      480    17128    4                           END;

      481    17129                            %ENDPREDDO;

  17132  1 003431   200014 234100                    SZN     CONTINUING,,AUTO
         1 003432   012432 605000 1                  TPL     s:37359

  17132  1 003433   012644 701000 1                  TSX1    OOPS
         1 003434   000000 011000                    NOP     0
         1 003435   012432 710000 1                  TRA     s:37359

      482    17134    3                   CASE( %XSP_PST_AC1,

      483    17135    3                         %XSP_PST_AC2);
      484    17136                            %IFPREDDO( P="-17&06");

  17144  1 003436   400000 236003                    LDQ     -131072,DU
         1 003437   200014 756100                    STQ     CONTINUING,,AUTO

  17208  1 003440   200013 236100                    LDQ     PINV,,AUTO
         1 003441   000001 316003                    CANQ    1,DU
         1 003442   003445 600000 1                  TZE     s:17217

  17208  1 003443   013475 701000 1                  TSX1    PRED17
         1 003444   000000 011000                    NOP     0

  17217  1 003445   200012 236100                    LDQ     PRED,,AUTO
         1 003446   000001 316003                    CANQ    1,DU
         1 003447   003465 601000 1                  TNZ     s:17350

PL6.E3A0      #001=XSP$MACHINE File=XSP$MACHINE.:XSA1TSI                         WED 10/01/97 12:04 Page:158
  17292  1 003450   200013 236100                    LDQ     PINV,,AUTO
         1 003451   004000 316003                    CANQ    2048,DU
         1 003452   003455 600000 1                  TZE     s:17302

  17292  1 003453   013375 701000 1                  TSX1    PRED06
         1 003454   000000 011000                    NOP     0

  17302  1 003455   200012 236100                    LDQ     PRED,,AUTO
         1 003456   004000 316003                    CANQ    2048,DU
         1 003457   003465 600000 1                  TZE     s:17350

  17341  1 003460   200014 450100                    STZ     CONTINUING,,AUTO

      485    17343                                %EVENT( EV=%XSP_PEV_PACEIND);

  17344  1 003461   000047 236000 2                  LDQ     39
         1 003462   200017 756100                    STQ     CONTINUING+3,,AUTO
         1 003463   012517 701000 1                  TSX1    EVNT
         1 003464   012433 702000 1                  TSX2    EVNTERR

      486    17346    4                           END;

      487    17347                            %ENDPREDDO;

  17350  1 003465   200014 234100                    SZN     CONTINUING,,AUTO
         1 003466   012432 605000 1                  TPL     s:37359

  17350  1 003467   012644 701000 1                  TSX1    OOPS
         1 003470   000000 011000                    NOP     0
         1 003471   012432 710000 1                  TRA     s:37359

      488    17352    3                   CASE( ELSE);

      489    17353                            %INVALID;

  17354  1 003472   012644 701000 1                  TSX1    OOPS
         1 003473   000000 011000                    NOP     0
PL6.E3A0      #001=XSP$MACHINE File=XSP$MACHINE.:XSA1TSI                         WED 10/01/97 12:04 Page:159

      490    17356    3                   END;

  17356  1 003474   012432 710000 1                  TRA     s:37359

      491    17357    2           CASE( %XSP_PEV_SACECNF);                /* TABLE 28 */

      492    17358    3               DO CASE( PCTX.STATE);

  17358  1 003475   000000 236100                    LDQ     0,,PR0
         1 003476   000033 772000                    QRL     27
         1 003477   000004 136007                    SBLQ    4,DL
         1 003500   000004 116007                    CMPQ    4,DL
         1 003501   003503 602006 1                  TNC     s:17358+6,QL
         1 003502   003657 710000 1                  TRA     s:18025
         1 003503   003507 710000 1                  TRA     s:17368
         1 003504   003543 710000 1                  TRA     s:17585
         1 003505   003573 710000 1                  TRA     s:17700
         1 003506   003627 710000 1                  TRA     s:17917

      493    17359    3                   CASE( %XSP_PST_AC0);

      494    17360                            %IFPREDDO( P="-17&05");

  17368  1 003507   400000 236003                    LDQ     -131072,DU
         1 003510   200014 756100                    STQ     CONTINUING,,AUTO

  17432  1 003511   200013 236100                    LDQ     PINV,,AUTO
         1 003512   000001 316003                    CANQ    1,DU
         1 003513   003516 600000 1                  TZE     s:17441

  17432  1 003514   013475 701000 1                  TSX1    PRED17
         1 003515   000000 011000                    NOP     0

  17441  1 003516   200012 236100                    LDQ     PRED,,AUTO
         1 003517   000001 316003                    CANQ    1,DU
         1 003520   003536 601000 1                  TNZ     s:17574
PL6.E3A0      #001=XSP$MACHINE File=XSP$MACHINE.:XSA1TSI                         WED 10/01/97 12:04 Page:160

  17516  1 003521   200013 236100                    LDQ     PINV,,AUTO
         1 003522   010000 316003                    CANQ    4096,DU
         1 003523   003526 600000 1                  TZE     s:17526

  17516  1 003524   013347 701000 1                  TSX1    PRED05
         1 003525   000000 011000                    NOP     0

  17526  1 003526   200012 236100                    LDQ     PRED,,AUTO
         1 003527   010000 316003                    CANQ    4096,DU
         1 003530   003536 600000 1                  TZE     s:17574

  17565  1 003531   200014 450100                    STZ     CONTINUING,,AUTO

      495    17567                                %EVENT( EV=%XSP_PEV_PACECNF);

  17568  1 003532   000051 236000 2                  LDQ     41
         1 003533   200017 756100                    STQ     CONTINUING+3,,AUTO
         1 003534   012517 701000 1                  TSX1    EVNT
         1 003535   012433 702000 1                  TSX2    EVNTERR

      496    17570    4                           END;

      497    17571                            %ENDPREDDO;

  17574  1 003536   200014 234100                    SZN     CONTINUING,,AUTO
         1 003537   012432 605000 1                  TPL     s:37359

  17574  1 003540   012644 701000 1                  TSX1    OOPS
         1 003541   000000 011000                    NOP     0
         1 003542   012432 710000 1                  TRA     s:37359

      498    17576    3                   CASE( %XSP_PST_AC1);

      499    17577                            %IFPREDDO( P="06");

  17585  1 003543   400000 236003                    LDQ     -131072,DU
PL6.E3A0      #001=XSP$MACHINE File=XSP$MACHINE.:XSA1TSI                         WED 10/01/97 12:04 Page:161
         1 003544   200014 756100                    STQ     CONTINUING,,AUTO

  17645  1 003545   200013 236100                    LDQ     PINV,,AUTO
         1 003546   004000 316003                    CANQ    2048,DU
         1 003547   003552 600000 1                  TZE     s:17655

  17645  1 003550   013375 701000 1                  TSX1    PRED06
         1 003551   000000 011000                    NOP     0

  17655  1 003552   200012 236100                    LDQ     PRED,,AUTO
         1 003553   004000 316003                    CANQ    2048,DU
         1 003554   003566 600000 1                  TZE     s:17689

  17674  1 003555   200014 450100                    STZ     CONTINUING,,AUTO

      500    17676                                %ACTION14;

  17677  1 003556   013103 701000 1                  TSX1    ACTION14
         1 003557   000000 011000                    NOP     0

      501    17679                                %ACTION19;

  17680  1 003560   013134 701000 1                  TSX1    ACTION19
         1 003561   000000 011000                    NOP     0

      502    17682                                %EVENT( EV=%XSP_PEV_PACECNF);

  17683  1 003562   000051 236000 2                  LDQ     41
         1 003563   200017 756100                    STQ     CONTINUING+3,,AUTO
         1 003564   012517 701000 1                  TSX1    EVNT
         1 003565   012433 702000 1                  TSX2    EVNTERR

      503    17685    4                           END;

      504    17686                            %ENDPREDDO;

  17689  1 003566   200014 234100                    SZN     CONTINUING,,AUTO
PL6.E3A0      #001=XSP$MACHINE File=XSP$MACHINE.:XSA1TSI                         WED 10/01/97 12:04 Page:162
         1 003567   012432 605000 1                  TPL     s:37359

  17689  1 003570   012644 701000 1                  TSX1    OOPS
         1 003571   000000 011000                    NOP     0
         1 003572   012432 710000 1                  TRA     s:37359

      505    17691    3                   CASE( %XSP_PST_AC2);

      506    17692                            %IFPREDDO( P="-17&06");

  17700  1 003573   400000 236003                    LDQ     -131072,DU
         1 003574   200014 756100                    STQ     CONTINUING,,AUTO

  17764  1 003575   200013 236100                    LDQ     PINV,,AUTO
         1 003576   000001 316003                    CANQ    1,DU
         1 003577   003602 600000 1                  TZE     s:17773

  17764  1 003600   013475 701000 1                  TSX1    PRED17
         1 003601   000000 011000                    NOP     0

  17773  1 003602   200012 236100                    LDQ     PRED,,AUTO
         1 003603   000001 316003                    CANQ    1,DU
         1 003604   003622 601000 1                  TNZ     s:17906

  17848  1 003605   200013 236100                    LDQ     PINV,,AUTO
         1 003606   004000 316003                    CANQ    2048,DU
         1 003607   003612 600000 1                  TZE     s:17858

  17848  1 003610   013375 701000 1                  TSX1    PRED06
         1 003611   000000 011000                    NOP     0

  17858  1 003612   200012 236100                    LDQ     PRED,,AUTO
         1 003613   004000 316003                    CANQ    2048,DU
         1 003614   003622 600000 1                  TZE     s:17906

  17897  1 003615   200014 450100                    STZ     CONTINUING,,AUTO

PL6.E3A0      #001=XSP$MACHINE File=XSP$MACHINE.:XSA1TSI                         WED 10/01/97 12:04 Page:163
      507    17899                                %EVENT( EV=%XSP_PEV_PACECNF);

  17900  1 003616   000051 236000 2                  LDQ     41
         1 003617   200017 756100                    STQ     CONTINUING+3,,AUTO
         1 003620   012517 701000 1                  TSX1    EVNT
         1 003621   012433 702000 1                  TSX2    EVNTERR

      508    17902    4                           END;

      509    17903                            %ENDPREDDO;

  17906  1 003622   200014 234100                    SZN     CONTINUING,,AUTO
         1 003623   012432 605000 1                  TPL     s:37359

  17906  1 003624   012644 701000 1                  TSX1    OOPS
         1 003625   000000 011000                    NOP     0
         1 003626   012432 710000 1                  TRA     s:37359

      510    17908    3                   CASE( %XSP_PST_T0);

      511    17909                            %IFPREDDO( P="05");

  17917  1 003627   400000 236003                    LDQ     -131072,DU
         1 003630   200014 756100                    STQ     CONTINUING,,AUTO

  17977  1 003631   200013 236100                    LDQ     PINV,,AUTO
         1 003632   010000 316003                    CANQ    4096,DU
         1 003633   003636 600000 1                  TZE     s:17987

  17977  1 003634   013347 701000 1                  TSX1    PRED05
         1 003635   000000 011000                    NOP     0

  17987  1 003636   200012 236100                    LDQ     PRED,,AUTO
         1 003637   010000 316003                    CANQ    4096,DU
         1 003640   003652 600000 1                  TZE     s:18021

  18006  1 003641   200014 450100                    STZ     CONTINUING,,AUTO
PL6.E3A0      #001=XSP$MACHINE File=XSP$MACHINE.:XSA1TSI                         WED 10/01/97 12:04 Page:164

      512    18008                                %ACTION14;

  18009  1 003642   013103 701000 1                  TSX1    ACTION14
         1 003643   000000 011000                    NOP     0

      513    18011                                %ACTION19;

  18012  1 003644   013134 701000 1                  TSX1    ACTION19
         1 003645   000000 011000                    NOP     0

      514    18014                                %EVENT( EV=%XSP_PEV_PACECNF);

  18015  1 003646   000051 236000 2                  LDQ     41
         1 003647   200017 756100                    STQ     CONTINUING+3,,AUTO
         1 003650   012517 701000 1                  TSX1    EVNT
         1 003651   012433 702000 1                  TSX2    EVNTERR

      515    18017    4                           END;

      516    18018                            %ENDPREDDO;

  18021  1 003652   200014 234100                    SZN     CONTINUING,,AUTO
         1 003653   012432 605000 1                  TPL     s:37359

  18021  1 003654   012644 701000 1                  TSX1    OOPS
         1 003655   000000 011000                    NOP     0
         1 003656   012432 710000 1                  TRA     s:37359

      517    18023    3                   CASE( ELSE);

      518    18024                            %INVALID;

  18025  1 003657   012644 701000 1                  TSX1    OOPS
         1 003660   000000 011000                    NOP     0

      519    18027    3                   END;
PL6.E3A0      #001=XSP$MACHINE File=XSP$MACHINE.:XSA1TSI                         WED 10/01/97 12:04 Page:165

  18027  1 003661   012432 710000 1                  TRA     s:37359

      520    18028    2           CASE( %XSP_PEV_SACIIND);                /* TABLE 28 */

      521    18029    3               DO CASE( PCTX.STATE);

  18029  1 003662   000000 236100                    LDQ     0,,PR0
         1 003663   000033 772000                    QRL     27
         1 003664   000004 136007                    SBLQ    4,DL
         1 003665   000004 116007                    CMPQ    4,DL
         1 003666   003670 602006 1                  TNC     s:18029+6,QL
         1 003667   003706 710000 1                  TRA     s:18043
         1 003670   003674 710000 1                  TRA     s:18035
         1 003671   003674 710000 1                  TRA     s:18035
         1 003672   003674 710000 1                  TRA     s:18035
         1 003673   003674 710000 1                  TRA     s:18035

      522    18030    3                   CASE( %XSP_PST_AC0,

      523    18031    3                         %XSP_PST_AC1,
      524    18032    3                         %XSP_PST_AC2,
      525    18033    3                         %XSP_PST_T0);
      526    18034                            %ACTION20;

  18035  1 003674   013136 701000 1                  TSX1    ACTION20
         1 003675   000000 011000                    NOP     0

      527    18037                            %EVENT( EV=%XSP_PEV_PACIIND);

  18038  1 003676   000053 236000 2                  LDQ     43
         1 003677   200017 756100                    STQ     CONTINUING+3,,AUTO
         1 003700   012517 701000 1                  TSX1    EVNT
         1 003701   012433 702000 1                  TSX2    EVNTERR

      528    18040    3                       PCTX.STATE = %XSP_PST_T0;

PL6.E3A0      #001=XSP$MACHINE File=XSP$MACHINE.:XSA1TSI                         WED 10/01/97 12:04 Page:166
  18040  1 003702   200010 470500                    LDP0    PCTX$,,AUTO
         1 003703   007000 236003                    LDQ     3584,DU
         1 003704   000000 552140                    STBQ    0,'40'O,PR0
         1 003705   012432 710000 1                  TRA     s:37359

      529    18041    3                   CASE( ELSE);

      530    18042                            %INVALID;

  18043  1 003706   012644 701000 1                  TSX1    OOPS
         1 003707   000000 011000                    NOP     0

      531    18045    3                   END;

  18045  1 003710   012432 710000 1                  TRA     s:37359

      532    18046    2           CASE( %XSP_PEV_SACICNF);                /* TABLE 28 */

      533    18047    3               IF PCTX.STATE = %XSP_PST_T0 THEN DO;

  18047  1 003711   000000 236100                    LDQ     0,,PR0
         1 003712   777000 376003                    ANQ     -512,DU
         1 003713   007000 116003                    CMPQ    3584,DU
         1 003714   003724 601000 1                  TNZ     s:18057

      534    18048                        %ACTION14;

  18049  1 003715   013103 701000 1                  TSX1    ACTION14
         1 003716   000000 011000                    NOP     0

      535    18051                        %EVENT( EV=%XSP_PEV_PACICNF);

  18052  1 003717   000055 236000 2                  LDQ     45
         1 003720   200017 756100                    STQ     CONTINUING+3,,AUTO
         1 003721   012517 701000 1                  TSX1    EVNT
         1 003722   012433 702000 1                  TSX2    EVNTERR

PL6.E3A0      #001=XSP$MACHINE File=XSP$MACHINE.:XSA1TSI                         WED 10/01/97 12:04 Page:167
      536    18054    3                   END;

  18054  1 003723   012432 710000 1                  TRA     s:37359

      537    18055    2               ELSE
      538    18056                        %INVALID;

  18057  1 003724   012644 701000 1                  TSX1    OOPS
         1 003725   000000 011000                    NOP     0
         1 003726   012432 710000 1                  TRA     s:37359

      539    18059    2           CASE( %XSP_PEV_SACRIND);                /* TABLE 28 */

      540    18060    3               DO CASE( PCTX.STATE);

  18060  1 003727   000000 236100                    LDQ     0,,PR0
         1 003730   000033 772000                    QRL     27
         1 003731   000004 136007                    SBLQ    4,DL
         1 003732   000004 116007                    CMPQ    4,DL
         1 003733   003735 602006 1                  TNC     s:18060+6,QL
         1 003734   004126 710000 1                  TRA     s:19130
         1 003735   003741 710000 1                  TRA     s:18071
         1 003736   004072 710000 1                  TRA     s:18920
         1 003737   004072 710000 1                  TRA     s:18920
         1 003740   003741 710000 1                  TRA     s:18071

      541    18061    3                   CASE( %XSP_PST_AC0,

      542    18062    3                         %XSP_PST_T0);
      543    18063                            %IFPREDDO( P="(-17|27|-28)&05");

  18071  1 003741   400000 236003                    LDQ     -131072,DU
         1 003742   200014 756100                    STQ     CONTINUING,,AUTO

  18156  1 003743   200013 236100                    LDQ     PINV,,AUTO
         1 003744   000001 316003                    CANQ    1,DU
         1 003745   003750 600000 1                  TZE     s:18218
PL6.E3A0      #001=XSP$MACHINE File=XSP$MACHINE.:XSA1TSI                         WED 10/01/97 12:04 Page:168

  18156  1 003746   013475 701000 1                  TSX1    PRED17
         1 003747   000000 011000                    NOP     0

  18218  1 003750   200013 236100                    LDQ     PINV,,AUTO
         1 003751   000400 316007                    CANQ    256,DL
         1 003752   003755 600000 1                  TZE     s:18301

  18218  1 003753   013603 701000 1                  TSX1    PRED27
         1 003754   000000 011000                    NOP     0

  18301  1 003755   200013 236100                    LDQ     PINV,,AUTO
         1 003756   000200 316007                    CANQ    128,DL
         1 003757   003762 600000 1                  TZE     s:18311

  18301  1 003760   013607 701000 1                  TSX1    PRED28
         1 003761   000000 011000                    NOP     0

  18311  1 003762   200012 236100                    LDQ     PRED,,AUTO
         1 003763   000001 316003                    CANQ    1,DU
         1 003764   003771 600000 1                  TZE     s:18414
         1 003765   000400 316007                    CANQ    256,DL
         1 003766   003771 601000 1                  TNZ     s:18414
         1 003767   000200 316007                    CANQ    128,DL
         1 003770   004010 601000 1                  TNZ     s:18524

  18414  1 003771   200013 236100                    LDQ     PINV,,AUTO
         1 003772   010000 316003                    CANQ    4096,DU
         1 003773   003776 600000 1                  TZE     s:18424

  18414  1 003774   013347 701000 1                  TSX1    PRED05
         1 003775   000000 011000                    NOP     0

  18424  1 003776   200012 236100                    LDQ     PRED,,AUTO
         1 003777   010000 316003                    CANQ    4096,DU
         1 004000   004010 600000 1                  TZE     s:18524

PL6.E3A0      #001=XSP$MACHINE File=XSP$MACHINE.:XSA1TSI                         WED 10/01/97 12:04 Page:169
  18508  1 004001   200014 450100                    STZ     CONTINUING,,AUTO

      544    18510                                %ACTION09;

  18511  1 004002   013050 701000 1                  TSX1    ACTION09
         1 004003   000000 011000                    NOP     0

      545    18513                                %EVENT( EV=%XSP_PEV_PACRIND);

  18514  1 004004   000057 236000 2                  LDQ     47
         1 004005   200017 756100                    STQ     CONTINUING+3,,AUTO
         1 004006   012517 701000 1                  TSX1    EVNT
         1 004007   012433 702000 1                  TSX2    EVNTERR

      546    18516    4                           END;

      547    18517                            %ELSEPREDDO( P="-27&28&17&16");

  18524  1 004010   200014 234100                    SZN     CONTINUING,,AUTO
         1 004011   004065 605000 1                  TPL     s:18908

  18587  1 004012   200013 236100                    LDQ     PINV,,AUTO
         1 004013   000400 316007                    CANQ    256,DL
         1 004014   004017 600000 1                  TZE     s:18596

  18587  1 004015   013603 701000 1                  TSX1    PRED27
         1 004016   000000 011000                    NOP     0

  18596  1 004017   200012 236100                    LDQ     PRED,,AUTO
         1 004020   000400 316007                    CANQ    256,DL
         1 004021   004065 601000 1                  TNZ     s:18908

  18657  1 004022   200013 236100                    LDQ     PINV,,AUTO
         1 004023   000200 316007                    CANQ    128,DL
         1 004024   004027 600000 1                  TZE     s:18666

  18657  1 004025   013607 701000 1                  TSX1    PRED28
PL6.E3A0      #001=XSP$MACHINE File=XSP$MACHINE.:XSA1TSI                         WED 10/01/97 12:04 Page:170
         1 004026   000000 011000                    NOP     0

  18666  1 004027   200012 236100                    LDQ     PRED,,AUTO
         1 004030   000200 316007                    CANQ    128,DL
         1 004031   004065 600000 1                  TZE     s:18908

  18727  1 004032   200013 236100                    LDQ     PINV,,AUTO
         1 004033   000001 316003                    CANQ    1,DU
         1 004034   004037 600000 1                  TZE     s:18736

  18727  1 004035   013475 701000 1                  TSX1    PRED17
         1 004036   000000 011000                    NOP     0

  18736  1 004037   200012 236100                    LDQ     PRED,,AUTO
         1 004040   000001 316003                    CANQ    1,DU
         1 004041   004065 600000 1                  TZE     s:18908

  18811  1 004042   200013 236100                    LDQ     PINV,,AUTO
         1 004043   000002 316003                    CANQ    2,DU
         1 004044   004047 600000 1                  TZE     s:18821

  18811  1 004045   013471 701000 1                  TSX1    PRED16
         1 004046   000000 011000                    NOP     0

  18821  1 004047   200012 236100                    LDQ     PRED,,AUTO
         1 004050   000002 316003                    CANQ    2,DU
         1 004051   004065 600000 1                  TZE     s:18908

  18890  1 004052   200014 450100                    STZ     CONTINUING,,AUTO

      548    18892                                %ACTION09;

  18893  1 004053   013050 701000 1                  TSX1    ACTION09
         1 004054   000000 011000                    NOP     0

      549    18895                                %ACTION17;

PL6.E3A0      #001=XSP$MACHINE File=XSP$MACHINE.:XSA1TSI                         WED 10/01/97 12:04 Page:171
  18896  1 004055   013115 701000 1                  TSX1    ACTION17
         1 004056   000000 011000                    NOP     0

      550    18898                                %ACTION16;

  18899  1 004057   013113 701000 1                  TSX1    ACTION16
         1 004060   000000 011000                    NOP     0

      551    18901                                %EVENT( EV=%XSP_PEV_PACRIND);

  18902  1 004061   000057 236000 2                  LDQ     47
         1 004062   200017 756100                    STQ     CONTINUING+3,,AUTO
         1 004063   012517 701000 1                  TSX1    EVNT
         1 004064   012433 702000 1                  TSX2    EVNTERR

      552    18904    4                           END;

      553    18905                            %ENDPREDDO;

  18908  1 004065   200014 234100                    SZN     CONTINUING,,AUTO
         1 004066   012432 605000 1                  TPL     s:37359

  18908  1 004067   012644 701000 1                  TSX1    OOPS
         1 004070   000000 011000                    NOP     0
         1 004071   012432 710000 1                  TRA     s:37359

      554    18910    3                   CASE( %XSP_PST_AC1,

      555    18911    3                         %XSP_PST_AC2);
      556    18912                            %IFPREDDO( P="-17&06");

  18920  1 004072   400000 236003                    LDQ     -131072,DU
         1 004073   200014 756100                    STQ     CONTINUING,,AUTO

  18984  1 004074   200013 236100                    LDQ     PINV,,AUTO
         1 004075   000001 316003                    CANQ    1,DU
         1 004076   004101 600000 1                  TZE     s:18993
PL6.E3A0      #001=XSP$MACHINE File=XSP$MACHINE.:XSA1TSI                         WED 10/01/97 12:04 Page:172

  18984  1 004077   013475 701000 1                  TSX1    PRED17
         1 004100   000000 011000                    NOP     0

  18993  1 004101   200012 236100                    LDQ     PRED,,AUTO
         1 004102   000001 316003                    CANQ    1,DU
         1 004103   004121 601000 1                  TNZ     s:19126

  19068  1 004104   200013 236100                    LDQ     PINV,,AUTO
         1 004105   004000 316003                    CANQ    2048,DU
         1 004106   004111 600000 1                  TZE     s:19078

  19068  1 004107   013375 701000 1                  TSX1    PRED06
         1 004110   000000 011000                    NOP     0

  19078  1 004111   200012 236100                    LDQ     PRED,,AUTO
         1 004112   004000 316003                    CANQ    2048,DU
         1 004113   004121 600000 1                  TZE     s:19126

  19117  1 004114   200014 450100                    STZ     CONTINUING,,AUTO

      557    19119                                %EVENT( EV=%XSP_PEV_PACRIND);

  19120  1 004115   000057 236000 2                  LDQ     47
         1 004116   200017 756100                    STQ     CONTINUING+3,,AUTO
         1 004117   012517 701000 1                  TSX1    EVNT
         1 004120   012433 702000 1                  TSX2    EVNTERR

      558    19122    4                           END;

      559    19123                            %ENDPREDDO;

  19126  1 004121   200014 234100                    SZN     CONTINUING,,AUTO
         1 004122   012432 605000 1                  TPL     s:37359

  19126  1 004123   012644 701000 1                  TSX1    OOPS
         1 004124   000000 011000                    NOP     0
PL6.E3A0      #001=XSP$MACHINE File=XSP$MACHINE.:XSA1TSI                         WED 10/01/97 12:04 Page:173
         1 004125   012432 710000 1                  TRA     s:37359

      560    19128    3                   CASE( ELSE);

      561    19129                            %INVALID;

  19130  1 004126   012644 701000 1                  TSX1    OOPS
         1 004127   000000 011000                    NOP     0

      562    19132    3                   END;

  19132  1 004130   012432 710000 1                  TRA     s:37359

      563    19133    2           CASE( %XSP_PEV_SACSIND);                /* TABLE 28 */

      564    19134    3               DO CASE( PCTX.STATE);

  19134  1 004131   000000 236100                    LDQ     0,,PR0
         1 004132   000033 772000                    QRL     27
         1 004133   000004 136007                    SBLQ    4,DL
         1 004134   000004 116007                    CMPQ    4,DL
         1 004135   004137 602006 1                  TNC     s:19134+6,QL
         1 004136   004227 710000 1                  TRA     s:19471
         1 004137   004143 710000 1                  TRA     s:19145
         1 004140   004173 710000 1                  TRA     s:19261
         1 004141   004173 710000 1                  TRA     s:19261
         1 004142   004143 710000 1                  TRA     s:19145

      565    19135    3                   CASE( %XSP_PST_AC0,

      566    19136    3                         %XSP_PST_T0);
      567    19137                            %IFPREDDO( P="05");

  19145  1 004143   400000 236003                    LDQ     -131072,DU
         1 004144   200014 756100                    STQ     CONTINUING,,AUTO

  19205  1 004145   200013 236100                    LDQ     PINV,,AUTO
PL6.E3A0      #001=XSP$MACHINE File=XSP$MACHINE.:XSA1TSI                         WED 10/01/97 12:04 Page:174
         1 004146   010000 316003                    CANQ    4096,DU
         1 004147   004152 600000 1                  TZE     s:19215

  19205  1 004150   013347 701000 1                  TSX1    PRED05
         1 004151   000000 011000                    NOP     0

  19215  1 004152   200012 236100                    LDQ     PRED,,AUTO
         1 004153   010000 316003                    CANQ    4096,DU
         1 004154   004166 600000 1                  TZE     s:19249

  19234  1 004155   200014 450100                    STZ     CONTINUING,,AUTO

      568    19236                                %ACTION09;

  19237  1 004156   013050 701000 1                  TSX1    ACTION09
         1 004157   000000 011000                    NOP     0

      569    19239                                %ACTION17;

  19240  1 004160   013115 701000 1                  TSX1    ACTION17
         1 004161   000000 011000                    NOP     0

      570    19242                                %EVENT( EV=%XSP_PEV_PACSIND);

  19243  1 004162   000061 236000 2                  LDQ     49
         1 004163   200017 756100                    STQ     CONTINUING+3,,AUTO
         1 004164   012517 701000 1                  TSX1    EVNT
         1 004165   012433 702000 1                  TSX2    EVNTERR

      571    19245    4                           END;

      572    19246                            %ENDPREDDO;

  19249  1 004166   200014 234100                    SZN     CONTINUING,,AUTO
         1 004167   012432 605000 1                  TPL     s:37359

  19249  1 004170   012644 701000 1                  TSX1    OOPS
PL6.E3A0      #001=XSP$MACHINE File=XSP$MACHINE.:XSA1TSI                         WED 10/01/97 12:04 Page:175
         1 004171   000000 011000                    NOP     0
         1 004172   012432 710000 1                  TRA     s:37359

      573    19251    3                   CASE( %XSP_PST_AC1,

      574    19252    3                         %XSP_PST_AC2);
      575    19253                            %IFPREDDO( P="-17&06");

  19261  1 004173   400000 236003                    LDQ     -131072,DU
         1 004174   200014 756100                    STQ     CONTINUING,,AUTO

  19325  1 004175   200013 236100                    LDQ     PINV,,AUTO
         1 004176   000001 316003                    CANQ    1,DU
         1 004177   004202 600000 1                  TZE     s:19334

  19325  1 004200   013475 701000 1                  TSX1    PRED17
         1 004201   000000 011000                    NOP     0

  19334  1 004202   200012 236100                    LDQ     PRED,,AUTO
         1 004203   000001 316003                    CANQ    1,DU
         1 004204   004222 601000 1                  TNZ     s:19467

  19409  1 004205   200013 236100                    LDQ     PINV,,AUTO
         1 004206   004000 316003                    CANQ    2048,DU
         1 004207   004212 600000 1                  TZE     s:19419

  19409  1 004210   013375 701000 1                  TSX1    PRED06
         1 004211   000000 011000                    NOP     0

  19419  1 004212   200012 236100                    LDQ     PRED,,AUTO
         1 004213   004000 316003                    CANQ    2048,DU
         1 004214   004222 600000 1                  TZE     s:19467

  19458  1 004215   200014 450100                    STZ     CONTINUING,,AUTO

      576    19460                                %EVENT( EV=%XSP_PEV_PACSIND);

PL6.E3A0      #001=XSP$MACHINE File=XSP$MACHINE.:XSA1TSI                         WED 10/01/97 12:04 Page:176
  19461  1 004216   000061 236000 2                  LDQ     49
         1 004217   200017 756100                    STQ     CONTINUING+3,,AUTO
         1 004220   012517 701000 1                  TSX1    EVNT
         1 004221   012433 702000 1                  TSX2    EVNTERR

      577    19463    4                           END;

      578    19464                            %ENDPREDDO;

  19467  1 004222   200014 234100                    SZN     CONTINUING,,AUTO
         1 004223   012432 605000 1                  TPL     s:37359

  19467  1 004224   012644 701000 1                  TSX1    OOPS
         1 004225   000000 011000                    NOP     0
         1 004226   012432 710000 1                  TRA     s:37359

      579    19469    3                   CASE( ELSE);

      580    19470                            %INVALID;

  19471  1 004227   012644 701000 1                  TSX1    OOPS
         1 004230   000000 011000                    NOP     0

      581    19473    3                   END;

  19473  1 004231   012432 710000 1                  TRA     s:37359

      582    19474    2           CASE( %XSP_PEV_SCONCFN);                /* TABLE 21 */

      583    19475    3               IF PCTX.STATE = %XSP_PST_I1 THEN DO;

  19475  1 004232   000000 236100                    LDQ     0,,PR0
         1 004233   777000 376003                    ANQ     -512,DU
         1 004234   002000 116003                    CMPQ    1024,DU
         1 004235   004246 601000 1                  TNZ     s:19483

      584    19476                        %EVENT( EV=%XSP_PEV_PCONCFN);
PL6.E3A0      #001=XSP$MACHINE File=XSP$MACHINE.:XSA1TSI                         WED 10/01/97 12:04 Page:177

  19477  1 004236   000023 236000 2                  LDQ     19
         1 004237   200017 756100                    STQ     CONTINUING+3,,AUTO
         1 004240   012517 701000 1                  TSX1    EVNT
         1 004241   012433 702000 1                  TSX2    EVNTERR

      585    19479    3                   PCTX.STATE = %XSP_PST_I0;

  19479  1 004242   200010 470500                    LDP0    PCTX$,,AUTO
         1 004243   001000 236003                    LDQ     512,DU
         1 004244   000000 552140                    STBQ    0,'40'O,PR0

      586    19480    3                   END;

  19480  1 004245   012432 710000 1                  TRA     s:37359

      587    19481    2               ELSE
      588    19482                        %INVALID;

  19483  1 004246   012644 701000 1                  TSX1    OOPS
         1 004247   000000 011000                    NOP     0
         1 004250   012432 710000 1                  TRA     s:37359

      589    19485    2           CASE( %XSP_PEV_SCTGIND);                /* TABLE 26 */

      590    19486    3               DO CASE( PCTX.STATE);

  19486  1 004251   000000 236100                    LDQ     0,,PR0
         1 004252   000033 772000                    QRL     27
         1 004253   000004 136007                    SBLQ    4,DL
         1 004254   000004 116007                    CMPQ    4,DL
         1 004255   004257 602006 1                  TNC     s:19486+6,QL
         1 004256   004277 710000 1                  TRA     s:19502
         1 004257   004263 710000 1                  TRA     s:19491
         1 004260   004263 710000 1                  TRA     s:19491
         1 004261   004263 710000 1                  TRA     s:19491
         1 004262   004270 710000 1                  TRA     s:19495
PL6.E3A0      #001=XSP$MACHINE File=XSP$MACHINE.:XSA1TSI                         WED 10/01/97 12:04 Page:178

      591    19487    3                   CASE( %XSP_PST_AC0,

      592    19488    3                         %XSP_PST_AC1,
      593    19489    3                         %XSP_PST_AC2);
      594    19490                            %EVENT( EV=%XSP_PEV_PCTGIND);

  19491  1 004263   000063 236000 2                  LDQ     51
         1 004264   200017 756100                    STQ     CONTINUING+3,,AUTO
         1 004265   012517 701000 1                  TSX1    EVNT
         1 004266   012433 702000 1                  TSX2    EVNTERR
         1 004267   012432 710000 1                  TRA     s:37359

      595    19493    3                   CASE( %XSP_PST_T0);

      596    19494                            %ACTION09;

  19495  1 004270   013050 701000 1                  TSX1    ACTION09
         1 004271   000000 011000                    NOP     0

      597    19497                            %EVENT( EV=%XSP_PEV_PCTGIND);

  19498  1 004272   000063 236000 2                  LDQ     51
         1 004273   200017 756100                    STQ     CONTINUING+3,,AUTO
         1 004274   012517 701000 1                  TSX1    EVNT
         1 004275   012433 702000 1                  TSX2    EVNTERR
         1 004276   012432 710000 1                  TRA     s:37359

      598    19500    3                   CASE( ELSE);

      599    19501                            %INVALID;

  19502  1 004277   012644 701000 1                  TSX1    OOPS
         1 004300   000000 011000                    NOP     0

      600    19504    3                   END;

PL6.E3A0      #001=XSP$MACHINE File=XSP$MACHINE.:XSA1TSI                         WED 10/01/97 12:04 Page:179
  19504  1 004301   012432 710000 1                  TRA     s:37359

      601    19505        /*      CASE( %XSP_PEV_SPABIND);   see %XSP_PEV_ARP case above          */
      602    19506    2           CASE( %XSP_PEV_SPERIND);                /* TABLE 28 */

      603    19507    3               DO CASE( PCTX.STATE);

  19507  1 004302   000000 236100                    LDQ     0,,PR0
         1 004303   000033 772000                    QRL     27
         1 004304   000004 136007                    SBLQ    4,DL
         1 004305   000004 116007                    CMPQ    4,DL
         1 004306   004310 602006 1                  TNC     s:19507+6,QL
         1 004307   004324 710000 1                  TRA     s:19518
         1 004310   004314 710000 1                  TRA     s:19513
         1 004311   004314 710000 1                  TRA     s:19513
         1 004312   004314 710000 1                  TRA     s:19513
         1 004313   004314 710000 1                  TRA     s:19513

      604    19508    3                   CASE( %XSP_PST_AC0,

      605    19509    3                         %XSP_PST_AC1,
      606    19510    3                         %XSP_PST_AC2,
      607    19511    3                         %XSP_PST_T0);
      608    19512                            %EVENT( EV=%XSP_PEV_PPERIND);

  19513  1 004314   000065 236000 2                  LDQ     53
         1 004315   200017 756100                    STQ     CONTINUING+3,,AUTO
         1 004316   012517 701000 1                  TSX1    EVNT
         1 004317   012433 702000 1                  TSX2    EVNTERR

      609    19515    3                       PCTX.STATE = %XSP_PST_T0;

  19515  1 004320   200010 470500                    LDP0    PCTX$,,AUTO
         1 004321   007000 236003                    LDQ     3584,DU
         1 004322   000000 552140                    STBQ    0,'40'O,PR0
         1 004323   012432 710000 1                  TRA     s:37359

PL6.E3A0      #001=XSP$MACHINE File=XSP$MACHINE.:XSA1TSI                         WED 10/01/97 12:04 Page:180
      610    19516    3                   CASE( ELSE);

      611    19517                            %INVALID;

  19518  1 004324   012644 701000 1                  TSX1    OOPS
         1 004325   000000 011000                    NOP     0

      612    19520    3                   END;

  19520  1 004326   012432 710000 1                  TRA     s:37359

      613    19521    2           CASE( %XSP_PEV_SRELIND);                /* TABLE 22 */

      614    19522    3               DO CASE( PCTX.STATE);

  19522  1 004327   000000 236100                    LDQ     0,,PR0
         1 004330   000033 772000                    QRL     27
         1 004331   000004 136007                    SBLQ    4,DL
         1 004332   000004 116007                    CMPQ    4,DL
         1 004333   004335 602006 1                  TNC     s:19522+6,QL
         1 004334   004451 710000 1                  TRA     s:19871
         1 004335   004341 710000 1                  TRA     s:19532
         1 004336   004371 710000 1                  TRA     s:19648
         1 004337   004371 710000 1                  TRA     s:19648
         1 004340   004421 710000 1                  TRA     s:19763

      615    19523    3                   CASE( %XSP_PST_AC0);

      616    19524                            %IFPREDDO( P="05");

  19532  1 004341   400000 236003                    LDQ     -131072,DU
         1 004342   200014 756100                    STQ     CONTINUING,,AUTO

  19592  1 004343   200013 236100                    LDQ     PINV,,AUTO
         1 004344   010000 316003                    CANQ    4096,DU
         1 004345   004350 600000 1                  TZE     s:19602

PL6.E3A0      #001=XSP$MACHINE File=XSP$MACHINE.:XSA1TSI                         WED 10/01/97 12:04 Page:181
  19592  1 004346   013347 701000 1                  TSX1    PRED05
         1 004347   000000 011000                    NOP     0

  19602  1 004350   200012 236100                    LDQ     PRED,,AUTO
         1 004351   010000 316003                    CANQ    4096,DU
         1 004352   004364 600000 1                  TZE     s:19636

  19621  1 004353   200014 450100                    STZ     CONTINUING,,AUTO

      617    19623                                %ACTION08;

  19624  1 004354   013037 701000 1                  TSX1    ACTION08
         1 004355   000000 011000                    NOP     0

      618    19626                                %ACTION07;

  19627  1 004356   013031 701000 1                  TSX1    ACTION07
         1 004357   000000 011000                    NOP     0

      619    19629                                %EVENT( EV=%XSP_PEV_PRELIND);

  19630  1 004360   000067 236000 2                  LDQ     55
         1 004361   200017 756100                    STQ     CONTINUING+3,,AUTO
         1 004362   012517 701000 1                  TSX1    EVNT
         1 004363   012433 702000 1                  TSX2    EVNTERR

      620    19632    4                           END;

      621    19633                            %ENDPREDDO;

  19636  1 004364   200014 234100                    SZN     CONTINUING,,AUTO
         1 004365   012432 605000 1                  TPL     s:37359

  19636  1 004366   012644 701000 1                  TSX1    OOPS
         1 004367   000000 011000                    NOP     0
         1 004370   012432 710000 1                  TRA     s:37359

PL6.E3A0      #001=XSP$MACHINE File=XSP$MACHINE.:XSA1TSI                         WED 10/01/97 12:04 Page:182
      622    19638    3                   CASE( %XSP_PST_AC1,

      623    19639    3                         %XSP_PST_AC2);
      624    19640                            %IFPREDDO( P="06");

  19648  1 004371   400000 236003                    LDQ     -131072,DU
         1 004372   200014 756100                    STQ     CONTINUING,,AUTO

  19708  1 004373   200013 236100                    LDQ     PINV,,AUTO
         1 004374   004000 316003                    CANQ    2048,DU
         1 004375   004400 600000 1                  TZE     s:19718

  19708  1 004376   013375 701000 1                  TSX1    PRED06
         1 004377   000000 011000                    NOP     0

  19718  1 004400   200012 236100                    LDQ     PRED,,AUTO
         1 004401   004000 316003                    CANQ    2048,DU
         1 004402   004414 600000 1                  TZE     s:19752

  19737  1 004403   200014 450100                    STZ     CONTINUING,,AUTO

      625    19739                                %ACTION08;

  19740  1 004404   013037 701000 1                  TSX1    ACTION08
         1 004405   000000 011000                    NOP     0

      626    19742                                %ACTION07;

  19743  1 004406   013031 701000 1                  TSX1    ACTION07
         1 004407   000000 011000                    NOP     0

      627    19745                                %EVENT( EV=%XSP_PEV_PRELIND);

  19746  1 004410   000067 236000 2                  LDQ     55
         1 004411   200017 756100                    STQ     CONTINUING+3,,AUTO
         1 004412   012517 701000 1                  TSX1    EVNT
         1 004413   012433 702000 1                  TSX2    EVNTERR
PL6.E3A0      #001=XSP$MACHINE File=XSP$MACHINE.:XSA1TSI                         WED 10/01/97 12:04 Page:183

      628    19748    4                           END;

      629    19749                            %ENDPREDDO;

  19752  1 004414   200014 234100                    SZN     CONTINUING,,AUTO
         1 004415   012432 605000 1                  TPL     s:37359

  19752  1 004416   012644 701000 1                  TSX1    OOPS
         1 004417   000000 011000                    NOP     0
         1 004420   012432 710000 1                  TRA     s:37359

      630    19754    3                   CASE( %XSP_PST_T0);

      631    19755                            %IFPREDDO( P="05");

  19763  1 004421   400000 236003                    LDQ     -131072,DU
         1 004422   200014 756100                    STQ     CONTINUING,,AUTO

  19823  1 004423   200013 236100                    LDQ     PINV,,AUTO
         1 004424   010000 316003                    CANQ    4096,DU
         1 004425   004430 600000 1                  TZE     s:19833

  19823  1 004426   013347 701000 1                  TSX1    PRED05
         1 004427   000000 011000                    NOP     0

  19833  1 004430   200012 236100                    LDQ     PRED,,AUTO
         1 004431   010000 316003                    CANQ    4096,DU
         1 004432   004444 600000 1                  TZE     s:19867

  19852  1 004433   200014 450100                    STZ     CONTINUING,,AUTO

      632    19854                                %ACTION08;

  19855  1 004434   013037 701000 1                  TSX1    ACTION08
         1 004435   000000 011000                    NOP     0

PL6.E3A0      #001=XSP$MACHINE File=XSP$MACHINE.:XSA1TSI                         WED 10/01/97 12:04 Page:184
      633    19857                                %ACTION07;

  19858  1 004436   013031 701000 1                  TSX1    ACTION07
         1 004437   000000 011000                    NOP     0

      634    19860                                %EVENT( EV=%XSP_PEV_PRELIND);

  19861  1 004440   000067 236000 2                  LDQ     55
         1 004441   200017 756100                    STQ     CONTINUING+3,,AUTO
         1 004442   012517 701000 1                  TSX1    EVNT
         1 004443   012433 702000 1                  TSX2    EVNTERR

      635    19863    4                           END;

      636    19864                            %ENDPREDDO;

  19867  1 004444   200014 234100                    SZN     CONTINUING,,AUTO
         1 004445   012432 605000 1                  TPL     s:37359

  19867  1 004446   012644 701000 1                  TSX1    OOPS
         1 004447   000000 011000                    NOP     0
         1 004450   012432 710000 1                  TRA     s:37359

      637    19869    3                   CASE( ELSE);

      638    19870                            %INVALID;

  19871  1 004451   012644 701000 1                  TSX1    OOPS
         1 004452   000000 011000                    NOP     0

      639    19873    3                   END;

  19873  1 004453   012432 710000 1                  TRA     s:37359

      640    19874    2           CASE( %XSP_PEV_SRELCFP);                /* TABLE 22 */

      641    19875    3               DO CASE( PCTX.STATE);
PL6.E3A0      #001=XSP$MACHINE File=XSP$MACHINE.:XSA1TSI                         WED 10/01/97 12:04 Page:185

  19875  1 004454   000000 236100                    LDQ     0,,PR0
         1 004455   000033 772000                    QRL     27
         1 004456   000004 136007                    SBLQ    4,DL
         1 004457   000004 116007                    CMPQ    4,DL
         1 004460   004462 602006 1                  TNC     s:19875+6,QL
         1 004461   004644 710000 1                  TRA     s:20696
         1 004462   004466 710000 1                  TRA     s:19886
         1 004463   004555 710000 1                  TRA     s:20295
         1 004464   004555 710000 1                  TRA     s:20295
         1 004465   004466 710000 1                  TRA     s:19886

      642    19876    3                   CASE( %XSP_PST_AC0,

      643    19877    3                         %XSP_PST_T0);
      644    19878                            %IFPREDDO( P="05&-08");

  19886  1 004466   400000 236003                    LDQ     -131072,DU
         1 004467   200014 756100                    STQ     CONTINUING,,AUTO

  19932  1 004470   200013 236100                    LDQ     PINV,,AUTO
         1 004471   010000 316003                    CANQ    4096,DU
         1 004472   004475 600000 1                  TZE     s:19941

  19932  1 004473   013347 701000 1                  TSX1    PRED05
         1 004474   000000 011000                    NOP     0

  19941  1 004475   200012 236100                    LDQ     PRED,,AUTO
         1 004476   010000 316003                    CANQ    4096,DU
         1 004477   004516 600000 1                  TZE     s:20097

  20034  1 004500   200013 430100                    FSZN    PINV,,AUTO
         1 004501   004504 605000 1                  TPL     s:20044

  20034  1 004502   013405 701000 1                  TSX1    PRED08
         1 004503   000000 011000                    NOP     0

PL6.E3A0      #001=XSP$MACHINE File=XSP$MACHINE.:XSA1TSI                         WED 10/01/97 12:04 Page:186
  20044  1 004504   200012 430100                    FSZN    PRED,,AUTO
         1 004505   004516 604000 1                  TMI     s:20097

  20083  1 004506   200014 450100                    STZ     CONTINUING,,AUTO

      645    20085                                %EVENT( EV=%XSP_PEV_PRELCFP);

  20086  1 004507   000071 236000 2                  LDQ     57
         1 004510   200017 756100                    STQ     CONTINUING+3,,AUTO
         1 004511   012517 701000 1                  TSX1    EVNT
         1 004512   012433 702000 1                  TSX2    EVNTERR

      646    20088    4                           PCTX.STATE = %XSP_PST_I0;

  20088  1 004513   200010 470500                    LDP0    PCTX$,,AUTO
         1 004514   001000 236003                    LDQ     512,DU
         1 004515   000000 552140                    STBQ    0,'40'O,PR0

      647    20089    4                           END;

      648    20090                            %ELSEPREDDO( P="05&08");

  20097  1 004516   200014 234100                    SZN     CONTINUING,,AUTO
         1 004517   004550 605000 1                  TPL     s:20283

  20142  1 004520   200013 236100                    LDQ     PINV,,AUTO
         1 004521   010000 316003                    CANQ    4096,DU
         1 004522   004525 600000 1                  TZE     s:20151

  20142  1 004523   013347 701000 1                  TSX1    PRED05
         1 004524   000000 011000                    NOP     0

  20151  1 004525   200012 236100                    LDQ     PRED,,AUTO
         1 004526   010000 316003                    CANQ    4096,DU
         1 004527   004550 600000 1                  TZE     s:20283

  20226  1 004530   200013 430100                    FSZN    PINV,,AUTO
PL6.E3A0      #001=XSP$MACHINE File=XSP$MACHINE.:XSA1TSI                         WED 10/01/97 12:04 Page:187
         1 004531   004534 605000 1                  TPL     s:20236

  20226  1 004532   013405 701000 1                  TSX1    PRED08
         1 004533   000000 011000                    NOP     0

  20236  1 004534   200012 430100                    FSZN    PRED,,AUTO
         1 004535   004550 605000 1                  TPL     s:20283

  20270  1 004536   200014 450100                    STZ     CONTINUING,,AUTO

      649    20272                                %ACTION02;

  20273  1 004537   012714 701000 1                  TSX1    ACTION02
         1 004540   000000 011000                    NOP     0

      650    20275                                %EVENT( EV=%XSP_PEV_PRELCFP);

  20276  1 004541   000071 236000 2                  LDQ     57
         1 004542   200017 756100                    STQ     CONTINUING+3,,AUTO
         1 004543   012517 701000 1                  TSX1    EVNT
         1 004544   012433 702000 1                  TSX2    EVNTERR

      651    20278    4                           PCTX.STATE = %XSP_PST_T0;

  20278  1 004545   200010 470500                    LDP0    PCTX$,,AUTO
         1 004546   007000 236003                    LDQ     3584,DU
         1 004547   000000 552140                    STBQ    0,'40'O,PR0

      652    20279    4                           END;

      653    20280                            %ENDPREDDO;

  20283  1 004550   200014 234100                    SZN     CONTINUING,,AUTO
         1 004551   012432 605000 1                  TPL     s:37359

  20283  1 004552   012644 701000 1                  TSX1    OOPS
         1 004553   000000 011000                    NOP     0
PL6.E3A0      #001=XSP$MACHINE File=XSP$MACHINE.:XSA1TSI                         WED 10/01/97 12:04 Page:188
         1 004554   012432 710000 1                  TRA     s:37359

      654    20285    3                   CASE( %XSP_PST_AC1,

      655    20286    3                         %XSP_PST_AC2);
      656    20287                            %IFPREDDO( P="06&-08");

  20295  1 004555   400000 236003                    LDQ     -131072,DU
         1 004556   200014 756100                    STQ     CONTINUING,,AUTO

  20341  1 004557   200013 236100                    LDQ     PINV,,AUTO
         1 004560   004000 316003                    CANQ    2048,DU
         1 004561   004564 600000 1                  TZE     s:20350

  20341  1 004562   013375 701000 1                  TSX1    PRED06
         1 004563   000000 011000                    NOP     0

  20350  1 004564   200012 236100                    LDQ     PRED,,AUTO
         1 004565   004000 316003                    CANQ    2048,DU
         1 004566   004605 600000 1                  TZE     s:20506

  20443  1 004567   200013 430100                    FSZN    PINV,,AUTO
         1 004570   004573 605000 1                  TPL     s:20453

  20443  1 004571   013405 701000 1                  TSX1    PRED08
         1 004572   000000 011000                    NOP     0

  20453  1 004573   200012 430100                    FSZN    PRED,,AUTO
         1 004574   004605 604000 1                  TMI     s:20506

  20492  1 004575   200014 450100                    STZ     CONTINUING,,AUTO

      657    20494                                %EVENT( EV=%XSP_PEV_PRELCFP);

  20495  1 004576   000071 236000 2                  LDQ     57
         1 004577   200017 756100                    STQ     CONTINUING+3,,AUTO
         1 004600   012517 701000 1                  TSX1    EVNT
PL6.E3A0      #001=XSP$MACHINE File=XSP$MACHINE.:XSA1TSI                         WED 10/01/97 12:04 Page:189
         1 004601   012433 702000 1                  TSX2    EVNTERR

      658    20497    4                           PCTX.STATE = %XSP_PST_I0;

  20497  1 004602   200010 470500                    LDP0    PCTX$,,AUTO
         1 004603   001000 236003                    LDQ     512,DU
         1 004604   000000 552140                    STBQ    0,'40'O,PR0

      659    20498    4                           END;

      660    20499                            %ELSEPREDDO( P="06&08");

  20506  1 004605   200014 234100                    SZN     CONTINUING,,AUTO
         1 004606   004637 605000 1                  TPL     s:20692

  20551  1 004607   200013 236100                    LDQ     PINV,,AUTO
         1 004610   004000 316003                    CANQ    2048,DU
         1 004611   004614 600000 1                  TZE     s:20560

  20551  1 004612   013375 701000 1                  TSX1    PRED06
         1 004613   000000 011000                    NOP     0

  20560  1 004614   200012 236100                    LDQ     PRED,,AUTO
         1 004615   004000 316003                    CANQ    2048,DU
         1 004616   004637 600000 1                  TZE     s:20692

  20635  1 004617   200013 430100                    FSZN    PINV,,AUTO
         1 004620   004623 605000 1                  TPL     s:20645

  20635  1 004621   013405 701000 1                  TSX1    PRED08
         1 004622   000000 011000                    NOP     0

  20645  1 004623   200012 430100                    FSZN    PRED,,AUTO
         1 004624   004637 605000 1                  TPL     s:20692

  20679  1 004625   200014 450100                    STZ     CONTINUING,,AUTO

PL6.E3A0      #001=XSP$MACHINE File=XSP$MACHINE.:XSA1TSI                         WED 10/01/97 12:04 Page:190
      661    20681                                %ACTION02;

  20682  1 004626   012714 701000 1                  TSX1    ACTION02
         1 004627   000000 011000                    NOP     0

      662    20684                                %EVENT( EV=%XSP_PEV_PRELCFP);

  20685  1 004630   000071 236000 2                  LDQ     57
         1 004631   200017 756100                    STQ     CONTINUING+3,,AUTO
         1 004632   012517 701000 1                  TSX1    EVNT
         1 004633   012433 702000 1                  TSX2    EVNTERR

      663    20687    4                           PCTX.STATE = %XSP_PST_T0;

  20687  1 004634   200010 470500                    LDP0    PCTX$,,AUTO
         1 004635   007000 236003                    LDQ     3584,DU
         1 004636   000000 552140                    STBQ    0,'40'O,PR0

      664    20688    4                           END;

      665    20689                            %ENDPREDDO;

  20692  1 004637   200014 234100                    SZN     CONTINUING,,AUTO
         1 004640   012432 605000 1                  TPL     s:37359

  20692  1 004641   012644 701000 1                  TSX1    OOPS
         1 004642   000000 011000                    NOP     0
         1 004643   012432 710000 1                  TRA     s:37359

      666    20694    3                   CASE( ELSE);

      667    20695                            %INVALID;

  20696  1 004644   012644 701000 1                  TSX1    OOPS
         1 004645   000000 011000                    NOP     0

      668    20698    3                   END;
PL6.E3A0      #001=XSP$MACHINE File=XSP$MACHINE.:XSA1TSI                         WED 10/01/97 12:04 Page:191

  20698  1 004646   012432 710000 1                  TRA     s:37359

      669    20699    2           CASE( %XSP_PEV_SRELCFN);                /* TABLE 22 */

      670    20700    3               DO CASE( PCTX.STATE);

  20700  1 004647   000000 236100                    LDQ     0,,PR0
         1 004650   000033 772000                    QRL     27
         1 004651   000004 136007                    SBLQ    4,DL
         1 004652   000004 116007                    CMPQ    4,DL
         1 004653   004655 602006 1                  TNC     s:20700+6,QL
         1 004654   004763 710000 1                  TRA     s:21040
         1 004655   004661 710000 1                  TRA     s:20710
         1 004656   004707 710000 1                  TRA     s:20823
         1 004657   004707 710000 1                  TRA     s:20823
         1 004660   004735 710000 1                  TRA     s:20935

      671    20701    3                   CASE( %XSP_PST_AC0);

      672    20702                            %IFPREDDO( P="05");

  20710  1 004661   400000 236003                    LDQ     -131072,DU
         1 004662   200014 756100                    STQ     CONTINUING,,AUTO

  20770  1 004663   200013 236100                    LDQ     PINV,,AUTO
         1 004664   010000 316003                    CANQ    4096,DU
         1 004665   004670 600000 1                  TZE     s:20780

  20770  1 004666   013347 701000 1                  TSX1    PRED05
         1 004667   000000 011000                    NOP     0

  20780  1 004670   200012 236100                    LDQ     PRED,,AUTO
         1 004671   010000 316003                    CANQ    4096,DU
         1 004672   004702 600000 1                  TZE     s:20811

  20799  1 004673   200014 450100                    STZ     CONTINUING,,AUTO
PL6.E3A0      #001=XSP$MACHINE File=XSP$MACHINE.:XSA1TSI                         WED 10/01/97 12:04 Page:192

      673    20801                                %ACTION02;

  20802  1 004674   012714 701000 1                  TSX1    ACTION02
         1 004675   000000 011000                    NOP     0

      674    20804                                %EVENT( EV=%XSP_PEV_PRELCFN);

  20805  1 004676   000073 236000 2                  LDQ     59
         1 004677   200017 756100                    STQ     CONTINUING+3,,AUTO
         1 004700   012517 701000 1                  TSX1    EVNT
         1 004701   012433 702000 1                  TSX2    EVNTERR

      675    20807    4                           END;

      676    20808                            %ENDPREDDO;

  20811  1 004702   200014 234100                    SZN     CONTINUING,,AUTO
         1 004703   012432 605000 1                  TPL     s:37359

  20811  1 004704   012644 701000 1                  TSX1    OOPS
         1 004705   000000 011000                    NOP     0
         1 004706   012432 710000 1                  TRA     s:37359

      677    20813    3                   CASE( %XSP_PST_AC1,

      678    20814    3                         %XSP_PST_AC2);
      679    20815                            %IFPREDDO( P="06");

  20823  1 004707   400000 236003                    LDQ     -131072,DU
         1 004710   200014 756100                    STQ     CONTINUING,,AUTO

  20883  1 004711   200013 236100                    LDQ     PINV,,AUTO
         1 004712   004000 316003                    CANQ    2048,DU
         1 004713   004716 600000 1                  TZE     s:20893

  20883  1 004714   013375 701000 1                  TSX1    PRED06
PL6.E3A0      #001=XSP$MACHINE File=XSP$MACHINE.:XSA1TSI                         WED 10/01/97 12:04 Page:193
         1 004715   000000 011000                    NOP     0

  20893  1 004716   200012 236100                    LDQ     PRED,,AUTO
         1 004717   004000 316003                    CANQ    2048,DU
         1 004720   004730 600000 1                  TZE     s:20924

  20912  1 004721   200014 450100                    STZ     CONTINUING,,AUTO

      680    20914                                %ACTION02;

  20915  1 004722   012714 701000 1                  TSX1    ACTION02
         1 004723   000000 011000                    NOP     0

      681    20917                                %EVENT( EV=%XSP_PEV_PRELCFN);

  20918  1 004724   000073 236000 2                  LDQ     59
         1 004725   200017 756100                    STQ     CONTINUING+3,,AUTO
         1 004726   012517 701000 1                  TSX1    EVNT
         1 004727   012433 702000 1                  TSX2    EVNTERR

      682    20920    4                           END;

      683    20921                            %ENDPREDDO;

  20924  1 004730   200014 234100                    SZN     CONTINUING,,AUTO
         1 004731   012432 605000 1                  TPL     s:37359

  20924  1 004732   012644 701000 1                  TSX1    OOPS
         1 004733   000000 011000                    NOP     0
         1 004734   012432 710000 1                  TRA     s:37359

      684    20926    3                   CASE( %XSP_PST_T0);

      685    20927                            %IFPREDDO( P="05");

  20935  1 004735   400000 236003                    LDQ     -131072,DU
         1 004736   200014 756100                    STQ     CONTINUING,,AUTO
PL6.E3A0      #001=XSP$MACHINE File=XSP$MACHINE.:XSA1TSI                         WED 10/01/97 12:04 Page:194

  20995  1 004737   200013 236100                    LDQ     PINV,,AUTO
         1 004740   010000 316003                    CANQ    4096,DU
         1 004741   004744 600000 1                  TZE     s:21005

  20995  1 004742   013347 701000 1                  TSX1    PRED05
         1 004743   000000 011000                    NOP     0

  21005  1 004744   200012 236100                    LDQ     PRED,,AUTO
         1 004745   010000 316003                    CANQ    4096,DU
         1 004746   004756 600000 1                  TZE     s:21036

  21024  1 004747   200014 450100                    STZ     CONTINUING,,AUTO

      686    21026                                %ACTION02;

  21027  1 004750   012714 701000 1                  TSX1    ACTION02
         1 004751   000000 011000                    NOP     0

      687    21029                                %EVENT( EV=%XSP_PEV_PRELCFN);

  21030  1 004752   000073 236000 2                  LDQ     59
         1 004753   200017 756100                    STQ     CONTINUING+3,,AUTO
         1 004754   012517 701000 1                  TSX1    EVNT
         1 004755   012433 702000 1                  TSX2    EVNTERR

      688    21032    4                           END;

      689    21033                            %ENDPREDDO;

  21036  1 004756   200014 234100                    SZN     CONTINUING,,AUTO
         1 004757   012432 605000 1                  TPL     s:37359

  21036  1 004760   012644 701000 1                  TSX1    OOPS
         1 004761   000000 011000                    NOP     0
         1 004762   012432 710000 1                  TRA     s:37359

PL6.E3A0      #001=XSP$MACHINE File=XSP$MACHINE.:XSA1TSI                         WED 10/01/97 12:04 Page:195
      690    21038    3                   CASE( ELSE);

      691    21039                            %INVALID;

  21040  1 004763   012644 701000 1                  TSX1    OOPS
         1 004764   000000 011000                    NOP     0

      692    21042    3                   END;

  21042  1 004765   012432 710000 1                  TRA     s:37359

      693    21043    2           CASE( %XSP_PEV_SRSXIND);

      694    21044                    %INVALID;  /* nothing in the state table for this event */

  21045  1 004766   012644 701000 1                  TSX1    OOPS
         1 004767   000000 011000                    NOP     0
         1 004770   012432 710000 1                  TRA     s:37359

      695    21047    2           CASE( %XSP_PEV_SRSXCNF);

      696    21048                    %INVALID;  /* nothing in the state table for this event */

  21049  1 004771   012644 701000 1                  TSX1    OOPS
         1 004772   000000 011000                    NOP     0
         1 004773   012432 710000 1                  TRA     s:37359

      697    21051    2           CASE( %XSP_PEV_SSMAIND);                /* TABLE 27 */

      698    21052    3               DO CASE( PCTX.STATE);

  21052  1 004774   000000 236100                    LDQ     0,,PR0
         1 004775   000033 772000                    QRL     27
         1 004776   000004 136007                    SBLQ    4,DL
         1 004777   000004 116007                    CMPQ    4,DL
         1 005000   005002 602006 1                  TNC     s:21052+6,QL
         1 005001   005066 710000 1                  TRA     s:21383
PL6.E3A0      #001=XSP$MACHINE File=XSP$MACHINE.:XSA1TSI                         WED 10/01/97 12:04 Page:196
         1 005002   005006 710000 1                  TRA     s:21063
         1 005003   005032 710000 1                  TRA     s:21173
         1 005004   005032 710000 1                  TRA     s:21173
         1 005005   005006 710000 1                  TRA     s:21063

      699    21053    3                   CASE( %XSP_PST_AC0,

      700    21054    3                         %XSP_PST_T0);
      701    21055                            %IFPREDDO( P="05");

  21063  1 005006   400000 236003                    LDQ     -131072,DU
         1 005007   200014 756100                    STQ     CONTINUING,,AUTO

  21123  1 005010   200013 236100                    LDQ     PINV,,AUTO
         1 005011   010000 316003                    CANQ    4096,DU
         1 005012   005015 600000 1                  TZE     s:21133

  21123  1 005013   013347 701000 1                  TSX1    PRED05
         1 005014   000000 011000                    NOP     0

  21133  1 005015   200012 236100                    LDQ     PRED,,AUTO
         1 005016   010000 316003                    CANQ    4096,DU
         1 005017   005025 600000 1                  TZE     s:21161

  21152  1 005020   200014 450100                    STZ     CONTINUING,,AUTO

      702    21154                                %EVENT( EV=%XSP_PEV_PSMAIND);

  21155  1 005021   000075 236000 2                  LDQ     61
         1 005022   200017 756100                    STQ     CONTINUING+3,,AUTO
         1 005023   012517 701000 1                  TSX1    EVNT
         1 005024   012433 702000 1                  TSX2    EVNTERR

      703    21157    4                           END;

      704    21158                            %ENDPREDDO;

PL6.E3A0      #001=XSP$MACHINE File=XSP$MACHINE.:XSA1TSI                         WED 10/01/97 12:04 Page:197
  21161  1 005025   200014 234100                    SZN     CONTINUING,,AUTO
         1 005026   012432 605000 1                  TPL     s:37359

  21161  1 005027   012644 701000 1                  TSX1    OOPS
         1 005030   000000 011000                    NOP     0
         1 005031   012432 710000 1                  TRA     s:37359

      705    21163    3                   CASE( %XSP_PST_AC1,

      706    21164    3                         %XSP_PST_AC2);
      707    21165                            %IFPREDDO( P="-17&06");

  21173  1 005032   400000 236003                    LDQ     -131072,DU
         1 005033   200014 756100                    STQ     CONTINUING,,AUTO

  21237  1 005034   200013 236100                    LDQ     PINV,,AUTO
         1 005035   000001 316003                    CANQ    1,DU
         1 005036   005041 600000 1                  TZE     s:21246

  21237  1 005037   013475 701000 1                  TSX1    PRED17
         1 005040   000000 011000                    NOP     0

  21246  1 005041   200012 236100                    LDQ     PRED,,AUTO
         1 005042   000001 316003                    CANQ    1,DU
         1 005043   005061 601000 1                  TNZ     s:21379

  21321  1 005044   200013 236100                    LDQ     PINV,,AUTO
         1 005045   004000 316003                    CANQ    2048,DU
         1 005046   005051 600000 1                  TZE     s:21331

  21321  1 005047   013375 701000 1                  TSX1    PRED06
         1 005050   000000 011000                    NOP     0

  21331  1 005051   200012 236100                    LDQ     PRED,,AUTO
         1 005052   004000 316003                    CANQ    2048,DU
         1 005053   005061 600000 1                  TZE     s:21379

PL6.E3A0      #001=XSP$MACHINE File=XSP$MACHINE.:XSA1TSI                         WED 10/01/97 12:04 Page:198
  21370  1 005054   200014 450100                    STZ     CONTINUING,,AUTO

      708    21372                                %EVENT( EV=%XSP_PEV_PSMAIND);

  21373  1 005055   000075 236000 2                  LDQ     61
         1 005056   200017 756100                    STQ     CONTINUING+3,,AUTO
         1 005057   012517 701000 1                  TSX1    EVNT
         1 005060   012433 702000 1                  TSX2    EVNTERR

      709    21375    4                           END;

      710    21376                            %ENDPREDDO;

  21379  1 005061   200014 234100                    SZN     CONTINUING,,AUTO
         1 005062   012432 605000 1                  TPL     s:37359

  21379  1 005063   012644 701000 1                  TSX1    OOPS
         1 005064   000000 011000                    NOP     0
         1 005065   012432 710000 1                  TRA     s:37359

      711    21381    3                   CASE( ELSE);

      712    21382                            %INVALID;

  21383  1 005066   012644 701000 1                  TSX1    OOPS
         1 005067   000000 011000                    NOP     0

      713    21385    3                   END;

  21385  1 005070   012432 710000 1                  TRA     s:37359

      714    21386    2           CASE( %XSP_PEV_SSMACNF);                /* TABLE 27 */

      715    21387    3               DO CASE( PCTX.STATE);

  21387  1 005071   000000 236100                    LDQ     0,,PR0
         1 005072   000033 772000                    QRL     27
PL6.E3A0      #001=XSP$MACHINE File=XSP$MACHINE.:XSA1TSI                         WED 10/01/97 12:04 Page:199
         1 005073   000004 136007                    SBLQ    4,DL
         1 005074   000004 116007                    CMPQ    4,DL
         1 005075   005077 602006 1                  TNC     s:21387+6,QL
         1 005076   005253 710000 1                  TRA     s:22054
         1 005077   005103 710000 1                  TRA     s:21397
         1 005100   005137 710000 1                  TRA     s:21614
         1 005101   005167 710000 1                  TRA     s:21729
         1 005102   005223 710000 1                  TRA     s:21946

      716    21388    3                   CASE( %XSP_PST_AC0);

      717    21389                            %IFPREDDO( P="-17&05");

  21397  1 005103   400000 236003                    LDQ     -131072,DU
         1 005104   200014 756100                    STQ     CONTINUING,,AUTO

  21461  1 005105   200013 236100                    LDQ     PINV,,AUTO
         1 005106   000001 316003                    CANQ    1,DU
         1 005107   005112 600000 1                  TZE     s:21470

  21461  1 005110   013475 701000 1                  TSX1    PRED17
         1 005111   000000 011000                    NOP     0

  21470  1 005112   200012 236100                    LDQ     PRED,,AUTO
         1 005113   000001 316003                    CANQ    1,DU
         1 005114   005132 601000 1                  TNZ     s:21603

  21545  1 005115   200013 236100                    LDQ     PINV,,AUTO
         1 005116   010000 316003                    CANQ    4096,DU
         1 005117   005122 600000 1                  TZE     s:21555

  21545  1 005120   013347 701000 1                  TSX1    PRED05
         1 005121   000000 011000                    NOP     0

  21555  1 005122   200012 236100                    LDQ     PRED,,AUTO
         1 005123   010000 316003                    CANQ    4096,DU
         1 005124   005132 600000 1                  TZE     s:21603
PL6.E3A0      #001=XSP$MACHINE File=XSP$MACHINE.:XSA1TSI                         WED 10/01/97 12:04 Page:200

  21594  1 005125   200014 450100                    STZ     CONTINUING,,AUTO

      718    21596                                %EVENT( EV=%XSP_PEV_PSMACNF);

  21597  1 005126   000077 236000 2                  LDQ     63
         1 005127   200017 756100                    STQ     CONTINUING+3,,AUTO
         1 005130   012517 701000 1                  TSX1    EVNT
         1 005131   012433 702000 1                  TSX2    EVNTERR

      719    21599    4                           END;

      720    21600                            %ENDPREDDO;

  21603  1 005132   200014 234100                    SZN     CONTINUING,,AUTO
         1 005133   012432 605000 1                  TPL     s:37359

  21603  1 005134   012644 701000 1                  TSX1    OOPS
         1 005135   000000 011000                    NOP     0
         1 005136   012432 710000 1                  TRA     s:37359

      721    21605    3                   CASE( %XSP_PST_AC1);

      722    21606                            %IFPREDDO( P="06");

  21614  1 005137   400000 236003                    LDQ     -131072,DU
         1 005140   200014 756100                    STQ     CONTINUING,,AUTO

  21674  1 005141   200013 236100                    LDQ     PINV,,AUTO
         1 005142   004000 316003                    CANQ    2048,DU
         1 005143   005146 600000 1                  TZE     s:21684

  21674  1 005144   013375 701000 1                  TSX1    PRED06
         1 005145   000000 011000                    NOP     0

  21684  1 005146   200012 236100                    LDQ     PRED,,AUTO
         1 005147   004000 316003                    CANQ    2048,DU
PL6.E3A0      #001=XSP$MACHINE File=XSP$MACHINE.:XSA1TSI                         WED 10/01/97 12:04 Page:201
         1 005150   005162 600000 1                  TZE     s:21718

  21703  1 005151   200014 450100                    STZ     CONTINUING,,AUTO

      723    21705                                %EVENT( EV=%XSP_PEV_PSMACNF);

  21706  1 005152   000077 236000 2                  LDQ     63
         1 005153   200017 756100                    STQ     CONTINUING+3,,AUTO
         1 005154   012517 701000 1                  TSX1    EVNT
         1 005155   012433 702000 1                  TSX2    EVNTERR

      724    21708                                %ACTION22;

  21709  1 005156   013146 701000 1                  TSX1    ACTION22
         1 005157   000000 011000                    NOP     0

      725    21711                                %ACTION13;

  21712  1 005160   013101 701000 1                  TSX1    ACTION13
         1 005161   000000 011000                    NOP     0

      726    21714    4                           END;

      727    21715                            %ENDPREDDO;

  21718  1 005162   200014 234100                    SZN     CONTINUING,,AUTO
         1 005163   012432 605000 1                  TPL     s:37359

  21718  1 005164   012644 701000 1                  TSX1    OOPS
         1 005165   000000 011000                    NOP     0
         1 005166   012432 710000 1                  TRA     s:37359

      728    21720    3                   CASE( %XSP_PST_AC2);

      729    21721                            %IFPREDDO( P="-17&06");

  21729  1 005167   400000 236003                    LDQ     -131072,DU
PL6.E3A0      #001=XSP$MACHINE File=XSP$MACHINE.:XSA1TSI                         WED 10/01/97 12:04 Page:202
         1 005170   200014 756100                    STQ     CONTINUING,,AUTO

  21793  1 005171   200013 236100                    LDQ     PINV,,AUTO
         1 005172   000001 316003                    CANQ    1,DU
         1 005173   005176 600000 1                  TZE     s:21802

  21793  1 005174   013475 701000 1                  TSX1    PRED17
         1 005175   000000 011000                    NOP     0

  21802  1 005176   200012 236100                    LDQ     PRED,,AUTO
         1 005177   000001 316003                    CANQ    1,DU
         1 005200   005216 601000 1                  TNZ     s:21935

  21877  1 005201   200013 236100                    LDQ     PINV,,AUTO
         1 005202   004000 316003                    CANQ    2048,DU
         1 005203   005206 600000 1                  TZE     s:21887

  21877  1 005204   013375 701000 1                  TSX1    PRED06
         1 005205   000000 011000                    NOP     0

  21887  1 005206   200012 236100                    LDQ     PRED,,AUTO
         1 005207   004000 316003                    CANQ    2048,DU
         1 005210   005216 600000 1                  TZE     s:21935

  21926  1 005211   200014 450100                    STZ     CONTINUING,,AUTO

      730    21928                                %EVENT( EV=%XSP_PEV_PSMACNF);

  21929  1 005212   000077 236000 2                  LDQ     63
         1 005213   200017 756100                    STQ     CONTINUING+3,,AUTO
         1 005214   012517 701000 1                  TSX1    EVNT
         1 005215   012433 702000 1                  TSX2    EVNTERR

      731    21931    4                           END;

      732    21932                            %ENDPREDDO;

PL6.E3A0      #001=XSP$MACHINE File=XSP$MACHINE.:XSA1TSI                         WED 10/01/97 12:04 Page:203
  21935  1 005216   200014 234100                    SZN     CONTINUING,,AUTO
         1 005217   012432 605000 1                  TPL     s:37359

  21935  1 005220   012644 701000 1                  TSX1    OOPS
         1 005221   000000 011000                    NOP     0
         1 005222   012432 710000 1                  TRA     s:37359

      733    21937    3                   CASE( %XSP_PST_T0);

      734    21938                            %IFPREDDO( P="05");

  21946  1 005223   400000 236003                    LDQ     -131072,DU
         1 005224   200014 756100                    STQ     CONTINUING,,AUTO

  22006  1 005225   200013 236100                    LDQ     PINV,,AUTO
         1 005226   010000 316003                    CANQ    4096,DU
         1 005227   005232 600000 1                  TZE     s:22016

  22006  1 005230   013347 701000 1                  TSX1    PRED05
         1 005231   000000 011000                    NOP     0

  22016  1 005232   200012 236100                    LDQ     PRED,,AUTO
         1 005233   010000 316003                    CANQ    4096,DU
         1 005234   005246 600000 1                  TZE     s:22050

  22035  1 005235   200014 450100                    STZ     CONTINUING,,AUTO

      735    22037                                %EVENT( EV=%XSP_PEV_PSMACNF);

  22038  1 005236   000077 236000 2                  LDQ     63
         1 005237   200017 756100                    STQ     CONTINUING+3,,AUTO
         1 005240   012517 701000 1                  TSX1    EVNT
         1 005241   012433 702000 1                  TSX2    EVNTERR

      736    22040                                %ACTION22;

  22041  1 005242   013146 701000 1                  TSX1    ACTION22
PL6.E3A0      #001=XSP$MACHINE File=XSP$MACHINE.:XSA1TSI                         WED 10/01/97 12:04 Page:204
         1 005243   000000 011000                    NOP     0

      737    22043                                %ACTION13;

  22044  1 005244   013101 701000 1                  TSX1    ACTION13
         1 005245   000000 011000                    NOP     0

      738    22046    4                           END;

      739    22047                            %ENDPREDDO;

  22050  1 005246   200014 234100                    SZN     CONTINUING,,AUTO
         1 005247   012432 605000 1                  TPL     s:37359

  22050  1 005250   012644 701000 1                  TSX1    OOPS
         1 005251   000000 011000                    NOP     0
         1 005252   012432 710000 1                  TRA     s:37359

      740    22052    3                   CASE( ELSE);

      741    22053                            %INVALID;

  22054  1 005253   012644 701000 1                  TSX1    OOPS
         1 005254   000000 011000                    NOP     0

      742    22056    3                   END;

  22056  1 005255   012432 710000 1                  TRA     s:37359

      743    22057    2           CASE( %XSP_PEV_SSMIIND);                /* TABLE 27 */

      744    22058    3               DO CASE( PCTX.STATE);

  22058  1 005256   000000 236100                    LDQ     0,,PR0
         1 005257   000033 772000                    QRL     27
         1 005260   000004 136007                    SBLQ    4,DL
         1 005261   000004 116007                    CMPQ    4,DL
PL6.E3A0      #001=XSP$MACHINE File=XSP$MACHINE.:XSA1TSI                         WED 10/01/97 12:04 Page:205
         1 005262   005264 602006 1                  TNC     s:22058+6,QL
         1 005263   005352 710000 1                  TRA     s:22392
         1 005264   005270 710000 1                  TRA     s:22069
         1 005265   005316 710000 1                  TRA     s:22182
         1 005266   005316 710000 1                  TRA     s:22182
         1 005267   005270 710000 1                  TRA     s:22069

      745    22059    3                   CASE( %XSP_PST_AC0,

      746    22060    3                         %XSP_PST_T0);
      747    22061                            %IFPREDDO( P="05");

  22069  1 005270   400000 236003                    LDQ     -131072,DU
         1 005271   200014 756100                    STQ     CONTINUING,,AUTO

  22129  1 005272   200013 236100                    LDQ     PINV,,AUTO
         1 005273   010000 316003                    CANQ    4096,DU
         1 005274   005277 600000 1                  TZE     s:22139

  22129  1 005275   013347 701000 1                  TSX1    PRED05
         1 005276   000000 011000                    NOP     0

  22139  1 005277   200012 236100                    LDQ     PRED,,AUTO
         1 005300   010000 316003                    CANQ    4096,DU
         1 005301   005311 600000 1                  TZE     s:22170

  22158  1 005302   200014 450100                    STZ     CONTINUING,,AUTO

      748    22160                                %EVENT( EV=%XSP_PEV_PSMIIND);

  22161  1 005303   000101 236000 2                  LDQ     65
         1 005304   200017 756100                    STQ     CONTINUING+3,,AUTO
         1 005305   012517 701000 1                  TSX1    EVNT
         1 005306   012433 702000 1                  TSX2    EVNTERR

      749    22163                                %ACTION13;

PL6.E3A0      #001=XSP$MACHINE File=XSP$MACHINE.:XSA1TSI                         WED 10/01/97 12:04 Page:206
  22164  1 005307   013101 701000 1                  TSX1    ACTION13
         1 005310   000000 011000                    NOP     0

      750    22166    4                           END;

      751    22167                            %ENDPREDDO;

  22170  1 005311   200014 234100                    SZN     CONTINUING,,AUTO
         1 005312   012432 605000 1                  TPL     s:37359

  22170  1 005313   012644 701000 1                  TSX1    OOPS
         1 005314   000000 011000                    NOP     0
         1 005315   012432 710000 1                  TRA     s:37359

      752    22172    3                   CASE( %XSP_PST_AC1,

      753    22173    3                         %XSP_PST_AC2);
      754    22174                            %IFPREDDO( P="-17&06");

  22182  1 005316   400000 236003                    LDQ     -131072,DU
         1 005317   200014 756100                    STQ     CONTINUING,,AUTO

  22246  1 005320   200013 236100                    LDQ     PINV,,AUTO
         1 005321   000001 316003                    CANQ    1,DU
         1 005322   005325 600000 1                  TZE     s:22255

  22246  1 005323   013475 701000 1                  TSX1    PRED17
         1 005324   000000 011000                    NOP     0

  22255  1 005325   200012 236100                    LDQ     PRED,,AUTO
         1 005326   000001 316003                    CANQ    1,DU
         1 005327   005345 601000 1                  TNZ     s:22388

  22330  1 005330   200013 236100                    LDQ     PINV,,AUTO
         1 005331   004000 316003                    CANQ    2048,DU
         1 005332   005335 600000 1                  TZE     s:22340

PL6.E3A0      #001=XSP$MACHINE File=XSP$MACHINE.:XSA1TSI                         WED 10/01/97 12:04 Page:207
  22330  1 005333   013375 701000 1                  TSX1    PRED06
         1 005334   000000 011000                    NOP     0

  22340  1 005335   200012 236100                    LDQ     PRED,,AUTO
         1 005336   004000 316003                    CANQ    2048,DU
         1 005337   005345 600000 1                  TZE     s:22388

  22379  1 005340   200014 450100                    STZ     CONTINUING,,AUTO

      755    22381                                %EVENT( EV=%XSP_PEV_PSMIIND);

  22382  1 005341   000101 236000 2                  LDQ     65
         1 005342   200017 756100                    STQ     CONTINUING+3,,AUTO
         1 005343   012517 701000 1                  TSX1    EVNT
         1 005344   012433 702000 1                  TSX2    EVNTERR

      756    22384    4                           END;

      757    22385                            %ENDPREDDO;

  22388  1 005345   200014 234100                    SZN     CONTINUING,,AUTO
         1 005346   012432 605000 1                  TPL     s:37359

  22388  1 005347   012644 701000 1                  TSX1    OOPS
         1 005350   000000 011000                    NOP     0
         1 005351   012432 710000 1                  TRA     s:37359

      758    22390    3                   CASE( ELSE);

      759    22391                            %INVALID;

  22392  1 005352   012644 701000 1                  TSX1    OOPS
         1 005353   000000 011000                    NOP     0

      760    22394    3                   END;

  22394  1 005354   012432 710000 1                  TRA     s:37359
PL6.E3A0      #001=XSP$MACHINE File=XSP$MACHINE.:XSA1TSI                         WED 10/01/97 12:04 Page:208

      761    22395    2           CASE( %XSP_PEV_SSMICNF);                /* TABLE 27 */

      762    22396    3               DO CASE( PCTX.STATE);

  22396  1 005355   000000 236100                    LDQ     0,,PR0
         1 005356   000033 772000                    QRL     27
         1 005357   000004 136007                    SBLQ    4,DL
         1 005360   000004 116007                    CMPQ    4,DL
         1 005361   005363 602006 1                  TNC     s:22396+6,QL
         1 005362   005437 710000 1                  TRA     s:22619
         1 005363   005367 710000 1                  TRA     s:22407
         1 005364   005413 710000 1                  TRA     s:22517
         1 005365   005413 710000 1                  TRA     s:22517
         1 005366   005367 710000 1                  TRA     s:22407

      763    22397    3                   CASE( %XSP_PST_AC0,

      764    22398    3                         %XSP_PST_T0);
      765    22399                            %IFPREDDO( P="05");

  22407  1 005367   400000 236003                    LDQ     -131072,DU
         1 005370   200014 756100                    STQ     CONTINUING,,AUTO

  22467  1 005371   200013 236100                    LDQ     PINV,,AUTO
         1 005372   010000 316003                    CANQ    4096,DU
         1 005373   005376 600000 1                  TZE     s:22477

  22467  1 005374   013347 701000 1                  TSX1    PRED05
         1 005375   000000 011000                    NOP     0

  22477  1 005376   200012 236100                    LDQ     PRED,,AUTO
         1 005377   010000 316003                    CANQ    4096,DU
         1 005400   005406 600000 1                  TZE     s:22505

  22496  1 005401   200014 450100                    STZ     CONTINUING,,AUTO

PL6.E3A0      #001=XSP$MACHINE File=XSP$MACHINE.:XSA1TSI                         WED 10/01/97 12:04 Page:209
      766    22498                                %EVENT( EV=%XSP_PEV_PSMICNF);

  22499  1 005402   000103 236000 2                  LDQ     67
         1 005403   200017 756100                    STQ     CONTINUING+3,,AUTO
         1 005404   012517 701000 1                  TSX1    EVNT
         1 005405   012433 702000 1                  TSX2    EVNTERR

      767    22501    4                           END;

      768    22502                            %ENDPREDDO;

  22505  1 005406   200014 234100                    SZN     CONTINUING,,AUTO
         1 005407   012432 605000 1                  TPL     s:37359

  22505  1 005410   012644 701000 1                  TSX1    OOPS
         1 005411   000000 011000                    NOP     0
         1 005412   012432 710000 1                  TRA     s:37359

      769    22507    3                   CASE( %XSP_PST_AC1,

      770    22508    3                         %XSP_PST_AC2);
      771    22509                            %IFPREDDO( P="06");

  22517  1 005413   400000 236003                    LDQ     -131072,DU
         1 005414   200014 756100                    STQ     CONTINUING,,AUTO

  22577  1 005415   200013 236100                    LDQ     PINV,,AUTO
         1 005416   004000 316003                    CANQ    2048,DU
         1 005417   005422 600000 1                  TZE     s:22587

  22577  1 005420   013375 701000 1                  TSX1    PRED06
         1 005421   000000 011000                    NOP     0

  22587  1 005422   200012 236100                    LDQ     PRED,,AUTO
         1 005423   004000 316003                    CANQ    2048,DU
         1 005424   005432 600000 1                  TZE     s:22615

PL6.E3A0      #001=XSP$MACHINE File=XSP$MACHINE.:XSA1TSI                         WED 10/01/97 12:04 Page:210
  22606  1 005425   200014 450100                    STZ     CONTINUING,,AUTO

      772    22608                                %EVENT( EV=%XSP_PEV_PSMICNF);

  22609  1 005426   000103 236000 2                  LDQ     67
         1 005427   200017 756100                    STQ     CONTINUING+3,,AUTO
         1 005430   012517 701000 1                  TSX1    EVNT
         1 005431   012433 702000 1                  TSX2    EVNTERR

      773    22611    4                           END;

      774    22612                            %ENDPREDDO;

  22615  1 005432   200014 234100                    SZN     CONTINUING,,AUTO
         1 005433   012432 605000 1                  TPL     s:37359

  22615  1 005434   012644 701000 1                  TSX1    OOPS
         1 005435   000000 011000                    NOP     0
         1 005436   012432 710000 1                  TRA     s:37359

      775    22617    3                   CASE( ELSE);

      776    22618                            %INVALID;

  22619  1 005437   012644 701000 1                  TSX1    OOPS
         1 005440   000000 011000                    NOP     0

      777    22621    3                   END;

  22621  1 005441   012432 710000 1                  TRA     s:37359

      778    22622    2           CASE( %XSP_PEV_STKGIND);                /* TABLE 26 */

      779    22623    3               DO CASE( PCTX.STATE);

  22623  1 005442   000000 236100                    LDQ     0,,PR0
         1 005443   000033 772000                    QRL     27
PL6.E3A0      #001=XSP$MACHINE File=XSP$MACHINE.:XSA1TSI                         WED 10/01/97 12:04 Page:211
         1 005444   000004 136007                    SBLQ    4,DL
         1 005445   000004 116007                    CMPQ    4,DL
         1 005446   005450 602006 1                  TNC     s:22623+6,QL
         1 005447   005470 710000 1                  TRA     s:22639
         1 005450   005454 710000 1                  TRA     s:22628
         1 005451   005454 710000 1                  TRA     s:22628
         1 005452   005454 710000 1                  TRA     s:22628
         1 005453   005461 710000 1                  TRA     s:22632

      780    22624    3                   CASE( %XSP_PST_AC0,

      781    22625    3                         %XSP_PST_AC1,
      782    22626    3                         %XSP_PST_AC2);
      783    22627                            %EVENT( EV=%XSP_PEV_PTKGIND);

  22628  1 005454   000105 236000 2                  LDQ     69
         1 005455   200017 756100                    STQ     CONTINUING+3,,AUTO
         1 005456   012517 701000 1                  TSX1    EVNT
         1 005457   012433 702000 1                  TSX2    EVNTERR
         1 005460   012432 710000 1                  TRA     s:37359

      784    22630    3                   CASE( %XSP_PST_T0);

      785    22631                            %ACTION09;

  22632  1 005461   013050 701000 1                  TSX1    ACTION09
         1 005462   000000 011000                    NOP     0

      786    22634                            %EVENT( EV=%XSP_PEV_PTKGIND);

  22635  1 005463   000105 236000 2                  LDQ     69
         1 005464   200017 756100                    STQ     CONTINUING+3,,AUTO
         1 005465   012517 701000 1                  TSX1    EVNT
         1 005466   012433 702000 1                  TSX2    EVNTERR
         1 005467   012432 710000 1                  TRA     s:37359

      787    22637    3                   CASE( ELSE);
PL6.E3A0      #001=XSP$MACHINE File=XSP$MACHINE.:XSA1TSI                         WED 10/01/97 12:04 Page:212

      788    22638                            %INVALID;

  22639  1 005470   012644 701000 1                  TSX1    OOPS
         1 005471   000000 011000                    NOP     0

      789    22641    3                   END;

  22641  1 005472   012432 710000 1                  TRA     s:37359

      790    22642    2           CASE( %XSP_PEV_STKPIND);                /* TABLE 26 */

      791    22643    3               DO CASE( PCTX.STATE);

  22643  1 005473   000000 236100                    LDQ     0,,PR0
         1 005474   000033 772000                    QRL     27
         1 005475   000004 136007                    SBLQ    4,DL
         1 005476   000004 116007                    CMPQ    4,DL
         1 005477   005501 602006 1                  TNC     s:22643+6,QL
         1 005500   005603 710000 1                  TRA     s:22977
         1 005501   005505 710000 1                  TRA     s:22653
         1 005502   005531 710000 1                  TRA     s:22763
         1 005503   005531 710000 1                  TRA     s:22763
         1 005504   005555 710000 1                  TRA     s:22872

      792    22644    3                   CASE( %XSP_PST_AC0);

      793    22645                            %IFPREDDO( P="05");

  22653  1 005505   400000 236003                    LDQ     -131072,DU
         1 005506   200014 756100                    STQ     CONTINUING,,AUTO

  22713  1 005507   200013 236100                    LDQ     PINV,,AUTO
         1 005510   010000 316003                    CANQ    4096,DU
         1 005511   005514 600000 1                  TZE     s:22723

  22713  1 005512   013347 701000 1                  TSX1    PRED05
PL6.E3A0      #001=XSP$MACHINE File=XSP$MACHINE.:XSA1TSI                         WED 10/01/97 12:04 Page:213
         1 005513   000000 011000                    NOP     0

  22723  1 005514   200012 236100                    LDQ     PRED,,AUTO
         1 005515   010000 316003                    CANQ    4096,DU
         1 005516   005524 600000 1                  TZE     s:22751

  22742  1 005517   200014 450100                    STZ     CONTINUING,,AUTO

      794    22744                                %EVENT( EV=%XSP_PEV_PTKPIND);

  22745  1 005520   000107 236000 2                  LDQ     71
         1 005521   200017 756100                    STQ     CONTINUING+3,,AUTO
         1 005522   012517 701000 1                  TSX1    EVNT
         1 005523   012433 702000 1                  TSX2    EVNTERR

      795    22747    4                           END;

      796    22748                            %ENDPREDDO;

  22751  1 005524   200014 234100                    SZN     CONTINUING,,AUTO
         1 005525   012432 605000 1                  TPL     s:37359

  22751  1 005526   012644 701000 1                  TSX1    OOPS
         1 005527   000000 011000                    NOP     0
         1 005530   012432 710000 1                  TRA     s:37359

      797    22753    3                   CASE( %XSP_PST_AC1,

      798    22754    3                         %XSP_PST_AC2);
      799    22755                            %IFPREDDO( P="06");

  22763  1 005531   400000 236003                    LDQ     -131072,DU
         1 005532   200014 756100                    STQ     CONTINUING,,AUTO

  22823  1 005533   200013 236100                    LDQ     PINV,,AUTO
         1 005534   004000 316003                    CANQ    2048,DU
         1 005535   005540 600000 1                  TZE     s:22833
PL6.E3A0      #001=XSP$MACHINE File=XSP$MACHINE.:XSA1TSI                         WED 10/01/97 12:04 Page:214

  22823  1 005536   013375 701000 1                  TSX1    PRED06
         1 005537   000000 011000                    NOP     0

  22833  1 005540   200012 236100                    LDQ     PRED,,AUTO
         1 005541   004000 316003                    CANQ    2048,DU
         1 005542   005550 600000 1                  TZE     s:22861

  22852  1 005543   200014 450100                    STZ     CONTINUING,,AUTO

      800    22854                                %EVENT( EV=%XSP_PEV_PTKPIND);

  22855  1 005544   000107 236000 2                  LDQ     71
         1 005545   200017 756100                    STQ     CONTINUING+3,,AUTO
         1 005546   012517 701000 1                  TSX1    EVNT
         1 005547   012433 702000 1                  TSX2    EVNTERR

      801    22857    4                           END;

      802    22858                            %ENDPREDDO;

  22861  1 005550   200014 234100                    SZN     CONTINUING,,AUTO
         1 005551   012432 605000 1                  TPL     s:37359

  22861  1 005552   012644 701000 1                  TSX1    OOPS
         1 005553   000000 011000                    NOP     0
         1 005554   012432 710000 1                  TRA     s:37359

      803    22863    3                   CASE( %XSP_PST_T0);

      804    22864                            %IFPREDDO( P="05");

  22872  1 005555   400000 236003                    LDQ     -131072,DU
         1 005556   200014 756100                    STQ     CONTINUING,,AUTO

  22932  1 005557   200013 236100                    LDQ     PINV,,AUTO
         1 005560   010000 316003                    CANQ    4096,DU
PL6.E3A0      #001=XSP$MACHINE File=XSP$MACHINE.:XSA1TSI                         WED 10/01/97 12:04 Page:215
         1 005561   005564 600000 1                  TZE     s:22942

  22932  1 005562   013347 701000 1                  TSX1    PRED05
         1 005563   000000 011000                    NOP     0

  22942  1 005564   200012 236100                    LDQ     PRED,,AUTO
         1 005565   010000 316003                    CANQ    4096,DU
         1 005566   005576 600000 1                  TZE     s:22973

  22961  1 005567   200014 450100                    STZ     CONTINUING,,AUTO

      805    22963                                %ACTION09;

  22964  1 005570   013050 701000 1                  TSX1    ACTION09
         1 005571   000000 011000                    NOP     0

      806    22966                                %EVENT( EV=%XSP_PEV_PTKPIND);

  22967  1 005572   000107 236000 2                  LDQ     71
         1 005573   200017 756100                    STQ     CONTINUING+3,,AUTO
         1 005574   012517 701000 1                  TSX1    EVNT
         1 005575   012433 702000 1                  TSX2    EVNTERR

      807    22969    4                           END;

      808    22970                            %ENDPREDDO;

  22973  1 005576   200014 234100                    SZN     CONTINUING,,AUTO
         1 005577   012432 605000 1                  TPL     s:37359

  22973  1 005600   012644 701000 1                  TSX1    OOPS
         1 005601   000000 011000                    NOP     0
         1 005602   012432 710000 1                  TRA     s:37359

      809    22975    3                   CASE( ELSE);

      810    22976                            %INVALID;
PL6.E3A0      #001=XSP$MACHINE File=XSP$MACHINE.:XSA1TSI                         WED 10/01/97 12:04 Page:216

  22977  1 005603   012644 701000 1                  TSX1    OOPS
         1 005604   000000 011000                    NOP     0

      811    22979    3                   END;

  22979  1 005605   012432 710000 1                  TRA     s:37359

      812    22980    2           CASE( %XSP_PEV_SUERIND);                /* TABLE 28 */

      813    22981    3               DO CASE( PCTX.STATE);

  22981  1 005606   000000 236100                    LDQ     0,,PR0
         1 005607   000033 772000                    QRL     27
         1 005610   000004 136007                    SBLQ    4,DL
         1 005611   000004 116007                    CMPQ    4,DL
         1 005612   005614 602006 1                  TNC     s:22981+6,QL
         1 005613   005676 710000 1                  TRA     s:23206
         1 005614   005620 710000 1                  TRA     s:22992
         1 005615   005647 710000 1                  TRA     s:23103
         1 005616   005647 710000 1                  TRA     s:23103
         1 005617   005620 710000 1                  TRA     s:22992

      814    22982    3                   CASE( %XSP_PST_AC0,

      815    22983    3                         %XSP_PST_T0);
      816    22984                            %IFPREDDO( P="05");

  22992  1 005620   400000 236003                    LDQ     -131072,DU
         1 005621   200014 756100                    STQ     CONTINUING,,AUTO

  23052  1 005622   200013 236100                    LDQ     PINV,,AUTO
         1 005623   010000 316003                    CANQ    4096,DU
         1 005624   005627 600000 1                  TZE     s:23062

  23052  1 005625   013347 701000 1                  TSX1    PRED05
         1 005626   000000 011000                    NOP     0
PL6.E3A0      #001=XSP$MACHINE File=XSP$MACHINE.:XSA1TSI                         WED 10/01/97 12:04 Page:217

  23062  1 005627   200012 236100                    LDQ     PRED,,AUTO
         1 005630   010000 316003                    CANQ    4096,DU
         1 005631   005642 600000 1                  TZE     s:23091

  23081  1 005632   200014 450100                    STZ     CONTINUING,,AUTO

      817    23083                                %EVENT( EV=%XSP_PEV_PUERIND);

  23084  1 005633   000111 236000 2                  LDQ     73
         1 005634   200017 756100                    STQ     CONTINUING+3,,AUTO
         1 005635   012517 701000 1                  TSX1    EVNT
         1 005636   012433 702000 1                  TSX2    EVNTERR

      818    23086    4                           PCTX.STATE = %XSP_PST_T0;

  23086  1 005637   200010 470500                    LDP0    PCTX$,,AUTO
         1 005640   007000 236003                    LDQ     3584,DU
         1 005641   000000 552140                    STBQ    0,'40'O,PR0

      819    23087    4                           END;

      820    23088                            %ENDPREDDO;

  23091  1 005642   200014 234100                    SZN     CONTINUING,,AUTO
         1 005643   012432 605000 1                  TPL     s:37359

  23091  1 005644   012644 701000 1                  TSX1    OOPS
         1 005645   000000 011000                    NOP     0
         1 005646   012432 710000 1                  TRA     s:37359

      821    23093    3                   CASE( %XSP_PST_AC1,

      822    23094    3                         %XSP_PST_AC2);
      823    23095                            %IFPREDDO( P="06");

  23103  1 005647   400000 236003                    LDQ     -131072,DU
PL6.E3A0      #001=XSP$MACHINE File=XSP$MACHINE.:XSA1TSI                         WED 10/01/97 12:04 Page:218
         1 005650   200014 756100                    STQ     CONTINUING,,AUTO

  23163  1 005651   200013 236100                    LDQ     PINV,,AUTO
         1 005652   004000 316003                    CANQ    2048,DU
         1 005653   005656 600000 1                  TZE     s:23173

  23163  1 005654   013375 701000 1                  TSX1    PRED06
         1 005655   000000 011000                    NOP     0

  23173  1 005656   200012 236100                    LDQ     PRED,,AUTO
         1 005657   004000 316003                    CANQ    2048,DU
         1 005660   005671 600000 1                  TZE     s:23202

  23192  1 005661   200014 450100                    STZ     CONTINUING,,AUTO

      824    23194                                %EVENT( EV=%XSP_PEV_PUERIND);

  23195  1 005662   000111 236000 2                  LDQ     73
         1 005663   200017 756100                    STQ     CONTINUING+3,,AUTO
         1 005664   012517 701000 1                  TSX1    EVNT
         1 005665   012433 702000 1                  TSX2    EVNTERR

      825    23197    4                           PCTX.STATE = %XSP_PST_T0;

  23197  1 005666   200010 470500                    LDP0    PCTX$,,AUTO
         1 005667   007000 236003                    LDQ     3584,DU
         1 005670   000000 552140                    STBQ    0,'40'O,PR0

      826    23198    4                           END;

      827    23199                            %ENDPREDDO;

  23202  1 005671   200014 234100                    SZN     CONTINUING,,AUTO
         1 005672   012432 605000 1                  TPL     s:37359

  23202  1 005673   012644 701000 1                  TSX1    OOPS
         1 005674   000000 011000                    NOP     0
PL6.E3A0      #001=XSP$MACHINE File=XSP$MACHINE.:XSA1TSI                         WED 10/01/97 12:04 Page:219
         1 005675   012432 710000 1                  TRA     s:37359

      828    23204    3                   CASE( ELSE);

      829    23205                            %INVALID;

  23206  1 005676   012644 701000 1                  TSX1    OOPS
         1 005677   000000 011000                    NOP     0

      830    23208    3                   END;

  23208  1 005700   012432 710000 1                  TRA     s:37359

      831    23209    2           CASE( %XSP_PEV_PACDREQ);                /* TABLE 28 */

      832    23210    3               DO CASE( PCTX.STATE);

  23210  1 005701   000000 236100                    LDQ     0,,PR0
         1 005702   000033 772000                    QRL     27
         1 005703   000004 136007                    SBLQ    4,DL
         1 005704   000004 116007                    CMPQ    4,DL
         1 005705   005707 602006 1                  TNC     s:23210+6,QL
         1 005706   005723 710000 1                  TRA     s:23221
         1 005707   005713 710000 1                  TRA     s:23216
         1 005710   005713 710000 1                  TRA     s:23216
         1 005711   005713 710000 1                  TRA     s:23216
         1 005712   005713 710000 1                  TRA     s:23216

      833    23211    3                   CASE( %XSP_PST_AC0,

      834    23212    3                         %XSP_PST_AC1,
      835    23213    3                         %XSP_PST_AC2,
      836    23214    3                         %XSP_PST_T0);
      837    23215                            %EVENT( EV=%XSP_PEV_SACDREQ);

  23216  1 005713   000113 236000 2                  LDQ     75
         1 005714   200017 756100                    STQ     CONTINUING+3,,AUTO
PL6.E3A0      #001=XSP$MACHINE File=XSP$MACHINE.:XSA1TSI                         WED 10/01/97 12:04 Page:220
         1 005715   012517 701000 1                  TSX1    EVNT
         1 005716   012433 702000 1                  TSX2    EVNTERR

      838    23218    3                       PCTX.STATE = %XSP_PST_T0;

  23218  1 005717   200010 470500                    LDP0    PCTX$,,AUTO
         1 005720   007000 236003                    LDQ     3584,DU
         1 005721   000000 552140                    STBQ    0,'40'O,PR0
         1 005722   012432 710000 1                  TRA     s:37359

      839    23219    3                   CASE( ELSE);

      840    23220                            %INVALID;

  23221  1 005723   012644 701000 1                  TSX1    OOPS
         1 005724   000000 011000                    NOP     0

      841    23223    3                   END;

  23223  1 005725   012432 710000 1                  TRA     s:37359

      842    23224    2           CASE( %XSP_PEV_PACDRSP);                /* TABLE 28 */

      843    23225    3               IF PCTX.STATE = %XSP_PST_T0 THEN DO;

  23225  1 005726   000000 236100                    LDQ     0,,PR0
         1 005727   777000 376003                    ANQ     -512,DU
         1 005730   007000 116003                    CMPQ    3584,DU
         1 005731   005743 601000 1                  TNZ     s:23238

      844    23226                        %ACTION14;

  23227  1 005732   013103 701000 1                  TSX1    ACTION14
         1 005733   000000 011000                    NOP     0

      845    23229                        %ACTION19;

PL6.E3A0      #001=XSP$MACHINE File=XSP$MACHINE.:XSA1TSI                         WED 10/01/97 12:04 Page:221
  23230  1 005734   013134 701000 1                  TSX1    ACTION19
         1 005735   000000 011000                    NOP     0

      846    23232                        %EVENT( EV=%XSP_PEV_SACDRSP);

  23233  1 005736   000115 236000 2                  LDQ     77
         1 005737   200017 756100                    STQ     CONTINUING+3,,AUTO
         1 005740   012517 701000 1                  TSX1    EVNT
         1 005741   012433 702000 1                  TSX2    EVNTERR

      847    23235    3                   END;

  23235  1 005742   012432 710000 1                  TRA     s:37359

      848    23236    2               ELSE
      849    23237                        %INVALID;

  23238  1 005743   012644 701000 1                  TSX1    OOPS
         1 005744   000000 011000                    NOP     0
         1 005745   012432 710000 1                  TRA     s:37359

      850    23240    2           CASE( %XSP_PEV_PACEREQ);                /* TABLE 28 */

      851    23241    3               DO CASE( PCTX.STATE);

  23241  1 005746   000000 236100                    LDQ     0,,PR0
         1 005747   000033 772000                    QRL     27
         1 005750   000004 136007                    SBLQ    4,DL
         1 005751   000004 116007                    CMPQ    4,DL
         1 005752   005754 602006 1                  TNC     s:23241+6,QL
         1 005753   006040 710000 1                  TRA     s:23572
         1 005754   005760 710000 1                  TRA     s:23252
         1 005755   006014 710000 1                  TRA     s:23470
         1 005756   005760 710000 1                  TRA     s:23252
         1 005757   006014 710000 1                  TRA     s:23470

      852    23242    3                   CASE( %XSP_PST_AC0,
PL6.E3A0      #001=XSP$MACHINE File=XSP$MACHINE.:XSA1TSI                         WED 10/01/97 12:04 Page:222

      853    23243    3                         %XSP_PST_AC2);
      854    23244                            %IFPREDDO( P="-17&07");

  23252  1 005760   400000 236003                    LDQ     -131072,DU
         1 005761   200014 756100                    STQ     CONTINUING,,AUTO

  23316  1 005762   200013 236100                    LDQ     PINV,,AUTO
         1 005763   000001 316003                    CANQ    1,DU
         1 005764   005767 600000 1                  TZE     s:23325

  23316  1 005765   013475 701000 1                  TSX1    PRED17
         1 005766   000000 011000                    NOP     0

  23325  1 005767   200012 236100                    LDQ     PRED,,AUTO
         1 005770   000001 316003                    CANQ    1,DU
         1 005771   006007 601000 1                  TNZ     s:23458

  23400  1 005772   200013 236100                    LDQ     PINV,,AUTO
         1 005773   002000 316003                    CANQ    1024,DU
         1 005774   005777 600000 1                  TZE     s:23410

  23400  1 005775   013401 701000 1                  TSX1    PRED07
         1 005776   000000 011000                    NOP     0

  23410  1 005777   200012 236100                    LDQ     PRED,,AUTO
         1 006000   002000 316003                    CANQ    1024,DU
         1 006001   006007 600000 1                  TZE     s:23458

  23449  1 006002   200014 450100                    STZ     CONTINUING,,AUTO

      855    23451                                %EVENT( EV=%XSP_PEV_SACEREQ);

  23452  1 006003   000117 236000 2                  LDQ     79
         1 006004   200017 756100                    STQ     CONTINUING+3,,AUTO
         1 006005   012517 701000 1                  TSX1    EVNT
         1 006006   012433 702000 1                  TSX2    EVNTERR
PL6.E3A0      #001=XSP$MACHINE File=XSP$MACHINE.:XSA1TSI                         WED 10/01/97 12:04 Page:223

      856    23454    4                           END;

      857    23455                            %ENDPREDDO;

  23458  1 006007   200014 234100                    SZN     CONTINUING,,AUTO
         1 006010   012432 605000 1                  TPL     s:37359

  23458  1 006011   012644 701000 1                  TSX1    OOPS
         1 006012   000000 011000                    NOP     0
         1 006013   012432 710000 1                  TRA     s:37359

      858    23460    3                   CASE( %XSP_PST_AC1,

      859    23461    3                         %XSP_PST_T0);
      860    23462                            %IFPREDDO( P="05");

  23470  1 006014   400000 236003                    LDQ     -131072,DU
         1 006015   200014 756100                    STQ     CONTINUING,,AUTO

  23530  1 006016   200013 236100                    LDQ     PINV,,AUTO
         1 006017   010000 316003                    CANQ    4096,DU
         1 006020   006023 600000 1                  TZE     s:23540

  23530  1 006021   013347 701000 1                  TSX1    PRED05
         1 006022   000000 011000                    NOP     0

  23540  1 006023   200012 236100                    LDQ     PRED,,AUTO
         1 006024   010000 316003                    CANQ    4096,DU
         1 006025   006033 600000 1                  TZE     s:23568

  23559  1 006026   200014 450100                    STZ     CONTINUING,,AUTO

      861    23561                                %EVENT( EV=%XSP_PEV_SACEREQ);

  23562  1 006027   000117 236000 2                  LDQ     79
         1 006030   200017 756100                    STQ     CONTINUING+3,,AUTO
PL6.E3A0      #001=XSP$MACHINE File=XSP$MACHINE.:XSA1TSI                         WED 10/01/97 12:04 Page:224
         1 006031   012517 701000 1                  TSX1    EVNT
         1 006032   012433 702000 1                  TSX2    EVNTERR

      862    23564    4                           END;

      863    23565                            %ENDPREDDO;

  23568  1 006033   200014 234100                    SZN     CONTINUING,,AUTO
         1 006034   012432 605000 1                  TPL     s:37359

  23568  1 006035   012644 701000 1                  TSX1    OOPS
         1 006036   000000 011000                    NOP     0
         1 006037   012432 710000 1                  TRA     s:37359

      864    23570    3                   CASE( ELSE);

      865    23571                            %INVALID;

  23572  1 006040   012644 701000 1                  TSX1    OOPS
         1 006041   000000 011000                    NOP     0

      866    23574    3                   END;

  23574  1 006042   012432 710000 1                  TRA     s:37359

      867    23575    2           CASE( %XSP_PEV_PACERSP);                /* TABLE 28 */

      868    23576    3               DO CASE( PCTX.STATE);

  23576  1 006043   000000 236100                    LDQ     0,,PR0
         1 006044   000033 772000                    QRL     27
         1 006045   000004 136007                    SBLQ    4,DL
         1 006046   000004 116007                    CMPQ    4,DL
         1 006047   006051 602006 1                  TNC     s:23576+6,QL
         1 006050   006225 710000 1                  TRA     s:24243
         1 006051   006055 710000 1                  TRA     s:23586
         1 006052   006105 710000 1                  TRA     s:23701
PL6.E3A0      #001=XSP$MACHINE File=XSP$MACHINE.:XSA1TSI                         WED 10/01/97 12:04 Page:225
         1 006053   006141 710000 1                  TRA     s:23918
         1 006054   006175 710000 1                  TRA     s:24135

      869    23577    3                   CASE( %XSP_PST_AC0);

      870    23578                            %IFPREDDO( P="07");

  23586  1 006055   400000 236003                    LDQ     -131072,DU
         1 006056   200014 756100                    STQ     CONTINUING,,AUTO

  23646  1 006057   200013 236100                    LDQ     PINV,,AUTO
         1 006060   002000 316003                    CANQ    1024,DU
         1 006061   006064 600000 1                  TZE     s:23656

  23646  1 006062   013401 701000 1                  TSX1    PRED07
         1 006063   000000 011000                    NOP     0

  23656  1 006064   200012 236100                    LDQ     PRED,,AUTO
         1 006065   002000 316003                    CANQ    1024,DU
         1 006066   006100 600000 1                  TZE     s:23690

  23675  1 006067   200014 450100                    STZ     CONTINUING,,AUTO

      871    23677                                %ACTION14;

  23678  1 006070   013103 701000 1                  TSX1    ACTION14
         1 006071   000000 011000                    NOP     0

      872    23680                                %ACTION15;

  23681  1 006072   013105 701000 1                  TSX1    ACTION15
         1 006073   000000 011000                    NOP     0

      873    23683                                %EVENT( EV=%XSP_PEV_SACERSP);

  23684  1 006074   000121 236000 2                  LDQ     81
         1 006075   200017 756100                    STQ     CONTINUING+3,,AUTO
PL6.E3A0      #001=XSP$MACHINE File=XSP$MACHINE.:XSA1TSI                         WED 10/01/97 12:04 Page:226
         1 006076   012517 701000 1                  TSX1    EVNT
         1 006077   012433 702000 1                  TSX2    EVNTERR

      874    23686    4                           END;

      875    23687                            %ENDPREDDO;

  23690  1 006100   200014 234100                    SZN     CONTINUING,,AUTO
         1 006101   012432 605000 1                  TPL     s:37359

  23690  1 006102   012644 701000 1                  TSX1    OOPS
         1 006103   000000 011000                    NOP     0
         1 006104   012432 710000 1                  TRA     s:37359

      876    23692    3                   CASE( %XSP_PST_AC1);

      877    23693                            %IFPREDDO( P="-17&05");

  23701  1 006105   400000 236003                    LDQ     -131072,DU
         1 006106   200014 756100                    STQ     CONTINUING,,AUTO

  23765  1 006107   200013 236100                    LDQ     PINV,,AUTO
         1 006110   000001 316003                    CANQ    1,DU
         1 006111   006114 600000 1                  TZE     s:23774

  23765  1 006112   013475 701000 1                  TSX1    PRED17
         1 006113   000000 011000                    NOP     0

  23774  1 006114   200012 236100                    LDQ     PRED,,AUTO
         1 006115   000001 316003                    CANQ    1,DU
         1 006116   006134 601000 1                  TNZ     s:23907

  23849  1 006117   200013 236100                    LDQ     PINV,,AUTO
         1 006120   010000 316003                    CANQ    4096,DU
         1 006121   006124 600000 1                  TZE     s:23859

  23849  1 006122   013347 701000 1                  TSX1    PRED05
PL6.E3A0      #001=XSP$MACHINE File=XSP$MACHINE.:XSA1TSI                         WED 10/01/97 12:04 Page:227
         1 006123   000000 011000                    NOP     0

  23859  1 006124   200012 236100                    LDQ     PRED,,AUTO
         1 006125   010000 316003                    CANQ    4096,DU
         1 006126   006134 600000 1                  TZE     s:23907

  23898  1 006127   200014 450100                    STZ     CONTINUING,,AUTO

      878    23900                                %EVENT( EV=%XSP_PEV_SACERSP);

  23901  1 006130   000121 236000 2                  LDQ     81
         1 006131   200017 756100                    STQ     CONTINUING+3,,AUTO
         1 006132   012517 701000 1                  TSX1    EVNT
         1 006133   012433 702000 1                  TSX2    EVNTERR

      879    23903    4                           END;

      880    23904                            %ENDPREDDO;

  23907  1 006134   200014 234100                    SZN     CONTINUING,,AUTO
         1 006135   012432 605000 1                  TPL     s:37359

  23907  1 006136   012644 701000 1                  TSX1    OOPS
         1 006137   000000 011000                    NOP     0
         1 006140   012432 710000 1                  TRA     s:37359

      881    23909    3                   CASE( %XSP_PST_AC2);

      882    23910                            %IFPREDDO( P="-17&07");

  23918  1 006141   400000 236003                    LDQ     -131072,DU
         1 006142   200014 756100                    STQ     CONTINUING,,AUTO

  23982  1 006143   200013 236100                    LDQ     PINV,,AUTO
         1 006144   000001 316003                    CANQ    1,DU
         1 006145   006150 600000 1                  TZE     s:23991

PL6.E3A0      #001=XSP$MACHINE File=XSP$MACHINE.:XSA1TSI                         WED 10/01/97 12:04 Page:228
  23982  1 006146   013475 701000 1                  TSX1    PRED17
         1 006147   000000 011000                    NOP     0

  23991  1 006150   200012 236100                    LDQ     PRED,,AUTO
         1 006151   000001 316003                    CANQ    1,DU
         1 006152   006170 601000 1                  TNZ     s:24124

  24066  1 006153   200013 236100                    LDQ     PINV,,AUTO
         1 006154   002000 316003                    CANQ    1024,DU
         1 006155   006160 600000 1                  TZE     s:24076

  24066  1 006156   013401 701000 1                  TSX1    PRED07
         1 006157   000000 011000                    NOP     0

  24076  1 006160   200012 236100                    LDQ     PRED,,AUTO
         1 006161   002000 316003                    CANQ    1024,DU
         1 006162   006170 600000 1                  TZE     s:24124

  24115  1 006163   200014 450100                    STZ     CONTINUING,,AUTO

      883    24117                                %EVENT( EV=%XSP_PEV_SACERSP);

  24118  1 006164   000121 236000 2                  LDQ     81
         1 006165   200017 756100                    STQ     CONTINUING+3,,AUTO
         1 006166   012517 701000 1                  TSX1    EVNT
         1 006167   012433 702000 1                  TSX2    EVNTERR

      884    24120    4                           END;

      885    24121                            %ENDPREDDO;

  24124  1 006170   200014 234100                    SZN     CONTINUING,,AUTO
         1 006171   012432 605000 1                  TPL     s:37359

  24124  1 006172   012644 701000 1                  TSX1    OOPS
         1 006173   000000 011000                    NOP     0
         1 006174   012432 710000 1                  TRA     s:37359
PL6.E3A0      #001=XSP$MACHINE File=XSP$MACHINE.:XSA1TSI                         WED 10/01/97 12:04 Page:229

      886    24126    3                   CASE( %XSP_PST_T0);

      887    24127                            %IFPREDDO( P="05");

  24135  1 006175   400000 236003                    LDQ     -131072,DU
         1 006176   200014 756100                    STQ     CONTINUING,,AUTO

  24195  1 006177   200013 236100                    LDQ     PINV,,AUTO
         1 006200   010000 316003                    CANQ    4096,DU
         1 006201   006204 600000 1                  TZE     s:24205

  24195  1 006202   013347 701000 1                  TSX1    PRED05
         1 006203   000000 011000                    NOP     0

  24205  1 006204   200012 236100                    LDQ     PRED,,AUTO
         1 006205   010000 316003                    CANQ    4096,DU
         1 006206   006220 600000 1                  TZE     s:24239

  24224  1 006207   200014 450100                    STZ     CONTINUING,,AUTO

      888    24226                                %ACTION14;

  24227  1 006210   013103 701000 1                  TSX1    ACTION14
         1 006211   000000 011000                    NOP     0

      889    24229                                %ACTION15;

  24230  1 006212   013105 701000 1                  TSX1    ACTION15
         1 006213   000000 011000                    NOP     0

      890    24232                                %EVENT( EV=%XSP_PEV_SACERSP);

  24233  1 006214   000121 236000 2                  LDQ     81
         1 006215   200017 756100                    STQ     CONTINUING+3,,AUTO
         1 006216   012517 701000 1                  TSX1    EVNT
         1 006217   012433 702000 1                  TSX2    EVNTERR
PL6.E3A0      #001=XSP$MACHINE File=XSP$MACHINE.:XSA1TSI                         WED 10/01/97 12:04 Page:230

      891    24235    4                           END;

      892    24236                            %ENDPREDDO;

  24239  1 006220   200014 234100                    SZN     CONTINUING,,AUTO
         1 006221   012432 605000 1                  TPL     s:37359

  24239  1 006222   012644 701000 1                  TSX1    OOPS
         1 006223   000000 011000                    NOP     0
         1 006224   012432 710000 1                  TRA     s:37359

      893    24241    3                   CASE( ELSE);

      894    24242                            %INVALID;

  24243  1 006225   012644 701000 1                  TSX1    OOPS
         1 006226   000000 011000                    NOP     0

      895    24245    3                   END;

  24245  1 006227   012432 710000 1                  TRA     s:37359

      896    24246    2           CASE( %XSP_PEV_PACIREQ);                /* TABLE 28 */

      897    24247    3               DO CASE( PCTX.STATE);

  24247  1 006230   000000 236100                    LDQ     0,,PR0
         1 006231   000033 772000                    QRL     27
         1 006232   000004 136007                    SBLQ    4,DL
         1 006233   000004 116007                    CMPQ    4,DL
         1 006234   006236 602006 1                  TNC     s:24247+6,QL
         1 006235   006252 710000 1                  TRA     s:24258
         1 006236   006242 710000 1                  TRA     s:24253
         1 006237   006242 710000 1                  TRA     s:24253
         1 006240   006242 710000 1                  TRA     s:24253
         1 006241   006242 710000 1                  TRA     s:24253
PL6.E3A0      #001=XSP$MACHINE File=XSP$MACHINE.:XSA1TSI                         WED 10/01/97 12:04 Page:231

      898    24248    3                   CASE( %XSP_PST_AC0,

      899    24249    3                         %XSP_PST_AC1,
      900    24250    3                         %XSP_PST_AC2,
      901    24251    3                         %XSP_PST_T0);
      902    24252                            %EVENT( EV=%XSP_PEV_SACIREQ);

  24253  1 006242   000123 236000 2                  LDQ     83
         1 006243   200017 756100                    STQ     CONTINUING+3,,AUTO
         1 006244   012517 701000 1                  TSX1    EVNT
         1 006245   012433 702000 1                  TSX2    EVNTERR

      903    24255    3                       PCTX.STATE = %XSP_PST_T0;

  24255  1 006246   200010 470500                    LDP0    PCTX$,,AUTO
         1 006247   007000 236003                    LDQ     3584,DU
         1 006250   000000 552140                    STBQ    0,'40'O,PR0
         1 006251   012432 710000 1                  TRA     s:37359

      904    24256    3                   CASE( ELSE);

      905    24257                            %INVALID;

  24258  1 006252   012644 701000 1                  TSX1    OOPS
         1 006253   000000 011000                    NOP     0

      906    24260    3                   END;

  24260  1 006254   012432 710000 1                  TRA     s:37359

      907    24261    2           CASE( %XSP_PEV_PACIRSP);                /* TABLE 28 */

      908    24262    3               IF PCTX.STATE = %XSP_PST_T0 THEN DO;

  24262  1 006255   000000 236100                    LDQ     0,,PR0
         1 006256   777000 376003                    ANQ     -512,DU
PL6.E3A0      #001=XSP$MACHINE File=XSP$MACHINE.:XSA1TSI                         WED 10/01/97 12:04 Page:232
         1 006257   007000 116003                    CMPQ    3584,DU
         1 006260   006270 601000 1                  TNZ     s:24272

      909    24263                        %ACTION14;

  24264  1 006261   013103 701000 1                  TSX1    ACTION14
         1 006262   000000 011000                    NOP     0

      910    24266                        %EVENT( EV=%XSP_PEV_SACIRSP);

  24267  1 006263   000125 236000 2                  LDQ     85
         1 006264   200017 756100                    STQ     CONTINUING+3,,AUTO
         1 006265   012517 701000 1                  TSX1    EVNT
         1 006266   012433 702000 1                  TSX2    EVNTERR

      911    24269    3                   END;

  24269  1 006267   012432 710000 1                  TRA     s:37359

      912    24270    2               ELSE
      913    24271                        %INVALID;

  24272  1 006270   012644 701000 1                  TSX1    OOPS
         1 006271   000000 011000                    NOP     0
         1 006272   012432 710000 1                  TRA     s:37359

      914    24274    2           CASE( %XSP_PEV_PACRREQ);                /* TABLE 28 */

      915    24275    3               DO CASE( PCTX.STATE);

  24275  1 006273   000000 236100                    LDQ     0,,PR0
         1 006274   000033 772000                    QRL     27
         1 006275   000004 136007                    SBLQ    4,DL
         1 006276   000004 116007                    CMPQ    4,DL
         1 006277   006301 602006 1                  TNC     s:24275+6,QL
         1 006300   006466 710000 1                  TRA     s:25339
         1 006301   006305 710000 1                  TRA     s:24286
PL6.E3A0      #001=XSP$MACHINE File=XSP$MACHINE.:XSA1TSI                         WED 10/01/97 12:04 Page:233
         1 006302   006341 710000 1                  TRA     s:24504
         1 006303   006305 710000 1                  TRA     s:24286
         1 006304   006341 710000 1                  TRA     s:24504

      916    24276    3                   CASE( %XSP_PST_AC0,

      917    24277    3                         %XSP_PST_AC2);
      918    24278                            %IFPREDDO( P="-17&07");

  24286  1 006305   400000 236003                    LDQ     -131072,DU
         1 006306   200014 756100                    STQ     CONTINUING,,AUTO

  24350  1 006307   200013 236100                    LDQ     PINV,,AUTO
         1 006310   000001 316003                    CANQ    1,DU
         1 006311   006314 600000 1                  TZE     s:24359

  24350  1 006312   013475 701000 1                  TSX1    PRED17
         1 006313   000000 011000                    NOP     0

  24359  1 006314   200012 236100                    LDQ     PRED,,AUTO
         1 006315   000001 316003                    CANQ    1,DU
         1 006316   006334 601000 1                  TNZ     s:24492

  24434  1 006317   200013 236100                    LDQ     PINV,,AUTO
         1 006320   002000 316003                    CANQ    1024,DU
         1 006321   006324 600000 1                  TZE     s:24444

  24434  1 006322   013401 701000 1                  TSX1    PRED07
         1 006323   000000 011000                    NOP     0

  24444  1 006324   200012 236100                    LDQ     PRED,,AUTO
         1 006325   002000 316003                    CANQ    1024,DU
         1 006326   006334 600000 1                  TZE     s:24492

  24483  1 006327   200014 450100                    STZ     CONTINUING,,AUTO

      919    24485                                %EVENT( EV=%XSP_PEV_SACRREQ);
PL6.E3A0      #001=XSP$MACHINE File=XSP$MACHINE.:XSA1TSI                         WED 10/01/97 12:04 Page:234

  24486  1 006330   000127 236000 2                  LDQ     87
         1 006331   200017 756100                    STQ     CONTINUING+3,,AUTO
         1 006332   012517 701000 1                  TSX1    EVNT
         1 006333   012433 702000 1                  TSX2    EVNTERR

      920    24488    4                           END;

      921    24489                            %ENDPREDDO;

  24492  1 006334   200014 234100                    SZN     CONTINUING,,AUTO
         1 006335   012432 605000 1                  TPL     s:37359

  24492  1 006336   012644 701000 1                  TSX1    OOPS
         1 006337   000000 011000                    NOP     0
         1 006340   012432 710000 1                  TRA     s:37359

      922    24494    3                   CASE( %XSP_PST_AC1,

      923    24495    3                         %XSP_PST_T0);
      924    24496                            %IFPREDDO( P="(-17|27|-28)&05");

  24504  1 006341   400000 236003                    LDQ     -131072,DU
         1 006342   200014 756100                    STQ     CONTINUING,,AUTO

  24589  1 006343   200013 236100                    LDQ     PINV,,AUTO
         1 006344   000001 316003                    CANQ    1,DU
         1 006345   006350 600000 1                  TZE     s:24651

  24589  1 006346   013475 701000 1                  TSX1    PRED17
         1 006347   000000 011000                    NOP     0

  24651  1 006350   200013 236100                    LDQ     PINV,,AUTO
         1 006351   000400 316007                    CANQ    256,DL
         1 006352   006355 600000 1                  TZE     s:24734

  24651  1 006353   013603 701000 1                  TSX1    PRED27
PL6.E3A0      #001=XSP$MACHINE File=XSP$MACHINE.:XSA1TSI                         WED 10/01/97 12:04 Page:235
         1 006354   000000 011000                    NOP     0

  24734  1 006355   200013 236100                    LDQ     PINV,,AUTO
         1 006356   000200 316007                    CANQ    128,DL
         1 006357   006362 600000 1                  TZE     s:24744

  24734  1 006360   013607 701000 1                  TSX1    PRED28
         1 006361   000000 011000                    NOP     0

  24744  1 006362   200012 236100                    LDQ     PRED,,AUTO
         1 006363   000001 316003                    CANQ    1,DU
         1 006364   006371 600000 1                  TZE     s:24847
         1 006365   000400 316007                    CANQ    256,DL
         1 006366   006371 601000 1                  TNZ     s:24847
         1 006367   000200 316007                    CANQ    128,DL
         1 006370   006406 601000 1                  TNZ     s:24954

  24847  1 006371   200013 236100                    LDQ     PINV,,AUTO
         1 006372   010000 316003                    CANQ    4096,DU
         1 006373   006376 600000 1                  TZE     s:24857

  24847  1 006374   013347 701000 1                  TSX1    PRED05
         1 006375   000000 011000                    NOP     0

  24857  1 006376   200012 236100                    LDQ     PRED,,AUTO
         1 006377   010000 316003                    CANQ    4096,DU
         1 006400   006406 600000 1                  TZE     s:24954

  24941  1 006401   200014 450100                    STZ     CONTINUING,,AUTO

      925    24943                                %EVENT( EV=%XSP_PEV_SACRREQ);

  24944  1 006402   000127 236000 2                  LDQ     87
         1 006403   200017 756100                    STQ     CONTINUING+3,,AUTO
         1 006404   012517 701000 1                  TSX1    EVNT
         1 006405   012433 702000 1                  TSX2    EVNTERR

PL6.E3A0      #001=XSP$MACHINE File=XSP$MACHINE.:XSA1TSI                         WED 10/01/97 12:04 Page:236
      926    24946    4                           END;

      927    24947                            %ELSEPREDDO( P="-27&28&17&16");

  24954  1 006406   200014 234100                    SZN     CONTINUING,,AUTO
         1 006407   006461 605000 1                  TPL     s:25335

  25017  1 006410   200013 236100                    LDQ     PINV,,AUTO
         1 006411   000400 316007                    CANQ    256,DL
         1 006412   006415 600000 1                  TZE     s:25026

  25017  1 006413   013603 701000 1                  TSX1    PRED27
         1 006414   000000 011000                    NOP     0

  25026  1 006415   200012 236100                    LDQ     PRED,,AUTO
         1 006416   000400 316007                    CANQ    256,DL
         1 006417   006461 601000 1                  TNZ     s:25335

  25087  1 006420   200013 236100                    LDQ     PINV,,AUTO
         1 006421   000200 316007                    CANQ    128,DL
         1 006422   006425 600000 1                  TZE     s:25096

  25087  1 006423   013607 701000 1                  TSX1    PRED28
         1 006424   000000 011000                    NOP     0

  25096  1 006425   200012 236100                    LDQ     PRED,,AUTO
         1 006426   000200 316007                    CANQ    128,DL
         1 006427   006461 600000 1                  TZE     s:25335

  25157  1 006430   200013 236100                    LDQ     PINV,,AUTO
         1 006431   000001 316003                    CANQ    1,DU
         1 006432   006435 600000 1                  TZE     s:25166

  25157  1 006433   013475 701000 1                  TSX1    PRED17
         1 006434   000000 011000                    NOP     0

  25166  1 006435   200012 236100                    LDQ     PRED,,AUTO
PL6.E3A0      #001=XSP$MACHINE File=XSP$MACHINE.:XSA1TSI                         WED 10/01/97 12:04 Page:237
         1 006436   000001 316003                    CANQ    1,DU
         1 006437   006461 600000 1                  TZE     s:25335

  25241  1 006440   200013 236100                    LDQ     PINV,,AUTO
         1 006441   000002 316003                    CANQ    2,DU
         1 006442   006445 600000 1                  TZE     s:25251

  25241  1 006443   013471 701000 1                  TSX1    PRED16
         1 006444   000000 011000                    NOP     0

  25251  1 006445   200012 236100                    LDQ     PRED,,AUTO
         1 006446   000002 316003                    CANQ    2,DU
         1 006447   006461 600000 1                  TZE     s:25335

  25320  1 006450   200014 450100                    STZ     CONTINUING,,AUTO

      928    25322                                %ACTION17;

  25323  1 006451   013115 701000 1                  TSX1    ACTION17
         1 006452   000000 011000                    NOP     0

      929    25325                                %ACTION16;

  25326  1 006453   013113 701000 1                  TSX1    ACTION16
         1 006454   000000 011000                    NOP     0

      930    25328                                %EVENT( EV=%XSP_PEV_SACRREQ);

  25329  1 006455   000127 236000 2                  LDQ     87
         1 006456   200017 756100                    STQ     CONTINUING+3,,AUTO
         1 006457   012517 701000 1                  TSX1    EVNT
         1 006460   012433 702000 1                  TSX2    EVNTERR

      931    25331    4                           END;

      932    25332                            %ENDPREDDO;

PL6.E3A0      #001=XSP$MACHINE File=XSP$MACHINE.:XSA1TSI                         WED 10/01/97 12:04 Page:238
  25335  1 006461   200014 234100                    SZN     CONTINUING,,AUTO
         1 006462   012432 605000 1                  TPL     s:37359

  25335  1 006463   012644 701000 1                  TSX1    OOPS
         1 006464   000000 011000                    NOP     0
         1 006465   012432 710000 1                  TRA     s:37359

      933    25337    3                   CASE( ELSE);

      934    25338                            %INVALID;

  25339  1 006466   012644 701000 1                  TSX1    OOPS
         1 006467   000000 011000                    NOP     0

      935    25341    3                   END;

  25341  1 006470   012432 710000 1                  TRA     s:37359

      936    25342    2           CASE( %XSP_PEV_PACSREQ);                /* TABLE 28 */

      937    25343    3               DO CASE( PCTX.STATE);

  25343  1 006471   000000 236100                    LDQ     0,,PR0
         1 006472   000033 772000                    QRL     27
         1 006473   000004 136007                    SBLQ    4,DL
         1 006474   000004 116007                    CMPQ    4,DL
         1 006475   006477 602006 1                  TNC     s:25343+6,QL
         1 006476   006565 710000 1                  TRA     s:25677
         1 006477   006503 710000 1                  TRA     s:25354
         1 006500   006537 710000 1                  TRA     s:25572
         1 006501   006503 710000 1                  TRA     s:25354
         1 006502   006537 710000 1                  TRA     s:25572

      938    25344    3                   CASE( %XSP_PST_AC0,

      939    25345    3                         %XSP_PST_AC2);
      940    25346                            %IFPREDDO( P="-17&07");
PL6.E3A0      #001=XSP$MACHINE File=XSP$MACHINE.:XSA1TSI                         WED 10/01/97 12:04 Page:239

  25354  1 006503   400000 236003                    LDQ     -131072,DU
         1 006504   200014 756100                    STQ     CONTINUING,,AUTO

  25418  1 006505   200013 236100                    LDQ     PINV,,AUTO
         1 006506   000001 316003                    CANQ    1,DU
         1 006507   006512 600000 1                  TZE     s:25427

  25418  1 006510   013475 701000 1                  TSX1    PRED17
         1 006511   000000 011000                    NOP     0

  25427  1 006512   200012 236100                    LDQ     PRED,,AUTO
         1 006513   000001 316003                    CANQ    1,DU
         1 006514   006532 601000 1                  TNZ     s:25560

  25502  1 006515   200013 236100                    LDQ     PINV,,AUTO
         1 006516   002000 316003                    CANQ    1024,DU
         1 006517   006522 600000 1                  TZE     s:25512

  25502  1 006520   013401 701000 1                  TSX1    PRED07
         1 006521   000000 011000                    NOP     0

  25512  1 006522   200012 236100                    LDQ     PRED,,AUTO
         1 006523   002000 316003                    CANQ    1024,DU
         1 006524   006532 600000 1                  TZE     s:25560

  25551  1 006525   200014 450100                    STZ     CONTINUING,,AUTO

      941    25553                                %EVENT( EV=%XSP_PEV_SACSREQ);

  25554  1 006526   000131 236000 2                  LDQ     89
         1 006527   200017 756100                    STQ     CONTINUING+3,,AUTO
         1 006530   012517 701000 1                  TSX1    EVNT
         1 006531   012433 702000 1                  TSX2    EVNTERR

      942    25556    4                           END;

PL6.E3A0      #001=XSP$MACHINE File=XSP$MACHINE.:XSA1TSI                         WED 10/01/97 12:04 Page:240
      943    25557                            %ENDPREDDO;

  25560  1 006532   200014 234100                    SZN     CONTINUING,,AUTO
         1 006533   012432 605000 1                  TPL     s:37359

  25560  1 006534   012644 701000 1                  TSX1    OOPS
         1 006535   000000 011000                    NOP     0
         1 006536   012432 710000 1                  TRA     s:37359

      944    25562    3                   CASE( %XSP_PST_AC1,

      945    25563    3                         %XSP_PST_T0);
      946    25564                            %IFPREDDO( P="05");

  25572  1 006537   400000 236003                    LDQ     -131072,DU
         1 006540   200014 756100                    STQ     CONTINUING,,AUTO

  25632  1 006541   200013 236100                    LDQ     PINV,,AUTO
         1 006542   010000 316003                    CANQ    4096,DU
         1 006543   006546 600000 1                  TZE     s:25642

  25632  1 006544   013347 701000 1                  TSX1    PRED05
         1 006545   000000 011000                    NOP     0

  25642  1 006546   200012 236100                    LDQ     PRED,,AUTO
         1 006547   010000 316003                    CANQ    4096,DU
         1 006550   006560 600000 1                  TZE     s:25673

  25661  1 006551   200014 450100                    STZ     CONTINUING,,AUTO

      947    25663                                %ACTION17;

  25664  1 006552   013115 701000 1                  TSX1    ACTION17
         1 006553   000000 011000                    NOP     0

      948    25666                                %EVENT( EV=%XSP_PEV_SACSREQ);

PL6.E3A0      #001=XSP$MACHINE File=XSP$MACHINE.:XSA1TSI                         WED 10/01/97 12:04 Page:241
  25667  1 006554   000131 236000 2                  LDQ     89
         1 006555   200017 756100                    STQ     CONTINUING+3,,AUTO
         1 006556   012517 701000 1                  TSX1    EVNT
         1 006557   012433 702000 1                  TSX2    EVNTERR

      949    25669    4                           END;

      950    25670                            %ENDPREDDO;

  25673  1 006560   200014 234100                    SZN     CONTINUING,,AUTO
         1 006561   012432 605000 1                  TPL     s:37359

  25673  1 006562   012644 701000 1                  TSX1    OOPS
         1 006563   000000 011000                    NOP     0
         1 006564   012432 710000 1                  TRA     s:37359

      951    25675    3                   CASE( ELSE);

      952    25676                            %INVALID;

  25677  1 006565   012644 701000 1                  TSX1    OOPS
         1 006566   000000 011000                    NOP     0

      953    25679    3                   END;

  25679  1 006567   012432 710000 1                  TRA     s:37359

      954    25680    2           CASE( %XSP_PEV_PALTREQ);                /* TABLE 24 */

      955    25681    3               DO CASE( PCTX.STATE);

  25681  1 006570   000000 236100                    LDQ     0,,PR0
         1 006571   000033 772000                    QRL     27
         1 006572   000005 136007                    SBLQ    5,DL
         1 006573   000003 116007                    CMPQ    3,DL
         1 006574   006576 602006 1                  TNC     s:25681+6,QL
         1 006575   006673 710000 1                  TRA     s:25995
PL6.E3A0      #001=XSP$MACHINE File=XSP$MACHINE.:XSA1TSI                         WED 10/01/97 12:04 Page:242
         1 006576   006601 710000 1                  TRA     s:25691
         1 006577   006673 710000 1                  TRA     s:25995
         1 006600   006632 710000 1                  TRA     s:25804

      956    25682    3                   CASE( %XSP_PST_AC1);

      957    25683                            %IFPREDDO( P="05");

  25691  1 006601   400000 236003                    LDQ     -131072,DU
         1 006602   200014 756100                    STQ     CONTINUING,,AUTO

  25751  1 006603   200013 236100                    LDQ     PINV,,AUTO
         1 006604   010000 316003                    CANQ    4096,DU
         1 006605   006610 600000 1                  TZE     s:25761

  25751  1 006606   013347 701000 1                  TSX1    PRED05
         1 006607   000000 011000                    NOP     0

  25761  1 006610   200012 236100                    LDQ     PRED,,AUTO
         1 006611   010000 316003                    CANQ    4096,DU
         1 006612   006625 600000 1                  TZE     s:25793

  25780  1 006613   200014 450100                    STZ     CONTINUING,,AUTO

      958    25782                                %ACTION04;

  25783  1 006614   012741 701000 1                  TSX1    ACTION04
         1 006615   000000 011000                    NOP     0

      959    25785                                %EVENT( EV=%XSP_PEV_AC);

  25786  1 006616   000133 236000 2                  LDQ     91
         1 006617   200017 756100                    STQ     CONTINUING+3,,AUTO
         1 006620   012517 701000 1                  TSX1    EVNT
         1 006621   012433 702000 1                  TSX2    EVNTERR

      960    25788    4                           PCTX.STATE = %XSP_PST_AC2;
PL6.E3A0      #001=XSP$MACHINE File=XSP$MACHINE.:XSA1TSI                         WED 10/01/97 12:04 Page:243

  25788  1 006622   200010 470500                    LDP0    PCTX$,,AUTO
         1 006623   006000 236003                    LDQ     3072,DU
         1 006624   000000 552140                    STBQ    0,'40'O,PR0

      961    25789    4                           END;

      962    25790                            %ENDPREDDO;

  25793  1 006625   200014 234100                    SZN     CONTINUING,,AUTO
         1 006626   012432 605000 1                  TPL     s:37359

  25793  1 006627   012644 701000 1                  TSX1    OOPS
         1 006630   000000 011000                    NOP     0
         1 006631   012432 710000 1                  TRA     s:37359

      963    25795    3                   CASE( %XSP_PST_T0);

      964    25796                            %IFPREDDO( P="05&11");

  25804  1 006632   400000 236003                    LDQ     -131072,DU
         1 006633   200014 756100                    STQ     CONTINUING,,AUTO

  25850  1 006634   200013 236100                    LDQ     PINV,,AUTO
         1 006635   010000 316003                    CANQ    4096,DU
         1 006636   006641 600000 1                  TZE     s:25859

  25850  1 006637   013347 701000 1                  TSX1    PRED05
         1 006640   000000 011000                    NOP     0

  25859  1 006641   200012 236100                    LDQ     PRED,,AUTO
         1 006642   010000 316003                    CANQ    4096,DU
         1 006643   006666 600000 1                  TZE     s:25991

  25934  1 006644   200013 236100                    LDQ     PINV,,AUTO
         1 006645   000100 316003                    CANQ    64,DU
         1 006646   006651 600000 1                  TZE     s:25944
PL6.E3A0      #001=XSP$MACHINE File=XSP$MACHINE.:XSA1TSI                         WED 10/01/97 12:04 Page:244

  25934  1 006647   013425 701000 1                  TSX1    PRED11
         1 006650   000000 011000                    NOP     0

  25944  1 006651   200012 236100                    LDQ     PRED,,AUTO
         1 006652   000100 316003                    CANQ    64,DU
         1 006653   006666 600000 1                  TZE     s:25991

  25978  1 006654   200014 450100                    STZ     CONTINUING,,AUTO

      965    25980                                %ACTION04;

  25981  1 006655   012741 701000 1                  TSX1    ACTION04
         1 006656   000000 011000                    NOP     0

      966    25983                                %EVENT( EV=%XSP_PEV_AC);

  25984  1 006657   000133 236000 2                  LDQ     91
         1 006660   200017 756100                    STQ     CONTINUING+3,,AUTO
         1 006661   012517 701000 1                  TSX1    EVNT
         1 006662   012433 702000 1                  TSX2    EVNTERR

      967    25986    4                           PCTX.STATE = %XSP_PST_AC0;

  25986  1 006663   200010 470500                    LDP0    PCTX$,,AUTO
         1 006664   004000 236003                    LDQ     2048,DU
         1 006665   000000 552140                    STBQ    0,'40'O,PR0

      968    25987    4                           END;

      969    25988                            %ENDPREDDO;

  25991  1 006666   200014 234100                    SZN     CONTINUING,,AUTO
         1 006667   012432 605000 1                  TPL     s:37359

  25991  1 006670   012644 701000 1                  TSX1    OOPS
         1 006671   000000 011000                    NOP     0
PL6.E3A0      #001=XSP$MACHINE File=XSP$MACHINE.:XSA1TSI                         WED 10/01/97 12:04 Page:245
         1 006672   012432 710000 1                  TRA     s:37359

      970    25993    3                   CASE( ELSE);

      971    25994                            %INVALID;

  25995  1 006673   012644 701000 1                  TSX1    OOPS
         1 006674   000000 011000                    NOP     0

      972    25997    3                   END;

  25997  1 006675   012432 710000 1                  TRA     s:37359

      973    25998    2           CASE( %XSP_PEV_PALTRSP);                /* TABLE 24 */

      974    25999    3               DO CASE( PCTX.STATE);

  25999  1 006676   000000 236100                    LDQ     0,,PR0
         1 006677   000033 772000                    QRL     27
         1 006700   000005 136007                    SBLQ    5,DL
         1 006701   000002 116007                    CMPQ    2,DL
         1 006702   006704 602006 1                  TNC     s:25999+6,QL
         1 006703   006774 710000 1                  TRA     s:26234
         1 006704   006706 710000 1                  TRA     s:26009
         1 006705   006741 710000 1                  TRA     s:26125

      975    26000    3                   CASE( %XSP_PST_AC1);

      976    26001                            %IFPREDDO( P="09");

  26009  1 006706   400000 236003                    LDQ     -131072,DU
         1 006707   200014 756100                    STQ     CONTINUING,,AUTO

  26069  1 006710   200013 236100                    LDQ     PINV,,AUTO
         1 006711   000400 316003                    CANQ    256,DU
         1 006712   006715 600000 1                  TZE     s:26079

PL6.E3A0      #001=XSP$MACHINE File=XSP$MACHINE.:XSA1TSI                         WED 10/01/97 12:04 Page:246
  26069  1 006713   013417 701000 1                  TSX1    PRED09
         1 006714   000000 011000                    NOP     0

  26079  1 006715   200012 236100                    LDQ     PRED,,AUTO
         1 006716   000400 316003                    CANQ    256,DU
         1 006717   006734 600000 1                  TZE     s:26114

  26098  1 006720   200014 450100                    STZ     CONTINUING,,AUTO

      977    26100                                %ACTION06;

  26101  1 006721   012777 701000 1                  TSX1    ACTION06
         1 006722   000000 011000                    NOP     0

      978    26103                                %ACTION11;

  26104  1 006723   013066 701000 1                  TSX1    ACTION11
         1 006724   000000 011000                    NOP     0

      979    26106                                %EVENT( EV=%XSP_PEV_ACA);

  26107  1 006725   000135 236000 2                  LDQ     93
         1 006726   200017 756100                    STQ     CONTINUING+3,,AUTO
         1 006727   012517 701000 1                  TSX1    EVNT
         1 006730   012433 702000 1                  TSX2    EVNTERR

      980    26109    4                           PCTX.STATE = %XSP_PST_T0;

  26109  1 006731   200010 470500                    LDP0    PCTX$,,AUTO
         1 006732   007000 236003                    LDQ     3584,DU
         1 006733   000000 552140                    STBQ    0,'40'O,PR0

      981    26110    4                           END;

      982    26111                            %ENDPREDDO;

  26114  1 006734   200014 234100                    SZN     CONTINUING,,AUTO
PL6.E3A0      #001=XSP$MACHINE File=XSP$MACHINE.:XSA1TSI                         WED 10/01/97 12:04 Page:247
         1 006735   012432 605000 1                  TPL     s:37359

  26114  1 006736   012644 701000 1                  TSX1    OOPS
         1 006737   000000 011000                    NOP     0
         1 006740   012432 710000 1                  TRA     s:37359

      983    26116    3                   CASE( %XSP_PST_AC2);

      984    26117                            %IFPREDDO( P="09");

  26125  1 006741   400000 236003                    LDQ     -131072,DU
         1 006742   200014 756100                    STQ     CONTINUING,,AUTO

  26185  1 006743   200013 236100                    LDQ     PINV,,AUTO
         1 006744   000400 316003                    CANQ    256,DU
         1 006745   006750 600000 1                  TZE     s:26195

  26185  1 006746   013417 701000 1                  TSX1    PRED09
         1 006747   000000 011000                    NOP     0

  26195  1 006750   200012 236100                    LDQ     PRED,,AUTO
         1 006751   000400 316003                    CANQ    256,DU
         1 006752   006767 600000 1                  TZE     s:26230

  26214  1 006753   200014 450100                    STZ     CONTINUING,,AUTO

      985    26216                                %ACTION06;

  26217  1 006754   012777 701000 1                  TSX1    ACTION06
         1 006755   000000 011000                    NOP     0

      986    26219                                %ACTION11;

  26220  1 006756   013066 701000 1                  TSX1    ACTION11
         1 006757   000000 011000                    NOP     0

      987    26222                                %EVENT( EV=%XSP_PEV_ACA);
PL6.E3A0      #001=XSP$MACHINE File=XSP$MACHINE.:XSA1TSI                         WED 10/01/97 12:04 Page:248

  26223  1 006760   000135 236000 2                  LDQ     93
         1 006761   200017 756100                    STQ     CONTINUING+3,,AUTO
         1 006762   012517 701000 1                  TSX1    EVNT
         1 006763   012433 702000 1                  TSX2    EVNTERR

      988    26225    4                           PCTX.STATE = %XSP_PST_AC0;

  26225  1 006764   200010 470500                    LDP0    PCTX$,,AUTO
         1 006765   004000 236003                    LDQ     2048,DU
         1 006766   000000 552140                    STBQ    0,'40'O,PR0

      989    26226    4                           END;

      990    26227                            %ENDPREDDO;

  26230  1 006767   200014 234100                    SZN     CONTINUING,,AUTO
         1 006770   012432 605000 1                  TPL     s:37359

  26230  1 006771   012644 701000 1                  TSX1    OOPS
         1 006772   000000 011000                    NOP     0
         1 006773   012432 710000 1                  TRA     s:37359

      991    26232    3                   CASE( ELSE);

      992    26233                            %INVALID;

  26234  1 006774   012644 701000 1                  TSX1    OOPS
         1 006775   000000 011000                    NOP     0

      993    26236    3                   END;

  26236  1 006776   012432 710000 1                  TRA     s:37359

      994    26237    2           CASE( %XSP_PEV_PCADREQ);                /* TABLE 25 */

      995    26238    3               DO CASE( PCTX.STATE);
PL6.E3A0      #001=XSP$MACHINE File=XSP$MACHINE.:XSA1TSI                         WED 10/01/97 12:04 Page:249

  26238  1 006777   000000 236100                    LDQ     0,,PR0
         1 007000   000033 772000                    QRL     27
         1 007001   000004 136007                    SBLQ    4,DL
         1 007002   000004 116007                    CMPQ    4,DL
         1 007003   007005 602006 1                  TNC     s:26238+6,QL
         1 007004   007061 710000 1                  TRA     s:26461
         1 007005   007011 710000 1                  TRA     s:26249
         1 007006   007035 710000 1                  TRA     s:26359
         1 007007   007011 710000 1                  TRA     s:26249
         1 007010   007035 710000 1                  TRA     s:26359

      996    26239    3                   CASE( %XSP_PST_AC0,

      997    26240    3                         %XSP_PST_AC2);
      998    26241                            %IFPREDDO( P="07");

  26249  1 007011   400000 236003                    LDQ     -131072,DU
         1 007012   200014 756100                    STQ     CONTINUING,,AUTO

  26309  1 007013   200013 236100                    LDQ     PINV,,AUTO
         1 007014   002000 316003                    CANQ    1024,DU
         1 007015   007020 600000 1                  TZE     s:26319

  26309  1 007016   013401 701000 1                  TSX1    PRED07
         1 007017   000000 011000                    NOP     0

  26319  1 007020   200012 236100                    LDQ     PRED,,AUTO
         1 007021   002000 316003                    CANQ    1024,DU
         1 007022   007030 600000 1                  TZE     s:26347

  26338  1 007023   200014 450100                    STZ     CONTINUING,,AUTO

      999    26340                                %EVENT( EV=%XSP_PEV_TC);

  26341  1 007024   000137 236000 2                  LDQ     95
         1 007025   200017 756100                    STQ     CONTINUING+3,,AUTO
PL6.E3A0      #001=XSP$MACHINE File=XSP$MACHINE.:XSA1TSI                         WED 10/01/97 12:04 Page:250
         1 007026   012517 701000 1                  TSX1    EVNT
         1 007027   012433 702000 1                  TSX2    EVNTERR

     1000    26343    4                           END;

     1001    26344                            %ENDPREDDO;

  26347  1 007030   200014 234100                    SZN     CONTINUING,,AUTO
         1 007031   012432 605000 1                  TPL     s:37359

  26347  1 007032   012644 701000 1                  TSX1    OOPS
         1 007033   000000 011000                    NOP     0
         1 007034   012432 710000 1                  TRA     s:37359

     1002    26349    3                   CASE( %XSP_PST_AC1,

     1003    26350    3                         %XSP_PST_T0);
     1004    26351                            %IFPREDDO( P="05");

  26359  1 007035   400000 236003                    LDQ     -131072,DU
         1 007036   200014 756100                    STQ     CONTINUING,,AUTO

  26419  1 007037   200013 236100                    LDQ     PINV,,AUTO
         1 007040   010000 316003                    CANQ    4096,DU
         1 007041   007044 600000 1                  TZE     s:26429

  26419  1 007042   013347 701000 1                  TSX1    PRED05
         1 007043   000000 011000                    NOP     0

  26429  1 007044   200012 236100                    LDQ     PRED,,AUTO
         1 007045   010000 316003                    CANQ    4096,DU
         1 007046   007054 600000 1                  TZE     s:26457

  26448  1 007047   200014 450100                    STZ     CONTINUING,,AUTO

     1005    26450                                %EVENT( EV=%XSP_PEV_TC);

PL6.E3A0      #001=XSP$MACHINE File=XSP$MACHINE.:XSA1TSI                         WED 10/01/97 12:04 Page:251
  26451  1 007050   000137 236000 2                  LDQ     95
         1 007051   200017 756100                    STQ     CONTINUING+3,,AUTO
         1 007052   012517 701000 1                  TSX1    EVNT
         1 007053   012433 702000 1                  TSX2    EVNTERR

     1006    26453    4                           END;

     1007    26454                            %ENDPREDDO;

  26457  1 007054   200014 234100                    SZN     CONTINUING,,AUTO
         1 007055   012432 605000 1                  TPL     s:37359

  26457  1 007056   012644 701000 1                  TSX1    OOPS
         1 007057   000000 011000                    NOP     0
         1 007060   012432 710000 1                  TRA     s:37359

     1008    26459    3                   CASE( ELSE);

     1009    26460                            %INVALID;

  26461  1 007061   012644 701000 1                  TSX1    OOPS
         1 007062   000000 011000                    NOP     0

     1010    26463    3                   END;

  26463  1 007063   012432 710000 1                  TRA     s:37359

     1011    26464    2           CASE( %XSP_PEV_PCADRSP);                /* TABLE 25 */

     1012    26465    3               DO CASE( PCTX.STATE);

  26465  1 007064   000000 236100                    LDQ     0,,PR0
         1 007065   000033 772000                    QRL     27
         1 007066   000004 136007                    SBLQ    4,DL
         1 007067   000004 116007                    CMPQ    4,DL
         1 007070   007072 602006 1                  TNC     s:26465+6,QL
         1 007071   007146 710000 1                  TRA     s:26688
PL6.E3A0      #001=XSP$MACHINE File=XSP$MACHINE.:XSA1TSI                         WED 10/01/97 12:04 Page:252
         1 007072   007076 710000 1                  TRA     s:26476
         1 007073   007122 710000 1                  TRA     s:26586
         1 007074   007076 710000 1                  TRA     s:26476
         1 007075   007122 710000 1                  TRA     s:26586

     1013    26466    3                   CASE( %XSP_PST_AC0,

     1014    26467    3                         %XSP_PST_AC2);
     1015    26468                            %IFPREDDO( P="07");

  26476  1 007076   400000 236003                    LDQ     -131072,DU
         1 007077   200014 756100                    STQ     CONTINUING,,AUTO

  26536  1 007100   200013 236100                    LDQ     PINV,,AUTO
         1 007101   002000 316003                    CANQ    1024,DU
         1 007102   007105 600000 1                  TZE     s:26546

  26536  1 007103   013401 701000 1                  TSX1    PRED07
         1 007104   000000 011000                    NOP     0

  26546  1 007105   200012 236100                    LDQ     PRED,,AUTO
         1 007106   002000 316003                    CANQ    1024,DU
         1 007107   007115 600000 1                  TZE     s:26574

  26565  1 007110   200014 450100                    STZ     CONTINUING,,AUTO

     1016    26567                                %EVENT( EV=%XSP_PEV_TCC);

  26568  1 007111   000141 236000 2                  LDQ     97
         1 007112   200017 756100                    STQ     CONTINUING+3,,AUTO
         1 007113   012517 701000 1                  TSX1    EVNT
         1 007114   012433 702000 1                  TSX2    EVNTERR

     1017    26570    4                           END;

     1018    26571                            %ENDPREDDO;

PL6.E3A0      #001=XSP$MACHINE File=XSP$MACHINE.:XSA1TSI                         WED 10/01/97 12:04 Page:253
  26574  1 007115   200014 234100                    SZN     CONTINUING,,AUTO
         1 007116   012432 605000 1                  TPL     s:37359

  26574  1 007117   012644 701000 1                  TSX1    OOPS
         1 007120   000000 011000                    NOP     0
         1 007121   012432 710000 1                  TRA     s:37359

     1019    26576    3                   CASE( %XSP_PST_AC1,

     1020    26577    3                         %XSP_PST_T0);
     1021    26578                            %IFPREDDO( P="05");

  26586  1 007122   400000 236003                    LDQ     -131072,DU
         1 007123   200014 756100                    STQ     CONTINUING,,AUTO

  26646  1 007124   200013 236100                    LDQ     PINV,,AUTO
         1 007125   010000 316003                    CANQ    4096,DU
         1 007126   007131 600000 1                  TZE     s:26656

  26646  1 007127   013347 701000 1                  TSX1    PRED05
         1 007130   000000 011000                    NOP     0

  26656  1 007131   200012 236100                    LDQ     PRED,,AUTO
         1 007132   010000 316003                    CANQ    4096,DU
         1 007133   007141 600000 1                  TZE     s:26684

  26675  1 007134   200014 450100                    STZ     CONTINUING,,AUTO

     1022    26677                                %EVENT( EV=%XSP_PEV_TCC);

  26678  1 007135   000141 236000 2                  LDQ     97
         1 007136   200017 756100                    STQ     CONTINUING+3,,AUTO
         1 007137   012517 701000 1                  TSX1    EVNT
         1 007140   012433 702000 1                  TSX2    EVNTERR

     1023    26680    4                           END;

PL6.E3A0      #001=XSP$MACHINE File=XSP$MACHINE.:XSA1TSI                         WED 10/01/97 12:04 Page:254
     1024    26681                            %ENDPREDDO;

  26684  1 007141   200014 234100                    SZN     CONTINUING,,AUTO
         1 007142   012432 605000 1                  TPL     s:37359

  26684  1 007143   012644 701000 1                  TSX1    OOPS
         1 007144   000000 011000                    NOP     0
         1 007145   012432 710000 1                  TRA     s:37359

     1025    26686    3                   CASE( ELSE);

     1026    26687                            %INVALID;

  26688  1 007146   012644 701000 1                  TSX1    OOPS
         1 007147   000000 011000                    NOP     0

     1027    26690    3                   END;

  26690  1 007150   012432 710000 1                  TRA     s:37359

     1028    26691    2           CASE( %XSP_PEV_PCONREQ);                /* TABLE 21 */

     1029    26692    3               IF PCTX.STATE = %XSP_PST_I0 THEN DO;

  26692  1 007151   000000 236100                    LDQ     0,,PR0
         1 007152   777000 376003                    ANQ     -512,DU
         1 007153   001000 116003                    CMPQ    512,DU
         1 007154   007224 601000 1                  TNZ     s:26902

     1030    26693                        %IFPREDDO( P="02&03");

  26701  1 007155   400000 236003                    LDQ     -131072,DU
         1 007156   200014 756100                    STQ     CONTINUING,,AUTO

  26747  1 007157   200013 236100                    LDQ     PINV,,AUTO
         1 007160   100000 316003                    CANQ    32768,DU
         1 007161   007164 600000 1                  TZE     s:26756
PL6.E3A0      #001=XSP$MACHINE File=XSP$MACHINE.:XSA1TSI                         WED 10/01/97 12:04 Page:255

  26747  1 007162   013164 701000 1                  TSX1    PRED02
         1 007163   000000 011000                    NOP     0

  26756  1 007164   200012 236100                    LDQ     PRED,,AUTO
         1 007165   100000 316003                    CANQ    32768,DU
         1 007166   007217 600000 1                  TZE     s:26897

  26831  1 007167   200013 236100                    LDQ     PINV,,AUTO
         1 007170   040000 316003                    CANQ    16384,DU
         1 007171   007174 600000 1                  TZE     s:26841

  26831  1 007172   013175 701000 1                  TSX1    PRED03
         1 007173   000000 011000                    NOP     0

  26841  1 007174   200012 236100                    LDQ     PRED,,AUTO
         1 007175   040000 316003                    CANQ    16384,DU
         1 007176   007217 600000 1                  TZE     s:26897

  26875  1 007177   200014 450100                    STZ     CONTINUING,,AUTO

     1031    26877                            %ACTION04;

  26878  1 007200   012741 701000 1                  TSX1    ACTION04
         1 007201   000000 011000                    NOP     0

     1032    26880                            %ACTION05;

  26881  1 007202   012765 701000 1                  TSX1    ACTION05
         1 007203   000000 011000                    NOP     0

     1033    26883                            %ACTION02;

  26884  1 007204   012714 701000 1                  TSX1    ACTION02
         1 007205   000000 011000                    NOP     0

     1034    26886                            %ACTION20;
PL6.E3A0      #001=XSP$MACHINE File=XSP$MACHINE.:XSA1TSI                         WED 10/01/97 12:04 Page:256

  26887  1 007206   013136 701000 1                  TSX1    ACTION20
         1 007207   000000 011000                    NOP     0

     1035    26889                            %EVENT( EV=%XSP_PEV_CP);

  26890  1 007210   000143 236000 2                  LDQ     99
         1 007211   200017 756100                    STQ     CONTINUING+3,,AUTO
         1 007212   012517 701000 1                  TSX1    EVNT
         1 007213   012433 702000 1                  TSX2    EVNTERR

     1036    26892    4                       PCTX.STATE = %XSP_PST_I1;

  26892  1 007214   200010 470500                    LDP0    PCTX$,,AUTO
         1 007215   002000 236003                    LDQ     1024,DU
         1 007216   000000 552140                    STBQ    0,'40'O,PR0

     1037    26893    4                       END;

     1038    26894                        %ENDPREDDO;

  26897  1 007217   200014 234100                    SZN     CONTINUING,,AUTO
         1 007220   012432 605000 1                  TPL     s:37359

  26897  1 007221   012644 701000 1                  TSX1    OOPS
         1 007222   000000 011000                    NOP     0

     1039    26899    3                   END;

  26899  1 007223   012432 710000 1                  TRA     s:37359

     1040    26900    2               ELSE
     1041    26901                        %INVALID;

  26902  1 007224   012644 701000 1                  TSX1    OOPS
         1 007225   000000 011000                    NOP     0
         1 007226   012432 710000 1                  TRA     s:37359
PL6.E3A0      #001=XSP$MACHINE File=XSP$MACHINE.:XSA1TSI                         WED 10/01/97 12:04 Page:257

     1042    26904    2           CASE( %XSP_PEV_PCONRSP);                /* TABLE 21 */

     1043    26905    3               IF PCTX.STATE = %XSP_PST_I2 THEN DO;

  26905  1 007227   000000 236100                    LDQ     0,,PR0
         1 007230   777000 376003                    ANQ     -512,DU
         1 007231   003000 116003                    CMPQ    1536,DU
         1 007232   007266 601000 1                  TNZ     s:27024

     1044    26906                        %IFPREDDO( P="04");

  26914  1 007233   400000 236003                    LDQ     -131072,DU
         1 007234   200014 756100                    STQ     CONTINUING,,AUTO

  26974  1 007235   200013 236100                    LDQ     PINV,,AUTO
         1 007236   020000 316003                    CANQ    8192,DU
         1 007237   007242 600000 1                  TZE     s:26984

  26974  1 007240   013262 701000 1                  TSX1    PRED04
         1 007241   000000 011000                    NOP     0

  26984  1 007242   200012 236100                    LDQ     PRED,,AUTO
         1 007243   020000 316003                    CANQ    8192,DU
         1 007244   007261 600000 1                  TZE     s:27019

  27003  1 007245   200014 450100                    STZ     CONTINUING,,AUTO

     1045    27005                            %ACTION06;

  27006  1 007246   012777 701000 1                  TSX1    ACTION06
         1 007247   000000 011000                    NOP     0

     1046    27008                            %ACTION12;

  27009  1 007250   013070 701000 1                  TSX1    ACTION12
         1 007251   000000 011000                    NOP     0
PL6.E3A0      #001=XSP$MACHINE File=XSP$MACHINE.:XSA1TSI                         WED 10/01/97 12:04 Page:258

     1047    27011                            %EVENT( EV=%XSP_PEV_CPA);

  27012  1 007252   000145 236000 2                  LDQ     101
         1 007253   200017 756100                    STQ     CONTINUING+3,,AUTO
         1 007254   012517 701000 1                  TSX1    EVNT
         1 007255   012433 702000 1                  TSX2    EVNTERR

     1048    27014    4                       PCTX.STATE = %XSP_PST_T0;

  27014  1 007256   200010 470500                    LDP0    PCTX$,,AUTO
         1 007257   007000 236003                    LDQ     3584,DU
         1 007260   000000 552140                    STBQ    0,'40'O,PR0

     1049    27015    4                       END;

     1050    27016                        %ENDPREDDO;

  27019  1 007261   200014 234100                    SZN     CONTINUING,,AUTO
         1 007262   012432 605000 1                  TPL     s:37359

  27019  1 007263   012644 701000 1                  TSX1    OOPS
         1 007264   000000 011000                    NOP     0

     1051    27021    3                   END;

  27021  1 007265   012432 710000 1                  TRA     s:37359

     1052    27022    2               ELSE
     1053    27023                        %INVALID;

  27024  1 007266   012644 701000 1                  TSX1    OOPS
         1 007267   000000 011000                    NOP     0
         1 007270   012432 710000 1                  TRA     s:37359

     1054    27026    2           CASE( %XSP_PEV_PCONRSN);                /* TABLE 21 */

PL6.E3A0      #001=XSP$MACHINE File=XSP$MACHINE.:XSA1TSI                         WED 10/01/97 12:04 Page:259
     1055    27027    3               IF PCTX.STATE = %XSP_PST_I2 THEN DO;

  27027  1 007271   000000 236100                    LDQ     0,,PR0
         1 007272   777000 376003                    ANQ     -512,DU
         1 007273   003000 116003                    CMPQ    1536,DU
         1 007274   007326 601000 1                  TNZ     s:27143

     1056    27028                        %IFPREDDO( P="04");

  27036  1 007275   400000 236003                    LDQ     -131072,DU
         1 007276   200014 756100                    STQ     CONTINUING,,AUTO

  27096  1 007277   200013 236100                    LDQ     PINV,,AUTO
         1 007300   020000 316003                    CANQ    8192,DU
         1 007301   007304 600000 1                  TZE     s:27106

  27096  1 007302   013262 701000 1                  TSX1    PRED04
         1 007303   000000 011000                    NOP     0

  27106  1 007304   200012 236100                    LDQ     PRED,,AUTO
         1 007305   020000 316003                    CANQ    8192,DU
         1 007306   007321 600000 1                  TZE     s:27138

  27125  1 007307   200014 450100                    STZ     CONTINUING,,AUTO

     1057    27127                            %ACTION06;

  27128  1 007310   012777 701000 1                  TSX1    ACTION06
         1 007311   000000 011000                    NOP     0

     1058    27130                            %EVENT( EV=%XSP_PEV_CPR);

  27131  1 007312   000017 236000 2                  LDQ     15
         1 007313   200017 756100                    STQ     CONTINUING+3,,AUTO
         1 007314   012517 701000 1                  TSX1    EVNT
         1 007315   012433 702000 1                  TSX2    EVNTERR

PL6.E3A0      #001=XSP$MACHINE File=XSP$MACHINE.:XSA1TSI                         WED 10/01/97 12:04 Page:260
     1059    27133    4                       PCTX.STATE = %XSP_PST_I0;

  27133  1 007316   200010 470500                    LDP0    PCTX$,,AUTO
         1 007317   001000 236003                    LDQ     512,DU
         1 007320   000000 552140                    STBQ    0,'40'O,PR0

     1060    27134    4                       END;

     1061    27135                        %ENDPREDDO;

  27138  1 007321   200014 234100                    SZN     CONTINUING,,AUTO
         1 007322   012432 605000 1                  TPL     s:37359

  27138  1 007323   012644 701000 1                  TSX1    OOPS
         1 007324   000000 011000                    NOP     0

     1062    27140    3                   END;

  27140  1 007325   012432 710000 1                  TRA     s:37359

     1063    27141    2               ELSE
     1064    27142                        %INVALID;

  27143  1 007326   012644 701000 1                  TSX1    OOPS
         1 007327   000000 011000                    NOP     0
         1 007330   012432 710000 1                  TRA     s:37359

     1065    27145    2           CASE( %XSP_PEV_PCTGREQ);                /* TABLE 26 */

     1066    27146    3               DO CASE( PCTX.STATE);

  27146  1 007331   000000 236100                    LDQ     0,,PR0
         1 007332   000033 772000                    QRL     27
         1 007333   000004 136007                    SBLQ    4,DL
         1 007334   000004 116007                    CMPQ    4,DL
         1 007335   007337 602006 1                  TNC     s:27146+6,QL
         1 007336   007350 710000 1                  TRA     s:27156
PL6.E3A0      #001=XSP$MACHINE File=XSP$MACHINE.:XSA1TSI                         WED 10/01/97 12:04 Page:261
         1 007337   007343 710000 1                  TRA     s:27152
         1 007340   007343 710000 1                  TRA     s:27152
         1 007341   007343 710000 1                  TRA     s:27152
         1 007342   007343 710000 1                  TRA     s:27152

     1067    27147    3                   CASE( %XSP_PST_AC0,

     1068    27148    3                         %XSP_PST_AC1,
     1069    27149    3                         %XSP_PST_AC2,
     1070    27150    3                         %XSP_PST_T0);
     1071    27151                            %EVENT( EV=%XSP_PEV_SCTGREQ);

  27152  1 007343   000147 236000 2                  LDQ     103
         1 007344   200017 756100                    STQ     CONTINUING+3,,AUTO
         1 007345   012517 701000 1                  TSX1    EVNT
         1 007346   012433 702000 1                  TSX2    EVNTERR
         1 007347   012432 710000 1                  TRA     s:37359

     1072    27154    3                   CASE( ELSE);

     1073    27155                            %INVALID;

  27156  1 007350   012644 701000 1                  TSX1    OOPS
         1 007351   000000 011000                    NOP     0

     1074    27158    3                   END;

  27158  1 007352   012432 710000 1                  TRA     s:37359

     1075    27159    2           CASE( %XSP_PEV_PDATREQ);                /* TABLE 25 */

     1076    27160    3               DO CASE( PCTX.STATE);

  27160  1 007353   000000 236100                    LDQ     0,,PR0
         1 007354   000033 772000                    QRL     27
         1 007355   000004 136007                    SBLQ    4,DL
         1 007356   000004 116007                    CMPQ    4,DL
PL6.E3A0      #001=XSP$MACHINE File=XSP$MACHINE.:XSA1TSI                         WED 10/01/97 12:04 Page:262
         1 007357   007361 602006 1                  TNC     s:27160+6,QL
         1 007360   007435 710000 1                  TRA     s:27383
         1 007361   007365 710000 1                  TRA     s:27171
         1 007362   007411 710000 1                  TRA     s:27281
         1 007363   007365 710000 1                  TRA     s:27171
         1 007364   007411 710000 1                  TRA     s:27281

     1077    27161    3                   CASE( %XSP_PST_AC0,

     1078    27162    3                         %XSP_PST_AC2);
     1079    27163                            %IFPREDDO( P="07");

  27171  1 007365   400000 236003                    LDQ     -131072,DU
         1 007366   200014 756100                    STQ     CONTINUING,,AUTO

  27231  1 007367   200013 236100                    LDQ     PINV,,AUTO
         1 007370   002000 316003                    CANQ    1024,DU
         1 007371   007374 600000 1                  TZE     s:27241

  27231  1 007372   013401 701000 1                  TSX1    PRED07
         1 007373   000000 011000                    NOP     0

  27241  1 007374   200012 236100                    LDQ     PRED,,AUTO
         1 007375   002000 316003                    CANQ    1024,DU
         1 007376   007404 600000 1                  TZE     s:27269

  27260  1 007377   200014 450100                    STZ     CONTINUING,,AUTO

     1080    27262                                %EVENT( EV=%XSP_PEV_TD);

  27263  1 007400   000151 236000 2                  LDQ     105
         1 007401   200017 756100                    STQ     CONTINUING+3,,AUTO
         1 007402   012517 701000 1                  TSX1    EVNT
         1 007403   012433 702000 1                  TSX2    EVNTERR

     1081    27265    4                           END;

PL6.E3A0      #001=XSP$MACHINE File=XSP$MACHINE.:XSA1TSI                         WED 10/01/97 12:04 Page:263
     1082    27266                            %ENDPREDDO;

  27269  1 007404   200014 234100                    SZN     CONTINUING,,AUTO
         1 007405   012432 605000 1                  TPL     s:37359

  27269  1 007406   012644 701000 1                  TSX1    OOPS
         1 007407   000000 011000                    NOP     0
         1 007410   012432 710000 1                  TRA     s:37359

     1083    27271    3                   CASE( %XSP_PST_AC1,

     1084    27272    3                         %XSP_PST_T0);
     1085    27273                            %IFPREDDO( P="05");

  27281  1 007411   400000 236003                    LDQ     -131072,DU
         1 007412   200014 756100                    STQ     CONTINUING,,AUTO

  27341  1 007413   200013 236100                    LDQ     PINV,,AUTO
         1 007414   010000 316003                    CANQ    4096,DU
         1 007415   007420 600000 1                  TZE     s:27351

  27341  1 007416   013347 701000 1                  TSX1    PRED05
         1 007417   000000 011000                    NOP     0

  27351  1 007420   200012 236100                    LDQ     PRED,,AUTO
         1 007421   010000 316003                    CANQ    4096,DU
         1 007422   007430 600000 1                  TZE     s:27379

  27370  1 007423   200014 450100                    STZ     CONTINUING,,AUTO

     1086    27372                                %EVENT( EV=%XSP_PEV_TD);

  27373  1 007424   000151 236000 2                  LDQ     105
         1 007425   200017 756100                    STQ     CONTINUING+3,,AUTO
         1 007426   012517 701000 1                  TSX1    EVNT
         1 007427   012433 702000 1                  TSX2    EVNTERR

PL6.E3A0      #001=XSP$MACHINE File=XSP$MACHINE.:XSA1TSI                         WED 10/01/97 12:04 Page:264
     1087    27375    4                           END;

     1088    27376                            %ENDPREDDO;

  27379  1 007430   200014 234100                    SZN     CONTINUING,,AUTO
         1 007431   012432 605000 1                  TPL     s:37359

  27379  1 007432   012644 701000 1                  TSX1    OOPS
         1 007433   000000 011000                    NOP     0
         1 007434   012432 710000 1                  TRA     s:37359

     1089    27381    3                   CASE( ELSE);

     1090    27382                            %INVALID;

  27383  1 007435   012644 701000 1                  TSX1    OOPS
         1 007436   000000 011000                    NOP     0

     1091    27385    3                   END;

  27385  1 007437   012432 710000 1                  TRA     s:37359

     1092    27386    2           CASE( %XSP_PEV_PEXPREQ);                /* TABLE 25 */

     1093    27387    3               DO CASE( PCTX.STATE);

  27387  1 007440   000000 236100                    LDQ     0,,PR0
         1 007441   000033 772000                    QRL     27
         1 007442   000004 136007                    SBLQ    4,DL
         1 007443   000004 116007                    CMPQ    4,DL
         1 007444   007446 602006 1                  TNC     s:27387+6,QL
         1 007445   007476 710000 1                  TRA     s:27502
         1 007446   007452 710000 1                  TRA     s:27400
         1 007447   007452 710000 1                  TRA     s:27400
         1 007450   007452 710000 1                  TRA     s:27400
         1 007451   007452 710000 1                  TRA     s:27400

PL6.E3A0      #001=XSP$MACHINE File=XSP$MACHINE.:XSA1TSI                         WED 10/01/97 12:04 Page:265
     1094    27388    3                   CASE( %XSP_PST_AC0,

     1095    27389    3                         %XSP_PST_AC1,
     1096    27390    3                         %XSP_PST_AC2,
     1097    27391    3                         %XSP_PST_T0);
     1098    27392                            %IFPREDDO( P="13");

  27400  1 007452   400000 236003                    LDQ     -131072,DU
         1 007453   200014 756100                    STQ     CONTINUING,,AUTO

  27460  1 007454   200013 236100                    LDQ     PINV,,AUTO
         1 007455   000020 316003                    CANQ    16,DU
         1 007456   007461 600000 1                  TZE     s:27470

  27460  1 007457   013441 701000 1                  TSX1    PRED13
         1 007460   000000 011000                    NOP     0

  27470  1 007461   200012 236100                    LDQ     PRED,,AUTO
         1 007462   000020 316003                    CANQ    16,DU
         1 007463   007471 600000 1                  TZE     s:27498

  27489  1 007464   200014 450100                    STZ     CONTINUING,,AUTO

     1099    27491                                %EVENT( EV=%XSP_PEV_TE);

  27492  1 007465   000153 236000 2                  LDQ     107
         1 007466   200017 756100                    STQ     CONTINUING+3,,AUTO
         1 007467   012517 701000 1                  TSX1    EVNT
         1 007470   012433 702000 1                  TSX2    EVNTERR

     1100    27494    4                           END;

     1101    27495                            %ENDPREDDO;

  27498  1 007471   200014 234100                    SZN     CONTINUING,,AUTO
         1 007472   012432 605000 1                  TPL     s:37359

PL6.E3A0      #001=XSP$MACHINE File=XSP$MACHINE.:XSA1TSI                         WED 10/01/97 12:04 Page:266
  27498  1 007473   012644 701000 1                  TSX1    OOPS
         1 007474   000000 011000                    NOP     0
         1 007475   012432 710000 1                  TRA     s:37359

     1102    27500    3                   CASE( ELSE);

     1103    27501                            %INVALID;

  27502  1 007476   012644 701000 1                  TSX1    OOPS
         1 007477   000000 011000                    NOP     0

     1104    27504    3                   END;

  27504  1 007500   012432 710000 1                  TRA     s:37359

     1105    27505    2           CASE( %XSP_PEV_PRELREQ);                /* TABLE 22 */

     1106    27506    3               DO CASE( PCTX.STATE);

  27506  1 007501   000000 236100                    LDQ     0,,PR0
         1 007502   000033 772000                    QRL     27
         1 007503   000004 136007                    SBLQ    4,DL
         1 007504   000004 116007                    CMPQ    4,DL
         1 007505   007507 602006 1                  TNC     s:27506+6,QL
         1 007506   007573 710000 1                  TRA     s:27741
         1 007507   007513 710000 1                  TRA     s:27517
         1 007510   007543 710000 1                  TRA     s:27633
         1 007511   007513 710000 1                  TRA     s:27517
         1 007512   007543 710000 1                  TRA     s:27633

     1107    27507    3                   CASE( %XSP_PST_AC0,

     1108    27508    3                         %XSP_PST_AC2);
     1109    27509                            %IFPREDDO( P="07");

  27517  1 007513   400000 236003                    LDQ     -131072,DU
         1 007514   200014 756100                    STQ     CONTINUING,,AUTO
PL6.E3A0      #001=XSP$MACHINE File=XSP$MACHINE.:XSA1TSI                         WED 10/01/97 12:04 Page:267

  27577  1 007515   200013 236100                    LDQ     PINV,,AUTO
         1 007516   002000 316003                    CANQ    1024,DU
         1 007517   007522 600000 1                  TZE     s:27587

  27577  1 007520   013401 701000 1                  TSX1    PRED07
         1 007521   000000 011000                    NOP     0

  27587  1 007522   200012 236100                    LDQ     PRED,,AUTO
         1 007523   002000 316003                    CANQ    1024,DU
         1 007524   007536 600000 1                  TZE     s:27621

  27606  1 007525   200014 450100                    STZ     CONTINUING,,AUTO

     1110    27608                                %ACTION08;

  27609  1 007526   013037 701000 1                  TSX1    ACTION08
         1 007527   000000 011000                    NOP     0

     1111    27611                                %ACTION07;

  27612  1 007530   013031 701000 1                  TSX1    ACTION07
         1 007531   000000 011000                    NOP     0

     1112    27614                                %EVENT( EV=%XSP_PEV_SRELREQ);

  27615  1 007532   000155 236000 2                  LDQ     109
         1 007533   200017 756100                    STQ     CONTINUING+3,,AUTO
         1 007534   012517 701000 1                  TSX1    EVNT
         1 007535   012433 702000 1                  TSX2    EVNTERR

     1113    27617    4                           END;

     1114    27618                            %ENDPREDDO;

  27621  1 007536   200014 234100                    SZN     CONTINUING,,AUTO
         1 007537   012432 605000 1                  TPL     s:37359
PL6.E3A0      #001=XSP$MACHINE File=XSP$MACHINE.:XSA1TSI                         WED 10/01/97 12:04 Page:268

  27621  1 007540   012644 701000 1                  TSX1    OOPS
         1 007541   000000 011000                    NOP     0
         1 007542   012432 710000 1                  TRA     s:37359

     1115    27623    3                   CASE( %XSP_PST_AC1,

     1116    27624    3                         %XSP_PST_T0);
     1117    27625                            %IFPREDDO( P="05");

  27633  1 007543   400000 236003                    LDQ     -131072,DU
         1 007544   200014 756100                    STQ     CONTINUING,,AUTO

  27693  1 007545   200013 236100                    LDQ     PINV,,AUTO
         1 007546   010000 316003                    CANQ    4096,DU
         1 007547   007552 600000 1                  TZE     s:27703

  27693  1 007550   013347 701000 1                  TSX1    PRED05
         1 007551   000000 011000                    NOP     0

  27703  1 007552   200012 236100                    LDQ     PRED,,AUTO
         1 007553   010000 316003                    CANQ    4096,DU
         1 007554   007566 600000 1                  TZE     s:27737

  27722  1 007555   200014 450100                    STZ     CONTINUING,,AUTO

     1118    27724                                %ACTION08;

  27725  1 007556   013037 701000 1                  TSX1    ACTION08
         1 007557   000000 011000                    NOP     0

     1119    27727                                %ACTION07;

  27728  1 007560   013031 701000 1                  TSX1    ACTION07
         1 007561   000000 011000                    NOP     0

     1120    27730                                %EVENT( EV=%XSP_PEV_SRELREQ);
PL6.E3A0      #001=XSP$MACHINE File=XSP$MACHINE.:XSA1TSI                         WED 10/01/97 12:04 Page:269

  27731  1 007562   000155 236000 2                  LDQ     109
         1 007563   200017 756100                    STQ     CONTINUING+3,,AUTO
         1 007564   012517 701000 1                  TSX1    EVNT
         1 007565   012433 702000 1                  TSX2    EVNTERR

     1121    27733    4                           END;

     1122    27734                            %ENDPREDDO;

  27737  1 007566   200014 234100                    SZN     CONTINUING,,AUTO
         1 007567   012432 605000 1                  TPL     s:37359

  27737  1 007570   012644 701000 1                  TSX1    OOPS
         1 007571   000000 011000                    NOP     0
         1 007572   012432 710000 1                  TRA     s:37359

     1123    27739    3                   CASE( ELSE);

     1124    27740                            %INVALID;

  27741  1 007573   012644 701000 1                  TSX1    OOPS
         1 007574   000000 011000                    NOP     0

     1125    27743    3                   END;

  27743  1 007575   012432 710000 1                  TRA     s:37359

     1126    27744    2           CASE( %XSP_PEV_PRELRSP);                /* TABLE 22 */

     1127    27745    3               DO CASE( PCTX.STATE);

  27745  1 007576   000000 236100                    LDQ     0,,PR0
         1 007577   000033 772000                    QRL     27
         1 007600   000004 136007                    SBLQ    4,DL
         1 007601   000004 116007                    CMPQ    4,DL
         1 007602   007604 602006 1                  TNC     s:27745+6,QL
PL6.E3A0      #001=XSP$MACHINE File=XSP$MACHINE.:XSA1TSI                         WED 10/01/97 12:04 Page:270
         1 007603   007766 710000 1                  TRA     s:28566
         1 007604   007610 710000 1                  TRA     s:27756
         1 007605   007677 710000 1                  TRA     s:28165
         1 007606   007610 710000 1                  TRA     s:27756
         1 007607   007677 710000 1                  TRA     s:28165

     1128    27746    3                   CASE( %XSP_PST_AC0,

     1129    27747    3                         %XSP_PST_AC2);
     1130    27748                            %IFPREDDO( P="07&-08");

  27756  1 007610   400000 236003                    LDQ     -131072,DU
         1 007611   200014 756100                    STQ     CONTINUING,,AUTO

  27802  1 007612   200013 236100                    LDQ     PINV,,AUTO
         1 007613   002000 316003                    CANQ    1024,DU
         1 007614   007617 600000 1                  TZE     s:27811

  27802  1 007615   013401 701000 1                  TSX1    PRED07
         1 007616   000000 011000                    NOP     0

  27811  1 007617   200012 236100                    LDQ     PRED,,AUTO
         1 007620   002000 316003                    CANQ    1024,DU
         1 007621   007640 600000 1                  TZE     s:27967

  27904  1 007622   200013 430100                    FSZN    PINV,,AUTO
         1 007623   007626 605000 1                  TPL     s:27914

  27904  1 007624   013405 701000 1                  TSX1    PRED08
         1 007625   000000 011000                    NOP     0

  27914  1 007626   200012 430100                    FSZN    PRED,,AUTO
         1 007627   007640 604000 1                  TMI     s:27967

  27953  1 007630   200014 450100                    STZ     CONTINUING,,AUTO

     1131    27955                                %EVENT( EV=%XSP_PEV_SRELRSP);
PL6.E3A0      #001=XSP$MACHINE File=XSP$MACHINE.:XSA1TSI                         WED 10/01/97 12:04 Page:271

  27956  1 007631   000157 236000 2                  LDQ     111
         1 007632   200017 756100                    STQ     CONTINUING+3,,AUTO
         1 007633   012517 701000 1                  TSX1    EVNT
         1 007634   012433 702000 1                  TSX2    EVNTERR

     1132    27958    4                           PCTX.STATE = %XSP_PST_I0;

  27958  1 007635   200010 470500                    LDP0    PCTX$,,AUTO
         1 007636   001000 236003                    LDQ     512,DU
         1 007637   000000 552140                    STBQ    0,'40'O,PR0

     1133    27959    4                           END;

     1134    27960                            %ELSEPREDDO( P="07&08");

  27967  1 007640   200014 234100                    SZN     CONTINUING,,AUTO
         1 007641   007672 605000 1                  TPL     s:28153

  28012  1 007642   200013 236100                    LDQ     PINV,,AUTO
         1 007643   002000 316003                    CANQ    1024,DU
         1 007644   007647 600000 1                  TZE     s:28021

  28012  1 007645   013401 701000 1                  TSX1    PRED07
         1 007646   000000 011000                    NOP     0

  28021  1 007647   200012 236100                    LDQ     PRED,,AUTO
         1 007650   002000 316003                    CANQ    1024,DU
         1 007651   007672 600000 1                  TZE     s:28153

  28096  1 007652   200013 430100                    FSZN    PINV,,AUTO
         1 007653   007656 605000 1                  TPL     s:28106

  28096  1 007654   013405 701000 1                  TSX1    PRED08
         1 007655   000000 011000                    NOP     0

  28106  1 007656   200012 430100                    FSZN    PRED,,AUTO
PL6.E3A0      #001=XSP$MACHINE File=XSP$MACHINE.:XSA1TSI                         WED 10/01/97 12:04 Page:272
         1 007657   007672 605000 1                  TPL     s:28153

  28140  1 007660   200014 450100                    STZ     CONTINUING,,AUTO

     1135    28142                                %ACTION02;

  28143  1 007661   012714 701000 1                  TSX1    ACTION02
         1 007662   000000 011000                    NOP     0

     1136    28145                                %EVENT( EV=%XSP_PEV_SRELRSP);

  28146  1 007663   000157 236000 2                  LDQ     111
         1 007664   200017 756100                    STQ     CONTINUING+3,,AUTO
         1 007665   012517 701000 1                  TSX1    EVNT
         1 007666   012433 702000 1                  TSX2    EVNTERR

     1137    28148    4                           PCTX.STATE = %XSP_PST_T0;

  28148  1 007667   200010 470500                    LDP0    PCTX$,,AUTO
         1 007670   007000 236003                    LDQ     3584,DU
         1 007671   000000 552140                    STBQ    0,'40'O,PR0

     1138    28149    4                           END;

     1139    28150                            %ENDPREDDO;

  28153  1 007672   200014 234100                    SZN     CONTINUING,,AUTO
         1 007673   012432 605000 1                  TPL     s:37359

  28153  1 007674   012644 701000 1                  TSX1    OOPS
         1 007675   000000 011000                    NOP     0
         1 007676   012432 710000 1                  TRA     s:37359

     1140    28155    3                   CASE( %XSP_PST_AC1,

     1141    28156    3                         %XSP_PST_T0);
     1142    28157                            %IFPREDDO( P="05&-08");
PL6.E3A0      #001=XSP$MACHINE File=XSP$MACHINE.:XSA1TSI                         WED 10/01/97 12:04 Page:273

  28165  1 007677   400000 236003                    LDQ     -131072,DU
         1 007700   200014 756100                    STQ     CONTINUING,,AUTO

  28211  1 007701   200013 236100                    LDQ     PINV,,AUTO
         1 007702   010000 316003                    CANQ    4096,DU
         1 007703   007706 600000 1                  TZE     s:28220

  28211  1 007704   013347 701000 1                  TSX1    PRED05
         1 007705   000000 011000                    NOP     0

  28220  1 007706   200012 236100                    LDQ     PRED,,AUTO
         1 007707   010000 316003                    CANQ    4096,DU
         1 007710   007727 600000 1                  TZE     s:28376

  28313  1 007711   200013 430100                    FSZN    PINV,,AUTO
         1 007712   007715 605000 1                  TPL     s:28323

  28313  1 007713   013405 701000 1                  TSX1    PRED08
         1 007714   000000 011000                    NOP     0

  28323  1 007715   200012 430100                    FSZN    PRED,,AUTO
         1 007716   007727 604000 1                  TMI     s:28376

  28362  1 007717   200014 450100                    STZ     CONTINUING,,AUTO

     1143    28364                                %EVENT( EV=%XSP_PEV_SRELRSP);

  28365  1 007720   000157 236000 2                  LDQ     111
         1 007721   200017 756100                    STQ     CONTINUING+3,,AUTO
         1 007722   012517 701000 1                  TSX1    EVNT
         1 007723   012433 702000 1                  TSX2    EVNTERR

     1144    28367    4                           PCTX.STATE = %XSP_PST_I0;

  28367  1 007724   200010 470500                    LDP0    PCTX$,,AUTO
         1 007725   001000 236003                    LDQ     512,DU
PL6.E3A0      #001=XSP$MACHINE File=XSP$MACHINE.:XSA1TSI                         WED 10/01/97 12:04 Page:274
         1 007726   000000 552140                    STBQ    0,'40'O,PR0

     1145    28368    4                           END;

     1146    28369                            %ELSEPREDDO( P="05&08");

  28376  1 007727   200014 234100                    SZN     CONTINUING,,AUTO
         1 007730   007761 605000 1                  TPL     s:28562

  28421  1 007731   200013 236100                    LDQ     PINV,,AUTO
         1 007732   010000 316003                    CANQ    4096,DU
         1 007733   007736 600000 1                  TZE     s:28430

  28421  1 007734   013347 701000 1                  TSX1    PRED05
         1 007735   000000 011000                    NOP     0

  28430  1 007736   200012 236100                    LDQ     PRED,,AUTO
         1 007737   010000 316003                    CANQ    4096,DU
         1 007740   007761 600000 1                  TZE     s:28562

  28505  1 007741   200013 430100                    FSZN    PINV,,AUTO
         1 007742   007745 605000 1                  TPL     s:28515

  28505  1 007743   013405 701000 1                  TSX1    PRED08
         1 007744   000000 011000                    NOP     0

  28515  1 007745   200012 430100                    FSZN    PRED,,AUTO
         1 007746   007761 605000 1                  TPL     s:28562

  28549  1 007747   200014 450100                    STZ     CONTINUING,,AUTO

     1147    28551                                %ACTION02;

  28552  1 007750   012714 701000 1                  TSX1    ACTION02
         1 007751   000000 011000                    NOP     0

     1148    28554                                %EVENT( EV=%XSP_PEV_SRELRSP);
PL6.E3A0      #001=XSP$MACHINE File=XSP$MACHINE.:XSA1TSI                         WED 10/01/97 12:04 Page:275

  28555  1 007752   000157 236000 2                  LDQ     111
         1 007753   200017 756100                    STQ     CONTINUING+3,,AUTO
         1 007754   012517 701000 1                  TSX1    EVNT
         1 007755   012433 702000 1                  TSX2    EVNTERR

     1149    28557    4                           PCTX.STATE = %XSP_PST_T0;

  28557  1 007756   200010 470500                    LDP0    PCTX$,,AUTO
         1 007757   007000 236003                    LDQ     3584,DU
         1 007760   000000 552140                    STBQ    0,'40'O,PR0

     1150    28558    4                           END;

     1151    28559                            %ENDPREDDO;

  28562  1 007761   200014 234100                    SZN     CONTINUING,,AUTO
         1 007762   012432 605000 1                  TPL     s:37359

  28562  1 007763   012644 701000 1                  TSX1    OOPS
         1 007764   000000 011000                    NOP     0
         1 007765   012432 710000 1                  TRA     s:37359

     1152    28564    3                   CASE( ELSE);

     1153    28565                            %INVALID;

  28566  1 007766   012644 701000 1                  TSX1    OOPS
         1 007767   000000 011000                    NOP     0

     1154    28568    3                   END;

  28568  1 007770   012432 710000 1                  TRA     s:37359

     1155    28569    2           CASE( %XSP_PEV_PRELRSN);                /* TABLE 22 */

     1156    28570    3               DO CASE( PCTX.STATE);
PL6.E3A0      #001=XSP$MACHINE File=XSP$MACHINE.:XSA1TSI                         WED 10/01/97 12:04 Page:276

  28570  1 007771   000000 236100                    LDQ     0,,PR0
         1 007772   000033 772000                    QRL     27
         1 007773   000004 136007                    SBLQ    4,DL
         1 007774   000004 116007                    CMPQ    4,DL
         1 007775   007777 602006 1                  TNC     s:28570+6,QL
         1 007776   010057 710000 1                  TRA     s:28799
         1 007777   010003 710000 1                  TRA     s:28581
         1 010000   010031 710000 1                  TRA     s:28694
         1 010001   010003 710000 1                  TRA     s:28581
         1 010002   010031 710000 1                  TRA     s:28694

     1157    28571    3                   CASE( %XSP_PST_AC0,

     1158    28572    3                         %XSP_PST_AC2);
     1159    28573                            %IFPREDDO( P="07");

  28581  1 010003   400000 236003                    LDQ     -131072,DU
         1 010004   200014 756100                    STQ     CONTINUING,,AUTO

  28641  1 010005   200013 236100                    LDQ     PINV,,AUTO
         1 010006   002000 316003                    CANQ    1024,DU
         1 010007   010012 600000 1                  TZE     s:28651

  28641  1 010010   013401 701000 1                  TSX1    PRED07
         1 010011   000000 011000                    NOP     0

  28651  1 010012   200012 236100                    LDQ     PRED,,AUTO
         1 010013   002000 316003                    CANQ    1024,DU
         1 010014   010024 600000 1                  TZE     s:28682

  28670  1 010015   200014 450100                    STZ     CONTINUING,,AUTO

     1160    28672                                %ACTION02;

  28673  1 010016   012714 701000 1                  TSX1    ACTION02
         1 010017   000000 011000                    NOP     0
PL6.E3A0      #001=XSP$MACHINE File=XSP$MACHINE.:XSA1TSI                         WED 10/01/97 12:04 Page:277

     1161    28675                                %EVENT( EV=%XSP_PEV_SRELRSN);

  28676  1 010020   000161 236000 2                  LDQ     113
         1 010021   200017 756100                    STQ     CONTINUING+3,,AUTO
         1 010022   012517 701000 1                  TSX1    EVNT
         1 010023   012433 702000 1                  TSX2    EVNTERR

     1162    28678    4                           END;

     1163    28679                            %ENDPREDDO;

  28682  1 010024   200014 234100                    SZN     CONTINUING,,AUTO
         1 010025   012432 605000 1                  TPL     s:37359

  28682  1 010026   012644 701000 1                  TSX1    OOPS
         1 010027   000000 011000                    NOP     0
         1 010030   012432 710000 1                  TRA     s:37359

     1164    28684    3                   CASE( %XSP_PST_AC1,

     1165    28685    3                         %XSP_PST_T0);
     1166    28686                            %IFPREDDO( P="05");

  28694  1 010031   400000 236003                    LDQ     -131072,DU
         1 010032   200014 756100                    STQ     CONTINUING,,AUTO

  28754  1 010033   200013 236100                    LDQ     PINV,,AUTO
         1 010034   010000 316003                    CANQ    4096,DU
         1 010035   010040 600000 1                  TZE     s:28764

  28754  1 010036   013347 701000 1                  TSX1    PRED05
         1 010037   000000 011000                    NOP     0

  28764  1 010040   200012 236100                    LDQ     PRED,,AUTO
         1 010041   010000 316003                    CANQ    4096,DU
         1 010042   010052 600000 1                  TZE     s:28795
PL6.E3A0      #001=XSP$MACHINE File=XSP$MACHINE.:XSA1TSI                         WED 10/01/97 12:04 Page:278

  28783  1 010043   200014 450100                    STZ     CONTINUING,,AUTO

     1167    28785                                %ACTION02;

  28786  1 010044   012714 701000 1                  TSX1    ACTION02
         1 010045   000000 011000                    NOP     0

     1168    28788                                %EVENT( EV=%XSP_PEV_SRELRSN);

  28789  1 010046   000161 236000 2                  LDQ     113
         1 010047   200017 756100                    STQ     CONTINUING+3,,AUTO
         1 010050   012517 701000 1                  TSX1    EVNT
         1 010051   012433 702000 1                  TSX2    EVNTERR

     1169    28791    4                           END;

     1170    28792                            %ENDPREDDO;

  28795  1 010052   200014 234100                    SZN     CONTINUING,,AUTO
         1 010053   012432 605000 1                  TPL     s:37359

  28795  1 010054   012644 701000 1                  TSX1    OOPS
         1 010055   000000 011000                    NOP     0
         1 010056   012432 710000 1                  TRA     s:37359

     1171    28797    3                   CASE( ELSE);

     1172    28798                            %INVALID;

  28799  1 010057   012644 701000 1                  TSX1    OOPS
         1 010060   000000 011000                    NOP     0

     1173    28801    3                   END;

  28801  1 010061   012432 710000 1                  TRA     s:37359

PL6.E3A0      #001=XSP$MACHINE File=XSP$MACHINE.:XSA1TSI                         WED 10/01/97 12:04 Page:279
     1174    28802    2           CASE( %XSP_PEV_PRSXREQ);                /* TABLE 29 */

     1175    28803    3               DO CASE( PCTX.STATE);

  28803  1 010062   000000 236100                    LDQ     0,,PR0
         1 010063   000033 772000                    QRL     27
         1 010064   000004 136007                    SBLQ    4,DL
         1 010065   000004 116007                    CMPQ    4,DL
         1 010066   010070 602006 1                  TNC     s:28803+6,QL
         1 010067   011024 710000 1                  TRA     s:32856
         1 010070   010074 710000 1                  TRA     s:28814
         1 010071   010313 710000 1                  TRA     s:29982
         1 010072   010074 710000 1                  TRA     s:28814
         1 010073   010532 710000 1                  TRA     s:31150

     1176    28804    3                   CASE( %XSP_PST_AC0,

     1177    28805    3                         %XSP_PST_AC2);
     1178    28806                            %IFPREDDO( P="-17&07");

  28814  1 010074   400000 236003                    LDQ     -131072,DU
         1 010075   200014 756100                    STQ     CONTINUING,,AUTO

  28878  1 010076   200013 236100                    LDQ     PINV,,AUTO
         1 010077   000001 316003                    CANQ    1,DU
         1 010100   010103 600000 1                  TZE     s:28887

  28878  1 010101   013475 701000 1                  TSX1    PRED17
         1 010102   000000 011000                    NOP     0

  28887  1 010103   200012 236100                    LDQ     PRED,,AUTO
         1 010104   000001 316003                    CANQ    1,DU
         1 010105   010126 601000 1                  TNZ     s:29025

  28962  1 010106   200013 236100                    LDQ     PINV,,AUTO
         1 010107   002000 316003                    CANQ    1024,DU
         1 010110   010113 600000 1                  TZE     s:28972
PL6.E3A0      #001=XSP$MACHINE File=XSP$MACHINE.:XSA1TSI                         WED 10/01/97 12:04 Page:280

  28962  1 010111   013401 701000 1                  TSX1    PRED07
         1 010112   000000 011000                    NOP     0

  28972  1 010113   200012 236100                    LDQ     PRED,,AUTO
         1 010114   002000 316003                    CANQ    1024,DU
         1 010115   010126 600000 1                  TZE     s:29025

  29011  1 010116   200014 450100                    STZ     CONTINUING,,AUTO

     1179    29013                                %EVENT( EV=%XSP_PEV_RS);

  29014  1 010117   000163 236000 2                  LDQ     115
         1 010120   200017 756100                    STQ     CONTINUING+3,,AUTO
         1 010121   012517 701000 1                  TSX1    EVNT
         1 010122   012433 702000 1                  TSX2    EVNTERR

     1180    29016    4                           PCTX.STATE = %XSP_PST_T0;

  29016  1 010123   200010 470500                    LDP0    PCTX$,,AUTO
         1 010124   007000 236003                    LDQ     3584,DU
         1 010125   000000 552140                    STBQ    0,'40'O,PR0

     1181    29017    4                           END;

     1182    29018                            %ELSEPREDDO( P="17&19&07");

  29025  1 010126   200014 234100                    SZN     CONTINUING,,AUTO
         1 010127   010170 605000 1                  TPL     s:29297

  29070  1 010130   200013 236100                    LDQ     PINV,,AUTO
         1 010131   000001 316003                    CANQ    1,DU
         1 010132   010135 600000 1                  TZE     s:29079

  29070  1 010133   013475 701000 1                  TSX1    PRED17
         1 010134   000000 011000                    NOP     0

PL6.E3A0      #001=XSP$MACHINE File=XSP$MACHINE.:XSA1TSI                         WED 10/01/97 12:04 Page:281
  29079  1 010135   200012 236100                    LDQ     PRED,,AUTO
         1 010136   000001 316003                    CANQ    1,DU
         1 010137   010170 600000 1                  TZE     s:29297

  29140  1 010140   200013 236100                    LDQ     PINV,,AUTO
         1 010141   200000 316007                    CANQ    65536,DL
         1 010142   010145 600000 1                  TZE     s:29149

  29140  1 010143   013513 701000 1                  TSX1    PRED19
         1 010144   000000 011000                    NOP     0

  29149  1 010145   200012 236100                    LDQ     PRED,,AUTO
         1 010146   200000 316007                    CANQ    65536,DL
         1 010147   010170 600000 1                  TZE     s:29297

  29224  1 010150   200013 236100                    LDQ     PINV,,AUTO
         1 010151   002000 316003                    CANQ    1024,DU
         1 010152   010155 600000 1                  TZE     s:29234

  29224  1 010153   013401 701000 1                  TSX1    PRED07
         1 010154   000000 011000                    NOP     0

  29234  1 010155   200012 236100                    LDQ     PRED,,AUTO
         1 010156   002000 316003                    CANQ    1024,DU
         1 010157   010170 600000 1                  TZE     s:29297

  29283  1 010160   200014 450100                    STZ     CONTINUING,,AUTO

     1183    29285                                %EVENT( EV=%XSP_PEV_RS);

  29286  1 010161   000163 236000 2                  LDQ     115
         1 010162   200017 756100                    STQ     CONTINUING+3,,AUTO
         1 010163   012517 701000 1                  TSX1    EVNT
         1 010164   012433 702000 1                  TSX2    EVNTERR

     1184    29288    4                           PCTX.STATE = %XSP_PST_T0;

PL6.E3A0      #001=XSP$MACHINE File=XSP$MACHINE.:XSA1TSI                         WED 10/01/97 12:04 Page:282
  29288  1 010165   200010 470500                    LDP0    PCTX$,,AUTO
         1 010166   007000 236003                    LDQ     3584,DU
         1 010167   000000 552140                    STBQ    0,'40'O,PR0

     1185    29289    4                           END;

     1186    29290                            %ELSEPREDDO( P="17&26&18");

  29297  1 010170   200014 234100                    SZN     CONTINUING,,AUTO
         1 010171   010232 605000 1                  TPL     s:29569

  29342  1 010172   200013 236100                    LDQ     PINV,,AUTO
         1 010173   000001 316003                    CANQ    1,DU
         1 010174   010177 600000 1                  TZE     s:29351

  29342  1 010175   013475 701000 1                  TSX1    PRED17
         1 010176   000000 011000                    NOP     0

  29351  1 010177   200012 236100                    LDQ     PRED,,AUTO
         1 010200   000001 316003                    CANQ    1,DU
         1 010201   010232 600000 1                  TZE     s:29569

  29412  1 010202   200013 236100                    LDQ     PINV,,AUTO
         1 010203   001000 316007                    CANQ    512,DL
         1 010204   010207 600000 1                  TZE     s:29421

  29412  1 010205   013577 701000 1                  TSX1    PRED26
         1 010206   000000 011000                    NOP     0

  29421  1 010207   200012 236100                    LDQ     PRED,,AUTO
         1 010210   001000 316007                    CANQ    512,DL
         1 010211   010232 600000 1                  TZE     s:29569

  29496  1 010212   200013 236100                    LDQ     PINV,,AUTO
         1 010213   400000 316007                    CANQ    -131072,DL
         1 010214   010217 600000 1                  TZE     s:29506

PL6.E3A0      #001=XSP$MACHINE File=XSP$MACHINE.:XSA1TSI                         WED 10/01/97 12:04 Page:283
  29496  1 010215   013507 701000 1                  TSX1    PRED18
         1 010216   000000 011000                    NOP     0

  29506  1 010217   200012 236100                    LDQ     PRED,,AUTO
         1 010220   400000 316007                    CANQ    -131072,DL
         1 010221   010232 600000 1                  TZE     s:29569

  29555  1 010222   200014 450100                    STZ     CONTINUING,,AUTO

     1187    29557                                %EVENT( EV=%XSP_PEV_RS);

  29558  1 010223   000163 236000 2                  LDQ     115
         1 010224   200017 756100                    STQ     CONTINUING+3,,AUTO
         1 010225   012517 701000 1                  TSX1    EVNT
         1 010226   012433 702000 1                  TSX2    EVNTERR

     1188    29560    4                           PCTX.STATE = %XSP_PST_T0;

  29560  1 010227   200010 470500                    LDP0    PCTX$,,AUTO
         1 010230   007000 236003                    LDQ     3584,DU
         1 010231   000000 552140                    STBQ    0,'40'O,PR0

     1189    29561    4                           END;

     1190    29562                            %ELSEPREDDO( P="17&-19&-26&15");

  29569  1 010232   200014 234100                    SZN     CONTINUING,,AUTO
         1 010233   010306 605000 1                  TPL     s:29971

  29614  1 010234   200013 236100                    LDQ     PINV,,AUTO
         1 010235   000001 316003                    CANQ    1,DU
         1 010236   010241 600000 1                  TZE     s:29623

  29614  1 010237   013475 701000 1                  TSX1    PRED17
         1 010240   000000 011000                    NOP     0

  29623  1 010241   200012 236100                    LDQ     PRED,,AUTO
PL6.E3A0      #001=XSP$MACHINE File=XSP$MACHINE.:XSA1TSI                         WED 10/01/97 12:04 Page:284
         1 010242   000001 316003                    CANQ    1,DU
         1 010243   010306 600000 1                  TZE     s:29971

  29702  1 010244   200013 236100                    LDQ     PINV,,AUTO
         1 010245   200000 316007                    CANQ    65536,DL
         1 010246   010251 600000 1                  TZE     s:29711

  29702  1 010247   013513 701000 1                  TSX1    PRED19
         1 010250   000000 011000                    NOP     0

  29711  1 010251   200012 236100                    LDQ     PRED,,AUTO
         1 010252   200000 316007                    CANQ    65536,DL
         1 010253   010306 601000 1                  TNZ     s:29971

  29790  1 010254   200013 236100                    LDQ     PINV,,AUTO
         1 010255   001000 316007                    CANQ    512,DL
         1 010256   010261 600000 1                  TZE     s:29799

  29790  1 010257   013577 701000 1                  TSX1    PRED26
         1 010260   000000 011000                    NOP     0

  29799  1 010261   200012 236100                    LDQ     PRED,,AUTO
         1 010262   001000 316007                    CANQ    512,DL
         1 010263   010306 601000 1                  TNZ     s:29971

  29874  1 010264   200013 236100                    LDQ     PINV,,AUTO
         1 010265   000004 316003                    CANQ    4,DU
         1 010266   010271 600000 1                  TZE     s:29884

  29874  1 010267   013465 701000 1                  TSX1    PRED15
         1 010270   000000 011000                    NOP     0

  29884  1 010271   200012 236100                    LDQ     PRED,,AUTO
         1 010272   000004 316003                    CANQ    4,DU
         1 010273   010306 600000 1                  TZE     s:29971

  29958  1 010274   200014 450100                    STZ     CONTINUING,,AUTO
PL6.E3A0      #001=XSP$MACHINE File=XSP$MACHINE.:XSA1TSI                         WED 10/01/97 12:04 Page:285

     1191    29960                                %ACTION18;

  29961  1 010275   013126 701000 1                  TSX1    ACTION18
         1 010276   000000 011000                    NOP     0

     1192    29963                                %EVENT( EV=%XSP_PEV_RS);

  29964  1 010277   000163 236000 2                  LDQ     115
         1 010300   200017 756100                    STQ     CONTINUING+3,,AUTO
         1 010301   012517 701000 1                  TSX1    EVNT
         1 010302   012433 702000 1                  TSX2    EVNTERR

     1193    29966    4                           PCTX.STATE = %XSP_PST_T0;

  29966  1 010303   200010 470500                    LDP0    PCTX$,,AUTO
         1 010304   007000 236003                    LDQ     3584,DU
         1 010305   000000 552140                    STBQ    0,'40'O,PR0

     1194    29967    4                           END;

     1195    29968                            %ENDPREDDO;

  29971  1 010306   200014 234100                    SZN     CONTINUING,,AUTO
         1 010307   012432 605000 1                  TPL     s:37359

  29971  1 010310   012644 701000 1                  TSX1    OOPS
         1 010311   000000 011000                    NOP     0
         1 010312   012432 710000 1                  TRA     s:37359

     1196    29973    3                   CASE( %XSP_PST_AC1);

     1197    29974                            %IFPREDDO( P="-17&05");

  29982  1 010313   400000 236003                    LDQ     -131072,DU
         1 010314   200014 756100                    STQ     CONTINUING,,AUTO

PL6.E3A0      #001=XSP$MACHINE File=XSP$MACHINE.:XSA1TSI                         WED 10/01/97 12:04 Page:286
  30046  1 010315   200013 236100                    LDQ     PINV,,AUTO
         1 010316   000001 316003                    CANQ    1,DU
         1 010317   010322 600000 1                  TZE     s:30055

  30046  1 010320   013475 701000 1                  TSX1    PRED17
         1 010321   000000 011000                    NOP     0

  30055  1 010322   200012 236100                    LDQ     PRED,,AUTO
         1 010323   000001 316003                    CANQ    1,DU
         1 010324   010345 601000 1                  TNZ     s:30193

  30130  1 010325   200013 236100                    LDQ     PINV,,AUTO
         1 010326   010000 316003                    CANQ    4096,DU
         1 010327   010332 600000 1                  TZE     s:30140

  30130  1 010330   013347 701000 1                  TSX1    PRED05
         1 010331   000000 011000                    NOP     0

  30140  1 010332   200012 236100                    LDQ     PRED,,AUTO
         1 010333   010000 316003                    CANQ    4096,DU
         1 010334   010345 600000 1                  TZE     s:30193

  30179  1 010335   200014 450100                    STZ     CONTINUING,,AUTO

     1198    30181                                %EVENT( EV=%XSP_PEV_RS);

  30182  1 010336   000163 236000 2                  LDQ     115
         1 010337   200017 756100                    STQ     CONTINUING+3,,AUTO
         1 010340   012517 701000 1                  TSX1    EVNT
         1 010341   012433 702000 1                  TSX2    EVNTERR

     1199    30184    4                           PCTX.STATE = %XSP_PST_T0;

  30184  1 010342   200010 470500                    LDP0    PCTX$,,AUTO
         1 010343   007000 236003                    LDQ     3584,DU
         1 010344   000000 552140                    STBQ    0,'40'O,PR0

PL6.E3A0      #001=XSP$MACHINE File=XSP$MACHINE.:XSA1TSI                         WED 10/01/97 12:04 Page:287
     1200    30185    4                           END;

     1201    30186                            %ELSEPREDDO( P="17&19&05");

  30193  1 010345   200014 234100                    SZN     CONTINUING,,AUTO
         1 010346   010407 605000 1                  TPL     s:30465

  30238  1 010347   200013 236100                    LDQ     PINV,,AUTO
         1 010350   000001 316003                    CANQ    1,DU
         1 010351   010354 600000 1                  TZE     s:30247

  30238  1 010352   013475 701000 1                  TSX1    PRED17
         1 010353   000000 011000                    NOP     0

  30247  1 010354   200012 236100                    LDQ     PRED,,AUTO
         1 010355   000001 316003                    CANQ    1,DU
         1 010356   010407 600000 1                  TZE     s:30465

  30308  1 010357   200013 236100                    LDQ     PINV,,AUTO
         1 010360   200000 316007                    CANQ    65536,DL
         1 010361   010364 600000 1                  TZE     s:30317

  30308  1 010362   013513 701000 1                  TSX1    PRED19
         1 010363   000000 011000                    NOP     0

  30317  1 010364   200012 236100                    LDQ     PRED,,AUTO
         1 010365   200000 316007                    CANQ    65536,DL
         1 010366   010407 600000 1                  TZE     s:30465

  30392  1 010367   200013 236100                    LDQ     PINV,,AUTO
         1 010370   010000 316003                    CANQ    4096,DU
         1 010371   010374 600000 1                  TZE     s:30402

  30392  1 010372   013347 701000 1                  TSX1    PRED05
         1 010373   000000 011000                    NOP     0

  30402  1 010374   200012 236100                    LDQ     PRED,,AUTO
PL6.E3A0      #001=XSP$MACHINE File=XSP$MACHINE.:XSA1TSI                         WED 10/01/97 12:04 Page:288
         1 010375   010000 316003                    CANQ    4096,DU
         1 010376   010407 600000 1                  TZE     s:30465

  30451  1 010377   200014 450100                    STZ     CONTINUING,,AUTO

     1202    30453                                %EVENT( EV=%XSP_PEV_RS);

  30454  1 010400   000163 236000 2                  LDQ     115
         1 010401   200017 756100                    STQ     CONTINUING+3,,AUTO
         1 010402   012517 701000 1                  TSX1    EVNT
         1 010403   012433 702000 1                  TSX2    EVNTERR

     1203    30456    4                           PCTX.STATE = %XSP_PST_T0;

  30456  1 010404   200010 470500                    LDP0    PCTX$,,AUTO
         1 010405   007000 236003                    LDQ     3584,DU
         1 010406   000000 552140                    STBQ    0,'40'O,PR0

     1204    30457    4                           END;

     1205    30458                            %ELSEPREDDO( P="17&26&18");

  30465  1 010407   200014 234100                    SZN     CONTINUING,,AUTO
         1 010410   010451 605000 1                  TPL     s:30737

  30510  1 010411   200013 236100                    LDQ     PINV,,AUTO
         1 010412   000001 316003                    CANQ    1,DU
         1 010413   010416 600000 1                  TZE     s:30519

  30510  1 010414   013475 701000 1                  TSX1    PRED17
         1 010415   000000 011000                    NOP     0

  30519  1 010416   200012 236100                    LDQ     PRED,,AUTO
         1 010417   000001 316003                    CANQ    1,DU
         1 010420   010451 600000 1                  TZE     s:30737

  30580  1 010421   200013 236100                    LDQ     PINV,,AUTO
PL6.E3A0      #001=XSP$MACHINE File=XSP$MACHINE.:XSA1TSI                         WED 10/01/97 12:04 Page:289
         1 010422   001000 316007                    CANQ    512,DL
         1 010423   010426 600000 1                  TZE     s:30589

  30580  1 010424   013577 701000 1                  TSX1    PRED26
         1 010425   000000 011000                    NOP     0

  30589  1 010426   200012 236100                    LDQ     PRED,,AUTO
         1 010427   001000 316007                    CANQ    512,DL
         1 010430   010451 600000 1                  TZE     s:30737

  30664  1 010431   200013 236100                    LDQ     PINV,,AUTO
         1 010432   400000 316007                    CANQ    -131072,DL
         1 010433   010436 600000 1                  TZE     s:30674

  30664  1 010434   013507 701000 1                  TSX1    PRED18
         1 010435   000000 011000                    NOP     0

  30674  1 010436   200012 236100                    LDQ     PRED,,AUTO
         1 010437   400000 316007                    CANQ    -131072,DL
         1 010440   010451 600000 1                  TZE     s:30737

  30723  1 010441   200014 450100                    STZ     CONTINUING,,AUTO

     1206    30725                                %EVENT( EV=%XSP_PEV_RS);

  30726  1 010442   000163 236000 2                  LDQ     115
         1 010443   200017 756100                    STQ     CONTINUING+3,,AUTO
         1 010444   012517 701000 1                  TSX1    EVNT
         1 010445   012433 702000 1                  TSX2    EVNTERR

     1207    30728    4                           PCTX.STATE = %XSP_PST_T0;

  30728  1 010446   200010 470500                    LDP0    PCTX$,,AUTO
         1 010447   007000 236003                    LDQ     3584,DU
         1 010450   000000 552140                    STBQ    0,'40'O,PR0

     1208    30729    4                           END;
PL6.E3A0      #001=XSP$MACHINE File=XSP$MACHINE.:XSA1TSI                         WED 10/01/97 12:04 Page:290

     1209    30730                            %ELSEPREDDO( P="17&-19&-26&15");

  30737  1 010451   200014 234100                    SZN     CONTINUING,,AUTO
         1 010452   010525 605000 1                  TPL     s:31139

  30782  1 010453   200013 236100                    LDQ     PINV,,AUTO
         1 010454   000001 316003                    CANQ    1,DU
         1 010455   010460 600000 1                  TZE     s:30791

  30782  1 010456   013475 701000 1                  TSX1    PRED17
         1 010457   000000 011000                    NOP     0

  30791  1 010460   200012 236100                    LDQ     PRED,,AUTO
         1 010461   000001 316003                    CANQ    1,DU
         1 010462   010525 600000 1                  TZE     s:31139

  30870  1 010463   200013 236100                    LDQ     PINV,,AUTO
         1 010464   200000 316007                    CANQ    65536,DL
         1 010465   010470 600000 1                  TZE     s:30879

  30870  1 010466   013513 701000 1                  TSX1    PRED19
         1 010467   000000 011000                    NOP     0

  30879  1 010470   200012 236100                    LDQ     PRED,,AUTO
         1 010471   200000 316007                    CANQ    65536,DL
         1 010472   010525 601000 1                  TNZ     s:31139

  30958  1 010473   200013 236100                    LDQ     PINV,,AUTO
         1 010474   001000 316007                    CANQ    512,DL
         1 010475   010500 600000 1                  TZE     s:30967

  30958  1 010476   013577 701000 1                  TSX1    PRED26
         1 010477   000000 011000                    NOP     0

  30967  1 010500   200012 236100                    LDQ     PRED,,AUTO
         1 010501   001000 316007                    CANQ    512,DL
PL6.E3A0      #001=XSP$MACHINE File=XSP$MACHINE.:XSA1TSI                         WED 10/01/97 12:04 Page:291
         1 010502   010525 601000 1                  TNZ     s:31139

  31042  1 010503   200013 236100                    LDQ     PINV,,AUTO
         1 010504   000004 316003                    CANQ    4,DU
         1 010505   010510 600000 1                  TZE     s:31052

  31042  1 010506   013465 701000 1                  TSX1    PRED15
         1 010507   000000 011000                    NOP     0

  31052  1 010510   200012 236100                    LDQ     PRED,,AUTO
         1 010511   000004 316003                    CANQ    4,DU
         1 010512   010525 600000 1                  TZE     s:31139

  31126  1 010513   200014 450100                    STZ     CONTINUING,,AUTO

     1210    31128                                %ACTION18;

  31129  1 010514   013126 701000 1                  TSX1    ACTION18
         1 010515   000000 011000                    NOP     0

     1211    31131                                %EVENT( EV=%XSP_PEV_RS);

  31132  1 010516   000163 236000 2                  LDQ     115
         1 010517   200017 756100                    STQ     CONTINUING+3,,AUTO
         1 010520   012517 701000 1                  TSX1    EVNT
         1 010521   012433 702000 1                  TSX2    EVNTERR

     1212    31134    4                           PCTX.STATE = %XSP_PST_T0;

  31134  1 010522   200010 470500                    LDP0    PCTX$,,AUTO
         1 010523   007000 236003                    LDQ     3584,DU
         1 010524   000000 552140                    STBQ    0,'40'O,PR0

     1213    31135    4                           END;

     1214    31136                            %ENDPREDDO;

PL6.E3A0      #001=XSP$MACHINE File=XSP$MACHINE.:XSA1TSI                         WED 10/01/97 12:04 Page:292
  31139  1 010525   200014 234100                    SZN     CONTINUING,,AUTO
         1 010526   012432 605000 1                  TPL     s:37359

  31139  1 010527   012644 701000 1                  TSX1    OOPS
         1 010530   000000 011000                    NOP     0
         1 010531   012432 710000 1                  TRA     s:37359

     1215    31141    3                   CASE( %XSP_PST_T0);

     1216    31142                            %IFPREDDO( P="-11&05");

  31150  1 010532   400000 236003                    LDQ     -131072,DU
         1 010533   200014 756100                    STQ     CONTINUING,,AUTO

  31214  1 010534   200013 236100                    LDQ     PINV,,AUTO
         1 010535   000100 316003                    CANQ    64,DU
         1 010536   010541 600000 1                  TZE     s:31223

  31214  1 010537   013425 701000 1                  TSX1    PRED11
         1 010540   000000 011000                    NOP     0

  31223  1 010541   200012 236100                    LDQ     PRED,,AUTO
         1 010542   000100 316003                    CANQ    64,DU
         1 010543   010561 601000 1                  TNZ     s:31360

  31298  1 010544   200013 236100                    LDQ     PINV,,AUTO
         1 010545   010000 316003                    CANQ    4096,DU
         1 010546   010551 600000 1                  TZE     s:31308

  31298  1 010547   013347 701000 1                  TSX1    PRED05
         1 010550   000000 011000                    NOP     0

  31308  1 010551   200012 236100                    LDQ     PRED,,AUTO
         1 010552   010000 316003                    CANQ    4096,DU
         1 010553   010561 600000 1                  TZE     s:31360

  31347  1 010554   200014 450100                    STZ     CONTINUING,,AUTO
PL6.E3A0      #001=XSP$MACHINE File=XSP$MACHINE.:XSA1TSI                         WED 10/01/97 12:04 Page:293

     1217    31349                                %EVENT( EV=%XSP_PEV_RS);

  31350  1 010555   000163 236000 2                  LDQ     115
         1 010556   200017 756100                    STQ     CONTINUING+3,,AUTO
         1 010557   012517 701000 1                  TSX1    EVNT
         1 010560   012433 702000 1                  TSX2    EVNTERR

     1218    31352    4                           END;

     1219    31353                            %ELSEPREDDO( P="11&-17&05");

  31360  1 010561   200014 234100                    SZN     CONTINUING,,AUTO
         1 010562   010620 605000 1                  TPL     s:31654

  31405  1 010563   200013 236100                    LDQ     PINV,,AUTO
         1 010564   000100 316003                    CANQ    64,DU
         1 010565   010570 600000 1                  TZE     s:31414

  31405  1 010566   013425 701000 1                  TSX1    PRED11
         1 010567   000000 011000                    NOP     0

  31414  1 010570   200012 236100                    LDQ     PRED,,AUTO
         1 010571   000100 316003                    CANQ    64,DU
         1 010572   010620 600000 1                  TZE     s:31654

  31493  1 010573   200013 236100                    LDQ     PINV,,AUTO
         1 010574   000001 316003                    CANQ    1,DU
         1 010575   010600 600000 1                  TZE     s:31502

  31493  1 010576   013475 701000 1                  TSX1    PRED17
         1 010577   000000 011000                    NOP     0

  31502  1 010600   200012 236100                    LDQ     PRED,,AUTO
         1 010601   000001 316003                    CANQ    1,DU
         1 010602   010620 601000 1                  TNZ     s:31654

PL6.E3A0      #001=XSP$MACHINE File=XSP$MACHINE.:XSA1TSI                         WED 10/01/97 12:04 Page:294
  31577  1 010603   200013 236100                    LDQ     PINV,,AUTO
         1 010604   010000 316003                    CANQ    4096,DU
         1 010605   010610 600000 1                  TZE     s:31587

  31577  1 010606   013347 701000 1                  TSX1    PRED05
         1 010607   000000 011000                    NOP     0

  31587  1 010610   200012 236100                    LDQ     PRED,,AUTO
         1 010611   010000 316003                    CANQ    4096,DU
         1 010612   010620 600000 1                  TZE     s:31654

  31641  1 010613   200014 450100                    STZ     CONTINUING,,AUTO

     1220    31643                                %EVENT( EV=%XSP_PEV_RS);

  31644  1 010614   000163 236000 2                  LDQ     115
         1 010615   200017 756100                    STQ     CONTINUING+3,,AUTO
         1 010616   012517 701000 1                  TSX1    EVNT
         1 010617   012433 702000 1                  TSX2    EVNTERR

     1221    31646    4                           END;

     1222    31647                            %ELSEPREDDO( P="11&17&19&05");

  31654  1 010620   200014 234100                    SZN     CONTINUING,,AUTO
         1 010621   010667 605000 1                  TPL     s:32010

  31699  1 010622   200013 236100                    LDQ     PINV,,AUTO
         1 010623   000100 316003                    CANQ    64,DU
         1 010624   010627 600000 1                  TZE     s:31708

  31699  1 010625   013425 701000 1                  TSX1    PRED11
         1 010626   000000 011000                    NOP     0

  31708  1 010627   200012 236100                    LDQ     PRED,,AUTO
         1 010630   000100 316003                    CANQ    64,DU
         1 010631   010667 600000 1                  TZE     s:32010
PL6.E3A0      #001=XSP$MACHINE File=XSP$MACHINE.:XSA1TSI                         WED 10/01/97 12:04 Page:295

  31769  1 010632   200013 236100                    LDQ     PINV,,AUTO
         1 010633   000001 316003                    CANQ    1,DU
         1 010634   010637 600000 1                  TZE     s:31778

  31769  1 010635   013475 701000 1                  TSX1    PRED17
         1 010636   000000 011000                    NOP     0

  31778  1 010637   200012 236100                    LDQ     PRED,,AUTO
         1 010640   000001 316003                    CANQ    1,DU
         1 010641   010667 600000 1                  TZE     s:32010

  31839  1 010642   200013 236100                    LDQ     PINV,,AUTO
         1 010643   200000 316007                    CANQ    65536,DL
         1 010644   010647 600000 1                  TZE     s:31848

  31839  1 010645   013513 701000 1                  TSX1    PRED19
         1 010646   000000 011000                    NOP     0

  31848  1 010647   200012 236100                    LDQ     PRED,,AUTO
         1 010650   200000 316007                    CANQ    65536,DL
         1 010651   010667 600000 1                  TZE     s:32010

  31923  1 010652   200013 236100                    LDQ     PINV,,AUTO
         1 010653   010000 316003                    CANQ    4096,DU
         1 010654   010657 600000 1                  TZE     s:31933

  31923  1 010655   013347 701000 1                  TSX1    PRED05
         1 010656   000000 011000                    NOP     0

  31933  1 010657   200012 236100                    LDQ     PRED,,AUTO
         1 010660   010000 316003                    CANQ    4096,DU
         1 010661   010667 600000 1                  TZE     s:32010

  31997  1 010662   200014 450100                    STZ     CONTINUING,,AUTO

     1223    31999                                %EVENT( EV=%XSP_PEV_RS);
PL6.E3A0      #001=XSP$MACHINE File=XSP$MACHINE.:XSA1TSI                         WED 10/01/97 12:04 Page:296

  32000  1 010663   000163 236000 2                  LDQ     115
         1 010664   200017 756100                    STQ     CONTINUING+3,,AUTO
         1 010665   012517 701000 1                  TSX1    EVNT
         1 010666   012433 702000 1                  TSX2    EVNTERR

     1224    32002    4                           END;

     1225    32003                            %ELSEPREDDO( P="11&17&26&18");

  32010  1 010667   200014 234100                    SZN     CONTINUING,,AUTO
         1 010670   010736 605000 1                  TPL     s:32366

  32055  1 010671   200013 236100                    LDQ     PINV,,AUTO
         1 010672   000100 316003                    CANQ    64,DU
         1 010673   010676 600000 1                  TZE     s:32064

  32055  1 010674   013425 701000 1                  TSX1    PRED11
         1 010675   000000 011000                    NOP     0

  32064  1 010676   200012 236100                    LDQ     PRED,,AUTO
         1 010677   000100 316003                    CANQ    64,DU
         1 010700   010736 600000 1                  TZE     s:32366

  32125  1 010701   200013 236100                    LDQ     PINV,,AUTO
         1 010702   000001 316003                    CANQ    1,DU
         1 010703   010706 600000 1                  TZE     s:32134

  32125  1 010704   013475 701000 1                  TSX1    PRED17
         1 010705   000000 011000                    NOP     0

  32134  1 010706   200012 236100                    LDQ     PRED,,AUTO
         1 010707   000001 316003                    CANQ    1,DU
         1 010710   010736 600000 1                  TZE     s:32366

  32195  1 010711   200013 236100                    LDQ     PINV,,AUTO
         1 010712   001000 316007                    CANQ    512,DL
PL6.E3A0      #001=XSP$MACHINE File=XSP$MACHINE.:XSA1TSI                         WED 10/01/97 12:04 Page:297
         1 010713   010716 600000 1                  TZE     s:32204

  32195  1 010714   013577 701000 1                  TSX1    PRED26
         1 010715   000000 011000                    NOP     0

  32204  1 010716   200012 236100                    LDQ     PRED,,AUTO
         1 010717   001000 316007                    CANQ    512,DL
         1 010720   010736 600000 1                  TZE     s:32366

  32279  1 010721   200013 236100                    LDQ     PINV,,AUTO
         1 010722   400000 316007                    CANQ    -131072,DL
         1 010723   010726 600000 1                  TZE     s:32289

  32279  1 010724   013507 701000 1                  TSX1    PRED18
         1 010725   000000 011000                    NOP     0

  32289  1 010726   200012 236100                    LDQ     PRED,,AUTO
         1 010727   400000 316007                    CANQ    -131072,DL
         1 010730   010736 600000 1                  TZE     s:32366

  32353  1 010731   200014 450100                    STZ     CONTINUING,,AUTO

     1226    32355                                %EVENT( EV=%XSP_PEV_RS);

  32356  1 010732   000163 236000 2                  LDQ     115
         1 010733   200017 756100                    STQ     CONTINUING+3,,AUTO
         1 010734   012517 701000 1                  TSX1    EVNT
         1 010735   012433 702000 1                  TSX2    EVNTERR

     1227    32358    4                           END;

     1228    32359                            %ELSEPREDDO( P="11&17&-19&-26&15");

  32366  1 010736   200014 234100                    SZN     CONTINUING,,AUTO
         1 010737   011017 605000 1                  TPL     s:32852

  32411  1 010740   200013 236100                    LDQ     PINV,,AUTO
PL6.E3A0      #001=XSP$MACHINE File=XSP$MACHINE.:XSA1TSI                         WED 10/01/97 12:04 Page:298
         1 010741   000100 316003                    CANQ    64,DU
         1 010742   010745 600000 1                  TZE     s:32420

  32411  1 010743   013425 701000 1                  TSX1    PRED11
         1 010744   000000 011000                    NOP     0

  32420  1 010745   200012 236100                    LDQ     PRED,,AUTO
         1 010746   000100 316003                    CANQ    64,DU
         1 010747   011017 600000 1                  TZE     s:32852

  32481  1 010750   200013 236100                    LDQ     PINV,,AUTO
         1 010751   000001 316003                    CANQ    1,DU
         1 010752   010755 600000 1                  TZE     s:32490

  32481  1 010753   013475 701000 1                  TSX1    PRED17
         1 010754   000000 011000                    NOP     0

  32490  1 010755   200012 236100                    LDQ     PRED,,AUTO
         1 010756   000001 316003                    CANQ    1,DU
         1 010757   011017 600000 1                  TZE     s:32852

  32569  1 010760   200013 236100                    LDQ     PINV,,AUTO
         1 010761   200000 316007                    CANQ    65536,DL
         1 010762   010765 600000 1                  TZE     s:32578

  32569  1 010763   013513 701000 1                  TSX1    PRED19
         1 010764   000000 011000                    NOP     0

  32578  1 010765   200012 236100                    LDQ     PRED,,AUTO
         1 010766   200000 316007                    CANQ    65536,DL
         1 010767   011017 601000 1                  TNZ     s:32852

  32657  1 010770   200013 236100                    LDQ     PINV,,AUTO
         1 010771   001000 316007                    CANQ    512,DL
         1 010772   010775 600000 1                  TZE     s:32666

  32657  1 010773   013577 701000 1                  TSX1    PRED26
PL6.E3A0      #001=XSP$MACHINE File=XSP$MACHINE.:XSA1TSI                         WED 10/01/97 12:04 Page:299
         1 010774   000000 011000                    NOP     0

  32666  1 010775   200012 236100                    LDQ     PRED,,AUTO
         1 010776   001000 316007                    CANQ    512,DL
         1 010777   011017 601000 1                  TNZ     s:32852

  32741  1 011000   200013 236100                    LDQ     PINV,,AUTO
         1 011001   000004 316003                    CANQ    4,DU
         1 011002   011005 600000 1                  TZE     s:32751

  32741  1 011003   013465 701000 1                  TSX1    PRED15
         1 011004   000000 011000                    NOP     0

  32751  1 011005   200012 236100                    LDQ     PRED,,AUTO
         1 011006   000004 316003                    CANQ    4,DU
         1 011007   011017 600000 1                  TZE     s:32852

  32840  1 011010   200014 450100                    STZ     CONTINUING,,AUTO

     1229    32842                                %ACTION18;

  32843  1 011011   013126 701000 1                  TSX1    ACTION18
         1 011012   000000 011000                    NOP     0

     1230    32845                                %EVENT( EV=%XSP_PEV_RS);

  32846  1 011013   000163 236000 2                  LDQ     115
         1 011014   200017 756100                    STQ     CONTINUING+3,,AUTO
         1 011015   012517 701000 1                  TSX1    EVNT
         1 011016   012433 702000 1                  TSX2    EVNTERR

     1231    32848    4                           END;

     1232    32849                            %ENDPREDDO;

  32852  1 011017   200014 234100                    SZN     CONTINUING,,AUTO
         1 011020   012432 605000 1                  TPL     s:37359
PL6.E3A0      #001=XSP$MACHINE File=XSP$MACHINE.:XSA1TSI                         WED 10/01/97 12:04 Page:300

  32852  1 011021   012644 701000 1                  TSX1    OOPS
         1 011022   000000 011000                    NOP     0
         1 011023   012432 710000 1                  TRA     s:37359

     1233    32854    3                   CASE( ELSE);

     1234    32855                            %INVALID;

  32856  1 011024   012644 701000 1                  TSX1    OOPS
         1 011025   000000 011000                    NOP     0

     1235    32858    3                   END;

  32858  1 011026   012432 710000 1                  TRA     s:37359

     1236    32859    2           CASE( %XSP_PEV_PRSXRSP);                /* TABLE 29 */

     1237    32860    3               IF PCTX.STATE = %XSP_PST_T0 THEN DO;

  32860  1 011027   000000 236100                    LDQ     0,,PR0
         1 011030   777000 376003                    ANQ     -512,DU
         1 011031   007000 116003                    CMPQ    3584,DU
         1 011032   011323 601000 1                  TNZ     s:34573

     1238    32861                        %IFPREDDO( P="-11&05");

  32869  1 011033   400000 236003                    LDQ     -131072,DU
         1 011034   200014 756100                    STQ     CONTINUING,,AUTO

  32933  1 011035   200013 236100                    LDQ     PINV,,AUTO
         1 011036   000100 316003                    CANQ    64,DU
         1 011037   011042 600000 1                  TZE     s:32942

  32933  1 011040   013425 701000 1                  TSX1    PRED11
         1 011041   000000 011000                    NOP     0

PL6.E3A0      #001=XSP$MACHINE File=XSP$MACHINE.:XSA1TSI                         WED 10/01/97 12:04 Page:301
  32942  1 011042   200012 236100                    LDQ     PRED,,AUTO
         1 011043   000100 316003                    CANQ    64,DU
         1 011044   011062 601000 1                  TNZ     s:33079

  33017  1 011045   200013 236100                    LDQ     PINV,,AUTO
         1 011046   010000 316003                    CANQ    4096,DU
         1 011047   011052 600000 1                  TZE     s:33027

  33017  1 011050   013347 701000 1                  TSX1    PRED05
         1 011051   000000 011000                    NOP     0

  33027  1 011052   200012 236100                    LDQ     PRED,,AUTO
         1 011053   010000 316003                    CANQ    4096,DU
         1 011054   011062 600000 1                  TZE     s:33079

  33066  1 011055   200014 450100                    STZ     CONTINUING,,AUTO

     1239    33068                            %EVENT( EV=%XSP_PEV_RSA);

  33069  1 011056   000165 236000 2                  LDQ     117
         1 011057   200017 756100                    STQ     CONTINUING+3,,AUTO
         1 011060   012517 701000 1                  TSX1    EVNT
         1 011061   012433 702000 1                  TSX2    EVNTERR

     1240    33071    4                       END;

     1241    33072                        %ELSEPREDDO( P="11&-17&05");

  33079  1 011062   200014 234100                    SZN     CONTINUING,,AUTO
         1 011063   011121 605000 1                  TPL     s:33373

  33124  1 011064   200013 236100                    LDQ     PINV,,AUTO
         1 011065   000100 316003                    CANQ    64,DU
         1 011066   011071 600000 1                  TZE     s:33133

  33124  1 011067   013425 701000 1                  TSX1    PRED11
         1 011070   000000 011000                    NOP     0
PL6.E3A0      #001=XSP$MACHINE File=XSP$MACHINE.:XSA1TSI                         WED 10/01/97 12:04 Page:302

  33133  1 011071   200012 236100                    LDQ     PRED,,AUTO
         1 011072   000100 316003                    CANQ    64,DU
         1 011073   011121 600000 1                  TZE     s:33373

  33212  1 011074   200013 236100                    LDQ     PINV,,AUTO
         1 011075   000001 316003                    CANQ    1,DU
         1 011076   011101 600000 1                  TZE     s:33221

  33212  1 011077   013475 701000 1                  TSX1    PRED17
         1 011100   000000 011000                    NOP     0

  33221  1 011101   200012 236100                    LDQ     PRED,,AUTO
         1 011102   000001 316003                    CANQ    1,DU
         1 011103   011121 601000 1                  TNZ     s:33373

  33296  1 011104   200013 236100                    LDQ     PINV,,AUTO
         1 011105   010000 316003                    CANQ    4096,DU
         1 011106   011111 600000 1                  TZE     s:33306

  33296  1 011107   013347 701000 1                  TSX1    PRED05
         1 011110   000000 011000                    NOP     0

  33306  1 011111   200012 236100                    LDQ     PRED,,AUTO
         1 011112   010000 316003                    CANQ    4096,DU
         1 011113   011121 600000 1                  TZE     s:33373

  33360  1 011114   200014 450100                    STZ     CONTINUING,,AUTO

     1242    33362                            %EVENT( EV=%XSP_PEV_RSA);

  33363  1 011115   000165 236000 2                  LDQ     117
         1 011116   200017 756100                    STQ     CONTINUING+3,,AUTO
         1 011117   012517 701000 1                  TSX1    EVNT
         1 011120   012433 702000 1                  TSX2    EVNTERR

     1243    33365    4                       END;
PL6.E3A0      #001=XSP$MACHINE File=XSP$MACHINE.:XSA1TSI                         WED 10/01/97 12:04 Page:303

     1244    33366                        %ELSEPREDDO( P="11&17&19&05");

  33373  1 011121   200014 234100                    SZN     CONTINUING,,AUTO
         1 011122   011170 605000 1                  TPL     s:33729

  33418  1 011123   200013 236100                    LDQ     PINV,,AUTO
         1 011124   000100 316003                    CANQ    64,DU
         1 011125   011130 600000 1                  TZE     s:33427

  33418  1 011126   013425 701000 1                  TSX1    PRED11
         1 011127   000000 011000                    NOP     0

  33427  1 011130   200012 236100                    LDQ     PRED,,AUTO
         1 011131   000100 316003                    CANQ    64,DU
         1 011132   011170 600000 1                  TZE     s:33729

  33488  1 011133   200013 236100                    LDQ     PINV,,AUTO
         1 011134   000001 316003                    CANQ    1,DU
         1 011135   011140 600000 1                  TZE     s:33497

  33488  1 011136   013475 701000 1                  TSX1    PRED17
         1 011137   000000 011000                    NOP     0

  33497  1 011140   200012 236100                    LDQ     PRED,,AUTO
         1 011141   000001 316003                    CANQ    1,DU
         1 011142   011170 600000 1                  TZE     s:33729

  33558  1 011143   200013 236100                    LDQ     PINV,,AUTO
         1 011144   200000 316007                    CANQ    65536,DL
         1 011145   011150 600000 1                  TZE     s:33567

  33558  1 011146   013513 701000 1                  TSX1    PRED19
         1 011147   000000 011000                    NOP     0

  33567  1 011150   200012 236100                    LDQ     PRED,,AUTO
         1 011151   200000 316007                    CANQ    65536,DL
PL6.E3A0      #001=XSP$MACHINE File=XSP$MACHINE.:XSA1TSI                         WED 10/01/97 12:04 Page:304
         1 011152   011170 600000 1                  TZE     s:33729

  33642  1 011153   200013 236100                    LDQ     PINV,,AUTO
         1 011154   010000 316003                    CANQ    4096,DU
         1 011155   011160 600000 1                  TZE     s:33652

  33642  1 011156   013347 701000 1                  TSX1    PRED05
         1 011157   000000 011000                    NOP     0

  33652  1 011160   200012 236100                    LDQ     PRED,,AUTO
         1 011161   010000 316003                    CANQ    4096,DU
         1 011162   011170 600000 1                  TZE     s:33729

  33716  1 011163   200014 450100                    STZ     CONTINUING,,AUTO

     1245    33718                            %EVENT( EV=%XSP_PEV_RSA);

  33719  1 011164   000165 236000 2                  LDQ     117
         1 011165   200017 756100                    STQ     CONTINUING+3,,AUTO
         1 011166   012517 701000 1                  TSX1    EVNT
         1 011167   012433 702000 1                  TSX2    EVNTERR

     1246    33721    4                       END;

     1247    33722                        %ELSEPREDDO( P="11&17&26&05");

  33729  1 011170   200014 234100                    SZN     CONTINUING,,AUTO
         1 011171   011237 605000 1                  TPL     s:34085

  33774  1 011172   200013 236100                    LDQ     PINV,,AUTO
         1 011173   000100 316003                    CANQ    64,DU
         1 011174   011177 600000 1                  TZE     s:33783

  33774  1 011175   013425 701000 1                  TSX1    PRED11
         1 011176   000000 011000                    NOP     0

  33783  1 011177   200012 236100                    LDQ     PRED,,AUTO
PL6.E3A0      #001=XSP$MACHINE File=XSP$MACHINE.:XSA1TSI                         WED 10/01/97 12:04 Page:305
         1 011200   000100 316003                    CANQ    64,DU
         1 011201   011237 600000 1                  TZE     s:34085

  33844  1 011202   200013 236100                    LDQ     PINV,,AUTO
         1 011203   000001 316003                    CANQ    1,DU
         1 011204   011207 600000 1                  TZE     s:33853

  33844  1 011205   013475 701000 1                  TSX1    PRED17
         1 011206   000000 011000                    NOP     0

  33853  1 011207   200012 236100                    LDQ     PRED,,AUTO
         1 011210   000001 316003                    CANQ    1,DU
         1 011211   011237 600000 1                  TZE     s:34085

  33914  1 011212   200013 236100                    LDQ     PINV,,AUTO
         1 011213   001000 316007                    CANQ    512,DL
         1 011214   011217 600000 1                  TZE     s:33923

  33914  1 011215   013577 701000 1                  TSX1    PRED26
         1 011216   000000 011000                    NOP     0

  33923  1 011217   200012 236100                    LDQ     PRED,,AUTO
         1 011220   001000 316007                    CANQ    512,DL
         1 011221   011237 600000 1                  TZE     s:34085

  33998  1 011222   200013 236100                    LDQ     PINV,,AUTO
         1 011223   010000 316003                    CANQ    4096,DU
         1 011224   011227 600000 1                  TZE     s:34008

  33998  1 011225   013347 701000 1                  TSX1    PRED05
         1 011226   000000 011000                    NOP     0

  34008  1 011227   200012 236100                    LDQ     PRED,,AUTO
         1 011230   010000 316003                    CANQ    4096,DU
         1 011231   011237 600000 1                  TZE     s:34085

  34072  1 011232   200014 450100                    STZ     CONTINUING,,AUTO
PL6.E3A0      #001=XSP$MACHINE File=XSP$MACHINE.:XSA1TSI                         WED 10/01/97 12:04 Page:306

     1248    34074                            %EVENT( EV=%XSP_PEV_RSA);

  34075  1 011233   000165 236000 2                  LDQ     117
         1 011234   200017 756100                    STQ     CONTINUING+3,,AUTO
         1 011235   012517 701000 1                  TSX1    EVNT
         1 011236   012433 702000 1                  TSX2    EVNTERR

     1249    34077    4                       END;

     1250    34078                        %ELSEPREDDO( P="11&17&-19&-26&05");

  34085  1 011237   200014 234100                    SZN     CONTINUING,,AUTO
         1 011240   011316 605000 1                  TPL     s:34568

  34130  1 011241   200013 236100                    LDQ     PINV,,AUTO
         1 011242   000100 316003                    CANQ    64,DU
         1 011243   011246 600000 1                  TZE     s:34139

  34130  1 011244   013425 701000 1                  TSX1    PRED11
         1 011245   000000 011000                    NOP     0

  34139  1 011246   200012 236100                    LDQ     PRED,,AUTO
         1 011247   000100 316003                    CANQ    64,DU
         1 011250   011316 600000 1                  TZE     s:34568

  34200  1 011251   200013 236100                    LDQ     PINV,,AUTO
         1 011252   000001 316003                    CANQ    1,DU
         1 011253   011256 600000 1                  TZE     s:34209

  34200  1 011254   013475 701000 1                  TSX1    PRED17
         1 011255   000000 011000                    NOP     0

  34209  1 011256   200012 236100                    LDQ     PRED,,AUTO
         1 011257   000001 316003                    CANQ    1,DU
         1 011260   011316 600000 1                  TZE     s:34568

PL6.E3A0      #001=XSP$MACHINE File=XSP$MACHINE.:XSA1TSI                         WED 10/01/97 12:04 Page:307
  34288  1 011261   200013 236100                    LDQ     PINV,,AUTO
         1 011262   200000 316007                    CANQ    65536,DL
         1 011263   011266 600000 1                  TZE     s:34297

  34288  1 011264   013513 701000 1                  TSX1    PRED19
         1 011265   000000 011000                    NOP     0

  34297  1 011266   200012 236100                    LDQ     PRED,,AUTO
         1 011267   200000 316007                    CANQ    65536,DL
         1 011270   011316 601000 1                  TNZ     s:34568

  34376  1 011271   200013 236100                    LDQ     PINV,,AUTO
         1 011272   001000 316007                    CANQ    512,DL
         1 011273   011276 600000 1                  TZE     s:34385

  34376  1 011274   013577 701000 1                  TSX1    PRED26
         1 011275   000000 011000                    NOP     0

  34385  1 011276   200012 236100                    LDQ     PRED,,AUTO
         1 011277   001000 316007                    CANQ    512,DL
         1 011300   011316 601000 1                  TNZ     s:34568

  34460  1 011301   200013 236100                    LDQ     PINV,,AUTO
         1 011302   010000 316003                    CANQ    4096,DU
         1 011303   011306 600000 1                  TZE     s:34470

  34460  1 011304   013347 701000 1                  TSX1    PRED05
         1 011305   000000 011000                    NOP     0

  34470  1 011306   200012 236100                    LDQ     PRED,,AUTO
         1 011307   010000 316003                    CANQ    4096,DU
         1 011310   011316 600000 1                  TZE     s:34568

  34559  1 011311   200014 450100                    STZ     CONTINUING,,AUTO

     1251    34561                            %EVENT( EV=%XSP_PEV_RSA);

PL6.E3A0      #001=XSP$MACHINE File=XSP$MACHINE.:XSA1TSI                         WED 10/01/97 12:04 Page:308
  34562  1 011312   000165 236000 2                  LDQ     117
         1 011313   200017 756100                    STQ     CONTINUING+3,,AUTO
         1 011314   012517 701000 1                  TSX1    EVNT
         1 011315   012433 702000 1                  TSX2    EVNTERR

     1252    34564    4                       END;

     1253    34565                        %ENDPREDDO;

  34568  1 011316   200014 234100                    SZN     CONTINUING,,AUTO
         1 011317   012432 605000 1                  TPL     s:37359

  34568  1 011320   012644 701000 1                  TSX1    OOPS
         1 011321   000000 011000                    NOP     0

     1254    34570    3                   END;

  34570  1 011322   012432 710000 1                  TRA     s:37359

     1255    34571    2               ELSE
     1256    34572                        %INVALID;

  34573  1 011323   012644 701000 1                  TSX1    OOPS
         1 011324   000000 011000                    NOP     0
         1 011325   012432 710000 1                  TRA     s:37359

     1257    34575    2           CASE( %XSP_PEV_PSMAREQ);                /* TABLE 27 */

     1258    34576    3               DO CASE( PCTX.STATE);

  34576  1 011326   000000 236100                    LDQ     0,,PR0
         1 011327   000033 772000                    QRL     27
         1 011330   000004 136007                    SBLQ    4,DL
         1 011331   000004 116007                    CMPQ    4,DL
         1 011332   011334 602006 1                  TNC     s:34576+6,QL
         1 011333   011420 710000 1                  TRA     s:34907
         1 011334   011340 710000 1                  TRA     s:34587
PL6.E3A0      #001=XSP$MACHINE File=XSP$MACHINE.:XSA1TSI                         WED 10/01/97 12:04 Page:309
         1 011335   011374 710000 1                  TRA     s:34805
         1 011336   011340 710000 1                  TRA     s:34587
         1 011337   011374 710000 1                  TRA     s:34805

     1259    34577    3                   CASE( %XSP_PST_AC0,

     1260    34578    3                         %XSP_PST_AC2);
     1261    34579                            %IFPREDDO( P="-17&07");

  34587  1 011340   400000 236003                    LDQ     -131072,DU
         1 011341   200014 756100                    STQ     CONTINUING,,AUTO

  34651  1 011342   200013 236100                    LDQ     PINV,,AUTO
         1 011343   000001 316003                    CANQ    1,DU
         1 011344   011347 600000 1                  TZE     s:34660

  34651  1 011345   013475 701000 1                  TSX1    PRED17
         1 011346   000000 011000                    NOP     0

  34660  1 011347   200012 236100                    LDQ     PRED,,AUTO
         1 011350   000001 316003                    CANQ    1,DU
         1 011351   011367 601000 1                  TNZ     s:34793

  34735  1 011352   200013 236100                    LDQ     PINV,,AUTO
         1 011353   002000 316003                    CANQ    1024,DU
         1 011354   011357 600000 1                  TZE     s:34745

  34735  1 011355   013401 701000 1                  TSX1    PRED07
         1 011356   000000 011000                    NOP     0

  34745  1 011357   200012 236100                    LDQ     PRED,,AUTO
         1 011360   002000 316003                    CANQ    1024,DU
         1 011361   011367 600000 1                  TZE     s:34793

  34784  1 011362   200014 450100                    STZ     CONTINUING,,AUTO

     1262    34786                                %EVENT( EV=%XSP_PEV_SSMAREQ);
PL6.E3A0      #001=XSP$MACHINE File=XSP$MACHINE.:XSA1TSI                         WED 10/01/97 12:04 Page:310

  34787  1 011363   000167 236000 2                  LDQ     119
         1 011364   200017 756100                    STQ     CONTINUING+3,,AUTO
         1 011365   012517 701000 1                  TSX1    EVNT
         1 011366   012433 702000 1                  TSX2    EVNTERR

     1263    34789    4                           END;

     1264    34790                            %ENDPREDDO;

  34793  1 011367   200014 234100                    SZN     CONTINUING,,AUTO
         1 011370   012432 605000 1                  TPL     s:37359

  34793  1 011371   012644 701000 1                  TSX1    OOPS
         1 011372   000000 011000                    NOP     0
         1 011373   012432 710000 1                  TRA     s:37359

     1265    34795    3                   CASE( %XSP_PST_AC1,

     1266    34796    3                         %XSP_PST_T0);
     1267    34797                            %IFPREDDO( P="05");

  34805  1 011374   400000 236003                    LDQ     -131072,DU
         1 011375   200014 756100                    STQ     CONTINUING,,AUTO

  34865  1 011376   200013 236100                    LDQ     PINV,,AUTO
         1 011377   010000 316003                    CANQ    4096,DU
         1 011400   011403 600000 1                  TZE     s:34875

  34865  1 011401   013347 701000 1                  TSX1    PRED05
         1 011402   000000 011000                    NOP     0

  34875  1 011403   200012 236100                    LDQ     PRED,,AUTO
         1 011404   010000 316003                    CANQ    4096,DU
         1 011405   011413 600000 1                  TZE     s:34903

  34894  1 011406   200014 450100                    STZ     CONTINUING,,AUTO
PL6.E3A0      #001=XSP$MACHINE File=XSP$MACHINE.:XSA1TSI                         WED 10/01/97 12:04 Page:311

     1268    34896                                %EVENT( EV=%XSP_PEV_SSMAREQ);

  34897  1 011407   000167 236000 2                  LDQ     119
         1 011410   200017 756100                    STQ     CONTINUING+3,,AUTO
         1 011411   012517 701000 1                  TSX1    EVNT
         1 011412   012433 702000 1                  TSX2    EVNTERR

     1269    34899    4                           END;

     1270    34900                            %ENDPREDDO;

  34903  1 011413   200014 234100                    SZN     CONTINUING,,AUTO
         1 011414   012432 605000 1                  TPL     s:37359

  34903  1 011415   012644 701000 1                  TSX1    OOPS
         1 011416   000000 011000                    NOP     0
         1 011417   012432 710000 1                  TRA     s:37359

     1271    34905    3                   CASE( ELSE);

     1272    34906                            %INVALID;

  34907  1 011420   012644 701000 1                  TSX1    OOPS
         1 011421   000000 011000                    NOP     0

     1273    34909    3                   END;

  34909  1 011422   012432 710000 1                  TRA     s:37359

     1274    34910    2           CASE( %XSP_PEV_PSMARSP);                /* TABLE 27 */

     1275    34911    3               DO CASE( PCTX.STATE);

  34911  1 011423   000000 236100                    LDQ     0,,PR0
         1 011424   000033 772000                    QRL     27
         1 011425   000004 136007                    SBLQ    4,DL
PL6.E3A0      #001=XSP$MACHINE File=XSP$MACHINE.:XSA1TSI                         WED 10/01/97 12:04 Page:312
         1 011426   000004 116007                    CMPQ    4,DL
         1 011427   011431 602006 1                  TNC     s:34911+6,QL
         1 011430   011605 710000 1                  TRA     s:35578
         1 011431   011435 710000 1                  TRA     s:34921
         1 011432   011465 710000 1                  TRA     s:35036
         1 011433   011521 710000 1                  TRA     s:35253
         1 011434   011555 710000 1                  TRA     s:35470

     1276    34912    3                   CASE( %XSP_PST_AC0);

     1277    34913                            %IFPREDDO( P="07");

  34921  1 011435   400000 236003                    LDQ     -131072,DU
         1 011436   200014 756100                    STQ     CONTINUING,,AUTO

  34981  1 011437   200013 236100                    LDQ     PINV,,AUTO
         1 011440   002000 316003                    CANQ    1024,DU
         1 011441   011444 600000 1                  TZE     s:34991

  34981  1 011442   013401 701000 1                  TSX1    PRED07
         1 011443   000000 011000                    NOP     0

  34991  1 011444   200012 236100                    LDQ     PRED,,AUTO
         1 011445   002000 316003                    CANQ    1024,DU
         1 011446   011460 600000 1                  TZE     s:35025

  35010  1 011447   200014 450100                    STZ     CONTINUING,,AUTO

     1278    35012                                %EVENT( EV=%XSP_PEV_SSMARSP);

  35013  1 011450   000171 236000 2                  LDQ     121
         1 011451   200017 756100                    STQ     CONTINUING+3,,AUTO
         1 011452   012517 701000 1                  TSX1    EVNT
         1 011453   012433 702000 1                  TSX2    EVNTERR

     1279    35015                                %ACTION22;

PL6.E3A0      #001=XSP$MACHINE File=XSP$MACHINE.:XSA1TSI                         WED 10/01/97 12:04 Page:313
  35016  1 011454   013146 701000 1                  TSX1    ACTION22
         1 011455   000000 011000                    NOP     0

     1280    35018                                %ACTION13;

  35019  1 011456   013101 701000 1                  TSX1    ACTION13
         1 011457   000000 011000                    NOP     0

     1281    35021    4                           END;

     1282    35022                            %ENDPREDDO;

  35025  1 011460   200014 234100                    SZN     CONTINUING,,AUTO
         1 011461   012432 605000 1                  TPL     s:37359

  35025  1 011462   012644 701000 1                  TSX1    OOPS
         1 011463   000000 011000                    NOP     0
         1 011464   012432 710000 1                  TRA     s:37359

     1283    35027    3                   CASE( %XSP_PST_AC1);

     1284    35028                            %IFPREDDO( P="-17&05");

  35036  1 011465   400000 236003                    LDQ     -131072,DU
         1 011466   200014 756100                    STQ     CONTINUING,,AUTO

  35100  1 011467   200013 236100                    LDQ     PINV,,AUTO
         1 011470   000001 316003                    CANQ    1,DU
         1 011471   011474 600000 1                  TZE     s:35109

  35100  1 011472   013475 701000 1                  TSX1    PRED17
         1 011473   000000 011000                    NOP     0

  35109  1 011474   200012 236100                    LDQ     PRED,,AUTO
         1 011475   000001 316003                    CANQ    1,DU
         1 011476   011514 601000 1                  TNZ     s:35242

PL6.E3A0      #001=XSP$MACHINE File=XSP$MACHINE.:XSA1TSI                         WED 10/01/97 12:04 Page:314
  35184  1 011477   200013 236100                    LDQ     PINV,,AUTO
         1 011500   010000 316003                    CANQ    4096,DU
         1 011501   011504 600000 1                  TZE     s:35194

  35184  1 011502   013347 701000 1                  TSX1    PRED05
         1 011503   000000 011000                    NOP     0

  35194  1 011504   200012 236100                    LDQ     PRED,,AUTO
         1 011505   010000 316003                    CANQ    4096,DU
         1 011506   011514 600000 1                  TZE     s:35242

  35233  1 011507   200014 450100                    STZ     CONTINUING,,AUTO

     1285    35235                                %EVENT( EV=%XSP_PEV_SSMARSP);

  35236  1 011510   000171 236000 2                  LDQ     121
         1 011511   200017 756100                    STQ     CONTINUING+3,,AUTO
         1 011512   012517 701000 1                  TSX1    EVNT
         1 011513   012433 702000 1                  TSX2    EVNTERR

     1286    35238    4                           END;

     1287    35239                            %ENDPREDDO;

  35242  1 011514   200014 234100                    SZN     CONTINUING,,AUTO
         1 011515   012432 605000 1                  TPL     s:37359

  35242  1 011516   012644 701000 1                  TSX1    OOPS
         1 011517   000000 011000                    NOP     0
         1 011520   012432 710000 1                  TRA     s:37359

     1288    35244    3                   CASE( %XSP_PST_AC2);

     1289    35245                            %IFPREDDO( P="-17&07");

  35253  1 011521   400000 236003                    LDQ     -131072,DU
         1 011522   200014 756100                    STQ     CONTINUING,,AUTO
PL6.E3A0      #001=XSP$MACHINE File=XSP$MACHINE.:XSA1TSI                         WED 10/01/97 12:04 Page:315

  35317  1 011523   200013 236100                    LDQ     PINV,,AUTO
         1 011524   000001 316003                    CANQ    1,DU
         1 011525   011530 600000 1                  TZE     s:35326

  35317  1 011526   013475 701000 1                  TSX1    PRED17
         1 011527   000000 011000                    NOP     0

  35326  1 011530   200012 236100                    LDQ     PRED,,AUTO
         1 011531   000001 316003                    CANQ    1,DU
         1 011532   011550 601000 1                  TNZ     s:35459

  35401  1 011533   200013 236100                    LDQ     PINV,,AUTO
         1 011534   002000 316003                    CANQ    1024,DU
         1 011535   011540 600000 1                  TZE     s:35411

  35401  1 011536   013401 701000 1                  TSX1    PRED07
         1 011537   000000 011000                    NOP     0

  35411  1 011540   200012 236100                    LDQ     PRED,,AUTO
         1 011541   002000 316003                    CANQ    1024,DU
         1 011542   011550 600000 1                  TZE     s:35459

  35450  1 011543   200014 450100                    STZ     CONTINUING,,AUTO

     1290    35452                                %EVENT( EV=%XSP_PEV_SSMARSP);

  35453  1 011544   000171 236000 2                  LDQ     121
         1 011545   200017 756100                    STQ     CONTINUING+3,,AUTO
         1 011546   012517 701000 1                  TSX1    EVNT
         1 011547   012433 702000 1                  TSX2    EVNTERR

     1291    35455    4                           END;

     1292    35456                            %ENDPREDDO;

  35459  1 011550   200014 234100                    SZN     CONTINUING,,AUTO
PL6.E3A0      #001=XSP$MACHINE File=XSP$MACHINE.:XSA1TSI                         WED 10/01/97 12:04 Page:316
         1 011551   012432 605000 1                  TPL     s:37359

  35459  1 011552   012644 701000 1                  TSX1    OOPS
         1 011553   000000 011000                    NOP     0
         1 011554   012432 710000 1                  TRA     s:37359

     1293    35461    3                   CASE( %XSP_PST_T0);

     1294    35462                            %IFPREDDO( P="05");

  35470  1 011555   400000 236003                    LDQ     -131072,DU
         1 011556   200014 756100                    STQ     CONTINUING,,AUTO

  35530  1 011557   200013 236100                    LDQ     PINV,,AUTO
         1 011560   010000 316003                    CANQ    4096,DU
         1 011561   011564 600000 1                  TZE     s:35540

  35530  1 011562   013347 701000 1                  TSX1    PRED05
         1 011563   000000 011000                    NOP     0

  35540  1 011564   200012 236100                    LDQ     PRED,,AUTO
         1 011565   010000 316003                    CANQ    4096,DU
         1 011566   011600 600000 1                  TZE     s:35574

  35559  1 011567   200014 450100                    STZ     CONTINUING,,AUTO

     1295    35561                                %EVENT( EV=%XSP_PEV_SSMARSP);

  35562  1 011570   000171 236000 2                  LDQ     121
         1 011571   200017 756100                    STQ     CONTINUING+3,,AUTO
         1 011572   012517 701000 1                  TSX1    EVNT
         1 011573   012433 702000 1                  TSX2    EVNTERR

     1296    35564                                %ACTION22;

  35565  1 011574   013146 701000 1                  TSX1    ACTION22
         1 011575   000000 011000                    NOP     0
PL6.E3A0      #001=XSP$MACHINE File=XSP$MACHINE.:XSA1TSI                         WED 10/01/97 12:04 Page:317

     1297    35567                                %ACTION13;

  35568  1 011576   013101 701000 1                  TSX1    ACTION13
         1 011577   000000 011000                    NOP     0

     1298    35570    4                           END;

     1299    35571                            %ENDPREDDO;

  35574  1 011600   200014 234100                    SZN     CONTINUING,,AUTO
         1 011601   012432 605000 1                  TPL     s:37359

  35574  1 011602   012644 701000 1                  TSX1    OOPS
         1 011603   000000 011000                    NOP     0
         1 011604   012432 710000 1                  TRA     s:37359

     1300    35576    3                   CASE( ELSE);

     1301    35577                            %INVALID;

  35578  1 011605   012644 701000 1                  TSX1    OOPS
         1 011606   000000 011000                    NOP     0

     1302    35580    3                   END;

  35580  1 011607   012432 710000 1                  TRA     s:37359

     1303    35581    2           CASE( %XSP_PEV_PSMIREQ);                /* TABLE 27 */

     1304    35582    3               DO CASE( PCTX.STATE);

  35582  1 011610   000000 236100                    LDQ     0,,PR0
         1 011611   000033 772000                    QRL     27
         1 011612   000004 136007                    SBLQ    4,DL
         1 011613   000004 116007                    CMPQ    4,DL
         1 011614   011616 602006 1                  TNC     s:35582+6,QL
PL6.E3A0      #001=XSP$MACHINE File=XSP$MACHINE.:XSA1TSI                         WED 10/01/97 12:04 Page:318
         1 011615   011704 710000 1                  TRA     s:35916
         1 011616   011622 710000 1                  TRA     s:35593
         1 011617   011656 710000 1                  TRA     s:35811
         1 011620   011622 710000 1                  TRA     s:35593
         1 011621   011656 710000 1                  TRA     s:35811

     1305    35583    3                   CASE( %XSP_PST_AC0,

     1306    35584    3                         %XSP_PST_AC2);
     1307    35585                            %IFPREDDO( P="-17&07");

  35593  1 011622   400000 236003                    LDQ     -131072,DU
         1 011623   200014 756100                    STQ     CONTINUING,,AUTO

  35657  1 011624   200013 236100                    LDQ     PINV,,AUTO
         1 011625   000001 316003                    CANQ    1,DU
         1 011626   011631 600000 1                  TZE     s:35666

  35657  1 011627   013475 701000 1                  TSX1    PRED17
         1 011630   000000 011000                    NOP     0

  35666  1 011631   200012 236100                    LDQ     PRED,,AUTO
         1 011632   000001 316003                    CANQ    1,DU
         1 011633   011651 601000 1                  TNZ     s:35799

  35741  1 011634   200013 236100                    LDQ     PINV,,AUTO
         1 011635   002000 316003                    CANQ    1024,DU
         1 011636   011641 600000 1                  TZE     s:35751

  35741  1 011637   013401 701000 1                  TSX1    PRED07
         1 011640   000000 011000                    NOP     0

  35751  1 011641   200012 236100                    LDQ     PRED,,AUTO
         1 011642   002000 316003                    CANQ    1024,DU
         1 011643   011651 600000 1                  TZE     s:35799

  35790  1 011644   200014 450100                    STZ     CONTINUING,,AUTO
PL6.E3A0      #001=XSP$MACHINE File=XSP$MACHINE.:XSA1TSI                         WED 10/01/97 12:04 Page:319

     1308    35792                                %EVENT( EV=%XSP_PEV_SSMIREQ);

  35793  1 011645   000173 236000 2                  LDQ     123
         1 011646   200017 756100                    STQ     CONTINUING+3,,AUTO
         1 011647   012517 701000 1                  TSX1    EVNT
         1 011650   012433 702000 1                  TSX2    EVNTERR

     1309    35795    4                           END;

     1310    35796                            %ENDPREDDO;

  35799  1 011651   200014 234100                    SZN     CONTINUING,,AUTO
         1 011652   012432 605000 1                  TPL     s:37359

  35799  1 011653   012644 701000 1                  TSX1    OOPS
         1 011654   000000 011000                    NOP     0
         1 011655   012432 710000 1                  TRA     s:37359

     1311    35801    3                   CASE( %XSP_PST_AC1,

     1312    35802    3                         %XSP_PST_T0);
     1313    35803                            %IFPREDDO( P="05");

  35811  1 011656   400000 236003                    LDQ     -131072,DU
         1 011657   200014 756100                    STQ     CONTINUING,,AUTO

  35871  1 011660   200013 236100                    LDQ     PINV,,AUTO
         1 011661   010000 316003                    CANQ    4096,DU
         1 011662   011665 600000 1                  TZE     s:35881

  35871  1 011663   013347 701000 1                  TSX1    PRED05
         1 011664   000000 011000                    NOP     0

  35881  1 011665   200012 236100                    LDQ     PRED,,AUTO
         1 011666   010000 316003                    CANQ    4096,DU
         1 011667   011677 600000 1                  TZE     s:35912
PL6.E3A0      #001=XSP$MACHINE File=XSP$MACHINE.:XSA1TSI                         WED 10/01/97 12:04 Page:320

  35900  1 011670   200014 450100                    STZ     CONTINUING,,AUTO

     1314    35902                                %EVENT( EV=%XSP_PEV_SSMIREQ);

  35903  1 011671   000173 236000 2                  LDQ     123
         1 011672   200017 756100                    STQ     CONTINUING+3,,AUTO
         1 011673   012517 701000 1                  TSX1    EVNT
         1 011674   012433 702000 1                  TSX2    EVNTERR

     1315    35905                                %ACTION13;

  35906  1 011675   013101 701000 1                  TSX1    ACTION13
         1 011676   000000 011000                    NOP     0

     1316    35908    4                           END;

     1317    35909                            %ENDPREDDO;

  35912  1 011677   200014 234100                    SZN     CONTINUING,,AUTO
         1 011700   012432 605000 1                  TPL     s:37359

  35912  1 011701   012644 701000 1                  TSX1    OOPS
         1 011702   000000 011000                    NOP     0
         1 011703   012432 710000 1                  TRA     s:37359

     1318    35914    3                   CASE( ELSE);

     1319    35915                            %INVALID;

  35916  1 011704   012644 701000 1                  TSX1    OOPS
         1 011705   000000 011000                    NOP     0

     1320    35918    3                   END;

  35918  1 011706   012432 710000 1                  TRA     s:37359

PL6.E3A0      #001=XSP$MACHINE File=XSP$MACHINE.:XSA1TSI                         WED 10/01/97 12:04 Page:321
     1321    35919    2           CASE( %XSP_PEV_PSMIRSP);                /* TABLE 27 */

     1322    35920    3               DO CASE( PCTX.STATE);

  35920  1 011707   000000 236100                    LDQ     0,,PR0
         1 011710   000033 772000                    QRL     27
         1 011711   000004 136007                    SBLQ    4,DL
         1 011712   000004 116007                    CMPQ    4,DL
         1 011713   011715 602006 1                  TNC     s:35920+6,QL
         1 011714   011771 710000 1                  TRA     s:36143
         1 011715   011721 710000 1                  TRA     s:35931
         1 011716   011745 710000 1                  TRA     s:36041
         1 011717   011721 710000 1                  TRA     s:35931
         1 011720   011745 710000 1                  TRA     s:36041

     1323    35921    3                   CASE( %XSP_PST_AC0,

     1324    35922    3                         %XSP_PST_AC2);
     1325    35923                            %IFPREDDO( P="07");

  35931  1 011721   400000 236003                    LDQ     -131072,DU
         1 011722   200014 756100                    STQ     CONTINUING,,AUTO

  35991  1 011723   200013 236100                    LDQ     PINV,,AUTO
         1 011724   002000 316003                    CANQ    1024,DU
         1 011725   011730 600000 1                  TZE     s:36001

  35991  1 011726   013401 701000 1                  TSX1    PRED07
         1 011727   000000 011000                    NOP     0

  36001  1 011730   200012 236100                    LDQ     PRED,,AUTO
         1 011731   002000 316003                    CANQ    1024,DU
         1 011732   011740 600000 1                  TZE     s:36029

  36020  1 011733   200014 450100                    STZ     CONTINUING,,AUTO

     1326    36022                                %EVENT( EV=%XSP_PEV_SSMIRSP);
PL6.E3A0      #001=XSP$MACHINE File=XSP$MACHINE.:XSA1TSI                         WED 10/01/97 12:04 Page:322

  36023  1 011734   000175 236000 2                  LDQ     125
         1 011735   200017 756100                    STQ     CONTINUING+3,,AUTO
         1 011736   012517 701000 1                  TSX1    EVNT
         1 011737   012433 702000 1                  TSX2    EVNTERR

     1327    36025    4                           END;

     1328    36026                            %ENDPREDDO;

  36029  1 011740   200014 234100                    SZN     CONTINUING,,AUTO
         1 011741   012432 605000 1                  TPL     s:37359

  36029  1 011742   012644 701000 1                  TSX1    OOPS
         1 011743   000000 011000                    NOP     0
         1 011744   012432 710000 1                  TRA     s:37359

     1329    36031    3                   CASE( %XSP_PST_AC1,

     1330    36032    3                         %XSP_PST_T0);
     1331    36033                            %IFPREDDO( P="05");

  36041  1 011745   400000 236003                    LDQ     -131072,DU
         1 011746   200014 756100                    STQ     CONTINUING,,AUTO

  36101  1 011747   200013 236100                    LDQ     PINV,,AUTO
         1 011750   010000 316003                    CANQ    4096,DU
         1 011751   011754 600000 1                  TZE     s:36111

  36101  1 011752   013347 701000 1                  TSX1    PRED05
         1 011753   000000 011000                    NOP     0

  36111  1 011754   200012 236100                    LDQ     PRED,,AUTO
         1 011755   010000 316003                    CANQ    4096,DU
         1 011756   011764 600000 1                  TZE     s:36139

  36130  1 011757   200014 450100                    STZ     CONTINUING,,AUTO
PL6.E3A0      #001=XSP$MACHINE File=XSP$MACHINE.:XSA1TSI                         WED 10/01/97 12:04 Page:323

     1332    36132                                %EVENT( EV=%XSP_PEV_SSMIRSP);

  36133  1 011760   000175 236000 2                  LDQ     125
         1 011761   200017 756100                    STQ     CONTINUING+3,,AUTO
         1 011762   012517 701000 1                  TSX1    EVNT
         1 011763   012433 702000 1                  TSX2    EVNTERR

     1333    36135    4                           END;

     1334    36136                            %ENDPREDDO;

  36139  1 011764   200014 234100                    SZN     CONTINUING,,AUTO
         1 011765   012432 605000 1                  TPL     s:37359

  36139  1 011766   012644 701000 1                  TSX1    OOPS
         1 011767   000000 011000                    NOP     0
         1 011770   012432 710000 1                  TRA     s:37359

     1335    36141    3                   CASE( ELSE);

     1336    36142                            %INVALID;

  36143  1 011771   012644 701000 1                  TSX1    OOPS
         1 011772   000000 011000                    NOP     0

     1337    36145    3                   END;

  36145  1 011773   012432 710000 1                  TRA     s:37359

     1338    36146    2           CASE( %XSP_PEV_PTKGREQ);                /* TABLE 26 */

     1339    36147    3               DO CASE( PCTX.STATE);

  36147  1 011774   000000 236100                    LDQ     0,,PR0
         1 011775   000033 772000                    QRL     27
         1 011776   000004 136007                    SBLQ    4,DL
PL6.E3A0      #001=XSP$MACHINE File=XSP$MACHINE.:XSA1TSI                         WED 10/01/97 12:04 Page:324
         1 011777   000004 116007                    CMPQ    4,DL
         1 012000   012002 602006 1                  TNC     s:36147+6,QL
         1 012001   012013 710000 1                  TRA     s:36157
         1 012002   012006 710000 1                  TRA     s:36153
         1 012003   012006 710000 1                  TRA     s:36153
         1 012004   012006 710000 1                  TRA     s:36153
         1 012005   012006 710000 1                  TRA     s:36153

     1340    36148    3                   CASE( %XSP_PST_AC0,

     1341    36149    3                         %XSP_PST_AC1,
     1342    36150    3                         %XSP_PST_AC2,
     1343    36151    3                         %XSP_PST_T0);
     1344    36152                            %EVENT( EV=%XSP_PEV_STKGREQ);

  36153  1 012006   000177 236000 2                  LDQ     127
         1 012007   200017 756100                    STQ     CONTINUING+3,,AUTO
         1 012010   012517 701000 1                  TSX1    EVNT
         1 012011   012433 702000 1                  TSX2    EVNTERR
         1 012012   012432 710000 1                  TRA     s:37359

     1345    36155    3                   CASE( ELSE);

     1346    36156                            %INVALID;

  36157  1 012013   012644 701000 1                  TSX1    OOPS
         1 012014   000000 011000                    NOP     0

     1347    36159    3                   END;

  36159  1 012015   012432 710000 1                  TRA     s:37359

     1348    36160    2           CASE( %XSP_PEV_PTKPREQ);                /* TABLE 26 */

     1349    36161    3               DO CASE( PCTX.STATE);

  36161  1 012016   000000 236100                    LDQ     0,,PR0
PL6.E3A0      #001=XSP$MACHINE File=XSP$MACHINE.:XSA1TSI                         WED 10/01/97 12:04 Page:325
         1 012017   000033 772000                    QRL     27
         1 012020   000004 136007                    SBLQ    4,DL
         1 012021   000004 116007                    CMPQ    4,DL
         1 012022   012024 602006 1                  TNC     s:36161+6,QL
         1 012023   012100 710000 1                  TRA     s:36384
         1 012024   012030 710000 1                  TRA     s:36172
         1 012025   012054 710000 1                  TRA     s:36282
         1 012026   012030 710000 1                  TRA     s:36172
         1 012027   012054 710000 1                  TRA     s:36282

     1350    36162    3                   CASE( %XSP_PST_AC0,

     1351    36163    3                         %XSP_PST_AC2);
     1352    36164                            %IFPREDDO( P="07");

  36172  1 012030   400000 236003                    LDQ     -131072,DU
         1 012031   200014 756100                    STQ     CONTINUING,,AUTO

  36232  1 012032   200013 236100                    LDQ     PINV,,AUTO
         1 012033   002000 316003                    CANQ    1024,DU
         1 012034   012037 600000 1                  TZE     s:36242

  36232  1 012035   013401 701000 1                  TSX1    PRED07
         1 012036   000000 011000                    NOP     0

  36242  1 012037   200012 236100                    LDQ     PRED,,AUTO
         1 012040   002000 316003                    CANQ    1024,DU
         1 012041   012047 600000 1                  TZE     s:36270

  36261  1 012042   200014 450100                    STZ     CONTINUING,,AUTO

     1353    36263                                %EVENT( EV=%XSP_PEV_STKPREQ);

  36264  1 012043   000201 236000 2                  LDQ     129
         1 012044   200017 756100                    STQ     CONTINUING+3,,AUTO
         1 012045   012517 701000 1                  TSX1    EVNT
         1 012046   012433 702000 1                  TSX2    EVNTERR
PL6.E3A0      #001=XSP$MACHINE File=XSP$MACHINE.:XSA1TSI                         WED 10/01/97 12:04 Page:326

     1354    36266    4                           END;

     1355    36267                            %ENDPREDDO;

  36270  1 012047   200014 234100                    SZN     CONTINUING,,AUTO
         1 012050   012432 605000 1                  TPL     s:37359

  36270  1 012051   012644 701000 1                  TSX1    OOPS
         1 012052   000000 011000                    NOP     0
         1 012053   012432 710000 1                  TRA     s:37359

     1356    36272    3                   CASE( %XSP_PST_AC1,

     1357    36273    3                         %XSP_PST_T0);
     1358    36274                            %IFPREDDO( P="05");

  36282  1 012054   400000 236003                    LDQ     -131072,DU
         1 012055   200014 756100                    STQ     CONTINUING,,AUTO

  36342  1 012056   200013 236100                    LDQ     PINV,,AUTO
         1 012057   010000 316003                    CANQ    4096,DU
         1 012060   012063 600000 1                  TZE     s:36352

  36342  1 012061   013347 701000 1                  TSX1    PRED05
         1 012062   000000 011000                    NOP     0

  36352  1 012063   200012 236100                    LDQ     PRED,,AUTO
         1 012064   010000 316003                    CANQ    4096,DU
         1 012065   012073 600000 1                  TZE     s:36380

  36371  1 012066   200014 450100                    STZ     CONTINUING,,AUTO

     1359    36373                                %EVENT( EV=%XSP_PEV_STKPREQ);

  36374  1 012067   000201 236000 2                  LDQ     129
         1 012070   200017 756100                    STQ     CONTINUING+3,,AUTO
PL6.E3A0      #001=XSP$MACHINE File=XSP$MACHINE.:XSA1TSI                         WED 10/01/97 12:04 Page:327
         1 012071   012517 701000 1                  TSX1    EVNT
         1 012072   012433 702000 1                  TSX2    EVNTERR

     1360    36376    4                           END;

     1361    36377                            %ENDPREDDO;

  36380  1 012073   200014 234100                    SZN     CONTINUING,,AUTO
         1 012074   012432 605000 1                  TPL     s:37359

  36380  1 012075   012644 701000 1                  TSX1    OOPS
         1 012076   000000 011000                    NOP     0
         1 012077   012432 710000 1                  TRA     s:37359

     1362    36382    3                   CASE( ELSE);

     1363    36383                            %INVALID;

  36384  1 012100   012644 701000 1                  TSX1    OOPS
         1 012101   000000 011000                    NOP     0

     1364    36386    3                   END;

  36386  1 012102   012432 710000 1                  TRA     s:37359

     1365    36387    2           CASE( %XSP_PEV_PTYDREQ);                /* TABLE 25 */

     1366    36388    3               DO CASE( PCTX.STATE);

  36388  1 012103   000000 236100                    LDQ     0,,PR0
         1 012104   000033 772000                    QRL     27
         1 012105   000004 136007                    SBLQ    4,DL
         1 012106   000004 116007                    CMPQ    4,DL
         1 012107   012111 602006 1                  TNC     s:36388+6,QL
         1 012110   012205 710000 1                  TRA     s:36781
         1 012111   012115 710000 1                  TRA     s:36399
         1 012112   012151 710000 1                  TRA     s:36594
PL6.E3A0      #001=XSP$MACHINE File=XSP$MACHINE.:XSA1TSI                         WED 10/01/97 12:04 Page:328
         1 012113   012115 710000 1                  TRA     s:36399
         1 012114   012151 710000 1                  TRA     s:36594

     1367    36389    3                   CASE( %XSP_PST_AC0,

     1368    36390    3                         %XSP_PST_AC2);
     1369    36391                            %IFPREDDO( P="07&14");

  36399  1 012115   400000 236003                    LDQ     -131072,DU
         1 012116   200014 756100                    STQ     CONTINUING,,AUTO

  36445  1 012117   200013 236100                    LDQ     PINV,,AUTO
         1 012120   002000 316003                    CANQ    1024,DU
         1 012121   012124 600000 1                  TZE     s:36454

  36445  1 012122   013401 701000 1                  TSX1    PRED07
         1 012123   000000 011000                    NOP     0

  36454  1 012124   200012 236100                    LDQ     PRED,,AUTO
         1 012125   002000 316003                    CANQ    1024,DU
         1 012126   012144 600000 1                  TZE     s:36582

  36529  1 012127   200013 236100                    LDQ     PINV,,AUTO
         1 012130   000010 316003                    CANQ    8,DU
         1 012131   012134 600000 1                  TZE     s:36539

  36529  1 012132   013445 701000 1                  TSX1    PRED14
         1 012133   000000 011000                    NOP     0

  36539  1 012134   200012 236100                    LDQ     PRED,,AUTO
         1 012135   000010 316003                    CANQ    8,DU
         1 012136   012144 600000 1                  TZE     s:36582

  36573  1 012137   200014 450100                    STZ     CONTINUING,,AUTO

     1370    36575                                %EVENT( EV=%XSP_PEV_TTD);

PL6.E3A0      #001=XSP$MACHINE File=XSP$MACHINE.:XSA1TSI                         WED 10/01/97 12:04 Page:329
  36576  1 012140   000203 236000 2                  LDQ     131
         1 012141   200017 756100                    STQ     CONTINUING+3,,AUTO
         1 012142   012517 701000 1                  TSX1    EVNT
         1 012143   012433 702000 1                  TSX2    EVNTERR

     1371    36578    4                           END;

     1372    36579                            %ENDPREDDO;

  36582  1 012144   200014 234100                    SZN     CONTINUING,,AUTO
         1 012145   012432 605000 1                  TPL     s:37359

  36582  1 012146   012644 701000 1                  TSX1    OOPS
         1 012147   000000 011000                    NOP     0
         1 012150   012432 710000 1                  TRA     s:37359

     1373    36584    3                   CASE( %XSP_PST_AC1,

     1374    36585    3                         %XSP_PST_T0);
     1375    36586                            %IFPREDDO( P="05&14");

  36594  1 012151   400000 236003                    LDQ     -131072,DU
         1 012152   200014 756100                    STQ     CONTINUING,,AUTO

  36640  1 012153   200013 236100                    LDQ     PINV,,AUTO
         1 012154   010000 316003                    CANQ    4096,DU
         1 012155   012160 600000 1                  TZE     s:36649

  36640  1 012156   013347 701000 1                  TSX1    PRED05
         1 012157   000000 011000                    NOP     0

  36649  1 012160   200012 236100                    LDQ     PRED,,AUTO
         1 012161   010000 316003                    CANQ    4096,DU
         1 012162   012200 600000 1                  TZE     s:36777

  36724  1 012163   200013 236100                    LDQ     PINV,,AUTO
         1 012164   000010 316003                    CANQ    8,DU
PL6.E3A0      #001=XSP$MACHINE File=XSP$MACHINE.:XSA1TSI                         WED 10/01/97 12:04 Page:330
         1 012165   012170 600000 1                  TZE     s:36734

  36724  1 012166   013445 701000 1                  TSX1    PRED14
         1 012167   000000 011000                    NOP     0

  36734  1 012170   200012 236100                    LDQ     PRED,,AUTO
         1 012171   000010 316003                    CANQ    8,DU
         1 012172   012200 600000 1                  TZE     s:36777

  36768  1 012173   200014 450100                    STZ     CONTINUING,,AUTO

     1376    36770                                %EVENT( EV=%XSP_PEV_TTD);

  36771  1 012174   000203 236000 2                  LDQ     131
         1 012175   200017 756100                    STQ     CONTINUING+3,,AUTO
         1 012176   012517 701000 1                  TSX1    EVNT
         1 012177   012433 702000 1                  TSX2    EVNTERR

     1377    36773    4                           END;

     1378    36774                            %ENDPREDDO;

  36777  1 012200   200014 234100                    SZN     CONTINUING,,AUTO
         1 012201   012432 605000 1                  TPL     s:37359

  36777  1 012202   012644 701000 1                  TSX1    OOPS
         1 012203   000000 011000                    NOP     0
         1 012204   012432 710000 1                  TRA     s:37359

     1379    36779    3                   CASE( ELSE);

     1380    36780                            %INVALID;

  36781  1 012205   012644 701000 1                  TSX1    OOPS
         1 012206   000000 011000                    NOP     0

     1381    36783    3                   END;
PL6.E3A0      #001=XSP$MACHINE File=XSP$MACHINE.:XSA1TSI                         WED 10/01/97 12:04 Page:331

  36783  1 012207   012432 710000 1                  TRA     s:37359

     1382    36784    2           CASE( %XSP_PEV_PUABREQ);                /* TABLE 23 */

     1383    36785    3               DO CASE( PCTX.STATE);

  36785  1 012210   000000 236100                    LDQ     0,,PR0
         1 012211   000033 772000                    QRL     27
         1 012212   000010 116007                    CMPQ    8,DL
         1 012213   012215 602006 1                  TNC     s:36785+5,QL
         1 012214   012332 710000 1                  TRA     s:37121
         1 012215   012332 710000 1                  TRA     s:37121
         1 012216   012332 710000 1                  TRA     s:37121
         1 012217   012225 710000 1                  TRA     s:36796
         1 012220   012225 710000 1                  TRA     s:36796
         1 012221   012254 710000 1                  TRA     s:36907
         1 012222   012303 710000 1                  TRA     s:37018
         1 012223   012254 710000 1                  TRA     s:36907
         1 012224   012303 710000 1                  TRA     s:37018

     1384    36786    3                   CASE( %XSP_PST_I1,

     1385    36787    3                         %XSP_PST_I2);
     1386    36788                            %IFPREDDO( P="03");

  36796  1 012225   400000 236003                    LDQ     -131072,DU
         1 012226   200014 756100                    STQ     CONTINUING,,AUTO

  36856  1 012227   200013 236100                    LDQ     PINV,,AUTO
         1 012230   040000 316003                    CANQ    16384,DU
         1 012231   012234 600000 1                  TZE     s:36866

  36856  1 012232   013175 701000 1                  TSX1    PRED03
         1 012233   000000 011000                    NOP     0

  36866  1 012234   200012 236100                    LDQ     PRED,,AUTO
PL6.E3A0      #001=XSP$MACHINE File=XSP$MACHINE.:XSA1TSI                         WED 10/01/97 12:04 Page:332
         1 012235   040000 316003                    CANQ    16384,DU
         1 012236   012247 600000 1                  TZE     s:36895

  36885  1 012237   200014 450100                    STZ     CONTINUING,,AUTO

     1387    36887                                %EVENT( EV=%XSP_PEV_ARU);

  36888  1 012240   000205 236000 2                  LDQ     133
         1 012241   200017 756100                    STQ     CONTINUING+3,,AUTO
         1 012242   012517 701000 1                  TSX1    EVNT
         1 012243   012433 702000 1                  TSX2    EVNTERR

     1388    36890    4                           PCTX.STATE = %XSP_PST_I0;

  36890  1 012244   200010 470500                    LDP0    PCTX$,,AUTO
         1 012245   001000 236003                    LDQ     512,DU
         1 012246   000000 552140                    STBQ    0,'40'O,PR0

     1389    36891    4                           END;

     1390    36892                            %ENDPREDDO;

  36895  1 012247   200014 234100                    SZN     CONTINUING,,AUTO
         1 012250   012432 605000 1                  TPL     s:37359

  36895  1 012251   012644 701000 1                  TSX1    OOPS
         1 012252   000000 011000                    NOP     0
         1 012253   012432 710000 1                  TRA     s:37359

     1391    36897    3                   CASE( %XSP_PST_AC0,

     1392    36898    3                         %XSP_PST_AC2);
     1393    36899                            %IFPREDDO( P="07");

  36907  1 012254   400000 236003                    LDQ     -131072,DU
         1 012255   200014 756100                    STQ     CONTINUING,,AUTO

PL6.E3A0      #001=XSP$MACHINE File=XSP$MACHINE.:XSA1TSI                         WED 10/01/97 12:04 Page:333
  36967  1 012256   200013 236100                    LDQ     PINV,,AUTO
         1 012257   002000 316003                    CANQ    1024,DU
         1 012260   012263 600000 1                  TZE     s:36977

  36967  1 012261   013401 701000 1                  TSX1    PRED07
         1 012262   000000 011000                    NOP     0

  36977  1 012263   200012 236100                    LDQ     PRED,,AUTO
         1 012264   002000 316003                    CANQ    1024,DU
         1 012265   012276 600000 1                  TZE     s:37006

  36996  1 012266   200014 450100                    STZ     CONTINUING,,AUTO

     1394    36998                                %EVENT( EV=%XSP_PEV_ARU);

  36999  1 012267   000205 236000 2                  LDQ     133
         1 012270   200017 756100                    STQ     CONTINUING+3,,AUTO
         1 012271   012517 701000 1                  TSX1    EVNT
         1 012272   012433 702000 1                  TSX2    EVNTERR

     1395    37001    4                           PCTX.STATE = %XSP_PST_I0;

  37001  1 012273   200010 470500                    LDP0    PCTX$,,AUTO
         1 012274   001000 236003                    LDQ     512,DU
         1 012275   000000 552140                    STBQ    0,'40'O,PR0

     1396    37002    4                           END;

     1397    37003                            %ENDPREDDO;

  37006  1 012276   200014 234100                    SZN     CONTINUING,,AUTO
         1 012277   012432 605000 1                  TPL     s:37359

  37006  1 012300   012644 701000 1                  TSX1    OOPS
         1 012301   000000 011000                    NOP     0
         1 012302   012432 710000 1                  TRA     s:37359

PL6.E3A0      #001=XSP$MACHINE File=XSP$MACHINE.:XSA1TSI                         WED 10/01/97 12:04 Page:334
     1398    37008    3                   CASE( %XSP_PST_AC1,

     1399    37009    3                         %XSP_PST_T0);
     1400    37010                            %IFPREDDO( P="05");

  37018  1 012303   400000 236003                    LDQ     -131072,DU
         1 012304   200014 756100                    STQ     CONTINUING,,AUTO

  37078  1 012305   200013 236100                    LDQ     PINV,,AUTO
         1 012306   010000 316003                    CANQ    4096,DU
         1 012307   012312 600000 1                  TZE     s:37088

  37078  1 012310   013347 701000 1                  TSX1    PRED05
         1 012311   000000 011000                    NOP     0

  37088  1 012312   200012 236100                    LDQ     PRED,,AUTO
         1 012313   010000 316003                    CANQ    4096,DU
         1 012314   012325 600000 1                  TZE     s:37117

  37107  1 012315   200014 450100                    STZ     CONTINUING,,AUTO

     1401    37109                                %EVENT( EV=%XSP_PEV_ARU);

  37110  1 012316   000205 236000 2                  LDQ     133
         1 012317   200017 756100                    STQ     CONTINUING+3,,AUTO
         1 012320   012517 701000 1                  TSX1    EVNT
         1 012321   012433 702000 1                  TSX2    EVNTERR

     1402    37112    4                           PCTX.STATE = %XSP_PST_I0;

  37112  1 012322   200010 470500                    LDP0    PCTX$,,AUTO
         1 012323   001000 236003                    LDQ     512,DU
         1 012324   000000 552140                    STBQ    0,'40'O,PR0

     1403    37113    4                           END;

     1404    37114                            %ENDPREDDO;
PL6.E3A0      #001=XSP$MACHINE File=XSP$MACHINE.:XSA1TSI                         WED 10/01/97 12:04 Page:335

  37117  1 012325   200014 234100                    SZN     CONTINUING,,AUTO
         1 012326   012432 605000 1                  TPL     s:37359

  37117  1 012327   012644 701000 1                  TSX1    OOPS
         1 012330   000000 011000                    NOP     0
         1 012331   012432 710000 1                  TRA     s:37359

     1405    37119    3                   CASE( ELSE);

     1406    37120                            %INVALID;

  37121  1 012332   012644 701000 1                  TSX1    OOPS
         1 012333   000000 011000                    NOP     0

     1407    37123    3                   END;

  37123  1 012334   012432 710000 1                  TRA     s:37359

     1408    37124    2           CASE( %XSP_PEV_PUERREQ);                /* TABLE 28 */

     1409    37125    3               DO CASE( PCTX.STATE);

  37125  1 012335   000000 236100                    LDQ     0,,PR0
         1 012336   000033 772000                    QRL     27
         1 012337   000004 136007                    SBLQ    4,DL
         1 012340   000004 116007                    CMPQ    4,DL
         1 012341   012343 602006 1                  TNC     s:37125+6,QL
         1 012342   012425 710000 1                  TRA     s:37350
         1 012343   012347 710000 1                  TRA     s:37136
         1 012344   012376 710000 1                  TRA     s:37247
         1 012345   012347 710000 1                  TRA     s:37136
         1 012346   012376 710000 1                  TRA     s:37247

     1410    37126    3                   CASE( %XSP_PST_AC0,

     1411    37127    3                         %XSP_PST_AC2);
PL6.E3A0      #001=XSP$MACHINE File=XSP$MACHINE.:XSA1TSI                         WED 10/01/97 12:04 Page:336
     1412    37128                            %IFPREDDO( P="07");

  37136  1 012347   400000 236003                    LDQ     -131072,DU
         1 012350   200014 756100                    STQ     CONTINUING,,AUTO

  37196  1 012351   200013 236100                    LDQ     PINV,,AUTO
         1 012352   002000 316003                    CANQ    1024,DU
         1 012353   012356 600000 1                  TZE     s:37206

  37196  1 012354   013401 701000 1                  TSX1    PRED07
         1 012355   000000 011000                    NOP     0

  37206  1 012356   200012 236100                    LDQ     PRED,,AUTO
         1 012357   002000 316003                    CANQ    1024,DU
         1 012360   012371 600000 1                  TZE     s:37235

  37225  1 012361   200014 450100                    STZ     CONTINUING,,AUTO

     1413    37227                                %EVENT( EV=%XSP_PEV_SUERREQ);

  37228  1 012362   000207 236000 2                  LDQ     135
         1 012363   200017 756100                    STQ     CONTINUING+3,,AUTO
         1 012364   012517 701000 1                  TSX1    EVNT
         1 012365   012433 702000 1                  TSX2    EVNTERR

     1414    37230    4                           PCTX.STATE = %XSP_PST_T0;

  37230  1 012366   200010 470500                    LDP0    PCTX$,,AUTO
         1 012367   007000 236003                    LDQ     3584,DU
         1 012370   000000 552140                    STBQ    0,'40'O,PR0

     1415    37231    4                           END;

     1416    37232                            %ENDPREDDO;

  37235  1 012371   200014 234100                    SZN     CONTINUING,,AUTO
         1 012372   012432 605000 1                  TPL     s:37359
PL6.E3A0      #001=XSP$MACHINE File=XSP$MACHINE.:XSA1TSI                         WED 10/01/97 12:04 Page:337

  37235  1 012373   012644 701000 1                  TSX1    OOPS
         1 012374   000000 011000                    NOP     0
         1 012375   012432 710000 1                  TRA     s:37359

     1417    37237    3                   CASE( %XSP_PST_AC1,

     1418    37238    3                         %XSP_PST_T0);
     1419    37239                            %IFPREDDO( P="05");

  37247  1 012376   400000 236003                    LDQ     -131072,DU
         1 012377   200014 756100                    STQ     CONTINUING,,AUTO

  37307  1 012400   200013 236100                    LDQ     PINV,,AUTO
         1 012401   010000 316003                    CANQ    4096,DU
         1 012402   012405 600000 1                  TZE     s:37317

  37307  1 012403   013347 701000 1                  TSX1    PRED05
         1 012404   000000 011000                    NOP     0

  37317  1 012405   200012 236100                    LDQ     PRED,,AUTO
         1 012406   010000 316003                    CANQ    4096,DU
         1 012407   012420 600000 1                  TZE     s:37346

  37336  1 012410   200014 450100                    STZ     CONTINUING,,AUTO

     1420    37338                                %EVENT( EV=%XSP_PEV_SUERREQ);

  37339  1 012411   000207 236000 2                  LDQ     135
         1 012412   200017 756100                    STQ     CONTINUING+3,,AUTO
         1 012413   012517 701000 1                  TSX1    EVNT
         1 012414   012433 702000 1                  TSX2    EVNTERR

     1421    37341    4                           PCTX.STATE = %XSP_PST_T0;

  37341  1 012415   200010 470500                    LDP0    PCTX$,,AUTO
         1 012416   007000 236003                    LDQ     3584,DU
PL6.E3A0      #001=XSP$MACHINE File=XSP$MACHINE.:XSA1TSI                         WED 10/01/97 12:04 Page:338
         1 012417   000000 552140                    STBQ    0,'40'O,PR0

     1422    37342    4                           END;

     1423    37343                            %ENDPREDDO;

  37346  1 012420   200014 234100                    SZN     CONTINUING,,AUTO
         1 012421   012432 605000 1                  TPL     s:37359

  37346  1 012422   012644 701000 1                  TSX1    OOPS
         1 012423   000000 011000                    NOP     0
         1 012424   012432 710000 1                  TRA     s:37359

     1424    37348    3                   CASE( ELSE);

     1425    37349                            %INVALID;

  37350  1 012425   012644 701000 1                  TSX1    OOPS
         1 012426   000000 011000                    NOP     0

     1426    37352    3                   END;

  37352  1 012427   012432 710000 1                  TRA     s:37359

     1427    37353        %EJECT;
PL6.E3A0      #001=XSP$MACHINE File=XSP$MACHINE.:XSA1TSI                         WED 10/01/97 12:04 Page:339
     1428    37354    2           CASE( ELSE);

     1429    37355                    %INVALID;

  37356  1 012430   012644 701000 1                  TSX1    OOPS
         1 012431   000000 011000                    NOP     0

     1430    37358    2           END;

     1431    37359    2       DO WHILE( %FALSE);

  37359  1 012432   012434 710000 1                  TRA     s:37369

     1432    37360    2   EVNTERR:
     1433    37361                /* the EVNT routine ALTRETURNed because of some internal error */
     1434    37362    2           GOTO DONE;

  37362  1 012433   012446 710000 1     EVNTERR      TRA     DONE

     1435    37363    2           END;

     1436    37364        /*****************************************************************************
     1437    37365        *                                                                            *
     1438    37366        *       Done with state machine; record state and light outa here            *
     1439    37367        *                                                                            *
     1440    37368        *****************************************************************************/
     1441    37369    1       I = PCTX.HISTX;

  37369  1 012434   200010 470500                    LDP0    PCTX$,,AUTO
         1 012435   000000 236100                    LDQ     0,,PR0
         1 012436   000022 772000                    QRL     18
         1 012437   000777 376007                    ANQ     511,DL
         1 012440   200006 756100                    STQ     I,,AUTO

     1442    37370    1       PCTX.HIST.NXTST( I) = PCTX.STATE;  /* record new state in hist buffer */

  37370  1 012441   200006 235100                    LDA     I,,AUTO
PL6.E3A0      #001=XSP$MACHINE File=XSP$MACHINE.:XSA1TSI                         WED 10/01/97 12:04 Page:340
         1 012442   000001 735000                    ALS     1
         1 012443   000105 100500                    MLR     fill='000'O
         1 012444   000000 000001                    ADSC9   0,,PR0                   cn=0,n=1
         1 012445   000010 600001                    ADSC9   8,A,PR0                  cn=3,n=1

     1443    37371    1   DONE:
     1444    37372    2       IF PCTX.ABORTING THEN DO;

  37372  1 012446   200010 470500       DONE         LDP0    PCTX$,,AUTO
         1 012447   000000 236100                    LDQ     0,,PR0
         1 012450   000002 316007                    CANQ    2,DL
         1 012451   012471 600000 1                  TZE     s:37383

     1445    37373                /* There was a problem handling the application's request
     1446    37374                   (probably the connection was dropped out from under it) or a
     1447    37375                   PPDU was received that is inconsistent with connection state,
     1448    37376                   so we force a 'provider abort'.                              */
     1449    37377    3           IF PCTX.STATE > %XSP_PST_I0 THEN DO;

  37377  1 012452   000000 236100                    LDQ     0,,PR0
         1 012453   777000 376003                    ANQ     -512,DU
         1 012454   002000 116003                    CMPQ    1024,DU
         1 012455   012471 602000 1                  TNC     s:37383

     1450    37378    3               CALL EVNT( %XSP_PEV_ARP);  /* ignore possible ALTRETURN */

  37378  1 012456   000211 236000 2                  LDQ     137
         1 012457   200017 756100                    STQ     CONTINUING+3,,AUTO
         1 012460   012517 701000 1                  TSX1    EVNT
         1 012461   000000 011000                    NOP     0

     1451    37379    3               CALL EVNT( %XSP_PEV_PPABIND);  /* ignore possible ALTRETURN */

  37379  1 012462   000011 236000 2                  LDQ     9
         1 012463   200017 756100                    STQ     CONTINUING+3,,AUTO
         1 012464   012517 701000 1                  TSX1    EVNT
         1 012465   000000 011000                    NOP     0
PL6.E3A0      #001=XSP$MACHINE File=XSP$MACHINE.:XSA1TSI                         WED 10/01/97 12:04 Page:341

     1452    37380    3               PCTX.STATE = %XSP_PST_I0;

  37380  1 012466   200010 470500                    LDP0    PCTX$,,AUTO
         1 012467   001000 236003                    LDQ     512,DU
         1 012470   000000 552140                    STBQ    0,'40'O,PR0

     1453    37381    3               END;

     1454    37382    2           END;

     1455    37383    2       IF PCTX.STATE = %XSP_PST_I0 THEN DO;

  37383  1 012471   000000 236100                    LDQ     0,,PR0
         1 012472   777000 376003                    ANQ     -512,DU
         1 012473   001000 116003                    CMPQ    512,DU
         1 012474   012506 601000 1                  TNZ     s:37391

     1456    37384                /* State is 'Idle, no connection' so release context */
     1457    37385    2           CALL XSP$RELCTX( VBLK.CTX$);

  37385  1 012475   200003 630500                    EPPR0   @VBLK,,AUTO
         1 012476   000212 631400 2                  EPPR1   138
         1 012477   000000 701000 xent               TSX1    XSP$RELCTX
         1 012500   000000 011000                    NOP     0

     1458    37386    2           IF PCTX.ABORTING THEN

  37386  1 012501   200010 470500                    LDP0    PCTX$,,AUTO
         1 012502   000000 236100                    LDQ     0,,PR0
         1 012503   000002 316007                    CANQ    2,DL
         1 012504   012506 600000 1                  TZE     s:37391

     1459    37387                    /* during this trip thru the state machine, connection aborted */
     1460    37388                    /* have E$STATE or other error reported to user */
     1461    37389    2               ALTRETURN;

PL6.E3A0      #001=XSP$MACHINE File=XSP$MACHINE.:XSA1TSI                         WED 10/01/97 12:04 Page:342
  37389  1 012505   000000 702200 xent               TSX2  ! X66_AALT

     1462    37390    2           END;
     1463    37391    2       IF PCTX.STATE > 127 THEN DO;

  37391  1 012506   000000 236100                    LDQ     0,,PR0
         1 012507   777000 376003                    ANQ     -512,DU
         1 012510   200000 116003                    CMPQ    65536,DU
         1 012511   012516 602000 1                  TNC     s:37397

     1464    37392                /* There was a user request inconsistent with connection state. */
     1465    37393    2           PCTX.STATE = PCTX.STATE - 128;

  37393  1 012512   000000 236100                    LDQ     0,,PR0
         1 012513   600000 036003                    ADLQ    -65536,DU
         1 012514   000000 552140                    STBQ    0,'40'O,PR0

     1466    37394                /* have E$STATE reported to user */
     1467    37395    2           ALTRETURN;

  37395  1 012515   000000 702200 xent               TSX2  ! X66_AALT

     1468    37396    2           END;
     1469    37397    1       RETURN;

  37397  1 012516   000000 702200 xent               TSX2  ! X66_ARET

     1470    37398        %EJECT;
PL6.E3A0      #001=XSP$MACHINE File=XSP$MACHINE.:XSA1TSI                         WED 10/01/97 12:04 Page:343
     1471    37399        /*****************************************************************************
     1472    37400        *                                                                            *
     1473    37401        *       EVNT Routine                                                         *
     1474    37402        *                                                                            *
     1475    37403        *****************************************************************************/
     1476    37404    1   EVNT: PROC( EVENT) ALTRET;

  37404  1 012517   200016 741300       EVNT         STX1  ! CONTINUING+2,,AUTO

     1477    37405    2       DCL EVENT UBIN;
     1478    37406            /* This table maps events destined for the Presentation-user into the
     1479    37407               function code identifying the Presentation FPT the user receives. */
     1480    37408    2       DCL PEV_TO_FNC(0:33) UBIN BYTE CONSTANT CALIGNED INIT(
     1481    37409    2           %XSP_FNC_PACDIND#,      /* XSP_PEV_PACDIND */
     1482    37410    2           %XSP_FNC_PACDCNF#,      /* XSP_PEV_PACDCNF */
     1483    37411    2           %XSP_FNC_PACEIND#,      /* XSP_PEV_PACEIND */
     1484    37412    2           %XSP_FNC_PACECNF#,      /* XSP_PEV_PACECNF */
     1485    37413    2           %XSP_FNC_PACIIND#,      /* XSP_PEV_PACIIND */
     1486    37414    2           %XSP_FNC_PACICNF#,      /* XSP_PEV_PACICNF */
     1487    37415    2           %XSP_FNC_PACRIND#,      /* XSP_PEV_PACRIND */
     1488    37416    2           %XSP_FNC_PACSIND#,      /* XSP_PEV_PACSIND */
     1489    37417    2           %XSP_FNC_PALTIND#,      /* XSP_PEV_PALTIND */
     1490    37418    2           %XSP_FNC_PALTCNF#,      /* XSP_PEV_PALTCNF */
     1491    37419    2           %XSP_FNC_PCADIND#,      /* XSP_PEV_PCADIND */
     1492    37420    2           %XSP_FNC_PCADCNF#,      /* XSP_PEV_PCADCNF */
     1493    37421    2           %XSP_FNC_PCTGIND#,      /* XSP_PEV_PCTGIND */
     1494    37422    2           %XSP_FNC_PCONIND#,      /* XSP_PEV_PCONIND */
     1495    37423    2           %XSP_FNC_PCONCNF#,      /* XSP_PEV_PCONCFP */
     1496    37424    2           %XSP_FNC_PCONCNF#,      /* XSP_PEV_PCONCFN */
     1497    37425    2           %XSP_FNC_PDATIND#,      /* XSP_PEV_PDATIND */
     1498    37426    2           %XSP_FNC_PEXPIND#,      /* XSP_PEV_PEXPIND */
     1499    37427    2           %XSP_FNC_PTKGIND#,      /* XSP_PEV_PTKGIND */
     1500    37428    2           %XSP_FNC_PTKPIND#,      /* XSP_PEV_PTKPIND */
     1501    37429    2           %XSP_FNC_PRELIND#,      /* XSP_PEV_PRELIND */
     1502    37430    2           %XSP_FNC_PRELCNF#,      /* XSP_PEV_PRELCFP */
     1503    37431    2           %XSP_FNC_PRELCNF#,      /* XSP_PEV_PRELCFN */
     1504    37432    2           %XSP_FNC_PRSXIND#,      /* XSP_PEV_PRSXIND */
PL6.E3A0      #001=XSP$MACHINE File=XSP$MACHINE.:XSA1TSI                         WED 10/01/97 12:04 Page:344
     1505    37433    2           %XSP_FNC_PRSXCNF#,      /* XSP_PEV_PRSXCNF */
     1506    37434    2           %XSP_FNC_PSMAIND#,      /* XSP_PEV_PSMAIND */
     1507    37435    2           %XSP_FNC_PSMACNF#,      /* XSP_PEV_PSMACNF */
     1508    37436    2           %XSP_FNC_PSMIIND#,      /* XSP_PEV_PSMIIND */
     1509    37437    2           %XSP_FNC_PSMICNF#,      /* XSP_PEV_PSMICNF */
     1510    37438    2           %XSP_FNC_PTYDIND#,      /* XSP_PEV_PTYDIND */
     1511    37439    2           %XSP_FNC_PUABIND#,      /* XSP_PEV_PUABIND */
     1512    37440    2           %XSP_FNC_PUERIND#,      /* XSP_PEV_PUERIND */
     1513    37441    2           %XSP_FNC_PPABIND#,      /* XSP_PEV_PPABIND */
     1514    37442    2           %XSP_FNC_PPERIND#);     /* XSP_PEV_PPERIND */
     1515    37443
     1516    37444    2       IF EVENT < %XSP_PEV_SACDREQ THEN

  37444  1 012520   200017 470500                    LDP0    @EVENT,,AUTO
         1 012521   000000 235100                    LDA     0,,PR0
         1 012522   000020 115007                    CMPA    16,DL
         1 012523   012621 602000 1                  TNC     SEND_PPDU

     1517    37445    2           GOTO SEND_PPDU;
     1518    37446    3       IF EVENT >= %XSP_PEV_SACDREQ AND EVENT <= %XSP_PEV_SCONCFN THEN DO;

  37446  1 012524   012556 602000 1                  TNC     s:37460
         1 012525   000100 115007                    CMPA    64,DL
         1 012526   012556 603000 1                  TRC     s:37460

     1519    37447                /* this is a Session event */
     1520    37448    3           IF BINBIT( EVENT, 1) THEN

  37448  1 012527   000000 236100                    LDQ     0,,PR0
         1 012530   000043 736000                    QLS     35
         1 012531   012536 600000 1                  TZE     s:37451

     1521    37449                    /* these can only be destined for the other endpoint */
     1522    37450    3               CALL XSS$SCREECH( XSP_F$EVNTERR);

  37450  1 012532   000213 630400 2                  EPPR0   139
         1 012533   000212 631400 2                  EPPR1   138
PL6.E3A0      #001=XSP$MACHINE File=XSP$MACHINE.:XSA1TSI                         WED 10/01/97 12:04 Page:345
         1 012534   000000 701000 xent               TSX1    XSS$SCREECH
         1 012535   000000 011000                    NOP     0

     1523    37451    3           VBLK.EVENT = EVENT;

  37451  1 012536   200017 470500                    LDP0    @EVENT,,AUTO
         1 012537   200003 471500                    LDP1    @VBLK,,AUTO
         1 012540   000000 236100                    LDQ     0,,PR0
         1 012541   100006 552104                    STBQ    6,'04'O,PR1

     1524    37452    3           CALL XSP$SSEND( VBLK)

  37452  1 012542   200003 630500                    EPPR0   @VBLK,,AUTO
         1 012543   000212 631400 2                  EPPR1   138
         1 012544   000000 701000 xent               TSX1    XSP$SSEND
         1 012545   012547 702000 1                  TSX2    s:37454
         1 012546   012554 710000 1                  TRA     s:37457

     1525    37453    4           WHENALTRETURN DO;

     1526    37454    4               PCTX.ABORTING = %TRUE;

  37454  1 012547   200010 470500                    LDP0    PCTX$,,AUTO
         1 012550   000002 236007                    LDQ     2,DL
         1 012551   000000 256100                    ORSQ    0,,PR0

     1527    37455    4               ALTRETURN;

  37455  1 012552   200016 221300                    LDX1  ! CONTINUING+2,,AUTO
         1 012553   000000 702211                    TSX2  ! 0,X1

     1528    37456    4               END;
     1529    37457    3           RETURN;

  37457  1 012554   200016 221300                    LDX1  ! CONTINUING+2,,AUTO
         1 012555   000001 702211                    TSX2  ! 1,X1

PL6.E3A0      #001=XSP$MACHINE File=XSP$MACHINE.:XSA1TSI                         WED 10/01/97 12:04 Page:346
     1530    37458    3           END;
     1531    37459            /* determine whether event is to be reported to this user or other end */
     1532    37460    3       IF BINBIT( EVENT, 1) THEN DO;

  37460  1 012556   000000 236100                    LDQ     0,,PR0
         1 012557   000043 736000                    QLS     35
         1 012560   012621 600000 1                  TZE     SEND_PPDU

     1533    37461                /* odd event number means report it (as FPT) to this user */
     1534    37462    3           XSP$GENERIC.FNC = PEV_TO_FNC( EVENT / 2 - 32);

  37462  1 012561   000000 236100                    LDQ     0,,PR0
         1 012562   000001 772000                    QRL     1
         1 012563   200011 471500                    LDP1    PFPT$,,AUTO
         1 012564   000100 100406                    MLR     fill='000'O
         1 012565   777772 000001 0                  ADSC9   PEV_TO_FNC-8,Q           cn=0,n=1
         1 012566   100000 000001                    ADSC9   0,,PR1                   cn=0,n=1

     1535    37463    3           IF XSS_TRACE > 0 THEN

  37463  1 012567   000000 235000 xsym               LDA     XSS_TRACE
         1 012570   012575 604400 1                  TMOZ    s:37465

     1536    37464    3               CALL XSP$DUMPFPT( XSP$GENERIC);

  37464  1 012571   200011 630500                    EPPR0   PFPT$,,AUTO
         1 012572   000212 631400 2                  EPPR1   138
         1 012573   000000 701000 xent               TSX1    XSP$DUMPFPT
         1 012574   000000 011000                    NOP     0

     1537    37465    4           IF PCTX.ENTRY$ ~= ENTADDR( NIL) THEN DO;

  37465  1 012575   200010 470500                    LDP0    PCTX$,,AUTO
         1 012576   000007 236100                    LDQ     7,,PR0
         1 012577   000003 116000 2                  CMPQ    3
         1 012600   012614 600000 1                  TZE     s:37473

PL6.E3A0      #001=XSP$MACHINE File=XSP$MACHINE.:XSA1TSI                         WED 10/01/97 12:04 Page:347
     1538    37466    4               CALL PCTX.ENTRY$( XSP$GENERIC)

  37466  1 012601   200011 630500                    EPPR0   PFPT$,,AUTO
         1 012602   200010 471500                    LDP1    PCTX$,,AUTO
         1 012603   100007 220100                    LDX0    7,,PR1
         1 012604   000212 631400 2                  EPPR1   138
         1 012605   000000 701010                    TSX1    0,X0
         1 012606   012610 702000 1                  TSX2    s:37468
         1 012607   012613 710000 1                  TRA     s:37470

     1539    37467    5               WHENALTRETURN DO;

     1540    37468    5                   PCTX.ABORTING = %TRUE;

  37468  1 012610   200010 470500                    LDP0    PCTX$,,AUTO
         1 012611   000002 236007                    LDQ     2,DL
         1 012612   000000 256100                    ORSQ    0,,PR0

     1541    37469    5                   END;

     1542    37470    4               END;

  37470  1 012613   012634 710000 1                  TRA     s:37484

     1543    37471    3           ELSE
     1544    37472                    /* no Presentation-user handler routine defined.  Oops! */
     1545    37473    3               CALL XSS$SCREECH( XSP_F$NOPRES);

  37473  1 012614   000214 630400 2                  EPPR0   140
         1 012615   000212 631400 2                  EPPR1   138
         1 012616   000000 701000 xent               TSX1    XSS$SCREECH
         1 012617   000000 011000                    NOP     0

     1546    37474    3           END;

  37474  1 012620   012634 710000 1                  TRA     s:37484

PL6.E3A0      #001=XSP$MACHINE File=XSP$MACHINE.:XSA1TSI                         WED 10/01/97 12:04 Page:348
     1547    37475    3       ELSE DO;

     1548    37476                /* even event number means send it (as PPDU) to the other end */
     1549    37477    3   SEND_PPDU:
     1550    37478    3           VBLK.EVENT = EVENT;

  37478  1 012621   200003 471500       SEND_PPDU    LDP1    @VBLK,,AUTO
         1 012622   000000 236100                    LDQ     0,,PR0
         1 012623   100006 552104                    STBQ    6,'04'O,PR1

     1551    37479    3           CALL XSP$ENCODE( VBLK)

  37479  1 012624   200003 630500                    EPPR0   @VBLK,,AUTO
         1 012625   000212 631400 2                  EPPR1   138
         1 012626   000000 701000 xent               TSX1    XSP$ENCODE
         1 012627   012631 702000 1                  TSX2    s:37481
         1 012630   012634 710000 1                  TRA     s:37484

     1552    37480    4           WHENALTRETURN DO;

     1553    37481    4               PCTX.ABORTING = %TRUE;

  37481  1 012631   200010 470500                    LDP0    PCTX$,,AUTO
         1 012632   000002 236007                    LDQ     2,DL
         1 012633   000000 256100                    ORSQ    0,,PR0

     1554    37482    4               END;

     1555    37483    3           END;

     1556    37484    2       IF PCTX.ABORTING THEN

  37484  1 012634   200010 470500                    LDP0    PCTX$,,AUTO
         1 012635   000000 236100                    LDQ     0,,PR0
         1 012636   000002 316007                    CANQ    2,DL
         1 012637   012642 600000 1                  TZE     s:37486

PL6.E3A0      #001=XSP$MACHINE File=XSP$MACHINE.:XSA1TSI                         WED 10/01/97 12:04 Page:349
     1557    37485    2           ALTRETURN;

  37485  1 012640   200016 221300                    LDX1  ! CONTINUING+2,,AUTO
         1 012641   000000 702211                    TSX2  ! 0,X1

     1558    37486    2       RETURN;

  37486  1 012642   200016 221300                    LDX1  ! CONTINUING+2,,AUTO
         1 012643   000001 702211                    TSX2  ! 1,X1

     1559    37487
     1560    37488    2       END EVNT;
     1561    37489        %EJECT;
PL6.E3A0      #001=XSP$MACHINE File=XSP$MACHINE.:XSA1TSI                         WED 10/01/97 12:04 Page:350
     1562    37490        /*****************************************************************************
     1563    37491        *                                                                            *
     1564    37492        *       OOPS Routine                                                         *
     1565    37493        *                                                                            *
     1566    37494        *****************************************************************************/
     1567    37495    1   OOPS: PROC;

  37495  1 012644   200016 741300       OOPS         STX1  ! CONTINUING+2,,AUTO

     1568    37496
     1569    37497            /* An illegal state/event combination was detected */
     1570    37498    2       IF VBLK.EVENT < %XSP_PEV_PACDREQ THEN

  37498  1 012645   200003 470500                    LDP0    @VBLK,,AUTO
         1 012646   000006 236100                    LDQ     6,,PR0
         1 012647   000777 376007                    ANQ     511,DL
         1 012650   000100 116007                    CMPQ    64,DL
         1 012651   012656 603000 1                  TRC     s:37503

     1571    37499                /* Illegal incoming PPDU or Session event, so abort connection */
     1572    37500    2           PCTX.ABORTING = %TRUE;

  37500  1 012652   200010 471500                    LDP1    PCTX$,,AUTO
         1 012653   000002 236007                    LDQ     2,DL
         1 012654   100000 256100                    ORSQ    0,,PR1
         1 012655   012662 710000 1                  TRA     s:37504

     1573    37501    2       ELSE
     1574    37502                /* Illegal event was a user request, so just crab about it */
     1575    37503    2           PCTX.STATE = PCTX.STATE + 128;

  37503  1 012656   200010 471500                    LDP1    PCTX$,,AUTO
         1 012657   100000 236100                    LDQ     0,,PR1
         1 012660   200000 036003                    ADLQ    65536,DU
         1 012661   100000 552140                    STBQ    0,'40'O,PR1

     1576    37504    2       RETURN;
PL6.E3A0      #001=XSP$MACHINE File=XSP$MACHINE.:XSA1TSI                         WED 10/01/97 12:04 Page:351

  37504  1 012662   200016 221300                    LDX1  ! CONTINUING+2,,AUTO
         1 012663   000001 702211                    TSX2  ! 1,X1

     1577    37505
     1578    37506    2       END OOPS;
     1579    37507        %EJECT;
PL6.E3A0      #001=XSP$MACHINE File=XSP$MACHINE.:XSA1TSI                         WED 10/01/97 12:04 Page:352
     1580    37508        /*****************************************************************************
     1581    37509        *                                                                            *
     1582    37510        *       ACTIONxx Routines                                                    *
     1583    37511        *                                                                            *
     1584    37512        *****************************************************************************/
     1585    37513    1   ACTION00: PROC;

  37513  1 012664   200016 741300       ACTION00     STX1  ! CONTINUING+2,,AUTO
         1 012665   012667 710000 1                  TRA     s:37520

     1586    37514
     1587    37515    2   ACTION01: ENTRY;

  37515  1 012666   200016 741300       ACTION01     STX1  ! CONTINUING+2,,AUTO

     1588    37516
     1589    37517            /* "Mark presentation contexts proposed for definition which provider
     1590    37518                cannot support as 'provider-rejection'." */
     1591    37519            /* Events:  CP AC */
     1592    37520    3       DO I = 1 TO %MAXBITS;

  37520  1 012667   000001 235007                    LDA     1,DL
         1 012670   200006 755100                    STA     I,,AUTO

     1593    37521    4           IF CMAP.STATE( I) = %XSP_CMAP_RMTDEF THEN DO;

  37521  1 012671   200006 235100                    LDA     I,,AUTO
         1 012672   000001 735000                    ALS     1
         1 012673   200005 470500                    LDP0    CMAP$,,AUTO
         1 012674   000001 236105                    LDQ     1,AL,PR0
         1 012675   000777 376007                    ANQ     511,DL
         1 012676   000003 116007                    CMPQ    3,DL
         1 012677   012706 601000 1                  TNZ     s:37525

     1594    37522    4               IF CMAP.ABSCTXTID( I) = 0 THEN

  37522  1 012700   000001 236105                    LDQ     1,AL,PR0
PL6.E3A0      #001=XSP$MACHINE File=XSP$MACHINE.:XSA1TSI                         WED 10/01/97 12:04 Page:353
         1 012701   777000 316003                    CANQ    -512,DU
         1 012702   012706 601000 1                  TNZ     s:37525

     1595    37523    4                   CMAP.RESULT( I) = %XSP_RSLT_PREJECT;

  37523  1 012703   000215 376000 2                  ANQ     141
         1 012704   002000 276007                    ORQ     1024,DL
         1 012705   000001 756105                    STQ     1,AL,PR0

     1596    37524    4               END;

     1597    37525    3           END;

  37525  1 012706   200006 054100                    AOS     I,,AUTO
         1 012707   200006 235100                    LDA     I,,AUTO
         1 012710   000010 115007                    CMPA    8,DL
         1 012711   012671 604400 1                  TMOZ    s:37521

     1598    37526    2       RETURN;

  37526  1 012712   200016 221300                    LDX1  ! CONTINUING+2,,AUTO
         1 012713   000001 702211                    TSX2  ! 1,X1

     1599    37527
     1600    37528    2   ACTION02: ENTRY;

  37528  1 012714   200016 741300       ACTION02     STX1  ! CONTINUING+2,,AUTO

     1601    37529
     1602    37530            /* "Set cr and rl to FALSE." */
     1603    37531            /* Events:  PCONREQ CP PRELRSP SRELCNP PRELRSN SRELCNN */
     1604    37532    2       PCTX.FLAGS.CR = %FALSE;

  37532  1 012715   200010 470500                    LDP0    PCTX$,,AUTO
         1 012716   000216 236000 2                  LDQ     142
         1 012717   000000 356100                    ANSQ    0,,PR0

PL6.E3A0      #001=XSP$MACHINE File=XSP$MACHINE.:XSA1TSI                         WED 10/01/97 12:04 Page:354
     1605    37533    2       PCTX.FLAGS.RL = %FALSE;

  37533  1 012720   000217 236000 2                  LDQ     143
         1 012721   000000 356100                    ANSQ    0,,PR0

     1606    37534    2       RETURN;

  37534  1 012722   200016 221300                    LDX1  ! CONTINUING+2,,AUTO
         1 012723   000001 702211                    TSX2  ! 1,X1

     1607    37535
     1608    37536    2   ACTION03: ENTRY;

  37536  1 012724   200016 741300       ACTION03     STX1  ! CONTINUING+2,,AUTO

     1609    37537
     1610    37538            /* "Record abstract and transfer syntaxes for the presentation contexts
     1611    37539                of the agreed DCS and for the default context." */
     1612    37540            /* Events:  CPA */
     1613    37541    2       PCTX.INIDCSMASK = VBLK.DEFMASK;

  37541  1 012725   200003 470500                    LDP0    @VBLK,,AUTO
         1 012726   000007 236100                    LDQ     7,,PR0
         1 012727   200010 471500                    LDP1    PCTX$,,AUTO
         1 012730   100004 756100                    STQ     4,,PR1

     1614    37542    2       PCTX.CURDCSMASK = VBLK.DEFMASK;

  37542  1 012731   000007 236100                    LDQ     7,,PR0
         1 012732   100003 756100                    STQ     3,,PR1

     1615    37543    2       PCTX.DFLCTXTID = CMAP.ABSCTXTID(0);

  37543  1 012733   200005 473500                    LDP3    CMAP$,,AUTO
         1 012734   300001 236100                    LDQ     1,,PR3
         1 012735   000022 772000                    QRL     18
         1 012736   100001 552110                    STBQ    1,'10'O,PR1
PL6.E3A0      #001=XSP$MACHINE File=XSP$MACHINE.:XSA1TSI                         WED 10/01/97 12:04 Page:355

     1616    37544    2       RETURN;

  37544  1 012737   200016 221300                    LDX1  ! CONTINUING+2,,AUTO
         1 012740   000001 702211                    TSX2  ! 1,X1

     1617    37545
     1618    37546    2   ACTION04: ENTRY;

  37546  1 012741   200016 741300       ACTION04     STX1  ! CONTINUING+2,,AUTO

     1619    37547
     1620    37548            /* "Propose at least one transfer syntax for each presentation
     1621    37549                context." */
     1622    37550            /* Events:  PCONREQ PALTREQ */
     1623    37551    3       DO I = 1 TO %MAXBITS;

  37551  1 012742   000001 235007                    LDA     1,DL
         1 012743   200006 755100                    STA     I,,AUTO

     1624    37552    3           IF CMAP.STATE( I) = %XSP_CMAP_LCLDEF THEN

  37552  1 012744   200006 235100                    LDA     I,,AUTO
         1 012745   000001 735000                    ALS     1
         1 012746   200005 470500                    LDP0    CMAP$,,AUTO
         1 012747   000001 236105                    LDQ     1,AL,PR0
         1 012750   000777 376007                    ANQ     511,DL
         1 012751   000001 116007                    CMPQ    1,DL
         1 012752   012757 601000 1                  TNZ     s:37554

     1625    37553    3               CMAP.TFRCTXTID( I) = 1;  /*N* hardwired ISO 8825 syntax index */

  37553  1 012753   000001 236105                    LDQ     1,AL,PR0
         1 012754   000220 376000 2                  ANQ     144
         1 012755   000001 276003                    ORQ     1,DU
         1 012756   000001 756105                    STQ     1,AL,PR0

PL6.E3A0      #001=XSP$MACHINE File=XSP$MACHINE.:XSA1TSI                         WED 10/01/97 12:04 Page:356
     1626    37554    3           END;

  37554  1 012757   200006 054100                    AOS     I,,AUTO
         1 012760   200006 235100                    LDA     I,,AUTO
         1 012761   000010 115007                    CMPA    8,DL
         1 012762   012744 604400 1                  TMOZ    s:37552

     1627    37555    2       RETURN;

  37555  1 012763   200016 221300                    LDX1  ! CONTINUING+2,,AUTO
         1 012764   000001 702211                    TSX2  ! 1,X1

     1628    37556
     1629    37557    2   ACTION05: ENTRY;

  37557  1 012765   200016 741300       ACTION05     STX1  ! CONTINUING+2,,AUTO

     1630    37558
     1631    37559            /* "Propose a transfer syntax for the default context if one is named in
     1632    37560                the request service primitive." */
     1633    37561            /* Events:  PCONREQ */
     1634    37562    2       IF CMAP.STATE(0) = %XSP_CMAP_LCLDEF THEN

  37562  1 012766   200005 470500                    LDP0    CMAP$,,AUTO
         1 012767   000001 236100                    LDQ     1,,PR0
         1 012770   000777 376007                    ANQ     511,DL
         1 012771   000001 116007                    CMPQ    1,DL
         1 012772   012775 601000 1                  TNZ     s:37564

     1635    37563    2           CMAP.TFRCTXTID(0) = 1;  /*N* hardwired ISO 8825 syntax index */

  37563  1 012773   000001 236003                    LDQ     1,DU
         1 012774   000001 552120                    STBQ    1,'20'O,PR0

     1636    37564    2       RETURN;

  37564  1 012775   200016 221300                    LDX1  ! CONTINUING+2,,AUTO
PL6.E3A0      #001=XSP$MACHINE File=XSP$MACHINE.:XSA1TSI                         WED 10/01/97 12:04 Page:357
         1 012776   000001 702211                    TSX2  ! 1,X1

     1637    37565
     1638    37566    2   ACTION06: ENTRY;

  37566  1 012777   200016 741300       ACTION06     STX1  ! CONTINUING+2,,AUTO

     1639    37567
     1640    37568            /* "Select one transfer syntax for each presentation context agreed for
     1641    37569                definition and include the agreed presentation context in the DCS." */
     1642    37570            /* Events:  PCONRSP PCONRSN PALTRSP */
     1643    37571    3       DO I = 1 TO %MAXBITS;

  37571  1 013000   000001 235007                    LDA     1,DL
         1 013001   200006 755100                    STA     I,,AUTO

     1644    37572    3           IF CMAP.STATE( I) = %XSP_CMAP_RMTDEF THEN

  37572  1 013002   200006 235100                    LDA     I,,AUTO
         1 013003   000001 735000                    ALS     1
         1 013004   200005 470500                    LDP0    CMAP$,,AUTO
         1 013005   000001 236105                    LDQ     1,AL,PR0
         1 013006   000777 376007                    ANQ     511,DL
         1 013007   000003 116007                    CMPQ    3,DL
         1 013010   013015 601000 1                  TNZ     s:37574

     1645    37573    3               CMAP.STATE( I) = %XSP_CMAP_ACTIVE;

  37573  1 013011   000001 236105                    LDQ     1,AL,PR0
         1 013012   000221 376000 2                  ANQ     145
         1 013013   000005 276007                    ORQ     5,DL
         1 013014   000001 756105                    STQ     1,AL,PR0

     1646    37574    3           END;

  37574  1 013015   200006 054100                    AOS     I,,AUTO
         1 013016   200006 235100                    LDA     I,,AUTO
PL6.E3A0      #001=XSP$MACHINE File=XSP$MACHINE.:XSA1TSI                         WED 10/01/97 12:04 Page:358
         1 013017   000010 115007                    CMPA    8,DL
         1 013020   013002 604400 1                  TMOZ    s:37572

     1647    37575    2       PCTX.INIDCSMASK = VBLK.DEFMASK;

  37575  1 013021   200003 470500                    LDP0    @VBLK,,AUTO
         1 013022   000007 236100                    LDQ     7,,PR0
         1 013023   200010 471500                    LDP1    PCTX$,,AUTO
         1 013024   100004 756100                    STQ     4,,PR1

     1648    37576    2       PCTX.CURDCSMASK = VBLK.DEFMASK;

  37576  1 013025   000007 236100                    LDQ     7,,PR0
         1 013026   100003 756100                    STQ     3,,PR1

     1649    37577    2       RETURN;

  37577  1 013027   200016 221300                    LDX1  ! CONTINUING+2,,AUTO
         1 013030   000001 702211                    TSX2  ! 1,X1

     1650    37578
     1651    37579    2   ACTION07: ENTRY;

  37579  1 013031   200016 741300       ACTION07     STX1  ! CONTINUING+2,,AUTO

     1652    37580
     1653    37581            /* "Set rl to TRUE." */
     1654    37582            /* Events:  PRELREQ SRELIND */
     1655    37583    2       PCTX.FLAGS.RL = %TRUE;

  37583  1 013032   200010 470500                    LDP0    PCTX$,,AUTO
         1 013033   000020 236007                    LDQ     16,DL
         1 013034   000000 256100                    ORSQ    0,,PR0

     1656    37584    2       RETURN;

  37584  1 013035   200016 221300                    LDX1  ! CONTINUING+2,,AUTO
PL6.E3A0      #001=XSP$MACHINE File=XSP$MACHINE.:XSA1TSI                         WED 10/01/97 12:04 Page:359
         1 013036   000001 702211                    TSX2  ! 1,X1

     1657    37585
     1658    37586    2   ACTION08: ENTRY;

  37586  1 013037   200016 741300       ACTION08     STX1  ! CONTINUING+2,,AUTO

     1659    37587
     1660    37588            /* "If rl is TRUE then set cr to TRUE." */
     1661    37589            /* Events:  PRELREQ SRELIND */
     1662    37590    2       IF PCTX.FLAGS.RL THEN

  37590  1 013040   200010 470500                    LDP0    PCTX$,,AUTO
         1 013041   000000 236100                    LDQ     0,,PR0
         1 013042   000020 316007                    CANQ    16,DL
         1 013043   013046 600000 1                  TZE     s:37592

     1663    37591    2           PCTX.FLAGS.CR = %TRUE;

  37591  1 013044   000040 236007                    LDQ     32,DL
         1 013045   000000 256100                    ORSQ    0,,PR0

     1664    37592    2       RETURN;

  37592  1 013046   200016 221300                    LDX1  ! CONTINUING+2,,AUTO
         1 013047   000001 702211                    TSX2  ! 1,X1

     1665    37593
     1666    37594    2   ACTION09: ENTRY;

  37594  1 013050   200016 741300       ACTION09     STX1  ! CONTINUING+2,,AUTO

     1667    37595
     1668    37596            /* "If aep is TRUE then:
     1669    37597                    a) set aep to FALSE; and
     1670    37598                    b) if FU(CR) is TRUE then the synchronization points associated
     1671    37599                       with the last activity no longer have associated DCSs." */
PL6.E3A0      #001=XSP$MACHINE File=XSP$MACHINE.:XSA1TSI                         WED 10/01/97 12:04 Page:360
     1672    37600            /* Events:  AC TD TTD TE TC */
     1673    37601            /* Events:  STKGIND STKPIND SCTGIND SACSIND SACRIND SACDIND */
     1674    37602    3       IF PCTX.FLAGS.AEP THEN DO;

  37602  1 013051   200010 470500                    LDP0    PCTX$,,AUTO
         1 013052   000000 236100                    LDQ     0,,PR0
         1 013053   000010 316007                    CANQ    8,DL
         1 013054   013062 600000 1                  TZE     s:37608

     1675    37603    3           PCTX.FLAGS.AEP = %FALSE;

  37603  1 013055   000222 236000 2                  LDQ     146
         1 013056   000000 356100                    ANSQ    0,,PR0

     1676    37604    4           IF PCTX.FU.CR THEN DO;

  37604  1 013057   000000 236100                    LDQ     0,,PR0
         1 013060   400000 316007                    CANQ    -131072,DL
         1 013061   013062 600000 1                  TZE     s:37608

     1677    37605    4               ;  /*N*  TBD */
     1678    37606    4               END;

     1679    37607    3           END;

     1680    37608    2       RETURN;

  37608  1 013062   200016 221300                    LDX1  ! CONTINUING+2,,AUTO
         1 013063   000001 702211                    TSX2  ! 1,X1

     1681    37609
     1682    37610    2   ACTION10: ENTRY;

  37610  1 013064   200016 741300       ACTION10     STX1  ! CONTINUING+2,,AUTO

     1683    37611
     1684    37612            /* "Record selected transfer syntax for each new presentation context and
PL6.E3A0      #001=XSP$MACHINE File=XSP$MACHINE.:XSA1TSI                         WED 10/01/97 12:04 Page:361
     1685    37613                include new presentation contexts in the DCS." */
     1686    37614            /* Events:  ACA */
     1687    37615    2       ;  /*N*  TBD */
     1688    37616    2       RETURN;

  37616  1 013065   000001 702211                    TSX2  ! 1,X1

     1689    37617
     1690    37618    2   ACTION11: ENTRY;

  37618  1 013066   200016 741300       ACTION11     STX1  ! CONTINUING+2,,AUTO

     1691    37619
     1692    37620            /* "Remove the presentation contexts agreed for deletion from the DCS." */
     1693    37621            /* Events:  PALTRSP ACA */
     1694    37622    2       ;  /*N*  TBD */
     1695    37623    2       RETURN;

  37623  1 013067   000001 702211                    TSX2  ! 1,X1

     1696    37624
     1697    37625    2   ACTION12: ENTRY;

  37625  1 013070   200016 741300       ACTION12     STX1  ! CONTINUING+2,,AUTO

     1698    37626
     1699    37627            /* "Record FU(f) for f in fu-dom according to the presentation
     1700    37628                requirements in the CPA PPDU." */
     1701    37629            /* Events:  PCONRSP CPA */
     1702    37630    2       PCTX.FU = XSP$CONNECT.PFU;

  37630  1 013071   200010 470500                    LDP0    PCTX$,,AUTO
         1 013072   200011 471500                    LDP1    PFPT$,,AUTO
         1 013073   100013 236100                    LDQ     11,,PR1
         1 013074   600000 376003                    ANQ     -65536,DU
         1 013075   000022 772000                    QRL     18
         1 013076   000000 552110                    STBQ    0,'10'O,PR0
PL6.E3A0      #001=XSP$MACHINE File=XSP$MACHINE.:XSA1TSI                         WED 10/01/97 12:04 Page:362

     1703    37631    2       RETURN;

  37631  1 013077   200016 221300                    LDX1  ! CONTINUING+2,,AUTO
         1 013100   000001 702211                    TSX2  ! 1,X1

     1704    37632
     1705    37633    2   ACTION13: ENTRY;

  37633  1 013101   200016 741300       ACTION13     STX1  ! CONTINUING+2,,AUTO

     1706    37634
     1707    37635            /* "If FU(CR) then associate the DCS with the syncpoint identifier." */
     1708    37636            /* Events:  PSMIRSP PSMIIND PSMARSP SSMACNF */
     1709    37637    2       ;  /*N*  TBD */
     1710    37638    2       RETURN;

  37638  1 013102   000001 702211                    TSX2  ! 1,X1

     1711    37639
     1712    37640    2   ACTION14: ENTRY;

  37640  1 013103   200016 741300       ACTION14     STX1  ! CONTINUING+2,,AUTO

     1713    37641
     1714    37642            /* "If FU(CR) and an activity is in progress, set the DCS to the
     1715    37643                inter-activity DCS." */
     1716    37644            /* Events:  PACERSP SACECNF PACIRSP SACICNF PACDRSP SACDCNF */
     1717    37645    2       ;  /*N*  TBD */
     1718    37646    2       RETURN;

  37646  1 013104   000001 702211                    TSX2  ! 1,X1

     1719    37647
     1720    37648    2   ACTION15: ENTRY;

  37648  1 013105   200016 741300       ACTION15     STX1  ! CONTINUING+2,,AUTO
PL6.E3A0      #001=XSP$MACHINE File=XSP$MACHINE.:XSA1TSI                         WED 10/01/97 12:04 Page:363

     1721    37649
     1722    37650            /* "Set aep to TRUE." */
     1723    37651            /* Events:  PACERSP */
     1724    37652    2       PCTX.FLAGS.AEP = %TRUE;

  37652  1 013106   200010 470500                    LDP0    PCTX$,,AUTO
         1 013107   000010 236007                    LDQ     8,DL
         1 013110   000000 256100                    ORSQ    0,,PR0

     1725    37653    2       RETURN;

  37653  1 013111   200016 221300                    LDX1  ! CONTINUING+2,,AUTO
         1 013112   000001 702211                    TSX2  ! 1,X1

     1726    37654
     1727    37655    2   ACTION16: ENTRY;

  37655  1 013113   200016 741300       ACTION16     STX1  ! CONTINUING+2,,AUTO

     1728    37656
     1729    37657            /* "Set the DCS to that associated with the syncpoint identifier." */
     1730    37658            /* Events:  PACRREQ SACRIND RS */
     1731    37659    2       ;  /*N*  TBD */
     1732    37660    2       RETURN;

  37660  1 013114   000001 702211                    TSX2  ! 1,X1

     1733    37661
     1734    37662    2   ACTION17: ENTRY;

  37662  1 013115   200016 741300       ACTION17     STX1  ! CONTINUING+2,,AUTO

     1735    37663
     1736    37664            /* "If FU(CR) then remember the DCS as the inter-activity DCS." */
     1737    37665            /* Events:  PACSREQ SACSIND PACRREQ SACRIND */
     1738    37666    2       IF PCTX.FU.CR THEN
PL6.E3A0      #001=XSP$MACHINE File=XSP$MACHINE.:XSA1TSI                         WED 10/01/97 12:04 Page:364

  37666  1 013116   200010 470500                    LDP0    PCTX$,,AUTO
         1 013117   000000 236100                    LDQ     0,,PR0
         1 013120   400000 316007                    CANQ    -131072,DL
         1 013121   013124 600000 1                  TZE     s:37668

     1739    37667    2           PCTX.ACTDCSMASK = PCTX.CURDCSMASK;

  37667  1 013122   000003 236100                    LDQ     3,,PR0
         1 013123   000005 756100                    STQ     5,,PR0

     1740    37668    2       RETURN;

  37668  1 013124   200016 221300                    LDX1  ! CONTINUING+2,,AUTO
         1 013125   000001 702211                    TSX2  ! 1,X1

     1741    37669
     1742    37670    2   ACTION18: ENTRY;

  37670  1 013126   200016 741300       ACTION18     STX1  ! CONTINUING+2,,AUTO

     1743    37671
     1744    37672            /* "Set the DCS to that agreed during presentation-connection
     1745    37673                establishment." */
     1746    37674            /* Events:  PRSXREQ RS */
     1747    37675    2       PCTX.CURDCSMASK = PCTX.INIDCSMASK;

  37675  1 013127   200010 470500                    LDP0    PCTX$,,AUTO
         1 013130   000004 236100                    LDQ     4,,PR0
         1 013131   000003 756100                    STQ     3,,PR0

     1748    37676    2       RETURN;

  37676  1 013132   200016 221300                    LDX1  ! CONTINUING+2,,AUTO
         1 013133   000001 702211                    TSX2  ! 1,X1

     1749    37677
PL6.E3A0      #001=XSP$MACHINE File=XSP$MACHINE.:XSA1TSI                         WED 10/01/97 12:04 Page:365
     1750    37678    2   ACTION19: ENTRY;

  37678  1 013134   200016 741300       ACTION19     STX1  ! CONTINUING+2,,AUTO

     1751    37679
     1752    37680            /* "Eliminate any associations between syncpoint serial number and the
     1753    37681                DCS for the current activity." */
     1754    37682            /* Events:  SACECNF PACDRSP SACDCNF */
     1755    37683    2       ;  /*N*  TBD */
     1756    37684    2       RETURN;

  37684  1 013135   000001 702211                    TSX2  ! 1,X1

     1757    37685
     1758    37686    2   ACTION20: ENTRY;

  37686  1 013136   200016 741300       ACTION20     STX1  ! CONTINUING+2,,AUTO

     1759    37687
     1760    37688            /* "Set aep to FALSE." */
     1761    37689            /* Events:  PCONREQ CP SACIIND */
     1762    37690    2       PCTX.FLAGS.AEP = %FALSE;

  37690  1 013137   200010 470500                    LDP0    PCTX$,,AUTO
         1 013140   000222 236000 2                  LDQ     146
         1 013141   000000 356100                    ANSQ    0,,PR0

     1763    37691    2       RETURN;

  37691  1 013142   200016 221300                    LDX1  ! CONTINUING+2,,AUTO
         1 013143   000001 702211                    TSX2  ! 1,X1

     1764    37692
     1765    37693    2   ACTION21: ENTRY;

  37693  1 013144   200016 741300       ACTION21     STX1  ! CONTINUING+2,,AUTO

PL6.E3A0      #001=XSP$MACHINE File=XSP$MACHINE.:XSA1TSI                         WED 10/01/97 12:04 Page:366
     1766    37694
     1767    37695            /* "Set the DCS as specified by the Presentation context identifier list
     1768    37696                parameter of the PPDU." */
     1769    37697            /* Events:  RS RSA */
     1770    37698    2       ;  /*N*  TBD */
     1771    37699    2       RETURN;

  37699  1 013145   000001 702211                    TSX2  ! 1,X1

     1772    37700
     1773    37701    2   ACTION22: ENTRY;

  37701  1 013146   200016 741300       ACTION22     STX1  ! CONTINUING+2,,AUTO

     1774    37702
     1775    37703            /* "If FU(CR), then eliminate any associations between syncpoint
     1776    37704                identifiers and DCSs." */
     1777    37705            /* Events:  PSMARSP SSMACNF */
     1778    37706    2       ;  /*N*  TBD */
     1779    37707    2       RETURN;

  37707  1 013147   000001 702211                    TSX2  ! 1,X1

     1780    37708
     1781    37709    2       END ACTION00;
     1782    37710        %EJECT;
PL6.E3A0      #001=XSP$MACHINE File=XSP$MACHINE.:XSA1TSI                         WED 10/01/97 12:04 Page:367
     1783    37711        /*****************************************************************************
     1784    37712        *                                                                            *
     1785    37713        *       PREDxx Routines                                                      *
     1786    37714        *                                                                            *
     1787    37715        *****************************************************************************/
     1788    37716    1   PRED00: PROC;

  37716  1 013150   200016 741300       PRED00       STX1  ! CONTINUING+2,,AUTO
         1 013151   013153 710000 1                  TRA     s:37723

     1789    37717
     1790    37718    2   PRED01: ENTRY;

  37718  1 013152   200016 741300       PRED01       STX1  ! CONTINUING+2,,AUTO

     1791    37719
     1792    37720            /* "The presentation-connection is acceptable to the PPM (local
     1793    37721                matter)." */
     1794    37722            /* Events:  CP */
     1795    37723    2       IF VBLK.PPDUERR = 0 THEN

  37723  1 013153   200003 470500                    LDP0    @VBLK,,AUTO
         1 013154   000006 236100                    LDQ     6,,PR0
         1 013155   777000 316007                    CANQ    -512,DL
         1 013156   013161 601000 1                  TNZ     s:37725

     1796    37724    2           PRED(1) = %TRUE;

  37724  1 013157   200000 236003                    LDQ     65536,DU
         1 013160   200012 256100                    ORSQ    PRED,,AUTO

     1797    37725    2       PINV(1) = %FALSE;

  37725  1 013161   000223 236000 2                  LDQ     147
         1 013162   200013 356100                    ANSQ    PINV,,AUTO

     1798    37726    2       RETURN;
PL6.E3A0      #001=XSP$MACHINE File=XSP$MACHINE.:XSA1TSI                         WED 10/01/97 12:04 Page:368

  37726  1 013163   000001 702211                    TSX2  ! 1,X1

     1799    37727
     1800    37728    2   PRED02: ENTRY;

  37728  1 013164   200016 741300       PRED02       STX1  ! CONTINUING+2,,AUTO

     1801    37729
     1802    37730            /* "If present, the named default context can be supported." */
     1803    37731            /* Events:  PCONREQ CP */
     1804    37732    2       IF XSP$CONNECT.DFLTRSLT = %XSP_RSLT_ACCEPT THEN

  37732  1 013165   200011 470500                    LDP0    PFPT$,,AUTO
         1 013166   000003 235100                    LDA     3,,PR0
         1 013167   013172 601000 1                  TNZ     s:37734

     1805    37733    2           PRED(2) = %TRUE;

  37733  1 013170   100000 236003                    LDQ     32768,DU
         1 013171   200012 256100                    ORSQ    PRED,,AUTO

     1806    37734    2       PINV(2) = %FALSE;

  37734  1 013172   000224 236000 2                  LDQ     148
         1 013173   200013 356100                    ANSQ    PINV,,AUTO

     1807    37735    2       RETURN;

  37735  1 013174   000001 702211                    TSX2  ! 1,X1

     1808    37736
     1809    37737    2   PRED03: ENTRY;

  37737  1 013175   200016 741300       PRED03       STX1  ! CONTINUING+2,,AUTO

     1810    37738
PL6.E3A0      #001=XSP$MACHINE File=XSP$MACHINE.:XSA1TSI                         WED 10/01/97 12:04 Page:369
     1811    37739            /* "Each presentation data value is from a presentation context of the DCS
     1812    37740                proposed in the presentation-connection establishment, or from the
     1813    37741                default context if this DCS is empty." */
     1814    37742            /* Events:  PCONREQ CP PUABREQ ARU */
     1815    37743    2       IF VBLK.DEFMASK = '0'O THEN

  37743  1 013176   200003 470500                    LDP0    @VBLK,,AUTO
         1 013177   000007 235100                    LDA     7,,PR0
         1 013200   013227 601000 1                  TNZ     CHECKDCS3

     1816    37744    2   CHECKDFL3:
     1817    37745    3                                   DO;

  37745  1 013201                       CHECKDFL3    null
     1818    37746                /* no contexts were proposed for DCS */
     1819    37747    4           DO I = 1 TO %MAXBITS;

  37747  1 013201   000001 236007                    LDQ     1,DL
         1 013202   200006 756100                    STQ     I,,AUTO

     1820    37748    4               IF VBLK.DATBITS( I) THEN

  37748  1 013203   200006 235100                    LDA     I,,AUTO
         1 013204   013206 605000 1                  TPL     s:37748+3
         1 013205   000044 035003                    ADLA    36,DU
         1 013206   200003 470500                    LDP0    @VBLK,,AUTO
         1 013207   000000 066505                    CMPB    filb='0'B
         1 013210   000011 000001                    BDSC    9,A,PR0                  by=0,bit=0,n=1
         1 013211   000003 000022 2                  BDSC    3                        by=0,bit=0,n=18
         1 013212   013220 600000 1                  TZE     s:37752

     1821    37749    4                   IF I ~= CMAP.ABSCTXTID(0) THEN

  37749  1 013213   200005 471500                    LDP1    CMAP$,,AUTO
         1 013214   100001 236100                    LDQ     1,,PR1
         1 013215   000033 772000                    QRL     27
         1 013216   200006 116100                    CMPQ    I,,AUTO
PL6.E3A0      #001=XSP$MACHINE File=XSP$MACHINE.:XSA1TSI                         WED 10/01/97 12:04 Page:370
         1 013217   013226 601000 1                  TNZ     s:37755

     1822    37750                            /* here's a context used but not the default context */
     1823    37751    4                       EXIT CHECKDFL3;
     1824    37752    4               END;

  37752  1 013220   200006 054100                    AOS     I,,AUTO
         1 013221   200006 235100                    LDA     I,,AUTO
         1 013222   000010 115007                    CMPA    8,DL
         1 013223   013203 604400 1                  TMOZ    s:37748

     1825    37753                /* only the default context is used */
     1826    37754    3           PRED(3) = %TRUE;

  37754  1 013224   040000 236003                    LDQ     16384,DU
         1 013225   200012 256100                    ORSQ    PRED,,AUTO

     1827    37755    3           END;

  37755  1 013226   013256 710000 1                  TRA     s:37769

     1828    37756    2       ELSE
     1829    37757    2   CHECKDCS3:
     1830    37758    3            DO;

  37758  1 013227                       CHECKDCS3    null
     1831    37759                /* at least one context was proposed for DCS */
     1832    37760    4           DO I = 1 TO %MAXBITS;

  37760  1 013227   000001 236007                    LDQ     1,DL
         1 013230   200006 756100                    STQ     I,,AUTO

     1833    37761    4               IF VBLK.DATBITS( I) THEN

  37761  1 013231   200006 235100                    LDA     I,,AUTO
         1 013232   013234 605000 1                  TPL     s:37761+3
         1 013233   000044 035003                    ADLA    36,DU
PL6.E3A0      #001=XSP$MACHINE File=XSP$MACHINE.:XSA1TSI                         WED 10/01/97 12:04 Page:371
         1 013234   200003 470500                    LDP0    @VBLK,,AUTO
         1 013235   000000 066505                    CMPB    filb='0'B
         1 013236   000011 000001                    BDSC    9,A,PR0                  by=0,bit=0,n=1
         1 013237   000003 000022 2                  BDSC    3                        by=0,bit=0,n=18
         1 013240   013250 600000 1                  TZE     s:37765

     1834    37762    4                   IF NOT VBLK.DEFBITS( I) THEN

  37762  1 013241   200006 235100                    LDA     I,,AUTO
         1 013242   013244 605000 1                  TPL     s:37762+3
         1 013243   000044 035003                    ADLA    36,DU
         1 013244   000000 066505                    CMPB    filb='0'B
         1 013245   000007 000001                    BDSC    7,A,PR0                  by=0,bit=0,n=1
         1 013246   000003 000022 2                  BDSC    3                        by=0,bit=0,n=18
         1 013247   013256 600000 1                  TZE     s:37769

     1835    37763                            /* here's a context used but not defined */
     1836    37764    4                       EXIT CHECKDCS3;
     1837    37765    4               END;

  37765  1 013250   200006 054100                    AOS     I,,AUTO
         1 013251   200006 235100                    LDA     I,,AUTO
         1 013252   000010 115007                    CMPA    8,DL
         1 013253   013231 604400 1                  TMOZ    s:37761

     1838    37766                /* every context used has been defined */
     1839    37767    3           PRED(3) = %TRUE;

  37767  1 013254   040000 236003                    LDQ     16384,DU
         1 013255   200012 256100                    ORSQ    PRED,,AUTO

     1840    37768    3           END;

     1841    37769    2       PINV(3) = %FALSE;

  37769  1 013256   000225 236000 2                  LDQ     149
         1 013257   200013 356100                    ANSQ    PINV,,AUTO
PL6.E3A0      #001=XSP$MACHINE File=XSP$MACHINE.:XSA1TSI                         WED 10/01/97 12:04 Page:372

     1842    37770    2       RETURN;

  37770  1 013260   200016 221300                    LDX1  ! CONTINUING+2,,AUTO
         1 013261   000001 702211                    TSX2  ! 1,X1

     1843    37771
     1844    37772    2   PRED04: ENTRY;

  37772  1 013262   200016 741300       PRED04       STX1  ! CONTINUING+2,,AUTO

     1845    37773
     1846    37774            /* "Each presentation data value is from a presentation context of the DCS
     1847    37775                accepted in the presentation-connection establishment, or from the
     1848    37776                default context if this DCS is empty." */
     1849    37777            /* Events:  PCONRSP CPA PCONRSN CPR */
     1850    37778    2       IF VBLK.DEFMASK = '0'O THEN

  37778  1 013263   200003 470500                    LDP0    @VBLK,,AUTO
         1 013264   000007 235100                    LDA     7,,PR0
         1 013265   013314 601000 1                  TNZ     CHECKDCS4

     1851    37779    2   CHECKDFL4:
     1852    37780    3                                   DO;

  37780  1 013266                       CHECKDFL4    null
     1853    37781                /* no contexts were accepted */
     1854    37782    4           DO I = 1 TO %MAXBITS;

  37782  1 013266   000001 236007                    LDQ     1,DL
         1 013267   200006 756100                    STQ     I,,AUTO

     1855    37783    4               IF VBLK.DATBITS( I) THEN

  37783  1 013270   200006 235100                    LDA     I,,AUTO
         1 013271   013273 605000 1                  TPL     s:37783+3
         1 013272   000044 035003                    ADLA    36,DU
PL6.E3A0      #001=XSP$MACHINE File=XSP$MACHINE.:XSA1TSI                         WED 10/01/97 12:04 Page:373
         1 013273   200003 470500                    LDP0    @VBLK,,AUTO
         1 013274   000000 066505                    CMPB    filb='0'B
         1 013275   000011 000001                    BDSC    9,A,PR0                  by=0,bit=0,n=1
         1 013276   000003 000022 2                  BDSC    3                        by=0,bit=0,n=18
         1 013277   013305 600000 1                  TZE     s:37787

     1856    37784    4                   IF I ~= CMAP.ABSCTXTID(0) THEN

  37784  1 013300   200005 471500                    LDP1    CMAP$,,AUTO
         1 013301   100001 236100                    LDQ     1,,PR1
         1 013302   000033 772000                    QRL     27
         1 013303   200006 116100                    CMPQ    I,,AUTO
         1 013304   013313 601000 1                  TNZ     s:37790

     1857    37785                            /* here's a context used but not the default context */
     1858    37786    4                       EXIT CHECKDFL4;
     1859    37787    4               END;

  37787  1 013305   200006 054100                    AOS     I,,AUTO
         1 013306   200006 235100                    LDA     I,,AUTO
         1 013307   000010 115007                    CMPA    8,DL
         1 013310   013270 604400 1                  TMOZ    s:37783

     1860    37788                /* only the default context is used */
     1861    37789    3           PRED(4) = %TRUE;

  37789  1 013311   020000 236003                    LDQ     8192,DU
         1 013312   200012 256100                    ORSQ    PRED,,AUTO

     1862    37790    3           END;

  37790  1 013313   013343 710000 1                  TRA     s:37804

     1863    37791    2       ELSE
     1864    37792    2   CHECKDCS4:
     1865    37793    3            DO;

PL6.E3A0      #001=XSP$MACHINE File=XSP$MACHINE.:XSA1TSI                         WED 10/01/97 12:04 Page:374
  37793  1 013314                       CHECKDCS4    null
     1866    37794                /* at least one context was proposed for DCS */
     1867    37795    4           DO I = 1 TO %MAXBITS;

  37795  1 013314   000001 236007                    LDQ     1,DL
         1 013315   200006 756100                    STQ     I,,AUTO

     1868    37796    4               IF VBLK.DATBITS( I) THEN

  37796  1 013316   200006 235100                    LDA     I,,AUTO
         1 013317   013321 605000 1                  TPL     s:37796+3
         1 013320   000044 035003                    ADLA    36,DU
         1 013321   200003 470500                    LDP0    @VBLK,,AUTO
         1 013322   000000 066505                    CMPB    filb='0'B
         1 013323   000011 000001                    BDSC    9,A,PR0                  by=0,bit=0,n=1
         1 013324   000003 000022 2                  BDSC    3                        by=0,bit=0,n=18
         1 013325   013335 600000 1                  TZE     s:37800

     1869    37797    4                   IF CMAP.STATE( I) ~= %XSP_CMAP_ACTIVE THEN

  37797  1 013326   200006 235100                    LDA     I,,AUTO
         1 013327   000001 735000                    ALS     1
         1 013330   200005 471500                    LDP1    CMAP$,,AUTO
         1 013331   100001 236105                    LDQ     1,AL,PR1
         1 013332   000777 376007                    ANQ     511,DL
         1 013333   000005 116007                    CMPQ    5,DL
         1 013334   013343 601000 1                  TNZ     s:37804

     1870    37798                            /* here's a context used but not accepted */
     1871    37799    4                       EXIT CHECKDCS4;
     1872    37800    4               END;

  37800  1 013335   200006 054100                    AOS     I,,AUTO
         1 013336   200006 235100                    LDA     I,,AUTO
         1 013337   000010 115007                    CMPA    8,DL
         1 013340   013316 604400 1                  TMOZ    s:37796

PL6.E3A0      #001=XSP$MACHINE File=XSP$MACHINE.:XSA1TSI                         WED 10/01/97 12:04 Page:375
     1873    37801                /* every context used has been accepted */
     1874    37802    3           PRED(4) = %TRUE;

  37802  1 013341   020000 236003                    LDQ     8192,DU
         1 013342   200012 256100                    ORSQ    PRED,,AUTO

     1875    37803    3           END;

     1876    37804    2       PINV(4) = %FALSE;

  37804  1 013343   000226 236000 2                  LDQ     150
         1 013344   200013 356100                    ANSQ    PINV,,AUTO

     1877    37805    2       RETURN;

  37805  1 013345   200016 221300                    LDX1  ! CONTINUING+2,,AUTO
         1 013346   000001 702211                    TSX2  ! 1,X1

     1878    37806
     1879    37807    2   PRED05: ENTRY;

  37807  1 013347   200016 741300       PRED05       STX1  ! CONTINUING+2,,AUTO

     1880    37808
     1881    37809            /* "Each presentation data value is from presentation contexts of the DCS,
     1882    37810                or from the default context if the DCS is empty." */
     1883    37811            /* Events:  (many) */
     1884    37812    2       IF PCTX.CURDCSMASK = '000000000000'O THEN

  37812  1 013350   200010 470500                    LDP0    PCTX$,,AUTO
         1 013351   000003 236100                    LDQ     3,,PR0
         1 013352   000013 116000 0                  CMPQ    PEV_TO_FNC+9
         1 013353   013364 601000 1                  TNZ     s:37816

     1885    37813                /*N* ..AND ONE_BIT_SET_IN( VBLK.DATBITS) */
     1886    37814    2           PRED(5) = VBLK.DATBITS( PCTX.DFLCTXTID);

PL6.E3A0      #001=XSP$MACHINE File=XSP$MACHINE.:XSA1TSI                         WED 10/01/97 12:04 Page:376
  37814  1 013354   000001 236100                    LDQ     1,,PR0
         1 013355   000011 772000                    QRL     9
         1 013356   000777 376007                    ANQ     511,DL
         1 013357   200003 471500                    LDP1    @VBLK,,AUTO
         1 013360   003100 060506                    CSL     bolr='003'O
         1 013361   100011 000001                    BDSC    9,Q,PR1                  by=0,bit=0,n=1
         1 013362   200012 050001                    BDSC    PRED,,AUTO               by=0,bit=5,n=1
         1 013363   013372 710000 1                  TRA     s:37818

     1887    37815    2       ELSE
     1888    37816    2           IF PCTX.CURDCSMASK = ( VBLK.DATMASK | PCTX.CURDCSMASK) THEN

  37816  1 013364   200003 471500                    LDP1    @VBLK,,AUTO
         1 013365   100011 276100                    ORQ     9,,PR1
         1 013366   000003 116100                    CMPQ    3,,PR0
         1 013367   013372 601000 1                  TNZ     s:37818

     1889    37817    2               PRED(5) = %TRUE;

  37817  1 013370   010000 236003                    LDQ     4096,DU
         1 013371   200012 256100                    ORSQ    PRED,,AUTO

     1890    37818    2       PINV(5) = %FALSE;

  37818  1 013372   000227 236000 2                  LDQ     151
         1 013373   200013 356100                    ANSQ    PINV,,AUTO

     1891    37819    2       RETURN;

  37819  1 013374   000001 702211                    TSX2  ! 1,X1

     1892    37820
     1893    37821    2   PRED06: ENTRY;

  37821  1 013375   200016 741300       PRED06       STX1  ! CONTINUING+2,,AUTO

     1894    37822
PL6.E3A0      #001=XSP$MACHINE File=XSP$MACHINE.:XSA1TSI                         WED 10/01/97 12:04 Page:377
     1895    37823            /* "Each presentation data value is from presentation contexts of the DCS
     1896    37824                not proposed for deletion from the DCS by the peer PPM." */
     1897    37825            /* Events:  (many) */
     1898    37826    2       ;  /*N*  TBD */
     1899    37827    2       PINV(6) = %FALSE;

  37827  1 013376   000230 236000 2                  LDQ     152
         1 013377   200013 356100                    ANSQ    PINV,,AUTO

     1900    37828    2       RETURN;

  37828  1 013400   000001 702211                    TSX2  ! 1,X1

     1901    37829
     1902    37830    2   PRED07: ENTRY;

  37830  1 013401   200016 741300       PRED07       STX1  ! CONTINUING+2,,AUTO

     1903    37831
     1904    37832            /* "Each presentation data value is from presentation contexts of the DCS
     1905    37833                not proposed for deletion from the DCS by the local PPM." */
     1906    37834            /* Events:  (many) */
     1907    37835    2       ;  /*N*  TBD */
     1908    37836    2       PINV(7) = %FALSE;

  37836  1 013402   000231 236000 2                  LDQ     153
         1 013403   200013 356100                    ANSQ    PINV,,AUTO

     1909    37837    2       RETURN;

  37837  1 013404   000001 702211                    TSX2  ! 1,X1

     1910    37838
     1911    37839    2   PRED08: ENTRY;

  37839  1 013405   200016 741300       PRED08       STX1  ! CONTINUING+2,,AUTO

PL6.E3A0      #001=XSP$MACHINE File=XSP$MACHINE.:XSA1TSI                         WED 10/01/97 12:04 Page:378
     1912    37840
     1913    37841            /* "The value of cr is TRUE." */
     1914    37842            /* Events:  PRELRSP SRELCFP */
     1915    37843    2       PRED(8) = PCTX.FLAGS.CR;

  37843  1 013406   200010 470500                    LDP0    PCTX$,,AUTO
         1 013407   000000 236100                    LDQ     0,,PR0
         1 013410   000026 736000                    QLS     22
         1 013411   200012 676100                    ERQ     PRED,,AUTO
         1 013412   001000 376003                    ANQ     512,DU
         1 013413   200012 656100                    ERSQ    PRED,,AUTO

     1916    37844    2       PINV(8) = %FALSE;

  37844  1 013414   000232 236000 2                  LDQ     154
         1 013415   200013 356100                    ANSQ    PINV,,AUTO

     1917    37845    2       RETURN;

  37845  1 013416   000001 702211                    TSX2  ! 1,X1

     1918    37846
     1919    37847    2   PRED09: ENTRY;

  37847  1 013417   200016 741300       PRED09       STX1  ! CONTINUING+2,,AUTO

     1920    37848
     1921    37849            /* "Each presentation data value is from presentation contexts of the DCS
     1922    37850                not accepted for deletion from the DCS, or from presentation contexts
     1923    37851                accepted for addition to the DCS, or if no such presentation contexts
     1924    37852                are available, from the default context." */
     1925    37853            /* Events:  PALTRSP ACA */
     1926    37854    2       ;  /*N*  TBD */
     1927    37855    2       PINV(9) = %FALSE;

  37855  1 013420   000233 236000 2                  LDQ     155
         1 013421   200013 356100                    ANSQ    PINV,,AUTO
PL6.E3A0      #001=XSP$MACHINE File=XSP$MACHINE.:XSA1TSI                         WED 10/01/97 12:04 Page:379

     1928    37856    2       RETURN;

  37856  1 013422   000001 702211                    TSX2  ! 1,X1

     1929    37857
     1930    37858    2   PRED10: ENTRY;

  37858  1 013423   200016 741300       PRED10       STX1  ! CONTINUING+2,,AUTO

     1931    37859
     1932    37860            /* (predicate 10 is not defined by the spec) */
     1933    37861            /* Events:  (none) */
     1934    37862    2       RETURN;

  37862  1 013424   000001 702211                    TSX2  ! 1,X1

     1935    37863
     1936    37864    2   PRED11: ENTRY;

  37864  1 013425   200016 741300       PRED11       STX1  ! CONTINUING+2,,AUTO

     1937    37865
     1938    37866            /* "FU(CM) is TRUE." */
     1939    37867            /* Events:  PALTREQ AC PRSXREQ RS PRSXRSP RSA */
     1940    37868    2       PRED(11) = PCTX.FU.CM;

  37868  1 013426   200010 470500                    LDP0    PCTX$,,AUTO
         1 013427   000000 236100                    LDQ     0,,PR0
         1 013430   000010 736000                    QLS     8
         1 013431   200012 676100                    ERQ     PRED,,AUTO
         1 013432   000100 376003                    ANQ     64,DU
         1 013433   200012 656100                    ERSQ    PRED,,AUTO

     1941    37869    2       PINV(11) = %FALSE;

  37869  1 013434   000234 236000 2                  LDQ     156
PL6.E3A0      #001=XSP$MACHINE File=XSP$MACHINE.:XSA1TSI                         WED 10/01/97 12:04 Page:380
         1 013435   200013 356100                    ANSQ    PINV,,AUTO

     1942    37870    2       RETURN;

  37870  1 013436   000001 702211                    TSX2  ! 1,X1

     1943    37871
     1944    37872    2   PRED12: ENTRY;

  37872  1 013437   200016 741300       PRED12       STX1  ! CONTINUING+2,,AUTO

     1945    37873
     1946    37874            /* (predicate 12 is not defined by the spec) */
     1947    37875            /* Events:  (none) */
     1948    37876    2       RETURN;

  37876  1 013440   000001 702211                    TSX2  ! 1,X1

     1949    37877
     1950    37878    2   PRED13: ENTRY;

  37878  1 013441   200016 741300       PRED13       STX1  ! CONTINUING+2,,AUTO

     1951    37879
     1952    37880            /* "Each presentation data value is from the default context." */
     1953    37881            /* Events:  PEXPREQ TE */
     1954    37882    2       ;  /*N*  TBD */
     1955    37883    2       PINV(13) = %FALSE;

  37883  1 013442   000235 236000 2                  LDQ     157
         1 013443   200013 356100                    ANSQ    PINV,,AUTO

     1956    37884    2       RETURN;

  37884  1 013444   000001 702211                    TSX2  ! 1,X1

     1957    37885
PL6.E3A0      #001=XSP$MACHINE File=XSP$MACHINE.:XSA1TSI                         WED 10/01/97 12:04 Page:381
     1958    37886    2   PRED14: ENTRY;

  37886  1 013445   200016 741300       PRED14       STX1  ! CONTINUING+2,,AUTO

     1959    37887
     1960    37888            /* "FU(CM) is FALSE, or FU(CM) is TRUE and typed data functional unit was
     1961    37889                selected as a User session requirement." */
     1962    37890            /* Events:  PTYDREQ TTD */
     1963    37891    2       IF PCTX.FU.CM THEN

  37891  1 013446   200010 470500                    LDP0    PCTX$,,AUTO
         1 013447   000000 236100                    LDQ     0,,PR0
         1 013450   200000 316007                    CANQ    65536,DL
         1 013451   013460 600000 1                  TZE     s:37894

     1964    37892    2           PRED(14) = PCTX.SUR.TD;

  37892  1 013452   000010 236100                    LDQ     8,,PR0
         1 013453   000011 772000                    QRL     9
         1 013454   200012 676100                    ERQ     PRED,,AUTO
         1 013455   000010 376003                    ANQ     8,DU
         1 013456   200012 656100                    ERSQ    PRED,,AUTO
         1 013457   013462 710000 1                  TRA     s:37895

     1965    37893    2       ELSE
     1966    37894    2           PRED(14) = %TRUE;

  37894  1 013460   000010 236003                    LDQ     8,DU
         1 013461   200012 256100                    ORSQ    PRED,,AUTO

     1967    37895    2       PINV(14) = %FALSE;

  37895  1 013462   000236 236000 2                  LDQ     158
         1 013463   200013 356100                    ANSQ    PINV,,AUTO

     1968    37896    2       RETURN;

PL6.E3A0      #001=XSP$MACHINE File=XSP$MACHINE.:XSA1TSI                         WED 10/01/97 12:04 Page:382
  37896  1 013464   000001 702211                    TSX2  ! 1,X1

     1969    37897
     1970    37898    2   PRED15: ENTRY;

  37898  1 013465   200016 741300       PRED15       STX1  ! CONTINUING+2,,AUTO

     1971    37899
     1972    37900            /* "Each presentation data value is from presentation contexts of the DCS
     1973    37901                which was agreed during presentation-connection establishment, or from
     1974    37902                the default context if this DCS is empty." */
     1975    37903            /* Events:  PRSXREQ RS */
     1976    37904    2       ;  /*N*  TBD */
     1977    37905    2       PINV(15) = %FALSE;

  37905  1 013466   000237 236000 2                  LDQ     159
         1 013467   200013 356100                    ANSQ    PINV,,AUTO

     1978    37906    2       RETURN;

  37906  1 013470   000001 702211                    TSX2  ! 1,X1

     1979    37907
     1980    37908    2   PRED16: ENTRY;

  37908  1 013471   200016 741300       PRED16       STX1  ! CONTINUING+2,,AUTO

     1981    37909
     1982    37910            /* "Each presentation data value is from presentation contexts of the DCS
     1983    37911                associated with the pair of Old activity identifier and
     1984    37912                Synchronization point serial number parameter values or from the
     1985    37913                default context when this DCS is empty." */
     1986    37914            /* Events:  PACRREQ SACRIND */
     1987    37915    2       ;  /*N*  TBD */
     1988    37916    2       PINV(16) = %FALSE;

  37916  1 013472   000240 236000 2                  LDQ     160
PL6.E3A0      #001=XSP$MACHINE File=XSP$MACHINE.:XSA1TSI                         WED 10/01/97 12:04 Page:383
         1 013473   200013 356100                    ANSQ    PINV,,AUTO

     1989    37917    2       RETURN;

  37917  1 013474   000001 702211                    TSX2  ! 1,X1

     1990    37918
     1991    37919    2   PRED17: ENTRY;

  37919  1 013475   200016 741300       PRED17       STX1  ! CONTINUING+2,,AUTO

     1992    37920
     1993    37921            /* "FU(CR) is TRUE." */
     1994    37922            /* Events:  (many) */
     1995    37923    2       PRED(17) = PCTX.FU.CR;

  37923  1 013476   200010 470500                    LDP0    PCTX$,,AUTO
         1 013477   000000 236100                    LDQ     0,,PR0
         1 013500   000001 736000                    QLS     1
         1 013501   200012 676100                    ERQ     PRED,,AUTO
         1 013502   000001 376003                    ANQ     1,DU
         1 013503   200012 656100                    ERSQ    PRED,,AUTO

     1996    37924    2       PINV(17) = %FALSE;

  37924  1 013504   000241 236000 2                  LDQ     161
         1 013505   200013 356100                    ANSQ    PINV,,AUTO

     1997    37925    2       RETURN;

  37925  1 013506   000001 702211                    TSX2  ! 1,X1

     1998    37926
     1999    37927    2   PRED18: ENTRY;

  37927  1 013507   200016 741300       PRED18       STX1  ! CONTINUING+2,,AUTO

PL6.E3A0      #001=XSP$MACHINE File=XSP$MACHINE.:XSA1TSI                         WED 10/01/97 12:04 Page:384
     2000    37928
     2001    37929            /* "Each presentation data value is in presentation contexts of the DCS
     2002    37930                associated with the syncpoint identifier or from the default context
     2003    37931                if this DCS is empty." */
     2004    37932            /* Events:  PRSXREQ RS */
     2005    37933    2       ;  /*N*  TBD */
     2006    37934    2       PINV(18) = %FALSE;

  37934  1 013510   000242 236000 2                  LDQ     162
         1 013511   200013 356100                    ANSQ    PINV,,AUTO

     2007    37935    2       RETURN;

  37935  1 013512   000001 702211                    TSX2  ! 1,X1

     2008    37936
     2009    37937    2   PRED19: ENTRY;

  37937  1 013513   200016 741300       PRED19       STX1  ! CONTINUING+2,,AUTO

     2010    37938
     2011    37939            /* "Either no syncpoint identifier is associated with a DCS or the resync
     2012    37940                identifier is not associated with a DCS and is greater than the lowest
     2013    37941                syncpoint identifier which has an associated DCS." */
     2014    37942            /* Events:  PRSXREQ RS PRSXRSP RSA */
     2015    37943    2       ;  /*N*  TBD */
     2016    37944    2       PINV(19) = %FALSE;

  37944  1 013514   000243 236000 2                  LDQ     163
         1 013515   200013 356100                    ANSQ    PINV,,AUTO

     2017    37945    2       RETURN;

  37945  1 013516   000001 702211                    TSX2  ! 1,X1

     2018    37946
     2019    37947    2   PRED20: ENTRY;
PL6.E3A0      #001=XSP$MACHINE File=XSP$MACHINE.:XSA1TSI                         WED 10/01/97 12:04 Page:385

  37947  1 013517   200016 741300       PRED20       STX1  ! CONTINUING+2,,AUTO

     2020    37948
     2021    37949            /* "The PPDU contains a Presentation context identifier list
     2022    37950                parameter." */
     2023    37951            /* Events:  (none) */
     2024    37952    2       ;  /*N*  TBD */
     2025    37953    2       PINV(20) = %FALSE;

  37953  1 013520   000244 236000 2                  LDQ     164
         1 013521   200013 356100                    ANSQ    PINV,,AUTO

     2026    37954    2       RETURN;

  37954  1 013522   000001 702211                    TSX2  ! 1,X1

     2027    37955
     2028    37956    2   PRED21: ENTRY;

  37956  1 013523   200016 741300       PRED21       STX1  ! CONTINUING+2,,AUTO

     2029    37957
     2030    37958            /* "Each presentation data value is from presentation contexts specified
     2031    37959                in the PPDU, or from the default context if no presentation contexts
     2032    37960                are specified in the PPDU." */
     2033    37961            /* Events:  ARU RS RSA */
     2034    37962    2       ;  /*N*  TBD */
     2035    37963    2       PINV(21) = %FALSE;

  37963  1 013524   000245 236000 2                  LDQ     165
         1 013525   200013 356100                    ANSQ    PINV,,AUTO

     2036    37964    2       RETURN;

  37964  1 013526   000001 702211                    TSX2  ! 1,X1

PL6.E3A0      #001=XSP$MACHINE File=XSP$MACHINE.:XSA1TSI                         WED 10/01/97 12:04 Page:386
     2037    37965
     2038    37966    2   PRED22: ENTRY;

  37966  1 013527   200016 741300       PRED22       STX1  ! CONTINUING+2,,AUTO

     2039    37967
     2040    37968            /* "For each presentation data value, an instance (chosen as a local
     2041    37969                matter) of encoding is supported by the PPM." */
     2042    37970            /* Events:  CP */
     2043    37971    2   CHECK22:
     2044    37972    3       DO;

  37972  1 013530                       CHECK22      null
     2045    37973    4           DO I = 1 TO %MAXBITS;

  37973  1 013530   000001 235007                    LDA     1,DL
         1 013531   200006 755100                    STA     I,,AUTO

     2046    37974    4               IF VBLK.DATBITS( I) THEN

  37974  1 013532   200006 235100                    LDA     I,,AUTO
         1 013533   013535 605000 1                  TPL     s:37974+3
         1 013534   000044 035003                    ADLA    36,DU
         1 013535   200003 470500                    LDP0    @VBLK,,AUTO
         1 013536   000000 066505                    CMPB    filb='0'B
         1 013537   000011 000001                    BDSC    9,A,PR0                  by=0,bit=0,n=1
         1 013540   000003 000022 2                  BDSC    3                        by=0,bit=0,n=18
         1 013541   013551 600000 1                  TZE     s:37978

     2047    37975    4                   IF CMAP.TFRCTXTID( I) ~= 1 THEN

  37975  1 013542   200006 235100                    LDA     I,,AUTO
         1 013543   000001 735000                    ALS     1
         1 013544   200005 471500                    LDP1    CMAP$,,AUTO
         1 013545   100001 236105                    LDQ     1,AL,PR1
         1 013546   000777 376003                    ANQ     511,DU
         1 013547   000001 116003                    CMPQ    1,DU
PL6.E3A0      #001=XSP$MACHINE File=XSP$MACHINE.:XSA1TSI                         WED 10/01/97 12:04 Page:387
         1 013550   013557 601000 1                  TNZ     s:37982

     2048    37976                            /* this data was encoded with non-ISO 8825 syntax */
     2049    37977    4                       EXIT CHECK22;
     2050    37978    4               END;

  37978  1 013551   200006 054100                    AOS     I,,AUTO
         1 013552   200006 235100                    LDA     I,,AUTO
         1 013553   000010 115007                    CMPA    8,DL
         1 013554   013532 604400 1                  TMOZ    s:37974

     2051    37979                /* all user data was encoded with ISO 8825 */
     2052    37980    3           PRED(22) = %TRUE;

  37980  1 013555   020000 236007                    LDQ     8192,DL
         1 013556   200012 256100                    ORSQ    PRED,,AUTO

     2053    37981    3           END;

     2054    37982    2       PINV(22) = %FALSE;

  37982  1 013557   000246 236000 2                  LDQ     166
         1 013560   200013 356100                    ANSQ    PINV,,AUTO

     2055    37983    2       RETURN;

  37983  1 013561   200016 221300                    LDX1  ! CONTINUING+2,,AUTO
         1 013562   000001 702211                    TSX2  ! 1,X1

     2056    37984
     2057    37985    2   PRED23: ENTRY;

  37985  1 013563   200016 741300       PRED23       STX1  ! CONTINUING+2,,AUTO

     2058    37986
     2059    37987            /* "For each presentation data value the encoding is supported by the
     2060    37988                PPM." */
PL6.E3A0      #001=XSP$MACHINE File=XSP$MACHINE.:XSA1TSI                         WED 10/01/97 12:04 Page:388
     2061    37989            /* Events:  ARU */
     2062    37990    2       ;  /*N*  TBD */
     2063    37991    2       PINV(23) = %FALSE;

  37991  1 013564   000247 236000 2                  LDQ     167
         1 013565   200013 356100                    ANSQ    PINV,,AUTO

     2064    37992    2       RETURN;

  37992  1 013566   000001 702211                    TSX2  ! 1,X1

     2065    37993
     2066    37994    2   PRED24: ENTRY;

  37994  1 013567   200016 741300       PRED24       STX1  ! CONTINUING+2,,AUTO

     2067    37995
     2068    37996            /* "Each presentation data value is from presentation contexts of the DCS,
     2069    37997                or from presentation contexts proposed for addition to the DCS by the
     2070    37998                local PPM, or from the default context if either the DCS is empty or
     2071    37999                all presentation contexts of the DCS were proposed for deletion by the
     2072    38000                local PPM." */
     2073    38001            /* Events:  ARU */
     2074    38002    2       ;  /*N*  TBD */
     2075    38003    2       PINV(24) = %FALSE;

  38003  1 013570   000250 236000 2                  LDQ     168
         1 013571   200013 356100                    ANSQ    PINV,,AUTO

     2076    38004    2       RETURN;

  38004  1 013572   000001 702211                    TSX2  ! 1,X1

     2077    38005
     2078    38006    2   PRED25: ENTRY;

  38006  1 013573   200016 741300       PRED25       STX1  ! CONTINUING+2,,AUTO
PL6.E3A0      #001=XSP$MACHINE File=XSP$MACHINE.:XSA1TSI                         WED 10/01/97 12:04 Page:389

     2079    38007
     2080    38008            /* "Each presentation data value is from presentation contexts of the DCS
     2081    38009                not proposed for deletion by the peer PPM or from presentation
     2082    38010                contexts proposed for addition to the DCS by the local PPM." */
     2083    38011            /* Events:  ARU */
     2084    38012    2       ;  /*N*  TBD */
     2085    38013    2       PINV(25) = %FALSE;

  38013  1 013574   000251 236000 2                  LDQ     169
         1 013575   200013 356100                    ANSQ    PINV,,AUTO

     2086    38014    2       RETURN;

  38014  1 013576   000001 702211                    TSX2  ! 1,X1

     2087    38015
     2088    38016    2   PRED26: ENTRY;

  38016  1 013577   200016 741300       PRED26       STX1  ! CONTINUING+2,,AUTO

     2089    38017
     2090    38018            /* "The syncpoint identifier has an associated DCS." */
     2091    38019            /* Events:  PRSXREQ RS PRSXRSP RSA */
     2092    38020    2       ;  /*N*  TBD */
     2093    38021    2       PINV(26) = %FALSE;

  38021  1 013600   000252 236000 2                  LDQ     170
         1 013601   200013 356100                    ANSQ    PINV,,AUTO

     2094    38022    2       RETURN;

  38022  1 013602   000001 702211                    TSX2  ! 1,X1

     2095    38023
     2096    38024    2   PRED27: ENTRY;

PL6.E3A0      #001=XSP$MACHINE File=XSP$MACHINE.:XSA1TSI                         WED 10/01/97 12:04 Page:390
  38024  1 013603   200016 741300       PRED27       STX1  ! CONTINUING+2,,AUTO

     2097    38025
     2098    38026            /* "Old session connection identifier parameter present." */
     2099    38027            /* Events:  PACRREQ SACRIND */
     2100    38028    2       ;  /*N*  TBD */
     2101    38029    2       PINV(27) = %FALSE;

  38029  1 013604   000253 236000 2                  LDQ     171
         1 013605   200013 356100                    ANSQ    PINV,,AUTO

     2102    38030    2       RETURN;

  38030  1 013606   000001 702211                    TSX2  ! 1,X1

     2103    38031
     2104    38032    2   PRED28: ENTRY;

  38032  1 013607   200016 741300       PRED28       STX1  ! CONTINUING+2,,AUTO

     2105    38033
     2106    38034            /* "There is a DCS associated with the pair of Old activity identifier and
     2107    38035                Synchronization point serial number parameters [sic] values." */
     2108    38036            /* Events:  PACRREQ SACRIND */
     2109    38037    2       ;  /*N*  TBD */
     2110    38038    2       PINV(28) = %FALSE;

  38038  1 013610   000254 236000 2                  LDQ     172
         1 013611   200013 356100                    ANSQ    PINV,,AUTO

     2111    38039    2       RETURN;

  38039  1 013612   000001 702211                    TSX2  ! 1,X1

XSP_F$EVNTERR
 Sect OctLoc
   0     000   302320 001337                                                    ....
PL6.E3A0      #001=XSP$MACHINE File=XSP$MACHINE.:XSA1TSI                         WED 10/01/97 12:04 Page:391

XSP_F$NOPRES
 Sect OctLoc
   0     001   302320 001417                                                    ....

PEV_TO_FNC
 Sect OctLoc
   0     002   002004 006010   012014 016020   022024 026030   036032 034034    ................
   0     006   040042 064066   044046 046050   052054 056060   062070 072074     "46$&&(*,.028:<
   0     012   075076 ******                                                    =>..

(unnamed)
 Sect OctLoc
   0     013   000000 000000   777777 777777                                    ........

(unnamed)
 Sect OctLoc
   2     000   000002 000000   000014 400000   000000 006014   000000 000000    ................
   2     004   000000 000121   000004 006000   000000 000123   000006 006000    ...Q.......S....
   2     010   000000 000201   000010 006000   000000 000175   000012 006000    ...........}....
   2     014   000000 000133   000014 006000   000000 000007   000016 006000    ...[............
   2     020   000000 000135   000020 006000   000000 000137   000022 006000    ...]......._....
   2     024   000000 000157   000024 006000   000000 000161   000026 006000    ...o.......q....
   2     030   000000 000125   000030 006000   000000 000127   000032 006000    ...U.......W....
   2     034   000000 000141   000034 006000   000000 000143   000036 006000    ...a.......c....
   2     040   000000 000173   000040 006000   000000 000101   000042 006000    ...{. .....A."..
   2     044   000000 000103   000044 006000   000000 000105   000046 006000    ...C.$.....E.&..
   2     050   000000 000107   000050 006000   000000 000111   000052 006000    ...G.(.....I.*..
   2     054   000000 000113   000054 006000   000000 000115   000056 006000    ...K.,.....M....
   2     060   000000 000117   000060 006000   000000 000131   000062 006000    ...O.0.....Y.2..
   2     064   000000 000203   000064 006000   000000 000151   000066 006000    .....4.....i.6..
   2     070   000000 000153   000070 006000   000000 000155   000072 006000    ...k.8.....m.:..
   2     074   000000 000163   000074 006000   000000 000165   000076 006000    ...s.<.....u.>..
   2     100   000000 000167   000100 006000   000000 000171   000102 006000    ...w.@.....y.B..
   2     104   000000 000145   000104 006000   000000 000147   000106 006000    ...e.D.....g.F..
   2     110   000000 000177   000110 006000   000000 000020   000112 006000    .....H.......J..
   2     114   000000 000022   000114 006000   000000 000024   000116 006000    .....L.......N..
PL6.E3A0      #001=XSP$MACHINE File=XSP$MACHINE.:XSA1TSI                         WED 10/01/97 12:04 Page:392
   2     120   000000 000026   000120 006000   000000 000030   000122 006000    .....P.......R..
   2     124   000000 000032   000124 006000   000000 000034   000126 006000    .....T.......V..
   2     130   000000 000036   000130 006000   000000 000001   000132 006000    .....X.......Z..
   2     134   000000 000002   000134 006000   000000 000012   000136 006000    .....\.......^..
   2     140   000000 000013   000140 006000   000000 000005   000142 006000    .....`.......b..
   2     144   000000 000006   000144 006000   000000 000040   000146 006000    .....d..... .f..
   2     150   000000 000014   000150 006000   000000 000015   000152 006000    .....h.......j..
   2     154   000000 000046   000154 006000   000000 000050   000156 006000    ...&.l.....(.n..
   2     160   000000 000052   000160 006000   000000 000010   000162 006000    ...*.p.......r..
   2     164   000000 000011   000164 006000   000000 000060   000166 006000    .....t.....0.v..
   2     170   000000 000062   000170 006000   000000 000064   000172 006000    ...2.x.....4.z..
   2     174   000000 000066   000174 006000   000000 000042   000176 006000    ...6.|.....".~..
   2     200   000000 000044   000200 006000   000000 000016   000202 006000    ...$............
   2     204   000000 000004   000204 006000   000000 000070   000206 006000    ...........8....
   2     210   000000 000003   000210 006000   000001 000000   000000 006000    ................
   2     214   000001 006000   777777 760777   777777 777737   777777 777757    ................
   2     220   777000 777777   777777 777000   777777 777767   577777 777777    ................
   2     224   677777 777777   737777 777777   757777 777777   767777 777777    ................
   2     230   773777 777777   775777 777777   776777 777777   777377 777777    ................
   2     234   777677 777777   777757 777777   777767 777777   777773 777777    ................
   2     240   777775 777777   777776 777777   777777 377777   777777 577777    ................
   2     244   777777 677777   777777 737777   777777 757777   777777 767777    ................
   2     250   777777 773777   777777 775777   777777 776777   777777 777377    ................
   2     254   777777 777577                                                    ....
     2112    38040
     2113    38041    2       END PRED00;
     2114    38042
     2115    38043    1       END XSP$MACHINE;

PL6.E3A0      #001=XSP$MACHINE File=XSP$MACHINE.:XSA1TSI                         WED 10/01/97 12:04 Page:393
--  Include file information  --

   XSC_PERR_C.:XSA1TOU  is referenced.
   UM_CP6.:E05OU  is referenced.
   XSP_MACHINE_M.:XSA1TOU  is referenced.
   XSP_INTERNAL_M.:XSA1TOU  is referenced.
   XSP_INTERNAL_E.:XSA1TOU  is referenced.
   XSP_PRESENTATION_M.:XSA1TOU  is referenced.
   XSP_PRESENTATION_E.:XSA1TOU  is referenced.
   XSS_SESSION_E.:XSA1TOU  is referenced.
      No diagnostics issued in procedure XSP$MACHINE.
PL6.E3A0      #001=XSP$MACHINE File=XSP$MACHINE.:XSA1TSI                         WED 10/01/97 12:04 Page:394

 **** Variables and constants ****

  ****  Section 000 RoData XSP$MACHINE

  ****  Scalars and arrays  ****
OctLoc.c.b A Datatyp(siz) R M Lvl/name                 OctLoc.c.b A Datatyp(siz) R M Lvl/name

     2-0-0/c UBIN(9)     r     1 PEV_TO_FNC(0:33)
     0-0-0/w STRC        r     1 XSP_F$EVNTERR              1-0-0/w STRC        r     1 XSP_F$NOPRES

  ****  Auto variables  ****

  ****  Scalars and arrays  ****
OctLoc.c.b A Datatyp(siz) R M Lvl/name                 OctLoc.c.b A Datatyp(siz) R M Lvl/name

    17-0-0/w PTR         r     1 @EVENT                     3-0-0/w PTR         r     1 @VBLK
     4-0-0/w PTR         r     1 CLST$                      5-0-0/w PTR         r     1 CMAP$
    14-0-0/b BIT         r     1 CONTINUING                *0-0-0/w UBIN        r     1 EVENT
     6-0-0/w SBIN        r     1 I                         10-0-0/w PTR         r     1 PCTX$
    11-0-0/w PTR         r     1 PFPT$                     13-0-0/b BIT         r     1 PINV(0:35)
    12-0-0/b BIT         r     1 PRED(0:35)                *0-0-0/d STRC(396)   r     1 VBLK

  ****  SYMREF variables  ****

  ****  Scalars and arrays  ****
OctLoc.c.b A Datatyp(siz) R M Lvl/name                 OctLoc.c.b A Datatyp(siz) R M Lvl/name

     0-0-0/w SBIN        r     1 XSS_TRACE

  ****  BASED and DCB variables  ****

  ****  Scalars and arrays  ****
OctLoc.c.b A Datatyp(siz) R M Lvl/name                 OctLoc.c.b A Datatyp(siz) R M Lvl/name

     0-0-0/w STRC(72)    r     1 CMAP(0:0)                  0-0-0/w ASTR(18)    r     1 NAME
     0-0-0/w STRC(468)   r     1 PCTX                       0-0-0/w STRC(398)   r     1 XSP$CONNECT
     0-0-0/w STRC(504)   r     1 XSP$GENERIC
PL6.E3A0      #001=XSP$MACHINE File=XSP$MACHINE.:XSA1TSI                         WED 10/01/97 12:04 Page:395


   Procedure XSP$MACHINE requires 6027 words for executable code.
   Procedure XSP$MACHINE requires 18 words of local(AUTO) storage.

    No errors detected in file XSP$MACHINE.:XSA1TSI    .
PL6.E3A0      #001=XSP$MACHINE File=XSP$MACHINE.:XSA1TSI                         WED 10/01/97 12:04 Page:396
          *** CROSS REFERENCE LISTING ***
**     DENOTES     IDENTIFIER DEFINITION
<<                 IDENTIFIER'S VALUE SET
>>                 IDENTIFIER'S VALUE USED
<>                 IDENTIFIER SET AND/OR USED
--                 IDENTIFIER REFERENCED
PL6.E3A0      #001=XSP$MACHINE File=XSP$MACHINE.:XSA1TSI                         WED 10/01/97 12:04 Page:397
          MINI XREF LISTING

ACTION01 IN PROCEDURE ACTION00
     37515**ENTRY    6706--CALL     6904--CALL     8883--CALL     9217--CALL
ACTION02 IN PROCEDURE ACTION00
     37528**ENTRY    8886--CALL    20273--CALL    20682--CALL    20802--CALL    20915--CALL    21027--CALL
     26884--CALL    28143--CALL    28552--CALL    28673--CALL    28786--CALL
ACTION03 IN PROCEDURE ACTION00
     37536**ENTRY    9335--CALL
ACTION04 IN PROCEDURE ACTION00
     37546**ENTRY   25783--CALL    25981--CALL    26878--CALL
ACTION05 IN PROCEDURE ACTION00
     37557**ENTRY   26881--CALL
ACTION06 IN PROCEDURE ACTION00
     37566**ENTRY   26101--CALL    26217--CALL    27006--CALL    27128--CALL
ACTION07 IN PROCEDURE ACTION00
     37579**ENTRY   19627--CALL    19743--CALL    19858--CALL    27612--CALL    27728--CALL
ACTION08 IN PROCEDURE ACTION00
     37586**ENTRY   19624--CALL    19740--CALL    19855--CALL    27609--CALL    27725--CALL
ACTION09 IN PROCEDURE ACTION00
     37594**ENTRY    6907--CALL    15588--CALL    16153--CALL    16383--CALL    16976--CALL    16995--CALL
     18511--CALL    18893--CALL    19237--CALL    19495--CALL    22632--CALL    22964--CALL
ACTION10 IN PROCEDURE ACTION00
     37610**ENTRY    7027--CALL     7227--CALL
ACTION11 IN PROCEDURE ACTION00
     37618**ENTRY    7030--CALL     7230--CALL    26104--CALL    26220--CALL
ACTION12 IN PROCEDURE ACTION00
     37625**ENTRY    9338--CALL    27009--CALL
ACTION13 IN PROCEDURE ACTION00
     37633**ENTRY   21712--CALL    22044--CALL    22164--CALL    35019--CALL    35568--CALL    35906--CALL
ACTION14 IN PROCEDURE ACTION00
     37640**ENTRY   17009--CALL    17677--CALL    18009--CALL    18049--CALL    23227--CALL    23678--CALL
     24227--CALL    24264--CALL
ACTION15 IN PROCEDURE ACTION00
PL6.E3A0      #001=XSP$MACHINE File=XSP$MACHINE.:XSA1TSI                         WED 10/01/97 12:04 Page:398
     37648**ENTRY   23681--CALL    24230--CALL
ACTION16 IN PROCEDURE ACTION00
     37655**ENTRY   10233--CALL    11404--CALL    13037--CALL    18899--CALL    25326--CALL
ACTION17 IN PROCEDURE ACTION00
     37662**ENTRY   18896--CALL    19240--CALL    25323--CALL    25664--CALL
ACTION18 IN PROCEDURE ACTION00
     37670**ENTRY   10639--CALL    11810--CALL    13528--CALL    29961--CALL    31129--CALL    32843--CALL
ACTION19 IN PROCEDURE ACTION00
     37678**ENTRY   17012--CALL    17680--CALL    18012--CALL    23230--CALL
ACTION20 IN PROCEDURE ACTION00
     37686**ENTRY    8889--CALL    18035--CALL    26887--CALL
ACTION21 IN PROCEDURE ACTION00
     37693**ENTRY    9683--CALL     9958--CALL    14048--CALL    14407--CALL
ACTION22 IN PROCEDURE ACTION00
     37701**ENTRY   21709--CALL    22041--CALL    35016--CALL    35565--CALL
CHECK22 IN PROCEDURE PRED00
     37972**LABEL   37977--EXIT
CHECKDCS3 IN PROCEDURE PRED00
     37758**LABEL   37764--EXIT
CHECKDCS4 IN PROCEDURE PRED00
     37793**LABEL   37799--EXIT
CHECKDFL3 IN PROCEDURE PRED00
     37745**LABEL   37751--EXIT
CHECKDFL4 IN PROCEDURE PRED00
     37780**LABEL   37786--EXIT
CLST.CTXT$
      3915**DCL      3916--REDEF    3917--REDEF
CLST$
      6555**DCL      3909--IMP-PTR
CMAP.ABSCTXTID
      5284**DCL     37522>>IF      37543>>ASSIGN  37749>>IF      37784>>IF
CMAP.RESULT
      5290**DCL     37523<<ASSIGN
CMAP.STATE
      5291**DCL     37521>>IF      37552>>IF      37562>>IF      37572>>IF      37573<<ASSIGN  37797>>IF
CMAP.TFRCTXTID
PL6.E3A0      #001=XSP$MACHINE File=XSP$MACHINE.:XSA1TSI                         WED 10/01/97 12:04 Page:399
      5285**DCL     37553<<ASSIGN  37563<<ASSIGN  37975>>IF
CMAP$
      6556**DCL      5269--IMP-PTR  6585<>CALL     6587<<ASSIGN  37521>>IF      37522>>IF      37523>>ASSIGN
     37543>>ASSIGN  37552>>IF      37553>>ASSIGN  37562>>IF      37563>>ASSIGN  37572>>IF      37573>>ASSIGN
     37749>>IF      37784>>IF      37797>>IF      37975>>IF
CONTINUING
      6564**DCL      6614<<ASSIGN   6703<<ASSIGN   6716>>IF       6727<<ASSIGN   6901<<ASSIGN   6917>>IF
      6935<<ASSIGN   7024<<ASSIGN   7039>>IF       7050<<ASSIGN   7224<<ASSIGN   7239>>IF       7275<<ASSIGN
      7449<<ASSIGN   7459>>IF       7470<<ASSIGN   7729<<ASSIGN   7739>>IF       7750<<ASSIGN   7924<<ASSIGN
      7934>>IF       7945<<ASSIGN   8119<<ASSIGN   8129>>IF       8140<<ASSIGN   8314<<ASSIGN   8324>>IF
      8335<<ASSIGN   8509<<ASSIGN   8519>>IF       8536<<ASSIGN   8880<<ASSIGN   8903>>IF       9214<<ASSIGN
      9226>>IF       9243<<ASSIGN   9332<<ASSIGN   9348>>IF       9365<<ASSIGN   9454<<ASSIGN   9464>>IF
      9483<<ASSIGN   9680<<ASSIGN   9697>>IF       9955<<ASSIGN   9972>>IF      10230<<ASSIGN  10247>>IF
     10636<<ASSIGN  10649>>IF      10660<<ASSIGN  10857<<ASSIGN  10871>>IF      11129<<ASSIGN  11143>>IF
     11401<<ASSIGN  11418>>IF      11807<<ASSIGN  11820>>IF      11831<<ASSIGN  12028<<ASSIGN  12041>>IF
     12322<<ASSIGN  12335>>IF      12678<<ASSIGN  12691>>IF      13034<<ASSIGN  13051>>IF      13525<<ASSIGN
     13537>>IF      13554<<ASSIGN  13751<<ASSIGN  13764>>IF      14045<<ASSIGN  14061>>IF      14404<<ASSIGN
     14420>>IF      14763<<ASSIGN  14776>>IF      15250<<ASSIGN  15259>>IF      15277<<ASSIGN  15366<<ASSIGN
     15375>>IF      15387<<ASSIGN  15476<<ASSIGN  15485>>IF      15496<<ASSIGN  15585<<ASSIGN  15597>>IF
     15616<<ASSIGN  15705<<ASSIGN  15714>>IF      15726<<ASSIGN  15815<<ASSIGN  15824>>IF      15842<<ASSIGN
     15931<<ASSIGN  15940>>IF      15952<<ASSIGN  16041<<ASSIGN  16050>>IF      16061<<ASSIGN  16150<<ASSIGN
     16162>>IF      16182<<ASSIGN  16271<<ASSIGN  16280>>IF      16291<<ASSIGN  16380<<ASSIGN  16392>>IF
     16410<<ASSIGN  16584<<ASSIGN  16593>>IF      16605<<ASSIGN  16779<<ASSIGN  16788>>IF      16799<<ASSIGN
     16973<<ASSIGN  16985>>IF      17034<<ASSIGN  17123<<ASSIGN  17132>>IF      17144<<ASSIGN  17341<<ASSIGN
     17350>>IF      17368<<ASSIGN  17565<<ASSIGN  17574>>IF      17585<<ASSIGN  17674<<ASSIGN  17689>>IF
     17700<<ASSIGN  17897<<ASSIGN  17906>>IF      17917<<ASSIGN  18006<<ASSIGN  18021>>IF      18071<<ASSIGN
     18508<<ASSIGN  18524>>IF      18890<<ASSIGN  18908>>IF      18920<<ASSIGN  19117<<ASSIGN  19126>>IF
     19145<<ASSIGN  19234<<ASSIGN  19249>>IF      19261<<ASSIGN  19458<<ASSIGN  19467>>IF      19532<<ASSIGN
     19621<<ASSIGN  19636>>IF      19648<<ASSIGN  19737<<ASSIGN  19752>>IF      19763<<ASSIGN  19852<<ASSIGN
     19867>>IF      19886<<ASSIGN  20083<<ASSIGN  20097>>IF      20270<<ASSIGN  20283>>IF      20295<<ASSIGN
     20492<<ASSIGN  20506>>IF      20679<<ASSIGN  20692>>IF      20710<<ASSIGN  20799<<ASSIGN  20811>>IF
     20823<<ASSIGN  20912<<ASSIGN  20924>>IF      20935<<ASSIGN  21024<<ASSIGN  21036>>IF      21063<<ASSIGN
     21152<<ASSIGN  21161>>IF      21173<<ASSIGN  21370<<ASSIGN  21379>>IF      21397<<ASSIGN  21594<<ASSIGN
     21603>>IF      21614<<ASSIGN  21703<<ASSIGN  21718>>IF      21729<<ASSIGN  21926<<ASSIGN  21935>>IF
     21946<<ASSIGN  22035<<ASSIGN  22050>>IF      22069<<ASSIGN  22158<<ASSIGN  22170>>IF      22182<<ASSIGN
     22379<<ASSIGN  22388>>IF      22407<<ASSIGN  22496<<ASSIGN  22505>>IF      22517<<ASSIGN  22606<<ASSIGN
PL6.E3A0      #001=XSP$MACHINE File=XSP$MACHINE.:XSA1TSI                         WED 10/01/97 12:04 Page:400
     22615>>IF      22653<<ASSIGN  22742<<ASSIGN  22751>>IF      22763<<ASSIGN  22852<<ASSIGN  22861>>IF
     22872<<ASSIGN  22961<<ASSIGN  22973>>IF      22992<<ASSIGN  23081<<ASSIGN  23091>>IF      23103<<ASSIGN
     23192<<ASSIGN  23202>>IF      23252<<ASSIGN  23449<<ASSIGN  23458>>IF      23470<<ASSIGN  23559<<ASSIGN
     23568>>IF      23586<<ASSIGN  23675<<ASSIGN  23690>>IF      23701<<ASSIGN  23898<<ASSIGN  23907>>IF
     23918<<ASSIGN  24115<<ASSIGN  24124>>IF      24135<<ASSIGN  24224<<ASSIGN  24239>>IF      24286<<ASSIGN
     24483<<ASSIGN  24492>>IF      24504<<ASSIGN  24941<<ASSIGN  24954>>IF      25320<<ASSIGN  25335>>IF
     25354<<ASSIGN  25551<<ASSIGN  25560>>IF      25572<<ASSIGN  25661<<ASSIGN  25673>>IF      25691<<ASSIGN
     25780<<ASSIGN  25793>>IF      25804<<ASSIGN  25978<<ASSIGN  25991>>IF      26009<<ASSIGN  26098<<ASSIGN
     26114>>IF      26125<<ASSIGN  26214<<ASSIGN  26230>>IF      26249<<ASSIGN  26338<<ASSIGN  26347>>IF
     26359<<ASSIGN  26448<<ASSIGN  26457>>IF      26476<<ASSIGN  26565<<ASSIGN  26574>>IF      26586<<ASSIGN
     26675<<ASSIGN  26684>>IF      26701<<ASSIGN  26875<<ASSIGN  26897>>IF      26914<<ASSIGN  27003<<ASSIGN
     27019>>IF      27036<<ASSIGN  27125<<ASSIGN  27138>>IF      27171<<ASSIGN  27260<<ASSIGN  27269>>IF
     27281<<ASSIGN  27370<<ASSIGN  27379>>IF      27400<<ASSIGN  27489<<ASSIGN  27498>>IF      27517<<ASSIGN
     27606<<ASSIGN  27621>>IF      27633<<ASSIGN  27722<<ASSIGN  27737>>IF      27756<<ASSIGN  27953<<ASSIGN
     27967>>IF      28140<<ASSIGN  28153>>IF      28165<<ASSIGN  28362<<ASSIGN  28376>>IF      28549<<ASSIGN
     28562>>IF      28581<<ASSIGN  28670<<ASSIGN  28682>>IF      28694<<ASSIGN  28783<<ASSIGN  28795>>IF
     28814<<ASSIGN  29011<<ASSIGN  29025>>IF      29283<<ASSIGN  29297>>IF      29555<<ASSIGN  29569>>IF
     29958<<ASSIGN  29971>>IF      29982<<ASSIGN  30179<<ASSIGN  30193>>IF      30451<<ASSIGN  30465>>IF
     30723<<ASSIGN  30737>>IF      31126<<ASSIGN  31139>>IF      31150<<ASSIGN  31347<<ASSIGN  31360>>IF
     31641<<ASSIGN  31654>>IF      31997<<ASSIGN  32010>>IF      32353<<ASSIGN  32366>>IF      32840<<ASSIGN
     32852>>IF      32869<<ASSIGN  33066<<ASSIGN  33079>>IF      33360<<ASSIGN  33373>>IF      33716<<ASSIGN
     33729>>IF      34072<<ASSIGN  34085>>IF      34559<<ASSIGN  34568>>IF      34587<<ASSIGN  34784<<ASSIGN
     34793>>IF      34805<<ASSIGN  34894<<ASSIGN  34903>>IF      34921<<ASSIGN  35010<<ASSIGN  35025>>IF
     35036<<ASSIGN  35233<<ASSIGN  35242>>IF      35253<<ASSIGN  35450<<ASSIGN  35459>>IF      35470<<ASSIGN
     35559<<ASSIGN  35574>>IF      35593<<ASSIGN  35790<<ASSIGN  35799>>IF      35811<<ASSIGN  35900<<ASSIGN
     35912>>IF      35931<<ASSIGN  36020<<ASSIGN  36029>>IF      36041<<ASSIGN  36130<<ASSIGN  36139>>IF
     36172<<ASSIGN  36261<<ASSIGN  36270>>IF      36282<<ASSIGN  36371<<ASSIGN  36380>>IF      36399<<ASSIGN
     36573<<ASSIGN  36582>>IF      36594<<ASSIGN  36768<<ASSIGN  36777>>IF      36796<<ASSIGN  36885<<ASSIGN
     36895>>IF      36907<<ASSIGN  36996<<ASSIGN  37006>>IF      37018<<ASSIGN  37107<<ASSIGN  37117>>IF
     37136<<ASSIGN  37225<<ASSIGN  37235>>IF      37247<<ASSIGN  37336<<ASSIGN  37346>>IF
DONE
     37372**LABEL   37362--GOTO
EVENT IN PROCEDURE EVNT
     37405**DCL     37404--PROC    37444>>IF      37446>>IF      37446>>IF      37448>>IF      37451>>ASSIGN
     37460>>IF      37462>>ASSIGN  37478>>ASSIGN
EVNT
PL6.E3A0      #001=XSP$MACHINE File=XSP$MACHINE.:XSA1TSI                         WED 10/01/97 12:04 Page:401
     37404**PROC     6709--CALL     6910--CALL     7033--CALL     7233--CALL     7256--CALL     7452--CALL
      7732--CALL     7927--CALL     8122--CALL     8317--CALL     8512--CALL     8892--CALL     9220--CALL
      9341--CALL     9457--CALL     9686--CALL     9961--CALL    10236--CALL    10642--CALL    10860--CALL
     11132--CALL    11407--CALL    11813--CALL    12031--CALL    12325--CALL    12681--CALL    13040--CALL
     13531--CALL    13754--CALL    14051--CALL    14410--CALL    14766--CALL    15253--CALL    15369--CALL
     15479--CALL    15591--CALL    15708--CALL    15818--CALL    15934--CALL    16044--CALL    16156--CALL
     16274--CALL    16386--CALL    16587--CALL    16782--CALL    16979--CALL    16998--CALL    17015--CALL
     17126--CALL    17344--CALL    17568--CALL    17683--CALL    17900--CALL    18015--CALL    18038--CALL
     18052--CALL    18514--CALL    18902--CALL    19120--CALL    19243--CALL    19461--CALL    19477--CALL
     19491--CALL    19498--CALL    19513--CALL    19630--CALL    19746--CALL    19861--CALL    20086--CALL
     20276--CALL    20495--CALL    20685--CALL    20805--CALL    20918--CALL    21030--CALL    21155--CALL
     21373--CALL    21597--CALL    21706--CALL    21929--CALL    22038--CALL    22161--CALL    22382--CALL
     22499--CALL    22609--CALL    22628--CALL    22635--CALL    22745--CALL    22855--CALL    22967--CALL
     23084--CALL    23195--CALL    23216--CALL    23233--CALL    23452--CALL    23562--CALL    23684--CALL
     23901--CALL    24118--CALL    24233--CALL    24253--CALL    24267--CALL    24486--CALL    24944--CALL
     25329--CALL    25554--CALL    25667--CALL    25786--CALL    25984--CALL    26107--CALL    26223--CALL
     26341--CALL    26451--CALL    26568--CALL    26678--CALL    26890--CALL    27012--CALL    27131--CALL
     27152--CALL    27263--CALL    27373--CALL    27492--CALL    27615--CALL    27731--CALL    27956--CALL
     28146--CALL    28365--CALL    28555--CALL    28676--CALL    28789--CALL    29014--CALL    29286--CALL
     29558--CALL    29964--CALL    30182--CALL    30454--CALL    30726--CALL    31132--CALL    31350--CALL
     31644--CALL    32000--CALL    32356--CALL    32846--CALL    33069--CALL    33363--CALL    33719--CALL
     34075--CALL    34562--CALL    34787--CALL    34897--CALL    35013--CALL    35236--CALL    35453--CALL
     35562--CALL    35793--CALL    35903--CALL    36023--CALL    36133--CALL    36153--CALL    36264--CALL
     36374--CALL    36576--CALL    36771--CALL    36888--CALL    36999--CALL    37110--CALL    37228--CALL
     37339--CALL    37378--CALL    37379--CALL
EVNTERR
     37362**LABEL    6709--CALLALT  6910--CALLALT  7033--CALLALT  7233--CALLALT  7256--CALLALT  7452--CALLALT
      7732--CALLALT  7927--CALLALT  8122--CALLALT  8317--CALLALT  8512--CALLALT  8892--CALLALT  9220--CALLALT
      9341--CALLALT  9457--CALLALT  9686--CALLALT  9961--CALLALT 10236--CALLALT 10642--CALLALT 10860--CALLALT
     11132--CALLALT 11407--CALLALT 11813--CALLALT 12031--CALLALT 12325--CALLALT 12681--CALLALT 13040--CALLALT
     13531--CALLALT 13754--CALLALT 14051--CALLALT 14410--CALLALT 14766--CALLALT 15253--CALLALT 15369--CALLALT
     15479--CALLALT 15591--CALLALT 15708--CALLALT 15818--CALLALT 15934--CALLALT 16044--CALLALT 16156--CALLALT
     16274--CALLALT 16386--CALLALT 16587--CALLALT 16782--CALLALT 16979--CALLALT 16998--CALLALT 17015--CALLALT
     17126--CALLALT 17344--CALLALT 17568--CALLALT 17683--CALLALT 17900--CALLALT 18015--CALLALT 18038--CALLALT
     18052--CALLALT 18514--CALLALT 18902--CALLALT 19120--CALLALT 19243--CALLALT 19461--CALLALT 19477--CALLALT
     19491--CALLALT 19498--CALLALT 19513--CALLALT 19630--CALLALT 19746--CALLALT 19861--CALLALT 20086--CALLALT
PL6.E3A0      #001=XSP$MACHINE File=XSP$MACHINE.:XSA1TSI                         WED 10/01/97 12:04 Page:402
     20276--CALLALT 20495--CALLALT 20685--CALLALT 20805--CALLALT 20918--CALLALT 21030--CALLALT 21155--CALLALT
     21373--CALLALT 21597--CALLALT 21706--CALLALT 21929--CALLALT 22038--CALLALT 22161--CALLALT 22382--CALLALT
     22499--CALLALT 22609--CALLALT 22628--CALLALT 22635--CALLALT 22745--CALLALT 22855--CALLALT 22967--CALLALT
     23084--CALLALT 23195--CALLALT 23216--CALLALT 23233--CALLALT 23452--CALLALT 23562--CALLALT 23684--CALLALT
     23901--CALLALT 24118--CALLALT 24233--CALLALT 24253--CALLALT 24267--CALLALT 24486--CALLALT 24944--CALLALT
     25329--CALLALT 25554--CALLALT 25667--CALLALT 25786--CALLALT 25984--CALLALT 26107--CALLALT 26223--CALLALT
     26341--CALLALT 26451--CALLALT 26568--CALLALT 26678--CALLALT 26890--CALLALT 27012--CALLALT 27131--CALLALT
     27152--CALLALT 27263--CALLALT 27373--CALLALT 27492--CALLALT 27615--CALLALT 27731--CALLALT 27956--CALLALT
     28146--CALLALT 28365--CALLALT 28555--CALLALT 28676--CALLALT 28789--CALLALT 29014--CALLALT 29286--CALLALT
     29558--CALLALT 29964--CALLALT 30182--CALLALT 30454--CALLALT 30726--CALLALT 31132--CALLALT 31350--CALLALT
     31644--CALLALT 32000--CALLALT 32356--CALLALT 32846--CALLALT 33069--CALLALT 33363--CALLALT 33719--CALLALT
     34075--CALLALT 34562--CALLALT 34787--CALLALT 34897--CALLALT 35013--CALLALT 35236--CALLALT 35453--CALLALT
     35562--CALLALT 35793--CALLALT 35903--CALLALT 36023--CALLALT 36133--CALLALT 36153--CALLALT 36264--CALLALT
     36374--CALLALT 36576--CALLALT 36771--CALLALT 36888--CALLALT 36999--CALLALT 37110--CALLALT 37228--CALLALT
     37339--CALLALT
I
      6557**DCL      6590<<ASSIGN   6591>>IF       6592<<ASSIGN   6593>>ASSIGN   6594>>ASSIGN   6595>>ASSIGN
     37369<<ASSIGN  37370>>ASSIGN  37520<<DOINDEX 37521>>IF      37522>>IF      37523>>ASSIGN  37551<<DOINDEX
     37552>>IF      37553>>ASSIGN  37571<<DOINDEX 37572>>IF      37573>>ASSIGN  37747<<DOINDEX 37748>>IF
     37749>>IF      37760<<DOINDEX 37761>>IF      37762>>IF      37782<<DOINDEX 37783>>IF      37784>>IF
     37795<<DOINDEX 37796>>IF      37797>>IF      37973<<DOINDEX 37974>>IF      37975>>IF
NAME.LEN
      4011**DCL      4012--IMP-SIZ
OOPS
     37495**PROC     6716--CALL     6917--CALL     6921--CALL     7039--CALL     7239--CALL     7243--CALL
      7261--CALL     7459--CALL     7739--CALL     7934--CALL     8129--CALL     8324--CALL     8519--CALL
      8523--CALL     9226--CALL     9231--CALL     9348--CALL     9353--CALL     9464--CALL     9469--CALL
     10649--CALL    11820--CALL    13537--CALL    13541--CALL    15259--CALL    15264--CALL    15375--CALL
     15485--CALL    15597--CALL    15601--CALL    15714--CALL    15824--CALL    15828--CALL    15940--CALL
     16050--CALL    16162--CALL    16166--CALL    16280--CALL    16392--CALL    16396--CALL    16593--CALL
     16788--CALL    16985--CALL    17003--CALL    17020--CALL    17132--CALL    17350--CALL    17354--CALL
     17574--CALL    17689--CALL    17906--CALL    18021--CALL    18025--CALL    18043--CALL    18057--CALL
     18908--CALL    19126--CALL    19130--CALL    19249--CALL    19467--CALL    19471--CALL    19483--CALL
     19502--CALL    19518--CALL    19636--CALL    19752--CALL    19867--CALL    19871--CALL    20283--CALL
     20692--CALL    20696--CALL    20811--CALL    20924--CALL    21036--CALL    21040--CALL    21045--CALL
     21049--CALL    21161--CALL    21379--CALL    21383--CALL    21603--CALL    21718--CALL    21935--CALL
PL6.E3A0      #001=XSP$MACHINE File=XSP$MACHINE.:XSA1TSI                         WED 10/01/97 12:04 Page:403
     22050--CALL    22054--CALL    22170--CALL    22388--CALL    22392--CALL    22505--CALL    22615--CALL
     22619--CALL    22639--CALL    22751--CALL    22861--CALL    22973--CALL    22977--CALL    23091--CALL
     23202--CALL    23206--CALL    23221--CALL    23238--CALL    23458--CALL    23568--CALL    23572--CALL
     23690--CALL    23907--CALL    24124--CALL    24239--CALL    24243--CALL    24258--CALL    24272--CALL
     24492--CALL    25335--CALL    25339--CALL    25560--CALL    25673--CALL    25677--CALL    25793--CALL
     25991--CALL    25995--CALL    26114--CALL    26230--CALL    26234--CALL    26347--CALL    26457--CALL
     26461--CALL    26574--CALL    26684--CALL    26688--CALL    26897--CALL    26902--CALL    27019--CALL
     27024--CALL    27138--CALL    27143--CALL    27156--CALL    27269--CALL    27379--CALL    27383--CALL
     27498--CALL    27502--CALL    27621--CALL    27737--CALL    27741--CALL    28153--CALL    28562--CALL
     28566--CALL    28682--CALL    28795--CALL    28799--CALL    29971--CALL    31139--CALL    32852--CALL
     32856--CALL    34568--CALL    34573--CALL    34793--CALL    34903--CALL    34907--CALL    35025--CALL
     35242--CALL    35459--CALL    35574--CALL    35578--CALL    35799--CALL    35912--CALL    35916--CALL
     36029--CALL    36139--CALL    36143--CALL    36157--CALL    36270--CALL    36380--CALL    36384--CALL
     36582--CALL    36777--CALL    36781--CALL    36895--CALL    37006--CALL    37117--CALL    37121--CALL
     37235--CALL    37346--CALL    37350--CALL    37356--CALL
PCTX.ABORTING
      5013**DCL     37372>>IF      37386>>IF      37454<<ASSIGN  37468<<ASSIGN  37481<<ASSIGN  37484>>IF
     37500<<ASSIGN
PCTX.ACTDCSMASK
      5054**DCL      5057--REDEF   37667<<ASSIGN
PCTX.CTXTMAPX
      5104**DCL      6585<>CALL
PCTX.CURDCSMASK
      5039**DCL      5042--REDEF   37542<<ASSIGN  37576<<ASSIGN  37667>>ASSIGN  37675<<ASSIGN  37812>>IF
     37816>>IF      37816>>IF
PCTX.DFLCTXTID
      5030**DCL     37543<<ASSIGN  37814>>ASSIGN
PCTX.ENTRY$
      5073**DCL     37465>>IF      37466>>CALL
PCTX.FLAGS.AEP
      5009**DCL     37602>>IF      37603<<ASSIGN  37652<<ASSIGN  37690<<ASSIGN
PCTX.FLAGS.CR
      5007**DCL     37532<<ASSIGN  37591<<ASSIGN  37843>>ASSIGN
PCTX.FLAGS.RL
      5008**DCL     37533<<ASSIGN  37583<<ASSIGN  37590>>IF
PCTX.FU
PL6.E3A0      #001=XSP$MACHINE File=XSP$MACHINE.:XSA1TSI                         WED 10/01/97 12:04 Page:404
      4994**DCL     37630<<ASSIGN
PCTX.FU.CM
      4996**DCL     37868>>ASSIGN  37891>>IF
PCTX.FU.CR
      4995**DCL     37604>>IF      37666>>IF      37923>>ASSIGN
PCTX.HIST.EVENT
      5099**DCL      6594<<ASSIGN
PCTX.HIST.NXTST
      5100**DCL      6595<<ASSIGN  37370<<ASSIGN
PCTX.HISTX
      4989**DCL      6590>>ASSIGN   6593<<ASSIGN  37369>>ASSIGN
PCTX.HISTZ
      5097**DCL      5098--REDEF
PCTX.INIDCSMASK
      5047**DCL      5050--REDEF   37541<<ASSIGN  37575<<ASSIGN  37675>>ASSIGN
PCTX.STATE
      4985**DCL      6604>>DOCASE   6711<<ASSIGN   6912<<ASSIGN   6925>>DOCASE   7248>>DOCASE   7258<<ASSIGN
      7265>>DOCASE   7454<<ASSIGN   7734<<ASSIGN   7929<<ASSIGN   8124<<ASSIGN   8319<<ASSIGN   8514<<ASSIGN
      8527>>IF       8894<<ASSIGN   9234>>IF       9343<<ASSIGN   9356>>IF       9459<<ASSIGN   9472>>DOCASE
      9688<<ASSIGN   9963<<ASSIGN  10238<<ASSIGN  10644<<ASSIGN  10862<<ASSIGN  11134<<ASSIGN  11409<<ASSIGN
     11815<<ASSIGN  13042<<ASSIGN  13545>>IF      15267>>DOCASE  15605>>DOCASE  15832>>DOCASE  16170>>DOCASE
     16400>>DOCASE  16989>>DOCASE  17000<<ASSIGN  17007>>IF      17023>>DOCASE  17358>>DOCASE  18029>>DOCASE
     18040<<ASSIGN  18047>>IF      18060>>DOCASE  19134>>DOCASE  19475>>IF      19479<<ASSIGN  19486>>DOCASE
     19507>>DOCASE  19515<<ASSIGN  19522>>DOCASE  19875>>DOCASE  20088<<ASSIGN  20278<<ASSIGN  20497<<ASSIGN
     20687<<ASSIGN  20700>>DOCASE  21052>>DOCASE  21387>>DOCASE  22058>>DOCASE  22396>>DOCASE  22623>>DOCASE
     22643>>DOCASE  22981>>DOCASE  23086<<ASSIGN  23197<<ASSIGN  23210>>DOCASE  23218<<ASSIGN  23225>>IF
     23241>>DOCASE  23576>>DOCASE  24247>>DOCASE  24255<<ASSIGN  24262>>IF      24275>>DOCASE  25343>>DOCASE
     25681>>DOCASE  25788<<ASSIGN  25986<<ASSIGN  25999>>DOCASE  26109<<ASSIGN  26225<<ASSIGN  26238>>DOCASE
     26465>>DOCASE  26692>>IF      26892<<ASSIGN  26905>>IF      27014<<ASSIGN  27027>>IF      27133<<ASSIGN
     27146>>DOCASE  27160>>DOCASE  27387>>DOCASE  27506>>DOCASE  27745>>DOCASE  27958<<ASSIGN  28148<<ASSIGN
     28367<<ASSIGN  28557<<ASSIGN  28570>>DOCASE  28803>>DOCASE  29016<<ASSIGN  29288<<ASSIGN  29560<<ASSIGN
     29966<<ASSIGN  30184<<ASSIGN  30456<<ASSIGN  30728<<ASSIGN  31134<<ASSIGN  32860>>IF      34576>>DOCASE
     34911>>DOCASE  35582>>DOCASE  35920>>DOCASE  36147>>DOCASE  36161>>DOCASE  36388>>DOCASE  36785>>DOCASE
     36890<<ASSIGN  37001<<ASSIGN  37112<<ASSIGN  37125>>DOCASE  37230<<ASSIGN  37341<<ASSIGN  37370>>ASSIGN
     37377>>IF      37380<<ASSIGN  37383>>IF      37391>>IF      37393<<ASSIGN  37393>>ASSIGN  37503<<ASSIGN
     37503>>ASSIGN
PL6.E3A0      #001=XSP$MACHINE File=XSP$MACHINE.:XSA1TSI                         WED 10/01/97 12:04 Page:405
PCTX.SUR.TD
      5079**DCL     37892>>ASSIGN
PCTX$
      6559**DCL      4968--IMP-PTR  6583<<ASSIGN   6585>>CALL     6590>>ASSIGN   6593>>ASSIGN   6594>>ASSIGN
      6595>>ASSIGN   6604>>DOCASE   6711>>ASSIGN   6912>>ASSIGN   6925>>DOCASE   7248>>DOCASE   7258>>ASSIGN
      7265>>DOCASE   7454>>ASSIGN   7734>>ASSIGN   7929>>ASSIGN   8124>>ASSIGN   8319>>ASSIGN   8514>>ASSIGN
      8527>>IF       8894>>ASSIGN   9234>>IF       9343>>ASSIGN   9356>>IF       9459>>ASSIGN   9472>>DOCASE
      9688>>ASSIGN   9963>>ASSIGN  10238>>ASSIGN  10644>>ASSIGN  10862>>ASSIGN  11134>>ASSIGN  11409>>ASSIGN
     11815>>ASSIGN  13042>>ASSIGN  13545>>IF      15267>>DOCASE  15605>>DOCASE  15832>>DOCASE  16170>>DOCASE
     16400>>DOCASE  16989>>DOCASE  17000>>ASSIGN  17007>>IF      17023>>DOCASE  17358>>DOCASE  18029>>DOCASE
     18040>>ASSIGN  18047>>IF      18060>>DOCASE  19134>>DOCASE  19475>>IF      19479>>ASSIGN  19486>>DOCASE
     19507>>DOCASE  19515>>ASSIGN  19522>>DOCASE  19875>>DOCASE  20088>>ASSIGN  20278>>ASSIGN  20497>>ASSIGN
     20687>>ASSIGN  20700>>DOCASE  21052>>DOCASE  21387>>DOCASE  22058>>DOCASE  22396>>DOCASE  22623>>DOCASE
     22643>>DOCASE  22981>>DOCASE  23086>>ASSIGN  23197>>ASSIGN  23210>>DOCASE  23218>>ASSIGN  23225>>IF
     23241>>DOCASE  23576>>DOCASE  24247>>DOCASE  24255>>ASSIGN  24262>>IF      24275>>DOCASE  25343>>DOCASE
     25681>>DOCASE  25788>>ASSIGN  25986>>ASSIGN  25999>>DOCASE  26109>>ASSIGN  26225>>ASSIGN  26238>>DOCASE
     26465>>DOCASE  26692>>IF      26892>>ASSIGN  26905>>IF      27014>>ASSIGN  27027>>IF      27133>>ASSIGN
     27146>>DOCASE  27160>>DOCASE  27387>>DOCASE  27506>>DOCASE  27745>>DOCASE  27958>>ASSIGN  28148>>ASSIGN
     28367>>ASSIGN  28557>>ASSIGN  28570>>DOCASE  28803>>DOCASE  29016>>ASSIGN  29288>>ASSIGN  29560>>ASSIGN
     29966>>ASSIGN  30184>>ASSIGN  30456>>ASSIGN  30728>>ASSIGN  31134>>ASSIGN  32860>>IF      34576>>DOCASE
     34911>>DOCASE  35582>>DOCASE  35920>>DOCASE  36147>>DOCASE  36161>>DOCASE  36388>>DOCASE  36785>>DOCASE
     36890>>ASSIGN  37001>>ASSIGN  37112>>ASSIGN  37125>>DOCASE  37230>>ASSIGN  37341>>ASSIGN  37369>>ASSIGN
     37370>>ASSIGN  37370>>ASSIGN  37372>>IF      37377>>IF      37380>>ASSIGN  37383>>IF      37386>>IF
     37391>>IF      37393>>ASSIGN  37393>>ASSIGN  37454>>ASSIGN  37465>>IF      37466>>CALL    37468>>ASSIGN
     37481>>ASSIGN  37484>>IF      37500>>ASSIGN  37503>>ASSIGN  37503>>ASSIGN  37532>>ASSIGN  37533>>ASSIGN
     37541>>ASSIGN  37542>>ASSIGN  37543>>ASSIGN  37575>>ASSIGN  37576>>ASSIGN  37583>>ASSIGN  37590>>IF
     37591>>ASSIGN  37602>>IF      37603>>ASSIGN  37604>>IF      37630>>ASSIGN  37652>>ASSIGN  37666>>IF
     37667>>ASSIGN  37667>>ASSIGN  37675>>ASSIGN  37675>>ASSIGN  37690>>ASSIGN  37812>>IF      37814>>ASSIGN
     37816>>IF      37816>>IF      37843>>ASSIGN  37868>>ASSIGN  37891>>IF      37892>>ASSIGN  37923>>ASSIGN
PEV_TO_FNC IN PROCEDURE EVNT
     37408**DCL     37462>>ASSIGN
PFPT$
      6560**DCL      2211--IMP-PTR  2307--IMP-PTR  2365--IMP-PTR  2430--IMP-PTR  2488--IMP-PTR  2579--IMP-PTR
      2654--IMP-PTR  2715--IMP-PTR  2773--IMP-PTR  2918--IMP-PTR  3012--IMP-PTR  3070--IMP-PTR  3128--IMP-PTR
      3186--IMP-PTR  3244--IMP-PTR  3303--IMP-PTR  3408--IMP-PTR  3474--IMP-PTR  3540--IMP-PTR  3636--IMP-PTR
      3733--IMP-PTR  3791--IMP-PTR  3849--IMP-PTR  6584<<ASSIGN  37462>>ASSIGN  37464>>CALL    37466>>CALL
PL6.E3A0      #001=XSP$MACHINE File=XSP$MACHINE.:XSA1TSI                         WED 10/01/97 12:04 Page:406
     37630>>ASSIGN  37732>>IF
PINV
      6563**DCL      6599<<ASSIGN   6674>>IF       6773>>IF       6857>>IF       6995>>IF       7096>>IF
      7180>>IF       7321>>IF       7405>>IF       7516>>IF       7586>>IF       7670>>IF       7796>>IF
      7880>>IF       7991>>IF       8075>>IF       8186>>IF       8270>>IF       8381>>IF       8465>>IF
      8582>>IF       8652>>IF       8722>>IF       8806>>IF       8969>>IF       9049>>IF       9140>>IF
      9303>>IF       9425>>IF       9547>>IF       9631>>IF       9742>>IF       9812>>IF       9896>>IF
     10017>>IF      10087>>IF      10171>>IF      10292>>IF      10380>>IF      10468>>IF      10552>>IF
     10724>>IF      10808>>IF      10916>>IF      10986>>IF      11070>>IF      11188>>IF      11258>>IF
     11342>>IF      11463>>IF      11551>>IF      11639>>IF      11723>>IF      11895>>IF      11979>>IF
     12086>>IF      12174>>IF      12258>>IF      12380>>IF      12450>>IF      12520>>IF      12604>>IF
     12736>>IF      12806>>IF      12876>>IF      12960>>IF      13096>>IF      13166>>IF      13254>>IF
     13342>>IF      13426>>IF      13618>>IF      13702>>IF      13809>>IF      13897>>IF      13981>>IF
     14106>>IF      14176>>IF      14246>>IF      14330>>IF      14465>>IF      14535>>IF      14605>>IF
     14689>>IF      14821>>IF      14891>>IF      14979>>IF      15067>>IF      15151>>IF      15337>>IF
     15447>>IF      15556>>IF      15676>>IF      15786>>IF      15902>>IF      16012>>IF      16121>>IF
     16242>>IF      16351>>IF      16456>>IF      16540>>IF      16651>>IF      16735>>IF      16845>>IF
     16929>>IF      17094>>IF      17208>>IF      17292>>IF      17432>>IF      17516>>IF      17645>>IF
     17764>>IF      17848>>IF      17977>>IF      18156>>IF      18218>>IF      18301>>IF      18414>>IF
     18587>>IF      18657>>IF      18727>>IF      18811>>IF      18984>>IF      19068>>IF      19205>>IF
     19325>>IF      19409>>IF      19592>>IF      19708>>IF      19823>>IF      19932>>IF      20034>>IF
     20142>>IF      20226>>IF      20341>>IF      20443>>IF      20551>>IF      20635>>IF      20770>>IF
     20883>>IF      20995>>IF      21123>>IF      21237>>IF      21321>>IF      21461>>IF      21545>>IF
     21674>>IF      21793>>IF      21877>>IF      22006>>IF      22129>>IF      22246>>IF      22330>>IF
     22467>>IF      22577>>IF      22713>>IF      22823>>IF      22932>>IF      23052>>IF      23163>>IF
     23316>>IF      23400>>IF      23530>>IF      23646>>IF      23765>>IF      23849>>IF      23982>>IF
     24066>>IF      24195>>IF      24350>>IF      24434>>IF      24589>>IF      24651>>IF      24734>>IF
     24847>>IF      25017>>IF      25087>>IF      25157>>IF      25241>>IF      25418>>IF      25502>>IF
     25632>>IF      25751>>IF      25850>>IF      25934>>IF      26069>>IF      26185>>IF      26309>>IF
     26419>>IF      26536>>IF      26646>>IF      26747>>IF      26831>>IF      26974>>IF      27096>>IF
     27231>>IF      27341>>IF      27460>>IF      27577>>IF      27693>>IF      27802>>IF      27904>>IF
     28012>>IF      28096>>IF      28211>>IF      28313>>IF      28421>>IF      28505>>IF      28641>>IF
     28754>>IF      28878>>IF      28962>>IF      29070>>IF      29140>>IF      29224>>IF      29342>>IF
     29412>>IF      29496>>IF      29614>>IF      29702>>IF      29790>>IF      29874>>IF      30046>>IF
     30130>>IF      30238>>IF      30308>>IF      30392>>IF      30510>>IF      30580>>IF      30664>>IF
     30782>>IF      30870>>IF      30958>>IF      31042>>IF      31214>>IF      31298>>IF      31405>>IF
PL6.E3A0      #001=XSP$MACHINE File=XSP$MACHINE.:XSA1TSI                         WED 10/01/97 12:04 Page:407
     31493>>IF      31577>>IF      31699>>IF      31769>>IF      31839>>IF      31923>>IF      32055>>IF
     32125>>IF      32195>>IF      32279>>IF      32411>>IF      32481>>IF      32569>>IF      32657>>IF
     32741>>IF      32933>>IF      33017>>IF      33124>>IF      33212>>IF      33296>>IF      33418>>IF
     33488>>IF      33558>>IF      33642>>IF      33774>>IF      33844>>IF      33914>>IF      33998>>IF
     34130>>IF      34200>>IF      34288>>IF      34376>>IF      34460>>IF      34651>>IF      34735>>IF
     34865>>IF      34981>>IF      35100>>IF      35184>>IF      35317>>IF      35401>>IF      35530>>IF
     35657>>IF      35741>>IF      35871>>IF      35991>>IF      36101>>IF      36232>>IF      36342>>IF
     36445>>IF      36529>>IF      36640>>IF      36724>>IF      36856>>IF      36967>>IF      37078>>IF
     37196>>IF      37307>>IF      37725<<ASSIGN  37734<<ASSIGN  37769<<ASSIGN  37804<<ASSIGN  37818<<ASSIGN
     37827<<ASSIGN  37836<<ASSIGN  37844<<ASSIGN  37855<<ASSIGN  37869<<ASSIGN  37883<<ASSIGN  37895<<ASSIGN
     37905<<ASSIGN  37916<<ASSIGN  37924<<ASSIGN  37934<<ASSIGN  37944<<ASSIGN  37953<<ASSIGN  37963<<ASSIGN
     37982<<ASSIGN  37991<<ASSIGN  38003<<ASSIGN  38013<<ASSIGN  38021<<ASSIGN  38029<<ASSIGN  38038<<ASSIGN
PRED
      6562**DCL      6598<<ASSIGN   6684>>IF       6782>>IF       6867>>IF       7005>>IF       7105>>IF
      7190>>IF       7330>>IF       7415>>IF       7525>>IF       7595>>IF       7680>>IF       7805>>IF
      7890>>IF       8000>>IF       8085>>IF       8195>>IF       8280>>IF       8390>>IF       8475>>IF
      8591>>IF       8661>>IF       8731>>IF       8816>>IF       9150>>IF       9150>>IF       9150>>IF
      9313>>IF       9435>>IF       9556>>IF       9641>>IF       9751>>IF       9821>>IF       9906>>IF
     10026>>IF      10096>>IF      10181>>IF      10301>>IF      10389>>IF      10477>>IF      10562>>IF
     10733>>IF      10818>>IF      10925>>IF      10995>>IF      11080>>IF      11197>>IF      11267>>IF
     11352>>IF      11472>>IF      11560>>IF      11648>>IF      11733>>IF      11904>>IF      11989>>IF
     12095>>IF      12183>>IF      12268>>IF      12389>>IF      12459>>IF      12529>>IF      12614>>IF
     12745>>IF      12815>>IF      12885>>IF      12970>>IF      13105>>IF      13175>>IF      13263>>IF
     13351>>IF      13436>>IF      13627>>IF      13712>>IF      13818>>IF      13906>>IF      13991>>IF
     14115>>IF      14185>>IF      14255>>IF      14340>>IF      14474>>IF      14544>>IF      14614>>IF
     14699>>IF      14830>>IF      14900>>IF      14988>>IF      15076>>IF      15161>>IF      15347>>IF
     15457>>IF      15566>>IF      15686>>IF      15796>>IF      15912>>IF      16022>>IF      16131>>IF
     16252>>IF      16361>>IF      16465>>IF      16550>>IF      16660>>IF      16745>>IF      16854>>IF
     16939>>IF      17104>>IF      17217>>IF      17302>>IF      17441>>IF      17526>>IF      17655>>IF
     17773>>IF      17858>>IF      17987>>IF      18311>>IF      18311>>IF      18311>>IF      18424>>IF
     18596>>IF      18666>>IF      18736>>IF      18821>>IF      18993>>IF      19078>>IF      19215>>IF
     19334>>IF      19419>>IF      19602>>IF      19718>>IF      19833>>IF      19941>>IF      20044>>IF
     20151>>IF      20236>>IF      20350>>IF      20453>>IF      20560>>IF      20645>>IF      20780>>IF
     20893>>IF      21005>>IF      21133>>IF      21246>>IF      21331>>IF      21470>>IF      21555>>IF
     21684>>IF      21802>>IF      21887>>IF      22016>>IF      22139>>IF      22255>>IF      22340>>IF
     22477>>IF      22587>>IF      22723>>IF      22833>>IF      22942>>IF      23062>>IF      23173>>IF
PL6.E3A0      #001=XSP$MACHINE File=XSP$MACHINE.:XSA1TSI                         WED 10/01/97 12:04 Page:408
     23325>>IF      23410>>IF      23540>>IF      23656>>IF      23774>>IF      23859>>IF      23991>>IF
     24076>>IF      24205>>IF      24359>>IF      24444>>IF      24744>>IF      24744>>IF      24744>>IF
     24857>>IF      25026>>IF      25096>>IF      25166>>IF      25251>>IF      25427>>IF      25512>>IF
     25642>>IF      25761>>IF      25859>>IF      25944>>IF      26079>>IF      26195>>IF      26319>>IF
     26429>>IF      26546>>IF      26656>>IF      26756>>IF      26841>>IF      26984>>IF      27106>>IF
     27241>>IF      27351>>IF      27470>>IF      27587>>IF      27703>>IF      27811>>IF      27914>>IF
     28021>>IF      28106>>IF      28220>>IF      28323>>IF      28430>>IF      28515>>IF      28651>>IF
     28764>>IF      28887>>IF      28972>>IF      29079>>IF      29149>>IF      29234>>IF      29351>>IF
     29421>>IF      29506>>IF      29623>>IF      29711>>IF      29799>>IF      29884>>IF      30055>>IF
     30140>>IF      30247>>IF      30317>>IF      30402>>IF      30519>>IF      30589>>IF      30674>>IF
     30791>>IF      30879>>IF      30967>>IF      31052>>IF      31223>>IF      31308>>IF      31414>>IF
     31502>>IF      31587>>IF      31708>>IF      31778>>IF      31848>>IF      31933>>IF      32064>>IF
     32134>>IF      32204>>IF      32289>>IF      32420>>IF      32490>>IF      32578>>IF      32666>>IF
     32751>>IF      32942>>IF      33027>>IF      33133>>IF      33221>>IF      33306>>IF      33427>>IF
     33497>>IF      33567>>IF      33652>>IF      33783>>IF      33853>>IF      33923>>IF      34008>>IF
     34139>>IF      34209>>IF      34297>>IF      34385>>IF      34470>>IF      34660>>IF      34745>>IF
     34875>>IF      34991>>IF      35109>>IF      35194>>IF      35326>>IF      35411>>IF      35540>>IF
     35666>>IF      35751>>IF      35881>>IF      36001>>IF      36111>>IF      36242>>IF      36352>>IF
     36454>>IF      36539>>IF      36649>>IF      36734>>IF      36866>>IF      36977>>IF      37088>>IF
     37206>>IF      37317>>IF      37724<<ASSIGN  37733<<ASSIGN  37754<<ASSIGN  37767<<ASSIGN  37789<<ASSIGN
     37802<<ASSIGN  37814<<ASSIGN  37817<<ASSIGN  37843<<ASSIGN  37868<<ASSIGN  37892<<ASSIGN  37894<<ASSIGN
     37923<<ASSIGN  37980<<ASSIGN
PRED01 IN PROCEDURE PRED00
     37718**ENTRY    8582--CALL     8969--CALL
PRED02 IN PROCEDURE PRED00
     37728**ENTRY    8652--CALL     9049--CALL    26747--CALL
PRED03 IN PROCEDURE PRED00
     37737**ENTRY    7321--CALL     7516--CALL     8722--CALL    26831--CALL    36856--CALL
PRED04 IN PROCEDURE PRED00
     37772**ENTRY    9303--CALL     9425--CALL    26974--CALL    27096--CALL
PRED05 IN PROCEDURE PRED00
     37807**ENTRY    6773--CALL     8381--CALL    11979--CALL    13702--CALL    14689--CALL    15151--CALL
     15337--CALL    15556--CALL    15676--CALL    15902--CALL    16121--CALL    16456--CALL    16845--CALL
     17094--CALL    17516--CALL    17977--CALL    18414--CALL    19205--CALL    19592--CALL    19823--CALL
     19932--CALL    20142--CALL    20770--CALL    20995--CALL    21123--CALL    21545--CALL    22006--CALL
     22129--CALL    22467--CALL    22713--CALL    22932--CALL    23052--CALL    23530--CALL    23849--CALL
PL6.E3A0      #001=XSP$MACHINE File=XSP$MACHINE.:XSA1TSI                         WED 10/01/97 12:04 Page:409
     24195--CALL    24847--CALL    25632--CALL    25751--CALL    25850--CALL    26419--CALL    26646--CALL
     27341--CALL    27693--CALL    28211--CALL    28421--CALL    28754--CALL    30130--CALL    30392--CALL
     31298--CALL    31577--CALL    31923--CALL    33017--CALL    33296--CALL    33642--CALL    33998--CALL
     34460--CALL    34865--CALL    35184--CALL    35530--CALL    35871--CALL    36101--CALL    36342--CALL
     36640--CALL    37078--CALL    37307--CALL
PRED06 IN PROCEDURE PRED00
     37821**ENTRY    6674--CALL     7180--CALL     7991--CALL    15447--CALL    15786--CALL    16012--CALL
     16651--CALL    17292--CALL    17645--CALL    17848--CALL    19068--CALL    19409--CALL    19708--CALL
     20341--CALL    20551--CALL    20883--CALL    21321--CALL    21674--CALL    21877--CALL    22330--CALL
     22577--CALL    22823--CALL    23163--CALL
PRED07 IN PROCEDURE PRED00
     37830**ENTRY   23400--CALL    23646--CALL    24066--CALL    24434--CALL    25502--CALL    26309--CALL
     26536--CALL    27231--CALL    27577--CALL    27802--CALL    28012--CALL    28641--CALL    28962--CALL
     29224--CALL    34735--CALL    34981--CALL    35401--CALL    35741--CALL    35991--CALL    36232--CALL
     36445--CALL    36967--CALL    37196--CALL
PRED08 IN PROCEDURE PRED00
     37839**ENTRY   20034--CALL    20226--CALL    20443--CALL    20635--CALL    27904--CALL    28096--CALL
     28313--CALL    28505--CALL
PRED09 IN PROCEDURE PRED00
     37847**ENTRY    6995--CALL     7096--CALL    26069--CALL    26185--CALL
PRED11 IN PROCEDURE PRED00
     37864**ENTRY    6857--CALL    11895--CALL    12086--CALL    12380--CALL    12736--CALL    13096--CALL
     13618--CALL    13809--CALL    14106--CALL    14465--CALL    14821--CALL    25934--CALL    31214--CALL
     31405--CALL    31699--CALL    32055--CALL    32411--CALL    32933--CALL    33124--CALL    33418--CALL
     33774--CALL    34130--CALL
PRED13 IN PROCEDURE PRED00
     37878**ENTRY   16242--CALL    16351--CALL    27460--CALL
PRED14 IN PROCEDURE PRED00
     37886**ENTRY   16540--CALL    16735--CALL    16929--CALL    36529--CALL    36724--CALL
PRED15 IN PROCEDURE PRED00
     37898**ENTRY   10552--CALL    11723--CALL    13426--CALL    29874--CALL    31042--CALL    32741--CALL
PRED16 IN PROCEDURE PRED00
     37908**ENTRY   18811--CALL    25241--CALL
PRED17 IN PROCEDURE PRED00
     37919**ENTRY    9547--CALL     9742--CALL    10017--CALL    10292--CALL    10724--CALL    10916--CALL
     11188--CALL    11463--CALL    12174--CALL    12450--CALL    12806--CALL    13166--CALL    13897--CALL
PL6.E3A0      #001=XSP$MACHINE File=XSP$MACHINE.:XSA1TSI                         WED 10/01/97 12:04 Page:410
     14176--CALL    14535--CALL    14891--CALL    17208--CALL    17432--CALL    17764--CALL    18156--CALL
     18727--CALL    18984--CALL    19325--CALL    21237--CALL    21461--CALL    21793--CALL    22246--CALL
     23316--CALL    23765--CALL    23982--CALL    24350--CALL    24589--CALL    25157--CALL    25418--CALL
     28878--CALL    29070--CALL    29342--CALL    29614--CALL    30046--CALL    30238--CALL    30510--CALL
     30782--CALL    31493--CALL    31769--CALL    32125--CALL    32481--CALL    33212--CALL    33488--CALL
     33844--CALL    34200--CALL    34651--CALL    35100--CALL    35317--CALL    35657--CALL
PRED18 IN PROCEDURE PRED00
     37927**ENTRY   10171--CALL    11342--CALL    12960--CALL    29496--CALL    30664--CALL    32279--CALL
PRED19 IN PROCEDURE PRED00
     37937**ENTRY    9812--CALL    10380--CALL    10986--CALL    11551--CALL    12520--CALL    13254--CALL
     14246--CALL    14979--CALL    29140--CALL    29702--CALL    30308--CALL    30870--CALL    31839--CALL
     32569--CALL    33558--CALL    34288--CALL
PRED21 IN PROCEDURE PRED00
     37956**ENTRY    7405--CALL     7586--CALL     7796--CALL     8075--CALL     8186--CALL     8465--CALL
      9631--CALL     9896--CALL    10808--CALL    11070--CALL    12258--CALL    12604--CALL    13981--CALL
     14330--CALL
PRED22 IN PROCEDURE PRED00
     37966**ENTRY    8806--CALL     9140--CALL
PRED23 IN PROCEDURE PRED00
     37985**ENTRY    7670--CALL
PRED24 IN PROCEDURE PRED00
     37994**ENTRY    7880--CALL
PRED25 IN PROCEDURE PRED00
     38006**ENTRY    8270--CALL
PRED26 IN PROCEDURE PRED00
     38016**ENTRY   10087--CALL    10468--CALL    11258--CALL    11639--CALL    12876--CALL    13342--CALL
     14605--CALL    15067--CALL    29412--CALL    29790--CALL    30580--CALL    30958--CALL    32195--CALL
     32657--CALL    33914--CALL    34376--CALL
PRED27 IN PROCEDURE PRED00
     38024**ENTRY   18218--CALL    18587--CALL    24651--CALL    25017--CALL
PRED28 IN PROCEDURE PRED00
     38032**ENTRY   18301--CALL    18657--CALL    24734--CALL    25087--CALL
SEND_PPDU IN PROCEDURE EVNT
     37478**LABEL   37445--GOTO
VBLK
      5123**DCL        42--PROC    37452<>CALL    37479<>CALL
PL6.E3A0      #001=XSP$MACHINE File=XSP$MACHINE.:XSA1TSI                         WED 10/01/97 12:04 Page:411
VBLK.CTX$
      5133**DCL      6583>>ASSIGN  37385<>CALL
VBLK.DATBITS
      5242**DCL     37748>>IF      37761>>IF      37783>>IF      37796>>IF      37814>>ASSIGN  37974>>IF
VBLK.DATMASK
      5239**DCL      5242--REDEF   37816>>IF
VBLK.DEFBITS
      5226**DCL     37762>>IF
VBLK.DEFMASK
      5223**DCL      5226--REDEF   37541>>ASSIGN  37542>>ASSIGN  37575>>ASSIGN  37576>>ASSIGN  37743>>IF
     37778>>IF
VBLK.DELMASK
      5231**DCL      5234--REDEF
VBLK.EVENT
      5218**DCL      6594>>ASSIGN   6601>>DOCASE  37451<<ASSIGN  37478<<ASSIGN  37498>>IF
VBLK.FPT$
      5137**DCL      6584>>ASSIGN
VBLK.PPDUERR
      5215**DCL     37723>>IF
VBLK.SPIMASK
      5247**DCL      5250--REDEF
XSP$ACTIVITY_DISCARD.ERRDEF
      2317**DCL      2337--REDEF
XSP$ACTIVITY_END.ERRDEF
      2379**DCL      2399--REDEF
XSP$ACTIVITY_INTERRUPT.ERRDEF
      2440**DCL      2460--REDEF
XSP$ACTIVITY_RESUME.ERRDEF
      2504**DCL      2524--REDEF
XSP$ACTIVITY_START.ERRDEF
      2594**DCL      2614--REDEF
XSP$ALTER_CONTEXT.ERRDEF
      2663**DCL      2683--REDEF
XSP$CAPABILITY_DATA.ERRDEF
      2724**DCL      2744--REDEF
XSP$CONNECT.CALLED$
PL6.E3A0      #001=XSP$MACHINE File=XSP$MACHINE.:XSA1TSI                         WED 10/01/97 12:04 Page:412
      2868**DCL      2869--REDEF
XSP$CONNECT.DFLT$
      2858**DCL      2859--REDEF
XSP$CONNECT.DFLTRSLT
      2859**DCL     37732>>IF
XSP$CONNECT.ERRDEF
      2827**DCL      2847--REDEF
XSP$CONNECT.PFU
      2897**DCL     37630>>ASSIGN
XSP$CONTROL_GIVE.ERRDEF
      2964**DCL      2984--REDEF
XSP$DATA.ERRDEF
      3021**DCL      3041--REDEF
XSP$DUMPFPT
      6546**DCL-ENT 37464--CALL
XSP$ENCODE
      6547**DCL-ENT 37479--CALL
XSP$EXPEDITED_DATA.ERRDEF
      3079**DCL      3099--REDEF
XSP$GENERIC
      2211**DCL     37464<>CALL    37466<>CALL
XSP$GENERIC.ERRDEF
      2257**DCL      2277--REDEF
XSP$GENERIC.FNC
      2217**DCL     37462<<ASSIGN
XSP$P_ABORT.ERRDEF
      3138**DCL      3158--REDEF
XSP$P_EXCEPTION_REPORT.ERRDEF
      3196**DCL      3216--REDEF
XSP$RELCTX
      6548**DCL-ENT 37385--CALL
XSP$RELEASE.ERRDEF
      3254**DCL      3274--REDEF
XSP$RESYNCHRONIZE.ERRDEF
      3356**DCL      3376--REDEF
XSP$SSEND
PL6.E3A0      #001=XSP$MACHINE File=XSP$MACHINE.:XSA1TSI                         WED 10/01/97 12:04 Page:413
      6549**DCL-ENT 37452--CALL
XSP$SYNC_MAJOR.ERRDEF
      3423**DCL      3443--REDEF
XSP$SYNC_MINOR.ERRDEF
      3489**DCL      3509--REDEF
XSP$TOKEN_GIVE.ERRDEF
      3588**DCL      3608--REDEF
XSP$TOKEN_PLEASE.ERRDEF
      3684**DCL      3704--REDEF
XSP$TYPED_DATA.ERRDEF
      3742**DCL      3762--REDEF
XSP$U_ABORT.ERRDEF
      3800**DCL      3820--REDEF
XSP$U_EXCEPTION_REPORT.ERRDEF
      3859**DCL      3879--REDEF
XSP_ABSLIST.CTXT$
      3942**DCL      3943--REDEF    3944--REDEF
XSP_F$EVNTERR
      6456**DCL     37450<>CALL
XSP_F$NOPRES
      6507**DCL     37473<>CALL
XSP_TFRLIST.CTXT$
      3969**DCL      3970--REDEF    3971--REDEF
XSS$BUFPTR
      6550**DCL-ENT  6585--CALL
XSS$SCREECH
      6551**DCL-ENT 37450--CALL    37473--CALL
XSS_TRACE
      6553**DCL     37463>>IF
PL6.E3A0      #001=XSP$MACHINE File=XSP$MACHINE.:XSA1TSI                         WED 10/01/97 12:04 Page:414
              *** CROSS REFERENCE LISTING ***
    **     DENOTES     IDENTIFIER DEFINITION
    <<                 IDENTIFIER'S VALUE SET
    >>                 IDENTIFIER'S VALUE USED
    <>                 IDENTIFIER SET AND/OR USED
    --                 IDENTIFIER REFERENCED
PL6.E3A0      #001=XSP$MACHINE File=XSP$MACHINE.:XSA1TSI                         WED 10/01/97 12:04 Page:415
              MINI UREF LISTING

ACTION00   37513**PROC
J    6558**DCL
PRED00   37716**PROC
PRED10 IN PROCEDURE PRED00  37858**ENTRY
PRED12 IN PROCEDURE PRED00  37872**ENTRY
PRED20 IN PROCEDURE PRED00  37947**ENTRY
XSP$MACHINE      42**PROC
