VERSION A01

PL6.E3A0      #001=XSS$TSEND File=XSS$COMM.:XSA1TSI                              WED 10/01/97 12:08 Page:1
        1        1        /*M*    XSS$COMM        Interface to/from lower layers from Session     */
        2        2        /*T***********************************************************/
        3        3        /*T*                                                         */
        4        4        /*T* Copyright (c) Bull HN Information Systems Inc., 1997    */
        5        5        /*T*                                                         */
        6        6        /*T***********************************************************/
        7        7        /*X* DDA */
        8        8        /*F*    NAME:   XSS$TSEND
        9        9                PURPOSE:
       10       10                    This module provides direct access to the Transport layer from
       11       11                    the Session layer state machine.
       12       12                DESCRIPTION:
       13       13                    XSS$TSEND is called by XSS$MACHINE when an event is generated
       14       14                    that involves notification of the Transport layer.
       15       15        */
       16       16        XSS$TSEND: PROC( VBLK) ALTRET;
       17       17        %INCLUDE CP_6;
       18     5576            %B$ALT;
       19     5584            %B$TCB;
       20     5587            %FPT_WRITE( FPTN=AUWRT, STATION=NCSTA, TRANS=YES);
       21     5618            %FPT_WRITE( FPTN=NCWRT, STATION=XSS_AUSTA, TRANS=YES);
       22     5649            %VLP_ERRCODE( FPTN=ERRCODE);
       23     5694            %VLP_STATION( FPTN=XSS_AUSTA, STCLASS=SYMREF);
       24     5721            %VLP_STATION( FPTN=NCSTA, STCLASS=STATIC);
       25     5748        %INCLUDE K_ADDRESS_M;
       26     6251            %K$ADDRESS;
       27     6404        %INCLUDE K_INTERFACE_M;
       28     6813            %K$FPT_CONNECT_OSI( NAME=TCONFPT, STCLASS=AUTO);
       29     7150            %K$FPT_TERM_OSI( NAME=TDISFPT, STCLASS=AUTO);
       30     7368        %INCLUDE XSS_SESSION_E;
       31     7933        %INCLUDE XSS_SESSION_M;
       32    10576            %XSS$GENERIC( STCLASS="BASED( SFPT$)");
       33    10722            %XSS$CONNECT( STCLASS="BASED( SFPT$)");
       34    11045        %INCLUDE XSS_INTERNAL_E;
       35    11343        %INCLUDE XSS_INTERNAL_M;
       36    11932            %XSS$GLUE( NAME=GLUE, STCLASS="BASED( GLUE$)");
       37    11962            %XSS$SCTX( NAME=SCTX, STCLASS="BASED( SCTX$)");
PL6.E3A0      #001=XSS$TSEND File=XSS$COMM.:XSA1TSI                              WED 10/01/97 12:08 Page:2
       38    12396            %XSS$VBLK( NAME=VBLK, STCLASS=);
       39    12501        %INCLUDE XSC_COMMON_M;
       40    13154            %XSC$ADDRESS;
       41    13437
       42    13438    1       DCL XSS$BUFPTR ENTRY(2) ALTRET;
       43    13439    1       DCL XSS$COMMWAITZ ENTRY(1) ALTRET;
       44    13440    1       DCL XSS$DUMPBYTES ENTRY(3) OPTIONAL;
       45    13441    1       DCL XSS$SCREECH ENTRY(1);
       46    13442    1       DCL XSS$EVLOG ENTRY(2);
       47    13443
       48    13444    1       DCL B$TCB$ PTR SYMREF;
       49    13445    1       DCL XSS_DEBUG UBIN SYMREF;
       50    13446    1       DCL XSS_OTRACE SBIN SYMREF;
       51    13447
       52    13448    1       DCL CREDITING BIT(1);
       53    13449    1       DCL GLUEBUF CHAR(2048) CALIGNED;
       54    13450    1       DCL GLUE_ VECTOR;
       55    13451    1       DCL GLUE$ PTR CALIGNED;
       56    13452    1       DCL SCTX$ PTR;
       57    13453    1       DCL SFPT$ PTR;
       58    13454    1       DCL UADR$ PTR;
       59    13455    1       DCL AUTITLE CHAR(0) CONSTANT INIT( '(XSS$TSEND) AU sent');
       60    13456    1       DCL AUTITLE_ VECTOR CONSTANT INIT( VECTOR( AUTITLE));
       61    13457    1       DCL NCTITLE CHAR(0) CONSTANT INIT( '(XSS$TSEND) NC sent');
       62    13458    1       DCL NCTITLE_ VECTOR CONSTANT INIT( VECTOR( NCTITLE));
       63    13459
       64    13460    1       CREDITING = %FALSE;
       65    13461    1       SCTX$ = VBLK.CTX$;
       66    13462    1   COMMON:
       67    13463    1       GLUE$ = ADDR( GLUEBUF);
       68    13464    1       GLUE_ = VECTOR( GLUEBUF);
       69    13465    1       VBOUND( GLUE_) = 3;  /* this is updated by MOVEBYTES later on */
       70    13466    1       GLUE = '0'B;
       71    13467    1       GLUE.MYSCID = SCTX.SCID;
       72    13468    1       GLUE.YRSCID = SCTX.PEERSCID;
       73    13469    1       GLUE.MAGIC = SCTX.MAGIC;
       74    13470    1       SFPT$ = VBLK.FPT$;
PL6.E3A0      #001=XSS$TSEND File=XSS$COMM.:XSA1TSI                              WED 10/01/97 12:08 Page:3
       75    13471    2       IF CREDITING THEN DO;
       76    13472                /* Send this credit message by a quicker path */
       77    13473    2   CREDIT:
       78    13474    3           IF SCTX.STATION = 'MONITOR ' THEN DO;
       79    13475    3               NCSTA.STATION# = SCTX.STATION;
       80    13476    3               SFPT$ = ADDR( NIL);
       81    13477    3               VBOUND( GLUE_) = 3;
       82    13478    3               GLUE.TRNFNC = %K_TCREDIT;
       83    13479    3               IF XSS_OTRACE ~= 0 THEN
       84    13480    3                   CALL XSS$DUMPBYTES( 0, GLUE_, AUTITLE_);
       85    13481    3               AUWRT.BUF_ = GLUE_;
       86    13482    3               AUWRT.V.DCB# = SCTX.DCB#;
       87    13483    3               CALL XSS$EVLOG( 'WR', %K_TCREDIT*512 + SCTX.SCID);
       88    13484    3               CALL M$WRITE( AUWRT) ALTRET( WRTERR);
       89    13485    3               END;
       90    13486    2           RETURN;
       91    13487    2           END;
       92    13488    2       DO SELECT( VBLK.EVENT);
       93    13489    2           SELECT( %XSS_SEV_TCONREQ);
       94    13490    2               SCTX.MODE = %CLIENT;
       95    13491    2               SCTX.STATION = XSS_AUSTA.STATION#;
       96    13492                    /* fill in params for T-CONNECT Request */
       97    13493    2               TCONFPT = '0'B;
       98    13494    2               TCONFPT.SCID = GLUE.MYSCID;
       99    13495    2               CALL ADDRSETUP;
      100    13496    2               GLUE.TRNFNC = %K_TCONNECT_REQ;
      101    13497    2               CALL MOVEBYTES( SIZEC( TCONFPT), ADDR( TCONFPT));
      102    13498    2           SELECT( %XSS_SEV_TCONRSP);
      103    13499                    /* fill in params for T-CONNECT Response */
      104    13500    2               TCONFPT = '0'B;
      105    13501                    /*N* Eventually this should echo the T-CONNECT Indication params
      106    13502                         found in the FPT_CONNECT_OSI framed by VBLK.PDU */
      107    13503    2               TCONFPT.SCID = GLUE.MYSCID;
      108    13504    2               CALL ADDRSETUP;
      109    13505    2               TCONFPT.TR_FLAGS.EXPEDITED = SCTX.FLAGS.TEXP;
      110    13506    2               GLUE.TRNFNC = %K_TCONNECT_RSP;
      111    13507    2               CALL MOVEBYTES( SIZEC( TCONFPT), ADDR( TCONFPT));
PL6.E3A0      #001=XSS$TSEND File=XSS$COMM.:XSA1TSI                              WED 10/01/97 12:08 Page:4
      112    13508    2           SELECT( %XSS_SEV_TDISREQ);
      113    13509                    /* fill in params for T-DISCONNECT Request */
      114    13510    2               TDISFPT = '0'B;
      115    13511    2               TDISFPT.REASON = 0; /*N* ??? */
      116    13512    2               CALL XSS$BUFPTR( SCTX.SRCX, UADR$);
      117    13513    2               TDISFPT.SRC_TSAP = UADR$->XSC$ADDRESS.TSAP;
      118    13514    2               TDISFPT.SRC_NSAP = UADR$->XSC$ADDRESS.NSAP;
      119    13515    2               CALL XSS$BUFPTR( SCTX.DSTX, UADR$);
      120    13516    2               TDISFPT.DST_TSAP = UADR$->XSC$ADDRESS.TSAP;
      121    13517    2               TDISFPT.DST_NSAP = UADR$->XSC$ADDRESS.NSAP;
      122    13518    2               GLUE.TRNFNC = %K_TDISCONNECT_REQ;
      123    13519    2               CALL MOVEBYTES( SIZEC( TDISFPT), ADDR( TDISFPT));
      124    13520    2           SELECT( %XSS_SEV_AB_NR,
      125    13521    2                   %XSS_SEV_AB_R,
      126    13522    2                   %XSS_SEV_AA);
      127    13523    2               IF NOT SCTX.FLAGS.TEXP THEN
      128    13524    2                   GOTO NORMAL;
      129    13525    2   EXPEDITED:
      130    13526    2               GLUE.TRNFNC = %K_TEXPD_DATA_REQ;
      131    13527    2               CALL MOVEBYTES( VBLK.PDU.SIZE, VBLK.PDU.PTR$);
      132    13528    2               CALL MOVEBYTES( VBLK.DAT.SIZE, VBLK.DAT.PTR$);
      133    13529    2           SELECT( %XSS_SEV_EX,
      134    13530    2                   %XSS_SEV_PR_MAA,
      135    13531    2                   %XSS_SEV_PR_RA,
      136    13532    2                   %XSS_SEV_PR_RS);
      137    13533    2               IF SCTX.FLAGS.TEXP THEN
      138    13534    2                   GOTO EXPEDITED;
      139    13535    2               RETURN;  /* don't send this PDU! */
      140    13536    2           SELECT( ELSE);
      141    13537    2   NORMAL:
      142    13538    2               GLUE.TRNFNC = %K_TDATA_REQ;
      143    13539    2               CALL MOVEBYTES( VBLK.PDU.SIZE, VBLK.PDU.PTR$);
      144    13540    2               CALL MOVEBYTES( VBLK.DAT.SIZE, VBLK.DAT.PTR$);
      145    13541    2           END;
      146    13542            /* switch on whether AU or NC DCB */
      147    13543    2       DO CASE( SCTX.MODE);
      148    13544    2           CASE( %CLIENT);
PL6.E3A0      #001=XSS$TSEND File=XSS$COMM.:XSA1TSI                              WED 10/01/97 12:08 Page:5
      149    13545    2               IF XSS_OTRACE ~= 0 THEN
      150    13546    2                   CALL XSS$DUMPBYTES( 0, GLUE_, NCTITLE_);
      151    13547    2               NCWRT.BUF_ = GLUE_;
      152    13548    2               IF XSS_DEBUG ~= 0 THEN
      153    13549    2                   NCWRT.STATION_ = VECTOR( XSS_AUSTA);
      154    13550    2               ELSE
      155    13551    2                   NCWRT.STATION_ = VECTOR( NIL);
      156    13552    2               NCWRT.V.DCB# = SCTX.DCB#;
      157    13553    2               CALL XSS$EVLOG( 'WR', GLUE.TRNFNC*512 + SCTX.SCID);
      158    13554    2               CALL M$WRITE( NCWRT) ALTRET( WRTERR);
      159    13555    2               IF SCTX.NEEDAREAD THEN
      160    13556    2                   CALL XSS$COMMWAITZ( SCTX);
      161    13557    2           CASE( %SERVER);
      162    13558    2               IF XSS_OTRACE ~= 0 THEN
      163    13559    2                   CALL XSS$DUMPBYTES( 0, GLUE_, AUTITLE_);
      164    13560    2               AUWRT.BUF_ = GLUE_;
      165    13561    2               NCSTA.STATION# = SCTX.STATION;
      166    13562    2               AUWRT.V.DCB# = SCTX.DCB#;
      167    13563    2               CALL XSS$EVLOG( 'WR', GLUE.TRNFNC*512 + SCTX.SCID);
      168    13564    2               CALL M$WRITE( AUWRT) ALTRET( WRTERR);
      169    13565    2               IF GLUE.TRNFNC = %K_TCONNECT_RSP THEN
      170    13566    2                   GOTO CREDIT;
      171    13567    2           END;
      172    13568    1       RETURN;
      173    13569    1   WRTERR:
      174    13570    1       ERRCODE = B$TCB$->B$TCB.ALT$->B$ALT.ERR;
      175    13571    1       CALL XSS$EVLOG( 'ER', SCTX.SCID);
      176    13572    1       CALL XSS$EVLOG( , ERRCODE);
      177    13573    2       IF SFPT$ = ADDR( NIL) THEN DO;
      178    13574    2           IF ERRCODE.SEV = 0 THEN
      179    13575    2               ERRCODE.SEV = 1;
      180    13576    2           CALL XSS$SCREECH( ERRCODE);
      181    13577    2           END;
      182    13578    1       ELSE
      183    13579    1           XSS$GENERIC.ERROR = ERRCODE;
      184    13580            /* Caller sets SCTX.ABORTING which simulates T-DISCONNECT Indication */
      185    13581    1       ALTRETURN;
PL6.E3A0      #001=XSS$TSEND File=XSS$COMM.:XSA1TSI                              WED 10/01/97 12:08 Page:6
      186    13582        %EJECT;
PL6.E3A0      #001=XSS$TSEND File=XSS$COMM.:XSA1TSI                              WED 10/01/97 12:08 Page:7
      187    13583    1   ADDRSETUP: PROC;
      188    13584
      189    13585        %XSC$CCB( NAME=CCB, STCLASS="BASED( CCB$)");
      190    13882
      191    13883    2       DCL XSS_CCB$$ PTR SYMREF;
      192    13884
      193    13885    2       DCL CCB$$(0:0) PTR BASED( XSS_CCB$$) ALIGNED;
      194    13886    2       DCL CCB$ PTR;
      195    13887
      196    13888    2       CCB$ = CCB$$( SCTX.SCID);
      197    13889    2       TCONFPT.TPDUSIZE = CCB.TPARMS.TPDUSIZE;
      198    13890    2       TCONFPT.WINDOWSZ = CCB.TPARMS.WINDOWSZ;
      199    13891    2       TCONFPT.TIMER1 = CCB.TPARMS.TIMER1;
      200    13892    2       TCONFPT.TIMER2 = CCB.TPARMS.TIMER2;
      201    13893    2       TCONFPT.QOS = CCB.TPARMS.QOS;
      202    13894    2       TCONFPT.CLASS = CCB.TPARMS.CLASS;
      203    13895    2       TCONFPT.TR_FLAGS = CCB.TPARMS.TR_FLAGS;
      204    13896    2       IF VBLK.EVENT = %XSS_SEV_TCONREQ THEN
      205    13897    2           TCONFPT.TR_FLAGS.EXPEDITED = XSS$CONNECT.SFU.EX | CCB.TPARMS.TR_FLAGS.
             13897                    EXPEDITED;
      206    13898    2       CALL XSS$BUFPTR( SCTX.SRCX, UADR$);
      207    13899    2       TCONFPT.SRC_TSAP = UADR$->XSC$ADDRESS.TSAP;
      208    13900    2       TCONFPT.SRC_NSAP = UADR$->XSC$ADDRESS.NSAP;
      209    13901    2       CALL XSS$BUFPTR( SCTX.DSTX, UADR$);
      210    13902    2       TCONFPT.DST_TSAP = UADR$->XSC$ADDRESS.TSAP;
      211    13903    2       TCONFPT.DST_NSAP = UADR$->XSC$ADDRESS.NSAP;
      212    13904    2       RETURN;
      213    13905
      214    13906    2       END ADDRSETUP;
      215    13907        %EJECT;
PL6.E3A0      #001=XSS$TSEND File=XSS$COMM.:XSA1TSI                              WED 10/01/97 12:08 Page:8
      216    13908    1   MOVEBYTES: PROC( LEN, S$);
      217    13909    2       DCL DESTINATION CHAR( LEN) BASED( D$) CALIGNED;
      218    13910    2       DCL D$ PTR CALIGNED;
      219    13911    2       DCL LEN SBIN;
      220    13912    2       DCL SOURCE CHAR( LEN) BASED( S$) CALIGNED;
      221    13913    2       DCL S$ PTR CALIGNED;
      222    13914
      223    13915    3       IF LEN > 0 THEN DO;
      224    13916    3           D$ = PINCRC( VBASE( GLUE_), 1 + VBOUND( GLUE_));
      225    13917    3           CALL INSERT( DESTINATION, 0, LEN, SOURCE);
      226    13918    3           VBOUND( GLUE_) = LEN + VBOUND( GLUE_);
      227    13919    3           END;
      228    13920    2       RETURN;
      229    13921
      230    13922    2       END MOVEBYTES;
      231    13923        %EJECT;
PL6.E3A0      #001=XSS$TSEND File=XSS$COMM.:XSA1TSI                              WED 10/01/97 12:08 Page:9
      232    13924        /*F*    NAME:   XSS$TCREDIT
      233    13925                PURPOSE:
      234    13926                    This routine is called whenever an M$READ is issued by a server
      235    13927                    endpoint.  It sends a short message to the Transport layer
      236    13928                    incrementing the credits for a particular connection.
      237    13929        */
      238    13930    1   XSS$TCREDIT: ENTRY( VBLK) ALTRET;
      239    13931
      240    13932    1       CREDITING = %TRUE;
      241    13933    1       SCTX$ = ADDR( VBLK);  /* SCTX is passed as param, not VBLK */
      242    13934    1       GOTO COMMON;
      243    13935
      244    13936    1       END XSS$TSEND;
      245    13937        %EOD;

PL6.E3A0      #001=XSS$TSEND File=XSS$COMM.:XSA1TSI                              WED 10/01/97 12:08 Page:10
--  Include file information  --

   XSC_COMMON_M.:XSA1TOU  is referenced.
   XSS_INTERNAL_M.:XSA1TOU  is referenced.
   XSS_INTERNAL_E.:XSA1TOU  is referenced.
   XSS_SESSION_M.:XSA1TOU  is referenced.
   XSS_SESSION_E.:XSA1TOU  is referenced.
   K_INTERFACE_M.:E05OU  is referenced.
   K_ADDRESS_M.:LIB_E05  is referenced.
   CP_6_C.:LIB_E05  is referenced.
   CP_6.:LIB_E05  cannot be made into a system file and is referenced.
      No diagnostics issued in procedure XSS$TSEND.

   Procedure XSS$TSEND requires 524 words for executable code.
   Procedure XSS$TSEND requires 600 words of local(AUTO) storage.

PL6.E3A0      #001=XSS$TSEND File=XSS$COMM.:XSA1TSI                              WED 10/01/97 12:08 Page:11

 Object Unit name= XSS$TSEND                                  File name= XSS$COMM.:XSA1TOU
 UTS= OCT 01 '97 12:08:33.00 WED                              Compiler= PL-6/E31         Sev=      00
 SharedLib= :SHARED_SYSTEM                                    Alt SharedLib=


    ****  Control sections  ****

 Sect   Type Bound  Init  Size OctSiz  Section name(segment info)
    0   DCB   even  none     0      0  M$UC
    1   Data  even  none    33     41  XSS$TSEND
    2  RoData even  UTS     20     24  XSS$TSEND
    3   Proc  even  none   524   1014  XSS$TSEND
    4  RoData even  none    24     30  XSS$TSEND

    ****  Entry defs  ****

                              Check   Calling
                             calling  sequence
  Sect OctLoc Primary Altret sequence   type   Parms  Name
     3      0   yes    yes     yes      Std        1  XSS$TSEND
     3   1005          yes     yes      Std        1  XSS$TCREDIT

  ****  Entry refs  ****

         Check        Calling
        calling       sequence
Altret sequence SRef   type   Args  Name
         yes    yes    Std       3 XSS$DUMPBYTES
         yes           Std       2 XSS$EVLOG
 yes     yes           Std       1 XSS$COMMWAITZ
         yes           Std       1 XSS$SCREECH
 yes     yes           Std       2 XSS$BUFPTR
                       nStd      0 X66_AUTO_1
                       nStd      0 X66_ARET
                       nStd      0 X66_AALT
PL6.E3A0      #001=XSS$TSEND File=XSS$COMM.:XSA1TSI                              WED 10/01/97 12:08 Page:12

  ****  Data refs  ****

  Flags:  r = read only, s = secondary
Flgs Name                             Flgs Name                             Flgs Name
     M$UC                                  XSS_AUSTA                             B$TCB$
     XSS_DEBUG                             XSS_OTRACE                            XSS_CCB$$

  ****  Segment refs  ****

  Flags:  r = read only, s = secondary
Flgs Name                             Flgs Name                             Flgs Name
     ISSID                                 NULLSID
PL6.E3A0      #001=XSS$TSEND File=XSS$COMM.:XSA1TSI                              WED 10/01/97 12:08 Page:13


        1        1        /*M*    XSS$COMM        Interface to/from lower layers from Session     */
        2        2        /*T***********************************************************/
        3        3        /*T*                                                         */
        4        4        /*T* Copyright (c) Bull HN Information Systems Inc., 1997    */
        5        5        /*T*                                                         */
        6        6        /*T***********************************************************/
        7        7        /*X* DDA */
        8        8        /*F*    NAME:   XSS$TSEND
        9        9                PURPOSE:
       10       10                    This module provides direct access to the Transport layer from
       11       11                    the Session layer state machine.
       12       12                DESCRIPTION:
       13       13                    XSS$TSEND is called by XSS$MACHINE when an event is generated
       14       14                    that involves notification of the Transport layer.
       15       15        */
       16       16        XSS$TSEND: PROC( VBLK) ALTRET;

     16  3 000000   000000 700200 xent  XSS$TSEND    TSX0  ! X66_AUTO_1
         3 000001   001130 000001                    ZERO    600,1

       17       17        %INCLUDE CP_6;
       18     5576            %B$ALT;
       19     5584            %B$TCB;
       20     5587            %FPT_WRITE( FPTN=AUWRT, STATION=NCSTA, TRANS=YES);
       21     5618            %FPT_WRITE( FPTN=NCWRT, STATION=XSS_AUSTA, TRANS=YES);
       22     5649            %VLP_ERRCODE( FPTN=ERRCODE);
       23     5694            %VLP_STATION( FPTN=XSS_AUSTA, STCLASS=SYMREF);
       24     5721            %VLP_STATION( FPTN=NCSTA, STCLASS=STATIC);
       25     5748        %INCLUDE K_ADDRESS_M;
       26     6251            %K$ADDRESS;
       27     6404        %INCLUDE K_INTERFACE_M;
       28     6813            %K$FPT_CONNECT_OSI( NAME=TCONFPT, STCLASS=AUTO);
       29     7150            %K$FPT_TERM_OSI( NAME=TDISFPT, STCLASS=AUTO);
       30     7368        %INCLUDE XSS_SESSION_E;
       31     7933        %INCLUDE XSS_SESSION_M;
       32    10576            %XSS$GENERIC( STCLASS="BASED( SFPT$)");
PL6.E3A0      #001=XSS$TSEND File=XSS$COMM.:XSA1TSI                              WED 10/01/97 12:08 Page:14
       33    10722            %XSS$CONNECT( STCLASS="BASED( SFPT$)");
       34    11045        %INCLUDE XSS_INTERNAL_E;
       35    11343        %INCLUDE XSS_INTERNAL_M;
       36    11932            %XSS$GLUE( NAME=GLUE, STCLASS="BASED( GLUE$)");
       37    11962            %XSS$SCTX( NAME=SCTX, STCLASS="BASED( SCTX$)");
       38    12396            %XSS$VBLK( NAME=VBLK, STCLASS=);
       39    12501        %INCLUDE XSC_COMMON_M;
       40    13154            %XSC$ADDRESS;
       41    13437
       42    13438    1       DCL XSS$BUFPTR ENTRY(2) ALTRET;
       43    13439    1       DCL XSS$COMMWAITZ ENTRY(1) ALTRET;
       44    13440    1       DCL XSS$DUMPBYTES ENTRY(3) OPTIONAL;
       45    13441    1       DCL XSS$SCREECH ENTRY(1);
       46    13442    1       DCL XSS$EVLOG ENTRY(2);
       47    13443
       48    13444    1       DCL B$TCB$ PTR SYMREF;
       49    13445    1       DCL XSS_DEBUG UBIN SYMREF;
       50    13446    1       DCL XSS_OTRACE SBIN SYMREF;
       51    13447
       52    13448    1       DCL CREDITING BIT(1);
       53    13449    1       DCL GLUEBUF CHAR(2048) CALIGNED;
       54    13450    1       DCL GLUE_ VECTOR;
       55    13451    1       DCL GLUE$ PTR CALIGNED;
       56    13452    1       DCL SCTX$ PTR;
       57    13453    1       DCL SFPT$ PTR;
       58    13454    1       DCL UADR$ PTR;
       59    13455    1       DCL AUTITLE CHAR(0) CONSTANT INIT( '(XSS$TSEND) AU sent');
       60    13456    1       DCL AUTITLE_ VECTOR CONSTANT INIT( VECTOR( AUTITLE));
       61    13457    1       DCL NCTITLE CHAR(0) CONSTANT INIT( '(XSS$TSEND) NC sent');
       62    13458    1       DCL NCTITLE_ VECTOR CONSTANT INIT( VECTOR( NCTITLE));
       63    13459
       64    13460    1       CREDITING = %FALSE;

  13460  3 000002   200105 450100                    STZ     CREDITING,,AUTO

       65    13461    1       SCTX$ = VBLK.CTX$;

PL6.E3A0      #001=XSS$TSEND File=XSS$COMM.:XSA1TSI                              WED 10/01/97 12:08 Page:15
  13461  3 000003   200003 470500                    LDP0    @VBLK,,AUTO
         3 000004   000000 236100                    LDQ     0,,PR0
         3 000005   201111 756100                    STQ     SCTX$,,AUTO

       66    13462    1   COMMON:
       67    13463    1       GLUE$ = ADDR( GLUEBUF);

  13463  3 000006   200106 630500       COMMON       EPPR0   GLUEBUF,,AUTO
         3 000007   201110 450500                    STP0    GLUE$,,AUTO

       68    13464    1       GLUE_ = VECTOR( GLUEBUF);

  13464  3 000010   000000 235000 4                  LDA     0
         3 000011   201120 452500                    STP2    D$+1,,AUTO
         3 000012   201120 236100                    LDQ     D$+1,,AUTO
         3 000013   000106 036003                    ADLQ    70,DU
         3 000014   201106 757100                    STAQ    GLUE_,,AUTO

       69    13465    1       VBOUND( GLUE_) = 3;  /* this is updated by MOVEBYTES later on */

  13465  3 000015   201106 236100                    LDQ     GLUE_,,AUTO
         3 000016   177777 376007                    ANQ     65535,DL
         3 000017   600000 276007                    ORQ     -65536,DL
         3 000020   201106 756100                    STQ     GLUE_,,AUTO

       70    13466    1       GLUE = '0'B;

  13466  3 000021   000000 450100                    STZ     0,,PR0
         3 000022   000001 450100                    STZ     1,,PR0

       71    13467    1       GLUE.MYSCID = SCTX.SCID;

  13467  3 000023   201111 471500                    LDP1    SCTX$,,AUTO
         3 000024   100015 236100                    LDQ     13,,PR1
         3 000025   000011 736000                    QLS     9
         3 000026   000000 552140                    STBQ    0,'40'O,PR0

PL6.E3A0      #001=XSS$TSEND File=XSS$COMM.:XSA1TSI                              WED 10/01/97 12:08 Page:16
       72    13468    1       GLUE.YRSCID = SCTX.PEERSCID;

  13468  3 000027   100015 236100                    LDQ     13,,PR1
         3 000030   000022 772000                    QRL     18
         3 000031   000000 552110                    STBQ    0,'10'O,PR0

       73    13469    1       GLUE.MAGIC = SCTX.MAGIC;

  13469  3 000032   100015 236100                    LDQ     13,,PR1
         3 000033   000000 552104                    STBQ    0,'04'O,PR0

       74    13470    1       SFPT$ = VBLK.FPT$;

  13470  3 000034   200003 473500                    LDP3    @VBLK,,AUTO
         3 000035   300002 236100                    LDQ     2,,PR3
         3 000036   201112 756100                    STQ     SFPT$,,AUTO

       75    13471    2       IF CREDITING THEN DO;

  13471  3 000037   200105 234100                    SZN     CREDITING,,AUTO
         3 000040   000125 605000 3                  TPL     s:13488

       76    13472                /* Send this credit message by a quicker path */
       77    13473    2   CREDIT:
       78    13474    3           IF SCTX.STATION = 'MONITOR ' THEN DO;

  13474  3 000041   201111 470500       CREDIT       LDP0    SCTX$,,AUTO
         3 000042   040000 106500                    CMPC    fill='040'O
         3 000043   000027 000010                    ADSC9   23,,PR0                  cn=0,n=8
         3 000044   000020 000010 2                  ADSC9   NCTITLE_+2               cn=0,n=8
         3 000045   000124 601000 3                  TNZ     s:13486

       79    13475    3               NCSTA.STATION# = SCTX.STATION;

  13475  3 000046   040000 100500                    MLR     fill='040'O
         3 000047   000027 000010                    ADSC9   23,,PR0                  cn=0,n=8
         3 000050   000031 000010 1                  ADSC9   NCSTA                    cn=0,n=8
PL6.E3A0      #001=XSS$TSEND File=XSS$COMM.:XSA1TSI                              WED 10/01/97 12:08 Page:17

       80    13476    3               SFPT$ = ADDR( NIL);

  13476  3 000051   000001 236000 4                  LDQ     1
         3 000052   201112 756100                    STQ     SFPT$,,AUTO

       81    13477    3               VBOUND( GLUE_) = 3;

  13477  3 000053   201106 236100                    LDQ     GLUE_,,AUTO
         3 000054   177777 376007                    ANQ     65535,DL
         3 000055   600000 276007                    ORQ     -65536,DL
         3 000056   201106 756100                    STQ     GLUE_,,AUTO

       82    13478    3               GLUE.TRNFNC = %K_TCREDIT;

  13478  3 000057   201110 471500                    LDP1    GLUE$,,AUTO
         3 000060   000032 236003                    LDQ     26,DU
         3 000061   100000 552120                    STBQ    0,'20'O,PR1

       83    13479    3               IF XSS_OTRACE ~= 0 THEN

  13479  3 000062   000000 235000 xsym               LDA     XSS_OTRACE
         3 000063   000076 600000 3                  TZE     s:13481

       84    13480    3                   CALL XSS$DUMPBYTES( 0, GLUE_, AUTITLE_);

  13480  3 000064   000004 236000 4                  LDQ     4
         3 000065   201122 756100                    STQ     D$+3,,AUTO
         3 000066   201106 633500                    EPPR3   GLUE_,,AUTO
         3 000067   201121 453500                    STP3    D$+2,,AUTO
         3 000070   000005 236000 4                  LDQ     5
         3 000071   201120 756100                    STQ     D$+1,,AUTO
         3 000072   201120 630500                    EPPR0   D$+1,,AUTO
         3 000073   000002 631400 4                  EPPR1   2
         3 000074   000000 701000 xent               TSX1    XSS$DUMPBYTES
         3 000075   000000 011000                    NOP     0

PL6.E3A0      #001=XSS$TSEND File=XSS$COMM.:XSA1TSI                              WED 10/01/97 12:08 Page:18
       85    13481    3               AUWRT.BUF_ = GLUE_;

  13481  3 000076   201106 237100                    LDAQ    GLUE_,,AUTO
         3 000077   000004 757000 1                  STAQ    AUWRT+4

       86    13482    3               AUWRT.V.DCB# = SCTX.DCB#;

  13482  3 000100   201111 470500                    LDP0    SCTX$,,AUTO
         3 000101   000033 720100                    LXL0    27,,PR0
         3 000102   000010 740000 1                  STX0    AUWRT+8

       87    13483    3               CALL XSS$EVLOG( 'WR', %K_TCREDIT*512 + SCTX.SCID);

  13483  3 000103   000015 236100                    LDQ     13,,PR0
         3 000104   000022 772000                    QRL     18
         3 000105   000777 376007                    ANQ     511,DL
         3 000106   032000 036007                    ADLQ    13312,DL
         3 000107   201120 756100                    STQ     D$+1,,AUTO
         3 000110   201120 631500                    EPPR1   D$+1,,AUTO
         3 000111   201123 451500                    STP1    D$+4,,AUTO
         3 000112   000007 236000 4                  LDQ     7
         3 000113   201122 756100                    STQ     D$+3,,AUTO
         3 000114   201122 630500                    EPPR0   D$+3,,AUTO
         3 000115   000006 631400 4                  EPPR1   6
         3 000116   000000 701000 xent               TSX1    XSS$EVLOG
         3 000117   000000 011000                    NOP     0

       88    13484    3               CALL M$WRITE( AUWRT) ALTRET( WRTERR);

  13484  3 000120   000000 630400 1                  EPPR0   AUWRT
         3 000121   440001 713400                    CLIMB   alt,write
         3 000122   401400 401760                    pmme    nvectors=4
         3 000123   000566 702000 3                  TSX2    WRTERR

       89    13485    3               END;

       90    13486    2           RETURN;
PL6.E3A0      #001=XSS$TSEND File=XSS$COMM.:XSA1TSI                              WED 10/01/97 12:08 Page:19

  13486  3 000124   000000 702200 xent               TSX2  ! X66_ARET

       91    13487    2           END;
       92    13488    2       DO SELECT( VBLK.EVENT);

  13488  3 000125   300001 236100                    LDQ     1,,PR3
         3 000126   000777 376007                    ANQ     511,DL
         3 000127   000037 116007                    CMPQ    31,DL
         3 000130   000151 602000 3                  TNC     s:13488+20
         3 000131   000360 600000 3                  TZE     s:13533
         3 000132   000060 116007                    CMPQ    48,DL
         3 000133   000143 602000 3                  TNC     s:13488+14
         3 000134   000166 600000 3                  TZE     s:13490
         3 000135   000062 116007                    CMPQ    50,DL
         3 000136   000364 602000 3                  TNC     NORMAL
         3 000137   000217 600000 3                  TZE     s:13500
         3 000140   000064 116007                    CMPQ    52,DL
         3 000141   000364 601000 3                  TNZ     NORMAL
         3 000142   000251 710000 3                  TRA     s:13510
         3 000143   000040 116007                    CMPQ    32,DL
         3 000144   000364 602000 3                  TNC     NORMAL
         3 000145   000360 600000 3                  TZE     s:13533
         3 000146   000041 116007                    CMPQ    33,DL
         3 000147   000364 601000 3                  TNZ     NORMAL
         3 000150   000360 710000 3                  TRA     s:13533
         3 000151   000003 116007                    CMPQ    3,DL
         3 000152   000157 602000 3                  TNC     s:13488+26
         3 000153   000331 600000 3                  TZE     s:13523
         3 000154   000024 116007                    CMPQ    20,DL
         3 000155   000364 601000 3                  TNZ     NORMAL
         3 000156   000360 710000 3                  TRA     s:13533
         3 000157   000002 116007                    CMPQ    2,DL
         3 000160   000163 602000 3                  TNC     s:13488+30
         3 000161   000331 600000 3                  TZE     s:13523
         3 000162   000364 710000 3                  TRA     NORMAL
         3 000163   000001 116007                    CMPQ    1,DL
PL6.E3A0      #001=XSS$TSEND File=XSS$COMM.:XSA1TSI                              WED 10/01/97 12:08 Page:20
         3 000164   000364 601000 3                  TNZ     NORMAL
         3 000165   000331 710000 3                  TRA     s:13523

       93    13489    2           SELECT( %XSS_SEV_TCONREQ);

       94    13490    2               SCTX.MODE = %CLIENT;

  13490  3 000166   000001 236007                    LDQ     1,DL
         3 000167   100013 552104                    STBQ    11,'04'O,PR1

       95    13491    2               SCTX.STATION = XSS_AUSTA.STATION#;

  13491  3 000170   040100 100400                    MLR     fill='040'O
         3 000171   000000 000010 xsym               ADSC9   XSS_AUSTA                cn=0,n=8
         3 000172   100027 000010                    ADSC9   23,,PR1                  cn=0,n=8

       96    13492                    /* fill in params for T-CONNECT Request */
       97    13493    2               TCONFPT = '0'B;

  13493  3 000173   000100 100400                    MLR     fill='000'O
         3 000174   000003 000001 4                  ADSC9   3                        cn=0,n=1
         3 000175   200004 000214                    ADSC9   TCONFPT,,AUTO            cn=0,n=140

       98    13494    2               TCONFPT.SCID = GLUE.MYSCID;

  13494  3 000176   000000 236100                    LDQ     0,,PR0
         3 000177   000033 772000                    QRL     27
         3 000200   200011 756100                    STQ     TCONFPT+5,,AUTO

       99    13495    2               CALL ADDRSETUP;

  13495  3 000201   000633 701000 3                  TSX1    ADDRSETUP
         3 000202   000000 011000                    NOP     0

      100    13496    2               GLUE.TRNFNC = %K_TCONNECT_REQ;

  13496  3 000203   201110 470500                    LDP0    GLUE$,,AUTO
PL6.E3A0      #001=XSS$TSEND File=XSS$COMM.:XSA1TSI                              WED 10/01/97 12:08 Page:21
         3 000204   000025 236003                    LDQ     21,DU
         3 000205   000000 552120                    STBQ    0,'20'O,PR0

      101    13497    2               CALL MOVEBYTES( SIZEC( TCONFPT), ADDR( TCONFPT));

  13497  3 000206   200004 631500                    EPPR1   TCONFPT,,AUTO
         3 000207   201124 451500                    STP1    D$+5,,AUTO
         3 000210   201124 633500                    EPPR3   D$+5,,AUTO
         3 000211   201116 453500                    STP3    @LEN+1,,AUTO
         3 000212   000011 236000 4                  LDQ     9
         3 000213   201115 756100                    STQ     UADR$+2,,AUTO
         3 000214   000745 701000 3                  TSX1    MOVEBYTES
         3 000215   000000 011000                    NOP     0
         3 000216   000406 710000 3                  TRA     s:13543

      102    13498    2           SELECT( %XSS_SEV_TCONRSP);

      103    13499                    /* fill in params for T-CONNECT Response */
      104    13500    2               TCONFPT = '0'B;

  13500  3 000217   000100 100400                    MLR     fill='000'O
         3 000220   000003 000001 4                  ADSC9   3                        cn=0,n=1
         3 000221   200004 000214                    ADSC9   TCONFPT,,AUTO            cn=0,n=140

      105    13501                    /*N* Eventually this should echo the T-CONNECT Indication params
      106    13502                         found in the FPT_CONNECT_OSI framed by VBLK.PDU */
      107    13503    2               TCONFPT.SCID = GLUE.MYSCID;

  13503  3 000222   000000 236100                    LDQ     0,,PR0
         3 000223   000033 772000                    QRL     27
         3 000224   200011 756100                    STQ     TCONFPT+5,,AUTO

      108    13504    2               CALL ADDRSETUP;

  13504  3 000225   000633 701000 3                  TSX1    ADDRSETUP
         3 000226   000000 011000                    NOP     0

PL6.E3A0      #001=XSS$TSEND File=XSS$COMM.:XSA1TSI                              WED 10/01/97 12:08 Page:22
      109    13505    2               TCONFPT.TR_FLAGS.EXPEDITED = SCTX.FLAGS.TEXP;

  13505  3 000227   201111 470500                    LDP0    SCTX$,,AUTO
         3 000230   000006 236100                    LDQ     6,,PR0
         3 000231   000013 772000                    QRL     11
         3 000232   200010 676100                    ERQ     TCONFPT+4,,AUTO
         3 000233   000002 376007                    ANQ     2,DL
         3 000234   200010 656100                    ERSQ    TCONFPT+4,,AUTO

      110    13506    2               GLUE.TRNFNC = %K_TCONNECT_RSP;

  13506  3 000235   201110 471500                    LDP1    GLUE$,,AUTO
         3 000236   000026 236003                    LDQ     22,DU
         3 000237   100000 552120                    STBQ    0,'20'O,PR1

      111    13507    2               CALL MOVEBYTES( SIZEC( TCONFPT), ADDR( TCONFPT));

  13507  3 000240   200004 633500                    EPPR3   TCONFPT,,AUTO
         3 000241   201125 453500                    STP3    D$+6,,AUTO
         3 000242   201125 634500                    EPPR4   D$+6,,AUTO
         3 000243   201116 454500                    STP4    @LEN+1,,AUTO
         3 000244   000011 236000 4                  LDQ     9
         3 000245   201115 756100                    STQ     UADR$+2,,AUTO
         3 000246   000745 701000 3                  TSX1    MOVEBYTES
         3 000247   000000 011000                    NOP     0
         3 000250   000406 710000 3                  TRA     s:13543

      112    13508    2           SELECT( %XSS_SEV_TDISREQ);

      113    13509                    /* fill in params for T-DISCONNECT Request */
      114    13510    2               TDISFPT = '0'B;

  13510  3 000251   000100 100400                    MLR     fill='000'O
         3 000252   000003 000001 4                  ADSC9   3                        cn=0,n=1
         3 000253   200047 000170                    ADSC9   TDISFPT,,AUTO            cn=0,n=120

      115    13511    2               TDISFPT.REASON = 0; /*N* ??? */
PL6.E3A0      #001=XSS$TSEND File=XSS$COMM.:XSA1TSI                              WED 10/01/97 12:08 Page:23

  13511  3 000254   200047 450100                    STZ     TDISFPT,,AUTO

      116    13512    2               CALL XSS$BUFPTR( SCTX.SRCX, UADR$);

  13512  3 000255   201113 634500                    EPPR4   UADR$,,AUTO
         3 000256   201121 454500                    STP4    D$+2,,AUTO
         3 000257   201111 236100                    LDQ     SCTX$,,AUTO
         3 000260   000003 036003                    ADLQ    3,DU
         3 000261   201120 756100                    STQ     D$+1,,AUTO
         3 000262   201120 630500                    EPPR0   D$+1,,AUTO
         3 000263   000006 631400 4                  EPPR1   6
         3 000264   000000 701000 xent               TSX1    XSS$BUFPTR
         3 000265   000000 011000                    NOP     0

      117    13513    2               TDISFPT.SRC_TSAP = UADR$->XSC$ADDRESS.TSAP;

  13513  3 000266   201113 470500                    LDP0    UADR$,,AUTO
         3 000267   000100 100500                    MLR     fill='000'O
         3 000270   000075 000042                    ADSC9   61,,PR0                  cn=0,n=34
         3 000271   200050 000042                    ADSC9   TDISFPT+1,,AUTO          cn=0,n=34

      118    13514    2               TDISFPT.SRC_NSAP = UADR$->XSC$ADDRESS.NSAP;

  13514  3 000272   000100 100500                    MLR     fill='000'O
         3 000273   000106 000026                    ADSC9   70,,PR0                  cn=0,n=22
         3 000274   200072 000026                    ADSC9   TDISFPT+19,,AUTO         cn=0,n=22

      119    13515    2               CALL XSS$BUFPTR( SCTX.DSTX, UADR$);

  13515  3 000275   201113 631500                    EPPR1   UADR$,,AUTO
         3 000276   201121 451500                    STP1    D$+2,,AUTO
         3 000277   201111 236100                    LDQ     SCTX$,,AUTO
         3 000300   000012 036000 4                  ADLQ    10
         3 000301   201120 756100                    STQ     D$+1,,AUTO
         3 000302   201120 630500                    EPPR0   D$+1,,AUTO
         3 000303   000006 631400 4                  EPPR1   6
PL6.E3A0      #001=XSS$TSEND File=XSS$COMM.:XSA1TSI                              WED 10/01/97 12:08 Page:24
         3 000304   000000 701000 xent               TSX1    XSS$BUFPTR
         3 000305   000000 011000                    NOP     0

      120    13516    2               TDISFPT.DST_TSAP = UADR$->XSC$ADDRESS.TSAP;

  13516  3 000306   201113 470500                    LDP0    UADR$,,AUTO
         3 000307   000100 100500                    MLR     fill='000'O
         3 000310   000075 000042                    ADSC9   61,,PR0                  cn=0,n=34
         3 000311   200061 000042                    ADSC9   TDISFPT+10,,AUTO         cn=0,n=34

      121    13517    2               TDISFPT.DST_NSAP = UADR$->XSC$ADDRESS.NSAP;

  13517  3 000312   000100 100500                    MLR     fill='000'O
         3 000313   000106 000026                    ADSC9   70,,PR0                  cn=0,n=22
         3 000314   200077 400026                    ADSC9   TDISFPT+24,,AUTO         cn=2,n=22

      122    13518    2               GLUE.TRNFNC = %K_TDISCONNECT_REQ;

  13518  3 000315   201110 471500                    LDP1    GLUE$,,AUTO
         3 000316   000031 236003                    LDQ     25,DU
         3 000317   100000 552120                    STBQ    0,'20'O,PR1

      123    13519    2               CALL MOVEBYTES( SIZEC( TDISFPT), ADDR( TDISFPT));

  13519  3 000320   200047 630500                    EPPR0   TDISFPT,,AUTO
         3 000321   201126 450500                    STP0    D$+7,,AUTO
         3 000322   201126 633500                    EPPR3   D$+7,,AUTO
         3 000323   201116 453500                    STP3    @LEN+1,,AUTO
         3 000324   000014 236000 4                  LDQ     12
         3 000325   201115 756100                    STQ     UADR$+2,,AUTO
         3 000326   000745 701000 3                  TSX1    MOVEBYTES
         3 000327   000000 011000                    NOP     0
         3 000330   000406 710000 3                  TRA     s:13543

      124    13520    2           SELECT( %XSS_SEV_AB_NR,

      125    13521    2                   %XSS_SEV_AB_R,
PL6.E3A0      #001=XSS$TSEND File=XSS$COMM.:XSA1TSI                              WED 10/01/97 12:08 Page:25
      126    13522    2                   %XSS_SEV_AA);
      127    13523    2               IF NOT SCTX.FLAGS.TEXP THEN

  13523  3 000331   100006 236100                    LDQ     6,,PR1
         3 000332   010000 316007                    CANQ    4096,DL
         3 000333   000364 600000 3                  TZE     NORMAL

      128    13524    2                   GOTO NORMAL;
      129    13525    2   EXPEDITED:
      130    13526    2               GLUE.TRNFNC = %K_TEXPD_DATA_REQ;

  13526  3 000334   201110 470500       EXPEDITED    LDP0    GLUE$,,AUTO
         3 000335   000030 236003                    LDQ     24,DU
         3 000336   000000 552120                    STBQ    0,'20'O,PR0

      131    13527    2               CALL MOVEBYTES( VBLK.PDU.SIZE, VBLK.PDU.PTR$);

  13527  3 000337   200003 236100                    LDQ     @VBLK,,AUTO
         3 000340   000004 036003                    ADLQ    4,DU
         3 000341   201116 756100                    STQ     @LEN+1,,AUTO
         3 000342   200003 236100                    LDQ     @VBLK,,AUTO
         3 000343   000005 036003                    ADLQ    5,DU
         3 000344   201115 756100                    STQ     UADR$+2,,AUTO
         3 000345   000745 701000 3                  TSX1    MOVEBYTES
         3 000346   000000 011000                    NOP     0

      132    13528    2               CALL MOVEBYTES( VBLK.DAT.SIZE, VBLK.DAT.PTR$);

  13528  3 000347   200003 236100                    LDQ     @VBLK,,AUTO
         3 000350   000006 036003                    ADLQ    6,DU
         3 000351   201116 756100                    STQ     @LEN+1,,AUTO
         3 000352   200003 236100                    LDQ     @VBLK,,AUTO
         3 000353   000007 036003                    ADLQ    7,DU
         3 000354   201115 756100                    STQ     UADR$+2,,AUTO
         3 000355   000745 701000 3                  TSX1    MOVEBYTES
         3 000356   000000 011000                    NOP     0
         3 000357   000406 710000 3                  TRA     s:13543
PL6.E3A0      #001=XSS$TSEND File=XSS$COMM.:XSA1TSI                              WED 10/01/97 12:08 Page:26

      133    13529    2           SELECT( %XSS_SEV_EX,

      134    13530    2                   %XSS_SEV_PR_MAA,
      135    13531    2                   %XSS_SEV_PR_RA,
      136    13532    2                   %XSS_SEV_PR_RS);
      137    13533    2               IF SCTX.FLAGS.TEXP THEN

  13533  3 000360   100006 236100                    LDQ     6,,PR1
         3 000361   010000 316007                    CANQ    4096,DL
         3 000362   000334 601000 3                  TNZ     EXPEDITED

      138    13534    2                   GOTO EXPEDITED;
      139    13535    2               RETURN;  /* don't send this PDU! */

  13535  3 000363   000000 702200 xent               TSX2  ! X66_ARET

      140    13536    2           SELECT( ELSE);

      141    13537    2   NORMAL:
      142    13538    2               GLUE.TRNFNC = %K_TDATA_REQ;

  13538  3 000364   000027 236003       NORMAL       LDQ     23,DU
         3 000365   000000 552120                    STBQ    0,'20'O,PR0

      143    13539    2               CALL MOVEBYTES( VBLK.PDU.SIZE, VBLK.PDU.PTR$);

  13539  3 000366   200003 236100                    LDQ     @VBLK,,AUTO
         3 000367   000004 036003                    ADLQ    4,DU
         3 000370   201116 756100                    STQ     @LEN+1,,AUTO
         3 000371   200003 236100                    LDQ     @VBLK,,AUTO
         3 000372   000005 036003                    ADLQ    5,DU
         3 000373   201115 756100                    STQ     UADR$+2,,AUTO
         3 000374   000745 701000 3                  TSX1    MOVEBYTES
         3 000375   000000 011000                    NOP     0

      144    13540    2               CALL MOVEBYTES( VBLK.DAT.SIZE, VBLK.DAT.PTR$);
PL6.E3A0      #001=XSS$TSEND File=XSS$COMM.:XSA1TSI                              WED 10/01/97 12:08 Page:27

  13540  3 000376   200003 236100                    LDQ     @VBLK,,AUTO
         3 000377   000006 036003                    ADLQ    6,DU
         3 000400   201116 756100                    STQ     @LEN+1,,AUTO
         3 000401   200003 236100                    LDQ     @VBLK,,AUTO
         3 000402   000007 036003                    ADLQ    7,DU
         3 000403   201115 756100                    STQ     UADR$+2,,AUTO
         3 000404   000745 701000 3                  TSX1    MOVEBYTES
         3 000405   000000 011000                    NOP     0

      145    13541    2           END;

      146    13542            /* switch on whether AU or NC DCB */
      147    13543    2       DO CASE( SCTX.MODE);

  13543  3 000406   201111 470500                    LDP0    SCTX$,,AUTO
         3 000407   000013 720100                    LXL0    11,,PR0
         3 000410   000777 360003                    ANX0    511,DU
         3 000411   000003 100003                    CMPX0   3,DU
         3 000412   000414 602010 3                  TNC     s:13543+6,X0
         3 000413   000565 710000 3                  TRA     s:13568
         3 000414   000565 710000 3                  TRA     s:13568
         3 000415   000417 710000 3                  TRA     s:13545
         3 000416   000506 710000 3                  TRA     s:13558

      148    13544    2           CASE( %CLIENT);

      149    13545    2               IF XSS_OTRACE ~= 0 THEN

  13545  3 000417   000000 235000 xsym               LDA     XSS_OTRACE
         3 000420   000433 600000 3                  TZE     s:13547

      150    13546    2                   CALL XSS$DUMPBYTES( 0, GLUE_, NCTITLE_);

  13546  3 000421   000015 236000 4                  LDQ     13
         3 000422   201122 756100                    STQ     D$+3,,AUTO
         3 000423   201106 631500                    EPPR1   GLUE_,,AUTO
PL6.E3A0      #001=XSS$TSEND File=XSS$COMM.:XSA1TSI                              WED 10/01/97 12:08 Page:28
         3 000424   201121 451500                    STP1    D$+2,,AUTO
         3 000425   000005 236000 4                  LDQ     5
         3 000426   201120 756100                    STQ     D$+1,,AUTO
         3 000427   201120 630500                    EPPR0   D$+1,,AUTO
         3 000430   000002 631400 4                  EPPR1   2
         3 000431   000000 701000 xent               TSX1    XSS$DUMPBYTES
         3 000432   000000 011000                    NOP     0

      151    13547    2               NCWRT.BUF_ = GLUE_;

  13547  3 000433   201106 237100                    LDAQ    GLUE_,,AUTO
         3 000434   000020 757000 1                  STAQ    NCWRT+4

      152    13548    2               IF XSS_DEBUG ~= 0 THEN

  13548  3 000435   000000 235000 xsym               LDA     XSS_DEBUG
         3 000436   000442 600000 3                  TZE     s:13551

      153    13549    2                   NCWRT.STATION_ = VECTOR( XSS_AUSTA);

  13549  3 000437   000016 237000 4                  LDAQ    14
         3 000440   000022 757000 1                  STAQ    NCWRT+6
         3 000441   000444 710000 3                  TRA     s:13552

      154    13550    2               ELSE
      155    13551    2                   NCWRT.STATION_ = VECTOR( NIL);

  13551  3 000442   000020 237000 4                  LDAQ    16
         3 000443   000022 757000 1                  STAQ    NCWRT+6

      156    13552    2               NCWRT.V.DCB# = SCTX.DCB#;

  13552  3 000444   201111 470500                    LDP0    SCTX$,,AUTO
         3 000445   000033 720100                    LXL0    27,,PR0
         3 000446   000024 740000 1                  STX0    NCWRT+8

      157    13553    2               CALL XSS$EVLOG( 'WR', GLUE.TRNFNC*512 + SCTX.SCID);
PL6.E3A0      #001=XSS$TSEND File=XSS$COMM.:XSA1TSI                              WED 10/01/97 12:08 Page:29

  13553  3 000447   000015 236100                    LDQ     13,,PR0
         3 000450   000022 772000                    QRL     18
         3 000451   000777 376007                    ANQ     511,DL
         3 000452   201120 756100                    STQ     D$+1,,AUTO
         3 000453   201110 471500                    LDP1    GLUE$,,AUTO
         3 000454   100000 236100                    LDQ     0,,PR1
         3 000455   000011 772000                    QRL     9
         3 000456   777000 376007                    ANQ     -512,DL
         3 000457   201120 036100                    ADLQ    D$+1,,AUTO
         3 000460   201121 756100                    STQ     D$+2,,AUTO
         3 000461   201121 633500                    EPPR3   D$+2,,AUTO
         3 000462   201123 453500                    STP3    D$+4,,AUTO
         3 000463   000007 236000 4                  LDQ     7
         3 000464   201122 756100                    STQ     D$+3,,AUTO
         3 000465   201122 630500                    EPPR0   D$+3,,AUTO
         3 000466   000006 631400 4                  EPPR1   6
         3 000467   000000 701000 xent               TSX1    XSS$EVLOG
         3 000470   000000 011000                    NOP     0

      158    13554    2               CALL M$WRITE( NCWRT) ALTRET( WRTERR);

  13554  3 000471   000014 630400 1                  EPPR0   NCWRT
         3 000472   440001 713400                    CLIMB   alt,write
         3 000473   401400 401760                    pmme    nvectors=4
         3 000474   000566 702000 3                  TSX2    WRTERR

      159    13555    2               IF SCTX.NEEDAREAD THEN

  13555  3 000475   201111 470500                    LDP0    SCTX$,,AUTO
         3 000476   000013 236100                    LDQ     11,,PR0
         3 000477   004000 316007                    CANQ    2048,DL
         3 000500   000565 600000 3                  TZE     s:13568

      160    13556    2                   CALL XSS$COMMWAITZ( SCTX);

  13556  3 000501   201111 630500                    EPPR0   SCTX$,,AUTO
PL6.E3A0      #001=XSS$TSEND File=XSS$COMM.:XSA1TSI                              WED 10/01/97 12:08 Page:30
         3 000502   000022 631400 4                  EPPR1   18
         3 000503   000000 701000 xent               TSX1    XSS$COMMWAITZ
         3 000504   000000 011000                    NOP     0
         3 000505   000565 710000 3                  TRA     s:13568

      161    13557    2           CASE( %SERVER);

      162    13558    2               IF XSS_OTRACE ~= 0 THEN

  13558  3 000506   000000 235000 xsym               LDA     XSS_OTRACE
         3 000507   000522 600000 3                  TZE     s:13560

      163    13559    2                   CALL XSS$DUMPBYTES( 0, GLUE_, AUTITLE_);

  13559  3 000510   000004 236000 4                  LDQ     4
         3 000511   201122 756100                    STQ     D$+3,,AUTO
         3 000512   201106 631500                    EPPR1   GLUE_,,AUTO
         3 000513   201121 451500                    STP1    D$+2,,AUTO
         3 000514   000005 236000 4                  LDQ     5
         3 000515   201120 756100                    STQ     D$+1,,AUTO
         3 000516   201120 630500                    EPPR0   D$+1,,AUTO
         3 000517   000002 631400 4                  EPPR1   2
         3 000520   000000 701000 xent               TSX1    XSS$DUMPBYTES
         3 000521   000000 011000                    NOP     0

      164    13560    2               AUWRT.BUF_ = GLUE_;

  13560  3 000522   201106 237100                    LDAQ    GLUE_,,AUTO
         3 000523   000004 757000 1                  STAQ    AUWRT+4

      165    13561    2               NCSTA.STATION# = SCTX.STATION;

  13561  3 000524   201111 470500                    LDP0    SCTX$,,AUTO
         3 000525   040000 100500                    MLR     fill='040'O
         3 000526   000027 000010                    ADSC9   23,,PR0                  cn=0,n=8
         3 000527   000031 000010 1                  ADSC9   NCSTA                    cn=0,n=8

PL6.E3A0      #001=XSS$TSEND File=XSS$COMM.:XSA1TSI                              WED 10/01/97 12:08 Page:31
      166    13562    2               AUWRT.V.DCB# = SCTX.DCB#;

  13562  3 000530   000033 720100                    LXL0    27,,PR0
         3 000531   000010 740000 1                  STX0    AUWRT+8

      167    13563    2               CALL XSS$EVLOG( 'WR', GLUE.TRNFNC*512 + SCTX.SCID);

  13563  3 000532   000015 236100                    LDQ     13,,PR0
         3 000533   000022 772000                    QRL     18
         3 000534   000777 376007                    ANQ     511,DL
         3 000535   201120 756100                    STQ     D$+1,,AUTO
         3 000536   201110 471500                    LDP1    GLUE$,,AUTO
         3 000537   100000 236100                    LDQ     0,,PR1
         3 000540   000011 772000                    QRL     9
         3 000541   777000 376007                    ANQ     -512,DL
         3 000542   201120 036100                    ADLQ    D$+1,,AUTO
         3 000543   201121 756100                    STQ     D$+2,,AUTO
         3 000544   201121 633500                    EPPR3   D$+2,,AUTO
         3 000545   201123 453500                    STP3    D$+4,,AUTO
         3 000546   000007 236000 4                  LDQ     7
         3 000547   201122 756100                    STQ     D$+3,,AUTO
         3 000550   201122 630500                    EPPR0   D$+3,,AUTO
         3 000551   000006 631400 4                  EPPR1   6
         3 000552   000000 701000 xent               TSX1    XSS$EVLOG
         3 000553   000000 011000                    NOP     0

      168    13564    2               CALL M$WRITE( AUWRT) ALTRET( WRTERR);

  13564  3 000554   000000 630400 1                  EPPR0   AUWRT
         3 000555   440001 713400                    CLIMB   alt,write
         3 000556   401400 401760                    pmme    nvectors=4
         3 000557   000566 702000 3                  TSX2    WRTERR

      169    13565    2               IF GLUE.TRNFNC = %K_TCONNECT_RSP THEN

  13565  3 000560   201110 470500                    LDP0    GLUE$,,AUTO
         3 000561   000000 236100                    LDQ     0,,PR0
PL6.E3A0      #001=XSS$TSEND File=XSS$COMM.:XSA1TSI                              WED 10/01/97 12:08 Page:32
         3 000562   000777 376003                    ANQ     511,DU
         3 000563   000026 116003                    CMPQ    22,DU
         3 000564   000041 600000 3                  TZE     CREDIT

      170    13566    2                   GOTO CREDIT;
      171    13567    2           END;

      172    13568    1       RETURN;

  13568  3 000565   000000 702200 xent               TSX2  ! X66_ARET

      173    13569    1   WRTERR:
      174    13570    1       ERRCODE = B$TCB$->B$TCB.ALT$->B$ALT.ERR;

  13570  3 000566   000000 470400 xsym  WRTERR       LDP0    B$TCB$
         3 000567   000000 471500                    LDP1    0,,PR0
         3 000570   100102 236100                    LDQ     66,,PR1
         3 000571   000030 756000 1                  STQ     ERRCODE

      175    13571    1       CALL XSS$EVLOG( 'ER', SCTX.SCID);

  13571  3 000572   201111 236100                    LDQ     SCTX$,,AUTO
         3 000573   000023 036000 4                  ADLQ    19
         3 000574   000024 235000 4                  LDA     20
         3 000575   201120 757100                    STAQ    D$+1,,AUTO
         3 000576   201120 630500                    EPPR0   D$+1,,AUTO
         3 000577   000006 631400 4                  EPPR1   6
         3 000600   000000 701000 xent               TSX1    XSS$EVLOG
         3 000601   000000 011000                    NOP     0

      176    13572    1       CALL XSS$EVLOG( , ERRCODE);

  13572  3 000602   000025 236000 4                  LDQ     21
         3 000603   000001 235000 4                  LDA     1
         3 000604   201120 757100                    STAQ    D$+1,,AUTO
         3 000605   201120 630500                    EPPR0   D$+1,,AUTO
         3 000606   000006 631400 4                  EPPR1   6
PL6.E3A0      #001=XSS$TSEND File=XSS$COMM.:XSA1TSI                              WED 10/01/97 12:08 Page:33
         3 000607   000000 701000 xent               TSX1    XSS$EVLOG
         3 000610   000000 011000                    NOP     0

      177    13573    2       IF SFPT$ = ADDR( NIL) THEN DO;

  13573  3 000611   201112 236100                    LDQ     SFPT$,,AUTO
         3 000612   000001 116000 4                  CMPQ    1
         3 000613   000627 601000 3                  TNZ     s:13579

      178    13574    2           IF ERRCODE.SEV = 0 THEN

  13574  3 000614   000030 236000 1                  LDQ     ERRCODE
         3 000615   000007 316007                    CANQ    7,DL
         3 000616   000622 601000 3                  TNZ     s:13576

      179    13575    2               ERRCODE.SEV = 1;

  13575  3 000617   000026 376000 4                  ANQ     22
         3 000620   000001 276007                    ORQ     1,DL
         3 000621   000030 756000 1                  STQ     ERRCODE

      180    13576    2           CALL XSS$SCREECH( ERRCODE);

  13576  3 000622   000025 630400 4                  EPPR0   21
         3 000623   000022 631400 4                  EPPR1   18
         3 000624   000000 701000 xent               TSX1    XSS$SCREECH
         3 000625   000000 011000                    NOP     0

      181    13577    2           END;

  13577  3 000626   000632 710000 3                  TRA     s:13581

      182    13578    1       ELSE
      183    13579    1           XSS$GENERIC.ERROR = ERRCODE;

  13579  3 000627   000030 236000 1                  LDQ     ERRCODE
         3 000630   201112 470500                    LDP0    SFPT$,,AUTO
PL6.E3A0      #001=XSS$TSEND File=XSS$COMM.:XSA1TSI                              WED 10/01/97 12:08 Page:34
         3 000631   000001 756100                    STQ     1,,PR0

      184    13580            /* Caller sets SCTX.ABORTING which simulates T-DISCONNECT Indication */
      185    13581    1       ALTRETURN;

  13581  3 000632   000000 702200 xent               TSX2  ! X66_AALT

      186    13582        %EJECT;
PL6.E3A0      #001=XSS$TSEND File=XSS$COMM.:XSA1TSI                              WED 10/01/97 12:08 Page:35
      187    13583    1   ADDRSETUP: PROC;

  13583  3 000633   201114 741300       ADDRSETUP    STX1  ! UADR$+1,,AUTO

      188    13584
      189    13585        %XSC$CCB( NAME=CCB, STCLASS="BASED( CCB$)");
      190    13882
      191    13883    2       DCL XSS_CCB$$ PTR SYMREF;
      192    13884
      193    13885    2       DCL CCB$$(0:0) PTR BASED( XSS_CCB$$) ALIGNED;
      194    13886    2       DCL CCB$ PTR;
      195    13887
      196    13888    2       CCB$ = CCB$$( SCTX.SCID);

  13888  3 000634   201111 470500                    LDP0    SCTX$,,AUTO
         3 000635   000015 220100                    LDX0    13,,PR0
         3 000636   000777 360003                    ANX0    511,DU
         3 000637   000000 471400 xsym               LDP1    XSS_CCB$$
         3 000640   100000 236110                    LDQ     0,X0,PR1
         3 000641   201115 756100                    STQ     CCB$,,AUTO

      197    13889    2       TCONFPT.TPDUSIZE = CCB.TPARMS.TPDUSIZE;

  13889  3 000642   201115 473500                    LDP3    CCB$,,AUTO
         3 000643   300002 222100                    LDX2    2,,PR3
         3 000644   200006 742100                    STX2    TCONFPT+2,,AUTO

      198    13890    2       TCONFPT.WINDOWSZ = CCB.TPARMS.WINDOWSZ;

  13890  3 000645   300002 723100                    LXL3    2,,PR3
         3 000646   200006 443100                    SXL3    TCONFPT+2,,AUTO

      199    13891    2       TCONFPT.TIMER1 = CCB.TPARMS.TIMER1;

  13891  3 000647   300003 224100                    LDX4    3,,PR3
         3 000650   200007 744100                    STX4    TCONFPT+3,,AUTO

PL6.E3A0      #001=XSS$TSEND File=XSS$COMM.:XSA1TSI                              WED 10/01/97 12:08 Page:36
      200    13892    2       TCONFPT.TIMER2 = CCB.TPARMS.TIMER2;

  13892  3 000651   300003 725100                    LXL5    3,,PR3
         3 000652   200007 445100                    SXL5    TCONFPT+3,,AUTO

      201    13893    2       TCONFPT.QOS = CCB.TPARMS.QOS;

  13893  3 000653   300004 236100                    LDQ     4,,PR3
         3 000654   200010 552140                    STBQ    TCONFPT+4,'40'O,AUTO

      202    13894    2       TCONFPT.CLASS = CCB.TPARMS.CLASS;

  13894  3 000655   300004 236100                    LDQ     4,,PR3
         3 000656   200010 552120                    STBQ    TCONFPT+4,'20'O,AUTO

      203    13895    2       TCONFPT.TR_FLAGS = CCB.TPARMS.TR_FLAGS;

  13895  3 000657   300004 726100                    LXL6    4,,PR3
         3 000660   200010 446100                    SXL6    TCONFPT+4,,AUTO

      204    13896    2       IF VBLK.EVENT = %XSS_SEV_TCONREQ THEN

  13896  3 000661   200003 474500                    LDP4    @VBLK,,AUTO
         3 000662   400001 236100                    LDQ     1,,PR4
         3 000663   000777 376007                    ANQ     511,DL
         3 000664   000060 116007                    CMPQ    48,DL
         3 000665   000703 601000 3                  TNZ     s:13898

      205    13897    2           TCONFPT.TR_FLAGS.EXPEDITED = XSS$CONNECT.SFU.EX | CCB.TPARMS.TR_FLAGS.
             13897                    EXPEDITED;

  13897  3 000666   300004 236100                    LDQ     4,,PR3
         3 000667   000042 736000                    QLS     34
         3 000670   400000 376003                    ANQ     -131072,DU
         3 000671   201120 756100                    STQ     D$+1,,AUTO
         3 000672   201112 475500                    LDP5    SFPT$,,AUTO
         3 000673   500010 236100                    LDQ     8,,PR5
PL6.E3A0      #001=XSS$TSEND File=XSS$COMM.:XSA1TSI                              WED 10/01/97 12:08 Page:37
         3 000674   000037 736000                    QLS     31
         3 000675   400000 376003                    ANQ     -131072,DU
         3 000676   201120 276100                    ORQ     D$+1,,AUTO
         3 000677   000042 772000                    QRL     34
         3 000700   200010 676100                    ERQ     TCONFPT+4,,AUTO
         3 000701   000002 376007                    ANQ     2,DL
         3 000702   200010 656100                    ERSQ    TCONFPT+4,,AUTO

      206    13898    2       CALL XSS$BUFPTR( SCTX.SRCX, UADR$);

  13898  3 000703   201113 635500                    EPPR5   UADR$,,AUTO
         3 000704   201121 455500                    STP5    D$+2,,AUTO
         3 000705   201111 236100                    LDQ     SCTX$,,AUTO
         3 000706   000003 036003                    ADLQ    3,DU
         3 000707   201120 756100                    STQ     D$+1,,AUTO
         3 000710   201120 630500                    EPPR0   D$+1,,AUTO
         3 000711   000006 631400 4                  EPPR1   6
         3 000712   000000 701000 xent               TSX1    XSS$BUFPTR
         3 000713   000000 011000                    NOP     0

      207    13899    2       TCONFPT.SRC_TSAP = UADR$->XSC$ADDRESS.TSAP;

  13899  3 000714   201113 470500                    LDP0    UADR$,,AUTO
         3 000715   000100 100500                    MLR     fill='000'O
         3 000716   000075 000042                    ADSC9   61,,PR0                  cn=0,n=34
         3 000717   200012 000042                    ADSC9   TCONFPT+6,,AUTO          cn=0,n=34

      208    13900    2       TCONFPT.SRC_NSAP = UADR$->XSC$ADDRESS.NSAP;

  13900  3 000720   000100 100500                    MLR     fill='000'O
         3 000721   000106 000026                    ADSC9   70,,PR0                  cn=0,n=22
         3 000722   200034 000026                    ADSC9   TCONFPT+24,,AUTO         cn=0,n=22

      209    13901    2       CALL XSS$BUFPTR( SCTX.DSTX, UADR$);

  13901  3 000723   201113 631500                    EPPR1   UADR$,,AUTO
         3 000724   201121 451500                    STP1    D$+2,,AUTO
PL6.E3A0      #001=XSS$TSEND File=XSS$COMM.:XSA1TSI                              WED 10/01/97 12:08 Page:38
         3 000725   201111 236100                    LDQ     SCTX$,,AUTO
         3 000726   000012 036000 4                  ADLQ    10
         3 000727   201120 756100                    STQ     D$+1,,AUTO
         3 000730   201120 630500                    EPPR0   D$+1,,AUTO
         3 000731   000006 631400 4                  EPPR1   6
         3 000732   000000 701000 xent               TSX1    XSS$BUFPTR
         3 000733   000000 011000                    NOP     0

      210    13902    2       TCONFPT.DST_TSAP = UADR$->XSC$ADDRESS.TSAP;

  13902  3 000734   201113 470500                    LDP0    UADR$,,AUTO
         3 000735   000100 100500                    MLR     fill='000'O
         3 000736   000075 000042                    ADSC9   61,,PR0                  cn=0,n=34
         3 000737   200023 000042                    ADSC9   TCONFPT+15,,AUTO         cn=0,n=34

      211    13903    2       TCONFPT.DST_NSAP = UADR$->XSC$ADDRESS.NSAP;

  13903  3 000740   000100 100500                    MLR     fill='000'O
         3 000741   000106 000026                    ADSC9   70,,PR0                  cn=0,n=22
         3 000742   200041 400026                    ADSC9   TCONFPT+29,,AUTO         cn=2,n=22

      212    13904    2       RETURN;

  13904  3 000743   201114 221300                    LDX1  ! UADR$+1,,AUTO
         3 000744   000001 702211                    TSX2  ! 1,X1

      213    13905
      214    13906    2       END ADDRSETUP;
      215    13907        %EJECT;
PL6.E3A0      #001=XSS$TSEND File=XSS$COMM.:XSA1TSI                              WED 10/01/97 12:08 Page:39
      216    13908    1   MOVEBYTES: PROC( LEN, S$);

  13908  3 000745   201114 741300       MOVEBYTES    STX1  ! UADR$+1,,AUTO

      217    13909    2       DCL DESTINATION CHAR( LEN) BASED( D$) CALIGNED;
      218    13910    2       DCL D$ PTR CALIGNED;
      219    13911    2       DCL LEN SBIN;
      220    13912    2       DCL SOURCE CHAR( LEN) BASED( S$) CALIGNED;
      221    13913    2       DCL S$ PTR CALIGNED;
      222    13914
      223    13915    3       IF LEN > 0 THEN DO;

  13915  3 000746   201115 470500                    LDP0    @LEN,,AUTO
         3 000747   000000 235100                    LDA     0,,PR0
         3 000750   001003 604400 3                  TMOZ    s:13920

      224    13916    3           D$ = PINCRC( VBASE( GLUE_), 1 + VBOUND( GLUE_));

  13916  3 000751   201106 236100                    LDQ     GLUE_,,AUTO
         3 000752   000020 772000                    QRL     16
         3 000753   000020 736000                    QLS     16
         3 000754   200000 036007                    ADLQ    65536,DL
         3 000755   201107 036100                    ADLQ    GLUE_+1,,AUTO
         3 000756   201117 756100                    STQ     D$,,AUTO

      225    13917    3           CALL INSERT( DESTINATION, 0, LEN, SOURCE);

  13917  3 000757   000000 720100                    LXL0    0,,PR0
         3 000760   201116 471500                    LDP1    @S$,,AUTO
         3 000761   000100 100500                    MLR     fill='000'O
         3 000762   100000 000004                    ADSC9   0,,PR1                   cn=0,n=4
         3 000763   201120 000004                    ADSC9   D$+1,,AUTO               cn=0,n=4
         3 000764   201120 473500                    LDP3    D$+1,,AUTO
         3 000765   000000 722100                    LXL2    0,,PR0
         3 000766   201121 742100                    STX2    D$+2,,AUTO
         3 000767   201121 220100                    LDX0    D$+2,,AUTO
         3 000770   201117 474500                    LDP4    D$,,AUTO
PL6.E3A0      #001=XSS$TSEND File=XSS$COMM.:XSA1TSI                              WED 10/01/97 12:08 Page:40
         3 000771   040140 100540                    MLR     fill='040'O
         3 000772   300000 000010                    ADSC9   0,,PR3                   cn=0,n=*X0
         3 000773   400000 000012                    ADSC9   0,,PR4                   cn=0,n=*X2

      226    13918    3           VBOUND( GLUE_) = LEN + VBOUND( GLUE_);

  13918  3 000774   201106 236100                    LDQ     GLUE_,,AUTO
         3 000775   000020 772000                    QRL     16
         3 000776   000000 036100                    ADLQ    0,,PR0
         3 000777   000020 736000                    QLS     16
         3 001000   201106 676100                    ERQ     GLUE_,,AUTO
         3 001001   000027 376000 4                  ANQ     23
         3 001002   201106 656100                    ERSQ    GLUE_,,AUTO

      227    13919    3           END;

      228    13920    2       RETURN;

  13920  3 001003   201114 221300                    LDX1  ! UADR$+1,,AUTO
         3 001004   000001 702211                    TSX2  ! 1,X1

      229    13921
      230    13922    2       END MOVEBYTES;
      231    13923        %EJECT;
PL6.E3A0      #001=XSS$TSEND File=XSS$COMM.:XSA1TSI                              WED 10/01/97 12:08 Page:41
      232    13924        /*F*    NAME:   XSS$TCREDIT
      233    13925                PURPOSE:
      234    13926                    This routine is called whenever an M$READ is issued by a server
      235    13927                    endpoint.  It sends a short message to the Transport layer
      236    13928                    incrementing the credits for a particular connection.
      237    13929        */
      238    13930    1   XSS$TCREDIT: ENTRY( VBLK) ALTRET;

  13930  3 001005   000000 700200 xent  XSS$TCREDIT  TSX0  ! X66_AUTO_1
         3 001006   001130 000001                    ZERO    600,1

      239    13931
      240    13932    1       CREDITING = %TRUE;

  13932  3 001007   400000 236003                    LDQ     -131072,DU
         3 001010   200105 756100                    STQ     CREDITING,,AUTO

      241    13933    1       SCTX$ = ADDR( VBLK);  /* SCTX is passed as param, not VBLK */

  13933  3 001011   200003 236100                    LDQ     @VBLK,,AUTO
         3 001012   201111 756100                    STQ     SCTX$,,AUTO

      242    13934    1       GOTO COMMON;

  13934  3 001013   000006 710000 3                  TRA     COMMON

AUWRT
 Sect OctLoc
   1     000   000003 777640   000010 006000   000000 177640   000000 006014    ................
   1     004   000000 177640   000000 006014   000007 777640   000031 006000    ................
   1     010   000000 400400   000000 000000   000000 000000   020000 000000    ................

NCWRT
 Sect OctLoc
   1     014   000003 777640   000024 006000   000000 177640   000000 006014    ................
   1     020   000000 177640   000000 006014   000007 777640   000000 006000    ................
   1     024   000000 400400   000000 000000   000000 000000   020000 000000    ................
PL6.E3A0      #001=XSS$TSEND File=XSS$COMM.:XSA1TSI                              WED 10/01/97 12:08 Page:42

ERRCODE
 Sect OctLoc
   1     030   000000 000000                                                    ....

NCSTA
 Sect OctLoc
   1     031   040040 040040   040040 040040   040040 040040   040040 040040
   1     035   001000 000000   000000 000000   000000 000000   000000 000000    ................

AUTITLE
 Sect OctLoc
   2     000   050130 123123   044124 123105   116104 051040   101125 040163    (XSS$TSEND) AU s
   2     004   145156 164***                                                    ent.

(unnamed)
 Sect OctLoc
   2     006   000004 577640   000000 006000                                    ........

NCTITLE
 Sect OctLoc
   2     010   050130 123123   044124 123105   116104 051040   116103 040163    (XSS$TSEND) NC s
   2     014   145156 164***                                                    ent.

(unnamed)
 Sect OctLoc
   2     016   000004 577640   000010 006000   115117 116111   124117 122040    ........MONITOR
   2     022   127122 040040   105122 040040                                    WR  ER

(unnamed)
 Sect OctLoc
   4     000   000777 777640   000000 006014   000003 000000   000000 000000    ................
   4     004   000006 006000   000003 006000   000002 000000   000022 006000    ................
   4     010   000000 000214   000010 006000   000003 400000   000000 000170    ...............x
   4     014   000013 006000   000016 006000   000007 777640   000000 006000    ................
   4     020   000000 177640   000000 006014   000001 000000   000015 200000    ................
   4     024   000023 006000   000030 006000   777777 777770   777777 600000    ................
PL6.E3A0      #001=XSS$TSEND File=XSS$COMM.:XSA1TSI                              WED 10/01/97 12:08 Page:43
      243    13935
      244    13936    1       END XSS$TSEND;
      245    13937        %EOD;

PL6.E3A0      #001=XSS$TSEND File=XSS$COMM.:XSA1TSI                              WED 10/01/97 12:08 Page:44
--  Include file information  --

   XSC_COMMON_M.:XSA1TOU  is referenced.
   XSS_INTERNAL_M.:XSA1TOU  is referenced.
   XSS_INTERNAL_E.:XSA1TOU  is referenced.
   XSS_SESSION_M.:XSA1TOU  is referenced.
   XSS_SESSION_E.:XSA1TOU  is referenced.
   K_INTERFACE_M.:E05OU  is referenced.
   K_ADDRESS_M.:LIB_E05  is referenced.
   CP_6_C.:LIB_E05  is referenced.
   CP_6.:LIB_E05  cannot be made into a system file and is referenced.
      No diagnostics issued in procedure XSS$TSEND.
PL6.E3A0      #001=XSS$TSEND File=XSS$COMM.:XSA1TSI                              WED 10/01/97 12:08 Page:45

 **** Variables and constants ****

  ****  Section 001  Data  XSS$TSEND

  ****  Scalars and arrays  ****
OctLoc.c.b A Datatyp(siz) R M Lvl/name                 OctLoc.c.b A Datatyp(siz) R M Lvl/name

     0-0-0/d STRC(432)   r     1 AUWRT                     30-0-0/w STRC        r     1 ERRCODE
    31-0-0/w STRC(288)   r     1 NCSTA                     14-0-0/d STRC(432)   r     1 NCWRT

  ****  Section 002 RoData XSS$TSEND

  ****  Scalars and arrays  ****
OctLoc.c.b A Datatyp(siz) R M Lvl/name                 OctLoc.c.b A Datatyp(siz) R M Lvl/name

     0-0-0/c CHAR(19)    r     1 AUTITLE                    6-0-0/d VECT        r     1 AUTITLE_
    10-0-0/c CHAR(19)    r     1 NCTITLE                   16-0-0/d VECT        r     1 NCTITLE_

  ****  Auto variables  ****

  ****  Scalars and arrays  ****
OctLoc.c.b A Datatyp(siz) R M Lvl/name                 OctLoc.c.b A Datatyp(siz) R M Lvl/name

  1115-0-0/w PTR         r     1 @LEN                    1116-0-0/w PTR         r     1 @S$
     3-0-0/w PTR         r     1 @VBLK                   1115-0-0/w PTR         r     1 CCB$
   105-0-0/b BIT         r     1 CREDITING               1117-0-0/c PTR         r     1 D$
  1110-0-0/c PTR         r     1 GLUE$                    106-0-0/c CHAR(2048)  r     1 GLUEBUF
  1106-0-0/d VECT        r     1 GLUE_                     *0-0-0/w SBIN        r     1 LEN
    *0-0-0/c PTR         r     1 S$                      1111-0-0/w PTR         r     1 SCTX$
  1112-0-0/w PTR         r     1 SFPT$                      4-0-0/w STRC(1260)  r     1 TCONFPT
    47-0-0/w STRC(1080)  r     1 TDISFPT                 1113-0-0/w PTR         r     1 UADR$
    *0-0-0/d STRC(288)   r     1 VBLK

  ****  SYMREF variables  ****

  ****  Scalars and arrays  ****
OctLoc.c.b A Datatyp(siz) R M Lvl/name                 OctLoc.c.b A Datatyp(siz) R M Lvl/name
PL6.E3A0      #001=XSS$TSEND File=XSS$COMM.:XSA1TSI                              WED 10/01/97 12:08 Page:46

     0-0-0/w PTR         r     1 B$TCB$                     0-0-0/w STRC(288)   r     1 XSS_AUSTA
     0-0-0/w PTR         r     1 XSS_CCB$$                  0-0-0/w UBIN        r     1 XSS_DEBUG
     0-0-0/w SBIN        r     1 XSS_OTRACE

  ****  BASED and DCB variables  ****

  ****  Scalars and arrays  ****
OctLoc.c.b A Datatyp(siz) R M Lvl/name                 OctLoc.c.b A Datatyp(siz) R M Lvl/name

     0-0-0/w STRC(2448)  r     1 B$ALT                      0-0-0/w STRC(144)   r     1 B$TCB
     0-0-0/w STRC(504)   r     1 CCB                        0-0-0/w PTR         r     1 CCB$$(0:0)
     0-0-0/c ACHR        r     1 DESTINATION                0-0-0/w STRC(72)    r     1 GLUE
     0-0-0/w STRC(1260)  r     1 SCTX                       0-0-0/c ACHR        r     1 SOURCE
     0-0-0/w STRC(2718)  r     1 XSC$ADDRESS                0-0-0/d STRC(396)   r     1 XSS$CONNECT
     0-0-0/d STRC(504)   r     1 XSS$GENERIC


   Procedure XSS$TSEND requires 524 words for executable code.
   Procedure XSS$TSEND requires 600 words of local(AUTO) storage.
PL6.E3A0      #001=XSS$TSEND File=XSS$COMM.:XSA1TSI                              WED 10/01/97 12:08 Page:47
          *** CROSS REFERENCE LISTING ***
**     DENOTES     IDENTIFIER DEFINITION
<<                 IDENTIFIER'S VALUE SET
>>                 IDENTIFIER'S VALUE USED
<>                 IDENTIFIER SET AND/OR USED
--                 IDENTIFIER REFERENCED
PL6.E3A0      #001=XSS$TSEND File=XSS$COMM.:XSA1TSI                              WED 10/01/97 12:08 Page:48
          MINI XREF LISTING

ADDRSETUP
     13583**PROC    13495--CALL    13504--CALL
AUTITLE
     13455**DCL     13456--DCLINIT
AUTITLE_
     13456**DCL     13480<>CALL    13559<>CALL
AUWRT
      5604**DCL     13484<>CALL    13564<>CALL
AUWRT.BUF_
      5604**DCL     13481<<ASSIGN  13560<<ASSIGN
AUWRT.STATION_
      5606**DCL      5606--REDEF
AUWRT.V
      5607**DCL      5604--DCLINIT
AUWRT.V.DCB#
      5607**DCL     13482<<ASSIGN  13562<<ASSIGN
AUWRT.V.DVBYTE.VFC#
      5613**DCL      5613--REDEF
B$ALT.CODE
      5578**DCL      5578--REDEF    5579--REDEF    5579--REDEF
B$ALT.ERR
      5579**DCL     13570>>ASSIGN
B$ALT.ERR.ERR#
      5580**DCL      5580--REDEF
B$ALT.EVID
      5579**DCL      5579--REDEF    5579--REDEF
B$TCB.ALT$
      5585**DCL     13570>>ASSIGN
B$TCB$
     13444**DCL     13570>>ASSIGN
CCB.ERRDEF IN PROCEDURE ADDRSETUP
     13709**DCL     13729--REDEF
PL6.E3A0      #001=XSS$TSEND File=XSS$COMM.:XSA1TSI                              WED 10/01/97 12:08 Page:49
CCB.TPARMS.CLASS IN PROCEDURE ADDRSETUP
     13763**DCL     13894>>ASSIGN
CCB.TPARMS.QOS IN PROCEDURE ADDRSETUP
     13760**DCL     13893>>ASSIGN
CCB.TPARMS.TIMER1 IN PROCEDURE ADDRSETUP
     13754**DCL     13891>>ASSIGN
CCB.TPARMS.TIMER2 IN PROCEDURE ADDRSETUP
     13757**DCL     13892>>ASSIGN
CCB.TPARMS.TPDUSIZE IN PROCEDURE ADDRSETUP
     13748**DCL     13889>>ASSIGN
CCB.TPARMS.TR_FLAGS IN PROCEDURE ADDRSETUP
     13764**DCL     13895>>ASSIGN
CCB.TPARMS.TR_FLAGS.EXPEDITED IN PROCEDURE ADDRSETUP
     13789**DCL     13897>>ASSIGN
CCB.TPARMS.WINDOWSZ IN PROCEDURE ADDRSETUP
     13751**DCL     13890>>ASSIGN
CCB$ IN PROCEDURE ADDRSETUP
     13886**DCL     13602--IMP-PTR 13888<<ASSIGN  13889>>ASSIGN  13890>>ASSIGN  13891>>ASSIGN  13892>>ASSIGN
     13893>>ASSIGN  13894>>ASSIGN  13895>>ASSIGN  13897>>ASSIGN
CCB$$ IN PROCEDURE ADDRSETUP
     13885**DCL     13888>>ASSIGN
COMMON
     13463**LABEL   13934--GOTO
CREDIT
     13474**LABEL   13566--GOTO
CREDITING
     13448**DCL     13460<<ASSIGN  13471>>IF      13932<<ASSIGN
D$ IN PROCEDURE MOVEBYTES
     13910**DCL     13909--IMP-PTR 13916<<ASSIGN  13917>>CALLBLT
DESTINATION IN PROCEDURE MOVEBYTES
     13909**DCL     13917<<CALLBLT
ERRCODE
      5661**DCL     13570<<ASSIGN  13572<>CALL    13576<>CALL    13579>>ASSIGN
ERRCODE.SEV
      5691**DCL     13574>>IF      13575<<ASSIGN
EXPEDITED
PL6.E3A0      #001=XSS$TSEND File=XSS$COMM.:XSA1TSI                              WED 10/01/97 12:08 Page:50
     13526**LABEL   13534--GOTO
GLUE
     11949**DCL     13466<<ASSIGN
GLUE.MAGIC
     11959**DCL     13469<<ASSIGN
GLUE.MYSCID
     11956**DCL     13467<<ASSIGN  13494>>ASSIGN  13503>>ASSIGN
GLUE.TRNFNC
     11957**DCL     13478<<ASSIGN  13496<<ASSIGN  13506<<ASSIGN  13518<<ASSIGN  13526<<ASSIGN  13538<<ASSIGN
     13553>>CALL    13563>>CALL    13565>>IF
GLUE.YRSCID
     11958**DCL     13468<<ASSIGN
GLUE$
     13451**DCL     11949--IMP-PTR 13463<<ASSIGN  13466>>ASSIGN  13467>>ASSIGN  13468>>ASSIGN  13469>>ASSIGN
     13478>>ASSIGN  13494>>ASSIGN  13496>>ASSIGN  13503>>ASSIGN  13506>>ASSIGN  13518>>ASSIGN  13526>>ASSIGN
     13538>>ASSIGN  13553>>CALL    13563>>CALL    13565>>IF
GLUEBUF
     13449**DCL     13463--ASSIGN  13464--ASSIGN
GLUE_
     13450**DCL     13464<<ASSIGN  13465<<ASSIGN  13477<<ASSIGN  13480<>CALL    13481>>ASSIGN  13546<>CALL
     13547>>ASSIGN  13559<>CALL    13560>>ASSIGN  13916>>ASSIGN  13916>>ASSIGN  13918<<ASSIGN  13918>>ASSIGN
K$ADDRESS.NSAP.ADDRESS_N
      6399**DCL      6400--REDEF
LEN IN PROCEDURE MOVEBYTES
     13911**DCL     13908--PROC    13909--IMP-SIZ 13912--IMP-SIZ 13915>>IF      13917>>CALLBLT 13917>>CALLBLT
     13917>>CALLBLT 13918>>ASSIGN
M$WRITE
      5505**DCL-ENT 13484--CALL    13554--CALL    13564--CALL
MOVEBYTES
     13908**PROC    13497--CALL    13507--CALL    13519--CALL    13527--CALL    13528--CALL    13539--CALL
     13540--CALL
NCSTA
      5733**DCL      5606--DCLINIT
NCSTA.MSGIDXT
      5743**DCL      5746--REDEF
NCSTA.STATION#
PL6.E3A0      #001=XSS$TSEND File=XSS$COMM.:XSA1TSI                              WED 10/01/97 12:08 Page:51
      5737**DCL     13475<<ASSIGN  13561<<ASSIGN
NCTITLE
     13457**DCL     13458--DCLINIT
NCTITLE_
     13458**DCL     13546<>CALL
NCWRT
      5635**DCL     13554<>CALL
NCWRT.BUF_
      5635**DCL     13547<<ASSIGN
NCWRT.STATION_
      5637**DCL      5637--REDEF   13549<<ASSIGN  13551<<ASSIGN
NCWRT.V
      5638**DCL      5635--DCLINIT
NCWRT.V.DCB#
      5638**DCL     13552<<ASSIGN
NCWRT.V.DVBYTE.VFC#
      5644**DCL      5644--REDEF
NORMAL
     13538**LABEL   13524--GOTO
S$ IN PROCEDURE MOVEBYTES
     13913**DCL     13908--PROC    13912--IMP-PTR 13917>>CALLBLT
SCTX
     11980**DCL     13556<>CALL
SCTX.DCB#
     12309**DCL     13482>>ASSIGN  13552>>ASSIGN  13562>>ASSIGN
SCTX.DSTX
     12000**DCL     13515<>CALL    13901<>CALL
SCTX.FLAGS.TEXP
     12249**DCL     13505>>ASSIGN  13523>>IF      13533>>IF
SCTX.HISTZ
     12294**DCL     12295--REDEF
SCTX.MAGIC
     12291**DCL     13469>>ASSIGN
SCTX.MODE
     12276**DCL     13490<<ASSIGN  13543>>DOCASE
SCTX.NEEDAREAD
PL6.E3A0      #001=XSS$TSEND File=XSS$COMM.:XSA1TSI                              WED 10/01/97 12:08 Page:52
     12273**DCL     13555>>IF
SCTX.PEERSCID
     12280**DCL     13468>>ASSIGN
SCTX.SCID
     12281**DCL     13467>>ASSIGN  13483>>CALL    13553>>CALL    13563>>CALL    13571<>CALL    13888>>ASSIGN
SCTX.SRCX
     11999**DCL     13512<>CALL    13898<>CALL
SCTX.STATION
     12304**DCL     13474>>IF      13475>>ASSIGN  13491<<ASSIGN  13561>>ASSIGN
SCTX$
     13452**DCL     11980--IMP-PTR 13461<<ASSIGN  13467>>ASSIGN  13468>>ASSIGN  13469>>ASSIGN  13474>>IF
     13475>>ASSIGN  13482>>ASSIGN  13483>>CALL    13490>>ASSIGN  13491>>ASSIGN  13505>>ASSIGN  13512>>CALL
     13515>>CALL    13523>>IF      13533>>IF      13543>>DOCASE  13552>>ASSIGN  13553>>CALL    13555>>IF
     13556>>CALL    13561>>ASSIGN  13562>>ASSIGN  13563>>CALL    13571>>CALL    13888>>ASSIGN  13898>>CALL
     13901>>CALL    13933<<ASSIGN
SFPT$
     13453**DCL     10593--IMP-PTR 10739--IMP-PTR 13470<<ASSIGN  13476<<ASSIGN  13573>>IF      13579>>ASSIGN
     13897>>ASSIGN
SOURCE IN PROCEDURE MOVEBYTES
     13912**DCL     13917>>CALLBLT
TCONFPT
      6830**DCL     13493<<ASSIGN  13497--CALL    13497--CALL    13500<<ASSIGN  13507--CALL    13507--CALL
TCONFPT.CLASS
      6869**DCL     13894<<ASSIGN
TCONFPT.DST_NSAP
      7106**DCL     13903<<ASSIGN
TCONFPT.DST_NSAP.ADDRESS_N
      7136**DCL      7137--REDEF
TCONFPT.DST_TSAP
      7004**DCL     13902<<ASSIGN
TCONFPT.QOS
      6863**DCL     13893<<ASSIGN
TCONFPT.SCID
      6940**DCL     13494<<ASSIGN  13503<<ASSIGN
TCONFPT.SRC_NSAP
      7046**DCL     13900<<ASSIGN
PL6.E3A0      #001=XSS$TSEND File=XSS$COMM.:XSA1TSI                              WED 10/01/97 12:08 Page:53
TCONFPT.SRC_NSAP.ADDRESS_N
      7076**DCL      7077--REDEF
TCONFPT.SRC_TSAP
      6962**DCL     13899<<ASSIGN
TCONFPT.TIMER1
      6852**DCL     13891<<ASSIGN
TCONFPT.TIMER2
      6857**DCL     13892<<ASSIGN
TCONFPT.TPDUSIZE
      6839**DCL      6840--REDEF   13889<<ASSIGN
TCONFPT.TR_FLAGS
      6876**DCL     13895<<ASSIGN
TCONFPT.TR_FLAGS.EXPEDITED
      6921**DCL     13505<<ASSIGN  13897<<ASSIGN
TCONFPT.WINDOWSZ
      6847**DCL     13890<<ASSIGN
TDISFPT
      7166**DCL     13510<<ASSIGN  13519--CALL    13519--CALL
TDISFPT.DST_NSAP
      7328**DCL     13517<<ASSIGN
TDISFPT.DST_NSAP.ADDRESS_N
      7358**DCL      7359--REDEF
TDISFPT.DST_TSAP
      7231**DCL     13516<<ASSIGN
TDISFPT.REASON
      7167**DCL     13511<<ASSIGN
TDISFPT.SRC_NSAP
      7271**DCL     13514<<ASSIGN
TDISFPT.SRC_NSAP.ADDRESS_N
      7301**DCL      7302--REDEF
TDISFPT.SRC_TSAP
      7191**DCL     13513<<ASSIGN
UADR$
     13454**DCL     13512<>CALL    13513>>ASSIGN  13514>>ASSIGN  13515<>CALL    13516>>ASSIGN  13517>>ASSIGN
     13898<>CALL    13899>>ASSIGN  13900>>ASSIGN  13901<>CALL    13902>>ASSIGN  13903>>ASSIGN
VBLK
PL6.E3A0      #001=XSS$TSEND File=XSS$COMM.:XSA1TSI                              WED 10/01/97 12:08 Page:54
     12413**DCL        16--PROC    13930--ENTRY   13933--ASSIGN
VBLK.CTX$
     12421**DCL     13461>>ASSIGN
VBLK.DAT.PTR$
     12497**DCL     13528<>CALL    13540<>CALL
VBLK.DAT.SIZE
     12498**DCL     13528<>CALL    13540<>CALL
VBLK.EVENT
     12431**DCL     13488>>DOSELCT 13896>>IF
VBLK.FPT$
     12432**DCL     13470>>ASSIGN
VBLK.PDU.PTR$
     12464**DCL     13527<>CALL    13539<>CALL
VBLK.PDU.SIZE
     12465**DCL     13527<>CALL    13539<>CALL
WRTERR
     13570**LABEL   13484--CALLALT 13554--CALLALT 13564--CALLALT
XSC$ADDRESS.NSAP
     13402**DCL     13514>>ASSIGN  13517>>ASSIGN  13900>>ASSIGN  13903>>ASSIGN
XSC$ADDRESS.NSAP.ADDRESS_N
     13432**DCL     13433--REDEF
XSC$ADDRESS.TSAP
     13328**DCL     13513>>ASSIGN  13516>>ASSIGN  13899>>ASSIGN  13902>>ASSIGN
XSS$BUFPTR
     13438**DCL-ENT 13512--CALL    13515--CALL    13898--CALL    13901--CALL
XSS$COMMWAITZ
     13439**DCL-ENT 13556--CALL
XSS$CONNECT.CALLED$
     10965**DCL     10966--REDEF
XSS$CONNECT.ERRDEF
     10833**DCL     10853--REDEF
XSS$CONNECT.SFU.EX
     11028**DCL     13897>>ASSIGN
XSS$DUMPBYTES
     13440**DCL-ENT 13480--CALL    13546--CALL    13559--CALL
XSS$EVLOG
PL6.E3A0      #001=XSS$TSEND File=XSS$COMM.:XSA1TSI                              WED 10/01/97 12:08 Page:55
     13442**DCL-ENT 13483--CALL    13553--CALL    13563--CALL    13571--CALL    13572--CALL
XSS$GENERIC.ERRDEF
     10647**DCL     10667--REDEF
XSS$GENERIC.ERROR
     10667**DCL     13579<<ASSIGN
XSS$SCREECH
     13441**DCL-ENT 13576--CALL
XSS_AUSTA
      5706**DCL      5637--DCLINIT 13549--ASSIGN
XSS_AUSTA.MSGIDXT
      5716**DCL      5719--REDEF
XSS_AUSTA.STATION#
      5710**DCL     13491>>ASSIGN
XSS_CCB$$ IN PROCEDURE ADDRSETUP
     13883**DCL     13885--IMP-PTR 13888>>ASSIGN
XSS_DEBUG
     13445**DCL     13548>>IF
XSS_OTRACE
     13446**DCL     13479>>IF      13545>>IF      13558>>IF
PL6.E3A0      #001=XSS$TSEND File=XSS$COMM.:XSA1TSI                              WED 10/01/97 12:08 Page:56
              *** CROSS REFERENCE LISTING ***
    **     DENOTES     IDENTIFIER DEFINITION
    <<                 IDENTIFIER'S VALUE SET
    >>                 IDENTIFIER'S VALUE USED
    <>                 IDENTIFIER SET AND/OR USED
    --                 IDENTIFIER REFERENCED
PL6.E3A0      #001=XSS$TSEND File=XSS$COMM.:XSA1TSI                              WED 10/01/97 12:08 Page:57
              MINI UREF LISTING

M$ACCT    5521**DCL-ENT
M$ACTIVATE    5524**DCL-ENT
M$ALIB    5517**DCL-ENT
M$ASUSER    5519**DCL-ENT
M$ATTACH    5526**DCL-ENT
M$BADPP    5544**DCL-ENT
M$CGCTL    5525**DCL-ENT
M$CGINFO    5525**DCL-ENT
M$CHECK    5506**DCL-ENT
M$CHGUNIT    5564**DCL-ENT
M$CLOSE    5504**DCL-ENT
M$CLRSTK    5562**DCL-ENT
M$CMDVAR    5573**DCL-ENT
M$CONFIG    5534**DCL-ENT
M$CORRES    5509**DCL-ENT
M$CPEXIT    5518**DCL-ENT
M$CVM    5542**DCL-ENT
M$CVOL    5507**DCL-ENT
M$DCLFLD    5534**DCL-ENT
M$DEACTIVATE    5524**DCL-ENT
M$DELREC    5506**DCL-ENT
M$DEQ    5571**DCL-ENT
M$DETACH    5526**DCL-ENT
M$DEVICE    5508**DCL-ENT
M$DISPLAY    5571**DCL-ENT
M$DISPRES    5511**DCL-ENT
M$DLIB    5517**DCL-ENT
M$DRIBBLE    5534**DCL-ENT
M$DRTN    5562**DCL-ENT
M$DSUSER    5519**DCL-ENT
M$ENQ    5570**DCL-ENT
M$EOM    5529**DCL-ENT
PL6.E3A0      #001=XSS$TSEND File=XSS$COMM.:XSA1TSI                              WED 10/01/97 12:08 Page:58
M$ERASE    5535**DCL-ENT
M$ERR    5516**DCL-ENT
M$ERRMSG    5567**DCL-ENT
M$EVENT    5559**DCL-ENT
M$EXHUME    5568**DCL-ENT
M$EXIT    5516**DCL-ENT
M$EXTEND    5508**DCL-ENT
M$FDP    5540**DCL-ENT
M$FDS    5539**DCL-ENT
M$FEBOOT    5532**DCL-ENT
M$FECTL    5533**DCL-ENT
M$FEDUMP    5532**DCL-ENT
M$FID    5567**DCL-ENT
M$FINDPROC    5521**DCL-ENT
M$FSUSER    5519**DCL-ENT
M$FVP    5541**DCL-ENT
M$FWCG    5525**DCL-ENT
M$GBPL    5545**DCL-ENT
M$GDDL    5541**DCL-ENT
M$GDP    5540**DCL-ENT
M$GDS    5539**DCL-ENT
M$GETDCB    5510**DCL-ENT
M$GETMOUSE    5550**DCL-ENT
M$GETPM    5551**DCL-ENT
M$GJOB    5569**DCL-ENT
M$GLINEATTR    5529**DCL-ENT
M$GOODPP    5544**DCL-ENT
M$GPLATEN    5537**DCL-ENT
M$GPROMPT    5536**DCL-ENT
M$GTRMATTR    5530**DCL-ENT
M$GTRMCTL    5528**DCL-ENT
M$GTRMTAB    5531**DCL-ENT
M$GVP    5540**DCL-ENT
M$HELP    5567**DCL-ENT
M$INT    5559**DCL-ENT
M$INTRTN    5520**DCL-ENT
PL6.E3A0      #001=XSS$TSEND File=XSS$COMM.:XSA1TSI                              WED 10/01/97 12:08 Page:59
M$IOQ    5555**DCL-ENT
M$JOBSTATS    5569**DCL-ENT
M$KEYIN    5509**DCL-ENT
M$LDEV    5504**DCL-ENT
M$LDTRC    5517**DCL-ENT
M$LIMIT    5510**DCL-ENT
M$LINES    5509**DCL-ENT
M$LINK    5516**DCL-ENT
M$MADMUCK    5512**DCL-ENT
M$MAKUSER    5543**DCL-ENT
M$MBS    5511**DCL-ENT
M$MDFFLD    5535**DCL-ENT
M$MERC    5560**DCL-ENT
M$MERCS    5561**DCL-ENT
M$MIRROR    5555**DCL-ENT
M$MONINFO    5572**DCL-ENT
M$MPL    5545**DCL-ENT
M$NODEINFO    5536**DCL-ENT
M$NXTUSR    5570**DCL-ENT
M$OCMSG    5568**DCL-ENT
M$OLAY    5516**DCL-ENT
M$OPEN    5504**DCL-ENT
M$PAS    5545**DCL-ENT
M$PATHCON    5568**DCL-ENT
M$PDS    5539**DCL-ENT
M$PFIL    5506**DCL-ENT
M$PLATEN    5530**DCL-ENT
M$PRECORD    5508**DCL-ENT
M$PROCNAME    5521**DCL-ENT
M$PROFILE    5532**DCL-ENT
M$PROMPT    5528**DCL-ENT
M$RACST    5512**DCL-ENT
M$RDSYSLOG    5553**DCL-ENT
M$READ    5505**DCL-ENT
M$RELDCB    5510**DCL-ENT
M$RELRES    5511**DCL-ENT
PL6.E3A0      #001=XSS$TSEND File=XSS$COMM.:XSA1TSI                              WED 10/01/97 12:08 Page:60
M$RELSTARF    5513**DCL-ENT
M$REM    5513**DCL-ENT
M$RENV    5560**DCL-ENT
M$REQUIRE    5512**DCL-ENT
M$RETRY    5561**DCL-ENT
M$RETRYS    5561**DCL-ENT
M$REW    5507**DCL-ENT
M$RLSFLD    5535**DCL-ENT
M$RPRIV    5563**DCL-ENT
M$RSPP    5542**DCL-ENT
M$RSWITCH    5564**DCL-ENT
M$RUE    5570**DCL-ENT
M$SAD    5543**DCL-ENT
M$SAVE    5519**DCL-ENT
M$SCON    5520**DCL-ENT
M$SCREECH    5518**DCL-ENT
M$SENV    5560**DCL-ENT
M$SETFMA    5504**DCL-ENT
M$SETFP    5533**DCL-ENT
M$SINPUT    5531**DCL-ENT
M$SLCFLD    5536**DCL-ENT
M$SMOUSE    5550**DCL-ENT
M$SMPRT    5542**DCL-ENT
M$SPRIV    5563**DCL-ENT
M$SSC    5543**DCL-ENT
M$SSWITCH    5563**DCL-ENT
M$STATE    5572**DCL-ENT
M$STD    5544**DCL-ENT
M$STIMER    5558**DCL-ENT
M$STLPP    5541**DCL-ENT
M$STRAP    5558**DCL-ENT
M$STRMATTR    5530**DCL-ENT
M$STRMCTL    5528**DCL-ENT
M$STRMTAB    5531**DCL-ENT
M$SYMBIO    5569**DCL-ENT
M$SYSCON    5555**DCL-ENT
PL6.E3A0      #001=XSS$TSEND File=XSS$COMM.:XSA1TSI                              WED 10/01/97 12:08 Page:61
M$SYSID    5573**DCL-ENT
M$TDCLOSE    5554**DCL-ENT
M$TDIO    5554**DCL-ENT
M$TDOPEN    5553**DCL-ENT
M$TDREQCPU    5554**DCL-ENT
M$TEMPWROC    5548**DCL-ENT
M$TIME    5571**DCL-ENT
M$TRAP    5558**DCL-ENT
M$TRMISC    5533**DCL-ENT
M$TRMPRG    5529**DCL-ENT
M$TRTN    5562**DCL-ENT
M$TRUNC    5505**DCL-ENT
M$TTIMER    5558**DCL-ENT
M$UC    5528**DCL
M$UMPL    5545**DCL-ENT
M$UNFID    5567**DCL-ENT
M$UNLATCH    5524**DCL-ENT
M$UNSHARE    5521**DCL-ENT
M$USRFIELD    5564**DCL-ENT
M$VIRTUAL    5539**DCL-ENT
M$WAIT    5562**DCL-ENT
M$WEOF    5507**DCL-ENT
M$WRSYSLOG    5553**DCL-ENT
M$XCON    5559**DCL-ENT
M$XCONRTN    5520**DCL-ENT
M$XEQTIME    5572**DCL-ENT
M$XFLUSH    5513**DCL-ENT
M$XMOUSE    5550**DCL-ENT
M$XXX    5516**DCL-ENT
M$YC    5518**DCL-ENT
XSS$TCREDIT   13930**ENTRY
XSS$TSEND      16**PROC

PL6.E3A0      #002=XSS$TRECV File=XSS$COMM.:XSA1TSI                              WED 10/01/97 12:09 Page:62
      246        1        /*T***********************************************************/
      247        2        /*T*                                                         */
      248        3        /*T* Copyright (c) Bull HN Information Systems Inc., 1997    */
      249        4        /*T*                                                         */
      250        5        /*T***********************************************************/
      251        6        /*F*
      252        7                NAME:   XSS$TRECV
      253        8                PURPOSE:
      254        9                    This module fields any asynchronous events reported to the
      255       10                    application, unless the application itself has indicated that
      256       11                    it wants to field them.
      257       12                DESCRIPTION:
      258       13                    When the XSS library is initialized, the application indicates
      259       14                    whether it wants the library to field async events or not.  If
      260       15                    the library is to field them, this routine is invoked when such
      261       16                    an event occurs.  If it is a Session event, XSS$EVENT is then
      262       17                    called to handle it.  Otherwise, an application routine is called.
      263       18        */
      264       19        XSS$TRECV: PROC ASYNC;
      265       20        %INCLUDE CP_6;
      266     5579            %B$EXCFR;
      267     5597            %B$TCB;
      268     5600        %INCLUDE XSS_SESSION_E;
      269     6165        %MACRO FATALDEF( NAME=XSS_FATAL, STCLASS="CONSTANT SYMDEF", LVL=1, LAST=";",
      270     6166                         ERR#=0, SEV=7);
      271     6167            %VLP_ERRCODE( FPTN=NAME, STCLASS=STCLASS, FCG='XS', MID='S',
      272     6168                          MON='0'B, ERR#=ERR#, SEV=SEV);
      273     6169        %MEND;
      274     6170        %INCLUDE XSC_PERR_C;
      275     6247            %FATALDEF( NAME=XSS_F$NOEVNT, ERR#=%F$NOEVNT);
      276     6295            /*E*  ERROR:  XSS-F$NOEVNT-7
      277     6296                MESSAGE:  No handler for this asynchronous event.
      278     6297            */
      279     6298
      280     6299    1       DCL XSS$EVENT ENTRY(1) ALTRET;
      281     6300    1       DCL XSS$SCREECH ENTRY(1);
      282     6301
PL6.E3A0      #002=XSS$TRECV File=XSS$COMM.:XSA1TSI                              WED 10/01/97 12:09 Page:63
      283     6302    1       DCL B$TCB$ PTR SYMREF;
      284     6303    1       DCL XSS_EVENT$ EPTR SYMREF;
      285     6304
      286     6305    1       DCL EVENT# SBIN;
      287     6306        %EJECT;
PL6.E3A0      #002=XSS$TRECV File=XSS$COMM.:XSA1TSI                              WED 10/01/97 12:09 Page:64
      288     6307            /* this entire procedure is INHIBITED to avoid TCB overflow */
      289     6308    2       DO INHIBIT;
      290     6309    2           EVENT# = B$TCB$->B$TCB.STK$->B$EXCFR.EVID;
      291     6310    2           IF %XSS_EVID = EVENT# / 512 THEN
      292     6311                    /* this is a Session event */
      293     6312    2               CALL XSS$EVENT( B$TCB$->B$TCB.STK$->B$EXCFR);
      294     6313    2           ELSE
      295     6314                    /* not a Session event */
      296     6315    2               IF XSS_EVENT$ = ENTADDR( NIL) THEN
      297     6316                        /* user didn't specify EVNT$ on XSS$COMMINIT */
      298     6317    2                   CALL XSS$SCREECH( XSS_F$NOEVNT);
      299     6318    2               ELSE
      300     6319                        /* chain to application's event handler */
      301     6320    2                   CALL XSS_EVENT$( B$TCB$->B$TCB.STK$->B$EXCFR);
      302     6321    2           RETURN;
      303     6322    2           END;
      304     6323
      305     6324    1       END XSS$TRECV;
      306     6325        %EOD;

PL6.E3A0      #002=XSS$TRECV File=XSS$COMM.:XSA1TSI                              WED 10/01/97 12:09 Page:65
--  Include file information  --

   XSC_PERR_C.:XSA1TOU  is referenced.
   XSS_SESSION_E.:XSA1TOU  is referenced.
   CP_6_C.:LIB_E05  is referenced.
   CP_6.:LIB_E05  cannot be made into a system file and is referenced.
      No diagnostics issued in procedure XSS$TRECV.

   Procedure XSS$TRECV requires 32 words for executable code.
   Procedure XSS$TRECV requires 6 words of local(AUTO) storage.

PL6.E3A0      #002=XSS$TRECV File=XSS$COMM.:XSA1TSI                              WED 10/01/97 12:09 Page:66

 Object Unit name= XSS$TRECV                                  File name= XSS$COMM.:XSA1TOU
 UTS= OCT 01 '97 12:09:07.52 WED                              Compiler= PL-6/E31         Sev=      00
 SharedLib= :SHARED_SYSTEM                                    Alt SharedLib=


    ****  Control sections  ****

 Sect   Type Bound  Init  Size OctSiz  Section name(segment info)
    0   DCB   even  none     0      0  M$UC
    1  RoData even  UTS      1      1  XSS$TRECV
    2   Proc  even  none    32     40  XSS$TRECV
    3  RoData even  none     4      4  XSS$TRECV

    ****  Entry defs  ****

                              Check   Calling
                             calling  sequence
  Sect OctLoc Primary Altret sequence   type   Parms  Name
     2      0   yes            yes     Async       0  XSS$TRECV

  ****  Data defs  ****

 Sect OctLoc  Name                           Sect OctLoc  Name
    1      0  XSS_F$NOEVNT

  ****  Entry refs  ****

         Check        Calling
        calling       sequence
Altret sequence SRef   type   Args  Name
 yes     yes           Std       1 XSS$EVENT
         yes           Std       1 XSS$SCREECH
                       nStd      0 X66_AAUTO
                       nStd      0 X66_AARET
PL6.E3A0      #002=XSS$TRECV File=XSS$COMM.:XSA1TSI                              WED 10/01/97 12:09 Page:67

  ****  Data refs  ****

  Flags:  r = read only, s = secondary
Flgs Name                             Flgs Name                             Flgs Name
     M$UC                                  B$TCB$                                XSS_EVENT$

  ****  Segment refs  ****

  Flags:  r = read only, s = secondary
Flgs Name                             Flgs Name                             Flgs Name
     ISSID
PL6.E3A0      #002=XSS$TRECV File=XSS$COMM.:XSA1TSI                              WED 10/01/97 12:09 Page:68


      246        1        /*T***********************************************************/
      247        2        /*T*                                                         */
      248        3        /*T* Copyright (c) Bull HN Information Systems Inc., 1997    */
      249        4        /*T*                                                         */
      250        5        /*T***********************************************************/
      251        6        /*F*
      252        7                NAME:   XSS$TRECV
      253        8                PURPOSE:
      254        9                    This module fields any asynchronous events reported to the
      255       10                    application, unless the application itself has indicated that
      256       11                    it wants to field them.
      257       12                DESCRIPTION:
      258       13                    When the XSS library is initialized, the application indicates
      259       14                    whether it wants the library to field async events or not.  If
      260       15                    the library is to field them, this routine is invoked when such
      261       16                    an event occurs.  If it is a Session event, XSS$EVENT is then
      262       17                    called to handle it.  Otherwise, an application routine is called.
      263       18        */
      264       19        XSS$TRECV: PROC ASYNC;

     19  2 000000   000000 700200 xent  XSS$TRECV    TSX0  ! X66_AAUTO
         2 000001   000006 000000                    ZERO    6,0

      265       20        %INCLUDE CP_6;
      266     5579            %B$EXCFR;
      267     5597            %B$TCB;
      268     5600        %INCLUDE XSS_SESSION_E;
      269     6165        %MACRO FATALDEF( NAME=XSS_FATAL, STCLASS="CONSTANT SYMDEF", LVL=1, LAST=";",
      270     6166                         ERR#=0, SEV=7);
      271     6167            %VLP_ERRCODE( FPTN=NAME, STCLASS=STCLASS, FCG='XS', MID='S',
      272     6168                          MON='0'B, ERR#=ERR#, SEV=SEV);
      273     6169        %MEND;
      274     6170        %INCLUDE XSC_PERR_C;
      275     6247            %FATALDEF( NAME=XSS_F$NOEVNT, ERR#=%F$NOEVNT);
      276     6295            /*E*  ERROR:  XSS-F$NOEVNT-7
      277     6296                MESSAGE:  No handler for this asynchronous event.
PL6.E3A0      #002=XSS$TRECV File=XSS$COMM.:XSA1TSI                              WED 10/01/97 12:09 Page:69
      278     6297            */
      279     6298
      280     6299    1       DCL XSS$EVENT ENTRY(1) ALTRET;
      281     6300    1       DCL XSS$SCREECH ENTRY(1);
      282     6301
      283     6302    1       DCL B$TCB$ PTR SYMREF;
      284     6303    1       DCL XSS_EVENT$ EPTR SYMREF;
      285     6304
      286     6305    1       DCL EVENT# SBIN;
      287     6306        %EJECT;
PL6.E3A0      #002=XSS$TRECV File=XSS$COMM.:XSA1TSI                              WED 10/01/97 12:09 Page:70
      288     6307            /* this entire procedure is INHIBITED to avoid TCB overflow */
      289     6308    2       DO INHIBIT;

      290     6309    2           EVENT# = B$TCB$->B$TCB.STK$->B$EXCFR.EVID;

   6309  2 000002   000000 470600 xsym               LDP0  ! B$TCB$
         2 000003   000001 471700                    LDP1  ! 1,,PR0
         2 000004   100101 235300                    LDA   ! 65,,PR1
         2 000005   200003 755300                    STA   ! EVENT#,,AUTO

      291     6310    2           IF %XSS_EVID = EVENT# / 512 THEN

   6310  2 000006   200003 236300                    LDQ   ! EVENT#,,AUTO
         2 000007   001000 506207                    DIV   ! 512,DL
         2 000010   000000 116200 3                  CMPQ  ! 0
         2 000011   000020 601200 2                  TNZ   ! s:6315

      292     6311                    /* this is a Session event */
      293     6312    2               CALL XSS$EVENT( B$TCB$->B$TCB.STK$->B$EXCFR);

   6312  2 000012   200004 451700                    STP1  ! EVENT#+1,,AUTO
         2 000013   200004 630700                    EPPR0 ! EVENT#+1,,AUTO
         2 000014   000001 631600 3                  EPPR1 ! 1
         2 000015   000000 701200 xent               TSX1  ! XSS$EVENT
         2 000016   000000 011200                    NOP   ! 0
         2 000017   000036 710200 2                  TRA   ! s:6321

      294     6313    2           ELSE
      295     6314                    /* not a Session event */
      296     6315    2               IF XSS_EVENT$ = ENTADDR( NIL) THEN

   6315  2 000020   000000 236200 xsym               LDQ   ! XSS_EVENT$
         2 000021   000002 116200 3                  CMPQ  ! 2
         2 000022   000030 601200 2                  TNZ   ! s:6320

      297     6316                        /* user didn't specify EVNT$ on XSS$COMMINIT */
      298     6317    2                   CALL XSS$SCREECH( XSS_F$NOEVNT);
PL6.E3A0      #002=XSS$TRECV File=XSS$COMM.:XSA1TSI                              WED 10/01/97 12:09 Page:71

   6317  2 000023   000003 630600 3                  EPPR0 ! 3
         2 000024   000001 631600 3                  EPPR1 ! 1
         2 000025   000000 701200 xent               TSX1  ! XSS$SCREECH
         2 000026   000000 011200                    NOP   ! 0
         2 000027   000036 710200 2                  TRA   ! s:6321

      299     6318    2               ELSE
      300     6319                        /* chain to application's event handler */
      301     6320    2                   CALL XSS_EVENT$( B$TCB$->B$TCB.STK$->B$EXCFR);

   6320  2 000030   200004 451700                    STP1  ! EVENT#+1,,AUTO
         2 000031   200004 630700                    EPPR0 ! EVENT#+1,,AUTO
         2 000032   000000 220200 xsym               LDX0  ! XSS_EVENT$
         2 000033   000001 631600 3                  EPPR1 ! 1
         2 000034   000000 701210                    TSX1  ! 0,X0
         2 000035   000000 011200                    NOP   ! 0

      302     6321    2           RETURN;

   6321  2 000036   000000 702200 xent               TSX2  ! X66_AARET

      303     6322    2           END;

      304     6323
      305     6324    1       END XSS$TRECV;

   6324  2 000037   000000 702200 xent               TSX2  ! X66_AARET

XSS_F$NOEVNT
 Sect OctLoc
   1     000   302323 001377                                                    ....

(unnamed)
 Sect OctLoc
   3     000   000130 123123   000001 000000   000000 000000   000000 006000    .XSS............
      306     6325        %EOD;
PL6.E3A0      #002=XSS$TRECV File=XSS$COMM.:XSA1TSI                              WED 10/01/97 12:09 Page:72

PL6.E3A0      #002=XSS$TRECV File=XSS$COMM.:XSA1TSI                              WED 10/01/97 12:09 Page:73
--  Include file information  --

   XSC_PERR_C.:XSA1TOU  is referenced.
   XSS_SESSION_E.:XSA1TOU  is referenced.
   CP_6_C.:LIB_E05  is referenced.
   CP_6.:LIB_E05  cannot be made into a system file and is referenced.
      No diagnostics issued in procedure XSS$TRECV.
PL6.E3A0      #002=XSS$TRECV File=XSS$COMM.:XSA1TSI                              WED 10/01/97 12:09 Page:74

 **** Variables and constants ****

  ****  Section 001 RoData XSS$TRECV

  ****  Scalars and arrays  ****
OctLoc.c.b A Datatyp(siz) R M Lvl/name                 OctLoc.c.b A Datatyp(siz) R M Lvl/name

     0-0-0/w STRC        r     1 XSS_F$NOEVNT

  ****  Auto variables  ****

  ****  Scalars and arrays  ****
OctLoc.c.b A Datatyp(siz) R M Lvl/name                 OctLoc.c.b A Datatyp(siz) R M Lvl/name

     3-0-0/w SBIN        r     1 EVENT#

  ****  SYMREF variables  ****

  ****  Scalars and arrays  ****
OctLoc.c.b A Datatyp(siz) R M Lvl/name                 OctLoc.c.b A Datatyp(siz) R M Lvl/name

     0-0-0/w PTR         r     1 B$TCB$                     0-0-0/w EPTR        r     1 XSS_EVENT$

  ****  BASED and DCB variables  ****

  ****  Scalars and arrays  ****
OctLoc.c.b A Datatyp(siz) R M Lvl/name                 OctLoc.c.b A Datatyp(siz) R M Lvl/name

     0-0-0/w STRC(2448)  r     1 B$EXCFR                    0-0-0/w STRC(144)   r     1 B$TCB


   Procedure XSS$TRECV requires 32 words for executable code.
   Procedure XSS$TRECV requires 6 words of local(AUTO) storage.
PL6.E3A0      #002=XSS$TRECV File=XSS$COMM.:XSA1TSI                              WED 10/01/97 12:09 Page:75
          *** CROSS REFERENCE LISTING ***
**     DENOTES     IDENTIFIER DEFINITION
<<                 IDENTIFIER'S VALUE SET
>>                 IDENTIFIER'S VALUE USED
<>                 IDENTIFIER SET AND/OR USED
--                 IDENTIFIER REFERENCED
PL6.E3A0      #002=XSS$TRECV File=XSS$COMM.:XSA1TSI                              WED 10/01/97 12:09 Page:76
          MINI XREF LISTING

B$EXCFR
      5580**DCL      6312<>CALL     6320<>CALL
B$EXCFR.ASL
      5580**DCL      5580--REDEF
B$EXCFR.ERR.ERR#
      5594**DCL      5594--REDEF
B$EXCFR.EVID
      5593**DCL      5593--REDEF    5594--REDEF    6309>>ASSIGN
B$EXCFR.IR
      5581**DCL      5581--REDEF
B$EXCFR.PREVSZ
      5580**DCL      5580--REDEF
B$EXCFR.SUBC
      5592**DCL      5592--REDEF    5593--REDEF    5593--REDEF
B$TCB.STK$
      5598**DCL      6309>>ASSIGN   6312>>CALL     6320>>CALL
B$TCB$
      6302**DCL      6309>>ASSIGN   6312>>CALL     6320>>CALL
EVENT#
      6305**DCL      6309<<ASSIGN   6310>>IF
XSS$EVENT
      6299**DCL-ENT  6312--CALL
XSS$SCREECH
      6300**DCL-ENT  6317--CALL
XSS_EVENT$
      6303**DCL      6315>>IF       6320>>CALL
XSS_F$NOEVNT
      6261**DCL      6317<>CALL
PL6.E3A0      #002=XSS$TRECV File=XSS$COMM.:XSA1TSI                              WED 10/01/97 12:09 Page:77
              *** CROSS REFERENCE LISTING ***
    **     DENOTES     IDENTIFIER DEFINITION
    <<                 IDENTIFIER'S VALUE SET
    >>                 IDENTIFIER'S VALUE USED
    <>                 IDENTIFIER SET AND/OR USED
    --                 IDENTIFIER REFERENCED
PL6.E3A0      #002=XSS$TRECV File=XSS$COMM.:XSA1TSI                              WED 10/01/97 12:09 Page:78
              MINI UREF LISTING

M$ACCT    5524**DCL-ENT
M$ACTIVATE    5527**DCL-ENT
M$ALIB    5520**DCL-ENT
M$ASUSER    5522**DCL-ENT
M$ATTACH    5529**DCL-ENT
M$BADPP    5547**DCL-ENT
M$CGCTL    5528**DCL-ENT
M$CGINFO    5528**DCL-ENT
M$CHECK    5509**DCL-ENT
M$CHGUNIT    5567**DCL-ENT
M$CLOSE    5507**DCL-ENT
M$CLRSTK    5565**DCL-ENT
M$CMDVAR    5576**DCL-ENT
M$CONFIG    5537**DCL-ENT
M$CORRES    5512**DCL-ENT
M$CPEXIT    5521**DCL-ENT
M$CVM    5545**DCL-ENT
M$CVOL    5510**DCL-ENT
M$DCLFLD    5537**DCL-ENT
M$DEACTIVATE    5527**DCL-ENT
M$DELREC    5509**DCL-ENT
M$DEQ    5574**DCL-ENT
M$DETACH    5529**DCL-ENT
M$DEVICE    5511**DCL-ENT
M$DISPLAY    5574**DCL-ENT
M$DISPRES    5514**DCL-ENT
M$DLIB    5520**DCL-ENT
M$DRIBBLE    5537**DCL-ENT
M$DRTN    5565**DCL-ENT
M$DSUSER    5522**DCL-ENT
M$ENQ    5573**DCL-ENT
M$EOM    5532**DCL-ENT
PL6.E3A0      #002=XSS$TRECV File=XSS$COMM.:XSA1TSI                              WED 10/01/97 12:09 Page:79
M$ERASE    5538**DCL-ENT
M$ERR    5519**DCL-ENT
M$ERRMSG    5570**DCL-ENT
M$EVENT    5562**DCL-ENT
M$EXHUME    5571**DCL-ENT
M$EXIT    5519**DCL-ENT
M$EXTEND    5511**DCL-ENT
M$FDP    5543**DCL-ENT
M$FDS    5542**DCL-ENT
M$FEBOOT    5535**DCL-ENT
M$FECTL    5536**DCL-ENT
M$FEDUMP    5535**DCL-ENT
M$FID    5570**DCL-ENT
M$FINDPROC    5524**DCL-ENT
M$FSUSER    5522**DCL-ENT
M$FVP    5544**DCL-ENT
M$FWCG    5528**DCL-ENT
M$GBPL    5548**DCL-ENT
M$GDDL    5544**DCL-ENT
M$GDP    5543**DCL-ENT
M$GDS    5542**DCL-ENT
M$GETDCB    5513**DCL-ENT
M$GETMOUSE    5553**DCL-ENT
M$GETPM    5554**DCL-ENT
M$GJOB    5572**DCL-ENT
M$GLINEATTR    5532**DCL-ENT
M$GOODPP    5547**DCL-ENT
M$GPLATEN    5540**DCL-ENT
M$GPROMPT    5539**DCL-ENT
M$GTRMATTR    5533**DCL-ENT
M$GTRMCTL    5531**DCL-ENT
M$GTRMTAB    5534**DCL-ENT
M$GVP    5543**DCL-ENT
M$HELP    5570**DCL-ENT
M$INT    5562**DCL-ENT
M$INTRTN    5523**DCL-ENT
PL6.E3A0      #002=XSS$TRECV File=XSS$COMM.:XSA1TSI                              WED 10/01/97 12:09 Page:80
M$IOQ    5558**DCL-ENT
M$JOBSTATS    5572**DCL-ENT
M$KEYIN    5512**DCL-ENT
M$LDEV    5507**DCL-ENT
M$LDTRC    5520**DCL-ENT
M$LIMIT    5513**DCL-ENT
M$LINES    5512**DCL-ENT
M$LINK    5519**DCL-ENT
M$MADMUCK    5515**DCL-ENT
M$MAKUSER    5546**DCL-ENT
M$MBS    5514**DCL-ENT
M$MDFFLD    5538**DCL-ENT
M$MERC    5563**DCL-ENT
M$MERCS    5564**DCL-ENT
M$MIRROR    5558**DCL-ENT
M$MONINFO    5575**DCL-ENT
M$MPL    5548**DCL-ENT
M$NODEINFO    5539**DCL-ENT
M$NXTUSR    5573**DCL-ENT
M$OCMSG    5571**DCL-ENT
M$OLAY    5519**DCL-ENT
M$OPEN    5507**DCL-ENT
M$PAS    5548**DCL-ENT
M$PATHCON    5571**DCL-ENT
M$PDS    5542**DCL-ENT
M$PFIL    5509**DCL-ENT
M$PLATEN    5533**DCL-ENT
M$PRECORD    5511**DCL-ENT
M$PROCNAME    5524**DCL-ENT
M$PROFILE    5535**DCL-ENT
M$PROMPT    5531**DCL-ENT
M$RACST    5515**DCL-ENT
M$RDSYSLOG    5556**DCL-ENT
M$READ    5508**DCL-ENT
M$RELDCB    5513**DCL-ENT
M$RELRES    5514**DCL-ENT
PL6.E3A0      #002=XSS$TRECV File=XSS$COMM.:XSA1TSI                              WED 10/01/97 12:09 Page:81
M$RELSTARF    5516**DCL-ENT
M$REM    5516**DCL-ENT
M$RENV    5563**DCL-ENT
M$REQUIRE    5515**DCL-ENT
M$RETRY    5564**DCL-ENT
M$RETRYS    5564**DCL-ENT
M$REW    5510**DCL-ENT
M$RLSFLD    5538**DCL-ENT
M$RPRIV    5566**DCL-ENT
M$RSPP    5545**DCL-ENT
M$RSWITCH    5567**DCL-ENT
M$RUE    5573**DCL-ENT
M$SAD    5546**DCL-ENT
M$SAVE    5522**DCL-ENT
M$SCON    5523**DCL-ENT
M$SCREECH    5521**DCL-ENT
M$SENV    5563**DCL-ENT
M$SETFMA    5507**DCL-ENT
M$SETFP    5536**DCL-ENT
M$SINPUT    5534**DCL-ENT
M$SLCFLD    5539**DCL-ENT
M$SMOUSE    5553**DCL-ENT
M$SMPRT    5545**DCL-ENT
M$SPRIV    5566**DCL-ENT
M$SSC    5546**DCL-ENT
M$SSWITCH    5566**DCL-ENT
M$STATE    5575**DCL-ENT
M$STD    5547**DCL-ENT
M$STIMER    5561**DCL-ENT
M$STLPP    5544**DCL-ENT
M$STRAP    5561**DCL-ENT
M$STRMATTR    5533**DCL-ENT
M$STRMCTL    5531**DCL-ENT
M$STRMTAB    5534**DCL-ENT
M$SYMBIO    5572**DCL-ENT
M$SYSCON    5558**DCL-ENT
PL6.E3A0      #002=XSS$TRECV File=XSS$COMM.:XSA1TSI                              WED 10/01/97 12:09 Page:82
M$SYSID    5576**DCL-ENT
M$TDCLOSE    5557**DCL-ENT
M$TDIO    5557**DCL-ENT
M$TDOPEN    5556**DCL-ENT
M$TDREQCPU    5557**DCL-ENT
M$TEMPWROC    5551**DCL-ENT
M$TIME    5574**DCL-ENT
M$TRAP    5561**DCL-ENT
M$TRMISC    5536**DCL-ENT
M$TRMPRG    5532**DCL-ENT
M$TRTN    5565**DCL-ENT
M$TRUNC    5508**DCL-ENT
M$TTIMER    5561**DCL-ENT
M$UC    5531**DCL
M$UMPL    5548**DCL-ENT
M$UNFID    5570**DCL-ENT
M$UNLATCH    5527**DCL-ENT
M$UNSHARE    5524**DCL-ENT
M$USRFIELD    5567**DCL-ENT
M$VIRTUAL    5542**DCL-ENT
M$WAIT    5565**DCL-ENT
M$WEOF    5510**DCL-ENT
M$WRITE    5508**DCL-ENT
M$WRSYSLOG    5556**DCL-ENT
M$XCON    5562**DCL-ENT
M$XCONRTN    5523**DCL-ENT
M$XEQTIME    5575**DCL-ENT
M$XFLUSH    5516**DCL-ENT
M$XMOUSE    5553**DCL-ENT
M$XXX    5519**DCL-ENT
M$YC    5521**DCL-ENT
XSS$TRECV      19**PROC

PL6.E3A0      #003=XSS$EVENT File=XSS$COMM.:XSA1TSI                              WED 10/01/97 12:09 Page:83
      307        1        /*T***********************************************************/
      308        2        /*T*                                                         */
      309        3        /*T* Copyright (c) Bull HN Information Systems Inc., 1997    */
      310        4        /*T*                                                         */
      311        5        /*T***********************************************************/
      312        6        /*F*
      313        7                NAME:   XSS$EVENT
      314        8                PURPOSE:
      315        9                    This routine saves information pertaining to a Session event for
      316       10                    later processing when the application calls XSS$COMMWAIT.
      317       11                DESCRIPTION:
      318       12                    This routine is called from either the XSS library event handler
      319       13                    XSS$TRECV or the application's event handler, depending on how
      320       14                    the application initialized Session.  Certain information about
      321       15                    the event is saved for later processing when the application calls
      322       16                    XSS$COMMWAIT.
      323       17        */
      324       18        XSS$EVENT: PROC( B$EXCFR) ALTRET;
      325       19        %INCLUDE CP_6;
      326     5578            %B$EXCFR( STCLASS=);
      327     5596            %F$DCB;
      328     5653            %VLP_STATION( FPTN=B$STATION, STCLASS="BASED( LASTSTA$)");
      329     5680        %INCLUDE K_ADDRESS_M;
      330     6183        %INCLUDE XSS_SESSION_E;
      331     6748        %INCLUDE XSS_INTERNAL_E;
      332     7046        %INCLUDE XSS_INTERNAL_M;
      333     7635            %XSS$SCTX( NAME=SCTX, STCLASS="BASED( CTX$)");
      334     8069        %MACRO FATALDEF( NAME=XSS_FATAL, STCLASS="CONSTANT SYMDEF", LVL=1, LAST=";",
      335     8070                         ERR#=0, SEV=7);
      336     8071            %VLP_ERRCODE( FPTN=NAME, STCLASS=STCLASS, FCG='XS', MID='S',
      337     8072                          MON='0'B, ERR#=ERR#, SEV=SEV);
      338     8073        %MEND;
      339     8074        %INCLUDE XSC_PERR_C;
      340     8151            %FATALDEF( NAME=XSS_F$READDONE, ERR#=%F$READDONE);
      341     8199            /*E*  ERROR:  XSS-F$READDONE-7
      342     8200                MESSAGE:  Unexpected M$READ activation.
      343     8201            */
PL6.E3A0      #003=XSS$EVENT File=XSS$COMM.:XSA1TSI                              WED 10/01/97 12:09 Page:84
      344     8202
      345     8203    1       DCL XSS$CTXPTR ENTRY(2) ALTRET;
      346     8204    1       DCL XSS$SCREECH ENTRY(1);
      347     8205    1       DCL XSS$EVLOG ENTRY(2);
      348     8206
      349     8207    1       DCL XSS_EVENTED BIT(1) SYMREF;
      350     8208    1       DCL XSS_EVHDX UBIN HALF HALIGNED SYMREF;
      351     8209    1       DCL XSS_EVTLX UBIN HALF HALIGNED SYMREF;
      352     8210
      353     8211    1       DCL CTX$ PTR;
      354     8212    1       DCL EVENT# SBIN;
      355     8213    1       DCL LASTSTA$ PTR;
      356     8214    1       DCL SCID SBIN;
      357     8215    1       DCL TEMP SBIN;
      358     8216
      359     8217            /* this entire procedure is INHIBITED to avoid TCB overflow */
      360     8218    2       DO INHIBIT;
      361     8219    2           EVENT# = B$EXCFR.EVID;
      362     8220    2           IF %XSS_EVID ~= EVENT# / 512 THEN
      363     8221                    /* application's event handler thought this event was ours */
      364     8222    2               ALTRETURN;
      365     8223    2           SCID = MOD( EVENT#, 512);
      366     8224    2           CALL XSS$EVLOG( 'EV', SCID);
      367     8225    2           CALL XSS$CTXPTR( SCID, CTX$) ALTRET( SKIPIT);  /* INHIBITED */
      368     8226    2           IF SCTX.TERMINATING THEN
      369     8227    2   SKIPIT:     /* just ignore this event */
      370     8228    2               RETURN;
      371     8229    2           IF SCTX.LATCH.PRESENT THEN
      372     8230    2               CALL XSS$SCREECH( XSS_F$READDONE);
      373     8231    2           XSS_EVENTED = %TRUE;
      374     8232    2           SCTX.LATCH.PRESENT = %TRUE;
      375     8233    2           SCTX.LATCH.ADMIN = %FALSE;
      376     8234    2           LASTSTA$ = DCBADDR( SCTX.DCB#)->F$DCB.LASTSTA$;
      377     8235    2           IF LASTSTA$ = ADDR( NIL) THEN
      378     8236    2               SCTX.LATCH.STATION = ' ';
      379     8237    3           ELSE DO;
      380     8238    3               SCTX.LATCH.STATION = B$STATION.STATION#;
PL6.E3A0      #003=XSS$EVENT File=XSS$COMM.:XSA1TSI                              WED 10/01/97 12:09 Page:85
      381     8239    3               IF B$STATION.MSGTYP# = '*AUEV   ' THEN
      382     8240    3                   SCTX.LATCH.ADMIN = %TRUE;
      383     8241    3               END;
      384     8242    2           SCTX.LATCH.ERRCODE = B$EXCFR.ERR;
      385     8243    2           CALL XSS$EVLOG( , B$EXCFR.ERR);
      386     8244             /* SCTX.LATCH.MSG$ always the same */
      387     8245    2           SCTX.LATCH.MSGSZ = DCBADDR( SCTX.DCB#)->F$DCB.ARS#;
      388     8246                /* insert this context block onto the event queue */
      389     8247    2           IF XSS_EVTLX = %NULL THEN
      390     8248    2               XSS_EVHDX = SCID;
      391     8249    3           ELSE DO;
      392     8250    3               TEMP = XSS_EVTLX;
      393     8251    3               CALL XSS$CTXPTR( TEMP, CTX$);  /* Note change to CTX$ */
      394     8252    3               SCTX.LATCH.LNKX = SCID;
      395     8253    3               END;
      396     8254    2           XSS_EVTLX = SCID;
      397     8255                /* done with this event */
      398     8256    2           RETURN;
      399     8257    2           END;
      400     8258
      401     8259    1       END XSS$EVENT;
      402     8260        %EOD;

PL6.E3A0      #003=XSS$EVENT File=XSS$COMM.:XSA1TSI                              WED 10/01/97 12:09 Page:86
--  Include file information  --

   XSC_PERR_C.:XSA1TOU  is referenced.
   XSS_INTERNAL_M.:XSA1TOU  is referenced.
   XSS_INTERNAL_E.:XSA1TOU  is referenced.
   XSS_SESSION_E.:XSA1TOU  is referenced.
   K_ADDRESS_M.:LIB_E05  is referenced.
   CP_6_C.:LIB_E05  is referenced.
   CP_6.:LIB_E05  cannot be made into a system file and is referenced.
      No diagnostics issued in procedure XSS$EVENT.

   Procedure XSS$EVENT requires 111 words for executable code.
   Procedure XSS$EVENT requires 12 words of local(AUTO) storage.

PL6.E3A0      #003=XSS$EVENT File=XSS$COMM.:XSA1TSI                              WED 10/01/97 12:09 Page:87

 Object Unit name= XSS$EVENT                                  File name= XSS$COMM.:XSA1TOU
 UTS= OCT 01 '97 12:09:21.84 WED                              Compiler= PL-6/E31         Sev=      00
 SharedLib= :SHARED_SYSTEM                                    Alt SharedLib=


    ****  Control sections  ****

 Sect   Type Bound  Init  Size OctSiz  Section name(segment info)
    0   DCB   even  none     0      0  M$UC
    1  RoData even  UTS      4      4  XSS$EVENT
    2   Proc  even  none   111    157  XSS$EVENT
    3  RoData even  none     9     11  XSS$EVENT

    ****  Entry defs  ****

                              Check   Calling
                             calling  sequence
  Sect OctLoc Primary Altret sequence   type   Parms  Name
     2      0   yes    yes     yes      Std        1  XSS$EVENT

  ****  Data defs  ****

 Sect OctLoc  Name                           Sect OctLoc  Name
    1      0  XSS_F$READDONE

  ****  Entry refs  ****

         Check        Calling
        calling       sequence
Altret sequence SRef   type   Args  Name
         yes           Std       2 XSS$EVLOG
         yes           Std       1 XSS$SCREECH
 yes     yes           Std       2 XSS$CTXPTR
                       nStd      0 X66_AUTO_1
                       nStd      0 X66_AALT
                       nStd      0 X66_ARET
PL6.E3A0      #003=XSS$EVENT File=XSS$COMM.:XSA1TSI                              WED 10/01/97 12:09 Page:88

  ****  Data refs  ****

  Flags:  r = read only, s = secondary
Flgs Name                             Flgs Name                             Flgs Name
     M$UC                                  XSS_EVENTED                           XSS_EVHDX
     XSS_EVTLX

  ****  Segment refs  ****

  Flags:  r = read only, s = secondary
Flgs Name                             Flgs Name                             Flgs Name
     ROSID                                 NULLSID                               ISSID
PL6.E3A0      #003=XSS$EVENT File=XSS$COMM.:XSA1TSI                              WED 10/01/97 12:09 Page:89


      307        1        /*T***********************************************************/
      308        2        /*T*                                                         */
      309        3        /*T* Copyright (c) Bull HN Information Systems Inc., 1997    */
      310        4        /*T*                                                         */
      311        5        /*T***********************************************************/
      312        6        /*F*
      313        7                NAME:   XSS$EVENT
      314        8                PURPOSE:
      315        9                    This routine saves information pertaining to a Session event for
      316       10                    later processing when the application calls XSS$COMMWAIT.
      317       11                DESCRIPTION:
      318       12                    This routine is called from either the XSS library event handler
      319       13                    XSS$TRECV or the application's event handler, depending on how
      320       14                    the application initialized Session.  Certain information about
      321       15                    the event is saved for later processing when the application calls
      322       16                    XSS$COMMWAIT.
      323       17        */
      324       18        XSS$EVENT: PROC( B$EXCFR) ALTRET;

     18  2 000000   000000 700200 xent  XSS$EVENT    TSX0  ! X66_AUTO_1
         2 000001   000014 000001                    ZERO    12,1

      325       19        %INCLUDE CP_6;
      326     5578            %B$EXCFR( STCLASS=);
      327     5596            %F$DCB;
      328     5653            %VLP_STATION( FPTN=B$STATION, STCLASS="BASED( LASTSTA$)");
      329     5680        %INCLUDE K_ADDRESS_M;
      330     6183        %INCLUDE XSS_SESSION_E;
      331     6748        %INCLUDE XSS_INTERNAL_E;
      332     7046        %INCLUDE XSS_INTERNAL_M;
      333     7635            %XSS$SCTX( NAME=SCTX, STCLASS="BASED( CTX$)");
      334     8069        %MACRO FATALDEF( NAME=XSS_FATAL, STCLASS="CONSTANT SYMDEF", LVL=1, LAST=";",
      335     8070                         ERR#=0, SEV=7);
      336     8071            %VLP_ERRCODE( FPTN=NAME, STCLASS=STCLASS, FCG='XS', MID='S',
      337     8072                          MON='0'B, ERR#=ERR#, SEV=SEV);
      338     8073        %MEND;
PL6.E3A0      #003=XSS$EVENT File=XSS$COMM.:XSA1TSI                              WED 10/01/97 12:09 Page:90
      339     8074        %INCLUDE XSC_PERR_C;
      340     8151            %FATALDEF( NAME=XSS_F$READDONE, ERR#=%F$READDONE);
      341     8199            /*E*  ERROR:  XSS-F$READDONE-7
      342     8200                MESSAGE:  Unexpected M$READ activation.
      343     8201            */
      344     8202
      345     8203    1       DCL XSS$CTXPTR ENTRY(2) ALTRET;
      346     8204    1       DCL XSS$SCREECH ENTRY(1);
      347     8205    1       DCL XSS$EVLOG ENTRY(2);
      348     8206
      349     8207    1       DCL XSS_EVENTED BIT(1) SYMREF;
      350     8208    1       DCL XSS_EVHDX UBIN HALF HALIGNED SYMREF;
      351     8209    1       DCL XSS_EVTLX UBIN HALF HALIGNED SYMREF;
      352     8210
      353     8211    1       DCL CTX$ PTR;
      354     8212    1       DCL EVENT# SBIN;
      355     8213    1       DCL LASTSTA$ PTR;
      356     8214    1       DCL SCID SBIN;
      357     8215    1       DCL TEMP SBIN;
      358     8216
      359     8217            /* this entire procedure is INHIBITED to avoid TCB overflow */
      360     8218    2       DO INHIBIT;

      361     8219    2           EVENT# = B$EXCFR.EVID;

   8219  2 000002   200003 470700                    LDP0  ! @B$EXCFR,,AUTO
         2 000003   000101 235300                    LDA   ! 65,,PR0
         2 000004   200005 755300                    STA   ! EVENT#,,AUTO

      362     8220    2           IF %XSS_EVID ~= EVENT# / 512 THEN

   8220  2 000005   200005 236300                    LDQ   ! EVENT#,,AUTO
         2 000006   001000 506207                    DIV   ! 512,DL
         2 000007   000000 116200 3                  CMPQ  ! 0
         2 000010   000012 600200 2                  TZE   ! s:8223

      363     8221                    /* application's event handler thought this event was ours */
PL6.E3A0      #003=XSS$EVENT File=XSS$COMM.:XSA1TSI                              WED 10/01/97 12:09 Page:91
      364     8222    2               ALTRETURN;

   8222  2 000011   000000 702200 xent               TSX2  ! X66_AALT

      365     8223    2           SCID = MOD( EVENT#, 512);

   8223  2 000012   200005 236300                    LDQ   ! EVENT#,,AUTO
         2 000013   001000 506207                    DIV   ! 512,DL
         2 000014   200007 755300                    STA   ! SCID,,AUTO

      366     8224    2           CALL XSS$EVLOG( 'EV', SCID);

   8224  2 000015   200007 631700                    EPPR1 ! SCID,,AUTO
         2 000016   200013 451700                    STP1  ! TEMP+3,,AUTO
         2 000017   000002 236200 3                  LDQ   ! 2
         2 000020   200012 756300                    STQ   ! TEMP+2,,AUTO
         2 000021   200012 630700                    EPPR0 ! TEMP+2,,AUTO
         2 000022   000001 631600 3                  EPPR1 ! 1
         2 000023   000000 701200 xent               TSX1  ! XSS$EVLOG
         2 000024   000000 011200                    NOP   ! 0

      367     8225    2           CALL XSS$CTXPTR( SCID, CTX$) ALTRET( SKIPIT);  /* INHIBITED */

   8225  2 000025   200004 630700                    EPPR0 ! CTX$,,AUTO
         2 000026   200013 450700                    STP0  ! TEMP+3,,AUTO
         2 000027   200007 631700                    EPPR1 ! SCID,,AUTO
         2 000030   200012 451700                    STP1  ! TEMP+2,,AUTO
         2 000031   200012 630700                    EPPR0 ! TEMP+2,,AUTO
         2 000032   000001 631600 3                  EPPR1 ! 1
         2 000033   000000 701200 xent               TSX1  ! XSS$CTXPTR
         2 000034   000041 702200 2                  TSX2  ! SKIPIT

      368     8226    2           IF SCTX.TERMINATING THEN

   8226  2 000035   200004 470700                    LDP0  ! CTX$,,AUTO
         2 000036   000013 236300                    LDQ   ! 11,,PR0
         2 000037   002000 316207                    CANQ  ! 1024,DL
PL6.E3A0      #003=XSS$EVENT File=XSS$COMM.:XSA1TSI                              WED 10/01/97 12:09 Page:92
         2 000040   000042 600200 2                  TZE   ! s:8229

      369     8227    2   SKIPIT:     /* just ignore this event */
      370     8228    2               RETURN;

   8228  2 000041   000000 702200 xent  SKIPIT       TSX2  ! X66_ARET

      371     8229    2           IF SCTX.LATCH.PRESENT THEN

   8229  2 000042   000035 234300                    SZN   ! 29,,PR0
         2 000043   000050 605200 2                  TPL   ! s:8231

      372     8230    2               CALL XSS$SCREECH( XSS_F$READDONE);

   8230  2 000044   000004 630600 3                  EPPR0 ! 4
         2 000045   000003 631600 3                  EPPR1 ! 3
         2 000046   000000 701200 xent               TSX1  ! XSS$SCREECH
         2 000047   000000 011200                    NOP   ! 0

      373     8231    2           XSS_EVENTED = %TRUE;

   8231  2 000050   400000 236203                    LDQ   ! -131072,DU
         2 000051   000000 756200 xsym               STQ   ! XSS_EVENTED

      374     8232    2           SCTX.LATCH.PRESENT = %TRUE;

   8232  2 000052   200004 470700                    LDP0  ! CTX$,,AUTO
         2 000053   000035 256300                    ORSQ  ! 29,,PR0

      375     8233    2           SCTX.LATCH.ADMIN = %FALSE;

   8233  2 000054   000005 236200 3                  LDQ   ! 5
         2 000055   000035 356300                    ANSQ  ! 29,,PR0

      376     8234    2           LASTSTA$ = DCBADDR( SCTX.DCB#)->F$DCB.LASTSTA$;

   8234  2 000056   000006 471600 3                  LDP1  ! 6
PL6.E3A0      #003=XSS$EVENT File=XSS$COMM.:XSA1TSI                              WED 10/01/97 12:09 Page:93
         2 000057   100000 473700                    LDP3  ! 0,,PR1
         2 000060   000033 720300                    LXL0  ! 27,,PR0
         2 000061   300000 474710                    LDP4  ! 0,X0,PR3
         2 000062   400007 236300                    LDQ   ! 7,,PR4
         2 000063   200006 756300                    STQ   ! LASTSTA$,,AUTO

      377     8235    2           IF LASTSTA$ = ADDR( NIL) THEN

   8235  2 000064   000007 116200 3                  CMPQ  ! 7
         2 000065   000073 601200 2                  TNZ   ! s:8238

      378     8236    2               SCTX.LATCH.STATION = ' ';

   8236  2 000066   000010 235200 3                  LDA   ! 8
         2 000067   000010 236200 3                  LDQ   ! 8
         2 000070   000041 755300                    STA   ! 33,,PR0
         2 000071   000042 756300                    STQ   ! 34,,PR0
         2 000072   000105 710200 2                  TRA   ! s:8242

      379     8237    3           ELSE DO;

      380     8238    3               SCTX.LATCH.STATION = B$STATION.STATION#;

   8238  2 000073   200006 475700                    LDP5  ! LASTSTA$,,AUTO
         2 000074   040100 100700                    MLR   ! fill='040'O
         2 000075   500000 000010                    ADSC9   0,,PR5                   cn=0,n=8
         2 000076   000041 000010                    ADSC9   33,,PR0                  cn=0,n=8

      381     8239    3               IF B$STATION.MSGTYP# = '*AUEV   ' THEN

   8239  2 000077   040000 106700                    CMPC  ! fill='040'O
         2 000100   500002 000010                    ADSC9   2,,PR5                   cn=0,n=8
         2 000101   000002 000010 1                  ADSC9   XSS_F$READDONE+2         cn=0,n=8
         2 000102   000105 601200 2                  TNZ   ! s:8242

      382     8240    3                   SCTX.LATCH.ADMIN = %TRUE;

PL6.E3A0      #003=XSS$EVENT File=XSS$COMM.:XSA1TSI                              WED 10/01/97 12:09 Page:94
   8240  2 000103   200000 236203                    LDQ   ! 65536,DU
         2 000104   000035 256300                    ORSQ  ! 29,,PR0

      383     8241    3               END;

      384     8242    2           SCTX.LATCH.ERRCODE = B$EXCFR.ERR;

   8242  2 000105   200003 475700                    LDP5  ! @B$EXCFR,,AUTO
         2 000106   500102 236300                    LDQ   ! 66,,PR5
         2 000107   000040 756300                    STQ   ! 32,,PR0

      385     8243    2           CALL XSS$EVLOG( , B$EXCFR.ERR);

   8243  2 000110   200003 236300                    LDQ   ! @B$EXCFR,,AUTO
         2 000111   000102 036203                    ADLQ  ! 66,DU
         2 000112   000007 235200 3                  LDA   ! 7
         2 000113   200012 757300                    STAQ  ! TEMP+2,,AUTO
         2 000114   200012 630700                    EPPR0 ! TEMP+2,,AUTO
         2 000115   000001 631600 3                  EPPR1 ! 1
         2 000116   000000 701200 xent               TSX1  ! XSS$EVLOG
         2 000117   000000 011200                    NOP   ! 0

      386     8244             /* SCTX.LATCH.MSG$ always the same */
      387     8245    2           SCTX.LATCH.MSGSZ = DCBADDR( SCTX.DCB#)->F$DCB.ARS#;

   8245  2 000120   000006 470600 3                  LDP0  ! 6
         2 000121   000000 471700                    LDP1  ! 0,,PR0
         2 000122   200004 473700                    LDP3  ! CTX$,,AUTO
         2 000123   300033 720300                    LXL0  ! 27,,PR3
         2 000124   100000 474710                    LDP4  ! 0,X0,PR1
         2 000125   400000 235300                    LDA   ! 0,,PR4
         2 000126   300037 755300                    STA   ! 31,,PR3

      388     8246                /* insert this context block onto the event queue */
      389     8247    2           IF XSS_EVTLX = %NULL THEN

   8247  2 000127   000000 221200 xsym               LDX1  ! XSS_EVTLX
PL6.E3A0      #003=XSS$EVENT File=XSS$COMM.:XSA1TSI                              WED 10/01/97 12:09 Page:95
         2 000130   777777 101203                    CMPX1 ! -1,DU
         2 000131   000135 601200 2                  TNZ   ! s:8250

      390     8248    2               XSS_EVHDX = SCID;

   8248  2 000132   200007 722300                    LXL2  ! SCID,,AUTO
         2 000133   000000 742200 xsym               STX2  ! XSS_EVHDX
         2 000134   000153 710200 2                  TRA   ! s:8254

      391     8249    3           ELSE DO;

      392     8250    3               TEMP = XSS_EVTLX;

   8250  2 000135   000000 236200 xsym               LDQ   ! XSS_EVTLX
         2 000136   000022 772200                    QRL   ! 18
         2 000137   200010 756300                    STQ   ! TEMP,,AUTO

      393     8251    3               CALL XSS$CTXPTR( TEMP, CTX$);  /* Note change to CTX$ */

   8251  2 000140   200004 635700                    EPPR5 ! CTX$,,AUTO
         2 000141   200013 455700                    STP5  ! TEMP+3,,AUTO
         2 000142   200010 636700                    EPPR6 ! TEMP,,AUTO
         2 000143   200012 456700                    STP6  ! TEMP+2,,AUTO
         2 000144   200012 630700                    EPPR0 ! TEMP+2,,AUTO
         2 000145   000001 631600 3                  EPPR1 ! 1
         2 000146   000000 701200 xent               TSX1  ! XSS$CTXPTR
         2 000147   000000 011200                    NOP   ! 0

      394     8252    3               SCTX.LATCH.LNKX = SCID;

   8252  2 000150   200007 720300                    LXL0  ! SCID,,AUTO
         2 000151   200004 470700                    LDP0  ! CTX$,,AUTO
         2 000152   000035 440300                    SXL0  ! 29,,PR0

      395     8253    3               END;

      396     8254    2           XSS_EVTLX = SCID;
PL6.E3A0      #003=XSS$EVENT File=XSS$COMM.:XSA1TSI                              WED 10/01/97 12:09 Page:96

   8254  2 000153   200007 720300                    LXL0  ! SCID,,AUTO
         2 000154   000000 740200 xsym               STX0  ! XSS_EVTLX

      397     8255                /* done with this event */
      398     8256    2           RETURN;

   8256  2 000155   000000 702200 xent               TSX2  ! X66_ARET

      399     8257    2           END;

      400     8258
      401     8259    1       END XSS$EVENT;

   8259  2 000156   000000 702200 xent               TSX2  ! X66_ARET

XSS_F$READDONE
 Sect OctLoc
   1     000   302323 001447                                                    ....

(unnamed)
 Sect OctLoc
   1     001   105126 040040   052101 125105   126040 040040                    EV  *AUEV

(unnamed)
 Sect OctLoc
   3     000   000130 123123   000002 000000   000001 006000   000001 000000    .XSS............
   3     004   000000 006000   577777 777777   000000 006003   000000 006014    ................
   3     010   040040 040040
      402     8260        %EOD;

PL6.E3A0      #003=XSS$EVENT File=XSS$COMM.:XSA1TSI                              WED 10/01/97 12:09 Page:97
--  Include file information  --

   XSC_PERR_C.:XSA1TOU  is referenced.
   XSS_INTERNAL_M.:XSA1TOU  is referenced.
   XSS_INTERNAL_E.:XSA1TOU  is referenced.
   XSS_SESSION_E.:XSA1TOU  is referenced.
   K_ADDRESS_M.:LIB_E05  is referenced.
   CP_6_C.:LIB_E05  is referenced.
   CP_6.:LIB_E05  cannot be made into a system file and is referenced.
      No diagnostics issued in procedure XSS$EVENT.
PL6.E3A0      #003=XSS$EVENT File=XSS$COMM.:XSA1TSI                              WED 10/01/97 12:09 Page:98

 **** Variables and constants ****

  ****  Section 001 RoData XSS$EVENT

  ****  Scalars and arrays  ****
OctLoc.c.b A Datatyp(siz) R M Lvl/name                 OctLoc.c.b A Datatyp(siz) R M Lvl/name

     0-0-0/w STRC        r     1 XSS_F$READDONE

  ****  Auto variables  ****

  ****  Scalars and arrays  ****
OctLoc.c.b A Datatyp(siz) R M Lvl/name                 OctLoc.c.b A Datatyp(siz) R M Lvl/name

     3-0-0/w PTR         r     1 @B$EXCFR                  *0-0-0/w STRC(2448)  r     1 B$EXCFR
     4-0-0/w PTR         r     1 CTX$                       5-0-0/w SBIN        r     1 EVENT#
     6-0-0/w PTR         r     1 LASTSTA$                   7-0-0/w SBIN        r     1 SCID
    10-0-0/w SBIN        r     1 TEMP

  ****  SYMREF variables  ****

  ****  Scalars and arrays  ****
OctLoc.c.b A Datatyp(siz) R M Lvl/name                 OctLoc.c.b A Datatyp(siz) R M Lvl/name

     0-0-0/b BIT         r     1 XSS_EVENTED                0-0-0/h UBIN(18)    r     1 XSS_EVHDX
     0-0-0/h UBIN(18)    r     1 XSS_EVTLX

  ****  BASED and DCB variables  ****

  ****  Scalars and arrays  ****
OctLoc.c.b A Datatyp(siz) R M Lvl/name                 OctLoc.c.b A Datatyp(siz) R M Lvl/name

     0-0-0/w STRC(288)   r     1 B$STATION                  0-0-0/d ASTR(3528)  r     1 F$DCB
     0-0-0/w STRC(1260)  r     1 SCTX

PL6.E3A0      #003=XSS$EVENT File=XSS$COMM.:XSA1TSI                              WED 10/01/97 12:09 Page:99

   Procedure XSS$EVENT requires 111 words for executable code.
   Procedure XSS$EVENT requires 12 words of local(AUTO) storage.
PL6.E3A0      #003=XSS$EVENT File=XSS$COMM.:XSA1TSI                              WED 10/01/97 12:09 Page:100
          *** CROSS REFERENCE LISTING ***
**     DENOTES     IDENTIFIER DEFINITION
<<                 IDENTIFIER'S VALUE SET
>>                 IDENTIFIER'S VALUE USED
<>                 IDENTIFIER SET AND/OR USED
--                 IDENTIFIER REFERENCED
PL6.E3A0      #003=XSS$EVENT File=XSS$COMM.:XSA1TSI                              WED 10/01/97 12:09 Page:101
          MINI XREF LISTING

B$EXCFR
      5579**DCL        18--PROC
B$EXCFR.ASL
      5579**DCL      5579--REDEF
B$EXCFR.ERR
      5593**DCL      8242>>ASSIGN   8243<>CALL
B$EXCFR.ERR.ERR#
      5593**DCL      5593--REDEF
B$EXCFR.EVID
      5592**DCL      5592--REDEF    5593--REDEF    8219>>ASSIGN
B$EXCFR.IR
      5580**DCL      5580--REDEF
B$EXCFR.PREVSZ
      5579**DCL      5579--REDEF
B$EXCFR.SUBC
      5591**DCL      5591--REDEF    5592--REDEF    5592--REDEF
B$STATION.MSGIDXT
      5675**DCL      5678--REDEF
B$STATION.MSGTYP#
      5669**DCL      8239>>IF
B$STATION.STATION#
      5669**DCL      8238>>ASSIGN
CTX$
      8211**DCL      7653--IMP-PTR  8225<>CALL     8226>>IF       8229>>IF       8232>>ASSIGN   8233>>ASSIGN
      8234>>ASSIGN   8236>>ASSIGN   8238>>ASSIGN   8240>>ASSIGN   8242>>ASSIGN   8245>>ASSIGN   8245>>ASSIGN
      8251<>CALL     8252>>ASSIGN
EVENT#
      8212**DCL      8219<<ASSIGN   8220>>IF       8223>>ASSIGN
F$DCB.ACTPOS
      5629**DCL      5629--REDEF
F$DCB.ARS#
      5603**DCL      5603--REDEF    8245>>ASSIGN
PL6.E3A0      #003=XSS$EVENT File=XSS$COMM.:XSA1TSI                              WED 10/01/97 12:09 Page:102
F$DCB.ATTR
      5622**DCL      5623--REDEF
F$DCB.BORROW
      5637**DCL      5637--REDEF    5637--REDEF    5637--REDEF
F$DCB.DCBNAME.L
      5651**DCL      5651--IMP-SIZ
F$DCB.EOMCHAR#
      5607**DCL      5607--REDEF
F$DCB.FLDID
      5632**DCL      5632--REDEF
F$DCB.FORM$
      5626**DCL      5626--REDEF
F$DCB.FSECT
      5642**DCL      5642--REDEF
F$DCB.FSN#
      5619**DCL      5619--REDEF    5619--REDEF    5620--REDEF
F$DCB.HEADER$
      5625**DCL      5625--REDEF
F$DCB.IXTNSIZE#
      5623**DCL      5623--REDEF
F$DCB.LASTSTA$
      5612**DCL      5612--REDEF    8234>>ASSIGN
F$DCB.LVL
      5638**DCL      5638--REDEF
F$DCB.NAME#.C
      5613**DCL      5613--REDEF
F$DCB.NOEOF
      5635**DCL      5635--REDEF
F$DCB.NRECS#
      5624**DCL      5624--REDEF
F$DCB.NRECX
      5643**DCL      5643--REDEF
F$DCB.OHDR
      5635**DCL      5635--REDEF
F$DCB.ORG#
      5618**DCL      5618--REDEF
PL6.E3A0      #003=XSS$EVENT File=XSS$COMM.:XSA1TSI                              WED 10/01/97 12:09 Page:103
F$DCB.PRECNO
      5641**DCL      5641--REDEF
F$DCB.RCSZ
      5647**DCL      5647--REDEF
F$DCB.RES#
      5614**DCL      5614--REDEF
F$DCB.SETX
      5626**DCL      5626--REDEF
F$DCB.TAB$
      5626**DCL      5626--REDEF
F$DCB.TDA
      5640**DCL      5641--REDEF
F$DCB.WSN#
      5614**DCL      5614--REDEF
LASTSTA$
      8213**DCL      5665--IMP-PTR  8234<<ASSIGN   8235>>IF       8238>>ASSIGN   8239>>IF
SCID
      8214**DCL      8223<<ASSIGN   8224<>CALL     8225<>CALL     8248>>ASSIGN   8252>>ASSIGN   8254>>ASSIGN
SCTX.DCB#
      7982**DCL      8234--ASSIGN   8245--ASSIGN
SCTX.HISTZ
      7967**DCL      7968--REDEF
SCTX.LATCH.ADMIN
      8016**DCL      8233<<ASSIGN   8240<<ASSIGN
SCTX.LATCH.ERRCODE
      8035**DCL      8242<<ASSIGN
SCTX.LATCH.LNKX
      8018**DCL      8252<<ASSIGN
SCTX.LATCH.MSGSZ
      8020**DCL      8245<<ASSIGN
SCTX.LATCH.PRESENT
      8015**DCL      8229>>IF       8232<<ASSIGN
SCTX.LATCH.STATION
      8066**DCL      8236<<ASSIGN   8238<<ASSIGN
SCTX.TERMINATING
      7947**DCL      8226>>IF
PL6.E3A0      #003=XSS$EVENT File=XSS$COMM.:XSA1TSI                              WED 10/01/97 12:09 Page:104
SKIPIT
      8228**LABEL    8225--CALLALT
TEMP
      8215**DCL      8250<<ASSIGN   8251<>CALL
XSS$CTXPTR
      8203**DCL-ENT  8225--CALL     8251--CALL
XSS$EVLOG
      8205**DCL-ENT  8224--CALL     8243--CALL
XSS$SCREECH
      8204**DCL-ENT  8230--CALL
XSS_EVENTED
      8207**DCL      8231<<ASSIGN
XSS_EVHDX
      8208**DCL      8248<<ASSIGN
XSS_EVTLX
      8209**DCL      8247>>IF       8250>>ASSIGN   8254<<ASSIGN
XSS_F$READDONE
      8165**DCL      8230<>CALL
PL6.E3A0      #003=XSS$EVENT File=XSS$COMM.:XSA1TSI                              WED 10/01/97 12:09 Page:105
              *** CROSS REFERENCE LISTING ***
    **     DENOTES     IDENTIFIER DEFINITION
    <<                 IDENTIFIER'S VALUE SET
    >>                 IDENTIFIER'S VALUE USED
    <>                 IDENTIFIER SET AND/OR USED
    --                 IDENTIFIER REFERENCED
PL6.E3A0      #003=XSS$EVENT File=XSS$COMM.:XSA1TSI                              WED 10/01/97 12:09 Page:106
              MINI UREF LISTING

M$ACCT    5523**DCL-ENT
M$ACTIVATE    5526**DCL-ENT
M$ALIB    5519**DCL-ENT
M$ASUSER    5521**DCL-ENT
M$ATTACH    5528**DCL-ENT
M$BADPP    5546**DCL-ENT
M$CGCTL    5527**DCL-ENT
M$CGINFO    5527**DCL-ENT
M$CHECK    5508**DCL-ENT
M$CHGUNIT    5566**DCL-ENT
M$CLOSE    5506**DCL-ENT
M$CLRSTK    5564**DCL-ENT
M$CMDVAR    5575**DCL-ENT
M$CONFIG    5536**DCL-ENT
M$CORRES    5511**DCL-ENT
M$CPEXIT    5520**DCL-ENT
M$CVM    5544**DCL-ENT
M$CVOL    5509**DCL-ENT
M$DCLFLD    5536**DCL-ENT
M$DEACTIVATE    5526**DCL-ENT
M$DELREC    5508**DCL-ENT
M$DEQ    5573**DCL-ENT
M$DETACH    5528**DCL-ENT
M$DEVICE    5510**DCL-ENT
M$DISPLAY    5573**DCL-ENT
M$DISPRES    5513**DCL-ENT
M$DLIB    5519**DCL-ENT
M$DRIBBLE    5536**DCL-ENT
M$DRTN    5564**DCL-ENT
M$DSUSER    5521**DCL-ENT
M$ENQ    5572**DCL-ENT
M$EOM    5531**DCL-ENT
PL6.E3A0      #003=XSS$EVENT File=XSS$COMM.:XSA1TSI                              WED 10/01/97 12:09 Page:107
M$ERASE    5537**DCL-ENT
M$ERR    5518**DCL-ENT
M$ERRMSG    5569**DCL-ENT
M$EVENT    5561**DCL-ENT
M$EXHUME    5570**DCL-ENT
M$EXIT    5518**DCL-ENT
M$EXTEND    5510**DCL-ENT
M$FDP    5542**DCL-ENT
M$FDS    5541**DCL-ENT
M$FEBOOT    5534**DCL-ENT
M$FECTL    5535**DCL-ENT
M$FEDUMP    5534**DCL-ENT
M$FID    5569**DCL-ENT
M$FINDPROC    5523**DCL-ENT
M$FSUSER    5521**DCL-ENT
M$FVP    5543**DCL-ENT
M$FWCG    5527**DCL-ENT
M$GBPL    5547**DCL-ENT
M$GDDL    5543**DCL-ENT
M$GDP    5542**DCL-ENT
M$GDS    5541**DCL-ENT
M$GETDCB    5512**DCL-ENT
M$GETMOUSE    5552**DCL-ENT
M$GETPM    5553**DCL-ENT
M$GJOB    5571**DCL-ENT
M$GLINEATTR    5531**DCL-ENT
M$GOODPP    5546**DCL-ENT
M$GPLATEN    5539**DCL-ENT
M$GPROMPT    5538**DCL-ENT
M$GTRMATTR    5532**DCL-ENT
M$GTRMCTL    5530**DCL-ENT
M$GTRMTAB    5533**DCL-ENT
M$GVP    5542**DCL-ENT
M$HELP    5569**DCL-ENT
M$INT    5561**DCL-ENT
M$INTRTN    5522**DCL-ENT
PL6.E3A0      #003=XSS$EVENT File=XSS$COMM.:XSA1TSI                              WED 10/01/97 12:09 Page:108
M$IOQ    5557**DCL-ENT
M$JOBSTATS    5571**DCL-ENT
M$KEYIN    5511**DCL-ENT
M$LDEV    5506**DCL-ENT
M$LDTRC    5519**DCL-ENT
M$LIMIT    5512**DCL-ENT
M$LINES    5511**DCL-ENT
M$LINK    5518**DCL-ENT
M$MADMUCK    5514**DCL-ENT
M$MAKUSER    5545**DCL-ENT
M$MBS    5513**DCL-ENT
M$MDFFLD    5537**DCL-ENT
M$MERC    5562**DCL-ENT
M$MERCS    5563**DCL-ENT
M$MIRROR    5557**DCL-ENT
M$MONINFO    5574**DCL-ENT
M$MPL    5547**DCL-ENT
M$NODEINFO    5538**DCL-ENT
M$NXTUSR    5572**DCL-ENT
M$OCMSG    5570**DCL-ENT
M$OLAY    5518**DCL-ENT
M$OPEN    5506**DCL-ENT
M$PAS    5547**DCL-ENT
M$PATHCON    5570**DCL-ENT
M$PDS    5541**DCL-ENT
M$PFIL    5508**DCL-ENT
M$PLATEN    5532**DCL-ENT
M$PRECORD    5510**DCL-ENT
M$PROCNAME    5523**DCL-ENT
M$PROFILE    5534**DCL-ENT
M$PROMPT    5530**DCL-ENT
M$RACST    5514**DCL-ENT
M$RDSYSLOG    5555**DCL-ENT
M$READ    5507**DCL-ENT
M$RELDCB    5512**DCL-ENT
M$RELRES    5513**DCL-ENT
PL6.E3A0      #003=XSS$EVENT File=XSS$COMM.:XSA1TSI                              WED 10/01/97 12:09 Page:109
M$RELSTARF    5515**DCL-ENT
M$REM    5515**DCL-ENT
M$RENV    5562**DCL-ENT
M$REQUIRE    5514**DCL-ENT
M$RETRY    5563**DCL-ENT
M$RETRYS    5563**DCL-ENT
M$REW    5509**DCL-ENT
M$RLSFLD    5537**DCL-ENT
M$RPRIV    5565**DCL-ENT
M$RSPP    5544**DCL-ENT
M$RSWITCH    5566**DCL-ENT
M$RUE    5572**DCL-ENT
M$SAD    5545**DCL-ENT
M$SAVE    5521**DCL-ENT
M$SCON    5522**DCL-ENT
M$SCREECH    5520**DCL-ENT
M$SENV    5562**DCL-ENT
M$SETFMA    5506**DCL-ENT
M$SETFP    5535**DCL-ENT
M$SINPUT    5533**DCL-ENT
M$SLCFLD    5538**DCL-ENT
M$SMOUSE    5552**DCL-ENT
M$SMPRT    5544**DCL-ENT
M$SPRIV    5565**DCL-ENT
M$SSC    5545**DCL-ENT
M$SSWITCH    5565**DCL-ENT
M$STATE    5574**DCL-ENT
M$STD    5546**DCL-ENT
M$STIMER    5560**DCL-ENT
M$STLPP    5543**DCL-ENT
M$STRAP    5560**DCL-ENT
M$STRMATTR    5532**DCL-ENT
M$STRMCTL    5530**DCL-ENT
M$STRMTAB    5533**DCL-ENT
M$SYMBIO    5571**DCL-ENT
M$SYSCON    5557**DCL-ENT
PL6.E3A0      #003=XSS$EVENT File=XSS$COMM.:XSA1TSI                              WED 10/01/97 12:09 Page:110
M$SYSID    5575**DCL-ENT
M$TDCLOSE    5556**DCL-ENT
M$TDIO    5556**DCL-ENT
M$TDOPEN    5555**DCL-ENT
M$TDREQCPU    5556**DCL-ENT
M$TEMPWROC    5550**DCL-ENT
M$TIME    5573**DCL-ENT
M$TRAP    5560**DCL-ENT
M$TRMISC    5535**DCL-ENT
M$TRMPRG    5531**DCL-ENT
M$TRTN    5564**DCL-ENT
M$TRUNC    5507**DCL-ENT
M$TTIMER    5560**DCL-ENT
M$UC    5530**DCL
M$UMPL    5547**DCL-ENT
M$UNFID    5569**DCL-ENT
M$UNLATCH    5526**DCL-ENT
M$UNSHARE    5523**DCL-ENT
M$USRFIELD    5566**DCL-ENT
M$VIRTUAL    5541**DCL-ENT
M$WAIT    5564**DCL-ENT
M$WEOF    5509**DCL-ENT
M$WRITE    5507**DCL-ENT
M$WRSYSLOG    5555**DCL-ENT
M$XCON    5561**DCL-ENT
M$XCONRTN    5522**DCL-ENT
M$XEQTIME    5574**DCL-ENT
M$XFLUSH    5515**DCL-ENT
M$XMOUSE    5552**DCL-ENT
M$XXX    5518**DCL-ENT
M$YC    5520**DCL-ENT
XSS$EVENT      18**PROC

