PL6.E3A0      #005=XSS$COMMINIT File=XSS$COMM.:XSA1TSI                           WED 10/01/97 12:11 Page:225
      983        1        /*T***********************************************************/
      984        2        /*T*                                                         */
      985        3        /*T* Copyright (c) Bull HN Information Systems Inc., 1997    */
      986        4        /*T*                                                         */
      987        5        /*T***********************************************************/
      988        6        /*F*
      989        7                NAME:   XSS$COMMINIT
      990        8                PURPOSE:
      991        9                    This module sets up a connection path (DCB plus context) for a
      992       10                    client or server application.
      993       11                DESCRIPTION:
      994       12                    The sole parameter to this routine is an XSS$CCB which
      995       13                    specifies various things about the path.
      996       14        */
      997       15        XSS$COMMINIT: PROC( CCB) ALTRET;
      998       16        %INCLUDE XSS_INTERNAL_E;
      999      314        %INCLUDE B_SEGIDS_C;
     1000      853        %INCLUDE B$JIT_C;
     1001     1167            %B$JIT0;
     1002     1256            %U$JIT1X;
     1003     1259            %M$JIT2;
     1004     1269            %F$JIT3X;
     1005     1272            %S$JIT4X;
     1006     1275            %J$JIT5;
     1007     1363            %A$JIT6X;
     1008     1366        %INCLUDE K_ADDRESS_M;
     1009     1869        %INCLUDE CP_6;
     1010     7428            %B$ALT;
     1011     7436            %B$TCB;
     1012     7439            %F$DCB;
     1013     7496            %FPT_ATTACH( FPTN=AUATT);
     1014     7511            %FPT_ATTACH( FPTN=AUDET);
     1015     7526            %FPT_CGCTL( FPTN=CGCTL, CGCP=CGCP);
     1016     7549            %FPT_CLOSE( FPTN=AUCLS, DISP=RELEASE);
     1017     7591            %FPT_CLOSE( FPTN=NCCLS, DISP=SAVE);
     1018     7633            %FPT_EVENT( UENTRY=XSS$TRECV);
     1019     7647            %FPT_GETDCB( DCBNAME=DCBNAME, DCBNUM=DCBN);
PL6.E3A0      #005=XSS$COMMINIT File=XSS$COMM.:XSA1TSI                           WED 10/01/97 12:11 Page:226
     1020     7662            %VLP_NAME( FPTN=DCBNAME, NAME='M$XSS');
     1021     7689            %FPT_OPEN( FPTN=AUOPN, ACCT=ACCT, SETSTA=AUSETSTA, CTG=YES,
     1022     7690                       ASN=COMGROUP, AU=YES, SHARE=ALL, FUN=CREATE, EXIST=NEWFILE,
     1023     7691                       IXTNSIZE=%XTNSIZE, XTNSIZE=%XTNSIZE);
     1024     7800            %FPT_OPEN( FPTN=NCOPN, RES='NC', ASN=DEVICE);
     1025     7909            %FPT_OPEN( FPTN=NCOPNDBG, ACCT=ACCT, SETSTA=NCSETSTA,
     1026     7910                       ASN=COMGROUP, AU=NO, SHARE=ALL, FUN=UPDATE);
     1027     8019            %VLP_ACCT( FPTN=ACCT, ACCT=':OSICG');
     1028     8032        %EQU DWARN = %((%XTNSIZE+4)/4);
     1029     8033            %VLP_CGCP( FPTN=CGCP, MAXMC=%BUFSIZE, DISKWARN=%DWARN,
     1030     8034                       MAXPG=20, MEMWARN=4, MEMWARNP=YES);
     1031     8077            %VLP_ERRCODE( FPTN=ERRCODE);
     1032     8122            %VLP_SETSTA( FPTN=AUSETSTA, MYSTATION='SERVER');
     1033     8150            %VLP_SETSTA( FPTN=NCSETSTA);
     1034     8178        %INCLUDE XSC_COMMON_M;
     1035     8831            %XSC$CCB;
     1036     9128            %XSC$CCB( NAME=CCB, STCLASS="");
     1037     9425            %XSC$ADDRESS;
     1038     9708            %XSC$ADDRESS( NAME=UADR, STCLASS="BASED( CCB.ADDR$)");
     1039     9991        %INCLUDE XSS_SESSION_E;
     1040    10556        %INCLUDE XSS_SESSION_M;
     1041    13199            %XSS$GENERIC( STCLASS="BASED( FPT$)");
     1042    13345            %XSS$GENERIC( FPTN=XSS_GENERIC, STCLASS=SYMREF);
     1043    13491        %INCLUDE XSS_INTERNAL_M;
     1044    14080            %XSS$SCTX( NAME=SCTX, STCLASS="BASED( CTX$)");
     1045    14514        %MACRO ERRORDEF( NAME=XSS_ERROR, STCLASS="CONSTANT SYMDEF", LVL=1, LAST=";",
     1046    14515                         ERR#=0, SEV=0);
     1047    14516            %VLP_ERRCODE( FPTN=NAME, STCLASS=STCLASS, FCG='XS', MID='S',
     1048    14517                          MON='0'B, ERR#=ERR#, SEV=SEV);
     1049    14518        %MEND;
     1050    14519        %INCLUDE XSC_PERR_C;
     1051    14596            %ERRORDEF( NAME=XSS_E$ADDR, ERR#=%E$ADDR);
     1052    14644            /*E*  ERROR:  XSS-E$ADDR-0
     1053    14645                MESSAGE:  CCB.ADDR$ contains an illegal value.
     1054    14646            */
     1055    14647            %ERRORDEF( NAME=XSS_E$BADCID, STCLASS=SYMREF);
     1056    14695            %ERRORDEF( NAME=XSS_E$DEFAULTDCB, ERR#=%E$DEFAULTDCB);
PL6.E3A0      #005=XSS$COMMINIT File=XSS$COMM.:XSA1TSI                           WED 10/01/97 12:11 Page:227
     1057    14743            /*E*  ERROR:  XSS-E$DEFAULTDCB-0
     1058    14744                MESSAGE:  CCB.DCB# unspecified and default DCB in use.
     1059    14745            */
     1060    14746            %ERRORDEF( NAME=XSS_E$NODYNMEM, ERR#=%E$NODYNMEM);
     1061    14794            /*E*  ERROR:  XSS-E$NODYNMEM-0
     1062    14795                MESSAGE:  Dynamic memory space has been exhausted.
     1063    14796            */
     1064    14797            %ERRORDEF( NAME=XSS_E$NOGETDCB, ERR#=%E$NOGETDCB);
     1065    14845            /*E*  ERROR:  XSS-E$NOGETDCB-0
     1066    14846                MESSAGE:  CCB.DCB# unspecified and can't get a DCB.
     1067    14847            */
     1068    14848            %ERRORDEF( NAME=XSS_E$RDONLYCCB, ERR#=%E$RDONLYCCB);
     1069    14896            /*E*  ERROR:  XSS-E$RDONLYCCB-0
     1070    14897                MESSAGE:  CCB is read-only; must be writeable.
     1071    14898            */
     1072    14899
     1073    14900    1       DCL XSS$CLOCK ENTRY(2);
     1074    14901    1       DCL XSS$COMMWAITX ENTRY(1) ALTRET;
     1075    14902    1       DCL XSS$BUFPTR ENTRY(2) ALTRET;
     1076    14903    1       DCL XSS$CTXPTR ENTRY(2) ALTRET;
     1077    14904    1       DCL XSS$EVENT ENTRY(1) ALTRET;
     1078    14905    1       DCL XSS$GETCTX ENTRY(2) ALTRET;
     1079    14906    1       DCL XSS$GETMEM ENTRY(3) ALTRET;
     1080    14907    1       DCL XSS$RELCTX ENTRY(1) ALTRET;
     1081    14908    1       DCL XSS$RELMEM ENTRY(1) ALTRET;
     1082    14909    1       DCL XSS$SCREECH ENTRY(1);
     1083    14910    1       DCL XSS$TRECV ENTRY ASYNC;
     1084    14911    1       DCL XSS$EVLOG ENTRY(2);
     1085    14912
     1086    14913    1       DCL B$JIT$ PTR SYMREF;
     1087    14914    1       DCL B$TCB$ PTR SYMREF;
     1088    14915    1       DCL XSS_CCB$$ PTR SYMREF;
     1089    14916
     1090    14917    1       DCL BUF$ PTR;
     1091    14918    1       DCL CCB$(0:0) PTR BASED( XSS_CCB$$) ALIGNED;
     1092    14919    1       DCL CHAR8 CHAR(8) BASED CALIGNED;
     1093    14920    1       DCL CTX$ PTR;
PL6.E3A0      #005=XSS$COMMINIT File=XSS$COMM.:XSA1TSI                           WED 10/01/97 12:11 Page:228
     1094    14921    1       DCL DCBN SBIN STATIC INIT( DCBNUM( NIL));
     1095    14922    1       DCL EVENTINITED BIT(1) STATIC INIT( %FALSE);
     1096    14923    1       DCL FPT$ PTR;
     1097    14924    1       DCL P PTR;
     1098    14925    1       DCL 1 PX REDEF P,
     1099    14926    1            2 OFFSET UBIN(18) UNAL,
     1100    14927    1            2 * BIT(6) UNAL,
     1101    14928    1            2 SEGID BIT(12) UNAL;
     1102    14929    1       DCL SCID SBIN;
     1103    14930    1       DCL TEMP SBIN;
     1104    14931    1       DCL TSAPBYTES CHAR( TSAPLEN) BASED( TSAPPTR$) CALIGNED;
     1105    14932    1       DCL TSAPLEN SBIN;
     1106    14933    1       DCL TSAPPTR$ PTR;
     1107    14934    1       DCL 1 UNIQUE,
     1108    14935    1            2 DCB# CHAR(2) UNAL,
     1109    14936    1            2 LNKCNT CHAR(1) UNAL,
     1110    14937    1            2 SYSID CHAR(5) UNAL;
     1111    14938    1       DCL XSS_DEBUG UBIN STATIC SYMDEF INIT( 0);
     1112    14939    1       DCL XSS_EVENT$ EPTR STATIC SYMDEF INIT( ENTADDR( NIL));
     1113    14940    1       DCL XSS_ITRACE SBIN STATIC SYMDEF INIT( 0);
     1114    14941    1       DCL XSS_OTRACE SBIN STATIC SYMDEF INIT( 0);
     1115    14942    1       DCL XSS_TRACE SBIN STATIC SYMDEF INIT( 0);
     1116    14943
     1117    14944    1       SCID = 0;
     1118    14945    1       CALL XSS$EVLOG( 'KI', 262143);
     1119    14946    1       P = ADDR( CCB);
     1120    14947    2       IF PX.SEGID = %ISSID THEN DO;
     1121    14948    2           TEMP = 64 + PX.OFFSET / 1024;  /* page number of CCB's page */
     1122    14949    3           IF TEMP >= B$JIT.PLL AND TEMP <= B$JIT.PUL THEN DO;
     1123    14950                    /* user's CCB was allocated in CONSTANT storage */
     1124    14951    3               IF CCB.ERROR = XSS_E$RDONLYCCB THEN
     1125    14952    3                   ALTRETURN;
     1126    14953    3               CALL XSS$SCREECH( XSS_E$RDONLYCCB);
     1127    14954    3               END;
     1128    14955    2           END;
     1129    14956    1       CCB.ERROR = '0'B;
     1130    14957    2       IF CCB.FLAGS.ACTIVE THEN DO;
PL6.E3A0      #005=XSS$COMMINIT File=XSS$COMM.:XSA1TSI                           WED 10/01/97 12:11 Page:229
     1131    14958    2           ERRCODE = XSS_E$BADCID;
     1132    14959    2           GOTO NOTIFY;
     1133    14960    2           END;
     1134    14961            /* user must supply an XSC$ADDRESS structure */
     1135    14962    2       IF CCB.ADDR$ = ADDR( NIL) THEN DO;
     1136    14963    2           ERRCODE = XSS_E$ADDR;
     1137    14964    2           GOTO NOTIFY;
     1138    14965    2           END;
     1139    14966            /* figure out which DCB to use, default or specified */
     1140    14967    2       IF CCB.DCB# = DCBNUM( NIL) THEN DO;
     1141    14968    3           IF DCBN = DCBNUM( NIL) THEN DO;
     1142    14969    3               CALL XSS$EVLOG( 'GT', 262143);
     1143    14970    3               CALL M$GETDCB( FPT_GETDCB)
     1144    14971    4               WHENALTRETURN DO;
     1145    14972    4                   ERRCODE = XSS_E$NOGETDCB;
     1146    14973    4                   GOTO NOTIFY;
     1147    14974    4                   END;
     1148    14975    3               END;
     1149    14976    3           IF DCBADDR( DCBN)->F$DCB.FCD# THEN DO;
     1150    14977                    /* default DCB is already open */
     1151    14978    3               ERRCODE = XSS_E$DEFAULTDCB;
     1152    14979    3               GOTO NOTIFY;
     1153    14980    3               END;
     1154    14981    2           CCB.DCB# = DCBN;
     1155    14982    2           END;
     1156    14983            /* allocate space for Session parameter block */
     1157    14984    1       CALL XSS$GETMEM( CCB.SFPTX, FPT$, SIZEC( XSS$GENERIC)) ALTRET( NODYNMEM);
     1158    14985            /* allocate space for Session connection context and read buffer */
     1159    14986    1       CALL XSS$GETCTX( CTX$, BUF$)
     1160    14987    2       WHENALTRETURN DO;
     1161    14988                /* some kind of problem.. throw away Session param blk too */
     1162    14989    2           CALL XSS$RELMEM( CCB.SFPTX);
     1163    14990    2           CCB.SFPTX = %NULL;
     1164    14991    2   NODYNMEM:
     1165    14992    2           ERRCODE = XSS_E$NODYNMEM;
     1166    14993    2           GOTO NOTIFY;
     1167    14994    2           END;
PL6.E3A0      #005=XSS$COMMINIT File=XSS$COMM.:XSA1TSI                           WED 10/01/97 12:11 Page:230
     1168    14995            /* set up some stuff for Session */
     1169    14996    1       CCB.LCID = SCTX.SCID;
     1170    14997    1       XSS$GENERIC = XSS_GENERIC;
     1171    14998    1       XSS$GENERIC.SCID = SCTX.SCID;
     1172    14999    1       SCID = SCTX.SCID;
     1173    15000    1       SCTX.DCB# = CCB.DCB#;
     1174    15001    1       SCTX.MODE = 1 + BITBIN( CCB.FLAGS.MODE);
     1175    15002    1       SCTX.ENTRY$ = CCB.SESS$;
     1176    15003    1       SCTX.BLOCKING = CCB.FLAGS.BLOCKING;
     1177    15004        %EJECT;
PL6.E3A0      #005=XSS$COMMINIT File=XSS$COMM.:XSA1TSI                           WED 10/01/97 12:11 Page:231
     1178    15005            /* open the DCB */
     1179    15006    1       TSAPLEN = 1 + UADR.TSAP.LEN;
     1180    15007    1       TSAPPTR$ = PINCRC( ADDR( UADR.TSAP.TSAP), -1);  /* make TEXTC */
     1181    15008    2       DO CASE( SCTX.MODE);
     1182    15009    2           CASE( %CLIENT);
     1183    15010    3               IF XSS_DEBUG = 0 THEN DO;
     1184    15011    3                   NCOPN.NAME_ = VECTOR( TSAPBYTES);
     1185    15012    3                   NCOPN.V.DCB# = SCTX.DCB#;
     1186    15013    3                   CALL XSS$EVLOG( 'OP', SCID);
     1187    15014    3                   CALL M$OPEN( NCOPN) ALTRET( OPNERR);
     1188    15015    3                   END;
     1189    15016    3               ELSE DO;
     1190    15017                        /* figure out 'unique' station name */
     1191    15018    3                   CALL BINCHAR( UNIQUE.DCB#, SCTX.DCB#);
     1192    15019    3                   CALL BINCHAR( UNIQUE.LNKCNT, B$JIT.LNKCNT);
     1193    15020    3                   CALL BINCHAR( UNIQUE.SYSID, B$JIT.SYSID);
     1194    15021    3                   NCSETSTA.MYSTATION# = ADDR( UNIQUE)->CHAR8;
     1195    15022    3                   NCOPNDBG.NAME_ = VECTOR( TSAPBYTES);
     1196    15023    3                   NCOPNDBG.V.DCB# = SCTX.DCB#;
     1197    15024    3                   CALL XSS$EVLOG( 'OP', SCID);
     1198    15025    3                   CALL M$OPEN( NCOPNDBG) ALTRET( OPNERR);
     1199    15026    3                   END;
     1200    15027    2           CASE( %SERVER);
     1201    15028    2               AUOPN.NAME_ = VECTOR( TSAPBYTES);
     1202    15029    2               AUOPN.V.DCB# = SCTX.DCB#;
     1203    15030    2               CALL XSS$EVLOG( 'OP', SCID);
     1204    15031    2               CALL M$OPEN( AUOPN) ALTRET( OPNERR);
     1205    15032    2               CGCTL.V.DCB# = SCTX.DCB#;
     1206    15033    2               CALL M$CGCTL( CGCTL) ALTRET( CTLERR);
     1207    15034    3               IF XSS_DEBUG = 0 THEN DO;
     1208    15035                        /* attach the monitor terminal station */
     1209    15036    3                   AUATT.TSAP_ = VECTOR( UADR.TSAP);
     1210    15037    3                   AUATT.V.DCB# = SCTX.DCB#;
     1211    15038    3                   CALL M$ATTACH( AUATT) ALTRET( ATTERR);
     1212    15039    3                   SCTX.STATION = 'MONITOR ';
     1213    15040    3                   END;
     1214    15041    2           END;
PL6.E3A0      #005=XSS$COMMINIT File=XSS$COMM.:XSA1TSI                           WED 10/01/97 12:11 Page:232
     1215    15042        %EJECT;
PL6.E3A0      #005=XSS$COMMINIT File=XSS$COMM.:XSA1TSI                           WED 10/01/97 12:11 Page:233
     1216    15043            /* set up event handler linkage */
     1217    15044    1       IF CCB.FLAGS.EVALID AND CCB.EVNT$ = ENTADDR( NIL) THEN
     1218    15045                /* Appl will handle events; tell it our handler's address */
     1219    15046    1           CCB.EVNT$ = ENTADDR( XSS$EVENT);
     1220    15047    1       ELSE
     1221    15048                /* We will handle events; remember appl's handler too */
     1222    15049    2           IF NOT EVENTINITED THEN DO;
     1223    15050    2               CALL M$EVENT( FPT_EVENT);
     1224    15051    2               IF CCB.FLAGS.EVALID THEN
     1225    15052    2                   XSS_EVENT$ = CCB.EVNT$;  /* this might be NIL, o.k. */
     1226    15053    2               ELSE
     1227    15054    2                   XSS_EVENT$ = ENTADDR( NIL);
     1228    15055    2               EVENTINITED = %TRUE;
     1229    15056    2               END;
     1230    15057            /* issue no-wait read to the DCB */
     1231    15058    2       IF SCTX.MODE = %SERVER THEN DO;
     1232    15059    2           CALL XSS$COMMWAITX( CCB)
     1233    15060    3           WHENALTRETURN DO;
     1234    15061    3               IF SCTX.LATCH.PRESENT THEN
     1235    15062    4                   IF SCTX.LATCH.ERRCODE THEN DO;
     1236    15063    4                       ERRCODE = SCTX.LATCH.ERRCODE;
     1237    15064    4                       GOTO NOTIFY;
     1238    15065    4                       END;
     1239    15066    3               END;
     1240    15067    2           END;
     1241    15068    1       ELSE
     1242    15069    1           SCTX.NEEDAREAD = %TRUE;
     1243    15070    1       CCB.FLAGS.ACTIVE = %TRUE;
     1244    15071            /* copy user's version of address to internal slot */
     1245    15072    1       CALL XSS$BUFPTR( SCTX.SRCX, BUF$);
     1246    15073    1       BUF$->XSC$ADDRESS = UADR;
     1247    15074            /* save user's CCB in internal slot too */
     1248    15075    1       CCB$( CCB.LCID)->XSC$CCB = CCB;
     1249    15076    1       RETURN;
     1250    15077        %EJECT;
PL6.E3A0      #005=XSS$COMMINIT File=XSS$COMM.:XSA1TSI                           WED 10/01/97 12:11 Page:234
     1251    15078    1   OPNERR: ;
     1252    15079    1   CLSERR: ;
     1253    15080    1   ATTERR: ;
     1254    15081    1   DETERR: ;
     1255    15082    1   CTLERR:
     1256    15083    1       ERRCODE = B$TCB$->B$TCB.ALT$->B$ALT.ERR;
     1257    15084    1   NOTIFY:
     1258    15085    1       CALL XSS$EVLOG( 'ER', SCID);
     1259    15086    1       CALL XSS$EVLOG( , ERRCODE);
     1260    15087    1       CCB.ERROR = ERRCODE;
     1261    15088    1       ALTRETURN;
     1262    15089        %EJECT;
PL6.E3A0      #005=XSS$COMMINIT File=XSS$COMM.:XSA1TSI                           WED 10/01/97 12:11 Page:235
     1263    15090        /*F*
     1264    15091                NAME:   XSS$COMMTERM
     1265    15092                PURPOSE:
     1266    15093                    Tear down a connection path (DCB plus context) for a client or
     1267    15094                    server application.
     1268    15095        */
     1269    15096    1   XSS$COMMTERM: ENTRY( CCB) ALTRET;
     1270    15097
     1271    15098    1       CTX$ = ADDR( NIL);
     1272    15099            /* point at Session connection context */
     1273    15100    1       SCID = CCB.LCID;
     1274    15101    1       CALL XSS$EVLOG( 'KT', SCID);
     1275    15102    1       CALL XSS$CTXPTR( SCID, CTX$)
     1276    15103    2       WHENRETURN DO;
     1277    15104                /* mark context as terminated */
     1278    15105    2           SCTX.TERMINATING = %TRUE;
     1279    15106    2           END;
     1280    15107    2       WHENALTRETURN DO;
     1281    15108                /* either connection was aborted by state machine, or user error */
     1282    15109    3           IF NOT CCB.FLAGS.ACTIVE THEN DO;
     1283    15110    3               ERRCODE = XSS_E$BADCID;
     1284    15111    3               GOTO NOTIFY;
     1285    15112    3               END;
     1286    15113    2           END;
     1287    15114            /* close the DCB */
     1288    15115    2       IF CCB.FLAGS.MODE THEN DO;
     1289    15116                /* this is a server endpoint */
     1290    15117    3           IF XSS_DEBUG = 0 THEN DO;
     1291    15118                    /* detach the monitor terminal station */
     1292    15119    3               AUDET.V.DCB# = CCB.DCB#;
     1293    15120                    /* CALL M$DETACH( AUDET) ALTRET( DETERR);
     1294    15121                       The above monitor call was commented out because of a
     1295    15122                       timing problem.  CG Terminal disconnect runs off the
     1296    15123                       clock, and sometimes the CG AU DCB close below gets
     1297    15124                       done before the MONITOR terminal station has been
     1298    15125                       closed, getting the application stuck SQA forever.
     1299    15126                       It turns out the CG AU DCB close will do everything
PL6.E3A0      #005=XSS$COMMINIT File=XSS$COMM.:XSA1TSI                           WED 10/01/97 12:11 Page:236
     1300    15127                       necessary anyway.  Consistently too.                 */
     1301    15128    3               END;
     1302    15129    2           AUCLS.V.DCB# = CCB.DCB#;
     1303    15130    2           CALL XSS$EVLOG( 'CL', SCID);
     1304    15131    2           CALL M$CLOSE( AUCLS) ALTRET( CLSERR);
     1305    15132    2           END;
     1306    15133    2       ELSE DO;
     1307    15134                /* this is a client endpoint */
     1308    15135    2           NCCLS.V.DCB# = CCB.DCB#;
     1309    15136    2           CALL XSS$EVLOG( 'CL', SCID);
     1310    15137    2           CALL M$CLOSE( NCCLS) ALTRET( CLSERR);
     1311    15138    2           END;
     1312    15139            /* release Session connection context */
     1313    15140    2       IF CTX$ ~= ADDR( NIL) THEN DO;
     1314    15141    2           IF SCTX.ALARM THEN
     1315    15142    2               CALL XSS$CLOCK( %CANCLK, CCB.LCID);
     1316    15143    2           CALL XSS$RELCTX( CTX$);
     1317    15144    2           END;
     1318    15145            /* release Session parameter block */
     1319    15146    2       IF CCB.SFPTX ~= %NULL THEN DO;
     1320    15147    2           CALL XSS$RELMEM( CCB.SFPTX);
     1321    15148    2           CCB.SFPTX = %NULL;
     1322    15149    2           END;
     1323    15150    1       CCB.FLAGS.ACTIVE = %FALSE;
     1324    15151    1       RETURN;
     1325    15152
     1326    15153    1       END XSS$COMMINIT;

PL6.E3A0      #005=XSS$COMMINIT File=XSS$COMM.:XSA1TSI                           WED 10/01/97 12:11 Page:237
--  Include file information  --

   XSC_PERR_C.:XSA1TOU  is referenced.
   XSS_INTERNAL_M.:XSA1TOU  is referenced.
   XSS_SESSION_M.:XSA1TOU  is referenced.
   XSS_SESSION_E.:XSA1TOU  is referenced.
   XSC_COMMON_M.:XSA1TOU  is referenced.
   CP_6_C.:LIB_E05  is referenced.
   CP_6.:LIB_E05  cannot be made into a system file and is referenced.
   K_ADDRESS_M.:LIB_E05  is referenced.
   B$JIT_C.:LIB_E05  is referenced.
   B_SEGIDS_C.:LIB_E05  is referenced.
   XSS_INTERNAL_E.:XSA1TOU  is referenced.
      No diagnostics issued in procedure XSS$COMMINIT.

   Procedure XSS$COMMINIT requires 477 words for executable code.
   Procedure XSS$COMMINIT requires 18 words of local(AUTO) storage.

    No errors detected in file XSS$COMM.:XSA1TSI    .

PL6.E3A0      #005=XSS$COMMINIT File=XSS$COMM.:XSA1TSI                           WED 10/01/97 12:11 Page:238

 Object Unit name= XSS$COMMINIT                               File name= XSS$COMM.:XSA1TOU
 UTS= OCT 01 '97 12:11:24.60 WED                              Compiler= PL-6/E31         Sev=      00
 SharedLib= :SHARED_SYSTEM                                    Alt SharedLib=


    ****  Control sections  ****

 Sect   Type Bound  Init  Size OctSiz  Section name(segment info)
    0   DCB   even  none     0      0  M$UC
    1   Data  even  none   366    556  XSS$COMMINIT
    2  RoData even  UTS     13     15  XSS$COMMINIT
    3   Proc  even  none   477    735  XSS$COMMINIT
    4  RoData even  none    25     31  XSS$COMMINIT

    ****  Entry defs  ****

                              Check   Calling
                             calling  sequence
  Sect OctLoc Primary Altret sequence   type   Parms  Name
     3      0   yes    yes     yes      Std        1  XSS$COMMINIT
     3    557          yes     yes      Std        1  XSS$COMMTERM

  ****  Data defs  ****

 Sect OctLoc  Name                           Sect OctLoc  Name
    2      0  XSS_E$ADDR                         2      1  XSS_E$DEFAULTDCB
    2      2  XSS_E$NODYNMEM                     2      3  XSS_E$NOGETDCB
    2      4  XSS_E$RDONLYCCB                    1    551  XSS_DEBUG
    1    552  XSS_EVENT$                         1    553  XSS_ITRACE
    1    554  XSS_OTRACE                         1    555  XSS_TRACE
PL6.E3A0      #005=XSS$COMMINIT File=XSS$COMM.:XSA1TSI                           WED 10/01/97 12:11 Page:239

  ****  Entry refs  ****

         Check        Calling
        calling       sequence
Altret sequence SRef   type   Args  Name
         yes          Async      0 XSS$TRECV
         yes           Std       2 XSS$EVLOG
         yes           Std       1 XSS$SCREECH
 yes     yes           Std       3 XSS$GETMEM
 yes     yes           Std       1 XSS$COMMWAITX
 yes     yes           Std       2 XSS$GETCTX
 yes     yes           Std       1 XSS$EVENT
 yes     yes           Std       2 XSS$BUFPTR
         yes           Std       2 XSS$CLOCK
 yes     yes           Std       1 XSS$RELMEM
 yes     yes           Std       1 XSS$RELCTX
 yes     yes           Std       2 XSS$CTXPTR
                       nStd      0 X66_AUTO_1
                       nStd      0 X66_AALT
                       nStd      0 X66_ARET

  ****  Data refs  ****

  Flags:  r = read only, s = secondary
Flgs Name                             Flgs Name                             Flgs Name
     M$UC                                  XSS_GENERIC                           XSS_E$BADCID
     B$JIT$                                B$TCB$                                XSS_CCB$$

  ****  Segment refs  ****

  Flags:  r = read only, s = secondary
Flgs Name                             Flgs Name                             Flgs Name
     ISSID                                 NULLSID                               ROSID
PL6.E3A0      #005=XSS$COMMINIT File=XSS$COMM.:XSA1TSI                           WED 10/01/97 12:11 Page:240


      983        1        /*T***********************************************************/
      984        2        /*T*                                                         */
      985        3        /*T* Copyright (c) Bull HN Information Systems Inc., 1997    */
      986        4        /*T*                                                         */
      987        5        /*T***********************************************************/
      988        6        /*F*
      989        7                NAME:   XSS$COMMINIT
      990        8                PURPOSE:
      991        9                    This module sets up a connection path (DCB plus context) for a
      992       10                    client or server application.
      993       11                DESCRIPTION:
      994       12                    The sole parameter to this routine is an XSS$CCB which
      995       13                    specifies various things about the path.
      996       14        */
      997       15        XSS$COMMINIT: PROC( CCB) ALTRET;

     15  3 000000   000000 700200 xent  XSS$COMMINIT TSX0  ! X66_AUTO_1
         3 000001   000022 000001                    ZERO    18,1

      998       16        %INCLUDE XSS_INTERNAL_E;
      999      314        %INCLUDE B_SEGIDS_C;
     1000      853        %INCLUDE B$JIT_C;
     1001     1167            %B$JIT0;
     1002     1256            %U$JIT1X;
     1003     1259            %M$JIT2;
     1004     1269            %F$JIT3X;
     1005     1272            %S$JIT4X;
     1006     1275            %J$JIT5;
     1007     1363            %A$JIT6X;
     1008     1366        %INCLUDE K_ADDRESS_M;
     1009     1869        %INCLUDE CP_6;
     1010     7428            %B$ALT;
     1011     7436            %B$TCB;
     1012     7439            %F$DCB;
     1013     7496            %FPT_ATTACH( FPTN=AUATT);
     1014     7511            %FPT_ATTACH( FPTN=AUDET);
PL6.E3A0      #005=XSS$COMMINIT File=XSS$COMM.:XSA1TSI                           WED 10/01/97 12:11 Page:241
     1015     7526            %FPT_CGCTL( FPTN=CGCTL, CGCP=CGCP);
     1016     7549            %FPT_CLOSE( FPTN=AUCLS, DISP=RELEASE);
     1017     7591            %FPT_CLOSE( FPTN=NCCLS, DISP=SAVE);
     1018     7633            %FPT_EVENT( UENTRY=XSS$TRECV);
     1019     7647            %FPT_GETDCB( DCBNAME=DCBNAME, DCBNUM=DCBN);
     1020     7662            %VLP_NAME( FPTN=DCBNAME, NAME='M$XSS');
     1021     7689            %FPT_OPEN( FPTN=AUOPN, ACCT=ACCT, SETSTA=AUSETSTA, CTG=YES,
     1022     7690                       ASN=COMGROUP, AU=YES, SHARE=ALL, FUN=CREATE, EXIST=NEWFILE,
     1023     7691                       IXTNSIZE=%XTNSIZE, XTNSIZE=%XTNSIZE);
     1024     7800            %FPT_OPEN( FPTN=NCOPN, RES='NC', ASN=DEVICE);
     1025     7909            %FPT_OPEN( FPTN=NCOPNDBG, ACCT=ACCT, SETSTA=NCSETSTA,
     1026     7910                       ASN=COMGROUP, AU=NO, SHARE=ALL, FUN=UPDATE);
     1027     8019            %VLP_ACCT( FPTN=ACCT, ACCT=':OSICG');
     1028     8032        %EQU DWARN = %((%XTNSIZE+4)/4);
     1029     8033            %VLP_CGCP( FPTN=CGCP, MAXMC=%BUFSIZE, DISKWARN=%DWARN,
     1030     8034                       MAXPG=20, MEMWARN=4, MEMWARNP=YES);
     1031     8077            %VLP_ERRCODE( FPTN=ERRCODE);
     1032     8122            %VLP_SETSTA( FPTN=AUSETSTA, MYSTATION='SERVER');
     1033     8150            %VLP_SETSTA( FPTN=NCSETSTA);
     1034     8178        %INCLUDE XSC_COMMON_M;
     1035     8831            %XSC$CCB;
     1036     9128            %XSC$CCB( NAME=CCB, STCLASS="");
     1037     9425            %XSC$ADDRESS;
     1038     9708            %XSC$ADDRESS( NAME=UADR, STCLASS="BASED( CCB.ADDR$)");
     1039     9991        %INCLUDE XSS_SESSION_E;
     1040    10556        %INCLUDE XSS_SESSION_M;
     1041    13199            %XSS$GENERIC( STCLASS="BASED( FPT$)");
     1042    13345            %XSS$GENERIC( FPTN=XSS_GENERIC, STCLASS=SYMREF);
     1043    13491        %INCLUDE XSS_INTERNAL_M;
     1044    14080            %XSS$SCTX( NAME=SCTX, STCLASS="BASED( CTX$)");
     1045    14514        %MACRO ERRORDEF( NAME=XSS_ERROR, STCLASS="CONSTANT SYMDEF", LVL=1, LAST=";",
     1046    14515                         ERR#=0, SEV=0);
     1047    14516            %VLP_ERRCODE( FPTN=NAME, STCLASS=STCLASS, FCG='XS', MID='S',
     1048    14517                          MON='0'B, ERR#=ERR#, SEV=SEV);
     1049    14518        %MEND;
     1050    14519        %INCLUDE XSC_PERR_C;
     1051    14596            %ERRORDEF( NAME=XSS_E$ADDR, ERR#=%E$ADDR);
PL6.E3A0      #005=XSS$COMMINIT File=XSS$COMM.:XSA1TSI                           WED 10/01/97 12:11 Page:242
     1052    14644            /*E*  ERROR:  XSS-E$ADDR-0
     1053    14645                MESSAGE:  CCB.ADDR$ contains an illegal value.
     1054    14646            */
     1055    14647            %ERRORDEF( NAME=XSS_E$BADCID, STCLASS=SYMREF);
     1056    14695            %ERRORDEF( NAME=XSS_E$DEFAULTDCB, ERR#=%E$DEFAULTDCB);
     1057    14743            /*E*  ERROR:  XSS-E$DEFAULTDCB-0
     1058    14744                MESSAGE:  CCB.DCB# unspecified and default DCB in use.
     1059    14745            */
     1060    14746            %ERRORDEF( NAME=XSS_E$NODYNMEM, ERR#=%E$NODYNMEM);
     1061    14794            /*E*  ERROR:  XSS-E$NODYNMEM-0
     1062    14795                MESSAGE:  Dynamic memory space has been exhausted.
     1063    14796            */
     1064    14797            %ERRORDEF( NAME=XSS_E$NOGETDCB, ERR#=%E$NOGETDCB);
     1065    14845            /*E*  ERROR:  XSS-E$NOGETDCB-0
     1066    14846                MESSAGE:  CCB.DCB# unspecified and can't get a DCB.
     1067    14847            */
     1068    14848            %ERRORDEF( NAME=XSS_E$RDONLYCCB, ERR#=%E$RDONLYCCB);
     1069    14896            /*E*  ERROR:  XSS-E$RDONLYCCB-0
     1070    14897                MESSAGE:  CCB is read-only; must be writeable.
     1071    14898            */
     1072    14899
     1073    14900    1       DCL XSS$CLOCK ENTRY(2);
     1074    14901    1       DCL XSS$COMMWAITX ENTRY(1) ALTRET;
     1075    14902    1       DCL XSS$BUFPTR ENTRY(2) ALTRET;
     1076    14903    1       DCL XSS$CTXPTR ENTRY(2) ALTRET;
     1077    14904    1       DCL XSS$EVENT ENTRY(1) ALTRET;
     1078    14905    1       DCL XSS$GETCTX ENTRY(2) ALTRET;
     1079    14906    1       DCL XSS$GETMEM ENTRY(3) ALTRET;
     1080    14907    1       DCL XSS$RELCTX ENTRY(1) ALTRET;
     1081    14908    1       DCL XSS$RELMEM ENTRY(1) ALTRET;
     1082    14909    1       DCL XSS$SCREECH ENTRY(1);
     1083    14910    1       DCL XSS$TRECV ENTRY ASYNC;
     1084    14911    1       DCL XSS$EVLOG ENTRY(2);
     1085    14912
     1086    14913    1       DCL B$JIT$ PTR SYMREF;
     1087    14914    1       DCL B$TCB$ PTR SYMREF;
     1088    14915    1       DCL XSS_CCB$$ PTR SYMREF;
PL6.E3A0      #005=XSS$COMMINIT File=XSS$COMM.:XSA1TSI                           WED 10/01/97 12:11 Page:243
     1089    14916
     1090    14917    1       DCL BUF$ PTR;
     1091    14918    1       DCL CCB$(0:0) PTR BASED( XSS_CCB$$) ALIGNED;
     1092    14919    1       DCL CHAR8 CHAR(8) BASED CALIGNED;
     1093    14920    1       DCL CTX$ PTR;
     1094    14921    1       DCL DCBN SBIN STATIC INIT( DCBNUM( NIL));
     1095    14922    1       DCL EVENTINITED BIT(1) STATIC INIT( %FALSE);
     1096    14923    1       DCL FPT$ PTR;
     1097    14924    1       DCL P PTR;
     1098    14925    1       DCL 1 PX REDEF P,
     1099    14926    1            2 OFFSET UBIN(18) UNAL,
     1100    14927    1            2 * BIT(6) UNAL,
     1101    14928    1            2 SEGID BIT(12) UNAL;
     1102    14929    1       DCL SCID SBIN;
     1103    14930    1       DCL TEMP SBIN;
     1104    14931    1       DCL TSAPBYTES CHAR( TSAPLEN) BASED( TSAPPTR$) CALIGNED;
     1105    14932    1       DCL TSAPLEN SBIN;
     1106    14933    1       DCL TSAPPTR$ PTR;
     1107    14934    1       DCL 1 UNIQUE,
     1108    14935    1            2 DCB# CHAR(2) UNAL,
     1109    14936    1            2 LNKCNT CHAR(1) UNAL,
     1110    14937    1            2 SYSID CHAR(5) UNAL;
     1111    14938    1       DCL XSS_DEBUG UBIN STATIC SYMDEF INIT( 0);
     1112    14939    1       DCL XSS_EVENT$ EPTR STATIC SYMDEF INIT( ENTADDR( NIL));
     1113    14940    1       DCL XSS_ITRACE SBIN STATIC SYMDEF INIT( 0);
     1114    14941    1       DCL XSS_OTRACE SBIN STATIC SYMDEF INIT( 0);
     1115    14942    1       DCL XSS_TRACE SBIN STATIC SYMDEF INIT( 0);
     1116    14943
     1117    14944    1       SCID = 0;

  14944  3 000002   200010 450100                    STZ     SCID,,AUTO

     1118    14945    1       CALL XSS$EVLOG( 'KI', 262143);

  14945  3 000003   000002 630400 4                  EPPR0   2
         3 000004   000000 631400 4                  EPPR1   0
         3 000005   000000 701000 xent               TSX1    XSS$EVLOG
PL6.E3A0      #005=XSS$COMMINIT File=XSS$COMM.:XSA1TSI                           WED 10/01/97 12:11 Page:244
         3 000006   000000 011000                    NOP     0

     1119    14946    1       P = ADDR( CCB);

  14946  3 000007   200003 236100                    LDQ     @CCB,,AUTO
         3 000010   200007 756100                    STQ     P,,AUTO

     1120    14947    2       IF PX.SEGID = %ISSID THEN DO;

  14947  3 000011   200007 236100                    LDQ     P,,AUTO
         3 000012   007777 376007                    ANQ     4095,DL
         3 000013   006000 116007                    CMPQ    3072,DL
         3 000014   000044 601000 3                  TNZ     s:14956

     1121    14948    2           TEMP = 64 + PX.OFFSET / 1024;  /* page number of CCB's page */

  14948  3 000015   200007 236100                    LDQ     P,,AUTO
         3 000016   000022 772000                    QRL     18
         3 000017   000012 772000                    QRL     10
         3 000020   000100 036007                    ADLQ    64,DL
         3 000021   200011 756100                    STQ     TEMP,,AUTO

     1122    14949    3           IF TEMP >= B$JIT.PLL AND TEMP <= B$JIT.PUL THEN DO;

  14949  3 000022   000000 470400 xsym               LDP0    B$JIT$
         3 000023   000176 236100                    LDQ     126,,PR0
         3 000024   000022 772000                    QRL     18
         3 000025   200011 116100                    CMPQ    TEMP,,AUTO
         3 000026   000044 605400 3                  TPNZ    s:14956
         3 000027   000176 236100                    LDQ     126,,PR0
         3 000030   777777 376007                    ANQ     -1,DL
         3 000031   200011 116100                    CMPQ    TEMP,,AUTO
         3 000032   000044 604000 3                  TMI     s:14956

     1123    14950                    /* user's CCB was allocated in CONSTANT storage */
     1124    14951    3               IF CCB.ERROR = XSS_E$RDONLYCCB THEN

PL6.E3A0      #005=XSS$COMMINIT File=XSS$COMM.:XSA1TSI                           WED 10/01/97 12:11 Page:245
  14951  3 000033   200003 471500                    LDP1    @CCB,,AUTO
         3 000034   100001 236100                    LDQ     1,,PR1
         3 000035   000004 116000 2                  CMPQ    XSS_E$RDONLYCCB
         3 000036   000040 601000 3                  TNZ     s:14953

     1125    14952    3                   ALTRETURN;

  14952  3 000037   000000 702200 xent               TSX2  ! X66_AALT

     1126    14953    3               CALL XSS$SCREECH( XSS_E$RDONLYCCB);

  14953  3 000040   000005 630400 4                  EPPR0   5
         3 000041   000004 631400 4                  EPPR1   4
         3 000042   000000 701000 xent               TSX1    XSS$SCREECH
         3 000043   000000 011000                    NOP     0

     1127    14954    3               END;

     1128    14955    2           END;

     1129    14956    1       CCB.ERROR = '0'B;

  14956  3 000044   200003 470500                    LDP0    @CCB,,AUTO
         3 000045   000001 450100                    STZ     1,,PR0

     1130    14957    2       IF CCB.FLAGS.ACTIVE THEN DO;

  14957  3 000046   000000 236100                    LDQ     0,,PR0
         3 000047   002000 316007                    CANQ    1024,DL
         3 000050   000054 600000 3                  TZE     s:14962

     1131    14958    2           ERRCODE = XSS_E$BADCID;

  14958  3 000051   000000 236000 xsym               LDQ     XSS_E$BADCID
         3 000052   000516 756000 1                  STQ     ERRCODE

     1132    14959    2           GOTO NOTIFY;
PL6.E3A0      #005=XSS$COMMINIT File=XSS$COMM.:XSA1TSI                           WED 10/01/97 12:11 Page:246

  14959  3 000053   000534 710000 3                  TRA     NOTIFY

     1133    14960    2           END;
     1134    14961            /* user must supply an XSC$ADDRESS structure */
     1135    14962    2       IF CCB.ADDR$ = ADDR( NIL) THEN DO;

  14962  3 000054   000006 236100                    LDQ     6,,PR0
         3 000055   000006 116000 4                  CMPQ    6
         3 000056   000062 601000 3                  TNZ     s:14967

     1136    14963    2           ERRCODE = XSS_E$ADDR;

  14963  3 000057   000000 236000 2                  LDQ     XSS_E$ADDR
         3 000060   000516 756000 1                  STQ     ERRCODE

     1137    14964    2           GOTO NOTIFY;

  14964  3 000061   000534 710000 3                  TRA     NOTIFY

     1138    14965    2           END;
     1139    14966            /* figure out which DCB to use, default or specified */
     1140    14967    2       IF CCB.DCB# = DCBNUM( NIL) THEN DO;

  14967  3 000062   000000 220100                    LDX0    0,,PR0
         3 000063   000116 601000 3                  TNZ     s:14984

     1141    14968    3           IF DCBN = DCBNUM( NIL) THEN DO;

  14968  3 000064   000547 235000 1                  LDA     DCBN
         3 000065   000102 601000 3                  TNZ     s:14976

     1142    14969    3               CALL XSS$EVLOG( 'GT', 262143);

  14969  3 000066   000007 630400 4                  EPPR0   7
         3 000067   000000 631400 4                  EPPR1   0
         3 000070   000000 701000 xent               TSX1    XSS$EVLOG
PL6.E3A0      #005=XSS$COMMINIT File=XSS$COMM.:XSA1TSI                           WED 10/01/97 12:11 Page:247
         3 000071   000000 011000                    NOP     0

     1143    14970    3               CALL M$GETDCB( FPT_GETDCB)

  14970  3 000072   000200 630400 1                  EPPR0   FPT_GETDCB
         3 000073   460002 713400                    CLIMB   alt,+24578
         3 000074   401000 401760                    pmme    nvectors=3
         3 000075   000077 702000 3                  TSX2    s:14972
         3 000076   000102 710000 3                  TRA     s:14976

     1144    14971    4               WHENALTRETURN DO;

     1145    14972    4                   ERRCODE = XSS_E$NOGETDCB;

  14972  3 000077   000003 236000 2                  LDQ     XSS_E$NOGETDCB
         3 000100   000516 756000 1                  STQ     ERRCODE

     1146    14973    4                   GOTO NOTIFY;

  14973  3 000101   000534 710000 3                  TRA     NOTIFY

     1147    14974    4                   END;
     1148    14975    3               END;

     1149    14976    3           IF DCBADDR( DCBN)->F$DCB.FCD# THEN DO;

  14976  3 000102   000011 470400 4                  LDP0    9
         3 000103   000000 471500                    LDP1    0,,PR0
         3 000104   000547 720000 1                  LXL0    DCBN
         3 000105   100000 473510                    LDP3    0,X0,PR1
         3 000106   300031 236100                    LDQ     25,,PR3
         3 000107   020000 316007                    CANQ    8192,DL
         3 000110   000114 600000 3                  TZE     s:14981

     1150    14977                    /* default DCB is already open */
     1151    14978    3               ERRCODE = XSS_E$DEFAULTDCB;

PL6.E3A0      #005=XSS$COMMINIT File=XSS$COMM.:XSA1TSI                           WED 10/01/97 12:11 Page:248
  14978  3 000111   000001 236000 2                  LDQ     XSS_E$DEFAULTDCB
         3 000112   000516 756000 1                  STQ     ERRCODE

     1152    14979    3               GOTO NOTIFY;

  14979  3 000113   000534 710000 3                  TRA     NOTIFY

     1153    14980    3               END;
     1154    14981    2           CCB.DCB# = DCBN;

  14981  3 000114   200003 474500                    LDP4    @CCB,,AUTO
         3 000115   400000 740100                    STX0    0,,PR4

     1155    14982    2           END;

     1156    14983            /* allocate space for Session parameter block */
     1157    14984    1       CALL XSS$GETMEM( CCB.SFPTX, FPT$, SIZEC( XSS$GENERIC)) ALTRET( NODYNMEM);

  14984  3 000116   000014 236000 4                  LDQ     12
         3 000117   200020 756100                    STQ     UNIQUE+4,,AUTO
         3 000120   200006 630500                    EPPR0   FPT$,,AUTO
         3 000121   200017 450500                    STP0    UNIQUE+3,,AUTO
         3 000122   200003 236100                    LDQ     @CCB,,AUTO
         3 000123   000015 036000 4                  ADLQ    13
         3 000124   200016 756100                    STQ     UNIQUE+2,,AUTO
         3 000125   200016 630500                    EPPR0   UNIQUE+2,,AUTO
         3 000126   000012 631400 4                  EPPR1   10
         3 000127   000000 701000 xent               TSX1    XSS$GETMEM
         3 000130   000154 702000 3                  TSX2    NODYNMEM

     1158    14985            /* allocate space for Session connection context and read buffer */
     1159    14986    1       CALL XSS$GETCTX( CTX$, BUF$)

  14986  3 000131   200004 630500                    EPPR0   BUF$,,AUTO
         3 000132   200017 450500                    STP0    UNIQUE+3,,AUTO
         3 000133   200005 631500                    EPPR1   CTX$,,AUTO
         3 000134   200016 451500                    STP1    UNIQUE+2,,AUTO
PL6.E3A0      #005=XSS$COMMINIT File=XSS$COMM.:XSA1TSI                           WED 10/01/97 12:11 Page:249
         3 000135   200016 630500                    EPPR0   UNIQUE+2,,AUTO
         3 000136   000000 631400 4                  EPPR1   0
         3 000137   000000 701000 xent               TSX1    XSS$GETCTX
         3 000140   000142 702000 3                  TSX2    s:14989
         3 000141   000157 710000 3                  TRA     s:14996

     1160    14987    2       WHENALTRETURN DO;

     1161    14988                /* some kind of problem.. throw away Session param blk too */
     1162    14989    2           CALL XSS$RELMEM( CCB.SFPTX);

  14989  3 000142   200003 236100                    LDQ     @CCB,,AUTO
         3 000143   000015 036000 4                  ADLQ    13
         3 000144   200016 756100                    STQ     UNIQUE+2,,AUTO
         3 000145   200016 630500                    EPPR0   UNIQUE+2,,AUTO
         3 000146   000004 631400 4                  EPPR1   4
         3 000147   000000 701000 xent               TSX1    XSS$RELMEM
         3 000150   000000 011000                    NOP     0

     1163    14990    2           CCB.SFPTX = %NULL;

  14990  3 000151   777777 220003                    LDX0    -1,DU
         3 000152   200003 470500                    LDP0    @CCB,,AUTO
         3 000153   000005 440100                    SXL0    5,,PR0

     1164    14991    2   NODYNMEM:
     1165    14992    2           ERRCODE = XSS_E$NODYNMEM;

  14992  3 000154   000002 236000 2     NODYNMEM     LDQ     XSS_E$NODYNMEM
         3 000155   000516 756000 1                  STQ     ERRCODE

     1166    14993    2           GOTO NOTIFY;

  14993  3 000156   000534 710000 3                  TRA     NOTIFY

     1167    14994    2           END;
     1168    14995            /* set up some stuff for Session */
PL6.E3A0      #005=XSS$COMMINIT File=XSS$COMM.:XSA1TSI                           WED 10/01/97 12:11 Page:250
     1169    14996    1       CCB.LCID = SCTX.SCID;

  14996  3 000157   200005 470500                    LDP0    CTX$,,AUTO
         3 000160   200003 471500                    LDP1    @CCB,,AUTO
         3 000161   000015 236100                    LDQ     13,,PR0
         3 000162   000022 772000                    QRL     18
         3 000163   100000 552104                    STBQ    0,'04'O,PR1

     1170    14997    1       XSS$GENERIC = XSS_GENERIC;

  14997  3 000164   200006 470500                    LDP0    FPT$,,AUTO
         3 000165   000100 100400                    MLR     fill='000'O
         3 000166   000000 000070 xsym               ADSC9   XSS_GENERIC              cn=0,n=56
         3 000167   000000 000070                    ADSC9   0,,PR0                   cn=0,n=56

     1171    14998    1       XSS$GENERIC.SCID = SCTX.SCID;

  14998  3 000170   200005 470500                    LDP0    CTX$,,AUTO
         3 000171   200006 473500                    LDP3    FPT$,,AUTO
         3 000172   000015 236100                    LDQ     13,,PR0
         3 000173   300000 552120                    STBQ    0,'20'O,PR3

     1172    14999    1       SCID = SCTX.SCID;

  14999  3 000174   200005 470500                    LDP0    CTX$,,AUTO
         3 000175   000015 236100                    LDQ     13,,PR0
         3 000176   000022 772000                    QRL     18
         3 000177   000777 376007                    ANQ     511,DL
         3 000200   200010 756100                    STQ     SCID,,AUTO

     1173    15000    1       SCTX.DCB# = CCB.DCB#;

  15000  3 000201   100000 220100                    LDX0    0,,PR1
         3 000202   000033 440100                    SXL0    27,,PR0

     1174    15001    1       SCTX.MODE = 1 + BITBIN( CCB.FLAGS.MODE);

PL6.E3A0      #005=XSS$COMMINIT File=XSS$COMM.:XSA1TSI                           WED 10/01/97 12:11 Page:251
  15001  3 000203   100000 236100                    LDQ     0,,PR1
         3 000204   000011 772000                    QRL     9
         3 000205   000001 376007                    ANQ     1,DL
         3 000206   000001 036007                    ADLQ    1,DL
         3 000207   000013 552104                    STBQ    11,'04'O,PR0

     1175    15002    1       SCTX.ENTRY$ = CCB.SESS$;

  15002  3 000210   100010 236100                    LDQ     8,,PR1
         3 000211   000016 756100                    STQ     14,,PR0

     1176    15003    1       SCTX.BLOCKING = CCB.FLAGS.BLOCKING;

  15003  3 000212   100000 236100                    LDQ     0,,PR1
         3 000213   000002 772000                    QRL     2
         3 000214   000013 676100                    ERQ     11,,PR0
         3 000215   020000 376007                    ANQ     8192,DL
         3 000216   000013 656100                    ERSQ    11,,PR0

     1177    15004        %EJECT;
PL6.E3A0      #005=XSS$COMMINIT File=XSS$COMM.:XSA1TSI                           WED 10/01/97 12:11 Page:252
     1178    15005            /* open the DCB */
     1179    15006    1       TSAPLEN = 1 + UADR.TSAP.LEN;

  15006  3 000217   100006 473500                    LDP3    6,,PR1
         3 000220   300075 236100                    LDQ     61,,PR3
         3 000221   000022 772000                    QRL     18
         3 000222   000001 036007                    ADLQ    1,DL
         3 000223   200012 756100                    STQ     TSAPLEN,,AUTO

     1180    15007    1       TSAPPTR$ = PINCRC( ADDR( UADR.TSAP.TSAP), -1);  /* make TEXTC */

  15007  3 000224   200016 453500                    STP3    UNIQUE+2,,AUTO
         3 000225   200016 236100                    LDQ     UNIQUE+2,,AUTO
         3 000226   000016 036000 4                  ADLQ    14
         3 000227   200013 756100                    STQ     TSAPPTR$,,AUTO

     1181    15008    2       DO CASE( SCTX.MODE);

  15008  3 000230   000013 721100                    LXL1    11,,PR0
         3 000231   000777 361003                    ANX1    511,DU
         3 000232   000003 101003                    CMPX1   3,DU
         3 000233   000235 602011 3                  TNC     s:15008+5,X1
         3 000234   000417 710000 3                  TRA     s:15044
         3 000235   000417 710000 3                  TRA     s:15044
         3 000236   000240 710000 3                  TRA     s:15010
         3 000237   000342 710000 3                  TRA     s:15028

     1182    15009    2           CASE( %CLIENT);

     1183    15010    3               IF XSS_DEBUG = 0 THEN DO;

  15010  3 000240   000551 235000 1                  LDA     XSS_DEBUG
         3 000241   000265 601000 3                  TNZ     s:15018

     1184    15011    3                   NCOPN.NAME_ = VECTOR( TSAPBYTES);

  15011  3 000242   200012 235100                    LDA     TSAPLEN,,AUTO
PL6.E3A0      #005=XSS$COMMINIT File=XSS$COMM.:XSA1TSI                           WED 10/01/97 12:11 Page:253
         3 000243   000020 735000                    ALS     16
         3 000244   000140 135007                    SBLA    96,DL
         3 000245   000312 757000 1                  STAQ    NCOPN+6

     1185    15012    3                   NCOPN.V.DCB# = SCTX.DCB#;

  15012  3 000246   000033 720100                    LXL0    27,,PR0
         3 000247   000350 740000 1                  STX0    NCOPN+36

     1186    15013    3                   CALL XSS$EVLOG( 'OP', SCID);

  15013  3 000250   200010 633500                    EPPR3   SCID,,AUTO
         3 000251   200017 453500                    STP3    UNIQUE+3,,AUTO
         3 000252   000017 236000 4                  LDQ     15
         3 000253   200016 756100                    STQ     UNIQUE+2,,AUTO
         3 000254   200016 630500                    EPPR0   UNIQUE+2,,AUTO
         3 000255   000000 631400 4                  EPPR1   0
         3 000256   000000 701000 xent               TSX1    XSS$EVLOG
         3 000257   000000 011000                    NOP     0

     1187    15014    3                   CALL M$OPEN( NCOPN) ALTRET( OPNERR);

  15014  3 000260   000304 630400 1                  EPPR0   NCOPN
         3 000261   450000 713400                    CLIMB   alt,open
         3 000262   410400 401760                    pmme    nvectors=18
         3 000263   000530 702000 3                  TSX2    OPNERR

     1188    15015    3                   END;

  15015  3 000264   000417 710000 3                  TRA     s:15044

     1189    15016    3               ELSE DO;

     1190    15017                        /* figure out 'unique' station name */
     1191    15018    3                   CALL BINCHAR( UNIQUE.DCB#, SCTX.DCB#);

  15018  3 000265   000033 236100                    LDQ     27,,PR0
PL6.E3A0      #005=XSS$COMMINIT File=XSS$COMM.:XSA1TSI                           WED 10/01/97 12:11 Page:254
         3 000266   777777 376007                    ANQ     -1,DL
         3 000267   000000 235003                    LDA     0,DU
         3 000270   200016 757100                    STAQ    UNIQUE+2,,AUTO
         3 000271   000100 301500                    BTD
         3 000272   200016 000010                    NDSC9   UNIQUE+2,,AUTO           cn=0,s=lsgnf,sf=0,n=8
         3 000273   200014 030002                    NDSC9   UNIQUE,,AUTO             cn=0,s=nosgn,sf=0,n=2

     1192    15019    3                   CALL BINCHAR( UNIQUE.LNKCNT, B$JIT.LNKCNT);

  15019  3 000274   000000 473400 xsym               LDP3    B$JIT$
         3 000275   300314 236100                    LDQ     204,,PR3
         3 000276   000777 376007                    ANQ     511,DL
         3 000277   000000 235003                    LDA     0,DU
         3 000300   200016 757100                    STAQ    UNIQUE+2,,AUTO
         3 000301   000100 301500                    BTD
         3 000302   200016 000010                    NDSC9   UNIQUE+2,,AUTO           cn=0,s=lsgnf,sf=0,n=8
         3 000303   200014 430001                    NDSC9   UNIQUE,,AUTO             cn=2,s=nosgn,sf=0,n=1

     1193    15020    3                   CALL BINCHAR( UNIQUE.SYSID, B$JIT.SYSID);

  15020  3 000304   300000 236100                    LDQ     0,,PR3
         3 000305   777777 376007                    ANQ     -1,DL
         3 000306   000000 235003                    LDA     0,DU
         3 000307   200016 757100                    STAQ    UNIQUE+2,,AUTO
         3 000310   000100 301500                    BTD
         3 000311   200016 000010                    NDSC9   UNIQUE+2,,AUTO           cn=0,s=lsgnf,sf=0,n=8
         3 000312   200014 630005                    NDSC9   UNIQUE,,AUTO             cn=3,s=nosgn,sf=0,n=5

     1194    15021    3                   NCSETSTA.MYSTATION# = ADDR( UNIQUE)->CHAR8;

  15021  3 000313   200014 237100                    LDAQ    UNIQUE,,AUTO
         3 000314   000533 755000 1                  STA     NCSETSTA
         3 000315   000534 756000 1                  STQ     NCSETSTA+1

     1195    15022    3                   NCOPNDBG.NAME_ = VECTOR( TSAPBYTES);

  15022  3 000316   200012 235100                    LDA     TSAPLEN,,AUTO
PL6.E3A0      #005=XSS$COMMINIT File=XSS$COMM.:XSA1TSI                           WED 10/01/97 12:11 Page:255
         3 000317   000020 735000                    ALS     16
         3 000320   000140 135007                    SBLA    96,DL
         3 000321   200013 236100                    LDQ     TSAPPTR$,,AUTO
         3 000322   000404 757000 1                  STAQ    NCOPNDBG+6

     1196    15023    3                   NCOPNDBG.V.DCB# = SCTX.DCB#;

  15023  3 000323   000033 720100                    LXL0    27,,PR0
         3 000324   000442 740000 1                  STX0    NCOPNDBG+36

     1197    15024    3                   CALL XSS$EVLOG( 'OP', SCID);

  15024  3 000325   200010 634500                    EPPR4   SCID,,AUTO
         3 000326   200017 454500                    STP4    UNIQUE+3,,AUTO
         3 000327   000017 236000 4                  LDQ     15
         3 000330   200016 756100                    STQ     UNIQUE+2,,AUTO
         3 000331   200016 630500                    EPPR0   UNIQUE+2,,AUTO
         3 000332   000000 631400 4                  EPPR1   0
         3 000333   000000 701000 xent               TSX1    XSS$EVLOG
         3 000334   000000 011000                    NOP     0

     1198    15025    3                   CALL M$OPEN( NCOPNDBG) ALTRET( OPNERR);

  15025  3 000335   000376 630400 1                  EPPR0   NCOPNDBG
         3 000336   450000 713400                    CLIMB   alt,open
         3 000337   410400 401760                    pmme    nvectors=18
         3 000340   000530 702000 3                  TSX2    OPNERR

     1199    15026    3                   END;

  15026  3 000341   000417 710000 3                  TRA     s:15044

     1200    15027    2           CASE( %SERVER);

     1201    15028    2               AUOPN.NAME_ = VECTOR( TSAPBYTES);

  15028  3 000342   200012 235100                    LDA     TSAPLEN,,AUTO
PL6.E3A0      #005=XSS$COMMINIT File=XSS$COMM.:XSA1TSI                           WED 10/01/97 12:11 Page:256
         3 000343   000020 735000                    ALS     16
         3 000344   000140 135007                    SBLA    96,DL
         3 000345   000220 757000 1                  STAQ    AUOPN+6

     1202    15029    2               AUOPN.V.DCB# = SCTX.DCB#;

  15029  3 000346   000033 720100                    LXL0    27,,PR0
         3 000347   000256 740000 1                  STX0    AUOPN+36

     1203    15030    2               CALL XSS$EVLOG( 'OP', SCID);

  15030  3 000350   200010 633500                    EPPR3   SCID,,AUTO
         3 000351   200017 453500                    STP3    UNIQUE+3,,AUTO
         3 000352   000017 236000 4                  LDQ     15
         3 000353   200016 756100                    STQ     UNIQUE+2,,AUTO
         3 000354   200016 630500                    EPPR0   UNIQUE+2,,AUTO
         3 000355   000000 631400 4                  EPPR1   0
         3 000356   000000 701000 xent               TSX1    XSS$EVLOG
         3 000357   000000 011000                    NOP     0

     1204    15031    2               CALL M$OPEN( AUOPN) ALTRET( OPNERR);

  15031  3 000360   000212 630400 1                  EPPR0   AUOPN
         3 000361   450000 713400                    CLIMB   alt,open
         3 000362   410400 401760                    pmme    nvectors=18
         3 000363   000530 702000 3                  TSX2    OPNERR

     1205    15032    2               CGCTL.V.DCB# = SCTX.DCB#;

  15032  3 000364   200005 470500                    LDP0    CTX$,,AUTO
         3 000365   000033 720100                    LXL0    27,,PR0
         3 000366   000064 740000 1                  STX0    CGCTL+40

     1206    15033    2               CALL M$CGCTL( CGCTL) ALTRET( CTLERR);

  15033  3 000367   000014 630400 1                  EPPR0   CGCTL
         3 000370   500003 713400                    CLIMB   alt,+32771
PL6.E3A0      #005=XSS$COMMINIT File=XSS$COMM.:XSA1TSI                           WED 10/01/97 12:11 Page:257
         3 000371   411400 401760                    pmme    nvectors=20
         3 000372   000530 702000 3                  TSX2    OPNERR

     1207    15034    3               IF XSS_DEBUG = 0 THEN DO;

  15034  3 000373   000551 235000 1                  LDA     XSS_DEBUG
         3 000374   000417 601000 3                  TNZ     s:15044

     1208    15035                        /* attach the monitor terminal station */
     1209    15036    3                   AUATT.TSAP_ = VECTOR( UADR.TSAP);

  15036  3 000375   200003 470500                    LDP0    @CCB,,AUTO
         3 000376   000006 471500                    LDP1    6,,PR0
         3 000377   000020 235000 4                  LDA     16
         3 000400   200016 451500                    STP1    UNIQUE+2,,AUTO
         3 000401   200016 236100                    LDQ     UNIQUE+2,,AUTO
         3 000402   000075 036003                    ADLQ    61,DU
         3 000403   000002 757000 1                  STAQ    AUATT+2

     1210    15037    3                   AUATT.V.DCB# = SCTX.DCB#;

  15037  3 000404   200005 471500                    LDP1    CTX$,,AUTO
         3 000405   100033 720100                    LXL0    27,,PR1
         3 000406   000004 740000 1                  STX0    AUATT+4

     1211    15038    3                   CALL M$ATTACH( AUATT) ALTRET( ATTERR);

  15038  3 000407   000000 630400 1                  EPPR0   AUATT
         3 000410   500006 713400                    CLIMB   alt,+32774
         3 000411   400400 401760                    pmme    nvectors=2
         3 000412   000530 702000 3                  TSX2    OPNERR

     1212    15039    3                   SCTX.STATION = 'MONITOR ';

  15039  3 000413   200005 470500                    LDP0    CTX$,,AUTO
         3 000414   000010 237000 2                  LDAQ    XSS_E$RDONLYCCB+4
         3 000415   000027 755100                    STA     23,,PR0
PL6.E3A0      #005=XSS$COMMINIT File=XSS$COMM.:XSA1TSI                           WED 10/01/97 12:11 Page:258
         3 000416   000030 756100                    STQ     24,,PR0

     1213    15040    3                   END;

     1214    15041    2           END;

     1215    15042        %EJECT;
PL6.E3A0      #005=XSS$COMMINIT File=XSS$COMM.:XSA1TSI                           WED 10/01/97 12:11 Page:259
     1216    15043            /* set up event handler linkage */
     1217    15044    1       IF CCB.FLAGS.EVALID AND CCB.EVNT$ = ENTADDR( NIL) THEN

  15044  3 000417   200003 470500                    LDP0    @CCB,,AUTO
         3 000420   000000 236100                    LDQ     0,,PR0
         3 000421   004000 316007                    CANQ    2048,DL
         3 000422   000431 600000 3                  TZE     s:15049
         3 000423   000007 236100                    LDQ     7,,PR0
         3 000424   000021 116000 4                  CMPQ    17
         3 000425   000431 601000 3                  TNZ     s:15049

     1218    15045                /* Appl will handle events; tell it our handler's address */
     1219    15046    1           CCB.EVNT$ = ENTADDR( XSS$EVENT);

  15046  3 000426   000000 636000 xent               EAQ     XSS$EVENT
         3 000427   000007 756100                    STQ     7,,PR0
         3 000430   000451 710000 3                  TRA     s:15058

     1220    15047    1       ELSE
     1221    15048                /* We will handle events; remember appl's handler too */
     1222    15049    2           IF NOT EVENTINITED THEN DO;

  15049  3 000431   000550 234000 1                  SZN     EVENTINITED
         3 000432   000451 604000 3                  TMI     s:15058

     1223    15050    2               CALL M$EVENT( FPT_EVENT);

  15050  3 000433   000174 630400 1                  EPPR0   FPT_EVENT
         3 000434   010001 713400                    CLIMB   4097
         3 000435   400000 401760                    pmme    nvectors=1

     1224    15051    2               IF CCB.FLAGS.EVALID THEN

  15051  3 000436   200003 470500                    LDP0    @CCB,,AUTO
         3 000437   000000 236100                    LDQ     0,,PR0
         3 000440   004000 316007                    CANQ    2048,DL
         3 000441   000445 600000 3                  TZE     s:15054
PL6.E3A0      #005=XSS$COMMINIT File=XSS$COMM.:XSA1TSI                           WED 10/01/97 12:11 Page:260

     1225    15052    2                   XSS_EVENT$ = CCB.EVNT$;  /* this might be NIL, o.k. */

  15052  3 000442   000007 236100                    LDQ     7,,PR0
         3 000443   000552 756000 1                  STQ     XSS_EVENT$
         3 000444   000447 710000 3                  TRA     s:15055

     1226    15053    2               ELSE
     1227    15054    2                   XSS_EVENT$ = ENTADDR( NIL);

  15054  3 000445   000021 236000 4                  LDQ     17
         3 000446   000552 756000 1                  STQ     XSS_EVENT$

     1228    15055    2               EVENTINITED = %TRUE;

  15055  3 000447   400000 236003                    LDQ     -131072,DU
         3 000450   000550 756000 1                  STQ     EVENTINITED

     1229    15056    2               END;

     1230    15057            /* issue no-wait read to the DCB */
     1231    15058    2       IF SCTX.MODE = %SERVER THEN DO;

  15058  3 000451   200005 471500                    LDP1    CTX$,,AUTO
         3 000452   100013 236100                    LDQ     11,,PR1
         3 000453   000777 376007                    ANQ     511,DL
         3 000454   000002 116007                    CMPQ    2,DL
         3 000455   000474 601000 3                  TNZ     s:15069

     1232    15059    2           CALL XSS$COMMWAITX( CCB)

  15059  3 000456   200003 630500                    EPPR0   @CCB,,AUTO
         3 000457   000004 631400 4                  EPPR1   4
         3 000460   000000 701000 xent               TSX1    XSS$COMMWAITX
         3 000461   000463 702000 3                  TSX2    s:15061
         3 000462   000473 710000 3                  TRA     s:15067

PL6.E3A0      #005=XSS$COMMINIT File=XSS$COMM.:XSA1TSI                           WED 10/01/97 12:11 Page:261
     1233    15060    3           WHENALTRETURN DO;

     1234    15061    3               IF SCTX.LATCH.PRESENT THEN

  15061  3 000463   200005 470500                    LDP0    CTX$,,AUTO
         3 000464   000035 234100                    SZN     29,,PR0
         3 000465   000473 605000 3                  TPL     s:15067

     1235    15062    4                   IF SCTX.LATCH.ERRCODE THEN DO;

  15062  3 000466   000040 235100                    LDA     32,,PR0
         3 000467   000473 600000 3                  TZE     s:15067

     1236    15063    4                       ERRCODE = SCTX.LATCH.ERRCODE;

  15063  3 000470   000040 236100                    LDQ     32,,PR0
         3 000471   000516 756000 1                  STQ     ERRCODE

     1237    15064    4                       GOTO NOTIFY;

  15064  3 000472   000534 710000 3                  TRA     NOTIFY

     1238    15065    4                       END;
     1239    15066    3               END;
     1240    15067    2           END;

  15067  3 000473   000476 710000 3                  TRA     s:15070

     1241    15068    1       ELSE
     1242    15069    1           SCTX.NEEDAREAD = %TRUE;

  15069  3 000474   004000 236007                    LDQ     2048,DL
         3 000475   100013 256100                    ORSQ    11,,PR1

     1243    15070    1       CCB.FLAGS.ACTIVE = %TRUE;

  15070  3 000476   200003 470500                    LDP0    @CCB,,AUTO
PL6.E3A0      #005=XSS$COMMINIT File=XSS$COMM.:XSA1TSI                           WED 10/01/97 12:11 Page:262
         3 000477   002000 236007                    LDQ     1024,DL
         3 000500   000000 256100                    ORSQ    0,,PR0

     1244    15071            /* copy user's version of address to internal slot */
     1245    15072    1       CALL XSS$BUFPTR( SCTX.SRCX, BUF$);

  15072  3 000501   200004 631500                    EPPR1   BUF$,,AUTO
         3 000502   200017 451500                    STP1    UNIQUE+3,,AUTO
         3 000503   200005 236100                    LDQ     CTX$,,AUTO
         3 000504   000003 036003                    ADLQ    3,DU
         3 000505   200016 756100                    STQ     UNIQUE+2,,AUTO
         3 000506   200016 630500                    EPPR0   UNIQUE+2,,AUTO
         3 000507   000000 631400 4                  EPPR1   0
         3 000510   000000 701000 xent               TSX1    XSS$BUFPTR
         3 000511   000000 011000                    NOP     0

     1246    15073    1       BUF$->XSC$ADDRESS = UADR;

  15073  3 000512   200003 470500                    LDP0    @CCB,,AUTO
         3 000513   000006 471500                    LDP1    6,,PR0
         3 000514   200004 473500                    LDP3    BUF$,,AUTO
         3 000515   000100 100500                    MLR     fill='000'O
         3 000516   100000 000456                    ADSC9   0,,PR1                   cn=0,n=302
         3 000517   300000 000456                    ADSC9   0,,PR3                   cn=0,n=302

     1247    15074            /* save user's CCB in internal slot too */
     1248    15075    1       CCB$( CCB.LCID)->XSC$CCB = CCB;

  15075  3 000520   000000 720100                    LXL0    0,,PR0
         3 000521   000777 360003                    ANX0    511,DU
         3 000522   000000 471400 xsym               LDP1    XSS_CCB$$
         3 000523   100000 473510                    LDP3    0,X0,PR1
         3 000524   000100 100500                    MLR     fill='000'O
         3 000525   000000 000070                    ADSC9   0,,PR0                   cn=0,n=56
         3 000526   300000 000070                    ADSC9   0,,PR3                   cn=0,n=56

     1249    15076    1       RETURN;
PL6.E3A0      #005=XSS$COMMINIT File=XSS$COMM.:XSA1TSI                           WED 10/01/97 12:11 Page:263

  15076  3 000527   000000 702200 xent               TSX2  ! X66_ARET

  15075  3 000530                       OPNERR       null
  15075  3 000530                       CLSERR       null
  15075  3 000530                       ATTERR       null
  15075  3 000530                       DETERR       null
     1250    15077        %EJECT;
PL6.E3A0      #005=XSS$COMMINIT File=XSS$COMM.:XSA1TSI                           WED 10/01/97 12:11 Page:264
     1251    15078    1   OPNERR: ;
     1252    15079    1   CLSERR: ;
     1253    15080    1   ATTERR: ;
     1254    15081    1   DETERR: ;
     1255    15082    1   CTLERR:
     1256    15083    1       ERRCODE = B$TCB$->B$TCB.ALT$->B$ALT.ERR;

  15083  3 000530   000000 470400 xsym  CTLERR       LDP0    B$TCB$
         3 000531   000000 471500                    LDP1    0,,PR0
         3 000532   100102 236100                    LDQ     66,,PR1
         3 000533   000516 756000 1                  STQ     ERRCODE

     1257    15084    1   NOTIFY:
     1258    15085    1       CALL XSS$EVLOG( 'ER', SCID);

  15085  3 000534   200010 630500       NOTIFY       EPPR0   SCID,,AUTO
         3 000535   200017 450500                    STP0    UNIQUE+3,,AUTO
         3 000536   000022 236000 4                  LDQ     18
         3 000537   200016 756100                    STQ     UNIQUE+2,,AUTO
         3 000540   200016 630500                    EPPR0   UNIQUE+2,,AUTO
         3 000541   000000 631400 4                  EPPR1   0
         3 000542   000000 701000 xent               TSX1    XSS$EVLOG
         3 000543   000000 011000                    NOP     0

     1259    15086    1       CALL XSS$EVLOG( , ERRCODE);

  15086  3 000544   000023 236000 4                  LDQ     19
         3 000545   000006 235000 4                  LDA     6
         3 000546   200016 757100                    STAQ    UNIQUE+2,,AUTO
         3 000547   200016 630500                    EPPR0   UNIQUE+2,,AUTO
         3 000550   000000 631400 4                  EPPR1   0
         3 000551   000000 701000 xent               TSX1    XSS$EVLOG
         3 000552   000000 011000                    NOP     0

     1260    15087    1       CCB.ERROR = ERRCODE;

  15087  3 000553   000516 236000 1                  LDQ     ERRCODE
PL6.E3A0      #005=XSS$COMMINIT File=XSS$COMM.:XSA1TSI                           WED 10/01/97 12:11 Page:265
         3 000554   200003 470500                    LDP0    @CCB,,AUTO
         3 000555   000001 756100                    STQ     1,,PR0

     1261    15088    1       ALTRETURN;

  15088  3 000556   000000 702200 xent               TSX2  ! X66_AALT

     1262    15089        %EJECT;
PL6.E3A0      #005=XSS$COMMINIT File=XSS$COMM.:XSA1TSI                           WED 10/01/97 12:11 Page:266
     1263    15090        /*F*
     1264    15091                NAME:   XSS$COMMTERM
     1265    15092                PURPOSE:
     1266    15093                    Tear down a connection path (DCB plus context) for a client or
     1267    15094                    server application.
     1268    15095        */
     1269    15096    1   XSS$COMMTERM: ENTRY( CCB) ALTRET;

  15096  3 000557   000000 700200 xent  XSS$COMMTERM TSX0  ! X66_AUTO_1
         3 000560   000022 000001                    ZERO    18,1

     1270    15097
     1271    15098    1       CTX$ = ADDR( NIL);

  15098  3 000561   000006 236000 4                  LDQ     6
         3 000562   200005 756100                    STQ     CTX$,,AUTO

     1272    15099            /* point at Session connection context */
     1273    15100    1       SCID = CCB.LCID;

  15100  3 000563   200003 470500                    LDP0    @CCB,,AUTO
         3 000564   000000 236100                    LDQ     0,,PR0
         3 000565   000777 376007                    ANQ     511,DL
         3 000566   200010 756100                    STQ     SCID,,AUTO

     1274    15101    1       CALL XSS$EVLOG( 'KT', SCID);

  15101  3 000567   200010 631500                    EPPR1   SCID,,AUTO
         3 000570   200017 451500                    STP1    UNIQUE+3,,AUTO
         3 000571   000024 236000 4                  LDQ     20
         3 000572   200016 756100                    STQ     UNIQUE+2,,AUTO
         3 000573   200016 630500                    EPPR0   UNIQUE+2,,AUTO
         3 000574   000000 631400 4                  EPPR1   0
         3 000575   000000 701000 xent               TSX1    XSS$EVLOG
         3 000576   000000 011000                    NOP     0

     1275    15102    1       CALL XSS$CTXPTR( SCID, CTX$)
PL6.E3A0      #005=XSS$COMMINIT File=XSS$COMM.:XSA1TSI                           WED 10/01/97 12:11 Page:267

  15102  3 000577   200005 630500                    EPPR0   CTX$,,AUTO
         3 000600   200017 450500                    STP0    UNIQUE+3,,AUTO
         3 000601   200010 631500                    EPPR1   SCID,,AUTO
         3 000602   200016 451500                    STP1    UNIQUE+2,,AUTO
         3 000603   200016 630500                    EPPR0   UNIQUE+2,,AUTO
         3 000604   000000 631400 4                  EPPR1   0
         3 000605   000000 701000 xent               TSX1    XSS$CTXPTR
         3 000606   000613 702000 3                  TSX2    s:15109

     1276    15103    2       WHENRETURN DO;

     1277    15104                /* mark context as terminated */
     1278    15105    2           SCTX.TERMINATING = %TRUE;

  15105  3 000607   200005 470500                    LDP0    CTX$,,AUTO
         3 000610   002000 236007                    LDQ     1024,DL
         3 000611   000013 256100                    ORSQ    11,,PR0

     1279    15106    2           END;

  15106  3 000612   000622 710000 3                  TRA     s:15115

     1280    15107    2       WHENALTRETURN DO;

     1281    15108                /* either connection was aborted by state machine, or user error */
     1282    15109    3           IF NOT CCB.FLAGS.ACTIVE THEN DO;

  15109  3 000613   200003 470500                    LDP0    @CCB,,AUTO
         3 000614   000000 236100                    LDQ     0,,PR0
         3 000615   002000 316007                    CANQ    1024,DL
         3 000616   000622 601000 3                  TNZ     s:15115

     1283    15110    3               ERRCODE = XSS_E$BADCID;

  15110  3 000617   000000 236000 xsym               LDQ     XSS_E$BADCID
         3 000620   000516 756000 1                  STQ     ERRCODE
PL6.E3A0      #005=XSS$COMMINIT File=XSS$COMM.:XSA1TSI                           WED 10/01/97 12:11 Page:268

     1284    15111    3               GOTO NOTIFY;

  15111  3 000621   000534 710000 3                  TRA     NOTIFY

     1285    15112    3               END;
     1286    15113    2           END;
     1287    15114            /* close the DCB */
     1288    15115    2       IF CCB.FLAGS.MODE THEN DO;

  15115  3 000622   200003 470500                    LDP0    @CCB,,AUTO
         3 000623   000000 236100                    LDQ     0,,PR0
         3 000624   001000 316007                    CANQ    512,DL
         3 000625   000651 600000 3                  TZE     s:15135

     1289    15116                /* this is a server endpoint */
     1290    15117    3           IF XSS_DEBUG = 0 THEN DO;

  15117  3 000626   000551 235000 1                  LDA     XSS_DEBUG
         3 000627   000632 601000 3                  TNZ     s:15129

     1291    15118                    /* detach the monitor terminal station */
     1292    15119    3               AUDET.V.DCB# = CCB.DCB#;

  15119  3 000630   000000 220100                    LDX0    0,,PR0
         3 000631   000012 740000 1                  STX0    AUDET+4

     1293    15120                    /* CALL M$DETACH( AUDET) ALTRET( DETERR);
     1294    15121                       The above monitor call was commented out because of a
     1295    15122                       timing problem.  CG Terminal disconnect runs off the
     1296    15123                       clock, and sometimes the CG AU DCB close below gets
     1297    15124                       done before the MONITOR terminal station has been
     1298    15125                       closed, getting the application stuck SQA forever.
     1299    15126                       It turns out the CG AU DCB close will do everything
     1300    15127                       necessary anyway.  Consistently too.                 */
     1301    15128    3               END;

PL6.E3A0      #005=XSS$COMMINIT File=XSS$COMM.:XSA1TSI                           WED 10/01/97 12:11 Page:269
     1302    15129    2           AUCLS.V.DCB# = CCB.DCB#;

  15129  3 000632   000000 220100                    LDX0    0,,PR0
         3 000633   000132 740000 1                  STX0    AUCLS+26

     1303    15130    2           CALL XSS$EVLOG( 'CL', SCID);

  15130  3 000634   200010 631500                    EPPR1   SCID,,AUTO
         3 000635   200017 451500                    STP1    UNIQUE+3,,AUTO
         3 000636   000025 236000 4                  LDQ     21
         3 000637   200016 756100                    STQ     UNIQUE+2,,AUTO
         3 000640   200016 630500                    EPPR0   UNIQUE+2,,AUTO
         3 000641   000000 631400 4                  EPPR1   0
         3 000642   000000 701000 xent               TSX1    XSS$EVLOG
         3 000643   000000 011000                    NOP     0

     1304    15131    2           CALL M$CLOSE( AUCLS) ALTRET( CLSERR);

  15131  3 000644   000100 630400 1                  EPPR0   AUCLS
         3 000645   450001 713400                    CLIMB   alt,close
         3 000646   406000 401760                    pmme    nvectors=13
         3 000647   000530 702000 3                  TSX2    OPNERR

     1305    15132    2           END;

  15132  3 000650   000667 710000 3                  TRA     s:15140

     1306    15133    2       ELSE DO;

     1307    15134                /* this is a client endpoint */
     1308    15135    2           NCCLS.V.DCB# = CCB.DCB#;

  15135  3 000651   000000 220100                    LDX0    0,,PR0
         3 000652   000170 740000 1                  STX0    NCCLS+26

     1309    15136    2           CALL XSS$EVLOG( 'CL', SCID);

PL6.E3A0      #005=XSS$COMMINIT File=XSS$COMM.:XSA1TSI                           WED 10/01/97 12:11 Page:270
  15136  3 000653   200010 631500                    EPPR1   SCID,,AUTO
         3 000654   200017 451500                    STP1    UNIQUE+3,,AUTO
         3 000655   000025 236000 4                  LDQ     21
         3 000656   200016 756100                    STQ     UNIQUE+2,,AUTO
         3 000657   200016 630500                    EPPR0   UNIQUE+2,,AUTO
         3 000660   000000 631400 4                  EPPR1   0
         3 000661   000000 701000 xent               TSX1    XSS$EVLOG
         3 000662   000000 011000                    NOP     0

     1310    15137    2           CALL M$CLOSE( NCCLS) ALTRET( CLSERR);

  15137  3 000663   000136 630400 1                  EPPR0   NCCLS
         3 000664   450001 713400                    CLIMB   alt,close
         3 000665   406000 401760                    pmme    nvectors=13
         3 000666   000530 702000 3                  TSX2    OPNERR

     1311    15138    2           END;

     1312    15139            /* release Session connection context */
     1313    15140    2       IF CTX$ ~= ADDR( NIL) THEN DO;

  15140  3 000667   200005 236100                    LDQ     CTX$,,AUTO
         3 000670   000006 116000 4                  CMPQ    6
         3 000671   000714 600000 3                  TZE     s:15146

     1314    15141    2           IF SCTX.ALARM THEN

  15141  3 000672   200005 470500                    LDP0    CTX$,,AUTO
         3 000673   000013 236100                    LDQ     11,,PR0
         3 000674   010000 316007                    CANQ    4096,DL
         3 000675   000706 600000 3                  TZE     s:15143

     1315    15142    2               CALL XSS$CLOCK( %CANCLK, CCB.LCID);

  15142  3 000676   200003 236100                    LDQ     @CCB,,AUTO
         3 000677   600000 036007                    ADLQ    -65536,DL
         3 000700   000027 235000 4                  LDA     23
PL6.E3A0      #005=XSS$COMMINIT File=XSS$COMM.:XSA1TSI                           WED 10/01/97 12:11 Page:271
         3 000701   200016 757100                    STAQ    UNIQUE+2,,AUTO
         3 000702   200016 630500                    EPPR0   UNIQUE+2,,AUTO
         3 000703   000000 631400 4                  EPPR1   0
         3 000704   000000 701000 xent               TSX1    XSS$CLOCK
         3 000705   000000 011000                    NOP     0

     1316    15143    2           CALL XSS$RELCTX( CTX$);

  15143  3 000706   200005 630500                    EPPR0   CTX$,,AUTO
         3 000707   200016 450500                    STP0    UNIQUE+2,,AUTO
         3 000710   200016 630500                    EPPR0   UNIQUE+2,,AUTO
         3 000711   000004 631400 4                  EPPR1   4
         3 000712   000000 701000 xent               TSX1    XSS$RELCTX
         3 000713   000000 011000                    NOP     0

     1317    15144    2           END;

     1318    15145            /* release Session parameter block */
     1319    15146    2       IF CCB.SFPTX ~= %NULL THEN DO;

  15146  3 000714   200003 470500                    LDP0    @CCB,,AUTO
         3 000715   000005 720100                    LXL0    5,,PR0
         3 000716   777777 100003                    CMPX0   -1,DU
         3 000717   000732 600000 3                  TZE     s:15150

     1320    15147    2           CALL XSS$RELMEM( CCB.SFPTX);

  15147  3 000720   200003 236100                    LDQ     @CCB,,AUTO
         3 000721   000015 036000 4                  ADLQ    13
         3 000722   200016 756100                    STQ     UNIQUE+2,,AUTO
         3 000723   200016 630500                    EPPR0   UNIQUE+2,,AUTO
         3 000724   000004 631400 4                  EPPR1   4
         3 000725   000000 701000 xent               TSX1    XSS$RELMEM
         3 000726   000000 011000                    NOP     0

     1321    15148    2           CCB.SFPTX = %NULL;

PL6.E3A0      #005=XSS$COMMINIT File=XSS$COMM.:XSA1TSI                           WED 10/01/97 12:11 Page:272
  15148  3 000727   777777 220003                    LDX0    -1,DU
         3 000730   200003 470500                    LDP0    @CCB,,AUTO
         3 000731   000005 440100                    SXL0    5,,PR0

     1322    15149    2           END;

     1323    15150    1       CCB.FLAGS.ACTIVE = %FALSE;

  15150  3 000732   000030 236000 4                  LDQ     24
         3 000733   000000 356100                    ANSQ    0,,PR0

     1324    15151    1       RETURN;

  15151  3 000734   000000 702200 xent               TSX2  ! X66_ARET

AUATT
 Sect OctLoc
   1     000   000001 777640   000004 006000   000000 177640   000000 006014    ................
   1     004   000000 400000   ****** ******                                    ........

AUDET
 Sect OctLoc
   1     006   000001 777640   000012 006000   000000 177640   000000 006014    ................
   1     012   000000 400000   ****** ******                                    ........

CGCTL
 Sect OctLoc
   1     014   000013 777640   000064 006000   000000 177640   000000 006014    .....4..........
   1     020   000000 177640   000000 006014   000023 777640   000472 006000    ................
   1     024   000000 177640   000000 006014   000000 177640   000000 006014    ................
   1     064*  000000 000022   000000 000000   000000 0000**   000000 000000    ................
   1     070   000000 000000   000000 000000   000000 000000   000000 000000    ................
   1     074   000000 000000   000000 000000   000000 000000   ****** ******    ................

AUCLS
 Sect OctLoc
   1     100   000003 777640   000132 006000   000000 177640   000000 006014    .....Z..........
PL6.E3A0      #005=XSS$COMMINIT File=XSS$COMM.:XSA1TSI                           WED 10/01/97 12:11 Page:273
   1     104   000000 177640   000000 006014   000000 177640   000000 006014    ................
   1     130*  000000 177640   000000 006014   000000 000001   000000 000040    ...............
   1     134   000220 000000   000000 000000                                    ........

NCCLS
 Sect OctLoc
   1     136   000003 777640   000170 006000   000000 177640   000000 006014    .....x..........
   1     142   000000 177640   000000 006014   000000 177640   000000 006014    ................
   1     166*  000000 177640   000000 006014   000000 000002   000000 000040    ...............
   1     172   000220 000000   000000 000000                                    ........

FPT_EVENT
 Sect OctLoc
   1     174   000001 777640   000176 006000   000000 000000   000000 000000    .....~..........

FPT_GETDCB
 Sect OctLoc
   1     200   000001 777640   000206 006000   000001 377640   000210 006000    ................
   1     204   000000 777640   000547 006000   000000 000000   000000 000000    ................

DCBNAME
 Sect OctLoc
   1     210   005115 044130   123123 ******                                    .M$XSS..

AUOPN
 Sect OctLoc
   1     212   000025 777640   000256 006000   000000 177640   000000 006014    ................
   1     216   000013 777640   000517 006000   000000 177640   000000 006014    ................
   1     222   000000 177640   000000 006014   000000 177640   000000 006014    ................
   1     236*  000001 777640   000470 006000   000000 177640   000000 006014    ................
   1     242   000000 177640   000000 006014   000000 177640   000000 006014    ................
   1     256*  000000 000712   000000 003004   252525 000000   000040 252520    ............. ..
   1     262   000040 040040   000000 000000   000000 777777   000000 000000    .   ............
   1     266   000000 000036   000000 000036   000000 000000   000000 000000    ................
   1     272   251000 622000   000000 000000   000000 000000   111310 000000    ............I...
   1     276   040040 040040   000000 000000   000000 000000   000000 000000        ............
   1     302   000000 000000   ****** ******                                    ........
PL6.E3A0      #005=XSS$COMMINIT File=XSS$COMM.:XSA1TSI                           WED 10/01/97 12:11 Page:274

NCOPN
 Sect OctLoc
   1     304   000025 777640   000350 006000   000000 177640   000000 006014    ................
   1     310   000000 177640   000000 006014   000000 177640   000000 006014    ................
   1     350*  000000 000042   000000 000003   252525 000000   000040 252520    ..."......... ..
   1     354   116103 040040   000000 000000   000000 777777   000000 000000    NC  ............
   1     360   000000 000000   000000 000000   000000 000000   000000 000000    ................
   1     364   251000 622000   000000 000000   000000 000000   111250 000000    ............I...
   1     370   040040 040040   000000 000000   000000 000000   000000 000000        ............
   1     374   000000 000000   ****** ******                                    ........

NCOPNDBG
 Sect OctLoc
   1     376   000025 777640   000442 006000   000000 177640   000000 006014    ................
   1     402   000013 777640   000533 006000   000000 177640   000000 006014    ................
   1     406   000000 177640   000000 006014   000000 177640   000000 006014    ................
   1     422*  000001 777640   000470 006000   000000 177640   000000 006014    ................
   1     426   000000 177640   000000 006014   000000 177640   000000 006014    ................
   1     442*  000000 000052   000000 001004   252525 000000   000040 252520    ...*......... ..
   1     446   000040 040040   000000 000000   000000 777777   000000 000000    .   ............
   1     452   000000 000000   000000 000000   000000 000000   000000 000000    ................
   1     456   251000 622000   000000 000000   000000 000000   111210 000000    ............I...
   1     462   040040 040040   000000 000000   000000 000000   000000 000000        ............
   1     466   000000 000000   ****** ******                                    ........

ACCT
 Sect OctLoc
   1     470   072117 123111   103107 040040                                    :OSICG

CGCP
 Sect OctLoc
   1     472   040040 040040   040040 040040   040040 040040   040040 040040
   1     476   000002 001001   000046 113177   000024 760021   000000 003770    .....&K.........
   1     502   000024 062000   601036 000214   000010 000004   000012 000024    ..2.............
   1     506   000002 ******   000000 000000   000000 000000   000000 000000    ................
   1     512   000000 000000   000000 000000   000000 000000   000000 000000    ................
PL6.E3A0      #005=XSS$COMMINIT File=XSS$COMM.:XSA1TSI                           WED 10/01/97 12:11 Page:275

ERRCODE
 Sect OctLoc
   1     516   000000 000000                                                    ....

AUSETSTA
 Sect OctLoc
   1     517   123105 122126   105122 040040   040040 040040   040040 040040    SERVER
   1     523   040040 040040   040040 040040   000000 000000   040040 040040            ....
   1     527   040040 040040   040040 040040   040040 040040   000000 000000                ....

NCSETSTA
 Sect OctLoc
   1     533   040040 040040   040040 040040   040040 040040   040040 040040
   1     537   040040 040040   040040 040040   000000 000000   040040 040040            ....
   1     543   040040 040040   040040 040040   040040 040040   000000 000000                ....

DCBN
 Sect OctLoc
   1     547   000000 000000                                                    ....

EVENTINITED
 Sect OctLoc
   1     550   0***** ******                                                    ....

XSS_DEBUG
 Sect OctLoc
   1     551   000000 000000                                                    ....

XSS_EVENT$
 Sect OctLoc
   1     552   000000 000000                                                    ....

(unnamed)
 Sect OctLoc
   1     553   000000 000000   000000 000000   000000 000000                    ............

PL6.E3A0      #005=XSS$COMMINIT File=XSS$COMM.:XSA1TSI                           WED 10/01/97 12:11 Page:276
XSS_E$ADDR
 Sect OctLoc
   2     000   302323 000210                                                    ....

XSS_E$DEFAULTDCB
 Sect OctLoc
   2     001   302323 000120                                                    ...P

XSS_E$NODYNMEM
 Sect OctLoc
   2     002   302323 000160                                                    ...p

XSS_E$NOGETDCB
 Sect OctLoc
   2     003   302323 000220                                                    ....

XSS_E$RDONLYCCB
 Sect OctLoc
   2     004   302323 000170                                                    ...x

(unnamed)
 Sect OctLoc
   2     005   113111 040040   107124 040040   117120 040040   115117 116111    KI  GT  OP  MONI
   2     011   124117 122040   105122 040040   113124 040040   103114 040040    TOR ER  KT  CL

(unnamed)
 Sect OctLoc
   4     000   000002 000000   000000 777777   000005 006000   000001 006000    ................
   4     004   000001 000000   000004 006000   000000 006014   000006 006000    ................
   4     010   000001 006000   000000 006003   000003 000000   000000 000070    ...............8
   4     014   000013 006000   000005 400000   000075 200000   000007 006000    .........=......
   4     020   000010 777640   000000 000000   000012 006000   000516 006000    ................
   4     024   000013 006000   000014 006000   000000 000002   000026 006000    ................
   4     030   777777 775777                                                    ....
     1325    15152
     1326    15153    1       END XSS$COMMINIT;

PL6.E3A0      #005=XSS$COMMINIT File=XSS$COMM.:XSA1TSI                           WED 10/01/97 12:11 Page:277
--  Include file information  --

   XSC_PERR_C.:XSA1TOU  is referenced.
   XSS_INTERNAL_M.:XSA1TOU  is referenced.
   XSS_SESSION_M.:XSA1TOU  is referenced.
   XSS_SESSION_E.:XSA1TOU  is referenced.
   XSC_COMMON_M.:XSA1TOU  is referenced.
   CP_6_C.:LIB_E05  is referenced.
   CP_6.:LIB_E05  cannot be made into a system file and is referenced.
   K_ADDRESS_M.:LIB_E05  is referenced.
   B$JIT_C.:LIB_E05  is referenced.
   B_SEGIDS_C.:LIB_E05  is referenced.
   XSS_INTERNAL_E.:XSA1TOU  is referenced.
      No diagnostics issued in procedure XSS$COMMINIT.
PL6.E3A0      #005=XSS$COMMINIT File=XSS$COMM.:XSA1TSI                           WED 10/01/97 12:11 Page:278

 **** Variables and constants ****

  ****  Section 001  Data  XSS$COMMINIT

  ****  Scalars and arrays  ****
OctLoc.c.b A Datatyp(siz) R M Lvl/name                 OctLoc.c.b A Datatyp(siz) R M Lvl/name

   470-0-0/c STRC(72)    r     1 ACCT                       0-0-0/d STRC(216)   r     1 AUATT
   100-0-0/d STRC(1080)  r     1 AUCLS                      6-0-0/d STRC(216)   r     1 AUDET
   212-0-0/d STRC(2088)  r     1 AUOPN                    517-0-0/w STRC(432)   r     1 AUSETSTA
   472-0-0/d STRC(720)   r     1 CGCP                      14-0-0/d STRC(1872)  r     1 CGCTL
   547-0-0/w SBIN        r     1 DCBN                     210-0-0/c STRC(54)    r     1 DCBNAME
   516-0-0/w STRC        r     1 ERRCODE                  550-0-0/b BIT         r     1 EVENTINITED
   174-0-0/d STRC(144)   r     1 FPT_EVENT                200-0-0/d STRC(288)   r     1 FPT_GETDCB
   136-0-0/d STRC(1080)  r     1 NCCLS                    304-0-0/d STRC(2088)  r     1 NCOPN
   376-0-0/d STRC(2088)  r     1 NCOPNDBG                 533-0-0/w STRC(432)   r     1 NCSETSTA
   551-0-0/w UBIN        r     1 XSS_DEBUG                552-0-0/w EPTR        r     1 XSS_EVENT$

  ****  Section 002 RoData XSS$COMMINIT

  ****  Scalars and arrays  ****
OctLoc.c.b A Datatyp(siz) R M Lvl/name                 OctLoc.c.b A Datatyp(siz) R M Lvl/name

     0-0-0/w STRC        r     1 XSS_E$ADDR                 1-0-0/w STRC        r     1 XSS_E$DEFAULTDCB
     2-0-0/w STRC        r     1 XSS_E$NODYNMEM             3-0-0/w STRC        r     1 XSS_E$NOGETDCB
     4-0-0/w STRC        r     1 XSS_E$RDONLYCCB

  ****  Auto variables  ****

  ****  Scalars and arrays  ****
OctLoc.c.b A Datatyp(siz) R M Lvl/name                 OctLoc.c.b A Datatyp(siz) R M Lvl/name

     3-0-0/w PTR         r     1 @CCB                       4-0-0/w PTR         r     1 BUF$
    *0-0-0/w STRC(504)   r     1 CCB                        5-0-0/w PTR         r     1 CTX$
     6-0-0/w PTR         r     1 FPT$                       7-0-0/w PTR         r     1 P
     7-0-0/w STRC        r     1 PX                        10-0-0/w SBIN        r     1 SCID
    11-0-0/w SBIN        r     1 TEMP                      12-0-0/w SBIN        r     1 TSAPLEN
PL6.E3A0      #005=XSS$COMMINIT File=XSS$COMM.:XSA1TSI                           WED 10/01/97 12:11 Page:279
    13-0-0/w PTR         r     1 TSAPPTR$                  14-0-0/c STRC(72)    r     1 UNIQUE

  ****  SYMREF variables  ****

  ****  Scalars and arrays  ****
OctLoc.c.b A Datatyp(siz) R M Lvl/name                 OctLoc.c.b A Datatyp(siz) R M Lvl/name

     0-0-0/w PTR         r     1 B$JIT$                     0-0-0/w PTR         r     1 B$TCB$
     0-0-0/w PTR         r     1 XSS_CCB$$                  0-0-0/w STRC        r     1 XSS_E$BADCID
     0-0-0/d STRC(504)   r     1 XSS_GENERIC

  ****  BASED and DCB variables  ****

  ****  Scalars and arrays  ****
OctLoc.c.b A Datatyp(siz) R M Lvl/name                 OctLoc.c.b A Datatyp(siz) R M Lvl/name

     0-0-0/w STRC(2448)  r     1 B$ALT                      0-0-0/d STRC(8856)  r     1 B$JIT
     0-0-0/w STRC(144)   r     1 B$TCB                      0-0-0/w PTR         r     1 CCB$(0:0)
     0-0-0/c CHAR(8)     r     1 CHAR8                      0-0-0/d ASTR(3528)  r     1 F$DCB
     0-0-0/w STRC(1260)  r     1 SCTX                       0-0-0/c ACHR        r     1 TSAPBYTES
     0-0-0/w STRC(2718)  r     1 UADR                       0-0-0/w STRC(2718)  r     1 XSC$ADDRESS
     0-0-0/w STRC(504)   r     1 XSC$CCB                    0-0-0/d STRC(504)   r     1 XSS$GENERIC


   Procedure XSS$COMMINIT requires 477 words for executable code.
   Procedure XSS$COMMINIT requires 18 words of local(AUTO) storage.

    No errors detected in file XSS$COMM.:XSA1TSI    .
PL6.E3A0      #005=XSS$COMMINIT File=XSS$COMM.:XSA1TSI                           WED 10/01/97 12:11 Page:280
          *** CROSS REFERENCE LISTING ***
**     DENOTES     IDENTIFIER DEFINITION
<<                 IDENTIFIER'S VALUE SET
>>                 IDENTIFIER'S VALUE USED
<>                 IDENTIFIER SET AND/OR USED
--                 IDENTIFIER REFERENCED
PL6.E3A0      #005=XSS$COMMINIT File=XSS$COMM.:XSA1TSI                           WED 10/01/97 12:11 Page:281
          MINI XREF LISTING

ACCT
      8030**DCL      7761--DCLINIT  7980--DCLINIT
ATTERR
     15075**LABEL   15038--CALLALT
AUATT
      7505**DCL     15038<>CALL
AUATT.TSAP_
      7508**DCL     15036<<ASSIGN
AUATT.V
      7508**DCL      7508--DCLINIT
AUATT.V.DCB#
      7508**DCL     15037<<ASSIGN
AUCLS
      7572**DCL     15131<>CALL
AUCLS.SN_
      7572**DCL      7572--REDEF
AUCLS.UTL_
      7573**DCL      7573--REDEF
AUCLS.V
      7577**DCL      7572--DCLINIT
AUCLS.V.DCB#
      7578**DCL     15129<<ASSIGN
AUCLS.V.EXPIRE#
      7587**DCL      7587--REDEF
AUCLS.V.TYPE#
      7585**DCL      7585--REDEF
AUCLS.V.XTNSIZE#
      7582**DCL      7582--REDEF    7584--REDEF
AUDET.V
      7523**DCL      7523--DCLINIT
AUDET.V.DCB#
      7523**DCL     15119<<ASSIGN
PL6.E3A0      #005=XSS$COMMINIT File=XSS$COMM.:XSA1TSI                           WED 10/01/97 12:11 Page:282
AUOPN
      7756**DCL     15031<>CALL
AUOPN.ACSVEH_
      7758**DCL      7759--REDEF
AUOPN.ALTKEYS_
      7764**DCL      7765--REDEF    7765--REDEF
AUOPN.HDR_
      7763**DCL      7764--REDEF
AUOPN.NAME_
      7757**DCL     15028<<ASSIGN
AUOPN.TAB_
      7762**DCL      7763--REDEF
AUOPN.UHL_
      7756**DCL      7757--REDEF    7757--REDEF
AUOPN.V
      7765**DCL      7756--DCLINIT
AUOPN.V.DCB#
      7765**DCL     15029<<ASSIGN
AUOPN.V.FSN#
      7796**DCL      7796--REDEF    7796--REDEF
AUOPN.WSN_
      7762**DCL      7762--REDEF
AUSETSTA
      8134**DCL      7757--DCLINIT
B$ALT.CODE
      7430**DCL      7430--REDEF    7431--REDEF    7431--REDEF
B$ALT.ERR
      7431**DCL     15083>>ASSIGN
B$ALT.ERR.ERR#
      7432**DCL      7432--REDEF
B$ALT.EVID
      7431**DCL      7431--REDEF    7431--REDEF
B$JIT.ERR.MID
      1174**DCL      1174--REDEF
B$JIT.JRESPEAK
      1264**DCL      1265--REDEF
PL6.E3A0      #005=XSS$COMMINIT File=XSS$COMM.:XSA1TSI                           WED 10/01/97 12:11 Page:283
B$JIT.LNKCNT
      1297**DCL     15019>>CALLBLT
B$JIT.PLL
      1260**DCL     14949>>IF
B$JIT.PUL
      1260**DCL     14949>>IF
B$JIT.SYSID
      1173**DCL     15020>>CALLBLT
B$JIT$
     14913**DCL      1168--IMP-PTR 14949>>IF      14949>>IF      15019>>CALLBLT 15020>>CALLBLT
B$TCB.ALT$
      7437**DCL     15083>>ASSIGN
B$TCB$
     14914**DCL     15083>>ASSIGN
BUF$
     14917**DCL     14986<>CALL    15072<>CALL    15073>>ASSIGN
CCB
      9145**DCL        15--PROC    14946--ASSIGN  15059<>CALL    15075>>ASSIGN  15096--ENTRY
CCB.ADDR$
      9349**DCL      9725--IMP-PTR 14962>>IF      15006>>ASSIGN  15007>>ASSIGN  15036>>ASSIGN  15073>>ASSIGN
CCB.DCB#
      9192**DCL     14967>>IF      14981<<ASSIGN  15000>>ASSIGN  15119>>ASSIGN  15129>>ASSIGN  15135>>ASSIGN
CCB.ERRDEF
      9252**DCL      9272--REDEF
CCB.ERROR
      9272**DCL     14951>>IF      14956<<ASSIGN  15087<<ASSIGN
CCB.EVNT$
      9367**DCL     15044>>IF      15046<<ASSIGN  15052>>ASSIGN
CCB.FLAGS.ACTIVE
      9225**DCL     14957>>IF      15070<<ASSIGN  15109>>IF      15150<<ASSIGN
CCB.FLAGS.BLOCKING
      9204**DCL     15003>>ASSIGN
CCB.FLAGS.EVALID
      9220**DCL     15044>>IF      15051>>IF
CCB.FLAGS.MODE
      9235**DCL     15001>>ASSIGN  15115>>IF
PL6.E3A0      #005=XSS$COMMINIT File=XSS$COMM.:XSA1TSI                           WED 10/01/97 12:11 Page:284
CCB.LCID
      9244**DCL     14996<<ASSIGN  15075>>ASSIGN  15100>>ASSIGN  15142<>CALL
CCB.SESS$
      9381**DCL     15002>>ASSIGN
CCB.SFPTX
      9342**DCL     14984<>CALL    14989<>CALL    14990<<ASSIGN  15146>>IF      15147<>CALL    15148<<ASSIGN
CCB$
     14918**DCL     15075>>ASSIGN
CGCP
      8046**DCL      7538--DCLINIT
CGCP.DVBYTE.REREAD#
      8060**DCL      8061--REDEF
CGCTL
      7537**DCL     15033<>CALL
CGCTL.V
      7542**DCL      7537--DCLINIT
CGCTL.V.DCB#
      7542**DCL     15032<<ASSIGN
CHAR8
     14919**DCL     15021>>ASSIGN
CLSERR
     15075**LABEL   15131--CALLALT 15137--CALLALT
CTLERR
     15083**LABEL   15033--CALLALT
CTX$
     14920**DCL     14098--IMP-PTR 14986<>CALL    14996>>ASSIGN  14998>>ASSIGN  14999>>ASSIGN  15000>>ASSIGN
     15001>>ASSIGN  15002>>ASSIGN  15003>>ASSIGN  15008>>DOCASE  15012>>ASSIGN  15018>>CALLBLT 15023>>ASSIGN
     15029>>ASSIGN  15032>>ASSIGN  15037>>ASSIGN  15039>>ASSIGN  15058>>IF      15061>>IF      15062>>IF
     15063>>ASSIGN  15069>>ASSIGN  15072>>CALL    15098<<ASSIGN  15102<>CALL    15105>>ASSIGN  15140>>IF
     15141>>IF      15143<>CALL
DCBN
     14921**DCL      7659--DCLINIT 14968>>IF      14976--IF      14981>>ASSIGN
DCBNAME
      7687**DCL      7658--DCLINIT
ERRCODE
      8089**DCL     14958<<ASSIGN  14963<<ASSIGN  14972<<ASSIGN  14978<<ASSIGN  14992<<ASSIGN  15063<<ASSIGN
PL6.E3A0      #005=XSS$COMMINIT File=XSS$COMM.:XSA1TSI                           WED 10/01/97 12:11 Page:285
     15083<<ASSIGN  15086<>CALL    15087>>ASSIGN  15110<<ASSIGN
EVENTINITED
     14922**DCL     15049>>IF      15055<<ASSIGN
F$DCB.ACTPOS
      7472**DCL      7472--REDEF
F$DCB.ARS#
      7446**DCL      7446--REDEF
F$DCB.ATTR
      7465**DCL      7466--REDEF
F$DCB.BORROW
      7480**DCL      7480--REDEF    7480--REDEF    7480--REDEF
F$DCB.DCBNAME.L
      7494**DCL      7494--IMP-SIZ
F$DCB.EOMCHAR#
      7450**DCL      7450--REDEF
F$DCB.FCD#
      7459**DCL     14976>>IF
F$DCB.FLDID
      7475**DCL      7475--REDEF
F$DCB.FORM$
      7469**DCL      7469--REDEF
F$DCB.FSECT
      7485**DCL      7485--REDEF
F$DCB.FSN#
      7462**DCL      7462--REDEF    7462--REDEF    7463--REDEF
F$DCB.HEADER$
      7468**DCL      7468--REDEF
F$DCB.IXTNSIZE#
      7466**DCL      7466--REDEF
F$DCB.LASTSTA$
      7455**DCL      7455--REDEF
F$DCB.LVL
      7481**DCL      7481--REDEF
F$DCB.NAME#.C
      7456**DCL      7456--REDEF
F$DCB.NOEOF
PL6.E3A0      #005=XSS$COMMINIT File=XSS$COMM.:XSA1TSI                           WED 10/01/97 12:11 Page:286
      7478**DCL      7478--REDEF
F$DCB.NRECS#
      7467**DCL      7467--REDEF
F$DCB.NRECX
      7486**DCL      7486--REDEF
F$DCB.OHDR
      7478**DCL      7478--REDEF
F$DCB.ORG#
      7461**DCL      7461--REDEF
F$DCB.PRECNO
      7484**DCL      7484--REDEF
F$DCB.RCSZ
      7490**DCL      7490--REDEF
F$DCB.RES#
      7457**DCL      7457--REDEF
F$DCB.SETX
      7469**DCL      7469--REDEF
F$DCB.TAB$
      7469**DCL      7469--REDEF
F$DCB.TDA
      7483**DCL      7484--REDEF
F$DCB.WSN#
      7457**DCL      7457--REDEF
FPT$
     14923**DCL     13216--IMP-PTR 14984<>CALL    14997>>ASSIGN  14998>>ASSIGN
FPT_EVENT
      7644**DCL     15050<>CALL
FPT_EVENT.V
      7644**DCL      7644--DCLINIT
FPT_GETDCB
      7658**DCL     14970<>CALL
FPT_GETDCB.V
      7659**DCL      7658--DCLINIT
M$ATTACH
      7378**DCL-ENT 15038--CALL
M$CGCTL
PL6.E3A0      #005=XSS$COMMINIT File=XSS$COMM.:XSA1TSI                           WED 10/01/97 12:11 Page:287
      7377**DCL-ENT 15033--CALL
M$CLOSE
      7356**DCL-ENT 15131--CALL    15137--CALL
M$EVENT
      7411**DCL-ENT 15050--CALL
M$GETDCB
      7362**DCL-ENT 14970--CALL
M$OPEN
      7356**DCL-ENT 15014--CALL    15025--CALL    15031--CALL
NCCLS
      7614**DCL     15137<>CALL
NCCLS.SN_
      7614**DCL      7614--REDEF
NCCLS.UTL_
      7615**DCL      7615--REDEF
NCCLS.V
      7619**DCL      7614--DCLINIT
NCCLS.V.DCB#
      7620**DCL     15135<<ASSIGN
NCCLS.V.EXPIRE#
      7629**DCL      7629--REDEF
NCCLS.V.TYPE#
      7627**DCL      7627--REDEF
NCCLS.V.XTNSIZE#
      7624**DCL      7624--REDEF    7626--REDEF
NCOPN
      7865**DCL     15014<>CALL
NCOPN.ACSVEH_
      7867**DCL      7868--REDEF
NCOPN.ALTKEYS_
      7873**DCL      7874--REDEF    7874--REDEF
NCOPN.HDR_
      7872**DCL      7873--REDEF
NCOPN.NAME_
      7866**DCL     15011<<ASSIGN
NCOPN.TAB_
PL6.E3A0      #005=XSS$COMMINIT File=XSS$COMM.:XSA1TSI                           WED 10/01/97 12:11 Page:288
      7871**DCL      7872--REDEF
NCOPN.UHL_
      7865**DCL      7866--REDEF    7866--REDEF
NCOPN.V
      7874**DCL      7865--DCLINIT
NCOPN.V.DCB#
      7874**DCL     15012<<ASSIGN
NCOPN.V.FSN#
      7905**DCL      7905--REDEF    7905--REDEF
NCOPN.WSN_
      7871**DCL      7871--REDEF
NCOPNDBG
      7975**DCL     15025<>CALL
NCOPNDBG.ACSVEH_
      7977**DCL      7978--REDEF
NCOPNDBG.ALTKEYS_
      7983**DCL      7984--REDEF    7984--REDEF
NCOPNDBG.HDR_
      7982**DCL      7983--REDEF
NCOPNDBG.NAME_
      7976**DCL     15022<<ASSIGN
NCOPNDBG.TAB_
      7981**DCL      7982--REDEF
NCOPNDBG.UHL_
      7975**DCL      7976--REDEF    7976--REDEF
NCOPNDBG.V
      7984**DCL      7975--DCLINIT
NCOPNDBG.V.DCB#
      7984**DCL     15023<<ASSIGN
NCOPNDBG.V.FSN#
      8015**DCL      8015--REDEF    8015--REDEF
NCOPNDBG.WSN_
      7981**DCL      7981--REDEF
NCSETSTA
      8162**DCL      7976--DCLINIT
NCSETSTA.MYSTATION#
PL6.E3A0      #005=XSS$COMMINIT File=XSS$COMM.:XSA1TSI                           WED 10/01/97 12:11 Page:289
      8166**DCL     15021<<ASSIGN
NODYNMEM
     14992**LABEL   14984--CALLALT
NOTIFY
     15085**LABEL   14959--GOTO    14964--GOTO    14973--GOTO    14979--GOTO    14993--GOTO    15064--GOTO
     15111--GOTO
OPNERR
     15075**LABEL   15014--CALLALT 15025--CALLALT 15031--CALLALT
P
     14924**DCL     14925--REDEF   14946<<ASSIGN
PX.OFFSET
     14926**DCL     14948>>ASSIGN
PX.SEGID
     14928**DCL     14947>>IF
SCID
     14929**DCL     14944<<ASSIGN  14999<<ASSIGN  15013<>CALL    15024<>CALL    15030<>CALL    15085<>CALL
     15100<<ASSIGN  15101<>CALL    15102<>CALL    15130<>CALL    15136<>CALL
SCTX.ALARM
     14390**DCL     15141>>IF
SCTX.BLOCKING
     14389**DCL     15003<<ASSIGN
SCTX.DCB#
     14427**DCL     15000<<ASSIGN  15012>>ASSIGN  15018>>CALLBLT 15023>>ASSIGN  15029>>ASSIGN  15032>>ASSIGN
     15037>>ASSIGN
SCTX.ENTRY$
     14410**DCL     15002<<ASSIGN
SCTX.HISTZ
     14412**DCL     14413--REDEF
SCTX.LATCH.ERRCODE
     14480**DCL     15062>>IF      15063>>ASSIGN
SCTX.LATCH.PRESENT
     14460**DCL     15061>>IF
SCTX.MODE
     14394**DCL     15001<<ASSIGN  15008>>DOCASE  15058>>IF
SCTX.NEEDAREAD
     14391**DCL     15069<<ASSIGN
PL6.E3A0      #005=XSS$COMMINIT File=XSS$COMM.:XSA1TSI                           WED 10/01/97 12:11 Page:290
SCTX.SCID
     14399**DCL     14996>>ASSIGN  14998>>ASSIGN  14999>>ASSIGN
SCTX.SRCX
     14117**DCL     15072<>CALL
SCTX.STATION
     14422**DCL     15039<<ASSIGN
SCTX.TERMINATING
     14392**DCL     15105<<ASSIGN
TEMP
     14930**DCL     14948<<ASSIGN  14949>>IF      14949>>IF
TSAPBYTES
     14931**DCL     15011--ASSIGN  15022--ASSIGN  15028--ASSIGN
TSAPLEN
     14932**DCL     14931--IMP-SIZ 15006<<ASSIGN  15011>>ASSIGN  15022>>ASSIGN  15028>>ASSIGN
TSAPPTR$
     14933**DCL     14931--IMP-PTR 15007<<ASSIGN  15011>>ASSIGN  15022>>ASSIGN  15028>>ASSIGN
UADR
      9725**DCL     15073>>ASSIGN
UADR.NSAP.ADDRESS_N
      9986**DCL      9987--REDEF
UADR.TSAP
      9882**DCL     15036--ASSIGN
UADR.TSAP.LEN
      9884**DCL     15006>>ASSIGN
UADR.TSAP.TSAP
      9892**DCL     15007--ASSIGN
UNIQUE
     14934**DCL     15021--ASSIGN
UNIQUE.DCB#
     14935**DCL     15018<<CALLBLT
UNIQUE.LNKCNT
     14936**DCL     15019<<CALLBLT
UNIQUE.SYSID
     14937**DCL     15020<<CALLBLT
XSC$ADDRESS
      9442**DCL     15073<<ASSIGN
PL6.E3A0      #005=XSS$COMMINIT File=XSS$COMM.:XSA1TSI                           WED 10/01/97 12:11 Page:291
XSC$ADDRESS.NSAP.ADDRESS_N
      9703**DCL      9704--REDEF
XSC$CCB
      8848**DCL     15075<<ASSIGN
XSC$CCB.ERRDEF
      8955**DCL      8975--REDEF
XSS$BUFPTR
     14902**DCL-ENT 15072--CALL
XSS$CLOCK
     14900**DCL-ENT 15142--CALL
XSS$COMMWAITX
     14901**DCL-ENT 15059--CALL
XSS$CTXPTR
     14903**DCL-ENT 15102--CALL
XSS$EVENT
     14904**DCL-ENT 15046--ASSIGN
XSS$EVLOG
     14911**DCL-ENT 14945--CALL    14969--CALL    15013--CALL    15024--CALL    15030--CALL    15085--CALL
     15086--CALL    15101--CALL    15130--CALL    15136--CALL
XSS$GENERIC
     13216**DCL     14984--CALL    14997<<ASSIGN
XSS$GENERIC.ERRDEF
     13270**DCL     13290--REDEF
XSS$GENERIC.SCID
     13231**DCL     14998<<ASSIGN
XSS$GETCTX
     14905**DCL-ENT 14986--CALL
XSS$GETMEM
     14906**DCL-ENT 14984--CALL
XSS$RELCTX
     14907**DCL-ENT 15143--CALL
XSS$RELMEM
     14908**DCL-ENT 14989--CALL    15147--CALL
XSS$SCREECH
     14909**DCL-ENT 14953--CALL
XSS$TRECV
PL6.E3A0      #005=XSS$COMMINIT File=XSS$COMM.:XSA1TSI                           WED 10/01/97 12:11 Page:292
     14910**DCL-ENT  7644--DCLINIT
XSS_CCB$$
     14915**DCL     14918--IMP-PTR 15075>>ASSIGN
XSS_DEBUG
     14938**DCL     15010>>IF      15034>>IF      15117>>IF
XSS_E$ADDR
     14610**DCL     14963>>ASSIGN
XSS_E$BADCID
     14661**DCL     14958>>ASSIGN  15110>>ASSIGN
XSS_E$DEFAULTDCB
     14709**DCL     14978>>ASSIGN
XSS_E$NODYNMEM
     14760**DCL     14992>>ASSIGN
XSS_E$NOGETDCB
     14811**DCL     14972>>ASSIGN
XSS_E$RDONLYCCB
     14862**DCL     14951>>IF      14953<>CALL
XSS_EVENT$
     14939**DCL     15052<<ASSIGN  15054<<ASSIGN
XSS_GENERIC
     13362**DCL     14997>>ASSIGN
XSS_GENERIC.ERRDEF
     13416**DCL     13436--REDEF
PL6.E3A0      #005=XSS$COMMINIT File=XSS$COMM.:XSA1TSI                           WED 10/01/97 12:11 Page:293
              *** CROSS REFERENCE LISTING ***
    **     DENOTES     IDENTIFIER DEFINITION
    <<                 IDENTIFIER'S VALUE SET
    >>                 IDENTIFIER'S VALUE USED
    <>                 IDENTIFIER SET AND/OR USED
    --                 IDENTIFIER REFERENCED
PL6.E3A0      #005=XSS$COMMINIT File=XSS$COMM.:XSA1TSI                           WED 10/01/97 12:11 Page:294
              MINI UREF LISTING

DETERR   15075**LABEL
M$ACCT    7373**DCL-ENT
M$ACTIVATE    7376**DCL-ENT
M$ALIB    7369**DCL-ENT
M$ASUSER    7371**DCL-ENT
M$BADPP    7396**DCL-ENT
M$CGINFO    7377**DCL-ENT
M$CHECK    7358**DCL-ENT
M$CHGUNIT    7416**DCL-ENT
M$CLRSTK    7414**DCL-ENT
M$CMDVAR    7425**DCL-ENT
M$CONFIG    7386**DCL-ENT
M$CORRES    7361**DCL-ENT
M$CPEXIT    7370**DCL-ENT
M$CVM    7394**DCL-ENT
M$CVOL    7359**DCL-ENT
M$DCLFLD    7386**DCL-ENT
M$DEACTIVATE    7376**DCL-ENT
M$DELREC    7358**DCL-ENT
M$DEQ    7423**DCL-ENT
M$DETACH    7378**DCL-ENT
M$DEVICE    7360**DCL-ENT
M$DISPLAY    7423**DCL-ENT
M$DISPRES    7363**DCL-ENT
M$DLIB    7369**DCL-ENT
M$DRIBBLE    7386**DCL-ENT
M$DRTN    7414**DCL-ENT
M$DSUSER    7371**DCL-ENT
M$ENQ    7422**DCL-ENT
M$EOM    7381**DCL-ENT
M$ERASE    7387**DCL-ENT
M$ERR    7368**DCL-ENT
PL6.E3A0      #005=XSS$COMMINIT File=XSS$COMM.:XSA1TSI                           WED 10/01/97 12:11 Page:295
M$ERRMSG    7419**DCL-ENT
M$EXHUME    7420**DCL-ENT
M$EXIT    7368**DCL-ENT
M$EXTEND    7360**DCL-ENT
M$FDP    7392**DCL-ENT
M$FDS    7391**DCL-ENT
M$FEBOOT    7384**DCL-ENT
M$FECTL    7385**DCL-ENT
M$FEDUMP    7384**DCL-ENT
M$FID    7419**DCL-ENT
M$FINDPROC    7373**DCL-ENT
M$FSUSER    7371**DCL-ENT
M$FVP    7393**DCL-ENT
M$FWCG    7377**DCL-ENT
M$GBPL    7397**DCL-ENT
M$GDDL    7393**DCL-ENT
M$GDP    7392**DCL-ENT
M$GDS    7391**DCL-ENT
M$GETMOUSE    7402**DCL-ENT
M$GETPM    7403**DCL-ENT
M$GJOB    7421**DCL-ENT
M$GLINEATTR    7381**DCL-ENT
M$GOODPP    7396**DCL-ENT
M$GPLATEN    7389**DCL-ENT
M$GPROMPT    7388**DCL-ENT
M$GTRMATTR    7382**DCL-ENT
M$GTRMCTL    7380**DCL-ENT
M$GTRMTAB    7383**DCL-ENT
M$GVP    7392**DCL-ENT
M$HELP    7419**DCL-ENT
M$INT    7411**DCL-ENT
M$INTRTN    7372**DCL-ENT
M$IOQ    7407**DCL-ENT
M$JOBSTATS    7421**DCL-ENT
M$KEYIN    7361**DCL-ENT
M$LDEV    7356**DCL-ENT
PL6.E3A0      #005=XSS$COMMINIT File=XSS$COMM.:XSA1TSI                           WED 10/01/97 12:11 Page:296
M$LDTRC    7369**DCL-ENT
M$LIMIT    7362**DCL-ENT
M$LINES    7361**DCL-ENT
M$LINK    7368**DCL-ENT
M$MADMUCK    7364**DCL-ENT
M$MAKUSER    7395**DCL-ENT
M$MBS    7363**DCL-ENT
M$MDFFLD    7387**DCL-ENT
M$MERC    7412**DCL-ENT
M$MERCS    7413**DCL-ENT
M$MIRROR    7407**DCL-ENT
M$MONINFO    7424**DCL-ENT
M$MPL    7397**DCL-ENT
M$NODEINFO    7388**DCL-ENT
M$NXTUSR    7422**DCL-ENT
M$OCMSG    7420**DCL-ENT
M$OLAY    7368**DCL-ENT
M$PAS    7397**DCL-ENT
M$PATHCON    7420**DCL-ENT
M$PDS    7391**DCL-ENT
M$PFIL    7358**DCL-ENT
M$PLATEN    7382**DCL-ENT
M$PRECORD    7360**DCL-ENT
M$PROCNAME    7373**DCL-ENT
M$PROFILE    7384**DCL-ENT
M$PROMPT    7380**DCL-ENT
M$RACST    7364**DCL-ENT
M$RDSYSLOG    7405**DCL-ENT
M$READ    7357**DCL-ENT
M$RELDCB    7362**DCL-ENT
M$RELRES    7363**DCL-ENT
M$RELSTARF    7365**DCL-ENT
M$REM    7365**DCL-ENT
M$RENV    7412**DCL-ENT
M$REQUIRE    7364**DCL-ENT
M$RETRY    7413**DCL-ENT
PL6.E3A0      #005=XSS$COMMINIT File=XSS$COMM.:XSA1TSI                           WED 10/01/97 12:11 Page:297
M$RETRYS    7413**DCL-ENT
M$REW    7359**DCL-ENT
M$RLSFLD    7387**DCL-ENT
M$RPRIV    7415**DCL-ENT
M$RSPP    7394**DCL-ENT
M$RSWITCH    7416**DCL-ENT
M$RUE    7422**DCL-ENT
M$SAD    7395**DCL-ENT
M$SAVE    7371**DCL-ENT
M$SCON    7372**DCL-ENT
M$SCREECH    7370**DCL-ENT
M$SENV    7412**DCL-ENT
M$SETFMA    7356**DCL-ENT
M$SETFP    7385**DCL-ENT
M$SINPUT    7383**DCL-ENT
M$SLCFLD    7388**DCL-ENT
M$SMOUSE    7402**DCL-ENT
M$SMPRT    7394**DCL-ENT
M$SPRIV    7415**DCL-ENT
M$SSC    7395**DCL-ENT
M$SSWITCH    7415**DCL-ENT
M$STATE    7424**DCL-ENT
M$STD    7396**DCL-ENT
M$STIMER    7410**DCL-ENT
M$STLPP    7393**DCL-ENT
M$STRAP    7410**DCL-ENT
M$STRMATTR    7382**DCL-ENT
M$STRMCTL    7380**DCL-ENT
M$STRMTAB    7383**DCL-ENT
M$SYMBIO    7421**DCL-ENT
M$SYSCON    7407**DCL-ENT
M$SYSID    7425**DCL-ENT
M$TDCLOSE    7406**DCL-ENT
M$TDIO    7406**DCL-ENT
M$TDOPEN    7405**DCL-ENT
M$TDREQCPU    7406**DCL-ENT
PL6.E3A0      #005=XSS$COMMINIT File=XSS$COMM.:XSA1TSI                           WED 10/01/97 12:11 Page:298
M$TEMPWROC    7400**DCL-ENT
M$TIME    7423**DCL-ENT
M$TRAP    7410**DCL-ENT
M$TRMISC    7385**DCL-ENT
M$TRMPRG    7381**DCL-ENT
M$TRTN    7414**DCL-ENT
M$TRUNC    7357**DCL-ENT
M$TTIMER    7410**DCL-ENT
M$UC    7380**DCL
M$UMPL    7397**DCL-ENT
M$UNFID    7419**DCL-ENT
M$UNLATCH    7376**DCL-ENT
M$UNSHARE    7373**DCL-ENT
M$USRFIELD    7416**DCL-ENT
M$VIRTUAL    7391**DCL-ENT
M$WAIT    7414**DCL-ENT
M$WEOF    7359**DCL-ENT
M$WRITE    7357**DCL-ENT
M$WRSYSLOG    7405**DCL-ENT
M$XCON    7411**DCL-ENT
M$XCONRTN    7372**DCL-ENT
M$XEQTIME    7424**DCL-ENT
M$XFLUSH    7365**DCL-ENT
M$XMOUSE    7402**DCL-ENT
M$XXX    7368**DCL-ENT
M$YC    7370**DCL-ENT
XSS$COMMINIT      15**PROC
XSS$COMMTERM   15096**ENTRY
XSS_ITRACE   14940**DCL
XSS_OTRACE   14941**DCL
XSS_TRACE   14942**DCL
