PL6.E3A0      #004=XSS$COMMWAIT File=XSS$COMM.:XSA1TSI                           WED 10/01/97 12:09 Page:111
      403        1        /*T***********************************************************/
      404        2        /*T*                                                         */
      405        3        /*T* Copyright (c) Bull HN Information Systems Inc., 1997    */
      406        4        /*T*                                                         */
      407        5        /*T***********************************************************/
      408        6        /*F*
      409        7                NAME:   XSS$COMMWAIT
      410        8                PURPOSE:
      411        9                    The user application (client or server) calls this routine to wait
      412       10                    for incoming messages.
      413       11                DESCRIPTION:
      414       12                    The number of seconds to wait is passed in the parameter PARM1.
      415       13                    If the wait is interrupted (which usually means an incoming
      416       14                    message was received) the routine ALTRETURNs.  If the wait is not
      417       15                    interrupted the routine RETURNs.
      418       16
      419       17                    Before waiting, the event queue is checked to see if a message
      420       18                    arrived since the last call to XSS$COMMWAIT.  If so, it is
      421       19                    processed and the appropriate M$READ reissued.
      422       20
      423       21                    NOTE: At most one non-Admin message will be processed (i.e., the
      424       22                    application's handler will be called at most one time) for each
      425       23                    call to XSS$COMMWAIT.  However, Session timer expirations may
      426       24                    cause additional entries to the application's handler.
      427       25        */
      428       26        XSS$COMMWAIT: PROC( PARM1) ALTRET;
      429       27        %INCLUDE XSS_SESSION_E;
      430      592        %INCLUDE B_ERRORS_C;
      431     1719        %INCLUDE CP_6;
      432     7278            %B$ALT;
      433     7286            %B$CGAURD( STCLASS="BASED( BUF$)");
      434     7305            %B$TCB;
      435     7308            %EQU_CG;
      436     7356            %F$DCB;
      437     7413            %FPT_SCREECH( SCODE=VLP_SUA);
      438     7427            %VLP_SUA( SEV=5, LDCTS=YES, CWSPT=YES, FCG='XS', MID='S', CODE=9999);
      439     7497            %FPT_EXTEND;
PL6.E3A0      #004=XSS$COMMWAIT File=XSS$COMM.:XSA1TSI                           WED 10/01/97 12:09 Page:112
      440     7511            %FPT_READ( FPTN=AURD, WAIT=NO, TRANS=YES);
      441     7550            %FPT_READ( FPTN=NCRD, WAIT=NO, TRANS=YES);
      442     7589            %FPT_WAIT( UETIME=UETIME, UNITS=10);
      443     7603            %VLP_ERRCODE( FPTN=ERRCODE);
      444     7648            %VLP_STATION( FPTN=XSS_AUSTA, STATION='SERVER', STCLASS="STATIC SYMDEF");
      445     7675            %VLP_STATION( FPTN=XSS_NCSTA, STCLASS="STATIC SYMDEF");
      446     7702        %INCLUDE K_ADDRESS_M;
      447     8205        %INCLUDE XSC_COMMON_M;
      448     8858            %XSC$CCB( NAME=CCB, STCLASS="BASED( CCB$)");
      449     9155        %INCLUDE XSS_INTERNAL_E;
      450     9453        %INCLUDE XSS_INTERNAL_M;
      451    10042            %XSS$SCTX( NAME=SCTX, STCLASS="BASED( CTX$)");
      452    10476            %XSS$SCTX( NAME=LCTX, STCLASS="BASED( LCTX$)");
      453    10910        %MACRO FATALDEF( NAME=XSS_FATAL, STCLASS="CONSTANT SYMDEF", LVL=1, LAST=";",
      454    10911                         ERR#=0, SEV=7);
      455    10912            %VLP_ERRCODE( FPTN=NAME, STCLASS=STCLASS, FCG='XS', MID='S',
      456    10913                          MON='0'B, ERR#=ERR#, SEV=SEV);
      457    10914        %MEND;
      458    10915        %INCLUDE XSC_PERR_C;
      459    10992            %FATALDEF( NAME=XSS_F$CGEVNTOTHER, ERR#=%F$CGEVNTOTHER);
      460    11040            /*E*  ERROR:  XSS-F$CGEVNTOTHER-7
      461    11041                MESSAGE:  Unexpected CG Admin event received.
      462    11042            */
      463    11043            %FATALDEF( NAME=XSS_F$CGWARNDISK, ERR#=%F$CGWARNDISK);
      464    11091            /*E*  ERROR:  XSS-F$CGWARNDISK-7
      465    11092                MESSAGE:  CG Admin disk warning received.
      466    11093            */
      467    11094            %FATALDEF( NAME=XSS_F$CGWARNMEM, ERR#=%F$CGWARNMEM);
      468    11142            /*E*  ERROR:  XSS-F$CGWARNMEM-7
      469    11143                MESSAGE:  CG Admin memory warning received.
      470    11144            */
      471    11145            %FATALDEF( NAME=XSS_F$CGWARNOTHER, ERR#=%F$CGWARNOTHER);
      472    11193            /*E*  ERROR:  XSS-F$CGWARNOTHER-7
      473    11194                MESSAGE:  Unexpected CG Admin warning received.
      474    11195            */
      475    11196            %FATALDEF( NAME=XSS_F$DECODE, ERR#=%F$DECODE);
      476    11244            /*E*  ERROR:  XSS-F$DECODE-7
PL6.E3A0      #004=XSS$COMMWAIT File=XSS$COMM.:XSA1TSI                           WED 10/01/97 12:09 Page:113
      477    11245                MESSAGE:  Malformed PDU detected by decoder.
      478    11246            */
      479    11247            %FATALDEF( NAME=XSS_F$EVNTQUE, ERR#=%F$EVNTQUE);
      480    11295            /*E*  ERROR:  XSS-F$EVNTQUE-7
      481    11296                MESSAGE:  Session event queue has been corrupted.
      482    11297            */
      483    11298
      484    11299    1       DCL XSS$ALARMCHECK ENTRY;
      485    11300    1       DCL XSS$CTXPTR ENTRY(2) ALTRET;
      486    11301    1       DCL XSS$BUFPTR ENTRY(2) ALTRET;
      487    11302    1       DCL XSS$DUMPBYTES ENTRY(3) OPTIONAL;
      488    11303    1       DCL XSS$SCREECH ENTRY(1);
      489    11304    1       DCL XSS$TCREDIT ENTRY(1) ALTRET;
      490    11305    1       DCL XSS$EVLOG ENTRY(2);
      491    11306
      492    11307    1       DCL B$TCB$ PTR SYMREF;
      493    11308    1       DCL XSS_DEBUG UBIN SYMREF;
      494    11309    1       DCL XSS_ITRACE SBIN SYMREF;
      495    11310
      496    11311    1       DCL BUF$ PTR;
      497    11312    1       DCL COUNTER SBIN;
      498    11313    1       DCL CTX$ PTR;
      499    11314    1       DCL LCTX$ PTR;
      500    11315    1       DCL CCB$ REDEF LCTX$ PTR;
      501    11316    1       DCL LEN SBIN;
      502    11317    1       DCL MSG CHAR( LEN) BASED( PTR$);
      503    11318    1       DCL NEEDCREDIT BIT(1) UNAL;
      504    11319    1       DCL PTR$ PTR;
      505    11320    1       DCL FPT$ REDEF PTR$ PTR;
      506    11321    1       DCL PARM1 SBIN;
      507    11322    1       DCL RDBUFFER CHAR(%BUFSIZE) BASED( BUF$) CALIGNED;
      508    11323    1       DCL SCID SBIN;
      509    11324    1       DCL SECONDS SBIN;
      510    11325    1       DCL UETIME SBIN STATIC;
      511    11326    1       DCL XSS_EVENTED BIT(1) STATIC SYMDEF;
      512    11327    1       DCL XSS_EVHDX UBIN HALF HALIGNED INIT( %NULL) STATIC SYMDEF;
      513    11328    1       DCL XSS_EVTLX UBIN HALF HALIGNED INIT( %NULL) STATIC SYMDEF;
PL6.E3A0      #004=XSS$COMMWAIT File=XSS$COMM.:XSA1TSI                           WED 10/01/97 12:09 Page:114
      514    11329    1       DCL AUTITLE CHAR(0) CONSTANT INIT( '(XSS$TRECV) AU rcvd');
      515    11330    1       DCL AUTITLE_ VECTOR CONSTANT INIT( VECTOR( AUTITLE));
      516    11331    1       DCL NCTITLE CHAR(0) CONSTANT INIT( '(XSS$TRECV) NC rcvd');
      517    11332    1       DCL NCTITLE_ VECTOR CONSTANT INIT( VECTOR( NCTITLE));
      518    11333
      519    11334    1   COMMWAIT:
      520    11335    1       SECONDS = PARM1;
      521    11336    1       CALL XSS$EVLOG( 'KW', SECONDS);
      522    11337    1   JOINWAIT:
      523    11338            /* save number of seconds to wait */
      524    11339    1       FPT_WAIT.V.UNITS# = SECONDS;
      525    11340    1       UETIME = 0;
      526    11341    1       COUNTER = 0;
      527    11342        %EJECT;
PL6.E3A0      #004=XSS$COMMWAIT File=XSS$COMM.:XSA1TSI                           WED 10/01/97 12:09 Page:115
      528    11343    1   CHECK4MSG:
      529    11344    2       DO WHILE( COUNTER = 0);
      530    11345    2           IF XSS_EVHDX = %NULL THEN
      531    11346                    /* no messages were latched since last time */
      532    11347    2               EXIT CHECK4MSG;
      533    11348                /* remove the first latched message from the event queue */
      534    11349    3           DO INHIBIT;
      535    11350    3               SCID = XSS_EVHDX;
      536    11351    3               CALL XSS$CTXPTR( SCID, CTX$);  /* this routine is INHIBITED too */
      537    11352    4               IF SCTX.LATCH.LNKX = %NULL THEN DO;
      538    11353    4                   XSS_EVHDX = %NULL;
      539    11354    4                   XSS_EVTLX = %NULL;
      540    11355    4                   END;
      541    11356    4               ELSE DO;
      542    11357    4                   XSS_EVHDX = SCTX.LATCH.LNKX;
      543    11358    4                   SCTX.LATCH.LNKX = %NULL;
      544    11359    4                   END;
      545    11360    3               SCTX.LATCH.PRESENT = %FALSE;
      546    11361    3               END;
      547    11362                /* o.k. now deal with it */
      548    11363    3           IF XSS_ITRACE ~= 0 THEN DO;
      549    11364    3               PTR$ = SCTX.LATCH.MSG$;
      550    11365    3               LEN = SCTX.LATCH.MSGSZ;
      551    11366    4               DO CASE( SCTX.MODE);
      552    11367    4                   CASE( %CLIENT);
      553    11368    4                       CALL XSS$DUMPBYTES( 1, VECTOR( MSG), NCTITLE_);
      554    11369    4                   CASE( %SERVER);
      555    11370    4                       CALL XSS$DUMPBYTES( 1, VECTOR( MSG), AUTITLE_);
      556    11371    4                   END;
      557    11372    3               END;
      558    11373    2           NEEDCREDIT = %FALSE;
      559    11374        %EJECT;
PL6.E3A0      #004=XSS$COMMWAIT File=XSS$COMM.:XSA1TSI                           WED 10/01/97 12:09 Page:116
      560    11375                /* see if this was a CG ADMIN msg on an AU DCB */
      561    11376    3           IF SCTX.LATCH.ADMIN THEN DO;
      562    11377    3               BUF$ = SCTX.LATCH.MSG$;
      563    11378    3               CALL XSS$EVLOG( 'AU', B$CGAURD.EVENT*512 + B$CGAURD.INFO);
      564    11379    4               DO CASE( B$CGAURD.EVENT);
      565    11380    4                   CASE( %CG_DOPN#);
      566    11381    4                   CASE( %CG_DCLS#);
      567    11382                            /* DCB close.  Make sure Session is told. */
      568    11383    4                       CALL QUICKDISC;
      569    11384    4                   CASE( %CG_TCON#);
      570    11385    4                   CASE( %CG_TDRQ#);
      571    11386    4                   CASE( %CG_TDSC#);
      572    11387    4                   CASE( %CG_WARN#);
      573    11388    5                       DO CASE( B$CGAURD.INFO);
      574    11389    5                           CASE( %CG_WARN_MEM#);
      575    11390    5                               CALL XSS$SCREECH( XSS_F$CGWARNMEM);
      576    11391    5                           CASE( %CG_WARN_DISK#);
      577    11392    5                               FPT_EXTEND.V.DCB# = SCTX.DCB#;
      578    11393    5                               FPT_EXTEND.V.SIZ# = %XTNSIZE;
      579    11394    5                               CALL M$EXTEND( FPT_EXTEND) ALTRET( XTNERR);
      580    11395                                 /* CALL XSS$SCREECH( XSS_F$CGWARNDISK); */
      581    11396    5                           CASE( ELSE);
      582    11397    5                               CALL XSS$SCREECH( XSS_F$CGWARNOTHER);
      583    11398    5                           END;
      584    11399    4                   CASE( ELSE);
      585    11400    4                       CALL XSS$SCREECH( XSS_F$CGEVNTOTHER);
      586    11401    4                   END;
      587    11402    3               END;
      588    11403    2           ELSE
      589    11404                    /* Not a CG ADMIN message.  Error being reported? */
      590    11405    3               IF SCTX.LATCH.ERRCODE THEN DO;
      591    11406    3                   ERRCODE = SCTX.LATCH.ERRCODE;
      592    11407    3                   CALL XSS$EVLOG( 'ER', SCID);
      593    11408    3                   CALL XSS$EVLOG( , ERRCODE);
      594    11409    3                   IF ERRCODE.ERR# = %E$LDSC THEN
      595    11410    3                       CALL QUICKDISC;
      596    11411    3                   ELSE
PL6.E3A0      #004=XSS$COMMWAIT File=XSS$COMM.:XSA1TSI                           WED 10/01/97 12:09 Page:117
      597    11412    3                       GOTO BAILOUT;  /* assume fatal error */
      598    11413    3                   END;
      599    11414    2               ELSE
      600    11415                        /* Otherwise, just a normal message */
      601    11416    2                   CALL HANDLEIT;
      602    11417        %EJECT;
PL6.E3A0      #004=XSS$COMMWAIT File=XSS$COMM.:XSA1TSI                           WED 10/01/97 12:09 Page:118
      603    11418    2           IF NOT SCTX.ABORTING THEN
      604    11419                    /* reissue the no-wait read for this DCB */
      605    11420    3               DO CASE( SCTX.MODE);
      606    11421    3                   CASE( %CLIENT);
      607    11422    3                       IF XSS_DEBUG = 0 THEN
      608    11423    3                           NCRD.STATION_ = VECTOR( NIL);
      609    11424    3                       ELSE
      610    11425    3                           NCRD.STATION_ = VECTOR( XSS_AUSTA);
      611    11426    3                       CALL XSS$BUFPTR( SCTX.BUFX, BUF$);
      612    11427    3                       NCRD.BUF_ = VECTOR( RDBUFFER);
      613    11428    3                       NCRD.V.EVENT# = SCTX.EVENT#;
      614    11429    3                       NCRD.V.DCB# = SCTX.DCB#;
      615    11430    3                       CALL XSS$EVLOG( 'NW', SCID);
      616    11431    3                       CALL M$READ( NCRD) ALTRET( RDERR);
      617    11432    3                   CASE( %SERVER);
      618    11433    3                       AURD.V.EVENT# = SCTX.EVENT#;
      619    11434    3                       AURD.V.DCB# = SCTX.DCB#;
      620    11435    3                       CALL XSS$EVLOG( 'NW', SCID);
      621    11436    3                       IF DCBADDR( SCTX.DCB#)->F$DCB.FCN.CNT(0) = 0 THEN
      622    11437    3                           CALL M$READ( AURD) ALTRET( RDERR);
      623    11438    3                       IF ( COUNTER > 0 AND NOT LCTX.ABORTING) OR NEEDCREDIT THEN
      624    11439    3                           CALL XSS$TCREDIT( LCTX);
      625    11440    3                   END;
      626    11441                /* ..and continue the DO WHILE( COUNTER = 0) loop */
      627    11442    2           END;
      628    11443        %EJECT;
PL6.E3A0      #004=XSS$COMMWAIT File=XSS$COMM.:XSA1TSI                           WED 10/01/97 12:09 Page:119
      629    11444            /* O.k., done handling one or more latched message(s), or none latched */
      630    11445            /* see if any Session timers have expired */
      631    11446    1       CALL XSS$ALARMCHECK;
      632    11447    1       IF COUNTER ~= 0 THEN
      633    11448                /* a user message was handled already, so don't bother M$WAITing */
      634    11449    1           ALTRETURN;
      635    11450    2       DO INHIBIT;
      636    11451    2           XSS_EVENTED = %FALSE;
      637    11452                /* wait for some number of seconds */
      638    11453    3           IF FPT_WAIT.V.UNITS# > 0 THEN DO;
      639    11454    3               CALL XSS$EVLOG( 'WT', FPT_WAIT.V.UNITS#);
      640    11455    3               CALL M$WAIT( FPT_WAIT);
      641    11456    3               END;
      642    11457    3           IF UETIME ~= 0 THEN DO;
      643    11458                    /* user wait was interrupted */
      644    11459    3               IF NOT XSS_EVENTED THEN
      645    11460    3                   ALTRETURN;  /* user must have hit <Break> */
      646    11461    3               FPT_WAIT.V.UNITS# = UETIME;  /* set up for remaining wait time */
      647    11462    3               GOTO CHECK4MSG;
      648    11463    3               END;
      649    11464    2           END;
      650    11465            /* user wait was not interrupted */
      651    11466    1       IF SECONDS > 10 THEN
      652    11467                /* was 'long' wait so check timers again */
      653    11468    1           CALL XSS$ALARMCHECK;
      654    11469    1       RETURN;
      655    11470    1   RDERR:
      656    11471    1       ;
      657    11472    1   XTNERR:
      658    11473    1       ERRCODE = B$TCB$->B$TCB.ALT$->B$ALT.ERR;
      659    11474    1   BAILOUT:
      660    11475    1       IF ERRCODE.SEV = 0 THEN
      661    11476    1           ERRCODE.SEV = 1;
      662    11477    1       CALL XSS$SCREECH( ERRCODE);
      663    11478            /* won't return here */
      664    11479        %EJECT;
PL6.E3A0      #004=XSS$COMMWAIT File=XSS$COMM.:XSA1TSI                           WED 10/01/97 12:09 Page:120
      665    11480        /*I*    NAME:   HANDLEIT
      666    11481                DESCRIPTION:
      667    11482                    Does whatever is necessary to handle an incoming SPDU or TPDU.
      668    11483                    Information about the message is in SCTX.LATCH.
      669    11484        */
      670    11485    1   HANDLEIT: PROC;
      671    11486        /* K_ADDRESS_M already %INCLUDEd above */
      672    11487        %INCLUDE K_INTERFACE_M;
      673    11896            %K$FPT_CONNECT_OSI( NAME=TCONFPT, STCLASS=BASED);
      674    12233        /* XSS_SESSION_E already %INCLUDEd above */
      675    12234        %INCLUDE XSS_SESSION_M;
      676    14877            %XSS$GENERIC( FPTN=XSS_GENERIC, STCLASS=SYMREF);
      677    15023            %XSS$GENERIC( STCLASS="BASED( VBLK.FPT$)");
      678    15169            %XSS$CONNECT( STCLASS="BASED( VBLK.FPT$)");
      679    15492        /* XSS_INTERNAL_E and _M already %INCLUDEd above */
      680    15493            %XSS$GLUE( NAME=GLUE, STCLASS="BASED( SPDU$)");
      681    15523            %XSS$VBLK( NAME=VBLK, STCLASS=AUTO);
      682    15628            %XSS$VBLK( NAME=XSS_VBLK, STCLASS=SYMREF);
      683    15733        /* XSC_COMMON_M already %INCLUDEd above */
      684    15734            %XSC$ADDRESS( NAME=UADR, STCLASS="BASED( UADR$)");
      685    16017            %XSC$ADDRESS;
      686    16300            %XSC$CCB;
      687    16597
      688    16598    2       DCL XSS$DECODE ENTRY(1) ALTRET;
      689    16599    2       DCL XSS$GETCTX ENTRY(2) ALTRET;
      690    16600    2       DCL XSS$MACHINE ENTRY(1) ALTRET;
      691    16601
      692    16602    2       DCL XSS_CCB$$ PTR SYMREF;
      693    16603    2       DCL XSS_MAX_LCID SBIN SYMREF;
      694    16604
      695    16605    2       DCL CCB$(0:0) PTR BASED( XSS_CCB$$) ALIGNED;
      696    16606    2       DCL DST$ PTR;
      697    16607    2       DCL SRC$ PTR;
      698    16608    2       DCL SCID SBIN;
      699    16609    2       DCL SPDU CHAR( SPDUSZ) BASED( SPDU$);
      700    16610    2       DCL SPDU$ PTR;
      701    16611    2       DCL SPDUSZ SBIN;
PL6.E3A0      #004=XSS$COMMWAIT File=XSS$COMM.:XSA1TSI                           WED 10/01/97 12:09 Page:121
      702    16612    2       DCL UADR$ PTR;
      703    16613        %EJECT;
PL6.E3A0      #004=XSS$COMMWAIT File=XSS$COMM.:XSA1TSI                           WED 10/01/97 12:09 Page:122
      704    16614    2       SPDU$ = SCTX.LATCH.MSG$;
      705    16615    2       CALL XSS$EVLOG( 'QE', GLUE.TRNFNC*512 + GLUE.YRSCID);
      706    16616    2       IF GLUE.TRNFNC = %K_TCREDIT THEN
      707    16617    2           RETURN;  /* ignore this bogosity */
      708    16618    2       SCTX.MAGIC = GLUE.MAGIC;  /* so TCREDIT works.. */
      709    16619    2       SPDUSZ = SCTX.LATCH.MSGSZ;
      710    16620    2       VBLK = XSS_VBLK;
      711    16621    2       VBLK.PDU.SIZE = SPDUSZ;
      712    16622    2       VBLK.PDU.PTR$ = SPDU$;
      713    16623    2       VBLK.CTX$ = CTX$;
      714    16624    2       LCTX$ = CTX$;
      715    16625    3       IF GLUE.TRNFNC ~= %K_TCONNECT_IND THEN DO;
      716    16626    3           SCID = GLUE.YRSCID;
      717    16627    3           CALL XSS$CTXPTR( SCID, LCTX$)
      718    16628    4           WHENALTRETURN DO;
      719    16629                    /* Connection must have aborted.  Well, fine. */
      720    16630    4               RETURN;
      721    16631    4               END;
      722    16632    3           VBLK.CTX$ = LCTX$;
      723    16633    3           LCTX.MAGIC = GLUE.MAGIC;
      724    16634    3           END;
      725    16635    2       CALL XSS$BUFPTR( CCB$( LCTX.SCID)->XSC$CCB.SFPTX, VBLK.FPT$);
      726    16636        %EJECT;
PL6.E3A0      #004=XSS$COMMWAIT File=XSS$COMM.:XSA1TSI                           WED 10/01/97 12:09 Page:123
      727    16637    3       DO CASE( GLUE.TRNFNC);
      728    16638    3           CASE( %K_TCONNECT_IND);
      729    16639    3               VBLK.EVENT = %XSS_SEV_TCONIND;
      730    16640    3               CALL XSS$GETCTX( LCTX$)
      731    16641    4               WHENALTRETURN DO;
      732    16642                        /*N* ignore this for now.  Eventually do T-DISCONNECT */
      733    16643    4                   END;
      734    16644                    /* copy contents of original CCB to new one */
      735    16645    3               CCB$( LCTX.SCID)->XSC$CCB = CCB$( SCTX.SCID)->XSC$CCB;
      736    16646    3               CCB$( LCTX.SCID)->XSC$CCB.LCID = LCTX.SCID;
      737    16647                    /* copy contents of address buffers too */
      738    16648    3               CALL XSS$BUFPTR( SCTX.SRCX, SRC$);
      739    16649    3               CALL XSS$BUFPTR( LCTX.SRCX, DST$);
      740    16650    3               DST$->XSC$ADDRESS = SRC$->XSC$ADDRESS;
      741    16651    3               CALL XSS$BUFPTR( SCTX.DSTX, SRC$);
      742    16652    3               CALL XSS$BUFPTR( LCTX.DSTX, DST$);
      743    16653    3               DST$->XSC$ADDRESS = SRC$->XSC$ADDRESS;
      744    16654    3               VBLK.CTX$ = LCTX$;
      745    16655    3               SCID = LCTX.SCID;
      746    16656    3               XSS$GENERIC.SCID = LCTX.SCID;
      747    16657    3               LCTX.MAGIC = GLUE.MAGIC;
      748    16658    3               CALL ADDRSETUP;
      749    16659    3               LCTX.PEERSCID = GLUE.MYSCID;
      750    16660    3               LCTX.MODE = %SERVER;
      751    16661    3               LCTX.STATION = SCTX.LATCH.STATION;
      752    16662    3               LCTX.DCB# = SCTX.DCB#;
      753    16663    3               LCTX.EVENT# = SCTX.EVENT#;
      754    16664    3               LCTX.ENTRY$ = SCTX.ENTRY$;
      755    16665    3               LCTX.LATCH.MSG$ = SCTX.LATCH.MSG$;
      756    16666    3           CASE( %K_TCONNECT_CFM);
      757    16667    3               XSS$GENERIC.SCID = LCTX.SCID;
      758    16668    3               CALL ADDRSETUP;
      759    16669    3               LCTX.PEERSCID = GLUE.MYSCID;
      760    16670    3               VBLK.EVENT = %XSS_SEV_TCONCNF;
      761    16671    3               NEEDCREDIT = %TRUE;
      762    16672    3           CASE( %K_TDISCONNECT_IND);
      763    16673    3               XSS$GENERIC.SCID = LCTX.SCID;
PL6.E3A0      #004=XSS$COMMWAIT File=XSS$COMM.:XSA1TSI                           WED 10/01/97 12:09 Page:124
      764    16674    3               CALL ADDRSETUP;
      765    16675    3               VBLK.EVENT = %XSS_SEV_TDISIND;
      766    16676    3           CASE( %K_TFLOW_STOP);
      767    16677    3               LCTX.FLOWSTOPPED = %TRUE;
      768    16678    3               COUNTER = COUNTER + 1;
      769    16679    3               RETURN;
      770    16680    3           CASE( %K_TFLOW_START);
      771    16681    3               LCTX.FLOWSTOPPED = %FALSE;
      772    16682    3               COUNTER = COUNTER + 1;
      773    16683    3               RETURN;
      774    16684    3           CASE( %K_TDATA_IND,
      775    16685    3                 %K_TEXPD_DATA_IND);
      776    16686    3               VBLK.EVENT = %XSS_SEV_NULL;
      777    16687    3               SPDU$ = ADDR( GLUE.DATA);
      778    16688    3               VBLK.PDU.PTR$ = SPDU$;
      779    16689    3               SPDUSZ = SPDUSZ - 4;
      780    16690    3               VBLK.PDU.SIZE = SPDUSZ;
      781    16691                    /* Decode the SPDU(s) and invoke state machine for each one */
      782    16692    3               CALL XSS$DECODE( VBLK)
      783    16693    4               WHENALTRETURN DO;
      784    16694                        /*N* fix this */
      785    16695    4                   CALL XSS$SCREECH( XSS_F$DECODE);
      786    16696    4                   END;
      787    16697    3               COUNTER = COUNTER + VBLK.USERCALL;  /* Session handler called? */
      788    16698    3               RETURN;
      789    16699    3           END;
      790    16700    2       CALL XSS$MACHINE( VBLK)
      791    16701    3       WHENALTRETURN DO;
      792    16702                /* Connection has aborted.  Fine with me. */
      793    16703    3           END;
      794    16704    2       COUNTER = COUNTER + VBLK.USERCALL;
      795    16705    2       RETURN;
      796    16706        %EJECT;
PL6.E3A0      #004=XSS$COMMWAIT File=XSS$COMM.:XSA1TSI                           WED 10/01/97 12:09 Page:125
      797    16707        /*I*    NAME:   ADDRSETUP
      798    16708                DESCRIPTION:
      799    16709                    This internal routine picks apart the FPT_CONNECT_OSI or
      800    16710                    FPT_TERM_OSI and puts the source and destination TSAPs and
      801    16711                    NSAPs in AUTO structures, then frames these structures in
      802    16712                    the Session FPT that the state machine is entered with.
      803    16713        */
      804    16714    2   ADDRSETUP: PROC;
      805    16715
      806    16716    3       DCL PTR$ PTR;
      807    16717    3       DCL LEN SBIN;
      808    16718    3       DCL BYTES CHAR( LEN) BASED;
      809    16719
      810    16720    3       PTR$ = ADDR( GLUE.DATA);
      811    16721    3       IF GLUE.TRNFNC = %K_TDISCONNECT_IND THEN
      812    16722    3           PTR$ = PINCRW( PTR$, -5);  /*N* adjust ptr for TERM fpt grossly */
      813    16723    4       ELSE DO;
      814    16724    4           CALL XSS$BUFPTR( LCTX.SRCX, XSS$CONNECT.CALLING$);
      815    16725    4           CALL XSS$BUFPTR( LCTX.DSTX, XSS$CONNECT.CALLED$);
      816    16726    4           LCTX.FLAGS.TEXP = PTR$->TCONFPT.TR_FLAGS.EXPEDITED;
      817    16727    4           END;
      818    16728    3       CALL XSS$BUFPTR( LCTX.SRCX, UADR$);
      819    16729    3       UADR$->UADR.TSAP = PTR$->TCONFPT.SRC_TSAP;
      820    16730    3       UADR$->UADR.NSAP = PTR$->TCONFPT.SRC_NSAP;
      821    16731    3       CALL XSS$BUFPTR( LCTX.DSTX, UADR$);
      822    16732    3       UADR$->UADR.TSAP = PTR$->TCONFPT.DST_TSAP;
      823    16733    3       UADR$->UADR.NSAP = PTR$->TCONFPT.DST_NSAP;
      824    16734    3       RETURN;
      825    16735
      826    16736    3       END ADDRSETUP;
      827    16737        %EJECT;
PL6.E3A0      #004=XSS$COMMWAIT File=XSS$COMM.:XSA1TSI                           WED 10/01/97 12:09 Page:126
      828    16738        /*I*    NAME:   QUICKDISC
      829    16739                DESCRIPTION:
      830    16740                    This internal routine deals with a disconnection reported by
      831    16741                    means other than the Session protocol.  This can only happen
      832    16742                    when a 'fast path' (comgroup-direct) link is involved.
      833    16743                    QUICKDISC is called in the following situations:
      834    16744                        E$LDSC on client no-wait read of server CG,
      835    16745                        CG_DCLS administrative message read by server.
      836    16746        */
      837    16747    2   QUICKDISC: ENTRY;
      838    16748
      839    16749    2       VBLK = XSS_VBLK;
      840    16750    2       VBLK.PDU.SIZE = 0;
      841    16751    2       VBLK.PDU.PTR$ = ADDR( NIL);
      842    16752    2       VBLK.EVENT = %XSS_SEV_TDISIND;
      843    16753    3       DO SCID = 1 TO XSS_MAX_LCID;
      844    16754    3           CALL XSS$CTXPTR( SCID, LCTX$) ALTRET( NXTSCID);
      845    16755    3           IF LCTX.STATE > %XSS_SST_01 AND
      846    16756    4                   LCTX.STATION = SCTX.LATCH.STATION THEN DO;
      847    16757    4               VBLK.CTX$ = LCTX$;
      848    16758    4               CALL XSS$BUFPTR( CCB$( LCTX.SCID)->XSC$CCB.SFPTX, VBLK.FPT$);
      849    16759    4               XSS$GENERIC.SCID = LCTX.SCID;
      850    16760    4               CALL XSS$MACHINE( VBLK)
      851    16761    5               WHENALTRETURN DO;
      852    16762                        /* Connection has aborted.  O.k. with me. */
      853    16763    5                   END;
      854    16764    4               COUNTER = COUNTER + 1;  /* because SS-user handler was entered */
      855    16765    4               LCTX.ABORTING = %TRUE;
      856    16766    4               END;
      857    16767    3   NXTSCID:
      858    16768    3           END;
      859    16769    2       RETURN;
      860    16770
      861    16771    2       END HANDLEIT;
      862    16772        %EJECT;
PL6.E3A0      #004=XSS$COMMWAIT File=XSS$COMM.:XSA1TSI                           WED 10/01/97 12:09 Page:127
      863    16773        /*F*
      864    16774                NAME:   XSS$COMMWAITX
      865    16775                PURPOSE:
      866    16776                    This routine issues the first no-wait read to an AU or NC DCB.
      867    16777                    Subsequent reads are issued by XSS$COMMWAIT above.
      868    16778        */
      869    16779    1   XSS$COMMWAITX: ENTRY( PARM1) ALTRET;
      870    16780
      871    16781    1       CCB$ = ADDR( PARM1);
      872    16782            /* get ptrs to context and read buffer */
      873    16783    1       CALL XSS$BUFPTR( CCB.SFPTX, FPT$);
      874    16784    1       SCID = CCB.LCID;
      875    16785    1       CALL XSS$EVLOG( 'KX', SCID);
      876    16786    1       CALL XSS$CTXPTR( SCID, CTX$);
      877    16787    1   FIRSTREAD:
      878    16788    1       CALL XSS$BUFPTR( SCTX.BUFX, BUF$);
      879    16789            /* set up and then issue no-wait read */
      880    16790    2       DO CASE( SCTX.MODE);
      881    16791    2           CASE( %CLIENT);
      882    16792    2               IF XSS_DEBUG ~= 0 THEN
      883    16793    2                   NCRD.STATION_ = VECTOR( XSS_AUSTA);
      884    16794    2               ELSE
      885    16795    2                   NCRD.STATION_ = VECTOR( NIL);
      886    16796    2               NCRD.BUF_ = VECTOR( RDBUFFER);
      887    16797    2               NCRD.V.EVENT# = SCTX.EVENT#;
      888    16798    2               NCRD.V.DCB# = SCTX.DCB#;
      889    16799    2               CALL XSS$EVLOG( 'NW', SCID);
      890    16800    2               CALL M$READ( NCRD) ALTRET( RDERR);
      891    16801    2           CASE( %SERVER);
      892    16802    2               AURD.BUF_ = VECTOR( RDBUFFER);
      893    16803    2               AURD.V.EVENT# = SCTX.EVENT#;
      894    16804    2               AURD.V.DCB# = SCTX.DCB#;
      895    16805    2               CALL XSS$EVLOG( 'NW', SCID);
      896    16806    2               IF DCBADDR( SCTX.DCB#)->F$DCB.FCN.CNT(0) = 0 THEN
      897    16807    2                   CALL M$READ( AURD) ALTRET( RDERR);
      898    16808    2           END;
      899    16809            /* see if we got an error on the read */
PL6.E3A0      #004=XSS$COMMWAIT File=XSS$COMM.:XSA1TSI                           WED 10/01/97 12:09 Page:128
      900    16810    1       IF SCTX.LATCH.PRESENT THEN
      901    16811    2           IF SCTX.LATCH.ERRCODE THEN DO;
      902    16812    2               ERRCODE = SCTX.LATCH.ERRCODE;
      903    16813    2               GOTO BAILOUT;
      904    16814    2               END;
      905    16815    1       RETURN;
      906    16816
      907    16817    1   XSS$COMMWAITZ: ENTRY( PARM1) ALTRET;
      908    16818
      909    16819    1       CTX$ = ADDR( PARM1);
      910    16820    1       SCID = SCTX.SCID;
      911    16821    1       CALL XSS$EVLOG( 'KZ', SCID);
      912    16822    1       SCTX.NEEDAREAD = %FALSE;
      913    16823    1       GOTO FIRSTREAD;
      914    16824        %EJECT;
PL6.E3A0      #004=XSS$COMMWAIT File=XSS$COMM.:XSA1TSI                           WED 10/01/97 12:09 Page:129
      915    16825        /*F*
      916    16826                NAME:   XSS$COMMPEND
      917    16827                PURPOSE:
      918    16828                    This routine checks to see if there is an incoming message for
      919    16829                    a specific connection, and if so processes it.
      920    16830                DESCRIPTION:
      921    16831                    This routine is called from XSS$SESSION in case a message has
      922    16832                    arrived for a particular connection since the application last
      923    16833                    polled for incoming messages.  This helps make the client/server
      924    16834                    interaction more predictable (i.e., helps prevent state errors).
      925    16835
      926    16836                    The event queue is searched for the message and it is moved to
      927    16837                    the front of the queue.  Then we jump to JOINWAIT to handle it.
      928    16838        */
      929    16839    1   XSS$COMMPEND: ENTRY( PARM1) ALTRET;
      930    16840
      931    16841    1       CALL XSS$EVLOG( 'KP', PARM1);
      932    16842    2       DO INHIBIT;
      933    16843    2           SCID = XSS_EVHDX;
      934    16844    2           IF SCID = PARM1 THEN
      935    16845                    /* first item in event queue is the one we want */
      936    16846    2               GOTO COMMON;
      937    16847    2   LOOP:
      938    16848    2           CALL XSS$CTXPTR( SCID, CTX$);  /* this routine is INHIBITED too */
      939    16849    3           IF SCTX.LATCH.LNKX = PARM1 THEN DO;
      940    16850                    /* this item in event queue points to the one we want */
      941    16851                    /* Move wanted one to head of event queue */
      942    16852    3               CALL XSS$CTXPTR( PARM1, LCTX$);
      943    16853    3               SCTX.LATCH.LNKX = LCTX.LATCH.LNKX;
      944    16854    3               LCTX.LATCH.LNKX = XSS_EVHDX;
      945    16855    3               IF XSS_EVTLX = PARM1 THEN
      946    16856    3                   XSS_EVTLX = SCTX.SCID;
      947    16857    3               XSS_EVHDX = PARM1;
      948    16858    3   COMMON:
      949    16859                    /* make sure we don't do an M$WAIT */
      950    16860    3               SECONDS = 0;
      951    16861                    /* Now go handle that message */
PL6.E3A0      #004=XSS$COMMWAIT File=XSS$COMM.:XSA1TSI                           WED 10/01/97 12:09 Page:130
      952    16862    3               GOTO JOINWAIT;
      953    16863    3               END;
      954    16864    2           IF SCTX.LATCH.LNKX = %NULL THEN
      955    16865                    /* Reached end of queue.  Something's wrong here */
      956    16866    2               CALL XSS$SCREECH( XSS_F$EVNTQUE);
      957    16867                /* Otherwise, check next item in queue */
      958    16868    2           SCID = SCTX.LATCH.LNKX;
      959    16869    2           GOTO LOOP;
      960    16870    2           END;
      961    16871            /* ..can't get here.. */
      962    16872        %EJECT;
PL6.E3A0      #004=XSS$COMMWAIT File=XSS$COMM.:XSA1TSI                           WED 10/01/97 12:09 Page:131
      963    16873        /*F*
      964    16874                NAME:   XSP$COMMWAIT
      965    16875                PURPOSE:
      966    16876                    Provides a COMMWAIT ENTRY for Presentation applications.
      967    16877        */
      968    16878    1   XSP$COMMWAIT: ENTRY( PARM1) ALTRET;
      969    16879
      970    16880    1       GOTO COMMWAIT;
      971    16881
      972    16882        /*F*
      973    16883                NAME:   XSC$COMMWAIT
      974    16884                PURPOSE:
      975    16885                    Provides a COMMWAIT ENTRY for ACSE applications.
      976    16886        */
      977    16887    1   XSC$COMMWAIT: ENTRY( PARM1) ALTRET;
      978    16888
      979    16889    1       GOTO COMMWAIT;
      980    16890
      981    16891    1       END XSS$COMMWAIT;
      982    16892        %EOD;

PL6.E3A0      #004=XSS$COMMWAIT File=XSS$COMM.:XSA1TSI                           WED 10/01/97 12:09 Page:132
--  Include file information  --

   XSS_SESSION_M.:XSA1TOU  is referenced.
   K_INTERFACE_M.:E05OU  is referenced.
   XSC_PERR_C.:XSA1TOU  is referenced.
   XSS_INTERNAL_M.:XSA1TOU  is referenced.
   XSS_INTERNAL_E.:XSA1TOU  is referenced.
   XSC_COMMON_M.:XSA1TOU  is referenced.
   K_ADDRESS_M.:LIB_E05  is referenced.
   CP_6_C.:LIB_E05  is referenced.
   CP_6.:LIB_E05  cannot be made into a system file and is referenced.
   B_ERRORS_C.:LIB_E05  is referenced.
   XSS_SESSION_E.:XSA1TOU  is referenced.
      No diagnostics issued in procedure XSS$COMMWAIT.

   Procedure XSS$COMMWAIT requires 966 words for executable code.
   Procedure XSS$COMMWAIT requires 40 words of local(AUTO) storage.

PL6.E3A0      #004=XSS$COMMWAIT File=XSS$COMM.:XSA1TSI                           WED 10/01/97 12:09 Page:133

 Object Unit name= XSS$COMMWAIT                               File name= XSS$COMM.:XSA1TOU
 UTS= OCT 01 '97 12:09:54.04 WED                              Compiler= PL-6/E31         Sev=      00
 SharedLib= :SHARED_SYSTEM                                    Alt SharedLib=


    ****  Control sections  ****

 Sect   Type Bound  Init  Size OctSiz  Section name(segment info)
    0   DCB   even  none     0      0  M$UC
    1   Data  even  none    67    103  XSS$COMMWAIT
    2  RoData even  UTS     31     37  XSS$COMMWAIT
    3   Proc  even  none   966   1706  XSS$COMMWAIT
    4  RoData even  none    37     45  XSS$COMMWAIT

    ****  Entry defs  ****

                              Check   Calling
                             calling  sequence
  Sect OctLoc Primary Altret sequence   type   Parms  Name
     3      0   yes    yes     yes      Std        1  XSS$COMMWAIT
     3   1365          yes     yes      Std        1  XSS$COMMWAITX
     3   1546          yes     yes      Std        1  XSS$COMMWAITZ
     3   1573          yes     yes      Std        1  XSS$COMMPEND
     3   1700          yes     yes      Std        1  XSP$COMMWAIT
     3   1703          yes     yes      Std        1  XSC$COMMWAIT
PL6.E3A0      #004=XSS$COMMWAIT File=XSS$COMM.:XSA1TSI                           WED 10/01/97 12:09 Page:134

  ****  Data defs  ****

 Sect OctLoc  Name                           Sect OctLoc  Name
    1     57  XSS_AUSTA                          1     67  XSS_NCSTA
    2      0  XSS_F$CGEVNTOTHER                  2      1  XSS_F$CGWARNDISK
    2      2  XSS_F$CGWARNMEM                    2      3  XSS_F$CGWARNOTHER
    2      4  XSS_F$DECODE                       2      5  XSS_F$EVNTQUE
    1    100  XSS_EVENTED                        1    101  XSS_EVHDX
    1    102  XSS_EVTLX

  ****  Entry refs  ****

         Check        Calling
        calling       sequence
Altret sequence SRef   type   Args  Name
         yes           Std       2 XSS$EVLOG
         yes           Std       1 XSS$SCREECH
 yes     yes           Std       1 XSS$TCREDIT
 yes     yes           Std       2 XSS$CTXPTR
         yes    yes    Std       3 XSS$DUMPBYTES
 yes     yes           Std       2 XSS$BUFPTR
         yes           Std       0 XSS$ALARMCHECK
 yes     yes           Std       1 XSS$DECODE
 yes     yes           Std       1 XSS$MACHINE
 yes     yes           Std       2 XSS$GETCTX
                       nStd      0 X66_AUTO_1
                       nStd      0 X66_AALT
                       nStd      0 X66_ARET

  ****  Data refs  ****

  Flags:  r = read only, s = secondary
Flgs Name                             Flgs Name                             Flgs Name
     M$UC                                  B$TCB$                                XSS_DEBUG
     XSS_ITRACE                            XSS_VBLK                              XSS_CCB$$
     XSS_MAX_LCID
PL6.E3A0      #004=XSS$COMMWAIT File=XSS$COMM.:XSA1TSI                           WED 10/01/97 12:09 Page:135

  ****  Segment refs  ****

  Flags:  r = read only, s = secondary
Flgs Name                             Flgs Name                             Flgs Name
     ISSID                                 NULLSID                               ROSID
PL6.E3A0      #004=XSS$COMMWAIT File=XSS$COMM.:XSA1TSI                           WED 10/01/97 12:09 Page:136


      403        1        /*T***********************************************************/
      404        2        /*T*                                                         */
      405        3        /*T* Copyright (c) Bull HN Information Systems Inc., 1997    */
      406        4        /*T*                                                         */
      407        5        /*T***********************************************************/
      408        6        /*F*
      409        7                NAME:   XSS$COMMWAIT
      410        8                PURPOSE:
      411        9                    The user application (client or server) calls this routine to wait
      412       10                    for incoming messages.
      413       11                DESCRIPTION:
      414       12                    The number of seconds to wait is passed in the parameter PARM1.
      415       13                    If the wait is interrupted (which usually means an incoming
      416       14                    message was received) the routine ALTRETURNs.  If the wait is not
      417       15                    interrupted the routine RETURNs.
      418       16
      419       17                    Before waiting, the event queue is checked to see if a message
      420       18                    arrived since the last call to XSS$COMMWAIT.  If so, it is
      421       19                    processed and the appropriate M$READ reissued.
      422       20
      423       21                    NOTE: At most one non-Admin message will be processed (i.e., the
      424       22                    application's handler will be called at most one time) for each
      425       23                    call to XSS$COMMWAIT.  However, Session timer expirations may
      426       24                    cause additional entries to the application's handler.
      427       25        */
      428       26        XSS$COMMWAIT: PROC( PARM1) ALTRET;

     26  3 000000   000000 700200 xent  XSS$COMMWAIT TSX0  ! X66_AUTO_1
         3 000001   000050 000001                    ZERO    40,1

      429       27        %INCLUDE XSS_SESSION_E;
      430      592        %INCLUDE B_ERRORS_C;
      431     1719        %INCLUDE CP_6;
      432     7278            %B$ALT;
      433     7286            %B$CGAURD( STCLASS="BASED( BUF$)");
      434     7305            %B$TCB;
PL6.E3A0      #004=XSS$COMMWAIT File=XSS$COMM.:XSA1TSI                           WED 10/01/97 12:09 Page:137
      435     7308            %EQU_CG;
      436     7356            %F$DCB;
      437     7413            %FPT_SCREECH( SCODE=VLP_SUA);
      438     7427            %VLP_SUA( SEV=5, LDCTS=YES, CWSPT=YES, FCG='XS', MID='S', CODE=9999);
      439     7497            %FPT_EXTEND;
      440     7511            %FPT_READ( FPTN=AURD, WAIT=NO, TRANS=YES);
      441     7550            %FPT_READ( FPTN=NCRD, WAIT=NO, TRANS=YES);
      442     7589            %FPT_WAIT( UETIME=UETIME, UNITS=10);
      443     7603            %VLP_ERRCODE( FPTN=ERRCODE);
      444     7648            %VLP_STATION( FPTN=XSS_AUSTA, STATION='SERVER', STCLASS="STATIC SYMDEF");
      445     7675            %VLP_STATION( FPTN=XSS_NCSTA, STCLASS="STATIC SYMDEF");
      446     7702        %INCLUDE K_ADDRESS_M;
      447     8205        %INCLUDE XSC_COMMON_M;
      448     8858            %XSC$CCB( NAME=CCB, STCLASS="BASED( CCB$)");
      449     9155        %INCLUDE XSS_INTERNAL_E;
      450     9453        %INCLUDE XSS_INTERNAL_M;
      451    10042            %XSS$SCTX( NAME=SCTX, STCLASS="BASED( CTX$)");
      452    10476            %XSS$SCTX( NAME=LCTX, STCLASS="BASED( LCTX$)");
      453    10910        %MACRO FATALDEF( NAME=XSS_FATAL, STCLASS="CONSTANT SYMDEF", LVL=1, LAST=";",
      454    10911                         ERR#=0, SEV=7);
      455    10912            %VLP_ERRCODE( FPTN=NAME, STCLASS=STCLASS, FCG='XS', MID='S',
      456    10913                          MON='0'B, ERR#=ERR#, SEV=SEV);
      457    10914        %MEND;
      458    10915        %INCLUDE XSC_PERR_C;
      459    10992            %FATALDEF( NAME=XSS_F$CGEVNTOTHER, ERR#=%F$CGEVNTOTHER);
      460    11040            /*E*  ERROR:  XSS-F$CGEVNTOTHER-7
      461    11041                MESSAGE:  Unexpected CG Admin event received.
      462    11042            */
      463    11043            %FATALDEF( NAME=XSS_F$CGWARNDISK, ERR#=%F$CGWARNDISK);
      464    11091            /*E*  ERROR:  XSS-F$CGWARNDISK-7
      465    11092                MESSAGE:  CG Admin disk warning received.
      466    11093            */
      467    11094            %FATALDEF( NAME=XSS_F$CGWARNMEM, ERR#=%F$CGWARNMEM);
      468    11142            /*E*  ERROR:  XSS-F$CGWARNMEM-7
      469    11143                MESSAGE:  CG Admin memory warning received.
      470    11144            */
      471    11145            %FATALDEF( NAME=XSS_F$CGWARNOTHER, ERR#=%F$CGWARNOTHER);
PL6.E3A0      #004=XSS$COMMWAIT File=XSS$COMM.:XSA1TSI                           WED 10/01/97 12:09 Page:138
      472    11193            /*E*  ERROR:  XSS-F$CGWARNOTHER-7
      473    11194                MESSAGE:  Unexpected CG Admin warning received.
      474    11195            */
      475    11196            %FATALDEF( NAME=XSS_F$DECODE, ERR#=%F$DECODE);
      476    11244            /*E*  ERROR:  XSS-F$DECODE-7
      477    11245                MESSAGE:  Malformed PDU detected by decoder.
      478    11246            */
      479    11247            %FATALDEF( NAME=XSS_F$EVNTQUE, ERR#=%F$EVNTQUE);
      480    11295            /*E*  ERROR:  XSS-F$EVNTQUE-7
      481    11296                MESSAGE:  Session event queue has been corrupted.
      482    11297            */
      483    11298
      484    11299    1       DCL XSS$ALARMCHECK ENTRY;
      485    11300    1       DCL XSS$CTXPTR ENTRY(2) ALTRET;
      486    11301    1       DCL XSS$BUFPTR ENTRY(2) ALTRET;
      487    11302    1       DCL XSS$DUMPBYTES ENTRY(3) OPTIONAL;
      488    11303    1       DCL XSS$SCREECH ENTRY(1);
      489    11304    1       DCL XSS$TCREDIT ENTRY(1) ALTRET;
      490    11305    1       DCL XSS$EVLOG ENTRY(2);
      491    11306
      492    11307    1       DCL B$TCB$ PTR SYMREF;
      493    11308    1       DCL XSS_DEBUG UBIN SYMREF;
      494    11309    1       DCL XSS_ITRACE SBIN SYMREF;
      495    11310
      496    11311    1       DCL BUF$ PTR;
      497    11312    1       DCL COUNTER SBIN;
      498    11313    1       DCL CTX$ PTR;
      499    11314    1       DCL LCTX$ PTR;
      500    11315    1       DCL CCB$ REDEF LCTX$ PTR;
      501    11316    1       DCL LEN SBIN;
      502    11317    1       DCL MSG CHAR( LEN) BASED( PTR$);
      503    11318    1       DCL NEEDCREDIT BIT(1) UNAL;
      504    11319    1       DCL PTR$ PTR;
      505    11320    1       DCL FPT$ REDEF PTR$ PTR;
      506    11321    1       DCL PARM1 SBIN;
      507    11322    1       DCL RDBUFFER CHAR(%BUFSIZE) BASED( BUF$) CALIGNED;
      508    11323    1       DCL SCID SBIN;
PL6.E3A0      #004=XSS$COMMWAIT File=XSS$COMM.:XSA1TSI                           WED 10/01/97 12:09 Page:139
      509    11324    1       DCL SECONDS SBIN;
      510    11325    1       DCL UETIME SBIN STATIC;
      511    11326    1       DCL XSS_EVENTED BIT(1) STATIC SYMDEF;
      512    11327    1       DCL XSS_EVHDX UBIN HALF HALIGNED INIT( %NULL) STATIC SYMDEF;
      513    11328    1       DCL XSS_EVTLX UBIN HALF HALIGNED INIT( %NULL) STATIC SYMDEF;
      514    11329    1       DCL AUTITLE CHAR(0) CONSTANT INIT( '(XSS$TRECV) AU rcvd');
      515    11330    1       DCL AUTITLE_ VECTOR CONSTANT INIT( VECTOR( AUTITLE));
      516    11331    1       DCL NCTITLE CHAR(0) CONSTANT INIT( '(XSS$TRECV) NC rcvd');
      517    11332    1       DCL NCTITLE_ VECTOR CONSTANT INIT( VECTOR( NCTITLE));
      518    11333
      519    11334    1   COMMWAIT:
      520    11335    1       SECONDS = PARM1;

  11335  3 000002   200003 470500       COMMWAIT     LDP0    @PARM1,,AUTO
         3 000003   000000 235100                    LDA     0,,PR0
         3 000004   200014 755100                    STA     SECONDS,,AUTO

      521    11336    1       CALL XSS$EVLOG( 'KW', SECONDS);

  11336  3 000005   200014 631500                    EPPR1   SECONDS,,AUTO
         3 000006   200043 451500                    STP1    LEN+3,,AUTO
         3 000007   000001 236000 4                  LDQ     1
         3 000010   200042 756100                    STQ     LEN+2,,AUTO
         3 000011   200042 630500                    EPPR0   LEN+2,,AUTO
         3 000012   000000 631400 4                  EPPR1   0
         3 000013   000000 701000 xent               TSX1    XSS$EVLOG
         3 000014   000000 011000                    NOP     0

      522    11337    1   JOINWAIT:
      523    11338            /* save number of seconds to wait */
      524    11339    1       FPT_WAIT.V.UNITS# = SECONDS;

  11339  3 000015   200014 235100       JOINWAIT     LDA     SECONDS,,AUTO
         3 000016   000054 755000 1                  STA     FPT_WAIT+4

      525    11340    1       UETIME = 0;

PL6.E3A0      #004=XSS$COMMWAIT File=XSS$COMM.:XSA1TSI                           WED 10/01/97 12:09 Page:140
  11340  3 000017   000077 450000 1                  STZ     UETIME

      526    11341    1       COUNTER = 0;

  11341  3 000020   200005 450100                    STZ     COUNTER,,AUTO

      527    11342        %EJECT;
PL6.E3A0      #004=XSS$COMMWAIT File=XSS$COMM.:XSA1TSI                           WED 10/01/97 12:09 Page:141
      528    11343    1   CHECK4MSG:
      529    11344    2       DO WHILE( COUNTER = 0);

  11344  3 000021   200005 235100       CHECK4MSG    LDA     COUNTER,,AUTO
         3 000022   000435 601000 3                  TNZ     s:11446

      530    11345    2           IF XSS_EVHDX = %NULL THEN

  11345  3 000023   000101 220000 1                  LDX0    XSS_EVHDX
         3 000024   777777 100003                    CMPX0   -1,DU
         3 000025   000435 600000 3                  TZE     s:11446

      531    11346                    /* no messages were latched since last time */
      532    11347    2               EXIT CHECK4MSG;
      533    11348                /* remove the first latched message from the event queue */
      534    11349    3           DO INHIBIT;

      535    11350    3               SCID = XSS_EVHDX;

  11350  3 000026   000101 235200 1                  LDA   ! XSS_EVHDX
         3 000027   000022 771200                    ARL   ! 18
         3 000030   200013 755300                    STA   ! SCID,,AUTO

      536    11351    3               CALL XSS$CTXPTR( SCID, CTX$);  /* this routine is INHIBITED too */

  11351  3 000031   200006 630700                    EPPR0 ! CTX$,,AUTO
         3 000032   200043 450700                    STP0  ! LEN+3,,AUTO
         3 000033   200013 631700                    EPPR1 ! SCID,,AUTO
         3 000034   200042 451700                    STP1  ! LEN+2,,AUTO
         3 000035   200042 630700                    EPPR0 ! LEN+2,,AUTO
         3 000036   000000 631600 4                  EPPR1 ! 0
         3 000037   000000 701200 xent               TSX1  ! XSS$CTXPTR
         3 000040   000000 011200                    NOP   ! 0

      537    11352    4               IF SCTX.LATCH.LNKX = %NULL THEN DO;

  11352  3 000041   200006 470700                    LDP0  ! CTX$,,AUTO
PL6.E3A0      #004=XSS$COMMWAIT File=XSS$COMM.:XSA1TSI                           WED 10/01/97 12:09 Page:142
         3 000042   000035 720300                    LXL0  ! 29,,PR0
         3 000043   777777 100203                    CMPX0 ! -1,DU
         3 000044   000051 601200 3                  TNZ   ! s:11357

      538    11353    4                   XSS_EVHDX = %NULL;

  11353  3 000045   777777 221203                    LDX1  ! -1,DU
         3 000046   000101 741200 1                  STX1  ! XSS_EVHDX

      539    11354    4                   XSS_EVTLX = %NULL;

  11354  3 000047   000102 741200 1                  STX1  ! XSS_EVTLX

      540    11355    4                   END;

  11355  3 000050   000054 710200 3                  TRA   ! s:11360

      541    11356    4               ELSE DO;

      542    11357    4                   XSS_EVHDX = SCTX.LATCH.LNKX;

  11357  3 000051   000101 740200 1                  STX0  ! XSS_EVHDX

      543    11358    4                   SCTX.LATCH.LNKX = %NULL;

  11358  3 000052   777777 221203                    LDX1  ! -1,DU
         3 000053   000035 441300                    SXL1  ! 29,,PR0

      544    11359    4                   END;

      545    11360    3               SCTX.LATCH.PRESENT = %FALSE;

  11360  3 000054   000002 236200 4                  LDQ   ! 2
         3 000055   000035 356300                    ANSQ  ! 29,,PR0

      546    11361    3               END;

PL6.E3A0      #004=XSS$COMMWAIT File=XSS$COMM.:XSA1TSI                           WED 10/01/97 12:09 Page:143
      547    11362                /* o.k. now deal with it */
      548    11363    3           IF XSS_ITRACE ~= 0 THEN DO;

  11363  3 000056   000000 235000 xsym               LDA     XSS_ITRACE
         3 000057   000127 600000 3                  TZE     s:11373

      549    11364    3               PTR$ = SCTX.LATCH.MSG$;

  11364  3 000060   000036 236100                    LDQ     30,,PR0
         3 000061   200012 756100                    STQ     PTR$,,AUTO

      550    11365    3               LEN = SCTX.LATCH.MSGSZ;

  11365  3 000062   000037 235100                    LDA     31,,PR0
         3 000063   200010 755100                    STA     LEN,,AUTO

      551    11366    4               DO CASE( SCTX.MODE);

  11366  3 000064   000013 720100                    LXL0    11,,PR0
         3 000065   000777 360003                    ANX0    511,DU
         3 000066   000003 100003                    CMPX0   3,DU
         3 000067   000071 602010 3                  TNC     s:11366+5,X0
         3 000070   000127 710000 3                  TRA     s:11373
         3 000071   000127 710000 3                  TRA     s:11373
         3 000072   000074 710000 3                  TRA     s:11368
         3 000073   000112 710000 3                  TRA     s:11370

      552    11367    4                   CASE( %CLIENT);

      553    11368    4                       CALL XSS$DUMPBYTES( 1, VECTOR( MSG), NCTITLE_);

  11368  3 000074   000020 735000                    ALS     16
         3 000075   000140 135007                    SBLA    96,DL
         3 000076   200042 757100                    STAQ    LEN+2,,AUTO
         3 000077   000005 236000 4                  LDQ     5
         3 000100   200046 756100                    STQ     LEN+6,,AUTO
         3 000101   200042 631500                    EPPR1   LEN+2,,AUTO
PL6.E3A0      #004=XSS$COMMWAIT File=XSS$COMM.:XSA1TSI                           WED 10/01/97 12:09 Page:144
         3 000102   200045 451500                    STP1    LEN+5,,AUTO
         3 000103   000006 236000 4                  LDQ     6
         3 000104   200044 756100                    STQ     LEN+4,,AUTO
         3 000105   200044 630500                    EPPR0   LEN+4,,AUTO
         3 000106   000003 631400 4                  EPPR1   3
         3 000107   000000 701000 xent               TSX1    XSS$DUMPBYTES
         3 000110   000000 011000                    NOP     0
         3 000111   000127 710000 3                  TRA     s:11373

      554    11369    4                   CASE( %SERVER);

      555    11370    4                       CALL XSS$DUMPBYTES( 1, VECTOR( MSG), AUTITLE_);

  11370  3 000112   000020 735000                    ALS     16
         3 000113   000140 135007                    SBLA    96,DL
         3 000114   200042 757100                    STAQ    LEN+2,,AUTO
         3 000115   000007 236000 4                  LDQ     7
         3 000116   200046 756100                    STQ     LEN+6,,AUTO
         3 000117   200042 631500                    EPPR1   LEN+2,,AUTO
         3 000120   200045 451500                    STP1    LEN+5,,AUTO
         3 000121   000006 236000 4                  LDQ     6
         3 000122   200044 756100                    STQ     LEN+4,,AUTO
         3 000123   200044 630500                    EPPR0   LEN+4,,AUTO
         3 000124   000003 631400 4                  EPPR1   3
         3 000125   000000 701000 xent               TSX1    XSS$DUMPBYTES
         3 000126   000000 011000                    NOP     0

      556    11371    4                   END;

      557    11372    3               END;

      558    11373    2           NEEDCREDIT = %FALSE;

  11373  3 000127   200011 450100                    STZ     NEEDCREDIT,,AUTO

      559    11374        %EJECT;
PL6.E3A0      #004=XSS$COMMWAIT File=XSS$COMM.:XSA1TSI                           WED 10/01/97 12:09 Page:145
      560    11375                /* see if this was a CG ADMIN msg on an AU DCB */
      561    11376    3           IF SCTX.LATCH.ADMIN THEN DO;

  11376  3 000130   200006 470500                    LDP0    CTX$,,AUTO
         3 000131   000035 236100                    LDQ     29,,PR0
         3 000132   200000 316003                    CANQ    65536,DU
         3 000133   000252 600000 3                  TZE     s:11405

      562    11377    3               BUF$ = SCTX.LATCH.MSG$;

  11377  3 000134   000036 236100                    LDQ     30,,PR0
         3 000135   200004 756100                    STQ     BUF$,,AUTO

      563    11378    3               CALL XSS$EVLOG( 'AU', B$CGAURD.EVENT*512 + B$CGAURD.INFO);

  11378  3 000136   200004 471500                    LDP1    BUF$,,AUTO
         3 000137   100000 236100                    LDQ     0,,PR1
         3 000140   000011 736000                    QLS     9
         3 000141   100003 036100                    ADLQ    3,,PR1
         3 000142   200042 756100                    STQ     LEN+2,,AUTO
         3 000143   200042 633500                    EPPR3   LEN+2,,AUTO
         3 000144   200045 453500                    STP3    LEN+5,,AUTO
         3 000145   000010 236000 4                  LDQ     8
         3 000146   200044 756100                    STQ     LEN+4,,AUTO
         3 000147   200044 630500                    EPPR0   LEN+4,,AUTO
         3 000150   000000 631400 4                  EPPR1   0
         3 000151   000000 701000 xent               TSX1    XSS$EVLOG
         3 000152   000000 011000                    NOP     0

      564    11379    4               DO CASE( B$CGAURD.EVENT);

  11379  3 000153   200004 470500                    LDP0    BUF$,,AUTO
         3 000154   000000 235100                    LDA     0,,PR0
         3 000155   000027 115007                    CMPA    23,DL
         3 000156   000160 602005 3                  TNC     s:11379+5,AL
         3 000157   000245 710000 3                  TRA     s:11400
         3 000160   000251 710000 3                  TRA     s:11402
PL6.E3A0      #004=XSS$COMMWAIT File=XSS$COMM.:XSA1TSI                           WED 10/01/97 12:09 Page:146
         3 000161   000207 710000 3                  TRA     s:11383
         3 000162   000251 710000 3                  TRA     s:11402
         3 000163   000251 710000 3                  TRA     s:11402
         3 000164   000245 710000 3                  TRA     s:11400
         3 000165   000245 710000 3                  TRA     s:11400
         3 000166   000245 710000 3                  TRA     s:11400
         3 000167   000245 710000 3                  TRA     s:11400
         3 000170   000245 710000 3                  TRA     s:11400
         3 000171   000212 710000 3                  TRA     s:11388
         3 000172   000245 710000 3                  TRA     s:11400
         3 000173   000245 710000 3                  TRA     s:11400
         3 000174   000245 710000 3                  TRA     s:11400
         3 000175   000245 710000 3                  TRA     s:11400
         3 000176   000245 710000 3                  TRA     s:11400
         3 000177   000245 710000 3                  TRA     s:11400
         3 000200   000245 710000 3                  TRA     s:11400
         3 000201   000245 710000 3                  TRA     s:11400
         3 000202   000245 710000 3                  TRA     s:11400
         3 000203   000245 710000 3                  TRA     s:11400
         3 000204   000245 710000 3                  TRA     s:11400
         3 000205   000245 710000 3                  TRA     s:11400
         3 000206   000251 710000 3                  TRA     s:11402

      565    11380    4                   CASE( %CG_DOPN#);

      566    11381    4                   CASE( %CG_DCLS#);

      567    11382                            /* DCB close.  Make sure Session is told. */
      568    11383    4                       CALL QUICKDISC;

  11383  3 000207   001261 701000 3                  TSX1    QUICKDISC
         3 000210   000000 011000                    NOP     0
         3 000211   000306 710000 3                  TRA     s:11418

      569    11384    4                   CASE( %CG_TCON#);

      570    11385    4                   CASE( %CG_TDRQ#);
PL6.E3A0      #004=XSS$COMMWAIT File=XSS$COMM.:XSA1TSI                           WED 10/01/97 12:09 Page:147

      571    11386    4                   CASE( %CG_TDSC#);

      572    11387    4                   CASE( %CG_WARN#);

      573    11388    5                       DO CASE( B$CGAURD.INFO);

  11388  3 000212   000003 235100                    LDA     3,,PR0
         3 000213   000003 115007                    CMPA    3,DL
         3 000214   000216 602005 3                  TNC     s:11388+4,AL
         3 000215   000240 710000 3                  TRA     s:11397
         3 000216   000240 710000 3                  TRA     s:11397
         3 000217   000221 710000 3                  TRA     s:11390
         3 000220   000226 710000 3                  TRA     s:11392

      574    11389    5                           CASE( %CG_WARN_MEM#);

      575    11390    5                               CALL XSS$SCREECH( XSS_F$CGWARNMEM);

  11390  3 000221   000012 630400 4                  EPPR0   10
         3 000222   000011 631400 4                  EPPR1   9
         3 000223   000000 701000 xent               TSX1    XSS$SCREECH
         3 000224   000000 011000                    NOP     0
         3 000225   000306 710000 3                  TRA     s:11418

      576    11391    5                           CASE( %CG_WARN_DISK#);

      577    11392    5                               FPT_EXTEND.V.DCB# = SCTX.DCB#;

  11392  3 000226   200006 471500                    LDP1    CTX$,,AUTO
         3 000227   100033 720100                    LXL0    27,,PR1
         3 000230   000012 740000 1                  STX0    FPT_EXTEND+2

      578    11393    5                               FPT_EXTEND.V.SIZ# = %XTNSIZE;

  11393  3 000231   000036 221003                    LDX1    30,DU
         3 000232   000012 441000 1                  SXL1    FPT_EXTEND+2
PL6.E3A0      #004=XSS$COMMWAIT File=XSS$COMM.:XSA1TSI                           WED 10/01/97 12:09 Page:148

      579    11394    5                               CALL M$EXTEND( FPT_EXTEND) ALTRET( XTNERR);

  11394  3 000233   000010 630400 1                  EPPR0   FPT_EXTEND
         3 000234   440005 713400                    CLIMB   alt,+16389
         3 000235   400000 401760                    pmme    nvectors=1
         3 000236   000473 702000 3                  TSX2    RDERR
         3 000237   000306 710000 3                  TRA     s:11418

      580    11395                                 /* CALL XSS$SCREECH( XSS_F$CGWARNDISK); */
      581    11396    5                           CASE( ELSE);

      582    11397    5                               CALL XSS$SCREECH( XSS_F$CGWARNOTHER);

  11397  3 000240   000013 630400 4                  EPPR0   11
         3 000241   000011 631400 4                  EPPR1   9
         3 000242   000000 701000 xent               TSX1    XSS$SCREECH
         3 000243   000000 011000                    NOP     0

      583    11398    5                           END;

  11398  3 000244   000306 710000 3                  TRA     s:11418

      584    11399    4                   CASE( ELSE);

      585    11400    4                       CALL XSS$SCREECH( XSS_F$CGEVNTOTHER);

  11400  3 000245   000014 630400 4                  EPPR0   12
         3 000246   000011 631400 4                  EPPR1   9
         3 000247   000000 701000 xent               TSX1    XSS$SCREECH
         3 000250   000000 011000                    NOP     0

      586    11401    4                   END;

      587    11402    3               END;

  11402  3 000251   000306 710000 3                  TRA     s:11418
PL6.E3A0      #004=XSS$COMMWAIT File=XSS$COMM.:XSA1TSI                           WED 10/01/97 12:09 Page:149

      588    11403    2           ELSE
      589    11404                    /* Not a CG ADMIN message.  Error being reported? */
      590    11405    3               IF SCTX.LATCH.ERRCODE THEN DO;

  11405  3 000252   000040 235100                    LDA     32,,PR0
         3 000253   000304 600000 3                  TZE     s:11416

      591    11406    3                   ERRCODE = SCTX.LATCH.ERRCODE;

  11406  3 000254   000040 236100                    LDQ     32,,PR0
         3 000255   000056 756000 1                  STQ     ERRCODE

      592    11407    3                   CALL XSS$EVLOG( 'ER', SCID);

  11407  3 000256   200013 631500                    EPPR1   SCID,,AUTO
         3 000257   200043 451500                    STP1    LEN+3,,AUTO
         3 000260   000015 236000 4                  LDQ     13
         3 000261   200042 756100                    STQ     LEN+2,,AUTO
         3 000262   200042 630500                    EPPR0   LEN+2,,AUTO
         3 000263   000000 631400 4                  EPPR1   0
         3 000264   000000 701000 xent               TSX1    XSS$EVLOG
         3 000265   000000 011000                    NOP     0

      593    11408    3                   CALL XSS$EVLOG( , ERRCODE);

  11408  3 000266   000017 236000 4                  LDQ     15
         3 000267   000016 235000 4                  LDA     14
         3 000270   200042 757100                    STAQ    LEN+2,,AUTO
         3 000271   200042 630500                    EPPR0   LEN+2,,AUTO
         3 000272   000000 631400 4                  EPPR1   0
         3 000273   000000 701000 xent               TSX1    XSS$EVLOG
         3 000274   000000 011000                    NOP     0

      594    11409    3                   IF ERRCODE.ERR# = %E$LDSC THEN

  11409  3 000275   000056 236000 1                  LDQ     ERRCODE
PL6.E3A0      #004=XSS$COMMWAIT File=XSS$COMM.:XSA1TSI                           WED 10/01/97 12:09 Page:150
         3 000276   377770 376007                    ANQ     131064,DL
         3 000277   000140 116007                    CMPQ    96,DL
         3 000300   000477 601000 3                  TNZ     BAILOUT

      595    11410    3                       CALL QUICKDISC;

  11410  3 000301   001261 701000 3                  TSX1    QUICKDISC
         3 000302   000000 011000                    NOP     0
         3 000303   000306 710000 3                  TRA     s:11418

      596    11411    3                   ELSE
      597    11412    3                       GOTO BAILOUT;  /* assume fatal error */
      598    11413    3                   END;
      599    11414    2               ELSE
      600    11415                        /* Otherwise, just a normal message */
      601    11416    2                   CALL HANDLEIT;

  11416  3 000304   000512 701000 3                  TSX1    HANDLEIT
         3 000305   000000 011000                    NOP     0

      602    11417        %EJECT;
PL6.E3A0      #004=XSS$COMMWAIT File=XSS$COMM.:XSA1TSI                           WED 10/01/97 12:09 Page:151
      603    11418    2           IF NOT SCTX.ABORTING THEN

  11418  3 000306   200006 470500                    LDP0    CTX$,,AUTO
         3 000307   000013 236100                    LDQ     11,,PR0
         3 000310   001000 316007                    CANQ    512,DL
         3 000311   000433 601000 3                  TNZ     s:11442

      604    11419                    /* reissue the no-wait read for this DCB */
      605    11420    3               DO CASE( SCTX.MODE);

  11420  3 000312   000013 720100                    LXL0    11,,PR0
         3 000313   000777 360003                    ANX0    511,DU
         3 000314   000003 100003                    CMPX0   3,DU
         3 000315   000317 602010 3                  TNC     s:11420+5,X0
         3 000316   000433 710000 3                  TRA     s:11442
         3 000317   000433 710000 3                  TRA     s:11442
         3 000320   000322 710000 3                  TRA     s:11422
         3 000321   000367 710000 3                  TRA     s:11433

      606    11421    3                   CASE( %CLIENT);

      607    11422    3                       IF XSS_DEBUG = 0 THEN

  11422  3 000322   000000 235000 xsym               LDA     XSS_DEBUG
         3 000323   000327 601000 3                  TNZ     s:11425

      608    11423    3                           NCRD.STATION_ = VECTOR( NIL);

  11423  3 000324   000020 237000 4                  LDAQ    16
         3 000325   000040 757000 1                  STAQ    NCRD+6
         3 000326   000331 710000 3                  TRA     s:11426

      609    11424    3                       ELSE
      610    11425    3                           NCRD.STATION_ = VECTOR( XSS_AUSTA);

  11425  3 000327   000022 237000 4                  LDAQ    18
         3 000330   000040 757000 1                  STAQ    NCRD+6
PL6.E3A0      #004=XSS$COMMWAIT File=XSS$COMM.:XSA1TSI                           WED 10/01/97 12:09 Page:152

      611    11426    3                       CALL XSS$BUFPTR( SCTX.BUFX, BUF$);

  11426  3 000331   200004 631500                    EPPR1   BUF$,,AUTO
         3 000332   200043 451500                    STP1    LEN+3,,AUTO
         3 000333   200006 236100                    LDQ     CTX$,,AUTO
         3 000334   000033 036003                    ADLQ    27,DU
         3 000335   200042 756100                    STQ     LEN+2,,AUTO
         3 000336   200042 630500                    EPPR0   LEN+2,,AUTO
         3 000337   000000 631400 4                  EPPR1   0
         3 000340   000000 701000 xent               TSX1    XSS$BUFPTR
         3 000341   000000 011000                    NOP     0

      612    11427    3                       NCRD.BUF_ = VECTOR( RDBUFFER);

  11427  3 000342   000024 235000 4                  LDA     20
         3 000343   200004 236100                    LDQ     BUF$,,AUTO
         3 000344   000036 757000 1                  STAQ    NCRD+4

      613    11428    3                       NCRD.V.EVENT# = SCTX.EVENT#;

  11428  3 000345   200006 470500                    LDP0    CTX$,,AUTO
         3 000346   000034 235100                    LDA     28,,PR0
         3 000347   000043 755000 1                  STA     NCRD+9

      614    11429    3                       NCRD.V.DCB# = SCTX.DCB#;

  11429  3 000350   000033 720100                    LXL0    27,,PR0
         3 000351   000042 740000 1                  STX0    NCRD+8

      615    11430    3                       CALL XSS$EVLOG( 'NW', SCID);

  11430  3 000352   200013 631500                    EPPR1   SCID,,AUTO
         3 000353   200043 451500                    STP1    LEN+3,,AUTO
         3 000354   000025 236000 4                  LDQ     21
         3 000355   200042 756100                    STQ     LEN+2,,AUTO
         3 000356   200042 630500                    EPPR0   LEN+2,,AUTO
PL6.E3A0      #004=XSS$COMMWAIT File=XSS$COMM.:XSA1TSI                           WED 10/01/97 12:09 Page:153
         3 000357   000000 631400 4                  EPPR1   0
         3 000360   000000 701000 xent               TSX1    XSS$EVLOG
         3 000361   000000 011000                    NOP     0

      616    11431    3                       CALL M$READ( NCRD) ALTRET( RDERR);

  11431  3 000362   000032 630400 1                  EPPR0   NCRD
         3 000363   440000 713400                    CLIMB   alt,read
         3 000364   401400 401760                    pmme    nvectors=4
         3 000365   000473 702000 3                  TSX2    RDERR
         3 000366   000433 710000 3                  TRA     s:11442

      617    11432    3                   CASE( %SERVER);

      618    11433    3                       AURD.V.EVENT# = SCTX.EVENT#;

  11433  3 000367   000034 235100                    LDA     28,,PR0
         3 000370   000025 755000 1                  STA     AURD+9

      619    11434    3                       AURD.V.DCB# = SCTX.DCB#;

  11434  3 000371   000033 720100                    LXL0    27,,PR0
         3 000372   000024 740000 1                  STX0    AURD+8

      620    11435    3                       CALL XSS$EVLOG( 'NW', SCID);

  11435  3 000373   200013 631500                    EPPR1   SCID,,AUTO
         3 000374   200043 451500                    STP1    LEN+3,,AUTO
         3 000375   000025 236000 4                  LDQ     21
         3 000376   200042 756100                    STQ     LEN+2,,AUTO
         3 000377   200042 630500                    EPPR0   LEN+2,,AUTO
         3 000400   000000 631400 4                  EPPR1   0
         3 000401   000000 701000 xent               TSX1    XSS$EVLOG
         3 000402   000000 011000                    NOP     0

      621    11436    3                       IF DCBADDR( SCTX.DCB#)->F$DCB.FCN.CNT(0) = 0 THEN

PL6.E3A0      #004=XSS$COMMWAIT File=XSS$COMM.:XSA1TSI                           WED 10/01/97 12:09 Page:154
  11436  3 000403   000026 470400 4                  LDP0    22
         3 000404   000000 471500                    LDP1    0,,PR0
         3 000405   200006 473500                    LDP3    CTX$,,AUTO
         3 000406   300033 720100                    LXL0    27,,PR3
         3 000407   100000 474510                    LDP4    0,X0,PR1
         3 000410   400074 236100                    LDQ     60,,PR4
         3 000411   377000 316003                    CANQ    130560,DU
         3 000412   000417 601000 3                  TNZ     s:11438

      622    11437    3                           CALL M$READ( AURD) ALTRET( RDERR);

  11437  3 000413   000014 630400 1                  EPPR0   AURD
         3 000414   440000 713400                    CLIMB   alt,read
         3 000415   401400 401760                    pmme    nvectors=4
         3 000416   000473 702000 3                  TSX2    RDERR

      623    11438    3                       IF ( COUNTER > 0 AND NOT LCTX.ABORTING) OR NEEDCREDIT THEN

  11438  3 000417   200005 235100                    LDA     COUNTER,,AUTO
         3 000420   000425 604400 3                  TMOZ    s:11438+6
         3 000421   200007 470500                    LDP0    LCTX$,,AUTO
         3 000422   000013 236100                    LDQ     11,,PR0
         3 000423   001000 316007                    CANQ    512,DL
         3 000424   000427 600000 3                  TZE     s:11439
         3 000425   200011 234100                    SZN     NEEDCREDIT,,AUTO
         3 000426   000433 605000 3                  TPL     s:11442

      624    11439    3                           CALL XSS$TCREDIT( LCTX);

  11439  3 000427   200007 630500                    EPPR0   LCTX$,,AUTO
         3 000430   000011 631400 4                  EPPR1   9
         3 000431   000000 701000 xent               TSX1    XSS$TCREDIT
         3 000432   000000 011000                    NOP     0

      625    11440    3                   END;

      626    11441                /* ..and continue the DO WHILE( COUNTER = 0) loop */
PL6.E3A0      #004=XSS$COMMWAIT File=XSS$COMM.:XSA1TSI                           WED 10/01/97 12:09 Page:155
      627    11442    2           END;

  11442  3 000433   200005 235100                    LDA     COUNTER,,AUTO
         3 000434   000023 600000 3                  TZE     s:11345

      628    11443        %EJECT;
PL6.E3A0      #004=XSS$COMMWAIT File=XSS$COMM.:XSA1TSI                           WED 10/01/97 12:09 Page:156
      629    11444            /* O.k., done handling one or more latched message(s), or none latched */
      630    11445            /* see if any Session timers have expired */
      631    11446    1       CALL XSS$ALARMCHECK;

  11446  3 000435   000027 631400 4                  EPPR1   23
         3 000436   000000 701000 xent               TSX1    XSS$ALARMCHECK
         3 000437   000000 011000                    NOP     0

      632    11447    1       IF COUNTER ~= 0 THEN

  11447  3 000440   200005 235100                    LDA     COUNTER,,AUTO
         3 000441   000443 600000 3                  TZE     s:11451

      633    11448                /* a user message was handled already, so don't bother M$WAITing */
      634    11449    1           ALTRETURN;

  11449  3 000442   000000 702200 xent               TSX2  ! X66_AALT

      635    11450    2       DO INHIBIT;

      636    11451    2           XSS_EVENTED = %FALSE;

  11451  3 000443   000100 450200 1                  STZ   ! XSS_EVENTED

      637    11452                /* wait for some number of seconds */
      638    11453    3           IF FPT_WAIT.V.UNITS# > 0 THEN DO;

  11453  3 000444   000054 236200 1                  LDQ   ! FPT_WAIT+4
         3 000445   000455 600200 3                  TZE   ! s:11457

      639    11454    3               CALL XSS$EVLOG( 'WT', FPT_WAIT.V.UNITS#);

  11454  3 000446   000030 630600 4                  EPPR0 ! 24
         3 000447   000000 631600 4                  EPPR1 ! 0
         3 000450   000000 701200 xent               TSX1  ! XSS$EVLOG
         3 000451   000000 011200                    NOP   ! 0

PL6.E3A0      #004=XSS$COMMWAIT File=XSS$COMM.:XSA1TSI                           WED 10/01/97 12:09 Page:157
      640    11455    3               CALL M$WAIT( FPT_WAIT);

  11455  3 000452   000050 630600 1                  EPPR0 ! FPT_WAIT
         3 000453   020006 713600                    CLIMB ! 8198
         3 000454   400400 401760                    pmme    nvectors=2

      641    11456    3               END;

      642    11457    3           IF UETIME ~= 0 THEN DO;

  11457  3 000455   000077 235200 1                  LDA   ! UETIME
         3 000456   000464 600200 3                  TZE   ! s:11466

      643    11458                    /* user wait was interrupted */
      644    11459    3               IF NOT XSS_EVENTED THEN

  11459  3 000457   000100 234200 1                  SZN   ! XSS_EVENTED
         3 000460   000462 604200 3                  TMI   ! s:11461

      645    11460    3                   ALTRETURN;  /* user must have hit <Break> */

  11460  3 000461   000000 702200 xent               TSX2  ! X66_AALT

      646    11461    3               FPT_WAIT.V.UNITS# = UETIME;  /* set up for remaining wait time */

  11461  3 000462   000054 755200 1                  STA   ! FPT_WAIT+4

      647    11462    3               GOTO CHECK4MSG;

  11462  3 000463   000021 710200 3                  TRA   ! CHECK4MSG

      648    11463    3               END;
      649    11464    2           END;

      650    11465            /* user wait was not interrupted */
      651    11466    1       IF SECONDS > 10 THEN

PL6.E3A0      #004=XSS$COMMWAIT File=XSS$COMM.:XSA1TSI                           WED 10/01/97 12:09 Page:158
  11466  3 000464   200014 236100                    LDQ     SECONDS,,AUTO
         3 000465   000012 116007                    CMPQ    10,DL
         3 000466   000472 604400 3                  TMOZ    s:11469

      652    11467                /* was 'long' wait so check timers again */
      653    11468    1           CALL XSS$ALARMCHECK;

  11468  3 000467   000027 631400 4                  EPPR1   23
         3 000470   000000 701000 xent               TSX1    XSS$ALARMCHECK
         3 000471   000000 011000                    NOP     0

      654    11469    1       RETURN;

  11469  3 000472   000000 702200 xent               TSX2  ! X66_ARET

  11466  3 000473                       RDERR        null
      655    11470    1   RDERR:
      656    11471    1       ;
      657    11472    1   XTNERR:
      658    11473    1       ERRCODE = B$TCB$->B$TCB.ALT$->B$ALT.ERR;

  11473  3 000473   000000 470400 xsym  XTNERR       LDP0    B$TCB$
         3 000474   000000 471500                    LDP1    0,,PR0
         3 000475   100102 236100                    LDQ     66,,PR1
         3 000476   000056 756000 1                  STQ     ERRCODE

      659    11474    1   BAILOUT:
      660    11475    1       IF ERRCODE.SEV = 0 THEN

  11475  3 000477   000056 236000 1     BAILOUT      LDQ     ERRCODE
         3 000500   000007 316007                    CANQ    7,DL
         3 000501   000505 601000 3                  TNZ     s:11477

      661    11476    1           ERRCODE.SEV = 1;

  11476  3 000502   000032 376000 4                  ANQ     26
         3 000503   000001 276007                    ORQ     1,DL
PL6.E3A0      #004=XSS$COMMWAIT File=XSS$COMM.:XSA1TSI                           WED 10/01/97 12:09 Page:159
         3 000504   000056 756000 1                  STQ     ERRCODE

      662    11477    1       CALL XSS$SCREECH( ERRCODE);

  11477  3 000505   000017 630400 4                  EPPR0   15
         3 000506   000011 631400 4                  EPPR1   9
         3 000507   000000 701000 xent               TSX1    XSS$SCREECH
         3 000510   000000 011000                    NOP     0
         3 000511   001364 710000 3                  TRA     s:16769+2

      663    11478            /* won't return here */
      664    11479        %EJECT;
PL6.E3A0      #004=XSS$COMMWAIT File=XSS$COMM.:XSA1TSI                           WED 10/01/97 12:09 Page:160
      665    11480        /*I*    NAME:   HANDLEIT
      666    11481                DESCRIPTION:
      667    11482                    Does whatever is necessary to handle an incoming SPDU or TPDU.
      668    11483                    Information about the message is in SCTX.LATCH.
      669    11484        */
      670    11485    1   HANDLEIT: PROC;

  11485  3 000512   200016 741300       HANDLEIT     STX1  ! SECONDS+2,,AUTO

      671    11486        /* K_ADDRESS_M already %INCLUDEd above */
      672    11487        %INCLUDE K_INTERFACE_M;
      673    11896            %K$FPT_CONNECT_OSI( NAME=TCONFPT, STCLASS=BASED);
      674    12233        /* XSS_SESSION_E already %INCLUDEd above */
      675    12234        %INCLUDE XSS_SESSION_M;
      676    14877            %XSS$GENERIC( FPTN=XSS_GENERIC, STCLASS=SYMREF);
      677    15023            %XSS$GENERIC( STCLASS="BASED( VBLK.FPT$)");
      678    15169            %XSS$CONNECT( STCLASS="BASED( VBLK.FPT$)");
      679    15492        /* XSS_INTERNAL_E and _M already %INCLUDEd above */
      680    15493            %XSS$GLUE( NAME=GLUE, STCLASS="BASED( SPDU$)");
      681    15523            %XSS$VBLK( NAME=VBLK, STCLASS=AUTO);
      682    15628            %XSS$VBLK( NAME=XSS_VBLK, STCLASS=SYMREF);
      683    15733        /* XSC_COMMON_M already %INCLUDEd above */
      684    15734            %XSC$ADDRESS( NAME=UADR, STCLASS="BASED( UADR$)");
      685    16017            %XSC$ADDRESS;
      686    16300            %XSC$CCB;
      687    16597
      688    16598    2       DCL XSS$DECODE ENTRY(1) ALTRET;
      689    16599    2       DCL XSS$GETCTX ENTRY(2) ALTRET;
      690    16600    2       DCL XSS$MACHINE ENTRY(1) ALTRET;
      691    16601
      692    16602    2       DCL XSS_CCB$$ PTR SYMREF;
      693    16603    2       DCL XSS_MAX_LCID SBIN SYMREF;
      694    16604
      695    16605    2       DCL CCB$(0:0) PTR BASED( XSS_CCB$$) ALIGNED;
      696    16606    2       DCL DST$ PTR;
      697    16607    2       DCL SRC$ PTR;
      698    16608    2       DCL SCID SBIN;
PL6.E3A0      #004=XSS$COMMWAIT File=XSS$COMM.:XSA1TSI                           WED 10/01/97 12:09 Page:161
      699    16609    2       DCL SPDU CHAR( SPDUSZ) BASED( SPDU$);
      700    16610    2       DCL SPDU$ PTR;
      701    16611    2       DCL SPDUSZ SBIN;
      702    16612    2       DCL UADR$ PTR;
      703    16613        %EJECT;
PL6.E3A0      #004=XSS$COMMWAIT File=XSS$COMM.:XSA1TSI                           WED 10/01/97 12:09 Page:162
      704    16614    2       SPDU$ = SCTX.LATCH.MSG$;

  16614  3 000513   200006 470500                    LDP0    CTX$,,AUTO
         3 000514   000036 236100                    LDQ     30,,PR0
         3 000515   200033 756100                    STQ     SPDU$,,AUTO

      705    16615    2       CALL XSS$EVLOG( 'QE', GLUE.TRNFNC*512 + GLUE.YRSCID);

  16615  3 000516   200033 471500                    LDP1    SPDU$,,AUTO
         3 000517   100000 236100                    LDQ     0,,PR1
         3 000520   000011 772000                    QRL     9
         3 000521   000777 376007                    ANQ     511,DL
         3 000522   200042 756100                    STQ     LEN+2,,AUTO
         3 000523   100000 236100                    LDQ     0,,PR1
         3 000524   000011 772000                    QRL     9
         3 000525   777000 376007                    ANQ     -512,DL
         3 000526   200042 036100                    ADLQ    LEN+2,,AUTO
         3 000527   200043 756100                    STQ     LEN+3,,AUTO
         3 000530   200043 633500                    EPPR3   LEN+3,,AUTO
         3 000531   200045 453500                    STP3    LEN+5,,AUTO
         3 000532   000033 236000 4                  LDQ     27
         3 000533   200044 756100                    STQ     LEN+4,,AUTO
         3 000534   200044 630500                    EPPR0   LEN+4,,AUTO
         3 000535   000000 631400 4                  EPPR1   0
         3 000536   000000 701000 xent               TSX1    XSS$EVLOG
         3 000537   000000 011000                    NOP     0

      706    16616    2       IF GLUE.TRNFNC = %K_TCREDIT THEN

  16616  3 000540   200033 470500                    LDP0    SPDU$,,AUTO
         3 000541   000000 236100                    LDQ     0,,PR0
         3 000542   000777 376003                    ANQ     511,DU
         3 000543   000032 116003                    CMPQ    26,DU
         3 000544   000547 601000 3                  TNZ     s:16618

      707    16617    2           RETURN;  /* ignore this bogosity */

PL6.E3A0      #004=XSS$COMMWAIT File=XSS$COMM.:XSA1TSI                           WED 10/01/97 12:09 Page:163
  16617  3 000545   200016 221300                    LDX1  ! SECONDS+2,,AUTO
         3 000546   000001 702211                    TSX2  ! 1,X1

      708    16618    2       SCTX.MAGIC = GLUE.MAGIC;  /* so TCREDIT works.. */

  16618  3 000547   200006 471500                    LDP1    CTX$,,AUTO
         3 000550   000000 236100                    LDQ     0,,PR0
         3 000551   100015 552104                    STBQ    13,'04'O,PR1

      709    16619    2       SPDUSZ = SCTX.LATCH.MSGSZ;

  16619  3 000552   100037 235100                    LDA     31,,PR1
         3 000553   200034 755100                    STA     SPDUSZ,,AUTO

      710    16620    2       VBLK = XSS_VBLK;

  16620  3 000554   000100 100400                    MLR     fill='000'O
         3 000555   000000 000040 xsym               ADSC9   XSS_VBLK                 cn=0,n=32
         3 000556   200020 000040                    ADSC9   VBLK,,AUTO               cn=0,n=32

      711    16621    2       VBLK.PDU.SIZE = SPDUSZ;

  16621  3 000557   200025 755100                    STA     VBLK+5,,AUTO

      712    16622    2       VBLK.PDU.PTR$ = SPDU$;

  16622  3 000560   200033 236100                    LDQ     SPDU$,,AUTO
         3 000561   200024 756100                    STQ     VBLK+4,,AUTO

      713    16623    2       VBLK.CTX$ = CTX$;

  16623  3 000562   200006 236100                    LDQ     CTX$,,AUTO
         3 000563   200020 756100                    STQ     VBLK,,AUTO

      714    16624    2       LCTX$ = CTX$;

  16624  3 000564   200007 756100                    STQ     LCTX$,,AUTO
PL6.E3A0      #004=XSS$COMMWAIT File=XSS$COMM.:XSA1TSI                           WED 10/01/97 12:09 Page:164

      715    16625    3       IF GLUE.TRNFNC ~= %K_TCONNECT_IND THEN DO;

  16625  3 000565   000000 236100                    LDQ     0,,PR0
         3 000566   000777 376003                    ANQ     511,DU
         3 000567   000025 116003                    CMPQ    21,DU
         3 000570   000616 600000 3                  TZE     s:16635

      716    16626    3           SCID = GLUE.YRSCID;

  16626  3 000571   000000 236100                    LDQ     0,,PR0
         3 000572   000011 772000                    QRL     9
         3 000573   000777 376007                    ANQ     511,DL
         3 000574   200032 756100                    STQ     SCID,,AUTO

      717    16627    3           CALL XSS$CTXPTR( SCID, LCTX$)

  16627  3 000575   200007 633500                    EPPR3   LCTX$,,AUTO
         3 000576   200043 453500                    STP3    LEN+3,,AUTO
         3 000577   200032 634500                    EPPR4   SCID,,AUTO
         3 000600   200042 454500                    STP4    LEN+2,,AUTO
         3 000601   200042 630500                    EPPR0   LEN+2,,AUTO
         3 000602   000000 631400 4                  EPPR1   0
         3 000603   000000 701000 xent               TSX1    XSS$CTXPTR
         3 000604   000606 702000 3                  TSX2    s:16630
         3 000605   000610 710000 3                  TRA     s:16632

      718    16628    4           WHENALTRETURN DO;

      719    16629                    /* Connection must have aborted.  Well, fine. */
      720    16630    4               RETURN;

  16630  3 000606   200016 221300                    LDX1  ! SECONDS+2,,AUTO
         3 000607   000001 702211                    TSX2  ! 1,X1

      721    16631    4               END;
      722    16632    3           VBLK.CTX$ = LCTX$;
PL6.E3A0      #004=XSS$COMMWAIT File=XSS$COMM.:XSA1TSI                           WED 10/01/97 12:09 Page:165

  16632  3 000610   200007 236100                    LDQ     LCTX$,,AUTO
         3 000611   200020 756100                    STQ     VBLK,,AUTO

      723    16633    3           LCTX.MAGIC = GLUE.MAGIC;

  16633  3 000612   200033 470500                    LDP0    SPDU$,,AUTO
         3 000613   200007 471500                    LDP1    LCTX$,,AUTO
         3 000614   000000 236100                    LDQ     0,,PR0
         3 000615   100015 552104                    STBQ    13,'04'O,PR1

      724    16634    3           END;

      725    16635    2       CALL XSS$BUFPTR( CCB$( LCTX.SCID)->XSC$CCB.SFPTX, VBLK.FPT$);

  16635  3 000616   200007 471500                    LDP1    LCTX$,,AUTO
         3 000617   100015 220100                    LDX0    13,,PR1
         3 000620   000777 360003                    ANX0    511,DU
         3 000621   000000 473400 xsym               LDP3    XSS_CCB$$
         3 000622   300000 474510                    LDP4    0,X0,PR3
         3 000623   200022 635500                    EPPR5   VBLK+2,,AUTO
         3 000624   200043 455500                    STP5    LEN+3,,AUTO
         3 000625   200044 454500                    STP4    LEN+4,,AUTO
         3 000626   200044 236100                    LDQ     LEN+4,,AUTO
         3 000627   000034 036000 4                  ADLQ    28
         3 000630   200042 756100                    STQ     LEN+2,,AUTO
         3 000631   200042 630500                    EPPR0   LEN+2,,AUTO
         3 000632   000000 631400 4                  EPPR1   0
         3 000633   000000 701000 xent               TSX1    XSS$BUFPTR
         3 000634   000000 011000                    NOP     0

      726    16636        %EJECT;
PL6.E3A0      #004=XSS$COMMWAIT File=XSS$COMM.:XSA1TSI                           WED 10/01/97 12:09 Page:166
      727    16637    3       DO CASE( GLUE.TRNFNC);

  16637  3 000635   200033 470500                    LDP0    SPDU$,,AUTO
         3 000636   000000 236100                    LDQ     0,,PR0
         3 000637   000022 772000                    QRL     18
         3 000640   000777 376007                    ANQ     511,DL
         3 000641   000025 136007                    SBLQ    21,DL
         3 000642   000010 116007                    CMPQ    8,DL
         3 000643   000645 602006 3                  TNC     s:16637+8,QL
         3 000644   001131 710000 3                  TRA     s:16700
         3 000645   000655 710000 3                  TRA     s:16639
         3 000646   001033 710000 3                  TRA     s:16667
         3 000647   001077 710000 3                  TRA     s:16686
         3 000650   001077 710000 3                  TRA     s:16686
         3 000651   001052 710000 3                  TRA     s:16673
         3 000652   001131 710000 3                  TRA     s:16700
         3 000653   001063 710000 3                  TRA     s:16677
         3 000654   001071 710000 3                  TRA     s:16681

      728    16638    3           CASE( %K_TCONNECT_IND);

      729    16639    3               VBLK.EVENT = %XSS_SEV_TCONIND;

  16639  3 000655   000061 236007                    LDQ     49,DL
         3 000656   200021 552104                    STBQ    VBLK+1,'04'O,AUTO

      730    16640    3               CALL XSS$GETCTX( LCTX$)

  16640  3 000657   200007 631500                    EPPR1   LCTX$,,AUTO
         3 000660   200042 451500                    STP1    LEN+2,,AUTO
         3 000661   200042 630500                    EPPR0   LEN+2,,AUTO
         3 000662   000011 631400 4                  EPPR1   9
         3 000663   000000 701000 xent               TSX1    XSS$GETCTX
         3 000664   000666 702000 3                  TSX2    s:16645
         3 000665   000666 710000 3                  TRA     s:16645

      731    16641    4               WHENALTRETURN DO;
PL6.E3A0      #004=XSS$COMMWAIT File=XSS$COMM.:XSA1TSI                           WED 10/01/97 12:09 Page:167

      732    16642                        /*N* ignore this for now.  Eventually do T-DISCONNECT */
      733    16643    4                   END;

      734    16644                    /* copy contents of original CCB to new one */
      735    16645    3               CCB$( LCTX.SCID)->XSC$CCB = CCB$( SCTX.SCID)->XSC$CCB;

  16645  3 000666   200007 470500                    LDP0    LCTX$,,AUTO
         3 000667   000015 220100                    LDX0    13,,PR0
         3 000670   000777 360003                    ANX0    511,DU
         3 000671   000000 471400 xsym               LDP1    XSS_CCB$$
         3 000672   100000 473510                    LDP3    0,X0,PR1
         3 000673   200006 474500                    LDP4    CTX$,,AUTO
         3 000674   400015 221100                    LDX1    13,,PR4
         3 000675   000777 361003                    ANX1    511,DU
         3 000676   100000 475511                    LDP5    0,X1,PR1
         3 000677   000100 100500                    MLR     fill='000'O
         3 000700   500000 000070                    ADSC9   0,,PR5                   cn=0,n=56
         3 000701   300000 000070                    ADSC9   0,,PR3                   cn=0,n=56

      736    16646    3               CCB$( LCTX.SCID)->XSC$CCB.LCID = LCTX.SCID;

  16646  3 000702   200007 470500                    LDP0    LCTX$,,AUTO
         3 000703   000015 220100                    LDX0    13,,PR0
         3 000704   000777 360003                    ANX0    511,DU
         3 000705   000000 471400 xsym               LDP1    XSS_CCB$$
         3 000706   100000 473510                    LDP3    0,X0,PR1
         3 000707   000015 236100                    LDQ     13,,PR0
         3 000710   000022 772000                    QRL     18
         3 000711   300000 552104                    STBQ    0,'04'O,PR3

      737    16647                    /* copy contents of address buffers too */
      738    16648    3               CALL XSS$BUFPTR( SCTX.SRCX, SRC$);

  16648  3 000712   200031 630500                    EPPR0   SRC$,,AUTO
         3 000713   200043 450500                    STP0    LEN+3,,AUTO
         3 000714   200006 236100                    LDQ     CTX$,,AUTO
PL6.E3A0      #004=XSS$COMMWAIT File=XSS$COMM.:XSA1TSI                           WED 10/01/97 12:09 Page:168
         3 000715   000003 036003                    ADLQ    3,DU
         3 000716   200042 756100                    STQ     LEN+2,,AUTO
         3 000717   200042 630500                    EPPR0   LEN+2,,AUTO
         3 000720   000000 631400 4                  EPPR1   0
         3 000721   000000 701000 xent               TSX1    XSS$BUFPTR
         3 000722   000000 011000                    NOP     0

      739    16649    3               CALL XSS$BUFPTR( LCTX.SRCX, DST$);

  16649  3 000723   200030 630500                    EPPR0   DST$,,AUTO
         3 000724   200043 450500                    STP0    LEN+3,,AUTO
         3 000725   200007 236100                    LDQ     LCTX$,,AUTO
         3 000726   000003 036003                    ADLQ    3,DU
         3 000727   200042 756100                    STQ     LEN+2,,AUTO
         3 000730   200042 630500                    EPPR0   LEN+2,,AUTO
         3 000731   000000 631400 4                  EPPR1   0
         3 000732   000000 701000 xent               TSX1    XSS$BUFPTR
         3 000733   000000 011000                    NOP     0

      740    16650    3               DST$->XSC$ADDRESS = SRC$->XSC$ADDRESS;

  16650  3 000734   200031 470500                    LDP0    SRC$,,AUTO
         3 000735   200030 471500                    LDP1    DST$,,AUTO
         3 000736   000100 100500                    MLR     fill='000'O
         3 000737   000000 000456                    ADSC9   0,,PR0                   cn=0,n=302
         3 000740   100000 000456                    ADSC9   0,,PR1                   cn=0,n=302

      741    16651    3               CALL XSS$BUFPTR( SCTX.DSTX, SRC$);

  16651  3 000741   200031 630500                    EPPR0   SRC$,,AUTO
         3 000742   200043 450500                    STP0    LEN+3,,AUTO
         3 000743   200006 236100                    LDQ     CTX$,,AUTO
         3 000744   000035 036000 4                  ADLQ    29
         3 000745   200042 756100                    STQ     LEN+2,,AUTO
         3 000746   200042 630500                    EPPR0   LEN+2,,AUTO
         3 000747   000000 631400 4                  EPPR1   0
         3 000750   000000 701000 xent               TSX1    XSS$BUFPTR
PL6.E3A0      #004=XSS$COMMWAIT File=XSS$COMM.:XSA1TSI                           WED 10/01/97 12:09 Page:169
         3 000751   000000 011000                    NOP     0

      742    16652    3               CALL XSS$BUFPTR( LCTX.DSTX, DST$);

  16652  3 000752   200030 630500                    EPPR0   DST$,,AUTO
         3 000753   200043 450500                    STP0    LEN+3,,AUTO
         3 000754   200007 236100                    LDQ     LCTX$,,AUTO
         3 000755   000035 036000 4                  ADLQ    29
         3 000756   200042 756100                    STQ     LEN+2,,AUTO
         3 000757   200042 630500                    EPPR0   LEN+2,,AUTO
         3 000760   000000 631400 4                  EPPR1   0
         3 000761   000000 701000 xent               TSX1    XSS$BUFPTR
         3 000762   000000 011000                    NOP     0

      743    16653    3               DST$->XSC$ADDRESS = SRC$->XSC$ADDRESS;

  16653  3 000763   200031 470500                    LDP0    SRC$,,AUTO
         3 000764   200030 471500                    LDP1    DST$,,AUTO
         3 000765   000100 100500                    MLR     fill='000'O
         3 000766   000000 000456                    ADSC9   0,,PR0                   cn=0,n=302
         3 000767   100000 000456                    ADSC9   0,,PR1                   cn=0,n=302

      744    16654    3               VBLK.CTX$ = LCTX$;

  16654  3 000770   200007 236100                    LDQ     LCTX$,,AUTO
         3 000771   200020 756100                    STQ     VBLK,,AUTO

      745    16655    3               SCID = LCTX.SCID;

  16655  3 000772   200007 470500                    LDP0    LCTX$,,AUTO
         3 000773   000015 236100                    LDQ     13,,PR0
         3 000774   000022 772000                    QRL     18
         3 000775   000777 376007                    ANQ     511,DL
         3 000776   200032 756100                    STQ     SCID,,AUTO

      746    16656    3               XSS$GENERIC.SCID = LCTX.SCID;

PL6.E3A0      #004=XSS$COMMWAIT File=XSS$COMM.:XSA1TSI                           WED 10/01/97 12:09 Page:170
  16656  3 000777   200022 471500                    LDP1    VBLK+2,,AUTO
         3 001000   000015 236100                    LDQ     13,,PR0
         3 001001   100000 552120                    STBQ    0,'20'O,PR1

      747    16657    3               LCTX.MAGIC = GLUE.MAGIC;

  16657  3 001002   200033 470500                    LDP0    SPDU$,,AUTO
         3 001003   200007 471500                    LDP1    LCTX$,,AUTO
         3 001004   000000 236100                    LDQ     0,,PR0
         3 001005   100015 552104                    STBQ    13,'04'O,PR1

      748    16658    3               CALL ADDRSETUP;

  16658  3 001006   001145 701000 3                  TSX1    ADDRSETUP
         3 001007   000000 011000                    NOP     0

      749    16659    3               LCTX.PEERSCID = GLUE.MYSCID;

  16659  3 001010   200033 470500                    LDP0    SPDU$,,AUTO
         3 001011   200007 471500                    LDP1    LCTX$,,AUTO
         3 001012   000000 236100                    LDQ     0,,PR0
         3 001013   100015 552140                    STBQ    13,'40'O,PR1

      750    16660    3               LCTX.MODE = %SERVER;

  16660  3 001014   000002 236007                    LDQ     2,DL
         3 001015   100013 552104                    STBQ    11,'04'O,PR1

      751    16661    3               LCTX.STATION = SCTX.LATCH.STATION;

  16661  3 001016   200006 473500                    LDP3    CTX$,,AUTO
         3 001017   040100 100500                    MLR     fill='040'O
         3 001020   300041 000010                    ADSC9   33,,PR3                  cn=0,n=8
         3 001021   100027 000010                    ADSC9   23,,PR1                  cn=0,n=8

      752    16662    3               LCTX.DCB# = SCTX.DCB#;

PL6.E3A0      #004=XSS$COMMWAIT File=XSS$COMM.:XSA1TSI                           WED 10/01/97 12:09 Page:171
  16662  3 001022   300033 720100                    LXL0    27,,PR3
         3 001023   100033 440100                    SXL0    27,,PR1

      753    16663    3               LCTX.EVENT# = SCTX.EVENT#;

  16663  3 001024   300034 235100                    LDA     28,,PR3
         3 001025   100034 755100                    STA     28,,PR1

      754    16664    3               LCTX.ENTRY$ = SCTX.ENTRY$;

  16664  3 001026   300016 236100                    LDQ     14,,PR3
         3 001027   100016 756100                    STQ     14,,PR1

      755    16665    3               LCTX.LATCH.MSG$ = SCTX.LATCH.MSG$;

  16665  3 001030   300036 236100                    LDQ     30,,PR3
         3 001031   100036 756100                    STQ     30,,PR1
         3 001032   001131 710000 3                  TRA     s:16700

      756    16666    3           CASE( %K_TCONNECT_CFM);

      757    16667    3               XSS$GENERIC.SCID = LCTX.SCID;

  16667  3 001033   200007 471500                    LDP1    LCTX$,,AUTO
         3 001034   200022 473500                    LDP3    VBLK+2,,AUTO
         3 001035   100015 236100                    LDQ     13,,PR1
         3 001036   300000 552120                    STBQ    0,'20'O,PR3

      758    16668    3               CALL ADDRSETUP;

  16668  3 001037   001145 701000 3                  TSX1    ADDRSETUP
         3 001040   000000 011000                    NOP     0

      759    16669    3               LCTX.PEERSCID = GLUE.MYSCID;

  16669  3 001041   200033 470500                    LDP0    SPDU$,,AUTO
         3 001042   200007 471500                    LDP1    LCTX$,,AUTO
PL6.E3A0      #004=XSS$COMMWAIT File=XSS$COMM.:XSA1TSI                           WED 10/01/97 12:09 Page:172
         3 001043   000000 236100                    LDQ     0,,PR0
         3 001044   100015 552140                    STBQ    13,'40'O,PR1

      760    16670    3               VBLK.EVENT = %XSS_SEV_TCONCNF;

  16670  3 001045   000063 236007                    LDQ     51,DL
         3 001046   200021 552104                    STBQ    VBLK+1,'04'O,AUTO

      761    16671    3               NEEDCREDIT = %TRUE;

  16671  3 001047   400000 236003                    LDQ     -131072,DU
         3 001050   200011 756100                    STQ     NEEDCREDIT,,AUTO
         3 001051   001131 710000 3                  TRA     s:16700

      762    16672    3           CASE( %K_TDISCONNECT_IND);

      763    16673    3               XSS$GENERIC.SCID = LCTX.SCID;

  16673  3 001052   200007 471500                    LDP1    LCTX$,,AUTO
         3 001053   200022 473500                    LDP3    VBLK+2,,AUTO
         3 001054   100015 236100                    LDQ     13,,PR1
         3 001055   300000 552120                    STBQ    0,'20'O,PR3

      764    16674    3               CALL ADDRSETUP;

  16674  3 001056   001145 701000 3                  TSX1    ADDRSETUP
         3 001057   000000 011000                    NOP     0

      765    16675    3               VBLK.EVENT = %XSS_SEV_TDISIND;

  16675  3 001060   000065 236007                    LDQ     53,DL
         3 001061   200021 552104                    STBQ    VBLK+1,'04'O,AUTO
         3 001062   001131 710000 3                  TRA     s:16700

      766    16676    3           CASE( %K_TFLOW_STOP);

      767    16677    3               LCTX.FLOWSTOPPED = %TRUE;
PL6.E3A0      #004=XSS$COMMWAIT File=XSS$COMM.:XSA1TSI                           WED 10/01/97 12:09 Page:173

  16677  3 001063   200007 471500                    LDP1    LCTX$,,AUTO
         3 001064   040000 236007                    LDQ     16384,DL
         3 001065   100013 256100                    ORSQ    11,,PR1

      768    16678    3               COUNTER = COUNTER + 1;

  16678  3 001066   200005 054100                    AOS     COUNTER,,AUTO

      769    16679    3               RETURN;

  16679  3 001067   200016 221300                    LDX1  ! SECONDS+2,,AUTO
         3 001070   000001 702211                    TSX2  ! 1,X1

      770    16680    3           CASE( %K_TFLOW_START);

      771    16681    3               LCTX.FLOWSTOPPED = %FALSE;

  16681  3 001071   200007 471500                    LDP1    LCTX$,,AUTO
         3 001072   000036 236000 4                  LDQ     30
         3 001073   100013 356100                    ANSQ    11,,PR1

      772    16682    3               COUNTER = COUNTER + 1;

  16682  3 001074   200005 054100                    AOS     COUNTER,,AUTO

      773    16683    3               RETURN;

  16683  3 001075   200016 221300                    LDX1  ! SECONDS+2,,AUTO
         3 001076   000001 702211                    TSX2  ! 1,X1

      774    16684    3           CASE( %K_TDATA_IND,

      775    16685    3                 %K_TEXPD_DATA_IND);
      776    16686    3               VBLK.EVENT = %XSS_SEV_NULL;

  16686  3 001077   000000 236003                    LDQ     0,DU
PL6.E3A0      #004=XSS$COMMWAIT File=XSS$COMM.:XSA1TSI                           WED 10/01/97 12:09 Page:174
         3 001100   200021 552104                    STBQ    VBLK+1,'04'O,AUTO

      777    16687    3               SPDU$ = ADDR( GLUE.DATA);

  16687  3 001101   200033 236100                    LDQ     SPDU$,,AUTO
         3 001102   000001 036003                    ADLQ    1,DU
         3 001103   200033 756100                    STQ     SPDU$,,AUTO

      778    16688    3               VBLK.PDU.PTR$ = SPDU$;

  16688  3 001104   200024 756100                    STQ     VBLK+4,,AUTO

      779    16689    3               SPDUSZ = SPDUSZ - 4;

  16689  3 001105   000004 336007                    LCQ     4,DL
         3 001106   200034 056100                    ASQ     SPDUSZ,,AUTO

      780    16690    3               VBLK.PDU.SIZE = SPDUSZ;

  16690  3 001107   200034 235100                    LDA     SPDUSZ,,AUTO
         3 001110   200025 755100                    STA     VBLK+5,,AUTO

      781    16691                    /* Decode the SPDU(s) and invoke state machine for each one */
      782    16692    3               CALL XSS$DECODE( VBLK)

  16692  3 001111   200020 630500                    EPPR0   VBLK,,AUTO
         3 001112   200042 450500                    STP0    LEN+2,,AUTO
         3 001113   200042 630500                    EPPR0   LEN+2,,AUTO
         3 001114   000011 631400 4                  EPPR1   9
         3 001115   000000 701000 xent               TSX1    XSS$DECODE
         3 001116   001120 702000 3                  TSX2    s:16695
         3 001117   001124 710000 3                  TRA     s:16697

      783    16693    4               WHENALTRETURN DO;

      784    16694                        /*N* fix this */
      785    16695    4                   CALL XSS$SCREECH( XSS_F$DECODE);
PL6.E3A0      #004=XSS$COMMWAIT File=XSS$COMM.:XSA1TSI                           WED 10/01/97 12:09 Page:175

  16695  3 001120   000037 630400 4                  EPPR0   31
         3 001121   000011 631400 4                  EPPR1   9
         3 001122   000000 701000 xent               TSX1    XSS$SCREECH
         3 001123   000000 011000                    NOP     0

      786    16696    4                   END;

      787    16697    3               COUNTER = COUNTER + VBLK.USERCALL;  /* Session handler called? */

  16697  3 001124   200005 236100                    LDQ     COUNTER,,AUTO
         3 001125   200023 036100                    ADLQ    VBLK+3,,AUTO
         3 001126   200005 756100                    STQ     COUNTER,,AUTO

      788    16698    3               RETURN;

  16698  3 001127   200016 221300                    LDX1  ! SECONDS+2,,AUTO
         3 001130   000001 702211                    TSX2  ! 1,X1

      789    16699    3           END;

      790    16700    2       CALL XSS$MACHINE( VBLK)

  16700  3 001131   200020 630500                    EPPR0   VBLK,,AUTO
         3 001132   200042 450500                    STP0    LEN+2,,AUTO
         3 001133   200042 630500                    EPPR0   LEN+2,,AUTO
         3 001134   000011 631400 4                  EPPR1   9
         3 001135   000000 701000 xent               TSX1    XSS$MACHINE
         3 001136   001140 702000 3                  TSX2    s:16704
         3 001137   001140 710000 3                  TRA     s:16704

      791    16701    3       WHENALTRETURN DO;

      792    16702                /* Connection has aborted.  Fine with me. */
      793    16703    3           END;

      794    16704    2       COUNTER = COUNTER + VBLK.USERCALL;
PL6.E3A0      #004=XSS$COMMWAIT File=XSS$COMM.:XSA1TSI                           WED 10/01/97 12:09 Page:176

  16704  3 001140   200005 236100                    LDQ     COUNTER,,AUTO
         3 001141   200023 036100                    ADLQ    VBLK+3,,AUTO
         3 001142   200005 756100                    STQ     COUNTER,,AUTO

      795    16705    2       RETURN;

  16705  3 001143   200016 221300                    LDX1  ! SECONDS+2,,AUTO
         3 001144   000001 702211                    TSX2  ! 1,X1

      796    16706        %EJECT;
PL6.E3A0      #004=XSS$COMMWAIT File=XSS$COMM.:XSA1TSI                           WED 10/01/97 12:09 Page:177
      797    16707        /*I*    NAME:   ADDRSETUP
      798    16708                DESCRIPTION:
      799    16709                    This internal routine picks apart the FPT_CONNECT_OSI or
      800    16710                    FPT_TERM_OSI and puts the source and destination TSAPs and
      801    16711                    NSAPs in AUTO structures, then frames these structures in
      802    16712                    the Session FPT that the state machine is entered with.
      803    16713        */
      804    16714    2   ADDRSETUP: PROC;

  16714  3 001145   200036 741300       ADDRSETUP    STX1  ! UADR$+1,,AUTO

      805    16715
      806    16716    3       DCL PTR$ PTR;
      807    16717    3       DCL LEN SBIN;
      808    16718    3       DCL BYTES CHAR( LEN) BASED;
      809    16719
      810    16720    3       PTR$ = ADDR( GLUE.DATA);

  16720  3 001146   200033 236100                    LDQ     SPDU$,,AUTO
         3 001147   000001 036003                    ADLQ    1,DU
         3 001150   200037 756100                    STQ     PTR$,,AUTO

      811    16721    3       IF GLUE.TRNFNC = %K_TDISCONNECT_IND THEN

  16721  3 001151   200033 470500                    LDP0    SPDU$,,AUTO
         3 001152   000000 236100                    LDQ     0,,PR0
         3 001153   000777 376003                    ANQ     511,DU
         3 001154   000031 116003                    CMPQ    25,DU
         3 001155   001162 601000 3                  TNZ     s:16724

      812    16722    3           PTR$ = PINCRW( PTR$, -5);  /*N* adjust ptr for TERM fpt grossly */

  16722  3 001156   200037 236100                    LDQ     PTR$,,AUTO
         3 001157   777773 036003                    ADLQ    -5,DU
         3 001160   200037 756100                    STQ     PTR$,,AUTO
         3 001161   001215 710000 3                  TRA     s:16728

PL6.E3A0      #004=XSS$COMMWAIT File=XSS$COMM.:XSA1TSI                           WED 10/01/97 12:09 Page:178
      813    16723    4       ELSE DO;

      814    16724    4           CALL XSS$BUFPTR( LCTX.SRCX, XSS$CONNECT.CALLING$);

  16724  3 001162   200022 236100                    LDQ     VBLK+2,,AUTO
         3 001163   000006 036003                    ADLQ    6,DU
         3 001164   200043 756100                    STQ     LEN+3,,AUTO
         3 001165   200007 236100                    LDQ     LCTX$,,AUTO
         3 001166   000003 036003                    ADLQ    3,DU
         3 001167   200042 756100                    STQ     LEN+2,,AUTO
         3 001170   200042 630500                    EPPR0   LEN+2,,AUTO
         3 001171   000000 631400 4                  EPPR1   0
         3 001172   000000 701000 xent               TSX1    XSS$BUFPTR
         3 001173   000000 011000                    NOP     0

      815    16725    4           CALL XSS$BUFPTR( LCTX.DSTX, XSS$CONNECT.CALLED$);

  16725  3 001174   200022 236100                    LDQ     VBLK+2,,AUTO
         3 001175   000007 036003                    ADLQ    7,DU
         3 001176   200043 756100                    STQ     LEN+3,,AUTO
         3 001177   200007 236100                    LDQ     LCTX$,,AUTO
         3 001200   000035 036000 4                  ADLQ    29
         3 001201   200042 756100                    STQ     LEN+2,,AUTO
         3 001202   200042 630500                    EPPR0   LEN+2,,AUTO
         3 001203   000000 631400 4                  EPPR1   0
         3 001204   000000 701000 xent               TSX1    XSS$BUFPTR
         3 001205   000000 011000                    NOP     0

      816    16726    4           LCTX.FLAGS.TEXP = PTR$->TCONFPT.TR_FLAGS.EXPEDITED;

  16726  3 001206   200007 470500                    LDP0    LCTX$,,AUTO
         3 001207   200037 471500                    LDP1    PTR$,,AUTO
         3 001210   100004 236100                    LDQ     4,,PR1
         3 001211   000013 736000                    QLS     11
         3 001212   000006 676100                    ERQ     6,,PR0
         3 001213   010000 376007                    ANQ     4096,DL
         3 001214   000006 656100                    ERSQ    6,,PR0
PL6.E3A0      #004=XSS$COMMWAIT File=XSS$COMM.:XSA1TSI                           WED 10/01/97 12:09 Page:179

      817    16727    4           END;

      818    16728    3       CALL XSS$BUFPTR( LCTX.SRCX, UADR$);

  16728  3 001215   200035 630500                    EPPR0   UADR$,,AUTO
         3 001216   200043 450500                    STP0    LEN+3,,AUTO
         3 001217   200007 236100                    LDQ     LCTX$,,AUTO
         3 001220   000003 036003                    ADLQ    3,DU
         3 001221   200042 756100                    STQ     LEN+2,,AUTO
         3 001222   200042 630500                    EPPR0   LEN+2,,AUTO
         3 001223   000000 631400 4                  EPPR1   0
         3 001224   000000 701000 xent               TSX1    XSS$BUFPTR
         3 001225   000000 011000                    NOP     0

      819    16729    3       UADR$->UADR.TSAP = PTR$->TCONFPT.SRC_TSAP;

  16729  3 001226   200037 470500                    LDP0    PTR$,,AUTO
         3 001227   200035 471500                    LDP1    UADR$,,AUTO
         3 001230   000100 100500                    MLR     fill='000'O
         3 001231   000006 000042                    ADSC9   6,,PR0                   cn=0,n=34
         3 001232   100075 000042                    ADSC9   61,,PR1                  cn=0,n=34

      820    16730    3       UADR$->UADR.NSAP = PTR$->TCONFPT.SRC_NSAP;

  16730  3 001233   000100 100500                    MLR     fill='000'O
         3 001234   000030 000026                    ADSC9   24,,PR0                  cn=0,n=22
         3 001235   100106 000026                    ADSC9   70,,PR1                  cn=0,n=22

      821    16731    3       CALL XSS$BUFPTR( LCTX.DSTX, UADR$);

  16731  3 001236   200035 633500                    EPPR3   UADR$,,AUTO
         3 001237   200043 453500                    STP3    LEN+3,,AUTO
         3 001240   200007 236100                    LDQ     LCTX$,,AUTO
         3 001241   000035 036000 4                  ADLQ    29
         3 001242   200042 756100                    STQ     LEN+2,,AUTO
         3 001243   200042 630500                    EPPR0   LEN+2,,AUTO
PL6.E3A0      #004=XSS$COMMWAIT File=XSS$COMM.:XSA1TSI                           WED 10/01/97 12:09 Page:180
         3 001244   000000 631400 4                  EPPR1   0
         3 001245   000000 701000 xent               TSX1    XSS$BUFPTR
         3 001246   000000 011000                    NOP     0

      822    16732    3       UADR$->UADR.TSAP = PTR$->TCONFPT.DST_TSAP;

  16732  3 001247   200037 470500                    LDP0    PTR$,,AUTO
         3 001250   200035 471500                    LDP1    UADR$,,AUTO
         3 001251   000100 100500                    MLR     fill='000'O
         3 001252   000017 000042                    ADSC9   15,,PR0                  cn=0,n=34
         3 001253   100075 000042                    ADSC9   61,,PR1                  cn=0,n=34

      823    16733    3       UADR$->UADR.NSAP = PTR$->TCONFPT.DST_NSAP;

  16733  3 001254   000100 100500                    MLR     fill='000'O
         3 001255   000035 400026                    ADSC9   29,,PR0                  cn=2,n=22
         3 001256   100106 000026                    ADSC9   70,,PR1                  cn=0,n=22

      824    16734    3       RETURN;

  16734  3 001257   200036 221300                    LDX1  ! UADR$+1,,AUTO
         3 001260   000001 702211                    TSX2  ! 1,X1

      825    16735
      826    16736    3       END ADDRSETUP;
      827    16737        %EJECT;
PL6.E3A0      #004=XSS$COMMWAIT File=XSS$COMM.:XSA1TSI                           WED 10/01/97 12:09 Page:181
      828    16738        /*I*    NAME:   QUICKDISC
      829    16739                DESCRIPTION:
      830    16740                    This internal routine deals with a disconnection reported by
      831    16741                    means other than the Session protocol.  This can only happen
      832    16742                    when a 'fast path' (comgroup-direct) link is involved.
      833    16743                    QUICKDISC is called in the following situations:
      834    16744                        E$LDSC on client no-wait read of server CG,
      835    16745                        CG_DCLS administrative message read by server.
      836    16746        */
      837    16747    2   QUICKDISC: ENTRY;

  16747  3 001261   200016 741300       QUICKDISC    STX1  ! SECONDS+2,,AUTO

      838    16748
      839    16749    2       VBLK = XSS_VBLK;

  16749  3 001262   000100 100400                    MLR     fill='000'O
         3 001263   000000 000040 xsym               ADSC9   XSS_VBLK                 cn=0,n=32
         3 001264   200020 000040                    ADSC9   VBLK,,AUTO               cn=0,n=32

      840    16750    2       VBLK.PDU.SIZE = 0;

  16750  3 001265   200025 450100                    STZ     VBLK+5,,AUTO

      841    16751    2       VBLK.PDU.PTR$ = ADDR( NIL);

  16751  3 001266   000016 236000 4                  LDQ     14
         3 001267   200024 756100                    STQ     VBLK+4,,AUTO

      842    16752    2       VBLK.EVENT = %XSS_SEV_TDISIND;

  16752  3 001270   000065 236007                    LDQ     53,DL
         3 001271   200021 552104                    STBQ    VBLK+1,'04'O,AUTO

      843    16753    3       DO SCID = 1 TO XSS_MAX_LCID;

  16753  3 001272   000001 235007                    LDA     1,DL
PL6.E3A0      #004=XSS$COMMWAIT File=XSS$COMM.:XSA1TSI                           WED 10/01/97 12:09 Page:182
         3 001273   200032 755100                    STA     SCID,,AUTO
         3 001274   001357 710000 3                  TRA     NXTSCID+1

      844    16754    3           CALL XSS$CTXPTR( SCID, LCTX$) ALTRET( NXTSCID);

  16754  3 001275   200007 630500                    EPPR0   LCTX$,,AUTO
         3 001276   200043 450500                    STP0    LEN+3,,AUTO
         3 001277   200032 631500                    EPPR1   SCID,,AUTO
         3 001300   200042 451500                    STP1    LEN+2,,AUTO
         3 001301   200042 630500                    EPPR0   LEN+2,,AUTO
         3 001302   000000 631400 4                  EPPR1   0
         3 001303   000000 701000 xent               TSX1    XSS$CTXPTR
         3 001304   001356 702000 3                  TSX2    NXTSCID

      845    16755    3           IF LCTX.STATE > %XSS_SST_01 AND

  16755  3 001305   200007 470500                    LDP0    LCTX$,,AUTO
         3 001306   000000 236100                    LDQ     0,,PR0
         3 001307   777000 376003                    ANQ     -512,DU
         3 001310   002000 116003                    CMPQ    1024,DU
         3 001311   001356 602000 3                  TNC     NXTSCID
         3 001312   200006 471500                    LDP1    CTX$,,AUTO
         3 001313   040100 106500                    CMPC    fill='040'O
         3 001314   000027 000010                    ADSC9   23,,PR0                  cn=0,n=8
         3 001315   100041 000010                    ADSC9   33,,PR1                  cn=0,n=8
         3 001316   001356 601000 3                  TNZ     NXTSCID

      846    16756    4                   LCTX.STATION = SCTX.LATCH.STATION THEN DO;

      847    16757    4               VBLK.CTX$ = LCTX$;

  16757  3 001317   200007 236100                    LDQ     LCTX$,,AUTO
         3 001320   200020 756100                    STQ     VBLK,,AUTO

      848    16758    4               CALL XSS$BUFPTR( CCB$( LCTX.SCID)->XSC$CCB.SFPTX, VBLK.FPT$);

  16758  3 001321   000015 220100                    LDX0    13,,PR0
PL6.E3A0      #004=XSS$COMMWAIT File=XSS$COMM.:XSA1TSI                           WED 10/01/97 12:09 Page:183
         3 001322   000777 360003                    ANX0    511,DU
         3 001323   000000 473400 xsym               LDP3    XSS_CCB$$
         3 001324   300000 474510                    LDP4    0,X0,PR3
         3 001325   200022 635500                    EPPR5   VBLK+2,,AUTO
         3 001326   200043 455500                    STP5    LEN+3,,AUTO
         3 001327   200044 454500                    STP4    LEN+4,,AUTO
         3 001330   200044 236100                    LDQ     LEN+4,,AUTO
         3 001331   000034 036000 4                  ADLQ    28
         3 001332   200042 756100                    STQ     LEN+2,,AUTO
         3 001333   200042 630500                    EPPR0   LEN+2,,AUTO
         3 001334   000000 631400 4                  EPPR1   0
         3 001335   000000 701000 xent               TSX1    XSS$BUFPTR
         3 001336   000000 011000                    NOP     0

      849    16759    4               XSS$GENERIC.SCID = LCTX.SCID;

  16759  3 001337   200007 470500                    LDP0    LCTX$,,AUTO
         3 001340   200022 471500                    LDP1    VBLK+2,,AUTO
         3 001341   000015 236100                    LDQ     13,,PR0
         3 001342   100000 552120                    STBQ    0,'20'O,PR1

      850    16760    4               CALL XSS$MACHINE( VBLK)

  16760  3 001343   200020 630500                    EPPR0   VBLK,,AUTO
         3 001344   200042 450500                    STP0    LEN+2,,AUTO
         3 001345   200042 630500                    EPPR0   LEN+2,,AUTO
         3 001346   000011 631400 4                  EPPR1   9
         3 001347   000000 701000 xent               TSX1    XSS$MACHINE
         3 001350   001352 702000 3                  TSX2    s:16764
         3 001351   001352 710000 3                  TRA     s:16764

      851    16761    5               WHENALTRETURN DO;

      852    16762                        /* Connection has aborted.  O.k. with me. */
      853    16763    5                   END;

      854    16764    4               COUNTER = COUNTER + 1;  /* because SS-user handler was entered */
PL6.E3A0      #004=XSS$COMMWAIT File=XSS$COMM.:XSA1TSI                           WED 10/01/97 12:09 Page:184

  16764  3 001352   200005 054100                    AOS     COUNTER,,AUTO

      855    16765    4               LCTX.ABORTING = %TRUE;

  16765  3 001353   200007 470500                    LDP0    LCTX$,,AUTO
         3 001354   001000 236007                    LDQ     512,DL
         3 001355   000013 256100                    ORSQ    11,,PR0

      856    16766    4               END;

      857    16767    3   NXTSCID:
      858    16768    3           END;

  16768  3 001356   200032 054100       NXTSCID      AOS     SCID,,AUTO
         3 001357   200032 236100                    LDQ     SCID,,AUTO
         3 001360   000000 116000 xsym               CMPQ    XSS_MAX_LCID
         3 001361   001275 604400 3                  TMOZ    s:16754

      859    16769    2       RETURN;

  16769  3 001362   200016 221300                    LDX1  ! SECONDS+2,,AUTO
         3 001363   000001 702211                    TSX2  ! 1,X1
         3 001364   001367 710000 3                  TRA     s:16781

      860    16770
      861    16771    2       END HANDLEIT;
      862    16772        %EJECT;
PL6.E3A0      #004=XSS$COMMWAIT File=XSS$COMM.:XSA1TSI                           WED 10/01/97 12:09 Page:185
      863    16773        /*F*
      864    16774                NAME:   XSS$COMMWAITX
      865    16775                PURPOSE:
      866    16776                    This routine issues the first no-wait read to an AU or NC DCB.
      867    16777                    Subsequent reads are issued by XSS$COMMWAIT above.
      868    16778        */
      869    16779    1   XSS$COMMWAITX: ENTRY( PARM1) ALTRET;

  16779  3 001365   000000 700200 xent  XSS$COMMWAI* TSX0  ! X66_AUTO_1
         3 001366   000050 000001                    ZERO    40,1

      870    16780
      871    16781    1       CCB$ = ADDR( PARM1);

  16781  3 001367   200003 236100                    LDQ     @PARM1,,AUTO
         3 001370   200007 756100                    STQ     LCTX$,,AUTO

      872    16782            /* get ptrs to context and read buffer */
      873    16783    1       CALL XSS$BUFPTR( CCB.SFPTX, FPT$);

  16783  3 001371   200012 630500                    EPPR0   PTR$,,AUTO
         3 001372   200043 450500                    STP0    LEN+3,,AUTO
         3 001373   000034 036000 4                  ADLQ    28
         3 001374   200042 756100                    STQ     LEN+2,,AUTO
         3 001375   200042 630500                    EPPR0   LEN+2,,AUTO
         3 001376   000000 631400 4                  EPPR1   0
         3 001377   000000 701000 xent               TSX1    XSS$BUFPTR
         3 001400   000000 011000                    NOP     0

      874    16784    1       SCID = CCB.LCID;

  16784  3 001401   200007 470500                    LDP0    LCTX$,,AUTO
         3 001402   000000 236100                    LDQ     0,,PR0
         3 001403   000777 376007                    ANQ     511,DL
         3 001404   200013 756100                    STQ     SCID,,AUTO

      875    16785    1       CALL XSS$EVLOG( 'KX', SCID);
PL6.E3A0      #004=XSS$COMMWAIT File=XSS$COMM.:XSA1TSI                           WED 10/01/97 12:09 Page:186

  16785  3 001405   200013 631500                    EPPR1   SCID,,AUTO
         3 001406   200043 451500                    STP1    LEN+3,,AUTO
         3 001407   000040 236000 4                  LDQ     32
         3 001410   200042 756100                    STQ     LEN+2,,AUTO
         3 001411   200042 630500                    EPPR0   LEN+2,,AUTO
         3 001412   000000 631400 4                  EPPR1   0
         3 001413   000000 701000 xent               TSX1    XSS$EVLOG
         3 001414   000000 011000                    NOP     0

      876    16786    1       CALL XSS$CTXPTR( SCID, CTX$);

  16786  3 001415   200006 630500                    EPPR0   CTX$,,AUTO
         3 001416   200043 450500                    STP0    LEN+3,,AUTO
         3 001417   200013 631500                    EPPR1   SCID,,AUTO
         3 001420   200042 451500                    STP1    LEN+2,,AUTO
         3 001421   200042 630500                    EPPR0   LEN+2,,AUTO
         3 001422   000000 631400 4                  EPPR1   0
         3 001423   000000 701000 xent               TSX1    XSS$CTXPTR
         3 001424   000000 011000                    NOP     0

      877    16787    1   FIRSTREAD:
      878    16788    1       CALL XSS$BUFPTR( SCTX.BUFX, BUF$);

  16788  3 001425   200004 630500       FIRSTREAD    EPPR0   BUF$,,AUTO
         3 001426   200043 450500                    STP0    LEN+3,,AUTO
         3 001427   200006 236100                    LDQ     CTX$,,AUTO
         3 001430   000033 036003                    ADLQ    27,DU
         3 001431   200042 756100                    STQ     LEN+2,,AUTO
         3 001432   200042 630500                    EPPR0   LEN+2,,AUTO
         3 001433   000000 631400 4                  EPPR1   0
         3 001434   000000 701000 xent               TSX1    XSS$BUFPTR
         3 001435   000000 011000                    NOP     0

      879    16789            /* set up and then issue no-wait read */
      880    16790    2       DO CASE( SCTX.MODE);

PL6.E3A0      #004=XSS$COMMWAIT File=XSS$COMM.:XSA1TSI                           WED 10/01/97 12:09 Page:187
  16790  3 001436   200006 470500                    LDP0    CTX$,,AUTO
         3 001437   000013 720100                    LXL0    11,,PR0
         3 001440   000777 360003                    ANX0    511,DU
         3 001441   000003 100003                    CMPX0   3,DU
         3 001442   001444 602010 3                  TNC     s:16790+6,X0
         3 001443   001535 710000 3                  TRA     s:16810
         3 001444   001535 710000 3                  TRA     s:16810
         3 001445   001447 710000 3                  TRA     s:16792
         3 001446   001502 710000 3                  TRA     s:16802

      881    16791    2           CASE( %CLIENT);

      882    16792    2               IF XSS_DEBUG ~= 0 THEN

  16792  3 001447   000000 235000 xsym               LDA     XSS_DEBUG
         3 001450   001454 600000 3                  TZE     s:16795

      883    16793    2                   NCRD.STATION_ = VECTOR( XSS_AUSTA);

  16793  3 001451   000022 237000 4                  LDAQ    18
         3 001452   000040 757000 1                  STAQ    NCRD+6
         3 001453   001456 710000 3                  TRA     s:16796

      884    16794    2               ELSE
      885    16795    2                   NCRD.STATION_ = VECTOR( NIL);

  16795  3 001454   000020 237000 4                  LDAQ    16
         3 001455   000040 757000 1                  STAQ    NCRD+6

      886    16796    2               NCRD.BUF_ = VECTOR( RDBUFFER);

  16796  3 001456   000024 235000 4                  LDA     20
         3 001457   200004 236100                    LDQ     BUF$,,AUTO
         3 001460   000036 757000 1                  STAQ    NCRD+4

      887    16797    2               NCRD.V.EVENT# = SCTX.EVENT#;

PL6.E3A0      #004=XSS$COMMWAIT File=XSS$COMM.:XSA1TSI                           WED 10/01/97 12:09 Page:188
  16797  3 001461   000034 235100                    LDA     28,,PR0
         3 001462   000043 755000 1                  STA     NCRD+9

      888    16798    2               NCRD.V.DCB# = SCTX.DCB#;

  16798  3 001463   000033 720100                    LXL0    27,,PR0
         3 001464   000042 740000 1                  STX0    NCRD+8

      889    16799    2               CALL XSS$EVLOG( 'NW', SCID);

  16799  3 001465   200013 631500                    EPPR1   SCID,,AUTO
         3 001466   200043 451500                    STP1    LEN+3,,AUTO
         3 001467   000025 236000 4                  LDQ     21
         3 001470   200042 756100                    STQ     LEN+2,,AUTO
         3 001471   200042 630500                    EPPR0   LEN+2,,AUTO
         3 001472   000000 631400 4                  EPPR1   0
         3 001473   000000 701000 xent               TSX1    XSS$EVLOG
         3 001474   000000 011000                    NOP     0

      890    16800    2               CALL M$READ( NCRD) ALTRET( RDERR);

  16800  3 001475   000032 630400 1                  EPPR0   NCRD
         3 001476   440000 713400                    CLIMB   alt,read
         3 001477   401400 401760                    pmme    nvectors=4
         3 001500   000473 702000 3                  TSX2    RDERR
         3 001501   001535 710000 3                  TRA     s:16810

      891    16801    2           CASE( %SERVER);

      892    16802    2               AURD.BUF_ = VECTOR( RDBUFFER);

  16802  3 001502   000024 235000 4                  LDA     20
         3 001503   200004 236100                    LDQ     BUF$,,AUTO
         3 001504   000020 757000 1                  STAQ    AURD+4

      893    16803    2               AURD.V.EVENT# = SCTX.EVENT#;

PL6.E3A0      #004=XSS$COMMWAIT File=XSS$COMM.:XSA1TSI                           WED 10/01/97 12:09 Page:189
  16803  3 001505   000034 235100                    LDA     28,,PR0
         3 001506   000025 755000 1                  STA     AURD+9

      894    16804    2               AURD.V.DCB# = SCTX.DCB#;

  16804  3 001507   000033 720100                    LXL0    27,,PR0
         3 001510   000024 740000 1                  STX0    AURD+8

      895    16805    2               CALL XSS$EVLOG( 'NW', SCID);

  16805  3 001511   200013 631500                    EPPR1   SCID,,AUTO
         3 001512   200043 451500                    STP1    LEN+3,,AUTO
         3 001513   000025 236000 4                  LDQ     21
         3 001514   200042 756100                    STQ     LEN+2,,AUTO
         3 001515   200042 630500                    EPPR0   LEN+2,,AUTO
         3 001516   000000 631400 4                  EPPR1   0
         3 001517   000000 701000 xent               TSX1    XSS$EVLOG
         3 001520   000000 011000                    NOP     0

      896    16806    2               IF DCBADDR( SCTX.DCB#)->F$DCB.FCN.CNT(0) = 0 THEN

  16806  3 001521   000026 470400 4                  LDP0    22
         3 001522   000000 471500                    LDP1    0,,PR0
         3 001523   200006 473500                    LDP3    CTX$,,AUTO
         3 001524   300033 720100                    LXL0    27,,PR3
         3 001525   100000 474510                    LDP4    0,X0,PR1
         3 001526   400074 236100                    LDQ     60,,PR4
         3 001527   377000 316003                    CANQ    130560,DU
         3 001530   001535 601000 3                  TNZ     s:16810

      897    16807    2                   CALL M$READ( AURD) ALTRET( RDERR);

  16807  3 001531   000014 630400 1                  EPPR0   AURD
         3 001532   440000 713400                    CLIMB   alt,read
         3 001533   401400 401760                    pmme    nvectors=4
         3 001534   000473 702000 3                  TSX2    RDERR

PL6.E3A0      #004=XSS$COMMWAIT File=XSS$COMM.:XSA1TSI                           WED 10/01/97 12:09 Page:190
      898    16808    2           END;

      899    16809            /* see if we got an error on the read */
      900    16810    1       IF SCTX.LATCH.PRESENT THEN

  16810  3 001535   200006 470500                    LDP0    CTX$,,AUTO
         3 001536   000035 234100                    SZN     29,,PR0
         3 001537   001545 605000 3                  TPL     s:16815

      901    16811    2           IF SCTX.LATCH.ERRCODE THEN DO;

  16811  3 001540   000040 235100                    LDA     32,,PR0
         3 001541   001545 600000 3                  TZE     s:16815

      902    16812    2               ERRCODE = SCTX.LATCH.ERRCODE;

  16812  3 001542   000040 236100                    LDQ     32,,PR0
         3 001543   000056 756000 1                  STQ     ERRCODE

      903    16813    2               GOTO BAILOUT;

  16813  3 001544   000477 710000 3                  TRA     BAILOUT

      904    16814    2               END;
      905    16815    1       RETURN;

  16815  3 001545   000000 702200 xent               TSX2  ! X66_ARET

      906    16816
      907    16817    1   XSS$COMMWAITZ: ENTRY( PARM1) ALTRET;

  16817  3 001546   000000 700200 xent  XSS$COMMWAI* TSX0  ! X66_AUTO_1
         3 001547   000050 000001                    ZERO    40,1

      908    16818
      909    16819    1       CTX$ = ADDR( PARM1);

PL6.E3A0      #004=XSS$COMMWAIT File=XSS$COMM.:XSA1TSI                           WED 10/01/97 12:09 Page:191
  16819  3 001550   200003 236100                    LDQ     @PARM1,,AUTO
         3 001551   200006 756100                    STQ     CTX$,,AUTO

      910    16820    1       SCID = SCTX.SCID;

  16820  3 001552   200006 470500                    LDP0    CTX$,,AUTO
         3 001553   000015 236100                    LDQ     13,,PR0
         3 001554   000022 772000                    QRL     18
         3 001555   000777 376007                    ANQ     511,DL
         3 001556   200013 756100                    STQ     SCID,,AUTO

      911    16821    1       CALL XSS$EVLOG( 'KZ', SCID);

  16821  3 001557   200013 631500                    EPPR1   SCID,,AUTO
         3 001560   200043 451500                    STP1    LEN+3,,AUTO
         3 001561   000041 236000 4                  LDQ     33
         3 001562   200042 756100                    STQ     LEN+2,,AUTO
         3 001563   200042 630500                    EPPR0   LEN+2,,AUTO
         3 001564   000000 631400 4                  EPPR1   0
         3 001565   000000 701000 xent               TSX1    XSS$EVLOG
         3 001566   000000 011000                    NOP     0

      912    16822    1       SCTX.NEEDAREAD = %FALSE;

  16822  3 001567   200006 470500                    LDP0    CTX$,,AUTO
         3 001570   000042 236000 4                  LDQ     34
         3 001571   000013 356100                    ANSQ    11,,PR0

      913    16823    1       GOTO FIRSTREAD;

  16823  3 001572   001425 710000 3                  TRA     FIRSTREAD

      914    16824        %EJECT;
PL6.E3A0      #004=XSS$COMMWAIT File=XSS$COMM.:XSA1TSI                           WED 10/01/97 12:09 Page:192
      915    16825        /*F*
      916    16826                NAME:   XSS$COMMPEND
      917    16827                PURPOSE:
      918    16828                    This routine checks to see if there is an incoming message for
      919    16829                    a specific connection, and if so processes it.
      920    16830                DESCRIPTION:
      921    16831                    This routine is called from XSS$SESSION in case a message has
      922    16832                    arrived for a particular connection since the application last
      923    16833                    polled for incoming messages.  This helps make the client/server
      924    16834                    interaction more predictable (i.e., helps prevent state errors).
      925    16835
      926    16836                    The event queue is searched for the message and it is moved to
      927    16837                    the front of the queue.  Then we jump to JOINWAIT to handle it.
      928    16838        */
      929    16839    1   XSS$COMMPEND: ENTRY( PARM1) ALTRET;

  16839  3 001573   000000 700200 xent  XSS$COMMPEND TSX0  ! X66_AUTO_1
         3 001574   000050 000001                    ZERO    40,1

      930    16840
      931    16841    1       CALL XSS$EVLOG( 'KP', PARM1);

  16841  3 001575   200003 236100                    LDQ     @PARM1,,AUTO
         3 001576   000043 235000 4                  LDA     35
         3 001577   200042 757100                    STAQ    LEN+2,,AUTO
         3 001600   200042 630500                    EPPR0   LEN+2,,AUTO
         3 001601   000000 631400 4                  EPPR1   0
         3 001602   000000 701000 xent               TSX1    XSS$EVLOG
         3 001603   000000 011000                    NOP     0

      932    16842    2       DO INHIBIT;

      933    16843    2           SCID = XSS_EVHDX;

  16843  3 001604   000101 235200 1                  LDA   ! XSS_EVHDX
         3 001605   000022 771200                    ARL   ! 18
         3 001606   200013 755300                    STA   ! SCID,,AUTO
PL6.E3A0      #004=XSS$COMMWAIT File=XSS$COMM.:XSA1TSI                           WED 10/01/97 12:09 Page:193

      934    16844    2           IF SCID = PARM1 THEN

  16844  3 001607   200003 470700                    LDP0  ! @PARM1,,AUTO
         3 001610   200013 236300                    LDQ   ! SCID,,AUTO
         3 001611   000000 116300                    CMPQ  ! 0,,PR0
         3 001612   001661 600200 3                  TZE   ! COMMON

      935    16845                    /* first item in event queue is the one we want */
      936    16846    2               GOTO COMMON;
      937    16847    2   LOOP:
      938    16848    2           CALL XSS$CTXPTR( SCID, CTX$);  /* this routine is INHIBITED too */

  16848  3 001613   200006 630700       LOOP         EPPR0 ! CTX$,,AUTO
         3 001614   200043 450700                    STP0  ! LEN+3,,AUTO
         3 001615   200013 631700                    EPPR1 ! SCID,,AUTO
         3 001616   200042 451700                    STP1  ! LEN+2,,AUTO
         3 001617   200042 630700                    EPPR0 ! LEN+2,,AUTO
         3 001620   000000 631600 4                  EPPR1 ! 0
         3 001621   000000 701200 xent               TSX1  ! XSS$CTXPTR
         3 001622   000000 011200                    NOP   ! 0

      939    16849    3           IF SCTX.LATCH.LNKX = PARM1 THEN DO;

  16849  3 001623   200003 470700                    LDP0  ! @PARM1,,AUTO
         3 001624   200006 471700                    LDP1  ! CTX$,,AUTO
         3 001625   100035 236300                    LDQ   ! 29,,PR1
         3 001626   777777 376207                    ANQ   ! -1,DL
         3 001627   000000 116300                    CMPQ  ! 0,,PR0
         3 001630   001663 601200 3                  TNZ   ! s:16864

      940    16850                    /* this item in event queue points to the one we want */
      941    16851                    /* Move wanted one to head of event queue */
      942    16852    3               CALL XSS$CTXPTR( PARM1, LCTX$);

  16852  3 001631   200007 633700                    EPPR3 ! LCTX$,,AUTO
         3 001632   200043 453700                    STP3  ! LEN+3,,AUTO
PL6.E3A0      #004=XSS$COMMWAIT File=XSS$COMM.:XSA1TSI                           WED 10/01/97 12:09 Page:194
         3 001633   200003 236300                    LDQ   ! @PARM1,,AUTO
         3 001634   200042 756300                    STQ   ! LEN+2,,AUTO
         3 001635   200042 630700                    EPPR0 ! LEN+2,,AUTO
         3 001636   000000 631600 4                  EPPR1 ! 0
         3 001637   000000 701200 xent               TSX1  ! XSS$CTXPTR
         3 001640   000000 011200                    NOP   ! 0

      943    16853    3               SCTX.LATCH.LNKX = LCTX.LATCH.LNKX;

  16853  3 001641   200007 470700                    LDP0  ! LCTX$,,AUTO
         3 001642   000035 720300                    LXL0  ! 29,,PR0
         3 001643   200006 471700                    LDP1  ! CTX$,,AUTO
         3 001644   100035 440300                    SXL0  ! 29,,PR1

      944    16854    3               LCTX.LATCH.LNKX = XSS_EVHDX;

  16854  3 001645   000101 221200 1                  LDX1  ! XSS_EVHDX
         3 001646   000035 441300                    SXL1  ! 29,,PR0

      945    16855    3               IF XSS_EVTLX = PARM1 THEN

  16855  3 001647   200003 473700                    LDP3  ! @PARM1,,AUTO
         3 001650   000102 236200 1                  LDQ   ! XSS_EVTLX
         3 001651   000022 772200                    QRL   ! 18
         3 001652   300000 116300                    CMPQ  ! 0,,PR3
         3 001653   001657 601200 3                  TNZ   ! s:16857

      946    16856    3                   XSS_EVTLX = SCTX.SCID;

  16856  3 001654   100015 220300                    LDX0  ! 13,,PR1
         3 001655   000777 360203                    ANX0  ! 511,DU
         3 001656   000102 740200 1                  STX0  ! XSS_EVTLX

      947    16857    3               XSS_EVHDX = PARM1;

  16857  3 001657   300000 720300                    LXL0  ! 0,,PR3
         3 001660   000101 740200 1                  STX0  ! XSS_EVHDX
PL6.E3A0      #004=XSS$COMMWAIT File=XSS$COMM.:XSA1TSI                           WED 10/01/97 12:09 Page:195

      948    16858    3   COMMON:
      949    16859                    /* make sure we don't do an M$WAIT */
      950    16860    3               SECONDS = 0;

  16860  3 001661   200014 450300       COMMON       STZ   ! SECONDS,,AUTO

      951    16861                    /* Now go handle that message */
      952    16862    3               GOTO JOINWAIT;

  16862  3 001662   000015 710200 3                  TRA   ! JOINWAIT

      953    16863    3               END;
      954    16864    2           IF SCTX.LATCH.LNKX = %NULL THEN

  16864  3 001663   100035 720300                    LXL0  ! 29,,PR1
         3 001664   777777 100203                    CMPX0 ! -1,DU
         3 001665   001672 601200 3                  TNZ   ! s:16868

      955    16865                    /* Reached end of queue.  Something's wrong here */
      956    16866    2               CALL XSS$SCREECH( XSS_F$EVNTQUE);

  16866  3 001666   000044 630600 4                  EPPR0 ! 36
         3 001667   000011 631600 4                  EPPR1 ! 9
         3 001670   000000 701200 xent               TSX1  ! XSS$SCREECH
         3 001671   000000 011200                    NOP   ! 0

      957    16867                /* Otherwise, check next item in queue */
      958    16868    2           SCID = SCTX.LATCH.LNKX;

  16868  3 001672   200006 470700                    LDP0  ! CTX$,,AUTO
         3 001673   000035 236300                    LDQ   ! 29,,PR0
         3 001674   777777 376207                    ANQ   ! -1,DL
         3 001675   200013 756300                    STQ   ! SCID,,AUTO

      959    16869    2           GOTO LOOP;

PL6.E3A0      #004=XSS$COMMWAIT File=XSS$COMM.:XSA1TSI                           WED 10/01/97 12:09 Page:196
  16869  3 001676   001613 710200 3                  TRA   ! LOOP

      960    16870    2           END;

  16870  3 001677   001702 710000 3                  TRA     s:16880

      961    16871            /* ..can't get here.. */
      962    16872        %EJECT;
PL6.E3A0      #004=XSS$COMMWAIT File=XSS$COMM.:XSA1TSI                           WED 10/01/97 12:09 Page:197
      963    16873        /*F*
      964    16874                NAME:   XSP$COMMWAIT
      965    16875                PURPOSE:
      966    16876                    Provides a COMMWAIT ENTRY for Presentation applications.
      967    16877        */
      968    16878    1   XSP$COMMWAIT: ENTRY( PARM1) ALTRET;

  16878  3 001700   000000 700200 xent  XSP$COMMWAIT TSX0  ! X66_AUTO_1
         3 001701   000050 000001                    ZERO    40,1

      969    16879
      970    16880    1       GOTO COMMWAIT;

  16880  3 001702   000002 710000 3                  TRA     COMMWAIT

      971    16881
      972    16882        /*F*
      973    16883                NAME:   XSC$COMMWAIT
      974    16884                PURPOSE:
      975    16885                    Provides a COMMWAIT ENTRY for ACSE applications.
      976    16886        */
      977    16887    1   XSC$COMMWAIT: ENTRY( PARM1) ALTRET;

  16887  3 001703   000000 700200 xent  XSC$COMMWAIT TSX0  ! X66_AUTO_1
         3 001704   000050 000001                    ZERO    40,1

      978    16888
      979    16889    1       GOTO COMMWAIT;

  16889  3 001705   000002 710000 3                  TRA     COMMWAIT

(unnamed)
 Sect OctLoc
   1     000   000001 777640   000006 006000   000000 177640   000000 006014    ................
   1     004   000000 177640   000000 006014                                    ........

VLP_SUA
PL6.E3A0      #004=XSS$COMMWAIT File=XSS$COMM.:XSA1TSI                           WED 10/01/97 12:09 Page:198
 Sect OctLoc
   1     006   302323 634175   001160 107760                                    ...}.pG.

FPT_EXTEND
 Sect OctLoc
   1     010   000001 777640   000012 006000   000000 000000   000000 000000    ................

AURD
 Sect OctLoc
   1     014   000005 777640   000024 006000   000000 177640   000000 006014    ................
   1     020   000000 177640   000000 006014   000000 177640   000000 006014    ................
   1     024   000000 000000   000000 000000   000000 000000   020000 000000    ................
   1     030   000000 000000   000000 000000                                    ........

NCRD
 Sect OctLoc
   1     032   000005 777640   000042 006000   000000 177640   000000 006014    ....."..........
   1     036   000000 177640   000000 006014   000000 177640   000000 006014    ................
   1     042   000000 000000   000000 000000   000000 000000   020000 000000    ................
   1     046   000000 000000   000000 000000                                    ........

FPT_WAIT
 Sect OctLoc
   1     050   000001 777640   000054 006000   000000 777640   000077 006000    .....,.......?..
   1     054   000000 000012   000000 000001                                    ........

ERRCODE
 Sect OctLoc
   1     056   000000 000000                                                    ....

XSS_AUSTA
 Sect OctLoc
   1     057   123105 122126   105122 040040   040040 040040   040040 040040    SERVER
   1     063   001000 000000   000000 000000   000000 000000   000000 000000    ................

(unnamed)
 Sect OctLoc
PL6.E3A0      #004=XSS$COMMWAIT File=XSS$COMM.:XSA1TSI                           WED 10/01/97 12:09 Page:199
   1     067   040040 040040   040040 040040   040040 040040   040040 040040
   1     073   001000 000000   000000 000000   000000 000000   000000 000000    ................

XSS_EVHDX
 Sect OctLoc
   1     101   777777 ******                                                    ....

XSS_EVTLX
 Sect OctLoc
   1     102   777777 ******                                                    ....

XSS_F$CGEVNTOTHER
 Sect OctLoc
   2     000   302323 001237                                                    ....

(unnamed)
 Sect OctLoc
   2     001   302323 001247                                                    ....

XSS_F$CGWARNMEM
 Sect OctLoc
   2     002   302323 001257                                                    ....

XSS_F$CGWARNOTHER
 Sect OctLoc
   2     003   302323 001267                                                    ....

XSS_F$DECODE
 Sect OctLoc
   2     004   302323 001317                                                    ....

XSS_F$EVNTQUE
 Sect OctLoc
   2     005   302323 001347                                                    ....

AUTITLE
 Sect OctLoc
PL6.E3A0      #004=XSS$COMMWAIT File=XSS$COMM.:XSA1TSI                           WED 10/01/97 12:09 Page:200
   2     006   050130 123123   044124 122105   103126 051040   101125 040162    (XSS$TRECV) AU r
   2     012   143166 144***                                                    cvd.

(unnamed)
 Sect OctLoc
   2     014   000004 577640   000006 006000                                    ........

NCTITLE
 Sect OctLoc
   2     016   050130 123123   044124 122105   103126 051040   116103 040162    (XSS$TRECV) NC r
   2     022   143166 144***                                                    cvd.

(unnamed)
 Sect OctLoc
   2     024   000004 577640   000016 006000   113127 040040   101125 040040    ........KW  AU
   2     030   105122 040040   116127 040040   127124 040040   121105 040040    ER  NW  WT  QE
   2     034   113130 040040   113132 040040   113120 040040                    KX  KZ  KP

(unnamed)
 Sect OctLoc
   4     000   000002 000000   000026 006000   377777 777777   000003 000000    ................
   4     004   000000 000001   000024 006000   000004 006000   000014 006000    ................
   4     010   000027 006000   000001 000000   000002 006000   000003 006000    ................
   4     014   000000 006000   000030 006000   000000 006014   000056 006000    ................
   4     020   000000 177640   000000 006014   000007 777640   000057 006000    ............./..
   4     024   000775 777640   000031 006000   000000 006003   000000 000000    ................
   4     030   000032 006000   000054 006000   777777 777770   000033 006000    .....,..........
   4     034   000005 400000   000003 400000   777777 737777   000004 006000    ................
   4     040   000034 006000   000035 006000   777777 773777   000036 006000    ................
   4     044   000005 006000                                                    ....
      980    16890
      981    16891    1       END XSS$COMMWAIT;
      982    16892        %EOD;

PL6.E3A0      #004=XSS$COMMWAIT File=XSS$COMM.:XSA1TSI                           WED 10/01/97 12:09 Page:201
--  Include file information  --

   XSS_SESSION_M.:XSA1TOU  is referenced.
   K_INTERFACE_M.:E05OU  is referenced.
   XSC_PERR_C.:XSA1TOU  is referenced.
   XSS_INTERNAL_M.:XSA1TOU  is referenced.
   XSS_INTERNAL_E.:XSA1TOU  is referenced.
   XSC_COMMON_M.:XSA1TOU  is referenced.
   K_ADDRESS_M.:LIB_E05  is referenced.
   CP_6_C.:LIB_E05  is referenced.
   CP_6.:LIB_E05  cannot be made into a system file and is referenced.
   B_ERRORS_C.:LIB_E05  is referenced.
   XSS_SESSION_E.:XSA1TOU  is referenced.
      No diagnostics issued in procedure XSS$COMMWAIT.
PL6.E3A0      #004=XSS$COMMWAIT File=XSS$COMM.:XSA1TSI                           WED 10/01/97 12:09 Page:202

 **** Variables and constants ****

  ****  Section 001  Data  XSS$COMMWAIT

  ****  Scalars and arrays  ****
OctLoc.c.b A Datatyp(siz) R M Lvl/name                 OctLoc.c.b A Datatyp(siz) R M Lvl/name

    14-0-0/d STRC(504)   r     1 AURD                      56-0-0/w STRC        r     1 ERRCODE
    10-0-0/d STRC(144)   r     1 FPT_EXTEND                50-0-0/d STRC(216)   r     1 FPT_WAIT
    32-0-0/d STRC(504)   r     1 NCRD                      77-0-0/w SBIN        r     1 UETIME
     6-0-0/d STRC(72)    r     1 VLP_SUA                   57-0-0/w STRC(288)   r     1 XSS_AUSTA
   100-0-0/b BIT         r     1 XSS_EVENTED              101-0-0/h UBIN(18)    r     1 XSS_EVHDX
   102-0-0/h UBIN(18)    r     1 XSS_EVTLX

  ****  Section 002 RoData XSS$COMMWAIT

  ****  Scalars and arrays  ****
OctLoc.c.b A Datatyp(siz) R M Lvl/name                 OctLoc.c.b A Datatyp(siz) R M Lvl/name

     6-0-0/c CHAR(19)    r     1 AUTITLE                   14-0-0/d VECT        r     1 AUTITLE_
    16-0-0/c CHAR(19)    r     1 NCTITLE                   24-0-0/d VECT        r     1 NCTITLE_
     0-0-0/w STRC        r     1 XSS_F$CGEVNTOTHER          2-0-0/w STRC        r     1 XSS_F$CGWARNMEM
     3-0-0/w STRC        r     1 XSS_F$CGWARNOTHER          4-0-0/w STRC        r     1 XSS_F$DECODE
     5-0-0/w STRC        r     1 XSS_F$EVNTQUE

  ****  Auto variables  ****

  ****  Scalars and arrays  ****
OctLoc.c.b A Datatyp(siz) R M Lvl/name                 OctLoc.c.b A Datatyp(siz) R M Lvl/name

     3-0-0/w PTR         r     1 @PARM1                     4-0-0/w PTR         r     1 BUF$
     7-0-0/w PTR         r     1 CCB$                       5-0-0/w SBIN        r     1 COUNTER
     6-0-0/w PTR         r     1 CTX$                      30-0-0/w PTR         r     1 DST$
    12-0-0/w PTR         r     1 FPT$                       7-0-0/w PTR         r     1 LCTX$
    10-0-0/w SBIN        r     1 LEN                       40-0-0/w SBIN        r     1 LEN
    11-0-0/b BIT         r     1 NEEDCREDIT                *0-0-0/w SBIN        r     1 PARM1
    12-0-0/w PTR         r     1 PTR$                      37-0-0/w PTR         r     1 PTR$
PL6.E3A0      #004=XSS$COMMWAIT File=XSS$COMM.:XSA1TSI                           WED 10/01/97 12:09 Page:203
    13-0-0/w SBIN        r     1 SCID                      32-0-0/w SBIN        r     1 SCID
    14-0-0/w SBIN        r     1 SECONDS                   33-0-0/w PTR         r     1 SPDU$
    34-0-0/w SBIN        r     1 SPDUSZ                    31-0-0/w PTR         r     1 SRC$
    35-0-0/w PTR         r     1 UADR$                     20-0-0/d STRC(288)   r     1 VBLK

  ****  SYMREF variables  ****

  ****  Scalars and arrays  ****
OctLoc.c.b A Datatyp(siz) R M Lvl/name                 OctLoc.c.b A Datatyp(siz) R M Lvl/name

     0-0-0/w PTR         r     1 B$TCB$                     0-0-0/w PTR         r     1 XSS_CCB$$
     0-0-0/w UBIN        r     1 XSS_DEBUG                  0-0-0/w SBIN        r     1 XSS_ITRACE
     0-0-0/w SBIN        r     1 XSS_MAX_LCID               0-0-0/d STRC(288)   r     1 XSS_VBLK

  ****  BASED and DCB variables  ****

  ****  Scalars and arrays  ****
OctLoc.c.b A Datatyp(siz) R M Lvl/name                 OctLoc.c.b A Datatyp(siz) R M Lvl/name

     0-0-0/w STRC(2448)  r     1 B$ALT                      0-0-0/w STRC(144)   r     1 B$CGAURD
     0-0-0/w STRC(144)   r     1 B$TCB                      0-0-0/w STRC(504)   r     1 CCB
     0-0-0/w PTR         r     1 CCB$(0:0)                  0-0-0/d ASTR(3528)  r     1 F$DCB
     0-0-0/w STRC(72)    r     1 GLUE                       0-0-0/w STRC(1260)  r     1 LCTX
     0-0-0/c ACHR        r     1 MSG                        0-0-0/c CHAR(2040)  r     1 RDBUFFER
     0-0-0/w STRC(1260)  r     1 SCTX                       0-0-0/w STRC(1260)  r     1 TCONFPT
     0-0-0/w STRC(2718)  r     1 UADR                       0-0-0/w STRC(2718)  r     1 XSC$ADDRESS
     0-0-0/w STRC(504)   r     1 XSC$CCB                    0-0-0/d STRC(396)   r     1 XSS$CONNECT
     0-0-0/d STRC(504)   r     1 XSS$GENERIC


   Procedure XSS$COMMWAIT requires 966 words for executable code.
   Procedure XSS$COMMWAIT requires 40 words of local(AUTO) storage.
PL6.E3A0      #004=XSS$COMMWAIT File=XSS$COMM.:XSA1TSI                           WED 10/01/97 12:09 Page:204
          *** CROSS REFERENCE LISTING ***
**     DENOTES     IDENTIFIER DEFINITION
<<                 IDENTIFIER'S VALUE SET
>>                 IDENTIFIER'S VALUE USED
<>                 IDENTIFIER SET AND/OR USED
--                 IDENTIFIER REFERENCED
PL6.E3A0      #004=XSS$COMMWAIT File=XSS$COMM.:XSA1TSI                           WED 10/01/97 12:09 Page:205
          MINI XREF LISTING

ADDRSETUP IN PROCEDURE HANDLEIT
     16714**PROC    16658--CALL    16668--CALL    16674--CALL
AURD
      7528**DCL     11437<>CALL    16807<>CALL
AURD.BUF_
      7530**DCL     16802<<ASSIGN
AURD.STATION_
      7531**DCL      7532--REDEF
AURD.V
      7532**DCL      7528--DCLINIT
AURD.V.DCB#
      7532**DCL     11434<<ASSIGN  16804<<ASSIGN
AURD.V.DVBYTE.REREAD#
      7543**DCL      7543--REDEF
AURD.V.EVENT#
      7541**DCL     11433<<ASSIGN  16803<<ASSIGN
AURD.V.INDX#
      7541**DCL      7541--REDEF
AUTITLE
     11329**DCL     11330--DCLINIT
AUTITLE_
     11330**DCL     11370<>CALL
B$ALT.CODE
      7280**DCL      7280--REDEF    7281--REDEF    7281--REDEF
B$ALT.ERR
      7281**DCL     11473>>ASSIGN
B$ALT.ERR.ERR#
      7282**DCL      7282--REDEF
B$ALT.EVID
      7281**DCL      7281--REDEF    7281--REDEF
B$CGAURD.EVENT
      7302**DCL     11378>>CALL    11379>>DOCASE
PL6.E3A0      #004=XSS$COMMWAIT File=XSS$COMM.:XSA1TSI                           WED 10/01/97 12:09 Page:206
B$CGAURD.INFO
      7303**DCL     11378>>CALL    11388>>DOCASE
B$CGAURD.STATION
      7302**DCL      7302--REDEF
B$TCB.ALT$
      7306**DCL     11473>>ASSIGN
B$TCB$
     11307**DCL     11473>>ASSIGN
BAILOUT
     11475**LABEL   11412--GOTO    16813--GOTO
BUF$
     11311**DCL      7298--IMP-PTR 11322--IMP-PTR 11377<<ASSIGN  11378>>CALL    11378>>CALL    11379>>DOCASE
     11388>>DOCASE  11426<>CALL    11427>>ASSIGN  16788<>CALL    16796>>ASSIGN  16802>>ASSIGN
CCB.ERRDEF
      8982**DCL      9002--REDEF
CCB.LCID
      8974**DCL     16784>>ASSIGN
CCB.SFPTX
      9072**DCL     16783<>CALL
CCB$
     11315**DCL      8875--IMP-PTR 16781<<ASSIGN  16783>>CALL    16784>>ASSIGN
CCB$ IN PROCEDURE HANDLEIT
     16605**DCL     16635>>CALL    16645>>ASSIGN  16645>>ASSIGN  16646>>ASSIGN  16758>>CALL
CHECK4MSG
     11344**LABEL   11347--EXIT    11462--GOTO
COMMON
     16860**LABEL   16846--GOTO
COMMWAIT
     11335**LABEL   16880--GOTO    16889--GOTO
COUNTER
     11312**DCL     11341<<ASSIGN  11344>>DOWHILE 11438>>IF      11447>>IF      16678<<ASSIGN  16678>>ASSIGN
     16682<<ASSIGN  16682>>ASSIGN  16697<<ASSIGN  16697>>ASSIGN  16704<<ASSIGN  16704>>ASSIGN  16764<<ASSIGN
     16764>>ASSIGN
CTX$
     11313**DCL     10060--IMP-PTR 11351<>CALL    11352>>IF      11357>>ASSIGN  11358>>ASSIGN  11360>>ASSIGN
     11364>>ASSIGN  11365>>ASSIGN  11366>>DOCASE  11376>>IF      11377>>ASSIGN  11392>>ASSIGN  11405>>IF
PL6.E3A0      #004=XSS$COMMWAIT File=XSS$COMM.:XSA1TSI                           WED 10/01/97 12:09 Page:207
     11406>>ASSIGN  11418>>IF      11420>>DOCASE  11426>>CALL    11428>>ASSIGN  11429>>ASSIGN  11433>>ASSIGN
     11434>>ASSIGN  11436>>IF      16614>>ASSIGN  16618>>ASSIGN  16619>>ASSIGN  16623>>ASSIGN  16624>>ASSIGN
     16645>>ASSIGN  16648>>CALL    16651>>CALL    16661>>ASSIGN  16662>>ASSIGN  16663>>ASSIGN  16664>>ASSIGN
     16665>>ASSIGN  16755>>IF      16786<>CALL    16788>>CALL    16790>>DOCASE  16797>>ASSIGN  16798>>ASSIGN
     16803>>ASSIGN  16804>>ASSIGN  16806>>IF      16810>>IF      16811>>IF      16812>>ASSIGN  16819<<ASSIGN
     16820>>ASSIGN  16822>>ASSIGN  16848<>CALL    16849>>IF      16853>>ASSIGN  16856>>ASSIGN  16864>>IF
     16868>>ASSIGN
DST$ IN PROCEDURE HANDLEIT
     16606**DCL     16649<>CALL    16650>>ASSIGN  16652<>CALL    16653>>ASSIGN
ERRCODE
      7615**DCL     11406<<ASSIGN  11408<>CALL    11473<<ASSIGN  11477<>CALL    16812<<ASSIGN
ERRCODE.ERR#
      7645**DCL     11409>>IF
ERRCODE.SEV
      7645**DCL     11475>>IF      11476<<ASSIGN
F$DCB.ACTPOS
      7389**DCL      7389--REDEF
F$DCB.ARS#
      7363**DCL      7363--REDEF
F$DCB.ATTR
      7382**DCL      7383--REDEF
F$DCB.BORROW
      7397**DCL      7397--REDEF    7397--REDEF    7397--REDEF
F$DCB.DCBNAME.L
      7411**DCL      7411--IMP-SIZ
F$DCB.EOMCHAR#
      7367**DCL      7367--REDEF
F$DCB.FCN.CNT
      7402**DCL     11436>>IF      16806>>IF
F$DCB.FLDID
      7392**DCL      7392--REDEF
F$DCB.FORM$
      7386**DCL      7386--REDEF
F$DCB.FSECT
      7402**DCL      7402--REDEF
F$DCB.FSN#
PL6.E3A0      #004=XSS$COMMWAIT File=XSS$COMM.:XSA1TSI                           WED 10/01/97 12:09 Page:208
      7379**DCL      7379--REDEF    7379--REDEF    7380--REDEF
F$DCB.HEADER$
      7385**DCL      7385--REDEF
F$DCB.IXTNSIZE#
      7383**DCL      7383--REDEF
F$DCB.LASTSTA$
      7372**DCL      7372--REDEF
F$DCB.LVL
      7398**DCL      7398--REDEF
F$DCB.NAME#.C
      7373**DCL      7373--REDEF
F$DCB.NOEOF
      7395**DCL      7395--REDEF
F$DCB.NRECS#
      7384**DCL      7384--REDEF
F$DCB.NRECX
      7403**DCL      7403--REDEF
F$DCB.OHDR
      7395**DCL      7395--REDEF
F$DCB.ORG#
      7378**DCL      7378--REDEF
F$DCB.PRECNO
      7401**DCL      7401--REDEF
F$DCB.RCSZ
      7407**DCL      7407--REDEF
F$DCB.RES#
      7374**DCL      7374--REDEF
F$DCB.SETX
      7386**DCL      7386--REDEF
F$DCB.TAB$
      7386**DCL      7386--REDEF
F$DCB.TDA
      7400**DCL      7401--REDEF
F$DCB.WSN#
      7374**DCL      7374--REDEF
FIRSTREAD
PL6.E3A0      #004=XSS$COMMWAIT File=XSS$COMM.:XSA1TSI                           WED 10/01/97 12:09 Page:209
     16788**LABEL   16823--GOTO
FPT$
     11320**DCL     16783<>CALL
FPT_EXTEND
      7508**DCL     11394<>CALL
FPT_EXTEND.V
      7508**DCL      7508--DCLINIT
FPT_EXTEND.V.DCB#
      7508**DCL     11392<<ASSIGN
FPT_EXTEND.V.SIZ#
      7509**DCL     11393<<ASSIGN
FPT_WAIT
      7600**DCL     11455<>CALL
FPT_WAIT.V
      7601**DCL      7600--DCLINIT
FPT_WAIT.V.UNITS#
      7601**DCL     11339<<ASSIGN  11453>>IF      11454<>CALL    11461<<ASSIGN
GLUE.DATA IN PROCEDURE HANDLEIT
     15521**DCL     16687--ASSIGN  16720--ASSIGN
GLUE.MAGIC IN PROCEDURE HANDLEIT
     15520**DCL     16618>>ASSIGN  16633>>ASSIGN  16657>>ASSIGN
GLUE.MYSCID IN PROCEDURE HANDLEIT
     15517**DCL     16659>>ASSIGN  16669>>ASSIGN
GLUE.TRNFNC IN PROCEDURE HANDLEIT
     15518**DCL     16615>>CALL    16616>>IF      16625>>IF      16637>>DOCASE  16721>>IF
GLUE.YRSCID IN PROCEDURE HANDLEIT
     15519**DCL     16615>>CALL    16626>>ASSIGN
HANDLEIT
     11485**PROC    11416--CALL
JOINWAIT
     11339**LABEL   16862--GOTO
LCTX
     10494**DCL     11439<>CALL
LCTX.ABORTING
     10789**DCL     11438>>IF      16765<<ASSIGN
LCTX.DCB#
PL6.E3A0      #004=XSS$COMMWAIT File=XSS$COMM.:XSA1TSI                           WED 10/01/97 12:09 Page:210
     10823**DCL     16662<<ASSIGN
LCTX.DSTX
     10514**DCL     16652<>CALL    16725<>CALL    16731<>CALL
LCTX.ENTRY$
     10806**DCL     16664<<ASSIGN
LCTX.EVENT#
     10824**DCL     16663<<ASSIGN
LCTX.FLAGS.TEXP
     10763**DCL     16726<<ASSIGN
LCTX.FLOWSTOPPED
     10784**DCL     16677<<ASSIGN  16681<<ASSIGN
LCTX.HISTZ
     10808**DCL     10809--REDEF
LCTX.LATCH.LNKX
     10859**DCL     16853>>ASSIGN  16854<<ASSIGN
LCTX.LATCH.MSG$
     10860**DCL     16665<<ASSIGN
LCTX.MAGIC
     10805**DCL     16633<<ASSIGN  16657<<ASSIGN
LCTX.MODE
     10790**DCL     16660<<ASSIGN
LCTX.PEERSCID
     10794**DCL     16659<<ASSIGN  16669<<ASSIGN
LCTX.SCID
     10795**DCL     16635>>CALL    16645>>ASSIGN  16646>>ASSIGN  16646>>ASSIGN  16655>>ASSIGN  16656>>ASSIGN
     16667>>ASSIGN  16673>>ASSIGN  16758>>CALL    16759>>ASSIGN
LCTX.SRCX
     10513**DCL     16649<>CALL    16724<>CALL    16728<>CALL
LCTX.STATE
     10508**DCL     16755>>IF
LCTX.STATION
     10818**DCL     16661<<ASSIGN  16755>>IF
LCTX$
     11314**DCL     10494--IMP-PTR 11315--REDEF   11438>>IF      11439>>CALL    16624<<ASSIGN  16627<>CALL
     16632>>ASSIGN  16633>>ASSIGN  16635>>CALL    16640<>CALL    16645>>ASSIGN  16646>>ASSIGN  16646>>ASSIGN
     16649>>CALL    16652>>CALL    16654>>ASSIGN  16655>>ASSIGN  16656>>ASSIGN  16657>>ASSIGN  16659>>ASSIGN
PL6.E3A0      #004=XSS$COMMWAIT File=XSS$COMM.:XSA1TSI                           WED 10/01/97 12:09 Page:211
     16660>>ASSIGN  16661>>ASSIGN  16662>>ASSIGN  16663>>ASSIGN  16664>>ASSIGN  16665>>ASSIGN  16667>>ASSIGN
     16669>>ASSIGN  16673>>ASSIGN  16677>>ASSIGN  16681>>ASSIGN  16724>>CALL    16725>>CALL    16726>>ASSIGN
     16728>>CALL    16731>>CALL    16754<>CALL    16755>>IF      16755>>IF      16757>>ASSIGN  16758>>CALL
     16759>>ASSIGN  16765>>ASSIGN  16852<>CALL    16853>>ASSIGN  16854>>ASSIGN
LEN
     11316**DCL     11317--IMP-SIZ 11365<<ASSIGN  11368>>CALL    11370>>CALL
LEN IN PROCEDURE ADDRSETUP
     16717**DCL     16718--IMP-SIZ
LOOP
     16848**LABEL   16869--GOTO
M$EXTEND
      7210**DCL-ENT 11394--CALL
M$READ
      7207**DCL-ENT 11431--CALL    11437--CALL    16800--CALL    16807--CALL
M$WAIT
      7264**DCL-ENT 11455--CALL
MSG
     11317**DCL     11368--CALL    11370--CALL
NCRD
      7567**DCL     11431<>CALL    16800<>CALL
NCRD.BUF_
      7569**DCL     11427<<ASSIGN  16796<<ASSIGN
NCRD.STATION_
      7570**DCL      7571--REDEF   11423<<ASSIGN  11425<<ASSIGN  16793<<ASSIGN  16795<<ASSIGN
NCRD.V
      7571**DCL      7567--DCLINIT
NCRD.V.DCB#
      7571**DCL     11429<<ASSIGN  16798<<ASSIGN
NCRD.V.DVBYTE.REREAD#
      7582**DCL      7582--REDEF
NCRD.V.EVENT#
      7580**DCL     11428<<ASSIGN  16797<<ASSIGN
NCRD.V.INDX#
      7580**DCL      7580--REDEF
NCTITLE
     11331**DCL     11332--DCLINIT
PL6.E3A0      #004=XSS$COMMWAIT File=XSS$COMM.:XSA1TSI                           WED 10/01/97 12:09 Page:212
NCTITLE_
     11332**DCL     11368<>CALL
NEEDCREDIT
     11318**DCL     11373<<ASSIGN  11438>>IF      16671<<ASSIGN
NXTSCID IN PROCEDURE HANDLEIT
     16768**LABEL   16754--CALLALT
PARM1
     11321**DCL        26--PROC    11335>>ASSIGN  16779--ENTRY   16781--ASSIGN  16817--ENTRY   16819--ASSIGN
     16839--ENTRY   16841<>CALL    16844>>IF      16849>>IF      16852<>CALL    16855>>IF      16857>>ASSIGN
     16878--ENTRY   16887--ENTRY
PTR$
     11319**DCL     11317--IMP-PTR 11320--REDEF   11364<<ASSIGN  11368>>CALL    11370>>CALL
PTR$ IN PROCEDURE ADDRSETUP
     16716**DCL     16720<<ASSIGN  16722<<ASSIGN  16722>>ASSIGN  16726>>ASSIGN  16729>>ASSIGN  16730>>ASSIGN
     16732>>ASSIGN  16733>>ASSIGN
QUICKDISC IN PROCEDURE HANDLEIT
     16747**ENTRY   11383--CALL    11410--CALL
RDBUFFER
     11322**DCL     11427--ASSIGN  16796--ASSIGN  16802--ASSIGN
RDERR
     11466**LABEL   11431--CALLALT 11437--CALLALT 16800--CALLALT 16807--CALLALT
SCID
     11323**DCL     11350<<ASSIGN  11351<>CALL    11407<>CALL    11430<>CALL    11435<>CALL    16784<<ASSIGN
     16785<>CALL    16786<>CALL    16799<>CALL    16805<>CALL    16820<<ASSIGN  16821<>CALL    16843<<ASSIGN
     16844>>IF      16848<>CALL    16868<<ASSIGN
SCID IN PROCEDURE HANDLEIT
     16608**DCL     16626<<ASSIGN  16627<>CALL    16655<<ASSIGN  16753<<DOINDEX 16754<>CALL
SCTX.ABORTING
     10355**DCL     11418>>IF
SCTX.BUFX
     10388**DCL     11426<>CALL    16788<>CALL
SCTX.DCB#
     10389**DCL     11392>>ASSIGN  11429>>ASSIGN  11434>>ASSIGN  11436--IF      16662>>ASSIGN  16798>>ASSIGN
     16804>>ASSIGN  16806--IF
SCTX.DSTX
     10080**DCL     16651<>CALL
PL6.E3A0      #004=XSS$COMMWAIT File=XSS$COMM.:XSA1TSI                           WED 10/01/97 12:09 Page:213
SCTX.ENTRY$
     10372**DCL     16664>>ASSIGN
SCTX.EVENT#
     10390**DCL     11428>>ASSIGN  11433>>ASSIGN  16663>>ASSIGN  16797>>ASSIGN  16803>>ASSIGN
SCTX.HISTZ
     10374**DCL     10375--REDEF
SCTX.LATCH.ADMIN
     10423**DCL     11376>>IF
SCTX.LATCH.ERRCODE
     10442**DCL     11405>>IF      11406>>ASSIGN  16811>>IF      16812>>ASSIGN
SCTX.LATCH.LNKX
     10425**DCL     11352>>IF      11357>>ASSIGN  11358<<ASSIGN  16849>>IF      16853<<ASSIGN  16864>>IF
     16868>>ASSIGN
SCTX.LATCH.MSG$
     10426**DCL     11364>>ASSIGN  11377>>ASSIGN  16614>>ASSIGN  16665>>ASSIGN
SCTX.LATCH.MSGSZ
     10427**DCL     11365>>ASSIGN  16619>>ASSIGN
SCTX.LATCH.PRESENT
     10422**DCL     11360<<ASSIGN  16810>>IF
SCTX.LATCH.STATION
     10473**DCL     16661>>ASSIGN  16755>>IF
SCTX.MAGIC
     10371**DCL     16618<<ASSIGN
SCTX.MODE
     10356**DCL     11366>>DOCASE  11420>>DOCASE  16790>>DOCASE
SCTX.NEEDAREAD
     10353**DCL     16822<<ASSIGN
SCTX.SCID
     10361**DCL     16645>>ASSIGN  16820>>ASSIGN  16856>>ASSIGN
SCTX.SRCX
     10079**DCL     16648<>CALL
SECONDS
     11324**DCL     11335<<ASSIGN  11336<>CALL    11339>>ASSIGN  11466>>IF      16860<<ASSIGN
SPDU$ IN PROCEDURE HANDLEIT
     16610**DCL     15510--IMP-PTR 16609--IMP-PTR 16614<<ASSIGN  16615>>CALL    16615>>CALL    16616>>IF
     16618>>ASSIGN  16622>>ASSIGN  16625>>IF      16626>>ASSIGN  16633>>ASSIGN  16637>>DOCASE  16657>>ASSIGN
PL6.E3A0      #004=XSS$COMMWAIT File=XSS$COMM.:XSA1TSI                           WED 10/01/97 12:09 Page:214
     16659>>ASSIGN  16669>>ASSIGN  16687<<ASSIGN  16687>>ASSIGN  16688>>ASSIGN  16720>>ASSIGN  16721>>IF
SPDUSZ IN PROCEDURE HANDLEIT
     16611**DCL     16609--IMP-SIZ 16619<<ASSIGN  16621>>ASSIGN  16689<<ASSIGN  16689>>ASSIGN  16690>>ASSIGN
SRC$ IN PROCEDURE HANDLEIT
     16607**DCL     16648<>CALL    16650>>ASSIGN  16651<>CALL    16653>>ASSIGN
TCONFPT.DST_NSAP IN PROCEDURE HANDLEIT
     12189**DCL     16733>>ASSIGN
TCONFPT.DST_NSAP.ADDRESS_N IN PROCEDURE HANDLEIT
     12219**DCL     12220--REDEF
TCONFPT.DST_TSAP IN PROCEDURE HANDLEIT
     12087**DCL     16732>>ASSIGN
TCONFPT.SRC_NSAP IN PROCEDURE HANDLEIT
     12129**DCL     16730>>ASSIGN
TCONFPT.SRC_NSAP.ADDRESS_N IN PROCEDURE HANDLEIT
     12159**DCL     12160--REDEF
TCONFPT.SRC_TSAP IN PROCEDURE HANDLEIT
     12045**DCL     16729>>ASSIGN
TCONFPT.TPDUSIZE IN PROCEDURE HANDLEIT
     11922**DCL     11923--REDEF
TCONFPT.TR_FLAGS.EXPEDITED IN PROCEDURE HANDLEIT
     12004**DCL     16726>>ASSIGN
UADR.NSAP IN PROCEDURE HANDLEIT
     15982**DCL     16730<<ASSIGN  16733<<ASSIGN
UADR.NSAP.ADDRESS_N IN PROCEDURE HANDLEIT
     16012**DCL     16013--REDEF
UADR.TSAP IN PROCEDURE HANDLEIT
     15908**DCL     16729<<ASSIGN  16732<<ASSIGN
UADR$ IN PROCEDURE HANDLEIT
     16612**DCL     15751--IMP-PTR 16728<>CALL    16729>>ASSIGN  16730>>ASSIGN  16731<>CALL    16732>>ASSIGN
     16733>>ASSIGN
UETIME
     11325**DCL      7600--DCLINIT 11340<<ASSIGN  11457>>IF      11461>>ASSIGN
VBLK IN PROCEDURE HANDLEIT
     15540**DCL     16620<<ASSIGN  16692<>CALL    16700<>CALL    16749<<ASSIGN  16760<>CALL
VBLK.CTX$ IN PROCEDURE HANDLEIT
     15548**DCL     16623<<ASSIGN  16632<<ASSIGN  16654<<ASSIGN  16757<<ASSIGN
PL6.E3A0      #004=XSS$COMMWAIT File=XSS$COMM.:XSA1TSI                           WED 10/01/97 12:09 Page:215
VBLK.EVENT IN PROCEDURE HANDLEIT
     15558**DCL     16639<<ASSIGN  16670<<ASSIGN  16675<<ASSIGN  16686<<ASSIGN  16752<<ASSIGN
VBLK.FPT$ IN PROCEDURE HANDLEIT
     15559**DCL     15040--IMP-PTR 15186--IMP-PTR 16635<>CALL    16656>>ASSIGN  16667>>ASSIGN  16673>>ASSIGN
     16724>>CALL    16725>>CALL    16758<>CALL    16759>>ASSIGN
VBLK.PDU.PTR$ IN PROCEDURE HANDLEIT
     15591**DCL     16622<<ASSIGN  16688<<ASSIGN  16751<<ASSIGN
VBLK.PDU.SIZE IN PROCEDURE HANDLEIT
     15592**DCL     16621<<ASSIGN  16690<<ASSIGN  16750<<ASSIGN
VBLK.USERCALL IN PROCEDURE HANDLEIT
     15560**DCL     16697>>ASSIGN  16704>>ASSIGN
VLP_SUA
      7450**DCL      7424--DCLINIT
XSC$ADDRESS IN PROCEDURE HANDLEIT
     16034**DCL     16650<<ASSIGN  16650>>ASSIGN  16653<<ASSIGN  16653>>ASSIGN
XSC$ADDRESS.NSAP.ADDRESS_N IN PROCEDURE HANDLEIT
     16295**DCL     16296--REDEF
XSC$CCB IN PROCEDURE HANDLEIT
     16317**DCL     16645<<ASSIGN  16645>>ASSIGN
XSC$CCB.ERRDEF IN PROCEDURE HANDLEIT
     16424**DCL     16444--REDEF
XSC$CCB.LCID IN PROCEDURE HANDLEIT
     16416**DCL     16646<<ASSIGN
XSC$CCB.SFPTX IN PROCEDURE HANDLEIT
     16514**DCL     16635<>CALL    16758<>CALL
XSS$ALARMCHECK
     11299**DCL-ENT 11446--CALL    11468--CALL
XSS$BUFPTR
     11301**DCL-ENT 11426--CALL    16635--CALL    16648--CALL    16649--CALL    16651--CALL    16652--CALL
     16724--CALL    16725--CALL    16728--CALL    16731--CALL    16758--CALL    16783--CALL    16788--CALL
XSS$CONNECT.CALLED$ IN PROCEDURE HANDLEIT
     15412**DCL     15413--REDEF   16725<>CALL
XSS$CONNECT.CALLING$ IN PROCEDURE HANDLEIT
     15395**DCL     16724<>CALL
XSS$CONNECT.ERRDEF IN PROCEDURE HANDLEIT
     15280**DCL     15300--REDEF
PL6.E3A0      #004=XSS$COMMWAIT File=XSS$COMM.:XSA1TSI                           WED 10/01/97 12:09 Page:216
XSS$CTXPTR
     11300**DCL-ENT 11351--CALL    16627--CALL    16754--CALL    16786--CALL    16848--CALL    16852--CALL
XSS$DECODE IN PROCEDURE HANDLEIT
     16598**DCL-ENT 16692--CALL
XSS$DUMPBYTES
     11302**DCL-ENT 11368--CALL    11370--CALL
XSS$EVLOG
     11305**DCL-ENT 11336--CALL    11378--CALL    11407--CALL    11408--CALL    11430--CALL    11435--CALL
     11454--CALL    16615--CALL    16785--CALL    16799--CALL    16805--CALL    16821--CALL    16841--CALL
XSS$GENERIC.ERRDEF IN PROCEDURE HANDLEIT
     15094**DCL     15114--REDEF
XSS$GENERIC.SCID IN PROCEDURE HANDLEIT
     15055**DCL     16656<<ASSIGN  16667<<ASSIGN  16673<<ASSIGN  16759<<ASSIGN
XSS$GETCTX IN PROCEDURE HANDLEIT
     16599**DCL-ENT 16640--CALL
XSS$MACHINE IN PROCEDURE HANDLEIT
     16600**DCL-ENT 16700--CALL    16760--CALL
XSS$SCREECH
     11303**DCL-ENT 11390--CALL    11397--CALL    11400--CALL    11477--CALL    16695--CALL    16866--CALL
XSS$TCREDIT
     11304**DCL-ENT 11439--CALL
XSS_AUSTA
      7660**DCL     11425--ASSIGN  16793--ASSIGN
XSS_AUSTA.MSGIDXT
      7670**DCL      7673--REDEF
XSS_CCB$$ IN PROCEDURE HANDLEIT
     16602**DCL     16605--IMP-PTR 16635>>CALL    16645>>ASSIGN  16645>>ASSIGN  16646>>ASSIGN  16758>>CALL
XSS_DEBUG
     11308**DCL     11422>>IF      16792>>IF
XSS_EVENTED
     11326**DCL     11451<<ASSIGN  11459>>IF
XSS_EVHDX
     11327**DCL     11345>>IF      11350>>ASSIGN  11353<<ASSIGN  11357<<ASSIGN  16843>>ASSIGN  16854>>ASSIGN
     16857<<ASSIGN
XSS_EVTLX
     11328**DCL     11354<<ASSIGN  16855>>IF      16856<<ASSIGN
PL6.E3A0      #004=XSS$COMMWAIT File=XSS$COMM.:XSA1TSI                           WED 10/01/97 12:09 Page:217
XSS_F$CGEVNTOTHER
     11006**DCL     11400<>CALL
XSS_F$CGWARNMEM
     11108**DCL     11390<>CALL
XSS_F$CGWARNOTHER
     11159**DCL     11397<>CALL
XSS_F$DECODE
     11210**DCL     16695<>CALL
XSS_F$EVNTQUE
     11261**DCL     16866<>CALL
XSS_GENERIC.ERRDEF IN PROCEDURE HANDLEIT
     14948**DCL     14968--REDEF
XSS_ITRACE
     11309**DCL     11363>>IF
XSS_MAX_LCID IN PROCEDURE HANDLEIT
     16603**DCL     16753>>DOINDEX
XSS_NCSTA.MSGIDXT
      7697**DCL      7700--REDEF
XSS_VBLK IN PROCEDURE HANDLEIT
     15645**DCL     16620>>ASSIGN  16749>>ASSIGN
XTNERR
     11473**LABEL   11394--CALLALT
PL6.E3A0      #004=XSS$COMMWAIT File=XSS$COMM.:XSA1TSI                           WED 10/01/97 12:09 Page:218
              *** CROSS REFERENCE LISTING ***
    **     DENOTES     IDENTIFIER DEFINITION
    <<                 IDENTIFIER'S VALUE SET
    >>                 IDENTIFIER'S VALUE USED
    <>                 IDENTIFIER SET AND/OR USED
    --                 IDENTIFIER REFERENCED
PL6.E3A0      #004=XSS$COMMWAIT File=XSS$COMM.:XSA1TSI                           WED 10/01/97 12:09 Page:219
              MINI UREF LISTING

BYTES IN PROCEDURE ADDRSETUP  16718**DCL
FPT_SCREECH    7424**DCL
M$ACCT    7223**DCL-ENT
M$ACTIVATE    7226**DCL-ENT
M$ALIB    7219**DCL-ENT
M$ASUSER    7221**DCL-ENT
M$ATTACH    7228**DCL-ENT
M$BADPP    7246**DCL-ENT
M$CGCTL    7227**DCL-ENT
M$CGINFO    7227**DCL-ENT
M$CHECK    7208**DCL-ENT
M$CHGUNIT    7266**DCL-ENT
M$CLOSE    7206**DCL-ENT
M$CLRSTK    7264**DCL-ENT
M$CMDVAR    7275**DCL-ENT
M$CONFIG    7236**DCL-ENT
M$CORRES    7211**DCL-ENT
M$CPEXIT    7220**DCL-ENT
M$CVM    7244**DCL-ENT
M$CVOL    7209**DCL-ENT
M$DCLFLD    7236**DCL-ENT
M$DEACTIVATE    7226**DCL-ENT
M$DELREC    7208**DCL-ENT
M$DEQ    7273**DCL-ENT
M$DETACH    7228**DCL-ENT
M$DEVICE    7210**DCL-ENT
M$DISPLAY    7273**DCL-ENT
M$DISPRES    7213**DCL-ENT
M$DLIB    7219**DCL-ENT
M$DRIBBLE    7236**DCL-ENT
M$DRTN    7264**DCL-ENT
M$DSUSER    7221**DCL-ENT
PL6.E3A0      #004=XSS$COMMWAIT File=XSS$COMM.:XSA1TSI                           WED 10/01/97 12:09 Page:220
M$ENQ    7272**DCL-ENT
M$EOM    7231**DCL-ENT
M$ERASE    7237**DCL-ENT
M$ERR    7218**DCL-ENT
M$ERRMSG    7269**DCL-ENT
M$EVENT    7261**DCL-ENT
M$EXHUME    7270**DCL-ENT
M$EXIT    7218**DCL-ENT
M$FDP    7242**DCL-ENT
M$FDS    7241**DCL-ENT
M$FEBOOT    7234**DCL-ENT
M$FECTL    7235**DCL-ENT
M$FEDUMP    7234**DCL-ENT
M$FID    7269**DCL-ENT
M$FINDPROC    7223**DCL-ENT
M$FSUSER    7221**DCL-ENT
M$FVP    7243**DCL-ENT
M$FWCG    7227**DCL-ENT
M$GBPL    7247**DCL-ENT
M$GDDL    7243**DCL-ENT
M$GDP    7242**DCL-ENT
M$GDS    7241**DCL-ENT
M$GETDCB    7212**DCL-ENT
M$GETMOUSE    7252**DCL-ENT
M$GETPM    7253**DCL-ENT
M$GJOB    7271**DCL-ENT
M$GLINEATTR    7231**DCL-ENT
M$GOODPP    7246**DCL-ENT
M$GPLATEN    7239**DCL-ENT
M$GPROMPT    7238**DCL-ENT
M$GTRMATTR    7232**DCL-ENT
M$GTRMCTL    7230**DCL-ENT
M$GTRMTAB    7233**DCL-ENT
M$GVP    7242**DCL-ENT
M$HELP    7269**DCL-ENT
M$INT    7261**DCL-ENT
PL6.E3A0      #004=XSS$COMMWAIT File=XSS$COMM.:XSA1TSI                           WED 10/01/97 12:09 Page:221
M$INTRTN    7222**DCL-ENT
M$IOQ    7257**DCL-ENT
M$JOBSTATS    7271**DCL-ENT
M$KEYIN    7211**DCL-ENT
M$LDEV    7206**DCL-ENT
M$LDTRC    7219**DCL-ENT
M$LIMIT    7212**DCL-ENT
M$LINES    7211**DCL-ENT
M$LINK    7218**DCL-ENT
M$MADMUCK    7214**DCL-ENT
M$MAKUSER    7245**DCL-ENT
M$MBS    7213**DCL-ENT
M$MDFFLD    7237**DCL-ENT
M$MERC    7262**DCL-ENT
M$MERCS    7263**DCL-ENT
M$MIRROR    7257**DCL-ENT
M$MONINFO    7274**DCL-ENT
M$MPL    7247**DCL-ENT
M$NODEINFO    7238**DCL-ENT
M$NXTUSR    7272**DCL-ENT
M$OCMSG    7270**DCL-ENT
M$OLAY    7218**DCL-ENT
M$OPEN    7206**DCL-ENT
M$PAS    7247**DCL-ENT
M$PATHCON    7270**DCL-ENT
M$PDS    7241**DCL-ENT
M$PFIL    7208**DCL-ENT
M$PLATEN    7232**DCL-ENT
M$PRECORD    7210**DCL-ENT
M$PROCNAME    7223**DCL-ENT
M$PROFILE    7234**DCL-ENT
M$PROMPT    7230**DCL-ENT
M$RACST    7214**DCL-ENT
M$RDSYSLOG    7255**DCL-ENT
M$RELDCB    7212**DCL-ENT
M$RELRES    7213**DCL-ENT
PL6.E3A0      #004=XSS$COMMWAIT File=XSS$COMM.:XSA1TSI                           WED 10/01/97 12:09 Page:222
M$RELSTARF    7215**DCL-ENT
M$REM    7215**DCL-ENT
M$RENV    7262**DCL-ENT
M$REQUIRE    7214**DCL-ENT
M$RETRY    7263**DCL-ENT
M$RETRYS    7263**DCL-ENT
M$REW    7209**DCL-ENT
M$RLSFLD    7237**DCL-ENT
M$RPRIV    7265**DCL-ENT
M$RSPP    7244**DCL-ENT
M$RSWITCH    7266**DCL-ENT
M$RUE    7272**DCL-ENT
M$SAD    7245**DCL-ENT
M$SAVE    7221**DCL-ENT
M$SCON    7222**DCL-ENT
M$SCREECH    7220**DCL-ENT
M$SENV    7262**DCL-ENT
M$SETFMA    7206**DCL-ENT
M$SETFP    7235**DCL-ENT
M$SINPUT    7233**DCL-ENT
M$SLCFLD    7238**DCL-ENT
M$SMOUSE    7252**DCL-ENT
M$SMPRT    7244**DCL-ENT
M$SPRIV    7265**DCL-ENT
M$SSC    7245**DCL-ENT
M$SSWITCH    7265**DCL-ENT
M$STATE    7274**DCL-ENT
M$STD    7246**DCL-ENT
M$STIMER    7260**DCL-ENT
M$STLPP    7243**DCL-ENT
M$STRAP    7260**DCL-ENT
M$STRMATTR    7232**DCL-ENT
M$STRMCTL    7230**DCL-ENT
M$STRMTAB    7233**DCL-ENT
M$SYMBIO    7271**DCL-ENT
M$SYSCON    7257**DCL-ENT
PL6.E3A0      #004=XSS$COMMWAIT File=XSS$COMM.:XSA1TSI                           WED 10/01/97 12:09 Page:223
M$SYSID    7275**DCL-ENT
M$TDCLOSE    7256**DCL-ENT
M$TDIO    7256**DCL-ENT
M$TDOPEN    7255**DCL-ENT
M$TDREQCPU    7256**DCL-ENT
M$TEMPWROC    7250**DCL-ENT
M$TIME    7273**DCL-ENT
M$TRAP    7260**DCL-ENT
M$TRMISC    7235**DCL-ENT
M$TRMPRG    7231**DCL-ENT
M$TRTN    7264**DCL-ENT
M$TRUNC    7207**DCL-ENT
M$TTIMER    7260**DCL-ENT
M$UC    7230**DCL
M$UMPL    7247**DCL-ENT
M$UNFID    7269**DCL-ENT
M$UNLATCH    7226**DCL-ENT
M$UNSHARE    7223**DCL-ENT
M$USRFIELD    7266**DCL-ENT
M$VIRTUAL    7241**DCL-ENT
M$WEOF    7209**DCL-ENT
M$WRITE    7207**DCL-ENT
M$WRSYSLOG    7255**DCL-ENT
M$XCON    7261**DCL-ENT
M$XCONRTN    7222**DCL-ENT
M$XEQTIME    7274**DCL-ENT
M$XFLUSH    7215**DCL-ENT
M$XMOUSE    7252**DCL-ENT
M$XXX    7218**DCL-ENT
M$YC    7220**DCL-ENT
SPDU IN PROCEDURE HANDLEIT  16609**DCL
XSC$COMMWAIT   16887**ENTRY
XSP$COMMWAIT   16878**ENTRY
XSS$COMMPEND   16839**ENTRY
XSS$COMMWAIT      26**PROC
XSS$COMMWAITX   16779**ENTRY
PL6.E3A0      #004=XSS$COMMWAIT File=XSS$COMM.:XSA1TSI                           WED 10/01/97 12:09 Page:224
XSS$COMMWAITZ   16817**ENTRY
XSS_F$CGWARNDISK   11057**DCL

