PL6.E3A0      #006=XSS$BLANKIT File=XSS$DATA.:XSA1TSI                            WED 10/01/97 12:15 Page:197
      938        1        /*T***********************************************************/
      939        2        /*T*                                                         */
      940        3        /*T* Copyright (c) Bull HN Information Systems Inc., 1997    */
      941        4        /*T*                                                         */
      942        5        /*T***********************************************************/
      943        6        /*F*    NAME:   XSS$BLANKIT
      944        7                DESCRIPTION:
      945        8                    This is an internal routine for XSS$DUMPBYTES.  It
      946        9                    cleans up after the formatter.
      947       10        */
      948       11        XSS$BLANKIT: PROC;
      949       12
      950       13    1       DCL XSS_SCRITCH CHAR(80) SYMREF;
      951       14    1       DCL XSS_BASE SBIN SYMREF;
      952       15    1       DCL XSS_VAL$ PTR SYMREF;
      953       16    1       DCL XSS_TOP$ PTR SYMREF;
      954       17    1       DCL XSS_DAT$ PTR SYMREF;
      955       18
      956       19    1       DCL DIFF SBIN;
      957       20
      958       21    1       IF XSS_VAL$ <= XSS_TOP$ THEN
      959       22    1           RETURN;
      960       23    1       DIFF = POFFC( XSS_TOP$, PINCRC( XSS_DAT$, XSS_BASE));
      961       24    1       DIFF = ( ( DIFF - 1) / 4) + 10 + 2 * DIFF;
      962       25    1       CALL INSERT( XSS_SCRITCH, DIFF, LENGTHC( XSS_SCRITCH) - DIFF, ' ');
      963       26    1       RETURN;
      964       27
      965       28    1       END XSS$BLANKIT;
      966       29        %EOD;

PL6.E3A0      #006=XSS$BLANKIT File=XSS$DATA.:XSA1TSI                            WED 10/01/97 12:15 Page:198
      No diagnostics issued in procedure XSS$BLANKIT.

   Procedure XSS$BLANKIT requires 29 words for executable code.
   Procedure XSS$BLANKIT requires 6 words of local(AUTO) storage.

PL6.E3A0      #006=XSS$BLANKIT File=XSS$DATA.:XSA1TSI                            WED 10/01/97 12:15 Page:199

 Object Unit name= XSS$BLANKIT                                File name= XSS$DATA.:XSA1TOU
 UTS= OCT 01 '97 12:15:28.40 WED                              Compiler= PL-6/E31         Sev=      00
 SharedLib= :SHARED_SYSTEM                                    Alt SharedLib=


    ****  Control sections  ****

 Sect   Type Bound  Init  Size OctSiz  Section name(segment info)
    0   Proc  even  none    29     35  XSS$BLANKIT
    1  RoData even  none     1      1  XSS$BLANKIT

    ****  Entry defs  ****

                              Check   Calling
                             calling  sequence
  Sect OctLoc Primary Altret sequence   type   Parms  Name
     0      0   yes            yes      Std        0  XSS$BLANKIT

  ****  Entry refs  ****

         Check        Calling
        calling       sequence
Altret sequence SRef   type   Args  Name
                       nStd      0 X66_AUTO_0
                       nStd      0 X66_ARET

  ****  Data refs  ****

  Flags:  r = read only, s = secondary
Flgs Name                             Flgs Name                             Flgs Name
     XSS_SCRITCH                           XSS_BASE                              XSS_VAL$
     XSS_TOP$                              XSS_DAT$
PL6.E3A0      #006=XSS$BLANKIT File=XSS$DATA.:XSA1TSI                            WED 10/01/97 12:15 Page:200


      938        1        /*T***********************************************************/
      939        2        /*T*                                                         */
      940        3        /*T* Copyright (c) Bull HN Information Systems Inc., 1997    */
      941        4        /*T*                                                         */
      942        5        /*T***********************************************************/
      943        6        /*F*    NAME:   XSS$BLANKIT
      944        7                DESCRIPTION:
      945        8                    This is an internal routine for XSS$DUMPBYTES.  It
      946        9                    cleans up after the formatter.
      947       10        */
      948       11        XSS$BLANKIT: PROC;

     11  0 000000   000000 700200 xent  XSS$BLANKIT  TSX0  ! X66_AUTO_0
         0 000001   000006 000000                    ZERO    6,0

      949       12
      950       13    1       DCL XSS_SCRITCH CHAR(80) SYMREF;
      951       14    1       DCL XSS_BASE SBIN SYMREF;
      952       15    1       DCL XSS_VAL$ PTR SYMREF;
      953       16    1       DCL XSS_TOP$ PTR SYMREF;
      954       17    1       DCL XSS_DAT$ PTR SYMREF;
      955       18
      956       19    1       DCL DIFF SBIN;
      957       20
      958       21    1       IF XSS_VAL$ <= XSS_TOP$ THEN

     21  0 000002   000000 236000 xsym               LDQ     XSS_TOP$
         0 000003   000000 116000 xsym               CMPQ    XSS_VAL$
         0 000004   000006 602000 0                  TNC     s:23

      959       22    1           RETURN;

     22  0 000005   000000 702200 xent               TSX2  ! X66_ARET

      960       23    1       DIFF = POFFC( XSS_TOP$, PINCRC( XSS_DAT$, XSS_BASE));

PL6.E3A0      #006=XSS$BLANKIT File=XSS$DATA.:XSA1TSI                            WED 10/01/97 12:15 Page:201
     23  0 000006   000000 236000 xsym               LDQ     XSS_BASE
         0 000007   000020 736000                    QLS     16
         0 000010   000000 036000 xsym               ADLQ    XSS_DAT$
         0 000011   000020 772000                    QRL     16
         0 000012   200004 756100                    STQ     DIFF+1,,AUTO
         0 000013   000000 236000 xsym               LDQ     XSS_TOP$
         0 000014   000020 772000                    QRL     16
         0 000015   200004 136100                    SBLQ    DIFF+1,,AUTO
         0 000016   200003 756100                    STQ     DIFF,,AUTO

      961       24    1       DIFF = ( ( DIFF - 1) / 4) + 10 + 2 * DIFF;

     24  0 000017   000001 136007                    SBLQ    1,DL
         0 000020   000004 506007                    DIV     4,DL
         0 000021   200004 756100                    STQ     DIFF+1,,AUTO
         0 000022   200003 236100                    LDQ     DIFF,,AUTO
         0 000023   000001 736000                    QLS     1
         0 000024   200004 036100                    ADLQ    DIFF+1,,AUTO
         0 000025   000012 036007                    ADLQ    10,DL
         0 000026   200003 756100                    STQ     DIFF,,AUTO

      962       25    1       CALL INSERT( XSS_SCRITCH, DIFF, LENGTHC( XSS_SCRITCH) - DIFF, ' ');

     25  0 000027   777657 620006                    EAX0    -81,QL
         0 000030   777777 660003                    ERX0    -1,DU
         0 000031   040046 100400                    MLR     fill='040'O
         0 000032   000000 000001 1                  ADSC9   0                        cn=0,n=1
         0 000033   000000 000010 xsym               ADSC9   XSS_SCRITCH,Q            cn=0,n=*X0

      963       26    1       RETURN;

     26  0 000034   000000 702200 xent               TSX2  ! X66_ARET

(unnamed)
 Sect OctLoc
   1     000   040040 040040
      964       27
PL6.E3A0      #006=XSS$BLANKIT File=XSS$DATA.:XSA1TSI                            WED 10/01/97 12:15 Page:202
      965       28    1       END XSS$BLANKIT;
      966       29        %EOD;

PL6.E3A0      #006=XSS$BLANKIT File=XSS$DATA.:XSA1TSI                            WED 10/01/97 12:15 Page:203
      No diagnostics issued in procedure XSS$BLANKIT.
PL6.E3A0      #006=XSS$BLANKIT File=XSS$DATA.:XSA1TSI                            WED 10/01/97 12:15 Page:204

 **** Variables and constants ****

  ****  Auto variables  ****

  ****  Scalars and arrays  ****
OctLoc.c.b A Datatyp(siz) R M Lvl/name                 OctLoc.c.b A Datatyp(siz) R M Lvl/name

     3-0-0/w SBIN        r     1 DIFF

  ****  SYMREF variables  ****

  ****  Scalars and arrays  ****
OctLoc.c.b A Datatyp(siz) R M Lvl/name                 OctLoc.c.b A Datatyp(siz) R M Lvl/name

     0-0-0/w SBIN        r     1 XSS_BASE                   0-0-0/w PTR         r     1 XSS_DAT$
     0-0-0/c CHAR(80)    r     1 XSS_SCRITCH                0-0-0/w PTR         r     1 XSS_TOP$
     0-0-0/w PTR         r     1 XSS_VAL$


   Procedure XSS$BLANKIT requires 29 words for executable code.
   Procedure XSS$BLANKIT requires 6 words of local(AUTO) storage.
PL6.E3A0      #006=XSS$BLANKIT File=XSS$DATA.:XSA1TSI                            WED 10/01/97 12:15 Page:205
          *** CROSS REFERENCE LISTING ***
**     DENOTES     IDENTIFIER DEFINITION
<<                 IDENTIFIER'S VALUE SET
>>                 IDENTIFIER'S VALUE USED
<>                 IDENTIFIER SET AND/OR USED
--                 IDENTIFIER REFERENCED
PL6.E3A0      #006=XSS$BLANKIT File=XSS$DATA.:XSA1TSI                            WED 10/01/97 12:15 Page:206
          MINI XREF LISTING

DIFF
        19**DCL        23<<ASSIGN     24<<ASSIGN     24>>ASSIGN     24>>ASSIGN     25>>CALLBLT    25>>CALLBLT
XSS_BASE
        14**DCL        23>>ASSIGN
XSS_DAT$
        17**DCL        23>>ASSIGN
XSS_SCRITCH
        13**DCL        25<<CALLBLT    25--CALLBLT
XSS_TOP$
        16**DCL        21>>IF         23>>ASSIGN
XSS_VAL$
        15**DCL        21>>IF
PL6.E3A0      #006=XSS$BLANKIT File=XSS$DATA.:XSA1TSI                            WED 10/01/97 12:15 Page:207
              *** CROSS REFERENCE LISTING ***
    **     DENOTES     IDENTIFIER DEFINITION
    <<                 IDENTIFIER'S VALUE SET
    >>                 IDENTIFIER'S VALUE USED
    <>                 IDENTIFIER SET AND/OR USED
    --                 IDENTIFIER REFERENCED
PL6.E3A0      #006=XSS$BLANKIT File=XSS$DATA.:XSA1TSI                            WED 10/01/97 12:15 Page:208
              MINI UREF LISTING

XSS$BLANKIT      11**PROC

PL6.E3A0      #007=XSS$SCREECH File=XSS$DATA.:XSA1TSI                            WED 10/01/97 12:15 Page:209
      967        1        /*T***********************************************************/
      968        2        /*T*                                                         */
      969        3        /*T* Copyright (c) Bull HN Information Systems Inc., 1997    */
      970        4        /*T*                                                         */
      971        5        /*T***********************************************************/
      972        6        /*F*
      973        7                NAME:   XSS$SCREECH
      974        8                PURPOSE:
      975        9                    This module is called from various places in the ISO layers
      976       10                    when an irrecoverable error is discovered.
      977       11                DESCRIPTION:
      978       12                    The message associated with the indicated error code is displayed,
      979       13                    and then if the error severity is nonzero an M$ERR is issued.
      980       14        */
      981       15        XSS$SCREECH: PROC( PARM1);
      982       16        %INCLUDE CP_6;
      983     5575            %FPT_ERRMSG( CODE=ERRCODE, BUF=XSS_SCRATCH, OUTDCB1=M$DO);
      984     5602            %VLP_ERRCODE( FPTN=ERRCODE, STCLASS=STATIC);
      985     5647            %VLP_ERRCODE( FPTN=PARM1, STCLASS="");
      986     5692
      987     5693    1       DCL M$DO DCB;
      988     5694
      989     5695    1       DCL XSS_LOGDCBN SBIN SYMREF;
      990     5696    1       DCL XSS_SCRATCH CHAR(120) STATIC SYMDEF;
      991     5697
      992     5698    1       ERRCODE = PARM1;
      993     5699    1       FPT_ERRMSG.V.OUTDCB2# = XSS_LOGDCBN;
      994     5700    1       CALL M$ERRMSG( FPT_ERRMSG);
      995     5701    1       IF ERRCODE.SEV > 0 THEN
      996     5702    1           CALL M$ERR;
      997     5703    1       CALL M$EXIT;
      998     5704
      999     5705    1       END XSS$SCREECH;
     1000     5706        %EOD;

PL6.E3A0      #007=XSS$SCREECH File=XSS$DATA.:XSA1TSI                            WED 10/01/97 12:15 Page:210
--  Include file information  --

   CP_6_C.:LIB_E05  is referenced.
   CP_6.:LIB_E05  cannot be made into a system file and is referenced.
      No diagnostics issued in procedure XSS$SCREECH.

   Procedure XSS$SCREECH requires 18 words for executable code.
   Procedure XSS$SCREECH requires 4 words of local(AUTO) storage.

PL6.E3A0      #007=XSS$SCREECH File=XSS$DATA.:XSA1TSI                            WED 10/01/97 12:15 Page:211

 Object Unit name= XSS$SCREECH                                File name= XSS$DATA.:XSA1TOU
 UTS= OCT 01 '97 12:15:31.88 WED                              Compiler= PL-6/E31         Sev=      00
 SharedLib= :SHARED_SYSTEM                                    Alt SharedLib=


    ****  Control sections  ****

 Sect   Type Bound  Init  Size OctSiz  Section name(segment info)
    0   DCB   even  none     0      0  M$UC
    1   Data  even  none    57     71  XSS$SCREECH
    2   DCB   even  none     0      0  M$DO
    3   Proc  even  none    18     22  XSS$SCREECH

    ****  Entry defs  ****

                              Check   Calling
                             calling  sequence
  Sect OctLoc Primary Altret sequence   type   Parms  Name
     3      0   yes            yes      Std        1  XSS$SCREECH

  ****  Data defs  ****

 Sect OctLoc  Name                           Sect OctLoc  Name
    1     33  XSS_SCRATCH

  ****  Entry refs  ****

         Check        Calling
        calling       sequence
Altret sequence SRef   type   Args  Name
                       nStd      0 X66_AUTO_1
                       nStd      0 X66_ARET
PL6.E3A0      #007=XSS$SCREECH File=XSS$DATA.:XSA1TSI                            WED 10/01/97 12:15 Page:212

  ****  Data refs  ****

  Flags:  r = read only, s = secondary
Flgs Name                             Flgs Name                             Flgs Name
     M$UC                                  M$DO                                  XSS_LOGDCBN

  ****  Segment refs  ****

  Flags:  r = read only, s = secondary
Flgs Name                             Flgs Name                             Flgs Name
     ISSID                                 NULLSID
PL6.E3A0      #007=XSS$SCREECH File=XSS$DATA.:XSA1TSI                            WED 10/01/97 12:15 Page:213


      967        1        /*T***********************************************************/
      968        2        /*T*                                                         */
      969        3        /*T* Copyright (c) Bull HN Information Systems Inc., 1997    */
      970        4        /*T*                                                         */
      971        5        /*T***********************************************************/
      972        6        /*F*
      973        7                NAME:   XSS$SCREECH
      974        8                PURPOSE:
      975        9                    This module is called from various places in the ISO layers
      976       10                    when an irrecoverable error is discovered.
      977       11                DESCRIPTION:
      978       12                    The message associated with the indicated error code is displayed,
      979       13                    and then if the error severity is nonzero an M$ERR is issued.
      980       14        */
      981       15        XSS$SCREECH: PROC( PARM1);

     15  3 000000   000000 700200 xent  XSS$SCREECH  TSX0  ! X66_AUTO_1
         3 000001   000004 000001                    ZERO    4,1

      982       16        %INCLUDE CP_6;
      983     5575            %FPT_ERRMSG( CODE=ERRCODE, BUF=XSS_SCRATCH, OUTDCB1=M$DO);
      984     5602            %VLP_ERRCODE( FPTN=ERRCODE, STCLASS=STATIC);
      985     5647            %VLP_ERRCODE( FPTN=PARM1, STCLASS="");
      986     5692
      987     5693    1       DCL M$DO DCB;
      988     5694
      989     5695    1       DCL XSS_LOGDCBN SBIN SYMREF;
      990     5696    1       DCL XSS_SCRATCH CHAR(120) STATIC SYMDEF;
      991     5697
      992     5698    1       ERRCODE = PARM1;

   5698  3 000002   200003 470500                    LDP0    @PARM1,,AUTO
         3 000003   000000 236100                    LDQ     0,,PR0
         3 000004   000032 756000 1                  STQ     ERRCODE

      993     5699    1       FPT_ERRMSG.V.OUTDCB2# = XSS_LOGDCBN;
PL6.E3A0      #007=XSS$SCREECH File=XSS$DATA.:XSA1TSI                            WED 10/01/97 12:15 Page:214

   5699  3 000005   000000 720000 xsym               LXL0    XSS_LOGDCBN
         3 000006   000027 740000 1                  STX0    FPT_ERRMSG+23

      994     5700    1       CALL M$ERRMSG( FPT_ERRMSG);

   5700  3 000007   000000 630400 1                  EPPR0   FPT_ERRMSG
         3 000010   020000 713400                    CLIMB   8192
         3 000011   405000 401760                    pmme    nvectors=11

      995     5701    1       IF ERRCODE.SEV > 0 THEN

   5701  3 000012   000032 236000 1                  LDQ     ERRCODE
         3 000013   000007 316007                    CANQ    7,DL
         3 000014   000017 600000 3                  TZE     s:5703

      996     5702    1           CALL M$ERR;

   5702  3 000015   000002 713400                    CLIMB   err
         3 000016   000000 401760                    pmme    nvectors=0

      997     5703    1       CALL M$EXIT;

   5703  3 000017   000001 713400                    CLIMB   exit
         3 000020   000000 401760                    pmme    nvectors=0

      998     5704
      999     5705    1       END XSS$SCREECH;

   5705  3 000021   000000 702200 xent               TSX2  ! X66_ARET

FPT_ERRMSG
 Sect OctLoc
   1     000   000003 777640   000026 006000   000000 777640   000032 006000    ................
   1     004   000035 777640   000033 006000   000000 177640   000000 006014    ................
   1     010   000000 177640   000000 006014   000000 177640   000000 006014    ................
   1     024*  000000 177640   000000 006014   000000 000000   000000 000000    ................
PL6.E3A0      #007=XSS$SCREECH File=XSS$DATA.:XSA1TSI                            WED 10/01/97 12:15 Page:215
   1     030   375000 030001   040000 000000                                    .... ...

ERRCODE
 Sect OctLoc
   1     032   000000 000000                                                    ....

XSS_SCRATCH
 Sect OctLoc
   1     033   ****** ******   ****** ******   ****** ******   ****** ******    ................
     1000     5706        %EOD;

PL6.E3A0      #007=XSS$SCREECH File=XSS$DATA.:XSA1TSI                            WED 10/01/97 12:15 Page:216
--  Include file information  --

   CP_6_C.:LIB_E05  is referenced.
   CP_6.:LIB_E05  cannot be made into a system file and is referenced.
      No diagnostics issued in procedure XSS$SCREECH.
PL6.E3A0      #007=XSS$SCREECH File=XSS$DATA.:XSA1TSI                            WED 10/01/97 12:15 Page:217

 **** Variables and constants ****

  ****  Section 001  Data  XSS$SCREECH

  ****  Scalars and arrays  ****
OctLoc.c.b A Datatyp(siz) R M Lvl/name                 OctLoc.c.b A Datatyp(siz) R M Lvl/name

    32-0-0/w STRC        r     1 ERRCODE                    0-0-0/d STRC(936)   r     1 FPT_ERRMSG
    33-0-0/c CHAR(120)   r     1 XSS_SCRATCH

  ****  Auto variables  ****

  ****  Scalars and arrays  ****
OctLoc.c.b A Datatyp(siz) R M Lvl/name                 OctLoc.c.b A Datatyp(siz) R M Lvl/name

     3-0-0/w PTR         r     1 @PARM1                    *0-0-0/w STRC        r     1 PARM1

  ****  SYMREF variables  ****

  ****  Scalars and arrays  ****
OctLoc.c.b A Datatyp(siz) R M Lvl/name                 OctLoc.c.b A Datatyp(siz) R M Lvl/name

     0-0-0/w SBIN        r     1 XSS_LOGDCBN

  ****  BASED and DCB variables  ****

  ****  Scalars and arrays  ****
OctLoc.c.b A Datatyp(siz) R M Lvl/name                 OctLoc.c.b A Datatyp(siz) R M Lvl/name

     0-0-0N  NULL        r     1 M$DO


   Procedure XSS$SCREECH requires 18 words for executable code.
   Procedure XSS$SCREECH requires 4 words of local(AUTO) storage.
PL6.E3A0      #007=XSS$SCREECH File=XSS$DATA.:XSA1TSI                            WED 10/01/97 12:15 Page:218
          *** CROSS REFERENCE LISTING ***
**     DENOTES     IDENTIFIER DEFINITION
<<                 IDENTIFIER'S VALUE SET
>>                 IDENTIFIER'S VALUE USED
<>                 IDENTIFIER SET AND/OR USED
--                 IDENTIFIER REFERENCED
PL6.E3A0      #007=XSS$SCREECH File=XSS$DATA.:XSA1TSI                            WED 10/01/97 12:15 Page:219
          MINI XREF LISTING

ERRCODE
      5614**DCL      5586--DCLINIT  5698<<ASSIGN
ERRCODE.SEV
      5644**DCL      5701>>IF
FPT_ERRMSG
      5586**DCL      5700<>CALL
FPT_ERRMSG.V
      5590**DCL      5586--DCLINIT
FPT_ERRMSG.V.OUTDCB2#
      5591**DCL      5699<<ASSIGN
M$ERR
      5515**DCL-ENT  5702--CALL
M$ERRMSG
      5566**DCL-ENT  5700--CALL
M$EXIT
      5515**DCL-ENT  5703--CALL
PARM1
      5659**DCL        15--PROC     5698>>ASSIGN
XSS_LOGDCBN
      5695**DCL      5699>>ASSIGN
XSS_SCRATCH
      5696**DCL      5587--DCLINIT
PL6.E3A0      #007=XSS$SCREECH File=XSS$DATA.:XSA1TSI                            WED 10/01/97 12:15 Page:220
              *** CROSS REFERENCE LISTING ***
    **     DENOTES     IDENTIFIER DEFINITION
    <<                 IDENTIFIER'S VALUE SET
    >>                 IDENTIFIER'S VALUE USED
    <>                 IDENTIFIER SET AND/OR USED
    --                 IDENTIFIER REFERENCED
PL6.E3A0      #007=XSS$SCREECH File=XSS$DATA.:XSA1TSI                            WED 10/01/97 12:15 Page:221
              MINI UREF LISTING

M$ACCT    5520**DCL-ENT
M$ACTIVATE    5523**DCL-ENT
M$ALIB    5516**DCL-ENT
M$ASUSER    5518**DCL-ENT
M$ATTACH    5525**DCL-ENT
M$BADPP    5543**DCL-ENT
M$CGCTL    5524**DCL-ENT
M$CGINFO    5524**DCL-ENT
M$CHECK    5505**DCL-ENT
M$CHGUNIT    5563**DCL-ENT
M$CLOSE    5503**DCL-ENT
M$CLRSTK    5561**DCL-ENT
M$CMDVAR    5572**DCL-ENT
M$CONFIG    5533**DCL-ENT
M$CORRES    5508**DCL-ENT
M$CPEXIT    5517**DCL-ENT
M$CVM    5541**DCL-ENT
M$CVOL    5506**DCL-ENT
M$DCLFLD    5533**DCL-ENT
M$DEACTIVATE    5523**DCL-ENT
M$DELREC    5505**DCL-ENT
M$DEQ    5570**DCL-ENT
M$DETACH    5525**DCL-ENT
M$DEVICE    5507**DCL-ENT
M$DISPLAY    5570**DCL-ENT
M$DISPRES    5510**DCL-ENT
M$DLIB    5516**DCL-ENT
M$DO    5693**DCL
M$DRIBBLE    5533**DCL-ENT
M$DRTN    5561**DCL-ENT
M$DSUSER    5518**DCL-ENT
M$ENQ    5569**DCL-ENT
PL6.E3A0      #007=XSS$SCREECH File=XSS$DATA.:XSA1TSI                            WED 10/01/97 12:15 Page:222
M$EOM    5528**DCL-ENT
M$ERASE    5534**DCL-ENT
M$EVENT    5558**DCL-ENT
M$EXHUME    5567**DCL-ENT
M$EXTEND    5507**DCL-ENT
M$FDP    5539**DCL-ENT
M$FDS    5538**DCL-ENT
M$FEBOOT    5531**DCL-ENT
M$FECTL    5532**DCL-ENT
M$FEDUMP    5531**DCL-ENT
M$FID    5566**DCL-ENT
M$FINDPROC    5520**DCL-ENT
M$FSUSER    5518**DCL-ENT
M$FVP    5540**DCL-ENT
M$FWCG    5524**DCL-ENT
M$GBPL    5544**DCL-ENT
M$GDDL    5540**DCL-ENT
M$GDP    5539**DCL-ENT
M$GDS    5538**DCL-ENT
M$GETDCB    5509**DCL-ENT
M$GETMOUSE    5549**DCL-ENT
M$GETPM    5550**DCL-ENT
M$GJOB    5568**DCL-ENT
M$GLINEATTR    5528**DCL-ENT
M$GOODPP    5543**DCL-ENT
M$GPLATEN    5536**DCL-ENT
M$GPROMPT    5535**DCL-ENT
M$GTRMATTR    5529**DCL-ENT
M$GTRMCTL    5527**DCL-ENT
M$GTRMTAB    5530**DCL-ENT
M$GVP    5539**DCL-ENT
M$HELP    5566**DCL-ENT
M$INT    5558**DCL-ENT
M$INTRTN    5519**DCL-ENT
M$IOQ    5554**DCL-ENT
M$JOBSTATS    5568**DCL-ENT
PL6.E3A0      #007=XSS$SCREECH File=XSS$DATA.:XSA1TSI                            WED 10/01/97 12:15 Page:223
M$KEYIN    5508**DCL-ENT
M$LDEV    5503**DCL-ENT
M$LDTRC    5516**DCL-ENT
M$LIMIT    5509**DCL-ENT
M$LINES    5508**DCL-ENT
M$LINK    5515**DCL-ENT
M$MADMUCK    5511**DCL-ENT
M$MAKUSER    5542**DCL-ENT
M$MBS    5510**DCL-ENT
M$MDFFLD    5534**DCL-ENT
M$MERC    5559**DCL-ENT
M$MERCS    5560**DCL-ENT
M$MIRROR    5554**DCL-ENT
M$MONINFO    5571**DCL-ENT
M$MPL    5544**DCL-ENT
M$NODEINFO    5535**DCL-ENT
M$NXTUSR    5569**DCL-ENT
M$OCMSG    5567**DCL-ENT
M$OLAY    5515**DCL-ENT
M$OPEN    5503**DCL-ENT
M$PAS    5544**DCL-ENT
M$PATHCON    5567**DCL-ENT
M$PDS    5538**DCL-ENT
M$PFIL    5505**DCL-ENT
M$PLATEN    5529**DCL-ENT
M$PRECORD    5507**DCL-ENT
M$PROCNAME    5520**DCL-ENT
M$PROFILE    5531**DCL-ENT
M$PROMPT    5527**DCL-ENT
M$RACST    5511**DCL-ENT
M$RDSYSLOG    5552**DCL-ENT
M$READ    5504**DCL-ENT
M$RELDCB    5509**DCL-ENT
M$RELRES    5510**DCL-ENT
M$RELSTARF    5512**DCL-ENT
M$REM    5512**DCL-ENT
PL6.E3A0      #007=XSS$SCREECH File=XSS$DATA.:XSA1TSI                            WED 10/01/97 12:15 Page:224
M$RENV    5559**DCL-ENT
M$REQUIRE    5511**DCL-ENT
M$RETRY    5560**DCL-ENT
M$RETRYS    5560**DCL-ENT
M$REW    5506**DCL-ENT
M$RLSFLD    5534**DCL-ENT
M$RPRIV    5562**DCL-ENT
M$RSPP    5541**DCL-ENT
M$RSWITCH    5563**DCL-ENT
M$RUE    5569**DCL-ENT
M$SAD    5542**DCL-ENT
M$SAVE    5518**DCL-ENT
M$SCON    5519**DCL-ENT
M$SCREECH    5517**DCL-ENT
M$SENV    5559**DCL-ENT
M$SETFMA    5503**DCL-ENT
M$SETFP    5532**DCL-ENT
M$SINPUT    5530**DCL-ENT
M$SLCFLD    5535**DCL-ENT
M$SMOUSE    5549**DCL-ENT
M$SMPRT    5541**DCL-ENT
M$SPRIV    5562**DCL-ENT
M$SSC    5542**DCL-ENT
M$SSWITCH    5562**DCL-ENT
M$STATE    5571**DCL-ENT
M$STD    5543**DCL-ENT
M$STIMER    5557**DCL-ENT
M$STLPP    5540**DCL-ENT
M$STRAP    5557**DCL-ENT
M$STRMATTR    5529**DCL-ENT
M$STRMCTL    5527**DCL-ENT
M$STRMTAB    5530**DCL-ENT
M$SYMBIO    5568**DCL-ENT
M$SYSCON    5554**DCL-ENT
M$SYSID    5572**DCL-ENT
M$TDCLOSE    5553**DCL-ENT
PL6.E3A0      #007=XSS$SCREECH File=XSS$DATA.:XSA1TSI                            WED 10/01/97 12:15 Page:225
M$TDIO    5553**DCL-ENT
M$TDOPEN    5552**DCL-ENT
M$TDREQCPU    5553**DCL-ENT
M$TEMPWROC    5547**DCL-ENT
M$TIME    5570**DCL-ENT
M$TRAP    5557**DCL-ENT
M$TRMISC    5532**DCL-ENT
M$TRMPRG    5528**DCL-ENT
M$TRTN    5561**DCL-ENT
M$TRUNC    5504**DCL-ENT
M$TTIMER    5557**DCL-ENT
M$UC    5527**DCL
M$UMPL    5544**DCL-ENT
M$UNFID    5566**DCL-ENT
M$UNLATCH    5523**DCL-ENT
M$UNSHARE    5520**DCL-ENT
M$USRFIELD    5563**DCL-ENT
M$VIRTUAL    5538**DCL-ENT
M$WAIT    5561**DCL-ENT
M$WEOF    5506**DCL-ENT
M$WRITE    5504**DCL-ENT
M$WRSYSLOG    5552**DCL-ENT
M$XCON    5558**DCL-ENT
M$XCONRTN    5519**DCL-ENT
M$XEQTIME    5571**DCL-ENT
M$XFLUSH    5512**DCL-ENT
M$XMOUSE    5549**DCL-ENT
M$XXX    5515**DCL-ENT
M$YC    5517**DCL-ENT
XSS$SCREECH      15**PROC

PL6.E3A0      #008=XSS$TXTC2NSAP File=XSS$DATA.:XSA1TSI                          WED 10/01/97 12:15 Page:226
     1001        1        /*T***********************************************************/
     1002        2        /*T*                                                         */
     1003        3        /*T* Copyright (c) Bull HN Information Systems Inc., 1997    */
     1004        4        /*T*                                                         */
     1005        5        /*T***********************************************************/
     1006        6        /*X* DDA */
     1007        7        /*F*
     1008        8                NAME:   XSS$TXTC2NSAP
     1009        9                NAME:   XSS$NSAP2TXTC
     1010       10                PURPOSE:
     1011       11                    These routines convert between a TEXTC hex digit character
     1012       12                    representation of a Network address, and a K$NSAP structure,
     1013       13                    and vice-versa.
     1014       14                DESCRIPTION:
     1015       15                    Self-evident.
     1016       16        */
     1017       17        XSS$TXTC2NSAP: PROC( PARM1, PARM2) ALTRET;
     1018       18        %INCLUDE K_ADDRESS_M;
     1019      521            %K$NSAP( FPTN=NSAP, STCLASS="BASED( NSAP$)");
     1020      573
     1021      574    1       DCL PARM1 UBIN;
     1022      575    1       DCL PARM2 UBIN;
     1023      576    1       DCL NSAP$ PTR CALIGNED;
     1024      577    1       DCL TXTC$ PTR CALIGNED;
     1025      578    1       DCL 1 TXTC BASED( TXTC$),
     1026      579    1            2 LEN UBIN BYTE CALIGNED,
     1027      580    1            2 TXT CHAR( TXTC.LEN) CALIGNED;
     1028      581    1       DCL BIN SBIN;
     1029      582    1       DCL CHR CHAR(1) CALIGNED;
     1030      583    1       DCL I SBIN;
     1031      584    1       DCL J SBIN;
     1032      585    1       DCL LEN SBIN;
     1033      586    1       DCL LHEX CHAR(16) CONSTANT INIT( '0123456789abcdef');
     1034      587    1       DCL UHEX CHAR(16) CONSTANT INIT( '0123456789ABCDEF');
     1035      588    1       DCL X SBIN;
     1036      589
     1037      590    1       TXTC$ = ADDR( PARM1);
PL6.E3A0      #008=XSS$TXTC2NSAP File=XSS$DATA.:XSA1TSI                          WED 10/01/97 12:15 Page:227
     1038      591    1       NSAP$ = ADDR( PARM2);
     1039      592    1       J = 0;
     1040      593    1       NSAP = '0'B;
     1041      594    1       LEN = TXTC.LEN;
     1042      595    1       NSAP.LEN = ( LEN + 1) / 2;
     1043      596    1       NSAP.AFI = %K_AFI_BIN_X121;  /*N* assumed... */
     1044      597    2       DO I = 0 TO LEN - 1;
     1045      598    2           CHR = SUBSTR( TXTC.TXT, I, 1);
     1046      599    2           CALL INDEX1( X, CHR, LHEX)
     1047      600    3           WHENALTRETURN DO;
     1048      601    3               CALL INDEX1( X, CHR, UHEX)
     1049      602    4               WHENALTRETURN DO;
     1050      603    4                   ALTRETURN;
     1051      604    4                   END;
     1052      605    3               END;
     1053      606    2           IF NOT BINBIT( I, 1) THEN
     1054      607    2               X = X * 16;
     1055      608    2           NSAP.ADDRESS_N( J) = NSAP.ADDRESS_N( J) + X;
     1056      609    2           J = J + BITBIN( BINBIT( I, 1));
     1057      610    2           END;
     1058      611    1       RETURN;
     1059      612
     1060      613    1   XSS$NSAP2TXTC: ENTRY( PARM1, PARM2) ALTRET;
     1061      614
     1062      615    1       NSAP$ = ADDR( PARM1);
     1063      616    1       TXTC$ = ADDR( PARM2);
     1064      617    1       J = 0;
     1065      618    1       TXTC = '0'B;
     1066      619    1       LEN = NSAP.LEN;
     1067      620    1       TXTC.LEN = LEN + LEN;
     1068      621    2       DO I = 0 TO LEN - 1;
     1069      622    2           BIN = NSAP.ADDRESS_N( I);
     1070      623    2           SUBSTR( TXTC.TXT, J + 0, 1) = SUBSTR( UHEX, BIN / 16, 1);
     1071      624    2           SUBSTR( TXTC.TXT, J + 1, 1) = SUBSTR( UHEX, MOD( BIN, 16), 1);
     1072      625    2           J = J + 2;
     1073      626    2           END;
     1074      627    1       RETURN;
PL6.E3A0      #008=XSS$TXTC2NSAP File=XSS$DATA.:XSA1TSI                          WED 10/01/97 12:15 Page:228
     1075      628
     1076      629    1       END XSS$TXTC2NSAP;

PL6.E3A0      #008=XSS$TXTC2NSAP File=XSS$DATA.:XSA1TSI                          WED 10/01/97 12:15 Page:229
--  Include file information  --

   K_ADDRESS_M.:LIB_E05  is referenced.
      No diagnostics issued in procedure XSS$TXTC2NSAP.

   Procedure XSS$TXTC2NSAP requires 137 words for executable code.
   Procedure XSS$TXTC2NSAP requires 16 words of local(AUTO) storage.

    No errors detected in file XSS$DATA.:XSA1TSI    .

PL6.E3A0      #008=XSS$TXTC2NSAP File=XSS$DATA.:XSA1TSI                          WED 10/01/97 12:15 Page:230

 Object Unit name= XSS$TXTC2NSAP                              File name= XSS$DATA.:XSA1TOU
 UTS= OCT 01 '97 12:15:55.16 WED                              Compiler= PL-6/E31         Sev=      00
 SharedLib= :SHARED_SYSTEM                                    Alt SharedLib=


    ****  Control sections  ****

 Sect   Type Bound  Init  Size OctSiz  Section name(segment info)
    0  RoData even  UTS      8     10  XSS$TXTC2NSAP
    1   Proc  even  none   137    211  XSS$TXTC2NSAP
    2  RoData even  none     2      2  XSS$TXTC2NSAP

    ****  Entry defs  ****

                              Check   Calling
                             calling  sequence
  Sect OctLoc Primary Altret sequence   type   Parms  Name
     1      0   yes    yes     yes      Std        2  XSS$TXTC2NSAP
     1    114          yes     yes      Std        2  XSS$NSAP2TXTC

  ****  Entry refs  ****

         Check        Calling
        calling       sequence
Altret sequence SRef   type   Args  Name
                       nStd      0 X66_AUTO_2
                       nStd      0 X66_AALT
                       nStd      0 X66_ARET
PL6.E3A0      #008=XSS$TXTC2NSAP File=XSS$DATA.:XSA1TSI                          WED 10/01/97 12:15 Page:231


     1001        1        /*T***********************************************************/
     1002        2        /*T*                                                         */
     1003        3        /*T* Copyright (c) Bull HN Information Systems Inc., 1997    */
     1004        4        /*T*                                                         */
     1005        5        /*T***********************************************************/
     1006        6        /*X* DDA */
     1007        7        /*F*
     1008        8                NAME:   XSS$TXTC2NSAP
     1009        9                NAME:   XSS$NSAP2TXTC
     1010       10                PURPOSE:
     1011       11                    These routines convert between a TEXTC hex digit character
     1012       12                    representation of a Network address, and a K$NSAP structure,
     1013       13                    and vice-versa.
     1014       14                DESCRIPTION:
     1015       15                    Self-evident.
     1016       16        */
     1017       17        XSS$TXTC2NSAP: PROC( PARM1, PARM2) ALTRET;

     17  1 000000   000000 700200 xent  XSS$TXTC2NS* TSX0  ! X66_AUTO_2
         1 000001   000020 000002                    ZERO    16,2

     1018       18        %INCLUDE K_ADDRESS_M;
     1019      521            %K$NSAP( FPTN=NSAP, STCLASS="BASED( NSAP$)");
     1020      573
     1021      574    1       DCL PARM1 UBIN;
     1022      575    1       DCL PARM2 UBIN;
     1023      576    1       DCL NSAP$ PTR CALIGNED;
     1024      577    1       DCL TXTC$ PTR CALIGNED;
     1025      578    1       DCL 1 TXTC BASED( TXTC$),
     1026      579    1            2 LEN UBIN BYTE CALIGNED,
     1027      580    1            2 TXT CHAR( TXTC.LEN) CALIGNED;
     1028      581    1       DCL BIN SBIN;
     1029      582    1       DCL CHR CHAR(1) CALIGNED;
     1030      583    1       DCL I SBIN;
     1031      584    1       DCL J SBIN;
     1032      585    1       DCL LEN SBIN;
PL6.E3A0      #008=XSS$TXTC2NSAP File=XSS$DATA.:XSA1TSI                          WED 10/01/97 12:15 Page:232
     1033      586    1       DCL LHEX CHAR(16) CONSTANT INIT( '0123456789abcdef');
     1034      587    1       DCL UHEX CHAR(16) CONSTANT INIT( '0123456789ABCDEF');
     1035      588    1       DCL X SBIN;
     1036      589
     1037      590    1       TXTC$ = ADDR( PARM1);

    590  1 000002   200003 236100                    LDQ     @PARM1,,AUTO
         1 000003   200006 756100                    STQ     TXTC$,,AUTO

     1038      591    1       NSAP$ = ADDR( PARM2);

    591  1 000004   200004 236100                    LDQ     @PARM2,,AUTO
         1 000005   200005 756100                    STQ     NSAP$,,AUTO

     1039      592    1       J = 0;

    592  1 000006   200012 450100                    STZ     J,,AUTO

     1040      593    1       NSAP = '0'B;

    593  1 000007   200005 470500                    LDP0    NSAP$,,AUTO
         1 000010   000100 100400                    MLR     fill='000'O
         1 000011   000000 000001 2                  ADSC9   0                        cn=0,n=1
         1 000012   000000 000026                    ADSC9   0,,PR0                   cn=0,n=22

     1041      594    1       LEN = TXTC.LEN;

    594  1 000013   200006 471500                    LDP1    TXTC$,,AUTO
         1 000014   000100 101500                    MRL     fill='000'O
         1 000015   100000 000001                    ADSC9   0,,PR1                   cn=0,n=1
         1 000016   200013 000004                    ADSC9   LEN,,AUTO                cn=0,n=4

     1042      595    1       NSAP.LEN = ( LEN + 1) / 2;

    595  1 000017   200013 236100                    LDQ     LEN,,AUTO
         1 000020   000001 036007                    ADLQ    1,DL
         1 000021   000002 506007                    DIV     2,DL
PL6.E3A0      #008=XSS$TXTC2NSAP File=XSS$DATA.:XSA1TSI                          WED 10/01/97 12:15 Page:233
         1 000022   200016 756100                    STQ     X+2,,AUTO
         1 000023   000100 101500                    MRL     fill='000'O
         1 000024   200016 000004                    ADSC9   X+2,,AUTO                cn=0,n=4
         1 000025   000000 000001                    ADSC9   0,,PR0                   cn=0,n=1

     1043      596    1       NSAP.AFI = %K_AFI_BIN_X121;  /*N* assumed... */

    596  1 000026   000100 101400                    MRL     fill='000'O
         1 000027   000001 000004 2                  ADSC9   1                        cn=0,n=4
         1 000030   000000 200001                    ADSC9   0,,PR0                   cn=1,n=1

     1044      597    2       DO I = 0 TO LEN - 1;

    597  1 000031   200011 450100                    STZ     I,,AUTO
         1 000032   000110 710000 1                  TRA     s:610+1

     1045      598    2           CHR = SUBSTR( TXTC.TXT, I, 1);

    598  1 000033   200006 470500                    LDP0    TXTC$,,AUTO
         1 000034   000100 101500                    MRL     fill='000'O
         1 000035   000000 000001                    ADSC9   0,,PR0                   cn=0,n=1
         1 000036   200016 000002                    ADSC9   X+2,,AUTO                cn=0,n=2
         1 000037   200016 220100                    LDX0    X+2,,AUTO
         1 000040   200011 235100                    LDA     I,,AUTO
         1 000041   040100 100505                    MLR     fill='040'O
         1 000042   000000 200001                    ADSC9   0,A,PR0                  cn=1,n=1
         1 000043   200010 000001                    ADSC9   CHR,,AUTO                cn=0,n=1

     1046      599    2           CALL INDEX1( X, CHR, LHEX)

    599  1 000044   000100 124400                    SCM     mask='000'O
         1 000045   000000 000020 0                  ADSC9   LHEX                     cn=0,n=16
         1 000046   200010 000001                    ADSC9   CHR,,AUTO                cn=0,n=1
         1 000047   200014 000100                    ARG     X,,AUTO
         1 000050   000052 606400 1                  TTN     s:601
         1 000051   000061 710000 1                  TRA     s:606

PL6.E3A0      #008=XSS$TXTC2NSAP File=XSS$DATA.:XSA1TSI                          WED 10/01/97 12:15 Page:234
     1047      600    3           WHENALTRETURN DO;

     1048      601    3               CALL INDEX1( X, CHR, UHEX)

    601  1 000052   000100 124400                    SCM     mask='000'O
         1 000053   000004 000020 0                  ADSC9   UHEX                     cn=0,n=16
         1 000054   200010 000001                    ADSC9   CHR,,AUTO                cn=0,n=1
         1 000055   200014 000100                    ARG     X,,AUTO
         1 000056   000060 606400 1                  TTN     s:603
         1 000057   000061 710000 1                  TRA     s:606

     1049      602    4               WHENALTRETURN DO;

     1050      603    4                   ALTRETURN;

    603  1 000060   000000 702200 xent               TSX2  ! X66_AALT

     1051      604    4                   END;
     1052      605    3               END;

     1053      606    2           IF NOT BINBIT( I, 1) THEN

    606  1 000061   200011 236100                    LDQ     I,,AUTO
         1 000062   000043 736000                    QLS     35
         1 000063   000067 601000 1                  TNZ     s:608

     1054      607    2               X = X * 16;

    607  1 000064   200014 235100                    LDA     X,,AUTO
         1 000065   000004 735000                    ALS     4
         1 000066   200014 755100                    STA     X,,AUTO

     1055      608    2           NSAP.ADDRESS_N( J) = NSAP.ADDRESS_N( J) + X;

    608  1 000067   200005 470500                    LDP0    NSAP$,,AUTO
         1 000070   200012 235100                    LDA     J,,AUTO
         1 000071   000100 101505                    MRL     fill='000'O
PL6.E3A0      #008=XSS$TXTC2NSAP File=XSS$DATA.:XSA1TSI                          WED 10/01/97 12:15 Page:235
         1 000072   000000 400001                    ADSC9   0,A,PR0                  cn=2,n=1
         1 000073   200016 000004                    ADSC9   X+2,,AUTO                cn=0,n=4
         1 000074   200016 236100                    LDQ     X+2,,AUTO
         1 000075   200014 036100                    ADLQ    X,,AUTO
         1 000076   200017 756100                    STQ     X+3,,AUTO
         1 000077   000105 101500                    MRL     fill='000'O
         1 000100   200017 000004                    ADSC9   X+3,,AUTO                cn=0,n=4
         1 000101   000000 400001                    ADSC9   0,A,PR0                  cn=2,n=1

     1056      609    2           J = J + BITBIN( BINBIT( I, 1));

    609  1 000102   200011 236100                    LDQ     I,,AUTO
         1 000103   000043 736000                    QLS     35
         1 000104   000043 772000                    QRL     35
         1 000105   200012 036100                    ADLQ    J,,AUTO
         1 000106   200012 756100                    STQ     J,,AUTO

     1057      610    2           END;

    610  1 000107   200011 054100                    AOS     I,,AUTO
         1 000110   200011 236100                    LDQ     I,,AUTO
         1 000111   200013 116100                    CMPQ    LEN,,AUTO
         1 000112   000033 604000 1                  TMI     s:598

     1058      611    1       RETURN;

    611  1 000113   000000 702200 xent               TSX2  ! X66_ARET

     1059      612
     1060      613    1   XSS$NSAP2TXTC: ENTRY( PARM1, PARM2) ALTRET;

    613  1 000114   000000 700200 xent  XSS$NSAP2TX* TSX0  ! X66_AUTO_2
         1 000115   000020 000002                    ZERO    16,2

     1061      614
     1062      615    1       NSAP$ = ADDR( PARM1);

PL6.E3A0      #008=XSS$TXTC2NSAP File=XSS$DATA.:XSA1TSI                          WED 10/01/97 12:15 Page:236
    615  1 000116   200003 236100                    LDQ     @PARM1,,AUTO
         1 000117   200005 756100                    STQ     NSAP$,,AUTO

     1063      616    1       TXTC$ = ADDR( PARM2);

    616  1 000120   200004 236100                    LDQ     @PARM2,,AUTO
         1 000121   200006 756100                    STQ     TXTC$,,AUTO

     1064      617    1       J = 0;

    617  1 000122   200012 450100                    STZ     J,,AUTO

     1065      618    1       TXTC = '0'B;

    618  1 000123   200006 470500                    LDP0    TXTC$,,AUTO
         1 000124   000100 101500                    MRL     fill='000'O
         1 000125   000000 000001                    ADSC9   0,,PR0                   cn=0,n=1
         1 000126   200016 000002                    ADSC9   X+2,,AUTO                cn=0,n=2
         1 000127   200016 220100                    LDX0    X+2,,AUTO
         1 000130   000001 621010                    EAX1    1,X0
         1 000131   000140 100400                    MLR     fill='000'O
         1 000132   000000 000001 2                  ADSC9   0                        cn=0,n=1
         1 000133   000000 000011                    ADSC9   0,,PR0                   cn=0,n=*X1

     1066      619    1       LEN = NSAP.LEN;

    619  1 000134   200005 471500                    LDP1    NSAP$,,AUTO
         1 000135   000100 101500                    MRL     fill='000'O
         1 000136   100000 000001                    ADSC9   0,,PR1                   cn=0,n=1
         1 000137   200013 000004                    ADSC9   LEN,,AUTO                cn=0,n=4

     1067      620    1       TXTC.LEN = LEN + LEN;

    620  1 000140   200013 236100                    LDQ     LEN,,AUTO
         1 000141   200013 036100                    ADLQ    LEN,,AUTO
         1 000142   200016 756100                    STQ     X+2,,AUTO
         1 000143   000100 101500                    MRL     fill='000'O
PL6.E3A0      #008=XSS$TXTC2NSAP File=XSS$DATA.:XSA1TSI                          WED 10/01/97 12:15 Page:237
         1 000144   200016 000004                    ADSC9   X+2,,AUTO                cn=0,n=4
         1 000145   000000 000001                    ADSC9   0,,PR0                   cn=0,n=1

     1068      621    2       DO I = 0 TO LEN - 1;

    621  1 000146   200011 450100                    STZ     I,,AUTO
         1 000147   000205 710000 1                  TRA     s:626+1

     1069      622    2           BIN = NSAP.ADDRESS_N( I);

    622  1 000150   200005 470500                    LDP0    NSAP$,,AUTO
         1 000151   200011 235100                    LDA     I,,AUTO
         1 000152   000100 101505                    MRL     fill='000'O
         1 000153   000000 400001                    ADSC9   0,A,PR0                  cn=2,n=1
         1 000154   200007 000004                    ADSC9   BIN,,AUTO                cn=0,n=4

     1070      623    2           SUBSTR( TXTC.TXT, J + 0, 1) = SUBSTR( UHEX, BIN / 16, 1);

    623  1 000155   200006 471500                    LDP1    TXTC$,,AUTO
         1 000156   000100 101500                    MRL     fill='000'O
         1 000157   100000 000001                    ADSC9   0,,PR1                   cn=0,n=1
         1 000160   200016 000002                    ADSC9   X+2,,AUTO                cn=0,n=2
         1 000161   200016 220100                    LDX0    X+2,,AUTO
         1 000162   200007 236100                    LDQ     BIN,,AUTO
         1 000163   000020 506007                    DIV     16,DL
         1 000164   200012 235100                    LDA     J,,AUTO
         1 000165   040105 100406                    MLR     fill='040'O
         1 000166   000004 000001 0                  ADSC9   UHEX,Q                   cn=0,n=1
         1 000167   100000 200001                    ADSC9   0,A,PR1                  cn=1,n=1

     1071      624    2           SUBSTR( TXTC.TXT, J + 1, 1) = SUBSTR( UHEX, MOD( BIN, 16), 1);

    624  1 000170   000100 101500                    MRL     fill='000'O
         1 000171   100000 000001                    ADSC9   0,,PR1                   cn=0,n=1
         1 000172   200016 000002                    ADSC9   X+2,,AUTO                cn=0,n=2
         1 000173   200016 220100                    LDX0    X+2,,AUTO
         1 000174   200007 236100                    LDQ     BIN,,AUTO
PL6.E3A0      #008=XSS$TXTC2NSAP File=XSS$DATA.:XSA1TSI                          WED 10/01/97 12:15 Page:238
         1 000175   000020 506007                    DIV     16,DL
         1 000176   200012 236100                    LDQ     J,,AUTO
         1 000177   040106 100405                    MLR     fill='040'O
         1 000200   000004 000001 0                  ADSC9   UHEX,A                   cn=0,n=1
         1 000201   100000 400001                    ADSC9   0,Q,PR1                  cn=2,n=1

     1072      625    2           J = J + 2;

    625  1 000202   000002 236007                    LDQ     2,DL
         1 000203   200012 056100                    ASQ     J,,AUTO

     1073      626    2           END;

    626  1 000204   200011 054100                    AOS     I,,AUTO
         1 000205   200011 236100                    LDQ     I,,AUTO
         1 000206   200013 116100                    CMPQ    LEN,,AUTO
         1 000207   000150 604000 1                  TMI     s:622

     1074      627    1       RETURN;

    627  1 000210   000000 702200 xent               TSX2  ! X66_ARET

LHEX
 Sect OctLoc
   0     000   060061 062063   064065 066067   070071 141142   143144 145146    0123456789abcdef

UHEX
 Sect OctLoc
   0     004   060061 062063   064065 066067   070071 101102   103104 105106    0123456789ABCDEF

(unnamed)
 Sect OctLoc
   2     000   000000 000000   000000 000067                                    .......7
     1075      628
     1076      629    1       END XSS$TXTC2NSAP;

PL6.E3A0      #008=XSS$TXTC2NSAP File=XSS$DATA.:XSA1TSI                          WED 10/01/97 12:15 Page:239
--  Include file information  --

   K_ADDRESS_M.:LIB_E05  is referenced.
      No diagnostics issued in procedure XSS$TXTC2NSAP.
PL6.E3A0      #008=XSS$TXTC2NSAP File=XSS$DATA.:XSA1TSI                          WED 10/01/97 12:15 Page:240

 **** Variables and constants ****

  ****  Section 000 RoData XSS$TXTC2NSAP

  ****  Scalars and arrays  ****
OctLoc.c.b A Datatyp(siz) R M Lvl/name                 OctLoc.c.b A Datatyp(siz) R M Lvl/name

     0-0-0/c CHAR(16)    r     1 LHEX                       4-0-0/c CHAR(16)    r     1 UHEX

  ****  Auto variables  ****

  ****  Scalars and arrays  ****
OctLoc.c.b A Datatyp(siz) R M Lvl/name                 OctLoc.c.b A Datatyp(siz) R M Lvl/name

     3-0-0/w PTR         r     1 @PARM1                     4-0-0/w PTR         r     1 @PARM2
     7-0-0/w SBIN        r     1 BIN                       10-0-0/c CHAR        r     1 CHR
    11-0-0/w SBIN        r     1 I                         12-0-0/w SBIN        r     1 J
    13-0-0/w SBIN        r     1 LEN                        5-0-0/c PTR         r     1 NSAP$
    *0-0-0/w UBIN        r     1 PARM1                     *0-0-0/w UBIN        r     1 PARM2
     6-0-0/c PTR         r     1 TXTC$                     14-0-0/w SBIN        r     1 X

  ****  BASED and DCB variables  ****

  ****  Scalars and arrays  ****
OctLoc.c.b A Datatyp(siz) R M Lvl/name                 OctLoc.c.b A Datatyp(siz) R M Lvl/name

     0-0-0/c STRC(198)   r     1 NSAP                       0-0-0/c ASTR(9)     r     1 TXTC


   Procedure XSS$TXTC2NSAP requires 137 words for executable code.
   Procedure XSS$TXTC2NSAP requires 16 words of local(AUTO) storage.

    No errors detected in file XSS$DATA.:XSA1TSI    .
PL6.E3A0      #008=XSS$TXTC2NSAP File=XSS$DATA.:XSA1TSI                          WED 10/01/97 12:15 Page:241
          *** CROSS REFERENCE LISTING ***
**     DENOTES     IDENTIFIER DEFINITION
<<                 IDENTIFIER'S VALUE SET
>>                 IDENTIFIER'S VALUE USED
<>                 IDENTIFIER SET AND/OR USED
--                 IDENTIFIER REFERENCED
PL6.E3A0      #008=XSS$TXTC2NSAP File=XSS$DATA.:XSA1TSI                          WED 10/01/97 12:15 Page:242
          MINI XREF LISTING

BIN
       581**DCL       622<<ASSIGN    623>>ASSIGN    624>>ASSIGN
CHR
       582**DCL       598<<ASSIGN    599>>CALLBLT   601>>CALLBLT
I
       583**DCL       597<<DOINDEX   598>>ASSIGN    606>>IF        609>>ASSIGN    621<<DOINDEX   622>>ASSIGN
J
       584**DCL       592<<ASSIGN    608>>ASSIGN    608>>ASSIGN    609<<ASSIGN    609>>ASSIGN    617<<ASSIGN
       623>>ASSIGN    624>>ASSIGN    625<<ASSIGN    625>>ASSIGN
LEN
       585**DCL       594<<ASSIGN    595>>ASSIGN    597>>DOINDEX   619<<ASSIGN    620>>ASSIGN    620>>ASSIGN
       621>>DOINDEX
LHEX
       586**DCL       599>>CALLBLT
NSAP
       537**DCL       593<<ASSIGN
NSAP.ADDRESS_N
       569**DCL       570--REDEF     608<<ASSIGN    608>>ASSIGN    622>>ASSIGN
NSAP.AFI
       546**DCL       596<<ASSIGN
NSAP.LEN
       541**DCL       595<<ASSIGN    619>>ASSIGN
NSAP$
       576**DCL       537--IMP-PTR   591<<ASSIGN    593>>ASSIGN    595>>ASSIGN    596>>ASSIGN    608>>ASSIGN
       608>>ASSIGN    615<<ASSIGN    619>>ASSIGN    622>>ASSIGN
PARM1
       574**DCL        17--PROC      590--ASSIGN    613--ENTRY     615--ASSIGN
PARM2
       575**DCL        17--PROC      591--ASSIGN    613--ENTRY     616--ASSIGN
TXTC
       578**DCL       618<<ASSIGN
TXTC.LEN
PL6.E3A0      #008=XSS$TXTC2NSAP File=XSS$DATA.:XSA1TSI                          WED 10/01/97 12:15 Page:243
       579**DCL       580--IMP-SIZ   594>>ASSIGN    598>>ASSIGN    618>>ASSIGN    620<<ASSIGN    623>>ASSIGN
       624>>ASSIGN
TXTC.TXT
       580**DCL       598>>ASSIGN    623<<ASSIGN    624<<ASSIGN
TXTC$
       577**DCL       578--IMP-PTR   590<<ASSIGN    594>>ASSIGN    598>>ASSIGN    598>>ASSIGN    616<<ASSIGN
       618>>ASSIGN    618>>ASSIGN    620>>ASSIGN    623>>ASSIGN    623>>ASSIGN    624>>ASSIGN    624>>ASSIGN
UHEX
       587**DCL       601>>CALLBLT   623>>ASSIGN    624>>ASSIGN
X
       588**DCL       599<<CALLBLT   601<<CALLBLT   607<<ASSIGN    607>>ASSIGN    608>>ASSIGN
PL6.E3A0      #008=XSS$TXTC2NSAP File=XSS$DATA.:XSA1TSI                          WED 10/01/97 12:15 Page:244
              *** CROSS REFERENCE LISTING ***
    **     DENOTES     IDENTIFIER DEFINITION
    <<                 IDENTIFIER'S VALUE SET
    >>                 IDENTIFIER'S VALUE USED
    <>                 IDENTIFIER SET AND/OR USED
    --                 IDENTIFIER REFERENCED
PL6.E3A0      #008=XSS$TXTC2NSAP File=XSS$DATA.:XSA1TSI                          WED 10/01/97 12:15 Page:245
              MINI UREF LISTING

XSS$NSAP2TXTC     613**ENTRY
XSS$TXTC2NSAP      17**PROC
