PL6.E3A0      #001=XSS$MACHINE File=XSS$MACHINE.:XSA1TSI                         WED 10/01/97 12:18 Page:1
        1        1        /*M*    XSS$MACHINE     ISO Session Protocol Machine                    */
        2        2        /*T***********************************************************/
        3        3        /*T*                                                         */
        4        4        /*T* Copyright (c) Bull HN Information Systems Inc., 1997    */
        5        5        /*T*                                                         */
        6        6        /*T***********************************************************/
        7        7        /*X* DDA */
        8        8        /*P*
        9        9                NAME:   XSS$MACHINE
       10       10                PURPOSE:
       11       11                    This module is the state machine for the ISO Session layer.
       12       12                    The same code serves for both host and FEP platforms.  The
       13       13                    necessary ugliness for interfacing with higher layers (e.g.,
       14       14                    Presentation, CASE, ACSE) and lower layers (e.g., Transport)
       15       15                    resides in other modules.
       16       16        */
       17       17        /*F*
       18       18                NAME:   XSS$MACHINE
       19       19                PURPOSE:
       20       20                    This module is the state machine for the ISO Session layer.
       21       21                    The same code serves for both host and FEP platforms.  The
       22       22                    necessary ugliness for interfacing with higher layers (e.g.,
       23       23                    Presentation, CASE, ACSE) and lower layers (e.g., Transport)
       24       24                    resides in other modules.
       25       25                DESCRIPTION:
       26       26                    On entry, the parameter VBLK contains all the information of
       27       27                    interest.  The event being reported is combined with the
       28       28                    current state of the connection and looked up in the table of
       29       29                    permitted actions.  Depending on the particular action to be
       30       30                    performed, other routines are called.  In general, internal
       31       31                    Session routines are called, various flags are updated in the
       32       32                    Session connection context, the state of the connection is
       33       33                    possibly updated, and the module RETURNs.
       34       34
       35       35                    If the Session connection aborts, the ALTRETURN is taken.
       36       36
       37       37                    In the code below, the notation TABLE xx refers to a specific
PL6.E3A0      #001=XSS$MACHINE File=XSS$MACHINE.:XSA1TSI                         WED 10/01/97 12:18 Page:2
       38       38                    protocol state machine table in the ISO Session protocol spec.
       39       39        */
       40       40        XSS$MACHINE: PROC( VBLK) ALTRET;
       41       41        %INCLUDE UM_CP6;
       42      893        %INCLUDE K_ADDRESS_M;
       43     1396        %INCLUDE XSS_SESSION_E;
       44     1961        %INCLUDE XSS_SESSION_M;
       45     4604            %XSS$PRIMITIVES( STCLASS="BASED( SFPT$)");
       46     7983        %INCLUDE XSS_INTERNAL_E;
       47     8281        %INCLUDE XSS_INTERNAL_M;
       48     8870            %XSS$SCTX( NAME=SCTX, STCLASS="BASED( VBLK.CTX$)");
       49     9304            %XSS$VBLK( NAME=VBLK, STCLASS="");
       50     9409            %XSS$MEMBLK( NAME=B$BLOCK);
       51     9447        %INCLUDE XSS_MACHINE_M;
       52     9702        %MACRO FATALDEF( NAME=XSS_FATAL, STCLASS="CONSTANT SYMDEF", LVL=1, LAST=";",
       53     9703                         ERR#=0, SEV=7);
       54     9704            %VLP_ERRCODE( FPTN=NAME, STCLASS=STCLASS, FCG='XS', MID='S',
       55     9705                          MON='0'B, ERR#=ERR#, SEV=SEV);
       56     9706        %MEND;
       57     9707        %INCLUDE XSC_PERR_C;
       58     9784            %FATALDEF( NAME=XSS_F$CYCLE, ERR#=%F$CYCLE);
       59     9832            /*E*  ERROR:  XSS-F$CYCLE-7
       60     9833                MESSAGE:  Primitive processing already in progress.
       61     9834            */
       62     9835            %FATALDEF( NAME=XSS_F$EVNTERR, ERR#=%F$EVNTERR);
       63     9883            /*E*  ERROR:  XSS-F$EVNTERR-7
       64     9884                MESSAGE:  State machine requested wrong event.
       65     9885            */
       66     9886            %FATALDEF( NAME=XSS_F$NOSESS, ERR#=%F$NOSESS);
       67     9934            /*E*  ERROR:  XSS-F$NOSESS-7
       68     9935                MESSAGE:  No handler for this Session primitive.
       69     9936            */
       70     9937        %EQU TOKENS = %CHARTEXT( 'XSS$GENERIC.TOKENS');
       71     9938        %EQU ZROS = '000000000'B;
       72     9939        %EQU ONES = '111111111'B;
       73     9940
       74     9941    1       DCL XSS$BLKPTR ENTRY(2) ALTRET;
PL6.E3A0      #001=XSS$MACHINE File=XSS$MACHINE.:XSA1TSI                         WED 10/01/97 12:18 Page:3
       75     9942    1       DCL XSS$BUFPTR ENTRY(2) ALTRET;
       76     9943    1       DCL XSS$CLOCK ENTRY(2);
       77     9944    1       DCL XSS$DUMPFPT ENTRY(1) OPTIONAL;
       78     9945    1       DCL XSS$ENCODE ENTRY(1) ALTRET;
       79     9946    1       DCL XSS$GETMEM ENTRY(3) ALTRET;
       80     9947    1       DCL XSS$RELCTX ENTRY(1) ALTRET;
       81     9948    1       DCL XSS$RELMEM ENTRY(1) ALTRET;
       82     9949    1       DCL XSS$SCREECH ENTRY(1);
       83     9950    1       DCL XSS$TSEND ENTRY(1) ALTRET;
       84     9951    1       DCL XSS$EVLOG ENTRY(2);
       85     9952
       86     9953    1       DCL XSS_TRACE SBIN SYMREF;
       87     9954
       88     9955    1       DCL I SBIN;
       89     9956    1       DCL SFPT$ PTR;
       90     9957            /* PRED, PINV, and CONTINUING used by the {IF/ELSE/END}PREDDO macros */
       91     9958    1       DCL ZPRED(0:2) SBIN;
       92     9959    1       DCL PRED(0:107) REDEF ZPRED BIT(1) UNAL;
       93     9960    1       DCL ZPINV(0:2) SBIN;
       94     9961    1       DCL PINV(0:107) REDEF ZPINV BIT(1) UNAL;
       95     9962    1       DCL CONTINUING BIT(1);
       96     9963        %EJECT;
PL6.E3A0      #001=XSS$MACHINE File=XSS$MACHINE.:XSA1TSI                         WED 10/01/97 12:18 Page:4
       97     9964        /************************************************************************
       98     9965        *                                                                       *
       99     9966        *       Various internal MACROs                                         *
      100     9967        *                                                                       *
      101     9968        ************************************************************************/
      102     9969        %MACRO EVENT( EV=0); /* generate an output event of the specified type */
      103     9970            CALL EVNT( EV) ALTRET( EVNTERR);
      104     9971        %MEND;
      105     9972        %MACRO INVALID; /* an illegal state/event combination has occurred */
      106     9973            CALL OOPS;
      107     9974        %MEND;
      108     9975        %EJECT;
PL6.E3A0      #001=XSS$MACHINE File=XSS$MACHINE.:XSA1TSI                         WED 10/01/97 12:18 Page:5
      109     9976        /************************************************************************
      110     9977        *                                                                       *
      111     9978        *       Set up to enter the Session state machine                       *
      112     9979        *                                                                       *
      113     9980        ************************************************************************/
      114     9981    1       CALL XSS$EVLOG( 'SS', VBLK.EVENT*512 + SCTX.SCID);
      115     9982            /* check for event loop on this connection.
      116     9983               (Would probably be caused by user application calling XSS$SESSION
      117     9984               directly from its Session handler procedure.  Cannot allow that.) */
      118     9985    1       I = SCTX.HISTX;
      119     9986    1       IF SCTX.HIST.NXTST( I) = 511 THEN
      120     9987    1           CALL XSS$SCREECH( XSS_F$CYCLE);
      121     9988    1       SFPT$ = VBLK.FPT$;
      122     9989            /* update state/event history */
      123     9990    1       I = I + 1;
      124     9991    1       IF I > 7 THEN
      125     9992    1           I = 0;
      126     9993    1       SCTX.HISTX = I;
      127     9994    1       SCTX.HIST.EVENT( I) = VBLK.EVENT;
      128     9995    1       SCTX.HIST.NXTST( I) = 511;  /* will be something legal before RETURN */
      129     9996        %SET INPRED = '0'B;  /* set up {IF/ELSE/END}PREDDO macro invocation check */
      130     9997            /* set predicate flags up */
      131     9998    1       ZPRED(0) = 0;  ZPRED(1) = 0;  ZPRED(2) = 0;
      132     9999    1       ZPINV(0) = -1; ZPINV(1) = -1; ZPINV(2) = -1;
      133    10000            /* fan out on the event and connection state */
      134    10001    2       DO CASE( VBLK.EVENT);
      135    10002        %EJECT;
PL6.E3A0      #001=XSS$MACHINE File=XSS$MACHINE.:XSA1TSI                         WED 10/01/97 12:18 Page:6
      136    10003        /*****************************************************************************
      137    10004        *
      138    10005        *       AA              ABORT ACCEPT SPDU
      139    10006        *
      140    10007        *****************************************************************************/
      141    10008    2           CASE( %XSS_SEV_AA);                             /* TABLE 53 */
      142    10009    3               DO CASE( SCTX.STATE);
      143    10010    3                   CASE( %XSS_SST_01A);
      144    10011                            %ACTION03;
      145    10014    3                       SCTX.STATE = %XSS_SST_01C;
      146    10015    3                   CASE( %XSS_SST_01C);
      147    10016                            %EVENT( EV=%XSS_SEV_TDISREQ);
      148    10019    3                       SCTX.STATE = %XSS_SST_01;
      149    10020    3                   CASE( %XSS_SST_16);
      150    10021                            %ACTION03;
      151    10024                            %EVENT( EV=%XSS_SEV_TDISREQ);
      152    10027    3                       SCTX.STATE = %XSS_SST_01;
      153    10028    3                   CASE( ELSE);
      154    10029                            %INVALID;
      155    10032    3                   END;
      156    10033        %EJECT;
PL6.E3A0      #001=XSS$MACHINE File=XSS$MACHINE.:XSA1TSI                         WED 10/01/97 12:18 Page:7
      157    10034        /*****************************************************************************
      158    10035        *
      159    10036        *       AB-nr           ABORT (NO REUSE) SPDU
      160    10037        *
      161    10038        *****************************************************************************/
      162    10039    2           CASE( %XSS_SEV_AB_NR);                          /* TABLE 53 */
      163    10040    3               DO CASE( SCTX.STATE);
      164    10041    3                   CASE( %XSS_SST_01A,
      165    10042    3                         %XSS_SST_16);
      166    10043                            %ACTION03;
      167    10046                            %EVENT( EV=%XSS_SEV_TDISREQ);
      168    10049    3                       SCTX.STATE = %XSS_SST_01;
      169    10050    3                   CASE( %XSS_SST_01C);
      170    10051                            %EVENT( EV=%XSS_SEV_TDISREQ);
      171    10054    3                       SCTX.STATE = %XSS_SST_01;
      172    10055    3                   CASE( %XSS_SST_02A,
      173    10056    3                         %XSS_SST_03,
      174    10057    3                         %XSS_SST_04A,
      175    10058    3                         %XSS_SST_04B,
      176    10059    3                         %XSS_SST_05A,
      177    10060    3                         %XSS_SST_05B,
      178    10061    3                         %XSS_SST_05C,
      179    10062    3                         %XSS_SST_06,
      180    10063    3                         %XSS_SST_08,
      181    10064    3                         %XSS_SST_09,
      182    10065    3                         %XSS_SST_10A,
      183    10066    3                         %XSS_SST_10B,
      184    10067    3                         %XSS_SST_11A,
      185    10068    3                         %XSS_SST_11B,
      186    10069    3                         %XSS_SST_11C,
      187    10070    3                         %XSS_SST_15A,
      188    10071    3                         %XSS_SST_15B,
      189    10072    3                         %XSS_SST_15C,
      190    10073    3                         %XSS_SST_18,
      191    10074    3                         %XSS_SST_19,
      192    10075    3                         %XSS_SST_20,
      193    10076    3                         %XSS_SST_21,
PL6.E3A0      #001=XSS$MACHINE File=XSS$MACHINE.:XSA1TSI                         WED 10/01/97 12:18 Page:8
      194    10077    3                         %XSS_SST_22,
      195    10078    3                         %XSS_SST_713);
      196    10079                            %EVENT( EV=%XSS_SEV_SXABIND);
      197    10082                            %EVENT( EV=%XSS_SEV_TDISREQ);
      198    10085    3                       SCTX.STATE = %XSS_SST_01;
      199    10086    3                   CASE( ELSE);
      200    10087                            %INVALID;
      201    10090    3                   END;
      202    10091        %EJECT;
PL6.E3A0      #001=XSS$MACHINE File=XSS$MACHINE.:XSA1TSI                         WED 10/01/97 12:18 Page:9
      203    10092        /*****************************************************************************
      204    10093        *
      205    10094        *       AB-r            ABORT (REUSE) SPDU
      206    10095        *
      207    10096        *****************************************************************************/
      208    10097    2           CASE( %XSS_SEV_AB_R);                           /* TABLE 53 */
      209    10098    3               DO CASE( SCTX.STATE);
      210    10099    3                   CASE( %XSS_SST_01A);
      211    10100                            %ACTION03;
      212    10103    3                       SCTX.STATE = %XSS_SST_01C;
      213    10104    3                   CASE( %XSS_SST_01C);
      214    10105                            %IFPREDDO( P="-02");
      215    10228                                %EVENT( EV=%XSS_SEV_TDISREQ);
      216    10231    4                           SCTX.STATE = %XSS_SST_01;
      217    10232    4                           END;
      218    10233                            %ELSEPREDDO( P="02");
      219    10330                                %EVENT( EV=%XSS_SEV_AA);
      220    10333    4                           SCTX.STATE = %XSS_SST_01C;
      221    10334    4                           END;
      222    10335                            %ENDPREDDO;
      223    10340    3                   CASE( %XSS_SST_16);
      224    10341                            %ACTION03;
      225    10344                            %EVENT( EV=%XSS_SEV_TDISREQ);
      226    10347    3                       SCTX.STATE = %XSS_SST_01;
      227    10348    3                   CASE( %XSS_SST_02A,
      228    10349    3                         %XSS_SST_03,
      229    10350    3                         %XSS_SST_04A,
      230    10351    3                         %XSS_SST_04B,
      231    10352    3                         %XSS_SST_05A,
      232    10353    3                         %XSS_SST_05B,
      233    10354    3                         %XSS_SST_05C,
      234    10355    3                         %XSS_SST_08,
      235    10356    3                         %XSS_SST_09,
      236    10357    3                         %XSS_SST_10A,
      237    10358    3                         %XSS_SST_10B,
      238    10359    3                         %XSS_SST_11A,
      239    10360    3                         %XSS_SST_11B,
PL6.E3A0      #001=XSS$MACHINE File=XSS$MACHINE.:XSA1TSI                         WED 10/01/97 12:18 Page:10
      240    10361    3                         %XSS_SST_11C,
      241    10362    3                         %XSS_SST_18,
      242    10363    3                         %XSS_SST_19,
      243    10364    3                         %XSS_SST_20,
      244    10365    3                         %XSS_SST_21,
      245    10366    3                         %XSS_SST_22,
      246    10367    3                         %XSS_SST_713);
      247    10368                            %IFPREDDO( P="-02");
      248    10491                                %EVENT( EV=%XSS_SEV_SXABIND);
      249    10494                                %EVENT( EV=%XSS_SEV_TDISREQ);
      250    10497    4                           SCTX.STATE = %XSS_SST_01;
      251    10498    4                           END;
      252    10499                            %ELSEPREDDO( P="02");
      253    10596                                %EVENT( EV=%XSS_SEV_SXABIND);
      254    10599                                %EVENT( EV=%XSS_SEV_AA);
      255    10602    4                           SCTX.STATE = %XSS_SST_01C;
      256    10603    4                           END;
      257    10604                            %ENDPREDDO;
      258    10609    3                   CASE( ELSE);
      259    10610                            %INVALID;
      260    10613    3                   END;
      261    10614        %EJECT;
PL6.E3A0      #001=XSS$MACHINE File=XSS$MACHINE.:XSA1TSI                         WED 10/01/97 12:18 Page:11
      262    10615        /*****************************************************************************
      263    10616        *
      264    10617        *       AC              ACCEPT SPDU
      265    10618        *
      266    10619        *****************************************************************************/
      267    10620    2           CASE( %XSS_SEV_AC);                             /* TABLE 45 */
      268    10621    3               DO CASE( SCTX.STATE);
      269    10622    3                   CASE( %XSS_SST_01A,
      270    10623    3                         %XSS_SST_16);
      271    10624    3                       ;  /* don't do anything */
      272    10625    3                   CASE( %XSS_SST_01C);
      273    10626                            %EVENT( EV=%XSS_SEV_TDISREQ);
      274    10629    3                       SCTX.STATE = %XSS_SST_01;
      275    10630    3                   CASE( %XSS_SST_02A);
      276    10631                            %EVENT( EV=%XSS_SEV_SCONCFP);
      277    10634                            %ACTION05;
      278    10637                            %ACTION11;
      279    10640    3                       SCTX.STATE = %XSS_SST_713;
      280    10641                            %ACTION06;
      281    10644    3                   CASE( ELSE);
      282    10645                            %INVALID;
      283    10648    3                   END;
      284    10649        %EJECT;
PL6.E3A0      #001=XSS$MACHINE File=XSS$MACHINE.:XSA1TSI                         WED 10/01/97 12:18 Page:12
      285    10650        /*****************************************************************************
      286    10651        *
      287    10652        *       AD              ACTIVITY DISCARD SPDU
      288    10653        *
      289    10654        *****************************************************************************/
      290    10655    2           CASE( %XSS_SEV_AD);                             /* TABLE 49 */
      291    10656    3               DO CASE( SCTX.STATE);
      292    10657    3                   CASE( %XSS_SST_01A,
      293    10658    3                         %XSS_SST_16);
      294    10659    3                       ;  /* don't do anything */
      295    10660    3                   CASE( %XSS_SST_01C);
      296    10661                            %EVENT( EV=%XSS_SEV_TDISREQ);
      297    10664    3                       SCTX.STATE = %XSS_SST_01;
      298    10665    3                   CASE( %XSS_SST_05A,
      299    10666    3                         %XSS_SST_10A,
      300    10667    3                         %XSS_SST_10B,
      301    10668    3                         %XSS_SST_19,
      302    10669    3                         %XSS_SST_20,
      303    10670    3                         %XSS_SST_713);
      304    10671                            %IFPREDDO( P="38&40");
      305    10856                                %EVENT( EV=%XSS_SEV_SACDIND);
      306    10859                                %ACTION16;
      307    10862    4                           SCTX.STATE = %XSS_SST_11C;
      308    10863    4                           END;
      309    10864                            %ENDPREDDO;
      310    10869    3                   CASE( %XSS_SST_06,
      311    10870    3                         %XSS_SST_15B);
      312    10871                            %IFPREDDO( P="37&40");
      313    11056                                %EVENT( EV=%XSS_SEV_SACDIND);
      314    11059                                %ACTION16;
      315    11062    4                           SCTX.STATE = %XSS_SST_11C;
      316    11063    4                           END;
      317    11064                            %ENDPREDDO;
      318    11069    3                   CASE( ELSE);
      319    11070                            %INVALID;
      320    11073    3                   END;
      321    11074        %EJECT;
PL6.E3A0      #001=XSS$MACHINE File=XSS$MACHINE.:XSA1TSI                         WED 10/01/97 12:18 Page:13
      322    11075        /*****************************************************************************
      323    11076        *
      324    11077        *       ADA             ACTIVITY DISCARD ACK SPDU
      325    11078        *
      326    11079        *****************************************************************************/
      327    11080    2           CASE( %XSS_SEV_ADA);                            /* TABLE 49 */
      328    11081    3               DO CASE( SCTX.STATE);
      329    11082    3                   CASE( %XSS_SST_01A,
      330    11083    3                         %XSS_SST_16);
      331    11084    3                       ;  /* don't do anything */
      332    11085    3                   CASE( %XSS_SST_01C);
      333    11086                            %EVENT( EV=%XSS_SEV_TDISREQ);
      334    11089    3                       SCTX.STATE = %XSS_SST_01;
      335    11090    3                   CASE( %XSS_SST_05C);
      336    11091                            %IFPREDDO( P="38");
      337    11191                                %EVENT( EV=%XSS_SEV_SACDCNF);
      338    11194                                %ACTION29;
      339    11197    4                           SCTX.STATE = %XSS_SST_713;
      340    11198    4                           END;
      341    11199                            %ENDPREDDO;
      342    11204    3                   CASE( %XSS_SST_15C);
      343    11205                            %IFPREDDO( P="37&41");
      344    11390                                %EVENT( EV=%XSS_SEV_SACDCNF);
      345    11393                                %ACTION29;
      346    11396    4                           SCTX.STATE = %XSS_SST_713;
      347    11397                                %ACTION06;
      348    11400    4                           END;
      349    11401                            %ENDPREDDO;
      350    11406    3                   CASE( ELSE);
      351    11407                            %INVALID;
      352    11410    3                   END;
      353    11411        %EJECT;
PL6.E3A0      #001=XSS$MACHINE File=XSS$MACHINE.:XSA1TSI                         WED 10/01/97 12:18 Page:14
      354    11412        /*****************************************************************************
      355    11413        *
      356    11414        *       AE              ACTIVITY END SPDU
      357    11415        *
      358    11416        *****************************************************************************/
      359    11417    2           CASE( %XSS_SEV_AE);                             /* TABLE 47 */
      360    11418    3               DO CASE( SCTX.STATE);
      361    11419    3                   CASE( %XSS_SST_01A,
      362    11420    3                         %XSS_SST_16);
      363    11421    3                       ;  /* don't do anything */
      364    11422    3                   CASE( %XSS_SST_01C);
      365    11423                            %EVENT( EV=%XSS_SEV_TDISREQ);
      366    11426    3                       SCTX.STATE = %XSS_SST_01;
      367    11427    3                   CASE( %XSS_SST_05A,
      368    11428    3                         %XSS_SST_06,
      369    11429    3                         %XSS_SST_15B,
      370    11430    3                         %XSS_SST_15C);
      371    11431                            %IFPREDDO( P="72");
      372    11531    4                           ;  /* don't do anything */
      373    11532    4                           END;
      374    11533                            %ENDPREDDO;
      375    11538    3                   CASE( %XSS_SST_19,
      376    11539    3                         %XSS_SST_20);
      377    11540                            %IFPREDDO( P="72&19");
      378    11725                                %ACTION31;
      379    11728    4                           END;
      380    11729                            %ENDPREDDO;
      381    11734    3                   CASE( %XSS_SST_713);
      382    11735                            %IFPREDDO( P="72&19");
      383    11920                                %EVENT( EV=%XSS_SEV_SACEIND);
      384    11923                                %ACTION13;
      385    11926                                %ACTION31;
      386    11929    4                           SCTX.STATE = %XSS_SST_10B;
      387    11930    4                           END;
      388    11931                            %ENDPREDDO;
      389    11936    3                   CASE( ELSE);
      390    11937                            %INVALID;
PL6.E3A0      #001=XSS$MACHINE File=XSS$MACHINE.:XSA1TSI                         WED 10/01/97 12:18 Page:15
      391    11940    3                   END;
      392    11941        %EJECT;
PL6.E3A0      #001=XSS$MACHINE File=XSS$MACHINE.:XSA1TSI                         WED 10/01/97 12:18 Page:16
      393    11942        /*****************************************************************************
      394    11943        *
      395    11944        *       AI              ACTIVITY INTERRUPT SPDU
      396    11945        *
      397    11946        *****************************************************************************/
      398    11947    2           CASE( %XSS_SEV_AI);                             /* TABLE 49 */
      399    11948    3               DO CASE( SCTX.STATE);
      400    11949    3                   CASE( %XSS_SST_01A,
      401    11950    3                         %XSS_SST_16);
      402    11951    3                       ;  /* don't do anything */
      403    11952    3                   CASE( %XSS_SST_01C);
      404    11953                            %EVENT( EV=%XSS_SEV_TDISREQ);
      405    11956    3                       SCTX.STATE = %XSS_SST_01;
      406    11957    3                   CASE( %XSS_SST_05A,
      407    11958    3                         %XSS_SST_10A,
      408    11959    3                         %XSS_SST_10B,
      409    11960    3                         %XSS_SST_19,
      410    11961    3                         %XSS_SST_20,
      411    11962    3                         %XSS_SST_713);
      412    11963                            %IFPREDDO( P="38&40");
      413    12148                                %EVENT( EV=%XSS_SEV_SACIIND);
      414    12151                                %ACTION16;
      415    12154    4                           SCTX.STATE = %XSS_SST_11B;
      416    12155    4                           END;
      417    12156                            %ENDPREDDO;
      418    12161    3                   CASE( %XSS_SST_06,
      419    12162    3                         %XSS_SST_15B);
      420    12163                            %IFPREDDO( P="37&40");
      421    12348                                %EVENT( EV=%XSS_SEV_SACIIND);
      422    12351                                %ACTION16;
      423    12354    4                           SCTX.STATE = %XSS_SST_11B;
      424    12355    4                           END;
      425    12356                            %ENDPREDDO;
      426    12361    3                   CASE( ELSE);
      427    12362                            %INVALID;
      428    12365    3                   END;
      429    12366        %EJECT;
PL6.E3A0      #001=XSS$MACHINE File=XSS$MACHINE.:XSA1TSI                         WED 10/01/97 12:18 Page:17
      430    12367        /*****************************************************************************
      431    12368        *
      432    12369        *       AIA             ACTIVITY INTERRUPT ACK SPDU
      433    12370        *
      434    12371        *****************************************************************************/
      435    12372    2           CASE( %XSS_SEV_AIA);                            /* TABLE 49 */
      436    12373    3               DO CASE( SCTX.STATE);
      437    12374    3                   CASE( %XSS_SST_01A,
      438    12375    3                         %XSS_SST_16);
      439    12376    3                       ;  /* don't do anything */
      440    12377    3                   CASE( %XSS_SST_01C);
      441    12378                            %EVENT( EV=%XSS_SEV_TDISREQ);
      442    12381    3                       SCTX.STATE = %XSS_SST_01;
      443    12382    3                   CASE( %XSS_SST_05B);
      444    12383                            %IFPREDDO( P="38");
      445    12483                                %EVENT( EV=%XSS_SEV_SACICNF);
      446    12486                                %ACTION29;
      447    12489    4                           SCTX.STATE = %XSS_SST_713;
      448    12490    4                           END;
      449    12491                            %ENDPREDDO;
      450    12496    3                   CASE( %XSS_SST_15C);
      451    12497                            %IFPREDDO( P="37&42");
      452    12682                                %EVENT( EV=%XSS_SEV_SACICNF);
      453    12685                                %ACTION29;
      454    12688    4                           SCTX.STATE = %XSS_SST_713;
      455    12689                                %ACTION06;
      456    12692    4                           END;
      457    12693                            %ENDPREDDO;
      458    12698    3                   CASE( ELSE);
      459    12699                            %INVALID;
      460    12702    3                   END;
      461    12703        %EJECT;
PL6.E3A0      #001=XSS$MACHINE File=XSS$MACHINE.:XSA1TSI                         WED 10/01/97 12:18 Page:18
      462    12704        /*****************************************************************************
      463    12705        *
      464    12706        *       AR              ACTIVITY RESUME SPDU
      465    12707        *
      466    12708        *****************************************************************************/
      467    12709    2           CASE( %XSS_SEV_AR);                             /* TABLE 50 */
      468    12710    3               DO CASE( SCTX.STATE);
      469    12711    3                   CASE( %XSS_SST_01A,
      470    12712    3                         %XSS_SST_16);
      471    12713    3                       ;  /* don't do anything */
      472    12714    3                   CASE( %XSS_SST_01C);
      473    12715                            %EVENT( EV=%XSS_SEV_TDISREQ);
      474    12718    3                       SCTX.STATE = %XSS_SST_01;
      475    12719    3                   CASE( %XSS_SST_15B);
      476    12720                            %IFPREDDO( P="44");
      477    12820                                %EVENT( EV=%XSS_SEV_SACRIND);
      478    12823                                %ACTION12;
      479    12826                                %ACTION27;
      480    12829    4                           END;
      481    12830                            %ENDPREDDO;
      482    12835    3                   CASE( %XSS_SST_713);
      483    12836                            %IFPREDDO( P="44");
      484    12936                                %EVENT( EV=%XSS_SEV_SACRIND);
      485    12939                                %ACTION12;
      486    12942                                %ACTION27;
      487    12945                                %ACTION06;
      488    12948    4                           END;
      489    12949                            %ENDPREDDO;
      490    12954    3                   CASE( ELSE);
      491    12955                            %INVALID;
      492    12958    3                   END;
      493    12959        %EJECT;
PL6.E3A0      #001=XSS$MACHINE File=XSS$MACHINE.:XSA1TSI                         WED 10/01/97 12:18 Page:19
      494    12960        /*****************************************************************************
      495    12961        *
      496    12962        *       AS              ACTIVITY START SPDU
      497    12963        *
      498    12964        *****************************************************************************/
      499    12965    2           CASE( %XSS_SEV_AS);                             /* TABLE 50 */
      500    12966    3               DO CASE( SCTX.STATE);
      501    12967    3                   CASE( %XSS_SST_01A,
      502    12968    3                         %XSS_SST_16);
      503    12969    3                       ;  /* don't do anything */
      504    12970    3                   CASE( %XSS_SST_01C);
      505    12971                            %EVENT( EV=%XSS_SEV_TDISREQ);
      506    12974    3                       SCTX.STATE = %XSS_SST_01;
      507    12975    3                   CASE( %XSS_SST_15B);
      508    12976                            %IFPREDDO( P="44");
      509    13076                                %EVENT( EV=%XSS_SEV_SACSIND);
      510    13079                                %ACTION12;
      511    13082                                %ACTION26;
      512    13085    4                           END;
      513    13086                            %ENDPREDDO;
      514    13091    3                   CASE( %XSS_SST_713);
      515    13092                            %IFPREDDO( P="44");
      516    13192                                %EVENT( EV=%XSS_SEV_SACSIND);
      517    13195                                %ACTION12;
      518    13198                                %ACTION26;
      519    13201                                %ACTION06;
      520    13204    4                           END;
      521    13205                            %ENDPREDDO;
      522    13210    3                   CASE( ELSE);
      523    13211                            %INVALID;
      524    13214    3                   END;
      525    13215        %EJECT;
PL6.E3A0      #001=XSS$MACHINE File=XSS$MACHINE.:XSA1TSI                         WED 10/01/97 12:18 Page:20
      526    13216        /*****************************************************************************
      527    13217        *
      528    13218        *       CD              CAPABILITY DATA SPDU
      529    13219        *
      530    13220        *****************************************************************************/
      531    13221    2           CASE( %XSS_SEV_CD);                             /* TABLE 50 */
      532    13222    3               DO CASE( SCTX.STATE);
      533    13223    3                   CASE( %XSS_SST_01A,
      534    13224    3                         %XSS_SST_16);
      535    13225    3                       ;  /* don't do anything */
      536    13226    3                   CASE( %XSS_SST_01C);
      537    13227                            %EVENT( EV=%XSS_SEV_TDISREQ);
      538    13230    3                       SCTX.STATE = %XSS_SST_01;
      539    13231    3                   CASE( %XSS_SST_713);
      540    13232                            %IFPREDDO( P="46");
      541    13332                                %EVENT( EV=%XSS_SEV_SCADIND);
      542    13335    4                           SCTX.STATE = %XSS_SST_22;
      543    13336    4                           END;
      544    13337                            %ENDPREDDO;
      545    13342    3                   CASE( ELSE);
      546    13343                            %INVALID;
      547    13346    3                   END;
      548    13347        %EJECT;
PL6.E3A0      #001=XSS$MACHINE File=XSS$MACHINE.:XSA1TSI                         WED 10/01/97 12:18 Page:21
      549    13348        /*****************************************************************************
      550    13349        *
      551    13350        *       CDA             CAPABILITY DATA ACK SPDU
      552    13351        *
      553    13352        *****************************************************************************/
      554    13353    2           CASE( %XSS_SEV_CDA);                            /* TABLE 50 */
      555    13354    3               DO CASE( SCTX.STATE);
      556    13355    3                   CASE( %XSS_SST_01A,
      557    13356    3                         %XSS_SST_16);
      558    13357    3                       ;  /* don't do anything */
      559    13358    3                   CASE( %XSS_SST_01C);
      560    13359                            %EVENT( EV=%XSS_SEV_TDISREQ);
      561    13362    3                       SCTX.STATE = %XSS_SST_01;
      562    13363    3                   CASE( %XSS_SST_21);
      563    13364                            %EVENT( EV=%XSS_SEV_SCADCNF);
      564    13367    3                       SCTX.STATE = %XSS_SST_713;
      565    13368    3                   CASE( ELSE);
      566    13369                            %INVALID;
      567    13372    3                   END;
      568    13373        %EJECT;
PL6.E3A0      #001=XSS$MACHINE File=XSS$MACHINE.:XSA1TSI                         WED 10/01/97 12:18 Page:22
      569    13374        /*****************************************************************************
      570    13375        *
      571    13376        *       CN              CONNECT SPDU
      572    13377        *
      573    13378        *****************************************************************************/
      574    13379    2           CASE( %XSS_SEV_CN);                             /* TABLE 45 */
      575    13380    3               DO CASE( SCTX.STATE);
      576    13381    3                   CASE( %XSS_SST_01A,
      577    13382    3                         %XSS_SST_16);
      578    13383                            %EVENT( EV=%XSS_SEV_TDISREQ);
      579    13386                            %ACTION03;
      580    13389    3                       SCTX.STATE = %XSS_SST_01;
      581    13390    3                   CASE( %XSS_SST_01C);
      582    13391                            %IFPREDDO( P="-01");
      583    13514                                %EVENT( EV=%XSS_SEV_SCONIND);
      584    13517    4                           SCTX.STATE = %XSS_SST_08;
      585    13518    4                           END;
      586    13519                            %ELSEPREDDO( P="01");
      587    13616                                %EVENT( EV=%XSS_SEV_TDISREQ);
      588    13619    4                           SCTX.STATE = %XSS_SST_01;
      589    13620    4                           END;
      590    13621                            %ENDPREDDO;
      591    13626    3                   CASE( ELSE);
      592    13627                            %INVALID;
      593    13630    3                   END;
      594    13631        %EJECT;
PL6.E3A0      #001=XSS$MACHINE File=XSS$MACHINE.:XSA1TSI                         WED 10/01/97 12:18 Page:23
      595    13632        /*****************************************************************************
      596    13633        *
      597    13634        *       DN              DISCONNECT SPDU
      598    13635        *
      599    13636        *****************************************************************************/
      600    13637    2           CASE( %XSS_SEV_DN);                             /* TABLE 52 */
      601    13638    3               DO CASE( SCTX.STATE);
      602    13639    3                   CASE( %XSS_SST_01A,
      603    13640    3                         %XSS_SST_16);
      604    13641    3                       ;  /* don't do anything */
      605    13642    3                   CASE( %XSS_SST_01C);
      606    13643                            %EVENT( EV=%XSS_SEV_TDISREQ);
      607    13646    3                       SCTX.STATE = %XSS_SST_01;
      608    13647    3                   CASE( %XSS_SST_03);
      609    13648                            %IFPREDDO( P="-66");
      610    13771                                %EVENT( EV=%XSS_SEV_SRELCFP);
      611    13774                                %EVENT( EV=%XSS_SEV_TDISREQ);
      612    13777    4                           SCTX.STATE = %XSS_SST_01;
      613    13778    4                           END;
      614    13779                            %ELSEPREDDO( P="66");
      615    13876                                %EVENT( EV=%XSS_SEV_SRELCFP);
      616    13879    4                           SCTX.STATE = %XSS_SST_01C;
      617    13880    4                           END;
      618    13881                            %ENDPREDDO;
      619    13886    3                   CASE( %XSS_SST_09);
      620    13887                            %IFPREDDO( P="69&-01");
      621    14095                                %EVENT( EV=%XSS_SEV_SRELCFP);
      622    14098                                %ACTION32;
      623    14101    4                           END;
      624    14102                            %ENDPREDDO;
      625    14107    3                   CASE( ELSE);
      626    14108                            %INVALID;
      627    14111    3                   END;
      628    14112        %EJECT;
PL6.E3A0      #001=XSS$MACHINE File=XSS$MACHINE.:XSA1TSI                         WED 10/01/97 12:18 Page:24
      629    14113        /*****************************************************************************
      630    14114        *
      631    14115        *       DT              DATA TRANSFER SPDU
      632    14116        *
      633    14117        *****************************************************************************/
      634    14118    2           CASE( %XSS_SEV_DT);                             /* TABLE 46 */
      635    14119    3               DO CASE( SCTX.STATE);
      636    14120    3                   CASE( %XSS_SST_01A,
      637    14121    3                         %XSS_SST_16,
      638    14122    3                         %XSS_SST_19);
      639    14123    3                       ;  /* don't do anything */
      640    14124    3                   CASE( %XSS_SST_01C);
      641    14125                            %EVENT( EV=%XSS_SEV_TDISREQ);
      642    14128    3                       SCTX.STATE = %XSS_SST_01;
      643    14129    3                   CASE( %XSS_SST_03);
      644    14130                            %IFPREDDO( P="05&10");
      645    14315                                %EVENT( EV=%XSS_SEV_SDATIND);
      646    14318    4                           END;
      647    14319                            %ENDPREDDO;
      648    14324    3                   CASE( %XSS_SST_04A,
      649    14325    3                         %XSS_SST_04B,
      650    14326    3                         %XSS_SST_15A,
      651    14327    3                         %XSS_SST_713);
      652    14328                            %IFPREDDO( P="05");
      653    14428                                %EVENT( EV=%XSS_SEV_SDATIND);
      654    14431    4                           END;
      655    14432                            %ENDPREDDO;
      656    14437    3                   CASE( %XSS_SST_05A,
      657    14438    3                         %XSS_SST_05B,
      658    14439    3                         %XSS_SST_05C,
      659    14440    3                         %XSS_SST_06,
      660    14441    3                         %XSS_SST_15B,
      661    14442    3                         %XSS_SST_15C,
      662    14443    3                         %XSS_SST_20);
      663    14444                            %IFPREDDO( P="05");
      664    14544    4                           ;  /* don't do anything */
      665    14545    4                           END;
PL6.E3A0      #001=XSS$MACHINE File=XSS$MACHINE.:XSA1TSI                         WED 10/01/97 12:18 Page:25
      666    14546                            %ENDPREDDO;
      667    14551    3                   CASE( %XSS_SST_18,
      668    14552    3                         %XSS_SST_21);
      669    14553                            %IFPREDDO( P="70");
      670    14653                                %EVENT( EV=%XSS_SEV_SDATIND);
      671    14656    4                           END;
      672    14657                            %ENDPREDDO;
      673    14662    3                   CASE( ELSE);
      674    14663                            %INVALID;
      675    14666    3                   END;
      676    14667        %EJECT;
PL6.E3A0      #001=XSS$MACHINE File=XSS$MACHINE.:XSA1TSI                         WED 10/01/97 12:18 Page:26
      677    14668        /*****************************************************************************
      678    14669        *
      679    14670        *       ED              EXCEPTION DATA SPDU
      680    14671        *
      681    14672        *****************************************************************************/
      682    14673    2           CASE( %XSS_SEV_ED);                             /* TABLE 51 */
      683    14674    3               DO CASE( SCTX.STATE);
      684    14675    3                   CASE( %XSS_SST_01A,
      685    14676    3                         %XSS_SST_16);
      686    14677    3                       ;  /* don't do anything */
      687    14678    3                   CASE( %XSS_SST_01C);
      688    14679                            %EVENT( EV=%XSS_SEV_TDISREQ);
      689    14682    3                       SCTX.STATE = %XSS_SST_01;
      690    14683    3                   CASE( %XSS_SST_03);
      691    14684                            %IFPREDDO( P="52");
      692    14784                                %EVENT( EV=%XSS_SEV_SUERIND);
      693    14787    4                           SCTX.STATE = %XSS_SST_20;
      694    14788    4                           END;
      695    14789                            %ENDPREDDO;
      696    14794    3                   CASE( %XSS_SST_04A,
      697    14795    3                         %XSS_SST_04B);
      698    14796                            %IFPREDDO( P="48&03");
      699    14981                                %EVENT( EV=%XSS_SEV_SUERIND);
      700    14984    4                           SCTX.STATE = %XSS_SST_20;
      701    14985    4                           END;
      702    14986                            %ELSEPREDDO( P="48&-03");
      703    15191                                %EVENT( EV=%XSS_SEV_SUERIND);
      704    15194    4                           SCTX.STATE = %XSS_SST_713;
      705    15195    4                           END;
      706    15196                            %ENDPREDDO;
      707    15201    3                   CASE( %XSS_SST_05A,
      708    15202    3                         %XSS_SST_05B,
      709    15203    3                         %XSS_SST_05C,
      710    15204    3                         %XSS_SST_06,
      711    15205    3                         %XSS_SST_15C);
      712    15206                            %IFPREDDO( P="48");
      713    15306    4                           ;  /* don't do anything */
PL6.E3A0      #001=XSS$MACHINE File=XSS$MACHINE.:XSA1TSI                         WED 10/01/97 12:18 Page:27
      714    15307    4                           END;
      715    15308                            %ENDPREDDO;
      716    15313    3                   CASE( %XSS_SST_19);
      717    15314                            %IFPREDDO( P="50");
      718    15414                                %EVENT( EV=%XSS_SEV_SUERIND);
      719    15417    4                           END;
      720    15418                            %ENDPREDDO;
      721    15423    3                   CASE( %XSS_SST_713);
      722    15424                            %IFPREDDO( P="50");
      723    15524                                %EVENT( EV=%XSS_SEV_SUERIND);
      724    15527    4                           END;
      725    15528                            %ELSEPREDDO( P="51");
      726    15625                                %EVENT( EV=%XSS_SEV_SUERIND);
      727    15628    4                           SCTX.STATE = %XSS_SST_20;
      728    15629    4                           END;
      729    15630                            %ENDPREDDO;
      730    15635    3                   CASE( ELSE);
      731    15636                            %INVALID;
      732    15639    3                   END;
      733    15640        %EJECT;
PL6.E3A0      #001=XSS$MACHINE File=XSS$MACHINE.:XSA1TSI                         WED 10/01/97 12:18 Page:28
      734    15641        /*****************************************************************************
      735    15642        *
      736    15643        *       ER              EXCEPTION REPORT SPDU
      737    15644        *
      738    15645        *****************************************************************************/
      739    15646    2           CASE( %XSS_SEV_ER);                             /* TABLE 51 */
      740    15647    3               DO CASE( SCTX.STATE);
      741    15648    3                   CASE( %XSS_SST_01A,
      742    15649    3                         %XSS_SST_16);
      743    15650    3                       ;  /* don't do anything */
      744    15651    3                   CASE( %XSS_SST_01C);
      745    15652                            %EVENT( EV=%XSS_SEV_TDISREQ);
      746    15655    3                       SCTX.STATE = %XSS_SST_01;
      747    15656    3                   CASE( %XSS_SST_03);
      748    15657                            %IFPREDDO( P="52");
      749    15757                                %EVENT( EV=%XSS_SEV_SPERIND);
      750    15760    4                           SCTX.STATE = %XSS_SST_20;
      751    15761    4                           END;
      752    15762                            %ENDPREDDO;
      753    15767    3                   CASE( %XSS_SST_04A,
      754    15768    3                         %XSS_SST_04B);
      755    15769                            %IFPREDDO( P="48&03");
      756    15954                                %EVENT( EV=%XSS_SEV_SPERIND);
      757    15957    4                           SCTX.STATE = %XSS_SST_20;
      758    15958    4                           END;
      759    15959                            %ELSEPREDDO( P="48&-03");
      760    16164                                %EVENT( EV=%XSS_SEV_SPERIND);
      761    16167    4                           SCTX.STATE = %XSS_SST_713;
      762    16168    4                           END;
      763    16169                            %ENDPREDDO;
      764    16174    3                   CASE( %XSS_SST_05A,
      765    16175    3                         %XSS_SST_05B,
      766    16176    3                         %XSS_SST_05C,
      767    16177    3                         %XSS_SST_06,
      768    16178    3                         %XSS_SST_15C);
      769    16179                            %IFPREDDO( P="48");
      770    16279    4                           ;  /* don't do anything */
PL6.E3A0      #001=XSS$MACHINE File=XSS$MACHINE.:XSA1TSI                         WED 10/01/97 12:18 Page:29
      771    16280    4                           END;
      772    16281                            %ENDPREDDO;
      773    16286    3                   CASE( %XSS_SST_19);
      774    16287                            %IFPREDDO( P="50");
      775    16387                                %EVENT( EV=%XSS_SEV_SPERIND);
      776    16390    4                           END;
      777    16391                            %ENDPREDDO;
      778    16396    3                   CASE( %XSS_SST_21);
      779    16397                            %IFPREDDO( P="48");
      780    16497                                %EVENT( EV=%XSS_SEV_SPERIND);
      781    16500    4                           SCTX.STATE = %XSS_SST_20;
      782    16501    4                           END;
      783    16502                            %ENDPREDDO;
      784    16507    3                   CASE( %XSS_SST_713);
      785    16508                            %IFPREDDO( P="50");
      786    16608                                %EVENT( EV=%XSS_SEV_SPERIND);
      787    16611    4                           END;
      788    16612                            %ELSEPREDDO( P="51");
      789    16709                                %EVENT( EV=%XSS_SEV_SPERIND);
      790    16712    4                           SCTX.STATE = %XSS_SST_20;
      791    16713    4                           END;
      792    16714                            %ENDPREDDO;
      793    16719    3                   CASE( ELSE);
      794    16720                            %INVALID;
      795    16723    3                   END;
      796    16724        %EJECT;
PL6.E3A0      #001=XSS$MACHINE File=XSS$MACHINE.:XSA1TSI                         WED 10/01/97 12:18 Page:30
      797    16725        /*****************************************************************************
      798    16726        *
      799    16727        *       EX              EXPEDITED DATA SPDU
      800    16728        *
      801    16729        *****************************************************************************/
      802    16730    2           CASE( %XSS_SEV_EX);                             /* TABLE 46 */
      803    16731    3               DO CASE( SCTX.STATE);
      804    16732    3                   CASE( %XSS_SST_01A,
      805    16733    3                         %XSS_SST_16);
      806    16734    3                       ;  /* don't do anything */
      807    16735    3                   CASE( %XSS_SST_01C);
      808    16736                            %EVENT( EV=%XSS_SEV_TDISREQ);
      809    16739    3                       SCTX.STATE = %XSS_SST_01;
      810    16740    3                   CASE( %XSS_SST_02A);
      811    16741                            %ACTION10;
      812    16744    3                   CASE( %XSS_SST_03);
      813    16745                            %IFPREDDO( P="09");
      814    16845                                %EVENT( EV=%XSS_SEV_SEXPIND);
      815    16848    4                           END;
      816    16849                            %ENDPREDDO;
      817    16854    3                   CASE( %XSS_SST_04A,
      818    16855    3                         %XSS_SST_04B,
      819    16856    3                         %XSS_SST_18,
      820    16857    3                         %XSS_SST_21,
      821    16858    3                         %XSS_SST_713);
      822    16859                            %IFPREDDO( P="08");
      823    16959                                %EVENT( EV=%XSS_SEV_SEXPIND);
      824    16962    4                           END;
      825    16963                            %ENDPREDDO;
      826    16968    3                   CASE( %XSS_SST_05A,
      827    16969    3                         %XSS_SST_05B,
      828    16970    3                         %XSS_SST_05C,
      829    16971    3                         %XSS_SST_19,
      830    16972    3                         %XSS_SST_20);
      831    16973                            %IFPREDDO( P="08");
      832    17073    4                           ;  /* don't do anything */
      833    17074    4                           END;
PL6.E3A0      #001=XSS$MACHINE File=XSS$MACHINE.:XSA1TSI                         WED 10/01/97 12:18 Page:31
      834    17075                            %ENDPREDDO;
      835    17080    3                   CASE( %XSS_SST_06,
      836    17081    3                         %XSS_SST_15A,
      837    17082    3                         %XSS_SST_15C);
      838    17083                            %IFPREDDO( P="08");
      839    17183                                %ACTION10;
      840    17186    4                           END;
      841    17187                            %ENDPREDDO;
      842    17192    3                   CASE( ELSE);
      843    17193                            %INVALID;
      844    17196    3                   END;
      845    17197        %EJECT;
PL6.E3A0      #001=XSS$MACHINE File=XSS$MACHINE.:XSA1TSI                         WED 10/01/97 12:18 Page:32
      846    17198        /*****************************************************************************
      847    17199        *
      848    17200        *       FN-nr           FINISH (NO REUSE) SPDU
      849    17201        *
      850    17202        *****************************************************************************/
      851    17203    2           CASE( %XSS_SEV_FN_NR);                          /* TABLE 52 */
      852    17204    3               DO CASE( SCTX.STATE);
      853    17205    3                   CASE( %XSS_SST_01A,
      854    17206    3                         %XSS_SST_16);
      855    17207    3                       ;  /* don't do anything */
      856    17208    3                   CASE( %XSS_SST_01C);
      857    17209                            %EVENT( EV=%XSS_SEV_TDISREQ);
      858    17212    3                       SCTX.STATE = %XSS_SST_01;
      859    17213    3                   CASE( %XSS_SST_03);
      860    17214                            %IFPREDDO( P="-65");
      861    17337                                %EVENT( EV=%XSS_SEV_SRELIND);
      862    17340                                %ACTION08;
      863    17343                                %ACTION18;
      864    17346    4                           SCTX.STATE = %XSS_SST_09;
      865    17347    4                           END;
      866    17348                            %ENDPREDDO;
      867    17353    3                   CASE( %XSS_SST_05A,
      868    17354    3                         %XSS_SST_06,
      869    17355    3                         %XSS_SST_15C,
      870    17356    3                         %XSS_SST_19,
      871    17357    3                         %XSS_SST_20);
      872    17358                            %IFPREDDO( P="68");
      873    17458    4                           ;  /* don't do anything */
      874    17459    4                           END;
      875    17460                            %ENDPREDDO;
      876    17465    3                   CASE( %XSS_SST_713);
      877    17466                            %IFPREDDO( P="68");
      878    17566                                %EVENT( EV=%XSS_SEV_SRELIND);
      879    17569                                %ACTION08;
      880    17572    4                           SCTX.STATE = %XSS_SST_09;
      881    17573    4                           END;
      882    17574                            %ENDPREDDO;
PL6.E3A0      #001=XSS$MACHINE File=XSS$MACHINE.:XSA1TSI                         WED 10/01/97 12:18 Page:33
      883    17579    3                   CASE( ELSE);
      884    17580                            %INVALID;
      885    17583    3                   END;
      886    17584        %EJECT;
PL6.E3A0      #001=XSS$MACHINE File=XSS$MACHINE.:XSA1TSI                         WED 10/01/97 12:18 Page:34
      887    17585        /*****************************************************************************
      888    17586        *
      889    17587        *       FN-r            FINISH (REUSE) SPDU
      890    17588        *
      891    17589        *****************************************************************************/
      892    17590    2           CASE( %XSS_SEV_FN_R);                           /* TABLE 52 */
      893    17591    3               DO CASE( SCTX.STATE);
      894    17592    3                   CASE( %XSS_SST_01A,
      895    17593    3                         %XSS_SST_16);
      896    17594    3                       ;  /* don't do anything */
      897    17595    3                   CASE( %XSS_SST_01C);
      898    17596                            %EVENT( EV=%XSS_SEV_TDISREQ);
      899    17599    3                       SCTX.STATE = %XSS_SST_01;
      900    17600    3                   CASE( %XSS_SST_03);
      901    17601                            %IFPREDDO( P="-65&-01&16");
      902    17917                                %EVENT( EV=%XSS_SEV_SRELIND);
      903    17920                                %ACTION08;
      904    17923                                %ACTION18;
      905    17926    4                           SCTX.STATE = %XSS_SST_09;
      906    17927    4                           END;
      907    17928                            %ENDPREDDO;
      908    17933    3                   CASE( %XSS_SST_05A,
      909    17934    3                         %XSS_SST_15C,
      910    17935    3                         %XSS_SST_19,
      911    17936    3                         %XSS_SST_20);
      912    17937                            %IFPREDDO( P="68&-01&16");
      913    18230    4                           ;  /* don't do anything */
      914    18231    4                           END;
      915    18232                            %ENDPREDDO;
      916    18237    3                   CASE( %XSS_SST_713);
      917    18238                            %IFPREDDO( P="68&-01&16");
      918    18531                                %EVENT( EV=%XSS_SEV_SRELIND);
      919    18534                                %ACTION09;
      920    18537    4                           SCTX.STATE = %XSS_SST_09;
      921    18538    4                           END;
      922    18539                            %ENDPREDDO;
      923    18544    3                   CASE( ELSE);
PL6.E3A0      #001=XSS$MACHINE File=XSS$MACHINE.:XSA1TSI                         WED 10/01/97 12:18 Page:35
      924    18545                            %INVALID;
      925    18548    3                   END;
      926    18549        %EJECT;
PL6.E3A0      #001=XSS$MACHINE File=XSS$MACHINE.:XSA1TSI                         WED 10/01/97 12:18 Page:36
      927    18550        /*****************************************************************************
      928    18551        *
      929    18552        *       GT              GIVE TOKENS SPDU
      930    18553        *
      931    18554        *****************************************************************************/
      932    18555    2           CASE( %XSS_SEV_GT);                             /* TABLE 51 */
      933    18556    3               DO CASE( SCTX.STATE);
      934    18557    3                   CASE( %XSS_SST_01A,
      935    18558    3                         %XSS_SST_16);
      936    18559    3                       ;  /* don't do anything */
      937    18560    3                   CASE( %XSS_SST_01C);
      938    18561                            %EVENT( EV=%XSS_SEV_TDISREQ);
      939    18564    3                       SCTX.STATE = %XSS_SST_01;
      940    18565    3                   CASE( %XSS_SST_04A,
      941    18566    3                         %XSS_SST_04B,
      942    18567    3                         %XSS_SST_10A,
      943    18568    3                         %XSS_SST_10B,
      944    18569    3                         %XSS_SST_15A,
      945    18570    3                         %XSS_SST_21,
      946    18571    3                         %XSS_SST_713);
      947    18572                            %IFPREDDO( P="59");
      948    18672                                %EVENT( EV=%XSS_SEV_STKGIND);
      949    18675                                %ACTION11;
      950    18678    4                           END;
      951    18679                            %ENDPREDDO;
      952    18684    3                   CASE( %XSS_SST_05A,
      953    18685    3                         %XSS_SST_05B,
      954    18686    3                         %XSS_SST_05C,
      955    18687    3                         %XSS_SST_06,
      956    18688    3                         %XSS_SST_15B,
      957    18689    3                         %XSS_SST_15C);
      958    18690                            %IFPREDDO( P="59");
      959    18790    4                           ;  /* don't do anything */
      960    18791    4                           END;
      961    18792                            %ENDPREDDO;
      962    18797    3                   CASE( %XSS_SST_19,
      963    18798    3                         %XSS_SST_20);
PL6.E3A0      #001=XSS$MACHINE File=XSS$MACHINE.:XSA1TSI                         WED 10/01/97 12:18 Page:37
      964    18799                            %IFPREDDO( P="60");
      965    18899                                %EVENT( EV=%XSS_SEV_STKGIND);
      966    18902                                %ACTION11;
      967    18905    4                           END;
      968    18906                            %ELSEPREDDO( P="61");
      969    19003                                %EVENT( EV=%XSS_SEV_STKGIND);
      970    19006                                %ACTION11;
      971    19009    4                           SCTX.STATE = %XSS_SST_713;
      972    19010    4                           END;
      973    19011                            %ENDPREDDO;
      974    19016    3                   CASE( ELSE);
      975    19017                            %INVALID;
      976    19020    3                   END;
      977    19021        %EJECT;
PL6.E3A0      #001=XSS$MACHINE File=XSS$MACHINE.:XSA1TSI                         WED 10/01/97 12:18 Page:38
      978    19022        /*****************************************************************************
      979    19023        *
      980    19024        *       GTA             GIVE TOKENS ACK SPDU
      981    19025        *
      982    19026        *****************************************************************************/
      983    19027    2           CASE( %XSS_SEV_GTA);                            /* TABLE 51 */
      984    19028    3               DO CASE( SCTX.STATE);
      985    19029    3                   CASE( %XSS_SST_01A,
      986    19030    3                         %XSS_SST_16);
      987    19031    3                       ;  /* don't do anything */
      988    19032    3                   CASE( %XSS_SST_01C);
      989    19033                            %EVENT( EV=%XSS_SEV_TDISREQ);
      990    19036    3                       SCTX.STATE = %XSS_SST_01;
      991    19037    3                   CASE( %XSS_SST_18);
      992    19038    3                       SCTX.STATE = %XSS_SST_713;
      993    19039                            %ACTION06;
      994    19042    3                   CASE( ELSE);
      995    19043                            %INVALID;
      996    19046    3                   END;
      997    19047        %EJECT;
PL6.E3A0      #001=XSS$MACHINE File=XSS$MACHINE.:XSA1TSI                         WED 10/01/97 12:18 Page:39
      998    19048        /*****************************************************************************
      999    19049        *
     1000    19050        *       GTC             GIVE TOKENS CONFIRM SPDU
     1001    19051        *
     1002    19052        *****************************************************************************/
     1003    19053    2           CASE( %XSS_SEV_GTC);                            /* TABLE 51 */
     1004    19054    3               DO CASE( SCTX.STATE);
     1005    19055    3                   CASE( %XSS_SST_01A,
     1006    19056    3                         %XSS_SST_16);
     1007    19057    3                       ;  /* don't do anything */
     1008    19058    3                   CASE( %XSS_SST_01C);
     1009    19059                            %EVENT( EV=%XSS_SEV_TDISREQ);
     1010    19062    3                       SCTX.STATE = %XSS_SST_01;
     1011    19063    3                   CASE( %XSS_SST_713);
     1012    19064                            %IFPREDDO( P="62");
     1013    19164                                %EVENT( EV=%XSS_SEV_SCTGIND);
     1014    19167                                %EVENT( EV=%XSS_SEV_GTA);
     1015    19170                                %ACTION11;
     1016    19173    4                           END;
     1017    19174                            %ENDPREDDO;
     1018    19179    3                   CASE( ELSE);
     1019    19180                            %INVALID;
     1020    19183    3                   END;
     1021    19184        %EJECT;
PL6.E3A0      #001=XSS$MACHINE File=XSS$MACHINE.:XSA1TSI                         WED 10/01/97 12:18 Page:40
     1022    19185        /*****************************************************************************
     1023    19186        *
     1024    19187        *       MAA             MAJOR SYNC ACK SPDU
     1025    19188        *       AEA             ACTIVITY END ACK SPDU
     1026    19189        *
     1027    19190        *****************************************************************************/
     1028    19191    2           CASE( %XSS_SEV_MAA,
     1029    19192    2                 %XSS_SEV_AEA);                            /* TABLE 47 */
     1030    19193    3               DO CASE( SCTX.STATE);
     1031    19194    3                   CASE( %XSS_SST_01A,
     1032    19195    3                         %XSS_SST_05A,
     1033    19196    3                         %XSS_SST_05B,
     1034    19197    3                         %XSS_SST_05C,
     1035    19198    3                         %XSS_SST_06,
     1036    19199    3                         %XSS_SST_15B,
     1037    19200    3                         %XSS_SST_15C,
     1038    19201    3                         %XSS_SST_16);
     1039    19202    3                       ;  /* don't do anything */
     1040    19203    3                   CASE( %XSS_SST_01C);
     1041    19204                            %EVENT( EV=%XSS_SEV_TDISREQ);
     1042    19207    3                       SCTX.STATE = %XSS_SST_01;
     1043    19208    3                   CASE( %XSS_SST_04A);
     1044    19209                            %IFPREDDO( P="16&20");
     1045    19394                                %EVENT( EV=%XSS_SEV_SSMACNF);
     1046    19397                                %ACTION14;
     1047    19400                                %ACTION22;
     1048    19403    4                           SCTX.STATE = %XSS_SST_713;
     1049    19404    4                           END;
     1050    19405                            %ENDPREDDO;
     1051    19410    3                   CASE( %XSS_SST_04B);
     1052    19411                            %IFPREDDO( P="16&20");
     1053    19596                                %EVENT( EV=%XSS_SEV_SACECNF);
     1054    19599                                %ACTION14;
     1055    19602                                %ACTION22;
     1056    19605    4                           SCTX.STATE = %XSS_SST_713;
     1057    19606    4                           END;
     1058    19607                            %ENDPREDDO;
PL6.E3A0      #001=XSS$MACHINE File=XSS$MACHINE.:XSA1TSI                         WED 10/01/97 12:18 Page:41
     1059    19612    3                   CASE( %XSS_SST_15A);
     1060    19613                            %IFPREDDO( P="20&-23");
     1061    19821                                %EVENT( EV=%XSS_SEV_SSMACNF);
     1062    19824                                %ACTION14;
     1063    19827                                %ACTION22;
     1064    19830    4                           SCTX.STATE = %XSS_SST_713;
     1065    19831                                %ACTION06;
     1066    19834    4                           END;
     1067    19835                            %ELSEPREDDO( P="20&23");
     1068    20017                                %EVENT( EV=%XSS_SEV_SACECNF);
     1069    20020                                %ACTION14;
     1070    20023                                %ACTION22;
     1071    20026    4                           SCTX.STATE = %XSS_SST_713;
     1072    20027                                %ACTION06;
     1073    20030    4                           END;
     1074    20031                            %ENDPREDDO;
     1075    20036    3                   CASE( %XSS_SST_20);
     1076    20037                            %IFPREDDO( P="20");
     1077    20137    4                           ;  /* don't do anything */
     1078    20138    4                           END;
     1079    20139                            %ENDPREDDO;
     1080    20144    3                   CASE( ELSE);
     1081    20145                            %INVALID;
     1082    20148    3                   END;
     1083    20149        %EJECT;
PL6.E3A0      #001=XSS$MACHINE File=XSS$MACHINE.:XSA1TSI                         WED 10/01/97 12:18 Page:42
     1084    20150        /*****************************************************************************
     1085    20151        *
     1086    20152        *       MAP             MAJOR SYNC POINT SPDU
     1087    20153        *
     1088    20154        *****************************************************************************/
     1089    20155    2           CASE( %XSS_SEV_MAP);                            /* TABLE 47 */
     1090    20156    3               DO CASE( SCTX.STATE);
     1091    20157    3                   CASE( %XSS_SST_01A,
     1092    20158    3                         %XSS_SST_16);
     1093    20159    3                       ;  /* don't do anything */
     1094    20160    3                   CASE( %XSS_SST_01C);
     1095    20161                            %EVENT( EV=%XSS_SEV_TDISREQ);
     1096    20164    3                       SCTX.STATE = %XSS_SST_01;
     1097    20165    3                   CASE( %XSS_SST_05A,
     1098    20166    3                         %XSS_SST_06,
     1099    20167    3                         %XSS_SST_15B,
     1100    20168    3                         %XSS_SST_15C);
     1101    20169                            %IFPREDDO( P="12");
     1102    20269    4                           ;  /* don't do anything */
     1103    20270    4                           END;
     1104    20271                            %ENDPREDDO;
     1105    20276    3                   CASE( %XSS_SST_19,
     1106    20277    3                         %XSS_SST_20);
     1107    20278                            %IFPREDDO( P="12&19");
     1108    20463                                %ACTION31;
     1109    20466    4                           END;
     1110    20467                            %ENDPREDDO;
     1111    20472    3                   CASE( %XSS_SST_713);
     1112    20473                            %IFPREDDO( P="12&19");
     1113    20658                                %EVENT( EV=%XSS_SEV_SSMAIND);
     1114    20661                                %ACTION13;
     1115    20664                                %ACTION31;
     1116    20667    4                           SCTX.STATE = %XSS_SST_10A;
     1117    20668    4                           END;
     1118    20669                            %ENDPREDDO;
     1119    20674    3                   CASE( ELSE);
     1120    20675                            %INVALID;
PL6.E3A0      #001=XSS$MACHINE File=XSS$MACHINE.:XSA1TSI                         WED 10/01/97 12:18 Page:43
     1121    20678    3                   END;
     1122    20679        %EJECT;
PL6.E3A0      #001=XSS$MACHINE File=XSS$MACHINE.:XSA1TSI                         WED 10/01/97 12:18 Page:44
     1123    20680        /*****************************************************************************
     1124    20681        *
     1125    20682        *       MIA             MINOR SYNC ACK SPDU
     1126    20683        *
     1127    20684        *****************************************************************************/
     1128    20685    2           CASE( %XSS_SEV_MIA);                            /* TABLE 47 */
     1129    20686    3               DO CASE( SCTX.STATE);
     1130    20687    3                   CASE( %XSS_SST_01A,
     1131    20688    3                         %XSS_SST_16);
     1132    20689    3                       ;  /* don't do anything */
     1133    20690    3                   CASE( %XSS_SST_01C);
     1134    20691                            %EVENT( EV=%XSS_SEV_TDISREQ);
     1135    20694    3                       SCTX.STATE = %XSS_SST_01;
     1136    20695    3                   CASE( %XSS_SST_03,
     1137    20696    3                         %XSS_SST_713);
     1138    20697                            %IFPREDDO( P="17&21");
     1139    20882                                %EVENT( EV=%XSS_SEV_SSMICNF);
     1140    20885                                %ACTION25;
     1141    20888    4                           END;
     1142    20889                            %ENDPREDDO;
     1143    20894    3                   CASE( %XSS_SST_04A,
     1144    20895    3                         %XSS_SST_04B,
     1145    20896    3                         %XSS_SST_15A);
     1146    20897                            %IFPREDDO( P="17&-20&21");
     1147    21190                                %EVENT( EV=%XSS_SEV_SSMICNF);
     1148    21193                                %ACTION25;
     1149    21196    4                           END;
     1150    21197                            %ENDPREDDO;
     1151    21202    3                   CASE( %XSS_SST_05A,
     1152    21203    3                         %XSS_SST_05B,
     1153    21204    3                         %XSS_SST_05C,
     1154    21205    3                         %XSS_SST_06,
     1155    21206    3                         %XSS_SST_15B,
     1156    21207    3                         %XSS_SST_15C);
     1157    21208                            %IFPREDDO( P="17");
     1158    21308    4                           ;  /* don't do anything */
     1159    21309    4                           END;
PL6.E3A0      #001=XSS$MACHINE File=XSS$MACHINE.:XSA1TSI                         WED 10/01/97 12:18 Page:45
     1160    21310                            %ENDPREDDO;
     1161    21315    3                   CASE( %XSS_SST_19);
     1162    21316                            %IFPREDDO( P="17&21");
     1163    21501                                %ACTION25;
     1164    21504    4                           END;
     1165    21505                            %ENDPREDDO;
     1166    21510    3                   CASE( %XSS_SST_20);
     1167    21511                            %IFPREDDO( P="17&21");
     1168    21696    4                           ;  /* don't do anything */
     1169    21697    4                           END;
     1170    21698                            %ENDPREDDO;
     1171    21703    3                   CASE( ELSE);
     1172    21704                            %INVALID;
     1173    21707    3                   END;
     1174    21708        %EJECT;
PL6.E3A0      #001=XSS$MACHINE File=XSS$MACHINE.:XSA1TSI                         WED 10/01/97 12:18 Page:46
     1175    21709        /*****************************************************************************
     1176    21710        *
     1177    21711        *       MIP             MINOR SYNC POINT SPDU
     1178    21712        *
     1179    21713        *****************************************************************************/
     1180    21714    2           CASE( %XSS_SEV_MIP);                            /* TABLE 47 */
     1181    21715    3               DO CASE( SCTX.STATE);
     1182    21716    3                   CASE( %XSS_SST_01A,
     1183    21717    3                         %XSS_SST_16);
     1184    21718    3                       ;  /* don't do anything */
     1185    21719    3                   CASE( %XSS_SST_01C);
     1186    21720                            %EVENT( EV=%XSS_SEV_TDISREQ);
     1187    21723    3                       SCTX.STATE = %XSS_SST_01;
     1188    21724    3                   CASE( %XSS_SST_05A,
     1189    21725    3                         %XSS_SST_05B,
     1190    21726    3                         %XSS_SST_05C,
     1191    21727    3                         %XSS_SST_06,
     1192    21728    3                         %XSS_SST_15B,
     1193    21729    3                         %XSS_SST_15C);
     1194    21730                            %IFPREDDO( P="14");
     1195    21830    4                           ;  /* don't do anything */
     1196    21831    4                           END;
     1197    21832                            %ENDPREDDO;
     1198    21837    3                   CASE( %XSS_SST_19,
     1199    21838    3                         %XSS_SST_20);
     1200    21839                            %IFPREDDO( P="14&19");
     1201    22024                                %ACTION23;
     1202    22027    4                           END;
     1203    22028                            %ENDPREDDO;
     1204    22033    3                   CASE( %XSS_SST_713);
     1205    22034                            %IFPREDDO( P="14&19");
     1206    22219                                %EVENT( EV=%XSS_SEV_SSMIIND);
     1207    22222                                %ACTION23;
     1208    22225    4                           END;
     1209    22226                            %ENDPREDDO;
     1210    22231    3                   CASE( ELSE);
     1211    22232                            %INVALID;
PL6.E3A0      #001=XSS$MACHINE File=XSS$MACHINE.:XSA1TSI                         WED 10/01/97 12:18 Page:47
     1212    22235    3                   END;
     1213    22236        %EJECT;
PL6.E3A0      #001=XSS$MACHINE File=XSS$MACHINE.:XSA1TSI                         WED 10/01/97 12:18 Page:48
     1214    22237        /*****************************************************************************
     1215    22238        *
     1216    22239        *       NF              NOT FINISHED SPDU
     1217    22240        *
     1218    22241        *****************************************************************************/
     1219    22242    2           CASE( %XSS_SEV_NF);                             /* TABLE 52 */
     1220    22243    3               DO CASE( SCTX.STATE);
     1221    22244    3                   CASE( %XSS_SST_01A,
     1222    22245    3                         %XSS_SST_16);
     1223    22246    3                       ;  /* don't do anything */
     1224    22247    3                   CASE( %XSS_SST_01C);
     1225    22248                            %EVENT( EV=%XSS_SEV_TDISREQ);
     1226    22251    3                       SCTX.STATE = %XSS_SST_01;
     1227    22252    3                   CASE( %XSS_SST_03);
     1228    22253                            %IFPREDDO( P="67");
     1229    22353                                %EVENT( EV=%XSS_SEV_SRELCFN);
     1230    22356    4                           SCTX.STATE = %XSS_SST_713;
     1231    22357    4                           END;
     1232    22358                            %ENDPREDDO;
     1233    22363    3                   CASE( %XSS_SST_15B);
     1234    22364                            %IFPREDDO( P="67");
     1235    22464                                %EVENT( EV=%XSS_SEV_SRELCFN);
     1236    22467    4                           END;
     1237    22468                            %ENDPREDDO;
     1238    22473    3                   CASE( ELSE);
     1239    22474                            %INVALID;
     1240    22477    3                   END;
     1241    22478        %EJECT;
PL6.E3A0      #001=XSS$MACHINE File=XSS$MACHINE.:XSA1TSI                         WED 10/01/97 12:18 Page:49
     1242    22479        /*****************************************************************************
     1243    22480        *
     1244    22481        *       PR-MAA          PREPARE (MAJOR SYNC ACK) SPDU
     1245    22482        *
     1246    22483        *****************************************************************************/
     1247    22484    2           CASE( %XSS_SEV_PR_MAA);                         /* TABLE 47 */
     1248    22485    3               DO CASE( SCTX.STATE);
     1249    22486    3                   CASE( %XSS_SST_01A,
     1250    22487    3                         %XSS_SST_05A,
     1251    22488    3                         %XSS_SST_05B,
     1252    22489    3                         %XSS_SST_05C,
     1253    22490    3                         %XSS_SST_16);
     1254    22491    3                       ;  /* don't do anything */
     1255    22492    3                   CASE( %XSS_SST_01C);
     1256    22493                            %EVENT( EV=%XSS_SEV_TDISREQ);
     1257    22496    3                       SCTX.STATE = %XSS_SST_01;
     1258    22497    3                   CASE( %XSS_SST_04A,
     1259    22498    3                         %XSS_SST_04B);
     1260    22499    3                       SCTX.STATE = %XSS_SST_15A;
     1261    22500    3                   CASE( ELSE);
     1262    22501                            %INVALID;
     1263    22504    3                   END;
     1264    22505        %EJECT;
PL6.E3A0      #001=XSS$MACHINE File=XSS$MACHINE.:XSA1TSI                         WED 10/01/97 12:18 Page:50
     1265    22506        /*****************************************************************************
     1266    22507        *
     1267    22508        *       PR-RA           PREPARE (RESYNCHRONIZE ACK) SPDU
     1268    22509        *
     1269    22510        *****************************************************************************/
     1270    22511    2           CASE( %XSS_SEV_PR_RA);                          /* TABLE 48 */
     1271    22512    3               DO CASE( SCTX.STATE);
     1272    22513    3                   CASE( %XSS_SST_01A,
     1273    22514    3                         %XSS_SST_16);
     1274    22515    3                       ;  /* don't do anything */
     1275    22516    3                   CASE( %XSS_SST_01C);
     1276    22517                            %EVENT( EV=%XSS_SEV_TDISREQ);
     1277    22520    3                       SCTX.STATE = %XSS_SST_01;
     1278    22521    3                   CASE( %XSS_SST_05A,
     1279    22522    3                         %XSS_SST_05B,
     1280    22523    3                         %XSS_SST_05C);
     1281    22524    3                       SCTX.STATE = %XSS_SST_15C;
     1282    22525    3                   CASE( %XSS_SST_06);
     1283    22526                            %ACTION10;
     1284    22529    3                   CASE( ELSE);
     1285    22530                            %INVALID;
     1286    22533    3                   END;
     1287    22534        %EJECT;
PL6.E3A0      #001=XSS$MACHINE File=XSS$MACHINE.:XSA1TSI                         WED 10/01/97 12:18 Page:51
     1288    22535        /*****************************************************************************
     1289    22536        *
     1290    22537        *       PR-RS           PREPARE (RESYNCHRONIZE) SPDU
     1291    22538        *
     1292    22539        *****************************************************************************/
     1293    22540    2           CASE( %XSS_SEV_PR_RS);                          /* TABLE 48 */
     1294    22541    3               DO CASE( SCTX.STATE);
     1295    22542    3                   CASE( %XSS_SST_01A,
     1296    22543    3                         %XSS_SST_05B,
     1297    22544    3                         %XSS_SST_05C,
     1298    22545    3                         %XSS_SST_16);
     1299    22546    3                       ;  /* don't do anything */
     1300    22547    3                   CASE( %XSS_SST_01C);
     1301    22548                            %EVENT( EV=%XSS_SEV_TDISREQ);
     1302    22551    3                       SCTX.STATE = %XSS_SST_01;
     1303    22552    3                   CASE( %XSS_SST_02A,
     1304    22553    3                         %XSS_SST_06,
     1305    22554    3                         %XSS_SST_15A,
     1306    22555    3                         %XSS_SST_15C,
     1307    22556    3                         %XSS_SST_18);
     1308    22557                            %ACTION10;
     1309    22560    3                   CASE( %XSS_SST_03);
     1310    22561                            %IFPREDDO( P="10");
     1311    22661    4                           SCTX.STATE = %XSS_SST_15B;
     1312    22662    4                           END;
     1313    22663                            %ENDPREDDO;
     1314    22668    3                   CASE( %XSS_SST_04A,
     1315    22669    3                         %XSS_SST_04B,
     1316    22670    3                         %XSS_SST_10A,
     1317    22671    3                         %XSS_SST_10B,
     1318    22672    3                         %XSS_SST_19,
     1319    22673    3                         %XSS_SST_20);
     1320    22674    3                       SCTX.STATE = %XSS_SST_15B;
     1321    22675    3                   CASE( %XSS_SST_05A);
     1322    22676    3                       SCTX.STATE = %XSS_SST_06;
     1323    22677    3                   CASE( %XSS_SST_713);
     1324    22678                            %IFPREDDO( P="26");
PL6.E3A0      #001=XSS$MACHINE File=XSS$MACHINE.:XSA1TSI                         WED 10/01/97 12:18 Page:52
     1325    22778    4                           SCTX.STATE = %XSS_SST_15B;
     1326    22779    4                           END;
     1327    22780                            %ELSEPREDDO( P="-26");
     1328    22900                                %ACTION10;
     1329    22903    4                           END;
     1330    22904                            %ENDPREDDO;
     1331    22909    3                   CASE( ELSE);
     1332    22910                            %INVALID;
     1333    22913    3                   END;
     1334    22914        %EJECT;
PL6.E3A0      #001=XSS$MACHINE File=XSS$MACHINE.:XSA1TSI                         WED 10/01/97 12:18 Page:53
     1335    22915        /*****************************************************************************
     1336    22916        *
     1337    22917        *       PT              PLEASE TOKENS SPDU
     1338    22918        *
     1339    22919        *****************************************************************************/
     1340    22920    2           CASE( %XSS_SEV_PT);                             /* TABLE 51 */
     1341    22921    3               DO CASE( SCTX.STATE);
     1342    22922    3                   CASE( %XSS_SST_01A);
     1343    22923    3                       ;  /* don't do anything */
     1344    22924    3                   CASE( %XSS_SST_01C);
     1345    22925                            %EVENT( EV=%XSS_SEV_TDISREQ);
     1346    22928    3                       SCTX.STATE = %XSS_SST_01;
     1347    22929    3                   CASE( %XSS_SST_03,
     1348    22930    3                         %XSS_SST_04A,
     1349    22931    3                         %XSS_SST_04B,
     1350    22932    3                         %XSS_SST_15A,
     1351    22933    3                         %XSS_SST_18,
     1352    22934    3                         %XSS_SST_21,
     1353    22935    3                         %XSS_SST_713);
     1354    22936                            %IFPREDDO( P="53");
     1355    23036                                %EVENT( EV=%XSS_SEV_STKPIND);
     1356    23039    4                           END;
     1357    23040                            %ENDPREDDO;
     1358    23045    3                   CASE( %XSS_SST_05A,
     1359    23046    3                         %XSS_SST_05B,
     1360    23047    3                         %XSS_SST_05C,
     1361    23048    3                         %XSS_SST_06,
     1362    23049    3                         %XSS_SST_15B,
     1363    23050    3                         %XSS_SST_15C,
     1364    23051    3                         %XSS_SST_19,
     1365    23052    3                         %XSS_SST_20);
     1366    23053                            %IFPREDDO( P="53");
     1367    23153    4                           ;  /* don't do anything */
     1368    23154    4                           END;
     1369    23155                            %ENDPREDDO;
     1370    23160    3                   CASE( ELSE);
     1371    23161                            %INVALID;
PL6.E3A0      #001=XSS$MACHINE File=XSS$MACHINE.:XSA1TSI                         WED 10/01/97 12:18 Page:54
     1372    23164    3                   END;
     1373    23165        %EJECT;
PL6.E3A0      #001=XSS$MACHINE File=XSS$MACHINE.:XSA1TSI                         WED 10/01/97 12:18 Page:55
     1374    23166        /*****************************************************************************
     1375    23167        *
     1376    23168        *       RA              RESYNCHRONIZE ACK SPDU
     1377    23169        *
     1378    23170        *****************************************************************************/
     1379    23171    2           CASE( %XSS_SEV_RA);                             /* TABLE 48 */
     1380    23172    3               DO CASE( SCTX.STATE);
     1381    23173    3                   CASE( %XSS_SST_01A,
     1382    23174    3                         %XSS_SST_16);
     1383    23175    3                       ;  /* don't do anything */
     1384    23176    3                   CASE( %XSS_SST_01C);
     1385    23177                            %EVENT( EV=%XSS_SEV_TDISREQ);
     1386    23180    3                       SCTX.STATE = %XSS_SST_01;
     1387    23181    3                   CASE( %XSS_SST_05A);
     1388    23182                            %IFPREDDO( P="35&49");
     1389    23367                                %EVENT( EV=%XSS_SEV_SRSXCNF);
     1390    23370                                %ACTION28;
     1391    23373                                %ACTION11;
     1392    23376    4                           SCTX.STATE = %XSS_SST_713;
     1393    23377    4                           END;
     1394    23378                            %ENDPREDDO;
     1395    23383    3                   CASE( %XSS_SST_15C);
     1396    23384                            %IFPREDDO( P="36&49");
     1397    23569                                %EVENT( EV=%XSS_SEV_SRSXCNF);
     1398    23572                                %ACTION28;
     1399    23575                                %ACTION11;
     1400    23578    4                           SCTX.STATE = %XSS_SST_713;
     1401    23579                                %ACTION06;
     1402    23582    4                           END;
     1403    23583                            %ENDPREDDO;
     1404    23588    3                   CASE( ELSE);
     1405    23589                            %INVALID;
     1406    23592    3                   END;
     1407    23593        %EJECT;
PL6.E3A0      #001=XSS$MACHINE File=XSS$MACHINE.:XSA1TSI                         WED 10/01/97 12:18 Page:56
     1408    23594        /*****************************************************************************
     1409    23595        *
     1410    23596        *       RF-nr           REFUSE (NO REUSE) SPDU
     1411    23597        *
     1412    23598        *****************************************************************************/
     1413    23599    2           CASE( %XSS_SEV_RF_NR);                          /* TABLE 45 */
     1414    23600    3               DO CASE( SCTX.STATE);
     1415    23601    3                   CASE( %XSS_SST_01A,
     1416    23602    3                         %XSS_SST_16);
     1417    23603    3                       ;  /* don't do anything */
     1418    23604    3                   CASE( %XSS_SST_01C);
     1419    23605                            %EVENT( EV=%XSS_SEV_TDISREQ);
     1420    23608    3                       SCTX.STATE = %XSS_SST_01;
     1421    23609    3                   CASE( %XSS_SST_02A);
     1422    23610                            %EVENT( EV=%XSS_SEV_SCONCFN);
     1423    23613                            %EVENT( EV=%XSS_SEV_TDISREQ);
     1424    23616    3                       SCTX.STATE = %XSS_SST_01;
     1425    23617    3                   CASE( ELSE);
     1426    23618                            %INVALID;
     1427    23621    3                   END;
     1428    23622        %EJECT;
PL6.E3A0      #001=XSS$MACHINE File=XSS$MACHINE.:XSA1TSI                         WED 10/01/97 12:18 Page:57
     1429    23623        /*****************************************************************************
     1430    23624        *
     1431    23625        *       RF-r            REFUSE (REUSE) SPDU
     1432    23626        *
     1433    23627        *****************************************************************************/
     1434    23628    2           CASE( %XSS_SEV_RF_R);                           /* TABLE 45 */
     1435    23629    3               DO CASE( SCTX.STATE);
     1436    23630    3                   CASE( %XSS_SST_01A,
     1437    23631    3                         %XSS_SST_16);
     1438    23632    3                       ;  /* don't do anything */
     1439    23633    3                   CASE( %XSS_SST_01C);
     1440    23634                            %EVENT( EV=%XSS_SEV_TDISREQ);
     1441    23637    3                       SCTX.STATE = %XSS_SST_01;
     1442    23638    3                   CASE( %XSS_SST_02A);
     1443    23639                            %IFPREDDO( P="-02");
     1444    23762                                %EVENT( EV=%XSS_SEV_SCONCFN);
     1445    23765                                %EVENT( EV=%XSS_SEV_TDISREQ);
     1446    23768    4                           SCTX.STATE = %XSS_SST_01;
     1447    23769    4                           END;
     1448    23770                            %ELSEPREDDO( P="02");
     1449    23867                                %EVENT( EV=%XSS_SEV_SCONCFN);
     1450    23870    4                           SCTX.STATE = %XSS_SST_01C;
     1451    23871    4                           END;
     1452    23872                            %ENDPREDDO;
     1453    23877    3                   CASE( ELSE);
     1454    23878                            %INVALID;
     1455    23881    3                   END;
     1456    23882        %EJECT;
PL6.E3A0      #001=XSS$MACHINE File=XSS$MACHINE.:XSA1TSI                         WED 10/01/97 12:18 Page:58
     1457    23883        /*****************************************************************************
     1458    23884        *
     1459    23885        *       RS-a            RESYNCHRONIZE (ABANDON) SPDU
     1460    23886        *
     1461    23887        *****************************************************************************/
     1462    23888    2           CASE( %XSS_SEV_RS_A);                           /* TABLE 48 */
     1463    23889    3               DO CASE( SCTX.STATE);
     1464    23890    3                   CASE( %XSS_SST_01A,
     1465    23891    3                         %XSS_SST_16);
     1466    23892    3                       ;  /* don't do anything */
     1467    23893    3                   CASE( %XSS_SST_01C);
     1468    23894                            %EVENT( EV=%XSS_SEV_TDISREQ);
     1469    23897    3                       SCTX.STATE = %XSS_SST_01;
     1470    23898    3                   CASE( %XSS_SST_03);
     1471    23899                            %IFPREDDO( P="10&-34&35");
     1472    24192                                %ACTION19;
     1473    24195                                %EVENT( EV=%XSS_SEV_SRSXIND);
     1474    24198                                %ACTION16;
     1475    24201    4                           SCTX.STATE = %XSS_SST_11A;
     1476    24202    4                           END;
     1477    24203                            %ENDPREDDO;
     1478    24208    3                   CASE( %XSS_SST_04A,
     1479    24209    3                         %XSS_SST_04B,
     1480    24210    3                         %XSS_SST_10A,
     1481    24211    3                         %XSS_SST_19,
     1482    24212    3                         %XSS_SST_20);
     1483    24213                            %IFPREDDO( P="35");
     1484    24313                                %ACTION19;
     1485    24316                                %EVENT( EV=%XSS_SEV_SRSXIND);
     1486    24319                                %ACTION16;
     1487    24322    4                           SCTX.STATE = %XSS_SST_11A;
     1488    24323    4                           END;
     1489    24324                            %ENDPREDDO;
     1490    24329    3                   CASE( %XSS_SST_05A);
     1491    24330                            %IFPREDDO( P="-24&35");
     1492    24538    4                           ;  /* don't do anything */
     1493    24539    4                           END;
PL6.E3A0      #001=XSS$MACHINE File=XSS$MACHINE.:XSA1TSI                         WED 10/01/97 12:18 Page:59
     1494    24540                            %ELSEPREDDO( P="24&35");
     1495    24722                                %ACTION19;
     1496    24725                                %EVENT( EV=%XSS_SEV_SRSXIND);
     1497    24728                                %ACTION16;
     1498    24731    4                           SCTX.STATE = %XSS_SST_11A;
     1499    24732    4                           END;
     1500    24733                            %ENDPREDDO;
     1501    24738    3                   CASE( %XSS_SST_05B,
     1502    24739    3                         %XSS_SST_05C);
     1503    24740                            %IFPREDDO( P="28");
     1504    24840    4                           ;  /* don't do anything */
     1505    24841    4                           END;
     1506    24842                            %ENDPREDDO;
     1507    24847    3                   CASE( %XSS_SST_06);
     1508    24848                            %IFPREDDO( P="-24");
     1509    24971    4                           SCTX.STATE = %XSS_SST_05A;
     1510    24972                                %ACTION06;
     1511    24975    4                           END;
     1512    24976                            %ELSEPREDDO( P="24");
     1513    25073                                %ACTION19;
     1514    25076                                %EVENT( EV=%XSS_SEV_SRSXIND);
     1515    25079                                %ACTION16;
     1516    25082    4                           SCTX.STATE = %XSS_SST_11A;
     1517    25083                                %ACTION06;
     1518    25086    4                           END;
     1519    25087                            %ENDPREDDO;
     1520    25092    3                   CASE( %XSS_SST_15B);
     1521    25093                            %IFPREDDO( P="29");
     1522    25193                                %ACTION19;
     1523    25196                                %EVENT( EV=%XSS_SEV_SRSXIND);
     1524    25199                                %ACTION16;
     1525    25202    4                           SCTX.STATE = %XSS_SST_11A;
     1526    25203    4                           END;
     1527    25204                            %ENDPREDDO;
     1528    25209    3                   CASE( %XSS_SST_713);
     1529    25210                            %IFPREDDO( P="26&35");
     1530    25395                                %ACTION19;
PL6.E3A0      #001=XSS$MACHINE File=XSS$MACHINE.:XSA1TSI                         WED 10/01/97 12:18 Page:60
     1531    25398                                %EVENT( EV=%XSS_SEV_SRSXIND);
     1532    25401                                %ACTION16;
     1533    25404    4                           SCTX.STATE = %XSS_SST_11A;
     1534    25405    4                           END;
     1535    25406                            %ENDPREDDO;
     1536    25411    3                   CASE( ELSE);
     1537    25412                            %INVALID;
     1538    25415    3                   END;
     1539    25416        %EJECT;
PL6.E3A0      #001=XSS$MACHINE File=XSS$MACHINE.:XSA1TSI                         WED 10/01/97 12:18 Page:61
     1540    25417        /*****************************************************************************
     1541    25418        *
     1542    25419        *       RS-r            RESYNCHRONIZE (RESTART) SPDU
     1543    25420        *
     1544    25421        *****************************************************************************/
     1545    25422    2           CASE( %XSS_SEV_RS_R);                           /* TABLE 48 */
     1546    25423    3               DO CASE( SCTX.STATE);
     1547    25424    3                   CASE( %XSS_SST_01A,
     1548    25425    3                         %XSS_SST_16);
     1549    25426    3                       ;  /* don't do anything */
     1550    25427    3                   CASE( %XSS_SST_01C);
     1551    25428                            %EVENT( EV=%XSS_SEV_TDISREQ);
     1552    25431    3                       SCTX.STATE = %XSS_SST_01;
     1553    25432    3                   CASE( %XSS_SST_03);
     1554    25433                            %IFPREDDO( P="10&-34&35&32");
     1555    25811                                %EVENT( EV=%XSS_SEV_SRSXIND);
     1556    25814                                %ACTION16;
     1557    25817    4                           SCTX.STATE = %XSS_SST_11A;
     1558    25818    4                           END;
     1559    25819                            %ENDPREDDO;
     1560    25824    3                   CASE( %XSS_SST_04A,
     1561    25825    3                         %XSS_SST_04B,
     1562    25826    3                         %XSS_SST_19,
     1563    25827    3                         %XSS_SST_20);
     1564    25828                            %IFPREDDO( P="32&35");
     1565    26013                                %EVENT( EV=%XSS_SEV_SRSXIND);
     1566    26016                                %ACTION16;
     1567    26019    4                           SCTX.STATE = %XSS_SST_11A;
     1568    26020    4                           END;
     1569    26021                            %ENDPREDDO;
     1570    26026    3                   CASE( %XSS_SST_05A);
     1571    26027                            %IFPREDDO( P="-24&32&35");
     1572    26320    4                           ;  /* don't do anything */
     1573    26321    4                           END;
     1574    26322                            %ELSEPREDDO( P="24&32&35");
     1575    26589                                %EVENT( EV=%XSS_SEV_SRSXIND);
     1576    26592                                %ACTION16;
PL6.E3A0      #001=XSS$MACHINE File=XSS$MACHINE.:XSA1TSI                         WED 10/01/97 12:18 Page:62
     1577    26595    4                           SCTX.STATE = %XSS_SST_11A;
     1578    26596    4                           END;
     1579    26597                            %ENDPREDDO;
     1580    26602    3                   CASE( %XSS_SST_05B,
     1581    26603    3                         %XSS_SST_05C);
     1582    26604                            %IFPREDDO( P="28");
     1583    26704    4                           ;  /* don't do anything */
     1584    26705    4                           END;
     1585    26706                            %ENDPREDDO;
     1586    26711    3                   CASE( %XSS_SST_06);
     1587    26712                            %IFPREDDO( P="-24&32");
     1588    26920    4                           SCTX.STATE = %XSS_SST_05A;
     1589    26921                                %ACTION06;
     1590    26924    4                           END;
     1591    26925                            %ELSEPREDDO( P="24&32");
     1592    27107                                %EVENT( EV=%XSS_SEV_SRSXIND);
     1593    27110                                %ACTION16;
     1594    27113    4                           SCTX.STATE = %XSS_SST_11A;
     1595    27114                                %ACTION06;
     1596    27117    4                           END;
     1597    27118                            %ENDPREDDO;
     1598    27123    3                   CASE( %XSS_SST_15B);
     1599    27124                            %IFPREDDO( P="32&29");
     1600    27309                                %EVENT( EV=%XSS_SEV_SRSXIND);
     1601    27312                                %ACTION16;
     1602    27315    4                           SCTX.STATE = %XSS_SST_11A;
     1603    27316    4                           END;
     1604    27317                            %ENDPREDDO;
     1605    27322    3                   CASE( %XSS_SST_713);
     1606    27323                            %IFPREDDO( P="32&26&35");
     1607    27593                                %EVENT( EV=%XSS_SEV_SRSXIND);
     1608    27596                                %ACTION16;
     1609    27599    4                           SCTX.STATE = %XSS_SST_11A;
     1610    27600    4                           END;
     1611    27601                            %ENDPREDDO;
     1612    27606    3                   CASE( ELSE);
     1613    27607                            %INVALID;
PL6.E3A0      #001=XSS$MACHINE File=XSS$MACHINE.:XSA1TSI                         WED 10/01/97 12:18 Page:63
     1614    27610    3                   END;
     1615    27611        %EJECT;
PL6.E3A0      #001=XSS$MACHINE File=XSS$MACHINE.:XSA1TSI                         WED 10/01/97 12:18 Page:64
     1616    27612        /*****************************************************************************
     1617    27613        *
     1618    27614        *       RS-s            RESYNCHRONIZE (SET) SPDU
     1619    27615        *
     1620    27616        *****************************************************************************/
     1621    27617    2           CASE( %XSS_SEV_RS_S);                           /* TABLE 48 */
     1622    27618    3               DO CASE( SCTX.STATE);
     1623    27619    3                   CASE( %XSS_SST_01A,
     1624    27620    3                         %XSS_SST_16);
     1625    27621    3                       ;  /* don't do anything */
     1626    27622    3                   CASE( %XSS_SST_01C);
     1627    27623                            %EVENT( EV=%XSS_SEV_TDISREQ);
     1628    27626    3                       SCTX.STATE = %XSS_SST_01;
     1629    27627    3                   CASE( %XSS_SST_03);
     1630    27628                            %IFPREDDO( P="10&-34&35");
     1631    27921                                %EVENT( EV=%XSS_SEV_SRSXIND);
     1632    27924                                %ACTION16;
     1633    27927    4                           SCTX.STATE = %XSS_SST_11A;
     1634    27928    4                           END;
     1635    27929                            %ENDPREDDO;
     1636    27934    3                   CASE( %XSS_SST_04A,
     1637    27935    3                         %XSS_SST_04B,
     1638    27936    3                         %XSS_SST_10A,
     1639    27937    3                         %XSS_SST_19,
     1640    27938    3                         %XSS_SST_20);
     1641    27939                            %IFPREDDO( P="35");
     1642    28039                                %EVENT( EV=%XSS_SEV_SRSXIND);
     1643    28042                                %ACTION16;
     1644    28045    4                           SCTX.STATE = %XSS_SST_11A;
     1645    28046    4                           END;
     1646    28047                            %ENDPREDDO;
     1647    28052    3                   CASE( %XSS_SST_05A);
     1648    28053                            %IFPREDDO( P="-24&35");
     1649    28261    4                           ;  /* don't do anything */
     1650    28262    4                           END;
     1651    28263                            %ELSEPREDDO( P="24&35");
     1652    28445                                %EVENT( EV=%XSS_SEV_SRSXIND);
PL6.E3A0      #001=XSS$MACHINE File=XSS$MACHINE.:XSA1TSI                         WED 10/01/97 12:18 Page:65
     1653    28448                                %ACTION16;
     1654    28451    4                           SCTX.STATE = %XSS_SST_11A;
     1655    28452    4                           END;
     1656    28453                            %ENDPREDDO;
     1657    28458    3                   CASE( %XSS_SST_05B,
     1658    28459    3                         %XSS_SST_05C);
     1659    28460                            %IFPREDDO( P="28");
     1660    28560    4                           ;  /* don't do anything */
     1661    28561    4                           END;
     1662    28562                            %ENDPREDDO;
     1663    28567    3                   CASE( %XSS_SST_06);
     1664    28568                            %IFPREDDO( P="-24");
     1665    28691    4                           SCTX.STATE = %XSS_SST_05A;
     1666    28692                                %ACTION06;
     1667    28695    4                           END;
     1668    28696                            %ELSEPREDDO( P="24");
     1669    28793                                %EVENT( EV=%XSS_SEV_SRSXIND);
     1670    28796                                %ACTION16;
     1671    28799    4                           SCTX.STATE = %XSS_SST_11A;
     1672    28800                                %ACTION06;
     1673    28803    4                           END;
     1674    28804                            %ENDPREDDO;
     1675    28809    3                   CASE( %XSS_SST_15B);
     1676    28810                            %IFPREDDO( P="29");
     1677    28910                                %EVENT( EV=%XSS_SEV_SRSXIND);
     1678    28913                                %ACTION16;
     1679    28916    4                           SCTX.STATE = %XSS_SST_11A;
     1680    28917    4                           END;
     1681    28918                            %ENDPREDDO;
     1682    28923    3                   CASE( %XSS_SST_713);
     1683    28924                            %IFPREDDO( P="26&35");
     1684    29109                                %EVENT( EV=%XSS_SEV_SRSXIND);
     1685    29112                                %ACTION16;
     1686    29115    4                           SCTX.STATE = %XSS_SST_11A;
     1687    29116    4                           END;
     1688    29117                            %ENDPREDDO;
     1689    29122    3                   CASE( ELSE);
PL6.E3A0      #001=XSS$MACHINE File=XSS$MACHINE.:XSA1TSI                         WED 10/01/97 12:18 Page:66
     1690    29123                            %INVALID;
     1691    29126    3                   END;
     1692    29127        %EJECT;
PL6.E3A0      #001=XSS$MACHINE File=XSS$MACHINE.:XSA1TSI                         WED 10/01/97 12:18 Page:67
     1693    29128        /*****************************************************************************
     1694    29129        *
     1695    29130        *       TD              TYPED DATA SPDU
     1696    29131        *
     1697    29132        *****************************************************************************/
     1698    29133    2           CASE( %XSS_SEV_TD);                             /* TABLE 46 */
     1699    29134    3               DO CASE( SCTX.STATE);
     1700    29135    3                   CASE( %XSS_SST_01A,
     1701    29136    3                         %XSS_SST_16);
     1702    29137    3                       ;  /* don't do anything */
     1703    29138    3                   CASE( %XSS_SST_01C);
     1704    29139                            %EVENT( EV=%XSS_SEV_TDISREQ);
     1705    29142    3                       SCTX.STATE = %XSS_SST_01;
     1706    29143    3                   CASE( %XSS_SST_03);
     1707    29144                            %IFPREDDO( P="06&10");
     1708    29329                                %EVENT( EV=%XSS_SEV_STYDIND);
     1709    29332    4                           END;
     1710    29333                            %ENDPREDDO;
     1711    29338    3                   CASE( %XSS_SST_04A,
     1712    29339    3                         %XSS_SST_04B,
     1713    29340    3                         %XSS_SST_15A,
     1714    29341    3                         %XSS_SST_18,
     1715    29342    3                         %XSS_SST_21,
     1716    29343    3                         %XSS_SST_713);
     1717    29344                            %IFPREDDO( P="06");
     1718    29444                                %EVENT( EV=%XSS_SEV_STYDIND);
     1719    29447    4                           END;
     1720    29448                            %ENDPREDDO;
     1721    29453    3                   CASE( %XSS_SST_05A,
     1722    29454    3                         %XSS_SST_05B,
     1723    29455    3                         %XSS_SST_05C,
     1724    29456    3                         %XSS_SST_06,
     1725    29457    3                         %XSS_SST_15B,
     1726    29458    3                         %XSS_SST_15C,
     1727    29459    3                         %XSS_SST_19,
     1728    29460    3                         %XSS_SST_20);
     1729    29461                            %IFPREDDO( P="06");
PL6.E3A0      #001=XSS$MACHINE File=XSS$MACHINE.:XSA1TSI                         WED 10/01/97 12:18 Page:68
     1730    29561    4                           ;  /* don't do anything */
     1731    29562    4                           END;
     1732    29563                            %ENDPREDDO;
     1733    29568    3                   CASE( ELSE);
     1734    29569                            %INVALID;
     1735    29572    3                   END;
     1736    29573        %EJECT;
PL6.E3A0      #001=XSS$MACHINE File=XSS$MACHINE.:XSA1TSI                         WED 10/01/97 12:18 Page:69
     1737    29574        /*****************************************************************************
     1738    29575        *
     1739    29576        *       SACDREQ         S-ACTIVITY-DISCARD Request
     1740    29577        *
     1741    29578        *****************************************************************************/
     1742    29579    2           CASE( %XSS_SEV_SACDREQ);                        /* TABLE 49 */
     1743    29580    3               DO CASE( SCTX.STATE);
     1744    29581    3                   CASE( %XSS_SST_04A,
     1745    29582    3                         %XSS_SST_11A,
     1746    29583    3                         %XSS_SST_713);
     1747    29584                            %IFPREDDO( P="34&39");
     1748    29769    4                           IF SCTX.FLAGS.TEXP THEN
     1749    29770                                    %EVENT( EV=%XSS_SEV_PR_RS);
     1750    29773                                %EVENT( EV=%XSS_SEV_AD);
     1751    29776                                %ACTION16;
     1752    29779    4                           SCTX.STATE = %XSS_SST_05C;
     1753    29780    4                           END;
     1754    29781                            %ENDPREDDO;
     1755    29786    3                   CASE( %XSS_SST_04B);
     1756    29787                            %IFPREDDO( P="39");
     1757    29887    4                           IF SCTX.FLAGS.TEXP THEN
     1758    29888                                    %EVENT( EV=%XSS_SEV_PR_RS);
     1759    29891                                %EVENT( EV=%XSS_SEV_AD);
     1760    29894                                %ACTION16;
     1761    29897    4                           SCTX.STATE = %XSS_SST_05C;
     1762    29898    4                           END;
     1763    29899                            %ENDPREDDO;
     1764    29904    3                   CASE( %XSS_SST_15A);
     1765    29905                            %IFPREDDO( P="34&39");
     1766    30090    4                           IF SCTX.FLAGS.TEXP THEN
     1767    30091                                    %EVENT( EV=%XSS_SEV_PR_RS);
     1768    30094                                %EVENT( EV=%XSS_SEV_AD);
     1769    30097                                %ACTION16;
     1770    30100    4                           SCTX.STATE = %XSS_SST_05C;
     1771    30101                                %ACTION06;
     1772    30104    4                           END;
     1773    30105                            %ENDPREDDO;
PL6.E3A0      #001=XSS$MACHINE File=XSS$MACHINE.:XSA1TSI                         WED 10/01/97 12:18 Page:70
     1774    30110    3                   CASE( %XSS_SST_15B);
     1775    30111                            %IFPREDDO( P="27&34&39");
     1776    30381    4                           IF SCTX.FLAGS.TEXP THEN
     1777    30382                                    %EVENT( EV=%XSS_SEV_PR_RS);
     1778    30385                                %EVENT( EV=%XSS_SEV_AD);
     1779    30388                                %ACTION16;
     1780    30391    4                           SCTX.STATE = %XSS_SST_05C;
     1781    30392    4                           END;
     1782    30393                            %ENDPREDDO;
     1783    30398    3                   CASE( %XSS_SST_20);
     1784    30399                            %IFPREDDO( P="34&11");
     1785    30584    4                           IF SCTX.FLAGS.TEXP THEN
     1786    30585                                    %EVENT( EV=%XSS_SEV_PR_RS);
     1787    30588                                %EVENT( EV=%XSS_SEV_AD);
     1788    30591                                %ACTION16;
     1789    30594    4                           SCTX.STATE = %XSS_SST_05C;
     1790    30595    4                           END;
     1791    30596                            %ENDPREDDO;
     1792    30601    3                   CASE( ELSE);
     1793    30602                            %INVALID;
     1794    30605    3                   END;
     1795    30606        %EJECT;
PL6.E3A0      #001=XSS$MACHINE File=XSS$MACHINE.:XSA1TSI                         WED 10/01/97 12:18 Page:71
     1796    30607        /*****************************************************************************
     1797    30608        *
     1798    30609        *       SACDRSP         S-ACTIVITY-DISCARD Response
     1799    30610        *
     1800    30611        *****************************************************************************/
     1801    30612    2           CASE( %XSS_SEV_SACDRSP);                        /* TABLE 49 */
     1802    30613    3               IF SCTX.STATE = %XSS_SST_11C THEN DO;
     1803    30614    3                   IF SCTX.FLAGS.TEXP THEN
     1804    30615                            %EVENT( EV=%XSS_SEV_PR_RA);
     1805    30618                        %EVENT( EV=%XSS_SEV_ADA);
     1806    30621                        %ACTION30;
     1807    30624    3                   SCTX.STATE = %XSS_SST_713;
     1808    30625    3                   END;
     1809    30626    2               ELSE
     1810    30627                        %INVALID;
     1811    30630        %EJECT;
PL6.E3A0      #001=XSS$MACHINE File=XSS$MACHINE.:XSA1TSI                         WED 10/01/97 12:18 Page:72
     1812    30631        /*****************************************************************************
     1813    30632        *
     1814    30633        *       SACEREQ         S-ACTIVITY-END Request
     1815    30634        *
     1816    30635        *****************************************************************************/
     1817    30636    2           CASE( %XSS_SEV_SACEREQ);                        /* TABLE 47 */
     1818    30637    3               DO SELECT( SCTX.STATE);
     1819    30638    3                   SELECT( %XSS_SST_15B);
     1820    30639                            %IFPREDDO( P="71");
     1821    30739    4                           ;  /* don't do anything */
     1822    30740    4                           END;
     1823    30741                            %ENDPREDDO;
     1824    30746    3                   SELECT( %XSS_SST_713);
     1825    30747                            %IFPREDDO( P="71");
     1826    30847                                %EVENT( EV=%XSS_SEV_AE);
     1827    30850                                %ACTION13;
     1828    30853                                %ACTION24;
     1829    30856    4                           SCTX.STATE = %XSS_SST_04B;
     1830    30857    4                           END;
     1831    30858                            %ENDPREDDO;
     1832    30863    3                   SELECT( ELSE);
     1833    30864                            %INVALID;
     1834    30867    3                   END;
     1835    30868        %EJECT;
PL6.E3A0      #001=XSS$MACHINE File=XSS$MACHINE.:XSA1TSI                         WED 10/01/97 12:18 Page:73
     1836    30869        /*****************************************************************************
     1837    30870        *
     1838    30871        *       SACERSP         S-ACTIVITY-END Response
     1839    30872        *
     1840    30873        *****************************************************************************/
     1841    30874    2           CASE( %XSS_SEV_SACERSP);                        /* TABLE 47 */
     1842    30875    3               IF SCTX.STATE = %XSS_SST_10B THEN DO;
     1843    30876    3                   IF SCTX.FLAGS.TEXP THEN
     1844    30877                            %EVENT( EV=%XSS_SEV_PR_MAA);
     1845    30880                        %EVENT( EV=%XSS_SEV_AEA);
     1846    30883                        %ACTION14;
     1847    30886                        %ACTION22;
     1848    30889    3                   SCTX.STATE = %XSS_SST_713;
     1849    30890    3                   END;
     1850    30891    2               ELSE
     1851    30892                        %INVALID;
     1852    30895        %EJECT;
PL6.E3A0      #001=XSS$MACHINE File=XSS$MACHINE.:XSA1TSI                         WED 10/01/97 12:18 Page:74
     1853    30896        /*****************************************************************************
     1854    30897        *
     1855    30898        *       SACIREQ         S-ACTIVITY-INTERRUPT Request
     1856    30899        *
     1857    30900        *****************************************************************************/
     1858    30901    2           CASE( %XSS_SEV_SACIREQ);                        /* TABLE 49 */
     1859    30902    3               DO CASE( SCTX.STATE);
     1860    30903    3                   CASE( %XSS_SST_04A,
     1861    30904    3                         %XSS_SST_11A,
     1862    30905    3                         %XSS_SST_713);
     1863    30906                            %IFPREDDO( P="34&39");
     1864    31091    4                           IF SCTX.FLAGS.TEXP THEN
     1865    31092                                    %EVENT( EV=%XSS_SEV_PR_RS);
     1866    31095                                %EVENT( EV=%XSS_SEV_AI);
     1867    31098                                %ACTION16;
     1868    31101    4                           SCTX.STATE = %XSS_SST_05B;
     1869    31102    4                           END;
     1870    31103                            %ENDPREDDO;
     1871    31108    3                   CASE( %XSS_SST_04B);
     1872    31109                            %IFPREDDO( P="39");
     1873    31209    4                           IF SCTX.FLAGS.TEXP THEN
     1874    31210                                    %EVENT( EV=%XSS_SEV_PR_RS);
     1875    31213                                %EVENT( EV=%XSS_SEV_AI);
     1876    31216                                %ACTION16;
     1877    31219    4                           SCTX.STATE = %XSS_SST_05B;
     1878    31220    4                           END;
     1879    31221                            %ENDPREDDO;
     1880    31226    3                   CASE( %XSS_SST_15A);
     1881    31227                            %IFPREDDO( P="34&39");
     1882    31412    4                           IF SCTX.FLAGS.TEXP THEN
     1883    31413                                    %EVENT( EV=%XSS_SEV_PR_RS);
     1884    31416                                %EVENT( EV=%XSS_SEV_AI);
     1885    31419                                %ACTION16;
     1886    31422    4                           SCTX.STATE = %XSS_SST_05B;
     1887    31423                                %ACTION06;
     1888    31426    4                           END;
     1889    31427                            %ENDPREDDO;
PL6.E3A0      #001=XSS$MACHINE File=XSS$MACHINE.:XSA1TSI                         WED 10/01/97 12:18 Page:75
     1890    31432    3                   CASE( %XSS_SST_15B);
     1891    31433                            %IFPREDDO( P="27&34&39");
     1892    31703    4                           IF SCTX.FLAGS.TEXP THEN
     1893    31704                                    %EVENT( EV=%XSS_SEV_PR_RS);
     1894    31707                                %EVENT( EV=%XSS_SEV_AI);
     1895    31710                                %ACTION16;
     1896    31713    4                           SCTX.STATE = %XSS_SST_05B;
     1897    31714    4                           END;
     1898    31715                            %ENDPREDDO;
     1899    31720    3                   CASE( %XSS_SST_20);
     1900    31721                            %IFPREDDO( P="34&11");
     1901    31906    4                           IF SCTX.FLAGS.TEXP THEN
     1902    31907                                    %EVENT( EV=%XSS_SEV_PR_RS);
     1903    31910                                %EVENT( EV=%XSS_SEV_AI);
     1904    31913                                %ACTION16;
     1905    31916    4                           SCTX.STATE = %XSS_SST_05B;
     1906    31917    4                           END;
     1907    31918                            %ENDPREDDO;
     1908    31923    3                   CASE( ELSE);
     1909    31924                            %INVALID;
     1910    31927    3                   END;
     1911    31928        %EJECT;
PL6.E3A0      #001=XSS$MACHINE File=XSS$MACHINE.:XSA1TSI                         WED 10/01/97 12:18 Page:76
     1912    31929        /*****************************************************************************
     1913    31930        *
     1914    31931        *       SACIRSP         S-ACTIVITY-INTERRUPT Response
     1915    31932        *
     1916    31933        *****************************************************************************/
     1917    31934    2           CASE( %XSS_SEV_SACIRSP);                        /* TABLE 49 */
     1918    31935    3               IF SCTX.STATE = %XSS_SST_11B THEN DO;
     1919    31936    3                   IF SCTX.FLAGS.TEXP THEN
     1920    31937                            %EVENT( EV=%XSS_SEV_PR_RA);
     1921    31940                        %EVENT( EV=%XSS_SEV_AIA);
     1922    31943                        %ACTION30;
     1923    31946    3                   SCTX.STATE = %XSS_SST_713;
     1924    31947    3                   END;
     1925    31948    2               ELSE
     1926    31949                        %INVALID;
     1927    31952        %EJECT;
PL6.E3A0      #001=XSS$MACHINE File=XSS$MACHINE.:XSA1TSI                         WED 10/01/97 12:18 Page:77
     1928    31953        /*****************************************************************************
     1929    31954        *
     1930    31955        *       SACRREQ         S-ACTIVITY-RESUME Request
     1931    31956        *
     1932    31957        *****************************************************************************/
     1933    31958    2           CASE( %XSS_SEV_SACRREQ);                        /* TABLE 50 */
     1934    31959    3               IF SCTX.STATE = %XSS_SST_713 THEN DO;
     1935    31960                        %IFPREDDO( P="45");
     1936    32060                            %EVENT( EV=%XSS_SEV_AR);
     1937    32063                            %ACTION12;
     1938    32066                            %ACTION27;
     1939    32069    4                       END;
     1940    32070                        %ENDPREDDO;
     1941    32075    3                   END;
     1942    32076    2               ELSE
     1943    32077                        %INVALID;
     1944    32080        %EJECT;
PL6.E3A0      #001=XSS$MACHINE File=XSS$MACHINE.:XSA1TSI                         WED 10/01/97 12:18 Page:78
     1945    32081        /*****************************************************************************
     1946    32082        *
     1947    32083        *       SACSREQ         S-ACTIVITY-START Request
     1948    32084        *
     1949    32085        *****************************************************************************/
     1950    32086    2           CASE( %XSS_SEV_SACSREQ);                        /* TABLE 50 */
     1951    32087    3               IF SCTX.STATE = %XSS_SST_713 THEN DO;
     1952    32088                        %IFPREDDO( P="45");
     1953    32188                            %EVENT( EV=%XSS_SEV_AS);
     1954    32191                            %ACTION12;
     1955    32194                            %ACTION26;
     1956    32197    4                       END;
     1957    32198                        %ENDPREDDO;
     1958    32203    3                   END;
     1959    32204    2               ELSE
     1960    32205                        %INVALID;
     1961    32208        %EJECT;
PL6.E3A0      #001=XSS$MACHINE File=XSS$MACHINE.:XSA1TSI                         WED 10/01/97 12:18 Page:79
     1962    32209        /*****************************************************************************
     1963    32210        *
     1964    32211        *       SCADREQ         S-CAPABILITY-DATA Request
     1965    32212        *
     1966    32213        *****************************************************************************/
     1967    32214    2           CASE( %XSS_SEV_SCADREQ);                        /* TABLE 50 */
     1968    32215    3               IF SCTX.STATE = %XSS_SST_713 THEN DO;
     1969    32216                        %IFPREDDO( P="47");
     1970    32316                            %EVENT( EV=%XSS_SEV_CD);
     1971    32319    4                       SCTX.STATE = %XSS_SST_21;
     1972    32320    4                       END;
     1973    32321                        %ENDPREDDO;
     1974    32326    3                   END;
     1975    32327    2               ELSE
     1976    32328                        %INVALID;
     1977    32331        %EJECT;
PL6.E3A0      #001=XSS$MACHINE File=XSS$MACHINE.:XSA1TSI                         WED 10/01/97 12:18 Page:80
     1978    32332        /*****************************************************************************
     1979    32333        *
     1980    32334        *       SCADRSP         S-CAPABILITY-DATA Response
     1981    32335        *
     1982    32336        *****************************************************************************/
     1983    32337    2           CASE( %XSS_SEV_SCADRSP);                        /* TABLE 50 */
     1984    32338    3               IF SCTX.STATE = %XSS_SST_22 THEN DO;
     1985    32339                        %EVENT( EV=%XSS_SEV_CDA);
     1986    32342    3                   SCTX.STATE = %XSS_SST_713;
     1987    32343    3                   END;
     1988    32344    2               ELSE
     1989    32345                        %INVALID;
     1990    32348        %EJECT;
PL6.E3A0      #001=XSS$MACHINE File=XSS$MACHINE.:XSA1TSI                         WED 10/01/97 12:18 Page:81
     1991    32349        /*****************************************************************************
     1992    32350        *
     1993    32351        *       SCONREQ         S-CONNECT Request
     1994    32352        *
     1995    32353        *****************************************************************************/
     1996    32354    2           CASE( %XSS_SEV_SCONREQ);                        /* TABLE 45 */
     1997    32355    3               DO CASE( SCTX.STATE);
     1998    32356    3                   CASE( %XSS_SST_01);
     1999    32357                            %EVENT( EV=%XSS_SEV_TCONREQ);
     2000    32360                            %ACTION02;
     2001    32363    3                       SCTX.STATE = %XSS_SST_01B;
     2002    32364    3                   CASE( %XSS_SST_01C);
     2003    32365                            %IFPREDDO( P="01");
     2004    32465                                %EVENT( EV=%XSS_SEV_CN);
     2005    32468    4                           SCTX.STATE = %XSS_SST_02A;
     2006    32469    4                           END;
     2007    32470                            %ENDPREDDO;
     2008    32475    3                   CASE( ELSE);
     2009    32476                            %INVALID;
     2010    32479    3                   END;
     2011    32480        %EJECT;
PL6.E3A0      #001=XSS$MACHINE File=XSS$MACHINE.:XSA1TSI                         WED 10/01/97 12:18 Page:82
     2012    32481        /*****************************************************************************
     2013    32482        *
     2014    32483        *       SCONRSP         S-CONNECT Response (positive)
     2015    32484        *
     2016    32485        *****************************************************************************/
     2017    32486    2           CASE( %XSS_SEV_SCONRSP);                        /* TABLE 45 */
     2018    32487    3               IF SCTX.STATE = %XSS_SST_08 THEN DO;
     2019    32488                        %EVENT( EV=%XSS_SEV_AC);
     2020    32491                        %ACTION05;
     2021    32494                        %ACTION11;
     2022    32497    3                   SCTX.STATE = %XSS_SST_713;
     2023    32498    3                   END;
     2024    32499    2               ELSE
     2025    32500                        %INVALID;
     2026    32503        %EJECT;
PL6.E3A0      #001=XSS$MACHINE File=XSS$MACHINE.:XSA1TSI                         WED 10/01/97 12:18 Page:83
     2027    32504        /*****************************************************************************
     2028    32505        *
     2029    32506        *       SCONRSN         S-CONNECT Response (negative)
     2030    32507        *
     2031    32508        *****************************************************************************/
     2032    32509    2           CASE( %XSS_SEV_SCONRSN);                        /* TABLE 45 */
     2033    32510                    %IFPREDDO( P="-02");
     2034    32633                        %EVENT( EV=%XSS_SEV_RF_NR);
     2035    32636                        %ACTION04;
     2036    32639    3                   SCTX.STATE = %XSS_SST_16;
     2037    32640    3                   END;
     2038    32641                    %ELSEPREDDO( P="02");
     2039    32738                        %EVENT( EV=%XSS_SEV_RF_R);
     2040    32741    3                   SCTX.STATE = %XSS_SST_01C;
     2041    32742    3                   END;
     2042    32743                    %ENDPREDDO;
     2043    32748        %EJECT;
PL6.E3A0      #001=XSS$MACHINE File=XSS$MACHINE.:XSA1TSI                         WED 10/01/97 12:18 Page:84
     2044    32749        /*****************************************************************************
     2045    32750        *
     2046    32751        *       SCTGREQ         S-CONTROL-GIVE Request
     2047    32752        *
     2048    32753        *****************************************************************************/
     2049    32754    2           CASE( %XSS_SEV_SCTGREQ);                        /* TABLE 51 */
     2050    32755    3               DO CASE( SCTX.STATE);
     2051    32756    3                   CASE( %XSS_SST_713);
     2052    32757                            %IFPREDDO( P="55");
     2053    32857                                %EVENT( EV=%XSS_SEV_GTC);
     2054    32860                                %ACTION11;
     2055    32863    4                           SCTX.STATE = %XSS_SST_18;
     2056    32864    4                           END;
     2057    32865                            %ENDPREDDO;
     2058    32870    3                   CASE( ELSE);
     2059    32871                            %INVALID;
     2060    32874    3                   END;
     2061    32875        %EJECT;
PL6.E3A0      #001=XSS$MACHINE File=XSS$MACHINE.:XSA1TSI                         WED 10/01/97 12:18 Page:85
     2062    32876        /*****************************************************************************
     2063    32877        *
     2064    32878        *       SDATREQ         S-DATA Request
     2065    32879        *
     2066    32880        *****************************************************************************/
     2067    32881    2           CASE( %XSS_SEV_SDATREQ);                        /* TABLE 46 */
     2068    32882    3               DO CASE( SCTX.STATE);
     2069    32883    3                   CASE( %XSS_SST_09);
     2070    32884                            %IFPREDDO( P="04");
     2071    32984                                %EVENT( EV=%XSS_SEV_DT);
     2072    32987    4                           END;
     2073    32988                            %ENDPREDDO;
     2074    32993    3                   CASE( %XSS_SST_10A,
     2075    32994    3                         %XSS_SST_10B,
     2076    32995    3                         %XSS_SST_713);
     2077    32996                            %IFPREDDO( P="03");
     2078    33096                                %EVENT( EV=%XSS_SEV_DT);
     2079    33099    4                           END;
     2080    33100                            %ENDPREDDO;
     2081    33105    3                   CASE( %XSS_SST_15B);
     2082    33106                            %IFPREDDO( P="03");
     2083    33206    4                           ;  /* don't do anything */
     2084    33207    4                           END;
     2085    33208                            %ENDPREDDO;
     2086    33213    3                   CASE( %XSS_SST_18);
     2087    33214                            %IFPREDDO( P="70");
     2088    33314                                %EVENT( EV=%XSS_SEV_DT);
     2089    33317    4                           END;
     2090    33318                            %ENDPREDDO;
     2091    33323    3                   CASE( ELSE);
     2092    33324                            %INVALID;
     2093    33327    3                   END;
     2094    33328        %EJECT;
PL6.E3A0      #001=XSS$MACHINE File=XSS$MACHINE.:XSA1TSI                         WED 10/01/97 12:18 Page:86
     2095    33329        /*****************************************************************************
     2096    33330        *
     2097    33331        *       SEXPREQ         S-EXPEDITED-DATA Request
     2098    33332        *
     2099    33333        *****************************************************************************/
     2100    33334    2           CASE( %XSS_SEV_SEXPREQ);                        /* TABLE 46 */
     2101    33335    3               DO CASE( SCTX.STATE);
     2102    33336    3                   CASE( %XSS_SST_09);
     2103    33337                            %IFPREDDO( P="09");
     2104    33437                                %EVENT( EV=%XSS_SEV_EX);
     2105    33440    4                           END;
     2106    33441                            %ENDPREDDO;
     2107    33446    3                   CASE( %XSS_SST_10A,
     2108    33447    3                         %XSS_SST_10B,
     2109    33448    3                         %XSS_SST_18,
     2110    33449    3                         %XSS_SST_713);
     2111    33450                            %IFPREDDO( P="08");
     2112    33550                                %EVENT( EV=%XSS_SEV_EX);
     2113    33553    4                           END;
     2114    33554                            %ENDPREDDO;
     2115    33559    3                   CASE( %XSS_SST_15B);
     2116    33560                            %IFPREDDO( P="08");
     2117    33660    4                           ;  /* don't do anything */
     2118    33661    4                           END;
     2119    33662                            %ENDPREDDO;
     2120    33667    3                   CASE( ELSE);
     2121    33668                            %INVALID;
     2122    33671    3                   END;
     2123    33672        %EJECT;
PL6.E3A0      #001=XSS$MACHINE File=XSS$MACHINE.:XSA1TSI                         WED 10/01/97 12:18 Page:87
     2124    33673        /*****************************************************************************
     2125    33674        *
     2126    33675        *       SRELREQ         S-RELEASE Request
     2127    33676        *
     2128    33677        *****************************************************************************/
     2129    33678    2           CASE( %XSS_SEV_SRELREQ);                        /* TABLE 52 */
     2130    33679    3               DO CASE( SCTX.STATE);
     2131    33680    3                   CASE( %XSS_SST_09);
     2132    33681    3                   CASE( %XSS_SST_03);
     2133    33682                            %IFPREDDO( P="-65");
     2134    33805                                %EVENT( EV=%XSS_SEV_FN_NR);
     2135    33808                                %ACTION08;
     2136    33811                                %ACTION18;
     2137    33814    4                           SCTX.STATE = %XSS_SST_09;
     2138    33815    4                           END;
     2139    33816                            %ENDPREDDO;
     2140    33821    3                   CASE( %XSS_SST_15B);
     2141    33822                            %IFPREDDO( P="63");
     2142    33922    4                           ;  /* don't do anything */
     2143    33923    4                           END;
     2144    33924                            %ENDPREDDO;
     2145    33929    3                   CASE( %XSS_SST_713);
     2146    33930                            %IFPREDDO( P="63&-64");
     2147    34138                                %EVENT( EV=%XSS_SEV_FN_NR);
     2148    34141                                %ACTION08;
     2149    34144    4                           SCTX.STATE = %XSS_SST_03;
     2150    34145    4                           END;
     2151    34146                            %ELSEPREDDO( P="63&64");
     2152    34328                                %EVENT( EV=%XSS_SEV_FN_R);
     2153    34331                                %ACTION07;
     2154    34334    4                           SCTX.STATE = %XSS_SST_03;
     2155    34335    4                           END;
     2156    34336                            %ENDPREDDO;
     2157    34341    3                   CASE( ELSE);
     2158    34342                            %INVALID;
     2159    34345    3                   END;
     2160    34346        %EJECT;
PL6.E3A0      #001=XSS$MACHINE File=XSS$MACHINE.:XSA1TSI                         WED 10/01/97 12:18 Page:88
     2161    34347        /*****************************************************************************
     2162    34348        *
     2163    34349        *       SRELRSP         S-RELEASE Response (positive)
     2164    34350        *
     2165    34351        *****************************************************************************/
     2166    34352    2           CASE( %XSS_SEV_SRELRSP);                        /* TABLE 52 */
     2167    34353    3               IF SCTX.STATE = %XSS_SST_09 THEN DO;
     2168    34354                        %IFPREDDO( P="-66&75");
     2169    34562                            %EVENT( EV=%XSS_SEV_DN);
     2170    34565                            %ACTION04;
     2171    34568    4                       SCTX.STATE = %XSS_SST_16;
     2172    34569    4                       END;
     2173    34570                        %ELSEPREDDO( P="66");
     2174    34667                            %EVENT( EV=%XSS_SEV_DN);
     2175    34670    4                       SCTX.STATE = %XSS_SST_01C;
     2176    34671    4                       END;
     2177    34672                        %ELSEPREDDO( P="69&01");
     2178    34854                            %EVENT( EV=%XSS_SEV_DN);
     2179    34857    4                       SCTX.STATE = %XSS_SST_03;
     2180    34858    4                       END;
     2181    34859                        %ENDPREDDO;
     2182    34864    3                   END;
     2183    34865    2               ELSE
     2184    34866                        %INVALID;
     2185    34869        %EJECT;
PL6.E3A0      #001=XSS$MACHINE File=XSS$MACHINE.:XSA1TSI                         WED 10/01/97 12:18 Page:89
     2186    34870        /*****************************************************************************
     2187    34871        *
     2188    34872        *       SRELRSN         S-RELEASE Response (negative)
     2189    34873        *
     2190    34874        *****************************************************************************/
     2191    34875    2           CASE( %XSS_SEV_SRELRSN);                        /* TABLE 52 */
     2192    34876    3               IF SCTX.STATE = %XSS_SST_09 THEN DO;
     2193    34877                        %IFPREDDO( P="67");
     2194    34977                            %EVENT( EV=%XSS_SEV_NF);
     2195    34980    4                       SCTX.STATE = %XSS_SST_713;
     2196    34981    4                       END;
     2197    34982                        %ENDPREDDO;
     2198    34987    3                   END;
     2199    34988    2               ELSE
     2200    34989                        %INVALID;
     2201    34992        %EJECT;
PL6.E3A0      #001=XSS$MACHINE File=XSS$MACHINE.:XSA1TSI                         WED 10/01/97 12:18 Page:90
     2202    34993        /*****************************************************************************
     2203    34994        *
     2204    34995        *       SRSAREQ         S-RESYNCHRONIZE (ABANDON) Request
     2205    34996        *
     2206    34997        *****************************************************************************/
     2207    34998    2           CASE( %XSS_SEV_SRSAREQ);                        /* TABLE 48 */
     2208    34999    3               DO CASE( SCTX.STATE);
     2209    35000    3                   CASE( %XSS_SST_04A,
     2210    35001    3                         %XSS_SST_10A,
     2211    35002    3                         %XSS_SST_10B,
     2212    35003    3                         %XSS_SST_20);
     2213    35004                            %IFPREDDO( P="28");
     2214    35104    4                           IF SCTX.FLAGS.TEXP THEN
     2215    35105                                    %EVENT( EV=%XSS_SEV_PR_RS);
     2216    35108                                %EVENT( EV=%XSS_SEV_RS_A);
     2217    35111                                %ACTION16;
     2218    35114    4                           SCTX.STATE = %XSS_SST_05A;
     2219    35115    4                           END;
     2220    35116                            %ENDPREDDO;
     2221    35121    3                   CASE( %XSS_SST_09);
     2222    35122                            %IFPREDDO( P="10&28&-34");
     2223    35415    4                           IF SCTX.FLAGS.TEXP THEN
     2224    35416                                    %EVENT( EV=%XSS_SEV_PR_RS);
     2225    35419                                %EVENT( EV=%XSS_SEV_RS_A);
     2226    35422                                %ACTION16;
     2227    35425    4                           SCTX.STATE = %XSS_SST_05A;
     2228    35426    4                           END;
     2229    35427                            %ENDPREDDO;
     2230    35432    3                   CASE( %XSS_SST_11A);
     2231    35433                            %IFPREDDO( P="24");
     2232    35533    4                           IF SCTX.FLAGS.TEXP THEN
     2233    35534                                    %EVENT( EV=%XSS_SEV_PR_RS);
     2234    35537                                %EVENT( EV=%XSS_SEV_RS_A);
     2235    35540                                %ACTION16;
     2236    35543    4                           SCTX.STATE = %XSS_SST_05A;
     2237    35544    4                           END;
     2238    35545                            %ENDPREDDO;
PL6.E3A0      #001=XSS$MACHINE File=XSS$MACHINE.:XSA1TSI                         WED 10/01/97 12:18 Page:91
     2239    35550    3                   CASE( %XSS_SST_15A);
     2240    35551                            %IFPREDDO( P="28&30");
     2241    35736    4                           IF SCTX.FLAGS.TEXP THEN
     2242    35737                                    %EVENT( EV=%XSS_SEV_PR_RS);
     2243    35740                                %EVENT( EV=%XSS_SEV_RS_A);
     2244    35743                                %ACTION16;
     2245    35746    4                           SCTX.STATE = %XSS_SST_05A;
     2246    35747                                %ACTION06;
     2247    35750    4                           END;
     2248    35751                            %ENDPREDDO;
     2249    35756    3                   CASE( %XSS_SST_15B);
     2250    35757                            %IFPREDDO( P="27&28");
     2251    35942    4                           IF SCTX.FLAGS.TEXP THEN
     2252    35943                                    %EVENT( EV=%XSS_SEV_PR_RS);
     2253    35946                                %EVENT( EV=%XSS_SEV_RS_A);
     2254    35949                                %ACTION16;
     2255    35952    4                           SCTX.STATE = %XSS_SST_06;
     2256    35953    4                           END;
     2257    35954                            %ENDPREDDO;
     2258    35959    3                   CASE( %XSS_SST_713);
     2259    35960                            %IFPREDDO( P="29");
     2260    36060    4                           IF SCTX.FLAGS.TEXP THEN
     2261    36061                                    %EVENT( EV=%XSS_SEV_PR_RS);
     2262    36064                                %EVENT( EV=%XSS_SEV_RS_A);
     2263    36067                                %ACTION16;
     2264    36070    4                           SCTX.STATE = %XSS_SST_05A;
     2265    36071    4                           END;
     2266    36072                            %ENDPREDDO;
     2267    36077    3                   CASE( ELSE);
     2268    36078                            %INVALID;
     2269    36081    3                   END;
     2270    36082        %EJECT;
PL6.E3A0      #001=XSS$MACHINE File=XSS$MACHINE.:XSA1TSI                         WED 10/01/97 12:18 Page:92
     2271    36083        /*****************************************************************************
     2272    36084        *
     2273    36085        *       SRSRREQ         S-RESYNCHRONIZE (RESTART) Request
     2274    36086        *
     2275    36087        *****************************************************************************/
     2276    36088    2           CASE( %XSS_SEV_SRSRREQ);                        /* TABLE 48 */
     2277    36089    3               DO CASE( SCTX.STATE);
     2278    36090    3                   CASE( %XSS_SST_09);
     2279    36091                            %IFPREDDO( P="10&25&-34&33");
     2280    36469    4                           IF SCTX.FLAGS.TEXP THEN
     2281    36470                                    %EVENT( EV=%XSS_SEV_PR_RS);
     2282    36473                                %EVENT( EV=%XSS_SEV_RS_R);
     2283    36476                                %ACTION16;
     2284    36479    4                           SCTX.STATE = %XSS_SST_05A;
     2285    36480    4                           END;
     2286    36481                            %ENDPREDDO;
     2287    36486    3                   CASE( %XSS_SST_10A,
     2288    36487    3                         %XSS_SST_10B,
     2289    36488    3                         %XSS_SST_20);
     2290    36489                            %IFPREDDO( P="25&33");
     2291    36674    4                           IF SCTX.FLAGS.TEXP THEN
     2292    36675                                    %EVENT( EV=%XSS_SEV_PR_RS);
     2293    36678                                %EVENT( EV=%XSS_SEV_RS_R);
     2294    36681                                %ACTION16;
     2295    36684    4                           SCTX.STATE = %XSS_SST_05A;
     2296    36685    4                           END;
     2297    36686                            %ENDPREDDO;
     2298    36691    3                   CASE( %XSS_SST_11A);
     2299    36692                            %IFPREDDO( P="24&33");
     2300    36877    4                           IF SCTX.FLAGS.TEXP THEN
     2301    36878                                    %EVENT( EV=%XSS_SEV_PR_RS);
     2302    36881                                %EVENT( EV=%XSS_SEV_RS_R);
     2303    36884                                %ACTION16;
     2304    36887    4                           SCTX.STATE = %XSS_SST_05A;
     2305    36888    4                           END;
     2306    36889                            %ENDPREDDO;
     2307    36894    3                   CASE( %XSS_SST_15B);
PL6.E3A0      #001=XSS$MACHINE File=XSS$MACHINE.:XSA1TSI                         WED 10/01/97 12:18 Page:93
     2308    36895                            %IFPREDDO( P="25&27&33");
     2309    37165    4                           IF SCTX.FLAGS.TEXP THEN
     2310    37166                                    %EVENT( EV=%XSS_SEV_PR_RS);
     2311    37169                                %EVENT( EV=%XSS_SEV_RS_R);
     2312    37172                                %ACTION16;
     2313    37175    4                           SCTX.STATE = %XSS_SST_06;
     2314    37176    4                           END;
     2315    37177                            %ENDPREDDO;
     2316    37182    3                   CASE( %XSS_SST_713);
     2317    37183                            %IFPREDDO( P="25&26&33");
     2318    37453    4                           IF SCTX.FLAGS.TEXP THEN
     2319    37454                                    %EVENT( EV=%XSS_SEV_PR_RS);
     2320    37457                                %EVENT( EV=%XSS_SEV_RS_R);
     2321    37460                                %ACTION16;
     2322    37463    4                           SCTX.STATE = %XSS_SST_05A;
     2323    37464    4                           END;
     2324    37465                            %ENDPREDDO;
     2325    37470    3                   CASE( ELSE);
     2326    37471                            %INVALID;
     2327    37474    3                   END;
     2328    37475        %EJECT;
PL6.E3A0      #001=XSS$MACHINE File=XSS$MACHINE.:XSA1TSI                         WED 10/01/97 12:18 Page:94
     2329    37476        /*****************************************************************************
     2330    37477        *
     2331    37478        *       SRSSREQ         S-RESYNCHRONIZE (SET) Request
     2332    37479        *
     2333    37480        *****************************************************************************/
     2334    37481    2           CASE( %XSS_SEV_SRSSREQ);                        /* TABLE 48 */
     2335    37482    3               DO CASE( SCTX.STATE);
     2336    37483    3                   CASE( %XSS_SST_04A);
     2337    37484                            %IFPREDDO( P="28");
     2338    37584    4                           IF SCTX.FLAGS.TEXP THEN
     2339    37585                                    %EVENT( EV=%XSS_SEV_PR_RS);
     2340    37588                                %EVENT( EV=%XSS_SEV_RS_S);
     2341    37591                                %ACTION16;
     2342    37594    4                           SCTX.STATE = %XSS_SST_05A;
     2343    37595    4                           END;
     2344    37596                            %ENDPREDDO;
     2345    37601    3                   CASE( %XSS_SST_09);
     2346    37602                            %IFPREDDO( P="10&25&-34");
     2347    37895    4                           IF SCTX.FLAGS.TEXP THEN
     2348    37896                                    %EVENT( EV=%XSS_SEV_PR_RS);
     2349    37899                                %EVENT( EV=%XSS_SEV_RS_S);
     2350    37902                                %ACTION16;
     2351    37905    4                           SCTX.STATE = %XSS_SST_05A;
     2352    37906    4                           END;
     2353    37907                            %ENDPREDDO;
     2354    37912    3                   CASE( %XSS_SST_10A,
     2355    37913    3                         %XSS_SST_10B,
     2356    37914    3                         %XSS_SST_20);
     2357    37915                            %IFPREDDO( P="25");
     2358    38015    4                           IF SCTX.FLAGS.TEXP THEN
     2359    38016                                    %EVENT( EV=%XSS_SEV_PR_RS);
     2360    38019                                %EVENT( EV=%XSS_SEV_RS_S);
     2361    38022                                %ACTION16;
     2362    38025    4                           SCTX.STATE = %XSS_SST_05A;
     2363    38026    4                           END;
     2364    38027                            %ENDPREDDO;
     2365    38032    3                   CASE( %XSS_SST_11A);
PL6.E3A0      #001=XSS$MACHINE File=XSS$MACHINE.:XSA1TSI                         WED 10/01/97 12:18 Page:95
     2366    38033                            %IFPREDDO( P="24");
     2367    38133    4                           IF SCTX.FLAGS.TEXP THEN
     2368    38134                                    %EVENT( EV=%XSS_SEV_PR_RS);
     2369    38137                                %EVENT( EV=%XSS_SEV_RS_S);
     2370    38140                                %ACTION16;
     2371    38143    4                           SCTX.STATE = %XSS_SST_05A;
     2372    38144    4                           END;
     2373    38145                            %ENDPREDDO;
     2374    38150    3                   CASE( %XSS_SST_15A);
     2375    38151                            %IFPREDDO( P="28&30");
     2376    38336    4                           IF SCTX.FLAGS.TEXP THEN
     2377    38337                                    %EVENT( EV=%XSS_SEV_PR_RS);
     2378    38340                                %EVENT( EV=%XSS_SEV_RS_S);
     2379    38343                                %ACTION16;
     2380    38346    4                           SCTX.STATE = %XSS_SST_05A;
     2381    38347                                %ACTION06;
     2382    38350    4                           END;
     2383    38351                            %ENDPREDDO;
     2384    38356    3                   CASE( %XSS_SST_15B);
     2385    38357                            %IFPREDDO( P="25&27");
     2386    38542    4                           IF SCTX.FLAGS.TEXP THEN
     2387    38543                                    %EVENT( EV=%XSS_SEV_PR_RS);
     2388    38546                                %EVENT( EV=%XSS_SEV_RS_S);
     2389    38549                                %ACTION16;
     2390    38552    4                           SCTX.STATE = %XSS_SST_06;
     2391    38553    4                           END;
     2392    38554                            %ENDPREDDO;
     2393    38559    3                   CASE( %XSS_SST_713);
     2394    38560                            %IFPREDDO( P="25&26");
     2395    38745    4                           IF SCTX.FLAGS.TEXP THEN
     2396    38746                                    %EVENT( EV=%XSS_SEV_PR_RS);
     2397    38749                                %EVENT( EV=%XSS_SEV_RS_S);
     2398    38752                                %ACTION16;
     2399    38755    4                           SCTX.STATE = %XSS_SST_05A;
     2400    38756    4                           END;
     2401    38757                            %ENDPREDDO;
     2402    38762    3                   CASE( ELSE);
PL6.E3A0      #001=XSS$MACHINE File=XSS$MACHINE.:XSA1TSI                         WED 10/01/97 12:18 Page:96
     2403    38763                            %INVALID;
     2404    38766    3                   END;
     2405    38767        %EJECT;
PL6.E3A0      #001=XSS$MACHINE File=XSS$MACHINE.:XSA1TSI                         WED 10/01/97 12:18 Page:97
     2406    38768        /*****************************************************************************
     2407    38769        *
     2408    38770        *       SRSXRSP         S-RESYNCHRONIZE Response
     2409    38771        *
     2410    38772        *****************************************************************************/
     2411    38773    2           CASE( %XSS_SEV_SRSXRSP);                        /* TABLE 48 */
     2412    38774    3               IF SCTX.STATE = %XSS_SST_11A THEN DO;
     2413    38775                        %IFPREDDO( P="43");
     2414    38875    4                       IF SCTX.FLAGS.TEXP THEN
     2415    38876                                %EVENT( EV=%XSS_SEV_PR_RA);
     2416    38879                            %EVENT( EV=%XSS_SEV_RA);
     2417    38882                            %ACTION28;
     2418    38885                            %ACTION11;
     2419    38888    4                       SCTX.STATE = %XSS_SST_713;
     2420    38889    4                       END;
     2421    38890                        %ENDPREDDO;
     2422    38895    3                   END;
     2423    38896    2               ELSE
     2424    38897                        %INVALID;
     2425    38900        %EJECT;
PL6.E3A0      #001=XSS$MACHINE File=XSS$MACHINE.:XSA1TSI                         WED 10/01/97 12:18 Page:98
     2426    38901        /*****************************************************************************
     2427    38902        *
     2428    38903        *       SSMAREQ         S-SYNC-MAJOR Request
     2429    38904        *
     2430    38905        *****************************************************************************/
     2431    38906    2           CASE( %XSS_SEV_SSMAREQ);                        /* TABLE 47 */
     2432    38907    3               DO SELECT( SCTX.STATE);
     2433    38908    3                   SELECT( %XSS_SST_15B);
     2434    38909                            %IFPREDDO( P="13");
     2435    39009    4                           ;  /* don't do anything */
     2436    39010    4                           END;
     2437    39011                            %ENDPREDDO;
     2438    39016    3                   SELECT( %XSS_SST_713);
     2439    39017                            %IFPREDDO( P="13");
     2440    39117                                %EVENT( EV=%XSS_SEV_MAP);
     2441    39120                                %ACTION13;
     2442    39123                                %ACTION24;
     2443    39126    4                           SCTX.STATE = %XSS_SST_04A;
     2444    39127    4                           END;
     2445    39128                            %ENDPREDDO;
     2446    39133    3                   SELECT( ELSE);
     2447    39134                            %INVALID;
     2448    39137    3                   END;
     2449    39138        %EJECT;
PL6.E3A0      #001=XSS$MACHINE File=XSS$MACHINE.:XSA1TSI                         WED 10/01/97 12:18 Page:99
     2450    39139        /*****************************************************************************
     2451    39140        *
     2452    39141        *       SSMARSP         S-SYNC-MAJOR Response
     2453    39142        *
     2454    39143        *****************************************************************************/
     2455    39144    2           CASE( %XSS_SEV_SSMARSP);                        /* TABLE 47 */
     2456    39145    3               DO SELECT( SCTX.STATE);
     2457    39146    3                   SELECT( %XSS_SST_10A);
     2458    39147    3                       IF SCTX.FLAGS.TEXP THEN
     2459    39148                                %EVENT( EV=%XSS_SEV_PR_MAA);
     2460    39151                            %EVENT( EV=%XSS_SEV_MAA);
     2461    39154                            %ACTION14;
     2462    39157                            %ACTION22;
     2463    39160    3                       SCTX.STATE = %XSS_SST_713;
     2464    39161    3                   SELECT( %XSS_SST_15B);
     2465    39162    3                       ;  /* don't do anything */
     2466    39163    3                   SELECT( ELSE);
     2467    39164                            %INVALID;
     2468    39167    3                   END;
     2469    39168        %EJECT;
PL6.E3A0      #001=XSS$MACHINE File=XSS$MACHINE.:XSA1TSI                         WED 10/01/97 12:18 Page:100
     2470    39169        /*****************************************************************************
     2471    39170        *
     2472    39171        *       SSMIREQ         S-SYNC-MINOR Request
     2473    39172        *
     2474    39173        *****************************************************************************/
     2475    39174    2           CASE( %XSS_SEV_SSMIREQ);                        /* TABLE 47 */
     2476    39175    3               DO SELECT( SCTX.STATE);
     2477    39176    3                   SELECT( %XSS_SST_15B);
     2478    39177                            %IFPREDDO( P="15");
     2479    39277    4                           ;  /* don't do anything */
     2480    39278    4                           END;
     2481    39279                            %ENDPREDDO;
     2482    39284    3                   SELECT( %XSS_SST_713);
     2483    39285                            %IFPREDDO( P="15");
     2484    39385                                %EVENT( EV=%XSS_SEV_MIP);
     2485    39388                                %ACTION24;
     2486    39391    4                           END;
     2487    39392                            %ENDPREDDO;
     2488    39397    3                   SELECT( ELSE);
     2489    39398                            %INVALID;
     2490    39401    3                   END;
     2491    39402        %EJECT;
PL6.E3A0      #001=XSS$MACHINE File=XSS$MACHINE.:XSA1TSI                         WED 10/01/97 12:18 Page:101
     2492    39403        /*****************************************************************************
     2493    39404        *
     2494    39405        *       SSMIRSP         S-SYNC-MINOR Response
     2495    39406        *
     2496    39407        *****************************************************************************/
     2497    39408    2           CASE( %XSS_SEV_SSMIRSP);                        /* TABLE 47 */
     2498    39409    3               DO CASE( SCTX.STATE);
     2499    39410    3                   CASE( %XSS_SST_09,
     2500    39411    3                         %XSS_SST_713);
     2501    39412                            %IFPREDDO( P="18&21");
     2502    39597                                %EVENT( EV=%XSS_SEV_MIA);
     2503    39600                                %ACTION25;
     2504    39603    4                           END;
     2505    39604                            %ENDPREDDO;
     2506    39609    3                   CASE( %XSS_SST_10A,
     2507    39610    3                         %XSS_SST_10B);
     2508    39611                            %IFPREDDO( P="18&-20&21");
     2509    39904                                %EVENT( EV=%XSS_SEV_MIA);
     2510    39907                                %ACTION25;
     2511    39910    4                           END;
     2512    39911                            %ENDPREDDO;
     2513    39916    3                   CASE( %XSS_SST_15B);
     2514    39917                            %IFPREDDO( P="18&21");
     2515    40102    4                           ;  /* don't do anything */
     2516    40103    4                           END;
     2517    40104                            %ENDPREDDO;
     2518    40109    3                   CASE( ELSE);
     2519    40110                            %INVALID;
     2520    40113    3                   END;
     2521    40114        %EJECT;
PL6.E3A0      #001=XSS$MACHINE File=XSS$MACHINE.:XSA1TSI                         WED 10/01/97 12:18 Page:102
     2522    40115        /*****************************************************************************
     2523    40116        *
     2524    40117        *       STKGREQ         S-TOKEN-GIVE Request
     2525    40118        *
     2526    40119        *****************************************************************************/
     2527    40120    2           CASE( %XSS_SEV_STKGREQ);                        /* TABLE 51 */
     2528    40121    3               DO CASE( SCTX.STATE);
     2529    40122    3                   CASE( %XSS_SST_04A,
     2530    40123    3                         %XSS_SST_04B,
     2531    40124    3                         %XSS_SST_10A,
     2532    40125    3                         %XSS_SST_10B,
     2533    40126    3                         %XSS_SST_15A,
     2534    40127    3                         %XSS_SST_713);
     2535    40128                            %IFPREDDO( P="54");
     2536    40228                                %EVENT( EV=%XSS_SEV_GT);
     2537    40231                                %ACTION11;
     2538    40234    4                           END;
     2539    40235                            %ENDPREDDO;
     2540    40240    3                   CASE( %XSS_SST_15B);
     2541    40241                            %IFPREDDO( P="54");
     2542    40341    4                           ;  /* don't do anything */
     2543    40342    4                           END;
     2544    40343                            %ENDPREDDO;
     2545    40348    3                   CASE( %XSS_SST_20);
     2546    40349                            %IFPREDDO( P="57");
     2547    40449                                %EVENT( EV=%XSS_SEV_GT);
     2548    40452                                %ACTION11;
     2549    40455    4                           END;
     2550    40456                            %ELSEPREDDO( P="58");
     2551    40553                                %EVENT( EV=%XSS_SEV_GT);
     2552    40556                                %ACTION11;
     2553    40559    4                           SCTX.STATE = %XSS_SST_713;
     2554    40560    4                           END;
     2555    40561                            %ENDPREDDO;
     2556    40566    3                   CASE( ELSE);
     2557    40567                            %INVALID;
     2558    40570    3                   END;
PL6.E3A0      #001=XSS$MACHINE File=XSS$MACHINE.:XSA1TSI                         WED 10/01/97 12:18 Page:103
     2559    40571        %EJECT;
PL6.E3A0      #001=XSS$MACHINE File=XSS$MACHINE.:XSA1TSI                         WED 10/01/97 12:18 Page:104
     2560    40572        /*****************************************************************************
     2561    40573        *
     2562    40574        *       STKPREQ         S-TOKEN-PLEASE Request
     2563    40575        *
     2564    40576        *****************************************************************************/
     2565    40577    2           CASE( %XSS_SEV_STKPREQ);                        /* TABLE 51 */
     2566    40578    3               DO CASE( SCTX.STATE);
     2567    40579    3                   CASE( %XSS_SST_09,
     2568    40580    3                         %XSS_SST_10A,
     2569    40581    3                         %XSS_SST_10B,
     2570    40582    3                         %XSS_SST_22,
     2571    40583    3                         %XSS_SST_713);
     2572    40584                            %IFPREDDO( P="53");
     2573    40684                                %EVENT( EV=%XSS_SEV_PT);
     2574    40687    4                           END;
     2575    40688                            %ENDPREDDO;
     2576    40693    3                   CASE( %XSS_SST_15B);
     2577    40694                            %IFPREDDO( P="53");
     2578    40794    4                           ;  /* don't do anything */
     2579    40795    4                           END;
     2580    40796                            %ENDPREDDO;
     2581    40801    3                   CASE( ELSE);
     2582    40802                            %INVALID;
     2583    40805    3                   END;
     2584    40806        %EJECT;
PL6.E3A0      #001=XSS$MACHINE File=XSS$MACHINE.:XSA1TSI                         WED 10/01/97 12:18 Page:105
     2585    40807        /*****************************************************************************
     2586    40808        *
     2587    40809        *       STYDREQ         S-TYPED-DATA Request
     2588    40810        *
     2589    40811        *****************************************************************************/
     2590    40812    2           CASE( %XSS_SEV_STYDREQ);                        /* TABLE 46 */
     2591    40813    3               DO CASE( SCTX.STATE);
     2592    40814    3                   CASE( %XSS_SST_09);
     2593    40815                            %IFPREDDO( P="07");
     2594    40915                                %EVENT( EV=%XSS_SEV_TD);
     2595    40918    4                           END;
     2596    40919                            %ENDPREDDO;
     2597    40924    3                   CASE( %XSS_SST_10A,
     2598    40925    3                         %XSS_SST_10B,
     2599    40926    3                         %XSS_SST_18,
     2600    40927    3                         %XSS_SST_713);
     2601    40928                            %IFPREDDO( P="06");
     2602    41028                                %EVENT( EV=%XSS_SEV_TD);
     2603    41031    4                           END;
     2604    41032                            %ENDPREDDO;
     2605    41037    3                   CASE( %XSS_SST_15B);
     2606    41038                            %IFPREDDO( P="06");
     2607    41138    4                           ;  /* don't do anything */
     2608    41139    4                           END;
     2609    41140                            %ENDPREDDO;
     2610    41145    3                   CASE( ELSE);
     2611    41146                            %INVALID;
     2612    41149    3                   END;
     2613    41150        %EJECT;
PL6.E3A0      #001=XSS$MACHINE File=XSS$MACHINE.:XSA1TSI                         WED 10/01/97 12:18 Page:106
     2614    41151        /*****************************************************************************
     2615    41152        *
     2616    41153        *       SUABREQ         S-U-ABORT Request
     2617    41154        *
     2618    41155        *****************************************************************************/
     2619    41156    2           CASE( %XSS_SEV_SUABREQ);                        /* TABLE 53 */
     2620    41157    3               DO CASE( SCTX.STATE);
     2621    41158    3                   CASE( %XSS_SST_01B);
     2622    41159                            %EVENT( EV=%XSS_SEV_TDISREQ);
     2623    41162    3                       SCTX.STATE = %XSS_SST_01;
     2624    41163    3                   CASE( %XSS_SST_06,
     2625    41164    3                         %XSS_SST_15A,
     2626    41165    3                         %XSS_SST_15B,
     2627    41166    3                         %XSS_SST_15C);
     2628    41167                            %IFPREDDO( P="-02");
     2629    41290                                %EVENT( EV=%XSS_SEV_AB_NR);
     2630    41293                                %ACTION04;
     2631    41296    4                           SCTX.STATE = %XSS_SST_16;
     2632    41297    4                           END;
     2633    41298                            %ENDPREDDO;
     2634    41303    3                   CASE( %XSS_SST_02A,
     2635    41304    3                         %XSS_SST_03,
     2636    41305    3                         %XSS_SST_04A,
     2637    41306    3                         %XSS_SST_04B,
     2638    41307    3                         %XSS_SST_05A,
     2639    41308    3                         %XSS_SST_05B,
     2640    41309    3                         %XSS_SST_05C,
     2641    41310    3                         %XSS_SST_08,
     2642    41311    3                         %XSS_SST_09,
     2643    41312    3                         %XSS_SST_10A,
     2644    41313    3                         %XSS_SST_10B,
     2645    41314    3                         %XSS_SST_11A,
     2646    41315    3                         %XSS_SST_11B,
     2647    41316    3                         %XSS_SST_11C,
     2648    41317    3                         %XSS_SST_18,
     2649    41318    3                         %XSS_SST_19,
     2650    41319    3                         %XSS_SST_20,
PL6.E3A0      #001=XSS$MACHINE File=XSS$MACHINE.:XSA1TSI                         WED 10/01/97 12:18 Page:107
     2651    41320    3                         %XSS_SST_21,
     2652    41321    3                         %XSS_SST_22,
     2653    41322    3                         %XSS_SST_713);
     2654    41323                            %IFPREDDO( P="-02");
     2655    41446                                %EVENT( EV=%XSS_SEV_AB_NR);
     2656    41449                                %ACTION04;
     2657    41452    4                           SCTX.STATE = %XSS_SST_16;
     2658    41453    4                           END;
     2659    41454                            %ELSEPREDDO( P="02");
     2660    41551                                %EVENT( EV=%XSS_SEV_AB_R);
     2661    41554                                %ACTION04;
     2662    41557    4                           SCTX.STATE = %XSS_SST_01A;
     2663    41558    4                           END;
     2664    41559                            %ENDPREDDO;
     2665    41564    3                   CASE( ELSE);
     2666    41565                            %INVALID;
     2667    41568    3                   END;
     2668    41569        %EJECT;
PL6.E3A0      #001=XSS$MACHINE File=XSS$MACHINE.:XSA1TSI                         WED 10/01/97 12:18 Page:108
     2669    41570        /*****************************************************************************
     2670    41571        *
     2671    41572        *       SUERREQ         S-U-EXCEPTION-REPORT Request
     2672    41573        *
     2673    41574        *****************************************************************************/
     2674    41575    2           CASE( %XSS_SEV_SUERREQ);                        /* TABLE 51 */
     2675    41576    3               DO CASE( SCTX.STATE);
     2676    41577    3                   CASE( %XSS_SST_09,
     2677    41578    3                         %XSS_SST_10A,
     2678    41579    3                         %XSS_SST_10B,
     2679    41580    3                         %XSS_SST_713);
     2680    41581                            %IFPREDDO( P="50");
     2681    41681                                %EVENT( EV=%XSS_SEV_ED);
     2682    41684    4                           SCTX.STATE = %XSS_SST_19;
     2683    41685    4                           END;
     2684    41686                            %ENDPREDDO;
     2685    41691    3                   CASE( %XSS_SST_15B);
     2686    41692                            %IFPREDDO( P="50");
     2687    41792    4                           ;  /* don't do anything */
     2688    41793    4                           END;
     2689    41794                            %ENDPREDDO;
     2690    41799    3                   CASE( ELSE);
     2691    41800                            %INVALID;
     2692    41803    3                   END;
     2693    41804        %EJECT;
PL6.E3A0      #001=XSS$MACHINE File=XSS$MACHINE.:XSA1TSI                         WED 10/01/97 12:18 Page:109
     2694    41805        /*****************************************************************************
     2695    41806        *
     2696    41807        *       TCONCNF         T-CONNECT Confirm
     2697    41808        *
     2698    41809        *****************************************************************************/
     2699    41810    2           CASE( %XSS_SEV_TCONCNF);                        /* TABLE 45 */
     2700    41811    3               IF SCTX.STATE = %XSS_SST_01B THEN DO;
     2701    41812                        %EVENT( EV=%XSS_SEV_CN);
     2702    41815    3                   SCTX.STATE = %XSS_SST_02A;
     2703    41816    3                   END;
     2704    41817    2               ELSE
     2705    41818                        %INVALID;
     2706    41821        %EJECT;
PL6.E3A0      #001=XSS$MACHINE File=XSS$MACHINE.:XSA1TSI                         WED 10/01/97 12:18 Page:110
     2707    41822        /*****************************************************************************
     2708    41823        *
     2709    41824        *       TCONIND         T-CONNECT Indication
     2710    41825        *
     2711    41826        *****************************************************************************/
     2712    41827    2           CASE( %XSS_SEV_TCONIND);                        /* TABLE 45 */
     2713    41828    3               IF SCTX.STATE = %XSS_SST_01 THEN DO;
     2714    41829                        %EVENT( EV=%XSS_SEV_TCONRSP);
     2715    41832                        %ACTION01;
     2716    41835    3                   SCTX.STATE = %XSS_SST_01C;
     2717    41836    3                   END;
     2718    41837    2               ELSE
     2719    41838                        %INVALID;
     2720    41841        %EJECT;
PL6.E3A0      #001=XSS$MACHINE File=XSS$MACHINE.:XSA1TSI                         WED 10/01/97 12:18 Page:111
     2721    41842        /*****************************************************************************
     2722    41843        *
     2723    41844        *       TDISIND         T-DISCONNECT Indication
     2724    41845        *
     2725    41846        *****************************************************************************/
     2726    41847    2           CASE( %XSS_SEV_TDISIND);                        /* TABLE 53 */
     2727    41848    3               DO CASE( SCTX.STATE);
     2728    41849    3                   CASE( %XSS_SST_01A,
     2729    41850    3                         %XSS_SST_16);
     2730    41851                            %ACTION03;
     2731    41854    3                       SCTX.STATE = %XSS_SST_01;
     2732    41855    3                   CASE( %XSS_SST_01C);
     2733    41856    3                       SCTX.STATE = %XSS_SST_01;
     2734    41857    3                   CASE( %XSS_SST_01B,
     2735    41858    3                         %XSS_SST_02A,
     2736    41859    3                         %XSS_SST_03,
     2737    41860    3                         %XSS_SST_04A,
     2738    41861    3                         %XSS_SST_04B,
     2739    41862    3                         %XSS_SST_05A,
     2740    41863    3                         %XSS_SST_05B,
     2741    41864    3                         %XSS_SST_05C,
     2742    41865    3                         %XSS_SST_06,
     2743    41866    3                         %XSS_SST_08,
     2744    41867    3                         %XSS_SST_09,
     2745    41868    3                         %XSS_SST_10A,
     2746    41869    3                         %XSS_SST_10B,
     2747    41870    3                         %XSS_SST_11A,
     2748    41871    3                         %XSS_SST_11B,
     2749    41872    3                         %XSS_SST_11C,
     2750    41873    3                         %XSS_SST_15A,
     2751    41874    3                         %XSS_SST_15B,
     2752    41875    3                         %XSS_SST_15C,
     2753    41876    3                         %XSS_SST_18,
     2754    41877    3                         %XSS_SST_19,
     2755    41878    3                         %XSS_SST_20,
     2756    41879    3                         %XSS_SST_21,
     2757    41880    3                         %XSS_SST_22,
PL6.E3A0      #001=XSS$MACHINE File=XSS$MACHINE.:XSA1TSI                         WED 10/01/97 12:18 Page:112
     2758    41881    3                         %XSS_SST_713);
     2759    41882                            %EVENT( EV=%XSS_SEV_SPABIND);
     2760    41885    3                       SCTX.STATE = %XSS_SST_01;
     2761    41886    3                   CASE( ELSE);
     2762    41887                            %INVALID;
     2763    41890    3                   END;
     2764    41891        %EJECT;
PL6.E3A0      #001=XSS$MACHINE File=XSS$MACHINE.:XSA1TSI                         WED 10/01/97 12:18 Page:113
     2765    41892        /*****************************************************************************
     2766    41893        *
     2767    41894        *       TIM             Timer Runout
     2768    41895        *
     2769    41896        *****************************************************************************/
     2770    41897    2           CASE( %XSS_SEV_TIM);                            /* TABLE 53 */
     2771    41898    3               DO SELECT( SCTX.STATE);
     2772    41899    3                   SELECT( %XSS_SST_01A,
     2773    41900    3                           %XSS_SST_16);
     2774    41901                            %EVENT( EV=%XSS_SEV_TDISREQ);
     2775    41904    3                       SCTX.STATE = %XSS_SST_01;
     2776    41905    3                   SELECT( ELSE);
     2777    41906                            %INVALID;
     2778    41909    3                   END;
     2779    41910        %EJECT;
PL6.E3A0      #001=XSS$MACHINE File=XSS$MACHINE.:XSA1TSI                         WED 10/01/97 12:18 Page:114
     2780    41911    2           CASE( ELSE);
     2781    41912                    %INVALID;
     2782    41915    2           END;
     2783    41916    2       DO WHILE( %FALSE);
     2784    41917    2   EVNTERR:
     2785    41918                /* EVNT routine ALTRETURNed because of internal error of some kind */
     2786    41919    2           GOTO DONE;
     2787    41920    2   ACTIONERR:
     2788    41921                /* an ACTIONxx routine was called by mistake */
     2789    41922    2           ;
     2790    41923    2   PREDERR:
     2791    41924                /* a PREDxx routine was called by mistake */
     2792    41925                %INVALID;
     2793    41928    2           END;
     2794    41929        /************************************************************************
     2795    41930        *                                                                       *
     2796    41931        *       Done with state machine; record state and light outa here       *
     2797    41932        *                                                                       *
     2798    41933        ************************************************************************/
     2799    41934    1       I = SCTX.HISTX;
     2800    41935    1       SCTX.HIST.NXTST( I) = SCTX.STATE;  /* record new state in hist buffer */
     2801    41936    1   DONE:
     2802    41937    2       IF SCTX.ABORTING THEN DO;
     2803    41938                /* There was an ALTRETURN from XSS$TSEND for some reason, or an
     2804    41939                   SPDU was received that is inconsistent with connection state,
     2805    41940                   so we pretend there was a T-DISCONNECT Indication received. */
     2806    41941    3           IF SCTX.STATE > %XSS_SST_01 THEN DO;
     2807    41942    3               CALL EVNT( %XSS_SEV_TDISREQ);  /* ignore possible ALTRETURN */
     2808    41943    3               CALL EVNT( %XSS_SEV_SPABIND);  /* ignore possible ALTRETURN */
     2809    41944    3               SCTX.STATE = %XSS_SST_01;
     2810    41945    3               END;
     2811    41946    2           END;
     2812    41947    2       IF SCTX.STATE = %XSS_SST_01 THEN DO;
     2813    41948                /* State is 'idle - no transport connection' so release context */
     2814    41949    2           CALL XSS$RELCTX( VBLK.CTX$);
     2815    41950    2           CONTINUING = ~SCTX.ABORTING;
     2816    41951    2           SCTX.ABORTING = %TRUE;
PL6.E3A0      #001=XSS$MACHINE File=XSS$MACHINE.:XSA1TSI                         WED 10/01/97 12:18 Page:115
     2817    41952    2           IF CONTINUING THEN
     2818    41953    2               RETURN;
     2819    41954                /* during this trip thru the state machine, connection aborted */
     2820    41955    2           ALTRETURN;  /* have E$STATE or other error reported to user */
     2821    41956    2           END;
     2822    41957    2       IF SCTX.STATE > 127 THEN DO;
     2823    41958                /* There was a user request inconsistent with connection state. */
     2824    41959    2           SCTX.STATE = SCTX.STATE - 128;
     2825    41960    2           ALTRETURN;  /* have E$STATE reported to user */
     2826    41961    2           END;
     2827    41962    1       RETURN;
     2828    41963        %EJECT;
PL6.E3A0      #001=XSS$MACHINE File=XSS$MACHINE.:XSA1TSI                         WED 10/01/97 12:18 Page:116
     2829    41964        /************************************************************************
     2830    41965        *                                                                       *
     2831    41966        *       EVNT Routine                                                    *
     2832    41967        *                                                                       *
     2833    41968        ************************************************************************/
     2834    41969    1   EVNT: PROC( EV#) ALTRET;
     2835    41970
     2836    41971    2       DCL CHUNK CHAR( LEN) BASED CALIGNED;
     2837    41972    2       DCL EVENT UBIN;
     2838    41973    2       DCL EV# UBIN;
     2839    41974    2       DCL LEN SBIN;
     2840    41975    2       DCL DBLKX UBIN HALF HALIGNED;
     2841    41976    2       DCL DBLK$ PTR;  /* ptr to destination (or current) mem blk */
     2842    41977    2       DCL SBLKX UBIN HALF HALIGNED;
     2843    41978    2       DCL SBLK$ PTR;  /* ptr to source (or previous) mem blk */
     2844    41979            %XSS$VBLK( NAME=ZBLK, STCLASS=AUTO);
     2845    42084            /* This table maps events destined for the Session-user into the
     2846    42085               function code identifying the Session FPT the user receives. */
     2847    42086    2       DCL SEV_TO_FNC(0:31) UBIN BYTE CONSTANT CALIGNED INIT(
     2848    42087    2           %XSS_FNC_SACDIND#,      /* XSS_SEV_SACDIND */
     2849    42088    2           %XSS_FNC_SACDCNF#,      /* XSS_SEV_SACDCNF */
     2850    42089    2           %XSS_FNC_SACEIND#,      /* XSS_SEV_SACEIND */
     2851    42090    2           %XSS_FNC_SACECNF#,      /* XSS_SEV_SACECNF */
     2852    42091    2           %XSS_FNC_SACIIND#,      /* XSS_SEV_SACIIND */
     2853    42092    2           %XSS_FNC_SACICNF#,      /* XSS_SEV_SACICNF */
     2854    42093    2           %XSS_FNC_SACRIND#,      /* XSS_SEV_SACRIND */
     2855    42094    2           %XSS_FNC_SACSIND#,      /* XSS_SEV_SACSIND */
     2856    42095    2           %XSS_FNC_SCADIND#,      /* XSS_SEV_SCADIND */
     2857    42096    2           %XSS_FNC_SCADCNF#,      /* XSS_SEV_SCADCNF */
     2858    42097    2           %XSS_FNC_SCTGIND#,      /* XSS_SEV_SCTGIND */
     2859    42098    2           %XSS_FNC_SCONIND#,      /* XSS_SEV_SCONIND */
     2860    42099    2           %XSS_FNC_SCONCNF#,      /* XSS_SEV_SCONCFP */
     2861    42100    2           %XSS_FNC_SCONCNF#,      /* XSS_SEV_SCONCFN */
     2862    42101    2           %XSS_FNC_SDATIND#,      /* XSS_SEV_SDATIND */
     2863    42102    2           %XSS_FNC_SEXPIND#,      /* XSS_SEV_SEXPIND */
     2864    42103    2           %XSS_FNC_STKGIND#,      /* XSS_SEV_STKGIND */
     2865    42104    2           %XSS_FNC_STKPIND#,      /* XSS_SEV_STKPIND */
PL6.E3A0      #001=XSS$MACHINE File=XSS$MACHINE.:XSA1TSI                         WED 10/01/97 12:18 Page:117
     2866    42105    2           %XSS_FNC_SRELIND#,      /* XSS_SEV_SRELIND */
     2867    42106    2           %XSS_FNC_SRELCNF#,      /* XSS_SEV_SRELCFP */
     2868    42107    2           %XSS_FNC_SRELCNF#,      /* XSS_SEV_SRELCFN */
     2869    42108    2           %XSS_FNC_SRSXIND#,      /* XSS_SEV_SRSXIND */
     2870    42109    2           %XSS_FNC_SRSXCNF#,      /* XSS_SEV_SRSXCNF */
     2871    42110    2           %XSS_FNC_SPABIND#,      /* XSS_SEV_SPABIND */
     2872    42111    2           %XSS_FNC_SPERIND#,      /* XSS_SEV_SPERIND */
     2873    42112    2           %XSS_FNC_SSMAIND#,      /* XSS_SEV_SSMAIND */
     2874    42113    2           %XSS_FNC_SSMACNF#,      /* XSS_SEV_SSMACNF */
     2875    42114    2           %XSS_FNC_SSMIIND#,      /* XSS_SEV_SSMIIND */
     2876    42115    2           %XSS_FNC_SSMICNF#,      /* XSS_SEV_SSMICNF */
     2877    42116    2           %XSS_FNC_STYDIND#,      /* XSS_SEV_STYDIND */
     2878    42117    2           %XSS_FNC_SUABIND#,      /* XSS_SEV_SUABIND */
     2879    42118    2           %XSS_FNC_SUERIND#);     /* XSS_SEV_SUERIND */
     2880    42119
     2881    42120    2       EVENT = EV#;
     2882    42121    2       IF EVENT < %XSS_SEV_TIM THEN
     2883    42122    2           GOTO SEND_SPDU;
     2884    42123    3       IF EVENT >= %XSS_SEV_TCONREQ AND EVENT <= %XSS_SEV_TDISIND THEN DO;
     2885    42124                /* this is a Transport event */
     2886    42125    3           IF BINBIT( EVENT, 1) THEN
     2887    42126                    /* these can only be destined for the other endpoint */
     2888    42127    3               CALL XSS$SCREECH( XSS_F$EVNTERR);
     2889    42128    3           ZBLK = VBLK;
     2890    42129    3           ZBLK.EVENT = EVENT;
     2891    42130    3           CALL XSS$TSEND( ZBLK)
     2892    42131    4           WHENALTRETURN DO;
     2893    42132    5               IF EVENT ~= %XSS_SEV_TDISREQ THEN DO;
     2894    42133    5                   SCTX.ABORTING = %TRUE;  /* pretend TDISIND hit */
     2895    42134    5                   ALTRETURN;
     2896    42135    5                   END;
     2897    42136    4               END;
     2898    42137    3           RETURN;
     2899    42138    3           END;
     2900    42139    3       IF EVENT = %XSS_SEV_SXABIND THEN DO;
     2901    42140                /* determine whether *real* event should be SUABIND or SPABIND */
     2902    42141    3           IF SCTX.TD.USRAB THEN
PL6.E3A0      #001=XSS$MACHINE File=XSS$MACHINE.:XSA1TSI                         WED 10/01/97 12:18 Page:118
     2903    42142    3               EVENT = %XSS_SEV_SUABIND;
     2904    42143    3           ELSE
     2905    42144    3               EVENT = %XSS_SEV_SPABIND;
     2906    42145    3           END;
     2907    42146        %EJECT;
PL6.E3A0      #001=XSS$MACHINE File=XSS$MACHINE.:XSA1TSI                         WED 10/01/97 12:18 Page:119
     2908    42147    2       DBLKX = %NULL;
     2909    42148    2       IF EVENT = %XSS_SEV_SDATIND THEN
     2910    42149    3           IF VBLK.EI.BOSSDU THEN DO;
     2911    42150    4               IF VBLK.EI.EOSSDU THEN DO;
     2912    42151                        /* Both BOSSDU and EOSSDU are set.  No special action. */
     2913    42152    4                   END;
     2914    42153    4               ELSE DO;
     2915    42154                        /* BOSSDU is set, but not EOSSDU.  First chunk of data. */
     2916    42155    4                   IF SCTX.HEADX ~= %NULL OR SCTX.TAILX ~= %NULL THEN
     2917    42156    4                       GOTO BUFERR;  /* context wasn't cleaned up last time */
     2918    42157                        /* find some buffer space for the data */
     2919    42158    4                   LEN = XSS$GENERIC.DATA.SIZE;
     2920    42159    4                   CALL XSS$GETMEM( DBLKX, DBLK$, LEN) ALTRET( NOMEM);
     2921    42160    4                   SCTX.HEADX = DBLKX;
     2922    42161                        /* copy data into the buffer and incr byte count */
     2923    42162    4                   DBLK$->CHUNK = XSS$GENERIC.DATA.PTR$->CHUNK;
     2924    42163    4                   SCTX.BUFTOT = LEN;
     2925    42164                        /* adjust memblk header */
     2926    42165    4                   CALL XSS$BLKPTR( DBLKX, DBLK$);
     2927    42166    4                   DBLK$->B$BLOCK.FLNKX = %NULL;
     2928    42167    4                   DBLK$->B$BLOCK.HTEMP = LEN;
     2929    42168    4                   RETURN;
     2930    42169    4                   END;
     2931    42170    3               END;
     2932    42171    3           ELSE DO;
     2933    42172                    /* BOSSDU not set.  Here's another chunk of the message. */
     2934    42173    3               IF SCTX.HEADX = %NULL THEN
     2935    42174    3                   GOTO BUFERR;  /* something's gone haywire */
     2936    42175                    /* find some buffer space for the data */
     2937    42176    3               LEN = XSS$GENERIC.DATA.SIZE;
     2938    42177    3               CALL XSS$GETMEM( DBLKX, DBLK$, LEN) ALTRET( NOMEM);
     2939    42178                    /* append this memblk onto buffer chain */
     2940    42179    3               IF SCTX.TAILX = %NULL THEN
     2941    42180    3                   CALL XSS$BLKPTR( SCTX.HEADX, SBLK$);
     2942    42181    3               ELSE
     2943    42182    3                   CALL XSS$BLKPTR( SCTX.TAILX, SBLK$);
     2944    42183    3               SBLK$->B$BLOCK.FLNKX = DBLKX;
PL6.E3A0      #001=XSS$MACHINE File=XSS$MACHINE.:XSA1TSI                         WED 10/01/97 12:18 Page:120
     2945    42184    3               SCTX.TAILX = DBLKX;
     2946    42185                    /* copy data into the buffer and incr byte count */
     2947    42186    3               DBLK$->CHUNK = XSS$GENERIC.DATA.PTR$->CHUNK;
     2948    42187    3               SCTX.BUFTOT = SCTX.BUFTOT + LEN;
     2949    42188                    /* adjust memblk header */
     2950    42189    3               CALL XSS$BLKPTR( DBLKX, DBLK$);
     2951    42190    3               DBLK$->B$BLOCK.FLNKX = %NULL;
     2952    42191    3               DBLK$->B$BLOCK.HTEMP = LEN;
     2953    42192                    /* check if more work to do */
     2954    42193    4               IF VBLK.EI.EOSSDU THEN DO;
     2955    42194                        /* This is the last chunk of the message.  Oh boy. */
     2956    42195    4                   CALL XSS$GETMEM( DBLKX, DBLK$, SCTX.BUFTOT) ALTRET( NOMEM);
     2957    42196    5                   DO WHILE( SCTX.HEADX ~= %NULL);
     2958    42197    5                       CALL XSS$BLKPTR( SCTX.HEADX, SBLK$);
     2959    42198    5                       LEN = SBLK$->B$BLOCK.HTEMP;
     2960    42199    5                       DBLK$->CHUNK = ADDR( SBLK$->B$BLOCK.DATA)->CHUNK;
     2961    42200    5                       DBLK$ = PINCRC( DBLK$, LEN);
     2962    42201    5                       SCTX.HEADX = SBLK$->B$BLOCK.FLNKX;
     2963    42202    5                       SBLKX = SBLK$->B$BLOCK.BLKX;
     2964    42203    5                       CALL XSS$RELMEM( SBLKX);
     2965    42204    5                       END;
     2966    42205    4                   SCTX.TAILX = %NULL;
     2967    42206    4                   XSS$GENERIC.DATA.SIZE = SCTX.BUFTOT;
     2968    42207    4                   SCTX.BUFTOT = 0;
     2969    42208    4                   CALL XSS$BUFPTR( DBLKX, XSS$GENERIC.DATA.PTR$);
     2970    42209    4                   END;
     2971    42210    3               ELSE
     2972    42211                        /* Neither BOSSDU nor EOSSDU set.  Done all we can do. */
     2973    42212    3                   RETURN;
     2974    42213    3               END;
     2975    42214        %EJECT;
PL6.E3A0      #001=XSS$MACHINE File=XSS$MACHINE.:XSA1TSI                         WED 10/01/97 12:18 Page:121
     2976    42215            /* determine whether event is to be reported to this user or other end */
     2977    42216    3       IF BINBIT( EVENT, 1) THEN DO;
     2978    42217                /* odd event number means report it (as FPT) to this user */
     2979    42218    3           XSS$GENERIC.FNC = SEV_TO_FNC( EVENT / 2 - 32);
     2980    42219    3           XSS$GENERIC.ERROR = '0'B;
     2981    42220    3           IF XSS_TRACE > 0 THEN
     2982    42221    3               CALL XSS$DUMPFPT( XSS$GENERIC);
     2983    42222    3           CALL XSS$EVLOG( 'KU', XSS$GENERIC.FNC*512 + SCTX.SCID);
     2984    42223    3           IF SCTX.ENTRY$ ~= ENTADDR( NIL) THEN
     2985    42224    3               CALL SCTX.ENTRY$( XSS$GENERIC)
     2986    42225    4               WHENALTRETURN DO;
     2987    42226    4                   SCTX.ABORTING = %TRUE;
     2988    42227    4                   END;
     2989    42228    3           ELSE
     2990    42229                    /* no Session-user handler routine defined.  This can't be! */
     2991    42230    3               CALL XSS$SCREECH( XSS_F$NOSESS);
     2992    42231    3           IF DBLKX ~= %NULL THEN
     2993    42232                    /* release the memblk containing all the chunks of the data */
     2994    42233    3               CALL XSS$RELMEM( DBLKX);
     2995    42234    3           VBLK.USERCALL = VBLK.USERCALL + 1;
     2996    42235    3           END;
     2997    42236    3       ELSE DO;
     2998    42237                /* even event number means send it (as SPDU) to the other end */
     2999    42238    3   SEND_SPDU:
     3000    42239    3           CALL XSS$EVLOG( 'EP', EVENT*512 + SCTX.SCID);
     3001    42240    3           ZBLK = VBLK;
     3002    42241    3           ZBLK.EVENT = EVENT;
     3003    42242    3           CALL XSS$ENCODE( ZBLK)
     3004    42243    4           WHENALTRETURN DO;
     3005    42244                    /* ALTRETURN means that XSS$TSEND ALTRETURNed for some reason. */
     3006    42245    4               SCTX.ABORTING = %TRUE;  /* pretend T-DISCONNECT Indication */
     3007    42246    4               END;
     3008    42247    3           END;
     3009    42248    2       IF SCTX.ABORTING THEN
     3010    42249    2           ALTRETURN;
     3011    42250    2       RETURN;
     3012    42251    2   BUFERR:
PL6.E3A0      #001=XSS$MACHINE File=XSS$MACHINE.:XSA1TSI                         WED 10/01/97 12:18 Page:122
     3013    42252    2       ;
     3014    42253    2   NOMEM:
     3015    42254    2       SCTX.ABORTING = %TRUE;
     3016    42255    2       ALTRETURN;
     3017    42256
     3018    42257    2       END EVNT;
     3019    42258        %EJECT;
PL6.E3A0      #001=XSS$MACHINE File=XSS$MACHINE.:XSA1TSI                         WED 10/01/97 12:18 Page:123
     3020    42259        /************************************************************************
     3021    42260        *                                                                       *
     3022    42261        *       OOPS Routine                                                    *
     3023    42262        *                                                                       *
     3024    42263        ************************************************************************/
     3025    42264    1   OOPS: PROC;
     3026    42265            /* An illegal state/event combination was detected */
     3027    42266    2       IF VBLK.EVENT < %XSS_SEV_SACDREQ THEN
     3028    42267                /* Illegal incoming SPDU or Transport event, so abort connection */
     3029    42268    2           SCTX.ABORTING = %TRUE;
     3030    42269    2       ELSE
     3031    42270                /* Illegal event was a user request, so just crab about it */
     3032    42271    2           SCTX.STATE = SCTX.STATE + 128;
     3033    42272    2       RETURN;
     3034    42273
     3035    42274    2       END OOPS;
     3036    42275        %EJECT;
PL6.E3A0      #001=XSS$MACHINE File=XSS$MACHINE.:XSA1TSI                         WED 10/01/97 12:18 Page:124
     3037    42276        /*****************************************************************************
     3038    42277        *                                                                            *
     3039    42278        *       ACTIONxx Routines                                                    *
     3040    42279        *                                                                            *
     3041    42280        *****************************************************************************/
     3042    42281    1   ACTION00: PROC ALTRET;
     3043    42282
     3044    42283    2   ALT:
     3045    42284    2       ALTRETURN;  /* single alternate exit to aid debugging */
     3046    42285    2   RET:
     3047    42286    2       RETURN;  /* single exit to aid debugging */
     3048    42287
     3049    42288    2   ACTION01: ENTRY ALTRET;
     3050    42289
     3051    42290            /* "Set Vtca = true" */
     3052    42291            /* Events: TCONIND */
     3053    42292    2       SCTX.FLAGS.VTCA = %TRUE;
     3054    42293    2       GOTO RET;
     3055    42294
     3056    42295    2   ACTION02: ENTRY ALTRET;
     3057    42296
     3058    42297            /* "Set Vtca = false" */
     3059    42298            /* Events: SCONREQ */
     3060    42299    2       SCTX.FLAGS.VTCA = %FALSE;
     3061    42300    2       GOTO RET;
     3062    42301
     3063    42302    2   ACTION03: ENTRY ALTRET;
     3064    42303
     3065    42304            /* "Stop timer TIM" */
     3066    42305            /* Events: AA AB-nr/r CN TDISIND */
     3067    42306    2       CALL XSS$CLOCK( %CANCLK, SCTX.SCID);
     3068    42307    2       GOTO RET;
     3069    42308
     3070    42309    2   ACTION04: ENTRY ALTRET;
     3071    42310
     3072    42311            /* "Start timer TIM" */
     3073    42312            /* Events: SUABREQ SCONRSP- SRELRSP+ */
PL6.E3A0      #001=XSS$MACHINE File=XSS$MACHINE.:XSA1TSI                         WED 10/01/97 12:18 Page:125
     3074    42313    2       CALL XSS$CLOCK( %SETCLK, SCTX.SCID);
     3075    42314    2       GOTO RET;
     3076    42315
     3077    42316    2   ACTION05: ENTRY ALTRET;
     3078    42317
     3079    42318            /* "Set V(A) = V(M) = serial number in ACCEPT SPDU
     3080    42319                Set V(R) = 0
     3081    42320                Set Vcoll = false
     3082    42321                Set Vrsp = no
     3083    42322                Set Vsc = false
     3084    42323                Set TEXP
     3085    42324                Set FU(f) for f in fu-dom according to the intersection of Session
     3086    42325                User Requirements in the CONNECT SPDU and Session User Requirements
     3087    42326                in the ACCEPT SPDU
     3088    42327                If FU(ACT) = true, set Vact = false
     3089    42328                Set Vdnr = false" */
     3090    42329            /* Events: AC SCONRSP+ */
     3091    42330    2       SCTX.VA = XSS$CONNECT.SERNUM;
     3092    42331    2       SCTX.VM = XSS$CONNECT.SERNUM;
     3093    42332    2       SCTX.VR = 0;
     3094    42333    2       SCTX.FLAGS.VCOLL = %FALSE;
     3095    42334    2       SCTX.VRSP = %VRSP_NO;
     3096    42335    2       SCTX.FLAGS.VSC = %FALSE;
     3097    42336         /* SCTX.FLAGS.TEXP = %TRUE;  this is done, correctly, in XSS$COMM */
     3098    42337    2       SCTX.FU = SCTX.FU & XSS$CONNECT.SFU;
     3099    42338    2       IF SCTX.FU.ACT THEN
     3100    42339    2           SCTX.FLAGS.VACT = %FALSE;
     3101    42340    2       SCTX.FLAGS.VDNR = %FALSE;
     3102    42341            /* the following needs to be done, even though it's not in the spec */
     3103    42342            /* set up AVAIL flags */
     3104    42343    2       IF SCTX.FU.SY THEN
     3105    42344    2           SCTX.AVAIL.MI = %TRUE;
     3106    42345    2       IF SCTX.FU.HD THEN
     3107    42346    2           SCTX.AVAIL.DK = %TRUE;
     3108    42347    2       IF SCTX.FU.NR THEN
     3109    42348    2           SCTX.AVAIL.TR = %TRUE;
     3110    42349    2       IF SCTX.FU.MA OR SCTX.FU.ACT THEN
PL6.E3A0      #001=XSS$MACHINE File=XSS$MACHINE.:XSA1TSI                         WED 10/01/97 12:18 Page:126
     3111    42350    2           SCTX.AVAIL.MA = %TRUE;
     3112    42351            /* set up OWNED flags */
     3113    42352    3       DO CASE( SCTX.MODE);
     3114    42353    3           CASE( %CLIENT);  /* this must be an AC event */
     3115    42354    3               IF XSS$CONNECT.ITOKENS.TR = %XSS_TSI_ISIDE# THEN
     3116    42355    3                   SCTX.OWNED.TR = %TRUE;
     3117    42356    3               IF XSS$CONNECT.ITOKENS.MA = %XSS_TSI_ISIDE# THEN
     3118    42357    3                   SCTX.OWNED.MA = %TRUE;
     3119    42358    3               IF XSS$CONNECT.ITOKENS.MI = %XSS_TSI_ISIDE# THEN
     3120    42359    3                   SCTX.OWNED.MI = %TRUE;
     3121    42360    3               IF XSS$CONNECT.ITOKENS.DK = %XSS_TSI_ISIDE# THEN
     3122    42361    3                   SCTX.OWNED.DK = %TRUE;
     3123    42362    3           CASE( %SERVER);  /* this must be an SCONRSP+ event */
     3124    42363    3               IF XSS$CONNECT.ITOKENS.TR = %XSS_TSI_ASIDE# THEN
     3125    42364    3                   SCTX.OWNED.TR = %TRUE;
     3126    42365    3               IF XSS$CONNECT.ITOKENS.MA = %XSS_TSI_ASIDE# THEN
     3127    42366    3                   SCTX.OWNED.MA = %TRUE;
     3128    42367    3               IF XSS$CONNECT.ITOKENS.MI = %XSS_TSI_ASIDE# THEN
     3129    42368    3                   SCTX.OWNED.MI = %TRUE;
     3130    42369    3               IF XSS$CONNECT.ITOKENS.DK = %XSS_TSI_ASIDE# THEN
     3131    42370    3                   SCTX.OWNED.DK = %TRUE;
     3132    42371    3           END;
     3133    42372    2       GOTO RET;
     3134    42373
     3135    42374    2   ACTION06: ENTRY ALTRET;
     3136    42375
     3137    42376            /* "Recall the queued events until the queue is empty" */
     3138    42377            /* Events: AC ADA AEA AIA AR AS GTA MAA RA RS-a/r/s SACDREQ SACIREQ */
     3139    42378    3       IF SCTX.EVQX > 0 THEN DO;
     3140    42379    4           DO I = 0 TO SCTX.EVQX - 1;
     3141    42380    4               CALL EVNT( SCTX.EVQ( I));
     3142    42381    4               END;
     3143    42382    3           SCTX.EVQX = 0;
     3144    42383    3           END;
     3145    42384    2       GOTO RET;
     3146    42385
     3147    42386    2   ACTION07: ENTRY ALTRET;
PL6.E3A0      #001=XSS$MACHINE File=XSS$MACHINE.:XSA1TSI                         WED 10/01/97 12:18 Page:127
     3148    42387
     3149    42388            /* "Set Vtrr = true" */
     3150    42389            /* Events: SRELREQ */
     3151    42390    2       SCTX.FLAGS.VTRR = %TRUE;
     3152    42391    2       GOTO RET;
     3153    42392
     3154    42393    2   ACTION08: ENTRY ALTRET;
     3155    42394
     3156    42395            /* "Set Vtrr = false" */
     3157    42396            /* Events: FN-nr/r SRELREQ */
     3158    42397    2       SCTX.FLAGS.VTRR = %FALSE;
     3159    42398    2       GOTO RET;
     3160    42399
     3161    42400    2   ACTION09: ENTRY ALTRET;
     3162    42401
     3163    42402            /* "Set Vtrr according to the Transport Disconnect PV field in the SPDU.
     3164    42403                As a local decision, Vtrr may always be set false" */
     3165    42404            /* Events: FN-r */
     3166    42405    2       SCTX.FLAGS.VTRR = ~SCTX.TD.TCREL;
     3167    42406    2       GOTO RET;
     3168    42407
     3169    42408    2   ACTION10: ENTRY ALTRET;
     3170    42409
     3171    42410            /* "Store the event in the queue" */
     3172    42411            /* Events: EX PR-RA/RS */
     3173    42412    2       IF SCTX.EVQX = %XSS_MAX_EVQX THEN
     3174    42413    2           CALL XSS$SCREECH;
     3175    42414    2       SCTX.EVQ( SCTX.EVQX) = VBLK.EVENT;
     3176    42415    2       SCTX.EVQX = SCTX.EVQX + 1;
     3177    42416    2       GOTO RET;
     3178    42417
     3179    42418    2   ACTION11: ENTRY ALTRET;
     3180    42419
     3181    42420            /* "Update the position of the tokens" */
     3182    42421            /* Events: AC GT GTC RA SCONRSP+ SCTGREQ SRSXRSP STKGREQ */
     3183    42422    3       DO SELECT( VBLK.EVENT);
     3184    42423    3           SELECT( %XSS_SEV_GT, %XSS_SEV_GTC, %XSS_SEV_RA);
PL6.E3A0      #001=XSS$MACHINE File=XSS$MACHINE.:XSA1TSI                         WED 10/01/97 12:18 Page:128
     3185    42424                    /* inbound event */
     3186    42425    3               SCTX.OWNED = SCTX.OWNED | %TOKENS;
     3187    42426    3           SELECT( %XSS_SEV_SCTGREQ, %XSS_SEV_SRSXRSP, %XSS_SEV_STKGREQ);
     3188    42427                    /* outbound event */
     3189    42428    3               SCTX.OWNED = SCTX.OWNED & ~%TOKENS;
     3190    42429    3           END;
     3191    42430    2       SCTX.I = ( ~SCTX.AVAIL) | SCTX.OWNED;
     3192    42431    2       SCTX.A = ( ~SCTX.AVAIL) | ( ~SCTX.OWNED);
     3193    42432    2       SCTX.II = SCTX.AVAIL & SCTX.OWNED;
     3194    42433    2       SCTX.AA = SCTX.AVAIL & ( ~SCTX.OWNED);
     3195    42434    2       GOTO RET;
     3196    42435
     3197    42436    2   ACTION12: ENTRY ALTRET;
     3198    42437
     3199    42438            /* "Set Vact = true" */
     3200    42439            /* Events: AR AS SACRREQ SACSREQ */
     3201    42440    2       SCTX.FLAGS.VACT = %TRUE;
     3202    42441    2       GOTO RET;
     3203    42442
     3204    42443    2   ACTION13: ENTRY ALTRET;
     3205    42444
     3206    42445            /* "Set Vnextact" */
     3207    42446            /* Events: AE MAP SACEREQ SSMAREQ */
     3208    42447    2       SCTX.FLAGS.VNEXTACT = %TRUE;
     3209    42448            /* Note: A.5.4.3 of ISO 8327 disagrees with Table 43 Action[13] */
     3210    42449            /* This code implements the former, since it seems correct.     */
     3211    42450    2       IF VBLK.EVENT = %XSS_SEV_AE OR VBLK.EVENT = %XSS_SEV_SACEREQ THEN
     3212    42451    2           SCTX.FLAGS.VNEXTACT = %FALSE;
     3213    42452    2       GOTO RET;
     3214    42453
     3215    42454    2   ACTION14: ENTRY ALTRET;
     3216    42455
     3217    42456            /* "Set Vact = Vnextact" */
     3218    42457            /* Events: AEA MAA SACERSP SSMARSP */
     3219    42458    2       SCTX.FLAGS.VACT = SCTX.FLAGS.VNEXTACT;
     3220    42459    2       GOTO RET;
     3221    42460
PL6.E3A0      #001=XSS$MACHINE File=XSS$MACHINE.:XSA1TSI                         WED 10/01/97 12:18 Page:129
     3222    42461    2   ACTION15: ENTRY ALTRET;
     3223    42462
     3224    42463            /* "Clear the queue" */
     3225    42464            /* Events: */
     3226    42465            /*N* ACTION15 is defined in the spec, but unused in the state tables */
     3227    42466    2       GOTO ALT;
     3228    42467
     3229    42468    2   ACTION16: ENTRY ALTRET;
     3230    42469
     3231    42470            /* "Update Vrsp and, if RS-r, Vrspnb" */
     3232    42471            /* Events: AD AI RS-a/r/s SACDREQ SACIREQ SRSXREQ(a/r/s) */
     3233    42472    3       DO SELECT( XSS$GENERIC.FNC);
     3234    42473    3           SELECT( %XSS_FNC_SACDREQ#,
     3235    42474    3                   %XSS_FNC_SACDIND#);
     3236    42475    3               SCTX.VRSP = %VRSP_DSC;
     3237    42476    3           SELECT( %XSS_FNC_SACIREQ#,
     3238    42477    3                   %XSS_FNC_SACIIND#);
     3239    42478    3               SCTX.VRSP = %VRSP_INT;
     3240    42479    3           SELECT( %XSS_FNC_SRSXREQ#,
     3241    42480    3                   %XSS_FNC_SRSXIND#);
     3242    42481    4               DO CASE( XSS$RESYNCHRONIZE.TYPE);
     3243    42482    4                   CASE( %XSS_RT_ABANDON#);
     3244    42483    4                       SCTX.VRSP = %VRSP_A;
     3245    42484    4                   CASE( %XSS_RT_RESTART#);
     3246    42485    4                       SCTX.VRSP = %VRSP_R;
     3247    42486    4                       SCTX.VRSPNB = XSS$RESYNCHRONIZE.SERNUM;
     3248    42487    4                   CASE( %XSS_RT_SET#);
     3249    42488    4                       SCTX.VRSP = %VRSP_S;
     3250    42489    4                   END;
     3251    42490    3               END;
     3252    42491    2       GOTO RET;
     3253    42492
     3254    42493    2   AVTION17: ENTRY ALTRET;
     3255    42494            /* ACTION17 is not defined by the spec */
     3256    42495    2       GOTO ALT;
     3257    42496
     3258    42497    2   ACTION18: ENTRY ALTRET;
PL6.E3A0      #001=XSS$MACHINE File=XSS$MACHINE.:XSA1TSI                         WED 10/01/97 12:18 Page:130
     3259    42498
     3260    42499            /* "Set Vcoll = true" */
     3261    42500            /* Events: FN-nr/r SRELREQ */
     3262    42501    2       SCTX.FLAGS.VCOLL = %TRUE;
     3263    42502    2       GOTO RET;
     3264    42503
     3265    42504    2   ACTION19: ENTRY ALTRET;
     3266    42505
     3267    42506            /* "V(M) = maximum( V(M), received serial number)" */
     3268    42507            /* Events: RS-a */
     3269    42508    2       SCTX.VM = MAXIMUM( SCTX.VM, XSS$RESYNCHRONIZE.SERNUM);
     3270    42509    2       GOTO RET;
     3271    42510
     3272    42511    2   ACTION20: ENTRY ALTRET;
     3273    42512
     3274    42513            /* "Set Vsc = false" */
     3275    42514            /* Events: */
     3276    42515            /*N* ACTION20 is defined in the spec, but unused in the state tables */
     3277    42516    2       GOTO ALT;  /*N* for now */
     3278    42517
     3279    42518    2   ACTION21: ENTRY ALTRET;
     3280    42519
     3281    42520            /* "Set V(M) = V(M) + 1" */
     3282    42521            /* Events: */
     3283    42522            /*N* ACTION21 is defined in the spec, but unused in the state tables */
     3284    42523    2       GOTO ALT;  /*N* for now */
     3285    42524
     3286    42525    2   ACTION22: ENTRY ALTRET;
     3287    42526
     3288    42527            /* "Set V(R) = V(A) = V(M)" */
     3289    42528            /* Events: AEA MAA SACERSP SSMARSP */
     3290    42529    2       SCTX.VR = SCTX.VM;
     3291    42530    2       SCTX.VA = SCTX.VM;
     3292    42531    2       GOTO RET;
     3293    42532
     3294    42533    2   ACTION23: ENTRY ALTRET;
     3295    42534
PL6.E3A0      #001=XSS$MACHINE File=XSS$MACHINE.:XSA1TSI                         WED 10/01/97 12:18 Page:131
     3296    42535            /* "If Vsc = false, set V(A) = V(M). Set Vsc = true
     3297    42536                Set V(M) = V(M) + 1" */
     3298    42537            /* Events: MIP */
     3299    42538    3       IF ~SCTX.FLAGS.VSC THEN DO;
     3300    42539    3           SCTX.VA = SCTX.VM;
     3301    42540    3           SCTX.FLAGS.VSC = %TRUE;
     3302    42541    3           END;
     3303    42542    2       SCTX.VM = SCTX.VM + 1;
     3304    42543    2       GOTO RET;
     3305    42544
     3306    42545    2   ACTION24: ENTRY ALTRET;
     3307    42546
     3308    42547            /* "If Vsc = true, set V(A) = V(M). Set Vsc = false
     3309    42548                Set V(M) = V(M) + 1" */
     3310    42549            /* Events: SACEREQ SSMAREQ SSMIREQ */
     3311    42550    3       IF SCTX.FLAGS.VSC THEN DO;
     3312    42551    3           SCTX.VA = SCTX.VM;
     3313    42552    3           SCTX.FLAGS.VSC = %FALSE;
     3314    42553    3           END;
     3315    42554    2       SCTX.VM = SCTX.VM + 1;
     3316    42555    2       GOTO RET;
     3317    42556
     3318    42557    2   ACTION25: ENTRY ALTRET;
     3319    42558
     3320    42559            /* "Set V(A) = serial number + 1" */
     3321    42560            /* Events: MIA SSMIRSP */
     3322    42561    2       SCTX.VA = XSS$GENERIC.SERNUM + 1;
     3323    42562    2       GOTO RET;
     3324    42563
     3325    42564    2   ACTION26: ENTRY ALTRET;
     3326    42565
     3327    42566            /* "Set V(A) = V(M) = V(R) = 1" */
     3328    42567            /* Events: AS SACSREQ */
     3329    42568    2       SCTX.VA = 1;
     3330    42569    2       SCTX.VM = 1;
     3331    42570    2       SCTX.VR = 1;
     3332    42571    2       GOTO RET;
PL6.E3A0      #001=XSS$MACHINE File=XSS$MACHINE.:XSA1TSI                         WED 10/01/97 12:18 Page:132
     3333    42572
     3334    42573    2   ACTION27: ENTRY ALTRET;
     3335    42574
     3336    42575            /* "Set V(A) = V(M) = serial number + 1
     3337    42576                Set V(R) = 1" */
     3338    42577            /* Events: AR SACRREQ */
     3339    42578    2       SCTX.VA = XSS$GENERIC.SERNUM + 1;
     3340    42579    2       SCTX.VM = SCTX.VA;
     3341    42580    2       SCTX.VR = 1;
     3342    42581    2       GOTO RET;
     3343    42582
     3344    42583    2   ACTION28: ENTRY ALTRET;
     3345    42584
     3346    42585            /* "Set V(A) = V(M) = serial number
     3347    42586                If Vrsp = a then set V(R) = 0
     3348    42587                If Vrsp = s then set V(R) = 0
     3349    42588                Set Vrsp = no" */
     3350    42589            /* Events: RA SRSXRSP */
     3351    42590    2       SCTX.VA = XSS$GENERIC.SERNUM;
     3352    42591    2       SCTX.VM = SCTX.VA;
     3353    42592    2       IF SCTX.VRSP = %VRSP_A OR SCTX.VRSP = %VRSP_S THEN
     3354    42593    2           SCTX.VR = 0;
     3355    42594    2       SCTX.VRSP = %VRSP_NO;
     3356    42595    2       GOTO RET;
     3357    42596
     3358    42597    2   ACTION29: ENTRY ALTRET;
     3359    42598
     3360    42599            /* "Set the position of the tokens such that all available tokens are
     3361    42600                owned.
     3362    42601                Set Vact = false. Set Vrsp = no" */
     3363    42602            /* Events: ADA AIA */
     3364    42603    2       SCTX.OWNED = SCTX.AVAIL;
     3365    42604    2       SCTX.FLAGS.VACT = %FALSE;
     3366    42605    2       SCTX.VRSP = %VRSP_NO;
     3367    42606    2       GOTO RET;
     3368    42607
     3369    42608    2   ACTION30: ENTRY ALTRET;
PL6.E3A0      #001=XSS$MACHINE File=XSS$MACHINE.:XSA1TSI                         WED 10/01/97 12:18 Page:133
     3370    42609
     3371    42610            /* "Set the position of the tokens such that all available tokens are
     3372    42611                not owned.
     3373    42612                Set Vact = false. Set Vrsp = no" */
     3374    42613            /* Events: SACDRSP SACIRSP */
     3375    42614    2       SCTX.OWNED = ~SCTX.AVAIL;
     3376    42615    2       SCTX.FLAGS.VACT = %FALSE;
     3377    42616    2       SCTX.VRSP = %VRSP_NO;
     3378    42617    2       GOTO RET;
     3379    42618
     3380    42619    2   ACTION31: ENTRY ALTRET;
     3381    42620
     3382    42621            /* "If Vsc = false, set V(A) = V(M)
     3383    42622                Set V(M) = V(M) + 1" */
     3384    42623            /* Events: AE MAP */
     3385    42624    2       IF ~SCTX.FLAGS.VSC THEN
     3386    42625    2           SCTX.VA = SCTX.VM;
     3387    42626    2       SCTX.VM = SCTX.VM + 1;
     3388    42627    2       GOTO RET;
     3389    42628
     3390    42629    2   ACTION32: ENTRY ALTRET;
     3391    42630
     3392    42631            /* "Set Vdnr = true" */
     3393    42632            /* Events: DN */
     3394    42633    2       SCTX.FLAGS.VDNR = %TRUE;
     3395    42634    2       GOTO RET;
     3396    42635
     3397    42636    2       END ACTION00;
     3398    42637        %EJECT;
PL6.E3A0      #001=XSS$MACHINE File=XSS$MACHINE.:XSA1TSI                         WED 10/01/97 12:18 Page:134
     3399    42638        /*****************************************************************************
     3400    42639        *                                                                            *
     3401    42640        *       PREDxx Routines                                                      *
     3402    42641        *                                                                            *
     3403    42642        *****************************************************************************/
     3404    42643    1   PRED00: PROC ALTRET;
     3405    42644
     3406    42645    2   ALT:
     3407    42646    2       ALTRETURN;  /* single alternate exit to aid debugging */
     3408    42647    2   RET:
     3409    42648    2       RETURN;  /* single exit to aid debugging */
     3410    42649
     3411    42650    2   PRED01: ENTRY ALTRET;
     3412    42651
     3413    42652            /* "~Vtca" */
     3414    42653            /* Events: CN DN FN-r SCONREQ SRELRSP+ */
     3415    42654    2       PRED(1) = ~SCTX.FLAGS.VTCA;
     3416    42655    2       PINV(1) = %FALSE;
     3417    42656    2       GOTO RET;
     3418    42657
     3419    42658    2   PRED02: ENTRY ALTRET;
     3420    42659
     3421    42660            /* "local choice & ~TEXP" */
     3422    42661            /* Events: AB-r RF-r SUABREQ SCONRSP- */
     3423    42662            /* p2 always fails */
     3424    42663    2       PRED(2) = '0'B & ~SCTX.FLAGS.TEXP;
     3425    42664    2       PINV(2) = %FALSE;
     3426    42665    2       GOTO RET;
     3427    42666
     3428    42667    2   PRED03: ENTRY ALTRET;
     3429    42668
     3430    42669            /* "I(dk)" */
     3431    42670            /* Events: SDATREQ ED ER */
     3432    42671    2       PRED(3) = SCTX.I.DK;
     3433    42672    2       PINV(3) = %FALSE;
     3434    42673    2       GOTO RET;
     3435    42674
PL6.E3A0      #001=XSS$MACHINE File=XSS$MACHINE.:XSA1TSI                         WED 10/01/97 12:18 Page:135
     3436    42675    2   PRED04: ENTRY ALTRET;
     3437    42676
     3438    42677            /* "FU(FD) & ~Vcoll" */
     3439    42678            /* Events: SDATREQ */
     3440    42679    2       PRED(4) = SCTX.FU.FD & ~SCTX.FLAGS.VCOLL;
     3441    42680    2       PINV(4) = %FALSE;
     3442    42681    2       GOTO RET;
     3443    42682
     3444    42683    2   PRED05: ENTRY ALTRET;
     3445    42684
     3446    42685            /* "A(dk)" */
     3447    42686            /* Events: DT */
     3448    42687    2       PRED(5) = SCTX.A.DK;
     3449    42688    2       PINV(5) = %FALSE;
     3450    42689    2       GOTO RET;
     3451    42690
     3452    42691    2   PRED06: ENTRY ALTRET;
     3453    42692
     3454    42693            /* "FU(TD)" */
     3455    42694            /* Events: TD STYDREQ */
     3456    42695    2       PRED(6) = SCTX.FU.TD;
     3457    42696    2       PINV(6) = %FALSE;
     3458    42697    2       GOTO RET;
     3459    42698
     3460    42699    2   PRED07: ENTRY ALTRET;
     3461    42700
     3462    42701            /* "FU(TD) & ~Vcoll" */
     3463    42702            /* Events: STYDREQ */
     3464    42703    2       PRED(7) = SCTX.FU.TD & ~SCTX.FLAGS.VCOLL;
     3465    42704    2       PINV(7) = %FALSE;
     3466    42705    2       GOTO RET;
     3467    42706
     3468    42707    2   PRED08: ENTRY ALTRET;
     3469    42708
     3470    42709            /* "FU(EX)" */
     3471    42710            /* Events: EX SEXPREQ */
     3472    42711    2       PRED(8) = SCTX.FU.EX;
PL6.E3A0      #001=XSS$MACHINE File=XSS$MACHINE.:XSA1TSI                         WED 10/01/97 12:18 Page:136
     3473    42712    2       PINV(8) = %FALSE;
     3474    42713    2       GOTO RET;
     3475    42714
     3476    42715    2   PRED09: ENTRY ALTRET;
     3477    42716
     3478    42717            /* "FU(EX) & ~Vcoll" */
     3479    42718            /* Events: EX SEXPREQ */
     3480    42719    2       PRED(9) = SCTX.FU.EX & ~SCTX.FLAGS.VCOLL;
     3481    42720    2       PINV(9) = %FALSE;
     3482    42721    2       GOTO RET;
     3483    42722
     3484    42723    2   PRED10: ENTRY ALTRET;
     3485    42724
     3486    42725            /* "~Vcoll" */
     3487    42726            /* Events: DT PR-RS RS-a/r/s TD SRSXREQ(a/r/s) */
     3488    42727    2       PRED(10) = ~SCTX.FLAGS.VCOLL;
     3489    42728    2       PINV(10) = %FALSE;
     3490    42729    2       GOTO RET;
     3491    42730
     3492    42731    2   PRED11: ENTRY ALTRET;
     3493    42732
     3494    42733            /* "II(ma)" */
     3495    42734            /* Events: SACDREQ SACIREQ */
     3496    42735    2       PRED(11) = SCTX.II.MA;
     3497    42736    2       PINV(11) = %FALSE;
     3498    42737    2       GOTO RET;
     3499    42738
     3500    42739    2   PRED12: ENTRY ALTRET;
     3501    42740
     3502    42741            /* "(~FU(ACT) OR Vact) & A(dk) & A(mi) & AA(ma)" */
     3503    42742            /* Events: MAP */
     3504    42743    2       PRED(12) = ( ~SCTX.FU.ACT | SCTX.FLAGS.VACT) &
     3505    42744    2                  SCTX.A.DK & SCTX.A.MI & SCTX.AA.MA;
     3506    42745    2       PINV(12) = %FALSE;
     3507    42746    2       GOTO RET;
     3508    42747
     3509    42748    2   PRED13: ENTRY ALTRET;
PL6.E3A0      #001=XSS$MACHINE File=XSS$MACHINE.:XSA1TSI                         WED 10/01/97 12:18 Page:137
     3510    42749
     3511    42750            /* "(~FU(ACT) OR Vact) & I(dk) & I(mi) & II(ma)" */
     3512    42751            /* Events: SSMAREQ */
     3513    42752    2       PRED(13) = ( ~SCTX.FU.ACT | SCTX.FLAGS.VACT) &
     3514    42753    2                  SCTX.I.DK & SCTX.I.MI & SCTX.II.MA;
     3515    42754    2       PINV(13) = %FALSE;
     3516    42755    2       GOTO RET;
     3517    42756
     3518    42757    2   PRED14: ENTRY ALTRET;
     3519    42758
     3520    42759            /* "(~FU(ACT) OR Vact) & A(dk) & AA(mi)" */
     3521    42760            /* Events: MIP */
     3522    42761    2       PRED(14) = ( ~SCTX.FU.ACT | SCTX.FLAGS.VACT) & SCTX.A.DK & SCTX.AA.MI;
     3523    42762    2       PINV(14) = %FALSE;
     3524    42763    2       GOTO RET;
     3525    42764
     3526    42765    2   PRED15: ENTRY ALTRET;
     3527    42766
     3528    42767            /* "(~FU(ACT) OR Vact) & I(dk) & II(ma)" */
     3529    42768            /* Events: SSMIREQ */
     3530    42769    2       PRED(15) = ( ~SCTX.FU.ACT | SCTX.FLAGS.VACT) & SCTX.I.DK & SCTX.II.MA;
     3531    42770    2       PINV(15) = %FALSE;
     3532    42771    2       GOTO RET;
     3533    42772
     3534    42773    2   PRED16: ENTRY ALTRET;
     3535    42774
     3536    42775            /* "~TEXP" */
     3537    42776            /* Events: AEA FN-r MAA */
     3538    42777    2       PRED(16) = ~SCTX.FLAGS.TEXP;
     3539    42778    2       PINV(16) = %FALSE;
     3540    42779    2       GOTO RET;
     3541    42780
     3542    42781    2   PRED17: ENTRY ALTRET;
     3543    42782
     3544    42783            /* "(~FU(ACT) OR Vact) & FU(SY) & ~Vsc" */
     3545    42784            /* Events: MIA */
     3546    42785    2       PRED(17) = ( ~SCTX.FU.ACT | SCTX.FLAGS.VACT) &
PL6.E3A0      #001=XSS$MACHINE File=XSS$MACHINE.:XSA1TSI                         WED 10/01/97 12:18 Page:138
     3547    42786    2                  SCTX.FU.SY & ~SCTX.FLAGS.VSC;
     3548    42787    2       PINV(17) = %FALSE;
     3549    42788    2       GOTO RET;
     3550    42789
     3551    42790    2   PRED18: ENTRY ALTRET;
     3552    42791
     3553    42792            /* "(~FU(ACT) OR Vact) & FU(SY) & Vsc" */
     3554    42793            /* Events: SSMIRSP */
     3555    42794    2       PRED(18) = ( ~SCTX.FU.ACT | SCTX.FLAGS.VACT) &
     3556    42795    2                  SCTX.FU.SY & SCTX.FLAGS.VSC;
     3557    42796    2       PINV(18) = %FALSE;
     3558    42797    2       GOTO RET;
     3559    42798
     3560    42799    2   PRED19: ENTRY ALTRET;
     3561    42800
     3562    42801            /* "serial number = V(M)" */
     3563    42802            /* Events: AE MAP MIP */
     3564    42803    2       IF XSS$GENERIC.SERNUM = SCTX.VM THEN
     3565    42804    2           PRED(19) = %TRUE;
     3566    42805    2       PINV(19) = %FALSE;
     3567    42806    2       GOTO RET;
     3568    42807
     3569    42808    2   PRED20: ENTRY ALTRET;
     3570    42809
     3571    42810            /* "serial number = V(M) - 1" */
     3572    42811            /* Events: AEA MAA MIA SSMIRSP */
     3573    42812    2       IF XSS$GENERIC.SERNUM = SCTX.VM - 1 THEN
     3574    42813    2           PRED(20) = %TRUE;
     3575    42814    2       PINV(20) = %FALSE;
     3576    42815    2       GOTO RET;
     3577    42816
     3578    42817    2   PRED21: ENTRY ALTRET;
     3579    42818
     3580    42819            /* "V(M) > serial number >= V(A)" */
     3581    42820            /* Events: MIA SSMIRSP */
     3582    42821    2       IF SCTX.VM > XSS$GENERIC.SERNUM AND XSS$GENERIC.SERNUM >= SCTX.VA THEN
     3583    42822    2           PRED(21) = %TRUE;
PL6.E3A0      #001=XSS$MACHINE File=XSS$MACHINE.:XSA1TSI                         WED 10/01/97 12:18 Page:139
     3584    42823    2       PINV(21) = %FALSE;
     3585    42824    2       GOTO RET;
     3586    42825
     3587    42826    2   PRED22: ENTRY ALTRET;
     3588    42827            /* PRED22 is unused */
     3589    42828    2       GOTO ALT;
     3590    42829
     3591    42830    2   PRED23: ENTRY ALTRET;
     3592    42831
     3593    42832            /* "FU(ACT) & ~Vnextact" */
     3594    42833            /* Events: AEA MAA */
     3595    42834    2       PRED(23) = SCTX.FU.ACT & ~SCTX.FLAGS.VNEXTACT;
     3596    42835    2       PINV(23) = %FALSE;
     3597    42836    2       GOTO RET;
     3598    42837
     3599    42838    2   PRED24: ENTRY ALTRET;
     3600    42839
     3601    42840            /* "~SPMwinner" */
     3602    42841            /* Events: RS-a/r/s SRSXREQ(a/r/s) */
     3603    42842    2       PRED(24) = ~SCTX.FLAGS.WINNER;
     3604    42843    2       PINV(24) = %FALSE;
     3605    42844    2       GOTO ALT;  /*N* until WINNER is figured out correctly */
     3606    42845
     3607    42846    2   PRED25: ENTRY ALTRET;
     3608    42847
     3609    42848            /* "(FU(SY) OR FU(MA)) & FU(RESYN)" */
     3610    42849            /* Events: SRSXREQ(r/s) */
     3611    42850    2       PRED(25) = ( SCTX.FU.SY | SCTX.FU.MA) & SCTX.FU.RESYN;
     3612    42851    2       PINV(25) = %FALSE;
     3613    42852    2       GOTO RET;
     3614    42853
     3615    42854    2   PRED26: ENTRY ALTRET;
     3616    42855
     3617    42856            /* "(~FU(ACT) OR Vact)" */
     3618    42857            /* Events: PR-RS RS-a/r/s SRSXREQ(r/s) */
     3619    42858    2       PRED(26) = ~SCTX.FU.ACT | SCTX.FLAGS.VACT;
     3620    42859    2       PINV(26) = %FALSE;
PL6.E3A0      #001=XSS$MACHINE File=XSS$MACHINE.:XSA1TSI                         WED 10/01/97 12:18 Page:140
     3621    42860    2       GOTO RET;
     3622    42861
     3623    42862    2   PRED27: ENTRY ALTRET;
     3624    42863
     3625    42864            /* "Vrsp = no" */
     3626    42865            /* Events: SACDREQ SACIREQ SRSXREQ(a/r/s) */
     3627    42866    2       IF SCTX.VRSP = %VRSP_NO THEN
     3628    42867    2           PRED(27) = %TRUE;
     3629    42868    2       PINV(27) = %FALSE;
     3630    42869    2       GOTO RET;
     3631    42870
     3632    42871    2   PRED28: ENTRY ALTRET;
     3633    42872
     3634    42873            /* "FU(RESYN)" */
     3635    42874            /* Events: RS-a/r/s SRSXREQ(a/s) */
     3636    42875    2       PRED(28) = SCTX.FU.RESYN;
     3637    42876    2       PINV(28) = %FALSE;
     3638    42877    2       GOTO RET;
     3639    42878
     3640    42879    2   PRED29: ENTRY ALTRET;
     3641    42880
     3642    42881            /* "(~FU(ACT) OR Vact) & FU(RESYN)" */
     3643    42882            /* Events: RS-a/r/s SRSXREQ(a) */
     3644    42883    2       PRED(29) = ( ~SCTX.FU.ACT | SCTX.FLAGS.VACT) & SCTX.FU.RESYN;
     3645    42884    2       PINV(29) = %FALSE;
     3646    42885    2       GOTO RET;
     3647    42886
     3648    42887    2   PRED30: ENTRY ALTRET;
     3649    42888
     3650    42889            /* "~FU(ACT) OR Vnextact" */
     3651    42890            /* Events: SRSXREQ(a/s) */
     3652    42891    2       PRED(30) = ~SCTX.FU.ACT | SCTX.FLAGS.VNEXTACT;
     3653    42892    2       PINV(30) = %FALSE;
     3654    42893    2       GOTO RET;
     3655    42894
     3656    42895    2   PRED31: ENTRY ALTRET;
     3657    42896
PL6.E3A0      #001=XSS$MACHINE File=XSS$MACHINE.:XSA1TSI                         WED 10/01/97 12:18 Page:141
     3658    42897            /* "FU(ACT) & Vnextact" */
     3659    42898            /* Events: */
     3660    42899            /*N* PRED31 is defined in the spec, but unused in the state tables */
     3661    42900    2       GOTO ALT;
     3662    42901
     3663    42902    2   PRED32: ENTRY ALTRET;
     3664    42903
     3665    42904            /* "serial number >= V(R)" */
     3666    42905            /* Events: RS-r */
     3667    42906    2       IF XSS$GENERIC.SERNUM >= SCTX.VR THEN
     3668    42907    2           PRED(32) = %TRUE;
     3669    42908    2       PINV(32) = %FALSE;
     3670    42909    2       GOTO RET;
     3671    42910
     3672    42911    2   PRED33: ENTRY ALTRET;
     3673    42912
     3674    42913            /* "V(M) >= serial number >= V(R)" */
     3675    42914            /* Events: SRSXREQ(r) */
     3676    42915    2       IF SCTX.VM >= XSS$GENERIC.SERNUM AND XSS$GENERIC.SERNUM >= SCTX.VR THEN
     3677    42916    2           PRED(33) = %TRUE;
     3678    42917    2       PINV(33) = %FALSE;
     3679    42918    2       GOTO RET;
     3680    42919
     3681    42920    2   PRED34: ENTRY ALTRET;
     3682    42921
     3683    42922            /* "FU(ACT)" */
     3684    42923            /* Events: RS-a/r/s SACDREQ SACIREQ SRSXREQ(a/r/s) */
     3685    42924    2       PRED(34) = SCTX.FU.ACT;
     3686    42925    2       PINV(34) = %FALSE;
     3687    42926    2       GOTO RET;
     3688    42927
     3689    42928    2   PRED35: ENTRY ALTRET;
     3690    42929
     3691    42930            /* "FU(RESYN) & ~TEXP" */
     3692    42931            /* Events: RA RS-a/r/s */
     3693    42932    2       PRED(35) = SCTX.FU.RESYN & ~SCTX.FLAGS.TEXP;
     3694    42933    2       PINV(35) = %FALSE;
PL6.E3A0      #001=XSS$MACHINE File=XSS$MACHINE.:XSA1TSI                         WED 10/01/97 12:18 Page:142
     3695    42934    2       GOTO RET;
     3696    42935
     3697    42936    2   PRED36: ENTRY ALTRET;
     3698    42937
     3699    42938            /* "FU(RESYN) & TEXP" */
     3700    42939            /* Events: RA */
     3701    42940    2       PRED(36) = SCTX.FU.RESYN & SCTX.FLAGS.TEXP;
     3702    42941    2       PINV(36) = %FALSE;
     3703    42942    2       GOTO RET;
     3704    42943
     3705    42944    2   PRED37: ENTRY ALTRET;
     3706    42945
     3707    42946            /* "FU(ACT) & TEXP" */
     3708    42947            /* Events: AD ADA AI AIA */
     3709    42948    2       PRED(37) = SCTX.FU.ACT & SCTX.FLAGS.TEXP;
     3710    42949    2       PINV(37) = %FALSE;
     3711    42950    2       GOTO RET;
     3712    42951
     3713    42952    2   PRED38: ENTRY ALTRET;
     3714    42953
     3715    42954            /* "FU(ACT) & ~TEXP" */
     3716    42955            /* Events: AD ADA AI AIA */
     3717    42956    2       PRED(38) = SCTX.FU.ACT & ~SCTX.FLAGS.TEXP;
     3718    42957    2       PINV(38) = %FALSE;
     3719    42958    2       GOTO RET;
     3720    42959
     3721    42960    2   PRED39: ENTRY ALTRET;
     3722    42961
     3723    42962            /* "Vact & II(ma)" */
     3724    42963            /* Events: SACDREQ SACIREQ */
     3725    42964    2       PRED(39) = SCTX.FLAGS.VACT & SCTX.II.MA;
     3726    42965    2       PINV(39) = %FALSE;
     3727    42966    2       GOTO RET;
     3728    42967
     3729    42968    2   PRED40: ENTRY ALTRET;
     3730    42969
     3731    42970            /* "AA(ma)" */
PL6.E3A0      #001=XSS$MACHINE File=XSS$MACHINE.:XSA1TSI                         WED 10/01/97 12:18 Page:143
     3732    42971            /* Events: AD AI */
     3733    42972    2       PRED(40) = SCTX.AA.MA;
     3734    42973    2       PINV(40) = %FALSE;
     3735    42974    2       GOTO RET;
     3736    42975
     3737    42976    2   PRED41: ENTRY ALTRET;
     3738    42977
     3739    42978            /* "Vrsp = dsc" */
     3740    42979            /* Events: ADA */
     3741    42980    2       IF SCTX.VRSP = %VRSP_DSC THEN
     3742    42981    2           PRED(41) = %TRUE;
     3743    42982    2       PINV(41) = %FALSE;
     3744    42983    2       GOTO RET;
     3745    42984
     3746    42985    2   PRED42: ENTRY ALTRET;
     3747    42986
     3748    42987            /* "Vrsp = int" */
     3749    42988            /* Events: AIA */
     3750    42989    2       IF SCTX.VRSP = %VRSP_INT THEN
     3751    42990    2           PRED(42) = %TRUE;
     3752    42991    2       PINV(42) = %FALSE;
     3753    42992    2       GOTO RET;
     3754    42993
     3755    42994    2   PRED43: ENTRY ALTRET;
     3756    42995
     3757    42996            /* "((Vrsp = r) & (serial number = Vrspnb))
     3758    42997                OR ((Vrsp = a) & (serial number = V(M)))
     3759    42998                OR (Vrsp = s)" */
     3760    42999            /* Events: SRSXRSP */
     3761    43000    3       DO SELECT( SCTX.VRSP);
     3762    43001    3           SELECT( %VRSP_R);
     3763    43002    3               IF XSS$GENERIC.SERNUM = SCTX.VRSPNB THEN
     3764    43003    3                   PRED(43) = %TRUE;
     3765    43004    3           SELECT( %VRSP_A);
     3766    43005    3               IF XSS$GENERIC.SERNUM = SCTX.VM THEN
     3767    43006    3                   PRED(43) = %TRUE;
     3768    43007    3           SELECT( %VRSP_S);
PL6.E3A0      #001=XSS$MACHINE File=XSS$MACHINE.:XSA1TSI                         WED 10/01/97 12:18 Page:144
     3769    43008    3               PRED(43) = %TRUE;
     3770    43009    3           END;
     3771    43010    2       PINV(43) = %FALSE;
     3772    43011    2       GOTO RET;
     3773    43012
     3774    43013    2   PRED44: ENTRY ALTRET;
     3775    43014
     3776    43015            /* "(FU(ACT) & ~Vact) & A(dk) & A(mi) & A(ma)" */
     3777    43016            /* Events: AR AS */
     3778    43017    2       PRED(44) = ( SCTX.FU.ACT & ~SCTX.FLAGS.VACT) &
     3779    43018    2                  SCTX.A.DK & SCTX.A.MI & SCTX.A.MA;
     3780    43019    2       PINV(44) = %FALSE;
     3781    43020    2       GOTO RET;
     3782    43021
     3783    43022    2   PRED45: ENTRY ALTRET;
     3784    43023
     3785    43024            /* "(FU(ACT) & ~Vact) & I(dk) & I(mi) & I(ma)" */
     3786    43025            /* Events: SACRREQ SACSREQ */
     3787    43026    2       PRED(45) = ( SCTX.FU.ACT & ~SCTX.FLAGS.VACT) &
     3788    43027    2                  SCTX.I.DK & SCTX.I.MI & SCTX.I.MA;
     3789    43028    2       PINV(45) = %FALSE;
     3790    43029    2       GOTO RET;
     3791    43030
     3792    43031    2   PRED46: ENTRY ALTRET;
     3793    43032
     3794    43033            /* "FU(CD) & (FU(ACT) & ~Vact) & A(dk) & A(mi) & ~OWNED(ma)" */
     3795    43034            /* Events: CD */
     3796    43035    2       PRED(46) = SCTX.FU.CD & ( SCTX.FU.ACT & ~SCTX.FLAGS.VACT) &
     3797    43036    2                  SCTX.A.DK & SCTX.A.MI & ~SCTX.OWNED.MA;
     3798    43037    2       PINV(46) = %FALSE;
     3799    43038    2       GOTO RET;
     3800    43039
     3801    43040    2   PRED47: ENTRY ALTRET;
     3802    43041
     3803    43042            /* "FU(CD) & (FU(ACT) & ~Vact) & I(dk) & I(mi) & OWNED(ma)" */
     3804    43043            /* Events: SCADREQ */
     3805    43044    2       PRED(47) = SCTX.FU.CD & ( SCTX.FU.ACT & ~SCTX.FLAGS.VACT) &
PL6.E3A0      #001=XSS$MACHINE File=XSS$MACHINE.:XSA1TSI                         WED 10/01/97 12:18 Page:145
     3806    43045    2                 SCTX.I.DK & SCTX.I.MI & SCTX.OWNED.MA;
     3807    43046    2       PINV(47) = %FALSE;
     3808    43047    2       GOTO RET;
     3809    43048
     3810    43049    2   PRED48: ENTRY ALTRET;
     3811    43050
     3812    43051            /* "FU(EXCEP) & FU(HD)" */
     3813    43052            /* Events: ED ER */
     3814    43053    2       PRED(48) = SCTX.FU.EXCEP & SCTX.FU.HD;
     3815    43054    2       PINV(48) = %FALSE;
     3816    43055    2       GOTO RET;
     3817    43056
     3818    43057    2   PRED49: ENTRY ALTRET;
     3819    43058
     3820    43059            /* "((Vrsp = r) & (serial number = Vrspnb))
     3821    43060                OR ((Vrsp = a) & (serial number >= V(M)))
     3822    43061                OR (Vrsp = s)" */
     3823    43062            /* Events: RA */
     3824    43063    3       DO SELECT( SCTX.VRSP);
     3825    43064    3           SELECT( %VRSP_R);
     3826    43065    3               IF XSS$GENERIC.SERNUM = SCTX.VRSPNB THEN
     3827    43066    3                   PRED(49) = %TRUE;
     3828    43067    3           SELECT( %VRSP_A);
     3829    43068    3               IF XSS$GENERIC.SERNUM >= SCTX.VM THEN
     3830    43069    3                   PRED(49) = %TRUE;
     3831    43070    3           SELECT( %VRSP_S);
     3832    43071    3               PRED(49) = %TRUE;
     3833    43072    3           END;
     3834    43073    2       PINV(49) = %FALSE;
     3835    43074    2       GOTO RET;
     3836    43075
     3837    43076    2   PRED50: ENTRY ALTRET;
     3838    43077
     3839    43078            /* "FU(EXCEP) & (~FU(ACT) OR Vact) & AA(dk)" */
     3840    43079            /* Events: ED ER SUERREQ */
     3841    43080    2       PRED(50) = SCTX.FU.EXCEP & ( ~SCTX.FU.ACT | SCTX.FLAGS.VACT) & SCTX.AA.DK;
     3842    43081    2       PINV(50) = %FALSE;
PL6.E3A0      #001=XSS$MACHINE File=XSS$MACHINE.:XSA1TSI                         WED 10/01/97 12:18 Page:146
     3843    43082    2       GOTO RET;
     3844    43083
     3845    43084    2   PRED51: ENTRY ALTRET;
     3846    43085
     3847    43086            /* "FU(EXCEP) & (~FU(ACT) OR Vact) & II(dk)" */
     3848    43087            /* Events: ED ER */
     3849    43088    2       PRED(51) = SCTX.FU.EXCEP & ( ~SCTX.FU.ACT | SCTX.FLAGS.VACT) & SCTX.II.DK;
     3850    43089    2       PINV(51) = %FALSE;
     3851    43090    2       GOTO RET;
     3852    43091
     3853    43092    2   PRED52: ENTRY ALTRET;
     3854    43093
     3855    43094            /* "FU(EXCEP) & (~FU(ACT) & II(dk)" [sic] */
     3856    43095            /* Events: ED ER */
     3857    43096    2       PRED(52) = SCTX.FU.EXCEP & ~SCTX.FU.ACT & SCTX.II.DK; /*N* can't be */
     3858    43097    2       PINV(52) = %FALSE;
     3859    43098    2       GOTO ALT;  /*N* until the correct expression is found */
     3860    43099
     3861    43100    2   PRED53: ENTRY ALTRET;
     3862    43101
     3863    43102            /* "ANY(AV,RT)" */
     3864    43103            /* Events: PT STKPREQ */
     3865    43104    2       IF %TOKENS ~= %ZROS THEN
     3866    43105    2           IF ( SCTX.AVAIL & %TOKENS) ~= %ZROS THEN
     3867    43106    2               PRED(53) = %TRUE;
     3868    43107    2       PINV(53) = %FALSE;
     3869    43108    2       GOTO RET;
     3870    43109
     3871    43110    2   PRED54: ENTRY ALTRET;
     3872    43111
     3873    43112            /* "ALL(I,GT) & ANY(AV,GT)" */
     3874    43113            /* Events: STKGREQ */
     3875    43114    2       IF ( %TOKENS = %ZROS OR %TOKENS = ( %TOKENS & SCTX.I)) AND
     3876    43115    2               ( %TOKENS ~= %ZROS AND ( %TOKENS & SCTX.AVAIL) ~= %ZROS) THEN
     3877    43116    2           PRED(54) = %TRUE;
     3878    43117    2       PINV(54) = %FALSE;
     3879    43118    2       GOTO RET;
PL6.E3A0      #001=XSS$MACHINE File=XSS$MACHINE.:XSA1TSI                         WED 10/01/97 12:18 Page:147
     3880    43119
     3881    43120    2   PRED55: ENTRY ALTRET;
     3882    43121
     3883    43122            /* "(FU(ACT) & ~Vact) & ALL(I,tk-dom)" */
     3884    43123            /* Events: SCTGREQ */
     3885    43124    2       IF ( SCTX.FU.ACT & ~SCTX.FLAGS.VACT) AND SCTX.I = %ONES THEN
     3886    43125    2           PRED(55) = %TRUE;
     3887    43126    2       PINV(55) = %FALSE;
     3888    43127    2       GOTO RET;
     3889    43128
     3890    43129    2   PRED56: ENTRY ALTRET;
     3891    43130            /* PRED56 is unused */
     3892    43131    2       GOTO ALT;
     3893    43132
     3894    43133    2   PRED57: ENTRY ALTRET;
     3895    43134
     3896    43135            /* "ALL(I,GT) & (dk not in GT) & ANY(AV,GT)" */
     3897    43136            /* Events: STKGREQ */
     3898    43137    2       IF ( %TOKENS = %ZROS OR %TOKENS = ( %TOKENS & SCTX.I)) AND ~%TOKENS.DK AND
     3899    43138    2               ( %TOKENS ~= %ZROS AND ( %TOKENS & SCTX.AVAIL) ~= %ZROS) THEN
     3900    43139    2           PRED(57) = %TRUE;
     3901    43140    2       PINV(57) = %FALSE;
     3902    43141    2       GOTO RET;
     3903    43142
     3904    43143    2   PRED58: ENTRY ALTRET;
     3905    43144
     3906    43145            /* "ALL(I,GT) & (dk in GT)" */
     3907    43146            /* Events: STKGREQ */
     3908    43147    2       IF ( %TOKENS = %ZROS OR %TOKENS = ( %TOKENS & SCTX.I)) AND %TOKENS.DK THEN
     3909    43148    2           PRED(58) = %TRUE;
     3910    43149    2       PINV(58) = %FALSE;
     3911    43150    2       GOTO RET;
     3912    43151
     3913    43152    2   PRED59: ENTRY ALTRET;
     3914    43153
     3915    43154            /* "ALL(A,GT) & ANY(AV,GT)" */
     3916    43155            /* Events: GT */
PL6.E3A0      #001=XSS$MACHINE File=XSS$MACHINE.:XSA1TSI                         WED 10/01/97 12:18 Page:148
     3917    43156    2       IF ( %TOKENS = %ZROS OR %TOKENS = ( %TOKENS & SCTX.A)) AND
     3918    43157    2               ( %TOKENS ~= %ZROS AND ( %TOKENS & SCTX.AVAIL) ~= %ZROS) THEN
     3919    43158    2           PRED(59) = %TRUE;
     3920    43159    2       PINV(59) = %FALSE;
     3921    43160    2       GOTO RET;
     3922    43161
     3923    43162    2   PRED60: ENTRY ALTRET;
     3924    43163
     3925    43164            /* "ALL(A,GT) & (dk not in GT) & ANY(AV,GT)" */
     3926    43165            /* Events: GT */
     3927    43166    2       IF ( %TOKENS = %ZROS OR %TOKENS = ( %TOKENS & SCTX.A)) AND ~%TOKENS.DK AND
     3928    43167    2               ( %TOKENS ~= %ZROS AND ( %TOKENS & SCTX.AVAIL) ~= %ZROS) THEN
     3929    43168    2           PRED(60) = %TRUE;
     3930    43169    2       PINV(60) = %FALSE;
     3931    43170    2       GOTO RET;
     3932    43171
     3933    43172    2   PRED61: ENTRY ALTRET;
     3934    43173
     3935    43174            /* "ALL(A,GT) & (dk in GT)" */
     3936    43175            /* Events: GT */
     3937    43176    2       IF ( %TOKENS = %ZROS OR %TOKENS = ( %TOKENS & SCTX.A)) AND %TOKENS.DK THEN
     3938    43177    2           PRED(61) = %TRUE;
     3939    43178    2       PINV(61) = %FALSE;
     3940    43179    2       GOTO RET;
     3941    43180
     3942    43181    2   PRED62: ENTRY ALTRET;
     3943    43182
     3944    43183            /* "(FU(ACT) & ~Vact) & ALL(A,tk-dom)" */
     3945    43184            /* Events: GTC */
     3946    43185    2       IF ( SCTX.FU.ACT & ~SCTX.FLAGS.VACT) AND SCTX.A = %ONES THEN
     3947    43186    2           PRED(62) = %TRUE;
     3948    43187    2       PINV(62) = %FALSE;
     3949    43188    2       GOTO RET;
     3950    43189
     3951    43190    2   PRED63: ENTRY ALTRET;
     3952    43191
     3953    43192            /* "ALL(I,tk-dom) & (~FU(ACT) OR ~Vact)" */
PL6.E3A0      #001=XSS$MACHINE File=XSS$MACHINE.:XSA1TSI                         WED 10/01/97 12:18 Page:149
     3954    43193            /* Events: SRELREQ */
     3955    43194    2       IF SCTX.I = %ONES THEN
     3956    43195    2           PRED(63) = ( ~SCTX.FU.ACT | ~SCTX.FLAGS.VACT);
     3957    43196    2       PINV(63) = %FALSE;
     3958    43197    2       GOTO RET;
     3959    43198
     3960    43199    2   PRED64: ENTRY ALTRET;
     3961    43200
     3962    43201            /* "local choice & ~Vtca & ~TEXP" */
     3963    43202            /* Events: SRELREQ */
     3964    43203            /* p64 always fails */
     3965    43204    2       PRED(64) = '0'B & ~SCTX.FLAGS.VTCA & ~SCTX.FLAGS.TEXP;
     3966    43205    2       PINV(64) = %FALSE;
     3967    43206    2       GOTO RET;
     3968    43207
     3969    43208    2   PRED65: ENTRY ALTRET;
     3970    43209
     3971    43210            /* "ANY(AV,tk-dom)" */
     3972    43211            /* Events: FN-nr/r SRELREQ */
     3973    43212    2       PRED(65) = SCTX.AVAIL ~= %ZROS;
     3974    43213    2       PINV(65) = %FALSE;
     3975    43214    2       GOTO RET;
     3976    43215
     3977    43216    2   PRED66: ENTRY ALTRET;
     3978    43217
     3979    43218            /* "Vtrr" */
     3980    43219            /* Events: DN SRELRSP+ */
     3981    43220    2       PRED(66) = SCTX.FLAGS.VTRR;
     3982    43221    2       PINV(66) = %FALSE;
     3983    43222    2       GOTO RET;
     3984    43223
     3985    43224    2   PRED67: ENTRY ALTRET;
     3986    43225
     3987    43226            /* "FU(NR)" */
     3988    43227            /* Events: NF SRELRSP- */
     3989    43228    2       PRED(67) = SCTX.FU.NR;
     3990    43229    2       PINV(67) = %FALSE;
PL6.E3A0      #001=XSS$MACHINE File=XSS$MACHINE.:XSA1TSI                         WED 10/01/97 12:18 Page:150
     3991    43230    2       GOTO RET;
     3992    43231
     3993    43232    2   PRED68: ENTRY ALTRET;
     3994    43233
     3995    43234            /* "ALL(A,tk-dom) & (~FU(ACT) OR ~Vact)" */
     3996    43235            /* Events: FN-nr/r */
     3997    43236    2       IF SCTX.A = %ONES THEN
     3998    43237    2           PRED(68) = ( ~SCTX.FU.ACT | ~SCTX.FLAGS.VACT);
     3999    43238    2       PINV(68) = %FALSE;
     4000    43239    2       GOTO RET;
     4001    43240
     4002    43241    2   PRED69: ENTRY ALTRET;
     4003    43242
     4004    43243            /* "Vcoll" */
     4005    43244            /* Events: DN SRELRSP+ */
     4006    43245    2       PRED(69) = SCTX.FLAGS.VCOLL;
     4007    43246    2       PINV(69) = %FALSE;
     4008    43247    2       GOTO RET;
     4009    43248
     4010    43249    2   PRED70: ENTRY ALTRET;
     4011    43250
     4012    43251            /* "FU(FD)" */
     4013    43252            /* Events: DT SDATREQ */
     4014    43253    2       PRED(70) = SCTX.FU.FD;
     4015    43254    2       PINV(70) = %FALSE;
     4016    43255    2       GOTO RET;
     4017    43256
     4018    43257    2   PRED71: ENTRY ALTRET;
     4019    43258
     4020    43259            /* "FU(ACT) & Vact & I(dk) & I(mi) & II(ma)" */
     4021    43260            /* Events: SACEREQ */
     4022    43261    2       PRED(71) = SCTX.FU.ACT & SCTX.FLAGS.VACT &
     4023    43262    2                  SCTX.I.DK & SCTX.I.MI & SCTX.II.MA;
     4024    43263    2       PINV(71) = %FALSE;
     4025    43264    2       GOTO RET;
     4026    43265
     4027    43266    2   PRED72: ENTRY ALTRET;
PL6.E3A0      #001=XSS$MACHINE File=XSS$MACHINE.:XSA1TSI                         WED 10/01/97 12:18 Page:151
     4028    43267
     4029    43268            /* "FU(ACT) & Vact & A(dk) & A(mi) & AA(ma)" */
     4030    43269            /* Events: AE */
     4031    43270    2       PRED(72) = SCTX.FU.ACT & SCTX.FLAGS.VACT &
     4032    43271    2                  SCTX.A.DK & SCTX.A.MI & SCTX.AA.MA;
     4033    43272    2       PINV(72) = %FALSE;
     4034    43273    2       GOTO RET;
     4035    43274
     4036    43275    2   PRED73: ENTRY ALTRET;
     4037    43276            /* PRED73 is not defined in the spec */
     4038    43277    2       GOTO ALT;
     4039    43278
     4040    43279    2   PRED74: ENTRY ALTRET;
     4041    43280            /* PRED74 is not defined in the spec */
     4042    43281    2       GOTO ALT;
     4043    43282
     4044    43283    2   PRED75: ENTRY ALTRET;
     4045    43284
     4046    43285            /* "(Vcoll & Vdnr) OR ~Vcoll" */
     4047    43286            /* Events: SRELRSP+ */
     4048    43287    2       PRED(75) = ( SCTX.FLAGS.VCOLL & SCTX.FLAGS.VDNR) | ~SCTX.FLAGS.VCOLL;
     4049    43288    2       PINV(75) = %FALSE;
     4050    43289    2       GOTO RET;
     4051    43290
     4052    43291    2       END PRED00;
     4053    43292
     4054    43293    1       END XSS$MACHINE;

PL6.E3A0      #001=XSS$MACHINE File=XSS$MACHINE.:XSA1TSI                         WED 10/01/97 12:18 Page:152
--  Include file information  --

   XSC_PERR_C.:XSA1TOU  is referenced.
   XSS_MACHINE_M.:XSA1TOU  is referenced.
   XSS_INTERNAL_M.:XSA1TOU  is referenced.
   XSS_INTERNAL_E.:XSA1TOU  is referenced.
   XSS_SESSION_M.:XSA1TOU  is referenced.
   XSS_SESSION_E.:XSA1TOU  is referenced.
   K_ADDRESS_M.:LIB_E05  is referenced.
   UM_CP6.:E05OU  is referenced.
      No diagnostics issued in procedure XSS$MACHINE.

   Procedure XSS$MACHINE requires 10971 words for executable code.
   Procedure XSS$MACHINE requires 42 words of local(AUTO) storage.

    No errors detected in file XSS$MACHINE.:XSA1TSI    .

PL6.E3A0      #001=XSS$MACHINE File=XSS$MACHINE.:XSA1TSI                         WED 10/01/97 12:18 Page:153

 Object Unit name= XSS$MACHINE                                File name= XSS$MACHINE.:XSA1TOU
 UTS= OCT 01 '97 12:18:37.68 WED                              Compiler= PL-6/E31         Sev=      00
 SharedLib= :SHARED_SYSTEM                                    Alt SharedLib=


    ****  Control sections  ****

 Sect   Type Bound  Init  Size OctSiz  Section name(segment info)
    0  RoData even  UTS     14     16  XSS$MACHINE
    1   Proc  even  none 10971  25333  XSS$MACHINE
    2  RoData even  none   199    307  XSS$MACHINE

    ****  Entry defs  ****

                              Check   Calling
                             calling  sequence
  Sect OctLoc Primary Altret sequence   type   Parms  Name
     1      0   yes    yes     yes      Std        1  XSS$MACHINE

  ****  Data defs  ****

 Sect OctLoc  Name                           Sect OctLoc  Name
    0      0  XSS_F$CYCLE                        0      1  XSS_F$EVNTERR
    0      2  XSS_F$NOSESS
PL6.E3A0      #001=XSS$MACHINE File=XSS$MACHINE.:XSA1TSI                         WED 10/01/97 12:18 Page:154

  ****  Entry refs  ****

         Check        Calling
        calling       sequence
Altret sequence SRef   type   Args  Name
         yes           Std       2 XSS$EVLOG
         yes           Std       1 XSS$SCREECH
 yes     yes           Std       1 XSS$RELCTX
 yes     yes           Std       1 XSS$TSEND
 yes     yes           Std       3 XSS$GETMEM
 yes     yes           Std       2 XSS$BLKPTR
 yes     yes           Std       1 XSS$RELMEM
 yes     yes           Std       2 XSS$BUFPTR
         yes    yes    Std       1 XSS$DUMPFPT
 yes     yes           Std       1 XSS$ENCODE
         yes           Std       2 XSS$CLOCK
                       nStd      0 X66_AUTO_1
                       nStd      0 X66_ARET
                       nStd      0 X66_AALT

  ****  Data refs  ****

  Flags:  r = read only, s = secondary
Flgs Name                             Flgs Name                             Flgs Name
     XSS_TRACE

  ****  Segment refs  ****

  Flags:  r = read only, s = secondary
Flgs Name                             Flgs Name                             Flgs Name
     ISSID
PL6.E3A0      #001=XSS$MACHINE File=XSS$MACHINE.:XSA1TSI                         WED 10/01/97 12:18 Page:155


        1        1        /*M*    XSS$MACHINE     ISO Session Protocol Machine                    */
        2        2        /*T***********************************************************/
        3        3        /*T*                                                         */
        4        4        /*T* Copyright (c) Bull HN Information Systems Inc., 1997    */
        5        5        /*T*                                                         */
        6        6        /*T***********************************************************/
        7        7        /*X* DDA */
        8        8        /*P*
        9        9                NAME:   XSS$MACHINE
       10       10                PURPOSE:
       11       11                    This module is the state machine for the ISO Session layer.
       12       12                    The same code serves for both host and FEP platforms.  The
       13       13                    necessary ugliness for interfacing with higher layers (e.g.,
       14       14                    Presentation, CASE, ACSE) and lower layers (e.g., Transport)
       15       15                    resides in other modules.
       16       16        */
       17       17        /*F*
       18       18                NAME:   XSS$MACHINE
       19       19                PURPOSE:
       20       20                    This module is the state machine for the ISO Session layer.
       21       21                    The same code serves for both host and FEP platforms.  The
       22       22                    necessary ugliness for interfacing with higher layers (e.g.,
       23       23                    Presentation, CASE, ACSE) and lower layers (e.g., Transport)
       24       24                    resides in other modules.
       25       25                DESCRIPTION:
       26       26                    On entry, the parameter VBLK contains all the information of
       27       27                    interest.  The event being reported is combined with the
       28       28                    current state of the connection and looked up in the table of
       29       29                    permitted actions.  Depending on the particular action to be
       30       30                    performed, other routines are called.  In general, internal
       31       31                    Session routines are called, various flags are updated in the
       32       32                    Session connection context, the state of the connection is
       33       33                    possibly updated, and the module RETURNs.
       34       34
       35       35                    If the Session connection aborts, the ALTRETURN is taken.
       36       36
PL6.E3A0      #001=XSS$MACHINE File=XSS$MACHINE.:XSA1TSI                         WED 10/01/97 12:18 Page:156
       37       37                    In the code below, the notation TABLE xx refers to a specific
       38       38                    protocol state machine table in the ISO Session protocol spec.
       39       39        */
       40       40        XSS$MACHINE: PROC( VBLK) ALTRET;

     40  1 000000   000000 700200 xent  XSS$MACHINE  TSX0  ! X66_AUTO_1
         1 000001   000052 000001                    ZERO    42,1

       41       41        %INCLUDE UM_CP6;
       42      893        %INCLUDE K_ADDRESS_M;
       43     1396        %INCLUDE XSS_SESSION_E;
       44     1961        %INCLUDE XSS_SESSION_M;
       45     4604            %XSS$PRIMITIVES( STCLASS="BASED( SFPT$)");
       46     7983        %INCLUDE XSS_INTERNAL_E;
       47     8281        %INCLUDE XSS_INTERNAL_M;
       48     8870            %XSS$SCTX( NAME=SCTX, STCLASS="BASED( VBLK.CTX$)");
       49     9304            %XSS$VBLK( NAME=VBLK, STCLASS="");
       50     9409            %XSS$MEMBLK( NAME=B$BLOCK);
       51     9447        %INCLUDE XSS_MACHINE_M;
       52     9702        %MACRO FATALDEF( NAME=XSS_FATAL, STCLASS="CONSTANT SYMDEF", LVL=1, LAST=";",
       53     9703                         ERR#=0, SEV=7);
       54     9704            %VLP_ERRCODE( FPTN=NAME, STCLASS=STCLASS, FCG='XS', MID='S',
       55     9705                          MON='0'B, ERR#=ERR#, SEV=SEV);
       56     9706        %MEND;
       57     9707        %INCLUDE XSC_PERR_C;
       58     9784            %FATALDEF( NAME=XSS_F$CYCLE, ERR#=%F$CYCLE);
       59     9832            /*E*  ERROR:  XSS-F$CYCLE-7
       60     9833                MESSAGE:  Primitive processing already in progress.
       61     9834            */
       62     9835            %FATALDEF( NAME=XSS_F$EVNTERR, ERR#=%F$EVNTERR);
       63     9883            /*E*  ERROR:  XSS-F$EVNTERR-7
       64     9884                MESSAGE:  State machine requested wrong event.
       65     9885            */
       66     9886            %FATALDEF( NAME=XSS_F$NOSESS, ERR#=%F$NOSESS);
       67     9934            /*E*  ERROR:  XSS-F$NOSESS-7
       68     9935                MESSAGE:  No handler for this Session primitive.
       69     9936            */
PL6.E3A0      #001=XSS$MACHINE File=XSS$MACHINE.:XSA1TSI                         WED 10/01/97 12:18 Page:157
       70     9937        %EQU TOKENS = %CHARTEXT( 'XSS$GENERIC.TOKENS');
       71     9938        %EQU ZROS = '000000000'B;
       72     9939        %EQU ONES = '111111111'B;
       73     9940
       74     9941    1       DCL XSS$BLKPTR ENTRY(2) ALTRET;
       75     9942    1       DCL XSS$BUFPTR ENTRY(2) ALTRET;
       76     9943    1       DCL XSS$CLOCK ENTRY(2);
       77     9944    1       DCL XSS$DUMPFPT ENTRY(1) OPTIONAL;
       78     9945    1       DCL XSS$ENCODE ENTRY(1) ALTRET;
       79     9946    1       DCL XSS$GETMEM ENTRY(3) ALTRET;
       80     9947    1       DCL XSS$RELCTX ENTRY(1) ALTRET;
       81     9948    1       DCL XSS$RELMEM ENTRY(1) ALTRET;
       82     9949    1       DCL XSS$SCREECH ENTRY(1);
       83     9950    1       DCL XSS$TSEND ENTRY(1) ALTRET;
       84     9951    1       DCL XSS$EVLOG ENTRY(2);
       85     9952
       86     9953    1       DCL XSS_TRACE SBIN SYMREF;
       87     9954
       88     9955    1       DCL I SBIN;
       89     9956    1       DCL SFPT$ PTR;
       90     9957            /* PRED, PINV, and CONTINUING used by the {IF/ELSE/END}PREDDO macros */
       91     9958    1       DCL ZPRED(0:2) SBIN;
       92     9959    1       DCL PRED(0:107) REDEF ZPRED BIT(1) UNAL;
       93     9960    1       DCL ZPINV(0:2) SBIN;
       94     9961    1       DCL PINV(0:107) REDEF ZPINV BIT(1) UNAL;
       95     9962    1       DCL CONTINUING BIT(1);
       96     9963        %EJECT;
PL6.E3A0      #001=XSS$MACHINE File=XSS$MACHINE.:XSA1TSI                         WED 10/01/97 12:18 Page:158
       97     9964        /************************************************************************
       98     9965        *                                                                       *
       99     9966        *       Various internal MACROs                                         *
      100     9967        *                                                                       *
      101     9968        ************************************************************************/
      102     9969        %MACRO EVENT( EV=0); /* generate an output event of the specified type */
      103     9970            CALL EVNT( EV) ALTRET( EVNTERR);
      104     9971        %MEND;
      105     9972        %MACRO INVALID; /* an illegal state/event combination has occurred */
      106     9973            CALL OOPS;
      107     9974        %MEND;
      108     9975        %EJECT;
PL6.E3A0      #001=XSS$MACHINE File=XSS$MACHINE.:XSA1TSI                         WED 10/01/97 12:18 Page:159
      109     9976        /************************************************************************
      110     9977        *                                                                       *
      111     9978        *       Set up to enter the Session state machine                       *
      112     9979        *                                                                       *
      113     9980        ************************************************************************/
      114     9981    1       CALL XSS$EVLOG( 'SS', VBLK.EVENT*512 + SCTX.SCID);

   9981  1 000002   200003 470500                    LDP0    @VBLK,,AUTO
         1 000003   000000 471500                    LDP1    0,,PR0
         1 000004   100015 236100                    LDQ     13,,PR1
         1 000005   000022 772000                    QRL     18
         1 000006   000777 376007                    ANQ     511,DL
         1 000007   200040 756100                    STQ     ZBLK+8,,AUTO
         1 000010   000001 236100                    LDQ     1,,PR0
         1 000011   000011 736000                    QLS     9
         1 000012   777000 376007                    ANQ     -512,DL
         1 000013   200040 036100                    ADLQ    ZBLK+8,,AUTO
         1 000014   200041 756100                    STQ     ZBLK+9,,AUTO
         1 000015   200041 631500                    EPPR1   ZBLK+9,,AUTO
         1 000016   200043 451500                    STP1    ZBLK+11,,AUTO
         1 000017   000001 236000 2                  LDQ     1
         1 000020   200042 756100                    STQ     ZBLK+10,,AUTO
         1 000021   200042 630500                    EPPR0   ZBLK+10,,AUTO
         1 000022   000000 631400 2                  EPPR1   0
         1 000023   000000 701000 xent               TSX1    XSS$EVLOG
         1 000024   000000 011000                    NOP     0

      115     9982            /* check for event loop on this connection.
      116     9983               (Would probably be caused by user application calling XSS$SESSION
      117     9984               directly from its Session handler procedure.  Cannot allow that.) */
      118     9985    1       I = SCTX.HISTX;

   9985  1 000025   200003 470500                    LDP0    @VBLK,,AUTO
         1 000026   000000 471500                    LDP1    0,,PR0
         1 000027   100000 236100                    LDQ     0,,PR1
         1 000030   000022 772000                    QRL     18
         1 000031   000777 376007                    ANQ     511,DL
PL6.E3A0      #001=XSS$MACHINE File=XSS$MACHINE.:XSA1TSI                         WED 10/01/97 12:18 Page:160
         1 000032   200004 756100                    STQ     I,,AUTO

      119     9986    1       IF SCTX.HIST.NXTST( I) = 511 THEN

   9986  1 000033   200004 235100                    LDA     I,,AUTO
         1 000034   000001 735000                    ALS     1
         1 000035   000100 101505                    MRL     fill='000'O
         1 000036   100020 200001                    ADSC9   16,A,PR1                 cn=1,n=1
         1 000037   200040 000004                    ADSC9   ZBLK+8,,AUTO             cn=0,n=4
         1 000040   200040 236100                    LDQ     ZBLK+8,,AUTO
         1 000041   000777 116007                    CMPQ    511,DL
         1 000042   000047 601000 1                  TNZ     s:9988

      120     9987    1           CALL XSS$SCREECH( XSS_F$CYCLE);

   9987  1 000043   000003 630400 2                  EPPR0   3
         1 000044   000002 631400 2                  EPPR1   2
         1 000045   000000 701000 xent               TSX1    XSS$SCREECH
         1 000046   000000 011000                    NOP     0

      121     9988    1       SFPT$ = VBLK.FPT$;

   9988  1 000047   200003 470500                    LDP0    @VBLK,,AUTO
         1 000050   000002 236100                    LDQ     2,,PR0
         1 000051   200005 756100                    STQ     SFPT$,,AUTO

      122     9989            /* update state/event history */
      123     9990    1       I = I + 1;

   9990  1 000052   200004 054100                    AOS     I,,AUTO

      124     9991    1       IF I > 7 THEN

   9991  1 000053   200004 235100                    LDA     I,,AUTO
         1 000054   000007 115007                    CMPA    7,DL
         1 000055   000057 604400 1                  TMOZ    s:9993

PL6.E3A0      #001=XSS$MACHINE File=XSS$MACHINE.:XSA1TSI                         WED 10/01/97 12:18 Page:161
      125     9992    1           I = 0;

   9992  1 000056   200004 450100                    STZ     I,,AUTO

      126     9993    1       SCTX.HISTX = I;

   9993  1 000057   000000 471500                    LDP1    0,,PR0
         1 000060   200004 236100                    LDQ     I,,AUTO
         1 000061   000022 736000                    QLS     18
         1 000062   100000 552120                    STBQ    0,'20'O,PR1

      127     9994    1       SCTX.HIST.EVENT( I) = VBLK.EVENT;

   9994  1 000063   000000 471500                    LDP1    0,,PR0
         1 000064   200004 235100                    LDA     I,,AUTO
         1 000065   000001 735000                    ALS     1
         1 000066   000105 100500                    MLR     fill='000'O
         1 000067   000001 600001                    ADSC9   1,,PR0                   cn=3,n=1
         1 000070   100020 000001                    ADSC9   16,A,PR1                 cn=0,n=1

      128     9995    1       SCTX.HIST.NXTST( I) = 511;  /* will be something legal before RETURN */

   9995  1 000071   000000 471500                    LDP1    0,,PR0
         1 000072   000105 101400                    MRL     fill='000'O
         1 000073   000004 000004 2                  ADSC9   4                        cn=0,n=4
         1 000074   100020 200001                    ADSC9   16,A,PR1                 cn=1,n=1

      129     9996        %SET INPRED = '0'B;  /* set up {IF/ELSE/END}PREDDO macro invocation check */
      130     9997            /* set predicate flags up */
      131     9998    1       ZPRED(0) = 0;  ZPRED(1) = 0;  ZPRED(2) = 0;

   9998  1 000075   200006 450100                    STZ     ZPRED,,AUTO

   9998  1 000076   200007 450100                    STZ     ZPRED+1,,AUTO

   9998  1 000077   200010 450100                    STZ     ZPRED+2,,AUTO

PL6.E3A0      #001=XSS$MACHINE File=XSS$MACHINE.:XSA1TSI                         WED 10/01/97 12:18 Page:162
      132     9999    1       ZPINV(0) = -1; ZPINV(1) = -1; ZPINV(2) = -1;

   9999  1 000100   000001 336007                    LCQ     1,DL
         1 000101   200011 756100                    STQ     ZPINV,,AUTO

   9999  1 000102   200012 756100                    STQ     ZPINV+1,,AUTO

   9999  1 000103   200013 756100                    STQ     ZPINV+2,,AUTO

      133    10000            /* fan out on the event and connection state */
      134    10001    2       DO CASE( VBLK.EVENT);

  10001  1 000104   000001 720100                    LXL0    1,,PR0
         1 000105   000777 360003                    ANX0    511,DU
         1 000106   000177 100003                    CMPX0   127,DU
         1 000107   000111 602010 1                  TNC     s:10001+5,X0
         1 000110   020063 710000 1                  TRA     s:41913
         1 000111   020063 710000 1                  TRA     s:41913
         1 000112   000310 710000 1                  TRA     s:10009
         1 000113   000404 710000 1                  TRA     s:10040
         1 000114   000514 710000 1                  TRA     s:10098
         1 000115   000743 710000 1                  TRA     s:10621
         1 000116   001034 710000 1                  TRA     s:10656
         1 000117   001220 710000 1                  TRA     s:11081
         1 000120   001370 710000 1                  TRA     s:11418
         1 000121   005433 710000 1                  TRA     s:19193
         1 000122   001560 710000 1                  TRA     s:11948
         1 000123   001744 710000 1                  TRA     s:12373
         1 000124   002114 710000 1                  TRA     s:12710
         1 000125   002252 710000 1                  TRA     s:12966
         1 000126   002410 710000 1                  TRA     s:13222
         1 000127   002520 710000 1                  TRA     s:13354
         1 000130   002607 710000 1                  TRA     s:13380
         1 000131   002736 710000 1                  TRA     s:13638
         1 000132   003125 710000 1                  TRA     s:14119
         1 000133   003331 710000 1                  TRA     s:14674
         1 000134   003647 710000 1                  TRA     s:15647
PL6.E3A0      #001=XSS$MACHINE File=XSS$MACHINE.:XSA1TSI                         WED 10/01/97 12:18 Page:163
         1 000135   004215 710000 1                  TRA     s:16731
         1 000136   004404 710000 1                  TRA     s:17204
         1 000137   004572 710000 1                  TRA     s:17591
         1 000140   005040 710000 1                  TRA     s:18556
         1 000141   005241 710000 1                  TRA     s:19028
         1 000142   005321 710000 1                  TRA     s:19054
         1 000143   005433 710000 1                  TRA     s:19193
         1 000144   005747 710000 1                  TRA     s:20156
         1 000145   006145 710000 1                  TRA     s:20686
         1 000146   006433 710000 1                  TRA     s:21715
         1 000147   006623 710000 1                  TRA     s:22243
         1 000150   006751 710000 1                  TRA     s:22485
         1 000151   007026 710000 1                  TRA     s:22512
         1 000152   007106 710000 1                  TRA     s:22541
         1 000153   007264 710000 1                  TRA     s:22921
         1 000154   007410 710000 1                  TRA     s:23172
         1 000155   007572 710000 1                  TRA     s:23600
         1 000156   007661 710000 1                  TRA     s:23629
         1 000157   010012 710000 1                  TRA     s:23889
         1 000160   010470 710000 1                  TRA     s:25423
         1 000161   011232 710000 1                  TRA     s:27618
         1 000162   011674 710000 1                  TRA     s:29134
         1 000163   020035 710000 1                  TRA     s:41898
         1 000164   020063 710000 1                  TRA     s:41913
         1 000165   020063 710000 1                  TRA     s:41913
         1 000166   020063 710000 1                  TRA     s:41913
         1 000167   020063 710000 1                  TRA     s:41913
         1 000170   020063 710000 1                  TRA     s:41913
         1 000171   020063 710000 1                  TRA     s:41913
         1 000172   017720 710000 1                  TRA     s:41828
         1 000173   020063 710000 1                  TRA     s:41913
         1 000174   017677 710000 1                  TRA     s:41811
         1 000175   020063 710000 1                  TRA     s:41913
         1 000176   017743 710000 1                  TRA     s:41848
         1 000177   020063 710000 1                  TRA     s:41913
         1 000200   020063 710000 1                  TRA     s:41913
         1 000201   020063 710000 1                  TRA     s:41913
PL6.E3A0      #001=XSS$MACHINE File=XSS$MACHINE.:XSA1TSI                         WED 10/01/97 12:18 Page:164
         1 000202   020063 710000 1                  TRA     s:41913
         1 000203   020063 710000 1                  TRA     s:41913
         1 000204   020063 710000 1                  TRA     s:41913
         1 000205   020063 710000 1                  TRA     s:41913
         1 000206   020063 710000 1                  TRA     s:41913
         1 000207   020063 710000 1                  TRA     s:41913
         1 000210   020063 710000 1                  TRA     s:41913
         1 000211   012054 710000 1                  TRA     s:29580
         1 000212   020063 710000 1                  TRA     s:41913
         1 000213   012446 710000 1                  TRA     s:30613
         1 000214   020063 710000 1                  TRA     s:41913
         1 000215   012500 710000 1                  TRA     s:30637
         1 000216   020063 710000 1                  TRA     s:41913
         1 000217   012571 710000 1                  TRA     s:30875
         1 000220   020063 710000 1                  TRA     s:41913
         1 000221   012625 710000 1                  TRA     s:30902
         1 000222   020063 710000 1                  TRA     s:41913
         1 000223   013217 710000 1                  TRA     s:31935
         1 000224   020063 710000 1                  TRA     s:41913
         1 000225   013251 710000 1                  TRA     s:31959
         1 000226   020063 710000 1                  TRA     s:41913
         1 000227   013311 710000 1                  TRA     s:32087
         1 000230   020063 710000 1                  TRA     s:41913
         1 000231   013351 710000 1                  TRA     s:32215
         1 000232   020063 710000 1                  TRA     s:41913
         1 000233   013411 710000 1                  TRA     s:32338
         1 000234   020063 710000 1                  TRA     s:41913
         1 000235   013615 710000 1                  TRA     s:32755
         1 000236   020063 710000 1                  TRA     s:41913
         1 000237   013432 710000 1                  TRA     s:32355
         1 000240   020063 710000 1                  TRA     s:41913
         1 000241   013513 710000 1                  TRA     s:32487
         1 000242   020063 710000 1                  TRA     s:41913
         1 000243   013540 710000 1                  TRA     s:32519
         1 000244   020063 710000 1                  TRA     s:41913
         1 000245   013662 710000 1                  TRA     s:32882
         1 000246   020063 710000 1                  TRA     s:41913
PL6.E3A0      #001=XSS$MACHINE File=XSS$MACHINE.:XSA1TSI                         WED 10/01/97 12:18 Page:165
         1 000247   014030 710000 1                  TRA     s:33335
         1 000250   020063 710000 1                  TRA     s:41913
         1 000251   017002 710000 1                  TRA     s:40121
         1 000252   020063 710000 1                  TRA     s:41913
         1 000253   017164 710000 1                  TRA     s:40578
         1 000254   020063 710000 1                  TRA     s:41913
         1 000255   014146 710000 1                  TRA     s:33679
         1 000256   020063 710000 1                  TRA     s:41913
         1 000257   014363 710000 1                  TRA     s:34353
         1 000260   020063 710000 1                  TRA     s:41913
         1 000261   014513 710000 1                  TRA     s:34876
         1 000262   020063 710000 1                  TRA     s:41913
         1 000263   014553 710000 1                  TRA     s:34999
         1 000264   020063 710000 1                  TRA     s:41913
         1 000265   015200 710000 1                  TRA     s:36089
         1 000266   020063 710000 1                  TRA     s:41913
         1 000267   015621 710000 1                  TRA     s:37482
         1 000270   020063 710000 1                  TRA     s:41913
         1 000271   016321 710000 1                  TRA     s:38774
         1 000272   020063 710000 1                  TRA     s:41913
         1 000273   016376 710000 1                  TRA     s:38907
         1 000274   020063 710000 1                  TRA     s:41913
         1 000275   016467 710000 1                  TRA     s:39145
         1 000276   020063 710000 1                  TRA     s:41913
         1 000277   016531 710000 1                  TRA     s:39175
         1 000300   020063 710000 1                  TRA     s:41913
         1 000301   016614 710000 1                  TRA     s:39409
         1 000302   020063 710000 1                  TRA     s:41913
         1 000303   017262 710000 1                  TRA     s:40813
         1 000304   020063 710000 1                  TRA     s:41913
         1 000305   017404 710000 1                  TRA     s:41157
         1 000306   020063 710000 1                  TRA     s:41913
         1 000307   017575 710000 1                  TRA     s:41576

      135    10002        %EJECT;
PL6.E3A0      #001=XSS$MACHINE File=XSS$MACHINE.:XSA1TSI                         WED 10/01/97 12:18 Page:166
      136    10003        /*****************************************************************************
      137    10004        *
      138    10005        *       AA              ABORT ACCEPT SPDU
      139    10006        *
      140    10007        *****************************************************************************/
      141    10008    2           CASE( %XSS_SEV_AA);                             /* TABLE 53 */

      142    10009    3               DO CASE( SCTX.STATE);

  10009  1 000310   000000 471500                    LDP1    0,,PR0
         1 000311   100000 236100                    LDQ     0,,PR1
         1 000312   000033 772000                    QRL     27
         1 000313   000030 116007                    CMPQ    24,DL
         1 000314   000316 602006 1                  TNC     s:10009+6,QL
         1 000315   000401 710000 1                  TRA     s:10030
         1 000316   000401 710000 1                  TRA     s:10030
         1 000317   000401 710000 1                  TRA     s:10030
         1 000320   000346 710000 1                  TRA     s:10012
         1 000321   000401 710000 1                  TRA     s:10030
         1 000322   000355 710000 1                  TRA     s:10017
         1 000323   000401 710000 1                  TRA     s:10030
         1 000324   000401 710000 1                  TRA     s:10030
         1 000325   000401 710000 1                  TRA     s:10030
         1 000326   000401 710000 1                  TRA     s:10030
         1 000327   000401 710000 1                  TRA     s:10030
         1 000330   000401 710000 1                  TRA     s:10030
         1 000331   000401 710000 1                  TRA     s:10030
         1 000332   000401 710000 1                  TRA     s:10030
         1 000333   000401 710000 1                  TRA     s:10030
         1 000334   000401 710000 1                  TRA     s:10030
         1 000335   000401 710000 1                  TRA     s:10030
         1 000336   000401 710000 1                  TRA     s:10030
         1 000337   000401 710000 1                  TRA     s:10030
         1 000340   000401 710000 1                  TRA     s:10030
         1 000341   000401 710000 1                  TRA     s:10030
         1 000342   000401 710000 1                  TRA     s:10030
         1 000343   000401 710000 1                  TRA     s:10030
PL6.E3A0      #001=XSS$MACHINE File=XSS$MACHINE.:XSA1TSI                         WED 10/01/97 12:18 Page:167
         1 000344   000401 710000 1                  TRA     s:10030
         1 000345   000366 710000 1                  TRA     s:10022

      143    10010    3                   CASE( %XSS_SST_01A);

      144    10011                            %ACTION03;

  10012  1 000346   021034 701000 1                  TSX1    ACTION03
         1 000347   020067 702000 1                  TSX2    ACTIONERR

      145    10014    3                       SCTX.STATE = %XSS_SST_01C;

  10014  1 000350   200003 470500                    LDP0    @VBLK,,AUTO
         1 000351   000000 471500                    LDP1    0,,PR0
         1 000352   004000 236003                    LDQ     2048,DU
         1 000353   100000 552140                    STBQ    0,'40'O,PR1
         1 000354   020065 710000 1                  TRA     s:41916

      146    10015    3                   CASE( %XSS_SST_01C);

      147    10016                            %EVENT( EV=%XSS_SEV_TDISREQ);

  10017  1 000355   000006 236000 2                  LDQ     6
         1 000356   200021 756100                    STQ     CONTINUING+5,,AUTO
         1 000357   020166 701000 1                  TSX1    EVNT
         1 000360   020066 702000 1                  TSX2    EVNTERR

      148    10019    3                       SCTX.STATE = %XSS_SST_01;

  10019  1 000361   200003 470500                    LDP0    @VBLK,,AUTO
         1 000362   000000 471500                    LDP1    0,,PR0
         1 000363   001000 236003                    LDQ     512,DU
         1 000364   100000 552140                    STBQ    0,'40'O,PR1
         1 000365   020065 710000 1                  TRA     s:41916

      149    10020    3                   CASE( %XSS_SST_16);

PL6.E3A0      #001=XSS$MACHINE File=XSS$MACHINE.:XSA1TSI                         WED 10/01/97 12:18 Page:168
      150    10021                            %ACTION03;

  10022  1 000366   021034 701000 1                  TSX1    ACTION03
         1 000367   020067 702000 1                  TSX2    ACTIONERR

      151    10024                            %EVENT( EV=%XSS_SEV_TDISREQ);

  10025  1 000370   000006 236000 2                  LDQ     6
         1 000371   200021 756100                    STQ     CONTINUING+5,,AUTO
         1 000372   020166 701000 1                  TSX1    EVNT
         1 000373   020066 702000 1                  TSX2    EVNTERR

      152    10027    3                       SCTX.STATE = %XSS_SST_01;

  10027  1 000374   200003 470500                    LDP0    @VBLK,,AUTO
         1 000375   000000 471500                    LDP1    0,,PR0
         1 000376   001000 236003                    LDQ     512,DU
         1 000377   100000 552140                    STBQ    0,'40'O,PR1
         1 000400   020065 710000 1                  TRA     s:41916

      153    10028    3                   CASE( ELSE);

      154    10029                            %INVALID;

  10030  1 000401   020773 701000 1                  TSX1    OOPS
         1 000402   000000 011000                    NOP     0

      155    10032    3                   END;

  10032  1 000403   020065 710000 1                  TRA     s:41916

      156    10033        %EJECT;
PL6.E3A0      #001=XSS$MACHINE File=XSS$MACHINE.:XSA1TSI                         WED 10/01/97 12:18 Page:169
      157    10034        /*****************************************************************************
      158    10035        *
      159    10036        *       AB-nr           ABORT (NO REUSE) SPDU
      160    10037        *
      161    10038        *****************************************************************************/
      162    10039    2           CASE( %XSS_SEV_AB_NR);                          /* TABLE 53 */

      163    10040    3               DO CASE( SCTX.STATE);

  10040  1 000404   000000 471500                    LDP1    0,,PR0
         1 000405   100000 236100                    LDQ     0,,PR1
         1 000406   000033 772000                    QRL     27
         1 000407   000036 116007                    CMPQ    30,DL
         1 000410   000412 602006 1                  TNC     s:10040+6,QL
         1 000411   000511 710000 1                  TRA     s:10088
         1 000412   000511 710000 1                  TRA     s:10088
         1 000413   000511 710000 1                  TRA     s:10088
         1 000414   000450 710000 1                  TRA     s:10044
         1 000415   000511 710000 1                  TRA     s:10088
         1 000416   000463 710000 1                  TRA     s:10052
         1 000417   000474 710000 1                  TRA     s:10080
         1 000420   000474 710000 1                  TRA     s:10080
         1 000421   000474 710000 1                  TRA     s:10080
         1 000422   000474 710000 1                  TRA     s:10080
         1 000423   000474 710000 1                  TRA     s:10080
         1 000424   000474 710000 1                  TRA     s:10080
         1 000425   000474 710000 1                  TRA     s:10080
         1 000426   000474 710000 1                  TRA     s:10080
         1 000427   000474 710000 1                  TRA     s:10080
         1 000430   000474 710000 1                  TRA     s:10080
         1 000431   000474 710000 1                  TRA     s:10080
         1 000432   000474 710000 1                  TRA     s:10080
         1 000433   000474 710000 1                  TRA     s:10080
         1 000434   000474 710000 1                  TRA     s:10080
         1 000435   000474 710000 1                  TRA     s:10080
         1 000436   000474 710000 1                  TRA     s:10080
         1 000437   000474 710000 1                  TRA     s:10080
PL6.E3A0      #001=XSS$MACHINE File=XSS$MACHINE.:XSA1TSI                         WED 10/01/97 12:18 Page:170
         1 000440   000474 710000 1                  TRA     s:10080
         1 000441   000450 710000 1                  TRA     s:10044
         1 000442   000474 710000 1                  TRA     s:10080
         1 000443   000474 710000 1                  TRA     s:10080
         1 000444   000474 710000 1                  TRA     s:10080
         1 000445   000474 710000 1                  TRA     s:10080
         1 000446   000474 710000 1                  TRA     s:10080
         1 000447   000474 710000 1                  TRA     s:10080

      164    10041    3                   CASE( %XSS_SST_01A,

      165    10042    3                         %XSS_SST_16);
      166    10043                            %ACTION03;

  10044  1 000450   021034 701000 1                  TSX1    ACTION03
         1 000451   020067 702000 1                  TSX2    ACTIONERR

      167    10046                            %EVENT( EV=%XSS_SEV_TDISREQ);

  10047  1 000452   000006 236000 2                  LDQ     6
         1 000453   200021 756100                    STQ     CONTINUING+5,,AUTO
         1 000454   020166 701000 1                  TSX1    EVNT
         1 000455   020066 702000 1                  TSX2    EVNTERR

      168    10049    3                       SCTX.STATE = %XSS_SST_01;

  10049  1 000456   200003 470500                    LDP0    @VBLK,,AUTO
         1 000457   000000 471500                    LDP1    0,,PR0
         1 000460   001000 236003                    LDQ     512,DU
         1 000461   100000 552140                    STBQ    0,'40'O,PR1
         1 000462   020065 710000 1                  TRA     s:41916

      169    10050    3                   CASE( %XSS_SST_01C);

      170    10051                            %EVENT( EV=%XSS_SEV_TDISREQ);

  10052  1 000463   000006 236000 2                  LDQ     6
PL6.E3A0      #001=XSS$MACHINE File=XSS$MACHINE.:XSA1TSI                         WED 10/01/97 12:18 Page:171
         1 000464   200021 756100                    STQ     CONTINUING+5,,AUTO
         1 000465   020166 701000 1                  TSX1    EVNT
         1 000466   020066 702000 1                  TSX2    EVNTERR

      171    10054    3                       SCTX.STATE = %XSS_SST_01;

  10054  1 000467   200003 470500                    LDP0    @VBLK,,AUTO
         1 000470   000000 471500                    LDP1    0,,PR0
         1 000471   001000 236003                    LDQ     512,DU
         1 000472   100000 552140                    STBQ    0,'40'O,PR1
         1 000473   020065 710000 1                  TRA     s:41916

      172    10055    3                   CASE( %XSS_SST_02A,

      173    10056    3                         %XSS_SST_03,
      174    10057    3                         %XSS_SST_04A,
      175    10058    3                         %XSS_SST_04B,
      176    10059    3                         %XSS_SST_05A,
      177    10060    3                         %XSS_SST_05B,
      178    10061    3                         %XSS_SST_05C,
      179    10062    3                         %XSS_SST_06,
      180    10063    3                         %XSS_SST_08,
      181    10064    3                         %XSS_SST_09,
      182    10065    3                         %XSS_SST_10A,
      183    10066    3                         %XSS_SST_10B,
      184    10067    3                         %XSS_SST_11A,
      185    10068    3                         %XSS_SST_11B,
      186    10069    3                         %XSS_SST_11C,
      187    10070    3                         %XSS_SST_15A,
      188    10071    3                         %XSS_SST_15B,
      189    10072    3                         %XSS_SST_15C,
      190    10073    3                         %XSS_SST_18,
      191    10074    3                         %XSS_SST_19,
      192    10075    3                         %XSS_SST_20,
      193    10076    3                         %XSS_SST_21,
      194    10077    3                         %XSS_SST_22,
      195    10078    3                         %XSS_SST_713);
PL6.E3A0      #001=XSS$MACHINE File=XSS$MACHINE.:XSA1TSI                         WED 10/01/97 12:18 Page:172
      196    10079                            %EVENT( EV=%XSS_SEV_SXABIND);

  10080  1 000474   000010 236000 2                  LDQ     8
         1 000475   200021 756100                    STQ     CONTINUING+5,,AUTO
         1 000476   020166 701000 1                  TSX1    EVNT
         1 000477   020066 702000 1                  TSX2    EVNTERR

      197    10082                            %EVENT( EV=%XSS_SEV_TDISREQ);

  10083  1 000500   000006 236000 2                  LDQ     6
         1 000501   200021 756100                    STQ     CONTINUING+5,,AUTO
         1 000502   020166 701000 1                  TSX1    EVNT
         1 000503   020066 702000 1                  TSX2    EVNTERR

      198    10085    3                       SCTX.STATE = %XSS_SST_01;

  10085  1 000504   200003 470500                    LDP0    @VBLK,,AUTO
         1 000505   000000 471500                    LDP1    0,,PR0
         1 000506   001000 236003                    LDQ     512,DU
         1 000507   100000 552140                    STBQ    0,'40'O,PR1
         1 000510   020065 710000 1                  TRA     s:41916

      199    10086    3                   CASE( ELSE);

      200    10087                            %INVALID;

  10088  1 000511   020773 701000 1                  TSX1    OOPS
         1 000512   000000 011000                    NOP     0

      201    10090    3                   END;

  10090  1 000513   020065 710000 1                  TRA     s:41916

      202    10091        %EJECT;
PL6.E3A0      #001=XSS$MACHINE File=XSS$MACHINE.:XSA1TSI                         WED 10/01/97 12:18 Page:173
      203    10092        /*****************************************************************************
      204    10093        *
      205    10094        *       AB-r            ABORT (REUSE) SPDU
      206    10095        *
      207    10096        *****************************************************************************/
      208    10097    2           CASE( %XSS_SEV_AB_R);                           /* TABLE 53 */

      209    10098    3               DO CASE( SCTX.STATE);

  10098  1 000514   000000 471500                    LDP1    0,,PR0
         1 000515   100000 236100                    LDQ     0,,PR1
         1 000516   000033 772000                    QRL     27
         1 000517   000036 116007                    CMPQ    30,DL
         1 000520   000522 602006 1                  TNC     s:10098+6,QL
         1 000521   000740 710000 1                  TRA     s:10611
         1 000522   000740 710000 1                  TRA     s:10611
         1 000523   000740 710000 1                  TRA     s:10611
         1 000524   000560 710000 1                  TRA     s:10101
         1 000525   000740 710000 1                  TRA     s:10611
         1 000526   000567 710000 1                  TRA     s:10114
         1 000527   000655 710000 1                  TRA     s:10377
         1 000530   000655 710000 1                  TRA     s:10377
         1 000531   000655 710000 1                  TRA     s:10377
         1 000532   000655 710000 1                  TRA     s:10377
         1 000533   000655 710000 1                  TRA     s:10377
         1 000534   000655 710000 1                  TRA     s:10377
         1 000535   000655 710000 1                  TRA     s:10377
         1 000536   000740 710000 1                  TRA     s:10611
         1 000537   000655 710000 1                  TRA     s:10377
         1 000540   000655 710000 1                  TRA     s:10377
         1 000541   000655 710000 1                  TRA     s:10377
         1 000542   000655 710000 1                  TRA     s:10377
         1 000543   000655 710000 1                  TRA     s:10377
         1 000544   000655 710000 1                  TRA     s:10377
         1 000545   000655 710000 1                  TRA     s:10377
         1 000546   000740 710000 1                  TRA     s:10611
         1 000547   000740 710000 1                  TRA     s:10611
PL6.E3A0      #001=XSS$MACHINE File=XSS$MACHINE.:XSA1TSI                         WED 10/01/97 12:18 Page:174
         1 000550   000740 710000 1                  TRA     s:10611
         1 000551   000642 710000 1                  TRA     s:10342
         1 000552   000655 710000 1                  TRA     s:10377
         1 000553   000655 710000 1                  TRA     s:10377
         1 000554   000655 710000 1                  TRA     s:10377
         1 000555   000655 710000 1                  TRA     s:10377
         1 000556   000655 710000 1                  TRA     s:10377
         1 000557   000655 710000 1                  TRA     s:10377

      210    10099    3                   CASE( %XSS_SST_01A);

      211    10100                            %ACTION03;

  10101  1 000560   021034 701000 1                  TSX1    ACTION03
         1 000561   020067 702000 1                  TSX2    ACTIONERR

      212    10103    3                       SCTX.STATE = %XSS_SST_01C;

  10103  1 000562   200003 470500                    LDP0    @VBLK,,AUTO
         1 000563   000000 471500                    LDP1    0,,PR0
         1 000564   004000 236003                    LDQ     2048,DU
         1 000565   100000 552140                    STBQ    0,'40'O,PR1
         1 000566   020065 710000 1                  TRA     s:41916

      213    10104    3                   CASE( %XSS_SST_01C);

      214    10105                            %IFPREDDO( P="-02");

  10114  1 000567   400000 236003                    LDQ     -131072,DU
         1 000570   200014 756100                    STQ     CONTINUING,,AUTO

  10192  1 000571   200011 236100                    LDQ     ZPINV,,AUTO
         1 000572   100000 316003                    CANQ    32768,DU
         1 000573   000576 600000 1                  TZE     s:10202

  10192  1 000574   022153 701000 1                  TSX1    PRED02
         1 000575   020067 702000 1                  TSX2    ACTIONERR
PL6.E3A0      #001=XSS$MACHINE File=XSS$MACHINE.:XSA1TSI                         WED 10/01/97 12:18 Page:175

  10202  1 000576   200006 236100                    LDQ     ZPRED,,AUTO
         1 000577   100000 316003                    CANQ    32768,DU
         1 000600   000612 601000 1                  TNZ     s:10240

  10226  1 000601   200014 450100                    STZ     CONTINUING,,AUTO

      215    10228                                %EVENT( EV=%XSS_SEV_TDISREQ);

  10229  1 000602   000006 236000 2                  LDQ     6
         1 000603   200021 756100                    STQ     CONTINUING+5,,AUTO
         1 000604   020166 701000 1                  TSX1    EVNT
         1 000605   020066 702000 1                  TSX2    EVNTERR

      216    10231    4                           SCTX.STATE = %XSS_SST_01;

  10231  1 000606   200003 470500                    LDP0    @VBLK,,AUTO
         1 000607   000000 471500                    LDP1    0,,PR0
         1 000610   001000 236003                    LDQ     512,DU
         1 000611   100000 552140                    STBQ    0,'40'O,PR1

      217    10232    4                           END;

      218    10233                            %ELSEPREDDO( P="02");

  10240  1 000612   200014 234100                    SZN     CONTINUING,,AUTO
         1 000613   000635 605000 1                  TPL     s:10338

  10299  1 000614   200011 236100                    LDQ     ZPINV,,AUTO
         1 000615   100000 316003                    CANQ    32768,DU
         1 000616   000621 600000 1                  TZE     s:10309

  10299  1 000617   022153 701000 1                  TSX1    PRED02
         1 000620   020067 702000 1                  TSX2    ACTIONERR

  10309  1 000621   200006 236100                    LDQ     ZPRED,,AUTO
         1 000622   100000 316003                    CANQ    32768,DU
PL6.E3A0      #001=XSS$MACHINE File=XSS$MACHINE.:XSA1TSI                         WED 10/01/97 12:18 Page:176
         1 000623   000635 600000 1                  TZE     s:10338

  10328  1 000624   200014 450100                    STZ     CONTINUING,,AUTO

      219    10330                                %EVENT( EV=%XSS_SEV_AA);

  10331  1 000625   000012 236000 2                  LDQ     10
         1 000626   200021 756100                    STQ     CONTINUING+5,,AUTO
         1 000627   020166 701000 1                  TSX1    EVNT
         1 000630   020066 702000 1                  TSX2    EVNTERR

      220    10333    4                           SCTX.STATE = %XSS_SST_01C;

  10333  1 000631   200003 470500                    LDP0    @VBLK,,AUTO
         1 000632   000000 471500                    LDP1    0,,PR0
         1 000633   004000 236003                    LDQ     2048,DU
         1 000634   100000 552140                    STBQ    0,'40'O,PR1

      221    10334    4                           END;

      222    10335                            %ENDPREDDO;

  10338  1 000635   200014 234100                    SZN     CONTINUING,,AUTO
         1 000636   020065 605000 1                  TPL     s:41916

  10338  1 000637   020773 701000 1                  TSX1    OOPS
         1 000640   000000 011000                    NOP     0
         1 000641   020065 710000 1                  TRA     s:41916

      223    10340    3                   CASE( %XSS_SST_16);

      224    10341                            %ACTION03;

  10342  1 000642   021034 701000 1                  TSX1    ACTION03
         1 000643   020067 702000 1                  TSX2    ACTIONERR

      225    10344                            %EVENT( EV=%XSS_SEV_TDISREQ);
PL6.E3A0      #001=XSS$MACHINE File=XSS$MACHINE.:XSA1TSI                         WED 10/01/97 12:18 Page:177

  10345  1 000644   000006 236000 2                  LDQ     6
         1 000645   200021 756100                    STQ     CONTINUING+5,,AUTO
         1 000646   020166 701000 1                  TSX1    EVNT
         1 000647   020066 702000 1                  TSX2    EVNTERR

      226    10347    3                       SCTX.STATE = %XSS_SST_01;

  10347  1 000650   200003 470500                    LDP0    @VBLK,,AUTO
         1 000651   000000 471500                    LDP1    0,,PR0
         1 000652   001000 236003                    LDQ     512,DU
         1 000653   100000 552140                    STBQ    0,'40'O,PR1
         1 000654   020065 710000 1                  TRA     s:41916

      227    10348    3                   CASE( %XSS_SST_02A,

      228    10349    3                         %XSS_SST_03,
      229    10350    3                         %XSS_SST_04A,
      230    10351    3                         %XSS_SST_04B,
      231    10352    3                         %XSS_SST_05A,
      232    10353    3                         %XSS_SST_05B,
      233    10354    3                         %XSS_SST_05C,
      234    10355    3                         %XSS_SST_08,
      235    10356    3                         %XSS_SST_09,
      236    10357    3                         %XSS_SST_10A,
      237    10358    3                         %XSS_SST_10B,
      238    10359    3                         %XSS_SST_11A,
      239    10360    3                         %XSS_SST_11B,
      240    10361    3                         %XSS_SST_11C,
      241    10362    3                         %XSS_SST_18,
      242    10363    3                         %XSS_SST_19,
      243    10364    3                         %XSS_SST_20,
      244    10365    3                         %XSS_SST_21,
      245    10366    3                         %XSS_SST_22,
      246    10367    3                         %XSS_SST_713);
      247    10368                            %IFPREDDO( P="-02");

PL6.E3A0      #001=XSS$MACHINE File=XSS$MACHINE.:XSA1TSI                         WED 10/01/97 12:18 Page:178
  10377  1 000655   400000 236003                    LDQ     -131072,DU
         1 000656   200014 756100                    STQ     CONTINUING,,AUTO

  10455  1 000657   200011 236100                    LDQ     ZPINV,,AUTO
         1 000660   100000 316003                    CANQ    32768,DU
         1 000661   000664 600000 1                  TZE     s:10465

  10455  1 000662   022153 701000 1                  TSX1    PRED02
         1 000663   020067 702000 1                  TSX2    ACTIONERR

  10465  1 000664   200006 236100                    LDQ     ZPRED,,AUTO
         1 000665   100000 316003                    CANQ    32768,DU
         1 000666   000704 601000 1                  TNZ     s:10506

  10489  1 000667   200014 450100                    STZ     CONTINUING,,AUTO

      248    10491                                %EVENT( EV=%XSS_SEV_SXABIND);

  10492  1 000670   000010 236000 2                  LDQ     8
         1 000671   200021 756100                    STQ     CONTINUING+5,,AUTO
         1 000672   020166 701000 1                  TSX1    EVNT
         1 000673   020066 702000 1                  TSX2    EVNTERR

      249    10494                                %EVENT( EV=%XSS_SEV_TDISREQ);

  10495  1 000674   000006 236000 2                  LDQ     6
         1 000675   200021 756100                    STQ     CONTINUING+5,,AUTO
         1 000676   020166 701000 1                  TSX1    EVNT
         1 000677   020066 702000 1                  TSX2    EVNTERR

      250    10497    4                           SCTX.STATE = %XSS_SST_01;

  10497  1 000700   200003 470500                    LDP0    @VBLK,,AUTO
         1 000701   000000 471500                    LDP1    0,,PR0
         1 000702   001000 236003                    LDQ     512,DU
         1 000703   100000 552140                    STBQ    0,'40'O,PR1

PL6.E3A0      #001=XSS$MACHINE File=XSS$MACHINE.:XSA1TSI                         WED 10/01/97 12:18 Page:179
      251    10498    4                           END;

      252    10499                            %ELSEPREDDO( P="02");

  10506  1 000704   200014 234100                    SZN     CONTINUING,,AUTO
         1 000705   000733 605000 1                  TPL     s:10607

  10565  1 000706   200011 236100                    LDQ     ZPINV,,AUTO
         1 000707   100000 316003                    CANQ    32768,DU
         1 000710   000713 600000 1                  TZE     s:10575

  10565  1 000711   022153 701000 1                  TSX1    PRED02
         1 000712   020067 702000 1                  TSX2    ACTIONERR

  10575  1 000713   200006 236100                    LDQ     ZPRED,,AUTO
         1 000714   100000 316003                    CANQ    32768,DU
         1 000715   000733 600000 1                  TZE     s:10607

  10594  1 000716   200014 450100                    STZ     CONTINUING,,AUTO

      253    10596                                %EVENT( EV=%XSS_SEV_SXABIND);

  10597  1 000717   000010 236000 2                  LDQ     8
         1 000720   200021 756100                    STQ     CONTINUING+5,,AUTO
         1 000721   020166 701000 1                  TSX1    EVNT
         1 000722   020066 702000 1                  TSX2    EVNTERR

      254    10599                                %EVENT( EV=%XSS_SEV_AA);

  10600  1 000723   000012 236000 2                  LDQ     10
         1 000724   200021 756100                    STQ     CONTINUING+5,,AUTO
         1 000725   020166 701000 1                  TSX1    EVNT
         1 000726   020066 702000 1                  TSX2    EVNTERR

      255    10602    4                           SCTX.STATE = %XSS_SST_01C;

  10602  1 000727   200003 470500                    LDP0    @VBLK,,AUTO
PL6.E3A0      #001=XSS$MACHINE File=XSS$MACHINE.:XSA1TSI                         WED 10/01/97 12:18 Page:180
         1 000730   000000 471500                    LDP1    0,,PR0
         1 000731   004000 236003                    LDQ     2048,DU
         1 000732   100000 552140                    STBQ    0,'40'O,PR1

      256    10603    4                           END;

      257    10604                            %ENDPREDDO;

  10607  1 000733   200014 234100                    SZN     CONTINUING,,AUTO
         1 000734   020065 605000 1                  TPL     s:41916

  10607  1 000735   020773 701000 1                  TSX1    OOPS
         1 000736   000000 011000                    NOP     0
         1 000737   020065 710000 1                  TRA     s:41916

      258    10609    3                   CASE( ELSE);

      259    10610                            %INVALID;

  10611  1 000740   020773 701000 1                  TSX1    OOPS
         1 000741   000000 011000                    NOP     0

      260    10613    3                   END;

  10613  1 000742   020065 710000 1                  TRA     s:41916

      261    10614        %EJECT;
PL6.E3A0      #001=XSS$MACHINE File=XSS$MACHINE.:XSA1TSI                         WED 10/01/97 12:18 Page:181
      262    10615        /*****************************************************************************
      263    10616        *
      264    10617        *       AC              ACCEPT SPDU
      265    10618        *
      266    10619        *****************************************************************************/
      267    10620    2           CASE( %XSS_SEV_AC);                             /* TABLE 45 */

      268    10621    3               DO CASE( SCTX.STATE);

  10621  1 000743   000000 471500                    LDP1    0,,PR0
         1 000744   100000 236100                    LDQ     0,,PR1
         1 000745   000033 772000                    QRL     27
         1 000746   000030 116007                    CMPQ    24,DL
         1 000747   000751 602006 1                  TNC     s:10621+6,QL
         1 000750   001031 710000 1                  TRA     s:10646
         1 000751   001031 710000 1                  TRA     s:10646
         1 000752   001031 710000 1                  TRA     s:10646
         1 000753   001033 710000 1                  TRA     s:10648
         1 000754   001031 710000 1                  TRA     s:10646
         1 000755   001001 710000 1                  TRA     s:10627
         1 000756   001012 710000 1                  TRA     s:10632
         1 000757   001031 710000 1                  TRA     s:10646
         1 000760   001031 710000 1                  TRA     s:10646
         1 000761   001031 710000 1                  TRA     s:10646
         1 000762   001031 710000 1                  TRA     s:10646
         1 000763   001031 710000 1                  TRA     s:10646
         1 000764   001031 710000 1                  TRA     s:10646
         1 000765   001031 710000 1                  TRA     s:10646
         1 000766   001031 710000 1                  TRA     s:10646
         1 000767   001031 710000 1                  TRA     s:10646
         1 000770   001031 710000 1                  TRA     s:10646
         1 000771   001031 710000 1                  TRA     s:10646
         1 000772   001031 710000 1                  TRA     s:10646
         1 000773   001031 710000 1                  TRA     s:10646
         1 000774   001031 710000 1                  TRA     s:10646
         1 000775   001031 710000 1                  TRA     s:10646
         1 000776   001031 710000 1                  TRA     s:10646
PL6.E3A0      #001=XSS$MACHINE File=XSS$MACHINE.:XSA1TSI                         WED 10/01/97 12:18 Page:182
         1 000777   001031 710000 1                  TRA     s:10646
         1 001000   001033 710000 1                  TRA     s:10648

      269    10622    3                   CASE( %XSS_SST_01A,

      270    10623    3                         %XSS_SST_16);
      271    10624    3                       ;  /* don't do anything */
      272    10625    3                   CASE( %XSS_SST_01C);

      273    10626                            %EVENT( EV=%XSS_SEV_TDISREQ);

  10627  1 001001   000006 236000 2                  LDQ     6
         1 001002   200021 756100                    STQ     CONTINUING+5,,AUTO
         1 001003   020166 701000 1                  TSX1    EVNT
         1 001004   020066 702000 1                  TSX2    EVNTERR

      274    10629    3                       SCTX.STATE = %XSS_SST_01;

  10629  1 001005   200003 470500                    LDP0    @VBLK,,AUTO
         1 001006   000000 471500                    LDP1    0,,PR0
         1 001007   001000 236003                    LDQ     512,DU
         1 001010   100000 552140                    STBQ    0,'40'O,PR1
         1 001011   020065 710000 1                  TRA     s:41916

      275    10630    3                   CASE( %XSS_SST_02A);

      276    10631                            %EVENT( EV=%XSS_SEV_SCONCFP);

  10632  1 001012   000014 236000 2                  LDQ     12
         1 001013   200021 756100                    STQ     CONTINUING+5,,AUTO
         1 001014   020166 701000 1                  TSX1    EVNT
         1 001015   020066 702000 1                  TSX2    EVNTERR

      277    10634                            %ACTION05;

  10635  1 001016   021066 701000 1                  TSX1    ACTION05
         1 001017   020067 702000 1                  TSX2    ACTIONERR
PL6.E3A0      #001=XSS$MACHINE File=XSS$MACHINE.:XSA1TSI                         WED 10/01/97 12:18 Page:183

      278    10637                            %ACTION11;

  10638  1 001020   021364 701000 1                  TSX1    ACTION11
         1 001021   020067 702000 1                  TSX2    ACTIONERR

      279    10640    3                       SCTX.STATE = %XSS_SST_713;

  10640  1 001022   200003 470500                    LDP0    @VBLK,,AUTO
         1 001023   000000 471500                    LDP1    0,,PR0
         1 001024   035000 236003                    LDQ     14848,DU
         1 001025   100000 552140                    STBQ    0,'40'O,PR1

      280    10641                            %ACTION06;

  10642  1 001026   021255 701000 1                  TSX1    ACTION06
         1 001027   020067 702000 1                  TSX2    ACTIONERR
         1 001030   020065 710000 1                  TRA     s:41916

      281    10644    3                   CASE( ELSE);

      282    10645                            %INVALID;

  10646  1 001031   020773 701000 1                  TSX1    OOPS
         1 001032   000000 011000                    NOP     0

      283    10648    3                   END;

  10648  1 001033   020065 710000 1                  TRA     s:41916

      284    10649        %EJECT;
PL6.E3A0      #001=XSS$MACHINE File=XSS$MACHINE.:XSA1TSI                         WED 10/01/97 12:18 Page:184
      285    10650        /*****************************************************************************
      286    10651        *
      287    10652        *       AD              ACTIVITY DISCARD SPDU
      288    10653        *
      289    10654        *****************************************************************************/
      290    10655    2           CASE( %XSS_SEV_AD);                             /* TABLE 49 */

      291    10656    3               DO CASE( SCTX.STATE);

  10656  1 001034   000000 471500                    LDP1    0,,PR0
         1 001035   100000 236100                    LDQ     0,,PR1
         1 001036   000033 772000                    QRL     27
         1 001037   000036 116007                    CMPQ    30,DL
         1 001040   001042 602006 1                  TNC     s:10656+6,QL
         1 001041   001215 710000 1                  TRA     s:11071
         1 001042   001215 710000 1                  TRA     s:11071
         1 001043   001215 710000 1                  TRA     s:11071
         1 001044   001217 710000 1                  TRA     s:11073
         1 001045   001215 710000 1                  TRA     s:11071
         1 001046   001100 710000 1                  TRA     s:10662
         1 001047   001215 710000 1                  TRA     s:11071
         1 001050   001215 710000 1                  TRA     s:11071
         1 001051   001215 710000 1                  TRA     s:11071
         1 001052   001215 710000 1                  TRA     s:11071
         1 001053   001111 710000 1                  TRA     s:10680
         1 001054   001215 710000 1                  TRA     s:11071
         1 001055   001215 710000 1                  TRA     s:11071
         1 001056   001153 710000 1                  TRA     s:10880
         1 001057   001215 710000 1                  TRA     s:11071
         1 001060   001215 710000 1                  TRA     s:11071
         1 001061   001111 710000 1                  TRA     s:10680
         1 001062   001111 710000 1                  TRA     s:10680
         1 001063   001215 710000 1                  TRA     s:11071
         1 001064   001215 710000 1                  TRA     s:11071
         1 001065   001215 710000 1                  TRA     s:11071
         1 001066   001215 710000 1                  TRA     s:11071
         1 001067   001153 710000 1                  TRA     s:10880
PL6.E3A0      #001=XSS$MACHINE File=XSS$MACHINE.:XSA1TSI                         WED 10/01/97 12:18 Page:185
         1 001070   001215 710000 1                  TRA     s:11071
         1 001071   001217 710000 1                  TRA     s:11073
         1 001072   001215 710000 1                  TRA     s:11071
         1 001073   001111 710000 1                  TRA     s:10680
         1 001074   001111 710000 1                  TRA     s:10680
         1 001075   001215 710000 1                  TRA     s:11071
         1 001076   001215 710000 1                  TRA     s:11071
         1 001077   001111 710000 1                  TRA     s:10680

      292    10657    3                   CASE( %XSS_SST_01A,

      293    10658    3                         %XSS_SST_16);
      294    10659    3                       ;  /* don't do anything */
      295    10660    3                   CASE( %XSS_SST_01C);

      296    10661                            %EVENT( EV=%XSS_SEV_TDISREQ);

  10662  1 001100   000006 236000 2                  LDQ     6
         1 001101   200021 756100                    STQ     CONTINUING+5,,AUTO
         1 001102   020166 701000 1                  TSX1    EVNT
         1 001103   020066 702000 1                  TSX2    EVNTERR

      297    10664    3                       SCTX.STATE = %XSS_SST_01;

  10664  1 001104   200003 470500                    LDP0    @VBLK,,AUTO
         1 001105   000000 471500                    LDP1    0,,PR0
         1 001106   001000 236003                    LDQ     512,DU
         1 001107   100000 552140                    STBQ    0,'40'O,PR1
         1 001110   020065 710000 1                  TRA     s:41916

      298    10665    3                   CASE( %XSS_SST_05A,

      299    10666    3                         %XSS_SST_10A,
      300    10667    3                         %XSS_SST_10B,
      301    10668    3                         %XSS_SST_19,
      302    10669    3                         %XSS_SST_20,
      303    10670    3                         %XSS_SST_713);
PL6.E3A0      #001=XSS$MACHINE File=XSS$MACHINE.:XSA1TSI                         WED 10/01/97 12:18 Page:186
      304    10671                            %IFPREDDO( P="38&40");

  10680  1 001111   400000 236003                    LDQ     -131072,DU
         1 001112   200014 756100                    STQ     CONTINUING,,AUTO

  10726  1 001113   200012 236100                    LDQ     ZPINV+1,,AUTO
         1 001114   100000 316003                    CANQ    32768,DU
         1 001115   001120 600000 1                  TZE     s:10735

  10726  1 001116   023426 701000 1                  TSX1    PRED38
         1 001117   020067 702000 1                  TSX2    ACTIONERR

  10735  1 001120   200007 236100                    LDQ     ZPRED+1,,AUTO
         1 001121   100000 316003                    CANQ    32768,DU
         1 001122   001146 600000 1                  TZE     s:10867

  10810  1 001123   200012 236100                    LDQ     ZPINV+1,,AUTO
         1 001124   020000 316003                    CANQ    8192,DU
         1 001125   001130 600000 1                  TZE     s:10820

  10810  1 001126   023473 701000 1                  TSX1    PRED40
         1 001127   020067 702000 1                  TSX2    ACTIONERR

  10820  1 001130   200007 236100                    LDQ     ZPRED+1,,AUTO
         1 001131   020000 316003                    CANQ    8192,DU
         1 001132   001146 600000 1                  TZE     s:10867

  10854  1 001133   200014 450100                    STZ     CONTINUING,,AUTO

      305    10856                                %EVENT( EV=%XSS_SEV_SACDIND);

  10857  1 001134   000016 236000 2                  LDQ     14
         1 001135   200021 756100                    STQ     CONTINUING+5,,AUTO
         1 001136   020166 701000 1                  TSX1    EVNT
         1 001137   020066 702000 1                  TSX2    EVNTERR

      306    10859                                %ACTION16;
PL6.E3A0      #001=XSS$MACHINE File=XSS$MACHINE.:XSA1TSI                         WED 10/01/97 12:18 Page:187

  10860  1 001140   021557 701000 1                  TSX1    ACTION16
         1 001141   020067 702000 1                  TSX2    ACTIONERR

      307    10862    4                           SCTX.STATE = %XSS_SST_11C;

  10862  1 001142   200003 470500                    LDP0    @VBLK,,AUTO
         1 001143   000000 471500                    LDP1    0,,PR0
         1 001144   023000 236003                    LDQ     9728,DU
         1 001145   100000 552140                    STBQ    0,'40'O,PR1

      308    10863    4                           END;

      309    10864                            %ENDPREDDO;

  10867  1 001146   200014 234100                    SZN     CONTINUING,,AUTO
         1 001147   020065 605000 1                  TPL     s:41916

  10867  1 001150   020773 701000 1                  TSX1    OOPS
         1 001151   000000 011000                    NOP     0
         1 001152   020065 710000 1                  TRA     s:41916

      310    10869    3                   CASE( %XSS_SST_06,

      311    10870    3                         %XSS_SST_15B);
      312    10871                            %IFPREDDO( P="37&40");

  10880  1 001153   400000 236003                    LDQ     -131072,DU
         1 001154   200014 756100                    STQ     CONTINUING,,AUTO

  10926  1 001155   200012 236100                    LDQ     ZPINV+1,,AUTO
         1 001156   200000 316003                    CANQ    65536,DU
         1 001157   001162 600000 1                  TZE     s:10935

  10926  1 001160   023404 701000 1                  TSX1    PRED37
         1 001161   020067 702000 1                  TSX2    ACTIONERR

PL6.E3A0      #001=XSS$MACHINE File=XSS$MACHINE.:XSA1TSI                         WED 10/01/97 12:18 Page:188
  10935  1 001162   200007 236100                    LDQ     ZPRED+1,,AUTO
         1 001163   200000 316003                    CANQ    65536,DU
         1 001164   001210 600000 1                  TZE     s:11067

  11010  1 001165   200012 236100                    LDQ     ZPINV+1,,AUTO
         1 001166   020000 316003                    CANQ    8192,DU
         1 001167   001172 600000 1                  TZE     s:11020

  11010  1 001170   023473 701000 1                  TSX1    PRED40
         1 001171   020067 702000 1                  TSX2    ACTIONERR

  11020  1 001172   200007 236100                    LDQ     ZPRED+1,,AUTO
         1 001173   020000 316003                    CANQ    8192,DU
         1 001174   001210 600000 1                  TZE     s:11067

  11054  1 001175   200014 450100                    STZ     CONTINUING,,AUTO

      313    11056                                %EVENT( EV=%XSS_SEV_SACDIND);

  11057  1 001176   000016 236000 2                  LDQ     14
         1 001177   200021 756100                    STQ     CONTINUING+5,,AUTO
         1 001200   020166 701000 1                  TSX1    EVNT
         1 001201   020066 702000 1                  TSX2    EVNTERR

      314    11059                                %ACTION16;

  11060  1 001202   021557 701000 1                  TSX1    ACTION16
         1 001203   020067 702000 1                  TSX2    ACTIONERR

      315    11062    4                           SCTX.STATE = %XSS_SST_11C;

  11062  1 001204   200003 470500                    LDP0    @VBLK,,AUTO
         1 001205   000000 471500                    LDP1    0,,PR0
         1 001206   023000 236003                    LDQ     9728,DU
         1 001207   100000 552140                    STBQ    0,'40'O,PR1

      316    11063    4                           END;
PL6.E3A0      #001=XSS$MACHINE File=XSS$MACHINE.:XSA1TSI                         WED 10/01/97 12:18 Page:189

      317    11064                            %ENDPREDDO;

  11067  1 001210   200014 234100                    SZN     CONTINUING,,AUTO
         1 001211   020065 605000 1                  TPL     s:41916

  11067  1 001212   020773 701000 1                  TSX1    OOPS
         1 001213   000000 011000                    NOP     0
         1 001214   020065 710000 1                  TRA     s:41916

      318    11069    3                   CASE( ELSE);

      319    11070                            %INVALID;

  11071  1 001215   020773 701000 1                  TSX1    OOPS
         1 001216   000000 011000                    NOP     0

      320    11073    3                   END;

  11073  1 001217   020065 710000 1                  TRA     s:41916

      321    11074        %EJECT;
PL6.E3A0      #001=XSS$MACHINE File=XSS$MACHINE.:XSA1TSI                         WED 10/01/97 12:18 Page:190
      322    11075        /*****************************************************************************
      323    11076        *
      324    11077        *       ADA             ACTIVITY DISCARD ACK SPDU
      325    11078        *
      326    11079        *****************************************************************************/
      327    11080    2           CASE( %XSS_SEV_ADA);                            /* TABLE 49 */

      328    11081    3               DO CASE( SCTX.STATE);

  11081  1 001220   000000 471500                    LDP1    0,,PR0
         1 001221   100000 236100                    LDQ     0,,PR1
         1 001222   000033 772000                    QRL     27
         1 001223   000030 116007                    CMPQ    24,DL
         1 001224   001226 602006 1                  TNC     s:11081+6,QL
         1 001225   001365 710000 1                  TRA     s:11408
         1 001226   001365 710000 1                  TRA     s:11408
         1 001227   001365 710000 1                  TRA     s:11408
         1 001230   001367 710000 1                  TRA     s:11410
         1 001231   001365 710000 1                  TRA     s:11408
         1 001232   001256 710000 1                  TRA     s:11087
         1 001233   001365 710000 1                  TRA     s:11408
         1 001234   001365 710000 1                  TRA     s:11408
         1 001235   001365 710000 1                  TRA     s:11408
         1 001236   001365 710000 1                  TRA     s:11408
         1 001237   001365 710000 1                  TRA     s:11408
         1 001240   001365 710000 1                  TRA     s:11408
         1 001241   001267 710000 1                  TRA     s:11100
         1 001242   001365 710000 1                  TRA     s:11408
         1 001243   001365 710000 1                  TRA     s:11408
         1 001244   001365 710000 1                  TRA     s:11408
         1 001245   001365 710000 1                  TRA     s:11408
         1 001246   001365 710000 1                  TRA     s:11408
         1 001247   001365 710000 1                  TRA     s:11408
         1 001250   001365 710000 1                  TRA     s:11408
         1 001251   001365 710000 1                  TRA     s:11408
         1 001252   001365 710000 1                  TRA     s:11408
         1 001253   001365 710000 1                  TRA     s:11408
PL6.E3A0      #001=XSS$MACHINE File=XSS$MACHINE.:XSA1TSI                         WED 10/01/97 12:18 Page:191
         1 001254   001321 710000 1                  TRA     s:11214
         1 001255   001367 710000 1                  TRA     s:11410

      329    11082    3                   CASE( %XSS_SST_01A,

      330    11083    3                         %XSS_SST_16);
      331    11084    3                       ;  /* don't do anything */
      332    11085    3                   CASE( %XSS_SST_01C);

      333    11086                            %EVENT( EV=%XSS_SEV_TDISREQ);

  11087  1 001256   000006 236000 2                  LDQ     6
         1 001257   200021 756100                    STQ     CONTINUING+5,,AUTO
         1 001260   020166 701000 1                  TSX1    EVNT
         1 001261   020066 702000 1                  TSX2    EVNTERR

      334    11089    3                       SCTX.STATE = %XSS_SST_01;

  11089  1 001262   200003 470500                    LDP0    @VBLK,,AUTO
         1 001263   000000 471500                    LDP1    0,,PR0
         1 001264   001000 236003                    LDQ     512,DU
         1 001265   100000 552140                    STBQ    0,'40'O,PR1
         1 001266   020065 710000 1                  TRA     s:41916

      335    11090    3                   CASE( %XSS_SST_05C);

      336    11091                            %IFPREDDO( P="38");

  11100  1 001267   400000 236003                    LDQ     -131072,DU
         1 001270   200014 756100                    STQ     CONTINUING,,AUTO

  11160  1 001271   200012 236100                    LDQ     ZPINV+1,,AUTO
         1 001272   100000 316003                    CANQ    32768,DU
         1 001273   001276 600000 1                  TZE     s:11170

  11160  1 001274   023426 701000 1                  TSX1    PRED38
         1 001275   020067 702000 1                  TSX2    ACTIONERR
PL6.E3A0      #001=XSS$MACHINE File=XSS$MACHINE.:XSA1TSI                         WED 10/01/97 12:18 Page:192

  11170  1 001276   200007 236100                    LDQ     ZPRED+1,,AUTO
         1 001277   100000 316003                    CANQ    32768,DU
         1 001300   001314 600000 1                  TZE     s:11202

  11189  1 001301   200014 450100                    STZ     CONTINUING,,AUTO

      337    11191                                %EVENT( EV=%XSS_SEV_SACDCNF);

  11192  1 001302   000020 236000 2                  LDQ     16
         1 001303   200021 756100                    STQ     CONTINUING+5,,AUTO
         1 001304   020166 701000 1                  TSX1    EVNT
         1 001305   020066 702000 1                  TSX2    EVNTERR

      338    11194                                %ACTION29;

  11195  1 001306   022046 701000 1                  TSX1    ACTION29
         1 001307   020067 702000 1                  TSX2    ACTIONERR

      339    11197    4                           SCTX.STATE = %XSS_SST_713;

  11197  1 001310   200003 470500                    LDP0    @VBLK,,AUTO
         1 001311   000000 471500                    LDP1    0,,PR0
         1 001312   035000 236003                    LDQ     14848,DU
         1 001313   100000 552140                    STBQ    0,'40'O,PR1

      340    11198    4                           END;

      341    11199                            %ENDPREDDO;

  11202  1 001314   200014 234100                    SZN     CONTINUING,,AUTO
         1 001315   020065 605000 1                  TPL     s:41916

  11202  1 001316   020773 701000 1                  TSX1    OOPS
         1 001317   000000 011000                    NOP     0
         1 001320   020065 710000 1                  TRA     s:41916

PL6.E3A0      #001=XSS$MACHINE File=XSS$MACHINE.:XSA1TSI                         WED 10/01/97 12:18 Page:193
      342    11204    3                   CASE( %XSS_SST_15C);

      343    11205                            %IFPREDDO( P="37&41");

  11214  1 001321   400000 236003                    LDQ     -131072,DU
         1 001322   200014 756100                    STQ     CONTINUING,,AUTO

  11260  1 001323   200012 236100                    LDQ     ZPINV+1,,AUTO
         1 001324   200000 316003                    CANQ    65536,DU
         1 001325   001330 600000 1                  TZE     s:11269

  11260  1 001326   023404 701000 1                  TSX1    PRED37
         1 001327   020067 702000 1                  TSX2    ACTIONERR

  11269  1 001330   200007 236100                    LDQ     ZPRED+1,,AUTO
         1 001331   200000 316003                    CANQ    65536,DU
         1 001332   001360 600000 1                  TZE     s:11404

  11344  1 001333   200012 236100                    LDQ     ZPINV+1,,AUTO
         1 001334   010000 316003                    CANQ    4096,DU
         1 001335   001340 600000 1                  TZE     s:11354

  11344  1 001336   023506 701000 1                  TSX1    PRED41
         1 001337   020067 702000 1                  TSX2    ACTIONERR

  11354  1 001340   200007 236100                    LDQ     ZPRED+1,,AUTO
         1 001341   010000 316003                    CANQ    4096,DU
         1 001342   001360 600000 1                  TZE     s:11404

  11388  1 001343   200014 450100                    STZ     CONTINUING,,AUTO

      344    11390                                %EVENT( EV=%XSS_SEV_SACDCNF);

  11391  1 001344   000020 236000 2                  LDQ     16
         1 001345   200021 756100                    STQ     CONTINUING+5,,AUTO
         1 001346   020166 701000 1                  TSX1    EVNT
         1 001347   020066 702000 1                  TSX2    EVNTERR
PL6.E3A0      #001=XSS$MACHINE File=XSS$MACHINE.:XSA1TSI                         WED 10/01/97 12:18 Page:194

      345    11393                                %ACTION29;

  11394  1 001350   022046 701000 1                  TSX1    ACTION29
         1 001351   020067 702000 1                  TSX2    ACTIONERR

      346    11396    4                           SCTX.STATE = %XSS_SST_713;

  11396  1 001352   200003 470500                    LDP0    @VBLK,,AUTO
         1 001353   000000 471500                    LDP1    0,,PR0
         1 001354   035000 236003                    LDQ     14848,DU
         1 001355   100000 552140                    STBQ    0,'40'O,PR1

      347    11397                                %ACTION06;

  11398  1 001356   021255 701000 1                  TSX1    ACTION06
         1 001357   020067 702000 1                  TSX2    ACTIONERR

      348    11400    4                           END;

      349    11401                            %ENDPREDDO;

  11404  1 001360   200014 234100                    SZN     CONTINUING,,AUTO
         1 001361   020065 605000 1                  TPL     s:41916

  11404  1 001362   020773 701000 1                  TSX1    OOPS
         1 001363   000000 011000                    NOP     0
         1 001364   020065 710000 1                  TRA     s:41916

      350    11406    3                   CASE( ELSE);

      351    11407                            %INVALID;

  11408  1 001365   020773 701000 1                  TSX1    OOPS
         1 001366   000000 011000                    NOP     0

      352    11410    3                   END;
PL6.E3A0      #001=XSS$MACHINE File=XSS$MACHINE.:XSA1TSI                         WED 10/01/97 12:18 Page:195

  11410  1 001367   020065 710000 1                  TRA     s:41916

      353    11411        %EJECT;
PL6.E3A0      #001=XSS$MACHINE File=XSS$MACHINE.:XSA1TSI                         WED 10/01/97 12:18 Page:196
      354    11412        /*****************************************************************************
      355    11413        *
      356    11414        *       AE              ACTIVITY END SPDU
      357    11415        *
      358    11416        *****************************************************************************/
      359    11417    2           CASE( %XSS_SEV_AE);                             /* TABLE 47 */

      360    11418    3               DO CASE( SCTX.STATE);

  11418  1 001370   000000 471500                    LDP1    0,,PR0
         1 001371   100000 236100                    LDQ     0,,PR1
         1 001372   000033 772000                    QRL     27
         1 001373   000036 116007                    CMPQ    30,DL
         1 001374   001376 602006 1                  TNC     s:11418+6,QL
         1 001375   001555 710000 1                  TRA     s:11938
         1 001376   001555 710000 1                  TRA     s:11938
         1 001377   001555 710000 1                  TRA     s:11938
         1 001400   001557 710000 1                  TRA     s:11940
         1 001401   001555 710000 1                  TRA     s:11938
         1 001402   001434 710000 1                  TRA     s:11424
         1 001403   001555 710000 1                  TRA     s:11938
         1 001404   001555 710000 1                  TRA     s:11938
         1 001405   001555 710000 1                  TRA     s:11938
         1 001406   001555 710000 1                  TRA     s:11938
         1 001407   001445 710000 1                  TRA     s:11440
         1 001410   001555 710000 1                  TRA     s:11938
         1 001411   001555 710000 1                  TRA     s:11938
         1 001412   001445 710000 1                  TRA     s:11440
         1 001413   001555 710000 1                  TRA     s:11938
         1 001414   001555 710000 1                  TRA     s:11938
         1 001415   001555 710000 1                  TRA     s:11938
         1 001416   001555 710000 1                  TRA     s:11938
         1 001417   001555 710000 1                  TRA     s:11938
         1 001420   001555 710000 1                  TRA     s:11938
         1 001421   001555 710000 1                  TRA     s:11938
         1 001422   001555 710000 1                  TRA     s:11938
         1 001423   001445 710000 1                  TRA     s:11440
PL6.E3A0      #001=XSS$MACHINE File=XSS$MACHINE.:XSA1TSI                         WED 10/01/97 12:18 Page:197
         1 001424   001445 710000 1                  TRA     s:11440
         1 001425   001557 710000 1                  TRA     s:11940
         1 001426   001555 710000 1                  TRA     s:11938
         1 001427   001463 710000 1                  TRA     s:11549
         1 001430   001463 710000 1                  TRA     s:11549
         1 001431   001555 710000 1                  TRA     s:11938
         1 001432   001555 710000 1                  TRA     s:11938
         1 001433   001513 710000 1                  TRA     s:11744

      361    11419    3                   CASE( %XSS_SST_01A,

      362    11420    3                         %XSS_SST_16);
      363    11421    3                       ;  /* don't do anything */
      364    11422    3                   CASE( %XSS_SST_01C);

      365    11423                            %EVENT( EV=%XSS_SEV_TDISREQ);

  11424  1 001434   000006 236000 2                  LDQ     6
         1 001435   200021 756100                    STQ     CONTINUING+5,,AUTO
         1 001436   020166 701000 1                  TSX1    EVNT
         1 001437   020066 702000 1                  TSX2    EVNTERR

      366    11426    3                       SCTX.STATE = %XSS_SST_01;

  11426  1 001440   200003 470500                    LDP0    @VBLK,,AUTO
         1 001441   000000 471500                    LDP1    0,,PR0
         1 001442   001000 236003                    LDQ     512,DU
         1 001443   100000 552140                    STBQ    0,'40'O,PR1
         1 001444   020065 710000 1                  TRA     s:41916

      367    11427    3                   CASE( %XSS_SST_05A,

      368    11428    3                         %XSS_SST_06,
      369    11429    3                         %XSS_SST_15B,
      370    11430    3                         %XSS_SST_15C);
      371    11431                            %IFPREDDO( P="72");

PL6.E3A0      #001=XSS$MACHINE File=XSS$MACHINE.:XSA1TSI                         WED 10/01/97 12:18 Page:198
  11440  1 001445   400000 236003                    LDQ     -131072,DU
         1 001446   200014 756100                    STQ     CONTINUING,,AUTO

  11500  1 001447   200013 234100                    SZN     ZPINV+2,,AUTO
         1 001450   001453 605000 1                  TPL     s:11510

  11500  1 001451   025225 701000 1                  TSX1    PRED72
         1 001452   020067 702000 1                  TSX2    ACTIONERR

  11510  1 001453   200010 234100                    SZN     ZPRED+2,,AUTO
         1 001454   001456 605000 1                  TPL     s:11536

  11529  1 001455   200014 450100                    STZ     CONTINUING,,AUTO

      372    11531    4                           ;  /* don't do anything */
      373    11532    4                           END;

      374    11533                            %ENDPREDDO;

  11536  1 001456   200014 234100                    SZN     CONTINUING,,AUTO
         1 001457   020065 605000 1                  TPL     s:41916

  11536  1 001460   020773 701000 1                  TSX1    OOPS
         1 001461   000000 011000                    NOP     0
         1 001462   020065 710000 1                  TRA     s:41916

      375    11538    3                   CASE( %XSS_SST_19,

      376    11539    3                         %XSS_SST_20);
      377    11540                            %IFPREDDO( P="72&19");

  11549  1 001463   400000 236003                    LDQ     -131072,DU
         1 001464   200014 756100                    STQ     CONTINUING,,AUTO

  11595  1 001465   200013 234100                    SZN     ZPINV+2,,AUTO
         1 001466   001471 605000 1                  TPL     s:11604

PL6.E3A0      #001=XSS$MACHINE File=XSS$MACHINE.:XSA1TSI                         WED 10/01/97 12:18 Page:199
  11595  1 001467   025225 701000 1                  TSX1    PRED72
         1 001470   020067 702000 1                  TSX2    ACTIONERR

  11604  1 001471   200010 234100                    SZN     ZPRED+2,,AUTO
         1 001472   001506 605000 1                  TPL     s:11732

  11679  1 001473   200011 236100                    LDQ     ZPINV,,AUTO
         1 001474   200000 316007                    CANQ    65536,DL
         1 001475   001500 600000 1                  TZE     s:11689

  11679  1 001476   022766 701000 1                  TSX1    PRED19
         1 001477   020067 702000 1                  TSX2    ACTIONERR

  11689  1 001500   200006 236100                    LDQ     ZPRED,,AUTO
         1 001501   200000 316007                    CANQ    65536,DL
         1 001502   001506 600000 1                  TZE     s:11732

  11723  1 001503   200014 450100                    STZ     CONTINUING,,AUTO

      378    11725                                %ACTION31;

  11726  1 001504   022103 701000 1                  TSX1    ACTION31
         1 001505   020067 702000 1                  TSX2    ACTIONERR

      379    11728    4                           END;

      380    11729                            %ENDPREDDO;

  11732  1 001506   200014 234100                    SZN     CONTINUING,,AUTO
         1 001507   020065 605000 1                  TPL     s:41916

  11732  1 001510   020773 701000 1                  TSX1    OOPS
         1 001511   000000 011000                    NOP     0
         1 001512   020065 710000 1                  TRA     s:41916

      381    11734    3                   CASE( %XSS_SST_713);

PL6.E3A0      #001=XSS$MACHINE File=XSS$MACHINE.:XSA1TSI                         WED 10/01/97 12:18 Page:200
      382    11735                            %IFPREDDO( P="72&19");

  11744  1 001513   400000 236003                    LDQ     -131072,DU
         1 001514   200014 756100                    STQ     CONTINUING,,AUTO

  11790  1 001515   200013 234100                    SZN     ZPINV+2,,AUTO
         1 001516   001521 605000 1                  TPL     s:11799

  11790  1 001517   025225 701000 1                  TSX1    PRED72
         1 001520   020067 702000 1                  TSX2    ACTIONERR

  11799  1 001521   200010 234100                    SZN     ZPRED+2,,AUTO
         1 001522   001550 605000 1                  TPL     s:11934

  11874  1 001523   200011 236100                    LDQ     ZPINV,,AUTO
         1 001524   200000 316007                    CANQ    65536,DL
         1 001525   001530 600000 1                  TZE     s:11884

  11874  1 001526   022766 701000 1                  TSX1    PRED19
         1 001527   020067 702000 1                  TSX2    ACTIONERR

  11884  1 001530   200006 236100                    LDQ     ZPRED,,AUTO
         1 001531   200000 316007                    CANQ    65536,DL
         1 001532   001550 600000 1                  TZE     s:11934

  11918  1 001533   200014 450100                    STZ     CONTINUING,,AUTO

      383    11920                                %EVENT( EV=%XSS_SEV_SACEIND);

  11921  1 001534   000022 236000 2                  LDQ     18
         1 001535   200021 756100                    STQ     CONTINUING+5,,AUTO
         1 001536   020166 701000 1                  TSX1    EVNT
         1 001537   020066 702000 1                  TSX2    EVNTERR

      384    11923                                %ACTION13;

  11924  1 001540   021525 701000 1                  TSX1    ACTION13
PL6.E3A0      #001=XSS$MACHINE File=XSS$MACHINE.:XSA1TSI                         WED 10/01/97 12:18 Page:201
         1 001541   020067 702000 1                  TSX2    ACTIONERR

      385    11926                                %ACTION31;

  11927  1 001542   022103 701000 1                  TSX1    ACTION31
         1 001543   020067 702000 1                  TSX2    ACTIONERR

      386    11929    4                           SCTX.STATE = %XSS_SST_10B;

  11929  1 001544   200003 470500                    LDP0    @VBLK,,AUTO
         1 001545   000000 471500                    LDP1    0,,PR0
         1 001546   020000 236003                    LDQ     8192,DU
         1 001547   100000 552140                    STBQ    0,'40'O,PR1

      387    11930    4                           END;

      388    11931                            %ENDPREDDO;

  11934  1 001550   200014 234100                    SZN     CONTINUING,,AUTO
         1 001551   020065 605000 1                  TPL     s:41916

  11934  1 001552   020773 701000 1                  TSX1    OOPS
         1 001553   000000 011000                    NOP     0
         1 001554   020065 710000 1                  TRA     s:41916

      389    11936    3                   CASE( ELSE);

      390    11937                            %INVALID;

  11938  1 001555   020773 701000 1                  TSX1    OOPS
         1 001556   000000 011000                    NOP     0

      391    11940    3                   END;

  11940  1 001557   020065 710000 1                  TRA     s:41916

      392    11941        %EJECT;
PL6.E3A0      #001=XSS$MACHINE File=XSS$MACHINE.:XSA1TSI                         WED 10/01/97 12:18 Page:202
      393    11942        /*****************************************************************************
      394    11943        *
      395    11944        *       AI              ACTIVITY INTERRUPT SPDU
      396    11945        *
      397    11946        *****************************************************************************/
      398    11947    2           CASE( %XSS_SEV_AI);                             /* TABLE 49 */

      399    11948    3               DO CASE( SCTX.STATE);

  11948  1 001560   000000 471500                    LDP1    0,,PR0
         1 001561   100000 236100                    LDQ     0,,PR1
         1 001562   000033 772000                    QRL     27
         1 001563   000036 116007                    CMPQ    30,DL
         1 001564   001566 602006 1                  TNC     s:11948+6,QL
         1 001565   001741 710000 1                  TRA     s:12363
         1 001566   001741 710000 1                  TRA     s:12363
         1 001567   001741 710000 1                  TRA     s:12363
         1 001570   001743 710000 1                  TRA     s:12365
         1 001571   001741 710000 1                  TRA     s:12363
         1 001572   001624 710000 1                  TRA     s:11954
         1 001573   001741 710000 1                  TRA     s:12363
         1 001574   001741 710000 1                  TRA     s:12363
         1 001575   001741 710000 1                  TRA     s:12363
         1 001576   001741 710000 1                  TRA     s:12363
         1 001577   001635 710000 1                  TRA     s:11972
         1 001600   001741 710000 1                  TRA     s:12363
         1 001601   001741 710000 1                  TRA     s:12363
         1 001602   001677 710000 1                  TRA     s:12172
         1 001603   001741 710000 1                  TRA     s:12363
         1 001604   001741 710000 1                  TRA     s:12363
         1 001605   001635 710000 1                  TRA     s:11972
         1 001606   001635 710000 1                  TRA     s:11972
         1 001607   001741 710000 1                  TRA     s:12363
         1 001610   001741 710000 1                  TRA     s:12363
         1 001611   001741 710000 1                  TRA     s:12363
         1 001612   001741 710000 1                  TRA     s:12363
         1 001613   001677 710000 1                  TRA     s:12172
PL6.E3A0      #001=XSS$MACHINE File=XSS$MACHINE.:XSA1TSI                         WED 10/01/97 12:18 Page:203
         1 001614   001741 710000 1                  TRA     s:12363
         1 001615   001743 710000 1                  TRA     s:12365
         1 001616   001741 710000 1                  TRA     s:12363
         1 001617   001635 710000 1                  TRA     s:11972
         1 001620   001635 710000 1                  TRA     s:11972
         1 001621   001741 710000 1                  TRA     s:12363
         1 001622   001741 710000 1                  TRA     s:12363
         1 001623   001635 710000 1                  TRA     s:11972

      400    11949    3                   CASE( %XSS_SST_01A,

      401    11950    3                         %XSS_SST_16);
      402    11951    3                       ;  /* don't do anything */
      403    11952    3                   CASE( %XSS_SST_01C);

      404    11953                            %EVENT( EV=%XSS_SEV_TDISREQ);

  11954  1 001624   000006 236000 2                  LDQ     6
         1 001625   200021 756100                    STQ     CONTINUING+5,,AUTO
         1 001626   020166 701000 1                  TSX1    EVNT
         1 001627   020066 702000 1                  TSX2    EVNTERR

      405    11956    3                       SCTX.STATE = %XSS_SST_01;

  11956  1 001630   200003 470500                    LDP0    @VBLK,,AUTO
         1 001631   000000 471500                    LDP1    0,,PR0
         1 001632   001000 236003                    LDQ     512,DU
         1 001633   100000 552140                    STBQ    0,'40'O,PR1
         1 001634   020065 710000 1                  TRA     s:41916

      406    11957    3                   CASE( %XSS_SST_05A,

      407    11958    3                         %XSS_SST_10A,
      408    11959    3                         %XSS_SST_10B,
      409    11960    3                         %XSS_SST_19,
      410    11961    3                         %XSS_SST_20,
      411    11962    3                         %XSS_SST_713);
PL6.E3A0      #001=XSS$MACHINE File=XSS$MACHINE.:XSA1TSI                         WED 10/01/97 12:18 Page:204
      412    11963                            %IFPREDDO( P="38&40");

  11972  1 001635   400000 236003                    LDQ     -131072,DU
         1 001636   200014 756100                    STQ     CONTINUING,,AUTO

  12018  1 001637   200012 236100                    LDQ     ZPINV+1,,AUTO
         1 001640   100000 316003                    CANQ    32768,DU
         1 001641   001644 600000 1                  TZE     s:12027

  12018  1 001642   023426 701000 1                  TSX1    PRED38
         1 001643   020067 702000 1                  TSX2    ACTIONERR

  12027  1 001644   200007 236100                    LDQ     ZPRED+1,,AUTO
         1 001645   100000 316003                    CANQ    32768,DU
         1 001646   001672 600000 1                  TZE     s:12159

  12102  1 001647   200012 236100                    LDQ     ZPINV+1,,AUTO
         1 001650   020000 316003                    CANQ    8192,DU
         1 001651   001654 600000 1                  TZE     s:12112

  12102  1 001652   023473 701000 1                  TSX1    PRED40
         1 001653   020067 702000 1                  TSX2    ACTIONERR

  12112  1 001654   200007 236100                    LDQ     ZPRED+1,,AUTO
         1 001655   020000 316003                    CANQ    8192,DU
         1 001656   001672 600000 1                  TZE     s:12159

  12146  1 001657   200014 450100                    STZ     CONTINUING,,AUTO

      413    12148                                %EVENT( EV=%XSS_SEV_SACIIND);

  12149  1 001660   000024 236000 2                  LDQ     20
         1 001661   200021 756100                    STQ     CONTINUING+5,,AUTO
         1 001662   020166 701000 1                  TSX1    EVNT
         1 001663   020066 702000 1                  TSX2    EVNTERR

      414    12151                                %ACTION16;
PL6.E3A0      #001=XSS$MACHINE File=XSS$MACHINE.:XSA1TSI                         WED 10/01/97 12:18 Page:205

  12152  1 001664   021557 701000 1                  TSX1    ACTION16
         1 001665   020067 702000 1                  TSX2    ACTIONERR

      415    12154    4                           SCTX.STATE = %XSS_SST_11B;

  12154  1 001666   200003 470500                    LDP0    @VBLK,,AUTO
         1 001667   000000 471500                    LDP1    0,,PR0
         1 001670   022000 236003                    LDQ     9216,DU
         1 001671   100000 552140                    STBQ    0,'40'O,PR1

      416    12155    4                           END;

      417    12156                            %ENDPREDDO;

  12159  1 001672   200014 234100                    SZN     CONTINUING,,AUTO
         1 001673   020065 605000 1                  TPL     s:41916

  12159  1 001674   020773 701000 1                  TSX1    OOPS
         1 001675   000000 011000                    NOP     0
         1 001676   020065 710000 1                  TRA     s:41916

      418    12161    3                   CASE( %XSS_SST_06,

      419    12162    3                         %XSS_SST_15B);
      420    12163                            %IFPREDDO( P="37&40");

  12172  1 001677   400000 236003                    LDQ     -131072,DU
         1 001700   200014 756100                    STQ     CONTINUING,,AUTO

  12218  1 001701   200012 236100                    LDQ     ZPINV+1,,AUTO
         1 001702   200000 316003                    CANQ    65536,DU
         1 001703   001706 600000 1                  TZE     s:12227

  12218  1 001704   023404 701000 1                  TSX1    PRED37
         1 001705   020067 702000 1                  TSX2    ACTIONERR

PL6.E3A0      #001=XSS$MACHINE File=XSS$MACHINE.:XSA1TSI                         WED 10/01/97 12:18 Page:206
  12227  1 001706   200007 236100                    LDQ     ZPRED+1,,AUTO
         1 001707   200000 316003                    CANQ    65536,DU
         1 001710   001734 600000 1                  TZE     s:12359

  12302  1 001711   200012 236100                    LDQ     ZPINV+1,,AUTO
         1 001712   020000 316003                    CANQ    8192,DU
         1 001713   001716 600000 1                  TZE     s:12312

  12302  1 001714   023473 701000 1                  TSX1    PRED40
         1 001715   020067 702000 1                  TSX2    ACTIONERR

  12312  1 001716   200007 236100                    LDQ     ZPRED+1,,AUTO
         1 001717   020000 316003                    CANQ    8192,DU
         1 001720   001734 600000 1                  TZE     s:12359

  12346  1 001721   200014 450100                    STZ     CONTINUING,,AUTO

      421    12348                                %EVENT( EV=%XSS_SEV_SACIIND);

  12349  1 001722   000024 236000 2                  LDQ     20
         1 001723   200021 756100                    STQ     CONTINUING+5,,AUTO
         1 001724   020166 701000 1                  TSX1    EVNT
         1 001725   020066 702000 1                  TSX2    EVNTERR

      422    12351                                %ACTION16;

  12352  1 001726   021557 701000 1                  TSX1    ACTION16
         1 001727   020067 702000 1                  TSX2    ACTIONERR

      423    12354    4                           SCTX.STATE = %XSS_SST_11B;

  12354  1 001730   200003 470500                    LDP0    @VBLK,,AUTO
         1 001731   000000 471500                    LDP1    0,,PR0
         1 001732   022000 236003                    LDQ     9216,DU
         1 001733   100000 552140                    STBQ    0,'40'O,PR1

      424    12355    4                           END;
PL6.E3A0      #001=XSS$MACHINE File=XSS$MACHINE.:XSA1TSI                         WED 10/01/97 12:18 Page:207

      425    12356                            %ENDPREDDO;

  12359  1 001734   200014 234100                    SZN     CONTINUING,,AUTO
         1 001735   020065 605000 1                  TPL     s:41916

  12359  1 001736   020773 701000 1                  TSX1    OOPS
         1 001737   000000 011000                    NOP     0
         1 001740   020065 710000 1                  TRA     s:41916

      426    12361    3                   CASE( ELSE);

      427    12362                            %INVALID;

  12363  1 001741   020773 701000 1                  TSX1    OOPS
         1 001742   000000 011000                    NOP     0

      428    12365    3                   END;

  12365  1 001743   020065 710000 1                  TRA     s:41916

      429    12366        %EJECT;
PL6.E3A0      #001=XSS$MACHINE File=XSS$MACHINE.:XSA1TSI                         WED 10/01/97 12:18 Page:208
      430    12367        /*****************************************************************************
      431    12368        *
      432    12369        *       AIA             ACTIVITY INTERRUPT ACK SPDU
      433    12370        *
      434    12371        *****************************************************************************/
      435    12372    2           CASE( %XSS_SEV_AIA);                            /* TABLE 49 */

      436    12373    3               DO CASE( SCTX.STATE);

  12373  1 001744   000000 471500                    LDP1    0,,PR0
         1 001745   100000 236100                    LDQ     0,,PR1
         1 001746   000033 772000                    QRL     27
         1 001747   000030 116007                    CMPQ    24,DL
         1 001750   001752 602006 1                  TNC     s:12373+6,QL
         1 001751   002111 710000 1                  TRA     s:12700
         1 001752   002111 710000 1                  TRA     s:12700
         1 001753   002111 710000 1                  TRA     s:12700
         1 001754   002113 710000 1                  TRA     s:12702
         1 001755   002111 710000 1                  TRA     s:12700
         1 001756   002002 710000 1                  TRA     s:12379
         1 001757   002111 710000 1                  TRA     s:12700
         1 001760   002111 710000 1                  TRA     s:12700
         1 001761   002111 710000 1                  TRA     s:12700
         1 001762   002111 710000 1                  TRA     s:12700
         1 001763   002111 710000 1                  TRA     s:12700
         1 001764   002013 710000 1                  TRA     s:12392
         1 001765   002111 710000 1                  TRA     s:12700
         1 001766   002111 710000 1                  TRA     s:12700
         1 001767   002111 710000 1                  TRA     s:12700
         1 001770   002111 710000 1                  TRA     s:12700
         1 001771   002111 710000 1                  TRA     s:12700
         1 001772   002111 710000 1                  TRA     s:12700
         1 001773   002111 710000 1                  TRA     s:12700
         1 001774   002111 710000 1                  TRA     s:12700
         1 001775   002111 710000 1                  TRA     s:12700
         1 001776   002111 710000 1                  TRA     s:12700
         1 001777   002111 710000 1                  TRA     s:12700
PL6.E3A0      #001=XSS$MACHINE File=XSS$MACHINE.:XSA1TSI                         WED 10/01/97 12:18 Page:209
         1 002000   002045 710000 1                  TRA     s:12506
         1 002001   002113 710000 1                  TRA     s:12702

      437    12374    3                   CASE( %XSS_SST_01A,

      438    12375    3                         %XSS_SST_16);
      439    12376    3                       ;  /* don't do anything */
      440    12377    3                   CASE( %XSS_SST_01C);

      441    12378                            %EVENT( EV=%XSS_SEV_TDISREQ);

  12379  1 002002   000006 236000 2                  LDQ     6
         1 002003   200021 756100                    STQ     CONTINUING+5,,AUTO
         1 002004   020166 701000 1                  TSX1    EVNT
         1 002005   020066 702000 1                  TSX2    EVNTERR

      442    12381    3                       SCTX.STATE = %XSS_SST_01;

  12381  1 002006   200003 470500                    LDP0    @VBLK,,AUTO
         1 002007   000000 471500                    LDP1    0,,PR0
         1 002010   001000 236003                    LDQ     512,DU
         1 002011   100000 552140                    STBQ    0,'40'O,PR1
         1 002012   020065 710000 1                  TRA     s:41916

      443    12382    3                   CASE( %XSS_SST_05B);

      444    12383                            %IFPREDDO( P="38");

  12392  1 002013   400000 236003                    LDQ     -131072,DU
         1 002014   200014 756100                    STQ     CONTINUING,,AUTO

  12452  1 002015   200012 236100                    LDQ     ZPINV+1,,AUTO
         1 002016   100000 316003                    CANQ    32768,DU
         1 002017   002022 600000 1                  TZE     s:12462

  12452  1 002020   023426 701000 1                  TSX1    PRED38
         1 002021   020067 702000 1                  TSX2    ACTIONERR
PL6.E3A0      #001=XSS$MACHINE File=XSS$MACHINE.:XSA1TSI                         WED 10/01/97 12:18 Page:210

  12462  1 002022   200007 236100                    LDQ     ZPRED+1,,AUTO
         1 002023   100000 316003                    CANQ    32768,DU
         1 002024   002040 600000 1                  TZE     s:12494

  12481  1 002025   200014 450100                    STZ     CONTINUING,,AUTO

      445    12483                                %EVENT( EV=%XSS_SEV_SACICNF);

  12484  1 002026   000026 236000 2                  LDQ     22
         1 002027   200021 756100                    STQ     CONTINUING+5,,AUTO
         1 002030   020166 701000 1                  TSX1    EVNT
         1 002031   020066 702000 1                  TSX2    EVNTERR

      446    12486                                %ACTION29;

  12487  1 002032   022046 701000 1                  TSX1    ACTION29
         1 002033   020067 702000 1                  TSX2    ACTIONERR

      447    12489    4                           SCTX.STATE = %XSS_SST_713;

  12489  1 002034   200003 470500                    LDP0    @VBLK,,AUTO
         1 002035   000000 471500                    LDP1    0,,PR0
         1 002036   035000 236003                    LDQ     14848,DU
         1 002037   100000 552140                    STBQ    0,'40'O,PR1

      448    12490    4                           END;

      449    12491                            %ENDPREDDO;

  12494  1 002040   200014 234100                    SZN     CONTINUING,,AUTO
         1 002041   020065 605000 1                  TPL     s:41916

  12494  1 002042   020773 701000 1                  TSX1    OOPS
         1 002043   000000 011000                    NOP     0
         1 002044   020065 710000 1                  TRA     s:41916

PL6.E3A0      #001=XSS$MACHINE File=XSS$MACHINE.:XSA1TSI                         WED 10/01/97 12:18 Page:211
      450    12496    3                   CASE( %XSS_SST_15C);

      451    12497                            %IFPREDDO( P="37&42");

  12506  1 002045   400000 236003                    LDQ     -131072,DU
         1 002046   200014 756100                    STQ     CONTINUING,,AUTO

  12552  1 002047   200012 236100                    LDQ     ZPINV+1,,AUTO
         1 002050   200000 316003                    CANQ    65536,DU
         1 002051   002054 600000 1                  TZE     s:12561

  12552  1 002052   023404 701000 1                  TSX1    PRED37
         1 002053   020067 702000 1                  TSX2    ACTIONERR

  12561  1 002054   200007 236100                    LDQ     ZPRED+1,,AUTO
         1 002055   200000 316003                    CANQ    65536,DU
         1 002056   002104 600000 1                  TZE     s:12696

  12636  1 002057   200012 236100                    LDQ     ZPINV+1,,AUTO
         1 002060   004000 316003                    CANQ    2048,DU
         1 002061   002064 600000 1                  TZE     s:12646

  12636  1 002062   023522 701000 1                  TSX1    PRED42
         1 002063   020067 702000 1                  TSX2    ACTIONERR

  12646  1 002064   200007 236100                    LDQ     ZPRED+1,,AUTO
         1 002065   004000 316003                    CANQ    2048,DU
         1 002066   002104 600000 1                  TZE     s:12696

  12680  1 002067   200014 450100                    STZ     CONTINUING,,AUTO

      452    12682                                %EVENT( EV=%XSS_SEV_SACICNF);

  12683  1 002070   000026 236000 2                  LDQ     22
         1 002071   200021 756100                    STQ     CONTINUING+5,,AUTO
         1 002072   020166 701000 1                  TSX1    EVNT
         1 002073   020066 702000 1                  TSX2    EVNTERR
PL6.E3A0      #001=XSS$MACHINE File=XSS$MACHINE.:XSA1TSI                         WED 10/01/97 12:18 Page:212

      453    12685                                %ACTION29;

  12686  1 002074   022046 701000 1                  TSX1    ACTION29
         1 002075   020067 702000 1                  TSX2    ACTIONERR

      454    12688    4                           SCTX.STATE = %XSS_SST_713;

  12688  1 002076   200003 470500                    LDP0    @VBLK,,AUTO
         1 002077   000000 471500                    LDP1    0,,PR0
         1 002100   035000 236003                    LDQ     14848,DU
         1 002101   100000 552140                    STBQ    0,'40'O,PR1

      455    12689                                %ACTION06;

  12690  1 002102   021255 701000 1                  TSX1    ACTION06
         1 002103   020067 702000 1                  TSX2    ACTIONERR

      456    12692    4                           END;

      457    12693                            %ENDPREDDO;

  12696  1 002104   200014 234100                    SZN     CONTINUING,,AUTO
         1 002105   020065 605000 1                  TPL     s:41916

  12696  1 002106   020773 701000 1                  TSX1    OOPS
         1 002107   000000 011000                    NOP     0
         1 002110   020065 710000 1                  TRA     s:41916

      458    12698    3                   CASE( ELSE);

      459    12699                            %INVALID;

  12700  1 002111   020773 701000 1                  TSX1    OOPS
         1 002112   000000 011000                    NOP     0

      460    12702    3                   END;
PL6.E3A0      #001=XSS$MACHINE File=XSS$MACHINE.:XSA1TSI                         WED 10/01/97 12:18 Page:213

  12702  1 002113   020065 710000 1                  TRA     s:41916

      461    12703        %EJECT;
PL6.E3A0      #001=XSS$MACHINE File=XSS$MACHINE.:XSA1TSI                         WED 10/01/97 12:18 Page:214
      462    12704        /*****************************************************************************
      463    12705        *
      464    12706        *       AR              ACTIVITY RESUME SPDU
      465    12707        *
      466    12708        *****************************************************************************/
      467    12709    2           CASE( %XSS_SEV_AR);                             /* TABLE 50 */

      468    12710    3               DO CASE( SCTX.STATE);

  12710  1 002114   000000 471500                    LDP1    0,,PR0
         1 002115   100000 236100                    LDQ     0,,PR1
         1 002116   000033 772000                    QRL     27
         1 002117   000036 116007                    CMPQ    30,DL
         1 002120   002122 602006 1                  TNC     s:12710+6,QL
         1 002121   002247 710000 1                  TRA     s:12956
         1 002122   002247 710000 1                  TRA     s:12956
         1 002123   002247 710000 1                  TRA     s:12956
         1 002124   002251 710000 1                  TRA     s:12958
         1 002125   002247 710000 1                  TRA     s:12956
         1 002126   002160 710000 1                  TRA     s:12716
         1 002127   002247 710000 1                  TRA     s:12956
         1 002130   002247 710000 1                  TRA     s:12956
         1 002131   002247 710000 1                  TRA     s:12956
         1 002132   002247 710000 1                  TRA     s:12956
         1 002133   002247 710000 1                  TRA     s:12956
         1 002134   002247 710000 1                  TRA     s:12956
         1 002135   002247 710000 1                  TRA     s:12956
         1 002136   002247 710000 1                  TRA     s:12956
         1 002137   002247 710000 1                  TRA     s:12956
         1 002140   002247 710000 1                  TRA     s:12956
         1 002141   002247 710000 1                  TRA     s:12956
         1 002142   002247 710000 1                  TRA     s:12956
         1 002143   002247 710000 1                  TRA     s:12956
         1 002144   002247 710000 1                  TRA     s:12956
         1 002145   002247 710000 1                  TRA     s:12956
         1 002146   002247 710000 1                  TRA     s:12956
         1 002147   002171 710000 1                  TRA     s:12729
PL6.E3A0      #001=XSS$MACHINE File=XSS$MACHINE.:XSA1TSI                         WED 10/01/97 12:18 Page:215
         1 002150   002247 710000 1                  TRA     s:12956
         1 002151   002251 710000 1                  TRA     s:12958
         1 002152   002247 710000 1                  TRA     s:12956
         1 002153   002247 710000 1                  TRA     s:12956
         1 002154   002247 710000 1                  TRA     s:12956
         1 002155   002247 710000 1                  TRA     s:12956
         1 002156   002247 710000 1                  TRA     s:12956
         1 002157   002217 710000 1                  TRA     s:12845

      469    12711    3                   CASE( %XSS_SST_01A,

      470    12712    3                         %XSS_SST_16);
      471    12713    3                       ;  /* don't do anything */
      472    12714    3                   CASE( %XSS_SST_01C);

      473    12715                            %EVENT( EV=%XSS_SEV_TDISREQ);

  12716  1 002160   000006 236000 2                  LDQ     6
         1 002161   200021 756100                    STQ     CONTINUING+5,,AUTO
         1 002162   020166 701000 1                  TSX1    EVNT
         1 002163   020066 702000 1                  TSX2    EVNTERR

      474    12718    3                       SCTX.STATE = %XSS_SST_01;

  12718  1 002164   200003 470500                    LDP0    @VBLK,,AUTO
         1 002165   000000 471500                    LDP1    0,,PR0
         1 002166   001000 236003                    LDQ     512,DU
         1 002167   100000 552140                    STBQ    0,'40'O,PR1
         1 002170   020065 710000 1                  TRA     s:41916

      475    12719    3                   CASE( %XSS_SST_15B);

      476    12720                            %IFPREDDO( P="44");

  12729  1 002171   400000 236003                    LDQ     -131072,DU
         1 002172   200014 756100                    STQ     CONTINUING,,AUTO

PL6.E3A0      #001=XSS$MACHINE File=XSS$MACHINE.:XSA1TSI                         WED 10/01/97 12:18 Page:216
  12789  1 002173   200012 430100                    FSZN    ZPINV+1,,AUTO
         1 002174   002177 605000 1                  TPL     s:12799

  12789  1 002175   023577 701000 1                  TSX1    PRED44
         1 002176   020067 702000 1                  TSX2    ACTIONERR

  12799  1 002177   200007 430100                    FSZN    ZPRED+1,,AUTO
         1 002200   002212 605000 1                  TPL     s:12833

  12818  1 002201   200014 450100                    STZ     CONTINUING,,AUTO

      477    12820                                %EVENT( EV=%XSS_SEV_SACRIND);

  12821  1 002202   000030 236000 2                  LDQ     24
         1 002203   200021 756100                    STQ     CONTINUING+5,,AUTO
         1 002204   020166 701000 1                  TSX1    EVNT
         1 002205   020066 702000 1                  TSX2    EVNTERR

      478    12823                                %ACTION12;

  12824  1 002206   021517 701000 1                  TSX1    ACTION12
         1 002207   020067 702000 1                  TSX2    ACTIONERR

      479    12826                                %ACTION27;

  12827  1 002210   022003 701000 1                  TSX1    ACTION27
         1 002211   020067 702000 1                  TSX2    ACTIONERR

      480    12829    4                           END;

      481    12830                            %ENDPREDDO;

  12833  1 002212   200014 234100                    SZN     CONTINUING,,AUTO
         1 002213   020065 605000 1                  TPL     s:41916

  12833  1 002214   020773 701000 1                  TSX1    OOPS
         1 002215   000000 011000                    NOP     0
PL6.E3A0      #001=XSS$MACHINE File=XSS$MACHINE.:XSA1TSI                         WED 10/01/97 12:18 Page:217
         1 002216   020065 710000 1                  TRA     s:41916

      482    12835    3                   CASE( %XSS_SST_713);

      483    12836                            %IFPREDDO( P="44");

  12845  1 002217   400000 236003                    LDQ     -131072,DU
         1 002220   200014 756100                    STQ     CONTINUING,,AUTO

  12905  1 002221   200012 430100                    FSZN    ZPINV+1,,AUTO
         1 002222   002225 605000 1                  TPL     s:12915

  12905  1 002223   023577 701000 1                  TSX1    PRED44
         1 002224   020067 702000 1                  TSX2    ACTIONERR

  12915  1 002225   200007 430100                    FSZN    ZPRED+1,,AUTO
         1 002226   002242 605000 1                  TPL     s:12952

  12934  1 002227   200014 450100                    STZ     CONTINUING,,AUTO

      484    12936                                %EVENT( EV=%XSS_SEV_SACRIND);

  12937  1 002230   000030 236000 2                  LDQ     24
         1 002231   200021 756100                    STQ     CONTINUING+5,,AUTO
         1 002232   020166 701000 1                  TSX1    EVNT
         1 002233   020066 702000 1                  TSX2    EVNTERR

      485    12939                                %ACTION12;

  12940  1 002234   021517 701000 1                  TSX1    ACTION12
         1 002235   020067 702000 1                  TSX2    ACTIONERR

      486    12942                                %ACTION27;

  12943  1 002236   022003 701000 1                  TSX1    ACTION27
         1 002237   020067 702000 1                  TSX2    ACTIONERR

PL6.E3A0      #001=XSS$MACHINE File=XSS$MACHINE.:XSA1TSI                         WED 10/01/97 12:18 Page:218
      487    12945                                %ACTION06;

  12946  1 002240   021255 701000 1                  TSX1    ACTION06
         1 002241   020067 702000 1                  TSX2    ACTIONERR

      488    12948    4                           END;

      489    12949                            %ENDPREDDO;

  12952  1 002242   200014 234100                    SZN     CONTINUING,,AUTO
         1 002243   020065 605000 1                  TPL     s:41916

  12952  1 002244   020773 701000 1                  TSX1    OOPS
         1 002245   000000 011000                    NOP     0
         1 002246   020065 710000 1                  TRA     s:41916

      490    12954    3                   CASE( ELSE);

      491    12955                            %INVALID;

  12956  1 002247   020773 701000 1                  TSX1    OOPS
         1 002250   000000 011000                    NOP     0

      492    12958    3                   END;

  12958  1 002251   020065 710000 1                  TRA     s:41916

      493    12959        %EJECT;
PL6.E3A0      #001=XSS$MACHINE File=XSS$MACHINE.:XSA1TSI                         WED 10/01/97 12:18 Page:219
      494    12960        /*****************************************************************************
      495    12961        *
      496    12962        *       AS              ACTIVITY START SPDU
      497    12963        *
      498    12964        *****************************************************************************/
      499    12965    2           CASE( %XSS_SEV_AS);                             /* TABLE 50 */

      500    12966    3               DO CASE( SCTX.STATE);

  12966  1 002252   000000 471500                    LDP1    0,,PR0
         1 002253   100000 236100                    LDQ     0,,PR1
         1 002254   000033 772000                    QRL     27
         1 002255   000036 116007                    CMPQ    30,DL
         1 002256   002260 602006 1                  TNC     s:12966+6,QL
         1 002257   002405 710000 1                  TRA     s:13212
         1 002260   002405 710000 1                  TRA     s:13212
         1 002261   002405 710000 1                  TRA     s:13212
         1 002262   002407 710000 1                  TRA     s:13214
         1 002263   002405 710000 1                  TRA     s:13212
         1 002264   002316 710000 1                  TRA     s:12972
         1 002265   002405 710000 1                  TRA     s:13212
         1 002266   002405 710000 1                  TRA     s:13212
         1 002267   002405 710000 1                  TRA     s:13212
         1 002270   002405 710000 1                  TRA     s:13212
         1 002271   002405 710000 1                  TRA     s:13212
         1 002272   002405 710000 1                  TRA     s:13212
         1 002273   002405 710000 1                  TRA     s:13212
         1 002274   002405 710000 1                  TRA     s:13212
         1 002275   002405 710000 1                  TRA     s:13212
         1 002276   002405 710000 1                  TRA     s:13212
         1 002277   002405 710000 1                  TRA     s:13212
         1 002300   002405 710000 1                  TRA     s:13212
         1 002301   002405 710000 1                  TRA     s:13212
         1 002302   002405 710000 1                  TRA     s:13212
         1 002303   002405 710000 1                  TRA     s:13212
         1 002304   002405 710000 1                  TRA     s:13212
         1 002305   002327 710000 1                  TRA     s:12985
PL6.E3A0      #001=XSS$MACHINE File=XSS$MACHINE.:XSA1TSI                         WED 10/01/97 12:18 Page:220
         1 002306   002405 710000 1                  TRA     s:13212
         1 002307   002407 710000 1                  TRA     s:13214
         1 002310   002405 710000 1                  TRA     s:13212
         1 002311   002405 710000 1                  TRA     s:13212
         1 002312   002405 710000 1                  TRA     s:13212
         1 002313   002405 710000 1                  TRA     s:13212
         1 002314   002405 710000 1                  TRA     s:13212
         1 002315   002355 710000 1                  TRA     s:13101

      501    12967    3                   CASE( %XSS_SST_01A,

      502    12968    3                         %XSS_SST_16);
      503    12969    3                       ;  /* don't do anything */
      504    12970    3                   CASE( %XSS_SST_01C);

      505    12971                            %EVENT( EV=%XSS_SEV_TDISREQ);

  12972  1 002316   000006 236000 2                  LDQ     6
         1 002317   200021 756100                    STQ     CONTINUING+5,,AUTO
         1 002320   020166 701000 1                  TSX1    EVNT
         1 002321   020066 702000 1                  TSX2    EVNTERR

      506    12974    3                       SCTX.STATE = %XSS_SST_01;

  12974  1 002322   200003 470500                    LDP0    @VBLK,,AUTO
         1 002323   000000 471500                    LDP1    0,,PR0
         1 002324   001000 236003                    LDQ     512,DU
         1 002325   100000 552140                    STBQ    0,'40'O,PR1
         1 002326   020065 710000 1                  TRA     s:41916

      507    12975    3                   CASE( %XSS_SST_15B);

      508    12976                            %IFPREDDO( P="44");

  12985  1 002327   400000 236003                    LDQ     -131072,DU
         1 002330   200014 756100                    STQ     CONTINUING,,AUTO

PL6.E3A0      #001=XSS$MACHINE File=XSS$MACHINE.:XSA1TSI                         WED 10/01/97 12:18 Page:221
  13045  1 002331   200012 430100                    FSZN    ZPINV+1,,AUTO
         1 002332   002335 605000 1                  TPL     s:13055

  13045  1 002333   023577 701000 1                  TSX1    PRED44
         1 002334   020067 702000 1                  TSX2    ACTIONERR

  13055  1 002335   200007 430100                    FSZN    ZPRED+1,,AUTO
         1 002336   002350 605000 1                  TPL     s:13089

  13074  1 002337   200014 450100                    STZ     CONTINUING,,AUTO

      509    13076                                %EVENT( EV=%XSS_SEV_SACSIND);

  13077  1 002340   000032 236000 2                  LDQ     26
         1 002341   200021 756100                    STQ     CONTINUING+5,,AUTO
         1 002342   020166 701000 1                  TSX1    EVNT
         1 002343   020066 702000 1                  TSX2    EVNTERR

      510    13079                                %ACTION12;

  13080  1 002344   021517 701000 1                  TSX1    ACTION12
         1 002345   020067 702000 1                  TSX2    ACTIONERR

      511    13082                                %ACTION26;

  13083  1 002346   021771 701000 1                  TSX1    ACTION26
         1 002347   020067 702000 1                  TSX2    ACTIONERR

      512    13085    4                           END;

      513    13086                            %ENDPREDDO;

  13089  1 002350   200014 234100                    SZN     CONTINUING,,AUTO
         1 002351   020065 605000 1                  TPL     s:41916

  13089  1 002352   020773 701000 1                  TSX1    OOPS
         1 002353   000000 011000                    NOP     0
PL6.E3A0      #001=XSS$MACHINE File=XSS$MACHINE.:XSA1TSI                         WED 10/01/97 12:18 Page:222
         1 002354   020065 710000 1                  TRA     s:41916

      514    13091    3                   CASE( %XSS_SST_713);

      515    13092                            %IFPREDDO( P="44");

  13101  1 002355   400000 236003                    LDQ     -131072,DU
         1 002356   200014 756100                    STQ     CONTINUING,,AUTO

  13161  1 002357   200012 430100                    FSZN    ZPINV+1,,AUTO
         1 002360   002363 605000 1                  TPL     s:13171

  13161  1 002361   023577 701000 1                  TSX1    PRED44
         1 002362   020067 702000 1                  TSX2    ACTIONERR

  13171  1 002363   200007 430100                    FSZN    ZPRED+1,,AUTO
         1 002364   002400 605000 1                  TPL     s:13208

  13190  1 002365   200014 450100                    STZ     CONTINUING,,AUTO

      516    13192                                %EVENT( EV=%XSS_SEV_SACSIND);

  13193  1 002366   000032 236000 2                  LDQ     26
         1 002367   200021 756100                    STQ     CONTINUING+5,,AUTO
         1 002370   020166 701000 1                  TSX1    EVNT
         1 002371   020066 702000 1                  TSX2    EVNTERR

      517    13195                                %ACTION12;

  13196  1 002372   021517 701000 1                  TSX1    ACTION12
         1 002373   020067 702000 1                  TSX2    ACTIONERR

      518    13198                                %ACTION26;

  13199  1 002374   021771 701000 1                  TSX1    ACTION26
         1 002375   020067 702000 1                  TSX2    ACTIONERR

PL6.E3A0      #001=XSS$MACHINE File=XSS$MACHINE.:XSA1TSI                         WED 10/01/97 12:18 Page:223
      519    13201                                %ACTION06;

  13202  1 002376   021255 701000 1                  TSX1    ACTION06
         1 002377   020067 702000 1                  TSX2    ACTIONERR

      520    13204    4                           END;

      521    13205                            %ENDPREDDO;

  13208  1 002400   200014 234100                    SZN     CONTINUING,,AUTO
         1 002401   020065 605000 1                  TPL     s:41916

  13208  1 002402   020773 701000 1                  TSX1    OOPS
         1 002403   000000 011000                    NOP     0
         1 002404   020065 710000 1                  TRA     s:41916

      522    13210    3                   CASE( ELSE);

      523    13211                            %INVALID;

  13212  1 002405   020773 701000 1                  TSX1    OOPS
         1 002406   000000 011000                    NOP     0

      524    13214    3                   END;

  13214  1 002407   020065 710000 1                  TRA     s:41916

      525    13215        %EJECT;
PL6.E3A0      #001=XSS$MACHINE File=XSS$MACHINE.:XSA1TSI                         WED 10/01/97 12:18 Page:224
      526    13216        /*****************************************************************************
      527    13217        *
      528    13218        *       CD              CAPABILITY DATA SPDU
      529    13219        *
      530    13220        *****************************************************************************/
      531    13221    2           CASE( %XSS_SEV_CD);                             /* TABLE 50 */

      532    13222    3               DO CASE( SCTX.STATE);

  13222  1 002410   000000 471500                    LDP1    0,,PR0
         1 002411   100000 236100                    LDQ     0,,PR1
         1 002412   000033 772000                    QRL     27
         1 002413   000036 116007                    CMPQ    30,DL
         1 002414   002416 602006 1                  TNC     s:13222+6,QL
         1 002415   002515 710000 1                  TRA     s:13344
         1 002416   002515 710000 1                  TRA     s:13344
         1 002417   002515 710000 1                  TRA     s:13344
         1 002420   002517 710000 1                  TRA     s:13346
         1 002421   002515 710000 1                  TRA     s:13344
         1 002422   002454 710000 1                  TRA     s:13228
         1 002423   002515 710000 1                  TRA     s:13344
         1 002424   002515 710000 1                  TRA     s:13344
         1 002425   002515 710000 1                  TRA     s:13344
         1 002426   002515 710000 1                  TRA     s:13344
         1 002427   002515 710000 1                  TRA     s:13344
         1 002430   002515 710000 1                  TRA     s:13344
         1 002431   002515 710000 1                  TRA     s:13344
         1 002432   002515 710000 1                  TRA     s:13344
         1 002433   002515 710000 1                  TRA     s:13344
         1 002434   002515 710000 1                  TRA     s:13344
         1 002435   002515 710000 1                  TRA     s:13344
         1 002436   002515 710000 1                  TRA     s:13344
         1 002437   002515 710000 1                  TRA     s:13344
         1 002440   002515 710000 1                  TRA     s:13344
         1 002441   002515 710000 1                  TRA     s:13344
         1 002442   002515 710000 1                  TRA     s:13344
         1 002443   002515 710000 1                  TRA     s:13344
PL6.E3A0      #001=XSS$MACHINE File=XSS$MACHINE.:XSA1TSI                         WED 10/01/97 12:18 Page:225
         1 002444   002515 710000 1                  TRA     s:13344
         1 002445   002517 710000 1                  TRA     s:13346
         1 002446   002515 710000 1                  TRA     s:13344
         1 002447   002515 710000 1                  TRA     s:13344
         1 002450   002515 710000 1                  TRA     s:13344
         1 002451   002515 710000 1                  TRA     s:13344
         1 002452   002515 710000 1                  TRA     s:13344
         1 002453   002465 710000 1                  TRA     s:13241

      533    13223    3                   CASE( %XSS_SST_01A,

      534    13224    3                         %XSS_SST_16);
      535    13225    3                       ;  /* don't do anything */
      536    13226    3                   CASE( %XSS_SST_01C);

      537    13227                            %EVENT( EV=%XSS_SEV_TDISREQ);

  13228  1 002454   000006 236000 2                  LDQ     6
         1 002455   200021 756100                    STQ     CONTINUING+5,,AUTO
         1 002456   020166 701000 1                  TSX1    EVNT
         1 002457   020066 702000 1                  TSX2    EVNTERR

      538    13230    3                       SCTX.STATE = %XSS_SST_01;

  13230  1 002460   200003 470500                    LDP0    @VBLK,,AUTO
         1 002461   000000 471500                    LDP1    0,,PR0
         1 002462   001000 236003                    LDQ     512,DU
         1 002463   100000 552140                    STBQ    0,'40'O,PR1
         1 002464   020065 710000 1                  TRA     s:41916

      539    13231    3                   CASE( %XSS_SST_713);

      540    13232                            %IFPREDDO( P="46");

  13241  1 002465   400000 236003                    LDQ     -131072,DU
         1 002466   200014 756100                    STQ     CONTINUING,,AUTO

PL6.E3A0      #001=XSS$MACHINE File=XSS$MACHINE.:XSA1TSI                         WED 10/01/97 12:18 Page:226
  13301  1 002467   200012 236100                    LDQ     ZPINV+1,,AUTO
         1 002470   000200 316003                    CANQ    128,DU
         1 002471   002474 600000 1                  TZE     s:13311

  13301  1 002472   023725 701000 1                  TSX1    PRED46
         1 002473   020067 702000 1                  TSX2    ACTIONERR

  13311  1 002474   200007 236100                    LDQ     ZPRED+1,,AUTO
         1 002475   000200 316003                    CANQ    128,DU
         1 002476   002510 600000 1                  TZE     s:13340

  13330  1 002477   200014 450100                    STZ     CONTINUING,,AUTO

      541    13332                                %EVENT( EV=%XSS_SEV_SCADIND);

  13333  1 002500   000034 236000 2                  LDQ     28
         1 002501   200021 756100                    STQ     CONTINUING+5,,AUTO
         1 002502   020166 701000 1                  TSX1    EVNT
         1 002503   020066 702000 1                  TSX2    EVNTERR

      542    13335    4                           SCTX.STATE = %XSS_SST_22;

  13335  1 002504   200003 470500                    LDP0    @VBLK,,AUTO
         1 002505   000000 471500                    LDP1    0,,PR0
         1 002506   034000 236003                    LDQ     14336,DU
         1 002507   100000 552140                    STBQ    0,'40'O,PR1

      543    13336    4                           END;

      544    13337                            %ENDPREDDO;

  13340  1 002510   200014 234100                    SZN     CONTINUING,,AUTO
         1 002511   020065 605000 1                  TPL     s:41916

  13340  1 002512   020773 701000 1                  TSX1    OOPS
         1 002513   000000 011000                    NOP     0
         1 002514   020065 710000 1                  TRA     s:41916
PL6.E3A0      #001=XSS$MACHINE File=XSS$MACHINE.:XSA1TSI                         WED 10/01/97 12:18 Page:227

      545    13342    3                   CASE( ELSE);

      546    13343                            %INVALID;

  13344  1 002515   020773 701000 1                  TSX1    OOPS
         1 002516   000000 011000                    NOP     0

      547    13346    3                   END;

  13346  1 002517   020065 710000 1                  TRA     s:41916

      548    13347        %EJECT;
PL6.E3A0      #001=XSS$MACHINE File=XSS$MACHINE.:XSA1TSI                         WED 10/01/97 12:18 Page:228
      549    13348        /*****************************************************************************
      550    13349        *
      551    13350        *       CDA             CAPABILITY DATA ACK SPDU
      552    13351        *
      553    13352        *****************************************************************************/
      554    13353    2           CASE( %XSS_SEV_CDA);                            /* TABLE 50 */

      555    13354    3               DO CASE( SCTX.STATE);

  13354  1 002520   000000 471500                    LDP1    0,,PR0
         1 002521   100000 236100                    LDQ     0,,PR1
         1 002522   000033 772000                    QRL     27
         1 002523   000034 116007                    CMPQ    28,DL
         1 002524   002526 602006 1                  TNC     s:13354+6,QL
         1 002525   002604 710000 1                  TRA     s:13370
         1 002526   002604 710000 1                  TRA     s:13370
         1 002527   002604 710000 1                  TRA     s:13370
         1 002530   002606 710000 1                  TRA     s:13372
         1 002531   002604 710000 1                  TRA     s:13370
         1 002532   002562 710000 1                  TRA     s:13360
         1 002533   002604 710000 1                  TRA     s:13370
         1 002534   002604 710000 1                  TRA     s:13370
         1 002535   002604 710000 1                  TRA     s:13370
         1 002536   002604 710000 1                  TRA     s:13370
         1 002537   002604 710000 1                  TRA     s:13370
         1 002540   002604 710000 1                  TRA     s:13370
         1 002541   002604 710000 1                  TRA     s:13370
         1 002542   002604 710000 1                  TRA     s:13370
         1 002543   002604 710000 1                  TRA     s:13370
         1 002544   002604 710000 1                  TRA     s:13370
         1 002545   002604 710000 1                  TRA     s:13370
         1 002546   002604 710000 1                  TRA     s:13370
         1 002547   002604 710000 1                  TRA     s:13370
         1 002550   002604 710000 1                  TRA     s:13370
         1 002551   002604 710000 1                  TRA     s:13370
         1 002552   002604 710000 1                  TRA     s:13370
         1 002553   002604 710000 1                  TRA     s:13370
PL6.E3A0      #001=XSS$MACHINE File=XSS$MACHINE.:XSA1TSI                         WED 10/01/97 12:18 Page:229
         1 002554   002604 710000 1                  TRA     s:13370
         1 002555   002606 710000 1                  TRA     s:13372
         1 002556   002604 710000 1                  TRA     s:13370
         1 002557   002604 710000 1                  TRA     s:13370
         1 002560   002604 710000 1                  TRA     s:13370
         1 002561   002573 710000 1                  TRA     s:13365

      556    13355    3                   CASE( %XSS_SST_01A,

      557    13356    3                         %XSS_SST_16);
      558    13357    3                       ;  /* don't do anything */
      559    13358    3                   CASE( %XSS_SST_01C);

      560    13359                            %EVENT( EV=%XSS_SEV_TDISREQ);

  13360  1 002562   000006 236000 2                  LDQ     6
         1 002563   200021 756100                    STQ     CONTINUING+5,,AUTO
         1 002564   020166 701000 1                  TSX1    EVNT
         1 002565   020066 702000 1                  TSX2    EVNTERR

      561    13362    3                       SCTX.STATE = %XSS_SST_01;

  13362  1 002566   200003 470500                    LDP0    @VBLK,,AUTO
         1 002567   000000 471500                    LDP1    0,,PR0
         1 002570   001000 236003                    LDQ     512,DU
         1 002571   100000 552140                    STBQ    0,'40'O,PR1
         1 002572   020065 710000 1                  TRA     s:41916

      562    13363    3                   CASE( %XSS_SST_21);

      563    13364                            %EVENT( EV=%XSS_SEV_SCADCNF);

  13365  1 002573   000036 236000 2                  LDQ     30
         1 002574   200021 756100                    STQ     CONTINUING+5,,AUTO
         1 002575   020166 701000 1                  TSX1    EVNT
         1 002576   020066 702000 1                  TSX2    EVNTERR

PL6.E3A0      #001=XSS$MACHINE File=XSS$MACHINE.:XSA1TSI                         WED 10/01/97 12:18 Page:230
      564    13367    3                       SCTX.STATE = %XSS_SST_713;

  13367  1 002577   200003 470500                    LDP0    @VBLK,,AUTO
         1 002600   000000 471500                    LDP1    0,,PR0
         1 002601   035000 236003                    LDQ     14848,DU
         1 002602   100000 552140                    STBQ    0,'40'O,PR1
         1 002603   020065 710000 1                  TRA     s:41916

      565    13368    3                   CASE( ELSE);

      566    13369                            %INVALID;

  13370  1 002604   020773 701000 1                  TSX1    OOPS
         1 002605   000000 011000                    NOP     0

      567    13372    3                   END;

  13372  1 002606   020065 710000 1                  TRA     s:41916

      568    13373        %EJECT;
PL6.E3A0      #001=XSS$MACHINE File=XSS$MACHINE.:XSA1TSI                         WED 10/01/97 12:18 Page:231
      569    13374        /*****************************************************************************
      570    13375        *
      571    13376        *       CN              CONNECT SPDU
      572    13377        *
      573    13378        *****************************************************************************/
      574    13379    2           CASE( %XSS_SEV_CN);                             /* TABLE 45 */

      575    13380    3               DO CASE( SCTX.STATE);

  13380  1 002607   000000 471500                    LDP1    0,,PR0
         1 002610   100000 236100                    LDQ     0,,PR1
         1 002611   000033 772000                    QRL     27
         1 002612   000030 116007                    CMPQ    24,DL
         1 002613   002615 602006 1                  TNC     s:13380+6,QL
         1 002614   002733 710000 1                  TRA     s:13628
         1 002615   002733 710000 1                  TRA     s:13628
         1 002616   002733 710000 1                  TRA     s:13628
         1 002617   002645 710000 1                  TRA     s:13384
         1 002620   002733 710000 1                  TRA     s:13628
         1 002621   002660 710000 1                  TRA     s:13400
         1 002622   002733 710000 1                  TRA     s:13628
         1 002623   002733 710000 1                  TRA     s:13628
         1 002624   002733 710000 1                  TRA     s:13628
         1 002625   002733 710000 1                  TRA     s:13628
         1 002626   002733 710000 1                  TRA     s:13628
         1 002627   002733 710000 1                  TRA     s:13628
         1 002630   002733 710000 1                  TRA     s:13628
         1 002631   002733 710000 1                  TRA     s:13628
         1 002632   002733 710000 1                  TRA     s:13628
         1 002633   002733 710000 1                  TRA     s:13628
         1 002634   002733 710000 1                  TRA     s:13628
         1 002635   002733 710000 1                  TRA     s:13628
         1 002636   002733 710000 1                  TRA     s:13628
         1 002637   002733 710000 1                  TRA     s:13628
         1 002640   002733 710000 1                  TRA     s:13628
         1 002641   002733 710000 1                  TRA     s:13628
         1 002642   002733 710000 1                  TRA     s:13628
PL6.E3A0      #001=XSS$MACHINE File=XSS$MACHINE.:XSA1TSI                         WED 10/01/97 12:18 Page:232
         1 002643   002733 710000 1                  TRA     s:13628
         1 002644   002645 710000 1                  TRA     s:13384

      576    13381    3                   CASE( %XSS_SST_01A,

      577    13382    3                         %XSS_SST_16);
      578    13383                            %EVENT( EV=%XSS_SEV_TDISREQ);

  13384  1 002645   000006 236000 2                  LDQ     6
         1 002646   200021 756100                    STQ     CONTINUING+5,,AUTO
         1 002647   020166 701000 1                  TSX1    EVNT
         1 002650   020066 702000 1                  TSX2    EVNTERR

      579    13386                            %ACTION03;

  13387  1 002651   021034 701000 1                  TSX1    ACTION03
         1 002652   020067 702000 1                  TSX2    ACTIONERR

      580    13389    3                       SCTX.STATE = %XSS_SST_01;

  13389  1 002653   200003 470500                    LDP0    @VBLK,,AUTO
         1 002654   000000 471500                    LDP1    0,,PR0
         1 002655   001000 236003                    LDQ     512,DU
         1 002656   100000 552140                    STBQ    0,'40'O,PR1
         1 002657   020065 710000 1                  TRA     s:41916

      581    13390    3                   CASE( %XSS_SST_01C);

      582    13391                            %IFPREDDO( P="-01");

  13400  1 002660   400000 236003                    LDQ     -131072,DU
         1 002661   200014 756100                    STQ     CONTINUING,,AUTO

  13478  1 002662   200011 236100                    LDQ     ZPINV,,AUTO
         1 002663   200000 316003                    CANQ    65536,DU
         1 002664   002667 600000 1                  TZE     s:13488

PL6.E3A0      #001=XSS$MACHINE File=XSS$MACHINE.:XSA1TSI                         WED 10/01/97 12:18 Page:233
  13478  1 002665   022135 701000 1                  TSX1    PRED01
         1 002666   020067 702000 1                  TSX2    ACTIONERR

  13488  1 002667   200006 236100                    LDQ     ZPRED,,AUTO
         1 002670   200000 316003                    CANQ    65536,DU
         1 002671   002703 601000 1                  TNZ     s:13526

  13512  1 002672   200014 450100                    STZ     CONTINUING,,AUTO

      583    13514                                %EVENT( EV=%XSS_SEV_SCONIND);

  13515  1 002673   000040 236000 2                  LDQ     32
         1 002674   200021 756100                    STQ     CONTINUING+5,,AUTO
         1 002675   020166 701000 1                  TSX1    EVNT
         1 002676   020066 702000 1                  TSX2    EVNTERR

      584    13517    4                           SCTX.STATE = %XSS_SST_08;

  13517  1 002677   200003 470500                    LDP0    @VBLK,,AUTO
         1 002700   000000 471500                    LDP1    0,,PR0
         1 002701   015000 236003                    LDQ     6656,DU
         1 002702   100000 552140                    STBQ    0,'40'O,PR1

      585    13518    4                           END;

      586    13519                            %ELSEPREDDO( P="01");

  13526  1 002703   200014 234100                    SZN     CONTINUING,,AUTO
         1 002704   002726 605000 1                  TPL     s:13624

  13585  1 002705   200011 236100                    LDQ     ZPINV,,AUTO
         1 002706   200000 316003                    CANQ    65536,DU
         1 002707   002712 600000 1                  TZE     s:13595

  13585  1 002710   022135 701000 1                  TSX1    PRED01
         1 002711   020067 702000 1                  TSX2    ACTIONERR

PL6.E3A0      #001=XSS$MACHINE File=XSS$MACHINE.:XSA1TSI                         WED 10/01/97 12:18 Page:234
  13595  1 002712   200006 236100                    LDQ     ZPRED,,AUTO
         1 002713   200000 316003                    CANQ    65536,DU
         1 002714   002726 600000 1                  TZE     s:13624

  13614  1 002715   200014 450100                    STZ     CONTINUING,,AUTO

      587    13616                                %EVENT( EV=%XSS_SEV_TDISREQ);

  13617  1 002716   000006 236000 2                  LDQ     6
         1 002717   200021 756100                    STQ     CONTINUING+5,,AUTO
         1 002720   020166 701000 1                  TSX1    EVNT
         1 002721   020066 702000 1                  TSX2    EVNTERR

      588    13619    4                           SCTX.STATE = %XSS_SST_01;

  13619  1 002722   200003 470500                    LDP0    @VBLK,,AUTO
         1 002723   000000 471500                    LDP1    0,,PR0
         1 002724   001000 236003                    LDQ     512,DU
         1 002725   100000 552140                    STBQ    0,'40'O,PR1

      589    13620    4                           END;

      590    13621                            %ENDPREDDO;

  13624  1 002726   200014 234100                    SZN     CONTINUING,,AUTO
         1 002727   020065 605000 1                  TPL     s:41916

  13624  1 002730   020773 701000 1                  TSX1    OOPS
         1 002731   000000 011000                    NOP     0
         1 002732   020065 710000 1                  TRA     s:41916

      591    13626    3                   CASE( ELSE);

      592    13627                            %INVALID;

  13628  1 002733   020773 701000 1                  TSX1    OOPS
         1 002734   000000 011000                    NOP     0
PL6.E3A0      #001=XSS$MACHINE File=XSS$MACHINE.:XSA1TSI                         WED 10/01/97 12:18 Page:235

      593    13630    3                   END;

  13630  1 002735   020065 710000 1                  TRA     s:41916

      594    13631        %EJECT;
PL6.E3A0      #001=XSS$MACHINE File=XSS$MACHINE.:XSA1TSI                         WED 10/01/97 12:18 Page:236
      595    13632        /*****************************************************************************
      596    13633        *
      597    13634        *       DN              DISCONNECT SPDU
      598    13635        *
      599    13636        *****************************************************************************/
      600    13637    2           CASE( %XSS_SEV_DN);                             /* TABLE 52 */

      601    13638    3               DO CASE( SCTX.STATE);

  13638  1 002736   000000 471500                    LDP1    0,,PR0
         1 002737   100000 236100                    LDQ     0,,PR1
         1 002740   000033 772000                    QRL     27
         1 002741   000030 116007                    CMPQ    24,DL
         1 002742   002744 602006 1                  TNC     s:13638+6,QL
         1 002743   003122 710000 1                  TRA     s:14109
         1 002744   003122 710000 1                  TRA     s:14109
         1 002745   003122 710000 1                  TRA     s:14109
         1 002746   003124 710000 1                  TRA     s:14111
         1 002747   003122 710000 1                  TRA     s:14109
         1 002750   002774 710000 1                  TRA     s:13644
         1 002751   003122 710000 1                  TRA     s:14109
         1 002752   003005 710000 1                  TRA     s:13657
         1 002753   003122 710000 1                  TRA     s:14109
         1 002754   003122 710000 1                  TRA     s:14109
         1 002755   003122 710000 1                  TRA     s:14109
         1 002756   003122 710000 1                  TRA     s:14109
         1 002757   003122 710000 1                  TRA     s:14109
         1 002760   003122 710000 1                  TRA     s:14109
         1 002761   003122 710000 1                  TRA     s:14109
         1 002762   003064 710000 1                  TRA     s:13896
         1 002763   003122 710000 1                  TRA     s:14109
         1 002764   003122 710000 1                  TRA     s:14109
         1 002765   003122 710000 1                  TRA     s:14109
         1 002766   003122 710000 1                  TRA     s:14109
         1 002767   003122 710000 1                  TRA     s:14109
         1 002770   003122 710000 1                  TRA     s:14109
         1 002771   003122 710000 1                  TRA     s:14109
PL6.E3A0      #001=XSS$MACHINE File=XSS$MACHINE.:XSA1TSI                         WED 10/01/97 12:18 Page:237
         1 002772   003122 710000 1                  TRA     s:14109
         1 002773   003124 710000 1                  TRA     s:14111

      602    13639    3                   CASE( %XSS_SST_01A,

      603    13640    3                         %XSS_SST_16);
      604    13641    3                       ;  /* don't do anything */
      605    13642    3                   CASE( %XSS_SST_01C);

      606    13643                            %EVENT( EV=%XSS_SEV_TDISREQ);

  13644  1 002774   000006 236000 2                  LDQ     6
         1 002775   200021 756100                    STQ     CONTINUING+5,,AUTO
         1 002776   020166 701000 1                  TSX1    EVNT
         1 002777   020066 702000 1                  TSX2    EVNTERR

      607    13646    3                       SCTX.STATE = %XSS_SST_01;

  13646  1 003000   200003 470500                    LDP0    @VBLK,,AUTO
         1 003001   000000 471500                    LDP1    0,,PR0
         1 003002   001000 236003                    LDQ     512,DU
         1 003003   100000 552140                    STBQ    0,'40'O,PR1
         1 003004   020065 710000 1                  TRA     s:41916

      608    13647    3                   CASE( %XSS_SST_03);

      609    13648                            %IFPREDDO( P="-66");

  13657  1 003005   400000 236003                    LDQ     -131072,DU
         1 003006   200014 756100                    STQ     CONTINUING,,AUTO

  13735  1 003007   200012 236100                    LDQ     ZPINV+1,,AUTO
         1 003010   000040 316007                    CANQ    32,DL
         1 003011   003014 600000 1                  TZE     s:13745

  13735  1 003012   025047 701000 1                  TSX1    PRED66
         1 003013   020067 702000 1                  TSX2    ACTIONERR
PL6.E3A0      #001=XSS$MACHINE File=XSS$MACHINE.:XSA1TSI                         WED 10/01/97 12:18 Page:238

  13745  1 003014   200007 236100                    LDQ     ZPRED+1,,AUTO
         1 003015   000040 316007                    CANQ    32,DL
         1 003016   003034 601000 1                  TNZ     s:13786

  13769  1 003017   200014 450100                    STZ     CONTINUING,,AUTO

      610    13771                                %EVENT( EV=%XSS_SEV_SRELCFP);

  13772  1 003020   000042 236000 2                  LDQ     34
         1 003021   200021 756100                    STQ     CONTINUING+5,,AUTO
         1 003022   020166 701000 1                  TSX1    EVNT
         1 003023   020066 702000 1                  TSX2    EVNTERR

      611    13774                                %EVENT( EV=%XSS_SEV_TDISREQ);

  13775  1 003024   000006 236000 2                  LDQ     6
         1 003025   200021 756100                    STQ     CONTINUING+5,,AUTO
         1 003026   020166 701000 1                  TSX1    EVNT
         1 003027   020066 702000 1                  TSX2    EVNTERR

      612    13777    4                           SCTX.STATE = %XSS_SST_01;

  13777  1 003030   200003 470500                    LDP0    @VBLK,,AUTO
         1 003031   000000 471500                    LDP1    0,,PR0
         1 003032   001000 236003                    LDQ     512,DU
         1 003033   100000 552140                    STBQ    0,'40'O,PR1

      613    13778    4                           END;

      614    13779                            %ELSEPREDDO( P="66");

  13786  1 003034   200014 234100                    SZN     CONTINUING,,AUTO
         1 003035   003057 605000 1                  TPL     s:13884

  13845  1 003036   200012 236100                    LDQ     ZPINV+1,,AUTO
         1 003037   000040 316007                    CANQ    32,DL
PL6.E3A0      #001=XSS$MACHINE File=XSS$MACHINE.:XSA1TSI                         WED 10/01/97 12:18 Page:239
         1 003040   003043 600000 1                  TZE     s:13855

  13845  1 003041   025047 701000 1                  TSX1    PRED66
         1 003042   020067 702000 1                  TSX2    ACTIONERR

  13855  1 003043   200007 236100                    LDQ     ZPRED+1,,AUTO
         1 003044   000040 316007                    CANQ    32,DL
         1 003045   003057 600000 1                  TZE     s:13884

  13874  1 003046   200014 450100                    STZ     CONTINUING,,AUTO

      615    13876                                %EVENT( EV=%XSS_SEV_SRELCFP);

  13877  1 003047   000042 236000 2                  LDQ     34
         1 003050   200021 756100                    STQ     CONTINUING+5,,AUTO
         1 003051   020166 701000 1                  TSX1    EVNT
         1 003052   020066 702000 1                  TSX2    EVNTERR

      616    13879    4                           SCTX.STATE = %XSS_SST_01C;

  13879  1 003053   200003 470500                    LDP0    @VBLK,,AUTO
         1 003054   000000 471500                    LDP1    0,,PR0
         1 003055   004000 236003                    LDQ     2048,DU
         1 003056   100000 552140                    STBQ    0,'40'O,PR1

      617    13880    4                           END;

      618    13881                            %ENDPREDDO;

  13884  1 003057   200014 234100                    SZN     CONTINUING,,AUTO
         1 003060   020065 605000 1                  TPL     s:41916

  13884  1 003061   020773 701000 1                  TSX1    OOPS
         1 003062   000000 011000                    NOP     0
         1 003063   020065 710000 1                  TRA     s:41916

      619    13886    3                   CASE( %XSS_SST_09);
PL6.E3A0      #001=XSS$MACHINE File=XSS$MACHINE.:XSA1TSI                         WED 10/01/97 12:18 Page:240

      620    13887                            %IFPREDDO( P="69&-01");

  13896  1 003064   400000 236003                    LDQ     -131072,DU
         1 003065   200014 756100                    STQ     CONTINUING,,AUTO

  13942  1 003066   200012 236100                    LDQ     ZPINV+1,,AUTO
         1 003067   000004 316007                    CANQ    4,DL
         1 003070   003073 600000 1                  TZE     s:13951

  13942  1 003071   025125 701000 1                  TSX1    PRED69
         1 003072   020067 702000 1                  TSX2    ACTIONERR

  13951  1 003073   200007 236100                    LDQ     ZPRED+1,,AUTO
         1 003074   000004 316007                    CANQ    4,DL
         1 003075   003115 600000 1                  TZE     s:14105

  14044  1 003076   200011 236100                    LDQ     ZPINV,,AUTO
         1 003077   200000 316003                    CANQ    65536,DU
         1 003100   003103 600000 1                  TZE     s:14054

  14044  1 003101   022135 701000 1                  TSX1    PRED01
         1 003102   020067 702000 1                  TSX2    ACTIONERR

  14054  1 003103   200006 236100                    LDQ     ZPRED,,AUTO
         1 003104   200000 316003                    CANQ    65536,DU
         1 003105   003115 601000 1                  TNZ     s:14105

  14093  1 003106   200014 450100                    STZ     CONTINUING,,AUTO

      621    14095                                %EVENT( EV=%XSS_SEV_SRELCFP);

  14096  1 003107   000042 236000 2                  LDQ     34
         1 003110   200021 756100                    STQ     CONTINUING+5,,AUTO
         1 003111   020166 701000 1                  TSX1    EVNT
         1 003112   020066 702000 1                  TSX2    EVNTERR

PL6.E3A0      #001=XSS$MACHINE File=XSS$MACHINE.:XSA1TSI                         WED 10/01/97 12:18 Page:241
      622    14098                                %ACTION32;

  14099  1 003113   022122 701000 1                  TSX1    ACTION32
         1 003114   020067 702000 1                  TSX2    ACTIONERR

      623    14101    4                           END;

      624    14102                            %ENDPREDDO;

  14105  1 003115   200014 234100                    SZN     CONTINUING,,AUTO
         1 003116   020065 605000 1                  TPL     s:41916

  14105  1 003117   020773 701000 1                  TSX1    OOPS
         1 003120   000000 011000                    NOP     0
         1 003121   020065 710000 1                  TRA     s:41916

      625    14107    3                   CASE( ELSE);

      626    14108                            %INVALID;

  14109  1 003122   020773 701000 1                  TSX1    OOPS
         1 003123   000000 011000                    NOP     0

      627    14111    3                   END;

  14111  1 003124   020065 710000 1                  TRA     s:41916

      628    14112        %EJECT;
PL6.E3A0      #001=XSS$MACHINE File=XSS$MACHINE.:XSA1TSI                         WED 10/01/97 12:18 Page:242
      629    14113        /*****************************************************************************
      630    14114        *
      631    14115        *       DT              DATA TRANSFER SPDU
      632    14116        *
      633    14117        *****************************************************************************/
      634    14118    2           CASE( %XSS_SEV_DT);                             /* TABLE 46 */

      635    14119    3               DO CASE( SCTX.STATE);

  14119  1 003125   000000 471500                    LDP1    0,,PR0
         1 003126   100000 236100                    LDQ     0,,PR1
         1 003127   000033 772000                    QRL     27
         1 003130   000036 116007                    CMPQ    30,DL
         1 003131   003133 602006 1                  TNC     s:14119+6,QL
         1 003132   003326 710000 1                  TRA     s:14664
         1 003133   003326 710000 1                  TRA     s:14664
         1 003134   003326 710000 1                  TRA     s:14664
         1 003135   003330 710000 1                  TRA     s:14666
         1 003136   003326 710000 1                  TRA     s:14664
         1 003137   003171 710000 1                  TRA     s:14126
         1 003140   003326 710000 1                  TRA     s:14664
         1 003141   003202 710000 1                  TRA     s:14139
         1 003142   003236 710000 1                  TRA     s:14337
         1 003143   003236 710000 1                  TRA     s:14337
         1 003144   003262 710000 1                  TRA     s:14453
         1 003145   003262 710000 1                  TRA     s:14453
         1 003146   003262 710000 1                  TRA     s:14453
         1 003147   003262 710000 1                  TRA     s:14453
         1 003150   003326 710000 1                  TRA     s:14664
         1 003151   003326 710000 1                  TRA     s:14664
         1 003152   003326 710000 1                  TRA     s:14664
         1 003153   003326 710000 1                  TRA     s:14664
         1 003154   003326 710000 1                  TRA     s:14664
         1 003155   003326 710000 1                  TRA     s:14664
         1 003156   003326 710000 1                  TRA     s:14664
         1 003157   003236 710000 1                  TRA     s:14337
         1 003160   003262 710000 1                  TRA     s:14453
PL6.E3A0      #001=XSS$MACHINE File=XSS$MACHINE.:XSA1TSI                         WED 10/01/97 12:18 Page:243
         1 003161   003262 710000 1                  TRA     s:14453
         1 003162   003330 710000 1                  TRA     s:14666
         1 003163   003302 710000 1                  TRA     s:14562
         1 003164   003330 710000 1                  TRA     s:14666
         1 003165   003262 710000 1                  TRA     s:14453
         1 003166   003302 710000 1                  TRA     s:14562
         1 003167   003326 710000 1                  TRA     s:14664
         1 003170   003236 710000 1                  TRA     s:14337

      636    14120    3                   CASE( %XSS_SST_01A,

      637    14121    3                         %XSS_SST_16,
      638    14122    3                         %XSS_SST_19);
      639    14123    3                       ;  /* don't do anything */
      640    14124    3                   CASE( %XSS_SST_01C);

      641    14125                            %EVENT( EV=%XSS_SEV_TDISREQ);

  14126  1 003171   000006 236000 2                  LDQ     6
         1 003172   200021 756100                    STQ     CONTINUING+5,,AUTO
         1 003173   020166 701000 1                  TSX1    EVNT
         1 003174   020066 702000 1                  TSX2    EVNTERR

      642    14128    3                       SCTX.STATE = %XSS_SST_01;

  14128  1 003175   200003 470500                    LDP0    @VBLK,,AUTO
         1 003176   000000 471500                    LDP1    0,,PR0
         1 003177   001000 236003                    LDQ     512,DU
         1 003200   100000 552140                    STBQ    0,'40'O,PR1
         1 003201   020065 710000 1                  TRA     s:41916

      643    14129    3                   CASE( %XSS_SST_03);

      644    14130                            %IFPREDDO( P="05&10");

  14139  1 003202   400000 236003                    LDQ     -131072,DU
         1 003203   200014 756100                    STQ     CONTINUING,,AUTO
PL6.E3A0      #001=XSS$MACHINE File=XSS$MACHINE.:XSA1TSI                         WED 10/01/97 12:18 Page:244

  14185  1 003204   200011 236100                    LDQ     ZPINV,,AUTO
         1 003205   010000 316003                    CANQ    4096,DU
         1 003206   003211 600000 1                  TZE     s:14194

  14185  1 003207   022233 701000 1                  TSX1    PRED05
         1 003210   020067 702000 1                  TSX2    ACTIONERR

  14194  1 003211   200006 236100                    LDQ     ZPRED,,AUTO
         1 003212   010000 316003                    CANQ    4096,DU
         1 003213   003231 600000 1                  TZE     s:14322

  14269  1 003214   200011 236100                    LDQ     ZPINV,,AUTO
         1 003215   000200 316003                    CANQ    128,DU
         1 003216   003221 600000 1                  TZE     s:14279

  14269  1 003217   022342 701000 1                  TSX1    PRED10
         1 003220   020067 702000 1                  TSX2    ACTIONERR

  14279  1 003221   200006 236100                    LDQ     ZPRED,,AUTO
         1 003222   000200 316003                    CANQ    128,DU
         1 003223   003231 600000 1                  TZE     s:14322

  14313  1 003224   200014 450100                    STZ     CONTINUING,,AUTO

      645    14315                                %EVENT( EV=%XSS_SEV_SDATIND);

  14316  1 003225   000044 236000 2                  LDQ     36
         1 003226   200021 756100                    STQ     CONTINUING+5,,AUTO
         1 003227   020166 701000 1                  TSX1    EVNT
         1 003230   020066 702000 1                  TSX2    EVNTERR

      646    14318    4                           END;

      647    14319                            %ENDPREDDO;

  14322  1 003231   200014 234100                    SZN     CONTINUING,,AUTO
PL6.E3A0      #001=XSS$MACHINE File=XSS$MACHINE.:XSA1TSI                         WED 10/01/97 12:18 Page:245
         1 003232   020065 605000 1                  TPL     s:41916

  14322  1 003233   020773 701000 1                  TSX1    OOPS
         1 003234   000000 011000                    NOP     0
         1 003235   020065 710000 1                  TRA     s:41916

      648    14324    3                   CASE( %XSS_SST_04A,

      649    14325    3                         %XSS_SST_04B,
      650    14326    3                         %XSS_SST_15A,
      651    14327    3                         %XSS_SST_713);
      652    14328                            %IFPREDDO( P="05");

  14337  1 003236   400000 236003                    LDQ     -131072,DU
         1 003237   200014 756100                    STQ     CONTINUING,,AUTO

  14397  1 003240   200011 236100                    LDQ     ZPINV,,AUTO
         1 003241   010000 316003                    CANQ    4096,DU
         1 003242   003245 600000 1                  TZE     s:14407

  14397  1 003243   022233 701000 1                  TSX1    PRED05
         1 003244   020067 702000 1                  TSX2    ACTIONERR

  14407  1 003245   200006 236100                    LDQ     ZPRED,,AUTO
         1 003246   010000 316003                    CANQ    4096,DU
         1 003247   003255 600000 1                  TZE     s:14435

  14426  1 003250   200014 450100                    STZ     CONTINUING,,AUTO

      653    14428                                %EVENT( EV=%XSS_SEV_SDATIND);

  14429  1 003251   000044 236000 2                  LDQ     36
         1 003252   200021 756100                    STQ     CONTINUING+5,,AUTO
         1 003253   020166 701000 1                  TSX1    EVNT
         1 003254   020066 702000 1                  TSX2    EVNTERR

      654    14431    4                           END;
PL6.E3A0      #001=XSS$MACHINE File=XSS$MACHINE.:XSA1TSI                         WED 10/01/97 12:18 Page:246

      655    14432                            %ENDPREDDO;

  14435  1 003255   200014 234100                    SZN     CONTINUING,,AUTO
         1 003256   020065 605000 1                  TPL     s:41916

  14435  1 003257   020773 701000 1                  TSX1    OOPS
         1 003260   000000 011000                    NOP     0
         1 003261   020065 710000 1                  TRA     s:41916

      656    14437    3                   CASE( %XSS_SST_05A,

      657    14438    3                         %XSS_SST_05B,
      658    14439    3                         %XSS_SST_05C,
      659    14440    3                         %XSS_SST_06,
      660    14441    3                         %XSS_SST_15B,
      661    14442    3                         %XSS_SST_15C,
      662    14443    3                         %XSS_SST_20);
      663    14444                            %IFPREDDO( P="05");

  14453  1 003262   400000 236003                    LDQ     -131072,DU
         1 003263   200014 756100                    STQ     CONTINUING,,AUTO

  14513  1 003264   200011 236100                    LDQ     ZPINV,,AUTO
         1 003265   010000 316003                    CANQ    4096,DU
         1 003266   003271 600000 1                  TZE     s:14523

  14513  1 003267   022233 701000 1                  TSX1    PRED05
         1 003270   020067 702000 1                  TSX2    ACTIONERR

  14523  1 003271   200006 236100                    LDQ     ZPRED,,AUTO
         1 003272   010000 316003                    CANQ    4096,DU
         1 003273   003275 600000 1                  TZE     s:14549

  14542  1 003274   200014 450100                    STZ     CONTINUING,,AUTO

      664    14544    4                           ;  /* don't do anything */
PL6.E3A0      #001=XSS$MACHINE File=XSS$MACHINE.:XSA1TSI                         WED 10/01/97 12:18 Page:247
      665    14545    4                           END;

      666    14546                            %ENDPREDDO;

  14549  1 003275   200014 234100                    SZN     CONTINUING,,AUTO
         1 003276   020065 605000 1                  TPL     s:41916

  14549  1 003277   020773 701000 1                  TSX1    OOPS
         1 003300   000000 011000                    NOP     0
         1 003301   020065 710000 1                  TRA     s:41916

      667    14551    3                   CASE( %XSS_SST_18,

      668    14552    3                         %XSS_SST_21);
      669    14553                            %IFPREDDO( P="70");

  14562  1 003302   400000 236003                    LDQ     -131072,DU
         1 003303   200014 756100                    STQ     CONTINUING,,AUTO

  14622  1 003304   200012 236100                    LDQ     ZPINV+1,,AUTO
         1 003305   000002 316007                    CANQ    2,DL
         1 003306   003311 600000 1                  TZE     s:14632

  14622  1 003307   025140 701000 1                  TSX1    PRED70
         1 003310   020067 702000 1                  TSX2    ACTIONERR

  14632  1 003311   200007 236100                    LDQ     ZPRED+1,,AUTO
         1 003312   000002 316007                    CANQ    2,DL
         1 003313   003321 600000 1                  TZE     s:14660

  14651  1 003314   200014 450100                    STZ     CONTINUING,,AUTO

      670    14653                                %EVENT( EV=%XSS_SEV_SDATIND);

  14654  1 003315   000044 236000 2                  LDQ     36
         1 003316   200021 756100                    STQ     CONTINUING+5,,AUTO
         1 003317   020166 701000 1                  TSX1    EVNT
PL6.E3A0      #001=XSS$MACHINE File=XSS$MACHINE.:XSA1TSI                         WED 10/01/97 12:18 Page:248
         1 003320   020066 702000 1                  TSX2    EVNTERR

      671    14656    4                           END;

      672    14657                            %ENDPREDDO;

  14660  1 003321   200014 234100                    SZN     CONTINUING,,AUTO
         1 003322   020065 605000 1                  TPL     s:41916

  14660  1 003323   020773 701000 1                  TSX1    OOPS
         1 003324   000000 011000                    NOP     0
         1 003325   020065 710000 1                  TRA     s:41916

      673    14662    3                   CASE( ELSE);

      674    14663                            %INVALID;

  14664  1 003326   020773 701000 1                  TSX1    OOPS
         1 003327   000000 011000                    NOP     0

      675    14666    3                   END;

  14666  1 003330   020065 710000 1                  TRA     s:41916

      676    14667        %EJECT;
PL6.E3A0      #001=XSS$MACHINE File=XSS$MACHINE.:XSA1TSI                         WED 10/01/97 12:18 Page:249
      677    14668        /*****************************************************************************
      678    14669        *
      679    14670        *       ED              EXCEPTION DATA SPDU
      680    14671        *
      681    14672        *****************************************************************************/
      682    14673    2           CASE( %XSS_SEV_ED);                             /* TABLE 51 */

      683    14674    3               DO CASE( SCTX.STATE);

  14674  1 003331   000000 471500                    LDP1    0,,PR0
         1 003332   100000 236100                    LDQ     0,,PR1
         1 003333   000033 772000                    QRL     27
         1 003334   000036 116007                    CMPQ    30,DL
         1 003335   003337 602006 1                  TNC     s:14674+6,QL
         1 003336   003644 710000 1                  TRA     s:15637
         1 003337   003644 710000 1                  TRA     s:15637
         1 003340   003644 710000 1                  TRA     s:15637
         1 003341   003646 710000 1                  TRA     s:15639
         1 003342   003644 710000 1                  TRA     s:15637
         1 003343   003375 710000 1                  TRA     s:14680
         1 003344   003644 710000 1                  TRA     s:15637
         1 003345   003406 710000 1                  TRA     s:14693
         1 003346   003436 710000 1                  TRA     s:14805
         1 003347   003436 710000 1                  TRA     s:14805
         1 003350   003531 710000 1                  TRA     s:15215
         1 003351   003531 710000 1                  TRA     s:15215
         1 003352   003531 710000 1                  TRA     s:15215
         1 003353   003531 710000 1                  TRA     s:15215
         1 003354   003644 710000 1                  TRA     s:15637
         1 003355   003644 710000 1                  TRA     s:15637
         1 003356   003644 710000 1                  TRA     s:15637
         1 003357   003644 710000 1                  TRA     s:15637
         1 003360   003644 710000 1                  TRA     s:15637
         1 003361   003644 710000 1                  TRA     s:15637
         1 003362   003644 710000 1                  TRA     s:15637
         1 003363   003644 710000 1                  TRA     s:15637
         1 003364   003644 710000 1                  TRA     s:15637
PL6.E3A0      #001=XSS$MACHINE File=XSS$MACHINE.:XSA1TSI                         WED 10/01/97 12:18 Page:250
         1 003365   003531 710000 1                  TRA     s:15215
         1 003366   003646 710000 1                  TRA     s:15639
         1 003367   003644 710000 1                  TRA     s:15637
         1 003370   003551 710000 1                  TRA     s:15323
         1 003371   003644 710000 1                  TRA     s:15637
         1 003372   003644 710000 1                  TRA     s:15637
         1 003373   003644 710000 1                  TRA     s:15637
         1 003374   003575 710000 1                  TRA     s:15433

      684    14675    3                   CASE( %XSS_SST_01A,

      685    14676    3                         %XSS_SST_16);
      686    14677    3                       ;  /* don't do anything */
      687    14678    3                   CASE( %XSS_SST_01C);

      688    14679                            %EVENT( EV=%XSS_SEV_TDISREQ);

  14680  1 003375   000006 236000 2                  LDQ     6
         1 003376   200021 756100                    STQ     CONTINUING+5,,AUTO
         1 003377   020166 701000 1                  TSX1    EVNT
         1 003400   020066 702000 1                  TSX2    EVNTERR

      689    14682    3                       SCTX.STATE = %XSS_SST_01;

  14682  1 003401   200003 470500                    LDP0    @VBLK,,AUTO
         1 003402   000000 471500                    LDP1    0,,PR0
         1 003403   001000 236003                    LDQ     512,DU
         1 003404   100000 552140                    STBQ    0,'40'O,PR1
         1 003405   020065 710000 1                  TRA     s:41916

      690    14683    3                   CASE( %XSS_SST_03);

      691    14684                            %IFPREDDO( P="52");

  14693  1 003406   400000 236003                    LDQ     -131072,DU
         1 003407   200014 756100                    STQ     CONTINUING,,AUTO

PL6.E3A0      #001=XSS$MACHINE File=XSS$MACHINE.:XSA1TSI                         WED 10/01/97 12:18 Page:251
  14753  1 003410   200012 236100                    LDQ     ZPINV+1,,AUTO
         1 003411   000002 316003                    CANQ    2,DU
         1 003412   003415 600000 1                  TZE     s:14763

  14753  1 003413   024267 701000 1                  TSX1    PRED52
         1 003414   020067 702000 1                  TSX2    ACTIONERR

  14763  1 003415   200007 236100                    LDQ     ZPRED+1,,AUTO
         1 003416   000002 316003                    CANQ    2,DU
         1 003417   003431 600000 1                  TZE     s:14792

  14782  1 003420   200014 450100                    STZ     CONTINUING,,AUTO

      692    14784                                %EVENT( EV=%XSS_SEV_SUERIND);

  14785  1 003421   000046 236000 2                  LDQ     38
         1 003422   200021 756100                    STQ     CONTINUING+5,,AUTO
         1 003423   020166 701000 1                  TSX1    EVNT
         1 003424   020066 702000 1                  TSX2    EVNTERR

      693    14787    4                           SCTX.STATE = %XSS_SST_20;

  14787  1 003425   200003 470500                    LDP0    @VBLK,,AUTO
         1 003426   000000 471500                    LDP1    0,,PR0
         1 003427   032000 236003                    LDQ     13312,DU
         1 003430   100000 552140                    STBQ    0,'40'O,PR1

      694    14788    4                           END;

      695    14789                            %ENDPREDDO;

  14792  1 003431   200014 234100                    SZN     CONTINUING,,AUTO
         1 003432   020065 605000 1                  TPL     s:41916

  14792  1 003433   020773 701000 1                  TSX1    OOPS
         1 003434   000000 011000                    NOP     0
         1 003435   020065 710000 1                  TRA     s:41916
PL6.E3A0      #001=XSS$MACHINE File=XSS$MACHINE.:XSA1TSI                         WED 10/01/97 12:18 Page:252

      696    14794    3                   CASE( %XSS_SST_04A,

      697    14795    3                         %XSS_SST_04B);
      698    14796                            %IFPREDDO( P="48&03");

  14805  1 003436   400000 236003                    LDQ     -131072,DU
         1 003437   200014 756100                    STQ     CONTINUING,,AUTO

  14851  1 003440   200012 236100                    LDQ     ZPINV+1,,AUTO
         1 003441   000040 316003                    CANQ    32,DU
         1 003442   003445 600000 1                  TZE     s:14860

  14851  1 003443   024072 701000 1                  TSX1    PRED48
         1 003444   020067 702000 1                  TSX2    ACTIONERR

  14860  1 003445   200007 236100                    LDQ     ZPRED+1,,AUTO
         1 003446   000040 316003                    CANQ    32,DU
         1 003447   003471 600000 1                  TZE     s:14993

  14935  1 003450   200011 236100                    LDQ     ZPINV,,AUTO
         1 003451   040000 316003                    CANQ    16384,DU
         1 003452   003455 600000 1                  TZE     s:14945

  14935  1 003453   022175 701000 1                  TSX1    PRED03
         1 003454   020067 702000 1                  TSX2    ACTIONERR

  14945  1 003455   200006 236100                    LDQ     ZPRED,,AUTO
         1 003456   040000 316003                    CANQ    16384,DU
         1 003457   003471 600000 1                  TZE     s:14993

  14979  1 003460   200014 450100                    STZ     CONTINUING,,AUTO

      699    14981                                %EVENT( EV=%XSS_SEV_SUERIND);

  14982  1 003461   000046 236000 2                  LDQ     38
         1 003462   200021 756100                    STQ     CONTINUING+5,,AUTO
PL6.E3A0      #001=XSS$MACHINE File=XSS$MACHINE.:XSA1TSI                         WED 10/01/97 12:18 Page:253
         1 003463   020166 701000 1                  TSX1    EVNT
         1 003464   020066 702000 1                  TSX2    EVNTERR

      700    14984    4                           SCTX.STATE = %XSS_SST_20;

  14984  1 003465   200003 470500                    LDP0    @VBLK,,AUTO
         1 003466   000000 471500                    LDP1    0,,PR0
         1 003467   032000 236003                    LDQ     13312,DU
         1 003470   100000 552140                    STBQ    0,'40'O,PR1

      701    14985    4                           END;

      702    14986                            %ELSEPREDDO( P="48&-03");

  14993  1 003471   200014 234100                    SZN     CONTINUING,,AUTO
         1 003472   003524 605000 1                  TPL     s:15199

  15038  1 003473   200012 236100                    LDQ     ZPINV+1,,AUTO
         1 003474   000040 316003                    CANQ    32,DU
         1 003475   003500 600000 1                  TZE     s:15047

  15038  1 003476   024072 701000 1                  TSX1    PRED48
         1 003477   020067 702000 1                  TSX2    ACTIONERR

  15047  1 003500   200007 236100                    LDQ     ZPRED+1,,AUTO
         1 003501   000040 316003                    CANQ    32,DU
         1 003502   003524 600000 1                  TZE     s:15199

  15140  1 003503   200011 236100                    LDQ     ZPINV,,AUTO
         1 003504   040000 316003                    CANQ    16384,DU
         1 003505   003510 600000 1                  TZE     s:15150

  15140  1 003506   022175 701000 1                  TSX1    PRED03
         1 003507   020067 702000 1                  TSX2    ACTIONERR

  15150  1 003510   200006 236100                    LDQ     ZPRED,,AUTO
         1 003511   040000 316003                    CANQ    16384,DU
PL6.E3A0      #001=XSS$MACHINE File=XSS$MACHINE.:XSA1TSI                         WED 10/01/97 12:18 Page:254
         1 003512   003524 601000 1                  TNZ     s:15199

  15189  1 003513   200014 450100                    STZ     CONTINUING,,AUTO

      703    15191                                %EVENT( EV=%XSS_SEV_SUERIND);

  15192  1 003514   000046 236000 2                  LDQ     38
         1 003515   200021 756100                    STQ     CONTINUING+5,,AUTO
         1 003516   020166 701000 1                  TSX1    EVNT
         1 003517   020066 702000 1                  TSX2    EVNTERR

      704    15194    4                           SCTX.STATE = %XSS_SST_713;

  15194  1 003520   200003 470500                    LDP0    @VBLK,,AUTO
         1 003521   000000 471500                    LDP1    0,,PR0
         1 003522   035000 236003                    LDQ     14848,DU
         1 003523   100000 552140                    STBQ    0,'40'O,PR1

      705    15195    4                           END;

      706    15196                            %ENDPREDDO;

  15199  1 003524   200014 234100                    SZN     CONTINUING,,AUTO
         1 003525   020065 605000 1                  TPL     s:41916

  15199  1 003526   020773 701000 1                  TSX1    OOPS
         1 003527   000000 011000                    NOP     0
         1 003530   020065 710000 1                  TRA     s:41916

      707    15201    3                   CASE( %XSS_SST_05A,

      708    15202    3                         %XSS_SST_05B,
      709    15203    3                         %XSS_SST_05C,
      710    15204    3                         %XSS_SST_06,
      711    15205    3                         %XSS_SST_15C);
      712    15206                            %IFPREDDO( P="48");

PL6.E3A0      #001=XSS$MACHINE File=XSS$MACHINE.:XSA1TSI                         WED 10/01/97 12:18 Page:255
  15215  1 003531   400000 236003                    LDQ     -131072,DU
         1 003532   200014 756100                    STQ     CONTINUING,,AUTO

  15275  1 003533   200012 236100                    LDQ     ZPINV+1,,AUTO
         1 003534   000040 316003                    CANQ    32,DU
         1 003535   003540 600000 1                  TZE     s:15285

  15275  1 003536   024072 701000 1                  TSX1    PRED48
         1 003537   020067 702000 1                  TSX2    ACTIONERR

  15285  1 003540   200007 236100                    LDQ     ZPRED+1,,AUTO
         1 003541   000040 316003                    CANQ    32,DU
         1 003542   003544 600000 1                  TZE     s:15311

  15304  1 003543   200014 450100                    STZ     CONTINUING,,AUTO

      713    15306    4                           ;  /* don't do anything */
      714    15307    4                           END;

      715    15308                            %ENDPREDDO;

  15311  1 003544   200014 234100                    SZN     CONTINUING,,AUTO
         1 003545   020065 605000 1                  TPL     s:41916

  15311  1 003546   020773 701000 1                  TSX1    OOPS
         1 003547   000000 011000                    NOP     0
         1 003550   020065 710000 1                  TRA     s:41916

      716    15313    3                   CASE( %XSS_SST_19);

      717    15314                            %IFPREDDO( P="50");

  15323  1 003551   400000 236003                    LDQ     -131072,DU
         1 003552   200014 756100                    STQ     CONTINUING,,AUTO

  15383  1 003553   200012 236100                    LDQ     ZPINV+1,,AUTO
         1 003554   000010 316003                    CANQ    8,DU
PL6.E3A0      #001=XSS$MACHINE File=XSS$MACHINE.:XSA1TSI                         WED 10/01/97 12:18 Page:256
         1 003555   003560 600000 1                  TZE     s:15393

  15383  1 003556   024155 701000 1                  TSX1    PRED50
         1 003557   020067 702000 1                  TSX2    ACTIONERR

  15393  1 003560   200007 236100                    LDQ     ZPRED+1,,AUTO
         1 003561   000010 316003                    CANQ    8,DU
         1 003562   003570 600000 1                  TZE     s:15421

  15412  1 003563   200014 450100                    STZ     CONTINUING,,AUTO

      718    15414                                %EVENT( EV=%XSS_SEV_SUERIND);

  15415  1 003564   000046 236000 2                  LDQ     38
         1 003565   200021 756100                    STQ     CONTINUING+5,,AUTO
         1 003566   020166 701000 1                  TSX1    EVNT
         1 003567   020066 702000 1                  TSX2    EVNTERR

      719    15417    4                           END;

      720    15418                            %ENDPREDDO;

  15421  1 003570   200014 234100                    SZN     CONTINUING,,AUTO
         1 003571   020065 605000 1                  TPL     s:41916

  15421  1 003572   020773 701000 1                  TSX1    OOPS
         1 003573   000000 011000                    NOP     0
         1 003574   020065 710000 1                  TRA     s:41916

      721    15423    3                   CASE( %XSS_SST_713);

      722    15424                            %IFPREDDO( P="50");

  15433  1 003575   400000 236003                    LDQ     -131072,DU
         1 003576   200014 756100                    STQ     CONTINUING,,AUTO

  15493  1 003577   200012 236100                    LDQ     ZPINV+1,,AUTO
PL6.E3A0      #001=XSS$MACHINE File=XSS$MACHINE.:XSA1TSI                         WED 10/01/97 12:18 Page:257
         1 003600   000010 316003                    CANQ    8,DU
         1 003601   003604 600000 1                  TZE     s:15503

  15493  1 003602   024155 701000 1                  TSX1    PRED50
         1 003603   020067 702000 1                  TSX2    ACTIONERR

  15503  1 003604   200007 236100                    LDQ     ZPRED+1,,AUTO
         1 003605   000010 316003                    CANQ    8,DU
         1 003606   003614 600000 1                  TZE     s:15535

  15522  1 003607   200014 450100                    STZ     CONTINUING,,AUTO

      723    15524                                %EVENT( EV=%XSS_SEV_SUERIND);

  15525  1 003610   000046 236000 2                  LDQ     38
         1 003611   200021 756100                    STQ     CONTINUING+5,,AUTO
         1 003612   020166 701000 1                  TSX1    EVNT
         1 003613   020066 702000 1                  TSX2    EVNTERR

      724    15527    4                           END;

      725    15528                            %ELSEPREDDO( P="51");

  15535  1 003614   200014 234100                    SZN     CONTINUING,,AUTO
         1 003615   003637 605000 1                  TPL     s:15633

  15594  1 003616   200012 236100                    LDQ     ZPINV+1,,AUTO
         1 003617   000004 316003                    CANQ    4,DU
         1 003620   003623 600000 1                  TZE     s:15604

  15594  1 003621   024222 701000 1                  TSX1    PRED51
         1 003622   020067 702000 1                  TSX2    ACTIONERR

  15604  1 003623   200007 236100                    LDQ     ZPRED+1,,AUTO
         1 003624   000004 316003                    CANQ    4,DU
         1 003625   003637 600000 1                  TZE     s:15633

PL6.E3A0      #001=XSS$MACHINE File=XSS$MACHINE.:XSA1TSI                         WED 10/01/97 12:18 Page:258
  15623  1 003626   200014 450100                    STZ     CONTINUING,,AUTO

      726    15625                                %EVENT( EV=%XSS_SEV_SUERIND);

  15626  1 003627   000046 236000 2                  LDQ     38
         1 003630   200021 756100                    STQ     CONTINUING+5,,AUTO
         1 003631   020166 701000 1                  TSX1    EVNT
         1 003632   020066 702000 1                  TSX2    EVNTERR

      727    15628    4                           SCTX.STATE = %XSS_SST_20;

  15628  1 003633   200003 470500                    LDP0    @VBLK,,AUTO
         1 003634   000000 471500                    LDP1    0,,PR0
         1 003635   032000 236003                    LDQ     13312,DU
         1 003636   100000 552140                    STBQ    0,'40'O,PR1

      728    15629    4                           END;

      729    15630                            %ENDPREDDO;

  15633  1 003637   200014 234100                    SZN     CONTINUING,,AUTO
         1 003640   020065 605000 1                  TPL     s:41916

  15633  1 003641   020773 701000 1                  TSX1    OOPS
         1 003642   000000 011000                    NOP     0
         1 003643   020065 710000 1                  TRA     s:41916

      730    15635    3                   CASE( ELSE);

      731    15636                            %INVALID;

  15637  1 003644   020773 701000 1                  TSX1    OOPS
         1 003645   000000 011000                    NOP     0

      732    15639    3                   END;

  15639  1 003646   020065 710000 1                  TRA     s:41916
PL6.E3A0      #001=XSS$MACHINE File=XSS$MACHINE.:XSA1TSI                         WED 10/01/97 12:18 Page:259

      733    15640        %EJECT;
PL6.E3A0      #001=XSS$MACHINE File=XSS$MACHINE.:XSA1TSI                         WED 10/01/97 12:18 Page:260
      734    15641        /*****************************************************************************
      735    15642        *
      736    15643        *       ER              EXCEPTION REPORT SPDU
      737    15644        *
      738    15645        *****************************************************************************/
      739    15646    2           CASE( %XSS_SEV_ER);                             /* TABLE 51 */

      740    15647    3               DO CASE( SCTX.STATE);

  15647  1 003647   000000 471500                    LDP1    0,,PR0
         1 003650   100000 236100                    LDQ     0,,PR1
         1 003651   000033 772000                    QRL     27
         1 003652   000036 116007                    CMPQ    30,DL
         1 003653   003655 602006 1                  TNC     s:15647+6,QL
         1 003654   004212 710000 1                  TRA     s:16721
         1 003655   004212 710000 1                  TRA     s:16721
         1 003656   004212 710000 1                  TRA     s:16721
         1 003657   004214 710000 1                  TRA     s:16723
         1 003660   004212 710000 1                  TRA     s:16721
         1 003661   003713 710000 1                  TRA     s:15653
         1 003662   004212 710000 1                  TRA     s:16721
         1 003663   003724 710000 1                  TRA     s:15666
         1 003664   003754 710000 1                  TRA     s:15778
         1 003665   003754 710000 1                  TRA     s:15778
         1 003666   004047 710000 1                  TRA     s:16188
         1 003667   004047 710000 1                  TRA     s:16188
         1 003670   004047 710000 1                  TRA     s:16188
         1 003671   004047 710000 1                  TRA     s:16188
         1 003672   004212 710000 1                  TRA     s:16721
         1 003673   004212 710000 1                  TRA     s:16721
         1 003674   004212 710000 1                  TRA     s:16721
         1 003675   004212 710000 1                  TRA     s:16721
         1 003676   004212 710000 1                  TRA     s:16721
         1 003677   004212 710000 1                  TRA     s:16721
         1 003700   004212 710000 1                  TRA     s:16721
         1 003701   004212 710000 1                  TRA     s:16721
         1 003702   004212 710000 1                  TRA     s:16721
PL6.E3A0      #001=XSS$MACHINE File=XSS$MACHINE.:XSA1TSI                         WED 10/01/97 12:18 Page:261
         1 003703   004047 710000 1                  TRA     s:16188
         1 003704   004214 710000 1                  TRA     s:16723
         1 003705   004212 710000 1                  TRA     s:16721
         1 003706   004067 710000 1                  TRA     s:16296
         1 003707   004212 710000 1                  TRA     s:16721
         1 003710   004113 710000 1                  TRA     s:16406
         1 003711   004212 710000 1                  TRA     s:16721
         1 003712   004143 710000 1                  TRA     s:16517

      741    15648    3                   CASE( %XSS_SST_01A,

      742    15649    3                         %XSS_SST_16);
      743    15650    3                       ;  /* don't do anything */
      744    15651    3                   CASE( %XSS_SST_01C);

      745    15652                            %EVENT( EV=%XSS_SEV_TDISREQ);

  15653  1 003713   000006 236000 2                  LDQ     6
         1 003714   200021 756100                    STQ     CONTINUING+5,,AUTO
         1 003715   020166 701000 1                  TSX1    EVNT
         1 003716   020066 702000 1                  TSX2    EVNTERR

      746    15655    3                       SCTX.STATE = %XSS_SST_01;

  15655  1 003717   200003 470500                    LDP0    @VBLK,,AUTO
         1 003720   000000 471500                    LDP1    0,,PR0
         1 003721   001000 236003                    LDQ     512,DU
         1 003722   100000 552140                    STBQ    0,'40'O,PR1
         1 003723   020065 710000 1                  TRA     s:41916

      747    15656    3                   CASE( %XSS_SST_03);

      748    15657                            %IFPREDDO( P="52");

  15666  1 003724   400000 236003                    LDQ     -131072,DU
         1 003725   200014 756100                    STQ     CONTINUING,,AUTO

PL6.E3A0      #001=XSS$MACHINE File=XSS$MACHINE.:XSA1TSI                         WED 10/01/97 12:18 Page:262
  15726  1 003726   200012 236100                    LDQ     ZPINV+1,,AUTO
         1 003727   000002 316003                    CANQ    2,DU
         1 003730   003733 600000 1                  TZE     s:15736

  15726  1 003731   024267 701000 1                  TSX1    PRED52
         1 003732   020067 702000 1                  TSX2    ACTIONERR

  15736  1 003733   200007 236100                    LDQ     ZPRED+1,,AUTO
         1 003734   000002 316003                    CANQ    2,DU
         1 003735   003747 600000 1                  TZE     s:15765

  15755  1 003736   200014 450100                    STZ     CONTINUING,,AUTO

      749    15757                                %EVENT( EV=%XSS_SEV_SPERIND);

  15758  1 003737   000050 236000 2                  LDQ     40
         1 003740   200021 756100                    STQ     CONTINUING+5,,AUTO
         1 003741   020166 701000 1                  TSX1    EVNT
         1 003742   020066 702000 1                  TSX2    EVNTERR

      750    15760    4                           SCTX.STATE = %XSS_SST_20;

  15760  1 003743   200003 470500                    LDP0    @VBLK,,AUTO
         1 003744   000000 471500                    LDP1    0,,PR0
         1 003745   032000 236003                    LDQ     13312,DU
         1 003746   100000 552140                    STBQ    0,'40'O,PR1

      751    15761    4                           END;

      752    15762                            %ENDPREDDO;

  15765  1 003747   200014 234100                    SZN     CONTINUING,,AUTO
         1 003750   020065 605000 1                  TPL     s:41916

  15765  1 003751   020773 701000 1                  TSX1    OOPS
         1 003752   000000 011000                    NOP     0
         1 003753   020065 710000 1                  TRA     s:41916
PL6.E3A0      #001=XSS$MACHINE File=XSS$MACHINE.:XSA1TSI                         WED 10/01/97 12:18 Page:263

      753    15767    3                   CASE( %XSS_SST_04A,

      754    15768    3                         %XSS_SST_04B);
      755    15769                            %IFPREDDO( P="48&03");

  15778  1 003754   400000 236003                    LDQ     -131072,DU
         1 003755   200014 756100                    STQ     CONTINUING,,AUTO

  15824  1 003756   200012 236100                    LDQ     ZPINV+1,,AUTO
         1 003757   000040 316003                    CANQ    32,DU
         1 003760   003763 600000 1                  TZE     s:15833

  15824  1 003761   024072 701000 1                  TSX1    PRED48
         1 003762   020067 702000 1                  TSX2    ACTIONERR

  15833  1 003763   200007 236100                    LDQ     ZPRED+1,,AUTO
         1 003764   000040 316003                    CANQ    32,DU
         1 003765   004007 600000 1                  TZE     s:15966

  15908  1 003766   200011 236100                    LDQ     ZPINV,,AUTO
         1 003767   040000 316003                    CANQ    16384,DU
         1 003770   003773 600000 1                  TZE     s:15918

  15908  1 003771   022175 701000 1                  TSX1    PRED03
         1 003772   020067 702000 1                  TSX2    ACTIONERR

  15918  1 003773   200006 236100                    LDQ     ZPRED,,AUTO
         1 003774   040000 316003                    CANQ    16384,DU
         1 003775   004007 600000 1                  TZE     s:15966

  15952  1 003776   200014 450100                    STZ     CONTINUING,,AUTO

      756    15954                                %EVENT( EV=%XSS_SEV_SPERIND);

  15955  1 003777   000050 236000 2                  LDQ     40
         1 004000   200021 756100                    STQ     CONTINUING+5,,AUTO
PL6.E3A0      #001=XSS$MACHINE File=XSS$MACHINE.:XSA1TSI                         WED 10/01/97 12:18 Page:264
         1 004001   020166 701000 1                  TSX1    EVNT
         1 004002   020066 702000 1                  TSX2    EVNTERR

      757    15957    4                           SCTX.STATE = %XSS_SST_20;

  15957  1 004003   200003 470500                    LDP0    @VBLK,,AUTO
         1 004004   000000 471500                    LDP1    0,,PR0
         1 004005   032000 236003                    LDQ     13312,DU
         1 004006   100000 552140                    STBQ    0,'40'O,PR1

      758    15958    4                           END;

      759    15959                            %ELSEPREDDO( P="48&-03");

  15966  1 004007   200014 234100                    SZN     CONTINUING,,AUTO
         1 004010   004042 605000 1                  TPL     s:16172

  16011  1 004011   200012 236100                    LDQ     ZPINV+1,,AUTO
         1 004012   000040 316003                    CANQ    32,DU
         1 004013   004016 600000 1                  TZE     s:16020

  16011  1 004014   024072 701000 1                  TSX1    PRED48
         1 004015   020067 702000 1                  TSX2    ACTIONERR

  16020  1 004016   200007 236100                    LDQ     ZPRED+1,,AUTO
         1 004017   000040 316003                    CANQ    32,DU
         1 004020   004042 600000 1                  TZE     s:16172

  16113  1 004021   200011 236100                    LDQ     ZPINV,,AUTO
         1 004022   040000 316003                    CANQ    16384,DU
         1 004023   004026 600000 1                  TZE     s:16123

  16113  1 004024   022175 701000 1                  TSX1    PRED03
         1 004025   020067 702000 1                  TSX2    ACTIONERR

  16123  1 004026   200006 236100                    LDQ     ZPRED,,AUTO
         1 004027   040000 316003                    CANQ    16384,DU
PL6.E3A0      #001=XSS$MACHINE File=XSS$MACHINE.:XSA1TSI                         WED 10/01/97 12:18 Page:265
         1 004030   004042 601000 1                  TNZ     s:16172

  16162  1 004031   200014 450100                    STZ     CONTINUING,,AUTO

      760    16164                                %EVENT( EV=%XSS_SEV_SPERIND);

  16165  1 004032   000050 236000 2                  LDQ     40
         1 004033   200021 756100                    STQ     CONTINUING+5,,AUTO
         1 004034   020166 701000 1                  TSX1    EVNT
         1 004035   020066 702000 1                  TSX2    EVNTERR

      761    16167    4                           SCTX.STATE = %XSS_SST_713;

  16167  1 004036   200003 470500                    LDP0    @VBLK,,AUTO
         1 004037   000000 471500                    LDP1    0,,PR0
         1 004040   035000 236003                    LDQ     14848,DU
         1 004041   100000 552140                    STBQ    0,'40'O,PR1

      762    16168    4                           END;

      763    16169                            %ENDPREDDO;

  16172  1 004042   200014 234100                    SZN     CONTINUING,,AUTO
         1 004043   020065 605000 1                  TPL     s:41916

  16172  1 004044   020773 701000 1                  TSX1    OOPS
         1 004045   000000 011000                    NOP     0
         1 004046   020065 710000 1                  TRA     s:41916

      764    16174    3                   CASE( %XSS_SST_05A,

      765    16175    3                         %XSS_SST_05B,
      766    16176    3                         %XSS_SST_05C,
      767    16177    3                         %XSS_SST_06,
      768    16178    3                         %XSS_SST_15C);
      769    16179                            %IFPREDDO( P="48");

PL6.E3A0      #001=XSS$MACHINE File=XSS$MACHINE.:XSA1TSI                         WED 10/01/97 12:18 Page:266
  16188  1 004047   400000 236003                    LDQ     -131072,DU
         1 004050   200014 756100                    STQ     CONTINUING,,AUTO

  16248  1 004051   200012 236100                    LDQ     ZPINV+1,,AUTO
         1 004052   000040 316003                    CANQ    32,DU
         1 004053   004056 600000 1                  TZE     s:16258

  16248  1 004054   024072 701000 1                  TSX1    PRED48
         1 004055   020067 702000 1                  TSX2    ACTIONERR

  16258  1 004056   200007 236100                    LDQ     ZPRED+1,,AUTO
         1 004057   000040 316003                    CANQ    32,DU
         1 004060   004062 600000 1                  TZE     s:16284

  16277  1 004061   200014 450100                    STZ     CONTINUING,,AUTO

      770    16279    4                           ;  /* don't do anything */
      771    16280    4                           END;

      772    16281                            %ENDPREDDO;

  16284  1 004062   200014 234100                    SZN     CONTINUING,,AUTO
         1 004063   020065 605000 1                  TPL     s:41916

  16284  1 004064   020773 701000 1                  TSX1    OOPS
         1 004065   000000 011000                    NOP     0
         1 004066   020065 710000 1                  TRA     s:41916

      773    16286    3                   CASE( %XSS_SST_19);

      774    16287                            %IFPREDDO( P="50");

  16296  1 004067   400000 236003                    LDQ     -131072,DU
         1 004070   200014 756100                    STQ     CONTINUING,,AUTO

  16356  1 004071   200012 236100                    LDQ     ZPINV+1,,AUTO
         1 004072   000010 316003                    CANQ    8,DU
PL6.E3A0      #001=XSS$MACHINE File=XSS$MACHINE.:XSA1TSI                         WED 10/01/97 12:18 Page:267
         1 004073   004076 600000 1                  TZE     s:16366

  16356  1 004074   024155 701000 1                  TSX1    PRED50
         1 004075   020067 702000 1                  TSX2    ACTIONERR

  16366  1 004076   200007 236100                    LDQ     ZPRED+1,,AUTO
         1 004077   000010 316003                    CANQ    8,DU
         1 004100   004106 600000 1                  TZE     s:16394

  16385  1 004101   200014 450100                    STZ     CONTINUING,,AUTO

      775    16387                                %EVENT( EV=%XSS_SEV_SPERIND);

  16388  1 004102   000050 236000 2                  LDQ     40
         1 004103   200021 756100                    STQ     CONTINUING+5,,AUTO
         1 004104   020166 701000 1                  TSX1    EVNT
         1 004105   020066 702000 1                  TSX2    EVNTERR

      776    16390    4                           END;

      777    16391                            %ENDPREDDO;

  16394  1 004106   200014 234100                    SZN     CONTINUING,,AUTO
         1 004107   020065 605000 1                  TPL     s:41916

  16394  1 004110   020773 701000 1                  TSX1    OOPS
         1 004111   000000 011000                    NOP     0
         1 004112   020065 710000 1                  TRA     s:41916

      778    16396    3                   CASE( %XSS_SST_21);

      779    16397                            %IFPREDDO( P="48");

  16406  1 004113   400000 236003                    LDQ     -131072,DU
         1 004114   200014 756100                    STQ     CONTINUING,,AUTO

  16466  1 004115   200012 236100                    LDQ     ZPINV+1,,AUTO
PL6.E3A0      #001=XSS$MACHINE File=XSS$MACHINE.:XSA1TSI                         WED 10/01/97 12:18 Page:268
         1 004116   000040 316003                    CANQ    32,DU
         1 004117   004122 600000 1                  TZE     s:16476

  16466  1 004120   024072 701000 1                  TSX1    PRED48
         1 004121   020067 702000 1                  TSX2    ACTIONERR

  16476  1 004122   200007 236100                    LDQ     ZPRED+1,,AUTO
         1 004123   000040 316003                    CANQ    32,DU
         1 004124   004136 600000 1                  TZE     s:16505

  16495  1 004125   200014 450100                    STZ     CONTINUING,,AUTO

      780    16497                                %EVENT( EV=%XSS_SEV_SPERIND);

  16498  1 004126   000050 236000 2                  LDQ     40
         1 004127   200021 756100                    STQ     CONTINUING+5,,AUTO
         1 004130   020166 701000 1                  TSX1    EVNT
         1 004131   020066 702000 1                  TSX2    EVNTERR

      781    16500    4                           SCTX.STATE = %XSS_SST_20;

  16500  1 004132   200003 470500                    LDP0    @VBLK,,AUTO
         1 004133   000000 471500                    LDP1    0,,PR0
         1 004134   032000 236003                    LDQ     13312,DU
         1 004135   100000 552140                    STBQ    0,'40'O,PR1

      782    16501    4                           END;

      783    16502                            %ENDPREDDO;

  16505  1 004136   200014 234100                    SZN     CONTINUING,,AUTO
         1 004137   020065 605000 1                  TPL     s:41916

  16505  1 004140   020773 701000 1                  TSX1    OOPS
         1 004141   000000 011000                    NOP     0
         1 004142   020065 710000 1                  TRA     s:41916

PL6.E3A0      #001=XSS$MACHINE File=XSS$MACHINE.:XSA1TSI                         WED 10/01/97 12:18 Page:269
      784    16507    3                   CASE( %XSS_SST_713);

      785    16508                            %IFPREDDO( P="50");

  16517  1 004143   400000 236003                    LDQ     -131072,DU
         1 004144   200014 756100                    STQ     CONTINUING,,AUTO

  16577  1 004145   200012 236100                    LDQ     ZPINV+1,,AUTO
         1 004146   000010 316003                    CANQ    8,DU
         1 004147   004152 600000 1                  TZE     s:16587

  16577  1 004150   024155 701000 1                  TSX1    PRED50
         1 004151   020067 702000 1                  TSX2    ACTIONERR

  16587  1 004152   200007 236100                    LDQ     ZPRED+1,,AUTO
         1 004153   000010 316003                    CANQ    8,DU
         1 004154   004162 600000 1                  TZE     s:16619

  16606  1 004155   200014 450100                    STZ     CONTINUING,,AUTO

      786    16608                                %EVENT( EV=%XSS_SEV_SPERIND);

  16609  1 004156   000050 236000 2                  LDQ     40
         1 004157   200021 756100                    STQ     CONTINUING+5,,AUTO
         1 004160   020166 701000 1                  TSX1    EVNT
         1 004161   020066 702000 1                  TSX2    EVNTERR

      787    16611    4                           END;

      788    16612                            %ELSEPREDDO( P="51");

  16619  1 004162   200014 234100                    SZN     CONTINUING,,AUTO
         1 004163   004205 605000 1                  TPL     s:16717

  16678  1 004164   200012 236100                    LDQ     ZPINV+1,,AUTO
         1 004165   000004 316003                    CANQ    4,DU
         1 004166   004171 600000 1                  TZE     s:16688
PL6.E3A0      #001=XSS$MACHINE File=XSS$MACHINE.:XSA1TSI                         WED 10/01/97 12:18 Page:270

  16678  1 004167   024222 701000 1                  TSX1    PRED51
         1 004170   020067 702000 1                  TSX2    ACTIONERR

  16688  1 004171   200007 236100                    LDQ     ZPRED+1,,AUTO
         1 004172   000004 316003                    CANQ    4,DU
         1 004173   004205 600000 1                  TZE     s:16717

  16707  1 004174   200014 450100                    STZ     CONTINUING,,AUTO

      789    16709                                %EVENT( EV=%XSS_SEV_SPERIND);

  16710  1 004175   000050 236000 2                  LDQ     40
         1 004176   200021 756100                    STQ     CONTINUING+5,,AUTO
         1 004177   020166 701000 1                  TSX1    EVNT
         1 004200   020066 702000 1                  TSX2    EVNTERR

      790    16712    4                           SCTX.STATE = %XSS_SST_20;

  16712  1 004201   200003 470500                    LDP0    @VBLK,,AUTO
         1 004202   000000 471500                    LDP1    0,,PR0
         1 004203   032000 236003                    LDQ     13312,DU
         1 004204   100000 552140                    STBQ    0,'40'O,PR1

      791    16713    4                           END;

      792    16714                            %ENDPREDDO;

  16717  1 004205   200014 234100                    SZN     CONTINUING,,AUTO
         1 004206   020065 605000 1                  TPL     s:41916

  16717  1 004207   020773 701000 1                  TSX1    OOPS
         1 004210   000000 011000                    NOP     0
         1 004211   020065 710000 1                  TRA     s:41916

      793    16719    3                   CASE( ELSE);

PL6.E3A0      #001=XSS$MACHINE File=XSS$MACHINE.:XSA1TSI                         WED 10/01/97 12:18 Page:271
      794    16720                            %INVALID;

  16721  1 004212   020773 701000 1                  TSX1    OOPS
         1 004213   000000 011000                    NOP     0

      795    16723    3                   END;

  16723  1 004214   020065 710000 1                  TRA     s:41916

      796    16724        %EJECT;
PL6.E3A0      #001=XSS$MACHINE File=XSS$MACHINE.:XSA1TSI                         WED 10/01/97 12:18 Page:272
      797    16725        /*****************************************************************************
      798    16726        *
      799    16727        *       EX              EXPEDITED DATA SPDU
      800    16728        *
      801    16729        *****************************************************************************/
      802    16730    2           CASE( %XSS_SEV_EX);                             /* TABLE 46 */

      803    16731    3               DO CASE( SCTX.STATE);

  16731  1 004215   000000 471500                    LDP1    0,,PR0
         1 004216   100000 236100                    LDQ     0,,PR1
         1 004217   000033 772000                    QRL     27
         1 004220   000036 116007                    CMPQ    30,DL
         1 004221   004223 602006 1                  TNC     s:16731+6,QL
         1 004222   004401 710000 1                  TRA     s:17194
         1 004223   004401 710000 1                  TRA     s:17194
         1 004224   004401 710000 1                  TRA     s:17194
         1 004225   004403 710000 1                  TRA     s:17196
         1 004226   004401 710000 1                  TRA     s:17194
         1 004227   004261 710000 1                  TRA     s:16737
         1 004230   004272 710000 1                  TRA     s:16742
         1 004231   004275 710000 1                  TRA     s:16754
         1 004232   004321 710000 1                  TRA     s:16868
         1 004233   004321 710000 1                  TRA     s:16868
         1 004234   004343 710000 1                  TRA     s:16982
         1 004235   004343 710000 1                  TRA     s:16982
         1 004236   004343 710000 1                  TRA     s:16982
         1 004237   004361 710000 1                  TRA     s:17092
         1 004240   004401 710000 1                  TRA     s:17194
         1 004241   004401 710000 1                  TRA     s:17194
         1 004242   004401 710000 1                  TRA     s:17194
         1 004243   004401 710000 1                  TRA     s:17194
         1 004244   004401 710000 1                  TRA     s:17194
         1 004245   004401 710000 1                  TRA     s:17194
         1 004246   004401 710000 1                  TRA     s:17194
         1 004247   004361 710000 1                  TRA     s:17092
         1 004250   004401 710000 1                  TRA     s:17194
PL6.E3A0      #001=XSS$MACHINE File=XSS$MACHINE.:XSA1TSI                         WED 10/01/97 12:18 Page:273
         1 004251   004361 710000 1                  TRA     s:17092
         1 004252   004403 710000 1                  TRA     s:17196
         1 004253   004321 710000 1                  TRA     s:16868
         1 004254   004343 710000 1                  TRA     s:16982
         1 004255   004343 710000 1                  TRA     s:16982
         1 004256   004321 710000 1                  TRA     s:16868
         1 004257   004401 710000 1                  TRA     s:17194
         1 004260   004321 710000 1                  TRA     s:16868

      804    16732    3                   CASE( %XSS_SST_01A,

      805    16733    3                         %XSS_SST_16);
      806    16734    3                       ;  /* don't do anything */
      807    16735    3                   CASE( %XSS_SST_01C);

      808    16736                            %EVENT( EV=%XSS_SEV_TDISREQ);

  16737  1 004261   000006 236000 2                  LDQ     6
         1 004262   200021 756100                    STQ     CONTINUING+5,,AUTO
         1 004263   020166 701000 1                  TSX1    EVNT
         1 004264   020066 702000 1                  TSX2    EVNTERR

      809    16739    3                       SCTX.STATE = %XSS_SST_01;

  16739  1 004265   200003 470500                    LDP0    @VBLK,,AUTO
         1 004266   000000 471500                    LDP1    0,,PR0
         1 004267   001000 236003                    LDQ     512,DU
         1 004270   100000 552140                    STBQ    0,'40'O,PR1
         1 004271   020065 710000 1                  TRA     s:41916

      810    16740    3                   CASE( %XSS_SST_02A);

      811    16741                            %ACTION10;

  16742  1 004272   021336 701000 1                  TSX1    ACTION10
         1 004273   020067 702000 1                  TSX2    ACTIONERR
         1 004274   020065 710000 1                  TRA     s:41916
PL6.E3A0      #001=XSS$MACHINE File=XSS$MACHINE.:XSA1TSI                         WED 10/01/97 12:18 Page:274

      812    16744    3                   CASE( %XSS_SST_03);

      813    16745                            %IFPREDDO( P="09");

  16754  1 004275   400000 236003                    LDQ     -131072,DU
         1 004276   200014 756100                    STQ     CONTINUING,,AUTO

  16814  1 004277   200011 236100                    LDQ     ZPINV,,AUTO
         1 004300   000400 316003                    CANQ    256,DU
         1 004301   004304 600000 1                  TZE     s:16824

  16814  1 004302   022317 701000 1                  TSX1    PRED09
         1 004303   020067 702000 1                  TSX2    ACTIONERR

  16824  1 004304   200006 236100                    LDQ     ZPRED,,AUTO
         1 004305   000400 316003                    CANQ    256,DU
         1 004306   004314 600000 1                  TZE     s:16852

  16843  1 004307   200014 450100                    STZ     CONTINUING,,AUTO

      814    16845                                %EVENT( EV=%XSS_SEV_SEXPIND);

  16846  1 004310   000052 236000 2                  LDQ     42
         1 004311   200021 756100                    STQ     CONTINUING+5,,AUTO
         1 004312   020166 701000 1                  TSX1    EVNT
         1 004313   020066 702000 1                  TSX2    EVNTERR

      815    16848    4                           END;

      816    16849                            %ENDPREDDO;

  16852  1 004314   200014 234100                    SZN     CONTINUING,,AUTO
         1 004315   020065 605000 1                  TPL     s:41916

  16852  1 004316   020773 701000 1                  TSX1    OOPS
         1 004317   000000 011000                    NOP     0
PL6.E3A0      #001=XSS$MACHINE File=XSS$MACHINE.:XSA1TSI                         WED 10/01/97 12:18 Page:275
         1 004320   020065 710000 1                  TRA     s:41916

      817    16854    3                   CASE( %XSS_SST_04A,

      818    16855    3                         %XSS_SST_04B,
      819    16856    3                         %XSS_SST_18,
      820    16857    3                         %XSS_SST_21,
      821    16858    3                         %XSS_SST_713);
      822    16859                            %IFPREDDO( P="08");

  16868  1 004321   400000 236003                    LDQ     -131072,DU
         1 004322   200014 756100                    STQ     CONTINUING,,AUTO

  16928  1 004323   200011 430100                    FSZN    ZPINV,,AUTO
         1 004324   004327 605000 1                  TPL     s:16938

  16928  1 004325   022304 701000 1                  TSX1    PRED08
         1 004326   020067 702000 1                  TSX2    ACTIONERR

  16938  1 004327   200006 430100                    FSZN    ZPRED,,AUTO
         1 004330   004336 605000 1                  TPL     s:16966

  16957  1 004331   200014 450100                    STZ     CONTINUING,,AUTO

      823    16959                                %EVENT( EV=%XSS_SEV_SEXPIND);

  16960  1 004332   000052 236000 2                  LDQ     42
         1 004333   200021 756100                    STQ     CONTINUING+5,,AUTO
         1 004334   020166 701000 1                  TSX1    EVNT
         1 004335   020066 702000 1                  TSX2    EVNTERR

      824    16962    4                           END;

      825    16963                            %ENDPREDDO;

  16966  1 004336   200014 234100                    SZN     CONTINUING,,AUTO
         1 004337   020065 605000 1                  TPL     s:41916
PL6.E3A0      #001=XSS$MACHINE File=XSS$MACHINE.:XSA1TSI                         WED 10/01/97 12:18 Page:276

  16966  1 004340   020773 701000 1                  TSX1    OOPS
         1 004341   000000 011000                    NOP     0
         1 004342   020065 710000 1                  TRA     s:41916

      826    16968    3                   CASE( %XSS_SST_05A,

      827    16969    3                         %XSS_SST_05B,
      828    16970    3                         %XSS_SST_05C,
      829    16971    3                         %XSS_SST_19,
      830    16972    3                         %XSS_SST_20);
      831    16973                            %IFPREDDO( P="08");

  16982  1 004343   400000 236003                    LDQ     -131072,DU
         1 004344   200014 756100                    STQ     CONTINUING,,AUTO

  17042  1 004345   200011 430100                    FSZN    ZPINV,,AUTO
         1 004346   004351 605000 1                  TPL     s:17052

  17042  1 004347   022304 701000 1                  TSX1    PRED08
         1 004350   020067 702000 1                  TSX2    ACTIONERR

  17052  1 004351   200006 430100                    FSZN    ZPRED,,AUTO
         1 004352   004354 605000 1                  TPL     s:17078

  17071  1 004353   200014 450100                    STZ     CONTINUING,,AUTO

      832    17073    4                           ;  /* don't do anything */
      833    17074    4                           END;

      834    17075                            %ENDPREDDO;

  17078  1 004354   200014 234100                    SZN     CONTINUING,,AUTO
         1 004355   020065 605000 1                  TPL     s:41916

  17078  1 004356   020773 701000 1                  TSX1    OOPS
         1 004357   000000 011000                    NOP     0
PL6.E3A0      #001=XSS$MACHINE File=XSS$MACHINE.:XSA1TSI                         WED 10/01/97 12:18 Page:277
         1 004360   020065 710000 1                  TRA     s:41916

      835    17080    3                   CASE( %XSS_SST_06,

      836    17081    3                         %XSS_SST_15A,
      837    17082    3                         %XSS_SST_15C);
      838    17083                            %IFPREDDO( P="08");

  17092  1 004361   400000 236003                    LDQ     -131072,DU
         1 004362   200014 756100                    STQ     CONTINUING,,AUTO

  17152  1 004363   200011 430100                    FSZN    ZPINV,,AUTO
         1 004364   004367 605000 1                  TPL     s:17162

  17152  1 004365   022304 701000 1                  TSX1    PRED08
         1 004366   020067 702000 1                  TSX2    ACTIONERR

  17162  1 004367   200006 430100                    FSZN    ZPRED,,AUTO
         1 004370   004374 605000 1                  TPL     s:17190

  17181  1 004371   200014 450100                    STZ     CONTINUING,,AUTO

      839    17183                                %ACTION10;

  17184  1 004372   021336 701000 1                  TSX1    ACTION10
         1 004373   020067 702000 1                  TSX2    ACTIONERR

      840    17186    4                           END;

      841    17187                            %ENDPREDDO;

  17190  1 004374   200014 234100                    SZN     CONTINUING,,AUTO
         1 004375   020065 605000 1                  TPL     s:41916

  17190  1 004376   020773 701000 1                  TSX1    OOPS
         1 004377   000000 011000                    NOP     0
         1 004400   020065 710000 1                  TRA     s:41916
PL6.E3A0      #001=XSS$MACHINE File=XSS$MACHINE.:XSA1TSI                         WED 10/01/97 12:18 Page:278

      842    17192    3                   CASE( ELSE);

      843    17193                            %INVALID;

  17194  1 004401   020773 701000 1                  TSX1    OOPS
         1 004402   000000 011000                    NOP     0

      844    17196    3                   END;

  17196  1 004403   020065 710000 1                  TRA     s:41916

      845    17197        %EJECT;
PL6.E3A0      #001=XSS$MACHINE File=XSS$MACHINE.:XSA1TSI                         WED 10/01/97 12:18 Page:279
      846    17198        /*****************************************************************************
      847    17199        *
      848    17200        *       FN-nr           FINISH (NO REUSE) SPDU
      849    17201        *
      850    17202        *****************************************************************************/
      851    17203    2           CASE( %XSS_SEV_FN_NR);                          /* TABLE 52 */

      852    17204    3               DO CASE( SCTX.STATE);

  17204  1 004404   000000 471500                    LDP1    0,,PR0
         1 004405   100000 236100                    LDQ     0,,PR1
         1 004406   000033 772000                    QRL     27
         1 004407   000036 116007                    CMPQ    30,DL
         1 004410   004412 602006 1                  TNC     s:17204+6,QL
         1 004411   004567 710000 1                  TRA     s:17581
         1 004412   004567 710000 1                  TRA     s:17581
         1 004413   004567 710000 1                  TRA     s:17581
         1 004414   004571 710000 1                  TRA     s:17583
         1 004415   004567 710000 1                  TRA     s:17581
         1 004416   004450 710000 1                  TRA     s:17210
         1 004417   004567 710000 1                  TRA     s:17581
         1 004420   004461 710000 1                  TRA     s:17223
         1 004421   004567 710000 1                  TRA     s:17581
         1 004422   004567 710000 1                  TRA     s:17581
         1 004423   004515 710000 1                  TRA     s:17367
         1 004424   004567 710000 1                  TRA     s:17581
         1 004425   004567 710000 1                  TRA     s:17581
         1 004426   004515 710000 1                  TRA     s:17367
         1 004427   004567 710000 1                  TRA     s:17581
         1 004430   004567 710000 1                  TRA     s:17581
         1 004431   004567 710000 1                  TRA     s:17581
         1 004432   004567 710000 1                  TRA     s:17581
         1 004433   004567 710000 1                  TRA     s:17581
         1 004434   004567 710000 1                  TRA     s:17581
         1 004435   004567 710000 1                  TRA     s:17581
         1 004436   004567 710000 1                  TRA     s:17581
         1 004437   004567 710000 1                  TRA     s:17581
PL6.E3A0      #001=XSS$MACHINE File=XSS$MACHINE.:XSA1TSI                         WED 10/01/97 12:18 Page:280
         1 004440   004515 710000 1                  TRA     s:17367
         1 004441   004571 710000 1                  TRA     s:17583
         1 004442   004567 710000 1                  TRA     s:17581
         1 004443   004515 710000 1                  TRA     s:17367
         1 004444   004515 710000 1                  TRA     s:17367
         1 004445   004567 710000 1                  TRA     s:17581
         1 004446   004567 710000 1                  TRA     s:17581
         1 004447   004535 710000 1                  TRA     s:17475

      853    17205    3                   CASE( %XSS_SST_01A,

      854    17206    3                         %XSS_SST_16);
      855    17207    3                       ;  /* don't do anything */
      856    17208    3                   CASE( %XSS_SST_01C);

      857    17209                            %EVENT( EV=%XSS_SEV_TDISREQ);

  17210  1 004450   000006 236000 2                  LDQ     6
         1 004451   200021 756100                    STQ     CONTINUING+5,,AUTO
         1 004452   020166 701000 1                  TSX1    EVNT
         1 004453   020066 702000 1                  TSX2    EVNTERR

      858    17212    3                       SCTX.STATE = %XSS_SST_01;

  17212  1 004454   200003 470500                    LDP0    @VBLK,,AUTO
         1 004455   000000 471500                    LDP1    0,,PR0
         1 004456   001000 236003                    LDQ     512,DU
         1 004457   100000 552140                    STBQ    0,'40'O,PR1
         1 004460   020065 710000 1                  TRA     s:41916

      859    17213    3                   CASE( %XSS_SST_03);

      860    17214                            %IFPREDDO( P="-65");

  17223  1 004461   400000 236003                    LDQ     -131072,DU
         1 004462   200014 756100                    STQ     CONTINUING,,AUTO

PL6.E3A0      #001=XSS$MACHINE File=XSS$MACHINE.:XSA1TSI                         WED 10/01/97 12:18 Page:281
  17301  1 004463   200012 236100                    LDQ     ZPINV+1,,AUTO
         1 004464   000100 316007                    CANQ    64,DL
         1 004465   004470 600000 1                  TZE     s:17311

  17301  1 004466   025027 701000 1                  TSX1    PRED65
         1 004467   020067 702000 1                  TSX2    ACTIONERR

  17311  1 004470   200007 236100                    LDQ     ZPRED+1,,AUTO
         1 004471   000100 316007                    CANQ    64,DL
         1 004472   004510 601000 1                  TNZ     s:17351

  17335  1 004473   200014 450100                    STZ     CONTINUING,,AUTO

      861    17337                                %EVENT( EV=%XSS_SEV_SRELIND);

  17338  1 004474   000054 236000 2                  LDQ     44
         1 004475   200021 756100                    STQ     CONTINUING+5,,AUTO
         1 004476   020166 701000 1                  TSX1    EVNT
         1 004477   020066 702000 1                  TSX2    EVNTERR

      862    17340                                %ACTION08;

  17341  1 004500   021314 701000 1                  TSX1    ACTION08
         1 004501   020067 702000 1                  TSX2    ACTIONERR

      863    17343                                %ACTION18;

  17344  1 004502   021662 701000 1                  TSX1    ACTION18
         1 004503   020067 702000 1                  TSX2    ACTIONERR

      864    17346    4                           SCTX.STATE = %XSS_SST_09;

  17346  1 004504   200003 470500                    LDP0    @VBLK,,AUTO
         1 004505   000000 471500                    LDP1    0,,PR0
         1 004506   016000 236003                    LDQ     7168,DU
         1 004507   100000 552140                    STBQ    0,'40'O,PR1

PL6.E3A0      #001=XSS$MACHINE File=XSS$MACHINE.:XSA1TSI                         WED 10/01/97 12:18 Page:282
      865    17347    4                           END;

      866    17348                            %ENDPREDDO;

  17351  1 004510   200014 234100                    SZN     CONTINUING,,AUTO
         1 004511   020065 605000 1                  TPL     s:41916

  17351  1 004512   020773 701000 1                  TSX1    OOPS
         1 004513   000000 011000                    NOP     0
         1 004514   020065 710000 1                  TRA     s:41916

      867    17353    3                   CASE( %XSS_SST_05A,

      868    17354    3                         %XSS_SST_06,
      869    17355    3                         %XSS_SST_15C,
      870    17356    3                         %XSS_SST_19,
      871    17357    3                         %XSS_SST_20);
      872    17358                            %IFPREDDO( P="68");

  17367  1 004515   400000 236003                    LDQ     -131072,DU
         1 004516   200014 756100                    STQ     CONTINUING,,AUTO

  17427  1 004517   200012 236100                    LDQ     ZPINV+1,,AUTO
         1 004520   000010 316007                    CANQ    8,DL
         1 004521   004524 600000 1                  TZE     s:17437

  17427  1 004522   025075 701000 1                  TSX1    PRED68
         1 004523   020067 702000 1                  TSX2    ACTIONERR

  17437  1 004524   200007 236100                    LDQ     ZPRED+1,,AUTO
         1 004525   000010 316007                    CANQ    8,DL
         1 004526   004530 600000 1                  TZE     s:17463

  17456  1 004527   200014 450100                    STZ     CONTINUING,,AUTO

      873    17458    4                           ;  /* don't do anything */
      874    17459    4                           END;
PL6.E3A0      #001=XSS$MACHINE File=XSS$MACHINE.:XSA1TSI                         WED 10/01/97 12:18 Page:283

      875    17460                            %ENDPREDDO;

  17463  1 004530   200014 234100                    SZN     CONTINUING,,AUTO
         1 004531   020065 605000 1                  TPL     s:41916

  17463  1 004532   020773 701000 1                  TSX1    OOPS
         1 004533   000000 011000                    NOP     0
         1 004534   020065 710000 1                  TRA     s:41916

      876    17465    3                   CASE( %XSS_SST_713);

      877    17466                            %IFPREDDO( P="68");

  17475  1 004535   400000 236003                    LDQ     -131072,DU
         1 004536   200014 756100                    STQ     CONTINUING,,AUTO

  17535  1 004537   200012 236100                    LDQ     ZPINV+1,,AUTO
         1 004540   000010 316007                    CANQ    8,DL
         1 004541   004544 600000 1                  TZE     s:17545

  17535  1 004542   025075 701000 1                  TSX1    PRED68
         1 004543   020067 702000 1                  TSX2    ACTIONERR

  17545  1 004544   200007 236100                    LDQ     ZPRED+1,,AUTO
         1 004545   000010 316007                    CANQ    8,DL
         1 004546   004562 600000 1                  TZE     s:17577

  17564  1 004547   200014 450100                    STZ     CONTINUING,,AUTO

      878    17566                                %EVENT( EV=%XSS_SEV_SRELIND);

  17567  1 004550   000054 236000 2                  LDQ     44
         1 004551   200021 756100                    STQ     CONTINUING+5,,AUTO
         1 004552   020166 701000 1                  TSX1    EVNT
         1 004553   020066 702000 1                  TSX2    EVNTERR

PL6.E3A0      #001=XSS$MACHINE File=XSS$MACHINE.:XSA1TSI                         WED 10/01/97 12:18 Page:284
      879    17569                                %ACTION08;

  17570  1 004554   021314 701000 1                  TSX1    ACTION08
         1 004555   020067 702000 1                  TSX2    ACTIONERR

      880    17572    4                           SCTX.STATE = %XSS_SST_09;

  17572  1 004556   200003 470500                    LDP0    @VBLK,,AUTO
         1 004557   000000 471500                    LDP1    0,,PR0
         1 004560   016000 236003                    LDQ     7168,DU
         1 004561   100000 552140                    STBQ    0,'40'O,PR1

      881    17573    4                           END;

      882    17574                            %ENDPREDDO;

  17577  1 004562   200014 234100                    SZN     CONTINUING,,AUTO
         1 004563   020065 605000 1                  TPL     s:41916

  17577  1 004564   020773 701000 1                  TSX1    OOPS
         1 004565   000000 011000                    NOP     0
         1 004566   020065 710000 1                  TRA     s:41916

      883    17579    3                   CASE( ELSE);

      884    17580                            %INVALID;

  17581  1 004567   020773 701000 1                  TSX1    OOPS
         1 004570   000000 011000                    NOP     0

      885    17583    3                   END;

  17583  1 004571   020065 710000 1                  TRA     s:41916

      886    17584        %EJECT;
PL6.E3A0      #001=XSS$MACHINE File=XSS$MACHINE.:XSA1TSI                         WED 10/01/97 12:18 Page:285
      887    17585        /*****************************************************************************
      888    17586        *
      889    17587        *       FN-r            FINISH (REUSE) SPDU
      890    17588        *
      891    17589        *****************************************************************************/
      892    17590    2           CASE( %XSS_SEV_FN_R);                           /* TABLE 52 */

      893    17591    3               DO CASE( SCTX.STATE);

  17591  1 004572   000000 471500                    LDP1    0,,PR0
         1 004573   100000 236100                    LDQ     0,,PR1
         1 004574   000033 772000                    QRL     27
         1 004575   000036 116007                    CMPQ    30,DL
         1 004576   004600 602006 1                  TNC     s:17591+6,QL
         1 004577   005035 710000 1                  TRA     s:18546
         1 004600   005035 710000 1                  TRA     s:18546
         1 004601   005035 710000 1                  TRA     s:18546
         1 004602   005037 710000 1                  TRA     s:18548
         1 004603   005035 710000 1                  TRA     s:18546
         1 004604   004636 710000 1                  TRA     s:17597
         1 004605   005035 710000 1                  TRA     s:18546
         1 004606   004647 710000 1                  TRA     s:17610
         1 004607   005035 710000 1                  TRA     s:18546
         1 004610   005035 710000 1                  TRA     s:18546
         1 004611   004723 710000 1                  TRA     s:17946
         1 004612   005035 710000 1                  TRA     s:18546
         1 004613   005035 710000 1                  TRA     s:18546
         1 004614   005035 710000 1                  TRA     s:18546
         1 004615   005035 710000 1                  TRA     s:18546
         1 004616   005035 710000 1                  TRA     s:18546
         1 004617   005035 710000 1                  TRA     s:18546
         1 004620   005035 710000 1                  TRA     s:18546
         1 004621   005035 710000 1                  TRA     s:18546
         1 004622   005035 710000 1                  TRA     s:18546
         1 004623   005035 710000 1                  TRA     s:18546
         1 004624   005035 710000 1                  TRA     s:18546
         1 004625   005035 710000 1                  TRA     s:18546
PL6.E3A0      #001=XSS$MACHINE File=XSS$MACHINE.:XSA1TSI                         WED 10/01/97 12:18 Page:286
         1 004626   004723 710000 1                  TRA     s:17946
         1 004627   005037 710000 1                  TRA     s:18548
         1 004630   005035 710000 1                  TRA     s:18546
         1 004631   004723 710000 1                  TRA     s:17946
         1 004632   004723 710000 1                  TRA     s:17946
         1 004633   005035 710000 1                  TRA     s:18546
         1 004634   005035 710000 1                  TRA     s:18546
         1 004635   004763 710000 1                  TRA     s:18247

      894    17592    3                   CASE( %XSS_SST_01A,

      895    17593    3                         %XSS_SST_16);
      896    17594    3                       ;  /* don't do anything */
      897    17595    3                   CASE( %XSS_SST_01C);

      898    17596                            %EVENT( EV=%XSS_SEV_TDISREQ);

  17597  1 004636   000006 236000 2                  LDQ     6
         1 004637   200021 756100                    STQ     CONTINUING+5,,AUTO
         1 004640   020166 701000 1                  TSX1    EVNT
         1 004641   020066 702000 1                  TSX2    EVNTERR

      899    17599    3                       SCTX.STATE = %XSS_SST_01;

  17599  1 004642   200003 470500                    LDP0    @VBLK,,AUTO
         1 004643   000000 471500                    LDP1    0,,PR0
         1 004644   001000 236003                    LDQ     512,DU
         1 004645   100000 552140                    STBQ    0,'40'O,PR1
         1 004646   020065 710000 1                  TRA     s:41916

      900    17600    3                   CASE( %XSS_SST_03);

      901    17601                            %IFPREDDO( P="-65&-01&16");

  17610  1 004647   400000 236003                    LDQ     -131072,DU
         1 004650   200014 756100                    STQ     CONTINUING,,AUTO

PL6.E3A0      #001=XSS$MACHINE File=XSS$MACHINE.:XSA1TSI                         WED 10/01/97 12:18 Page:287
  17674  1 004651   200012 236100                    LDQ     ZPINV+1,,AUTO
         1 004652   000100 316007                    CANQ    64,DL
         1 004653   004656 600000 1                  TZE     s:17683

  17674  1 004654   025027 701000 1                  TSX1    PRED65
         1 004655   020067 702000 1                  TSX2    ACTIONERR

  17683  1 004656   200007 236100                    LDQ     ZPRED+1,,AUTO
         1 004657   000100 316007                    CANQ    64,DL
         1 004660   004716 601000 1                  TNZ     s:17931

  17762  1 004661   200011 236100                    LDQ     ZPINV,,AUTO
         1 004662   200000 316003                    CANQ    65536,DU
         1 004663   004666 600000 1                  TZE     s:17771

  17762  1 004664   022135 701000 1                  TSX1    PRED01
         1 004665   020067 702000 1                  TSX2    ACTIONERR

  17771  1 004666   200006 236100                    LDQ     ZPRED,,AUTO
         1 004667   200000 316003                    CANQ    65536,DU
         1 004670   004716 601000 1                  TNZ     s:17931

  17846  1 004671   200011 236100                    LDQ     ZPINV,,AUTO
         1 004672   000002 316003                    CANQ    2,DU
         1 004673   004676 600000 1                  TZE     s:17856

  17846  1 004674   022637 701000 1                  TSX1    PRED16
         1 004675   020067 702000 1                  TSX2    ACTIONERR

  17856  1 004676   200006 236100                    LDQ     ZPRED,,AUTO
         1 004677   000002 316003                    CANQ    2,DU
         1 004700   004716 600000 1                  TZE     s:17931

  17915  1 004701   200014 450100                    STZ     CONTINUING,,AUTO

      902    17917                                %EVENT( EV=%XSS_SEV_SRELIND);

PL6.E3A0      #001=XSS$MACHINE File=XSS$MACHINE.:XSA1TSI                         WED 10/01/97 12:18 Page:288
  17918  1 004702   000054 236000 2                  LDQ     44
         1 004703   200021 756100                    STQ     CONTINUING+5,,AUTO
         1 004704   020166 701000 1                  TSX1    EVNT
         1 004705   020066 702000 1                  TSX2    EVNTERR

      903    17920                                %ACTION08;

  17921  1 004706   021314 701000 1                  TSX1    ACTION08
         1 004707   020067 702000 1                  TSX2    ACTIONERR

      904    17923                                %ACTION18;

  17924  1 004710   021662 701000 1                  TSX1    ACTION18
         1 004711   020067 702000 1                  TSX2    ACTIONERR

      905    17926    4                           SCTX.STATE = %XSS_SST_09;

  17926  1 004712   200003 470500                    LDP0    @VBLK,,AUTO
         1 004713   000000 471500                    LDP1    0,,PR0
         1 004714   016000 236003                    LDQ     7168,DU
         1 004715   100000 552140                    STBQ    0,'40'O,PR1

      906    17927    4                           END;

      907    17928                            %ENDPREDDO;

  17931  1 004716   200014 234100                    SZN     CONTINUING,,AUTO
         1 004717   020065 605000 1                  TPL     s:41916

  17931  1 004720   020773 701000 1                  TSX1    OOPS
         1 004721   000000 011000                    NOP     0
         1 004722   020065 710000 1                  TRA     s:41916

      908    17933    3                   CASE( %XSS_SST_05A,

      909    17934    3                         %XSS_SST_15C,
      910    17935    3                         %XSS_SST_19,
PL6.E3A0      #001=XSS$MACHINE File=XSS$MACHINE.:XSA1TSI                         WED 10/01/97 12:18 Page:289
      911    17936    3                         %XSS_SST_20);
      912    17937                            %IFPREDDO( P="68&-01&16");

  17946  1 004723   400000 236003                    LDQ     -131072,DU
         1 004724   200014 756100                    STQ     CONTINUING,,AUTO

  17992  1 004725   200012 236100                    LDQ     ZPINV+1,,AUTO
         1 004726   000010 316007                    CANQ    8,DL
         1 004727   004732 600000 1                  TZE     s:18001

  17992  1 004730   025075 701000 1                  TSX1    PRED68
         1 004731   020067 702000 1                  TSX2    ACTIONERR

  18001  1 004732   200007 236100                    LDQ     ZPRED+1,,AUTO
         1 004733   000010 316007                    CANQ    8,DL
         1 004734   004756 600000 1                  TZE     s:18235

  18080  1 004735   200011 236100                    LDQ     ZPINV,,AUTO
         1 004736   200000 316003                    CANQ    65536,DU
         1 004737   004742 600000 1                  TZE     s:18089

  18080  1 004740   022135 701000 1                  TSX1    PRED01
         1 004741   020067 702000 1                  TSX2    ACTIONERR

  18089  1 004742   200006 236100                    LDQ     ZPRED,,AUTO
         1 004743   200000 316003                    CANQ    65536,DU
         1 004744   004756 601000 1                  TNZ     s:18235

  18164  1 004745   200011 236100                    LDQ     ZPINV,,AUTO
         1 004746   000002 316003                    CANQ    2,DU
         1 004747   004752 600000 1                  TZE     s:18174

  18164  1 004750   022637 701000 1                  TSX1    PRED16
         1 004751   020067 702000 1                  TSX2    ACTIONERR

  18174  1 004752   200006 236100                    LDQ     ZPRED,,AUTO
         1 004753   000002 316003                    CANQ    2,DU
PL6.E3A0      #001=XSS$MACHINE File=XSS$MACHINE.:XSA1TSI                         WED 10/01/97 12:18 Page:290
         1 004754   004756 600000 1                  TZE     s:18235

  18228  1 004755   200014 450100                    STZ     CONTINUING,,AUTO

      913    18230    4                           ;  /* don't do anything */
      914    18231    4                           END;

      915    18232                            %ENDPREDDO;

  18235  1 004756   200014 234100                    SZN     CONTINUING,,AUTO
         1 004757   020065 605000 1                  TPL     s:41916

  18235  1 004760   020773 701000 1                  TSX1    OOPS
         1 004761   000000 011000                    NOP     0
         1 004762   020065 710000 1                  TRA     s:41916

      916    18237    3                   CASE( %XSS_SST_713);

      917    18238                            %IFPREDDO( P="68&-01&16");

  18247  1 004763   400000 236003                    LDQ     -131072,DU
         1 004764   200014 756100                    STQ     CONTINUING,,AUTO

  18293  1 004765   200012 236100                    LDQ     ZPINV+1,,AUTO
         1 004766   000010 316007                    CANQ    8,DL
         1 004767   004772 600000 1                  TZE     s:18302

  18293  1 004770   025075 701000 1                  TSX1    PRED68
         1 004771   020067 702000 1                  TSX2    ACTIONERR

  18302  1 004772   200007 236100                    LDQ     ZPRED+1,,AUTO
         1 004773   000010 316007                    CANQ    8,DL
         1 004774   005030 600000 1                  TZE     s:18542

  18381  1 004775   200011 236100                    LDQ     ZPINV,,AUTO
         1 004776   200000 316003                    CANQ    65536,DU
         1 004777   005002 600000 1                  TZE     s:18390
PL6.E3A0      #001=XSS$MACHINE File=XSS$MACHINE.:XSA1TSI                         WED 10/01/97 12:18 Page:291

  18381  1 005000   022135 701000 1                  TSX1    PRED01
         1 005001   020067 702000 1                  TSX2    ACTIONERR

  18390  1 005002   200006 236100                    LDQ     ZPRED,,AUTO
         1 005003   200000 316003                    CANQ    65536,DU
         1 005004   005030 601000 1                  TNZ     s:18542

  18465  1 005005   200011 236100                    LDQ     ZPINV,,AUTO
         1 005006   000002 316003                    CANQ    2,DU
         1 005007   005012 600000 1                  TZE     s:18475

  18465  1 005010   022637 701000 1                  TSX1    PRED16
         1 005011   020067 702000 1                  TSX2    ACTIONERR

  18475  1 005012   200006 236100                    LDQ     ZPRED,,AUTO
         1 005013   000002 316003                    CANQ    2,DU
         1 005014   005030 600000 1                  TZE     s:18542

  18529  1 005015   200014 450100                    STZ     CONTINUING,,AUTO

      918    18531                                %EVENT( EV=%XSS_SEV_SRELIND);

  18532  1 005016   000054 236000 2                  LDQ     44
         1 005017   200021 756100                    STQ     CONTINUING+5,,AUTO
         1 005020   020166 701000 1                  TSX1    EVNT
         1 005021   020066 702000 1                  TSX2    EVNTERR

      919    18534                                %ACTION09;

  18535  1 005022   021322 701000 1                  TSX1    ACTION09
         1 005023   020067 702000 1                  TSX2    ACTIONERR

      920    18537    4                           SCTX.STATE = %XSS_SST_09;

  18537  1 005024   200003 470500                    LDP0    @VBLK,,AUTO
         1 005025   000000 471500                    LDP1    0,,PR0
PL6.E3A0      #001=XSS$MACHINE File=XSS$MACHINE.:XSA1TSI                         WED 10/01/97 12:18 Page:292
         1 005026   016000 236003                    LDQ     7168,DU
         1 005027   100000 552140                    STBQ    0,'40'O,PR1

      921    18538    4                           END;

      922    18539                            %ENDPREDDO;

  18542  1 005030   200014 234100                    SZN     CONTINUING,,AUTO
         1 005031   020065 605000 1                  TPL     s:41916

  18542  1 005032   020773 701000 1                  TSX1    OOPS
         1 005033   000000 011000                    NOP     0
         1 005034   020065 710000 1                  TRA     s:41916

      923    18544    3                   CASE( ELSE);

      924    18545                            %INVALID;

  18546  1 005035   020773 701000 1                  TSX1    OOPS
         1 005036   000000 011000                    NOP     0

      925    18548    3                   END;

  18548  1 005037   020065 710000 1                  TRA     s:41916

      926    18549        %EJECT;
PL6.E3A0      #001=XSS$MACHINE File=XSS$MACHINE.:XSA1TSI                         WED 10/01/97 12:18 Page:293
      927    18550        /*****************************************************************************
      928    18551        *
      929    18552        *       GT              GIVE TOKENS SPDU
      930    18553        *
      931    18554        *****************************************************************************/
      932    18555    2           CASE( %XSS_SEV_GT);                             /* TABLE 51 */

      933    18556    3               DO CASE( SCTX.STATE);

  18556  1 005040   000000 471500                    LDP1    0,,PR0
         1 005041   100000 236100                    LDQ     0,,PR1
         1 005042   000033 772000                    QRL     27
         1 005043   000036 116007                    CMPQ    30,DL
         1 005044   005046 602006 1                  TNC     s:18556+6,QL
         1 005045   005236 710000 1                  TRA     s:19018
         1 005046   005236 710000 1                  TRA     s:19018
         1 005047   005236 710000 1                  TRA     s:19018
         1 005050   005240 710000 1                  TRA     s:19020
         1 005051   005236 710000 1                  TRA     s:19018
         1 005052   005104 710000 1                  TRA     s:18562
         1 005053   005236 710000 1                  TRA     s:19018
         1 005054   005236 710000 1                  TRA     s:19018
         1 005055   005115 710000 1                  TRA     s:18581
         1 005056   005115 710000 1                  TRA     s:18581
         1 005057   005143 710000 1                  TRA     s:18699
         1 005060   005143 710000 1                  TRA     s:18699
         1 005061   005143 710000 1                  TRA     s:18699
         1 005062   005143 710000 1                  TRA     s:18699
         1 005063   005236 710000 1                  TRA     s:19018
         1 005064   005236 710000 1                  TRA     s:19018
         1 005065   005115 710000 1                  TRA     s:18581
         1 005066   005115 710000 1                  TRA     s:18581
         1 005067   005236 710000 1                  TRA     s:19018
         1 005070   005236 710000 1                  TRA     s:19018
         1 005071   005236 710000 1                  TRA     s:19018
         1 005072   005115 710000 1                  TRA     s:18581
         1 005073   005143 710000 1                  TRA     s:18699
PL6.E3A0      #001=XSS$MACHINE File=XSS$MACHINE.:XSA1TSI                         WED 10/01/97 12:18 Page:294
         1 005074   005143 710000 1                  TRA     s:18699
         1 005075   005240 710000 1                  TRA     s:19020
         1 005076   005236 710000 1                  TRA     s:19018
         1 005077   005163 710000 1                  TRA     s:18808
         1 005100   005163 710000 1                  TRA     s:18808
         1 005101   005115 710000 1                  TRA     s:18581
         1 005102   005236 710000 1                  TRA     s:19018
         1 005103   005115 710000 1                  TRA     s:18581

      934    18557    3                   CASE( %XSS_SST_01A,

      935    18558    3                         %XSS_SST_16);
      936    18559    3                       ;  /* don't do anything */
      937    18560    3                   CASE( %XSS_SST_01C);

      938    18561                            %EVENT( EV=%XSS_SEV_TDISREQ);

  18562  1 005104   000006 236000 2                  LDQ     6
         1 005105   200021 756100                    STQ     CONTINUING+5,,AUTO
         1 005106   020166 701000 1                  TSX1    EVNT
         1 005107   020066 702000 1                  TSX2    EVNTERR

      939    18564    3                       SCTX.STATE = %XSS_SST_01;

  18564  1 005110   200003 470500                    LDP0    @VBLK,,AUTO
         1 005111   000000 471500                    LDP1    0,,PR0
         1 005112   001000 236003                    LDQ     512,DU
         1 005113   100000 552140                    STBQ    0,'40'O,PR1
         1 005114   020065 710000 1                  TRA     s:41916

      940    18565    3                   CASE( %XSS_SST_04A,

      941    18566    3                         %XSS_SST_04B,
      942    18567    3                         %XSS_SST_10A,
      943    18568    3                         %XSS_SST_10B,
      944    18569    3                         %XSS_SST_15A,
      945    18570    3                         %XSS_SST_21,
PL6.E3A0      #001=XSS$MACHINE File=XSS$MACHINE.:XSA1TSI                         WED 10/01/97 12:18 Page:295
      946    18571    3                         %XSS_SST_713);
      947    18572                            %IFPREDDO( P="59");

  18581  1 005115   400000 236003                    LDQ     -131072,DU
         1 005116   200014 756100                    STQ     CONTINUING,,AUTO

  18641  1 005117   200012 236100                    LDQ     ZPINV+1,,AUTO
         1 005120   010000 316007                    CANQ    4096,DL
         1 005121   005124 600000 1                  TZE     s:18651

  18641  1 005122   024546 701000 1                  TSX1    PRED59
         1 005123   020067 702000 1                  TSX2    ACTIONERR

  18651  1 005124   200007 236100                    LDQ     ZPRED+1,,AUTO
         1 005125   010000 316007                    CANQ    4096,DL
         1 005126   005136 600000 1                  TZE     s:18682

  18670  1 005127   200014 450100                    STZ     CONTINUING,,AUTO

      948    18672                                %EVENT( EV=%XSS_SEV_STKGIND);

  18673  1 005130   000056 236000 2                  LDQ     46
         1 005131   200021 756100                    STQ     CONTINUING+5,,AUTO
         1 005132   020166 701000 1                  TSX1    EVNT
         1 005133   020066 702000 1                  TSX2    EVNTERR

      949    18675                                %ACTION11;

  18676  1 005134   021364 701000 1                  TSX1    ACTION11
         1 005135   020067 702000 1                  TSX2    ACTIONERR

      950    18678    4                           END;

      951    18679                            %ENDPREDDO;

  18682  1 005136   200014 234100                    SZN     CONTINUING,,AUTO
         1 005137   020065 605000 1                  TPL     s:41916
PL6.E3A0      #001=XSS$MACHINE File=XSS$MACHINE.:XSA1TSI                         WED 10/01/97 12:18 Page:296

  18682  1 005140   020773 701000 1                  TSX1    OOPS
         1 005141   000000 011000                    NOP     0
         1 005142   020065 710000 1                  TRA     s:41916

      952    18684    3                   CASE( %XSS_SST_05A,

      953    18685    3                         %XSS_SST_05B,
      954    18686    3                         %XSS_SST_05C,
      955    18687    3                         %XSS_SST_06,
      956    18688    3                         %XSS_SST_15B,
      957    18689    3                         %XSS_SST_15C);
      958    18690                            %IFPREDDO( P="59");

  18699  1 005143   400000 236003                    LDQ     -131072,DU
         1 005144   200014 756100                    STQ     CONTINUING,,AUTO

  18759  1 005145   200012 236100                    LDQ     ZPINV+1,,AUTO
         1 005146   010000 316007                    CANQ    4096,DL
         1 005147   005152 600000 1                  TZE     s:18769

  18759  1 005150   024546 701000 1                  TSX1    PRED59
         1 005151   020067 702000 1                  TSX2    ACTIONERR

  18769  1 005152   200007 236100                    LDQ     ZPRED+1,,AUTO
         1 005153   010000 316007                    CANQ    4096,DL
         1 005154   005156 600000 1                  TZE     s:18795

  18788  1 005155   200014 450100                    STZ     CONTINUING,,AUTO

      959    18790    4                           ;  /* don't do anything */
      960    18791    4                           END;

      961    18792                            %ENDPREDDO;

  18795  1 005156   200014 234100                    SZN     CONTINUING,,AUTO
         1 005157   020065 605000 1                  TPL     s:41916
PL6.E3A0      #001=XSS$MACHINE File=XSS$MACHINE.:XSA1TSI                         WED 10/01/97 12:18 Page:297

  18795  1 005160   020773 701000 1                  TSX1    OOPS
         1 005161   000000 011000                    NOP     0
         1 005162   020065 710000 1                  TRA     s:41916

      962    18797    3                   CASE( %XSS_SST_19,

      963    18798    3                         %XSS_SST_20);
      964    18799                            %IFPREDDO( P="60");

  18808  1 005163   400000 236003                    LDQ     -131072,DU
         1 005164   200014 756100                    STQ     CONTINUING,,AUTO

  18868  1 005165   200012 236100                    LDQ     ZPINV+1,,AUTO
         1 005166   004000 316007                    CANQ    2048,DL
         1 005167   005172 600000 1                  TZE     s:18878

  18868  1 005170   024613 701000 1                  TSX1    PRED60
         1 005171   020067 702000 1                  TSX2    ACTIONERR

  18878  1 005172   200007 236100                    LDQ     ZPRED+1,,AUTO
         1 005173   004000 316007                    CANQ    2048,DL
         1 005174   005204 600000 1                  TZE     s:18913

  18897  1 005175   200014 450100                    STZ     CONTINUING,,AUTO

      965    18899                                %EVENT( EV=%XSS_SEV_STKGIND);

  18900  1 005176   000056 236000 2                  LDQ     46
         1 005177   200021 756100                    STQ     CONTINUING+5,,AUTO
         1 005200   020166 701000 1                  TSX1    EVNT
         1 005201   020066 702000 1                  TSX2    EVNTERR

      966    18902                                %ACTION11;

  18903  1 005202   021364 701000 1                  TSX1    ACTION11
         1 005203   020067 702000 1                  TSX2    ACTIONERR
PL6.E3A0      #001=XSS$MACHINE File=XSS$MACHINE.:XSA1TSI                         WED 10/01/97 12:18 Page:298

      967    18905    4                           END;

      968    18906                            %ELSEPREDDO( P="61");

  18913  1 005204   200014 234100                    SZN     CONTINUING,,AUTO
         1 005205   005231 605000 1                  TPL     s:19014

  18972  1 005206   200012 236100                    LDQ     ZPINV+1,,AUTO
         1 005207   002000 316007                    CANQ    1024,DL
         1 005210   005213 600000 1                  TZE     s:18982

  18972  1 005211   024665 701000 1                  TSX1    PRED61
         1 005212   020067 702000 1                  TSX2    ACTIONERR

  18982  1 005213   200007 236100                    LDQ     ZPRED+1,,AUTO
         1 005214   002000 316007                    CANQ    1024,DL
         1 005215   005231 600000 1                  TZE     s:19014

  19001  1 005216   200014 450100                    STZ     CONTINUING,,AUTO

      969    19003                                %EVENT( EV=%XSS_SEV_STKGIND);

  19004  1 005217   000056 236000 2                  LDQ     46
         1 005220   200021 756100                    STQ     CONTINUING+5,,AUTO
         1 005221   020166 701000 1                  TSX1    EVNT
         1 005222   020066 702000 1                  TSX2    EVNTERR

      970    19006                                %ACTION11;

  19007  1 005223   021364 701000 1                  TSX1    ACTION11
         1 005224   020067 702000 1                  TSX2    ACTIONERR

      971    19009    4                           SCTX.STATE = %XSS_SST_713;

  19009  1 005225   200003 470500                    LDP0    @VBLK,,AUTO
         1 005226   000000 471500                    LDP1    0,,PR0
PL6.E3A0      #001=XSS$MACHINE File=XSS$MACHINE.:XSA1TSI                         WED 10/01/97 12:18 Page:299
         1 005227   035000 236003                    LDQ     14848,DU
         1 005230   100000 552140                    STBQ    0,'40'O,PR1

      972    19010    4                           END;

      973    19011                            %ENDPREDDO;

  19014  1 005231   200014 234100                    SZN     CONTINUING,,AUTO
         1 005232   020065 605000 1                  TPL     s:41916

  19014  1 005233   020773 701000 1                  TSX1    OOPS
         1 005234   000000 011000                    NOP     0
         1 005235   020065 710000 1                  TRA     s:41916

      974    19016    3                   CASE( ELSE);

      975    19017                            %INVALID;

  19018  1 005236   020773 701000 1                  TSX1    OOPS
         1 005237   000000 011000                    NOP     0

      976    19020    3                   END;

  19020  1 005240   020065 710000 1                  TRA     s:41916

      977    19021        %EJECT;
PL6.E3A0      #001=XSS$MACHINE File=XSS$MACHINE.:XSA1TSI                         WED 10/01/97 12:18 Page:300
      978    19022        /*****************************************************************************
      979    19023        *
      980    19024        *       GTA             GIVE TOKENS ACK SPDU
      981    19025        *
      982    19026        *****************************************************************************/
      983    19027    2           CASE( %XSS_SEV_GTA);                            /* TABLE 51 */

      984    19028    3               DO CASE( SCTX.STATE);

  19028  1 005241   000000 471500                    LDP1    0,,PR0
         1 005242   100000 236100                    LDQ     0,,PR1
         1 005243   000033 772000                    QRL     27
         1 005244   000031 116007                    CMPQ    25,DL
         1 005245   005247 602006 1                  TNC     s:19028+6,QL
         1 005246   005316 710000 1                  TRA     s:19044
         1 005247   005316 710000 1                  TRA     s:19044
         1 005250   005316 710000 1                  TRA     s:19044
         1 005251   005320 710000 1                  TRA     s:19046
         1 005252   005316 710000 1                  TRA     s:19044
         1 005253   005300 710000 1                  TRA     s:19034
         1 005254   005316 710000 1                  TRA     s:19044
         1 005255   005316 710000 1                  TRA     s:19044
         1 005256   005316 710000 1                  TRA     s:19044
         1 005257   005316 710000 1                  TRA     s:19044
         1 005260   005316 710000 1                  TRA     s:19044
         1 005261   005316 710000 1                  TRA     s:19044
         1 005262   005316 710000 1                  TRA     s:19044
         1 005263   005316 710000 1                  TRA     s:19044
         1 005264   005316 710000 1                  TRA     s:19044
         1 005265   005316 710000 1                  TRA     s:19044
         1 005266   005316 710000 1                  TRA     s:19044
         1 005267   005316 710000 1                  TRA     s:19044
         1 005270   005316 710000 1                  TRA     s:19044
         1 005271   005316 710000 1                  TRA     s:19044
         1 005272   005316 710000 1                  TRA     s:19044
         1 005273   005316 710000 1                  TRA     s:19044
         1 005274   005316 710000 1                  TRA     s:19044
PL6.E3A0      #001=XSS$MACHINE File=XSS$MACHINE.:XSA1TSI                         WED 10/01/97 12:18 Page:301
         1 005275   005316 710000 1                  TRA     s:19044
         1 005276   005320 710000 1                  TRA     s:19046
         1 005277   005311 710000 1                  TRA     s:19038

      985    19029    3                   CASE( %XSS_SST_01A,

      986    19030    3                         %XSS_SST_16);
      987    19031    3                       ;  /* don't do anything */
      988    19032    3                   CASE( %XSS_SST_01C);

      989    19033                            %EVENT( EV=%XSS_SEV_TDISREQ);

  19034  1 005300   000006 236000 2                  LDQ     6
         1 005301   200021 756100                    STQ     CONTINUING+5,,AUTO
         1 005302   020166 701000 1                  TSX1    EVNT
         1 005303   020066 702000 1                  TSX2    EVNTERR

      990    19036    3                       SCTX.STATE = %XSS_SST_01;

  19036  1 005304   200003 470500                    LDP0    @VBLK,,AUTO
         1 005305   000000 471500                    LDP1    0,,PR0
         1 005306   001000 236003                    LDQ     512,DU
         1 005307   100000 552140                    STBQ    0,'40'O,PR1
         1 005310   020065 710000 1                  TRA     s:41916

      991    19037    3                   CASE( %XSS_SST_18);

      992    19038    3                       SCTX.STATE = %XSS_SST_713;

  19038  1 005311   035000 236003                    LDQ     14848,DU
         1 005312   100000 552140                    STBQ    0,'40'O,PR1

      993    19039                            %ACTION06;

  19040  1 005313   021255 701000 1                  TSX1    ACTION06
         1 005314   020067 702000 1                  TSX2    ACTIONERR
         1 005315   020065 710000 1                  TRA     s:41916
PL6.E3A0      #001=XSS$MACHINE File=XSS$MACHINE.:XSA1TSI                         WED 10/01/97 12:18 Page:302

      994    19042    3                   CASE( ELSE);

      995    19043                            %INVALID;

  19044  1 005316   020773 701000 1                  TSX1    OOPS
         1 005317   000000 011000                    NOP     0

      996    19046    3                   END;

  19046  1 005320   020065 710000 1                  TRA     s:41916

      997    19047        %EJECT;
PL6.E3A0      #001=XSS$MACHINE File=XSS$MACHINE.:XSA1TSI                         WED 10/01/97 12:18 Page:303
      998    19048        /*****************************************************************************
      999    19049        *
     1000    19050        *       GTC             GIVE TOKENS CONFIRM SPDU
     1001    19051        *
     1002    19052        *****************************************************************************/
     1003    19053    2           CASE( %XSS_SEV_GTC);                            /* TABLE 51 */

     1004    19054    3               DO CASE( SCTX.STATE);

  19054  1 005321   000000 471500                    LDP1    0,,PR0
         1 005322   100000 236100                    LDQ     0,,PR1
         1 005323   000033 772000                    QRL     27
         1 005324   000036 116007                    CMPQ    30,DL
         1 005325   005327 602006 1                  TNC     s:19054+6,QL
         1 005326   005430 710000 1                  TRA     s:19181
         1 005327   005430 710000 1                  TRA     s:19181
         1 005330   005430 710000 1                  TRA     s:19181
         1 005331   005432 710000 1                  TRA     s:19183
         1 005332   005430 710000 1                  TRA     s:19181
         1 005333   005365 710000 1                  TRA     s:19060
         1 005334   005430 710000 1                  TRA     s:19181
         1 005335   005430 710000 1                  TRA     s:19181
         1 005336   005430 710000 1                  TRA     s:19181
         1 005337   005430 710000 1                  TRA     s:19181
         1 005340   005430 710000 1                  TRA     s:19181
         1 005341   005430 710000 1                  TRA     s:19181
         1 005342   005430 710000 1                  TRA     s:19181
         1 005343   005430 710000 1                  TRA     s:19181
         1 005344   005430 710000 1                  TRA     s:19181
         1 005345   005430 710000 1                  TRA     s:19181
         1 005346   005430 710000 1                  TRA     s:19181
         1 005347   005430 710000 1                  TRA     s:19181
         1 005350   005430 710000 1                  TRA     s:19181
         1 005351   005430 710000 1                  TRA     s:19181
         1 005352   005430 710000 1                  TRA     s:19181
         1 005353   005430 710000 1                  TRA     s:19181
         1 005354   005430 710000 1                  TRA     s:19181
PL6.E3A0      #001=XSS$MACHINE File=XSS$MACHINE.:XSA1TSI                         WED 10/01/97 12:18 Page:304
         1 005355   005430 710000 1                  TRA     s:19181
         1 005356   005432 710000 1                  TRA     s:19183
         1 005357   005430 710000 1                  TRA     s:19181
         1 005360   005430 710000 1                  TRA     s:19181
         1 005361   005430 710000 1                  TRA     s:19181
         1 005362   005430 710000 1                  TRA     s:19181
         1 005363   005430 710000 1                  TRA     s:19181
         1 005364   005376 710000 1                  TRA     s:19073

     1005    19055    3                   CASE( %XSS_SST_01A,

     1006    19056    3                         %XSS_SST_16);
     1007    19057    3                       ;  /* don't do anything */
     1008    19058    3                   CASE( %XSS_SST_01C);

     1009    19059                            %EVENT( EV=%XSS_SEV_TDISREQ);

  19060  1 005365   000006 236000 2                  LDQ     6
         1 005366   200021 756100                    STQ     CONTINUING+5,,AUTO
         1 005367   020166 701000 1                  TSX1    EVNT
         1 005370   020066 702000 1                  TSX2    EVNTERR

     1010    19062    3                       SCTX.STATE = %XSS_SST_01;

  19062  1 005371   200003 470500                    LDP0    @VBLK,,AUTO
         1 005372   000000 471500                    LDP1    0,,PR0
         1 005373   001000 236003                    LDQ     512,DU
         1 005374   100000 552140                    STBQ    0,'40'O,PR1
         1 005375   020065 710000 1                  TRA     s:41916

     1011    19063    3                   CASE( %XSS_SST_713);

     1012    19064                            %IFPREDDO( P="62");

  19073  1 005376   400000 236003                    LDQ     -131072,DU
         1 005377   200014 756100                    STQ     CONTINUING,,AUTO

PL6.E3A0      #001=XSS$MACHINE File=XSS$MACHINE.:XSA1TSI                         WED 10/01/97 12:18 Page:305
  19133  1 005400   200012 236100                    LDQ     ZPINV+1,,AUTO
         1 005401   001000 316007                    CANQ    512,DL
         1 005402   005405 600000 1                  TZE     s:19143

  19133  1 005403   024720 701000 1                  TSX1    PRED62
         1 005404   020067 702000 1                  TSX2    ACTIONERR

  19143  1 005405   200007 236100                    LDQ     ZPRED+1,,AUTO
         1 005406   001000 316007                    CANQ    512,DL
         1 005407   005423 600000 1                  TZE     s:19177

  19162  1 005410   200014 450100                    STZ     CONTINUING,,AUTO

     1013    19164                                %EVENT( EV=%XSS_SEV_SCTGIND);

  19165  1 005411   000060 236000 2                  LDQ     48
         1 005412   200021 756100                    STQ     CONTINUING+5,,AUTO
         1 005413   020166 701000 1                  TSX1    EVNT
         1 005414   020066 702000 1                  TSX2    EVNTERR

     1014    19167                                %EVENT( EV=%XSS_SEV_GTA);

  19168  1 005415   000062 236000 2                  LDQ     50
         1 005416   200021 756100                    STQ     CONTINUING+5,,AUTO
         1 005417   020166 701000 1                  TSX1    EVNT
         1 005420   020066 702000 1                  TSX2    EVNTERR

     1015    19170                                %ACTION11;

  19171  1 005421   021364 701000 1                  TSX1    ACTION11
         1 005422   020067 702000 1                  TSX2    ACTIONERR

     1016    19173    4                           END;

     1017    19174                            %ENDPREDDO;

  19177  1 005423   200014 234100                    SZN     CONTINUING,,AUTO
PL6.E3A0      #001=XSS$MACHINE File=XSS$MACHINE.:XSA1TSI                         WED 10/01/97 12:18 Page:306
         1 005424   020065 605000 1                  TPL     s:41916

  19177  1 005425   020773 701000 1                  TSX1    OOPS
         1 005426   000000 011000                    NOP     0
         1 005427   020065 710000 1                  TRA     s:41916

     1018    19179    3                   CASE( ELSE);

     1019    19180                            %INVALID;

  19181  1 005430   020773 701000 1                  TSX1    OOPS
         1 005431   000000 011000                    NOP     0

     1020    19183    3                   END;

  19183  1 005432   020065 710000 1                  TRA     s:41916

     1021    19184        %EJECT;
PL6.E3A0      #001=XSS$MACHINE File=XSS$MACHINE.:XSA1TSI                         WED 10/01/97 12:18 Page:307
     1022    19185        /*****************************************************************************
     1023    19186        *
     1024    19187        *       MAA             MAJOR SYNC ACK SPDU
     1025    19188        *       AEA             ACTIVITY END ACK SPDU
     1026    19189        *
     1027    19190        *****************************************************************************/
     1028    19191    2           CASE( %XSS_SEV_MAA,

     1029    19192    2                 %XSS_SEV_AEA);                            /* TABLE 47 */
     1030    19193    3               DO CASE( SCTX.STATE);

  19193  1 005433   000000 471500                    LDP1    0,,PR0
         1 005434   100000 236100                    LDQ     0,,PR1
         1 005435   000033 772000                    QRL     27
         1 005436   000033 116007                    CMPQ    27,DL
         1 005437   005441 602006 1                  TNC     s:19193+6,QL
         1 005440   005744 710000 1                  TRA     s:20146
         1 005441   005744 710000 1                  TRA     s:20146
         1 005442   005744 710000 1                  TRA     s:20146
         1 005443   005746 710000 1                  TRA     s:20148
         1 005444   005744 710000 1                  TRA     s:20146
         1 005445   005474 710000 1                  TRA     s:19205
         1 005446   005744 710000 1                  TRA     s:20146
         1 005447   005744 710000 1                  TRA     s:20146
         1 005450   005505 710000 1                  TRA     s:19218
         1 005451   005551 710000 1                  TRA     s:19420
         1 005452   005746 710000 1                  TRA     s:20148
         1 005453   005746 710000 1                  TRA     s:20148
         1 005454   005746 710000 1                  TRA     s:20148
         1 005455   005746 710000 1                  TRA     s:20148
         1 005456   005744 710000 1                  TRA     s:20146
         1 005457   005744 710000 1                  TRA     s:20146
         1 005460   005744 710000 1                  TRA     s:20146
         1 005461   005744 710000 1                  TRA     s:20146
         1 005462   005744 710000 1                  TRA     s:20146
         1 005463   005744 710000 1                  TRA     s:20146
         1 005464   005744 710000 1                  TRA     s:20146
PL6.E3A0      #001=XSS$MACHINE File=XSS$MACHINE.:XSA1TSI                         WED 10/01/97 12:18 Page:308
         1 005465   005615 710000 1                  TRA     s:19622
         1 005466   005746 710000 1                  TRA     s:20148
         1 005467   005746 710000 1                  TRA     s:20148
         1 005470   005746 710000 1                  TRA     s:20148
         1 005471   005744 710000 1                  TRA     s:20146
         1 005472   005744 710000 1                  TRA     s:20146
         1 005473   005724 710000 1                  TRA     s:20046

     1031    19194    3                   CASE( %XSS_SST_01A,

     1032    19195    3                         %XSS_SST_05A,
     1033    19196    3                         %XSS_SST_05B,
     1034    19197    3                         %XSS_SST_05C,
     1035    19198    3                         %XSS_SST_06,
     1036    19199    3                         %XSS_SST_15B,
     1037    19200    3                         %XSS_SST_15C,
     1038    19201    3                         %XSS_SST_16);
     1039    19202    3                       ;  /* don't do anything */
     1040    19203    3                   CASE( %XSS_SST_01C);

     1041    19204                            %EVENT( EV=%XSS_SEV_TDISREQ);

  19205  1 005474   000006 236000 2                  LDQ     6
         1 005475   200021 756100                    STQ     CONTINUING+5,,AUTO
         1 005476   020166 701000 1                  TSX1    EVNT
         1 005477   020066 702000 1                  TSX2    EVNTERR

     1042    19207    3                       SCTX.STATE = %XSS_SST_01;

  19207  1 005500   200003 470500                    LDP0    @VBLK,,AUTO
         1 005501   000000 471500                    LDP1    0,,PR0
         1 005502   001000 236003                    LDQ     512,DU
         1 005503   100000 552140                    STBQ    0,'40'O,PR1
         1 005504   020065 710000 1                  TRA     s:41916

     1043    19208    3                   CASE( %XSS_SST_04A);

PL6.E3A0      #001=XSS$MACHINE File=XSS$MACHINE.:XSA1TSI                         WED 10/01/97 12:18 Page:309
     1044    19209                            %IFPREDDO( P="16&20");

  19218  1 005505   400000 236003                    LDQ     -131072,DU
         1 005506   200014 756100                    STQ     CONTINUING,,AUTO

  19264  1 005507   200011 236100                    LDQ     ZPINV,,AUTO
         1 005510   000002 316003                    CANQ    2,DU
         1 005511   005514 600000 1                  TZE     s:19273

  19264  1 005512   022637 701000 1                  TSX1    PRED16
         1 005513   020067 702000 1                  TSX2    ACTIONERR

  19273  1 005514   200006 236100                    LDQ     ZPRED,,AUTO
         1 005515   000002 316003                    CANQ    2,DU
         1 005516   005544 600000 1                  TZE     s:19408

  19348  1 005517   200011 236100                    LDQ     ZPINV,,AUTO
         1 005520   100000 316007                    CANQ    32768,DL
         1 005521   005524 600000 1                  TZE     s:19358

  19348  1 005522   023002 701000 1                  TSX1    PRED20
         1 005523   020067 702000 1                  TSX2    ACTIONERR

  19358  1 005524   200006 236100                    LDQ     ZPRED,,AUTO
         1 005525   100000 316007                    CANQ    32768,DL
         1 005526   005544 600000 1                  TZE     s:19408

  19392  1 005527   200014 450100                    STZ     CONTINUING,,AUTO

     1045    19394                                %EVENT( EV=%XSS_SEV_SSMACNF);

  19395  1 005530   000064 236000 2                  LDQ     52
         1 005531   200021 756100                    STQ     CONTINUING+5,,AUTO
         1 005532   020166 701000 1                  TSX1    EVNT
         1 005533   020066 702000 1                  TSX2    EVNTERR

     1046    19397                                %ACTION14;
PL6.E3A0      #001=XSS$MACHINE File=XSS$MACHINE.:XSA1TSI                         WED 10/01/97 12:18 Page:310

  19398  1 005534   021544 701000 1                  TSX1    ACTION14
         1 005535   020067 702000 1                  TSX2    ACTIONERR

     1047    19400                                %ACTION22;

  19401  1 005536   021706 701000 1                  TSX1    ACTION22
         1 005537   020067 702000 1                  TSX2    ACTIONERR

     1048    19403    4                           SCTX.STATE = %XSS_SST_713;

  19403  1 005540   200003 470500                    LDP0    @VBLK,,AUTO
         1 005541   000000 471500                    LDP1    0,,PR0
         1 005542   035000 236003                    LDQ     14848,DU
         1 005543   100000 552140                    STBQ    0,'40'O,PR1

     1049    19404    4                           END;

     1050    19405                            %ENDPREDDO;

  19408  1 005544   200014 234100                    SZN     CONTINUING,,AUTO
         1 005545   020065 605000 1                  TPL     s:41916

  19408  1 005546   020773 701000 1                  TSX1    OOPS
         1 005547   000000 011000                    NOP     0
         1 005550   020065 710000 1                  TRA     s:41916

     1051    19410    3                   CASE( %XSS_SST_04B);

     1052    19411                            %IFPREDDO( P="16&20");

  19420  1 005551   400000 236003                    LDQ     -131072,DU
         1 005552   200014 756100                    STQ     CONTINUING,,AUTO

  19466  1 005553   200011 236100                    LDQ     ZPINV,,AUTO
         1 005554   000002 316003                    CANQ    2,DU
         1 005555   005560 600000 1                  TZE     s:19475
PL6.E3A0      #001=XSS$MACHINE File=XSS$MACHINE.:XSA1TSI                         WED 10/01/97 12:18 Page:311

  19466  1 005556   022637 701000 1                  TSX1    PRED16
         1 005557   020067 702000 1                  TSX2    ACTIONERR

  19475  1 005560   200006 236100                    LDQ     ZPRED,,AUTO
         1 005561   000002 316003                    CANQ    2,DU
         1 005562   005610 600000 1                  TZE     s:19610

  19550  1 005563   200011 236100                    LDQ     ZPINV,,AUTO
         1 005564   100000 316007                    CANQ    32768,DL
         1 005565   005570 600000 1                  TZE     s:19560

  19550  1 005566   023002 701000 1                  TSX1    PRED20
         1 005567   020067 702000 1                  TSX2    ACTIONERR

  19560  1 005570   200006 236100                    LDQ     ZPRED,,AUTO
         1 005571   100000 316007                    CANQ    32768,DL
         1 005572   005610 600000 1                  TZE     s:19610

  19594  1 005573   200014 450100                    STZ     CONTINUING,,AUTO

     1053    19596                                %EVENT( EV=%XSS_SEV_SACECNF);

  19597  1 005574   000066 236000 2                  LDQ     54
         1 005575   200021 756100                    STQ     CONTINUING+5,,AUTO
         1 005576   020166 701000 1                  TSX1    EVNT
         1 005577   020066 702000 1                  TSX2    EVNTERR

     1054    19599                                %ACTION14;

  19600  1 005600   021544 701000 1                  TSX1    ACTION14
         1 005601   020067 702000 1                  TSX2    ACTIONERR

     1055    19602                                %ACTION22;

  19603  1 005602   021706 701000 1                  TSX1    ACTION22
         1 005603   020067 702000 1                  TSX2    ACTIONERR
PL6.E3A0      #001=XSS$MACHINE File=XSS$MACHINE.:XSA1TSI                         WED 10/01/97 12:18 Page:312

     1056    19605    4                           SCTX.STATE = %XSS_SST_713;

  19605  1 005604   200003 470500                    LDP0    @VBLK,,AUTO
         1 005605   000000 471500                    LDP1    0,,PR0
         1 005606   035000 236003                    LDQ     14848,DU
         1 005607   100000 552140                    STBQ    0,'40'O,PR1

     1057    19606    4                           END;

     1058    19607                            %ENDPREDDO;

  19610  1 005610   200014 234100                    SZN     CONTINUING,,AUTO
         1 005611   020065 605000 1                  TPL     s:41916

  19610  1 005612   020773 701000 1                  TSX1    OOPS
         1 005613   000000 011000                    NOP     0
         1 005614   020065 710000 1                  TRA     s:41916

     1059    19612    3                   CASE( %XSS_SST_15A);

     1060    19613                            %IFPREDDO( P="20&-23");

  19622  1 005615   400000 236003                    LDQ     -131072,DU
         1 005616   200014 756100                    STQ     CONTINUING,,AUTO

  19668  1 005617   200011 236100                    LDQ     ZPINV,,AUTO
         1 005620   100000 316007                    CANQ    32768,DL
         1 005621   005624 600000 1                  TZE     s:19677

  19668  1 005622   023002 701000 1                  TSX1    PRED20
         1 005623   020067 702000 1                  TSX2    ACTIONERR

  19677  1 005624   200006 236100                    LDQ     ZPRED,,AUTO
         1 005625   100000 316007                    CANQ    32768,DL
         1 005626   005656 600000 1                  TZE     s:19842

PL6.E3A0      #001=XSS$MACHINE File=XSS$MACHINE.:XSA1TSI                         WED 10/01/97 12:18 Page:313
  19770  1 005627   200011 236100                    LDQ     ZPINV,,AUTO
         1 005630   010000 316007                    CANQ    4096,DL
         1 005631   005634 600000 1                  TZE     s:19780

  19770  1 005632   023040 701000 1                  TSX1    PRED23
         1 005633   020067 702000 1                  TSX2    ACTIONERR

  19780  1 005634   200006 236100                    LDQ     ZPRED,,AUTO
         1 005635   010000 316007                    CANQ    4096,DL
         1 005636   005656 601000 1                  TNZ     s:19842

  19819  1 005637   200014 450100                    STZ     CONTINUING,,AUTO

     1061    19821                                %EVENT( EV=%XSS_SEV_SSMACNF);

  19822  1 005640   000064 236000 2                  LDQ     52
         1 005641   200021 756100                    STQ     CONTINUING+5,,AUTO
         1 005642   020166 701000 1                  TSX1    EVNT
         1 005643   020066 702000 1                  TSX2    EVNTERR

     1062    19824                                %ACTION14;

  19825  1 005644   021544 701000 1                  TSX1    ACTION14
         1 005645   020067 702000 1                  TSX2    ACTIONERR

     1063    19827                                %ACTION22;

  19828  1 005646   021706 701000 1                  TSX1    ACTION22
         1 005647   020067 702000 1                  TSX2    ACTIONERR

     1064    19830    4                           SCTX.STATE = %XSS_SST_713;

  19830  1 005650   200003 470500                    LDP0    @VBLK,,AUTO
         1 005651   000000 471500                    LDP1    0,,PR0
         1 005652   035000 236003                    LDQ     14848,DU
         1 005653   100000 552140                    STBQ    0,'40'O,PR1

PL6.E3A0      #001=XSS$MACHINE File=XSS$MACHINE.:XSA1TSI                         WED 10/01/97 12:18 Page:314
     1065    19831                                %ACTION06;

  19832  1 005654   021255 701000 1                  TSX1    ACTION06
         1 005655   020067 702000 1                  TSX2    ACTIONERR

     1066    19834    4                           END;

     1067    19835                            %ELSEPREDDO( P="20&23");

  19842  1 005656   200014 234100                    SZN     CONTINUING,,AUTO
         1 005657   005717 605000 1                  TPL     s:20034

  19887  1 005660   200011 236100                    LDQ     ZPINV,,AUTO
         1 005661   100000 316007                    CANQ    32768,DL
         1 005662   005665 600000 1                  TZE     s:19896

  19887  1 005663   023002 701000 1                  TSX1    PRED20
         1 005664   020067 702000 1                  TSX2    ACTIONERR

  19896  1 005665   200006 236100                    LDQ     ZPRED,,AUTO
         1 005666   100000 316007                    CANQ    32768,DL
         1 005667   005717 600000 1                  TZE     s:20034

  19971  1 005670   200011 236100                    LDQ     ZPINV,,AUTO
         1 005671   010000 316007                    CANQ    4096,DL
         1 005672   005675 600000 1                  TZE     s:19981

  19971  1 005673   023040 701000 1                  TSX1    PRED23
         1 005674   020067 702000 1                  TSX2    ACTIONERR

  19981  1 005675   200006 236100                    LDQ     ZPRED,,AUTO
         1 005676   010000 316007                    CANQ    4096,DL
         1 005677   005717 600000 1                  TZE     s:20034

  20015  1 005700   200014 450100                    STZ     CONTINUING,,AUTO

     1068    20017                                %EVENT( EV=%XSS_SEV_SACECNF);
PL6.E3A0      #001=XSS$MACHINE File=XSS$MACHINE.:XSA1TSI                         WED 10/01/97 12:18 Page:315

  20018  1 005701   000066 236000 2                  LDQ     54
         1 005702   200021 756100                    STQ     CONTINUING+5,,AUTO
         1 005703   020166 701000 1                  TSX1    EVNT
         1 005704   020066 702000 1                  TSX2    EVNTERR

     1069    20020                                %ACTION14;

  20021  1 005705   021544 701000 1                  TSX1    ACTION14
         1 005706   020067 702000 1                  TSX2    ACTIONERR

     1070    20023                                %ACTION22;

  20024  1 005707   021706 701000 1                  TSX1    ACTION22
         1 005710   020067 702000 1                  TSX2    ACTIONERR

     1071    20026    4                           SCTX.STATE = %XSS_SST_713;

  20026  1 005711   200003 470500                    LDP0    @VBLK,,AUTO
         1 005712   000000 471500                    LDP1    0,,PR0
         1 005713   035000 236003                    LDQ     14848,DU
         1 005714   100000 552140                    STBQ    0,'40'O,PR1

     1072    20027                                %ACTION06;

  20028  1 005715   021255 701000 1                  TSX1    ACTION06
         1 005716   020067 702000 1                  TSX2    ACTIONERR

     1073    20030    4                           END;

     1074    20031                            %ENDPREDDO;

  20034  1 005717   200014 234100                    SZN     CONTINUING,,AUTO
         1 005720   020065 605000 1                  TPL     s:41916

  20034  1 005721   020773 701000 1                  TSX1    OOPS
         1 005722   000000 011000                    NOP     0
PL6.E3A0      #001=XSS$MACHINE File=XSS$MACHINE.:XSA1TSI                         WED 10/01/97 12:18 Page:316
         1 005723   020065 710000 1                  TRA     s:41916

     1075    20036    3                   CASE( %XSS_SST_20);

     1076    20037                            %IFPREDDO( P="20");

  20046  1 005724   400000 236003                    LDQ     -131072,DU
         1 005725   200014 756100                    STQ     CONTINUING,,AUTO

  20106  1 005726   200011 236100                    LDQ     ZPINV,,AUTO
         1 005727   100000 316007                    CANQ    32768,DL
         1 005730   005733 600000 1                  TZE     s:20116

  20106  1 005731   023002 701000 1                  TSX1    PRED20
         1 005732   020067 702000 1                  TSX2    ACTIONERR

  20116  1 005733   200006 236100                    LDQ     ZPRED,,AUTO
         1 005734   100000 316007                    CANQ    32768,DL
         1 005735   005737 600000 1                  TZE     s:20142

  20135  1 005736   200014 450100                    STZ     CONTINUING,,AUTO

     1077    20137    4                           ;  /* don't do anything */
     1078    20138    4                           END;

     1079    20139                            %ENDPREDDO;

  20142  1 005737   200014 234100                    SZN     CONTINUING,,AUTO
         1 005740   020065 605000 1                  TPL     s:41916

  20142  1 005741   020773 701000 1                  TSX1    OOPS
         1 005742   000000 011000                    NOP     0
         1 005743   020065 710000 1                  TRA     s:41916

     1080    20144    3                   CASE( ELSE);

     1081    20145                            %INVALID;
PL6.E3A0      #001=XSS$MACHINE File=XSS$MACHINE.:XSA1TSI                         WED 10/01/97 12:18 Page:317

  20146  1 005744   020773 701000 1                  TSX1    OOPS
         1 005745   000000 011000                    NOP     0

     1082    20148    3                   END;

  20148  1 005746   020065 710000 1                  TRA     s:41916

     1083    20149        %EJECT;
PL6.E3A0      #001=XSS$MACHINE File=XSS$MACHINE.:XSA1TSI                         WED 10/01/97 12:18 Page:318
     1084    20150        /*****************************************************************************
     1085    20151        *
     1086    20152        *       MAP             MAJOR SYNC POINT SPDU
     1087    20153        *
     1088    20154        *****************************************************************************/
     1089    20155    2           CASE( %XSS_SEV_MAP);                            /* TABLE 47 */

     1090    20156    3               DO CASE( SCTX.STATE);

  20156  1 005747   000000 471500                    LDP1    0,,PR0
         1 005750   100000 236100                    LDQ     0,,PR1
         1 005751   000033 772000                    QRL     27
         1 005752   000036 116007                    CMPQ    30,DL
         1 005753   005755 602006 1                  TNC     s:20156+6,QL
         1 005754   006142 710000 1                  TRA     s:20676
         1 005755   006142 710000 1                  TRA     s:20676
         1 005756   006142 710000 1                  TRA     s:20676
         1 005757   006144 710000 1                  TRA     s:20678
         1 005760   006142 710000 1                  TRA     s:20676
         1 005761   006013 710000 1                  TRA     s:20162
         1 005762   006142 710000 1                  TRA     s:20676
         1 005763   006142 710000 1                  TRA     s:20676
         1 005764   006142 710000 1                  TRA     s:20676
         1 005765   006142 710000 1                  TRA     s:20676
         1 005766   006024 710000 1                  TRA     s:20178
         1 005767   006142 710000 1                  TRA     s:20676
         1 005770   006142 710000 1                  TRA     s:20676
         1 005771   006024 710000 1                  TRA     s:20178
         1 005772   006142 710000 1                  TRA     s:20676
         1 005773   006142 710000 1                  TRA     s:20676
         1 005774   006142 710000 1                  TRA     s:20676
         1 005775   006142 710000 1                  TRA     s:20676
         1 005776   006142 710000 1                  TRA     s:20676
         1 005777   006142 710000 1                  TRA     s:20676
         1 006000   006142 710000 1                  TRA     s:20676
         1 006001   006142 710000 1                  TRA     s:20676
         1 006002   006024 710000 1                  TRA     s:20178
PL6.E3A0      #001=XSS$MACHINE File=XSS$MACHINE.:XSA1TSI                         WED 10/01/97 12:18 Page:319
         1 006003   006024 710000 1                  TRA     s:20178
         1 006004   006144 710000 1                  TRA     s:20678
         1 006005   006142 710000 1                  TRA     s:20676
         1 006006   006044 710000 1                  TRA     s:20287
         1 006007   006044 710000 1                  TRA     s:20287
         1 006010   006142 710000 1                  TRA     s:20676
         1 006011   006142 710000 1                  TRA     s:20676
         1 006012   006076 710000 1                  TRA     s:20482

     1091    20157    3                   CASE( %XSS_SST_01A,

     1092    20158    3                         %XSS_SST_16);
     1093    20159    3                       ;  /* don't do anything */
     1094    20160    3                   CASE( %XSS_SST_01C);

     1095    20161                            %EVENT( EV=%XSS_SEV_TDISREQ);

  20162  1 006013   000006 236000 2                  LDQ     6
         1 006014   200021 756100                    STQ     CONTINUING+5,,AUTO
         1 006015   020166 701000 1                  TSX1    EVNT
         1 006016   020066 702000 1                  TSX2    EVNTERR

     1096    20164    3                       SCTX.STATE = %XSS_SST_01;

  20164  1 006017   200003 470500                    LDP0    @VBLK,,AUTO
         1 006020   000000 471500                    LDP1    0,,PR0
         1 006021   001000 236003                    LDQ     512,DU
         1 006022   100000 552140                    STBQ    0,'40'O,PR1
         1 006023   020065 710000 1                  TRA     s:41916

     1097    20165    3                   CASE( %XSS_SST_05A,

     1098    20166    3                         %XSS_SST_06,
     1099    20167    3                         %XSS_SST_15B,
     1100    20168    3                         %XSS_SST_15C);
     1101    20169                            %IFPREDDO( P="12");

PL6.E3A0      #001=XSS$MACHINE File=XSS$MACHINE.:XSA1TSI                         WED 10/01/97 12:18 Page:320
  20178  1 006024   400000 236003                    LDQ     -131072,DU
         1 006025   200014 756100                    STQ     CONTINUING,,AUTO

  20238  1 006026   200011 236100                    LDQ     ZPINV,,AUTO
         1 006027   000040 316003                    CANQ    32,DU
         1 006030   006033 600000 1                  TZE     s:20248

  20238  1 006031   022373 701000 1                  TSX1    PRED12
         1 006032   020067 702000 1                  TSX2    ACTIONERR

  20248  1 006033   200006 236100                    LDQ     ZPRED,,AUTO
         1 006034   000040 316003                    CANQ    32,DU
         1 006035   006037 600000 1                  TZE     s:20274

  20267  1 006036   200014 450100                    STZ     CONTINUING,,AUTO

     1102    20269    4                           ;  /* don't do anything */
     1103    20270    4                           END;

     1104    20271                            %ENDPREDDO;

  20274  1 006037   200014 234100                    SZN     CONTINUING,,AUTO
         1 006040   020065 605000 1                  TPL     s:41916

  20274  1 006041   020773 701000 1                  TSX1    OOPS
         1 006042   000000 011000                    NOP     0
         1 006043   020065 710000 1                  TRA     s:41916

     1105    20276    3                   CASE( %XSS_SST_19,

     1106    20277    3                         %XSS_SST_20);
     1107    20278                            %IFPREDDO( P="12&19");

  20287  1 006044   400000 236003                    LDQ     -131072,DU
         1 006045   200014 756100                    STQ     CONTINUING,,AUTO

  20333  1 006046   200011 236100                    LDQ     ZPINV,,AUTO
PL6.E3A0      #001=XSS$MACHINE File=XSS$MACHINE.:XSA1TSI                         WED 10/01/97 12:18 Page:321
         1 006047   000040 316003                    CANQ    32,DU
         1 006050   006053 600000 1                  TZE     s:20342

  20333  1 006051   022373 701000 1                  TSX1    PRED12
         1 006052   020067 702000 1                  TSX2    ACTIONERR

  20342  1 006053   200006 236100                    LDQ     ZPRED,,AUTO
         1 006054   000040 316003                    CANQ    32,DU
         1 006055   006071 600000 1                  TZE     s:20470

  20417  1 006056   200011 236100                    LDQ     ZPINV,,AUTO
         1 006057   200000 316007                    CANQ    65536,DL
         1 006060   006063 600000 1                  TZE     s:20427

  20417  1 006061   022766 701000 1                  TSX1    PRED19
         1 006062   020067 702000 1                  TSX2    ACTIONERR

  20427  1 006063   200006 236100                    LDQ     ZPRED,,AUTO
         1 006064   200000 316007                    CANQ    65536,DL
         1 006065   006071 600000 1                  TZE     s:20470

  20461  1 006066   200014 450100                    STZ     CONTINUING,,AUTO

     1108    20463                                %ACTION31;

  20464  1 006067   022103 701000 1                  TSX1    ACTION31
         1 006070   020067 702000 1                  TSX2    ACTIONERR

     1109    20466    4                           END;

     1110    20467                            %ENDPREDDO;

  20470  1 006071   200014 234100                    SZN     CONTINUING,,AUTO
         1 006072   020065 605000 1                  TPL     s:41916

  20470  1 006073   020773 701000 1                  TSX1    OOPS
         1 006074   000000 011000                    NOP     0
PL6.E3A0      #001=XSS$MACHINE File=XSS$MACHINE.:XSA1TSI                         WED 10/01/97 12:18 Page:322
         1 006075   020065 710000 1                  TRA     s:41916

     1111    20472    3                   CASE( %XSS_SST_713);

     1112    20473                            %IFPREDDO( P="12&19");

  20482  1 006076   400000 236003                    LDQ     -131072,DU
         1 006077   200014 756100                    STQ     CONTINUING,,AUTO

  20528  1 006100   200011 236100                    LDQ     ZPINV,,AUTO
         1 006101   000040 316003                    CANQ    32,DU
         1 006102   006105 600000 1                  TZE     s:20537

  20528  1 006103   022373 701000 1                  TSX1    PRED12
         1 006104   020067 702000 1                  TSX2    ACTIONERR

  20537  1 006105   200006 236100                    LDQ     ZPRED,,AUTO
         1 006106   000040 316003                    CANQ    32,DU
         1 006107   006135 600000 1                  TZE     s:20672

  20612  1 006110   200011 236100                    LDQ     ZPINV,,AUTO
         1 006111   200000 316007                    CANQ    65536,DL
         1 006112   006115 600000 1                  TZE     s:20622

  20612  1 006113   022766 701000 1                  TSX1    PRED19
         1 006114   020067 702000 1                  TSX2    ACTIONERR

  20622  1 006115   200006 236100                    LDQ     ZPRED,,AUTO
         1 006116   200000 316007                    CANQ    65536,DL
         1 006117   006135 600000 1                  TZE     s:20672

  20656  1 006120   200014 450100                    STZ     CONTINUING,,AUTO

     1113    20658                                %EVENT( EV=%XSS_SEV_SSMAIND);

  20659  1 006121   000070 236000 2                  LDQ     56
         1 006122   200021 756100                    STQ     CONTINUING+5,,AUTO
PL6.E3A0      #001=XSS$MACHINE File=XSS$MACHINE.:XSA1TSI                         WED 10/01/97 12:18 Page:323
         1 006123   020166 701000 1                  TSX1    EVNT
         1 006124   020066 702000 1                  TSX2    EVNTERR

     1114    20661                                %ACTION13;

  20662  1 006125   021525 701000 1                  TSX1    ACTION13
         1 006126   020067 702000 1                  TSX2    ACTIONERR

     1115    20664                                %ACTION31;

  20665  1 006127   022103 701000 1                  TSX1    ACTION31
         1 006130   020067 702000 1                  TSX2    ACTIONERR

     1116    20667    4                           SCTX.STATE = %XSS_SST_10A;

  20667  1 006131   200003 470500                    LDP0    @VBLK,,AUTO
         1 006132   000000 471500                    LDP1    0,,PR0
         1 006133   017000 236003                    LDQ     7680,DU
         1 006134   100000 552140                    STBQ    0,'40'O,PR1

     1117    20668    4                           END;

     1118    20669                            %ENDPREDDO;

  20672  1 006135   200014 234100                    SZN     CONTINUING,,AUTO
         1 006136   020065 605000 1                  TPL     s:41916

  20672  1 006137   020773 701000 1                  TSX1    OOPS
         1 006140   000000 011000                    NOP     0
         1 006141   020065 710000 1                  TRA     s:41916

     1119    20674    3                   CASE( ELSE);

     1120    20675                            %INVALID;

  20676  1 006142   020773 701000 1                  TSX1    OOPS
         1 006143   000000 011000                    NOP     0
PL6.E3A0      #001=XSS$MACHINE File=XSS$MACHINE.:XSA1TSI                         WED 10/01/97 12:18 Page:324

     1121    20678    3                   END;

  20678  1 006144   020065 710000 1                  TRA     s:41916

     1122    20679        %EJECT;
PL6.E3A0      #001=XSS$MACHINE File=XSS$MACHINE.:XSA1TSI                         WED 10/01/97 12:18 Page:325
     1123    20680        /*****************************************************************************
     1124    20681        *
     1125    20682        *       MIA             MINOR SYNC ACK SPDU
     1126    20683        *
     1127    20684        *****************************************************************************/
     1128    20685    2           CASE( %XSS_SEV_MIA);                            /* TABLE 47 */

     1129    20686    3               DO CASE( SCTX.STATE);

  20686  1 006145   000000 471500                    LDP1    0,,PR0
         1 006146   100000 236100                    LDQ     0,,PR1
         1 006147   000033 772000                    QRL     27
         1 006150   000036 116007                    CMPQ    30,DL
         1 006151   006153 602006 1                  TNC     s:20686+6,QL
         1 006152   006430 710000 1                  TRA     s:21705
         1 006153   006430 710000 1                  TRA     s:21705
         1 006154   006430 710000 1                  TRA     s:21705
         1 006155   006432 710000 1                  TRA     s:21707
         1 006156   006430 710000 1                  TRA     s:21705
         1 006157   006211 710000 1                  TRA     s:20692
         1 006160   006430 710000 1                  TRA     s:21705
         1 006161   006222 710000 1                  TRA     s:20706
         1 006162   006260 710000 1                  TRA     s:20906
         1 006163   006260 710000 1                  TRA     s:20906
         1 006164   006326 710000 1                  TRA     s:21217
         1 006165   006326 710000 1                  TRA     s:21217
         1 006166   006326 710000 1                  TRA     s:21217
         1 006167   006326 710000 1                  TRA     s:21217
         1 006170   006430 710000 1                  TRA     s:21705
         1 006171   006430 710000 1                  TRA     s:21705
         1 006172   006430 710000 1                  TRA     s:21705
         1 006173   006430 710000 1                  TRA     s:21705
         1 006174   006430 710000 1                  TRA     s:21705
         1 006175   006430 710000 1                  TRA     s:21705
         1 006176   006430 710000 1                  TRA     s:21705
         1 006177   006260 710000 1                  TRA     s:20906
         1 006200   006326 710000 1                  TRA     s:21217
PL6.E3A0      #001=XSS$MACHINE File=XSS$MACHINE.:XSA1TSI                         WED 10/01/97 12:18 Page:326
         1 006201   006326 710000 1                  TRA     s:21217
         1 006202   006432 710000 1                  TRA     s:21707
         1 006203   006430 710000 1                  TRA     s:21705
         1 006204   006346 710000 1                  TRA     s:21325
         1 006205   006400 710000 1                  TRA     s:21520
         1 006206   006430 710000 1                  TRA     s:21705
         1 006207   006430 710000 1                  TRA     s:21705
         1 006210   006222 710000 1                  TRA     s:20706

     1130    20687    3                   CASE( %XSS_SST_01A,

     1131    20688    3                         %XSS_SST_16);
     1132    20689    3                       ;  /* don't do anything */
     1133    20690    3                   CASE( %XSS_SST_01C);

     1134    20691                            %EVENT( EV=%XSS_SEV_TDISREQ);

  20692  1 006211   000006 236000 2                  LDQ     6
         1 006212   200021 756100                    STQ     CONTINUING+5,,AUTO
         1 006213   020166 701000 1                  TSX1    EVNT
         1 006214   020066 702000 1                  TSX2    EVNTERR

     1135    20694    3                       SCTX.STATE = %XSS_SST_01;

  20694  1 006215   200003 470500                    LDP0    @VBLK,,AUTO
         1 006216   000000 471500                    LDP1    0,,PR0
         1 006217   001000 236003                    LDQ     512,DU
         1 006220   100000 552140                    STBQ    0,'40'O,PR1
         1 006221   020065 710000 1                  TRA     s:41916

     1136    20695    3                   CASE( %XSS_SST_03,

     1137    20696    3                         %XSS_SST_713);
     1138    20697                            %IFPREDDO( P="17&21");

  20706  1 006222   400000 236003                    LDQ     -131072,DU
         1 006223   200014 756100                    STQ     CONTINUING,,AUTO
PL6.E3A0      #001=XSS$MACHINE File=XSS$MACHINE.:XSA1TSI                         WED 10/01/97 12:18 Page:327

  20752  1 006224   200011 236100                    LDQ     ZPINV,,AUTO
         1 006225   000001 316003                    CANQ    1,DU
         1 006226   006231 600000 1                  TZE     s:20761

  20752  1 006227   022655 701000 1                  TSX1    PRED17
         1 006230   020067 702000 1                  TSX2    ACTIONERR

  20761  1 006231   200006 236100                    LDQ     ZPRED,,AUTO
         1 006232   000001 316003                    CANQ    1,DU
         1 006233   006253 600000 1                  TZE     s:20892

  20836  1 006234   200011 236100                    LDQ     ZPINV,,AUTO
         1 006235   040000 316007                    CANQ    16384,DL
         1 006236   006241 600000 1                  TZE     s:20846

  20836  1 006237   023020 701000 1                  TSX1    PRED21
         1 006240   020067 702000 1                  TSX2    ACTIONERR

  20846  1 006241   200006 236100                    LDQ     ZPRED,,AUTO
         1 006242   040000 316007                    CANQ    16384,DL
         1 006243   006253 600000 1                  TZE     s:20892

  20880  1 006244   200014 450100                    STZ     CONTINUING,,AUTO

     1139    20882                                %EVENT( EV=%XSS_SEV_SSMICNF);

  20883  1 006245   000072 236000 2                  LDQ     58
         1 006246   200021 756100                    STQ     CONTINUING+5,,AUTO
         1 006247   020166 701000 1                  TSX1    EVNT
         1 006250   020066 702000 1                  TSX2    EVNTERR

     1140    20885                                %ACTION25;

  20886  1 006251   021761 701000 1                  TSX1    ACTION25
         1 006252   020067 702000 1                  TSX2    ACTIONERR

PL6.E3A0      #001=XSS$MACHINE File=XSS$MACHINE.:XSA1TSI                         WED 10/01/97 12:18 Page:328
     1141    20888    4                           END;

     1142    20889                            %ENDPREDDO;

  20892  1 006253   200014 234100                    SZN     CONTINUING,,AUTO
         1 006254   020065 605000 1                  TPL     s:41916

  20892  1 006255   020773 701000 1                  TSX1    OOPS
         1 006256   000000 011000                    NOP     0
         1 006257   020065 710000 1                  TRA     s:41916

     1143    20894    3                   CASE( %XSS_SST_04A,

     1144    20895    3                         %XSS_SST_04B,
     1145    20896    3                         %XSS_SST_15A);
     1146    20897                            %IFPREDDO( P="17&-20&21");

  20906  1 006260   400000 236003                    LDQ     -131072,DU
         1 006261   200014 756100                    STQ     CONTINUING,,AUTO

  20952  1 006262   200011 236100                    LDQ     ZPINV,,AUTO
         1 006263   000001 316003                    CANQ    1,DU
         1 006264   006267 600000 1                  TZE     s:20961

  20952  1 006265   022655 701000 1                  TSX1    PRED17
         1 006266   020067 702000 1                  TSX2    ACTIONERR

  20961  1 006267   200006 236100                    LDQ     ZPRED,,AUTO
         1 006270   000001 316003                    CANQ    1,DU
         1 006271   006321 600000 1                  TZE     s:21200

  21040  1 006272   200011 236100                    LDQ     ZPINV,,AUTO
         1 006273   100000 316007                    CANQ    32768,DL
         1 006274   006277 600000 1                  TZE     s:21049

  21040  1 006275   023002 701000 1                  TSX1    PRED20
         1 006276   020067 702000 1                  TSX2    ACTIONERR
PL6.E3A0      #001=XSS$MACHINE File=XSS$MACHINE.:XSA1TSI                         WED 10/01/97 12:18 Page:329

  21049  1 006277   200006 236100                    LDQ     ZPRED,,AUTO
         1 006300   100000 316007                    CANQ    32768,DL
         1 006301   006321 601000 1                  TNZ     s:21200

  21124  1 006302   200011 236100                    LDQ     ZPINV,,AUTO
         1 006303   040000 316007                    CANQ    16384,DL
         1 006304   006307 600000 1                  TZE     s:21134

  21124  1 006305   023020 701000 1                  TSX1    PRED21
         1 006306   020067 702000 1                  TSX2    ACTIONERR

  21134  1 006307   200006 236100                    LDQ     ZPRED,,AUTO
         1 006310   040000 316007                    CANQ    16384,DL
         1 006311   006321 600000 1                  TZE     s:21200

  21188  1 006312   200014 450100                    STZ     CONTINUING,,AUTO

     1147    21190                                %EVENT( EV=%XSS_SEV_SSMICNF);

  21191  1 006313   000072 236000 2                  LDQ     58
         1 006314   200021 756100                    STQ     CONTINUING+5,,AUTO
         1 006315   020166 701000 1                  TSX1    EVNT
         1 006316   020066 702000 1                  TSX2    EVNTERR

     1148    21193                                %ACTION25;

  21194  1 006317   021761 701000 1                  TSX1    ACTION25
         1 006320   020067 702000 1                  TSX2    ACTIONERR

     1149    21196    4                           END;

     1150    21197                            %ENDPREDDO;

  21200  1 006321   200014 234100                    SZN     CONTINUING,,AUTO
         1 006322   020065 605000 1                  TPL     s:41916

PL6.E3A0      #001=XSS$MACHINE File=XSS$MACHINE.:XSA1TSI                         WED 10/01/97 12:18 Page:330
  21200  1 006323   020773 701000 1                  TSX1    OOPS
         1 006324   000000 011000                    NOP     0
         1 006325   020065 710000 1                  TRA     s:41916

     1151    21202    3                   CASE( %XSS_SST_05A,

     1152    21203    3                         %XSS_SST_05B,
     1153    21204    3                         %XSS_SST_05C,
     1154    21205    3                         %XSS_SST_06,
     1155    21206    3                         %XSS_SST_15B,
     1156    21207    3                         %XSS_SST_15C);
     1157    21208                            %IFPREDDO( P="17");

  21217  1 006326   400000 236003                    LDQ     -131072,DU
         1 006327   200014 756100                    STQ     CONTINUING,,AUTO

  21277  1 006330   200011 236100                    LDQ     ZPINV,,AUTO
         1 006331   000001 316003                    CANQ    1,DU
         1 006332   006335 600000 1                  TZE     s:21287

  21277  1 006333   022655 701000 1                  TSX1    PRED17
         1 006334   020067 702000 1                  TSX2    ACTIONERR

  21287  1 006335   200006 236100                    LDQ     ZPRED,,AUTO
         1 006336   000001 316003                    CANQ    1,DU
         1 006337   006341 600000 1                  TZE     s:21313

  21306  1 006340   200014 450100                    STZ     CONTINUING,,AUTO

     1158    21308    4                           ;  /* don't do anything */
     1159    21309    4                           END;

     1160    21310                            %ENDPREDDO;

  21313  1 006341   200014 234100                    SZN     CONTINUING,,AUTO
         1 006342   020065 605000 1                  TPL     s:41916

PL6.E3A0      #001=XSS$MACHINE File=XSS$MACHINE.:XSA1TSI                         WED 10/01/97 12:18 Page:331
  21313  1 006343   020773 701000 1                  TSX1    OOPS
         1 006344   000000 011000                    NOP     0
         1 006345   020065 710000 1                  TRA     s:41916

     1161    21315    3                   CASE( %XSS_SST_19);

     1162    21316                            %IFPREDDO( P="17&21");

  21325  1 006346   400000 236003                    LDQ     -131072,DU
         1 006347   200014 756100                    STQ     CONTINUING,,AUTO

  21371  1 006350   200011 236100                    LDQ     ZPINV,,AUTO
         1 006351   000001 316003                    CANQ    1,DU
         1 006352   006355 600000 1                  TZE     s:21380

  21371  1 006353   022655 701000 1                  TSX1    PRED17
         1 006354   020067 702000 1                  TSX2    ACTIONERR

  21380  1 006355   200006 236100                    LDQ     ZPRED,,AUTO
         1 006356   000001 316003                    CANQ    1,DU
         1 006357   006373 600000 1                  TZE     s:21508

  21455  1 006360   200011 236100                    LDQ     ZPINV,,AUTO
         1 006361   040000 316007                    CANQ    16384,DL
         1 006362   006365 600000 1                  TZE     s:21465

  21455  1 006363   023020 701000 1                  TSX1    PRED21
         1 006364   020067 702000 1                  TSX2    ACTIONERR

  21465  1 006365   200006 236100                    LDQ     ZPRED,,AUTO
         1 006366   040000 316007                    CANQ    16384,DL
         1 006367   006373 600000 1                  TZE     s:21508

  21499  1 006370   200014 450100                    STZ     CONTINUING,,AUTO

     1163    21501                                %ACTION25;

PL6.E3A0      #001=XSS$MACHINE File=XSS$MACHINE.:XSA1TSI                         WED 10/01/97 12:18 Page:332
  21502  1 006371   021761 701000 1                  TSX1    ACTION25
         1 006372   020067 702000 1                  TSX2    ACTIONERR

     1164    21504    4                           END;

     1165    21505                            %ENDPREDDO;

  21508  1 006373   200014 234100                    SZN     CONTINUING,,AUTO
         1 006374   020065 605000 1                  TPL     s:41916

  21508  1 006375   020773 701000 1                  TSX1    OOPS
         1 006376   000000 011000                    NOP     0
         1 006377   020065 710000 1                  TRA     s:41916

     1166    21510    3                   CASE( %XSS_SST_20);

     1167    21511                            %IFPREDDO( P="17&21");

  21520  1 006400   400000 236003                    LDQ     -131072,DU
         1 006401   200014 756100                    STQ     CONTINUING,,AUTO

  21566  1 006402   200011 236100                    LDQ     ZPINV,,AUTO
         1 006403   000001 316003                    CANQ    1,DU
         1 006404   006407 600000 1                  TZE     s:21575

  21566  1 006405   022655 701000 1                  TSX1    PRED17
         1 006406   020067 702000 1                  TSX2    ACTIONERR

  21575  1 006407   200006 236100                    LDQ     ZPRED,,AUTO
         1 006410   000001 316003                    CANQ    1,DU
         1 006411   006423 600000 1                  TZE     s:21701

  21650  1 006412   200011 236100                    LDQ     ZPINV,,AUTO
         1 006413   040000 316007                    CANQ    16384,DL
         1 006414   006417 600000 1                  TZE     s:21660

  21650  1 006415   023020 701000 1                  TSX1    PRED21
PL6.E3A0      #001=XSS$MACHINE File=XSS$MACHINE.:XSA1TSI                         WED 10/01/97 12:18 Page:333
         1 006416   020067 702000 1                  TSX2    ACTIONERR

  21660  1 006417   200006 236100                    LDQ     ZPRED,,AUTO
         1 006420   040000 316007                    CANQ    16384,DL
         1 006421   006423 600000 1                  TZE     s:21701

  21694  1 006422   200014 450100                    STZ     CONTINUING,,AUTO

     1168    21696    4                           ;  /* don't do anything */

     1169    21697    4                           END;

     1170    21698                            %ENDPREDDO;

  21701  1 006423   200014 234100                    SZN     CONTINUING,,AUTO
         1 006424   020065 605000 1                  TPL     s:41916

  21701  1 006425   020773 701000 1                  TSX1    OOPS
         1 006426   000000 011000                    NOP     0
         1 006427   020065 710000 1                  TRA     s:41916

     1171    21703    3                   CASE( ELSE);

     1172    21704                            %INVALID;

  21705  1 006430   020773 701000 1                  TSX1    OOPS
         1 006431   000000 011000                    NOP     0

     1173    21707    3                   END;

  21707  1 006432   020065 710000 1                  TRA     s:41916

     1174    21708        %EJECT;
PL6.E3A0      #001=XSS$MACHINE File=XSS$MACHINE.:XSA1TSI                         WED 10/01/97 12:18 Page:334
     1175    21709        /*****************************************************************************
     1176    21710        *
     1177    21711        *       MIP             MINOR SYNC POINT SPDU
     1178    21712        *
     1179    21713        *****************************************************************************/
     1180    21714    2           CASE( %XSS_SEV_MIP);                            /* TABLE 47 */

     1181    21715    3               DO CASE( SCTX.STATE);

  21715  1 006433   000000 471500                    LDP1    0,,PR0
         1 006434   100000 236100                    LDQ     0,,PR1
         1 006435   000033 772000                    QRL     27
         1 006436   000036 116007                    CMPQ    30,DL
         1 006437   006441 602006 1                  TNC     s:21715+6,QL
         1 006440   006620 710000 1                  TRA     s:22233
         1 006441   006620 710000 1                  TRA     s:22233
         1 006442   006620 710000 1                  TRA     s:22233
         1 006443   006622 710000 1                  TRA     s:22235
         1 006444   006620 710000 1                  TRA     s:22233
         1 006445   006477 710000 1                  TRA     s:21721
         1 006446   006620 710000 1                  TRA     s:22233
         1 006447   006620 710000 1                  TRA     s:22233
         1 006450   006620 710000 1                  TRA     s:22233
         1 006451   006620 710000 1                  TRA     s:22233
         1 006452   006510 710000 1                  TRA     s:21739
         1 006453   006510 710000 1                  TRA     s:21739
         1 006454   006510 710000 1                  TRA     s:21739
         1 006455   006510 710000 1                  TRA     s:21739
         1 006456   006620 710000 1                  TRA     s:22233
         1 006457   006620 710000 1                  TRA     s:22233
         1 006460   006620 710000 1                  TRA     s:22233
         1 006461   006620 710000 1                  TRA     s:22233
         1 006462   006620 710000 1                  TRA     s:22233
         1 006463   006620 710000 1                  TRA     s:22233
         1 006464   006620 710000 1                  TRA     s:22233
         1 006465   006620 710000 1                  TRA     s:22233
         1 006466   006510 710000 1                  TRA     s:21739
PL6.E3A0      #001=XSS$MACHINE File=XSS$MACHINE.:XSA1TSI                         WED 10/01/97 12:18 Page:335
         1 006467   006510 710000 1                  TRA     s:21739
         1 006470   006622 710000 1                  TRA     s:22235
         1 006471   006620 710000 1                  TRA     s:22233
         1 006472   006530 710000 1                  TRA     s:21848
         1 006473   006530 710000 1                  TRA     s:21848
         1 006474   006620 710000 1                  TRA     s:22233
         1 006475   006620 710000 1                  TRA     s:22233
         1 006476   006562 710000 1                  TRA     s:22043

     1182    21716    3                   CASE( %XSS_SST_01A,

     1183    21717    3                         %XSS_SST_16);
     1184    21718    3                       ;  /* don't do anything */
     1185    21719    3                   CASE( %XSS_SST_01C);

     1186    21720                            %EVENT( EV=%XSS_SEV_TDISREQ);

  21721  1 006477   000006 236000 2                  LDQ     6
         1 006500   200021 756100                    STQ     CONTINUING+5,,AUTO
         1 006501   020166 701000 1                  TSX1    EVNT
         1 006502   020066 702000 1                  TSX2    EVNTERR

     1187    21723    3                       SCTX.STATE = %XSS_SST_01;

  21723  1 006503   200003 470500                    LDP0    @VBLK,,AUTO
         1 006504   000000 471500                    LDP1    0,,PR0
         1 006505   001000 236003                    LDQ     512,DU
         1 006506   100000 552140                    STBQ    0,'40'O,PR1
         1 006507   020065 710000 1                  TRA     s:41916

     1188    21724    3                   CASE( %XSS_SST_05A,

     1189    21725    3                         %XSS_SST_05B,
     1190    21726    3                         %XSS_SST_05C,
     1191    21727    3                         %XSS_SST_06,
     1192    21728    3                         %XSS_SST_15B,
     1193    21729    3                         %XSS_SST_15C);
PL6.E3A0      #001=XSS$MACHINE File=XSS$MACHINE.:XSA1TSI                         WED 10/01/97 12:18 Page:336
     1194    21730                            %IFPREDDO( P="14");

  21739  1 006510   400000 236003                    LDQ     -131072,DU
         1 006511   200014 756100                    STQ     CONTINUING,,AUTO

  21799  1 006512   200011 236100                    LDQ     ZPINV,,AUTO
         1 006513   000010 316003                    CANQ    8,DU
         1 006514   006517 600000 1                  TZE     s:21809

  21799  1 006515   022525 701000 1                  TSX1    PRED14
         1 006516   020067 702000 1                  TSX2    ACTIONERR

  21809  1 006517   200006 236100                    LDQ     ZPRED,,AUTO
         1 006520   000010 316003                    CANQ    8,DU
         1 006521   006523 600000 1                  TZE     s:21835

  21828  1 006522   200014 450100                    STZ     CONTINUING,,AUTO

     1195    21830    4                           ;  /* don't do anything */
     1196    21831    4                           END;

     1197    21832                            %ENDPREDDO;

  21835  1 006523   200014 234100                    SZN     CONTINUING,,AUTO
         1 006524   020065 605000 1                  TPL     s:41916

  21835  1 006525   020773 701000 1                  TSX1    OOPS
         1 006526   000000 011000                    NOP     0
         1 006527   020065 710000 1                  TRA     s:41916

     1198    21837    3                   CASE( %XSS_SST_19,

     1199    21838    3                         %XSS_SST_20);
     1200    21839                            %IFPREDDO( P="14&19");

  21848  1 006530   400000 236003                    LDQ     -131072,DU
         1 006531   200014 756100                    STQ     CONTINUING,,AUTO
PL6.E3A0      #001=XSS$MACHINE File=XSS$MACHINE.:XSA1TSI                         WED 10/01/97 12:18 Page:337

  21894  1 006532   200011 236100                    LDQ     ZPINV,,AUTO
         1 006533   000010 316003                    CANQ    8,DU
         1 006534   006537 600000 1                  TZE     s:21903

  21894  1 006535   022525 701000 1                  TSX1    PRED14
         1 006536   020067 702000 1                  TSX2    ACTIONERR

  21903  1 006537   200006 236100                    LDQ     ZPRED,,AUTO
         1 006540   000010 316003                    CANQ    8,DU
         1 006541   006555 600000 1                  TZE     s:22031

  21978  1 006542   200011 236100                    LDQ     ZPINV,,AUTO
         1 006543   200000 316007                    CANQ    65536,DL
         1 006544   006547 600000 1                  TZE     s:21988

  21978  1 006545   022766 701000 1                  TSX1    PRED19
         1 006546   020067 702000 1                  TSX2    ACTIONERR

  21988  1 006547   200006 236100                    LDQ     ZPRED,,AUTO
         1 006550   200000 316007                    CANQ    65536,DL
         1 006551   006555 600000 1                  TZE     s:22031

  22022  1 006552   200014 450100                    STZ     CONTINUING,,AUTO

     1201    22024                                %ACTION23;

  22025  1 006553   021717 701000 1                  TSX1    ACTION23
         1 006554   020067 702000 1                  TSX2    ACTIONERR

     1202    22027    4                           END;

     1203    22028                            %ENDPREDDO;

  22031  1 006555   200014 234100                    SZN     CONTINUING,,AUTO
         1 006556   020065 605000 1                  TPL     s:41916

PL6.E3A0      #001=XSS$MACHINE File=XSS$MACHINE.:XSA1TSI                         WED 10/01/97 12:18 Page:338
  22031  1 006557   020773 701000 1                  TSX1    OOPS
         1 006560   000000 011000                    NOP     0
         1 006561   020065 710000 1                  TRA     s:41916

     1204    22033    3                   CASE( %XSS_SST_713);

     1205    22034                            %IFPREDDO( P="14&19");

  22043  1 006562   400000 236003                    LDQ     -131072,DU
         1 006563   200014 756100                    STQ     CONTINUING,,AUTO

  22089  1 006564   200011 236100                    LDQ     ZPINV,,AUTO
         1 006565   000010 316003                    CANQ    8,DU
         1 006566   006571 600000 1                  TZE     s:22098

  22089  1 006567   022525 701000 1                  TSX1    PRED14
         1 006570   020067 702000 1                  TSX2    ACTIONERR

  22098  1 006571   200006 236100                    LDQ     ZPRED,,AUTO
         1 006572   000010 316003                    CANQ    8,DU
         1 006573   006613 600000 1                  TZE     s:22229

  22173  1 006574   200011 236100                    LDQ     ZPINV,,AUTO
         1 006575   200000 316007                    CANQ    65536,DL
         1 006576   006601 600000 1                  TZE     s:22183

  22173  1 006577   022766 701000 1                  TSX1    PRED19
         1 006600   020067 702000 1                  TSX2    ACTIONERR

  22183  1 006601   200006 236100                    LDQ     ZPRED,,AUTO
         1 006602   200000 316007                    CANQ    65536,DL
         1 006603   006613 600000 1                  TZE     s:22229

  22217  1 006604   200014 450100                    STZ     CONTINUING,,AUTO

     1206    22219                                %EVENT( EV=%XSS_SEV_SSMIIND);

PL6.E3A0      #001=XSS$MACHINE File=XSS$MACHINE.:XSA1TSI                         WED 10/01/97 12:18 Page:339
  22220  1 006605   000074 236000 2                  LDQ     60
         1 006606   200021 756100                    STQ     CONTINUING+5,,AUTO
         1 006607   020166 701000 1                  TSX1    EVNT
         1 006610   020066 702000 1                  TSX2    EVNTERR

     1207    22222                                %ACTION23;

  22223  1 006611   021717 701000 1                  TSX1    ACTION23
         1 006612   020067 702000 1                  TSX2    ACTIONERR

     1208    22225    4                           END;

     1209    22226                            %ENDPREDDO;

  22229  1 006613   200014 234100                    SZN     CONTINUING,,AUTO
         1 006614   020065 605000 1                  TPL     s:41916

  22229  1 006615   020773 701000 1                  TSX1    OOPS
         1 006616   000000 011000                    NOP     0
         1 006617   020065 710000 1                  TRA     s:41916

     1210    22231    3                   CASE( ELSE);

     1211    22232                            %INVALID;

  22233  1 006620   020773 701000 1                  TSX1    OOPS
         1 006621   000000 011000                    NOP     0

     1212    22235    3                   END;

  22235  1 006622   020065 710000 1                  TRA     s:41916

     1213    22236        %EJECT;
PL6.E3A0      #001=XSS$MACHINE File=XSS$MACHINE.:XSA1TSI                         WED 10/01/97 12:18 Page:340
     1214    22237        /*****************************************************************************
     1215    22238        *
     1216    22239        *       NF              NOT FINISHED SPDU
     1217    22240        *
     1218    22241        *****************************************************************************/
     1219    22242    2           CASE( %XSS_SEV_NF);                             /* TABLE 52 */

     1220    22243    3               DO CASE( SCTX.STATE);

  22243  1 006623   000000 471500                    LDP1    0,,PR0
         1 006624   100000 236100                    LDQ     0,,PR1
         1 006625   000033 772000                    QRL     27
         1 006626   000030 116007                    CMPQ    24,DL
         1 006627   006631 602006 1                  TNC     s:22243+6,QL
         1 006630   006746 710000 1                  TRA     s:22475
         1 006631   006746 710000 1                  TRA     s:22475
         1 006632   006746 710000 1                  TRA     s:22475
         1 006633   006750 710000 1                  TRA     s:22477
         1 006634   006746 710000 1                  TRA     s:22475
         1 006635   006661 710000 1                  TRA     s:22249
         1 006636   006746 710000 1                  TRA     s:22475
         1 006637   006672 710000 1                  TRA     s:22262
         1 006640   006746 710000 1                  TRA     s:22475
         1 006641   006746 710000 1                  TRA     s:22475
         1 006642   006746 710000 1                  TRA     s:22475
         1 006643   006746 710000 1                  TRA     s:22475
         1 006644   006746 710000 1                  TRA     s:22475
         1 006645   006746 710000 1                  TRA     s:22475
         1 006646   006746 710000 1                  TRA     s:22475
         1 006647   006746 710000 1                  TRA     s:22475
         1 006650   006746 710000 1                  TRA     s:22475
         1 006651   006746 710000 1                  TRA     s:22475
         1 006652   006746 710000 1                  TRA     s:22475
         1 006653   006746 710000 1                  TRA     s:22475
         1 006654   006746 710000 1                  TRA     s:22475
         1 006655   006746 710000 1                  TRA     s:22475
         1 006656   006722 710000 1                  TRA     s:22373
PL6.E3A0      #001=XSS$MACHINE File=XSS$MACHINE.:XSA1TSI                         WED 10/01/97 12:18 Page:341
         1 006657   006746 710000 1                  TRA     s:22475
         1 006660   006750 710000 1                  TRA     s:22477

     1221    22244    3                   CASE( %XSS_SST_01A,

     1222    22245    3                         %XSS_SST_16);
     1223    22246    3                       ;  /* don't do anything */
     1224    22247    3                   CASE( %XSS_SST_01C);

     1225    22248                            %EVENT( EV=%XSS_SEV_TDISREQ);

  22249  1 006661   000006 236000 2                  LDQ     6
         1 006662   200021 756100                    STQ     CONTINUING+5,,AUTO
         1 006663   020166 701000 1                  TSX1    EVNT
         1 006664   020066 702000 1                  TSX2    EVNTERR

     1226    22251    3                       SCTX.STATE = %XSS_SST_01;

  22251  1 006665   200003 470500                    LDP0    @VBLK,,AUTO
         1 006666   000000 471500                    LDP1    0,,PR0
         1 006667   001000 236003                    LDQ     512,DU
         1 006670   100000 552140                    STBQ    0,'40'O,PR1
         1 006671   020065 710000 1                  TRA     s:41916

     1227    22252    3                   CASE( %XSS_SST_03);

     1228    22253                            %IFPREDDO( P="67");

  22262  1 006672   400000 236003                    LDQ     -131072,DU
         1 006673   200014 756100                    STQ     CONTINUING,,AUTO

  22322  1 006674   200012 236100                    LDQ     ZPINV+1,,AUTO
         1 006675   000020 316007                    CANQ    16,DL
         1 006676   006701 600000 1                  TZE     s:22332

  22322  1 006677   025062 701000 1                  TSX1    PRED67
         1 006700   020067 702000 1                  TSX2    ACTIONERR
PL6.E3A0      #001=XSS$MACHINE File=XSS$MACHINE.:XSA1TSI                         WED 10/01/97 12:18 Page:342

  22332  1 006701   200007 236100                    LDQ     ZPRED+1,,AUTO
         1 006702   000020 316007                    CANQ    16,DL
         1 006703   006715 600000 1                  TZE     s:22361

  22351  1 006704   200014 450100                    STZ     CONTINUING,,AUTO

     1229    22353                                %EVENT( EV=%XSS_SEV_SRELCFN);

  22354  1 006705   000076 236000 2                  LDQ     62
         1 006706   200021 756100                    STQ     CONTINUING+5,,AUTO
         1 006707   020166 701000 1                  TSX1    EVNT
         1 006710   020066 702000 1                  TSX2    EVNTERR

     1230    22356    4                           SCTX.STATE = %XSS_SST_713;

  22356  1 006711   200003 470500                    LDP0    @VBLK,,AUTO
         1 006712   000000 471500                    LDP1    0,,PR0
         1 006713   035000 236003                    LDQ     14848,DU
         1 006714   100000 552140                    STBQ    0,'40'O,PR1

     1231    22357    4                           END;

     1232    22358                            %ENDPREDDO;

  22361  1 006715   200014 234100                    SZN     CONTINUING,,AUTO
         1 006716   020065 605000 1                  TPL     s:41916

  22361  1 006717   020773 701000 1                  TSX1    OOPS
         1 006720   000000 011000                    NOP     0
         1 006721   020065 710000 1                  TRA     s:41916

     1233    22363    3                   CASE( %XSS_SST_15B);

     1234    22364                            %IFPREDDO( P="67");

  22373  1 006722   400000 236003                    LDQ     -131072,DU
PL6.E3A0      #001=XSS$MACHINE File=XSS$MACHINE.:XSA1TSI                         WED 10/01/97 12:18 Page:343
         1 006723   200014 756100                    STQ     CONTINUING,,AUTO

  22433  1 006724   200012 236100                    LDQ     ZPINV+1,,AUTO
         1 006725   000020 316007                    CANQ    16,DL
         1 006726   006731 600000 1                  TZE     s:22443

  22433  1 006727   025062 701000 1                  TSX1    PRED67
         1 006730   020067 702000 1                  TSX2    ACTIONERR

  22443  1 006731   200007 236100                    LDQ     ZPRED+1,,AUTO
         1 006732   000020 316007                    CANQ    16,DL
         1 006733   006741 600000 1                  TZE     s:22471

  22462  1 006734   200014 450100                    STZ     CONTINUING,,AUTO

     1235    22464                                %EVENT( EV=%XSS_SEV_SRELCFN);

  22465  1 006735   000076 236000 2                  LDQ     62
         1 006736   200021 756100                    STQ     CONTINUING+5,,AUTO
         1 006737   020166 701000 1                  TSX1    EVNT
         1 006740   020066 702000 1                  TSX2    EVNTERR

     1236    22467    4                           END;

     1237    22468                            %ENDPREDDO;

  22471  1 006741   200014 234100                    SZN     CONTINUING,,AUTO
         1 006742   020065 605000 1                  TPL     s:41916

  22471  1 006743   020773 701000 1                  TSX1    OOPS
         1 006744   000000 011000                    NOP     0
         1 006745   020065 710000 1                  TRA     s:41916

     1238    22473    3                   CASE( ELSE);

     1239    22474                            %INVALID;

PL6.E3A0      #001=XSS$MACHINE File=XSS$MACHINE.:XSA1TSI                         WED 10/01/97 12:18 Page:344
  22475  1 006746   020773 701000 1                  TSX1    OOPS
         1 006747   000000 011000                    NOP     0

     1240    22477    3                   END;

  22477  1 006750   020065 710000 1                  TRA     s:41916

     1241    22478        %EJECT;
PL6.E3A0      #001=XSS$MACHINE File=XSS$MACHINE.:XSA1TSI                         WED 10/01/97 12:18 Page:345
     1242    22479        /*****************************************************************************
     1243    22480        *
     1244    22481        *       PR-MAA          PREPARE (MAJOR SYNC ACK) SPDU
     1245    22482        *
     1246    22483        *****************************************************************************/
     1247    22484    2           CASE( %XSS_SEV_PR_MAA);                         /* TABLE 47 */

     1248    22485    3               DO CASE( SCTX.STATE);

  22485  1 006751   000000 471500                    LDP1    0,,PR0
         1 006752   100000 236100                    LDQ     0,,PR1
         1 006753   000033 772000                    QRL     27
         1 006754   000030 116007                    CMPQ    24,DL
         1 006755   006757 602006 1                  TNC     s:22485+6,QL
         1 006756   007023 710000 1                  TRA     s:22502
         1 006757   007023 710000 1                  TRA     s:22502
         1 006760   007023 710000 1                  TRA     s:22502
         1 006761   007025 710000 1                  TRA     s:22504
         1 006762   007023 710000 1                  TRA     s:22502
         1 006763   007007 710000 1                  TRA     s:22494
         1 006764   007023 710000 1                  TRA     s:22502
         1 006765   007023 710000 1                  TRA     s:22502
         1 006766   007020 710000 1                  TRA     s:22499
         1 006767   007020 710000 1                  TRA     s:22499
         1 006770   007025 710000 1                  TRA     s:22504
         1 006771   007025 710000 1                  TRA     s:22504
         1 006772   007025 710000 1                  TRA     s:22504
         1 006773   007023 710000 1                  TRA     s:22502
         1 006774   007023 710000 1                  TRA     s:22502
         1 006775   007023 710000 1                  TRA     s:22502
         1 006776   007023 710000 1                  TRA     s:22502
         1 006777   007023 710000 1                  TRA     s:22502
         1 007000   007023 710000 1                  TRA     s:22502
         1 007001   007023 710000 1                  TRA     s:22502
         1 007002   007023 710000 1                  TRA     s:22502
         1 007003   007023 710000 1                  TRA     s:22502
         1 007004   007023 710000 1                  TRA     s:22502
PL6.E3A0      #001=XSS$MACHINE File=XSS$MACHINE.:XSA1TSI                         WED 10/01/97 12:18 Page:346
         1 007005   007023 710000 1                  TRA     s:22502
         1 007006   007025 710000 1                  TRA     s:22504

     1249    22486    3                   CASE( %XSS_SST_01A,

     1250    22487    3                         %XSS_SST_05A,
     1251    22488    3                         %XSS_SST_05B,
     1252    22489    3                         %XSS_SST_05C,
     1253    22490    3                         %XSS_SST_16);
     1254    22491    3                       ;  /* don't do anything */
     1255    22492    3                   CASE( %XSS_SST_01C);

     1256    22493                            %EVENT( EV=%XSS_SEV_TDISREQ);

  22494  1 007007   000006 236000 2                  LDQ     6
         1 007010   200021 756100                    STQ     CONTINUING+5,,AUTO
         1 007011   020166 701000 1                  TSX1    EVNT
         1 007012   020066 702000 1                  TSX2    EVNTERR

     1257    22496    3                       SCTX.STATE = %XSS_SST_01;

  22496  1 007013   200003 470500                    LDP0    @VBLK,,AUTO
         1 007014   000000 471500                    LDP1    0,,PR0
         1 007015   001000 236003                    LDQ     512,DU
         1 007016   100000 552140                    STBQ    0,'40'O,PR1
         1 007017   020065 710000 1                  TRA     s:41916

     1258    22497    3                   CASE( %XSS_SST_04A,

     1259    22498    3                         %XSS_SST_04B);
     1260    22499    3                       SCTX.STATE = %XSS_SST_15A;

  22499  1 007020   024000 236003                    LDQ     10240,DU
         1 007021   100000 552140                    STBQ    0,'40'O,PR1
         1 007022   020065 710000 1                  TRA     s:41916

     1261    22500    3                   CASE( ELSE);
PL6.E3A0      #001=XSS$MACHINE File=XSS$MACHINE.:XSA1TSI                         WED 10/01/97 12:18 Page:347

     1262    22501                            %INVALID;

  22502  1 007023   020773 701000 1                  TSX1    OOPS
         1 007024   000000 011000                    NOP     0

     1263    22504    3                   END;

  22504  1 007025   020065 710000 1                  TRA     s:41916

     1264    22505        %EJECT;
PL6.E3A0      #001=XSS$MACHINE File=XSS$MACHINE.:XSA1TSI                         WED 10/01/97 12:18 Page:348
     1265    22506        /*****************************************************************************
     1266    22507        *
     1267    22508        *       PR-RA           PREPARE (RESYNCHRONIZE ACK) SPDU
     1268    22509        *
     1269    22510        *****************************************************************************/
     1270    22511    2           CASE( %XSS_SEV_PR_RA);                          /* TABLE 48 */

     1271    22512    3               DO CASE( SCTX.STATE);

  22512  1 007026   000000 471500                    LDP1    0,,PR0
         1 007027   100000 236100                    LDQ     0,,PR1
         1 007030   000033 772000                    QRL     27
         1 007031   000030 116007                    CMPQ    24,DL
         1 007032   007034 602006 1                  TNC     s:22512+6,QL
         1 007033   007103 710000 1                  TRA     s:22531
         1 007034   007103 710000 1                  TRA     s:22531
         1 007035   007103 710000 1                  TRA     s:22531
         1 007036   007105 710000 1                  TRA     s:22533
         1 007037   007103 710000 1                  TRA     s:22531
         1 007040   007064 710000 1                  TRA     s:22518
         1 007041   007103 710000 1                  TRA     s:22531
         1 007042   007103 710000 1                  TRA     s:22531
         1 007043   007103 710000 1                  TRA     s:22531
         1 007044   007103 710000 1                  TRA     s:22531
         1 007045   007075 710000 1                  TRA     s:22524
         1 007046   007075 710000 1                  TRA     s:22524
         1 007047   007075 710000 1                  TRA     s:22524
         1 007050   007100 710000 1                  TRA     s:22527
         1 007051   007103 710000 1                  TRA     s:22531
         1 007052   007103 710000 1                  TRA     s:22531
         1 007053   007103 710000 1                  TRA     s:22531
         1 007054   007103 710000 1                  TRA     s:22531
         1 007055   007103 710000 1                  TRA     s:22531
         1 007056   007103 710000 1                  TRA     s:22531
         1 007057   007103 710000 1                  TRA     s:22531
         1 007060   007103 710000 1                  TRA     s:22531
         1 007061   007103 710000 1                  TRA     s:22531
PL6.E3A0      #001=XSS$MACHINE File=XSS$MACHINE.:XSA1TSI                         WED 10/01/97 12:18 Page:349
         1 007062   007103 710000 1                  TRA     s:22531
         1 007063   007105 710000 1                  TRA     s:22533

     1272    22513    3                   CASE( %XSS_SST_01A,

     1273    22514    3                         %XSS_SST_16);
     1274    22515    3                       ;  /* don't do anything */
     1275    22516    3                   CASE( %XSS_SST_01C);

     1276    22517                            %EVENT( EV=%XSS_SEV_TDISREQ);

  22518  1 007064   000006 236000 2                  LDQ     6
         1 007065   200021 756100                    STQ     CONTINUING+5,,AUTO
         1 007066   020166 701000 1                  TSX1    EVNT
         1 007067   020066 702000 1                  TSX2    EVNTERR

     1277    22520    3                       SCTX.STATE = %XSS_SST_01;

  22520  1 007070   200003 470500                    LDP0    @VBLK,,AUTO
         1 007071   000000 471500                    LDP1    0,,PR0
         1 007072   001000 236003                    LDQ     512,DU
         1 007073   100000 552140                    STBQ    0,'40'O,PR1
         1 007074   020065 710000 1                  TRA     s:41916

     1278    22521    3                   CASE( %XSS_SST_05A,

     1279    22522    3                         %XSS_SST_05B,
     1280    22523    3                         %XSS_SST_05C);
     1281    22524    3                       SCTX.STATE = %XSS_SST_15C;

  22524  1 007075   026000 236003                    LDQ     11264,DU
         1 007076   100000 552140                    STBQ    0,'40'O,PR1
         1 007077   020065 710000 1                  TRA     s:41916

     1282    22525    3                   CASE( %XSS_SST_06);

     1283    22526                            %ACTION10;
PL6.E3A0      #001=XSS$MACHINE File=XSS$MACHINE.:XSA1TSI                         WED 10/01/97 12:18 Page:350

  22527  1 007100   021336 701000 1                  TSX1    ACTION10
         1 007101   020067 702000 1                  TSX2    ACTIONERR
         1 007102   020065 710000 1                  TRA     s:41916

     1284    22529    3                   CASE( ELSE);

     1285    22530                            %INVALID;

  22531  1 007103   020773 701000 1                  TSX1    OOPS
         1 007104   000000 011000                    NOP     0

     1286    22533    3                   END;

  22533  1 007105   020065 710000 1                  TRA     s:41916

     1287    22534        %EJECT;
PL6.E3A0      #001=XSS$MACHINE File=XSS$MACHINE.:XSA1TSI                         WED 10/01/97 12:18 Page:351
     1288    22535        /*****************************************************************************
     1289    22536        *
     1290    22537        *       PR-RS           PREPARE (RESYNCHRONIZE) SPDU
     1291    22538        *
     1292    22539        *****************************************************************************/
     1293    22540    2           CASE( %XSS_SEV_PR_RS);                          /* TABLE 48 */

     1294    22541    3               DO CASE( SCTX.STATE);

  22541  1 007106   000000 471500                    LDP1    0,,PR0
         1 007107   100000 236100                    LDQ     0,,PR1
         1 007110   000033 772000                    QRL     27
         1 007111   000036 116007                    CMPQ    30,DL
         1 007112   007114 602006 1                  TNC     s:22541+6,QL
         1 007113   007261 710000 1                  TRA     s:22911
         1 007114   007261 710000 1                  TRA     s:22911
         1 007115   007261 710000 1                  TRA     s:22911
         1 007116   007263 710000 1                  TRA     s:22913
         1 007117   007261 710000 1                  TRA     s:22911
         1 007120   007152 710000 1                  TRA     s:22549
         1 007121   007163 710000 1                  TRA     s:22558
         1 007122   007166 710000 1                  TRA     s:22570
         1 007123   007212 710000 1                  TRA     s:22674
         1 007124   007212 710000 1                  TRA     s:22674
         1 007125   007215 710000 1                  TRA     s:22676
         1 007126   007263 710000 1                  TRA     s:22913
         1 007127   007263 710000 1                  TRA     s:22913
         1 007130   007163 710000 1                  TRA     s:22558
         1 007131   007261 710000 1                  TRA     s:22911
         1 007132   007261 710000 1                  TRA     s:22911
         1 007133   007212 710000 1                  TRA     s:22674
         1 007134   007212 710000 1                  TRA     s:22674
         1 007135   007261 710000 1                  TRA     s:22911
         1 007136   007261 710000 1                  TRA     s:22911
         1 007137   007261 710000 1                  TRA     s:22911
         1 007140   007163 710000 1                  TRA     s:22558
         1 007141   007261 710000 1                  TRA     s:22911
PL6.E3A0      #001=XSS$MACHINE File=XSS$MACHINE.:XSA1TSI                         WED 10/01/97 12:18 Page:352
         1 007142   007163 710000 1                  TRA     s:22558
         1 007143   007263 710000 1                  TRA     s:22913
         1 007144   007163 710000 1                  TRA     s:22558
         1 007145   007212 710000 1                  TRA     s:22674
         1 007146   007212 710000 1                  TRA     s:22674
         1 007147   007261 710000 1                  TRA     s:22911
         1 007150   007261 710000 1                  TRA     s:22911
         1 007151   007220 710000 1                  TRA     s:22687

     1295    22542    3                   CASE( %XSS_SST_01A,

     1296    22543    3                         %XSS_SST_05B,
     1297    22544    3                         %XSS_SST_05C,
     1298    22545    3                         %XSS_SST_16);
     1299    22546    3                       ;  /* don't do anything */
     1300    22547    3                   CASE( %XSS_SST_01C);

     1301    22548                            %EVENT( EV=%XSS_SEV_TDISREQ);

  22549  1 007152   000006 236000 2                  LDQ     6
         1 007153   200021 756100                    STQ     CONTINUING+5,,AUTO
         1 007154   020166 701000 1                  TSX1    EVNT
         1 007155   020066 702000 1                  TSX2    EVNTERR

     1302    22551    3                       SCTX.STATE = %XSS_SST_01;

  22551  1 007156   200003 470500                    LDP0    @VBLK,,AUTO
         1 007157   000000 471500                    LDP1    0,,PR0
         1 007160   001000 236003                    LDQ     512,DU
         1 007161   100000 552140                    STBQ    0,'40'O,PR1
         1 007162   020065 710000 1                  TRA     s:41916

     1303    22552    3                   CASE( %XSS_SST_02A,

     1304    22553    3                         %XSS_SST_06,
     1305    22554    3                         %XSS_SST_15A,
     1306    22555    3                         %XSS_SST_15C,
PL6.E3A0      #001=XSS$MACHINE File=XSS$MACHINE.:XSA1TSI                         WED 10/01/97 12:18 Page:353
     1307    22556    3                         %XSS_SST_18);
     1308    22557                            %ACTION10;

  22558  1 007163   021336 701000 1                  TSX1    ACTION10
         1 007164   020067 702000 1                  TSX2    ACTIONERR
         1 007165   020065 710000 1                  TRA     s:41916

     1309    22560    3                   CASE( %XSS_SST_03);

     1310    22561                            %IFPREDDO( P="10");

  22570  1 007166   400000 236003                    LDQ     -131072,DU
         1 007167   200014 756100                    STQ     CONTINUING,,AUTO

  22630  1 007170   200011 236100                    LDQ     ZPINV,,AUTO
         1 007171   000200 316003                    CANQ    128,DU
         1 007172   007175 600000 1                  TZE     s:22640

  22630  1 007173   022342 701000 1                  TSX1    PRED10
         1 007174   020067 702000 1                  TSX2    ACTIONERR

  22640  1 007175   200006 236100                    LDQ     ZPRED,,AUTO
         1 007176   000200 316003                    CANQ    128,DU
         1 007177   007205 600000 1                  TZE     s:22666

  22659  1 007200   200014 450100                    STZ     CONTINUING,,AUTO

     1311    22661    4                           SCTX.STATE = %XSS_SST_15B;

  22661  1 007201   200003 470500                    LDP0    @VBLK,,AUTO
         1 007202   000000 471500                    LDP1    0,,PR0
         1 007203   025000 236003                    LDQ     10752,DU
         1 007204   100000 552140                    STBQ    0,'40'O,PR1

     1312    22662    4                           END;

     1313    22663                            %ENDPREDDO;
PL6.E3A0      #001=XSS$MACHINE File=XSS$MACHINE.:XSA1TSI                         WED 10/01/97 12:18 Page:354

  22666  1 007205   200014 234100                    SZN     CONTINUING,,AUTO
         1 007206   020065 605000 1                  TPL     s:41916

  22666  1 007207   020773 701000 1                  TSX1    OOPS
         1 007210   000000 011000                    NOP     0
         1 007211   020065 710000 1                  TRA     s:41916

     1314    22668    3                   CASE( %XSS_SST_04A,

     1315    22669    3                         %XSS_SST_04B,
     1316    22670    3                         %XSS_SST_10A,
     1317    22671    3                         %XSS_SST_10B,
     1318    22672    3                         %XSS_SST_19,
     1319    22673    3                         %XSS_SST_20);
     1320    22674    3                       SCTX.STATE = %XSS_SST_15B;

  22674  1 007212   025000 236003                    LDQ     10752,DU
         1 007213   100000 552140                    STBQ    0,'40'O,PR1
         1 007214   020065 710000 1                  TRA     s:41916

     1321    22675    3                   CASE( %XSS_SST_05A);

     1322    22676    3                       SCTX.STATE = %XSS_SST_06;

  22676  1 007215   014000 236003                    LDQ     6144,DU
         1 007216   100000 552140                    STBQ    0,'40'O,PR1
         1 007217   020065 710000 1                  TRA     s:41916

     1323    22677    3                   CASE( %XSS_SST_713);

     1324    22678                            %IFPREDDO( P="26");

  22687  1 007220   400000 236003                    LDQ     -131072,DU
         1 007221   200014 756100                    STQ     CONTINUING,,AUTO

  22747  1 007222   200011 236100                    LDQ     ZPINV,,AUTO
PL6.E3A0      #001=XSS$MACHINE File=XSS$MACHINE.:XSA1TSI                         WED 10/01/97 12:18 Page:355
         1 007223   001000 316007                    CANQ    512,DL
         1 007224   007227 600000 1                  TZE     s:22757

  22747  1 007225   023133 701000 1                  TSX1    PRED26
         1 007226   020067 702000 1                  TSX2    ACTIONERR

  22757  1 007227   200006 236100                    LDQ     ZPRED,,AUTO
         1 007230   001000 316007                    CANQ    512,DL
         1 007231   007237 600000 1                  TZE     s:22787

  22776  1 007232   200014 450100                    STZ     CONTINUING,,AUTO

     1325    22778    4                           SCTX.STATE = %XSS_SST_15B;

  22778  1 007233   200003 470500                    LDP0    @VBLK,,AUTO
         1 007234   000000 471500                    LDP1    0,,PR0
         1 007235   025000 236003                    LDQ     10752,DU
         1 007236   100000 552140                    STBQ    0,'40'O,PR1

     1326    22779    4                           END;

     1327    22780                            %ELSEPREDDO( P="-26");

  22787  1 007237   200014 234100                    SZN     CONTINUING,,AUTO
         1 007240   007254 605000 1                  TPL     s:22907

  22864  1 007241   200011 236100                    LDQ     ZPINV,,AUTO
         1 007242   001000 316007                    CANQ    512,DL
         1 007243   007246 600000 1                  TZE     s:22874

  22864  1 007244   023133 701000 1                  TSX1    PRED26
         1 007245   020067 702000 1                  TSX2    ACTIONERR

  22874  1 007246   200006 236100                    LDQ     ZPRED,,AUTO
         1 007247   001000 316007                    CANQ    512,DL
         1 007250   007254 601000 1                  TNZ     s:22907

PL6.E3A0      #001=XSS$MACHINE File=XSS$MACHINE.:XSA1TSI                         WED 10/01/97 12:18 Page:356
  22898  1 007251   200014 450100                    STZ     CONTINUING,,AUTO

     1328    22900                                %ACTION10;

  22901  1 007252   021336 701000 1                  TSX1    ACTION10
         1 007253   020067 702000 1                  TSX2    ACTIONERR

     1329    22903    4                           END;

     1330    22904                            %ENDPREDDO;

  22907  1 007254   200014 234100                    SZN     CONTINUING,,AUTO
         1 007255   020065 605000 1                  TPL     s:41916

  22907  1 007256   020773 701000 1                  TSX1    OOPS
         1 007257   000000 011000                    NOP     0
         1 007260   020065 710000 1                  TRA     s:41916

     1331    22909    3                   CASE( ELSE);

     1332    22910                            %INVALID;

  22911  1 007261   020773 701000 1                  TSX1    OOPS
         1 007262   000000 011000                    NOP     0

     1333    22913    3                   END;

  22913  1 007263   020065 710000 1                  TRA     s:41916

     1334    22914        %EJECT;
PL6.E3A0      #001=XSS$MACHINE File=XSS$MACHINE.:XSA1TSI                         WED 10/01/97 12:18 Page:357
     1335    22915        /*****************************************************************************
     1336    22916        *
     1337    22917        *       PT              PLEASE TOKENS SPDU
     1338    22918        *
     1339    22919        *****************************************************************************/
     1340    22920    2           CASE( %XSS_SEV_PT);                             /* TABLE 51 */

     1341    22921    3               DO CASE( SCTX.STATE);

  22921  1 007264   000000 471500                    LDP1    0,,PR0
         1 007265   100000 236100                    LDQ     0,,PR1
         1 007266   000033 772000                    QRL     27
         1 007267   000036 116007                    CMPQ    30,DL
         1 007270   007272 602006 1                  TNC     s:22921+6,QL
         1 007271   007405 710000 1                  TRA     s:23162
         1 007272   007405 710000 1                  TRA     s:23162
         1 007273   007405 710000 1                  TRA     s:23162
         1 007274   007407 710000 1                  TRA     s:23164
         1 007275   007405 710000 1                  TRA     s:23162
         1 007276   007330 710000 1                  TRA     s:22926
         1 007277   007405 710000 1                  TRA     s:23162
         1 007300   007341 710000 1                  TRA     s:22945
         1 007301   007341 710000 1                  TRA     s:22945
         1 007302   007341 710000 1                  TRA     s:22945
         1 007303   007365 710000 1                  TRA     s:23062
         1 007304   007365 710000 1                  TRA     s:23062
         1 007305   007365 710000 1                  TRA     s:23062
         1 007306   007365 710000 1                  TRA     s:23062
         1 007307   007405 710000 1                  TRA     s:23162
         1 007310   007405 710000 1                  TRA     s:23162
         1 007311   007405 710000 1                  TRA     s:23162
         1 007312   007405 710000 1                  TRA     s:23162
         1 007313   007405 710000 1                  TRA     s:23162
         1 007314   007405 710000 1                  TRA     s:23162
         1 007315   007405 710000 1                  TRA     s:23162
         1 007316   007341 710000 1                  TRA     s:22945
         1 007317   007365 710000 1                  TRA     s:23062
PL6.E3A0      #001=XSS$MACHINE File=XSS$MACHINE.:XSA1TSI                         WED 10/01/97 12:18 Page:358
         1 007320   007365 710000 1                  TRA     s:23062
         1 007321   007405 710000 1                  TRA     s:23162
         1 007322   007341 710000 1                  TRA     s:22945
         1 007323   007365 710000 1                  TRA     s:23062
         1 007324   007365 710000 1                  TRA     s:23062
         1 007325   007341 710000 1                  TRA     s:22945
         1 007326   007405 710000 1                  TRA     s:23162
         1 007327   007341 710000 1                  TRA     s:22945

     1342    22922    3                   CASE( %XSS_SST_01A);

     1343    22923    3                       ;  /* don't do anything */
     1344    22924    3                   CASE( %XSS_SST_01C);

     1345    22925                            %EVENT( EV=%XSS_SEV_TDISREQ);

  22926  1 007330   000006 236000 2                  LDQ     6
         1 007331   200021 756100                    STQ     CONTINUING+5,,AUTO
         1 007332   020166 701000 1                  TSX1    EVNT
         1 007333   020066 702000 1                  TSX2    EVNTERR

     1346    22928    3                       SCTX.STATE = %XSS_SST_01;

  22928  1 007334   200003 470500                    LDP0    @VBLK,,AUTO
         1 007335   000000 471500                    LDP1    0,,PR0
         1 007336   001000 236003                    LDQ     512,DU
         1 007337   100000 552140                    STBQ    0,'40'O,PR1
         1 007340   020065 710000 1                  TRA     s:41916

     1347    22929    3                   CASE( %XSS_SST_03,

     1348    22930    3                         %XSS_SST_04A,
     1349    22931    3                         %XSS_SST_04B,
     1350    22932    3                         %XSS_SST_15A,
     1351    22933    3                         %XSS_SST_18,
     1352    22934    3                         %XSS_SST_21,
     1353    22935    3                         %XSS_SST_713);
PL6.E3A0      #001=XSS$MACHINE File=XSS$MACHINE.:XSA1TSI                         WED 10/01/97 12:18 Page:359
     1354    22936                            %IFPREDDO( P="53");

  22945  1 007341   400000 236003                    LDQ     -131072,DU
         1 007342   200014 756100                    STQ     CONTINUING,,AUTO

  23005  1 007343   200012 236100                    LDQ     ZPINV+1,,AUTO
         1 007344   000001 316003                    CANQ    1,DU
         1 007345   007350 600000 1                  TZE     s:23015

  23005  1 007346   024322 701000 1                  TSX1    PRED53
         1 007347   020067 702000 1                  TSX2    ACTIONERR

  23015  1 007350   200007 236100                    LDQ     ZPRED+1,,AUTO
         1 007351   000001 316003                    CANQ    1,DU
         1 007352   007360 600000 1                  TZE     s:23043

  23034  1 007353   200014 450100                    STZ     CONTINUING,,AUTO

     1355    23036                                %EVENT( EV=%XSS_SEV_STKPIND);

  23037  1 007354   000100 236000 2                  LDQ     64
         1 007355   200021 756100                    STQ     CONTINUING+5,,AUTO
         1 007356   020166 701000 1                  TSX1    EVNT
         1 007357   020066 702000 1                  TSX2    EVNTERR

     1356    23039    4                           END;

     1357    23040                            %ENDPREDDO;

  23043  1 007360   200014 234100                    SZN     CONTINUING,,AUTO
         1 007361   020065 605000 1                  TPL     s:41916

  23043  1 007362   020773 701000 1                  TSX1    OOPS
         1 007363   000000 011000                    NOP     0
         1 007364   020065 710000 1                  TRA     s:41916

     1358    23045    3                   CASE( %XSS_SST_05A,
PL6.E3A0      #001=XSS$MACHINE File=XSS$MACHINE.:XSA1TSI                         WED 10/01/97 12:18 Page:360

     1359    23046    3                         %XSS_SST_05B,
     1360    23047    3                         %XSS_SST_05C,
     1361    23048    3                         %XSS_SST_06,
     1362    23049    3                         %XSS_SST_15B,
     1363    23050    3                         %XSS_SST_15C,
     1364    23051    3                         %XSS_SST_19,
     1365    23052    3                         %XSS_SST_20);
     1366    23053                            %IFPREDDO( P="53");

  23062  1 007365   400000 236003                    LDQ     -131072,DU
         1 007366   200014 756100                    STQ     CONTINUING,,AUTO

  23122  1 007367   200012 236100                    LDQ     ZPINV+1,,AUTO
         1 007370   000001 316003                    CANQ    1,DU
         1 007371   007374 600000 1                  TZE     s:23132

  23122  1 007372   024322 701000 1                  TSX1    PRED53
         1 007373   020067 702000 1                  TSX2    ACTIONERR

  23132  1 007374   200007 236100                    LDQ     ZPRED+1,,AUTO
         1 007375   000001 316003                    CANQ    1,DU
         1 007376   007400 600000 1                  TZE     s:23158

  23151  1 007377   200014 450100                    STZ     CONTINUING,,AUTO

     1367    23153    4                           ;  /* don't do anything */
     1368    23154    4                           END;

     1369    23155                            %ENDPREDDO;

  23158  1 007400   200014 234100                    SZN     CONTINUING,,AUTO
         1 007401   020065 605000 1                  TPL     s:41916

  23158  1 007402   020773 701000 1                  TSX1    OOPS
         1 007403   000000 011000                    NOP     0
         1 007404   020065 710000 1                  TRA     s:41916
PL6.E3A0      #001=XSS$MACHINE File=XSS$MACHINE.:XSA1TSI                         WED 10/01/97 12:18 Page:361

     1370    23160    3                   CASE( ELSE);

     1371    23161                            %INVALID;

  23162  1 007405   020773 701000 1                  TSX1    OOPS
         1 007406   000000 011000                    NOP     0

     1372    23164    3                   END;

  23164  1 007407   020065 710000 1                  TRA     s:41916

     1373    23165        %EJECT;
PL6.E3A0      #001=XSS$MACHINE File=XSS$MACHINE.:XSA1TSI                         WED 10/01/97 12:18 Page:362
     1374    23166        /*****************************************************************************
     1375    23167        *
     1376    23168        *       RA              RESYNCHRONIZE ACK SPDU
     1377    23169        *
     1378    23170        *****************************************************************************/
     1379    23171    2           CASE( %XSS_SEV_RA);                             /* TABLE 48 */

     1380    23172    3               DO CASE( SCTX.STATE);

  23172  1 007410   000000 471500                    LDP1    0,,PR0
         1 007411   100000 236100                    LDQ     0,,PR1
         1 007412   000033 772000                    QRL     27
         1 007413   000030 116007                    CMPQ    24,DL
         1 007414   007416 602006 1                  TNC     s:23172+6,QL
         1 007415   007567 710000 1                  TRA     s:23590
         1 007416   007567 710000 1                  TRA     s:23590
         1 007417   007567 710000 1                  TRA     s:23590
         1 007420   007571 710000 1                  TRA     s:23592
         1 007421   007567 710000 1                  TRA     s:23590
         1 007422   007446 710000 1                  TRA     s:23178
         1 007423   007567 710000 1                  TRA     s:23590
         1 007424   007567 710000 1                  TRA     s:23590
         1 007425   007567 710000 1                  TRA     s:23590
         1 007426   007567 710000 1                  TRA     s:23590
         1 007427   007457 710000 1                  TRA     s:23191
         1 007430   007567 710000 1                  TRA     s:23590
         1 007431   007567 710000 1                  TRA     s:23590
         1 007432   007567 710000 1                  TRA     s:23590
         1 007433   007567 710000 1                  TRA     s:23590
         1 007434   007567 710000 1                  TRA     s:23590
         1 007435   007567 710000 1                  TRA     s:23590
         1 007436   007567 710000 1                  TRA     s:23590
         1 007437   007567 710000 1                  TRA     s:23590
         1 007440   007567 710000 1                  TRA     s:23590
         1 007441   007567 710000 1                  TRA     s:23590
         1 007442   007567 710000 1                  TRA     s:23590
         1 007443   007567 710000 1                  TRA     s:23590
PL6.E3A0      #001=XSS$MACHINE File=XSS$MACHINE.:XSA1TSI                         WED 10/01/97 12:18 Page:363
         1 007444   007523 710000 1                  TRA     s:23393
         1 007445   007571 710000 1                  TRA     s:23592

     1381    23173    3                   CASE( %XSS_SST_01A,

     1382    23174    3                         %XSS_SST_16);
     1383    23175    3                       ;  /* don't do anything */
     1384    23176    3                   CASE( %XSS_SST_01C);

     1385    23177                            %EVENT( EV=%XSS_SEV_TDISREQ);

  23178  1 007446   000006 236000 2                  LDQ     6
         1 007447   200021 756100                    STQ     CONTINUING+5,,AUTO
         1 007450   020166 701000 1                  TSX1    EVNT
         1 007451   020066 702000 1                  TSX2    EVNTERR

     1386    23180    3                       SCTX.STATE = %XSS_SST_01;

  23180  1 007452   200003 470500                    LDP0    @VBLK,,AUTO
         1 007453   000000 471500                    LDP1    0,,PR0
         1 007454   001000 236003                    LDQ     512,DU
         1 007455   100000 552140                    STBQ    0,'40'O,PR1
         1 007456   020065 710000 1                  TRA     s:41916

     1387    23181    3                   CASE( %XSS_SST_05A);

     1388    23182                            %IFPREDDO( P="35&49");

  23191  1 007457   400000 236003                    LDQ     -131072,DU
         1 007460   200014 756100                    STQ     CONTINUING,,AUTO

  23237  1 007461   200011 236100                    LDQ     ZPINV,,AUTO
         1 007462   000001 316007                    CANQ    1,DL
         1 007463   007466 600000 1                  TZE     s:23246

  23237  1 007464   023340 701000 1                  TSX1    PRED35
         1 007465   020067 702000 1                  TSX2    ACTIONERR
PL6.E3A0      #001=XSS$MACHINE File=XSS$MACHINE.:XSA1TSI                         WED 10/01/97 12:18 Page:364

  23246  1 007466   200006 236100                    LDQ     ZPRED,,AUTO
         1 007467   000001 316007                    CANQ    1,DL
         1 007470   007516 600000 1                  TZE     s:23381

  23321  1 007471   200012 236100                    LDQ     ZPINV+1,,AUTO
         1 007472   000020 316003                    CANQ    16,DU
         1 007473   007476 600000 1                  TZE     s:23331

  23321  1 007474   024114 701000 1                  TSX1    PRED49
         1 007475   020067 702000 1                  TSX2    ACTIONERR

  23331  1 007476   200007 236100                    LDQ     ZPRED+1,,AUTO
         1 007477   000020 316003                    CANQ    16,DU
         1 007500   007516 600000 1                  TZE     s:23381

  23365  1 007501   200014 450100                    STZ     CONTINUING,,AUTO

     1389    23367                                %EVENT( EV=%XSS_SEV_SRSXCNF);

  23368  1 007502   000102 236000 2                  LDQ     66
         1 007503   200021 756100                    STQ     CONTINUING+5,,AUTO
         1 007504   020166 701000 1                  TSX1    EVNT
         1 007505   020066 702000 1                  TSX2    EVNTERR

     1390    23370                                %ACTION28;

  23371  1 007506   022021 701000 1                  TSX1    ACTION28
         1 007507   020067 702000 1                  TSX2    ACTIONERR

     1391    23373                                %ACTION11;

  23374  1 007510   021364 701000 1                  TSX1    ACTION11
         1 007511   020067 702000 1                  TSX2    ACTIONERR

     1392    23376    4                           SCTX.STATE = %XSS_SST_713;

PL6.E3A0      #001=XSS$MACHINE File=XSS$MACHINE.:XSA1TSI                         WED 10/01/97 12:18 Page:365
  23376  1 007512   200003 470500                    LDP0    @VBLK,,AUTO
         1 007513   000000 471500                    LDP1    0,,PR0
         1 007514   035000 236003                    LDQ     14848,DU
         1 007515   100000 552140                    STBQ    0,'40'O,PR1

     1393    23377    4                           END;

     1394    23378                            %ENDPREDDO;

  23381  1 007516   200014 234100                    SZN     CONTINUING,,AUTO
         1 007517   020065 605000 1                  TPL     s:41916

  23381  1 007520   020773 701000 1                  TSX1    OOPS
         1 007521   000000 011000                    NOP     0
         1 007522   020065 710000 1                  TRA     s:41916

     1395    23383    3                   CASE( %XSS_SST_15C);

     1396    23384                            %IFPREDDO( P="36&49");

  23393  1 007523   400000 236003                    LDQ     -131072,DU
         1 007524   200014 756100                    STQ     CONTINUING,,AUTO

  23439  1 007525   200012 234100                    SZN     ZPINV+1,,AUTO
         1 007526   007531 605000 1                  TPL     s:23448

  23439  1 007527   023363 701000 1                  TSX1    PRED36
         1 007530   020067 702000 1                  TSX2    ACTIONERR

  23448  1 007531   200007 234100                    SZN     ZPRED+1,,AUTO
         1 007532   007562 605000 1                  TPL     s:23586

  23523  1 007533   200012 236100                    LDQ     ZPINV+1,,AUTO
         1 007534   000020 316003                    CANQ    16,DU
         1 007535   007540 600000 1                  TZE     s:23533

  23523  1 007536   024114 701000 1                  TSX1    PRED49
PL6.E3A0      #001=XSS$MACHINE File=XSS$MACHINE.:XSA1TSI                         WED 10/01/97 12:18 Page:366
         1 007537   020067 702000 1                  TSX2    ACTIONERR

  23533  1 007540   200007 236100                    LDQ     ZPRED+1,,AUTO
         1 007541   000020 316003                    CANQ    16,DU
         1 007542   007562 600000 1                  TZE     s:23586

  23567  1 007543   200014 450100                    STZ     CONTINUING,,AUTO

     1397    23569                                %EVENT( EV=%XSS_SEV_SRSXCNF);

  23570  1 007544   000102 236000 2                  LDQ     66
         1 007545   200021 756100                    STQ     CONTINUING+5,,AUTO
         1 007546   020166 701000 1                  TSX1    EVNT
         1 007547   020066 702000 1                  TSX2    EVNTERR

     1398    23572                                %ACTION28;

  23573  1 007550   022021 701000 1                  TSX1    ACTION28
         1 007551   020067 702000 1                  TSX2    ACTIONERR

     1399    23575                                %ACTION11;

  23576  1 007552   021364 701000 1                  TSX1    ACTION11
         1 007553   020067 702000 1                  TSX2    ACTIONERR

     1400    23578    4                           SCTX.STATE = %XSS_SST_713;

  23578  1 007554   200003 470500                    LDP0    @VBLK,,AUTO
         1 007555   000000 471500                    LDP1    0,,PR0
         1 007556   035000 236003                    LDQ     14848,DU
         1 007557   100000 552140                    STBQ    0,'40'O,PR1

     1401    23579                                %ACTION06;

  23580  1 007560   021255 701000 1                  TSX1    ACTION06
         1 007561   020067 702000 1                  TSX2    ACTIONERR

PL6.E3A0      #001=XSS$MACHINE File=XSS$MACHINE.:XSA1TSI                         WED 10/01/97 12:18 Page:367
     1402    23582    4                           END;

     1403    23583                            %ENDPREDDO;

  23586  1 007562   200014 234100                    SZN     CONTINUING,,AUTO
         1 007563   020065 605000 1                  TPL     s:41916

  23586  1 007564   020773 701000 1                  TSX1    OOPS
         1 007565   000000 011000                    NOP     0
         1 007566   020065 710000 1                  TRA     s:41916

     1404    23588    3                   CASE( ELSE);

     1405    23589                            %INVALID;

  23590  1 007567   020773 701000 1                  TSX1    OOPS
         1 007570   000000 011000                    NOP     0

     1406    23592    3                   END;

  23592  1 007571   020065 710000 1                  TRA     s:41916

     1407    23593        %EJECT;
PL6.E3A0      #001=XSS$MACHINE File=XSS$MACHINE.:XSA1TSI                         WED 10/01/97 12:18 Page:368
     1408    23594        /*****************************************************************************
     1409    23595        *
     1410    23596        *       RF-nr           REFUSE (NO REUSE) SPDU
     1411    23597        *
     1412    23598        *****************************************************************************/
     1413    23599    2           CASE( %XSS_SEV_RF_NR);                          /* TABLE 45 */

     1414    23600    3               DO CASE( SCTX.STATE);

  23600  1 007572   000000 471500                    LDP1    0,,PR0
         1 007573   100000 236100                    LDQ     0,,PR1
         1 007574   000033 772000                    QRL     27
         1 007575   000030 116007                    CMPQ    24,DL
         1 007576   007600 602006 1                  TNC     s:23600+6,QL
         1 007577   007656 710000 1                  TRA     s:23619
         1 007600   007656 710000 1                  TRA     s:23619
         1 007601   007656 710000 1                  TRA     s:23619
         1 007602   007660 710000 1                  TRA     s:23621
         1 007603   007656 710000 1                  TRA     s:23619
         1 007604   007630 710000 1                  TRA     s:23606
         1 007605   007641 710000 1                  TRA     s:23611
         1 007606   007656 710000 1                  TRA     s:23619
         1 007607   007656 710000 1                  TRA     s:23619
         1 007610   007656 710000 1                  TRA     s:23619
         1 007611   007656 710000 1                  TRA     s:23619
         1 007612   007656 710000 1                  TRA     s:23619
         1 007613   007656 710000 1                  TRA     s:23619
         1 007614   007656 710000 1                  TRA     s:23619
         1 007615   007656 710000 1                  TRA     s:23619
         1 007616   007656 710000 1                  TRA     s:23619
         1 007617   007656 710000 1                  TRA     s:23619
         1 007620   007656 710000 1                  TRA     s:23619
         1 007621   007656 710000 1                  TRA     s:23619
         1 007622   007656 710000 1                  TRA     s:23619
         1 007623   007656 710000 1                  TRA     s:23619
         1 007624   007656 710000 1                  TRA     s:23619
         1 007625   007656 710000 1                  TRA     s:23619
PL6.E3A0      #001=XSS$MACHINE File=XSS$MACHINE.:XSA1TSI                         WED 10/01/97 12:18 Page:369
         1 007626   007656 710000 1                  TRA     s:23619
         1 007627   007660 710000 1                  TRA     s:23621

     1415    23601    3                   CASE( %XSS_SST_01A,

     1416    23602    3                         %XSS_SST_16);
     1417    23603    3                       ;  /* don't do anything */
     1418    23604    3                   CASE( %XSS_SST_01C);

     1419    23605                            %EVENT( EV=%XSS_SEV_TDISREQ);

  23606  1 007630   000006 236000 2                  LDQ     6
         1 007631   200021 756100                    STQ     CONTINUING+5,,AUTO
         1 007632   020166 701000 1                  TSX1    EVNT
         1 007633   020066 702000 1                  TSX2    EVNTERR

     1420    23608    3                       SCTX.STATE = %XSS_SST_01;

  23608  1 007634   200003 470500                    LDP0    @VBLK,,AUTO
         1 007635   000000 471500                    LDP1    0,,PR0
         1 007636   001000 236003                    LDQ     512,DU
         1 007637   100000 552140                    STBQ    0,'40'O,PR1
         1 007640   020065 710000 1                  TRA     s:41916

     1421    23609    3                   CASE( %XSS_SST_02A);

     1422    23610                            %EVENT( EV=%XSS_SEV_SCONCFN);

  23611  1 007641   000104 236000 2                  LDQ     68
         1 007642   200021 756100                    STQ     CONTINUING+5,,AUTO
         1 007643   020166 701000 1                  TSX1    EVNT
         1 007644   020066 702000 1                  TSX2    EVNTERR

     1423    23613                            %EVENT( EV=%XSS_SEV_TDISREQ);

  23614  1 007645   000006 236000 2                  LDQ     6
         1 007646   200021 756100                    STQ     CONTINUING+5,,AUTO
PL6.E3A0      #001=XSS$MACHINE File=XSS$MACHINE.:XSA1TSI                         WED 10/01/97 12:18 Page:370
         1 007647   020166 701000 1                  TSX1    EVNT
         1 007650   020066 702000 1                  TSX2    EVNTERR

     1424    23616    3                       SCTX.STATE = %XSS_SST_01;

  23616  1 007651   200003 470500                    LDP0    @VBLK,,AUTO
         1 007652   000000 471500                    LDP1    0,,PR0
         1 007653   001000 236003                    LDQ     512,DU
         1 007654   100000 552140                    STBQ    0,'40'O,PR1
         1 007655   020065 710000 1                  TRA     s:41916

     1425    23617    3                   CASE( ELSE);

     1426    23618                            %INVALID;

  23619  1 007656   020773 701000 1                  TSX1    OOPS
         1 007657   000000 011000                    NOP     0

     1427    23621    3                   END;

  23621  1 007660   020065 710000 1                  TRA     s:41916

     1428    23622        %EJECT;
PL6.E3A0      #001=XSS$MACHINE File=XSS$MACHINE.:XSA1TSI                         WED 10/01/97 12:18 Page:371
     1429    23623        /*****************************************************************************
     1430    23624        *
     1431    23625        *       RF-r            REFUSE (REUSE) SPDU
     1432    23626        *
     1433    23627        *****************************************************************************/
     1434    23628    2           CASE( %XSS_SEV_RF_R);                           /* TABLE 45 */

     1435    23629    3               DO CASE( SCTX.STATE);

  23629  1 007661   000000 471500                    LDP1    0,,PR0
         1 007662   100000 236100                    LDQ     0,,PR1
         1 007663   000033 772000                    QRL     27
         1 007664   000030 116007                    CMPQ    24,DL
         1 007665   007667 602006 1                  TNC     s:23629+6,QL
         1 007666   010007 710000 1                  TRA     s:23879
         1 007667   010007 710000 1                  TRA     s:23879
         1 007670   010007 710000 1                  TRA     s:23879
         1 007671   010011 710000 1                  TRA     s:23881
         1 007672   010007 710000 1                  TRA     s:23879
         1 007673   007717 710000 1                  TRA     s:23635
         1 007674   007730 710000 1                  TRA     s:23648
         1 007675   010007 710000 1                  TRA     s:23879
         1 007676   010007 710000 1                  TRA     s:23879
         1 007677   010007 710000 1                  TRA     s:23879
         1 007700   010007 710000 1                  TRA     s:23879
         1 007701   010007 710000 1                  TRA     s:23879
         1 007702   010007 710000 1                  TRA     s:23879
         1 007703   010007 710000 1                  TRA     s:23879
         1 007704   010007 710000 1                  TRA     s:23879
         1 007705   010007 710000 1                  TRA     s:23879
         1 007706   010007 710000 1                  TRA     s:23879
         1 007707   010007 710000 1                  TRA     s:23879
         1 007710   010007 710000 1                  TRA     s:23879
         1 007711   010007 710000 1                  TRA     s:23879
         1 007712   010007 710000 1                  TRA     s:23879
         1 007713   010007 710000 1                  TRA     s:23879
         1 007714   010007 710000 1                  TRA     s:23879
PL6.E3A0      #001=XSS$MACHINE File=XSS$MACHINE.:XSA1TSI                         WED 10/01/97 12:18 Page:372
         1 007715   010007 710000 1                  TRA     s:23879
         1 007716   010011 710000 1                  TRA     s:23881

     1436    23630    3                   CASE( %XSS_SST_01A,

     1437    23631    3                         %XSS_SST_16);
     1438    23632    3                       ;  /* don't do anything */
     1439    23633    3                   CASE( %XSS_SST_01C);

     1440    23634                            %EVENT( EV=%XSS_SEV_TDISREQ);

  23635  1 007717   000006 236000 2                  LDQ     6
         1 007720   200021 756100                    STQ     CONTINUING+5,,AUTO
         1 007721   020166 701000 1                  TSX1    EVNT
         1 007722   020066 702000 1                  TSX2    EVNTERR

     1441    23637    3                       SCTX.STATE = %XSS_SST_01;

  23637  1 007723   200003 470500                    LDP0    @VBLK,,AUTO
         1 007724   000000 471500                    LDP1    0,,PR0
         1 007725   001000 236003                    LDQ     512,DU
         1 007726   100000 552140                    STBQ    0,'40'O,PR1
         1 007727   020065 710000 1                  TRA     s:41916

     1442    23638    3                   CASE( %XSS_SST_02A);

     1443    23639                            %IFPREDDO( P="-02");

  23648  1 007730   400000 236003                    LDQ     -131072,DU
         1 007731   200014 756100                    STQ     CONTINUING,,AUTO

  23726  1 007732   200011 236100                    LDQ     ZPINV,,AUTO
         1 007733   100000 316003                    CANQ    32768,DU
         1 007734   007737 600000 1                  TZE     s:23736

  23726  1 007735   022153 701000 1                  TSX1    PRED02
         1 007736   020067 702000 1                  TSX2    ACTIONERR
PL6.E3A0      #001=XSS$MACHINE File=XSS$MACHINE.:XSA1TSI                         WED 10/01/97 12:18 Page:373

  23736  1 007737   200006 236100                    LDQ     ZPRED,,AUTO
         1 007740   100000 316003                    CANQ    32768,DU
         1 007741   007757 601000 1                  TNZ     s:23777

  23760  1 007742   200014 450100                    STZ     CONTINUING,,AUTO

     1444    23762                                %EVENT( EV=%XSS_SEV_SCONCFN);

  23763  1 007743   000104 236000 2                  LDQ     68
         1 007744   200021 756100                    STQ     CONTINUING+5,,AUTO
         1 007745   020166 701000 1                  TSX1    EVNT
         1 007746   020066 702000 1                  TSX2    EVNTERR

     1445    23765                                %EVENT( EV=%XSS_SEV_TDISREQ);

  23766  1 007747   000006 236000 2                  LDQ     6
         1 007750   200021 756100                    STQ     CONTINUING+5,,AUTO
         1 007751   020166 701000 1                  TSX1    EVNT
         1 007752   020066 702000 1                  TSX2    EVNTERR

     1446    23768    4                           SCTX.STATE = %XSS_SST_01;

  23768  1 007753   200003 470500                    LDP0    @VBLK,,AUTO
         1 007754   000000 471500                    LDP1    0,,PR0
         1 007755   001000 236003                    LDQ     512,DU
         1 007756   100000 552140                    STBQ    0,'40'O,PR1

     1447    23769    4                           END;

     1448    23770                            %ELSEPREDDO( P="02");

  23777  1 007757   200014 234100                    SZN     CONTINUING,,AUTO
         1 007760   010002 605000 1                  TPL     s:23875

  23836  1 007761   200011 236100                    LDQ     ZPINV,,AUTO
         1 007762   100000 316003                    CANQ    32768,DU
PL6.E3A0      #001=XSS$MACHINE File=XSS$MACHINE.:XSA1TSI                         WED 10/01/97 12:18 Page:374
         1 007763   007766 600000 1                  TZE     s:23846

  23836  1 007764   022153 701000 1                  TSX1    PRED02
         1 007765   020067 702000 1                  TSX2    ACTIONERR

  23846  1 007766   200006 236100                    LDQ     ZPRED,,AUTO
         1 007767   100000 316003                    CANQ    32768,DU
         1 007770   010002 600000 1                  TZE     s:23875

  23865  1 007771   200014 450100                    STZ     CONTINUING,,AUTO

     1449    23867                                %EVENT( EV=%XSS_SEV_SCONCFN);

  23868  1 007772   000104 236000 2                  LDQ     68
         1 007773   200021 756100                    STQ     CONTINUING+5,,AUTO
         1 007774   020166 701000 1                  TSX1    EVNT
         1 007775   020066 702000 1                  TSX2    EVNTERR

     1450    23870    4                           SCTX.STATE = %XSS_SST_01C;

  23870  1 007776   200003 470500                    LDP0    @VBLK,,AUTO
         1 007777   000000 471500                    LDP1    0,,PR0
         1 010000   004000 236003                    LDQ     2048,DU
         1 010001   100000 552140                    STBQ    0,'40'O,PR1

     1451    23871    4                           END;

     1452    23872                            %ENDPREDDO;

  23875  1 010002   200014 234100                    SZN     CONTINUING,,AUTO
         1 010003   020065 605000 1                  TPL     s:41916

  23875  1 010004   020773 701000 1                  TSX1    OOPS
         1 010005   000000 011000                    NOP     0
         1 010006   020065 710000 1                  TRA     s:41916

     1453    23877    3                   CASE( ELSE);
PL6.E3A0      #001=XSS$MACHINE File=XSS$MACHINE.:XSA1TSI                         WED 10/01/97 12:18 Page:375

     1454    23878                            %INVALID;

  23879  1 010007   020773 701000 1                  TSX1    OOPS
         1 010010   000000 011000                    NOP     0

     1455    23881    3                   END;

  23881  1 010011   020065 710000 1                  TRA     s:41916

     1456    23882        %EJECT;
PL6.E3A0      #001=XSS$MACHINE File=XSS$MACHINE.:XSA1TSI                         WED 10/01/97 12:18 Page:376
     1457    23883        /*****************************************************************************
     1458    23884        *
     1459    23885        *       RS-a            RESYNCHRONIZE (ABANDON) SPDU
     1460    23886        *
     1461    23887        *****************************************************************************/
     1462    23888    2           CASE( %XSS_SEV_RS_A);                           /* TABLE 48 */

     1463    23889    3               DO CASE( SCTX.STATE);

  23889  1 010012   000000 471500                    LDP1    0,,PR0
         1 010013   100000 236100                    LDQ     0,,PR1
         1 010014   000033 772000                    QRL     27
         1 010015   000036 116007                    CMPQ    30,DL
         1 010016   010020 602006 1                  TNC     s:23889+6,QL
         1 010017   010465 710000 1                  TRA     s:25413
         1 010020   010465 710000 1                  TRA     s:25413
         1 010021   010465 710000 1                  TRA     s:25413
         1 010022   010467 710000 1                  TRA     s:25415
         1 010023   010465 710000 1                  TRA     s:25413
         1 010024   010056 710000 1                  TRA     s:23895
         1 010025   010465 710000 1                  TRA     s:25413
         1 010026   010067 710000 1                  TRA     s:23908
         1 010027   010143 710000 1                  TRA     s:24222
         1 010030   010143 710000 1                  TRA     s:24222
         1 010031   010177 710000 1                  TRA     s:24339
         1 010032   010266 710000 1                  TRA     s:24749
         1 010033   010266 710000 1                  TRA     s:24749
         1 010034   010306 710000 1                  TRA     s:24857
         1 010035   010465 710000 1                  TRA     s:25413
         1 010036   010465 710000 1                  TRA     s:25413
         1 010037   010143 710000 1                  TRA     s:24222
         1 010040   010465 710000 1                  TRA     s:25413
         1 010041   010465 710000 1                  TRA     s:25413
         1 010042   010465 710000 1                  TRA     s:25413
         1 010043   010465 710000 1                  TRA     s:25413
         1 010044   010465 710000 1                  TRA     s:25413
         1 010045   010365 710000 1                  TRA     s:25102
PL6.E3A0      #001=XSS$MACHINE File=XSS$MACHINE.:XSA1TSI                         WED 10/01/97 12:18 Page:377
         1 010046   010465 710000 1                  TRA     s:25413
         1 010047   010467 710000 1                  TRA     s:25415
         1 010050   010465 710000 1                  TRA     s:25413
         1 010051   010143 710000 1                  TRA     s:24222
         1 010052   010143 710000 1                  TRA     s:24222
         1 010053   010465 710000 1                  TRA     s:25413
         1 010054   010465 710000 1                  TRA     s:25413
         1 010055   010421 710000 1                  TRA     s:25219

     1464    23890    3                   CASE( %XSS_SST_01A,

     1465    23891    3                         %XSS_SST_16);
     1466    23892    3                       ;  /* don't do anything */
     1467    23893    3                   CASE( %XSS_SST_01C);

     1468    23894                            %EVENT( EV=%XSS_SEV_TDISREQ);

  23895  1 010056   000006 236000 2                  LDQ     6
         1 010057   200021 756100                    STQ     CONTINUING+5,,AUTO
         1 010060   020166 701000 1                  TSX1    EVNT
         1 010061   020066 702000 1                  TSX2    EVNTERR

     1469    23897    3                       SCTX.STATE = %XSS_SST_01;

  23897  1 010062   200003 470500                    LDP0    @VBLK,,AUTO
         1 010063   000000 471500                    LDP1    0,,PR0
         1 010064   001000 236003                    LDQ     512,DU
         1 010065   100000 552140                    STBQ    0,'40'O,PR1
         1 010066   020065 710000 1                  TRA     s:41916

     1470    23898    3                   CASE( %XSS_SST_03);

     1471    23899                            %IFPREDDO( P="10&-34&35");

  23908  1 010067   400000 236003                    LDQ     -131072,DU
         1 010070   200014 756100                    STQ     CONTINUING,,AUTO

PL6.E3A0      #001=XSS$MACHINE File=XSS$MACHINE.:XSA1TSI                         WED 10/01/97 12:18 Page:378
  23954  1 010071   200011 236100                    LDQ     ZPINV,,AUTO
         1 010072   000200 316003                    CANQ    128,DU
         1 010073   010076 600000 1                  TZE     s:23963

  23954  1 010074   022342 701000 1                  TSX1    PRED10
         1 010075   020067 702000 1                  TSX2    ACTIONERR

  23963  1 010076   200006 236100                    LDQ     ZPRED,,AUTO
         1 010077   000200 316003                    CANQ    128,DU
         1 010100   010136 600000 1                  TZE     s:24206

  24042  1 010101   200011 236100                    LDQ     ZPINV,,AUTO
         1 010102   000002 316007                    CANQ    2,DL
         1 010103   010106 600000 1                  TZE     s:24051

  24042  1 010104   023325 701000 1                  TSX1    PRED34
         1 010105   020067 702000 1                  TSX2    ACTIONERR

  24051  1 010106   200006 236100                    LDQ     ZPRED,,AUTO
         1 010107   000002 316007                    CANQ    2,DL
         1 010110   010136 601000 1                  TNZ     s:24206

  24126  1 010111   200011 236100                    LDQ     ZPINV,,AUTO
         1 010112   000001 316007                    CANQ    1,DL
         1 010113   010116 600000 1                  TZE     s:24136

  24126  1 010114   023340 701000 1                  TSX1    PRED35
         1 010115   020067 702000 1                  TSX2    ACTIONERR

  24136  1 010116   200006 236100                    LDQ     ZPRED,,AUTO
         1 010117   000001 316007                    CANQ    1,DL
         1 010120   010136 600000 1                  TZE     s:24206

  24190  1 010121   200014 450100                    STZ     CONTINUING,,AUTO

     1472    24192                                %ACTION19;

PL6.E3A0      #001=XSS$MACHINE File=XSS$MACHINE.:XSA1TSI                         WED 10/01/97 12:18 Page:379
  24193  1 010122   021670 701000 1                  TSX1    ACTION19
         1 010123   020067 702000 1                  TSX2    ACTIONERR

     1473    24195                                %EVENT( EV=%XSS_SEV_SRSXIND);

  24196  1 010124   000106 236000 2                  LDQ     70
         1 010125   200021 756100                    STQ     CONTINUING+5,,AUTO
         1 010126   020166 701000 1                  TSX1    EVNT
         1 010127   020066 702000 1                  TSX2    EVNTERR

     1474    24198                                %ACTION16;

  24199  1 010130   021557 701000 1                  TSX1    ACTION16
         1 010131   020067 702000 1                  TSX2    ACTIONERR

     1475    24201    4                           SCTX.STATE = %XSS_SST_11A;

  24201  1 010132   200003 470500                    LDP0    @VBLK,,AUTO
         1 010133   000000 471500                    LDP1    0,,PR0
         1 010134   021000 236003                    LDQ     8704,DU
         1 010135   100000 552140                    STBQ    0,'40'O,PR1

     1476    24202    4                           END;

     1477    24203                            %ENDPREDDO;

  24206  1 010136   200014 234100                    SZN     CONTINUING,,AUTO
         1 010137   020065 605000 1                  TPL     s:41916

  24206  1 010140   020773 701000 1                  TSX1    OOPS
         1 010141   000000 011000                    NOP     0
         1 010142   020065 710000 1                  TRA     s:41916

     1478    24208    3                   CASE( %XSS_SST_04A,

     1479    24209    3                         %XSS_SST_04B,
     1480    24210    3                         %XSS_SST_10A,
PL6.E3A0      #001=XSS$MACHINE File=XSS$MACHINE.:XSA1TSI                         WED 10/01/97 12:18 Page:380
     1481    24211    3                         %XSS_SST_19,
     1482    24212    3                         %XSS_SST_20);
     1483    24213                            %IFPREDDO( P="35");

  24222  1 010143   400000 236003                    LDQ     -131072,DU
         1 010144   200014 756100                    STQ     CONTINUING,,AUTO

  24282  1 010145   200011 236100                    LDQ     ZPINV,,AUTO
         1 010146   000001 316007                    CANQ    1,DL
         1 010147   010152 600000 1                  TZE     s:24292

  24282  1 010150   023340 701000 1                  TSX1    PRED35
         1 010151   020067 702000 1                  TSX2    ACTIONERR

  24292  1 010152   200006 236100                    LDQ     ZPRED,,AUTO
         1 010153   000001 316007                    CANQ    1,DL
         1 010154   010172 600000 1                  TZE     s:24327

  24311  1 010155   200014 450100                    STZ     CONTINUING,,AUTO

     1484    24313                                %ACTION19;

  24314  1 010156   021670 701000 1                  TSX1    ACTION19
         1 010157   020067 702000 1                  TSX2    ACTIONERR

     1485    24316                                %EVENT( EV=%XSS_SEV_SRSXIND);

  24317  1 010160   000106 236000 2                  LDQ     70
         1 010161   200021 756100                    STQ     CONTINUING+5,,AUTO
         1 010162   020166 701000 1                  TSX1    EVNT
         1 010163   020066 702000 1                  TSX2    EVNTERR

     1486    24319                                %ACTION16;

  24320  1 010164   021557 701000 1                  TSX1    ACTION16
         1 010165   020067 702000 1                  TSX2    ACTIONERR

PL6.E3A0      #001=XSS$MACHINE File=XSS$MACHINE.:XSA1TSI                         WED 10/01/97 12:18 Page:381
     1487    24322    4                           SCTX.STATE = %XSS_SST_11A;

  24322  1 010166   200003 470500                    LDP0    @VBLK,,AUTO
         1 010167   000000 471500                    LDP1    0,,PR0
         1 010170   021000 236003                    LDQ     8704,DU
         1 010171   100000 552140                    STBQ    0,'40'O,PR1

     1488    24323    4                           END;

     1489    24324                            %ENDPREDDO;

  24327  1 010172   200014 234100                    SZN     CONTINUING,,AUTO
         1 010173   020065 605000 1                  TPL     s:41916

  24327  1 010174   020773 701000 1                  TSX1    OOPS
         1 010175   000000 011000                    NOP     0
         1 010176   020065 710000 1                  TRA     s:41916

     1490    24329    3                   CASE( %XSS_SST_05A);

     1491    24330                            %IFPREDDO( P="-24&35");

  24339  1 010177   400000 236003                    LDQ     -131072,DU
         1 010200   200014 756100                    STQ     CONTINUING,,AUTO

  24403  1 010201   200011 236100                    LDQ     ZPINV,,AUTO
         1 010202   004000 316007                    CANQ    2048,DL
         1 010203   010206 600000 1                  TZE     s:24412

  24403  1 010204   023063 701000 1                  TSX1    PRED24
         1 010205   020067 702000 1                  TSX2    ACTIONERR

  24412  1 010206   200006 236100                    LDQ     ZPRED,,AUTO
         1 010207   004000 316007                    CANQ    2048,DL
         1 010210   010222 601000 1                  TNZ     s:24547

  24487  1 010211   200011 236100                    LDQ     ZPINV,,AUTO
PL6.E3A0      #001=XSS$MACHINE File=XSS$MACHINE.:XSA1TSI                         WED 10/01/97 12:18 Page:382
         1 010212   000001 316007                    CANQ    1,DL
         1 010213   010216 600000 1                  TZE     s:24497

  24487  1 010214   023340 701000 1                  TSX1    PRED35
         1 010215   020067 702000 1                  TSX2    ACTIONERR

  24497  1 010216   200006 236100                    LDQ     ZPRED,,AUTO
         1 010217   000001 316007                    CANQ    1,DL
         1 010220   010222 600000 1                  TZE     s:24547

  24536  1 010221   200014 450100                    STZ     CONTINUING,,AUTO

     1492    24538    4                           ;  /* don't do anything */
     1493    24539    4                           END;

     1494    24540                            %ELSEPREDDO( P="24&35");

  24547  1 010222   200014 234100                    SZN     CONTINUING,,AUTO
         1 010223   010261 605000 1                  TPL     s:24736

  24592  1 010224   200011 236100                    LDQ     ZPINV,,AUTO
         1 010225   004000 316007                    CANQ    2048,DL
         1 010226   010231 600000 1                  TZE     s:24601

  24592  1 010227   023063 701000 1                  TSX1    PRED24
         1 010230   020067 702000 1                  TSX2    ACTIONERR

  24601  1 010231   200006 236100                    LDQ     ZPRED,,AUTO
         1 010232   004000 316007                    CANQ    2048,DL
         1 010233   010261 600000 1                  TZE     s:24736

  24676  1 010234   200011 236100                    LDQ     ZPINV,,AUTO
         1 010235   000001 316007                    CANQ    1,DL
         1 010236   010241 600000 1                  TZE     s:24686

  24676  1 010237   023340 701000 1                  TSX1    PRED35
         1 010240   020067 702000 1                  TSX2    ACTIONERR
PL6.E3A0      #001=XSS$MACHINE File=XSS$MACHINE.:XSA1TSI                         WED 10/01/97 12:18 Page:383

  24686  1 010241   200006 236100                    LDQ     ZPRED,,AUTO
         1 010242   000001 316007                    CANQ    1,DL
         1 010243   010261 600000 1                  TZE     s:24736

  24720  1 010244   200014 450100                    STZ     CONTINUING,,AUTO

     1495    24722                                %ACTION19;

  24723  1 010245   021670 701000 1                  TSX1    ACTION19
         1 010246   020067 702000 1                  TSX2    ACTIONERR

     1496    24725                                %EVENT( EV=%XSS_SEV_SRSXIND);

  24726  1 010247   000106 236000 2                  LDQ     70
         1 010250   200021 756100                    STQ     CONTINUING+5,,AUTO
         1 010251   020166 701000 1                  TSX1    EVNT
         1 010252   020066 702000 1                  TSX2    EVNTERR

     1497    24728                                %ACTION16;

  24729  1 010253   021557 701000 1                  TSX1    ACTION16
         1 010254   020067 702000 1                  TSX2    ACTIONERR

     1498    24731    4                           SCTX.STATE = %XSS_SST_11A;

  24731  1 010255   200003 470500                    LDP0    @VBLK,,AUTO
         1 010256   000000 471500                    LDP1    0,,PR0
         1 010257   021000 236003                    LDQ     8704,DU
         1 010260   100000 552140                    STBQ    0,'40'O,PR1

     1499    24732    4                           END;

     1500    24733                            %ENDPREDDO;

  24736  1 010261   200014 234100                    SZN     CONTINUING,,AUTO
         1 010262   020065 605000 1                  TPL     s:41916
PL6.E3A0      #001=XSS$MACHINE File=XSS$MACHINE.:XSA1TSI                         WED 10/01/97 12:18 Page:384

  24736  1 010263   020773 701000 1                  TSX1    OOPS
         1 010264   000000 011000                    NOP     0
         1 010265   020065 710000 1                  TRA     s:41916

     1501    24738    3                   CASE( %XSS_SST_05B,

     1502    24739    3                         %XSS_SST_05C);
     1503    24740                            %IFPREDDO( P="28");

  24749  1 010266   400000 236003                    LDQ     -131072,DU
         1 010267   200014 756100                    STQ     CONTINUING,,AUTO

  24809  1 010270   200011 236100                    LDQ     ZPINV,,AUTO
         1 010271   000200 316007                    CANQ    128,DL
         1 010272   010275 600000 1                  TZE     s:24819

  24809  1 010273   023173 701000 1                  TSX1    PRED28
         1 010274   020067 702000 1                  TSX2    ACTIONERR

  24819  1 010275   200006 236100                    LDQ     ZPRED,,AUTO
         1 010276   000200 316007                    CANQ    128,DL
         1 010277   010301 600000 1                  TZE     s:24845

  24838  1 010300   200014 450100                    STZ     CONTINUING,,AUTO

     1504    24840    4                           ;  /* don't do anything */
     1505    24841    4                           END;

     1506    24842                            %ENDPREDDO;

  24845  1 010301   200014 234100                    SZN     CONTINUING,,AUTO
         1 010302   020065 605000 1                  TPL     s:41916

  24845  1 010303   020773 701000 1                  TSX1    OOPS
         1 010304   000000 011000                    NOP     0
         1 010305   020065 710000 1                  TRA     s:41916
PL6.E3A0      #001=XSS$MACHINE File=XSS$MACHINE.:XSA1TSI                         WED 10/01/97 12:18 Page:385

     1507    24847    3                   CASE( %XSS_SST_06);

     1508    24848                            %IFPREDDO( P="-24");

  24857  1 010306   400000 236003                    LDQ     -131072,DU
         1 010307   200014 756100                    STQ     CONTINUING,,AUTO

  24935  1 010310   200011 236100                    LDQ     ZPINV,,AUTO
         1 010311   004000 316007                    CANQ    2048,DL
         1 010312   010315 600000 1                  TZE     s:24945

  24935  1 010313   023063 701000 1                  TSX1    PRED24
         1 010314   020067 702000 1                  TSX2    ACTIONERR

  24945  1 010315   200006 236100                    LDQ     ZPRED,,AUTO
         1 010316   004000 316007                    CANQ    2048,DL
         1 010317   010327 601000 1                  TNZ     s:24983

  24969  1 010320   200014 450100                    STZ     CONTINUING,,AUTO

     1509    24971    4                           SCTX.STATE = %XSS_SST_05A;

  24971  1 010321   200003 470500                    LDP0    @VBLK,,AUTO
         1 010322   000000 471500                    LDP1    0,,PR0
         1 010323   011000 236003                    LDQ     4608,DU
         1 010324   100000 552140                    STBQ    0,'40'O,PR1

     1510    24972                                %ACTION06;

  24973  1 010325   021255 701000 1                  TSX1    ACTION06
         1 010326   020067 702000 1                  TSX2    ACTIONERR

     1511    24975    4                           END;

     1512    24976                            %ELSEPREDDO( P="24");

PL6.E3A0      #001=XSS$MACHINE File=XSS$MACHINE.:XSA1TSI                         WED 10/01/97 12:18 Page:386
  24983  1 010327   200014 234100                    SZN     CONTINUING,,AUTO
         1 010330   010360 605000 1                  TPL     s:25090

  25042  1 010331   200011 236100                    LDQ     ZPINV,,AUTO
         1 010332   004000 316007                    CANQ    2048,DL
         1 010333   010336 600000 1                  TZE     s:25052

  25042  1 010334   023063 701000 1                  TSX1    PRED24
         1 010335   020067 702000 1                  TSX2    ACTIONERR

  25052  1 010336   200006 236100                    LDQ     ZPRED,,AUTO
         1 010337   004000 316007                    CANQ    2048,DL
         1 010340   010360 600000 1                  TZE     s:25090

  25071  1 010341   200014 450100                    STZ     CONTINUING,,AUTO

     1513    25073                                %ACTION19;

  25074  1 010342   021670 701000 1                  TSX1    ACTION19
         1 010343   020067 702000 1                  TSX2    ACTIONERR

     1514    25076                                %EVENT( EV=%XSS_SEV_SRSXIND);

  25077  1 010344   000106 236000 2                  LDQ     70
         1 010345   200021 756100                    STQ     CONTINUING+5,,AUTO
         1 010346   020166 701000 1                  TSX1    EVNT
         1 010347   020066 702000 1                  TSX2    EVNTERR

     1515    25079                                %ACTION16;

  25080  1 010350   021557 701000 1                  TSX1    ACTION16
         1 010351   020067 702000 1                  TSX2    ACTIONERR

     1516    25082    4                           SCTX.STATE = %XSS_SST_11A;

  25082  1 010352   200003 470500                    LDP0    @VBLK,,AUTO
         1 010353   000000 471500                    LDP1    0,,PR0
PL6.E3A0      #001=XSS$MACHINE File=XSS$MACHINE.:XSA1TSI                         WED 10/01/97 12:18 Page:387
         1 010354   021000 236003                    LDQ     8704,DU
         1 010355   100000 552140                    STBQ    0,'40'O,PR1

     1517    25083                                %ACTION06;

  25084  1 010356   021255 701000 1                  TSX1    ACTION06
         1 010357   020067 702000 1                  TSX2    ACTIONERR

     1518    25086    4                           END;

     1519    25087                            %ENDPREDDO;

  25090  1 010360   200014 234100                    SZN     CONTINUING,,AUTO
         1 010361   020065 605000 1                  TPL     s:41916

  25090  1 010362   020773 701000 1                  TSX1    OOPS
         1 010363   000000 011000                    NOP     0
         1 010364   020065 710000 1                  TRA     s:41916

     1520    25092    3                   CASE( %XSS_SST_15B);

     1521    25093                            %IFPREDDO( P="29");

  25102  1 010365   400000 236003                    LDQ     -131072,DU
         1 010366   200014 756100                    STQ     CONTINUING,,AUTO

  25162  1 010367   200011 236100                    LDQ     ZPINV,,AUTO
         1 010370   000100 316007                    CANQ    64,DL
         1 010371   010374 600000 1                  TZE     s:25172

  25162  1 010372   023206 701000 1                  TSX1    PRED29
         1 010373   020067 702000 1                  TSX2    ACTIONERR

  25172  1 010374   200006 236100                    LDQ     ZPRED,,AUTO
         1 010375   000100 316007                    CANQ    64,DL
         1 010376   010414 600000 1                  TZE     s:25207

PL6.E3A0      #001=XSS$MACHINE File=XSS$MACHINE.:XSA1TSI                         WED 10/01/97 12:18 Page:388
  25191  1 010377   200014 450100                    STZ     CONTINUING,,AUTO

     1522    25193                                %ACTION19;

  25194  1 010400   021670 701000 1                  TSX1    ACTION19
         1 010401   020067 702000 1                  TSX2    ACTIONERR

     1523    25196                                %EVENT( EV=%XSS_SEV_SRSXIND);

  25197  1 010402   000106 236000 2                  LDQ     70
         1 010403   200021 756100                    STQ     CONTINUING+5,,AUTO
         1 010404   020166 701000 1                  TSX1    EVNT
         1 010405   020066 702000 1                  TSX2    EVNTERR

     1524    25199                                %ACTION16;

  25200  1 010406   021557 701000 1                  TSX1    ACTION16
         1 010407   020067 702000 1                  TSX2    ACTIONERR

     1525    25202    4                           SCTX.STATE = %XSS_SST_11A;

  25202  1 010410   200003 470500                    LDP0    @VBLK,,AUTO
         1 010411   000000 471500                    LDP1    0,,PR0
         1 010412   021000 236003                    LDQ     8704,DU
         1 010413   100000 552140                    STBQ    0,'40'O,PR1

     1526    25203    4                           END;

     1527    25204                            %ENDPREDDO;

  25207  1 010414   200014 234100                    SZN     CONTINUING,,AUTO
         1 010415   020065 605000 1                  TPL     s:41916

  25207  1 010416   020773 701000 1                  TSX1    OOPS
         1 010417   000000 011000                    NOP     0
         1 010420   020065 710000 1                  TRA     s:41916

PL6.E3A0      #001=XSS$MACHINE File=XSS$MACHINE.:XSA1TSI                         WED 10/01/97 12:18 Page:389
     1528    25209    3                   CASE( %XSS_SST_713);

     1529    25210                            %IFPREDDO( P="26&35");

  25219  1 010421   400000 236003                    LDQ     -131072,DU
         1 010422   200014 756100                    STQ     CONTINUING,,AUTO

  25265  1 010423   200011 236100                    LDQ     ZPINV,,AUTO
         1 010424   001000 316007                    CANQ    512,DL
         1 010425   010430 600000 1                  TZE     s:25274

  25265  1 010426   023133 701000 1                  TSX1    PRED26
         1 010427   020067 702000 1                  TSX2    ACTIONERR

  25274  1 010430   200006 236100                    LDQ     ZPRED,,AUTO
         1 010431   001000 316007                    CANQ    512,DL
         1 010432   010460 600000 1                  TZE     s:25409

  25349  1 010433   200011 236100                    LDQ     ZPINV,,AUTO
         1 010434   000001 316007                    CANQ    1,DL
         1 010435   010440 600000 1                  TZE     s:25359

  25349  1 010436   023340 701000 1                  TSX1    PRED35
         1 010437   020067 702000 1                  TSX2    ACTIONERR

  25359  1 010440   200006 236100                    LDQ     ZPRED,,AUTO
         1 010441   000001 316007                    CANQ    1,DL
         1 010442   010460 600000 1                  TZE     s:25409

  25393  1 010443   200014 450100                    STZ     CONTINUING,,AUTO

     1530    25395                                %ACTION19;

  25396  1 010444   021670 701000 1                  TSX1    ACTION19
         1 010445   020067 702000 1                  TSX2    ACTIONERR

     1531    25398                                %EVENT( EV=%XSS_SEV_SRSXIND);
PL6.E3A0      #001=XSS$MACHINE File=XSS$MACHINE.:XSA1TSI                         WED 10/01/97 12:18 Page:390

  25399  1 010446   000106 236000 2                  LDQ     70
         1 010447   200021 756100                    STQ     CONTINUING+5,,AUTO
         1 010450   020166 701000 1                  TSX1    EVNT
         1 010451   020066 702000 1                  TSX2    EVNTERR

     1532    25401                                %ACTION16;

  25402  1 010452   021557 701000 1                  TSX1    ACTION16
         1 010453   020067 702000 1                  TSX2    ACTIONERR

     1533    25404    4                           SCTX.STATE = %XSS_SST_11A;

  25404  1 010454   200003 470500                    LDP0    @VBLK,,AUTO
         1 010455   000000 471500                    LDP1    0,,PR0
         1 010456   021000 236003                    LDQ     8704,DU
         1 010457   100000 552140                    STBQ    0,'40'O,PR1

     1534    25405    4                           END;

     1535    25406                            %ENDPREDDO;

  25409  1 010460   200014 234100                    SZN     CONTINUING,,AUTO
         1 010461   020065 605000 1                  TPL     s:41916

  25409  1 010462   020773 701000 1                  TSX1    OOPS
         1 010463   000000 011000                    NOP     0
         1 010464   020065 710000 1                  TRA     s:41916

     1536    25411    3                   CASE( ELSE);

     1537    25412                            %INVALID;

  25413  1 010465   020773 701000 1                  TSX1    OOPS
         1 010466   000000 011000                    NOP     0

     1538    25415    3                   END;
PL6.E3A0      #001=XSS$MACHINE File=XSS$MACHINE.:XSA1TSI                         WED 10/01/97 12:18 Page:391

  25415  1 010467   020065 710000 1                  TRA     s:41916

     1539    25416        %EJECT;
PL6.E3A0      #001=XSS$MACHINE File=XSS$MACHINE.:XSA1TSI                         WED 10/01/97 12:18 Page:392
     1540    25417        /*****************************************************************************
     1541    25418        *
     1542    25419        *       RS-r            RESYNCHRONIZE (RESTART) SPDU
     1543    25420        *
     1544    25421        *****************************************************************************/
     1545    25422    2           CASE( %XSS_SEV_RS_R);                           /* TABLE 48 */

     1546    25423    3               DO CASE( SCTX.STATE);

  25423  1 010470   000000 471500                    LDP1    0,,PR0
         1 010471   100000 236100                    LDQ     0,,PR1
         1 010472   000033 772000                    QRL     27
         1 010473   000036 116007                    CMPQ    30,DL
         1 010474   010476 602006 1                  TNC     s:25423+6,QL
         1 010475   011227 710000 1                  TRA     s:27608
         1 010476   011227 710000 1                  TRA     s:27608
         1 010477   011227 710000 1                  TRA     s:27608
         1 010500   011231 710000 1                  TRA     s:27610
         1 010501   011227 710000 1                  TRA     s:27608
         1 010502   010534 710000 1                  TRA     s:25429
         1 010503   011227 710000 1                  TRA     s:27608
         1 010504   010545 710000 1                  TRA     s:25442
         1 010505   010627 710000 1                  TRA     s:25837
         1 010506   010627 710000 1                  TRA     s:25837
         1 010507   010671 710000 1                  TRA     s:26036
         1 010510   010776 710000 1                  TRA     s:26613
         1 010511   010776 710000 1                  TRA     s:26613
         1 010512   011016 710000 1                  TRA     s:26721
         1 010513   011227 710000 1                  TRA     s:27608
         1 010514   011227 710000 1                  TRA     s:27608
         1 010515   011227 710000 1                  TRA     s:27608
         1 010516   011227 710000 1                  TRA     s:27608
         1 010517   011227 710000 1                  TRA     s:27608
         1 010520   011227 710000 1                  TRA     s:27608
         1 010521   011227 710000 1                  TRA     s:27608
         1 010522   011227 710000 1                  TRA     s:27608
         1 010523   011113 710000 1                  TRA     s:27133
PL6.E3A0      #001=XSS$MACHINE File=XSS$MACHINE.:XSA1TSI                         WED 10/01/97 12:18 Page:393
         1 010524   011227 710000 1                  TRA     s:27608
         1 010525   011231 710000 1                  TRA     s:27610
         1 010526   011227 710000 1                  TRA     s:27608
         1 010527   010627 710000 1                  TRA     s:25837
         1 010530   010627 710000 1                  TRA     s:25837
         1 010531   011227 710000 1                  TRA     s:27608
         1 010532   011227 710000 1                  TRA     s:27608
         1 010533   011155 710000 1                  TRA     s:27332

     1547    25424    3                   CASE( %XSS_SST_01A,

     1548    25425    3                         %XSS_SST_16);
     1549    25426    3                       ;  /* don't do anything */
     1550    25427    3                   CASE( %XSS_SST_01C);

     1551    25428                            %EVENT( EV=%XSS_SEV_TDISREQ);

  25429  1 010534   000006 236000 2                  LDQ     6
         1 010535   200021 756100                    STQ     CONTINUING+5,,AUTO
         1 010536   020166 701000 1                  TSX1    EVNT
         1 010537   020066 702000 1                  TSX2    EVNTERR

     1552    25431    3                       SCTX.STATE = %XSS_SST_01;

  25431  1 010540   200003 470500                    LDP0    @VBLK,,AUTO
         1 010541   000000 471500                    LDP1    0,,PR0
         1 010542   001000 236003                    LDQ     512,DU
         1 010543   100000 552140                    STBQ    0,'40'O,PR1
         1 010544   020065 710000 1                  TRA     s:41916

     1553    25432    3                   CASE( %XSS_SST_03);

     1554    25433                            %IFPREDDO( P="10&-34&35&32");

  25442  1 010545   400000 236003                    LDQ     -131072,DU
         1 010546   200014 756100                    STQ     CONTINUING,,AUTO

PL6.E3A0      #001=XSS$MACHINE File=XSS$MACHINE.:XSA1TSI                         WED 10/01/97 12:18 Page:394
  25488  1 010547   200011 236100                    LDQ     ZPINV,,AUTO
         1 010550   000200 316003                    CANQ    128,DU
         1 010551   010554 600000 1                  TZE     s:25497

  25488  1 010552   022342 701000 1                  TSX1    PRED10
         1 010553   020067 702000 1                  TSX2    ACTIONERR

  25497  1 010554   200006 236100                    LDQ     ZPRED,,AUTO
         1 010555   000200 316003                    CANQ    128,DU
         1 010556   010622 600000 1                  TZE     s:25822

  25576  1 010557   200011 236100                    LDQ     ZPINV,,AUTO
         1 010560   000002 316007                    CANQ    2,DL
         1 010561   010564 600000 1                  TZE     s:25585

  25576  1 010562   023325 701000 1                  TSX1    PRED34
         1 010563   020067 702000 1                  TSX2    ACTIONERR

  25585  1 010564   200006 236100                    LDQ     ZPRED,,AUTO
         1 010565   000002 316007                    CANQ    2,DL
         1 010566   010622 601000 1                  TNZ     s:25822

  25646  1 010567   200011 236100                    LDQ     ZPINV,,AUTO
         1 010570   000001 316007                    CANQ    1,DL
         1 010571   010574 600000 1                  TZE     s:25655

  25646  1 010572   023340 701000 1                  TSX1    PRED35
         1 010573   020067 702000 1                  TSX2    ACTIONERR

  25655  1 010574   200006 236100                    LDQ     ZPRED,,AUTO
         1 010575   000001 316007                    CANQ    1,DL
         1 010576   010622 600000 1                  TZE     s:25822

  25730  1 010577   200011 236100                    LDQ     ZPINV,,AUTO
         1 010600   000010 316007                    CANQ    8,DL
         1 010601   010604 600000 1                  TZE     s:25740

PL6.E3A0      #001=XSS$MACHINE File=XSS$MACHINE.:XSA1TSI                         WED 10/01/97 12:18 Page:395
  25730  1 010602   023272 701000 1                  TSX1    PRED32
         1 010603   020067 702000 1                  TSX2    ACTIONERR

  25740  1 010604   200006 236100                    LDQ     ZPRED,,AUTO
         1 010605   000010 316007                    CANQ    8,DL
         1 010606   010622 600000 1                  TZE     s:25822

  25809  1 010607   200014 450100                    STZ     CONTINUING,,AUTO

     1555    25811                                %EVENT( EV=%XSS_SEV_SRSXIND);

  25812  1 010610   000106 236000 2                  LDQ     70
         1 010611   200021 756100                    STQ     CONTINUING+5,,AUTO
         1 010612   020166 701000 1                  TSX1    EVNT
         1 010613   020066 702000 1                  TSX2    EVNTERR

     1556    25814                                %ACTION16;

  25815  1 010614   021557 701000 1                  TSX1    ACTION16
         1 010615   020067 702000 1                  TSX2    ACTIONERR

     1557    25817    4                           SCTX.STATE = %XSS_SST_11A;

  25817  1 010616   200003 470500                    LDP0    @VBLK,,AUTO
         1 010617   000000 471500                    LDP1    0,,PR0
         1 010620   021000 236003                    LDQ     8704,DU
         1 010621   100000 552140                    STBQ    0,'40'O,PR1

     1558    25818    4                           END;

     1559    25819                            %ENDPREDDO;

  25822  1 010622   200014 234100                    SZN     CONTINUING,,AUTO
         1 010623   020065 605000 1                  TPL     s:41916

  25822  1 010624   020773 701000 1                  TSX1    OOPS
         1 010625   000000 011000                    NOP     0
PL6.E3A0      #001=XSS$MACHINE File=XSS$MACHINE.:XSA1TSI                         WED 10/01/97 12:18 Page:396
         1 010626   020065 710000 1                  TRA     s:41916

     1560    25824    3                   CASE( %XSS_SST_04A,

     1561    25825    3                         %XSS_SST_04B,
     1562    25826    3                         %XSS_SST_19,
     1563    25827    3                         %XSS_SST_20);
     1564    25828                            %IFPREDDO( P="32&35");

  25837  1 010627   400000 236003                    LDQ     -131072,DU
         1 010630   200014 756100                    STQ     CONTINUING,,AUTO

  25883  1 010631   200011 236100                    LDQ     ZPINV,,AUTO
         1 010632   000010 316007                    CANQ    8,DL
         1 010633   010636 600000 1                  TZE     s:25892

  25883  1 010634   023272 701000 1                  TSX1    PRED32
         1 010635   020067 702000 1                  TSX2    ACTIONERR

  25892  1 010636   200006 236100                    LDQ     ZPRED,,AUTO
         1 010637   000010 316007                    CANQ    8,DL
         1 010640   010664 600000 1                  TZE     s:26024

  25967  1 010641   200011 236100                    LDQ     ZPINV,,AUTO
         1 010642   000001 316007                    CANQ    1,DL
         1 010643   010646 600000 1                  TZE     s:25977

  25967  1 010644   023340 701000 1                  TSX1    PRED35
         1 010645   020067 702000 1                  TSX2    ACTIONERR

  25977  1 010646   200006 236100                    LDQ     ZPRED,,AUTO
         1 010647   000001 316007                    CANQ    1,DL
         1 010650   010664 600000 1                  TZE     s:26024

  26011  1 010651   200014 450100                    STZ     CONTINUING,,AUTO

     1565    26013                                %EVENT( EV=%XSS_SEV_SRSXIND);
PL6.E3A0      #001=XSS$MACHINE File=XSS$MACHINE.:XSA1TSI                         WED 10/01/97 12:18 Page:397

  26014  1 010652   000106 236000 2                  LDQ     70
         1 010653   200021 756100                    STQ     CONTINUING+5,,AUTO
         1 010654   020166 701000 1                  TSX1    EVNT
         1 010655   020066 702000 1                  TSX2    EVNTERR

     1566    26016                                %ACTION16;

  26017  1 010656   021557 701000 1                  TSX1    ACTION16
         1 010657   020067 702000 1                  TSX2    ACTIONERR

     1567    26019    4                           SCTX.STATE = %XSS_SST_11A;

  26019  1 010660   200003 470500                    LDP0    @VBLK,,AUTO
         1 010661   000000 471500                    LDP1    0,,PR0
         1 010662   021000 236003                    LDQ     8704,DU
         1 010663   100000 552140                    STBQ    0,'40'O,PR1

     1568    26020    4                           END;

     1569    26021                            %ENDPREDDO;

  26024  1 010664   200014 234100                    SZN     CONTINUING,,AUTO
         1 010665   020065 605000 1                  TPL     s:41916

  26024  1 010666   020773 701000 1                  TSX1    OOPS
         1 010667   000000 011000                    NOP     0
         1 010670   020065 710000 1                  TRA     s:41916

     1570    26026    3                   CASE( %XSS_SST_05A);

     1571    26027                            %IFPREDDO( P="-24&32&35");

  26036  1 010671   400000 236003                    LDQ     -131072,DU
         1 010672   200014 756100                    STQ     CONTINUING,,AUTO

  26100  1 010673   200011 236100                    LDQ     ZPINV,,AUTO
PL6.E3A0      #001=XSS$MACHINE File=XSS$MACHINE.:XSA1TSI                         WED 10/01/97 12:18 Page:398
         1 010674   004000 316007                    CANQ    2048,DL
         1 010675   010700 600000 1                  TZE     s:26109

  26100  1 010676   023063 701000 1                  TSX1    PRED24
         1 010677   020067 702000 1                  TSX2    ACTIONERR

  26109  1 010700   200006 236100                    LDQ     ZPRED,,AUTO
         1 010701   004000 316007                    CANQ    2048,DL
         1 010702   010724 601000 1                  TNZ     s:26329

  26170  1 010703   200011 236100                    LDQ     ZPINV,,AUTO
         1 010704   000010 316007                    CANQ    8,DL
         1 010705   010710 600000 1                  TZE     s:26179

  26170  1 010706   023272 701000 1                  TSX1    PRED32
         1 010707   020067 702000 1                  TSX2    ACTIONERR

  26179  1 010710   200006 236100                    LDQ     ZPRED,,AUTO
         1 010711   000010 316007                    CANQ    8,DL
         1 010712   010724 600000 1                  TZE     s:26329

  26254  1 010713   200011 236100                    LDQ     ZPINV,,AUTO
         1 010714   000001 316007                    CANQ    1,DL
         1 010715   010720 600000 1                  TZE     s:26264

  26254  1 010716   023340 701000 1                  TSX1    PRED35
         1 010717   020067 702000 1                  TSX2    ACTIONERR

  26264  1 010720   200006 236100                    LDQ     ZPRED,,AUTO
         1 010721   000001 316007                    CANQ    1,DL
         1 010722   010724 600000 1                  TZE     s:26329

  26318  1 010723   200014 450100                    STZ     CONTINUING,,AUTO

     1572    26320    4                           ;  /* don't do anything */
     1573    26321    4                           END;

PL6.E3A0      #001=XSS$MACHINE File=XSS$MACHINE.:XSA1TSI                         WED 10/01/97 12:18 Page:399
     1574    26322                            %ELSEPREDDO( P="24&32&35");

  26329  1 010724   200014 234100                    SZN     CONTINUING,,AUTO
         1 010725   010771 605000 1                  TPL     s:26600

  26374  1 010726   200011 236100                    LDQ     ZPINV,,AUTO
         1 010727   004000 316007                    CANQ    2048,DL
         1 010730   010733 600000 1                  TZE     s:26383

  26374  1 010731   023063 701000 1                  TSX1    PRED24
         1 010732   020067 702000 1                  TSX2    ACTIONERR

  26383  1 010733   200006 236100                    LDQ     ZPRED,,AUTO
         1 010734   004000 316007                    CANQ    2048,DL
         1 010735   010771 600000 1                  TZE     s:26600

  26444  1 010736   200011 236100                    LDQ     ZPINV,,AUTO
         1 010737   000010 316007                    CANQ    8,DL
         1 010740   010743 600000 1                  TZE     s:26453

  26444  1 010741   023272 701000 1                  TSX1    PRED32
         1 010742   020067 702000 1                  TSX2    ACTIONERR

  26453  1 010743   200006 236100                    LDQ     ZPRED,,AUTO
         1 010744   000010 316007                    CANQ    8,DL
         1 010745   010771 600000 1                  TZE     s:26600

  26528  1 010746   200011 236100                    LDQ     ZPINV,,AUTO
         1 010747   000001 316007                    CANQ    1,DL
         1 010750   010753 600000 1                  TZE     s:26538

  26528  1 010751   023340 701000 1                  TSX1    PRED35
         1 010752   020067 702000 1                  TSX2    ACTIONERR

  26538  1 010753   200006 236100                    LDQ     ZPRED,,AUTO
         1 010754   000001 316007                    CANQ    1,DL
         1 010755   010771 600000 1                  TZE     s:26600
PL6.E3A0      #001=XSS$MACHINE File=XSS$MACHINE.:XSA1TSI                         WED 10/01/97 12:18 Page:400

  26587  1 010756   200014 450100                    STZ     CONTINUING,,AUTO

     1575    26589                                %EVENT( EV=%XSS_SEV_SRSXIND);

  26590  1 010757   000106 236000 2                  LDQ     70
         1 010760   200021 756100                    STQ     CONTINUING+5,,AUTO
         1 010761   020166 701000 1                  TSX1    EVNT
         1 010762   020066 702000 1                  TSX2    EVNTERR

     1576    26592                                %ACTION16;

  26593  1 010763   021557 701000 1                  TSX1    ACTION16
         1 010764   020067 702000 1                  TSX2    ACTIONERR

     1577    26595    4                           SCTX.STATE = %XSS_SST_11A;

  26595  1 010765   200003 470500                    LDP0    @VBLK,,AUTO
         1 010766   000000 471500                    LDP1    0,,PR0
         1 010767   021000 236003                    LDQ     8704,DU
         1 010770   100000 552140                    STBQ    0,'40'O,PR1

     1578    26596    4                           END;

     1579    26597                            %ENDPREDDO;

  26600  1 010771   200014 234100                    SZN     CONTINUING,,AUTO
         1 010772   020065 605000 1                  TPL     s:41916

  26600  1 010773   020773 701000 1                  TSX1    OOPS
         1 010774   000000 011000                    NOP     0
         1 010775   020065 710000 1                  TRA     s:41916

     1580    26602    3                   CASE( %XSS_SST_05B,

     1581    26603    3                         %XSS_SST_05C);
     1582    26604                            %IFPREDDO( P="28");
PL6.E3A0      #001=XSS$MACHINE File=XSS$MACHINE.:XSA1TSI                         WED 10/01/97 12:18 Page:401

  26613  1 010776   400000 236003                    LDQ     -131072,DU
         1 010777   200014 756100                    STQ     CONTINUING,,AUTO

  26673  1 011000   200011 236100                    LDQ     ZPINV,,AUTO
         1 011001   000200 316007                    CANQ    128,DL
         1 011002   011005 600000 1                  TZE     s:26683

  26673  1 011003   023173 701000 1                  TSX1    PRED28
         1 011004   020067 702000 1                  TSX2    ACTIONERR

  26683  1 011005   200006 236100                    LDQ     ZPRED,,AUTO
         1 011006   000200 316007                    CANQ    128,DL
         1 011007   011011 600000 1                  TZE     s:26709

  26702  1 011010   200014 450100                    STZ     CONTINUING,,AUTO

     1583    26704    4                           ;  /* don't do anything */
     1584    26705    4                           END;

     1585    26706                            %ENDPREDDO;

  26709  1 011011   200014 234100                    SZN     CONTINUING,,AUTO
         1 011012   020065 605000 1                  TPL     s:41916

  26709  1 011013   020773 701000 1                  TSX1    OOPS
         1 011014   000000 011000                    NOP     0
         1 011015   020065 710000 1                  TRA     s:41916

     1586    26711    3                   CASE( %XSS_SST_06);

     1587    26712                            %IFPREDDO( P="-24&32");

  26721  1 011016   400000 236003                    LDQ     -131072,DU
         1 011017   200014 756100                    STQ     CONTINUING,,AUTO

  26785  1 011020   200011 236100                    LDQ     ZPINV,,AUTO
PL6.E3A0      #001=XSS$MACHINE File=XSS$MACHINE.:XSA1TSI                         WED 10/01/97 12:18 Page:402
         1 011021   004000 316007                    CANQ    2048,DL
         1 011022   011025 600000 1                  TZE     s:26794

  26785  1 011023   023063 701000 1                  TSX1    PRED24
         1 011024   020067 702000 1                  TSX2    ACTIONERR

  26794  1 011025   200006 236100                    LDQ     ZPRED,,AUTO
         1 011026   004000 316007                    CANQ    2048,DL
         1 011027   011047 601000 1                  TNZ     s:26932

  26869  1 011030   200011 236100                    LDQ     ZPINV,,AUTO
         1 011031   000010 316007                    CANQ    8,DL
         1 011032   011035 600000 1                  TZE     s:26879

  26869  1 011033   023272 701000 1                  TSX1    PRED32
         1 011034   020067 702000 1                  TSX2    ACTIONERR

  26879  1 011035   200006 236100                    LDQ     ZPRED,,AUTO
         1 011036   000010 316007                    CANQ    8,DL
         1 011037   011047 600000 1                  TZE     s:26932

  26918  1 011040   200014 450100                    STZ     CONTINUING,,AUTO

     1588    26920    4                           SCTX.STATE = %XSS_SST_05A;

  26920  1 011041   200003 470500                    LDP0    @VBLK,,AUTO
         1 011042   000000 471500                    LDP1    0,,PR0
         1 011043   011000 236003                    LDQ     4608,DU
         1 011044   100000 552140                    STBQ    0,'40'O,PR1

     1589    26921                                %ACTION06;

  26922  1 011045   021255 701000 1                  TSX1    ACTION06
         1 011046   020067 702000 1                  TSX2    ACTIONERR

     1590    26924    4                           END;

PL6.E3A0      #001=XSS$MACHINE File=XSS$MACHINE.:XSA1TSI                         WED 10/01/97 12:18 Page:403
     1591    26925                            %ELSEPREDDO( P="24&32");

  26932  1 011047   200014 234100                    SZN     CONTINUING,,AUTO
         1 011050   011106 605000 1                  TPL     s:27121

  26977  1 011051   200011 236100                    LDQ     ZPINV,,AUTO
         1 011052   004000 316007                    CANQ    2048,DL
         1 011053   011056 600000 1                  TZE     s:26986

  26977  1 011054   023063 701000 1                  TSX1    PRED24
         1 011055   020067 702000 1                  TSX2    ACTIONERR

  26986  1 011056   200006 236100                    LDQ     ZPRED,,AUTO
         1 011057   004000 316007                    CANQ    2048,DL
         1 011060   011106 600000 1                  TZE     s:27121

  27061  1 011061   200011 236100                    LDQ     ZPINV,,AUTO
         1 011062   000010 316007                    CANQ    8,DL
         1 011063   011066 600000 1                  TZE     s:27071

  27061  1 011064   023272 701000 1                  TSX1    PRED32
         1 011065   020067 702000 1                  TSX2    ACTIONERR

  27071  1 011066   200006 236100                    LDQ     ZPRED,,AUTO
         1 011067   000010 316007                    CANQ    8,DL
         1 011070   011106 600000 1                  TZE     s:27121

  27105  1 011071   200014 450100                    STZ     CONTINUING,,AUTO

     1592    27107                                %EVENT( EV=%XSS_SEV_SRSXIND);

  27108  1 011072   000106 236000 2                  LDQ     70
         1 011073   200021 756100                    STQ     CONTINUING+5,,AUTO
         1 011074   020166 701000 1                  TSX1    EVNT
         1 011075   020066 702000 1                  TSX2    EVNTERR

     1593    27110                                %ACTION16;
PL6.E3A0      #001=XSS$MACHINE File=XSS$MACHINE.:XSA1TSI                         WED 10/01/97 12:18 Page:404

  27111  1 011076   021557 701000 1                  TSX1    ACTION16
         1 011077   020067 702000 1                  TSX2    ACTIONERR

     1594    27113    4                           SCTX.STATE = %XSS_SST_11A;

  27113  1 011100   200003 470500                    LDP0    @VBLK,,AUTO
         1 011101   000000 471500                    LDP1    0,,PR0
         1 011102   021000 236003                    LDQ     8704,DU
         1 011103   100000 552140                    STBQ    0,'40'O,PR1

     1595    27114                                %ACTION06;

  27115  1 011104   021255 701000 1                  TSX1    ACTION06
         1 011105   020067 702000 1                  TSX2    ACTIONERR

     1596    27117    4                           END;

     1597    27118                            %ENDPREDDO;

  27121  1 011106   200014 234100                    SZN     CONTINUING,,AUTO
         1 011107   020065 605000 1                  TPL     s:41916

  27121  1 011110   020773 701000 1                  TSX1    OOPS
         1 011111   000000 011000                    NOP     0
         1 011112   020065 710000 1                  TRA     s:41916

     1598    27123    3                   CASE( %XSS_SST_15B);

     1599    27124                            %IFPREDDO( P="32&29");

  27133  1 011113   400000 236003                    LDQ     -131072,DU
         1 011114   200014 756100                    STQ     CONTINUING,,AUTO

  27179  1 011115   200011 236100                    LDQ     ZPINV,,AUTO
         1 011116   000010 316007                    CANQ    8,DL
         1 011117   011122 600000 1                  TZE     s:27188
PL6.E3A0      #001=XSS$MACHINE File=XSS$MACHINE.:XSA1TSI                         WED 10/01/97 12:18 Page:405

  27179  1 011120   023272 701000 1                  TSX1    PRED32
         1 011121   020067 702000 1                  TSX2    ACTIONERR

  27188  1 011122   200006 236100                    LDQ     ZPRED,,AUTO
         1 011123   000010 316007                    CANQ    8,DL
         1 011124   011150 600000 1                  TZE     s:27320

  27263  1 011125   200011 236100                    LDQ     ZPINV,,AUTO
         1 011126   000100 316007                    CANQ    64,DL
         1 011127   011132 600000 1                  TZE     s:27273

  27263  1 011130   023206 701000 1                  TSX1    PRED29
         1 011131   020067 702000 1                  TSX2    ACTIONERR

  27273  1 011132   200006 236100                    LDQ     ZPRED,,AUTO
         1 011133   000100 316007                    CANQ    64,DL
         1 011134   011150 600000 1                  TZE     s:27320

  27307  1 011135   200014 450100                    STZ     CONTINUING,,AUTO

     1600    27309                                %EVENT( EV=%XSS_SEV_SRSXIND);

  27310  1 011136   000106 236000 2                  LDQ     70
         1 011137   200021 756100                    STQ     CONTINUING+5,,AUTO
         1 011140   020166 701000 1                  TSX1    EVNT
         1 011141   020066 702000 1                  TSX2    EVNTERR

     1601    27312                                %ACTION16;

  27313  1 011142   021557 701000 1                  TSX1    ACTION16
         1 011143   020067 702000 1                  TSX2    ACTIONERR

     1602    27315    4                           SCTX.STATE = %XSS_SST_11A;

  27315  1 011144   200003 470500                    LDP0    @VBLK,,AUTO
         1 011145   000000 471500                    LDP1    0,,PR0
PL6.E3A0      #001=XSS$MACHINE File=XSS$MACHINE.:XSA1TSI                         WED 10/01/97 12:18 Page:406
         1 011146   021000 236003                    LDQ     8704,DU
         1 011147   100000 552140                    STBQ    0,'40'O,PR1

     1603    27316    4                           END;

     1604    27317                            %ENDPREDDO;

  27320  1 011150   200014 234100                    SZN     CONTINUING,,AUTO
         1 011151   020065 605000 1                  TPL     s:41916

  27320  1 011152   020773 701000 1                  TSX1    OOPS
         1 011153   000000 011000                    NOP     0
         1 011154   020065 710000 1                  TRA     s:41916

     1605    27322    3                   CASE( %XSS_SST_713);

     1606    27323                            %IFPREDDO( P="32&26&35");

  27332  1 011155   400000 236003                    LDQ     -131072,DU
         1 011156   200014 756100                    STQ     CONTINUING,,AUTO

  27378  1 011157   200011 236100                    LDQ     ZPINV,,AUTO
         1 011160   000010 316007                    CANQ    8,DL
         1 011161   011164 600000 1                  TZE     s:27387

  27378  1 011162   023272 701000 1                  TSX1    PRED32
         1 011163   020067 702000 1                  TSX2    ACTIONERR

  27387  1 011164   200006 236100                    LDQ     ZPRED,,AUTO
         1 011165   000010 316007                    CANQ    8,DL
         1 011166   011222 600000 1                  TZE     s:27604

  27448  1 011167   200011 236100                    LDQ     ZPINV,,AUTO
         1 011170   001000 316007                    CANQ    512,DL
         1 011171   011174 600000 1                  TZE     s:27457

  27448  1 011172   023133 701000 1                  TSX1    PRED26
PL6.E3A0      #001=XSS$MACHINE File=XSS$MACHINE.:XSA1TSI                         WED 10/01/97 12:18 Page:407
         1 011173   020067 702000 1                  TSX2    ACTIONERR

  27457  1 011174   200006 236100                    LDQ     ZPRED,,AUTO
         1 011175   001000 316007                    CANQ    512,DL
         1 011176   011222 600000 1                  TZE     s:27604

  27532  1 011177   200011 236100                    LDQ     ZPINV,,AUTO
         1 011200   000001 316007                    CANQ    1,DL
         1 011201   011204 600000 1                  TZE     s:27542

  27532  1 011202   023340 701000 1                  TSX1    PRED35
         1 011203   020067 702000 1                  TSX2    ACTIONERR

  27542  1 011204   200006 236100                    LDQ     ZPRED,,AUTO
         1 011205   000001 316007                    CANQ    1,DL
         1 011206   011222 600000 1                  TZE     s:27604

  27591  1 011207   200014 450100                    STZ     CONTINUING,,AUTO

     1607    27593                                %EVENT( EV=%XSS_SEV_SRSXIND);

  27594  1 011210   000106 236000 2                  LDQ     70
         1 011211   200021 756100                    STQ     CONTINUING+5,,AUTO
         1 011212   020166 701000 1                  TSX1    EVNT
         1 011213   020066 702000 1                  TSX2    EVNTERR

     1608    27596                                %ACTION16;

  27597  1 011214   021557 701000 1                  TSX1    ACTION16
         1 011215   020067 702000 1                  TSX2    ACTIONERR

     1609    27599    4                           SCTX.STATE = %XSS_SST_11A;

  27599  1 011216   200003 470500                    LDP0    @VBLK,,AUTO
         1 011217   000000 471500                    LDP1    0,,PR0
         1 011220   021000 236003                    LDQ     8704,DU
         1 011221   100000 552140                    STBQ    0,'40'O,PR1
PL6.E3A0      #001=XSS$MACHINE File=XSS$MACHINE.:XSA1TSI                         WED 10/01/97 12:18 Page:408

     1610    27600    4                           END;

     1611    27601                            %ENDPREDDO;

  27604  1 011222   200014 234100                    SZN     CONTINUING,,AUTO
         1 011223   020065 605000 1                  TPL     s:41916

  27604  1 011224   020773 701000 1                  TSX1    OOPS
         1 011225   000000 011000                    NOP     0
         1 011226   020065 710000 1                  TRA     s:41916

     1612    27606    3                   CASE( ELSE);

     1613    27607                            %INVALID;

  27608  1 011227   020773 701000 1                  TSX1    OOPS
         1 011230   000000 011000                    NOP     0

     1614    27610    3                   END;

  27610  1 011231   020065 710000 1                  TRA     s:41916

     1615    27611        %EJECT;
PL6.E3A0      #001=XSS$MACHINE File=XSS$MACHINE.:XSA1TSI                         WED 10/01/97 12:18 Page:409
     1616    27612        /*****************************************************************************
     1617    27613        *
     1618    27614        *       RS-s            RESYNCHRONIZE (SET) SPDU
     1619    27615        *
     1620    27616        *****************************************************************************/
     1621    27617    2           CASE( %XSS_SEV_RS_S);                           /* TABLE 48 */

     1622    27618    3               DO CASE( SCTX.STATE);

  27618  1 011232   000000 471500                    LDP1    0,,PR0
         1 011233   100000 236100                    LDQ     0,,PR1
         1 011234   000033 772000                    QRL     27
         1 011235   000036 116007                    CMPQ    30,DL
         1 011236   011240 602006 1                  TNC     s:27618+6,QL
         1 011237   011671 710000 1                  TRA     s:29124
         1 011240   011671 710000 1                  TRA     s:29124
         1 011241   011671 710000 1                  TRA     s:29124
         1 011242   011673 710000 1                  TRA     s:29126
         1 011243   011671 710000 1                  TRA     s:29124
         1 011244   011276 710000 1                  TRA     s:27624
         1 011245   011671 710000 1                  TRA     s:29124
         1 011246   011307 710000 1                  TRA     s:27637
         1 011247   011361 710000 1                  TRA     s:27948
         1 011250   011361 710000 1                  TRA     s:27948
         1 011251   011413 710000 1                  TRA     s:28062
         1 011252   011500 710000 1                  TRA     s:28469
         1 011253   011500 710000 1                  TRA     s:28469
         1 011254   011520 710000 1                  TRA     s:28577
         1 011255   011671 710000 1                  TRA     s:29124
         1 011256   011671 710000 1                  TRA     s:29124
         1 011257   011361 710000 1                  TRA     s:27948
         1 011260   011671 710000 1                  TRA     s:29124
         1 011261   011671 710000 1                  TRA     s:29124
         1 011262   011671 710000 1                  TRA     s:29124
         1 011263   011671 710000 1                  TRA     s:29124
         1 011264   011671 710000 1                  TRA     s:29124
         1 011265   011575 710000 1                  TRA     s:28819
PL6.E3A0      #001=XSS$MACHINE File=XSS$MACHINE.:XSA1TSI                         WED 10/01/97 12:18 Page:410
         1 011266   011671 710000 1                  TRA     s:29124
         1 011267   011673 710000 1                  TRA     s:29126
         1 011270   011671 710000 1                  TRA     s:29124
         1 011271   011361 710000 1                  TRA     s:27948
         1 011272   011361 710000 1                  TRA     s:27948
         1 011273   011671 710000 1                  TRA     s:29124
         1 011274   011671 710000 1                  TRA     s:29124
         1 011275   011627 710000 1                  TRA     s:28933

     1623    27619    3                   CASE( %XSS_SST_01A,

     1624    27620    3                         %XSS_SST_16);
     1625    27621    3                       ;  /* don't do anything */
     1626    27622    3                   CASE( %XSS_SST_01C);

     1627    27623                            %EVENT( EV=%XSS_SEV_TDISREQ);

  27624  1 011276   000006 236000 2                  LDQ     6
         1 011277   200021 756100                    STQ     CONTINUING+5,,AUTO
         1 011300   020166 701000 1                  TSX1    EVNT
         1 011301   020066 702000 1                  TSX2    EVNTERR

     1628    27626    3                       SCTX.STATE = %XSS_SST_01;

  27626  1 011302   200003 470500                    LDP0    @VBLK,,AUTO
         1 011303   000000 471500                    LDP1    0,,PR0
         1 011304   001000 236003                    LDQ     512,DU
         1 011305   100000 552140                    STBQ    0,'40'O,PR1
         1 011306   020065 710000 1                  TRA     s:41916

     1629    27627    3                   CASE( %XSS_SST_03);

     1630    27628                            %IFPREDDO( P="10&-34&35");

  27637  1 011307   400000 236003                    LDQ     -131072,DU
         1 011310   200014 756100                    STQ     CONTINUING,,AUTO

PL6.E3A0      #001=XSS$MACHINE File=XSS$MACHINE.:XSA1TSI                         WED 10/01/97 12:18 Page:411
  27683  1 011311   200011 236100                    LDQ     ZPINV,,AUTO
         1 011312   000200 316003                    CANQ    128,DU
         1 011313   011316 600000 1                  TZE     s:27692

  27683  1 011314   022342 701000 1                  TSX1    PRED10
         1 011315   020067 702000 1                  TSX2    ACTIONERR

  27692  1 011316   200006 236100                    LDQ     ZPRED,,AUTO
         1 011317   000200 316003                    CANQ    128,DU
         1 011320   011354 600000 1                  TZE     s:27932

  27771  1 011321   200011 236100                    LDQ     ZPINV,,AUTO
         1 011322   000002 316007                    CANQ    2,DL
         1 011323   011326 600000 1                  TZE     s:27780

  27771  1 011324   023325 701000 1                  TSX1    PRED34
         1 011325   020067 702000 1                  TSX2    ACTIONERR

  27780  1 011326   200006 236100                    LDQ     ZPRED,,AUTO
         1 011327   000002 316007                    CANQ    2,DL
         1 011330   011354 601000 1                  TNZ     s:27932

  27855  1 011331   200011 236100                    LDQ     ZPINV,,AUTO
         1 011332   000001 316007                    CANQ    1,DL
         1 011333   011336 600000 1                  TZE     s:27865

  27855  1 011334   023340 701000 1                  TSX1    PRED35
         1 011335   020067 702000 1                  TSX2    ACTIONERR

  27865  1 011336   200006 236100                    LDQ     ZPRED,,AUTO
         1 011337   000001 316007                    CANQ    1,DL
         1 011340   011354 600000 1                  TZE     s:27932

  27919  1 011341   200014 450100                    STZ     CONTINUING,,AUTO

     1631    27921                                %EVENT( EV=%XSS_SEV_SRSXIND);

PL6.E3A0      #001=XSS$MACHINE File=XSS$MACHINE.:XSA1TSI                         WED 10/01/97 12:18 Page:412
  27922  1 011342   000106 236000 2                  LDQ     70
         1 011343   200021 756100                    STQ     CONTINUING+5,,AUTO
         1 011344   020166 701000 1                  TSX1    EVNT
         1 011345   020066 702000 1                  TSX2    EVNTERR

     1632    27924                                %ACTION16;

  27925  1 011346   021557 701000 1                  TSX1    ACTION16
         1 011347   020067 702000 1                  TSX2    ACTIONERR

     1633    27927    4                           SCTX.STATE = %XSS_SST_11A;

  27927  1 011350   200003 470500                    LDP0    @VBLK,,AUTO
         1 011351   000000 471500                    LDP1    0,,PR0
         1 011352   021000 236003                    LDQ     8704,DU
         1 011353   100000 552140                    STBQ    0,'40'O,PR1

     1634    27928    4                           END;

     1635    27929                            %ENDPREDDO;

  27932  1 011354   200014 234100                    SZN     CONTINUING,,AUTO
         1 011355   020065 605000 1                  TPL     s:41916

  27932  1 011356   020773 701000 1                  TSX1    OOPS
         1 011357   000000 011000                    NOP     0
         1 011360   020065 710000 1                  TRA     s:41916

     1636    27934    3                   CASE( %XSS_SST_04A,

     1637    27935    3                         %XSS_SST_04B,
     1638    27936    3                         %XSS_SST_10A,
     1639    27937    3                         %XSS_SST_19,
     1640    27938    3                         %XSS_SST_20);
     1641    27939                            %IFPREDDO( P="35");

  27948  1 011361   400000 236003                    LDQ     -131072,DU
PL6.E3A0      #001=XSS$MACHINE File=XSS$MACHINE.:XSA1TSI                         WED 10/01/97 12:18 Page:413
         1 011362   200014 756100                    STQ     CONTINUING,,AUTO

  28008  1 011363   200011 236100                    LDQ     ZPINV,,AUTO
         1 011364   000001 316007                    CANQ    1,DL
         1 011365   011370 600000 1                  TZE     s:28018

  28008  1 011366   023340 701000 1                  TSX1    PRED35
         1 011367   020067 702000 1                  TSX2    ACTIONERR

  28018  1 011370   200006 236100                    LDQ     ZPRED,,AUTO
         1 011371   000001 316007                    CANQ    1,DL
         1 011372   011406 600000 1                  TZE     s:28050

  28037  1 011373   200014 450100                    STZ     CONTINUING,,AUTO

     1642    28039                                %EVENT( EV=%XSS_SEV_SRSXIND);

  28040  1 011374   000106 236000 2                  LDQ     70
         1 011375   200021 756100                    STQ     CONTINUING+5,,AUTO
         1 011376   020166 701000 1                  TSX1    EVNT
         1 011377   020066 702000 1                  TSX2    EVNTERR

     1643    28042                                %ACTION16;

  28043  1 011400   021557 701000 1                  TSX1    ACTION16
         1 011401   020067 702000 1                  TSX2    ACTIONERR

     1644    28045    4                           SCTX.STATE = %XSS_SST_11A;

  28045  1 011402   200003 470500                    LDP0    @VBLK,,AUTO
         1 011403   000000 471500                    LDP1    0,,PR0
         1 011404   021000 236003                    LDQ     8704,DU
         1 011405   100000 552140                    STBQ    0,'40'O,PR1

     1645    28046    4                           END;

     1646    28047                            %ENDPREDDO;
PL6.E3A0      #001=XSS$MACHINE File=XSS$MACHINE.:XSA1TSI                         WED 10/01/97 12:18 Page:414

  28050  1 011406   200014 234100                    SZN     CONTINUING,,AUTO
         1 011407   020065 605000 1                  TPL     s:41916

  28050  1 011410   020773 701000 1                  TSX1    OOPS
         1 011411   000000 011000                    NOP     0
         1 011412   020065 710000 1                  TRA     s:41916

     1647    28052    3                   CASE( %XSS_SST_05A);

     1648    28053                            %IFPREDDO( P="-24&35");

  28062  1 011413   400000 236003                    LDQ     -131072,DU
         1 011414   200014 756100                    STQ     CONTINUING,,AUTO

  28126  1 011415   200011 236100                    LDQ     ZPINV,,AUTO
         1 011416   004000 316007                    CANQ    2048,DL
         1 011417   011422 600000 1                  TZE     s:28135

  28126  1 011420   023063 701000 1                  TSX1    PRED24
         1 011421   020067 702000 1                  TSX2    ACTIONERR

  28135  1 011422   200006 236100                    LDQ     ZPRED,,AUTO
         1 011423   004000 316007                    CANQ    2048,DL
         1 011424   011436 601000 1                  TNZ     s:28270

  28210  1 011425   200011 236100                    LDQ     ZPINV,,AUTO
         1 011426   000001 316007                    CANQ    1,DL
         1 011427   011432 600000 1                  TZE     s:28220

  28210  1 011430   023340 701000 1                  TSX1    PRED35
         1 011431   020067 702000 1                  TSX2    ACTIONERR

  28220  1 011432   200006 236100                    LDQ     ZPRED,,AUTO
         1 011433   000001 316007                    CANQ    1,DL
         1 011434   011436 600000 1                  TZE     s:28270

PL6.E3A0      #001=XSS$MACHINE File=XSS$MACHINE.:XSA1TSI                         WED 10/01/97 12:18 Page:415
  28259  1 011435   200014 450100                    STZ     CONTINUING,,AUTO

     1649    28261    4                           ;  /* don't do anything */
     1650    28262    4                           END;

     1651    28263                            %ELSEPREDDO( P="24&35");

  28270  1 011436   200014 234100                    SZN     CONTINUING,,AUTO
         1 011437   011473 605000 1                  TPL     s:28456

  28315  1 011440   200011 236100                    LDQ     ZPINV,,AUTO
         1 011441   004000 316007                    CANQ    2048,DL
         1 011442   011445 600000 1                  TZE     s:28324

  28315  1 011443   023063 701000 1                  TSX1    PRED24
         1 011444   020067 702000 1                  TSX2    ACTIONERR

  28324  1 011445   200006 236100                    LDQ     ZPRED,,AUTO
         1 011446   004000 316007                    CANQ    2048,DL
         1 011447   011473 600000 1                  TZE     s:28456

  28399  1 011450   200011 236100                    LDQ     ZPINV,,AUTO
         1 011451   000001 316007                    CANQ    1,DL
         1 011452   011455 600000 1                  TZE     s:28409

  28399  1 011453   023340 701000 1                  TSX1    PRED35
         1 011454   020067 702000 1                  TSX2    ACTIONERR

  28409  1 011455   200006 236100                    LDQ     ZPRED,,AUTO
         1 011456   000001 316007                    CANQ    1,DL
         1 011457   011473 600000 1                  TZE     s:28456

  28443  1 011460   200014 450100                    STZ     CONTINUING,,AUTO

     1652    28445                                %EVENT( EV=%XSS_SEV_SRSXIND);

  28446  1 011461   000106 236000 2                  LDQ     70
PL6.E3A0      #001=XSS$MACHINE File=XSS$MACHINE.:XSA1TSI                         WED 10/01/97 12:18 Page:416
         1 011462   200021 756100                    STQ     CONTINUING+5,,AUTO
         1 011463   020166 701000 1                  TSX1    EVNT
         1 011464   020066 702000 1                  TSX2    EVNTERR

     1653    28448                                %ACTION16;

  28449  1 011465   021557 701000 1                  TSX1    ACTION16
         1 011466   020067 702000 1                  TSX2    ACTIONERR

     1654    28451    4                           SCTX.STATE = %XSS_SST_11A;

  28451  1 011467   200003 470500                    LDP0    @VBLK,,AUTO
         1 011470   000000 471500                    LDP1    0,,PR0
         1 011471   021000 236003                    LDQ     8704,DU
         1 011472   100000 552140                    STBQ    0,'40'O,PR1

     1655    28452    4                           END;

     1656    28453                            %ENDPREDDO;

  28456  1 011473   200014 234100                    SZN     CONTINUING,,AUTO
         1 011474   020065 605000 1                  TPL     s:41916

  28456  1 011475   020773 701000 1                  TSX1    OOPS
         1 011476   000000 011000                    NOP     0
         1 011477   020065 710000 1                  TRA     s:41916

     1657    28458    3                   CASE( %XSS_SST_05B,

     1658    28459    3                         %XSS_SST_05C);
     1659    28460                            %IFPREDDO( P="28");

  28469  1 011500   400000 236003                    LDQ     -131072,DU
         1 011501   200014 756100                    STQ     CONTINUING,,AUTO

  28529  1 011502   200011 236100                    LDQ     ZPINV,,AUTO
         1 011503   000200 316007                    CANQ    128,DL
PL6.E3A0      #001=XSS$MACHINE File=XSS$MACHINE.:XSA1TSI                         WED 10/01/97 12:18 Page:417
         1 011504   011507 600000 1                  TZE     s:28539

  28529  1 011505   023173 701000 1                  TSX1    PRED28
         1 011506   020067 702000 1                  TSX2    ACTIONERR

  28539  1 011507   200006 236100                    LDQ     ZPRED,,AUTO
         1 011510   000200 316007                    CANQ    128,DL
         1 011511   011513 600000 1                  TZE     s:28565

  28558  1 011512   200014 450100                    STZ     CONTINUING,,AUTO

     1660    28560    4                           ;  /* don't do anything */
     1661    28561    4                           END;

     1662    28562                            %ENDPREDDO;

  28565  1 011513   200014 234100                    SZN     CONTINUING,,AUTO
         1 011514   020065 605000 1                  TPL     s:41916

  28565  1 011515   020773 701000 1                  TSX1    OOPS
         1 011516   000000 011000                    NOP     0
         1 011517   020065 710000 1                  TRA     s:41916

     1663    28567    3                   CASE( %XSS_SST_06);

     1664    28568                            %IFPREDDO( P="-24");

  28577  1 011520   400000 236003                    LDQ     -131072,DU
         1 011521   200014 756100                    STQ     CONTINUING,,AUTO

  28655  1 011522   200011 236100                    LDQ     ZPINV,,AUTO
         1 011523   004000 316007                    CANQ    2048,DL
         1 011524   011527 600000 1                  TZE     s:28665

  28655  1 011525   023063 701000 1                  TSX1    PRED24
         1 011526   020067 702000 1                  TSX2    ACTIONERR

PL6.E3A0      #001=XSS$MACHINE File=XSS$MACHINE.:XSA1TSI                         WED 10/01/97 12:18 Page:418
  28665  1 011527   200006 236100                    LDQ     ZPRED,,AUTO
         1 011530   004000 316007                    CANQ    2048,DL
         1 011531   011541 601000 1                  TNZ     s:28703

  28689  1 011532   200014 450100                    STZ     CONTINUING,,AUTO

     1665    28691    4                           SCTX.STATE = %XSS_SST_05A;

  28691  1 011533   200003 470500                    LDP0    @VBLK,,AUTO
         1 011534   000000 471500                    LDP1    0,,PR0
         1 011535   011000 236003                    LDQ     4608,DU
         1 011536   100000 552140                    STBQ    0,'40'O,PR1

     1666    28692                                %ACTION06;

  28693  1 011537   021255 701000 1                  TSX1    ACTION06
         1 011540   020067 702000 1                  TSX2    ACTIONERR

     1667    28695    4                           END;

     1668    28696                            %ELSEPREDDO( P="24");

  28703  1 011541   200014 234100                    SZN     CONTINUING,,AUTO
         1 011542   011570 605000 1                  TPL     s:28807

  28762  1 011543   200011 236100                    LDQ     ZPINV,,AUTO
         1 011544   004000 316007                    CANQ    2048,DL
         1 011545   011550 600000 1                  TZE     s:28772

  28762  1 011546   023063 701000 1                  TSX1    PRED24
         1 011547   020067 702000 1                  TSX2    ACTIONERR

  28772  1 011550   200006 236100                    LDQ     ZPRED,,AUTO
         1 011551   004000 316007                    CANQ    2048,DL
         1 011552   011570 600000 1                  TZE     s:28807

  28791  1 011553   200014 450100                    STZ     CONTINUING,,AUTO
PL6.E3A0      #001=XSS$MACHINE File=XSS$MACHINE.:XSA1TSI                         WED 10/01/97 12:18 Page:419

     1669    28793                                %EVENT( EV=%XSS_SEV_SRSXIND);

  28794  1 011554   000106 236000 2                  LDQ     70
         1 011555   200021 756100                    STQ     CONTINUING+5,,AUTO
         1 011556   020166 701000 1                  TSX1    EVNT
         1 011557   020066 702000 1                  TSX2    EVNTERR

     1670    28796                                %ACTION16;

  28797  1 011560   021557 701000 1                  TSX1    ACTION16
         1 011561   020067 702000 1                  TSX2    ACTIONERR

     1671    28799    4                           SCTX.STATE = %XSS_SST_11A;

  28799  1 011562   200003 470500                    LDP0    @VBLK,,AUTO
         1 011563   000000 471500                    LDP1    0,,PR0
         1 011564   021000 236003                    LDQ     8704,DU
         1 011565   100000 552140                    STBQ    0,'40'O,PR1

     1672    28800                                %ACTION06;

  28801  1 011566   021255 701000 1                  TSX1    ACTION06
         1 011567   020067 702000 1                  TSX2    ACTIONERR

     1673    28803    4                           END;

     1674    28804                            %ENDPREDDO;

  28807  1 011570   200014 234100                    SZN     CONTINUING,,AUTO
         1 011571   020065 605000 1                  TPL     s:41916

  28807  1 011572   020773 701000 1                  TSX1    OOPS
         1 011573   000000 011000                    NOP     0
         1 011574   020065 710000 1                  TRA     s:41916

     1675    28809    3                   CASE( %XSS_SST_15B);
PL6.E3A0      #001=XSS$MACHINE File=XSS$MACHINE.:XSA1TSI                         WED 10/01/97 12:18 Page:420

     1676    28810                            %IFPREDDO( P="29");

  28819  1 011575   400000 236003                    LDQ     -131072,DU
         1 011576   200014 756100                    STQ     CONTINUING,,AUTO

  28879  1 011577   200011 236100                    LDQ     ZPINV,,AUTO
         1 011600   000100 316007                    CANQ    64,DL
         1 011601   011604 600000 1                  TZE     s:28889

  28879  1 011602   023206 701000 1                  TSX1    PRED29
         1 011603   020067 702000 1                  TSX2    ACTIONERR

  28889  1 011604   200006 236100                    LDQ     ZPRED,,AUTO
         1 011605   000100 316007                    CANQ    64,DL
         1 011606   011622 600000 1                  TZE     s:28921

  28908  1 011607   200014 450100                    STZ     CONTINUING,,AUTO

     1677    28910                                %EVENT( EV=%XSS_SEV_SRSXIND);

  28911  1 011610   000106 236000 2                  LDQ     70
         1 011611   200021 756100                    STQ     CONTINUING+5,,AUTO
         1 011612   020166 701000 1                  TSX1    EVNT
         1 011613   020066 702000 1                  TSX2    EVNTERR

     1678    28913                                %ACTION16;

  28914  1 011614   021557 701000 1                  TSX1    ACTION16
         1 011615   020067 702000 1                  TSX2    ACTIONERR

     1679    28916    4                           SCTX.STATE = %XSS_SST_11A;

  28916  1 011616   200003 470500                    LDP0    @VBLK,,AUTO
         1 011617   000000 471500                    LDP1    0,,PR0
         1 011620   021000 236003                    LDQ     8704,DU
         1 011621   100000 552140                    STBQ    0,'40'O,PR1
PL6.E3A0      #001=XSS$MACHINE File=XSS$MACHINE.:XSA1TSI                         WED 10/01/97 12:18 Page:421

     1680    28917    4                           END;

     1681    28918                            %ENDPREDDO;

  28921  1 011622   200014 234100                    SZN     CONTINUING,,AUTO
         1 011623   020065 605000 1                  TPL     s:41916

  28921  1 011624   020773 701000 1                  TSX1    OOPS
         1 011625   000000 011000                    NOP     0
         1 011626   020065 710000 1                  TRA     s:41916

     1682    28923    3                   CASE( %XSS_SST_713);

     1683    28924                            %IFPREDDO( P="26&35");

  28933  1 011627   400000 236003                    LDQ     -131072,DU
         1 011630   200014 756100                    STQ     CONTINUING,,AUTO

  28979  1 011631   200011 236100                    LDQ     ZPINV,,AUTO
         1 011632   001000 316007                    CANQ    512,DL
         1 011633   011636 600000 1                  TZE     s:28988

  28979  1 011634   023133 701000 1                  TSX1    PRED26
         1 011635   020067 702000 1                  TSX2    ACTIONERR

  28988  1 011636   200006 236100                    LDQ     ZPRED,,AUTO
         1 011637   001000 316007                    CANQ    512,DL
         1 011640   011664 600000 1                  TZE     s:29120

  29063  1 011641   200011 236100                    LDQ     ZPINV,,AUTO
         1 011642   000001 316007                    CANQ    1,DL
         1 011643   011646 600000 1                  TZE     s:29073

  29063  1 011644   023340 701000 1                  TSX1    PRED35
         1 011645   020067 702000 1                  TSX2    ACTIONERR

PL6.E3A0      #001=XSS$MACHINE File=XSS$MACHINE.:XSA1TSI                         WED 10/01/97 12:18 Page:422
  29073  1 011646   200006 236100                    LDQ     ZPRED,,AUTO
         1 011647   000001 316007                    CANQ    1,DL
         1 011650   011664 600000 1                  TZE     s:29120

  29107  1 011651   200014 450100                    STZ     CONTINUING,,AUTO

     1684    29109                                %EVENT( EV=%XSS_SEV_SRSXIND);

  29110  1 011652   000106 236000 2                  LDQ     70
         1 011653   200021 756100                    STQ     CONTINUING+5,,AUTO
         1 011654   020166 701000 1                  TSX1    EVNT
         1 011655   020066 702000 1                  TSX2    EVNTERR

     1685    29112                                %ACTION16;

  29113  1 011656   021557 701000 1                  TSX1    ACTION16
         1 011657   020067 702000 1                  TSX2    ACTIONERR

     1686    29115    4                           SCTX.STATE = %XSS_SST_11A;

  29115  1 011660   200003 470500                    LDP0    @VBLK,,AUTO
         1 011661   000000 471500                    LDP1    0,,PR0
         1 011662   021000 236003                    LDQ     8704,DU
         1 011663   100000 552140                    STBQ    0,'40'O,PR1

     1687    29116    4                           END;

     1688    29117                            %ENDPREDDO;

  29120  1 011664   200014 234100                    SZN     CONTINUING,,AUTO
         1 011665   020065 605000 1                  TPL     s:41916

  29120  1 011666   020773 701000 1                  TSX1    OOPS
         1 011667   000000 011000                    NOP     0
         1 011670   020065 710000 1                  TRA     s:41916

     1689    29122    3                   CASE( ELSE);
PL6.E3A0      #001=XSS$MACHINE File=XSS$MACHINE.:XSA1TSI                         WED 10/01/97 12:18 Page:423

     1690    29123                            %INVALID;

  29124  1 011671   020773 701000 1                  TSX1    OOPS
         1 011672   000000 011000                    NOP     0

     1691    29126    3                   END;

  29126  1 011673   020065 710000 1                  TRA     s:41916

     1692    29127        %EJECT;
PL6.E3A0      #001=XSS$MACHINE File=XSS$MACHINE.:XSA1TSI                         WED 10/01/97 12:18 Page:424
     1693    29128        /*****************************************************************************
     1694    29129        *
     1695    29130        *       TD              TYPED DATA SPDU
     1696    29131        *
     1697    29132        *****************************************************************************/
     1698    29133    2           CASE( %XSS_SEV_TD);                             /* TABLE 46 */

     1699    29134    3               DO CASE( SCTX.STATE);

  29134  1 011674   000000 471500                    LDP1    0,,PR0
         1 011675   100000 236100                    LDQ     0,,PR1
         1 011676   000033 772000                    QRL     27
         1 011677   000036 116007                    CMPQ    30,DL
         1 011700   011702 602006 1                  TNC     s:29134+6,QL
         1 011701   012051 710000 1                  TRA     s:29570
         1 011702   012051 710000 1                  TRA     s:29570
         1 011703   012051 710000 1                  TRA     s:29570
         1 011704   012053 710000 1                  TRA     s:29572
         1 011705   012051 710000 1                  TRA     s:29570
         1 011706   011740 710000 1                  TRA     s:29140
         1 011707   012051 710000 1                  TRA     s:29570
         1 011710   011751 710000 1                  TRA     s:29153
         1 011711   012005 710000 1                  TRA     s:29353
         1 011712   012005 710000 1                  TRA     s:29353
         1 011713   012031 710000 1                  TRA     s:29470
         1 011714   012031 710000 1                  TRA     s:29470
         1 011715   012031 710000 1                  TRA     s:29470
         1 011716   012031 710000 1                  TRA     s:29470
         1 011717   012051 710000 1                  TRA     s:29570
         1 011720   012051 710000 1                  TRA     s:29570
         1 011721   012051 710000 1                  TRA     s:29570
         1 011722   012051 710000 1                  TRA     s:29570
         1 011723   012051 710000 1                  TRA     s:29570
         1 011724   012051 710000 1                  TRA     s:29570
         1 011725   012051 710000 1                  TRA     s:29570
         1 011726   012005 710000 1                  TRA     s:29353
         1 011727   012031 710000 1                  TRA     s:29470
PL6.E3A0      #001=XSS$MACHINE File=XSS$MACHINE.:XSA1TSI                         WED 10/01/97 12:18 Page:425
         1 011730   012031 710000 1                  TRA     s:29470
         1 011731   012053 710000 1                  TRA     s:29572
         1 011732   012005 710000 1                  TRA     s:29353
         1 011733   012031 710000 1                  TRA     s:29470
         1 011734   012031 710000 1                  TRA     s:29470
         1 011735   012005 710000 1                  TRA     s:29353
         1 011736   012051 710000 1                  TRA     s:29570
         1 011737   012005 710000 1                  TRA     s:29353

     1700    29135    3                   CASE( %XSS_SST_01A,

     1701    29136    3                         %XSS_SST_16);
     1702    29137    3                       ;  /* don't do anything */
     1703    29138    3                   CASE( %XSS_SST_01C);

     1704    29139                            %EVENT( EV=%XSS_SEV_TDISREQ);

  29140  1 011740   000006 236000 2                  LDQ     6
         1 011741   200021 756100                    STQ     CONTINUING+5,,AUTO
         1 011742   020166 701000 1                  TSX1    EVNT
         1 011743   020066 702000 1                  TSX2    EVNTERR

     1705    29142    3                       SCTX.STATE = %XSS_SST_01;

  29142  1 011744   200003 470500                    LDP0    @VBLK,,AUTO
         1 011745   000000 471500                    LDP1    0,,PR0
         1 011746   001000 236003                    LDQ     512,DU
         1 011747   100000 552140                    STBQ    0,'40'O,PR1
         1 011750   020065 710000 1                  TRA     s:41916

     1706    29143    3                   CASE( %XSS_SST_03);

     1707    29144                            %IFPREDDO( P="06&10");

  29153  1 011751   400000 236003                    LDQ     -131072,DU
         1 011752   200014 756100                    STQ     CONTINUING,,AUTO

PL6.E3A0      #001=XSS$MACHINE File=XSS$MACHINE.:XSA1TSI                         WED 10/01/97 12:18 Page:426
  29199  1 011753   200011 236100                    LDQ     ZPINV,,AUTO
         1 011754   004000 316003                    CANQ    2048,DU
         1 011755   011760 600000 1                  TZE     s:29208

  29199  1 011756   022246 701000 1                  TSX1    PRED06
         1 011757   020067 702000 1                  TSX2    ACTIONERR

  29208  1 011760   200006 236100                    LDQ     ZPRED,,AUTO
         1 011761   004000 316003                    CANQ    2048,DU
         1 011762   012000 600000 1                  TZE     s:29336

  29283  1 011763   200011 236100                    LDQ     ZPINV,,AUTO
         1 011764   000200 316003                    CANQ    128,DU
         1 011765   011770 600000 1                  TZE     s:29293

  29283  1 011766   022342 701000 1                  TSX1    PRED10
         1 011767   020067 702000 1                  TSX2    ACTIONERR

  29293  1 011770   200006 236100                    LDQ     ZPRED,,AUTO
         1 011771   000200 316003                    CANQ    128,DU
         1 011772   012000 600000 1                  TZE     s:29336

  29327  1 011773   200014 450100                    STZ     CONTINUING,,AUTO

     1708    29329                                %EVENT( EV=%XSS_SEV_STYDIND);

  29330  1 011774   000110 236000 2                  LDQ     72
         1 011775   200021 756100                    STQ     CONTINUING+5,,AUTO
         1 011776   020166 701000 1                  TSX1    EVNT
         1 011777   020066 702000 1                  TSX2    EVNTERR

     1709    29332    4                           END;

     1710    29333                            %ENDPREDDO;

  29336  1 012000   200014 234100                    SZN     CONTINUING,,AUTO
         1 012001   020065 605000 1                  TPL     s:41916
PL6.E3A0      #001=XSS$MACHINE File=XSS$MACHINE.:XSA1TSI                         WED 10/01/97 12:18 Page:427

  29336  1 012002   020773 701000 1                  TSX1    OOPS
         1 012003   000000 011000                    NOP     0
         1 012004   020065 710000 1                  TRA     s:41916

     1711    29338    3                   CASE( %XSS_SST_04A,

     1712    29339    3                         %XSS_SST_04B,
     1713    29340    3                         %XSS_SST_15A,
     1714    29341    3                         %XSS_SST_18,
     1715    29342    3                         %XSS_SST_21,
     1716    29343    3                         %XSS_SST_713);
     1717    29344                            %IFPREDDO( P="06");

  29353  1 012005   400000 236003                    LDQ     -131072,DU
         1 012006   200014 756100                    STQ     CONTINUING,,AUTO

  29413  1 012007   200011 236100                    LDQ     ZPINV,,AUTO
         1 012010   004000 316003                    CANQ    2048,DU
         1 012011   012014 600000 1                  TZE     s:29423

  29413  1 012012   022246 701000 1                  TSX1    PRED06
         1 012013   020067 702000 1                  TSX2    ACTIONERR

  29423  1 012014   200006 236100                    LDQ     ZPRED,,AUTO
         1 012015   004000 316003                    CANQ    2048,DU
         1 012016   012024 600000 1                  TZE     s:29451

  29442  1 012017   200014 450100                    STZ     CONTINUING,,AUTO

     1718    29444                                %EVENT( EV=%XSS_SEV_STYDIND);

  29445  1 012020   000110 236000 2                  LDQ     72
         1 012021   200021 756100                    STQ     CONTINUING+5,,AUTO
         1 012022   020166 701000 1                  TSX1    EVNT
         1 012023   020066 702000 1                  TSX2    EVNTERR

PL6.E3A0      #001=XSS$MACHINE File=XSS$MACHINE.:XSA1TSI                         WED 10/01/97 12:18 Page:428
     1719    29447    4                           END;

     1720    29448                            %ENDPREDDO;

  29451  1 012024   200014 234100                    SZN     CONTINUING,,AUTO
         1 012025   020065 605000 1                  TPL     s:41916

  29451  1 012026   020773 701000 1                  TSX1    OOPS
         1 012027   000000 011000                    NOP     0
         1 012030   020065 710000 1                  TRA     s:41916

     1721    29453    3                   CASE( %XSS_SST_05A,

     1722    29454    3                         %XSS_SST_05B,
     1723    29455    3                         %XSS_SST_05C,
     1724    29456    3                         %XSS_SST_06,
     1725    29457    3                         %XSS_SST_15B,
     1726    29458    3                         %XSS_SST_15C,
     1727    29459    3                         %XSS_SST_19,
     1728    29460    3                         %XSS_SST_20);
     1729    29461                            %IFPREDDO( P="06");

  29470  1 012031   400000 236003                    LDQ     -131072,DU
         1 012032   200014 756100                    STQ     CONTINUING,,AUTO

  29530  1 012033   200011 236100                    LDQ     ZPINV,,AUTO
         1 012034   004000 316003                    CANQ    2048,DU
         1 012035   012040 600000 1                  TZE     s:29540

  29530  1 012036   022246 701000 1                  TSX1    PRED06
         1 012037   020067 702000 1                  TSX2    ACTIONERR

  29540  1 012040   200006 236100                    LDQ     ZPRED,,AUTO
         1 012041   004000 316003                    CANQ    2048,DU
         1 012042   012044 600000 1                  TZE     s:29566

  29559  1 012043   200014 450100                    STZ     CONTINUING,,AUTO
PL6.E3A0      #001=XSS$MACHINE File=XSS$MACHINE.:XSA1TSI                         WED 10/01/97 12:18 Page:429

     1730    29561    4                           ;  /* don't do anything */
     1731    29562    4                           END;

     1732    29563                            %ENDPREDDO;

  29566  1 012044   200014 234100                    SZN     CONTINUING,,AUTO
         1 012045   020065 605000 1                  TPL     s:41916

  29566  1 012046   020773 701000 1                  TSX1    OOPS
         1 012047   000000 011000                    NOP     0
         1 012050   020065 710000 1                  TRA     s:41916

     1733    29568    3                   CASE( ELSE);

     1734    29569                            %INVALID;

  29570  1 012051   020773 701000 1                  TSX1    OOPS
         1 012052   000000 011000                    NOP     0

     1735    29572    3                   END;

  29572  1 012053   020065 710000 1                  TRA     s:41916

     1736    29573        %EJECT;
PL6.E3A0      #001=XSS$MACHINE File=XSS$MACHINE.:XSA1TSI                         WED 10/01/97 12:18 Page:430
     1737    29574        /*****************************************************************************
     1738    29575        *
     1739    29576        *       SACDREQ         S-ACTIVITY-DISCARD Request
     1740    29577        *
     1741    29578        *****************************************************************************/
     1742    29579    2           CASE( %XSS_SEV_SACDREQ);                        /* TABLE 49 */

     1743    29580    3               DO CASE( SCTX.STATE);

  29580  1 012054   000000 471500                    LDP1    0,,PR0
         1 012055   100000 236100                    LDQ     0,,PR1
         1 012056   000033 772000                    QRL     27
         1 012057   000007 136007                    SBLQ    7,DL
         1 012060   000027 116007                    CMPQ    23,DL
         1 012061   012063 602006 1                  TNC     s:29580+7,QL
         1 012062   012443 710000 1                  TRA     s:30603
         1 012063   012112 710000 1                  TRA     s:29593
         1 012064   012165 710000 1                  TRA     s:29796
         1 012065   012443 710000 1                  TRA     s:30603
         1 012066   012443 710000 1                  TRA     s:30603
         1 012067   012443 710000 1                  TRA     s:30603
         1 012070   012443 710000 1                  TRA     s:30603
         1 012071   012443 710000 1                  TRA     s:30603
         1 012072   012443 710000 1                  TRA     s:30603
         1 012073   012443 710000 1                  TRA     s:30603
         1 012074   012443 710000 1                  TRA     s:30603
         1 012075   012112 710000 1                  TRA     s:29593
         1 012076   012443 710000 1                  TRA     s:30603
         1 012077   012443 710000 1                  TRA     s:30603
         1 012100   012230 710000 1                  TRA     s:29914
         1 012101   012305 710000 1                  TRA     s:30120
         1 012102   012443 710000 1                  TRA     s:30603
         1 012103   012443 710000 1                  TRA     s:30603
         1 012104   012443 710000 1                  TRA     s:30603
         1 012105   012443 710000 1                  TRA     s:30603
         1 012106   012370 710000 1                  TRA     s:30408
         1 012107   012443 710000 1                  TRA     s:30603
PL6.E3A0      #001=XSS$MACHINE File=XSS$MACHINE.:XSA1TSI                         WED 10/01/97 12:18 Page:431
         1 012110   012443 710000 1                  TRA     s:30603
         1 012111   012112 710000 1                  TRA     s:29593

     1744    29581    3                   CASE( %XSS_SST_04A,

     1745    29582    3                         %XSS_SST_11A,
     1746    29583    3                         %XSS_SST_713);
     1747    29584                            %IFPREDDO( P="34&39");

  29593  1 012112   400000 236003                    LDQ     -131072,DU
         1 012113   200014 756100                    STQ     CONTINUING,,AUTO

  29639  1 012114   200011 236100                    LDQ     ZPINV,,AUTO
         1 012115   000002 316007                    CANQ    2,DL
         1 012116   012121 600000 1                  TZE     s:29648

  29639  1 012117   023325 701000 1                  TSX1    PRED34
         1 012120   020067 702000 1                  TSX2    ACTIONERR

  29648  1 012121   200006 236100                    LDQ     ZPRED,,AUTO
         1 012122   000002 316007                    CANQ    2,DL
         1 012123   012160 600000 1                  TZE     s:29784

  29723  1 012124   200012 236100                    LDQ     ZPINV+1,,AUTO
         1 012125   040000 316003                    CANQ    16384,DU
         1 012126   012131 600000 1                  TZE     s:29733

  29723  1 012127   023451 701000 1                  TSX1    PRED39
         1 012130   020067 702000 1                  TSX2    ACTIONERR

  29733  1 012131   200007 236100                    LDQ     ZPRED+1,,AUTO
         1 012132   040000 316003                    CANQ    16384,DU
         1 012133   012160 600000 1                  TZE     s:29784

  29767  1 012134   200014 450100                    STZ     CONTINUING,,AUTO

     1748    29769    4                           IF SCTX.FLAGS.TEXP THEN
PL6.E3A0      #001=XSS$MACHINE File=XSS$MACHINE.:XSA1TSI                         WED 10/01/97 12:18 Page:432

  29769  1 012135   200003 470500                    LDP0    @VBLK,,AUTO
         1 012136   000000 471500                    LDP1    0,,PR0
         1 012137   100006 236100                    LDQ     6,,PR1
         1 012140   010000 316007                    CANQ    4096,DL
         1 012141   012146 600000 1                  TZE     s:29774

     1749    29770                                    %EVENT( EV=%XSS_SEV_PR_RS);

  29771  1 012142   000112 236000 2                  LDQ     74
         1 012143   200021 756100                    STQ     CONTINUING+5,,AUTO
         1 012144   020166 701000 1                  TSX1    EVNT
         1 012145   020066 702000 1                  TSX2    EVNTERR

     1750    29773                                %EVENT( EV=%XSS_SEV_AD);

  29774  1 012146   000114 236000 2                  LDQ     76
         1 012147   200021 756100                    STQ     CONTINUING+5,,AUTO
         1 012150   020166 701000 1                  TSX1    EVNT
         1 012151   020066 702000 1                  TSX2    EVNTERR

     1751    29776                                %ACTION16;

  29777  1 012152   021557 701000 1                  TSX1    ACTION16
         1 012153   020067 702000 1                  TSX2    ACTIONERR

     1752    29779    4                           SCTX.STATE = %XSS_SST_05C;

  29779  1 012154   200003 470500                    LDP0    @VBLK,,AUTO
         1 012155   000000 471500                    LDP1    0,,PR0
         1 012156   013000 236003                    LDQ     5632,DU
         1 012157   100000 552140                    STBQ    0,'40'O,PR1

     1753    29780    4                           END;

     1754    29781                            %ENDPREDDO;

PL6.E3A0      #001=XSS$MACHINE File=XSS$MACHINE.:XSA1TSI                         WED 10/01/97 12:18 Page:433
  29784  1 012160   200014 234100                    SZN     CONTINUING,,AUTO
         1 012161   020065 605000 1                  TPL     s:41916

  29784  1 012162   020773 701000 1                  TSX1    OOPS
         1 012163   000000 011000                    NOP     0
         1 012164   020065 710000 1                  TRA     s:41916

     1755    29786    3                   CASE( %XSS_SST_04B);

     1756    29787                            %IFPREDDO( P="39");

  29796  1 012165   400000 236003                    LDQ     -131072,DU
         1 012166   200014 756100                    STQ     CONTINUING,,AUTO

  29856  1 012167   200012 236100                    LDQ     ZPINV+1,,AUTO
         1 012170   040000 316003                    CANQ    16384,DU
         1 012171   012174 600000 1                  TZE     s:29866

  29856  1 012172   023451 701000 1                  TSX1    PRED39
         1 012173   020067 702000 1                  TSX2    ACTIONERR

  29866  1 012174   200007 236100                    LDQ     ZPRED+1,,AUTO
         1 012175   040000 316003                    CANQ    16384,DU
         1 012176   012223 600000 1                  TZE     s:29902

  29885  1 012177   200014 450100                    STZ     CONTINUING,,AUTO

     1757    29887    4                           IF SCTX.FLAGS.TEXP THEN

  29887  1 012200   200003 470500                    LDP0    @VBLK,,AUTO
         1 012201   000000 471500                    LDP1    0,,PR0
         1 012202   100006 236100                    LDQ     6,,PR1
         1 012203   010000 316007                    CANQ    4096,DL
         1 012204   012211 600000 1                  TZE     s:29892

     1758    29888                                    %EVENT( EV=%XSS_SEV_PR_RS);

PL6.E3A0      #001=XSS$MACHINE File=XSS$MACHINE.:XSA1TSI                         WED 10/01/97 12:18 Page:434
  29889  1 012205   000112 236000 2                  LDQ     74
         1 012206   200021 756100                    STQ     CONTINUING+5,,AUTO
         1 012207   020166 701000 1                  TSX1    EVNT
         1 012210   020066 702000 1                  TSX2    EVNTERR

     1759    29891                                %EVENT( EV=%XSS_SEV_AD);

  29892  1 012211   000114 236000 2                  LDQ     76
         1 012212   200021 756100                    STQ     CONTINUING+5,,AUTO
         1 012213   020166 701000 1                  TSX1    EVNT
         1 012214   020066 702000 1                  TSX2    EVNTERR

     1760    29894                                %ACTION16;

  29895  1 012215   021557 701000 1                  TSX1    ACTION16
         1 012216   020067 702000 1                  TSX2    ACTIONERR

     1761    29897    4                           SCTX.STATE = %XSS_SST_05C;

  29897  1 012217   200003 470500                    LDP0    @VBLK,,AUTO
         1 012220   000000 471500                    LDP1    0,,PR0
         1 012221   013000 236003                    LDQ     5632,DU
         1 012222   100000 552140                    STBQ    0,'40'O,PR1

     1762    29898    4                           END;

     1763    29899                            %ENDPREDDO;

  29902  1 012223   200014 234100                    SZN     CONTINUING,,AUTO
         1 012224   020065 605000 1                  TPL     s:41916

  29902  1 012225   020773 701000 1                  TSX1    OOPS
         1 012226   000000 011000                    NOP     0
         1 012227   020065 710000 1                  TRA     s:41916

     1764    29904    3                   CASE( %XSS_SST_15A);

PL6.E3A0      #001=XSS$MACHINE File=XSS$MACHINE.:XSA1TSI                         WED 10/01/97 12:18 Page:435
     1765    29905                            %IFPREDDO( P="34&39");

  29914  1 012230   400000 236003                    LDQ     -131072,DU
         1 012231   200014 756100                    STQ     CONTINUING,,AUTO

  29960  1 012232   200011 236100                    LDQ     ZPINV,,AUTO
         1 012233   000002 316007                    CANQ    2,DL
         1 012234   012237 600000 1                  TZE     s:29969

  29960  1 012235   023325 701000 1                  TSX1    PRED34
         1 012236   020067 702000 1                  TSX2    ACTIONERR

  29969  1 012237   200006 236100                    LDQ     ZPRED,,AUTO
         1 012240   000002 316007                    CANQ    2,DL
         1 012241   012300 600000 1                  TZE     s:30108

  30044  1 012242   200012 236100                    LDQ     ZPINV+1,,AUTO
         1 012243   040000 316003                    CANQ    16384,DU
         1 012244   012247 600000 1                  TZE     s:30054

  30044  1 012245   023451 701000 1                  TSX1    PRED39
         1 012246   020067 702000 1                  TSX2    ACTIONERR

  30054  1 012247   200007 236100                    LDQ     ZPRED+1,,AUTO
         1 012250   040000 316003                    CANQ    16384,DU
         1 012251   012300 600000 1                  TZE     s:30108

  30088  1 012252   200014 450100                    STZ     CONTINUING,,AUTO

     1766    30090    4                           IF SCTX.FLAGS.TEXP THEN

  30090  1 012253   200003 470500                    LDP0    @VBLK,,AUTO
         1 012254   000000 471500                    LDP1    0,,PR0
         1 012255   100006 236100                    LDQ     6,,PR1
         1 012256   010000 316007                    CANQ    4096,DL
         1 012257   012264 600000 1                  TZE     s:30095

PL6.E3A0      #001=XSS$MACHINE File=XSS$MACHINE.:XSA1TSI                         WED 10/01/97 12:18 Page:436
     1767    30091                                    %EVENT( EV=%XSS_SEV_PR_RS);

  30092  1 012260   000112 236000 2                  LDQ     74
         1 012261   200021 756100                    STQ     CONTINUING+5,,AUTO
         1 012262   020166 701000 1                  TSX1    EVNT
         1 012263   020066 702000 1                  TSX2    EVNTERR

     1768    30094                                %EVENT( EV=%XSS_SEV_AD);

  30095  1 012264   000114 236000 2                  LDQ     76
         1 012265   200021 756100                    STQ     CONTINUING+5,,AUTO
         1 012266   020166 701000 1                  TSX1    EVNT
         1 012267   020066 702000 1                  TSX2    EVNTERR

     1769    30097                                %ACTION16;

  30098  1 012270   021557 701000 1                  TSX1    ACTION16
         1 012271   020067 702000 1                  TSX2    ACTIONERR

     1770    30100    4                           SCTX.STATE = %XSS_SST_05C;

  30100  1 012272   200003 470500                    LDP0    @VBLK,,AUTO
         1 012273   000000 471500                    LDP1    0,,PR0
         1 012274   013000 236003                    LDQ     5632,DU
         1 012275   100000 552140                    STBQ    0,'40'O,PR1

     1771    30101                                %ACTION06;

  30102  1 012276   021255 701000 1                  TSX1    ACTION06
         1 012277   020067 702000 1                  TSX2    ACTIONERR

     1772    30104    4                           END;

     1773    30105                            %ENDPREDDO;

  30108  1 012300   200014 234100                    SZN     CONTINUING,,AUTO
         1 012301   020065 605000 1                  TPL     s:41916
PL6.E3A0      #001=XSS$MACHINE File=XSS$MACHINE.:XSA1TSI                         WED 10/01/97 12:18 Page:437

  30108  1 012302   020773 701000 1                  TSX1    OOPS
         1 012303   000000 011000                    NOP     0
         1 012304   020065 710000 1                  TRA     s:41916

     1774    30110    3                   CASE( %XSS_SST_15B);

     1775    30111                            %IFPREDDO( P="27&34&39");

  30120  1 012305   400000 236003                    LDQ     -131072,DU
         1 012306   200014 756100                    STQ     CONTINUING,,AUTO

  30166  1 012307   200011 236100                    LDQ     ZPINV,,AUTO
         1 012310   000400 316007                    CANQ    256,DL
         1 012311   012314 600000 1                  TZE     s:30175

  30166  1 012312   023160 701000 1                  TSX1    PRED27
         1 012313   020067 702000 1                  TSX2    ACTIONERR

  30175  1 012314   200006 236100                    LDQ     ZPRED,,AUTO
         1 012315   000400 316007                    CANQ    256,DL
         1 012316   012363 600000 1                  TZE     s:30396

  30236  1 012317   200011 236100                    LDQ     ZPINV,,AUTO
         1 012320   000002 316007                    CANQ    2,DL
         1 012321   012324 600000 1                  TZE     s:30245

  30236  1 012322   023325 701000 1                  TSX1    PRED34
         1 012323   020067 702000 1                  TSX2    ACTIONERR

  30245  1 012324   200006 236100                    LDQ     ZPRED,,AUTO
         1 012325   000002 316007                    CANQ    2,DL
         1 012326   012363 600000 1                  TZE     s:30396

  30320  1 012327   200012 236100                    LDQ     ZPINV+1,,AUTO
         1 012330   040000 316003                    CANQ    16384,DU
         1 012331   012334 600000 1                  TZE     s:30330
PL6.E3A0      #001=XSS$MACHINE File=XSS$MACHINE.:XSA1TSI                         WED 10/01/97 12:18 Page:438

  30320  1 012332   023451 701000 1                  TSX1    PRED39
         1 012333   020067 702000 1                  TSX2    ACTIONERR

  30330  1 012334   200007 236100                    LDQ     ZPRED+1,,AUTO
         1 012335   040000 316003                    CANQ    16384,DU
         1 012336   012363 600000 1                  TZE     s:30396

  30379  1 012337   200014 450100                    STZ     CONTINUING,,AUTO

     1776    30381    4                           IF SCTX.FLAGS.TEXP THEN

  30381  1 012340   200003 470500                    LDP0    @VBLK,,AUTO
         1 012341   000000 471500                    LDP1    0,,PR0
         1 012342   100006 236100                    LDQ     6,,PR1
         1 012343   010000 316007                    CANQ    4096,DL
         1 012344   012351 600000 1                  TZE     s:30386

     1777    30382                                    %EVENT( EV=%XSS_SEV_PR_RS);

  30383  1 012345   000112 236000 2                  LDQ     74
         1 012346   200021 756100                    STQ     CONTINUING+5,,AUTO
         1 012347   020166 701000 1                  TSX1    EVNT
         1 012350   020066 702000 1                  TSX2    EVNTERR

     1778    30385                                %EVENT( EV=%XSS_SEV_AD);

  30386  1 012351   000114 236000 2                  LDQ     76
         1 012352   200021 756100                    STQ     CONTINUING+5,,AUTO
         1 012353   020166 701000 1                  TSX1    EVNT
         1 012354   020066 702000 1                  TSX2    EVNTERR

     1779    30388                                %ACTION16;

  30389  1 012355   021557 701000 1                  TSX1    ACTION16
         1 012356   020067 702000 1                  TSX2    ACTIONERR

PL6.E3A0      #001=XSS$MACHINE File=XSS$MACHINE.:XSA1TSI                         WED 10/01/97 12:18 Page:439
     1780    30391    4                           SCTX.STATE = %XSS_SST_05C;

  30391  1 012357   200003 470500                    LDP0    @VBLK,,AUTO
         1 012360   000000 471500                    LDP1    0,,PR0
         1 012361   013000 236003                    LDQ     5632,DU
         1 012362   100000 552140                    STBQ    0,'40'O,PR1

     1781    30392    4                           END;

     1782    30393                            %ENDPREDDO;

  30396  1 012363   200014 234100                    SZN     CONTINUING,,AUTO
         1 012364   020065 605000 1                  TPL     s:41916

  30396  1 012365   020773 701000 1                  TSX1    OOPS
         1 012366   000000 011000                    NOP     0
         1 012367   020065 710000 1                  TRA     s:41916

     1783    30398    3                   CASE( %XSS_SST_20);

     1784    30399                            %IFPREDDO( P="34&11");

  30408  1 012370   400000 236003                    LDQ     -131072,DU
         1 012371   200014 756100                    STQ     CONTINUING,,AUTO

  30454  1 012372   200011 236100                    LDQ     ZPINV,,AUTO
         1 012373   000002 316007                    CANQ    2,DL
         1 012374   012377 600000 1                  TZE     s:30463

  30454  1 012375   023325 701000 1                  TSX1    PRED34
         1 012376   020067 702000 1                  TSX2    ACTIONERR

  30463  1 012377   200006 236100                    LDQ     ZPRED,,AUTO
         1 012400   000002 316007                    CANQ    2,DL
         1 012401   012436 600000 1                  TZE     s:30599

  30538  1 012402   200011 236100                    LDQ     ZPINV,,AUTO
PL6.E3A0      #001=XSS$MACHINE File=XSS$MACHINE.:XSA1TSI                         WED 10/01/97 12:18 Page:440
         1 012403   000100 316003                    CANQ    64,DU
         1 012404   012407 600000 1                  TZE     s:30548

  30538  1 012405   022360 701000 1                  TSX1    PRED11
         1 012406   020067 702000 1                  TSX2    ACTIONERR

  30548  1 012407   200006 236100                    LDQ     ZPRED,,AUTO
         1 012410   000100 316003                    CANQ    64,DU
         1 012411   012436 600000 1                  TZE     s:30599

  30582  1 012412   200014 450100                    STZ     CONTINUING,,AUTO

     1785    30584    4                           IF SCTX.FLAGS.TEXP THEN

  30584  1 012413   200003 470500                    LDP0    @VBLK,,AUTO
         1 012414   000000 471500                    LDP1    0,,PR0
         1 012415   100006 236100                    LDQ     6,,PR1
         1 012416   010000 316007                    CANQ    4096,DL
         1 012417   012424 600000 1                  TZE     s:30589

     1786    30585                                    %EVENT( EV=%XSS_SEV_PR_RS);

  30586  1 012420   000112 236000 2                  LDQ     74
         1 012421   200021 756100                    STQ     CONTINUING+5,,AUTO
         1 012422   020166 701000 1                  TSX1    EVNT
         1 012423   020066 702000 1                  TSX2    EVNTERR

     1787    30588                                %EVENT( EV=%XSS_SEV_AD);

  30589  1 012424   000114 236000 2                  LDQ     76
         1 012425   200021 756100                    STQ     CONTINUING+5,,AUTO
         1 012426   020166 701000 1                  TSX1    EVNT
         1 012427   020066 702000 1                  TSX2    EVNTERR

     1788    30591                                %ACTION16;

  30592  1 012430   021557 701000 1                  TSX1    ACTION16
PL6.E3A0      #001=XSS$MACHINE File=XSS$MACHINE.:XSA1TSI                         WED 10/01/97 12:18 Page:441
         1 012431   020067 702000 1                  TSX2    ACTIONERR

     1789    30594    4                           SCTX.STATE = %XSS_SST_05C;

  30594  1 012432   200003 470500                    LDP0    @VBLK,,AUTO
         1 012433   000000 471500                    LDP1    0,,PR0
         1 012434   013000 236003                    LDQ     5632,DU
         1 012435   100000 552140                    STBQ    0,'40'O,PR1

     1790    30595    4                           END;

     1791    30596                            %ENDPREDDO;

  30599  1 012436   200014 234100                    SZN     CONTINUING,,AUTO
         1 012437   020065 605000 1                  TPL     s:41916

  30599  1 012440   020773 701000 1                  TSX1    OOPS
         1 012441   000000 011000                    NOP     0
         1 012442   020065 710000 1                  TRA     s:41916

     1792    30601    3                   CASE( ELSE);

     1793    30602                            %INVALID;

  30603  1 012443   020773 701000 1                  TSX1    OOPS
         1 012444   000000 011000                    NOP     0

     1794    30605    3                   END;

  30605  1 012445   020065 710000 1                  TRA     s:41916

     1795    30606        %EJECT;
PL6.E3A0      #001=XSS$MACHINE File=XSS$MACHINE.:XSA1TSI                         WED 10/01/97 12:18 Page:442
     1796    30607        /*****************************************************************************
     1797    30608        *
     1798    30609        *       SACDRSP         S-ACTIVITY-DISCARD Response
     1799    30610        *
     1800    30611        *****************************************************************************/
     1801    30612    2           CASE( %XSS_SEV_SACDRSP);                        /* TABLE 49 */

     1802    30613    3               IF SCTX.STATE = %XSS_SST_11C THEN DO;

  30613  1 012446   000000 471500                    LDP1    0,,PR0
         1 012447   100000 236100                    LDQ     0,,PR1
         1 012450   777000 376003                    ANQ     -512,DU
         1 012451   023000 116003                    CMPQ    9728,DU
         1 012452   012475 601000 1                  TNZ     s:30628

     1803    30614    3                   IF SCTX.FLAGS.TEXP THEN

  30614  1 012453   100006 236100                    LDQ     6,,PR1
         1 012454   010000 316007                    CANQ    4096,DL
         1 012455   012462 600000 1                  TZE     s:30619

     1804    30615                            %EVENT( EV=%XSS_SEV_PR_RA);

  30616  1 012456   000116 236000 2                  LDQ     78
         1 012457   200021 756100                    STQ     CONTINUING+5,,AUTO
         1 012460   020166 701000 1                  TSX1    EVNT
         1 012461   020066 702000 1                  TSX2    EVNTERR

     1805    30618                        %EVENT( EV=%XSS_SEV_ADA);

  30619  1 012462   000120 236000 2                  LDQ     80
         1 012463   200021 756100                    STQ     CONTINUING+5,,AUTO
         1 012464   020166 701000 1                  TSX1    EVNT
         1 012465   020066 702000 1                  TSX2    EVNTERR

     1806    30621                        %ACTION30;

PL6.E3A0      #001=XSS$MACHINE File=XSS$MACHINE.:XSA1TSI                         WED 10/01/97 12:18 Page:443
  30622  1 012466   022063 701000 1                  TSX1    ACTION30
         1 012467   020067 702000 1                  TSX2    ACTIONERR

     1807    30624    3                   SCTX.STATE = %XSS_SST_713;

  30624  1 012470   200003 470500                    LDP0    @VBLK,,AUTO
         1 012471   000000 471500                    LDP1    0,,PR0
         1 012472   035000 236003                    LDQ     14848,DU
         1 012473   100000 552140                    STBQ    0,'40'O,PR1

     1808    30625    3                   END;

  30625  1 012474   020065 710000 1                  TRA     s:41916

     1809    30626    2               ELSE
     1810    30627                        %INVALID;

  30628  1 012475   020773 701000 1                  TSX1    OOPS
         1 012476   000000 011000                    NOP     0
         1 012477   020065 710000 1                  TRA     s:41916

     1811    30630        %EJECT;
PL6.E3A0      #001=XSS$MACHINE File=XSS$MACHINE.:XSA1TSI                         WED 10/01/97 12:18 Page:444
     1812    30631        /*****************************************************************************
     1813    30632        *
     1814    30633        *       SACEREQ         S-ACTIVITY-END Request
     1815    30634        *
     1816    30635        *****************************************************************************/
     1817    30636    2           CASE( %XSS_SEV_SACEREQ);                        /* TABLE 47 */

     1818    30637    3               DO SELECT( SCTX.STATE);

  30637  1 012500   000000 471500                    LDP1    0,,PR0
         1 012501   100000 236100                    LDQ     0,,PR1
         1 012502   000033 772000                    QRL     27
         1 012503   000025 116007                    CMPQ    21,DL
         1 012504   012566 602000 1                  TNC     s:30865
         1 012505   012512 600000 1                  TZE     s:30648
         1 012506   000033 736000                    QLS     27
         1 012507   035000 116003                    CMPQ    14848,DU
         1 012510   012566 601000 1                  TNZ     s:30865
         1 012511   012532 710000 1                  TRA     s:30756

     1819    30638    3                   SELECT( %XSS_SST_15B);

     1820    30639                            %IFPREDDO( P="71");

  30648  1 012512   400000 236003                    LDQ     -131072,DU
         1 012513   200014 756100                    STQ     CONTINUING,,AUTO

  30708  1 012514   200012 236100                    LDQ     ZPINV+1,,AUTO
         1 012515   000001 316007                    CANQ    1,DL
         1 012516   012521 600000 1                  TZE     s:30718

  30708  1 012517   025153 701000 1                  TSX1    PRED71
         1 012520   020067 702000 1                  TSX2    ACTIONERR

  30718  1 012521   200007 236100                    LDQ     ZPRED+1,,AUTO
         1 012522   000001 316007                    CANQ    1,DL
         1 012523   012525 600000 1                  TZE     s:30744
PL6.E3A0      #001=XSS$MACHINE File=XSS$MACHINE.:XSA1TSI                         WED 10/01/97 12:18 Page:445

  30737  1 012524   200014 450100                    STZ     CONTINUING,,AUTO

     1821    30739    4                           ;  /* don't do anything */
     1822    30740    4                           END;

     1823    30741                            %ENDPREDDO;

  30744  1 012525   200014 234100                    SZN     CONTINUING,,AUTO
         1 012526   020065 605000 1                  TPL     s:41916

  30744  1 012527   020773 701000 1                  TSX1    OOPS
         1 012530   000000 011000                    NOP     0
         1 012531   020065 710000 1                  TRA     s:41916

     1824    30746    3                   SELECT( %XSS_SST_713);

     1825    30747                            %IFPREDDO( P="71");

  30756  1 012532   400000 236003                    LDQ     -131072,DU
         1 012533   200014 756100                    STQ     CONTINUING,,AUTO

  30816  1 012534   200012 236100                    LDQ     ZPINV+1,,AUTO
         1 012535   000001 316007                    CANQ    1,DL
         1 012536   012541 600000 1                  TZE     s:30826

  30816  1 012537   025153 701000 1                  TSX1    PRED71
         1 012540   020067 702000 1                  TSX2    ACTIONERR

  30826  1 012541   200007 236100                    LDQ     ZPRED+1,,AUTO
         1 012542   000001 316007                    CANQ    1,DL
         1 012543   012561 600000 1                  TZE     s:30861

  30845  1 012544   200014 450100                    STZ     CONTINUING,,AUTO

     1826    30847                                %EVENT( EV=%XSS_SEV_AE);

PL6.E3A0      #001=XSS$MACHINE File=XSS$MACHINE.:XSA1TSI                         WED 10/01/97 12:18 Page:446
  30848  1 012545   000122 236000 2                  LDQ     82
         1 012546   200021 756100                    STQ     CONTINUING+5,,AUTO
         1 012547   020166 701000 1                  TSX1    EVNT
         1 012550   020066 702000 1                  TSX2    EVNTERR

     1827    30850                                %ACTION13;

  30851  1 012551   021525 701000 1                  TSX1    ACTION13
         1 012552   020067 702000 1                  TSX2    ACTIONERR

     1828    30853                                %ACTION24;

  30854  1 012553   021741 701000 1                  TSX1    ACTION24
         1 012554   020067 702000 1                  TSX2    ACTIONERR

     1829    30856    4                           SCTX.STATE = %XSS_SST_04B;

  30856  1 012555   200003 470500                    LDP0    @VBLK,,AUTO
         1 012556   000000 471500                    LDP1    0,,PR0
         1 012557   010000 236003                    LDQ     4096,DU
         1 012560   100000 552140                    STBQ    0,'40'O,PR1

     1830    30857    4                           END;

     1831    30858                            %ENDPREDDO;

  30861  1 012561   200014 234100                    SZN     CONTINUING,,AUTO
         1 012562   020065 605000 1                  TPL     s:41916

  30861  1 012563   020773 701000 1                  TSX1    OOPS
         1 012564   000000 011000                    NOP     0
         1 012565   020065 710000 1                  TRA     s:41916

     1832    30863    3                   SELECT( ELSE);

     1833    30864                            %INVALID;

PL6.E3A0      #001=XSS$MACHINE File=XSS$MACHINE.:XSA1TSI                         WED 10/01/97 12:18 Page:447
  30865  1 012566   020773 701000 1                  TSX1    OOPS
         1 012567   000000 011000                    NOP     0

     1834    30867    3                   END;

  30867  1 012570   020065 710000 1                  TRA     s:41916

     1835    30868        %EJECT;
PL6.E3A0      #001=XSS$MACHINE File=XSS$MACHINE.:XSA1TSI                         WED 10/01/97 12:18 Page:448
     1836    30869        /*****************************************************************************
     1837    30870        *
     1838    30871        *       SACERSP         S-ACTIVITY-END Response
     1839    30872        *
     1840    30873        *****************************************************************************/
     1841    30874    2           CASE( %XSS_SEV_SACERSP);                        /* TABLE 47 */

     1842    30875    3               IF SCTX.STATE = %XSS_SST_10B THEN DO;

  30875  1 012571   000000 471500                    LDP1    0,,PR0
         1 012572   100000 236100                    LDQ     0,,PR1
         1 012573   777000 376003                    ANQ     -512,DU
         1 012574   020000 116003                    CMPQ    8192,DU
         1 012575   012622 601000 1                  TNZ     s:30893

     1843    30876    3                   IF SCTX.FLAGS.TEXP THEN

  30876  1 012576   100006 236100                    LDQ     6,,PR1
         1 012577   010000 316007                    CANQ    4096,DL
         1 012600   012605 600000 1                  TZE     s:30881

     1844    30877                            %EVENT( EV=%XSS_SEV_PR_MAA);

  30878  1 012601   000124 236000 2                  LDQ     84
         1 012602   200021 756100                    STQ     CONTINUING+5,,AUTO
         1 012603   020166 701000 1                  TSX1    EVNT
         1 012604   020066 702000 1                  TSX2    EVNTERR

     1845    30880                        %EVENT( EV=%XSS_SEV_AEA);

  30881  1 012605   000126 236000 2                  LDQ     86
         1 012606   200021 756100                    STQ     CONTINUING+5,,AUTO
         1 012607   020166 701000 1                  TSX1    EVNT
         1 012610   020066 702000 1                  TSX2    EVNTERR

     1846    30883                        %ACTION14;

PL6.E3A0      #001=XSS$MACHINE File=XSS$MACHINE.:XSA1TSI                         WED 10/01/97 12:18 Page:449
  30884  1 012611   021544 701000 1                  TSX1    ACTION14
         1 012612   020067 702000 1                  TSX2    ACTIONERR

     1847    30886                        %ACTION22;

  30887  1 012613   021706 701000 1                  TSX1    ACTION22
         1 012614   020067 702000 1                  TSX2    ACTIONERR

     1848    30889    3                   SCTX.STATE = %XSS_SST_713;

  30889  1 012615   200003 470500                    LDP0    @VBLK,,AUTO
         1 012616   000000 471500                    LDP1    0,,PR0
         1 012617   035000 236003                    LDQ     14848,DU
         1 012620   100000 552140                    STBQ    0,'40'O,PR1

     1849    30890    3                   END;

  30890  1 012621   020065 710000 1                  TRA     s:41916

     1850    30891    2               ELSE
     1851    30892                        %INVALID;

  30893  1 012622   020773 701000 1                  TSX1    OOPS
         1 012623   000000 011000                    NOP     0
         1 012624   020065 710000 1                  TRA     s:41916

     1852    30895        %EJECT;
PL6.E3A0      #001=XSS$MACHINE File=XSS$MACHINE.:XSA1TSI                         WED 10/01/97 12:18 Page:450
     1853    30896        /*****************************************************************************
     1854    30897        *
     1855    30898        *       SACIREQ         S-ACTIVITY-INTERRUPT Request
     1856    30899        *
     1857    30900        *****************************************************************************/
     1858    30901    2           CASE( %XSS_SEV_SACIREQ);                        /* TABLE 49 */

     1859    30902    3               DO CASE( SCTX.STATE);

  30902  1 012625   000000 471500                    LDP1    0,,PR0
         1 012626   100000 236100                    LDQ     0,,PR1
         1 012627   000033 772000                    QRL     27
         1 012630   000007 136007                    SBLQ    7,DL
         1 012631   000027 116007                    CMPQ    23,DL
         1 012632   012634 602006 1                  TNC     s:30902+7,QL
         1 012633   013214 710000 1                  TRA     s:31925
         1 012634   012663 710000 1                  TRA     s:30915
         1 012635   012736 710000 1                  TRA     s:31118
         1 012636   013214 710000 1                  TRA     s:31925
         1 012637   013214 710000 1                  TRA     s:31925
         1 012640   013214 710000 1                  TRA     s:31925
         1 012641   013214 710000 1                  TRA     s:31925
         1 012642   013214 710000 1                  TRA     s:31925
         1 012643   013214 710000 1                  TRA     s:31925
         1 012644   013214 710000 1                  TRA     s:31925
         1 012645   013214 710000 1                  TRA     s:31925
         1 012646   012663 710000 1                  TRA     s:30915
         1 012647   013214 710000 1                  TRA     s:31925
         1 012650   013214 710000 1                  TRA     s:31925
         1 012651   013001 710000 1                  TRA     s:31236
         1 012652   013056 710000 1                  TRA     s:31442
         1 012653   013214 710000 1                  TRA     s:31925
         1 012654   013214 710000 1                  TRA     s:31925
         1 012655   013214 710000 1                  TRA     s:31925
         1 012656   013214 710000 1                  TRA     s:31925
         1 012657   013141 710000 1                  TRA     s:31730
         1 012660   013214 710000 1                  TRA     s:31925
PL6.E3A0      #001=XSS$MACHINE File=XSS$MACHINE.:XSA1TSI                         WED 10/01/97 12:18 Page:451
         1 012661   013214 710000 1                  TRA     s:31925
         1 012662   012663 710000 1                  TRA     s:30915

     1860    30903    3                   CASE( %XSS_SST_04A,

     1861    30904    3                         %XSS_SST_11A,
     1862    30905    3                         %XSS_SST_713);
     1863    30906                            %IFPREDDO( P="34&39");

  30915  1 012663   400000 236003                    LDQ     -131072,DU
         1 012664   200014 756100                    STQ     CONTINUING,,AUTO

  30961  1 012665   200011 236100                    LDQ     ZPINV,,AUTO
         1 012666   000002 316007                    CANQ    2,DL
         1 012667   012672 600000 1                  TZE     s:30970

  30961  1 012670   023325 701000 1                  TSX1    PRED34
         1 012671   020067 702000 1                  TSX2    ACTIONERR

  30970  1 012672   200006 236100                    LDQ     ZPRED,,AUTO
         1 012673   000002 316007                    CANQ    2,DL
         1 012674   012731 600000 1                  TZE     s:31106

  31045  1 012675   200012 236100                    LDQ     ZPINV+1,,AUTO
         1 012676   040000 316003                    CANQ    16384,DU
         1 012677   012702 600000 1                  TZE     s:31055

  31045  1 012700   023451 701000 1                  TSX1    PRED39
         1 012701   020067 702000 1                  TSX2    ACTIONERR

  31055  1 012702   200007 236100                    LDQ     ZPRED+1,,AUTO
         1 012703   040000 316003                    CANQ    16384,DU
         1 012704   012731 600000 1                  TZE     s:31106

  31089  1 012705   200014 450100                    STZ     CONTINUING,,AUTO

     1864    31091    4                           IF SCTX.FLAGS.TEXP THEN
PL6.E3A0      #001=XSS$MACHINE File=XSS$MACHINE.:XSA1TSI                         WED 10/01/97 12:18 Page:452

  31091  1 012706   200003 470500                    LDP0    @VBLK,,AUTO
         1 012707   000000 471500                    LDP1    0,,PR0
         1 012710   100006 236100                    LDQ     6,,PR1
         1 012711   010000 316007                    CANQ    4096,DL
         1 012712   012717 600000 1                  TZE     s:31096

     1865    31092                                    %EVENT( EV=%XSS_SEV_PR_RS);

  31093  1 012713   000112 236000 2                  LDQ     74
         1 012714   200021 756100                    STQ     CONTINUING+5,,AUTO
         1 012715   020166 701000 1                  TSX1    EVNT
         1 012716   020066 702000 1                  TSX2    EVNTERR

     1866    31095                                %EVENT( EV=%XSS_SEV_AI);

  31096  1 012717   000130 236000 2                  LDQ     88
         1 012720   200021 756100                    STQ     CONTINUING+5,,AUTO
         1 012721   020166 701000 1                  TSX1    EVNT
         1 012722   020066 702000 1                  TSX2    EVNTERR

     1867    31098                                %ACTION16;

  31099  1 012723   021557 701000 1                  TSX1    ACTION16
         1 012724   020067 702000 1                  TSX2    ACTIONERR

     1868    31101    4                           SCTX.STATE = %XSS_SST_05B;

  31101  1 012725   200003 470500                    LDP0    @VBLK,,AUTO
         1 012726   000000 471500                    LDP1    0,,PR0
         1 012727   012000 236003                    LDQ     5120,DU
         1 012730   100000 552140                    STBQ    0,'40'O,PR1

     1869    31102    4                           END;

     1870    31103                            %ENDPREDDO;

PL6.E3A0      #001=XSS$MACHINE File=XSS$MACHINE.:XSA1TSI                         WED 10/01/97 12:18 Page:453
  31106  1 012731   200014 234100                    SZN     CONTINUING,,AUTO
         1 012732   020065 605000 1                  TPL     s:41916

  31106  1 012733   020773 701000 1                  TSX1    OOPS
         1 012734   000000 011000                    NOP     0
         1 012735   020065 710000 1                  TRA     s:41916

     1871    31108    3                   CASE( %XSS_SST_04B);

     1872    31109                            %IFPREDDO( P="39");

  31118  1 012736   400000 236003                    LDQ     -131072,DU
         1 012737   200014 756100                    STQ     CONTINUING,,AUTO

  31178  1 012740   200012 236100                    LDQ     ZPINV+1,,AUTO
         1 012741   040000 316003                    CANQ    16384,DU
         1 012742   012745 600000 1                  TZE     s:31188

  31178  1 012743   023451 701000 1                  TSX1    PRED39
         1 012744   020067 702000 1                  TSX2    ACTIONERR

  31188  1 012745   200007 236100                    LDQ     ZPRED+1,,AUTO
         1 012746   040000 316003                    CANQ    16384,DU
         1 012747   012774 600000 1                  TZE     s:31224

  31207  1 012750   200014 450100                    STZ     CONTINUING,,AUTO

     1873    31209    4                           IF SCTX.FLAGS.TEXP THEN

  31209  1 012751   200003 470500                    LDP0    @VBLK,,AUTO
         1 012752   000000 471500                    LDP1    0,,PR0
         1 012753   100006 236100                    LDQ     6,,PR1
         1 012754   010000 316007                    CANQ    4096,DL
         1 012755   012762 600000 1                  TZE     s:31214

     1874    31210                                    %EVENT( EV=%XSS_SEV_PR_RS);

PL6.E3A0      #001=XSS$MACHINE File=XSS$MACHINE.:XSA1TSI                         WED 10/01/97 12:18 Page:454
  31211  1 012756   000112 236000 2                  LDQ     74
         1 012757   200021 756100                    STQ     CONTINUING+5,,AUTO
         1 012760   020166 701000 1                  TSX1    EVNT
         1 012761   020066 702000 1                  TSX2    EVNTERR

     1875    31213                                %EVENT( EV=%XSS_SEV_AI);

  31214  1 012762   000130 236000 2                  LDQ     88
         1 012763   200021 756100                    STQ     CONTINUING+5,,AUTO
         1 012764   020166 701000 1                  TSX1    EVNT
         1 012765   020066 702000 1                  TSX2    EVNTERR

     1876    31216                                %ACTION16;

  31217  1 012766   021557 701000 1                  TSX1    ACTION16
         1 012767   020067 702000 1                  TSX2    ACTIONERR

     1877    31219    4                           SCTX.STATE = %XSS_SST_05B;

  31219  1 012770   200003 470500                    LDP0    @VBLK,,AUTO
         1 012771   000000 471500                    LDP1    0,,PR0
         1 012772   012000 236003                    LDQ     5120,DU
         1 012773   100000 552140                    STBQ    0,'40'O,PR1

     1878    31220    4                           END;

     1879    31221                            %ENDPREDDO;

  31224  1 012774   200014 234100                    SZN     CONTINUING,,AUTO
         1 012775   020065 605000 1                  TPL     s:41916

  31224  1 012776   020773 701000 1                  TSX1    OOPS
         1 012777   000000 011000                    NOP     0
         1 013000   020065 710000 1                  TRA     s:41916

     1880    31226    3                   CASE( %XSS_SST_15A);

PL6.E3A0      #001=XSS$MACHINE File=XSS$MACHINE.:XSA1TSI                         WED 10/01/97 12:18 Page:455
     1881    31227                            %IFPREDDO( P="34&39");

  31236  1 013001   400000 236003                    LDQ     -131072,DU
         1 013002   200014 756100                    STQ     CONTINUING,,AUTO

  31282  1 013003   200011 236100                    LDQ     ZPINV,,AUTO
         1 013004   000002 316007                    CANQ    2,DL
         1 013005   013010 600000 1                  TZE     s:31291

  31282  1 013006   023325 701000 1                  TSX1    PRED34
         1 013007   020067 702000 1                  TSX2    ACTIONERR

  31291  1 013010   200006 236100                    LDQ     ZPRED,,AUTO
         1 013011   000002 316007                    CANQ    2,DL
         1 013012   013051 600000 1                  TZE     s:31430

  31366  1 013013   200012 236100                    LDQ     ZPINV+1,,AUTO
         1 013014   040000 316003                    CANQ    16384,DU
         1 013015   013020 600000 1                  TZE     s:31376

  31366  1 013016   023451 701000 1                  TSX1    PRED39
         1 013017   020067 702000 1                  TSX2    ACTIONERR

  31376  1 013020   200007 236100                    LDQ     ZPRED+1,,AUTO
         1 013021   040000 316003                    CANQ    16384,DU
         1 013022   013051 600000 1                  TZE     s:31430

  31410  1 013023   200014 450100                    STZ     CONTINUING,,AUTO

     1882    31412    4                           IF SCTX.FLAGS.TEXP THEN

  31412  1 013024   200003 470500                    LDP0    @VBLK,,AUTO
         1 013025   000000 471500                    LDP1    0,,PR0
         1 013026   100006 236100                    LDQ     6,,PR1
         1 013027   010000 316007                    CANQ    4096,DL
         1 013030   013035 600000 1                  TZE     s:31417

PL6.E3A0      #001=XSS$MACHINE File=XSS$MACHINE.:XSA1TSI                         WED 10/01/97 12:18 Page:456
     1883    31413                                    %EVENT( EV=%XSS_SEV_PR_RS);

  31414  1 013031   000112 236000 2                  LDQ     74
         1 013032   200021 756100                    STQ     CONTINUING+5,,AUTO
         1 013033   020166 701000 1                  TSX1    EVNT
         1 013034   020066 702000 1                  TSX2    EVNTERR

     1884    31416                                %EVENT( EV=%XSS_SEV_AI);

  31417  1 013035   000130 236000 2                  LDQ     88
         1 013036   200021 756100                    STQ     CONTINUING+5,,AUTO
         1 013037   020166 701000 1                  TSX1    EVNT
         1 013040   020066 702000 1                  TSX2    EVNTERR

     1885    31419                                %ACTION16;

  31420  1 013041   021557 701000 1                  TSX1    ACTION16
         1 013042   020067 702000 1                  TSX2    ACTIONERR

     1886    31422    4                           SCTX.STATE = %XSS_SST_05B;

  31422  1 013043   200003 470500                    LDP0    @VBLK,,AUTO
         1 013044   000000 471500                    LDP1    0,,PR0
         1 013045   012000 236003                    LDQ     5120,DU
         1 013046   100000 552140                    STBQ    0,'40'O,PR1

     1887    31423                                %ACTION06;

  31424  1 013047   021255 701000 1                  TSX1    ACTION06
         1 013050   020067 702000 1                  TSX2    ACTIONERR

     1888    31426    4                           END;

     1889    31427                            %ENDPREDDO;

  31430  1 013051   200014 234100                    SZN     CONTINUING,,AUTO
         1 013052   020065 605000 1                  TPL     s:41916
PL6.E3A0      #001=XSS$MACHINE File=XSS$MACHINE.:XSA1TSI                         WED 10/01/97 12:18 Page:457

  31430  1 013053   020773 701000 1                  TSX1    OOPS
         1 013054   000000 011000                    NOP     0
         1 013055   020065 710000 1                  TRA     s:41916

     1890    31432    3                   CASE( %XSS_SST_15B);

     1891    31433                            %IFPREDDO( P="27&34&39");

  31442  1 013056   400000 236003                    LDQ     -131072,DU
         1 013057   200014 756100                    STQ     CONTINUING,,AUTO

  31488  1 013060   200011 236100                    LDQ     ZPINV,,AUTO
         1 013061   000400 316007                    CANQ    256,DL
         1 013062   013065 600000 1                  TZE     s:31497

  31488  1 013063   023160 701000 1                  TSX1    PRED27
         1 013064   020067 702000 1                  TSX2    ACTIONERR

  31497  1 013065   200006 236100                    LDQ     ZPRED,,AUTO
         1 013066   000400 316007                    CANQ    256,DL
         1 013067   013134 600000 1                  TZE     s:31718

  31558  1 013070   200011 236100                    LDQ     ZPINV,,AUTO
         1 013071   000002 316007                    CANQ    2,DL
         1 013072   013075 600000 1                  TZE     s:31567

  31558  1 013073   023325 701000 1                  TSX1    PRED34
         1 013074   020067 702000 1                  TSX2    ACTIONERR

  31567  1 013075   200006 236100                    LDQ     ZPRED,,AUTO
         1 013076   000002 316007                    CANQ    2,DL
         1 013077   013134 600000 1                  TZE     s:31718

  31642  1 013100   200012 236100                    LDQ     ZPINV+1,,AUTO
         1 013101   040000 316003                    CANQ    16384,DU
         1 013102   013105 600000 1                  TZE     s:31652
PL6.E3A0      #001=XSS$MACHINE File=XSS$MACHINE.:XSA1TSI                         WED 10/01/97 12:18 Page:458

  31642  1 013103   023451 701000 1                  TSX1    PRED39
         1 013104   020067 702000 1                  TSX2    ACTIONERR

  31652  1 013105   200007 236100                    LDQ     ZPRED+1,,AUTO
         1 013106   040000 316003                    CANQ    16384,DU
         1 013107   013134 600000 1                  TZE     s:31718

  31701  1 013110   200014 450100                    STZ     CONTINUING,,AUTO

     1892    31703    4                           IF SCTX.FLAGS.TEXP THEN

  31703  1 013111   200003 470500                    LDP0    @VBLK,,AUTO
         1 013112   000000 471500                    LDP1    0,,PR0
         1 013113   100006 236100                    LDQ     6,,PR1
         1 013114   010000 316007                    CANQ    4096,DL
         1 013115   013122 600000 1                  TZE     s:31708

     1893    31704                                    %EVENT( EV=%XSS_SEV_PR_RS);

  31705  1 013116   000112 236000 2                  LDQ     74
         1 013117   200021 756100                    STQ     CONTINUING+5,,AUTO
         1 013120   020166 701000 1                  TSX1    EVNT
         1 013121   020066 702000 1                  TSX2    EVNTERR

     1894    31707                                %EVENT( EV=%XSS_SEV_AI);

  31708  1 013122   000130 236000 2                  LDQ     88
         1 013123   200021 756100                    STQ     CONTINUING+5,,AUTO
         1 013124   020166 701000 1                  TSX1    EVNT
         1 013125   020066 702000 1                  TSX2    EVNTERR

     1895    31710                                %ACTION16;

  31711  1 013126   021557 701000 1                  TSX1    ACTION16
         1 013127   020067 702000 1                  TSX2    ACTIONERR

PL6.E3A0      #001=XSS$MACHINE File=XSS$MACHINE.:XSA1TSI                         WED 10/01/97 12:18 Page:459
     1896    31713    4                           SCTX.STATE = %XSS_SST_05B;

  31713  1 013130   200003 470500                    LDP0    @VBLK,,AUTO
         1 013131   000000 471500                    LDP1    0,,PR0
         1 013132   012000 236003                    LDQ     5120,DU
         1 013133   100000 552140                    STBQ    0,'40'O,PR1

     1897    31714    4                           END;

     1898    31715                            %ENDPREDDO;

  31718  1 013134   200014 234100                    SZN     CONTINUING,,AUTO
         1 013135   020065 605000 1                  TPL     s:41916

  31718  1 013136   020773 701000 1                  TSX1    OOPS
         1 013137   000000 011000                    NOP     0
         1 013140   020065 710000 1                  TRA     s:41916

     1899    31720    3                   CASE( %XSS_SST_20);

     1900    31721                            %IFPREDDO( P="34&11");

  31730  1 013141   400000 236003                    LDQ     -131072,DU
         1 013142   200014 756100                    STQ     CONTINUING,,AUTO

  31776  1 013143   200011 236100                    LDQ     ZPINV,,AUTO
         1 013144   000002 316007                    CANQ    2,DL
         1 013145   013150 600000 1                  TZE     s:31785

  31776  1 013146   023325 701000 1                  TSX1    PRED34
         1 013147   020067 702000 1                  TSX2    ACTIONERR

  31785  1 013150   200006 236100                    LDQ     ZPRED,,AUTO
         1 013151   000002 316007                    CANQ    2,DL
         1 013152   013207 600000 1                  TZE     s:31921

  31860  1 013153   200011 236100                    LDQ     ZPINV,,AUTO
PL6.E3A0      #001=XSS$MACHINE File=XSS$MACHINE.:XSA1TSI                         WED 10/01/97 12:18 Page:460
         1 013154   000100 316003                    CANQ    64,DU
         1 013155   013160 600000 1                  TZE     s:31870

  31860  1 013156   022360 701000 1                  TSX1    PRED11
         1 013157   020067 702000 1                  TSX2    ACTIONERR

  31870  1 013160   200006 236100                    LDQ     ZPRED,,AUTO
         1 013161   000100 316003                    CANQ    64,DU
         1 013162   013207 600000 1                  TZE     s:31921

  31904  1 013163   200014 450100                    STZ     CONTINUING,,AUTO

     1901    31906    4                           IF SCTX.FLAGS.TEXP THEN

  31906  1 013164   200003 470500                    LDP0    @VBLK,,AUTO
         1 013165   000000 471500                    LDP1    0,,PR0
         1 013166   100006 236100                    LDQ     6,,PR1
         1 013167   010000 316007                    CANQ    4096,DL
         1 013170   013175 600000 1                  TZE     s:31911

     1902    31907                                    %EVENT( EV=%XSS_SEV_PR_RS);

  31908  1 013171   000112 236000 2                  LDQ     74
         1 013172   200021 756100                    STQ     CONTINUING+5,,AUTO
         1 013173   020166 701000 1                  TSX1    EVNT
         1 013174   020066 702000 1                  TSX2    EVNTERR

     1903    31910                                %EVENT( EV=%XSS_SEV_AI);

  31911  1 013175   000130 236000 2                  LDQ     88
         1 013176   200021 756100                    STQ     CONTINUING+5,,AUTO
         1 013177   020166 701000 1                  TSX1    EVNT
         1 013200   020066 702000 1                  TSX2    EVNTERR

     1904    31913                                %ACTION16;

  31914  1 013201   021557 701000 1                  TSX1    ACTION16
PL6.E3A0      #001=XSS$MACHINE File=XSS$MACHINE.:XSA1TSI                         WED 10/01/97 12:18 Page:461
         1 013202   020067 702000 1                  TSX2    ACTIONERR

     1905    31916    4                           SCTX.STATE = %XSS_SST_05B;

  31916  1 013203   200003 470500                    LDP0    @VBLK,,AUTO
         1 013204   000000 471500                    LDP1    0,,PR0
         1 013205   012000 236003                    LDQ     5120,DU
         1 013206   100000 552140                    STBQ    0,'40'O,PR1

     1906    31917    4                           END;

     1907    31918                            %ENDPREDDO;

  31921  1 013207   200014 234100                    SZN     CONTINUING,,AUTO
         1 013210   020065 605000 1                  TPL     s:41916

  31921  1 013211   020773 701000 1                  TSX1    OOPS
         1 013212   000000 011000                    NOP     0
         1 013213   020065 710000 1                  TRA     s:41916

     1908    31923    3                   CASE( ELSE);

     1909    31924                            %INVALID;

  31925  1 013214   020773 701000 1                  TSX1    OOPS
         1 013215   000000 011000                    NOP     0

     1910    31927    3                   END;

  31927  1 013216   020065 710000 1                  TRA     s:41916

     1911    31928        %EJECT;
PL6.E3A0      #001=XSS$MACHINE File=XSS$MACHINE.:XSA1TSI                         WED 10/01/97 12:18 Page:462
     1912    31929        /*****************************************************************************
     1913    31930        *
     1914    31931        *       SACIRSP         S-ACTIVITY-INTERRUPT Response
     1915    31932        *
     1916    31933        *****************************************************************************/
     1917    31934    2           CASE( %XSS_SEV_SACIRSP);                        /* TABLE 49 */

     1918    31935    3               IF SCTX.STATE = %XSS_SST_11B THEN DO;

  31935  1 013217   000000 471500                    LDP1    0,,PR0
         1 013220   100000 236100                    LDQ     0,,PR1
         1 013221   777000 376003                    ANQ     -512,DU
         1 013222   022000 116003                    CMPQ    9216,DU
         1 013223   013246 601000 1                  TNZ     s:31950

     1919    31936    3                   IF SCTX.FLAGS.TEXP THEN

  31936  1 013224   100006 236100                    LDQ     6,,PR1
         1 013225   010000 316007                    CANQ    4096,DL
         1 013226   013233 600000 1                  TZE     s:31941

     1920    31937                            %EVENT( EV=%XSS_SEV_PR_RA);

  31938  1 013227   000116 236000 2                  LDQ     78
         1 013230   200021 756100                    STQ     CONTINUING+5,,AUTO
         1 013231   020166 701000 1                  TSX1    EVNT
         1 013232   020066 702000 1                  TSX2    EVNTERR

     1921    31940                        %EVENT( EV=%XSS_SEV_AIA);

  31941  1 013233   000132 236000 2                  LDQ     90
         1 013234   200021 756100                    STQ     CONTINUING+5,,AUTO
         1 013235   020166 701000 1                  TSX1    EVNT
         1 013236   020066 702000 1                  TSX2    EVNTERR

     1922    31943                        %ACTION30;

PL6.E3A0      #001=XSS$MACHINE File=XSS$MACHINE.:XSA1TSI                         WED 10/01/97 12:18 Page:463
  31944  1 013237   022063 701000 1                  TSX1    ACTION30
         1 013240   020067 702000 1                  TSX2    ACTIONERR

     1923    31946    3                   SCTX.STATE = %XSS_SST_713;

  31946  1 013241   200003 470500                    LDP0    @VBLK,,AUTO
         1 013242   000000 471500                    LDP1    0,,PR0
         1 013243   035000 236003                    LDQ     14848,DU
         1 013244   100000 552140                    STBQ    0,'40'O,PR1

     1924    31947    3                   END;

  31947  1 013245   020065 710000 1                  TRA     s:41916

     1925    31948    2               ELSE
     1926    31949                        %INVALID;

  31950  1 013246   020773 701000 1                  TSX1    OOPS
         1 013247   000000 011000                    NOP     0
         1 013250   020065 710000 1                  TRA     s:41916

     1927    31952        %EJECT;
PL6.E3A0      #001=XSS$MACHINE File=XSS$MACHINE.:XSA1TSI                         WED 10/01/97 12:18 Page:464
     1928    31953        /*****************************************************************************
     1929    31954        *
     1930    31955        *       SACRREQ         S-ACTIVITY-RESUME Request
     1931    31956        *
     1932    31957        *****************************************************************************/
     1933    31958    2           CASE( %XSS_SEV_SACRREQ);                        /* TABLE 50 */

     1934    31959    3               IF SCTX.STATE = %XSS_SST_713 THEN DO;

  31959  1 013251   000000 471500                    LDP1    0,,PR0
         1 013252   100000 236100                    LDQ     0,,PR1
         1 013253   777000 376003                    ANQ     -512,DU
         1 013254   035000 116003                    CMPQ    14848,DU
         1 013255   013306 601000 1                  TNZ     s:32078

     1935    31960                        %IFPREDDO( P="45");

  31969  1 013256   400000 236003                    LDQ     -131072,DU
         1 013257   200014 756100                    STQ     CONTINUING,,AUTO

  32029  1 013260   200012 236100                    LDQ     ZPINV+1,,AUTO
         1 013261   000400 316003                    CANQ    256,DU
         1 013262   013265 600000 1                  TZE     s:32039

  32029  1 013263   023652 701000 1                  TSX1    PRED45
         1 013264   020067 702000 1                  TSX2    ACTIONERR

  32039  1 013265   200007 236100                    LDQ     ZPRED+1,,AUTO
         1 013266   000400 316003                    CANQ    256,DU
         1 013267   013301 600000 1                  TZE     s:32073

  32058  1 013270   200014 450100                    STZ     CONTINUING,,AUTO

     1936    32060                            %EVENT( EV=%XSS_SEV_AR);

  32061  1 013271   000134 236000 2                  LDQ     92
         1 013272   200021 756100                    STQ     CONTINUING+5,,AUTO
PL6.E3A0      #001=XSS$MACHINE File=XSS$MACHINE.:XSA1TSI                         WED 10/01/97 12:18 Page:465
         1 013273   020166 701000 1                  TSX1    EVNT
         1 013274   020066 702000 1                  TSX2    EVNTERR

     1937    32063                            %ACTION12;

  32064  1 013275   021517 701000 1                  TSX1    ACTION12
         1 013276   020067 702000 1                  TSX2    ACTIONERR

     1938    32066                            %ACTION27;

  32067  1 013277   022003 701000 1                  TSX1    ACTION27
         1 013300   020067 702000 1                  TSX2    ACTIONERR

     1939    32069    4                       END;

     1940    32070                        %ENDPREDDO;

  32073  1 013301   200014 234100                    SZN     CONTINUING,,AUTO
         1 013302   020065 605000 1                  TPL     s:41916

  32073  1 013303   020773 701000 1                  TSX1    OOPS
         1 013304   000000 011000                    NOP     0

     1941    32075    3                   END;

  32075  1 013305   020065 710000 1                  TRA     s:41916

     1942    32076    2               ELSE
     1943    32077                        %INVALID;

  32078  1 013306   020773 701000 1                  TSX1    OOPS
         1 013307   000000 011000                    NOP     0
         1 013310   020065 710000 1                  TRA     s:41916

     1944    32080        %EJECT;
PL6.E3A0      #001=XSS$MACHINE File=XSS$MACHINE.:XSA1TSI                         WED 10/01/97 12:18 Page:466
     1945    32081        /*****************************************************************************
     1946    32082        *
     1947    32083        *       SACSREQ         S-ACTIVITY-START Request
     1948    32084        *
     1949    32085        *****************************************************************************/
     1950    32086    2           CASE( %XSS_SEV_SACSREQ);                        /* TABLE 50 */

     1951    32087    3               IF SCTX.STATE = %XSS_SST_713 THEN DO;

  32087  1 013311   000000 471500                    LDP1    0,,PR0
         1 013312   100000 236100                    LDQ     0,,PR1
         1 013313   777000 376003                    ANQ     -512,DU
         1 013314   035000 116003                    CMPQ    14848,DU
         1 013315   013346 601000 1                  TNZ     s:32206

     1952    32088                        %IFPREDDO( P="45");

  32097  1 013316   400000 236003                    LDQ     -131072,DU
         1 013317   200014 756100                    STQ     CONTINUING,,AUTO

  32157  1 013320   200012 236100                    LDQ     ZPINV+1,,AUTO
         1 013321   000400 316003                    CANQ    256,DU
         1 013322   013325 600000 1                  TZE     s:32167

  32157  1 013323   023652 701000 1                  TSX1    PRED45
         1 013324   020067 702000 1                  TSX2    ACTIONERR

  32167  1 013325   200007 236100                    LDQ     ZPRED+1,,AUTO
         1 013326   000400 316003                    CANQ    256,DU
         1 013327   013341 600000 1                  TZE     s:32201

  32186  1 013330   200014 450100                    STZ     CONTINUING,,AUTO

     1953    32188                            %EVENT( EV=%XSS_SEV_AS);

  32189  1 013331   000136 236000 2                  LDQ     94
         1 013332   200021 756100                    STQ     CONTINUING+5,,AUTO
PL6.E3A0      #001=XSS$MACHINE File=XSS$MACHINE.:XSA1TSI                         WED 10/01/97 12:18 Page:467
         1 013333   020166 701000 1                  TSX1    EVNT
         1 013334   020066 702000 1                  TSX2    EVNTERR

     1954    32191                            %ACTION12;

  32192  1 013335   021517 701000 1                  TSX1    ACTION12
         1 013336   020067 702000 1                  TSX2    ACTIONERR

     1955    32194                            %ACTION26;

  32195  1 013337   021771 701000 1                  TSX1    ACTION26
         1 013340   020067 702000 1                  TSX2    ACTIONERR

     1956    32197    4                       END;

     1957    32198                        %ENDPREDDO;

  32201  1 013341   200014 234100                    SZN     CONTINUING,,AUTO
         1 013342   020065 605000 1                  TPL     s:41916

  32201  1 013343   020773 701000 1                  TSX1    OOPS
         1 013344   000000 011000                    NOP     0

     1958    32203    3                   END;

  32203  1 013345   020065 710000 1                  TRA     s:41916

     1959    32204    2               ELSE
     1960    32205                        %INVALID;

  32206  1 013346   020773 701000 1                  TSX1    OOPS
         1 013347   000000 011000                    NOP     0
         1 013350   020065 710000 1                  TRA     s:41916

     1961    32208        %EJECT;
PL6.E3A0      #001=XSS$MACHINE File=XSS$MACHINE.:XSA1TSI                         WED 10/01/97 12:18 Page:468
     1962    32209        /*****************************************************************************
     1963    32210        *
     1964    32211        *       SCADREQ         S-CAPABILITY-DATA Request
     1965    32212        *
     1966    32213        *****************************************************************************/
     1967    32214    2           CASE( %XSS_SEV_SCADREQ);                        /* TABLE 50 */

     1968    32215    3               IF SCTX.STATE = %XSS_SST_713 THEN DO;

  32215  1 013351   000000 471500                    LDP1    0,,PR0
         1 013352   100000 236100                    LDQ     0,,PR1
         1 013353   777000 376003                    ANQ     -512,DU
         1 013354   035000 116003                    CMPQ    14848,DU
         1 013355   013406 601000 1                  TNZ     s:32329

     1969    32216                        %IFPREDDO( P="47");

  32225  1 013356   400000 236003                    LDQ     -131072,DU
         1 013357   200014 756100                    STQ     CONTINUING,,AUTO

  32285  1 013360   200012 236100                    LDQ     ZPINV+1,,AUTO
         1 013361   000100 316003                    CANQ    64,DU
         1 013362   013365 600000 1                  TZE     s:32295

  32285  1 013363   024007 701000 1                  TSX1    PRED47
         1 013364   020067 702000 1                  TSX2    ACTIONERR

  32295  1 013365   200007 236100                    LDQ     ZPRED+1,,AUTO
         1 013366   000100 316003                    CANQ    64,DU
         1 013367   013401 600000 1                  TZE     s:32324

  32314  1 013370   200014 450100                    STZ     CONTINUING,,AUTO

     1970    32316                            %EVENT( EV=%XSS_SEV_CD);

  32317  1 013371   000140 236000 2                  LDQ     96
         1 013372   200021 756100                    STQ     CONTINUING+5,,AUTO
PL6.E3A0      #001=XSS$MACHINE File=XSS$MACHINE.:XSA1TSI                         WED 10/01/97 12:18 Page:469
         1 013373   020166 701000 1                  TSX1    EVNT
         1 013374   020066 702000 1                  TSX2    EVNTERR

     1971    32319    4                       SCTX.STATE = %XSS_SST_21;

  32319  1 013375   200003 470500                    LDP0    @VBLK,,AUTO
         1 013376   000000 471500                    LDP1    0,,PR0
         1 013377   033000 236003                    LDQ     13824,DU
         1 013400   100000 552140                    STBQ    0,'40'O,PR1

     1972    32320    4                       END;

     1973    32321                        %ENDPREDDO;

  32324  1 013401   200014 234100                    SZN     CONTINUING,,AUTO
         1 013402   020065 605000 1                  TPL     s:41916

  32324  1 013403   020773 701000 1                  TSX1    OOPS
         1 013404   000000 011000                    NOP     0

     1974    32326    3                   END;

  32326  1 013405   020065 710000 1                  TRA     s:41916

     1975    32327    2               ELSE
     1976    32328                        %INVALID;

  32329  1 013406   020773 701000 1                  TSX1    OOPS
         1 013407   000000 011000                    NOP     0
         1 013410   020065 710000 1                  TRA     s:41916

     1977    32331        %EJECT;
PL6.E3A0      #001=XSS$MACHINE File=XSS$MACHINE.:XSA1TSI                         WED 10/01/97 12:18 Page:470
     1978    32332        /*****************************************************************************
     1979    32333        *
     1980    32334        *       SCADRSP         S-CAPABILITY-DATA Response
     1981    32335        *
     1982    32336        *****************************************************************************/
     1983    32337    2           CASE( %XSS_SEV_SCADRSP);                        /* TABLE 50 */

     1984    32338    3               IF SCTX.STATE = %XSS_SST_22 THEN DO;

  32338  1 013411   000000 471500                    LDP1    0,,PR0
         1 013412   100000 236100                    LDQ     0,,PR1
         1 013413   777000 376003                    ANQ     -512,DU
         1 013414   034000 116003                    CMPQ    14336,DU
         1 013415   013427 601000 1                  TNZ     s:32346

     1985    32339                        %EVENT( EV=%XSS_SEV_CDA);

  32340  1 013416   000142 236000 2                  LDQ     98
         1 013417   200021 756100                    STQ     CONTINUING+5,,AUTO
         1 013420   020166 701000 1                  TSX1    EVNT
         1 013421   020066 702000 1                  TSX2    EVNTERR

     1986    32342    3                   SCTX.STATE = %XSS_SST_713;

  32342  1 013422   200003 470500                    LDP0    @VBLK,,AUTO
         1 013423   000000 471500                    LDP1    0,,PR0
         1 013424   035000 236003                    LDQ     14848,DU
         1 013425   100000 552140                    STBQ    0,'40'O,PR1

     1987    32343    3                   END;

  32343  1 013426   020065 710000 1                  TRA     s:41916

     1988    32344    2               ELSE
     1989    32345                        %INVALID;

  32346  1 013427   020773 701000 1                  TSX1    OOPS
PL6.E3A0      #001=XSS$MACHINE File=XSS$MACHINE.:XSA1TSI                         WED 10/01/97 12:18 Page:471
         1 013430   000000 011000                    NOP     0
         1 013431   020065 710000 1                  TRA     s:41916

     1990    32348        %EJECT;
PL6.E3A0      #001=XSS$MACHINE File=XSS$MACHINE.:XSA1TSI                         WED 10/01/97 12:18 Page:472
     1991    32349        /*****************************************************************************
     1992    32350        *
     1993    32351        *       SCONREQ         S-CONNECT Request
     1994    32352        *
     1995    32353        *****************************************************************************/
     1996    32354    2           CASE( %XSS_SEV_SCONREQ);                        /* TABLE 45 */

     1997    32355    3               DO CASE( SCTX.STATE);

  32355  1 013432   000000 471500                    LDP1    0,,PR0
         1 013433   100000 236100                    LDQ     0,,PR1
         1 013434   000033 772000                    QRL     27
         1 013435   000005 116007                    CMPQ    5,DL
         1 013436   013440 602006 1                  TNC     s:32355+6,QL
         1 013437   013510 710000 1                  TRA     s:32477
         1 013440   013510 710000 1                  TRA     s:32477
         1 013441   013445 710000 1                  TRA     s:32358
         1 013442   013510 710000 1                  TRA     s:32477
         1 013443   013510 710000 1                  TRA     s:32477
         1 013444   013460 710000 1                  TRA     s:32374

     1998    32356    3                   CASE( %XSS_SST_01);

     1999    32357                            %EVENT( EV=%XSS_SEV_TCONREQ);

  32358  1 013445   000144 236000 2                  LDQ     100
         1 013446   200021 756100                    STQ     CONTINUING+5,,AUTO
         1 013447   020166 701000 1                  TSX1    EVNT
         1 013450   020066 702000 1                  TSX2    EVNTERR

     2000    32360                            %ACTION02;

  32361  1 013451   021026 701000 1                  TSX1    ACTION02
         1 013452   020067 702000 1                  TSX2    ACTIONERR

     2001    32363    3                       SCTX.STATE = %XSS_SST_01B;

PL6.E3A0      #001=XSS$MACHINE File=XSS$MACHINE.:XSA1TSI                         WED 10/01/97 12:18 Page:473
  32363  1 013453   200003 470500                    LDP0    @VBLK,,AUTO
         1 013454   000000 471500                    LDP1    0,,PR0
         1 013455   003000 236003                    LDQ     1536,DU
         1 013456   100000 552140                    STBQ    0,'40'O,PR1
         1 013457   020065 710000 1                  TRA     s:41916

     2002    32364    3                   CASE( %XSS_SST_01C);

     2003    32365                            %IFPREDDO( P="01");

  32374  1 013460   400000 236003                    LDQ     -131072,DU
         1 013461   200014 756100                    STQ     CONTINUING,,AUTO

  32434  1 013462   200011 236100                    LDQ     ZPINV,,AUTO
         1 013463   200000 316003                    CANQ    65536,DU
         1 013464   013467 600000 1                  TZE     s:32444

  32434  1 013465   022135 701000 1                  TSX1    PRED01
         1 013466   020067 702000 1                  TSX2    ACTIONERR

  32444  1 013467   200006 236100                    LDQ     ZPRED,,AUTO
         1 013470   200000 316003                    CANQ    65536,DU
         1 013471   013503 600000 1                  TZE     s:32473

  32463  1 013472   200014 450100                    STZ     CONTINUING,,AUTO

     2004    32465                                %EVENT( EV=%XSS_SEV_CN);

  32466  1 013473   000146 236000 2                  LDQ     102
         1 013474   200021 756100                    STQ     CONTINUING+5,,AUTO
         1 013475   020166 701000 1                  TSX1    EVNT
         1 013476   020066 702000 1                  TSX2    EVNTERR

     2005    32468    4                           SCTX.STATE = %XSS_SST_02A;

  32468  1 013477   200003 470500                    LDP0    @VBLK,,AUTO
         1 013500   000000 471500                    LDP1    0,,PR0
PL6.E3A0      #001=XSS$MACHINE File=XSS$MACHINE.:XSA1TSI                         WED 10/01/97 12:18 Page:474
         1 013501   005000 236003                    LDQ     2560,DU
         1 013502   100000 552140                    STBQ    0,'40'O,PR1

     2006    32469    4                           END;

     2007    32470                            %ENDPREDDO;

  32473  1 013503   200014 234100                    SZN     CONTINUING,,AUTO
         1 013504   020065 605000 1                  TPL     s:41916

  32473  1 013505   020773 701000 1                  TSX1    OOPS
         1 013506   000000 011000                    NOP     0
         1 013507   020065 710000 1                  TRA     s:41916

     2008    32475    3                   CASE( ELSE);

     2009    32476                            %INVALID;

  32477  1 013510   020773 701000 1                  TSX1    OOPS
         1 013511   000000 011000                    NOP     0

     2010    32479    3                   END;

  32479  1 013512   020065 710000 1                  TRA     s:41916

     2011    32480        %EJECT;
PL6.E3A0      #001=XSS$MACHINE File=XSS$MACHINE.:XSA1TSI                         WED 10/01/97 12:18 Page:475
     2012    32481        /*****************************************************************************
     2013    32482        *
     2014    32483        *       SCONRSP         S-CONNECT Response (positive)
     2015    32484        *
     2016    32485        *****************************************************************************/
     2017    32486    2           CASE( %XSS_SEV_SCONRSP);                        /* TABLE 45 */

     2018    32487    3               IF SCTX.STATE = %XSS_SST_08 THEN DO;

  32487  1 013513   000000 471500                    LDP1    0,,PR0
         1 013514   100000 236100                    LDQ     0,,PR1
         1 013515   777000 376003                    ANQ     -512,DU
         1 013516   015000 116003                    CMPQ    6656,DU
         1 013517   013535 601000 1                  TNZ     s:32501

     2019    32488                        %EVENT( EV=%XSS_SEV_AC);

  32489  1 013520   000150 236000 2                  LDQ     104
         1 013521   200021 756100                    STQ     CONTINUING+5,,AUTO
         1 013522   020166 701000 1                  TSX1    EVNT
         1 013523   020066 702000 1                  TSX2    EVNTERR

     2020    32491                        %ACTION05;

  32492  1 013524   021066 701000 1                  TSX1    ACTION05
         1 013525   020067 702000 1                  TSX2    ACTIONERR

     2021    32494                        %ACTION11;

  32495  1 013526   021364 701000 1                  TSX1    ACTION11
         1 013527   020067 702000 1                  TSX2    ACTIONERR

     2022    32497    3                   SCTX.STATE = %XSS_SST_713;

  32497  1 013530   200003 470500                    LDP0    @VBLK,,AUTO
         1 013531   000000 471500                    LDP1    0,,PR0
         1 013532   035000 236003                    LDQ     14848,DU
PL6.E3A0      #001=XSS$MACHINE File=XSS$MACHINE.:XSA1TSI                         WED 10/01/97 12:18 Page:476
         1 013533   100000 552140                    STBQ    0,'40'O,PR1

     2023    32498    3                   END;

  32498  1 013534   020065 710000 1                  TRA     s:41916

     2024    32499    2               ELSE
     2025    32500                        %INVALID;

  32501  1 013535   020773 701000 1                  TSX1    OOPS
         1 013536   000000 011000                    NOP     0
         1 013537   020065 710000 1                  TRA     s:41916

     2026    32503        %EJECT;
PL6.E3A0      #001=XSS$MACHINE File=XSS$MACHINE.:XSA1TSI                         WED 10/01/97 12:18 Page:477
     2027    32504        /*****************************************************************************
     2028    32505        *
     2029    32506        *       SCONRSN         S-CONNECT Response (negative)
     2030    32507        *
     2031    32508        *****************************************************************************/
     2032    32509    2           CASE( %XSS_SEV_SCONRSN);                        /* TABLE 45 */

     2033    32510                    %IFPREDDO( P="-02");

  32519  1 013540   400000 236003                    LDQ     -131072,DU
         1 013541   200014 756100                    STQ     CONTINUING,,AUTO

  32597  1 013542   200011 236100                    LDQ     ZPINV,,AUTO
         1 013543   100000 316003                    CANQ    32768,DU
         1 013544   013547 600000 1                  TZE     s:32607

  32597  1 013545   022153 701000 1                  TSX1    PRED02
         1 013546   020067 702000 1                  TSX2    ACTIONERR

  32607  1 013547   200006 236100                    LDQ     ZPRED,,AUTO
         1 013550   100000 316003                    CANQ    32768,DU
         1 013551   013565 601000 1                  TNZ     s:32648

  32631  1 013552   200014 450100                    STZ     CONTINUING,,AUTO

     2034    32633                        %EVENT( EV=%XSS_SEV_RF_NR);

  32634  1 013553   000152 236000 2                  LDQ     106
         1 013554   200021 756100                    STQ     CONTINUING+5,,AUTO
         1 013555   020166 701000 1                  TSX1    EVNT
         1 013556   020066 702000 1                  TSX2    EVNTERR

     2035    32636                        %ACTION04;

  32637  1 013557   021051 701000 1                  TSX1    ACTION04
         1 013560   020067 702000 1                  TSX2    ACTIONERR

PL6.E3A0      #001=XSS$MACHINE File=XSS$MACHINE.:XSA1TSI                         WED 10/01/97 12:18 Page:478
     2036    32639    3                   SCTX.STATE = %XSS_SST_16;

  32639  1 013561   200003 470500                    LDP0    @VBLK,,AUTO
         1 013562   000000 471500                    LDP1    0,,PR0
         1 013563   027000 236003                    LDQ     11776,DU
         1 013564   100000 552140                    STBQ    0,'40'O,PR1

     2037    32640    3                   END;

     2038    32641                    %ELSEPREDDO( P="02");

  32648  1 013565   200014 234100                    SZN     CONTINUING,,AUTO
         1 013566   013610 605000 1                  TPL     s:32746

  32707  1 013567   200011 236100                    LDQ     ZPINV,,AUTO
         1 013570   100000 316003                    CANQ    32768,DU
         1 013571   013574 600000 1                  TZE     s:32717

  32707  1 013572   022153 701000 1                  TSX1    PRED02
         1 013573   020067 702000 1                  TSX2    ACTIONERR

  32717  1 013574   200006 236100                    LDQ     ZPRED,,AUTO
         1 013575   100000 316003                    CANQ    32768,DU
         1 013576   013610 600000 1                  TZE     s:32746

  32736  1 013577   200014 450100                    STZ     CONTINUING,,AUTO

     2039    32738                        %EVENT( EV=%XSS_SEV_RF_R);

  32739  1 013600   000154 236000 2                  LDQ     108
         1 013601   200021 756100                    STQ     CONTINUING+5,,AUTO
         1 013602   020166 701000 1                  TSX1    EVNT
         1 013603   020066 702000 1                  TSX2    EVNTERR

     2040    32741    3                   SCTX.STATE = %XSS_SST_01C;

  32741  1 013604   200003 470500                    LDP0    @VBLK,,AUTO
PL6.E3A0      #001=XSS$MACHINE File=XSS$MACHINE.:XSA1TSI                         WED 10/01/97 12:18 Page:479
         1 013605   000000 471500                    LDP1    0,,PR0
         1 013606   004000 236003                    LDQ     2048,DU
         1 013607   100000 552140                    STBQ    0,'40'O,PR1

     2041    32742    3                   END;

     2042    32743                    %ENDPREDDO;

  32746  1 013610   200014 234100                    SZN     CONTINUING,,AUTO
         1 013611   020065 605000 1                  TPL     s:41916

  32746  1 013612   020773 701000 1                  TSX1    OOPS
         1 013613   000000 011000                    NOP     0
         1 013614   020065 710000 1                  TRA     s:41916

     2043    32748        %EJECT;
PL6.E3A0      #001=XSS$MACHINE File=XSS$MACHINE.:XSA1TSI                         WED 10/01/97 12:18 Page:480
     2044    32749        /*****************************************************************************
     2045    32750        *
     2046    32751        *       SCTGREQ         S-CONTROL-GIVE Request
     2047    32752        *
     2048    32753        *****************************************************************************/
     2049    32754    2           CASE( %XSS_SEV_SCTGREQ);                        /* TABLE 51 */

     2050    32755    3               DO CASE( SCTX.STATE);

  32755  1 013615   000000 471500                    LDP1    0,,PR0
         1 013616   100000 236100                    LDQ     0,,PR1
         1 013617   000033 772000                    QRL     27
         1 013620   000035 136007                    SBLQ    29,DL
         1 013621   000001 116007                    CMPQ    1,DL
         1 013622   013624 602006 1                  TNC     s:32755+7,QL
         1 013623   013657 710000 1                  TRA     s:32872
         1 013624   013625 710000 1                  TRA     s:32766

     2051    32756    3                   CASE( %XSS_SST_713);

     2052    32757                            %IFPREDDO( P="55");

  32766  1 013625   400000 236003                    LDQ     -131072,DU
         1 013626   200014 756100                    STQ     CONTINUING,,AUTO

  32826  1 013627   200012 236100                    LDQ     ZPINV+1,,AUTO
         1 013630   200000 316007                    CANQ    65536,DL
         1 013631   013634 600000 1                  TZE     s:32836

  32826  1 013632   024412 701000 1                  TSX1    PRED55
         1 013633   020067 702000 1                  TSX2    ACTIONERR

  32836  1 013634   200007 236100                    LDQ     ZPRED+1,,AUTO
         1 013635   200000 316007                    CANQ    65536,DL
         1 013636   013652 600000 1                  TZE     s:32868

  32855  1 013637   200014 450100                    STZ     CONTINUING,,AUTO
PL6.E3A0      #001=XSS$MACHINE File=XSS$MACHINE.:XSA1TSI                         WED 10/01/97 12:18 Page:481

     2053    32857                                %EVENT( EV=%XSS_SEV_GTC);

  32858  1 013640   000156 236000 2                  LDQ     110
         1 013641   200021 756100                    STQ     CONTINUING+5,,AUTO
         1 013642   020166 701000 1                  TSX1    EVNT
         1 013643   020066 702000 1                  TSX2    EVNTERR

     2054    32860                                %ACTION11;

  32861  1 013644   021364 701000 1                  TSX1    ACTION11
         1 013645   020067 702000 1                  TSX2    ACTIONERR

     2055    32863    4                           SCTX.STATE = %XSS_SST_18;

  32863  1 013646   200003 470500                    LDP0    @VBLK,,AUTO
         1 013647   000000 471500                    LDP1    0,,PR0
         1 013650   030000 236003                    LDQ     12288,DU
         1 013651   100000 552140                    STBQ    0,'40'O,PR1

     2056    32864    4                           END;

     2057    32865                            %ENDPREDDO;

  32868  1 013652   200014 234100                    SZN     CONTINUING,,AUTO
         1 013653   020065 605000 1                  TPL     s:41916

  32868  1 013654   020773 701000 1                  TSX1    OOPS
         1 013655   000000 011000                    NOP     0
         1 013656   020065 710000 1                  TRA     s:41916

     2058    32870    3                   CASE( ELSE);

     2059    32871                            %INVALID;

  32872  1 013657   020773 701000 1                  TSX1    OOPS
         1 013660   000000 011000                    NOP     0
PL6.E3A0      #001=XSS$MACHINE File=XSS$MACHINE.:XSA1TSI                         WED 10/01/97 12:18 Page:482

     2060    32874    3                   END;

  32874  1 013661   020065 710000 1                  TRA     s:41916

     2061    32875        %EJECT;
PL6.E3A0      #001=XSS$MACHINE File=XSS$MACHINE.:XSA1TSI                         WED 10/01/97 12:18 Page:483
     2062    32876        /*****************************************************************************
     2063    32877        *
     2064    32878        *       SDATREQ         S-DATA Request
     2065    32879        *
     2066    32880        *****************************************************************************/
     2067    32881    2           CASE( %XSS_SEV_SDATREQ);                        /* TABLE 46 */

     2068    32882    3               DO CASE( SCTX.STATE);

  32882  1 013662   000000 471500                    LDP1    0,,PR0
         1 013663   100000 236100                    LDQ     0,,PR1
         1 013664   000033 772000                    QRL     27
         1 013665   000016 136007                    SBLQ    14,DL
         1 013666   000020 116007                    CMPQ    16,DL
         1 013667   013671 602006 1                  TNC     s:32882+7,QL
         1 013670   014025 710000 1                  TRA     s:33325
         1 013671   013711 710000 1                  TRA     s:32893
         1 013672   013735 710000 1                  TRA     s:33005
         1 013673   013735 710000 1                  TRA     s:33005
         1 013674   014025 710000 1                  TRA     s:33325
         1 013675   014025 710000 1                  TRA     s:33325
         1 013676   014025 710000 1                  TRA     s:33325
         1 013677   014025 710000 1                  TRA     s:33325
         1 013700   013761 710000 1                  TRA     s:33115
         1 013701   014025 710000 1                  TRA     s:33325
         1 013702   014025 710000 1                  TRA     s:33325
         1 013703   014001 710000 1                  TRA     s:33223
         1 013704   014025 710000 1                  TRA     s:33325
         1 013705   014025 710000 1                  TRA     s:33325
         1 013706   014025 710000 1                  TRA     s:33325
         1 013707   014025 710000 1                  TRA     s:33325
         1 013710   013735 710000 1                  TRA     s:33005

     2069    32883    3                   CASE( %XSS_SST_09);

     2070    32884                            %IFPREDDO( P="04");

PL6.E3A0      #001=XSS$MACHINE File=XSS$MACHINE.:XSA1TSI                         WED 10/01/97 12:18 Page:484
  32893  1 013711   400000 236003                    LDQ     -131072,DU
         1 013712   200014 756100                    STQ     CONTINUING,,AUTO

  32953  1 013713   200011 236100                    LDQ     ZPINV,,AUTO
         1 013714   020000 316003                    CANQ    8192,DU
         1 013715   013720 600000 1                  TZE     s:32963

  32953  1 013716   022210 701000 1                  TSX1    PRED04
         1 013717   020067 702000 1                  TSX2    ACTIONERR

  32963  1 013720   200006 236100                    LDQ     ZPRED,,AUTO
         1 013721   020000 316003                    CANQ    8192,DU
         1 013722   013730 600000 1                  TZE     s:32991

  32982  1 013723   200014 450100                    STZ     CONTINUING,,AUTO

     2071    32984                                %EVENT( EV=%XSS_SEV_DT);

  32985  1 013724   000160 236000 2                  LDQ     112
         1 013725   200021 756100                    STQ     CONTINUING+5,,AUTO
         1 013726   020166 701000 1                  TSX1    EVNT
         1 013727   020066 702000 1                  TSX2    EVNTERR

     2072    32987    4                           END;

     2073    32988                            %ENDPREDDO;

  32991  1 013730   200014 234100                    SZN     CONTINUING,,AUTO
         1 013731   020065 605000 1                  TPL     s:41916

  32991  1 013732   020773 701000 1                  TSX1    OOPS
         1 013733   000000 011000                    NOP     0
         1 013734   020065 710000 1                  TRA     s:41916

     2074    32993    3                   CASE( %XSS_SST_10A,

     2075    32994    3                         %XSS_SST_10B,
PL6.E3A0      #001=XSS$MACHINE File=XSS$MACHINE.:XSA1TSI                         WED 10/01/97 12:18 Page:485
     2076    32995    3                         %XSS_SST_713);
     2077    32996                            %IFPREDDO( P="03");

  33005  1 013735   400000 236003                    LDQ     -131072,DU
         1 013736   200014 756100                    STQ     CONTINUING,,AUTO

  33065  1 013737   200011 236100                    LDQ     ZPINV,,AUTO
         1 013740   040000 316003                    CANQ    16384,DU
         1 013741   013744 600000 1                  TZE     s:33075

  33065  1 013742   022175 701000 1                  TSX1    PRED03
         1 013743   020067 702000 1                  TSX2    ACTIONERR

  33075  1 013744   200006 236100                    LDQ     ZPRED,,AUTO
         1 013745   040000 316003                    CANQ    16384,DU
         1 013746   013754 600000 1                  TZE     s:33103

  33094  1 013747   200014 450100                    STZ     CONTINUING,,AUTO

     2078    33096                                %EVENT( EV=%XSS_SEV_DT);

  33097  1 013750   000160 236000 2                  LDQ     112
         1 013751   200021 756100                    STQ     CONTINUING+5,,AUTO
         1 013752   020166 701000 1                  TSX1    EVNT
         1 013753   020066 702000 1                  TSX2    EVNTERR

     2079    33099    4                           END;

     2080    33100                            %ENDPREDDO;

  33103  1 013754   200014 234100                    SZN     CONTINUING,,AUTO
         1 013755   020065 605000 1                  TPL     s:41916

  33103  1 013756   020773 701000 1                  TSX1    OOPS
         1 013757   000000 011000                    NOP     0
         1 013760   020065 710000 1                  TRA     s:41916

PL6.E3A0      #001=XSS$MACHINE File=XSS$MACHINE.:XSA1TSI                         WED 10/01/97 12:18 Page:486
     2081    33105    3                   CASE( %XSS_SST_15B);

     2082    33106                            %IFPREDDO( P="03");

  33115  1 013761   400000 236003                    LDQ     -131072,DU
         1 013762   200014 756100                    STQ     CONTINUING,,AUTO

  33175  1 013763   200011 236100                    LDQ     ZPINV,,AUTO
         1 013764   040000 316003                    CANQ    16384,DU
         1 013765   013770 600000 1                  TZE     s:33185

  33175  1 013766   022175 701000 1                  TSX1    PRED03
         1 013767   020067 702000 1                  TSX2    ACTIONERR

  33185  1 013770   200006 236100                    LDQ     ZPRED,,AUTO
         1 013771   040000 316003                    CANQ    16384,DU
         1 013772   013774 600000 1                  TZE     s:33211

  33204  1 013773   200014 450100                    STZ     CONTINUING,,AUTO

     2083    33206    4                           ;  /* don't do anything */
     2084    33207    4                           END;

     2085    33208                            %ENDPREDDO;

  33211  1 013774   200014 234100                    SZN     CONTINUING,,AUTO
         1 013775   020065 605000 1                  TPL     s:41916

  33211  1 013776   020773 701000 1                  TSX1    OOPS
         1 013777   000000 011000                    NOP     0
         1 014000   020065 710000 1                  TRA     s:41916

     2086    33213    3                   CASE( %XSS_SST_18);

     2087    33214                            %IFPREDDO( P="70");

  33223  1 014001   400000 236003                    LDQ     -131072,DU
PL6.E3A0      #001=XSS$MACHINE File=XSS$MACHINE.:XSA1TSI                         WED 10/01/97 12:18 Page:487
         1 014002   200014 756100                    STQ     CONTINUING,,AUTO

  33283  1 014003   200012 236100                    LDQ     ZPINV+1,,AUTO
         1 014004   000002 316007                    CANQ    2,DL
         1 014005   014010 600000 1                  TZE     s:33293

  33283  1 014006   025140 701000 1                  TSX1    PRED70
         1 014007   020067 702000 1                  TSX2    ACTIONERR

  33293  1 014010   200007 236100                    LDQ     ZPRED+1,,AUTO
         1 014011   000002 316007                    CANQ    2,DL
         1 014012   014020 600000 1                  TZE     s:33321

  33312  1 014013   200014 450100                    STZ     CONTINUING,,AUTO

     2088    33314                                %EVENT( EV=%XSS_SEV_DT);

  33315  1 014014   000160 236000 2                  LDQ     112
         1 014015   200021 756100                    STQ     CONTINUING+5,,AUTO
         1 014016   020166 701000 1                  TSX1    EVNT
         1 014017   020066 702000 1                  TSX2    EVNTERR

     2089    33317    4                           END;

     2090    33318                            %ENDPREDDO;

  33321  1 014020   200014 234100                    SZN     CONTINUING,,AUTO
         1 014021   020065 605000 1                  TPL     s:41916

  33321  1 014022   020773 701000 1                  TSX1    OOPS
         1 014023   000000 011000                    NOP     0
         1 014024   020065 710000 1                  TRA     s:41916

     2091    33323    3                   CASE( ELSE);

     2092    33324                            %INVALID;

PL6.E3A0      #001=XSS$MACHINE File=XSS$MACHINE.:XSA1TSI                         WED 10/01/97 12:18 Page:488
  33325  1 014025   020773 701000 1                  TSX1    OOPS
         1 014026   000000 011000                    NOP     0

     2093    33327    3                   END;

  33327  1 014027   020065 710000 1                  TRA     s:41916

     2094    33328        %EJECT;
PL6.E3A0      #001=XSS$MACHINE File=XSS$MACHINE.:XSA1TSI                         WED 10/01/97 12:18 Page:489
     2095    33329        /*****************************************************************************
     2096    33330        *
     2097    33331        *       SEXPREQ         S-EXPEDITED-DATA Request
     2098    33332        *
     2099    33333        *****************************************************************************/
     2100    33334    2           CASE( %XSS_SEV_SEXPREQ);                        /* TABLE 46 */

     2101    33335    3               DO CASE( SCTX.STATE);

  33335  1 014030   000000 471500                    LDP1    0,,PR0
         1 014031   100000 236100                    LDQ     0,,PR1
         1 014032   000033 772000                    QRL     27
         1 014033   000016 136007                    SBLQ    14,DL
         1 014034   000020 116007                    CMPQ    16,DL
         1 014035   014037 602006 1                  TNC     s:33335+7,QL
         1 014036   014143 710000 1                  TRA     s:33669
         1 014037   014057 710000 1                  TRA     s:33346
         1 014040   014103 710000 1                  TRA     s:33459
         1 014041   014103 710000 1                  TRA     s:33459
         1 014042   014143 710000 1                  TRA     s:33669
         1 014043   014143 710000 1                  TRA     s:33669
         1 014044   014143 710000 1                  TRA     s:33669
         1 014045   014143 710000 1                  TRA     s:33669
         1 014046   014125 710000 1                  TRA     s:33569
         1 014047   014143 710000 1                  TRA     s:33669
         1 014050   014143 710000 1                  TRA     s:33669
         1 014051   014103 710000 1                  TRA     s:33459
         1 014052   014143 710000 1                  TRA     s:33669
         1 014053   014143 710000 1                  TRA     s:33669
         1 014054   014143 710000 1                  TRA     s:33669
         1 014055   014143 710000 1                  TRA     s:33669
         1 014056   014103 710000 1                  TRA     s:33459

     2102    33336    3                   CASE( %XSS_SST_09);

     2103    33337                            %IFPREDDO( P="09");

PL6.E3A0      #001=XSS$MACHINE File=XSS$MACHINE.:XSA1TSI                         WED 10/01/97 12:18 Page:490
  33346  1 014057   400000 236003                    LDQ     -131072,DU
         1 014060   200014 756100                    STQ     CONTINUING,,AUTO

  33406  1 014061   200011 236100                    LDQ     ZPINV,,AUTO
         1 014062   000400 316003                    CANQ    256,DU
         1 014063   014066 600000 1                  TZE     s:33416

  33406  1 014064   022317 701000 1                  TSX1    PRED09
         1 014065   020067 702000 1                  TSX2    ACTIONERR

  33416  1 014066   200006 236100                    LDQ     ZPRED,,AUTO
         1 014067   000400 316003                    CANQ    256,DU
         1 014070   014076 600000 1                  TZE     s:33444

  33435  1 014071   200014 450100                    STZ     CONTINUING,,AUTO

     2104    33437                                %EVENT( EV=%XSS_SEV_EX);

  33438  1 014072   000162 236000 2                  LDQ     114
         1 014073   200021 756100                    STQ     CONTINUING+5,,AUTO
         1 014074   020166 701000 1                  TSX1    EVNT
         1 014075   020066 702000 1                  TSX2    EVNTERR

     2105    33440    4                           END;

     2106    33441                            %ENDPREDDO;

  33444  1 014076   200014 234100                    SZN     CONTINUING,,AUTO
         1 014077   020065 605000 1                  TPL     s:41916

  33444  1 014100   020773 701000 1                  TSX1    OOPS
         1 014101   000000 011000                    NOP     0
         1 014102   020065 710000 1                  TRA     s:41916

     2107    33446    3                   CASE( %XSS_SST_10A,

     2108    33447    3                         %XSS_SST_10B,
PL6.E3A0      #001=XSS$MACHINE File=XSS$MACHINE.:XSA1TSI                         WED 10/01/97 12:18 Page:491
     2109    33448    3                         %XSS_SST_18,
     2110    33449    3                         %XSS_SST_713);
     2111    33450                            %IFPREDDO( P="08");

  33459  1 014103   400000 236003                    LDQ     -131072,DU
         1 014104   200014 756100                    STQ     CONTINUING,,AUTO

  33519  1 014105   200011 430100                    FSZN    ZPINV,,AUTO
         1 014106   014111 605000 1                  TPL     s:33529

  33519  1 014107   022304 701000 1                  TSX1    PRED08
         1 014110   020067 702000 1                  TSX2    ACTIONERR

  33529  1 014111   200006 430100                    FSZN    ZPRED,,AUTO
         1 014112   014120 605000 1                  TPL     s:33557

  33548  1 014113   200014 450100                    STZ     CONTINUING,,AUTO

     2112    33550                                %EVENT( EV=%XSS_SEV_EX);

  33551  1 014114   000162 236000 2                  LDQ     114
         1 014115   200021 756100                    STQ     CONTINUING+5,,AUTO
         1 014116   020166 701000 1                  TSX1    EVNT
         1 014117   020066 702000 1                  TSX2    EVNTERR

     2113    33553    4                           END;

     2114    33554                            %ENDPREDDO;

  33557  1 014120   200014 234100                    SZN     CONTINUING,,AUTO
         1 014121   020065 605000 1                  TPL     s:41916

  33557  1 014122   020773 701000 1                  TSX1    OOPS
         1 014123   000000 011000                    NOP     0
         1 014124   020065 710000 1                  TRA     s:41916

     2115    33559    3                   CASE( %XSS_SST_15B);
PL6.E3A0      #001=XSS$MACHINE File=XSS$MACHINE.:XSA1TSI                         WED 10/01/97 12:18 Page:492

     2116    33560                            %IFPREDDO( P="08");

  33569  1 014125   400000 236003                    LDQ     -131072,DU
         1 014126   200014 756100                    STQ     CONTINUING,,AUTO

  33629  1 014127   200011 430100                    FSZN    ZPINV,,AUTO
         1 014130   014133 605000 1                  TPL     s:33639

  33629  1 014131   022304 701000 1                  TSX1    PRED08
         1 014132   020067 702000 1                  TSX2    ACTIONERR

  33639  1 014133   200006 430100                    FSZN    ZPRED,,AUTO
         1 014134   014136 605000 1                  TPL     s:33665

  33658  1 014135   200014 450100                    STZ     CONTINUING,,AUTO

     2117    33660    4                           ;  /* don't do anything */
     2118    33661    4                           END;

     2119    33662                            %ENDPREDDO;

  33665  1 014136   200014 234100                    SZN     CONTINUING,,AUTO
         1 014137   020065 605000 1                  TPL     s:41916

  33665  1 014140   020773 701000 1                  TSX1    OOPS
         1 014141   000000 011000                    NOP     0
         1 014142   020065 710000 1                  TRA     s:41916

     2120    33667    3                   CASE( ELSE);

     2121    33668                            %INVALID;

  33669  1 014143   020773 701000 1                  TSX1    OOPS
         1 014144   000000 011000                    NOP     0

     2122    33671    3                   END;
PL6.E3A0      #001=XSS$MACHINE File=XSS$MACHINE.:XSA1TSI                         WED 10/01/97 12:18 Page:493

  33671  1 014145   020065 710000 1                  TRA     s:41916

     2123    33672        %EJECT;
PL6.E3A0      #001=XSS$MACHINE File=XSS$MACHINE.:XSA1TSI                         WED 10/01/97 12:18 Page:494
     2124    33673        /*****************************************************************************
     2125    33674        *
     2126    33675        *       SRELREQ         S-RELEASE Request
     2127    33676        *
     2128    33677        *****************************************************************************/
     2129    33678    2           CASE( %XSS_SEV_SRELREQ);                        /* TABLE 52 */

     2130    33679    3               DO CASE( SCTX.STATE);

  33679  1 014146   000000 471500                    LDP1    0,,PR0
         1 014147   100000 236100                    LDQ     0,,PR1
         1 014150   000033 772000                    QRL     27
         1 014151   000006 136007                    SBLQ    6,DL
         1 014152   000030 116007                    CMPQ    24,DL
         1 014153   014155 602006 1                  TNC     s:33679+7,QL
         1 014154   014360 710000 1                  TRA     s:34343
         1 014155   014205 710000 1                  TRA     s:33691
         1 014156   014360 710000 1                  TRA     s:34343
         1 014157   014360 710000 1                  TRA     s:34343
         1 014160   014360 710000 1                  TRA     s:34343
         1 014161   014360 710000 1                  TRA     s:34343
         1 014162   014360 710000 1                  TRA     s:34343
         1 014163   014360 710000 1                  TRA     s:34343
         1 014164   014360 710000 1                  TRA     s:34343
         1 014165   014362 710000 1                  TRA     s:34345
         1 014166   014360 710000 1                  TRA     s:34343
         1 014167   014360 710000 1                  TRA     s:34343
         1 014170   014360 710000 1                  TRA     s:34343
         1 014171   014360 710000 1                  TRA     s:34343
         1 014172   014360 710000 1                  TRA     s:34343
         1 014173   014360 710000 1                  TRA     s:34343
         1 014174   014241 710000 1                  TRA     s:33831
         1 014175   014360 710000 1                  TRA     s:34343
         1 014176   014360 710000 1                  TRA     s:34343
         1 014177   014360 710000 1                  TRA     s:34343
         1 014200   014360 710000 1                  TRA     s:34343
         1 014201   014360 710000 1                  TRA     s:34343
PL6.E3A0      #001=XSS$MACHINE File=XSS$MACHINE.:XSA1TSI                         WED 10/01/97 12:18 Page:495
         1 014202   014360 710000 1                  TRA     s:34343
         1 014203   014360 710000 1                  TRA     s:34343
         1 014204   014261 710000 1                  TRA     s:33939

     2131    33680    3                   CASE( %XSS_SST_09);

     2132    33681    3                   CASE( %XSS_SST_03);

     2133    33682                            %IFPREDDO( P="-65");

  33691  1 014205   400000 236003                    LDQ     -131072,DU
         1 014206   200014 756100                    STQ     CONTINUING,,AUTO

  33769  1 014207   200012 236100                    LDQ     ZPINV+1,,AUTO
         1 014210   000100 316007                    CANQ    64,DL
         1 014211   014214 600000 1                  TZE     s:33779

  33769  1 014212   025027 701000 1                  TSX1    PRED65
         1 014213   020067 702000 1                  TSX2    ACTIONERR

  33779  1 014214   200007 236100                    LDQ     ZPRED+1,,AUTO
         1 014215   000100 316007                    CANQ    64,DL
         1 014216   014234 601000 1                  TNZ     s:33819

  33803  1 014217   200014 450100                    STZ     CONTINUING,,AUTO

     2134    33805                                %EVENT( EV=%XSS_SEV_FN_NR);

  33806  1 014220   000164 236000 2                  LDQ     116
         1 014221   200021 756100                    STQ     CONTINUING+5,,AUTO
         1 014222   020166 701000 1                  TSX1    EVNT
         1 014223   020066 702000 1                  TSX2    EVNTERR

     2135    33808                                %ACTION08;

  33809  1 014224   021314 701000 1                  TSX1    ACTION08
         1 014225   020067 702000 1                  TSX2    ACTIONERR
PL6.E3A0      #001=XSS$MACHINE File=XSS$MACHINE.:XSA1TSI                         WED 10/01/97 12:18 Page:496

     2136    33811                                %ACTION18;

  33812  1 014226   021662 701000 1                  TSX1    ACTION18
         1 014227   020067 702000 1                  TSX2    ACTIONERR

     2137    33814    4                           SCTX.STATE = %XSS_SST_09;

  33814  1 014230   200003 470500                    LDP0    @VBLK,,AUTO
         1 014231   000000 471500                    LDP1    0,,PR0
         1 014232   016000 236003                    LDQ     7168,DU
         1 014233   100000 552140                    STBQ    0,'40'O,PR1

     2138    33815    4                           END;

     2139    33816                            %ENDPREDDO;

  33819  1 014234   200014 234100                    SZN     CONTINUING,,AUTO
         1 014235   020065 605000 1                  TPL     s:41916

  33819  1 014236   020773 701000 1                  TSX1    OOPS
         1 014237   000000 011000                    NOP     0
         1 014240   020065 710000 1                  TRA     s:41916

     2140    33821    3                   CASE( %XSS_SST_15B);

     2141    33822                            %IFPREDDO( P="63");

  33831  1 014241   400000 236003                    LDQ     -131072,DU
         1 014242   200014 756100                    STQ     CONTINUING,,AUTO

  33891  1 014243   200012 236100                    LDQ     ZPINV+1,,AUTO
         1 014244   000400 316007                    CANQ    256,DL
         1 014245   014250 600000 1                  TZE     s:33901

  33891  1 014246   024747 701000 1                  TSX1    PRED63
         1 014247   020067 702000 1                  TSX2    ACTIONERR
PL6.E3A0      #001=XSS$MACHINE File=XSS$MACHINE.:XSA1TSI                         WED 10/01/97 12:18 Page:497

  33901  1 014250   200007 236100                    LDQ     ZPRED+1,,AUTO
         1 014251   000400 316007                    CANQ    256,DL
         1 014252   014254 600000 1                  TZE     s:33927

  33920  1 014253   200014 450100                    STZ     CONTINUING,,AUTO

     2142    33922    4                           ;  /* don't do anything */
     2143    33923    4                           END;

     2144    33924                            %ENDPREDDO;

  33927  1 014254   200014 234100                    SZN     CONTINUING,,AUTO
         1 014255   020065 605000 1                  TPL     s:41916

  33927  1 014256   020773 701000 1                  TSX1    OOPS
         1 014257   000000 011000                    NOP     0
         1 014260   020065 710000 1                  TRA     s:41916

     2145    33929    3                   CASE( %XSS_SST_713);

     2146    33930                            %IFPREDDO( P="63&-64");

  33939  1 014261   400000 236003                    LDQ     -131072,DU
         1 014262   200014 756100                    STQ     CONTINUING,,AUTO

  33985  1 014263   200012 236100                    LDQ     ZPINV+1,,AUTO
         1 014264   000400 316007                    CANQ    256,DL
         1 014265   014270 600000 1                  TZE     s:33994

  33985  1 014266   024747 701000 1                  TSX1    PRED63
         1 014267   020067 702000 1                  TSX2    ACTIONERR

  33994  1 014270   200007 236100                    LDQ     ZPRED+1,,AUTO
         1 014271   000400 316007                    CANQ    256,DL
         1 014272   014316 600000 1                  TZE     s:34153

PL6.E3A0      #001=XSS$MACHINE File=XSS$MACHINE.:XSA1TSI                         WED 10/01/97 12:18 Page:498
  34087  1 014273   200012 236100                    LDQ     ZPINV+1,,AUTO
         1 014274   000200 316007                    CANQ    128,DL
         1 014275   014300 600000 1                  TZE     s:34097

  34087  1 014276   024777 701000 1                  TSX1    PRED64
         1 014277   020067 702000 1                  TSX2    ACTIONERR

  34097  1 014300   200007 236100                    LDQ     ZPRED+1,,AUTO
         1 014301   000200 316007                    CANQ    128,DL
         1 014302   014316 601000 1                  TNZ     s:34153

  34136  1 014303   200014 450100                    STZ     CONTINUING,,AUTO

     2147    34138                                %EVENT( EV=%XSS_SEV_FN_NR);

  34139  1 014304   000164 236000 2                  LDQ     116
         1 014305   200021 756100                    STQ     CONTINUING+5,,AUTO
         1 014306   020166 701000 1                  TSX1    EVNT
         1 014307   020066 702000 1                  TSX2    EVNTERR

     2148    34141                                %ACTION08;

  34142  1 014310   021314 701000 1                  TSX1    ACTION08
         1 014311   020067 702000 1                  TSX2    ACTIONERR

     2149    34144    4                           SCTX.STATE = %XSS_SST_03;

  34144  1 014312   200003 470500                    LDP0    @VBLK,,AUTO
         1 014313   000000 471500                    LDP1    0,,PR0
         1 014314   006000 236003                    LDQ     3072,DU
         1 014315   100000 552140                    STBQ    0,'40'O,PR1

     2150    34145    4                           END;

     2151    34146                            %ELSEPREDDO( P="63&64");

  34153  1 014316   200014 234100                    SZN     CONTINUING,,AUTO
PL6.E3A0      #001=XSS$MACHINE File=XSS$MACHINE.:XSA1TSI                         WED 10/01/97 12:18 Page:499
         1 014317   014353 605000 1                  TPL     s:34339

  34198  1 014320   200012 236100                    LDQ     ZPINV+1,,AUTO
         1 014321   000400 316007                    CANQ    256,DL
         1 014322   014325 600000 1                  TZE     s:34207

  34198  1 014323   024747 701000 1                  TSX1    PRED63
         1 014324   020067 702000 1                  TSX2    ACTIONERR

  34207  1 014325   200007 236100                    LDQ     ZPRED+1,,AUTO
         1 014326   000400 316007                    CANQ    256,DL
         1 014327   014353 600000 1                  TZE     s:34339

  34282  1 014330   200012 236100                    LDQ     ZPINV+1,,AUTO
         1 014331   000200 316007                    CANQ    128,DL
         1 014332   014335 600000 1                  TZE     s:34292

  34282  1 014333   024777 701000 1                  TSX1    PRED64
         1 014334   020067 702000 1                  TSX2    ACTIONERR

  34292  1 014335   200007 236100                    LDQ     ZPRED+1,,AUTO
         1 014336   000200 316007                    CANQ    128,DL
         1 014337   014353 600000 1                  TZE     s:34339

  34326  1 014340   200014 450100                    STZ     CONTINUING,,AUTO

     2152    34328                                %EVENT( EV=%XSS_SEV_FN_R);

  34329  1 014341   000166 236000 2                  LDQ     118
         1 014342   200021 756100                    STQ     CONTINUING+5,,AUTO
         1 014343   020166 701000 1                  TSX1    EVNT
         1 014344   020066 702000 1                  TSX2    EVNTERR

     2153    34331                                %ACTION07;

  34332  1 014345   021306 701000 1                  TSX1    ACTION07
         1 014346   020067 702000 1                  TSX2    ACTIONERR
PL6.E3A0      #001=XSS$MACHINE File=XSS$MACHINE.:XSA1TSI                         WED 10/01/97 12:18 Page:500

     2154    34334    4                           SCTX.STATE = %XSS_SST_03;

  34334  1 014347   200003 470500                    LDP0    @VBLK,,AUTO
         1 014350   000000 471500                    LDP1    0,,PR0
         1 014351   006000 236003                    LDQ     3072,DU
         1 014352   100000 552140                    STBQ    0,'40'O,PR1

     2155    34335    4                           END;

     2156    34336                            %ENDPREDDO;

  34339  1 014353   200014 234100                    SZN     CONTINUING,,AUTO
         1 014354   020065 605000 1                  TPL     s:41916

  34339  1 014355   020773 701000 1                  TSX1    OOPS
         1 014356   000000 011000                    NOP     0
         1 014357   020065 710000 1                  TRA     s:41916

     2157    34341    3                   CASE( ELSE);

     2158    34342                            %INVALID;

  34343  1 014360   020773 701000 1                  TSX1    OOPS
         1 014361   000000 011000                    NOP     0

     2159    34345    3                   END;

  34345  1 014362   020065 710000 1                  TRA     s:41916

     2160    34346        %EJECT;
PL6.E3A0      #001=XSS$MACHINE File=XSS$MACHINE.:XSA1TSI                         WED 10/01/97 12:18 Page:501
     2161    34347        /*****************************************************************************
     2162    34348        *
     2163    34349        *       SRELRSP         S-RELEASE Response (positive)
     2164    34350        *
     2165    34351        *****************************************************************************/
     2166    34352    2           CASE( %XSS_SEV_SRELRSP);                        /* TABLE 52 */

     2167    34353    3               IF SCTX.STATE = %XSS_SST_09 THEN DO;

  34353  1 014363   000000 471500                    LDP1    0,,PR0
         1 014364   100000 236100                    LDQ     0,,PR1
         1 014365   777000 376003                    ANQ     -512,DU
         1 014366   016000 116003                    CMPQ    7168,DU
         1 014367   014510 601000 1                  TNZ     s:34867

     2168    34354                        %IFPREDDO( P="-66&75");

  34363  1 014370   400000 236003                    LDQ     -131072,DU
         1 014371   200014 756100                    STQ     CONTINUING,,AUTO

  34427  1 014372   200012 236100                    LDQ     ZPINV+1,,AUTO
         1 014373   000040 316007                    CANQ    32,DL
         1 014374   014377 600000 1                  TZE     s:34436

  34427  1 014375   025047 701000 1                  TSX1    PRED66
         1 014376   020067 702000 1                  TSX2    ACTIONERR

  34436  1 014377   200007 236100                    LDQ     ZPRED+1,,AUTO
         1 014400   000040 316007                    CANQ    32,DL
         1 014401   014425 601000 1                  TNZ     s:34577

  34511  1 014402   200013 236100                    LDQ     ZPINV+2,,AUTO
         1 014403   040000 316003                    CANQ    16384,DU
         1 014404   014407 600000 1                  TZE     s:34521

  34511  1 014405   025302 701000 1                  TSX1    PRED75
         1 014406   020067 702000 1                  TSX2    ACTIONERR
PL6.E3A0      #001=XSS$MACHINE File=XSS$MACHINE.:XSA1TSI                         WED 10/01/97 12:18 Page:502

  34521  1 014407   200010 236100                    LDQ     ZPRED+2,,AUTO
         1 014410   040000 316003                    CANQ    16384,DU
         1 014411   014425 600000 1                  TZE     s:34577

  34560  1 014412   200014 450100                    STZ     CONTINUING,,AUTO

     2169    34562                            %EVENT( EV=%XSS_SEV_DN);

  34563  1 014413   000170 236000 2                  LDQ     120
         1 014414   200021 756100                    STQ     CONTINUING+5,,AUTO
         1 014415   020166 701000 1                  TSX1    EVNT
         1 014416   020066 702000 1                  TSX2    EVNTERR

     2170    34565                            %ACTION04;

  34566  1 014417   021051 701000 1                  TSX1    ACTION04
         1 014420   020067 702000 1                  TSX2    ACTIONERR

     2171    34568    4                       SCTX.STATE = %XSS_SST_16;

  34568  1 014421   200003 470500                    LDP0    @VBLK,,AUTO
         1 014422   000000 471500                    LDP1    0,,PR0
         1 014423   027000 236003                    LDQ     11776,DU
         1 014424   100000 552140                    STBQ    0,'40'O,PR1

     2172    34569    4                       END;

     2173    34570                        %ELSEPREDDO( P="66");

  34577  1 014425   200014 234100                    SZN     CONTINUING,,AUTO
         1 014426   014450 605000 1                  TPL     s:34679

  34636  1 014427   200012 236100                    LDQ     ZPINV+1,,AUTO
         1 014430   000040 316007                    CANQ    32,DL
         1 014431   014434 600000 1                  TZE     s:34646

PL6.E3A0      #001=XSS$MACHINE File=XSS$MACHINE.:XSA1TSI                         WED 10/01/97 12:18 Page:503
  34636  1 014432   025047 701000 1                  TSX1    PRED66
         1 014433   020067 702000 1                  TSX2    ACTIONERR

  34646  1 014434   200007 236100                    LDQ     ZPRED+1,,AUTO
         1 014435   000040 316007                    CANQ    32,DL
         1 014436   014450 600000 1                  TZE     s:34679

  34665  1 014437   200014 450100                    STZ     CONTINUING,,AUTO

     2174    34667                            %EVENT( EV=%XSS_SEV_DN);

  34668  1 014440   000170 236000 2                  LDQ     120
         1 014441   200021 756100                    STQ     CONTINUING+5,,AUTO
         1 014442   020166 701000 1                  TSX1    EVNT
         1 014443   020066 702000 1                  TSX2    EVNTERR

     2175    34670    4                       SCTX.STATE = %XSS_SST_01C;

  34670  1 014444   200003 470500                    LDP0    @VBLK,,AUTO
         1 014445   000000 471500                    LDP1    0,,PR0
         1 014446   004000 236003                    LDQ     2048,DU
         1 014447   100000 552140                    STBQ    0,'40'O,PR1

     2176    34671    4                       END;

     2177    34672                        %ELSEPREDDO( P="69&01");

  34679  1 014450   200014 234100                    SZN     CONTINUING,,AUTO
         1 014451   014503 605000 1                  TPL     s:34862

  34724  1 014452   200012 236100                    LDQ     ZPINV+1,,AUTO
         1 014453   000004 316007                    CANQ    4,DL
         1 014454   014457 600000 1                  TZE     s:34733

  34724  1 014455   025125 701000 1                  TSX1    PRED69
         1 014456   020067 702000 1                  TSX2    ACTIONERR

PL6.E3A0      #001=XSS$MACHINE File=XSS$MACHINE.:XSA1TSI                         WED 10/01/97 12:18 Page:504
  34733  1 014457   200007 236100                    LDQ     ZPRED+1,,AUTO
         1 014460   000004 316007                    CANQ    4,DL
         1 014461   014503 600000 1                  TZE     s:34862

  34808  1 014462   200011 236100                    LDQ     ZPINV,,AUTO
         1 014463   200000 316003                    CANQ    65536,DU
         1 014464   014467 600000 1                  TZE     s:34818

  34808  1 014465   022135 701000 1                  TSX1    PRED01
         1 014466   020067 702000 1                  TSX2    ACTIONERR

  34818  1 014467   200006 236100                    LDQ     ZPRED,,AUTO
         1 014470   200000 316003                    CANQ    65536,DU
         1 014471   014503 600000 1                  TZE     s:34862

  34852  1 014472   200014 450100                    STZ     CONTINUING,,AUTO

     2178    34854                            %EVENT( EV=%XSS_SEV_DN);

  34855  1 014473   000170 236000 2                  LDQ     120
         1 014474   200021 756100                    STQ     CONTINUING+5,,AUTO
         1 014475   020166 701000 1                  TSX1    EVNT
         1 014476   020066 702000 1                  TSX2    EVNTERR

     2179    34857    4                       SCTX.STATE = %XSS_SST_03;

  34857  1 014477   200003 470500                    LDP0    @VBLK,,AUTO
         1 014500   000000 471500                    LDP1    0,,PR0
         1 014501   006000 236003                    LDQ     3072,DU
         1 014502   100000 552140                    STBQ    0,'40'O,PR1

     2180    34858    4                       END;

     2181    34859                        %ENDPREDDO;

  34862  1 014503   200014 234100                    SZN     CONTINUING,,AUTO
         1 014504   020065 605000 1                  TPL     s:41916
PL6.E3A0      #001=XSS$MACHINE File=XSS$MACHINE.:XSA1TSI                         WED 10/01/97 12:18 Page:505

  34862  1 014505   020773 701000 1                  TSX1    OOPS
         1 014506   000000 011000                    NOP     0

     2182    34864    3                   END;

  34864  1 014507   020065 710000 1                  TRA     s:41916

     2183    34865    2               ELSE
     2184    34866                        %INVALID;

  34867  1 014510   020773 701000 1                  TSX1    OOPS
         1 014511   000000 011000                    NOP     0
         1 014512   020065 710000 1                  TRA     s:41916

     2185    34869        %EJECT;
PL6.E3A0      #001=XSS$MACHINE File=XSS$MACHINE.:XSA1TSI                         WED 10/01/97 12:18 Page:506
     2186    34870        /*****************************************************************************
     2187    34871        *
     2188    34872        *       SRELRSN         S-RELEASE Response (negative)
     2189    34873        *
     2190    34874        *****************************************************************************/
     2191    34875    2           CASE( %XSS_SEV_SRELRSN);                        /* TABLE 52 */

     2192    34876    3               IF SCTX.STATE = %XSS_SST_09 THEN DO;

  34876  1 014513   000000 471500                    LDP1    0,,PR0
         1 014514   100000 236100                    LDQ     0,,PR1
         1 014515   777000 376003                    ANQ     -512,DU
         1 014516   016000 116003                    CMPQ    7168,DU
         1 014517   014550 601000 1                  TNZ     s:34990

     2193    34877                        %IFPREDDO( P="67");

  34886  1 014520   400000 236003                    LDQ     -131072,DU
         1 014521   200014 756100                    STQ     CONTINUING,,AUTO

  34946  1 014522   200012 236100                    LDQ     ZPINV+1,,AUTO
         1 014523   000020 316007                    CANQ    16,DL
         1 014524   014527 600000 1                  TZE     s:34956

  34946  1 014525   025062 701000 1                  TSX1    PRED67
         1 014526   020067 702000 1                  TSX2    ACTIONERR

  34956  1 014527   200007 236100                    LDQ     ZPRED+1,,AUTO
         1 014530   000020 316007                    CANQ    16,DL
         1 014531   014543 600000 1                  TZE     s:34985

  34975  1 014532   200014 450100                    STZ     CONTINUING,,AUTO

     2194    34977                            %EVENT( EV=%XSS_SEV_NF);

  34978  1 014533   000172 236000 2                  LDQ     122
         1 014534   200021 756100                    STQ     CONTINUING+5,,AUTO
PL6.E3A0      #001=XSS$MACHINE File=XSS$MACHINE.:XSA1TSI                         WED 10/01/97 12:18 Page:507
         1 014535   020166 701000 1                  TSX1    EVNT
         1 014536   020066 702000 1                  TSX2    EVNTERR

     2195    34980    4                       SCTX.STATE = %XSS_SST_713;

  34980  1 014537   200003 470500                    LDP0    @VBLK,,AUTO
         1 014540   000000 471500                    LDP1    0,,PR0
         1 014541   035000 236003                    LDQ     14848,DU
         1 014542   100000 552140                    STBQ    0,'40'O,PR1

     2196    34981    4                       END;

     2197    34982                        %ENDPREDDO;

  34985  1 014543   200014 234100                    SZN     CONTINUING,,AUTO
         1 014544   020065 605000 1                  TPL     s:41916

  34985  1 014545   020773 701000 1                  TSX1    OOPS
         1 014546   000000 011000                    NOP     0

     2198    34987    3                   END;

  34987  1 014547   020065 710000 1                  TRA     s:41916

     2199    34988    2               ELSE
     2200    34989                        %INVALID;

  34990  1 014550   020773 701000 1                  TSX1    OOPS
         1 014551   000000 011000                    NOP     0
         1 014552   020065 710000 1                  TRA     s:41916

     2201    34992        %EJECT;
PL6.E3A0      #001=XSS$MACHINE File=XSS$MACHINE.:XSA1TSI                         WED 10/01/97 12:18 Page:508
     2202    34993        /*****************************************************************************
     2203    34994        *
     2204    34995        *       SRSAREQ         S-RESYNCHRONIZE (ABANDON) Request
     2205    34996        *
     2206    34997        *****************************************************************************/
     2207    34998    2           CASE( %XSS_SEV_SRSAREQ);                        /* TABLE 48 */

     2208    34999    3               DO CASE( SCTX.STATE);

  34999  1 014553   000000 471500                    LDP1    0,,PR0
         1 014554   100000 236100                    LDQ     0,,PR1
         1 014555   000033 772000                    QRL     27
         1 014556   000007 136007                    SBLQ    7,DL
         1 014557   000027 116007                    CMPQ    23,DL
         1 014560   014562 602006 1                  TNC     s:34999+7,QL
         1 014561   015175 710000 1                  TRA     s:36079
         1 014562   014611 710000 1                  TRA     s:35013
         1 014563   015175 710000 1                  TRA     s:36079
         1 014564   015175 710000 1                  TRA     s:36079
         1 014565   015175 710000 1                  TRA     s:36079
         1 014566   015175 710000 1                  TRA     s:36079
         1 014567   015175 710000 1                  TRA     s:36079
         1 014570   015175 710000 1                  TRA     s:36079
         1 014571   014654 710000 1                  TRA     s:35131
         1 014572   014611 710000 1                  TRA     s:35013
         1 014573   014611 710000 1                  TRA     s:35013
         1 014574   014737 710000 1                  TRA     s:35442
         1 014575   015175 710000 1                  TRA     s:36079
         1 014576   015175 710000 1                  TRA     s:36079
         1 014577   015002 710000 1                  TRA     s:35560
         1 014600   015057 710000 1                  TRA     s:35766
         1 014601   015175 710000 1                  TRA     s:36079
         1 014602   015175 710000 1                  TRA     s:36079
         1 014603   015175 710000 1                  TRA     s:36079
         1 014604   015175 710000 1                  TRA     s:36079
         1 014605   014611 710000 1                  TRA     s:35013
         1 014606   015175 710000 1                  TRA     s:36079
PL6.E3A0      #001=XSS$MACHINE File=XSS$MACHINE.:XSA1TSI                         WED 10/01/97 12:18 Page:509
         1 014607   015175 710000 1                  TRA     s:36079
         1 014610   015132 710000 1                  TRA     s:35969

     2209    35000    3                   CASE( %XSS_SST_04A,

     2210    35001    3                         %XSS_SST_10A,
     2211    35002    3                         %XSS_SST_10B,
     2212    35003    3                         %XSS_SST_20);
     2213    35004                            %IFPREDDO( P="28");

  35013  1 014611   400000 236003                    LDQ     -131072,DU
         1 014612   200014 756100                    STQ     CONTINUING,,AUTO

  35073  1 014613   200011 236100                    LDQ     ZPINV,,AUTO
         1 014614   000200 316007                    CANQ    128,DL
         1 014615   014620 600000 1                  TZE     s:35083

  35073  1 014616   023173 701000 1                  TSX1    PRED28
         1 014617   020067 702000 1                  TSX2    ACTIONERR

  35083  1 014620   200006 236100                    LDQ     ZPRED,,AUTO
         1 014621   000200 316007                    CANQ    128,DL
         1 014622   014647 600000 1                  TZE     s:35119

  35102  1 014623   200014 450100                    STZ     CONTINUING,,AUTO

     2214    35104    4                           IF SCTX.FLAGS.TEXP THEN

  35104  1 014624   200003 470500                    LDP0    @VBLK,,AUTO
         1 014625   000000 471500                    LDP1    0,,PR0
         1 014626   100006 236100                    LDQ     6,,PR1
         1 014627   010000 316007                    CANQ    4096,DL
         1 014630   014635 600000 1                  TZE     s:35109

     2215    35105                                    %EVENT( EV=%XSS_SEV_PR_RS);

  35106  1 014631   000112 236000 2                  LDQ     74
PL6.E3A0      #001=XSS$MACHINE File=XSS$MACHINE.:XSA1TSI                         WED 10/01/97 12:18 Page:510
         1 014632   200021 756100                    STQ     CONTINUING+5,,AUTO
         1 014633   020166 701000 1                  TSX1    EVNT
         1 014634   020066 702000 1                  TSX2    EVNTERR

     2216    35108                                %EVENT( EV=%XSS_SEV_RS_A);

  35109  1 014635   000174 236000 2                  LDQ     124
         1 014636   200021 756100                    STQ     CONTINUING+5,,AUTO
         1 014637   020166 701000 1                  TSX1    EVNT
         1 014640   020066 702000 1                  TSX2    EVNTERR

     2217    35111                                %ACTION16;

  35112  1 014641   021557 701000 1                  TSX1    ACTION16
         1 014642   020067 702000 1                  TSX2    ACTIONERR

     2218    35114    4                           SCTX.STATE = %XSS_SST_05A;

  35114  1 014643   200003 470500                    LDP0    @VBLK,,AUTO
         1 014644   000000 471500                    LDP1    0,,PR0
         1 014645   011000 236003                    LDQ     4608,DU
         1 014646   100000 552140                    STBQ    0,'40'O,PR1

     2219    35115    4                           END;

     2220    35116                            %ENDPREDDO;

  35119  1 014647   200014 234100                    SZN     CONTINUING,,AUTO
         1 014650   020065 605000 1                  TPL     s:41916

  35119  1 014651   020773 701000 1                  TSX1    OOPS
         1 014652   000000 011000                    NOP     0
         1 014653   020065 710000 1                  TRA     s:41916

     2221    35121    3                   CASE( %XSS_SST_09);

     2222    35122                            %IFPREDDO( P="10&28&-34");
PL6.E3A0      #001=XSS$MACHINE File=XSS$MACHINE.:XSA1TSI                         WED 10/01/97 12:18 Page:511

  35131  1 014654   400000 236003                    LDQ     -131072,DU
         1 014655   200014 756100                    STQ     CONTINUING,,AUTO

  35177  1 014656   200011 236100                    LDQ     ZPINV,,AUTO
         1 014657   000200 316003                    CANQ    128,DU
         1 014660   014663 600000 1                  TZE     s:35186

  35177  1 014661   022342 701000 1                  TSX1    PRED10
         1 014662   020067 702000 1                  TSX2    ACTIONERR

  35186  1 014663   200006 236100                    LDQ     ZPRED,,AUTO
         1 014664   000200 316003                    CANQ    128,DU
         1 014665   014732 600000 1                  TZE     s:35430

  35247  1 014666   200011 236100                    LDQ     ZPINV,,AUTO
         1 014667   000200 316007                    CANQ    128,DL
         1 014670   014673 600000 1                  TZE     s:35256

  35247  1 014671   023173 701000 1                  TSX1    PRED28
         1 014672   020067 702000 1                  TSX2    ACTIONERR

  35256  1 014673   200006 236100                    LDQ     ZPRED,,AUTO
         1 014674   000200 316007                    CANQ    128,DL
         1 014675   014732 600000 1                  TZE     s:35430

  35349  1 014676   200011 236100                    LDQ     ZPINV,,AUTO
         1 014677   000002 316007                    CANQ    2,DL
         1 014700   014703 600000 1                  TZE     s:35359

  35349  1 014701   023325 701000 1                  TSX1    PRED34
         1 014702   020067 702000 1                  TSX2    ACTIONERR

  35359  1 014703   200006 236100                    LDQ     ZPRED,,AUTO
         1 014704   000002 316007                    CANQ    2,DL
         1 014705   014732 601000 1                  TNZ     s:35430

PL6.E3A0      #001=XSS$MACHINE File=XSS$MACHINE.:XSA1TSI                         WED 10/01/97 12:18 Page:512
  35413  1 014706   200014 450100                    STZ     CONTINUING,,AUTO

     2223    35415    4                           IF SCTX.FLAGS.TEXP THEN

  35415  1 014707   200003 470500                    LDP0    @VBLK,,AUTO
         1 014710   000000 471500                    LDP1    0,,PR0
         1 014711   100006 236100                    LDQ     6,,PR1
         1 014712   010000 316007                    CANQ    4096,DL
         1 014713   014720 600000 1                  TZE     s:35420

     2224    35416                                    %EVENT( EV=%XSS_SEV_PR_RS);

  35417  1 014714   000112 236000 2                  LDQ     74
         1 014715   200021 756100                    STQ     CONTINUING+5,,AUTO
         1 014716   020166 701000 1                  TSX1    EVNT
         1 014717   020066 702000 1                  TSX2    EVNTERR

     2225    35419                                %EVENT( EV=%XSS_SEV_RS_A);

  35420  1 014720   000174 236000 2                  LDQ     124
         1 014721   200021 756100                    STQ     CONTINUING+5,,AUTO
         1 014722   020166 701000 1                  TSX1    EVNT
         1 014723   020066 702000 1                  TSX2    EVNTERR

     2226    35422                                %ACTION16;

  35423  1 014724   021557 701000 1                  TSX1    ACTION16
         1 014725   020067 702000 1                  TSX2    ACTIONERR

     2227    35425    4                           SCTX.STATE = %XSS_SST_05A;

  35425  1 014726   200003 470500                    LDP0    @VBLK,,AUTO
         1 014727   000000 471500                    LDP1    0,,PR0
         1 014730   011000 236003                    LDQ     4608,DU
         1 014731   100000 552140                    STBQ    0,'40'O,PR1

     2228    35426    4                           END;
PL6.E3A0      #001=XSS$MACHINE File=XSS$MACHINE.:XSA1TSI                         WED 10/01/97 12:18 Page:513

     2229    35427                            %ENDPREDDO;

  35430  1 014732   200014 234100                    SZN     CONTINUING,,AUTO
         1 014733   020065 605000 1                  TPL     s:41916

  35430  1 014734   020773 701000 1                  TSX1    OOPS
         1 014735   000000 011000                    NOP     0
         1 014736   020065 710000 1                  TRA     s:41916

     2230    35432    3                   CASE( %XSS_SST_11A);

     2231    35433                            %IFPREDDO( P="24");

  35442  1 014737   400000 236003                    LDQ     -131072,DU
         1 014740   200014 756100                    STQ     CONTINUING,,AUTO

  35502  1 014741   200011 236100                    LDQ     ZPINV,,AUTO
         1 014742   004000 316007                    CANQ    2048,DL
         1 014743   014746 600000 1                  TZE     s:35512

  35502  1 014744   023063 701000 1                  TSX1    PRED24
         1 014745   020067 702000 1                  TSX2    ACTIONERR

  35512  1 014746   200006 236100                    LDQ     ZPRED,,AUTO
         1 014747   004000 316007                    CANQ    2048,DL
         1 014750   014775 600000 1                  TZE     s:35548

  35531  1 014751   200014 450100                    STZ     CONTINUING,,AUTO

     2232    35533    4                           IF SCTX.FLAGS.TEXP THEN

  35533  1 014752   200003 470500                    LDP0    @VBLK,,AUTO
         1 014753   000000 471500                    LDP1    0,,PR0
         1 014754   100006 236100                    LDQ     6,,PR1
         1 014755   010000 316007                    CANQ    4096,DL
         1 014756   014763 600000 1                  TZE     s:35538
PL6.E3A0      #001=XSS$MACHINE File=XSS$MACHINE.:XSA1TSI                         WED 10/01/97 12:18 Page:514

     2233    35534                                    %EVENT( EV=%XSS_SEV_PR_RS);

  35535  1 014757   000112 236000 2                  LDQ     74
         1 014760   200021 756100                    STQ     CONTINUING+5,,AUTO
         1 014761   020166 701000 1                  TSX1    EVNT
         1 014762   020066 702000 1                  TSX2    EVNTERR

     2234    35537                                %EVENT( EV=%XSS_SEV_RS_A);

  35538  1 014763   000174 236000 2                  LDQ     124
         1 014764   200021 756100                    STQ     CONTINUING+5,,AUTO
         1 014765   020166 701000 1                  TSX1    EVNT
         1 014766   020066 702000 1                  TSX2    EVNTERR

     2235    35540                                %ACTION16;

  35541  1 014767   021557 701000 1                  TSX1    ACTION16
         1 014770   020067 702000 1                  TSX2    ACTIONERR

     2236    35543    4                           SCTX.STATE = %XSS_SST_05A;

  35543  1 014771   200003 470500                    LDP0    @VBLK,,AUTO
         1 014772   000000 471500                    LDP1    0,,PR0
         1 014773   011000 236003                    LDQ     4608,DU
         1 014774   100000 552140                    STBQ    0,'40'O,PR1

     2237    35544    4                           END;

     2238    35545                            %ENDPREDDO;

  35548  1 014775   200014 234100                    SZN     CONTINUING,,AUTO
         1 014776   020065 605000 1                  TPL     s:41916

  35548  1 014777   020773 701000 1                  TSX1    OOPS
         1 015000   000000 011000                    NOP     0
         1 015001   020065 710000 1                  TRA     s:41916
PL6.E3A0      #001=XSS$MACHINE File=XSS$MACHINE.:XSA1TSI                         WED 10/01/97 12:18 Page:515

     2239    35550    3                   CASE( %XSS_SST_15A);

     2240    35551                            %IFPREDDO( P="28&30");

  35560  1 015002   400000 236003                    LDQ     -131072,DU
         1 015003   200014 756100                    STQ     CONTINUING,,AUTO

  35606  1 015004   200011 236100                    LDQ     ZPINV,,AUTO
         1 015005   000200 316007                    CANQ    128,DL
         1 015006   015011 600000 1                  TZE     s:35615

  35606  1 015007   023173 701000 1                  TSX1    PRED28
         1 015010   020067 702000 1                  TSX2    ACTIONERR

  35615  1 015011   200006 236100                    LDQ     ZPRED,,AUTO
         1 015012   000200 316007                    CANQ    128,DL
         1 015013   015052 600000 1                  TZE     s:35754

  35690  1 015014   200011 236100                    LDQ     ZPINV,,AUTO
         1 015015   000040 316007                    CANQ    32,DL
         1 015016   015021 600000 1                  TZE     s:35700

  35690  1 015017   023243 701000 1                  TSX1    PRED30
         1 015020   020067 702000 1                  TSX2    ACTIONERR

  35700  1 015021   200006 236100                    LDQ     ZPRED,,AUTO
         1 015022   000040 316007                    CANQ    32,DL
         1 015023   015052 600000 1                  TZE     s:35754

  35734  1 015024   200014 450100                    STZ     CONTINUING,,AUTO

     2241    35736    4                           IF SCTX.FLAGS.TEXP THEN

  35736  1 015025   200003 470500                    LDP0    @VBLK,,AUTO
         1 015026   000000 471500                    LDP1    0,,PR0
         1 015027   100006 236100                    LDQ     6,,PR1
PL6.E3A0      #001=XSS$MACHINE File=XSS$MACHINE.:XSA1TSI                         WED 10/01/97 12:18 Page:516
         1 015030   010000 316007                    CANQ    4096,DL
         1 015031   015036 600000 1                  TZE     s:35741

     2242    35737                                    %EVENT( EV=%XSS_SEV_PR_RS);

  35738  1 015032   000112 236000 2                  LDQ     74
         1 015033   200021 756100                    STQ     CONTINUING+5,,AUTO
         1 015034   020166 701000 1                  TSX1    EVNT
         1 015035   020066 702000 1                  TSX2    EVNTERR

     2243    35740                                %EVENT( EV=%XSS_SEV_RS_A);

  35741  1 015036   000174 236000 2                  LDQ     124
         1 015037   200021 756100                    STQ     CONTINUING+5,,AUTO
         1 015040   020166 701000 1                  TSX1    EVNT
         1 015041   020066 702000 1                  TSX2    EVNTERR

     2244    35743                                %ACTION16;

  35744  1 015042   021557 701000 1                  TSX1    ACTION16
         1 015043   020067 702000 1                  TSX2    ACTIONERR

     2245    35746    4                           SCTX.STATE = %XSS_SST_05A;

  35746  1 015044   200003 470500                    LDP0    @VBLK,,AUTO
         1 015045   000000 471500                    LDP1    0,,PR0
         1 015046   011000 236003                    LDQ     4608,DU
         1 015047   100000 552140                    STBQ    0,'40'O,PR1

     2246    35747                                %ACTION06;

  35748  1 015050   021255 701000 1                  TSX1    ACTION06
         1 015051   020067 702000 1                  TSX2    ACTIONERR

     2247    35750    4                           END;

     2248    35751                            %ENDPREDDO;
PL6.E3A0      #001=XSS$MACHINE File=XSS$MACHINE.:XSA1TSI                         WED 10/01/97 12:18 Page:517

  35754  1 015052   200014 234100                    SZN     CONTINUING,,AUTO
         1 015053   020065 605000 1                  TPL     s:41916

  35754  1 015054   020773 701000 1                  TSX1    OOPS
         1 015055   000000 011000                    NOP     0
         1 015056   020065 710000 1                  TRA     s:41916

     2249    35756    3                   CASE( %XSS_SST_15B);

     2250    35757                            %IFPREDDO( P="27&28");

  35766  1 015057   400000 236003                    LDQ     -131072,DU
         1 015060   200014 756100                    STQ     CONTINUING,,AUTO

  35812  1 015061   200011 236100                    LDQ     ZPINV,,AUTO
         1 015062   000400 316007                    CANQ    256,DL
         1 015063   015066 600000 1                  TZE     s:35821

  35812  1 015064   023160 701000 1                  TSX1    PRED27
         1 015065   020067 702000 1                  TSX2    ACTIONERR

  35821  1 015066   200006 236100                    LDQ     ZPRED,,AUTO
         1 015067   000400 316007                    CANQ    256,DL
         1 015070   015125 600000 1                  TZE     s:35957

  35896  1 015071   200011 236100                    LDQ     ZPINV,,AUTO
         1 015072   000200 316007                    CANQ    128,DL
         1 015073   015076 600000 1                  TZE     s:35906

  35896  1 015074   023173 701000 1                  TSX1    PRED28
         1 015075   020067 702000 1                  TSX2    ACTIONERR

  35906  1 015076   200006 236100                    LDQ     ZPRED,,AUTO
         1 015077   000200 316007                    CANQ    128,DL
         1 015100   015125 600000 1                  TZE     s:35957

PL6.E3A0      #001=XSS$MACHINE File=XSS$MACHINE.:XSA1TSI                         WED 10/01/97 12:18 Page:518
  35940  1 015101   200014 450100                    STZ     CONTINUING,,AUTO

     2251    35942    4                           IF SCTX.FLAGS.TEXP THEN

  35942  1 015102   200003 470500                    LDP0    @VBLK,,AUTO
         1 015103   000000 471500                    LDP1    0,,PR0
         1 015104   100006 236100                    LDQ     6,,PR1
         1 015105   010000 316007                    CANQ    4096,DL
         1 015106   015113 600000 1                  TZE     s:35947

     2252    35943                                    %EVENT( EV=%XSS_SEV_PR_RS);

  35944  1 015107   000112 236000 2                  LDQ     74
         1 015110   200021 756100                    STQ     CONTINUING+5,,AUTO
         1 015111   020166 701000 1                  TSX1    EVNT
         1 015112   020066 702000 1                  TSX2    EVNTERR

     2253    35946                                %EVENT( EV=%XSS_SEV_RS_A);

  35947  1 015113   000174 236000 2                  LDQ     124
         1 015114   200021 756100                    STQ     CONTINUING+5,,AUTO
         1 015115   020166 701000 1                  TSX1    EVNT
         1 015116   020066 702000 1                  TSX2    EVNTERR

     2254    35949                                %ACTION16;

  35950  1 015117   021557 701000 1                  TSX1    ACTION16
         1 015120   020067 702000 1                  TSX2    ACTIONERR

     2255    35952    4                           SCTX.STATE = %XSS_SST_06;

  35952  1 015121   200003 470500                    LDP0    @VBLK,,AUTO
         1 015122   000000 471500                    LDP1    0,,PR0
         1 015123   014000 236003                    LDQ     6144,DU
         1 015124   100000 552140                    STBQ    0,'40'O,PR1

     2256    35953    4                           END;
PL6.E3A0      #001=XSS$MACHINE File=XSS$MACHINE.:XSA1TSI                         WED 10/01/97 12:18 Page:519

     2257    35954                            %ENDPREDDO;

  35957  1 015125   200014 234100                    SZN     CONTINUING,,AUTO
         1 015126   020065 605000 1                  TPL     s:41916

  35957  1 015127   020773 701000 1                  TSX1    OOPS
         1 015130   000000 011000                    NOP     0
         1 015131   020065 710000 1                  TRA     s:41916

     2258    35959    3                   CASE( %XSS_SST_713);

     2259    35960                            %IFPREDDO( P="29");

  35969  1 015132   400000 236003                    LDQ     -131072,DU
         1 015133   200014 756100                    STQ     CONTINUING,,AUTO

  36029  1 015134   200011 236100                    LDQ     ZPINV,,AUTO
         1 015135   000100 316007                    CANQ    64,DL
         1 015136   015141 600000 1                  TZE     s:36039

  36029  1 015137   023206 701000 1                  TSX1    PRED29
         1 015140   020067 702000 1                  TSX2    ACTIONERR

  36039  1 015141   200006 236100                    LDQ     ZPRED,,AUTO
         1 015142   000100 316007                    CANQ    64,DL
         1 015143   015170 600000 1                  TZE     s:36075

  36058  1 015144   200014 450100                    STZ     CONTINUING,,AUTO

     2260    36060    4                           IF SCTX.FLAGS.TEXP THEN

  36060  1 015145   200003 470500                    LDP0    @VBLK,,AUTO
         1 015146   000000 471500                    LDP1    0,,PR0
         1 015147   100006 236100                    LDQ     6,,PR1
         1 015150   010000 316007                    CANQ    4096,DL
         1 015151   015156 600000 1                  TZE     s:36065
PL6.E3A0      #001=XSS$MACHINE File=XSS$MACHINE.:XSA1TSI                         WED 10/01/97 12:18 Page:520

     2261    36061                                    %EVENT( EV=%XSS_SEV_PR_RS);

  36062  1 015152   000112 236000 2                  LDQ     74
         1 015153   200021 756100                    STQ     CONTINUING+5,,AUTO
         1 015154   020166 701000 1                  TSX1    EVNT
         1 015155   020066 702000 1                  TSX2    EVNTERR

     2262    36064                                %EVENT( EV=%XSS_SEV_RS_A);

  36065  1 015156   000174 236000 2                  LDQ     124
         1 015157   200021 756100                    STQ     CONTINUING+5,,AUTO
         1 015160   020166 701000 1                  TSX1    EVNT
         1 015161   020066 702000 1                  TSX2    EVNTERR

     2263    36067                                %ACTION16;

  36068  1 015162   021557 701000 1                  TSX1    ACTION16
         1 015163   020067 702000 1                  TSX2    ACTIONERR

     2264    36070    4                           SCTX.STATE = %XSS_SST_05A;

  36070  1 015164   200003 470500                    LDP0    @VBLK,,AUTO
         1 015165   000000 471500                    LDP1    0,,PR0
         1 015166   011000 236003                    LDQ     4608,DU
         1 015167   100000 552140                    STBQ    0,'40'O,PR1

     2265    36071    4                           END;

     2266    36072                            %ENDPREDDO;

  36075  1 015170   200014 234100                    SZN     CONTINUING,,AUTO
         1 015171   020065 605000 1                  TPL     s:41916

  36075  1 015172   020773 701000 1                  TSX1    OOPS
         1 015173   000000 011000                    NOP     0
         1 015174   020065 710000 1                  TRA     s:41916
PL6.E3A0      #001=XSS$MACHINE File=XSS$MACHINE.:XSA1TSI                         WED 10/01/97 12:18 Page:521

     2267    36077    3                   CASE( ELSE);

     2268    36078                            %INVALID;

  36079  1 015175   020773 701000 1                  TSX1    OOPS
         1 015176   000000 011000                    NOP     0

     2269    36081    3                   END;

  36081  1 015177   020065 710000 1                  TRA     s:41916

     2270    36082        %EJECT;
PL6.E3A0      #001=XSS$MACHINE File=XSS$MACHINE.:XSA1TSI                         WED 10/01/97 12:18 Page:522
     2271    36083        /*****************************************************************************
     2272    36084        *
     2273    36085        *       SRSRREQ         S-RESYNCHRONIZE (RESTART) Request
     2274    36086        *
     2275    36087        *****************************************************************************/
     2276    36088    2           CASE( %XSS_SEV_SRSRREQ);                        /* TABLE 48 */

     2277    36089    3               DO CASE( SCTX.STATE);

  36089  1 015200   000000 471500                    LDP1    0,,PR0
         1 015201   100000 236100                    LDQ     0,,PR1
         1 015202   000033 772000                    QRL     27
         1 015203   000016 136007                    SBLQ    14,DL
         1 015204   000020 116007                    CMPQ    16,DL
         1 015205   015207 602006 1                  TNC     s:36089+7,QL
         1 015206   015616 710000 1                  TRA     s:37472
         1 015207   015227 710000 1                  TRA     s:36100
         1 015210   015322 710000 1                  TRA     s:36498
         1 015211   015322 710000 1                  TRA     s:36498
         1 015212   015375 710000 1                  TRA     s:36701
         1 015213   015616 710000 1                  TRA     s:37472
         1 015214   015616 710000 1                  TRA     s:37472
         1 015215   015616 710000 1                  TRA     s:37472
         1 015216   015450 710000 1                  TRA     s:36904
         1 015217   015616 710000 1                  TRA     s:37472
         1 015220   015616 710000 1                  TRA     s:37472
         1 015221   015616 710000 1                  TRA     s:37472
         1 015222   015616 710000 1                  TRA     s:37472
         1 015223   015322 710000 1                  TRA     s:36498
         1 015224   015616 710000 1                  TRA     s:37472
         1 015225   015616 710000 1                  TRA     s:37472
         1 015226   015533 710000 1                  TRA     s:37192

     2278    36090    3                   CASE( %XSS_SST_09);

     2279    36091                            %IFPREDDO( P="10&25&-34&33");

PL6.E3A0      #001=XSS$MACHINE File=XSS$MACHINE.:XSA1TSI                         WED 10/01/97 12:18 Page:523
  36100  1 015227   400000 236003                    LDQ     -131072,DU
         1 015230   200014 756100                    STQ     CONTINUING,,AUTO

  36146  1 015231   200011 236100                    LDQ     ZPINV,,AUTO
         1 015232   000200 316003                    CANQ    128,DU
         1 015233   015236 600000 1                  TZE     s:36155

  36146  1 015234   022342 701000 1                  TSX1    PRED10
         1 015235   020067 702000 1                  TSX2    ACTIONERR

  36155  1 015236   200006 236100                    LDQ     ZPRED,,AUTO
         1 015237   000200 316003                    CANQ    128,DU
         1 015240   015315 600000 1                  TZE     s:36484

  36216  1 015241   200011 236100                    LDQ     ZPINV,,AUTO
         1 015242   002000 316007                    CANQ    1024,DL
         1 015243   015246 600000 1                  TZE     s:36225

  36216  1 015244   023101 701000 1                  TSX1    PRED25
         1 015245   020067 702000 1                  TSX2    ACTIONERR

  36225  1 015246   200006 236100                    LDQ     ZPRED,,AUTO
         1 015247   002000 316007                    CANQ    1024,DL
         1 015250   015315 600000 1                  TZE     s:36484

  36304  1 015251   200011 236100                    LDQ     ZPINV,,AUTO
         1 015252   000002 316007                    CANQ    2,DL
         1 015253   015256 600000 1                  TZE     s:36313

  36304  1 015254   023325 701000 1                  TSX1    PRED34
         1 015255   020067 702000 1                  TSX2    ACTIONERR

  36313  1 015256   200006 236100                    LDQ     ZPRED,,AUTO
         1 015257   000002 316007                    CANQ    2,DL
         1 015260   015315 601000 1                  TNZ     s:36484

  36388  1 015261   200011 236100                    LDQ     ZPINV,,AUTO
PL6.E3A0      #001=XSS$MACHINE File=XSS$MACHINE.:XSA1TSI                         WED 10/01/97 12:18 Page:524
         1 015262   000004 316007                    CANQ    4,DL
         1 015263   015266 600000 1                  TZE     s:36398

  36388  1 015264   023306 701000 1                  TSX1    PRED33
         1 015265   020067 702000 1                  TSX2    ACTIONERR

  36398  1 015266   200006 236100                    LDQ     ZPRED,,AUTO
         1 015267   000004 316007                    CANQ    4,DL
         1 015270   015315 600000 1                  TZE     s:36484

  36467  1 015271   200014 450100                    STZ     CONTINUING,,AUTO

     2280    36469    4                           IF SCTX.FLAGS.TEXP THEN

  36469  1 015272   200003 470500                    LDP0    @VBLK,,AUTO
         1 015273   000000 471500                    LDP1    0,,PR0
         1 015274   100006 236100                    LDQ     6,,PR1
         1 015275   010000 316007                    CANQ    4096,DL
         1 015276   015303 600000 1                  TZE     s:36474

     2281    36470                                    %EVENT( EV=%XSS_SEV_PR_RS);

  36471  1 015277   000112 236000 2                  LDQ     74
         1 015300   200021 756100                    STQ     CONTINUING+5,,AUTO
         1 015301   020166 701000 1                  TSX1    EVNT
         1 015302   020066 702000 1                  TSX2    EVNTERR

     2282    36473                                %EVENT( EV=%XSS_SEV_RS_R);

  36474  1 015303   000176 236000 2                  LDQ     126
         1 015304   200021 756100                    STQ     CONTINUING+5,,AUTO
         1 015305   020166 701000 1                  TSX1    EVNT
         1 015306   020066 702000 1                  TSX2    EVNTERR

     2283    36476                                %ACTION16;

  36477  1 015307   021557 701000 1                  TSX1    ACTION16
PL6.E3A0      #001=XSS$MACHINE File=XSS$MACHINE.:XSA1TSI                         WED 10/01/97 12:18 Page:525
         1 015310   020067 702000 1                  TSX2    ACTIONERR

     2284    36479    4                           SCTX.STATE = %XSS_SST_05A;

  36479  1 015311   200003 470500                    LDP0    @VBLK,,AUTO
         1 015312   000000 471500                    LDP1    0,,PR0
         1 015313   011000 236003                    LDQ     4608,DU
         1 015314   100000 552140                    STBQ    0,'40'O,PR1

     2285    36480    4                           END;

     2286    36481                            %ENDPREDDO;

  36484  1 015315   200014 234100                    SZN     CONTINUING,,AUTO
         1 015316   020065 605000 1                  TPL     s:41916

  36484  1 015317   020773 701000 1                  TSX1    OOPS
         1 015320   000000 011000                    NOP     0
         1 015321   020065 710000 1                  TRA     s:41916

     2287    36486    3                   CASE( %XSS_SST_10A,

     2288    36487    3                         %XSS_SST_10B,
     2289    36488    3                         %XSS_SST_20);
     2290    36489                            %IFPREDDO( P="25&33");

  36498  1 015322   400000 236003                    LDQ     -131072,DU
         1 015323   200014 756100                    STQ     CONTINUING,,AUTO

  36544  1 015324   200011 236100                    LDQ     ZPINV,,AUTO
         1 015325   002000 316007                    CANQ    1024,DL
         1 015326   015331 600000 1                  TZE     s:36553

  36544  1 015327   023101 701000 1                  TSX1    PRED25
         1 015330   020067 702000 1                  TSX2    ACTIONERR

  36553  1 015331   200006 236100                    LDQ     ZPRED,,AUTO
PL6.E3A0      #001=XSS$MACHINE File=XSS$MACHINE.:XSA1TSI                         WED 10/01/97 12:18 Page:526
         1 015332   002000 316007                    CANQ    1024,DL
         1 015333   015370 600000 1                  TZE     s:36689

  36628  1 015334   200011 236100                    LDQ     ZPINV,,AUTO
         1 015335   000004 316007                    CANQ    4,DL
         1 015336   015341 600000 1                  TZE     s:36638

  36628  1 015337   023306 701000 1                  TSX1    PRED33
         1 015340   020067 702000 1                  TSX2    ACTIONERR

  36638  1 015341   200006 236100                    LDQ     ZPRED,,AUTO
         1 015342   000004 316007                    CANQ    4,DL
         1 015343   015370 600000 1                  TZE     s:36689

  36672  1 015344   200014 450100                    STZ     CONTINUING,,AUTO

     2291    36674    4                           IF SCTX.FLAGS.TEXP THEN

  36674  1 015345   200003 470500                    LDP0    @VBLK,,AUTO
         1 015346   000000 471500                    LDP1    0,,PR0
         1 015347   100006 236100                    LDQ     6,,PR1
         1 015350   010000 316007                    CANQ    4096,DL
         1 015351   015356 600000 1                  TZE     s:36679

     2292    36675                                    %EVENT( EV=%XSS_SEV_PR_RS);

  36676  1 015352   000112 236000 2                  LDQ     74
         1 015353   200021 756100                    STQ     CONTINUING+5,,AUTO
         1 015354   020166 701000 1                  TSX1    EVNT
         1 015355   020066 702000 1                  TSX2    EVNTERR

     2293    36678                                %EVENT( EV=%XSS_SEV_RS_R);

  36679  1 015356   000176 236000 2                  LDQ     126
         1 015357   200021 756100                    STQ     CONTINUING+5,,AUTO
         1 015360   020166 701000 1                  TSX1    EVNT
         1 015361   020066 702000 1                  TSX2    EVNTERR
PL6.E3A0      #001=XSS$MACHINE File=XSS$MACHINE.:XSA1TSI                         WED 10/01/97 12:18 Page:527

     2294    36681                                %ACTION16;

  36682  1 015362   021557 701000 1                  TSX1    ACTION16
         1 015363   020067 702000 1                  TSX2    ACTIONERR

     2295    36684    4                           SCTX.STATE = %XSS_SST_05A;

  36684  1 015364   200003 470500                    LDP0    @VBLK,,AUTO
         1 015365   000000 471500                    LDP1    0,,PR0
         1 015366   011000 236003                    LDQ     4608,DU
         1 015367   100000 552140                    STBQ    0,'40'O,PR1

     2296    36685    4                           END;

     2297    36686                            %ENDPREDDO;

  36689  1 015370   200014 234100                    SZN     CONTINUING,,AUTO
         1 015371   020065 605000 1                  TPL     s:41916

  36689  1 015372   020773 701000 1                  TSX1    OOPS
         1 015373   000000 011000                    NOP     0
         1 015374   020065 710000 1                  TRA     s:41916

     2298    36691    3                   CASE( %XSS_SST_11A);

     2299    36692                            %IFPREDDO( P="24&33");

  36701  1 015375   400000 236003                    LDQ     -131072,DU
         1 015376   200014 756100                    STQ     CONTINUING,,AUTO

  36747  1 015377   200011 236100                    LDQ     ZPINV,,AUTO
         1 015400   004000 316007                    CANQ    2048,DL
         1 015401   015404 600000 1                  TZE     s:36756

  36747  1 015402   023063 701000 1                  TSX1    PRED24
         1 015403   020067 702000 1                  TSX2    ACTIONERR
PL6.E3A0      #001=XSS$MACHINE File=XSS$MACHINE.:XSA1TSI                         WED 10/01/97 12:18 Page:528

  36756  1 015404   200006 236100                    LDQ     ZPRED,,AUTO
         1 015405   004000 316007                    CANQ    2048,DL
         1 015406   015443 600000 1                  TZE     s:36892

  36831  1 015407   200011 236100                    LDQ     ZPINV,,AUTO
         1 015410   000004 316007                    CANQ    4,DL
         1 015411   015414 600000 1                  TZE     s:36841

  36831  1 015412   023306 701000 1                  TSX1    PRED33
         1 015413   020067 702000 1                  TSX2    ACTIONERR

  36841  1 015414   200006 236100                    LDQ     ZPRED,,AUTO
         1 015415   000004 316007                    CANQ    4,DL
         1 015416   015443 600000 1                  TZE     s:36892

  36875  1 015417   200014 450100                    STZ     CONTINUING,,AUTO

     2300    36877    4                           IF SCTX.FLAGS.TEXP THEN

  36877  1 015420   200003 470500                    LDP0    @VBLK,,AUTO
         1 015421   000000 471500                    LDP1    0,,PR0
         1 015422   100006 236100                    LDQ     6,,PR1
         1 015423   010000 316007                    CANQ    4096,DL
         1 015424   015431 600000 1                  TZE     s:36882

     2301    36878                                    %EVENT( EV=%XSS_SEV_PR_RS);

  36879  1 015425   000112 236000 2                  LDQ     74
         1 015426   200021 756100                    STQ     CONTINUING+5,,AUTO
         1 015427   020166 701000 1                  TSX1    EVNT
         1 015430   020066 702000 1                  TSX2    EVNTERR

     2302    36881                                %EVENT( EV=%XSS_SEV_RS_R);

  36882  1 015431   000176 236000 2                  LDQ     126
         1 015432   200021 756100                    STQ     CONTINUING+5,,AUTO
PL6.E3A0      #001=XSS$MACHINE File=XSS$MACHINE.:XSA1TSI                         WED 10/01/97 12:18 Page:529
         1 015433   020166 701000 1                  TSX1    EVNT
         1 015434   020066 702000 1                  TSX2    EVNTERR

     2303    36884                                %ACTION16;

  36885  1 015435   021557 701000 1                  TSX1    ACTION16
         1 015436   020067 702000 1                  TSX2    ACTIONERR

     2304    36887    4                           SCTX.STATE = %XSS_SST_05A;

  36887  1 015437   200003 470500                    LDP0    @VBLK,,AUTO
         1 015440   000000 471500                    LDP1    0,,PR0
         1 015441   011000 236003                    LDQ     4608,DU
         1 015442   100000 552140                    STBQ    0,'40'O,PR1

     2305    36888    4                           END;

     2306    36889                            %ENDPREDDO;

  36892  1 015443   200014 234100                    SZN     CONTINUING,,AUTO
         1 015444   020065 605000 1                  TPL     s:41916

  36892  1 015445   020773 701000 1                  TSX1    OOPS
         1 015446   000000 011000                    NOP     0
         1 015447   020065 710000 1                  TRA     s:41916

     2307    36894    3                   CASE( %XSS_SST_15B);

     2308    36895                            %IFPREDDO( P="25&27&33");

  36904  1 015450   400000 236003                    LDQ     -131072,DU
         1 015451   200014 756100                    STQ     CONTINUING,,AUTO

  36950  1 015452   200011 236100                    LDQ     ZPINV,,AUTO
         1 015453   002000 316007                    CANQ    1024,DL
         1 015454   015457 600000 1                  TZE     s:36959

PL6.E3A0      #001=XSS$MACHINE File=XSS$MACHINE.:XSA1TSI                         WED 10/01/97 12:18 Page:530
  36950  1 015455   023101 701000 1                  TSX1    PRED25
         1 015456   020067 702000 1                  TSX2    ACTIONERR

  36959  1 015457   200006 236100                    LDQ     ZPRED,,AUTO
         1 015460   002000 316007                    CANQ    1024,DL
         1 015461   015526 600000 1                  TZE     s:37180

  37020  1 015462   200011 236100                    LDQ     ZPINV,,AUTO
         1 015463   000400 316007                    CANQ    256,DL
         1 015464   015467 600000 1                  TZE     s:37029

  37020  1 015465   023160 701000 1                  TSX1    PRED27
         1 015466   020067 702000 1                  TSX2    ACTIONERR

  37029  1 015467   200006 236100                    LDQ     ZPRED,,AUTO
         1 015470   000400 316007                    CANQ    256,DL
         1 015471   015526 600000 1                  TZE     s:37180

  37104  1 015472   200011 236100                    LDQ     ZPINV,,AUTO
         1 015473   000004 316007                    CANQ    4,DL
         1 015474   015477 600000 1                  TZE     s:37114

  37104  1 015475   023306 701000 1                  TSX1    PRED33
         1 015476   020067 702000 1                  TSX2    ACTIONERR

  37114  1 015477   200006 236100                    LDQ     ZPRED,,AUTO
         1 015500   000004 316007                    CANQ    4,DL
         1 015501   015526 600000 1                  TZE     s:37180

  37163  1 015502   200014 450100                    STZ     CONTINUING,,AUTO

     2309    37165    4                           IF SCTX.FLAGS.TEXP THEN

  37165  1 015503   200003 470500                    LDP0    @VBLK,,AUTO
         1 015504   000000 471500                    LDP1    0,,PR0
         1 015505   100006 236100                    LDQ     6,,PR1
         1 015506   010000 316007                    CANQ    4096,DL
PL6.E3A0      #001=XSS$MACHINE File=XSS$MACHINE.:XSA1TSI                         WED 10/01/97 12:18 Page:531
         1 015507   015514 600000 1                  TZE     s:37170

     2310    37166                                    %EVENT( EV=%XSS_SEV_PR_RS);

  37167  1 015510   000112 236000 2                  LDQ     74
         1 015511   200021 756100                    STQ     CONTINUING+5,,AUTO
         1 015512   020166 701000 1                  TSX1    EVNT
         1 015513   020066 702000 1                  TSX2    EVNTERR

     2311    37169                                %EVENT( EV=%XSS_SEV_RS_R);

  37170  1 015514   000176 236000 2                  LDQ     126
         1 015515   200021 756100                    STQ     CONTINUING+5,,AUTO
         1 015516   020166 701000 1                  TSX1    EVNT
         1 015517   020066 702000 1                  TSX2    EVNTERR

     2312    37172                                %ACTION16;

  37173  1 015520   021557 701000 1                  TSX1    ACTION16
         1 015521   020067 702000 1                  TSX2    ACTIONERR

     2313    37175    4                           SCTX.STATE = %XSS_SST_06;

  37175  1 015522   200003 470500                    LDP0    @VBLK,,AUTO
         1 015523   000000 471500                    LDP1    0,,PR0
         1 015524   014000 236003                    LDQ     6144,DU
         1 015525   100000 552140                    STBQ    0,'40'O,PR1

     2314    37176    4                           END;

     2315    37177                            %ENDPREDDO;

  37180  1 015526   200014 234100                    SZN     CONTINUING,,AUTO
         1 015527   020065 605000 1                  TPL     s:41916

  37180  1 015530   020773 701000 1                  TSX1    OOPS
         1 015531   000000 011000                    NOP     0
PL6.E3A0      #001=XSS$MACHINE File=XSS$MACHINE.:XSA1TSI                         WED 10/01/97 12:18 Page:532
         1 015532   020065 710000 1                  TRA     s:41916

     2316    37182    3                   CASE( %XSS_SST_713);

     2317    37183                            %IFPREDDO( P="25&26&33");

  37192  1 015533   400000 236003                    LDQ     -131072,DU
         1 015534   200014 756100                    STQ     CONTINUING,,AUTO

  37238  1 015535   200011 236100                    LDQ     ZPINV,,AUTO
         1 015536   002000 316007                    CANQ    1024,DL
         1 015537   015542 600000 1                  TZE     s:37247

  37238  1 015540   023101 701000 1                  TSX1    PRED25
         1 015541   020067 702000 1                  TSX2    ACTIONERR

  37247  1 015542   200006 236100                    LDQ     ZPRED,,AUTO
         1 015543   002000 316007                    CANQ    1024,DL
         1 015544   015611 600000 1                  TZE     s:37468

  37308  1 015545   200011 236100                    LDQ     ZPINV,,AUTO
         1 015546   001000 316007                    CANQ    512,DL
         1 015547   015552 600000 1                  TZE     s:37317

  37308  1 015550   023133 701000 1                  TSX1    PRED26
         1 015551   020067 702000 1                  TSX2    ACTIONERR

  37317  1 015552   200006 236100                    LDQ     ZPRED,,AUTO
         1 015553   001000 316007                    CANQ    512,DL
         1 015554   015611 600000 1                  TZE     s:37468

  37392  1 015555   200011 236100                    LDQ     ZPINV,,AUTO
         1 015556   000004 316007                    CANQ    4,DL
         1 015557   015562 600000 1                  TZE     s:37402

  37392  1 015560   023306 701000 1                  TSX1    PRED33
         1 015561   020067 702000 1                  TSX2    ACTIONERR
PL6.E3A0      #001=XSS$MACHINE File=XSS$MACHINE.:XSA1TSI                         WED 10/01/97 12:18 Page:533

  37402  1 015562   200006 236100                    LDQ     ZPRED,,AUTO
         1 015563   000004 316007                    CANQ    4,DL
         1 015564   015611 600000 1                  TZE     s:37468

  37451  1 015565   200014 450100                    STZ     CONTINUING,,AUTO

     2318    37453    4                           IF SCTX.FLAGS.TEXP THEN

  37453  1 015566   200003 470500                    LDP0    @VBLK,,AUTO
         1 015567   000000 471500                    LDP1    0,,PR0
         1 015570   100006 236100                    LDQ     6,,PR1
         1 015571   010000 316007                    CANQ    4096,DL
         1 015572   015577 600000 1                  TZE     s:37458

     2319    37454                                    %EVENT( EV=%XSS_SEV_PR_RS);

  37455  1 015573   000112 236000 2                  LDQ     74
         1 015574   200021 756100                    STQ     CONTINUING+5,,AUTO
         1 015575   020166 701000 1                  TSX1    EVNT
         1 015576   020066 702000 1                  TSX2    EVNTERR

     2320    37457                                %EVENT( EV=%XSS_SEV_RS_R);

  37458  1 015577   000176 236000 2                  LDQ     126
         1 015600   200021 756100                    STQ     CONTINUING+5,,AUTO
         1 015601   020166 701000 1                  TSX1    EVNT
         1 015602   020066 702000 1                  TSX2    EVNTERR

     2321    37460                                %ACTION16;

  37461  1 015603   021557 701000 1                  TSX1    ACTION16
         1 015604   020067 702000 1                  TSX2    ACTIONERR

     2322    37463    4                           SCTX.STATE = %XSS_SST_05A;

  37463  1 015605   200003 470500                    LDP0    @VBLK,,AUTO
PL6.E3A0      #001=XSS$MACHINE File=XSS$MACHINE.:XSA1TSI                         WED 10/01/97 12:18 Page:534
         1 015606   000000 471500                    LDP1    0,,PR0
         1 015607   011000 236003                    LDQ     4608,DU
         1 015610   100000 552140                    STBQ    0,'40'O,PR1

     2323    37464    4                           END;

     2324    37465                            %ENDPREDDO;

  37468  1 015611   200014 234100                    SZN     CONTINUING,,AUTO
         1 015612   020065 605000 1                  TPL     s:41916

  37468  1 015613   020773 701000 1                  TSX1    OOPS
         1 015614   000000 011000                    NOP     0
         1 015615   020065 710000 1                  TRA     s:41916

     2325    37470    3                   CASE( ELSE);

     2326    37471                            %INVALID;

  37472  1 015616   020773 701000 1                  TSX1    OOPS
         1 015617   000000 011000                    NOP     0

     2327    37474    3                   END;

  37474  1 015620   020065 710000 1                  TRA     s:41916

     2328    37475        %EJECT;
PL6.E3A0      #001=XSS$MACHINE File=XSS$MACHINE.:XSA1TSI                         WED 10/01/97 12:18 Page:535
     2329    37476        /*****************************************************************************
     2330    37477        *
     2331    37478        *       SRSSREQ         S-RESYNCHRONIZE (SET) Request
     2332    37479        *
     2333    37480        *****************************************************************************/
     2334    37481    2           CASE( %XSS_SEV_SRSSREQ);                        /* TABLE 48 */

     2335    37482    3               DO CASE( SCTX.STATE);

  37482  1 015621   000000 471500                    LDP1    0,,PR0
         1 015622   100000 236100                    LDQ     0,,PR1
         1 015623   000033 772000                    QRL     27
         1 015624   000007 136007                    SBLQ    7,DL
         1 015625   000027 116007                    CMPQ    23,DL
         1 015626   015630 602006 1                  TNC     s:37482+7,QL
         1 015627   016316 710000 1                  TRA     s:38764
         1 015630   015657 710000 1                  TRA     s:37493
         1 015631   016316 710000 1                  TRA     s:38764
         1 015632   016316 710000 1                  TRA     s:38764
         1 015633   016316 710000 1                  TRA     s:38764
         1 015634   016316 710000 1                  TRA     s:38764
         1 015635   016316 710000 1                  TRA     s:38764
         1 015636   016316 710000 1                  TRA     s:38764
         1 015637   015722 710000 1                  TRA     s:37611
         1 015640   016005 710000 1                  TRA     s:37924
         1 015641   016005 710000 1                  TRA     s:37924
         1 015642   016050 710000 1                  TRA     s:38042
         1 015643   016316 710000 1                  TRA     s:38764
         1 015644   016316 710000 1                  TRA     s:38764
         1 015645   016113 710000 1                  TRA     s:38160
         1 015646   016170 710000 1                  TRA     s:38366
         1 015647   016316 710000 1                  TRA     s:38764
         1 015650   016316 710000 1                  TRA     s:38764
         1 015651   016316 710000 1                  TRA     s:38764
         1 015652   016316 710000 1                  TRA     s:38764
         1 015653   016005 710000 1                  TRA     s:37924
         1 015654   016316 710000 1                  TRA     s:38764
PL6.E3A0      #001=XSS$MACHINE File=XSS$MACHINE.:XSA1TSI                         WED 10/01/97 12:18 Page:536
         1 015655   016316 710000 1                  TRA     s:38764
         1 015656   016243 710000 1                  TRA     s:38569

     2336    37483    3                   CASE( %XSS_SST_04A);

     2337    37484                            %IFPREDDO( P="28");

  37493  1 015657   400000 236003                    LDQ     -131072,DU
         1 015660   200014 756100                    STQ     CONTINUING,,AUTO

  37553  1 015661   200011 236100                    LDQ     ZPINV,,AUTO
         1 015662   000200 316007                    CANQ    128,DL
         1 015663   015666 600000 1                  TZE     s:37563

  37553  1 015664   023173 701000 1                  TSX1    PRED28
         1 015665   020067 702000 1                  TSX2    ACTIONERR

  37563  1 015666   200006 236100                    LDQ     ZPRED,,AUTO
         1 015667   000200 316007                    CANQ    128,DL
         1 015670   015715 600000 1                  TZE     s:37599

  37582  1 015671   200014 450100                    STZ     CONTINUING,,AUTO

     2338    37584    4                           IF SCTX.FLAGS.TEXP THEN

  37584  1 015672   200003 470500                    LDP0    @VBLK,,AUTO
         1 015673   000000 471500                    LDP1    0,,PR0
         1 015674   100006 236100                    LDQ     6,,PR1
         1 015675   010000 316007                    CANQ    4096,DL
         1 015676   015703 600000 1                  TZE     s:37589

     2339    37585                                    %EVENT( EV=%XSS_SEV_PR_RS);

  37586  1 015677   000112 236000 2                  LDQ     74
         1 015700   200021 756100                    STQ     CONTINUING+5,,AUTO
         1 015701   020166 701000 1                  TSX1    EVNT
         1 015702   020066 702000 1                  TSX2    EVNTERR
PL6.E3A0      #001=XSS$MACHINE File=XSS$MACHINE.:XSA1TSI                         WED 10/01/97 12:18 Page:537

     2340    37588                                %EVENT( EV=%XSS_SEV_RS_S);

  37589  1 015703   000200 236000 2                  LDQ     128
         1 015704   200021 756100                    STQ     CONTINUING+5,,AUTO
         1 015705   020166 701000 1                  TSX1    EVNT
         1 015706   020066 702000 1                  TSX2    EVNTERR

     2341    37591                                %ACTION16;

  37592  1 015707   021557 701000 1                  TSX1    ACTION16
         1 015710   020067 702000 1                  TSX2    ACTIONERR

     2342    37594    4                           SCTX.STATE = %XSS_SST_05A;

  37594  1 015711   200003 470500                    LDP0    @VBLK,,AUTO
         1 015712   000000 471500                    LDP1    0,,PR0
         1 015713   011000 236003                    LDQ     4608,DU
         1 015714   100000 552140                    STBQ    0,'40'O,PR1

     2343    37595    4                           END;

     2344    37596                            %ENDPREDDO;

  37599  1 015715   200014 234100                    SZN     CONTINUING,,AUTO
         1 015716   020065 605000 1                  TPL     s:41916

  37599  1 015717   020773 701000 1                  TSX1    OOPS
         1 015720   000000 011000                    NOP     0
         1 015721   020065 710000 1                  TRA     s:41916

     2345    37601    3                   CASE( %XSS_SST_09);

     2346    37602                            %IFPREDDO( P="10&25&-34");

  37611  1 015722   400000 236003                    LDQ     -131072,DU
         1 015723   200014 756100                    STQ     CONTINUING,,AUTO
PL6.E3A0      #001=XSS$MACHINE File=XSS$MACHINE.:XSA1TSI                         WED 10/01/97 12:18 Page:538

  37657  1 015724   200011 236100                    LDQ     ZPINV,,AUTO
         1 015725   000200 316003                    CANQ    128,DU
         1 015726   015731 600000 1                  TZE     s:37666

  37657  1 015727   022342 701000 1                  TSX1    PRED10
         1 015730   020067 702000 1                  TSX2    ACTIONERR

  37666  1 015731   200006 236100                    LDQ     ZPRED,,AUTO
         1 015732   000200 316003                    CANQ    128,DU
         1 015733   016000 600000 1                  TZE     s:37910

  37727  1 015734   200011 236100                    LDQ     ZPINV,,AUTO
         1 015735   002000 316007                    CANQ    1024,DL
         1 015736   015741 600000 1                  TZE     s:37736

  37727  1 015737   023101 701000 1                  TSX1    PRED25
         1 015740   020067 702000 1                  TSX2    ACTIONERR

  37736  1 015741   200006 236100                    LDQ     ZPRED,,AUTO
         1 015742   002000 316007                    CANQ    1024,DL
         1 015743   016000 600000 1                  TZE     s:37910

  37829  1 015744   200011 236100                    LDQ     ZPINV,,AUTO
         1 015745   000002 316007                    CANQ    2,DL
         1 015746   015751 600000 1                  TZE     s:37839

  37829  1 015747   023325 701000 1                  TSX1    PRED34
         1 015750   020067 702000 1                  TSX2    ACTIONERR

  37839  1 015751   200006 236100                    LDQ     ZPRED,,AUTO
         1 015752   000002 316007                    CANQ    2,DL
         1 015753   016000 601000 1                  TNZ     s:37910

  37893  1 015754   200014 450100                    STZ     CONTINUING,,AUTO

     2347    37895    4                           IF SCTX.FLAGS.TEXP THEN
PL6.E3A0      #001=XSS$MACHINE File=XSS$MACHINE.:XSA1TSI                         WED 10/01/97 12:18 Page:539

  37895  1 015755   200003 470500                    LDP0    @VBLK,,AUTO
         1 015756   000000 471500                    LDP1    0,,PR0
         1 015757   100006 236100                    LDQ     6,,PR1
         1 015760   010000 316007                    CANQ    4096,DL
         1 015761   015766 600000 1                  TZE     s:37900

     2348    37896                                    %EVENT( EV=%XSS_SEV_PR_RS);

  37897  1 015762   000112 236000 2                  LDQ     74
         1 015763   200021 756100                    STQ     CONTINUING+5,,AUTO
         1 015764   020166 701000 1                  TSX1    EVNT
         1 015765   020066 702000 1                  TSX2    EVNTERR

     2349    37899                                %EVENT( EV=%XSS_SEV_RS_S);

  37900  1 015766   000200 236000 2                  LDQ     128
         1 015767   200021 756100                    STQ     CONTINUING+5,,AUTO
         1 015770   020166 701000 1                  TSX1    EVNT
         1 015771   020066 702000 1                  TSX2    EVNTERR

     2350    37902                                %ACTION16;

  37903  1 015772   021557 701000 1                  TSX1    ACTION16
         1 015773   020067 702000 1                  TSX2    ACTIONERR

     2351    37905    4                           SCTX.STATE = %XSS_SST_05A;

  37905  1 015774   200003 470500                    LDP0    @VBLK,,AUTO
         1 015775   000000 471500                    LDP1    0,,PR0
         1 015776   011000 236003                    LDQ     4608,DU
         1 015777   100000 552140                    STBQ    0,'40'O,PR1

     2352    37906    4                           END;

     2353    37907                            %ENDPREDDO;

PL6.E3A0      #001=XSS$MACHINE File=XSS$MACHINE.:XSA1TSI                         WED 10/01/97 12:18 Page:540
  37910  1 016000   200014 234100                    SZN     CONTINUING,,AUTO
         1 016001   020065 605000 1                  TPL     s:41916

  37910  1 016002   020773 701000 1                  TSX1    OOPS
         1 016003   000000 011000                    NOP     0
         1 016004   020065 710000 1                  TRA     s:41916

     2354    37912    3                   CASE( %XSS_SST_10A,

     2355    37913    3                         %XSS_SST_10B,
     2356    37914    3                         %XSS_SST_20);
     2357    37915                            %IFPREDDO( P="25");

  37924  1 016005   400000 236003                    LDQ     -131072,DU
         1 016006   200014 756100                    STQ     CONTINUING,,AUTO

  37984  1 016007   200011 236100                    LDQ     ZPINV,,AUTO
         1 016010   002000 316007                    CANQ    1024,DL
         1 016011   016014 600000 1                  TZE     s:37994

  37984  1 016012   023101 701000 1                  TSX1    PRED25
         1 016013   020067 702000 1                  TSX2    ACTIONERR

  37994  1 016014   200006 236100                    LDQ     ZPRED,,AUTO
         1 016015   002000 316007                    CANQ    1024,DL
         1 016016   016043 600000 1                  TZE     s:38030

  38013  1 016017   200014 450100                    STZ     CONTINUING,,AUTO

     2358    38015    4                           IF SCTX.FLAGS.TEXP THEN

  38015  1 016020   200003 470500                    LDP0    @VBLK,,AUTO
         1 016021   000000 471500                    LDP1    0,,PR0
         1 016022   100006 236100                    LDQ     6,,PR1
         1 016023   010000 316007                    CANQ    4096,DL
         1 016024   016031 600000 1                  TZE     s:38020

PL6.E3A0      #001=XSS$MACHINE File=XSS$MACHINE.:XSA1TSI                         WED 10/01/97 12:18 Page:541
     2359    38016                                    %EVENT( EV=%XSS_SEV_PR_RS);

  38017  1 016025   000112 236000 2                  LDQ     74
         1 016026   200021 756100                    STQ     CONTINUING+5,,AUTO
         1 016027   020166 701000 1                  TSX1    EVNT
         1 016030   020066 702000 1                  TSX2    EVNTERR

     2360    38019                                %EVENT( EV=%XSS_SEV_RS_S);

  38020  1 016031   000200 236000 2                  LDQ     128
         1 016032   200021 756100                    STQ     CONTINUING+5,,AUTO
         1 016033   020166 701000 1                  TSX1    EVNT
         1 016034   020066 702000 1                  TSX2    EVNTERR

     2361    38022                                %ACTION16;

  38023  1 016035   021557 701000 1                  TSX1    ACTION16
         1 016036   020067 702000 1                  TSX2    ACTIONERR

     2362    38025    4                           SCTX.STATE = %XSS_SST_05A;

  38025  1 016037   200003 470500                    LDP0    @VBLK,,AUTO
         1 016040   000000 471500                    LDP1    0,,PR0
         1 016041   011000 236003                    LDQ     4608,DU
         1 016042   100000 552140                    STBQ    0,'40'O,PR1

     2363    38026    4                           END;

     2364    38027                            %ENDPREDDO;

  38030  1 016043   200014 234100                    SZN     CONTINUING,,AUTO
         1 016044   020065 605000 1                  TPL     s:41916

  38030  1 016045   020773 701000 1                  TSX1    OOPS
         1 016046   000000 011000                    NOP     0
         1 016047   020065 710000 1                  TRA     s:41916

PL6.E3A0      #001=XSS$MACHINE File=XSS$MACHINE.:XSA1TSI                         WED 10/01/97 12:18 Page:542
     2365    38032    3                   CASE( %XSS_SST_11A);

     2366    38033                            %IFPREDDO( P="24");

  38042  1 016050   400000 236003                    LDQ     -131072,DU
         1 016051   200014 756100                    STQ     CONTINUING,,AUTO

  38102  1 016052   200011 236100                    LDQ     ZPINV,,AUTO
         1 016053   004000 316007                    CANQ    2048,DL
         1 016054   016057 600000 1                  TZE     s:38112

  38102  1 016055   023063 701000 1                  TSX1    PRED24
         1 016056   020067 702000 1                  TSX2    ACTIONERR

  38112  1 016057   200006 236100                    LDQ     ZPRED,,AUTO
         1 016060   004000 316007                    CANQ    2048,DL
         1 016061   016106 600000 1                  TZE     s:38148

  38131  1 016062   200014 450100                    STZ     CONTINUING,,AUTO

     2367    38133    4                           IF SCTX.FLAGS.TEXP THEN

  38133  1 016063   200003 470500                    LDP0    @VBLK,,AUTO
         1 016064   000000 471500                    LDP1    0,,PR0
         1 016065   100006 236100                    LDQ     6,,PR1
         1 016066   010000 316007                    CANQ    4096,DL
         1 016067   016074 600000 1                  TZE     s:38138

     2368    38134                                    %EVENT( EV=%XSS_SEV_PR_RS);

  38135  1 016070   000112 236000 2                  LDQ     74
         1 016071   200021 756100                    STQ     CONTINUING+5,,AUTO
         1 016072   020166 701000 1                  TSX1    EVNT
         1 016073   020066 702000 1                  TSX2    EVNTERR

     2369    38137                                %EVENT( EV=%XSS_SEV_RS_S);

PL6.E3A0      #001=XSS$MACHINE File=XSS$MACHINE.:XSA1TSI                         WED 10/01/97 12:18 Page:543
  38138  1 016074   000200 236000 2                  LDQ     128
         1 016075   200021 756100                    STQ     CONTINUING+5,,AUTO
         1 016076   020166 701000 1                  TSX1    EVNT
         1 016077   020066 702000 1                  TSX2    EVNTERR

     2370    38140                                %ACTION16;

  38141  1 016100   021557 701000 1                  TSX1    ACTION16
         1 016101   020067 702000 1                  TSX2    ACTIONERR

     2371    38143    4                           SCTX.STATE = %XSS_SST_05A;

  38143  1 016102   200003 470500                    LDP0    @VBLK,,AUTO
         1 016103   000000 471500                    LDP1    0,,PR0
         1 016104   011000 236003                    LDQ     4608,DU
         1 016105   100000 552140                    STBQ    0,'40'O,PR1

     2372    38144    4                           END;

     2373    38145                            %ENDPREDDO;

  38148  1 016106   200014 234100                    SZN     CONTINUING,,AUTO
         1 016107   020065 605000 1                  TPL     s:41916

  38148  1 016110   020773 701000 1                  TSX1    OOPS
         1 016111   000000 011000                    NOP     0
         1 016112   020065 710000 1                  TRA     s:41916

     2374    38150    3                   CASE( %XSS_SST_15A);

     2375    38151                            %IFPREDDO( P="28&30");

  38160  1 016113   400000 236003                    LDQ     -131072,DU
         1 016114   200014 756100                    STQ     CONTINUING,,AUTO

  38206  1 016115   200011 236100                    LDQ     ZPINV,,AUTO
         1 016116   000200 316007                    CANQ    128,DL
PL6.E3A0      #001=XSS$MACHINE File=XSS$MACHINE.:XSA1TSI                         WED 10/01/97 12:18 Page:544
         1 016117   016122 600000 1                  TZE     s:38215

  38206  1 016120   023173 701000 1                  TSX1    PRED28
         1 016121   020067 702000 1                  TSX2    ACTIONERR

  38215  1 016122   200006 236100                    LDQ     ZPRED,,AUTO
         1 016123   000200 316007                    CANQ    128,DL
         1 016124   016163 600000 1                  TZE     s:38354

  38290  1 016125   200011 236100                    LDQ     ZPINV,,AUTO
         1 016126   000040 316007                    CANQ    32,DL
         1 016127   016132 600000 1                  TZE     s:38300

  38290  1 016130   023243 701000 1                  TSX1    PRED30
         1 016131   020067 702000 1                  TSX2    ACTIONERR

  38300  1 016132   200006 236100                    LDQ     ZPRED,,AUTO
         1 016133   000040 316007                    CANQ    32,DL
         1 016134   016163 600000 1                  TZE     s:38354

  38334  1 016135   200014 450100                    STZ     CONTINUING,,AUTO

     2376    38336    4                           IF SCTX.FLAGS.TEXP THEN

  38336  1 016136   200003 470500                    LDP0    @VBLK,,AUTO
         1 016137   000000 471500                    LDP1    0,,PR0
         1 016140   100006 236100                    LDQ     6,,PR1
         1 016141   010000 316007                    CANQ    4096,DL
         1 016142   016147 600000 1                  TZE     s:38341

     2377    38337                                    %EVENT( EV=%XSS_SEV_PR_RS);

  38338  1 016143   000112 236000 2                  LDQ     74
         1 016144   200021 756100                    STQ     CONTINUING+5,,AUTO
         1 016145   020166 701000 1                  TSX1    EVNT
         1 016146   020066 702000 1                  TSX2    EVNTERR

PL6.E3A0      #001=XSS$MACHINE File=XSS$MACHINE.:XSA1TSI                         WED 10/01/97 12:18 Page:545
     2378    38340                                %EVENT( EV=%XSS_SEV_RS_S);

  38341  1 016147   000200 236000 2                  LDQ     128
         1 016150   200021 756100                    STQ     CONTINUING+5,,AUTO
         1 016151   020166 701000 1                  TSX1    EVNT
         1 016152   020066 702000 1                  TSX2    EVNTERR

     2379    38343                                %ACTION16;

  38344  1 016153   021557 701000 1                  TSX1    ACTION16
         1 016154   020067 702000 1                  TSX2    ACTIONERR

     2380    38346    4                           SCTX.STATE = %XSS_SST_05A;

  38346  1 016155   200003 470500                    LDP0    @VBLK,,AUTO
         1 016156   000000 471500                    LDP1    0,,PR0
         1 016157   011000 236003                    LDQ     4608,DU
         1 016160   100000 552140                    STBQ    0,'40'O,PR1

     2381    38347                                %ACTION06;

  38348  1 016161   021255 701000 1                  TSX1    ACTION06
         1 016162   020067 702000 1                  TSX2    ACTIONERR

     2382    38350    4                           END;

     2383    38351                            %ENDPREDDO;

  38354  1 016163   200014 234100                    SZN     CONTINUING,,AUTO
         1 016164   020065 605000 1                  TPL     s:41916

  38354  1 016165   020773 701000 1                  TSX1    OOPS
         1 016166   000000 011000                    NOP     0
         1 016167   020065 710000 1                  TRA     s:41916

     2384    38356    3                   CASE( %XSS_SST_15B);

PL6.E3A0      #001=XSS$MACHINE File=XSS$MACHINE.:XSA1TSI                         WED 10/01/97 12:18 Page:546
     2385    38357                            %IFPREDDO( P="25&27");

  38366  1 016170   400000 236003                    LDQ     -131072,DU
         1 016171   200014 756100                    STQ     CONTINUING,,AUTO

  38412  1 016172   200011 236100                    LDQ     ZPINV,,AUTO
         1 016173   002000 316007                    CANQ    1024,DL
         1 016174   016177 600000 1                  TZE     s:38421

  38412  1 016175   023101 701000 1                  TSX1    PRED25
         1 016176   020067 702000 1                  TSX2    ACTIONERR

  38421  1 016177   200006 236100                    LDQ     ZPRED,,AUTO
         1 016200   002000 316007                    CANQ    1024,DL
         1 016201   016236 600000 1                  TZE     s:38557

  38496  1 016202   200011 236100                    LDQ     ZPINV,,AUTO
         1 016203   000400 316007                    CANQ    256,DL
         1 016204   016207 600000 1                  TZE     s:38506

  38496  1 016205   023160 701000 1                  TSX1    PRED27
         1 016206   020067 702000 1                  TSX2    ACTIONERR

  38506  1 016207   200006 236100                    LDQ     ZPRED,,AUTO
         1 016210   000400 316007                    CANQ    256,DL
         1 016211   016236 600000 1                  TZE     s:38557

  38540  1 016212   200014 450100                    STZ     CONTINUING,,AUTO

     2386    38542    4                           IF SCTX.FLAGS.TEXP THEN

  38542  1 016213   200003 470500                    LDP0    @VBLK,,AUTO
         1 016214   000000 471500                    LDP1    0,,PR0
         1 016215   100006 236100                    LDQ     6,,PR1
         1 016216   010000 316007                    CANQ    4096,DL
         1 016217   016224 600000 1                  TZE     s:38547

PL6.E3A0      #001=XSS$MACHINE File=XSS$MACHINE.:XSA1TSI                         WED 10/01/97 12:18 Page:547
     2387    38543                                    %EVENT( EV=%XSS_SEV_PR_RS);

  38544  1 016220   000112 236000 2                  LDQ     74
         1 016221   200021 756100                    STQ     CONTINUING+5,,AUTO
         1 016222   020166 701000 1                  TSX1    EVNT
         1 016223   020066 702000 1                  TSX2    EVNTERR

     2388    38546                                %EVENT( EV=%XSS_SEV_RS_S);

  38547  1 016224   000200 236000 2                  LDQ     128
         1 016225   200021 756100                    STQ     CONTINUING+5,,AUTO
         1 016226   020166 701000 1                  TSX1    EVNT
         1 016227   020066 702000 1                  TSX2    EVNTERR

     2389    38549                                %ACTION16;

  38550  1 016230   021557 701000 1                  TSX1    ACTION16
         1 016231   020067 702000 1                  TSX2    ACTIONERR

     2390    38552    4                           SCTX.STATE = %XSS_SST_06;

  38552  1 016232   200003 470500                    LDP0    @VBLK,,AUTO
         1 016233   000000 471500                    LDP1    0,,PR0
         1 016234   014000 236003                    LDQ     6144,DU
         1 016235   100000 552140                    STBQ    0,'40'O,PR1

     2391    38553    4                           END;

     2392    38554                            %ENDPREDDO;

  38557  1 016236   200014 234100                    SZN     CONTINUING,,AUTO
         1 016237   020065 605000 1                  TPL     s:41916

  38557  1 016240   020773 701000 1                  TSX1    OOPS
         1 016241   000000 011000                    NOP     0
         1 016242   020065 710000 1                  TRA     s:41916

PL6.E3A0      #001=XSS$MACHINE File=XSS$MACHINE.:XSA1TSI                         WED 10/01/97 12:18 Page:548
     2393    38559    3                   CASE( %XSS_SST_713);

     2394    38560                            %IFPREDDO( P="25&26");

  38569  1 016243   400000 236003                    LDQ     -131072,DU
         1 016244   200014 756100                    STQ     CONTINUING,,AUTO

  38615  1 016245   200011 236100                    LDQ     ZPINV,,AUTO
         1 016246   002000 316007                    CANQ    1024,DL
         1 016247   016252 600000 1                  TZE     s:38624

  38615  1 016250   023101 701000 1                  TSX1    PRED25
         1 016251   020067 702000 1                  TSX2    ACTIONERR

  38624  1 016252   200006 236100                    LDQ     ZPRED,,AUTO
         1 016253   002000 316007                    CANQ    1024,DL
         1 016254   016311 600000 1                  TZE     s:38760

  38699  1 016255   200011 236100                    LDQ     ZPINV,,AUTO
         1 016256   001000 316007                    CANQ    512,DL
         1 016257   016262 600000 1                  TZE     s:38709

  38699  1 016260   023133 701000 1                  TSX1    PRED26
         1 016261   020067 702000 1                  TSX2    ACTIONERR

  38709  1 016262   200006 236100                    LDQ     ZPRED,,AUTO
         1 016263   001000 316007                    CANQ    512,DL
         1 016264   016311 600000 1                  TZE     s:38760

  38743  1 016265   200014 450100                    STZ     CONTINUING,,AUTO

     2395    38745    4                           IF SCTX.FLAGS.TEXP THEN

  38745  1 016266   200003 470500                    LDP0    @VBLK,,AUTO
         1 016267   000000 471500                    LDP1    0,,PR0
         1 016270   100006 236100                    LDQ     6,,PR1
         1 016271   010000 316007                    CANQ    4096,DL
PL6.E3A0      #001=XSS$MACHINE File=XSS$MACHINE.:XSA1TSI                         WED 10/01/97 12:18 Page:549
         1 016272   016277 600000 1                  TZE     s:38750

     2396    38746                                    %EVENT( EV=%XSS_SEV_PR_RS);

  38747  1 016273   000112 236000 2                  LDQ     74
         1 016274   200021 756100                    STQ     CONTINUING+5,,AUTO
         1 016275   020166 701000 1                  TSX1    EVNT
         1 016276   020066 702000 1                  TSX2    EVNTERR

     2397    38749                                %EVENT( EV=%XSS_SEV_RS_S);

  38750  1 016277   000200 236000 2                  LDQ     128
         1 016300   200021 756100                    STQ     CONTINUING+5,,AUTO
         1 016301   020166 701000 1                  TSX1    EVNT
         1 016302   020066 702000 1                  TSX2    EVNTERR

     2398    38752                                %ACTION16;

  38753  1 016303   021557 701000 1                  TSX1    ACTION16
         1 016304   020067 702000 1                  TSX2    ACTIONERR

     2399    38755    4                           SCTX.STATE = %XSS_SST_05A;

  38755  1 016305   200003 470500                    LDP0    @VBLK,,AUTO
         1 016306   000000 471500                    LDP1    0,,PR0
         1 016307   011000 236003                    LDQ     4608,DU
         1 016310   100000 552140                    STBQ    0,'40'O,PR1

     2400    38756    4                           END;

     2401    38757                            %ENDPREDDO;

  38760  1 016311   200014 234100                    SZN     CONTINUING,,AUTO
         1 016312   020065 605000 1                  TPL     s:41916

  38760  1 016313   020773 701000 1                  TSX1    OOPS
         1 016314   000000 011000                    NOP     0
PL6.E3A0      #001=XSS$MACHINE File=XSS$MACHINE.:XSA1TSI                         WED 10/01/97 12:18 Page:550
         1 016315   020065 710000 1                  TRA     s:41916

     2402    38762    3                   CASE( ELSE);

     2403    38763                            %INVALID;

  38764  1 016316   020773 701000 1                  TSX1    OOPS
         1 016317   000000 011000                    NOP     0

     2404    38766    3                   END;

  38766  1 016320   020065 710000 1                  TRA     s:41916

     2405    38767        %EJECT;
PL6.E3A0      #001=XSS$MACHINE File=XSS$MACHINE.:XSA1TSI                         WED 10/01/97 12:18 Page:551
     2406    38768        /*****************************************************************************
     2407    38769        *
     2408    38770        *       SRSXRSP         S-RESYNCHRONIZE Response
     2409    38771        *
     2410    38772        *****************************************************************************/
     2411    38773    2           CASE( %XSS_SEV_SRSXRSP);                        /* TABLE 48 */

     2412    38774    3               IF SCTX.STATE = %XSS_SST_11A THEN DO;

  38774  1 016321   000000 471500                    LDP1    0,,PR0
         1 016322   100000 236100                    LDQ     0,,PR1
         1 016323   777000 376003                    ANQ     -512,DU
         1 016324   021000 116003                    CMPQ    8704,DU
         1 016325   016373 601000 1                  TNZ     s:38898

     2413    38775                        %IFPREDDO( P="43");

  38784  1 016326   400000 236003                    LDQ     -131072,DU
         1 016327   200014 756100                    STQ     CONTINUING,,AUTO

  38844  1 016330   200012 236100                    LDQ     ZPINV+1,,AUTO
         1 016331   002000 316003                    CANQ    1024,DU
         1 016332   016335 600000 1                  TZE     s:38854

  38844  1 016333   023536 701000 1                  TSX1    PRED43
         1 016334   020067 702000 1                  TSX2    ACTIONERR

  38854  1 016335   200007 236100                    LDQ     ZPRED+1,,AUTO
         1 016336   002000 316003                    CANQ    1024,DU
         1 016337   016366 600000 1                  TZE     s:38893

  38873  1 016340   200014 450100                    STZ     CONTINUING,,AUTO

     2414    38875    4                       IF SCTX.FLAGS.TEXP THEN

  38875  1 016341   200003 470500                    LDP0    @VBLK,,AUTO
         1 016342   000000 471500                    LDP1    0,,PR0
PL6.E3A0      #001=XSS$MACHINE File=XSS$MACHINE.:XSA1TSI                         WED 10/01/97 12:18 Page:552
         1 016343   100006 236100                    LDQ     6,,PR1
         1 016344   010000 316007                    CANQ    4096,DL
         1 016345   016352 600000 1                  TZE     s:38880

     2415    38876                                %EVENT( EV=%XSS_SEV_PR_RA);

  38877  1 016346   000116 236000 2                  LDQ     78
         1 016347   200021 756100                    STQ     CONTINUING+5,,AUTO
         1 016350   020166 701000 1                  TSX1    EVNT
         1 016351   020066 702000 1                  TSX2    EVNTERR

     2416    38879                            %EVENT( EV=%XSS_SEV_RA);

  38880  1 016352   000202 236000 2                  LDQ     130
         1 016353   200021 756100                    STQ     CONTINUING+5,,AUTO
         1 016354   020166 701000 1                  TSX1    EVNT
         1 016355   020066 702000 1                  TSX2    EVNTERR

     2417    38882                            %ACTION28;

  38883  1 016356   022021 701000 1                  TSX1    ACTION28
         1 016357   020067 702000 1                  TSX2    ACTIONERR

     2418    38885                            %ACTION11;

  38886  1 016360   021364 701000 1                  TSX1    ACTION11
         1 016361   020067 702000 1                  TSX2    ACTIONERR

     2419    38888    4                       SCTX.STATE = %XSS_SST_713;

  38888  1 016362   200003 470500                    LDP0    @VBLK,,AUTO
         1 016363   000000 471500                    LDP1    0,,PR0
         1 016364   035000 236003                    LDQ     14848,DU
         1 016365   100000 552140                    STBQ    0,'40'O,PR1

     2420    38889    4                       END;

PL6.E3A0      #001=XSS$MACHINE File=XSS$MACHINE.:XSA1TSI                         WED 10/01/97 12:18 Page:553
     2421    38890                        %ENDPREDDO;

  38893  1 016366   200014 234100                    SZN     CONTINUING,,AUTO
         1 016367   020065 605000 1                  TPL     s:41916

  38893  1 016370   020773 701000 1                  TSX1    OOPS
         1 016371   000000 011000                    NOP     0

     2422    38895    3                   END;

  38895  1 016372   020065 710000 1                  TRA     s:41916

     2423    38896    2               ELSE
     2424    38897                        %INVALID;

  38898  1 016373   020773 701000 1                  TSX1    OOPS
         1 016374   000000 011000                    NOP     0
         1 016375   020065 710000 1                  TRA     s:41916

     2425    38900        %EJECT;
PL6.E3A0      #001=XSS$MACHINE File=XSS$MACHINE.:XSA1TSI                         WED 10/01/97 12:18 Page:554
     2426    38901        /*****************************************************************************
     2427    38902        *
     2428    38903        *       SSMAREQ         S-SYNC-MAJOR Request
     2429    38904        *
     2430    38905        *****************************************************************************/
     2431    38906    2           CASE( %XSS_SEV_SSMAREQ);                        /* TABLE 47 */

     2432    38907    3               DO SELECT( SCTX.STATE);

  38907  1 016376   000000 471500                    LDP1    0,,PR0
         1 016377   100000 236100                    LDQ     0,,PR1
         1 016400   000033 772000                    QRL     27
         1 016401   000025 116007                    CMPQ    21,DL
         1 016402   016464 602000 1                  TNC     s:39135
         1 016403   016410 600000 1                  TZE     s:38918
         1 016404   000033 736000                    QLS     27
         1 016405   035000 116003                    CMPQ    14848,DU
         1 016406   016464 601000 1                  TNZ     s:39135
         1 016407   016430 710000 1                  TRA     s:39026

     2433    38908    3                   SELECT( %XSS_SST_15B);

     2434    38909                            %IFPREDDO( P="13");

  38918  1 016410   400000 236003                    LDQ     -131072,DU
         1 016411   200014 756100                    STQ     CONTINUING,,AUTO

  38978  1 016412   200011 236100                    LDQ     ZPINV,,AUTO
         1 016413   000020 316003                    CANQ    16,DU
         1 016414   016417 600000 1                  TZE     s:38988

  38978  1 016415   022450 701000 1                  TSX1    PRED13
         1 016416   020067 702000 1                  TSX2    ACTIONERR

  38988  1 016417   200006 236100                    LDQ     ZPRED,,AUTO
         1 016420   000020 316003                    CANQ    16,DU
         1 016421   016423 600000 1                  TZE     s:39014
PL6.E3A0      #001=XSS$MACHINE File=XSS$MACHINE.:XSA1TSI                         WED 10/01/97 12:18 Page:555

  39007  1 016422   200014 450100                    STZ     CONTINUING,,AUTO

     2435    39009    4                           ;  /* don't do anything */
     2436    39010    4                           END;

     2437    39011                            %ENDPREDDO;

  39014  1 016423   200014 234100                    SZN     CONTINUING,,AUTO
         1 016424   020065 605000 1                  TPL     s:41916

  39014  1 016425   020773 701000 1                  TSX1    OOPS
         1 016426   000000 011000                    NOP     0
         1 016427   020065 710000 1                  TRA     s:41916

     2438    39016    3                   SELECT( %XSS_SST_713);

     2439    39017                            %IFPREDDO( P="13");

  39026  1 016430   400000 236003                    LDQ     -131072,DU
         1 016431   200014 756100                    STQ     CONTINUING,,AUTO

  39086  1 016432   200011 236100                    LDQ     ZPINV,,AUTO
         1 016433   000020 316003                    CANQ    16,DU
         1 016434   016437 600000 1                  TZE     s:39096

  39086  1 016435   022450 701000 1                  TSX1    PRED13
         1 016436   020067 702000 1                  TSX2    ACTIONERR

  39096  1 016437   200006 236100                    LDQ     ZPRED,,AUTO
         1 016440   000020 316003                    CANQ    16,DU
         1 016441   016457 600000 1                  TZE     s:39131

  39115  1 016442   200014 450100                    STZ     CONTINUING,,AUTO

     2440    39117                                %EVENT( EV=%XSS_SEV_MAP);

PL6.E3A0      #001=XSS$MACHINE File=XSS$MACHINE.:XSA1TSI                         WED 10/01/97 12:18 Page:556
  39118  1 016443   000204 236000 2                  LDQ     132
         1 016444   200021 756100                    STQ     CONTINUING+5,,AUTO
         1 016445   020166 701000 1                  TSX1    EVNT
         1 016446   020066 702000 1                  TSX2    EVNTERR

     2441    39120                                %ACTION13;

  39121  1 016447   021525 701000 1                  TSX1    ACTION13
         1 016450   020067 702000 1                  TSX2    ACTIONERR

     2442    39123                                %ACTION24;

  39124  1 016451   021741 701000 1                  TSX1    ACTION24
         1 016452   020067 702000 1                  TSX2    ACTIONERR

     2443    39126    4                           SCTX.STATE = %XSS_SST_04A;

  39126  1 016453   200003 470500                    LDP0    @VBLK,,AUTO
         1 016454   000000 471500                    LDP1    0,,PR0
         1 016455   007000 236003                    LDQ     3584,DU
         1 016456   100000 552140                    STBQ    0,'40'O,PR1

     2444    39127    4                           END;

     2445    39128                            %ENDPREDDO;

  39131  1 016457   200014 234100                    SZN     CONTINUING,,AUTO
         1 016460   020065 605000 1                  TPL     s:41916

  39131  1 016461   020773 701000 1                  TSX1    OOPS
         1 016462   000000 011000                    NOP     0
         1 016463   020065 710000 1                  TRA     s:41916

     2446    39133    3                   SELECT( ELSE);

     2447    39134                            %INVALID;

PL6.E3A0      #001=XSS$MACHINE File=XSS$MACHINE.:XSA1TSI                         WED 10/01/97 12:18 Page:557
  39135  1 016464   020773 701000 1                  TSX1    OOPS
         1 016465   000000 011000                    NOP     0

     2448    39137    3                   END;

  39137  1 016466   020065 710000 1                  TRA     s:41916

     2449    39138        %EJECT;
PL6.E3A0      #001=XSS$MACHINE File=XSS$MACHINE.:XSA1TSI                         WED 10/01/97 12:18 Page:558
     2450    39139        /*****************************************************************************
     2451    39140        *
     2452    39141        *       SSMARSP         S-SYNC-MAJOR Response
     2453    39142        *
     2454    39143        *****************************************************************************/
     2455    39144    2           CASE( %XSS_SEV_SSMARSP);                        /* TABLE 47 */

     2456    39145    3               DO SELECT( SCTX.STATE);

  39145  1 016467   000000 471500                    LDP1    0,,PR0
         1 016470   100000 236100                    LDQ     0,,PR1
         1 016471   000033 772000                    QRL     27
         1 016472   000017 116007                    CMPQ    15,DL
         1 016473   016526 602000 1                  TNC     s:39165
         1 016474   016501 600000 1                  TZE     s:39147
         1 016475   000033 736000                    QLS     27
         1 016476   025000 116003                    CMPQ    10752,DU
         1 016477   016526 601000 1                  TNZ     s:39165
         1 016500   016525 710000 1                  TRA     s:39161

     2457    39146    3                   SELECT( %XSS_SST_10A);

     2458    39147    3                       IF SCTX.FLAGS.TEXP THEN

  39147  1 016501   100006 236100                    LDQ     6,,PR1
         1 016502   010000 316007                    CANQ    4096,DL
         1 016503   016510 600000 1                  TZE     s:39152

     2459    39148                                %EVENT( EV=%XSS_SEV_PR_MAA);

  39149  1 016504   000124 236000 2                  LDQ     84
         1 016505   200021 756100                    STQ     CONTINUING+5,,AUTO
         1 016506   020166 701000 1                  TSX1    EVNT
         1 016507   020066 702000 1                  TSX2    EVNTERR

     2460    39151                            %EVENT( EV=%XSS_SEV_MAA);

