PL6.E3A0      #001=XSS$MACHINE File=XSS$MACHINE.:XSA1TSI                         WED 10/01/97 12:18 Page:559
  39152  1 016510   000206 236000 2                  LDQ     134
         1 016511   200021 756100                    STQ     CONTINUING+5,,AUTO
         1 016512   020166 701000 1                  TSX1    EVNT
         1 016513   020066 702000 1                  TSX2    EVNTERR

     2461    39154                            %ACTION14;

  39155  1 016514   021544 701000 1                  TSX1    ACTION14
         1 016515   020067 702000 1                  TSX2    ACTIONERR

     2462    39157                            %ACTION22;

  39158  1 016516   021706 701000 1                  TSX1    ACTION22
         1 016517   020067 702000 1                  TSX2    ACTIONERR

     2463    39160    3                       SCTX.STATE = %XSS_SST_713;

  39160  1 016520   200003 470500                    LDP0    @VBLK,,AUTO
         1 016521   000000 471500                    LDP1    0,,PR0
         1 016522   035000 236003                    LDQ     14848,DU
         1 016523   100000 552140                    STBQ    0,'40'O,PR1
         1 016524   020065 710000 1                  TRA     s:41916

     2464    39161    3                   SELECT( %XSS_SST_15B);

  39161  1 016525   020065 710000 1                  TRA     s:41916

     2465    39162    3                       ;  /* don't do anything */
     2466    39163    3                   SELECT( ELSE);

     2467    39164                            %INVALID;

  39165  1 016526   020773 701000 1                  TSX1    OOPS
         1 016527   000000 011000                    NOP     0

     2468    39167    3                   END;

PL6.E3A0      #001=XSS$MACHINE File=XSS$MACHINE.:XSA1TSI                         WED 10/01/97 12:18 Page:560
  39167  1 016530   020065 710000 1                  TRA     s:41916

     2469    39168        %EJECT;
PL6.E3A0      #001=XSS$MACHINE File=XSS$MACHINE.:XSA1TSI                         WED 10/01/97 12:18 Page:561
     2470    39169        /*****************************************************************************
     2471    39170        *
     2472    39171        *       SSMIREQ         S-SYNC-MINOR Request
     2473    39172        *
     2474    39173        *****************************************************************************/
     2475    39174    2           CASE( %XSS_SEV_SSMIREQ);                        /* TABLE 47 */

     2476    39175    3               DO SELECT( SCTX.STATE);

  39175  1 016531   000000 471500                    LDP1    0,,PR0
         1 016532   100000 236100                    LDQ     0,,PR1
         1 016533   000033 772000                    QRL     27
         1 016534   000025 116007                    CMPQ    21,DL
         1 016535   016611 602000 1                  TNC     s:39399
         1 016536   016543 600000 1                  TZE     s:39186
         1 016537   000033 736000                    QLS     27
         1 016540   035000 116003                    CMPQ    14848,DU
         1 016541   016611 601000 1                  TNZ     s:39399
         1 016542   016563 710000 1                  TRA     s:39294

     2477    39176    3                   SELECT( %XSS_SST_15B);

     2478    39177                            %IFPREDDO( P="15");

  39186  1 016543   400000 236003                    LDQ     -131072,DU
         1 016544   200014 756100                    STQ     CONTINUING,,AUTO

  39246  1 016545   200011 236100                    LDQ     ZPINV,,AUTO
         1 016546   000004 316003                    CANQ    4,DU
         1 016547   016552 600000 1                  TZE     s:39256

  39246  1 016550   022572 701000 1                  TSX1    PRED15
         1 016551   020067 702000 1                  TSX2    ACTIONERR

  39256  1 016552   200006 236100                    LDQ     ZPRED,,AUTO
         1 016553   000004 316003                    CANQ    4,DU
         1 016554   016556 600000 1                  TZE     s:39282
PL6.E3A0      #001=XSS$MACHINE File=XSS$MACHINE.:XSA1TSI                         WED 10/01/97 12:18 Page:562

  39275  1 016555   200014 450100                    STZ     CONTINUING,,AUTO

     2479    39277    4                           ;  /* don't do anything */
     2480    39278    4                           END;

     2481    39279                            %ENDPREDDO;

  39282  1 016556   200014 234100                    SZN     CONTINUING,,AUTO
         1 016557   020065 605000 1                  TPL     s:41916

  39282  1 016560   020773 701000 1                  TSX1    OOPS
         1 016561   000000 011000                    NOP     0
         1 016562   020065 710000 1                  TRA     s:41916

     2482    39284    3                   SELECT( %XSS_SST_713);

     2483    39285                            %IFPREDDO( P="15");

  39294  1 016563   400000 236003                    LDQ     -131072,DU
         1 016564   200014 756100                    STQ     CONTINUING,,AUTO

  39354  1 016565   200011 236100                    LDQ     ZPINV,,AUTO
         1 016566   000004 316003                    CANQ    4,DU
         1 016567   016572 600000 1                  TZE     s:39364

  39354  1 016570   022572 701000 1                  TSX1    PRED15
         1 016571   020067 702000 1                  TSX2    ACTIONERR

  39364  1 016572   200006 236100                    LDQ     ZPRED,,AUTO
         1 016573   000004 316003                    CANQ    4,DU
         1 016574   016604 600000 1                  TZE     s:39395

  39383  1 016575   200014 450100                    STZ     CONTINUING,,AUTO

     2484    39385                                %EVENT( EV=%XSS_SEV_MIP);

PL6.E3A0      #001=XSS$MACHINE File=XSS$MACHINE.:XSA1TSI                         WED 10/01/97 12:18 Page:563
  39386  1 016576   000210 236000 2                  LDQ     136
         1 016577   200021 756100                    STQ     CONTINUING+5,,AUTO
         1 016600   020166 701000 1                  TSX1    EVNT
         1 016601   020066 702000 1                  TSX2    EVNTERR

     2485    39388                                %ACTION24;

  39389  1 016602   021741 701000 1                  TSX1    ACTION24
         1 016603   020067 702000 1                  TSX2    ACTIONERR

     2486    39391    4                           END;

     2487    39392                            %ENDPREDDO;

  39395  1 016604   200014 234100                    SZN     CONTINUING,,AUTO
         1 016605   020065 605000 1                  TPL     s:41916

  39395  1 016606   020773 701000 1                  TSX1    OOPS
         1 016607   000000 011000                    NOP     0
         1 016610   020065 710000 1                  TRA     s:41916

     2488    39397    3                   SELECT( ELSE);

     2489    39398                            %INVALID;

  39399  1 016611   020773 701000 1                  TSX1    OOPS
         1 016612   000000 011000                    NOP     0

     2490    39401    3                   END;

  39401  1 016613   020065 710000 1                  TRA     s:41916

     2491    39402        %EJECT;
PL6.E3A0      #001=XSS$MACHINE File=XSS$MACHINE.:XSA1TSI                         WED 10/01/97 12:18 Page:564
     2492    39403        /*****************************************************************************
     2493    39404        *
     2494    39405        *       SSMIRSP         S-SYNC-MINOR Response
     2495    39406        *
     2496    39407        *****************************************************************************/
     2497    39408    2           CASE( %XSS_SEV_SSMIRSP);                        /* TABLE 47 */

     2498    39409    3               DO CASE( SCTX.STATE);

  39409  1 016614   000000 471500                    LDP1    0,,PR0
         1 016615   100000 236100                    LDQ     0,,PR1
         1 016616   000033 772000                    QRL     27
         1 016617   000016 136007                    SBLQ    14,DL
         1 016620   000020 116007                    CMPQ    16,DL
         1 016621   016623 602006 1                  TNC     s:39409+7,QL
         1 016622   016777 710000 1                  TRA     s:40111
         1 016623   016643 710000 1                  TRA     s:39421
         1 016624   016701 710000 1                  TRA     s:39620
         1 016625   016701 710000 1                  TRA     s:39620
         1 016626   016777 710000 1                  TRA     s:40111
         1 016627   016777 710000 1                  TRA     s:40111
         1 016630   016777 710000 1                  TRA     s:40111
         1 016631   016777 710000 1                  TRA     s:40111
         1 016632   016747 710000 1                  TRA     s:39926
         1 016633   016777 710000 1                  TRA     s:40111
         1 016634   016777 710000 1                  TRA     s:40111
         1 016635   016777 710000 1                  TRA     s:40111
         1 016636   016777 710000 1                  TRA     s:40111
         1 016637   016777 710000 1                  TRA     s:40111
         1 016640   016777 710000 1                  TRA     s:40111
         1 016641   016777 710000 1                  TRA     s:40111
         1 016642   016643 710000 1                  TRA     s:39421

     2499    39410    3                   CASE( %XSS_SST_09,

     2500    39411    3                         %XSS_SST_713);
     2501    39412                            %IFPREDDO( P="18&21");
PL6.E3A0      #001=XSS$MACHINE File=XSS$MACHINE.:XSA1TSI                         WED 10/01/97 12:18 Page:565

  39421  1 016643   400000 236003                    LDQ     -131072,DU
         1 016644   200014 756100                    STQ     CONTINUING,,AUTO

  39467  1 016645   200011 236100                    LDQ     ZPINV,,AUTO
         1 016646   400000 316007                    CANQ    -131072,DL
         1 016647   016652 600000 1                  TZE     s:39476

  39467  1 016650   022721 701000 1                  TSX1    PRED18
         1 016651   020067 702000 1                  TSX2    ACTIONERR

  39476  1 016652   200006 236100                    LDQ     ZPRED,,AUTO
         1 016653   400000 316007                    CANQ    -131072,DL
         1 016654   016674 600000 1                  TZE     s:39607

  39551  1 016655   200011 236100                    LDQ     ZPINV,,AUTO
         1 016656   040000 316007                    CANQ    16384,DL
         1 016657   016662 600000 1                  TZE     s:39561

  39551  1 016660   023020 701000 1                  TSX1    PRED21
         1 016661   020067 702000 1                  TSX2    ACTIONERR

  39561  1 016662   200006 236100                    LDQ     ZPRED,,AUTO
         1 016663   040000 316007                    CANQ    16384,DL
         1 016664   016674 600000 1                  TZE     s:39607

  39595  1 016665   200014 450100                    STZ     CONTINUING,,AUTO

     2502    39597                                %EVENT( EV=%XSS_SEV_MIA);

  39598  1 016666   000212 236000 2                  LDQ     138
         1 016667   200021 756100                    STQ     CONTINUING+5,,AUTO
         1 016670   020166 701000 1                  TSX1    EVNT
         1 016671   020066 702000 1                  TSX2    EVNTERR

     2503    39600                                %ACTION25;

PL6.E3A0      #001=XSS$MACHINE File=XSS$MACHINE.:XSA1TSI                         WED 10/01/97 12:18 Page:566
  39601  1 016672   021761 701000 1                  TSX1    ACTION25
         1 016673   020067 702000 1                  TSX2    ACTIONERR

     2504    39603    4                           END;

     2505    39604                            %ENDPREDDO;

  39607  1 016674   200014 234100                    SZN     CONTINUING,,AUTO
         1 016675   020065 605000 1                  TPL     s:41916

  39607  1 016676   020773 701000 1                  TSX1    OOPS
         1 016677   000000 011000                    NOP     0
         1 016700   020065 710000 1                  TRA     s:41916

     2506    39609    3                   CASE( %XSS_SST_10A,

     2507    39610    3                         %XSS_SST_10B);
     2508    39611                            %IFPREDDO( P="18&-20&21");

  39620  1 016701   400000 236003                    LDQ     -131072,DU
         1 016702   200014 756100                    STQ     CONTINUING,,AUTO

  39666  1 016703   200011 236100                    LDQ     ZPINV,,AUTO
         1 016704   400000 316007                    CANQ    -131072,DL
         1 016705   016710 600000 1                  TZE     s:39675

  39666  1 016706   022721 701000 1                  TSX1    PRED18
         1 016707   020067 702000 1                  TSX2    ACTIONERR

  39675  1 016710   200006 236100                    LDQ     ZPRED,,AUTO
         1 016711   400000 316007                    CANQ    -131072,DL
         1 016712   016742 600000 1                  TZE     s:39914

  39754  1 016713   200011 236100                    LDQ     ZPINV,,AUTO
         1 016714   100000 316007                    CANQ    32768,DL
         1 016715   016720 600000 1                  TZE     s:39763

PL6.E3A0      #001=XSS$MACHINE File=XSS$MACHINE.:XSA1TSI                         WED 10/01/97 12:18 Page:567
  39754  1 016716   023002 701000 1                  TSX1    PRED20
         1 016717   020067 702000 1                  TSX2    ACTIONERR

  39763  1 016720   200006 236100                    LDQ     ZPRED,,AUTO
         1 016721   100000 316007                    CANQ    32768,DL
         1 016722   016742 601000 1                  TNZ     s:39914

  39838  1 016723   200011 236100                    LDQ     ZPINV,,AUTO
         1 016724   040000 316007                    CANQ    16384,DL
         1 016725   016730 600000 1                  TZE     s:39848

  39838  1 016726   023020 701000 1                  TSX1    PRED21
         1 016727   020067 702000 1                  TSX2    ACTIONERR

  39848  1 016730   200006 236100                    LDQ     ZPRED,,AUTO
         1 016731   040000 316007                    CANQ    16384,DL
         1 016732   016742 600000 1                  TZE     s:39914

  39902  1 016733   200014 450100                    STZ     CONTINUING,,AUTO

     2509    39904                                %EVENT( EV=%XSS_SEV_MIA);

  39905  1 016734   000212 236000 2                  LDQ     138
         1 016735   200021 756100                    STQ     CONTINUING+5,,AUTO
         1 016736   020166 701000 1                  TSX1    EVNT
         1 016737   020066 702000 1                  TSX2    EVNTERR

     2510    39907                                %ACTION25;

  39908  1 016740   021761 701000 1                  TSX1    ACTION25
         1 016741   020067 702000 1                  TSX2    ACTIONERR

     2511    39910    4                           END;

     2512    39911                            %ENDPREDDO;

  39914  1 016742   200014 234100                    SZN     CONTINUING,,AUTO
PL6.E3A0      #001=XSS$MACHINE File=XSS$MACHINE.:XSA1TSI                         WED 10/01/97 12:18 Page:568
         1 016743   020065 605000 1                  TPL     s:41916

  39914  1 016744   020773 701000 1                  TSX1    OOPS
         1 016745   000000 011000                    NOP     0
         1 016746   020065 710000 1                  TRA     s:41916

     2513    39916    3                   CASE( %XSS_SST_15B);

     2514    39917                            %IFPREDDO( P="18&21");

  39926  1 016747   400000 236003                    LDQ     -131072,DU
         1 016750   200014 756100                    STQ     CONTINUING,,AUTO

  39972  1 016751   200011 236100                    LDQ     ZPINV,,AUTO
         1 016752   400000 316007                    CANQ    -131072,DL
         1 016753   016756 600000 1                  TZE     s:39981

  39972  1 016754   022721 701000 1                  TSX1    PRED18
         1 016755   020067 702000 1                  TSX2    ACTIONERR

  39981  1 016756   200006 236100                    LDQ     ZPRED,,AUTO
         1 016757   400000 316007                    CANQ    -131072,DL
         1 016760   016772 600000 1                  TZE     s:40107

  40056  1 016761   200011 236100                    LDQ     ZPINV,,AUTO
         1 016762   040000 316007                    CANQ    16384,DL
         1 016763   016766 600000 1                  TZE     s:40066

  40056  1 016764   023020 701000 1                  TSX1    PRED21
         1 016765   020067 702000 1                  TSX2    ACTIONERR

  40066  1 016766   200006 236100                    LDQ     ZPRED,,AUTO
         1 016767   040000 316007                    CANQ    16384,DL
         1 016770   016772 600000 1                  TZE     s:40107

  40100  1 016771   200014 450100                    STZ     CONTINUING,,AUTO

PL6.E3A0      #001=XSS$MACHINE File=XSS$MACHINE.:XSA1TSI                         WED 10/01/97 12:18 Page:569
     2515    40102    4                           ;  /* don't do anything */

     2516    40103    4                           END;

     2517    40104                            %ENDPREDDO;

  40107  1 016772   200014 234100                    SZN     CONTINUING,,AUTO
         1 016773   020065 605000 1                  TPL     s:41916

  40107  1 016774   020773 701000 1                  TSX1    OOPS
         1 016775   000000 011000                    NOP     0
         1 016776   020065 710000 1                  TRA     s:41916

     2518    40109    3                   CASE( ELSE);

     2519    40110                            %INVALID;

  40111  1 016777   020773 701000 1                  TSX1    OOPS
         1 017000   000000 011000                    NOP     0

     2520    40113    3                   END;

  40113  1 017001   020065 710000 1                  TRA     s:41916

     2521    40114        %EJECT;
PL6.E3A0      #001=XSS$MACHINE File=XSS$MACHINE.:XSA1TSI                         WED 10/01/97 12:18 Page:570
     2522    40115        /*****************************************************************************
     2523    40116        *
     2524    40117        *       STKGREQ         S-TOKEN-GIVE Request
     2525    40118        *
     2526    40119        *****************************************************************************/
     2527    40120    2           CASE( %XSS_SEV_STKGREQ);                        /* TABLE 51 */

     2528    40121    3               DO CASE( SCTX.STATE);

  40121  1 017002   000000 471500                    LDP1    0,,PR0
         1 017003   100000 236100                    LDQ     0,,PR1
         1 017004   000033 772000                    QRL     27
         1 017005   000007 136007                    SBLQ    7,DL
         1 017006   000027 116007                    CMPQ    23,DL
         1 017007   017011 602006 1                  TNC     s:40121+7,QL
         1 017010   017161 710000 1                  TRA     s:40568
         1 017011   017040 710000 1                  TRA     s:40137
         1 017012   017040 710000 1                  TRA     s:40137
         1 017013   017161 710000 1                  TRA     s:40568
         1 017014   017161 710000 1                  TRA     s:40568
         1 017015   017161 710000 1                  TRA     s:40568
         1 017016   017161 710000 1                  TRA     s:40568
         1 017017   017161 710000 1                  TRA     s:40568
         1 017020   017161 710000 1                  TRA     s:40568
         1 017021   017040 710000 1                  TRA     s:40137
         1 017022   017040 710000 1                  TRA     s:40137
         1 017023   017161 710000 1                  TRA     s:40568
         1 017024   017161 710000 1                  TRA     s:40568
         1 017025   017161 710000 1                  TRA     s:40568
         1 017026   017040 710000 1                  TRA     s:40137
         1 017027   017066 710000 1                  TRA     s:40250
         1 017030   017161 710000 1                  TRA     s:40568
         1 017031   017161 710000 1                  TRA     s:40568
         1 017032   017161 710000 1                  TRA     s:40568
         1 017033   017161 710000 1                  TRA     s:40568
         1 017034   017106 710000 1                  TRA     s:40358
         1 017035   017161 710000 1                  TRA     s:40568
PL6.E3A0      #001=XSS$MACHINE File=XSS$MACHINE.:XSA1TSI                         WED 10/01/97 12:18 Page:571
         1 017036   017161 710000 1                  TRA     s:40568
         1 017037   017040 710000 1                  TRA     s:40137

     2529    40122    3                   CASE( %XSS_SST_04A,

     2530    40123    3                         %XSS_SST_04B,
     2531    40124    3                         %XSS_SST_10A,
     2532    40125    3                         %XSS_SST_10B,
     2533    40126    3                         %XSS_SST_15A,
     2534    40127    3                         %XSS_SST_713);
     2535    40128                            %IFPREDDO( P="54");

  40137  1 017040   400000 236003                    LDQ     -131072,DU
         1 017041   200014 756100                    STQ     CONTINUING,,AUTO

  40197  1 017042   200012 236100                    LDQ     ZPINV+1,,AUTO
         1 017043   400000 316007                    CANQ    -131072,DL
         1 017044   017047 600000 1                  TZE     s:40207

  40197  1 017045   024346 701000 1                  TSX1    PRED54
         1 017046   020067 702000 1                  TSX2    ACTIONERR

  40207  1 017047   200007 236100                    LDQ     ZPRED+1,,AUTO
         1 017050   400000 316007                    CANQ    -131072,DL
         1 017051   017061 600000 1                  TZE     s:40238

  40226  1 017052   200014 450100                    STZ     CONTINUING,,AUTO

     2536    40228                                %EVENT( EV=%XSS_SEV_GT);

  40229  1 017053   000214 236000 2                  LDQ     140
         1 017054   200021 756100                    STQ     CONTINUING+5,,AUTO
         1 017055   020166 701000 1                  TSX1    EVNT
         1 017056   020066 702000 1                  TSX2    EVNTERR

     2537    40231                                %ACTION11;

PL6.E3A0      #001=XSS$MACHINE File=XSS$MACHINE.:XSA1TSI                         WED 10/01/97 12:18 Page:572
  40232  1 017057   021364 701000 1                  TSX1    ACTION11
         1 017060   020067 702000 1                  TSX2    ACTIONERR

     2538    40234    4                           END;

     2539    40235                            %ENDPREDDO;

  40238  1 017061   200014 234100                    SZN     CONTINUING,,AUTO
         1 017062   020065 605000 1                  TPL     s:41916

  40238  1 017063   020773 701000 1                  TSX1    OOPS
         1 017064   000000 011000                    NOP     0
         1 017065   020065 710000 1                  TRA     s:41916

     2540    40240    3                   CASE( %XSS_SST_15B);

     2541    40241                            %IFPREDDO( P="54");

  40250  1 017066   400000 236003                    LDQ     -131072,DU
         1 017067   200014 756100                    STQ     CONTINUING,,AUTO

  40310  1 017070   200012 236100                    LDQ     ZPINV+1,,AUTO
         1 017071   400000 316007                    CANQ    -131072,DL
         1 017072   017075 600000 1                  TZE     s:40320

  40310  1 017073   024346 701000 1                  TSX1    PRED54
         1 017074   020067 702000 1                  TSX2    ACTIONERR

  40320  1 017075   200007 236100                    LDQ     ZPRED+1,,AUTO
         1 017076   400000 316007                    CANQ    -131072,DL
         1 017077   017101 600000 1                  TZE     s:40346

  40339  1 017100   200014 450100                    STZ     CONTINUING,,AUTO

     2542    40341    4                           ;  /* don't do anything */
     2543    40342    4                           END;

PL6.E3A0      #001=XSS$MACHINE File=XSS$MACHINE.:XSA1TSI                         WED 10/01/97 12:18 Page:573
     2544    40343                            %ENDPREDDO;

  40346  1 017101   200014 234100                    SZN     CONTINUING,,AUTO
         1 017102   020065 605000 1                  TPL     s:41916

  40346  1 017103   020773 701000 1                  TSX1    OOPS
         1 017104   000000 011000                    NOP     0
         1 017105   020065 710000 1                  TRA     s:41916

     2545    40348    3                   CASE( %XSS_SST_20);

     2546    40349                            %IFPREDDO( P="57");

  40358  1 017106   400000 236003                    LDQ     -131072,DU
         1 017107   200014 756100                    STQ     CONTINUING,,AUTO

  40418  1 017110   200012 236100                    LDQ     ZPINV+1,,AUTO
         1 017111   040000 316007                    CANQ    16384,DL
         1 017112   017115 600000 1                  TZE     s:40428

  40418  1 017113   024443 701000 1                  TSX1    PRED57
         1 017114   020067 702000 1                  TSX2    ACTIONERR

  40428  1 017115   200007 236100                    LDQ     ZPRED+1,,AUTO
         1 017116   040000 316007                    CANQ    16384,DL
         1 017117   017127 600000 1                  TZE     s:40463

  40447  1 017120   200014 450100                    STZ     CONTINUING,,AUTO

     2547    40449                                %EVENT( EV=%XSS_SEV_GT);

  40450  1 017121   000214 236000 2                  LDQ     140
         1 017122   200021 756100                    STQ     CONTINUING+5,,AUTO
         1 017123   020166 701000 1                  TSX1    EVNT
         1 017124   020066 702000 1                  TSX2    EVNTERR

     2548    40452                                %ACTION11;
PL6.E3A0      #001=XSS$MACHINE File=XSS$MACHINE.:XSA1TSI                         WED 10/01/97 12:18 Page:574

  40453  1 017125   021364 701000 1                  TSX1    ACTION11
         1 017126   020067 702000 1                  TSX2    ACTIONERR

     2549    40455    4                           END;

     2550    40456                            %ELSEPREDDO( P="58");

  40463  1 017127   200014 234100                    SZN     CONTINUING,,AUTO
         1 017130   017154 605000 1                  TPL     s:40564

  40522  1 017131   200012 236100                    LDQ     ZPINV+1,,AUTO
         1 017132   020000 316007                    CANQ    8192,DL
         1 017133   017136 600000 1                  TZE     s:40532

  40522  1 017134   024514 701000 1                  TSX1    PRED58
         1 017135   020067 702000 1                  TSX2    ACTIONERR

  40532  1 017136   200007 236100                    LDQ     ZPRED+1,,AUTO
         1 017137   020000 316007                    CANQ    8192,DL
         1 017140   017154 600000 1                  TZE     s:40564

  40551  1 017141   200014 450100                    STZ     CONTINUING,,AUTO

     2551    40553                                %EVENT( EV=%XSS_SEV_GT);

  40554  1 017142   000214 236000 2                  LDQ     140
         1 017143   200021 756100                    STQ     CONTINUING+5,,AUTO
         1 017144   020166 701000 1                  TSX1    EVNT
         1 017145   020066 702000 1                  TSX2    EVNTERR

     2552    40556                                %ACTION11;

  40557  1 017146   021364 701000 1                  TSX1    ACTION11
         1 017147   020067 702000 1                  TSX2    ACTIONERR

     2553    40559    4                           SCTX.STATE = %XSS_SST_713;
PL6.E3A0      #001=XSS$MACHINE File=XSS$MACHINE.:XSA1TSI                         WED 10/01/97 12:18 Page:575

  40559  1 017150   200003 470500                    LDP0    @VBLK,,AUTO
         1 017151   000000 471500                    LDP1    0,,PR0
         1 017152   035000 236003                    LDQ     14848,DU
         1 017153   100000 552140                    STBQ    0,'40'O,PR1

     2554    40560    4                           END;

     2555    40561                            %ENDPREDDO;

  40564  1 017154   200014 234100                    SZN     CONTINUING,,AUTO
         1 017155   020065 605000 1                  TPL     s:41916

  40564  1 017156   020773 701000 1                  TSX1    OOPS
         1 017157   000000 011000                    NOP     0
         1 017160   020065 710000 1                  TRA     s:41916

     2556    40566    3                   CASE( ELSE);

     2557    40567                            %INVALID;

  40568  1 017161   020773 701000 1                  TSX1    OOPS
         1 017162   000000 011000                    NOP     0

     2558    40570    3                   END;

  40570  1 017163   020065 710000 1                  TRA     s:41916

     2559    40571        %EJECT;
PL6.E3A0      #001=XSS$MACHINE File=XSS$MACHINE.:XSA1TSI                         WED 10/01/97 12:18 Page:576
     2560    40572        /*****************************************************************************
     2561    40573        *
     2562    40574        *       STKPREQ         S-TOKEN-PLEASE Request
     2563    40575        *
     2564    40576        *****************************************************************************/
     2565    40577    2           CASE( %XSS_SEV_STKPREQ);                        /* TABLE 51 */

     2566    40578    3               DO CASE( SCTX.STATE);

  40578  1 017164   000000 471500                    LDP1    0,,PR0
         1 017165   100000 236100                    LDQ     0,,PR1
         1 017166   000033 772000                    QRL     27
         1 017167   000016 136007                    SBLQ    14,DL
         1 017170   000020 116007                    CMPQ    16,DL
         1 017171   017173 602006 1                  TNC     s:40578+7,QL
         1 017172   017257 710000 1                  TRA     s:40803
         1 017173   017213 710000 1                  TRA     s:40593
         1 017174   017213 710000 1                  TRA     s:40593
         1 017175   017213 710000 1                  TRA     s:40593
         1 017176   017257 710000 1                  TRA     s:40803
         1 017177   017257 710000 1                  TRA     s:40803
         1 017200   017257 710000 1                  TRA     s:40803
         1 017201   017257 710000 1                  TRA     s:40803
         1 017202   017237 710000 1                  TRA     s:40703
         1 017203   017257 710000 1                  TRA     s:40803
         1 017204   017257 710000 1                  TRA     s:40803
         1 017205   017257 710000 1                  TRA     s:40803
         1 017206   017257 710000 1                  TRA     s:40803
         1 017207   017257 710000 1                  TRA     s:40803
         1 017210   017257 710000 1                  TRA     s:40803
         1 017211   017213 710000 1                  TRA     s:40593
         1 017212   017213 710000 1                  TRA     s:40593

     2567    40579    3                   CASE( %XSS_SST_09,

     2568    40580    3                         %XSS_SST_10A,
     2569    40581    3                         %XSS_SST_10B,
PL6.E3A0      #001=XSS$MACHINE File=XSS$MACHINE.:XSA1TSI                         WED 10/01/97 12:18 Page:577
     2570    40582    3                         %XSS_SST_22,
     2571    40583    3                         %XSS_SST_713);
     2572    40584                            %IFPREDDO( P="53");

  40593  1 017213   400000 236003                    LDQ     -131072,DU
         1 017214   200014 756100                    STQ     CONTINUING,,AUTO

  40653  1 017215   200012 236100                    LDQ     ZPINV+1,,AUTO
         1 017216   000001 316003                    CANQ    1,DU
         1 017217   017222 600000 1                  TZE     s:40663

  40653  1 017220   024322 701000 1                  TSX1    PRED53
         1 017221   020067 702000 1                  TSX2    ACTIONERR

  40663  1 017222   200007 236100                    LDQ     ZPRED+1,,AUTO
         1 017223   000001 316003                    CANQ    1,DU
         1 017224   017232 600000 1                  TZE     s:40691

  40682  1 017225   200014 450100                    STZ     CONTINUING,,AUTO

     2573    40684                                %EVENT( EV=%XSS_SEV_PT);

  40685  1 017226   000216 236000 2                  LDQ     142
         1 017227   200021 756100                    STQ     CONTINUING+5,,AUTO
         1 017230   020166 701000 1                  TSX1    EVNT
         1 017231   020066 702000 1                  TSX2    EVNTERR

     2574    40687    4                           END;

     2575    40688                            %ENDPREDDO;

  40691  1 017232   200014 234100                    SZN     CONTINUING,,AUTO
         1 017233   020065 605000 1                  TPL     s:41916

  40691  1 017234   020773 701000 1                  TSX1    OOPS
         1 017235   000000 011000                    NOP     0
         1 017236   020065 710000 1                  TRA     s:41916
PL6.E3A0      #001=XSS$MACHINE File=XSS$MACHINE.:XSA1TSI                         WED 10/01/97 12:18 Page:578

     2576    40693    3                   CASE( %XSS_SST_15B);

     2577    40694                            %IFPREDDO( P="53");

  40703  1 017237   400000 236003                    LDQ     -131072,DU
         1 017240   200014 756100                    STQ     CONTINUING,,AUTO

  40763  1 017241   200012 236100                    LDQ     ZPINV+1,,AUTO
         1 017242   000001 316003                    CANQ    1,DU
         1 017243   017246 600000 1                  TZE     s:40773

  40763  1 017244   024322 701000 1                  TSX1    PRED53
         1 017245   020067 702000 1                  TSX2    ACTIONERR

  40773  1 017246   200007 236100                    LDQ     ZPRED+1,,AUTO
         1 017247   000001 316003                    CANQ    1,DU
         1 017250   017252 600000 1                  TZE     s:40799

  40792  1 017251   200014 450100                    STZ     CONTINUING,,AUTO

     2578    40794    4                           ;  /* don't do anything */
     2579    40795    4                           END;

     2580    40796                            %ENDPREDDO;

  40799  1 017252   200014 234100                    SZN     CONTINUING,,AUTO
         1 017253   020065 605000 1                  TPL     s:41916

  40799  1 017254   020773 701000 1                  TSX1    OOPS
         1 017255   000000 011000                    NOP     0
         1 017256   020065 710000 1                  TRA     s:41916

     2581    40801    3                   CASE( ELSE);

     2582    40802                            %INVALID;

PL6.E3A0      #001=XSS$MACHINE File=XSS$MACHINE.:XSA1TSI                         WED 10/01/97 12:18 Page:579
  40803  1 017257   020773 701000 1                  TSX1    OOPS
         1 017260   000000 011000                    NOP     0

     2583    40805    3                   END;

  40805  1 017261   020065 710000 1                  TRA     s:41916

     2584    40806        %EJECT;
PL6.E3A0      #001=XSS$MACHINE File=XSS$MACHINE.:XSA1TSI                         WED 10/01/97 12:18 Page:580
     2585    40807        /*****************************************************************************
     2586    40808        *
     2587    40809        *       STYDREQ         S-TYPED-DATA Request
     2588    40810        *
     2589    40811        *****************************************************************************/
     2590    40812    2           CASE( %XSS_SEV_STYDREQ);                        /* TABLE 46 */

     2591    40813    3               DO CASE( SCTX.STATE);

  40813  1 017262   000000 471500                    LDP1    0,,PR0
         1 017263   100000 236100                    LDQ     0,,PR1
         1 017264   000033 772000                    QRL     27
         1 017265   000016 136007                    SBLQ    14,DL
         1 017266   000020 116007                    CMPQ    16,DL
         1 017267   017271 602006 1                  TNC     s:40813+7,QL
         1 017270   017401 710000 1                  TRA     s:41147
         1 017271   017311 710000 1                  TRA     s:40824
         1 017272   017335 710000 1                  TRA     s:40937
         1 017273   017335 710000 1                  TRA     s:40937
         1 017274   017401 710000 1                  TRA     s:41147
         1 017275   017401 710000 1                  TRA     s:41147
         1 017276   017401 710000 1                  TRA     s:41147
         1 017277   017401 710000 1                  TRA     s:41147
         1 017300   017361 710000 1                  TRA     s:41047
         1 017301   017401 710000 1                  TRA     s:41147
         1 017302   017401 710000 1                  TRA     s:41147
         1 017303   017335 710000 1                  TRA     s:40937
         1 017304   017401 710000 1                  TRA     s:41147
         1 017305   017401 710000 1                  TRA     s:41147
         1 017306   017401 710000 1                  TRA     s:41147
         1 017307   017401 710000 1                  TRA     s:41147
         1 017310   017335 710000 1                  TRA     s:40937

     2592    40814    3                   CASE( %XSS_SST_09);

     2593    40815                            %IFPREDDO( P="07");

PL6.E3A0      #001=XSS$MACHINE File=XSS$MACHINE.:XSA1TSI                         WED 10/01/97 12:18 Page:581
  40824  1 017311   400000 236003                    LDQ     -131072,DU
         1 017312   200014 756100                    STQ     CONTINUING,,AUTO

  40884  1 017313   200011 236100                    LDQ     ZPINV,,AUTO
         1 017314   002000 316003                    CANQ    1024,DU
         1 017315   017320 600000 1                  TZE     s:40894

  40884  1 017316   022261 701000 1                  TSX1    PRED07
         1 017317   020067 702000 1                  TSX2    ACTIONERR

  40894  1 017320   200006 236100                    LDQ     ZPRED,,AUTO
         1 017321   002000 316003                    CANQ    1024,DU
         1 017322   017330 600000 1                  TZE     s:40922

  40913  1 017323   200014 450100                    STZ     CONTINUING,,AUTO

     2594    40915                                %EVENT( EV=%XSS_SEV_TD);

  40916  1 017324   000220 236000 2                  LDQ     144
         1 017325   200021 756100                    STQ     CONTINUING+5,,AUTO
         1 017326   020166 701000 1                  TSX1    EVNT
         1 017327   020066 702000 1                  TSX2    EVNTERR

     2595    40918    4                           END;

     2596    40919                            %ENDPREDDO;

  40922  1 017330   200014 234100                    SZN     CONTINUING,,AUTO
         1 017331   020065 605000 1                  TPL     s:41916

  40922  1 017332   020773 701000 1                  TSX1    OOPS
         1 017333   000000 011000                    NOP     0
         1 017334   020065 710000 1                  TRA     s:41916

     2597    40924    3                   CASE( %XSS_SST_10A,

     2598    40925    3                         %XSS_SST_10B,
PL6.E3A0      #001=XSS$MACHINE File=XSS$MACHINE.:XSA1TSI                         WED 10/01/97 12:18 Page:582
     2599    40926    3                         %XSS_SST_18,
     2600    40927    3                         %XSS_SST_713);
     2601    40928                            %IFPREDDO( P="06");

  40937  1 017335   400000 236003                    LDQ     -131072,DU
         1 017336   200014 756100                    STQ     CONTINUING,,AUTO

  40997  1 017337   200011 236100                    LDQ     ZPINV,,AUTO
         1 017340   004000 316003                    CANQ    2048,DU
         1 017341   017344 600000 1                  TZE     s:41007

  40997  1 017342   022246 701000 1                  TSX1    PRED06
         1 017343   020067 702000 1                  TSX2    ACTIONERR

  41007  1 017344   200006 236100                    LDQ     ZPRED,,AUTO
         1 017345   004000 316003                    CANQ    2048,DU
         1 017346   017354 600000 1                  TZE     s:41035

  41026  1 017347   200014 450100                    STZ     CONTINUING,,AUTO

     2602    41028                                %EVENT( EV=%XSS_SEV_TD);

  41029  1 017350   000220 236000 2                  LDQ     144
         1 017351   200021 756100                    STQ     CONTINUING+5,,AUTO
         1 017352   020166 701000 1                  TSX1    EVNT
         1 017353   020066 702000 1                  TSX2    EVNTERR

     2603    41031    4                           END;

     2604    41032                            %ENDPREDDO;

  41035  1 017354   200014 234100                    SZN     CONTINUING,,AUTO
         1 017355   020065 605000 1                  TPL     s:41916

  41035  1 017356   020773 701000 1                  TSX1    OOPS
         1 017357   000000 011000                    NOP     0
         1 017360   020065 710000 1                  TRA     s:41916
PL6.E3A0      #001=XSS$MACHINE File=XSS$MACHINE.:XSA1TSI                         WED 10/01/97 12:18 Page:583

     2605    41037    3                   CASE( %XSS_SST_15B);

     2606    41038                            %IFPREDDO( P="06");

  41047  1 017361   400000 236003                    LDQ     -131072,DU
         1 017362   200014 756100                    STQ     CONTINUING,,AUTO

  41107  1 017363   200011 236100                    LDQ     ZPINV,,AUTO
         1 017364   004000 316003                    CANQ    2048,DU
         1 017365   017370 600000 1                  TZE     s:41117

  41107  1 017366   022246 701000 1                  TSX1    PRED06
         1 017367   020067 702000 1                  TSX2    ACTIONERR

  41117  1 017370   200006 236100                    LDQ     ZPRED,,AUTO
         1 017371   004000 316003                    CANQ    2048,DU
         1 017372   017374 600000 1                  TZE     s:41143

  41136  1 017373   200014 450100                    STZ     CONTINUING,,AUTO

     2607    41138    4                           ;  /* don't do anything */
     2608    41139    4                           END;

     2609    41140                            %ENDPREDDO;

  41143  1 017374   200014 234100                    SZN     CONTINUING,,AUTO
         1 017375   020065 605000 1                  TPL     s:41916

  41143  1 017376   020773 701000 1                  TSX1    OOPS
         1 017377   000000 011000                    NOP     0
         1 017400   020065 710000 1                  TRA     s:41916

     2610    41145    3                   CASE( ELSE);

     2611    41146                            %INVALID;

PL6.E3A0      #001=XSS$MACHINE File=XSS$MACHINE.:XSA1TSI                         WED 10/01/97 12:18 Page:584
  41147  1 017401   020773 701000 1                  TSX1    OOPS
         1 017402   000000 011000                    NOP     0

     2612    41149    3                   END;

  41149  1 017403   020065 710000 1                  TRA     s:41916

     2613    41150        %EJECT;
PL6.E3A0      #001=XSS$MACHINE File=XSS$MACHINE.:XSA1TSI                         WED 10/01/97 12:18 Page:585
     2614    41151        /*****************************************************************************
     2615    41152        *
     2616    41153        *       SUABREQ         S-U-ABORT Request
     2617    41154        *
     2618    41155        *****************************************************************************/
     2619    41156    2           CASE( %XSS_SEV_SUABREQ);                        /* TABLE 53 */

     2620    41157    3               DO CASE( SCTX.STATE);

  41157  1 017404   000000 471500                    LDP1    0,,PR0
         1 017405   100000 236100                    LDQ     0,,PR1
         1 017406   000033 772000                    QRL     27
         1 017407   000036 116007                    CMPQ    30,DL
         1 017410   017412 602006 1                  TNC     s:41157+6,QL
         1 017411   017572 710000 1                  TRA     s:41566
         1 017412   017572 710000 1                  TRA     s:41566
         1 017413   017572 710000 1                  TRA     s:41566
         1 017414   017572 710000 1                  TRA     s:41566
         1 017415   017450 710000 1                  TRA     s:41160
         1 017416   017572 710000 1                  TRA     s:41566
         1 017417   017513 710000 1                  TRA     s:41332
         1 017420   017513 710000 1                  TRA     s:41332
         1 017421   017513 710000 1                  TRA     s:41332
         1 017422   017513 710000 1                  TRA     s:41332
         1 017423   017513 710000 1                  TRA     s:41332
         1 017424   017513 710000 1                  TRA     s:41332
         1 017425   017513 710000 1                  TRA     s:41332
         1 017426   017461 710000 1                  TRA     s:41176
         1 017427   017513 710000 1                  TRA     s:41332
         1 017430   017513 710000 1                  TRA     s:41332
         1 017431   017513 710000 1                  TRA     s:41332
         1 017432   017513 710000 1                  TRA     s:41332
         1 017433   017513 710000 1                  TRA     s:41332
         1 017434   017513 710000 1                  TRA     s:41332
         1 017435   017513 710000 1                  TRA     s:41332
         1 017436   017461 710000 1                  TRA     s:41176
         1 017437   017461 710000 1                  TRA     s:41176
PL6.E3A0      #001=XSS$MACHINE File=XSS$MACHINE.:XSA1TSI                         WED 10/01/97 12:18 Page:586
         1 017440   017461 710000 1                  TRA     s:41176
         1 017441   017572 710000 1                  TRA     s:41566
         1 017442   017513 710000 1                  TRA     s:41332
         1 017443   017513 710000 1                  TRA     s:41332
         1 017444   017513 710000 1                  TRA     s:41332
         1 017445   017513 710000 1                  TRA     s:41332
         1 017446   017513 710000 1                  TRA     s:41332
         1 017447   017513 710000 1                  TRA     s:41332

     2621    41158    3                   CASE( %XSS_SST_01B);

     2622    41159                            %EVENT( EV=%XSS_SEV_TDISREQ);

  41160  1 017450   000006 236000 2                  LDQ     6
         1 017451   200021 756100                    STQ     CONTINUING+5,,AUTO
         1 017452   020166 701000 1                  TSX1    EVNT
         1 017453   020066 702000 1                  TSX2    EVNTERR

     2623    41162    3                       SCTX.STATE = %XSS_SST_01;

  41162  1 017454   200003 470500                    LDP0    @VBLK,,AUTO
         1 017455   000000 471500                    LDP1    0,,PR0
         1 017456   001000 236003                    LDQ     512,DU
         1 017457   100000 552140                    STBQ    0,'40'O,PR1
         1 017460   020065 710000 1                  TRA     s:41916

     2624    41163    3                   CASE( %XSS_SST_06,

     2625    41164    3                         %XSS_SST_15A,
     2626    41165    3                         %XSS_SST_15B,
     2627    41166    3                         %XSS_SST_15C);
     2628    41167                            %IFPREDDO( P="-02");

  41176  1 017461   400000 236003                    LDQ     -131072,DU
         1 017462   200014 756100                    STQ     CONTINUING,,AUTO

  41254  1 017463   200011 236100                    LDQ     ZPINV,,AUTO
PL6.E3A0      #001=XSS$MACHINE File=XSS$MACHINE.:XSA1TSI                         WED 10/01/97 12:18 Page:587
         1 017464   100000 316003                    CANQ    32768,DU
         1 017465   017470 600000 1                  TZE     s:41264

  41254  1 017466   022153 701000 1                  TSX1    PRED02
         1 017467   020067 702000 1                  TSX2    ACTIONERR

  41264  1 017470   200006 236100                    LDQ     ZPRED,,AUTO
         1 017471   100000 316003                    CANQ    32768,DU
         1 017472   017506 601000 1                  TNZ     s:41301

  41288  1 017473   200014 450100                    STZ     CONTINUING,,AUTO

     2629    41290                                %EVENT( EV=%XSS_SEV_AB_NR);

  41291  1 017474   000222 236000 2                  LDQ     146
         1 017475   200021 756100                    STQ     CONTINUING+5,,AUTO
         1 017476   020166 701000 1                  TSX1    EVNT
         1 017477   020066 702000 1                  TSX2    EVNTERR

     2630    41293                                %ACTION04;

  41294  1 017500   021051 701000 1                  TSX1    ACTION04
         1 017501   020067 702000 1                  TSX2    ACTIONERR

     2631    41296    4                           SCTX.STATE = %XSS_SST_16;

  41296  1 017502   200003 470500                    LDP0    @VBLK,,AUTO
         1 017503   000000 471500                    LDP1    0,,PR0
         1 017504   027000 236003                    LDQ     11776,DU
         1 017505   100000 552140                    STBQ    0,'40'O,PR1

     2632    41297    4                           END;

     2633    41298                            %ENDPREDDO;

  41301  1 017506   200014 234100                    SZN     CONTINUING,,AUTO
         1 017507   020065 605000 1                  TPL     s:41916
PL6.E3A0      #001=XSS$MACHINE File=XSS$MACHINE.:XSA1TSI                         WED 10/01/97 12:18 Page:588

  41301  1 017510   020773 701000 1                  TSX1    OOPS
         1 017511   000000 011000                    NOP     0
         1 017512   020065 710000 1                  TRA     s:41916

     2634    41303    3                   CASE( %XSS_SST_02A,

     2635    41304    3                         %XSS_SST_03,
     2636    41305    3                         %XSS_SST_04A,
     2637    41306    3                         %XSS_SST_04B,
     2638    41307    3                         %XSS_SST_05A,
     2639    41308    3                         %XSS_SST_05B,
     2640    41309    3                         %XSS_SST_05C,
     2641    41310    3                         %XSS_SST_08,
     2642    41311    3                         %XSS_SST_09,
     2643    41312    3                         %XSS_SST_10A,
     2644    41313    3                         %XSS_SST_10B,
     2645    41314    3                         %XSS_SST_11A,
     2646    41315    3                         %XSS_SST_11B,
     2647    41316    3                         %XSS_SST_11C,
     2648    41317    3                         %XSS_SST_18,
     2649    41318    3                         %XSS_SST_19,
     2650    41319    3                         %XSS_SST_20,
     2651    41320    3                         %XSS_SST_21,
     2652    41321    3                         %XSS_SST_22,
     2653    41322    3                         %XSS_SST_713);
     2654    41323                            %IFPREDDO( P="-02");

  41332  1 017513   400000 236003                    LDQ     -131072,DU
         1 017514   200014 756100                    STQ     CONTINUING,,AUTO

  41410  1 017515   200011 236100                    LDQ     ZPINV,,AUTO
         1 017516   100000 316003                    CANQ    32768,DU
         1 017517   017522 600000 1                  TZE     s:41420

  41410  1 017520   022153 701000 1                  TSX1    PRED02
         1 017521   020067 702000 1                  TSX2    ACTIONERR
PL6.E3A0      #001=XSS$MACHINE File=XSS$MACHINE.:XSA1TSI                         WED 10/01/97 12:18 Page:589

  41420  1 017522   200006 236100                    LDQ     ZPRED,,AUTO
         1 017523   100000 316003                    CANQ    32768,DU
         1 017524   017540 601000 1                  TNZ     s:41461

  41444  1 017525   200014 450100                    STZ     CONTINUING,,AUTO

     2655    41446                                %EVENT( EV=%XSS_SEV_AB_NR);

  41447  1 017526   000222 236000 2                  LDQ     146
         1 017527   200021 756100                    STQ     CONTINUING+5,,AUTO
         1 017530   020166 701000 1                  TSX1    EVNT
         1 017531   020066 702000 1                  TSX2    EVNTERR

     2656    41449                                %ACTION04;

  41450  1 017532   021051 701000 1                  TSX1    ACTION04
         1 017533   020067 702000 1                  TSX2    ACTIONERR

     2657    41452    4                           SCTX.STATE = %XSS_SST_16;

  41452  1 017534   200003 470500                    LDP0    @VBLK,,AUTO
         1 017535   000000 471500                    LDP1    0,,PR0
         1 017536   027000 236003                    LDQ     11776,DU
         1 017537   100000 552140                    STBQ    0,'40'O,PR1

     2658    41453    4                           END;

     2659    41454                            %ELSEPREDDO( P="02");

  41461  1 017540   200014 234100                    SZN     CONTINUING,,AUTO
         1 017541   017565 605000 1                  TPL     s:41562

  41520  1 017542   200011 236100                    LDQ     ZPINV,,AUTO
         1 017543   100000 316003                    CANQ    32768,DU
         1 017544   017547 600000 1                  TZE     s:41530

PL6.E3A0      #001=XSS$MACHINE File=XSS$MACHINE.:XSA1TSI                         WED 10/01/97 12:18 Page:590
  41520  1 017545   022153 701000 1                  TSX1    PRED02
         1 017546   020067 702000 1                  TSX2    ACTIONERR

  41530  1 017547   200006 236100                    LDQ     ZPRED,,AUTO
         1 017550   100000 316003                    CANQ    32768,DU
         1 017551   017565 600000 1                  TZE     s:41562

  41549  1 017552   200014 450100                    STZ     CONTINUING,,AUTO

     2660    41551                                %EVENT( EV=%XSS_SEV_AB_R);

  41552  1 017553   000224 236000 2                  LDQ     148
         1 017554   200021 756100                    STQ     CONTINUING+5,,AUTO
         1 017555   020166 701000 1                  TSX1    EVNT
         1 017556   020066 702000 1                  TSX2    EVNTERR

     2661    41554                                %ACTION04;

  41555  1 017557   021051 701000 1                  TSX1    ACTION04
         1 017560   020067 702000 1                  TSX2    ACTIONERR

     2662    41557    4                           SCTX.STATE = %XSS_SST_01A;

  41557  1 017561   200003 470500                    LDP0    @VBLK,,AUTO
         1 017562   000000 471500                    LDP1    0,,PR0
         1 017563   002000 236003                    LDQ     1024,DU
         1 017564   100000 552140                    STBQ    0,'40'O,PR1

     2663    41558    4                           END;

     2664    41559                            %ENDPREDDO;

  41562  1 017565   200014 234100                    SZN     CONTINUING,,AUTO
         1 017566   020065 605000 1                  TPL     s:41916

  41562  1 017567   020773 701000 1                  TSX1    OOPS
         1 017570   000000 011000                    NOP     0
PL6.E3A0      #001=XSS$MACHINE File=XSS$MACHINE.:XSA1TSI                         WED 10/01/97 12:18 Page:591
         1 017571   020065 710000 1                  TRA     s:41916

     2665    41564    3                   CASE( ELSE);

     2666    41565                            %INVALID;

  41566  1 017572   020773 701000 1                  TSX1    OOPS
         1 017573   000000 011000                    NOP     0

     2667    41568    3                   END;

  41568  1 017574   020065 710000 1                  TRA     s:41916

     2668    41569        %EJECT;
PL6.E3A0      #001=XSS$MACHINE File=XSS$MACHINE.:XSA1TSI                         WED 10/01/97 12:18 Page:592
     2669    41570        /*****************************************************************************
     2670    41571        *
     2671    41572        *       SUERREQ         S-U-EXCEPTION-REPORT Request
     2672    41573        *
     2673    41574        *****************************************************************************/
     2674    41575    2           CASE( %XSS_SEV_SUERREQ);                        /* TABLE 51 */

     2675    41576    3               DO CASE( SCTX.STATE);

  41576  1 017575   000000 471500                    LDP1    0,,PR0
         1 017576   100000 236100                    LDQ     0,,PR1
         1 017577   000033 772000                    QRL     27
         1 017600   000016 136007                    SBLQ    14,DL
         1 017601   000020 116007                    CMPQ    16,DL
         1 017602   017604 602006 1                  TNC     s:41576+7,QL
         1 017603   017674 710000 1                  TRA     s:41801
         1 017604   017624 710000 1                  TRA     s:41590
         1 017605   017624 710000 1                  TRA     s:41590
         1 017606   017624 710000 1                  TRA     s:41590
         1 017607   017674 710000 1                  TRA     s:41801
         1 017610   017674 710000 1                  TRA     s:41801
         1 017611   017674 710000 1                  TRA     s:41801
         1 017612   017674 710000 1                  TRA     s:41801
         1 017613   017654 710000 1                  TRA     s:41701
         1 017614   017674 710000 1                  TRA     s:41801
         1 017615   017674 710000 1                  TRA     s:41801
         1 017616   017674 710000 1                  TRA     s:41801
         1 017617   017674 710000 1                  TRA     s:41801
         1 017620   017674 710000 1                  TRA     s:41801
         1 017621   017674 710000 1                  TRA     s:41801
         1 017622   017674 710000 1                  TRA     s:41801
         1 017623   017624 710000 1                  TRA     s:41590

     2676    41577    3                   CASE( %XSS_SST_09,

     2677    41578    3                         %XSS_SST_10A,
     2678    41579    3                         %XSS_SST_10B,
PL6.E3A0      #001=XSS$MACHINE File=XSS$MACHINE.:XSA1TSI                         WED 10/01/97 12:18 Page:593
     2679    41580    3                         %XSS_SST_713);
     2680    41581                            %IFPREDDO( P="50");

  41590  1 017624   400000 236003                    LDQ     -131072,DU
         1 017625   200014 756100                    STQ     CONTINUING,,AUTO

  41650  1 017626   200012 236100                    LDQ     ZPINV+1,,AUTO
         1 017627   000010 316003                    CANQ    8,DU
         1 017630   017633 600000 1                  TZE     s:41660

  41650  1 017631   024155 701000 1                  TSX1    PRED50
         1 017632   020067 702000 1                  TSX2    ACTIONERR

  41660  1 017633   200007 236100                    LDQ     ZPRED+1,,AUTO
         1 017634   000010 316003                    CANQ    8,DU
         1 017635   017647 600000 1                  TZE     s:41689

  41679  1 017636   200014 450100                    STZ     CONTINUING,,AUTO

     2681    41681                                %EVENT( EV=%XSS_SEV_ED);

  41682  1 017637   000226 236000 2                  LDQ     150
         1 017640   200021 756100                    STQ     CONTINUING+5,,AUTO
         1 017641   020166 701000 1                  TSX1    EVNT
         1 017642   020066 702000 1                  TSX2    EVNTERR

     2682    41684    4                           SCTX.STATE = %XSS_SST_19;

  41684  1 017643   200003 470500                    LDP0    @VBLK,,AUTO
         1 017644   000000 471500                    LDP1    0,,PR0
         1 017645   031000 236003                    LDQ     12800,DU
         1 017646   100000 552140                    STBQ    0,'40'O,PR1

     2683    41685    4                           END;

     2684    41686                            %ENDPREDDO;

PL6.E3A0      #001=XSS$MACHINE File=XSS$MACHINE.:XSA1TSI                         WED 10/01/97 12:18 Page:594
  41689  1 017647   200014 234100                    SZN     CONTINUING,,AUTO
         1 017650   020065 605000 1                  TPL     s:41916

  41689  1 017651   020773 701000 1                  TSX1    OOPS
         1 017652   000000 011000                    NOP     0
         1 017653   020065 710000 1                  TRA     s:41916

     2685    41691    3                   CASE( %XSS_SST_15B);

     2686    41692                            %IFPREDDO( P="50");

  41701  1 017654   400000 236003                    LDQ     -131072,DU
         1 017655   200014 756100                    STQ     CONTINUING,,AUTO

  41761  1 017656   200012 236100                    LDQ     ZPINV+1,,AUTO
         1 017657   000010 316003                    CANQ    8,DU
         1 017660   017663 600000 1                  TZE     s:41771

  41761  1 017661   024155 701000 1                  TSX1    PRED50
         1 017662   020067 702000 1                  TSX2    ACTIONERR

  41771  1 017663   200007 236100                    LDQ     ZPRED+1,,AUTO
         1 017664   000010 316003                    CANQ    8,DU
         1 017665   017667 600000 1                  TZE     s:41797

  41790  1 017666   200014 450100                    STZ     CONTINUING,,AUTO

     2687    41792    4                           ;  /* don't do anything */
     2688    41793    4                           END;

     2689    41794                            %ENDPREDDO;

  41797  1 017667   200014 234100                    SZN     CONTINUING,,AUTO
         1 017670   020065 605000 1                  TPL     s:41916

  41797  1 017671   020773 701000 1                  TSX1    OOPS
         1 017672   000000 011000                    NOP     0
PL6.E3A0      #001=XSS$MACHINE File=XSS$MACHINE.:XSA1TSI                         WED 10/01/97 12:18 Page:595
         1 017673   020065 710000 1                  TRA     s:41916

     2690    41799    3                   CASE( ELSE);

     2691    41800                            %INVALID;

  41801  1 017674   020773 701000 1                  TSX1    OOPS
         1 017675   000000 011000                    NOP     0

     2692    41803    3                   END;

  41803  1 017676   020065 710000 1                  TRA     s:41916

     2693    41804        %EJECT;
PL6.E3A0      #001=XSS$MACHINE File=XSS$MACHINE.:XSA1TSI                         WED 10/01/97 12:18 Page:596
     2694    41805        /*****************************************************************************
     2695    41806        *
     2696    41807        *       TCONCNF         T-CONNECT Confirm
     2697    41808        *
     2698    41809        *****************************************************************************/
     2699    41810    2           CASE( %XSS_SEV_TCONCNF);                        /* TABLE 45 */

     2700    41811    3               IF SCTX.STATE = %XSS_SST_01B THEN DO;

  41811  1 017677   000000 471500                    LDP1    0,,PR0
         1 017700   100000 236100                    LDQ     0,,PR1
         1 017701   777000 376003                    ANQ     -512,DU
         1 017702   003000 116003                    CMPQ    1536,DU
         1 017703   017715 601000 1                  TNZ     s:41819

     2701    41812                        %EVENT( EV=%XSS_SEV_CN);

  41813  1 017704   000146 236000 2                  LDQ     102
         1 017705   200021 756100                    STQ     CONTINUING+5,,AUTO
         1 017706   020166 701000 1                  TSX1    EVNT
         1 017707   020066 702000 1                  TSX2    EVNTERR

     2702    41815    3                   SCTX.STATE = %XSS_SST_02A;

  41815  1 017710   200003 470500                    LDP0    @VBLK,,AUTO
         1 017711   000000 471500                    LDP1    0,,PR0
         1 017712   005000 236003                    LDQ     2560,DU
         1 017713   100000 552140                    STBQ    0,'40'O,PR1

     2703    41816    3                   END;

  41816  1 017714   020065 710000 1                  TRA     s:41916

     2704    41817    2               ELSE
     2705    41818                        %INVALID;

  41819  1 017715   020773 701000 1                  TSX1    OOPS
PL6.E3A0      #001=XSS$MACHINE File=XSS$MACHINE.:XSA1TSI                         WED 10/01/97 12:18 Page:597
         1 017716   000000 011000                    NOP     0
         1 017717   020065 710000 1                  TRA     s:41916

     2706    41821        %EJECT;
PL6.E3A0      #001=XSS$MACHINE File=XSS$MACHINE.:XSA1TSI                         WED 10/01/97 12:18 Page:598
     2707    41822        /*****************************************************************************
     2708    41823        *
     2709    41824        *       TCONIND         T-CONNECT Indication
     2710    41825        *
     2711    41826        *****************************************************************************/
     2712    41827    2           CASE( %XSS_SEV_TCONIND);                        /* TABLE 45 */

     2713    41828    3               IF SCTX.STATE = %XSS_SST_01 THEN DO;

  41828  1 017720   000000 471500                    LDP1    0,,PR0
         1 017721   100000 236100                    LDQ     0,,PR1
         1 017722   777000 376003                    ANQ     -512,DU
         1 017723   001000 116003                    CMPQ    512,DU
         1 017724   017740 601000 1                  TNZ     s:41839

     2714    41829                        %EVENT( EV=%XSS_SEV_TCONRSP);

  41830  1 017725   000230 236000 2                  LDQ     152
         1 017726   200021 756100                    STQ     CONTINUING+5,,AUTO
         1 017727   020166 701000 1                  TSX1    EVNT
         1 017730   020066 702000 1                  TSX2    EVNTERR

     2715    41832                        %ACTION01;

  41833  1 017731   021020 701000 1                  TSX1    ACTION01
         1 017732   020067 702000 1                  TSX2    ACTIONERR

     2716    41835    3                   SCTX.STATE = %XSS_SST_01C;

  41835  1 017733   200003 470500                    LDP0    @VBLK,,AUTO
         1 017734   000000 471500                    LDP1    0,,PR0
         1 017735   004000 236003                    LDQ     2048,DU
         1 017736   100000 552140                    STBQ    0,'40'O,PR1

     2717    41836    3                   END;

  41836  1 017737   020065 710000 1                  TRA     s:41916
PL6.E3A0      #001=XSS$MACHINE File=XSS$MACHINE.:XSA1TSI                         WED 10/01/97 12:18 Page:599

     2718    41837    2               ELSE
     2719    41838                        %INVALID;

  41839  1 017740   020773 701000 1                  TSX1    OOPS
         1 017741   000000 011000                    NOP     0
         1 017742   020065 710000 1                  TRA     s:41916

     2720    41841        %EJECT;
PL6.E3A0      #001=XSS$MACHINE File=XSS$MACHINE.:XSA1TSI                         WED 10/01/97 12:18 Page:600
     2721    41842        /*****************************************************************************
     2722    41843        *
     2723    41844        *       TDISIND         T-DISCONNECT Indication
     2724    41845        *
     2725    41846        *****************************************************************************/
     2726    41847    2           CASE( %XSS_SEV_TDISIND);                        /* TABLE 53 */

     2727    41848    3               DO CASE( SCTX.STATE);

  41848  1 017743   000000 471500                    LDP1    0,,PR0
         1 017744   100000 236100                    LDQ     0,,PR1
         1 017745   000033 772000                    QRL     27
         1 017746   000036 116007                    CMPQ    30,DL
         1 017747   017751 602006 1                  TNC     s:41848+6,QL
         1 017750   020032 710000 1                  TRA     s:41888
         1 017751   020032 710000 1                  TRA     s:41888
         1 017752   020032 710000 1                  TRA     s:41888
         1 017753   020007 710000 1                  TRA     s:41852
         1 017754   020021 710000 1                  TRA     s:41883
         1 017755   020016 710000 1                  TRA     s:41856
         1 017756   020021 710000 1                  TRA     s:41883
         1 017757   020021 710000 1                  TRA     s:41883
         1 017760   020021 710000 1                  TRA     s:41883
         1 017761   020021 710000 1                  TRA     s:41883
         1 017762   020021 710000 1                  TRA     s:41883
         1 017763   020021 710000 1                  TRA     s:41883
         1 017764   020021 710000 1                  TRA     s:41883
         1 017765   020021 710000 1                  TRA     s:41883
         1 017766   020021 710000 1                  TRA     s:41883
         1 017767   020021 710000 1                  TRA     s:41883
         1 017770   020021 710000 1                  TRA     s:41883
         1 017771   020021 710000 1                  TRA     s:41883
         1 017772   020021 710000 1                  TRA     s:41883
         1 017773   020021 710000 1                  TRA     s:41883
         1 017774   020021 710000 1                  TRA     s:41883
         1 017775   020021 710000 1                  TRA     s:41883
         1 017776   020021 710000 1                  TRA     s:41883
PL6.E3A0      #001=XSS$MACHINE File=XSS$MACHINE.:XSA1TSI                         WED 10/01/97 12:18 Page:601
         1 017777   020021 710000 1                  TRA     s:41883
         1 020000   020007 710000 1                  TRA     s:41852
         1 020001   020021 710000 1                  TRA     s:41883
         1 020002   020021 710000 1                  TRA     s:41883
         1 020003   020021 710000 1                  TRA     s:41883
         1 020004   020021 710000 1                  TRA     s:41883
         1 020005   020021 710000 1                  TRA     s:41883
         1 020006   020021 710000 1                  TRA     s:41883

     2728    41849    3                   CASE( %XSS_SST_01A,

     2729    41850    3                         %XSS_SST_16);
     2730    41851                            %ACTION03;

  41852  1 020007   021034 701000 1                  TSX1    ACTION03
         1 020010   020067 702000 1                  TSX2    ACTIONERR

     2731    41854    3                       SCTX.STATE = %XSS_SST_01;

  41854  1 020011   200003 470500                    LDP0    @VBLK,,AUTO
         1 020012   000000 471500                    LDP1    0,,PR0
         1 020013   001000 236003                    LDQ     512,DU
         1 020014   100000 552140                    STBQ    0,'40'O,PR1
         1 020015   020065 710000 1                  TRA     s:41916

     2732    41855    3                   CASE( %XSS_SST_01C);

     2733    41856    3                       SCTX.STATE = %XSS_SST_01;

  41856  1 020016   001000 236003                    LDQ     512,DU
         1 020017   100000 552140                    STBQ    0,'40'O,PR1
         1 020020   020065 710000 1                  TRA     s:41916

     2734    41857    3                   CASE( %XSS_SST_01B,

     2735    41858    3                         %XSS_SST_02A,
     2736    41859    3                         %XSS_SST_03,
PL6.E3A0      #001=XSS$MACHINE File=XSS$MACHINE.:XSA1TSI                         WED 10/01/97 12:18 Page:602
     2737    41860    3                         %XSS_SST_04A,
     2738    41861    3                         %XSS_SST_04B,
     2739    41862    3                         %XSS_SST_05A,
     2740    41863    3                         %XSS_SST_05B,
     2741    41864    3                         %XSS_SST_05C,
     2742    41865    3                         %XSS_SST_06,
     2743    41866    3                         %XSS_SST_08,
     2744    41867    3                         %XSS_SST_09,
     2745    41868    3                         %XSS_SST_10A,
     2746    41869    3                         %XSS_SST_10B,
     2747    41870    3                         %XSS_SST_11A,
     2748    41871    3                         %XSS_SST_11B,
     2749    41872    3                         %XSS_SST_11C,
     2750    41873    3                         %XSS_SST_15A,
     2751    41874    3                         %XSS_SST_15B,
     2752    41875    3                         %XSS_SST_15C,
     2753    41876    3                         %XSS_SST_18,
     2754    41877    3                         %XSS_SST_19,
     2755    41878    3                         %XSS_SST_20,
     2756    41879    3                         %XSS_SST_21,
     2757    41880    3                         %XSS_SST_22,
     2758    41881    3                         %XSS_SST_713);
     2759    41882                            %EVENT( EV=%XSS_SEV_SPABIND);

  41883  1 020021   000232 236000 2                  LDQ     154
         1 020022   200021 756100                    STQ     CONTINUING+5,,AUTO
         1 020023   020166 701000 1                  TSX1    EVNT
         1 020024   020066 702000 1                  TSX2    EVNTERR

     2760    41885    3                       SCTX.STATE = %XSS_SST_01;

  41885  1 020025   200003 470500                    LDP0    @VBLK,,AUTO
         1 020026   000000 471500                    LDP1    0,,PR0
         1 020027   001000 236003                    LDQ     512,DU
         1 020030   100000 552140                    STBQ    0,'40'O,PR1
         1 020031   020065 710000 1                  TRA     s:41916

PL6.E3A0      #001=XSS$MACHINE File=XSS$MACHINE.:XSA1TSI                         WED 10/01/97 12:18 Page:603
     2761    41886    3                   CASE( ELSE);

     2762    41887                            %INVALID;

  41888  1 020032   020773 701000 1                  TSX1    OOPS
         1 020033   000000 011000                    NOP     0

     2763    41890    3                   END;

  41890  1 020034   020065 710000 1                  TRA     s:41916

     2764    41891        %EJECT;
PL6.E3A0      #001=XSS$MACHINE File=XSS$MACHINE.:XSA1TSI                         WED 10/01/97 12:18 Page:604
     2765    41892        /*****************************************************************************
     2766    41893        *
     2767    41894        *       TIM             Timer Runout
     2768    41895        *
     2769    41896        *****************************************************************************/
     2770    41897    2           CASE( %XSS_SEV_TIM);                            /* TABLE 53 */

     2771    41898    3               DO SELECT( SCTX.STATE);

  41898  1 020035   000000 471500                    LDP1    0,,PR0
         1 020036   100000 236100                    LDQ     0,,PR1
         1 020037   000033 772000                    QRL     27
         1 020040   000002 116007                    CMPQ    2,DL
         1 020041   020060 602000 1                  TNC     s:41907
         1 020042   020047 600000 1                  TZE     s:41902
         1 020043   000033 736000                    QLS     27
         1 020044   027000 116003                    CMPQ    11776,DU
         1 020045   020060 601000 1                  TNZ     s:41907
         1 020046   020047 710000 1                  TRA     s:41902

     2772    41899    3                   SELECT( %XSS_SST_01A,

     2773    41900    3                           %XSS_SST_16);
     2774    41901                            %EVENT( EV=%XSS_SEV_TDISREQ);

  41902  1 020047   000006 236000 2                  LDQ     6
         1 020050   200021 756100                    STQ     CONTINUING+5,,AUTO
         1 020051   020166 701000 1                  TSX1    EVNT
         1 020052   020066 702000 1                  TSX2    EVNTERR

     2775    41904    3                       SCTX.STATE = %XSS_SST_01;

  41904  1 020053   200003 470500                    LDP0    @VBLK,,AUTO
         1 020054   000000 471500                    LDP1    0,,PR0
         1 020055   001000 236003                    LDQ     512,DU
         1 020056   100000 552140                    STBQ    0,'40'O,PR1
         1 020057   020065 710000 1                  TRA     s:41916
PL6.E3A0      #001=XSS$MACHINE File=XSS$MACHINE.:XSA1TSI                         WED 10/01/97 12:18 Page:605

     2776    41905    3                   SELECT( ELSE);

     2777    41906                            %INVALID;

  41907  1 020060   020773 701000 1                  TSX1    OOPS
         1 020061   000000 011000                    NOP     0

     2778    41909    3                   END;

  41909  1 020062   020065 710000 1                  TRA     s:41916

     2779    41910        %EJECT;
PL6.E3A0      #001=XSS$MACHINE File=XSS$MACHINE.:XSA1TSI                         WED 10/01/97 12:18 Page:606
     2780    41911    2           CASE( ELSE);

     2781    41912                    %INVALID;

  41913  1 020063   020773 701000 1                  TSX1    OOPS
         1 020064   000000 011000                    NOP     0

     2782    41915    2           END;

     2783    41916    2       DO WHILE( %FALSE);

  41916  1 020065   020071 710000 1                  TRA     s:41934

     2784    41917    2   EVNTERR:
     2785    41918                /* EVNT routine ALTRETURNed because of internal error of some kind */
     2786    41919    2           GOTO DONE;

  41919  1 020066   020104 710000 1     EVNTERR      TRA     DONE

  41919  1 020067                       ACTIONERR    null
     2787    41920    2   ACTIONERR:
     2788    41921                /* an ACTIONxx routine was called by mistake */
     2789    41922    2           ;
     2790    41923    2   PREDERR:
     2791    41924                /* a PREDxx routine was called by mistake */
     2792    41925                %INVALID;

  41926  1 020067   020773 701000 1     PREDERR      TSX1    OOPS
         1 020070   000000 011000                    NOP     0

     2793    41928    2           END;

     2794    41929        /************************************************************************
     2795    41930        *                                                                       *
     2796    41931        *       Done with state machine; record state and light outa here       *
     2797    41932        *                                                                       *
     2798    41933        ************************************************************************/
PL6.E3A0      #001=XSS$MACHINE File=XSS$MACHINE.:XSA1TSI                         WED 10/01/97 12:18 Page:607
     2799    41934    1       I = SCTX.HISTX;

  41934  1 020071   200003 470500                    LDP0    @VBLK,,AUTO
         1 020072   000000 471500                    LDP1    0,,PR0
         1 020073   100000 236100                    LDQ     0,,PR1
         1 020074   000022 772000                    QRL     18
         1 020075   000777 376007                    ANQ     511,DL
         1 020076   200004 756100                    STQ     I,,AUTO

     2800    41935    1       SCTX.HIST.NXTST( I) = SCTX.STATE;  /* record new state in hist buffer */

  41935  1 020077   200004 235100                    LDA     I,,AUTO
         1 020100   000001 735000                    ALS     1
         1 020101   000105 100500                    MLR     fill='000'O
         1 020102   100000 000001                    ADSC9   0,,PR1                   cn=0,n=1
         1 020103   100020 200001                    ADSC9   16,A,PR1                 cn=1,n=1

     2801    41936    1   DONE:
     2802    41937    2       IF SCTX.ABORTING THEN DO;

  41937  1 020104   200003 470500       DONE         LDP0    @VBLK,,AUTO
         1 020105   000000 471500                    LDP1    0,,PR0
         1 020106   100013 236100                    LDQ     11,,PR1
         1 020107   001000 316007                    CANQ    512,DL
         1 020110   020131 600000 1                  TZE     s:41947

     2803    41938                /* There was an ALTRETURN from XSS$TSEND for some reason, or an
     2804    41939                   SPDU was received that is inconsistent with connection state,
     2805    41940                   so we pretend there was a T-DISCONNECT Indication received. */
     2806    41941    3           IF SCTX.STATE > %XSS_SST_01 THEN DO;

  41941  1 020111   100000 236100                    LDQ     0,,PR1
         1 020112   777000 376003                    ANQ     -512,DU
         1 020113   002000 116003                    CMPQ    1024,DU
         1 020114   020131 602000 1                  TNC     s:41947

     2807    41942    3               CALL EVNT( %XSS_SEV_TDISREQ);  /* ignore possible ALTRETURN */
PL6.E3A0      #001=XSS$MACHINE File=XSS$MACHINE.:XSA1TSI                         WED 10/01/97 12:18 Page:608

  41942  1 020115   000006 236000 2                  LDQ     6
         1 020116   200021 756100                    STQ     CONTINUING+5,,AUTO
         1 020117   020166 701000 1                  TSX1    EVNT
         1 020120   000000 011000                    NOP     0

     2808    41943    3               CALL EVNT( %XSS_SEV_SPABIND);  /* ignore possible ALTRETURN */

  41943  1 020121   000232 236000 2                  LDQ     154
         1 020122   200021 756100                    STQ     CONTINUING+5,,AUTO
         1 020123   020166 701000 1                  TSX1    EVNT
         1 020124   000000 011000                    NOP     0

     2809    41944    3               SCTX.STATE = %XSS_SST_01;

  41944  1 020125   200003 470500                    LDP0    @VBLK,,AUTO
         1 020126   000000 471500                    LDP1    0,,PR0
         1 020127   001000 236003                    LDQ     512,DU
         1 020130   100000 552140                    STBQ    0,'40'O,PR1

     2810    41945    3               END;

     2811    41946    2           END;

     2812    41947    2       IF SCTX.STATE = %XSS_SST_01 THEN DO;

  41947  1 020131   000000 471500                    LDP1    0,,PR0
         1 020132   100000 236100                    LDQ     0,,PR1
         1 020133   777000 376003                    ANQ     -512,DU
         1 020134   001000 116003                    CMPQ    512,DU
         1 020135   020157 601000 1                  TNZ     s:41957

     2813    41948                /* State is 'idle - no transport connection' so release context */
     2814    41949    2           CALL XSS$RELCTX( VBLK.CTX$);

  41949  1 020136   200003 630500                    EPPR0   @VBLK,,AUTO
         1 020137   000002 631400 2                  EPPR1   2
PL6.E3A0      #001=XSS$MACHINE File=XSS$MACHINE.:XSA1TSI                         WED 10/01/97 12:18 Page:609
         1 020140   000000 701000 xent               TSX1    XSS$RELCTX
         1 020141   000000 011000                    NOP     0

     2815    41950    2           CONTINUING = ~SCTX.ABORTING;

  41950  1 020142   200003 470500                    LDP0    @VBLK,,AUTO
         1 020143   000000 471500                    LDP1    0,,PR0
         1 020144   100013 236100                    LDQ     11,,PR1
         1 020145   000032 736000                    QLS     26
         1 020146   400000 376003                    ANQ     -131072,DU
         1 020147   400000 676003                    ERQ     -131072,DU
         1 020150   200014 756100                    STQ     CONTINUING,,AUTO

     2816    41951    2           SCTX.ABORTING = %TRUE;

  41951  1 020151   001000 236007                    LDQ     512,DL
         1 020152   100013 256100                    ORSQ    11,,PR1

     2817    41952    2           IF CONTINUING THEN

  41952  1 020153   200014 234100                    SZN     CONTINUING,,AUTO
         1 020154   020156 605000 1                  TPL     s:41955

     2818    41953    2               RETURN;

  41953  1 020155   000000 702200 xent               TSX2  ! X66_ARET

     2819    41954                /* during this trip thru the state machine, connection aborted */
     2820    41955    2           ALTRETURN;  /* have E$STATE or other error reported to user */

  41955  1 020156   000000 702200 xent               TSX2  ! X66_AALT

     2821    41956    2           END;
     2822    41957    2       IF SCTX.STATE > 127 THEN DO;

  41957  1 020157   200000 116003                    CMPQ    65536,DU
         1 020160   020165 602000 1                  TNC     s:41962
PL6.E3A0      #001=XSS$MACHINE File=XSS$MACHINE.:XSA1TSI                         WED 10/01/97 12:18 Page:610

     2823    41958                /* There was a user request inconsistent with connection state. */
     2824    41959    2           SCTX.STATE = SCTX.STATE - 128;

  41959  1 020161   100000 236100                    LDQ     0,,PR1
         1 020162   600000 036003                    ADLQ    -65536,DU
         1 020163   100000 552140                    STBQ    0,'40'O,PR1

     2825    41960    2           ALTRETURN;  /* have E$STATE reported to user */

  41960  1 020164   000000 702200 xent               TSX2  ! X66_AALT

     2826    41961    2           END;
     2827    41962    1       RETURN;

  41962  1 020165   000000 702200 xent               TSX2  ! X66_ARET

     2828    41963        %EJECT;
PL6.E3A0      #001=XSS$MACHINE File=XSS$MACHINE.:XSA1TSI                         WED 10/01/97 12:18 Page:611
     2829    41964        /************************************************************************
     2830    41965        *                                                                       *
     2831    41966        *       EVNT Routine                                                    *
     2832    41967        *                                                                       *
     2833    41968        ************************************************************************/
     2834    41969    1   EVNT: PROC( EV#) ALTRET;

  41969  1 020166   200020 741300       EVNT         STX1  ! CONTINUING+4,,AUTO

     2835    41970
     2836    41971    2       DCL CHUNK CHAR( LEN) BASED CALIGNED;
     2837    41972    2       DCL EVENT UBIN;
     2838    41973    2       DCL EV# UBIN;
     2839    41974    2       DCL LEN SBIN;
     2840    41975    2       DCL DBLKX UBIN HALF HALIGNED;
     2841    41976    2       DCL DBLK$ PTR;  /* ptr to destination (or current) mem blk */
     2842    41977    2       DCL SBLKX UBIN HALF HALIGNED;
     2843    41978    2       DCL SBLK$ PTR;  /* ptr to source (or previous) mem blk */
     2844    41979            %XSS$VBLK( NAME=ZBLK, STCLASS=AUTO);
     2845    42084            /* This table maps events destined for the Session-user into the
     2846    42085               function code identifying the Session FPT the user receives. */
     2847    42086    2       DCL SEV_TO_FNC(0:31) UBIN BYTE CONSTANT CALIGNED INIT(
     2848    42087    2           %XSS_FNC_SACDIND#,      /* XSS_SEV_SACDIND */
     2849    42088    2           %XSS_FNC_SACDCNF#,      /* XSS_SEV_SACDCNF */
     2850    42089    2           %XSS_FNC_SACEIND#,      /* XSS_SEV_SACEIND */
     2851    42090    2           %XSS_FNC_SACECNF#,      /* XSS_SEV_SACECNF */
     2852    42091    2           %XSS_FNC_SACIIND#,      /* XSS_SEV_SACIIND */
     2853    42092    2           %XSS_FNC_SACICNF#,      /* XSS_SEV_SACICNF */
     2854    42093    2           %XSS_FNC_SACRIND#,      /* XSS_SEV_SACRIND */
     2855    42094    2           %XSS_FNC_SACSIND#,      /* XSS_SEV_SACSIND */
     2856    42095    2           %XSS_FNC_SCADIND#,      /* XSS_SEV_SCADIND */
     2857    42096    2           %XSS_FNC_SCADCNF#,      /* XSS_SEV_SCADCNF */
     2858    42097    2           %XSS_FNC_SCTGIND#,      /* XSS_SEV_SCTGIND */
     2859    42098    2           %XSS_FNC_SCONIND#,      /* XSS_SEV_SCONIND */
     2860    42099    2           %XSS_FNC_SCONCNF#,      /* XSS_SEV_SCONCFP */
     2861    42100    2           %XSS_FNC_SCONCNF#,      /* XSS_SEV_SCONCFN */
     2862    42101    2           %XSS_FNC_SDATIND#,      /* XSS_SEV_SDATIND */
PL6.E3A0      #001=XSS$MACHINE File=XSS$MACHINE.:XSA1TSI                         WED 10/01/97 12:18 Page:612
     2863    42102    2           %XSS_FNC_SEXPIND#,      /* XSS_SEV_SEXPIND */
     2864    42103    2           %XSS_FNC_STKGIND#,      /* XSS_SEV_STKGIND */
     2865    42104    2           %XSS_FNC_STKPIND#,      /* XSS_SEV_STKPIND */
     2866    42105    2           %XSS_FNC_SRELIND#,      /* XSS_SEV_SRELIND */
     2867    42106    2           %XSS_FNC_SRELCNF#,      /* XSS_SEV_SRELCFP */
     2868    42107    2           %XSS_FNC_SRELCNF#,      /* XSS_SEV_SRELCFN */
     2869    42108    2           %XSS_FNC_SRSXIND#,      /* XSS_SEV_SRSXIND */
     2870    42109    2           %XSS_FNC_SRSXCNF#,      /* XSS_SEV_SRSXCNF */
     2871    42110    2           %XSS_FNC_SPABIND#,      /* XSS_SEV_SPABIND */
     2872    42111    2           %XSS_FNC_SPERIND#,      /* XSS_SEV_SPERIND */
     2873    42112    2           %XSS_FNC_SSMAIND#,      /* XSS_SEV_SSMAIND */
     2874    42113    2           %XSS_FNC_SSMACNF#,      /* XSS_SEV_SSMACNF */
     2875    42114    2           %XSS_FNC_SSMIIND#,      /* XSS_SEV_SSMIIND */
     2876    42115    2           %XSS_FNC_SSMICNF#,      /* XSS_SEV_SSMICNF */
     2877    42116    2           %XSS_FNC_STYDIND#,      /* XSS_SEV_STYDIND */
     2878    42117    2           %XSS_FNC_SUABIND#,      /* XSS_SEV_SUABIND */
     2879    42118    2           %XSS_FNC_SUERIND#);     /* XSS_SEV_SUERIND */
     2880    42119
     2881    42120    2       EVENT = EV#;

  42120  1 020167   200021 470500                    LDP0    @EV#,,AUTO
         1 020170   000000 235100                    LDA     0,,PR0
         1 020171   200022 755100                    STA     EVENT,,AUTO

     2882    42121    2       IF EVENT < %XSS_SEV_TIM THEN

  42121  1 020172   000052 115007                    CMPA    42,DL
         1 020173   020711 602000 1                  TNC     SEND_SPDU

     2883    42122    2           GOTO SEND_SPDU;
     2884    42123    3       IF EVENT >= %XSS_SEV_TCONREQ AND EVENT <= %XSS_SEV_TDISIND THEN DO;

  42123  1 020174   000060 115007                    CMPA    48,DL
         1 020175   020237 602000 1                  TNC     s:42139
         1 020176   000066 115007                    CMPA    54,DL
         1 020177   020237 603000 1                  TRC     s:42139

PL6.E3A0      #001=XSS$MACHINE File=XSS$MACHINE.:XSA1TSI                         WED 10/01/97 12:18 Page:613
     2885    42124                /* this is a Transport event */
     2886    42125    3           IF BINBIT( EVENT, 1) THEN

  42125  1 020200   200022 236100                    LDQ     EVENT,,AUTO
         1 020201   000043 736000                    QLS     35
         1 020202   020207 600000 1                  TZE     s:42128

     2887    42126                    /* these can only be destined for the other endpoint */
     2888    42127    3               CALL XSS$SCREECH( XSS_F$EVNTERR);

  42127  1 020203   000233 630400 2                  EPPR0   155
         1 020204   000002 631400 2                  EPPR1   2
         1 020205   000000 701000 xent               TSX1    XSS$SCREECH
         1 020206   000000 011000                    NOP     0

     2889    42128    3           ZBLK = VBLK;

  42128  1 020207   200003 470500                    LDP0    @VBLK,,AUTO
         1 020210   000100 100500                    MLR     fill='000'O
         1 020211   000000 000040                    ADSC9   0,,PR0                   cn=0,n=32
         1 020212   200030 000040                    ADSC9   ZBLK,,AUTO               cn=0,n=32

     2890    42129    3           ZBLK.EVENT = EVENT;

  42129  1 020213   200022 236100                    LDQ     EVENT,,AUTO
         1 020214   200031 552104                    STBQ    ZBLK+1,'04'O,AUTO

     2891    42130    3           CALL XSS$TSEND( ZBLK)

  42130  1 020215   200030 631500                    EPPR1   ZBLK,,AUTO
         1 020216   200040 451500                    STP1    ZBLK+8,,AUTO
         1 020217   200040 630500                    EPPR0   ZBLK+8,,AUTO
         1 020220   000002 631400 2                  EPPR1   2
         1 020221   000000 701000 xent               TSX1    XSS$TSEND
         1 020222   020224 702000 1                  TSX2    s:42132
         1 020223   020235 710000 1                  TRA     s:42137

PL6.E3A0      #001=XSS$MACHINE File=XSS$MACHINE.:XSA1TSI                         WED 10/01/97 12:18 Page:614
     2892    42131    4           WHENALTRETURN DO;

     2893    42132    5               IF EVENT ~= %XSS_SEV_TDISREQ THEN DO;

  42132  1 020224   200022 235100                    LDA     EVENT,,AUTO
         1 020225   000064 115007                    CMPA    52,DL
         1 020226   020235 600000 1                  TZE     s:42137

     2894    42133    5                   SCTX.ABORTING = %TRUE;  /* pretend TDISIND hit */

  42133  1 020227   200003 470500                    LDP0    @VBLK,,AUTO
         1 020230   000000 471500                    LDP1    0,,PR0
         1 020231   001000 236007                    LDQ     512,DL
         1 020232   100013 256100                    ORSQ    11,,PR1

     2895    42134    5                   ALTRETURN;

  42134  1 020233   200020 221300                    LDX1  ! CONTINUING+4,,AUTO
         1 020234   000000 702211                    TSX2  ! 0,X1

     2896    42135    5                   END;
     2897    42136    4               END;
     2898    42137    3           RETURN;

  42137  1 020235   200020 221300                    LDX1  ! CONTINUING+4,,AUTO
         1 020236   000001 702211                    TSX2  ! 1,X1

     2899    42138    3           END;
     2900    42139    3       IF EVENT = %XSS_SEV_SXABIND THEN DO;

  42139  1 020237   000077 115007                    CMPA    63,DL
         1 020240   020253 601000 1                  TNZ     s:42147

     2901    42140                /* determine whether *real* event should be SUABIND or SPABIND */
     2902    42141    3           IF SCTX.TD.USRAB THEN

  42141  1 020241   200003 471500                    LDP1    @VBLK,,AUTO
PL6.E3A0      #001=XSS$MACHINE File=XSS$MACHINE.:XSA1TSI                         WED 10/01/97 12:18 Page:615
         1 020242   100000 473500                    LDP3    0,,PR1
         1 020243   300015 236100                    LDQ     13,,PR3
         1 020244   004000 316007                    CANQ    2048,DL
         1 020245   020251 600000 1                  TZE     s:42144

     2903    42142    3               EVENT = %XSS_SEV_SUABIND;

  42142  1 020246   000175 235007                    LDA     125,DL
         1 020247   200022 755100                    STA     EVENT,,AUTO
         1 020250   020253 710000 1                  TRA     s:42147

     2904    42143    3           ELSE
     2905    42144    3               EVENT = %XSS_SEV_SPABIND;

  42144  1 020251   000157 235007                    LDA     111,DL
         1 020252   200022 755100                    STA     EVENT,,AUTO

     2906    42145    3           END;

     2907    42146        %EJECT;
PL6.E3A0      #001=XSS$MACHINE File=XSS$MACHINE.:XSA1TSI                         WED 10/01/97 12:18 Page:616
     2908    42147    2       DBLKX = %NULL;

  42147  1 020253   777777 220003                    LDX0    -1,DU
         1 020254   200024 740100                    STX0    DBLKX,,AUTO

     2909    42148    2       IF EVENT = %XSS_SEV_SDATIND THEN

  42148  1 020255   000135 115007                    CMPA    93,DL
         1 020256   020603 601000 1                  TNZ     s:42216

     2910    42149    3           IF VBLK.EI.BOSSDU THEN DO;

  42149  1 020257   200003 471500                    LDP1    @VBLK,,AUTO
         1 020260   100001 236100                    LDQ     1,,PR1
         1 020261   004000 316007                    CANQ    2048,DL
         1 020262   020350 600000 1                  TZE     s:42173

     2911    42150    4               IF VBLK.EI.EOSSDU THEN DO;

  42150  1 020263   002000 316007                    CANQ    1024,DL
         1 020264   020266 600000 1                  TZE     s:42155

     2912    42151                        /* Both BOSSDU and EOSSDU are set.  No special action. */
     2913    42152    4                   END;

  42152  1 020265   020603 710000 1                  TRA     s:42216

     2914    42153    4               ELSE DO;

     2915    42154                        /* BOSSDU is set, but not EOSSDU.  First chunk of data. */
     2916    42155    4                   IF SCTX.HEADX ~= %NULL OR SCTX.TAILX ~= %NULL THEN

  42155  1 020266   100000 473500                    LDP3    0,,PR1
         1 020267   300031 222100                    LDX2    25,,PR3
         1 020270   777777 102003                    CMPX2   -1,DU
         1 020271   020765 601000 1                  TNZ     BUFERR
         1 020272   300031 723100                    LXL3    25,,PR3
PL6.E3A0      #001=XSS$MACHINE File=XSS$MACHINE.:XSA1TSI                         WED 10/01/97 12:18 Page:617
         1 020273   777777 103003                    CMPX3   -1,DU
         1 020274   020765 601000 1                  TNZ     BUFERR

     2917    42156    4                       GOTO BUFERR;  /* context wasn't cleaned up last time */
     2918    42157                        /* find some buffer space for the data */
     2919    42158    4                   LEN = XSS$GENERIC.DATA.SIZE;

  42158  1 020275   200005 474500                    LDP4    SFPT$,,AUTO
         1 020276   400003 235100                    LDA     3,,PR4
         1 020277   200023 755100                    STA     LEN,,AUTO

     2920    42159    4                   CALL XSS$GETMEM( DBLKX, DBLK$, LEN) ALTRET( NOMEM);

  42159  1 020300   200023 633500                    EPPR3   LEN,,AUTO
         1 020301   200042 453500                    STP3    ZBLK+10,,AUTO
         1 020302   200025 635500                    EPPR5   DBLK$,,AUTO
         1 020303   200041 455500                    STP5    ZBLK+9,,AUTO
         1 020304   200024 636500                    EPPR6   DBLKX,,AUTO
         1 020305   200040 456500                    STP6    ZBLK+8,,AUTO
         1 020306   200040 630500                    EPPR0   ZBLK+8,,AUTO
         1 020307   000234 631400 2                  EPPR1   156
         1 020310   000000 701000 xent               TSX1    XSS$GETMEM
         1 020311   020765 702000 1                  TSX2    BUFERR

     2921    42160    4                   SCTX.HEADX = DBLKX;

  42160  1 020312   200003 470500                    LDP0    @VBLK,,AUTO
         1 020313   000000 471500                    LDP1    0,,PR0
         1 020314   200024 220100                    LDX0    DBLKX,,AUTO
         1 020315   100031 740100                    STX0    25,,PR1

     2922    42161                        /* copy data into the buffer and incr byte count */
     2923    42162    4                   DBLK$->CHUNK = XSS$GENERIC.DATA.PTR$->CHUNK;

  42162  1 020316   200005 471500                    LDP1    SFPT$,,AUTO
         1 020317   100002 473500                    LDP3    2,,PR1
         1 020320   200023 721100                    LXL1    LEN,,AUTO
PL6.E3A0      #001=XSS$MACHINE File=XSS$MACHINE.:XSA1TSI                         WED 10/01/97 12:18 Page:618
         1 020321   200025 474500                    LDP4    DBLK$,,AUTO
         1 020322   040140 100540                    MLR     fill='040'O
         1 020323   300000 000011                    ADSC9   0,,PR3                   cn=0,n=*X1
         1 020324   400000 000011                    ADSC9   0,,PR4                   cn=0,n=*X1

     2924    42163    4                   SCTX.BUFTOT = LEN;

  42163  1 020325   000000 473500                    LDP3    0,,PR0
         1 020326   200023 235100                    LDA     LEN,,AUTO
         1 020327   300032 755100                    STA     26,,PR3

     2925    42164                        /* adjust memblk header */
     2926    42165    4                   CALL XSS$BLKPTR( DBLKX, DBLK$);

  42165  1 020330   200025 633500                    EPPR3   DBLK$,,AUTO
         1 020331   200041 453500                    STP3    ZBLK+9,,AUTO
         1 020332   200024 634500                    EPPR4   DBLKX,,AUTO
         1 020333   200040 454500                    STP4    ZBLK+8,,AUTO
         1 020334   200040 630500                    EPPR0   ZBLK+8,,AUTO
         1 020335   000000 631400 2                  EPPR1   0
         1 020336   000000 701000 xent               TSX1    XSS$BLKPTR
         1 020337   000000 011000                    NOP     0

     2927    42166    4                   DBLK$->B$BLOCK.FLNKX = %NULL;

  42166  1 020340   777777 220003                    LDX0    -1,DU
         1 020341   200025 470500                    LDP0    DBLK$,,AUTO
         1 020342   000001 740100                    STX0    1,,PR0

     2928    42167    4                   DBLK$->B$BLOCK.HTEMP = LEN;

  42167  1 020343   200023 721100                    LXL1    LEN,,AUTO
         1 020344   200025 470500                    LDP0    DBLK$,,AUTO
         1 020345   000001 441100                    SXL1    1,,PR0

     2929    42168    4                   RETURN;

PL6.E3A0      #001=XSS$MACHINE File=XSS$MACHINE.:XSA1TSI                         WED 10/01/97 12:18 Page:619
  42168  1 020346   200020 221300                    LDX1  ! CONTINUING+4,,AUTO
         1 020347   000001 702211                    TSX2  ! 1,X1

     2930    42169    4                   END;
     2931    42170    3               END;
     2932    42171    3           ELSE DO;

     2933    42172                    /* BOSSDU not set.  Here's another chunk of the message. */
     2934    42173    3               IF SCTX.HEADX = %NULL THEN

  42173  1 020350   100000 473500                    LDP3    0,,PR1
         1 020351   300031 222100                    LDX2    25,,PR3
         1 020352   777777 102003                    CMPX2   -1,DU
         1 020353   020765 600000 1                  TZE     BUFERR

     2935    42174    3                   GOTO BUFERR;  /* something's gone haywire */
     2936    42175                    /* find some buffer space for the data */
     2937    42176    3               LEN = XSS$GENERIC.DATA.SIZE;

  42176  1 020354   200005 474500                    LDP4    SFPT$,,AUTO
         1 020355   400003 235100                    LDA     3,,PR4
         1 020356   200023 755100                    STA     LEN,,AUTO

     2938    42177    3               CALL XSS$GETMEM( DBLKX, DBLK$, LEN) ALTRET( NOMEM);

  42177  1 020357   200023 633500                    EPPR3   LEN,,AUTO
         1 020360   200042 453500                    STP3    ZBLK+10,,AUTO
         1 020361   200025 635500                    EPPR5   DBLK$,,AUTO
         1 020362   200041 455500                    STP5    ZBLK+9,,AUTO
         1 020363   200024 636500                    EPPR6   DBLKX,,AUTO
         1 020364   200040 456500                    STP6    ZBLK+8,,AUTO
         1 020365   200040 630500                    EPPR0   ZBLK+8,,AUTO
         1 020366   000234 631400 2                  EPPR1   156
         1 020367   000000 701000 xent               TSX1    XSS$GETMEM
         1 020370   020765 702000 1                  TSX2    BUFERR

     2939    42178                    /* append this memblk onto buffer chain */
PL6.E3A0      #001=XSS$MACHINE File=XSS$MACHINE.:XSA1TSI                         WED 10/01/97 12:18 Page:620
     2940    42179    3               IF SCTX.TAILX = %NULL THEN

  42179  1 020371   200003 470500                    LDP0    @VBLK,,AUTO
         1 020372   000000 471500                    LDP1    0,,PR0
         1 020373   100031 720100                    LXL0    25,,PR1
         1 020374   777777 100003                    CMPX0   -1,DU
         1 020375   020407 601000 1                  TNZ     s:42182

     2941    42180    3                   CALL XSS$BLKPTR( SCTX.HEADX, SBLK$);

  42180  1 020376   200027 633500                    EPPR3   SBLK$,,AUTO
         1 020377   200041 453500                    STP3    ZBLK+9,,AUTO
         1 020400   100031 634500                    EPPR4   25,,PR1
         1 020401   200040 454500                    STP4    ZBLK+8,,AUTO
         1 020402   200040 630500                    EPPR0   ZBLK+8,,AUTO
         1 020403   000000 631400 2                  EPPR1   0
         1 020404   000000 701000 xent               TSX1    XSS$BLKPTR
         1 020405   000000 011000                    NOP     0
         1 020406   020421 710000 1                  TRA     s:42183

     2942    42181    3               ELSE
     2943    42182    3                   CALL XSS$BLKPTR( SCTX.TAILX, SBLK$);

  42182  1 020407   200027 633500                    EPPR3   SBLK$,,AUTO
         1 020410   200041 453500                    STP3    ZBLK+9,,AUTO
         1 020411   200042 451500                    STP1    ZBLK+10,,AUTO
         1 020412   200042 236100                    LDQ     ZBLK+10,,AUTO
         1 020413   000235 036000 2                  ADLQ    157
         1 020414   200040 756100                    STQ     ZBLK+8,,AUTO
         1 020415   200040 630500                    EPPR0   ZBLK+8,,AUTO
         1 020416   000000 631400 2                  EPPR1   0
         1 020417   000000 701000 xent               TSX1    XSS$BLKPTR
         1 020420   000000 011000                    NOP     0

     2944    42183    3               SBLK$->B$BLOCK.FLNKX = DBLKX;

  42183  1 020421   200024 220100                    LDX0    DBLKX,,AUTO
PL6.E3A0      #001=XSS$MACHINE File=XSS$MACHINE.:XSA1TSI                         WED 10/01/97 12:18 Page:621
         1 020422   200027 470500                    LDP0    SBLK$,,AUTO
         1 020423   000001 740100                    STX0    1,,PR0

     2945    42184    3               SCTX.TAILX = DBLKX;

  42184  1 020424   200003 470500                    LDP0    @VBLK,,AUTO
         1 020425   000000 471500                    LDP1    0,,PR0
         1 020426   200024 220100                    LDX0    DBLKX,,AUTO
         1 020427   100031 440100                    SXL0    25,,PR1

     2946    42185                    /* copy data into the buffer and incr byte count */
     2947    42186    3               DBLK$->CHUNK = XSS$GENERIC.DATA.PTR$->CHUNK;

  42186  1 020430   200005 471500                    LDP1    SFPT$,,AUTO
         1 020431   100002 473500                    LDP3    2,,PR1
         1 020432   200023 721100                    LXL1    LEN,,AUTO
         1 020433   200025 474500                    LDP4    DBLK$,,AUTO
         1 020434   040140 100540                    MLR     fill='040'O
         1 020435   300000 000011                    ADSC9   0,,PR3                   cn=0,n=*X1
         1 020436   400000 000011                    ADSC9   0,,PR4                   cn=0,n=*X1

     2948    42187    3               SCTX.BUFTOT = SCTX.BUFTOT + LEN;

  42187  1 020437   000000 473500                    LDP3    0,,PR0
         1 020440   300032 236100                    LDQ     26,,PR3
         1 020441   200023 036100                    ADLQ    LEN,,AUTO
         1 020442   300032 756100                    STQ     26,,PR3

     2949    42188                    /* adjust memblk header */
     2950    42189    3               CALL XSS$BLKPTR( DBLKX, DBLK$);

  42189  1 020443   200025 633500                    EPPR3   DBLK$,,AUTO
         1 020444   200041 453500                    STP3    ZBLK+9,,AUTO
         1 020445   200024 634500                    EPPR4   DBLKX,,AUTO
         1 020446   200040 454500                    STP4    ZBLK+8,,AUTO
         1 020447   200040 630500                    EPPR0   ZBLK+8,,AUTO
         1 020450   000000 631400 2                  EPPR1   0
PL6.E3A0      #001=XSS$MACHINE File=XSS$MACHINE.:XSA1TSI                         WED 10/01/97 12:18 Page:622
         1 020451   000000 701000 xent               TSX1    XSS$BLKPTR
         1 020452   000000 011000                    NOP     0

     2951    42190    3               DBLK$->B$BLOCK.FLNKX = %NULL;

  42190  1 020453   777777 220003                    LDX0    -1,DU
         1 020454   200025 470500                    LDP0    DBLK$,,AUTO
         1 020455   000001 740100                    STX0    1,,PR0

     2952    42191    3               DBLK$->B$BLOCK.HTEMP = LEN;

  42191  1 020456   200023 721100                    LXL1    LEN,,AUTO
         1 020457   200025 470500                    LDP0    DBLK$,,AUTO
         1 020460   000001 441100                    SXL1    1,,PR0

     2953    42192                    /* check if more work to do */
     2954    42193    4               IF VBLK.EI.EOSSDU THEN DO;

  42193  1 020461   200003 470500                    LDP0    @VBLK,,AUTO
         1 020462   000001 236100                    LDQ     1,,PR0
         1 020463   002000 316007                    CANQ    1024,DL
         1 020464   020601 600000 1                  TZE     s:42212

     2955    42194                        /* This is the last chunk of the message.  Oh boy. */
     2956    42195    4                   CALL XSS$GETMEM( DBLKX, DBLK$, SCTX.BUFTOT) ALTRET( NOMEM);

  42195  1 020465   000000 471500                    LDP1    0,,PR0
         1 020466   100032 633500                    EPPR3   26,,PR1
         1 020467   200042 453500                    STP3    ZBLK+10,,AUTO
         1 020470   200025 631500                    EPPR1   DBLK$,,AUTO
         1 020471   200041 451500                    STP1    ZBLK+9,,AUTO
         1 020472   200024 634500                    EPPR4   DBLKX,,AUTO
         1 020473   200040 454500                    STP4    ZBLK+8,,AUTO
         1 020474   200040 630500                    EPPR0   ZBLK+8,,AUTO
         1 020475   000234 631400 2                  EPPR1   156
         1 020476   000000 701000 xent               TSX1    XSS$GETMEM
         1 020477   020765 702000 1                  TSX2    BUFERR
PL6.E3A0      #001=XSS$MACHINE File=XSS$MACHINE.:XSA1TSI                         WED 10/01/97 12:18 Page:623

     2957    42196    5                   DO WHILE( SCTX.HEADX ~= %NULL);

  42196  1 020500   200003 470500                    LDP0    @VBLK,,AUTO
         1 020501   000000 471500                    LDP1    0,,PR0
         1 020502   100031 220100                    LDX0    25,,PR1
         1 020503   777777 100003                    CMPX0   -1,DU
         1 020504   020557 600000 1                  TZE     s:42205

     2958    42197    5                       CALL XSS$BLKPTR( SCTX.HEADX, SBLK$);

  42197  1 020505   200003 470500                    LDP0    @VBLK,,AUTO
         1 020506   000000 471500                    LDP1    0,,PR0
         1 020507   200027 633500                    EPPR3   SBLK$,,AUTO
         1 020510   200041 453500                    STP3    ZBLK+9,,AUTO
         1 020511   100031 634500                    EPPR4   25,,PR1
         1 020512   200040 454500                    STP4    ZBLK+8,,AUTO
         1 020513   200040 630500                    EPPR0   ZBLK+8,,AUTO
         1 020514   000000 631400 2                  EPPR1   0
         1 020515   000000 701000 xent               TSX1    XSS$BLKPTR
         1 020516   000000 011000                    NOP     0

     2959    42198    5                       LEN = SBLK$->B$BLOCK.HTEMP;

  42198  1 020517   200027 470500                    LDP0    SBLK$,,AUTO
         1 020520   000001 236100                    LDQ     1,,PR0
         1 020521   777777 376007                    ANQ     -1,DL
         1 020522   200023 756100                    STQ     LEN,,AUTO

     2960    42199    5                       DBLK$->CHUNK = ADDR( SBLK$->B$BLOCK.DATA)->CHUNK;

  42199  1 020523   000000 620006                    EAX0    0,QL
         1 020524   200025 471500                    LDP1    DBLK$,,AUTO
         1 020525   200023 721100                    LXL1    LEN,,AUTO
         1 020526   040140 100540                    MLR     fill='040'O
         1 020527   000002 000010                    ADSC9   2,,PR0                   cn=0,n=*X0
         1 020530   100000 000011                    ADSC9   0,,PR1                   cn=0,n=*X1
PL6.E3A0      #001=XSS$MACHINE File=XSS$MACHINE.:XSA1TSI                         WED 10/01/97 12:18 Page:624

     2961    42200    5                       DBLK$ = PINCRC( DBLK$, LEN);

  42200  1 020531   200023 236100                    LDQ     LEN,,AUTO
         1 020532   000020 736000                    QLS     16
         1 020533   200025 036100                    ADLQ    DBLK$,,AUTO
         1 020534   200025 756100                    STQ     DBLK$,,AUTO

     2962    42201    5                       SCTX.HEADX = SBLK$->B$BLOCK.FLNKX;

  42201  1 020535   200003 470500                    LDP0    @VBLK,,AUTO
         1 020536   000000 471500                    LDP1    0,,PR0
         1 020537   200027 473500                    LDP3    SBLK$,,AUTO
         1 020540   300001 220100                    LDX0    1,,PR3
         1 020541   100031 740100                    STX0    25,,PR1

     2963    42202    5                       SBLKX = SBLK$->B$BLOCK.BLKX;

  42202  1 020542   300000 720100                    LXL0    0,,PR3
         1 020543   200026 740100                    STX0    SBLKX,,AUTO

     2964    42203    5                       CALL XSS$RELMEM( SBLKX);

  42203  1 020544   200026 631500                    EPPR1   SBLKX,,AUTO
         1 020545   200040 451500                    STP1    ZBLK+8,,AUTO
         1 020546   200040 630500                    EPPR0   ZBLK+8,,AUTO
         1 020547   000002 631400 2                  EPPR1   2
         1 020550   000000 701000 xent               TSX1    XSS$RELMEM
         1 020551   000000 011000                    NOP     0

     2965    42204    5                       END;

  42204  1 020552   200003 470500                    LDP0    @VBLK,,AUTO
         1 020553   000000 471500                    LDP1    0,,PR0
         1 020554   100031 220100                    LDX0    25,,PR1
         1 020555   777777 100003                    CMPX0   -1,DU
         1 020556   020505 601000 1                  TNZ     s:42197
PL6.E3A0      #001=XSS$MACHINE File=XSS$MACHINE.:XSA1TSI                         WED 10/01/97 12:18 Page:625

     2966    42205    4                   SCTX.TAILX = %NULL;

  42205  1 020557   777777 221003                    LDX1    -1,DU
         1 020560   100031 441100                    SXL1    25,,PR1

     2967    42206    4                   XSS$GENERIC.DATA.SIZE = SCTX.BUFTOT;

  42206  1 020561   000000 471500                    LDP1    0,,PR0
         1 020562   100032 235100                    LDA     26,,PR1
         1 020563   200005 473500                    LDP3    SFPT$,,AUTO
         1 020564   300003 755100                    STA     3,,PR3

     2968    42207    4                   SCTX.BUFTOT = 0;

  42207  1 020565   000000 471500                    LDP1    0,,PR0
         1 020566   100032 450100                    STZ     26,,PR1

     2969    42208    4                   CALL XSS$BUFPTR( DBLKX, XSS$GENERIC.DATA.PTR$);

  42208  1 020567   200005 236100                    LDQ     SFPT$,,AUTO
         1 020570   000002 036003                    ADLQ    2,DU
         1 020571   200041 756100                    STQ     ZBLK+9,,AUTO
         1 020572   200024 631500                    EPPR1   DBLKX,,AUTO
         1 020573   200040 451500                    STP1    ZBLK+8,,AUTO
         1 020574   200040 630500                    EPPR0   ZBLK+8,,AUTO
         1 020575   000000 631400 2                  EPPR1   0
         1 020576   000000 701000 xent               TSX1    XSS$BUFPTR
         1 020577   000000 011000                    NOP     0

     2970    42209    4                   END;

  42209  1 020600   020603 710000 1                  TRA     s:42216

     2971    42210    3               ELSE
     2972    42211                        /* Neither BOSSDU nor EOSSDU set.  Done all we can do. */
     2973    42212    3                   RETURN;
PL6.E3A0      #001=XSS$MACHINE File=XSS$MACHINE.:XSA1TSI                         WED 10/01/97 12:18 Page:626

  42212  1 020601   200020 221300                    LDX1  ! CONTINUING+4,,AUTO
         1 020602   000001 702211                    TSX2  ! 1,X1

     2974    42213    3               END;
     2975    42214        %EJECT;
PL6.E3A0      #001=XSS$MACHINE File=XSS$MACHINE.:XSA1TSI                         WED 10/01/97 12:18 Page:627
     2976    42215            /* determine whether event is to be reported to this user or other end */
     2977    42216    3       IF BINBIT( EVENT, 1) THEN DO;

  42216  1 020603   200022 236100                    LDQ     EVENT,,AUTO
         1 020604   000043 736000                    QLS     35
         1 020605   020711 600000 1                  TZE     SEND_SPDU

     2978    42217                /* odd event number means report it (as FPT) to this user */
     2979    42218    3           XSS$GENERIC.FNC = SEV_TO_FNC( EVENT / 2 - 32);

  42218  1 020606   200022 236100                    LDQ     EVENT,,AUTO
         1 020607   000001 772000                    QRL     1
         1 020610   200005 470500                    LDP0    SFPT$,,AUTO
         1 020611   000100 100406                    MLR     fill='000'O
         1 020612   777773 000001 0                  ADSC9   SEV_TO_FNC-8,Q           cn=0,n=1
         1 020613   000000 000001                    ADSC9   0,,PR0                   cn=0,n=1

     2980    42219    3           XSS$GENERIC.ERROR = '0'B;

  42219  1 020614   000001 450100                    STZ     1,,PR0

     2981    42220    3           IF XSS_TRACE > 0 THEN

  42220  1 020615   000000 235000 xsym               LDA     XSS_TRACE
         1 020616   020623 604400 1                  TMOZ    s:42222

     2982    42221    3               CALL XSS$DUMPFPT( XSS$GENERIC);

  42221  1 020617   200005 630500                    EPPR0   SFPT$,,AUTO
         1 020620   000002 631400 2                  EPPR1   2
         1 020621   000000 701000 xent               TSX1    XSS$DUMPFPT
         1 020622   000000 011000                    NOP     0

     2983    42222    3           CALL XSS$EVLOG( 'KU', XSS$GENERIC.FNC*512 + SCTX.SCID);

  42222  1 020623   200003 470500                    LDP0    @VBLK,,AUTO
         1 020624   000000 471500                    LDP1    0,,PR0
PL6.E3A0      #001=XSS$MACHINE File=XSS$MACHINE.:XSA1TSI                         WED 10/01/97 12:18 Page:628
         1 020625   100015 236100                    LDQ     13,,PR1
         1 020626   000022 772000                    QRL     18
         1 020627   000777 376007                    ANQ     511,DL
         1 020630   200040 756100                    STQ     ZBLK+8,,AUTO
         1 020631   200005 471500                    LDP1    SFPT$,,AUTO
         1 020632   100000 236100                    LDQ     0,,PR1
         1 020633   000022 772000                    QRL     18
         1 020634   777000 376007                    ANQ     -512,DL
         1 020635   200040 036100                    ADLQ    ZBLK+8,,AUTO
         1 020636   200041 756100                    STQ     ZBLK+9,,AUTO
         1 020637   200041 633500                    EPPR3   ZBLK+9,,AUTO
         1 020640   200043 453500                    STP3    ZBLK+11,,AUTO
         1 020641   000236 236000 2                  LDQ     158
         1 020642   200042 756100                    STQ     ZBLK+10,,AUTO
         1 020643   200042 630500                    EPPR0   ZBLK+10,,AUTO
         1 020644   000000 631400 2                  EPPR1   0
         1 020645   000000 701000 xent               TSX1    XSS$EVLOG
         1 020646   000000 011000                    NOP     0

     2984    42223    3           IF SCTX.ENTRY$ ~= ENTADDR( NIL) THEN

  42223  1 020647   200003 470500                    LDP0    @VBLK,,AUTO
         1 020650   000000 471500                    LDP1    0,,PR0
         1 020651   100016 236100                    LDQ     14,,PR1
         1 020652   000237 116000 2                  CMPQ    159
         1 020653   020667 600000 1                  TZE     s:42230

     2985    42224    3               CALL SCTX.ENTRY$( XSS$GENERIC)

  42224  1 020654   200005 630500                    EPPR0   SFPT$,,AUTO
         1 020655   100016 220100                    LDX0    14,,PR1
         1 020656   000002 631400 2                  EPPR1   2
         1 020657   000000 701010                    TSX1    0,X0
         1 020660   020662 702000 1                  TSX2    s:42226
         1 020661   020666 710000 1                  TRA     s:42227

     2986    42225    4               WHENALTRETURN DO;
PL6.E3A0      #001=XSS$MACHINE File=XSS$MACHINE.:XSA1TSI                         WED 10/01/97 12:18 Page:629

     2987    42226    4                   SCTX.ABORTING = %TRUE;

  42226  1 020662   200003 470500                    LDP0    @VBLK,,AUTO
         1 020663   000000 471500                    LDP1    0,,PR0
         1 020664   001000 236007                    LDQ     512,DL
         1 020665   100013 256100                    ORSQ    11,,PR1

     2988    42227    4                   END;

  42227  1 020666   020673 710000 1                  TRA     s:42231

     2989    42228    3           ELSE
     2990    42229                    /* no Session-user handler routine defined.  This can't be! */
     2991    42230    3               CALL XSS$SCREECH( XSS_F$NOSESS);

  42230  1 020667   000240 630400 2                  EPPR0   160
         1 020670   000002 631400 2                  EPPR1   2
         1 020671   000000 701000 xent               TSX1    XSS$SCREECH
         1 020672   000000 011000                    NOP     0

     2992    42231    3           IF DBLKX ~= %NULL THEN

  42231  1 020673   200024 220100                    LDX0    DBLKX,,AUTO
         1 020674   777777 100003                    CMPX0   -1,DU
         1 020675   020704 600000 1                  TZE     s:42234

     2993    42232                    /* release the memblk containing all the chunks of the data */
     2994    42233    3               CALL XSS$RELMEM( DBLKX);

  42233  1 020676   200024 630500                    EPPR0   DBLKX,,AUTO
         1 020677   200040 450500                    STP0    ZBLK+8,,AUTO
         1 020700   200040 630500                    EPPR0   ZBLK+8,,AUTO
         1 020701   000002 631400 2                  EPPR1   2
         1 020702   000000 701000 xent               TSX1    XSS$RELMEM
         1 020703   000000 011000                    NOP     0

PL6.E3A0      #001=XSS$MACHINE File=XSS$MACHINE.:XSA1TSI                         WED 10/01/97 12:18 Page:630
     2995    42234    3           VBLK.USERCALL = VBLK.USERCALL + 1;

  42234  1 020704   200003 470500                    LDP0    @VBLK,,AUTO
         1 020705   000003 235100                    LDA     3,,PR0
         1 020706   000001 035007                    ADLA    1,DL
         1 020707   000003 755100                    STA     3,,PR0

     2996    42235    3           END;

  42235  1 020710   020754 710000 1                  TRA     s:42248

     2997    42236    3       ELSE DO;

     2998    42237                /* even event number means send it (as SPDU) to the other end */
     2999    42238    3   SEND_SPDU:
     3000    42239    3           CALL XSS$EVLOG( 'EP', EVENT*512 + SCTX.SCID);

  42239  1 020711   200003 470500       SEND_SPDU    LDP0    @VBLK,,AUTO
         1 020712   000000 471500                    LDP1    0,,PR0
         1 020713   100015 236100                    LDQ     13,,PR1
         1 020714   000022 772000                    QRL     18
         1 020715   000777 376007                    ANQ     511,DL
         1 020716   200040 756100                    STQ     ZBLK+8,,AUTO
         1 020717   200022 236100                    LDQ     EVENT,,AUTO
         1 020720   000011 736000                    QLS     9
         1 020721   200040 036100                    ADLQ    ZBLK+8,,AUTO
         1 020722   200041 756100                    STQ     ZBLK+9,,AUTO
         1 020723   200041 631500                    EPPR1   ZBLK+9,,AUTO
         1 020724   200043 451500                    STP1    ZBLK+11,,AUTO
         1 020725   000241 236000 2                  LDQ     161
         1 020726   200042 756100                    STQ     ZBLK+10,,AUTO
         1 020727   200042 630500                    EPPR0   ZBLK+10,,AUTO
         1 020730   000000 631400 2                  EPPR1   0
         1 020731   000000 701000 xent               TSX1    XSS$EVLOG
         1 020732   000000 011000                    NOP     0

     3001    42240    3           ZBLK = VBLK;
PL6.E3A0      #001=XSS$MACHINE File=XSS$MACHINE.:XSA1TSI                         WED 10/01/97 12:18 Page:631

  42240  1 020733   200003 470500                    LDP0    @VBLK,,AUTO
         1 020734   000100 100500                    MLR     fill='000'O
         1 020735   000000 000040                    ADSC9   0,,PR0                   cn=0,n=32
         1 020736   200030 000040                    ADSC9   ZBLK,,AUTO               cn=0,n=32

     3002    42241    3           ZBLK.EVENT = EVENT;

  42241  1 020737   200022 236100                    LDQ     EVENT,,AUTO
         1 020740   200031 552104                    STBQ    ZBLK+1,'04'O,AUTO

     3003    42242    3           CALL XSS$ENCODE( ZBLK)

  42242  1 020741   200030 631500                    EPPR1   ZBLK,,AUTO
         1 020742   200040 451500                    STP1    ZBLK+8,,AUTO
         1 020743   200040 630500                    EPPR0   ZBLK+8,,AUTO
         1 020744   000002 631400 2                  EPPR1   2
         1 020745   000000 701000 xent               TSX1    XSS$ENCODE
         1 020746   020750 702000 1                  TSX2    s:42245
         1 020747   020754 710000 1                  TRA     s:42248

     3004    42243    4           WHENALTRETURN DO;

     3005    42244                    /* ALTRETURN means that XSS$TSEND ALTRETURNed for some reason. */
     3006    42245    4               SCTX.ABORTING = %TRUE;  /* pretend T-DISCONNECT Indication */

  42245  1 020750   200003 470500                    LDP0    @VBLK,,AUTO
         1 020751   000000 471500                    LDP1    0,,PR0
         1 020752   001000 236007                    LDQ     512,DL
         1 020753   100013 256100                    ORSQ    11,,PR1

     3007    42246    4               END;

     3008    42247    3           END;

     3009    42248    2       IF SCTX.ABORTING THEN

PL6.E3A0      #001=XSS$MACHINE File=XSS$MACHINE.:XSA1TSI                         WED 10/01/97 12:18 Page:632
  42248  1 020754   200003 470500                    LDP0    @VBLK,,AUTO
         1 020755   000000 471500                    LDP1    0,,PR0
         1 020756   100013 236100                    LDQ     11,,PR1
         1 020757   001000 316007                    CANQ    512,DL
         1 020760   020763 600000 1                  TZE     s:42250

     3010    42249    2           ALTRETURN;

  42249  1 020761   200020 221300                    LDX1  ! CONTINUING+4,,AUTO
         1 020762   000000 702211                    TSX2  ! 0,X1

     3011    42250    2       RETURN;

  42250  1 020763   200020 221300                    LDX1  ! CONTINUING+4,,AUTO
         1 020764   000001 702211                    TSX2  ! 1,X1

  42248  1 020765                       BUFERR       null
     3012    42251    2   BUFERR:
     3013    42252    2       ;
     3014    42253    2   NOMEM:
     3015    42254    2       SCTX.ABORTING = %TRUE;

  42254  1 020765   200003 470500       NOMEM        LDP0    @VBLK,,AUTO
         1 020766   000000 471500                    LDP1    0,,PR0
         1 020767   001000 236007                    LDQ     512,DL
         1 020770   100013 256100                    ORSQ    11,,PR1

     3016    42255    2       ALTRETURN;

  42255  1 020771   200020 221300                    LDX1  ! CONTINUING+4,,AUTO
         1 020772   000000 702211                    TSX2  ! 0,X1

     3017    42256
     3018    42257    2       END EVNT;
     3019    42258        %EJECT;
PL6.E3A0      #001=XSS$MACHINE File=XSS$MACHINE.:XSA1TSI                         WED 10/01/97 12:18 Page:633
     3020    42259        /************************************************************************
     3021    42260        *                                                                       *
     3022    42261        *       OOPS Routine                                                    *
     3023    42262        *                                                                       *
     3024    42263        ************************************************************************/
     3025    42264    1   OOPS: PROC;

  42264  1 020773   200016 741300       OOPS         STX1  ! CONTINUING+2,,AUTO

     3026    42265            /* An illegal state/event combination was detected */
     3027    42266    2       IF VBLK.EVENT < %XSS_SEV_SACDREQ THEN

  42266  1 020774   200003 470500                    LDP0    @VBLK,,AUTO
         1 020775   000001 236100                    LDQ     1,,PR0
         1 020776   000777 376007                    ANQ     511,DL
         1 020777   000100 116007                    CMPQ    64,DL
         1 021000   021005 603000 1                  TRC     s:42271

     3028    42267                /* Illegal incoming SPDU or Transport event, so abort connection */
     3029    42268    2           SCTX.ABORTING = %TRUE;

  42268  1 021001   000000 471500                    LDP1    0,,PR0
         1 021002   001000 236007                    LDQ     512,DL
         1 021003   100013 256100                    ORSQ    11,,PR1
         1 021004   021011 710000 1                  TRA     s:42272

     3030    42269    2       ELSE
     3031    42270                /* Illegal event was a user request, so just crab about it */
     3032    42271    2           SCTX.STATE = SCTX.STATE + 128;

  42271  1 021005   000000 471500                    LDP1    0,,PR0
         1 021006   100000 236100                    LDQ     0,,PR1
         1 021007   200000 036003                    ADLQ    65536,DU
         1 021010   100000 552140                    STBQ    0,'40'O,PR1

     3033    42272    2       RETURN;

PL6.E3A0      #001=XSS$MACHINE File=XSS$MACHINE.:XSA1TSI                         WED 10/01/97 12:18 Page:634
  42272  1 021011   200016 221300                    LDX1  ! CONTINUING+2,,AUTO
         1 021012   000001 702211                    TSX2  ! 1,X1

     3034    42273
     3035    42274    2       END OOPS;
     3036    42275        %EJECT;
PL6.E3A0      #001=XSS$MACHINE File=XSS$MACHINE.:XSA1TSI                         WED 10/01/97 12:18 Page:635
     3037    42276        /*****************************************************************************
     3038    42277        *                                                                            *
     3039    42278        *       ACTIONxx Routines                                                    *
     3040    42279        *                                                                            *
     3041    42280        *****************************************************************************/
     3042    42281    1   ACTION00: PROC ALTRET;

  42281  1 021013   200016 741300       ACTION00     STX1  ! CONTINUING+2,,AUTO

     3043    42282
     3044    42283    2   ALT:
     3045    42284    2       ALTRETURN;  /* single alternate exit to aid debugging */

  42284  1 021014   200016 221300       ALT          LDX1  ! CONTINUING+2,,AUTO
         1 021015   000000 702211                    TSX2  ! 0,X1

     3046    42285    2   RET:
     3047    42286    2       RETURN;  /* single exit to aid debugging */

  42286  1 021016   200016 221300       RET          LDX1  ! CONTINUING+2,,AUTO
         1 021017   000001 702211                    TSX2  ! 1,X1

     3048    42287
     3049    42288    2   ACTION01: ENTRY ALTRET;

  42288  1 021020   200016 741300       ACTION01     STX1  ! CONTINUING+2,,AUTO

     3050    42289
     3051    42290            /* "Set Vtca = true" */
     3052    42291            /* Events: TCONIND */
     3053    42292    2       SCTX.FLAGS.VTCA = %TRUE;

  42292  1 021021   200003 470500                    LDP0    @VBLK,,AUTO
         1 021022   000000 471500                    LDP1    0,,PR0
         1 021023   002000 236007                    LDQ     1024,DL
         1 021024   100006 256100                    ORSQ    6,,PR1

PL6.E3A0      #001=XSS$MACHINE File=XSS$MACHINE.:XSA1TSI                         WED 10/01/97 12:18 Page:636
     3054    42293    2       GOTO RET;

  42293  1 021025   021016 710000 1                  TRA     RET

     3055    42294
     3056    42295    2   ACTION02: ENTRY ALTRET;

  42295  1 021026   200016 741300       ACTION02     STX1  ! CONTINUING+2,,AUTO

     3057    42296
     3058    42297            /* "Set Vtca = false" */
     3059    42298            /* Events: SCONREQ */
     3060    42299    2       SCTX.FLAGS.VTCA = %FALSE;

  42299  1 021027   200003 470500                    LDP0    @VBLK,,AUTO
         1 021030   000000 471500                    LDP1    0,,PR0
         1 021031   000242 236000 2                  LDQ     162
         1 021032   100006 356100                    ANSQ    6,,PR1

     3061    42300    2       GOTO RET;

  42300  1 021033   021016 710000 1                  TRA     RET

     3062    42301
     3063    42302    2   ACTION03: ENTRY ALTRET;

  42302  1 021034   200016 741300       ACTION03     STX1  ! CONTINUING+2,,AUTO

     3064    42303
     3065    42304            /* "Stop timer TIM" */
     3066    42305            /* Events: AA AB-nr/r CN TDISIND */
     3067    42306    2       CALL XSS$CLOCK( %CANCLK, SCTX.SCID);

  42306  1 021035   200003 470500                    LDP0    @VBLK,,AUTO
         1 021036   000000 471500                    LDP1    0,,PR0
         1 021037   200042 451500                    STP1    ZBLK+10,,AUTO
         1 021040   200042 236100                    LDQ     ZBLK+10,,AUTO
PL6.E3A0      #001=XSS$MACHINE File=XSS$MACHINE.:XSA1TSI                         WED 10/01/97 12:18 Page:637
         1 021041   000243 036000 2                  ADLQ    163
         1 021042   000222 235000 2                  LDA     146
         1 021043   200040 757100                    STAQ    ZBLK+8,,AUTO
         1 021044   200040 630500                    EPPR0   ZBLK+8,,AUTO
         1 021045   000000 631400 2                  EPPR1   0
         1 021046   000000 701000 xent               TSX1    XSS$CLOCK
         1 021047   000000 011000                    NOP     0

     3068    42307    2       GOTO RET;

  42307  1 021050   021016 710000 1                  TRA     RET

     3069    42308
     3070    42309    2   ACTION04: ENTRY ALTRET;

  42309  1 021051   200016 741300       ACTION04     STX1  ! CONTINUING+2,,AUTO

     3071    42310
     3072    42311            /* "Start timer TIM" */
     3073    42312            /* Events: SUABREQ SCONRSP- SRELRSP+ */
     3074    42313    2       CALL XSS$CLOCK( %SETCLK, SCTX.SCID);

  42313  1 021052   200003 470500                    LDP0    @VBLK,,AUTO
         1 021053   000000 471500                    LDP1    0,,PR0
         1 021054   200042 451500                    STP1    ZBLK+10,,AUTO
         1 021055   200042 236100                    LDQ     ZBLK+10,,AUTO
         1 021056   000243 036000 2                  ADLQ    163
         1 021057   000012 235000 2                  LDA     10
         1 021060   200040 757100                    STAQ    ZBLK+8,,AUTO
         1 021061   200040 630500                    EPPR0   ZBLK+8,,AUTO
         1 021062   000000 631400 2                  EPPR1   0
         1 021063   000000 701000 xent               TSX1    XSS$CLOCK
         1 021064   000000 011000                    NOP     0

     3075    42314    2       GOTO RET;

  42314  1 021065   021016 710000 1                  TRA     RET
PL6.E3A0      #001=XSS$MACHINE File=XSS$MACHINE.:XSA1TSI                         WED 10/01/97 12:18 Page:638

     3076    42315
     3077    42316    2   ACTION05: ENTRY ALTRET;

  42316  1 021066   200016 741300       ACTION05     STX1  ! CONTINUING+2,,AUTO

     3078    42317
     3079    42318            /* "Set V(A) = V(M) = serial number in ACCEPT SPDU
     3080    42319                Set V(R) = 0
     3081    42320                Set Vcoll = false
     3082    42321                Set Vrsp = no
     3083    42322                Set Vsc = false
     3084    42323                Set TEXP
     3085    42324                Set FU(f) for f in fu-dom according to the intersection of Session
     3086    42325                User Requirements in the CONNECT SPDU and Session User Requirements
     3087    42326                in the ACCEPT SPDU
     3088    42327                If FU(ACT) = true, set Vact = false
     3089    42328                Set Vdnr = false" */
     3090    42329            /* Events: AC SCONRSP+ */
     3091    42330    2       SCTX.VA = XSS$CONNECT.SERNUM;

  42330  1 021067   200003 470500                    LDP0    @VBLK,,AUTO
         1 021070   000000 471500                    LDP1    0,,PR0
         1 021071   200005 473500                    LDP3    SFPT$,,AUTO
         1 021072   300004 235100                    LDA     4,,PR3
         1 021073   100010 755100                    STA     8,,PR1

     3092    42331    2       SCTX.VM = XSS$CONNECT.SERNUM;

  42331  1 021074   000000 471500                    LDP1    0,,PR0
         1 021075   300004 235100                    LDA     4,,PR3
         1 021076   100011 755100                    STA     9,,PR1

     3093    42332    2       SCTX.VR = 0;

  42332  1 021077   000000 471500                    LDP1    0,,PR0
         1 021100   100012 450100                    STZ     10,,PR1
PL6.E3A0      #001=XSS$MACHINE File=XSS$MACHINE.:XSA1TSI                         WED 10/01/97 12:18 Page:639

     3094    42333    2       SCTX.FLAGS.VCOLL = %FALSE;

  42333  1 021101   000000 471500                    LDP1    0,,PR0
         1 021102   000244 236000 2                  LDQ     164
         1 021103   100006 356100                    ANSQ    6,,PR1

     3095    42334    2       SCTX.VRSP = %VRSP_NO;

  42334  1 021104   000000 471500                    LDP1    0,,PR0
         1 021105   000000 236003                    LDQ     0,DU
         1 021106   100006 552104                    STBQ    6,'04'O,PR1

     3096    42335    2       SCTX.FLAGS.VSC = %FALSE;

  42335  1 021107   000000 471500                    LDP1    0,,PR0
         1 021110   000245 236000 2                  LDQ     165
         1 021111   100006 356100                    ANSQ    6,,PR1

     3097    42336         /* SCTX.FLAGS.TEXP = %TRUE;  this is done, correctly, in XSS$COMM */
     3098    42337    2       SCTX.FU = SCTX.FU & XSS$CONNECT.SFU;

  42337  1 021112   000000 471500                    LDP1    0,,PR0
         1 021113   300010 720100                    LXL0    8,,PR3
         1 021114   100006 360100                    ANX0    6,,PR1
         1 021115   100006 740100                    STX0    6,,PR1

     3099    42338    2       IF SCTX.FU.ACT THEN

  42338  1 021116   000000 471500                    LDP1    0,,PR0
         1 021117   100006 236100                    LDQ     6,,PR1
         1 021120   000400 316003                    CANQ    256,DU
         1 021121   021124 600000 1                  TZE     s:42340

     3100    42339    2           SCTX.FLAGS.VACT = %FALSE;

  42339  1 021122   000246 236000 2                  LDQ     166
PL6.E3A0      #001=XSS$MACHINE File=XSS$MACHINE.:XSA1TSI                         WED 10/01/97 12:18 Page:640
         1 021123   100006 356100                    ANSQ    6,,PR1

     3101    42340    2       SCTX.FLAGS.VDNR = %FALSE;

  42340  1 021124   000000 471500                    LDP1    0,,PR0
         1 021125   000247 236000 2                  LDQ     167
         1 021126   100006 356100                    ANSQ    6,,PR1

     3102    42341            /* the following needs to be done, even though it's not in the spec */
     3103    42342            /* set up AVAIL flags */
     3104    42343    2       IF SCTX.FU.SY THEN

  42343  1 021127   000000 471500                    LDP1    0,,PR0
         1 021130   100006 236100                    LDQ     6,,PR1
         1 021131   000040 316003                    CANQ    32,DU
         1 021132   021135 600000 1                  TZE     s:42345

     3105    42344    2           SCTX.AVAIL.MI = %TRUE;

  42344  1 021133   010000 236007                    LDQ     4096,DL
         1 021134   100004 256100                    ORSQ    4,,PR1

     3106    42345    2       IF SCTX.FU.HD THEN

  42345  1 021135   000000 471500                    LDP1    0,,PR0
         1 021136   100006 236100                    LDQ     6,,PR1
         1 021137   000004 316003                    CANQ    4,DU
         1 021140   021143 600000 1                  TZE     s:42347

     3107    42346    2           SCTX.AVAIL.DK = %TRUE;

  42346  1 021141   002000 236007                    LDQ     1024,DL
         1 021142   100004 256100                    ORSQ    4,,PR1

     3108    42347    2       IF SCTX.FU.NR THEN

  42347  1 021143   000000 471500                    LDP1    0,,PR0
PL6.E3A0      #001=XSS$MACHINE File=XSS$MACHINE.:XSA1TSI                         WED 10/01/97 12:18 Page:641
         1 021144   100006 430100                    FSZN    6,,PR1
         1 021145   021150 605000 1                  TPL     s:42349

     3109    42348    2           SCTX.AVAIL.TR = %TRUE;

  42348  1 021146   200000 236007                    LDQ     65536,DL
         1 021147   100004 256100                    ORSQ    4,,PR1

     3110    42349    2       IF SCTX.FU.MA OR SCTX.FU.ACT THEN

  42349  1 021150   000000 471500                    LDP1    0,,PR0
         1 021151   100006 236100                    LDQ     6,,PR1
         1 021152   000100 316003                    CANQ    64,DU
         1 021153   021156 601000 1                  TNZ     s:42350
         1 021154   000400 316003                    CANQ    256,DU
         1 021155   021160 600000 1                  TZE     s:42352

     3111    42350    2           SCTX.AVAIL.MA = %TRUE;

  42350  1 021156   040000 236007                    LDQ     16384,DL
         1 021157   100004 256100                    ORSQ    4,,PR1

     3112    42351            /* set up OWNED flags */
     3113    42352    3       DO CASE( SCTX.MODE);

  42352  1 021160   000000 471500                    LDP1    0,,PR0
         1 021161   100013 720100                    LXL0    11,,PR1
         1 021162   000777 360003                    ANX0    511,DU
         1 021163   000003 100003                    CMPX0   3,DU
         1 021164   021166 602010 1                  TNC     s:42352+6,X0
         1 021165   021254 710000 1                  TRA     s:42372
         1 021166   021254 710000 1                  TRA     s:42372
         1 021167   021171 710000 1                  TRA     s:42354
         1 021170   021221 710000 1                  TRA     s:42363

     3114    42353    3           CASE( %CLIENT);  /* this must be an AC event */

PL6.E3A0      #001=XSS$MACHINE File=XSS$MACHINE.:XSA1TSI                         WED 10/01/97 12:18 Page:642
     3115    42354    3               IF XSS$CONNECT.ITOKENS.TR = %XSS_TSI_ISIDE# THEN

  42354  1 021171   300010 236100                    LDQ     8,,PR3
         1 021172   600000 316003                    CANQ    -65536,DU
         1 021173   021176 601000 1                  TNZ     s:42356

     3116    42355    3                   SCTX.OWNED.TR = %TRUE;

  42355  1 021174   000200 236007                    LDQ     128,DL
         1 021175   100004 256100                    ORSQ    4,,PR1

     3117    42356    3               IF XSS$CONNECT.ITOKENS.MA = %XSS_TSI_ISIDE# THEN

  42356  1 021176   300010 236100                    LDQ     8,,PR3
         1 021177   140000 316003                    CANQ    49152,DU
         1 021200   021204 601000 1                  TNZ     s:42358

     3118    42357    3                   SCTX.OWNED.MA = %TRUE;

  42357  1 021201   000000 471500                    LDP1    0,,PR0
         1 021202   000040 236007                    LDQ     32,DL
         1 021203   100004 256100                    ORSQ    4,,PR1

     3119    42358    3               IF XSS$CONNECT.ITOKENS.MI = %XSS_TSI_ISIDE# THEN

  42358  1 021204   300010 236100                    LDQ     8,,PR3
         1 021205   030000 316003                    CANQ    12288,DU
         1 021206   021212 601000 1                  TNZ     s:42360

     3120    42359    3                   SCTX.OWNED.MI = %TRUE;

  42359  1 021207   000000 471500                    LDP1    0,,PR0
         1 021210   000010 236007                    LDQ     8,DL
         1 021211   100004 256100                    ORSQ    4,,PR1

     3121    42360    3               IF XSS$CONNECT.ITOKENS.DK = %XSS_TSI_ISIDE# THEN

PL6.E3A0      #001=XSS$MACHINE File=XSS$MACHINE.:XSA1TSI                         WED 10/01/97 12:18 Page:643
  42360  1 021212   300010 236100                    LDQ     8,,PR3
         1 021213   006000 316003                    CANQ    3072,DU
         1 021214   021254 601000 1                  TNZ     s:42372

     3122    42361    3                   SCTX.OWNED.DK = %TRUE;

  42361  1 021215   000000 471500                    LDP1    0,,PR0
         1 021216   000002 236007                    LDQ     2,DL
         1 021217   100004 256100                    ORSQ    4,,PR1
         1 021220   021254 710000 1                  TRA     s:42372

     3123    42362    3           CASE( %SERVER);  /* this must be an SCONRSP+ event */

     3124    42363    3               IF XSS$CONNECT.ITOKENS.TR = %XSS_TSI_ASIDE# THEN

  42363  1 021221   300010 236100                    LDQ     8,,PR3
         1 021222   600000 376003                    ANQ     -65536,DU
         1 021223   200000 116003                    CMPQ    65536,DU
         1 021224   021227 601000 1                  TNZ     s:42365

     3125    42364    3                   SCTX.OWNED.TR = %TRUE;

  42364  1 021225   000200 236007                    LDQ     128,DL
         1 021226   100004 256100                    ORSQ    4,,PR1

     3126    42365    3               IF XSS$CONNECT.ITOKENS.MA = %XSS_TSI_ASIDE# THEN

  42365  1 021227   300010 236100                    LDQ     8,,PR3
         1 021230   140000 376003                    ANQ     49152,DU
         1 021231   040000 116003                    CMPQ    16384,DU
         1 021232   021236 601000 1                  TNZ     s:42367

     3127    42366    3                   SCTX.OWNED.MA = %TRUE;

  42366  1 021233   000000 471500                    LDP1    0,,PR0
         1 021234   000040 236007                    LDQ     32,DL
         1 021235   100004 256100                    ORSQ    4,,PR1
PL6.E3A0      #001=XSS$MACHINE File=XSS$MACHINE.:XSA1TSI                         WED 10/01/97 12:18 Page:644

     3128    42367    3               IF XSS$CONNECT.ITOKENS.MI = %XSS_TSI_ASIDE# THEN

  42367  1 021236   300010 236100                    LDQ     8,,PR3
         1 021237   030000 376003                    ANQ     12288,DU
         1 021240   010000 116003                    CMPQ    4096,DU
         1 021241   021245 601000 1                  TNZ     s:42369

     3129    42368    3                   SCTX.OWNED.MI = %TRUE;

  42368  1 021242   000000 471500                    LDP1    0,,PR0
         1 021243   000010 236007                    LDQ     8,DL
         1 021244   100004 256100                    ORSQ    4,,PR1

     3130    42369    3               IF XSS$CONNECT.ITOKENS.DK = %XSS_TSI_ASIDE# THEN

  42369  1 021245   300010 236100                    LDQ     8,,PR3
         1 021246   006000 376003                    ANQ     3072,DU
         1 021247   002000 116003                    CMPQ    1024,DU
         1 021250   021254 601000 1                  TNZ     s:42372

     3131    42370    3                   SCTX.OWNED.DK = %TRUE;

  42370  1 021251   000000 471500                    LDP1    0,,PR0
         1 021252   000002 236007                    LDQ     2,DL
         1 021253   100004 256100                    ORSQ    4,,PR1

     3132    42371    3           END;

     3133    42372    2       GOTO RET;

  42372  1 021254   021016 710000 1                  TRA     RET

     3134    42373
     3135    42374    2   ACTION06: ENTRY ALTRET;

  42374  1 021255   200016 741300       ACTION06     STX1  ! CONTINUING+2,,AUTO
PL6.E3A0      #001=XSS$MACHINE File=XSS$MACHINE.:XSA1TSI                         WED 10/01/97 12:18 Page:645

     3136    42375
     3137    42376            /* "Recall the queued events until the queue is empty" */
     3138    42377            /* Events: AC ADA AEA AIA AR AS GTA MAA RA RS-a/r/s SACDREQ SACIREQ */
     3139    42378    3       IF SCTX.EVQX > 0 THEN DO;

  42378  1 021256   200003 470500                    LDP0    @VBLK,,AUTO
         1 021257   000000 471500                    LDP1    0,,PR0
         1 021260   100024 236100                    LDQ     20,,PR1
         1 021261   000777 316007                    CANQ    511,DL
         1 021262   021305 600000 1                  TZE     s:42384

     3140    42379    4           DO I = 0 TO SCTX.EVQX - 1;

  42379  1 021263   200004 450100                    STZ     I,,AUTO
         1 021264   021275 710000 1                  TRA     s:42381+1

     3141    42380    4               CALL EVNT( SCTX.EVQ( I));

  42380  1 021265   200003 470500                    LDP0    @VBLK,,AUTO
         1 021266   000000 471500                    LDP1    0,,PR0
         1 021267   200004 235100                    LDA     I,,AUTO
         1 021270   100025 500505                    A9BD    21,AL,PR1
         1 021271   200021 451500                    STP1    @EV#,,AUTO
         1 021272   020166 701000 1                  TSX1    EVNT
         1 021273   000000 011000                    NOP     0

     3142    42381    4               END;

  42381  1 021274   200004 054100                    AOS     I,,AUTO
         1 021275   200003 470500                    LDP0    @VBLK,,AUTO
         1 021276   000000 471500                    LDP1    0,,PR0
         1 021277   100024 236100                    LDQ     20,,PR1
         1 021300   000777 376007                    ANQ     511,DL
         1 021301   200004 116100                    CMPQ    I,,AUTO
         1 021302   021265 605400 1                  TPNZ    s:42380

PL6.E3A0      #001=XSS$MACHINE File=XSS$MACHINE.:XSA1TSI                         WED 10/01/97 12:18 Page:646
     3143    42382    3           SCTX.EVQX = 0;

  42382  1 021303   000000 236003                    LDQ     0,DU
         1 021304   100024 552104                    STBQ    20,'04'O,PR1

     3144    42383    3           END;

     3145    42384    2       GOTO RET;

  42384  1 021305   021016 710000 1                  TRA     RET

     3146    42385
     3147    42386    2   ACTION07: ENTRY ALTRET;

  42386  1 021306   200016 741300       ACTION07     STX1  ! CONTINUING+2,,AUTO

     3148    42387
     3149    42388            /* "Set Vtrr = true" */
     3150    42389            /* Events: SRELREQ */
     3151    42390    2       SCTX.FLAGS.VTRR = %TRUE;

  42390  1 021307   200003 470500                    LDP0    @VBLK,,AUTO
         1 021310   000000 471500                    LDP1    0,,PR0
         1 021311   020000 236007                    LDQ     8192,DL
         1 021312   100006 256100                    ORSQ    6,,PR1

     3152    42391    2       GOTO RET;

  42391  1 021313   021016 710000 1                  TRA     RET

     3153    42392
     3154    42393    2   ACTION08: ENTRY ALTRET;

  42393  1 021314   200016 741300       ACTION08     STX1  ! CONTINUING+2,,AUTO

     3155    42394
     3156    42395            /* "Set Vtrr = false" */
PL6.E3A0      #001=XSS$MACHINE File=XSS$MACHINE.:XSA1TSI                         WED 10/01/97 12:18 Page:647
     3157    42396            /* Events: FN-nr/r SRELREQ */
     3158    42397    2       SCTX.FLAGS.VTRR = %FALSE;

  42397  1 021315   200003 470500                    LDP0    @VBLK,,AUTO
         1 021316   000000 471500                    LDP1    0,,PR0
         1 021317   000250 236000 2                  LDQ     168
         1 021320   100006 356100                    ANSQ    6,,PR1

     3159    42398    2       GOTO RET;

  42398  1 021321   021016 710000 1                  TRA     RET

     3160    42399
     3161    42400    2   ACTION09: ENTRY ALTRET;

  42400  1 021322   200016 741300       ACTION09     STX1  ! CONTINUING+2,,AUTO

     3162    42401
     3163    42402            /* "Set Vtrr according to the Transport Disconnect PV field in the SPDU.
     3164    42403                As a local decision, Vtrr may always be set false" */
     3165    42404            /* Events: FN-r */
     3166    42405    2       SCTX.FLAGS.VTRR = ~SCTX.TD.TCREL;

  42405  1 021323   200003 470500                    LDP0    @VBLK,,AUTO
         1 021324   000000 471500                    LDP1    0,,PR0
         1 021325   100015 236100                    LDQ     13,,PR1
         1 021326   000031 736000                    QLS     25
         1 021327   400000 376003                    ANQ     -131072,DU
         1 021330   400000 676003                    ERQ     -131072,DU
         1 021331   000026 772000                    QRL     22
         1 021332   100006 676100                    ERQ     6,,PR1
         1 021333   020000 376007                    ANQ     8192,DL
         1 021334   100006 656100                    ERSQ    6,,PR1

     3167    42406    2       GOTO RET;

  42406  1 021335   021016 710000 1                  TRA     RET
PL6.E3A0      #001=XSS$MACHINE File=XSS$MACHINE.:XSA1TSI                         WED 10/01/97 12:18 Page:648

     3168    42407
     3169    42408    2   ACTION10: ENTRY ALTRET;

  42408  1 021336   200016 741300       ACTION10     STX1  ! CONTINUING+2,,AUTO

     3170    42409
     3171    42410            /* "Store the event in the queue" */
     3172    42411            /* Events: EX PR-RA/RS */
     3173    42412    2       IF SCTX.EVQX = %XSS_MAX_EVQX THEN

  42412  1 021337   200003 470500                    LDP0    @VBLK,,AUTO
         1 021340   000000 471500                    LDP1    0,,PR0
         1 021341   100024 236100                    LDQ     20,,PR1
         1 021342   000777 376007                    ANQ     511,DL
         1 021343   000007 116007                    CMPQ    7,DL
         1 021344   021350 601000 1                  TNZ     s:42414

     3174    42413    2           CALL XSS$SCREECH;

  42413  1 021345   000237 631400 2                  EPPR1   159
         1 021346   000000 701000 xent               TSX1    XSS$SCREECH
         1 021347   000000 011000                    NOP     0

     3175    42414    2       SCTX.EVQ( SCTX.EVQX) = VBLK.EVENT;

  42414  1 021350   200003 470500                    LDP0    @VBLK,,AUTO
         1 021351   000000 471500                    LDP1    0,,PR0
         1 021352   100024 236100                    LDQ     20,,PR1
         1 021353   000777 376007                    ANQ     511,DL
         1 021354   000106 100500                    MLR     fill='000'O
         1 021355   000001 600001                    ADSC9   1,,PR0                   cn=3,n=1
         1 021356   100025 000001                    ADSC9   21,Q,PR1                 cn=0,n=1

     3176    42415    2       SCTX.EVQX = SCTX.EVQX + 1;

  42415  1 021357   000000 471500                    LDP1    0,,PR0
PL6.E3A0      #001=XSS$MACHINE File=XSS$MACHINE.:XSA1TSI                         WED 10/01/97 12:18 Page:649
         1 021360   100024 236100                    LDQ     20,,PR1
         1 021361   000001 036007                    ADLQ    1,DL
         1 021362   100024 552104                    STBQ    20,'04'O,PR1

     3177    42416    2       GOTO RET;

  42416  1 021363   021016 710000 1                  TRA     RET

     3178    42417
     3179    42418    2   ACTION11: ENTRY ALTRET;

  42418  1 021364   200016 741300       ACTION11     STX1  ! CONTINUING+2,,AUTO

     3180    42419
     3181    42420            /* "Update the position of the tokens" */
     3182    42421            /* Events: AC GT GTC RA SCONRSP+ SCTGREQ SRSXRSP STKGREQ */
     3183    42422    3       DO SELECT( VBLK.EVENT);

  42422  1 021365   200003 470500                    LDP0    @VBLK,,AUTO
         1 021366   000001 236100                    LDQ     1,,PR0
         1 021367   000777 376007                    ANQ     511,DL
         1 021370   000124 116007                    CMPQ    84,DL
         1 021371   021402 602000 1                  TNC     s:42422+13
         1 021372   021426 600000 1                  TZE     s:42428
         1 021373   000160 116007                    CMPQ    112,DL
         1 021374   021377 602000 1                  TNC     s:42422+10
         1 021375   021426 600000 1                  TZE     s:42428
         1 021376   021441 710000 1                  TRA     s:42430
         1 021377   000140 116007                    CMPQ    96,DL
         1 021400   021441 601000 1                  TNZ     s:42430
         1 021401   021426 710000 1                  TRA     s:42428
         1 021402   000031 116007                    CMPQ    25,DL
         1 021403   021410 602000 1                  TNC     s:42422+19
         1 021404   021413 600000 1                  TZE     s:42425
         1 021405   000043 116007                    CMPQ    35,DL
         1 021406   021441 601000 1                  TNZ     s:42430
         1 021407   021413 710000 1                  TRA     s:42425
PL6.E3A0      #001=XSS$MACHINE File=XSS$MACHINE.:XSA1TSI                         WED 10/01/97 12:18 Page:650
         1 021410   000027 116007                    CMPQ    23,DL
         1 021411   021441 601000 1                  TNZ     s:42430
         1 021412   021413 710000 1                  TRA     s:42425

     3184    42423    3           SELECT( %XSS_SEV_GT, %XSS_SEV_GTC, %XSS_SEV_RA);

     3185    42424                    /* inbound event */
     3186    42425    3               SCTX.OWNED = SCTX.OWNED | %TOKENS;

  42425  1 021413   000000 471500                    LDP1    0,,PR0
         1 021414   200005 473500                    LDP3    SFPT$,,AUTO
         1 021415   300000 236100                    LDQ     0,,PR3
         1 021416   000033 736000                    QLS     27
         1 021417   200040 756100                    STQ     ZBLK+8,,AUTO
         1 021420   100004 236100                    LDQ     4,,PR1
         1 021421   000033 736000                    QLS     27
         1 021422   200040 276100                    ORQ     ZBLK+8,,AUTO
         1 021423   000033 772000                    QRL     27
         1 021424   100004 552104                    STBQ    4,'04'O,PR1
         1 021425   021441 710000 1                  TRA     s:42430

     3187    42426    3           SELECT( %XSS_SEV_SCTGREQ, %XSS_SEV_SRSXRSP, %XSS_SEV_STKGREQ);

     3188    42427                    /* outbound event */
     3189    42428    3               SCTX.OWNED = SCTX.OWNED & ~%TOKENS;

  42428  1 021426   000000 471500                    LDP1    0,,PR0
         1 021427   200005 473500                    LDP3    SFPT$,,AUTO
         1 021430   300000 236100                    LDQ     0,,PR3
         1 021431   000033 736000                    QLS     27
         1 021432   777000 676003                    ERQ     -512,DU
         1 021433   200040 756100                    STQ     ZBLK+8,,AUTO
         1 021434   100004 236100                    LDQ     4,,PR1
         1 021435   000033 736000                    QLS     27
         1 021436   200040 376100                    ANQ     ZBLK+8,,AUTO
         1 021437   000033 772000                    QRL     27
         1 021440   100004 552104                    STBQ    4,'04'O,PR1
PL6.E3A0      #001=XSS$MACHINE File=XSS$MACHINE.:XSA1TSI                         WED 10/01/97 12:18 Page:651

     3190    42429    3           END;

     3191    42430    2       SCTX.I = ( ~SCTX.AVAIL) | SCTX.OWNED;

  42430  1 021441   000000 471500                    LDP1    0,,PR0
         1 021442   100004 236100                    LDQ     4,,PR1
         1 021443   000022 736000                    QLS     18
         1 021444   777000 376003                    ANQ     -512,DU
         1 021445   777000 676003                    ERQ     -512,DU
         1 021446   200040 756100                    STQ     ZBLK+8,,AUTO
         1 021447   100004 236100                    LDQ     4,,PR1
         1 021450   000033 736000                    QLS     27
         1 021451   200041 756100                    STQ     ZBLK+9,,AUTO
         1 021452   200040 236100                    LDQ     ZBLK+8,,AUTO
         1 021453   200041 276100                    ORQ     ZBLK+9,,AUTO
         1 021454   100005 552140                    STBQ    5,'40'O,PR1

     3192    42431    2       SCTX.A = ( ~SCTX.AVAIL) | ( ~SCTX.OWNED);

  42431  1 021455   000000 471500                    LDP1    0,,PR0
         1 021456   100004 236100                    LDQ     4,,PR1
         1 021457   000022 736000                    QLS     18
         1 021460   777000 376003                    ANQ     -512,DU
         1 021461   777000 676003                    ERQ     -512,DU
         1 021462   200040 756100                    STQ     ZBLK+8,,AUTO
         1 021463   100004 236100                    LDQ     4,,PR1
         1 021464   000033 736000                    QLS     27
         1 021465   777000 676003                    ERQ     -512,DU
         1 021466   200040 276100                    ORQ     ZBLK+8,,AUTO
         1 021467   000011 772000                    QRL     9
         1 021470   100005 552120                    STBQ    5,'20'O,PR1

     3193    42432    2       SCTX.II = SCTX.AVAIL & SCTX.OWNED;

  42432  1 021471   000000 471500                    LDP1    0,,PR0
         1 021472   100004 236100                    LDQ     4,,PR1
PL6.E3A0      #001=XSS$MACHINE File=XSS$MACHINE.:XSA1TSI                         WED 10/01/97 12:18 Page:652
         1 021473   000033 736000                    QLS     27
         1 021474   200040 756100                    STQ     ZBLK+8,,AUTO
         1 021475   100004 236100                    LDQ     4,,PR1
         1 021476   000022 736000                    QLS     18
         1 021477   777000 376003                    ANQ     -512,DU
         1 021500   200040 376100                    ANQ     ZBLK+8,,AUTO
         1 021501   000022 772000                    QRL     18
         1 021502   100005 552110                    STBQ    5,'10'O,PR1

     3194    42433    2       SCTX.AA = SCTX.AVAIL & ( ~SCTX.OWNED);

  42433  1 021503   000000 471500                    LDP1    0,,PR0
         1 021504   100004 236100                    LDQ     4,,PR1
         1 021505   000033 736000                    QLS     27
         1 021506   777000 676003                    ERQ     -512,DU
         1 021507   200040 756100                    STQ     ZBLK+8,,AUTO
         1 021510   100004 236100                    LDQ     4,,PR1
         1 021511   000022 736000                    QLS     18
         1 021512   777000 376003                    ANQ     -512,DU
         1 021513   200040 376100                    ANQ     ZBLK+8,,AUTO
         1 021514   000033 772000                    QRL     27
         1 021515   100005 552104                    STBQ    5,'04'O,PR1

     3195    42434    2       GOTO RET;

  42434  1 021516   021016 710000 1                  TRA     RET

     3196    42435
     3197    42436    2   ACTION12: ENTRY ALTRET;

  42436  1 021517   200016 741300       ACTION12     STX1  ! CONTINUING+2,,AUTO

     3198    42437
     3199    42438            /* "Set Vact = true" */
     3200    42439            /* Events: AR AS SACRREQ SACSREQ */
     3201    42440    2       SCTX.FLAGS.VACT = %TRUE;

PL6.E3A0      #001=XSS$MACHINE File=XSS$MACHINE.:XSA1TSI                         WED 10/01/97 12:18 Page:653
  42440  1 021520   200003 470500                    LDP0    @VBLK,,AUTO
         1 021521   000000 471500                    LDP1    0,,PR0
         1 021522   100000 236007                    LDQ     32768,DL
         1 021523   100006 256100                    ORSQ    6,,PR1

     3202    42441    2       GOTO RET;

  42441  1 021524   021016 710000 1                  TRA     RET

     3203    42442
     3204    42443    2   ACTION13: ENTRY ALTRET;

  42443  1 021525   200016 741300       ACTION13     STX1  ! CONTINUING+2,,AUTO

     3205    42444
     3206    42445            /* "Set Vnextact" */
     3207    42446            /* Events: AE MAP SACEREQ SSMAREQ */
     3208    42447    2       SCTX.FLAGS.VNEXTACT = %TRUE;

  42447  1 021526   200003 470500                    LDP0    @VBLK,,AUTO
         1 021527   000000 471500                    LDP1    0,,PR0
         1 021530   040000 236007                    LDQ     16384,DL
         1 021531   100006 256100                    ORSQ    6,,PR1

     3209    42448            /* Note: A.5.4.3 of ISO 8327 disagrees with Table 43 Action[13] */
     3210    42449            /* This code implements the former, since it seems correct.     */
     3211    42450    2       IF VBLK.EVENT = %XSS_SEV_AE OR VBLK.EVENT = %XSS_SEV_SACEREQ THEN

  42450  1 021532   000001 236100                    LDQ     1,,PR0
         1 021533   000777 376007                    ANQ     511,DL
         1 021534   000007 116007                    CMPQ    7,DL
         1 021535   021540 600000 1                  TZE     s:42451
         1 021536   000104 116007                    CMPQ    68,DL
         1 021537   021543 601000 1                  TNZ     s:42452

     3212    42451    2           SCTX.FLAGS.VNEXTACT = %FALSE;

PL6.E3A0      #001=XSS$MACHINE File=XSS$MACHINE.:XSA1TSI                         WED 10/01/97 12:18 Page:654
  42451  1 021540   000000 471500                    LDP1    0,,PR0
         1 021541   000251 236000 2                  LDQ     169
         1 021542   100006 356100                    ANSQ    6,,PR1

     3213    42452    2       GOTO RET;

  42452  1 021543   021016 710000 1                  TRA     RET

     3214    42453
     3215    42454    2   ACTION14: ENTRY ALTRET;

  42454  1 021544   200016 741300       ACTION14     STX1  ! CONTINUING+2,,AUTO

     3216    42455
     3217    42456            /* "Set Vact = Vnextact" */
     3218    42457            /* Events: AEA MAA SACERSP SSMARSP */
     3219    42458    2       SCTX.FLAGS.VACT = SCTX.FLAGS.VNEXTACT;

  42458  1 021545   200003 470500                    LDP0    @VBLK,,AUTO
         1 021546   000000 471500                    LDP1    0,,PR0
         1 021547   100006 236100                    LDQ     6,,PR1
         1 021550   000001 736000                    QLS     1
         1 021551   100006 676100                    ERQ     6,,PR1
         1 021552   100000 376007                    ANQ     32768,DL
         1 021553   100006 656100                    ERSQ    6,,PR1

     3220    42459    2       GOTO RET;

  42459  1 021554   021016 710000 1                  TRA     RET

     3221    42460
     3222    42461    2   ACTION15: ENTRY ALTRET;

  42461  1 021555   200016 741300       ACTION15     STX1  ! CONTINUING+2,,AUTO

     3223    42462
     3224    42463            /* "Clear the queue" */
PL6.E3A0      #001=XSS$MACHINE File=XSS$MACHINE.:XSA1TSI                         WED 10/01/97 12:18 Page:655
     3225    42464            /* Events: */
     3226    42465            /*N* ACTION15 is defined in the spec, but unused in the state tables */
     3227    42466    2       GOTO ALT;

  42466  1 021556   021014 710000 1                  TRA     ALT

     3228    42467
     3229    42468    2   ACTION16: ENTRY ALTRET;

  42468  1 021557   200016 741300       ACTION16     STX1  ! CONTINUING+2,,AUTO

     3230    42469
     3231    42470            /* "Update Vrsp and, if RS-r, Vrspnb" */
     3232    42471            /* Events: AD AI RS-a/r/s SACDREQ SACIREQ SRSXREQ(a/r/s) */
     3233    42472    3       DO SELECT( XSS$GENERIC.FNC);

  42472  1 021560   200005 470500                    LDP0    SFPT$,,AUTO
         1 021561   000000 236100                    LDQ     0,,PR0
         1 021562   000033 772000                    QRL     27
         1 021563   000012 116007                    CMPQ    10,DL
         1 021564   021575 602000 1                  TNC     s:42472+13
         1 021565   021620 600000 1                  TZE     s:42478
         1 021566   000043 116007                    CMPQ    35,DL
         1 021567   021657 602000 1                  TNC     s:42491
         1 021570   021625 600000 1                  TZE     s:42481
         1 021571   000033 736000                    QLS     27
         1 021572   044000 116003                    CMPQ    18432,DU
         1 021573   021657 601000 1                  TNZ     s:42491
         1 021574   021625 710000 1                  TRA     s:42481
         1 021575   000000 236100                    LDQ     0,,PR0
         1 021576   000033 772000                    QRL     27
         1 021577   000002 116007                    CMPQ    2,DL
         1 021600   021606 602000 1                  TNC     s:42472+22
         1 021601   021613 600000 1                  TZE     s:42475
         1 021602   000033 736000                    QLS     27
         1 021603   011000 116003                    CMPQ    4608,DU
         1 021604   021657 601000 1                  TNZ     s:42491
PL6.E3A0      #001=XSS$MACHINE File=XSS$MACHINE.:XSA1TSI                         WED 10/01/97 12:18 Page:656
         1 021605   021620 710000 1                  TRA     s:42478
         1 021606   000000 236100                    LDQ     0,,PR0
         1 021607   777000 376003                    ANQ     -512,DU
         1 021610   001000 116003                    CMPQ    512,DU
         1 021611   021657 601000 1                  TNZ     s:42491
         1 021612   021613 710000 1                  TRA     s:42475

     3234    42473    3           SELECT( %XSS_FNC_SACDREQ#,

     3235    42474    3                   %XSS_FNC_SACDIND#);
     3236    42475    3               SCTX.VRSP = %VRSP_DSC;

  42475  1 021613   200003 471500                    LDP1    @VBLK,,AUTO
         1 021614   100000 473500                    LDP3    0,,PR1
         1 021615   000004 236007                    LDQ     4,DL
         1 021616   300006 552104                    STBQ    6,'04'O,PR3
         1 021617   021657 710000 1                  TRA     s:42491

     3237    42476    3           SELECT( %XSS_FNC_SACIREQ#,

     3238    42477    3                   %XSS_FNC_SACIIND#);
     3239    42478    3               SCTX.VRSP = %VRSP_INT;

  42478  1 021620   200003 471500                    LDP1    @VBLK,,AUTO
         1 021621   100000 473500                    LDP3    0,,PR1
         1 021622   000005 236007                    LDQ     5,DL
         1 021623   300006 552104                    STBQ    6,'04'O,PR3
         1 021624   021657 710000 1                  TRA     s:42491

     3240    42479    3           SELECT( %XSS_FNC_SRSXREQ#,

     3241    42480    3                   %XSS_FNC_SRSXIND#);
     3242    42481    4               DO CASE( XSS$RESYNCHRONIZE.TYPE);

  42481  1 021625   000000 236100                    LDQ     0,,PR0
         1 021626   000011 772000                    QRL     9
         1 021627   000777 376007                    ANQ     511,DL
PL6.E3A0      #001=XSS$MACHINE File=XSS$MACHINE.:XSA1TSI                         WED 10/01/97 12:18 Page:657
         1 021630   000003 116007                    CMPQ    3,DL
         1 021631   021633 602006 1                  TNC     s:42481+6,QL
         1 021632   021657 710000 1                  TRA     s:42491
         1 021633   021643 710000 1                  TRA     s:42485
         1 021634   021636 710000 1                  TRA     s:42483
         1 021635   021653 710000 1                  TRA     s:42488

     3243    42482    4                   CASE( %XSS_RT_ABANDON#);

     3244    42483    4                       SCTX.VRSP = %VRSP_A;

  42483  1 021636   200003 471500                    LDP1    @VBLK,,AUTO
         1 021637   100000 473500                    LDP3    0,,PR1
         1 021640   000001 236007                    LDQ     1,DL
         1 021641   300006 552104                    STBQ    6,'04'O,PR3
         1 021642   021657 710000 1                  TRA     s:42491

     3245    42484    4                   CASE( %XSS_RT_RESTART#);

     3246    42485    4                       SCTX.VRSP = %VRSP_R;

  42485  1 021643   200003 471500                    LDP1    @VBLK,,AUTO
         1 021644   100000 473500                    LDP3    0,,PR1
         1 021645   000002 236007                    LDQ     2,DL
         1 021646   300006 552104                    STBQ    6,'04'O,PR3

     3247    42486    4                       SCTX.VRSPNB = XSS$RESYNCHRONIZE.SERNUM;

  42486  1 021647   100000 473500                    LDP3    0,,PR1
         1 021650   000004 235100                    LDA     4,,PR0
         1 021651   300007 755100                    STA     7,,PR3
         1 021652   021657 710000 1                  TRA     s:42491

     3248    42487    4                   CASE( %XSS_RT_SET#);

     3249    42488    4                       SCTX.VRSP = %VRSP_S;

PL6.E3A0      #001=XSS$MACHINE File=XSS$MACHINE.:XSA1TSI                         WED 10/01/97 12:18 Page:658
  42488  1 021653   200003 471500                    LDP1    @VBLK,,AUTO
         1 021654   100000 473500                    LDP3    0,,PR1
         1 021655   000003 236007                    LDQ     3,DL
         1 021656   300006 552104                    STBQ    6,'04'O,PR3

     3250    42489    4                   END;

     3251    42490    3               END;

     3252    42491    2       GOTO RET;

  42491  1 021657   021016 710000 1                  TRA     RET

     3253    42492
     3254    42493    2   AVTION17: ENTRY ALTRET;

  42493  1 021660   200016 741300       AVTION17     STX1  ! CONTINUING+2,,AUTO

     3255    42494            /* ACTION17 is not defined by the spec */
     3256    42495    2       GOTO ALT;

  42495  1 021661   021014 710000 1                  TRA     ALT

     3257    42496
     3258    42497    2   ACTION18: ENTRY ALTRET;

  42497  1 021662   200016 741300       ACTION18     STX1  ! CONTINUING+2,,AUTO

     3259    42498
     3260    42499            /* "Set Vcoll = true" */
     3261    42500            /* Events: FN-nr/r SRELREQ */
     3262    42501    2       SCTX.FLAGS.VCOLL = %TRUE;

  42501  1 021663   200003 470500                    LDP0    @VBLK,,AUTO
         1 021664   000000 471500                    LDP1    0,,PR0
         1 021665   004000 236007                    LDQ     2048,DL
         1 021666   100006 256100                    ORSQ    6,,PR1
PL6.E3A0      #001=XSS$MACHINE File=XSS$MACHINE.:XSA1TSI                         WED 10/01/97 12:18 Page:659

     3263    42502    2       GOTO RET;

  42502  1 021667   021016 710000 1                  TRA     RET

     3264    42503
     3265    42504    2   ACTION19: ENTRY ALTRET;

  42504  1 021670   200016 741300       ACTION19     STX1  ! CONTINUING+2,,AUTO

     3266    42505
     3267    42506            /* "V(M) = maximum( V(M), received serial number)" */
     3268    42507            /* Events: RS-a */
     3269    42508    2       SCTX.VM = MAXIMUM( SCTX.VM, XSS$RESYNCHRONIZE.SERNUM);

  42508  1 021671   200003 470500                    LDP0    @VBLK,,AUTO
         1 021672   000000 471500                    LDP1    0,,PR0
         1 021673   200005 473500                    LDP3    SFPT$,,AUTO
         1 021674   300004 236100                    LDQ     4,,PR3
         1 021675   100011 116100                    CMPQ    9,,PR1
         1 021676   021700 603000 1                  TRC     s:42508+7
         1 021677   100011 236100                    LDQ     9,,PR1
         1 021700   100011 756100                    STQ     9,,PR1

     3270    42509    2       GOTO RET;

  42509  1 021701   021016 710000 1                  TRA     RET

     3271    42510
     3272    42511    2   ACTION20: ENTRY ALTRET;

  42511  1 021702   200016 741300       ACTION20     STX1  ! CONTINUING+2,,AUTO

     3273    42512
     3274    42513            /* "Set Vsc = false" */
     3275    42514            /* Events: */
     3276    42515            /*N* ACTION20 is defined in the spec, but unused in the state tables */
PL6.E3A0      #001=XSS$MACHINE File=XSS$MACHINE.:XSA1TSI                         WED 10/01/97 12:18 Page:660
     3277    42516    2       GOTO ALT;  /*N* for now */

  42516  1 021703   021014 710000 1                  TRA     ALT

     3278    42517
     3279    42518    2   ACTION21: ENTRY ALTRET;

  42518  1 021704   200016 741300       ACTION21     STX1  ! CONTINUING+2,,AUTO

     3280    42519
     3281    42520            /* "Set V(M) = V(M) + 1" */
     3282    42521            /* Events: */
     3283    42522            /*N* ACTION21 is defined in the spec, but unused in the state tables */
     3284    42523    2       GOTO ALT;  /*N* for now */

  42523  1 021705   021014 710000 1                  TRA     ALT

     3285    42524
     3286    42525    2   ACTION22: ENTRY ALTRET;

  42525  1 021706   200016 741300       ACTION22     STX1  ! CONTINUING+2,,AUTO

     3287    42526
     3288    42527            /* "Set V(R) = V(A) = V(M)" */
     3289    42528            /* Events: AEA MAA SACERSP SSMARSP */
     3290    42529    2       SCTX.VR = SCTX.VM;

  42529  1 021707   200003 470500                    LDP0    @VBLK,,AUTO
         1 021710   000000 471500                    LDP1    0,,PR0
         1 021711   100011 235100                    LDA     9,,PR1
         1 021712   100012 755100                    STA     10,,PR1

     3291    42530    2       SCTX.VA = SCTX.VM;

  42530  1 021713   000000 471500                    LDP1    0,,PR0
         1 021714   100011 235100                    LDA     9,,PR1
         1 021715   100010 755100                    STA     8,,PR1
PL6.E3A0      #001=XSS$MACHINE File=XSS$MACHINE.:XSA1TSI                         WED 10/01/97 12:18 Page:661

     3292    42531    2       GOTO RET;

  42531  1 021716   021016 710000 1                  TRA     RET

     3293    42532
     3294    42533    2   ACTION23: ENTRY ALTRET;

  42533  1 021717   200016 741300       ACTION23     STX1  ! CONTINUING+2,,AUTO

     3295    42534
     3296    42535            /* "If Vsc = false, set V(A) = V(M). Set Vsc = true
     3297    42536                Set V(M) = V(M) + 1" */
     3298    42537            /* Events: MIP */
     3299    42538    3       IF ~SCTX.FLAGS.VSC THEN DO;

  42538  1 021720   200003 470500                    LDP0    @VBLK,,AUTO
         1 021721   000000 471500                    LDP1    0,,PR0
         1 021722   100006 236100                    LDQ     6,,PR1
         1 021723   000023 736000                    QLS     19
         1 021724   400000 376003                    ANQ     -131072,DU
         1 021725   400000 676003                    ERQ     -131072,DU
         1 021726   021734 600000 1                  TZE     s:42542

     3300    42539    3           SCTX.VA = SCTX.VM;

  42539  1 021727   100011 235100                    LDA     9,,PR1
         1 021730   100010 755100                    STA     8,,PR1

     3301    42540    3           SCTX.FLAGS.VSC = %TRUE;

  42540  1 021731   000000 471500                    LDP1    0,,PR0
         1 021732   200000 236007                    LDQ     65536,DL
         1 021733   100006 256100                    ORSQ    6,,PR1

     3302    42541    3           END;

PL6.E3A0      #001=XSS$MACHINE File=XSS$MACHINE.:XSA1TSI                         WED 10/01/97 12:18 Page:662
     3303    42542    2       SCTX.VM = SCTX.VM + 1;

  42542  1 021734   000000 471500                    LDP1    0,,PR0
         1 021735   100011 235100                    LDA     9,,PR1
         1 021736   000001 035007                    ADLA    1,DL
         1 021737   100011 755100                    STA     9,,PR1

     3304    42543    2       GOTO RET;

  42543  1 021740   021016 710000 1                  TRA     RET

     3305    42544
     3306    42545    2   ACTION24: ENTRY ALTRET;

  42545  1 021741   200016 741300       ACTION24     STX1  ! CONTINUING+2,,AUTO

     3307    42546
     3308    42547            /* "If Vsc = true, set V(A) = V(M). Set Vsc = false
     3309    42548                Set V(M) = V(M) + 1" */
     3310    42549            /* Events: SACEREQ SSMAREQ SSMIREQ */
     3311    42550    3       IF SCTX.FLAGS.VSC THEN DO;

  42550  1 021742   200003 470500                    LDP0    @VBLK,,AUTO
         1 021743   000000 471500                    LDP1    0,,PR0
         1 021744   100006 236100                    LDQ     6,,PR1
         1 021745   200000 316007                    CANQ    65536,DL
         1 021746   021754 600000 1                  TZE     s:42554

     3312    42551    3           SCTX.VA = SCTX.VM;

  42551  1 021747   100011 235100                    LDA     9,,PR1
         1 021750   100010 755100                    STA     8,,PR1

     3313    42552    3           SCTX.FLAGS.VSC = %FALSE;

  42552  1 021751   000000 471500                    LDP1    0,,PR0
         1 021752   000245 236000 2                  LDQ     165
PL6.E3A0      #001=XSS$MACHINE File=XSS$MACHINE.:XSA1TSI                         WED 10/01/97 12:18 Page:663
         1 021753   100006 356100                    ANSQ    6,,PR1

     3314    42553    3           END;

     3315    42554    2       SCTX.VM = SCTX.VM + 1;

  42554  1 021754   000000 471500                    LDP1    0,,PR0
         1 021755   100011 235100                    LDA     9,,PR1
         1 021756   000001 035007                    ADLA    1,DL
         1 021757   100011 755100                    STA     9,,PR1

     3316    42555    2       GOTO RET;

  42555  1 021760   021016 710000 1                  TRA     RET

     3317    42556
     3318    42557    2   ACTION25: ENTRY ALTRET;

  42557  1 021761   200016 741300       ACTION25     STX1  ! CONTINUING+2,,AUTO

     3319    42558
     3320    42559            /* "Set V(A) = serial number + 1" */
     3321    42560            /* Events: MIA SSMIRSP */
     3322    42561    2       SCTX.VA = XSS$GENERIC.SERNUM + 1;

  42561  1 021762   200003 470500                    LDP0    @VBLK,,AUTO
         1 021763   000000 471500                    LDP1    0,,PR0
         1 021764   200005 473500                    LDP3    SFPT$,,AUTO
         1 021765   300004 235100                    LDA     4,,PR3
         1 021766   000001 035007                    ADLA    1,DL
         1 021767   100010 755100                    STA     8,,PR1

     3323    42562    2       GOTO RET;

  42562  1 021770   021016 710000 1                  TRA     RET

     3324    42563
PL6.E3A0      #001=XSS$MACHINE File=XSS$MACHINE.:XSA1TSI                         WED 10/01/97 12:18 Page:664
     3325    42564    2   ACTION26: ENTRY ALTRET;

  42564  1 021771   200016 741300       ACTION26     STX1  ! CONTINUING+2,,AUTO

     3326    42565
     3327    42566            /* "Set V(A) = V(M) = V(R) = 1" */
     3328    42567            /* Events: AS SACSREQ */
     3329    42568    2       SCTX.VA = 1;

  42568  1 021772   200003 470500                    LDP0    @VBLK,,AUTO
         1 021773   000000 471500                    LDP1    0,,PR0
         1 021774   000001 235007                    LDA     1,DL
         1 021775   100010 755100                    STA     8,,PR1

     3330    42569    2       SCTX.VM = 1;

  42569  1 021776   000000 471500                    LDP1    0,,PR0
         1 021777   100011 755100                    STA     9,,PR1

     3331    42570    2       SCTX.VR = 1;

  42570  1 022000   000000 471500                    LDP1    0,,PR0
         1 022001   100012 755100                    STA     10,,PR1

     3332    42571    2       GOTO RET;

  42571  1 022002   021016 710000 1                  TRA     RET

     3333    42572
     3334    42573    2   ACTION27: ENTRY ALTRET;

  42573  1 022003   200016 741300       ACTION27     STX1  ! CONTINUING+2,,AUTO

     3335    42574
     3336    42575            /* "Set V(A) = V(M) = serial number + 1
     3337    42576                Set V(R) = 1" */
     3338    42577            /* Events: AR SACRREQ */
PL6.E3A0      #001=XSS$MACHINE File=XSS$MACHINE.:XSA1TSI                         WED 10/01/97 12:18 Page:665
     3339    42578    2       SCTX.VA = XSS$GENERIC.SERNUM + 1;

  42578  1 022004   200003 470500                    LDP0    @VBLK,,AUTO
         1 022005   000000 471500                    LDP1    0,,PR0
         1 022006   200005 473500                    LDP3    SFPT$,,AUTO
         1 022007   300004 235100                    LDA     4,,PR3
         1 022010   000001 035007                    ADLA    1,DL
         1 022011   100010 755100                    STA     8,,PR1

     3340    42579    2       SCTX.VM = SCTX.VA;

  42579  1 022012   000000 471500                    LDP1    0,,PR0
         1 022013   100010 235100                    LDA     8,,PR1
         1 022014   100011 755100                    STA     9,,PR1

     3341    42580    2       SCTX.VR = 1;

  42580  1 022015   000000 471500                    LDP1    0,,PR0
         1 022016   000001 235007                    LDA     1,DL
         1 022017   100012 755100                    STA     10,,PR1

     3342    42581    2       GOTO RET;

  42581  1 022020   021016 710000 1                  TRA     RET

     3343    42582
     3344    42583    2   ACTION28: ENTRY ALTRET;

  42583  1 022021   200016 741300       ACTION28     STX1  ! CONTINUING+2,,AUTO

     3345    42584
     3346    42585            /* "Set V(A) = V(M) = serial number
     3347    42586                If Vrsp = a then set V(R) = 0
     3348    42587                If Vrsp = s then set V(R) = 0
     3349    42588                Set Vrsp = no" */
     3350    42589            /* Events: RA SRSXRSP */
     3351    42590    2       SCTX.VA = XSS$GENERIC.SERNUM;
PL6.E3A0      #001=XSS$MACHINE File=XSS$MACHINE.:XSA1TSI                         WED 10/01/97 12:18 Page:666

  42590  1 022022   200003 470500                    LDP0    @VBLK,,AUTO
         1 022023   000000 471500                    LDP1    0,,PR0
         1 022024   200005 473500                    LDP3    SFPT$,,AUTO
         1 022025   300004 235100                    LDA     4,,PR3
         1 022026   100010 755100                    STA     8,,PR1

     3352    42591    2       SCTX.VM = SCTX.VA;

  42591  1 022027   000000 471500                    LDP1    0,,PR0
         1 022030   100010 235100                    LDA     8,,PR1
         1 022031   100011 755100                    STA     9,,PR1

     3353    42592    2       IF SCTX.VRSP = %VRSP_A OR SCTX.VRSP = %VRSP_S THEN

  42592  1 022032   000000 471500                    LDP1    0,,PR0
         1 022033   100006 236100                    LDQ     6,,PR1
         1 022034   000777 376007                    ANQ     511,DL
         1 022035   000001 116007                    CMPQ    1,DL
         1 022036   022041 600000 1                  TZE     s:42593
         1 022037   000003 116007                    CMPQ    3,DL
         1 022040   022042 601000 1                  TNZ     s:42594

     3354    42593    2           SCTX.VR = 0;

  42593  1 022041   100012 450100                    STZ     10,,PR1

     3355    42594    2       SCTX.VRSP = %VRSP_NO;

  42594  1 022042   000000 471500                    LDP1    0,,PR0
         1 022043   000000 236003                    LDQ     0,DU
         1 022044   100006 552104                    STBQ    6,'04'O,PR1

     3356    42595    2       GOTO RET;

  42595  1 022045   021016 710000 1                  TRA     RET

PL6.E3A0      #001=XSS$MACHINE File=XSS$MACHINE.:XSA1TSI                         WED 10/01/97 12:18 Page:667
     3357    42596
     3358    42597    2   ACTION29: ENTRY ALTRET;

  42597  1 022046   200016 741300       ACTION29     STX1  ! CONTINUING+2,,AUTO

     3359    42598
     3360    42599            /* "Set the position of the tokens such that all available tokens are
     3361    42600                owned.
     3362    42601                Set Vact = false. Set Vrsp = no" */
     3363    42602            /* Events: ADA AIA */
     3364    42603    2       SCTX.OWNED = SCTX.AVAIL;

  42603  1 022047   200003 470500                    LDP0    @VBLK,,AUTO
         1 022050   000000 471500                    LDP1    0,,PR0
         1 022051   100004 236100                    LDQ     4,,PR1
         1 022052   000011 772000                    QRL     9
         1 022053   100004 552104                    STBQ    4,'04'O,PR1

     3365    42604    2       SCTX.FLAGS.VACT = %FALSE;

  42604  1 022054   000000 471500                    LDP1    0,,PR0
         1 022055   000246 236000 2                  LDQ     166
         1 022056   100006 356100                    ANSQ    6,,PR1

     3366    42605    2       SCTX.VRSP = %VRSP_NO;

  42605  1 022057   000000 471500                    LDP1    0,,PR0
         1 022060   000000 236003                    LDQ     0,DU
         1 022061   100006 552104                    STBQ    6,'04'O,PR1

     3367    42606    2       GOTO RET;

  42606  1 022062   021016 710000 1                  TRA     RET

     3368    42607
     3369    42608    2   ACTION30: ENTRY ALTRET;

PL6.E3A0      #001=XSS$MACHINE File=XSS$MACHINE.:XSA1TSI                         WED 10/01/97 12:18 Page:668
  42608  1 022063   200016 741300       ACTION30     STX1  ! CONTINUING+2,,AUTO

     3370    42609
     3371    42610            /* "Set the position of the tokens such that all available tokens are
     3372    42611                not owned.
     3373    42612                Set Vact = false. Set Vrsp = no" */
     3374    42613            /* Events: SACDRSP SACIRSP */
     3375    42614    2       SCTX.OWNED = ~SCTX.AVAIL;

  42614  1 022064   200003 470500                    LDP0    @VBLK,,AUTO
         1 022065   000000 471500                    LDP1    0,,PR0
         1 022066   100004 236100                    LDQ     4,,PR1
         1 022067   000022 736000                    QLS     18
         1 022070   777000 376003                    ANQ     -512,DU
         1 022071   777000 676003                    ERQ     -512,DU
         1 022072   000033 772000                    QRL     27
         1 022073   100004 552104                    STBQ    4,'04'O,PR1

     3376    42615    2       SCTX.FLAGS.VACT = %FALSE;

  42615  1 022074   000000 471500                    LDP1    0,,PR0
         1 022075   000246 236000 2                  LDQ     166
         1 022076   100006 356100                    ANSQ    6,,PR1

     3377    42616    2       SCTX.VRSP = %VRSP_NO;

  42616  1 022077   000000 471500                    LDP1    0,,PR0
         1 022100   000000 236003                    LDQ     0,DU
         1 022101   100006 552104                    STBQ    6,'04'O,PR1

     3378    42617    2       GOTO RET;

  42617  1 022102   021016 710000 1                  TRA     RET

     3379    42618
     3380    42619    2   ACTION31: ENTRY ALTRET;

PL6.E3A0      #001=XSS$MACHINE File=XSS$MACHINE.:XSA1TSI                         WED 10/01/97 12:18 Page:669
  42619  1 022103   200016 741300       ACTION31     STX1  ! CONTINUING+2,,AUTO

     3381    42620
     3382    42621            /* "If Vsc = false, set V(A) = V(M)
     3383    42622                Set V(M) = V(M) + 1" */
     3384    42623            /* Events: AE MAP */
     3385    42624    2       IF ~SCTX.FLAGS.VSC THEN

  42624  1 022104   200003 470500                    LDP0    @VBLK,,AUTO
         1 022105   000000 471500                    LDP1    0,,PR0
         1 022106   100006 236100                    LDQ     6,,PR1
         1 022107   000023 736000                    QLS     19
         1 022110   400000 376003                    ANQ     -131072,DU
         1 022111   400000 676003                    ERQ     -131072,DU
         1 022112   022115 600000 1                  TZE     s:42626

     3386    42625    2           SCTX.VA = SCTX.VM;

  42625  1 022113   100011 235100                    LDA     9,,PR1
         1 022114   100010 755100                    STA     8,,PR1

     3387    42626    2       SCTX.VM = SCTX.VM + 1;

  42626  1 022115   000000 471500                    LDP1    0,,PR0
         1 022116   100011 235100                    LDA     9,,PR1
         1 022117   000001 035007                    ADLA    1,DL
         1 022120   100011 755100                    STA     9,,PR1

     3388    42627    2       GOTO RET;

  42627  1 022121   021016 710000 1                  TRA     RET

     3389    42628
     3390    42629    2   ACTION32: ENTRY ALTRET;

  42629  1 022122   200016 741300       ACTION32     STX1  ! CONTINUING+2,,AUTO

PL6.E3A0      #001=XSS$MACHINE File=XSS$MACHINE.:XSA1TSI                         WED 10/01/97 12:18 Page:670
     3391    42630
     3392    42631            /* "Set Vdnr = true" */
     3393    42632            /* Events: DN */
     3394    42633    2       SCTX.FLAGS.VDNR = %TRUE;

  42633  1 022123   200003 470500                    LDP0    @VBLK,,AUTO
         1 022124   000000 471500                    LDP1    0,,PR0
         1 022125   001000 236007                    LDQ     512,DL
         1 022126   100006 256100                    ORSQ    6,,PR1

     3395    42634    2       GOTO RET;

  42634  1 022127   021016 710000 1                  TRA     RET

     3396    42635
     3397    42636    2       END ACTION00;
     3398    42637        %EJECT;
PL6.E3A0      #001=XSS$MACHINE File=XSS$MACHINE.:XSA1TSI                         WED 10/01/97 12:18 Page:671
     3399    42638        /*****************************************************************************
     3400    42639        *                                                                            *
     3401    42640        *       PREDxx Routines                                                      *
     3402    42641        *                                                                            *
     3403    42642        *****************************************************************************/
     3404    42643    1   PRED00: PROC ALTRET;

  42643  1 022130   200016 741300       PRED00       STX1  ! CONTINUING+2,,AUTO

     3405    42644
     3406    42645    2   ALT:
     3407    42646    2       ALTRETURN;  /* single alternate exit to aid debugging */

  42646  1 022131   200016 221300       ALT          LDX1  ! CONTINUING+2,,AUTO
         1 022132   000000 702211                    TSX2  ! 0,X1

     3408    42647    2   RET:
     3409    42648    2       RETURN;  /* single exit to aid debugging */

  42648  1 022133   200016 221300       RET          LDX1  ! CONTINUING+2,,AUTO
         1 022134   000001 702211                    TSX2  ! 1,X1

     3410    42649
     3411    42650    2   PRED01: ENTRY ALTRET;

  42650  1 022135   200016 741300       PRED01       STX1  ! CONTINUING+2,,AUTO

     3412    42651
     3413    42652            /* "~Vtca" */
     3414    42653            /* Events: CN DN FN-r SCONREQ SRELRSP+ */
     3415    42654    2       PRED(1) = ~SCTX.FLAGS.VTCA;

  42654  1 022136   200003 470500                    LDP0    @VBLK,,AUTO
         1 022137   000000 471500                    LDP1    0,,PR0
         1 022140   100006 236100                    LDQ     6,,PR1
         1 022141   000031 736000                    QLS     25
         1 022142   400000 376003                    ANQ     -131072,DU
PL6.E3A0      #001=XSS$MACHINE File=XSS$MACHINE.:XSA1TSI                         WED 10/01/97 12:18 Page:672
         1 022143   400000 676003                    ERQ     -131072,DU
         1 022144   000001 772000                    QRL     1
         1 022145   200006 676100                    ERQ     ZPRED,,AUTO
         1 022146   200000 376003                    ANQ     65536,DU
         1 022147   200006 656100                    ERSQ    ZPRED,,AUTO

     3416    42655    2       PINV(1) = %FALSE;

  42655  1 022150   000252 236000 2                  LDQ     170
         1 022151   200011 356100                    ANSQ    ZPINV,,AUTO

     3417    42656    2       GOTO RET;

  42656  1 022152   022133 710000 1                  TRA     RET

     3418    42657
     3419    42658    2   PRED02: ENTRY ALTRET;

  42658  1 022153   200016 741300       PRED02       STX1  ! CONTINUING+2,,AUTO

     3420    42659
     3421    42660            /* "local choice & ~TEXP" */
     3422    42661            /* Events: AB-r RF-r SUABREQ SCONRSP- */
     3423    42662            /* p2 always fails */
     3424    42663    2       PRED(2) = '0'B & ~SCTX.FLAGS.TEXP;

  42663  1 022154   200003 470500                    LDP0    @VBLK,,AUTO
         1 022155   000000 471500                    LDP1    0,,PR0
         1 022156   100006 236100                    LDQ     6,,PR1
         1 022157   000027 736000                    QLS     23
         1 022160   400000 376003                    ANQ     -131072,DU
         1 022161   400000 676003                    ERQ     -131072,DU
         1 022162   000022 772000                    QRL     18
         1 022163   000000 620006                    EAX0    0,QL
         1 022164   000000 360003                    ANX0    0,DU
         1 022165   000000 636010                    EAQ     0,X0
         1 022166   000002 772000                    QRL     2
PL6.E3A0      #001=XSS$MACHINE File=XSS$MACHINE.:XSA1TSI                         WED 10/01/97 12:18 Page:673
         1 022167   200006 676100                    ERQ     ZPRED,,AUTO
         1 022170   100000 376003                    ANQ     32768,DU
         1 022171   200006 656100                    ERSQ    ZPRED,,AUTO

     3425    42664    2       PINV(2) = %FALSE;

  42664  1 022172   000253 236000 2                  LDQ     171
         1 022173   200011 356100                    ANSQ    ZPINV,,AUTO

     3426    42665    2       GOTO RET;

  42665  1 022174   022133 710000 1                  TRA     RET

     3427    42666
     3428    42667    2   PRED03: ENTRY ALTRET;

  42667  1 022175   200016 741300       PRED03       STX1  ! CONTINUING+2,,AUTO

     3429    42668
     3430    42669            /* "I(dk)" */
     3431    42670            /* Events: SDATREQ ED ER */
     3432    42671    2       PRED(3) = SCTX.I.DK;

  42671  1 022176   200003 470500                    LDP0    @VBLK,,AUTO
         1 022177   000000 471500                    LDP1    0,,PR0
         1 022200   100005 236100                    LDQ     5,,PR1
         1 022201   000004 736000                    QLS     4
         1 022202   200006 676100                    ERQ     ZPRED,,AUTO
         1 022203   040000 376003                    ANQ     16384,DU
         1 022204   200006 656100                    ERSQ    ZPRED,,AUTO

     3433    42672    2       PINV(3) = %FALSE;

  42672  1 022205   000254 236000 2                  LDQ     172
         1 022206   200011 356100                    ANSQ    ZPINV,,AUTO

     3434    42673    2       GOTO RET;
PL6.E3A0      #001=XSS$MACHINE File=XSS$MACHINE.:XSA1TSI                         WED 10/01/97 12:18 Page:674

  42673  1 022207   022133 710000 1                  TRA     RET

     3435    42674
     3436    42675    2   PRED04: ENTRY ALTRET;

  42675  1 022210   200016 741300       PRED04       STX1  ! CONTINUING+2,,AUTO

     3437    42676
     3438    42677            /* "FU(FD) & ~Vcoll" */
     3439    42678            /* Events: SDATREQ */
     3440    42679    2       PRED(4) = SCTX.FU.FD & ~SCTX.FLAGS.VCOLL;

  42679  1 022211   200003 470500                    LDP0    @VBLK,,AUTO
         1 022212   000000 471500                    LDP1    0,,PR0
         1 022213   100006 236100                    LDQ     6,,PR1
         1 022214   000030 736000                    QLS     24
         1 022215   400000 376003                    ANQ     -131072,DU
         1 022216   400000 676003                    ERQ     -131072,DU
         1 022217   200040 756100                    STQ     ZBLK+8,,AUTO
         1 022220   100006 236100                    LDQ     6,,PR1
         1 022221   000016 736000                    QLS     14
         1 022222   400000 376003                    ANQ     -131072,DU
         1 022223   200040 376100                    ANQ     ZBLK+8,,AUTO
         1 022224   000004 772000                    QRL     4
         1 022225   200006 676100                    ERQ     ZPRED,,AUTO
         1 022226   020000 376003                    ANQ     8192,DU
         1 022227   200006 656100                    ERSQ    ZPRED,,AUTO

     3441    42680    2       PINV(4) = %FALSE;

  42680  1 022230   000255 236000 2                  LDQ     173
         1 022231   200011 356100                    ANSQ    ZPINV,,AUTO

     3442    42681    2       GOTO RET;

  42681  1 022232   022133 710000 1                  TRA     RET
PL6.E3A0      #001=XSS$MACHINE File=XSS$MACHINE.:XSA1TSI                         WED 10/01/97 12:18 Page:675

     3443    42682
     3444    42683    2   PRED05: ENTRY ALTRET;

  42683  1 022233   200016 741300       PRED05       STX1  ! CONTINUING+2,,AUTO

     3445    42684
     3446    42685            /* "A(dk)" */
     3447    42686            /* Events: DT */
     3448    42687    2       PRED(5) = SCTX.A.DK;

  42687  1 022234   200003 470500                    LDP0    @VBLK,,AUTO
         1 022235   000000 471500                    LDP1    0,,PR0
         1 022236   100005 236100                    LDQ     5,,PR1
         1 022237   000013 736000                    QLS     11
         1 022240   200006 676100                    ERQ     ZPRED,,AUTO
         1 022241   010000 376003                    ANQ     4096,DU
         1 022242   200006 656100                    ERSQ    ZPRED,,AUTO

     3449    42688    2       PINV(5) = %FALSE;

  42688  1 022243   000256 236000 2                  LDQ     174
         1 022244   200011 356100                    ANSQ    ZPINV,,AUTO

     3450    42689    2       GOTO RET;

  42689  1 022245   022133 710000 1                  TRA     RET

     3451    42690
     3452    42691    2   PRED06: ENTRY ALTRET;

  42691  1 022246   200016 741300       PRED06       STX1  ! CONTINUING+2,,AUTO

     3453    42692
     3454    42693            /* "FU(TD)" */
     3455    42694            /* Events: TD STYDREQ */
     3456    42695    2       PRED(6) = SCTX.FU.TD;
PL6.E3A0      #001=XSS$MACHINE File=XSS$MACHINE.:XSA1TSI                         WED 10/01/97 12:18 Page:676

  42695  1 022247   200003 470500                    LDP0    @VBLK,,AUTO
         1 022250   000000 471500                    LDP1    0,,PR0
         1 022251   100006 236100                    LDQ     6,,PR1
         1 022252   000001 772000                    QRL     1
         1 022253   200006 676100                    ERQ     ZPRED,,AUTO
         1 022254   004000 376003                    ANQ     2048,DU
         1 022255   200006 656100                    ERSQ    ZPRED,,AUTO

     3457    42696    2       PINV(6) = %FALSE;

  42696  1 022256   000257 236000 2                  LDQ     175
         1 022257   200011 356100                    ANSQ    ZPINV,,AUTO

     3458    42697    2       GOTO RET;

  42697  1 022260   022133 710000 1                  TRA     RET

     3459    42698
     3460    42699    2   PRED07: ENTRY ALTRET;

  42699  1 022261   200016 741300       PRED07       STX1  ! CONTINUING+2,,AUTO

     3461    42700
     3462    42701            /* "FU(TD) & ~Vcoll" */
     3463    42702            /* Events: STYDREQ */
     3464    42703    2       PRED(7) = SCTX.FU.TD & ~SCTX.FLAGS.VCOLL;

  42703  1 022262   200003 470500                    LDP0    @VBLK,,AUTO
         1 022263   000000 471500                    LDP1    0,,PR0
         1 022264   100006 236100                    LDQ     6,,PR1
         1 022265   000030 736000                    QLS     24
         1 022266   400000 376003                    ANQ     -131072,DU
         1 022267   400000 676003                    ERQ     -131072,DU
         1 022270   200040 756100                    STQ     ZBLK+8,,AUTO
         1 022271   100006 236100                    LDQ     6,,PR1
         1 022272   000005 736000                    QLS     5
PL6.E3A0      #001=XSS$MACHINE File=XSS$MACHINE.:XSA1TSI                         WED 10/01/97 12:18 Page:677
         1 022273   400000 376003                    ANQ     -131072,DU
         1 022274   200040 376100                    ANQ     ZBLK+8,,AUTO
         1 022275   000007 772000                    QRL     7
         1 022276   200006 676100                    ERQ     ZPRED,,AUTO
         1 022277   002000 376003                    ANQ     1024,DU
         1 022300   200006 656100                    ERSQ    ZPRED,,AUTO

     3465    42704    2       PINV(7) = %FALSE;

  42704  1 022301   000260 236000 2                  LDQ     176
         1 022302   200011 356100                    ANSQ    ZPINV,,AUTO

     3466    42705    2       GOTO RET;

  42705  1 022303   022133 710000 1                  TRA     RET

     3467    42706
     3468    42707    2   PRED08: ENTRY ALTRET;

  42707  1 022304   200016 741300       PRED08       STX1  ! CONTINUING+2,,AUTO

     3469    42708
     3470    42709            /* "FU(EX)" */
     3471    42710            /* Events: EX SEXPREQ */
     3472    42711    2       PRED(8) = SCTX.FU.EX;

  42711  1 022305   200003 470500                    LDP0    @VBLK,,AUTO
         1 022306   000000 471500                    LDP1    0,,PR0
         1 022307   100006 236100                    LDQ     6,,PR1
         1 022310   000005 736000                    QLS     5
         1 022311   200006 676100                    ERQ     ZPRED,,AUTO
         1 022312   001000 376003                    ANQ     512,DU
         1 022313   200006 656100                    ERSQ    ZPRED,,AUTO

     3473    42712    2       PINV(8) = %FALSE;

  42712  1 022314   000261 236000 2                  LDQ     177
PL6.E3A0      #001=XSS$MACHINE File=XSS$MACHINE.:XSA1TSI                         WED 10/01/97 12:18 Page:678
         1 022315   200011 356100                    ANSQ    ZPINV,,AUTO

     3474    42713    2       GOTO RET;

  42713  1 022316   022133 710000 1                  TRA     RET

     3475    42714
     3476    42715    2   PRED09: ENTRY ALTRET;

  42715  1 022317   200016 741300       PRED09       STX1  ! CONTINUING+2,,AUTO

     3477    42716
     3478    42717            /* "FU(EX) & ~Vcoll" */
     3479    42718            /* Events: EX SEXPREQ */
     3480    42719    2       PRED(9) = SCTX.FU.EX & ~SCTX.FLAGS.VCOLL;

  42719  1 022320   200003 470500                    LDP0    @VBLK,,AUTO
         1 022321   000000 471500                    LDP1    0,,PR0
         1 022322   100006 236100                    LDQ     6,,PR1
         1 022323   000030 736000                    QLS     24
         1 022324   400000 376003                    ANQ     -131072,DU
         1 022325   400000 676003                    ERQ     -131072,DU
         1 022326   200040 756100                    STQ     ZBLK+8,,AUTO
         1 022327   100006 236100                    LDQ     6,,PR1
         1 022330   000015 736000                    QLS     13
         1 022331   400000 376003                    ANQ     -131072,DU
         1 022332   200040 376100                    ANQ     ZBLK+8,,AUTO
         1 022333   000011 772000                    QRL     9
         1 022334   200006 676100                    ERQ     ZPRED,,AUTO
         1 022335   000400 376003                    ANQ     256,DU
         1 022336   200006 656100                    ERSQ    ZPRED,,AUTO

     3481    42720    2       PINV(9) = %FALSE;

  42720  1 022337   000262 236000 2                  LDQ     178
         1 022340   200011 356100                    ANSQ    ZPINV,,AUTO

PL6.E3A0      #001=XSS$MACHINE File=XSS$MACHINE.:XSA1TSI                         WED 10/01/97 12:18 Page:679
     3482    42721    2       GOTO RET;

  42721  1 022341   022133 710000 1                  TRA     RET

     3483    42722
     3484    42723    2   PRED10: ENTRY ALTRET;

  42723  1 022342   200016 741300       PRED10       STX1  ! CONTINUING+2,,AUTO

     3485    42724
     3486    42725            /* "~Vcoll" */
     3487    42726            /* Events: DT PR-RS RS-a/r/s TD SRSXREQ(a/r/s) */
     3488    42727    2       PRED(10) = ~SCTX.FLAGS.VCOLL;

  42727  1 022343   200003 470500                    LDP0    @VBLK,,AUTO
         1 022344   000000 471500                    LDP1    0,,PR0
         1 022345   100006 236100                    LDQ     6,,PR1
         1 022346   000030 736000                    QLS     24
         1 022347   400000 376003                    ANQ     -131072,DU
         1 022350   400000 676003                    ERQ     -131072,DU
         1 022351   000012 772000                    QRL     10
         1 022352   200006 676100                    ERQ     ZPRED,,AUTO
         1 022353   000200 376003                    ANQ     128,DU
         1 022354   200006 656100                    ERSQ    ZPRED,,AUTO

     3489    42728    2       PINV(10) = %FALSE;

  42728  1 022355   000263 236000 2                  LDQ     179
         1 022356   200011 356100                    ANSQ    ZPINV,,AUTO

     3490    42729    2       GOTO RET;

  42729  1 022357   022133 710000 1                  TRA     RET

     3491    42730
     3492    42731    2   PRED11: ENTRY ALTRET;

PL6.E3A0      #001=XSS$MACHINE File=XSS$MACHINE.:XSA1TSI                         WED 10/01/97 12:18 Page:680
  42731  1 022360   200016 741300       PRED11       STX1  ! CONTINUING+2,,AUTO

     3493    42732
     3494    42733            /* "II(ma)" */
     3495    42734            /* Events: SACDREQ SACIREQ */
     3496    42735    2       PRED(11) = SCTX.II.MA;

  42735  1 022361   200003 470500                    LDP0    @VBLK,,AUTO
         1 022362   000000 471500                    LDP1    0,,PR0
         1 022363   100005 236100                    LDQ     5,,PR1
         1 022364   000012 736000                    QLS     10
         1 022365   200006 676100                    ERQ     ZPRED,,AUTO
         1 022366   000100 376003                    ANQ     64,DU
         1 022367   200006 656100                    ERSQ    ZPRED,,AUTO

     3497    42736    2       PINV(11) = %FALSE;

  42736  1 022370   000264 236000 2                  LDQ     180
         1 022371   200011 356100                    ANSQ    ZPINV,,AUTO

     3498    42737    2       GOTO RET;

  42737  1 022372   022133 710000 1                  TRA     RET

     3499    42738
     3500    42739    2   PRED12: ENTRY ALTRET;

  42739  1 022373   200016 741300       PRED12       STX1  ! CONTINUING+2,,AUTO

     3501    42740
     3502    42741            /* "(~FU(ACT) OR Vact) & A(dk) & A(mi) & AA(ma)" */
     3503    42742            /* Events: MAP */
     3504    42743    2       PRED(12) = ( ~SCTX.FU.ACT | SCTX.FLAGS.VACT) &

  42743  1 022374   200003 470500                    LDP0    @VBLK,,AUTO
         1 022375   000000 471500                    LDP1    0,,PR0
         1 022376   100006 236100                    LDQ     6,,PR1
PL6.E3A0      #001=XSS$MACHINE File=XSS$MACHINE.:XSA1TSI                         WED 10/01/97 12:18 Page:681
         1 022377   000011 736000                    QLS     9
         1 022400   400000 376003                    ANQ     -131072,DU
         1 022401   400000 676003                    ERQ     -131072,DU
         1 022402   200040 756100                    STQ     ZBLK+8,,AUTO
         1 022403   100006 236100                    LDQ     6,,PR1
         1 022404   000024 736000                    QLS     20
         1 022405   400000 376003                    ANQ     -131072,DU
         1 022406   200041 756100                    STQ     ZBLK+9,,AUTO
         1 022407   200040 236100                    LDQ     ZBLK+8,,AUTO
         1 022410   200041 276100                    ORQ     ZBLK+9,,AUTO
         1 022411   000000 471500                    LDP1    0,,PR0
         1 022412   200042 756100                    STQ     ZBLK+10,,AUTO
         1 022413   100005 236100                    LDQ     5,,PR1
         1 022414   000020 736000                    QLS     16
         1 022415   400000 376003                    ANQ     -131072,DU
         1 022416   200043 756100                    STQ     ZBLK+11,,AUTO
         1 022417   200042 236100                    LDQ     ZBLK+10,,AUTO
         1 022420   200043 376100                    ANQ     ZBLK+11,,AUTO
         1 022421   000000 471500                    LDP1    0,,PR0
         1 022422   200044 756100                    STQ     ZBLK+12,,AUTO
         1 022423   100005 236100                    LDQ     5,,PR1
         1 022424   000016 736000                    QLS     14
         1 022425   400000 376003                    ANQ     -131072,DU
         1 022426   200045 756100                    STQ     ZBLK+13,,AUTO
         1 022427   200044 236100                    LDQ     ZBLK+12,,AUTO
         1 022430   200045 376100                    ANQ     ZBLK+13,,AUTO
         1 022431   000000 471500                    LDP1    0,,PR0
         1 022432   200046 756100                    STQ     ZBLK+14,,AUTO
         1 022433   100005 236100                    LDQ     5,,PR1
         1 022434   000036 736000                    QLS     30
         1 022435   400000 376003                    ANQ     -131072,DU
         1 022436   200047 756100                    STQ     ZBLK+15,,AUTO
         1 022437   200046 236100                    LDQ     ZBLK+14,,AUTO
         1 022440   200047 376100                    ANQ     ZBLK+15,,AUTO
         1 022441   000014 772000                    QRL     12
         1 022442   200006 676100                    ERQ     ZPRED,,AUTO
         1 022443   000040 376003                    ANQ     32,DU
PL6.E3A0      #001=XSS$MACHINE File=XSS$MACHINE.:XSA1TSI                         WED 10/01/97 12:18 Page:682
         1 022444   200006 656100                    ERSQ    ZPRED,,AUTO

     3505    42744    2                  SCTX.A.DK & SCTX.A.MI & SCTX.AA.MA;
     3506    42745    2       PINV(12) = %FALSE;

  42745  1 022445   000265 236000 2                  LDQ     181
         1 022446   200011 356100                    ANSQ    ZPINV,,AUTO

     3507    42746    2       GOTO RET;

  42746  1 022447   022133 710000 1                  TRA     RET

     3508    42747
     3509    42748    2   PRED13: ENTRY ALTRET;

  42748  1 022450   200016 741300       PRED13       STX1  ! CONTINUING+2,,AUTO

     3510    42749
     3511    42750            /* "(~FU(ACT) OR Vact) & I(dk) & I(mi) & II(ma)" */
     3512    42751            /* Events: SSMAREQ */
     3513    42752    2       PRED(13) = ( ~SCTX.FU.ACT | SCTX.FLAGS.VACT) &

  42752  1 022451   200003 470500                    LDP0    @VBLK,,AUTO
         1 022452   000000 471500                    LDP1    0,,PR0
         1 022453   100006 236100                    LDQ     6,,PR1
         1 022454   000011 736000                    QLS     9
         1 022455   400000 376003                    ANQ     -131072,DU
         1 022456   400000 676003                    ERQ     -131072,DU
         1 022457   200040 756100                    STQ     ZBLK+8,,AUTO
         1 022460   100006 236100                    LDQ     6,,PR1
         1 022461   000024 736000                    QLS     20
         1 022462   400000 376003                    ANQ     -131072,DU
         1 022463   200041 756100                    STQ     ZBLK+9,,AUTO
         1 022464   200040 236100                    LDQ     ZBLK+8,,AUTO
         1 022465   200041 276100                    ORQ     ZBLK+9,,AUTO
         1 022466   000000 471500                    LDP1    0,,PR0
         1 022467   200042 756100                    STQ     ZBLK+10,,AUTO
PL6.E3A0      #001=XSS$MACHINE File=XSS$MACHINE.:XSA1TSI                         WED 10/01/97 12:18 Page:683
         1 022470   100005 236100                    LDQ     5,,PR1
         1 022471   000007 736000                    QLS     7
         1 022472   400000 376003                    ANQ     -131072,DU
         1 022473   200043 756100                    STQ     ZBLK+11,,AUTO
         1 022474   200042 236100                    LDQ     ZBLK+10,,AUTO
         1 022475   200043 376100                    ANQ     ZBLK+11,,AUTO
         1 022476   000000 471500                    LDP1    0,,PR0
         1 022477   200044 756100                    STQ     ZBLK+12,,AUTO
         1 022500   100005 236100                    LDQ     5,,PR1
         1 022501   000005 736000                    QLS     5
         1 022502   400000 376003                    ANQ     -131072,DU
         1 022503   200045 756100                    STQ     ZBLK+13,,AUTO
         1 022504   200044 236100                    LDQ     ZBLK+12,,AUTO
         1 022505   200045 376100                    ANQ     ZBLK+13,,AUTO
         1 022506   000000 471500                    LDP1    0,,PR0
         1 022507   200046 756100                    STQ     ZBLK+14,,AUTO
         1 022510   100005 236100                    LDQ     5,,PR1
         1 022511   000025 736000                    QLS     21
         1 022512   400000 376003                    ANQ     -131072,DU
         1 022513   200047 756100                    STQ     ZBLK+15,,AUTO
         1 022514   200046 236100                    LDQ     ZBLK+14,,AUTO
         1 022515   200047 376100                    ANQ     ZBLK+15,,AUTO
         1 022516   000015 772000                    QRL     13
         1 022517   200006 676100                    ERQ     ZPRED,,AUTO
         1 022520   000020 376003                    ANQ     16,DU
         1 022521   200006 656100                    ERSQ    ZPRED,,AUTO

     3514    42753    2                  SCTX.I.DK & SCTX.I.MI & SCTX.II.MA;
     3515    42754    2       PINV(13) = %FALSE;

  42754  1 022522   000266 236000 2                  LDQ     182
         1 022523   200011 356100                    ANSQ    ZPINV,,AUTO

     3516    42755    2       GOTO RET;

  42755  1 022524   022133 710000 1                  TRA     RET

PL6.E3A0      #001=XSS$MACHINE File=XSS$MACHINE.:XSA1TSI                         WED 10/01/97 12:18 Page:684
     3517    42756
     3518    42757    2   PRED14: ENTRY ALTRET;

  42757  1 022525   200016 741300       PRED14       STX1  ! CONTINUING+2,,AUTO

     3519    42758
     3520    42759            /* "(~FU(ACT) OR Vact) & A(dk) & AA(mi)" */
     3521    42760            /* Events: MIP */
     3522    42761    2       PRED(14) = ( ~SCTX.FU.ACT | SCTX.FLAGS.VACT) & SCTX.A.DK & SCTX.AA.MI;

  42761  1 022526   200003 470500                    LDP0    @VBLK,,AUTO
         1 022527   000000 471500                    LDP1    0,,PR0
         1 022530   100006 236100                    LDQ     6,,PR1
         1 022531   000011 736000                    QLS     9
         1 022532   400000 376003                    ANQ     -131072,DU
         1 022533   400000 676003                    ERQ     -131072,DU
         1 022534   200040 756100                    STQ     ZBLK+8,,AUTO
         1 022535   100006 236100                    LDQ     6,,PR1
         1 022536   000024 736000                    QLS     20
         1 022537   400000 376003                    ANQ     -131072,DU
         1 022540   200041 756100                    STQ     ZBLK+9,,AUTO
         1 022541   200040 236100                    LDQ     ZBLK+8,,AUTO
         1 022542   200041 276100                    ORQ     ZBLK+9,,AUTO
         1 022543   000000 471500                    LDP1    0,,PR0
         1 022544   200042 756100                    STQ     ZBLK+10,,AUTO
         1 022545   100005 236100                    LDQ     5,,PR1
         1 022546   000020 736000                    QLS     16
         1 022547   400000 376003                    ANQ     -131072,DU
         1 022550   200043 756100                    STQ     ZBLK+11,,AUTO
         1 022551   200042 236100                    LDQ     ZBLK+10,,AUTO
         1 022552   200043 376100                    ANQ     ZBLK+11,,AUTO
         1 022553   000000 471500                    LDP1    0,,PR0
         1 022554   200044 756100                    STQ     ZBLK+12,,AUTO
         1 022555   100005 236100                    LDQ     5,,PR1
         1 022556   000040 736000                    QLS     32
         1 022557   400000 376003                    ANQ     -131072,DU
         1 022560   200045 756100                    STQ     ZBLK+13,,AUTO
PL6.E3A0      #001=XSS$MACHINE File=XSS$MACHINE.:XSA1TSI                         WED 10/01/97 12:18 Page:685
         1 022561   200044 236100                    LDQ     ZBLK+12,,AUTO
         1 022562   200045 376100                    ANQ     ZBLK+13,,AUTO
         1 022563   000016 772000                    QRL     14
         1 022564   200006 676100                    ERQ     ZPRED,,AUTO
         1 022565   000010 376003                    ANQ     8,DU
         1 022566   200006 656100                    ERSQ    ZPRED,,AUTO

     3523    42762    2       PINV(14) = %FALSE;

  42762  1 022567   000267 236000 2                  LDQ     183
         1 022570   200011 356100                    ANSQ    ZPINV,,AUTO

     3524    42763    2       GOTO RET;

  42763  1 022571   022133 710000 1                  TRA     RET

     3525    42764
     3526    42765    2   PRED15: ENTRY ALTRET;

  42765  1 022572   200016 741300       PRED15       STX1  ! CONTINUING+2,,AUTO

     3527    42766
     3528    42767            /* "(~FU(ACT) OR Vact) & I(dk) & II(ma)" */
     3529    42768            /* Events: SSMIREQ */
     3530    42769    2       PRED(15) = ( ~SCTX.FU.ACT | SCTX.FLAGS.VACT) & SCTX.I.DK & SCTX.II.MA;

  42769  1 022573   200003 470500                    LDP0    @VBLK,,AUTO
         1 022574   000000 471500                    LDP1    0,,PR0
         1 022575   100006 236100                    LDQ     6,,PR1
         1 022576   000011 736000                    QLS     9
         1 022577   400000 376003                    ANQ     -131072,DU
         1 022600   400000 676003                    ERQ     -131072,DU
         1 022601   200040 756100                    STQ     ZBLK+8,,AUTO
         1 022602   100006 236100                    LDQ     6,,PR1
         1 022603   000024 736000                    QLS     20
         1 022604   400000 376003                    ANQ     -131072,DU
         1 022605   200041 756100                    STQ     ZBLK+9,,AUTO
PL6.E3A0      #001=XSS$MACHINE File=XSS$MACHINE.:XSA1TSI                         WED 10/01/97 12:18 Page:686
         1 022606   200040 236100                    LDQ     ZBLK+8,,AUTO
         1 022607   200041 276100                    ORQ     ZBLK+9,,AUTO
         1 022610   000000 471500                    LDP1    0,,PR0
         1 022611   200042 756100                    STQ     ZBLK+10,,AUTO
         1 022612   100005 236100                    LDQ     5,,PR1
         1 022613   000007 736000                    QLS     7
         1 022614   400000 376003                    ANQ     -131072,DU
         1 022615   200043 756100                    STQ     ZBLK+11,,AUTO
         1 022616   200042 236100                    LDQ     ZBLK+10,,AUTO
         1 022617   200043 376100                    ANQ     ZBLK+11,,AUTO
         1 022620   000000 471500                    LDP1    0,,PR0
         1 022621   200044 756100                    STQ     ZBLK+12,,AUTO
         1 022622   100005 236100                    LDQ     5,,PR1
         1 022623   000025 736000                    QLS     21
         1 022624   400000 376003                    ANQ     -131072,DU
         1 022625   200045 756100                    STQ     ZBLK+13,,AUTO
         1 022626   200044 236100                    LDQ     ZBLK+12,,AUTO
         1 022627   200045 376100                    ANQ     ZBLK+13,,AUTO
         1 022630   000017 772000                    QRL     15
         1 022631   200006 676100                    ERQ     ZPRED,,AUTO
         1 022632   000004 376003                    ANQ     4,DU
         1 022633   200006 656100                    ERSQ    ZPRED,,AUTO

     3531    42770    2       PINV(15) = %FALSE;

  42770  1 022634   000270 236000 2                  LDQ     184
         1 022635   200011 356100                    ANSQ    ZPINV,,AUTO

     3532    42771    2       GOTO RET;

  42771  1 022636   022133 710000 1                  TRA     RET

     3533    42772
     3534    42773    2   PRED16: ENTRY ALTRET;

  42773  1 022637   200016 741300       PRED16       STX1  ! CONTINUING+2,,AUTO

PL6.E3A0      #001=XSS$MACHINE File=XSS$MACHINE.:XSA1TSI                         WED 10/01/97 12:18 Page:687
     3535    42774
     3536    42775            /* "~TEXP" */
     3537    42776            /* Events: AEA FN-r MAA */
     3538    42777    2       PRED(16) = ~SCTX.FLAGS.TEXP;

  42777  1 022640   200003 470500                    LDP0    @VBLK,,AUTO
         1 022641   000000 471500                    LDP1    0,,PR0
         1 022642   100006 236100                    LDQ     6,,PR1
         1 022643   000027 736000                    QLS     23
         1 022644   400000 376003                    ANQ     -131072,DU
         1 022645   400000 676003                    ERQ     -131072,DU
         1 022646   000020 772000                    QRL     16
         1 022647   200006 676100                    ERQ     ZPRED,,AUTO
         1 022650   000002 376003                    ANQ     2,DU
         1 022651   200006 656100                    ERSQ    ZPRED,,AUTO

     3539    42778    2       PINV(16) = %FALSE;

  42778  1 022652   000271 236000 2                  LDQ     185
         1 022653   200011 356100                    ANSQ    ZPINV,,AUTO

     3540    42779    2       GOTO RET;

  42779  1 022654   022133 710000 1                  TRA     RET

     3541    42780
     3542    42781    2   PRED17: ENTRY ALTRET;

  42781  1 022655   200016 741300       PRED17       STX1  ! CONTINUING+2,,AUTO

     3543    42782
     3544    42783            /* "(~FU(ACT) OR Vact) & FU(SY) & ~Vsc" */
     3545    42784            /* Events: MIA */
     3546    42785    2       PRED(17) = ( ~SCTX.FU.ACT | SCTX.FLAGS.VACT) &

  42785  1 022656   200003 470500                    LDP0    @VBLK,,AUTO
         1 022657   000000 471500                    LDP1    0,,PR0
PL6.E3A0      #001=XSS$MACHINE File=XSS$MACHINE.:XSA1TSI                         WED 10/01/97 12:18 Page:688
         1 022660   100006 236100                    LDQ     6,,PR1
         1 022661   000011 736000                    QLS     9
         1 022662   400000 376003                    ANQ     -131072,DU
         1 022663   400000 676003                    ERQ     -131072,DU
         1 022664   200040 756100                    STQ     ZBLK+8,,AUTO
         1 022665   100006 236100                    LDQ     6,,PR1
         1 022666   000024 736000                    QLS     20
         1 022667   400000 376003                    ANQ     -131072,DU
         1 022670   200041 756100                    STQ     ZBLK+9,,AUTO
         1 022671   200040 236100                    LDQ     ZBLK+8,,AUTO
         1 022672   200041 276100                    ORQ     ZBLK+9,,AUTO
         1 022673   000000 471500                    LDP1    0,,PR0
         1 022674   200042 756100                    STQ     ZBLK+10,,AUTO
         1 022675   100006 236100                    LDQ     6,,PR1
         1 022676   000014 736000                    QLS     12
         1 022677   400000 376003                    ANQ     -131072,DU
         1 022700   200043 756100                    STQ     ZBLK+11,,AUTO
         1 022701   200042 236100                    LDQ     ZBLK+10,,AUTO
         1 022702   200043 376100                    ANQ     ZBLK+11,,AUTO
         1 022703   000000 471500                    LDP1    0,,PR0
         1 022704   200044 756100                    STQ     ZBLK+12,,AUTO
         1 022705   100006 236100                    LDQ     6,,PR1
         1 022706   000023 736000                    QLS     19
         1 022707   400000 376003                    ANQ     -131072,DU
         1 022710   400000 676003                    ERQ     -131072,DU
         1 022711   200044 376100                    ANQ     ZBLK+12,,AUTO
         1 022712   000021 772000                    QRL     17
         1 022713   200006 676100                    ERQ     ZPRED,,AUTO
         1 022714   000001 376003                    ANQ     1,DU
         1 022715   200006 656100                    ERSQ    ZPRED,,AUTO

     3547    42786    2                  SCTX.FU.SY & ~SCTX.FLAGS.VSC;
     3548    42787    2       PINV(17) = %FALSE;

  42787  1 022716   000272 236000 2                  LDQ     186
         1 022717   200011 356100                    ANSQ    ZPINV,,AUTO

PL6.E3A0      #001=XSS$MACHINE File=XSS$MACHINE.:XSA1TSI                         WED 10/01/97 12:18 Page:689
     3549    42788    2       GOTO RET;

  42788  1 022720   022133 710000 1                  TRA     RET

     3550    42789
     3551    42790    2   PRED18: ENTRY ALTRET;

  42790  1 022721   200016 741300       PRED18       STX1  ! CONTINUING+2,,AUTO

     3552    42791
     3553    42792            /* "(~FU(ACT) OR Vact) & FU(SY) & Vsc" */
     3554    42793            /* Events: SSMIRSP */
     3555    42794    2       PRED(18) = ( ~SCTX.FU.ACT | SCTX.FLAGS.VACT) &

  42794  1 022722   200003 470500                    LDP0    @VBLK,,AUTO
         1 022723   000000 471500                    LDP1    0,,PR0
         1 022724   100006 236100                    LDQ     6,,PR1
         1 022725   000011 736000                    QLS     9
         1 022726   400000 376003                    ANQ     -131072,DU
         1 022727   400000 676003                    ERQ     -131072,DU
         1 022730   200040 756100                    STQ     ZBLK+8,,AUTO
         1 022731   100006 236100                    LDQ     6,,PR1
         1 022732   000024 736000                    QLS     20
         1 022733   400000 376003                    ANQ     -131072,DU
         1 022734   200041 756100                    STQ     ZBLK+9,,AUTO
         1 022735   200040 236100                    LDQ     ZBLK+8,,AUTO
         1 022736   200041 276100                    ORQ     ZBLK+9,,AUTO
         1 022737   000000 471500                    LDP1    0,,PR0
         1 022740   200042 756100                    STQ     ZBLK+10,,AUTO
         1 022741   100006 236100                    LDQ     6,,PR1
         1 022742   000014 736000                    QLS     12
         1 022743   400000 376003                    ANQ     -131072,DU
         1 022744   200043 756100                    STQ     ZBLK+11,,AUTO
         1 022745   200042 236100                    LDQ     ZBLK+10,,AUTO
         1 022746   200043 376100                    ANQ     ZBLK+11,,AUTO
         1 022747   000000 471500                    LDP1    0,,PR0
         1 022750   200044 756100                    STQ     ZBLK+12,,AUTO
PL6.E3A0      #001=XSS$MACHINE File=XSS$MACHINE.:XSA1TSI                         WED 10/01/97 12:18 Page:690
         1 022751   100006 236100                    LDQ     6,,PR1
         1 022752   000023 736000                    QLS     19
         1 022753   400000 376003                    ANQ     -131072,DU
         1 022754   200045 756100                    STQ     ZBLK+13,,AUTO
         1 022755   200044 236100                    LDQ     ZBLK+12,,AUTO
         1 022756   200045 376100                    ANQ     ZBLK+13,,AUTO
         1 022757   000022 772000                    QRL     18
         1 022760   200006 676100                    ERQ     ZPRED,,AUTO
         1 022761   400000 376007                    ANQ     -131072,DL
         1 022762   200006 656100                    ERSQ    ZPRED,,AUTO

     3556    42795    2                  SCTX.FU.SY & SCTX.FLAGS.VSC;
     3557    42796    2       PINV(18) = %FALSE;

  42796  1 022763   000273 236000 2                  LDQ     187
         1 022764   200011 356100                    ANSQ    ZPINV,,AUTO

     3558    42797    2       GOTO RET;

  42797  1 022765   022133 710000 1                  TRA     RET

     3559    42798
     3560    42799    2   PRED19: ENTRY ALTRET;

  42799  1 022766   200016 741300       PRED19       STX1  ! CONTINUING+2,,AUTO

     3561    42800
     3562    42801            /* "serial number = V(M)" */
     3563    42802            /* Events: AE MAP MIP */
     3564    42803    2       IF XSS$GENERIC.SERNUM = SCTX.VM THEN

  42803  1 022767   200003 470500                    LDP0    @VBLK,,AUTO
         1 022770   000000 471500                    LDP1    0,,PR0
         1 022771   200005 473500                    LDP3    SFPT$,,AUTO
         1 022772   300004 236100                    LDQ     4,,PR3
         1 022773   100011 116100                    CMPQ    9,,PR1
         1 022774   022777 601000 1                  TNZ     s:42805
PL6.E3A0      #001=XSS$MACHINE File=XSS$MACHINE.:XSA1TSI                         WED 10/01/97 12:18 Page:691

     3565    42804    2           PRED(19) = %TRUE;

  42804  1 022775   200000 236007                    LDQ     65536,DL
         1 022776   200006 256100                    ORSQ    ZPRED,,AUTO

     3566    42805    2       PINV(19) = %FALSE;

  42805  1 022777   000245 236000 2                  LDQ     165
         1 023000   200011 356100                    ANSQ    ZPINV,,AUTO

     3567    42806    2       GOTO RET;

  42806  1 023001   022133 710000 1                  TRA     RET

     3568    42807
     3569    42808    2   PRED20: ENTRY ALTRET;

  42808  1 023002   200016 741300       PRED20       STX1  ! CONTINUING+2,,AUTO

     3570    42809
     3571    42810            /* "serial number = V(M) - 1" */
     3572    42811            /* Events: AEA MAA MIA SSMIRSP */
     3573    42812    2       IF XSS$GENERIC.SERNUM = SCTX.VM - 1 THEN

  42812  1 023003   200003 470500                    LDP0    @VBLK,,AUTO
         1 023004   000000 471500                    LDP1    0,,PR0
         1 023005   200005 473500                    LDP3    SFPT$,,AUTO
         1 023006   100011 236100                    LDQ     9,,PR1
         1 023007   000001 136007                    SBLQ    1,DL
         1 023010   023015 604000 1                  TMI     s:42814
         1 023011   300004 116100                    CMPQ    4,,PR3
         1 023012   023015 601000 1                  TNZ     s:42814

     3574    42813    2           PRED(20) = %TRUE;

  42813  1 023013   100000 236007                    LDQ     32768,DL
PL6.E3A0      #001=XSS$MACHINE File=XSS$MACHINE.:XSA1TSI                         WED 10/01/97 12:18 Page:692
         1 023014   200006 256100                    ORSQ    ZPRED,,AUTO

     3575    42814    2       PINV(20) = %FALSE;

  42814  1 023015   000246 236000 2                  LDQ     166
         1 023016   200011 356100                    ANSQ    ZPINV,,AUTO

     3576    42815    2       GOTO RET;

  42815  1 023017   022133 710000 1                  TRA     RET

     3577    42816
     3578    42817    2   PRED21: ENTRY ALTRET;

  42817  1 023020   200016 741300       PRED21       STX1  ! CONTINUING+2,,AUTO

     3579    42818
     3580    42819            /* "V(M) > serial number >= V(A)" */
     3581    42820            /* Events: MIA SSMIRSP */
     3582    42821    2       IF SCTX.VM > XSS$GENERIC.SERNUM AND XSS$GENERIC.SERNUM >= SCTX.VA THEN

  42821  1 023021   200003 470500                    LDP0    @VBLK,,AUTO
         1 023022   000000 471500                    LDP1    0,,PR0
         1 023023   200005 473500                    LDP3    SFPT$,,AUTO
         1 023024   300004 236100                    LDQ     4,,PR3
         1 023025   100011 116100                    CMPQ    9,,PR1
         1 023026   023033 603000 1                  TRC     s:42823
         1 023027   100010 116100                    CMPQ    8,,PR1
         1 023030   023033 602000 1                  TNC     s:42823

     3583    42822    2           PRED(21) = %TRUE;

  42822  1 023031   040000 236007                    LDQ     16384,DL
         1 023032   200006 256100                    ORSQ    ZPRED,,AUTO

     3584    42823    2       PINV(21) = %FALSE;

PL6.E3A0      #001=XSS$MACHINE File=XSS$MACHINE.:XSA1TSI                         WED 10/01/97 12:18 Page:693
  42823  1 023033   000251 236000 2                  LDQ     169
         1 023034   200011 356100                    ANSQ    ZPINV,,AUTO

     3585    42824    2       GOTO RET;

  42824  1 023035   022133 710000 1                  TRA     RET

     3586    42825
     3587    42826    2   PRED22: ENTRY ALTRET;

  42826  1 023036   200016 741300       PRED22       STX1  ! CONTINUING+2,,AUTO

     3588    42827            /* PRED22 is unused */
     3589    42828    2       GOTO ALT;

  42828  1 023037   022131 710000 1                  TRA     ALT

     3590    42829
     3591    42830    2   PRED23: ENTRY ALTRET;

  42830  1 023040   200016 741300       PRED23       STX1  ! CONTINUING+2,,AUTO

     3592    42831
     3593    42832            /* "FU(ACT) & ~Vnextact" */
     3594    42833            /* Events: AEA MAA */
     3595    42834    2       PRED(23) = SCTX.FU.ACT & ~SCTX.FLAGS.VNEXTACT;

  42834  1 023041   200003 470500                    LDP0    @VBLK,,AUTO
         1 023042   000000 471500                    LDP1    0,,PR0
         1 023043   100006 236100                    LDQ     6,,PR1
         1 023044   000025 736000                    QLS     21
         1 023045   400000 376003                    ANQ     -131072,DU
         1 023046   400000 676003                    ERQ     -131072,DU
         1 023047   200040 756100                    STQ     ZBLK+8,,AUTO
         1 023050   100006 236100                    LDQ     6,,PR1
         1 023051   000011 736000                    QLS     9
         1 023052   400000 376003                    ANQ     -131072,DU
PL6.E3A0      #001=XSS$MACHINE File=XSS$MACHINE.:XSA1TSI                         WED 10/01/97 12:18 Page:694
         1 023053   200040 376100                    ANQ     ZBLK+8,,AUTO
         1 023054   000027 772000                    QRL     23
         1 023055   200006 676100                    ERQ     ZPRED,,AUTO
         1 023056   010000 376007                    ANQ     4096,DL
         1 023057   200006 656100                    ERSQ    ZPRED,,AUTO

     3596    42835    2       PINV(23) = %FALSE;

  42835  1 023060   000274 236000 2                  LDQ     188
         1 023061   200011 356100                    ANSQ    ZPINV,,AUTO

     3597    42836    2       GOTO RET;

  42836  1 023062   022133 710000 1                  TRA     RET

     3598    42837
     3599    42838    2   PRED24: ENTRY ALTRET;

  42838  1 023063   200016 741300       PRED24       STX1  ! CONTINUING+2,,AUTO

     3600    42839
     3601    42840            /* "~SPMwinner" */
     3602    42841            /* Events: RS-a/r/s SRSXREQ(a/r/s) */
     3603    42842    2       PRED(24) = ~SCTX.FLAGS.WINNER;

  42842  1 023064   200003 470500                    LDP0    @VBLK,,AUTO
         1 023065   000000 471500                    LDP1    0,,PR0
         1 023066   100006 236100                    LDQ     6,,PR1
         1 023067   000022 736000                    QLS     18
         1 023070   400000 376003                    ANQ     -131072,DU
         1 023071   400000 676003                    ERQ     -131072,DU
         1 023072   000030 772000                    QRL     24
         1 023073   200006 676100                    ERQ     ZPRED,,AUTO
         1 023074   004000 376007                    ANQ     2048,DL
         1 023075   200006 656100                    ERSQ    ZPRED,,AUTO

     3604    42843    2       PINV(24) = %FALSE;
PL6.E3A0      #001=XSS$MACHINE File=XSS$MACHINE.:XSA1TSI                         WED 10/01/97 12:18 Page:695

  42843  1 023076   000244 236000 2                  LDQ     164
         1 023077   200011 356100                    ANSQ    ZPINV,,AUTO

     3605    42844    2       GOTO ALT;  /*N* until WINNER is figured out correctly */

  42844  1 023100   022131 710000 1                  TRA     ALT

     3606    42845
     3607    42846    2   PRED25: ENTRY ALTRET;

  42846  1 023101   200016 741300       PRED25       STX1  ! CONTINUING+2,,AUTO

     3608    42847
     3609    42848            /* "(FU(SY) OR FU(MA)) & FU(RESYN)" */
     3610    42849            /* Events: SRSXREQ(r/s) */
     3611    42850    2       PRED(25) = ( SCTX.FU.SY | SCTX.FU.MA) & SCTX.FU.RESYN;

  42850  1 023102   200003 470500                    LDP0    @VBLK,,AUTO
         1 023103   000000 471500                    LDP1    0,,PR0
         1 023104   100006 236100                    LDQ     6,,PR1
         1 023105   000013 736000                    QLS     11
         1 023106   400000 376003                    ANQ     -131072,DU
         1 023107   200040 756100                    STQ     ZBLK+8,,AUTO
         1 023110   100006 236100                    LDQ     6,,PR1
         1 023111   000014 736000                    QLS     12
         1 023112   400000 376003                    ANQ     -131072,DU
         1 023113   200040 276100                    ORQ     ZBLK+8,,AUTO
         1 023114   000000 471500                    LDP1    0,,PR0
         1 023115   200041 756100                    STQ     ZBLK+9,,AUTO
         1 023116   100006 236100                    LDQ     6,,PR1
         1 023117   000012 736000                    QLS     10
         1 023120   400000 376003                    ANQ     -131072,DU
         1 023121   200042 756100                    STQ     ZBLK+10,,AUTO
         1 023122   200041 236100                    LDQ     ZBLK+9,,AUTO
         1 023123   200042 376100                    ANQ     ZBLK+10,,AUTO
         1 023124   000031 772000                    QRL     25
PL6.E3A0      #001=XSS$MACHINE File=XSS$MACHINE.:XSA1TSI                         WED 10/01/97 12:18 Page:696
         1 023125   200006 676100                    ERQ     ZPRED,,AUTO
         1 023126   002000 376007                    ANQ     1024,DL
         1 023127   200006 656100                    ERSQ    ZPRED,,AUTO

     3612    42851    2       PINV(25) = %FALSE;

  42851  1 023130   000242 236000 2                  LDQ     162
         1 023131   200011 356100                    ANSQ    ZPINV,,AUTO

     3613    42852    2       GOTO RET;

  42852  1 023132   022133 710000 1                  TRA     RET

     3614    42853
     3615    42854    2   PRED26: ENTRY ALTRET;

  42854  1 023133   200016 741300       PRED26       STX1  ! CONTINUING+2,,AUTO

     3616    42855
     3617    42856            /* "(~FU(ACT) OR Vact)" */
     3618    42857            /* Events: PR-RS RS-a/r/s SRSXREQ(r/s) */
     3619    42858    2       PRED(26) = ~SCTX.FU.ACT | SCTX.FLAGS.VACT;

  42858  1 023134   200003 470500                    LDP0    @VBLK,,AUTO
         1 023135   000000 471500                    LDP1    0,,PR0
         1 023136   100006 236100                    LDQ     6,,PR1
         1 023137   000011 736000                    QLS     9
         1 023140   400000 376003                    ANQ     -131072,DU
         1 023141   400000 676003                    ERQ     -131072,DU
         1 023142   200040 756100                    STQ     ZBLK+8,,AUTO
         1 023143   100006 236100                    LDQ     6,,PR1
         1 023144   000024 736000                    QLS     20
         1 023145   400000 376003                    ANQ     -131072,DU
         1 023146   200041 756100                    STQ     ZBLK+9,,AUTO
         1 023147   200040 236100                    LDQ     ZBLK+8,,AUTO
         1 023150   200041 276100                    ORQ     ZBLK+9,,AUTO
         1 023151   000032 772000                    QRL     26
PL6.E3A0      #001=XSS$MACHINE File=XSS$MACHINE.:XSA1TSI                         WED 10/01/97 12:18 Page:697
         1 023152   200006 676100                    ERQ     ZPRED,,AUTO
         1 023153   001000 376007                    ANQ     512,DL
         1 023154   200006 656100                    ERSQ    ZPRED,,AUTO

     3620    42859    2       PINV(26) = %FALSE;

  42859  1 023155   000247 236000 2                  LDQ     167
         1 023156   200011 356100                    ANSQ    ZPINV,,AUTO

     3621    42860    2       GOTO RET;

  42860  1 023157   022133 710000 1                  TRA     RET

     3622    42861
     3623    42862    2   PRED27: ENTRY ALTRET;

  42862  1 023160   200016 741300       PRED27       STX1  ! CONTINUING+2,,AUTO

     3624    42863
     3625    42864            /* "Vrsp = no" */
     3626    42865            /* Events: SACDREQ SACIREQ SRSXREQ(a/r/s) */
     3627    42866    2       IF SCTX.VRSP = %VRSP_NO THEN

  42866  1 023161   200003 470500                    LDP0    @VBLK,,AUTO
         1 023162   000000 471500                    LDP1    0,,PR0
         1 023163   100006 236100                    LDQ     6,,PR1
         1 023164   000777 316007                    CANQ    511,DL
         1 023165   023170 601000 1                  TNZ     s:42868

     3628    42867    2           PRED(27) = %TRUE;

  42867  1 023166   000400 236007                    LDQ     256,DL
         1 023167   200006 256100                    ORSQ    ZPRED,,AUTO

     3629    42868    2       PINV(27) = %FALSE;

  42868  1 023170   000275 236000 2                  LDQ     189
PL6.E3A0      #001=XSS$MACHINE File=XSS$MACHINE.:XSA1TSI                         WED 10/01/97 12:18 Page:698
         1 023171   200011 356100                    ANSQ    ZPINV,,AUTO

     3630    42869    2       GOTO RET;

  42869  1 023172   022133 710000 1                  TRA     RET

     3631    42870
     3632    42871    2   PRED28: ENTRY ALTRET;

  42871  1 023173   200016 741300       PRED28       STX1  ! CONTINUING+2,,AUTO

     3633    42872
     3634    42873            /* "FU(RESYN)" */
     3635    42874            /* Events: RS-a/r/s SRSXREQ(a/s) */
     3636    42875    2       PRED(28) = SCTX.FU.RESYN;

  42875  1 023174   200003 470500                    LDP0    @VBLK,,AUTO
         1 023175   000000 471500                    LDP1    0,,PR0
         1 023176   100006 236100                    LDQ     6,,PR1
         1 023177   000022 772000                    QRL     18
         1 023200   200006 676100                    ERQ     ZPRED,,AUTO
         1 023201   000200 376007                    ANQ     128,DL
         1 023202   200006 656100                    ERSQ    ZPRED,,AUTO

     3637    42876    2       PINV(28) = %FALSE;

  42876  1 023203   000276 236000 2                  LDQ     190
         1 023204   200011 356100                    ANSQ    ZPINV,,AUTO

     3638    42877    2       GOTO RET;

  42877  1 023205   022133 710000 1                  TRA     RET

     3639    42878
     3640    42879    2   PRED29: ENTRY ALTRET;

  42879  1 023206   200016 741300       PRED29       STX1  ! CONTINUING+2,,AUTO
PL6.E3A0      #001=XSS$MACHINE File=XSS$MACHINE.:XSA1TSI                         WED 10/01/97 12:18 Page:699

     3641    42880
     3642    42881            /* "(~FU(ACT) OR Vact) & FU(RESYN)" */
     3643    42882            /* Events: RS-a/r/s SRSXREQ(a) */
     3644    42883    2       PRED(29) = ( ~SCTX.FU.ACT | SCTX.FLAGS.VACT) & SCTX.FU.RESYN;

  42883  1 023207   200003 470500                    LDP0    @VBLK,,AUTO
         1 023210   000000 471500                    LDP1    0,,PR0
         1 023211   100006 236100                    LDQ     6,,PR1
         1 023212   000011 736000                    QLS     9
         1 023213   400000 376003                    ANQ     -131072,DU
         1 023214   400000 676003                    ERQ     -131072,DU
         1 023215   200040 756100                    STQ     ZBLK+8,,AUTO
         1 023216   100006 236100                    LDQ     6,,PR1
         1 023217   000024 736000                    QLS     20
         1 023220   400000 376003                    ANQ     -131072,DU
         1 023221   200041 756100                    STQ     ZBLK+9,,AUTO
         1 023222   200040 236100                    LDQ     ZBLK+8,,AUTO
         1 023223   200041 276100                    ORQ     ZBLK+9,,AUTO
         1 023224   000000 471500                    LDP1    0,,PR0
         1 023225   200042 756100                    STQ     ZBLK+10,,AUTO
         1 023226   100006 236100                    LDQ     6,,PR1
         1 023227   000012 736000                    QLS     10
         1 023230   400000 376003                    ANQ     -131072,DU
         1 023231   200043 756100                    STQ     ZBLK+11,,AUTO
         1 023232   200042 236100                    LDQ     ZBLK+10,,AUTO
         1 023233   200043 376100                    ANQ     ZBLK+11,,AUTO
         1 023234   000035 772000                    QRL     29
         1 023235   200006 676100                    ERQ     ZPRED,,AUTO
         1 023236   000100 376007                    ANQ     64,DL
         1 023237   200006 656100                    ERSQ    ZPRED,,AUTO

     3645    42884    2       PINV(29) = %FALSE;

  42884  1 023240   000277 236000 2                  LDQ     191
         1 023241   200011 356100                    ANSQ    ZPINV,,AUTO

PL6.E3A0      #001=XSS$MACHINE File=XSS$MACHINE.:XSA1TSI                         WED 10/01/97 12:18 Page:700
     3646    42885    2       GOTO RET;

  42885  1 023242   022133 710000 1                  TRA     RET

     3647    42886
     3648    42887    2   PRED30: ENTRY ALTRET;

  42887  1 023243   200016 741300       PRED30       STX1  ! CONTINUING+2,,AUTO

     3649    42888
     3650    42889            /* "~FU(ACT) OR Vnextact" */
     3651    42890            /* Events: SRSXREQ(a/s) */
     3652    42891    2       PRED(30) = ~SCTX.FU.ACT | SCTX.FLAGS.VNEXTACT;

  42891  1 023244   200003 470500                    LDP0    @VBLK,,AUTO
         1 023245   000000 471500                    LDP1    0,,PR0
         1 023246   100006 236100                    LDQ     6,,PR1
         1 023247   000011 736000                    QLS     9
         1 023250   400000 376003                    ANQ     -131072,DU
         1 023251   400000 676003                    ERQ     -131072,DU
         1 023252   200040 756100                    STQ     ZBLK+8,,AUTO
         1 023253   100006 236100                    LDQ     6,,PR1
         1 023254   000025 736000                    QLS     21
         1 023255   400000 376003                    ANQ     -131072,DU
         1 023256   200041 756100                    STQ     ZBLK+9,,AUTO
         1 023257   200040 236100                    LDQ     ZBLK+8,,AUTO
         1 023260   200041 276100                    ORQ     ZBLK+9,,AUTO
         1 023261   000036 772000                    QRL     30
         1 023262   200006 676100                    ERQ     ZPRED,,AUTO
         1 023263   000040 376007                    ANQ     32,DL
         1 023264   200006 656100                    ERSQ    ZPRED,,AUTO

     3653    42892    2       PINV(30) = %FALSE;

  42892  1 023265   000300 236000 2                  LDQ     192
         1 023266   200011 356100                    ANSQ    ZPINV,,AUTO

PL6.E3A0      #001=XSS$MACHINE File=XSS$MACHINE.:XSA1TSI                         WED 10/01/97 12:18 Page:701
     3654    42893    2       GOTO RET;

  42893  1 023267   022133 710000 1                  TRA     RET

     3655    42894
     3656    42895    2   PRED31: ENTRY ALTRET;

  42895  1 023270   200016 741300       PRED31       STX1  ! CONTINUING+2,,AUTO

     3657    42896
     3658    42897            /* "FU(ACT) & Vnextact" */
     3659    42898            /* Events: */
     3660    42899            /*N* PRED31 is defined in the spec, but unused in the state tables */
     3661    42900    2       GOTO ALT;

  42900  1 023271   022131 710000 1                  TRA     ALT

     3662    42901
     3663    42902    2   PRED32: ENTRY ALTRET;

  42902  1 023272   200016 741300       PRED32       STX1  ! CONTINUING+2,,AUTO

     3664    42903
     3665    42904            /* "serial number >= V(R)" */
     3666    42905            /* Events: RS-r */
     3667    42906    2       IF XSS$GENERIC.SERNUM >= SCTX.VR THEN

  42906  1 023273   200003 470500                    LDP0    @VBLK,,AUTO
         1 023274   000000 471500                    LDP1    0,,PR0
         1 023275   200005 473500                    LDP3    SFPT$,,AUTO
         1 023276   300004 236100                    LDQ     4,,PR3
         1 023277   100012 116100                    CMPQ    10,,PR1
         1 023300   023303 602000 1                  TNC     s:42908

     3668    42907    2           PRED(32) = %TRUE;

  42907  1 023301   000010 236007                    LDQ     8,DL
PL6.E3A0      #001=XSS$MACHINE File=XSS$MACHINE.:XSA1TSI                         WED 10/01/97 12:18 Page:702
         1 023302   200006 256100                    ORSQ    ZPRED,,AUTO

     3669    42908    2       PINV(32) = %FALSE;

  42908  1 023303   000301 236000 2                  LDQ     193
         1 023304   200011 356100                    ANSQ    ZPINV,,AUTO

     3670    42909    2       GOTO RET;

  42909  1 023305   022133 710000 1                  TRA     RET

     3671    42910
     3672    42911    2   PRED33: ENTRY ALTRET;

  42911  1 023306   200016 741300       PRED33       STX1  ! CONTINUING+2,,AUTO

     3673    42912
     3674    42913            /* "V(M) >= serial number >= V(R)" */
     3675    42914            /* Events: SRSXREQ(r) */
     3676    42915    2       IF SCTX.VM >= XSS$GENERIC.SERNUM AND XSS$GENERIC.SERNUM >= SCTX.VR THEN

  42915  1 023307   200003 470500                    LDP0    @VBLK,,AUTO
         1 023310   000000 471500                    LDP1    0,,PR0
         1 023311   200005 473500                    LDP3    SFPT$,,AUTO
         1 023312   100011 236100                    LDQ     9,,PR1
         1 023313   300004 116100                    CMPQ    4,,PR3
         1 023314   023322 602000 1                  TNC     s:42917
         1 023315   300004 236100                    LDQ     4,,PR3
         1 023316   100012 116100                    CMPQ    10,,PR1
         1 023317   023322 602000 1                  TNC     s:42917

     3677    42916    2           PRED(33) = %TRUE;

  42916  1 023320   000004 236007                    LDQ     4,DL
         1 023321   200006 256100                    ORSQ    ZPRED,,AUTO

     3678    42917    2       PINV(33) = %FALSE;
PL6.E3A0      #001=XSS$MACHINE File=XSS$MACHINE.:XSA1TSI                         WED 10/01/97 12:18 Page:703

  42917  1 023322   000302 236000 2                  LDQ     194
         1 023323   200011 356100                    ANSQ    ZPINV,,AUTO

     3679    42918    2       GOTO RET;

  42918  1 023324   022133 710000 1                  TRA     RET

     3680    42919
     3681    42920    2   PRED34: ENTRY ALTRET;

  42920  1 023325   200016 741300       PRED34       STX1  ! CONTINUING+2,,AUTO

     3682    42921
     3683    42922            /* "FU(ACT)" */
     3684    42923            /* Events: RS-a/r/s SACDREQ SACIREQ SRSXREQ(a/r/s) */
     3685    42924    2       PRED(34) = SCTX.FU.ACT;

  42924  1 023326   200003 470500                    LDP0    @VBLK,,AUTO
         1 023327   000000 471500                    LDP1    0,,PR0
         1 023330   100006 236100                    LDQ     6,,PR1
         1 023331   000031 772000                    QRL     25
         1 023332   200006 676100                    ERQ     ZPRED,,AUTO
         1 023333   000002 376007                    ANQ     2,DL
         1 023334   200006 656100                    ERSQ    ZPRED,,AUTO

     3686    42925    2       PINV(34) = %FALSE;

  42925  1 023335   000303 236000 2                  LDQ     195
         1 023336   200011 356100                    ANSQ    ZPINV,,AUTO

     3687    42926    2       GOTO RET;

  42926  1 023337   022133 710000 1                  TRA     RET

     3688    42927
     3689    42928    2   PRED35: ENTRY ALTRET;
PL6.E3A0      #001=XSS$MACHINE File=XSS$MACHINE.:XSA1TSI                         WED 10/01/97 12:18 Page:704

  42928  1 023340   200016 741300       PRED35       STX1  ! CONTINUING+2,,AUTO

     3690    42929
     3691    42930            /* "FU(RESYN) & ~TEXP" */
     3692    42931            /* Events: RA RS-a/r/s */
     3693    42932    2       PRED(35) = SCTX.FU.RESYN & ~SCTX.FLAGS.TEXP;

  42932  1 023341   200003 470500                    LDP0    @VBLK,,AUTO
         1 023342   000000 471500                    LDP1    0,,PR0
         1 023343   100006 236100                    LDQ     6,,PR1
         1 023344   000027 736000                    QLS     23
         1 023345   400000 376003                    ANQ     -131072,DU
         1 023346   400000 676003                    ERQ     -131072,DU
         1 023347   200040 756100                    STQ     ZBLK+8,,AUTO
         1 023350   100006 236100                    LDQ     6,,PR1
         1 023351   000012 736000                    QLS     10
         1 023352   400000 376003                    ANQ     -131072,DU
         1 023353   200040 376100                    ANQ     ZBLK+8,,AUTO
         1 023354   000043 772000                    QRL     35
         1 023355   200006 676100                    ERQ     ZPRED,,AUTO
         1 023356   000001 376007                    ANQ     1,DL
         1 023357   200006 656100                    ERSQ    ZPRED,,AUTO

     3694    42933    2       PINV(35) = %FALSE;

  42933  1 023360   000304 236000 2                  LDQ     196
         1 023361   200011 356100                    ANSQ    ZPINV,,AUTO

     3695    42934    2       GOTO RET;

  42934  1 023362   022133 710000 1                  TRA     RET

     3696    42935
     3697    42936    2   PRED36: ENTRY ALTRET;

  42936  1 023363   200016 741300       PRED36       STX1  ! CONTINUING+2,,AUTO
PL6.E3A0      #001=XSS$MACHINE File=XSS$MACHINE.:XSA1TSI                         WED 10/01/97 12:18 Page:705

     3698    42937
     3699    42938            /* "FU(RESYN) & TEXP" */
     3700    42939            /* Events: RA */
     3701    42940    2       PRED(36) = SCTX.FU.RESYN & SCTX.FLAGS.TEXP;

  42940  1 023364   200003 470500                    LDP0    @VBLK,,AUTO
         1 023365   000000 471500                    LDP1    0,,PR0
         1 023366   100006 236100                    LDQ     6,,PR1
         1 023367   000027 736000                    QLS     23
         1 023370   400000 376003                    ANQ     -131072,DU
         1 023371   200040 756100                    STQ     ZBLK+8,,AUTO
         1 023372   100006 236100                    LDQ     6,,PR1
         1 023373   000012 736000                    QLS     10
         1 023374   400000 376003                    ANQ     -131072,DU
         1 023375   200040 376100                    ANQ     ZBLK+8,,AUTO
         1 023376   200007 676100                    ERQ     ZPRED+1,,AUTO
         1 023377   400000 376003                    ANQ     -131072,DU
         1 023400   200007 656100                    ERSQ    ZPRED+1,,AUTO

     3702    42941    2       PINV(36) = %FALSE;

  42941  1 023401   000305 236000 2                  LDQ     197
         1 023402   200012 356100                    ANSQ    ZPINV+1,,AUTO

     3703    42942    2       GOTO RET;

  42942  1 023403   022133 710000 1                  TRA     RET

     3704    42943
     3705    42944    2   PRED37: ENTRY ALTRET;

  42944  1 023404   200016 741300       PRED37       STX1  ! CONTINUING+2,,AUTO

     3706    42945
     3707    42946            /* "FU(ACT) & TEXP" */
     3708    42947            /* Events: AD ADA AI AIA */
PL6.E3A0      #001=XSS$MACHINE File=XSS$MACHINE.:XSA1TSI                         WED 10/01/97 12:18 Page:706
     3709    42948    2       PRED(37) = SCTX.FU.ACT & SCTX.FLAGS.TEXP;

  42948  1 023405   200003 470500                    LDP0    @VBLK,,AUTO
         1 023406   000000 471500                    LDP1    0,,PR0
         1 023407   100006 236100                    LDQ     6,,PR1
         1 023410   000027 736000                    QLS     23
         1 023411   400000 376003                    ANQ     -131072,DU
         1 023412   200040 756100                    STQ     ZBLK+8,,AUTO
         1 023413   100006 236100                    LDQ     6,,PR1
         1 023414   000011 736000                    QLS     9
         1 023415   400000 376003                    ANQ     -131072,DU
         1 023416   200040 376100                    ANQ     ZBLK+8,,AUTO
         1 023417   000001 772000                    QRL     1
         1 023420   200007 676100                    ERQ     ZPRED+1,,AUTO
         1 023421   200000 376003                    ANQ     65536,DU
         1 023422   200007 656100                    ERSQ    ZPRED+1,,AUTO

     3710    42949    2       PINV(37) = %FALSE;

  42949  1 023423   000252 236000 2                  LDQ     170
         1 023424   200012 356100                    ANSQ    ZPINV+1,,AUTO

     3711    42950    2       GOTO RET;

  42950  1 023425   022133 710000 1                  TRA     RET

     3712    42951
     3713    42952    2   PRED38: ENTRY ALTRET;

  42952  1 023426   200016 741300       PRED38       STX1  ! CONTINUING+2,,AUTO

     3714    42953
     3715    42954            /* "FU(ACT) & ~TEXP" */
     3716    42955            /* Events: AD ADA AI AIA */
     3717    42956    2       PRED(38) = SCTX.FU.ACT & ~SCTX.FLAGS.TEXP;

  42956  1 023427   200003 470500                    LDP0    @VBLK,,AUTO
PL6.E3A0      #001=XSS$MACHINE File=XSS$MACHINE.:XSA1TSI                         WED 10/01/97 12:18 Page:707
         1 023430   000000 471500                    LDP1    0,,PR0
         1 023431   100006 236100                    LDQ     6,,PR1
         1 023432   000027 736000                    QLS     23
         1 023433   400000 376003                    ANQ     -131072,DU
         1 023434   400000 676003                    ERQ     -131072,DU
         1 023435   200040 756100                    STQ     ZBLK+8,,AUTO
         1 023436   100006 236100                    LDQ     6,,PR1
         1 023437   000011 736000                    QLS     9
         1 023440   400000 376003                    ANQ     -131072,DU
         1 023441   200040 376100                    ANQ     ZBLK+8,,AUTO
         1 023442   000002 772000                    QRL     2
         1 023443   200007 676100                    ERQ     ZPRED+1,,AUTO
         1 023444   100000 376003                    ANQ     32768,DU
         1 023445   200007 656100                    ERSQ    ZPRED+1,,AUTO

     3718    42957    2       PINV(38) = %FALSE;

  42957  1 023446   000253 236000 2                  LDQ     171
         1 023447   200012 356100                    ANSQ    ZPINV+1,,AUTO

     3719    42958    2       GOTO RET;

  42958  1 023450   022133 710000 1                  TRA     RET

     3720    42959
     3721    42960    2   PRED39: ENTRY ALTRET;

  42960  1 023451   200016 741300       PRED39       STX1  ! CONTINUING+2,,AUTO

     3722    42961
     3723    42962            /* "Vact & II(ma)" */
     3724    42963            /* Events: SACDREQ SACIREQ */
     3725    42964    2       PRED(39) = SCTX.FLAGS.VACT & SCTX.II.MA;

  42964  1 023452   200003 470500                    LDP0    @VBLK,,AUTO
         1 023453   000000 471500                    LDP1    0,,PR0
         1 023454   100005 236100                    LDQ     5,,PR1
PL6.E3A0      #001=XSS$MACHINE File=XSS$MACHINE.:XSA1TSI                         WED 10/01/97 12:18 Page:708
         1 023455   000025 736000                    QLS     21
         1 023456   400000 376003                    ANQ     -131072,DU
         1 023457   200040 756100                    STQ     ZBLK+8,,AUTO
         1 023460   100006 236100                    LDQ     6,,PR1
         1 023461   000024 736000                    QLS     20
         1 023462   400000 376003                    ANQ     -131072,DU
         1 023463   200040 376100                    ANQ     ZBLK+8,,AUTO
         1 023464   000003 772000                    QRL     3
         1 023465   200007 676100                    ERQ     ZPRED+1,,AUTO
         1 023466   040000 376003                    ANQ     16384,DU
         1 023467   200007 656100                    ERSQ    ZPRED+1,,AUTO

     3726    42965    2       PINV(39) = %FALSE;

  42965  1 023470   000254 236000 2                  LDQ     172
         1 023471   200012 356100                    ANSQ    ZPINV+1,,AUTO

     3727    42966    2       GOTO RET;

  42966  1 023472   022133 710000 1                  TRA     RET

     3728    42967
     3729    42968    2   PRED40: ENTRY ALTRET;

  42968  1 023473   200016 741300       PRED40       STX1  ! CONTINUING+2,,AUTO

     3730    42969
     3731    42970            /* "AA(ma)" */
     3732    42971            /* Events: AD AI */
     3733    42972    2       PRED(40) = SCTX.AA.MA;

  42972  1 023474   200003 470500                    LDP0    @VBLK,,AUTO
         1 023475   000000 471500                    LDP1    0,,PR0
         1 023476   100005 236100                    LDQ     5,,PR1
         1 023477   000032 736000                    QLS     26
         1 023500   200007 676100                    ERQ     ZPRED+1,,AUTO
         1 023501   020000 376003                    ANQ     8192,DU
PL6.E3A0      #001=XSS$MACHINE File=XSS$MACHINE.:XSA1TSI                         WED 10/01/97 12:18 Page:709
         1 023502   200007 656100                    ERSQ    ZPRED+1,,AUTO

     3734    42973    2       PINV(40) = %FALSE;

  42973  1 023503   000255 236000 2                  LDQ     173
         1 023504   200012 356100                    ANSQ    ZPINV+1,,AUTO

     3735    42974    2       GOTO RET;

  42974  1 023505   022133 710000 1                  TRA     RET

     3736    42975
     3737    42976    2   PRED41: ENTRY ALTRET;

  42976  1 023506   200016 741300       PRED41       STX1  ! CONTINUING+2,,AUTO

     3738    42977
     3739    42978            /* "Vrsp = dsc" */
     3740    42979            /* Events: ADA */
     3741    42980    2       IF SCTX.VRSP = %VRSP_DSC THEN

  42980  1 023507   200003 470500                    LDP0    @VBLK,,AUTO
         1 023510   000000 471500                    LDP1    0,,PR0
         1 023511   100006 236100                    LDQ     6,,PR1
         1 023512   000777 376007                    ANQ     511,DL
         1 023513   000004 116007                    CMPQ    4,DL
         1 023514   023517 601000 1                  TNZ     s:42982

     3742    42981    2           PRED(41) = %TRUE;

  42981  1 023515   010000 236003                    LDQ     4096,DU
         1 023516   200007 256100                    ORSQ    ZPRED+1,,AUTO

     3743    42982    2       PINV(41) = %FALSE;

  42982  1 023517   000256 236000 2                  LDQ     174
         1 023520   200012 356100                    ANSQ    ZPINV+1,,AUTO
PL6.E3A0      #001=XSS$MACHINE File=XSS$MACHINE.:XSA1TSI                         WED 10/01/97 12:18 Page:710

     3744    42983    2       GOTO RET;

  42983  1 023521   022133 710000 1                  TRA     RET

     3745    42984
     3746    42985    2   PRED42: ENTRY ALTRET;

  42985  1 023522   200016 741300       PRED42       STX1  ! CONTINUING+2,,AUTO

     3747    42986
     3748    42987            /* "Vrsp = int" */
     3749    42988            /* Events: AIA */
     3750    42989    2       IF SCTX.VRSP = %VRSP_INT THEN

  42989  1 023523   200003 470500                    LDP0    @VBLK,,AUTO
         1 023524   000000 471500                    LDP1    0,,PR0
         1 023525   100006 236100                    LDQ     6,,PR1
         1 023526   000777 376007                    ANQ     511,DL
         1 023527   000005 116007                    CMPQ    5,DL
         1 023530   023533 601000 1                  TNZ     s:42991

     3751    42990    2           PRED(42) = %TRUE;

  42990  1 023531   004000 236003                    LDQ     2048,DU
         1 023532   200007 256100                    ORSQ    ZPRED+1,,AUTO

     3752    42991    2       PINV(42) = %FALSE;

  42991  1 023533   000257 236000 2                  LDQ     175
         1 023534   200012 356100                    ANSQ    ZPINV+1,,AUTO

     3753    42992    2       GOTO RET;

  42992  1 023535   022133 710000 1                  TRA     RET

     3754    42993
PL6.E3A0      #001=XSS$MACHINE File=XSS$MACHINE.:XSA1TSI                         WED 10/01/97 12:18 Page:711
     3755    42994    2   PRED43: ENTRY ALTRET;

  42994  1 023536   200016 741300       PRED43       STX1  ! CONTINUING+2,,AUTO

     3756    42995
     3757    42996            /* "((Vrsp = r) & (serial number = Vrspnb))
     3758    42997                OR ((Vrsp = a) & (serial number = V(M)))
     3759    42998                OR (Vrsp = s)" */
     3760    42999            /* Events: SRSXRSP */
     3761    43000    3       DO SELECT( SCTX.VRSP);

  43000  1 023537   200003 470500                    LDP0    @VBLK,,AUTO
         1 023540   000000 471500                    LDP1    0,,PR0
         1 023541   100006 236100                    LDQ     6,,PR1
         1 023542   000777 376007                    ANQ     511,DL
         1 023543   000002 116007                    CMPQ    2,DL
         1 023544   023551 602000 1                  TNC     s:43000+10
         1 023545   023554 600000 1                  TZE     s:43002
         1 023546   000003 116007                    CMPQ    3,DL
         1 023547   023574 601000 1                  TNZ     s:43010
         1 023550   023572 710000 1                  TRA     s:43008
         1 023551   000001 116007                    CMPQ    1,DL
         1 023552   023574 601000 1                  TNZ     s:43010
         1 023553   023563 710000 1                  TRA     s:43005

     3762    43001    3           SELECT( %VRSP_R);

     3763    43002    3               IF XSS$GENERIC.SERNUM = SCTX.VRSPNB THEN

  43002  1 023554   200005 473500                    LDP3    SFPT$,,AUTO
         1 023555   300004 236100                    LDQ     4,,PR3
         1 023556   100007 116100                    CMPQ    7,,PR1
         1 023557   023574 601000 1                  TNZ     s:43010

     3764    43003    3                   PRED(43) = %TRUE;

  43003  1 023560   002000 236003                    LDQ     1024,DU
PL6.E3A0      #001=XSS$MACHINE File=XSS$MACHINE.:XSA1TSI                         WED 10/01/97 12:18 Page:712
         1 023561   200007 256100                    ORSQ    ZPRED+1,,AUTO
         1 023562   023574 710000 1                  TRA     s:43010

     3765    43004    3           SELECT( %VRSP_A);

     3766    43005    3               IF XSS$GENERIC.SERNUM = SCTX.VM THEN

  43005  1 023563   200005 473500                    LDP3    SFPT$,,AUTO
         1 023564   300004 236100                    LDQ     4,,PR3
         1 023565   100011 116100                    CMPQ    9,,PR1
         1 023566   023574 601000 1                  TNZ     s:43010

     3767    43006    3                   PRED(43) = %TRUE;

  43006  1 023567   002000 236003                    LDQ     1024,DU
         1 023570   200007 256100                    ORSQ    ZPRED+1,,AUTO
         1 023571   023574 710000 1                  TRA     s:43010

     3768    43007    3           SELECT( %VRSP_S);

     3769    43008    3               PRED(43) = %TRUE;

  43008  1 023572   002000 236003                    LDQ     1024,DU
         1 023573   200007 256100                    ORSQ    ZPRED+1,,AUTO

     3770    43009    3           END;

     3771    43010    2       PINV(43) = %FALSE;

  43010  1 023574   000260 236000 2                  LDQ     176
         1 023575   200012 356100                    ANSQ    ZPINV+1,,AUTO

     3772    43011    2       GOTO RET;

  43011  1 023576   022133 710000 1                  TRA     RET

     3773    43012
PL6.E3A0      #001=XSS$MACHINE File=XSS$MACHINE.:XSA1TSI                         WED 10/01/97 12:18 Page:713
     3774    43013    2   PRED44: ENTRY ALTRET;

  43013  1 023577   200016 741300       PRED44       STX1  ! CONTINUING+2,,AUTO

     3775    43014
     3776    43015            /* "(FU(ACT) & ~Vact) & A(dk) & A(mi) & A(ma)" */
     3777    43016            /* Events: AR AS */
     3778    43017    2       PRED(44) = ( SCTX.FU.ACT & ~SCTX.FLAGS.VACT) &

  43017  1 023600   200003 470500                    LDP0    @VBLK,,AUTO
         1 023601   000000 471500                    LDP1    0,,PR0
         1 023602   100006 236100                    LDQ     6,,PR1
         1 023603   000024 736000                    QLS     20
         1 023604   400000 376003                    ANQ     -131072,DU
         1 023605   400000 676003                    ERQ     -131072,DU
         1 023606   200040 756100                    STQ     ZBLK+8,,AUTO
         1 023607   100006 236100                    LDQ     6,,PR1
         1 023610   000011 736000                    QLS     9
         1 023611   400000 376003                    ANQ     -131072,DU
         1 023612   200040 376100                    ANQ     ZBLK+8,,AUTO
         1 023613   000000 471500                    LDP1    0,,PR0
         1 023614   200041 756100                    STQ     ZBLK+9,,AUTO
         1 023615   100005 236100                    LDQ     5,,PR1
         1 023616   000020 736000                    QLS     16
         1 023617   400000 376003                    ANQ     -131072,DU
         1 023620   200042 756100                    STQ     ZBLK+10,,AUTO
         1 023621   200041 236100                    LDQ     ZBLK+9,,AUTO
         1 023622   200042 376100                    ANQ     ZBLK+10,,AUTO
         1 023623   000000 471500                    LDP1    0,,PR0
         1 023624   200043 756100                    STQ     ZBLK+11,,AUTO
         1 023625   100005 236100                    LDQ     5,,PR1
         1 023626   000016 736000                    QLS     14
         1 023627   400000 376003                    ANQ     -131072,DU
         1 023630   200044 756100                    STQ     ZBLK+12,,AUTO
         1 023631   200043 236100                    LDQ     ZBLK+11,,AUTO
         1 023632   200044 376100                    ANQ     ZBLK+12,,AUTO
         1 023633   000000 471500                    LDP1    0,,PR0
PL6.E3A0      #001=XSS$MACHINE File=XSS$MACHINE.:XSA1TSI                         WED 10/01/97 12:18 Page:714
         1 023634   200045 756100                    STQ     ZBLK+13,,AUTO
         1 023635   100005 236100                    LDQ     5,,PR1
         1 023636   000014 736000                    QLS     12
         1 023637   400000 376003                    ANQ     -131072,DU
         1 023640   200046 756100                    STQ     ZBLK+14,,AUTO
         1 023641   200045 236100                    LDQ     ZBLK+13,,AUTO
         1 023642   200046 376100                    ANQ     ZBLK+14,,AUTO
         1 023643   000010 772000                    QRL     8
         1 023644   200007 676100                    ERQ     ZPRED+1,,AUTO
         1 023645   001000 376003                    ANQ     512,DU
         1 023646   200007 656100                    ERSQ    ZPRED+1,,AUTO

     3779    43018    2                  SCTX.A.DK & SCTX.A.MI & SCTX.A.MA;
     3780    43019    2       PINV(44) = %FALSE;

  43019  1 023647   000261 236000 2                  LDQ     177
         1 023650   200012 356100                    ANSQ    ZPINV+1,,AUTO

     3781    43020    2       GOTO RET;

  43020  1 023651   022133 710000 1                  TRA     RET

     3782    43021
     3783    43022    2   PRED45: ENTRY ALTRET;

  43022  1 023652   200016 741300       PRED45       STX1  ! CONTINUING+2,,AUTO

     3784    43023
     3785    43024            /* "(FU(ACT) & ~Vact) & I(dk) & I(mi) & I(ma)" */
     3786    43025            /* Events: SACRREQ SACSREQ */
     3787    43026    2       PRED(45) = ( SCTX.FU.ACT & ~SCTX.FLAGS.VACT) &

  43026  1 023653   200003 470500                    LDP0    @VBLK,,AUTO
         1 023654   000000 471500                    LDP1    0,,PR0
         1 023655   100006 236100                    LDQ     6,,PR1
         1 023656   000024 736000                    QLS     20
         1 023657   400000 376003                    ANQ     -131072,DU
PL6.E3A0      #001=XSS$MACHINE File=XSS$MACHINE.:XSA1TSI                         WED 10/01/97 12:18 Page:715
         1 023660   400000 676003                    ERQ     -131072,DU
         1 023661   200040 756100                    STQ     ZBLK+8,,AUTO
         1 023662   100006 236100                    LDQ     6,,PR1
         1 023663   000011 736000                    QLS     9
         1 023664   400000 376003                    ANQ     -131072,DU
         1 023665   200040 376100                    ANQ     ZBLK+8,,AUTO
         1 023666   000000 471500                    LDP1    0,,PR0
         1 023667   200041 756100                    STQ     ZBLK+9,,AUTO
         1 023670   100005 236100                    LDQ     5,,PR1
         1 023671   000007 736000                    QLS     7
         1 023672   400000 376003                    ANQ     -131072,DU
         1 023673   200042 756100                    STQ     ZBLK+10,,AUTO
         1 023674   200041 236100                    LDQ     ZBLK+9,,AUTO
         1 023675   200042 376100                    ANQ     ZBLK+10,,AUTO
         1 023676   000000 471500                    LDP1    0,,PR0
         1 023677   200043 756100                    STQ     ZBLK+11,,AUTO
         1 023700   100005 236100                    LDQ     5,,PR1
         1 023701   000005 736000                    QLS     5
         1 023702   400000 376003                    ANQ     -131072,DU
         1 023703   200044 756100                    STQ     ZBLK+12,,AUTO
         1 023704   200043 236100                    LDQ     ZBLK+11,,AUTO
         1 023705   200044 376100                    ANQ     ZBLK+12,,AUTO
         1 023706   000000 471500                    LDP1    0,,PR0
         1 023707   200045 756100                    STQ     ZBLK+13,,AUTO
         1 023710   100005 236100                    LDQ     5,,PR1
         1 023711   000003 736000                    QLS     3
         1 023712   400000 376003                    ANQ     -131072,DU
         1 023713   200046 756100                    STQ     ZBLK+14,,AUTO
         1 023714   200045 236100                    LDQ     ZBLK+13,,AUTO
         1 023715   200046 376100                    ANQ     ZBLK+14,,AUTO
         1 023716   000011 772000                    QRL     9
         1 023717   200007 676100                    ERQ     ZPRED+1,,AUTO
         1 023720   000400 376003                    ANQ     256,DU
         1 023721   200007 656100                    ERSQ    ZPRED+1,,AUTO

     3788    43027    2                  SCTX.I.DK & SCTX.I.MI & SCTX.I.MA;
     3789    43028    2       PINV(45) = %FALSE;
PL6.E3A0      #001=XSS$MACHINE File=XSS$MACHINE.:XSA1TSI                         WED 10/01/97 12:18 Page:716

  43028  1 023722   000262 236000 2                  LDQ     178
         1 023723   200012 356100                    ANSQ    ZPINV+1,,AUTO

     3790    43029    2       GOTO RET;

  43029  1 023724   022133 710000 1                  TRA     RET

     3791    43030
     3792    43031    2   PRED46: ENTRY ALTRET;

  43031  1 023725   200016 741300       PRED46       STX1  ! CONTINUING+2,,AUTO

     3793    43032
     3794    43033            /* "FU(CD) & (FU(ACT) & ~Vact) & A(dk) & A(mi) & ~OWNED(ma)" */
     3795    43034            /* Events: CD */
     3796    43035    2       PRED(46) = SCTX.FU.CD & ( SCTX.FU.ACT & ~SCTX.FLAGS.VACT) &

  43035  1 023726   200003 470500                    LDP0    @VBLK,,AUTO
         1 023727   000000 471500                    LDP1    0,,PR0
         1 023730   100006 236100                    LDQ     6,,PR1
         1 023731   000024 736000                    QLS     20
         1 023732   400000 376003                    ANQ     -131072,DU
         1 023733   400000 676003                    ERQ     -131072,DU
         1 023734   200040 756100                    STQ     ZBLK+8,,AUTO
         1 023735   100006 236100                    LDQ     6,,PR1
         1 023736   000011 736000                    QLS     9
         1 023737   400000 376003                    ANQ     -131072,DU
         1 023740   200040 376100                    ANQ     ZBLK+8,,AUTO
         1 023741   000000 471500                    LDP1    0,,PR0
         1 023742   200041 756100                    STQ     ZBLK+9,,AUTO
         1 023743   100006 236100                    LDQ     6,,PR1
         1 023744   000007 736000                    QLS     7
         1 023745   400000 376003                    ANQ     -131072,DU
         1 023746   200042 756100                    STQ     ZBLK+10,,AUTO
         1 023747   200041 236100                    LDQ     ZBLK+9,,AUTO
         1 023750   200042 376100                    ANQ     ZBLK+10,,AUTO
PL6.E3A0      #001=XSS$MACHINE File=XSS$MACHINE.:XSA1TSI                         WED 10/01/97 12:18 Page:717
         1 023751   000000 471500                    LDP1    0,,PR0
         1 023752   200043 756100                    STQ     ZBLK+11,,AUTO
         1 023753   100005 236100                    LDQ     5,,PR1
         1 023754   000020 736000                    QLS     16
         1 023755   400000 376003                    ANQ     -131072,DU
         1 023756   200044 756100                    STQ     ZBLK+12,,AUTO
         1 023757   200043 236100                    LDQ     ZBLK+11,,AUTO
         1 023760   200044 376100                    ANQ     ZBLK+12,,AUTO
         1 023761   000000 471500                    LDP1    0,,PR0
         1 023762   200045 756100                    STQ     ZBLK+13,,AUTO
         1 023763   100005 236100                    LDQ     5,,PR1
         1 023764   000016 736000                    QLS     14
         1 023765   400000 376003                    ANQ     -131072,DU
         1 023766   200046 756100                    STQ     ZBLK+14,,AUTO
         1 023767   200045 236100                    LDQ     ZBLK+13,,AUTO
         1 023770   200046 376100                    ANQ     ZBLK+14,,AUTO
         1 023771   000000 471500                    LDP1    0,,PR0
         1 023772   200047 756100                    STQ     ZBLK+15,,AUTO
         1 023773   100004 236100                    LDQ     4,,PR1
         1 023774   000036 736000                    QLS     30
         1 023775   400000 376003                    ANQ     -131072,DU
         1 023776   400000 676003                    ERQ     -131072,DU
         1 023777   200047 376100                    ANQ     ZBLK+15,,AUTO
         1 024000   000012 772000                    QRL     10
         1 024001   200007 676100                    ERQ     ZPRED+1,,AUTO
         1 024002   000200 376003                    ANQ     128,DU
         1 024003   200007 656100                    ERSQ    ZPRED+1,,AUTO

     3797    43036    2                  SCTX.A.DK & SCTX.A.MI & ~SCTX.OWNED.MA;
     3798    43037    2       PINV(46) = %FALSE;

  43037  1 024004   000263 236000 2                  LDQ     179
         1 024005   200012 356100                    ANSQ    ZPINV+1,,AUTO

     3799    43038    2       GOTO RET;

  43038  1 024006   022133 710000 1                  TRA     RET
PL6.E3A0      #001=XSS$MACHINE File=XSS$MACHINE.:XSA1TSI                         WED 10/01/97 12:18 Page:718

     3800    43039
     3801    43040    2   PRED47: ENTRY ALTRET;

  43040  1 024007   200016 741300       PRED47       STX1  ! CONTINUING+2,,AUTO

     3802    43041
     3803    43042            /* "FU(CD) & (FU(ACT) & ~Vact) & I(dk) & I(mi) & OWNED(ma)" */
     3804    43043            /* Events: SCADREQ */
     3805    43044    2       PRED(47) = SCTX.FU.CD & ( SCTX.FU.ACT & ~SCTX.FLAGS.VACT) &

  43044  1 024010   200003 470500                    LDP0    @VBLK,,AUTO
         1 024011   000000 471500                    LDP1    0,,PR0
         1 024012   100006 236100                    LDQ     6,,PR1
         1 024013   000024 736000                    QLS     20
         1 024014   400000 376003                    ANQ     -131072,DU
         1 024015   400000 676003                    ERQ     -131072,DU
         1 024016   200040 756100                    STQ     ZBLK+8,,AUTO
         1 024017   100006 236100                    LDQ     6,,PR1
         1 024020   000011 736000                    QLS     9
         1 024021   400000 376003                    ANQ     -131072,DU
         1 024022   200040 376100                    ANQ     ZBLK+8,,AUTO
         1 024023   000000 471500                    LDP1    0,,PR0
         1 024024   200041 756100                    STQ     ZBLK+9,,AUTO
         1 024025   100006 236100                    LDQ     6,,PR1
         1 024026   000007 736000                    QLS     7
         1 024027   400000 376003                    ANQ     -131072,DU
         1 024030   200042 756100                    STQ     ZBLK+10,,AUTO
         1 024031   200041 236100                    LDQ     ZBLK+9,,AUTO
         1 024032   200042 376100                    ANQ     ZBLK+10,,AUTO
         1 024033   000000 471500                    LDP1    0,,PR0
         1 024034   200043 756100                    STQ     ZBLK+11,,AUTO
         1 024035   100005 236100                    LDQ     5,,PR1
         1 024036   000007 736000                    QLS     7
         1 024037   400000 376003                    ANQ     -131072,DU
         1 024040   200044 756100                    STQ     ZBLK+12,,AUTO
         1 024041   200043 236100                    LDQ     ZBLK+11,,AUTO
PL6.E3A0      #001=XSS$MACHINE File=XSS$MACHINE.:XSA1TSI                         WED 10/01/97 12:18 Page:719
         1 024042   200044 376100                    ANQ     ZBLK+12,,AUTO
         1 024043   000000 471500                    LDP1    0,,PR0
         1 024044   200045 756100                    STQ     ZBLK+13,,AUTO
         1 024045   100005 236100                    LDQ     5,,PR1
         1 024046   000005 736000                    QLS     5
         1 024047   400000 376003                    ANQ     -131072,DU
         1 024050   200046 756100                    STQ     ZBLK+14,,AUTO
         1 024051   200045 236100                    LDQ     ZBLK+13,,AUTO
         1 024052   200046 376100                    ANQ     ZBLK+14,,AUTO
         1 024053   000000 471500                    LDP1    0,,PR0
         1 024054   200047 756100                    STQ     ZBLK+15,,AUTO
         1 024055   100004 236100                    LDQ     4,,PR1
         1 024056   000036 736000                    QLS     30
         1 024057   400000 376003                    ANQ     -131072,DU
         1 024060   200050 756100                    STQ     ZBLK+16,,AUTO
         1 024061   200047 236100                    LDQ     ZBLK+15,,AUTO
         1 024062   200050 376100                    ANQ     ZBLK+16,,AUTO
         1 024063   000013 772000                    QRL     11
         1 024064   200007 676100                    ERQ     ZPRED+1,,AUTO
         1 024065   000100 376003                    ANQ     64,DU
         1 024066   200007 656100                    ERSQ    ZPRED+1,,AUTO

     3806    43045    2                 SCTX.I.DK & SCTX.I.MI & SCTX.OWNED.MA;
     3807    43046    2       PINV(47) = %FALSE;

  43046  1 024067   000264 236000 2                  LDQ     180
         1 024070   200012 356100                    ANSQ    ZPINV+1,,AUTO

     3808    43047    2       GOTO RET;

  43047  1 024071   022133 710000 1                  TRA     RET

     3809    43048
     3810    43049    2   PRED48: ENTRY ALTRET;

  43049  1 024072   200016 741300       PRED48       STX1  ! CONTINUING+2,,AUTO

PL6.E3A0      #001=XSS$MACHINE File=XSS$MACHINE.:XSA1TSI                         WED 10/01/97 12:18 Page:720
     3811    43050
     3812    43051            /* "FU(EXCEP) & FU(HD)" */
     3813    43052            /* Events: ED ER */
     3814    43053    2       PRED(48) = SCTX.FU.EXCEP & SCTX.FU.HD;

  43053  1 024073   200003 470500                    LDP0    @VBLK,,AUTO
         1 024074   000000 471500                    LDP1    0,,PR0
         1 024075   100006 236100                    LDQ     6,,PR1
         1 024076   000017 736000                    QLS     15
         1 024077   400000 376003                    ANQ     -131072,DU
         1 024100   200040 756100                    STQ     ZBLK+8,,AUTO
         1 024101   100006 236100                    LDQ     6,,PR1
         1 024102   000006 736000                    QLS     6
         1 024103   400000 376003                    ANQ     -131072,DU
         1 024104   200040 376100                    ANQ     ZBLK+8,,AUTO
         1 024105   000014 772000                    QRL     12
         1 024106   200007 676100                    ERQ     ZPRED+1,,AUTO
         1 024107   000040 376003                    ANQ     32,DU
         1 024110   200007 656100                    ERSQ    ZPRED+1,,AUTO

     3815    43054    2       PINV(48) = %FALSE;

  43054  1 024111   000265 236000 2                  LDQ     181
         1 024112   200012 356100                    ANSQ    ZPINV+1,,AUTO

     3816    43055    2       GOTO RET;

  43055  1 024113   022133 710000 1                  TRA     RET

     3817    43056
     3818    43057    2   PRED49: ENTRY ALTRET;

  43057  1 024114   200016 741300       PRED49       STX1  ! CONTINUING+2,,AUTO

     3819    43058
     3820    43059            /* "((Vrsp = r) & (serial number = Vrspnb))
     3821    43060                OR ((Vrsp = a) & (serial number >= V(M)))
PL6.E3A0      #001=XSS$MACHINE File=XSS$MACHINE.:XSA1TSI                         WED 10/01/97 12:18 Page:721
     3822    43061                OR (Vrsp = s)" */
     3823    43062            /* Events: RA */
     3824    43063    3       DO SELECT( SCTX.VRSP);

  43063  1 024115   200003 470500                    LDP0    @VBLK,,AUTO
         1 024116   000000 471500                    LDP1    0,,PR0
         1 024117   100006 236100                    LDQ     6,,PR1
         1 024120   000777 376007                    ANQ     511,DL
         1 024121   000002 116007                    CMPQ    2,DL
         1 024122   024127 602000 1                  TNC     s:43063+10
         1 024123   024132 600000 1                  TZE     s:43065
         1 024124   000003 116007                    CMPQ    3,DL
         1 024125   024152 601000 1                  TNZ     s:43073
         1 024126   024150 710000 1                  TRA     s:43071
         1 024127   000001 116007                    CMPQ    1,DL
         1 024130   024152 601000 1                  TNZ     s:43073
         1 024131   024141 710000 1                  TRA     s:43068

     3825    43064    3           SELECT( %VRSP_R);

     3826    43065    3               IF XSS$GENERIC.SERNUM = SCTX.VRSPNB THEN

  43065  1 024132   200005 473500                    LDP3    SFPT$,,AUTO
         1 024133   300004 236100                    LDQ     4,,PR3
         1 024134   100007 116100                    CMPQ    7,,PR1
         1 024135   024152 601000 1                  TNZ     s:43073

     3827    43066    3                   PRED(49) = %TRUE;

  43066  1 024136   000020 236003                    LDQ     16,DU
         1 024137   200007 256100                    ORSQ    ZPRED+1,,AUTO
         1 024140   024152 710000 1                  TRA     s:43073

     3828    43067    3           SELECT( %VRSP_A);

     3829    43068    3               IF XSS$GENERIC.SERNUM >= SCTX.VM THEN

PL6.E3A0      #001=XSS$MACHINE File=XSS$MACHINE.:XSA1TSI                         WED 10/01/97 12:18 Page:722
  43068  1 024141   200005 473500                    LDP3    SFPT$,,AUTO
         1 024142   300004 236100                    LDQ     4,,PR3
         1 024143   100011 116100                    CMPQ    9,,PR1
         1 024144   024152 602000 1                  TNC     s:43073

     3830    43069    3                   PRED(49) = %TRUE;

  43069  1 024145   000020 236003                    LDQ     16,DU
         1 024146   200007 256100                    ORSQ    ZPRED+1,,AUTO
         1 024147   024152 710000 1                  TRA     s:43073

     3831    43070    3           SELECT( %VRSP_S);

     3832    43071    3               PRED(49) = %TRUE;

  43071  1 024150   000020 236003                    LDQ     16,DU
         1 024151   200007 256100                    ORSQ    ZPRED+1,,AUTO

     3833    43072    3           END;

     3834    43073    2       PINV(49) = %FALSE;

  43073  1 024152   000266 236000 2                  LDQ     182
         1 024153   200012 356100                    ANSQ    ZPINV+1,,AUTO

     3835    43074    2       GOTO RET;

  43074  1 024154   022133 710000 1                  TRA     RET

     3836    43075
     3837    43076    2   PRED50: ENTRY ALTRET;

  43076  1 024155   200016 741300       PRED50       STX1  ! CONTINUING+2,,AUTO

     3838    43077
     3839    43078            /* "FU(EXCEP) & (~FU(ACT) OR Vact) & AA(dk)" */
     3840    43079            /* Events: ED ER SUERREQ */
PL6.E3A0      #001=XSS$MACHINE File=XSS$MACHINE.:XSA1TSI                         WED 10/01/97 12:18 Page:723
     3841    43080    2       PRED(50) = SCTX.FU.EXCEP & ( ~SCTX.FU.ACT | SCTX.FLAGS.VACT) & SCTX.AA.DK;

  43080  1 024156   200003 470500                    LDP0    @VBLK,,AUTO
         1 024157   000000 471500                    LDP1    0,,PR0
         1 024160   100006 236100                    LDQ     6,,PR1
         1 024161   000011 736000                    QLS     9
         1 024162   400000 376003                    ANQ     -131072,DU
         1 024163   400000 676003                    ERQ     -131072,DU
         1 024164   200040 756100                    STQ     ZBLK+8,,AUTO
         1 024165   100006 236100                    LDQ     6,,PR1
         1 024166   000024 736000                    QLS     20
         1 024167   400000 376003                    ANQ     -131072,DU
         1 024170   200041 756100                    STQ     ZBLK+9,,AUTO
         1 024171   200040 236100                    LDQ     ZBLK+8,,AUTO
         1 024172   200041 276100                    ORQ     ZBLK+9,,AUTO
         1 024173   000000 471500                    LDP1    0,,PR0
         1 024174   200042 756100                    STQ     ZBLK+10,,AUTO
         1 024175   100006 236100                    LDQ     6,,PR1
         1 024176   000006 736000                    QLS     6
         1 024177   400000 376003                    ANQ     -131072,DU
         1 024200   200043 756100                    STQ     ZBLK+11,,AUTO
         1 024201   200042 236100                    LDQ     ZBLK+10,,AUTO
         1 024202   200043 376100                    ANQ     ZBLK+11,,AUTO
         1 024203   000000 471500                    LDP1    0,,PR0
         1 024204   200044 756100                    STQ     ZBLK+12,,AUTO
         1 024205   100005 236100                    LDQ     5,,PR1
         1 024206   000042 736000                    QLS     34
         1 024207   400000 376003                    ANQ     -131072,DU
         1 024210   200045 756100                    STQ     ZBLK+13,,AUTO
         1 024211   200044 236100                    LDQ     ZBLK+12,,AUTO
         1 024212   200045 376100                    ANQ     ZBLK+13,,AUTO
         1 024213   000016 772000                    QRL     14
         1 024214   200007 676100                    ERQ     ZPRED+1,,AUTO
         1 024215   000010 376003                    ANQ     8,DU
         1 024216   200007 656100                    ERSQ    ZPRED+1,,AUTO

     3842    43081    2       PINV(50) = %FALSE;
PL6.E3A0      #001=XSS$MACHINE File=XSS$MACHINE.:XSA1TSI                         WED 10/01/97 12:18 Page:724

  43081  1 024217   000267 236000 2                  LDQ     183
         1 024220   200012 356100                    ANSQ    ZPINV+1,,AUTO

     3843    43082    2       GOTO RET;

  43082  1 024221   022133 710000 1                  TRA     RET

     3844    43083
     3845    43084    2   PRED51: ENTRY ALTRET;

  43084  1 024222   200016 741300       PRED51       STX1  ! CONTINUING+2,,AUTO

     3846    43085
     3847    43086            /* "FU(EXCEP) & (~FU(ACT) OR Vact) & II(dk)" */
     3848    43087            /* Events: ED ER */
     3849    43088    2       PRED(51) = SCTX.FU.EXCEP & ( ~SCTX.FU.ACT | SCTX.FLAGS.VACT) & SCTX.II.DK;

  43088  1 024223   200003 470500                    LDP0    @VBLK,,AUTO
         1 024224   000000 471500                    LDP1    0,,PR0
         1 024225   100006 236100                    LDQ     6,,PR1
         1 024226   000011 736000                    QLS     9
         1 024227   400000 376003                    ANQ     -131072,DU
         1 024230   400000 676003                    ERQ     -131072,DU
         1 024231   200040 756100                    STQ     ZBLK+8,,AUTO
         1 024232   100006 236100                    LDQ     6,,PR1
         1 024233   000024 736000                    QLS     20
         1 024234   400000 376003                    ANQ     -131072,DU
         1 024235   200041 756100                    STQ     ZBLK+9,,AUTO
         1 024236   200040 236100                    LDQ     ZBLK+8,,AUTO
         1 024237   200041 276100                    ORQ     ZBLK+9,,AUTO
         1 024240   000000 471500                    LDP1    0,,PR0
         1 024241   200042 756100                    STQ     ZBLK+10,,AUTO
         1 024242   100006 236100                    LDQ     6,,PR1
         1 024243   000006 736000                    QLS     6
         1 024244   400000 376003                    ANQ     -131072,DU
         1 024245   200043 756100                    STQ     ZBLK+11,,AUTO
PL6.E3A0      #001=XSS$MACHINE File=XSS$MACHINE.:XSA1TSI                         WED 10/01/97 12:18 Page:725
         1 024246   200042 236100                    LDQ     ZBLK+10,,AUTO
         1 024247   200043 376100                    ANQ     ZBLK+11,,AUTO
         1 024250   000000 471500                    LDP1    0,,PR0
         1 024251   200044 756100                    STQ     ZBLK+12,,AUTO
         1 024252   100005 236100                    LDQ     5,,PR1
         1 024253   000031 736000                    QLS     25
         1 024254   400000 376003                    ANQ     -131072,DU
         1 024255   200045 756100                    STQ     ZBLK+13,,AUTO
         1 024256   200044 236100                    LDQ     ZBLK+12,,AUTO
         1 024257   200045 376100                    ANQ     ZBLK+13,,AUTO
         1 024260   000017 772000                    QRL     15
         1 024261   200007 676100                    ERQ     ZPRED+1,,AUTO
         1 024262   000004 376003                    ANQ     4,DU
         1 024263   200007 656100                    ERSQ    ZPRED+1,,AUTO

     3850    43089    2       PINV(51) = %FALSE;

  43089  1 024264   000270 236000 2                  LDQ     184
         1 024265   200012 356100                    ANSQ    ZPINV+1,,AUTO

     3851    43090    2       GOTO RET;

  43090  1 024266   022133 710000 1                  TRA     RET

     3852    43091
     3853    43092    2   PRED52: ENTRY ALTRET;

  43092  1 024267   200016 741300       PRED52       STX1  ! CONTINUING+2,,AUTO

     3854    43093
     3855    43094            /* "FU(EXCEP) & (~FU(ACT) & II(dk)" [sic] */
     3856    43095            /* Events: ED ER */
     3857    43096    2       PRED(52) = SCTX.FU.EXCEP & ~SCTX.FU.ACT & SCTX.II.DK; /*N* can't be */

  43096  1 024270   200003 470500                    LDP0    @VBLK,,AUTO
         1 024271   000000 471500                    LDP1    0,,PR0
         1 024272   100006 236100                    LDQ     6,,PR1
PL6.E3A0      #001=XSS$MACHINE File=XSS$MACHINE.:XSA1TSI                         WED 10/01/97 12:18 Page:726
         1 024273   000011 736000                    QLS     9
         1 024274   400000 376003                    ANQ     -131072,DU
         1 024275   400000 676003                    ERQ     -131072,DU
         1 024276   200040 756100                    STQ     ZBLK+8,,AUTO
         1 024277   100006 236100                    LDQ     6,,PR1
         1 024300   000006 736000                    QLS     6
         1 024301   400000 376003                    ANQ     -131072,DU
         1 024302   200040 376100                    ANQ     ZBLK+8,,AUTO
         1 024303   000000 471500                    LDP1    0,,PR0
         1 024304   200041 756100                    STQ     ZBLK+9,,AUTO
         1 024305   100005 236100                    LDQ     5,,PR1
         1 024306   000031 736000                    QLS     25
         1 024307   400000 376003                    ANQ     -131072,DU
         1 024310   200042 756100                    STQ     ZBLK+10,,AUTO
         1 024311   200041 236100                    LDQ     ZBLK+9,,AUTO
         1 024312   200042 376100                    ANQ     ZBLK+10,,AUTO
         1 024313   000020 772000                    QRL     16
         1 024314   200007 676100                    ERQ     ZPRED+1,,AUTO
         1 024315   000002 376003                    ANQ     2,DU
         1 024316   200007 656100                    ERSQ    ZPRED+1,,AUTO

     3858    43097    2       PINV(52) = %FALSE;

  43097  1 024317   000271 236000 2                  LDQ     185
         1 024320   200012 356100                    ANSQ    ZPINV+1,,AUTO

     3859    43098    2       GOTO ALT;  /*N* until the correct expression is found */

  43098  1 024321   022131 710000 1                  TRA     ALT

     3860    43099
     3861    43100    2   PRED53: ENTRY ALTRET;

  43100  1 024322   200016 741300       PRED53       STX1  ! CONTINUING+2,,AUTO

     3862    43101
     3863    43102            /* "ANY(AV,RT)" */
PL6.E3A0      #001=XSS$MACHINE File=XSS$MACHINE.:XSA1TSI                         WED 10/01/97 12:18 Page:727
     3864    43103            /* Events: PT STKPREQ */
     3865    43104    2       IF %TOKENS ~= %ZROS THEN

  43104  1 024323   200005 470500                    LDP0    SFPT$,,AUTO
         1 024324   000000 236100                    LDQ     0,,PR0
         1 024325   000777 316007                    CANQ    511,DL
         1 024326   024343 600000 1                  TZE     s:43107

     3866    43105    2           IF ( SCTX.AVAIL & %TOKENS) ~= %ZROS THEN

  43105  1 024327   200003 471500                    LDP1    @VBLK,,AUTO
         1 024330   100000 473500                    LDP3    0,,PR1
         1 024331   000000 236100                    LDQ     0,,PR0
         1 024332   000033 736000                    QLS     27
         1 024333   200040 756100                    STQ     ZBLK+8,,AUTO
         1 024334   300004 236100                    LDQ     4,,PR3
         1 024335   000022 736000                    QLS     18
         1 024336   777000 376003                    ANQ     -512,DU
         1 024337   200040 376100                    ANQ     ZBLK+8,,AUTO
         1 024340   024343 600000 1                  TZE     s:43107

     3867    43106    2               PRED(53) = %TRUE;

  43106  1 024341   000001 236003                    LDQ     1,DU
         1 024342   200007 256100                    ORSQ    ZPRED+1,,AUTO

     3868    43107    2       PINV(53) = %FALSE;

  43107  1 024343   000272 236000 2                  LDQ     186
         1 024344   200012 356100                    ANSQ    ZPINV+1,,AUTO

     3869    43108    2       GOTO RET;

  43108  1 024345   022133 710000 1                  TRA     RET

     3870    43109
     3871    43110    2   PRED54: ENTRY ALTRET;
PL6.E3A0      #001=XSS$MACHINE File=XSS$MACHINE.:XSA1TSI                         WED 10/01/97 12:18 Page:728

  43110  1 024346   200016 741300       PRED54       STX1  ! CONTINUING+2,,AUTO

     3872    43111
     3873    43112            /* "ALL(I,GT) & ANY(AV,GT)" */
     3874    43113            /* Events: STKGREQ */
     3875    43114    2       IF ( %TOKENS = %ZROS OR %TOKENS = ( %TOKENS & SCTX.I)) AND

  43114  1 024347   200005 470500                    LDP0    SFPT$,,AUTO
         1 024350   000000 236100                    LDQ     0,,PR0
         1 024351   000777 316007                    CANQ    511,DL
         1 024352   024370 600000 1                  TZE     s:43114+17
         1 024353   200003 471500                    LDP1    @VBLK,,AUTO
         1 024354   100000 473500                    LDP3    0,,PR1
         1 024355   300005 236100                    LDQ     5,,PR3
         1 024356   777000 376003                    ANQ     -512,DU
         1 024357   200040 756100                    STQ     ZBLK+8,,AUTO
         1 024360   000000 236100                    LDQ     0,,PR0
         1 024361   000033 736000                    QLS     27
         1 024362   200040 376100                    ANQ     ZBLK+8,,AUTO
         1 024363   200041 756100                    STQ     ZBLK+9,,AUTO
         1 024364   000100 106500                    CMPC    fill='000'O
         1 024365   000000 600001                    ADSC9   0,,PR0                   cn=3,n=1
         1 024366   200041 000004                    ADSC9   ZBLK+9,,AUTO             cn=0,n=4
         1 024367   024407 601000 1                  TNZ     s:43117
         1 024370   000000 236100                    LDQ     0,,PR0
         1 024371   000777 316007                    CANQ    511,DL
         1 024372   024407 600000 1                  TZE     s:43117
         1 024373   200003 471500                    LDP1    @VBLK,,AUTO
         1 024374   100000 473500                    LDP3    0,,PR1
         1 024375   300004 236100                    LDQ     4,,PR3
         1 024376   000022 736000                    QLS     18
         1 024377   777000 376003                    ANQ     -512,DU
         1 024400   200042 756100                    STQ     ZBLK+10,,AUTO
         1 024401   000000 236100                    LDQ     0,,PR0
         1 024402   000033 736000                    QLS     27
         1 024403   200042 376100                    ANQ     ZBLK+10,,AUTO
PL6.E3A0      #001=XSS$MACHINE File=XSS$MACHINE.:XSA1TSI                         WED 10/01/97 12:18 Page:729
         1 024404   024407 600000 1                  TZE     s:43117

     3876    43115    2               ( %TOKENS ~= %ZROS AND ( %TOKENS & SCTX.AVAIL) ~= %ZROS) THEN
     3877    43116    2           PRED(54) = %TRUE;

  43116  1 024405   400000 236007                    LDQ     -131072,DL
         1 024406   200007 256100                    ORSQ    ZPRED+1,,AUTO

     3878    43117    2       PINV(54) = %FALSE;

  43117  1 024407   000273 236000 2                  LDQ     187
         1 024410   200012 356100                    ANSQ    ZPINV+1,,AUTO

     3879    43118    2       GOTO RET;

  43118  1 024411   022133 710000 1                  TRA     RET

     3880    43119
     3881    43120    2   PRED55: ENTRY ALTRET;

  43120  1 024412   200016 741300       PRED55       STX1  ! CONTINUING+2,,AUTO

     3882    43121
     3883    43122            /* "(FU(ACT) & ~Vact) & ALL(I,tk-dom)" */
     3884    43123            /* Events: SCTGREQ */
     3885    43124    2       IF ( SCTX.FU.ACT & ~SCTX.FLAGS.VACT) AND SCTX.I = %ONES THEN

  43124  1 024413   200003 470500                    LDP0    @VBLK,,AUTO
         1 024414   000000 471500                    LDP1    0,,PR0
         1 024415   100006 236100                    LDQ     6,,PR1
         1 024416   000024 736000                    QLS     20
         1 024417   400000 376003                    ANQ     -131072,DU
         1 024420   400000 676003                    ERQ     -131072,DU
         1 024421   200040 756100                    STQ     ZBLK+8,,AUTO
         1 024422   100006 236100                    LDQ     6,,PR1
         1 024423   000011 736000                    QLS     9
         1 024424   400000 376003                    ANQ     -131072,DU
PL6.E3A0      #001=XSS$MACHINE File=XSS$MACHINE.:XSA1TSI                         WED 10/01/97 12:18 Page:730
         1 024425   200040 376100                    ANQ     ZBLK+8,,AUTO
         1 024426   024436 600000 1                  TZE     s:43126
         1 024427   000000 471500                    LDP1    0,,PR0
         1 024430   100005 236100                    LDQ     5,,PR1
         1 024431   777000 376003                    ANQ     -512,DU
         1 024432   777000 116003                    CMPQ    -512,DU
         1 024433   024436 601000 1                  TNZ     s:43126

     3886    43125    2           PRED(55) = %TRUE;

  43125  1 024434   200000 236007                    LDQ     65536,DL
         1 024435   200007 256100                    ORSQ    ZPRED+1,,AUTO

     3887    43126    2       PINV(55) = %FALSE;

  43126  1 024436   000245 236000 2                  LDQ     165
         1 024437   200012 356100                    ANSQ    ZPINV+1,,AUTO

     3888    43127    2       GOTO RET;

  43127  1 024440   022133 710000 1                  TRA     RET

     3889    43128
     3890    43129    2   PRED56: ENTRY ALTRET;

  43129  1 024441   200016 741300       PRED56       STX1  ! CONTINUING+2,,AUTO

     3891    43130            /* PRED56 is unused */
     3892    43131    2       GOTO ALT;

  43131  1 024442   022131 710000 1                  TRA     ALT

     3893    43132
     3894    43133    2   PRED57: ENTRY ALTRET;

  43133  1 024443   200016 741300       PRED57       STX1  ! CONTINUING+2,,AUTO

PL6.E3A0      #001=XSS$MACHINE File=XSS$MACHINE.:XSA1TSI                         WED 10/01/97 12:18 Page:731
     3895    43134
     3896    43135            /* "ALL(I,GT) & (dk not in GT) & ANY(AV,GT)" */
     3897    43136            /* Events: STKGREQ */
     3898    43137    2       IF ( %TOKENS = %ZROS OR %TOKENS = ( %TOKENS & SCTX.I)) AND ~%TOKENS.DK AND

  43137  1 024444   200005 470500                    LDP0    SFPT$,,AUTO
         1 024445   000000 236100                    LDQ     0,,PR0
         1 024446   000777 316007                    CANQ    511,DL
         1 024447   024465 600000 1                  TZE     s:43137+17
         1 024450   200003 471500                    LDP1    @VBLK,,AUTO
         1 024451   100000 473500                    LDP3    0,,PR1
         1 024452   300005 236100                    LDQ     5,,PR3
         1 024453   777000 376003                    ANQ     -512,DU
         1 024454   200040 756100                    STQ     ZBLK+8,,AUTO
         1 024455   000000 236100                    LDQ     0,,PR0
         1 024456   000033 736000                    QLS     27
         1 024457   200040 376100                    ANQ     ZBLK+8,,AUTO
         1 024460   200041 756100                    STQ     ZBLK+9,,AUTO
         1 024461   000100 106500                    CMPC    fill='000'O
         1 024462   000000 600001                    ADSC9   0,,PR0                   cn=3,n=1
         1 024463   200041 000004                    ADSC9   ZBLK+9,,AUTO             cn=0,n=4
         1 024464   024511 601000 1                  TNZ     s:43140
         1 024465   000000 236100                    LDQ     0,,PR0
         1 024466   000042 736000                    QLS     34
         1 024467   400000 376003                    ANQ     -131072,DU
         1 024470   400000 676003                    ERQ     -131072,DU
         1 024471   024511 600000 1                  TZE     s:43140
         1 024472   000000 236100                    LDQ     0,,PR0
         1 024473   000777 316007                    CANQ    511,DL
         1 024474   024511 600000 1                  TZE     s:43140
         1 024475   200003 471500                    LDP1    @VBLK,,AUTO
         1 024476   100000 473500                    LDP3    0,,PR1
         1 024477   300004 236100                    LDQ     4,,PR3
         1 024500   000022 736000                    QLS     18
         1 024501   777000 376003                    ANQ     -512,DU
         1 024502   200042 756100                    STQ     ZBLK+10,,AUTO
         1 024503   000000 236100                    LDQ     0,,PR0
PL6.E3A0      #001=XSS$MACHINE File=XSS$MACHINE.:XSA1TSI                         WED 10/01/97 12:18 Page:732
         1 024504   000033 736000                    QLS     27
         1 024505   200042 376100                    ANQ     ZBLK+10,,AUTO
         1 024506   024511 600000 1                  TZE     s:43140

     3899    43138    2               ( %TOKENS ~= %ZROS AND ( %TOKENS & SCTX.AVAIL) ~= %ZROS) THEN
     3900    43139    2           PRED(57) = %TRUE;

  43139  1 024507   040000 236007                    LDQ     16384,DL
         1 024510   200007 256100                    ORSQ    ZPRED+1,,AUTO

     3901    43140    2       PINV(57) = %FALSE;

  43140  1 024511   000251 236000 2                  LDQ     169
         1 024512   200012 356100                    ANSQ    ZPINV+1,,AUTO

     3902    43141    2       GOTO RET;

  43141  1 024513   022133 710000 1                  TRA     RET

     3903    43142
     3904    43143    2   PRED58: ENTRY ALTRET;

  43143  1 024514   200016 741300       PRED58       STX1  ! CONTINUING+2,,AUTO

     3905    43144
     3906    43145            /* "ALL(I,GT) & (dk in GT)" */
     3907    43146            /* Events: STKGREQ */
     3908    43147    2       IF ( %TOKENS = %ZROS OR %TOKENS = ( %TOKENS & SCTX.I)) AND %TOKENS.DK THEN

  43147  1 024515   200005 470500                    LDP0    SFPT$,,AUTO
         1 024516   000000 236100                    LDQ     0,,PR0
         1 024517   000777 316007                    CANQ    511,DL
         1 024520   024536 600000 1                  TZE     s:43147+17
         1 024521   200003 471500                    LDP1    @VBLK,,AUTO
         1 024522   100000 473500                    LDP3    0,,PR1
         1 024523   300005 236100                    LDQ     5,,PR3
         1 024524   777000 376003                    ANQ     -512,DU
PL6.E3A0      #001=XSS$MACHINE File=XSS$MACHINE.:XSA1TSI                         WED 10/01/97 12:18 Page:733
         1 024525   200040 756100                    STQ     ZBLK+8,,AUTO
         1 024526   000000 236100                    LDQ     0,,PR0
         1 024527   000033 736000                    QLS     27
         1 024530   200040 376100                    ANQ     ZBLK+8,,AUTO
         1 024531   200041 756100                    STQ     ZBLK+9,,AUTO
         1 024532   000100 106500                    CMPC    fill='000'O
         1 024533   000000 600001                    ADSC9   0,,PR0                   cn=3,n=1
         1 024534   200041 000004                    ADSC9   ZBLK+9,,AUTO             cn=0,n=4
         1 024535   024543 601000 1                  TNZ     s:43149
         1 024536   000000 236100                    LDQ     0,,PR0
         1 024537   000002 316007                    CANQ    2,DL
         1 024540   024543 600000 1                  TZE     s:43149

     3909    43148    2           PRED(58) = %TRUE;

  43148  1 024541   020000 236007                    LDQ     8192,DL
         1 024542   200007 256100                    ORSQ    ZPRED+1,,AUTO

     3910    43149    2       PINV(58) = %FALSE;

  43149  1 024543   000250 236000 2                  LDQ     168
         1 024544   200012 356100                    ANSQ    ZPINV+1,,AUTO

     3911    43150    2       GOTO RET;

  43150  1 024545   022133 710000 1                  TRA     RET

     3912    43151
     3913    43152    2   PRED59: ENTRY ALTRET;

  43152  1 024546   200016 741300       PRED59       STX1  ! CONTINUING+2,,AUTO

     3914    43153
     3915    43154            /* "ALL(A,GT) & ANY(AV,GT)" */
     3916    43155            /* Events: GT */
     3917    43156    2       IF ( %TOKENS = %ZROS OR %TOKENS = ( %TOKENS & SCTX.A)) AND

PL6.E3A0      #001=XSS$MACHINE File=XSS$MACHINE.:XSA1TSI                         WED 10/01/97 12:18 Page:734
  43156  1 024547   200005 470500                    LDP0    SFPT$,,AUTO
         1 024550   000000 236100                    LDQ     0,,PR0
         1 024551   000777 316007                    CANQ    511,DL
         1 024552   024571 600000 1                  TZE     s:43156+18
         1 024553   200003 471500                    LDP1    @VBLK,,AUTO
         1 024554   100000 473500                    LDP3    0,,PR1
         1 024555   300005 236100                    LDQ     5,,PR3
         1 024556   000011 736000                    QLS     9
         1 024557   777000 376003                    ANQ     -512,DU
         1 024560   200040 756100                    STQ     ZBLK+8,,AUTO
         1 024561   000000 236100                    LDQ     0,,PR0
         1 024562   000033 736000                    QLS     27
         1 024563   200040 376100                    ANQ     ZBLK+8,,AUTO
         1 024564   200041 756100                    STQ     ZBLK+9,,AUTO
         1 024565   000100 106500                    CMPC    fill='000'O
         1 024566   000000 600001                    ADSC9   0,,PR0                   cn=3,n=1
         1 024567   200041 000004                    ADSC9   ZBLK+9,,AUTO             cn=0,n=4
         1 024570   024610 601000 1                  TNZ     s:43159
         1 024571   000000 236100                    LDQ     0,,PR0
         1 024572   000777 316007                    CANQ    511,DL
         1 024573   024610 600000 1                  TZE     s:43159
         1 024574   200003 471500                    LDP1    @VBLK,,AUTO
         1 024575   100000 473500                    LDP3    0,,PR1
         1 024576   300004 236100                    LDQ     4,,PR3
         1 024577   000022 736000                    QLS     18
         1 024600   777000 376003                    ANQ     -512,DU
         1 024601   200042 756100                    STQ     ZBLK+10,,AUTO
         1 024602   000000 236100                    LDQ     0,,PR0
         1 024603   000033 736000                    QLS     27
         1 024604   200042 376100                    ANQ     ZBLK+10,,AUTO
         1 024605   024610 600000 1                  TZE     s:43159

     3918    43157    2               ( %TOKENS ~= %ZROS AND ( %TOKENS & SCTX.AVAIL) ~= %ZROS) THEN
     3919    43158    2           PRED(59) = %TRUE;

  43158  1 024606   010000 236007                    LDQ     4096,DL
         1 024607   200007 256100                    ORSQ    ZPRED+1,,AUTO
PL6.E3A0      #001=XSS$MACHINE File=XSS$MACHINE.:XSA1TSI                         WED 10/01/97 12:18 Page:735

     3920    43159    2       PINV(59) = %FALSE;

  43159  1 024610   000274 236000 2                  LDQ     188
         1 024611   200012 356100                    ANSQ    ZPINV+1,,AUTO

     3921    43160    2       GOTO RET;

  43160  1 024612   022133 710000 1                  TRA     RET

     3922    43161
     3923    43162    2   PRED60: ENTRY ALTRET;

  43162  1 024613   200016 741300       PRED60       STX1  ! CONTINUING+2,,AUTO

     3924    43163
     3925    43164            /* "ALL(A,GT) & (dk not in GT) & ANY(AV,GT)" */
     3926    43165            /* Events: GT */
     3927    43166    2       IF ( %TOKENS = %ZROS OR %TOKENS = ( %TOKENS & SCTX.A)) AND ~%TOKENS.DK AND

  43166  1 024614   200005 470500                    LDP0    SFPT$,,AUTO
         1 024615   000000 236100                    LDQ     0,,PR0
         1 024616   000777 316007                    CANQ    511,DL
         1 024617   024636 600000 1                  TZE     s:43166+18
         1 024620   200003 471500                    LDP1    @VBLK,,AUTO
         1 024621   100000 473500                    LDP3    0,,PR1
         1 024622   300005 236100                    LDQ     5,,PR3
         1 024623   000011 736000                    QLS     9
         1 024624   777000 376003                    ANQ     -512,DU
         1 024625   200040 756100                    STQ     ZBLK+8,,AUTO
         1 024626   000000 236100                    LDQ     0,,PR0
         1 024627   000033 736000                    QLS     27
         1 024630   200040 376100                    ANQ     ZBLK+8,,AUTO
         1 024631   200041 756100                    STQ     ZBLK+9,,AUTO
         1 024632   000100 106500                    CMPC    fill='000'O
         1 024633   000000 600001                    ADSC9   0,,PR0                   cn=3,n=1
         1 024634   200041 000004                    ADSC9   ZBLK+9,,AUTO             cn=0,n=4
PL6.E3A0      #001=XSS$MACHINE File=XSS$MACHINE.:XSA1TSI                         WED 10/01/97 12:18 Page:736
         1 024635   024662 601000 1                  TNZ     s:43169
         1 024636   000000 236100                    LDQ     0,,PR0
         1 024637   000042 736000                    QLS     34
         1 024640   400000 376003                    ANQ     -131072,DU
         1 024641   400000 676003                    ERQ     -131072,DU
         1 024642   024662 600000 1                  TZE     s:43169
         1 024643   000000 236100                    LDQ     0,,PR0
         1 024644   000777 316007                    CANQ    511,DL
         1 024645   024662 600000 1                  TZE     s:43169
         1 024646   200003 471500                    LDP1    @VBLK,,AUTO
         1 024647   100000 473500                    LDP3    0,,PR1
         1 024650   300004 236100                    LDQ     4,,PR3
         1 024651   000022 736000                    QLS     18
         1 024652   777000 376003                    ANQ     -512,DU
         1 024653   200042 756100                    STQ     ZBLK+10,,AUTO
         1 024654   000000 236100                    LDQ     0,,PR0
         1 024655   000033 736000                    QLS     27
         1 024656   200042 376100                    ANQ     ZBLK+10,,AUTO
         1 024657   024662 600000 1                  TZE     s:43169

     3928    43167    2               ( %TOKENS ~= %ZROS AND ( %TOKENS & SCTX.AVAIL) ~= %ZROS) THEN
     3929    43168    2           PRED(60) = %TRUE;

  43168  1 024660   004000 236007                    LDQ     2048,DL
         1 024661   200007 256100                    ORSQ    ZPRED+1,,AUTO

     3930    43169    2       PINV(60) = %FALSE;

  43169  1 024662   000244 236000 2                  LDQ     164
         1 024663   200012 356100                    ANSQ    ZPINV+1,,AUTO

     3931    43170    2       GOTO RET;

  43170  1 024664   022133 710000 1                  TRA     RET

     3932    43171
     3933    43172    2   PRED61: ENTRY ALTRET;
PL6.E3A0      #001=XSS$MACHINE File=XSS$MACHINE.:XSA1TSI                         WED 10/01/97 12:18 Page:737

  43172  1 024665   200016 741300       PRED61       STX1  ! CONTINUING+2,,AUTO

     3934    43173
     3935    43174            /* "ALL(A,GT) & (dk in GT)" */
     3936    43175            /* Events: GT */
     3937    43176    2       IF ( %TOKENS = %ZROS OR %TOKENS = ( %TOKENS & SCTX.A)) AND %TOKENS.DK THEN

  43176  1 024666   200005 470500                    LDP0    SFPT$,,AUTO
         1 024667   000000 236100                    LDQ     0,,PR0
         1 024670   000777 316007                    CANQ    511,DL
         1 024671   024710 600000 1                  TZE     s:43176+18
         1 024672   200003 471500                    LDP1    @VBLK,,AUTO
         1 024673   100000 473500                    LDP3    0,,PR1
         1 024674   300005 236100                    LDQ     5,,PR3
         1 024675   000011 736000                    QLS     9
         1 024676   777000 376003                    ANQ     -512,DU
         1 024677   200040 756100                    STQ     ZBLK+8,,AUTO
         1 024700   000000 236100                    LDQ     0,,PR0
         1 024701   000033 736000                    QLS     27
         1 024702   200040 376100                    ANQ     ZBLK+8,,AUTO
         1 024703   200041 756100                    STQ     ZBLK+9,,AUTO
         1 024704   000100 106500                    CMPC    fill='000'O
         1 024705   000000 600001                    ADSC9   0,,PR0                   cn=3,n=1
         1 024706   200041 000004                    ADSC9   ZBLK+9,,AUTO             cn=0,n=4
         1 024707   024715 601000 1                  TNZ     s:43178
         1 024710   000000 236100                    LDQ     0,,PR0
         1 024711   000002 316007                    CANQ    2,DL
         1 024712   024715 600000 1                  TZE     s:43178

     3938    43177    2           PRED(61) = %TRUE;

  43177  1 024713   002000 236007                    LDQ     1024,DL
         1 024714   200007 256100                    ORSQ    ZPRED+1,,AUTO

     3939    43178    2       PINV(61) = %FALSE;

PL6.E3A0      #001=XSS$MACHINE File=XSS$MACHINE.:XSA1TSI                         WED 10/01/97 12:18 Page:738
  43178  1 024715   000242 236000 2                  LDQ     162
         1 024716   200012 356100                    ANSQ    ZPINV+1,,AUTO

     3940    43179    2       GOTO RET;

  43179  1 024717   022133 710000 1                  TRA     RET

     3941    43180
     3942    43181    2   PRED62: ENTRY ALTRET;

  43181  1 024720   200016 741300       PRED62       STX1  ! CONTINUING+2,,AUTO

     3943    43182
     3944    43183            /* "(FU(ACT) & ~Vact) & ALL(A,tk-dom)" */
     3945    43184            /* Events: GTC */
     3946    43185    2       IF ( SCTX.FU.ACT & ~SCTX.FLAGS.VACT) AND SCTX.A = %ONES THEN

  43185  1 024721   200003 470500                    LDP0    @VBLK,,AUTO
         1 024722   000000 471500                    LDP1    0,,PR0
         1 024723   100006 236100                    LDQ     6,,PR1
         1 024724   000024 736000                    QLS     20
         1 024725   400000 376003                    ANQ     -131072,DU
         1 024726   400000 676003                    ERQ     -131072,DU
         1 024727   200040 756100                    STQ     ZBLK+8,,AUTO
         1 024730   100006 236100                    LDQ     6,,PR1
         1 024731   000011 736000                    QLS     9
         1 024732   400000 376003                    ANQ     -131072,DU
         1 024733   200040 376100                    ANQ     ZBLK+8,,AUTO
         1 024734   024744 600000 1                  TZE     s:43187
         1 024735   000000 471500                    LDP1    0,,PR0
         1 024736   100005 236100                    LDQ     5,,PR1
         1 024737   000777 376003                    ANQ     511,DU
         1 024740   000777 116003                    CMPQ    511,DU
         1 024741   024744 601000 1                  TNZ     s:43187

     3947    43186    2           PRED(62) = %TRUE;

PL6.E3A0      #001=XSS$MACHINE File=XSS$MACHINE.:XSA1TSI                         WED 10/01/97 12:18 Page:739
  43186  1 024742   001000 236007                    LDQ     512,DL
         1 024743   200007 256100                    ORSQ    ZPRED+1,,AUTO

     3948    43187    2       PINV(62) = %FALSE;

  43187  1 024744   000247 236000 2                  LDQ     167
         1 024745   200012 356100                    ANSQ    ZPINV+1,,AUTO

     3949    43188    2       GOTO RET;

  43188  1 024746   022133 710000 1                  TRA     RET

     3950    43189
     3951    43190    2   PRED63: ENTRY ALTRET;

  43190  1 024747   200016 741300       PRED63       STX1  ! CONTINUING+2,,AUTO

     3952    43191
     3953    43192            /* "ALL(I,tk-dom) & (~FU(ACT) OR ~Vact)" */
     3954    43193            /* Events: SRELREQ */
     3955    43194    2       IF SCTX.I = %ONES THEN

  43194  1 024750   200003 470500                    LDP0    @VBLK,,AUTO
         1 024751   000000 471500                    LDP1    0,,PR0
         1 024752   100005 236100                    LDQ     5,,PR1
         1 024753   777000 376003                    ANQ     -512,DU
         1 024754   777000 116003                    CMPQ    -512,DU
         1 024755   024774 601000 1                  TNZ     s:43196

     3956    43195    2           PRED(63) = ( ~SCTX.FU.ACT | ~SCTX.FLAGS.VACT);

  43195  1 024756   100006 236100                    LDQ     6,,PR1
         1 024757   000011 736000                    QLS     9
         1 024760   400000 376003                    ANQ     -131072,DU
         1 024761   400000 676003                    ERQ     -131072,DU
         1 024762   200040 756100                    STQ     ZBLK+8,,AUTO
         1 024763   100006 236100                    LDQ     6,,PR1
PL6.E3A0      #001=XSS$MACHINE File=XSS$MACHINE.:XSA1TSI                         WED 10/01/97 12:18 Page:740
         1 024764   000024 736000                    QLS     20
         1 024765   400000 376003                    ANQ     -131072,DU
         1 024766   400000 676003                    ERQ     -131072,DU
         1 024767   200040 276100                    ORQ     ZBLK+8,,AUTO
         1 024770   000033 772000                    QRL     27
         1 024771   200007 676100                    ERQ     ZPRED+1,,AUTO
         1 024772   000400 376007                    ANQ     256,DL
         1 024773   200007 656100                    ERSQ    ZPRED+1,,AUTO

     3957    43196    2       PINV(63) = %FALSE;

  43196  1 024774   000275 236000 2                  LDQ     189
         1 024775   200012 356100                    ANSQ    ZPINV+1,,AUTO

     3958    43197    2       GOTO RET;

  43197  1 024776   022133 710000 1                  TRA     RET

     3959    43198
     3960    43199    2   PRED64: ENTRY ALTRET;

  43199  1 024777   200016 741300       PRED64       STX1  ! CONTINUING+2,,AUTO

     3961    43200
     3962    43201            /* "local choice & ~Vtca & ~TEXP" */
     3963    43202            /* Events: SRELREQ */
     3964    43203            /* p64 always fails */
     3965    43204    2       PRED(64) = '0'B & ~SCTX.FLAGS.VTCA & ~SCTX.FLAGS.TEXP;

  43204  1 025000   200003 470500                    LDP0    @VBLK,,AUTO
         1 025001   000000 471500                    LDP1    0,,PR0
         1 025002   100006 236100                    LDQ     6,,PR1
         1 025003   000031 736000                    QLS     25
         1 025004   400000 376003                    ANQ     -131072,DU
         1 025005   400000 676003                    ERQ     -131072,DU
         1 025006   000022 772000                    QRL     18
         1 025007   000000 620006                    EAX0    0,QL
PL6.E3A0      #001=XSS$MACHINE File=XSS$MACHINE.:XSA1TSI                         WED 10/01/97 12:18 Page:741
         1 025010   000000 360003                    ANX0    0,DU
         1 025011   100006 236100                    LDQ     6,,PR1
         1 025012   000027 736000                    QLS     23
         1 025013   400000 376003                    ANQ     -131072,DU
         1 025014   400000 676003                    ERQ     -131072,DU
         1 025015   200040 756100                    STQ     ZBLK+8,,AUTO
         1 025016   000000 636010                    EAQ     0,X0
         1 025017   200040 376100                    ANQ     ZBLK+8,,AUTO
         1 025020   000034 772000                    QRL     28
         1 025021   200007 676100                    ERQ     ZPRED+1,,AUTO
         1 025022   000200 376007                    ANQ     128,DL
         1 025023   200007 656100                    ERSQ    ZPRED+1,,AUTO

     3966    43205    2       PINV(64) = %FALSE;

  43205  1 025024   000276 236000 2                  LDQ     190
         1 025025   200012 356100                    ANSQ    ZPINV+1,,AUTO

     3967    43206    2       GOTO RET;

  43206  1 025026   022133 710000 1                  TRA     RET

     3968    43207
     3969    43208    2   PRED65: ENTRY ALTRET;

  43208  1 025027   200016 741300       PRED65       STX1  ! CONTINUING+2,,AUTO

     3970    43209
     3971    43210            /* "ANY(AV,tk-dom)" */
     3972    43211            /* Events: FN-nr/r SRELREQ */
     3973    43212    2       PRED(65) = SCTX.AVAIL ~= %ZROS;

  43212  1 025030   200003 470500                    LDP0    @VBLK,,AUTO
         1 025031   000000 471500                    LDP1    0,,PR0
         1 025032   400000 220003                    LDX0    -131072,DU
         1 025033   100004 236100                    LDQ     4,,PR1
         1 025034   777000 316007                    CANQ    -512,DL
PL6.E3A0      #001=XSS$MACHINE File=XSS$MACHINE.:XSA1TSI                         WED 10/01/97 12:18 Page:742
         1 025035   025037 601000 1                  TNZ     s:43212+7
         1 025036   000000 220003                    LDX0    0,DU
         1 025037   000000 636010                    EAQ     0,X0
         1 025040   000035 772000                    QRL     29
         1 025041   200007 676100                    ERQ     ZPRED+1,,AUTO
         1 025042   000100 376007                    ANQ     64,DL
         1 025043   200007 656100                    ERSQ    ZPRED+1,,AUTO

     3974    43213    2       PINV(65) = %FALSE;

  43213  1 025044   000277 236000 2                  LDQ     191
         1 025045   200012 356100                    ANSQ    ZPINV+1,,AUTO

     3975    43214    2       GOTO RET;

  43214  1 025046   022133 710000 1                  TRA     RET

     3976    43215
     3977    43216    2   PRED66: ENTRY ALTRET;

  43216  1 025047   200016 741300       PRED66       STX1  ! CONTINUING+2,,AUTO

     3978    43217
     3979    43218            /* "Vtrr" */
     3980    43219            /* Events: DN SRELRSP+ */
     3981    43220    2       PRED(66) = SCTX.FLAGS.VTRR;

  43220  1 025050   200003 470500                    LDP0    @VBLK,,AUTO
         1 025051   000000 471500                    LDP1    0,,PR0
         1 025052   100006 236100                    LDQ     6,,PR1
         1 025053   000010 772000                    QRL     8
         1 025054   200007 676100                    ERQ     ZPRED+1,,AUTO
         1 025055   000040 376007                    ANQ     32,DL
         1 025056   200007 656100                    ERSQ    ZPRED+1,,AUTO

     3982    43221    2       PINV(66) = %FALSE;

PL6.E3A0      #001=XSS$MACHINE File=XSS$MACHINE.:XSA1TSI                         WED 10/01/97 12:18 Page:743
  43221  1 025057   000300 236000 2                  LDQ     192
         1 025060   200012 356100                    ANSQ    ZPINV+1,,AUTO

     3983    43222    2       GOTO RET;

  43222  1 025061   022133 710000 1                  TRA     RET

     3984    43223
     3985    43224    2   PRED67: ENTRY ALTRET;

  43224  1 025062   200016 741300       PRED67       STX1  ! CONTINUING+2,,AUTO

     3986    43225
     3987    43226            /* "FU(NR)" */
     3988    43227            /* Events: NF SRELRSP- */
     3989    43228    2       PRED(67) = SCTX.FU.NR;

  43228  1 025063   200003 470500                    LDP0    @VBLK,,AUTO
         1 025064   000000 471500                    LDP1    0,,PR0
         1 025065   100006 236100                    LDQ     6,,PR1
         1 025066   000027 772000                    QRL     23
         1 025067   200007 676100                    ERQ     ZPRED+1,,AUTO
         1 025070   000020 376007                    ANQ     16,DL
         1 025071   200007 656100                    ERSQ    ZPRED+1,,AUTO

     3990    43229    2       PINV(67) = %FALSE;

  43229  1 025072   000306 236000 2                  LDQ     198
         1 025073   200012 356100                    ANSQ    ZPINV+1,,AUTO

     3991    43230    2       GOTO RET;

  43230  1 025074   022133 710000 1                  TRA     RET

     3992    43231
     3993    43232    2   PRED68: ENTRY ALTRET;

PL6.E3A0      #001=XSS$MACHINE File=XSS$MACHINE.:XSA1TSI                         WED 10/01/97 12:18 Page:744
  43232  1 025075   200016 741300       PRED68       STX1  ! CONTINUING+2,,AUTO

     3994    43233
     3995    43234            /* "ALL(A,tk-dom) & (~FU(ACT) OR ~Vact)" */
     3996    43235            /* Events: FN-nr/r */
     3997    43236    2       IF SCTX.A = %ONES THEN

  43236  1 025076   200003 470500                    LDP0    @VBLK,,AUTO
         1 025077   000000 471500                    LDP1    0,,PR0
         1 025100   100005 236100                    LDQ     5,,PR1
         1 025101   000777 376003                    ANQ     511,DU
         1 025102   000777 116003                    CMPQ    511,DU
         1 025103   025122 601000 1                  TNZ     s:43238

     3998    43237    2           PRED(68) = ( ~SCTX.FU.ACT | ~SCTX.FLAGS.VACT);

  43237  1 025104   100006 236100                    LDQ     6,,PR1
         1 025105   000011 736000                    QLS     9
         1 025106   400000 376003                    ANQ     -131072,DU
         1 025107   400000 676003                    ERQ     -131072,DU
         1 025110   200040 756100                    STQ     ZBLK+8,,AUTO
         1 025111   100006 236100                    LDQ     6,,PR1
         1 025112   000024 736000                    QLS     20
         1 025113   400000 376003                    ANQ     -131072,DU
         1 025114   400000 676003                    ERQ     -131072,DU
         1 025115   200040 276100                    ORQ     ZBLK+8,,AUTO
         1 025116   000040 772000                    QRL     32
         1 025117   200007 676100                    ERQ     ZPRED+1,,AUTO
         1 025120   000010 376007                    ANQ     8,DL
         1 025121   200007 656100                    ERSQ    ZPRED+1,,AUTO

     3999    43238    2       PINV(68) = %FALSE;

  43238  1 025122   000301 236000 2                  LDQ     193
         1 025123   200012 356100                    ANSQ    ZPINV+1,,AUTO

     4000    43239    2       GOTO RET;
PL6.E3A0      #001=XSS$MACHINE File=XSS$MACHINE.:XSA1TSI                         WED 10/01/97 12:18 Page:745

  43239  1 025124   022133 710000 1                  TRA     RET

     4001    43240
     4002    43241    2   PRED69: ENTRY ALTRET;

  43241  1 025125   200016 741300       PRED69       STX1  ! CONTINUING+2,,AUTO

     4003    43242
     4004    43243            /* "Vcoll" */
     4005    43244            /* Events: DN SRELRSP+ */
     4006    43245    2       PRED(69) = SCTX.FLAGS.VCOLL;

  43245  1 025126   200003 470500                    LDP0    @VBLK,,AUTO
         1 025127   000000 471500                    LDP1    0,,PR0
         1 025130   100006 236100                    LDQ     6,,PR1
         1 025131   000011 772000                    QRL     9
         1 025132   200007 676100                    ERQ     ZPRED+1,,AUTO
         1 025133   000004 376007                    ANQ     4,DL
         1 025134   200007 656100                    ERSQ    ZPRED+1,,AUTO

     4007    43246    2       PINV(69) = %FALSE;

  43246  1 025135   000302 236000 2                  LDQ     194
         1 025136   200012 356100                    ANSQ    ZPINV+1,,AUTO

     4008    43247    2       GOTO RET;

  43247  1 025137   022133 710000 1                  TRA     RET

     4009    43248
     4010    43249    2   PRED70: ENTRY ALTRET;

  43249  1 025140   200016 741300       PRED70       STX1  ! CONTINUING+2,,AUTO

     4011    43250
     4012    43251            /* "FU(FD)" */
PL6.E3A0      #001=XSS$MACHINE File=XSS$MACHINE.:XSA1TSI                         WED 10/01/97 12:18 Page:746
     4013    43252            /* Events: DT SDATREQ */
     4014    43253    2       PRED(70) = SCTX.FU.FD;

  43253  1 025141   200003 470500                    LDP0    @VBLK,,AUTO
         1 025142   000000 471500                    LDP1    0,,PR0
         1 025143   100006 236100                    LDQ     6,,PR1
         1 025144   000024 772000                    QRL     20
         1 025145   200007 676100                    ERQ     ZPRED+1,,AUTO
         1 025146   000002 376007                    ANQ     2,DL
         1 025147   200007 656100                    ERSQ    ZPRED+1,,AUTO

     4015    43254    2       PINV(70) = %FALSE;

  43254  1 025150   000303 236000 2                  LDQ     195
         1 025151   200012 356100                    ANSQ    ZPINV+1,,AUTO

     4016    43255    2       GOTO RET;

  43255  1 025152   022133 710000 1                  TRA     RET

     4017    43256
     4018    43257    2   PRED71: ENTRY ALTRET;

  43257  1 025153   200016 741300       PRED71       STX1  ! CONTINUING+2,,AUTO

     4019    43258
     4020    43259            /* "FU(ACT) & Vact & I(dk) & I(mi) & II(ma)" */
     4021    43260            /* Events: SACEREQ */
     4022    43261    2       PRED(71) = SCTX.FU.ACT & SCTX.FLAGS.VACT &

  43261  1 025154   200003 470500                    LDP0    @VBLK,,AUTO
         1 025155   000000 471500                    LDP1    0,,PR0
         1 025156   100006 236100                    LDQ     6,,PR1
         1 025157   000024 736000                    QLS     20
         1 025160   400000 376003                    ANQ     -131072,DU
         1 025161   200040 756100                    STQ     ZBLK+8,,AUTO
         1 025162   100006 236100                    LDQ     6,,PR1
PL6.E3A0      #001=XSS$MACHINE File=XSS$MACHINE.:XSA1TSI                         WED 10/01/97 12:18 Page:747
         1 025163   000011 736000                    QLS     9
         1 025164   400000 376003                    ANQ     -131072,DU
         1 025165   200040 376100                    ANQ     ZBLK+8,,AUTO
         1 025166   000000 471500                    LDP1    0,,PR0
         1 025167   200041 756100                    STQ     ZBLK+9,,AUTO
         1 025170   100005 236100                    LDQ     5,,PR1
         1 025171   000007 736000                    QLS     7
         1 025172   400000 376003                    ANQ     -131072,DU
         1 025173   200042 756100                    STQ     ZBLK+10,,AUTO
         1 025174   200041 236100                    LDQ     ZBLK+9,,AUTO
         1 025175   200042 376100                    ANQ     ZBLK+10,,AUTO
         1 025176   000000 471500                    LDP1    0,,PR0
         1 025177   200043 756100                    STQ     ZBLK+11,,AUTO
         1 025200   100005 236100                    LDQ     5,,PR1
         1 025201   000005 736000                    QLS     5
         1 025202   400000 376003                    ANQ     -131072,DU
         1 025203   200044 756100                    STQ     ZBLK+12,,AUTO
         1 025204   200043 236100                    LDQ     ZBLK+11,,AUTO
         1 025205   200044 376100                    ANQ     ZBLK+12,,AUTO
         1 025206   000000 471500                    LDP1    0,,PR0
         1 025207   200045 756100                    STQ     ZBLK+13,,AUTO
         1 025210   100005 236100                    LDQ     5,,PR1
         1 025211   000025 736000                    QLS     21
         1 025212   400000 376003                    ANQ     -131072,DU
         1 025213   200046 756100                    STQ     ZBLK+14,,AUTO
         1 025214   200045 236100                    LDQ     ZBLK+13,,AUTO
         1 025215   200046 376100                    ANQ     ZBLK+14,,AUTO
         1 025216   000043 772000                    QRL     35
         1 025217   200007 676100                    ERQ     ZPRED+1,,AUTO
         1 025220   000001 376007                    ANQ     1,DL
         1 025221   200007 656100                    ERSQ    ZPRED+1,,AUTO

     4023    43262    2                  SCTX.I.DK & SCTX.I.MI & SCTX.II.MA;
     4024    43263    2       PINV(71) = %FALSE;

  43263  1 025222   000304 236000 2                  LDQ     196
         1 025223   200012 356100                    ANSQ    ZPINV+1,,AUTO
PL6.E3A0      #001=XSS$MACHINE File=XSS$MACHINE.:XSA1TSI                         WED 10/01/97 12:18 Page:748

     4025    43264    2       GOTO RET;

  43264  1 025224   022133 710000 1                  TRA     RET

     4026    43265
     4027    43266    2   PRED72: ENTRY ALTRET;

  43266  1 025225   200016 741300       PRED72       STX1  ! CONTINUING+2,,AUTO

     4028    43267
     4029    43268            /* "FU(ACT) & Vact & A(dk) & A(mi) & AA(ma)" */
     4030    43269            /* Events: AE */
     4031    43270    2       PRED(72) = SCTX.FU.ACT & SCTX.FLAGS.VACT &

  43270  1 025226   200003 470500                    LDP0    @VBLK,,AUTO
         1 025227   000000 471500                    LDP1    0,,PR0
         1 025230   100006 236100                    LDQ     6,,PR1
         1 025231   000024 736000                    QLS     20
         1 025232   400000 376003                    ANQ     -131072,DU
         1 025233   200040 756100                    STQ     ZBLK+8,,AUTO
         1 025234   100006 236100                    LDQ     6,,PR1
         1 025235   000011 736000                    QLS     9
         1 025236   400000 376003                    ANQ     -131072,DU
         1 025237   200040 376100                    ANQ     ZBLK+8,,AUTO
         1 025240   000000 471500                    LDP1    0,,PR0
         1 025241   200041 756100                    STQ     ZBLK+9,,AUTO
         1 025242   100005 236100                    LDQ     5,,PR1
         1 025243   000020 736000                    QLS     16
         1 025244   400000 376003                    ANQ     -131072,DU
         1 025245   200042 756100                    STQ     ZBLK+10,,AUTO
         1 025246   200041 236100                    LDQ     ZBLK+9,,AUTO
         1 025247   200042 376100                    ANQ     ZBLK+10,,AUTO
         1 025250   000000 471500                    LDP1    0,,PR0
         1 025251   200043 756100                    STQ     ZBLK+11,,AUTO
         1 025252   100005 236100                    LDQ     5,,PR1
         1 025253   000016 736000                    QLS     14
PL6.E3A0      #001=XSS$MACHINE File=XSS$MACHINE.:XSA1TSI                         WED 10/01/97 12:18 Page:749
         1 025254   400000 376003                    ANQ     -131072,DU
         1 025255   200044 756100                    STQ     ZBLK+12,,AUTO
         1 025256   200043 236100                    LDQ     ZBLK+11,,AUTO
         1 025257   200044 376100                    ANQ     ZBLK+12,,AUTO
         1 025260   000000 471500                    LDP1    0,,PR0
         1 025261   200045 756100                    STQ     ZBLK+13,,AUTO
         1 025262   100005 236100                    LDQ     5,,PR1
         1 025263   000036 736000                    QLS     30
         1 025264   400000 376003                    ANQ     -131072,DU
         1 025265   200046 756100                    STQ     ZBLK+14,,AUTO
         1 025266   200045 236100                    LDQ     ZBLK+13,,AUTO
         1 025267   200046 376100                    ANQ     ZBLK+14,,AUTO
         1 025270   200010 676100                    ERQ     ZPRED+2,,AUTO
         1 025271   400000 376003                    ANQ     -131072,DU
         1 025272   200010 656100                    ERSQ    ZPRED+2,,AUTO

     4032    43271    2                  SCTX.A.DK & SCTX.A.MI & SCTX.AA.MA;
     4033    43272    2       PINV(72) = %FALSE;

  43272  1 025273   000305 236000 2                  LDQ     197
         1 025274   200013 356100                    ANSQ    ZPINV+2,,AUTO

     4034    43273    2       GOTO RET;

  43273  1 025275   022133 710000 1                  TRA     RET

     4035    43274
     4036    43275    2   PRED73: ENTRY ALTRET;

  43275  1 025276   200016 741300       PRED73       STX1  ! CONTINUING+2,,AUTO

     4037    43276            /* PRED73 is not defined in the spec */
     4038    43277    2       GOTO ALT;

  43277  1 025277   022131 710000 1                  TRA     ALT

     4039    43278
PL6.E3A0      #001=XSS$MACHINE File=XSS$MACHINE.:XSA1TSI                         WED 10/01/97 12:18 Page:750
     4040    43279    2   PRED74: ENTRY ALTRET;

  43279  1 025300   200016 741300       PRED74       STX1  ! CONTINUING+2,,AUTO

     4041    43280            /* PRED74 is not defined in the spec */
     4042    43281    2       GOTO ALT;

  43281  1 025301   022131 710000 1                  TRA     ALT

     4043    43282
     4044    43283    2   PRED75: ENTRY ALTRET;

  43283  1 025302   200016 741300       PRED75       STX1  ! CONTINUING+2,,AUTO

     4045    43284
     4046    43285            /* "(Vcoll & Vdnr) OR ~Vcoll" */
     4047    43286            /* Events: SRELRSP+ */
     4048    43287    2       PRED(75) = ( SCTX.FLAGS.VCOLL & SCTX.FLAGS.VDNR) | ~SCTX.FLAGS.VCOLL;

  43287  1 025303   200003 470500                    LDP0    @VBLK,,AUTO
         1 025304   000000 471500                    LDP1    0,,PR0
         1 025305   100006 236100                    LDQ     6,,PR1
         1 025306   000032 736000                    QLS     26
         1 025307   400000 376003                    ANQ     -131072,DU
         1 025310   200040 756100                    STQ     ZBLK+8,,AUTO
         1 025311   100006 236100                    LDQ     6,,PR1
         1 025312   000030 736000                    QLS     24
         1 025313   400000 376003                    ANQ     -131072,DU
         1 025314   200040 376100                    ANQ     ZBLK+8,,AUTO
         1 025315   000000 471500                    LDP1    0,,PR0
         1 025316   200041 756100                    STQ     ZBLK+9,,AUTO
         1 025317   100006 236100                    LDQ     6,,PR1
         1 025320   000030 736000                    QLS     24
         1 025321   400000 376003                    ANQ     -131072,DU
         1 025322   400000 676003                    ERQ     -131072,DU
         1 025323   200041 276100                    ORQ     ZBLK+9,,AUTO
         1 025324   000003 772000                    QRL     3
PL6.E3A0      #001=XSS$MACHINE File=XSS$MACHINE.:XSA1TSI                         WED 10/01/97 12:18 Page:751
         1 025325   200010 676100                    ERQ     ZPRED+2,,AUTO
         1 025326   040000 376003                    ANQ     16384,DU
         1 025327   200010 656100                    ERSQ    ZPRED+2,,AUTO

     4049    43288    2       PINV(75) = %FALSE;

  43288  1 025330   000254 236000 2                  LDQ     172
         1 025331   200013 356100                    ANSQ    ZPINV+2,,AUTO

     4050    43289    2       GOTO RET;

  43289  1 025332   022133 710000 1                  TRA     RET

XSS_F$CYCLE
 Sect OctLoc
   0     000   302323 001307                                                    ....

XSS_F$EVNTERR
 Sect OctLoc
   0     001   302323 001337                                                    ....

XSS_F$NOSESS
 Sect OctLoc
   0     002   302323 001437                                                    ....

SEV_TO_FNC
 Sect OctLoc
   0     003   002004 006010   012014 016020   022024 032026   030030 034036    ................
   0     007   060062 040042   042044 046071   072050 052054   056064 066070    02 ""$&9:(*,.468

(unnamed)
 Sect OctLoc
   0     013   123123 040040   113125 040040   105120 040040                    SS  KU  EP

(unnamed)
 Sect OctLoc
   2     000   000002 000000   000013 006000   000001 000000   000000 006000    ................
PL6.E3A0      #001=XSS$MACHINE File=XSS$MACHINE.:XSA1TSI                         WED 10/01/97 12:18 Page:752
   2     004   000000 000777   000000 000064   000005 006000   000000 000077    .......4.......?
   2     010   000007 006000   000000 000001   000011 006000   000000 000131    ...............Y
   2     014   000013 006000   000000 000101   000015 006000   000000 000103    .......A.......C
   2     020   000017 006000   000000 000105   000021 006000   000000 000111    .......E.......I
   2     024   000023 006000   000000 000113   000025 006000   000000 000115    .......K.......M
   2     030   000027 006000   000000 000117   000031 006000   000000 000121    .......O.......Q
   2     034   000033 006000   000000 000123   000035 006000   000000 000127    .......S.......W
   2     040   000037 006000   000000 000147   000041 006000   000000 000135    .......g.!.....]
   2     044   000043 006000   000000 000177   000045 006000   000000 000161    .#.......%.....q
   2     050   000047 006000   000000 000137   000051 006000   000000 000145    .'....._.).....e
   2     054   000053 006000   000000 000141   000055 006000   000000 000125    .+.....a.-.....U
   2     060   000057 006000   000000 000030   000061 006000   000000 000165    ./.......1.....u
   2     064   000063 006000   000000 000107   000065 006000   000000 000163    .3.....G.5.....s
   2     070   000067 006000   000000 000171   000071 006000   000000 000167    .7.....y.9.....w
   2     074   000073 006000   000000 000151   000075 006000   000000 000143    .;.....i.=.....c
   2     100   000077 006000   000000 000155   000101 006000   000000 000133    .?.....m.A.....[
   2     104   000103 006000   000000 000153   000105 006000   000000 000173    .C.....k.E.....{
   2     110   000107 006000   000000 000041   000111 006000   000000 000005    .G.....!.I......
   2     114   000113 006000   000000 000040   000115 006000   000000 000006    .K..... .M......
   2     120   000117 006000   000000 000007   000121 006000   000000 000037    .O.......Q......
   2     124   000123 006000   000000 000010   000125 006000   000000 000011    .S.......U......
   2     130   000127 006000   000000 000012   000131 006000   000000 000013    .W.......Y......
   2     134   000133 006000   000000 000014   000135 006000   000000 000015    .[.......]......
   2     140   000137 006000   000000 000016   000141 006000   000000 000060    ._.......a.....0
   2     144   000143 006000   000000 000017   000145 006000   000000 000004    .c.......e......
   2     150   000147 006000   000000 000044   000151 006000   000000 000045    .g.....$.i.....%
   2     154   000153 006000   000000 000031   000155 006000   000000 000021    .k.......m......
   2     160   000157 006000   000000 000024   000161 006000   000000 000025    .o.......q......
   2     164   000163 006000   000000 000026   000165 006000   000000 000020    .s.......u......
   2     170   000167 006000   000000 000036   000171 006000   000000 000046    .w.......y.....&
   2     174   000173 006000   000000 000047   000175 006000   000000 000050    .{.....'.}.....(
   2     200   000177 006000   000000 000043   000201 006000   000000 000033    .......#........
   2     204   000203 006000   000000 000032   000205 006000   000000 000035    ................
   2     210   000207 006000   000000 000034   000211 006000   000000 000027    ................
   2     214   000213 006000   000000 000042   000215 006000   000000 000051    .......".......)
   2     220   000217 006000   000000 000002   000221 006000   000000 000003    ................
   2     224   000223 006000   000000 000022   000225 006000   000000 000062    ...............2
PL6.E3A0      #001=XSS$MACHINE File=XSS$MACHINE.:XSA1TSI                         WED 10/01/97 12:18 Page:753
   2     230   000227 006000   000000 000157   000231 006000   000001 006000    .......o........
   2     234   000003 000000   000031 400000   000014 006000   000000 000000    ................
   2     240   000002 006000   000015 006000   777777 775777   000015 200000    ................
   2     244   777777 773777   777777 577777   777777 677777   777777 776777    ................
   2     250   777777 757777   777777 737777   577777 777777   677777 777777    ................
   2     254   737777 777777   757777 777777   767777 777777   773777 777777    ................
   2     260   775777 777777   776777 777777   777377 777777   777577 777777    ................
   2     264   777677 777777   777737 777777   777757 777777   777767 777777    ................
   2     270   777773 777777   777775 777777   777776 777777   777777 377777    ................
   2     274   777777 767777   777777 777377   777777 777577   777777 777677    ................
   2     300   777777 777737   777777 777767   777777 777773   777777 777775    ................
   2     304   777777 777776   377777 777777   777777 777757                    ............
     4051    43290
     4052    43291    2       END PRED00;
     4053    43292
     4054    43293    1       END XSS$MACHINE;

PL6.E3A0      #001=XSS$MACHINE File=XSS$MACHINE.:XSA1TSI                         WED 10/01/97 12:18 Page:754
--  Include file information  --

   XSC_PERR_C.:XSA1TOU  is referenced.
   XSS_MACHINE_M.:XSA1TOU  is referenced.
   XSS_INTERNAL_M.:XSA1TOU  is referenced.
   XSS_INTERNAL_E.:XSA1TOU  is referenced.
   XSS_SESSION_M.:XSA1TOU  is referenced.
   XSS_SESSION_E.:XSA1TOU  is referenced.
   K_ADDRESS_M.:LIB_E05  is referenced.
   UM_CP6.:E05OU  is referenced.
      No diagnostics issued in procedure XSS$MACHINE.
PL6.E3A0      #001=XSS$MACHINE File=XSS$MACHINE.:XSA1TSI                         WED 10/01/97 12:18 Page:755

 **** Variables and constants ****

  ****  Section 000 RoData XSS$MACHINE

  ****  Scalars and arrays  ****
OctLoc.c.b A Datatyp(siz) R M Lvl/name                 OctLoc.c.b A Datatyp(siz) R M Lvl/name

     3-0-0/c UBIN(9)     r     1 SEV_TO_FNC(0:31)
     0-0-0/w STRC        r     1 XSS_F$CYCLE                1-0-0/w STRC        r     1 XSS_F$EVNTERR
     2-0-0/w STRC        r     1 XSS_F$NOSESS

  ****  Auto variables  ****

  ****  Scalars and arrays  ****
OctLoc.c.b A Datatyp(siz) R M Lvl/name                 OctLoc.c.b A Datatyp(siz) R M Lvl/name

    21-0-0/w PTR         r     1 @EV#                       3-0-0/w PTR         r     1 @VBLK
    14-0-0/b BIT         r     1 CONTINUING                25-0-0/w PTR         r     1 DBLK$
    24-0-0/h UBIN(18)    r     1 DBLKX                     *0-0-0/w UBIN        r     1 EV#
    22-0-0/w UBIN        r     1 EVENT                      4-0-0/w SBIN        r     1 I
    23-0-0/w SBIN        r     1 LEN                       11-0-0/w BIT         r     1 PINV(0:107)
     6-0-0/w BIT         r     1 PRED(0:107)               27-0-0/w PTR         r     1 SBLK$
    26-0-0/h UBIN(18)    r     1 SBLKX                      5-0-0/w PTR         r     1 SFPT$
    *0-0-0/d STRC(288)   r     1 VBLK                      30-0-0/d STRC(288)   r     1 ZBLK
    11-0-0/w SBIN        r     1 ZPINV(0:2)                 6-0-0/w SBIN        r     1 ZPRED(0:2)

  ****  SYMREF variables  ****

  ****  Scalars and arrays  ****
OctLoc.c.b A Datatyp(siz) R M Lvl/name                 OctLoc.c.b A Datatyp(siz) R M Lvl/name

     0-0-0/w SBIN        r     1 XSS_TRACE

  ****  BASED and DCB variables  ****

  ****  Scalars and arrays  ****
OctLoc.c.b A Datatyp(siz) R M Lvl/name                 OctLoc.c.b A Datatyp(siz) R M Lvl/name
PL6.E3A0      #001=XSS$MACHINE File=XSS$MACHINE.:XSA1TSI                         WED 10/01/97 12:18 Page:756

     0-0-0/w STRC(108)   r     1 B$BLOCK                    0-0-0/c ACHR        r     1 CHUNK
     0-0-0/w STRC(1260)  r     1 SCTX                       0-0-0/d STRC(396)   r     1 XSS$CONNECT
     0-0-0/d STRC(504)   r     1 XSS$GENERIC                0-0-0/d STRC(180)   r     1 XSS$RESYNCHRONIZE


   Procedure XSS$MACHINE requires 10971 words for executable code.
   Procedure XSS$MACHINE requires 42 words of local(AUTO) storage.

    No errors detected in file XSS$MACHINE.:XSA1TSI    .
PL6.E3A0      #001=XSS$MACHINE File=XSS$MACHINE.:XSA1TSI                         WED 10/01/97 12:18 Page:757
          *** CROSS REFERENCE LISTING ***
**     DENOTES     IDENTIFIER DEFINITION
<<                 IDENTIFIER'S VALUE SET
>>                 IDENTIFIER'S VALUE USED
<>                 IDENTIFIER SET AND/OR USED
--                 IDENTIFIER REFERENCED
PL6.E3A0      #001=XSS$MACHINE File=XSS$MACHINE.:XSA1TSI                         WED 10/01/97 12:18 Page:758
          MINI XREF LISTING

ACTION01 IN PROCEDURE ACTION00
     42288**ENTRY   41833--CALL
ACTION02 IN PROCEDURE ACTION00
     42295**ENTRY   32361--CALL
ACTION03 IN PROCEDURE ACTION00
     42302**ENTRY   10012--CALL    10022--CALL    10044--CALL    10101--CALL    10342--CALL    13387--CALL
     41852--CALL
ACTION04 IN PROCEDURE ACTION00
     42309**ENTRY   32637--CALL    34566--CALL    41294--CALL    41450--CALL    41555--CALL
ACTION05 IN PROCEDURE ACTION00
     42316**ENTRY   10635--CALL    32492--CALL
ACTION06 IN PROCEDURE ACTION00
     42374**ENTRY   10642--CALL    11398--CALL    12690--CALL    12946--CALL    13202--CALL    19040--CALL
     19832--CALL    20028--CALL    23580--CALL    24973--CALL    25084--CALL    26922--CALL    27115--CALL
     28693--CALL    28801--CALL    30102--CALL    31424--CALL    35748--CALL    38348--CALL
ACTION07 IN PROCEDURE ACTION00
     42386**ENTRY   34332--CALL
ACTION08 IN PROCEDURE ACTION00
     42393**ENTRY   17341--CALL    17570--CALL    17921--CALL    33809--CALL    34142--CALL
ACTION09 IN PROCEDURE ACTION00
     42400**ENTRY   18535--CALL
ACTION10 IN PROCEDURE ACTION00
     42408**ENTRY   16742--CALL    17184--CALL    22527--CALL    22558--CALL    22901--CALL
ACTION11 IN PROCEDURE ACTION00
     42418**ENTRY   10638--CALL    18676--CALL    18903--CALL    19007--CALL    19171--CALL    23374--CALL
     23576--CALL    32495--CALL    32861--CALL    38886--CALL    40232--CALL    40453--CALL    40557--CALL
ACTION12 IN PROCEDURE ACTION00
     42436**ENTRY   12824--CALL    12940--CALL    13080--CALL    13196--CALL    32064--CALL    32192--CALL
ACTION13 IN PROCEDURE ACTION00
     42443**ENTRY   11924--CALL    20662--CALL    30851--CALL    39121--CALL
ACTION14 IN PROCEDURE ACTION00
     42454**ENTRY   19398--CALL    19600--CALL    19825--CALL    20021--CALL    30884--CALL    39155--CALL
PL6.E3A0      #001=XSS$MACHINE File=XSS$MACHINE.:XSA1TSI                         WED 10/01/97 12:18 Page:759
ACTION16 IN PROCEDURE ACTION00
     42468**ENTRY   10860--CALL    11060--CALL    12152--CALL    12352--CALL    24199--CALL    24320--CALL
     24729--CALL    25080--CALL    25200--CALL    25402--CALL    25815--CALL    26017--CALL    26593--CALL
     27111--CALL    27313--CALL    27597--CALL    27925--CALL    28043--CALL    28449--CALL    28797--CALL
     28914--CALL    29113--CALL    29777--CALL    29895--CALL    30098--CALL    30389--CALL    30592--CALL
     31099--CALL    31217--CALL    31420--CALL    31711--CALL    31914--CALL    35112--CALL    35423--CALL
     35541--CALL    35744--CALL    35950--CALL    36068--CALL    36477--CALL    36682--CALL    36885--CALL
     37173--CALL    37461--CALL    37592--CALL    37903--CALL    38023--CALL    38141--CALL    38344--CALL
     38550--CALL    38753--CALL
ACTION18 IN PROCEDURE ACTION00
     42497**ENTRY   17344--CALL    17924--CALL    33812--CALL
ACTION19 IN PROCEDURE ACTION00
     42504**ENTRY   24193--CALL    24314--CALL    24723--CALL    25074--CALL    25194--CALL    25396--CALL
ACTION22 IN PROCEDURE ACTION00
     42525**ENTRY   19401--CALL    19603--CALL    19828--CALL    20024--CALL    30887--CALL    39158--CALL
ACTION23 IN PROCEDURE ACTION00
     42533**ENTRY   22025--CALL    22223--CALL
ACTION24 IN PROCEDURE ACTION00
     42545**ENTRY   30854--CALL    39124--CALL    39389--CALL
ACTION25 IN PROCEDURE ACTION00
     42557**ENTRY   20886--CALL    21194--CALL    21502--CALL    39601--CALL    39908--CALL
ACTION26 IN PROCEDURE ACTION00
     42564**ENTRY   13083--CALL    13199--CALL    32195--CALL
ACTION27 IN PROCEDURE ACTION00
     42573**ENTRY   12827--CALL    12943--CALL    32067--CALL
ACTION28 IN PROCEDURE ACTION00
     42583**ENTRY   23371--CALL    23573--CALL    38883--CALL
ACTION29 IN PROCEDURE ACTION00
     42597**ENTRY   11195--CALL    11394--CALL    12487--CALL    12686--CALL
ACTION30 IN PROCEDURE ACTION00
     42608**ENTRY   30622--CALL    31944--CALL
ACTION31 IN PROCEDURE ACTION00
     42619**ENTRY   11726--CALL    11927--CALL    20464--CALL    20665--CALL
ACTION32 IN PROCEDURE ACTION00
     42629**ENTRY   14099--CALL
ACTIONERR
PL6.E3A0      #001=XSS$MACHINE File=XSS$MACHINE.:XSA1TSI                         WED 10/01/97 12:18 Page:760
     41919**LABEL   10012--CALLALT 10022--CALLALT 10044--CALLALT 10101--CALLALT 10342--CALLALT 10635--CALLALT
     10638--CALLALT 10642--CALLALT 10860--CALLALT 11060--CALLALT 11195--CALLALT 11394--CALLALT 11398--CALLALT
     11726--CALLALT 11924--CALLALT 11927--CALLALT 12152--CALLALT 12352--CALLALT 12487--CALLALT 12686--CALLALT
     12690--CALLALT 12824--CALLALT 12827--CALLALT 12940--CALLALT 12943--CALLALT 12946--CALLALT 13080--CALLALT
     13083--CALLALT 13196--CALLALT 13199--CALLALT 13202--CALLALT 13387--CALLALT 14099--CALLALT 16742--CALLALT
     17184--CALLALT 17341--CALLALT 17344--CALLALT 17570--CALLALT 17921--CALLALT 17924--CALLALT 18535--CALLALT
     18676--CALLALT 18903--CALLALT 19007--CALLALT 19040--CALLALT 19171--CALLALT 19398--CALLALT 19401--CALLALT
     19600--CALLALT 19603--CALLALT 19825--CALLALT 19828--CALLALT 19832--CALLALT 20021--CALLALT 20024--CALLALT
     20028--CALLALT 20464--CALLALT 20662--CALLALT 20665--CALLALT 20886--CALLALT 21194--CALLALT 21502--CALLALT
     22025--CALLALT 22223--CALLALT 22527--CALLALT 22558--CALLALT 22901--CALLALT 23371--CALLALT 23374--CALLALT
     23573--CALLALT 23576--CALLALT 23580--CALLALT 24193--CALLALT 24199--CALLALT 24314--CALLALT 24320--CALLALT
     24723--CALLALT 24729--CALLALT 24973--CALLALT 25074--CALLALT 25080--CALLALT 25084--CALLALT 25194--CALLALT
     25200--CALLALT 25396--CALLALT 25402--CALLALT 25815--CALLALT 26017--CALLALT 26593--CALLALT 26922--CALLALT
     27111--CALLALT 27115--CALLALT 27313--CALLALT 27597--CALLALT 27925--CALLALT 28043--CALLALT 28449--CALLALT
     28693--CALLALT 28797--CALLALT 28801--CALLALT 28914--CALLALT 29113--CALLALT 29777--CALLALT 29895--CALLALT
     30098--CALLALT 30102--CALLALT 30389--CALLALT 30592--CALLALT 30622--CALLALT 30851--CALLALT 30854--CALLALT
     30884--CALLALT 30887--CALLALT 31099--CALLALT 31217--CALLALT 31420--CALLALT 31424--CALLALT 31711--CALLALT
     31914--CALLALT 31944--CALLALT 32064--CALLALT 32067--CALLALT 32192--CALLALT 32195--CALLALT 32361--CALLALT
     32492--CALLALT 32495--CALLALT 32637--CALLALT 32861--CALLALT 33809--CALLALT 33812--CALLALT 34142--CALLALT
     34332--CALLALT 34566--CALLALT 35112--CALLALT 35423--CALLALT 35541--CALLALT 35744--CALLALT 35748--CALLALT
     35950--CALLALT 36068--CALLALT 36477--CALLALT 36682--CALLALT 36885--CALLALT 37173--CALLALT 37461--CALLALT
     37592--CALLALT 37903--CALLALT 38023--CALLALT 38141--CALLALT 38344--CALLALT 38348--CALLALT 38550--CALLALT
     38753--CALLALT 38883--CALLALT 38886--CALLALT 39121--CALLALT 39124--CALLALT 39155--CALLALT 39158--CALLALT
     39389--CALLALT 39601--CALLALT 39908--CALLALT 40232--CALLALT 40453--CALLALT 40557--CALLALT 41294--CALLALT
     41450--CALLALT 41555--CALLALT 41833--CALLALT 41852--CALLALT
ALT IN PROCEDURE ACTION00
     42284**LABEL   42466--GOTO    42495--GOTO    42516--GOTO    42523--GOTO
ALT IN PROCEDURE PRED00
     42646**LABEL   42828--GOTO    42844--GOTO    42900--GOTO    43098--GOTO    43131--GOTO    43277--GOTO
     43281--GOTO
B$BLOCK.BLKX
      9441**DCL     42202>>ASSIGN
B$BLOCK.BLNKX
      9443**DCL      9444--REDEF
B$BLOCK.DATA
      9445**DCL     42199--ASSIGN
PL6.E3A0      #001=XSS$MACHINE File=XSS$MACHINE.:XSA1TSI                         WED 10/01/97 12:18 Page:761
B$BLOCK.FLNKX
      9442**DCL     42166<<ASSIGN  42183<<ASSIGN  42190<<ASSIGN  42201>>ASSIGN
B$BLOCK.HTEMP
      9444**DCL     42167<<ASSIGN  42191<<ASSIGN  42198>>ASSIGN
BUFERR IN PROCEDURE EVNT
     42248**LABEL   42156--GOTO    42174--GOTO
CHUNK IN PROCEDURE EVNT
     41971**DCL     42162<<ASSIGN  42162>>ASSIGN  42186<<ASSIGN  42186>>ASSIGN  42199<<ASSIGN  42199>>ASSIGN
CONTINUING
      9962**DCL     10114<<ASSIGN  10226<<ASSIGN  10240>>IF      10328<<ASSIGN  10338>>IF      10377<<ASSIGN
     10489<<ASSIGN  10506>>IF      10594<<ASSIGN  10607>>IF      10680<<ASSIGN  10854<<ASSIGN  10867>>IF
     10880<<ASSIGN  11054<<ASSIGN  11067>>IF      11100<<ASSIGN  11189<<ASSIGN  11202>>IF      11214<<ASSIGN
     11388<<ASSIGN  11404>>IF      11440<<ASSIGN  11529<<ASSIGN  11536>>IF      11549<<ASSIGN  11723<<ASSIGN
     11732>>IF      11744<<ASSIGN  11918<<ASSIGN  11934>>IF      11972<<ASSIGN  12146<<ASSIGN  12159>>IF
     12172<<ASSIGN  12346<<ASSIGN  12359>>IF      12392<<ASSIGN  12481<<ASSIGN  12494>>IF      12506<<ASSIGN
     12680<<ASSIGN  12696>>IF      12729<<ASSIGN  12818<<ASSIGN  12833>>IF      12845<<ASSIGN  12934<<ASSIGN
     12952>>IF      12985<<ASSIGN  13074<<ASSIGN  13089>>IF      13101<<ASSIGN  13190<<ASSIGN  13208>>IF
     13241<<ASSIGN  13330<<ASSIGN  13340>>IF      13400<<ASSIGN  13512<<ASSIGN  13526>>IF      13614<<ASSIGN
     13624>>IF      13657<<ASSIGN  13769<<ASSIGN  13786>>IF      13874<<ASSIGN  13884>>IF      13896<<ASSIGN
     14093<<ASSIGN  14105>>IF      14139<<ASSIGN  14313<<ASSIGN  14322>>IF      14337<<ASSIGN  14426<<ASSIGN
     14435>>IF      14453<<ASSIGN  14542<<ASSIGN  14549>>IF      14562<<ASSIGN  14651<<ASSIGN  14660>>IF
     14693<<ASSIGN  14782<<ASSIGN  14792>>IF      14805<<ASSIGN  14979<<ASSIGN  14993>>IF      15189<<ASSIGN
     15199>>IF      15215<<ASSIGN  15304<<ASSIGN  15311>>IF      15323<<ASSIGN  15412<<ASSIGN  15421>>IF
     15433<<ASSIGN  15522<<ASSIGN  15535>>IF      15623<<ASSIGN  15633>>IF      15666<<ASSIGN  15755<<ASSIGN
     15765>>IF      15778<<ASSIGN  15952<<ASSIGN  15966>>IF      16162<<ASSIGN  16172>>IF      16188<<ASSIGN
     16277<<ASSIGN  16284>>IF      16296<<ASSIGN  16385<<ASSIGN  16394>>IF      16406<<ASSIGN  16495<<ASSIGN
     16505>>IF      16517<<ASSIGN  16606<<ASSIGN  16619>>IF      16707<<ASSIGN  16717>>IF      16754<<ASSIGN
     16843<<ASSIGN  16852>>IF      16868<<ASSIGN  16957<<ASSIGN  16966>>IF      16982<<ASSIGN  17071<<ASSIGN
     17078>>IF      17092<<ASSIGN  17181<<ASSIGN  17190>>IF      17223<<ASSIGN  17335<<ASSIGN  17351>>IF
     17367<<ASSIGN  17456<<ASSIGN  17463>>IF      17475<<ASSIGN  17564<<ASSIGN  17577>>IF      17610<<ASSIGN
     17915<<ASSIGN  17931>>IF      17946<<ASSIGN  18228<<ASSIGN  18235>>IF      18247<<ASSIGN  18529<<ASSIGN
     18542>>IF      18581<<ASSIGN  18670<<ASSIGN  18682>>IF      18699<<ASSIGN  18788<<ASSIGN  18795>>IF
     18808<<ASSIGN  18897<<ASSIGN  18913>>IF      19001<<ASSIGN  19014>>IF      19073<<ASSIGN  19162<<ASSIGN
     19177>>IF      19218<<ASSIGN  19392<<ASSIGN  19408>>IF      19420<<ASSIGN  19594<<ASSIGN  19610>>IF
     19622<<ASSIGN  19819<<ASSIGN  19842>>IF      20015<<ASSIGN  20034>>IF      20046<<ASSIGN  20135<<ASSIGN
     20142>>IF      20178<<ASSIGN  20267<<ASSIGN  20274>>IF      20287<<ASSIGN  20461<<ASSIGN  20470>>IF
PL6.E3A0      #001=XSS$MACHINE File=XSS$MACHINE.:XSA1TSI                         WED 10/01/97 12:18 Page:762
     20482<<ASSIGN  20656<<ASSIGN  20672>>IF      20706<<ASSIGN  20880<<ASSIGN  20892>>IF      20906<<ASSIGN
     21188<<ASSIGN  21200>>IF      21217<<ASSIGN  21306<<ASSIGN  21313>>IF      21325<<ASSIGN  21499<<ASSIGN
     21508>>IF      21520<<ASSIGN  21694<<ASSIGN  21701>>IF      21739<<ASSIGN  21828<<ASSIGN  21835>>IF
     21848<<ASSIGN  22022<<ASSIGN  22031>>IF      22043<<ASSIGN  22217<<ASSIGN  22229>>IF      22262<<ASSIGN
     22351<<ASSIGN  22361>>IF      22373<<ASSIGN  22462<<ASSIGN  22471>>IF      22570<<ASSIGN  22659<<ASSIGN
     22666>>IF      22687<<ASSIGN  22776<<ASSIGN  22787>>IF      22898<<ASSIGN  22907>>IF      22945<<ASSIGN
     23034<<ASSIGN  23043>>IF      23062<<ASSIGN  23151<<ASSIGN  23158>>IF      23191<<ASSIGN  23365<<ASSIGN
     23381>>IF      23393<<ASSIGN  23567<<ASSIGN  23586>>IF      23648<<ASSIGN  23760<<ASSIGN  23777>>IF
     23865<<ASSIGN  23875>>IF      23908<<ASSIGN  24190<<ASSIGN  24206>>IF      24222<<ASSIGN  24311<<ASSIGN
     24327>>IF      24339<<ASSIGN  24536<<ASSIGN  24547>>IF      24720<<ASSIGN  24736>>IF      24749<<ASSIGN
     24838<<ASSIGN  24845>>IF      24857<<ASSIGN  24969<<ASSIGN  24983>>IF      25071<<ASSIGN  25090>>IF
     25102<<ASSIGN  25191<<ASSIGN  25207>>IF      25219<<ASSIGN  25393<<ASSIGN  25409>>IF      25442<<ASSIGN
     25809<<ASSIGN  25822>>IF      25837<<ASSIGN  26011<<ASSIGN  26024>>IF      26036<<ASSIGN  26318<<ASSIGN
     26329>>IF      26587<<ASSIGN  26600>>IF      26613<<ASSIGN  26702<<ASSIGN  26709>>IF      26721<<ASSIGN
     26918<<ASSIGN  26932>>IF      27105<<ASSIGN  27121>>IF      27133<<ASSIGN  27307<<ASSIGN  27320>>IF
     27332<<ASSIGN  27591<<ASSIGN  27604>>IF      27637<<ASSIGN  27919<<ASSIGN  27932>>IF      27948<<ASSIGN
     28037<<ASSIGN  28050>>IF      28062<<ASSIGN  28259<<ASSIGN  28270>>IF      28443<<ASSIGN  28456>>IF
     28469<<ASSIGN  28558<<ASSIGN  28565>>IF      28577<<ASSIGN  28689<<ASSIGN  28703>>IF      28791<<ASSIGN
     28807>>IF      28819<<ASSIGN  28908<<ASSIGN  28921>>IF      28933<<ASSIGN  29107<<ASSIGN  29120>>IF
     29153<<ASSIGN  29327<<ASSIGN  29336>>IF      29353<<ASSIGN  29442<<ASSIGN  29451>>IF      29470<<ASSIGN
     29559<<ASSIGN  29566>>IF      29593<<ASSIGN  29767<<ASSIGN  29784>>IF      29796<<ASSIGN  29885<<ASSIGN
     29902>>IF      29914<<ASSIGN  30088<<ASSIGN  30108>>IF      30120<<ASSIGN  30379<<ASSIGN  30396>>IF
     30408<<ASSIGN  30582<<ASSIGN  30599>>IF      30648<<ASSIGN  30737<<ASSIGN  30744>>IF      30756<<ASSIGN
     30845<<ASSIGN  30861>>IF      30915<<ASSIGN  31089<<ASSIGN  31106>>IF      31118<<ASSIGN  31207<<ASSIGN
     31224>>IF      31236<<ASSIGN  31410<<ASSIGN  31430>>IF      31442<<ASSIGN  31701<<ASSIGN  31718>>IF
     31730<<ASSIGN  31904<<ASSIGN  31921>>IF      31969<<ASSIGN  32058<<ASSIGN  32073>>IF      32097<<ASSIGN
     32186<<ASSIGN  32201>>IF      32225<<ASSIGN  32314<<ASSIGN  32324>>IF      32374<<ASSIGN  32463<<ASSIGN
     32473>>IF      32519<<ASSIGN  32631<<ASSIGN  32648>>IF      32736<<ASSIGN  32746>>IF      32766<<ASSIGN
     32855<<ASSIGN  32868>>IF      32893<<ASSIGN  32982<<ASSIGN  32991>>IF      33005<<ASSIGN  33094<<ASSIGN
     33103>>IF      33115<<ASSIGN  33204<<ASSIGN  33211>>IF      33223<<ASSIGN  33312<<ASSIGN  33321>>IF
     33346<<ASSIGN  33435<<ASSIGN  33444>>IF      33459<<ASSIGN  33548<<ASSIGN  33557>>IF      33569<<ASSIGN
     33658<<ASSIGN  33665>>IF      33691<<ASSIGN  33803<<ASSIGN  33819>>IF      33831<<ASSIGN  33920<<ASSIGN
     33927>>IF      33939<<ASSIGN  34136<<ASSIGN  34153>>IF      34326<<ASSIGN  34339>>IF      34363<<ASSIGN
     34560<<ASSIGN  34577>>IF      34665<<ASSIGN  34679>>IF      34852<<ASSIGN  34862>>IF      34886<<ASSIGN
     34975<<ASSIGN  34985>>IF      35013<<ASSIGN  35102<<ASSIGN  35119>>IF      35131<<ASSIGN  35413<<ASSIGN
     35430>>IF      35442<<ASSIGN  35531<<ASSIGN  35548>>IF      35560<<ASSIGN  35734<<ASSIGN  35754>>IF
PL6.E3A0      #001=XSS$MACHINE File=XSS$MACHINE.:XSA1TSI                         WED 10/01/97 12:18 Page:763
     35766<<ASSIGN  35940<<ASSIGN  35957>>IF      35969<<ASSIGN  36058<<ASSIGN  36075>>IF      36100<<ASSIGN
     36467<<ASSIGN  36484>>IF      36498<<ASSIGN  36672<<ASSIGN  36689>>IF      36701<<ASSIGN  36875<<ASSIGN
     36892>>IF      36904<<ASSIGN  37163<<ASSIGN  37180>>IF      37192<<ASSIGN  37451<<ASSIGN  37468>>IF
     37493<<ASSIGN  37582<<ASSIGN  37599>>IF      37611<<ASSIGN  37893<<ASSIGN  37910>>IF      37924<<ASSIGN
     38013<<ASSIGN  38030>>IF      38042<<ASSIGN  38131<<ASSIGN  38148>>IF      38160<<ASSIGN  38334<<ASSIGN
     38354>>IF      38366<<ASSIGN  38540<<ASSIGN  38557>>IF      38569<<ASSIGN  38743<<ASSIGN  38760>>IF
     38784<<ASSIGN  38873<<ASSIGN  38893>>IF      38918<<ASSIGN  39007<<ASSIGN  39014>>IF      39026<<ASSIGN
     39115<<ASSIGN  39131>>IF      39186<<ASSIGN  39275<<ASSIGN  39282>>IF      39294<<ASSIGN  39383<<ASSIGN
     39395>>IF      39421<<ASSIGN  39595<<ASSIGN  39607>>IF      39620<<ASSIGN  39902<<ASSIGN  39914>>IF
     39926<<ASSIGN  40100<<ASSIGN  40107>>IF      40137<<ASSIGN  40226<<ASSIGN  40238>>IF      40250<<ASSIGN
     40339<<ASSIGN  40346>>IF      40358<<ASSIGN  40447<<ASSIGN  40463>>IF      40551<<ASSIGN  40564>>IF
     40593<<ASSIGN  40682<<ASSIGN  40691>>IF      40703<<ASSIGN  40792<<ASSIGN  40799>>IF      40824<<ASSIGN
     40913<<ASSIGN  40922>>IF      40937<<ASSIGN  41026<<ASSIGN  41035>>IF      41047<<ASSIGN  41136<<ASSIGN
     41143>>IF      41176<<ASSIGN  41288<<ASSIGN  41301>>IF      41332<<ASSIGN  41444<<ASSIGN  41461>>IF
     41549<<ASSIGN  41562>>IF      41590<<ASSIGN  41679<<ASSIGN  41689>>IF      41701<<ASSIGN  41790<<ASSIGN
     41797>>IF      41950<<ASSIGN  41952>>IF
DBLK$ IN PROCEDURE EVNT
     41976**DCL     42159<>CALL    42162>>ASSIGN  42165<>CALL    42166>>ASSIGN  42167>>ASSIGN  42177<>CALL
     42186>>ASSIGN  42189<>CALL    42190>>ASSIGN  42191>>ASSIGN  42195<>CALL    42199>>ASSIGN  42200<<ASSIGN
     42200>>ASSIGN
DBLKX IN PROCEDURE EVNT
     41975**DCL     42147<<ASSIGN  42159<>CALL    42160>>ASSIGN  42165<>CALL    42177<>CALL    42183>>ASSIGN
     42184>>ASSIGN  42189<>CALL    42195<>CALL    42208<>CALL    42231>>IF      42233<>CALL
DONE
     41937**LABEL   41919--GOTO
EV# IN PROCEDURE EVNT
     41973**DCL     41969--PROC    42120>>ASSIGN
EVENT IN PROCEDURE EVNT
     41972**DCL     42120<<ASSIGN  42121>>IF      42123>>IF      42123>>IF      42125>>IF      42129>>ASSIGN
     42132>>IF      42139>>IF      42142<<ASSIGN  42144<<ASSIGN  42148>>IF      42216>>IF      42218>>ASSIGN
     42239>>CALL    42241>>ASSIGN
EVNT
     41969**PROC    10017--CALL    10025--CALL    10047--CALL    10052--CALL    10080--CALL    10083--CALL
     10229--CALL    10331--CALL    10345--CALL    10492--CALL    10495--CALL    10597--CALL    10600--CALL
     10627--CALL    10632--CALL    10662--CALL    10857--CALL    11057--CALL    11087--CALL    11192--CALL
     11391--CALL    11424--CALL    11921--CALL    11954--CALL    12149--CALL    12349--CALL    12379--CALL
PL6.E3A0      #001=XSS$MACHINE File=XSS$MACHINE.:XSA1TSI                         WED 10/01/97 12:18 Page:764
     12484--CALL    12683--CALL    12716--CALL    12821--CALL    12937--CALL    12972--CALL    13077--CALL
     13193--CALL    13228--CALL    13333--CALL    13360--CALL    13365--CALL    13384--CALL    13515--CALL
     13617--CALL    13644--CALL    13772--CALL    13775--CALL    13877--CALL    14096--CALL    14126--CALL
     14316--CALL    14429--CALL    14654--CALL    14680--CALL    14785--CALL    14982--CALL    15192--CALL
     15415--CALL    15525--CALL    15626--CALL    15653--CALL    15758--CALL    15955--CALL    16165--CALL
     16388--CALL    16498--CALL    16609--CALL    16710--CALL    16737--CALL    16846--CALL    16960--CALL
     17210--CALL    17338--CALL    17567--CALL    17597--CALL    17918--CALL    18532--CALL    18562--CALL
     18673--CALL    18900--CALL    19004--CALL    19034--CALL    19060--CALL    19165--CALL    19168--CALL
     19205--CALL    19395--CALL    19597--CALL    19822--CALL    20018--CALL    20162--CALL    20659--CALL
     20692--CALL    20883--CALL    21191--CALL    21721--CALL    22220--CALL    22249--CALL    22354--CALL
     22465--CALL    22494--CALL    22518--CALL    22549--CALL    22926--CALL    23037--CALL    23178--CALL
     23368--CALL    23570--CALL    23606--CALL    23611--CALL    23614--CALL    23635--CALL    23763--CALL
     23766--CALL    23868--CALL    23895--CALL    24196--CALL    24317--CALL    24726--CALL    25077--CALL
     25197--CALL    25399--CALL    25429--CALL    25812--CALL    26014--CALL    26590--CALL    27108--CALL
     27310--CALL    27594--CALL    27624--CALL    27922--CALL    28040--CALL    28446--CALL    28794--CALL
     28911--CALL    29110--CALL    29140--CALL    29330--CALL    29445--CALL    29771--CALL    29774--CALL
     29889--CALL    29892--CALL    30092--CALL    30095--CALL    30383--CALL    30386--CALL    30586--CALL
     30589--CALL    30616--CALL    30619--CALL    30848--CALL    30878--CALL    30881--CALL    31093--CALL
     31096--CALL    31211--CALL    31214--CALL    31414--CALL    31417--CALL    31705--CALL    31708--CALL
     31908--CALL    31911--CALL    31938--CALL    31941--CALL    32061--CALL    32189--CALL    32317--CALL
     32340--CALL    32358--CALL    32466--CALL    32489--CALL    32634--CALL    32739--CALL    32858--CALL
     32985--CALL    33097--CALL    33315--CALL    33438--CALL    33551--CALL    33806--CALL    34139--CALL
     34329--CALL    34563--CALL    34668--CALL    34855--CALL    34978--CALL    35106--CALL    35109--CALL
     35417--CALL    35420--CALL    35535--CALL    35538--CALL    35738--CALL    35741--CALL    35944--CALL
     35947--CALL    36062--CALL    36065--CALL    36471--CALL    36474--CALL    36676--CALL    36679--CALL
     36879--CALL    36882--CALL    37167--CALL    37170--CALL    37455--CALL    37458--CALL    37586--CALL
     37589--CALL    37897--CALL    37900--CALL    38017--CALL    38020--CALL    38135--CALL    38138--CALL
     38338--CALL    38341--CALL    38544--CALL    38547--CALL    38747--CALL    38750--CALL    38877--CALL
     38880--CALL    39118--CALL    39149--CALL    39152--CALL    39386--CALL    39598--CALL    39905--CALL
     40229--CALL    40450--CALL    40554--CALL    40685--CALL    40916--CALL    41029--CALL    41160--CALL
     41291--CALL    41447--CALL    41552--CALL    41682--CALL    41813--CALL    41830--CALL    41883--CALL
     41902--CALL    41942--CALL    41943--CALL    42380--CALL
EVNTERR
     41919**LABEL   10017--CALLALT 10025--CALLALT 10047--CALLALT 10052--CALLALT 10080--CALLALT 10083--CALLALT
     10229--CALLALT 10331--CALLALT 10345--CALLALT 10492--CALLALT 10495--CALLALT 10597--CALLALT 10600--CALLALT
     10627--CALLALT 10632--CALLALT 10662--CALLALT 10857--CALLALT 11057--CALLALT 11087--CALLALT 11192--CALLALT
PL6.E3A0      #001=XSS$MACHINE File=XSS$MACHINE.:XSA1TSI                         WED 10/01/97 12:18 Page:765
     11391--CALLALT 11424--CALLALT 11921--CALLALT 11954--CALLALT 12149--CALLALT 12349--CALLALT 12379--CALLALT
     12484--CALLALT 12683--CALLALT 12716--CALLALT 12821--CALLALT 12937--CALLALT 12972--CALLALT 13077--CALLALT
     13193--CALLALT 13228--CALLALT 13333--CALLALT 13360--CALLALT 13365--CALLALT 13384--CALLALT 13515--CALLALT
     13617--CALLALT 13644--CALLALT 13772--CALLALT 13775--CALLALT 13877--CALLALT 14096--CALLALT 14126--CALLALT
     14316--CALLALT 14429--CALLALT 14654--CALLALT 14680--CALLALT 14785--CALLALT 14982--CALLALT 15192--CALLALT
     15415--CALLALT 15525--CALLALT 15626--CALLALT 15653--CALLALT 15758--CALLALT 15955--CALLALT 16165--CALLALT
     16388--CALLALT 16498--CALLALT 16609--CALLALT 16710--CALLALT 16737--CALLALT 16846--CALLALT 16960--CALLALT
     17210--CALLALT 17338--CALLALT 17567--CALLALT 17597--CALLALT 17918--CALLALT 18532--CALLALT 18562--CALLALT
     18673--CALLALT 18900--CALLALT 19004--CALLALT 19034--CALLALT 19060--CALLALT 19165--CALLALT 19168--CALLALT
     19205--CALLALT 19395--CALLALT 19597--CALLALT 19822--CALLALT 20018--CALLALT 20162--CALLALT 20659--CALLALT
     20692--CALLALT 20883--CALLALT 21191--CALLALT 21721--CALLALT 22220--CALLALT 22249--CALLALT 22354--CALLALT
     22465--CALLALT 22494--CALLALT 22518--CALLALT 22549--CALLALT 22926--CALLALT 23037--CALLALT 23178--CALLALT
     23368--CALLALT 23570--CALLALT 23606--CALLALT 23611--CALLALT 23614--CALLALT 23635--CALLALT 23763--CALLALT
     23766--CALLALT 23868--CALLALT 23895--CALLALT 24196--CALLALT 24317--CALLALT 24726--CALLALT 25077--CALLALT
     25197--CALLALT 25399--CALLALT 25429--CALLALT 25812--CALLALT 26014--CALLALT 26590--CALLALT 27108--CALLALT
     27310--CALLALT 27594--CALLALT 27624--CALLALT 27922--CALLALT 28040--CALLALT 28446--CALLALT 28794--CALLALT
     28911--CALLALT 29110--CALLALT 29140--CALLALT 29330--CALLALT 29445--CALLALT 29771--CALLALT 29774--CALLALT
     29889--CALLALT 29892--CALLALT 30092--CALLALT 30095--CALLALT 30383--CALLALT 30386--CALLALT 30586--CALLALT
     30589--CALLALT 30616--CALLALT 30619--CALLALT 30848--CALLALT 30878--CALLALT 30881--CALLALT 31093--CALLALT
     31096--CALLALT 31211--CALLALT 31214--CALLALT 31414--CALLALT 31417--CALLALT 31705--CALLALT 31708--CALLALT
     31908--CALLALT 31911--CALLALT 31938--CALLALT 31941--CALLALT 32061--CALLALT 32189--CALLALT 32317--CALLALT
     32340--CALLALT 32358--CALLALT 32466--CALLALT 32489--CALLALT 32634--CALLALT 32739--CALLALT 32858--CALLALT
     32985--CALLALT 33097--CALLALT 33315--CALLALT 33438--CALLALT 33551--CALLALT 33806--CALLALT 34139--CALLALT
     34329--CALLALT 34563--CALLALT 34668--CALLALT 34855--CALLALT 34978--CALLALT 35106--CALLALT 35109--CALLALT
     35417--CALLALT 35420--CALLALT 35535--CALLALT 35538--CALLALT 35738--CALLALT 35741--CALLALT 35944--CALLALT
     35947--CALLALT 36062--CALLALT 36065--CALLALT 36471--CALLALT 36474--CALLALT 36676--CALLALT 36679--CALLALT
     36879--CALLALT 36882--CALLALT 37167--CALLALT 37170--CALLALT 37455--CALLALT 37458--CALLALT 37586--CALLALT
     37589--CALLALT 37897--CALLALT 37900--CALLALT 38017--CALLALT 38020--CALLALT 38135--CALLALT 38138--CALLALT
     38338--CALLALT 38341--CALLALT 38544--CALLALT 38547--CALLALT 38747--CALLALT 38750--CALLALT 38877--CALLALT
     38880--CALLALT 39118--CALLALT 39149--CALLALT 39152--CALLALT 39386--CALLALT 39598--CALLALT 39905--CALLALT
     40229--CALLALT 40450--CALLALT 40554--CALLALT 40685--CALLALT 40916--CALLALT 41029--CALLALT 41160--CALLALT
     41291--CALLALT 41447--CALLALT 41552--CALLALT 41682--CALLALT 41813--CALLALT 41830--CALLALT 41883--CALLALT
     41902--CALLALT
I
      9955**DCL      9985<<ASSIGN   9986>>IF       9990<<ASSIGN   9990>>ASSIGN   9991>>IF       9992<<ASSIGN
      9993>>ASSIGN   9994>>ASSIGN   9995>>ASSIGN  41934<<ASSIGN  41935>>ASSIGN  42379<<DOINDEX 42380>>CALL
PL6.E3A0      #001=XSS$MACHINE File=XSS$MACHINE.:XSA1TSI                         WED 10/01/97 12:18 Page:766
LEN IN PROCEDURE EVNT
     41974**DCL     41971--IMP-SIZ 42158<<ASSIGN  42159<>CALL    42162>>ASSIGN  42162>>ASSIGN  42163>>ASSIGN
     42167>>ASSIGN  42176<<ASSIGN  42177<>CALL    42186>>ASSIGN  42186>>ASSIGN  42187>>ASSIGN  42191>>ASSIGN
     42198<<ASSIGN  42199>>ASSIGN  42199>>ASSIGN  42200>>ASSIGN
NOMEM IN PROCEDURE EVNT
     42254**LABEL   42159--CALLALT 42177--CALLALT 42195--CALLALT
OOPS
     42264**PROC    10030--CALL    10088--CALL    10338--CALL    10607--CALL    10611--CALL    10646--CALL
     10867--CALL    11067--CALL    11071--CALL    11202--CALL    11404--CALL    11408--CALL    11536--CALL
     11732--CALL    11934--CALL    11938--CALL    12159--CALL    12359--CALL    12363--CALL    12494--CALL
     12696--CALL    12700--CALL    12833--CALL    12952--CALL    12956--CALL    13089--CALL    13208--CALL
     13212--CALL    13340--CALL    13344--CALL    13370--CALL    13624--CALL    13628--CALL    13884--CALL
     14105--CALL    14109--CALL    14322--CALL    14435--CALL    14549--CALL    14660--CALL    14664--CALL
     14792--CALL    15199--CALL    15311--CALL    15421--CALL    15633--CALL    15637--CALL    15765--CALL
     16172--CALL    16284--CALL    16394--CALL    16505--CALL    16717--CALL    16721--CALL    16852--CALL
     16966--CALL    17078--CALL    17190--CALL    17194--CALL    17351--CALL    17463--CALL    17577--CALL
     17581--CALL    17931--CALL    18235--CALL    18542--CALL    18546--CALL    18682--CALL    18795--CALL
     19014--CALL    19018--CALL    19044--CALL    19177--CALL    19181--CALL    19408--CALL    19610--CALL
     20034--CALL    20142--CALL    20146--CALL    20274--CALL    20470--CALL    20672--CALL    20676--CALL
     20892--CALL    21200--CALL    21313--CALL    21508--CALL    21701--CALL    21705--CALL    21835--CALL
     22031--CALL    22229--CALL    22233--CALL    22361--CALL    22471--CALL    22475--CALL    22502--CALL
     22531--CALL    22666--CALL    22907--CALL    22911--CALL    23043--CALL    23158--CALL    23162--CALL
     23381--CALL    23586--CALL    23590--CALL    23619--CALL    23875--CALL    23879--CALL    24206--CALL
     24327--CALL    24736--CALL    24845--CALL    25090--CALL    25207--CALL    25409--CALL    25413--CALL
     25822--CALL    26024--CALL    26600--CALL    26709--CALL    27121--CALL    27320--CALL    27604--CALL
     27608--CALL    27932--CALL    28050--CALL    28456--CALL    28565--CALL    28807--CALL    28921--CALL
     29120--CALL    29124--CALL    29336--CALL    29451--CALL    29566--CALL    29570--CALL    29784--CALL
     29902--CALL    30108--CALL    30396--CALL    30599--CALL    30603--CALL    30628--CALL    30744--CALL
     30861--CALL    30865--CALL    30893--CALL    31106--CALL    31224--CALL    31430--CALL    31718--CALL
     31921--CALL    31925--CALL    31950--CALL    32073--CALL    32078--CALL    32201--CALL    32206--CALL
     32324--CALL    32329--CALL    32346--CALL    32473--CALL    32477--CALL    32501--CALL    32746--CALL
     32868--CALL    32872--CALL    32991--CALL    33103--CALL    33211--CALL    33321--CALL    33325--CALL
     33444--CALL    33557--CALL    33665--CALL    33669--CALL    33819--CALL    33927--CALL    34339--CALL
     34343--CALL    34862--CALL    34867--CALL    34985--CALL    34990--CALL    35119--CALL    35430--CALL
     35548--CALL    35754--CALL    35957--CALL    36075--CALL    36079--CALL    36484--CALL    36689--CALL
     36892--CALL    37180--CALL    37468--CALL    37472--CALL    37599--CALL    37910--CALL    38030--CALL
PL6.E3A0      #001=XSS$MACHINE File=XSS$MACHINE.:XSA1TSI                         WED 10/01/97 12:18 Page:767
     38148--CALL    38354--CALL    38557--CALL    38760--CALL    38764--CALL    38893--CALL    38898--CALL
     39014--CALL    39131--CALL    39135--CALL    39165--CALL    39282--CALL    39395--CALL    39399--CALL
     39607--CALL    39914--CALL    40107--CALL    40111--CALL    40238--CALL    40346--CALL    40564--CALL
     40568--CALL    40691--CALL    40799--CALL    40803--CALL    40922--CALL    41035--CALL    41143--CALL
     41147--CALL    41301--CALL    41562--CALL    41566--CALL    41689--CALL    41797--CALL    41801--CALL
     41819--CALL    41839--CALL    41888--CALL    41907--CALL    41913--CALL    41926--CALL
PINV
      9961**DCL     10192>>IF      10299>>IF      10455>>IF      10565>>IF      10726>>IF      10810>>IF
     10926>>IF      11010>>IF      11160>>IF      11260>>IF      11344>>IF      11500>>IF      11595>>IF
     11679>>IF      11790>>IF      11874>>IF      12018>>IF      12102>>IF      12218>>IF      12302>>IF
     12452>>IF      12552>>IF      12636>>IF      12789>>IF      12905>>IF      13045>>IF      13161>>IF
     13301>>IF      13478>>IF      13585>>IF      13735>>IF      13845>>IF      13942>>IF      14044>>IF
     14185>>IF      14269>>IF      14397>>IF      14513>>IF      14622>>IF      14753>>IF      14851>>IF
     14935>>IF      15038>>IF      15140>>IF      15275>>IF      15383>>IF      15493>>IF      15594>>IF
     15726>>IF      15824>>IF      15908>>IF      16011>>IF      16113>>IF      16248>>IF      16356>>IF
     16466>>IF      16577>>IF      16678>>IF      16814>>IF      16928>>IF      17042>>IF      17152>>IF
     17301>>IF      17427>>IF      17535>>IF      17674>>IF      17762>>IF      17846>>IF      17992>>IF
     18080>>IF      18164>>IF      18293>>IF      18381>>IF      18465>>IF      18641>>IF      18759>>IF
     18868>>IF      18972>>IF      19133>>IF      19264>>IF      19348>>IF      19466>>IF      19550>>IF
     19668>>IF      19770>>IF      19887>>IF      19971>>IF      20106>>IF      20238>>IF      20333>>IF
     20417>>IF      20528>>IF      20612>>IF      20752>>IF      20836>>IF      20952>>IF      21040>>IF
     21124>>IF      21277>>IF      21371>>IF      21455>>IF      21566>>IF      21650>>IF      21799>>IF
     21894>>IF      21978>>IF      22089>>IF      22173>>IF      22322>>IF      22433>>IF      22630>>IF
     22747>>IF      22864>>IF      23005>>IF      23122>>IF      23237>>IF      23321>>IF      23439>>IF
     23523>>IF      23726>>IF      23836>>IF      23954>>IF      24042>>IF      24126>>IF      24282>>IF
     24403>>IF      24487>>IF      24592>>IF      24676>>IF      24809>>IF      24935>>IF      25042>>IF
     25162>>IF      25265>>IF      25349>>IF      25488>>IF      25576>>IF      25646>>IF      25730>>IF
     25883>>IF      25967>>IF      26100>>IF      26170>>IF      26254>>IF      26374>>IF      26444>>IF
     26528>>IF      26673>>IF      26785>>IF      26869>>IF      26977>>IF      27061>>IF      27179>>IF
     27263>>IF      27378>>IF      27448>>IF      27532>>IF      27683>>IF      27771>>IF      27855>>IF
     28008>>IF      28126>>IF      28210>>IF      28315>>IF      28399>>IF      28529>>IF      28655>>IF
     28762>>IF      28879>>IF      28979>>IF      29063>>IF      29199>>IF      29283>>IF      29413>>IF
     29530>>IF      29639>>IF      29723>>IF      29856>>IF      29960>>IF      30044>>IF      30166>>IF
     30236>>IF      30320>>IF      30454>>IF      30538>>IF      30708>>IF      30816>>IF      30961>>IF
     31045>>IF      31178>>IF      31282>>IF      31366>>IF      31488>>IF      31558>>IF      31642>>IF
     31776>>IF      31860>>IF      32029>>IF      32157>>IF      32285>>IF      32434>>IF      32597>>IF
PL6.E3A0      #001=XSS$MACHINE File=XSS$MACHINE.:XSA1TSI                         WED 10/01/97 12:18 Page:768
     32707>>IF      32826>>IF      32953>>IF      33065>>IF      33175>>IF      33283>>IF      33406>>IF
     33519>>IF      33629>>IF      33769>>IF      33891>>IF      33985>>IF      34087>>IF      34198>>IF
     34282>>IF      34427>>IF      34511>>IF      34636>>IF      34724>>IF      34808>>IF      34946>>IF
     35073>>IF      35177>>IF      35247>>IF      35349>>IF      35502>>IF      35606>>IF      35690>>IF
     35812>>IF      35896>>IF      36029>>IF      36146>>IF      36216>>IF      36304>>IF      36388>>IF
     36544>>IF      36628>>IF      36747>>IF      36831>>IF      36950>>IF      37020>>IF      37104>>IF
     37238>>IF      37308>>IF      37392>>IF      37553>>IF      37657>>IF      37727>>IF      37829>>IF
     37984>>IF      38102>>IF      38206>>IF      38290>>IF      38412>>IF      38496>>IF      38615>>IF
     38699>>IF      38844>>IF      38978>>IF      39086>>IF      39246>>IF      39354>>IF      39467>>IF
     39551>>IF      39666>>IF      39754>>IF      39838>>IF      39972>>IF      40056>>IF      40197>>IF
     40310>>IF      40418>>IF      40522>>IF      40653>>IF      40763>>IF      40884>>IF      40997>>IF
     41107>>IF      41254>>IF      41410>>IF      41520>>IF      41650>>IF      41761>>IF      42655<<ASSIGN
     42664<<ASSIGN  42672<<ASSIGN  42680<<ASSIGN  42688<<ASSIGN  42696<<ASSIGN  42704<<ASSIGN  42712<<ASSIGN
     42720<<ASSIGN  42728<<ASSIGN  42736<<ASSIGN  42745<<ASSIGN  42754<<ASSIGN  42762<<ASSIGN  42770<<ASSIGN
     42778<<ASSIGN  42787<<ASSIGN  42796<<ASSIGN  42805<<ASSIGN  42814<<ASSIGN  42823<<ASSIGN  42835<<ASSIGN
     42843<<ASSIGN  42851<<ASSIGN  42859<<ASSIGN  42868<<ASSIGN  42876<<ASSIGN  42884<<ASSIGN  42892<<ASSIGN
     42908<<ASSIGN  42917<<ASSIGN  42925<<ASSIGN  42933<<ASSIGN  42941<<ASSIGN  42949<<ASSIGN  42957<<ASSIGN
     42965<<ASSIGN  42973<<ASSIGN  42982<<ASSIGN  42991<<ASSIGN  43010<<ASSIGN  43019<<ASSIGN  43028<<ASSIGN
     43037<<ASSIGN  43046<<ASSIGN  43054<<ASSIGN  43073<<ASSIGN  43081<<ASSIGN  43089<<ASSIGN  43097<<ASSIGN
     43107<<ASSIGN  43117<<ASSIGN  43126<<ASSIGN  43140<<ASSIGN  43149<<ASSIGN  43159<<ASSIGN  43169<<ASSIGN
     43178<<ASSIGN  43187<<ASSIGN  43196<<ASSIGN  43205<<ASSIGN  43213<<ASSIGN  43221<<ASSIGN  43229<<ASSIGN
     43238<<ASSIGN  43246<<ASSIGN  43254<<ASSIGN  43263<<ASSIGN  43272<<ASSIGN  43288<<ASSIGN
PRED
      9959**DCL     10202>>IF      10309>>IF      10465>>IF      10575>>IF      10735>>IF      10820>>IF
     10935>>IF      11020>>IF      11170>>IF      11269>>IF      11354>>IF      11510>>IF      11604>>IF
     11689>>IF      11799>>IF      11884>>IF      12027>>IF      12112>>IF      12227>>IF      12312>>IF
     12462>>IF      12561>>IF      12646>>IF      12799>>IF      12915>>IF      13055>>IF      13171>>IF
     13311>>IF      13488>>IF      13595>>IF      13745>>IF      13855>>IF      13951>>IF      14054>>IF
     14194>>IF      14279>>IF      14407>>IF      14523>>IF      14632>>IF      14763>>IF      14860>>IF
     14945>>IF      15047>>IF      15150>>IF      15285>>IF      15393>>IF      15503>>IF      15604>>IF
     15736>>IF      15833>>IF      15918>>IF      16020>>IF      16123>>IF      16258>>IF      16366>>IF
     16476>>IF      16587>>IF      16688>>IF      16824>>IF      16938>>IF      17052>>IF      17162>>IF
     17311>>IF      17437>>IF      17545>>IF      17683>>IF      17771>>IF      17856>>IF      18001>>IF
     18089>>IF      18174>>IF      18302>>IF      18390>>IF      18475>>IF      18651>>IF      18769>>IF
     18878>>IF      18982>>IF      19143>>IF      19273>>IF      19358>>IF      19475>>IF      19560>>IF
     19677>>IF      19780>>IF      19896>>IF      19981>>IF      20116>>IF      20248>>IF      20342>>IF
PL6.E3A0      #001=XSS$MACHINE File=XSS$MACHINE.:XSA1TSI                         WED 10/01/97 12:18 Page:769
     20427>>IF      20537>>IF      20622>>IF      20761>>IF      20846>>IF      20961>>IF      21049>>IF
     21134>>IF      21287>>IF      21380>>IF      21465>>IF      21575>>IF      21660>>IF      21809>>IF
     21903>>IF      21988>>IF      22098>>IF      22183>>IF      22332>>IF      22443>>IF      22640>>IF
     22757>>IF      22874>>IF      23015>>IF      23132>>IF      23246>>IF      23331>>IF      23448>>IF
     23533>>IF      23736>>IF      23846>>IF      23963>>IF      24051>>IF      24136>>IF      24292>>IF
     24412>>IF      24497>>IF      24601>>IF      24686>>IF      24819>>IF      24945>>IF      25052>>IF
     25172>>IF      25274>>IF      25359>>IF      25497>>IF      25585>>IF      25655>>IF      25740>>IF
     25892>>IF      25977>>IF      26109>>IF      26179>>IF      26264>>IF      26383>>IF      26453>>IF
     26538>>IF      26683>>IF      26794>>IF      26879>>IF      26986>>IF      27071>>IF      27188>>IF
     27273>>IF      27387>>IF      27457>>IF      27542>>IF      27692>>IF      27780>>IF      27865>>IF
     28018>>IF      28135>>IF      28220>>IF      28324>>IF      28409>>IF      28539>>IF      28665>>IF
     28772>>IF      28889>>IF      28988>>IF      29073>>IF      29208>>IF      29293>>IF      29423>>IF
     29540>>IF      29648>>IF      29733>>IF      29866>>IF      29969>>IF      30054>>IF      30175>>IF
     30245>>IF      30330>>IF      30463>>IF      30548>>IF      30718>>IF      30826>>IF      30970>>IF
     31055>>IF      31188>>IF      31291>>IF      31376>>IF      31497>>IF      31567>>IF      31652>>IF
     31785>>IF      31870>>IF      32039>>IF      32167>>IF      32295>>IF      32444>>IF      32607>>IF
     32717>>IF      32836>>IF      32963>>IF      33075>>IF      33185>>IF      33293>>IF      33416>>IF
     33529>>IF      33639>>IF      33779>>IF      33901>>IF      33994>>IF      34097>>IF      34207>>IF
     34292>>IF      34436>>IF      34521>>IF      34646>>IF      34733>>IF      34818>>IF      34956>>IF
     35083>>IF      35186>>IF      35256>>IF      35359>>IF      35512>>IF      35615>>IF      35700>>IF
     35821>>IF      35906>>IF      36039>>IF      36155>>IF      36225>>IF      36313>>IF      36398>>IF
     36553>>IF      36638>>IF      36756>>IF      36841>>IF      36959>>IF      37029>>IF      37114>>IF
     37247>>IF      37317>>IF      37402>>IF      37563>>IF      37666>>IF      37736>>IF      37839>>IF
     37994>>IF      38112>>IF      38215>>IF      38300>>IF      38421>>IF      38506>>IF      38624>>IF
     38709>>IF      38854>>IF      38988>>IF      39096>>IF      39256>>IF      39364>>IF      39476>>IF
     39561>>IF      39675>>IF      39763>>IF      39848>>IF      39981>>IF      40066>>IF      40207>>IF
     40320>>IF      40428>>IF      40532>>IF      40663>>IF      40773>>IF      40894>>IF      41007>>IF
     41117>>IF      41264>>IF      41420>>IF      41530>>IF      41660>>IF      41771>>IF      42654<<ASSIGN
     42663<<ASSIGN  42671<<ASSIGN  42679<<ASSIGN  42687<<ASSIGN  42695<<ASSIGN  42703<<ASSIGN  42711<<ASSIGN
     42719<<ASSIGN  42727<<ASSIGN  42735<<ASSIGN  42743<<ASSIGN  42752<<ASSIGN  42761<<ASSIGN  42769<<ASSIGN
     42777<<ASSIGN  42785<<ASSIGN  42794<<ASSIGN  42804<<ASSIGN  42813<<ASSIGN  42822<<ASSIGN  42834<<ASSIGN
     42842<<ASSIGN  42850<<ASSIGN  42858<<ASSIGN  42867<<ASSIGN  42875<<ASSIGN  42883<<ASSIGN  42891<<ASSIGN
     42907<<ASSIGN  42916<<ASSIGN  42924<<ASSIGN  42932<<ASSIGN  42940<<ASSIGN  42948<<ASSIGN  42956<<ASSIGN
     42964<<ASSIGN  42972<<ASSIGN  42981<<ASSIGN  42990<<ASSIGN  43003<<ASSIGN  43006<<ASSIGN  43008<<ASSIGN
     43017<<ASSIGN  43026<<ASSIGN  43035<<ASSIGN  43044<<ASSIGN  43053<<ASSIGN  43066<<ASSIGN  43069<<ASSIGN
     43071<<ASSIGN  43080<<ASSIGN  43088<<ASSIGN  43096<<ASSIGN  43106<<ASSIGN  43116<<ASSIGN  43125<<ASSIGN
PL6.E3A0      #001=XSS$MACHINE File=XSS$MACHINE.:XSA1TSI                         WED 10/01/97 12:18 Page:770
     43139<<ASSIGN  43148<<ASSIGN  43158<<ASSIGN  43168<<ASSIGN  43177<<ASSIGN  43186<<ASSIGN  43195<<ASSIGN
     43204<<ASSIGN  43212<<ASSIGN  43220<<ASSIGN  43228<<ASSIGN  43237<<ASSIGN  43245<<ASSIGN  43253<<ASSIGN
     43261<<ASSIGN  43270<<ASSIGN  43287<<ASSIGN
PRED01 IN PROCEDURE PRED00
     42650**ENTRY   13478--CALL    13585--CALL    14044--CALL    17762--CALL    18080--CALL    18381--CALL
     32434--CALL    34808--CALL
PRED02 IN PROCEDURE PRED00
     42658**ENTRY   10192--CALL    10299--CALL    10455--CALL    10565--CALL    23726--CALL    23836--CALL
     32597--CALL    32707--CALL    41254--CALL    41410--CALL    41520--CALL
PRED03 IN PROCEDURE PRED00
     42667**ENTRY   14935--CALL    15140--CALL    15908--CALL    16113--CALL    33065--CALL    33175--CALL
PRED04 IN PROCEDURE PRED00
     42675**ENTRY   32953--CALL
PRED05 IN PROCEDURE PRED00
     42683**ENTRY   14185--CALL    14397--CALL    14513--CALL
PRED06 IN PROCEDURE PRED00
     42691**ENTRY   29199--CALL    29413--CALL    29530--CALL    40997--CALL    41107--CALL
PRED07 IN PROCEDURE PRED00
     42699**ENTRY   40884--CALL
PRED08 IN PROCEDURE PRED00
     42707**ENTRY   16928--CALL    17042--CALL    17152--CALL    33519--CALL    33629--CALL
PRED09 IN PROCEDURE PRED00
     42715**ENTRY   16814--CALL    33406--CALL
PRED10 IN PROCEDURE PRED00
     42723**ENTRY   14269--CALL    22630--CALL    23954--CALL    25488--CALL    27683--CALL    29283--CALL
     35177--CALL    36146--CALL    37657--CALL
PRED11 IN PROCEDURE PRED00
     42731**ENTRY   30538--CALL    31860--CALL
PRED12 IN PROCEDURE PRED00
     42739**ENTRY   20238--CALL    20333--CALL    20528--CALL
PRED13 IN PROCEDURE PRED00
     42748**ENTRY   38978--CALL    39086--CALL
PRED14 IN PROCEDURE PRED00
     42757**ENTRY   21799--CALL    21894--CALL    22089--CALL
PRED15 IN PROCEDURE PRED00
     42765**ENTRY   39246--CALL    39354--CALL
PL6.E3A0      #001=XSS$MACHINE File=XSS$MACHINE.:XSA1TSI                         WED 10/01/97 12:18 Page:771
PRED16 IN PROCEDURE PRED00
     42773**ENTRY   17846--CALL    18164--CALL    18465--CALL    19264--CALL    19466--CALL
PRED17 IN PROCEDURE PRED00
     42781**ENTRY   20752--CALL    20952--CALL    21277--CALL    21371--CALL    21566--CALL
PRED18 IN PROCEDURE PRED00
     42790**ENTRY   39467--CALL    39666--CALL    39972--CALL
PRED19 IN PROCEDURE PRED00
     42799**ENTRY   11679--CALL    11874--CALL    20417--CALL    20612--CALL    21978--CALL    22173--CALL
PRED20 IN PROCEDURE PRED00
     42808**ENTRY   19348--CALL    19550--CALL    19668--CALL    19887--CALL    20106--CALL    21040--CALL
     39754--CALL
PRED21 IN PROCEDURE PRED00
     42817**ENTRY   20836--CALL    21124--CALL    21455--CALL    21650--CALL    39551--CALL    39838--CALL
     40056--CALL
PRED23 IN PROCEDURE PRED00
     42830**ENTRY   19770--CALL    19971--CALL
PRED24 IN PROCEDURE PRED00
     42838**ENTRY   24403--CALL    24592--CALL    24935--CALL    25042--CALL    26100--CALL    26374--CALL
     26785--CALL    26977--CALL    28126--CALL    28315--CALL    28655--CALL    28762--CALL    35502--CALL
     36747--CALL    38102--CALL
PRED25 IN PROCEDURE PRED00
     42846**ENTRY   36216--CALL    36544--CALL    36950--CALL    37238--CALL    37727--CALL    37984--CALL
     38412--CALL    38615--CALL
PRED26 IN PROCEDURE PRED00
     42854**ENTRY   22747--CALL    22864--CALL    25265--CALL    27448--CALL    28979--CALL    37308--CALL
     38699--CALL
PRED27 IN PROCEDURE PRED00
     42862**ENTRY   30166--CALL    31488--CALL    35812--CALL    37020--CALL    38496--CALL
PRED28 IN PROCEDURE PRED00
     42871**ENTRY   24809--CALL    26673--CALL    28529--CALL    35073--CALL    35247--CALL    35606--CALL
     35896--CALL    37553--CALL    38206--CALL
PRED29 IN PROCEDURE PRED00
     42879**ENTRY   25162--CALL    27263--CALL    28879--CALL    36029--CALL
PRED30 IN PROCEDURE PRED00
     42887**ENTRY   35690--CALL    38290--CALL
PRED32 IN PROCEDURE PRED00
PL6.E3A0      #001=XSS$MACHINE File=XSS$MACHINE.:XSA1TSI                         WED 10/01/97 12:18 Page:772
     42902**ENTRY   25730--CALL    25883--CALL    26170--CALL    26444--CALL    26869--CALL    27061--CALL
     27179--CALL    27378--CALL
PRED33 IN PROCEDURE PRED00
     42911**ENTRY   36388--CALL    36628--CALL    36831--CALL    37104--CALL    37392--CALL
PRED34 IN PROCEDURE PRED00
     42920**ENTRY   24042--CALL    25576--CALL    27771--CALL    29639--CALL    29960--CALL    30236--CALL
     30454--CALL    30961--CALL    31282--CALL    31558--CALL    31776--CALL    35349--CALL    36304--CALL
     37829--CALL
PRED35 IN PROCEDURE PRED00
     42928**ENTRY   23237--CALL    24126--CALL    24282--CALL    24487--CALL    24676--CALL    25349--CALL
     25646--CALL    25967--CALL    26254--CALL    26528--CALL    27532--CALL    27855--CALL    28008--CALL
     28210--CALL    28399--CALL    29063--CALL
PRED36 IN PROCEDURE PRED00
     42936**ENTRY   23439--CALL
PRED37 IN PROCEDURE PRED00
     42944**ENTRY   10926--CALL    11260--CALL    12218--CALL    12552--CALL
PRED38 IN PROCEDURE PRED00
     42952**ENTRY   10726--CALL    11160--CALL    12018--CALL    12452--CALL
PRED39 IN PROCEDURE PRED00
     42960**ENTRY   29723--CALL    29856--CALL    30044--CALL    30320--CALL    31045--CALL    31178--CALL
     31366--CALL    31642--CALL
PRED40 IN PROCEDURE PRED00
     42968**ENTRY   10810--CALL    11010--CALL    12102--CALL    12302--CALL
PRED41 IN PROCEDURE PRED00
     42976**ENTRY   11344--CALL
PRED42 IN PROCEDURE PRED00
     42985**ENTRY   12636--CALL
PRED43 IN PROCEDURE PRED00
     42994**ENTRY   38844--CALL
PRED44 IN PROCEDURE PRED00
     43013**ENTRY   12789--CALL    12905--CALL    13045--CALL    13161--CALL
PRED45 IN PROCEDURE PRED00
     43022**ENTRY   32029--CALL    32157--CALL
PRED46 IN PROCEDURE PRED00
     43031**ENTRY   13301--CALL
PRED47 IN PROCEDURE PRED00
PL6.E3A0      #001=XSS$MACHINE File=XSS$MACHINE.:XSA1TSI                         WED 10/01/97 12:18 Page:773
     43040**ENTRY   32285--CALL
PRED48 IN PROCEDURE PRED00
     43049**ENTRY   14851--CALL    15038--CALL    15275--CALL    15824--CALL    16011--CALL    16248--CALL
     16466--CALL
PRED49 IN PROCEDURE PRED00
     43057**ENTRY   23321--CALL    23523--CALL
PRED50 IN PROCEDURE PRED00
     43076**ENTRY   15383--CALL    15493--CALL    16356--CALL    16577--CALL    41650--CALL    41761--CALL
PRED51 IN PROCEDURE PRED00
     43084**ENTRY   15594--CALL    16678--CALL
PRED52 IN PROCEDURE PRED00
     43092**ENTRY   14753--CALL    15726--CALL
PRED53 IN PROCEDURE PRED00
     43100**ENTRY   23005--CALL    23122--CALL    40653--CALL    40763--CALL
PRED54 IN PROCEDURE PRED00
     43110**ENTRY   40197--CALL    40310--CALL
PRED55 IN PROCEDURE PRED00
     43120**ENTRY   32826--CALL
PRED57 IN PROCEDURE PRED00
     43133**ENTRY   40418--CALL
PRED58 IN PROCEDURE PRED00
     43143**ENTRY   40522--CALL
PRED59 IN PROCEDURE PRED00
     43152**ENTRY   18641--CALL    18759--CALL
PRED60 IN PROCEDURE PRED00
     43162**ENTRY   18868--CALL
PRED61 IN PROCEDURE PRED00
     43172**ENTRY   18972--CALL
PRED62 IN PROCEDURE PRED00
     43181**ENTRY   19133--CALL
PRED63 IN PROCEDURE PRED00
     43190**ENTRY   33891--CALL    33985--CALL    34198--CALL
PRED64 IN PROCEDURE PRED00
     43199**ENTRY   34087--CALL    34282--CALL
PRED65 IN PROCEDURE PRED00
     43208**ENTRY   17301--CALL    17674--CALL    33769--CALL
PL6.E3A0      #001=XSS$MACHINE File=XSS$MACHINE.:XSA1TSI                         WED 10/01/97 12:18 Page:774
PRED66 IN PROCEDURE PRED00
     43216**ENTRY   13735--CALL    13845--CALL    34427--CALL    34636--CALL
PRED67 IN PROCEDURE PRED00
     43224**ENTRY   22322--CALL    22433--CALL    34946--CALL
PRED68 IN PROCEDURE PRED00
     43232**ENTRY   17427--CALL    17535--CALL    17992--CALL    18293--CALL
PRED69 IN PROCEDURE PRED00
     43241**ENTRY   13942--CALL    34724--CALL
PRED70 IN PROCEDURE PRED00
     43249**ENTRY   14622--CALL    33283--CALL
PRED71 IN PROCEDURE PRED00
     43257**ENTRY   30708--CALL    30816--CALL
PRED72 IN PROCEDURE PRED00
     43266**ENTRY   11500--CALL    11595--CALL    11790--CALL
PRED75 IN PROCEDURE PRED00
     43283**ENTRY   34511--CALL
PREDERR
     41926**LABEL   10192--CALLALT 10299--CALLALT 10455--CALLALT 10565--CALLALT 10726--CALLALT 10810--CALLALT
     10926--CALLALT 11010--CALLALT 11160--CALLALT 11260--CALLALT 11344--CALLALT 11500--CALLALT 11595--CALLALT
     11679--CALLALT 11790--CALLALT 11874--CALLALT 12018--CALLALT 12102--CALLALT 12218--CALLALT 12302--CALLALT
     12452--CALLALT 12552--CALLALT 12636--CALLALT 12789--CALLALT 12905--CALLALT 13045--CALLALT 13161--CALLALT
     13301--CALLALT 13478--CALLALT 13585--CALLALT 13735--CALLALT 13845--CALLALT 13942--CALLALT 14044--CALLALT
     14185--CALLALT 14269--CALLALT 14397--CALLALT 14513--CALLALT 14622--CALLALT 14753--CALLALT 14851--CALLALT
     14935--CALLALT 15038--CALLALT 15140--CALLALT 15275--CALLALT 15383--CALLALT 15493--CALLALT 15594--CALLALT
     15726--CALLALT 15824--CALLALT 15908--CALLALT 16011--CALLALT 16113--CALLALT 16248--CALLALT 16356--CALLALT
     16466--CALLALT 16577--CALLALT 16678--CALLALT 16814--CALLALT 16928--CALLALT 17042--CALLALT 17152--CALLALT
     17301--CALLALT 17427--CALLALT 17535--CALLALT 17674--CALLALT 17762--CALLALT 17846--CALLALT 17992--CALLALT
     18080--CALLALT 18164--CALLALT 18293--CALLALT 18381--CALLALT 18465--CALLALT 18641--CALLALT 18759--CALLALT
     18868--CALLALT 18972--CALLALT 19133--CALLALT 19264--CALLALT 19348--CALLALT 19466--CALLALT 19550--CALLALT
     19668--CALLALT 19770--CALLALT 19887--CALLALT 19971--CALLALT 20106--CALLALT 20238--CALLALT 20333--CALLALT
     20417--CALLALT 20528--CALLALT 20612--CALLALT 20752--CALLALT 20836--CALLALT 20952--CALLALT 21040--CALLALT
     21124--CALLALT 21277--CALLALT 21371--CALLALT 21455--CALLALT 21566--CALLALT 21650--CALLALT 21799--CALLALT
     21894--CALLALT 21978--CALLALT 22089--CALLALT 22173--CALLALT 22322--CALLALT 22433--CALLALT 22630--CALLALT
     22747--CALLALT 22864--CALLALT 23005--CALLALT 23122--CALLALT 23237--CALLALT 23321--CALLALT 23439--CALLALT
     23523--CALLALT 23726--CALLALT 23836--CALLALT 23954--CALLALT 24042--CALLALT 24126--CALLALT 24282--CALLALT
     24403--CALLALT 24487--CALLALT 24592--CALLALT 24676--CALLALT 24809--CALLALT 24935--CALLALT 25042--CALLALT
PL6.E3A0      #001=XSS$MACHINE File=XSS$MACHINE.:XSA1TSI                         WED 10/01/97 12:18 Page:775
     25162--CALLALT 25265--CALLALT 25349--CALLALT 25488--CALLALT 25576--CALLALT 25646--CALLALT 25730--CALLALT
     25883--CALLALT 25967--CALLALT 26100--CALLALT 26170--CALLALT 26254--CALLALT 26374--CALLALT 26444--CALLALT
     26528--CALLALT 26673--CALLALT 26785--CALLALT 26869--CALLALT 26977--CALLALT 27061--CALLALT 27179--CALLALT
     27263--CALLALT 27378--CALLALT 27448--CALLALT 27532--CALLALT 27683--CALLALT 27771--CALLALT 27855--CALLALT
     28008--CALLALT 28126--CALLALT 28210--CALLALT 28315--CALLALT 28399--CALLALT 28529--CALLALT 28655--CALLALT
     28762--CALLALT 28879--CALLALT 28979--CALLALT 29063--CALLALT 29199--CALLALT 29283--CALLALT 29413--CALLALT
     29530--CALLALT 29639--CALLALT 29723--CALLALT 29856--CALLALT 29960--CALLALT 30044--CALLALT 30166--CALLALT
     30236--CALLALT 30320--CALLALT 30454--CALLALT 30538--CALLALT 30708--CALLALT 30816--CALLALT 30961--CALLALT
     31045--CALLALT 31178--CALLALT 31282--CALLALT 31366--CALLALT 31488--CALLALT 31558--CALLALT 31642--CALLALT
     31776--CALLALT 31860--CALLALT 32029--CALLALT 32157--CALLALT 32285--CALLALT 32434--CALLALT 32597--CALLALT
     32707--CALLALT 32826--CALLALT 32953--CALLALT 33065--CALLALT 33175--CALLALT 33283--CALLALT 33406--CALLALT
     33519--CALLALT 33629--CALLALT 33769--CALLALT 33891--CALLALT 33985--CALLALT 34087--CALLALT 34198--CALLALT
     34282--CALLALT 34427--CALLALT 34511--CALLALT 34636--CALLALT 34724--CALLALT 34808--CALLALT 34946--CALLALT
     35073--CALLALT 35177--CALLALT 35247--CALLALT 35349--CALLALT 35502--CALLALT 35606--CALLALT 35690--CALLALT
     35812--CALLALT 35896--CALLALT 36029--CALLALT 36146--CALLALT 36216--CALLALT 36304--CALLALT 36388--CALLALT
     36544--CALLALT 36628--CALLALT 36747--CALLALT 36831--CALLALT 36950--CALLALT 37020--CALLALT 37104--CALLALT
     37238--CALLALT 37308--CALLALT 37392--CALLALT 37553--CALLALT 37657--CALLALT 37727--CALLALT 37829--CALLALT
     37984--CALLALT 38102--CALLALT 38206--CALLALT 38290--CALLALT 38412--CALLALT 38496--CALLALT 38615--CALLALT
     38699--CALLALT 38844--CALLALT 38978--CALLALT 39086--CALLALT 39246--CALLALT 39354--CALLALT 39467--CALLALT
     39551--CALLALT 39666--CALLALT 39754--CALLALT 39838--CALLALT 39972--CALLALT 40056--CALLALT 40197--CALLALT
     40310--CALLALT 40418--CALLALT 40522--CALLALT 40653--CALLALT 40763--CALLALT 40884--CALLALT 40997--CALLALT
     41107--CALLALT 41254--CALLALT 41410--CALLALT 41520--CALLALT 41650--CALLALT 41761--CALLALT
RET IN PROCEDURE ACTION00
     42286**LABEL   42293--GOTO    42300--GOTO    42307--GOTO    42314--GOTO    42372--GOTO    42384--GOTO
     42391--GOTO    42398--GOTO    42406--GOTO    42416--GOTO    42434--GOTO    42441--GOTO    42452--GOTO
     42459--GOTO    42491--GOTO    42502--GOTO    42509--GOTO    42531--GOTO    42543--GOTO    42555--GOTO
     42562--GOTO    42571--GOTO    42581--GOTO    42595--GOTO    42606--GOTO    42617--GOTO    42627--GOTO
     42634--GOTO
RET IN PROCEDURE PRED00
     42648**LABEL   42656--GOTO    42665--GOTO    42673--GOTO    42681--GOTO    42689--GOTO    42697--GOTO
     42705--GOTO    42713--GOTO    42721--GOTO    42729--GOTO    42737--GOTO    42746--GOTO    42755--GOTO
     42763--GOTO    42771--GOTO    42779--GOTO    42788--GOTO    42797--GOTO    42806--GOTO    42815--GOTO
     42824--GOTO    42836--GOTO    42852--GOTO    42860--GOTO    42869--GOTO    42877--GOTO    42885--GOTO
     42893--GOTO    42909--GOTO    42918--GOTO    42926--GOTO    42934--GOTO    42942--GOTO    42950--GOTO
     42958--GOTO    42966--GOTO    42974--GOTO    42983--GOTO    42992--GOTO    43011--GOTO    43020--GOTO
     43029--GOTO    43038--GOTO    43047--GOTO    43055--GOTO    43074--GOTO    43082--GOTO    43090--GOTO
PL6.E3A0      #001=XSS$MACHINE File=XSS$MACHINE.:XSA1TSI                         WED 10/01/97 12:18 Page:776
     43108--GOTO    43118--GOTO    43127--GOTO    43141--GOTO    43150--GOTO    43160--GOTO    43170--GOTO
     43179--GOTO    43188--GOTO    43197--GOTO    43206--GOTO    43214--GOTO    43222--GOTO    43230--GOTO
     43239--GOTO    43247--GOTO    43255--GOTO    43264--GOTO    43273--GOTO    43289--GOTO
SBLK$ IN PROCEDURE EVNT
     41978**DCL     42180<>CALL    42182<>CALL    42183>>ASSIGN  42197<>CALL    42198>>ASSIGN  42199>>ASSIGN
     42201>>ASSIGN  42202>>ASSIGN
SBLKX IN PROCEDURE EVNT
     41977**DCL     42202<<ASSIGN  42203<>CALL
SCTX.A
      9041**DCL     42431<<ASSIGN  43156>>IF      43166>>IF      43176>>IF      43185>>IF      43236>>IF
SCTX.A.DK
      9053**DCL     42687>>ASSIGN  42743>>ASSIGN  42761>>ASSIGN  43017>>ASSIGN  43035>>ASSIGN  43270>>ASSIGN
SCTX.A.MA
      9049**DCL     43017>>ASSIGN
SCTX.A.MI
      9051**DCL     42743>>ASSIGN  43017>>ASSIGN  43035>>ASSIGN  43270>>ASSIGN
SCTX.AA
      9115**DCL     42433<<ASSIGN
SCTX.AA.DK
      9127**DCL     43080>>ASSIGN
SCTX.AA.MA
      9123**DCL     42743>>ASSIGN  42972>>ASSIGN  43270>>ASSIGN
SCTX.AA.MI
      9125**DCL     42761>>ASSIGN
SCTX.ABORTING
      9183**DCL     41937>>IF      41950>>ASSIGN  41951<<ASSIGN  42133<<ASSIGN  42226<<ASSIGN  42245<<ASSIGN
     42248>>IF      42254<<ASSIGN  42268<<ASSIGN
SCTX.AVAIL
      8930**DCL     42430>>ASSIGN  42431>>ASSIGN  42432>>ASSIGN  42433>>ASSIGN  42603>>ASSIGN  42614>>ASSIGN
     43105>>IF      43114>>IF      43137>>IF      43156>>IF      43166>>IF      43212>>ASSIGN
SCTX.AVAIL.DK
      8942**DCL     42346<<ASSIGN
SCTX.AVAIL.MA
      8938**DCL     42350<<ASSIGN
SCTX.AVAIL.MI
      8940**DCL     42344<<ASSIGN
PL6.E3A0      #001=XSS$MACHINE File=XSS$MACHINE.:XSA1TSI                         WED 10/01/97 12:18 Page:777
SCTX.AVAIL.TR
      8936**DCL     42348<<ASSIGN
SCTX.BUFTOT
      9215**DCL     42163<<ASSIGN  42187<<ASSIGN  42187>>ASSIGN  42195<>CALL    42206>>ASSIGN  42207<<ASSIGN
SCTX.ENTRY$
      9200**DCL     42223>>IF      42224>>CALL
SCTX.EVQ
      9211**DCL     42380<>CALL    42414<<ASSIGN
SCTX.EVQX
      9210**DCL     42378>>IF      42379>>DOINDEX 42382<<ASSIGN  42412>>IF      42414>>ASSIGN  42415<<ASSIGN
     42415>>ASSIGN
SCTX.FLAGS.TEXP
      9157**DCL     29769>>IF      29887>>IF      30090>>IF      30381>>IF      30584>>IF      30614>>IF
     30876>>IF      31091>>IF      31209>>IF      31412>>IF      31703>>IF      31906>>IF      31936>>IF
     35104>>IF      35415>>IF      35533>>IF      35736>>IF      35942>>IF      36060>>IF      36469>>IF
     36674>>IF      36877>>IF      37165>>IF      37453>>IF      37584>>IF      37895>>IF      38015>>IF
     38133>>IF      38336>>IF      38542>>IF      38745>>IF      38875>>IF      39147>>IF      42663>>ASSIGN
     42777>>ASSIGN  42932>>ASSIGN  42940>>ASSIGN  42948>>ASSIGN  42956>>ASSIGN  43204>>ASSIGN
SCTX.FLAGS.VACT
      9154**DCL     42339<<ASSIGN  42440<<ASSIGN  42458<<ASSIGN  42604<<ASSIGN  42615<<ASSIGN  42743>>ASSIGN
     42752>>ASSIGN  42761>>ASSIGN  42769>>ASSIGN  42785>>ASSIGN  42794>>ASSIGN  42858>>ASSIGN  42883>>ASSIGN
     42964>>ASSIGN  43017>>ASSIGN  43026>>ASSIGN  43035>>ASSIGN  43044>>ASSIGN  43080>>ASSIGN  43088>>ASSIGN
     43124>>IF      43185>>IF      43195>>ASSIGN  43237>>ASSIGN  43261>>ASSIGN  43270>>ASSIGN
SCTX.FLAGS.VCOLL
      9158**DCL     42333<<ASSIGN  42501<<ASSIGN  42679>>ASSIGN  42703>>ASSIGN  42719>>ASSIGN  42727>>ASSIGN
     43245>>ASSIGN  43287>>ASSIGN  43287>>ASSIGN
SCTX.FLAGS.VDNR
      9160**DCL     42340<<ASSIGN  42633<<ASSIGN  43287>>ASSIGN
SCTX.FLAGS.VNEXTACT
      9155**DCL     42447<<ASSIGN  42451<<ASSIGN  42458>>ASSIGN  42834>>ASSIGN  42891>>ASSIGN
SCTX.FLAGS.VSC
      9153**DCL     42335<<ASSIGN  42538>>IF      42540<<ASSIGN  42550>>IF      42552<<ASSIGN  42624>>IF
     42785>>ASSIGN  42794>>ASSIGN
SCTX.FLAGS.VTCA
      9159**DCL     42292<<ASSIGN  42299<<ASSIGN  42654>>ASSIGN  43204>>ASSIGN
SCTX.FLAGS.VTRR
PL6.E3A0      #001=XSS$MACHINE File=XSS$MACHINE.:XSA1TSI                         WED 10/01/97 12:18 Page:778
      9156**DCL     42390<<ASSIGN  42397<<ASSIGN  42405<<ASSIGN  43220>>ASSIGN
SCTX.FLAGS.WINNER
      9152**DCL     42842>>ASSIGN
SCTX.FU
      9134**DCL     42337<<ASSIGN  42337>>ASSIGN
SCTX.FU.ACT
      9140**DCL     42338>>IF      42349>>IF      42743>>ASSIGN  42752>>ASSIGN  42761>>ASSIGN  42769>>ASSIGN
     42785>>ASSIGN  42794>>ASSIGN  42834>>ASSIGN  42858>>ASSIGN  42883>>ASSIGN  42891>>ASSIGN  42924>>ASSIGN
     42948>>ASSIGN  42956>>ASSIGN  43017>>ASSIGN  43026>>ASSIGN  43035>>ASSIGN  43044>>ASSIGN  43080>>ASSIGN
     43088>>ASSIGN  43096>>ASSIGN  43124>>IF      43185>>IF      43195>>ASSIGN  43237>>ASSIGN  43261>>ASSIGN
     43270>>ASSIGN
SCTX.FU.CD
      9138**DCL     43035>>ASSIGN  43044>>ASSIGN
SCTX.FU.EX
      9144**DCL     42711>>ASSIGN  42719>>ASSIGN
SCTX.FU.EXCEP
      9137**DCL     43053>>ASSIGN  43080>>ASSIGN  43088>>ASSIGN  43096>>ASSIGN
SCTX.FU.FD
      9145**DCL     42679>>ASSIGN  43253>>ASSIGN
SCTX.FU.HD
      9146**DCL     42345>>IF      43053>>ASSIGN
SCTX.FU.MA
      9142**DCL     42349>>IF      42850>>ASSIGN
SCTX.FU.NR
      9139**DCL     42347>>IF      43228>>ASSIGN
SCTX.FU.RESYN
      9141**DCL     42850>>ASSIGN  42875>>ASSIGN  42883>>ASSIGN  42932>>ASSIGN  42940>>ASSIGN
SCTX.FU.SY
      9143**DCL     42343>>IF      42785>>ASSIGN  42794>>ASSIGN  42850>>ASSIGN
SCTX.FU.TD
      9136**DCL     42695>>ASSIGN  42703>>ASSIGN
SCTX.HEADX
      9213**DCL     42155>>IF      42160<<ASSIGN  42173>>IF      42180<>CALL    42196>>DOWHILE 42197<>CALL
     42201<<ASSIGN
SCTX.HIST.EVENT
      9204**DCL      9994<<ASSIGN
PL6.E3A0      #001=XSS$MACHINE File=XSS$MACHINE.:XSA1TSI                         WED 10/01/97 12:18 Page:779
SCTX.HIST.NXTST
      9205**DCL      9986>>IF       9995<<ASSIGN  41935<<ASSIGN
SCTX.HISTX
      8903**DCL      9985>>ASSIGN   9993<<ASSIGN  41934>>ASSIGN
SCTX.HISTZ
      9202**DCL      9203--REDEF
SCTX.I
      9004**DCL     42430<<ASSIGN  43114>>IF      43124>>IF      43137>>IF      43147>>IF      43194>>IF
SCTX.I.DK
      9016**DCL     42671>>ASSIGN  42752>>ASSIGN  42769>>ASSIGN  43026>>ASSIGN  43044>>ASSIGN  43261>>ASSIGN
SCTX.I.MA
      9012**DCL     43026>>ASSIGN
SCTX.I.MI
      9014**DCL     42752>>ASSIGN  43026>>ASSIGN  43044>>ASSIGN  43261>>ASSIGN
SCTX.II
      9078**DCL     42432<<ASSIGN
SCTX.II.DK
      9090**DCL     43088>>ASSIGN  43096>>ASSIGN
SCTX.II.MA
      9086**DCL     42735>>ASSIGN  42752>>ASSIGN  42769>>ASSIGN  42964>>ASSIGN  43261>>ASSIGN
SCTX.MODE
      9184**DCL     42352>>DOCASE
SCTX.OWNED
      8967**DCL     42425<<ASSIGN  42425>>ASSIGN  42428<<ASSIGN  42428>>ASSIGN  42430>>ASSIGN  42431>>ASSIGN
     42432>>ASSIGN  42433>>ASSIGN  42603<<ASSIGN  42614<<ASSIGN
SCTX.OWNED.DK
      8979**DCL     42361<<ASSIGN  42370<<ASSIGN
SCTX.OWNED.MA
      8975**DCL     42357<<ASSIGN  42366<<ASSIGN  43035>>ASSIGN  43044>>ASSIGN
SCTX.OWNED.MI
      8977**DCL     42359<<ASSIGN  42368<<ASSIGN
SCTX.OWNED.TR
      8973**DCL     42355<<ASSIGN  42364<<ASSIGN
SCTX.SCID
      9189**DCL      9981>>CALL    42222>>CALL    42239>>CALL    42306<>CALL    42313<>CALL
SCTX.STATE
PL6.E3A0      #001=XSS$MACHINE File=XSS$MACHINE.:XSA1TSI                         WED 10/01/97 12:18 Page:780
      8902**DCL     10009>>DOCASE  10014<<ASSIGN  10019<<ASSIGN  10027<<ASSIGN  10040>>DOCASE  10049<<ASSIGN
     10054<<ASSIGN  10085<<ASSIGN  10098>>DOCASE  10103<<ASSIGN  10231<<ASSIGN  10333<<ASSIGN  10347<<ASSIGN
     10497<<ASSIGN  10602<<ASSIGN  10621>>DOCASE  10629<<ASSIGN  10640<<ASSIGN  10656>>DOCASE  10664<<ASSIGN
     10862<<ASSIGN  11062<<ASSIGN  11081>>DOCASE  11089<<ASSIGN  11197<<ASSIGN  11396<<ASSIGN  11418>>DOCASE
     11426<<ASSIGN  11929<<ASSIGN  11948>>DOCASE  11956<<ASSIGN  12154<<ASSIGN  12354<<ASSIGN  12373>>DOCASE
     12381<<ASSIGN  12489<<ASSIGN  12688<<ASSIGN  12710>>DOCASE  12718<<ASSIGN  12966>>DOCASE  12974<<ASSIGN
     13222>>DOCASE  13230<<ASSIGN  13335<<ASSIGN  13354>>DOCASE  13362<<ASSIGN  13367<<ASSIGN  13380>>DOCASE
     13389<<ASSIGN  13517<<ASSIGN  13619<<ASSIGN  13638>>DOCASE  13646<<ASSIGN  13777<<ASSIGN  13879<<ASSIGN
     14119>>DOCASE  14128<<ASSIGN  14674>>DOCASE  14682<<ASSIGN  14787<<ASSIGN  14984<<ASSIGN  15194<<ASSIGN
     15628<<ASSIGN  15647>>DOCASE  15655<<ASSIGN  15760<<ASSIGN  15957<<ASSIGN  16167<<ASSIGN  16500<<ASSIGN
     16712<<ASSIGN  16731>>DOCASE  16739<<ASSIGN  17204>>DOCASE  17212<<ASSIGN  17346<<ASSIGN  17572<<ASSIGN
     17591>>DOCASE  17599<<ASSIGN  17926<<ASSIGN  18537<<ASSIGN  18556>>DOCASE  18564<<ASSIGN  19009<<ASSIGN
     19028>>DOCASE  19036<<ASSIGN  19038<<ASSIGN  19054>>DOCASE  19062<<ASSIGN  19193>>DOCASE  19207<<ASSIGN
     19403<<ASSIGN  19605<<ASSIGN  19830<<ASSIGN  20026<<ASSIGN  20156>>DOCASE  20164<<ASSIGN  20667<<ASSIGN
     20686>>DOCASE  20694<<ASSIGN  21715>>DOCASE  21723<<ASSIGN  22243>>DOCASE  22251<<ASSIGN  22356<<ASSIGN
     22485>>DOCASE  22496<<ASSIGN  22499<<ASSIGN  22512>>DOCASE  22520<<ASSIGN  22524<<ASSIGN  22541>>DOCASE
     22551<<ASSIGN  22661<<ASSIGN  22674<<ASSIGN  22676<<ASSIGN  22778<<ASSIGN  22921>>DOCASE  22928<<ASSIGN
     23172>>DOCASE  23180<<ASSIGN  23376<<ASSIGN  23578<<ASSIGN  23600>>DOCASE  23608<<ASSIGN  23616<<ASSIGN
     23629>>DOCASE  23637<<ASSIGN  23768<<ASSIGN  23870<<ASSIGN  23889>>DOCASE  23897<<ASSIGN  24201<<ASSIGN
     24322<<ASSIGN  24731<<ASSIGN  24971<<ASSIGN  25082<<ASSIGN  25202<<ASSIGN  25404<<ASSIGN  25423>>DOCASE
     25431<<ASSIGN  25817<<ASSIGN  26019<<ASSIGN  26595<<ASSIGN  26920<<ASSIGN  27113<<ASSIGN  27315<<ASSIGN
     27599<<ASSIGN  27618>>DOCASE  27626<<ASSIGN  27927<<ASSIGN  28045<<ASSIGN  28451<<ASSIGN  28691<<ASSIGN
     28799<<ASSIGN  28916<<ASSIGN  29115<<ASSIGN  29134>>DOCASE  29142<<ASSIGN  29580>>DOCASE  29779<<ASSIGN
     29897<<ASSIGN  30100<<ASSIGN  30391<<ASSIGN  30594<<ASSIGN  30613>>IF      30624<<ASSIGN  30637>>DOSELCT
     30856<<ASSIGN  30875>>IF      30889<<ASSIGN  30902>>DOCASE  31101<<ASSIGN  31219<<ASSIGN  31422<<ASSIGN
     31713<<ASSIGN  31916<<ASSIGN  31935>>IF      31946<<ASSIGN  31959>>IF      32087>>IF      32215>>IF
     32319<<ASSIGN  32338>>IF      32342<<ASSIGN  32355>>DOCASE  32363<<ASSIGN  32468<<ASSIGN  32487>>IF
     32497<<ASSIGN  32639<<ASSIGN  32741<<ASSIGN  32755>>DOCASE  32863<<ASSIGN  32882>>DOCASE  33335>>DOCASE
     33679>>DOCASE  33814<<ASSIGN  34144<<ASSIGN  34334<<ASSIGN  34353>>IF      34568<<ASSIGN  34670<<ASSIGN
     34857<<ASSIGN  34876>>IF      34980<<ASSIGN  34999>>DOCASE  35114<<ASSIGN  35425<<ASSIGN  35543<<ASSIGN
     35746<<ASSIGN  35952<<ASSIGN  36070<<ASSIGN  36089>>DOCASE  36479<<ASSIGN  36684<<ASSIGN  36887<<ASSIGN
     37175<<ASSIGN  37463<<ASSIGN  37482>>DOCASE  37594<<ASSIGN  37905<<ASSIGN  38025<<ASSIGN  38143<<ASSIGN
     38346<<ASSIGN  38552<<ASSIGN  38755<<ASSIGN  38774>>IF      38888<<ASSIGN  38907>>DOSELCT 39126<<ASSIGN
     39145>>DOSELCT 39160<<ASSIGN  39175>>DOSELCT 39409>>DOCASE  40121>>DOCASE  40559<<ASSIGN  40578>>DOCASE
     40813>>DOCASE  41157>>DOCASE  41162<<ASSIGN  41296<<ASSIGN  41452<<ASSIGN  41557<<ASSIGN  41576>>DOCASE
     41684<<ASSIGN  41811>>IF      41815<<ASSIGN  41828>>IF      41835<<ASSIGN  41848>>DOCASE  41854<<ASSIGN
PL6.E3A0      #001=XSS$MACHINE File=XSS$MACHINE.:XSA1TSI                         WED 10/01/97 12:18 Page:781
     41856<<ASSIGN  41885<<ASSIGN  41898>>DOSELCT 41904<<ASSIGN  41935>>ASSIGN  41941>>IF      41944<<ASSIGN
     41947>>IF      41957>>IF      41959<<ASSIGN  41959>>ASSIGN  42271<<ASSIGN  42271>>ASSIGN
SCTX.TAILX
      9214**DCL     42155>>IF      42179>>IF      42182<>CALL    42184<<ASSIGN  42205<<ASSIGN
SCTX.TD.TCREL
      9195**DCL     42405>>ASSIGN
SCTX.TD.USRAB
      9194**DCL     42141>>IF
SCTX.VA
      9165**DCL     42330<<ASSIGN  42530<<ASSIGN  42539<<ASSIGN  42551<<ASSIGN  42561<<ASSIGN  42568<<ASSIGN
     42578<<ASSIGN  42579>>ASSIGN  42590<<ASSIGN  42591>>ASSIGN  42625<<ASSIGN  42821>>IF
SCTX.VM
      9166**DCL     42331<<ASSIGN  42508<<ASSIGN  42508>>ASSIGN  42529>>ASSIGN  42530>>ASSIGN  42539>>ASSIGN
     42542<<ASSIGN  42542>>ASSIGN  42551>>ASSIGN  42554<<ASSIGN  42554>>ASSIGN  42569<<ASSIGN  42579<<ASSIGN
     42591<<ASSIGN  42625>>ASSIGN  42626<<ASSIGN  42626>>ASSIGN  42803>>IF      42812>>IF      42821>>IF
     42915>>IF      43005>>IF      43068>>IF
SCTX.VR
      9167**DCL     42332<<ASSIGN  42529<<ASSIGN  42570<<ASSIGN  42580<<ASSIGN  42593<<ASSIGN  42906>>IF
     42915>>IF
SCTX.VRSP
      9162**DCL     42334<<ASSIGN  42475<<ASSIGN  42478<<ASSIGN  42483<<ASSIGN  42485<<ASSIGN  42488<<ASSIGN
     42592>>IF      42592>>IF      42594<<ASSIGN  42605<<ASSIGN  42616<<ASSIGN  42866>>IF      42980>>IF
     42989>>IF      43000>>DOSELCT 43063>>DOSELCT
SCTX.VRSPNB
      9164**DCL     42486<<ASSIGN  43002>>IF      43065>>IF
SEND_SPDU IN PROCEDURE EVNT
     42239**LABEL   42122--GOTO
SEV_TO_FNC IN PROCEDURE EVNT
     42086**DCL     42218>>ASSIGN
SFPT$
      9956**DCL      4622--IMP-PTR  4768--IMP-PTR  4866--IMP-PTR  5017--IMP-PTR  5115--IMP-PTR  5341--IMP-PTR
      5504--IMP-PTR  5650--IMP-PTR  5973--IMP-PTR  6097--IMP-PTR  6241--IMP-PTR  6385--IMP-PTR  6471--IMP-PTR
      6557--IMP-PTR  6709--IMP-PTR  6922--IMP-PTR  7081--IMP-PTR  7240--IMP-PTR  7370--IMP-PTR  7562--IMP-PTR
      7706--IMP-PTR  7850--IMP-PTR  9988<<ASSIGN  42158>>ASSIGN  42162>>ASSIGN  42176>>ASSIGN  42186>>ASSIGN
     42206>>ASSIGN  42208>>CALL    42218>>ASSIGN  42219>>ASSIGN  42221>>CALL    42222>>CALL    42224>>CALL
     42330>>ASSIGN  42331>>ASSIGN  42337>>ASSIGN  42354>>IF      42356>>IF      42358>>IF      42360>>IF
PL6.E3A0      #001=XSS$MACHINE File=XSS$MACHINE.:XSA1TSI                         WED 10/01/97 12:18 Page:782
     42363>>IF      42365>>IF      42367>>IF      42369>>IF      42425>>ASSIGN  42428>>ASSIGN  42472>>DOSELCT
     42481>>DOCASE  42486>>ASSIGN  42508>>ASSIGN  42561>>ASSIGN  42578>>ASSIGN  42590>>ASSIGN  42803>>IF
     42812>>IF      42821>>IF      42821>>IF      42906>>IF      42915>>IF      42915>>IF      43002>>IF
     43005>>IF      43065>>IF      43068>>IF      43104>>IF      43105>>IF      43114>>IF      43114>>IF
     43114>>IF      43114>>IF      43114>>IF      43137>>IF      43137>>IF      43137>>IF      43137>>IF
     43137>>IF      43137>>IF      43147>>IF      43147>>IF      43147>>IF      43147>>IF      43156>>IF
     43156>>IF      43156>>IF      43156>>IF      43156>>IF      43166>>IF      43166>>IF      43166>>IF
     43166>>IF      43166>>IF      43166>>IF      43176>>IF      43176>>IF      43176>>IF      43176>>IF
VBLK
      9321**DCL        40--PROC    42128>>ASSIGN  42240>>ASSIGN
VBLK.CTX$
      9329**DCL      8888--IMP-PTR  9981>>CALL     9985>>ASSIGN   9986>>IF       9993>>ASSIGN   9994>>ASSIGN
      9995>>ASSIGN  10009>>DOCASE  10014>>ASSIGN  10019>>ASSIGN  10027>>ASSIGN  10040>>DOCASE  10049>>ASSIGN
     10054>>ASSIGN  10085>>ASSIGN  10098>>DOCASE  10103>>ASSIGN  10231>>ASSIGN  10333>>ASSIGN  10347>>ASSIGN
     10497>>ASSIGN  10602>>ASSIGN  10621>>DOCASE  10629>>ASSIGN  10640>>ASSIGN  10656>>DOCASE  10664>>ASSIGN
     10862>>ASSIGN  11062>>ASSIGN  11081>>DOCASE  11089>>ASSIGN  11197>>ASSIGN  11396>>ASSIGN  11418>>DOCASE
     11426>>ASSIGN  11929>>ASSIGN  11948>>DOCASE  11956>>ASSIGN  12154>>ASSIGN  12354>>ASSIGN  12373>>DOCASE
     12381>>ASSIGN  12489>>ASSIGN  12688>>ASSIGN  12710>>DOCASE  12718>>ASSIGN  12966>>DOCASE  12974>>ASSIGN
     13222>>DOCASE  13230>>ASSIGN  13335>>ASSIGN  13354>>DOCASE  13362>>ASSIGN  13367>>ASSIGN  13380>>DOCASE
     13389>>ASSIGN  13517>>ASSIGN  13619>>ASSIGN  13638>>DOCASE  13646>>ASSIGN  13777>>ASSIGN  13879>>ASSIGN
     14119>>DOCASE  14128>>ASSIGN  14674>>DOCASE  14682>>ASSIGN  14787>>ASSIGN  14984>>ASSIGN  15194>>ASSIGN
     15628>>ASSIGN  15647>>DOCASE  15655>>ASSIGN  15760>>ASSIGN  15957>>ASSIGN  16167>>ASSIGN  16500>>ASSIGN
     16712>>ASSIGN  16731>>DOCASE  16739>>ASSIGN  17204>>DOCASE  17212>>ASSIGN  17346>>ASSIGN  17572>>ASSIGN
     17591>>DOCASE  17599>>ASSIGN  17926>>ASSIGN  18537>>ASSIGN  18556>>DOCASE  18564>>ASSIGN  19009>>ASSIGN
     19028>>DOCASE  19036>>ASSIGN  19038>>ASSIGN  19054>>DOCASE  19062>>ASSIGN  19193>>DOCASE  19207>>ASSIGN
     19403>>ASSIGN  19605>>ASSIGN  19830>>ASSIGN  20026>>ASSIGN  20156>>DOCASE  20164>>ASSIGN  20667>>ASSIGN
     20686>>DOCASE  20694>>ASSIGN  21715>>DOCASE  21723>>ASSIGN  22243>>DOCASE  22251>>ASSIGN  22356>>ASSIGN
     22485>>DOCASE  22496>>ASSIGN  22499>>ASSIGN  22512>>DOCASE  22520>>ASSIGN  22524>>ASSIGN  22541>>DOCASE
     22551>>ASSIGN  22661>>ASSIGN  22674>>ASSIGN  22676>>ASSIGN  22778>>ASSIGN  22921>>DOCASE  22928>>ASSIGN
     23172>>DOCASE  23180>>ASSIGN  23376>>ASSIGN  23578>>ASSIGN  23600>>DOCASE  23608>>ASSIGN  23616>>ASSIGN
     23629>>DOCASE  23637>>ASSIGN  23768>>ASSIGN  23870>>ASSIGN  23889>>DOCASE  23897>>ASSIGN  24201>>ASSIGN
     24322>>ASSIGN  24731>>ASSIGN  24971>>ASSIGN  25082>>ASSIGN  25202>>ASSIGN  25404>>ASSIGN  25423>>DOCASE
     25431>>ASSIGN  25817>>ASSIGN  26019>>ASSIGN  26595>>ASSIGN  26920>>ASSIGN  27113>>ASSIGN  27315>>ASSIGN
     27599>>ASSIGN  27618>>DOCASE  27626>>ASSIGN  27927>>ASSIGN  28045>>ASSIGN  28451>>ASSIGN  28691>>ASSIGN
     28799>>ASSIGN  28916>>ASSIGN  29115>>ASSIGN  29134>>DOCASE  29142>>ASSIGN  29580>>DOCASE  29769>>IF
     29779>>ASSIGN  29887>>IF      29897>>ASSIGN  30090>>IF      30100>>ASSIGN  30381>>IF      30391>>ASSIGN
PL6.E3A0      #001=XSS$MACHINE File=XSS$MACHINE.:XSA1TSI                         WED 10/01/97 12:18 Page:783
     30584>>IF      30594>>ASSIGN  30613>>IF      30614>>IF      30624>>ASSIGN  30637>>DOSELCT 30856>>ASSIGN
     30875>>IF      30876>>IF      30889>>ASSIGN  30902>>DOCASE  31091>>IF      31101>>ASSIGN  31209>>IF
     31219>>ASSIGN  31412>>IF      31422>>ASSIGN  31703>>IF      31713>>ASSIGN  31906>>IF      31916>>ASSIGN
     31935>>IF      31936>>IF      31946>>ASSIGN  31959>>IF      32087>>IF      32215>>IF      32319>>ASSIGN
     32338>>IF      32342>>ASSIGN  32355>>DOCASE  32363>>ASSIGN  32468>>ASSIGN  32487>>IF      32497>>ASSIGN
     32639>>ASSIGN  32741>>ASSIGN  32755>>DOCASE  32863>>ASSIGN  32882>>DOCASE  33335>>DOCASE  33679>>DOCASE
     33814>>ASSIGN  34144>>ASSIGN  34334>>ASSIGN  34353>>IF      34568>>ASSIGN  34670>>ASSIGN  34857>>ASSIGN
     34876>>IF      34980>>ASSIGN  34999>>DOCASE  35104>>IF      35114>>ASSIGN  35415>>IF      35425>>ASSIGN
     35533>>IF      35543>>ASSIGN  35736>>IF      35746>>ASSIGN  35942>>IF      35952>>ASSIGN  36060>>IF
     36070>>ASSIGN  36089>>DOCASE  36469>>IF      36479>>ASSIGN  36674>>IF      36684>>ASSIGN  36877>>IF
     36887>>ASSIGN  37165>>IF      37175>>ASSIGN  37453>>IF      37463>>ASSIGN  37482>>DOCASE  37584>>IF
     37594>>ASSIGN  37895>>IF      37905>>ASSIGN  38015>>IF      38025>>ASSIGN  38133>>IF      38143>>ASSIGN
     38336>>IF      38346>>ASSIGN  38542>>IF      38552>>ASSIGN  38745>>IF      38755>>ASSIGN  38774>>IF
     38875>>IF      38888>>ASSIGN  38907>>DOSELCT 39126>>ASSIGN  39145>>DOSELCT 39147>>IF      39160>>ASSIGN
     39175>>DOSELCT 39409>>DOCASE  40121>>DOCASE  40559>>ASSIGN  40578>>DOCASE  40813>>DOCASE  41157>>DOCASE
     41162>>ASSIGN  41296>>ASSIGN  41452>>ASSIGN  41557>>ASSIGN  41576>>DOCASE  41684>>ASSIGN  41811>>IF
     41815>>ASSIGN  41828>>IF      41835>>ASSIGN  41848>>DOCASE  41854>>ASSIGN  41856>>ASSIGN  41885>>ASSIGN
     41898>>DOSELCT 41904>>ASSIGN  41934>>ASSIGN  41935>>ASSIGN  41935>>ASSIGN  41937>>IF      41941>>IF
     41944>>ASSIGN  41947>>IF      41949<>CALL    41950>>ASSIGN  41951>>ASSIGN  41957>>IF      41959>>ASSIGN
     41959>>ASSIGN  42133>>ASSIGN  42141>>IF      42155>>IF      42155>>IF      42160>>ASSIGN  42163>>ASSIGN
     42173>>IF      42179>>IF      42180>>CALL    42182>>CALL    42184>>ASSIGN  42187>>ASSIGN  42187>>ASSIGN
     42195>>CALL    42196>>DOWHILE 42197>>CALL    42201>>ASSIGN  42205>>ASSIGN  42206>>ASSIGN  42207>>ASSIGN
     42222>>CALL    42223>>IF      42224>>CALL    42226>>ASSIGN  42239>>CALL    42245>>ASSIGN  42248>>IF
     42254>>ASSIGN  42268>>ASSIGN  42271>>ASSIGN  42271>>ASSIGN  42292>>ASSIGN  42299>>ASSIGN  42306>>CALL
     42313>>CALL    42330>>ASSIGN  42331>>ASSIGN  42332>>ASSIGN  42333>>ASSIGN  42334>>ASSIGN  42335>>ASSIGN
     42337>>ASSIGN  42337>>ASSIGN  42338>>IF      42339>>ASSIGN  42340>>ASSIGN  42343>>IF      42344>>ASSIGN
     42345>>IF      42346>>ASSIGN  42347>>IF      42348>>ASSIGN  42349>>IF      42349>>IF      42350>>ASSIGN
     42352>>DOCASE  42355>>ASSIGN  42357>>ASSIGN  42359>>ASSIGN  42361>>ASSIGN  42364>>ASSIGN  42366>>ASSIGN
     42368>>ASSIGN  42370>>ASSIGN  42378>>IF      42379>>DOINDEX 42380>>CALL    42382>>ASSIGN  42390>>ASSIGN
     42397>>ASSIGN  42405>>ASSIGN  42405>>ASSIGN  42412>>IF      42414>>ASSIGN  42414>>ASSIGN  42415>>ASSIGN
     42415>>ASSIGN  42425>>ASSIGN  42425>>ASSIGN  42428>>ASSIGN  42428>>ASSIGN  42430>>ASSIGN  42430>>ASSIGN
     42430>>ASSIGN  42431>>ASSIGN  42431>>ASSIGN  42431>>ASSIGN  42432>>ASSIGN  42432>>ASSIGN  42432>>ASSIGN
     42433>>ASSIGN  42433>>ASSIGN  42433>>ASSIGN  42440>>ASSIGN  42447>>ASSIGN  42451>>ASSIGN  42458>>ASSIGN
     42458>>ASSIGN  42475>>ASSIGN  42478>>ASSIGN  42483>>ASSIGN  42485>>ASSIGN  42486>>ASSIGN  42488>>ASSIGN
     42501>>ASSIGN  42508>>ASSIGN  42508>>ASSIGN  42529>>ASSIGN  42529>>ASSIGN  42530>>ASSIGN  42530>>ASSIGN
     42538>>IF      42539>>ASSIGN  42539>>ASSIGN  42540>>ASSIGN  42542>>ASSIGN  42542>>ASSIGN  42550>>IF
PL6.E3A0      #001=XSS$MACHINE File=XSS$MACHINE.:XSA1TSI                         WED 10/01/97 12:18 Page:784
     42551>>ASSIGN  42551>>ASSIGN  42552>>ASSIGN  42554>>ASSIGN  42554>>ASSIGN  42561>>ASSIGN  42568>>ASSIGN
     42569>>ASSIGN  42570>>ASSIGN  42578>>ASSIGN  42579>>ASSIGN  42579>>ASSIGN  42580>>ASSIGN  42590>>ASSIGN
     42591>>ASSIGN  42591>>ASSIGN  42592>>IF      42592>>IF      42593>>ASSIGN  42594>>ASSIGN  42603>>ASSIGN
     42603>>ASSIGN  42604>>ASSIGN  42605>>ASSIGN  42614>>ASSIGN  42614>>ASSIGN  42615>>ASSIGN  42616>>ASSIGN
     42624>>IF      42625>>ASSIGN  42625>>ASSIGN  42626>>ASSIGN  42626>>ASSIGN  42633>>ASSIGN  42654>>ASSIGN
     42663>>ASSIGN  42671>>ASSIGN  42679>>ASSIGN  42679>>ASSIGN  42687>>ASSIGN  42695>>ASSIGN  42703>>ASSIGN
     42703>>ASSIGN  42711>>ASSIGN  42719>>ASSIGN  42719>>ASSIGN  42727>>ASSIGN  42735>>ASSIGN  42743>>ASSIGN
     42743>>ASSIGN  42743>>ASSIGN  42743>>ASSIGN  42743>>ASSIGN  42752>>ASSIGN  42752>>ASSIGN  42752>>ASSIGN
     42752>>ASSIGN  42752>>ASSIGN  42761>>ASSIGN  42761>>ASSIGN  42761>>ASSIGN  42761>>ASSIGN  42769>>ASSIGN
     42769>>ASSIGN  42769>>ASSIGN  42769>>ASSIGN  42777>>ASSIGN  42785>>ASSIGN  42785>>ASSIGN  42785>>ASSIGN
     42785>>ASSIGN  42794>>ASSIGN  42794>>ASSIGN  42794>>ASSIGN  42794>>ASSIGN  42803>>IF      42812>>IF
     42821>>IF      42821>>IF      42834>>ASSIGN  42834>>ASSIGN  42842>>ASSIGN  42850>>ASSIGN  42850>>ASSIGN
     42850>>ASSIGN  42858>>ASSIGN  42858>>ASSIGN  42866>>IF      42875>>ASSIGN  42883>>ASSIGN  42883>>ASSIGN
     42883>>ASSIGN  42891>>ASSIGN  42891>>ASSIGN  42906>>IF      42915>>IF      42915>>IF      42924>>ASSIGN
     42932>>ASSIGN  42932>>ASSIGN  42940>>ASSIGN  42940>>ASSIGN  42948>>ASSIGN  42948>>ASSIGN  42956>>ASSIGN
     42956>>ASSIGN  42964>>ASSIGN  42964>>ASSIGN  42972>>ASSIGN  42980>>IF      42989>>IF      43000>>DOSELCT
     43002>>IF      43005>>IF      43017>>ASSIGN  43017>>ASSIGN  43017>>ASSIGN  43017>>ASSIGN  43017>>ASSIGN
     43026>>ASSIGN  43026>>ASSIGN  43026>>ASSIGN  43026>>ASSIGN  43026>>ASSIGN  43035>>ASSIGN  43035>>ASSIGN
     43035>>ASSIGN  43035>>ASSIGN  43035>>ASSIGN  43035>>ASSIGN  43044>>ASSIGN  43044>>ASSIGN  43044>>ASSIGN
     43044>>ASSIGN  43044>>ASSIGN  43044>>ASSIGN  43053>>ASSIGN  43053>>ASSIGN  43063>>DOSELCT 43065>>IF
     43068>>IF      43080>>ASSIGN  43080>>ASSIGN  43080>>ASSIGN  43080>>ASSIGN  43088>>ASSIGN  43088>>ASSIGN
     43088>>ASSIGN  43088>>ASSIGN  43096>>ASSIGN  43096>>ASSIGN  43096>>ASSIGN  43105>>IF      43114>>IF
     43114>>IF      43124>>IF      43124>>IF      43124>>IF      43137>>IF      43137>>IF      43147>>IF
     43156>>IF      43156>>IF      43166>>IF      43166>>IF      43176>>IF      43185>>IF      43185>>IF
     43185>>IF      43194>>IF      43195>>ASSIGN  43195>>ASSIGN  43204>>ASSIGN  43204>>ASSIGN  43212>>ASSIGN
     43220>>ASSIGN  43228>>ASSIGN  43236>>IF      43237>>ASSIGN  43237>>ASSIGN  43245>>ASSIGN  43253>>ASSIGN
     43261>>ASSIGN  43261>>ASSIGN  43261>>ASSIGN  43261>>ASSIGN  43261>>ASSIGN  43270>>ASSIGN  43270>>ASSIGN
     43270>>ASSIGN  43270>>ASSIGN  43270>>ASSIGN  43287>>ASSIGN  43287>>ASSIGN  43287>>ASSIGN
VBLK.EI.BOSSDU
      9334**DCL     42149>>IF
VBLK.EI.EOSSDU
      9335**DCL     42150>>IF      42193>>IF
VBLK.EVENT
      9339**DCL      9981>>CALL     9994>>ASSIGN  10001>>DOCASE  42266>>IF      42414>>ASSIGN  42422>>DOSELCT
     42450>>IF      42450>>IF
VBLK.FPT$
PL6.E3A0      #001=XSS$MACHINE File=XSS$MACHINE.:XSA1TSI                         WED 10/01/97 12:18 Page:785
      9340**DCL      9988>>ASSIGN
VBLK.USERCALL
      9341**DCL     42234<<ASSIGN  42234>>ASSIGN
XSS$ACTIVITY_DISCARD.ERRDEF
      4812**DCL      4838--REDEF
XSS$ACTIVITY_END.ERRDEF
      4902**DCL      4922--REDEF
XSS$ACTIVITY_INTERRUPT.ERRDEF
      5067**DCL      5087--REDEF
XSS$ACTIVITY_RESUME.ERRDEF
      5154**DCL      5174--REDEF
XSS$ACTIVITY_START.ERRDEF
      5375**DCL      5395--REDEF
XSS$BLKPTR
      9941**DCL-ENT 42165--CALL    42180--CALL    42182--CALL    42189--CALL    42197--CALL
XSS$BUFPTR
      9942**DCL-ENT 42208--CALL
XSS$CAPABILITY_DATA.ERRDEF
      5540**DCL      5560--REDEF
XSS$CLOCK
      9943**DCL-ENT 42306--CALL    42313--CALL
XSS$CONNECT.CALLED$
      5876**DCL      5877--REDEF
XSS$CONNECT.ERRDEF
      5744**DCL      5764--REDEF
XSS$CONNECT.ITOKENS.DK
      5897**DCL     42360>>IF      42369>>IF
XSS$CONNECT.ITOKENS.MA
      5895**DCL     42356>>IF      42365>>IF
XSS$CONNECT.ITOKENS.MI
      5896**DCL     42358>>IF      42367>>IF
XSS$CONNECT.ITOKENS.TR
      5894**DCL     42354>>IF      42363>>IF
XSS$CONNECT.SERNUM
      5840**DCL     42330>>ASSIGN  42331>>ASSIGN
XSS$CONNECT.SFU
PL6.E3A0      #001=XSS$MACHINE File=XSS$MACHINE.:XSA1TSI                         WED 10/01/97 12:18 Page:786
      5929**DCL     42337>>ASSIGN
XSS$CONTROL_GIVE.ERRDEF
      6049**DCL      6069--REDEF
XSS$DATA.ERRDEF
      6131**DCL      6151--REDEF
XSS$DUMPFPT
      9944**DCL-ENT 42221--CALL
XSS$ENCODE
      9945**DCL-ENT 42242--CALL
XSS$EVLOG
      9951**DCL-ENT  9981--CALL    42222--CALL    42239--CALL
XSS$EXPEDITED_DATA.ERRDEF
      6275**DCL      6295--REDEF
XSS$GENERIC
      4622**DCL     42221<>CALL    42224<>CALL
XSS$GENERIC.DATA.PTR$
      4740**DCL     42162>>ASSIGN  42186>>ASSIGN  42208<>CALL
XSS$GENERIC.DATA.SIZE
      4746**DCL     42158>>ASSIGN  42176>>ASSIGN  42206<<ASSIGN
XSS$GENERIC.ERRDEF
      4676**DCL      4696--REDEF
XSS$GENERIC.ERROR
      4696**DCL     42219<<ASSIGN
XSS$GENERIC.FNC
      4636**DCL     42218<<ASSIGN  42222>>CALL    42472>>DOSELCT
XSS$GENERIC.SERNUM
      4748**DCL     42561>>ASSIGN  42578>>ASSIGN  42590>>ASSIGN  42803>>IF      42812>>IF      42821>>IF
     42821>>IF      42906>>IF      42915>>IF      42915>>IF      43002>>IF      43005>>IF      43065>>IF
     43068>>IF
XSS$GENERIC.TOKENS
      4658**DCL     42425>>ASSIGN  42428>>ASSIGN  43104>>IF      43105>>IF      43114>>IF      43114>>IF
     43114>>IF      43114>>IF      43114>>IF      43137>>IF      43137>>IF      43137>>IF      43137>>IF
     43137>>IF      43147>>IF      43147>>IF      43147>>IF      43156>>IF      43156>>IF      43156>>IF
     43156>>IF      43156>>IF      43166>>IF      43166>>IF      43166>>IF      43166>>IF      43166>>IF
     43176>>IF      43176>>IF      43176>>IF
XSS$GENERIC.TOKENS.DK
PL6.E3A0      #001=XSS$MACHINE File=XSS$MACHINE.:XSA1TSI                         WED 10/01/97 12:18 Page:787
      4670**DCL     43137>>IF      43147>>IF      43166>>IF      43176>>IF
XSS$GETMEM
      9946**DCL-ENT 42159--CALL    42177--CALL    42195--CALL
XSS$P_ABORT.ERRDEF
      6423**DCL      6443--REDEF
XSS$P_EXCEPTION_REPORT.ERRDEF
      6509**DCL      6529--REDEF
XSS$RELCTX
      9947**DCL-ENT 41949--CALL
XSS$RELEASE.ERRDEF
      6599**DCL      6619--REDEF
XSS$RELMEM
      9948**DCL-ENT 42203--CALL    42233--CALL
XSS$RESYNCHRONIZE.ERRDEF
      6807**DCL      6827--REDEF
XSS$RESYNCHRONIZE.SERNUM
      6903**DCL     42486>>ASSIGN  42508>>ASSIGN
XSS$RESYNCHRONIZE.TYPE
      6747**DCL     42481>>DOCASE
XSS$SCREECH
      9949**DCL-ENT  9987--CALL    42127--CALL    42230--CALL    42413--CALL
XSS$SYNC_MAJOR.ERRDEF
      6966**DCL      6986--REDEF
XSS$SYNC_MINOR.ERRDEF
      7125**DCL      7145--REDEF
XSS$TOKEN_GIVE.ERRDEF
      7322**DCL      7342--REDEF
XSS$TOKEN_PLEASE.ERRDEF
      7452**DCL      7472--REDEF
XSS$TSEND
      9950**DCL-ENT 42130--CALL
XSS$TYPED_DATA.ERRDEF
      7596**DCL      7616--REDEF
XSS$U_ABORT.ERRDEF
      7740**DCL      7760--REDEF
XSS$U_EXCEPTION_REPORT.ERRDEF
PL6.E3A0      #001=XSS$MACHINE File=XSS$MACHINE.:XSA1TSI                         WED 10/01/97 12:18 Page:788
      7889**DCL      7909--REDEF
XSS_F$CYCLE
      9798**DCL      9987<>CALL
XSS_F$EVNTERR
      9849**DCL     42127<>CALL
XSS_F$NOSESS
      9900**DCL     42230<>CALL
XSS_TRACE
      9953**DCL     42220>>IF
ZBLK IN PROCEDURE EVNT
     41996**DCL     42128<<ASSIGN  42130<>CALL    42240<<ASSIGN  42242<>CALL
ZBLK.EVENT IN PROCEDURE EVNT
     42014**DCL     42129<<ASSIGN  42241<<ASSIGN
ZPINV
      9960**DCL      9961--REDEF    9999<<ASSIGN   9999<<ASSIGN   9999<<ASSIGN
ZPRED
      9958**DCL      9959--REDEF    9998<<ASSIGN   9998<<ASSIGN   9998<<ASSIGN
PL6.E3A0      #001=XSS$MACHINE File=XSS$MACHINE.:XSA1TSI                         WED 10/01/97 12:18 Page:789
              *** CROSS REFERENCE LISTING ***
    **     DENOTES     IDENTIFIER DEFINITION
    <<                 IDENTIFIER'S VALUE SET
    >>                 IDENTIFIER'S VALUE USED
    <>                 IDENTIFIER SET AND/OR USED
    --                 IDENTIFIER REFERENCED
PL6.E3A0      #001=XSS$MACHINE File=XSS$MACHINE.:XSA1TSI                         WED 10/01/97 12:18 Page:790
              MINI UREF LISTING

ACTION00   42281**PROC
ACTION15 IN PROCEDURE ACTION00  42461**ENTRY
ACTION20 IN PROCEDURE ACTION00  42511**ENTRY
ACTION21 IN PROCEDURE ACTION00  42518**ENTRY
AVTION17 IN PROCEDURE ACTION00  42493**ENTRY
PRED00   42643**PROC
PRED22 IN PROCEDURE PRED00  42826**ENTRY
PRED31 IN PROCEDURE PRED00  42895**ENTRY
PRED56 IN PROCEDURE PRED00  43129**ENTRY
PRED73 IN PROCEDURE PRED00  43275**ENTRY
PRED74 IN PROCEDURE PRED00  43279**ENTRY
XSS$MACHINE      40**PROC
